{
	"contracts/Marketplace2/Marketplace.sol": {
		"NFTMarket": {
			"abi": [
				{
					"inputs": [
						{
							"internalType": "address",
							"name": "_mainToken",
							"type": "address"
						},
						{
							"internalType": "address",
							"name": "_mainNFT",
							"type": "address"
						},
						{
							"internalType": "address",
							"name": "_mainFactory",
							"type": "address"
						}
					],
					"stateMutability": "nonpayable",
					"type": "constructor"
				},
				{
					"anonymous": false,
					"inputs": [
						{
							"indexed": false,
							"internalType": "uint256",
							"name": "itemId",
							"type": "uint256"
						},
						{
							"indexed": true,
							"internalType": "uint256",
							"name": "tokenId",
							"type": "uint256"
						},
						{
							"indexed": true,
							"internalType": "address",
							"name": "seller",
							"type": "address"
						},
						{
							"indexed": false,
							"internalType": "uint256",
							"name": "price",
							"type": "uint256"
						},
						{
							"indexed": true,
							"internalType": "address",
							"name": "buyer",
							"type": "address"
						},
						{
							"indexed": false,
							"internalType": "string",
							"name": "currency",
							"type": "string"
						},
						{
							"indexed": false,
							"internalType": "uint256",
							"name": "createdAt",
							"type": "uint256"
						}
					],
					"name": "BuyItemSuccessful",
					"type": "event"
				},
				{
					"anonymous": false,
					"inputs": [
						{
							"indexed": false,
							"internalType": "uint256",
							"name": "id",
							"type": "uint256"
						},
						{
							"indexed": true,
							"internalType": "uint256",
							"name": "assetId",
							"type": "uint256"
						},
						{
							"indexed": true,
							"internalType": "address",
							"name": "delistBy",
							"type": "address"
						},
						{
							"indexed": false,
							"internalType": "uint256",
							"name": "createdAt",
							"type": "uint256"
						}
					],
					"name": "DelistItemSuccessful",
					"type": "event"
				},
				{
					"anonymous": false,
					"inputs": [
						{
							"indexed": true,
							"internalType": "uint256",
							"name": "itemId",
							"type": "uint256"
						},
						{
							"indexed": true,
							"internalType": "uint256",
							"name": "tokenId",
							"type": "uint256"
						},
						{
							"indexed": false,
							"internalType": "address",
							"name": "seller",
							"type": "address"
						},
						{
							"indexed": false,
							"internalType": "address",
							"name": "owner",
							"type": "address"
						},
						{
							"indexed": false,
							"internalType": "uint256",
							"name": "price",
							"type": "uint256"
						}
					],
					"name": "MarketItemCreated",
					"type": "event"
				},
				{
					"anonymous": false,
					"inputs": [
						{
							"indexed": true,
							"internalType": "address",
							"name": "previousOwner",
							"type": "address"
						},
						{
							"indexed": true,
							"internalType": "address",
							"name": "newOwner",
							"type": "address"
						}
					],
					"name": "OwnershipTransferred",
					"type": "event"
				},
				{
					"anonymous": false,
					"inputs": [
						{
							"indexed": false,
							"internalType": "address",
							"name": "nftAddress",
							"type": "address"
						},
						{
							"indexed": false,
							"internalType": "bytes32",
							"name": "id",
							"type": "bytes32"
						},
						{
							"indexed": true,
							"internalType": "uint256",
							"name": "assetId",
							"type": "uint256"
						},
						{
							"indexed": false,
							"internalType": "uint256",
							"name": "price",
							"type": "uint256"
						},
						{
							"indexed": true,
							"internalType": "address",
							"name": "seller",
							"type": "address"
						},
						{
							"indexed": false,
							"internalType": "string",
							"name": "currency",
							"type": "string"
						},
						{
							"indexed": false,
							"internalType": "uint256",
							"name": "createdAt",
							"type": "uint256"
						}
					],
					"name": "SellItemSuccessful",
					"type": "event"
				},
				{
					"inputs": [],
					"name": "ERC721_Interface",
					"outputs": [
						{
							"internalType": "bytes4",
							"name": "",
							"type": "bytes4"
						}
					],
					"stateMutability": "view",
					"type": "function"
				},
				{
					"inputs": [
						{
							"internalType": "uint256",
							"name": "",
							"type": "uint256"
						}
					],
					"name": "allItems",
					"outputs": [
						{
							"internalType": "uint256",
							"name": "itemId",
							"type": "uint256"
						},
						{
							"internalType": "uint256",
							"name": "tokenId",
							"type": "uint256"
						},
						{
							"internalType": "address",
							"name": "seller",
							"type": "address"
						},
						{
							"internalType": "address",
							"name": "owner",
							"type": "address"
						},
						{
							"internalType": "uint256",
							"name": "price",
							"type": "uint256"
						},
						{
							"internalType": "enum MarketplaceStorage.ItemStatus",
							"name": "status",
							"type": "uint8"
						}
					],
					"stateMutability": "view",
					"type": "function"
				},
				{
					"inputs": [],
					"name": "allMarketItems",
					"outputs": [
						{
							"internalType": "uint256",
							"name": "itemId",
							"type": "uint256"
						},
						{
							"internalType": "uint256",
							"name": "tokenId",
							"type": "uint256"
						},
						{
							"internalType": "address",
							"name": "seller",
							"type": "address"
						},
						{
							"internalType": "address",
							"name": "owner",
							"type": "address"
						},
						{
							"internalType": "uint256",
							"name": "price",
							"type": "uint256"
						},
						{
							"internalType": "enum MarketplaceStorage.ItemStatus",
							"name": "status",
							"type": "uint8"
						}
					],
					"stateMutability": "view",
					"type": "function"
				},
				{
					"inputs": [],
					"name": "antaFeePercent",
					"outputs": [
						{
							"internalType": "uint8",
							"name": "",
							"type": "uint8"
						}
					],
					"stateMutability": "view",
					"type": "function"
				},
				{
					"inputs": [],
					"name": "bnbFeePercent",
					"outputs": [
						{
							"internalType": "uint8",
							"name": "",
							"type": "uint8"
						}
					],
					"stateMutability": "view",
					"type": "function"
				},
				{
					"inputs": [
						{
							"internalType": "uint256",
							"name": "tokenId",
							"type": "uint256"
						},
						{
							"internalType": "uint256",
							"name": "price",
							"type": "uint256"
						}
					],
					"name": "createMarketItem",
					"outputs": [],
					"stateMutability": "nonpayable",
					"type": "function"
				},
				{
					"inputs": [
						{
							"internalType": "uint256",
							"name": "itemId",
							"type": "uint256"
						},
						{
							"internalType": "uint256",
							"name": "amount",
							"type": "uint256"
						}
					],
					"name": "createMarketSale",
					"outputs": [],
					"stateMutability": "nonpayable",
					"type": "function"
				},
				{
					"inputs": [
						{
							"internalType": "uint256",
							"name": "itemId",
							"type": "uint256"
						}
					],
					"name": "delistItem",
					"outputs": [],
					"stateMutability": "nonpayable",
					"type": "function"
				},
				{
					"inputs": [],
					"name": "factory",
					"outputs": [
						{
							"internalType": "contract IFactory",
							"name": "",
							"type": "address"
						}
					],
					"stateMutability": "view",
					"type": "function"
				},
				{
					"inputs": [
						{
							"internalType": "uint256",
							"name": "itemId",
							"type": "uint256"
						}
					],
					"name": "fetchMarketItem",
					"outputs": [
						{
							"components": [
								{
									"internalType": "uint256",
									"name": "itemId",
									"type": "uint256"
								},
								{
									"internalType": "uint256",
									"name": "tokenId",
									"type": "uint256"
								},
								{
									"internalType": "address",
									"name": "seller",
									"type": "address"
								},
								{
									"internalType": "address",
									"name": "owner",
									"type": "address"
								},
								{
									"internalType": "uint256",
									"name": "price",
									"type": "uint256"
								},
								{
									"internalType": "enum MarketplaceStorage.ItemStatus",
									"name": "status",
									"type": "uint8"
								}
							],
							"internalType": "struct MarketplaceStorage.MarketItem",
							"name": "",
							"type": "tuple"
						}
					],
					"stateMutability": "view",
					"type": "function"
				},
				{
					"inputs": [],
					"name": "fetchMarketItems",
					"outputs": [
						{
							"components": [
								{
									"internalType": "uint256",
									"name": "itemId",
									"type": "uint256"
								},
								{
									"internalType": "uint256",
									"name": "tokenId",
									"type": "uint256"
								},
								{
									"internalType": "address",
									"name": "seller",
									"type": "address"
								},
								{
									"internalType": "address",
									"name": "owner",
									"type": "address"
								},
								{
									"internalType": "uint256",
									"name": "price",
									"type": "uint256"
								},
								{
									"internalType": "enum MarketplaceStorage.ItemStatus",
									"name": "status",
									"type": "uint8"
								}
							],
							"internalType": "struct MarketplaceStorage.MarketItem",
							"name": "",
							"type": "tuple"
						}
					],
					"stateMutability": "view",
					"type": "function"
				},
				{
					"inputs": [],
					"name": "fetchMySelling",
					"outputs": [
						{
							"components": [
								{
									"internalType": "uint256",
									"name": "itemId",
									"type": "uint256"
								},
								{
									"internalType": "uint256",
									"name": "tokenId",
									"type": "uint256"
								},
								{
									"internalType": "address",
									"name": "seller",
									"type": "address"
								},
								{
									"internalType": "address",
									"name": "owner",
									"type": "address"
								},
								{
									"internalType": "uint256",
									"name": "price",
									"type": "uint256"
								},
								{
									"internalType": "enum MarketplaceStorage.ItemStatus",
									"name": "status",
									"type": "uint8"
								}
							],
							"internalType": "struct MarketplaceStorage.MarketItem[]",
							"name": "",
							"type": "tuple[]"
						}
					],
					"stateMutability": "view",
					"type": "function"
				},
				{
					"inputs": [
						{
							"internalType": "uint256",
							"name": "tokenId",
							"type": "uint256"
						}
					],
					"name": "getIngameItem",
					"outputs": [
						{
							"components": [
								{
									"internalType": "uint256",
									"name": "id",
									"type": "uint256"
								},
								{
									"internalType": "address",
									"name": "owner",
									"type": "address"
								},
								{
									"internalType": "string",
									"name": "itemId",
									"type": "string"
								},
								{
									"internalType": "string",
									"name": "externalId",
									"type": "string"
								},
								{
									"internalType": "bool",
									"name": "ingame",
									"type": "bool"
								}
							],
							"internalType": "struct IFactory.ingameItems",
							"name": "",
							"type": "tuple"
						}
					],
					"stateMutability": "view",
					"type": "function"
				},
				{
					"inputs": [
						{
							"internalType": "uint256",
							"name": "marketItemId",
							"type": "uint256"
						}
					],
					"name": "getMarketItem",
					"outputs": [
						{
							"components": [
								{
									"internalType": "uint256",
									"name": "itemId",
									"type": "uint256"
								},
								{
									"internalType": "uint256",
									"name": "tokenId",
									"type": "uint256"
								},
								{
									"internalType": "address",
									"name": "seller",
									"type": "address"
								},
								{
									"internalType": "address",
									"name": "owner",
									"type": "address"
								},
								{
									"internalType": "uint256",
									"name": "price",
									"type": "uint256"
								},
								{
									"internalType": "enum MarketplaceStorage.ItemStatus",
									"name": "status",
									"type": "uint8"
								}
							],
							"internalType": "struct MarketplaceStorage.MarketItem",
							"name": "",
							"type": "tuple"
						}
					],
					"stateMutability": "view",
					"type": "function"
				},
				{
					"inputs": [
						{
							"internalType": "address",
							"name": "",
							"type": "address"
						},
						{
							"internalType": "uint256",
							"name": "",
							"type": "uint256"
						}
					],
					"name": "items",
					"outputs": [
						{
							"internalType": "uint256",
							"name": "itemId",
							"type": "uint256"
						},
						{
							"internalType": "uint256",
							"name": "tokenId",
							"type": "uint256"
						},
						{
							"internalType": "address",
							"name": "seller",
							"type": "address"
						},
						{
							"internalType": "address",
							"name": "owner",
							"type": "address"
						},
						{
							"internalType": "uint256",
							"name": "price",
							"type": "uint256"
						},
						{
							"internalType": "enum MarketplaceStorage.ItemStatus",
							"name": "status",
							"type": "uint8"
						}
					],
					"stateMutability": "view",
					"type": "function"
				},
				{
					"inputs": [],
					"name": "mainNFTs",
					"outputs": [
						{
							"internalType": "contract IERC721",
							"name": "",
							"type": "address"
						}
					],
					"stateMutability": "view",
					"type": "function"
				},
				{
					"inputs": [],
					"name": "mainToken",
					"outputs": [
						{
							"internalType": "contract IERC20",
							"name": "",
							"type": "address"
						}
					],
					"stateMutability": "view",
					"type": "function"
				},
				{
					"inputs": [],
					"name": "owner",
					"outputs": [
						{
							"internalType": "address",
							"name": "",
							"type": "address"
						}
					],
					"stateMutability": "view",
					"type": "function"
				},
				{
					"inputs": [],
					"name": "renounceOwnership",
					"outputs": [],
					"stateMutability": "nonpayable",
					"type": "function"
				},
				{
					"inputs": [
						{
							"internalType": "address",
							"name": "_address",
							"type": "address"
						}
					],
					"name": "setFactory",
					"outputs": [],
					"stateMutability": "nonpayable",
					"type": "function"
				},
				{
					"inputs": [
						{
							"internalType": "address",
							"name": "_address",
							"type": "address"
						}
					],
					"name": "setMainNFT",
					"outputs": [],
					"stateMutability": "nonpayable",
					"type": "function"
				},
				{
					"inputs": [
						{
							"internalType": "address",
							"name": "_address",
							"type": "address"
						}
					],
					"name": "setMainToken",
					"outputs": [],
					"stateMutability": "nonpayable",
					"type": "function"
				},
				{
					"inputs": [
						{
							"internalType": "address",
							"name": "newOwner",
							"type": "address"
						}
					],
					"name": "transferOwnership",
					"outputs": [],
					"stateMutability": "nonpayable",
					"type": "function"
				}
			],
			"devdoc": {
				"kind": "dev",
				"methods": {
					"owner()": {
						"details": "Returns the address of the current owner."
					},
					"renounceOwnership()": {
						"details": "Leaves the contract without owner. It will not be possible to call `onlyOwner` functions anymore. Can only be called by the current owner. NOTE: Renouncing ownership will leave the contract without an owner, thereby removing any functionality that is only available to the owner."
					},
					"transferOwnership(address)": {
						"details": "Transfers ownership of the contract to a new account (`newOwner`). Can only be called by the current owner."
					}
				},
				"version": 1
			},
			"evm": {
				"assembly": "    /* \"contracts/Marketplace2/Marketplace.sol\":17107:24523  contract NFTMarket is ReentrancyGuard,MarketplaceStorage, Ownable {... */\n  mstore(0x40, 0x80)\n    /* \"contracts/Marketplace2/Marketplace.sol\":17353:17547  constructor(address _mainToken, address _mainNFT, address _mainFactory ) {... */\n  callvalue\n  dup1\n  iszero\n  tag_1\n  jumpi\n  0x00\n  dup1\n  revert\ntag_1:\n  pop\n  mload(0x40)\n  sub(codesize, bytecodeSize)\n  dup1\n  bytecodeSize\n  dup4\n  codecopy\n  dup2\n  dup2\n  add\n  0x40\n  mstore\n  dup2\n  add\n  swap1\n  tag_2\n  swap2\n  swap1\n  tag_3\n  jump\t// in\ntag_2:\n    /* \"contracts/Marketplace2/Marketplace.sol\":14122:14123  1 */\n  0x01\n    /* \"contracts/Marketplace2/Marketplace.sol\":14227:14234  _status */\n  0x00\n    /* \"contracts/Marketplace2/Marketplace.sol\":14227:14249  _status = _NOT_ENTERED */\n  dup2\n  swap1\n  sstore\n  pop\n    /* \"contracts/Marketplace2/Marketplace.sol\":1561:1593  _transferOwnership(_msgSender()) */\n  tag_9\n    /* \"contracts/Marketplace2/Marketplace.sol\":1580:1592  _msgSender() */\n  tag_10\n    /* \"contracts/Marketplace2/Marketplace.sol\":1580:1590  _msgSender */\n  shl(0x20, tag_11)\n    /* \"contracts/Marketplace2/Marketplace.sol\":1580:1592  _msgSender() */\n  0x20\n  shr\n  jump\t// in\ntag_10:\n    /* \"contracts/Marketplace2/Marketplace.sol\":1561:1579  _transferOwnership */\n  shl(0x20, tag_12)\n    /* \"contracts/Marketplace2/Marketplace.sol\":1561:1593  _transferOwnership(_msgSender()) */\n  0x20\n  shr\n  jump\t// in\ntag_9:\n    /* \"contracts/Marketplace2/Marketplace.sol\":17453:17463  _mainToken */\n  dup3\n    /* \"contracts/Marketplace2/Marketplace.sol\":17434:17443  mainToken */\n  0x09\n  0x00\n    /* \"contracts/Marketplace2/Marketplace.sol\":17434:17464  mainToken = IERC20(_mainToken) */\n  0x0100\n  exp\n  dup2\n  sload\n  dup2\n  0xffffffffffffffffffffffffffffffffffffffff\n  mul\n  not\n  and\n  swap1\n  dup4\n  0xffffffffffffffffffffffffffffffffffffffff\n  and\n  mul\n  or\n  swap1\n  sstore\n  pop\n    /* \"contracts/Marketplace2/Marketplace.sol\":17491:17499  _mainNFT */\n  dup2\n    /* \"contracts/Marketplace2/Marketplace.sol\":17472:17480  mainNFTs */\n  0x0b\n  0x00\n    /* \"contracts/Marketplace2/Marketplace.sol\":17472:17500  mainNFTs = IERC721(_mainNFT) */\n  0x0100\n  exp\n  dup2\n  sload\n  dup2\n  0xffffffffffffffffffffffffffffffffffffffff\n  mul\n  not\n  and\n  swap1\n  dup4\n  0xffffffffffffffffffffffffffffffffffffffff\n  and\n  mul\n  or\n  swap1\n  sstore\n  pop\n    /* \"contracts/Marketplace2/Marketplace.sol\":17527:17539  _mainFactory */\n  dup1\n    /* \"contracts/Marketplace2/Marketplace.sol\":17508:17515  factory */\n  0x0a\n  0x00\n    /* \"contracts/Marketplace2/Marketplace.sol\":17508:17540  factory = IFactory(_mainFactory) */\n  0x0100\n  exp\n  dup2\n  sload\n  dup2\n  0xffffffffffffffffffffffffffffffffffffffff\n  mul\n  not\n  and\n  swap1\n  dup4\n  0xffffffffffffffffffffffffffffffffffffffff\n  and\n  mul\n  or\n  swap1\n  sstore\n  pop\n    /* \"contracts/Marketplace2/Marketplace.sol\":17353:17547  constructor(address _mainToken, address _mainNFT, address _mainFactory ) {... */\n  pop\n  pop\n  pop\n    /* \"contracts/Marketplace2/Marketplace.sol\":17107:24523  contract NFTMarket is ReentrancyGuard,MarketplaceStorage, Ownable {... */\n  jump(tag_14)\n    /* \"contracts/Marketplace2/Marketplace.sol\":554:650  function _msgSender() internal view virtual returns (address) {... */\ntag_11:\n    /* \"contracts/Marketplace2/Marketplace.sol\":607:614  address */\n  0x00\n    /* \"contracts/Marketplace2/Marketplace.sol\":633:643  msg.sender */\n  caller\n    /* \"contracts/Marketplace2/Marketplace.sol\":626:643  return msg.sender */\n  swap1\n  pop\n    /* \"contracts/Marketplace2/Marketplace.sol\":554:650  function _msgSender() internal view virtual returns (address) {... */\n  swap1\n  jump\t// out\n    /* \"contracts/Marketplace2/Marketplace.sol\":2910:3097  function _transferOwnership(address newOwner) internal virtual {... */\ntag_12:\n    /* \"contracts/Marketplace2/Marketplace.sol\":2983:2999  address oldOwner */\n  0x00\n    /* \"contracts/Marketplace2/Marketplace.sol\":3002:3008  _owner */\n  0x0c\n  0x00\n  swap1\n  sload\n  swap1\n  0x0100\n  exp\n  swap1\n  div\n  0xffffffffffffffffffffffffffffffffffffffff\n  and\n    /* \"contracts/Marketplace2/Marketplace.sol\":2983:3008  address oldOwner = _owner */\n  swap1\n  pop\n    /* \"contracts/Marketplace2/Marketplace.sol\":3027:3035  newOwner */\n  dup2\n    /* \"contracts/Marketplace2/Marketplace.sol\":3018:3024  _owner */\n  0x0c\n  0x00\n    /* \"contracts/Marketplace2/Marketplace.sol\":3018:3035  _owner = newOwner */\n  0x0100\n  exp\n  dup2\n  sload\n  dup2\n  0xffffffffffffffffffffffffffffffffffffffff\n  mul\n  not\n  and\n  swap1\n  dup4\n  0xffffffffffffffffffffffffffffffffffffffff\n  and\n  mul\n  or\n  swap1\n  sstore\n  pop\n    /* \"contracts/Marketplace2/Marketplace.sol\":3081:3089  newOwner */\n  dup2\n    /* \"contracts/Marketplace2/Marketplace.sol\":3050:3090  OwnershipTransferred(oldOwner, newOwner) */\n  0xffffffffffffffffffffffffffffffffffffffff\n  and\n    /* \"contracts/Marketplace2/Marketplace.sol\":3071:3079  oldOwner */\n  dup2\n    /* \"contracts/Marketplace2/Marketplace.sol\":3050:3090  OwnershipTransferred(oldOwner, newOwner) */\n  0xffffffffffffffffffffffffffffffffffffffff\n  and\n  0x8be0079c531659141344cd1fd0a4f28419497f9722a3daafe3b4186f6b6457e0\n  mload(0x40)\n  mload(0x40)\n  dup1\n  swap2\n  sub\n  swap1\n  log3\n    /* \"contracts/Marketplace2/Marketplace.sol\":2973:3097  {... */\n  pop\n    /* \"contracts/Marketplace2/Marketplace.sol\":2910:3097  function _transferOwnership(address newOwner) internal virtual {... */\n  pop\n  jump\t// out\n    /* \"#utility.yul\":88:205   */\ntag_18:\n    /* \"#utility.yul\":197:198   */\n  0x00\n    /* \"#utility.yul\":194:195   */\n  dup1\n    /* \"#utility.yul\":187:199   */\n  revert\n    /* \"#utility.yul\":334:460   */\ntag_20:\n    /* \"#utility.yul\":371:378   */\n  0x00\n    /* \"#utility.yul\":411:453   */\n  0xffffffffffffffffffffffffffffffffffffffff\n    /* \"#utility.yul\":404:409   */\n  dup3\n    /* \"#utility.yul\":400:454   */\n  and\n    /* \"#utility.yul\":389:454   */\n  swap1\n  pop\n    /* \"#utility.yul\":334:460   */\n  swap2\n  swap1\n  pop\n  jump\t// out\n    /* \"#utility.yul\":466:562   */\ntag_21:\n    /* \"#utility.yul\":503:510   */\n  0x00\n    /* \"#utility.yul\":532:556   */\n  tag_30\n    /* \"#utility.yul\":550:555   */\n  dup3\n    /* \"#utility.yul\":532:556   */\n  tag_20\n  jump\t// in\ntag_30:\n    /* \"#utility.yul\":521:556   */\n  swap1\n  pop\n    /* \"#utility.yul\":466:562   */\n  swap2\n  swap1\n  pop\n  jump\t// out\n    /* \"#utility.yul\":568:690   */\ntag_22:\n    /* \"#utility.yul\":641:665   */\n  tag_32\n    /* \"#utility.yul\":659:664   */\n  dup2\n    /* \"#utility.yul\":641:665   */\n  tag_21\n  jump\t// in\ntag_32:\n    /* \"#utility.yul\":634:639   */\n  dup2\n    /* \"#utility.yul\":631:666   */\n  eq\n    /* \"#utility.yul\":621:684   */\n  tag_33\n  jumpi\n    /* \"#utility.yul\":680:681   */\n  0x00\n    /* \"#utility.yul\":677:678   */\n  dup1\n    /* \"#utility.yul\":670:682   */\n  revert\n    /* \"#utility.yul\":621:684   */\ntag_33:\n    /* \"#utility.yul\":568:690   */\n  pop\n  jump\t// out\n    /* \"#utility.yul\":696:839   */\ntag_23:\n    /* \"#utility.yul\":753:758   */\n  0x00\n    /* \"#utility.yul\":784:790   */\n  dup2\n    /* \"#utility.yul\":778:791   */\n  mload\n    /* \"#utility.yul\":769:791   */\n  swap1\n  pop\n    /* \"#utility.yul\":800:833   */\n  tag_35\n    /* \"#utility.yul\":827:832   */\n  dup2\n    /* \"#utility.yul\":800:833   */\n  tag_22\n  jump\t// in\ntag_35:\n    /* \"#utility.yul\":696:839   */\n  swap3\n  swap2\n  pop\n  pop\n  jump\t// out\n    /* \"#utility.yul\":845:1508   */\ntag_3:\n    /* \"#utility.yul\":933:939   */\n  0x00\n    /* \"#utility.yul\":941:947   */\n  dup1\n    /* \"#utility.yul\":949:955   */\n  0x00\n    /* \"#utility.yul\":998:1000   */\n  0x60\n    /* \"#utility.yul\":986:995   */\n  dup5\n    /* \"#utility.yul\":977:984   */\n  dup7\n    /* \"#utility.yul\":973:996   */\n  sub\n    /* \"#utility.yul\":969:1001   */\n  slt\n    /* \"#utility.yul\":966:1085   */\n  iszero\n  tag_37\n  jumpi\n    /* \"#utility.yul\":1004:1083   */\n  tag_38\n  tag_18\n  jump\t// in\ntag_38:\n    /* \"#utility.yul\":966:1085   */\ntag_37:\n    /* \"#utility.yul\":1124:1125   */\n  0x00\n    /* \"#utility.yul\":1149:1213   */\n  tag_39\n    /* \"#utility.yul\":1205:1212   */\n  dup7\n    /* \"#utility.yul\":1196:1202   */\n  dup3\n    /* \"#utility.yul\":1185:1194   */\n  dup8\n    /* \"#utility.yul\":1181:1203   */\n  add\n    /* \"#utility.yul\":1149:1213   */\n  tag_23\n  jump\t// in\ntag_39:\n    /* \"#utility.yul\":1139:1213   */\n  swap4\n  pop\n    /* \"#utility.yul\":1095:1223   */\n  pop\n    /* \"#utility.yul\":1262:1264   */\n  0x20\n    /* \"#utility.yul\":1288:1352   */\n  tag_40\n    /* \"#utility.yul\":1344:1351   */\n  dup7\n    /* \"#utility.yul\":1335:1341   */\n  dup3\n    /* \"#utility.yul\":1324:1333   */\n  dup8\n    /* \"#utility.yul\":1320:1342   */\n  add\n    /* \"#utility.yul\":1288:1352   */\n  tag_23\n  jump\t// in\ntag_40:\n    /* \"#utility.yul\":1278:1352   */\n  swap3\n  pop\n    /* \"#utility.yul\":1233:1362   */\n  pop\n    /* \"#utility.yul\":1401:1403   */\n  0x40\n    /* \"#utility.yul\":1427:1491   */\n  tag_41\n    /* \"#utility.yul\":1483:1490   */\n  dup7\n    /* \"#utility.yul\":1474:1480   */\n  dup3\n    /* \"#utility.yul\":1463:1472   */\n  dup8\n    /* \"#utility.yul\":1459:1481   */\n  add\n    /* \"#utility.yul\":1427:1491   */\n  tag_23\n  jump\t// in\ntag_41:\n    /* \"#utility.yul\":1417:1491   */\n  swap2\n  pop\n    /* \"#utility.yul\":1372:1501   */\n  pop\n    /* \"#utility.yul\":845:1508   */\n  swap3\n  pop\n  swap3\n  pop\n  swap3\n  jump\t// out\n    /* \"contracts/Marketplace2/Marketplace.sol\":17107:24523  contract NFTMarket is ReentrancyGuard,MarketplaceStorage, Ownable {... */\ntag_14:\n  dataSize(sub_0)\n  dup1\n  dataOffset(sub_0)\n  0x00\n  codecopy\n  0x00\n  return\nstop\n\nsub_0: assembly {\n        /* \"contracts/Marketplace2/Marketplace.sol\":17107:24523  contract NFTMarket is ReentrancyGuard,MarketplaceStorage, Ownable {... */\n      mstore(0x40, 0x80)\n      callvalue\n      dup1\n      iszero\n      tag_1\n      jumpi\n      0x00\n      dup1\n      revert\n    tag_1:\n      pop\n      jumpi(tag_2, lt(calldatasize, 0x04))\n      shr(0xe0, calldataload(0x00))\n      dup1\n      0x5c80a435\n      gt\n      tag_26\n      jumpi\n      dup1\n      0xb7a60c7e\n      gt\n      tag_27\n      jumpi\n      dup1\n      0xb7a60c7e\n      eq\n      tag_20\n      jumpi\n      dup1\n      0xc45a0155\n      eq\n      tag_21\n      jumpi\n      dup1\n      0xc7be7a49\n      eq\n      tag_22\n      jumpi\n      dup1\n      0xf2fde38b\n      eq\n      tag_23\n      jumpi\n      dup1\n      0xf55de0c7\n      eq\n      tag_24\n      jumpi\n      dup1\n      0xff68fa6e\n      eq\n      tag_25\n      jumpi\n      jump(tag_2)\n    tag_27:\n      dup1\n      0x5c80a435\n      eq\n      tag_14\n      jumpi\n      dup1\n      0x673cf668\n      eq\n      tag_15\n      jumpi\n      dup1\n      0x715018a6\n      eq\n      tag_16\n      jumpi\n      dup1\n      0x85a8b36c\n      eq\n      tag_17\n      jumpi\n      dup1\n      0x8da5cb5b\n      eq\n      tag_18\n      jumpi\n      dup1\n      0xa1c11ca8\n      eq\n      tag_19\n      jumpi\n      jump(tag_2)\n    tag_26:\n      dup1\n      0x2a45b250\n      gt\n      tag_28\n      jumpi\n      dup1\n      0x2a45b250\n      eq\n      tag_8\n      jumpi\n      dup1\n      0x2b4c32be\n      eq\n      tag_9\n      jumpi\n      dup1\n      0x361c1995\n      eq\n      tag_10\n      jumpi\n      dup1\n      0x3fc15f15\n      eq\n      tag_11\n      jumpi\n      dup1\n      0x517bd451\n      eq\n      tag_12\n      jumpi\n      dup1\n      0x5bb47808\n      eq\n      tag_13\n      jumpi\n      jump(tag_2)\n    tag_28:\n      dup1\n      0x03ce1cb5\n      eq\n      tag_3\n      jumpi\n      dup1\n      0x0f08efe0\n      eq\n      tag_4\n      jumpi\n      dup1\n      0x10061631\n      eq\n      tag_5\n      jumpi\n      dup1\n      0x15b12494\n      eq\n      tag_6\n      jumpi\n      dup1\n      0x27ce464e\n      eq\n      tag_7\n      jumpi\n    tag_2:\n      0x00\n      dup1\n      revert\n        /* \"contracts/Marketplace2/Marketplace.sol\":18019:18117  function getIngameItem(uint256 tokenId) public view returns(IFactory.ingameItems memory) { ... */\n    tag_3:\n      tag_29\n      0x04\n      dup1\n      calldatasize\n      sub\n      dup2\n      add\n      swap1\n      tag_30\n      swap2\n      swap1\n      tag_31\n      jump\t// in\n    tag_30:\n      tag_32\n      jump\t// in\n    tag_29:\n      mload(0x40)\n      tag_33\n      swap2\n      swap1\n      tag_34\n      jump\t// in\n    tag_33:\n      mload(0x40)\n      dup1\n      swap2\n      sub\n      swap1\n      return\n        /* \"contracts/Marketplace2/Marketplace.sol\":19746:19846  function fetchMarketItems() public view returns (MarketItem memory) {... */\n    tag_4:\n      tag_35\n      tag_36\n      jump\t// in\n    tag_35:\n      mload(0x40)\n      tag_37\n      swap2\n      swap1\n      tag_38\n      jump\t// in\n    tag_37:\n      mload(0x40)\n      dup1\n      swap2\n      sub\n      swap1\n      return\n        /* \"contracts/Marketplace2/Marketplace.sol\":20552:21310  function delistItem(uint256 itemId) public {... */\n    tag_5:\n      tag_39\n      0x04\n      dup1\n      calldatasize\n      sub\n      dup2\n      add\n      swap1\n      tag_40\n      swap2\n      swap1\n      tag_31\n      jump\t// in\n    tag_40:\n      tag_41\n      jump\t// in\n    tag_39:\n      stop\n        /* \"contracts/Marketplace2/Marketplace.sol\":17805:17907  function setMainNFT(address _address) external onlyOwner {... */\n    tag_6:\n      tag_42\n      0x04\n      dup1\n      calldatasize\n      sub\n      dup2\n      add\n      swap1\n      tag_43\n      swap2\n      swap1\n      tag_44\n      jump\t// in\n    tag_43:\n      tag_45\n      jump\t// in\n    tag_42:\n      stop\n        /* \"contracts/Marketplace2/Marketplace.sol\":17696:17800  function setMainToken(address _address) external onlyOwner {... */\n    tag_7:\n      tag_46\n      0x04\n      dup1\n      calldatasize\n      sub\n      dup2\n      add\n      swap1\n      tag_47\n      swap2\n      swap1\n      tag_44\n      jump\t// in\n    tag_47:\n      tag_48\n      jump\t// in\n    tag_46:\n      stop\n        /* \"contracts/Marketplace2/Marketplace.sol\":19589:19742  function fetchMarketItem(uint itemId) public view returns (MarketItem memory) {... */\n    tag_8:\n      tag_49\n      0x04\n      dup1\n      calldatasize\n      sub\n      dup2\n      add\n      swap1\n      tag_50\n      swap2\n      swap1\n      tag_31\n      jump\t// in\n    tag_50:\n      tag_51\n      jump\t// in\n    tag_49:\n      mload(0x40)\n      tag_52\n      swap2\n      swap1\n      tag_38\n      jump\t// in\n    tag_52:\n      mload(0x40)\n      dup1\n      swap2\n      sub\n      swap1\n      return\n        /* \"contracts/Marketplace2/Marketplace.sol\":15910:15970  bytes4 public constant ERC721_Interface = bytes4(0x80ac58cd) */\n    tag_9:\n      tag_53\n      tag_54\n      jump\t// in\n    tag_53:\n      mload(0x40)\n      tag_55\n      swap2\n      swap1\n      tag_56\n      jump\t// in\n    tag_55:\n      mload(0x40)\n      dup1\n      swap2\n      sub\n      swap1\n      return\n        /* \"contracts/Marketplace2/Marketplace.sol\":18121:18768  function createMarketItem(... */\n    tag_10:\n      tag_57\n      0x04\n      dup1\n      calldatasize\n      sub\n      dup2\n      add\n      swap1\n      tag_58\n      swap2\n      swap1\n      tag_59\n      jump\t// in\n    tag_58:\n      tag_60\n      jump\t// in\n    tag_57:\n      stop\n        /* \"contracts/Marketplace2/Marketplace.sol\":16171:16194  IERC20 public mainToken */\n    tag_11:\n      tag_61\n      tag_62\n      jump\t// in\n    tag_61:\n      mload(0x40)\n      tag_63\n      swap2\n      swap1\n      tag_64\n      jump\t// in\n    tag_63:\n      mload(0x40)\n      dup1\n      swap2\n      sub\n      swap1\n      return\n        /* \"contracts/Marketplace2/Marketplace.sol\":15871:15903  MarketItem public allMarketItems */\n    tag_12:\n      tag_65\n      tag_66\n      jump\t// in\n    tag_65:\n      mload(0x40)\n      tag_67\n      swap7\n      swap6\n      swap5\n      swap4\n      swap3\n      swap2\n      swap1\n      tag_68\n      jump\t// in\n    tag_67:\n      mload(0x40)\n      dup1\n      swap2\n      sub\n      swap1\n      return\n        /* \"contracts/Marketplace2/Marketplace.sol\":17912:18014  function setFactory(address _address) external onlyOwner {... */\n    tag_13:\n      tag_69\n      0x04\n      dup1\n      calldatasize\n      sub\n      dup2\n      add\n      swap1\n      tag_70\n      swap2\n      swap1\n      tag_44\n      jump\t// in\n    tag_70:\n      tag_71\n      jump\t// in\n    tag_69:\n      stop\n        /* \"contracts/Marketplace2/Marketplace.sol\":16101:16164  mapping(address => mapping(uint256 => MarketItem)) public items */\n    tag_14:\n      tag_72\n      0x04\n      dup1\n      calldatasize\n      sub\n      dup2\n      add\n      swap1\n      tag_73\n      swap2\n      swap1\n      tag_74\n      jump\t// in\n    tag_73:\n      tag_75\n      jump\t// in\n    tag_72:\n      mload(0x40)\n      tag_76\n      swap7\n      swap6\n      swap5\n      swap4\n      swap3\n      swap2\n      swap1\n      tag_68\n      jump\t// in\n    tag_76:\n      mload(0x40)\n      dup1\n      swap2\n      sub\n      swap1\n      return\n        /* \"contracts/Marketplace2/Marketplace.sol\":19850:20548  function fetchMySelling() public view returns (MarketItem[] memory) {... */\n    tag_15:\n      tag_77\n      tag_78\n      jump\t// in\n    tag_77:\n      mload(0x40)\n      tag_79\n      swap2\n      swap1\n      tag_80\n      jump\t// in\n    tag_79:\n      mload(0x40)\n      dup1\n      swap2\n      sub\n      swap1\n      return\n        /* \"contracts/Marketplace2/Marketplace.sol\":2308:2409  function renounceOwnership() public virtual onlyOwner {... */\n    tag_16:\n      tag_81\n      tag_82\n      jump\t// in\n    tag_81:\n      stop\n        /* \"contracts/Marketplace2/Marketplace.sol\":16259:16285  uint8 public bnbFeePercent */\n    tag_17:\n      tag_83\n      tag_84\n      jump\t// in\n    tag_83:\n      mload(0x40)\n      tag_85\n      swap2\n      swap1\n      tag_86\n      jump\t// in\n    tag_85:\n      mload(0x40)\n      dup1\n      swap2\n      sub\n      swap1\n      return\n        /* \"contracts/Marketplace2/Marketplace.sol\":1676:1761  function owner() public view virtual returns (address) {... */\n    tag_18:\n      tag_87\n      tag_88\n      jump\t// in\n    tag_87:\n      mload(0x40)\n      tag_89\n      swap2\n      swap1\n      tag_90\n      jump\t// in\n    tag_89:\n      mload(0x40)\n      dup1\n      swap2\n      sub\n      swap1\n      return\n        /* \"contracts/Marketplace2/Marketplace.sol\":18771:19585  function createMarketSale(... */\n    tag_19:\n      tag_91\n      0x04\n      dup1\n      calldatasize\n      sub\n      dup2\n      add\n      swap1\n      tag_92\n      swap2\n      swap1\n      tag_59\n      jump\t// in\n    tag_92:\n      tag_93\n      jump\t// in\n    tag_91:\n      stop\n        /* \"contracts/Marketplace2/Marketplace.sol\":16291:16318  uint8 public antaFeePercent */\n    tag_20:\n      tag_94\n      tag_95\n      jump\t// in\n    tag_94:\n      mload(0x40)\n      tag_96\n      swap2\n      swap1\n      tag_86\n      jump\t// in\n    tag_96:\n      mload(0x40)\n      dup1\n      swap2\n      sub\n      swap1\n      return\n        /* \"contracts/Marketplace2/Marketplace.sol\":16200:16223  IFactory public factory */\n    tag_21:\n      tag_97\n      tag_98\n      jump\t// in\n    tag_97:\n      mload(0x40)\n      tag_99\n      swap2\n      swap1\n      tag_100\n      jump\t// in\n    tag_99:\n      mload(0x40)\n      dup1\n      swap2\n      sub\n      swap1\n      return\n        /* \"contracts/Marketplace2/Marketplace.sol\":17553:17690  function getMarketItem(uint256 marketItemId) public view returns (MarketItem memory) {... */\n    tag_22:\n      tag_101\n      0x04\n      dup1\n      calldatasize\n      sub\n      dup2\n      add\n      swap1\n      tag_102\n      swap2\n      swap1\n      tag_31\n      jump\t// in\n    tag_102:\n      tag_103\n      jump\t// in\n    tag_101:\n      mload(0x40)\n      tag_104\n      swap2\n      swap1\n      tag_38\n      jump\t// in\n    tag_104:\n      mload(0x40)\n      dup1\n      swap2\n      sub\n      swap1\n      return\n        /* \"contracts/Marketplace2/Marketplace.sol\":2558:2756  function transferOwnership(address newOwner) public virtual onlyOwner {... */\n    tag_23:\n      tag_105\n      0x04\n      dup1\n      calldatasize\n      sub\n      dup2\n      add\n      swap1\n      tag_106\n      swap2\n      swap1\n      tag_44\n      jump\t// in\n    tag_106:\n      tag_107\n      jump\t// in\n    tag_105:\n      stop\n        /* \"contracts/Marketplace2/Marketplace.sol\":16229:16252  IERC721 public mainNFTs */\n    tag_24:\n      tag_108\n      tag_109\n      jump\t// in\n    tag_108:\n      mload(0x40)\n      tag_110\n      swap2\n      swap1\n      tag_111\n      jump\t// in\n    tag_110:\n      mload(0x40)\n      dup1\n      swap2\n      sub\n      swap1\n      return\n        /* \"contracts/Marketplace2/Marketplace.sol\":15977:16024  mapping (uint256 => MarketItem) public allItems */\n    tag_25:\n      tag_112\n      0x04\n      dup1\n      calldatasize\n      sub\n      dup2\n      add\n      swap1\n      tag_113\n      swap2\n      swap1\n      tag_31\n      jump\t// in\n    tag_113:\n      tag_114\n      jump\t// in\n    tag_112:\n      mload(0x40)\n      tag_115\n      swap7\n      swap6\n      swap5\n      swap4\n      swap3\n      swap2\n      swap1\n      tag_68\n      jump\t// in\n    tag_115:\n      mload(0x40)\n      dup1\n      swap2\n      sub\n      swap1\n      return\n        /* \"contracts/Marketplace2/Marketplace.sol\":18019:18117  function getIngameItem(uint256 tokenId) public view returns(IFactory.ingameItems memory) { ... */\n    tag_32:\n        /* \"contracts/Marketplace2/Marketplace.sol\":18079:18106  IFactory.ingameItems memory */\n      tag_116\n      tag_117\n      jump\t// in\n    tag_116:\n        /* \"contracts/Marketplace2/Marketplace.sol\":18019:18117  function getIngameItem(uint256 tokenId) public view returns(IFactory.ingameItems memory) { ... */\n      swap2\n      swap1\n      pop\n      jump\t// out\n        /* \"contracts/Marketplace2/Marketplace.sol\":19746:19846  function fetchMarketItems() public view returns (MarketItem memory) {... */\n    tag_36:\n        /* \"contracts/Marketplace2/Marketplace.sol\":19795:19812  MarketItem memory */\n      tag_119\n      tag_120\n      jump\t// in\n    tag_119:\n        /* \"contracts/Marketplace2/Marketplace.sol\":19827:19841  allMarketItems */\n      0x01\n        /* \"contracts/Marketplace2/Marketplace.sol\":19820:19841  return allMarketItems */\n      mload(0x40)\n      dup1\n      0xc0\n      add\n      0x40\n      mstore\n      swap1\n      dup2\n      0x00\n      dup3\n      add\n      sload\n      dup2\n      mstore\n      0x20\n      add\n      0x01\n      dup3\n      add\n      sload\n      dup2\n      mstore\n      0x20\n      add\n      0x02\n      dup3\n      add\n      0x00\n      swap1\n      sload\n      swap1\n      0x0100\n      exp\n      swap1\n      div\n      0xffffffffffffffffffffffffffffffffffffffff\n      and\n      0xffffffffffffffffffffffffffffffffffffffff\n      and\n      0xffffffffffffffffffffffffffffffffffffffff\n      and\n      dup2\n      mstore\n      0x20\n      add\n      0x03\n      dup3\n      add\n      0x00\n      swap1\n      sload\n      swap1\n      0x0100\n      exp\n      swap1\n      div\n      0xffffffffffffffffffffffffffffffffffffffff\n      and\n      0xffffffffffffffffffffffffffffffffffffffff\n      and\n      0xffffffffffffffffffffffffffffffffffffffff\n      and\n      dup2\n      mstore\n      0x20\n      add\n      0x04\n      dup3\n      add\n      sload\n      dup2\n      mstore\n      0x20\n      add\n      0x05\n      dup3\n      add\n      0x00\n      swap1\n      sload\n      swap1\n      0x0100\n      exp\n      swap1\n      div\n      0xff\n      and\n      0x01\n      dup2\n      gt\n      iszero\n      tag_122\n      jumpi\n      tag_123\n      tag_124\n      jump\t// in\n    tag_123:\n    tag_122:\n      0x01\n      dup2\n      gt\n      iszero\n      tag_125\n      jumpi\n      tag_126\n      tag_124\n      jump\t// in\n    tag_126:\n    tag_125:\n      dup2\n      mstore\n      pop\n      pop\n      swap1\n      pop\n        /* \"contracts/Marketplace2/Marketplace.sol\":19746:19846  function fetchMarketItems() public view returns (MarketItem memory) {... */\n      swap1\n      jump\t// out\n        /* \"contracts/Marketplace2/Marketplace.sol\":20552:21310  function delistItem(uint256 itemId) public {... */\n    tag_41:\n        /* \"contracts/Marketplace2/Marketplace.sol\":20605:20621  address deleteBy */\n      0x00\n        /* \"contracts/Marketplace2/Marketplace.sol\":20624:20634  msg.sender */\n      caller\n        /* \"contracts/Marketplace2/Marketplace.sol\":20605:20634  address deleteBy = msg.sender */\n      swap1\n      pop\n        /* \"contracts/Marketplace2/Marketplace.sol\":20644:20666  MarketItem memory item */\n      0x00\n        /* \"contracts/Marketplace2/Marketplace.sol\":20669:20683  idToMarketItem */\n      0x0f\n        /* \"contracts/Marketplace2/Marketplace.sol\":20669:20691  idToMarketItem[itemId] */\n      0x00\n        /* \"contracts/Marketplace2/Marketplace.sol\":20684:20690  itemId */\n      dup5\n        /* \"contracts/Marketplace2/Marketplace.sol\":20669:20691  idToMarketItem[itemId] */\n      dup2\n      mstore\n      0x20\n      add\n      swap1\n      dup2\n      mstore\n      0x20\n      add\n      0x00\n      keccak256\n        /* \"contracts/Marketplace2/Marketplace.sol\":20644:20691  MarketItem memory item = idToMarketItem[itemId] */\n      mload(0x40)\n      dup1\n      0xc0\n      add\n      0x40\n      mstore\n      swap1\n      dup2\n      0x00\n      dup3\n      add\n      sload\n      dup2\n      mstore\n      0x20\n      add\n      0x01\n      dup3\n      add\n      sload\n      dup2\n      mstore\n      0x20\n      add\n      0x02\n      dup3\n      add\n      0x00\n      swap1\n      sload\n      swap1\n      0x0100\n      exp\n      swap1\n      div\n      0xffffffffffffffffffffffffffffffffffffffff\n      and\n      0xffffffffffffffffffffffffffffffffffffffff\n      and\n      0xffffffffffffffffffffffffffffffffffffffff\n      and\n      dup2\n      mstore\n      0x20\n      add\n      0x03\n      dup3\n      add\n      0x00\n      swap1\n      sload\n      swap1\n      0x0100\n      exp\n      swap1\n      div\n      0xffffffffffffffffffffffffffffffffffffffff\n      and\n      0xffffffffffffffffffffffffffffffffffffffff\n      and\n      0xffffffffffffffffffffffffffffffffffffffff\n      and\n      dup2\n      mstore\n      0x20\n      add\n      0x04\n      dup3\n      add\n      sload\n      dup2\n      mstore\n      0x20\n      add\n      0x05\n      dup3\n      add\n      0x00\n      swap1\n      sload\n      swap1\n      0x0100\n      exp\n      swap1\n      div\n      0xff\n      and\n      0x01\n      dup2\n      gt\n      iszero\n      tag_128\n      jumpi\n      tag_129\n      tag_124\n      jump\t// in\n    tag_129:\n    tag_128:\n      0x01\n      dup2\n      gt\n      iszero\n      tag_130\n      jumpi\n      tag_131\n      tag_124\n      jump\t// in\n    tag_131:\n    tag_130:\n      dup2\n      mstore\n      pop\n      pop\n      swap1\n      pop\n        /* \"contracts/Marketplace2/Marketplace.sol\":20726:20727  0 */\n      0x00\n        /* \"contracts/Marketplace2/Marketplace.sol\":20711:20715  item */\n      dup2\n        /* \"contracts/Marketplace2/Marketplace.sol\":20711:20722  item.itemId */\n      0x00\n      add\n      mload\n        /* \"contracts/Marketplace2/Marketplace.sol\":20711:20727  item.itemId != 0 */\n      sub\n        /* \"contracts/Marketplace2/Marketplace.sol\":20703:20751  require(item.itemId != 0, \"Asset not published\") */\n      tag_132\n      jumpi\n      mload(0x40)\n      0x08c379a000000000000000000000000000000000000000000000000000000000\n      dup2\n      mstore\n      0x04\n      add\n      tag_133\n      swap1\n      tag_134\n      jump\t// in\n    tag_133:\n      mload(0x40)\n      dup1\n      swap2\n      sub\n      swap1\n      revert\n    tag_132:\n        /* \"contracts/Marketplace2/Marketplace.sol\":20784:20802  ItemStatus.SELLING */\n      0x01\n        /* \"contracts/Marketplace2/Marketplace.sol\":20769:20802  item.status == ItemStatus.SELLING */\n      dup1\n      dup2\n      gt\n      iszero\n      tag_135\n      jumpi\n      tag_136\n      tag_124\n      jump\t// in\n    tag_136:\n    tag_135:\n        /* \"contracts/Marketplace2/Marketplace.sol\":20769:20773  item */\n      dup2\n        /* \"contracts/Marketplace2/Marketplace.sol\":20769:20780  item.status */\n      0xa0\n      add\n      mload\n        /* \"contracts/Marketplace2/Marketplace.sol\":20769:20802  item.status == ItemStatus.SELLING */\n      0x01\n      dup2\n      gt\n      iszero\n      tag_137\n      jumpi\n      tag_138\n      tag_124\n      jump\t// in\n    tag_138:\n    tag_137:\n      eq\n        /* \"contracts/Marketplace2/Marketplace.sol\":20761:20821  require(item.status == ItemStatus.SELLING, \"Asset delisted\") */\n      tag_139\n      jumpi\n      mload(0x40)\n      0x08c379a000000000000000000000000000000000000000000000000000000000\n      dup2\n      mstore\n      0x04\n      add\n      tag_140\n      swap1\n      tag_141\n      jump\t// in\n    tag_140:\n      mload(0x40)\n      dup1\n      swap2\n      sub\n      swap1\n      revert\n    tag_139:\n        /* \"contracts/Marketplace2/Marketplace.sol\":20832:20846  address seller */\n      0x00\n        /* \"contracts/Marketplace2/Marketplace.sol\":20849:20853  item */\n      dup2\n        /* \"contracts/Marketplace2/Marketplace.sol\":20849:20860  item.seller */\n      0x40\n      add\n      mload\n        /* \"contracts/Marketplace2/Marketplace.sol\":20832:20860  address seller = item.seller */\n      swap1\n      pop\n        /* \"contracts/Marketplace2/Marketplace.sol\":20896:20897  0 */\n      0x00\n        /* \"contracts/Marketplace2/Marketplace.sol\":20878:20898  seller != address(0) */\n      0xffffffffffffffffffffffffffffffffffffffff\n      and\n        /* \"contracts/Marketplace2/Marketplace.sol\":20878:20884  seller */\n      dup2\n        /* \"contracts/Marketplace2/Marketplace.sol\":20878:20898  seller != address(0) */\n      0xffffffffffffffffffffffffffffffffffffffff\n      and\n      sub\n        /* \"contracts/Marketplace2/Marketplace.sol\":20870:20918  require(seller != address(0), \"Invalid address\") */\n      tag_142\n      jumpi\n      mload(0x40)\n      0x08c379a000000000000000000000000000000000000000000000000000000000\n      dup2\n      mstore\n      0x04\n      add\n      tag_143\n      swap1\n      tag_144\n      jump\t// in\n    tag_143:\n      mload(0x40)\n      dup1\n      swap2\n      sub\n      swap1\n      revert\n    tag_142:\n        /* \"contracts/Marketplace2/Marketplace.sol\":20959:20969  msg.sender */\n      caller\n        /* \"contracts/Marketplace2/Marketplace.sol\":20949:20969  seller == msg.sender */\n      0xffffffffffffffffffffffffffffffffffffffff\n      and\n        /* \"contracts/Marketplace2/Marketplace.sol\":20949:20955  seller */\n      dup2\n        /* \"contracts/Marketplace2/Marketplace.sol\":20949:20969  seller == msg.sender */\n      0xffffffffffffffffffffffffffffffffffffffff\n      and\n      eq\n        /* \"contracts/Marketplace2/Marketplace.sol\":20928:21017  require(... */\n      tag_145\n      jumpi\n      mload(0x40)\n      0x08c379a000000000000000000000000000000000000000000000000000000000\n      dup2\n      mstore\n      0x04\n      add\n      tag_146\n      swap1\n      tag_147\n      jump\t// in\n    tag_146:\n      mload(0x40)\n      dup1\n      swap2\n      sub\n      swap1\n      revert\n    tag_145:\n        /* \"contracts/Marketplace2/Marketplace.sol\":21027:21035  mainNFTs */\n      0x0b\n      0x00\n      swap1\n      sload\n      swap1\n      0x0100\n      exp\n      swap1\n      div\n      0xffffffffffffffffffffffffffffffffffffffff\n      and\n        /* \"contracts/Marketplace2/Marketplace.sol\":21027:21052  mainNFTs.safeTransferFrom */\n      0xffffffffffffffffffffffffffffffffffffffff\n      and\n      0x42842e0e\n        /* \"contracts/Marketplace2/Marketplace.sol\":21061:21065  this */\n      address\n        /* \"contracts/Marketplace2/Marketplace.sol\":21068:21074  seller */\n      dup4\n        /* \"contracts/Marketplace2/Marketplace.sol\":21076:21082  itemId */\n      dup8\n        /* \"contracts/Marketplace2/Marketplace.sol\":21027:21083  mainNFTs.safeTransferFrom(address(this), seller, itemId) */\n      mload(0x40)\n      dup5\n      0xffffffff\n      and\n      0xe0\n      shl\n      dup2\n      mstore\n      0x04\n      add\n      tag_148\n      swap4\n      swap3\n      swap2\n      swap1\n      tag_149\n      jump\t// in\n    tag_148:\n      0x00\n      mload(0x40)\n      dup1\n      dup4\n      sub\n      dup2\n      0x00\n      dup8\n      dup1\n      extcodesize\n      iszero\n      dup1\n      iszero\n      tag_150\n      jumpi\n      0x00\n      dup1\n      revert\n    tag_150:\n      pop\n      gas\n      call\n      iszero\n      dup1\n      iszero\n      tag_152\n      jumpi\n      returndatasize\n      0x00\n      dup1\n      returndatacopy\n      revert(0x00, returndatasize)\n    tag_152:\n      pop\n      pop\n      pop\n      pop\n        /* \"contracts/Marketplace2/Marketplace.sol\":21107:21123  ItemStatus.AVAIL */\n      0x00\n        /* \"contracts/Marketplace2/Marketplace.sol\":21093:21097  item */\n      dup3\n        /* \"contracts/Marketplace2/Marketplace.sol\":21093:21104  item.status */\n      0xa0\n      add\n        /* \"contracts/Marketplace2/Marketplace.sol\":21093:21123  item.status = ItemStatus.AVAIL */\n      swap1\n      0x01\n      dup2\n      gt\n      iszero\n      tag_153\n      jumpi\n      tag_154\n      tag_124\n      jump\t// in\n    tag_154:\n    tag_153:\n      swap1\n      dup2\n      0x01\n      dup2\n      gt\n      iszero\n      tag_155\n      jumpi\n      tag_156\n      tag_124\n      jump\t// in\n    tag_156:\n    tag_155:\n      dup2\n      mstore\n      pop\n      pop\n        /* \"contracts/Marketplace2/Marketplace.sol\":21140:21154  idToMarketItem */\n      0x0f\n        /* \"contracts/Marketplace2/Marketplace.sol\":21140:21162  idToMarketItem[itemId] */\n      0x00\n        /* \"contracts/Marketplace2/Marketplace.sol\":21155:21161  itemId */\n      dup6\n        /* \"contracts/Marketplace2/Marketplace.sol\":21140:21162  idToMarketItem[itemId] */\n      dup2\n      mstore\n      0x20\n      add\n      swap1\n      dup2\n      mstore\n      0x20\n      add\n      0x00\n      keccak256\n      0x00\n        /* \"contracts/Marketplace2/Marketplace.sol\":21133:21162  delete idToMarketItem[itemId] */\n      dup1\n      dup3\n      add\n      0x00\n      swap1\n      sstore\n      0x01\n      dup3\n      add\n      0x00\n      swap1\n      sstore\n      0x02\n      dup3\n      add\n      exp(0x0100, 0x00)\n      dup2\n      sload\n      swap1\n      0xffffffffffffffffffffffffffffffffffffffff\n      mul\n      not\n      and\n      swap1\n      sstore\n      0x03\n      dup3\n      add\n      exp(0x0100, 0x00)\n      dup2\n      sload\n      swap1\n      0xffffffffffffffffffffffffffffffffffffffff\n      mul\n      not\n      and\n      swap1\n      sstore\n      0x04\n      dup3\n      add\n      0x00\n      swap1\n      sstore\n      0x05\n      dup3\n      add\n      exp(0x0100, 0x00)\n      dup2\n      sload\n      swap1\n      0xff\n      mul\n      not\n      and\n      swap1\n      sstore\n      pop\n      pop\n        /* \"contracts/Marketplace2/Marketplace.sol\":21256:21264  deleteBy */\n      dup3\n        /* \"contracts/Marketplace2/Marketplace.sol\":21177:21303  DelistItemSuccessful(... */\n      0xffffffffffffffffffffffffffffffffffffffff\n      and\n        /* \"contracts/Marketplace2/Marketplace.sol\":21236:21242  itemId */\n      dup5\n        /* \"contracts/Marketplace2/Marketplace.sol\":21177:21303  DelistItemSuccessful(... */\n      0x72ffc2a266acba5f77e2b49400103cb61b428f37a97057ebe671e83fddd71e67\n        /* \"contracts/Marketplace2/Marketplace.sol\":21211:21215  item */\n      dup5\n        /* \"contracts/Marketplace2/Marketplace.sol\":21211:21222  item.itemId */\n      0x00\n      add\n      mload\n        /* \"contracts/Marketplace2/Marketplace.sol\":21278:21293  block.timestamp */\n      timestamp\n        /* \"contracts/Marketplace2/Marketplace.sol\":21177:21303  DelistItemSuccessful(... */\n      mload(0x40)\n      tag_157\n      swap3\n      swap2\n      swap1\n      tag_158\n      jump\t// in\n    tag_157:\n      mload(0x40)\n      dup1\n      swap2\n      sub\n      swap1\n      log3\n        /* \"contracts/Marketplace2/Marketplace.sol\":20595:21310  {... */\n      pop\n      pop\n      pop\n        /* \"contracts/Marketplace2/Marketplace.sol\":20552:21310  function delistItem(uint256 itemId) public {... */\n      pop\n      jump\t// out\n        /* \"contracts/Marketplace2/Marketplace.sol\":17805:17907  function setMainNFT(address _address) external onlyOwner {... */\n    tag_45:\n        /* \"contracts/Marketplace2/Marketplace.sol\":1899:1911  _msgSender() */\n      tag_160\n        /* \"contracts/Marketplace2/Marketplace.sol\":1899:1909  _msgSender */\n      tag_161\n        /* \"contracts/Marketplace2/Marketplace.sol\":1899:1911  _msgSender() */\n      jump\t// in\n    tag_160:\n        /* \"contracts/Marketplace2/Marketplace.sol\":1888:1911  owner() == _msgSender() */\n      0xffffffffffffffffffffffffffffffffffffffff\n      and\n        /* \"contracts/Marketplace2/Marketplace.sol\":1888:1895  owner() */\n      tag_162\n        /* \"contracts/Marketplace2/Marketplace.sol\":1888:1893  owner */\n      tag_88\n        /* \"contracts/Marketplace2/Marketplace.sol\":1888:1895  owner() */\n      jump\t// in\n    tag_162:\n        /* \"contracts/Marketplace2/Marketplace.sol\":1888:1911  owner() == _msgSender() */\n      0xffffffffffffffffffffffffffffffffffffffff\n      and\n      eq\n        /* \"contracts/Marketplace2/Marketplace.sol\":1880:1948  require(owner() == _msgSender(), \"Ownable: caller is not the owner\") */\n      tag_163\n      jumpi\n      mload(0x40)\n      0x08c379a000000000000000000000000000000000000000000000000000000000\n      dup2\n      mstore\n      0x04\n      add\n      tag_164\n      swap1\n      tag_165\n      jump\t// in\n    tag_164:\n      mload(0x40)\n      dup1\n      swap2\n      sub\n      swap1\n      revert\n    tag_163:\n        /* \"contracts/Marketplace2/Marketplace.sol\":17891:17899  _address */\n      dup1\n        /* \"contracts/Marketplace2/Marketplace.sol\":17872:17880  mainNFTs */\n      0x0b\n      0x00\n        /* \"contracts/Marketplace2/Marketplace.sol\":17872:17900  mainNFTs = IERC721(_address) */\n      0x0100\n      exp\n      dup2\n      sload\n      dup2\n      0xffffffffffffffffffffffffffffffffffffffff\n      mul\n      not\n      and\n      swap1\n      dup4\n      0xffffffffffffffffffffffffffffffffffffffff\n      and\n      mul\n      or\n      swap1\n      sstore\n      pop\n        /* \"contracts/Marketplace2/Marketplace.sol\":17805:17907  function setMainNFT(address _address) external onlyOwner {... */\n      pop\n      jump\t// out\n        /* \"contracts/Marketplace2/Marketplace.sol\":17696:17800  function setMainToken(address _address) external onlyOwner {... */\n    tag_48:\n        /* \"contracts/Marketplace2/Marketplace.sol\":1899:1911  _msgSender() */\n      tag_168\n        /* \"contracts/Marketplace2/Marketplace.sol\":1899:1909  _msgSender */\n      tag_161\n        /* \"contracts/Marketplace2/Marketplace.sol\":1899:1911  _msgSender() */\n      jump\t// in\n    tag_168:\n        /* \"contracts/Marketplace2/Marketplace.sol\":1888:1911  owner() == _msgSender() */\n      0xffffffffffffffffffffffffffffffffffffffff\n      and\n        /* \"contracts/Marketplace2/Marketplace.sol\":1888:1895  owner() */\n      tag_169\n        /* \"contracts/Marketplace2/Marketplace.sol\":1888:1893  owner */\n      tag_88\n        /* \"contracts/Marketplace2/Marketplace.sol\":1888:1895  owner() */\n      jump\t// in\n    tag_169:\n        /* \"contracts/Marketplace2/Marketplace.sol\":1888:1911  owner() == _msgSender() */\n      0xffffffffffffffffffffffffffffffffffffffff\n      and\n      eq\n        /* \"contracts/Marketplace2/Marketplace.sol\":1880:1948  require(owner() == _msgSender(), \"Ownable: caller is not the owner\") */\n      tag_170\n      jumpi\n      mload(0x40)\n      0x08c379a000000000000000000000000000000000000000000000000000000000\n      dup2\n      mstore\n      0x04\n      add\n      tag_171\n      swap1\n      tag_165\n      jump\t// in\n    tag_171:\n      mload(0x40)\n      dup1\n      swap2\n      sub\n      swap1\n      revert\n    tag_170:\n        /* \"contracts/Marketplace2/Marketplace.sol\":17784:17792  _address */\n      dup1\n        /* \"contracts/Marketplace2/Marketplace.sol\":17765:17774  mainToken */\n      0x09\n      0x00\n        /* \"contracts/Marketplace2/Marketplace.sol\":17765:17793  mainToken = IERC20(_address) */\n      0x0100\n      exp\n      dup2\n      sload\n      dup2\n      0xffffffffffffffffffffffffffffffffffffffff\n      mul\n      not\n      and\n      swap1\n      dup4\n      0xffffffffffffffffffffffffffffffffffffffff\n      and\n      mul\n      or\n      swap1\n      sstore\n      pop\n        /* \"contracts/Marketplace2/Marketplace.sol\":17696:17800  function setMainToken(address _address) external onlyOwner {... */\n      pop\n      jump\t// out\n        /* \"contracts/Marketplace2/Marketplace.sol\":19589:19742  function fetchMarketItem(uint itemId) public view returns (MarketItem memory) {... */\n    tag_51:\n        /* \"contracts/Marketplace2/Marketplace.sol\":19648:19665  MarketItem memory */\n      tag_173\n      tag_120\n      jump\t// in\n    tag_173:\n        /* \"contracts/Marketplace2/Marketplace.sol\":19673:19695  MarketItem memory item */\n      0x00\n        /* \"contracts/Marketplace2/Marketplace.sol\":19698:19712  idToMarketItem */\n      0x0f\n        /* \"contracts/Marketplace2/Marketplace.sol\":19698:19720  idToMarketItem[itemId] */\n      0x00\n        /* \"contracts/Marketplace2/Marketplace.sol\":19713:19719  itemId */\n      dup5\n        /* \"contracts/Marketplace2/Marketplace.sol\":19698:19720  idToMarketItem[itemId] */\n      dup2\n      mstore\n      0x20\n      add\n      swap1\n      dup2\n      mstore\n      0x20\n      add\n      0x00\n      keccak256\n        /* \"contracts/Marketplace2/Marketplace.sol\":19673:19720  MarketItem memory item = idToMarketItem[itemId] */\n      mload(0x40)\n      dup1\n      0xc0\n      add\n      0x40\n      mstore\n      swap1\n      dup2\n      0x00\n      dup3\n      add\n      sload\n      dup2\n      mstore\n      0x20\n      add\n      0x01\n      dup3\n      add\n      sload\n      dup2\n      mstore\n      0x20\n      add\n      0x02\n      dup3\n      add\n      0x00\n      swap1\n      sload\n      swap1\n      0x0100\n      exp\n      swap1\n      div\n      0xffffffffffffffffffffffffffffffffffffffff\n      and\n      0xffffffffffffffffffffffffffffffffffffffff\n      and\n      0xffffffffffffffffffffffffffffffffffffffff\n      and\n      dup2\n      mstore\n      0x20\n      add\n      0x03\n      dup3\n      add\n      0x00\n      swap1\n      sload\n      swap1\n      0x0100\n      exp\n      swap1\n      div\n      0xffffffffffffffffffffffffffffffffffffffff\n      and\n      0xffffffffffffffffffffffffffffffffffffffff\n      and\n      0xffffffffffffffffffffffffffffffffffffffff\n      and\n      dup2\n      mstore\n      0x20\n      add\n      0x04\n      dup3\n      add\n      sload\n      dup2\n      mstore\n      0x20\n      add\n      0x05\n      dup3\n      add\n      0x00\n      swap1\n      sload\n      swap1\n      0x0100\n      exp\n      swap1\n      div\n      0xff\n      and\n      0x01\n      dup2\n      gt\n      iszero\n      tag_175\n      jumpi\n      tag_176\n      tag_124\n      jump\t// in\n    tag_176:\n    tag_175:\n      0x01\n      dup2\n      gt\n      iszero\n      tag_177\n      jumpi\n      tag_178\n      tag_124\n      jump\t// in\n    tag_178:\n    tag_177:\n      dup2\n      mstore\n      pop\n      pop\n      swap1\n      pop\n        /* \"contracts/Marketplace2/Marketplace.sol\":19733:19737  item */\n      dup1\n        /* \"contracts/Marketplace2/Marketplace.sol\":19726:19737  return item */\n      swap2\n      pop\n      pop\n        /* \"contracts/Marketplace2/Marketplace.sol\":19589:19742  function fetchMarketItem(uint itemId) public view returns (MarketItem memory) {... */\n      swap2\n      swap1\n      pop\n      jump\t// out\n        /* \"contracts/Marketplace2/Marketplace.sol\":15910:15970  bytes4 public constant ERC721_Interface = bytes4(0x80ac58cd) */\n    tag_54:\n        /* \"contracts/Marketplace2/Marketplace.sol\":15959:15969  0x80ac58cd */\n      0x80ac58cd\n        /* \"contracts/Marketplace2/Marketplace.sol\":15952:15970  bytes4(0x80ac58cd) */\n      0xe0\n      shl\n        /* \"contracts/Marketplace2/Marketplace.sol\":15910:15970  bytes4 public constant ERC721_Interface = bytes4(0x80ac58cd) */\n      dup2\n      jump\t// out\n        /* \"contracts/Marketplace2/Marketplace.sol\":18121:18768  function createMarketItem(... */\n    tag_60:\n        /* \"contracts/Marketplace2/Marketplace.sol\":18220:18221  0 */\n      0x00\n        /* \"contracts/Marketplace2/Marketplace.sol\":18212:18217  price */\n      dup2\n        /* \"contracts/Marketplace2/Marketplace.sol\":18212:18221  price > 0 */\n      gt\n        /* \"contracts/Marketplace2/Marketplace.sol\":18204:18254  require(price > 0, \"Price must be at least 1 wei\") */\n      tag_180\n      jumpi\n      mload(0x40)\n      0x08c379a000000000000000000000000000000000000000000000000000000000\n      dup2\n      mstore\n      0x04\n      add\n      tag_181\n      swap1\n      tag_182\n      jump\t// in\n    tag_181:\n      mload(0x40)\n      dup1\n      swap2\n      sub\n      swap1\n      revert\n    tag_180:\n        /* \"contracts/Marketplace2/Marketplace.sol\":18260:18292  IFactory.ingameItems memory item */\n      0x00\n        /* \"contracts/Marketplace2/Marketplace.sol\":18295:18302  factory */\n      0x0a\n      0x00\n      swap1\n      sload\n      swap1\n      0x0100\n      exp\n      swap1\n      div\n      0xffffffffffffffffffffffffffffffffffffffff\n      and\n        /* \"contracts/Marketplace2/Marketplace.sol\":18295:18313  factory.ingameItem */\n      0xffffffffffffffffffffffffffffffffffffffff\n      and\n      0xd30bdac9\n        /* \"contracts/Marketplace2/Marketplace.sol\":18314:18321  tokenId */\n      dup5\n        /* \"contracts/Marketplace2/Marketplace.sol\":18295:18322  factory.ingameItem(tokenId) */\n      mload(0x40)\n      dup3\n      0xffffffff\n      and\n      0xe0\n      shl\n      dup2\n      mstore\n      0x04\n      add\n      tag_183\n      swap2\n      swap1\n      tag_184\n      jump\t// in\n    tag_183:\n      0x00\n      mload(0x40)\n      dup1\n      dup4\n      sub\n      dup2\n      dup7\n      gas\n      staticcall\n      iszero\n      dup1\n      iszero\n      tag_186\n      jumpi\n      returndatasize\n      0x00\n      dup1\n      returndatacopy\n      revert(0x00, returndatasize)\n    tag_186:\n      pop\n      pop\n      pop\n      pop\n      mload(0x40)\n      returndatasize\n      0x00\n      dup3\n      returndatacopy\n      returndatasize\n      not(0x1f)\n      0x1f\n      dup3\n      add\n      and\n      dup3\n      add\n      dup1\n      0x40\n      mstore\n      pop\n      dup2\n      add\n      swap1\n      tag_187\n      swap2\n      swap1\n      tag_188\n      jump\t// in\n    tag_187:\n        /* \"contracts/Marketplace2/Marketplace.sol\":18260:18322  IFactory.ingameItems memory item = factory.ingameItem(tokenId) */\n      swap1\n      pop\n        /* \"contracts/Marketplace2/Marketplace.sol\":18351:18356  false */\n      0x00\n        /* \"contracts/Marketplace2/Marketplace.sol\":18336:18356  item.ingame == false */\n      iszero\n      iszero\n        /* \"contracts/Marketplace2/Marketplace.sol\":18336:18340  item */\n      dup2\n        /* \"contracts/Marketplace2/Marketplace.sol\":18336:18347  item.ingame */\n      0x80\n      add\n      mload\n        /* \"contracts/Marketplace2/Marketplace.sol\":18336:18356  item.ingame == false */\n      iszero\n      iszero\n      eq\n        /* \"contracts/Marketplace2/Marketplace.sol\":18328:18389  require(item.ingame == false, \"Item is not available now !\" ) */\n      tag_189\n      jumpi\n      mload(0x40)\n      0x08c379a000000000000000000000000000000000000000000000000000000000\n      dup2\n      mstore\n      0x04\n      add\n      tag_190\n      swap1\n      tag_191\n      jump\t// in\n    tag_190:\n      mload(0x40)\n      dup1\n      swap2\n      sub\n      swap1\n      revert\n    tag_189:\n        /* \"contracts/Marketplace2/Marketplace.sol\":18395:18425  _safeTransferToMarket(tokenId) */\n      tag_192\n        /* \"contracts/Marketplace2/Marketplace.sol\":18417:18424  tokenId */\n      dup4\n        /* \"contracts/Marketplace2/Marketplace.sol\":18395:18416  _safeTransferToMarket */\n      tag_193\n        /* \"contracts/Marketplace2/Marketplace.sol\":18395:18425  _safeTransferToMarket(tokenId) */\n      jump\t// in\n    tag_192:\n        /* \"contracts/Marketplace2/Marketplace.sol\":18431:18445  uint256 itemId */\n      0x00\n        /* \"contracts/Marketplace2/Marketplace.sol\":18448:18466  _itemIds.current() */\n      tag_194\n        /* \"contracts/Marketplace2/Marketplace.sol\":18448:18456  _itemIds */\n      0x0d\n        /* \"contracts/Marketplace2/Marketplace.sol\":18448:18464  _itemIds.current */\n      tag_195\n        /* \"contracts/Marketplace2/Marketplace.sol\":18448:18466  _itemIds.current() */\n      jump\t// in\n    tag_194:\n        /* \"contracts/Marketplace2/Marketplace.sol\":18431:18466  uint256 itemId = _itemIds.current() */\n      swap1\n      pop\n        /* \"contracts/Marketplace2/Marketplace.sol\":18498:18621  MarketItem(... */\n      mload(0x40)\n      dup1\n      0xc0\n      add\n      0x40\n      mstore\n      dup1\n        /* \"contracts/Marketplace2/Marketplace.sol\":18516:18522  itemId */\n      dup3\n        /* \"contracts/Marketplace2/Marketplace.sol\":18498:18621  MarketItem(... */\n      dup2\n      mstore\n      0x20\n      add\n        /* \"contracts/Marketplace2/Marketplace.sol\":18530:18537  tokenId */\n      dup6\n        /* \"contracts/Marketplace2/Marketplace.sol\":18498:18621  MarketItem(... */\n      dup2\n      mstore\n      0x20\n      add\n        /* \"contracts/Marketplace2/Marketplace.sol\":18545:18555  msg.sender */\n      caller\n        /* \"contracts/Marketplace2/Marketplace.sol\":18498:18621  MarketItem(... */\n      0xffffffffffffffffffffffffffffffffffffffff\n      and\n      dup2\n      mstore\n      0x20\n      add\n        /* \"contracts/Marketplace2/Marketplace.sol\":18571:18575  this */\n      address\n        /* \"contracts/Marketplace2/Marketplace.sol\":18498:18621  MarketItem(... */\n      0xffffffffffffffffffffffffffffffffffffffff\n      and\n      dup2\n      mstore\n      0x20\n      add\n        /* \"contracts/Marketplace2/Marketplace.sol\":18584:18589  price */\n      dup5\n        /* \"contracts/Marketplace2/Marketplace.sol\":18498:18621  MarketItem(... */\n      dup2\n      mstore\n      0x20\n      add\n        /* \"contracts/Marketplace2/Marketplace.sol\":18597:18615  ItemStatus.SELLING */\n      0x01\n        /* \"contracts/Marketplace2/Marketplace.sol\":18498:18621  MarketItem(... */\n      dup1\n      dup2\n      gt\n      iszero\n      tag_196\n      jumpi\n      tag_197\n      tag_124\n      jump\t// in\n    tag_197:\n    tag_196:\n      dup2\n      mstore\n      pop\n        /* \"contracts/Marketplace2/Marketplace.sol\":18472:18486  idToMarketItem */\n      0x0f\n        /* \"contracts/Marketplace2/Marketplace.sol\":18472:18494  idToMarketItem[itemId] */\n      0x00\n        /* \"contracts/Marketplace2/Marketplace.sol\":18487:18493  itemId */\n      dup4\n        /* \"contracts/Marketplace2/Marketplace.sol\":18472:18494  idToMarketItem[itemId] */\n      dup2\n      mstore\n      0x20\n      add\n      swap1\n      dup2\n      mstore\n      0x20\n      add\n      0x00\n      keccak256\n        /* \"contracts/Marketplace2/Marketplace.sol\":18472:18621  idToMarketItem[itemId] =  MarketItem(... */\n      0x00\n      dup3\n      add\n      mload\n      dup2\n      0x00\n      add\n      sstore\n      0x20\n      dup3\n      add\n      mload\n      dup2\n      0x01\n      add\n      sstore\n      0x40\n      dup3\n      add\n      mload\n      dup2\n      0x02\n      add\n      exp(0x0100, 0x00)\n      dup2\n      sload\n      dup2\n      0xffffffffffffffffffffffffffffffffffffffff\n      mul\n      not\n      and\n      swap1\n      dup4\n      0xffffffffffffffffffffffffffffffffffffffff\n      and\n      mul\n      or\n      swap1\n      sstore\n      pop\n      0x60\n      dup3\n      add\n      mload\n      dup2\n      0x03\n      add\n      exp(0x0100, 0x00)\n      dup2\n      sload\n      dup2\n      0xffffffffffffffffffffffffffffffffffffffff\n      mul\n      not\n      and\n      swap1\n      dup4\n      0xffffffffffffffffffffffffffffffffffffffff\n      and\n      mul\n      or\n      swap1\n      sstore\n      pop\n      0x80\n      dup3\n      add\n      mload\n      dup2\n      0x04\n      add\n      sstore\n      0xa0\n      dup3\n      add\n      mload\n      dup2\n      0x05\n      add\n      exp(0x0100, 0x00)\n      dup2\n      sload\n      dup2\n      0xff\n      mul\n      not\n      and\n      swap1\n      dup4\n      0x01\n      dup2\n      gt\n      iszero\n      tag_198\n      jumpi\n      tag_199\n      tag_124\n      jump\t// in\n    tag_199:\n    tag_198:\n      mul\n      or\n      swap1\n      sstore\n      pop\n      swap1\n      pop\n      pop\n        /* \"contracts/Marketplace2/Marketplace.sol\":18627:18647  _itemIds.increment() */\n      tag_200\n        /* \"contracts/Marketplace2/Marketplace.sol\":18627:18635  _itemIds */\n      0x0d\n        /* \"contracts/Marketplace2/Marketplace.sol\":18627:18645  _itemIds.increment */\n      tag_201\n        /* \"contracts/Marketplace2/Marketplace.sol\":18627:18647  _itemIds.increment() */\n      jump\t// in\n    tag_200:\n        /* \"contracts/Marketplace2/Marketplace.sol\":18698:18705  tokenId */\n      dup4\n        /* \"contracts/Marketplace2/Marketplace.sol\":18684:18690  itemId */\n      dup2\n        /* \"contracts/Marketplace2/Marketplace.sol\":18659:18763  MarketItemCreated(... */\n      0x38690a554ffbc44eb6a75016e47d517d0db8e6c37494adc68d6d0b2c66f0ab21\n        /* \"contracts/Marketplace2/Marketplace.sol\":18713:18723  msg.sender */\n      caller\n        /* \"contracts/Marketplace2/Marketplace.sol\":18739:18743  this */\n      address\n        /* \"contracts/Marketplace2/Marketplace.sol\":18752:18757  price */\n      dup8\n        /* \"contracts/Marketplace2/Marketplace.sol\":18659:18763  MarketItemCreated(... */\n      mload(0x40)\n      tag_202\n      swap4\n      swap3\n      swap2\n      swap1\n      tag_149\n      jump\t// in\n    tag_202:\n      mload(0x40)\n      dup1\n      swap2\n      sub\n      swap1\n      log3\n        /* \"contracts/Marketplace2/Marketplace.sol\":18198:18768  {... */\n      pop\n      pop\n        /* \"contracts/Marketplace2/Marketplace.sol\":18121:18768  function createMarketItem(... */\n      pop\n      pop\n      jump\t// out\n        /* \"contracts/Marketplace2/Marketplace.sol\":16171:16194  IERC20 public mainToken */\n    tag_62:\n      0x09\n      0x00\n      swap1\n      sload\n      swap1\n      0x0100\n      exp\n      swap1\n      div\n      0xffffffffffffffffffffffffffffffffffffffff\n      and\n      dup2\n      jump\t// out\n        /* \"contracts/Marketplace2/Marketplace.sol\":15871:15903  MarketItem public allMarketItems */\n    tag_66:\n      0x01\n      dup1\n      0x00\n      add\n      sload\n      swap1\n      dup1\n      0x01\n      add\n      sload\n      swap1\n      dup1\n      0x02\n      add\n      0x00\n      swap1\n      sload\n      swap1\n      0x0100\n      exp\n      swap1\n      div\n      0xffffffffffffffffffffffffffffffffffffffff\n      and\n      swap1\n      dup1\n      0x03\n      add\n      0x00\n      swap1\n      sload\n      swap1\n      0x0100\n      exp\n      swap1\n      div\n      0xffffffffffffffffffffffffffffffffffffffff\n      and\n      swap1\n      dup1\n      0x04\n      add\n      sload\n      swap1\n      dup1\n      0x05\n      add\n      0x00\n      swap1\n      sload\n      swap1\n      0x0100\n      exp\n      swap1\n      div\n      0xff\n      and\n      swap1\n      pop\n      dup7\n      jump\t// out\n        /* \"contracts/Marketplace2/Marketplace.sol\":17912:18014  function setFactory(address _address) external onlyOwner {... */\n    tag_71:\n        /* \"contracts/Marketplace2/Marketplace.sol\":1899:1911  _msgSender() */\n      tag_204\n        /* \"contracts/Marketplace2/Marketplace.sol\":1899:1909  _msgSender */\n      tag_161\n        /* \"contracts/Marketplace2/Marketplace.sol\":1899:1911  _msgSender() */\n      jump\t// in\n    tag_204:\n        /* \"contracts/Marketplace2/Marketplace.sol\":1888:1911  owner() == _msgSender() */\n      0xffffffffffffffffffffffffffffffffffffffff\n      and\n        /* \"contracts/Marketplace2/Marketplace.sol\":1888:1895  owner() */\n      tag_205\n        /* \"contracts/Marketplace2/Marketplace.sol\":1888:1893  owner */\n      tag_88\n        /* \"contracts/Marketplace2/Marketplace.sol\":1888:1895  owner() */\n      jump\t// in\n    tag_205:\n        /* \"contracts/Marketplace2/Marketplace.sol\":1888:1911  owner() == _msgSender() */\n      0xffffffffffffffffffffffffffffffffffffffff\n      and\n      eq\n        /* \"contracts/Marketplace2/Marketplace.sol\":1880:1948  require(owner() == _msgSender(), \"Ownable: caller is not the owner\") */\n      tag_206\n      jumpi\n      mload(0x40)\n      0x08c379a000000000000000000000000000000000000000000000000000000000\n      dup2\n      mstore\n      0x04\n      add\n      tag_207\n      swap1\n      tag_165\n      jump\t// in\n    tag_207:\n      mload(0x40)\n      dup1\n      swap2\n      sub\n      swap1\n      revert\n    tag_206:\n        /* \"contracts/Marketplace2/Marketplace.sol\":17998:18006  _address */\n      dup1\n        /* \"contracts/Marketplace2/Marketplace.sol\":17979:17986  factory */\n      0x0a\n      0x00\n        /* \"contracts/Marketplace2/Marketplace.sol\":17979:18007  factory = IFactory(_address) */\n      0x0100\n      exp\n      dup2\n      sload\n      dup2\n      0xffffffffffffffffffffffffffffffffffffffff\n      mul\n      not\n      and\n      swap1\n      dup4\n      0xffffffffffffffffffffffffffffffffffffffff\n      and\n      mul\n      or\n      swap1\n      sstore\n      pop\n        /* \"contracts/Marketplace2/Marketplace.sol\":17912:18014  function setFactory(address _address) external onlyOwner {... */\n      pop\n      jump\t// out\n        /* \"contracts/Marketplace2/Marketplace.sol\":16101:16164  mapping(address => mapping(uint256 => MarketItem)) public items */\n    tag_75:\n      mstore(0x20, 0x08)\n      dup2\n      0x00\n      mstore\n      mstore(0x20, keccak256(0x00, 0x40))\n      dup1\n      0x00\n      mstore\n      keccak256(0x00, 0x40)\n      0x00\n      swap2\n      pop\n      swap2\n      pop\n      pop\n      dup1\n      0x00\n      add\n      sload\n      swap1\n      dup1\n      0x01\n      add\n      sload\n      swap1\n      dup1\n      0x02\n      add\n      0x00\n      swap1\n      sload\n      swap1\n      0x0100\n      exp\n      swap1\n      div\n      0xffffffffffffffffffffffffffffffffffffffff\n      and\n      swap1\n      dup1\n      0x03\n      add\n      0x00\n      swap1\n      sload\n      swap1\n      0x0100\n      exp\n      swap1\n      div\n      0xffffffffffffffffffffffffffffffffffffffff\n      and\n      swap1\n      dup1\n      0x04\n      add\n      sload\n      swap1\n      dup1\n      0x05\n      add\n      0x00\n      swap1\n      sload\n      swap1\n      0x0100\n      exp\n      swap1\n      div\n      0xff\n      and\n      swap1\n      pop\n      dup7\n      jump\t// out\n        /* \"contracts/Marketplace2/Marketplace.sol\":19850:20548  function fetchMySelling() public view returns (MarketItem[] memory) {... */\n    tag_78:\n        /* \"contracts/Marketplace2/Marketplace.sol\":19897:19916  MarketItem[] memory */\n      0x60\n        /* \"contracts/Marketplace2/Marketplace.sol\":19924:19943  uint totalItemCount */\n      0x00\n        /* \"contracts/Marketplace2/Marketplace.sol\":19946:19964  _itemIds.current() */\n      tag_210\n        /* \"contracts/Marketplace2/Marketplace.sol\":19946:19954  _itemIds */\n      0x0d\n        /* \"contracts/Marketplace2/Marketplace.sol\":19946:19962  _itemIds.current */\n      tag_195\n        /* \"contracts/Marketplace2/Marketplace.sol\":19946:19964  _itemIds.current() */\n      jump\t// in\n    tag_210:\n        /* \"contracts/Marketplace2/Marketplace.sol\":19924:19964  uint totalItemCount = _itemIds.current() */\n      swap1\n      pop\n        /* \"contracts/Marketplace2/Marketplace.sol\":19970:19984  uint itemCount */\n      0x00\n        /* \"contracts/Marketplace2/Marketplace.sol\":19994:20011  uint currentIndex */\n      dup1\n        /* \"contracts/Marketplace2/Marketplace.sol\":20027:20033  uint i */\n      0x00\n        /* \"contracts/Marketplace2/Marketplace.sol\":20022:20154  for (uint i = 0; i < totalItemCount; i++) {... */\n    tag_211:\n        /* \"contracts/Marketplace2/Marketplace.sol\":20043:20057  totalItemCount */\n      dup4\n        /* \"contracts/Marketplace2/Marketplace.sol\":20039:20040  i */\n      dup2\n        /* \"contracts/Marketplace2/Marketplace.sol\":20039:20057  i < totalItemCount */\n      lt\n        /* \"contracts/Marketplace2/Marketplace.sol\":20022:20154  for (uint i = 0; i < totalItemCount; i++) {... */\n      iszero\n      tag_212\n      jumpi\n        /* \"contracts/Marketplace2/Marketplace.sol\":20103:20113  msg.sender */\n      caller\n        /* \"contracts/Marketplace2/Marketplace.sol\":20076:20113  idToMarketItem[i].owner == msg.sender */\n      0xffffffffffffffffffffffffffffffffffffffff\n      and\n        /* \"contracts/Marketplace2/Marketplace.sol\":20076:20090  idToMarketItem */\n      0x0f\n        /* \"contracts/Marketplace2/Marketplace.sol\":20076:20093  idToMarketItem[i] */\n      0x00\n        /* \"contracts/Marketplace2/Marketplace.sol\":20091:20092  i */\n      dup4\n        /* \"contracts/Marketplace2/Marketplace.sol\":20076:20093  idToMarketItem[i] */\n      dup2\n      mstore\n      0x20\n      add\n      swap1\n      dup2\n      mstore\n      0x20\n      add\n      0x00\n      keccak256\n        /* \"contracts/Marketplace2/Marketplace.sol\":20076:20099  idToMarketItem[i].owner */\n      0x03\n      add\n      0x00\n      swap1\n      sload\n      swap1\n      0x0100\n      exp\n      swap1\n      div\n      0xffffffffffffffffffffffffffffffffffffffff\n      and\n        /* \"contracts/Marketplace2/Marketplace.sol\":20076:20113  idToMarketItem[i].owner == msg.sender */\n      0xffffffffffffffffffffffffffffffffffffffff\n      and\n      sub\n        /* \"contracts/Marketplace2/Marketplace.sol\":20072:20148  if (idToMarketItem[i].owner == msg.sender) {... */\n      tag_214\n      jumpi\n        /* \"contracts/Marketplace2/Marketplace.sol\":20138:20139  1 */\n      0x01\n        /* \"contracts/Marketplace2/Marketplace.sol\":20125:20139  itemCount += 1 */\n      dup4\n      tag_215\n      swap2\n      swap1\n      tag_216\n      jump\t// in\n    tag_215:\n      swap3\n      pop\n        /* \"contracts/Marketplace2/Marketplace.sol\":20072:20148  if (idToMarketItem[i].owner == msg.sender) {... */\n    tag_214:\n        /* \"contracts/Marketplace2/Marketplace.sol\":20059:20062  i++ */\n      dup1\n      dup1\n      tag_217\n      swap1\n      tag_218\n      jump\t// in\n    tag_217:\n      swap2\n      pop\n      pop\n        /* \"contracts/Marketplace2/Marketplace.sol\":20022:20154  for (uint i = 0; i < totalItemCount; i++) {... */\n      jump(tag_211)\n    tag_212:\n      pop\n        /* \"contracts/Marketplace2/Marketplace.sol\":20160:20185  MarketItem[] memory items */\n      0x00\n        /* \"contracts/Marketplace2/Marketplace.sol\":20205:20214  itemCount */\n      dup3\n        /* \"contracts/Marketplace2/Marketplace.sol\":20188:20215  new MarketItem[](itemCount) */\n      0xffffffffffffffff\n      dup2\n      gt\n      iszero\n      tag_219\n      jumpi\n      tag_220\n      tag_221\n      jump\t// in\n    tag_220:\n    tag_219:\n      mload(0x40)\n      swap1\n      dup1\n      dup3\n      mstore\n      dup1\n      0x20\n      mul\n      0x20\n      add\n      dup3\n      add\n      0x40\n      mstore\n      dup1\n      iszero\n      tag_222\n      jumpi\n      dup2\n      0x20\n      add\n    tag_223:\n      tag_224\n      tag_120\n      jump\t// in\n    tag_224:\n      dup2\n      mstore\n      0x20\n      add\n      swap1\n      0x01\n      swap1\n      sub\n      swap1\n      dup2\n      tag_223\n      jumpi\n      swap1\n      pop\n    tag_222:\n      pop\n        /* \"contracts/Marketplace2/Marketplace.sol\":20160:20215  MarketItem[] memory items = new MarketItem[](itemCount) */\n      swap1\n      pop\n        /* \"contracts/Marketplace2/Marketplace.sol\":20226:20232  uint i */\n      0x00\n        /* \"contracts/Marketplace2/Marketplace.sol\":20221:20526  for (uint i = 0; i < totalItemCount; i++) {... */\n    tag_225:\n        /* \"contracts/Marketplace2/Marketplace.sol\":20242:20256  totalItemCount */\n      dup5\n        /* \"contracts/Marketplace2/Marketplace.sol\":20238:20239  i */\n      dup2\n        /* \"contracts/Marketplace2/Marketplace.sol\":20238:20256  i < totalItemCount */\n      lt\n        /* \"contracts/Marketplace2/Marketplace.sol\":20221:20526  for (uint i = 0; i < totalItemCount; i++) {... */\n      iszero\n      tag_226\n      jumpi\n        /* \"contracts/Marketplace2/Marketplace.sol\":20306:20316  msg.sender */\n      caller\n        /* \"contracts/Marketplace2/Marketplace.sol\":20275:20316  idToMarketItem[i + 1].owner == msg.sender */\n      0xffffffffffffffffffffffffffffffffffffffff\n      and\n        /* \"contracts/Marketplace2/Marketplace.sol\":20275:20289  idToMarketItem */\n      0x0f\n        /* \"contracts/Marketplace2/Marketplace.sol\":20275:20296  idToMarketItem[i + 1] */\n      0x00\n        /* \"contracts/Marketplace2/Marketplace.sol\":20294:20295  1 */\n      0x01\n        /* \"contracts/Marketplace2/Marketplace.sol\":20290:20291  i */\n      dup5\n        /* \"contracts/Marketplace2/Marketplace.sol\":20290:20295  i + 1 */\n      tag_228\n      swap2\n      swap1\n      tag_216\n      jump\t// in\n    tag_228:\n        /* \"contracts/Marketplace2/Marketplace.sol\":20275:20296  idToMarketItem[i + 1] */\n      dup2\n      mstore\n      0x20\n      add\n      swap1\n      dup2\n      mstore\n      0x20\n      add\n      0x00\n      keccak256\n        /* \"contracts/Marketplace2/Marketplace.sol\":20275:20302  idToMarketItem[i + 1].owner */\n      0x03\n      add\n      0x00\n      swap1\n      sload\n      swap1\n      0x0100\n      exp\n      swap1\n      div\n      0xffffffffffffffffffffffffffffffffffffffff\n      and\n        /* \"contracts/Marketplace2/Marketplace.sol\":20275:20316  idToMarketItem[i + 1].owner == msg.sender */\n      0xffffffffffffffffffffffffffffffffffffffff\n      and\n      sub\n        /* \"contracts/Marketplace2/Marketplace.sol\":20271:20520  if (idToMarketItem[i + 1].owner == msg.sender) {... */\n      tag_229\n      jumpi\n        /* \"contracts/Marketplace2/Marketplace.sol\":20328:20342  uint currentId */\n      0x00\n        /* \"contracts/Marketplace2/Marketplace.sol\":20345:20359  idToMarketItem */\n      0x0f\n        /* \"contracts/Marketplace2/Marketplace.sol\":20345:20366  idToMarketItem[i + 1] */\n      0x00\n        /* \"contracts/Marketplace2/Marketplace.sol\":20364:20365  1 */\n      0x01\n        /* \"contracts/Marketplace2/Marketplace.sol\":20360:20361  i */\n      dup5\n        /* \"contracts/Marketplace2/Marketplace.sol\":20360:20365  i + 1 */\n      tag_230\n      swap2\n      swap1\n      tag_216\n      jump\t// in\n    tag_230:\n        /* \"contracts/Marketplace2/Marketplace.sol\":20345:20366  idToMarketItem[i + 1] */\n      dup2\n      mstore\n      0x20\n      add\n      swap1\n      dup2\n      mstore\n      0x20\n      add\n      0x00\n      keccak256\n        /* \"contracts/Marketplace2/Marketplace.sol\":20345:20373  idToMarketItem[i + 1].itemId */\n      0x00\n      add\n      sload\n        /* \"contracts/Marketplace2/Marketplace.sol\":20328:20373  uint currentId = idToMarketItem[i + 1].itemId */\n      swap1\n      pop\n        /* \"contracts/Marketplace2/Marketplace.sol\":20383:20413  MarketItem storage currentItem */\n      0x00\n        /* \"contracts/Marketplace2/Marketplace.sol\":20416:20430  idToMarketItem */\n      0x0f\n        /* \"contracts/Marketplace2/Marketplace.sol\":20416:20441  idToMarketItem[currentId] */\n      0x00\n        /* \"contracts/Marketplace2/Marketplace.sol\":20431:20440  currentId */\n      dup4\n        /* \"contracts/Marketplace2/Marketplace.sol\":20416:20441  idToMarketItem[currentId] */\n      dup2\n      mstore\n      0x20\n      add\n      swap1\n      dup2\n      mstore\n      0x20\n      add\n      0x00\n      keccak256\n        /* \"contracts/Marketplace2/Marketplace.sol\":20383:20441  MarketItem storage currentItem = idToMarketItem[currentId] */\n      swap1\n      pop\n        /* \"contracts/Marketplace2/Marketplace.sol\":20473:20484  currentItem */\n      dup1\n        /* \"contracts/Marketplace2/Marketplace.sol\":20451:20484  items[currentIndex] = currentItem */\n      mload(0x40)\n      dup1\n      0xc0\n      add\n      0x40\n      mstore\n      swap1\n      dup2\n      0x00\n      dup3\n      add\n      sload\n      dup2\n      mstore\n      0x20\n      add\n      0x01\n      dup3\n      add\n      sload\n      dup2\n      mstore\n      0x20\n      add\n      0x02\n      dup3\n      add\n      0x00\n      swap1\n      sload\n      swap1\n      0x0100\n      exp\n      swap1\n      div\n      0xffffffffffffffffffffffffffffffffffffffff\n      and\n      0xffffffffffffffffffffffffffffffffffffffff\n      and\n      0xffffffffffffffffffffffffffffffffffffffff\n      and\n      dup2\n      mstore\n      0x20\n      add\n      0x03\n      dup3\n      add\n      0x00\n      swap1\n      sload\n      swap1\n      0x0100\n      exp\n      swap1\n      div\n      0xffffffffffffffffffffffffffffffffffffffff\n      and\n      0xffffffffffffffffffffffffffffffffffffffff\n      and\n      0xffffffffffffffffffffffffffffffffffffffff\n      and\n      dup2\n      mstore\n      0x20\n      add\n      0x04\n      dup3\n      add\n      sload\n      dup2\n      mstore\n      0x20\n      add\n      0x05\n      dup3\n      add\n      0x00\n      swap1\n      sload\n      swap1\n      0x0100\n      exp\n      swap1\n      div\n      0xff\n      and\n      0x01\n      dup2\n      gt\n      iszero\n      tag_231\n      jumpi\n      tag_232\n      tag_124\n      jump\t// in\n    tag_232:\n    tag_231:\n      0x01\n      dup2\n      gt\n      iszero\n      tag_233\n      jumpi\n      tag_234\n      tag_124\n      jump\t// in\n    tag_234:\n    tag_233:\n      dup2\n      mstore\n      pop\n      pop\n        /* \"contracts/Marketplace2/Marketplace.sol\":20451:20456  items */\n      dup5\n        /* \"contracts/Marketplace2/Marketplace.sol\":20457:20469  currentIndex */\n      dup7\n        /* \"contracts/Marketplace2/Marketplace.sol\":20451:20470  items[currentIndex] */\n      dup2\n      mload\n      dup2\n      lt\n      tag_235\n      jumpi\n      tag_236\n      tag_237\n      jump\t// in\n    tag_236:\n    tag_235:\n      0x20\n      mul\n      0x20\n      add\n      add\n        /* \"contracts/Marketplace2/Marketplace.sol\":20451:20484  items[currentIndex] = currentItem */\n      dup2\n      swap1\n      mstore\n      pop\n        /* \"contracts/Marketplace2/Marketplace.sol\":20510:20511  1 */\n      0x01\n        /* \"contracts/Marketplace2/Marketplace.sol\":20494:20511  currentIndex += 1 */\n      dup6\n      tag_238\n      swap2\n      swap1\n      tag_216\n      jump\t// in\n    tag_238:\n      swap5\n      pop\n        /* \"contracts/Marketplace2/Marketplace.sol\":20318:20520  {... */\n      pop\n      pop\n        /* \"contracts/Marketplace2/Marketplace.sol\":20271:20520  if (idToMarketItem[i + 1].owner == msg.sender) {... */\n    tag_229:\n        /* \"contracts/Marketplace2/Marketplace.sol\":20258:20261  i++ */\n      dup1\n      dup1\n      tag_239\n      swap1\n      tag_218\n      jump\t// in\n    tag_239:\n      swap2\n      pop\n      pop\n        /* \"contracts/Marketplace2/Marketplace.sol\":20221:20526  for (uint i = 0; i < totalItemCount; i++) {... */\n      jump(tag_225)\n    tag_226:\n      pop\n        /* \"contracts/Marketplace2/Marketplace.sol\":20538:20543  items */\n      dup1\n        /* \"contracts/Marketplace2/Marketplace.sol\":20531:20543  return items */\n      swap5\n      pop\n      pop\n      pop\n      pop\n      pop\n        /* \"contracts/Marketplace2/Marketplace.sol\":19850:20548  function fetchMySelling() public view returns (MarketItem[] memory) {... */\n      swap1\n      jump\t// out\n        /* \"contracts/Marketplace2/Marketplace.sol\":2308:2409  function renounceOwnership() public virtual onlyOwner {... */\n    tag_82:\n        /* \"contracts/Marketplace2/Marketplace.sol\":1899:1911  _msgSender() */\n      tag_241\n        /* \"contracts/Marketplace2/Marketplace.sol\":1899:1909  _msgSender */\n      tag_161\n        /* \"contracts/Marketplace2/Marketplace.sol\":1899:1911  _msgSender() */\n      jump\t// in\n    tag_241:\n        /* \"contracts/Marketplace2/Marketplace.sol\":1888:1911  owner() == _msgSender() */\n      0xffffffffffffffffffffffffffffffffffffffff\n      and\n        /* \"contracts/Marketplace2/Marketplace.sol\":1888:1895  owner() */\n      tag_242\n        /* \"contracts/Marketplace2/Marketplace.sol\":1888:1893  owner */\n      tag_88\n        /* \"contracts/Marketplace2/Marketplace.sol\":1888:1895  owner() */\n      jump\t// in\n    tag_242:\n        /* \"contracts/Marketplace2/Marketplace.sol\":1888:1911  owner() == _msgSender() */\n      0xffffffffffffffffffffffffffffffffffffffff\n      and\n      eq\n        /* \"contracts/Marketplace2/Marketplace.sol\":1880:1948  require(owner() == _msgSender(), \"Ownable: caller is not the owner\") */\n      tag_243\n      jumpi\n      mload(0x40)\n      0x08c379a000000000000000000000000000000000000000000000000000000000\n      dup2\n      mstore\n      0x04\n      add\n      tag_244\n      swap1\n      tag_165\n      jump\t// in\n    tag_244:\n      mload(0x40)\n      dup1\n      swap2\n      sub\n      swap1\n      revert\n    tag_243:\n        /* \"contracts/Marketplace2/Marketplace.sol\":2372:2402  _transferOwnership(address(0)) */\n      tag_246\n        /* \"contracts/Marketplace2/Marketplace.sol\":2399:2400  0 */\n      0x00\n        /* \"contracts/Marketplace2/Marketplace.sol\":2372:2390  _transferOwnership */\n      tag_247\n        /* \"contracts/Marketplace2/Marketplace.sol\":2372:2402  _transferOwnership(address(0)) */\n      jump\t// in\n    tag_246:\n        /* \"contracts/Marketplace2/Marketplace.sol\":2308:2409  function renounceOwnership() public virtual onlyOwner {... */\n      jump\t// out\n        /* \"contracts/Marketplace2/Marketplace.sol\":16259:16285  uint8 public bnbFeePercent */\n    tag_84:\n      0x0b\n      0x14\n      swap1\n      sload\n      swap1\n      0x0100\n      exp\n      swap1\n      div\n      0xff\n      and\n      dup2\n      jump\t// out\n        /* \"contracts/Marketplace2/Marketplace.sol\":1676:1761  function owner() public view virtual returns (address) {... */\n    tag_88:\n        /* \"contracts/Marketplace2/Marketplace.sol\":1722:1729  address */\n      0x00\n        /* \"contracts/Marketplace2/Marketplace.sol\":1748:1754  _owner */\n      0x0c\n      0x00\n      swap1\n      sload\n      swap1\n      0x0100\n      exp\n      swap1\n      div\n      0xffffffffffffffffffffffffffffffffffffffff\n      and\n        /* \"contracts/Marketplace2/Marketplace.sol\":1741:1754  return _owner */\n      swap1\n      pop\n        /* \"contracts/Marketplace2/Marketplace.sol\":1676:1761  function owner() public view virtual returns (address) {... */\n      swap1\n      jump\t// out\n        /* \"contracts/Marketplace2/Marketplace.sol\":18771:19585  function createMarketSale(... */\n    tag_93:\n        /* \"contracts/Marketplace2/Marketplace.sol\":18856:18866  uint price */\n      0x00\n        /* \"contracts/Marketplace2/Marketplace.sol\":18869:18883  idToMarketItem */\n      0x0f\n        /* \"contracts/Marketplace2/Marketplace.sol\":18869:18891  idToMarketItem[itemId] */\n      0x00\n        /* \"contracts/Marketplace2/Marketplace.sol\":18884:18890  itemId */\n      dup5\n        /* \"contracts/Marketplace2/Marketplace.sol\":18869:18891  idToMarketItem[itemId] */\n      dup2\n      mstore\n      0x20\n      add\n      swap1\n      dup2\n      mstore\n      0x20\n      add\n      0x00\n      keccak256\n        /* \"contracts/Marketplace2/Marketplace.sol\":18869:18897  idToMarketItem[itemId].price */\n      0x04\n      add\n      sload\n        /* \"contracts/Marketplace2/Marketplace.sol\":18856:18897  uint price = idToMarketItem[itemId].price */\n      swap1\n      pop\n        /* \"contracts/Marketplace2/Marketplace.sol\":18903:18915  uint tokenId */\n      0x00\n        /* \"contracts/Marketplace2/Marketplace.sol\":18918:18932  idToMarketItem */\n      0x0f\n        /* \"contracts/Marketplace2/Marketplace.sol\":18918:18940  idToMarketItem[itemId] */\n      0x00\n        /* \"contracts/Marketplace2/Marketplace.sol\":18933:18939  itemId */\n      dup6\n        /* \"contracts/Marketplace2/Marketplace.sol\":18918:18940  idToMarketItem[itemId] */\n      dup2\n      mstore\n      0x20\n      add\n      swap1\n      dup2\n      mstore\n      0x20\n      add\n      0x00\n      keccak256\n        /* \"contracts/Marketplace2/Marketplace.sol\":18918:18948  idToMarketItem[itemId].tokenId */\n      0x01\n      add\n      sload\n        /* \"contracts/Marketplace2/Marketplace.sol\":18903:18948  uint tokenId = idToMarketItem[itemId].tokenId */\n      swap1\n      pop\n        /* \"contracts/Marketplace2/Marketplace.sol\":18954:18968  address seller */\n      0x00\n        /* \"contracts/Marketplace2/Marketplace.sol\":18972:18986  idToMarketItem */\n      0x0f\n        /* \"contracts/Marketplace2/Marketplace.sol\":18972:18994  idToMarketItem[itemId] */\n      0x00\n        /* \"contracts/Marketplace2/Marketplace.sol\":18987:18993  itemId */\n      dup7\n        /* \"contracts/Marketplace2/Marketplace.sol\":18972:18994  idToMarketItem[itemId] */\n      dup2\n      mstore\n      0x20\n      add\n      swap1\n      dup2\n      mstore\n      0x20\n      add\n      0x00\n      keccak256\n        /* \"contracts/Marketplace2/Marketplace.sol\":18972:19001  idToMarketItem[itemId].seller */\n      0x02\n      add\n      0x00\n      swap1\n      sload\n      swap1\n      0x0100\n      exp\n      swap1\n      div\n      0xffffffffffffffffffffffffffffffffffffffff\n      and\n        /* \"contracts/Marketplace2/Marketplace.sol\":18954:19001  address seller =  idToMarketItem[itemId].seller */\n      swap1\n      pop\n        /* \"contracts/Marketplace2/Marketplace.sol\":19007:19039  IFactory.ingameItems memory item */\n      0x00\n        /* \"contracts/Marketplace2/Marketplace.sol\":19042:19049  factory */\n      0x0a\n      0x00\n      swap1\n      sload\n      swap1\n      0x0100\n      exp\n      swap1\n      div\n      0xffffffffffffffffffffffffffffffffffffffff\n      and\n        /* \"contracts/Marketplace2/Marketplace.sol\":19042:19060  factory.ingameItem */\n      0xffffffffffffffffffffffffffffffffffffffff\n      and\n      0xd30bdac9\n        /* \"contracts/Marketplace2/Marketplace.sol\":19061:19068  tokenId */\n      dup5\n        /* \"contracts/Marketplace2/Marketplace.sol\":19042:19069  factory.ingameItem(tokenId) */\n      mload(0x40)\n      dup3\n      0xffffffff\n      and\n      0xe0\n      shl\n      dup2\n      mstore\n      0x04\n      add\n      tag_250\n      swap2\n      swap1\n      tag_184\n      jump\t// in\n    tag_250:\n      0x00\n      mload(0x40)\n      dup1\n      dup4\n      sub\n      dup2\n      dup7\n      gas\n      staticcall\n      iszero\n      dup1\n      iszero\n      tag_252\n      jumpi\n      returndatasize\n      0x00\n      dup1\n      returndatacopy\n      revert(0x00, returndatasize)\n    tag_252:\n      pop\n      pop\n      pop\n      pop\n      mload(0x40)\n      returndatasize\n      0x00\n      dup3\n      returndatacopy\n      returndatasize\n      not(0x1f)\n      0x1f\n      dup3\n      add\n      and\n      dup3\n      add\n      dup1\n      0x40\n      mstore\n      pop\n      dup2\n      add\n      swap1\n      tag_253\n      swap2\n      swap1\n      tag_188\n      jump\t// in\n    tag_253:\n        /* \"contracts/Marketplace2/Marketplace.sol\":19007:19069  IFactory.ingameItems memory item = factory.ingameItem(tokenId) */\n      swap1\n      pop\n        /* \"contracts/Marketplace2/Marketplace.sol\":19093:19098  price */\n      dup4\n        /* \"contracts/Marketplace2/Marketplace.sol\":19083:19089  amount */\n      dup6\n        /* \"contracts/Marketplace2/Marketplace.sol\":19083:19098  amount == price */\n      eq\n        /* \"contracts/Marketplace2/Marketplace.sol\":19075:19167  require(amount == price, \"Please submit the asking price in order to complete the purchase\") */\n      tag_254\n      jumpi\n      mload(0x40)\n      0x08c379a000000000000000000000000000000000000000000000000000000000\n      dup2\n      mstore\n      0x04\n      add\n      tag_255\n      swap1\n      tag_256\n      jump\t// in\n    tag_255:\n      mload(0x40)\n      dup1\n      swap2\n      sub\n      swap1\n      revert\n    tag_254:\n        /* \"contracts/Marketplace2/Marketplace.sol\":19196:19201  false */\n      0x00\n        /* \"contracts/Marketplace2/Marketplace.sol\":19181:19201  item.ingame == false */\n      iszero\n      iszero\n        /* \"contracts/Marketplace2/Marketplace.sol\":19181:19185  item */\n      dup2\n        /* \"contracts/Marketplace2/Marketplace.sol\":19181:19192  item.ingame */\n      0x80\n      add\n      mload\n        /* \"contracts/Marketplace2/Marketplace.sol\":19181:19201  item.ingame == false */\n      iszero\n      iszero\n      eq\n        /* \"contracts/Marketplace2/Marketplace.sol\":19173:19233  require(item.ingame == false, \"Item is not available now !\") */\n      tag_257\n      jumpi\n      mload(0x40)\n      0x08c379a000000000000000000000000000000000000000000000000000000000\n      dup2\n      mstore\n      0x04\n      add\n      tag_258\n      swap1\n      tag_191\n      jump\t// in\n    tag_258:\n      mload(0x40)\n      dup1\n      swap2\n      sub\n      swap1\n      revert\n    tag_257:\n        /* \"contracts/Marketplace2/Marketplace.sol\":19239:19274  _safeBuyItem(itemId,amount,tokenId) */\n      tag_259\n        /* \"contracts/Marketplace2/Marketplace.sol\":19252:19258  itemId */\n      dup7\n        /* \"contracts/Marketplace2/Marketplace.sol\":19259:19265  amount */\n      dup7\n        /* \"contracts/Marketplace2/Marketplace.sol\":19266:19273  tokenId */\n      dup6\n        /* \"contracts/Marketplace2/Marketplace.sol\":19239:19251  _safeBuyItem */\n      tag_260\n        /* \"contracts/Marketplace2/Marketplace.sol\":19239:19274  _safeBuyItem(itemId,amount,tokenId) */\n      jump\t// in\n    tag_259:\n        /* \"contracts/Marketplace2/Marketplace.sol\":19319:19329  msg.sender */\n      caller\n        /* \"contracts/Marketplace2/Marketplace.sol\":19280:19294  idToMarketItem */\n      0x0f\n        /* \"contracts/Marketplace2/Marketplace.sol\":19280:19302  idToMarketItem[itemId] */\n      0x00\n        /* \"contracts/Marketplace2/Marketplace.sol\":19295:19301  itemId */\n      dup9\n        /* \"contracts/Marketplace2/Marketplace.sol\":19280:19302  idToMarketItem[itemId] */\n      dup2\n      mstore\n      0x20\n      add\n      swap1\n      dup2\n      mstore\n      0x20\n      add\n      0x00\n      keccak256\n        /* \"contracts/Marketplace2/Marketplace.sol\":19280:19308  idToMarketItem[itemId].owner */\n      0x03\n      add\n      0x00\n        /* \"contracts/Marketplace2/Marketplace.sol\":19280:19330  idToMarketItem[itemId].owner = address(msg.sender) */\n      0x0100\n      exp\n      dup2\n      sload\n      dup2\n      0xffffffffffffffffffffffffffffffffffffffff\n      mul\n      not\n      and\n      swap1\n      dup4\n      0xffffffffffffffffffffffffffffffffffffffff\n      and\n      mul\n      or\n      swap1\n      sstore\n      pop\n        /* \"contracts/Marketplace2/Marketplace.sol\":19368:19384  ItemStatus.AVAIL */\n      0x00\n        /* \"contracts/Marketplace2/Marketplace.sol\":19336:19350  idToMarketItem */\n      0x0f\n        /* \"contracts/Marketplace2/Marketplace.sol\":19336:19358  idToMarketItem[itemId] */\n      0x00\n        /* \"contracts/Marketplace2/Marketplace.sol\":19351:19357  itemId */\n      dup9\n        /* \"contracts/Marketplace2/Marketplace.sol\":19336:19358  idToMarketItem[itemId] */\n      dup2\n      mstore\n      0x20\n      add\n      swap1\n      dup2\n      mstore\n      0x20\n      add\n      0x00\n      keccak256\n        /* \"contracts/Marketplace2/Marketplace.sol\":19336:19365  idToMarketItem[itemId].status */\n      0x05\n      add\n      0x00\n        /* \"contracts/Marketplace2/Marketplace.sol\":19336:19384  idToMarketItem[itemId].status = ItemStatus.AVAIL */\n      0x0100\n      exp\n      dup2\n      sload\n      dup2\n      0xff\n      mul\n      not\n      and\n      swap1\n      dup4\n      0x01\n      dup2\n      gt\n      iszero\n      tag_261\n      jumpi\n      tag_262\n      tag_124\n      jump\t// in\n    tag_262:\n    tag_261:\n      mul\n      or\n      swap1\n      sstore\n      pop\n        /* \"contracts/Marketplace2/Marketplace.sol\":19390:19412  _itemsSold.increment() */\n      tag_263\n        /* \"contracts/Marketplace2/Marketplace.sol\":19390:19400  _itemsSold */\n      0x0e\n        /* \"contracts/Marketplace2/Marketplace.sol\":19390:19410  _itemsSold.increment */\n      tag_201\n        /* \"contracts/Marketplace2/Marketplace.sol\":19390:19412  _itemsSold.increment() */\n      jump\t// in\n    tag_263:\n        /* \"contracts/Marketplace2/Marketplace.sol\":19523:19533  msg.sender */\n      caller\n        /* \"contracts/Marketplace2/Marketplace.sol\":19424:19580  BuyItemSuccessful(... */\n      0xffffffffffffffffffffffffffffffffffffffff\n      and\n        /* \"contracts/Marketplace2/Marketplace.sol\":19484:19490  seller */\n      dup3\n        /* \"contracts/Marketplace2/Marketplace.sol\":19424:19580  BuyItemSuccessful(... */\n      0xffffffffffffffffffffffffffffffffffffffff\n      and\n        /* \"contracts/Marketplace2/Marketplace.sol\":19467:19474  tokenId */\n      dup5\n        /* \"contracts/Marketplace2/Marketplace.sol\":19424:19580  BuyItemSuccessful(... */\n      0x551327aee12d0a8b3ede8d0e3182a40a5ff3ed9f1811dd622915db30b609b7df\n        /* \"contracts/Marketplace2/Marketplace.sol\":19451:19457  itemId */\n      dup10\n        /* \"contracts/Marketplace2/Marketplace.sol\":19500:19505  price */\n      dup9\n        /* \"contracts/Marketplace2/Marketplace.sol\":19559:19574  block.timestamp */\n      timestamp\n        /* \"contracts/Marketplace2/Marketplace.sol\":19424:19580  BuyItemSuccessful(... */\n      mload(0x40)\n      tag_264\n      swap4\n      swap3\n      swap2\n      swap1\n      tag_265\n      jump\t// in\n    tag_264:\n      mload(0x40)\n      dup1\n      swap2\n      sub\n      swap1\n      log4\n        /* \"contracts/Marketplace2/Marketplace.sol\":18850:19585  {... */\n      pop\n      pop\n      pop\n      pop\n        /* \"contracts/Marketplace2/Marketplace.sol\":18771:19585  function createMarketSale(... */\n      pop\n      pop\n      jump\t// out\n        /* \"contracts/Marketplace2/Marketplace.sol\":16291:16318  uint8 public antaFeePercent */\n    tag_95:\n      0x0b\n      0x15\n      swap1\n      sload\n      swap1\n      0x0100\n      exp\n      swap1\n      div\n      0xff\n      and\n      dup2\n      jump\t// out\n        /* \"contracts/Marketplace2/Marketplace.sol\":16200:16223  IFactory public factory */\n    tag_98:\n      0x0a\n      0x00\n      swap1\n      sload\n      swap1\n      0x0100\n      exp\n      swap1\n      div\n      0xffffffffffffffffffffffffffffffffffffffff\n      and\n      dup2\n      jump\t// out\n        /* \"contracts/Marketplace2/Marketplace.sol\":17553:17690  function getMarketItem(uint256 marketItemId) public view returns (MarketItem memory) {... */\n    tag_103:\n        /* \"contracts/Marketplace2/Marketplace.sol\":17619:17636  MarketItem memory */\n      tag_266\n      tag_120\n      jump\t// in\n    tag_266:\n        /* \"contracts/Marketplace2/Marketplace.sol\":17655:17669  idToMarketItem */\n      0x0f\n        /* \"contracts/Marketplace2/Marketplace.sol\":17655:17683  idToMarketItem[marketItemId] */\n      0x00\n        /* \"contracts/Marketplace2/Marketplace.sol\":17670:17682  marketItemId */\n      dup4\n        /* \"contracts/Marketplace2/Marketplace.sol\":17655:17683  idToMarketItem[marketItemId] */\n      dup2\n      mstore\n      0x20\n      add\n      swap1\n      dup2\n      mstore\n      0x20\n      add\n      0x00\n      keccak256\n        /* \"contracts/Marketplace2/Marketplace.sol\":17648:17683  return idToMarketItem[marketItemId] */\n      mload(0x40)\n      dup1\n      0xc0\n      add\n      0x40\n      mstore\n      swap1\n      dup2\n      0x00\n      dup3\n      add\n      sload\n      dup2\n      mstore\n      0x20\n      add\n      0x01\n      dup3\n      add\n      sload\n      dup2\n      mstore\n      0x20\n      add\n      0x02\n      dup3\n      add\n      0x00\n      swap1\n      sload\n      swap1\n      0x0100\n      exp\n      swap1\n      div\n      0xffffffffffffffffffffffffffffffffffffffff\n      and\n      0xffffffffffffffffffffffffffffffffffffffff\n      and\n      0xffffffffffffffffffffffffffffffffffffffff\n      and\n      dup2\n      mstore\n      0x20\n      add\n      0x03\n      dup3\n      add\n      0x00\n      swap1\n      sload\n      swap1\n      0x0100\n      exp\n      swap1\n      div\n      0xffffffffffffffffffffffffffffffffffffffff\n      and\n      0xffffffffffffffffffffffffffffffffffffffff\n      and\n      0xffffffffffffffffffffffffffffffffffffffff\n      and\n      dup2\n      mstore\n      0x20\n      add\n      0x04\n      dup3\n      add\n      sload\n      dup2\n      mstore\n      0x20\n      add\n      0x05\n      dup3\n      add\n      0x00\n      swap1\n      sload\n      swap1\n      0x0100\n      exp\n      swap1\n      div\n      0xff\n      and\n      0x01\n      dup2\n      gt\n      iszero\n      tag_268\n      jumpi\n      tag_269\n      tag_124\n      jump\t// in\n    tag_269:\n    tag_268:\n      0x01\n      dup2\n      gt\n      iszero\n      tag_270\n      jumpi\n      tag_271\n      tag_124\n      jump\t// in\n    tag_271:\n    tag_270:\n      dup2\n      mstore\n      pop\n      pop\n      swap1\n      pop\n        /* \"contracts/Marketplace2/Marketplace.sol\":17553:17690  function getMarketItem(uint256 marketItemId) public view returns (MarketItem memory) {... */\n      swap2\n      swap1\n      pop\n      jump\t// out\n        /* \"contracts/Marketplace2/Marketplace.sol\":2558:2756  function transferOwnership(address newOwner) public virtual onlyOwner {... */\n    tag_107:\n        /* \"contracts/Marketplace2/Marketplace.sol\":1899:1911  _msgSender() */\n      tag_273\n        /* \"contracts/Marketplace2/Marketplace.sol\":1899:1909  _msgSender */\n      tag_161\n        /* \"contracts/Marketplace2/Marketplace.sol\":1899:1911  _msgSender() */\n      jump\t// in\n    tag_273:\n        /* \"contracts/Marketplace2/Marketplace.sol\":1888:1911  owner() == _msgSender() */\n      0xffffffffffffffffffffffffffffffffffffffff\n      and\n        /* \"contracts/Marketplace2/Marketplace.sol\":1888:1895  owner() */\n      tag_274\n        /* \"contracts/Marketplace2/Marketplace.sol\":1888:1893  owner */\n      tag_88\n        /* \"contracts/Marketplace2/Marketplace.sol\":1888:1895  owner() */\n      jump\t// in\n    tag_274:\n        /* \"contracts/Marketplace2/Marketplace.sol\":1888:1911  owner() == _msgSender() */\n      0xffffffffffffffffffffffffffffffffffffffff\n      and\n      eq\n        /* \"contracts/Marketplace2/Marketplace.sol\":1880:1948  require(owner() == _msgSender(), \"Ownable: caller is not the owner\") */\n      tag_275\n      jumpi\n      mload(0x40)\n      0x08c379a000000000000000000000000000000000000000000000000000000000\n      dup2\n      mstore\n      0x04\n      add\n      tag_276\n      swap1\n      tag_165\n      jump\t// in\n    tag_276:\n      mload(0x40)\n      dup1\n      swap2\n      sub\n      swap1\n      revert\n    tag_275:\n        /* \"contracts/Marketplace2/Marketplace.sol\":2666:2667  0 */\n      0x00\n        /* \"contracts/Marketplace2/Marketplace.sol\":2646:2668  newOwner != address(0) */\n      0xffffffffffffffffffffffffffffffffffffffff\n      and\n        /* \"contracts/Marketplace2/Marketplace.sol\":2646:2654  newOwner */\n      dup2\n        /* \"contracts/Marketplace2/Marketplace.sol\":2646:2668  newOwner != address(0) */\n      0xffffffffffffffffffffffffffffffffffffffff\n      and\n      sub\n        /* \"contracts/Marketplace2/Marketplace.sol\":2638:2711  require(newOwner != address(0), \"Ownable: new owner is the zero address\") */\n      tag_278\n      jumpi\n      mload(0x40)\n      0x08c379a000000000000000000000000000000000000000000000000000000000\n      dup2\n      mstore\n      0x04\n      add\n      tag_279\n      swap1\n      tag_280\n      jump\t// in\n    tag_279:\n      mload(0x40)\n      dup1\n      swap2\n      sub\n      swap1\n      revert\n    tag_278:\n        /* \"contracts/Marketplace2/Marketplace.sol\":2721:2749  _transferOwnership(newOwner) */\n      tag_281\n        /* \"contracts/Marketplace2/Marketplace.sol\":2740:2748  newOwner */\n      dup2\n        /* \"contracts/Marketplace2/Marketplace.sol\":2721:2739  _transferOwnership */\n      tag_247\n        /* \"contracts/Marketplace2/Marketplace.sol\":2721:2749  _transferOwnership(newOwner) */\n      jump\t// in\n    tag_281:\n        /* \"contracts/Marketplace2/Marketplace.sol\":2558:2756  function transferOwnership(address newOwner) public virtual onlyOwner {... */\n      pop\n      jump\t// out\n        /* \"contracts/Marketplace2/Marketplace.sol\":16229:16252  IERC721 public mainNFTs */\n    tag_109:\n      0x0b\n      0x00\n      swap1\n      sload\n      swap1\n      0x0100\n      exp\n      swap1\n      div\n      0xffffffffffffffffffffffffffffffffffffffff\n      and\n      dup2\n      jump\t// out\n        /* \"contracts/Marketplace2/Marketplace.sol\":15977:16024  mapping (uint256 => MarketItem) public allItems */\n    tag_114:\n      mstore(0x20, 0x07)\n      dup1\n      0x00\n      mstore\n      keccak256(0x00, 0x40)\n      0x00\n      swap2\n      pop\n      swap1\n      pop\n      dup1\n      0x00\n      add\n      sload\n      swap1\n      dup1\n      0x01\n      add\n      sload\n      swap1\n      dup1\n      0x02\n      add\n      0x00\n      swap1\n      sload\n      swap1\n      0x0100\n      exp\n      swap1\n      div\n      0xffffffffffffffffffffffffffffffffffffffff\n      and\n      swap1\n      dup1\n      0x03\n      add\n      0x00\n      swap1\n      sload\n      swap1\n      0x0100\n      exp\n      swap1\n      div\n      0xffffffffffffffffffffffffffffffffffffffff\n      and\n      swap1\n      dup1\n      0x04\n      add\n      sload\n      swap1\n      dup1\n      0x05\n      add\n      0x00\n      swap1\n      sload\n      swap1\n      0x0100\n      exp\n      swap1\n      div\n      0xff\n      and\n      swap1\n      pop\n      dup7\n      jump\t// out\n        /* \"contracts/Marketplace2/Marketplace.sol\":554:650  function _msgSender() internal view virtual returns (address) {... */\n    tag_161:\n        /* \"contracts/Marketplace2/Marketplace.sol\":607:614  address */\n      0x00\n        /* \"contracts/Marketplace2/Marketplace.sol\":633:643  msg.sender */\n      caller\n        /* \"contracts/Marketplace2/Marketplace.sol\":626:643  return msg.sender */\n      swap1\n      pop\n        /* \"contracts/Marketplace2/Marketplace.sol\":554:650  function _msgSender() internal view virtual returns (address) {... */\n      swap1\n      jump\t// out\n        /* \"contracts/Marketplace2/Marketplace.sol\":21325:21526  function _safeTransferToMarket(uint256 tokenId) private {... */\n    tag_193:\n        /* \"contracts/Marketplace2/Marketplace.sol\":21391:21398  factory */\n      0x0a\n      0x00\n      swap1\n      sload\n      swap1\n      0x0100\n      exp\n      swap1\n      div\n      0xffffffffffffffffffffffffffffffffffffffff\n      and\n        /* \"contracts/Marketplace2/Marketplace.sol\":21391:21417  factory.setOwnerIngameItem */\n      0xffffffffffffffffffffffffffffffffffffffff\n      and\n      0xc1e9518a\n        /* \"contracts/Marketplace2/Marketplace.sol\":21418:21428  msg.sender */\n      caller\n        /* \"contracts/Marketplace2/Marketplace.sol\":21437:21441  this */\n      address\n        /* \"contracts/Marketplace2/Marketplace.sol\":21444:21451  tokenId */\n      dup5\n        /* \"contracts/Marketplace2/Marketplace.sol\":21391:21452  factory.setOwnerIngameItem(msg.sender,address(this), tokenId) */\n      mload(0x40)\n      dup5\n      0xffffffff\n      and\n      0xe0\n      shl\n      dup2\n      mstore\n      0x04\n      add\n      tag_284\n      swap4\n      swap3\n      swap2\n      swap1\n      tag_149\n      jump\t// in\n    tag_284:\n      0x00\n      mload(0x40)\n      dup1\n      dup4\n      sub\n      dup2\n      0x00\n      dup8\n      dup1\n      extcodesize\n      iszero\n      dup1\n      iszero\n      tag_285\n      jumpi\n      0x00\n      dup1\n      revert\n    tag_285:\n      pop\n      gas\n      call\n      iszero\n      dup1\n      iszero\n      tag_287\n      jumpi\n      returndatasize\n      0x00\n      dup1\n      returndatacopy\n      revert(0x00, returndatasize)\n    tag_287:\n      pop\n      pop\n      pop\n      pop\n        /* \"contracts/Marketplace2/Marketplace.sol\":21462:21470  mainNFTs */\n      0x0b\n      0x00\n      swap1\n      sload\n      swap1\n      0x0100\n      exp\n      swap1\n      div\n      0xffffffffffffffffffffffffffffffffffffffff\n      and\n        /* \"contracts/Marketplace2/Marketplace.sol\":21462:21483  mainNFTs.transferFrom */\n      0xffffffffffffffffffffffffffffffffffffffff\n      and\n      0x23b872dd\n        /* \"contracts/Marketplace2/Marketplace.sol\":21484:21494  msg.sender */\n      caller\n        /* \"contracts/Marketplace2/Marketplace.sol\":21504:21508  this */\n      address\n        /* \"contracts/Marketplace2/Marketplace.sol\":21511:21518  tokenId */\n      dup5\n        /* \"contracts/Marketplace2/Marketplace.sol\":21462:21519  mainNFTs.transferFrom(msg.sender, address(this), tokenId) */\n      mload(0x40)\n      dup5\n      0xffffffff\n      and\n      0xe0\n      shl\n      dup2\n      mstore\n      0x04\n      add\n      tag_288\n      swap4\n      swap3\n      swap2\n      swap1\n      tag_149\n      jump\t// in\n    tag_288:\n      0x00\n      mload(0x40)\n      dup1\n      dup4\n      sub\n      dup2\n      0x00\n      dup8\n      dup1\n      extcodesize\n      iszero\n      dup1\n      iszero\n      tag_289\n      jumpi\n      0x00\n      dup1\n      revert\n    tag_289:\n      pop\n      gas\n      call\n      iszero\n      dup1\n      iszero\n      tag_291\n      jumpi\n      returndatasize\n      0x00\n      dup1\n      returndatacopy\n      revert(0x00, returndatasize)\n    tag_291:\n      pop\n      pop\n      pop\n      pop\n        /* \"contracts/Marketplace2/Marketplace.sol\":21325:21526  function _safeTransferToMarket(uint256 tokenId) private {... */\n      pop\n      jump\t// out\n        /* \"contracts/Marketplace2/Marketplace.sol\":11851:11963  function current(Counter storage counter) internal view returns (uint256) {... */\n    tag_195:\n        /* \"contracts/Marketplace2/Marketplace.sol\":11916:11923  uint256 */\n      0x00\n        /* \"contracts/Marketplace2/Marketplace.sol\":11942:11949  counter */\n      dup2\n        /* \"contracts/Marketplace2/Marketplace.sol\":11942:11956  counter._value */\n      0x00\n      add\n      sload\n        /* \"contracts/Marketplace2/Marketplace.sol\":11935:11956  return counter._value */\n      swap1\n      pop\n        /* \"contracts/Marketplace2/Marketplace.sol\":11851:11963  function current(Counter storage counter) internal view returns (uint256) {... */\n      swap2\n      swap1\n      pop\n      jump\t// out\n        /* \"contracts/Marketplace2/Marketplace.sol\":11969:12092  function increment(Counter storage counter) internal {... */\n    tag_201:\n        /* \"contracts/Marketplace2/Marketplace.sol\":12074:12075  1 */\n      0x01\n        /* \"contracts/Marketplace2/Marketplace.sol\":12056:12063  counter */\n      dup2\n        /* \"contracts/Marketplace2/Marketplace.sol\":12056:12070  counter._value */\n      0x00\n      add\n      0x00\n        /* \"contracts/Marketplace2/Marketplace.sol\":12056:12075  counter._value += 1 */\n      dup3\n      dup3\n      sload\n      add\n      swap3\n      pop\n      pop\n      dup2\n      swap1\n      sstore\n      pop\n        /* \"contracts/Marketplace2/Marketplace.sol\":11969:12092  function increment(Counter storage counter) internal {... */\n      pop\n      jump\t// out\n        /* \"contracts/Marketplace2/Marketplace.sol\":2910:3097  function _transferOwnership(address newOwner) internal virtual {... */\n    tag_247:\n        /* \"contracts/Marketplace2/Marketplace.sol\":2983:2999  address oldOwner */\n      0x00\n        /* \"contracts/Marketplace2/Marketplace.sol\":3002:3008  _owner */\n      0x0c\n      0x00\n      swap1\n      sload\n      swap1\n      0x0100\n      exp\n      swap1\n      div\n      0xffffffffffffffffffffffffffffffffffffffff\n      and\n        /* \"contracts/Marketplace2/Marketplace.sol\":2983:3008  address oldOwner = _owner */\n      swap1\n      pop\n        /* \"contracts/Marketplace2/Marketplace.sol\":3027:3035  newOwner */\n      dup2\n        /* \"contracts/Marketplace2/Marketplace.sol\":3018:3024  _owner */\n      0x0c\n      0x00\n        /* \"contracts/Marketplace2/Marketplace.sol\":3018:3035  _owner = newOwner */\n      0x0100\n      exp\n      dup2\n      sload\n      dup2\n      0xffffffffffffffffffffffffffffffffffffffff\n      mul\n      not\n      and\n      swap1\n      dup4\n      0xffffffffffffffffffffffffffffffffffffffff\n      and\n      mul\n      or\n      swap1\n      sstore\n      pop\n        /* \"contracts/Marketplace2/Marketplace.sol\":3081:3089  newOwner */\n      dup2\n        /* \"contracts/Marketplace2/Marketplace.sol\":3050:3090  OwnershipTransferred(oldOwner, newOwner) */\n      0xffffffffffffffffffffffffffffffffffffffff\n      and\n        /* \"contracts/Marketplace2/Marketplace.sol\":3071:3079  oldOwner */\n      dup2\n        /* \"contracts/Marketplace2/Marketplace.sol\":3050:3090  OwnershipTransferred(oldOwner, newOwner) */\n      0xffffffffffffffffffffffffffffffffffffffff\n      and\n      0x8be0079c531659141344cd1fd0a4f28419497f9722a3daafe3b4186f6b6457e0\n      mload(0x40)\n      mload(0x40)\n      dup1\n      swap2\n      sub\n      swap1\n      log3\n        /* \"contracts/Marketplace2/Marketplace.sol\":2973:3097  {... */\n      pop\n        /* \"contracts/Marketplace2/Marketplace.sol\":2910:3097  function _transferOwnership(address newOwner) internal virtual {... */\n      pop\n      jump\t// out\n        /* \"contracts/Marketplace2/Marketplace.sol\":21533:21851  function _safeBuyItem(uint256 itemId,uint256 amount, uint256 tokenId ) private { ... */\n    tag_260:\n        /* \"contracts/Marketplace2/Marketplace.sol\":21623:21632  mainToken */\n      0x09\n      0x00\n      swap1\n      sload\n      swap1\n      0x0100\n      exp\n      swap1\n      div\n      0xffffffffffffffffffffffffffffffffffffffff\n      and\n        /* \"contracts/Marketplace2/Marketplace.sol\":21623:21645  mainToken.transferFrom */\n      0xffffffffffffffffffffffffffffffffffffffff\n      and\n      0x23b872dd\n        /* \"contracts/Marketplace2/Marketplace.sol\":21646:21656  msg.sender */\n      caller\n        /* \"contracts/Marketplace2/Marketplace.sol\":21658:21672  idToMarketItem */\n      0x0f\n        /* \"contracts/Marketplace2/Marketplace.sol\":21658:21680  idToMarketItem[itemId] */\n      0x00\n        /* \"contracts/Marketplace2/Marketplace.sol\":21673:21679  itemId */\n      dup8\n        /* \"contracts/Marketplace2/Marketplace.sol\":21658:21680  idToMarketItem[itemId] */\n      dup2\n      mstore\n      0x20\n      add\n      swap1\n      dup2\n      mstore\n      0x20\n      add\n      0x00\n      keccak256\n        /* \"contracts/Marketplace2/Marketplace.sol\":21658:21687  idToMarketItem[itemId].seller */\n      0x02\n      add\n      0x00\n      swap1\n      sload\n      swap1\n      0x0100\n      exp\n      swap1\n      div\n      0xffffffffffffffffffffffffffffffffffffffff\n      and\n        /* \"contracts/Marketplace2/Marketplace.sol\":21690:21696  amount */\n      dup6\n        /* \"contracts/Marketplace2/Marketplace.sol\":21623:21697  mainToken.transferFrom(msg.sender, idToMarketItem[itemId].seller , amount) */\n      mload(0x40)\n      dup5\n      0xffffffff\n      and\n      0xe0\n      shl\n      dup2\n      mstore\n      0x04\n      add\n      tag_296\n      swap4\n      swap3\n      swap2\n      swap1\n      tag_149\n      jump\t// in\n    tag_296:\n      0x20\n      mload(0x40)\n      dup1\n      dup4\n      sub\n      dup2\n      0x00\n      dup8\n      gas\n      call\n      iszero\n      dup1\n      iszero\n      tag_298\n      jumpi\n      returndatasize\n      0x00\n      dup1\n      returndatacopy\n      revert(0x00, returndatasize)\n    tag_298:\n      pop\n      pop\n      pop\n      pop\n      mload(0x40)\n      returndatasize\n      not(0x1f)\n      0x1f\n      dup3\n      add\n      and\n      dup3\n      add\n      dup1\n      0x40\n      mstore\n      pop\n      dup2\n      add\n      swap1\n      tag_299\n      swap2\n      swap1\n      tag_300\n      jump\t// in\n    tag_299:\n      pop\n        /* \"contracts/Marketplace2/Marketplace.sol\":21707:21714  factory */\n      0x0a\n      0x00\n      swap1\n      sload\n      swap1\n      0x0100\n      exp\n      swap1\n      div\n      0xffffffffffffffffffffffffffffffffffffffff\n      and\n        /* \"contracts/Marketplace2/Marketplace.sol\":21707:21733  factory.setOwnerIngameItem */\n      0xffffffffffffffffffffffffffffffffffffffff\n      and\n      0xc1e9518a\n        /* \"contracts/Marketplace2/Marketplace.sol\":21734:21744  msg.sender */\n      caller\n        /* \"contracts/Marketplace2/Marketplace.sol\":21753:21757  this */\n      address\n        /* \"contracts/Marketplace2/Marketplace.sol\":21760:21767  tokenId */\n      dup5\n        /* \"contracts/Marketplace2/Marketplace.sol\":21707:21768  factory.setOwnerIngameItem(msg.sender,address(this), tokenId) */\n      mload(0x40)\n      dup5\n      0xffffffff\n      and\n      0xe0\n      shl\n      dup2\n      mstore\n      0x04\n      add\n      tag_301\n      swap4\n      swap3\n      swap2\n      swap1\n      tag_149\n      jump\t// in\n    tag_301:\n      0x00\n      mload(0x40)\n      dup1\n      dup4\n      sub\n      dup2\n      0x00\n      dup8\n      dup1\n      extcodesize\n      iszero\n      dup1\n      iszero\n      tag_302\n      jumpi\n      0x00\n      dup1\n      revert\n    tag_302:\n      pop\n      gas\n      call\n      iszero\n      dup1\n      iszero\n      tag_304\n      jumpi\n      returndatasize\n      0x00\n      dup1\n      returndatacopy\n      revert(0x00, returndatasize)\n    tag_304:\n      pop\n      pop\n      pop\n      pop\n        /* \"contracts/Marketplace2/Marketplace.sol\":21778:21786  mainNFTs */\n      0x0b\n      0x00\n      swap1\n      sload\n      swap1\n      0x0100\n      exp\n      swap1\n      div\n      0xffffffffffffffffffffffffffffffffffffffff\n      and\n        /* \"contracts/Marketplace2/Marketplace.sol\":21778:21799  mainNFTs.transferFrom */\n      0xffffffffffffffffffffffffffffffffffffffff\n      and\n      0x23b872dd\n        /* \"contracts/Marketplace2/Marketplace.sol\":21808:21812  this */\n      address\n        /* \"contracts/Marketplace2/Marketplace.sol\":21823:21833  msg.sender */\n      caller\n        /* \"contracts/Marketplace2/Marketplace.sol\":21836:21843  tokenId */\n      dup5\n        /* \"contracts/Marketplace2/Marketplace.sol\":21778:21844  mainNFTs.transferFrom(address(this), address(msg.sender), tokenId) */\n      mload(0x40)\n      dup5\n      0xffffffff\n      and\n      0xe0\n      shl\n      dup2\n      mstore\n      0x04\n      add\n      tag_305\n      swap4\n      swap3\n      swap2\n      swap1\n      tag_149\n      jump\t// in\n    tag_305:\n      0x00\n      mload(0x40)\n      dup1\n      dup4\n      sub\n      dup2\n      0x00\n      dup8\n      dup1\n      extcodesize\n      iszero\n      dup1\n      iszero\n      tag_306\n      jumpi\n      0x00\n      dup1\n      revert\n    tag_306:\n      pop\n      gas\n      call\n      iszero\n      dup1\n      iszero\n      tag_308\n      jumpi\n      returndatasize\n      0x00\n      dup1\n      returndatacopy\n      revert(0x00, returndatasize)\n    tag_308:\n      pop\n      pop\n      pop\n      pop\n        /* \"contracts/Marketplace2/Marketplace.sol\":21533:21851  function _safeBuyItem(uint256 itemId,uint256 amount, uint256 tokenId ) private { ... */\n      pop\n      pop\n      pop\n      jump\t// out\n    tag_117:\n      mload(0x40)\n      dup1\n      0xa0\n      add\n      0x40\n      mstore\n      dup1\n      0x00\n      dup2\n      mstore\n      0x20\n      add\n      and(0xffffffffffffffffffffffffffffffffffffffff, 0x00)\n      dup2\n      mstore\n      0x20\n      add\n      0x60\n      dup2\n      mstore\n      0x20\n      add\n      0x60\n      dup2\n      mstore\n      0x20\n      add\n      iszero(iszero(0x00))\n      dup2\n      mstore\n      pop\n      swap1\n      jump\t// out\n    tag_120:\n      mload(0x40)\n      dup1\n      0xc0\n      add\n      0x40\n      mstore\n      dup1\n      0x00\n      dup2\n      mstore\n      0x20\n      add\n      0x00\n      dup2\n      mstore\n      0x20\n      add\n      and(0xffffffffffffffffffffffffffffffffffffffff, 0x00)\n      dup2\n      mstore\n      0x20\n      add\n      and(0xffffffffffffffffffffffffffffffffffffffff, 0x00)\n      dup2\n      mstore\n      0x20\n      add\n      0x00\n      dup2\n      mstore\n      0x20\n      add\n      0x00\n      0x01\n      dup2\n      gt\n      iszero\n      tag_309\n      jumpi\n      tag_310\n      tag_124\n      jump\t// in\n    tag_310:\n    tag_309:\n      dup2\n      mstore\n      pop\n      swap1\n      jump\t// out\n        /* \"#utility.yul\":7:82   */\n    tag_311:\n        /* \"#utility.yul\":40:46   */\n      0x00\n        /* \"#utility.yul\":73:75   */\n      0x40\n        /* \"#utility.yul\":67:76   */\n      mload\n        /* \"#utility.yul\":57:76   */\n      swap1\n      pop\n        /* \"#utility.yul\":7:82   */\n      swap1\n      jump\t// out\n        /* \"#utility.yul\":88:205   */\n    tag_312:\n        /* \"#utility.yul\":197:198   */\n      0x00\n        /* \"#utility.yul\":194:195   */\n      dup1\n        /* \"#utility.yul\":187:199   */\n      revert\n        /* \"#utility.yul\":211:328   */\n    tag_313:\n        /* \"#utility.yul\":320:321   */\n      0x00\n        /* \"#utility.yul\":317:318   */\n      dup1\n        /* \"#utility.yul\":310:322   */\n      revert\n        /* \"#utility.yul\":334:411   */\n    tag_314:\n        /* \"#utility.yul\":371:378   */\n      0x00\n        /* \"#utility.yul\":400:405   */\n      dup2\n        /* \"#utility.yul\":389:405   */\n      swap1\n      pop\n        /* \"#utility.yul\":334:411   */\n      swap2\n      swap1\n      pop\n      jump\t// out\n        /* \"#utility.yul\":417:539   */\n    tag_315:\n        /* \"#utility.yul\":490:514   */\n      tag_401\n        /* \"#utility.yul\":508:513   */\n      dup2\n        /* \"#utility.yul\":490:514   */\n      tag_314\n      jump\t// in\n    tag_401:\n        /* \"#utility.yul\":483:488   */\n      dup2\n        /* \"#utility.yul\":480:515   */\n      eq\n        /* \"#utility.yul\":470:533   */\n      tag_402\n      jumpi\n        /* \"#utility.yul\":529:530   */\n      0x00\n        /* \"#utility.yul\":526:527   */\n      dup1\n        /* \"#utility.yul\":519:531   */\n      revert\n        /* \"#utility.yul\":470:533   */\n    tag_402:\n        /* \"#utility.yul\":417:539   */\n      pop\n      jump\t// out\n        /* \"#utility.yul\":545:684   */\n    tag_316:\n        /* \"#utility.yul\":591:596   */\n      0x00\n        /* \"#utility.yul\":629:635   */\n      dup2\n        /* \"#utility.yul\":616:636   */\n      calldataload\n        /* \"#utility.yul\":607:636   */\n      swap1\n      pop\n        /* \"#utility.yul\":645:678   */\n      tag_404\n        /* \"#utility.yul\":672:677   */\n      dup2\n        /* \"#utility.yul\":645:678   */\n      tag_315\n      jump\t// in\n    tag_404:\n        /* \"#utility.yul\":545:684   */\n      swap3\n      swap2\n      pop\n      pop\n      jump\t// out\n        /* \"#utility.yul\":690:1019   */\n    tag_31:\n        /* \"#utility.yul\":749:755   */\n      0x00\n        /* \"#utility.yul\":798:800   */\n      0x20\n        /* \"#utility.yul\":786:795   */\n      dup3\n        /* \"#utility.yul\":777:784   */\n      dup5\n        /* \"#utility.yul\":773:796   */\n      sub\n        /* \"#utility.yul\":769:801   */\n      slt\n        /* \"#utility.yul\":766:885   */\n      iszero\n      tag_406\n      jumpi\n        /* \"#utility.yul\":804:883   */\n      tag_407\n      tag_312\n      jump\t// in\n    tag_407:\n        /* \"#utility.yul\":766:885   */\n    tag_406:\n        /* \"#utility.yul\":924:925   */\n      0x00\n        /* \"#utility.yul\":949:1002   */\n      tag_408\n        /* \"#utility.yul\":994:1001   */\n      dup5\n        /* \"#utility.yul\":985:991   */\n      dup3\n        /* \"#utility.yul\":974:983   */\n      dup6\n        /* \"#utility.yul\":970:992   */\n      add\n        /* \"#utility.yul\":949:1002   */\n      tag_316\n      jump\t// in\n    tag_408:\n        /* \"#utility.yul\":939:1002   */\n      swap2\n      pop\n        /* \"#utility.yul\":895:1012   */\n      pop\n        /* \"#utility.yul\":690:1019   */\n      swap3\n      swap2\n      pop\n      pop\n      jump\t// out\n        /* \"#utility.yul\":1025:1133   */\n    tag_317:\n        /* \"#utility.yul\":1102:1126   */\n      tag_410\n        /* \"#utility.yul\":1120:1125   */\n      dup2\n        /* \"#utility.yul\":1102:1126   */\n      tag_314\n      jump\t// in\n    tag_410:\n        /* \"#utility.yul\":1097:1100   */\n      dup3\n        /* \"#utility.yul\":1090:1127   */\n      mstore\n        /* \"#utility.yul\":1025:1133   */\n      pop\n      pop\n      jump\t// out\n        /* \"#utility.yul\":1139:1265   */\n    tag_318:\n        /* \"#utility.yul\":1176:1183   */\n      0x00\n        /* \"#utility.yul\":1216:1258   */\n      0xffffffffffffffffffffffffffffffffffffffff\n        /* \"#utility.yul\":1209:1214   */\n      dup3\n        /* \"#utility.yul\":1205:1259   */\n      and\n        /* \"#utility.yul\":1194:1259   */\n      swap1\n      pop\n        /* \"#utility.yul\":1139:1265   */\n      swap2\n      swap1\n      pop\n      jump\t// out\n        /* \"#utility.yul\":1271:1367   */\n    tag_319:\n        /* \"#utility.yul\":1308:1315   */\n      0x00\n        /* \"#utility.yul\":1337:1361   */\n      tag_413\n        /* \"#utility.yul\":1355:1360   */\n      dup3\n        /* \"#utility.yul\":1337:1361   */\n      tag_318\n      jump\t// in\n    tag_413:\n        /* \"#utility.yul\":1326:1361   */\n      swap1\n      pop\n        /* \"#utility.yul\":1271:1367   */\n      swap2\n      swap1\n      pop\n      jump\t// out\n        /* \"#utility.yul\":1373:1481   */\n    tag_320:\n        /* \"#utility.yul\":1450:1474   */\n      tag_415\n        /* \"#utility.yul\":1468:1473   */\n      dup2\n        /* \"#utility.yul\":1450:1474   */\n      tag_319\n      jump\t// in\n    tag_415:\n        /* \"#utility.yul\":1445:1448   */\n      dup3\n        /* \"#utility.yul\":1438:1475   */\n      mstore\n        /* \"#utility.yul\":1373:1481   */\n      pop\n      pop\n      jump\t// out\n        /* \"#utility.yul\":1487:1586   */\n    tag_321:\n        /* \"#utility.yul\":1539:1545   */\n      0x00\n        /* \"#utility.yul\":1573:1578   */\n      dup2\n        /* \"#utility.yul\":1567:1579   */\n      mload\n        /* \"#utility.yul\":1557:1579   */\n      swap1\n      pop\n        /* \"#utility.yul\":1487:1586   */\n      swap2\n      swap1\n      pop\n      jump\t// out\n        /* \"#utility.yul\":1592:1751   */\n    tag_322:\n        /* \"#utility.yul\":1666:1677   */\n      0x00\n        /* \"#utility.yul\":1700:1706   */\n      dup3\n        /* \"#utility.yul\":1695:1698   */\n      dup3\n        /* \"#utility.yul\":1688:1707   */\n      mstore\n        /* \"#utility.yul\":1740:1744   */\n      0x20\n        /* \"#utility.yul\":1735:1738   */\n      dup3\n        /* \"#utility.yul\":1731:1745   */\n      add\n        /* \"#utility.yul\":1716:1745   */\n      swap1\n      pop\n        /* \"#utility.yul\":1592:1751   */\n      swap3\n      swap2\n      pop\n      pop\n      jump\t// out\n        /* \"#utility.yul\":1757:2064   */\n    tag_323:\n        /* \"#utility.yul\":1825:1826   */\n      0x00\n        /* \"#utility.yul\":1835:1948   */\n    tag_419:\n        /* \"#utility.yul\":1849:1855   */\n      dup4\n        /* \"#utility.yul\":1846:1847   */\n      dup2\n        /* \"#utility.yul\":1843:1856   */\n      lt\n        /* \"#utility.yul\":1835:1948   */\n      iszero\n      tag_421\n      jumpi\n        /* \"#utility.yul\":1934:1935   */\n      dup1\n        /* \"#utility.yul\":1929:1932   */\n      dup3\n        /* \"#utility.yul\":1925:1936   */\n      add\n        /* \"#utility.yul\":1919:1937   */\n      mload\n        /* \"#utility.yul\":1915:1916   */\n      dup2\n        /* \"#utility.yul\":1910:1913   */\n      dup5\n        /* \"#utility.yul\":1906:1917   */\n      add\n        /* \"#utility.yul\":1899:1938   */\n      mstore\n        /* \"#utility.yul\":1871:1873   */\n      0x20\n        /* \"#utility.yul\":1868:1869   */\n      dup2\n        /* \"#utility.yul\":1864:1874   */\n      add\n        /* \"#utility.yul\":1859:1874   */\n      swap1\n      pop\n        /* \"#utility.yul\":1835:1948   */\n      jump(tag_419)\n    tag_421:\n        /* \"#utility.yul\":1966:1972   */\n      dup4\n        /* \"#utility.yul\":1963:1964   */\n      dup2\n        /* \"#utility.yul\":1960:1973   */\n      gt\n        /* \"#utility.yul\":1957:2058   */\n      iszero\n      tag_422\n      jumpi\n        /* \"#utility.yul\":2046:2047   */\n      0x00\n        /* \"#utility.yul\":2037:2043   */\n      dup5\n        /* \"#utility.yul\":2032:2035   */\n      dup5\n        /* \"#utility.yul\":2028:2044   */\n      add\n        /* \"#utility.yul\":2021:2048   */\n      mstore\n        /* \"#utility.yul\":1957:2058   */\n    tag_422:\n        /* \"#utility.yul\":1806:2064   */\n      pop\n        /* \"#utility.yul\":1757:2064   */\n      pop\n      pop\n      pop\n      jump\t// out\n        /* \"#utility.yul\":2070:2172   */\n    tag_324:\n        /* \"#utility.yul\":2111:2117   */\n      0x00\n        /* \"#utility.yul\":2162:2164   */\n      0x1f\n        /* \"#utility.yul\":2158:2165   */\n      not\n        /* \"#utility.yul\":2153:2155   */\n      0x1f\n        /* \"#utility.yul\":2146:2151   */\n      dup4\n        /* \"#utility.yul\":2142:2156   */\n      add\n        /* \"#utility.yul\":2138:2166   */\n      and\n        /* \"#utility.yul\":2128:2166   */\n      swap1\n      pop\n        /* \"#utility.yul\":2070:2172   */\n      swap2\n      swap1\n      pop\n      jump\t// out\n        /* \"#utility.yul\":2178:2522   */\n    tag_325:\n        /* \"#utility.yul\":2256:2259   */\n      0x00\n        /* \"#utility.yul\":2284:2323   */\n      tag_425\n        /* \"#utility.yul\":2317:2322   */\n      dup3\n        /* \"#utility.yul\":2284:2323   */\n      tag_321\n      jump\t// in\n    tag_425:\n        /* \"#utility.yul\":2339:2400   */\n      tag_426\n        /* \"#utility.yul\":2393:2399   */\n      dup2\n        /* \"#utility.yul\":2388:2391   */\n      dup6\n        /* \"#utility.yul\":2339:2400   */\n      tag_322\n      jump\t// in\n    tag_426:\n        /* \"#utility.yul\":2332:2400   */\n      swap4\n      pop\n        /* \"#utility.yul\":2409:2461   */\n      tag_427\n        /* \"#utility.yul\":2454:2460   */\n      dup2\n        /* \"#utility.yul\":2449:2452   */\n      dup6\n        /* \"#utility.yul\":2442:2446   */\n      0x20\n        /* \"#utility.yul\":2435:2440   */\n      dup7\n        /* \"#utility.yul\":2431:2447   */\n      add\n        /* \"#utility.yul\":2409:2461   */\n      tag_323\n      jump\t// in\n    tag_427:\n        /* \"#utility.yul\":2486:2515   */\n      tag_428\n        /* \"#utility.yul\":2508:2514   */\n      dup2\n        /* \"#utility.yul\":2486:2515   */\n      tag_324\n      jump\t// in\n    tag_428:\n        /* \"#utility.yul\":2481:2484   */\n      dup5\n        /* \"#utility.yul\":2477:2516   */\n      add\n        /* \"#utility.yul\":2470:2516   */\n      swap2\n      pop\n        /* \"#utility.yul\":2260:2522   */\n      pop\n        /* \"#utility.yul\":2178:2522   */\n      swap3\n      swap2\n      pop\n      pop\n      jump\t// out\n        /* \"#utility.yul\":2528:2618   */\n    tag_326:\n        /* \"#utility.yul\":2562:2569   */\n      0x00\n        /* \"#utility.yul\":2605:2610   */\n      dup2\n        /* \"#utility.yul\":2598:2611   */\n      iszero\n        /* \"#utility.yul\":2591:2612   */\n      iszero\n        /* \"#utility.yul\":2580:2612   */\n      swap1\n      pop\n        /* \"#utility.yul\":2528:2618   */\n      swap2\n      swap1\n      pop\n      jump\t// out\n        /* \"#utility.yul\":2624:2723   */\n    tag_327:\n        /* \"#utility.yul\":2695:2716   */\n      tag_431\n        /* \"#utility.yul\":2710:2715   */\n      dup2\n        /* \"#utility.yul\":2695:2716   */\n      tag_326\n      jump\t// in\n    tag_431:\n        /* \"#utility.yul\":2690:2693   */\n      dup3\n        /* \"#utility.yul\":2683:2717   */\n      mstore\n        /* \"#utility.yul\":2624:2723   */\n      pop\n      pop\n      jump\t// out\n        /* \"#utility.yul\":2795:4003   */\n    tag_328:\n        /* \"#utility.yul\":2920:2923   */\n      0x00\n        /* \"#utility.yul\":2956:2960   */\n      0xa0\n        /* \"#utility.yul\":2951:2954   */\n      dup4\n        /* \"#utility.yul\":2947:2961   */\n      add\n        /* \"#utility.yul\":3041:3045   */\n      0x00\n        /* \"#utility.yul\":3034:3039   */\n      dup4\n        /* \"#utility.yul\":3030:3046   */\n      add\n        /* \"#utility.yul\":3024:3047   */\n      mload\n        /* \"#utility.yul\":3060:3123   */\n      tag_433\n        /* \"#utility.yul\":3117:3121   */\n      0x00\n        /* \"#utility.yul\":3112:3115   */\n      dup7\n        /* \"#utility.yul\":3108:3122   */\n      add\n        /* \"#utility.yul\":3094:3106   */\n      dup3\n        /* \"#utility.yul\":3060:3123   */\n      tag_317\n      jump\t// in\n    tag_433:\n        /* \"#utility.yul\":2971:3133   */\n      pop\n        /* \"#utility.yul\":3216:3220   */\n      0x20\n        /* \"#utility.yul\":3209:3214   */\n      dup4\n        /* \"#utility.yul\":3205:3221   */\n      add\n        /* \"#utility.yul\":3199:3222   */\n      mload\n        /* \"#utility.yul\":3235:3298   */\n      tag_434\n        /* \"#utility.yul\":3292:3296   */\n      0x20\n        /* \"#utility.yul\":3287:3290   */\n      dup7\n        /* \"#utility.yul\":3283:3297   */\n      add\n        /* \"#utility.yul\":3269:3281   */\n      dup3\n        /* \"#utility.yul\":3235:3298   */\n      tag_320\n      jump\t// in\n    tag_434:\n        /* \"#utility.yul\":3143:3308   */\n      pop\n        /* \"#utility.yul\":3392:3396   */\n      0x40\n        /* \"#utility.yul\":3385:3390   */\n      dup4\n        /* \"#utility.yul\":3381:3397   */\n      add\n        /* \"#utility.yul\":3375:3398   */\n      mload\n        /* \"#utility.yul\":3445:3448   */\n      dup5\n        /* \"#utility.yul\":3439:3443   */\n      dup3\n        /* \"#utility.yul\":3435:3449   */\n      sub\n        /* \"#utility.yul\":3428:3432   */\n      0x40\n        /* \"#utility.yul\":3423:3426   */\n      dup7\n        /* \"#utility.yul\":3419:3433   */\n      add\n        /* \"#utility.yul\":3412:3450   */\n      mstore\n        /* \"#utility.yul\":3471:3544   */\n      tag_435\n        /* \"#utility.yul\":3539:3543   */\n      dup3\n        /* \"#utility.yul\":3525:3537   */\n      dup3\n        /* \"#utility.yul\":3471:3544   */\n      tag_325\n      jump\t// in\n    tag_435:\n        /* \"#utility.yul\":3463:3544   */\n      swap2\n      pop\n        /* \"#utility.yul\":3318:3555   */\n      pop\n        /* \"#utility.yul\":3643:3647   */\n      0x60\n        /* \"#utility.yul\":3636:3641   */\n      dup4\n        /* \"#utility.yul\":3632:3648   */\n      add\n        /* \"#utility.yul\":3626:3649   */\n      mload\n        /* \"#utility.yul\":3696:3699   */\n      dup5\n        /* \"#utility.yul\":3690:3694   */\n      dup3\n        /* \"#utility.yul\":3686:3700   */\n      sub\n        /* \"#utility.yul\":3679:3683   */\n      0x60\n        /* \"#utility.yul\":3674:3677   */\n      dup7\n        /* \"#utility.yul\":3670:3684   */\n      add\n        /* \"#utility.yul\":3663:3701   */\n      mstore\n        /* \"#utility.yul\":3722:3795   */\n      tag_436\n        /* \"#utility.yul\":3790:3794   */\n      dup3\n        /* \"#utility.yul\":3776:3788   */\n      dup3\n        /* \"#utility.yul\":3722:3795   */\n      tag_325\n      jump\t// in\n    tag_436:\n        /* \"#utility.yul\":3714:3795   */\n      swap2\n      pop\n        /* \"#utility.yul\":3565:3806   */\n      pop\n        /* \"#utility.yul\":3890:3894   */\n      0x80\n        /* \"#utility.yul\":3883:3888   */\n      dup4\n        /* \"#utility.yul\":3879:3895   */\n      add\n        /* \"#utility.yul\":3873:3896   */\n      mload\n        /* \"#utility.yul\":3909:3966   */\n      tag_437\n        /* \"#utility.yul\":3960:3964   */\n      0x80\n        /* \"#utility.yul\":3955:3958   */\n      dup7\n        /* \"#utility.yul\":3951:3965   */\n      add\n        /* \"#utility.yul\":3937:3949   */\n      dup3\n        /* \"#utility.yul\":3909:3966   */\n      tag_327\n      jump\t// in\n    tag_437:\n        /* \"#utility.yul\":3816:3976   */\n      pop\n        /* \"#utility.yul\":3993:3997   */\n      dup1\n        /* \"#utility.yul\":3986:3997   */\n      swap2\n      pop\n        /* \"#utility.yul\":2925:4003   */\n      pop\n        /* \"#utility.yul\":2795:4003   */\n      swap3\n      swap2\n      pop\n      pop\n      jump\t// out\n        /* \"#utility.yul\":4009:4394   */\n    tag_34:\n        /* \"#utility.yul\":4158:4162   */\n      0x00\n        /* \"#utility.yul\":4196:4198   */\n      0x20\n        /* \"#utility.yul\":4185:4194   */\n      dup3\n        /* \"#utility.yul\":4181:4199   */\n      add\n        /* \"#utility.yul\":4173:4199   */\n      swap1\n      pop\n        /* \"#utility.yul\":4245:4254   */\n      dup2\n        /* \"#utility.yul\":4239:4243   */\n      dup2\n        /* \"#utility.yul\":4235:4255   */\n      sub\n        /* \"#utility.yul\":4231:4232   */\n      0x00\n        /* \"#utility.yul\":4220:4229   */\n      dup4\n        /* \"#utility.yul\":4216:4233   */\n      add\n        /* \"#utility.yul\":4209:4256   */\n      mstore\n        /* \"#utility.yul\":4273:4387   */\n      tag_439\n        /* \"#utility.yul\":4382:4386   */\n      dup2\n        /* \"#utility.yul\":4373:4379   */\n      dup5\n        /* \"#utility.yul\":4273:4387   */\n      tag_328\n      jump\t// in\n    tag_439:\n        /* \"#utility.yul\":4265:4387   */\n      swap1\n      pop\n        /* \"#utility.yul\":4009:4394   */\n      swap3\n      swap2\n      pop\n      pop\n      jump\t// out\n        /* \"#utility.yul\":4400:4580   */\n    tag_124:\n        /* \"#utility.yul\":4448:4525   */\n      0x4e487b7100000000000000000000000000000000000000000000000000000000\n        /* \"#utility.yul\":4445:4446   */\n      0x00\n        /* \"#utility.yul\":4438:4526   */\n      mstore\n        /* \"#utility.yul\":4545:4549   */\n      0x21\n        /* \"#utility.yul\":4542:4543   */\n      0x04\n        /* \"#utility.yul\":4535:4550   */\n      mstore\n        /* \"#utility.yul\":4569:4573   */\n      0x24\n        /* \"#utility.yul\":4566:4567   */\n      0x00\n        /* \"#utility.yul\":4559:4574   */\n      revert\n        /* \"#utility.yul\":4586:4705   */\n    tag_329:\n        /* \"#utility.yul\":4673:4674   */\n      0x02\n        /* \"#utility.yul\":4666:4671   */\n      dup2\n        /* \"#utility.yul\":4663:4675   */\n      lt\n        /* \"#utility.yul\":4653:4699   */\n      tag_442\n      jumpi\n        /* \"#utility.yul\":4679:4697   */\n      tag_443\n      tag_124\n      jump\t// in\n    tag_443:\n        /* \"#utility.yul\":4653:4699   */\n    tag_442:\n        /* \"#utility.yul\":4586:4705   */\n      pop\n      jump\t// out\n        /* \"#utility.yul\":4711:4850   */\n    tag_330:\n        /* \"#utility.yul\":4762:4769   */\n      0x00\n        /* \"#utility.yul\":4791:4796   */\n      dup2\n        /* \"#utility.yul\":4780:4796   */\n      swap1\n      pop\n        /* \"#utility.yul\":4797:4844   */\n      tag_445\n        /* \"#utility.yul\":4838:4843   */\n      dup3\n        /* \"#utility.yul\":4797:4844   */\n      tag_329\n      jump\t// in\n    tag_445:\n        /* \"#utility.yul\":4711:4850   */\n      swap2\n      swap1\n      pop\n      jump\t// out\n        /* \"#utility.yul\":4856:4995   */\n    tag_331:\n        /* \"#utility.yul\":4918:4927   */\n      0x00\n        /* \"#utility.yul\":4951:4989   */\n      tag_447\n        /* \"#utility.yul\":4983:4988   */\n      dup3\n        /* \"#utility.yul\":4951:4989   */\n      tag_330\n      jump\t// in\n    tag_447:\n        /* \"#utility.yul\":4938:4989   */\n      swap1\n      pop\n        /* \"#utility.yul\":4856:4995   */\n      swap2\n      swap1\n      pop\n      jump\t// out\n        /* \"#utility.yul\":5001:5146   */\n    tag_332:\n        /* \"#utility.yul\":5090:5139   */\n      tag_449\n        /* \"#utility.yul\":5133:5138   */\n      dup2\n        /* \"#utility.yul\":5090:5139   */\n      tag_331\n      jump\t// in\n    tag_449:\n        /* \"#utility.yul\":5085:5088   */\n      dup3\n        /* \"#utility.yul\":5078:5140   */\n      mstore\n        /* \"#utility.yul\":5001:5146   */\n      pop\n      pop\n      jump\t// out\n        /* \"#utility.yul\":5236:6466   */\n    tag_333:\n        /* \"#utility.yul\":5387:5391   */\n      0xc0\n        /* \"#utility.yul\":5382:5385   */\n      dup3\n        /* \"#utility.yul\":5378:5392   */\n      add\n        /* \"#utility.yul\":5476:5480   */\n      0x00\n        /* \"#utility.yul\":5469:5474   */\n      dup3\n        /* \"#utility.yul\":5465:5481   */\n      add\n        /* \"#utility.yul\":5459:5482   */\n      mload\n        /* \"#utility.yul\":5495:5558   */\n      tag_451\n        /* \"#utility.yul\":5552:5556   */\n      0x00\n        /* \"#utility.yul\":5547:5550   */\n      dup6\n        /* \"#utility.yul\":5543:5557   */\n      add\n        /* \"#utility.yul\":5529:5541   */\n      dup3\n        /* \"#utility.yul\":5495:5558   */\n      tag_317\n      jump\t// in\n    tag_451:\n        /* \"#utility.yul\":5402:5568   */\n      pop\n        /* \"#utility.yul\":5653:5657   */\n      0x20\n        /* \"#utility.yul\":5646:5651   */\n      dup3\n        /* \"#utility.yul\":5642:5658   */\n      add\n        /* \"#utility.yul\":5636:5659   */\n      mload\n        /* \"#utility.yul\":5672:5735   */\n      tag_452\n        /* \"#utility.yul\":5729:5733   */\n      0x20\n        /* \"#utility.yul\":5724:5727   */\n      dup6\n        /* \"#utility.yul\":5720:5734   */\n      add\n        /* \"#utility.yul\":5706:5718   */\n      dup3\n        /* \"#utility.yul\":5672:5735   */\n      tag_317\n      jump\t// in\n    tag_452:\n        /* \"#utility.yul\":5578:5745   */\n      pop\n        /* \"#utility.yul\":5829:5833   */\n      0x40\n        /* \"#utility.yul\":5822:5827   */\n      dup3\n        /* \"#utility.yul\":5818:5834   */\n      add\n        /* \"#utility.yul\":5812:5835   */\n      mload\n        /* \"#utility.yul\":5848:5911   */\n      tag_453\n        /* \"#utility.yul\":5905:5909   */\n      0x40\n        /* \"#utility.yul\":5900:5903   */\n      dup6\n        /* \"#utility.yul\":5896:5910   */\n      add\n        /* \"#utility.yul\":5882:5894   */\n      dup3\n        /* \"#utility.yul\":5848:5911   */\n      tag_320\n      jump\t// in\n    tag_453:\n        /* \"#utility.yul\":5755:5921   */\n      pop\n        /* \"#utility.yul\":6004:6008   */\n      0x60\n        /* \"#utility.yul\":5997:6002   */\n      dup3\n        /* \"#utility.yul\":5993:6009   */\n      add\n        /* \"#utility.yul\":5987:6010   */\n      mload\n        /* \"#utility.yul\":6023:6086   */\n      tag_454\n        /* \"#utility.yul\":6080:6084   */\n      0x60\n        /* \"#utility.yul\":6075:6078   */\n      dup6\n        /* \"#utility.yul\":6071:6085   */\n      add\n        /* \"#utility.yul\":6057:6069   */\n      dup3\n        /* \"#utility.yul\":6023:6086   */\n      tag_320\n      jump\t// in\n    tag_454:\n        /* \"#utility.yul\":5931:6096   */\n      pop\n        /* \"#utility.yul\":6179:6183   */\n      0x80\n        /* \"#utility.yul\":6172:6177   */\n      dup3\n        /* \"#utility.yul\":6168:6184   */\n      add\n        /* \"#utility.yul\":6162:6185   */\n      mload\n        /* \"#utility.yul\":6198:6261   */\n      tag_455\n        /* \"#utility.yul\":6255:6259   */\n      0x80\n        /* \"#utility.yul\":6250:6253   */\n      dup6\n        /* \"#utility.yul\":6246:6260   */\n      add\n        /* \"#utility.yul\":6232:6244   */\n      dup3\n        /* \"#utility.yul\":6198:6261   */\n      tag_317\n      jump\t// in\n    tag_455:\n        /* \"#utility.yul\":6106:6271   */\n      pop\n        /* \"#utility.yul\":6355:6359   */\n      0xa0\n        /* \"#utility.yul\":6348:6353   */\n      dup3\n        /* \"#utility.yul\":6344:6360   */\n      add\n        /* \"#utility.yul\":6338:6361   */\n      mload\n        /* \"#utility.yul\":6374:6449   */\n      tag_456\n        /* \"#utility.yul\":6443:6447   */\n      0xa0\n        /* \"#utility.yul\":6438:6441   */\n      dup6\n        /* \"#utility.yul\":6434:6448   */\n      add\n        /* \"#utility.yul\":6420:6432   */\n      dup3\n        /* \"#utility.yul\":6374:6449   */\n      tag_332\n      jump\t// in\n    tag_456:\n        /* \"#utility.yul\":6281:6459   */\n      pop\n        /* \"#utility.yul\":5356:6466   */\n      pop\n        /* \"#utility.yul\":5236:6466   */\n      pop\n      pop\n      jump\t// out\n        /* \"#utility.yul\":6472:6803   */\n    tag_38:\n        /* \"#utility.yul\":6619:6623   */\n      0x00\n        /* \"#utility.yul\":6657:6660   */\n      0xc0\n        /* \"#utility.yul\":6646:6655   */\n      dup3\n        /* \"#utility.yul\":6642:6661   */\n      add\n        /* \"#utility.yul\":6634:6661   */\n      swap1\n      pop\n        /* \"#utility.yul\":6671:6796   */\n      tag_458\n        /* \"#utility.yul\":6793:6794   */\n      0x00\n        /* \"#utility.yul\":6782:6791   */\n      dup4\n        /* \"#utility.yul\":6778:6795   */\n      add\n        /* \"#utility.yul\":6769:6775   */\n      dup5\n        /* \"#utility.yul\":6671:6796   */\n      tag_333\n      jump\t// in\n    tag_458:\n        /* \"#utility.yul\":6472:6803   */\n      swap3\n      swap2\n      pop\n      pop\n      jump\t// out\n        /* \"#utility.yul\":6809:6931   */\n    tag_334:\n        /* \"#utility.yul\":6882:6906   */\n      tag_460\n        /* \"#utility.yul\":6900:6905   */\n      dup2\n        /* \"#utility.yul\":6882:6906   */\n      tag_319\n      jump\t// in\n    tag_460:\n        /* \"#utility.yul\":6875:6880   */\n      dup2\n        /* \"#utility.yul\":6872:6907   */\n      eq\n        /* \"#utility.yul\":6862:6925   */\n      tag_461\n      jumpi\n        /* \"#utility.yul\":6921:6922   */\n      0x00\n        /* \"#utility.yul\":6918:6919   */\n      dup1\n        /* \"#utility.yul\":6911:6923   */\n      revert\n        /* \"#utility.yul\":6862:6925   */\n    tag_461:\n        /* \"#utility.yul\":6809:6931   */\n      pop\n      jump\t// out\n        /* \"#utility.yul\":6937:7076   */\n    tag_335:\n        /* \"#utility.yul\":6983:6988   */\n      0x00\n        /* \"#utility.yul\":7021:7027   */\n      dup2\n        /* \"#utility.yul\":7008:7028   */\n      calldataload\n        /* \"#utility.yul\":6999:7028   */\n      swap1\n      pop\n        /* \"#utility.yul\":7037:7070   */\n      tag_463\n        /* \"#utility.yul\":7064:7069   */\n      dup2\n        /* \"#utility.yul\":7037:7070   */\n      tag_334\n      jump\t// in\n    tag_463:\n        /* \"#utility.yul\":6937:7076   */\n      swap3\n      swap2\n      pop\n      pop\n      jump\t// out\n        /* \"#utility.yul\":7082:7411   */\n    tag_44:\n        /* \"#utility.yul\":7141:7147   */\n      0x00\n        /* \"#utility.yul\":7190:7192   */\n      0x20\n        /* \"#utility.yul\":7178:7187   */\n      dup3\n        /* \"#utility.yul\":7169:7176   */\n      dup5\n        /* \"#utility.yul\":7165:7188   */\n      sub\n        /* \"#utility.yul\":7161:7193   */\n      slt\n        /* \"#utility.yul\":7158:7277   */\n      iszero\n      tag_465\n      jumpi\n        /* \"#utility.yul\":7196:7275   */\n      tag_466\n      tag_312\n      jump\t// in\n    tag_466:\n        /* \"#utility.yul\":7158:7277   */\n    tag_465:\n        /* \"#utility.yul\":7316:7317   */\n      0x00\n        /* \"#utility.yul\":7341:7394   */\n      tag_467\n        /* \"#utility.yul\":7386:7393   */\n      dup5\n        /* \"#utility.yul\":7377:7383   */\n      dup3\n        /* \"#utility.yul\":7366:7375   */\n      dup6\n        /* \"#utility.yul\":7362:7384   */\n      add\n        /* \"#utility.yul\":7341:7394   */\n      tag_335\n      jump\t// in\n    tag_467:\n        /* \"#utility.yul\":7331:7394   */\n      swap2\n      pop\n        /* \"#utility.yul\":7287:7404   */\n      pop\n        /* \"#utility.yul\":7082:7411   */\n      swap3\n      swap2\n      pop\n      pop\n      jump\t// out\n        /* \"#utility.yul\":7417:7566   */\n    tag_336:\n        /* \"#utility.yul\":7453:7460   */\n      0x00\n        /* \"#utility.yul\":7493:7559   */\n      0xffffffff00000000000000000000000000000000000000000000000000000000\n        /* \"#utility.yul\":7486:7491   */\n      dup3\n        /* \"#utility.yul\":7482:7560   */\n      and\n        /* \"#utility.yul\":7471:7560   */\n      swap1\n      pop\n        /* \"#utility.yul\":7417:7566   */\n      swap2\n      swap1\n      pop\n      jump\t// out\n        /* \"#utility.yul\":7572:7687   */\n    tag_337:\n        /* \"#utility.yul\":7657:7680   */\n      tag_470\n        /* \"#utility.yul\":7674:7679   */\n      dup2\n        /* \"#utility.yul\":7657:7680   */\n      tag_336\n      jump\t// in\n    tag_470:\n        /* \"#utility.yul\":7652:7655   */\n      dup3\n        /* \"#utility.yul\":7645:7681   */\n      mstore\n        /* \"#utility.yul\":7572:7687   */\n      pop\n      pop\n      jump\t// out\n        /* \"#utility.yul\":7693:7911   */\n    tag_56:\n        /* \"#utility.yul\":7784:7788   */\n      0x00\n        /* \"#utility.yul\":7822:7824   */\n      0x20\n        /* \"#utility.yul\":7811:7820   */\n      dup3\n        /* \"#utility.yul\":7807:7825   */\n      add\n        /* \"#utility.yul\":7799:7825   */\n      swap1\n      pop\n        /* \"#utility.yul\":7835:7904   */\n      tag_472\n        /* \"#utility.yul\":7901:7902   */\n      0x00\n        /* \"#utility.yul\":7890:7899   */\n      dup4\n        /* \"#utility.yul\":7886:7903   */\n      add\n        /* \"#utility.yul\":7877:7883   */\n      dup5\n        /* \"#utility.yul\":7835:7904   */\n      tag_337\n      jump\t// in\n    tag_472:\n        /* \"#utility.yul\":7693:7911   */\n      swap3\n      swap2\n      pop\n      pop\n      jump\t// out\n        /* \"#utility.yul\":7917:8391   */\n    tag_59:\n        /* \"#utility.yul\":7985:7991   */\n      0x00\n        /* \"#utility.yul\":7993:7999   */\n      dup1\n        /* \"#utility.yul\":8042:8044   */\n      0x40\n        /* \"#utility.yul\":8030:8039   */\n      dup4\n        /* \"#utility.yul\":8021:8028   */\n      dup6\n        /* \"#utility.yul\":8017:8040   */\n      sub\n        /* \"#utility.yul\":8013:8045   */\n      slt\n        /* \"#utility.yul\":8010:8129   */\n      iszero\n      tag_474\n      jumpi\n        /* \"#utility.yul\":8048:8127   */\n      tag_475\n      tag_312\n      jump\t// in\n    tag_475:\n        /* \"#utility.yul\":8010:8129   */\n    tag_474:\n        /* \"#utility.yul\":8168:8169   */\n      0x00\n        /* \"#utility.yul\":8193:8246   */\n      tag_476\n        /* \"#utility.yul\":8238:8245   */\n      dup6\n        /* \"#utility.yul\":8229:8235   */\n      dup3\n        /* \"#utility.yul\":8218:8227   */\n      dup7\n        /* \"#utility.yul\":8214:8236   */\n      add\n        /* \"#utility.yul\":8193:8246   */\n      tag_316\n      jump\t// in\n    tag_476:\n        /* \"#utility.yul\":8183:8246   */\n      swap3\n      pop\n        /* \"#utility.yul\":8139:8256   */\n      pop\n        /* \"#utility.yul\":8295:8297   */\n      0x20\n        /* \"#utility.yul\":8321:8374   */\n      tag_477\n        /* \"#utility.yul\":8366:8373   */\n      dup6\n        /* \"#utility.yul\":8357:8363   */\n      dup3\n        /* \"#utility.yul\":8346:8355   */\n      dup7\n        /* \"#utility.yul\":8342:8364   */\n      add\n        /* \"#utility.yul\":8321:8374   */\n      tag_316\n      jump\t// in\n    tag_477:\n        /* \"#utility.yul\":8311:8374   */\n      swap2\n      pop\n        /* \"#utility.yul\":8266:8384   */\n      pop\n        /* \"#utility.yul\":7917:8391   */\n      swap3\n      pop\n      swap3\n      swap1\n      pop\n      jump\t// out\n        /* \"#utility.yul\":8397:8457   */\n    tag_338:\n        /* \"#utility.yul\":8425:8428   */\n      0x00\n        /* \"#utility.yul\":8446:8451   */\n      dup2\n        /* \"#utility.yul\":8439:8451   */\n      swap1\n      pop\n        /* \"#utility.yul\":8397:8457   */\n      swap2\n      swap1\n      pop\n      jump\t// out\n        /* \"#utility.yul\":8463:8605   */\n    tag_339:\n        /* \"#utility.yul\":8513:8522   */\n      0x00\n        /* \"#utility.yul\":8546:8599   */\n      tag_480\n        /* \"#utility.yul\":8564:8598   */\n      tag_481\n        /* \"#utility.yul\":8573:8597   */\n      tag_482\n        /* \"#utility.yul\":8591:8596   */\n      dup5\n        /* \"#utility.yul\":8573:8597   */\n      tag_318\n      jump\t// in\n    tag_482:\n        /* \"#utility.yul\":8564:8598   */\n      tag_338\n      jump\t// in\n    tag_481:\n        /* \"#utility.yul\":8546:8599   */\n      tag_318\n      jump\t// in\n    tag_480:\n        /* \"#utility.yul\":8533:8599   */\n      swap1\n      pop\n        /* \"#utility.yul\":8463:8605   */\n      swap2\n      swap1\n      pop\n      jump\t// out\n        /* \"#utility.yul\":8611:8737   */\n    tag_340:\n        /* \"#utility.yul\":8661:8670   */\n      0x00\n        /* \"#utility.yul\":8694:8731   */\n      tag_484\n        /* \"#utility.yul\":8725:8730   */\n      dup3\n        /* \"#utility.yul\":8694:8731   */\n      tag_339\n      jump\t// in\n    tag_484:\n        /* \"#utility.yul\":8681:8731   */\n      swap1\n      pop\n        /* \"#utility.yul\":8611:8737   */\n      swap2\n      swap1\n      pop\n      jump\t// out\n        /* \"#utility.yul\":8743:8883   */\n    tag_341:\n        /* \"#utility.yul\":8807:8816   */\n      0x00\n        /* \"#utility.yul\":8840:8877   */\n      tag_486\n        /* \"#utility.yul\":8871:8876   */\n      dup3\n        /* \"#utility.yul\":8840:8877   */\n      tag_340\n      jump\t// in\n    tag_486:\n        /* \"#utility.yul\":8827:8877   */\n      swap1\n      pop\n        /* \"#utility.yul\":8743:8883   */\n      swap2\n      swap1\n      pop\n      jump\t// out\n        /* \"#utility.yul\":8889:9048   */\n    tag_342:\n        /* \"#utility.yul\":8990:9041   */\n      tag_488\n        /* \"#utility.yul\":9035:9040   */\n      dup2\n        /* \"#utility.yul\":8990:9041   */\n      tag_341\n      jump\t// in\n    tag_488:\n        /* \"#utility.yul\":8985:8988   */\n      dup3\n        /* \"#utility.yul\":8978:9042   */\n      mstore\n        /* \"#utility.yul\":8889:9048   */\n      pop\n      pop\n      jump\t// out\n        /* \"#utility.yul\":9054:9304   */\n    tag_64:\n        /* \"#utility.yul\":9161:9165   */\n      0x00\n        /* \"#utility.yul\":9199:9201   */\n      0x20\n        /* \"#utility.yul\":9188:9197   */\n      dup3\n        /* \"#utility.yul\":9184:9202   */\n      add\n        /* \"#utility.yul\":9176:9202   */\n      swap1\n      pop\n        /* \"#utility.yul\":9212:9297   */\n      tag_490\n        /* \"#utility.yul\":9294:9295   */\n      0x00\n        /* \"#utility.yul\":9283:9292   */\n      dup4\n        /* \"#utility.yul\":9279:9296   */\n      add\n        /* \"#utility.yul\":9270:9276   */\n      dup5\n        /* \"#utility.yul\":9212:9297   */\n      tag_342\n      jump\t// in\n    tag_490:\n        /* \"#utility.yul\":9054:9304   */\n      swap3\n      swap2\n      pop\n      pop\n      jump\t// out\n        /* \"#utility.yul\":9310:9428   */\n    tag_343:\n        /* \"#utility.yul\":9397:9421   */\n      tag_492\n        /* \"#utility.yul\":9415:9420   */\n      dup2\n        /* \"#utility.yul\":9397:9421   */\n      tag_314\n      jump\t// in\n    tag_492:\n        /* \"#utility.yul\":9392:9395   */\n      dup3\n        /* \"#utility.yul\":9385:9422   */\n      mstore\n        /* \"#utility.yul\":9310:9428   */\n      pop\n      pop\n      jump\t// out\n        /* \"#utility.yul\":9434:9552   */\n    tag_344:\n        /* \"#utility.yul\":9521:9545   */\n      tag_494\n        /* \"#utility.yul\":9539:9544   */\n      dup2\n        /* \"#utility.yul\":9521:9545   */\n      tag_319\n      jump\t// in\n    tag_494:\n        /* \"#utility.yul\":9516:9519   */\n      dup3\n        /* \"#utility.yul\":9509:9546   */\n      mstore\n        /* \"#utility.yul\":9434:9552   */\n      pop\n      pop\n      jump\t// out\n        /* \"#utility.yul\":9558:9713   */\n    tag_345:\n        /* \"#utility.yul\":9657:9706   */\n      tag_496\n        /* \"#utility.yul\":9700:9705   */\n      dup2\n        /* \"#utility.yul\":9657:9706   */\n      tag_331\n      jump\t// in\n    tag_496:\n        /* \"#utility.yul\":9652:9655   */\n      dup3\n        /* \"#utility.yul\":9645:9707   */\n      mstore\n        /* \"#utility.yul\":9558:9713   */\n      pop\n      pop\n      jump\t// out\n        /* \"#utility.yul\":9719:10518   */\n    tag_68:\n        /* \"#utility.yul\":9964:9968   */\n      0x00\n        /* \"#utility.yul\":10002:10005   */\n      0xc0\n        /* \"#utility.yul\":9991:10000   */\n      dup3\n        /* \"#utility.yul\":9987:10006   */\n      add\n        /* \"#utility.yul\":9979:10006   */\n      swap1\n      pop\n        /* \"#utility.yul\":10016:10087   */\n      tag_498\n        /* \"#utility.yul\":10084:10085   */\n      0x00\n        /* \"#utility.yul\":10073:10082   */\n      dup4\n        /* \"#utility.yul\":10069:10086   */\n      add\n        /* \"#utility.yul\":10060:10066   */\n      dup10\n        /* \"#utility.yul\":10016:10087   */\n      tag_343\n      jump\t// in\n    tag_498:\n        /* \"#utility.yul\":10097:10169   */\n      tag_499\n        /* \"#utility.yul\":10165:10167   */\n      0x20\n        /* \"#utility.yul\":10154:10163   */\n      dup4\n        /* \"#utility.yul\":10150:10168   */\n      add\n        /* \"#utility.yul\":10141:10147   */\n      dup9\n        /* \"#utility.yul\":10097:10169   */\n      tag_343\n      jump\t// in\n    tag_499:\n        /* \"#utility.yul\":10179:10251   */\n      tag_500\n        /* \"#utility.yul\":10247:10249   */\n      0x40\n        /* \"#utility.yul\":10236:10245   */\n      dup4\n        /* \"#utility.yul\":10232:10250   */\n      add\n        /* \"#utility.yul\":10223:10229   */\n      dup8\n        /* \"#utility.yul\":10179:10251   */\n      tag_344\n      jump\t// in\n    tag_500:\n        /* \"#utility.yul\":10261:10333   */\n      tag_501\n        /* \"#utility.yul\":10329:10331   */\n      0x60\n        /* \"#utility.yul\":10318:10327   */\n      dup4\n        /* \"#utility.yul\":10314:10332   */\n      add\n        /* \"#utility.yul\":10305:10311   */\n      dup7\n        /* \"#utility.yul\":10261:10333   */\n      tag_344\n      jump\t// in\n    tag_501:\n        /* \"#utility.yul\":10343:10416   */\n      tag_502\n        /* \"#utility.yul\":10411:10414   */\n      0x80\n        /* \"#utility.yul\":10400:10409   */\n      dup4\n        /* \"#utility.yul\":10396:10415   */\n      add\n        /* \"#utility.yul\":10387:10393   */\n      dup6\n        /* \"#utility.yul\":10343:10416   */\n      tag_343\n      jump\t// in\n    tag_502:\n        /* \"#utility.yul\":10426:10511   */\n      tag_503\n        /* \"#utility.yul\":10506:10509   */\n      0xa0\n        /* \"#utility.yul\":10495:10504   */\n      dup4\n        /* \"#utility.yul\":10491:10510   */\n      add\n        /* \"#utility.yul\":10482:10488   */\n      dup5\n        /* \"#utility.yul\":10426:10511   */\n      tag_345\n      jump\t// in\n    tag_503:\n        /* \"#utility.yul\":9719:10518   */\n      swap8\n      swap7\n      pop\n      pop\n      pop\n      pop\n      pop\n      pop\n      pop\n      jump\t// out\n        /* \"#utility.yul\":10524:10998   */\n    tag_74:\n        /* \"#utility.yul\":10592:10598   */\n      0x00\n        /* \"#utility.yul\":10600:10606   */\n      dup1\n        /* \"#utility.yul\":10649:10651   */\n      0x40\n        /* \"#utility.yul\":10637:10646   */\n      dup4\n        /* \"#utility.yul\":10628:10635   */\n      dup6\n        /* \"#utility.yul\":10624:10647   */\n      sub\n        /* \"#utility.yul\":10620:10652   */\n      slt\n        /* \"#utility.yul\":10617:10736   */\n      iszero\n      tag_505\n      jumpi\n        /* \"#utility.yul\":10655:10734   */\n      tag_506\n      tag_312\n      jump\t// in\n    tag_506:\n        /* \"#utility.yul\":10617:10736   */\n    tag_505:\n        /* \"#utility.yul\":10775:10776   */\n      0x00\n        /* \"#utility.yul\":10800:10853   */\n      tag_507\n        /* \"#utility.yul\":10845:10852   */\n      dup6\n        /* \"#utility.yul\":10836:10842   */\n      dup3\n        /* \"#utility.yul\":10825:10834   */\n      dup7\n        /* \"#utility.yul\":10821:10843   */\n      add\n        /* \"#utility.yul\":10800:10853   */\n      tag_335\n      jump\t// in\n    tag_507:\n        /* \"#utility.yul\":10790:10853   */\n      swap3\n      pop\n        /* \"#utility.yul\":10746:10863   */\n      pop\n        /* \"#utility.yul\":10902:10904   */\n      0x20\n        /* \"#utility.yul\":10928:10981   */\n      tag_508\n        /* \"#utility.yul\":10973:10980   */\n      dup6\n        /* \"#utility.yul\":10964:10970   */\n      dup3\n        /* \"#utility.yul\":10953:10962   */\n      dup7\n        /* \"#utility.yul\":10949:10971   */\n      add\n        /* \"#utility.yul\":10928:10981   */\n      tag_316\n      jump\t// in\n    tag_508:\n        /* \"#utility.yul\":10918:10981   */\n      swap2\n      pop\n        /* \"#utility.yul\":10873:10991   */\n      pop\n        /* \"#utility.yul\":10524:10998   */\n      swap3\n      pop\n      swap3\n      swap1\n      pop\n      jump\t// out\n        /* \"#utility.yul\":11004:11145   */\n    tag_346:\n        /* \"#utility.yul\":11098:11104   */\n      0x00\n        /* \"#utility.yul\":11132:11137   */\n      dup2\n        /* \"#utility.yul\":11126:11138   */\n      mload\n        /* \"#utility.yul\":11116:11138   */\n      swap1\n      pop\n        /* \"#utility.yul\":11004:11145   */\n      swap2\n      swap1\n      pop\n      jump\t// out\n        /* \"#utility.yul\":11151:11362   */\n    tag_347:\n        /* \"#utility.yul\":11277:11288   */\n      0x00\n        /* \"#utility.yul\":11311:11317   */\n      dup3\n        /* \"#utility.yul\":11306:11309   */\n      dup3\n        /* \"#utility.yul\":11299:11318   */\n      mstore\n        /* \"#utility.yul\":11351:11355   */\n      0x20\n        /* \"#utility.yul\":11346:11349   */\n      dup3\n        /* \"#utility.yul\":11342:11356   */\n      add\n        /* \"#utility.yul\":11327:11356   */\n      swap1\n      pop\n        /* \"#utility.yul\":11151:11362   */\n      swap3\n      swap2\n      pop\n      pop\n      jump\t// out\n        /* \"#utility.yul\":11368:11527   */\n    tag_348:\n        /* \"#utility.yul\":11462:11466   */\n      0x00\n        /* \"#utility.yul\":11485:11488   */\n      dup2\n        /* \"#utility.yul\":11477:11488   */\n      swap1\n      pop\n        /* \"#utility.yul\":11515:11519   */\n      0x20\n        /* \"#utility.yul\":11510:11513   */\n      dup3\n        /* \"#utility.yul\":11506:11520   */\n      add\n        /* \"#utility.yul\":11498:11520   */\n      swap1\n      pop\n        /* \"#utility.yul\":11368:11527   */\n      swap2\n      swap1\n      pop\n      jump\t// out\n        /* \"#utility.yul\":11617:12837   */\n    tag_349:\n        /* \"#utility.yul\":11758:11762   */\n      0xc0\n        /* \"#utility.yul\":11753:11756   */\n      dup3\n        /* \"#utility.yul\":11749:11763   */\n      add\n        /* \"#utility.yul\":11847:11851   */\n      0x00\n        /* \"#utility.yul\":11840:11845   */\n      dup3\n        /* \"#utility.yul\":11836:11852   */\n      add\n        /* \"#utility.yul\":11830:11853   */\n      mload\n        /* \"#utility.yul\":11866:11929   */\n      tag_513\n        /* \"#utility.yul\":11923:11927   */\n      0x00\n        /* \"#utility.yul\":11918:11921   */\n      dup6\n        /* \"#utility.yul\":11914:11928   */\n      add\n        /* \"#utility.yul\":11900:11912   */\n      dup3\n        /* \"#utility.yul\":11866:11929   */\n      tag_317\n      jump\t// in\n    tag_513:\n        /* \"#utility.yul\":11773:11939   */\n      pop\n        /* \"#utility.yul\":12024:12028   */\n      0x20\n        /* \"#utility.yul\":12017:12022   */\n      dup3\n        /* \"#utility.yul\":12013:12029   */\n      add\n        /* \"#utility.yul\":12007:12030   */\n      mload\n        /* \"#utility.yul\":12043:12106   */\n      tag_514\n        /* \"#utility.yul\":12100:12104   */\n      0x20\n        /* \"#utility.yul\":12095:12098   */\n      dup6\n        /* \"#utility.yul\":12091:12105   */\n      add\n        /* \"#utility.yul\":12077:12089   */\n      dup3\n        /* \"#utility.yul\":12043:12106   */\n      tag_317\n      jump\t// in\n    tag_514:\n        /* \"#utility.yul\":11949:12116   */\n      pop\n        /* \"#utility.yul\":12200:12204   */\n      0x40\n        /* \"#utility.yul\":12193:12198   */\n      dup3\n        /* \"#utility.yul\":12189:12205   */\n      add\n        /* \"#utility.yul\":12183:12206   */\n      mload\n        /* \"#utility.yul\":12219:12282   */\n      tag_515\n        /* \"#utility.yul\":12276:12280   */\n      0x40\n        /* \"#utility.yul\":12271:12274   */\n      dup6\n        /* \"#utility.yul\":12267:12281   */\n      add\n        /* \"#utility.yul\":12253:12265   */\n      dup3\n        /* \"#utility.yul\":12219:12282   */\n      tag_320\n      jump\t// in\n    tag_515:\n        /* \"#utility.yul\":12126:12292   */\n      pop\n        /* \"#utility.yul\":12375:12379   */\n      0x60\n        /* \"#utility.yul\":12368:12373   */\n      dup3\n        /* \"#utility.yul\":12364:12380   */\n      add\n        /* \"#utility.yul\":12358:12381   */\n      mload\n        /* \"#utility.yul\":12394:12457   */\n      tag_516\n        /* \"#utility.yul\":12451:12455   */\n      0x60\n        /* \"#utility.yul\":12446:12449   */\n      dup6\n        /* \"#utility.yul\":12442:12456   */\n      add\n        /* \"#utility.yul\":12428:12440   */\n      dup3\n        /* \"#utility.yul\":12394:12457   */\n      tag_320\n      jump\t// in\n    tag_516:\n        /* \"#utility.yul\":12302:12467   */\n      pop\n        /* \"#utility.yul\":12550:12554   */\n      0x80\n        /* \"#utility.yul\":12543:12548   */\n      dup3\n        /* \"#utility.yul\":12539:12555   */\n      add\n        /* \"#utility.yul\":12533:12556   */\n      mload\n        /* \"#utility.yul\":12569:12632   */\n      tag_517\n        /* \"#utility.yul\":12626:12630   */\n      0x80\n        /* \"#utility.yul\":12621:12624   */\n      dup6\n        /* \"#utility.yul\":12617:12631   */\n      add\n        /* \"#utility.yul\":12603:12615   */\n      dup3\n        /* \"#utility.yul\":12569:12632   */\n      tag_317\n      jump\t// in\n    tag_517:\n        /* \"#utility.yul\":12477:12642   */\n      pop\n        /* \"#utility.yul\":12726:12730   */\n      0xa0\n        /* \"#utility.yul\":12719:12724   */\n      dup3\n        /* \"#utility.yul\":12715:12731   */\n      add\n        /* \"#utility.yul\":12709:12732   */\n      mload\n        /* \"#utility.yul\":12745:12820   */\n      tag_518\n        /* \"#utility.yul\":12814:12818   */\n      0xa0\n        /* \"#utility.yul\":12809:12812   */\n      dup6\n        /* \"#utility.yul\":12805:12819   */\n      add\n        /* \"#utility.yul\":12791:12803   */\n      dup3\n        /* \"#utility.yul\":12745:12820   */\n      tag_332\n      jump\t// in\n    tag_518:\n        /* \"#utility.yul\":12652:12830   */\n      pop\n        /* \"#utility.yul\":11727:12837   */\n      pop\n        /* \"#utility.yul\":11617:12837   */\n      pop\n      pop\n      jump\t// out\n        /* \"#utility.yul\":12843:13130   */\n    tag_350:\n        /* \"#utility.yul\":12966:12976   */\n      0x00\n        /* \"#utility.yul\":12987:13087   */\n      tag_520\n        /* \"#utility.yul\":13083:13086   */\n      dup4\n        /* \"#utility.yul\":13075:13081   */\n      dup4\n        /* \"#utility.yul\":12987:13087   */\n      tag_349\n      jump\t// in\n    tag_520:\n        /* \"#utility.yul\":13119:13123   */\n      0xc0\n        /* \"#utility.yul\":13114:13117   */\n      dup4\n        /* \"#utility.yul\":13110:13124   */\n      add\n        /* \"#utility.yul\":13096:13124   */\n      swap1\n      pop\n        /* \"#utility.yul\":12843:13130   */\n      swap3\n      swap2\n      pop\n      pop\n      jump\t// out\n        /* \"#utility.yul\":13136:13276   */\n    tag_351:\n        /* \"#utility.yul\":13233:13237   */\n      0x00\n        /* \"#utility.yul\":13265:13269   */\n      0x20\n        /* \"#utility.yul\":13260:13263   */\n      dup3\n        /* \"#utility.yul\":13256:13270   */\n      add\n        /* \"#utility.yul\":13248:13270   */\n      swap1\n      pop\n        /* \"#utility.yul\":13136:13276   */\n      swap2\n      swap1\n      pop\n      jump\t// out\n        /* \"#utility.yul\":13370:14318   */\n    tag_352:\n        /* \"#utility.yul\":13543:13546   */\n      0x00\n        /* \"#utility.yul\":13572:13653   */\n      tag_523\n        /* \"#utility.yul\":13647:13652   */\n      dup3\n        /* \"#utility.yul\":13572:13653   */\n      tag_346\n      jump\t// in\n    tag_523:\n        /* \"#utility.yul\":13669:13782   */\n      tag_524\n        /* \"#utility.yul\":13775:13781   */\n      dup2\n        /* \"#utility.yul\":13770:13773   */\n      dup6\n        /* \"#utility.yul\":13669:13782   */\n      tag_347\n      jump\t// in\n    tag_524:\n        /* \"#utility.yul\":13662:13782   */\n      swap4\n      pop\n        /* \"#utility.yul\":13806:13889   */\n      tag_525\n        /* \"#utility.yul\":13883:13888   */\n      dup4\n        /* \"#utility.yul\":13806:13889   */\n      tag_348\n      jump\t// in\n    tag_525:\n        /* \"#utility.yul\":13912:13919   */\n      dup1\n        /* \"#utility.yul\":13943:13944   */\n      0x00\n        /* \"#utility.yul\":13928:14293   */\n    tag_526:\n        /* \"#utility.yul\":13953:13959   */\n      dup4\n        /* \"#utility.yul\":13950:13951   */\n      dup2\n        /* \"#utility.yul\":13947:13960   */\n      lt\n        /* \"#utility.yul\":13928:14293   */\n      iszero\n      tag_528\n      jumpi\n        /* \"#utility.yul\":14029:14035   */\n      dup2\n        /* \"#utility.yul\":14023:14036   */\n      mload\n        /* \"#utility.yul\":14056:14173   */\n      tag_529\n        /* \"#utility.yul\":14169:14172   */\n      dup9\n        /* \"#utility.yul\":14154:14167   */\n      dup3\n        /* \"#utility.yul\":14056:14173   */\n      tag_350\n      jump\t// in\n    tag_529:\n        /* \"#utility.yul\":14049:14173   */\n      swap8\n      pop\n        /* \"#utility.yul\":14196:14283   */\n      tag_530\n        /* \"#utility.yul\":14276:14282   */\n      dup4\n        /* \"#utility.yul\":14196:14283   */\n      tag_351\n      jump\t// in\n    tag_530:\n        /* \"#utility.yul\":14186:14283   */\n      swap3\n      pop\n        /* \"#utility.yul\":13988:14293   */\n      pop\n        /* \"#utility.yul\":13975:13976   */\n      0x01\n        /* \"#utility.yul\":13972:13973   */\n      dup2\n        /* \"#utility.yul\":13968:13977   */\n      add\n        /* \"#utility.yul\":13963:13977   */\n      swap1\n      pop\n        /* \"#utility.yul\":13928:14293   */\n      jump(tag_526)\n    tag_528:\n        /* \"#utility.yul\":13932:13946   */\n      pop\n        /* \"#utility.yul\":14309:14312   */\n      dup6\n        /* \"#utility.yul\":14302:14312   */\n      swap4\n      pop\n        /* \"#utility.yul\":13548:14318   */\n      pop\n      pop\n      pop\n        /* \"#utility.yul\":13370:14318   */\n      swap3\n      swap2\n      pop\n      pop\n      jump\t// out\n        /* \"#utility.yul\":14324:14805   */\n    tag_80:\n        /* \"#utility.yul\":14521:14525   */\n      0x00\n        /* \"#utility.yul\":14559:14561   */\n      0x20\n        /* \"#utility.yul\":14548:14557   */\n      dup3\n        /* \"#utility.yul\":14544:14562   */\n      add\n        /* \"#utility.yul\":14536:14562   */\n      swap1\n      pop\n        /* \"#utility.yul\":14608:14617   */\n      dup2\n        /* \"#utility.yul\":14602:14606   */\n      dup2\n        /* \"#utility.yul\":14598:14618   */\n      sub\n        /* \"#utility.yul\":14594:14595   */\n      0x00\n        /* \"#utility.yul\":14583:14592   */\n      dup4\n        /* \"#utility.yul\":14579:14596   */\n      add\n        /* \"#utility.yul\":14572:14619   */\n      mstore\n        /* \"#utility.yul\":14636:14798   */\n      tag_532\n        /* \"#utility.yul\":14793:14797   */\n      dup2\n        /* \"#utility.yul\":14784:14790   */\n      dup5\n        /* \"#utility.yul\":14636:14798   */\n      tag_352\n      jump\t// in\n    tag_532:\n        /* \"#utility.yul\":14628:14798   */\n      swap1\n      pop\n        /* \"#utility.yul\":14324:14805   */\n      swap3\n      swap2\n      pop\n      pop\n      jump\t// out\n        /* \"#utility.yul\":14811:14897   */\n    tag_353:\n        /* \"#utility.yul\":14846:14853   */\n      0x00\n        /* \"#utility.yul\":14886:14890   */\n      0xff\n        /* \"#utility.yul\":14879:14884   */\n      dup3\n        /* \"#utility.yul\":14875:14891   */\n      and\n        /* \"#utility.yul\":14864:14891   */\n      swap1\n      pop\n        /* \"#utility.yul\":14811:14897   */\n      swap2\n      swap1\n      pop\n      jump\t// out\n        /* \"#utility.yul\":14903:15015   */\n    tag_354:\n        /* \"#utility.yul\":14986:15008   */\n      tag_535\n        /* \"#utility.yul\":15002:15007   */\n      dup2\n        /* \"#utility.yul\":14986:15008   */\n      tag_353\n      jump\t// in\n    tag_535:\n        /* \"#utility.yul\":14981:14984   */\n      dup3\n        /* \"#utility.yul\":14974:15009   */\n      mstore\n        /* \"#utility.yul\":14903:15015   */\n      pop\n      pop\n      jump\t// out\n        /* \"#utility.yul\":15021:15235   */\n    tag_86:\n        /* \"#utility.yul\":15110:15114   */\n      0x00\n        /* \"#utility.yul\":15148:15150   */\n      0x20\n        /* \"#utility.yul\":15137:15146   */\n      dup3\n        /* \"#utility.yul\":15133:15151   */\n      add\n        /* \"#utility.yul\":15125:15151   */\n      swap1\n      pop\n        /* \"#utility.yul\":15161:15228   */\n      tag_537\n        /* \"#utility.yul\":15225:15226   */\n      0x00\n        /* \"#utility.yul\":15214:15223   */\n      dup4\n        /* \"#utility.yul\":15210:15227   */\n      add\n        /* \"#utility.yul\":15201:15207   */\n      dup5\n        /* \"#utility.yul\":15161:15228   */\n      tag_354\n      jump\t// in\n    tag_537:\n        /* \"#utility.yul\":15021:15235   */\n      swap3\n      swap2\n      pop\n      pop\n      jump\t// out\n        /* \"#utility.yul\":15241:15463   */\n    tag_90:\n        /* \"#utility.yul\":15334:15338   */\n      0x00\n        /* \"#utility.yul\":15372:15374   */\n      0x20\n        /* \"#utility.yul\":15361:15370   */\n      dup3\n        /* \"#utility.yul\":15357:15375   */\n      add\n        /* \"#utility.yul\":15349:15375   */\n      swap1\n      pop\n        /* \"#utility.yul\":15385:15456   */\n      tag_539\n        /* \"#utility.yul\":15453:15454   */\n      0x00\n        /* \"#utility.yul\":15442:15451   */\n      dup4\n        /* \"#utility.yul\":15438:15455   */\n      add\n        /* \"#utility.yul\":15429:15435   */\n      dup5\n        /* \"#utility.yul\":15385:15456   */\n      tag_344\n      jump\t// in\n    tag_539:\n        /* \"#utility.yul\":15241:15463   */\n      swap3\n      swap2\n      pop\n      pop\n      jump\t// out\n        /* \"#utility.yul\":15469:15611   */\n    tag_355:\n        /* \"#utility.yul\":15535:15544   */\n      0x00\n        /* \"#utility.yul\":15568:15605   */\n      tag_541\n        /* \"#utility.yul\":15599:15604   */\n      dup3\n        /* \"#utility.yul\":15568:15605   */\n      tag_340\n      jump\t// in\n    tag_541:\n        /* \"#utility.yul\":15555:15605   */\n      swap1\n      pop\n        /* \"#utility.yul\":15469:15611   */\n      swap2\n      swap1\n      pop\n      jump\t// out\n        /* \"#utility.yul\":15617:15780   */\n    tag_356:\n        /* \"#utility.yul\":15720:15773   */\n      tag_543\n        /* \"#utility.yul\":15767:15772   */\n      dup2\n        /* \"#utility.yul\":15720:15773   */\n      tag_355\n      jump\t// in\n    tag_543:\n        /* \"#utility.yul\":15715:15718   */\n      dup3\n        /* \"#utility.yul\":15708:15774   */\n      mstore\n        /* \"#utility.yul\":15617:15780   */\n      pop\n      pop\n      jump\t// out\n        /* \"#utility.yul\":15786:16040   */\n    tag_100:\n        /* \"#utility.yul\":15895:15899   */\n      0x00\n        /* \"#utility.yul\":15933:15935   */\n      0x20\n        /* \"#utility.yul\":15922:15931   */\n      dup3\n        /* \"#utility.yul\":15918:15936   */\n      add\n        /* \"#utility.yul\":15910:15936   */\n      swap1\n      pop\n        /* \"#utility.yul\":15946:16033   */\n      tag_545\n        /* \"#utility.yul\":16030:16031   */\n      0x00\n        /* \"#utility.yul\":16019:16028   */\n      dup4\n        /* \"#utility.yul\":16015:16032   */\n      add\n        /* \"#utility.yul\":16006:16012   */\n      dup5\n        /* \"#utility.yul\":15946:16033   */\n      tag_356\n      jump\t// in\n    tag_545:\n        /* \"#utility.yul\":15786:16040   */\n      swap3\n      swap2\n      pop\n      pop\n      jump\t// out\n        /* \"#utility.yul\":16046:16187   */\n    tag_357:\n        /* \"#utility.yul\":16111:16120   */\n      0x00\n        /* \"#utility.yul\":16144:16181   */\n      tag_547\n        /* \"#utility.yul\":16175:16180   */\n      dup3\n        /* \"#utility.yul\":16144:16181   */\n      tag_340\n      jump\t// in\n    tag_547:\n        /* \"#utility.yul\":16131:16181   */\n      swap1\n      pop\n        /* \"#utility.yul\":16046:16187   */\n      swap2\n      swap1\n      pop\n      jump\t// out\n        /* \"#utility.yul\":16193:16354   */\n    tag_358:\n        /* \"#utility.yul\":16295:16347   */\n      tag_549\n        /* \"#utility.yul\":16341:16346   */\n      dup2\n        /* \"#utility.yul\":16295:16347   */\n      tag_357\n      jump\t// in\n    tag_549:\n        /* \"#utility.yul\":16290:16293   */\n      dup3\n        /* \"#utility.yul\":16283:16348   */\n      mstore\n        /* \"#utility.yul\":16193:16354   */\n      pop\n      pop\n      jump\t// out\n        /* \"#utility.yul\":16360:16612   */\n    tag_111:\n        /* \"#utility.yul\":16468:16472   */\n      0x00\n        /* \"#utility.yul\":16506:16508   */\n      0x20\n        /* \"#utility.yul\":16495:16504   */\n      dup3\n        /* \"#utility.yul\":16491:16509   */\n      add\n        /* \"#utility.yul\":16483:16509   */\n      swap1\n      pop\n        /* \"#utility.yul\":16519:16605   */\n      tag_551\n        /* \"#utility.yul\":16602:16603   */\n      0x00\n        /* \"#utility.yul\":16591:16600   */\n      dup4\n        /* \"#utility.yul\":16587:16604   */\n      add\n        /* \"#utility.yul\":16578:16584   */\n      dup5\n        /* \"#utility.yul\":16519:16605   */\n      tag_358\n      jump\t// in\n    tag_551:\n        /* \"#utility.yul\":16360:16612   */\n      swap3\n      swap2\n      pop\n      pop\n      jump\t// out\n        /* \"#utility.yul\":16618:16787   */\n    tag_359:\n        /* \"#utility.yul\":16702:16713   */\n      0x00\n        /* \"#utility.yul\":16736:16742   */\n      dup3\n        /* \"#utility.yul\":16731:16734   */\n      dup3\n        /* \"#utility.yul\":16724:16743   */\n      mstore\n        /* \"#utility.yul\":16776:16780   */\n      0x20\n        /* \"#utility.yul\":16771:16774   */\n      dup3\n        /* \"#utility.yul\":16767:16781   */\n      add\n        /* \"#utility.yul\":16752:16781   */\n      swap1\n      pop\n        /* \"#utility.yul\":16618:16787   */\n      swap3\n      swap2\n      pop\n      pop\n      jump\t// out\n        /* \"#utility.yul\":16793:16962   */\n    tag_360:\n        /* \"#utility.yul\":16933:16954   */\n      0x4173736574206e6f74207075626c697368656400000000000000000000000000\n        /* \"#utility.yul\":16929:16930   */\n      0x00\n        /* \"#utility.yul\":16921:16927   */\n      dup3\n        /* \"#utility.yul\":16917:16931   */\n      add\n        /* \"#utility.yul\":16910:16955   */\n      mstore\n        /* \"#utility.yul\":16793:16962   */\n      pop\n      jump\t// out\n        /* \"#utility.yul\":16968:17334   */\n    tag_361:\n        /* \"#utility.yul\":17110:17113   */\n      0x00\n        /* \"#utility.yul\":17131:17198   */\n      tag_555\n        /* \"#utility.yul\":17195:17197   */\n      0x13\n        /* \"#utility.yul\":17190:17193   */\n      dup4\n        /* \"#utility.yul\":17131:17198   */\n      tag_359\n      jump\t// in\n    tag_555:\n        /* \"#utility.yul\":17124:17198   */\n      swap2\n      pop\n        /* \"#utility.yul\":17207:17300   */\n      tag_556\n        /* \"#utility.yul\":17296:17299   */\n      dup3\n        /* \"#utility.yul\":17207:17300   */\n      tag_360\n      jump\t// in\n    tag_556:\n        /* \"#utility.yul\":17325:17327   */\n      0x20\n        /* \"#utility.yul\":17320:17323   */\n      dup3\n        /* \"#utility.yul\":17316:17328   */\n      add\n        /* \"#utility.yul\":17309:17328   */\n      swap1\n      pop\n        /* \"#utility.yul\":16968:17334   */\n      swap2\n      swap1\n      pop\n      jump\t// out\n        /* \"#utility.yul\":17340:17759   */\n    tag_134:\n        /* \"#utility.yul\":17506:17510   */\n      0x00\n        /* \"#utility.yul\":17544:17546   */\n      0x20\n        /* \"#utility.yul\":17533:17542   */\n      dup3\n        /* \"#utility.yul\":17529:17547   */\n      add\n        /* \"#utility.yul\":17521:17547   */\n      swap1\n      pop\n        /* \"#utility.yul\":17593:17602   */\n      dup2\n        /* \"#utility.yul\":17587:17591   */\n      dup2\n        /* \"#utility.yul\":17583:17603   */\n      sub\n        /* \"#utility.yul\":17579:17580   */\n      0x00\n        /* \"#utility.yul\":17568:17577   */\n      dup4\n        /* \"#utility.yul\":17564:17581   */\n      add\n        /* \"#utility.yul\":17557:17604   */\n      mstore\n        /* \"#utility.yul\":17621:17752   */\n      tag_558\n        /* \"#utility.yul\":17747:17751   */\n      dup2\n        /* \"#utility.yul\":17621:17752   */\n      tag_361\n      jump\t// in\n    tag_558:\n        /* \"#utility.yul\":17613:17752   */\n      swap1\n      pop\n        /* \"#utility.yul\":17340:17759   */\n      swap2\n      swap1\n      pop\n      jump\t// out\n        /* \"#utility.yul\":17765:17929   */\n    tag_362:\n        /* \"#utility.yul\":17905:17921   */\n      0x41737365742064656c6973746564000000000000000000000000000000000000\n        /* \"#utility.yul\":17901:17902   */\n      0x00\n        /* \"#utility.yul\":17893:17899   */\n      dup3\n        /* \"#utility.yul\":17889:17903   */\n      add\n        /* \"#utility.yul\":17882:17922   */\n      mstore\n        /* \"#utility.yul\":17765:17929   */\n      pop\n      jump\t// out\n        /* \"#utility.yul\":17935:18301   */\n    tag_363:\n        /* \"#utility.yul\":18077:18080   */\n      0x00\n        /* \"#utility.yul\":18098:18165   */\n      tag_561\n        /* \"#utility.yul\":18162:18164   */\n      0x0e\n        /* \"#utility.yul\":18157:18160   */\n      dup4\n        /* \"#utility.yul\":18098:18165   */\n      tag_359\n      jump\t// in\n    tag_561:\n        /* \"#utility.yul\":18091:18165   */\n      swap2\n      pop\n        /* \"#utility.yul\":18174:18267   */\n      tag_562\n        /* \"#utility.yul\":18263:18266   */\n      dup3\n        /* \"#utility.yul\":18174:18267   */\n      tag_362\n      jump\t// in\n    tag_562:\n        /* \"#utility.yul\":18292:18294   */\n      0x20\n        /* \"#utility.yul\":18287:18290   */\n      dup3\n        /* \"#utility.yul\":18283:18295   */\n      add\n        /* \"#utility.yul\":18276:18295   */\n      swap1\n      pop\n        /* \"#utility.yul\":17935:18301   */\n      swap2\n      swap1\n      pop\n      jump\t// out\n        /* \"#utility.yul\":18307:18726   */\n    tag_141:\n        /* \"#utility.yul\":18473:18477   */\n      0x00\n        /* \"#utility.yul\":18511:18513   */\n      0x20\n        /* \"#utility.yul\":18500:18509   */\n      dup3\n        /* \"#utility.yul\":18496:18514   */\n      add\n        /* \"#utility.yul\":18488:18514   */\n      swap1\n      pop\n        /* \"#utility.yul\":18560:18569   */\n      dup2\n        /* \"#utility.yul\":18554:18558   */\n      dup2\n        /* \"#utility.yul\":18550:18570   */\n      sub\n        /* \"#utility.yul\":18546:18547   */\n      0x00\n        /* \"#utility.yul\":18535:18544   */\n      dup4\n        /* \"#utility.yul\":18531:18548   */\n      add\n        /* \"#utility.yul\":18524:18571   */\n      mstore\n        /* \"#utility.yul\":18588:18719   */\n      tag_564\n        /* \"#utility.yul\":18714:18718   */\n      dup2\n        /* \"#utility.yul\":18588:18719   */\n      tag_363\n      jump\t// in\n    tag_564:\n        /* \"#utility.yul\":18580:18719   */\n      swap1\n      pop\n        /* \"#utility.yul\":18307:18726   */\n      swap2\n      swap1\n      pop\n      jump\t// out\n        /* \"#utility.yul\":18732:18897   */\n    tag_364:\n        /* \"#utility.yul\":18872:18889   */\n      0x496e76616c696420616464726573730000000000000000000000000000000000\n        /* \"#utility.yul\":18868:18869   */\n      0x00\n        /* \"#utility.yul\":18860:18866   */\n      dup3\n        /* \"#utility.yul\":18856:18870   */\n      add\n        /* \"#utility.yul\":18849:18890   */\n      mstore\n        /* \"#utility.yul\":18732:18897   */\n      pop\n      jump\t// out\n        /* \"#utility.yul\":18903:19269   */\n    tag_365:\n        /* \"#utility.yul\":19045:19048   */\n      0x00\n        /* \"#utility.yul\":19066:19133   */\n      tag_567\n        /* \"#utility.yul\":19130:19132   */\n      0x0f\n        /* \"#utility.yul\":19125:19128   */\n      dup4\n        /* \"#utility.yul\":19066:19133   */\n      tag_359\n      jump\t// in\n    tag_567:\n        /* \"#utility.yul\":19059:19133   */\n      swap2\n      pop\n        /* \"#utility.yul\":19142:19235   */\n      tag_568\n        /* \"#utility.yul\":19231:19234   */\n      dup3\n        /* \"#utility.yul\":19142:19235   */\n      tag_364\n      jump\t// in\n    tag_568:\n        /* \"#utility.yul\":19260:19262   */\n      0x20\n        /* \"#utility.yul\":19255:19258   */\n      dup3\n        /* \"#utility.yul\":19251:19263   */\n      add\n        /* \"#utility.yul\":19244:19263   */\n      swap1\n      pop\n        /* \"#utility.yul\":18903:19269   */\n      swap2\n      swap1\n      pop\n      jump\t// out\n        /* \"#utility.yul\":19275:19694   */\n    tag_144:\n        /* \"#utility.yul\":19441:19445   */\n      0x00\n        /* \"#utility.yul\":19479:19481   */\n      0x20\n        /* \"#utility.yul\":19468:19477   */\n      dup3\n        /* \"#utility.yul\":19464:19482   */\n      add\n        /* \"#utility.yul\":19456:19482   */\n      swap1\n      pop\n        /* \"#utility.yul\":19528:19537   */\n      dup2\n        /* \"#utility.yul\":19522:19526   */\n      dup2\n        /* \"#utility.yul\":19518:19538   */\n      sub\n        /* \"#utility.yul\":19514:19515   */\n      0x00\n        /* \"#utility.yul\":19503:19512   */\n      dup4\n        /* \"#utility.yul\":19499:19516   */\n      add\n        /* \"#utility.yul\":19492:19539   */\n      mstore\n        /* \"#utility.yul\":19556:19687   */\n      tag_570\n        /* \"#utility.yul\":19682:19686   */\n      dup2\n        /* \"#utility.yul\":19556:19687   */\n      tag_365\n      jump\t// in\n    tag_570:\n        /* \"#utility.yul\":19548:19687   */\n      swap1\n      pop\n        /* \"#utility.yul\":19275:19694   */\n      swap2\n      swap1\n      pop\n      jump\t// out\n        /* \"#utility.yul\":19700:19872   */\n    tag_366:\n        /* \"#utility.yul\":19840:19864   */\n      0x4f6e6c792073656c6c65722063616e2064656c69737400000000000000000000\n        /* \"#utility.yul\":19836:19837   */\n      0x00\n        /* \"#utility.yul\":19828:19834   */\n      dup3\n        /* \"#utility.yul\":19824:19838   */\n      add\n        /* \"#utility.yul\":19817:19865   */\n      mstore\n        /* \"#utility.yul\":19700:19872   */\n      pop\n      jump\t// out\n        /* \"#utility.yul\":19878:20244   */\n    tag_367:\n        /* \"#utility.yul\":20020:20023   */\n      0x00\n        /* \"#utility.yul\":20041:20108   */\n      tag_573\n        /* \"#utility.yul\":20105:20107   */\n      0x16\n        /* \"#utility.yul\":20100:20103   */\n      dup4\n        /* \"#utility.yul\":20041:20108   */\n      tag_359\n      jump\t// in\n    tag_573:\n        /* \"#utility.yul\":20034:20108   */\n      swap2\n      pop\n        /* \"#utility.yul\":20117:20210   */\n      tag_574\n        /* \"#utility.yul\":20206:20209   */\n      dup3\n        /* \"#utility.yul\":20117:20210   */\n      tag_366\n      jump\t// in\n    tag_574:\n        /* \"#utility.yul\":20235:20237   */\n      0x20\n        /* \"#utility.yul\":20230:20233   */\n      dup3\n        /* \"#utility.yul\":20226:20238   */\n      add\n        /* \"#utility.yul\":20219:20238   */\n      swap1\n      pop\n        /* \"#utility.yul\":19878:20244   */\n      swap2\n      swap1\n      pop\n      jump\t// out\n        /* \"#utility.yul\":20250:20669   */\n    tag_147:\n        /* \"#utility.yul\":20416:20420   */\n      0x00\n        /* \"#utility.yul\":20454:20456   */\n      0x20\n        /* \"#utility.yul\":20443:20452   */\n      dup3\n        /* \"#utility.yul\":20439:20457   */\n      add\n        /* \"#utility.yul\":20431:20457   */\n      swap1\n      pop\n        /* \"#utility.yul\":20503:20512   */\n      dup2\n        /* \"#utility.yul\":20497:20501   */\n      dup2\n        /* \"#utility.yul\":20493:20513   */\n      sub\n        /* \"#utility.yul\":20489:20490   */\n      0x00\n        /* \"#utility.yul\":20478:20487   */\n      dup4\n        /* \"#utility.yul\":20474:20491   */\n      add\n        /* \"#utility.yul\":20467:20514   */\n      mstore\n        /* \"#utility.yul\":20531:20662   */\n      tag_576\n        /* \"#utility.yul\":20657:20661   */\n      dup2\n        /* \"#utility.yul\":20531:20662   */\n      tag_367\n      jump\t// in\n    tag_576:\n        /* \"#utility.yul\":20523:20662   */\n      swap1\n      pop\n        /* \"#utility.yul\":20250:20669   */\n      swap2\n      swap1\n      pop\n      jump\t// out\n        /* \"#utility.yul\":20675:21117   */\n    tag_149:\n        /* \"#utility.yul\":20824:20828   */\n      0x00\n        /* \"#utility.yul\":20862:20864   */\n      0x60\n        /* \"#utility.yul\":20851:20860   */\n      dup3\n        /* \"#utility.yul\":20847:20865   */\n      add\n        /* \"#utility.yul\":20839:20865   */\n      swap1\n      pop\n        /* \"#utility.yul\":20875:20946   */\n      tag_578\n        /* \"#utility.yul\":20943:20944   */\n      0x00\n        /* \"#utility.yul\":20932:20941   */\n      dup4\n        /* \"#utility.yul\":20928:20945   */\n      add\n        /* \"#utility.yul\":20919:20925   */\n      dup7\n        /* \"#utility.yul\":20875:20946   */\n      tag_344\n      jump\t// in\n    tag_578:\n        /* \"#utility.yul\":20956:21028   */\n      tag_579\n        /* \"#utility.yul\":21024:21026   */\n      0x20\n        /* \"#utility.yul\":21013:21022   */\n      dup4\n        /* \"#utility.yul\":21009:21027   */\n      add\n        /* \"#utility.yul\":21000:21006   */\n      dup6\n        /* \"#utility.yul\":20956:21028   */\n      tag_344\n      jump\t// in\n    tag_579:\n        /* \"#utility.yul\":21038:21110   */\n      tag_580\n        /* \"#utility.yul\":21106:21108   */\n      0x40\n        /* \"#utility.yul\":21095:21104   */\n      dup4\n        /* \"#utility.yul\":21091:21109   */\n      add\n        /* \"#utility.yul\":21082:21088   */\n      dup5\n        /* \"#utility.yul\":21038:21110   */\n      tag_343\n      jump\t// in\n    tag_580:\n        /* \"#utility.yul\":20675:21117   */\n      swap5\n      swap4\n      pop\n      pop\n      pop\n      pop\n      jump\t// out\n        /* \"#utility.yul\":21123:21455   */\n    tag_158:\n        /* \"#utility.yul\":21244:21248   */\n      0x00\n        /* \"#utility.yul\":21282:21284   */\n      0x40\n        /* \"#utility.yul\":21271:21280   */\n      dup3\n        /* \"#utility.yul\":21267:21285   */\n      add\n        /* \"#utility.yul\":21259:21285   */\n      swap1\n      pop\n        /* \"#utility.yul\":21295:21366   */\n      tag_582\n        /* \"#utility.yul\":21363:21364   */\n      0x00\n        /* \"#utility.yul\":21352:21361   */\n      dup4\n        /* \"#utility.yul\":21348:21365   */\n      add\n        /* \"#utility.yul\":21339:21345   */\n      dup6\n        /* \"#utility.yul\":21295:21366   */\n      tag_343\n      jump\t// in\n    tag_582:\n        /* \"#utility.yul\":21376:21448   */\n      tag_583\n        /* \"#utility.yul\":21444:21446   */\n      0x20\n        /* \"#utility.yul\":21433:21442   */\n      dup4\n        /* \"#utility.yul\":21429:21447   */\n      add\n        /* \"#utility.yul\":21420:21426   */\n      dup5\n        /* \"#utility.yul\":21376:21448   */\n      tag_343\n      jump\t// in\n    tag_583:\n        /* \"#utility.yul\":21123:21455   */\n      swap4\n      swap3\n      pop\n      pop\n      pop\n      jump\t// out\n        /* \"#utility.yul\":21461:21643   */\n    tag_368:\n        /* \"#utility.yul\":21601:21635   */\n      0x4f776e61626c653a2063616c6c6572206973206e6f7420746865206f776e6572\n        /* \"#utility.yul\":21597:21598   */\n      0x00\n        /* \"#utility.yul\":21589:21595   */\n      dup3\n        /* \"#utility.yul\":21585:21599   */\n      add\n        /* \"#utility.yul\":21578:21636   */\n      mstore\n        /* \"#utility.yul\":21461:21643   */\n      pop\n      jump\t// out\n        /* \"#utility.yul\":21649:22015   */\n    tag_369:\n        /* \"#utility.yul\":21791:21794   */\n      0x00\n        /* \"#utility.yul\":21812:21879   */\n      tag_586\n        /* \"#utility.yul\":21876:21878   */\n      0x20\n        /* \"#utility.yul\":21871:21874   */\n      dup4\n        /* \"#utility.yul\":21812:21879   */\n      tag_359\n      jump\t// in\n    tag_586:\n        /* \"#utility.yul\":21805:21879   */\n      swap2\n      pop\n        /* \"#utility.yul\":21888:21981   */\n      tag_587\n        /* \"#utility.yul\":21977:21980   */\n      dup3\n        /* \"#utility.yul\":21888:21981   */\n      tag_368\n      jump\t// in\n    tag_587:\n        /* \"#utility.yul\":22006:22008   */\n      0x20\n        /* \"#utility.yul\":22001:22004   */\n      dup3\n        /* \"#utility.yul\":21997:22009   */\n      add\n        /* \"#utility.yul\":21990:22009   */\n      swap1\n      pop\n        /* \"#utility.yul\":21649:22015   */\n      swap2\n      swap1\n      pop\n      jump\t// out\n        /* \"#utility.yul\":22021:22440   */\n    tag_165:\n        /* \"#utility.yul\":22187:22191   */\n      0x00\n        /* \"#utility.yul\":22225:22227   */\n      0x20\n        /* \"#utility.yul\":22214:22223   */\n      dup3\n        /* \"#utility.yul\":22210:22228   */\n      add\n        /* \"#utility.yul\":22202:22228   */\n      swap1\n      pop\n        /* \"#utility.yul\":22274:22283   */\n      dup2\n        /* \"#utility.yul\":22268:22272   */\n      dup2\n        /* \"#utility.yul\":22264:22284   */\n      sub\n        /* \"#utility.yul\":22260:22261   */\n      0x00\n        /* \"#utility.yul\":22249:22258   */\n      dup4\n        /* \"#utility.yul\":22245:22262   */\n      add\n        /* \"#utility.yul\":22238:22285   */\n      mstore\n        /* \"#utility.yul\":22302:22433   */\n      tag_589\n        /* \"#utility.yul\":22428:22432   */\n      dup2\n        /* \"#utility.yul\":22302:22433   */\n      tag_369\n      jump\t// in\n    tag_589:\n        /* \"#utility.yul\":22294:22433   */\n      swap1\n      pop\n        /* \"#utility.yul\":22021:22440   */\n      swap2\n      swap1\n      pop\n      jump\t// out\n        /* \"#utility.yul\":22446:22624   */\n    tag_370:\n        /* \"#utility.yul\":22586:22616   */\n      0x5072696365206d757374206265206174206c6561737420312077656900000000\n        /* \"#utility.yul\":22582:22583   */\n      0x00\n        /* \"#utility.yul\":22574:22580   */\n      dup3\n        /* \"#utility.yul\":22570:22584   */\n      add\n        /* \"#utility.yul\":22563:22617   */\n      mstore\n        /* \"#utility.yul\":22446:22624   */\n      pop\n      jump\t// out\n        /* \"#utility.yul\":22630:22996   */\n    tag_371:\n        /* \"#utility.yul\":22772:22775   */\n      0x00\n        /* \"#utility.yul\":22793:22860   */\n      tag_592\n        /* \"#utility.yul\":22857:22859   */\n      0x1c\n        /* \"#utility.yul\":22852:22855   */\n      dup4\n        /* \"#utility.yul\":22793:22860   */\n      tag_359\n      jump\t// in\n    tag_592:\n        /* \"#utility.yul\":22786:22860   */\n      swap2\n      pop\n        /* \"#utility.yul\":22869:22962   */\n      tag_593\n        /* \"#utility.yul\":22958:22961   */\n      dup3\n        /* \"#utility.yul\":22869:22962   */\n      tag_370\n      jump\t// in\n    tag_593:\n        /* \"#utility.yul\":22987:22989   */\n      0x20\n        /* \"#utility.yul\":22982:22985   */\n      dup3\n        /* \"#utility.yul\":22978:22990   */\n      add\n        /* \"#utility.yul\":22971:22990   */\n      swap1\n      pop\n        /* \"#utility.yul\":22630:22996   */\n      swap2\n      swap1\n      pop\n      jump\t// out\n        /* \"#utility.yul\":23002:23421   */\n    tag_182:\n        /* \"#utility.yul\":23168:23172   */\n      0x00\n        /* \"#utility.yul\":23206:23208   */\n      0x20\n        /* \"#utility.yul\":23195:23204   */\n      dup3\n        /* \"#utility.yul\":23191:23209   */\n      add\n        /* \"#utility.yul\":23183:23209   */\n      swap1\n      pop\n        /* \"#utility.yul\":23255:23264   */\n      dup2\n        /* \"#utility.yul\":23249:23253   */\n      dup2\n        /* \"#utility.yul\":23245:23265   */\n      sub\n        /* \"#utility.yul\":23241:23242   */\n      0x00\n        /* \"#utility.yul\":23230:23239   */\n      dup4\n        /* \"#utility.yul\":23226:23243   */\n      add\n        /* \"#utility.yul\":23219:23266   */\n      mstore\n        /* \"#utility.yul\":23283:23414   */\n      tag_595\n        /* \"#utility.yul\":23409:23413   */\n      dup2\n        /* \"#utility.yul\":23283:23414   */\n      tag_371\n      jump\t// in\n    tag_595:\n        /* \"#utility.yul\":23275:23414   */\n      swap1\n      pop\n        /* \"#utility.yul\":23002:23421   */\n      swap2\n      swap1\n      pop\n      jump\t// out\n        /* \"#utility.yul\":23427:23649   */\n    tag_184:\n        /* \"#utility.yul\":23520:23524   */\n      0x00\n        /* \"#utility.yul\":23558:23560   */\n      0x20\n        /* \"#utility.yul\":23547:23556   */\n      dup3\n        /* \"#utility.yul\":23543:23561   */\n      add\n        /* \"#utility.yul\":23535:23561   */\n      swap1\n      pop\n        /* \"#utility.yul\":23571:23642   */\n      tag_597\n        /* \"#utility.yul\":23639:23640   */\n      0x00\n        /* \"#utility.yul\":23628:23637   */\n      dup4\n        /* \"#utility.yul\":23624:23641   */\n      add\n        /* \"#utility.yul\":23615:23621   */\n      dup5\n        /* \"#utility.yul\":23571:23642   */\n      tag_343\n      jump\t// in\n    tag_597:\n        /* \"#utility.yul\":23427:23649   */\n      swap3\n      swap2\n      pop\n      pop\n      jump\t// out\n        /* \"#utility.yul\":23655:23772   */\n    tag_372:\n        /* \"#utility.yul\":23764:23765   */\n      0x00\n        /* \"#utility.yul\":23761:23762   */\n      dup1\n        /* \"#utility.yul\":23754:23766   */\n      revert\n        /* \"#utility.yul\":23778:23958   */\n    tag_221:\n        /* \"#utility.yul\":23826:23903   */\n      0x4e487b7100000000000000000000000000000000000000000000000000000000\n        /* \"#utility.yul\":23823:23824   */\n      0x00\n        /* \"#utility.yul\":23816:23904   */\n      mstore\n        /* \"#utility.yul\":23923:23927   */\n      0x41\n        /* \"#utility.yul\":23920:23921   */\n      0x04\n        /* \"#utility.yul\":23913:23928   */\n      mstore\n        /* \"#utility.yul\":23947:23951   */\n      0x24\n        /* \"#utility.yul\":23944:23945   */\n      0x00\n        /* \"#utility.yul\":23937:23952   */\n      revert\n        /* \"#utility.yul\":23964:24245   */\n    tag_373:\n        /* \"#utility.yul\":24047:24074   */\n      tag_601\n        /* \"#utility.yul\":24069:24073   */\n      dup3\n        /* \"#utility.yul\":24047:24074   */\n      tag_324\n      jump\t// in\n    tag_601:\n        /* \"#utility.yul\":24039:24045   */\n      dup2\n        /* \"#utility.yul\":24035:24075   */\n      add\n        /* \"#utility.yul\":24177:24183   */\n      dup2\n        /* \"#utility.yul\":24165:24175   */\n      dup2\n        /* \"#utility.yul\":24162:24184   */\n      lt\n        /* \"#utility.yul\":24141:24159   */\n      0xffffffffffffffff\n        /* \"#utility.yul\":24129:24139   */\n      dup3\n        /* \"#utility.yul\":24126:24160   */\n      gt\n        /* \"#utility.yul\":24123:24185   */\n      or\n        /* \"#utility.yul\":24120:24208   */\n      iszero\n      tag_602\n      jumpi\n        /* \"#utility.yul\":24188:24206   */\n      tag_603\n      tag_221\n      jump\t// in\n    tag_603:\n        /* \"#utility.yul\":24120:24208   */\n    tag_602:\n        /* \"#utility.yul\":24228:24238   */\n      dup1\n        /* \"#utility.yul\":24224:24226   */\n      0x40\n        /* \"#utility.yul\":24217:24239   */\n      mstore\n        /* \"#utility.yul\":24007:24245   */\n      pop\n        /* \"#utility.yul\":23964:24245   */\n      pop\n      pop\n      jump\t// out\n        /* \"#utility.yul\":24251:24380   */\n    tag_374:\n        /* \"#utility.yul\":24285:24291   */\n      0x00\n        /* \"#utility.yul\":24312:24332   */\n      tag_605\n      tag_311\n      jump\t// in\n    tag_605:\n        /* \"#utility.yul\":24302:24332   */\n      swap1\n      pop\n        /* \"#utility.yul\":24341:24374   */\n      tag_606\n        /* \"#utility.yul\":24369:24373   */\n      dup3\n        /* \"#utility.yul\":24361:24367   */\n      dup3\n        /* \"#utility.yul\":24341:24374   */\n      tag_373\n      jump\t// in\n    tag_606:\n        /* \"#utility.yul\":24251:24380   */\n      swap2\n      swap1\n      pop\n      jump\t// out\n        /* \"#utility.yul\":24386:24503   */\n    tag_375:\n        /* \"#utility.yul\":24495:24496   */\n      0x00\n        /* \"#utility.yul\":24492:24493   */\n      dup1\n        /* \"#utility.yul\":24485:24497   */\n      revert\n        /* \"#utility.yul\":24509:24652   */\n    tag_376:\n        /* \"#utility.yul\":24566:24571   */\n      0x00\n        /* \"#utility.yul\":24597:24603   */\n      dup2\n        /* \"#utility.yul\":24591:24604   */\n      mload\n        /* \"#utility.yul\":24582:24604   */\n      swap1\n      pop\n        /* \"#utility.yul\":24613:24646   */\n      tag_609\n        /* \"#utility.yul\":24640:24645   */\n      dup2\n        /* \"#utility.yul\":24613:24646   */\n      tag_315\n      jump\t// in\n    tag_609:\n        /* \"#utility.yul\":24509:24652   */\n      swap3\n      swap2\n      pop\n      pop\n      jump\t// out\n        /* \"#utility.yul\":24658:24801   */\n    tag_377:\n        /* \"#utility.yul\":24715:24720   */\n      0x00\n        /* \"#utility.yul\":24746:24752   */\n      dup2\n        /* \"#utility.yul\":24740:24753   */\n      mload\n        /* \"#utility.yul\":24731:24753   */\n      swap1\n      pop\n        /* \"#utility.yul\":24762:24795   */\n      tag_611\n        /* \"#utility.yul\":24789:24794   */\n      dup2\n        /* \"#utility.yul\":24762:24795   */\n      tag_334\n      jump\t// in\n    tag_611:\n        /* \"#utility.yul\":24658:24801   */\n      swap3\n      swap2\n      pop\n      pop\n      jump\t// out\n        /* \"#utility.yul\":24807:24924   */\n    tag_378:\n        /* \"#utility.yul\":24916:24917   */\n      0x00\n        /* \"#utility.yul\":24913:24914   */\n      dup1\n        /* \"#utility.yul\":24906:24918   */\n      revert\n        /* \"#utility.yul\":24930:25047   */\n    tag_379:\n        /* \"#utility.yul\":25039:25040   */\n      0x00\n        /* \"#utility.yul\":25036:25037   */\n      dup1\n        /* \"#utility.yul\":25029:25041   */\n      revert\n        /* \"#utility.yul\":25053:25361   */\n    tag_380:\n        /* \"#utility.yul\":25115:25119   */\n      0x00\n        /* \"#utility.yul\":25205:25223   */\n      0xffffffffffffffff\n        /* \"#utility.yul\":25197:25203   */\n      dup3\n        /* \"#utility.yul\":25194:25224   */\n      gt\n        /* \"#utility.yul\":25191:25247   */\n      iszero\n      tag_615\n      jumpi\n        /* \"#utility.yul\":25227:25245   */\n      tag_616\n      tag_221\n      jump\t// in\n    tag_616:\n        /* \"#utility.yul\":25191:25247   */\n    tag_615:\n        /* \"#utility.yul\":25265:25294   */\n      tag_617\n        /* \"#utility.yul\":25287:25293   */\n      dup3\n        /* \"#utility.yul\":25265:25294   */\n      tag_324\n      jump\t// in\n    tag_617:\n        /* \"#utility.yul\":25257:25294   */\n      swap1\n      pop\n        /* \"#utility.yul\":25349:25353   */\n      0x20\n        /* \"#utility.yul\":25343:25347   */\n      dup2\n        /* \"#utility.yul\":25339:25354   */\n      add\n        /* \"#utility.yul\":25331:25354   */\n      swap1\n      pop\n        /* \"#utility.yul\":25053:25361   */\n      swap2\n      swap1\n      pop\n      jump\t// out\n        /* \"#utility.yul\":25367:25788   */\n    tag_381:\n        /* \"#utility.yul\":25456:25461   */\n      0x00\n        /* \"#utility.yul\":25481:25547   */\n      tag_619\n        /* \"#utility.yul\":25497:25546   */\n      tag_620\n        /* \"#utility.yul\":25539:25545   */\n      dup5\n        /* \"#utility.yul\":25497:25546   */\n      tag_380\n      jump\t// in\n    tag_620:\n        /* \"#utility.yul\":25481:25547   */\n      tag_374\n      jump\t// in\n    tag_619:\n        /* \"#utility.yul\":25472:25547   */\n      swap1\n      pop\n        /* \"#utility.yul\":25570:25576   */\n      dup3\n        /* \"#utility.yul\":25563:25568   */\n      dup2\n        /* \"#utility.yul\":25556:25577   */\n      mstore\n        /* \"#utility.yul\":25608:25612   */\n      0x20\n        /* \"#utility.yul\":25601:25606   */\n      dup2\n        /* \"#utility.yul\":25597:25613   */\n      add\n        /* \"#utility.yul\":25646:25649   */\n      dup5\n        /* \"#utility.yul\":25637:25643   */\n      dup5\n        /* \"#utility.yul\":25632:25635   */\n      dup5\n        /* \"#utility.yul\":25628:25644   */\n      add\n        /* \"#utility.yul\":25625:25650   */\n      gt\n        /* \"#utility.yul\":25622:25734   */\n      iszero\n      tag_621\n      jumpi\n        /* \"#utility.yul\":25653:25732   */\n      tag_622\n      tag_379\n      jump\t// in\n    tag_622:\n        /* \"#utility.yul\":25622:25734   */\n    tag_621:\n        /* \"#utility.yul\":25743:25782   */\n      tag_623\n        /* \"#utility.yul\":25775:25781   */\n      dup5\n        /* \"#utility.yul\":25770:25773   */\n      dup3\n        /* \"#utility.yul\":25765:25768   */\n      dup6\n        /* \"#utility.yul\":25743:25782   */\n      tag_323\n      jump\t// in\n    tag_623:\n        /* \"#utility.yul\":25462:25788   */\n      pop\n        /* \"#utility.yul\":25367:25788   */\n      swap4\n      swap3\n      pop\n      pop\n      pop\n      jump\t// out\n        /* \"#utility.yul\":25808:26163   */\n    tag_382:\n        /* \"#utility.yul\":25875:25880   */\n      0x00\n        /* \"#utility.yul\":25924:25927   */\n      dup3\n        /* \"#utility.yul\":25917:25921   */\n      0x1f\n        /* \"#utility.yul\":25909:25915   */\n      dup4\n        /* \"#utility.yul\":25905:25922   */\n      add\n        /* \"#utility.yul\":25901:25928   */\n      slt\n        /* \"#utility.yul\":25891:26013   */\n      tag_625\n      jumpi\n        /* \"#utility.yul\":25932:26011   */\n      tag_626\n      tag_378\n      jump\t// in\n    tag_626:\n        /* \"#utility.yul\":25891:26013   */\n    tag_625:\n        /* \"#utility.yul\":26042:26048   */\n      dup2\n        /* \"#utility.yul\":26036:26049   */\n      mload\n        /* \"#utility.yul\":26067:26157   */\n      tag_627\n        /* \"#utility.yul\":26153:26156   */\n      dup5\n        /* \"#utility.yul\":26145:26151   */\n      dup3\n        /* \"#utility.yul\":26138:26142   */\n      0x20\n        /* \"#utility.yul\":26130:26136   */\n      dup7\n        /* \"#utility.yul\":26126:26143   */\n      add\n        /* \"#utility.yul\":26067:26157   */\n      tag_381\n      jump\t// in\n    tag_627:\n        /* \"#utility.yul\":26058:26157   */\n      swap2\n      pop\n        /* \"#utility.yul\":25881:26163   */\n      pop\n        /* \"#utility.yul\":25808:26163   */\n      swap3\n      swap2\n      pop\n      pop\n      jump\t// out\n        /* \"#utility.yul\":26169:26285   */\n    tag_383:\n        /* \"#utility.yul\":26239:26260   */\n      tag_629\n        /* \"#utility.yul\":26254:26259   */\n      dup2\n        /* \"#utility.yul\":26239:26260   */\n      tag_326\n      jump\t// in\n    tag_629:\n        /* \"#utility.yul\":26232:26237   */\n      dup2\n        /* \"#utility.yul\":26229:26261   */\n      eq\n        /* \"#utility.yul\":26219:26279   */\n      tag_630\n      jumpi\n        /* \"#utility.yul\":26275:26276   */\n      0x00\n        /* \"#utility.yul\":26272:26273   */\n      dup1\n        /* \"#utility.yul\":26265:26277   */\n      revert\n        /* \"#utility.yul\":26219:26279   */\n    tag_630:\n        /* \"#utility.yul\":26169:26285   */\n      pop\n      jump\t// out\n        /* \"#utility.yul\":26291:26428   */\n    tag_384:\n        /* \"#utility.yul\":26345:26350   */\n      0x00\n        /* \"#utility.yul\":26376:26382   */\n      dup2\n        /* \"#utility.yul\":26370:26383   */\n      mload\n        /* \"#utility.yul\":26361:26383   */\n      swap1\n      pop\n        /* \"#utility.yul\":26392:26422   */\n      tag_632\n        /* \"#utility.yul\":26416:26421   */\n      dup2\n        /* \"#utility.yul\":26392:26422   */\n      tag_383\n      jump\t// in\n    tag_632:\n        /* \"#utility.yul\":26291:26428   */\n      swap3\n      swap2\n      pop\n      pop\n      jump\t// out\n        /* \"#utility.yul\":26469:27928   */\n    tag_385:\n        /* \"#utility.yul\":26557:26562   */\n      0x00\n        /* \"#utility.yul\":26601:26605   */\n      0xa0\n        /* \"#utility.yul\":26589:26598   */\n      dup3\n        /* \"#utility.yul\":26584:26587   */\n      dup5\n        /* \"#utility.yul\":26580:26599   */\n      sub\n        /* \"#utility.yul\":26576:26606   */\n      slt\n        /* \"#utility.yul\":26573:26690   */\n      iszero\n      tag_634\n      jumpi\n        /* \"#utility.yul\":26609:26688   */\n      tag_635\n      tag_372\n      jump\t// in\n    tag_635:\n        /* \"#utility.yul\":26573:26690   */\n    tag_634:\n        /* \"#utility.yul\":26708:26729   */\n      tag_636\n        /* \"#utility.yul\":26724:26728   */\n      0xa0\n        /* \"#utility.yul\":26708:26729   */\n      tag_374\n      jump\t// in\n    tag_636:\n        /* \"#utility.yul\":26699:26729   */\n      swap1\n      pop\n        /* \"#utility.yul\":26786:26787   */\n      0x00\n        /* \"#utility.yul\":26826:26886   */\n      tag_637\n        /* \"#utility.yul\":26882:26885   */\n      dup5\n        /* \"#utility.yul\":26873:26879   */\n      dup3\n        /* \"#utility.yul\":26862:26871   */\n      dup6\n        /* \"#utility.yul\":26858:26880   */\n      add\n        /* \"#utility.yul\":26826:26886   */\n      tag_376\n      jump\t// in\n    tag_637:\n        /* \"#utility.yul\":26819:26823   */\n      0x00\n        /* \"#utility.yul\":26812:26817   */\n      dup4\n        /* \"#utility.yul\":26808:26824   */\n      add\n        /* \"#utility.yul\":26801:26887   */\n      mstore\n        /* \"#utility.yul\":26739:26898   */\n      pop\n        /* \"#utility.yul\":26958:26960   */\n      0x20\n        /* \"#utility.yul\":26999:27059   */\n      tag_638\n        /* \"#utility.yul\":27055:27058   */\n      dup5\n        /* \"#utility.yul\":27046:27052   */\n      dup3\n        /* \"#utility.yul\":27035:27044   */\n      dup6\n        /* \"#utility.yul\":27031:27053   */\n      add\n        /* \"#utility.yul\":26999:27059   */\n      tag_377\n      jump\t// in\n    tag_638:\n        /* \"#utility.yul\":26992:26996   */\n      0x20\n        /* \"#utility.yul\":26985:26990   */\n      dup4\n        /* \"#utility.yul\":26981:26997   */\n      add\n        /* \"#utility.yul\":26974:27060   */\n      mstore\n        /* \"#utility.yul\":26908:27071   */\n      pop\n        /* \"#utility.yul\":27153:27155   */\n      0x40\n        /* \"#utility.yul\":27142:27151   */\n      dup3\n        /* \"#utility.yul\":27138:27156   */\n      add\n        /* \"#utility.yul\":27132:27157   */\n      mload\n        /* \"#utility.yul\":27184:27202   */\n      0xffffffffffffffff\n        /* \"#utility.yul\":27176:27182   */\n      dup2\n        /* \"#utility.yul\":27173:27203   */\n      gt\n        /* \"#utility.yul\":27170:27287   */\n      iszero\n      tag_639\n      jumpi\n        /* \"#utility.yul\":27206:27285   */\n      tag_640\n      tag_375\n      jump\t// in\n    tag_640:\n        /* \"#utility.yul\":27170:27287   */\n    tag_639:\n        /* \"#utility.yul\":27326:27396   */\n      tag_641\n        /* \"#utility.yul\":27392:27395   */\n      dup5\n        /* \"#utility.yul\":27383:27389   */\n      dup3\n        /* \"#utility.yul\":27372:27381   */\n      dup6\n        /* \"#utility.yul\":27368:27390   */\n      add\n        /* \"#utility.yul\":27326:27396   */\n      tag_382\n      jump\t// in\n    tag_641:\n        /* \"#utility.yul\":27319:27323   */\n      0x40\n        /* \"#utility.yul\":27312:27317   */\n      dup4\n        /* \"#utility.yul\":27308:27324   */\n      add\n        /* \"#utility.yul\":27301:27397   */\n      mstore\n        /* \"#utility.yul\":27081:27408   */\n      pop\n        /* \"#utility.yul\":27494:27496   */\n      0x60\n        /* \"#utility.yul\":27483:27492   */\n      dup3\n        /* \"#utility.yul\":27479:27497   */\n      add\n        /* \"#utility.yul\":27473:27498   */\n      mload\n        /* \"#utility.yul\":27525:27543   */\n      0xffffffffffffffff\n        /* \"#utility.yul\":27517:27523   */\n      dup2\n        /* \"#utility.yul\":27514:27544   */\n      gt\n        /* \"#utility.yul\":27511:27628   */\n      iszero\n      tag_642\n      jumpi\n        /* \"#utility.yul\":27547:27626   */\n      tag_643\n      tag_375\n      jump\t// in\n    tag_643:\n        /* \"#utility.yul\":27511:27628   */\n    tag_642:\n        /* \"#utility.yul\":27667:27737   */\n      tag_644\n        /* \"#utility.yul\":27733:27736   */\n      dup5\n        /* \"#utility.yul\":27724:27730   */\n      dup3\n        /* \"#utility.yul\":27713:27722   */\n      dup6\n        /* \"#utility.yul\":27709:27731   */\n      add\n        /* \"#utility.yul\":27667:27737   */\n      tag_382\n      jump\t// in\n    tag_644:\n        /* \"#utility.yul\":27660:27664   */\n      0x60\n        /* \"#utility.yul\":27653:27658   */\n      dup4\n        /* \"#utility.yul\":27649:27665   */\n      add\n        /* \"#utility.yul\":27642:27738   */\n      mstore\n        /* \"#utility.yul\":27418:27749   */\n      pop\n        /* \"#utility.yul\":27810:27813   */\n      0x80\n        /* \"#utility.yul\":27852:27909   */\n      tag_645\n        /* \"#utility.yul\":27905:27908   */\n      dup5\n        /* \"#utility.yul\":27896:27902   */\n      dup3\n        /* \"#utility.yul\":27885:27894   */\n      dup6\n        /* \"#utility.yul\":27881:27903   */\n      add\n        /* \"#utility.yul\":27852:27909   */\n      tag_384\n      jump\t// in\n    tag_645:\n        /* \"#utility.yul\":27845:27849   */\n      0x80\n        /* \"#utility.yul\":27838:27843   */\n      dup4\n        /* \"#utility.yul\":27834:27850   */\n      add\n        /* \"#utility.yul\":27827:27910   */\n      mstore\n        /* \"#utility.yul\":27759:27921   */\n      pop\n        /* \"#utility.yul\":26469:27928   */\n      swap3\n      swap2\n      pop\n      pop\n      jump\t// out\n        /* \"#utility.yul\":27934:28494   */\n    tag_188:\n        /* \"#utility.yul\":28032:28038   */\n      0x00\n        /* \"#utility.yul\":28081:28083   */\n      0x20\n        /* \"#utility.yul\":28069:28078   */\n      dup3\n        /* \"#utility.yul\":28060:28067   */\n      dup5\n        /* \"#utility.yul\":28056:28079   */\n      sub\n        /* \"#utility.yul\":28052:28084   */\n      slt\n        /* \"#utility.yul\":28049:28168   */\n      iszero\n      tag_647\n      jumpi\n        /* \"#utility.yul\":28087:28166   */\n      tag_648\n      tag_312\n      jump\t// in\n    tag_648:\n        /* \"#utility.yul\":28049:28168   */\n    tag_647:\n        /* \"#utility.yul\":28228:28229   */\n      0x00\n        /* \"#utility.yul\":28217:28226   */\n      dup3\n        /* \"#utility.yul\":28213:28230   */\n      add\n        /* \"#utility.yul\":28207:28231   */\n      mload\n        /* \"#utility.yul\":28258:28276   */\n      0xffffffffffffffff\n        /* \"#utility.yul\":28250:28256   */\n      dup2\n        /* \"#utility.yul\":28247:28277   */\n      gt\n        /* \"#utility.yul\":28244:28361   */\n      iszero\n      tag_649\n      jumpi\n        /* \"#utility.yul\":28280:28359   */\n      tag_650\n      tag_313\n      jump\t// in\n    tag_650:\n        /* \"#utility.yul\":28244:28361   */\n    tag_649:\n        /* \"#utility.yul\":28385:28477   */\n      tag_651\n        /* \"#utility.yul\":28469:28476   */\n      dup5\n        /* \"#utility.yul\":28460:28466   */\n      dup3\n        /* \"#utility.yul\":28449:28458   */\n      dup6\n        /* \"#utility.yul\":28445:28467   */\n      add\n        /* \"#utility.yul\":28385:28477   */\n      tag_385\n      jump\t// in\n    tag_651:\n        /* \"#utility.yul\":28375:28477   */\n      swap2\n      pop\n        /* \"#utility.yul\":28178:28487   */\n      pop\n        /* \"#utility.yul\":27934:28494   */\n      swap3\n      swap2\n      pop\n      pop\n      jump\t// out\n        /* \"#utility.yul\":28500:28677   */\n    tag_386:\n        /* \"#utility.yul\":28640:28669   */\n      0x4974656d206973206e6f7420617661696c61626c65206e6f7720210000000000\n        /* \"#utility.yul\":28636:28637   */\n      0x00\n        /* \"#utility.yul\":28628:28634   */\n      dup3\n        /* \"#utility.yul\":28624:28638   */\n      add\n        /* \"#utility.yul\":28617:28670   */\n      mstore\n        /* \"#utility.yul\":28500:28677   */\n      pop\n      jump\t// out\n        /* \"#utility.yul\":28683:29049   */\n    tag_387:\n        /* \"#utility.yul\":28825:28828   */\n      0x00\n        /* \"#utility.yul\":28846:28913   */\n      tag_654\n        /* \"#utility.yul\":28910:28912   */\n      0x1b\n        /* \"#utility.yul\":28905:28908   */\n      dup4\n        /* \"#utility.yul\":28846:28913   */\n      tag_359\n      jump\t// in\n    tag_654:\n        /* \"#utility.yul\":28839:28913   */\n      swap2\n      pop\n        /* \"#utility.yul\":28922:29015   */\n      tag_655\n        /* \"#utility.yul\":29011:29014   */\n      dup3\n        /* \"#utility.yul\":28922:29015   */\n      tag_386\n      jump\t// in\n    tag_655:\n        /* \"#utility.yul\":29040:29042   */\n      0x20\n        /* \"#utility.yul\":29035:29038   */\n      dup3\n        /* \"#utility.yul\":29031:29043   */\n      add\n        /* \"#utility.yul\":29024:29043   */\n      swap1\n      pop\n        /* \"#utility.yul\":28683:29049   */\n      swap2\n      swap1\n      pop\n      jump\t// out\n        /* \"#utility.yul\":29055:29474   */\n    tag_191:\n        /* \"#utility.yul\":29221:29225   */\n      0x00\n        /* \"#utility.yul\":29259:29261   */\n      0x20\n        /* \"#utility.yul\":29248:29257   */\n      dup3\n        /* \"#utility.yul\":29244:29262   */\n      add\n        /* \"#utility.yul\":29236:29262   */\n      swap1\n      pop\n        /* \"#utility.yul\":29308:29317   */\n      dup2\n        /* \"#utility.yul\":29302:29306   */\n      dup2\n        /* \"#utility.yul\":29298:29318   */\n      sub\n        /* \"#utility.yul\":29294:29295   */\n      0x00\n        /* \"#utility.yul\":29283:29292   */\n      dup4\n        /* \"#utility.yul\":29279:29296   */\n      add\n        /* \"#utility.yul\":29272:29319   */\n      mstore\n        /* \"#utility.yul\":29336:29467   */\n      tag_657\n        /* \"#utility.yul\":29462:29466   */\n      dup2\n        /* \"#utility.yul\":29336:29467   */\n      tag_387\n      jump\t// in\n    tag_657:\n        /* \"#utility.yul\":29328:29467   */\n      swap1\n      pop\n        /* \"#utility.yul\":29055:29474   */\n      swap2\n      swap1\n      pop\n      jump\t// out\n        /* \"#utility.yul\":29480:29660   */\n    tag_388:\n        /* \"#utility.yul\":29528:29605   */\n      0x4e487b7100000000000000000000000000000000000000000000000000000000\n        /* \"#utility.yul\":29525:29526   */\n      0x00\n        /* \"#utility.yul\":29518:29606   */\n      mstore\n        /* \"#utility.yul\":29625:29629   */\n      0x11\n        /* \"#utility.yul\":29622:29623   */\n      0x04\n        /* \"#utility.yul\":29615:29630   */\n      mstore\n        /* \"#utility.yul\":29649:29653   */\n      0x24\n        /* \"#utility.yul\":29646:29647   */\n      0x00\n        /* \"#utility.yul\":29639:29654   */\n      revert\n        /* \"#utility.yul\":29666:29971   */\n    tag_216:\n        /* \"#utility.yul\":29706:29709   */\n      0x00\n        /* \"#utility.yul\":29725:29745   */\n      tag_660\n        /* \"#utility.yul\":29743:29744   */\n      dup3\n        /* \"#utility.yul\":29725:29745   */\n      tag_314\n      jump\t// in\n    tag_660:\n        /* \"#utility.yul\":29720:29745   */\n      swap2\n      pop\n        /* \"#utility.yul\":29759:29779   */\n      tag_661\n        /* \"#utility.yul\":29777:29778   */\n      dup4\n        /* \"#utility.yul\":29759:29779   */\n      tag_314\n      jump\t// in\n    tag_661:\n        /* \"#utility.yul\":29754:29779   */\n      swap3\n      pop\n        /* \"#utility.yul\":29913:29914   */\n      dup3\n        /* \"#utility.yul\":29845:29911   */\n      0xffffffffffffffffffffffffffffffffffffffffffffffffffffffffffffffff\n        /* \"#utility.yul\":29841:29915   */\n      sub\n        /* \"#utility.yul\":29838:29839   */\n      dup3\n        /* \"#utility.yul\":29835:29916   */\n      gt\n        /* \"#utility.yul\":29832:29939   */\n      iszero\n      tag_662\n      jumpi\n        /* \"#utility.yul\":29919:29937   */\n      tag_663\n      tag_388\n      jump\t// in\n    tag_663:\n        /* \"#utility.yul\":29832:29939   */\n    tag_662:\n        /* \"#utility.yul\":29963:29964   */\n      dup3\n        /* \"#utility.yul\":29960:29961   */\n      dup3\n        /* \"#utility.yul\":29956:29965   */\n      add\n        /* \"#utility.yul\":29949:29965   */\n      swap1\n      pop\n        /* \"#utility.yul\":29666:29971   */\n      swap3\n      swap2\n      pop\n      pop\n      jump\t// out\n        /* \"#utility.yul\":29977:30210   */\n    tag_218:\n        /* \"#utility.yul\":30016:30019   */\n      0x00\n        /* \"#utility.yul\":30039:30063   */\n      tag_665\n        /* \"#utility.yul\":30057:30062   */\n      dup3\n        /* \"#utility.yul\":30039:30063   */\n      tag_314\n      jump\t// in\n    tag_665:\n        /* \"#utility.yul\":30030:30063   */\n      swap2\n      pop\n        /* \"#utility.yul\":30085:30151   */\n      0xffffffffffffffffffffffffffffffffffffffffffffffffffffffffffffffff\n        /* \"#utility.yul\":30078:30083   */\n      dup3\n        /* \"#utility.yul\":30075:30152   */\n      sub\n        /* \"#utility.yul\":30072:30175   */\n      tag_666\n      jumpi\n        /* \"#utility.yul\":30155:30173   */\n      tag_667\n      tag_388\n      jump\t// in\n    tag_667:\n        /* \"#utility.yul\":30072:30175   */\n    tag_666:\n        /* \"#utility.yul\":30202:30203   */\n      0x01\n        /* \"#utility.yul\":30195:30200   */\n      dup3\n        /* \"#utility.yul\":30191:30204   */\n      add\n        /* \"#utility.yul\":30184:30204   */\n      swap1\n      pop\n        /* \"#utility.yul\":29977:30210   */\n      swap2\n      swap1\n      pop\n      jump\t// out\n        /* \"#utility.yul\":30216:30396   */\n    tag_237:\n        /* \"#utility.yul\":30264:30341   */\n      0x4e487b7100000000000000000000000000000000000000000000000000000000\n        /* \"#utility.yul\":30261:30262   */\n      0x00\n        /* \"#utility.yul\":30254:30342   */\n      mstore\n        /* \"#utility.yul\":30361:30365   */\n      0x32\n        /* \"#utility.yul\":30358:30359   */\n      0x04\n        /* \"#utility.yul\":30351:30366   */\n      mstore\n        /* \"#utility.yul\":30385:30389   */\n      0x24\n        /* \"#utility.yul\":30382:30383   */\n      0x00\n        /* \"#utility.yul\":30375:30390   */\n      revert\n        /* \"#utility.yul\":30402:30653   */\n    tag_389:\n        /* \"#utility.yul\":30542:30576   */\n      0x506c65617365207375626d6974207468652061736b696e672070726963652069\n        /* \"#utility.yul\":30538:30539   */\n      0x00\n        /* \"#utility.yul\":30530:30536   */\n      dup3\n        /* \"#utility.yul\":30526:30540   */\n      add\n        /* \"#utility.yul\":30519:30577   */\n      mstore\n        /* \"#utility.yul\":30611:30645   */\n      0x6e206f7264657220746f20636f6d706c65746520746865207075726368617365\n        /* \"#utility.yul\":30606:30608   */\n      0x20\n        /* \"#utility.yul\":30598:30604   */\n      dup3\n        /* \"#utility.yul\":30594:30609   */\n      add\n        /* \"#utility.yul\":30587:30646   */\n      mstore\n        /* \"#utility.yul\":30402:30653   */\n      pop\n      jump\t// out\n        /* \"#utility.yul\":30659:31025   */\n    tag_390:\n        /* \"#utility.yul\":30801:30804   */\n      0x00\n        /* \"#utility.yul\":30822:30889   */\n      tag_671\n        /* \"#utility.yul\":30886:30888   */\n      0x40\n        /* \"#utility.yul\":30881:30884   */\n      dup4\n        /* \"#utility.yul\":30822:30889   */\n      tag_359\n      jump\t// in\n    tag_671:\n        /* \"#utility.yul\":30815:30889   */\n      swap2\n      pop\n        /* \"#utility.yul\":30898:30991   */\n      tag_672\n        /* \"#utility.yul\":30987:30990   */\n      dup3\n        /* \"#utility.yul\":30898:30991   */\n      tag_389\n      jump\t// in\n    tag_672:\n        /* \"#utility.yul\":31016:31018   */\n      0x40\n        /* \"#utility.yul\":31011:31014   */\n      dup3\n        /* \"#utility.yul\":31007:31019   */\n      add\n        /* \"#utility.yul\":31000:31019   */\n      swap1\n      pop\n        /* \"#utility.yul\":30659:31025   */\n      swap2\n      swap1\n      pop\n      jump\t// out\n        /* \"#utility.yul\":31031:31450   */\n    tag_256:\n        /* \"#utility.yul\":31197:31201   */\n      0x00\n        /* \"#utility.yul\":31235:31237   */\n      0x20\n        /* \"#utility.yul\":31224:31233   */\n      dup3\n        /* \"#utility.yul\":31220:31238   */\n      add\n        /* \"#utility.yul\":31212:31238   */\n      swap1\n      pop\n        /* \"#utility.yul\":31284:31293   */\n      dup2\n        /* \"#utility.yul\":31278:31282   */\n      dup2\n        /* \"#utility.yul\":31274:31294   */\n      sub\n        /* \"#utility.yul\":31270:31271   */\n      0x00\n        /* \"#utility.yul\":31259:31268   */\n      dup4\n        /* \"#utility.yul\":31255:31272   */\n      add\n        /* \"#utility.yul\":31248:31295   */\n      mstore\n        /* \"#utility.yul\":31312:31443   */\n      tag_674\n        /* \"#utility.yul\":31438:31442   */\n      dup2\n        /* \"#utility.yul\":31312:31443   */\n      tag_390\n      jump\t// in\n    tag_674:\n        /* \"#utility.yul\":31304:31443   */\n      swap1\n      pop\n        /* \"#utility.yul\":31031:31450   */\n      swap2\n      swap1\n      pop\n      jump\t// out\n        /* \"#utility.yul\":31456:31609   */\n    tag_391:\n        /* \"#utility.yul\":31596:31601   */\n      0x5351460000000000000000000000000000000000000000000000000000000000\n        /* \"#utility.yul\":31592:31593   */\n      0x00\n        /* \"#utility.yul\":31584:31590   */\n      dup3\n        /* \"#utility.yul\":31580:31594   */\n      add\n        /* \"#utility.yul\":31573:31602   */\n      mstore\n        /* \"#utility.yul\":31456:31609   */\n      pop\n      jump\t// out\n        /* \"#utility.yul\":31615:31980   */\n    tag_392:\n        /* \"#utility.yul\":31757:31760   */\n      0x00\n        /* \"#utility.yul\":31778:31844   */\n      tag_677\n        /* \"#utility.yul\":31842:31843   */\n      0x03\n        /* \"#utility.yul\":31837:31840   */\n      dup4\n        /* \"#utility.yul\":31778:31844   */\n      tag_359\n      jump\t// in\n    tag_677:\n        /* \"#utility.yul\":31771:31844   */\n      swap2\n      pop\n        /* \"#utility.yul\":31853:31946   */\n      tag_678\n        /* \"#utility.yul\":31942:31945   */\n      dup3\n        /* \"#utility.yul\":31853:31946   */\n      tag_391\n      jump\t// in\n    tag_678:\n        /* \"#utility.yul\":31971:31973   */\n      0x20\n        /* \"#utility.yul\":31966:31969   */\n      dup3\n        /* \"#utility.yul\":31962:31974   */\n      add\n        /* \"#utility.yul\":31955:31974   */\n      swap1\n      pop\n        /* \"#utility.yul\":31615:31980   */\n      swap2\n      swap1\n      pop\n      jump\t// out\n        /* \"#utility.yul\":31986:32736   */\n    tag_265:\n        /* \"#utility.yul\":32236:32240   */\n      0x00\n        /* \"#utility.yul\":32274:32277   */\n      0x80\n        /* \"#utility.yul\":32263:32272   */\n      dup3\n        /* \"#utility.yul\":32259:32278   */\n      add\n        /* \"#utility.yul\":32251:32278   */\n      swap1\n      pop\n        /* \"#utility.yul\":32288:32359   */\n      tag_680\n        /* \"#utility.yul\":32356:32357   */\n      0x00\n        /* \"#utility.yul\":32345:32354   */\n      dup4\n        /* \"#utility.yul\":32341:32358   */\n      add\n        /* \"#utility.yul\":32332:32338   */\n      dup7\n        /* \"#utility.yul\":32288:32359   */\n      tag_343\n      jump\t// in\n    tag_680:\n        /* \"#utility.yul\":32369:32441   */\n      tag_681\n        /* \"#utility.yul\":32437:32439   */\n      0x20\n        /* \"#utility.yul\":32426:32435   */\n      dup4\n        /* \"#utility.yul\":32422:32440   */\n      add\n        /* \"#utility.yul\":32413:32419   */\n      dup6\n        /* \"#utility.yul\":32369:32441   */\n      tag_343\n      jump\t// in\n    tag_681:\n        /* \"#utility.yul\":32488:32497   */\n      dup2\n        /* \"#utility.yul\":32482:32486   */\n      dup2\n        /* \"#utility.yul\":32478:32498   */\n      sub\n        /* \"#utility.yul\":32473:32475   */\n      0x40\n        /* \"#utility.yul\":32462:32471   */\n      dup4\n        /* \"#utility.yul\":32458:32476   */\n      add\n        /* \"#utility.yul\":32451:32499   */\n      mstore\n        /* \"#utility.yul\":32516:32647   */\n      tag_682\n        /* \"#utility.yul\":32642:32646   */\n      dup2\n        /* \"#utility.yul\":32516:32647   */\n      tag_392\n      jump\t// in\n    tag_682:\n        /* \"#utility.yul\":32508:32647   */\n      swap1\n      pop\n        /* \"#utility.yul\":32657:32729   */\n      tag_683\n        /* \"#utility.yul\":32725:32727   */\n      0x60\n        /* \"#utility.yul\":32714:32723   */\n      dup4\n        /* \"#utility.yul\":32710:32728   */\n      add\n        /* \"#utility.yul\":32701:32707   */\n      dup5\n        /* \"#utility.yul\":32657:32729   */\n      tag_343\n      jump\t// in\n    tag_683:\n        /* \"#utility.yul\":31986:32736   */\n      swap5\n      swap4\n      pop\n      pop\n      pop\n      pop\n      jump\t// out\n        /* \"#utility.yul\":32742:32967   */\n    tag_393:\n        /* \"#utility.yul\":32882:32916   */\n      0x4f776e61626c653a206e6577206f776e657220697320746865207a65726f2061\n        /* \"#utility.yul\":32878:32879   */\n      0x00\n        /* \"#utility.yul\":32870:32876   */\n      dup3\n        /* \"#utility.yul\":32866:32880   */\n      add\n        /* \"#utility.yul\":32859:32917   */\n      mstore\n        /* \"#utility.yul\":32951:32959   */\n      0x6464726573730000000000000000000000000000000000000000000000000000\n        /* \"#utility.yul\":32946:32948   */\n      0x20\n        /* \"#utility.yul\":32938:32944   */\n      dup3\n        /* \"#utility.yul\":32934:32949   */\n      add\n        /* \"#utility.yul\":32927:32960   */\n      mstore\n        /* \"#utility.yul\":32742:32967   */\n      pop\n      jump\t// out\n        /* \"#utility.yul\":32973:33339   */\n    tag_394:\n        /* \"#utility.yul\":33115:33118   */\n      0x00\n        /* \"#utility.yul\":33136:33203   */\n      tag_686\n        /* \"#utility.yul\":33200:33202   */\n      0x26\n        /* \"#utility.yul\":33195:33198   */\n      dup4\n        /* \"#utility.yul\":33136:33203   */\n      tag_359\n      jump\t// in\n    tag_686:\n        /* \"#utility.yul\":33129:33203   */\n      swap2\n      pop\n        /* \"#utility.yul\":33212:33305   */\n      tag_687\n        /* \"#utility.yul\":33301:33304   */\n      dup3\n        /* \"#utility.yul\":33212:33305   */\n      tag_393\n      jump\t// in\n    tag_687:\n        /* \"#utility.yul\":33330:33332   */\n      0x40\n        /* \"#utility.yul\":33325:33328   */\n      dup3\n        /* \"#utility.yul\":33321:33333   */\n      add\n        /* \"#utility.yul\":33314:33333   */\n      swap1\n      pop\n        /* \"#utility.yul\":32973:33339   */\n      swap2\n      swap1\n      pop\n      jump\t// out\n        /* \"#utility.yul\":33345:33764   */\n    tag_280:\n        /* \"#utility.yul\":33511:33515   */\n      0x00\n        /* \"#utility.yul\":33549:33551   */\n      0x20\n        /* \"#utility.yul\":33538:33547   */\n      dup3\n        /* \"#utility.yul\":33534:33552   */\n      add\n        /* \"#utility.yul\":33526:33552   */\n      swap1\n      pop\n        /* \"#utility.yul\":33598:33607   */\n      dup2\n        /* \"#utility.yul\":33592:33596   */\n      dup2\n        /* \"#utility.yul\":33588:33608   */\n      sub\n        /* \"#utility.yul\":33584:33585   */\n      0x00\n        /* \"#utility.yul\":33573:33582   */\n      dup4\n        /* \"#utility.yul\":33569:33586   */\n      add\n        /* \"#utility.yul\":33562:33609   */\n      mstore\n        /* \"#utility.yul\":33626:33757   */\n      tag_689\n        /* \"#utility.yul\":33752:33756   */\n      dup2\n        /* \"#utility.yul\":33626:33757   */\n      tag_394\n      jump\t// in\n    tag_689:\n        /* \"#utility.yul\":33618:33757   */\n      swap1\n      pop\n        /* \"#utility.yul\":33345:33764   */\n      swap2\n      swap1\n      pop\n      jump\t// out\n        /* \"#utility.yul\":33770:34115   */\n    tag_300:\n        /* \"#utility.yul\":33837:33843   */\n      0x00\n        /* \"#utility.yul\":33886:33888   */\n      0x20\n        /* \"#utility.yul\":33874:33883   */\n      dup3\n        /* \"#utility.yul\":33865:33872   */\n      dup5\n        /* \"#utility.yul\":33861:33884   */\n      sub\n        /* \"#utility.yul\":33857:33889   */\n      slt\n        /* \"#utility.yul\":33854:33973   */\n      iszero\n      tag_691\n      jumpi\n        /* \"#utility.yul\":33892:33971   */\n      tag_692\n      tag_312\n      jump\t// in\n    tag_692:\n        /* \"#utility.yul\":33854:33973   */\n    tag_691:\n        /* \"#utility.yul\":34012:34013   */\n      0x00\n        /* \"#utility.yul\":34037:34098   */\n      tag_693\n        /* \"#utility.yul\":34090:34097   */\n      dup5\n        /* \"#utility.yul\":34081:34087   */\n      dup3\n        /* \"#utility.yul\":34070:34079   */\n      dup6\n        /* \"#utility.yul\":34066:34088   */\n      add\n        /* \"#utility.yul\":34037:34098   */\n      tag_384\n      jump\t// in\n    tag_693:\n        /* \"#utility.yul\":34027:34098   */\n      swap2\n      pop\n        /* \"#utility.yul\":33983:34108   */\n      pop\n        /* \"#utility.yul\":33770:34115   */\n      swap3\n      swap2\n      pop\n      pop\n      jump\t// out\n\n    auxdata: 0xa264697066735822122007c3171b29c926d94952e0ac90a6548e89edef2b0d6a48e8fafa1090f8473e3364736f6c634300080d0033\n}\n",
				"bytecode": {
					"linkReferences": {},
					"object": "60806040523480156200001157600080fd5b506040516200338638038062003386833981810160405281019062000037919062000263565b60016000819055506200005f620000536200012b60201b60201c565b6200013360201b60201c565b82600960006101000a81548173ffffffffffffffffffffffffffffffffffffffff021916908373ffffffffffffffffffffffffffffffffffffffff16021790555081600b60006101000a81548173ffffffffffffffffffffffffffffffffffffffff021916908373ffffffffffffffffffffffffffffffffffffffff16021790555080600a60006101000a81548173ffffffffffffffffffffffffffffffffffffffff021916908373ffffffffffffffffffffffffffffffffffffffff160217905550505050620002bf565b600033905090565b6000600c60009054906101000a900473ffffffffffffffffffffffffffffffffffffffff16905081600c60006101000a81548173ffffffffffffffffffffffffffffffffffffffff021916908373ffffffffffffffffffffffffffffffffffffffff1602179055508173ffffffffffffffffffffffffffffffffffffffff168173ffffffffffffffffffffffffffffffffffffffff167f8be0079c531659141344cd1fd0a4f28419497f9722a3daafe3b4186f6b6457e060405160405180910390a35050565b600080fd5b600073ffffffffffffffffffffffffffffffffffffffff82169050919050565b60006200022b82620001fe565b9050919050565b6200023d816200021e565b81146200024957600080fd5b50565b6000815190506200025d8162000232565b92915050565b6000806000606084860312156200027f576200027e620001f9565b5b60006200028f868287016200024c565b9350506020620002a2868287016200024c565b9250506040620002b5868287016200024c565b9150509250925092565b6130b780620002cf6000396000f3fe608060405234801561001057600080fd5b506004361061014d5760003560e01c80635c80a435116100c3578063b7a60c7e1161007c578063b7a60c7e14610370578063c45a01551461038e578063c7be7a49146103ac578063f2fde38b146103dc578063f55de0c7146103f8578063ff68fa6e146104165761014d565b80635c80a435146102bb578063673cf668146102f0578063715018a61461030e57806385a8b36c146103185780638da5cb5b14610336578063a1c11ca8146103545761014d565b80632a45b250116101155780632a45b250146101f45780632b4c32be14610224578063361c1995146102425780633fc15f151461025e578063517bd4511461027c5780635bb478081461029f5761014d565b806303ce1cb5146101525780630f08efe01461018257806310061631146101a057806315b12494146101bc57806327ce464e146101d8575b600080fd5b61016c60048036038101906101679190612061565b61044b565b604051610179919061220f565b60405180910390f35b61018a610458565b6040516101979190612323565b60405180910390f35b6101ba60048036038101906101b59190612061565b610577565b005b6101d660048036038101906101d1919061236a565b6109e7565b005b6101f260048036038101906101ed919061236a565b610aa7565b005b61020e60048036038101906102099190612061565b610b67565b60405161021b9190612323565b60405180910390f35b61022c610c9f565b60405161023991906123d2565b60405180910390f35b61025c600480360381019061025791906123ed565b610caa565b005b610266610f9e565b604051610273919061248c565b60405180910390f35b610284610fc4565b604051610296969594939291906124d4565b60405180910390f35b6102b960048036038101906102b4919061236a565b61103b565b005b6102d560048036038101906102d09190612535565b6110fb565b6040516102e7969594939291906124d4565b60405180910390f35b6102f8611191565b604051610305919061269f565b60405180910390f35b6103166114b1565b005b610320611539565b60405161032d91906126dd565b60405180910390f35b61033e61154c565b60405161034b91906126f8565b60405180910390f35b61036e600480360381019061036991906123ed565b611576565b005b610378611834565b60405161038591906126dd565b60405180910390f35b610396611847565b6040516103a39190612734565b60405180910390f35b6103c660048036038101906103c19190612061565b61186d565b6040516103d39190612323565b60405180910390f35b6103f660048036038101906103f1919061236a565b61199f565b005b610400611a96565b60405161040d9190612770565b60405180910390f35b610430600480360381019061042b9190612061565b611abc565b604051610442969594939291906124d4565b60405180910390f35b610453611f5c565b919050565b610460611fa3565b60016040518060c001604052908160008201548152602001600182015481526020016002820160009054906101000a900473ffffffffffffffffffffffffffffffffffffffff1673ffffffffffffffffffffffffffffffffffffffff1673ffffffffffffffffffffffffffffffffffffffff1681526020016003820160009054906101000a900473ffffffffffffffffffffffffffffffffffffffff1673ffffffffffffffffffffffffffffffffffffffff1673ffffffffffffffffffffffffffffffffffffffff168152602001600482015481526020016005820160009054906101000a900460ff16600181111561055c5761055b612231565b5b600181111561056e5761056d612231565b5b81525050905090565b60003390506000600f60008481526020019081526020016000206040518060c001604052908160008201548152602001600182015481526020016002820160009054906101000a900473ffffffffffffffffffffffffffffffffffffffff1673ffffffffffffffffffffffffffffffffffffffff1673ffffffffffffffffffffffffffffffffffffffff1681526020016003820160009054906101000a900473ffffffffffffffffffffffffffffffffffffffff1673ffffffffffffffffffffffffffffffffffffffff1673ffffffffffffffffffffffffffffffffffffffff168152602001600482015481526020016005820160009054906101000a900460ff16600181111561068b5761068a612231565b5b600181111561069d5761069c612231565b5b81525050905060008160000151036106ea576040517f08c379a00000000000000000000000000000000000000000000000000000000081526004016106e1906127e8565b60405180910390fd5b6001808111156106fd576106fc612231565b5b8160a00151600181111561071457610713612231565b5b14610754576040517f08c379a000000000000000000000000000000000000000000000000000000000815260040161074b90612854565b60405180910390fd5b600081604001519050600073ffffffffffffffffffffffffffffffffffffffff168173ffffffffffffffffffffffffffffffffffffffff16036107cc576040517f08c379a00000000000000000000000000000000000000000000000000000000081526004016107c3906128c0565b60405180910390fd5b3373ffffffffffffffffffffffffffffffffffffffff168173ffffffffffffffffffffffffffffffffffffffff161461083a576040517f08c379a00000000000000000000000000000000000000000000000000000000081526004016108319061292c565b60405180910390fd5b600b60009054906101000a900473ffffffffffffffffffffffffffffffffffffffff1673ffffffffffffffffffffffffffffffffffffffff166342842e0e3083876040518463ffffffff1660e01b81526004016108999392919061294c565b600060405180830381600087803b1580156108b357600080fd5b505af11580156108c7573d6000803e3d6000fd5b5050505060008260a0019060018111156108e4576108e3612231565b5b908160018111156108f8576108f7612231565b5b81525050600f600085815260200190815260200160002060008082016000905560018201600090556002820160006101000a81549073ffffffffffffffffffffffffffffffffffffffff02191690556003820160006101000a81549073ffffffffffffffffffffffffffffffffffffffff021916905560048201600090556005820160006101000a81549060ff021916905550508273ffffffffffffffffffffffffffffffffffffffff16847f72ffc2a266acba5f77e2b49400103cb61b428f37a97057ebe671e83fddd71e678460000151426040516109d9929190612983565b60405180910390a350505050565b6109ef611b45565b73ffffffffffffffffffffffffffffffffffffffff16610a0d61154c565b73ffffffffffffffffffffffffffffffffffffffff1614610a63576040517f08c379a0000000000000000000000000000000000000000000000000000000008152600401610a5a906129f8565b60405180910390fd5b80600b60006101000a81548173ffffffffffffffffffffffffffffffffffffffff021916908373ffffffffffffffffffffffffffffffffffffffff16021790555050565b610aaf611b45565b73ffffffffffffffffffffffffffffffffffffffff16610acd61154c565b73ffffffffffffffffffffffffffffffffffffffff1614610b23576040517f08c379a0000000000000000000000000000000000000000000000000000000008152600401610b1a906129f8565b60405180910390fd5b80600960006101000a81548173ffffffffffffffffffffffffffffffffffffffff021916908373ffffffffffffffffffffffffffffffffffffffff16021790555050565b610b6f611fa3565b6000600f60008481526020019081526020016000206040518060c001604052908160008201548152602001600182015481526020016002820160009054906101000a900473ffffffffffffffffffffffffffffffffffffffff1673ffffffffffffffffffffffffffffffffffffffff1673ffffffffffffffffffffffffffffffffffffffff1681526020016003820160009054906101000a900473ffffffffffffffffffffffffffffffffffffffff1673ffffffffffffffffffffffffffffffffffffffff1673ffffffffffffffffffffffffffffffffffffffff168152602001600482015481526020016005820160009054906101000a900460ff166001811115610c7e57610c7d612231565b5b6001811115610c9057610c8f612231565b5b81525050905080915050919050565b6380ac58cd60e01b81565b60008111610ced576040517f08c379a0000000000000000000000000000000000000000000000000000000008152600401610ce490612a64565b60405180910390fd5b6000600a60009054906101000a900473ffffffffffffffffffffffffffffffffffffffff1673ffffffffffffffffffffffffffffffffffffffff1663d30bdac9846040518263ffffffff1660e01b8152600401610d4a9190612a84565b600060405180830381865afa158015610d67573d6000803e3d6000fd5b505050506040513d6000823e3d601f19601f82011682018060405250810190610d909190612ce9565b9050600015158160800151151514610ddd576040517f08c379a0000000000000000000000000000000000000000000000000000000008152600401610dd490612d7e565b60405180910390fd5b610de683611b4d565b6000610df2600d611c72565b90506040518060c001604052808281526020018581526020013373ffffffffffffffffffffffffffffffffffffffff1681526020013073ffffffffffffffffffffffffffffffffffffffff168152602001848152602001600180811115610e5c57610e5b612231565b5b815250600f6000838152602001908152602001600020600082015181600001556020820151816001015560408201518160020160006101000a81548173ffffffffffffffffffffffffffffffffffffffff021916908373ffffffffffffffffffffffffffffffffffffffff16021790555060608201518160030160006101000a81548173ffffffffffffffffffffffffffffffffffffffff021916908373ffffffffffffffffffffffffffffffffffffffff1602179055506080820151816004015560a08201518160050160006101000a81548160ff02191690836001811115610f4957610f48612231565b5b0217905550905050610f5b600d611c80565b83817f38690a554ffbc44eb6a75016e47d517d0db8e6c37494adc68d6d0b2c66f0ab21333087604051610f909392919061294c565b60405180910390a350505050565b600960009054906101000a900473ffffffffffffffffffffffffffffffffffffffff1681565b60018060000154908060010154908060020160009054906101000a900473ffffffffffffffffffffffffffffffffffffffff16908060030160009054906101000a900473ffffffffffffffffffffffffffffffffffffffff16908060040154908060050160009054906101000a900460ff16905086565b611043611b45565b73ffffffffffffffffffffffffffffffffffffffff1661106161154c565b73ffffffffffffffffffffffffffffffffffffffff16146110b7576040517f08c379a00000000000000000000000000000000000000000000000000000000081526004016110ae906129f8565b60405180910390fd5b80600a60006101000a81548173ffffffffffffffffffffffffffffffffffffffff021916908373ffffffffffffffffffffffffffffffffffffffff16021790555050565b6008602052816000526040600020602052806000526040600020600091509150508060000154908060010154908060020160009054906101000a900473ffffffffffffffffffffffffffffffffffffffff16908060030160009054906101000a900473ffffffffffffffffffffffffffffffffffffffff16908060040154908060050160009054906101000a900460ff16905086565b6060600061119f600d611c72565b905060008060005b8381101561123b573373ffffffffffffffffffffffffffffffffffffffff16600f600083815260200190815260200160002060030160009054906101000a900473ffffffffffffffffffffffffffffffffffffffff1673ffffffffffffffffffffffffffffffffffffffff1603611228576001836112259190612dcd565b92505b808061123390612e23565b9150506111a7565b5060008267ffffffffffffffff81111561125857611257612aa4565b5b60405190808252806020026020018201604052801561129157816020015b61127e611fa3565b8152602001906001900390816112765790505b50905060005b848110156114a6573373ffffffffffffffffffffffffffffffffffffffff16600f60006001846112c79190612dcd565b815260200190815260200160002060030160009054906101000a900473ffffffffffffffffffffffffffffffffffffffff1673ffffffffffffffffffffffffffffffffffffffff1603611493576000600f60006001846113279190612dcd565b81526020019081526020016000206000015490506000600f60008381526020019081526020016000209050806040518060c001604052908160008201548152602001600182015481526020016002820160009054906101000a900473ffffffffffffffffffffffffffffffffffffffff1673ffffffffffffffffffffffffffffffffffffffff1673ffffffffffffffffffffffffffffffffffffffff1681526020016003820160009054906101000a900473ffffffffffffffffffffffffffffffffffffffff1673ffffffffffffffffffffffffffffffffffffffff1673ffffffffffffffffffffffffffffffffffffffff168152602001600482015481526020016005820160009054906101000a900460ff16600181111561144d5761144c612231565b5b600181111561145f5761145e612231565b5b8152505084868151811061147657611475612e6b565b5b602002602001018190525060018561148e9190612dcd565b945050505b808061149e90612e23565b915050611297565b508094505050505090565b6114b9611b45565b73ffffffffffffffffffffffffffffffffffffffff166114d761154c565b73ffffffffffffffffffffffffffffffffffffffff161461152d576040517f08c379a0000000000000000000000000000000000000000000000000000000008152600401611524906129f8565b60405180910390fd5b6115376000611c96565b565b600b60149054906101000a900460ff1681565b6000600c60009054906101000a900473ffffffffffffffffffffffffffffffffffffffff16905090565b6000600f60008481526020019081526020016000206004015490506000600f60008581526020019081526020016000206001015490506000600f600086815260200190815260200160002060020160009054906101000a900473ffffffffffffffffffffffffffffffffffffffff1690506000600a60009054906101000a900473ffffffffffffffffffffffffffffffffffffffff1673ffffffffffffffffffffffffffffffffffffffff1663d30bdac9846040518263ffffffff1660e01b81526004016116449190612a84565b600060405180830381865afa158015611661573d6000803e3d6000fd5b505050506040513d6000823e3d601f19601f8201168201806040525081019061168a9190612ce9565b90508385146116ce576040517f08c379a00000000000000000000000000000000000000000000000000000000081526004016116c590612f0c565b60405180910390fd5b600015158160800151151514611719576040517f08c379a000000000000000000000000000000000000000000000000000000000815260040161171090612d7e565b60405180910390fd5b611724868685611d5c565b33600f600088815260200190815260200160002060030160006101000a81548173ffffffffffffffffffffffffffffffffffffffff021916908373ffffffffffffffffffffffffffffffffffffffff1602179055506000600f600088815260200190815260200160002060050160006101000a81548160ff021916908360018111156117b3576117b2612231565b5b02179055506117c2600e611c80565b3373ffffffffffffffffffffffffffffffffffffffff168273ffffffffffffffffffffffffffffffffffffffff16847f551327aee12d0a8b3ede8d0e3182a40a5ff3ed9f1811dd622915db30b609b7df89884260405161182493929190612f78565b60405180910390a4505050505050565b600b60159054906101000a900460ff1681565b600a60009054906101000a900473ffffffffffffffffffffffffffffffffffffffff1681565b611875611fa3565b600f60008381526020019081526020016000206040518060c001604052908160008201548152602001600182015481526020016002820160009054906101000a900473ffffffffffffffffffffffffffffffffffffffff1673ffffffffffffffffffffffffffffffffffffffff1673ffffffffffffffffffffffffffffffffffffffff1681526020016003820160009054906101000a900473ffffffffffffffffffffffffffffffffffffffff1673ffffffffffffffffffffffffffffffffffffffff1673ffffffffffffffffffffffffffffffffffffffff168152602001600482015481526020016005820160009054906101000a900460ff16600181111561198257611981612231565b5b600181111561199457611993612231565b5b815250509050919050565b6119a7611b45565b73ffffffffffffffffffffffffffffffffffffffff166119c561154c565b73ffffffffffffffffffffffffffffffffffffffff1614611a1b576040517f08c379a0000000000000000000000000000000000000000000000000000000008152600401611a12906129f8565b60405180910390fd5b600073ffffffffffffffffffffffffffffffffffffffff168173ffffffffffffffffffffffffffffffffffffffff1603611a8a576040517f08c379a0000000000000000000000000000000000000000000000000000000008152600401611a8190613034565b60405180910390fd5b611a9381611c96565b50565b600b60009054906101000a900473ffffffffffffffffffffffffffffffffffffffff1681565b60076020528060005260406000206000915090508060000154908060010154908060020160009054906101000a900473ffffffffffffffffffffffffffffffffffffffff16908060030160009054906101000a900473ffffffffffffffffffffffffffffffffffffffff16908060040154908060050160009054906101000a900460ff16905086565b600033905090565b600a60009054906101000a900473ffffffffffffffffffffffffffffffffffffffff1673ffffffffffffffffffffffffffffffffffffffff1663c1e9518a3330846040518463ffffffff1660e01b8152600401611bac9392919061294c565b600060405180830381600087803b158015611bc657600080fd5b505af1158015611bda573d6000803e3d6000fd5b50505050600b60009054906101000a900473ffffffffffffffffffffffffffffffffffffffff1673ffffffffffffffffffffffffffffffffffffffff166323b872dd3330846040518463ffffffff1660e01b8152600401611c3d9392919061294c565b600060405180830381600087803b158015611c5757600080fd5b505af1158015611c6b573d6000803e3d6000fd5b5050505050565b600081600001549050919050565b6001816000016000828254019250508190555050565b6000600c60009054906101000a900473ffffffffffffffffffffffffffffffffffffffff16905081600c60006101000a81548173ffffffffffffffffffffffffffffffffffffffff021916908373ffffffffffffffffffffffffffffffffffffffff1602179055508173ffffffffffffffffffffffffffffffffffffffff168173ffffffffffffffffffffffffffffffffffffffff167f8be0079c531659141344cd1fd0a4f28419497f9722a3daafe3b4186f6b6457e060405160405180910390a35050565b600960009054906101000a900473ffffffffffffffffffffffffffffffffffffffff1673ffffffffffffffffffffffffffffffffffffffff166323b872dd33600f600087815260200190815260200160002060020160009054906101000a900473ffffffffffffffffffffffffffffffffffffffff16856040518463ffffffff1660e01b8152600401611df19392919061294c565b6020604051808303816000875af1158015611e10573d6000803e3d6000fd5b505050506040513d601f19601f82011682018060405250810190611e349190613054565b50600a60009054906101000a900473ffffffffffffffffffffffffffffffffffffffff1673ffffffffffffffffffffffffffffffffffffffff1663c1e9518a3330846040518463ffffffff1660e01b8152600401611e949392919061294c565b600060405180830381600087803b158015611eae57600080fd5b505af1158015611ec2573d6000803e3d6000fd5b50505050600b60009054906101000a900473ffffffffffffffffffffffffffffffffffffffff1673ffffffffffffffffffffffffffffffffffffffff166323b872dd3033846040518463ffffffff1660e01b8152600401611f259392919061294c565b600060405180830381600087803b158015611f3f57600080fd5b505af1158015611f53573d6000803e3d6000fd5b50505050505050565b6040518060a0016040528060008152602001600073ffffffffffffffffffffffffffffffffffffffff16815260200160608152602001606081526020016000151581525090565b6040518060c001604052806000815260200160008152602001600073ffffffffffffffffffffffffffffffffffffffff168152602001600073ffffffffffffffffffffffffffffffffffffffff168152602001600081526020016000600181111561201157612010612231565b5b81525090565b6000604051905090565b600080fd5b600080fd5b6000819050919050565b61203e8161202b565b811461204957600080fd5b50565b60008135905061205b81612035565b92915050565b60006020828403121561207757612076612021565b5b60006120858482850161204c565b91505092915050565b6120978161202b565b82525050565b600073ffffffffffffffffffffffffffffffffffffffff82169050919050565b60006120c88261209d565b9050919050565b6120d8816120bd565b82525050565b600081519050919050565b600082825260208201905092915050565b60005b838110156121185780820151818401526020810190506120fd565b83811115612127576000848401525b50505050565b6000601f19601f8301169050919050565b6000612149826120de565b61215381856120e9565b93506121638185602086016120fa565b61216c8161212d565b840191505092915050565b60008115159050919050565b61218c81612177565b82525050565b600060a0830160008301516121aa600086018261208e565b5060208301516121bd60208601826120cf565b50604083015184820360408601526121d5828261213e565b915050606083015184820360608601526121ef828261213e565b91505060808301516122046080860182612183565b508091505092915050565b600060208201905081810360008301526122298184612192565b905092915050565b7f4e487b7100000000000000000000000000000000000000000000000000000000600052602160045260246000fd5b6002811061227157612270612231565b5b50565b600081905061228282612260565b919050565b600061229282612274565b9050919050565b6122a281612287565b82525050565b60c0820160008201516122be600085018261208e565b5060208201516122d1602085018261208e565b5060408201516122e460408501826120cf565b5060608201516122f760608501826120cf565b50608082015161230a608085018261208e565b5060a082015161231d60a0850182612299565b50505050565b600060c08201905061233860008301846122a8565b92915050565b612347816120bd565b811461235257600080fd5b50565b6000813590506123648161233e565b92915050565b6000602082840312156123805761237f612021565b5b600061238e84828501612355565b91505092915050565b60007fffffffff0000000000000000000000000000000000000000000000000000000082169050919050565b6123cc81612397565b82525050565b60006020820190506123e760008301846123c3565b92915050565b6000806040838503121561240457612403612021565b5b60006124128582860161204c565b92505060206124238582860161204c565b9150509250929050565b6000819050919050565b600061245261244d6124488461209d565b61242d565b61209d565b9050919050565b600061246482612437565b9050919050565b600061247682612459565b9050919050565b6124868161246b565b82525050565b60006020820190506124a1600083018461247d565b92915050565b6124b08161202b565b82525050565b6124bf816120bd565b82525050565b6124ce81612287565b82525050565b600060c0820190506124e960008301896124a7565b6124f660208301886124a7565b61250360408301876124b6565b61251060608301866124b6565b61251d60808301856124a7565b61252a60a08301846124c5565b979650505050505050565b6000806040838503121561254c5761254b612021565b5b600061255a85828601612355565b925050602061256b8582860161204c565b9150509250929050565b600081519050919050565b600082825260208201905092915050565b6000819050602082019050919050565b60c0820160008201516125b7600085018261208e565b5060208201516125ca602085018261208e565b5060408201516125dd60408501826120cf565b5060608201516125f060608501826120cf565b506080820151612603608085018261208e565b5060a082015161261660a0850182612299565b50505050565b600061262883836125a1565b60c08301905092915050565b6000602082019050919050565b600061264c82612575565b6126568185612580565b935061266183612591565b8060005b83811015612692578151612679888261261c565b975061268483612634565b925050600181019050612665565b5085935050505092915050565b600060208201905081810360008301526126b98184612641565b905092915050565b600060ff82169050919050565b6126d7816126c1565b82525050565b60006020820190506126f260008301846126ce565b92915050565b600060208201905061270d60008301846124b6565b92915050565b600061271e82612459565b9050919050565b61272e81612713565b82525050565b60006020820190506127496000830184612725565b92915050565b600061275a82612459565b9050919050565b61276a8161274f565b82525050565b60006020820190506127856000830184612761565b92915050565b600082825260208201905092915050565b7f4173736574206e6f74207075626c697368656400000000000000000000000000600082015250565b60006127d260138361278b565b91506127dd8261279c565b602082019050919050565b60006020820190508181036000830152612801816127c5565b9050919050565b7f41737365742064656c6973746564000000000000000000000000000000000000600082015250565b600061283e600e8361278b565b915061284982612808565b602082019050919050565b6000602082019050818103600083015261286d81612831565b9050919050565b7f496e76616c696420616464726573730000000000000000000000000000000000600082015250565b60006128aa600f8361278b565b91506128b582612874565b602082019050919050565b600060208201905081810360008301526128d98161289d565b9050919050565b7f4f6e6c792073656c6c65722063616e2064656c69737400000000000000000000600082015250565b600061291660168361278b565b9150612921826128e0565b602082019050919050565b6000602082019050818103600083015261294581612909565b9050919050565b600060608201905061296160008301866124b6565b61296e60208301856124b6565b61297b60408301846124a7565b949350505050565b600060408201905061299860008301856124a7565b6129a560208301846124a7565b9392505050565b7f4f776e61626c653a2063616c6c6572206973206e6f7420746865206f776e6572600082015250565b60006129e260208361278b565b91506129ed826129ac565b602082019050919050565b60006020820190508181036000830152612a11816129d5565b9050919050565b7f5072696365206d757374206265206174206c6561737420312077656900000000600082015250565b6000612a4e601c8361278b565b9150612a5982612a18565b602082019050919050565b60006020820190508181036000830152612a7d81612a41565b9050919050565b6000602082019050612a9960008301846124a7565b92915050565b600080fd5b7f4e487b7100000000000000000000000000000000000000000000000000000000600052604160045260246000fd5b612adc8261212d565b810181811067ffffffffffffffff82111715612afb57612afa612aa4565b5b80604052505050565b6000612b0e612017565b9050612b1a8282612ad3565b919050565b600080fd5b600081519050612b3381612035565b92915050565b600081519050612b488161233e565b92915050565b600080fd5b600080fd5b600067ffffffffffffffff821115612b7357612b72612aa4565b5b612b7c8261212d565b9050602081019050919050565b6000612b9c612b9784612b58565b612b04565b905082815260208101848484011115612bb857612bb7612b53565b5b612bc38482856120fa565b509392505050565b600082601f830112612be057612bdf612b4e565b5b8151612bf0848260208601612b89565b91505092915050565b612c0281612177565b8114612c0d57600080fd5b50565b600081519050612c1f81612bf9565b92915050565b600060a08284031215612c3b57612c3a612a9f565b5b612c4560a0612b04565b90506000612c5584828501612b24565b6000830152506020612c6984828501612b39565b602083015250604082015167ffffffffffffffff811115612c8d57612c8c612b1f565b5b612c9984828501612bcb565b604083015250606082015167ffffffffffffffff811115612cbd57612cbc612b1f565b5b612cc984828501612bcb565b6060830152506080612cdd84828501612c10565b60808301525092915050565b600060208284031215612cff57612cfe612021565b5b600082015167ffffffffffffffff811115612d1d57612d1c612026565b5b612d2984828501612c25565b91505092915050565b7f4974656d206973206e6f7420617661696c61626c65206e6f7720210000000000600082015250565b6000612d68601b8361278b565b9150612d7382612d32565b602082019050919050565b60006020820190508181036000830152612d9781612d5b565b9050919050565b7f4e487b7100000000000000000000000000000000000000000000000000000000600052601160045260246000fd5b6000612dd88261202b565b9150612de38361202b565b9250827fffffffffffffffffffffffffffffffffffffffffffffffffffffffffffffffff03821115612e1857612e17612d9e565b5b828201905092915050565b6000612e2e8261202b565b91507fffffffffffffffffffffffffffffffffffffffffffffffffffffffffffffffff8203612e6057612e5f612d9e565b5b600182019050919050565b7f4e487b7100000000000000000000000000000000000000000000000000000000600052603260045260246000fd5b7f506c65617365207375626d6974207468652061736b696e67207072696365206960008201527f6e206f7264657220746f20636f6d706c65746520746865207075726368617365602082015250565b6000612ef660408361278b565b9150612f0182612e9a565b604082019050919050565b60006020820190508181036000830152612f2581612ee9565b9050919050565b7f5351460000000000000000000000000000000000000000000000000000000000600082015250565b6000612f6260038361278b565b9150612f6d82612f2c565b602082019050919050565b6000608082019050612f8d60008301866124a7565b612f9a60208301856124a7565b8181036040830152612fab81612f55565b9050612fba60608301846124a7565b949350505050565b7f4f776e61626c653a206e6577206f776e657220697320746865207a65726f206160008201527f6464726573730000000000000000000000000000000000000000000000000000602082015250565b600061301e60268361278b565b915061302982612fc2565b604082019050919050565b6000602082019050818103600083015261304d81613011565b9050919050565b60006020828403121561306a57613069612021565b5b600061307884828501612c10565b9150509291505056fea264697066735822122007c3171b29c926d94952e0ac90a6548e89edef2b0d6a48e8fafa1090f8473e3364736f6c634300080d0033",
					"opcodes": "PUSH1 0x80 PUSH1 0x40 MSTORE CALLVALUE DUP1 ISZERO PUSH3 0x11 JUMPI PUSH1 0x0 DUP1 REVERT JUMPDEST POP PUSH1 0x40 MLOAD PUSH3 0x3386 CODESIZE SUB DUP1 PUSH3 0x3386 DUP4 CODECOPY DUP2 DUP2 ADD PUSH1 0x40 MSTORE DUP2 ADD SWAP1 PUSH3 0x37 SWAP2 SWAP1 PUSH3 0x263 JUMP JUMPDEST PUSH1 0x1 PUSH1 0x0 DUP2 SWAP1 SSTORE POP PUSH3 0x5F PUSH3 0x53 PUSH3 0x12B PUSH1 0x20 SHL PUSH1 0x20 SHR JUMP JUMPDEST PUSH3 0x133 PUSH1 0x20 SHL PUSH1 0x20 SHR JUMP JUMPDEST DUP3 PUSH1 0x9 PUSH1 0x0 PUSH2 0x100 EXP DUP2 SLOAD DUP2 PUSH20 0xFFFFFFFFFFFFFFFFFFFFFFFFFFFFFFFFFFFFFFFF MUL NOT AND SWAP1 DUP4 PUSH20 0xFFFFFFFFFFFFFFFFFFFFFFFFFFFFFFFFFFFFFFFF AND MUL OR SWAP1 SSTORE POP DUP2 PUSH1 0xB PUSH1 0x0 PUSH2 0x100 EXP DUP2 SLOAD DUP2 PUSH20 0xFFFFFFFFFFFFFFFFFFFFFFFFFFFFFFFFFFFFFFFF MUL NOT AND SWAP1 DUP4 PUSH20 0xFFFFFFFFFFFFFFFFFFFFFFFFFFFFFFFFFFFFFFFF AND MUL OR SWAP1 SSTORE POP DUP1 PUSH1 0xA PUSH1 0x0 PUSH2 0x100 EXP DUP2 SLOAD DUP2 PUSH20 0xFFFFFFFFFFFFFFFFFFFFFFFFFFFFFFFFFFFFFFFF MUL NOT AND SWAP1 DUP4 PUSH20 0xFFFFFFFFFFFFFFFFFFFFFFFFFFFFFFFFFFFFFFFF AND MUL OR SWAP1 SSTORE POP POP POP POP PUSH3 0x2BF JUMP JUMPDEST PUSH1 0x0 CALLER SWAP1 POP SWAP1 JUMP JUMPDEST PUSH1 0x0 PUSH1 0xC PUSH1 0x0 SWAP1 SLOAD SWAP1 PUSH2 0x100 EXP SWAP1 DIV PUSH20 0xFFFFFFFFFFFFFFFFFFFFFFFFFFFFFFFFFFFFFFFF AND SWAP1 POP DUP2 PUSH1 0xC PUSH1 0x0 PUSH2 0x100 EXP DUP2 SLOAD DUP2 PUSH20 0xFFFFFFFFFFFFFFFFFFFFFFFFFFFFFFFFFFFFFFFF MUL NOT AND SWAP1 DUP4 PUSH20 0xFFFFFFFFFFFFFFFFFFFFFFFFFFFFFFFFFFFFFFFF AND MUL OR SWAP1 SSTORE POP DUP2 PUSH20 0xFFFFFFFFFFFFFFFFFFFFFFFFFFFFFFFFFFFFFFFF AND DUP2 PUSH20 0xFFFFFFFFFFFFFFFFFFFFFFFFFFFFFFFFFFFFFFFF AND PUSH32 0x8BE0079C531659141344CD1FD0A4F28419497F9722A3DAAFE3B4186F6B6457E0 PUSH1 0x40 MLOAD PUSH1 0x40 MLOAD DUP1 SWAP2 SUB SWAP1 LOG3 POP POP JUMP JUMPDEST PUSH1 0x0 DUP1 REVERT JUMPDEST PUSH1 0x0 PUSH20 0xFFFFFFFFFFFFFFFFFFFFFFFFFFFFFFFFFFFFFFFF DUP3 AND SWAP1 POP SWAP2 SWAP1 POP JUMP JUMPDEST PUSH1 0x0 PUSH3 0x22B DUP3 PUSH3 0x1FE JUMP JUMPDEST SWAP1 POP SWAP2 SWAP1 POP JUMP JUMPDEST PUSH3 0x23D DUP2 PUSH3 0x21E JUMP JUMPDEST DUP2 EQ PUSH3 0x249 JUMPI PUSH1 0x0 DUP1 REVERT JUMPDEST POP JUMP JUMPDEST PUSH1 0x0 DUP2 MLOAD SWAP1 POP PUSH3 0x25D DUP2 PUSH3 0x232 JUMP JUMPDEST SWAP3 SWAP2 POP POP JUMP JUMPDEST PUSH1 0x0 DUP1 PUSH1 0x0 PUSH1 0x60 DUP5 DUP7 SUB SLT ISZERO PUSH3 0x27F JUMPI PUSH3 0x27E PUSH3 0x1F9 JUMP JUMPDEST JUMPDEST PUSH1 0x0 PUSH3 0x28F DUP7 DUP3 DUP8 ADD PUSH3 0x24C JUMP JUMPDEST SWAP4 POP POP PUSH1 0x20 PUSH3 0x2A2 DUP7 DUP3 DUP8 ADD PUSH3 0x24C JUMP JUMPDEST SWAP3 POP POP PUSH1 0x40 PUSH3 0x2B5 DUP7 DUP3 DUP8 ADD PUSH3 0x24C JUMP JUMPDEST SWAP2 POP POP SWAP3 POP SWAP3 POP SWAP3 JUMP JUMPDEST PUSH2 0x30B7 DUP1 PUSH3 0x2CF PUSH1 0x0 CODECOPY PUSH1 0x0 RETURN INVALID PUSH1 0x80 PUSH1 0x40 MSTORE CALLVALUE DUP1 ISZERO PUSH2 0x10 JUMPI PUSH1 0x0 DUP1 REVERT JUMPDEST POP PUSH1 0x4 CALLDATASIZE LT PUSH2 0x14D JUMPI PUSH1 0x0 CALLDATALOAD PUSH1 0xE0 SHR DUP1 PUSH4 0x5C80A435 GT PUSH2 0xC3 JUMPI DUP1 PUSH4 0xB7A60C7E GT PUSH2 0x7C JUMPI DUP1 PUSH4 0xB7A60C7E EQ PUSH2 0x370 JUMPI DUP1 PUSH4 0xC45A0155 EQ PUSH2 0x38E JUMPI DUP1 PUSH4 0xC7BE7A49 EQ PUSH2 0x3AC JUMPI DUP1 PUSH4 0xF2FDE38B EQ PUSH2 0x3DC JUMPI DUP1 PUSH4 0xF55DE0C7 EQ PUSH2 0x3F8 JUMPI DUP1 PUSH4 0xFF68FA6E EQ PUSH2 0x416 JUMPI PUSH2 0x14D JUMP JUMPDEST DUP1 PUSH4 0x5C80A435 EQ PUSH2 0x2BB JUMPI DUP1 PUSH4 0x673CF668 EQ PUSH2 0x2F0 JUMPI DUP1 PUSH4 0x715018A6 EQ PUSH2 0x30E JUMPI DUP1 PUSH4 0x85A8B36C EQ PUSH2 0x318 JUMPI DUP1 PUSH4 0x8DA5CB5B EQ PUSH2 0x336 JUMPI DUP1 PUSH4 0xA1C11CA8 EQ PUSH2 0x354 JUMPI PUSH2 0x14D JUMP JUMPDEST DUP1 PUSH4 0x2A45B250 GT PUSH2 0x115 JUMPI DUP1 PUSH4 0x2A45B250 EQ PUSH2 0x1F4 JUMPI DUP1 PUSH4 0x2B4C32BE EQ PUSH2 0x224 JUMPI DUP1 PUSH4 0x361C1995 EQ PUSH2 0x242 JUMPI DUP1 PUSH4 0x3FC15F15 EQ PUSH2 0x25E JUMPI DUP1 PUSH4 0x517BD451 EQ PUSH2 0x27C JUMPI DUP1 PUSH4 0x5BB47808 EQ PUSH2 0x29F JUMPI PUSH2 0x14D JUMP JUMPDEST DUP1 PUSH4 0x3CE1CB5 EQ PUSH2 0x152 JUMPI DUP1 PUSH4 0xF08EFE0 EQ PUSH2 0x182 JUMPI DUP1 PUSH4 0x10061631 EQ PUSH2 0x1A0 JUMPI DUP1 PUSH4 0x15B12494 EQ PUSH2 0x1BC JUMPI DUP1 PUSH4 0x27CE464E EQ PUSH2 0x1D8 JUMPI JUMPDEST PUSH1 0x0 DUP1 REVERT JUMPDEST PUSH2 0x16C PUSH1 0x4 DUP1 CALLDATASIZE SUB DUP2 ADD SWAP1 PUSH2 0x167 SWAP2 SWAP1 PUSH2 0x2061 JUMP JUMPDEST PUSH2 0x44B JUMP JUMPDEST PUSH1 0x40 MLOAD PUSH2 0x179 SWAP2 SWAP1 PUSH2 0x220F JUMP JUMPDEST PUSH1 0x40 MLOAD DUP1 SWAP2 SUB SWAP1 RETURN JUMPDEST PUSH2 0x18A PUSH2 0x458 JUMP JUMPDEST PUSH1 0x40 MLOAD PUSH2 0x197 SWAP2 SWAP1 PUSH2 0x2323 JUMP JUMPDEST PUSH1 0x40 MLOAD DUP1 SWAP2 SUB SWAP1 RETURN JUMPDEST PUSH2 0x1BA PUSH1 0x4 DUP1 CALLDATASIZE SUB DUP2 ADD SWAP1 PUSH2 0x1B5 SWAP2 SWAP1 PUSH2 0x2061 JUMP JUMPDEST PUSH2 0x577 JUMP JUMPDEST STOP JUMPDEST PUSH2 0x1D6 PUSH1 0x4 DUP1 CALLDATASIZE SUB DUP2 ADD SWAP1 PUSH2 0x1D1 SWAP2 SWAP1 PUSH2 0x236A JUMP JUMPDEST PUSH2 0x9E7 JUMP JUMPDEST STOP JUMPDEST PUSH2 0x1F2 PUSH1 0x4 DUP1 CALLDATASIZE SUB DUP2 ADD SWAP1 PUSH2 0x1ED SWAP2 SWAP1 PUSH2 0x236A JUMP JUMPDEST PUSH2 0xAA7 JUMP JUMPDEST STOP JUMPDEST PUSH2 0x20E PUSH1 0x4 DUP1 CALLDATASIZE SUB DUP2 ADD SWAP1 PUSH2 0x209 SWAP2 SWAP1 PUSH2 0x2061 JUMP JUMPDEST PUSH2 0xB67 JUMP JUMPDEST PUSH1 0x40 MLOAD PUSH2 0x21B SWAP2 SWAP1 PUSH2 0x2323 JUMP JUMPDEST PUSH1 0x40 MLOAD DUP1 SWAP2 SUB SWAP1 RETURN JUMPDEST PUSH2 0x22C PUSH2 0xC9F JUMP JUMPDEST PUSH1 0x40 MLOAD PUSH2 0x239 SWAP2 SWAP1 PUSH2 0x23D2 JUMP JUMPDEST PUSH1 0x40 MLOAD DUP1 SWAP2 SUB SWAP1 RETURN JUMPDEST PUSH2 0x25C PUSH1 0x4 DUP1 CALLDATASIZE SUB DUP2 ADD SWAP1 PUSH2 0x257 SWAP2 SWAP1 PUSH2 0x23ED JUMP JUMPDEST PUSH2 0xCAA JUMP JUMPDEST STOP JUMPDEST PUSH2 0x266 PUSH2 0xF9E JUMP JUMPDEST PUSH1 0x40 MLOAD PUSH2 0x273 SWAP2 SWAP1 PUSH2 0x248C JUMP JUMPDEST PUSH1 0x40 MLOAD DUP1 SWAP2 SUB SWAP1 RETURN JUMPDEST PUSH2 0x284 PUSH2 0xFC4 JUMP JUMPDEST PUSH1 0x40 MLOAD PUSH2 0x296 SWAP7 SWAP6 SWAP5 SWAP4 SWAP3 SWAP2 SWAP1 PUSH2 0x24D4 JUMP JUMPDEST PUSH1 0x40 MLOAD DUP1 SWAP2 SUB SWAP1 RETURN JUMPDEST PUSH2 0x2B9 PUSH1 0x4 DUP1 CALLDATASIZE SUB DUP2 ADD SWAP1 PUSH2 0x2B4 SWAP2 SWAP1 PUSH2 0x236A JUMP JUMPDEST PUSH2 0x103B JUMP JUMPDEST STOP JUMPDEST PUSH2 0x2D5 PUSH1 0x4 DUP1 CALLDATASIZE SUB DUP2 ADD SWAP1 PUSH2 0x2D0 SWAP2 SWAP1 PUSH2 0x2535 JUMP JUMPDEST PUSH2 0x10FB JUMP JUMPDEST PUSH1 0x40 MLOAD PUSH2 0x2E7 SWAP7 SWAP6 SWAP5 SWAP4 SWAP3 SWAP2 SWAP1 PUSH2 0x24D4 JUMP JUMPDEST PUSH1 0x40 MLOAD DUP1 SWAP2 SUB SWAP1 RETURN JUMPDEST PUSH2 0x2F8 PUSH2 0x1191 JUMP JUMPDEST PUSH1 0x40 MLOAD PUSH2 0x305 SWAP2 SWAP1 PUSH2 0x269F JUMP JUMPDEST PUSH1 0x40 MLOAD DUP1 SWAP2 SUB SWAP1 RETURN JUMPDEST PUSH2 0x316 PUSH2 0x14B1 JUMP JUMPDEST STOP JUMPDEST PUSH2 0x320 PUSH2 0x1539 JUMP JUMPDEST PUSH1 0x40 MLOAD PUSH2 0x32D SWAP2 SWAP1 PUSH2 0x26DD JUMP JUMPDEST PUSH1 0x40 MLOAD DUP1 SWAP2 SUB SWAP1 RETURN JUMPDEST PUSH2 0x33E PUSH2 0x154C JUMP JUMPDEST PUSH1 0x40 MLOAD PUSH2 0x34B SWAP2 SWAP1 PUSH2 0x26F8 JUMP JUMPDEST PUSH1 0x40 MLOAD DUP1 SWAP2 SUB SWAP1 RETURN JUMPDEST PUSH2 0x36E PUSH1 0x4 DUP1 CALLDATASIZE SUB DUP2 ADD SWAP1 PUSH2 0x369 SWAP2 SWAP1 PUSH2 0x23ED JUMP JUMPDEST PUSH2 0x1576 JUMP JUMPDEST STOP JUMPDEST PUSH2 0x378 PUSH2 0x1834 JUMP JUMPDEST PUSH1 0x40 MLOAD PUSH2 0x385 SWAP2 SWAP1 PUSH2 0x26DD JUMP JUMPDEST PUSH1 0x40 MLOAD DUP1 SWAP2 SUB SWAP1 RETURN JUMPDEST PUSH2 0x396 PUSH2 0x1847 JUMP JUMPDEST PUSH1 0x40 MLOAD PUSH2 0x3A3 SWAP2 SWAP1 PUSH2 0x2734 JUMP JUMPDEST PUSH1 0x40 MLOAD DUP1 SWAP2 SUB SWAP1 RETURN JUMPDEST PUSH2 0x3C6 PUSH1 0x4 DUP1 CALLDATASIZE SUB DUP2 ADD SWAP1 PUSH2 0x3C1 SWAP2 SWAP1 PUSH2 0x2061 JUMP JUMPDEST PUSH2 0x186D JUMP JUMPDEST PUSH1 0x40 MLOAD PUSH2 0x3D3 SWAP2 SWAP1 PUSH2 0x2323 JUMP JUMPDEST PUSH1 0x40 MLOAD DUP1 SWAP2 SUB SWAP1 RETURN JUMPDEST PUSH2 0x3F6 PUSH1 0x4 DUP1 CALLDATASIZE SUB DUP2 ADD SWAP1 PUSH2 0x3F1 SWAP2 SWAP1 PUSH2 0x236A JUMP JUMPDEST PUSH2 0x199F JUMP JUMPDEST STOP JUMPDEST PUSH2 0x400 PUSH2 0x1A96 JUMP JUMPDEST PUSH1 0x40 MLOAD PUSH2 0x40D SWAP2 SWAP1 PUSH2 0x2770 JUMP JUMPDEST PUSH1 0x40 MLOAD DUP1 SWAP2 SUB SWAP1 RETURN JUMPDEST PUSH2 0x430 PUSH1 0x4 DUP1 CALLDATASIZE SUB DUP2 ADD SWAP1 PUSH2 0x42B SWAP2 SWAP1 PUSH2 0x2061 JUMP JUMPDEST PUSH2 0x1ABC JUMP JUMPDEST PUSH1 0x40 MLOAD PUSH2 0x442 SWAP7 SWAP6 SWAP5 SWAP4 SWAP3 SWAP2 SWAP1 PUSH2 0x24D4 JUMP JUMPDEST PUSH1 0x40 MLOAD DUP1 SWAP2 SUB SWAP1 RETURN JUMPDEST PUSH2 0x453 PUSH2 0x1F5C JUMP JUMPDEST SWAP2 SWAP1 POP JUMP JUMPDEST PUSH2 0x460 PUSH2 0x1FA3 JUMP JUMPDEST PUSH1 0x1 PUSH1 0x40 MLOAD DUP1 PUSH1 0xC0 ADD PUSH1 0x40 MSTORE SWAP1 DUP2 PUSH1 0x0 DUP3 ADD SLOAD DUP2 MSTORE PUSH1 0x20 ADD PUSH1 0x1 DUP3 ADD SLOAD DUP2 MSTORE PUSH1 0x20 ADD PUSH1 0x2 DUP3 ADD PUSH1 0x0 SWAP1 SLOAD SWAP1 PUSH2 0x100 EXP SWAP1 DIV PUSH20 0xFFFFFFFFFFFFFFFFFFFFFFFFFFFFFFFFFFFFFFFF AND PUSH20 0xFFFFFFFFFFFFFFFFFFFFFFFFFFFFFFFFFFFFFFFF AND PUSH20 0xFFFFFFFFFFFFFFFFFFFFFFFFFFFFFFFFFFFFFFFF AND DUP2 MSTORE PUSH1 0x20 ADD PUSH1 0x3 DUP3 ADD PUSH1 0x0 SWAP1 SLOAD SWAP1 PUSH2 0x100 EXP SWAP1 DIV PUSH20 0xFFFFFFFFFFFFFFFFFFFFFFFFFFFFFFFFFFFFFFFF AND PUSH20 0xFFFFFFFFFFFFFFFFFFFFFFFFFFFFFFFFFFFFFFFF AND PUSH20 0xFFFFFFFFFFFFFFFFFFFFFFFFFFFFFFFFFFFFFFFF AND DUP2 MSTORE PUSH1 0x20 ADD PUSH1 0x4 DUP3 ADD SLOAD DUP2 MSTORE PUSH1 0x20 ADD PUSH1 0x5 DUP3 ADD PUSH1 0x0 SWAP1 SLOAD SWAP1 PUSH2 0x100 EXP SWAP1 DIV PUSH1 0xFF AND PUSH1 0x1 DUP2 GT ISZERO PUSH2 0x55C JUMPI PUSH2 0x55B PUSH2 0x2231 JUMP JUMPDEST JUMPDEST PUSH1 0x1 DUP2 GT ISZERO PUSH2 0x56E JUMPI PUSH2 0x56D PUSH2 0x2231 JUMP JUMPDEST JUMPDEST DUP2 MSTORE POP POP SWAP1 POP SWAP1 JUMP JUMPDEST PUSH1 0x0 CALLER SWAP1 POP PUSH1 0x0 PUSH1 0xF PUSH1 0x0 DUP5 DUP2 MSTORE PUSH1 0x20 ADD SWAP1 DUP2 MSTORE PUSH1 0x20 ADD PUSH1 0x0 KECCAK256 PUSH1 0x40 MLOAD DUP1 PUSH1 0xC0 ADD PUSH1 0x40 MSTORE SWAP1 DUP2 PUSH1 0x0 DUP3 ADD SLOAD DUP2 MSTORE PUSH1 0x20 ADD PUSH1 0x1 DUP3 ADD SLOAD DUP2 MSTORE PUSH1 0x20 ADD PUSH1 0x2 DUP3 ADD PUSH1 0x0 SWAP1 SLOAD SWAP1 PUSH2 0x100 EXP SWAP1 DIV PUSH20 0xFFFFFFFFFFFFFFFFFFFFFFFFFFFFFFFFFFFFFFFF AND PUSH20 0xFFFFFFFFFFFFFFFFFFFFFFFFFFFFFFFFFFFFFFFF AND PUSH20 0xFFFFFFFFFFFFFFFFFFFFFFFFFFFFFFFFFFFFFFFF AND DUP2 MSTORE PUSH1 0x20 ADD PUSH1 0x3 DUP3 ADD PUSH1 0x0 SWAP1 SLOAD SWAP1 PUSH2 0x100 EXP SWAP1 DIV PUSH20 0xFFFFFFFFFFFFFFFFFFFFFFFFFFFFFFFFFFFFFFFF AND PUSH20 0xFFFFFFFFFFFFFFFFFFFFFFFFFFFFFFFFFFFFFFFF AND PUSH20 0xFFFFFFFFFFFFFFFFFFFFFFFFFFFFFFFFFFFFFFFF AND DUP2 MSTORE PUSH1 0x20 ADD PUSH1 0x4 DUP3 ADD SLOAD DUP2 MSTORE PUSH1 0x20 ADD PUSH1 0x5 DUP3 ADD PUSH1 0x0 SWAP1 SLOAD SWAP1 PUSH2 0x100 EXP SWAP1 DIV PUSH1 0xFF AND PUSH1 0x1 DUP2 GT ISZERO PUSH2 0x68B JUMPI PUSH2 0x68A PUSH2 0x2231 JUMP JUMPDEST JUMPDEST PUSH1 0x1 DUP2 GT ISZERO PUSH2 0x69D JUMPI PUSH2 0x69C PUSH2 0x2231 JUMP JUMPDEST JUMPDEST DUP2 MSTORE POP POP SWAP1 POP PUSH1 0x0 DUP2 PUSH1 0x0 ADD MLOAD SUB PUSH2 0x6EA JUMPI PUSH1 0x40 MLOAD PUSH32 0x8C379A000000000000000000000000000000000000000000000000000000000 DUP2 MSTORE PUSH1 0x4 ADD PUSH2 0x6E1 SWAP1 PUSH2 0x27E8 JUMP JUMPDEST PUSH1 0x40 MLOAD DUP1 SWAP2 SUB SWAP1 REVERT JUMPDEST PUSH1 0x1 DUP1 DUP2 GT ISZERO PUSH2 0x6FD JUMPI PUSH2 0x6FC PUSH2 0x2231 JUMP JUMPDEST JUMPDEST DUP2 PUSH1 0xA0 ADD MLOAD PUSH1 0x1 DUP2 GT ISZERO PUSH2 0x714 JUMPI PUSH2 0x713 PUSH2 0x2231 JUMP JUMPDEST JUMPDEST EQ PUSH2 0x754 JUMPI PUSH1 0x40 MLOAD PUSH32 0x8C379A000000000000000000000000000000000000000000000000000000000 DUP2 MSTORE PUSH1 0x4 ADD PUSH2 0x74B SWAP1 PUSH2 0x2854 JUMP JUMPDEST PUSH1 0x40 MLOAD DUP1 SWAP2 SUB SWAP1 REVERT JUMPDEST PUSH1 0x0 DUP2 PUSH1 0x40 ADD MLOAD SWAP1 POP PUSH1 0x0 PUSH20 0xFFFFFFFFFFFFFFFFFFFFFFFFFFFFFFFFFFFFFFFF AND DUP2 PUSH20 0xFFFFFFFFFFFFFFFFFFFFFFFFFFFFFFFFFFFFFFFF AND SUB PUSH2 0x7CC JUMPI PUSH1 0x40 MLOAD PUSH32 0x8C379A000000000000000000000000000000000000000000000000000000000 DUP2 MSTORE PUSH1 0x4 ADD PUSH2 0x7C3 SWAP1 PUSH2 0x28C0 JUMP JUMPDEST PUSH1 0x40 MLOAD DUP1 SWAP2 SUB SWAP1 REVERT JUMPDEST CALLER PUSH20 0xFFFFFFFFFFFFFFFFFFFFFFFFFFFFFFFFFFFFFFFF AND DUP2 PUSH20 0xFFFFFFFFFFFFFFFFFFFFFFFFFFFFFFFFFFFFFFFF AND EQ PUSH2 0x83A JUMPI PUSH1 0x40 MLOAD PUSH32 0x8C379A000000000000000000000000000000000000000000000000000000000 DUP2 MSTORE PUSH1 0x4 ADD PUSH2 0x831 SWAP1 PUSH2 0x292C JUMP JUMPDEST PUSH1 0x40 MLOAD DUP1 SWAP2 SUB SWAP1 REVERT JUMPDEST PUSH1 0xB PUSH1 0x0 SWAP1 SLOAD SWAP1 PUSH2 0x100 EXP SWAP1 DIV PUSH20 0xFFFFFFFFFFFFFFFFFFFFFFFFFFFFFFFFFFFFFFFF AND PUSH20 0xFFFFFFFFFFFFFFFFFFFFFFFFFFFFFFFFFFFFFFFF AND PUSH4 0x42842E0E ADDRESS DUP4 DUP8 PUSH1 0x40 MLOAD DUP5 PUSH4 0xFFFFFFFF AND PUSH1 0xE0 SHL DUP2 MSTORE PUSH1 0x4 ADD PUSH2 0x899 SWAP4 SWAP3 SWAP2 SWAP1 PUSH2 0x294C JUMP JUMPDEST PUSH1 0x0 PUSH1 0x40 MLOAD DUP1 DUP4 SUB DUP2 PUSH1 0x0 DUP8 DUP1 EXTCODESIZE ISZERO DUP1 ISZERO PUSH2 0x8B3 JUMPI PUSH1 0x0 DUP1 REVERT JUMPDEST POP GAS CALL ISZERO DUP1 ISZERO PUSH2 0x8C7 JUMPI RETURNDATASIZE PUSH1 0x0 DUP1 RETURNDATACOPY RETURNDATASIZE PUSH1 0x0 REVERT JUMPDEST POP POP POP POP PUSH1 0x0 DUP3 PUSH1 0xA0 ADD SWAP1 PUSH1 0x1 DUP2 GT ISZERO PUSH2 0x8E4 JUMPI PUSH2 0x8E3 PUSH2 0x2231 JUMP JUMPDEST JUMPDEST SWAP1 DUP2 PUSH1 0x1 DUP2 GT ISZERO PUSH2 0x8F8 JUMPI PUSH2 0x8F7 PUSH2 0x2231 JUMP JUMPDEST JUMPDEST DUP2 MSTORE POP POP PUSH1 0xF PUSH1 0x0 DUP6 DUP2 MSTORE PUSH1 0x20 ADD SWAP1 DUP2 MSTORE PUSH1 0x20 ADD PUSH1 0x0 KECCAK256 PUSH1 0x0 DUP1 DUP3 ADD PUSH1 0x0 SWAP1 SSTORE PUSH1 0x1 DUP3 ADD PUSH1 0x0 SWAP1 SSTORE PUSH1 0x2 DUP3 ADD PUSH1 0x0 PUSH2 0x100 EXP DUP2 SLOAD SWAP1 PUSH20 0xFFFFFFFFFFFFFFFFFFFFFFFFFFFFFFFFFFFFFFFF MUL NOT AND SWAP1 SSTORE PUSH1 0x3 DUP3 ADD PUSH1 0x0 PUSH2 0x100 EXP DUP2 SLOAD SWAP1 PUSH20 0xFFFFFFFFFFFFFFFFFFFFFFFFFFFFFFFFFFFFFFFF MUL NOT AND SWAP1 SSTORE PUSH1 0x4 DUP3 ADD PUSH1 0x0 SWAP1 SSTORE PUSH1 0x5 DUP3 ADD PUSH1 0x0 PUSH2 0x100 EXP DUP2 SLOAD SWAP1 PUSH1 0xFF MUL NOT AND SWAP1 SSTORE POP POP DUP3 PUSH20 0xFFFFFFFFFFFFFFFFFFFFFFFFFFFFFFFFFFFFFFFF AND DUP5 PUSH32 0x72FFC2A266ACBA5F77E2B49400103CB61B428F37A97057EBE671E83FDDD71E67 DUP5 PUSH1 0x0 ADD MLOAD TIMESTAMP PUSH1 0x40 MLOAD PUSH2 0x9D9 SWAP3 SWAP2 SWAP1 PUSH2 0x2983 JUMP JUMPDEST PUSH1 0x40 MLOAD DUP1 SWAP2 SUB SWAP1 LOG3 POP POP POP POP JUMP JUMPDEST PUSH2 0x9EF PUSH2 0x1B45 JUMP JUMPDEST PUSH20 0xFFFFFFFFFFFFFFFFFFFFFFFFFFFFFFFFFFFFFFFF AND PUSH2 0xA0D PUSH2 0x154C JUMP JUMPDEST PUSH20 0xFFFFFFFFFFFFFFFFFFFFFFFFFFFFFFFFFFFFFFFF AND EQ PUSH2 0xA63 JUMPI PUSH1 0x40 MLOAD PUSH32 0x8C379A000000000000000000000000000000000000000000000000000000000 DUP2 MSTORE PUSH1 0x4 ADD PUSH2 0xA5A SWAP1 PUSH2 0x29F8 JUMP JUMPDEST PUSH1 0x40 MLOAD DUP1 SWAP2 SUB SWAP1 REVERT JUMPDEST DUP1 PUSH1 0xB PUSH1 0x0 PUSH2 0x100 EXP DUP2 SLOAD DUP2 PUSH20 0xFFFFFFFFFFFFFFFFFFFFFFFFFFFFFFFFFFFFFFFF MUL NOT AND SWAP1 DUP4 PUSH20 0xFFFFFFFFFFFFFFFFFFFFFFFFFFFFFFFFFFFFFFFF AND MUL OR SWAP1 SSTORE POP POP JUMP JUMPDEST PUSH2 0xAAF PUSH2 0x1B45 JUMP JUMPDEST PUSH20 0xFFFFFFFFFFFFFFFFFFFFFFFFFFFFFFFFFFFFFFFF AND PUSH2 0xACD PUSH2 0x154C JUMP JUMPDEST PUSH20 0xFFFFFFFFFFFFFFFFFFFFFFFFFFFFFFFFFFFFFFFF AND EQ PUSH2 0xB23 JUMPI PUSH1 0x40 MLOAD PUSH32 0x8C379A000000000000000000000000000000000000000000000000000000000 DUP2 MSTORE PUSH1 0x4 ADD PUSH2 0xB1A SWAP1 PUSH2 0x29F8 JUMP JUMPDEST PUSH1 0x40 MLOAD DUP1 SWAP2 SUB SWAP1 REVERT JUMPDEST DUP1 PUSH1 0x9 PUSH1 0x0 PUSH2 0x100 EXP DUP2 SLOAD DUP2 PUSH20 0xFFFFFFFFFFFFFFFFFFFFFFFFFFFFFFFFFFFFFFFF MUL NOT AND SWAP1 DUP4 PUSH20 0xFFFFFFFFFFFFFFFFFFFFFFFFFFFFFFFFFFFFFFFF AND MUL OR SWAP1 SSTORE POP POP JUMP JUMPDEST PUSH2 0xB6F PUSH2 0x1FA3 JUMP JUMPDEST PUSH1 0x0 PUSH1 0xF PUSH1 0x0 DUP5 DUP2 MSTORE PUSH1 0x20 ADD SWAP1 DUP2 MSTORE PUSH1 0x20 ADD PUSH1 0x0 KECCAK256 PUSH1 0x40 MLOAD DUP1 PUSH1 0xC0 ADD PUSH1 0x40 MSTORE SWAP1 DUP2 PUSH1 0x0 DUP3 ADD SLOAD DUP2 MSTORE PUSH1 0x20 ADD PUSH1 0x1 DUP3 ADD SLOAD DUP2 MSTORE PUSH1 0x20 ADD PUSH1 0x2 DUP3 ADD PUSH1 0x0 SWAP1 SLOAD SWAP1 PUSH2 0x100 EXP SWAP1 DIV PUSH20 0xFFFFFFFFFFFFFFFFFFFFFFFFFFFFFFFFFFFFFFFF AND PUSH20 0xFFFFFFFFFFFFFFFFFFFFFFFFFFFFFFFFFFFFFFFF AND PUSH20 0xFFFFFFFFFFFFFFFFFFFFFFFFFFFFFFFFFFFFFFFF AND DUP2 MSTORE PUSH1 0x20 ADD PUSH1 0x3 DUP3 ADD PUSH1 0x0 SWAP1 SLOAD SWAP1 PUSH2 0x100 EXP SWAP1 DIV PUSH20 0xFFFFFFFFFFFFFFFFFFFFFFFFFFFFFFFFFFFFFFFF AND PUSH20 0xFFFFFFFFFFFFFFFFFFFFFFFFFFFFFFFFFFFFFFFF AND PUSH20 0xFFFFFFFFFFFFFFFFFFFFFFFFFFFFFFFFFFFFFFFF AND DUP2 MSTORE PUSH1 0x20 ADD PUSH1 0x4 DUP3 ADD SLOAD DUP2 MSTORE PUSH1 0x20 ADD PUSH1 0x5 DUP3 ADD PUSH1 0x0 SWAP1 SLOAD SWAP1 PUSH2 0x100 EXP SWAP1 DIV PUSH1 0xFF AND PUSH1 0x1 DUP2 GT ISZERO PUSH2 0xC7E JUMPI PUSH2 0xC7D PUSH2 0x2231 JUMP JUMPDEST JUMPDEST PUSH1 0x1 DUP2 GT ISZERO PUSH2 0xC90 JUMPI PUSH2 0xC8F PUSH2 0x2231 JUMP JUMPDEST JUMPDEST DUP2 MSTORE POP POP SWAP1 POP DUP1 SWAP2 POP POP SWAP2 SWAP1 POP JUMP JUMPDEST PUSH4 0x80AC58CD PUSH1 0xE0 SHL DUP2 JUMP JUMPDEST PUSH1 0x0 DUP2 GT PUSH2 0xCED JUMPI PUSH1 0x40 MLOAD PUSH32 0x8C379A000000000000000000000000000000000000000000000000000000000 DUP2 MSTORE PUSH1 0x4 ADD PUSH2 0xCE4 SWAP1 PUSH2 0x2A64 JUMP JUMPDEST PUSH1 0x40 MLOAD DUP1 SWAP2 SUB SWAP1 REVERT JUMPDEST PUSH1 0x0 PUSH1 0xA PUSH1 0x0 SWAP1 SLOAD SWAP1 PUSH2 0x100 EXP SWAP1 DIV PUSH20 0xFFFFFFFFFFFFFFFFFFFFFFFFFFFFFFFFFFFFFFFF AND PUSH20 0xFFFFFFFFFFFFFFFFFFFFFFFFFFFFFFFFFFFFFFFF AND PUSH4 0xD30BDAC9 DUP5 PUSH1 0x40 MLOAD DUP3 PUSH4 0xFFFFFFFF AND PUSH1 0xE0 SHL DUP2 MSTORE PUSH1 0x4 ADD PUSH2 0xD4A SWAP2 SWAP1 PUSH2 0x2A84 JUMP JUMPDEST PUSH1 0x0 PUSH1 0x40 MLOAD DUP1 DUP4 SUB DUP2 DUP7 GAS STATICCALL ISZERO DUP1 ISZERO PUSH2 0xD67 JUMPI RETURNDATASIZE PUSH1 0x0 DUP1 RETURNDATACOPY RETURNDATASIZE PUSH1 0x0 REVERT JUMPDEST POP POP POP POP PUSH1 0x40 MLOAD RETURNDATASIZE PUSH1 0x0 DUP3 RETURNDATACOPY RETURNDATASIZE PUSH1 0x1F NOT PUSH1 0x1F DUP3 ADD AND DUP3 ADD DUP1 PUSH1 0x40 MSTORE POP DUP2 ADD SWAP1 PUSH2 0xD90 SWAP2 SWAP1 PUSH2 0x2CE9 JUMP JUMPDEST SWAP1 POP PUSH1 0x0 ISZERO ISZERO DUP2 PUSH1 0x80 ADD MLOAD ISZERO ISZERO EQ PUSH2 0xDDD JUMPI PUSH1 0x40 MLOAD PUSH32 0x8C379A000000000000000000000000000000000000000000000000000000000 DUP2 MSTORE PUSH1 0x4 ADD PUSH2 0xDD4 SWAP1 PUSH2 0x2D7E JUMP JUMPDEST PUSH1 0x40 MLOAD DUP1 SWAP2 SUB SWAP1 REVERT JUMPDEST PUSH2 0xDE6 DUP4 PUSH2 0x1B4D JUMP JUMPDEST PUSH1 0x0 PUSH2 0xDF2 PUSH1 0xD PUSH2 0x1C72 JUMP JUMPDEST SWAP1 POP PUSH1 0x40 MLOAD DUP1 PUSH1 0xC0 ADD PUSH1 0x40 MSTORE DUP1 DUP3 DUP2 MSTORE PUSH1 0x20 ADD DUP6 DUP2 MSTORE PUSH1 0x20 ADD CALLER PUSH20 0xFFFFFFFFFFFFFFFFFFFFFFFFFFFFFFFFFFFFFFFF AND DUP2 MSTORE PUSH1 0x20 ADD ADDRESS PUSH20 0xFFFFFFFFFFFFFFFFFFFFFFFFFFFFFFFFFFFFFFFF AND DUP2 MSTORE PUSH1 0x20 ADD DUP5 DUP2 MSTORE PUSH1 0x20 ADD PUSH1 0x1 DUP1 DUP2 GT ISZERO PUSH2 0xE5C JUMPI PUSH2 0xE5B PUSH2 0x2231 JUMP JUMPDEST JUMPDEST DUP2 MSTORE POP PUSH1 0xF PUSH1 0x0 DUP4 DUP2 MSTORE PUSH1 0x20 ADD SWAP1 DUP2 MSTORE PUSH1 0x20 ADD PUSH1 0x0 KECCAK256 PUSH1 0x0 DUP3 ADD MLOAD DUP2 PUSH1 0x0 ADD SSTORE PUSH1 0x20 DUP3 ADD MLOAD DUP2 PUSH1 0x1 ADD SSTORE PUSH1 0x40 DUP3 ADD MLOAD DUP2 PUSH1 0x2 ADD PUSH1 0x0 PUSH2 0x100 EXP DUP2 SLOAD DUP2 PUSH20 0xFFFFFFFFFFFFFFFFFFFFFFFFFFFFFFFFFFFFFFFF MUL NOT AND SWAP1 DUP4 PUSH20 0xFFFFFFFFFFFFFFFFFFFFFFFFFFFFFFFFFFFFFFFF AND MUL OR SWAP1 SSTORE POP PUSH1 0x60 DUP3 ADD MLOAD DUP2 PUSH1 0x3 ADD PUSH1 0x0 PUSH2 0x100 EXP DUP2 SLOAD DUP2 PUSH20 0xFFFFFFFFFFFFFFFFFFFFFFFFFFFFFFFFFFFFFFFF MUL NOT AND SWAP1 DUP4 PUSH20 0xFFFFFFFFFFFFFFFFFFFFFFFFFFFFFFFFFFFFFFFF AND MUL OR SWAP1 SSTORE POP PUSH1 0x80 DUP3 ADD MLOAD DUP2 PUSH1 0x4 ADD SSTORE PUSH1 0xA0 DUP3 ADD MLOAD DUP2 PUSH1 0x5 ADD PUSH1 0x0 PUSH2 0x100 EXP DUP2 SLOAD DUP2 PUSH1 0xFF MUL NOT AND SWAP1 DUP4 PUSH1 0x1 DUP2 GT ISZERO PUSH2 0xF49 JUMPI PUSH2 0xF48 PUSH2 0x2231 JUMP JUMPDEST JUMPDEST MUL OR SWAP1 SSTORE POP SWAP1 POP POP PUSH2 0xF5B PUSH1 0xD PUSH2 0x1C80 JUMP JUMPDEST DUP4 DUP2 PUSH32 0x38690A554FFBC44EB6A75016E47D517D0DB8E6C37494ADC68D6D0B2C66F0AB21 CALLER ADDRESS DUP8 PUSH1 0x40 MLOAD PUSH2 0xF90 SWAP4 SWAP3 SWAP2 SWAP1 PUSH2 0x294C JUMP JUMPDEST PUSH1 0x40 MLOAD DUP1 SWAP2 SUB SWAP1 LOG3 POP POP POP POP JUMP JUMPDEST PUSH1 0x9 PUSH1 0x0 SWAP1 SLOAD SWAP1 PUSH2 0x100 EXP SWAP1 DIV PUSH20 0xFFFFFFFFFFFFFFFFFFFFFFFFFFFFFFFFFFFFFFFF AND DUP2 JUMP JUMPDEST PUSH1 0x1 DUP1 PUSH1 0x0 ADD SLOAD SWAP1 DUP1 PUSH1 0x1 ADD SLOAD SWAP1 DUP1 PUSH1 0x2 ADD PUSH1 0x0 SWAP1 SLOAD SWAP1 PUSH2 0x100 EXP SWAP1 DIV PUSH20 0xFFFFFFFFFFFFFFFFFFFFFFFFFFFFFFFFFFFFFFFF AND SWAP1 DUP1 PUSH1 0x3 ADD PUSH1 0x0 SWAP1 SLOAD SWAP1 PUSH2 0x100 EXP SWAP1 DIV PUSH20 0xFFFFFFFFFFFFFFFFFFFFFFFFFFFFFFFFFFFFFFFF AND SWAP1 DUP1 PUSH1 0x4 ADD SLOAD SWAP1 DUP1 PUSH1 0x5 ADD PUSH1 0x0 SWAP1 SLOAD SWAP1 PUSH2 0x100 EXP SWAP1 DIV PUSH1 0xFF AND SWAP1 POP DUP7 JUMP JUMPDEST PUSH2 0x1043 PUSH2 0x1B45 JUMP JUMPDEST PUSH20 0xFFFFFFFFFFFFFFFFFFFFFFFFFFFFFFFFFFFFFFFF AND PUSH2 0x1061 PUSH2 0x154C JUMP JUMPDEST PUSH20 0xFFFFFFFFFFFFFFFFFFFFFFFFFFFFFFFFFFFFFFFF AND EQ PUSH2 0x10B7 JUMPI PUSH1 0x40 MLOAD PUSH32 0x8C379A000000000000000000000000000000000000000000000000000000000 DUP2 MSTORE PUSH1 0x4 ADD PUSH2 0x10AE SWAP1 PUSH2 0x29F8 JUMP JUMPDEST PUSH1 0x40 MLOAD DUP1 SWAP2 SUB SWAP1 REVERT JUMPDEST DUP1 PUSH1 0xA PUSH1 0x0 PUSH2 0x100 EXP DUP2 SLOAD DUP2 PUSH20 0xFFFFFFFFFFFFFFFFFFFFFFFFFFFFFFFFFFFFFFFF MUL NOT AND SWAP1 DUP4 PUSH20 0xFFFFFFFFFFFFFFFFFFFFFFFFFFFFFFFFFFFFFFFF AND MUL OR SWAP1 SSTORE POP POP JUMP JUMPDEST PUSH1 0x8 PUSH1 0x20 MSTORE DUP2 PUSH1 0x0 MSTORE PUSH1 0x40 PUSH1 0x0 KECCAK256 PUSH1 0x20 MSTORE DUP1 PUSH1 0x0 MSTORE PUSH1 0x40 PUSH1 0x0 KECCAK256 PUSH1 0x0 SWAP2 POP SWAP2 POP POP DUP1 PUSH1 0x0 ADD SLOAD SWAP1 DUP1 PUSH1 0x1 ADD SLOAD SWAP1 DUP1 PUSH1 0x2 ADD PUSH1 0x0 SWAP1 SLOAD SWAP1 PUSH2 0x100 EXP SWAP1 DIV PUSH20 0xFFFFFFFFFFFFFFFFFFFFFFFFFFFFFFFFFFFFFFFF AND SWAP1 DUP1 PUSH1 0x3 ADD PUSH1 0x0 SWAP1 SLOAD SWAP1 PUSH2 0x100 EXP SWAP1 DIV PUSH20 0xFFFFFFFFFFFFFFFFFFFFFFFFFFFFFFFFFFFFFFFF AND SWAP1 DUP1 PUSH1 0x4 ADD SLOAD SWAP1 DUP1 PUSH1 0x5 ADD PUSH1 0x0 SWAP1 SLOAD SWAP1 PUSH2 0x100 EXP SWAP1 DIV PUSH1 0xFF AND SWAP1 POP DUP7 JUMP JUMPDEST PUSH1 0x60 PUSH1 0x0 PUSH2 0x119F PUSH1 0xD PUSH2 0x1C72 JUMP JUMPDEST SWAP1 POP PUSH1 0x0 DUP1 PUSH1 0x0 JUMPDEST DUP4 DUP2 LT ISZERO PUSH2 0x123B JUMPI CALLER PUSH20 0xFFFFFFFFFFFFFFFFFFFFFFFFFFFFFFFFFFFFFFFF AND PUSH1 0xF PUSH1 0x0 DUP4 DUP2 MSTORE PUSH1 0x20 ADD SWAP1 DUP2 MSTORE PUSH1 0x20 ADD PUSH1 0x0 KECCAK256 PUSH1 0x3 ADD PUSH1 0x0 SWAP1 SLOAD SWAP1 PUSH2 0x100 EXP SWAP1 DIV PUSH20 0xFFFFFFFFFFFFFFFFFFFFFFFFFFFFFFFFFFFFFFFF AND PUSH20 0xFFFFFFFFFFFFFFFFFFFFFFFFFFFFFFFFFFFFFFFF AND SUB PUSH2 0x1228 JUMPI PUSH1 0x1 DUP4 PUSH2 0x1225 SWAP2 SWAP1 PUSH2 0x2DCD JUMP JUMPDEST SWAP3 POP JUMPDEST DUP1 DUP1 PUSH2 0x1233 SWAP1 PUSH2 0x2E23 JUMP JUMPDEST SWAP2 POP POP PUSH2 0x11A7 JUMP JUMPDEST POP PUSH1 0x0 DUP3 PUSH8 0xFFFFFFFFFFFFFFFF DUP2 GT ISZERO PUSH2 0x1258 JUMPI PUSH2 0x1257 PUSH2 0x2AA4 JUMP JUMPDEST JUMPDEST PUSH1 0x40 MLOAD SWAP1 DUP1 DUP3 MSTORE DUP1 PUSH1 0x20 MUL PUSH1 0x20 ADD DUP3 ADD PUSH1 0x40 MSTORE DUP1 ISZERO PUSH2 0x1291 JUMPI DUP2 PUSH1 0x20 ADD JUMPDEST PUSH2 0x127E PUSH2 0x1FA3 JUMP JUMPDEST DUP2 MSTORE PUSH1 0x20 ADD SWAP1 PUSH1 0x1 SWAP1 SUB SWAP1 DUP2 PUSH2 0x1276 JUMPI SWAP1 POP JUMPDEST POP SWAP1 POP PUSH1 0x0 JUMPDEST DUP5 DUP2 LT ISZERO PUSH2 0x14A6 JUMPI CALLER PUSH20 0xFFFFFFFFFFFFFFFFFFFFFFFFFFFFFFFFFFFFFFFF AND PUSH1 0xF PUSH1 0x0 PUSH1 0x1 DUP5 PUSH2 0x12C7 SWAP2 SWAP1 PUSH2 0x2DCD JUMP JUMPDEST DUP2 MSTORE PUSH1 0x20 ADD SWAP1 DUP2 MSTORE PUSH1 0x20 ADD PUSH1 0x0 KECCAK256 PUSH1 0x3 ADD PUSH1 0x0 SWAP1 SLOAD SWAP1 PUSH2 0x100 EXP SWAP1 DIV PUSH20 0xFFFFFFFFFFFFFFFFFFFFFFFFFFFFFFFFFFFFFFFF AND PUSH20 0xFFFFFFFFFFFFFFFFFFFFFFFFFFFFFFFFFFFFFFFF AND SUB PUSH2 0x1493 JUMPI PUSH1 0x0 PUSH1 0xF PUSH1 0x0 PUSH1 0x1 DUP5 PUSH2 0x1327 SWAP2 SWAP1 PUSH2 0x2DCD JUMP JUMPDEST DUP2 MSTORE PUSH1 0x20 ADD SWAP1 DUP2 MSTORE PUSH1 0x20 ADD PUSH1 0x0 KECCAK256 PUSH1 0x0 ADD SLOAD SWAP1 POP PUSH1 0x0 PUSH1 0xF PUSH1 0x0 DUP4 DUP2 MSTORE PUSH1 0x20 ADD SWAP1 DUP2 MSTORE PUSH1 0x20 ADD PUSH1 0x0 KECCAK256 SWAP1 POP DUP1 PUSH1 0x40 MLOAD DUP1 PUSH1 0xC0 ADD PUSH1 0x40 MSTORE SWAP1 DUP2 PUSH1 0x0 DUP3 ADD SLOAD DUP2 MSTORE PUSH1 0x20 ADD PUSH1 0x1 DUP3 ADD SLOAD DUP2 MSTORE PUSH1 0x20 ADD PUSH1 0x2 DUP3 ADD PUSH1 0x0 SWAP1 SLOAD SWAP1 PUSH2 0x100 EXP SWAP1 DIV PUSH20 0xFFFFFFFFFFFFFFFFFFFFFFFFFFFFFFFFFFFFFFFF AND PUSH20 0xFFFFFFFFFFFFFFFFFFFFFFFFFFFFFFFFFFFFFFFF AND PUSH20 0xFFFFFFFFFFFFFFFFFFFFFFFFFFFFFFFFFFFFFFFF AND DUP2 MSTORE PUSH1 0x20 ADD PUSH1 0x3 DUP3 ADD PUSH1 0x0 SWAP1 SLOAD SWAP1 PUSH2 0x100 EXP SWAP1 DIV PUSH20 0xFFFFFFFFFFFFFFFFFFFFFFFFFFFFFFFFFFFFFFFF AND PUSH20 0xFFFFFFFFFFFFFFFFFFFFFFFFFFFFFFFFFFFFFFFF AND PUSH20 0xFFFFFFFFFFFFFFFFFFFFFFFFFFFFFFFFFFFFFFFF AND DUP2 MSTORE PUSH1 0x20 ADD PUSH1 0x4 DUP3 ADD SLOAD DUP2 MSTORE PUSH1 0x20 ADD PUSH1 0x5 DUP3 ADD PUSH1 0x0 SWAP1 SLOAD SWAP1 PUSH2 0x100 EXP SWAP1 DIV PUSH1 0xFF AND PUSH1 0x1 DUP2 GT ISZERO PUSH2 0x144D JUMPI PUSH2 0x144C PUSH2 0x2231 JUMP JUMPDEST JUMPDEST PUSH1 0x1 DUP2 GT ISZERO PUSH2 0x145F JUMPI PUSH2 0x145E PUSH2 0x2231 JUMP JUMPDEST JUMPDEST DUP2 MSTORE POP POP DUP5 DUP7 DUP2 MLOAD DUP2 LT PUSH2 0x1476 JUMPI PUSH2 0x1475 PUSH2 0x2E6B JUMP JUMPDEST JUMPDEST PUSH1 0x20 MUL PUSH1 0x20 ADD ADD DUP2 SWAP1 MSTORE POP PUSH1 0x1 DUP6 PUSH2 0x148E SWAP2 SWAP1 PUSH2 0x2DCD JUMP JUMPDEST SWAP5 POP POP POP JUMPDEST DUP1 DUP1 PUSH2 0x149E SWAP1 PUSH2 0x2E23 JUMP JUMPDEST SWAP2 POP POP PUSH2 0x1297 JUMP JUMPDEST POP DUP1 SWAP5 POP POP POP POP POP SWAP1 JUMP JUMPDEST PUSH2 0x14B9 PUSH2 0x1B45 JUMP JUMPDEST PUSH20 0xFFFFFFFFFFFFFFFFFFFFFFFFFFFFFFFFFFFFFFFF AND PUSH2 0x14D7 PUSH2 0x154C JUMP JUMPDEST PUSH20 0xFFFFFFFFFFFFFFFFFFFFFFFFFFFFFFFFFFFFFFFF AND EQ PUSH2 0x152D JUMPI PUSH1 0x40 MLOAD PUSH32 0x8C379A000000000000000000000000000000000000000000000000000000000 DUP2 MSTORE PUSH1 0x4 ADD PUSH2 0x1524 SWAP1 PUSH2 0x29F8 JUMP JUMPDEST PUSH1 0x40 MLOAD DUP1 SWAP2 SUB SWAP1 REVERT JUMPDEST PUSH2 0x1537 PUSH1 0x0 PUSH2 0x1C96 JUMP JUMPDEST JUMP JUMPDEST PUSH1 0xB PUSH1 0x14 SWAP1 SLOAD SWAP1 PUSH2 0x100 EXP SWAP1 DIV PUSH1 0xFF AND DUP2 JUMP JUMPDEST PUSH1 0x0 PUSH1 0xC PUSH1 0x0 SWAP1 SLOAD SWAP1 PUSH2 0x100 EXP SWAP1 DIV PUSH20 0xFFFFFFFFFFFFFFFFFFFFFFFFFFFFFFFFFFFFFFFF AND SWAP1 POP SWAP1 JUMP JUMPDEST PUSH1 0x0 PUSH1 0xF PUSH1 0x0 DUP5 DUP2 MSTORE PUSH1 0x20 ADD SWAP1 DUP2 MSTORE PUSH1 0x20 ADD PUSH1 0x0 KECCAK256 PUSH1 0x4 ADD SLOAD SWAP1 POP PUSH1 0x0 PUSH1 0xF PUSH1 0x0 DUP6 DUP2 MSTORE PUSH1 0x20 ADD SWAP1 DUP2 MSTORE PUSH1 0x20 ADD PUSH1 0x0 KECCAK256 PUSH1 0x1 ADD SLOAD SWAP1 POP PUSH1 0x0 PUSH1 0xF PUSH1 0x0 DUP7 DUP2 MSTORE PUSH1 0x20 ADD SWAP1 DUP2 MSTORE PUSH1 0x20 ADD PUSH1 0x0 KECCAK256 PUSH1 0x2 ADD PUSH1 0x0 SWAP1 SLOAD SWAP1 PUSH2 0x100 EXP SWAP1 DIV PUSH20 0xFFFFFFFFFFFFFFFFFFFFFFFFFFFFFFFFFFFFFFFF AND SWAP1 POP PUSH1 0x0 PUSH1 0xA PUSH1 0x0 SWAP1 SLOAD SWAP1 PUSH2 0x100 EXP SWAP1 DIV PUSH20 0xFFFFFFFFFFFFFFFFFFFFFFFFFFFFFFFFFFFFFFFF AND PUSH20 0xFFFFFFFFFFFFFFFFFFFFFFFFFFFFFFFFFFFFFFFF AND PUSH4 0xD30BDAC9 DUP5 PUSH1 0x40 MLOAD DUP3 PUSH4 0xFFFFFFFF AND PUSH1 0xE0 SHL DUP2 MSTORE PUSH1 0x4 ADD PUSH2 0x1644 SWAP2 SWAP1 PUSH2 0x2A84 JUMP JUMPDEST PUSH1 0x0 PUSH1 0x40 MLOAD DUP1 DUP4 SUB DUP2 DUP7 GAS STATICCALL ISZERO DUP1 ISZERO PUSH2 0x1661 JUMPI RETURNDATASIZE PUSH1 0x0 DUP1 RETURNDATACOPY RETURNDATASIZE PUSH1 0x0 REVERT JUMPDEST POP POP POP POP PUSH1 0x40 MLOAD RETURNDATASIZE PUSH1 0x0 DUP3 RETURNDATACOPY RETURNDATASIZE PUSH1 0x1F NOT PUSH1 0x1F DUP3 ADD AND DUP3 ADD DUP1 PUSH1 0x40 MSTORE POP DUP2 ADD SWAP1 PUSH2 0x168A SWAP2 SWAP1 PUSH2 0x2CE9 JUMP JUMPDEST SWAP1 POP DUP4 DUP6 EQ PUSH2 0x16CE JUMPI PUSH1 0x40 MLOAD PUSH32 0x8C379A000000000000000000000000000000000000000000000000000000000 DUP2 MSTORE PUSH1 0x4 ADD PUSH2 0x16C5 SWAP1 PUSH2 0x2F0C JUMP JUMPDEST PUSH1 0x40 MLOAD DUP1 SWAP2 SUB SWAP1 REVERT JUMPDEST PUSH1 0x0 ISZERO ISZERO DUP2 PUSH1 0x80 ADD MLOAD ISZERO ISZERO EQ PUSH2 0x1719 JUMPI PUSH1 0x40 MLOAD PUSH32 0x8C379A000000000000000000000000000000000000000000000000000000000 DUP2 MSTORE PUSH1 0x4 ADD PUSH2 0x1710 SWAP1 PUSH2 0x2D7E JUMP JUMPDEST PUSH1 0x40 MLOAD DUP1 SWAP2 SUB SWAP1 REVERT JUMPDEST PUSH2 0x1724 DUP7 DUP7 DUP6 PUSH2 0x1D5C JUMP JUMPDEST CALLER PUSH1 0xF PUSH1 0x0 DUP9 DUP2 MSTORE PUSH1 0x20 ADD SWAP1 DUP2 MSTORE PUSH1 0x20 ADD PUSH1 0x0 KECCAK256 PUSH1 0x3 ADD PUSH1 0x0 PUSH2 0x100 EXP DUP2 SLOAD DUP2 PUSH20 0xFFFFFFFFFFFFFFFFFFFFFFFFFFFFFFFFFFFFFFFF MUL NOT AND SWAP1 DUP4 PUSH20 0xFFFFFFFFFFFFFFFFFFFFFFFFFFFFFFFFFFFFFFFF AND MUL OR SWAP1 SSTORE POP PUSH1 0x0 PUSH1 0xF PUSH1 0x0 DUP9 DUP2 MSTORE PUSH1 0x20 ADD SWAP1 DUP2 MSTORE PUSH1 0x20 ADD PUSH1 0x0 KECCAK256 PUSH1 0x5 ADD PUSH1 0x0 PUSH2 0x100 EXP DUP2 SLOAD DUP2 PUSH1 0xFF MUL NOT AND SWAP1 DUP4 PUSH1 0x1 DUP2 GT ISZERO PUSH2 0x17B3 JUMPI PUSH2 0x17B2 PUSH2 0x2231 JUMP JUMPDEST JUMPDEST MUL OR SWAP1 SSTORE POP PUSH2 0x17C2 PUSH1 0xE PUSH2 0x1C80 JUMP JUMPDEST CALLER PUSH20 0xFFFFFFFFFFFFFFFFFFFFFFFFFFFFFFFFFFFFFFFF AND DUP3 PUSH20 0xFFFFFFFFFFFFFFFFFFFFFFFFFFFFFFFFFFFFFFFF AND DUP5 PUSH32 0x551327AEE12D0A8B3EDE8D0E3182A40A5FF3ED9F1811DD622915DB30B609B7DF DUP10 DUP9 TIMESTAMP PUSH1 0x40 MLOAD PUSH2 0x1824 SWAP4 SWAP3 SWAP2 SWAP1 PUSH2 0x2F78 JUMP JUMPDEST PUSH1 0x40 MLOAD DUP1 SWAP2 SUB SWAP1 LOG4 POP POP POP POP POP POP JUMP JUMPDEST PUSH1 0xB PUSH1 0x15 SWAP1 SLOAD SWAP1 PUSH2 0x100 EXP SWAP1 DIV PUSH1 0xFF AND DUP2 JUMP JUMPDEST PUSH1 0xA PUSH1 0x0 SWAP1 SLOAD SWAP1 PUSH2 0x100 EXP SWAP1 DIV PUSH20 0xFFFFFFFFFFFFFFFFFFFFFFFFFFFFFFFFFFFFFFFF AND DUP2 JUMP JUMPDEST PUSH2 0x1875 PUSH2 0x1FA3 JUMP JUMPDEST PUSH1 0xF PUSH1 0x0 DUP4 DUP2 MSTORE PUSH1 0x20 ADD SWAP1 DUP2 MSTORE PUSH1 0x20 ADD PUSH1 0x0 KECCAK256 PUSH1 0x40 MLOAD DUP1 PUSH1 0xC0 ADD PUSH1 0x40 MSTORE SWAP1 DUP2 PUSH1 0x0 DUP3 ADD SLOAD DUP2 MSTORE PUSH1 0x20 ADD PUSH1 0x1 DUP3 ADD SLOAD DUP2 MSTORE PUSH1 0x20 ADD PUSH1 0x2 DUP3 ADD PUSH1 0x0 SWAP1 SLOAD SWAP1 PUSH2 0x100 EXP SWAP1 DIV PUSH20 0xFFFFFFFFFFFFFFFFFFFFFFFFFFFFFFFFFFFFFFFF AND PUSH20 0xFFFFFFFFFFFFFFFFFFFFFFFFFFFFFFFFFFFFFFFF AND PUSH20 0xFFFFFFFFFFFFFFFFFFFFFFFFFFFFFFFFFFFFFFFF AND DUP2 MSTORE PUSH1 0x20 ADD PUSH1 0x3 DUP3 ADD PUSH1 0x0 SWAP1 SLOAD SWAP1 PUSH2 0x100 EXP SWAP1 DIV PUSH20 0xFFFFFFFFFFFFFFFFFFFFFFFFFFFFFFFFFFFFFFFF AND PUSH20 0xFFFFFFFFFFFFFFFFFFFFFFFFFFFFFFFFFFFFFFFF AND PUSH20 0xFFFFFFFFFFFFFFFFFFFFFFFFFFFFFFFFFFFFFFFF AND DUP2 MSTORE PUSH1 0x20 ADD PUSH1 0x4 DUP3 ADD SLOAD DUP2 MSTORE PUSH1 0x20 ADD PUSH1 0x5 DUP3 ADD PUSH1 0x0 SWAP1 SLOAD SWAP1 PUSH2 0x100 EXP SWAP1 DIV PUSH1 0xFF AND PUSH1 0x1 DUP2 GT ISZERO PUSH2 0x1982 JUMPI PUSH2 0x1981 PUSH2 0x2231 JUMP JUMPDEST JUMPDEST PUSH1 0x1 DUP2 GT ISZERO PUSH2 0x1994 JUMPI PUSH2 0x1993 PUSH2 0x2231 JUMP JUMPDEST JUMPDEST DUP2 MSTORE POP POP SWAP1 POP SWAP2 SWAP1 POP JUMP JUMPDEST PUSH2 0x19A7 PUSH2 0x1B45 JUMP JUMPDEST PUSH20 0xFFFFFFFFFFFFFFFFFFFFFFFFFFFFFFFFFFFFFFFF AND PUSH2 0x19C5 PUSH2 0x154C JUMP JUMPDEST PUSH20 0xFFFFFFFFFFFFFFFFFFFFFFFFFFFFFFFFFFFFFFFF AND EQ PUSH2 0x1A1B JUMPI PUSH1 0x40 MLOAD PUSH32 0x8C379A000000000000000000000000000000000000000000000000000000000 DUP2 MSTORE PUSH1 0x4 ADD PUSH2 0x1A12 SWAP1 PUSH2 0x29F8 JUMP JUMPDEST PUSH1 0x40 MLOAD DUP1 SWAP2 SUB SWAP1 REVERT JUMPDEST PUSH1 0x0 PUSH20 0xFFFFFFFFFFFFFFFFFFFFFFFFFFFFFFFFFFFFFFFF AND DUP2 PUSH20 0xFFFFFFFFFFFFFFFFFFFFFFFFFFFFFFFFFFFFFFFF AND SUB PUSH2 0x1A8A JUMPI PUSH1 0x40 MLOAD PUSH32 0x8C379A000000000000000000000000000000000000000000000000000000000 DUP2 MSTORE PUSH1 0x4 ADD PUSH2 0x1A81 SWAP1 PUSH2 0x3034 JUMP JUMPDEST PUSH1 0x40 MLOAD DUP1 SWAP2 SUB SWAP1 REVERT JUMPDEST PUSH2 0x1A93 DUP2 PUSH2 0x1C96 JUMP JUMPDEST POP JUMP JUMPDEST PUSH1 0xB PUSH1 0x0 SWAP1 SLOAD SWAP1 PUSH2 0x100 EXP SWAP1 DIV PUSH20 0xFFFFFFFFFFFFFFFFFFFFFFFFFFFFFFFFFFFFFFFF AND DUP2 JUMP JUMPDEST PUSH1 0x7 PUSH1 0x20 MSTORE DUP1 PUSH1 0x0 MSTORE PUSH1 0x40 PUSH1 0x0 KECCAK256 PUSH1 0x0 SWAP2 POP SWAP1 POP DUP1 PUSH1 0x0 ADD SLOAD SWAP1 DUP1 PUSH1 0x1 ADD SLOAD SWAP1 DUP1 PUSH1 0x2 ADD PUSH1 0x0 SWAP1 SLOAD SWAP1 PUSH2 0x100 EXP SWAP1 DIV PUSH20 0xFFFFFFFFFFFFFFFFFFFFFFFFFFFFFFFFFFFFFFFF AND SWAP1 DUP1 PUSH1 0x3 ADD PUSH1 0x0 SWAP1 SLOAD SWAP1 PUSH2 0x100 EXP SWAP1 DIV PUSH20 0xFFFFFFFFFFFFFFFFFFFFFFFFFFFFFFFFFFFFFFFF AND SWAP1 DUP1 PUSH1 0x4 ADD SLOAD SWAP1 DUP1 PUSH1 0x5 ADD PUSH1 0x0 SWAP1 SLOAD SWAP1 PUSH2 0x100 EXP SWAP1 DIV PUSH1 0xFF AND SWAP1 POP DUP7 JUMP JUMPDEST PUSH1 0x0 CALLER SWAP1 POP SWAP1 JUMP JUMPDEST PUSH1 0xA PUSH1 0x0 SWAP1 SLOAD SWAP1 PUSH2 0x100 EXP SWAP1 DIV PUSH20 0xFFFFFFFFFFFFFFFFFFFFFFFFFFFFFFFFFFFFFFFF AND PUSH20 0xFFFFFFFFFFFFFFFFFFFFFFFFFFFFFFFFFFFFFFFF AND PUSH4 0xC1E9518A CALLER ADDRESS DUP5 PUSH1 0x40 MLOAD DUP5 PUSH4 0xFFFFFFFF AND PUSH1 0xE0 SHL DUP2 MSTORE PUSH1 0x4 ADD PUSH2 0x1BAC SWAP4 SWAP3 SWAP2 SWAP1 PUSH2 0x294C JUMP JUMPDEST PUSH1 0x0 PUSH1 0x40 MLOAD DUP1 DUP4 SUB DUP2 PUSH1 0x0 DUP8 DUP1 EXTCODESIZE ISZERO DUP1 ISZERO PUSH2 0x1BC6 JUMPI PUSH1 0x0 DUP1 REVERT JUMPDEST POP GAS CALL ISZERO DUP1 ISZERO PUSH2 0x1BDA JUMPI RETURNDATASIZE PUSH1 0x0 DUP1 RETURNDATACOPY RETURNDATASIZE PUSH1 0x0 REVERT JUMPDEST POP POP POP POP PUSH1 0xB PUSH1 0x0 SWAP1 SLOAD SWAP1 PUSH2 0x100 EXP SWAP1 DIV PUSH20 0xFFFFFFFFFFFFFFFFFFFFFFFFFFFFFFFFFFFFFFFF AND PUSH20 0xFFFFFFFFFFFFFFFFFFFFFFFFFFFFFFFFFFFFFFFF AND PUSH4 0x23B872DD CALLER ADDRESS DUP5 PUSH1 0x40 MLOAD DUP5 PUSH4 0xFFFFFFFF AND PUSH1 0xE0 SHL DUP2 MSTORE PUSH1 0x4 ADD PUSH2 0x1C3D SWAP4 SWAP3 SWAP2 SWAP1 PUSH2 0x294C JUMP JUMPDEST PUSH1 0x0 PUSH1 0x40 MLOAD DUP1 DUP4 SUB DUP2 PUSH1 0x0 DUP8 DUP1 EXTCODESIZE ISZERO DUP1 ISZERO PUSH2 0x1C57 JUMPI PUSH1 0x0 DUP1 REVERT JUMPDEST POP GAS CALL ISZERO DUP1 ISZERO PUSH2 0x1C6B JUMPI RETURNDATASIZE PUSH1 0x0 DUP1 RETURNDATACOPY RETURNDATASIZE PUSH1 0x0 REVERT JUMPDEST POP POP POP POP POP JUMP JUMPDEST PUSH1 0x0 DUP2 PUSH1 0x0 ADD SLOAD SWAP1 POP SWAP2 SWAP1 POP JUMP JUMPDEST PUSH1 0x1 DUP2 PUSH1 0x0 ADD PUSH1 0x0 DUP3 DUP3 SLOAD ADD SWAP3 POP POP DUP2 SWAP1 SSTORE POP POP JUMP JUMPDEST PUSH1 0x0 PUSH1 0xC PUSH1 0x0 SWAP1 SLOAD SWAP1 PUSH2 0x100 EXP SWAP1 DIV PUSH20 0xFFFFFFFFFFFFFFFFFFFFFFFFFFFFFFFFFFFFFFFF AND SWAP1 POP DUP2 PUSH1 0xC PUSH1 0x0 PUSH2 0x100 EXP DUP2 SLOAD DUP2 PUSH20 0xFFFFFFFFFFFFFFFFFFFFFFFFFFFFFFFFFFFFFFFF MUL NOT AND SWAP1 DUP4 PUSH20 0xFFFFFFFFFFFFFFFFFFFFFFFFFFFFFFFFFFFFFFFF AND MUL OR SWAP1 SSTORE POP DUP2 PUSH20 0xFFFFFFFFFFFFFFFFFFFFFFFFFFFFFFFFFFFFFFFF AND DUP2 PUSH20 0xFFFFFFFFFFFFFFFFFFFFFFFFFFFFFFFFFFFFFFFF AND PUSH32 0x8BE0079C531659141344CD1FD0A4F28419497F9722A3DAAFE3B4186F6B6457E0 PUSH1 0x40 MLOAD PUSH1 0x40 MLOAD DUP1 SWAP2 SUB SWAP1 LOG3 POP POP JUMP JUMPDEST PUSH1 0x9 PUSH1 0x0 SWAP1 SLOAD SWAP1 PUSH2 0x100 EXP SWAP1 DIV PUSH20 0xFFFFFFFFFFFFFFFFFFFFFFFFFFFFFFFFFFFFFFFF AND PUSH20 0xFFFFFFFFFFFFFFFFFFFFFFFFFFFFFFFFFFFFFFFF AND PUSH4 0x23B872DD CALLER PUSH1 0xF PUSH1 0x0 DUP8 DUP2 MSTORE PUSH1 0x20 ADD SWAP1 DUP2 MSTORE PUSH1 0x20 ADD PUSH1 0x0 KECCAK256 PUSH1 0x2 ADD PUSH1 0x0 SWAP1 SLOAD SWAP1 PUSH2 0x100 EXP SWAP1 DIV PUSH20 0xFFFFFFFFFFFFFFFFFFFFFFFFFFFFFFFFFFFFFFFF AND DUP6 PUSH1 0x40 MLOAD DUP5 PUSH4 0xFFFFFFFF AND PUSH1 0xE0 SHL DUP2 MSTORE PUSH1 0x4 ADD PUSH2 0x1DF1 SWAP4 SWAP3 SWAP2 SWAP1 PUSH2 0x294C JUMP JUMPDEST PUSH1 0x20 PUSH1 0x40 MLOAD DUP1 DUP4 SUB DUP2 PUSH1 0x0 DUP8 GAS CALL ISZERO DUP1 ISZERO PUSH2 0x1E10 JUMPI RETURNDATASIZE PUSH1 0x0 DUP1 RETURNDATACOPY RETURNDATASIZE PUSH1 0x0 REVERT JUMPDEST POP POP POP POP PUSH1 0x40 MLOAD RETURNDATASIZE PUSH1 0x1F NOT PUSH1 0x1F DUP3 ADD AND DUP3 ADD DUP1 PUSH1 0x40 MSTORE POP DUP2 ADD SWAP1 PUSH2 0x1E34 SWAP2 SWAP1 PUSH2 0x3054 JUMP JUMPDEST POP PUSH1 0xA PUSH1 0x0 SWAP1 SLOAD SWAP1 PUSH2 0x100 EXP SWAP1 DIV PUSH20 0xFFFFFFFFFFFFFFFFFFFFFFFFFFFFFFFFFFFFFFFF AND PUSH20 0xFFFFFFFFFFFFFFFFFFFFFFFFFFFFFFFFFFFFFFFF AND PUSH4 0xC1E9518A CALLER ADDRESS DUP5 PUSH1 0x40 MLOAD DUP5 PUSH4 0xFFFFFFFF AND PUSH1 0xE0 SHL DUP2 MSTORE PUSH1 0x4 ADD PUSH2 0x1E94 SWAP4 SWAP3 SWAP2 SWAP1 PUSH2 0x294C JUMP JUMPDEST PUSH1 0x0 PUSH1 0x40 MLOAD DUP1 DUP4 SUB DUP2 PUSH1 0x0 DUP8 DUP1 EXTCODESIZE ISZERO DUP1 ISZERO PUSH2 0x1EAE JUMPI PUSH1 0x0 DUP1 REVERT JUMPDEST POP GAS CALL ISZERO DUP1 ISZERO PUSH2 0x1EC2 JUMPI RETURNDATASIZE PUSH1 0x0 DUP1 RETURNDATACOPY RETURNDATASIZE PUSH1 0x0 REVERT JUMPDEST POP POP POP POP PUSH1 0xB PUSH1 0x0 SWAP1 SLOAD SWAP1 PUSH2 0x100 EXP SWAP1 DIV PUSH20 0xFFFFFFFFFFFFFFFFFFFFFFFFFFFFFFFFFFFFFFFF AND PUSH20 0xFFFFFFFFFFFFFFFFFFFFFFFFFFFFFFFFFFFFFFFF AND PUSH4 0x23B872DD ADDRESS CALLER DUP5 PUSH1 0x40 MLOAD DUP5 PUSH4 0xFFFFFFFF AND PUSH1 0xE0 SHL DUP2 MSTORE PUSH1 0x4 ADD PUSH2 0x1F25 SWAP4 SWAP3 SWAP2 SWAP1 PUSH2 0x294C JUMP JUMPDEST PUSH1 0x0 PUSH1 0x40 MLOAD DUP1 DUP4 SUB DUP2 PUSH1 0x0 DUP8 DUP1 EXTCODESIZE ISZERO DUP1 ISZERO PUSH2 0x1F3F JUMPI PUSH1 0x0 DUP1 REVERT JUMPDEST POP GAS CALL ISZERO DUP1 ISZERO PUSH2 0x1F53 JUMPI RETURNDATASIZE PUSH1 0x0 DUP1 RETURNDATACOPY RETURNDATASIZE PUSH1 0x0 REVERT JUMPDEST POP POP POP POP POP POP POP JUMP JUMPDEST PUSH1 0x40 MLOAD DUP1 PUSH1 0xA0 ADD PUSH1 0x40 MSTORE DUP1 PUSH1 0x0 DUP2 MSTORE PUSH1 0x20 ADD PUSH1 0x0 PUSH20 0xFFFFFFFFFFFFFFFFFFFFFFFFFFFFFFFFFFFFFFFF AND DUP2 MSTORE PUSH1 0x20 ADD PUSH1 0x60 DUP2 MSTORE PUSH1 0x20 ADD PUSH1 0x60 DUP2 MSTORE PUSH1 0x20 ADD PUSH1 0x0 ISZERO ISZERO DUP2 MSTORE POP SWAP1 JUMP JUMPDEST PUSH1 0x40 MLOAD DUP1 PUSH1 0xC0 ADD PUSH1 0x40 MSTORE DUP1 PUSH1 0x0 DUP2 MSTORE PUSH1 0x20 ADD PUSH1 0x0 DUP2 MSTORE PUSH1 0x20 ADD PUSH1 0x0 PUSH20 0xFFFFFFFFFFFFFFFFFFFFFFFFFFFFFFFFFFFFFFFF AND DUP2 MSTORE PUSH1 0x20 ADD PUSH1 0x0 PUSH20 0xFFFFFFFFFFFFFFFFFFFFFFFFFFFFFFFFFFFFFFFF AND DUP2 MSTORE PUSH1 0x20 ADD PUSH1 0x0 DUP2 MSTORE PUSH1 0x20 ADD PUSH1 0x0 PUSH1 0x1 DUP2 GT ISZERO PUSH2 0x2011 JUMPI PUSH2 0x2010 PUSH2 0x2231 JUMP JUMPDEST JUMPDEST DUP2 MSTORE POP SWAP1 JUMP JUMPDEST PUSH1 0x0 PUSH1 0x40 MLOAD SWAP1 POP SWAP1 JUMP JUMPDEST PUSH1 0x0 DUP1 REVERT JUMPDEST PUSH1 0x0 DUP1 REVERT JUMPDEST PUSH1 0x0 DUP2 SWAP1 POP SWAP2 SWAP1 POP JUMP JUMPDEST PUSH2 0x203E DUP2 PUSH2 0x202B JUMP JUMPDEST DUP2 EQ PUSH2 0x2049 JUMPI PUSH1 0x0 DUP1 REVERT JUMPDEST POP JUMP JUMPDEST PUSH1 0x0 DUP2 CALLDATALOAD SWAP1 POP PUSH2 0x205B DUP2 PUSH2 0x2035 JUMP JUMPDEST SWAP3 SWAP2 POP POP JUMP JUMPDEST PUSH1 0x0 PUSH1 0x20 DUP3 DUP5 SUB SLT ISZERO PUSH2 0x2077 JUMPI PUSH2 0x2076 PUSH2 0x2021 JUMP JUMPDEST JUMPDEST PUSH1 0x0 PUSH2 0x2085 DUP5 DUP3 DUP6 ADD PUSH2 0x204C JUMP JUMPDEST SWAP2 POP POP SWAP3 SWAP2 POP POP JUMP JUMPDEST PUSH2 0x2097 DUP2 PUSH2 0x202B JUMP JUMPDEST DUP3 MSTORE POP POP JUMP JUMPDEST PUSH1 0x0 PUSH20 0xFFFFFFFFFFFFFFFFFFFFFFFFFFFFFFFFFFFFFFFF DUP3 AND SWAP1 POP SWAP2 SWAP1 POP JUMP JUMPDEST PUSH1 0x0 PUSH2 0x20C8 DUP3 PUSH2 0x209D JUMP JUMPDEST SWAP1 POP SWAP2 SWAP1 POP JUMP JUMPDEST PUSH2 0x20D8 DUP2 PUSH2 0x20BD JUMP JUMPDEST DUP3 MSTORE POP POP JUMP JUMPDEST PUSH1 0x0 DUP2 MLOAD SWAP1 POP SWAP2 SWAP1 POP JUMP JUMPDEST PUSH1 0x0 DUP3 DUP3 MSTORE PUSH1 0x20 DUP3 ADD SWAP1 POP SWAP3 SWAP2 POP POP JUMP JUMPDEST PUSH1 0x0 JUMPDEST DUP4 DUP2 LT ISZERO PUSH2 0x2118 JUMPI DUP1 DUP3 ADD MLOAD DUP2 DUP5 ADD MSTORE PUSH1 0x20 DUP2 ADD SWAP1 POP PUSH2 0x20FD JUMP JUMPDEST DUP4 DUP2 GT ISZERO PUSH2 0x2127 JUMPI PUSH1 0x0 DUP5 DUP5 ADD MSTORE JUMPDEST POP POP POP POP JUMP JUMPDEST PUSH1 0x0 PUSH1 0x1F NOT PUSH1 0x1F DUP4 ADD AND SWAP1 POP SWAP2 SWAP1 POP JUMP JUMPDEST PUSH1 0x0 PUSH2 0x2149 DUP3 PUSH2 0x20DE JUMP JUMPDEST PUSH2 0x2153 DUP2 DUP6 PUSH2 0x20E9 JUMP JUMPDEST SWAP4 POP PUSH2 0x2163 DUP2 DUP6 PUSH1 0x20 DUP7 ADD PUSH2 0x20FA JUMP JUMPDEST PUSH2 0x216C DUP2 PUSH2 0x212D JUMP JUMPDEST DUP5 ADD SWAP2 POP POP SWAP3 SWAP2 POP POP JUMP JUMPDEST PUSH1 0x0 DUP2 ISZERO ISZERO SWAP1 POP SWAP2 SWAP1 POP JUMP JUMPDEST PUSH2 0x218C DUP2 PUSH2 0x2177 JUMP JUMPDEST DUP3 MSTORE POP POP JUMP JUMPDEST PUSH1 0x0 PUSH1 0xA0 DUP4 ADD PUSH1 0x0 DUP4 ADD MLOAD PUSH2 0x21AA PUSH1 0x0 DUP7 ADD DUP3 PUSH2 0x208E JUMP JUMPDEST POP PUSH1 0x20 DUP4 ADD MLOAD PUSH2 0x21BD PUSH1 0x20 DUP7 ADD DUP3 PUSH2 0x20CF JUMP JUMPDEST POP PUSH1 0x40 DUP4 ADD MLOAD DUP5 DUP3 SUB PUSH1 0x40 DUP7 ADD MSTORE PUSH2 0x21D5 DUP3 DUP3 PUSH2 0x213E JUMP JUMPDEST SWAP2 POP POP PUSH1 0x60 DUP4 ADD MLOAD DUP5 DUP3 SUB PUSH1 0x60 DUP7 ADD MSTORE PUSH2 0x21EF DUP3 DUP3 PUSH2 0x213E JUMP JUMPDEST SWAP2 POP POP PUSH1 0x80 DUP4 ADD MLOAD PUSH2 0x2204 PUSH1 0x80 DUP7 ADD DUP3 PUSH2 0x2183 JUMP JUMPDEST POP DUP1 SWAP2 POP POP SWAP3 SWAP2 POP POP JUMP JUMPDEST PUSH1 0x0 PUSH1 0x20 DUP3 ADD SWAP1 POP DUP2 DUP2 SUB PUSH1 0x0 DUP4 ADD MSTORE PUSH2 0x2229 DUP2 DUP5 PUSH2 0x2192 JUMP JUMPDEST SWAP1 POP SWAP3 SWAP2 POP POP JUMP JUMPDEST PUSH32 0x4E487B7100000000000000000000000000000000000000000000000000000000 PUSH1 0x0 MSTORE PUSH1 0x21 PUSH1 0x4 MSTORE PUSH1 0x24 PUSH1 0x0 REVERT JUMPDEST PUSH1 0x2 DUP2 LT PUSH2 0x2271 JUMPI PUSH2 0x2270 PUSH2 0x2231 JUMP JUMPDEST JUMPDEST POP JUMP JUMPDEST PUSH1 0x0 DUP2 SWAP1 POP PUSH2 0x2282 DUP3 PUSH2 0x2260 JUMP JUMPDEST SWAP2 SWAP1 POP JUMP JUMPDEST PUSH1 0x0 PUSH2 0x2292 DUP3 PUSH2 0x2274 JUMP JUMPDEST SWAP1 POP SWAP2 SWAP1 POP JUMP JUMPDEST PUSH2 0x22A2 DUP2 PUSH2 0x2287 JUMP JUMPDEST DUP3 MSTORE POP POP JUMP JUMPDEST PUSH1 0xC0 DUP3 ADD PUSH1 0x0 DUP3 ADD MLOAD PUSH2 0x22BE PUSH1 0x0 DUP6 ADD DUP3 PUSH2 0x208E JUMP JUMPDEST POP PUSH1 0x20 DUP3 ADD MLOAD PUSH2 0x22D1 PUSH1 0x20 DUP6 ADD DUP3 PUSH2 0x208E JUMP JUMPDEST POP PUSH1 0x40 DUP3 ADD MLOAD PUSH2 0x22E4 PUSH1 0x40 DUP6 ADD DUP3 PUSH2 0x20CF JUMP JUMPDEST POP PUSH1 0x60 DUP3 ADD MLOAD PUSH2 0x22F7 PUSH1 0x60 DUP6 ADD DUP3 PUSH2 0x20CF JUMP JUMPDEST POP PUSH1 0x80 DUP3 ADD MLOAD PUSH2 0x230A PUSH1 0x80 DUP6 ADD DUP3 PUSH2 0x208E JUMP JUMPDEST POP PUSH1 0xA0 DUP3 ADD MLOAD PUSH2 0x231D PUSH1 0xA0 DUP6 ADD DUP3 PUSH2 0x2299 JUMP JUMPDEST POP POP POP POP JUMP JUMPDEST PUSH1 0x0 PUSH1 0xC0 DUP3 ADD SWAP1 POP PUSH2 0x2338 PUSH1 0x0 DUP4 ADD DUP5 PUSH2 0x22A8 JUMP JUMPDEST SWAP3 SWAP2 POP POP JUMP JUMPDEST PUSH2 0x2347 DUP2 PUSH2 0x20BD JUMP JUMPDEST DUP2 EQ PUSH2 0x2352 JUMPI PUSH1 0x0 DUP1 REVERT JUMPDEST POP JUMP JUMPDEST PUSH1 0x0 DUP2 CALLDATALOAD SWAP1 POP PUSH2 0x2364 DUP2 PUSH2 0x233E JUMP JUMPDEST SWAP3 SWAP2 POP POP JUMP JUMPDEST PUSH1 0x0 PUSH1 0x20 DUP3 DUP5 SUB SLT ISZERO PUSH2 0x2380 JUMPI PUSH2 0x237F PUSH2 0x2021 JUMP JUMPDEST JUMPDEST PUSH1 0x0 PUSH2 0x238E DUP5 DUP3 DUP6 ADD PUSH2 0x2355 JUMP JUMPDEST SWAP2 POP POP SWAP3 SWAP2 POP POP JUMP JUMPDEST PUSH1 0x0 PUSH32 0xFFFFFFFF00000000000000000000000000000000000000000000000000000000 DUP3 AND SWAP1 POP SWAP2 SWAP1 POP JUMP JUMPDEST PUSH2 0x23CC DUP2 PUSH2 0x2397 JUMP JUMPDEST DUP3 MSTORE POP POP JUMP JUMPDEST PUSH1 0x0 PUSH1 0x20 DUP3 ADD SWAP1 POP PUSH2 0x23E7 PUSH1 0x0 DUP4 ADD DUP5 PUSH2 0x23C3 JUMP JUMPDEST SWAP3 SWAP2 POP POP JUMP JUMPDEST PUSH1 0x0 DUP1 PUSH1 0x40 DUP4 DUP6 SUB SLT ISZERO PUSH2 0x2404 JUMPI PUSH2 0x2403 PUSH2 0x2021 JUMP JUMPDEST JUMPDEST PUSH1 0x0 PUSH2 0x2412 DUP6 DUP3 DUP7 ADD PUSH2 0x204C JUMP JUMPDEST SWAP3 POP POP PUSH1 0x20 PUSH2 0x2423 DUP6 DUP3 DUP7 ADD PUSH2 0x204C JUMP JUMPDEST SWAP2 POP POP SWAP3 POP SWAP3 SWAP1 POP JUMP JUMPDEST PUSH1 0x0 DUP2 SWAP1 POP SWAP2 SWAP1 POP JUMP JUMPDEST PUSH1 0x0 PUSH2 0x2452 PUSH2 0x244D PUSH2 0x2448 DUP5 PUSH2 0x209D JUMP JUMPDEST PUSH2 0x242D JUMP JUMPDEST PUSH2 0x209D JUMP JUMPDEST SWAP1 POP SWAP2 SWAP1 POP JUMP JUMPDEST PUSH1 0x0 PUSH2 0x2464 DUP3 PUSH2 0x2437 JUMP JUMPDEST SWAP1 POP SWAP2 SWAP1 POP JUMP JUMPDEST PUSH1 0x0 PUSH2 0x2476 DUP3 PUSH2 0x2459 JUMP JUMPDEST SWAP1 POP SWAP2 SWAP1 POP JUMP JUMPDEST PUSH2 0x2486 DUP2 PUSH2 0x246B JUMP JUMPDEST DUP3 MSTORE POP POP JUMP JUMPDEST PUSH1 0x0 PUSH1 0x20 DUP3 ADD SWAP1 POP PUSH2 0x24A1 PUSH1 0x0 DUP4 ADD DUP5 PUSH2 0x247D JUMP JUMPDEST SWAP3 SWAP2 POP POP JUMP JUMPDEST PUSH2 0x24B0 DUP2 PUSH2 0x202B JUMP JUMPDEST DUP3 MSTORE POP POP JUMP JUMPDEST PUSH2 0x24BF DUP2 PUSH2 0x20BD JUMP JUMPDEST DUP3 MSTORE POP POP JUMP JUMPDEST PUSH2 0x24CE DUP2 PUSH2 0x2287 JUMP JUMPDEST DUP3 MSTORE POP POP JUMP JUMPDEST PUSH1 0x0 PUSH1 0xC0 DUP3 ADD SWAP1 POP PUSH2 0x24E9 PUSH1 0x0 DUP4 ADD DUP10 PUSH2 0x24A7 JUMP JUMPDEST PUSH2 0x24F6 PUSH1 0x20 DUP4 ADD DUP9 PUSH2 0x24A7 JUMP JUMPDEST PUSH2 0x2503 PUSH1 0x40 DUP4 ADD DUP8 PUSH2 0x24B6 JUMP JUMPDEST PUSH2 0x2510 PUSH1 0x60 DUP4 ADD DUP7 PUSH2 0x24B6 JUMP JUMPDEST PUSH2 0x251D PUSH1 0x80 DUP4 ADD DUP6 PUSH2 0x24A7 JUMP JUMPDEST PUSH2 0x252A PUSH1 0xA0 DUP4 ADD DUP5 PUSH2 0x24C5 JUMP JUMPDEST SWAP8 SWAP7 POP POP POP POP POP POP POP JUMP JUMPDEST PUSH1 0x0 DUP1 PUSH1 0x40 DUP4 DUP6 SUB SLT ISZERO PUSH2 0x254C JUMPI PUSH2 0x254B PUSH2 0x2021 JUMP JUMPDEST JUMPDEST PUSH1 0x0 PUSH2 0x255A DUP6 DUP3 DUP7 ADD PUSH2 0x2355 JUMP JUMPDEST SWAP3 POP POP PUSH1 0x20 PUSH2 0x256B DUP6 DUP3 DUP7 ADD PUSH2 0x204C JUMP JUMPDEST SWAP2 POP POP SWAP3 POP SWAP3 SWAP1 POP JUMP JUMPDEST PUSH1 0x0 DUP2 MLOAD SWAP1 POP SWAP2 SWAP1 POP JUMP JUMPDEST PUSH1 0x0 DUP3 DUP3 MSTORE PUSH1 0x20 DUP3 ADD SWAP1 POP SWAP3 SWAP2 POP POP JUMP JUMPDEST PUSH1 0x0 DUP2 SWAP1 POP PUSH1 0x20 DUP3 ADD SWAP1 POP SWAP2 SWAP1 POP JUMP JUMPDEST PUSH1 0xC0 DUP3 ADD PUSH1 0x0 DUP3 ADD MLOAD PUSH2 0x25B7 PUSH1 0x0 DUP6 ADD DUP3 PUSH2 0x208E JUMP JUMPDEST POP PUSH1 0x20 DUP3 ADD MLOAD PUSH2 0x25CA PUSH1 0x20 DUP6 ADD DUP3 PUSH2 0x208E JUMP JUMPDEST POP PUSH1 0x40 DUP3 ADD MLOAD PUSH2 0x25DD PUSH1 0x40 DUP6 ADD DUP3 PUSH2 0x20CF JUMP JUMPDEST POP PUSH1 0x60 DUP3 ADD MLOAD PUSH2 0x25F0 PUSH1 0x60 DUP6 ADD DUP3 PUSH2 0x20CF JUMP JUMPDEST POP PUSH1 0x80 DUP3 ADD MLOAD PUSH2 0x2603 PUSH1 0x80 DUP6 ADD DUP3 PUSH2 0x208E JUMP JUMPDEST POP PUSH1 0xA0 DUP3 ADD MLOAD PUSH2 0x2616 PUSH1 0xA0 DUP6 ADD DUP3 PUSH2 0x2299 JUMP JUMPDEST POP POP POP POP JUMP JUMPDEST PUSH1 0x0 PUSH2 0x2628 DUP4 DUP4 PUSH2 0x25A1 JUMP JUMPDEST PUSH1 0xC0 DUP4 ADD SWAP1 POP SWAP3 SWAP2 POP POP JUMP JUMPDEST PUSH1 0x0 PUSH1 0x20 DUP3 ADD SWAP1 POP SWAP2 SWAP1 POP JUMP JUMPDEST PUSH1 0x0 PUSH2 0x264C DUP3 PUSH2 0x2575 JUMP JUMPDEST PUSH2 0x2656 DUP2 DUP6 PUSH2 0x2580 JUMP JUMPDEST SWAP4 POP PUSH2 0x2661 DUP4 PUSH2 0x2591 JUMP JUMPDEST DUP1 PUSH1 0x0 JUMPDEST DUP4 DUP2 LT ISZERO PUSH2 0x2692 JUMPI DUP2 MLOAD PUSH2 0x2679 DUP9 DUP3 PUSH2 0x261C JUMP JUMPDEST SWAP8 POP PUSH2 0x2684 DUP4 PUSH2 0x2634 JUMP JUMPDEST SWAP3 POP POP PUSH1 0x1 DUP2 ADD SWAP1 POP PUSH2 0x2665 JUMP JUMPDEST POP DUP6 SWAP4 POP POP POP POP SWAP3 SWAP2 POP POP JUMP JUMPDEST PUSH1 0x0 PUSH1 0x20 DUP3 ADD SWAP1 POP DUP2 DUP2 SUB PUSH1 0x0 DUP4 ADD MSTORE PUSH2 0x26B9 DUP2 DUP5 PUSH2 0x2641 JUMP JUMPDEST SWAP1 POP SWAP3 SWAP2 POP POP JUMP JUMPDEST PUSH1 0x0 PUSH1 0xFF DUP3 AND SWAP1 POP SWAP2 SWAP1 POP JUMP JUMPDEST PUSH2 0x26D7 DUP2 PUSH2 0x26C1 JUMP JUMPDEST DUP3 MSTORE POP POP JUMP JUMPDEST PUSH1 0x0 PUSH1 0x20 DUP3 ADD SWAP1 POP PUSH2 0x26F2 PUSH1 0x0 DUP4 ADD DUP5 PUSH2 0x26CE JUMP JUMPDEST SWAP3 SWAP2 POP POP JUMP JUMPDEST PUSH1 0x0 PUSH1 0x20 DUP3 ADD SWAP1 POP PUSH2 0x270D PUSH1 0x0 DUP4 ADD DUP5 PUSH2 0x24B6 JUMP JUMPDEST SWAP3 SWAP2 POP POP JUMP JUMPDEST PUSH1 0x0 PUSH2 0x271E DUP3 PUSH2 0x2459 JUMP JUMPDEST SWAP1 POP SWAP2 SWAP1 POP JUMP JUMPDEST PUSH2 0x272E DUP2 PUSH2 0x2713 JUMP JUMPDEST DUP3 MSTORE POP POP JUMP JUMPDEST PUSH1 0x0 PUSH1 0x20 DUP3 ADD SWAP1 POP PUSH2 0x2749 PUSH1 0x0 DUP4 ADD DUP5 PUSH2 0x2725 JUMP JUMPDEST SWAP3 SWAP2 POP POP JUMP JUMPDEST PUSH1 0x0 PUSH2 0x275A DUP3 PUSH2 0x2459 JUMP JUMPDEST SWAP1 POP SWAP2 SWAP1 POP JUMP JUMPDEST PUSH2 0x276A DUP2 PUSH2 0x274F JUMP JUMPDEST DUP3 MSTORE POP POP JUMP JUMPDEST PUSH1 0x0 PUSH1 0x20 DUP3 ADD SWAP1 POP PUSH2 0x2785 PUSH1 0x0 DUP4 ADD DUP5 PUSH2 0x2761 JUMP JUMPDEST SWAP3 SWAP2 POP POP JUMP JUMPDEST PUSH1 0x0 DUP3 DUP3 MSTORE PUSH1 0x20 DUP3 ADD SWAP1 POP SWAP3 SWAP2 POP POP JUMP JUMPDEST PUSH32 0x4173736574206E6F74207075626C697368656400000000000000000000000000 PUSH1 0x0 DUP3 ADD MSTORE POP JUMP JUMPDEST PUSH1 0x0 PUSH2 0x27D2 PUSH1 0x13 DUP4 PUSH2 0x278B JUMP JUMPDEST SWAP2 POP PUSH2 0x27DD DUP3 PUSH2 0x279C JUMP JUMPDEST PUSH1 0x20 DUP3 ADD SWAP1 POP SWAP2 SWAP1 POP JUMP JUMPDEST PUSH1 0x0 PUSH1 0x20 DUP3 ADD SWAP1 POP DUP2 DUP2 SUB PUSH1 0x0 DUP4 ADD MSTORE PUSH2 0x2801 DUP2 PUSH2 0x27C5 JUMP JUMPDEST SWAP1 POP SWAP2 SWAP1 POP JUMP JUMPDEST PUSH32 0x41737365742064656C6973746564000000000000000000000000000000000000 PUSH1 0x0 DUP3 ADD MSTORE POP JUMP JUMPDEST PUSH1 0x0 PUSH2 0x283E PUSH1 0xE DUP4 PUSH2 0x278B JUMP JUMPDEST SWAP2 POP PUSH2 0x2849 DUP3 PUSH2 0x2808 JUMP JUMPDEST PUSH1 0x20 DUP3 ADD SWAP1 POP SWAP2 SWAP1 POP JUMP JUMPDEST PUSH1 0x0 PUSH1 0x20 DUP3 ADD SWAP1 POP DUP2 DUP2 SUB PUSH1 0x0 DUP4 ADD MSTORE PUSH2 0x286D DUP2 PUSH2 0x2831 JUMP JUMPDEST SWAP1 POP SWAP2 SWAP1 POP JUMP JUMPDEST PUSH32 0x496E76616C696420616464726573730000000000000000000000000000000000 PUSH1 0x0 DUP3 ADD MSTORE POP JUMP JUMPDEST PUSH1 0x0 PUSH2 0x28AA PUSH1 0xF DUP4 PUSH2 0x278B JUMP JUMPDEST SWAP2 POP PUSH2 0x28B5 DUP3 PUSH2 0x2874 JUMP JUMPDEST PUSH1 0x20 DUP3 ADD SWAP1 POP SWAP2 SWAP1 POP JUMP JUMPDEST PUSH1 0x0 PUSH1 0x20 DUP3 ADD SWAP1 POP DUP2 DUP2 SUB PUSH1 0x0 DUP4 ADD MSTORE PUSH2 0x28D9 DUP2 PUSH2 0x289D JUMP JUMPDEST SWAP1 POP SWAP2 SWAP1 POP JUMP JUMPDEST PUSH32 0x4F6E6C792073656C6C65722063616E2064656C69737400000000000000000000 PUSH1 0x0 DUP3 ADD MSTORE POP JUMP JUMPDEST PUSH1 0x0 PUSH2 0x2916 PUSH1 0x16 DUP4 PUSH2 0x278B JUMP JUMPDEST SWAP2 POP PUSH2 0x2921 DUP3 PUSH2 0x28E0 JUMP JUMPDEST PUSH1 0x20 DUP3 ADD SWAP1 POP SWAP2 SWAP1 POP JUMP JUMPDEST PUSH1 0x0 PUSH1 0x20 DUP3 ADD SWAP1 POP DUP2 DUP2 SUB PUSH1 0x0 DUP4 ADD MSTORE PUSH2 0x2945 DUP2 PUSH2 0x2909 JUMP JUMPDEST SWAP1 POP SWAP2 SWAP1 POP JUMP JUMPDEST PUSH1 0x0 PUSH1 0x60 DUP3 ADD SWAP1 POP PUSH2 0x2961 PUSH1 0x0 DUP4 ADD DUP7 PUSH2 0x24B6 JUMP JUMPDEST PUSH2 0x296E PUSH1 0x20 DUP4 ADD DUP6 PUSH2 0x24B6 JUMP JUMPDEST PUSH2 0x297B PUSH1 0x40 DUP4 ADD DUP5 PUSH2 0x24A7 JUMP JUMPDEST SWAP5 SWAP4 POP POP POP POP JUMP JUMPDEST PUSH1 0x0 PUSH1 0x40 DUP3 ADD SWAP1 POP PUSH2 0x2998 PUSH1 0x0 DUP4 ADD DUP6 PUSH2 0x24A7 JUMP JUMPDEST PUSH2 0x29A5 PUSH1 0x20 DUP4 ADD DUP5 PUSH2 0x24A7 JUMP JUMPDEST SWAP4 SWAP3 POP POP POP JUMP JUMPDEST PUSH32 0x4F776E61626C653A2063616C6C6572206973206E6F7420746865206F776E6572 PUSH1 0x0 DUP3 ADD MSTORE POP JUMP JUMPDEST PUSH1 0x0 PUSH2 0x29E2 PUSH1 0x20 DUP4 PUSH2 0x278B JUMP JUMPDEST SWAP2 POP PUSH2 0x29ED DUP3 PUSH2 0x29AC JUMP JUMPDEST PUSH1 0x20 DUP3 ADD SWAP1 POP SWAP2 SWAP1 POP JUMP JUMPDEST PUSH1 0x0 PUSH1 0x20 DUP3 ADD SWAP1 POP DUP2 DUP2 SUB PUSH1 0x0 DUP4 ADD MSTORE PUSH2 0x2A11 DUP2 PUSH2 0x29D5 JUMP JUMPDEST SWAP1 POP SWAP2 SWAP1 POP JUMP JUMPDEST PUSH32 0x5072696365206D757374206265206174206C6561737420312077656900000000 PUSH1 0x0 DUP3 ADD MSTORE POP JUMP JUMPDEST PUSH1 0x0 PUSH2 0x2A4E PUSH1 0x1C DUP4 PUSH2 0x278B JUMP JUMPDEST SWAP2 POP PUSH2 0x2A59 DUP3 PUSH2 0x2A18 JUMP JUMPDEST PUSH1 0x20 DUP3 ADD SWAP1 POP SWAP2 SWAP1 POP JUMP JUMPDEST PUSH1 0x0 PUSH1 0x20 DUP3 ADD SWAP1 POP DUP2 DUP2 SUB PUSH1 0x0 DUP4 ADD MSTORE PUSH2 0x2A7D DUP2 PUSH2 0x2A41 JUMP JUMPDEST SWAP1 POP SWAP2 SWAP1 POP JUMP JUMPDEST PUSH1 0x0 PUSH1 0x20 DUP3 ADD SWAP1 POP PUSH2 0x2A99 PUSH1 0x0 DUP4 ADD DUP5 PUSH2 0x24A7 JUMP JUMPDEST SWAP3 SWAP2 POP POP JUMP JUMPDEST PUSH1 0x0 DUP1 REVERT JUMPDEST PUSH32 0x4E487B7100000000000000000000000000000000000000000000000000000000 PUSH1 0x0 MSTORE PUSH1 0x41 PUSH1 0x4 MSTORE PUSH1 0x24 PUSH1 0x0 REVERT JUMPDEST PUSH2 0x2ADC DUP3 PUSH2 0x212D JUMP JUMPDEST DUP2 ADD DUP2 DUP2 LT PUSH8 0xFFFFFFFFFFFFFFFF DUP3 GT OR ISZERO PUSH2 0x2AFB JUMPI PUSH2 0x2AFA PUSH2 0x2AA4 JUMP JUMPDEST JUMPDEST DUP1 PUSH1 0x40 MSTORE POP POP POP JUMP JUMPDEST PUSH1 0x0 PUSH2 0x2B0E PUSH2 0x2017 JUMP JUMPDEST SWAP1 POP PUSH2 0x2B1A DUP3 DUP3 PUSH2 0x2AD3 JUMP JUMPDEST SWAP2 SWAP1 POP JUMP JUMPDEST PUSH1 0x0 DUP1 REVERT JUMPDEST PUSH1 0x0 DUP2 MLOAD SWAP1 POP PUSH2 0x2B33 DUP2 PUSH2 0x2035 JUMP JUMPDEST SWAP3 SWAP2 POP POP JUMP JUMPDEST PUSH1 0x0 DUP2 MLOAD SWAP1 POP PUSH2 0x2B48 DUP2 PUSH2 0x233E JUMP JUMPDEST SWAP3 SWAP2 POP POP JUMP JUMPDEST PUSH1 0x0 DUP1 REVERT JUMPDEST PUSH1 0x0 DUP1 REVERT JUMPDEST PUSH1 0x0 PUSH8 0xFFFFFFFFFFFFFFFF DUP3 GT ISZERO PUSH2 0x2B73 JUMPI PUSH2 0x2B72 PUSH2 0x2AA4 JUMP JUMPDEST JUMPDEST PUSH2 0x2B7C DUP3 PUSH2 0x212D JUMP JUMPDEST SWAP1 POP PUSH1 0x20 DUP2 ADD SWAP1 POP SWAP2 SWAP1 POP JUMP JUMPDEST PUSH1 0x0 PUSH2 0x2B9C PUSH2 0x2B97 DUP5 PUSH2 0x2B58 JUMP JUMPDEST PUSH2 0x2B04 JUMP JUMPDEST SWAP1 POP DUP3 DUP2 MSTORE PUSH1 0x20 DUP2 ADD DUP5 DUP5 DUP5 ADD GT ISZERO PUSH2 0x2BB8 JUMPI PUSH2 0x2BB7 PUSH2 0x2B53 JUMP JUMPDEST JUMPDEST PUSH2 0x2BC3 DUP5 DUP3 DUP6 PUSH2 0x20FA JUMP JUMPDEST POP SWAP4 SWAP3 POP POP POP JUMP JUMPDEST PUSH1 0x0 DUP3 PUSH1 0x1F DUP4 ADD SLT PUSH2 0x2BE0 JUMPI PUSH2 0x2BDF PUSH2 0x2B4E JUMP JUMPDEST JUMPDEST DUP2 MLOAD PUSH2 0x2BF0 DUP5 DUP3 PUSH1 0x20 DUP7 ADD PUSH2 0x2B89 JUMP JUMPDEST SWAP2 POP POP SWAP3 SWAP2 POP POP JUMP JUMPDEST PUSH2 0x2C02 DUP2 PUSH2 0x2177 JUMP JUMPDEST DUP2 EQ PUSH2 0x2C0D JUMPI PUSH1 0x0 DUP1 REVERT JUMPDEST POP JUMP JUMPDEST PUSH1 0x0 DUP2 MLOAD SWAP1 POP PUSH2 0x2C1F DUP2 PUSH2 0x2BF9 JUMP JUMPDEST SWAP3 SWAP2 POP POP JUMP JUMPDEST PUSH1 0x0 PUSH1 0xA0 DUP3 DUP5 SUB SLT ISZERO PUSH2 0x2C3B JUMPI PUSH2 0x2C3A PUSH2 0x2A9F JUMP JUMPDEST JUMPDEST PUSH2 0x2C45 PUSH1 0xA0 PUSH2 0x2B04 JUMP JUMPDEST SWAP1 POP PUSH1 0x0 PUSH2 0x2C55 DUP5 DUP3 DUP6 ADD PUSH2 0x2B24 JUMP JUMPDEST PUSH1 0x0 DUP4 ADD MSTORE POP PUSH1 0x20 PUSH2 0x2C69 DUP5 DUP3 DUP6 ADD PUSH2 0x2B39 JUMP JUMPDEST PUSH1 0x20 DUP4 ADD MSTORE POP PUSH1 0x40 DUP3 ADD MLOAD PUSH8 0xFFFFFFFFFFFFFFFF DUP2 GT ISZERO PUSH2 0x2C8D JUMPI PUSH2 0x2C8C PUSH2 0x2B1F JUMP JUMPDEST JUMPDEST PUSH2 0x2C99 DUP5 DUP3 DUP6 ADD PUSH2 0x2BCB JUMP JUMPDEST PUSH1 0x40 DUP4 ADD MSTORE POP PUSH1 0x60 DUP3 ADD MLOAD PUSH8 0xFFFFFFFFFFFFFFFF DUP2 GT ISZERO PUSH2 0x2CBD JUMPI PUSH2 0x2CBC PUSH2 0x2B1F JUMP JUMPDEST JUMPDEST PUSH2 0x2CC9 DUP5 DUP3 DUP6 ADD PUSH2 0x2BCB JUMP JUMPDEST PUSH1 0x60 DUP4 ADD MSTORE POP PUSH1 0x80 PUSH2 0x2CDD DUP5 DUP3 DUP6 ADD PUSH2 0x2C10 JUMP JUMPDEST PUSH1 0x80 DUP4 ADD MSTORE POP SWAP3 SWAP2 POP POP JUMP JUMPDEST PUSH1 0x0 PUSH1 0x20 DUP3 DUP5 SUB SLT ISZERO PUSH2 0x2CFF JUMPI PUSH2 0x2CFE PUSH2 0x2021 JUMP JUMPDEST JUMPDEST PUSH1 0x0 DUP3 ADD MLOAD PUSH8 0xFFFFFFFFFFFFFFFF DUP2 GT ISZERO PUSH2 0x2D1D JUMPI PUSH2 0x2D1C PUSH2 0x2026 JUMP JUMPDEST JUMPDEST PUSH2 0x2D29 DUP5 DUP3 DUP6 ADD PUSH2 0x2C25 JUMP JUMPDEST SWAP2 POP POP SWAP3 SWAP2 POP POP JUMP JUMPDEST PUSH32 0x4974656D206973206E6F7420617661696C61626C65206E6F7720210000000000 PUSH1 0x0 DUP3 ADD MSTORE POP JUMP JUMPDEST PUSH1 0x0 PUSH2 0x2D68 PUSH1 0x1B DUP4 PUSH2 0x278B JUMP JUMPDEST SWAP2 POP PUSH2 0x2D73 DUP3 PUSH2 0x2D32 JUMP JUMPDEST PUSH1 0x20 DUP3 ADD SWAP1 POP SWAP2 SWAP1 POP JUMP JUMPDEST PUSH1 0x0 PUSH1 0x20 DUP3 ADD SWAP1 POP DUP2 DUP2 SUB PUSH1 0x0 DUP4 ADD MSTORE PUSH2 0x2D97 DUP2 PUSH2 0x2D5B JUMP JUMPDEST SWAP1 POP SWAP2 SWAP1 POP JUMP JUMPDEST PUSH32 0x4E487B7100000000000000000000000000000000000000000000000000000000 PUSH1 0x0 MSTORE PUSH1 0x11 PUSH1 0x4 MSTORE PUSH1 0x24 PUSH1 0x0 REVERT JUMPDEST PUSH1 0x0 PUSH2 0x2DD8 DUP3 PUSH2 0x202B JUMP JUMPDEST SWAP2 POP PUSH2 0x2DE3 DUP4 PUSH2 0x202B JUMP JUMPDEST SWAP3 POP DUP3 PUSH32 0xFFFFFFFFFFFFFFFFFFFFFFFFFFFFFFFFFFFFFFFFFFFFFFFFFFFFFFFFFFFFFFFF SUB DUP3 GT ISZERO PUSH2 0x2E18 JUMPI PUSH2 0x2E17 PUSH2 0x2D9E JUMP JUMPDEST JUMPDEST DUP3 DUP3 ADD SWAP1 POP SWAP3 SWAP2 POP POP JUMP JUMPDEST PUSH1 0x0 PUSH2 0x2E2E DUP3 PUSH2 0x202B JUMP JUMPDEST SWAP2 POP PUSH32 0xFFFFFFFFFFFFFFFFFFFFFFFFFFFFFFFFFFFFFFFFFFFFFFFFFFFFFFFFFFFFFFFF DUP3 SUB PUSH2 0x2E60 JUMPI PUSH2 0x2E5F PUSH2 0x2D9E JUMP JUMPDEST JUMPDEST PUSH1 0x1 DUP3 ADD SWAP1 POP SWAP2 SWAP1 POP JUMP JUMPDEST PUSH32 0x4E487B7100000000000000000000000000000000000000000000000000000000 PUSH1 0x0 MSTORE PUSH1 0x32 PUSH1 0x4 MSTORE PUSH1 0x24 PUSH1 0x0 REVERT JUMPDEST PUSH32 0x506C65617365207375626D6974207468652061736B696E672070726963652069 PUSH1 0x0 DUP3 ADD MSTORE PUSH32 0x6E206F7264657220746F20636F6D706C65746520746865207075726368617365 PUSH1 0x20 DUP3 ADD MSTORE POP JUMP JUMPDEST PUSH1 0x0 PUSH2 0x2EF6 PUSH1 0x40 DUP4 PUSH2 0x278B JUMP JUMPDEST SWAP2 POP PUSH2 0x2F01 DUP3 PUSH2 0x2E9A JUMP JUMPDEST PUSH1 0x40 DUP3 ADD SWAP1 POP SWAP2 SWAP1 POP JUMP JUMPDEST PUSH1 0x0 PUSH1 0x20 DUP3 ADD SWAP1 POP DUP2 DUP2 SUB PUSH1 0x0 DUP4 ADD MSTORE PUSH2 0x2F25 DUP2 PUSH2 0x2EE9 JUMP JUMPDEST SWAP1 POP SWAP2 SWAP1 POP JUMP JUMPDEST PUSH32 0x5351460000000000000000000000000000000000000000000000000000000000 PUSH1 0x0 DUP3 ADD MSTORE POP JUMP JUMPDEST PUSH1 0x0 PUSH2 0x2F62 PUSH1 0x3 DUP4 PUSH2 0x278B JUMP JUMPDEST SWAP2 POP PUSH2 0x2F6D DUP3 PUSH2 0x2F2C JUMP JUMPDEST PUSH1 0x20 DUP3 ADD SWAP1 POP SWAP2 SWAP1 POP JUMP JUMPDEST PUSH1 0x0 PUSH1 0x80 DUP3 ADD SWAP1 POP PUSH2 0x2F8D PUSH1 0x0 DUP4 ADD DUP7 PUSH2 0x24A7 JUMP JUMPDEST PUSH2 0x2F9A PUSH1 0x20 DUP4 ADD DUP6 PUSH2 0x24A7 JUMP JUMPDEST DUP2 DUP2 SUB PUSH1 0x40 DUP4 ADD MSTORE PUSH2 0x2FAB DUP2 PUSH2 0x2F55 JUMP JUMPDEST SWAP1 POP PUSH2 0x2FBA PUSH1 0x60 DUP4 ADD DUP5 PUSH2 0x24A7 JUMP JUMPDEST SWAP5 SWAP4 POP POP POP POP JUMP JUMPDEST PUSH32 0x4F776E61626C653A206E6577206F776E657220697320746865207A65726F2061 PUSH1 0x0 DUP3 ADD MSTORE PUSH32 0x6464726573730000000000000000000000000000000000000000000000000000 PUSH1 0x20 DUP3 ADD MSTORE POP JUMP JUMPDEST PUSH1 0x0 PUSH2 0x301E PUSH1 0x26 DUP4 PUSH2 0x278B JUMP JUMPDEST SWAP2 POP PUSH2 0x3029 DUP3 PUSH2 0x2FC2 JUMP JUMPDEST PUSH1 0x40 DUP3 ADD SWAP1 POP SWAP2 SWAP1 POP JUMP JUMPDEST PUSH1 0x0 PUSH1 0x20 DUP3 ADD SWAP1 POP DUP2 DUP2 SUB PUSH1 0x0 DUP4 ADD MSTORE PUSH2 0x304D DUP2 PUSH2 0x3011 JUMP JUMPDEST SWAP1 POP SWAP2 SWAP1 POP JUMP JUMPDEST PUSH1 0x0 PUSH1 0x20 DUP3 DUP5 SUB SLT ISZERO PUSH2 0x306A JUMPI PUSH2 0x3069 PUSH2 0x2021 JUMP JUMPDEST JUMPDEST PUSH1 0x0 PUSH2 0x3078 DUP5 DUP3 DUP6 ADD PUSH2 0x2C10 JUMP JUMPDEST SWAP2 POP POP SWAP3 SWAP2 POP POP JUMP INVALID LOG2 PUSH5 0x6970667358 0x22 SLT KECCAK256 SMOD 0xC3 OR SHL 0x29 0xC9 0x26 0xD9 0x49 MSTORE 0xE0 0xAC SWAP1 0xA6 SLOAD DUP15 DUP10 0xED 0xEF 0x2B 0xD PUSH11 0x48E8FAFA1090F8473E3364 PUSH20 0x6F6C634300080D00330000000000000000000000 "
				},
				"gasEstimates": {
					"creation": {
						"codeDepositCost": "2494200",
						"executionCost": "infinite",
						"totalCost": "infinite"
					},
					"external": {
						"ERC721_Interface()": "386",
						"allItems(uint256)": "infinite",
						"allMarketItems()": "infinite",
						"antaFeePercent()": "2543",
						"bnbFeePercent()": "2610",
						"createMarketItem(uint256,uint256)": "infinite",
						"createMarketSale(uint256,uint256)": "infinite",
						"delistItem(uint256)": "infinite",
						"factory()": "infinite",
						"fetchMarketItem(uint256)": "infinite",
						"fetchMarketItems()": "infinite",
						"fetchMySelling()": "infinite",
						"getIngameItem(uint256)": "infinite",
						"getMarketItem(uint256)": "infinite",
						"items(address,uint256)": "infinite",
						"mainNFTs()": "infinite",
						"mainToken()": "infinite",
						"owner()": "2633",
						"renounceOwnership()": "30441",
						"setFactory(address)": "27095",
						"setMainNFT(address)": "27052",
						"setMainToken(address)": "27074",
						"transferOwnership(address)": "30808"
					},
					"internal": {
						"_requireERC721(address)": "infinite",
						"_safeBuyItem(uint256,uint256,uint256)": "infinite",
						"_safeTransferToMarket(uint256)": "infinite",
						"isContract(address)": "infinite"
					}
				},
				"methodIdentifiers": {
					"ERC721_Interface()": "2b4c32be",
					"allItems(uint256)": "ff68fa6e",
					"allMarketItems()": "517bd451",
					"antaFeePercent()": "b7a60c7e",
					"bnbFeePercent()": "85a8b36c",
					"createMarketItem(uint256,uint256)": "361c1995",
					"createMarketSale(uint256,uint256)": "a1c11ca8",
					"delistItem(uint256)": "10061631",
					"factory()": "c45a0155",
					"fetchMarketItem(uint256)": "2a45b250",
					"fetchMarketItems()": "0f08efe0",
					"fetchMySelling()": "673cf668",
					"getIngameItem(uint256)": "03ce1cb5",
					"getMarketItem(uint256)": "c7be7a49",
					"items(address,uint256)": "5c80a435",
					"mainNFTs()": "f55de0c7",
					"mainToken()": "3fc15f15",
					"owner()": "8da5cb5b",
					"renounceOwnership()": "715018a6",
					"setFactory(address)": "5bb47808",
					"setMainNFT(address)": "15b12494",
					"setMainToken(address)": "27ce464e",
					"transferOwnership(address)": "f2fde38b"
				}
			},
			"storageLayout": {
				"storage": [
					{
						"astId": 409,
						"contract": "contracts/Marketplace2/Marketplace.sol:NFTMarket",
						"label": "_status",
						"offset": 0,
						"slot": "0",
						"type": "t_uint256"
					},
					{
						"astId": 498,
						"contract": "contracts/Marketplace2/Marketplace.sol:NFTMarket",
						"label": "allMarketItems",
						"offset": 0,
						"slot": "1",
						"type": "t_struct(MarketItem)495_storage"
					},
					{
						"astId": 509,
						"contract": "contracts/Marketplace2/Marketplace.sol:NFTMarket",
						"label": "allItems",
						"offset": 0,
						"slot": "7",
						"type": "t_mapping(t_uint256,t_struct(MarketItem)495_storage)"
					},
					{
						"astId": 516,
						"contract": "contracts/Marketplace2/Marketplace.sol:NFTMarket",
						"label": "items",
						"offset": 0,
						"slot": "8",
						"type": "t_mapping(t_address,t_mapping(t_uint256,t_struct(MarketItem)495_storage))"
					},
					{
						"astId": 519,
						"contract": "contracts/Marketplace2/Marketplace.sol:NFTMarket",
						"label": "mainToken",
						"offset": 0,
						"slot": "9",
						"type": "t_contract(IERC20)201"
					},
					{
						"astId": 522,
						"contract": "contracts/Marketplace2/Marketplace.sol:NFTMarket",
						"label": "factory",
						"offset": 0,
						"slot": "10",
						"type": "t_contract(IFactory)477"
					},
					{
						"astId": 525,
						"contract": "contracts/Marketplace2/Marketplace.sol:NFTMarket",
						"label": "mainNFTs",
						"offset": 0,
						"slot": "11",
						"type": "t_contract(IERC721)326"
					},
					{
						"astId": 527,
						"contract": "contracts/Marketplace2/Marketplace.sol:NFTMarket",
						"label": "bnbFeePercent",
						"offset": 20,
						"slot": "11",
						"type": "t_uint8"
					},
					{
						"astId": 529,
						"contract": "contracts/Marketplace2/Marketplace.sol:NFTMarket",
						"label": "antaFeePercent",
						"offset": 21,
						"slot": "11",
						"type": "t_uint8"
					},
					{
						"astId": 27,
						"contract": "contracts/Marketplace2/Marketplace.sol:NFTMarket",
						"label": "_owner",
						"offset": 0,
						"slot": "12",
						"type": "t_address"
					},
					{
						"astId": 597,
						"contract": "contracts/Marketplace2/Marketplace.sol:NFTMarket",
						"label": "_itemIds",
						"offset": 0,
						"slot": "13",
						"type": "t_struct(Counter)331_storage"
					},
					{
						"astId": 600,
						"contract": "contracts/Marketplace2/Marketplace.sol:NFTMarket",
						"label": "_itemsSold",
						"offset": 0,
						"slot": "14",
						"type": "t_struct(Counter)331_storage"
					},
					{
						"astId": 605,
						"contract": "contracts/Marketplace2/Marketplace.sol:NFTMarket",
						"label": "idToMarketItem",
						"offset": 0,
						"slot": "15",
						"type": "t_mapping(t_uint256,t_struct(MarketItem)495_storage)"
					}
				],
				"types": {
					"t_address": {
						"encoding": "inplace",
						"label": "address",
						"numberOfBytes": "20"
					},
					"t_contract(IERC20)201": {
						"encoding": "inplace",
						"label": "contract IERC20",
						"numberOfBytes": "20"
					},
					"t_contract(IERC721)326": {
						"encoding": "inplace",
						"label": "contract IERC721",
						"numberOfBytes": "20"
					},
					"t_contract(IFactory)477": {
						"encoding": "inplace",
						"label": "contract IFactory",
						"numberOfBytes": "20"
					},
					"t_enum(ItemStatus)481": {
						"encoding": "inplace",
						"label": "enum MarketplaceStorage.ItemStatus",
						"numberOfBytes": "1"
					},
					"t_mapping(t_address,t_mapping(t_uint256,t_struct(MarketItem)495_storage))": {
						"encoding": "mapping",
						"key": "t_address",
						"label": "mapping(address => mapping(uint256 => struct MarketplaceStorage.MarketItem))",
						"numberOfBytes": "32",
						"value": "t_mapping(t_uint256,t_struct(MarketItem)495_storage)"
					},
					"t_mapping(t_uint256,t_struct(MarketItem)495_storage)": {
						"encoding": "mapping",
						"key": "t_uint256",
						"label": "mapping(uint256 => struct MarketplaceStorage.MarketItem)",
						"numberOfBytes": "32",
						"value": "t_struct(MarketItem)495_storage"
					},
					"t_struct(Counter)331_storage": {
						"encoding": "inplace",
						"label": "struct Counters.Counter",
						"members": [
							{
								"astId": 330,
								"contract": "contracts/Marketplace2/Marketplace.sol:NFTMarket",
								"label": "_value",
								"offset": 0,
								"slot": "0",
								"type": "t_uint256"
							}
						],
						"numberOfBytes": "32"
					},
					"t_struct(MarketItem)495_storage": {
						"encoding": "inplace",
						"label": "struct MarketplaceStorage.MarketItem",
						"members": [
							{
								"astId": 483,
								"contract": "contracts/Marketplace2/Marketplace.sol:NFTMarket",
								"label": "itemId",
								"offset": 0,
								"slot": "0",
								"type": "t_uint256"
							},
							{
								"astId": 485,
								"contract": "contracts/Marketplace2/Marketplace.sol:NFTMarket",
								"label": "tokenId",
								"offset": 0,
								"slot": "1",
								"type": "t_uint256"
							},
							{
								"astId": 487,
								"contract": "contracts/Marketplace2/Marketplace.sol:NFTMarket",
								"label": "seller",
								"offset": 0,
								"slot": "2",
								"type": "t_address"
							},
							{
								"astId": 489,
								"contract": "contracts/Marketplace2/Marketplace.sol:NFTMarket",
								"label": "owner",
								"offset": 0,
								"slot": "3",
								"type": "t_address"
							},
							{
								"astId": 491,
								"contract": "contracts/Marketplace2/Marketplace.sol:NFTMarket",
								"label": "price",
								"offset": 0,
								"slot": "4",
								"type": "t_uint256"
							},
							{
								"astId": 494,
								"contract": "contracts/Marketplace2/Marketplace.sol:NFTMarket",
								"label": "status",
								"offset": 0,
								"slot": "5",
								"type": "t_enum(ItemStatus)481"
							}
						],
						"numberOfBytes": "192"
					},
					"t_uint256": {
						"encoding": "inplace",
						"label": "uint256",
						"numberOfBytes": "32"
					},
					"t_uint8": {
						"encoding": "inplace",
						"label": "uint8",
						"numberOfBytes": "1"
					}
				}
			},
			"userdoc": {
				"kind": "user",
				"methods": {},
				"version": 1
			}
		}
	}
}