{
	"contracts/Marketplace2/Marketplace.sol": {
		"MarketplaceStorage": {
			"abi": [
				{
					"anonymous": false,
					"inputs": [
						{
							"indexed": false,
							"internalType": "bytes32",
							"name": "id",
							"type": "bytes32"
						},
						{
							"indexed": true,
							"internalType": "uint256",
							"name": "assetId",
							"type": "uint256"
						},
						{
							"indexed": true,
							"internalType": "address",
							"name": "seller",
							"type": "address"
						},
						{
							"indexed": false,
							"internalType": "address",
							"name": "nftAddress",
							"type": "address"
						},
						{
							"indexed": false,
							"internalType": "uint256",
							"name": "price",
							"type": "uint256"
						},
						{
							"indexed": false,
							"internalType": "uint8",
							"name": "feePercent",
							"type": "uint8"
						},
						{
							"indexed": false,
							"internalType": "uint256",
							"name": "fee",
							"type": "uint256"
						},
						{
							"indexed": true,
							"internalType": "address",
							"name": "buyer",
							"type": "address"
						},
						{
							"indexed": false,
							"internalType": "string",
							"name": "currency",
							"type": "string"
						},
						{
							"indexed": false,
							"internalType": "uint256",
							"name": "createdAt",
							"type": "uint256"
						}
					],
					"name": "BuyItemSuccessful",
					"type": "event"
				},
				{
					"anonymous": false,
					"inputs": [
						{
							"indexed": true,
							"internalType": "address",
							"name": "receiver",
							"type": "address"
						},
						{
							"indexed": false,
							"internalType": "uint256",
							"name": "value",
							"type": "uint256"
						}
					],
					"name": "Claim",
					"type": "event"
				},
				{
					"anonymous": false,
					"inputs": [
						{
							"indexed": false,
							"internalType": "address",
							"name": "nftAddress",
							"type": "address"
						},
						{
							"indexed": false,
							"internalType": "bytes32",
							"name": "id",
							"type": "bytes32"
						},
						{
							"indexed": true,
							"internalType": "uint256",
							"name": "assetId",
							"type": "uint256"
						},
						{
							"indexed": true,
							"internalType": "address",
							"name": "delistBy",
							"type": "address"
						},
						{
							"indexed": false,
							"internalType": "uint256",
							"name": "createdAt",
							"type": "uint256"
						}
					],
					"name": "DelistItemSuccessful",
					"type": "event"
				},
				{
					"anonymous": false,
					"inputs": [
						{
							"indexed": false,
							"internalType": "address",
							"name": "nftAddress",
							"type": "address"
						},
						{
							"indexed": false,
							"internalType": "bytes32",
							"name": "id",
							"type": "bytes32"
						},
						{
							"indexed": true,
							"internalType": "uint256",
							"name": "assetId",
							"type": "uint256"
						},
						{
							"indexed": false,
							"internalType": "uint256",
							"name": "price",
							"type": "uint256"
						},
						{
							"indexed": true,
							"internalType": "address",
							"name": "seller",
							"type": "address"
						},
						{
							"indexed": false,
							"internalType": "string",
							"name": "currency",
							"type": "string"
						},
						{
							"indexed": false,
							"internalType": "uint256",
							"name": "createdAt",
							"type": "uint256"
						}
					],
					"name": "SellItemSuccessful",
					"type": "event"
				},
				{
					"inputs": [],
					"name": "ERC721_Interface",
					"outputs": [
						{
							"internalType": "bytes4",
							"name": "",
							"type": "bytes4"
						}
					],
					"stateMutability": "view",
					"type": "function"
				},
				{
					"inputs": [],
					"name": "antaFeePercent",
					"outputs": [
						{
							"internalType": "uint8",
							"name": "",
							"type": "uint8"
						}
					],
					"stateMutability": "view",
					"type": "function"
				},
				{
					"inputs": [],
					"name": "bnbFeePercent",
					"outputs": [
						{
							"internalType": "uint8",
							"name": "",
							"type": "uint8"
						}
					],
					"stateMutability": "view",
					"type": "function"
				},
				{
					"inputs": [
						{
							"internalType": "address",
							"name": "",
							"type": "address"
						},
						{
							"internalType": "uint256",
							"name": "",
							"type": "uint256"
						},
						{
							"internalType": "address",
							"name": "",
							"type": "address"
						}
					],
					"name": "itemOffers",
					"outputs": [
						{
							"internalType": "bytes32",
							"name": "id",
							"type": "bytes32"
						},
						{
							"internalType": "uint256",
							"name": "offerPrice",
							"type": "uint256"
						}
					],
					"stateMutability": "view",
					"type": "function"
				},
				{
					"inputs": [
						{
							"internalType": "address",
							"name": "",
							"type": "address"
						},
						{
							"internalType": "uint256",
							"name": "",
							"type": "uint256"
						}
					],
					"name": "items",
					"outputs": [
						{
							"internalType": "bytes32",
							"name": "id",
							"type": "bytes32"
						},
						{
							"internalType": "address",
							"name": "seller",
							"type": "address"
						},
						{
							"internalType": "address",
							"name": "nftAddress",
							"type": "address"
						},
						{
							"internalType": "uint256",
							"name": "price",
							"type": "uint256"
						},
						{
							"internalType": "uint256",
							"name": "priceAnta",
							"type": "uint256"
						},
						{
							"internalType": "enum MarketplaceStorage.ItemStatus",
							"name": "status",
							"type": "uint8"
						}
					],
					"stateMutability": "view",
					"type": "function"
				},
				{
					"inputs": [],
					"name": "sqfToken",
					"outputs": [
						{
							"internalType": "contract IERC20",
							"name": "",
							"type": "address"
						}
					],
					"stateMutability": "view",
					"type": "function"
				}
			],
			"devdoc": {
				"kind": "dev",
				"methods": {},
				"version": 1
			},
			"evm": {
				"assembly": "    /* \"contracts/Marketplace2/Marketplace.sol\":15109:17002  contract MarketplaceStorage {... */\n  mstore(0x40, 0x80)\n  callvalue\n  dup1\n  iszero\n  tag_1\n  jumpi\n  0x00\n  dup1\n  revert\ntag_1:\n  pop\n  dataSize(sub_0)\n  dup1\n  dataOffset(sub_0)\n  0x00\n  codecopy\n  0x00\n  return\nstop\n\nsub_0: assembly {\n        /* \"contracts/Marketplace2/Marketplace.sol\":15109:17002  contract MarketplaceStorage {... */\n      mstore(0x40, 0x80)\n      callvalue\n      dup1\n      iszero\n      tag_1\n      jumpi\n      0x00\n      dup1\n      revert\n    tag_1:\n      pop\n      jumpi(tag_2, lt(calldatasize, 0x04))\n      shr(0xe0, calldataload(0x00))\n      dup1\n      0x15b81dc3\n      eq\n      tag_3\n      jumpi\n      dup1\n      0x2b4c32be\n      eq\n      tag_4\n      jumpi\n      dup1\n      0x49739678\n      eq\n      tag_5\n      jumpi\n      dup1\n      0x5c80a435\n      eq\n      tag_6\n      jumpi\n      dup1\n      0x85a8b36c\n      eq\n      tag_7\n      jumpi\n      dup1\n      0xb7a60c7e\n      eq\n      tag_8\n      jumpi\n    tag_2:\n      0x00\n      dup1\n      revert\n        /* \"contracts/Marketplace2/Marketplace.sol\":16146:16168  IERC20 public sqfToken */\n    tag_3:\n      tag_9\n      tag_10\n      jump\t// in\n    tag_9:\n      mload(0x40)\n      tag_11\n      swap2\n      swap1\n      tag_12\n      jump\t// in\n    tag_11:\n      mload(0x40)\n      dup1\n      swap2\n      sub\n      swap1\n      return\n        /* \"contracts/Marketplace2/Marketplace.sol\":15771:15831  bytes4 public constant ERC721_Interface = bytes4(0x80ac58cd) */\n    tag_4:\n      tag_13\n      tag_14\n      jump\t// in\n    tag_13:\n      mload(0x40)\n      tag_15\n      swap2\n      swap1\n      tag_16\n      jump\t// in\n    tag_15:\n      mload(0x40)\n      dup1\n      swap2\n      sub\n      swap1\n      return\n        /* \"contracts/Marketplace2/Marketplace.sol\":16045:16140  mapping(address => mapping(uint256 => mapping(address => ItemOffer)))... */\n    tag_5:\n      tag_17\n      0x04\n      dup1\n      calldatasize\n      sub\n      dup2\n      add\n      swap1\n      tag_18\n      swap2\n      swap1\n      tag_19\n      jump\t// in\n    tag_18:\n      tag_20\n      jump\t// in\n    tag_17:\n      mload(0x40)\n      tag_21\n      swap3\n      swap2\n      swap1\n      tag_22\n      jump\t// in\n    tag_21:\n      mload(0x40)\n      dup1\n      swap2\n      sub\n      swap1\n      return\n        /* \"contracts/Marketplace2/Marketplace.sol\":15909:15966  mapping(address => mapping(uint256 => Item)) public items */\n    tag_6:\n      tag_23\n      0x04\n      dup1\n      calldatasize\n      sub\n      dup2\n      add\n      swap1\n      tag_24\n      swap2\n      swap1\n      tag_25\n      jump\t// in\n    tag_24:\n      tag_26\n      jump\t// in\n    tag_23:\n      mload(0x40)\n      tag_27\n      swap7\n      swap6\n      swap5\n      swap4\n      swap3\n      swap2\n      swap1\n      tag_28\n      jump\t// in\n    tag_27:\n      mload(0x40)\n      dup1\n      swap2\n      sub\n      swap1\n      return\n        /* \"contracts/Marketplace2/Marketplace.sol\":16175:16201  uint8 public bnbFeePercent */\n    tag_7:\n      tag_29\n      tag_30\n      jump\t// in\n    tag_29:\n      mload(0x40)\n      tag_31\n      swap2\n      swap1\n      tag_32\n      jump\t// in\n    tag_31:\n      mload(0x40)\n      dup1\n      swap2\n      sub\n      swap1\n      return\n        /* \"contracts/Marketplace2/Marketplace.sol\":16207:16234  uint8 public antaFeePercent */\n    tag_8:\n      tag_33\n      tag_34\n      jump\t// in\n    tag_33:\n      mload(0x40)\n      tag_35\n      swap2\n      swap1\n      tag_32\n      jump\t// in\n    tag_35:\n      mload(0x40)\n      dup1\n      swap2\n      sub\n      swap1\n      return\n        /* \"contracts/Marketplace2/Marketplace.sol\":16146:16168  IERC20 public sqfToken */\n    tag_10:\n      0x02\n      0x00\n      swap1\n      sload\n      swap1\n      0x0100\n      exp\n      swap1\n      div\n      0xffffffffffffffffffffffffffffffffffffffff\n      and\n      dup2\n      jump\t// out\n        /* \"contracts/Marketplace2/Marketplace.sol\":15771:15831  bytes4 public constant ERC721_Interface = bytes4(0x80ac58cd) */\n    tag_14:\n        /* \"contracts/Marketplace2/Marketplace.sol\":15820:15830  0x80ac58cd */\n      0x80ac58cd\n        /* \"contracts/Marketplace2/Marketplace.sol\":15813:15831  bytes4(0x80ac58cd) */\n      0xe0\n      shl\n        /* \"contracts/Marketplace2/Marketplace.sol\":15771:15831  bytes4 public constant ERC721_Interface = bytes4(0x80ac58cd) */\n      dup2\n      jump\t// out\n        /* \"contracts/Marketplace2/Marketplace.sol\":16045:16140  mapping(address => mapping(uint256 => mapping(address => ItemOffer)))... */\n    tag_20:\n      mstore(0x20, 0x01)\n      dup3\n      0x00\n      mstore\n      mstore(0x20, keccak256(0x00, 0x40))\n      dup2\n      0x00\n      mstore\n      mstore(0x20, keccak256(0x00, 0x40))\n      dup1\n      0x00\n      mstore\n      keccak256(0x00, 0x40)\n      0x00\n      swap3\n      pop\n      swap3\n      pop\n      pop\n      pop\n      dup1\n      0x00\n      add\n      sload\n      swap1\n      dup1\n      0x01\n      add\n      sload\n      swap1\n      pop\n      dup3\n      jump\t// out\n        /* \"contracts/Marketplace2/Marketplace.sol\":15909:15966  mapping(address => mapping(uint256 => Item)) public items */\n    tag_26:\n      mstore(0x20, 0x00)\n      dup2\n      0x00\n      mstore\n      mstore(0x20, keccak256(0x00, 0x40))\n      dup1\n      0x00\n      mstore\n      keccak256(0x00, 0x40)\n      0x00\n      swap2\n      pop\n      swap2\n      pop\n      pop\n      dup1\n      0x00\n      add\n      sload\n      swap1\n      dup1\n      0x01\n      add\n      0x00\n      swap1\n      sload\n      swap1\n      0x0100\n      exp\n      swap1\n      div\n      0xffffffffffffffffffffffffffffffffffffffff\n      and\n      swap1\n      dup1\n      0x02\n      add\n      0x00\n      swap1\n      sload\n      swap1\n      0x0100\n      exp\n      swap1\n      div\n      0xffffffffffffffffffffffffffffffffffffffff\n      and\n      swap1\n      dup1\n      0x03\n      add\n      sload\n      swap1\n      dup1\n      0x04\n      add\n      sload\n      swap1\n      dup1\n      0x05\n      add\n      0x00\n      swap1\n      sload\n      swap1\n      0x0100\n      exp\n      swap1\n      div\n      0xff\n      and\n      swap1\n      pop\n      dup7\n      jump\t// out\n        /* \"contracts/Marketplace2/Marketplace.sol\":16175:16201  uint8 public bnbFeePercent */\n    tag_30:\n      0x02\n      0x14\n      swap1\n      sload\n      swap1\n      0x0100\n      exp\n      swap1\n      div\n      0xff\n      and\n      dup2\n      jump\t// out\n        /* \"contracts/Marketplace2/Marketplace.sol\":16207:16234  uint8 public antaFeePercent */\n    tag_34:\n      0x02\n      0x15\n      swap1\n      sload\n      swap1\n      0x0100\n      exp\n      swap1\n      div\n      0xff\n      and\n      dup2\n      jump\t// out\n        /* \"#utility.yul\":7:133   */\n    tag_36:\n        /* \"#utility.yul\":44:51   */\n      0x00\n        /* \"#utility.yul\":84:126   */\n      0xffffffffffffffffffffffffffffffffffffffff\n        /* \"#utility.yul\":77:82   */\n      dup3\n        /* \"#utility.yul\":73:127   */\n      and\n        /* \"#utility.yul\":62:127   */\n      swap1\n      pop\n        /* \"#utility.yul\":7:133   */\n      swap2\n      swap1\n      pop\n      jump\t// out\n        /* \"#utility.yul\":139:199   */\n    tag_37:\n        /* \"#utility.yul\":167:170   */\n      0x00\n        /* \"#utility.yul\":188:193   */\n      dup2\n        /* \"#utility.yul\":181:193   */\n      swap1\n      pop\n        /* \"#utility.yul\":139:199   */\n      swap2\n      swap1\n      pop\n      jump\t// out\n        /* \"#utility.yul\":205:347   */\n    tag_38:\n        /* \"#utility.yul\":255:264   */\n      0x00\n        /* \"#utility.yul\":288:341   */\n      tag_68\n        /* \"#utility.yul\":306:340   */\n      tag_69\n        /* \"#utility.yul\":315:339   */\n      tag_70\n        /* \"#utility.yul\":333:338   */\n      dup5\n        /* \"#utility.yul\":315:339   */\n      tag_36\n      jump\t// in\n    tag_70:\n        /* \"#utility.yul\":306:340   */\n      tag_37\n      jump\t// in\n    tag_69:\n        /* \"#utility.yul\":288:341   */\n      tag_36\n      jump\t// in\n    tag_68:\n        /* \"#utility.yul\":275:341   */\n      swap1\n      pop\n        /* \"#utility.yul\":205:347   */\n      swap2\n      swap1\n      pop\n      jump\t// out\n        /* \"#utility.yul\":353:479   */\n    tag_39:\n        /* \"#utility.yul\":403:412   */\n      0x00\n        /* \"#utility.yul\":436:473   */\n      tag_72\n        /* \"#utility.yul\":467:472   */\n      dup3\n        /* \"#utility.yul\":436:473   */\n      tag_38\n      jump\t// in\n    tag_72:\n        /* \"#utility.yul\":423:473   */\n      swap1\n      pop\n        /* \"#utility.yul\":353:479   */\n      swap2\n      swap1\n      pop\n      jump\t// out\n        /* \"#utility.yul\":485:625   */\n    tag_40:\n        /* \"#utility.yul\":549:558   */\n      0x00\n        /* \"#utility.yul\":582:619   */\n      tag_74\n        /* \"#utility.yul\":613:618   */\n      dup3\n        /* \"#utility.yul\":582:619   */\n      tag_39\n      jump\t// in\n    tag_74:\n        /* \"#utility.yul\":569:619   */\n      swap1\n      pop\n        /* \"#utility.yul\":485:625   */\n      swap2\n      swap1\n      pop\n      jump\t// out\n        /* \"#utility.yul\":631:790   */\n    tag_41:\n        /* \"#utility.yul\":732:783   */\n      tag_76\n        /* \"#utility.yul\":777:782   */\n      dup2\n        /* \"#utility.yul\":732:783   */\n      tag_40\n      jump\t// in\n    tag_76:\n        /* \"#utility.yul\":727:730   */\n      dup3\n        /* \"#utility.yul\":720:784   */\n      mstore\n        /* \"#utility.yul\":631:790   */\n      pop\n      pop\n      jump\t// out\n        /* \"#utility.yul\":796:1046   */\n    tag_12:\n        /* \"#utility.yul\":903:907   */\n      0x00\n        /* \"#utility.yul\":941:943   */\n      0x20\n        /* \"#utility.yul\":930:939   */\n      dup3\n        /* \"#utility.yul\":926:944   */\n      add\n        /* \"#utility.yul\":918:944   */\n      swap1\n      pop\n        /* \"#utility.yul\":954:1039   */\n      tag_78\n        /* \"#utility.yul\":1036:1037   */\n      0x00\n        /* \"#utility.yul\":1025:1034   */\n      dup4\n        /* \"#utility.yul\":1021:1038   */\n      add\n        /* \"#utility.yul\":1012:1018   */\n      dup5\n        /* \"#utility.yul\":954:1039   */\n      tag_41\n      jump\t// in\n    tag_78:\n        /* \"#utility.yul\":796:1046   */\n      swap3\n      swap2\n      pop\n      pop\n      jump\t// out\n        /* \"#utility.yul\":1052:1201   */\n    tag_42:\n        /* \"#utility.yul\":1088:1095   */\n      0x00\n        /* \"#utility.yul\":1128:1194   */\n      0xffffffff00000000000000000000000000000000000000000000000000000000\n        /* \"#utility.yul\":1121:1126   */\n      dup3\n        /* \"#utility.yul\":1117:1195   */\n      and\n        /* \"#utility.yul\":1106:1195   */\n      swap1\n      pop\n        /* \"#utility.yul\":1052:1201   */\n      swap2\n      swap1\n      pop\n      jump\t// out\n        /* \"#utility.yul\":1207:1322   */\n    tag_43:\n        /* \"#utility.yul\":1292:1315   */\n      tag_81\n        /* \"#utility.yul\":1309:1314   */\n      dup2\n        /* \"#utility.yul\":1292:1315   */\n      tag_42\n      jump\t// in\n    tag_81:\n        /* \"#utility.yul\":1287:1290   */\n      dup3\n        /* \"#utility.yul\":1280:1316   */\n      mstore\n        /* \"#utility.yul\":1207:1322   */\n      pop\n      pop\n      jump\t// out\n        /* \"#utility.yul\":1328:1546   */\n    tag_16:\n        /* \"#utility.yul\":1419:1423   */\n      0x00\n        /* \"#utility.yul\":1457:1459   */\n      0x20\n        /* \"#utility.yul\":1446:1455   */\n      dup3\n        /* \"#utility.yul\":1442:1460   */\n      add\n        /* \"#utility.yul\":1434:1460   */\n      swap1\n      pop\n        /* \"#utility.yul\":1470:1539   */\n      tag_83\n        /* \"#utility.yul\":1536:1537   */\n      0x00\n        /* \"#utility.yul\":1525:1534   */\n      dup4\n        /* \"#utility.yul\":1521:1538   */\n      add\n        /* \"#utility.yul\":1512:1518   */\n      dup5\n        /* \"#utility.yul\":1470:1539   */\n      tag_43\n      jump\t// in\n    tag_83:\n        /* \"#utility.yul\":1328:1546   */\n      swap3\n      swap2\n      pop\n      pop\n      jump\t// out\n        /* \"#utility.yul\":1633:1750   */\n    tag_45:\n        /* \"#utility.yul\":1742:1743   */\n      0x00\n        /* \"#utility.yul\":1739:1740   */\n      dup1\n        /* \"#utility.yul\":1732:1744   */\n      revert\n        /* \"#utility.yul\":1879:1975   */\n    tag_47:\n        /* \"#utility.yul\":1916:1923   */\n      0x00\n        /* \"#utility.yul\":1945:1969   */\n      tag_88\n        /* \"#utility.yul\":1963:1968   */\n      dup3\n        /* \"#utility.yul\":1945:1969   */\n      tag_36\n      jump\t// in\n    tag_88:\n        /* \"#utility.yul\":1934:1969   */\n      swap1\n      pop\n        /* \"#utility.yul\":1879:1975   */\n      swap2\n      swap1\n      pop\n      jump\t// out\n        /* \"#utility.yul\":1981:2103   */\n    tag_48:\n        /* \"#utility.yul\":2054:2078   */\n      tag_90\n        /* \"#utility.yul\":2072:2077   */\n      dup2\n        /* \"#utility.yul\":2054:2078   */\n      tag_47\n      jump\t// in\n    tag_90:\n        /* \"#utility.yul\":2047:2052   */\n      dup2\n        /* \"#utility.yul\":2044:2079   */\n      eq\n        /* \"#utility.yul\":2034:2097   */\n      tag_91\n      jumpi\n        /* \"#utility.yul\":2093:2094   */\n      0x00\n        /* \"#utility.yul\":2090:2091   */\n      dup1\n        /* \"#utility.yul\":2083:2095   */\n      revert\n        /* \"#utility.yul\":2034:2097   */\n    tag_91:\n        /* \"#utility.yul\":1981:2103   */\n      pop\n      jump\t// out\n        /* \"#utility.yul\":2109:2248   */\n    tag_49:\n        /* \"#utility.yul\":2155:2160   */\n      0x00\n        /* \"#utility.yul\":2193:2199   */\n      dup2\n        /* \"#utility.yul\":2180:2200   */\n      calldataload\n        /* \"#utility.yul\":2171:2200   */\n      swap1\n      pop\n        /* \"#utility.yul\":2209:2242   */\n      tag_93\n        /* \"#utility.yul\":2236:2241   */\n      dup2\n        /* \"#utility.yul\":2209:2242   */\n      tag_48\n      jump\t// in\n    tag_93:\n        /* \"#utility.yul\":2109:2248   */\n      swap3\n      swap2\n      pop\n      pop\n      jump\t// out\n        /* \"#utility.yul\":2254:2331   */\n    tag_50:\n        /* \"#utility.yul\":2291:2298   */\n      0x00\n        /* \"#utility.yul\":2320:2325   */\n      dup2\n        /* \"#utility.yul\":2309:2325   */\n      swap1\n      pop\n        /* \"#utility.yul\":2254:2331   */\n      swap2\n      swap1\n      pop\n      jump\t// out\n        /* \"#utility.yul\":2337:2459   */\n    tag_51:\n        /* \"#utility.yul\":2410:2434   */\n      tag_96\n        /* \"#utility.yul\":2428:2433   */\n      dup2\n        /* \"#utility.yul\":2410:2434   */\n      tag_50\n      jump\t// in\n    tag_96:\n        /* \"#utility.yul\":2403:2408   */\n      dup2\n        /* \"#utility.yul\":2400:2435   */\n      eq\n        /* \"#utility.yul\":2390:2453   */\n      tag_97\n      jumpi\n        /* \"#utility.yul\":2449:2450   */\n      0x00\n        /* \"#utility.yul\":2446:2447   */\n      dup1\n        /* \"#utility.yul\":2439:2451   */\n      revert\n        /* \"#utility.yul\":2390:2453   */\n    tag_97:\n        /* \"#utility.yul\":2337:2459   */\n      pop\n      jump\t// out\n        /* \"#utility.yul\":2465:2604   */\n    tag_52:\n        /* \"#utility.yul\":2511:2516   */\n      0x00\n        /* \"#utility.yul\":2549:2555   */\n      dup2\n        /* \"#utility.yul\":2536:2556   */\n      calldataload\n        /* \"#utility.yul\":2527:2556   */\n      swap1\n      pop\n        /* \"#utility.yul\":2565:2598   */\n      tag_99\n        /* \"#utility.yul\":2592:2597   */\n      dup2\n        /* \"#utility.yul\":2565:2598   */\n      tag_51\n      jump\t// in\n    tag_99:\n        /* \"#utility.yul\":2465:2604   */\n      swap3\n      swap2\n      pop\n      pop\n      jump\t// out\n        /* \"#utility.yul\":2610:3229   */\n    tag_19:\n        /* \"#utility.yul\":2687:2693   */\n      0x00\n        /* \"#utility.yul\":2695:2701   */\n      dup1\n        /* \"#utility.yul\":2703:2709   */\n      0x00\n        /* \"#utility.yul\":2752:2754   */\n      0x60\n        /* \"#utility.yul\":2740:2749   */\n      dup5\n        /* \"#utility.yul\":2731:2738   */\n      dup7\n        /* \"#utility.yul\":2727:2750   */\n      sub\n        /* \"#utility.yul\":2723:2755   */\n      slt\n        /* \"#utility.yul\":2720:2839   */\n      iszero\n      tag_101\n      jumpi\n        /* \"#utility.yul\":2758:2837   */\n      tag_102\n      tag_45\n      jump\t// in\n    tag_102:\n        /* \"#utility.yul\":2720:2839   */\n    tag_101:\n        /* \"#utility.yul\":2878:2879   */\n      0x00\n        /* \"#utility.yul\":2903:2956   */\n      tag_103\n        /* \"#utility.yul\":2948:2955   */\n      dup7\n        /* \"#utility.yul\":2939:2945   */\n      dup3\n        /* \"#utility.yul\":2928:2937   */\n      dup8\n        /* \"#utility.yul\":2924:2946   */\n      add\n        /* \"#utility.yul\":2903:2956   */\n      tag_49\n      jump\t// in\n    tag_103:\n        /* \"#utility.yul\":2893:2956   */\n      swap4\n      pop\n        /* \"#utility.yul\":2849:2966   */\n      pop\n        /* \"#utility.yul\":3005:3007   */\n      0x20\n        /* \"#utility.yul\":3031:3084   */\n      tag_104\n        /* \"#utility.yul\":3076:3083   */\n      dup7\n        /* \"#utility.yul\":3067:3073   */\n      dup3\n        /* \"#utility.yul\":3056:3065   */\n      dup8\n        /* \"#utility.yul\":3052:3074   */\n      add\n        /* \"#utility.yul\":3031:3084   */\n      tag_52\n      jump\t// in\n    tag_104:\n        /* \"#utility.yul\":3021:3084   */\n      swap3\n      pop\n        /* \"#utility.yul\":2976:3094   */\n      pop\n        /* \"#utility.yul\":3133:3135   */\n      0x40\n        /* \"#utility.yul\":3159:3212   */\n      tag_105\n        /* \"#utility.yul\":3204:3211   */\n      dup7\n        /* \"#utility.yul\":3195:3201   */\n      dup3\n        /* \"#utility.yul\":3184:3193   */\n      dup8\n        /* \"#utility.yul\":3180:3202   */\n      add\n        /* \"#utility.yul\":3159:3212   */\n      tag_49\n      jump\t// in\n    tag_105:\n        /* \"#utility.yul\":3149:3212   */\n      swap2\n      pop\n        /* \"#utility.yul\":3104:3222   */\n      pop\n        /* \"#utility.yul\":2610:3229   */\n      swap3\n      pop\n      swap3\n      pop\n      swap3\n      jump\t// out\n        /* \"#utility.yul\":3235:3312   */\n    tag_53:\n        /* \"#utility.yul\":3272:3279   */\n      0x00\n        /* \"#utility.yul\":3301:3306   */\n      dup2\n        /* \"#utility.yul\":3290:3306   */\n      swap1\n      pop\n        /* \"#utility.yul\":3235:3312   */\n      swap2\n      swap1\n      pop\n      jump\t// out\n        /* \"#utility.yul\":3318:3436   */\n    tag_54:\n        /* \"#utility.yul\":3405:3429   */\n      tag_108\n        /* \"#utility.yul\":3423:3428   */\n      dup2\n        /* \"#utility.yul\":3405:3429   */\n      tag_53\n      jump\t// in\n    tag_108:\n        /* \"#utility.yul\":3400:3403   */\n      dup3\n        /* \"#utility.yul\":3393:3430   */\n      mstore\n        /* \"#utility.yul\":3318:3436   */\n      pop\n      pop\n      jump\t// out\n        /* \"#utility.yul\":3442:3560   */\n    tag_55:\n        /* \"#utility.yul\":3529:3553   */\n      tag_110\n        /* \"#utility.yul\":3547:3552   */\n      dup2\n        /* \"#utility.yul\":3529:3553   */\n      tag_50\n      jump\t// in\n    tag_110:\n        /* \"#utility.yul\":3524:3527   */\n      dup3\n        /* \"#utility.yul\":3517:3554   */\n      mstore\n        /* \"#utility.yul\":3442:3560   */\n      pop\n      pop\n      jump\t// out\n        /* \"#utility.yul\":3566:3898   */\n    tag_22:\n        /* \"#utility.yul\":3687:3691   */\n      0x00\n        /* \"#utility.yul\":3725:3727   */\n      0x40\n        /* \"#utility.yul\":3714:3723   */\n      dup3\n        /* \"#utility.yul\":3710:3728   */\n      add\n        /* \"#utility.yul\":3702:3728   */\n      swap1\n      pop\n        /* \"#utility.yul\":3738:3809   */\n      tag_112\n        /* \"#utility.yul\":3806:3807   */\n      0x00\n        /* \"#utility.yul\":3795:3804   */\n      dup4\n        /* \"#utility.yul\":3791:3808   */\n      add\n        /* \"#utility.yul\":3782:3788   */\n      dup6\n        /* \"#utility.yul\":3738:3809   */\n      tag_54\n      jump\t// in\n    tag_112:\n        /* \"#utility.yul\":3819:3891   */\n      tag_113\n        /* \"#utility.yul\":3887:3889   */\n      0x20\n        /* \"#utility.yul\":3876:3885   */\n      dup4\n        /* \"#utility.yul\":3872:3890   */\n      add\n        /* \"#utility.yul\":3863:3869   */\n      dup5\n        /* \"#utility.yul\":3819:3891   */\n      tag_55\n      jump\t// in\n    tag_113:\n        /* \"#utility.yul\":3566:3898   */\n      swap4\n      swap3\n      pop\n      pop\n      pop\n      jump\t// out\n        /* \"#utility.yul\":3904:4378   */\n    tag_25:\n        /* \"#utility.yul\":3972:3978   */\n      0x00\n        /* \"#utility.yul\":3980:3986   */\n      dup1\n        /* \"#utility.yul\":4029:4031   */\n      0x40\n        /* \"#utility.yul\":4017:4026   */\n      dup4\n        /* \"#utility.yul\":4008:4015   */\n      dup6\n        /* \"#utility.yul\":4004:4027   */\n      sub\n        /* \"#utility.yul\":4000:4032   */\n      slt\n        /* \"#utility.yul\":3997:4116   */\n      iszero\n      tag_115\n      jumpi\n        /* \"#utility.yul\":4035:4114   */\n      tag_116\n      tag_45\n      jump\t// in\n    tag_116:\n        /* \"#utility.yul\":3997:4116   */\n    tag_115:\n        /* \"#utility.yul\":4155:4156   */\n      0x00\n        /* \"#utility.yul\":4180:4233   */\n      tag_117\n        /* \"#utility.yul\":4225:4232   */\n      dup6\n        /* \"#utility.yul\":4216:4222   */\n      dup3\n        /* \"#utility.yul\":4205:4214   */\n      dup7\n        /* \"#utility.yul\":4201:4223   */\n      add\n        /* \"#utility.yul\":4180:4233   */\n      tag_49\n      jump\t// in\n    tag_117:\n        /* \"#utility.yul\":4170:4233   */\n      swap3\n      pop\n        /* \"#utility.yul\":4126:4243   */\n      pop\n        /* \"#utility.yul\":4282:4284   */\n      0x20\n        /* \"#utility.yul\":4308:4361   */\n      tag_118\n        /* \"#utility.yul\":4353:4360   */\n      dup6\n        /* \"#utility.yul\":4344:4350   */\n      dup3\n        /* \"#utility.yul\":4333:4342   */\n      dup7\n        /* \"#utility.yul\":4329:4351   */\n      add\n        /* \"#utility.yul\":4308:4361   */\n      tag_52\n      jump\t// in\n    tag_118:\n        /* \"#utility.yul\":4298:4361   */\n      swap2\n      pop\n        /* \"#utility.yul\":4253:4371   */\n      pop\n        /* \"#utility.yul\":3904:4378   */\n      swap3\n      pop\n      swap3\n      swap1\n      pop\n      jump\t// out\n        /* \"#utility.yul\":4384:4502   */\n    tag_56:\n        /* \"#utility.yul\":4471:4495   */\n      tag_120\n        /* \"#utility.yul\":4489:4494   */\n      dup2\n        /* \"#utility.yul\":4471:4495   */\n      tag_47\n      jump\t// in\n    tag_120:\n        /* \"#utility.yul\":4466:4469   */\n      dup3\n        /* \"#utility.yul\":4459:4496   */\n      mstore\n        /* \"#utility.yul\":4384:4502   */\n      pop\n      pop\n      jump\t// out\n        /* \"#utility.yul\":4508:4688   */\n    tag_57:\n        /* \"#utility.yul\":4556:4633   */\n      0x4e487b7100000000000000000000000000000000000000000000000000000000\n        /* \"#utility.yul\":4553:4554   */\n      0x00\n        /* \"#utility.yul\":4546:4634   */\n      mstore\n        /* \"#utility.yul\":4653:4657   */\n      0x21\n        /* \"#utility.yul\":4650:4651   */\n      0x04\n        /* \"#utility.yul\":4643:4658   */\n      mstore\n        /* \"#utility.yul\":4677:4681   */\n      0x24\n        /* \"#utility.yul\":4674:4675   */\n      0x00\n        /* \"#utility.yul\":4667:4682   */\n      revert\n        /* \"#utility.yul\":4694:4813   */\n    tag_58:\n        /* \"#utility.yul\":4781:4782   */\n      0x05\n        /* \"#utility.yul\":4774:4779   */\n      dup2\n        /* \"#utility.yul\":4771:4783   */\n      lt\n        /* \"#utility.yul\":4761:4807   */\n      tag_123\n      jumpi\n        /* \"#utility.yul\":4787:4805   */\n      tag_124\n      tag_57\n      jump\t// in\n    tag_124:\n        /* \"#utility.yul\":4761:4807   */\n    tag_123:\n        /* \"#utility.yul\":4694:4813   */\n      pop\n      jump\t// out\n        /* \"#utility.yul\":4819:4958   */\n    tag_59:\n        /* \"#utility.yul\":4870:4877   */\n      0x00\n        /* \"#utility.yul\":4899:4904   */\n      dup2\n        /* \"#utility.yul\":4888:4904   */\n      swap1\n      pop\n        /* \"#utility.yul\":4905:4952   */\n      tag_126\n        /* \"#utility.yul\":4946:4951   */\n      dup3\n        /* \"#utility.yul\":4905:4952   */\n      tag_58\n      jump\t// in\n    tag_126:\n        /* \"#utility.yul\":4819:4958   */\n      swap2\n      swap1\n      pop\n      jump\t// out\n        /* \"#utility.yul\":4964:5103   */\n    tag_60:\n        /* \"#utility.yul\":5026:5035   */\n      0x00\n        /* \"#utility.yul\":5059:5097   */\n      tag_128\n        /* \"#utility.yul\":5091:5096   */\n      dup3\n        /* \"#utility.yul\":5059:5097   */\n      tag_59\n      jump\t// in\n    tag_128:\n        /* \"#utility.yul\":5046:5097   */\n      swap1\n      pop\n        /* \"#utility.yul\":4964:5103   */\n      swap2\n      swap1\n      pop\n      jump\t// out\n        /* \"#utility.yul\":5109:5264   */\n    tag_61:\n        /* \"#utility.yul\":5208:5257   */\n      tag_130\n        /* \"#utility.yul\":5251:5256   */\n      dup2\n        /* \"#utility.yul\":5208:5257   */\n      tag_60\n      jump\t// in\n    tag_130:\n        /* \"#utility.yul\":5203:5206   */\n      dup3\n        /* \"#utility.yul\":5196:5258   */\n      mstore\n        /* \"#utility.yul\":5109:5264   */\n      pop\n      pop\n      jump\t// out\n        /* \"#utility.yul\":5270:6069   */\n    tag_28:\n        /* \"#utility.yul\":5515:5519   */\n      0x00\n        /* \"#utility.yul\":5553:5556   */\n      0xc0\n        /* \"#utility.yul\":5542:5551   */\n      dup3\n        /* \"#utility.yul\":5538:5557   */\n      add\n        /* \"#utility.yul\":5530:5557   */\n      swap1\n      pop\n        /* \"#utility.yul\":5567:5638   */\n      tag_132\n        /* \"#utility.yul\":5635:5636   */\n      0x00\n        /* \"#utility.yul\":5624:5633   */\n      dup4\n        /* \"#utility.yul\":5620:5637   */\n      add\n        /* \"#utility.yul\":5611:5617   */\n      dup10\n        /* \"#utility.yul\":5567:5638   */\n      tag_54\n      jump\t// in\n    tag_132:\n        /* \"#utility.yul\":5648:5720   */\n      tag_133\n        /* \"#utility.yul\":5716:5718   */\n      0x20\n        /* \"#utility.yul\":5705:5714   */\n      dup4\n        /* \"#utility.yul\":5701:5719   */\n      add\n        /* \"#utility.yul\":5692:5698   */\n      dup9\n        /* \"#utility.yul\":5648:5720   */\n      tag_56\n      jump\t// in\n    tag_133:\n        /* \"#utility.yul\":5730:5802   */\n      tag_134\n        /* \"#utility.yul\":5798:5800   */\n      0x40\n        /* \"#utility.yul\":5787:5796   */\n      dup4\n        /* \"#utility.yul\":5783:5801   */\n      add\n        /* \"#utility.yul\":5774:5780   */\n      dup8\n        /* \"#utility.yul\":5730:5802   */\n      tag_56\n      jump\t// in\n    tag_134:\n        /* \"#utility.yul\":5812:5884   */\n      tag_135\n        /* \"#utility.yul\":5880:5882   */\n      0x60\n        /* \"#utility.yul\":5869:5878   */\n      dup4\n        /* \"#utility.yul\":5865:5883   */\n      add\n        /* \"#utility.yul\":5856:5862   */\n      dup7\n        /* \"#utility.yul\":5812:5884   */\n      tag_55\n      jump\t// in\n    tag_135:\n        /* \"#utility.yul\":5894:5967   */\n      tag_136\n        /* \"#utility.yul\":5962:5965   */\n      0x80\n        /* \"#utility.yul\":5951:5960   */\n      dup4\n        /* \"#utility.yul\":5947:5966   */\n      add\n        /* \"#utility.yul\":5938:5944   */\n      dup6\n        /* \"#utility.yul\":5894:5967   */\n      tag_55\n      jump\t// in\n    tag_136:\n        /* \"#utility.yul\":5977:6062   */\n      tag_137\n        /* \"#utility.yul\":6057:6060   */\n      0xa0\n        /* \"#utility.yul\":6046:6055   */\n      dup4\n        /* \"#utility.yul\":6042:6061   */\n      add\n        /* \"#utility.yul\":6033:6039   */\n      dup5\n        /* \"#utility.yul\":5977:6062   */\n      tag_61\n      jump\t// in\n    tag_137:\n        /* \"#utility.yul\":5270:6069   */\n      swap8\n      swap7\n      pop\n      pop\n      pop\n      pop\n      pop\n      pop\n      pop\n      jump\t// out\n        /* \"#utility.yul\":6075:6161   */\n    tag_62:\n        /* \"#utility.yul\":6110:6117   */\n      0x00\n        /* \"#utility.yul\":6150:6154   */\n      0xff\n        /* \"#utility.yul\":6143:6148   */\n      dup3\n        /* \"#utility.yul\":6139:6155   */\n      and\n        /* \"#utility.yul\":6128:6155   */\n      swap1\n      pop\n        /* \"#utility.yul\":6075:6161   */\n      swap2\n      swap1\n      pop\n      jump\t// out\n        /* \"#utility.yul\":6167:6279   */\n    tag_63:\n        /* \"#utility.yul\":6250:6272   */\n      tag_140\n        /* \"#utility.yul\":6266:6271   */\n      dup2\n        /* \"#utility.yul\":6250:6272   */\n      tag_62\n      jump\t// in\n    tag_140:\n        /* \"#utility.yul\":6245:6248   */\n      dup3\n        /* \"#utility.yul\":6238:6273   */\n      mstore\n        /* \"#utility.yul\":6167:6279   */\n      pop\n      pop\n      jump\t// out\n        /* \"#utility.yul\":6285:6499   */\n    tag_32:\n        /* \"#utility.yul\":6374:6378   */\n      0x00\n        /* \"#utility.yul\":6412:6414   */\n      0x20\n        /* \"#utility.yul\":6401:6410   */\n      dup3\n        /* \"#utility.yul\":6397:6415   */\n      add\n        /* \"#utility.yul\":6389:6415   */\n      swap1\n      pop\n        /* \"#utility.yul\":6425:6492   */\n      tag_142\n        /* \"#utility.yul\":6489:6490   */\n      0x00\n        /* \"#utility.yul\":6478:6487   */\n      dup4\n        /* \"#utility.yul\":6474:6491   */\n      add\n        /* \"#utility.yul\":6465:6471   */\n      dup5\n        /* \"#utility.yul\":6425:6492   */\n      tag_63\n      jump\t// in\n    tag_142:\n        /* \"#utility.yul\":6285:6499   */\n      swap3\n      swap2\n      pop\n      pop\n      jump\t// out\n\n    auxdata: 0xa26469706673582212202f510ad8db8f28137dfe9f218844a29d5a9746d91343ca5ca2c68408c32cecf764736f6c634300080d0033\n}\n",
				"bytecode": {
					"linkReferences": {},
					"object": "608060405234801561001057600080fd5b50610611806100206000396000f3fe608060405234801561001057600080fd5b50600436106100625760003560e01c806315b81dc3146100675780632b4c32be1461008557806349739678146100a35780635c80a435146100d457806385a8b36c14610109578063b7a60c7e14610127575b600080fd5b61006f610145565b60405161007c91906102ef565b60405180910390f35b61008d61016b565b60405161009a9190610345565b60405180910390f35b6100bd60048036038101906100b891906103d9565b610176565b6040516100cb929190610454565b60405180910390f35b6100ee60048036038101906100e9919061047d565b6101b4565b60405161010096959493929190610543565b60405180910390f35b61011161024a565b60405161011e91906105c0565b60405180910390f35b61012f61025d565b60405161013c91906105c0565b60405180910390f35b600260009054906101000a900473ffffffffffffffffffffffffffffffffffffffff1681565b6380ac58cd60e01b81565b600160205282600052604060002060205281600052604060002060205280600052604060002060009250925050508060000154908060010154905082565b6000602052816000526040600020602052806000526040600020600091509150508060000154908060010160009054906101000a900473ffffffffffffffffffffffffffffffffffffffff16908060020160009054906101000a900473ffffffffffffffffffffffffffffffffffffffff16908060030154908060040154908060050160009054906101000a900460ff16905086565b600260149054906101000a900460ff1681565b600260159054906101000a900460ff1681565b600073ffffffffffffffffffffffffffffffffffffffff82169050919050565b6000819050919050565b60006102b56102b06102ab84610270565b610290565b610270565b9050919050565b60006102c78261029a565b9050919050565b60006102d9826102bc565b9050919050565b6102e9816102ce565b82525050565b600060208201905061030460008301846102e0565b92915050565b60007fffffffff0000000000000000000000000000000000000000000000000000000082169050919050565b61033f8161030a565b82525050565b600060208201905061035a6000830184610336565b92915050565b600080fd5b600061037082610270565b9050919050565b61038081610365565b811461038b57600080fd5b50565b60008135905061039d81610377565b92915050565b6000819050919050565b6103b6816103a3565b81146103c157600080fd5b50565b6000813590506103d3816103ad565b92915050565b6000806000606084860312156103f2576103f1610360565b5b60006104008682870161038e565b9350506020610411868287016103c4565b92505060406104228682870161038e565b9150509250925092565b6000819050919050565b61043f8161042c565b82525050565b61044e816103a3565b82525050565b60006040820190506104696000830185610436565b6104766020830184610445565b9392505050565b6000806040838503121561049457610493610360565b5b60006104a28582860161038e565b92505060206104b3858286016103c4565b9150509250929050565b6104c681610365565b82525050565b7f4e487b7100000000000000000000000000000000000000000000000000000000600052602160045260246000fd5b6005811061050c5761050b6104cc565b5b50565b600081905061051d826104fb565b919050565b600061052d8261050f565b9050919050565b61053d81610522565b82525050565b600060c0820190506105586000830189610436565b61056560208301886104bd565b61057260408301876104bd565b61057f6060830186610445565b61058c6080830185610445565b61059960a0830184610534565b979650505050505050565b600060ff82169050919050565b6105ba816105a4565b82525050565b60006020820190506105d560008301846105b1565b9291505056fea26469706673582212202f510ad8db8f28137dfe9f218844a29d5a9746d91343ca5ca2c68408c32cecf764736f6c634300080d0033",
					"opcodes": "PUSH1 0x80 PUSH1 0x40 MSTORE CALLVALUE DUP1 ISZERO PUSH2 0x10 JUMPI PUSH1 0x0 DUP1 REVERT JUMPDEST POP PUSH2 0x611 DUP1 PUSH2 0x20 PUSH1 0x0 CODECOPY PUSH1 0x0 RETURN INVALID PUSH1 0x80 PUSH1 0x40 MSTORE CALLVALUE DUP1 ISZERO PUSH2 0x10 JUMPI PUSH1 0x0 DUP1 REVERT JUMPDEST POP PUSH1 0x4 CALLDATASIZE LT PUSH2 0x62 JUMPI PUSH1 0x0 CALLDATALOAD PUSH1 0xE0 SHR DUP1 PUSH4 0x15B81DC3 EQ PUSH2 0x67 JUMPI DUP1 PUSH4 0x2B4C32BE EQ PUSH2 0x85 JUMPI DUP1 PUSH4 0x49739678 EQ PUSH2 0xA3 JUMPI DUP1 PUSH4 0x5C80A435 EQ PUSH2 0xD4 JUMPI DUP1 PUSH4 0x85A8B36C EQ PUSH2 0x109 JUMPI DUP1 PUSH4 0xB7A60C7E EQ PUSH2 0x127 JUMPI JUMPDEST PUSH1 0x0 DUP1 REVERT JUMPDEST PUSH2 0x6F PUSH2 0x145 JUMP JUMPDEST PUSH1 0x40 MLOAD PUSH2 0x7C SWAP2 SWAP1 PUSH2 0x2EF JUMP JUMPDEST PUSH1 0x40 MLOAD DUP1 SWAP2 SUB SWAP1 RETURN JUMPDEST PUSH2 0x8D PUSH2 0x16B JUMP JUMPDEST PUSH1 0x40 MLOAD PUSH2 0x9A SWAP2 SWAP1 PUSH2 0x345 JUMP JUMPDEST PUSH1 0x40 MLOAD DUP1 SWAP2 SUB SWAP1 RETURN JUMPDEST PUSH2 0xBD PUSH1 0x4 DUP1 CALLDATASIZE SUB DUP2 ADD SWAP1 PUSH2 0xB8 SWAP2 SWAP1 PUSH2 0x3D9 JUMP JUMPDEST PUSH2 0x176 JUMP JUMPDEST PUSH1 0x40 MLOAD PUSH2 0xCB SWAP3 SWAP2 SWAP1 PUSH2 0x454 JUMP JUMPDEST PUSH1 0x40 MLOAD DUP1 SWAP2 SUB SWAP1 RETURN JUMPDEST PUSH2 0xEE PUSH1 0x4 DUP1 CALLDATASIZE SUB DUP2 ADD SWAP1 PUSH2 0xE9 SWAP2 SWAP1 PUSH2 0x47D JUMP JUMPDEST PUSH2 0x1B4 JUMP JUMPDEST PUSH1 0x40 MLOAD PUSH2 0x100 SWAP7 SWAP6 SWAP5 SWAP4 SWAP3 SWAP2 SWAP1 PUSH2 0x543 JUMP JUMPDEST PUSH1 0x40 MLOAD DUP1 SWAP2 SUB SWAP1 RETURN JUMPDEST PUSH2 0x111 PUSH2 0x24A JUMP JUMPDEST PUSH1 0x40 MLOAD PUSH2 0x11E SWAP2 SWAP1 PUSH2 0x5C0 JUMP JUMPDEST PUSH1 0x40 MLOAD DUP1 SWAP2 SUB SWAP1 RETURN JUMPDEST PUSH2 0x12F PUSH2 0x25D JUMP JUMPDEST PUSH1 0x40 MLOAD PUSH2 0x13C SWAP2 SWAP1 PUSH2 0x5C0 JUMP JUMPDEST PUSH1 0x40 MLOAD DUP1 SWAP2 SUB SWAP1 RETURN JUMPDEST PUSH1 0x2 PUSH1 0x0 SWAP1 SLOAD SWAP1 PUSH2 0x100 EXP SWAP1 DIV PUSH20 0xFFFFFFFFFFFFFFFFFFFFFFFFFFFFFFFFFFFFFFFF AND DUP2 JUMP JUMPDEST PUSH4 0x80AC58CD PUSH1 0xE0 SHL DUP2 JUMP JUMPDEST PUSH1 0x1 PUSH1 0x20 MSTORE DUP3 PUSH1 0x0 MSTORE PUSH1 0x40 PUSH1 0x0 KECCAK256 PUSH1 0x20 MSTORE DUP2 PUSH1 0x0 MSTORE PUSH1 0x40 PUSH1 0x0 KECCAK256 PUSH1 0x20 MSTORE DUP1 PUSH1 0x0 MSTORE PUSH1 0x40 PUSH1 0x0 KECCAK256 PUSH1 0x0 SWAP3 POP SWAP3 POP POP POP DUP1 PUSH1 0x0 ADD SLOAD SWAP1 DUP1 PUSH1 0x1 ADD SLOAD SWAP1 POP DUP3 JUMP JUMPDEST PUSH1 0x0 PUSH1 0x20 MSTORE DUP2 PUSH1 0x0 MSTORE PUSH1 0x40 PUSH1 0x0 KECCAK256 PUSH1 0x20 MSTORE DUP1 PUSH1 0x0 MSTORE PUSH1 0x40 PUSH1 0x0 KECCAK256 PUSH1 0x0 SWAP2 POP SWAP2 POP POP DUP1 PUSH1 0x0 ADD SLOAD SWAP1 DUP1 PUSH1 0x1 ADD PUSH1 0x0 SWAP1 SLOAD SWAP1 PUSH2 0x100 EXP SWAP1 DIV PUSH20 0xFFFFFFFFFFFFFFFFFFFFFFFFFFFFFFFFFFFFFFFF AND SWAP1 DUP1 PUSH1 0x2 ADD PUSH1 0x0 SWAP1 SLOAD SWAP1 PUSH2 0x100 EXP SWAP1 DIV PUSH20 0xFFFFFFFFFFFFFFFFFFFFFFFFFFFFFFFFFFFFFFFF AND SWAP1 DUP1 PUSH1 0x3 ADD SLOAD SWAP1 DUP1 PUSH1 0x4 ADD SLOAD SWAP1 DUP1 PUSH1 0x5 ADD PUSH1 0x0 SWAP1 SLOAD SWAP1 PUSH2 0x100 EXP SWAP1 DIV PUSH1 0xFF AND SWAP1 POP DUP7 JUMP JUMPDEST PUSH1 0x2 PUSH1 0x14 SWAP1 SLOAD SWAP1 PUSH2 0x100 EXP SWAP1 DIV PUSH1 0xFF AND DUP2 JUMP JUMPDEST PUSH1 0x2 PUSH1 0x15 SWAP1 SLOAD SWAP1 PUSH2 0x100 EXP SWAP1 DIV PUSH1 0xFF AND DUP2 JUMP JUMPDEST PUSH1 0x0 PUSH20 0xFFFFFFFFFFFFFFFFFFFFFFFFFFFFFFFFFFFFFFFF DUP3 AND SWAP1 POP SWAP2 SWAP1 POP JUMP JUMPDEST PUSH1 0x0 DUP2 SWAP1 POP SWAP2 SWAP1 POP JUMP JUMPDEST PUSH1 0x0 PUSH2 0x2B5 PUSH2 0x2B0 PUSH2 0x2AB DUP5 PUSH2 0x270 JUMP JUMPDEST PUSH2 0x290 JUMP JUMPDEST PUSH2 0x270 JUMP JUMPDEST SWAP1 POP SWAP2 SWAP1 POP JUMP JUMPDEST PUSH1 0x0 PUSH2 0x2C7 DUP3 PUSH2 0x29A JUMP JUMPDEST SWAP1 POP SWAP2 SWAP1 POP JUMP JUMPDEST PUSH1 0x0 PUSH2 0x2D9 DUP3 PUSH2 0x2BC JUMP JUMPDEST SWAP1 POP SWAP2 SWAP1 POP JUMP JUMPDEST PUSH2 0x2E9 DUP2 PUSH2 0x2CE JUMP JUMPDEST DUP3 MSTORE POP POP JUMP JUMPDEST PUSH1 0x0 PUSH1 0x20 DUP3 ADD SWAP1 POP PUSH2 0x304 PUSH1 0x0 DUP4 ADD DUP5 PUSH2 0x2E0 JUMP JUMPDEST SWAP3 SWAP2 POP POP JUMP JUMPDEST PUSH1 0x0 PUSH32 0xFFFFFFFF00000000000000000000000000000000000000000000000000000000 DUP3 AND SWAP1 POP SWAP2 SWAP1 POP JUMP JUMPDEST PUSH2 0x33F DUP2 PUSH2 0x30A JUMP JUMPDEST DUP3 MSTORE POP POP JUMP JUMPDEST PUSH1 0x0 PUSH1 0x20 DUP3 ADD SWAP1 POP PUSH2 0x35A PUSH1 0x0 DUP4 ADD DUP5 PUSH2 0x336 JUMP JUMPDEST SWAP3 SWAP2 POP POP JUMP JUMPDEST PUSH1 0x0 DUP1 REVERT JUMPDEST PUSH1 0x0 PUSH2 0x370 DUP3 PUSH2 0x270 JUMP JUMPDEST SWAP1 POP SWAP2 SWAP1 POP JUMP JUMPDEST PUSH2 0x380 DUP2 PUSH2 0x365 JUMP JUMPDEST DUP2 EQ PUSH2 0x38B JUMPI PUSH1 0x0 DUP1 REVERT JUMPDEST POP JUMP JUMPDEST PUSH1 0x0 DUP2 CALLDATALOAD SWAP1 POP PUSH2 0x39D DUP2 PUSH2 0x377 JUMP JUMPDEST SWAP3 SWAP2 POP POP JUMP JUMPDEST PUSH1 0x0 DUP2 SWAP1 POP SWAP2 SWAP1 POP JUMP JUMPDEST PUSH2 0x3B6 DUP2 PUSH2 0x3A3 JUMP JUMPDEST DUP2 EQ PUSH2 0x3C1 JUMPI PUSH1 0x0 DUP1 REVERT JUMPDEST POP JUMP JUMPDEST PUSH1 0x0 DUP2 CALLDATALOAD SWAP1 POP PUSH2 0x3D3 DUP2 PUSH2 0x3AD JUMP JUMPDEST SWAP3 SWAP2 POP POP JUMP JUMPDEST PUSH1 0x0 DUP1 PUSH1 0x0 PUSH1 0x60 DUP5 DUP7 SUB SLT ISZERO PUSH2 0x3F2 JUMPI PUSH2 0x3F1 PUSH2 0x360 JUMP JUMPDEST JUMPDEST PUSH1 0x0 PUSH2 0x400 DUP7 DUP3 DUP8 ADD PUSH2 0x38E JUMP JUMPDEST SWAP4 POP POP PUSH1 0x20 PUSH2 0x411 DUP7 DUP3 DUP8 ADD PUSH2 0x3C4 JUMP JUMPDEST SWAP3 POP POP PUSH1 0x40 PUSH2 0x422 DUP7 DUP3 DUP8 ADD PUSH2 0x38E JUMP JUMPDEST SWAP2 POP POP SWAP3 POP SWAP3 POP SWAP3 JUMP JUMPDEST PUSH1 0x0 DUP2 SWAP1 POP SWAP2 SWAP1 POP JUMP JUMPDEST PUSH2 0x43F DUP2 PUSH2 0x42C JUMP JUMPDEST DUP3 MSTORE POP POP JUMP JUMPDEST PUSH2 0x44E DUP2 PUSH2 0x3A3 JUMP JUMPDEST DUP3 MSTORE POP POP JUMP JUMPDEST PUSH1 0x0 PUSH1 0x40 DUP3 ADD SWAP1 POP PUSH2 0x469 PUSH1 0x0 DUP4 ADD DUP6 PUSH2 0x436 JUMP JUMPDEST PUSH2 0x476 PUSH1 0x20 DUP4 ADD DUP5 PUSH2 0x445 JUMP JUMPDEST SWAP4 SWAP3 POP POP POP JUMP JUMPDEST PUSH1 0x0 DUP1 PUSH1 0x40 DUP4 DUP6 SUB SLT ISZERO PUSH2 0x494 JUMPI PUSH2 0x493 PUSH2 0x360 JUMP JUMPDEST JUMPDEST PUSH1 0x0 PUSH2 0x4A2 DUP6 DUP3 DUP7 ADD PUSH2 0x38E JUMP JUMPDEST SWAP3 POP POP PUSH1 0x20 PUSH2 0x4B3 DUP6 DUP3 DUP7 ADD PUSH2 0x3C4 JUMP JUMPDEST SWAP2 POP POP SWAP3 POP SWAP3 SWAP1 POP JUMP JUMPDEST PUSH2 0x4C6 DUP2 PUSH2 0x365 JUMP JUMPDEST DUP3 MSTORE POP POP JUMP JUMPDEST PUSH32 0x4E487B7100000000000000000000000000000000000000000000000000000000 PUSH1 0x0 MSTORE PUSH1 0x21 PUSH1 0x4 MSTORE PUSH1 0x24 PUSH1 0x0 REVERT JUMPDEST PUSH1 0x5 DUP2 LT PUSH2 0x50C JUMPI PUSH2 0x50B PUSH2 0x4CC JUMP JUMPDEST JUMPDEST POP JUMP JUMPDEST PUSH1 0x0 DUP2 SWAP1 POP PUSH2 0x51D DUP3 PUSH2 0x4FB JUMP JUMPDEST SWAP2 SWAP1 POP JUMP JUMPDEST PUSH1 0x0 PUSH2 0x52D DUP3 PUSH2 0x50F JUMP JUMPDEST SWAP1 POP SWAP2 SWAP1 POP JUMP JUMPDEST PUSH2 0x53D DUP2 PUSH2 0x522 JUMP JUMPDEST DUP3 MSTORE POP POP JUMP JUMPDEST PUSH1 0x0 PUSH1 0xC0 DUP3 ADD SWAP1 POP PUSH2 0x558 PUSH1 0x0 DUP4 ADD DUP10 PUSH2 0x436 JUMP JUMPDEST PUSH2 0x565 PUSH1 0x20 DUP4 ADD DUP9 PUSH2 0x4BD JUMP JUMPDEST PUSH2 0x572 PUSH1 0x40 DUP4 ADD DUP8 PUSH2 0x4BD JUMP JUMPDEST PUSH2 0x57F PUSH1 0x60 DUP4 ADD DUP7 PUSH2 0x445 JUMP JUMPDEST PUSH2 0x58C PUSH1 0x80 DUP4 ADD DUP6 PUSH2 0x445 JUMP JUMPDEST PUSH2 0x599 PUSH1 0xA0 DUP4 ADD DUP5 PUSH2 0x534 JUMP JUMPDEST SWAP8 SWAP7 POP POP POP POP POP POP POP JUMP JUMPDEST PUSH1 0x0 PUSH1 0xFF DUP3 AND SWAP1 POP SWAP2 SWAP1 POP JUMP JUMPDEST PUSH2 0x5BA DUP2 PUSH2 0x5A4 JUMP JUMPDEST DUP3 MSTORE POP POP JUMP JUMPDEST PUSH1 0x0 PUSH1 0x20 DUP3 ADD SWAP1 POP PUSH2 0x5D5 PUSH1 0x0 DUP4 ADD DUP5 PUSH2 0x5B1 JUMP JUMPDEST SWAP3 SWAP2 POP POP JUMP INVALID LOG2 PUSH5 0x6970667358 0x22 SLT KECCAK256 0x2F MLOAD EXP 0xD8 0xDB DUP16 0x28 SGT PUSH30 0xFE9F218844A29D5A9746D91343CA5CA2C68408C32CECF764736F6C634300 ADDMOD 0xD STOP CALLER "
				},
				"gasEstimates": {
					"creation": {
						"codeDepositCost": "310600",
						"executionCost": "349",
						"totalCost": "310949"
					},
					"external": {
						"ERC721_Interface()": "341",
						"antaFeePercent()": "2609",
						"bnbFeePercent()": "2587",
						"itemOffers(address,uint256,address)": "infinite",
						"items(address,uint256)": "infinite",
						"sqfToken()": "infinite"
					}
				},
				"methodIdentifiers": {
					"ERC721_Interface()": "2b4c32be",
					"antaFeePercent()": "b7a60c7e",
					"bnbFeePercent()": "85a8b36c",
					"itemOffers(address,uint256,address)": "49739678",
					"items(address,uint256)": "5c80a435",
					"sqfToken()": "15b81dc3"
				}
			},
			"storageLayout": {
				"storage": [
					{
						"astId": 477,
						"contract": "contracts/Marketplace2/Marketplace.sol:MarketplaceStorage",
						"label": "items",
						"offset": 0,
						"slot": "0",
						"type": "t_mapping(t_address,t_mapping(t_uint256,t_struct(Item)459_storage))"
					},
					{
						"astId": 486,
						"contract": "contracts/Marketplace2/Marketplace.sol:MarketplaceStorage",
						"label": "itemOffers",
						"offset": 0,
						"slot": "1",
						"type": "t_mapping(t_address,t_mapping(t_uint256,t_mapping(t_address,t_struct(ItemOffer)464_storage)))"
					},
					{
						"astId": 489,
						"contract": "contracts/Marketplace2/Marketplace.sol:MarketplaceStorage",
						"label": "sqfToken",
						"offset": 0,
						"slot": "2",
						"type": "t_contract(IERC20)201"
					},
					{
						"astId": 491,
						"contract": "contracts/Marketplace2/Marketplace.sol:MarketplaceStorage",
						"label": "bnbFeePercent",
						"offset": 20,
						"slot": "2",
						"type": "t_uint8"
					},
					{
						"astId": 493,
						"contract": "contracts/Marketplace2/Marketplace.sol:MarketplaceStorage",
						"label": "antaFeePercent",
						"offset": 21,
						"slot": "2",
						"type": "t_uint8"
					}
				],
				"types": {
					"t_address": {
						"encoding": "inplace",
						"label": "address",
						"numberOfBytes": "20"
					},
					"t_bytes32": {
						"encoding": "inplace",
						"label": "bytes32",
						"numberOfBytes": "32"
					},
					"t_contract(IERC20)201": {
						"encoding": "inplace",
						"label": "contract IERC20",
						"numberOfBytes": "20"
					},
					"t_enum(ItemStatus)445": {
						"encoding": "inplace",
						"label": "enum MarketplaceStorage.ItemStatus",
						"numberOfBytes": "1"
					},
					"t_mapping(t_address,t_mapping(t_uint256,t_mapping(t_address,t_struct(ItemOffer)464_storage)))": {
						"encoding": "mapping",
						"key": "t_address",
						"label": "mapping(address => mapping(uint256 => mapping(address => struct MarketplaceStorage.ItemOffer)))",
						"numberOfBytes": "32",
						"value": "t_mapping(t_uint256,t_mapping(t_address,t_struct(ItemOffer)464_storage))"
					},
					"t_mapping(t_address,t_mapping(t_uint256,t_struct(Item)459_storage))": {
						"encoding": "mapping",
						"key": "t_address",
						"label": "mapping(address => mapping(uint256 => struct MarketplaceStorage.Item))",
						"numberOfBytes": "32",
						"value": "t_mapping(t_uint256,t_struct(Item)459_storage)"
					},
					"t_mapping(t_address,t_struct(ItemOffer)464_storage)": {
						"encoding": "mapping",
						"key": "t_address",
						"label": "mapping(address => struct MarketplaceStorage.ItemOffer)",
						"numberOfBytes": "32",
						"value": "t_struct(ItemOffer)464_storage"
					},
					"t_mapping(t_uint256,t_mapping(t_address,t_struct(ItemOffer)464_storage))": {
						"encoding": "mapping",
						"key": "t_uint256",
						"label": "mapping(uint256 => mapping(address => struct MarketplaceStorage.ItemOffer))",
						"numberOfBytes": "32",
						"value": "t_mapping(t_address,t_struct(ItemOffer)464_storage)"
					},
					"t_mapping(t_uint256,t_struct(Item)459_storage)": {
						"encoding": "mapping",
						"key": "t_uint256",
						"label": "mapping(uint256 => struct MarketplaceStorage.Item)",
						"numberOfBytes": "32",
						"value": "t_struct(Item)459_storage"
					},
					"t_struct(Item)459_storage": {
						"encoding": "inplace",
						"label": "struct MarketplaceStorage.Item",
						"members": [
							{
								"astId": 447,
								"contract": "contracts/Marketplace2/Marketplace.sol:MarketplaceStorage",
								"label": "id",
								"offset": 0,
								"slot": "0",
								"type": "t_bytes32"
							},
							{
								"astId": 449,
								"contract": "contracts/Marketplace2/Marketplace.sol:MarketplaceStorage",
								"label": "seller",
								"offset": 0,
								"slot": "1",
								"type": "t_address"
							},
							{
								"astId": 451,
								"contract": "contracts/Marketplace2/Marketplace.sol:MarketplaceStorage",
								"label": "nftAddress",
								"offset": 0,
								"slot": "2",
								"type": "t_address"
							},
							{
								"astId": 453,
								"contract": "contracts/Marketplace2/Marketplace.sol:MarketplaceStorage",
								"label": "price",
								"offset": 0,
								"slot": "3",
								"type": "t_uint256"
							},
							{
								"astId": 455,
								"contract": "contracts/Marketplace2/Marketplace.sol:MarketplaceStorage",
								"label": "priceAnta",
								"offset": 0,
								"slot": "4",
								"type": "t_uint256"
							},
							{
								"astId": 458,
								"contract": "contracts/Marketplace2/Marketplace.sol:MarketplaceStorage",
								"label": "status",
								"offset": 0,
								"slot": "5",
								"type": "t_enum(ItemStatus)445"
							}
						],
						"numberOfBytes": "192"
					},
					"t_struct(ItemOffer)464_storage": {
						"encoding": "inplace",
						"label": "struct MarketplaceStorage.ItemOffer",
						"members": [
							{
								"astId": 461,
								"contract": "contracts/Marketplace2/Marketplace.sol:MarketplaceStorage",
								"label": "id",
								"offset": 0,
								"slot": "0",
								"type": "t_bytes32"
							},
							{
								"astId": 463,
								"contract": "contracts/Marketplace2/Marketplace.sol:MarketplaceStorage",
								"label": "offerPrice",
								"offset": 0,
								"slot": "1",
								"type": "t_uint256"
							}
						],
						"numberOfBytes": "64"
					},
					"t_uint256": {
						"encoding": "inplace",
						"label": "uint256",
						"numberOfBytes": "32"
					},
					"t_uint8": {
						"encoding": "inplace",
						"label": "uint8",
						"numberOfBytes": "1"
					}
				}
			},
			"userdoc": {
				"kind": "user",
				"methods": {},
				"version": 1
			}
		}
	}
}