{
	"contracts/Marketplace2/Marketplace.sol": {
		"NFTMarket": {
			"abi": [
				{
					"anonymous": false,
					"inputs": [
						{
							"indexed": false,
							"internalType": "bytes32",
							"name": "id",
							"type": "bytes32"
						},
						{
							"indexed": true,
							"internalType": "uint256",
							"name": "assetId",
							"type": "uint256"
						},
						{
							"indexed": true,
							"internalType": "address",
							"name": "seller",
							"type": "address"
						},
						{
							"indexed": false,
							"internalType": "address",
							"name": "nftAddress",
							"type": "address"
						},
						{
							"indexed": false,
							"internalType": "uint256",
							"name": "price",
							"type": "uint256"
						},
						{
							"indexed": false,
							"internalType": "uint8",
							"name": "feePercent",
							"type": "uint8"
						},
						{
							"indexed": false,
							"internalType": "uint256",
							"name": "fee",
							"type": "uint256"
						},
						{
							"indexed": true,
							"internalType": "address",
							"name": "buyer",
							"type": "address"
						},
						{
							"indexed": false,
							"internalType": "string",
							"name": "currency",
							"type": "string"
						},
						{
							"indexed": false,
							"internalType": "uint256",
							"name": "createdAt",
							"type": "uint256"
						}
					],
					"name": "BuyItemSuccessful",
					"type": "event"
				},
				{
					"anonymous": false,
					"inputs": [
						{
							"indexed": true,
							"internalType": "address",
							"name": "receiver",
							"type": "address"
						},
						{
							"indexed": false,
							"internalType": "uint256",
							"name": "value",
							"type": "uint256"
						}
					],
					"name": "Claim",
					"type": "event"
				},
				{
					"anonymous": false,
					"inputs": [
						{
							"indexed": false,
							"internalType": "address",
							"name": "nftAddress",
							"type": "address"
						},
						{
							"indexed": false,
							"internalType": "bytes32",
							"name": "id",
							"type": "bytes32"
						},
						{
							"indexed": true,
							"internalType": "uint256",
							"name": "assetId",
							"type": "uint256"
						},
						{
							"indexed": true,
							"internalType": "address",
							"name": "delistBy",
							"type": "address"
						},
						{
							"indexed": false,
							"internalType": "uint256",
							"name": "createdAt",
							"type": "uint256"
						}
					],
					"name": "DelistItemSuccessful",
					"type": "event"
				},
				{
					"anonymous": false,
					"inputs": [
						{
							"indexed": true,
							"internalType": "uint256",
							"name": "itemId",
							"type": "uint256"
						},
						{
							"indexed": true,
							"internalType": "address",
							"name": "nftContract",
							"type": "address"
						},
						{
							"indexed": true,
							"internalType": "uint256",
							"name": "tokenId",
							"type": "uint256"
						},
						{
							"indexed": false,
							"internalType": "address",
							"name": "seller",
							"type": "address"
						},
						{
							"indexed": false,
							"internalType": "address",
							"name": "owner",
							"type": "address"
						},
						{
							"indexed": false,
							"internalType": "uint256",
							"name": "price",
							"type": "uint256"
						}
					],
					"name": "MarketItemCreated",
					"type": "event"
				},
				{
					"anonymous": false,
					"inputs": [
						{
							"indexed": true,
							"internalType": "address",
							"name": "previousOwner",
							"type": "address"
						},
						{
							"indexed": true,
							"internalType": "address",
							"name": "newOwner",
							"type": "address"
						}
					],
					"name": "OwnershipTransferred",
					"type": "event"
				},
				{
					"anonymous": false,
					"inputs": [
						{
							"indexed": false,
							"internalType": "address",
							"name": "nftAddress",
							"type": "address"
						},
						{
							"indexed": false,
							"internalType": "bytes32",
							"name": "id",
							"type": "bytes32"
						},
						{
							"indexed": true,
							"internalType": "uint256",
							"name": "assetId",
							"type": "uint256"
						},
						{
							"indexed": false,
							"internalType": "uint256",
							"name": "price",
							"type": "uint256"
						},
						{
							"indexed": true,
							"internalType": "address",
							"name": "seller",
							"type": "address"
						},
						{
							"indexed": false,
							"internalType": "string",
							"name": "currency",
							"type": "string"
						},
						{
							"indexed": false,
							"internalType": "uint256",
							"name": "createdAt",
							"type": "uint256"
						}
					],
					"name": "SellItemSuccessful",
					"type": "event"
				},
				{
					"inputs": [],
					"name": "ERC721_Interface",
					"outputs": [
						{
							"internalType": "bytes4",
							"name": "",
							"type": "bytes4"
						}
					],
					"stateMutability": "view",
					"type": "function"
				},
				{
					"inputs": [],
					"name": "antaFeePercent",
					"outputs": [
						{
							"internalType": "uint8",
							"name": "",
							"type": "uint8"
						}
					],
					"stateMutability": "view",
					"type": "function"
				},
				{
					"inputs": [],
					"name": "bnbFeePercent",
					"outputs": [
						{
							"internalType": "uint8",
							"name": "",
							"type": "uint8"
						}
					],
					"stateMutability": "view",
					"type": "function"
				},
				{
					"inputs": [
						{
							"internalType": "address",
							"name": "nftAddress",
							"type": "address"
						},
						{
							"internalType": "uint256",
							"name": "assetId",
							"type": "uint256"
						},
						{
							"internalType": "uint256",
							"name": "priceAnta",
							"type": "uint256"
						}
					],
					"name": "buyItemBySQF",
					"outputs": [],
					"stateMutability": "nonpayable",
					"type": "function"
				},
				{
					"inputs": [
						{
							"internalType": "address",
							"name": "nftContract",
							"type": "address"
						},
						{
							"internalType": "uint256",
							"name": "tokenId",
							"type": "uint256"
						},
						{
							"internalType": "uint256",
							"name": "price",
							"type": "uint256"
						}
					],
					"name": "createMarketItem",
					"outputs": [],
					"stateMutability": "payable",
					"type": "function"
				},
				{
					"inputs": [
						{
							"internalType": "address",
							"name": "nftContract",
							"type": "address"
						},
						{
							"internalType": "uint256",
							"name": "itemId",
							"type": "uint256"
						}
					],
					"name": "createMarketSale",
					"outputs": [],
					"stateMutability": "payable",
					"type": "function"
				},
				{
					"inputs": [
						{
							"internalType": "uint256",
							"name": "itemId",
							"type": "uint256"
						}
					],
					"name": "fetchMarketItem",
					"outputs": [
						{
							"components": [
								{
									"internalType": "uint256",
									"name": "itemId",
									"type": "uint256"
								},
								{
									"internalType": "address",
									"name": "nftContract",
									"type": "address"
								},
								{
									"internalType": "uint256",
									"name": "tokenId",
									"type": "uint256"
								},
								{
									"internalType": "address payable",
									"name": "seller",
									"type": "address"
								},
								{
									"internalType": "address payable",
									"name": "owner",
									"type": "address"
								},
								{
									"internalType": "uint256",
									"name": "price",
									"type": "uint256"
								}
							],
							"internalType": "struct NFTMarket.MarketItem",
							"name": "",
							"type": "tuple"
						}
					],
					"stateMutability": "view",
					"type": "function"
				},
				{
					"inputs": [],
					"name": "fetchMarketItems",
					"outputs": [
						{
							"components": [
								{
									"internalType": "uint256",
									"name": "itemId",
									"type": "uint256"
								},
								{
									"internalType": "address",
									"name": "nftContract",
									"type": "address"
								},
								{
									"internalType": "uint256",
									"name": "tokenId",
									"type": "uint256"
								},
								{
									"internalType": "address payable",
									"name": "seller",
									"type": "address"
								},
								{
									"internalType": "address payable",
									"name": "owner",
									"type": "address"
								},
								{
									"internalType": "uint256",
									"name": "price",
									"type": "uint256"
								}
							],
							"internalType": "struct NFTMarket.MarketItem[]",
							"name": "",
							"type": "tuple[]"
						}
					],
					"stateMutability": "view",
					"type": "function"
				},
				{
					"inputs": [],
					"name": "fetchMyNFTs",
					"outputs": [
						{
							"components": [
								{
									"internalType": "uint256",
									"name": "itemId",
									"type": "uint256"
								},
								{
									"internalType": "address",
									"name": "nftContract",
									"type": "address"
								},
								{
									"internalType": "uint256",
									"name": "tokenId",
									"type": "uint256"
								},
								{
									"internalType": "address payable",
									"name": "seller",
									"type": "address"
								},
								{
									"internalType": "address payable",
									"name": "owner",
									"type": "address"
								},
								{
									"internalType": "uint256",
									"name": "price",
									"type": "uint256"
								}
							],
							"internalType": "struct NFTMarket.MarketItem[]",
							"name": "",
							"type": "tuple[]"
						}
					],
					"stateMutability": "view",
					"type": "function"
				},
				{
					"inputs": [
						{
							"internalType": "uint256",
							"name": "marketItemId",
							"type": "uint256"
						}
					],
					"name": "getMarketItem",
					"outputs": [
						{
							"components": [
								{
									"internalType": "uint256",
									"name": "itemId",
									"type": "uint256"
								},
								{
									"internalType": "address",
									"name": "nftContract",
									"type": "address"
								},
								{
									"internalType": "uint256",
									"name": "tokenId",
									"type": "uint256"
								},
								{
									"internalType": "address payable",
									"name": "seller",
									"type": "address"
								},
								{
									"internalType": "address payable",
									"name": "owner",
									"type": "address"
								},
								{
									"internalType": "uint256",
									"name": "price",
									"type": "uint256"
								}
							],
							"internalType": "struct NFTMarket.MarketItem",
							"name": "",
							"type": "tuple"
						}
					],
					"stateMutability": "view",
					"type": "function"
				},
				{
					"inputs": [
						{
							"internalType": "address",
							"name": "",
							"type": "address"
						},
						{
							"internalType": "uint256",
							"name": "",
							"type": "uint256"
						},
						{
							"internalType": "address",
							"name": "",
							"type": "address"
						}
					],
					"name": "itemOffers",
					"outputs": [
						{
							"internalType": "bytes32",
							"name": "id",
							"type": "bytes32"
						},
						{
							"internalType": "uint256",
							"name": "offerPrice",
							"type": "uint256"
						}
					],
					"stateMutability": "view",
					"type": "function"
				},
				{
					"inputs": [
						{
							"internalType": "address",
							"name": "",
							"type": "address"
						},
						{
							"internalType": "uint256",
							"name": "",
							"type": "uint256"
						}
					],
					"name": "items",
					"outputs": [
						{
							"internalType": "bytes32",
							"name": "id",
							"type": "bytes32"
						},
						{
							"internalType": "address",
							"name": "seller",
							"type": "address"
						},
						{
							"internalType": "address",
							"name": "nftAddress",
							"type": "address"
						},
						{
							"internalType": "uint256",
							"name": "price",
							"type": "uint256"
						},
						{
							"internalType": "uint256",
							"name": "priceAnta",
							"type": "uint256"
						},
						{
							"internalType": "enum MarketplaceStorage.ItemStatus",
							"name": "status",
							"type": "uint8"
						}
					],
					"stateMutability": "view",
					"type": "function"
				},
				{
					"inputs": [],
					"name": "owner",
					"outputs": [
						{
							"internalType": "address",
							"name": "",
							"type": "address"
						}
					],
					"stateMutability": "view",
					"type": "function"
				},
				{
					"inputs": [],
					"name": "renounceOwnership",
					"outputs": [],
					"stateMutability": "nonpayable",
					"type": "function"
				},
				{
					"inputs": [
						{
							"internalType": "address",
							"name": "nftAddress",
							"type": "address"
						},
						{
							"internalType": "uint256",
							"name": "assetId",
							"type": "uint256"
						},
						{
							"internalType": "uint256",
							"name": "price",
							"type": "uint256"
						}
					],
					"name": "sellItem",
					"outputs": [],
					"stateMutability": "nonpayable",
					"type": "function"
				},
				{
					"inputs": [
						{
							"internalType": "address",
							"name": "_address",
							"type": "address"
						}
					],
					"name": "setSQFToken",
					"outputs": [],
					"stateMutability": "nonpayable",
					"type": "function"
				},
				{
					"inputs": [],
					"name": "sqfToken",
					"outputs": [
						{
							"internalType": "contract IERC20",
							"name": "",
							"type": "address"
						}
					],
					"stateMutability": "view",
					"type": "function"
				},
				{
					"inputs": [
						{
							"internalType": "address",
							"name": "newOwner",
							"type": "address"
						}
					],
					"name": "transferOwnership",
					"outputs": [],
					"stateMutability": "nonpayable",
					"type": "function"
				}
			],
			"devdoc": {
				"kind": "dev",
				"methods": {
					"owner()": {
						"details": "Returns the address of the current owner."
					},
					"renounceOwnership()": {
						"details": "Leaves the contract without owner. It will not be possible to call `onlyOwner` functions anymore. Can only be called by the current owner. NOTE: Renouncing ownership will leave the contract without an owner, thereby removing any functionality that is only available to the owner."
					},
					"transferOwnership(address)": {
						"details": "Transfers ownership of the contract to a new account (`newOwner`). Can only be called by the current owner."
					}
				},
				"version": 1
			},
			"evm": {
				"assembly": "    /* \"contracts/Marketplace2/Marketplace.sol\":17004:24072  contract NFTMarket is ReentrancyGuard, MarketplaceStorage, Ownable {... */\n  mstore(0x40, 0x80)\n  callvalue\n  dup1\n  iszero\n  tag_1\n  jumpi\n  0x00\n  dup1\n  revert\ntag_1:\n  pop\n    /* \"contracts/Marketplace2/Marketplace.sol\":14124:14125  1 */\n  0x01\n    /* \"contracts/Marketplace2/Marketplace.sol\":14229:14236  _status */\n  0x00\n    /* \"contracts/Marketplace2/Marketplace.sol\":14229:14251  _status = _NOT_ENTERED */\n  dup2\n  swap1\n  sstore\n  pop\n    /* \"contracts/Marketplace2/Marketplace.sol\":1563:1595  _transferOwnership(_msgSender()) */\n  tag_6\n    /* \"contracts/Marketplace2/Marketplace.sol\":1582:1594  _msgSender() */\n  tag_7\n    /* \"contracts/Marketplace2/Marketplace.sol\":1582:1592  _msgSender */\n  shl(0x20, tag_8)\n    /* \"contracts/Marketplace2/Marketplace.sol\":1582:1594  _msgSender() */\n  0x20\n  shr\n  jump\t// in\ntag_7:\n    /* \"contracts/Marketplace2/Marketplace.sol\":1563:1581  _transferOwnership */\n  shl(0x20, tag_9)\n    /* \"contracts/Marketplace2/Marketplace.sol\":1563:1595  _transferOwnership(_msgSender()) */\n  0x20\n  shr\n  jump\t// in\ntag_6:\n    /* \"contracts/Marketplace2/Marketplace.sol\":17004:24072  contract NFTMarket is ReentrancyGuard, MarketplaceStorage, Ownable {... */\n  jump(tag_10)\n    /* \"contracts/Marketplace2/Marketplace.sol\":556:652  function _msgSender() internal view virtual returns (address) {... */\ntag_8:\n    /* \"contracts/Marketplace2/Marketplace.sol\":609:616  address */\n  0x00\n    /* \"contracts/Marketplace2/Marketplace.sol\":635:645  msg.sender */\n  caller\n    /* \"contracts/Marketplace2/Marketplace.sol\":628:645  return msg.sender */\n  swap1\n  pop\n    /* \"contracts/Marketplace2/Marketplace.sol\":556:652  function _msgSender() internal view virtual returns (address) {... */\n  swap1\n  jump\t// out\n    /* \"contracts/Marketplace2/Marketplace.sol\":2912:3099  function _transferOwnership(address newOwner) internal virtual {... */\ntag_9:\n    /* \"contracts/Marketplace2/Marketplace.sol\":2985:3001  address oldOwner */\n  0x00\n    /* \"contracts/Marketplace2/Marketplace.sol\":3004:3010  _owner */\n  0x04\n  0x00\n  swap1\n  sload\n  swap1\n  0x0100\n  exp\n  swap1\n  div\n  0xffffffffffffffffffffffffffffffffffffffff\n  and\n    /* \"contracts/Marketplace2/Marketplace.sol\":2985:3010  address oldOwner = _owner */\n  swap1\n  pop\n    /* \"contracts/Marketplace2/Marketplace.sol\":3029:3037  newOwner */\n  dup2\n    /* \"contracts/Marketplace2/Marketplace.sol\":3020:3026  _owner */\n  0x04\n  0x00\n    /* \"contracts/Marketplace2/Marketplace.sol\":3020:3037  _owner = newOwner */\n  0x0100\n  exp\n  dup2\n  sload\n  dup2\n  0xffffffffffffffffffffffffffffffffffffffff\n  mul\n  not\n  and\n  swap1\n  dup4\n  0xffffffffffffffffffffffffffffffffffffffff\n  and\n  mul\n  or\n  swap1\n  sstore\n  pop\n    /* \"contracts/Marketplace2/Marketplace.sol\":3083:3091  newOwner */\n  dup2\n    /* \"contracts/Marketplace2/Marketplace.sol\":3052:3092  OwnershipTransferred(oldOwner, newOwner) */\n  0xffffffffffffffffffffffffffffffffffffffff\n  and\n    /* \"contracts/Marketplace2/Marketplace.sol\":3073:3081  oldOwner */\n  dup2\n    /* \"contracts/Marketplace2/Marketplace.sol\":3052:3092  OwnershipTransferred(oldOwner, newOwner) */\n  0xffffffffffffffffffffffffffffffffffffffff\n  and\n  0x8be0079c531659141344cd1fd0a4f28419497f9722a3daafe3b4186f6b6457e0\n  mload(0x40)\n  mload(0x40)\n  dup1\n  swap2\n  sub\n  swap1\n  log3\n    /* \"contracts/Marketplace2/Marketplace.sol\":2975:3099  {... */\n  pop\n    /* \"contracts/Marketplace2/Marketplace.sol\":2912:3099  function _transferOwnership(address newOwner) internal virtual {... */\n  pop\n  jump\t// out\n    /* \"contracts/Marketplace2/Marketplace.sol\":17004:24072  contract NFTMarket is ReentrancyGuard, MarketplaceStorage, Ownable {... */\ntag_10:\n  dataSize(sub_0)\n  dup1\n  dataOffset(sub_0)\n  0x00\n  codecopy\n  0x00\n  return\nstop\n\nsub_0: assembly {\n        /* \"contracts/Marketplace2/Marketplace.sol\":17004:24072  contract NFTMarket is ReentrancyGuard, MarketplaceStorage, Ownable {... */\n      mstore(0x40, 0x80)\n      jumpi(tag_1, lt(calldatasize, 0x04))\n      shr(0xe0, calldataload(0x00))\n      dup1\n      0x715018a6\n      gt\n      tag_20\n      jumpi\n      dup1\n      0xb7a60c7e\n      gt\n      tag_21\n      jumpi\n      dup1\n      0xb7a60c7e\n      eq\n      tag_15\n      jumpi\n      dup1\n      0xc23b139e\n      eq\n      tag_16\n      jumpi\n      dup1\n      0xc7be7a49\n      eq\n      tag_17\n      jumpi\n      dup1\n      0xf01b52dc\n      eq\n      tag_18\n      jumpi\n      dup1\n      0xf2fde38b\n      eq\n      tag_19\n      jumpi\n      jump(tag_1)\n    tag_21:\n      dup1\n      0x715018a6\n      eq\n      tag_11\n      jumpi\n      dup1\n      0x85a8b36c\n      eq\n      tag_12\n      jumpi\n      dup1\n      0x8da5cb5b\n      eq\n      tag_13\n      jumpi\n      dup1\n      0x92bf77dd\n      eq\n      tag_14\n      jumpi\n      jump(tag_1)\n    tag_20:\n      dup1\n      0x2b4c32be\n      gt\n      tag_22\n      jumpi\n      dup1\n      0x2b4c32be\n      eq\n      tag_6\n      jumpi\n      dup1\n      0x49739678\n      eq\n      tag_7\n      jumpi\n      dup1\n      0x58eb2df5\n      eq\n      tag_8\n      jumpi\n      dup1\n      0x5c80a435\n      eq\n      tag_9\n      jumpi\n      dup1\n      0x68915327\n      eq\n      tag_10\n      jumpi\n      jump(tag_1)\n    tag_22:\n      dup1\n      0x0f08efe0\n      eq\n      tag_2\n      jumpi\n      dup1\n      0x15b81dc3\n      eq\n      tag_3\n      jumpi\n      dup1\n      0x202e3740\n      eq\n      tag_4\n      jumpi\n      dup1\n      0x2a45b250\n      eq\n      tag_5\n      jumpi\n    tag_1:\n      0x00\n      dup1\n      revert\n        /* \"contracts/Marketplace2/Marketplace.sol\":20261:20869  function fetchMarketItems() public view returns (MarketItem[] memory) {... */\n    tag_2:\n      callvalue\n      dup1\n      iszero\n      tag_23\n      jumpi\n      0x00\n      dup1\n      revert\n    tag_23:\n      pop\n      tag_24\n      tag_25\n      jump\t// in\n    tag_24:\n      mload(0x40)\n      tag_26\n      swap2\n      swap1\n      tag_27\n      jump\t// in\n    tag_26:\n      mload(0x40)\n      dup1\n      swap2\n      sub\n      swap1\n      return\n        /* \"contracts/Marketplace2/Marketplace.sol\":16146:16168  IERC20 public sqfToken */\n    tag_3:\n      callvalue\n      dup1\n      iszero\n      tag_28\n      jumpi\n      0x00\n      dup1\n      revert\n    tag_28:\n      pop\n      tag_29\n      tag_30\n      jump\t// in\n    tag_29:\n      mload(0x40)\n      tag_31\n      swap2\n      swap1\n      tag_32\n      jump\t// in\n    tag_31:\n      mload(0x40)\n      dup1\n      swap2\n      sub\n      swap1\n      return\n        /* \"contracts/Marketplace2/Marketplace.sol\":20873:21576  function fetchMyNFTs() public view returns (MarketItem[] memory) {... */\n    tag_4:\n      callvalue\n      dup1\n      iszero\n      tag_33\n      jumpi\n      0x00\n      dup1\n      revert\n    tag_33:\n      pop\n      tag_34\n      tag_35\n      jump\t// in\n    tag_34:\n      mload(0x40)\n      tag_36\n      swap2\n      swap1\n      tag_27\n      jump\t// in\n    tag_36:\n      mload(0x40)\n      dup1\n      swap2\n      sub\n      swap1\n      return\n        /* \"contracts/Marketplace2/Marketplace.sol\":20104:20257  function fetchMarketItem(uint itemId) public view returns (MarketItem memory) {... */\n    tag_5:\n      callvalue\n      dup1\n      iszero\n      tag_37\n      jumpi\n      0x00\n      dup1\n      revert\n    tag_37:\n      pop\n      tag_38\n      0x04\n      dup1\n      calldatasize\n      sub\n      dup2\n      add\n      swap1\n      tag_39\n      swap2\n      swap1\n      tag_40\n      jump\t// in\n    tag_39:\n      tag_41\n      jump\t// in\n    tag_38:\n      mload(0x40)\n      tag_42\n      swap2\n      swap1\n      tag_43\n      jump\t// in\n    tag_42:\n      mload(0x40)\n      dup1\n      swap2\n      sub\n      swap1\n      return\n        /* \"contracts/Marketplace2/Marketplace.sol\":15771:15831  bytes4 public constant ERC721_Interface = bytes4(0x80ac58cd) */\n    tag_6:\n      callvalue\n      dup1\n      iszero\n      tag_44\n      jumpi\n      0x00\n      dup1\n      revert\n    tag_44:\n      pop\n      tag_45\n      tag_46\n      jump\t// in\n    tag_45:\n      mload(0x40)\n      tag_47\n      swap2\n      swap1\n      tag_48\n      jump\t// in\n    tag_47:\n      mload(0x40)\n      dup1\n      swap2\n      sub\n      swap1\n      return\n        /* \"contracts/Marketplace2/Marketplace.sol\":16045:16140  mapping(address => mapping(uint256 => mapping(address => ItemOffer)))... */\n    tag_7:\n      callvalue\n      dup1\n      iszero\n      tag_49\n      jumpi\n      0x00\n      dup1\n      revert\n    tag_49:\n      pop\n      tag_50\n      0x04\n      dup1\n      calldatasize\n      sub\n      dup2\n      add\n      swap1\n      tag_51\n      swap2\n      swap1\n      tag_52\n      jump\t// in\n    tag_51:\n      tag_53\n      jump\t// in\n    tag_50:\n      mload(0x40)\n      tag_54\n      swap3\n      swap2\n      swap1\n      tag_55\n      jump\t// in\n    tag_54:\n      mload(0x40)\n      dup1\n      swap2\n      sub\n      swap1\n      return\n        /* \"contracts/Marketplace2/Marketplace.sol\":17829:18455  function createMarketItem(... */\n    tag_8:\n      tag_56\n      0x04\n      dup1\n      calldatasize\n      sub\n      dup2\n      add\n      swap1\n      tag_57\n      swap2\n      swap1\n      tag_58\n      jump\t// in\n    tag_57:\n      tag_59\n      jump\t// in\n    tag_56:\n      stop\n        /* \"contracts/Marketplace2/Marketplace.sol\":15909:15966  mapping(address => mapping(uint256 => Item)) public items */\n    tag_9:\n      callvalue\n      dup1\n      iszero\n      tag_60\n      jumpi\n      0x00\n      dup1\n      revert\n    tag_60:\n      pop\n      tag_61\n      0x04\n      dup1\n      calldatasize\n      sub\n      dup2\n      add\n      swap1\n      tag_62\n      swap2\n      swap1\n      tag_63\n      jump\t// in\n    tag_62:\n      tag_64\n      jump\t// in\n    tag_61:\n      mload(0x40)\n      tag_65\n      swap7\n      swap6\n      swap5\n      swap4\n      swap3\n      swap2\n      swap1\n      tag_66\n      jump\t// in\n    tag_65:\n      mload(0x40)\n      dup1\n      swap2\n      sub\n      swap1\n      return\n        /* \"contracts/Marketplace2/Marketplace.sol\":18459:19572  function sellItem(... */\n    tag_10:\n      callvalue\n      dup1\n      iszero\n      tag_67\n      jumpi\n      0x00\n      dup1\n      revert\n    tag_67:\n      pop\n      tag_68\n      0x04\n      dup1\n      calldatasize\n      sub\n      dup2\n      add\n      swap1\n      tag_69\n      swap2\n      swap1\n      tag_58\n      jump\t// in\n    tag_69:\n      tag_70\n      jump\t// in\n    tag_68:\n      stop\n        /* \"contracts/Marketplace2/Marketplace.sol\":2310:2411  function renounceOwnership() public virtual onlyOwner {... */\n    tag_11:\n      callvalue\n      dup1\n      iszero\n      tag_71\n      jumpi\n      0x00\n      dup1\n      revert\n    tag_71:\n      pop\n      tag_72\n      tag_73\n      jump\t// in\n    tag_72:\n      stop\n        /* \"contracts/Marketplace2/Marketplace.sol\":16175:16201  uint8 public bnbFeePercent */\n    tag_12:\n      callvalue\n      dup1\n      iszero\n      tag_74\n      jumpi\n      0x00\n      dup1\n      revert\n    tag_74:\n      pop\n      tag_75\n      tag_76\n      jump\t// in\n    tag_75:\n      mload(0x40)\n      tag_77\n      swap2\n      swap1\n      tag_78\n      jump\t// in\n    tag_77:\n      mload(0x40)\n      dup1\n      swap2\n      sub\n      swap1\n      return\n        /* \"contracts/Marketplace2/Marketplace.sol\":1678:1763  function owner() public view virtual returns (address) {... */\n    tag_13:\n      callvalue\n      dup1\n      iszero\n      tag_79\n      jumpi\n      0x00\n      dup1\n      revert\n    tag_79:\n      pop\n      tag_80\n      tag_81\n      jump\t// in\n    tag_80:\n      mload(0x40)\n      tag_82\n      swap2\n      swap1\n      tag_83\n      jump\t// in\n    tag_82:\n      mload(0x40)\n      dup1\n      swap2\n      sub\n      swap1\n      return\n        /* \"contracts/Marketplace2/Marketplace.sol\":17727:17825  function setSQFToken(address _address) external onlyOwner {... */\n    tag_14:\n      callvalue\n      dup1\n      iszero\n      tag_84\n      jumpi\n      0x00\n      dup1\n      revert\n    tag_84:\n      pop\n      tag_85\n      0x04\n      dup1\n      calldatasize\n      sub\n      dup2\n      add\n      swap1\n      tag_86\n      swap2\n      swap1\n      tag_87\n      jump\t// in\n    tag_86:\n      tag_88\n      jump\t// in\n    tag_85:\n      stop\n        /* \"contracts/Marketplace2/Marketplace.sol\":16207:16234  uint8 public antaFeePercent */\n    tag_15:\n      callvalue\n      dup1\n      iszero\n      tag_89\n      jumpi\n      0x00\n      dup1\n      revert\n    tag_89:\n      pop\n      tag_90\n      tag_91\n      jump\t// in\n    tag_90:\n      mload(0x40)\n      tag_92\n      swap2\n      swap1\n      tag_78\n      jump\t// in\n    tag_92:\n      mload(0x40)\n      dup1\n      swap2\n      sub\n      swap1\n      return\n        /* \"contracts/Marketplace2/Marketplace.sol\":19576:20100  function createMarketSale(... */\n    tag_16:\n      tag_93\n      0x04\n      dup1\n      calldatasize\n      sub\n      dup2\n      add\n      swap1\n      tag_94\n      swap2\n      swap1\n      tag_63\n      jump\t// in\n    tag_94:\n      tag_95\n      jump\t// in\n    tag_93:\n      stop\n        /* \"contracts/Marketplace2/Marketplace.sol\":17594:17725  function getMarketItem(uint256 marketItemId) public view returns (MarketItem memory) {... */\n    tag_17:\n      callvalue\n      dup1\n      iszero\n      tag_96\n      jumpi\n      0x00\n      dup1\n      revert\n    tag_96:\n      pop\n      tag_97\n      0x04\n      dup1\n      calldatasize\n      sub\n      dup2\n      add\n      swap1\n      tag_98\n      swap2\n      swap1\n      tag_40\n      jump\t// in\n    tag_98:\n      tag_99\n      jump\t// in\n    tag_97:\n      mload(0x40)\n      tag_100\n      swap2\n      swap1\n      tag_43\n      jump\t// in\n    tag_100:\n      mload(0x40)\n      dup1\n      swap2\n      sub\n      swap1\n      return\n        /* \"contracts/Marketplace2/Marketplace.sol\":21581:22877  function buyItemBySQF(... */\n    tag_18:\n      callvalue\n      dup1\n      iszero\n      tag_101\n      jumpi\n      0x00\n      dup1\n      revert\n    tag_101:\n      pop\n      tag_102\n      0x04\n      dup1\n      calldatasize\n      sub\n      dup2\n      add\n      swap1\n      tag_103\n      swap2\n      swap1\n      tag_58\n      jump\t// in\n    tag_103:\n      tag_104\n      jump\t// in\n    tag_102:\n      stop\n        /* \"contracts/Marketplace2/Marketplace.sol\":2560:2758  function transferOwnership(address newOwner) public virtual onlyOwner {... */\n    tag_19:\n      callvalue\n      dup1\n      iszero\n      tag_105\n      jumpi\n      0x00\n      dup1\n      revert\n    tag_105:\n      pop\n      tag_106\n      0x04\n      dup1\n      calldatasize\n      sub\n      dup2\n      add\n      swap1\n      tag_107\n      swap2\n      swap1\n      tag_87\n      jump\t// in\n    tag_107:\n      tag_108\n      jump\t// in\n    tag_106:\n      stop\n        /* \"contracts/Marketplace2/Marketplace.sol\":20261:20869  function fetchMarketItems() public view returns (MarketItem[] memory) {... */\n    tag_25:\n        /* \"contracts/Marketplace2/Marketplace.sol\":20310:20329  MarketItem[] memory */\n      0x60\n        /* \"contracts/Marketplace2/Marketplace.sol\":20337:20351  uint itemCount */\n      0x00\n        /* \"contracts/Marketplace2/Marketplace.sol\":20354:20372  _itemIds.current() */\n      tag_110\n        /* \"contracts/Marketplace2/Marketplace.sol\":20354:20362  _itemIds */\n      0x05\n        /* \"contracts/Marketplace2/Marketplace.sol\":20354:20370  _itemIds.current */\n      tag_111\n        /* \"contracts/Marketplace2/Marketplace.sol\":20354:20372  _itemIds.current() */\n      jump\t// in\n    tag_110:\n        /* \"contracts/Marketplace2/Marketplace.sol\":20337:20372  uint itemCount = _itemIds.current() */\n      swap1\n      pop\n        /* \"contracts/Marketplace2/Marketplace.sol\":20378:20398  uint unsoldItemCount */\n      0x00\n        /* \"contracts/Marketplace2/Marketplace.sol\":20422:20442  _itemsSold.current() */\n      tag_112\n        /* \"contracts/Marketplace2/Marketplace.sol\":20422:20432  _itemsSold */\n      0x06\n        /* \"contracts/Marketplace2/Marketplace.sol\":20422:20440  _itemsSold.current */\n      tag_111\n        /* \"contracts/Marketplace2/Marketplace.sol\":20422:20442  _itemsSold.current() */\n      jump\t// in\n    tag_112:\n        /* \"contracts/Marketplace2/Marketplace.sol\":20401:20419  _itemIds.current() */\n      tag_113\n        /* \"contracts/Marketplace2/Marketplace.sol\":20401:20409  _itemIds */\n      0x05\n        /* \"contracts/Marketplace2/Marketplace.sol\":20401:20417  _itemIds.current */\n      tag_111\n        /* \"contracts/Marketplace2/Marketplace.sol\":20401:20419  _itemIds.current() */\n      jump\t// in\n    tag_113:\n        /* \"contracts/Marketplace2/Marketplace.sol\":20401:20442  _itemIds.current() - _itemsSold.current() */\n      tag_114\n      swap2\n      swap1\n      tag_115\n      jump\t// in\n    tag_114:\n        /* \"contracts/Marketplace2/Marketplace.sol\":20378:20442  uint unsoldItemCount = _itemIds.current() - _itemsSold.current() */\n      swap1\n      pop\n        /* \"contracts/Marketplace2/Marketplace.sol\":20448:20465  uint currentIndex */\n      0x00\n        /* \"contracts/Marketplace2/Marketplace.sol\":20476:20501  MarketItem[] memory items */\n      dup1\n        /* \"contracts/Marketplace2/Marketplace.sol\":20521:20536  unsoldItemCount */\n      dup3\n        /* \"contracts/Marketplace2/Marketplace.sol\":20504:20537  new MarketItem[](unsoldItemCount) */\n      0xffffffffffffffff\n      dup2\n      gt\n      iszero\n      tag_116\n      jumpi\n      tag_117\n      tag_118\n      jump\t// in\n    tag_117:\n    tag_116:\n      mload(0x40)\n      swap1\n      dup1\n      dup3\n      mstore\n      dup1\n      0x20\n      mul\n      0x20\n      add\n      dup3\n      add\n      0x40\n      mstore\n      dup1\n      iszero\n      tag_119\n      jumpi\n      dup2\n      0x20\n      add\n    tag_120:\n      tag_121\n      tag_122\n      jump\t// in\n    tag_121:\n      dup2\n      mstore\n      0x20\n      add\n      swap1\n      0x01\n      swap1\n      sub\n      swap1\n      dup2\n      tag_120\n      jumpi\n      swap1\n      pop\n    tag_119:\n      pop\n        /* \"contracts/Marketplace2/Marketplace.sol\":20476:20537  MarketItem[] memory items = new MarketItem[](unsoldItemCount) */\n      swap1\n      pop\n        /* \"contracts/Marketplace2/Marketplace.sol\":20548:20554  uint i */\n      0x00\n        /* \"contracts/Marketplace2/Marketplace.sol\":20543:20843  for (uint i = 0; i < itemCount; i++) {... */\n    tag_123:\n        /* \"contracts/Marketplace2/Marketplace.sol\":20564:20573  itemCount */\n      dup5\n        /* \"contracts/Marketplace2/Marketplace.sol\":20560:20561  i */\n      dup2\n        /* \"contracts/Marketplace2/Marketplace.sol\":20560:20573  i < itemCount */\n      lt\n        /* \"contracts/Marketplace2/Marketplace.sol\":20543:20843  for (uint i = 0; i < itemCount; i++) {... */\n      iszero\n      tag_124\n      jumpi\n        /* \"contracts/Marketplace2/Marketplace.sol\":20631:20632  0 */\n      0x00\n        /* \"contracts/Marketplace2/Marketplace.sol\":20592:20633  idToMarketItem[i + 1].owner == address(0) */\n      0xffffffffffffffffffffffffffffffffffffffff\n      and\n        /* \"contracts/Marketplace2/Marketplace.sol\":20592:20606  idToMarketItem */\n      0x07\n        /* \"contracts/Marketplace2/Marketplace.sol\":20592:20613  idToMarketItem[i + 1] */\n      0x00\n        /* \"contracts/Marketplace2/Marketplace.sol\":20611:20612  1 */\n      0x01\n        /* \"contracts/Marketplace2/Marketplace.sol\":20607:20608  i */\n      dup5\n        /* \"contracts/Marketplace2/Marketplace.sol\":20607:20612  i + 1 */\n      tag_126\n      swap2\n      swap1\n      tag_127\n      jump\t// in\n    tag_126:\n        /* \"contracts/Marketplace2/Marketplace.sol\":20592:20613  idToMarketItem[i + 1] */\n      dup2\n      mstore\n      0x20\n      add\n      swap1\n      dup2\n      mstore\n      0x20\n      add\n      0x00\n      keccak256\n        /* \"contracts/Marketplace2/Marketplace.sol\":20592:20619  idToMarketItem[i + 1].owner */\n      0x04\n      add\n      0x00\n      swap1\n      sload\n      swap1\n      0x0100\n      exp\n      swap1\n      div\n      0xffffffffffffffffffffffffffffffffffffffff\n      and\n        /* \"contracts/Marketplace2/Marketplace.sol\":20592:20633  idToMarketItem[i + 1].owner == address(0) */\n      0xffffffffffffffffffffffffffffffffffffffff\n      and\n      sub\n        /* \"contracts/Marketplace2/Marketplace.sol\":20588:20837  if (idToMarketItem[i + 1].owner == address(0)) {... */\n      tag_128\n      jumpi\n        /* \"contracts/Marketplace2/Marketplace.sol\":20645:20659  uint currentId */\n      0x00\n        /* \"contracts/Marketplace2/Marketplace.sol\":20662:20676  idToMarketItem */\n      0x07\n        /* \"contracts/Marketplace2/Marketplace.sol\":20662:20683  idToMarketItem[i + 1] */\n      0x00\n        /* \"contracts/Marketplace2/Marketplace.sol\":20681:20682  1 */\n      0x01\n        /* \"contracts/Marketplace2/Marketplace.sol\":20677:20678  i */\n      dup5\n        /* \"contracts/Marketplace2/Marketplace.sol\":20677:20682  i + 1 */\n      tag_129\n      swap2\n      swap1\n      tag_127\n      jump\t// in\n    tag_129:\n        /* \"contracts/Marketplace2/Marketplace.sol\":20662:20683  idToMarketItem[i + 1] */\n      dup2\n      mstore\n      0x20\n      add\n      swap1\n      dup2\n      mstore\n      0x20\n      add\n      0x00\n      keccak256\n        /* \"contracts/Marketplace2/Marketplace.sol\":20662:20690  idToMarketItem[i + 1].itemId */\n      0x00\n      add\n      sload\n        /* \"contracts/Marketplace2/Marketplace.sol\":20645:20690  uint currentId = idToMarketItem[i + 1].itemId */\n      swap1\n      pop\n        /* \"contracts/Marketplace2/Marketplace.sol\":20700:20730  MarketItem storage currentItem */\n      0x00\n        /* \"contracts/Marketplace2/Marketplace.sol\":20733:20747  idToMarketItem */\n      0x07\n        /* \"contracts/Marketplace2/Marketplace.sol\":20733:20758  idToMarketItem[currentId] */\n      0x00\n        /* \"contracts/Marketplace2/Marketplace.sol\":20748:20757  currentId */\n      dup4\n        /* \"contracts/Marketplace2/Marketplace.sol\":20733:20758  idToMarketItem[currentId] */\n      dup2\n      mstore\n      0x20\n      add\n      swap1\n      dup2\n      mstore\n      0x20\n      add\n      0x00\n      keccak256\n        /* \"contracts/Marketplace2/Marketplace.sol\":20700:20758  MarketItem storage currentItem = idToMarketItem[currentId] */\n      swap1\n      pop\n        /* \"contracts/Marketplace2/Marketplace.sol\":20790:20801  currentItem */\n      dup1\n        /* \"contracts/Marketplace2/Marketplace.sol\":20768:20801  items[currentIndex] = currentItem */\n      mload(0x40)\n      dup1\n      0xc0\n      add\n      0x40\n      mstore\n      swap1\n      dup2\n      0x00\n      dup3\n      add\n      sload\n      dup2\n      mstore\n      0x20\n      add\n      0x01\n      dup3\n      add\n      0x00\n      swap1\n      sload\n      swap1\n      0x0100\n      exp\n      swap1\n      div\n      0xffffffffffffffffffffffffffffffffffffffff\n      and\n      0xffffffffffffffffffffffffffffffffffffffff\n      and\n      0xffffffffffffffffffffffffffffffffffffffff\n      and\n      dup2\n      mstore\n      0x20\n      add\n      0x02\n      dup3\n      add\n      sload\n      dup2\n      mstore\n      0x20\n      add\n      0x03\n      dup3\n      add\n      0x00\n      swap1\n      sload\n      swap1\n      0x0100\n      exp\n      swap1\n      div\n      0xffffffffffffffffffffffffffffffffffffffff\n      and\n      0xffffffffffffffffffffffffffffffffffffffff\n      and\n      0xffffffffffffffffffffffffffffffffffffffff\n      and\n      dup2\n      mstore\n      0x20\n      add\n      0x04\n      dup3\n      add\n      0x00\n      swap1\n      sload\n      swap1\n      0x0100\n      exp\n      swap1\n      div\n      0xffffffffffffffffffffffffffffffffffffffff\n      and\n      0xffffffffffffffffffffffffffffffffffffffff\n      and\n      0xffffffffffffffffffffffffffffffffffffffff\n      and\n      dup2\n      mstore\n      0x20\n      add\n      0x05\n      dup3\n      add\n      sload\n      dup2\n      mstore\n      pop\n      pop\n        /* \"contracts/Marketplace2/Marketplace.sol\":20768:20773  items */\n      dup5\n        /* \"contracts/Marketplace2/Marketplace.sol\":20774:20786  currentIndex */\n      dup7\n        /* \"contracts/Marketplace2/Marketplace.sol\":20768:20787  items[currentIndex] */\n      dup2\n      mload\n      dup2\n      lt\n      tag_130\n      jumpi\n      tag_131\n      tag_132\n      jump\t// in\n    tag_131:\n    tag_130:\n      0x20\n      mul\n      0x20\n      add\n      add\n        /* \"contracts/Marketplace2/Marketplace.sol\":20768:20801  items[currentIndex] = currentItem */\n      dup2\n      swap1\n      mstore\n      pop\n        /* \"contracts/Marketplace2/Marketplace.sol\":20827:20828  1 */\n      0x01\n        /* \"contracts/Marketplace2/Marketplace.sol\":20811:20828  currentIndex += 1 */\n      dup6\n      tag_133\n      swap2\n      swap1\n      tag_127\n      jump\t// in\n    tag_133:\n      swap5\n      pop\n        /* \"contracts/Marketplace2/Marketplace.sol\":20635:20837  {... */\n      pop\n      pop\n        /* \"contracts/Marketplace2/Marketplace.sol\":20588:20837  if (idToMarketItem[i + 1].owner == address(0)) {... */\n    tag_128:\n        /* \"contracts/Marketplace2/Marketplace.sol\":20575:20578  i++ */\n      dup1\n      dup1\n      tag_134\n      swap1\n      tag_135\n      jump\t// in\n    tag_134:\n      swap2\n      pop\n      pop\n        /* \"contracts/Marketplace2/Marketplace.sol\":20543:20843  for (uint i = 0; i < itemCount; i++) {... */\n      jump(tag_123)\n    tag_124:\n      pop\n        /* \"contracts/Marketplace2/Marketplace.sol\":20859:20864  items */\n      dup1\n        /* \"contracts/Marketplace2/Marketplace.sol\":20852:20864  return items */\n      swap5\n      pop\n      pop\n      pop\n      pop\n      pop\n        /* \"contracts/Marketplace2/Marketplace.sol\":20261:20869  function fetchMarketItems() public view returns (MarketItem[] memory) {... */\n      swap1\n      jump\t// out\n        /* \"contracts/Marketplace2/Marketplace.sol\":16146:16168  IERC20 public sqfToken */\n    tag_30:\n      0x03\n      0x00\n      swap1\n      sload\n      swap1\n      0x0100\n      exp\n      swap1\n      div\n      0xffffffffffffffffffffffffffffffffffffffff\n      and\n      dup2\n      jump\t// out\n        /* \"contracts/Marketplace2/Marketplace.sol\":20873:21576  function fetchMyNFTs() public view returns (MarketItem[] memory) {... */\n    tag_35:\n        /* \"contracts/Marketplace2/Marketplace.sol\":20917:20936  MarketItem[] memory */\n      0x60\n        /* \"contracts/Marketplace2/Marketplace.sol\":20944:20963  uint totalItemCount */\n      0x00\n        /* \"contracts/Marketplace2/Marketplace.sol\":20966:20984  _itemIds.current() */\n      tag_137\n        /* \"contracts/Marketplace2/Marketplace.sol\":20966:20974  _itemIds */\n      0x05\n        /* \"contracts/Marketplace2/Marketplace.sol\":20966:20982  _itemIds.current */\n      tag_111\n        /* \"contracts/Marketplace2/Marketplace.sol\":20966:20984  _itemIds.current() */\n      jump\t// in\n    tag_137:\n        /* \"contracts/Marketplace2/Marketplace.sol\":20944:20984  uint totalItemCount = _itemIds.current() */\n      swap1\n      pop\n        /* \"contracts/Marketplace2/Marketplace.sol\":20990:21004  uint itemCount */\n      0x00\n        /* \"contracts/Marketplace2/Marketplace.sol\":21014:21031  uint currentIndex */\n      dup1\n        /* \"contracts/Marketplace2/Marketplace.sol\":21047:21053  uint i */\n      0x00\n        /* \"contracts/Marketplace2/Marketplace.sol\":21042:21178  for (uint i = 0; i < totalItemCount; i++) {... */\n    tag_138:\n        /* \"contracts/Marketplace2/Marketplace.sol\":21063:21077  totalItemCount */\n      dup4\n        /* \"contracts/Marketplace2/Marketplace.sol\":21059:21060  i */\n      dup2\n        /* \"contracts/Marketplace2/Marketplace.sol\":21059:21077  i < totalItemCount */\n      lt\n        /* \"contracts/Marketplace2/Marketplace.sol\":21042:21178  for (uint i = 0; i < totalItemCount; i++) {... */\n      iszero\n      tag_139\n      jumpi\n        /* \"contracts/Marketplace2/Marketplace.sol\":21127:21137  msg.sender */\n      caller\n        /* \"contracts/Marketplace2/Marketplace.sol\":21096:21137  idToMarketItem[i + 1].owner == msg.sender */\n      0xffffffffffffffffffffffffffffffffffffffff\n      and\n        /* \"contracts/Marketplace2/Marketplace.sol\":21096:21110  idToMarketItem */\n      0x07\n        /* \"contracts/Marketplace2/Marketplace.sol\":21096:21117  idToMarketItem[i + 1] */\n      0x00\n        /* \"contracts/Marketplace2/Marketplace.sol\":21115:21116  1 */\n      0x01\n        /* \"contracts/Marketplace2/Marketplace.sol\":21111:21112  i */\n      dup5\n        /* \"contracts/Marketplace2/Marketplace.sol\":21111:21116  i + 1 */\n      tag_141\n      swap2\n      swap1\n      tag_127\n      jump\t// in\n    tag_141:\n        /* \"contracts/Marketplace2/Marketplace.sol\":21096:21117  idToMarketItem[i + 1] */\n      dup2\n      mstore\n      0x20\n      add\n      swap1\n      dup2\n      mstore\n      0x20\n      add\n      0x00\n      keccak256\n        /* \"contracts/Marketplace2/Marketplace.sol\":21096:21123  idToMarketItem[i + 1].owner */\n      0x04\n      add\n      0x00\n      swap1\n      sload\n      swap1\n      0x0100\n      exp\n      swap1\n      div\n      0xffffffffffffffffffffffffffffffffffffffff\n      and\n        /* \"contracts/Marketplace2/Marketplace.sol\":21096:21137  idToMarketItem[i + 1].owner == msg.sender */\n      0xffffffffffffffffffffffffffffffffffffffff\n      and\n      sub\n        /* \"contracts/Marketplace2/Marketplace.sol\":21092:21172  if (idToMarketItem[i + 1].owner == msg.sender) {... */\n      tag_142\n      jumpi\n        /* \"contracts/Marketplace2/Marketplace.sol\":21162:21163  1 */\n      0x01\n        /* \"contracts/Marketplace2/Marketplace.sol\":21149:21163  itemCount += 1 */\n      dup4\n      tag_143\n      swap2\n      swap1\n      tag_127\n      jump\t// in\n    tag_143:\n      swap3\n      pop\n        /* \"contracts/Marketplace2/Marketplace.sol\":21092:21172  if (idToMarketItem[i + 1].owner == msg.sender) {... */\n    tag_142:\n        /* \"contracts/Marketplace2/Marketplace.sol\":21079:21082  i++ */\n      dup1\n      dup1\n      tag_144\n      swap1\n      tag_135\n      jump\t// in\n    tag_144:\n      swap2\n      pop\n      pop\n        /* \"contracts/Marketplace2/Marketplace.sol\":21042:21178  for (uint i = 0; i < totalItemCount; i++) {... */\n      jump(tag_138)\n    tag_139:\n      pop\n        /* \"contracts/Marketplace2/Marketplace.sol\":21184:21209  MarketItem[] memory items */\n      0x00\n        /* \"contracts/Marketplace2/Marketplace.sol\":21229:21238  itemCount */\n      dup3\n        /* \"contracts/Marketplace2/Marketplace.sol\":21212:21239  new MarketItem[](itemCount) */\n      0xffffffffffffffff\n      dup2\n      gt\n      iszero\n      tag_145\n      jumpi\n      tag_146\n      tag_118\n      jump\t// in\n    tag_146:\n    tag_145:\n      mload(0x40)\n      swap1\n      dup1\n      dup3\n      mstore\n      dup1\n      0x20\n      mul\n      0x20\n      add\n      dup3\n      add\n      0x40\n      mstore\n      dup1\n      iszero\n      tag_147\n      jumpi\n      dup2\n      0x20\n      add\n    tag_148:\n      tag_149\n      tag_122\n      jump\t// in\n    tag_149:\n      dup2\n      mstore\n      0x20\n      add\n      swap1\n      0x01\n      swap1\n      sub\n      swap1\n      dup2\n      tag_148\n      jumpi\n      swap1\n      pop\n    tag_147:\n      pop\n        /* \"contracts/Marketplace2/Marketplace.sol\":21184:21239  MarketItem[] memory items = new MarketItem[](itemCount) */\n      swap1\n      pop\n        /* \"contracts/Marketplace2/Marketplace.sol\":21250:21256  uint i */\n      0x00\n        /* \"contracts/Marketplace2/Marketplace.sol\":21245:21550  for (uint i = 0; i < totalItemCount; i++) {... */\n    tag_150:\n        /* \"contracts/Marketplace2/Marketplace.sol\":21266:21280  totalItemCount */\n      dup5\n        /* \"contracts/Marketplace2/Marketplace.sol\":21262:21263  i */\n      dup2\n        /* \"contracts/Marketplace2/Marketplace.sol\":21262:21280  i < totalItemCount */\n      lt\n        /* \"contracts/Marketplace2/Marketplace.sol\":21245:21550  for (uint i = 0; i < totalItemCount; i++) {... */\n      iszero\n      tag_151\n      jumpi\n        /* \"contracts/Marketplace2/Marketplace.sol\":21330:21340  msg.sender */\n      caller\n        /* \"contracts/Marketplace2/Marketplace.sol\":21299:21340  idToMarketItem[i + 1].owner == msg.sender */\n      0xffffffffffffffffffffffffffffffffffffffff\n      and\n        /* \"contracts/Marketplace2/Marketplace.sol\":21299:21313  idToMarketItem */\n      0x07\n        /* \"contracts/Marketplace2/Marketplace.sol\":21299:21320  idToMarketItem[i + 1] */\n      0x00\n        /* \"contracts/Marketplace2/Marketplace.sol\":21318:21319  1 */\n      0x01\n        /* \"contracts/Marketplace2/Marketplace.sol\":21314:21315  i */\n      dup5\n        /* \"contracts/Marketplace2/Marketplace.sol\":21314:21319  i + 1 */\n      tag_153\n      swap2\n      swap1\n      tag_127\n      jump\t// in\n    tag_153:\n        /* \"contracts/Marketplace2/Marketplace.sol\":21299:21320  idToMarketItem[i + 1] */\n      dup2\n      mstore\n      0x20\n      add\n      swap1\n      dup2\n      mstore\n      0x20\n      add\n      0x00\n      keccak256\n        /* \"contracts/Marketplace2/Marketplace.sol\":21299:21326  idToMarketItem[i + 1].owner */\n      0x04\n      add\n      0x00\n      swap1\n      sload\n      swap1\n      0x0100\n      exp\n      swap1\n      div\n      0xffffffffffffffffffffffffffffffffffffffff\n      and\n        /* \"contracts/Marketplace2/Marketplace.sol\":21299:21340  idToMarketItem[i + 1].owner == msg.sender */\n      0xffffffffffffffffffffffffffffffffffffffff\n      and\n      sub\n        /* \"contracts/Marketplace2/Marketplace.sol\":21295:21544  if (idToMarketItem[i + 1].owner == msg.sender) {... */\n      tag_154\n      jumpi\n        /* \"contracts/Marketplace2/Marketplace.sol\":21352:21366  uint currentId */\n      0x00\n        /* \"contracts/Marketplace2/Marketplace.sol\":21369:21383  idToMarketItem */\n      0x07\n        /* \"contracts/Marketplace2/Marketplace.sol\":21369:21390  idToMarketItem[i + 1] */\n      0x00\n        /* \"contracts/Marketplace2/Marketplace.sol\":21388:21389  1 */\n      0x01\n        /* \"contracts/Marketplace2/Marketplace.sol\":21384:21385  i */\n      dup5\n        /* \"contracts/Marketplace2/Marketplace.sol\":21384:21389  i + 1 */\n      tag_155\n      swap2\n      swap1\n      tag_127\n      jump\t// in\n    tag_155:\n        /* \"contracts/Marketplace2/Marketplace.sol\":21369:21390  idToMarketItem[i + 1] */\n      dup2\n      mstore\n      0x20\n      add\n      swap1\n      dup2\n      mstore\n      0x20\n      add\n      0x00\n      keccak256\n        /* \"contracts/Marketplace2/Marketplace.sol\":21369:21397  idToMarketItem[i + 1].itemId */\n      0x00\n      add\n      sload\n        /* \"contracts/Marketplace2/Marketplace.sol\":21352:21397  uint currentId = idToMarketItem[i + 1].itemId */\n      swap1\n      pop\n        /* \"contracts/Marketplace2/Marketplace.sol\":21407:21437  MarketItem storage currentItem */\n      0x00\n        /* \"contracts/Marketplace2/Marketplace.sol\":21440:21454  idToMarketItem */\n      0x07\n        /* \"contracts/Marketplace2/Marketplace.sol\":21440:21465  idToMarketItem[currentId] */\n      0x00\n        /* \"contracts/Marketplace2/Marketplace.sol\":21455:21464  currentId */\n      dup4\n        /* \"contracts/Marketplace2/Marketplace.sol\":21440:21465  idToMarketItem[currentId] */\n      dup2\n      mstore\n      0x20\n      add\n      swap1\n      dup2\n      mstore\n      0x20\n      add\n      0x00\n      keccak256\n        /* \"contracts/Marketplace2/Marketplace.sol\":21407:21465  MarketItem storage currentItem = idToMarketItem[currentId] */\n      swap1\n      pop\n        /* \"contracts/Marketplace2/Marketplace.sol\":21497:21508  currentItem */\n      dup1\n        /* \"contracts/Marketplace2/Marketplace.sol\":21475:21508  items[currentIndex] = currentItem */\n      mload(0x40)\n      dup1\n      0xc0\n      add\n      0x40\n      mstore\n      swap1\n      dup2\n      0x00\n      dup3\n      add\n      sload\n      dup2\n      mstore\n      0x20\n      add\n      0x01\n      dup3\n      add\n      0x00\n      swap1\n      sload\n      swap1\n      0x0100\n      exp\n      swap1\n      div\n      0xffffffffffffffffffffffffffffffffffffffff\n      and\n      0xffffffffffffffffffffffffffffffffffffffff\n      and\n      0xffffffffffffffffffffffffffffffffffffffff\n      and\n      dup2\n      mstore\n      0x20\n      add\n      0x02\n      dup3\n      add\n      sload\n      dup2\n      mstore\n      0x20\n      add\n      0x03\n      dup3\n      add\n      0x00\n      swap1\n      sload\n      swap1\n      0x0100\n      exp\n      swap1\n      div\n      0xffffffffffffffffffffffffffffffffffffffff\n      and\n      0xffffffffffffffffffffffffffffffffffffffff\n      and\n      0xffffffffffffffffffffffffffffffffffffffff\n      and\n      dup2\n      mstore\n      0x20\n      add\n      0x04\n      dup3\n      add\n      0x00\n      swap1\n      sload\n      swap1\n      0x0100\n      exp\n      swap1\n      div\n      0xffffffffffffffffffffffffffffffffffffffff\n      and\n      0xffffffffffffffffffffffffffffffffffffffff\n      and\n      0xffffffffffffffffffffffffffffffffffffffff\n      and\n      dup2\n      mstore\n      0x20\n      add\n      0x05\n      dup3\n      add\n      sload\n      dup2\n      mstore\n      pop\n      pop\n        /* \"contracts/Marketplace2/Marketplace.sol\":21475:21480  items */\n      dup5\n        /* \"contracts/Marketplace2/Marketplace.sol\":21481:21493  currentIndex */\n      dup7\n        /* \"contracts/Marketplace2/Marketplace.sol\":21475:21494  items[currentIndex] */\n      dup2\n      mload\n      dup2\n      lt\n      tag_156\n      jumpi\n      tag_157\n      tag_132\n      jump\t// in\n    tag_157:\n    tag_156:\n      0x20\n      mul\n      0x20\n      add\n      add\n        /* \"contracts/Marketplace2/Marketplace.sol\":21475:21508  items[currentIndex] = currentItem */\n      dup2\n      swap1\n      mstore\n      pop\n        /* \"contracts/Marketplace2/Marketplace.sol\":21534:21535  1 */\n      0x01\n        /* \"contracts/Marketplace2/Marketplace.sol\":21518:21535  currentIndex += 1 */\n      dup6\n      tag_158\n      swap2\n      swap1\n      tag_127\n      jump\t// in\n    tag_158:\n      swap5\n      pop\n        /* \"contracts/Marketplace2/Marketplace.sol\":21342:21544  {... */\n      pop\n      pop\n        /* \"contracts/Marketplace2/Marketplace.sol\":21295:21544  if (idToMarketItem[i + 1].owner == msg.sender) {... */\n    tag_154:\n        /* \"contracts/Marketplace2/Marketplace.sol\":21282:21285  i++ */\n      dup1\n      dup1\n      tag_159\n      swap1\n      tag_135\n      jump\t// in\n    tag_159:\n      swap2\n      pop\n      pop\n        /* \"contracts/Marketplace2/Marketplace.sol\":21245:21550  for (uint i = 0; i < totalItemCount; i++) {... */\n      jump(tag_150)\n    tag_151:\n      pop\n        /* \"contracts/Marketplace2/Marketplace.sol\":21566:21571  items */\n      dup1\n        /* \"contracts/Marketplace2/Marketplace.sol\":21559:21571  return items */\n      swap5\n      pop\n      pop\n      pop\n      pop\n      pop\n        /* \"contracts/Marketplace2/Marketplace.sol\":20873:21576  function fetchMyNFTs() public view returns (MarketItem[] memory) {... */\n      swap1\n      jump\t// out\n        /* \"contracts/Marketplace2/Marketplace.sol\":20104:20257  function fetchMarketItem(uint itemId) public view returns (MarketItem memory) {... */\n    tag_41:\n        /* \"contracts/Marketplace2/Marketplace.sol\":20163:20180  MarketItem memory */\n      tag_160\n      tag_122\n      jump\t// in\n    tag_160:\n        /* \"contracts/Marketplace2/Marketplace.sol\":20188:20210  MarketItem memory item */\n      0x00\n        /* \"contracts/Marketplace2/Marketplace.sol\":20213:20227  idToMarketItem */\n      0x07\n        /* \"contracts/Marketplace2/Marketplace.sol\":20213:20235  idToMarketItem[itemId] */\n      0x00\n        /* \"contracts/Marketplace2/Marketplace.sol\":20228:20234  itemId */\n      dup5\n        /* \"contracts/Marketplace2/Marketplace.sol\":20213:20235  idToMarketItem[itemId] */\n      dup2\n      mstore\n      0x20\n      add\n      swap1\n      dup2\n      mstore\n      0x20\n      add\n      0x00\n      keccak256\n        /* \"contracts/Marketplace2/Marketplace.sol\":20188:20235  MarketItem memory item = idToMarketItem[itemId] */\n      mload(0x40)\n      dup1\n      0xc0\n      add\n      0x40\n      mstore\n      swap1\n      dup2\n      0x00\n      dup3\n      add\n      sload\n      dup2\n      mstore\n      0x20\n      add\n      0x01\n      dup3\n      add\n      0x00\n      swap1\n      sload\n      swap1\n      0x0100\n      exp\n      swap1\n      div\n      0xffffffffffffffffffffffffffffffffffffffff\n      and\n      0xffffffffffffffffffffffffffffffffffffffff\n      and\n      0xffffffffffffffffffffffffffffffffffffffff\n      and\n      dup2\n      mstore\n      0x20\n      add\n      0x02\n      dup3\n      add\n      sload\n      dup2\n      mstore\n      0x20\n      add\n      0x03\n      dup3\n      add\n      0x00\n      swap1\n      sload\n      swap1\n      0x0100\n      exp\n      swap1\n      div\n      0xffffffffffffffffffffffffffffffffffffffff\n      and\n      0xffffffffffffffffffffffffffffffffffffffff\n      and\n      0xffffffffffffffffffffffffffffffffffffffff\n      and\n      dup2\n      mstore\n      0x20\n      add\n      0x04\n      dup3\n      add\n      0x00\n      swap1\n      sload\n      swap1\n      0x0100\n      exp\n      swap1\n      div\n      0xffffffffffffffffffffffffffffffffffffffff\n      and\n      0xffffffffffffffffffffffffffffffffffffffff\n      and\n      0xffffffffffffffffffffffffffffffffffffffff\n      and\n      dup2\n      mstore\n      0x20\n      add\n      0x05\n      dup3\n      add\n      sload\n      dup2\n      mstore\n      pop\n      pop\n      swap1\n      pop\n        /* \"contracts/Marketplace2/Marketplace.sol\":20248:20252  item */\n      dup1\n        /* \"contracts/Marketplace2/Marketplace.sol\":20241:20252  return item */\n      swap2\n      pop\n      pop\n        /* \"contracts/Marketplace2/Marketplace.sol\":20104:20257  function fetchMarketItem(uint itemId) public view returns (MarketItem memory) {... */\n      swap2\n      swap1\n      pop\n      jump\t// out\n        /* \"contracts/Marketplace2/Marketplace.sol\":15771:15831  bytes4 public constant ERC721_Interface = bytes4(0x80ac58cd) */\n    tag_46:\n        /* \"contracts/Marketplace2/Marketplace.sol\":15820:15830  0x80ac58cd */\n      0x80ac58cd\n        /* \"contracts/Marketplace2/Marketplace.sol\":15813:15831  bytes4(0x80ac58cd) */\n      0xe0\n      shl\n        /* \"contracts/Marketplace2/Marketplace.sol\":15771:15831  bytes4 public constant ERC721_Interface = bytes4(0x80ac58cd) */\n      dup2\n      jump\t// out\n        /* \"contracts/Marketplace2/Marketplace.sol\":16045:16140  mapping(address => mapping(uint256 => mapping(address => ItemOffer)))... */\n    tag_53:\n      mstore(0x20, 0x02)\n      dup3\n      0x00\n      mstore\n      mstore(0x20, keccak256(0x00, 0x40))\n      dup2\n      0x00\n      mstore\n      mstore(0x20, keccak256(0x00, 0x40))\n      dup1\n      0x00\n      mstore\n      keccak256(0x00, 0x40)\n      0x00\n      swap3\n      pop\n      swap3\n      pop\n      pop\n      pop\n      dup1\n      0x00\n      add\n      sload\n      swap1\n      dup1\n      0x01\n      add\n      sload\n      swap1\n      pop\n      dup3\n      jump\t// out\n        /* \"contracts/Marketplace2/Marketplace.sol\":17829:18455  function createMarketItem(... */\n    tag_59:\n        /* \"contracts/Marketplace2/Marketplace.sol\":14167:14168  2 */\n      0x02\n        /* \"contracts/Marketplace2/Marketplace.sol\":14748:14755  _status */\n      sload(0x00)\n        /* \"contracts/Marketplace2/Marketplace.sol\":14748:14767  _status != _ENTERED */\n      sub\n        /* \"contracts/Marketplace2/Marketplace.sol\":14740:14803  require(_status != _ENTERED, \"ReentrancyGuard: reentrant call\") */\n      tag_163\n      jumpi\n      mload(0x40)\n      0x08c379a000000000000000000000000000000000000000000000000000000000\n      dup2\n      mstore\n      0x04\n      add\n      tag_164\n      swap1\n      tag_165\n      jump\t// in\n    tag_164:\n      mload(0x40)\n      dup1\n      swap2\n      sub\n      swap1\n      revert\n    tag_163:\n        /* \"contracts/Marketplace2/Marketplace.sol\":14167:14168  2 */\n      0x02\n        /* \"contracts/Marketplace2/Marketplace.sol\":14878:14885  _status */\n      0x00\n        /* \"contracts/Marketplace2/Marketplace.sol\":14878:14896  _status = _ENTERED */\n      dup2\n      swap1\n      sstore\n      pop\n        /* \"contracts/Marketplace2/Marketplace.sol\":17974:17975  0 */\n      0x00\n        /* \"contracts/Marketplace2/Marketplace.sol\":17966:17971  price */\n      dup2\n        /* \"contracts/Marketplace2/Marketplace.sol\":17966:17975  price > 0 */\n      gt\n        /* \"contracts/Marketplace2/Marketplace.sol\":17958:18008  require(price > 0, \"Price must be at least 1 wei\") */\n      tag_167\n      jumpi\n      mload(0x40)\n      0x08c379a000000000000000000000000000000000000000000000000000000000\n      dup2\n      mstore\n      0x04\n      add\n      tag_168\n      swap1\n      tag_169\n      jump\t// in\n    tag_168:\n      mload(0x40)\n      dup1\n      swap2\n      sub\n      swap1\n      revert\n    tag_167:\n        /* \"contracts/Marketplace2/Marketplace.sol\":18015:18035  _itemIds.increment() */\n      tag_170\n        /* \"contracts/Marketplace2/Marketplace.sol\":18015:18023  _itemIds */\n      0x05\n        /* \"contracts/Marketplace2/Marketplace.sol\":18015:18033  _itemIds.increment */\n      tag_171\n        /* \"contracts/Marketplace2/Marketplace.sol\":18015:18035  _itemIds.increment() */\n      jump\t// in\n    tag_170:\n        /* \"contracts/Marketplace2/Marketplace.sol\":18041:18055  uint256 itemId */\n      0x00\n        /* \"contracts/Marketplace2/Marketplace.sol\":18058:18076  _itemIds.current() */\n      tag_172\n        /* \"contracts/Marketplace2/Marketplace.sol\":18058:18066  _itemIds */\n      0x05\n        /* \"contracts/Marketplace2/Marketplace.sol\":18058:18074  _itemIds.current */\n      tag_111\n        /* \"contracts/Marketplace2/Marketplace.sol\":18058:18076  _itemIds.current() */\n      jump\t// in\n    tag_172:\n        /* \"contracts/Marketplace2/Marketplace.sol\":18041:18076  uint256 itemId = _itemIds.current() */\n      swap1\n      pop\n        /* \"contracts/Marketplace2/Marketplace.sol\":18111:18242  MarketItem(... */\n      mload(0x40)\n      dup1\n      0xc0\n      add\n      0x40\n      mstore\n      dup1\n        /* \"contracts/Marketplace2/Marketplace.sol\":18129:18135  itemId */\n      dup3\n        /* \"contracts/Marketplace2/Marketplace.sol\":18111:18242  MarketItem(... */\n      dup2\n      mstore\n      0x20\n      add\n        /* \"contracts/Marketplace2/Marketplace.sol\":18143:18154  nftContract */\n      dup6\n        /* \"contracts/Marketplace2/Marketplace.sol\":18111:18242  MarketItem(... */\n      0xffffffffffffffffffffffffffffffffffffffff\n      and\n      dup2\n      mstore\n      0x20\n      add\n        /* \"contracts/Marketplace2/Marketplace.sol\":18162:18169  tokenId */\n      dup5\n        /* \"contracts/Marketplace2/Marketplace.sol\":18111:18242  MarketItem(... */\n      dup2\n      mstore\n      0x20\n      add\n        /* \"contracts/Marketplace2/Marketplace.sol\":18185:18195  msg.sender */\n      caller\n        /* \"contracts/Marketplace2/Marketplace.sol\":18111:18242  MarketItem(... */\n      0xffffffffffffffffffffffffffffffffffffffff\n      and\n      dup2\n      mstore\n      0x20\n      add\n        /* \"contracts/Marketplace2/Marketplace.sol\":18220:18221  0 */\n      0x00\n        /* \"contracts/Marketplace2/Marketplace.sol\":18111:18242  MarketItem(... */\n      0xffffffffffffffffffffffffffffffffffffffff\n      and\n      dup2\n      mstore\n      0x20\n      add\n        /* \"contracts/Marketplace2/Marketplace.sol\":18231:18236  price */\n      dup4\n        /* \"contracts/Marketplace2/Marketplace.sol\":18111:18242  MarketItem(... */\n      dup2\n      mstore\n      pop\n        /* \"contracts/Marketplace2/Marketplace.sol\":18085:18099  idToMarketItem */\n      0x07\n        /* \"contracts/Marketplace2/Marketplace.sol\":18085:18107  idToMarketItem[itemId] */\n      0x00\n        /* \"contracts/Marketplace2/Marketplace.sol\":18100:18106  itemId */\n      dup4\n        /* \"contracts/Marketplace2/Marketplace.sol\":18085:18107  idToMarketItem[itemId] */\n      dup2\n      mstore\n      0x20\n      add\n      swap1\n      dup2\n      mstore\n      0x20\n      add\n      0x00\n      keccak256\n        /* \"contracts/Marketplace2/Marketplace.sol\":18085:18242  idToMarketItem[itemId] =  MarketItem(... */\n      0x00\n      dup3\n      add\n      mload\n      dup2\n      0x00\n      add\n      sstore\n      0x20\n      dup3\n      add\n      mload\n      dup2\n      0x01\n      add\n      exp(0x0100, 0x00)\n      dup2\n      sload\n      dup2\n      0xffffffffffffffffffffffffffffffffffffffff\n      mul\n      not\n      and\n      swap1\n      dup4\n      0xffffffffffffffffffffffffffffffffffffffff\n      and\n      mul\n      or\n      swap1\n      sstore\n      pop\n      0x40\n      dup3\n      add\n      mload\n      dup2\n      0x02\n      add\n      sstore\n      0x60\n      dup3\n      add\n      mload\n      dup2\n      0x03\n      add\n      exp(0x0100, 0x00)\n      dup2\n      sload\n      dup2\n      0xffffffffffffffffffffffffffffffffffffffff\n      mul\n      not\n      and\n      swap1\n      dup4\n      0xffffffffffffffffffffffffffffffffffffffff\n      and\n      mul\n      or\n      swap1\n      sstore\n      pop\n      0x80\n      dup3\n      add\n      mload\n      dup2\n      0x04\n      add\n      exp(0x0100, 0x00)\n      dup2\n      sload\n      dup2\n      0xffffffffffffffffffffffffffffffffffffffff\n      mul\n      not\n      and\n      swap1\n      dup4\n      0xffffffffffffffffffffffffffffffffffffffff\n      and\n      mul\n      or\n      swap1\n      sstore\n      pop\n      0xa0\n      dup3\n      add\n      mload\n      dup2\n      0x05\n      add\n      sstore\n      swap1\n      pop\n      pop\n        /* \"contracts/Marketplace2/Marketplace.sol\":18257:18268  nftContract */\n      dup4\n        /* \"contracts/Marketplace2/Marketplace.sol\":18249:18282  IERC721(nftContract).transferFrom */\n      0xffffffffffffffffffffffffffffffffffffffff\n      and\n      0x23b872dd\n        /* \"contracts/Marketplace2/Marketplace.sol\":18283:18293  msg.sender */\n      caller\n        /* \"contracts/Marketplace2/Marketplace.sol\":18303:18307  this */\n      address\n        /* \"contracts/Marketplace2/Marketplace.sol\":18310:18317  tokenId */\n      dup7\n        /* \"contracts/Marketplace2/Marketplace.sol\":18249:18318  IERC721(nftContract).transferFrom(msg.sender, address(this), tokenId) */\n      mload(0x40)\n      dup5\n      0xffffffff\n      and\n      0xe0\n      shl\n      dup2\n      mstore\n      0x04\n      add\n      tag_173\n      swap4\n      swap3\n      swap2\n      swap1\n      tag_174\n      jump\t// in\n    tag_173:\n      0x00\n      mload(0x40)\n      dup1\n      dup4\n      sub\n      dup2\n      0x00\n      dup8\n      dup1\n      extcodesize\n      iszero\n      dup1\n      iszero\n      tag_175\n      jumpi\n      0x00\n      dup1\n      revert\n    tag_175:\n      pop\n      gas\n      call\n      iszero\n      dup1\n      iszero\n      tag_177\n      jumpi\n      returndatasize\n      0x00\n      dup1\n      returndatacopy\n      revert(0x00, returndatasize)\n    tag_177:\n      pop\n      pop\n      pop\n      pop\n        /* \"contracts/Marketplace2/Marketplace.sol\":18388:18395  tokenId */\n      dup3\n        /* \"contracts/Marketplace2/Marketplace.sol\":18369:18380  nftContract */\n      dup5\n        /* \"contracts/Marketplace2/Marketplace.sol\":18330:18450  MarketItemCreated(... */\n      0xffffffffffffffffffffffffffffffffffffffff\n      and\n        /* \"contracts/Marketplace2/Marketplace.sol\":18355:18361  itemId */\n      dup3\n        /* \"contracts/Marketplace2/Marketplace.sol\":18330:18450  MarketItemCreated(... */\n      0x2ad024d53a0dc50c130967f8d4941927ee087ea31394cebb2b9599d3706c9c00\n        /* \"contracts/Marketplace2/Marketplace.sol\":18403:18413  msg.sender */\n      caller\n        /* \"contracts/Marketplace2/Marketplace.sol\":18429:18430  0 */\n      0x00\n        /* \"contracts/Marketplace2/Marketplace.sol\":18439:18444  price */\n      dup8\n        /* \"contracts/Marketplace2/Marketplace.sol\":18330:18450  MarketItemCreated(... */\n      mload(0x40)\n      tag_178\n      swap4\n      swap3\n      swap2\n      swap1\n      tag_174\n      jump\t// in\n    tag_178:\n      mload(0x40)\n      dup1\n      swap2\n      sub\n      swap1\n      log4\n        /* \"contracts/Marketplace2/Marketplace.sol\":17952:18455  {... */\n      pop\n        /* \"contracts/Marketplace2/Marketplace.sol\":14124:14125  1 */\n      0x01\n        /* \"contracts/Marketplace2/Marketplace.sol\":15051:15058  _status */\n      0x00\n        /* \"contracts/Marketplace2/Marketplace.sol\":15051:15073  _status = _NOT_ENTERED */\n      dup2\n      swap1\n      sstore\n      pop\n        /* \"contracts/Marketplace2/Marketplace.sol\":17829:18455  function createMarketItem(... */\n      pop\n      pop\n      pop\n      jump\t// out\n        /* \"contracts/Marketplace2/Marketplace.sol\":15909:15966  mapping(address => mapping(uint256 => Item)) public items */\n    tag_64:\n      mstore(0x20, 0x01)\n      dup2\n      0x00\n      mstore\n      mstore(0x20, keccak256(0x00, 0x40))\n      dup1\n      0x00\n      mstore\n      keccak256(0x00, 0x40)\n      0x00\n      swap2\n      pop\n      swap2\n      pop\n      pop\n      dup1\n      0x00\n      add\n      sload\n      swap1\n      dup1\n      0x01\n      add\n      0x00\n      swap1\n      sload\n      swap1\n      0x0100\n      exp\n      swap1\n      div\n      0xffffffffffffffffffffffffffffffffffffffff\n      and\n      swap1\n      dup1\n      0x02\n      add\n      0x00\n      swap1\n      sload\n      swap1\n      0x0100\n      exp\n      swap1\n      div\n      0xffffffffffffffffffffffffffffffffffffffff\n      and\n      swap1\n      dup1\n      0x03\n      add\n      sload\n      swap1\n      dup1\n      0x04\n      add\n      sload\n      swap1\n      dup1\n      0x05\n      add\n      0x00\n      swap1\n      sload\n      swap1\n      0x0100\n      exp\n      swap1\n      div\n      0xff\n      and\n      swap1\n      pop\n      dup7\n      jump\t// out\n        /* \"contracts/Marketplace2/Marketplace.sol\":18459:19572  function sellItem(... */\n    tag_70:\n        /* \"contracts/Marketplace2/Marketplace.sol\":18592:18593  0 */\n      0x00\n        /* \"contracts/Marketplace2/Marketplace.sol\":18584:18589  price */\n      dup2\n        /* \"contracts/Marketplace2/Marketplace.sol\":18584:18593  price > 0 */\n      gt\n        /* \"contracts/Marketplace2/Marketplace.sol\":18576:18627  require(price > 0, \"Price should be bigger than 0\") */\n      tag_180\n      jumpi\n      mload(0x40)\n      0x08c379a000000000000000000000000000000000000000000000000000000000\n      dup2\n      mstore\n      0x04\n      add\n      tag_181\n      swap1\n      tag_182\n      jump\t// in\n    tag_181:\n      mload(0x40)\n      dup1\n      swap2\n      sub\n      swap1\n      revert\n    tag_180:\n        /* \"contracts/Marketplace2/Marketplace.sol\":18637:18663  _requireERC721(nftAddress) */\n      tag_183\n        /* \"contracts/Marketplace2/Marketplace.sol\":18652:18662  nftAddress */\n      dup4\n        /* \"contracts/Marketplace2/Marketplace.sol\":18637:18651  _requireERC721 */\n      tag_184\n        /* \"contracts/Marketplace2/Marketplace.sol\":18637:18663  _requireERC721(nftAddress) */\n      jump\t// in\n    tag_183:\n        /* \"contracts/Marketplace2/Marketplace.sol\":18674:18688  address seller */\n      0x00\n        /* \"contracts/Marketplace2/Marketplace.sol\":18691:18701  msg.sender */\n      caller\n        /* \"contracts/Marketplace2/Marketplace.sol\":18674:18701  address seller = msg.sender */\n      swap1\n      pop\n        /* \"contracts/Marketplace2/Marketplace.sol\":18711:18730  IERC721 nftRegistry */\n      0x00\n        /* \"contracts/Marketplace2/Marketplace.sol\":18741:18751  nftAddress */\n      dup5\n        /* \"contracts/Marketplace2/Marketplace.sol\":18711:18752  IERC721 nftRegistry = IERC721(nftAddress) */\n      swap1\n      pop\n        /* \"contracts/Marketplace2/Marketplace.sol\":18816:18822  seller */\n      dup2\n        /* \"contracts/Marketplace2/Marketplace.sol\":18784:18822  nftRegistry.ownerOf(assetId) == seller */\n      0xffffffffffffffffffffffffffffffffffffffff\n      and\n        /* \"contracts/Marketplace2/Marketplace.sol\":18784:18795  nftRegistry */\n      dup2\n        /* \"contracts/Marketplace2/Marketplace.sol\":18784:18803  nftRegistry.ownerOf */\n      0xffffffffffffffffffffffffffffffffffffffff\n      and\n      0x6352211e\n        /* \"contracts/Marketplace2/Marketplace.sol\":18804:18811  assetId */\n      dup7\n        /* \"contracts/Marketplace2/Marketplace.sol\":18784:18812  nftRegistry.ownerOf(assetId) */\n      mload(0x40)\n      dup3\n      0xffffffff\n      and\n      0xe0\n      shl\n      dup2\n      mstore\n      0x04\n      add\n      tag_185\n      swap2\n      swap1\n      tag_186\n      jump\t// in\n    tag_185:\n      0x20\n      mload(0x40)\n      dup1\n      dup4\n      sub\n      dup2\n      dup7\n      gas\n      staticcall\n      iszero\n      dup1\n      iszero\n      tag_188\n      jumpi\n      returndatasize\n      0x00\n      dup1\n      returndatacopy\n      revert(0x00, returndatasize)\n    tag_188:\n      pop\n      pop\n      pop\n      pop\n      mload(0x40)\n      returndatasize\n      not(0x1f)\n      0x1f\n      dup3\n      add\n      and\n      dup3\n      add\n      dup1\n      0x40\n      mstore\n      pop\n      dup2\n      add\n      swap1\n      tag_189\n      swap2\n      swap1\n      tag_190\n      jump\t// in\n    tag_189:\n        /* \"contracts/Marketplace2/Marketplace.sol\":18784:18822  nftRegistry.ownerOf(assetId) == seller */\n      0xffffffffffffffffffffffffffffffffffffffff\n      and\n      eq\n        /* \"contracts/Marketplace2/Marketplace.sol\":18763:18881  require(... */\n      tag_191\n      jumpi\n      mload(0x40)\n      0x08c379a000000000000000000000000000000000000000000000000000000000\n      dup2\n      mstore\n      0x04\n      add\n      tag_192\n      swap1\n      tag_193\n      jump\t// in\n    tag_192:\n      mload(0x40)\n      dup1\n      swap2\n      sub\n      swap1\n      revert\n    tag_191:\n        /* \"contracts/Marketplace2/Marketplace.sol\":18891:18902  nftRegistry */\n      dup1\n        /* \"contracts/Marketplace2/Marketplace.sol\":18891:18915  nftRegistry.transferFrom */\n      0xffffffffffffffffffffffffffffffffffffffff\n      and\n      0x23b872dd\n        /* \"contracts/Marketplace2/Marketplace.sol\":18916:18922  seller */\n      dup4\n        /* \"contracts/Marketplace2/Marketplace.sol\":18932:18936  this */\n      address\n        /* \"contracts/Marketplace2/Marketplace.sol\":18939:18946  assetId */\n      dup8\n        /* \"contracts/Marketplace2/Marketplace.sol\":18891:18947  nftRegistry.transferFrom(seller, address(this), assetId) */\n      mload(0x40)\n      dup5\n      0xffffffff\n      and\n      0xe0\n      shl\n      dup2\n      mstore\n      0x04\n      add\n      tag_194\n      swap4\n      swap3\n      swap2\n      swap1\n      tag_174\n      jump\t// in\n    tag_194:\n      0x00\n      mload(0x40)\n      dup1\n      dup4\n      sub\n      dup2\n      0x00\n      dup8\n      dup1\n      extcodesize\n      iszero\n      dup1\n      iszero\n      tag_195\n      jumpi\n      0x00\n      dup1\n      revert\n    tag_195:\n      pop\n      gas\n      call\n      iszero\n      dup1\n      iszero\n      tag_197\n      jumpi\n      returndatasize\n      0x00\n      dup1\n      returndatacopy\n      revert(0x00, returndatasize)\n    tag_197:\n      pop\n      pop\n      pop\n      pop\n        /* \"contracts/Marketplace2/Marketplace.sol\":18957:18973  Item memory item */\n      0x00\n        /* \"contracts/Marketplace2/Marketplace.sol\":18976:18981  items */\n      0x01\n        /* \"contracts/Marketplace2/Marketplace.sol\":18976:18993  items[nftAddress] */\n      0x00\n        /* \"contracts/Marketplace2/Marketplace.sol\":18982:18992  nftAddress */\n      dup8\n        /* \"contracts/Marketplace2/Marketplace.sol\":18976:18993  items[nftAddress] */\n      0xffffffffffffffffffffffffffffffffffffffff\n      and\n      0xffffffffffffffffffffffffffffffffffffffff\n      and\n      dup2\n      mstore\n      0x20\n      add\n      swap1\n      dup2\n      mstore\n      0x20\n      add\n      0x00\n      keccak256\n        /* \"contracts/Marketplace2/Marketplace.sol\":18976:19002  items[nftAddress][assetId] */\n      0x00\n        /* \"contracts/Marketplace2/Marketplace.sol\":18994:19001  assetId */\n      dup7\n        /* \"contracts/Marketplace2/Marketplace.sol\":18976:19002  items[nftAddress][assetId] */\n      dup2\n      mstore\n      0x20\n      add\n      swap1\n      dup2\n      mstore\n      0x20\n      add\n      0x00\n      keccak256\n        /* \"contracts/Marketplace2/Marketplace.sol\":18957:19002  Item memory item = items[nftAddress][assetId] */\n      mload(0x40)\n      dup1\n      0xc0\n      add\n      0x40\n      mstore\n      swap1\n      dup2\n      0x00\n      dup3\n      add\n      sload\n      dup2\n      mstore\n      0x20\n      add\n      0x01\n      dup3\n      add\n      0x00\n      swap1\n      sload\n      swap1\n      0x0100\n      exp\n      swap1\n      div\n      0xffffffffffffffffffffffffffffffffffffffff\n      and\n      0xffffffffffffffffffffffffffffffffffffffff\n      and\n      0xffffffffffffffffffffffffffffffffffffffff\n      and\n      dup2\n      mstore\n      0x20\n      add\n      0x02\n      dup3\n      add\n      0x00\n      swap1\n      sload\n      swap1\n      0x0100\n      exp\n      swap1\n      div\n      0xffffffffffffffffffffffffffffffffffffffff\n      and\n      0xffffffffffffffffffffffffffffffffffffffff\n      and\n      0xffffffffffffffffffffffffffffffffffffffff\n      and\n      dup2\n      mstore\n      0x20\n      add\n      0x03\n      dup3\n      add\n      sload\n      dup2\n      mstore\n      0x20\n      add\n      0x04\n      dup3\n      add\n      sload\n      dup2\n      mstore\n      0x20\n      add\n      0x05\n      dup3\n      add\n      0x00\n      swap1\n      sload\n      swap1\n      0x0100\n      exp\n      swap1\n      div\n      0xff\n      and\n      0x04\n      dup2\n      gt\n      iszero\n      tag_198\n      jumpi\n      tag_199\n      tag_200\n      jump\t// in\n    tag_199:\n    tag_198:\n      0x04\n      dup2\n      gt\n      iszero\n      tag_201\n      jumpi\n      tag_202\n      tag_200\n      jump\t// in\n    tag_202:\n    tag_201:\n      dup2\n      mstore\n      pop\n      pop\n      swap1\n      pop\n        /* \"contracts/Marketplace2/Marketplace.sol\":19027:19028  0 */\n      0x00\n        /* \"contracts/Marketplace2/Marketplace.sol\":19016:19028  item.id == 0 */\n      dup1\n      shl\n        /* \"contracts/Marketplace2/Marketplace.sol\":19016:19020  item */\n      dup2\n        /* \"contracts/Marketplace2/Marketplace.sol\":19016:19023  item.id */\n      0x00\n      add\n      mload\n        /* \"contracts/Marketplace2/Marketplace.sol\":19016:19028  item.id == 0 */\n      sub\n        /* \"contracts/Marketplace2/Marketplace.sol\":19012:19370  if (item.id == 0) {... */\n      tag_203\n      jumpi\n        /* \"contracts/Marketplace2/Marketplace.sol\":19044:19094  _createItem(seller, assetId, nftAddress, price, 0) */\n      tag_204\n        /* \"contracts/Marketplace2/Marketplace.sol\":19056:19062  seller */\n      dup4\n        /* \"contracts/Marketplace2/Marketplace.sol\":19064:19071  assetId */\n      dup7\n        /* \"contracts/Marketplace2/Marketplace.sol\":19073:19083  nftAddress */\n      dup9\n        /* \"contracts/Marketplace2/Marketplace.sol\":19085:19090  price */\n      dup8\n        /* \"contracts/Marketplace2/Marketplace.sol\":19092:19093  0 */\n      0x00\n        /* \"contracts/Marketplace2/Marketplace.sol\":19044:19055  _createItem */\n      tag_205\n        /* \"contracts/Marketplace2/Marketplace.sol\":19044:19094  _createItem(seller, assetId, nftAddress, price, 0) */\n      jump\t// in\n    tag_204:\n        /* \"contracts/Marketplace2/Marketplace.sol\":19012:19370  if (item.id == 0) {... */\n      jump(tag_206)\n    tag_203:\n        /* \"contracts/Marketplace2/Marketplace.sol\":19148:19163  ItemStatus.LIST */\n      0x01\n        /* \"contracts/Marketplace2/Marketplace.sol\":19133:19163  item.status != ItemStatus.LIST */\n      0x04\n      dup2\n      gt\n      iszero\n      tag_207\n      jumpi\n      tag_208\n      tag_200\n      jump\t// in\n    tag_208:\n    tag_207:\n        /* \"contracts/Marketplace2/Marketplace.sol\":19133:19137  item */\n      dup2\n        /* \"contracts/Marketplace2/Marketplace.sol\":19133:19144  item.status */\n      0xa0\n      add\n      mload\n        /* \"contracts/Marketplace2/Marketplace.sol\":19133:19163  item.status != ItemStatus.LIST */\n      0x04\n      dup2\n      gt\n      iszero\n      tag_209\n      jumpi\n      tag_210\n      tag_200\n      jump\t// in\n    tag_210:\n    tag_209:\n      sub\n        /* \"contracts/Marketplace2/Marketplace.sol\":19125:19184  require(item.status != ItemStatus.LIST, \"Asset is listing\") */\n      tag_211\n      jumpi\n      mload(0x40)\n      0x08c379a000000000000000000000000000000000000000000000000000000000\n      dup2\n      mstore\n      0x04\n      add\n      tag_212\n      swap1\n      tag_213\n      jump\t// in\n    tag_212:\n      mload(0x40)\n      dup1\n      swap2\n      sub\n      swap1\n      revert\n    tag_211:\n        /* \"contracts/Marketplace2/Marketplace.sol\":19234:19249  ItemStatus.LIST */\n      0x01\n        /* \"contracts/Marketplace2/Marketplace.sol\":19198:19203  items */\n      dup1\n        /* \"contracts/Marketplace2/Marketplace.sol\":19198:19215  items[nftAddress] */\n      0x00\n        /* \"contracts/Marketplace2/Marketplace.sol\":19204:19214  nftAddress */\n      dup9\n        /* \"contracts/Marketplace2/Marketplace.sol\":19198:19215  items[nftAddress] */\n      0xffffffffffffffffffffffffffffffffffffffff\n      and\n      0xffffffffffffffffffffffffffffffffffffffff\n      and\n      dup2\n      mstore\n      0x20\n      add\n      swap1\n      dup2\n      mstore\n      0x20\n      add\n      0x00\n      keccak256\n        /* \"contracts/Marketplace2/Marketplace.sol\":19198:19224  items[nftAddress][assetId] */\n      0x00\n        /* \"contracts/Marketplace2/Marketplace.sol\":19216:19223  assetId */\n      dup8\n        /* \"contracts/Marketplace2/Marketplace.sol\":19198:19224  items[nftAddress][assetId] */\n      dup2\n      mstore\n      0x20\n      add\n      swap1\n      dup2\n      mstore\n      0x20\n      add\n      0x00\n      keccak256\n        /* \"contracts/Marketplace2/Marketplace.sol\":19198:19231  items[nftAddress][assetId].status */\n      0x05\n      add\n      0x00\n        /* \"contracts/Marketplace2/Marketplace.sol\":19198:19249  items[nftAddress][assetId].status = ItemStatus.LIST */\n      0x0100\n      exp\n      dup2\n      sload\n      dup2\n      0xff\n      mul\n      not\n      and\n      swap1\n      dup4\n      0x04\n      dup2\n      gt\n      iszero\n      tag_214\n      jumpi\n      tag_215\n      tag_200\n      jump\t// in\n    tag_215:\n    tag_214:\n      mul\n      or\n      swap1\n      sstore\n      pop\n        /* \"contracts/Marketplace2/Marketplace.sol\":19298:19303  price */\n      dup4\n        /* \"contracts/Marketplace2/Marketplace.sol\":19263:19268  items */\n      0x01\n        /* \"contracts/Marketplace2/Marketplace.sol\":19263:19280  items[nftAddress] */\n      0x00\n        /* \"contracts/Marketplace2/Marketplace.sol\":19269:19279  nftAddress */\n      dup9\n        /* \"contracts/Marketplace2/Marketplace.sol\":19263:19280  items[nftAddress] */\n      0xffffffffffffffffffffffffffffffffffffffff\n      and\n      0xffffffffffffffffffffffffffffffffffffffff\n      and\n      dup2\n      mstore\n      0x20\n      add\n      swap1\n      dup2\n      mstore\n      0x20\n      add\n      0x00\n      keccak256\n        /* \"contracts/Marketplace2/Marketplace.sol\":19263:19289  items[nftAddress][assetId] */\n      0x00\n        /* \"contracts/Marketplace2/Marketplace.sol\":19281:19288  assetId */\n      dup8\n        /* \"contracts/Marketplace2/Marketplace.sol\":19263:19289  items[nftAddress][assetId] */\n      dup2\n      mstore\n      0x20\n      add\n      swap1\n      dup2\n      mstore\n      0x20\n      add\n      0x00\n      keccak256\n        /* \"contracts/Marketplace2/Marketplace.sol\":19263:19295  items[nftAddress][assetId].price */\n      0x03\n      add\n        /* \"contracts/Marketplace2/Marketplace.sol\":19263:19303  items[nftAddress][assetId].price = price */\n      dup2\n      swap1\n      sstore\n      pop\n        /* \"contracts/Marketplace2/Marketplace.sol\":19353:19359  seller */\n      dup3\n        /* \"contracts/Marketplace2/Marketplace.sol\":19317:19322  items */\n      0x01\n        /* \"contracts/Marketplace2/Marketplace.sol\":19317:19334  items[nftAddress] */\n      0x00\n        /* \"contracts/Marketplace2/Marketplace.sol\":19323:19333  nftAddress */\n      dup9\n        /* \"contracts/Marketplace2/Marketplace.sol\":19317:19334  items[nftAddress] */\n      0xffffffffffffffffffffffffffffffffffffffff\n      and\n      0xffffffffffffffffffffffffffffffffffffffff\n      and\n      dup2\n      mstore\n      0x20\n      add\n      swap1\n      dup2\n      mstore\n      0x20\n      add\n      0x00\n      keccak256\n        /* \"contracts/Marketplace2/Marketplace.sol\":19317:19343  items[nftAddress][assetId] */\n      0x00\n        /* \"contracts/Marketplace2/Marketplace.sol\":19335:19342  assetId */\n      dup8\n        /* \"contracts/Marketplace2/Marketplace.sol\":19317:19343  items[nftAddress][assetId] */\n      dup2\n      mstore\n      0x20\n      add\n      swap1\n      dup2\n      mstore\n      0x20\n      add\n      0x00\n      keccak256\n        /* \"contracts/Marketplace2/Marketplace.sol\":19317:19350  items[nftAddress][assetId].seller */\n      0x01\n      add\n      0x00\n        /* \"contracts/Marketplace2/Marketplace.sol\":19317:19359  items[nftAddress][assetId].seller = seller */\n      0x0100\n      exp\n      dup2\n      sload\n      dup2\n      0xffffffffffffffffffffffffffffffffffffffff\n      mul\n      not\n      and\n      swap1\n      dup4\n      0xffffffffffffffffffffffffffffffffffffffff\n      and\n      mul\n      or\n      swap1\n      sstore\n      pop\n        /* \"contracts/Marketplace2/Marketplace.sol\":19012:19370  if (item.id == 0) {... */\n    tag_206:\n        /* \"contracts/Marketplace2/Marketplace.sol\":19501:19507  seller */\n      dup3\n        /* \"contracts/Marketplace2/Marketplace.sol\":19384:19565  SellItemSuccessful(... */\n      0xffffffffffffffffffffffffffffffffffffffff\n      and\n        /* \"contracts/Marketplace2/Marketplace.sol\":19461:19468  assetId */\n      dup6\n        /* \"contracts/Marketplace2/Marketplace.sol\":19384:19565  SellItemSuccessful(... */\n      0xff2412bd5c66e6ad5153e35ee902ee32bb4393211a4d0662428b9b481929a7b9\n        /* \"contracts/Marketplace2/Marketplace.sol\":19416:19426  nftAddress */\n      dup9\n        /* \"contracts/Marketplace2/Marketplace.sol\":19440:19444  item */\n      dup5\n        /* \"contracts/Marketplace2/Marketplace.sol\":19440:19447  item.id */\n      0x00\n      add\n      mload\n        /* \"contracts/Marketplace2/Marketplace.sol\":19482:19487  price */\n      dup9\n        /* \"contracts/Marketplace2/Marketplace.sol\":19540:19555  block.timestamp */\n      timestamp\n        /* \"contracts/Marketplace2/Marketplace.sol\":19384:19565  SellItemSuccessful(... */\n      mload(0x40)\n      tag_216\n      swap5\n      swap4\n      swap3\n      swap2\n      swap1\n      tag_217\n      jump\t// in\n    tag_216:\n      mload(0x40)\n      dup1\n      swap2\n      sub\n      swap1\n      log3\n        /* \"contracts/Marketplace2/Marketplace.sol\":18566:19572  {... */\n      pop\n      pop\n      pop\n        /* \"contracts/Marketplace2/Marketplace.sol\":18459:19572  function sellItem(... */\n      pop\n      pop\n      pop\n      jump\t// out\n        /* \"contracts/Marketplace2/Marketplace.sol\":2310:2411  function renounceOwnership() public virtual onlyOwner {... */\n    tag_73:\n        /* \"contracts/Marketplace2/Marketplace.sol\":1901:1913  _msgSender() */\n      tag_219\n        /* \"contracts/Marketplace2/Marketplace.sol\":1901:1911  _msgSender */\n      tag_220\n        /* \"contracts/Marketplace2/Marketplace.sol\":1901:1913  _msgSender() */\n      jump\t// in\n    tag_219:\n        /* \"contracts/Marketplace2/Marketplace.sol\":1890:1913  owner() == _msgSender() */\n      0xffffffffffffffffffffffffffffffffffffffff\n      and\n        /* \"contracts/Marketplace2/Marketplace.sol\":1890:1897  owner() */\n      tag_221\n        /* \"contracts/Marketplace2/Marketplace.sol\":1890:1895  owner */\n      tag_81\n        /* \"contracts/Marketplace2/Marketplace.sol\":1890:1897  owner() */\n      jump\t// in\n    tag_221:\n        /* \"contracts/Marketplace2/Marketplace.sol\":1890:1913  owner() == _msgSender() */\n      0xffffffffffffffffffffffffffffffffffffffff\n      and\n      eq\n        /* \"contracts/Marketplace2/Marketplace.sol\":1882:1950  require(owner() == _msgSender(), \"Ownable: caller is not the owner\") */\n      tag_222\n      jumpi\n      mload(0x40)\n      0x08c379a000000000000000000000000000000000000000000000000000000000\n      dup2\n      mstore\n      0x04\n      add\n      tag_223\n      swap1\n      tag_224\n      jump\t// in\n    tag_223:\n      mload(0x40)\n      dup1\n      swap2\n      sub\n      swap1\n      revert\n    tag_222:\n        /* \"contracts/Marketplace2/Marketplace.sol\":2374:2404  _transferOwnership(address(0)) */\n      tag_226\n        /* \"contracts/Marketplace2/Marketplace.sol\":2401:2402  0 */\n      0x00\n        /* \"contracts/Marketplace2/Marketplace.sol\":2374:2392  _transferOwnership */\n      tag_227\n        /* \"contracts/Marketplace2/Marketplace.sol\":2374:2404  _transferOwnership(address(0)) */\n      jump\t// in\n    tag_226:\n        /* \"contracts/Marketplace2/Marketplace.sol\":2310:2411  function renounceOwnership() public virtual onlyOwner {... */\n      jump\t// out\n        /* \"contracts/Marketplace2/Marketplace.sol\":16175:16201  uint8 public bnbFeePercent */\n    tag_76:\n      0x03\n      0x14\n      swap1\n      sload\n      swap1\n      0x0100\n      exp\n      swap1\n      div\n      0xff\n      and\n      dup2\n      jump\t// out\n        /* \"contracts/Marketplace2/Marketplace.sol\":1678:1763  function owner() public view virtual returns (address) {... */\n    tag_81:\n        /* \"contracts/Marketplace2/Marketplace.sol\":1724:1731  address */\n      0x00\n        /* \"contracts/Marketplace2/Marketplace.sol\":1750:1756  _owner */\n      0x04\n      0x00\n      swap1\n      sload\n      swap1\n      0x0100\n      exp\n      swap1\n      div\n      0xffffffffffffffffffffffffffffffffffffffff\n      and\n        /* \"contracts/Marketplace2/Marketplace.sol\":1743:1756  return _owner */\n      swap1\n      pop\n        /* \"contracts/Marketplace2/Marketplace.sol\":1678:1763  function owner() public view virtual returns (address) {... */\n      swap1\n      jump\t// out\n        /* \"contracts/Marketplace2/Marketplace.sol\":17727:17825  function setSQFToken(address _address) external onlyOwner {... */\n    tag_88:\n        /* \"contracts/Marketplace2/Marketplace.sol\":1901:1913  _msgSender() */\n      tag_230\n        /* \"contracts/Marketplace2/Marketplace.sol\":1901:1911  _msgSender */\n      tag_220\n        /* \"contracts/Marketplace2/Marketplace.sol\":1901:1913  _msgSender() */\n      jump\t// in\n    tag_230:\n        /* \"contracts/Marketplace2/Marketplace.sol\":1890:1913  owner() == _msgSender() */\n      0xffffffffffffffffffffffffffffffffffffffff\n      and\n        /* \"contracts/Marketplace2/Marketplace.sol\":1890:1897  owner() */\n      tag_231\n        /* \"contracts/Marketplace2/Marketplace.sol\":1890:1895  owner */\n      tag_81\n        /* \"contracts/Marketplace2/Marketplace.sol\":1890:1897  owner() */\n      jump\t// in\n    tag_231:\n        /* \"contracts/Marketplace2/Marketplace.sol\":1890:1913  owner() == _msgSender() */\n      0xffffffffffffffffffffffffffffffffffffffff\n      and\n      eq\n        /* \"contracts/Marketplace2/Marketplace.sol\":1882:1950  require(owner() == _msgSender(), \"Ownable: caller is not the owner\") */\n      tag_232\n      jumpi\n      mload(0x40)\n      0x08c379a000000000000000000000000000000000000000000000000000000000\n      dup2\n      mstore\n      0x04\n      add\n      tag_233\n      swap1\n      tag_224\n      jump\t// in\n    tag_233:\n      mload(0x40)\n      dup1\n      swap2\n      sub\n      swap1\n      revert\n    tag_232:\n        /* \"contracts/Marketplace2/Marketplace.sol\":17813:17821  _address */\n      dup1\n        /* \"contracts/Marketplace2/Marketplace.sol\":17795:17803  sqfToken */\n      0x03\n      0x00\n        /* \"contracts/Marketplace2/Marketplace.sol\":17795:17822  sqfToken = IERC20(_address) */\n      0x0100\n      exp\n      dup2\n      sload\n      dup2\n      0xffffffffffffffffffffffffffffffffffffffff\n      mul\n      not\n      and\n      swap1\n      dup4\n      0xffffffffffffffffffffffffffffffffffffffff\n      and\n      mul\n      or\n      swap1\n      sstore\n      pop\n        /* \"contracts/Marketplace2/Marketplace.sol\":17727:17825  function setSQFToken(address _address) external onlyOwner {... */\n      pop\n      jump\t// out\n        /* \"contracts/Marketplace2/Marketplace.sol\":16207:16234  uint8 public antaFeePercent */\n    tag_91:\n      0x03\n      0x15\n      swap1\n      sload\n      swap1\n      0x0100\n      exp\n      swap1\n      div\n      0xff\n      and\n      dup2\n      jump\t// out\n        /* \"contracts/Marketplace2/Marketplace.sol\":19576:20100  function createMarketSale(... */\n    tag_95:\n        /* \"contracts/Marketplace2/Marketplace.sol\":14167:14168  2 */\n      0x02\n        /* \"contracts/Marketplace2/Marketplace.sol\":14748:14755  _status */\n      sload(0x00)\n        /* \"contracts/Marketplace2/Marketplace.sol\":14748:14767  _status != _ENTERED */\n      sub\n        /* \"contracts/Marketplace2/Marketplace.sol\":14740:14803  require(_status != _ENTERED, \"ReentrancyGuard: reentrant call\") */\n      tag_236\n      jumpi\n      mload(0x40)\n      0x08c379a000000000000000000000000000000000000000000000000000000000\n      dup2\n      mstore\n      0x04\n      add\n      tag_237\n      swap1\n      tag_165\n      jump\t// in\n    tag_237:\n      mload(0x40)\n      dup1\n      swap2\n      sub\n      swap1\n      revert\n    tag_236:\n        /* \"contracts/Marketplace2/Marketplace.sol\":14167:14168  2 */\n      0x02\n        /* \"contracts/Marketplace2/Marketplace.sol\":14878:14885  _status */\n      0x00\n        /* \"contracts/Marketplace2/Marketplace.sol\":14878:14896  _status = _ENTERED */\n      dup2\n      swap1\n      sstore\n      pop\n        /* \"contracts/Marketplace2/Marketplace.sol\":19687:19697  uint price */\n      0x00\n        /* \"contracts/Marketplace2/Marketplace.sol\":19700:19714  idToMarketItem */\n      0x07\n        /* \"contracts/Marketplace2/Marketplace.sol\":19700:19722  idToMarketItem[itemId] */\n      0x00\n        /* \"contracts/Marketplace2/Marketplace.sol\":19715:19721  itemId */\n      dup4\n        /* \"contracts/Marketplace2/Marketplace.sol\":19700:19722  idToMarketItem[itemId] */\n      dup2\n      mstore\n      0x20\n      add\n      swap1\n      dup2\n      mstore\n      0x20\n      add\n      0x00\n      keccak256\n        /* \"contracts/Marketplace2/Marketplace.sol\":19700:19728  idToMarketItem[itemId].price */\n      0x05\n      add\n      sload\n        /* \"contracts/Marketplace2/Marketplace.sol\":19687:19728  uint price = idToMarketItem[itemId].price */\n      swap1\n      pop\n        /* \"contracts/Marketplace2/Marketplace.sol\":19734:19746  uint tokenId */\n      0x00\n        /* \"contracts/Marketplace2/Marketplace.sol\":19749:19763  idToMarketItem */\n      0x07\n        /* \"contracts/Marketplace2/Marketplace.sol\":19749:19771  idToMarketItem[itemId] */\n      0x00\n        /* \"contracts/Marketplace2/Marketplace.sol\":19764:19770  itemId */\n      dup5\n        /* \"contracts/Marketplace2/Marketplace.sol\":19749:19771  idToMarketItem[itemId] */\n      dup2\n      mstore\n      0x20\n      add\n      swap1\n      dup2\n      mstore\n      0x20\n      add\n      0x00\n      keccak256\n        /* \"contracts/Marketplace2/Marketplace.sol\":19749:19779  idToMarketItem[itemId].tokenId */\n      0x02\n      add\n      sload\n        /* \"contracts/Marketplace2/Marketplace.sol\":19734:19779  uint tokenId = idToMarketItem[itemId].tokenId */\n      swap1\n      pop\n        /* \"contracts/Marketplace2/Marketplace.sol\":19806:19811  price */\n      dup2\n        /* \"contracts/Marketplace2/Marketplace.sol\":19793:19802  msg.value */\n      callvalue\n        /* \"contracts/Marketplace2/Marketplace.sol\":19793:19811  msg.value == price */\n      eq\n        /* \"contracts/Marketplace2/Marketplace.sol\":19785:19880  require(msg.value == price, \"Please submit the asking price in order to complete the purchase\") */\n      tag_239\n      jumpi\n      mload(0x40)\n      0x08c379a000000000000000000000000000000000000000000000000000000000\n      dup2\n      mstore\n      0x04\n      add\n      tag_240\n      swap1\n      tag_241\n      jump\t// in\n    tag_240:\n      mload(0x40)\n      dup1\n      swap2\n      sub\n      swap1\n      revert\n    tag_239:\n        /* \"contracts/Marketplace2/Marketplace.sol\":19887:19901  idToMarketItem */\n      0x07\n        /* \"contracts/Marketplace2/Marketplace.sol\":19887:19909  idToMarketItem[itemId] */\n      0x00\n        /* \"contracts/Marketplace2/Marketplace.sol\":19902:19908  itemId */\n      dup5\n        /* \"contracts/Marketplace2/Marketplace.sol\":19887:19909  idToMarketItem[itemId] */\n      dup2\n      mstore\n      0x20\n      add\n      swap1\n      dup2\n      mstore\n      0x20\n      add\n      0x00\n      keccak256\n        /* \"contracts/Marketplace2/Marketplace.sol\":19887:19916  idToMarketItem[itemId].seller */\n      0x03\n      add\n      0x00\n      swap1\n      sload\n      swap1\n      0x0100\n      exp\n      swap1\n      div\n      0xffffffffffffffffffffffffffffffffffffffff\n      and\n        /* \"contracts/Marketplace2/Marketplace.sol\":19887:19925  idToMarketItem[itemId].seller.transfer */\n      0xffffffffffffffffffffffffffffffffffffffff\n      and\n        /* \"contracts/Marketplace2/Marketplace.sol\":19887:19936  idToMarketItem[itemId].seller.transfer(msg.value) */\n      0x08fc\n        /* \"contracts/Marketplace2/Marketplace.sol\":19926:19935  msg.value */\n      callvalue\n        /* \"contracts/Marketplace2/Marketplace.sol\":19887:19936  idToMarketItem[itemId].seller.transfer(msg.value) */\n      swap1\n      dup2\n      iszero\n      mul\n      swap1\n      mload(0x40)\n      0x00\n      mload(0x40)\n      dup1\n      dup4\n      sub\n      dup2\n      dup6\n      dup9\n      dup9\n      call\n      swap4\n      pop\n      pop\n      pop\n      pop\n      iszero\n      dup1\n      iszero\n      tag_243\n      jumpi\n      returndatasize\n      0x00\n      dup1\n      returndatacopy\n      revert(0x00, returndatasize)\n    tag_243:\n      pop\n        /* \"contracts/Marketplace2/Marketplace.sol\":19950:19961  nftContract */\n      dup4\n        /* \"contracts/Marketplace2/Marketplace.sol\":19942:19975  IERC721(nftContract).transferFrom */\n      0xffffffffffffffffffffffffffffffffffffffff\n      and\n      0x23b872dd\n        /* \"contracts/Marketplace2/Marketplace.sol\":19984:19988  this */\n      address\n        /* \"contracts/Marketplace2/Marketplace.sol\":19991:20001  msg.sender */\n      caller\n        /* \"contracts/Marketplace2/Marketplace.sol\":20003:20010  tokenId */\n      dup5\n        /* \"contracts/Marketplace2/Marketplace.sol\":19942:20011  IERC721(nftContract).transferFrom(address(this), msg.sender, tokenId) */\n      mload(0x40)\n      dup5\n      0xffffffff\n      and\n      0xe0\n      shl\n      dup2\n      mstore\n      0x04\n      add\n      tag_244\n      swap4\n      swap3\n      swap2\n      swap1\n      tag_174\n      jump\t// in\n    tag_244:\n      0x00\n      mload(0x40)\n      dup1\n      dup4\n      sub\n      dup2\n      0x00\n      dup8\n      dup1\n      extcodesize\n      iszero\n      dup1\n      iszero\n      tag_245\n      jumpi\n      0x00\n      dup1\n      revert\n    tag_245:\n      pop\n      gas\n      call\n      iszero\n      dup1\n      iszero\n      tag_247\n      jumpi\n      returndatasize\n      0x00\n      dup1\n      returndatacopy\n      revert(0x00, returndatasize)\n    tag_247:\n      pop\n      pop\n      pop\n      pop\n        /* \"contracts/Marketplace2/Marketplace.sol\":20056:20066  msg.sender */\n      caller\n        /* \"contracts/Marketplace2/Marketplace.sol\":20017:20031  idToMarketItem */\n      0x07\n        /* \"contracts/Marketplace2/Marketplace.sol\":20017:20039  idToMarketItem[itemId] */\n      0x00\n        /* \"contracts/Marketplace2/Marketplace.sol\":20032:20038  itemId */\n      dup6\n        /* \"contracts/Marketplace2/Marketplace.sol\":20017:20039  idToMarketItem[itemId] */\n      dup2\n      mstore\n      0x20\n      add\n      swap1\n      dup2\n      mstore\n      0x20\n      add\n      0x00\n      keccak256\n        /* \"contracts/Marketplace2/Marketplace.sol\":20017:20045  idToMarketItem[itemId].owner */\n      0x04\n      add\n      0x00\n        /* \"contracts/Marketplace2/Marketplace.sol\":20017:20067  idToMarketItem[itemId].owner = payable(msg.sender) */\n      0x0100\n      exp\n      dup2\n      sload\n      dup2\n      0xffffffffffffffffffffffffffffffffffffffff\n      mul\n      not\n      and\n      swap1\n      dup4\n      0xffffffffffffffffffffffffffffffffffffffff\n      and\n      mul\n      or\n      swap1\n      sstore\n      pop\n        /* \"contracts/Marketplace2/Marketplace.sol\":20073:20095  _itemsSold.increment() */\n      tag_248\n        /* \"contracts/Marketplace2/Marketplace.sol\":20073:20083  _itemsSold */\n      0x06\n        /* \"contracts/Marketplace2/Marketplace.sol\":20073:20093  _itemsSold.increment */\n      tag_171\n        /* \"contracts/Marketplace2/Marketplace.sol\":20073:20095  _itemsSold.increment() */\n      jump\t// in\n    tag_248:\n        /* \"contracts/Marketplace2/Marketplace.sol\":19681:20100  {... */\n      pop\n      pop\n        /* \"contracts/Marketplace2/Marketplace.sol\":14124:14125  1 */\n      0x01\n        /* \"contracts/Marketplace2/Marketplace.sol\":15051:15058  _status */\n      0x00\n        /* \"contracts/Marketplace2/Marketplace.sol\":15051:15073  _status = _NOT_ENTERED */\n      dup2\n      swap1\n      sstore\n      pop\n        /* \"contracts/Marketplace2/Marketplace.sol\":19576:20100  function createMarketSale(... */\n      pop\n      pop\n      jump\t// out\n        /* \"contracts/Marketplace2/Marketplace.sol\":17594:17725  function getMarketItem(uint256 marketItemId) public view returns (MarketItem memory) {... */\n    tag_99:\n        /* \"contracts/Marketplace2/Marketplace.sol\":17660:17677  MarketItem memory */\n      tag_249\n      tag_122\n      jump\t// in\n    tag_249:\n        /* \"contracts/Marketplace2/Marketplace.sol\":17692:17706  idToMarketItem */\n      0x07\n        /* \"contracts/Marketplace2/Marketplace.sol\":17692:17720  idToMarketItem[marketItemId] */\n      0x00\n        /* \"contracts/Marketplace2/Marketplace.sol\":17707:17719  marketItemId */\n      dup4\n        /* \"contracts/Marketplace2/Marketplace.sol\":17692:17720  idToMarketItem[marketItemId] */\n      dup2\n      mstore\n      0x20\n      add\n      swap1\n      dup2\n      mstore\n      0x20\n      add\n      0x00\n      keccak256\n        /* \"contracts/Marketplace2/Marketplace.sol\":17685:17720  return idToMarketItem[marketItemId] */\n      mload(0x40)\n      dup1\n      0xc0\n      add\n      0x40\n      mstore\n      swap1\n      dup2\n      0x00\n      dup3\n      add\n      sload\n      dup2\n      mstore\n      0x20\n      add\n      0x01\n      dup3\n      add\n      0x00\n      swap1\n      sload\n      swap1\n      0x0100\n      exp\n      swap1\n      div\n      0xffffffffffffffffffffffffffffffffffffffff\n      and\n      0xffffffffffffffffffffffffffffffffffffffff\n      and\n      0xffffffffffffffffffffffffffffffffffffffff\n      and\n      dup2\n      mstore\n      0x20\n      add\n      0x02\n      dup3\n      add\n      sload\n      dup2\n      mstore\n      0x20\n      add\n      0x03\n      dup3\n      add\n      0x00\n      swap1\n      sload\n      swap1\n      0x0100\n      exp\n      swap1\n      div\n      0xffffffffffffffffffffffffffffffffffffffff\n      and\n      0xffffffffffffffffffffffffffffffffffffffff\n      and\n      0xffffffffffffffffffffffffffffffffffffffff\n      and\n      dup2\n      mstore\n      0x20\n      add\n      0x04\n      dup3\n      add\n      0x00\n      swap1\n      sload\n      swap1\n      0x0100\n      exp\n      swap1\n      div\n      0xffffffffffffffffffffffffffffffffffffffff\n      and\n      0xffffffffffffffffffffffffffffffffffffffff\n      and\n      0xffffffffffffffffffffffffffffffffffffffff\n      and\n      dup2\n      mstore\n      0x20\n      add\n      0x05\n      dup3\n      add\n      sload\n      dup2\n      mstore\n      pop\n      pop\n      swap1\n      pop\n        /* \"contracts/Marketplace2/Marketplace.sol\":17594:17725  function getMarketItem(uint256 marketItemId) public view returns (MarketItem memory) {... */\n      swap2\n      swap1\n      pop\n      jump\t// out\n        /* \"contracts/Marketplace2/Marketplace.sol\":21581:22877  function buyItemBySQF(... */\n    tag_104:\n        /* \"contracts/Marketplace2/Marketplace.sol\":21706:21732  _requireERC721(nftAddress) */\n      tag_252\n        /* \"contracts/Marketplace2/Marketplace.sol\":21721:21731  nftAddress */\n      dup4\n        /* \"contracts/Marketplace2/Marketplace.sol\":21706:21720  _requireERC721 */\n      tag_184\n        /* \"contracts/Marketplace2/Marketplace.sol\":21706:21732  _requireERC721(nftAddress) */\n      jump\t// in\n    tag_252:\n        /* \"contracts/Marketplace2/Marketplace.sol\":21743:21757  address sender */\n      0x00\n        /* \"contracts/Marketplace2/Marketplace.sol\":21760:21770  msg.sender */\n      caller\n        /* \"contracts/Marketplace2/Marketplace.sol\":21743:21770  address sender = msg.sender */\n      swap1\n      pop\n        /* \"contracts/Marketplace2/Marketplace.sol\":21780:21799  IERC721 nftRegistry */\n      0x00\n        /* \"contracts/Marketplace2/Marketplace.sol\":21810:21820  nftAddress */\n      dup5\n        /* \"contracts/Marketplace2/Marketplace.sol\":21780:21821  IERC721 nftRegistry = IERC721(nftAddress) */\n      swap1\n      pop\n        /* \"contracts/Marketplace2/Marketplace.sol\":21831:21847  Item memory item */\n      0x00\n        /* \"contracts/Marketplace2/Marketplace.sol\":21850:21855  items */\n      0x01\n        /* \"contracts/Marketplace2/Marketplace.sol\":21850:21867  items[nftAddress] */\n      0x00\n        /* \"contracts/Marketplace2/Marketplace.sol\":21856:21866  nftAddress */\n      dup8\n        /* \"contracts/Marketplace2/Marketplace.sol\":21850:21867  items[nftAddress] */\n      0xffffffffffffffffffffffffffffffffffffffff\n      and\n      0xffffffffffffffffffffffffffffffffffffffff\n      and\n      dup2\n      mstore\n      0x20\n      add\n      swap1\n      dup2\n      mstore\n      0x20\n      add\n      0x00\n      keccak256\n        /* \"contracts/Marketplace2/Marketplace.sol\":21850:21876  items[nftAddress][assetId] */\n      0x00\n        /* \"contracts/Marketplace2/Marketplace.sol\":21868:21875  assetId */\n      dup7\n        /* \"contracts/Marketplace2/Marketplace.sol\":21850:21876  items[nftAddress][assetId] */\n      dup2\n      mstore\n      0x20\n      add\n      swap1\n      dup2\n      mstore\n      0x20\n      add\n      0x00\n      keccak256\n        /* \"contracts/Marketplace2/Marketplace.sol\":21831:21876  Item memory item = items[nftAddress][assetId] */\n      mload(0x40)\n      dup1\n      0xc0\n      add\n      0x40\n      mstore\n      swap1\n      dup2\n      0x00\n      dup3\n      add\n      sload\n      dup2\n      mstore\n      0x20\n      add\n      0x01\n      dup3\n      add\n      0x00\n      swap1\n      sload\n      swap1\n      0x0100\n      exp\n      swap1\n      div\n      0xffffffffffffffffffffffffffffffffffffffff\n      and\n      0xffffffffffffffffffffffffffffffffffffffff\n      and\n      0xffffffffffffffffffffffffffffffffffffffff\n      and\n      dup2\n      mstore\n      0x20\n      add\n      0x02\n      dup3\n      add\n      0x00\n      swap1\n      sload\n      swap1\n      0x0100\n      exp\n      swap1\n      div\n      0xffffffffffffffffffffffffffffffffffffffff\n      and\n      0xffffffffffffffffffffffffffffffffffffffff\n      and\n      0xffffffffffffffffffffffffffffffffffffffff\n      and\n      dup2\n      mstore\n      0x20\n      add\n      0x03\n      dup3\n      add\n      sload\n      dup2\n      mstore\n      0x20\n      add\n      0x04\n      dup3\n      add\n      sload\n      dup2\n      mstore\n      0x20\n      add\n      0x05\n      dup3\n      add\n      0x00\n      swap1\n      sload\n      swap1\n      0x0100\n      exp\n      swap1\n      div\n      0xff\n      and\n      0x04\n      dup2\n      gt\n      iszero\n      tag_253\n      jumpi\n      tag_254\n      tag_200\n      jump\t// in\n    tag_254:\n    tag_253:\n      0x04\n      dup2\n      gt\n      iszero\n      tag_255\n      jumpi\n      tag_256\n      tag_200\n      jump\t// in\n    tag_256:\n    tag_255:\n      dup2\n      mstore\n      pop\n      pop\n      swap1\n      pop\n        /* \"contracts/Marketplace2/Marketplace.sol\":21906:21907  0 */\n      0x00\n        /* \"contracts/Marketplace2/Marketplace.sol\":21895:21907  item.id != 0 */\n      dup1\n      shl\n        /* \"contracts/Marketplace2/Marketplace.sol\":21895:21899  item */\n      dup2\n        /* \"contracts/Marketplace2/Marketplace.sol\":21895:21902  item.id */\n      0x00\n      add\n      mload\n        /* \"contracts/Marketplace2/Marketplace.sol\":21895:21907  item.id != 0 */\n      sub\n        /* \"contracts/Marketplace2/Marketplace.sol\":21887:21931  require(item.id != 0, \"Asset not published\") */\n      tag_257\n      jumpi\n      mload(0x40)\n      0x08c379a000000000000000000000000000000000000000000000000000000000\n      dup2\n      mstore\n      0x04\n      add\n      tag_258\n      swap1\n      tag_259\n      jump\t// in\n    tag_258:\n      mload(0x40)\n      dup1\n      swap2\n      sub\n      swap1\n      revert\n    tag_257:\n        /* \"contracts/Marketplace2/Marketplace.sol\":21964:21979  ItemStatus.LIST */\n      0x01\n        /* \"contracts/Marketplace2/Marketplace.sol\":21949:21979  item.status == ItemStatus.LIST */\n      0x04\n      dup2\n      gt\n      iszero\n      tag_260\n      jumpi\n      tag_261\n      tag_200\n      jump\t// in\n    tag_261:\n    tag_260:\n        /* \"contracts/Marketplace2/Marketplace.sol\":21949:21953  item */\n      dup2\n        /* \"contracts/Marketplace2/Marketplace.sol\":21949:21960  item.status */\n      0xa0\n      add\n      mload\n        /* \"contracts/Marketplace2/Marketplace.sol\":21949:21979  item.status == ItemStatus.LIST */\n      0x04\n      dup2\n      gt\n      iszero\n      tag_262\n      jumpi\n      tag_263\n      tag_200\n      jump\t// in\n    tag_263:\n    tag_262:\n      eq\n        /* \"contracts/Marketplace2/Marketplace.sol\":21941:22008  require(item.status == ItemStatus.LIST, \"Asset is not list to buy\") */\n      tag_264\n      jumpi\n      mload(0x40)\n      0x08c379a000000000000000000000000000000000000000000000000000000000\n      dup2\n      mstore\n      0x04\n      add\n      tag_265\n      swap1\n      tag_266\n      jump\t// in\n    tag_265:\n      mload(0x40)\n      dup1\n      swap2\n      sub\n      swap1\n      revert\n    tag_264:\n        /* \"contracts/Marketplace2/Marketplace.sol\":22019:22033  address seller */\n      0x00\n        /* \"contracts/Marketplace2/Marketplace.sol\":22036:22040  item */\n      dup2\n        /* \"contracts/Marketplace2/Marketplace.sol\":22036:22047  item.seller */\n      0x20\n      add\n      mload\n        /* \"contracts/Marketplace2/Marketplace.sol\":22019:22047  address seller = item.seller */\n      swap1\n      pop\n        /* \"contracts/Marketplace2/Marketplace.sol\":22084:22085  0 */\n      0x00\n        /* \"contracts/Marketplace2/Marketplace.sol\":22066:22086  seller != address(0) */\n      0xffffffffffffffffffffffffffffffffffffffff\n      and\n        /* \"contracts/Marketplace2/Marketplace.sol\":22066:22072  seller */\n      dup2\n        /* \"contracts/Marketplace2/Marketplace.sol\":22066:22086  seller != address(0) */\n      0xffffffffffffffffffffffffffffffffffffffff\n      and\n      sub\n        /* \"contracts/Marketplace2/Marketplace.sol\":22058:22106  require(seller != address(0), \"Invalid address\") */\n      tag_267\n      jumpi\n      mload(0x40)\n      0x08c379a000000000000000000000000000000000000000000000000000000000\n      dup2\n      mstore\n      0x04\n      add\n      tag_268\n      swap1\n      tag_269\n      jump\t// in\n    tag_268:\n      mload(0x40)\n      dup1\n      swap2\n      sub\n      swap1\n      revert\n    tag_267:\n        /* \"contracts/Marketplace2/Marketplace.sol\":22137:22141  item */\n      dup2\n        /* \"contracts/Marketplace2/Marketplace.sol\":22137:22151  item.priceAnta */\n      0x80\n      add\n      mload\n        /* \"contracts/Marketplace2/Marketplace.sol\":22124:22133  priceAnta */\n      dup6\n        /* \"contracts/Marketplace2/Marketplace.sol\":22124:22151  priceAnta >= item.priceAnta */\n      lt\n      iszero\n        /* \"contracts/Marketplace2/Marketplace.sol\":22116:22186  require(priceAnta >= item.priceAnta, \"price need equal listing price\") */\n      tag_270\n      jumpi\n      mload(0x40)\n      0x08c379a000000000000000000000000000000000000000000000000000000000\n      dup2\n      mstore\n      0x04\n      add\n      tag_271\n      swap1\n      tag_272\n      jump\t// in\n    tag_271:\n      mload(0x40)\n      dup1\n      swap2\n      sub\n      swap1\n      revert\n    tag_270:\n        /* \"contracts/Marketplace2/Marketplace.sol\":22197:22208  uint256 fee */\n      0x00\n        /* \"contracts/Marketplace2/Marketplace.sol\":22242:22245  100 */\n      0x64\n        /* \"contracts/Marketplace2/Marketplace.sol\":22229:22238  priceAnta */\n      dup7\n        /* \"contracts/Marketplace2/Marketplace.sol\":22212:22226  antaFeePercent */\n      0x03\n      0x15\n      swap1\n      sload\n      swap1\n      0x0100\n      exp\n      swap1\n      div\n      0xff\n      and\n        /* \"contracts/Marketplace2/Marketplace.sol\":22212:22238  antaFeePercent * priceAnta */\n      0xff\n      and\n      tag_273\n      swap2\n      swap1\n      tag_274\n      jump\t// in\n    tag_273:\n        /* \"contracts/Marketplace2/Marketplace.sol\":22211:22245  (antaFeePercent * priceAnta) / 100 */\n      tag_275\n      swap2\n      swap1\n      tag_276\n      jump\t// in\n    tag_275:\n        /* \"contracts/Marketplace2/Marketplace.sol\":22197:22245  uint256 fee = (antaFeePercent * priceAnta) / 100 */\n      swap1\n      pop\n        /* \"contracts/Marketplace2/Marketplace.sol\":22255:22275  uint256 remainAmount */\n      0x00\n        /* \"contracts/Marketplace2/Marketplace.sol\":22290:22293  fee */\n      dup2\n        /* \"contracts/Marketplace2/Marketplace.sol\":22278:22287  priceAnta */\n      dup8\n        /* \"contracts/Marketplace2/Marketplace.sol\":22278:22293  priceAnta - fee */\n      tag_277\n      swap2\n      swap1\n      tag_115\n      jump\t// in\n    tag_277:\n        /* \"contracts/Marketplace2/Marketplace.sol\":22255:22293  uint256 remainAmount = priceAnta - fee */\n      swap1\n      pop\n        /* \"contracts/Marketplace2/Marketplace.sol\":22303:22311  sqfToken */\n      0x03\n      0x00\n      swap1\n      sload\n      swap1\n      0x0100\n      exp\n      swap1\n      div\n      0xffffffffffffffffffffffffffffffffffffffff\n      and\n        /* \"contracts/Marketplace2/Marketplace.sol\":22303:22324  sqfToken.transferFrom */\n      0xffffffffffffffffffffffffffffffffffffffff\n      and\n      0x23b872dd\n        /* \"contracts/Marketplace2/Marketplace.sol\":22325:22331  sender */\n      dup8\n        /* \"contracts/Marketplace2/Marketplace.sol\":22341:22345  this */\n      address\n        /* \"contracts/Marketplace2/Marketplace.sol\":22348:22351  fee */\n      dup6\n        /* \"contracts/Marketplace2/Marketplace.sol\":22303:22352  sqfToken.transferFrom(sender, address(this), fee) */\n      mload(0x40)\n      dup5\n      0xffffffff\n      and\n      0xe0\n      shl\n      dup2\n      mstore\n      0x04\n      add\n      tag_278\n      swap4\n      swap3\n      swap2\n      swap1\n      tag_174\n      jump\t// in\n    tag_278:\n      0x20\n      mload(0x40)\n      dup1\n      dup4\n      sub\n      dup2\n      0x00\n      dup8\n      gas\n      call\n      iszero\n      dup1\n      iszero\n      tag_280\n      jumpi\n      returndatasize\n      0x00\n      dup1\n      returndatacopy\n      revert(0x00, returndatasize)\n    tag_280:\n      pop\n      pop\n      pop\n      pop\n      mload(0x40)\n      returndatasize\n      not(0x1f)\n      0x1f\n      dup3\n      add\n      and\n      dup3\n      add\n      dup1\n      0x40\n      mstore\n      pop\n      dup2\n      add\n      swap1\n      tag_281\n      swap2\n      swap1\n      tag_282\n      jump\t// in\n    tag_281:\n      pop\n        /* \"contracts/Marketplace2/Marketplace.sol\":22362:22370  sqfToken */\n      0x03\n      0x00\n      swap1\n      sload\n      swap1\n      0x0100\n      exp\n      swap1\n      div\n      0xffffffffffffffffffffffffffffffffffffffff\n      and\n        /* \"contracts/Marketplace2/Marketplace.sol\":22362:22383  sqfToken.transferFrom */\n      0xffffffffffffffffffffffffffffffffffffffff\n      and\n      0x23b872dd\n        /* \"contracts/Marketplace2/Marketplace.sol\":22384:22390  sender */\n      dup8\n        /* \"contracts/Marketplace2/Marketplace.sol\":22392:22398  seller */\n      dup6\n        /* \"contracts/Marketplace2/Marketplace.sol\":22400:22412  remainAmount */\n      dup5\n        /* \"contracts/Marketplace2/Marketplace.sol\":22362:22413  sqfToken.transferFrom(sender, seller, remainAmount) */\n      mload(0x40)\n      dup5\n      0xffffffff\n      and\n      0xe0\n      shl\n      dup2\n      mstore\n      0x04\n      add\n      tag_283\n      swap4\n      swap3\n      swap2\n      swap1\n      tag_174\n      jump\t// in\n    tag_283:\n      0x20\n      mload(0x40)\n      dup1\n      dup4\n      sub\n      dup2\n      0x00\n      dup8\n      gas\n      call\n      iszero\n      dup1\n      iszero\n      tag_285\n      jumpi\n      returndatasize\n      0x00\n      dup1\n      returndatacopy\n      revert(0x00, returndatasize)\n    tag_285:\n      pop\n      pop\n      pop\n      pop\n      mload(0x40)\n      returndatasize\n      not(0x1f)\n      0x1f\n      dup3\n      add\n      and\n      dup3\n      add\n      dup1\n      0x40\n      mstore\n      pop\n      dup2\n      add\n      swap1\n      tag_286\n      swap2\n      swap1\n      tag_282\n      jump\t// in\n    tag_286:\n      pop\n        /* \"contracts/Marketplace2/Marketplace.sol\":22423:22434  nftRegistry */\n      dup5\n        /* \"contracts/Marketplace2/Marketplace.sol\":22423:22451  nftRegistry.safeTransferFrom */\n      0xffffffffffffffffffffffffffffffffffffffff\n      and\n      0x42842e0e\n        /* \"contracts/Marketplace2/Marketplace.sol\":22460:22464  this */\n      address\n        /* \"contracts/Marketplace2/Marketplace.sol\":22467:22473  sender */\n      dup9\n        /* \"contracts/Marketplace2/Marketplace.sol\":22475:22482  assetId */\n      dup12\n        /* \"contracts/Marketplace2/Marketplace.sol\":22423:22483  nftRegistry.safeTransferFrom(address(this), sender, assetId) */\n      mload(0x40)\n      dup5\n      0xffffffff\n      and\n      0xe0\n      shl\n      dup2\n      mstore\n      0x04\n      add\n      tag_287\n      swap4\n      swap3\n      swap2\n      swap1\n      tag_174\n      jump\t// in\n    tag_287:\n      0x00\n      mload(0x40)\n      dup1\n      dup4\n      sub\n      dup2\n      0x00\n      dup8\n      dup1\n      extcodesize\n      iszero\n      dup1\n      iszero\n      tag_288\n      jumpi\n      0x00\n      dup1\n      revert\n    tag_288:\n      pop\n      gas\n      call\n      iszero\n      dup1\n      iszero\n      tag_290\n      jumpi\n      returndatasize\n      0x00\n      dup1\n      returndatacopy\n      revert(0x00, returndatasize)\n    tag_290:\n      pop\n      pop\n      pop\n      pop\n        /* \"contracts/Marketplace2/Marketplace.sol\":22530:22536  sender */\n      dup6\n        /* \"contracts/Marketplace2/Marketplace.sol\":22494:22499  items */\n      0x01\n        /* \"contracts/Marketplace2/Marketplace.sol\":22494:22511  items[nftAddress] */\n      0x00\n        /* \"contracts/Marketplace2/Marketplace.sol\":22500:22510  nftAddress */\n      dup12\n        /* \"contracts/Marketplace2/Marketplace.sol\":22494:22511  items[nftAddress] */\n      0xffffffffffffffffffffffffffffffffffffffff\n      and\n      0xffffffffffffffffffffffffffffffffffffffff\n      and\n      dup2\n      mstore\n      0x20\n      add\n      swap1\n      dup2\n      mstore\n      0x20\n      add\n      0x00\n      keccak256\n        /* \"contracts/Marketplace2/Marketplace.sol\":22494:22520  items[nftAddress][assetId] */\n      0x00\n        /* \"contracts/Marketplace2/Marketplace.sol\":22512:22519  assetId */\n      dup11\n        /* \"contracts/Marketplace2/Marketplace.sol\":22494:22520  items[nftAddress][assetId] */\n      dup2\n      mstore\n      0x20\n      add\n      swap1\n      dup2\n      mstore\n      0x20\n      add\n      0x00\n      keccak256\n        /* \"contracts/Marketplace2/Marketplace.sol\":22494:22527  items[nftAddress][assetId].seller */\n      0x01\n      add\n      0x00\n        /* \"contracts/Marketplace2/Marketplace.sol\":22494:22536  items[nftAddress][assetId].seller = sender */\n      0x0100\n      exp\n      dup2\n      sload\n      dup2\n      0xffffffffffffffffffffffffffffffffffffffff\n      mul\n      not\n      and\n      swap1\n      dup4\n      0xffffffffffffffffffffffffffffffffffffffff\n      and\n      mul\n      or\n      swap1\n      sstore\n      pop\n        /* \"contracts/Marketplace2/Marketplace.sol\":22582:22599  ItemStatus.BOUGHT */\n      0x02\n        /* \"contracts/Marketplace2/Marketplace.sol\":22546:22551  items */\n      0x01\n        /* \"contracts/Marketplace2/Marketplace.sol\":22546:22563  items[nftAddress] */\n      0x00\n        /* \"contracts/Marketplace2/Marketplace.sol\":22552:22562  nftAddress */\n      dup12\n        /* \"contracts/Marketplace2/Marketplace.sol\":22546:22563  items[nftAddress] */\n      0xffffffffffffffffffffffffffffffffffffffff\n      and\n      0xffffffffffffffffffffffffffffffffffffffff\n      and\n      dup2\n      mstore\n      0x20\n      add\n      swap1\n      dup2\n      mstore\n      0x20\n      add\n      0x00\n      keccak256\n        /* \"contracts/Marketplace2/Marketplace.sol\":22546:22572  items[nftAddress][assetId] */\n      0x00\n        /* \"contracts/Marketplace2/Marketplace.sol\":22564:22571  assetId */\n      dup11\n        /* \"contracts/Marketplace2/Marketplace.sol\":22546:22572  items[nftAddress][assetId] */\n      dup2\n      mstore\n      0x20\n      add\n      swap1\n      dup2\n      mstore\n      0x20\n      add\n      0x00\n      keccak256\n        /* \"contracts/Marketplace2/Marketplace.sol\":22546:22579  items[nftAddress][assetId].status */\n      0x05\n      add\n      0x00\n        /* \"contracts/Marketplace2/Marketplace.sol\":22546:22599  items[nftAddress][assetId].status = ItemStatus.BOUGHT */\n      0x0100\n      exp\n      dup2\n      sload\n      dup2\n      0xff\n      mul\n      not\n      and\n      swap1\n      dup4\n      0x04\n      dup2\n      gt\n      iszero\n      tag_291\n      jumpi\n      tag_292\n      tag_200\n      jump\t// in\n    tag_292:\n    tag_291:\n      mul\n      or\n      swap1\n      sstore\n      pop\n        /* \"contracts/Marketplace2/Marketplace.sol\":22805:22811  sender */\n      dup6\n        /* \"contracts/Marketplace2/Marketplace.sol\":22615:22870  BuyItemSuccessful(... */\n      0xffffffffffffffffffffffffffffffffffffffff\n      and\n        /* \"contracts/Marketplace2/Marketplace.sol\":22688:22694  seller */\n      dup4\n        /* \"contracts/Marketplace2/Marketplace.sol\":22615:22870  BuyItemSuccessful(... */\n      0xffffffffffffffffffffffffffffffffffffffff\n      and\n        /* \"contracts/Marketplace2/Marketplace.sol\":22667:22674  assetId */\n      dup10\n        /* \"contracts/Marketplace2/Marketplace.sol\":22615:22870  BuyItemSuccessful(... */\n      0x30247e11bbb597dfefd2a3124026f1ef8987a4d6ba46e3629f80bac1b0c9faee\n        /* \"contracts/Marketplace2/Marketplace.sol\":22646:22650  item */\n      dup8\n        /* \"contracts/Marketplace2/Marketplace.sol\":22646:22653  item.id */\n      0x00\n      add\n      mload\n        /* \"contracts/Marketplace2/Marketplace.sol\":22708:22718  nftAddress */\n      dup14\n        /* \"contracts/Marketplace2/Marketplace.sol\":22732:22736  item */\n      dup10\n        /* \"contracts/Marketplace2/Marketplace.sol\":22732:22746  item.priceAnta */\n      0x80\n      add\n      mload\n        /* \"contracts/Marketplace2/Marketplace.sol\":22760:22774  antaFeePercent */\n      0x03\n      0x15\n      swap1\n      sload\n      swap1\n      0x0100\n      exp\n      swap1\n      div\n      0xff\n      and\n        /* \"contracts/Marketplace2/Marketplace.sol\":22788:22791  fee */\n      dup10\n        /* \"contracts/Marketplace2/Marketplace.sol\":22845:22860  block.timestamp */\n      timestamp\n        /* \"contracts/Marketplace2/Marketplace.sol\":22615:22870  BuyItemSuccessful(... */\n      mload(0x40)\n      tag_293\n      swap7\n      swap6\n      swap5\n      swap4\n      swap3\n      swap2\n      swap1\n      tag_294\n      jump\t// in\n    tag_293:\n      mload(0x40)\n      dup1\n      swap2\n      sub\n      swap1\n      log4\n        /* \"contracts/Marketplace2/Marketplace.sol\":21696:22877  {... */\n      pop\n      pop\n      pop\n      pop\n      pop\n      pop\n        /* \"contracts/Marketplace2/Marketplace.sol\":21581:22877  function buyItemBySQF(... */\n      pop\n      pop\n      pop\n      jump\t// out\n        /* \"contracts/Marketplace2/Marketplace.sol\":2560:2758  function transferOwnership(address newOwner) public virtual onlyOwner {... */\n    tag_108:\n        /* \"contracts/Marketplace2/Marketplace.sol\":1901:1913  _msgSender() */\n      tag_296\n        /* \"contracts/Marketplace2/Marketplace.sol\":1901:1911  _msgSender */\n      tag_220\n        /* \"contracts/Marketplace2/Marketplace.sol\":1901:1913  _msgSender() */\n      jump\t// in\n    tag_296:\n        /* \"contracts/Marketplace2/Marketplace.sol\":1890:1913  owner() == _msgSender() */\n      0xffffffffffffffffffffffffffffffffffffffff\n      and\n        /* \"contracts/Marketplace2/Marketplace.sol\":1890:1897  owner() */\n      tag_297\n        /* \"contracts/Marketplace2/Marketplace.sol\":1890:1895  owner */\n      tag_81\n        /* \"contracts/Marketplace2/Marketplace.sol\":1890:1897  owner() */\n      jump\t// in\n    tag_297:\n        /* \"contracts/Marketplace2/Marketplace.sol\":1890:1913  owner() == _msgSender() */\n      0xffffffffffffffffffffffffffffffffffffffff\n      and\n      eq\n        /* \"contracts/Marketplace2/Marketplace.sol\":1882:1950  require(owner() == _msgSender(), \"Ownable: caller is not the owner\") */\n      tag_298\n      jumpi\n      mload(0x40)\n      0x08c379a000000000000000000000000000000000000000000000000000000000\n      dup2\n      mstore\n      0x04\n      add\n      tag_299\n      swap1\n      tag_224\n      jump\t// in\n    tag_299:\n      mload(0x40)\n      dup1\n      swap2\n      sub\n      swap1\n      revert\n    tag_298:\n        /* \"contracts/Marketplace2/Marketplace.sol\":2668:2669  0 */\n      0x00\n        /* \"contracts/Marketplace2/Marketplace.sol\":2648:2670  newOwner != address(0) */\n      0xffffffffffffffffffffffffffffffffffffffff\n      and\n        /* \"contracts/Marketplace2/Marketplace.sol\":2648:2656  newOwner */\n      dup2\n        /* \"contracts/Marketplace2/Marketplace.sol\":2648:2670  newOwner != address(0) */\n      0xffffffffffffffffffffffffffffffffffffffff\n      and\n      sub\n        /* \"contracts/Marketplace2/Marketplace.sol\":2640:2713  require(newOwner != address(0), \"Ownable: new owner is the zero address\") */\n      tag_301\n      jumpi\n      mload(0x40)\n      0x08c379a000000000000000000000000000000000000000000000000000000000\n      dup2\n      mstore\n      0x04\n      add\n      tag_302\n      swap1\n      tag_303\n      jump\t// in\n    tag_302:\n      mload(0x40)\n      dup1\n      swap2\n      sub\n      swap1\n      revert\n    tag_301:\n        /* \"contracts/Marketplace2/Marketplace.sol\":2723:2751  _transferOwnership(newOwner) */\n      tag_304\n        /* \"contracts/Marketplace2/Marketplace.sol\":2742:2750  newOwner */\n      dup2\n        /* \"contracts/Marketplace2/Marketplace.sol\":2723:2741  _transferOwnership */\n      tag_227\n        /* \"contracts/Marketplace2/Marketplace.sol\":2723:2751  _transferOwnership(newOwner) */\n      jump\t// in\n    tag_304:\n        /* \"contracts/Marketplace2/Marketplace.sol\":2560:2758  function transferOwnership(address newOwner) public virtual onlyOwner {... */\n      pop\n      jump\t// out\n        /* \"contracts/Marketplace2/Marketplace.sol\":11853:11965  function current(Counter storage counter) internal view returns (uint256) {... */\n    tag_111:\n        /* \"contracts/Marketplace2/Marketplace.sol\":11918:11925  uint256 */\n      0x00\n        /* \"contracts/Marketplace2/Marketplace.sol\":11944:11951  counter */\n      dup2\n        /* \"contracts/Marketplace2/Marketplace.sol\":11944:11958  counter._value */\n      0x00\n      add\n      sload\n        /* \"contracts/Marketplace2/Marketplace.sol\":11937:11958  return counter._value */\n      swap1\n      pop\n        /* \"contracts/Marketplace2/Marketplace.sol\":11853:11965  function current(Counter storage counter) internal view returns (uint256) {... */\n      swap2\n      swap1\n      pop\n      jump\t// out\n        /* \"contracts/Marketplace2/Marketplace.sol\":11971:12094  function increment(Counter storage counter) internal {... */\n    tag_171:\n        /* \"contracts/Marketplace2/Marketplace.sol\":12076:12077  1 */\n      0x01\n        /* \"contracts/Marketplace2/Marketplace.sol\":12058:12065  counter */\n      dup2\n        /* \"contracts/Marketplace2/Marketplace.sol\":12058:12072  counter._value */\n      0x00\n      add\n      0x00\n        /* \"contracts/Marketplace2/Marketplace.sol\":12058:12077  counter._value += 1 */\n      dup3\n      dup3\n      sload\n      add\n      swap3\n      pop\n      pop\n      dup2\n      swap1\n      sstore\n      pop\n        /* \"contracts/Marketplace2/Marketplace.sol\":11971:12094  function increment(Counter storage counter) internal {... */\n      pop\n      jump\t// out\n        /* \"contracts/Marketplace2/Marketplace.sol\":22883:23272  function _requireERC721(address nftAddress) internal view {... */\n    tag_184:\n        /* \"contracts/Marketplace2/Marketplace.sol\":22972:22994  isContract(nftAddress) */\n      tag_308\n        /* \"contracts/Marketplace2/Marketplace.sol\":22983:22993  nftAddress */\n      dup2\n        /* \"contracts/Marketplace2/Marketplace.sol\":22972:22982  isContract */\n      tag_309\n        /* \"contracts/Marketplace2/Marketplace.sol\":22972:22994  isContract(nftAddress) */\n      jump\t// in\n    tag_308:\n        /* \"contracts/Marketplace2/Marketplace.sol\":22951:23056  require(... */\n      tag_310\n      jumpi\n      mload(0x40)\n      0x08c379a000000000000000000000000000000000000000000000000000000000\n      dup2\n      mstore\n      0x04\n      add\n      tag_311\n      swap1\n      tag_312\n      jump\t// in\n    tag_311:\n      mload(0x40)\n      dup1\n      swap2\n      sub\n      swap1\n      revert\n    tag_310:\n        /* \"contracts/Marketplace2/Marketplace.sol\":23067:23086  IERC721 nftRegistry */\n      0x00\n        /* \"contracts/Marketplace2/Marketplace.sol\":23097:23107  nftAddress */\n      dup2\n        /* \"contracts/Marketplace2/Marketplace.sol\":23067:23108  IERC721 nftRegistry = IERC721(nftAddress) */\n      swap1\n      pop\n        /* \"contracts/Marketplace2/Marketplace.sol\":23139:23150  nftRegistry */\n      dup1\n        /* \"contracts/Marketplace2/Marketplace.sol\":23139:23168  nftRegistry.supportsInterface */\n      0xffffffffffffffffffffffffffffffffffffffff\n      and\n      0x01ffc9a7\n        /* \"contracts/Marketplace2/Marketplace.sol\":15820:15830  0x80ac58cd */\n      0x80ac58cd\n        /* \"contracts/Marketplace2/Marketplace.sol\":15813:15831  bytes4(0x80ac58cd) */\n      0xe0\n      shl\n        /* \"contracts/Marketplace2/Marketplace.sol\":23139:23186  nftRegistry.supportsInterface(ERC721_Interface) */\n      mload(0x40)\n      dup3\n      0xffffffff\n      and\n      0xe0\n      shl\n      dup2\n      mstore\n      0x04\n      add\n      tag_313\n      swap2\n      swap1\n      tag_48\n      jump\t// in\n    tag_313:\n      0x20\n      mload(0x40)\n      dup1\n      dup4\n      sub\n      dup2\n      dup7\n      gas\n      staticcall\n      iszero\n      dup1\n      iszero\n      tag_315\n      jumpi\n      returndatasize\n      0x00\n      dup1\n      returndatacopy\n      revert(0x00, returndatasize)\n    tag_315:\n      pop\n      pop\n      pop\n      pop\n      mload(0x40)\n      returndatasize\n      not(0x1f)\n      0x1f\n      dup3\n      add\n      and\n      dup3\n      add\n      dup1\n      0x40\n      mstore\n      pop\n      dup2\n      add\n      swap1\n      tag_316\n      swap2\n      swap1\n      tag_282\n      jump\t// in\n    tag_316:\n        /* \"contracts/Marketplace2/Marketplace.sol\":23118:23265  require(... */\n      tag_317\n      jumpi\n      mload(0x40)\n      0x08c379a000000000000000000000000000000000000000000000000000000000\n      dup2\n      mstore\n      0x04\n      add\n      tag_318\n      swap1\n      tag_319\n      jump\t// in\n    tag_318:\n      mload(0x40)\n      dup1\n      swap2\n      sub\n      swap1\n      revert\n    tag_317:\n        /* \"contracts/Marketplace2/Marketplace.sol\":22941:23272  {... */\n      pop\n        /* \"contracts/Marketplace2/Marketplace.sol\":22883:23272  function _requireERC721(address nftAddress) internal view {... */\n      pop\n      jump\t// out\n        /* \"contracts/Marketplace2/Marketplace.sol\":23436:24070  function _createItem(... */\n    tag_205:\n        /* \"contracts/Marketplace2/Marketplace.sol\":23609:23623  bytes32 itemId */\n      0x00\n        /* \"contracts/Marketplace2/Marketplace.sol\":23683:23698  block.timestamp */\n      timestamp\n        /* \"contracts/Marketplace2/Marketplace.sol\":23716:23722  seller */\n      dup7\n        /* \"contracts/Marketplace2/Marketplace.sol\":23740:23747  assetId */\n      dup7\n        /* \"contracts/Marketplace2/Marketplace.sol\":23765:23775  nftAddress */\n      dup7\n        /* \"contracts/Marketplace2/Marketplace.sol\":23793:23798  price */\n      dup7\n        /* \"contracts/Marketplace2/Marketplace.sol\":23649:23812  abi.encodePacked(... */\n      add(0x20, mload(0x40))\n      tag_321\n      swap6\n      swap5\n      swap4\n      swap3\n      swap2\n      swap1\n      tag_322\n      jump\t// in\n    tag_321:\n      mload(0x40)\n      0x20\n      dup2\n      dup4\n      sub\n      sub\n      dup2\n      mstore\n      swap1\n      0x40\n      mstore\n        /* \"contracts/Marketplace2/Marketplace.sol\":23626:23822  keccak256(... */\n      dup1\n      mload\n      swap1\n      0x20\n      add\n      keccak256\n        /* \"contracts/Marketplace2/Marketplace.sol\":23609:23822  bytes32 itemId = keccak256(... */\n      swap1\n      pop\n        /* \"contracts/Marketplace2/Marketplace.sol\":23862:24063  Item({... */\n      mload(0x40)\n      dup1\n      0xc0\n      add\n      0x40\n      mstore\n      dup1\n        /* \"contracts/Marketplace2/Marketplace.sol\":23885:23891  itemId */\n      dup3\n        /* \"contracts/Marketplace2/Marketplace.sol\":23862:24063  Item({... */\n      dup2\n      mstore\n      0x20\n      add\n        /* \"contracts/Marketplace2/Marketplace.sol\":23913:23919  seller */\n      dup8\n        /* \"contracts/Marketplace2/Marketplace.sol\":23862:24063  Item({... */\n      0xffffffffffffffffffffffffffffffffffffffff\n      and\n      dup2\n      mstore\n      0x20\n      add\n        /* \"contracts/Marketplace2/Marketplace.sol\":23945:23955  nftAddress */\n      dup6\n        /* \"contracts/Marketplace2/Marketplace.sol\":23862:24063  Item({... */\n      0xffffffffffffffffffffffffffffffffffffffff\n      and\n      dup2\n      mstore\n      0x20\n      add\n        /* \"contracts/Marketplace2/Marketplace.sol\":23976:23981  price */\n      dup5\n        /* \"contracts/Marketplace2/Marketplace.sol\":23862:24063  Item({... */\n      dup2\n      mstore\n      0x20\n      add\n        /* \"contracts/Marketplace2/Marketplace.sol\":24006:24015  priceAnta */\n      dup4\n        /* \"contracts/Marketplace2/Marketplace.sol\":23862:24063  Item({... */\n      dup2\n      mstore\n      0x20\n      add\n        /* \"contracts/Marketplace2/Marketplace.sol\":24037:24052  ItemStatus.LIST */\n      0x01\n        /* \"contracts/Marketplace2/Marketplace.sol\":23862:24063  Item({... */\n      0x04\n      dup2\n      gt\n      iszero\n      tag_323\n      jumpi\n      tag_324\n      tag_200\n      jump\t// in\n    tag_324:\n    tag_323:\n      dup2\n      mstore\n      pop\n        /* \"contracts/Marketplace2/Marketplace.sol\":23833:23838  items */\n      0x01\n        /* \"contracts/Marketplace2/Marketplace.sol\":23833:23850  items[nftAddress] */\n      0x00\n        /* \"contracts/Marketplace2/Marketplace.sol\":23839:23849  nftAddress */\n      dup7\n        /* \"contracts/Marketplace2/Marketplace.sol\":23833:23850  items[nftAddress] */\n      0xffffffffffffffffffffffffffffffffffffffff\n      and\n      0xffffffffffffffffffffffffffffffffffffffff\n      and\n      dup2\n      mstore\n      0x20\n      add\n      swap1\n      dup2\n      mstore\n      0x20\n      add\n      0x00\n      keccak256\n        /* \"contracts/Marketplace2/Marketplace.sol\":23833:23859  items[nftAddress][assetId] */\n      0x00\n        /* \"contracts/Marketplace2/Marketplace.sol\":23851:23858  assetId */\n      dup8\n        /* \"contracts/Marketplace2/Marketplace.sol\":23833:23859  items[nftAddress][assetId] */\n      dup2\n      mstore\n      0x20\n      add\n      swap1\n      dup2\n      mstore\n      0x20\n      add\n      0x00\n      keccak256\n        /* \"contracts/Marketplace2/Marketplace.sol\":23833:24063  items[nftAddress][assetId] = Item({... */\n      0x00\n      dup3\n      add\n      mload\n      dup2\n      0x00\n      add\n      sstore\n      0x20\n      dup3\n      add\n      mload\n      dup2\n      0x01\n      add\n      exp(0x0100, 0x00)\n      dup2\n      sload\n      dup2\n      0xffffffffffffffffffffffffffffffffffffffff\n      mul\n      not\n      and\n      swap1\n      dup4\n      0xffffffffffffffffffffffffffffffffffffffff\n      and\n      mul\n      or\n      swap1\n      sstore\n      pop\n      0x40\n      dup3\n      add\n      mload\n      dup2\n      0x02\n      add\n      exp(0x0100, 0x00)\n      dup2\n      sload\n      dup2\n      0xffffffffffffffffffffffffffffffffffffffff\n      mul\n      not\n      and\n      swap1\n      dup4\n      0xffffffffffffffffffffffffffffffffffffffff\n      and\n      mul\n      or\n      swap1\n      sstore\n      pop\n      0x60\n      dup3\n      add\n      mload\n      dup2\n      0x03\n      add\n      sstore\n      0x80\n      dup3\n      add\n      mload\n      dup2\n      0x04\n      add\n      sstore\n      0xa0\n      dup3\n      add\n      mload\n      dup2\n      0x05\n      add\n      exp(0x0100, 0x00)\n      dup2\n      sload\n      dup2\n      0xff\n      mul\n      not\n      and\n      swap1\n      dup4\n      0x04\n      dup2\n      gt\n      iszero\n      tag_325\n      jumpi\n      tag_326\n      tag_200\n      jump\t// in\n    tag_326:\n    tag_325:\n      mul\n      or\n      swap1\n      sstore\n      pop\n      swap1\n      pop\n      pop\n        /* \"contracts/Marketplace2/Marketplace.sol\":23599:24070  {... */\n      pop\n        /* \"contracts/Marketplace2/Marketplace.sol\":23436:24070  function _createItem(... */\n      pop\n      pop\n      pop\n      pop\n      pop\n      jump\t// out\n        /* \"contracts/Marketplace2/Marketplace.sol\":556:652  function _msgSender() internal view virtual returns (address) {... */\n    tag_220:\n        /* \"contracts/Marketplace2/Marketplace.sol\":609:616  address */\n      0x00\n        /* \"contracts/Marketplace2/Marketplace.sol\":635:645  msg.sender */\n      caller\n        /* \"contracts/Marketplace2/Marketplace.sol\":628:645  return msg.sender */\n      swap1\n      pop\n        /* \"contracts/Marketplace2/Marketplace.sol\":556:652  function _msgSender() internal view virtual returns (address) {... */\n      swap1\n      jump\t// out\n        /* \"contracts/Marketplace2/Marketplace.sol\":2912:3099  function _transferOwnership(address newOwner) internal virtual {... */\n    tag_227:\n        /* \"contracts/Marketplace2/Marketplace.sol\":2985:3001  address oldOwner */\n      0x00\n        /* \"contracts/Marketplace2/Marketplace.sol\":3004:3010  _owner */\n      0x04\n      0x00\n      swap1\n      sload\n      swap1\n      0x0100\n      exp\n      swap1\n      div\n      0xffffffffffffffffffffffffffffffffffffffff\n      and\n        /* \"contracts/Marketplace2/Marketplace.sol\":2985:3010  address oldOwner = _owner */\n      swap1\n      pop\n        /* \"contracts/Marketplace2/Marketplace.sol\":3029:3037  newOwner */\n      dup2\n        /* \"contracts/Marketplace2/Marketplace.sol\":3020:3026  _owner */\n      0x04\n      0x00\n        /* \"contracts/Marketplace2/Marketplace.sol\":3020:3037  _owner = newOwner */\n      0x0100\n      exp\n      dup2\n      sload\n      dup2\n      0xffffffffffffffffffffffffffffffffffffffff\n      mul\n      not\n      and\n      swap1\n      dup4\n      0xffffffffffffffffffffffffffffffffffffffff\n      and\n      mul\n      or\n      swap1\n      sstore\n      pop\n        /* \"contracts/Marketplace2/Marketplace.sol\":3083:3091  newOwner */\n      dup2\n        /* \"contracts/Marketplace2/Marketplace.sol\":3052:3092  OwnershipTransferred(oldOwner, newOwner) */\n      0xffffffffffffffffffffffffffffffffffffffff\n      and\n        /* \"contracts/Marketplace2/Marketplace.sol\":3073:3081  oldOwner */\n      dup2\n        /* \"contracts/Marketplace2/Marketplace.sol\":3052:3092  OwnershipTransferred(oldOwner, newOwner) */\n      0xffffffffffffffffffffffffffffffffffffffff\n      and\n      0x8be0079c531659141344cd1fd0a4f28419497f9722a3daafe3b4186f6b6457e0\n      mload(0x40)\n      mload(0x40)\n      dup1\n      swap2\n      sub\n      swap1\n      log3\n        /* \"contracts/Marketplace2/Marketplace.sol\":2975:3099  {... */\n      pop\n        /* \"contracts/Marketplace2/Marketplace.sol\":2912:3099  function _transferOwnership(address newOwner) internal virtual {... */\n      pop\n      jump\t// out\n        /* \"contracts/Marketplace2/Marketplace.sol\":23278:23435  function isContract(address _addr) private view returns (bool){... */\n    tag_309:\n        /* \"contracts/Marketplace2/Marketplace.sol\":23335:23339  bool */\n      0x00\n        /* \"contracts/Marketplace2/Marketplace.sol\":23346:23357  uint32 size */\n      dup1\n        /* \"contracts/Marketplace2/Marketplace.sol\":23398:23403  _addr */\n      dup3\n        /* \"contracts/Marketplace2/Marketplace.sol\":23386:23404  extcodesize(_addr) */\n      extcodesize\n        /* \"contracts/Marketplace2/Marketplace.sol\":23378:23404  size := extcodesize(_addr) */\n      swap1\n      pop\n        /* \"contracts/Marketplace2/Marketplace.sol\":23430:23431  0 */\n      0x00\n        /* \"contracts/Marketplace2/Marketplace.sol\":23423:23427  size */\n      dup2\n        /* \"contracts/Marketplace2/Marketplace.sol\":23423:23431  size > 0 */\n      0xffffffff\n      and\n      gt\n        /* \"contracts/Marketplace2/Marketplace.sol\":23415:23432  return (size > 0) */\n      swap2\n      pop\n      pop\n        /* \"contracts/Marketplace2/Marketplace.sol\":23278:23435  function isContract(address _addr) private view returns (bool){... */\n      swap2\n      swap1\n      pop\n      jump\t// out\n    tag_122:\n      mload(0x40)\n      dup1\n      0xc0\n      add\n      0x40\n      mstore\n      dup1\n      0x00\n      dup2\n      mstore\n      0x20\n      add\n      and(0xffffffffffffffffffffffffffffffffffffffff, 0x00)\n      dup2\n      mstore\n      0x20\n      add\n      0x00\n      dup2\n      mstore\n      0x20\n      add\n      and(0xffffffffffffffffffffffffffffffffffffffff, 0x00)\n      dup2\n      mstore\n      0x20\n      add\n      and(0xffffffffffffffffffffffffffffffffffffffff, 0x00)\n      dup2\n      mstore\n      0x20\n      add\n      0x00\n      dup2\n      mstore\n      pop\n      swap1\n      jump\t// out\n        /* \"#utility.yul\":7:148   */\n    tag_330:\n        /* \"#utility.yul\":101:107   */\n      0x00\n        /* \"#utility.yul\":135:140   */\n      dup2\n        /* \"#utility.yul\":129:141   */\n      mload\n        /* \"#utility.yul\":119:141   */\n      swap1\n      pop\n        /* \"#utility.yul\":7:148   */\n      swap2\n      swap1\n      pop\n      jump\t// out\n        /* \"#utility.yul\":154:365   */\n    tag_331:\n        /* \"#utility.yul\":280:291   */\n      0x00\n        /* \"#utility.yul\":314:320   */\n      dup3\n        /* \"#utility.yul\":309:312   */\n      dup3\n        /* \"#utility.yul\":302:321   */\n      mstore\n        /* \"#utility.yul\":354:358   */\n      0x20\n        /* \"#utility.yul\":349:352   */\n      dup3\n        /* \"#utility.yul\":345:359   */\n      add\n        /* \"#utility.yul\":330:359   */\n      swap1\n      pop\n        /* \"#utility.yul\":154:365   */\n      swap3\n      swap2\n      pop\n      pop\n      jump\t// out\n        /* \"#utility.yul\":371:530   */\n    tag_332:\n        /* \"#utility.yul\":465:469   */\n      0x00\n        /* \"#utility.yul\":488:491   */\n      dup2\n        /* \"#utility.yul\":480:491   */\n      swap1\n      pop\n        /* \"#utility.yul\":518:522   */\n      0x20\n        /* \"#utility.yul\":513:516   */\n      dup3\n        /* \"#utility.yul\":509:523   */\n      add\n        /* \"#utility.yul\":501:523   */\n      swap1\n      pop\n        /* \"#utility.yul\":371:530   */\n      swap2\n      swap1\n      pop\n      jump\t// out\n        /* \"#utility.yul\":536:613   */\n    tag_333:\n        /* \"#utility.yul\":573:580   */\n      0x00\n        /* \"#utility.yul\":602:607   */\n      dup2\n        /* \"#utility.yul\":591:607   */\n      swap1\n      pop\n        /* \"#utility.yul\":536:613   */\n      swap2\n      swap1\n      pop\n      jump\t// out\n        /* \"#utility.yul\":619:727   */\n    tag_334:\n        /* \"#utility.yul\":696:720   */\n      tag_420\n        /* \"#utility.yul\":714:719   */\n      dup2\n        /* \"#utility.yul\":696:720   */\n      tag_333\n      jump\t// in\n    tag_420:\n        /* \"#utility.yul\":691:694   */\n      dup3\n        /* \"#utility.yul\":684:721   */\n      mstore\n        /* \"#utility.yul\":619:727   */\n      pop\n      pop\n      jump\t// out\n        /* \"#utility.yul\":733:859   */\n    tag_335:\n        /* \"#utility.yul\":770:777   */\n      0x00\n        /* \"#utility.yul\":810:852   */\n      0xffffffffffffffffffffffffffffffffffffffff\n        /* \"#utility.yul\":803:808   */\n      dup3\n        /* \"#utility.yul\":799:853   */\n      and\n        /* \"#utility.yul\":788:853   */\n      swap1\n      pop\n        /* \"#utility.yul\":733:859   */\n      swap2\n      swap1\n      pop\n      jump\t// out\n        /* \"#utility.yul\":865:961   */\n    tag_336:\n        /* \"#utility.yul\":902:909   */\n      0x00\n        /* \"#utility.yul\":931:955   */\n      tag_423\n        /* \"#utility.yul\":949:954   */\n      dup3\n        /* \"#utility.yul\":931:955   */\n      tag_335\n      jump\t// in\n    tag_423:\n        /* \"#utility.yul\":920:955   */\n      swap1\n      pop\n        /* \"#utility.yul\":865:961   */\n      swap2\n      swap1\n      pop\n      jump\t// out\n        /* \"#utility.yul\":967:1075   */\n    tag_337:\n        /* \"#utility.yul\":1044:1068   */\n      tag_425\n        /* \"#utility.yul\":1062:1067   */\n      dup2\n        /* \"#utility.yul\":1044:1068   */\n      tag_336\n      jump\t// in\n    tag_425:\n        /* \"#utility.yul\":1039:1042   */\n      dup3\n        /* \"#utility.yul\":1032:1069   */\n      mstore\n        /* \"#utility.yul\":967:1075   */\n      pop\n      pop\n      jump\t// out\n        /* \"#utility.yul\":1081:1185   */\n    tag_338:\n        /* \"#utility.yul\":1126:1133   */\n      0x00\n        /* \"#utility.yul\":1155:1179   */\n      tag_427\n        /* \"#utility.yul\":1173:1178   */\n      dup3\n        /* \"#utility.yul\":1155:1179   */\n      tag_335\n      jump\t// in\n    tag_427:\n        /* \"#utility.yul\":1144:1179   */\n      swap1\n      pop\n        /* \"#utility.yul\":1081:1185   */\n      swap2\n      swap1\n      pop\n      jump\t// out\n        /* \"#utility.yul\":1191:1323   */\n    tag_339:\n        /* \"#utility.yul\":1284:1316   */\n      tag_429\n        /* \"#utility.yul\":1310:1315   */\n      dup2\n        /* \"#utility.yul\":1284:1316   */\n      tag_338\n      jump\t// in\n    tag_429:\n        /* \"#utility.yul\":1279:1282   */\n      dup3\n        /* \"#utility.yul\":1272:1317   */\n      mstore\n        /* \"#utility.yul\":1191:1323   */\n      pop\n      pop\n      jump\t// out\n        /* \"#utility.yul\":1395:2640   */\n    tag_340:\n        /* \"#utility.yul\":1536:1540   */\n      0xc0\n        /* \"#utility.yul\":1531:1534   */\n      dup3\n        /* \"#utility.yul\":1527:1541   */\n      add\n        /* \"#utility.yul\":1625:1629   */\n      0x00\n        /* \"#utility.yul\":1618:1623   */\n      dup3\n        /* \"#utility.yul\":1614:1630   */\n      add\n        /* \"#utility.yul\":1608:1631   */\n      mload\n        /* \"#utility.yul\":1644:1707   */\n      tag_431\n        /* \"#utility.yul\":1701:1705   */\n      0x00\n        /* \"#utility.yul\":1696:1699   */\n      dup6\n        /* \"#utility.yul\":1692:1706   */\n      add\n        /* \"#utility.yul\":1678:1690   */\n      dup3\n        /* \"#utility.yul\":1644:1707   */\n      tag_334\n      jump\t// in\n    tag_431:\n        /* \"#utility.yul\":1551:1717   */\n      pop\n        /* \"#utility.yul\":1806:1810   */\n      0x20\n        /* \"#utility.yul\":1799:1804   */\n      dup3\n        /* \"#utility.yul\":1795:1811   */\n      add\n        /* \"#utility.yul\":1789:1812   */\n      mload\n        /* \"#utility.yul\":1825:1888   */\n      tag_432\n        /* \"#utility.yul\":1882:1886   */\n      0x20\n        /* \"#utility.yul\":1877:1880   */\n      dup6\n        /* \"#utility.yul\":1873:1887   */\n      add\n        /* \"#utility.yul\":1859:1871   */\n      dup3\n        /* \"#utility.yul\":1825:1888   */\n      tag_337\n      jump\t// in\n    tag_432:\n        /* \"#utility.yul\":1727:1898   */\n      pop\n        /* \"#utility.yul\":1983:1987   */\n      0x40\n        /* \"#utility.yul\":1976:1981   */\n      dup3\n        /* \"#utility.yul\":1972:1988   */\n      add\n        /* \"#utility.yul\":1966:1989   */\n      mload\n        /* \"#utility.yul\":2002:2065   */\n      tag_433\n        /* \"#utility.yul\":2059:2063   */\n      0x40\n        /* \"#utility.yul\":2054:2057   */\n      dup6\n        /* \"#utility.yul\":2050:2064   */\n      add\n        /* \"#utility.yul\":2036:2048   */\n      dup3\n        /* \"#utility.yul\":2002:2065   */\n      tag_334\n      jump\t// in\n    tag_433:\n        /* \"#utility.yul\":1908:2075   */\n      pop\n        /* \"#utility.yul\":2159:2163   */\n      0x60\n        /* \"#utility.yul\":2152:2157   */\n      dup3\n        /* \"#utility.yul\":2148:2164   */\n      add\n        /* \"#utility.yul\":2142:2165   */\n      mload\n        /* \"#utility.yul\":2178:2257   */\n      tag_434\n        /* \"#utility.yul\":2251:2255   */\n      0x60\n        /* \"#utility.yul\":2246:2249   */\n      dup6\n        /* \"#utility.yul\":2242:2256   */\n      add\n        /* \"#utility.yul\":2228:2240   */\n      dup3\n        /* \"#utility.yul\":2178:2257   */\n      tag_339\n      jump\t// in\n    tag_434:\n        /* \"#utility.yul\":2085:2267   */\n      pop\n        /* \"#utility.yul\":2350:2354   */\n      0x80\n        /* \"#utility.yul\":2343:2348   */\n      dup3\n        /* \"#utility.yul\":2339:2355   */\n      add\n        /* \"#utility.yul\":2333:2356   */\n      mload\n        /* \"#utility.yul\":2369:2448   */\n      tag_435\n        /* \"#utility.yul\":2442:2446   */\n      0x80\n        /* \"#utility.yul\":2437:2440   */\n      dup6\n        /* \"#utility.yul\":2433:2447   */\n      add\n        /* \"#utility.yul\":2419:2431   */\n      dup3\n        /* \"#utility.yul\":2369:2448   */\n      tag_339\n      jump\t// in\n    tag_435:\n        /* \"#utility.yul\":2277:2458   */\n      pop\n        /* \"#utility.yul\":2541:2545   */\n      0xa0\n        /* \"#utility.yul\":2534:2539   */\n      dup3\n        /* \"#utility.yul\":2530:2546   */\n      add\n        /* \"#utility.yul\":2524:2547   */\n      mload\n        /* \"#utility.yul\":2560:2623   */\n      tag_436\n        /* \"#utility.yul\":2617:2621   */\n      0xa0\n        /* \"#utility.yul\":2612:2615   */\n      dup6\n        /* \"#utility.yul\":2608:2622   */\n      add\n        /* \"#utility.yul\":2594:2606   */\n      dup3\n        /* \"#utility.yul\":2560:2623   */\n      tag_334\n      jump\t// in\n    tag_436:\n        /* \"#utility.yul\":2468:2633   */\n      pop\n        /* \"#utility.yul\":1505:2640   */\n      pop\n        /* \"#utility.yul\":1395:2640   */\n      pop\n      pop\n      jump\t// out\n        /* \"#utility.yul\":2646:2933   */\n    tag_341:\n        /* \"#utility.yul\":2769:2779   */\n      0x00\n        /* \"#utility.yul\":2790:2890   */\n      tag_438\n        /* \"#utility.yul\":2886:2889   */\n      dup4\n        /* \"#utility.yul\":2878:2884   */\n      dup4\n        /* \"#utility.yul\":2790:2890   */\n      tag_340\n      jump\t// in\n    tag_438:\n        /* \"#utility.yul\":2922:2926   */\n      0xc0\n        /* \"#utility.yul\":2917:2920   */\n      dup4\n        /* \"#utility.yul\":2913:2927   */\n      add\n        /* \"#utility.yul\":2899:2927   */\n      swap1\n      pop\n        /* \"#utility.yul\":2646:2933   */\n      swap3\n      swap2\n      pop\n      pop\n      jump\t// out\n        /* \"#utility.yul\":2939:3079   */\n    tag_342:\n        /* \"#utility.yul\":3036:3040   */\n      0x00\n        /* \"#utility.yul\":3068:3072   */\n      0x20\n        /* \"#utility.yul\":3063:3066   */\n      dup3\n        /* \"#utility.yul\":3059:3073   */\n      add\n        /* \"#utility.yul\":3051:3073   */\n      swap1\n      pop\n        /* \"#utility.yul\":2939:3079   */\n      swap2\n      swap1\n      pop\n      jump\t// out\n        /* \"#utility.yul\":3155:4103   */\n    tag_343:\n        /* \"#utility.yul\":3328:3331   */\n      0x00\n        /* \"#utility.yul\":3357:3438   */\n      tag_441\n        /* \"#utility.yul\":3432:3437   */\n      dup3\n        /* \"#utility.yul\":3357:3438   */\n      tag_330\n      jump\t// in\n    tag_441:\n        /* \"#utility.yul\":3454:3567   */\n      tag_442\n        /* \"#utility.yul\":3560:3566   */\n      dup2\n        /* \"#utility.yul\":3555:3558   */\n      dup6\n        /* \"#utility.yul\":3454:3567   */\n      tag_331\n      jump\t// in\n    tag_442:\n        /* \"#utility.yul\":3447:3567   */\n      swap4\n      pop\n        /* \"#utility.yul\":3591:3674   */\n      tag_443\n        /* \"#utility.yul\":3668:3673   */\n      dup4\n        /* \"#utility.yul\":3591:3674   */\n      tag_332\n      jump\t// in\n    tag_443:\n        /* \"#utility.yul\":3697:3704   */\n      dup1\n        /* \"#utility.yul\":3728:3729   */\n      0x00\n        /* \"#utility.yul\":3713:4078   */\n    tag_444:\n        /* \"#utility.yul\":3738:3744   */\n      dup4\n        /* \"#utility.yul\":3735:3736   */\n      dup2\n        /* \"#utility.yul\":3732:3745   */\n      lt\n        /* \"#utility.yul\":3713:4078   */\n      iszero\n      tag_446\n      jumpi\n        /* \"#utility.yul\":3814:3820   */\n      dup2\n        /* \"#utility.yul\":3808:3821   */\n      mload\n        /* \"#utility.yul\":3841:3958   */\n      tag_447\n        /* \"#utility.yul\":3954:3957   */\n      dup9\n        /* \"#utility.yul\":3939:3952   */\n      dup3\n        /* \"#utility.yul\":3841:3958   */\n      tag_341\n      jump\t// in\n    tag_447:\n        /* \"#utility.yul\":3834:3958   */\n      swap8\n      pop\n        /* \"#utility.yul\":3981:4068   */\n      tag_448\n        /* \"#utility.yul\":4061:4067   */\n      dup4\n        /* \"#utility.yul\":3981:4068   */\n      tag_342\n      jump\t// in\n    tag_448:\n        /* \"#utility.yul\":3971:4068   */\n      swap3\n      pop\n        /* \"#utility.yul\":3773:4078   */\n      pop\n        /* \"#utility.yul\":3760:3761   */\n      0x01\n        /* \"#utility.yul\":3757:3758   */\n      dup2\n        /* \"#utility.yul\":3753:3762   */\n      add\n        /* \"#utility.yul\":3748:3762   */\n      swap1\n      pop\n        /* \"#utility.yul\":3713:4078   */\n      jump(tag_444)\n    tag_446:\n        /* \"#utility.yul\":3717:3731   */\n      pop\n        /* \"#utility.yul\":4094:4097   */\n      dup6\n        /* \"#utility.yul\":4087:4097   */\n      swap4\n      pop\n        /* \"#utility.yul\":3333:4103   */\n      pop\n      pop\n      pop\n        /* \"#utility.yul\":3155:4103   */\n      swap3\n      swap2\n      pop\n      pop\n      jump\t// out\n        /* \"#utility.yul\":4109:4590   */\n    tag_27:\n        /* \"#utility.yul\":4306:4310   */\n      0x00\n        /* \"#utility.yul\":4344:4346   */\n      0x20\n        /* \"#utility.yul\":4333:4342   */\n      dup3\n        /* \"#utility.yul\":4329:4347   */\n      add\n        /* \"#utility.yul\":4321:4347   */\n      swap1\n      pop\n        /* \"#utility.yul\":4393:4402   */\n      dup2\n        /* \"#utility.yul\":4387:4391   */\n      dup2\n        /* \"#utility.yul\":4383:4403   */\n      sub\n        /* \"#utility.yul\":4379:4380   */\n      0x00\n        /* \"#utility.yul\":4368:4377   */\n      dup4\n        /* \"#utility.yul\":4364:4381   */\n      add\n        /* \"#utility.yul\":4357:4404   */\n      mstore\n        /* \"#utility.yul\":4421:4583   */\n      tag_450\n        /* \"#utility.yul\":4578:4582   */\n      dup2\n        /* \"#utility.yul\":4569:4575   */\n      dup5\n        /* \"#utility.yul\":4421:4583   */\n      tag_343\n      jump\t// in\n    tag_450:\n        /* \"#utility.yul\":4413:4583   */\n      swap1\n      pop\n        /* \"#utility.yul\":4109:4590   */\n      swap3\n      swap2\n      pop\n      pop\n      jump\t// out\n        /* \"#utility.yul\":4596:4656   */\n    tag_344:\n        /* \"#utility.yul\":4624:4627   */\n      0x00\n        /* \"#utility.yul\":4645:4650   */\n      dup2\n        /* \"#utility.yul\":4638:4650   */\n      swap1\n      pop\n        /* \"#utility.yul\":4596:4656   */\n      swap2\n      swap1\n      pop\n      jump\t// out\n        /* \"#utility.yul\":4662:4804   */\n    tag_345:\n        /* \"#utility.yul\":4712:4721   */\n      0x00\n        /* \"#utility.yul\":4745:4798   */\n      tag_453\n        /* \"#utility.yul\":4763:4797   */\n      tag_454\n        /* \"#utility.yul\":4772:4796   */\n      tag_455\n        /* \"#utility.yul\":4790:4795   */\n      dup5\n        /* \"#utility.yul\":4772:4796   */\n      tag_335\n      jump\t// in\n    tag_455:\n        /* \"#utility.yul\":4763:4797   */\n      tag_344\n      jump\t// in\n    tag_454:\n        /* \"#utility.yul\":4745:4798   */\n      tag_335\n      jump\t// in\n    tag_453:\n        /* \"#utility.yul\":4732:4798   */\n      swap1\n      pop\n        /* \"#utility.yul\":4662:4804   */\n      swap2\n      swap1\n      pop\n      jump\t// out\n        /* \"#utility.yul\":4810:4936   */\n    tag_346:\n        /* \"#utility.yul\":4860:4869   */\n      0x00\n        /* \"#utility.yul\":4893:4930   */\n      tag_457\n        /* \"#utility.yul\":4924:4929   */\n      dup3\n        /* \"#utility.yul\":4893:4930   */\n      tag_345\n      jump\t// in\n    tag_457:\n        /* \"#utility.yul\":4880:4930   */\n      swap1\n      pop\n        /* \"#utility.yul\":4810:4936   */\n      swap2\n      swap1\n      pop\n      jump\t// out\n        /* \"#utility.yul\":4942:5082   */\n    tag_347:\n        /* \"#utility.yul\":5006:5015   */\n      0x00\n        /* \"#utility.yul\":5039:5076   */\n      tag_459\n        /* \"#utility.yul\":5070:5075   */\n      dup3\n        /* \"#utility.yul\":5039:5076   */\n      tag_346\n      jump\t// in\n    tag_459:\n        /* \"#utility.yul\":5026:5076   */\n      swap1\n      pop\n        /* \"#utility.yul\":4942:5082   */\n      swap2\n      swap1\n      pop\n      jump\t// out\n        /* \"#utility.yul\":5088:5247   */\n    tag_348:\n        /* \"#utility.yul\":5189:5240   */\n      tag_461\n        /* \"#utility.yul\":5234:5239   */\n      dup2\n        /* \"#utility.yul\":5189:5240   */\n      tag_347\n      jump\t// in\n    tag_461:\n        /* \"#utility.yul\":5184:5187   */\n      dup3\n        /* \"#utility.yul\":5177:5241   */\n      mstore\n        /* \"#utility.yul\":5088:5247   */\n      pop\n      pop\n      jump\t// out\n        /* \"#utility.yul\":5253:5503   */\n    tag_32:\n        /* \"#utility.yul\":5360:5364   */\n      0x00\n        /* \"#utility.yul\":5398:5400   */\n      0x20\n        /* \"#utility.yul\":5387:5396   */\n      dup3\n        /* \"#utility.yul\":5383:5401   */\n      add\n        /* \"#utility.yul\":5375:5401   */\n      swap1\n      pop\n        /* \"#utility.yul\":5411:5496   */\n      tag_463\n        /* \"#utility.yul\":5493:5494   */\n      0x00\n        /* \"#utility.yul\":5482:5491   */\n      dup4\n        /* \"#utility.yul\":5478:5495   */\n      add\n        /* \"#utility.yul\":5469:5475   */\n      dup5\n        /* \"#utility.yul\":5411:5496   */\n      tag_348\n      jump\t// in\n    tag_463:\n        /* \"#utility.yul\":5253:5503   */\n      swap3\n      swap2\n      pop\n      pop\n      jump\t// out\n        /* \"#utility.yul\":5590:5707   */\n    tag_350:\n        /* \"#utility.yul\":5699:5700   */\n      0x00\n        /* \"#utility.yul\":5696:5697   */\n      dup1\n        /* \"#utility.yul\":5689:5701   */\n      revert\n        /* \"#utility.yul\":5836:5958   */\n    tag_352:\n        /* \"#utility.yul\":5909:5933   */\n      tag_468\n        /* \"#utility.yul\":5927:5932   */\n      dup2\n        /* \"#utility.yul\":5909:5933   */\n      tag_333\n      jump\t// in\n    tag_468:\n        /* \"#utility.yul\":5902:5907   */\n      dup2\n        /* \"#utility.yul\":5899:5934   */\n      eq\n        /* \"#utility.yul\":5889:5952   */\n      tag_469\n      jumpi\n        /* \"#utility.yul\":5948:5949   */\n      0x00\n        /* \"#utility.yul\":5945:5946   */\n      dup1\n        /* \"#utility.yul\":5938:5950   */\n      revert\n        /* \"#utility.yul\":5889:5952   */\n    tag_469:\n        /* \"#utility.yul\":5836:5958   */\n      pop\n      jump\t// out\n        /* \"#utility.yul\":5964:6103   */\n    tag_353:\n        /* \"#utility.yul\":6010:6015   */\n      0x00\n        /* \"#utility.yul\":6048:6054   */\n      dup2\n        /* \"#utility.yul\":6035:6055   */\n      calldataload\n        /* \"#utility.yul\":6026:6055   */\n      swap1\n      pop\n        /* \"#utility.yul\":6064:6097   */\n      tag_471\n        /* \"#utility.yul\":6091:6096   */\n      dup2\n        /* \"#utility.yul\":6064:6097   */\n      tag_352\n      jump\t// in\n    tag_471:\n        /* \"#utility.yul\":5964:6103   */\n      swap3\n      swap2\n      pop\n      pop\n      jump\t// out\n        /* \"#utility.yul\":6109:6438   */\n    tag_40:\n        /* \"#utility.yul\":6168:6174   */\n      0x00\n        /* \"#utility.yul\":6217:6219   */\n      0x20\n        /* \"#utility.yul\":6205:6214   */\n      dup3\n        /* \"#utility.yul\":6196:6203   */\n      dup5\n        /* \"#utility.yul\":6192:6215   */\n      sub\n        /* \"#utility.yul\":6188:6220   */\n      slt\n        /* \"#utility.yul\":6185:6304   */\n      iszero\n      tag_473\n      jumpi\n        /* \"#utility.yul\":6223:6302   */\n      tag_474\n      tag_350\n      jump\t// in\n    tag_474:\n        /* \"#utility.yul\":6185:6304   */\n    tag_473:\n        /* \"#utility.yul\":6343:6344   */\n      0x00\n        /* \"#utility.yul\":6368:6421   */\n      tag_475\n        /* \"#utility.yul\":6413:6420   */\n      dup5\n        /* \"#utility.yul\":6404:6410   */\n      dup3\n        /* \"#utility.yul\":6393:6402   */\n      dup6\n        /* \"#utility.yul\":6389:6411   */\n      add\n        /* \"#utility.yul\":6368:6421   */\n      tag_353\n      jump\t// in\n    tag_475:\n        /* \"#utility.yul\":6358:6421   */\n      swap2\n      pop\n        /* \"#utility.yul\":6314:6431   */\n      pop\n        /* \"#utility.yul\":6109:6438   */\n      swap3\n      swap2\n      pop\n      pop\n      jump\t// out\n        /* \"#utility.yul\":6510:7765   */\n    tag_354:\n        /* \"#utility.yul\":6661:6665   */\n      0xc0\n        /* \"#utility.yul\":6656:6659   */\n      dup3\n        /* \"#utility.yul\":6652:6666   */\n      add\n        /* \"#utility.yul\":6750:6754   */\n      0x00\n        /* \"#utility.yul\":6743:6748   */\n      dup3\n        /* \"#utility.yul\":6739:6755   */\n      add\n        /* \"#utility.yul\":6733:6756   */\n      mload\n        /* \"#utility.yul\":6769:6832   */\n      tag_477\n        /* \"#utility.yul\":6826:6830   */\n      0x00\n        /* \"#utility.yul\":6821:6824   */\n      dup6\n        /* \"#utility.yul\":6817:6831   */\n      add\n        /* \"#utility.yul\":6803:6815   */\n      dup3\n        /* \"#utility.yul\":6769:6832   */\n      tag_334\n      jump\t// in\n    tag_477:\n        /* \"#utility.yul\":6676:6842   */\n      pop\n        /* \"#utility.yul\":6931:6935   */\n      0x20\n        /* \"#utility.yul\":6924:6929   */\n      dup3\n        /* \"#utility.yul\":6920:6936   */\n      add\n        /* \"#utility.yul\":6914:6937   */\n      mload\n        /* \"#utility.yul\":6950:7013   */\n      tag_478\n        /* \"#utility.yul\":7007:7011   */\n      0x20\n        /* \"#utility.yul\":7002:7005   */\n      dup6\n        /* \"#utility.yul\":6998:7012   */\n      add\n        /* \"#utility.yul\":6984:6996   */\n      dup3\n        /* \"#utility.yul\":6950:7013   */\n      tag_337\n      jump\t// in\n    tag_478:\n        /* \"#utility.yul\":6852:7023   */\n      pop\n        /* \"#utility.yul\":7108:7112   */\n      0x40\n        /* \"#utility.yul\":7101:7106   */\n      dup3\n        /* \"#utility.yul\":7097:7113   */\n      add\n        /* \"#utility.yul\":7091:7114   */\n      mload\n        /* \"#utility.yul\":7127:7190   */\n      tag_479\n        /* \"#utility.yul\":7184:7188   */\n      0x40\n        /* \"#utility.yul\":7179:7182   */\n      dup6\n        /* \"#utility.yul\":7175:7189   */\n      add\n        /* \"#utility.yul\":7161:7173   */\n      dup3\n        /* \"#utility.yul\":7127:7190   */\n      tag_334\n      jump\t// in\n    tag_479:\n        /* \"#utility.yul\":7033:7200   */\n      pop\n        /* \"#utility.yul\":7284:7288   */\n      0x60\n        /* \"#utility.yul\":7277:7282   */\n      dup3\n        /* \"#utility.yul\":7273:7289   */\n      add\n        /* \"#utility.yul\":7267:7290   */\n      mload\n        /* \"#utility.yul\":7303:7382   */\n      tag_480\n        /* \"#utility.yul\":7376:7380   */\n      0x60\n        /* \"#utility.yul\":7371:7374   */\n      dup6\n        /* \"#utility.yul\":7367:7381   */\n      add\n        /* \"#utility.yul\":7353:7365   */\n      dup3\n        /* \"#utility.yul\":7303:7382   */\n      tag_339\n      jump\t// in\n    tag_480:\n        /* \"#utility.yul\":7210:7392   */\n      pop\n        /* \"#utility.yul\":7475:7479   */\n      0x80\n        /* \"#utility.yul\":7468:7473   */\n      dup3\n        /* \"#utility.yul\":7464:7480   */\n      add\n        /* \"#utility.yul\":7458:7481   */\n      mload\n        /* \"#utility.yul\":7494:7573   */\n      tag_481\n        /* \"#utility.yul\":7567:7571   */\n      0x80\n        /* \"#utility.yul\":7562:7565   */\n      dup6\n        /* \"#utility.yul\":7558:7572   */\n      add\n        /* \"#utility.yul\":7544:7556   */\n      dup3\n        /* \"#utility.yul\":7494:7573   */\n      tag_339\n      jump\t// in\n    tag_481:\n        /* \"#utility.yul\":7402:7583   */\n      pop\n        /* \"#utility.yul\":7666:7670   */\n      0xa0\n        /* \"#utility.yul\":7659:7664   */\n      dup3\n        /* \"#utility.yul\":7655:7671   */\n      add\n        /* \"#utility.yul\":7649:7672   */\n      mload\n        /* \"#utility.yul\":7685:7748   */\n      tag_482\n        /* \"#utility.yul\":7742:7746   */\n      0xa0\n        /* \"#utility.yul\":7737:7740   */\n      dup6\n        /* \"#utility.yul\":7733:7747   */\n      add\n        /* \"#utility.yul\":7719:7731   */\n      dup3\n        /* \"#utility.yul\":7685:7748   */\n      tag_334\n      jump\t// in\n    tag_482:\n        /* \"#utility.yul\":7593:7758   */\n      pop\n        /* \"#utility.yul\":6630:7765   */\n      pop\n        /* \"#utility.yul\":6510:7765   */\n      pop\n      pop\n      jump\t// out\n        /* \"#utility.yul\":7771:8102   */\n    tag_43:\n        /* \"#utility.yul\":7918:7922   */\n      0x00\n        /* \"#utility.yul\":7956:7959   */\n      0xc0\n        /* \"#utility.yul\":7945:7954   */\n      dup3\n        /* \"#utility.yul\":7941:7960   */\n      add\n        /* \"#utility.yul\":7933:7960   */\n      swap1\n      pop\n        /* \"#utility.yul\":7970:8095   */\n      tag_484\n        /* \"#utility.yul\":8092:8093   */\n      0x00\n        /* \"#utility.yul\":8081:8090   */\n      dup4\n        /* \"#utility.yul\":8077:8094   */\n      add\n        /* \"#utility.yul\":8068:8074   */\n      dup5\n        /* \"#utility.yul\":7970:8095   */\n      tag_354\n      jump\t// in\n    tag_484:\n        /* \"#utility.yul\":7771:8102   */\n      swap3\n      swap2\n      pop\n      pop\n      jump\t// out\n        /* \"#utility.yul\":8108:8257   */\n    tag_355:\n        /* \"#utility.yul\":8144:8151   */\n      0x00\n        /* \"#utility.yul\":8184:8250   */\n      0xffffffff00000000000000000000000000000000000000000000000000000000\n        /* \"#utility.yul\":8177:8182   */\n      dup3\n        /* \"#utility.yul\":8173:8251   */\n      and\n        /* \"#utility.yul\":8162:8251   */\n      swap1\n      pop\n        /* \"#utility.yul\":8108:8257   */\n      swap2\n      swap1\n      pop\n      jump\t// out\n        /* \"#utility.yul\":8263:8378   */\n    tag_356:\n        /* \"#utility.yul\":8348:8371   */\n      tag_487\n        /* \"#utility.yul\":8365:8370   */\n      dup2\n        /* \"#utility.yul\":8348:8371   */\n      tag_355\n      jump\t// in\n    tag_487:\n        /* \"#utility.yul\":8343:8346   */\n      dup3\n        /* \"#utility.yul\":8336:8372   */\n      mstore\n        /* \"#utility.yul\":8263:8378   */\n      pop\n      pop\n      jump\t// out\n        /* \"#utility.yul\":8384:8602   */\n    tag_48:\n        /* \"#utility.yul\":8475:8479   */\n      0x00\n        /* \"#utility.yul\":8513:8515   */\n      0x20\n        /* \"#utility.yul\":8502:8511   */\n      dup3\n        /* \"#utility.yul\":8498:8516   */\n      add\n        /* \"#utility.yul\":8490:8516   */\n      swap1\n      pop\n        /* \"#utility.yul\":8526:8595   */\n      tag_489\n        /* \"#utility.yul\":8592:8593   */\n      0x00\n        /* \"#utility.yul\":8581:8590   */\n      dup4\n        /* \"#utility.yul\":8577:8594   */\n      add\n        /* \"#utility.yul\":8568:8574   */\n      dup5\n        /* \"#utility.yul\":8526:8595   */\n      tag_356\n      jump\t// in\n    tag_489:\n        /* \"#utility.yul\":8384:8602   */\n      swap3\n      swap2\n      pop\n      pop\n      jump\t// out\n        /* \"#utility.yul\":8608:8730   */\n    tag_357:\n        /* \"#utility.yul\":8681:8705   */\n      tag_491\n        /* \"#utility.yul\":8699:8704   */\n      dup2\n        /* \"#utility.yul\":8681:8705   */\n      tag_336\n      jump\t// in\n    tag_491:\n        /* \"#utility.yul\":8674:8679   */\n      dup2\n        /* \"#utility.yul\":8671:8706   */\n      eq\n        /* \"#utility.yul\":8661:8724   */\n      tag_492\n      jumpi\n        /* \"#utility.yul\":8720:8721   */\n      0x00\n        /* \"#utility.yul\":8717:8718   */\n      dup1\n        /* \"#utility.yul\":8710:8722   */\n      revert\n        /* \"#utility.yul\":8661:8724   */\n    tag_492:\n        /* \"#utility.yul\":8608:8730   */\n      pop\n      jump\t// out\n        /* \"#utility.yul\":8736:8875   */\n    tag_358:\n        /* \"#utility.yul\":8782:8787   */\n      0x00\n        /* \"#utility.yul\":8820:8826   */\n      dup2\n        /* \"#utility.yul\":8807:8827   */\n      calldataload\n        /* \"#utility.yul\":8798:8827   */\n      swap1\n      pop\n        /* \"#utility.yul\":8836:8869   */\n      tag_494\n        /* \"#utility.yul\":8863:8868   */\n      dup2\n        /* \"#utility.yul\":8836:8869   */\n      tag_357\n      jump\t// in\n    tag_494:\n        /* \"#utility.yul\":8736:8875   */\n      swap3\n      swap2\n      pop\n      pop\n      jump\t// out\n        /* \"#utility.yul\":8881:9500   */\n    tag_52:\n        /* \"#utility.yul\":8958:8964   */\n      0x00\n        /* \"#utility.yul\":8966:8972   */\n      dup1\n        /* \"#utility.yul\":8974:8980   */\n      0x00\n        /* \"#utility.yul\":9023:9025   */\n      0x60\n        /* \"#utility.yul\":9011:9020   */\n      dup5\n        /* \"#utility.yul\":9002:9009   */\n      dup7\n        /* \"#utility.yul\":8998:9021   */\n      sub\n        /* \"#utility.yul\":8994:9026   */\n      slt\n        /* \"#utility.yul\":8991:9110   */\n      iszero\n      tag_496\n      jumpi\n        /* \"#utility.yul\":9029:9108   */\n      tag_497\n      tag_350\n      jump\t// in\n    tag_497:\n        /* \"#utility.yul\":8991:9110   */\n    tag_496:\n        /* \"#utility.yul\":9149:9150   */\n      0x00\n        /* \"#utility.yul\":9174:9227   */\n      tag_498\n        /* \"#utility.yul\":9219:9226   */\n      dup7\n        /* \"#utility.yul\":9210:9216   */\n      dup3\n        /* \"#utility.yul\":9199:9208   */\n      dup8\n        /* \"#utility.yul\":9195:9217   */\n      add\n        /* \"#utility.yul\":9174:9227   */\n      tag_358\n      jump\t// in\n    tag_498:\n        /* \"#utility.yul\":9164:9227   */\n      swap4\n      pop\n        /* \"#utility.yul\":9120:9237   */\n      pop\n        /* \"#utility.yul\":9276:9278   */\n      0x20\n        /* \"#utility.yul\":9302:9355   */\n      tag_499\n        /* \"#utility.yul\":9347:9354   */\n      dup7\n        /* \"#utility.yul\":9338:9344   */\n      dup3\n        /* \"#utility.yul\":9327:9336   */\n      dup8\n        /* \"#utility.yul\":9323:9345   */\n      add\n        /* \"#utility.yul\":9302:9355   */\n      tag_353\n      jump\t// in\n    tag_499:\n        /* \"#utility.yul\":9292:9355   */\n      swap3\n      pop\n        /* \"#utility.yul\":9247:9365   */\n      pop\n        /* \"#utility.yul\":9404:9406   */\n      0x40\n        /* \"#utility.yul\":9430:9483   */\n      tag_500\n        /* \"#utility.yul\":9475:9482   */\n      dup7\n        /* \"#utility.yul\":9466:9472   */\n      dup3\n        /* \"#utility.yul\":9455:9464   */\n      dup8\n        /* \"#utility.yul\":9451:9473   */\n      add\n        /* \"#utility.yul\":9430:9483   */\n      tag_358\n      jump\t// in\n    tag_500:\n        /* \"#utility.yul\":9420:9483   */\n      swap2\n      pop\n        /* \"#utility.yul\":9375:9493   */\n      pop\n        /* \"#utility.yul\":8881:9500   */\n      swap3\n      pop\n      swap3\n      pop\n      swap3\n      jump\t// out\n        /* \"#utility.yul\":9506:9583   */\n    tag_359:\n        /* \"#utility.yul\":9543:9550   */\n      0x00\n        /* \"#utility.yul\":9572:9577   */\n      dup2\n        /* \"#utility.yul\":9561:9577   */\n      swap1\n      pop\n        /* \"#utility.yul\":9506:9583   */\n      swap2\n      swap1\n      pop\n      jump\t// out\n        /* \"#utility.yul\":9589:9707   */\n    tag_360:\n        /* \"#utility.yul\":9676:9700   */\n      tag_503\n        /* \"#utility.yul\":9694:9699   */\n      dup2\n        /* \"#utility.yul\":9676:9700   */\n      tag_359\n      jump\t// in\n    tag_503:\n        /* \"#utility.yul\":9671:9674   */\n      dup3\n        /* \"#utility.yul\":9664:9701   */\n      mstore\n        /* \"#utility.yul\":9589:9707   */\n      pop\n      pop\n      jump\t// out\n        /* \"#utility.yul\":9713:9831   */\n    tag_361:\n        /* \"#utility.yul\":9800:9824   */\n      tag_505\n        /* \"#utility.yul\":9818:9823   */\n      dup2\n        /* \"#utility.yul\":9800:9824   */\n      tag_333\n      jump\t// in\n    tag_505:\n        /* \"#utility.yul\":9795:9798   */\n      dup3\n        /* \"#utility.yul\":9788:9825   */\n      mstore\n        /* \"#utility.yul\":9713:9831   */\n      pop\n      pop\n      jump\t// out\n        /* \"#utility.yul\":9837:10169   */\n    tag_55:\n        /* \"#utility.yul\":9958:9962   */\n      0x00\n        /* \"#utility.yul\":9996:9998   */\n      0x40\n        /* \"#utility.yul\":9985:9994   */\n      dup3\n        /* \"#utility.yul\":9981:9999   */\n      add\n        /* \"#utility.yul\":9973:9999   */\n      swap1\n      pop\n        /* \"#utility.yul\":10009:10080   */\n      tag_507\n        /* \"#utility.yul\":10077:10078   */\n      0x00\n        /* \"#utility.yul\":10066:10075   */\n      dup4\n        /* \"#utility.yul\":10062:10079   */\n      add\n        /* \"#utility.yul\":10053:10059   */\n      dup6\n        /* \"#utility.yul\":10009:10080   */\n      tag_360\n      jump\t// in\n    tag_507:\n        /* \"#utility.yul\":10090:10162   */\n      tag_508\n        /* \"#utility.yul\":10158:10160   */\n      0x20\n        /* \"#utility.yul\":10147:10156   */\n      dup4\n        /* \"#utility.yul\":10143:10161   */\n      add\n        /* \"#utility.yul\":10134:10140   */\n      dup5\n        /* \"#utility.yul\":10090:10162   */\n      tag_361\n      jump\t// in\n    tag_508:\n        /* \"#utility.yul\":9837:10169   */\n      swap4\n      swap3\n      pop\n      pop\n      pop\n      jump\t// out\n        /* \"#utility.yul\":10175:10794   */\n    tag_58:\n        /* \"#utility.yul\":10252:10258   */\n      0x00\n        /* \"#utility.yul\":10260:10266   */\n      dup1\n        /* \"#utility.yul\":10268:10274   */\n      0x00\n        /* \"#utility.yul\":10317:10319   */\n      0x60\n        /* \"#utility.yul\":10305:10314   */\n      dup5\n        /* \"#utility.yul\":10296:10303   */\n      dup7\n        /* \"#utility.yul\":10292:10315   */\n      sub\n        /* \"#utility.yul\":10288:10320   */\n      slt\n        /* \"#utility.yul\":10285:10404   */\n      iszero\n      tag_510\n      jumpi\n        /* \"#utility.yul\":10323:10402   */\n      tag_511\n      tag_350\n      jump\t// in\n    tag_511:\n        /* \"#utility.yul\":10285:10404   */\n    tag_510:\n        /* \"#utility.yul\":10443:10444   */\n      0x00\n        /* \"#utility.yul\":10468:10521   */\n      tag_512\n        /* \"#utility.yul\":10513:10520   */\n      dup7\n        /* \"#utility.yul\":10504:10510   */\n      dup3\n        /* \"#utility.yul\":10493:10502   */\n      dup8\n        /* \"#utility.yul\":10489:10511   */\n      add\n        /* \"#utility.yul\":10468:10521   */\n      tag_358\n      jump\t// in\n    tag_512:\n        /* \"#utility.yul\":10458:10521   */\n      swap4\n      pop\n        /* \"#utility.yul\":10414:10531   */\n      pop\n        /* \"#utility.yul\":10570:10572   */\n      0x20\n        /* \"#utility.yul\":10596:10649   */\n      tag_513\n        /* \"#utility.yul\":10641:10648   */\n      dup7\n        /* \"#utility.yul\":10632:10638   */\n      dup3\n        /* \"#utility.yul\":10621:10630   */\n      dup8\n        /* \"#utility.yul\":10617:10639   */\n      add\n        /* \"#utility.yul\":10596:10649   */\n      tag_353\n      jump\t// in\n    tag_513:\n        /* \"#utility.yul\":10586:10649   */\n      swap3\n      pop\n        /* \"#utility.yul\":10541:10659   */\n      pop\n        /* \"#utility.yul\":10698:10700   */\n      0x40\n        /* \"#utility.yul\":10724:10777   */\n      tag_514\n        /* \"#utility.yul\":10769:10776   */\n      dup7\n        /* \"#utility.yul\":10760:10766   */\n      dup3\n        /* \"#utility.yul\":10749:10758   */\n      dup8\n        /* \"#utility.yul\":10745:10767   */\n      add\n        /* \"#utility.yul\":10724:10777   */\n      tag_353\n      jump\t// in\n    tag_514:\n        /* \"#utility.yul\":10714:10777   */\n      swap2\n      pop\n        /* \"#utility.yul\":10669:10787   */\n      pop\n        /* \"#utility.yul\":10175:10794   */\n      swap3\n      pop\n      swap3\n      pop\n      swap3\n      jump\t// out\n        /* \"#utility.yul\":10800:11274   */\n    tag_63:\n        /* \"#utility.yul\":10868:10874   */\n      0x00\n        /* \"#utility.yul\":10876:10882   */\n      dup1\n        /* \"#utility.yul\":10925:10927   */\n      0x40\n        /* \"#utility.yul\":10913:10922   */\n      dup4\n        /* \"#utility.yul\":10904:10911   */\n      dup6\n        /* \"#utility.yul\":10900:10923   */\n      sub\n        /* \"#utility.yul\":10896:10928   */\n      slt\n        /* \"#utility.yul\":10893:11012   */\n      iszero\n      tag_516\n      jumpi\n        /* \"#utility.yul\":10931:11010   */\n      tag_517\n      tag_350\n      jump\t// in\n    tag_517:\n        /* \"#utility.yul\":10893:11012   */\n    tag_516:\n        /* \"#utility.yul\":11051:11052   */\n      0x00\n        /* \"#utility.yul\":11076:11129   */\n      tag_518\n        /* \"#utility.yul\":11121:11128   */\n      dup6\n        /* \"#utility.yul\":11112:11118   */\n      dup3\n        /* \"#utility.yul\":11101:11110   */\n      dup7\n        /* \"#utility.yul\":11097:11119   */\n      add\n        /* \"#utility.yul\":11076:11129   */\n      tag_358\n      jump\t// in\n    tag_518:\n        /* \"#utility.yul\":11066:11129   */\n      swap3\n      pop\n        /* \"#utility.yul\":11022:11139   */\n      pop\n        /* \"#utility.yul\":11178:11180   */\n      0x20\n        /* \"#utility.yul\":11204:11257   */\n      tag_519\n        /* \"#utility.yul\":11249:11256   */\n      dup6\n        /* \"#utility.yul\":11240:11246   */\n      dup3\n        /* \"#utility.yul\":11229:11238   */\n      dup7\n        /* \"#utility.yul\":11225:11247   */\n      add\n        /* \"#utility.yul\":11204:11257   */\n      tag_353\n      jump\t// in\n    tag_519:\n        /* \"#utility.yul\":11194:11257   */\n      swap2\n      pop\n        /* \"#utility.yul\":11149:11267   */\n      pop\n        /* \"#utility.yul\":10800:11274   */\n      swap3\n      pop\n      swap3\n      swap1\n      pop\n      jump\t// out\n        /* \"#utility.yul\":11280:11398   */\n    tag_362:\n        /* \"#utility.yul\":11367:11391   */\n      tag_521\n        /* \"#utility.yul\":11385:11390   */\n      dup2\n        /* \"#utility.yul\":11367:11391   */\n      tag_336\n      jump\t// in\n    tag_521:\n        /* \"#utility.yul\":11362:11365   */\n      dup3\n        /* \"#utility.yul\":11355:11392   */\n      mstore\n        /* \"#utility.yul\":11280:11398   */\n      pop\n      pop\n      jump\t// out\n        /* \"#utility.yul\":11404:11584   */\n    tag_200:\n        /* \"#utility.yul\":11452:11529   */\n      0x4e487b7100000000000000000000000000000000000000000000000000000000\n        /* \"#utility.yul\":11449:11450   */\n      0x00\n        /* \"#utility.yul\":11442:11530   */\n      mstore\n        /* \"#utility.yul\":11549:11553   */\n      0x21\n        /* \"#utility.yul\":11546:11547   */\n      0x04\n        /* \"#utility.yul\":11539:11554   */\n      mstore\n        /* \"#utility.yul\":11573:11577   */\n      0x24\n        /* \"#utility.yul\":11570:11571   */\n      0x00\n        /* \"#utility.yul\":11563:11578   */\n      revert\n        /* \"#utility.yul\":11590:11709   */\n    tag_363:\n        /* \"#utility.yul\":11677:11678   */\n      0x05\n        /* \"#utility.yul\":11670:11675   */\n      dup2\n        /* \"#utility.yul\":11667:11679   */\n      lt\n        /* \"#utility.yul\":11657:11703   */\n      tag_524\n      jumpi\n        /* \"#utility.yul\":11683:11701   */\n      tag_525\n      tag_200\n      jump\t// in\n    tag_525:\n        /* \"#utility.yul\":11657:11703   */\n    tag_524:\n        /* \"#utility.yul\":11590:11709   */\n      pop\n      jump\t// out\n        /* \"#utility.yul\":11715:11854   */\n    tag_364:\n        /* \"#utility.yul\":11766:11773   */\n      0x00\n        /* \"#utility.yul\":11795:11800   */\n      dup2\n        /* \"#utility.yul\":11784:11800   */\n      swap1\n      pop\n        /* \"#utility.yul\":11801:11848   */\n      tag_527\n        /* \"#utility.yul\":11842:11847   */\n      dup3\n        /* \"#utility.yul\":11801:11848   */\n      tag_363\n      jump\t// in\n    tag_527:\n        /* \"#utility.yul\":11715:11854   */\n      swap2\n      swap1\n      pop\n      jump\t// out\n        /* \"#utility.yul\":11860:11999   */\n    tag_365:\n        /* \"#utility.yul\":11922:11931   */\n      0x00\n        /* \"#utility.yul\":11955:11993   */\n      tag_529\n        /* \"#utility.yul\":11987:11992   */\n      dup3\n        /* \"#utility.yul\":11955:11993   */\n      tag_364\n      jump\t// in\n    tag_529:\n        /* \"#utility.yul\":11942:11993   */\n      swap1\n      pop\n        /* \"#utility.yul\":11860:11999   */\n      swap2\n      swap1\n      pop\n      jump\t// out\n        /* \"#utility.yul\":12005:12160   */\n    tag_366:\n        /* \"#utility.yul\":12104:12153   */\n      tag_531\n        /* \"#utility.yul\":12147:12152   */\n      dup2\n        /* \"#utility.yul\":12104:12153   */\n      tag_365\n      jump\t// in\n    tag_531:\n        /* \"#utility.yul\":12099:12102   */\n      dup3\n        /* \"#utility.yul\":12092:12154   */\n      mstore\n        /* \"#utility.yul\":12005:12160   */\n      pop\n      pop\n      jump\t// out\n        /* \"#utility.yul\":12166:12965   */\n    tag_66:\n        /* \"#utility.yul\":12411:12415   */\n      0x00\n        /* \"#utility.yul\":12449:12452   */\n      0xc0\n        /* \"#utility.yul\":12438:12447   */\n      dup3\n        /* \"#utility.yul\":12434:12453   */\n      add\n        /* \"#utility.yul\":12426:12453   */\n      swap1\n      pop\n        /* \"#utility.yul\":12463:12534   */\n      tag_533\n        /* \"#utility.yul\":12531:12532   */\n      0x00\n        /* \"#utility.yul\":12520:12529   */\n      dup4\n        /* \"#utility.yul\":12516:12533   */\n      add\n        /* \"#utility.yul\":12507:12513   */\n      dup10\n        /* \"#utility.yul\":12463:12534   */\n      tag_360\n      jump\t// in\n    tag_533:\n        /* \"#utility.yul\":12544:12616   */\n      tag_534\n        /* \"#utility.yul\":12612:12614   */\n      0x20\n        /* \"#utility.yul\":12601:12610   */\n      dup4\n        /* \"#utility.yul\":12597:12615   */\n      add\n        /* \"#utility.yul\":12588:12594   */\n      dup9\n        /* \"#utility.yul\":12544:12616   */\n      tag_362\n      jump\t// in\n    tag_534:\n        /* \"#utility.yul\":12626:12698   */\n      tag_535\n        /* \"#utility.yul\":12694:12696   */\n      0x40\n        /* \"#utility.yul\":12683:12692   */\n      dup4\n        /* \"#utility.yul\":12679:12697   */\n      add\n        /* \"#utility.yul\":12670:12676   */\n      dup8\n        /* \"#utility.yul\":12626:12698   */\n      tag_362\n      jump\t// in\n    tag_535:\n        /* \"#utility.yul\":12708:12780   */\n      tag_536\n        /* \"#utility.yul\":12776:12778   */\n      0x60\n        /* \"#utility.yul\":12765:12774   */\n      dup4\n        /* \"#utility.yul\":12761:12779   */\n      add\n        /* \"#utility.yul\":12752:12758   */\n      dup7\n        /* \"#utility.yul\":12708:12780   */\n      tag_361\n      jump\t// in\n    tag_536:\n        /* \"#utility.yul\":12790:12863   */\n      tag_537\n        /* \"#utility.yul\":12858:12861   */\n      0x80\n        /* \"#utility.yul\":12847:12856   */\n      dup4\n        /* \"#utility.yul\":12843:12862   */\n      add\n        /* \"#utility.yul\":12834:12840   */\n      dup6\n        /* \"#utility.yul\":12790:12863   */\n      tag_361\n      jump\t// in\n    tag_537:\n        /* \"#utility.yul\":12873:12958   */\n      tag_538\n        /* \"#utility.yul\":12953:12956   */\n      0xa0\n        /* \"#utility.yul\":12942:12951   */\n      dup4\n        /* \"#utility.yul\":12938:12957   */\n      add\n        /* \"#utility.yul\":12929:12935   */\n      dup5\n        /* \"#utility.yul\":12873:12958   */\n      tag_366\n      jump\t// in\n    tag_538:\n        /* \"#utility.yul\":12166:12965   */\n      swap8\n      swap7\n      pop\n      pop\n      pop\n      pop\n      pop\n      pop\n      pop\n      jump\t// out\n        /* \"#utility.yul\":12971:13057   */\n    tag_367:\n        /* \"#utility.yul\":13006:13013   */\n      0x00\n        /* \"#utility.yul\":13046:13050   */\n      0xff\n        /* \"#utility.yul\":13039:13044   */\n      dup3\n        /* \"#utility.yul\":13035:13051   */\n      and\n        /* \"#utility.yul\":13024:13051   */\n      swap1\n      pop\n        /* \"#utility.yul\":12971:13057   */\n      swap2\n      swap1\n      pop\n      jump\t// out\n        /* \"#utility.yul\":13063:13175   */\n    tag_368:\n        /* \"#utility.yul\":13146:13168   */\n      tag_541\n        /* \"#utility.yul\":13162:13167   */\n      dup2\n        /* \"#utility.yul\":13146:13168   */\n      tag_367\n      jump\t// in\n    tag_541:\n        /* \"#utility.yul\":13141:13144   */\n      dup3\n        /* \"#utility.yul\":13134:13169   */\n      mstore\n        /* \"#utility.yul\":13063:13175   */\n      pop\n      pop\n      jump\t// out\n        /* \"#utility.yul\":13181:13395   */\n    tag_78:\n        /* \"#utility.yul\":13270:13274   */\n      0x00\n        /* \"#utility.yul\":13308:13310   */\n      0x20\n        /* \"#utility.yul\":13297:13306   */\n      dup3\n        /* \"#utility.yul\":13293:13311   */\n      add\n        /* \"#utility.yul\":13285:13311   */\n      swap1\n      pop\n        /* \"#utility.yul\":13321:13388   */\n      tag_543\n        /* \"#utility.yul\":13385:13386   */\n      0x00\n        /* \"#utility.yul\":13374:13383   */\n      dup4\n        /* \"#utility.yul\":13370:13387   */\n      add\n        /* \"#utility.yul\":13361:13367   */\n      dup5\n        /* \"#utility.yul\":13321:13388   */\n      tag_368\n      jump\t// in\n    tag_543:\n        /* \"#utility.yul\":13181:13395   */\n      swap3\n      swap2\n      pop\n      pop\n      jump\t// out\n        /* \"#utility.yul\":13401:13623   */\n    tag_83:\n        /* \"#utility.yul\":13494:13498   */\n      0x00\n        /* \"#utility.yul\":13532:13534   */\n      0x20\n        /* \"#utility.yul\":13521:13530   */\n      dup3\n        /* \"#utility.yul\":13517:13535   */\n      add\n        /* \"#utility.yul\":13509:13535   */\n      swap1\n      pop\n        /* \"#utility.yul\":13545:13616   */\n      tag_545\n        /* \"#utility.yul\":13613:13614   */\n      0x00\n        /* \"#utility.yul\":13602:13611   */\n      dup4\n        /* \"#utility.yul\":13598:13615   */\n      add\n        /* \"#utility.yul\":13589:13595   */\n      dup5\n        /* \"#utility.yul\":13545:13616   */\n      tag_362\n      jump\t// in\n    tag_545:\n        /* \"#utility.yul\":13401:13623   */\n      swap3\n      swap2\n      pop\n      pop\n      jump\t// out\n        /* \"#utility.yul\":13629:13958   */\n    tag_87:\n        /* \"#utility.yul\":13688:13694   */\n      0x00\n        /* \"#utility.yul\":13737:13739   */\n      0x20\n        /* \"#utility.yul\":13725:13734   */\n      dup3\n        /* \"#utility.yul\":13716:13723   */\n      dup5\n        /* \"#utility.yul\":13712:13735   */\n      sub\n        /* \"#utility.yul\":13708:13740   */\n      slt\n        /* \"#utility.yul\":13705:13824   */\n      iszero\n      tag_547\n      jumpi\n        /* \"#utility.yul\":13743:13822   */\n      tag_548\n      tag_350\n      jump\t// in\n    tag_548:\n        /* \"#utility.yul\":13705:13824   */\n    tag_547:\n        /* \"#utility.yul\":13863:13864   */\n      0x00\n        /* \"#utility.yul\":13888:13941   */\n      tag_549\n        /* \"#utility.yul\":13933:13940   */\n      dup5\n        /* \"#utility.yul\":13924:13930   */\n      dup3\n        /* \"#utility.yul\":13913:13922   */\n      dup6\n        /* \"#utility.yul\":13909:13931   */\n      add\n        /* \"#utility.yul\":13888:13941   */\n      tag_358\n      jump\t// in\n    tag_549:\n        /* \"#utility.yul\":13878:13941   */\n      swap2\n      pop\n        /* \"#utility.yul\":13834:13951   */\n      pop\n        /* \"#utility.yul\":13629:13958   */\n      swap3\n      swap2\n      pop\n      pop\n      jump\t// out\n        /* \"#utility.yul\":13964:14144   */\n    tag_369:\n        /* \"#utility.yul\":14012:14089   */\n      0x4e487b7100000000000000000000000000000000000000000000000000000000\n        /* \"#utility.yul\":14009:14010   */\n      0x00\n        /* \"#utility.yul\":14002:14090   */\n      mstore\n        /* \"#utility.yul\":14109:14113   */\n      0x11\n        /* \"#utility.yul\":14106:14107   */\n      0x04\n        /* \"#utility.yul\":14099:14114   */\n      mstore\n        /* \"#utility.yul\":14133:14137   */\n      0x24\n        /* \"#utility.yul\":14130:14131   */\n      0x00\n        /* \"#utility.yul\":14123:14138   */\n      revert\n        /* \"#utility.yul\":14150:14341   */\n    tag_115:\n        /* \"#utility.yul\":14190:14194   */\n      0x00\n        /* \"#utility.yul\":14210:14230   */\n      tag_552\n        /* \"#utility.yul\":14228:14229   */\n      dup3\n        /* \"#utility.yul\":14210:14230   */\n      tag_333\n      jump\t// in\n    tag_552:\n        /* \"#utility.yul\":14205:14230   */\n      swap2\n      pop\n        /* \"#utility.yul\":14244:14264   */\n      tag_553\n        /* \"#utility.yul\":14262:14263   */\n      dup4\n        /* \"#utility.yul\":14244:14264   */\n      tag_333\n      jump\t// in\n    tag_553:\n        /* \"#utility.yul\":14239:14264   */\n      swap3\n      pop\n        /* \"#utility.yul\":14283:14284   */\n      dup3\n        /* \"#utility.yul\":14280:14281   */\n      dup3\n        /* \"#utility.yul\":14277:14285   */\n      lt\n        /* \"#utility.yul\":14274:14308   */\n      iszero\n      tag_554\n      jumpi\n        /* \"#utility.yul\":14288:14306   */\n      tag_555\n      tag_369\n      jump\t// in\n    tag_555:\n        /* \"#utility.yul\":14274:14308   */\n    tag_554:\n        /* \"#utility.yul\":14333:14334   */\n      dup3\n        /* \"#utility.yul\":14330:14331   */\n      dup3\n        /* \"#utility.yul\":14326:14335   */\n      sub\n        /* \"#utility.yul\":14318:14335   */\n      swap1\n      pop\n        /* \"#utility.yul\":14150:14341   */\n      swap3\n      swap2\n      pop\n      pop\n      jump\t// out\n        /* \"#utility.yul\":14347:14527   */\n    tag_118:\n        /* \"#utility.yul\":14395:14472   */\n      0x4e487b7100000000000000000000000000000000000000000000000000000000\n        /* \"#utility.yul\":14392:14393   */\n      0x00\n        /* \"#utility.yul\":14385:14473   */\n      mstore\n        /* \"#utility.yul\":14492:14496   */\n      0x41\n        /* \"#utility.yul\":14489:14490   */\n      0x04\n        /* \"#utility.yul\":14482:14497   */\n      mstore\n        /* \"#utility.yul\":14516:14520   */\n      0x24\n        /* \"#utility.yul\":14513:14514   */\n      0x00\n        /* \"#utility.yul\":14506:14521   */\n      revert\n        /* \"#utility.yul\":14533:14838   */\n    tag_127:\n        /* \"#utility.yul\":14573:14576   */\n      0x00\n        /* \"#utility.yul\":14592:14612   */\n      tag_558\n        /* \"#utility.yul\":14610:14611   */\n      dup3\n        /* \"#utility.yul\":14592:14612   */\n      tag_333\n      jump\t// in\n    tag_558:\n        /* \"#utility.yul\":14587:14612   */\n      swap2\n      pop\n        /* \"#utility.yul\":14626:14646   */\n      tag_559\n        /* \"#utility.yul\":14644:14645   */\n      dup4\n        /* \"#utility.yul\":14626:14646   */\n      tag_333\n      jump\t// in\n    tag_559:\n        /* \"#utility.yul\":14621:14646   */\n      swap3\n      pop\n        /* \"#utility.yul\":14780:14781   */\n      dup3\n        /* \"#utility.yul\":14712:14778   */\n      0xffffffffffffffffffffffffffffffffffffffffffffffffffffffffffffffff\n        /* \"#utility.yul\":14708:14782   */\n      sub\n        /* \"#utility.yul\":14705:14706   */\n      dup3\n        /* \"#utility.yul\":14702:14783   */\n      gt\n        /* \"#utility.yul\":14699:14806   */\n      iszero\n      tag_560\n      jumpi\n        /* \"#utility.yul\":14786:14804   */\n      tag_561\n      tag_369\n      jump\t// in\n    tag_561:\n        /* \"#utility.yul\":14699:14806   */\n    tag_560:\n        /* \"#utility.yul\":14830:14831   */\n      dup3\n        /* \"#utility.yul\":14827:14828   */\n      dup3\n        /* \"#utility.yul\":14823:14832   */\n      add\n        /* \"#utility.yul\":14816:14832   */\n      swap1\n      pop\n        /* \"#utility.yul\":14533:14838   */\n      swap3\n      swap2\n      pop\n      pop\n      jump\t// out\n        /* \"#utility.yul\":14844:15024   */\n    tag_132:\n        /* \"#utility.yul\":14892:14969   */\n      0x4e487b7100000000000000000000000000000000000000000000000000000000\n        /* \"#utility.yul\":14889:14890   */\n      0x00\n        /* \"#utility.yul\":14882:14970   */\n      mstore\n        /* \"#utility.yul\":14989:14993   */\n      0x32\n        /* \"#utility.yul\":14986:14987   */\n      0x04\n        /* \"#utility.yul\":14979:14994   */\n      mstore\n        /* \"#utility.yul\":15013:15017   */\n      0x24\n        /* \"#utility.yul\":15010:15011   */\n      0x00\n        /* \"#utility.yul\":15003:15018   */\n      revert\n        /* \"#utility.yul\":15030:15263   */\n    tag_135:\n        /* \"#utility.yul\":15069:15072   */\n      0x00\n        /* \"#utility.yul\":15092:15116   */\n      tag_564\n        /* \"#utility.yul\":15110:15115   */\n      dup3\n        /* \"#utility.yul\":15092:15116   */\n      tag_333\n      jump\t// in\n    tag_564:\n        /* \"#utility.yul\":15083:15116   */\n      swap2\n      pop\n        /* \"#utility.yul\":15138:15204   */\n      0xffffffffffffffffffffffffffffffffffffffffffffffffffffffffffffffff\n        /* \"#utility.yul\":15131:15136   */\n      dup3\n        /* \"#utility.yul\":15128:15205   */\n      sub\n        /* \"#utility.yul\":15125:15228   */\n      tag_565\n      jumpi\n        /* \"#utility.yul\":15208:15226   */\n      tag_566\n      tag_369\n      jump\t// in\n    tag_566:\n        /* \"#utility.yul\":15125:15228   */\n    tag_565:\n        /* \"#utility.yul\":15255:15256   */\n      0x01\n        /* \"#utility.yul\":15248:15253   */\n      dup3\n        /* \"#utility.yul\":15244:15257   */\n      add\n        /* \"#utility.yul\":15237:15257   */\n      swap1\n      pop\n        /* \"#utility.yul\":15030:15263   */\n      swap2\n      swap1\n      pop\n      jump\t// out\n        /* \"#utility.yul\":15269:15438   */\n    tag_370:\n        /* \"#utility.yul\":15353:15364   */\n      0x00\n        /* \"#utility.yul\":15387:15393   */\n      dup3\n        /* \"#utility.yul\":15382:15385   */\n      dup3\n        /* \"#utility.yul\":15375:15394   */\n      mstore\n        /* \"#utility.yul\":15427:15431   */\n      0x20\n        /* \"#utility.yul\":15422:15425   */\n      dup3\n        /* \"#utility.yul\":15418:15432   */\n      add\n        /* \"#utility.yul\":15403:15432   */\n      swap1\n      pop\n        /* \"#utility.yul\":15269:15438   */\n      swap3\n      swap2\n      pop\n      pop\n      jump\t// out\n        /* \"#utility.yul\":15444:15625   */\n    tag_371:\n        /* \"#utility.yul\":15584:15617   */\n      0x5265656e7472616e637947756172643a207265656e7472616e742063616c6c00\n        /* \"#utility.yul\":15580:15581   */\n      0x00\n        /* \"#utility.yul\":15572:15578   */\n      dup3\n        /* \"#utility.yul\":15568:15582   */\n      add\n        /* \"#utility.yul\":15561:15618   */\n      mstore\n        /* \"#utility.yul\":15444:15625   */\n      pop\n      jump\t// out\n        /* \"#utility.yul\":15631:15997   */\n    tag_372:\n        /* \"#utility.yul\":15773:15776   */\n      0x00\n        /* \"#utility.yul\":15794:15861   */\n      tag_570\n        /* \"#utility.yul\":15858:15860   */\n      0x1f\n        /* \"#utility.yul\":15853:15856   */\n      dup4\n        /* \"#utility.yul\":15794:15861   */\n      tag_370\n      jump\t// in\n    tag_570:\n        /* \"#utility.yul\":15787:15861   */\n      swap2\n      pop\n        /* \"#utility.yul\":15870:15963   */\n      tag_571\n        /* \"#utility.yul\":15959:15962   */\n      dup3\n        /* \"#utility.yul\":15870:15963   */\n      tag_371\n      jump\t// in\n    tag_571:\n        /* \"#utility.yul\":15988:15990   */\n      0x20\n        /* \"#utility.yul\":15983:15986   */\n      dup3\n        /* \"#utility.yul\":15979:15991   */\n      add\n        /* \"#utility.yul\":15972:15991   */\n      swap1\n      pop\n        /* \"#utility.yul\":15631:15997   */\n      swap2\n      swap1\n      pop\n      jump\t// out\n        /* \"#utility.yul\":16003:16422   */\n    tag_165:\n        /* \"#utility.yul\":16169:16173   */\n      0x00\n        /* \"#utility.yul\":16207:16209   */\n      0x20\n        /* \"#utility.yul\":16196:16205   */\n      dup3\n        /* \"#utility.yul\":16192:16210   */\n      add\n        /* \"#utility.yul\":16184:16210   */\n      swap1\n      pop\n        /* \"#utility.yul\":16256:16265   */\n      dup2\n        /* \"#utility.yul\":16250:16254   */\n      dup2\n        /* \"#utility.yul\":16246:16266   */\n      sub\n        /* \"#utility.yul\":16242:16243   */\n      0x00\n        /* \"#utility.yul\":16231:16240   */\n      dup4\n        /* \"#utility.yul\":16227:16244   */\n      add\n        /* \"#utility.yul\":16220:16267   */\n      mstore\n        /* \"#utility.yul\":16284:16415   */\n      tag_573\n        /* \"#utility.yul\":16410:16414   */\n      dup2\n        /* \"#utility.yul\":16284:16415   */\n      tag_372\n      jump\t// in\n    tag_573:\n        /* \"#utility.yul\":16276:16415   */\n      swap1\n      pop\n        /* \"#utility.yul\":16003:16422   */\n      swap2\n      swap1\n      pop\n      jump\t// out\n        /* \"#utility.yul\":16428:16606   */\n    tag_373:\n        /* \"#utility.yul\":16568:16598   */\n      0x5072696365206d757374206265206174206c6561737420312077656900000000\n        /* \"#utility.yul\":16564:16565   */\n      0x00\n        /* \"#utility.yul\":16556:16562   */\n      dup3\n        /* \"#utility.yul\":16552:16566   */\n      add\n        /* \"#utility.yul\":16545:16599   */\n      mstore\n        /* \"#utility.yul\":16428:16606   */\n      pop\n      jump\t// out\n        /* \"#utility.yul\":16612:16978   */\n    tag_374:\n        /* \"#utility.yul\":16754:16757   */\n      0x00\n        /* \"#utility.yul\":16775:16842   */\n      tag_576\n        /* \"#utility.yul\":16839:16841   */\n      0x1c\n        /* \"#utility.yul\":16834:16837   */\n      dup4\n        /* \"#utility.yul\":16775:16842   */\n      tag_370\n      jump\t// in\n    tag_576:\n        /* \"#utility.yul\":16768:16842   */\n      swap2\n      pop\n        /* \"#utility.yul\":16851:16944   */\n      tag_577\n        /* \"#utility.yul\":16940:16943   */\n      dup3\n        /* \"#utility.yul\":16851:16944   */\n      tag_373\n      jump\t// in\n    tag_577:\n        /* \"#utility.yul\":16969:16971   */\n      0x20\n        /* \"#utility.yul\":16964:16967   */\n      dup3\n        /* \"#utility.yul\":16960:16972   */\n      add\n        /* \"#utility.yul\":16953:16972   */\n      swap1\n      pop\n        /* \"#utility.yul\":16612:16978   */\n      swap2\n      swap1\n      pop\n      jump\t// out\n        /* \"#utility.yul\":16984:17403   */\n    tag_169:\n        /* \"#utility.yul\":17150:17154   */\n      0x00\n        /* \"#utility.yul\":17188:17190   */\n      0x20\n        /* \"#utility.yul\":17177:17186   */\n      dup3\n        /* \"#utility.yul\":17173:17191   */\n      add\n        /* \"#utility.yul\":17165:17191   */\n      swap1\n      pop\n        /* \"#utility.yul\":17237:17246   */\n      dup2\n        /* \"#utility.yul\":17231:17235   */\n      dup2\n        /* \"#utility.yul\":17227:17247   */\n      sub\n        /* \"#utility.yul\":17223:17224   */\n      0x00\n        /* \"#utility.yul\":17212:17221   */\n      dup4\n        /* \"#utility.yul\":17208:17225   */\n      add\n        /* \"#utility.yul\":17201:17248   */\n      mstore\n        /* \"#utility.yul\":17265:17396   */\n      tag_579\n        /* \"#utility.yul\":17391:17395   */\n      dup2\n        /* \"#utility.yul\":17265:17396   */\n      tag_374\n      jump\t// in\n    tag_579:\n        /* \"#utility.yul\":17257:17396   */\n      swap1\n      pop\n        /* \"#utility.yul\":16984:17403   */\n      swap2\n      swap1\n      pop\n      jump\t// out\n        /* \"#utility.yul\":17409:17851   */\n    tag_174:\n        /* \"#utility.yul\":17558:17562   */\n      0x00\n        /* \"#utility.yul\":17596:17598   */\n      0x60\n        /* \"#utility.yul\":17585:17594   */\n      dup3\n        /* \"#utility.yul\":17581:17599   */\n      add\n        /* \"#utility.yul\":17573:17599   */\n      swap1\n      pop\n        /* \"#utility.yul\":17609:17680   */\n      tag_581\n        /* \"#utility.yul\":17677:17678   */\n      0x00\n        /* \"#utility.yul\":17666:17675   */\n      dup4\n        /* \"#utility.yul\":17662:17679   */\n      add\n        /* \"#utility.yul\":17653:17659   */\n      dup7\n        /* \"#utility.yul\":17609:17680   */\n      tag_362\n      jump\t// in\n    tag_581:\n        /* \"#utility.yul\":17690:17762   */\n      tag_582\n        /* \"#utility.yul\":17758:17760   */\n      0x20\n        /* \"#utility.yul\":17747:17756   */\n      dup4\n        /* \"#utility.yul\":17743:17761   */\n      add\n        /* \"#utility.yul\":17734:17740   */\n      dup6\n        /* \"#utility.yul\":17690:17762   */\n      tag_362\n      jump\t// in\n    tag_582:\n        /* \"#utility.yul\":17772:17844   */\n      tag_583\n        /* \"#utility.yul\":17840:17842   */\n      0x40\n        /* \"#utility.yul\":17829:17838   */\n      dup4\n        /* \"#utility.yul\":17825:17843   */\n      add\n        /* \"#utility.yul\":17816:17822   */\n      dup5\n        /* \"#utility.yul\":17772:17844   */\n      tag_361\n      jump\t// in\n    tag_583:\n        /* \"#utility.yul\":17409:17851   */\n      swap5\n      swap4\n      pop\n      pop\n      pop\n      pop\n      jump\t// out\n        /* \"#utility.yul\":17857:18036   */\n    tag_375:\n        /* \"#utility.yul\":17997:18028   */\n      0x50726963652073686f756c6420626520626967676572207468616e2030000000\n        /* \"#utility.yul\":17993:17994   */\n      0x00\n        /* \"#utility.yul\":17985:17991   */\n      dup3\n        /* \"#utility.yul\":17981:17995   */\n      add\n        /* \"#utility.yul\":17974:18029   */\n      mstore\n        /* \"#utility.yul\":17857:18036   */\n      pop\n      jump\t// out\n        /* \"#utility.yul\":18042:18408   */\n    tag_376:\n        /* \"#utility.yul\":18184:18187   */\n      0x00\n        /* \"#utility.yul\":18205:18272   */\n      tag_586\n        /* \"#utility.yul\":18269:18271   */\n      0x1d\n        /* \"#utility.yul\":18264:18267   */\n      dup4\n        /* \"#utility.yul\":18205:18272   */\n      tag_370\n      jump\t// in\n    tag_586:\n        /* \"#utility.yul\":18198:18272   */\n      swap2\n      pop\n        /* \"#utility.yul\":18281:18374   */\n      tag_587\n        /* \"#utility.yul\":18370:18373   */\n      dup3\n        /* \"#utility.yul\":18281:18374   */\n      tag_375\n      jump\t// in\n    tag_587:\n        /* \"#utility.yul\":18399:18401   */\n      0x20\n        /* \"#utility.yul\":18394:18397   */\n      dup3\n        /* \"#utility.yul\":18390:18402   */\n      add\n        /* \"#utility.yul\":18383:18402   */\n      swap1\n      pop\n        /* \"#utility.yul\":18042:18408   */\n      swap2\n      swap1\n      pop\n      jump\t// out\n        /* \"#utility.yul\":18414:18833   */\n    tag_182:\n        /* \"#utility.yul\":18580:18584   */\n      0x00\n        /* \"#utility.yul\":18618:18620   */\n      0x20\n        /* \"#utility.yul\":18607:18616   */\n      dup3\n        /* \"#utility.yul\":18603:18621   */\n      add\n        /* \"#utility.yul\":18595:18621   */\n      swap1\n      pop\n        /* \"#utility.yul\":18667:18676   */\n      dup2\n        /* \"#utility.yul\":18661:18665   */\n      dup2\n        /* \"#utility.yul\":18657:18677   */\n      sub\n        /* \"#utility.yul\":18653:18654   */\n      0x00\n        /* \"#utility.yul\":18642:18651   */\n      dup4\n        /* \"#utility.yul\":18638:18655   */\n      add\n        /* \"#utility.yul\":18631:18678   */\n      mstore\n        /* \"#utility.yul\":18695:18826   */\n      tag_589\n        /* \"#utility.yul\":18821:18825   */\n      dup2\n        /* \"#utility.yul\":18695:18826   */\n      tag_376\n      jump\t// in\n    tag_589:\n        /* \"#utility.yul\":18687:18826   */\n      swap1\n      pop\n        /* \"#utility.yul\":18414:18833   */\n      swap2\n      swap1\n      pop\n      jump\t// out\n        /* \"#utility.yul\":18839:19061   */\n    tag_186:\n        /* \"#utility.yul\":18932:18936   */\n      0x00\n        /* \"#utility.yul\":18970:18972   */\n      0x20\n        /* \"#utility.yul\":18959:18968   */\n      dup3\n        /* \"#utility.yul\":18955:18973   */\n      add\n        /* \"#utility.yul\":18947:18973   */\n      swap1\n      pop\n        /* \"#utility.yul\":18983:19054   */\n      tag_591\n        /* \"#utility.yul\":19051:19052   */\n      0x00\n        /* \"#utility.yul\":19040:19049   */\n      dup4\n        /* \"#utility.yul\":19036:19053   */\n      add\n        /* \"#utility.yul\":19027:19033   */\n      dup5\n        /* \"#utility.yul\":18983:19054   */\n      tag_361\n      jump\t// in\n    tag_591:\n        /* \"#utility.yul\":18839:19061   */\n      swap3\n      swap2\n      pop\n      pop\n      jump\t// out\n        /* \"#utility.yul\":19067:19210   */\n    tag_377:\n        /* \"#utility.yul\":19124:19129   */\n      0x00\n        /* \"#utility.yul\":19155:19161   */\n      dup2\n        /* \"#utility.yul\":19149:19162   */\n      mload\n        /* \"#utility.yul\":19140:19162   */\n      swap1\n      pop\n        /* \"#utility.yul\":19171:19204   */\n      tag_593\n        /* \"#utility.yul\":19198:19203   */\n      dup2\n        /* \"#utility.yul\":19171:19204   */\n      tag_357\n      jump\t// in\n    tag_593:\n        /* \"#utility.yul\":19067:19210   */\n      swap3\n      swap2\n      pop\n      pop\n      jump\t// out\n        /* \"#utility.yul\":19216:19567   */\n    tag_190:\n        /* \"#utility.yul\":19286:19292   */\n      0x00\n        /* \"#utility.yul\":19335:19337   */\n      0x20\n        /* \"#utility.yul\":19323:19332   */\n      dup3\n        /* \"#utility.yul\":19314:19321   */\n      dup5\n        /* \"#utility.yul\":19310:19333   */\n      sub\n        /* \"#utility.yul\":19306:19338   */\n      slt\n        /* \"#utility.yul\":19303:19422   */\n      iszero\n      tag_595\n      jumpi\n        /* \"#utility.yul\":19341:19420   */\n      tag_596\n      tag_350\n      jump\t// in\n    tag_596:\n        /* \"#utility.yul\":19303:19422   */\n    tag_595:\n        /* \"#utility.yul\":19461:19462   */\n      0x00\n        /* \"#utility.yul\":19486:19550   */\n      tag_597\n        /* \"#utility.yul\":19542:19549   */\n      dup5\n        /* \"#utility.yul\":19533:19539   */\n      dup3\n        /* \"#utility.yul\":19522:19531   */\n      dup6\n        /* \"#utility.yul\":19518:19540   */\n      add\n        /* \"#utility.yul\":19486:19550   */\n      tag_377\n      jump\t// in\n    tag_597:\n        /* \"#utility.yul\":19476:19550   */\n      swap2\n      pop\n        /* \"#utility.yul\":19432:19560   */\n      pop\n        /* \"#utility.yul\":19216:19567   */\n      swap3\n      swap2\n      pop\n      pop\n      jump\t// out\n        /* \"#utility.yul\":19573:19793   */\n    tag_378:\n        /* \"#utility.yul\":19713:19747   */\n      0x5468652073656c6c6572206973206e6f206c6f6e67657220746865206f776e65\n        /* \"#utility.yul\":19709:19710   */\n      0x00\n        /* \"#utility.yul\":19701:19707   */\n      dup3\n        /* \"#utility.yul\":19697:19711   */\n      add\n        /* \"#utility.yul\":19690:19748   */\n      mstore\n        /* \"#utility.yul\":19782:19785   */\n      0x7200000000000000000000000000000000000000000000000000000000000000\n        /* \"#utility.yul\":19777:19779   */\n      0x20\n        /* \"#utility.yul\":19769:19775   */\n      dup3\n        /* \"#utility.yul\":19765:19780   */\n      add\n        /* \"#utility.yul\":19758:19786   */\n      mstore\n        /* \"#utility.yul\":19573:19793   */\n      pop\n      jump\t// out\n        /* \"#utility.yul\":19799:20165   */\n    tag_379:\n        /* \"#utility.yul\":19941:19944   */\n      0x00\n        /* \"#utility.yul\":19962:20029   */\n      tag_600\n        /* \"#utility.yul\":20026:20028   */\n      0x21\n        /* \"#utility.yul\":20021:20024   */\n      dup4\n        /* \"#utility.yul\":19962:20029   */\n      tag_370\n      jump\t// in\n    tag_600:\n        /* \"#utility.yul\":19955:20029   */\n      swap2\n      pop\n        /* \"#utility.yul\":20038:20131   */\n      tag_601\n        /* \"#utility.yul\":20127:20130   */\n      dup3\n        /* \"#utility.yul\":20038:20131   */\n      tag_378\n      jump\t// in\n    tag_601:\n        /* \"#utility.yul\":20156:20158   */\n      0x40\n        /* \"#utility.yul\":20151:20154   */\n      dup3\n        /* \"#utility.yul\":20147:20159   */\n      add\n        /* \"#utility.yul\":20140:20159   */\n      swap1\n      pop\n        /* \"#utility.yul\":19799:20165   */\n      swap2\n      swap1\n      pop\n      jump\t// out\n        /* \"#utility.yul\":20171:20590   */\n    tag_193:\n        /* \"#utility.yul\":20337:20341   */\n      0x00\n        /* \"#utility.yul\":20375:20377   */\n      0x20\n        /* \"#utility.yul\":20364:20373   */\n      dup3\n        /* \"#utility.yul\":20360:20378   */\n      add\n        /* \"#utility.yul\":20352:20378   */\n      swap1\n      pop\n        /* \"#utility.yul\":20424:20433   */\n      dup2\n        /* \"#utility.yul\":20418:20422   */\n      dup2\n        /* \"#utility.yul\":20414:20434   */\n      sub\n        /* \"#utility.yul\":20410:20411   */\n      0x00\n        /* \"#utility.yul\":20399:20408   */\n      dup4\n        /* \"#utility.yul\":20395:20412   */\n      add\n        /* \"#utility.yul\":20388:20435   */\n      mstore\n        /* \"#utility.yul\":20452:20583   */\n      tag_603\n        /* \"#utility.yul\":20578:20582   */\n      dup2\n        /* \"#utility.yul\":20452:20583   */\n      tag_379\n      jump\t// in\n    tag_603:\n        /* \"#utility.yul\":20444:20583   */\n      swap1\n      pop\n        /* \"#utility.yul\":20171:20590   */\n      swap2\n      swap1\n      pop\n      jump\t// out\n        /* \"#utility.yul\":20596:20762   */\n    tag_380:\n        /* \"#utility.yul\":20736:20754   */\n      0x4173736574206973206c697374696e6700000000000000000000000000000000\n        /* \"#utility.yul\":20732:20733   */\n      0x00\n        /* \"#utility.yul\":20724:20730   */\n      dup3\n        /* \"#utility.yul\":20720:20734   */\n      add\n        /* \"#utility.yul\":20713:20755   */\n      mstore\n        /* \"#utility.yul\":20596:20762   */\n      pop\n      jump\t// out\n        /* \"#utility.yul\":20768:21134   */\n    tag_381:\n        /* \"#utility.yul\":20910:20913   */\n      0x00\n        /* \"#utility.yul\":20931:20998   */\n      tag_606\n        /* \"#utility.yul\":20995:20997   */\n      0x10\n        /* \"#utility.yul\":20990:20993   */\n      dup4\n        /* \"#utility.yul\":20931:20998   */\n      tag_370\n      jump\t// in\n    tag_606:\n        /* \"#utility.yul\":20924:20998   */\n      swap2\n      pop\n        /* \"#utility.yul\":21007:21100   */\n      tag_607\n        /* \"#utility.yul\":21096:21099   */\n      dup3\n        /* \"#utility.yul\":21007:21100   */\n      tag_380\n      jump\t// in\n    tag_607:\n        /* \"#utility.yul\":21125:21127   */\n      0x20\n        /* \"#utility.yul\":21120:21123   */\n      dup3\n        /* \"#utility.yul\":21116:21128   */\n      add\n        /* \"#utility.yul\":21109:21128   */\n      swap1\n      pop\n        /* \"#utility.yul\":20768:21134   */\n      swap2\n      swap1\n      pop\n      jump\t// out\n        /* \"#utility.yul\":21140:21559   */\n    tag_213:\n        /* \"#utility.yul\":21306:21310   */\n      0x00\n        /* \"#utility.yul\":21344:21346   */\n      0x20\n        /* \"#utility.yul\":21333:21342   */\n      dup3\n        /* \"#utility.yul\":21329:21347   */\n      add\n        /* \"#utility.yul\":21321:21347   */\n      swap1\n      pop\n        /* \"#utility.yul\":21393:21402   */\n      dup2\n        /* \"#utility.yul\":21387:21391   */\n      dup2\n        /* \"#utility.yul\":21383:21403   */\n      sub\n        /* \"#utility.yul\":21379:21380   */\n      0x00\n        /* \"#utility.yul\":21368:21377   */\n      dup4\n        /* \"#utility.yul\":21364:21381   */\n      add\n        /* \"#utility.yul\":21357:21404   */\n      mstore\n        /* \"#utility.yul\":21421:21552   */\n      tag_609\n        /* \"#utility.yul\":21547:21551   */\n      dup2\n        /* \"#utility.yul\":21421:21552   */\n      tag_381\n      jump\t// in\n    tag_609:\n        /* \"#utility.yul\":21413:21552   */\n      swap1\n      pop\n        /* \"#utility.yul\":21140:21559   */\n      swap2\n      swap1\n      pop\n      jump\t// out\n        /* \"#utility.yul\":21565:21718   */\n    tag_382:\n        /* \"#utility.yul\":21705:21710   */\n      0x424e420000000000000000000000000000000000000000000000000000000000\n        /* \"#utility.yul\":21701:21702   */\n      0x00\n        /* \"#utility.yul\":21693:21699   */\n      dup3\n        /* \"#utility.yul\":21689:21703   */\n      add\n        /* \"#utility.yul\":21682:21711   */\n      mstore\n        /* \"#utility.yul\":21565:21718   */\n      pop\n      jump\t// out\n        /* \"#utility.yul\":21724:22089   */\n    tag_383:\n        /* \"#utility.yul\":21866:21869   */\n      0x00\n        /* \"#utility.yul\":21887:21953   */\n      tag_612\n        /* \"#utility.yul\":21951:21952   */\n      0x03\n        /* \"#utility.yul\":21946:21949   */\n      dup4\n        /* \"#utility.yul\":21887:21953   */\n      tag_370\n      jump\t// in\n    tag_612:\n        /* \"#utility.yul\":21880:21953   */\n      swap2\n      pop\n        /* \"#utility.yul\":21962:22055   */\n      tag_613\n        /* \"#utility.yul\":22051:22054   */\n      dup3\n        /* \"#utility.yul\":21962:22055   */\n      tag_382\n      jump\t// in\n    tag_613:\n        /* \"#utility.yul\":22080:22082   */\n      0x20\n        /* \"#utility.yul\":22075:22078   */\n      dup3\n        /* \"#utility.yul\":22071:22083   */\n      add\n        /* \"#utility.yul\":22064:22083   */\n      swap1\n      pop\n        /* \"#utility.yul\":21724:22089   */\n      swap2\n      swap1\n      pop\n      jump\t// out\n        /* \"#utility.yul\":22095:22956   */\n    tag_217:\n        /* \"#utility.yul\":22373:22377   */\n      0x00\n        /* \"#utility.yul\":22411:22414   */\n      0xa0\n        /* \"#utility.yul\":22400:22409   */\n      dup3\n        /* \"#utility.yul\":22396:22415   */\n      add\n        /* \"#utility.yul\":22388:22415   */\n      swap1\n      pop\n        /* \"#utility.yul\":22425:22496   */\n      tag_615\n        /* \"#utility.yul\":22493:22494   */\n      0x00\n        /* \"#utility.yul\":22482:22491   */\n      dup4\n        /* \"#utility.yul\":22478:22495   */\n      add\n        /* \"#utility.yul\":22469:22475   */\n      dup8\n        /* \"#utility.yul\":22425:22496   */\n      tag_362\n      jump\t// in\n    tag_615:\n        /* \"#utility.yul\":22506:22578   */\n      tag_616\n        /* \"#utility.yul\":22574:22576   */\n      0x20\n        /* \"#utility.yul\":22563:22572   */\n      dup4\n        /* \"#utility.yul\":22559:22577   */\n      add\n        /* \"#utility.yul\":22550:22556   */\n      dup7\n        /* \"#utility.yul\":22506:22578   */\n      tag_360\n      jump\t// in\n    tag_616:\n        /* \"#utility.yul\":22588:22660   */\n      tag_617\n        /* \"#utility.yul\":22656:22658   */\n      0x40\n        /* \"#utility.yul\":22645:22654   */\n      dup4\n        /* \"#utility.yul\":22641:22659   */\n      add\n        /* \"#utility.yul\":22632:22638   */\n      dup6\n        /* \"#utility.yul\":22588:22660   */\n      tag_361\n      jump\t// in\n    tag_617:\n        /* \"#utility.yul\":22707:22716   */\n      dup2\n        /* \"#utility.yul\":22701:22705   */\n      dup2\n        /* \"#utility.yul\":22697:22717   */\n      sub\n        /* \"#utility.yul\":22692:22694   */\n      0x60\n        /* \"#utility.yul\":22681:22690   */\n      dup4\n        /* \"#utility.yul\":22677:22695   */\n      add\n        /* \"#utility.yul\":22670:22718   */\n      mstore\n        /* \"#utility.yul\":22735:22866   */\n      tag_618\n        /* \"#utility.yul\":22861:22865   */\n      dup2\n        /* \"#utility.yul\":22735:22866   */\n      tag_383\n      jump\t// in\n    tag_618:\n        /* \"#utility.yul\":22727:22866   */\n      swap1\n      pop\n        /* \"#utility.yul\":22876:22949   */\n      tag_619\n        /* \"#utility.yul\":22944:22947   */\n      0x80\n        /* \"#utility.yul\":22933:22942   */\n      dup4\n        /* \"#utility.yul\":22929:22948   */\n      add\n        /* \"#utility.yul\":22920:22926   */\n      dup5\n        /* \"#utility.yul\":22876:22949   */\n      tag_361\n      jump\t// in\n    tag_619:\n        /* \"#utility.yul\":22095:22956   */\n      swap6\n      swap5\n      pop\n      pop\n      pop\n      pop\n      pop\n      jump\t// out\n        /* \"#utility.yul\":22962:23144   */\n    tag_384:\n        /* \"#utility.yul\":23102:23136   */\n      0x4f776e61626c653a2063616c6c6572206973206e6f7420746865206f776e6572\n        /* \"#utility.yul\":23098:23099   */\n      0x00\n        /* \"#utility.yul\":23090:23096   */\n      dup3\n        /* \"#utility.yul\":23086:23100   */\n      add\n        /* \"#utility.yul\":23079:23137   */\n      mstore\n        /* \"#utility.yul\":22962:23144   */\n      pop\n      jump\t// out\n        /* \"#utility.yul\":23150:23516   */\n    tag_385:\n        /* \"#utility.yul\":23292:23295   */\n      0x00\n        /* \"#utility.yul\":23313:23380   */\n      tag_622\n        /* \"#utility.yul\":23377:23379   */\n      0x20\n        /* \"#utility.yul\":23372:23375   */\n      dup4\n        /* \"#utility.yul\":23313:23380   */\n      tag_370\n      jump\t// in\n    tag_622:\n        /* \"#utility.yul\":23306:23380   */\n      swap2\n      pop\n        /* \"#utility.yul\":23389:23482   */\n      tag_623\n        /* \"#utility.yul\":23478:23481   */\n      dup3\n        /* \"#utility.yul\":23389:23482   */\n      tag_384\n      jump\t// in\n    tag_623:\n        /* \"#utility.yul\":23507:23509   */\n      0x20\n        /* \"#utility.yul\":23502:23505   */\n      dup3\n        /* \"#utility.yul\":23498:23510   */\n      add\n        /* \"#utility.yul\":23491:23510   */\n      swap1\n      pop\n        /* \"#utility.yul\":23150:23516   */\n      swap2\n      swap1\n      pop\n      jump\t// out\n        /* \"#utility.yul\":23522:23941   */\n    tag_224:\n        /* \"#utility.yul\":23688:23692   */\n      0x00\n        /* \"#utility.yul\":23726:23728   */\n      0x20\n        /* \"#utility.yul\":23715:23724   */\n      dup3\n        /* \"#utility.yul\":23711:23729   */\n      add\n        /* \"#utility.yul\":23703:23729   */\n      swap1\n      pop\n        /* \"#utility.yul\":23775:23784   */\n      dup2\n        /* \"#utility.yul\":23769:23773   */\n      dup2\n        /* \"#utility.yul\":23765:23785   */\n      sub\n        /* \"#utility.yul\":23761:23762   */\n      0x00\n        /* \"#utility.yul\":23750:23759   */\n      dup4\n        /* \"#utility.yul\":23746:23763   */\n      add\n        /* \"#utility.yul\":23739:23786   */\n      mstore\n        /* \"#utility.yul\":23803:23934   */\n      tag_625\n        /* \"#utility.yul\":23929:23933   */\n      dup2\n        /* \"#utility.yul\":23803:23934   */\n      tag_385\n      jump\t// in\n    tag_625:\n        /* \"#utility.yul\":23795:23934   */\n      swap1\n      pop\n        /* \"#utility.yul\":23522:23941   */\n      swap2\n      swap1\n      pop\n      jump\t// out\n        /* \"#utility.yul\":23947:24198   */\n    tag_386:\n        /* \"#utility.yul\":24087:24121   */\n      0x506c65617365207375626d6974207468652061736b696e672070726963652069\n        /* \"#utility.yul\":24083:24084   */\n      0x00\n        /* \"#utility.yul\":24075:24081   */\n      dup3\n        /* \"#utility.yul\":24071:24085   */\n      add\n        /* \"#utility.yul\":24064:24122   */\n      mstore\n        /* \"#utility.yul\":24156:24190   */\n      0x6e206f7264657220746f20636f6d706c65746520746865207075726368617365\n        /* \"#utility.yul\":24151:24153   */\n      0x20\n        /* \"#utility.yul\":24143:24149   */\n      dup3\n        /* \"#utility.yul\":24139:24154   */\n      add\n        /* \"#utility.yul\":24132:24191   */\n      mstore\n        /* \"#utility.yul\":23947:24198   */\n      pop\n      jump\t// out\n        /* \"#utility.yul\":24204:24570   */\n    tag_387:\n        /* \"#utility.yul\":24346:24349   */\n      0x00\n        /* \"#utility.yul\":24367:24434   */\n      tag_628\n        /* \"#utility.yul\":24431:24433   */\n      0x40\n        /* \"#utility.yul\":24426:24429   */\n      dup4\n        /* \"#utility.yul\":24367:24434   */\n      tag_370\n      jump\t// in\n    tag_628:\n        /* \"#utility.yul\":24360:24434   */\n      swap2\n      pop\n        /* \"#utility.yul\":24443:24536   */\n      tag_629\n        /* \"#utility.yul\":24532:24535   */\n      dup3\n        /* \"#utility.yul\":24443:24536   */\n      tag_386\n      jump\t// in\n    tag_629:\n        /* \"#utility.yul\":24561:24563   */\n      0x40\n        /* \"#utility.yul\":24556:24559   */\n      dup3\n        /* \"#utility.yul\":24552:24564   */\n      add\n        /* \"#utility.yul\":24545:24564   */\n      swap1\n      pop\n        /* \"#utility.yul\":24204:24570   */\n      swap2\n      swap1\n      pop\n      jump\t// out\n        /* \"#utility.yul\":24576:24995   */\n    tag_241:\n        /* \"#utility.yul\":24742:24746   */\n      0x00\n        /* \"#utility.yul\":24780:24782   */\n      0x20\n        /* \"#utility.yul\":24769:24778   */\n      dup3\n        /* \"#utility.yul\":24765:24783   */\n      add\n        /* \"#utility.yul\":24757:24783   */\n      swap1\n      pop\n        /* \"#utility.yul\":24829:24838   */\n      dup2\n        /* \"#utility.yul\":24823:24827   */\n      dup2\n        /* \"#utility.yul\":24819:24839   */\n      sub\n        /* \"#utility.yul\":24815:24816   */\n      0x00\n        /* \"#utility.yul\":24804:24813   */\n      dup4\n        /* \"#utility.yul\":24800:24817   */\n      add\n        /* \"#utility.yul\":24793:24840   */\n      mstore\n        /* \"#utility.yul\":24857:24988   */\n      tag_631\n        /* \"#utility.yul\":24983:24987   */\n      dup2\n        /* \"#utility.yul\":24857:24988   */\n      tag_387\n      jump\t// in\n    tag_631:\n        /* \"#utility.yul\":24849:24988   */\n      swap1\n      pop\n        /* \"#utility.yul\":24576:24995   */\n      swap2\n      swap1\n      pop\n      jump\t// out\n        /* \"#utility.yul\":25001:25170   */\n    tag_388:\n        /* \"#utility.yul\":25141:25162   */\n      0x4173736574206e6f74207075626c697368656400000000000000000000000000\n        /* \"#utility.yul\":25137:25138   */\n      0x00\n        /* \"#utility.yul\":25129:25135   */\n      dup3\n        /* \"#utility.yul\":25125:25139   */\n      add\n        /* \"#utility.yul\":25118:25163   */\n      mstore\n        /* \"#utility.yul\":25001:25170   */\n      pop\n      jump\t// out\n        /* \"#utility.yul\":25176:25542   */\n    tag_389:\n        /* \"#utility.yul\":25318:25321   */\n      0x00\n        /* \"#utility.yul\":25339:25406   */\n      tag_634\n        /* \"#utility.yul\":25403:25405   */\n      0x13\n        /* \"#utility.yul\":25398:25401   */\n      dup4\n        /* \"#utility.yul\":25339:25406   */\n      tag_370\n      jump\t// in\n    tag_634:\n        /* \"#utility.yul\":25332:25406   */\n      swap2\n      pop\n        /* \"#utility.yul\":25415:25508   */\n      tag_635\n        /* \"#utility.yul\":25504:25507   */\n      dup3\n        /* \"#utility.yul\":25415:25508   */\n      tag_388\n      jump\t// in\n    tag_635:\n        /* \"#utility.yul\":25533:25535   */\n      0x20\n        /* \"#utility.yul\":25528:25531   */\n      dup3\n        /* \"#utility.yul\":25524:25536   */\n      add\n        /* \"#utility.yul\":25517:25536   */\n      swap1\n      pop\n        /* \"#utility.yul\":25176:25542   */\n      swap2\n      swap1\n      pop\n      jump\t// out\n        /* \"#utility.yul\":25548:25967   */\n    tag_259:\n        /* \"#utility.yul\":25714:25718   */\n      0x00\n        /* \"#utility.yul\":25752:25754   */\n      0x20\n        /* \"#utility.yul\":25741:25750   */\n      dup3\n        /* \"#utility.yul\":25737:25755   */\n      add\n        /* \"#utility.yul\":25729:25755   */\n      swap1\n      pop\n        /* \"#utility.yul\":25801:25810   */\n      dup2\n        /* \"#utility.yul\":25795:25799   */\n      dup2\n        /* \"#utility.yul\":25791:25811   */\n      sub\n        /* \"#utility.yul\":25787:25788   */\n      0x00\n        /* \"#utility.yul\":25776:25785   */\n      dup4\n        /* \"#utility.yul\":25772:25789   */\n      add\n        /* \"#utility.yul\":25765:25812   */\n      mstore\n        /* \"#utility.yul\":25829:25960   */\n      tag_637\n        /* \"#utility.yul\":25955:25959   */\n      dup2\n        /* \"#utility.yul\":25829:25960   */\n      tag_389\n      jump\t// in\n    tag_637:\n        /* \"#utility.yul\":25821:25960   */\n      swap1\n      pop\n        /* \"#utility.yul\":25548:25967   */\n      swap2\n      swap1\n      pop\n      jump\t// out\n        /* \"#utility.yul\":25973:26147   */\n    tag_390:\n        /* \"#utility.yul\":26113:26139   */\n      0x4173736574206973206e6f74206c69737420746f206275790000000000000000\n        /* \"#utility.yul\":26109:26110   */\n      0x00\n        /* \"#utility.yul\":26101:26107   */\n      dup3\n        /* \"#utility.yul\":26097:26111   */\n      add\n        /* \"#utility.yul\":26090:26140   */\n      mstore\n        /* \"#utility.yul\":25973:26147   */\n      pop\n      jump\t// out\n        /* \"#utility.yul\":26153:26519   */\n    tag_391:\n        /* \"#utility.yul\":26295:26298   */\n      0x00\n        /* \"#utility.yul\":26316:26383   */\n      tag_640\n        /* \"#utility.yul\":26380:26382   */\n      0x18\n        /* \"#utility.yul\":26375:26378   */\n      dup4\n        /* \"#utility.yul\":26316:26383   */\n      tag_370\n      jump\t// in\n    tag_640:\n        /* \"#utility.yul\":26309:26383   */\n      swap2\n      pop\n        /* \"#utility.yul\":26392:26485   */\n      tag_641\n        /* \"#utility.yul\":26481:26484   */\n      dup3\n        /* \"#utility.yul\":26392:26485   */\n      tag_390\n      jump\t// in\n    tag_641:\n        /* \"#utility.yul\":26510:26512   */\n      0x20\n        /* \"#utility.yul\":26505:26508   */\n      dup3\n        /* \"#utility.yul\":26501:26513   */\n      add\n        /* \"#utility.yul\":26494:26513   */\n      swap1\n      pop\n        /* \"#utility.yul\":26153:26519   */\n      swap2\n      swap1\n      pop\n      jump\t// out\n        /* \"#utility.yul\":26525:26944   */\n    tag_266:\n        /* \"#utility.yul\":26691:26695   */\n      0x00\n        /* \"#utility.yul\":26729:26731   */\n      0x20\n        /* \"#utility.yul\":26718:26727   */\n      dup3\n        /* \"#utility.yul\":26714:26732   */\n      add\n        /* \"#utility.yul\":26706:26732   */\n      swap1\n      pop\n        /* \"#utility.yul\":26778:26787   */\n      dup2\n        /* \"#utility.yul\":26772:26776   */\n      dup2\n        /* \"#utility.yul\":26768:26788   */\n      sub\n        /* \"#utility.yul\":26764:26765   */\n      0x00\n        /* \"#utility.yul\":26753:26762   */\n      dup4\n        /* \"#utility.yul\":26749:26766   */\n      add\n        /* \"#utility.yul\":26742:26789   */\n      mstore\n        /* \"#utility.yul\":26806:26937   */\n      tag_643\n        /* \"#utility.yul\":26932:26936   */\n      dup2\n        /* \"#utility.yul\":26806:26937   */\n      tag_391\n      jump\t// in\n    tag_643:\n        /* \"#utility.yul\":26798:26937   */\n      swap1\n      pop\n        /* \"#utility.yul\":26525:26944   */\n      swap2\n      swap1\n      pop\n      jump\t// out\n        /* \"#utility.yul\":26950:27115   */\n    tag_392:\n        /* \"#utility.yul\":27090:27107   */\n      0x496e76616c696420616464726573730000000000000000000000000000000000\n        /* \"#utility.yul\":27086:27087   */\n      0x00\n        /* \"#utility.yul\":27078:27084   */\n      dup3\n        /* \"#utility.yul\":27074:27088   */\n      add\n        /* \"#utility.yul\":27067:27108   */\n      mstore\n        /* \"#utility.yul\":26950:27115   */\n      pop\n      jump\t// out\n        /* \"#utility.yul\":27121:27487   */\n    tag_393:\n        /* \"#utility.yul\":27263:27266   */\n      0x00\n        /* \"#utility.yul\":27284:27351   */\n      tag_646\n        /* \"#utility.yul\":27348:27350   */\n      0x0f\n        /* \"#utility.yul\":27343:27346   */\n      dup4\n        /* \"#utility.yul\":27284:27351   */\n      tag_370\n      jump\t// in\n    tag_646:\n        /* \"#utility.yul\":27277:27351   */\n      swap2\n      pop\n        /* \"#utility.yul\":27360:27453   */\n      tag_647\n        /* \"#utility.yul\":27449:27452   */\n      dup3\n        /* \"#utility.yul\":27360:27453   */\n      tag_392\n      jump\t// in\n    tag_647:\n        /* \"#utility.yul\":27478:27480   */\n      0x20\n        /* \"#utility.yul\":27473:27476   */\n      dup3\n        /* \"#utility.yul\":27469:27481   */\n      add\n        /* \"#utility.yul\":27462:27481   */\n      swap1\n      pop\n        /* \"#utility.yul\":27121:27487   */\n      swap2\n      swap1\n      pop\n      jump\t// out\n        /* \"#utility.yul\":27493:27912   */\n    tag_269:\n        /* \"#utility.yul\":27659:27663   */\n      0x00\n        /* \"#utility.yul\":27697:27699   */\n      0x20\n        /* \"#utility.yul\":27686:27695   */\n      dup3\n        /* \"#utility.yul\":27682:27700   */\n      add\n        /* \"#utility.yul\":27674:27700   */\n      swap1\n      pop\n        /* \"#utility.yul\":27746:27755   */\n      dup2\n        /* \"#utility.yul\":27740:27744   */\n      dup2\n        /* \"#utility.yul\":27736:27756   */\n      sub\n        /* \"#utility.yul\":27732:27733   */\n      0x00\n        /* \"#utility.yul\":27721:27730   */\n      dup4\n        /* \"#utility.yul\":27717:27734   */\n      add\n        /* \"#utility.yul\":27710:27757   */\n      mstore\n        /* \"#utility.yul\":27774:27905   */\n      tag_649\n        /* \"#utility.yul\":27900:27904   */\n      dup2\n        /* \"#utility.yul\":27774:27905   */\n      tag_393\n      jump\t// in\n    tag_649:\n        /* \"#utility.yul\":27766:27905   */\n      swap1\n      pop\n        /* \"#utility.yul\":27493:27912   */\n      swap2\n      swap1\n      pop\n      jump\t// out\n        /* \"#utility.yul\":27918:28098   */\n    tag_394:\n        /* \"#utility.yul\":28058:28090   */\n      0x7072696365206e65656420657175616c206c697374696e672070726963650000\n        /* \"#utility.yul\":28054:28055   */\n      0x00\n        /* \"#utility.yul\":28046:28052   */\n      dup3\n        /* \"#utility.yul\":28042:28056   */\n      add\n        /* \"#utility.yul\":28035:28091   */\n      mstore\n        /* \"#utility.yul\":27918:28098   */\n      pop\n      jump\t// out\n        /* \"#utility.yul\":28104:28470   */\n    tag_395:\n        /* \"#utility.yul\":28246:28249   */\n      0x00\n        /* \"#utility.yul\":28267:28334   */\n      tag_652\n        /* \"#utility.yul\":28331:28333   */\n      0x1e\n        /* \"#utility.yul\":28326:28329   */\n      dup4\n        /* \"#utility.yul\":28267:28334   */\n      tag_370\n      jump\t// in\n    tag_652:\n        /* \"#utility.yul\":28260:28334   */\n      swap2\n      pop\n        /* \"#utility.yul\":28343:28436   */\n      tag_653\n        /* \"#utility.yul\":28432:28435   */\n      dup3\n        /* \"#utility.yul\":28343:28436   */\n      tag_394\n      jump\t// in\n    tag_653:\n        /* \"#utility.yul\":28461:28463   */\n      0x20\n        /* \"#utility.yul\":28456:28459   */\n      dup3\n        /* \"#utility.yul\":28452:28464   */\n      add\n        /* \"#utility.yul\":28445:28464   */\n      swap1\n      pop\n        /* \"#utility.yul\":28104:28470   */\n      swap2\n      swap1\n      pop\n      jump\t// out\n        /* \"#utility.yul\":28476:28895   */\n    tag_272:\n        /* \"#utility.yul\":28642:28646   */\n      0x00\n        /* \"#utility.yul\":28680:28682   */\n      0x20\n        /* \"#utility.yul\":28669:28678   */\n      dup3\n        /* \"#utility.yul\":28665:28683   */\n      add\n        /* \"#utility.yul\":28657:28683   */\n      swap1\n      pop\n        /* \"#utility.yul\":28729:28738   */\n      dup2\n        /* \"#utility.yul\":28723:28727   */\n      dup2\n        /* \"#utility.yul\":28719:28739   */\n      sub\n        /* \"#utility.yul\":28715:28716   */\n      0x00\n        /* \"#utility.yul\":28704:28713   */\n      dup4\n        /* \"#utility.yul\":28700:28717   */\n      add\n        /* \"#utility.yul\":28693:28740   */\n      mstore\n        /* \"#utility.yul\":28757:28888   */\n      tag_655\n        /* \"#utility.yul\":28883:28887   */\n      dup2\n        /* \"#utility.yul\":28757:28888   */\n      tag_395\n      jump\t// in\n    tag_655:\n        /* \"#utility.yul\":28749:28888   */\n      swap1\n      pop\n        /* \"#utility.yul\":28476:28895   */\n      swap2\n      swap1\n      pop\n      jump\t// out\n        /* \"#utility.yul\":28901:29249   */\n    tag_274:\n        /* \"#utility.yul\":28941:28948   */\n      0x00\n        /* \"#utility.yul\":28964:28984   */\n      tag_657\n        /* \"#utility.yul\":28982:28983   */\n      dup3\n        /* \"#utility.yul\":28964:28984   */\n      tag_333\n      jump\t// in\n    tag_657:\n        /* \"#utility.yul\":28959:28984   */\n      swap2\n      pop\n        /* \"#utility.yul\":28998:29018   */\n      tag_658\n        /* \"#utility.yul\":29016:29017   */\n      dup4\n        /* \"#utility.yul\":28998:29018   */\n      tag_333\n      jump\t// in\n    tag_658:\n        /* \"#utility.yul\":28993:29018   */\n      swap3\n      pop\n        /* \"#utility.yul\":29186:29187   */\n      dup2\n        /* \"#utility.yul\":29118:29184   */\n      0xffffffffffffffffffffffffffffffffffffffffffffffffffffffffffffffff\n        /* \"#utility.yul\":29114:29188   */\n      div\n        /* \"#utility.yul\":29111:29112   */\n      dup4\n        /* \"#utility.yul\":29108:29189   */\n      gt\n        /* \"#utility.yul\":29103:29104   */\n      dup3\n        /* \"#utility.yul\":29096:29105   */\n      iszero\n        /* \"#utility.yul\":29089:29106   */\n      iszero\n        /* \"#utility.yul\":29085:29190   */\n      and\n        /* \"#utility.yul\":29082:29213   */\n      iszero\n      tag_659\n      jumpi\n        /* \"#utility.yul\":29193:29211   */\n      tag_660\n      tag_369\n      jump\t// in\n    tag_660:\n        /* \"#utility.yul\":29082:29213   */\n    tag_659:\n        /* \"#utility.yul\":29241:29242   */\n      dup3\n        /* \"#utility.yul\":29238:29239   */\n      dup3\n        /* \"#utility.yul\":29234:29243   */\n      mul\n        /* \"#utility.yul\":29223:29243   */\n      swap1\n      pop\n        /* \"#utility.yul\":28901:29249   */\n      swap3\n      swap2\n      pop\n      pop\n      jump\t// out\n        /* \"#utility.yul\":29255:29435   */\n    tag_396:\n        /* \"#utility.yul\":29303:29380   */\n      0x4e487b7100000000000000000000000000000000000000000000000000000000\n        /* \"#utility.yul\":29300:29301   */\n      0x00\n        /* \"#utility.yul\":29293:29381   */\n      mstore\n        /* \"#utility.yul\":29400:29404   */\n      0x12\n        /* \"#utility.yul\":29397:29398   */\n      0x04\n        /* \"#utility.yul\":29390:29405   */\n      mstore\n        /* \"#utility.yul\":29424:29428   */\n      0x24\n        /* \"#utility.yul\":29421:29422   */\n      0x00\n        /* \"#utility.yul\":29414:29429   */\n      revert\n        /* \"#utility.yul\":29441:29626   */\n    tag_276:\n        /* \"#utility.yul\":29481:29482   */\n      0x00\n        /* \"#utility.yul\":29498:29518   */\n      tag_663\n        /* \"#utility.yul\":29516:29517   */\n      dup3\n        /* \"#utility.yul\":29498:29518   */\n      tag_333\n      jump\t// in\n    tag_663:\n        /* \"#utility.yul\":29493:29518   */\n      swap2\n      pop\n        /* \"#utility.yul\":29532:29552   */\n      tag_664\n        /* \"#utility.yul\":29550:29551   */\n      dup4\n        /* \"#utility.yul\":29532:29552   */\n      tag_333\n      jump\t// in\n    tag_664:\n        /* \"#utility.yul\":29527:29552   */\n      swap3\n      pop\n        /* \"#utility.yul\":29571:29572   */\n      dup3\n        /* \"#utility.yul\":29561:29596   */\n      tag_665\n      jumpi\n        /* \"#utility.yul\":29576:29594   */\n      tag_666\n      tag_396\n      jump\t// in\n    tag_666:\n        /* \"#utility.yul\":29561:29596   */\n    tag_665:\n        /* \"#utility.yul\":29618:29619   */\n      dup3\n        /* \"#utility.yul\":29615:29616   */\n      dup3\n        /* \"#utility.yul\":29611:29620   */\n      div\n        /* \"#utility.yul\":29606:29620   */\n      swap1\n      pop\n        /* \"#utility.yul\":29441:29626   */\n      swap3\n      swap2\n      pop\n      pop\n      jump\t// out\n        /* \"#utility.yul\":29632:29722   */\n    tag_397:\n        /* \"#utility.yul\":29666:29673   */\n      0x00\n        /* \"#utility.yul\":29709:29714   */\n      dup2\n        /* \"#utility.yul\":29702:29715   */\n      iszero\n        /* \"#utility.yul\":29695:29716   */\n      iszero\n        /* \"#utility.yul\":29684:29716   */\n      swap1\n      pop\n        /* \"#utility.yul\":29632:29722   */\n      swap2\n      swap1\n      pop\n      jump\t// out\n        /* \"#utility.yul\":29728:29844   */\n    tag_398:\n        /* \"#utility.yul\":29798:29819   */\n      tag_669\n        /* \"#utility.yul\":29813:29818   */\n      dup2\n        /* \"#utility.yul\":29798:29819   */\n      tag_397\n      jump\t// in\n    tag_669:\n        /* \"#utility.yul\":29791:29796   */\n      dup2\n        /* \"#utility.yul\":29788:29820   */\n      eq\n        /* \"#utility.yul\":29778:29838   */\n      tag_670\n      jumpi\n        /* \"#utility.yul\":29834:29835   */\n      0x00\n        /* \"#utility.yul\":29831:29832   */\n      dup1\n        /* \"#utility.yul\":29824:29836   */\n      revert\n        /* \"#utility.yul\":29778:29838   */\n    tag_670:\n        /* \"#utility.yul\":29728:29844   */\n      pop\n      jump\t// out\n        /* \"#utility.yul\":29850:29987   */\n    tag_399:\n        /* \"#utility.yul\":29904:29909   */\n      0x00\n        /* \"#utility.yul\":29935:29941   */\n      dup2\n        /* \"#utility.yul\":29929:29942   */\n      mload\n        /* \"#utility.yul\":29920:29942   */\n      swap1\n      pop\n        /* \"#utility.yul\":29951:29981   */\n      tag_672\n        /* \"#utility.yul\":29975:29980   */\n      dup2\n        /* \"#utility.yul\":29951:29981   */\n      tag_398\n      jump\t// in\n    tag_672:\n        /* \"#utility.yul\":29850:29987   */\n      swap3\n      swap2\n      pop\n      pop\n      jump\t// out\n        /* \"#utility.yul\":29993:30338   */\n    tag_282:\n        /* \"#utility.yul\":30060:30066   */\n      0x00\n        /* \"#utility.yul\":30109:30111   */\n      0x20\n        /* \"#utility.yul\":30097:30106   */\n      dup3\n        /* \"#utility.yul\":30088:30095   */\n      dup5\n        /* \"#utility.yul\":30084:30107   */\n      sub\n        /* \"#utility.yul\":30080:30112   */\n      slt\n        /* \"#utility.yul\":30077:30196   */\n      iszero\n      tag_674\n      jumpi\n        /* \"#utility.yul\":30115:30194   */\n      tag_675\n      tag_350\n      jump\t// in\n    tag_675:\n        /* \"#utility.yul\":30077:30196   */\n    tag_674:\n        /* \"#utility.yul\":30235:30236   */\n      0x00\n        /* \"#utility.yul\":30260:30321   */\n      tag_676\n        /* \"#utility.yul\":30313:30320   */\n      dup5\n        /* \"#utility.yul\":30304:30310   */\n      dup3\n        /* \"#utility.yul\":30293:30302   */\n      dup6\n        /* \"#utility.yul\":30289:30311   */\n      add\n        /* \"#utility.yul\":30260:30321   */\n      tag_399\n      jump\t// in\n    tag_676:\n        /* \"#utility.yul\":30250:30321   */\n      swap2\n      pop\n        /* \"#utility.yul\":30206:30331   */\n      pop\n        /* \"#utility.yul\":29993:30338   */\n      swap3\n      swap2\n      pop\n      pop\n      jump\t// out\n        /* \"#utility.yul\":30344:30498   */\n    tag_400:\n        /* \"#utility.yul\":30484:30490   */\n      0x414e544100000000000000000000000000000000000000000000000000000000\n        /* \"#utility.yul\":30480:30481   */\n      0x00\n        /* \"#utility.yul\":30472:30478   */\n      dup3\n        /* \"#utility.yul\":30468:30482   */\n      add\n        /* \"#utility.yul\":30461:30491   */\n      mstore\n        /* \"#utility.yul\":30344:30498   */\n      pop\n      jump\t// out\n        /* \"#utility.yul\":30504:30869   */\n    tag_401:\n        /* \"#utility.yul\":30646:30649   */\n      0x00\n        /* \"#utility.yul\":30667:30733   */\n      tag_679\n        /* \"#utility.yul\":30731:30732   */\n      0x04\n        /* \"#utility.yul\":30726:30729   */\n      dup4\n        /* \"#utility.yul\":30667:30733   */\n      tag_370\n      jump\t// in\n    tag_679:\n        /* \"#utility.yul\":30660:30733   */\n      swap2\n      pop\n        /* \"#utility.yul\":30742:30835   */\n      tag_680\n        /* \"#utility.yul\":30831:30834   */\n      dup3\n        /* \"#utility.yul\":30742:30835   */\n      tag_400\n      jump\t// in\n    tag_680:\n        /* \"#utility.yul\":30860:30862   */\n      0x20\n        /* \"#utility.yul\":30855:30858   */\n      dup3\n        /* \"#utility.yul\":30851:30863   */\n      add\n        /* \"#utility.yul\":30844:30863   */\n      swap1\n      pop\n        /* \"#utility.yul\":30504:30869   */\n      swap2\n      swap1\n      pop\n      jump\t// out\n        /* \"#utility.yul\":30875:31950   */\n    tag_294:\n        /* \"#utility.yul\":31205:31209   */\n      0x00\n        /* \"#utility.yul\":31243:31246   */\n      0xe0\n        /* \"#utility.yul\":31232:31241   */\n      dup3\n        /* \"#utility.yul\":31228:31247   */\n      add\n        /* \"#utility.yul\":31220:31247   */\n      swap1\n      pop\n        /* \"#utility.yul\":31257:31328   */\n      tag_682\n        /* \"#utility.yul\":31325:31326   */\n      0x00\n        /* \"#utility.yul\":31314:31323   */\n      dup4\n        /* \"#utility.yul\":31310:31327   */\n      add\n        /* \"#utility.yul\":31301:31307   */\n      dup10\n        /* \"#utility.yul\":31257:31328   */\n      tag_360\n      jump\t// in\n    tag_682:\n        /* \"#utility.yul\":31338:31410   */\n      tag_683\n        /* \"#utility.yul\":31406:31408   */\n      0x20\n        /* \"#utility.yul\":31395:31404   */\n      dup4\n        /* \"#utility.yul\":31391:31409   */\n      add\n        /* \"#utility.yul\":31382:31388   */\n      dup9\n        /* \"#utility.yul\":31338:31410   */\n      tag_362\n      jump\t// in\n    tag_683:\n        /* \"#utility.yul\":31420:31492   */\n      tag_684\n        /* \"#utility.yul\":31488:31490   */\n      0x40\n        /* \"#utility.yul\":31477:31486   */\n      dup4\n        /* \"#utility.yul\":31473:31491   */\n      add\n        /* \"#utility.yul\":31464:31470   */\n      dup8\n        /* \"#utility.yul\":31420:31492   */\n      tag_361\n      jump\t// in\n    tag_684:\n        /* \"#utility.yul\":31502:31570   */\n      tag_685\n        /* \"#utility.yul\":31566:31568   */\n      0x60\n        /* \"#utility.yul\":31555:31564   */\n      dup4\n        /* \"#utility.yul\":31551:31569   */\n      add\n        /* \"#utility.yul\":31542:31548   */\n      dup7\n        /* \"#utility.yul\":31502:31570   */\n      tag_368\n      jump\t// in\n    tag_685:\n        /* \"#utility.yul\":31580:31653   */\n      tag_686\n        /* \"#utility.yul\":31648:31651   */\n      0x80\n        /* \"#utility.yul\":31637:31646   */\n      dup4\n        /* \"#utility.yul\":31633:31652   */\n      add\n        /* \"#utility.yul\":31624:31630   */\n      dup6\n        /* \"#utility.yul\":31580:31653   */\n      tag_361\n      jump\t// in\n    tag_686:\n        /* \"#utility.yul\":31701:31710   */\n      dup2\n        /* \"#utility.yul\":31695:31699   */\n      dup2\n        /* \"#utility.yul\":31691:31711   */\n      sub\n        /* \"#utility.yul\":31685:31688   */\n      0xa0\n        /* \"#utility.yul\":31674:31683   */\n      dup4\n        /* \"#utility.yul\":31670:31689   */\n      add\n        /* \"#utility.yul\":31663:31712   */\n      mstore\n        /* \"#utility.yul\":31729:31860   */\n      tag_687\n        /* \"#utility.yul\":31855:31859   */\n      dup2\n        /* \"#utility.yul\":31729:31860   */\n      tag_401\n      jump\t// in\n    tag_687:\n        /* \"#utility.yul\":31721:31860   */\n      swap1\n      pop\n        /* \"#utility.yul\":31870:31943   */\n      tag_688\n        /* \"#utility.yul\":31938:31941   */\n      0xc0\n        /* \"#utility.yul\":31927:31936   */\n      dup4\n        /* \"#utility.yul\":31923:31942   */\n      add\n        /* \"#utility.yul\":31914:31920   */\n      dup5\n        /* \"#utility.yul\":31870:31943   */\n      tag_361\n      jump\t// in\n    tag_688:\n        /* \"#utility.yul\":30875:31950   */\n      swap8\n      swap7\n      pop\n      pop\n      pop\n      pop\n      pop\n      pop\n      pop\n      jump\t// out\n        /* \"#utility.yul\":31956:32181   */\n    tag_402:\n        /* \"#utility.yul\":32096:32130   */\n      0x4f776e61626c653a206e6577206f776e657220697320746865207a65726f2061\n        /* \"#utility.yul\":32092:32093   */\n      0x00\n        /* \"#utility.yul\":32084:32090   */\n      dup3\n        /* \"#utility.yul\":32080:32094   */\n      add\n        /* \"#utility.yul\":32073:32131   */\n      mstore\n        /* \"#utility.yul\":32165:32173   */\n      0x6464726573730000000000000000000000000000000000000000000000000000\n        /* \"#utility.yul\":32160:32162   */\n      0x20\n        /* \"#utility.yul\":32152:32158   */\n      dup3\n        /* \"#utility.yul\":32148:32163   */\n      add\n        /* \"#utility.yul\":32141:32174   */\n      mstore\n        /* \"#utility.yul\":31956:32181   */\n      pop\n      jump\t// out\n        /* \"#utility.yul\":32187:32553   */\n    tag_403:\n        /* \"#utility.yul\":32329:32332   */\n      0x00\n        /* \"#utility.yul\":32350:32417   */\n      tag_691\n        /* \"#utility.yul\":32414:32416   */\n      0x26\n        /* \"#utility.yul\":32409:32412   */\n      dup4\n        /* \"#utility.yul\":32350:32417   */\n      tag_370\n      jump\t// in\n    tag_691:\n        /* \"#utility.yul\":32343:32417   */\n      swap2\n      pop\n        /* \"#utility.yul\":32426:32519   */\n      tag_692\n        /* \"#utility.yul\":32515:32518   */\n      dup3\n        /* \"#utility.yul\":32426:32519   */\n      tag_402\n      jump\t// in\n    tag_692:\n        /* \"#utility.yul\":32544:32546   */\n      0x40\n        /* \"#utility.yul\":32539:32542   */\n      dup3\n        /* \"#utility.yul\":32535:32547   */\n      add\n        /* \"#utility.yul\":32528:32547   */\n      swap1\n      pop\n        /* \"#utility.yul\":32187:32553   */\n      swap2\n      swap1\n      pop\n      jump\t// out\n        /* \"#utility.yul\":32559:32978   */\n    tag_303:\n        /* \"#utility.yul\":32725:32729   */\n      0x00\n        /* \"#utility.yul\":32763:32765   */\n      0x20\n        /* \"#utility.yul\":32752:32761   */\n      dup3\n        /* \"#utility.yul\":32748:32766   */\n      add\n        /* \"#utility.yul\":32740:32766   */\n      swap1\n      pop\n        /* \"#utility.yul\":32812:32821   */\n      dup2\n        /* \"#utility.yul\":32806:32810   */\n      dup2\n        /* \"#utility.yul\":32802:32822   */\n      sub\n        /* \"#utility.yul\":32798:32799   */\n      0x00\n        /* \"#utility.yul\":32787:32796   */\n      dup4\n        /* \"#utility.yul\":32783:32800   */\n      add\n        /* \"#utility.yul\":32776:32823   */\n      mstore\n        /* \"#utility.yul\":32840:32971   */\n      tag_694\n        /* \"#utility.yul\":32966:32970   */\n      dup2\n        /* \"#utility.yul\":32840:32971   */\n      tag_403\n      jump\t// in\n    tag_694:\n        /* \"#utility.yul\":32832:32971   */\n      swap1\n      pop\n        /* \"#utility.yul\":32559:32978   */\n      swap2\n      swap1\n      pop\n      jump\t// out\n        /* \"#utility.yul\":32984:33207   */\n    tag_404:\n        /* \"#utility.yul\":33124:33158   */\n      0x546865204e465420416464726573732073686f756c64206265206120636f6e74\n        /* \"#utility.yul\":33120:33121   */\n      0x00\n        /* \"#utility.yul\":33112:33118   */\n      dup3\n        /* \"#utility.yul\":33108:33122   */\n      add\n        /* \"#utility.yul\":33101:33159   */\n      mstore\n        /* \"#utility.yul\":33193:33199   */\n      0x7261637400000000000000000000000000000000000000000000000000000000\n        /* \"#utility.yul\":33188:33190   */\n      0x20\n        /* \"#utility.yul\":33180:33186   */\n      dup3\n        /* \"#utility.yul\":33176:33191   */\n      add\n        /* \"#utility.yul\":33169:33200   */\n      mstore\n        /* \"#utility.yul\":32984:33207   */\n      pop\n      jump\t// out\n        /* \"#utility.yul\":33213:33579   */\n    tag_405:\n        /* \"#utility.yul\":33355:33358   */\n      0x00\n        /* \"#utility.yul\":33376:33443   */\n      tag_697\n        /* \"#utility.yul\":33440:33442   */\n      0x24\n        /* \"#utility.yul\":33435:33438   */\n      dup4\n        /* \"#utility.yul\":33376:33443   */\n      tag_370\n      jump\t// in\n    tag_697:\n        /* \"#utility.yul\":33369:33443   */\n      swap2\n      pop\n        /* \"#utility.yul\":33452:33545   */\n      tag_698\n        /* \"#utility.yul\":33541:33544   */\n      dup3\n        /* \"#utility.yul\":33452:33545   */\n      tag_404\n      jump\t// in\n    tag_698:\n        /* \"#utility.yul\":33570:33572   */\n      0x40\n        /* \"#utility.yul\":33565:33568   */\n      dup3\n        /* \"#utility.yul\":33561:33573   */\n      add\n        /* \"#utility.yul\":33554:33573   */\n      swap1\n      pop\n        /* \"#utility.yul\":33213:33579   */\n      swap2\n      swap1\n      pop\n      jump\t// out\n        /* \"#utility.yul\":33585:34004   */\n    tag_312:\n        /* \"#utility.yul\":33751:33755   */\n      0x00\n        /* \"#utility.yul\":33789:33791   */\n      0x20\n        /* \"#utility.yul\":33778:33787   */\n      dup3\n        /* \"#utility.yul\":33774:33792   */\n      add\n        /* \"#utility.yul\":33766:33792   */\n      swap1\n      pop\n        /* \"#utility.yul\":33838:33847   */\n      dup2\n        /* \"#utility.yul\":33832:33836   */\n      dup2\n        /* \"#utility.yul\":33828:33848   */\n      sub\n        /* \"#utility.yul\":33824:33825   */\n      0x00\n        /* \"#utility.yul\":33813:33822   */\n      dup4\n        /* \"#utility.yul\":33809:33826   */\n      add\n        /* \"#utility.yul\":33802:33849   */\n      mstore\n        /* \"#utility.yul\":33866:33997   */\n      tag_700\n        /* \"#utility.yul\":33992:33996   */\n      dup2\n        /* \"#utility.yul\":33866:33997   */\n      tag_405\n      jump\t// in\n    tag_700:\n        /* \"#utility.yul\":33858:33997   */\n      swap1\n      pop\n        /* \"#utility.yul\":33585:34004   */\n      swap2\n      swap1\n      pop\n      jump\t// out\n        /* \"#utility.yul\":34010:34250   */\n    tag_406:\n        /* \"#utility.yul\":34150:34184   */\n      0x546865204e465420636f6e74726163742068617320616e20696e76616c696420\n        /* \"#utility.yul\":34146:34147   */\n      0x00\n        /* \"#utility.yul\":34138:34144   */\n      dup3\n        /* \"#utility.yul\":34134:34148   */\n      add\n        /* \"#utility.yul\":34127:34185   */\n      mstore\n        /* \"#utility.yul\":34219:34242   */\n      0x45524337323120696d706c656d656e746174696f6e0000000000000000000000\n        /* \"#utility.yul\":34214:34216   */\n      0x20\n        /* \"#utility.yul\":34206:34212   */\n      dup3\n        /* \"#utility.yul\":34202:34217   */\n      add\n        /* \"#utility.yul\":34195:34243   */\n      mstore\n        /* \"#utility.yul\":34010:34250   */\n      pop\n      jump\t// out\n        /* \"#utility.yul\":34256:34622   */\n    tag_407:\n        /* \"#utility.yul\":34398:34401   */\n      0x00\n        /* \"#utility.yul\":34419:34486   */\n      tag_703\n        /* \"#utility.yul\":34483:34485   */\n      0x35\n        /* \"#utility.yul\":34478:34481   */\n      dup4\n        /* \"#utility.yul\":34419:34486   */\n      tag_370\n      jump\t// in\n    tag_703:\n        /* \"#utility.yul\":34412:34486   */\n      swap2\n      pop\n        /* \"#utility.yul\":34495:34588   */\n      tag_704\n        /* \"#utility.yul\":34584:34587   */\n      dup3\n        /* \"#utility.yul\":34495:34588   */\n      tag_406\n      jump\t// in\n    tag_704:\n        /* \"#utility.yul\":34613:34615   */\n      0x40\n        /* \"#utility.yul\":34608:34611   */\n      dup3\n        /* \"#utility.yul\":34604:34616   */\n      add\n        /* \"#utility.yul\":34597:34616   */\n      swap1\n      pop\n        /* \"#utility.yul\":34256:34622   */\n      swap2\n      swap1\n      pop\n      jump\t// out\n        /* \"#utility.yul\":34628:35047   */\n    tag_319:\n        /* \"#utility.yul\":34794:34798   */\n      0x00\n        /* \"#utility.yul\":34832:34834   */\n      0x20\n        /* \"#utility.yul\":34821:34830   */\n      dup3\n        /* \"#utility.yul\":34817:34835   */\n      add\n        /* \"#utility.yul\":34809:34835   */\n      swap1\n      pop\n        /* \"#utility.yul\":34881:34890   */\n      dup2\n        /* \"#utility.yul\":34875:34879   */\n      dup2\n        /* \"#utility.yul\":34871:34891   */\n      sub\n        /* \"#utility.yul\":34867:34868   */\n      0x00\n        /* \"#utility.yul\":34856:34865   */\n      dup4\n        /* \"#utility.yul\":34852:34869   */\n      add\n        /* \"#utility.yul\":34845:34892   */\n      mstore\n        /* \"#utility.yul\":34909:35040   */\n      tag_706\n        /* \"#utility.yul\":35035:35039   */\n      dup2\n        /* \"#utility.yul\":34909:35040   */\n      tag_407\n      jump\t// in\n    tag_706:\n        /* \"#utility.yul\":34901:35040   */\n      swap1\n      pop\n        /* \"#utility.yul\":34628:35047   */\n      swap2\n      swap1\n      pop\n      jump\t// out\n        /* \"#utility.yul\":35053:35132   */\n    tag_408:\n        /* \"#utility.yul\":35092:35099   */\n      0x00\n        /* \"#utility.yul\":35121:35126   */\n      dup2\n        /* \"#utility.yul\":35110:35126   */\n      swap1\n      pop\n        /* \"#utility.yul\":35053:35132   */\n      swap2\n      swap1\n      pop\n      jump\t// out\n        /* \"#utility.yul\":35138:35295   */\n    tag_409:\n        /* \"#utility.yul\":35243:35288   */\n      tag_709\n        /* \"#utility.yul\":35263:35287   */\n      tag_710\n        /* \"#utility.yul\":35281:35286   */\n      dup3\n        /* \"#utility.yul\":35263:35287   */\n      tag_333\n      jump\t// in\n    tag_710:\n        /* \"#utility.yul\":35243:35288   */\n      tag_408\n      jump\t// in\n    tag_709:\n        /* \"#utility.yul\":35238:35241   */\n      dup3\n        /* \"#utility.yul\":35231:35289   */\n      mstore\n        /* \"#utility.yul\":35138:35295   */\n      pop\n      pop\n      jump\t// out\n        /* \"#utility.yul\":35301:35395   */\n    tag_410:\n        /* \"#utility.yul\":35334:35342   */\n      0x00\n        /* \"#utility.yul\":35382:35387   */\n      dup2\n        /* \"#utility.yul\":35378:35380   */\n      0x60\n        /* \"#utility.yul\":35374:35388   */\n      shl\n        /* \"#utility.yul\":35353:35388   */\n      swap1\n      pop\n        /* \"#utility.yul\":35301:35395   */\n      swap2\n      swap1\n      pop\n      jump\t// out\n        /* \"#utility.yul\":35401:35495   */\n    tag_411:\n        /* \"#utility.yul\":35440:35447   */\n      0x00\n        /* \"#utility.yul\":35469:35489   */\n      tag_713\n        /* \"#utility.yul\":35483:35488   */\n      dup3\n        /* \"#utility.yul\":35469:35489   */\n      tag_410\n      jump\t// in\n    tag_713:\n        /* \"#utility.yul\":35458:35489   */\n      swap1\n      pop\n        /* \"#utility.yul\":35401:35495   */\n      swap2\n      swap1\n      pop\n      jump\t// out\n        /* \"#utility.yul\":35501:35601   */\n    tag_412:\n        /* \"#utility.yul\":35540:35547   */\n      0x00\n        /* \"#utility.yul\":35569:35595   */\n      tag_715\n        /* \"#utility.yul\":35589:35594   */\n      dup3\n        /* \"#utility.yul\":35569:35595   */\n      tag_411\n      jump\t// in\n    tag_715:\n        /* \"#utility.yul\":35558:35595   */\n      swap1\n      pop\n        /* \"#utility.yul\":35501:35601   */\n      swap2\n      swap1\n      pop\n      jump\t// out\n        /* \"#utility.yul\":35607:35764   */\n    tag_413:\n        /* \"#utility.yul\":35712:35757   */\n      tag_717\n        /* \"#utility.yul\":35732:35756   */\n      tag_718\n        /* \"#utility.yul\":35750:35755   */\n      dup3\n        /* \"#utility.yul\":35732:35756   */\n      tag_336\n      jump\t// in\n    tag_718:\n        /* \"#utility.yul\":35712:35757   */\n      tag_412\n      jump\t// in\n    tag_717:\n        /* \"#utility.yul\":35707:35710   */\n      dup3\n        /* \"#utility.yul\":35700:35758   */\n      mstore\n        /* \"#utility.yul\":35607:35764   */\n      pop\n      pop\n      jump\t// out\n        /* \"#utility.yul\":35770:36590   */\n    tag_322:\n        /* \"#utility.yul\":35994:35997   */\n      0x00\n        /* \"#utility.yul\":36009:36084   */\n      tag_720\n        /* \"#utility.yul\":36080:36083   */\n      dup3\n        /* \"#utility.yul\":36071:36077   */\n      dup9\n        /* \"#utility.yul\":36009:36084   */\n      tag_409\n      jump\t// in\n    tag_720:\n        /* \"#utility.yul\":36109:36111   */\n      0x20\n        /* \"#utility.yul\":36104:36107   */\n      dup3\n        /* \"#utility.yul\":36100:36112   */\n      add\n        /* \"#utility.yul\":36093:36112   */\n      swap2\n      pop\n        /* \"#utility.yul\":36122:36197   */\n      tag_721\n        /* \"#utility.yul\":36193:36196   */\n      dup3\n        /* \"#utility.yul\":36184:36190   */\n      dup8\n        /* \"#utility.yul\":36122:36197   */\n      tag_413\n      jump\t// in\n    tag_721:\n        /* \"#utility.yul\":36222:36224   */\n      0x14\n        /* \"#utility.yul\":36217:36220   */\n      dup3\n        /* \"#utility.yul\":36213:36225   */\n      add\n        /* \"#utility.yul\":36206:36225   */\n      swap2\n      pop\n        /* \"#utility.yul\":36235:36310   */\n      tag_722\n        /* \"#utility.yul\":36306:36309   */\n      dup3\n        /* \"#utility.yul\":36297:36303   */\n      dup7\n        /* \"#utility.yul\":36235:36310   */\n      tag_409\n      jump\t// in\n    tag_722:\n        /* \"#utility.yul\":36335:36337   */\n      0x20\n        /* \"#utility.yul\":36330:36333   */\n      dup3\n        /* \"#utility.yul\":36326:36338   */\n      add\n        /* \"#utility.yul\":36319:36338   */\n      swap2\n      pop\n        /* \"#utility.yul\":36348:36423   */\n      tag_723\n        /* \"#utility.yul\":36419:36422   */\n      dup3\n        /* \"#utility.yul\":36410:36416   */\n      dup6\n        /* \"#utility.yul\":36348:36423   */\n      tag_413\n      jump\t// in\n    tag_723:\n        /* \"#utility.yul\":36448:36450   */\n      0x14\n        /* \"#utility.yul\":36443:36446   */\n      dup3\n        /* \"#utility.yul\":36439:36451   */\n      add\n        /* \"#utility.yul\":36432:36451   */\n      swap2\n      pop\n        /* \"#utility.yul\":36461:36536   */\n      tag_724\n        /* \"#utility.yul\":36532:36535   */\n      dup3\n        /* \"#utility.yul\":36523:36529   */\n      dup5\n        /* \"#utility.yul\":36461:36536   */\n      tag_409\n      jump\t// in\n    tag_724:\n        /* \"#utility.yul\":36561:36563   */\n      0x20\n        /* \"#utility.yul\":36556:36559   */\n      dup3\n        /* \"#utility.yul\":36552:36564   */\n      add\n        /* \"#utility.yul\":36545:36564   */\n      swap2\n      pop\n        /* \"#utility.yul\":36581:36584   */\n      dup2\n        /* \"#utility.yul\":36574:36584   */\n      swap1\n      pop\n        /* \"#utility.yul\":35770:36590   */\n      swap7\n      swap6\n      pop\n      pop\n      pop\n      pop\n      pop\n      pop\n      jump\t// out\n\n    auxdata: 0xa26469706673582212205ed1a79e7a83c0647547ee21853fc1089221f7b1d4acc91b1f7e21d43d024faa64736f6c634300080d0033\n}\n",
				"bytecode": {
					"linkReferences": {},
					"object": "60806040523480156200001157600080fd5b5060016000819055506200003a6200002e6200004060201b60201c565b6200004860201b60201c565b6200010e565b600033905090565b6000600460009054906101000a900473ffffffffffffffffffffffffffffffffffffffff16905081600460006101000a81548173ffffffffffffffffffffffffffffffffffffffff021916908373ffffffffffffffffffffffffffffffffffffffff1602179055508173ffffffffffffffffffffffffffffffffffffffff168173ffffffffffffffffffffffffffffffffffffffff167f8be0079c531659141344cd1fd0a4f28419497f9722a3daafe3b4186f6b6457e060405160405180910390a35050565b613841806200011e6000396000f3fe6080604052600436106101095760003560e01c8063715018a611610095578063b7a60c7e11610064578063b7a60c7e14610352578063c23b139e1461037d578063c7be7a4914610399578063f01b52dc146103d6578063f2fde38b146103ff57610109565b8063715018a6146102bc57806385a8b36c146102d35780638da5cb5b146102fe57806392bf77dd1461032957610109565b80632b4c32be116100dc5780632b4c32be146101cc57806349739678146101f757806358eb2df5146102355780635c80a43514610251578063689153271461029357610109565b80630f08efe01461010e57806315b81dc314610139578063202e3740146101645780632a45b2501461018f575b600080fd5b34801561011a57600080fd5b50610123610428565b6040516101309190612767565b60405180910390f35b34801561014557600080fd5b5061014e6106ec565b60405161015b91906127e8565b60405180910390f35b34801561017057600080fd5b50610179610712565b6040516101869190612767565b60405180910390f35b34801561019b57600080fd5b506101b660048036038101906101b19190612834565b610a59565b6040516101c391906128dc565b60405180910390f35b3480156101d857600080fd5b506101e1610bac565b6040516101ee9190612932565b60405180910390f35b34801561020357600080fd5b5061021e60048036038101906102199190612979565b610bb7565b60405161022c9291906129f4565b60405180910390f35b61024f600480360381019061024a9190612a1d565b610bf5565b005b34801561025d57600080fd5b5061027860048036038101906102739190612a70565b610ee8565b60405161028a96959493929190612b36565b60405180910390f35b34801561029f57600080fd5b506102ba60048036038101906102b59190612a1d565b610f7e565b005b3480156102c857600080fd5b506102d16114e1565b005b3480156102df57600080fd5b506102e8611569565b6040516102f59190612bb3565b60405180910390f35b34801561030a57600080fd5b5061031361157c565b6040516103209190612bce565b60405180910390f35b34801561033557600080fd5b50610350600480360381019061034b9190612be9565b6115a6565b005b34801561035e57600080fd5b50610367611666565b6040516103749190612bb3565b60405180910390f35b61039760048036038101906103929190612a70565b611679565b005b3480156103a557600080fd5b506103c060048036038101906103bb9190612834565b611897565b6040516103cd91906128dc565b60405180910390f35b3480156103e257600080fd5b506103fd60048036038101906103f89190612a1d565b6119e4565b005b34801561040b57600080fd5b5061042660048036038101906104219190612be9565b612061565b005b606060006104366005612158565b905060006104446006612158565b61044e6005612158565b6104589190612c45565b90506000808267ffffffffffffffff81111561047757610476612c79565b5b6040519080825280602002602001820160405280156104b057816020015b61049d61254a565b8152602001906001900390816104955790505b50905060005b848110156106e157600073ffffffffffffffffffffffffffffffffffffffff16600760006001846104e79190612ca8565b815260200190815260200160002060040160009054906101000a900473ffffffffffffffffffffffffffffffffffffffff1673ffffffffffffffffffffffffffffffffffffffff16036106ce576000600760006001846105479190612ca8565b81526020019081526020016000206000015490506000600760008381526020019081526020016000209050806040518060c0016040529081600082015481526020016001820160009054906101000a900473ffffffffffffffffffffffffffffffffffffffff1673ffffffffffffffffffffffffffffffffffffffff1673ffffffffffffffffffffffffffffffffffffffff168152602001600282015481526020016003820160009054906101000a900473ffffffffffffffffffffffffffffffffffffffff1673ffffffffffffffffffffffffffffffffffffffff1673ffffffffffffffffffffffffffffffffffffffff1681526020016004820160009054906101000a900473ffffffffffffffffffffffffffffffffffffffff1673ffffffffffffffffffffffffffffffffffffffff1673ffffffffffffffffffffffffffffffffffffffff1681526020016005820154815250508486815181106106b1576106b0612cfe565b5b60200260200101819052506001856106c99190612ca8565b945050505b80806106d990612d2d565b9150506104b6565b508094505050505090565b600360009054906101000a900473ffffffffffffffffffffffffffffffffffffffff1681565b606060006107206005612158565b905060008060005b838110156107c8573373ffffffffffffffffffffffffffffffffffffffff16600760006001846107589190612ca8565b815260200190815260200160002060040160009054906101000a900473ffffffffffffffffffffffffffffffffffffffff1673ffffffffffffffffffffffffffffffffffffffff16036107b5576001836107b29190612ca8565b92505b80806107c090612d2d565b915050610728565b5060008267ffffffffffffffff8111156107e5576107e4612c79565b5b60405190808252806020026020018201604052801561081e57816020015b61080b61254a565b8152602001906001900390816108035790505b50905060005b84811015610a4e573373ffffffffffffffffffffffffffffffffffffffff16600760006001846108549190612ca8565b815260200190815260200160002060040160009054906101000a900473ffffffffffffffffffffffffffffffffffffffff1673ffffffffffffffffffffffffffffffffffffffff1603610a3b576000600760006001846108b49190612ca8565b81526020019081526020016000206000015490506000600760008381526020019081526020016000209050806040518060c0016040529081600082015481526020016001820160009054906101000a900473ffffffffffffffffffffffffffffffffffffffff1673ffffffffffffffffffffffffffffffffffffffff1673ffffffffffffffffffffffffffffffffffffffff168152602001600282015481526020016003820160009054906101000a900473ffffffffffffffffffffffffffffffffffffffff1673ffffffffffffffffffffffffffffffffffffffff1673ffffffffffffffffffffffffffffffffffffffff1681526020016004820160009054906101000a900473ffffffffffffffffffffffffffffffffffffffff1673ffffffffffffffffffffffffffffffffffffffff1673ffffffffffffffffffffffffffffffffffffffff168152602001600582015481525050848681518110610a1e57610a1d612cfe565b5b6020026020010181905250600185610a369190612ca8565b945050505b8080610a4690612d2d565b915050610824565b508094505050505090565b610a6161254a565b6000600760008481526020019081526020016000206040518060c0016040529081600082015481526020016001820160009054906101000a900473ffffffffffffffffffffffffffffffffffffffff1673ffffffffffffffffffffffffffffffffffffffff1673ffffffffffffffffffffffffffffffffffffffff168152602001600282015481526020016003820160009054906101000a900473ffffffffffffffffffffffffffffffffffffffff1673ffffffffffffffffffffffffffffffffffffffff1673ffffffffffffffffffffffffffffffffffffffff1681526020016004820160009054906101000a900473ffffffffffffffffffffffffffffffffffffffff1673ffffffffffffffffffffffffffffffffffffffff1673ffffffffffffffffffffffffffffffffffffffff168152602001600582015481525050905080915050919050565b6380ac58cd60e01b81565b600260205282600052604060002060205281600052604060002060205280600052604060002060009250925050508060000154908060010154905082565b600260005403610c3a576040517f08c379a0000000000000000000000000000000000000000000000000000000008152600401610c3190612dd2565b60405180910390fd5b600260008190555060008111610c85576040517f08c379a0000000000000000000000000000000000000000000000000000000008152600401610c7c90612e3e565b60405180910390fd5b610c8f6005612166565b6000610c9b6005612158565b90506040518060c001604052808281526020018573ffffffffffffffffffffffffffffffffffffffff1681526020018481526020013373ffffffffffffffffffffffffffffffffffffffff168152602001600073ffffffffffffffffffffffffffffffffffffffff16815260200183815250600760008381526020019081526020016000206000820151816000015560208201518160010160006101000a81548173ffffffffffffffffffffffffffffffffffffffff021916908373ffffffffffffffffffffffffffffffffffffffff1602179055506040820151816002015560608201518160030160006101000a81548173ffffffffffffffffffffffffffffffffffffffff021916908373ffffffffffffffffffffffffffffffffffffffff16021790555060808201518160040160006101000a81548173ffffffffffffffffffffffffffffffffffffffff021916908373ffffffffffffffffffffffffffffffffffffffff16021790555060a082015181600501559050508373ffffffffffffffffffffffffffffffffffffffff166323b872dd3330866040518463ffffffff1660e01b8152600401610e5393929190612e5e565b600060405180830381600087803b158015610e6d57600080fd5b505af1158015610e81573d6000803e3d6000fd5b50505050828473ffffffffffffffffffffffffffffffffffffffff16827f2ad024d53a0dc50c130967f8d4941927ee087ea31394cebb2b9599d3706c9c0033600087604051610ed293929190612e5e565b60405180910390a4506001600081905550505050565b6001602052816000526040600020602052806000526040600020600091509150508060000154908060010160009054906101000a900473ffffffffffffffffffffffffffffffffffffffff16908060020160009054906101000a900473ffffffffffffffffffffffffffffffffffffffff16908060030154908060040154908060050160009054906101000a900460ff16905086565b60008111610fc1576040517f08c379a0000000000000000000000000000000000000000000000000000000008152600401610fb890612ee1565b60405180910390fd5b610fca8361217c565b600033905060008490508173ffffffffffffffffffffffffffffffffffffffff168173ffffffffffffffffffffffffffffffffffffffff16636352211e866040518263ffffffff1660e01b81526004016110249190612f01565b602060405180830381865afa158015611041573d6000803e3d6000fd5b505050506040513d601f19601f820116820180604052508101906110659190612f31565b73ffffffffffffffffffffffffffffffffffffffff16146110bb576040517f08c379a00000000000000000000000000000000000000000000000000000000081526004016110b290612fd0565b60405180910390fd5b8073ffffffffffffffffffffffffffffffffffffffff166323b872dd8330876040518463ffffffff1660e01b81526004016110f893929190612e5e565b600060405180830381600087803b15801561111257600080fd5b505af1158015611126573d6000803e3d6000fd5b505050506000600160008773ffffffffffffffffffffffffffffffffffffffff1673ffffffffffffffffffffffffffffffffffffffff16815260200190815260200160002060008681526020019081526020016000206040518060c0016040529081600082015481526020016001820160009054906101000a900473ffffffffffffffffffffffffffffffffffffffff1673ffffffffffffffffffffffffffffffffffffffff1673ffffffffffffffffffffffffffffffffffffffff1681526020016002820160009054906101000a900473ffffffffffffffffffffffffffffffffffffffff1673ffffffffffffffffffffffffffffffffffffffff1673ffffffffffffffffffffffffffffffffffffffff16815260200160038201548152602001600482015481526020016005820160009054906101000a900460ff16600481111561127657611275612abf565b5b600481111561128857611287612abf565b5b8152505090506000801b8160000151036112af576112aa83868887600061228d565b611480565b600160048111156112c3576112c2612abf565b5b8160a0015160048111156112da576112d9612abf565b5b0361131a576040517f08c379a00000000000000000000000000000000000000000000000000000000081526004016113119061303c565b60405180910390fd5b60018060008873ffffffffffffffffffffffffffffffffffffffff1673ffffffffffffffffffffffffffffffffffffffff168152602001908152602001600020600087815260200190815260200160002060050160006101000a81548160ff021916908360048111156113905761138f612abf565b5b021790555083600160008873ffffffffffffffffffffffffffffffffffffffff1673ffffffffffffffffffffffffffffffffffffffff16815260200190815260200160002060008781526020019081526020016000206003018190555082600160008873ffffffffffffffffffffffffffffffffffffffff1673ffffffffffffffffffffffffffffffffffffffff168152602001908152602001600020600087815260200190815260200160002060010160006101000a81548173ffffffffffffffffffffffffffffffffffffffff021916908373ffffffffffffffffffffffffffffffffffffffff1602179055505b8273ffffffffffffffffffffffffffffffffffffffff16857fff2412bd5c66e6ad5153e35ee902ee32bb4393211a4d0662428b9b481929a7b988846000015188426040516114d194939291906130a8565b60405180910390a3505050505050565b6114e9612463565b73ffffffffffffffffffffffffffffffffffffffff1661150761157c565b73ffffffffffffffffffffffffffffffffffffffff161461155d576040517f08c379a00000000000000000000000000000000000000000000000000000000081526004016115549061314c565b60405180910390fd5b611567600061246b565b565b600360149054906101000a900460ff1681565b6000600460009054906101000a900473ffffffffffffffffffffffffffffffffffffffff16905090565b6115ae612463565b73ffffffffffffffffffffffffffffffffffffffff166115cc61157c565b73ffffffffffffffffffffffffffffffffffffffff1614611622576040517f08c379a00000000000000000000000000000000000000000000000000000000081526004016116199061314c565b60405180910390fd5b80600360006101000a81548173ffffffffffffffffffffffffffffffffffffffff021916908373ffffffffffffffffffffffffffffffffffffffff16021790555050565b600360159054906101000a900460ff1681565b6002600054036116be576040517f08c379a00000000000000000000000000000000000000000000000000000000081526004016116b590612dd2565b60405180910390fd5b600260008190555060006007600083815260200190815260200160002060050154905060006007600084815260200190815260200160002060020154905081341461173e576040517f08c379a0000000000000000000000000000000000000000000000000000000008152600401611735906131de565b60405180910390fd5b6007600084815260200190815260200160002060030160009054906101000a900473ffffffffffffffffffffffffffffffffffffffff1673ffffffffffffffffffffffffffffffffffffffff166108fc349081150290604051600060405180830381858888f193505050501580156117ba573d6000803e3d6000fd5b508373ffffffffffffffffffffffffffffffffffffffff166323b872dd3033846040518463ffffffff1660e01b81526004016117f893929190612e5e565b600060405180830381600087803b15801561181257600080fd5b505af1158015611826573d6000803e3d6000fd5b50505050336007600085815260200190815260200160002060040160006101000a81548173ffffffffffffffffffffffffffffffffffffffff021916908373ffffffffffffffffffffffffffffffffffffffff1602179055506118896006612166565b505060016000819055505050565b61189f61254a565b600760008381526020019081526020016000206040518060c0016040529081600082015481526020016001820160009054906101000a900473ffffffffffffffffffffffffffffffffffffffff1673ffffffffffffffffffffffffffffffffffffffff1673ffffffffffffffffffffffffffffffffffffffff168152602001600282015481526020016003820160009054906101000a900473ffffffffffffffffffffffffffffffffffffffff1673ffffffffffffffffffffffffffffffffffffffff1673ffffffffffffffffffffffffffffffffffffffff1681526020016004820160009054906101000a900473ffffffffffffffffffffffffffffffffffffffff1673ffffffffffffffffffffffffffffffffffffffff1673ffffffffffffffffffffffffffffffffffffffff1681526020016005820154815250509050919050565b6119ed8361217c565b600033905060008490506000600160008773ffffffffffffffffffffffffffffffffffffffff1673ffffffffffffffffffffffffffffffffffffffff16815260200190815260200160002060008681526020019081526020016000206040518060c0016040529081600082015481526020016001820160009054906101000a900473ffffffffffffffffffffffffffffffffffffffff1673ffffffffffffffffffffffffffffffffffffffff1673ffffffffffffffffffffffffffffffffffffffff1681526020016002820160009054906101000a900473ffffffffffffffffffffffffffffffffffffffff1673ffffffffffffffffffffffffffffffffffffffff1673ffffffffffffffffffffffffffffffffffffffff16815260200160038201548152602001600482015481526020016005820160009054906101000a900460ff166004811115611b4357611b42612abf565b5b6004811115611b5557611b54612abf565b5b8152505090506000801b816000015103611ba4576040517f08c379a0000000000000000000000000000000000000000000000000000000008152600401611b9b9061324a565b60405180910390fd5b60016004811115611bb857611bb7612abf565b5b8160a001516004811115611bcf57611bce612abf565b5b14611c0f576040517f08c379a0000000000000000000000000000000000000000000000000000000008152600401611c06906132b6565b60405180910390fd5b600081602001519050600073ffffffffffffffffffffffffffffffffffffffff168173ffffffffffffffffffffffffffffffffffffffff1603611c87576040517f08c379a0000000000000000000000000000000000000000000000000000000008152600401611c7e90613322565b60405180910390fd5b8160800151851015611cce576040517f08c379a0000000000000000000000000000000000000000000000000000000008152600401611cc59061338e565b60405180910390fd5b6000606486600360159054906101000a900460ff1660ff16611cf091906133ae565b611cfa9190613437565b905060008187611d0a9190612c45565b9050600360009054906101000a900473ffffffffffffffffffffffffffffffffffffffff1673ffffffffffffffffffffffffffffffffffffffff166323b872dd8730856040518463ffffffff1660e01b8152600401611d6b93929190612e5e565b6020604051808303816000875af1158015611d8a573d6000803e3d6000fd5b505050506040513d601f19601f82011682018060405250810190611dae91906134a0565b50600360009054906101000a900473ffffffffffffffffffffffffffffffffffffffff1673ffffffffffffffffffffffffffffffffffffffff166323b872dd8785846040518463ffffffff1660e01b8152600401611e0e93929190612e5e565b6020604051808303816000875af1158015611e2d573d6000803e3d6000fd5b505050506040513d601f19601f82011682018060405250810190611e5191906134a0565b508473ffffffffffffffffffffffffffffffffffffffff166342842e0e30888b6040518463ffffffff1660e01b8152600401611e8f93929190612e5e565b600060405180830381600087803b158015611ea957600080fd5b505af1158015611ebd573d6000803e3d6000fd5b5050505085600160008b73ffffffffffffffffffffffffffffffffffffffff1673ffffffffffffffffffffffffffffffffffffffff16815260200190815260200160002060008a815260200190815260200160002060010160006101000a81548173ffffffffffffffffffffffffffffffffffffffff021916908373ffffffffffffffffffffffffffffffffffffffff1602179055506002600160008b73ffffffffffffffffffffffffffffffffffffffff1673ffffffffffffffffffffffffffffffffffffffff16815260200190815260200160002060008a815260200190815260200160002060050160006101000a81548160ff02191690836004811115611fca57611fc9612abf565b5b02179055508573ffffffffffffffffffffffffffffffffffffffff168373ffffffffffffffffffffffffffffffffffffffff16897f30247e11bbb597dfefd2a3124026f1ef8987a4d6ba46e3629f80bac1b0c9faee87600001518d8960800151600360159054906101000a900460ff16894260405161204e96959493929190613519565b60405180910390a4505050505050505050565b612069612463565b73ffffffffffffffffffffffffffffffffffffffff1661208761157c565b73ffffffffffffffffffffffffffffffffffffffff16146120dd576040517f08c379a00000000000000000000000000000000000000000000000000000000081526004016120d49061314c565b60405180910390fd5b600073ffffffffffffffffffffffffffffffffffffffff168173ffffffffffffffffffffffffffffffffffffffff160361214c576040517f08c379a0000000000000000000000000000000000000000000000000000000008152600401612143906135ff565b60405180910390fd5b6121558161246b565b50565b600081600001549050919050565b6001816000016000828254019250508190555050565b61218581612531565b6121c4576040517f08c379a00000000000000000000000000000000000000000000000000000000081526004016121bb90613691565b60405180910390fd5b60008190508073ffffffffffffffffffffffffffffffffffffffff166301ffc9a76380ac58cd60e01b6040518263ffffffff1660e01b81526004016122099190612932565b602060405180830381865afa158015612226573d6000803e3d6000fd5b505050506040513d601f19601f8201168201806040525081019061224a91906134a0565b612289576040517f08c379a000000000000000000000000000000000000000000000000000000000815260040161228090613723565b60405180910390fd5b5050565b600042868686866040516020016122a89594939291906137ac565b6040516020818303038152906040528051906020012090506040518060c001604052808281526020018773ffffffffffffffffffffffffffffffffffffffff1681526020018573ffffffffffffffffffffffffffffffffffffffff1681526020018481526020018381526020016001600481111561232957612328612abf565b5b815250600160008673ffffffffffffffffffffffffffffffffffffffff1673ffffffffffffffffffffffffffffffffffffffff16815260200190815260200160002060008781526020019081526020016000206000820151816000015560208201518160010160006101000a81548173ffffffffffffffffffffffffffffffffffffffff021916908373ffffffffffffffffffffffffffffffffffffffff16021790555060408201518160020160006101000a81548173ffffffffffffffffffffffffffffffffffffffff021916908373ffffffffffffffffffffffffffffffffffffffff160217905550606082015181600301556080820151816004015560a08201518160050160006101000a81548160ff0219169083600481111561245357612452612abf565b5b0217905550905050505050505050565b600033905090565b6000600460009054906101000a900473ffffffffffffffffffffffffffffffffffffffff16905081600460006101000a81548173ffffffffffffffffffffffffffffffffffffffff021916908373ffffffffffffffffffffffffffffffffffffffff1602179055508173ffffffffffffffffffffffffffffffffffffffff168173ffffffffffffffffffffffffffffffffffffffff167f8be0079c531659141344cd1fd0a4f28419497f9722a3daafe3b4186f6b6457e060405160405180910390a35050565b600080823b905060008163ffffffff1611915050919050565b6040518060c0016040528060008152602001600073ffffffffffffffffffffffffffffffffffffffff16815260200160008152602001600073ffffffffffffffffffffffffffffffffffffffff168152602001600073ffffffffffffffffffffffffffffffffffffffff168152602001600081525090565b600081519050919050565b600082825260208201905092915050565b6000819050602082019050919050565b6000819050919050565b612601816125ee565b82525050565b600073ffffffffffffffffffffffffffffffffffffffff82169050919050565b600061263282612607565b9050919050565b61264281612627565b82525050565b600061265382612607565b9050919050565b61266381612648565b82525050565b60c08201600082015161267f60008501826125f8565b5060208201516126926020850182612639565b5060408201516126a560408501826125f8565b5060608201516126b8606085018261265a565b5060808201516126cb608085018261265a565b5060a08201516126de60a08501826125f8565b50505050565b60006126f08383612669565b60c08301905092915050565b6000602082019050919050565b6000612714826125c2565b61271e81856125cd565b9350612729836125de565b8060005b8381101561275a57815161274188826126e4565b975061274c836126fc565b92505060018101905061272d565b5085935050505092915050565b600060208201905081810360008301526127818184612709565b905092915050565b6000819050919050565b60006127ae6127a96127a484612607565b612789565b612607565b9050919050565b60006127c082612793565b9050919050565b60006127d2826127b5565b9050919050565b6127e2816127c7565b82525050565b60006020820190506127fd60008301846127d9565b92915050565b600080fd5b612811816125ee565b811461281c57600080fd5b50565b60008135905061282e81612808565b92915050565b60006020828403121561284a57612849612803565b5b60006128588482850161281f565b91505092915050565b60c08201600082015161287760008501826125f8565b50602082015161288a6020850182612639565b50604082015161289d60408501826125f8565b5060608201516128b0606085018261265a565b5060808201516128c3608085018261265a565b5060a08201516128d660a08501826125f8565b50505050565b600060c0820190506128f16000830184612861565b92915050565b60007fffffffff0000000000000000000000000000000000000000000000000000000082169050919050565b61292c816128f7565b82525050565b60006020820190506129476000830184612923565b92915050565b61295681612627565b811461296157600080fd5b50565b6000813590506129738161294d565b92915050565b60008060006060848603121561299257612991612803565b5b60006129a086828701612964565b93505060206129b18682870161281f565b92505060406129c286828701612964565b9150509250925092565b6000819050919050565b6129df816129cc565b82525050565b6129ee816125ee565b82525050565b6000604082019050612a0960008301856129d6565b612a1660208301846129e5565b9392505050565b600080600060608486031215612a3657612a35612803565b5b6000612a4486828701612964565b9350506020612a558682870161281f565b9250506040612a668682870161281f565b9150509250925092565b60008060408385031215612a8757612a86612803565b5b6000612a9585828601612964565b9250506020612aa68582860161281f565b9150509250929050565b612ab981612627565b82525050565b7f4e487b7100000000000000000000000000000000000000000000000000000000600052602160045260246000fd5b60058110612aff57612afe612abf565b5b50565b6000819050612b1082612aee565b919050565b6000612b2082612b02565b9050919050565b612b3081612b15565b82525050565b600060c082019050612b4b60008301896129d6565b612b586020830188612ab0565b612b656040830187612ab0565b612b7260608301866129e5565b612b7f60808301856129e5565b612b8c60a0830184612b27565b979650505050505050565b600060ff82169050919050565b612bad81612b97565b82525050565b6000602082019050612bc86000830184612ba4565b92915050565b6000602082019050612be36000830184612ab0565b92915050565b600060208284031215612bff57612bfe612803565b5b6000612c0d84828501612964565b91505092915050565b7f4e487b7100000000000000000000000000000000000000000000000000000000600052601160045260246000fd5b6000612c50826125ee565b9150612c5b836125ee565b925082821015612c6e57612c6d612c16565b5b828203905092915050565b7f4e487b7100000000000000000000000000000000000000000000000000000000600052604160045260246000fd5b6000612cb3826125ee565b9150612cbe836125ee565b9250827fffffffffffffffffffffffffffffffffffffffffffffffffffffffffffffffff03821115612cf357612cf2612c16565b5b828201905092915050565b7f4e487b7100000000000000000000000000000000000000000000000000000000600052603260045260246000fd5b6000612d38826125ee565b91507fffffffffffffffffffffffffffffffffffffffffffffffffffffffffffffffff8203612d6a57612d69612c16565b5b600182019050919050565b600082825260208201905092915050565b7f5265656e7472616e637947756172643a207265656e7472616e742063616c6c00600082015250565b6000612dbc601f83612d75565b9150612dc782612d86565b602082019050919050565b60006020820190508181036000830152612deb81612daf565b9050919050565b7f5072696365206d757374206265206174206c6561737420312077656900000000600082015250565b6000612e28601c83612d75565b9150612e3382612df2565b602082019050919050565b60006020820190508181036000830152612e5781612e1b565b9050919050565b6000606082019050612e736000830186612ab0565b612e806020830185612ab0565b612e8d60408301846129e5565b949350505050565b7f50726963652073686f756c6420626520626967676572207468616e2030000000600082015250565b6000612ecb601d83612d75565b9150612ed682612e95565b602082019050919050565b60006020820190508181036000830152612efa81612ebe565b9050919050565b6000602082019050612f1660008301846129e5565b92915050565b600081519050612f2b8161294d565b92915050565b600060208284031215612f4757612f46612803565b5b6000612f5584828501612f1c565b91505092915050565b7f5468652073656c6c6572206973206e6f206c6f6e67657220746865206f776e6560008201527f7200000000000000000000000000000000000000000000000000000000000000602082015250565b6000612fba602183612d75565b9150612fc582612f5e565b604082019050919050565b60006020820190508181036000830152612fe981612fad565b9050919050565b7f4173736574206973206c697374696e6700000000000000000000000000000000600082015250565b6000613026601083612d75565b915061303182612ff0565b602082019050919050565b6000602082019050818103600083015261305581613019565b9050919050565b7f424e420000000000000000000000000000000000000000000000000000000000600082015250565b6000613092600383612d75565b915061309d8261305c565b602082019050919050565b600060a0820190506130bd6000830187612ab0565b6130ca60208301866129d6565b6130d760408301856129e5565b81810360608301526130e881613085565b90506130f760808301846129e5565b95945050505050565b7f4f776e61626c653a2063616c6c6572206973206e6f7420746865206f776e6572600082015250565b6000613136602083612d75565b915061314182613100565b602082019050919050565b6000602082019050818103600083015261316581613129565b9050919050565b7f506c65617365207375626d6974207468652061736b696e67207072696365206960008201527f6e206f7264657220746f20636f6d706c65746520746865207075726368617365602082015250565b60006131c8604083612d75565b91506131d38261316c565b604082019050919050565b600060208201905081810360008301526131f7816131bb565b9050919050565b7f4173736574206e6f74207075626c697368656400000000000000000000000000600082015250565b6000613234601383612d75565b915061323f826131fe565b602082019050919050565b6000602082019050818103600083015261326381613227565b9050919050565b7f4173736574206973206e6f74206c69737420746f206275790000000000000000600082015250565b60006132a0601883612d75565b91506132ab8261326a565b602082019050919050565b600060208201905081810360008301526132cf81613293565b9050919050565b7f496e76616c696420616464726573730000000000000000000000000000000000600082015250565b600061330c600f83612d75565b9150613317826132d6565b602082019050919050565b6000602082019050818103600083015261333b816132ff565b9050919050565b7f7072696365206e65656420657175616c206c697374696e672070726963650000600082015250565b6000613378601e83612d75565b915061338382613342565b602082019050919050565b600060208201905081810360008301526133a78161336b565b9050919050565b60006133b9826125ee565b91506133c4836125ee565b9250817fffffffffffffffffffffffffffffffffffffffffffffffffffffffffffffffff04831182151516156133fd576133fc612c16565b5b828202905092915050565b7f4e487b7100000000000000000000000000000000000000000000000000000000600052601260045260246000fd5b6000613442826125ee565b915061344d836125ee565b92508261345d5761345c613408565b5b828204905092915050565b60008115159050919050565b61347d81613468565b811461348857600080fd5b50565b60008151905061349a81613474565b92915050565b6000602082840312156134b6576134b5612803565b5b60006134c48482850161348b565b91505092915050565b7f414e544100000000000000000000000000000000000000000000000000000000600082015250565b6000613503600483612d75565b915061350e826134cd565b602082019050919050565b600060e08201905061352e60008301896129d6565b61353b6020830188612ab0565b61354860408301876129e5565b6135556060830186612ba4565b61356260808301856129e5565b81810360a0830152613573816134f6565b905061358260c08301846129e5565b979650505050505050565b7f4f776e61626c653a206e6577206f776e657220697320746865207a65726f206160008201527f6464726573730000000000000000000000000000000000000000000000000000602082015250565b60006135e9602683612d75565b91506135f48261358d565b604082019050919050565b60006020820190508181036000830152613618816135dc565b9050919050565b7f546865204e465420416464726573732073686f756c64206265206120636f6e7460008201527f7261637400000000000000000000000000000000000000000000000000000000602082015250565b600061367b602483612d75565b91506136868261361f565b604082019050919050565b600060208201905081810360008301526136aa8161366e565b9050919050565b7f546865204e465420636f6e74726163742068617320616e20696e76616c69642060008201527f45524337323120696d706c656d656e746174696f6e0000000000000000000000602082015250565b600061370d603583612d75565b9150613718826136b1565b604082019050919050565b6000602082019050818103600083015261373c81613700565b9050919050565b6000819050919050565b61375e613759826125ee565b613743565b82525050565b60008160601b9050919050565b600061377c82613764565b9050919050565b600061378e82613771565b9050919050565b6137a66137a182612627565b613783565b82525050565b60006137b8828861374d565b6020820191506137c88287613795565b6014820191506137d8828661374d565b6020820191506137e88285613795565b6014820191506137f8828461374d565b602082019150819050969550505050505056fea26469706673582212205ed1a79e7a83c0647547ee21853fc1089221f7b1d4acc91b1f7e21d43d024faa64736f6c634300080d0033",
					"opcodes": "PUSH1 0x80 PUSH1 0x40 MSTORE CALLVALUE DUP1 ISZERO PUSH3 0x11 JUMPI PUSH1 0x0 DUP1 REVERT JUMPDEST POP PUSH1 0x1 PUSH1 0x0 DUP2 SWAP1 SSTORE POP PUSH3 0x3A PUSH3 0x2E PUSH3 0x40 PUSH1 0x20 SHL PUSH1 0x20 SHR JUMP JUMPDEST PUSH3 0x48 PUSH1 0x20 SHL PUSH1 0x20 SHR JUMP JUMPDEST PUSH3 0x10E JUMP JUMPDEST PUSH1 0x0 CALLER SWAP1 POP SWAP1 JUMP JUMPDEST PUSH1 0x0 PUSH1 0x4 PUSH1 0x0 SWAP1 SLOAD SWAP1 PUSH2 0x100 EXP SWAP1 DIV PUSH20 0xFFFFFFFFFFFFFFFFFFFFFFFFFFFFFFFFFFFFFFFF AND SWAP1 POP DUP2 PUSH1 0x4 PUSH1 0x0 PUSH2 0x100 EXP DUP2 SLOAD DUP2 PUSH20 0xFFFFFFFFFFFFFFFFFFFFFFFFFFFFFFFFFFFFFFFF MUL NOT AND SWAP1 DUP4 PUSH20 0xFFFFFFFFFFFFFFFFFFFFFFFFFFFFFFFFFFFFFFFF AND MUL OR SWAP1 SSTORE POP DUP2 PUSH20 0xFFFFFFFFFFFFFFFFFFFFFFFFFFFFFFFFFFFFFFFF AND DUP2 PUSH20 0xFFFFFFFFFFFFFFFFFFFFFFFFFFFFFFFFFFFFFFFF AND PUSH32 0x8BE0079C531659141344CD1FD0A4F28419497F9722A3DAAFE3B4186F6B6457E0 PUSH1 0x40 MLOAD PUSH1 0x40 MLOAD DUP1 SWAP2 SUB SWAP1 LOG3 POP POP JUMP JUMPDEST PUSH2 0x3841 DUP1 PUSH3 0x11E PUSH1 0x0 CODECOPY PUSH1 0x0 RETURN INVALID PUSH1 0x80 PUSH1 0x40 MSTORE PUSH1 0x4 CALLDATASIZE LT PUSH2 0x109 JUMPI PUSH1 0x0 CALLDATALOAD PUSH1 0xE0 SHR DUP1 PUSH4 0x715018A6 GT PUSH2 0x95 JUMPI DUP1 PUSH4 0xB7A60C7E GT PUSH2 0x64 JUMPI DUP1 PUSH4 0xB7A60C7E EQ PUSH2 0x352 JUMPI DUP1 PUSH4 0xC23B139E EQ PUSH2 0x37D JUMPI DUP1 PUSH4 0xC7BE7A49 EQ PUSH2 0x399 JUMPI DUP1 PUSH4 0xF01B52DC EQ PUSH2 0x3D6 JUMPI DUP1 PUSH4 0xF2FDE38B EQ PUSH2 0x3FF JUMPI PUSH2 0x109 JUMP JUMPDEST DUP1 PUSH4 0x715018A6 EQ PUSH2 0x2BC JUMPI DUP1 PUSH4 0x85A8B36C EQ PUSH2 0x2D3 JUMPI DUP1 PUSH4 0x8DA5CB5B EQ PUSH2 0x2FE JUMPI DUP1 PUSH4 0x92BF77DD EQ PUSH2 0x329 JUMPI PUSH2 0x109 JUMP JUMPDEST DUP1 PUSH4 0x2B4C32BE GT PUSH2 0xDC JUMPI DUP1 PUSH4 0x2B4C32BE EQ PUSH2 0x1CC JUMPI DUP1 PUSH4 0x49739678 EQ PUSH2 0x1F7 JUMPI DUP1 PUSH4 0x58EB2DF5 EQ PUSH2 0x235 JUMPI DUP1 PUSH4 0x5C80A435 EQ PUSH2 0x251 JUMPI DUP1 PUSH4 0x68915327 EQ PUSH2 0x293 JUMPI PUSH2 0x109 JUMP JUMPDEST DUP1 PUSH4 0xF08EFE0 EQ PUSH2 0x10E JUMPI DUP1 PUSH4 0x15B81DC3 EQ PUSH2 0x139 JUMPI DUP1 PUSH4 0x202E3740 EQ PUSH2 0x164 JUMPI DUP1 PUSH4 0x2A45B250 EQ PUSH2 0x18F JUMPI JUMPDEST PUSH1 0x0 DUP1 REVERT JUMPDEST CALLVALUE DUP1 ISZERO PUSH2 0x11A JUMPI PUSH1 0x0 DUP1 REVERT JUMPDEST POP PUSH2 0x123 PUSH2 0x428 JUMP JUMPDEST PUSH1 0x40 MLOAD PUSH2 0x130 SWAP2 SWAP1 PUSH2 0x2767 JUMP JUMPDEST PUSH1 0x40 MLOAD DUP1 SWAP2 SUB SWAP1 RETURN JUMPDEST CALLVALUE DUP1 ISZERO PUSH2 0x145 JUMPI PUSH1 0x0 DUP1 REVERT JUMPDEST POP PUSH2 0x14E PUSH2 0x6EC JUMP JUMPDEST PUSH1 0x40 MLOAD PUSH2 0x15B SWAP2 SWAP1 PUSH2 0x27E8 JUMP JUMPDEST PUSH1 0x40 MLOAD DUP1 SWAP2 SUB SWAP1 RETURN JUMPDEST CALLVALUE DUP1 ISZERO PUSH2 0x170 JUMPI PUSH1 0x0 DUP1 REVERT JUMPDEST POP PUSH2 0x179 PUSH2 0x712 JUMP JUMPDEST PUSH1 0x40 MLOAD PUSH2 0x186 SWAP2 SWAP1 PUSH2 0x2767 JUMP JUMPDEST PUSH1 0x40 MLOAD DUP1 SWAP2 SUB SWAP1 RETURN JUMPDEST CALLVALUE DUP1 ISZERO PUSH2 0x19B JUMPI PUSH1 0x0 DUP1 REVERT JUMPDEST POP PUSH2 0x1B6 PUSH1 0x4 DUP1 CALLDATASIZE SUB DUP2 ADD SWAP1 PUSH2 0x1B1 SWAP2 SWAP1 PUSH2 0x2834 JUMP JUMPDEST PUSH2 0xA59 JUMP JUMPDEST PUSH1 0x40 MLOAD PUSH2 0x1C3 SWAP2 SWAP1 PUSH2 0x28DC JUMP JUMPDEST PUSH1 0x40 MLOAD DUP1 SWAP2 SUB SWAP1 RETURN JUMPDEST CALLVALUE DUP1 ISZERO PUSH2 0x1D8 JUMPI PUSH1 0x0 DUP1 REVERT JUMPDEST POP PUSH2 0x1E1 PUSH2 0xBAC JUMP JUMPDEST PUSH1 0x40 MLOAD PUSH2 0x1EE SWAP2 SWAP1 PUSH2 0x2932 JUMP JUMPDEST PUSH1 0x40 MLOAD DUP1 SWAP2 SUB SWAP1 RETURN JUMPDEST CALLVALUE DUP1 ISZERO PUSH2 0x203 JUMPI PUSH1 0x0 DUP1 REVERT JUMPDEST POP PUSH2 0x21E PUSH1 0x4 DUP1 CALLDATASIZE SUB DUP2 ADD SWAP1 PUSH2 0x219 SWAP2 SWAP1 PUSH2 0x2979 JUMP JUMPDEST PUSH2 0xBB7 JUMP JUMPDEST PUSH1 0x40 MLOAD PUSH2 0x22C SWAP3 SWAP2 SWAP1 PUSH2 0x29F4 JUMP JUMPDEST PUSH1 0x40 MLOAD DUP1 SWAP2 SUB SWAP1 RETURN JUMPDEST PUSH2 0x24F PUSH1 0x4 DUP1 CALLDATASIZE SUB DUP2 ADD SWAP1 PUSH2 0x24A SWAP2 SWAP1 PUSH2 0x2A1D JUMP JUMPDEST PUSH2 0xBF5 JUMP JUMPDEST STOP JUMPDEST CALLVALUE DUP1 ISZERO PUSH2 0x25D JUMPI PUSH1 0x0 DUP1 REVERT JUMPDEST POP PUSH2 0x278 PUSH1 0x4 DUP1 CALLDATASIZE SUB DUP2 ADD SWAP1 PUSH2 0x273 SWAP2 SWAP1 PUSH2 0x2A70 JUMP JUMPDEST PUSH2 0xEE8 JUMP JUMPDEST PUSH1 0x40 MLOAD PUSH2 0x28A SWAP7 SWAP6 SWAP5 SWAP4 SWAP3 SWAP2 SWAP1 PUSH2 0x2B36 JUMP JUMPDEST PUSH1 0x40 MLOAD DUP1 SWAP2 SUB SWAP1 RETURN JUMPDEST CALLVALUE DUP1 ISZERO PUSH2 0x29F JUMPI PUSH1 0x0 DUP1 REVERT JUMPDEST POP PUSH2 0x2BA PUSH1 0x4 DUP1 CALLDATASIZE SUB DUP2 ADD SWAP1 PUSH2 0x2B5 SWAP2 SWAP1 PUSH2 0x2A1D JUMP JUMPDEST PUSH2 0xF7E JUMP JUMPDEST STOP JUMPDEST CALLVALUE DUP1 ISZERO PUSH2 0x2C8 JUMPI PUSH1 0x0 DUP1 REVERT JUMPDEST POP PUSH2 0x2D1 PUSH2 0x14E1 JUMP JUMPDEST STOP JUMPDEST CALLVALUE DUP1 ISZERO PUSH2 0x2DF JUMPI PUSH1 0x0 DUP1 REVERT JUMPDEST POP PUSH2 0x2E8 PUSH2 0x1569 JUMP JUMPDEST PUSH1 0x40 MLOAD PUSH2 0x2F5 SWAP2 SWAP1 PUSH2 0x2BB3 JUMP JUMPDEST PUSH1 0x40 MLOAD DUP1 SWAP2 SUB SWAP1 RETURN JUMPDEST CALLVALUE DUP1 ISZERO PUSH2 0x30A JUMPI PUSH1 0x0 DUP1 REVERT JUMPDEST POP PUSH2 0x313 PUSH2 0x157C JUMP JUMPDEST PUSH1 0x40 MLOAD PUSH2 0x320 SWAP2 SWAP1 PUSH2 0x2BCE JUMP JUMPDEST PUSH1 0x40 MLOAD DUP1 SWAP2 SUB SWAP1 RETURN JUMPDEST CALLVALUE DUP1 ISZERO PUSH2 0x335 JUMPI PUSH1 0x0 DUP1 REVERT JUMPDEST POP PUSH2 0x350 PUSH1 0x4 DUP1 CALLDATASIZE SUB DUP2 ADD SWAP1 PUSH2 0x34B SWAP2 SWAP1 PUSH2 0x2BE9 JUMP JUMPDEST PUSH2 0x15A6 JUMP JUMPDEST STOP JUMPDEST CALLVALUE DUP1 ISZERO PUSH2 0x35E JUMPI PUSH1 0x0 DUP1 REVERT JUMPDEST POP PUSH2 0x367 PUSH2 0x1666 JUMP JUMPDEST PUSH1 0x40 MLOAD PUSH2 0x374 SWAP2 SWAP1 PUSH2 0x2BB3 JUMP JUMPDEST PUSH1 0x40 MLOAD DUP1 SWAP2 SUB SWAP1 RETURN JUMPDEST PUSH2 0x397 PUSH1 0x4 DUP1 CALLDATASIZE SUB DUP2 ADD SWAP1 PUSH2 0x392 SWAP2 SWAP1 PUSH2 0x2A70 JUMP JUMPDEST PUSH2 0x1679 JUMP JUMPDEST STOP JUMPDEST CALLVALUE DUP1 ISZERO PUSH2 0x3A5 JUMPI PUSH1 0x0 DUP1 REVERT JUMPDEST POP PUSH2 0x3C0 PUSH1 0x4 DUP1 CALLDATASIZE SUB DUP2 ADD SWAP1 PUSH2 0x3BB SWAP2 SWAP1 PUSH2 0x2834 JUMP JUMPDEST PUSH2 0x1897 JUMP JUMPDEST PUSH1 0x40 MLOAD PUSH2 0x3CD SWAP2 SWAP1 PUSH2 0x28DC JUMP JUMPDEST PUSH1 0x40 MLOAD DUP1 SWAP2 SUB SWAP1 RETURN JUMPDEST CALLVALUE DUP1 ISZERO PUSH2 0x3E2 JUMPI PUSH1 0x0 DUP1 REVERT JUMPDEST POP PUSH2 0x3FD PUSH1 0x4 DUP1 CALLDATASIZE SUB DUP2 ADD SWAP1 PUSH2 0x3F8 SWAP2 SWAP1 PUSH2 0x2A1D JUMP JUMPDEST PUSH2 0x19E4 JUMP JUMPDEST STOP JUMPDEST CALLVALUE DUP1 ISZERO PUSH2 0x40B JUMPI PUSH1 0x0 DUP1 REVERT JUMPDEST POP PUSH2 0x426 PUSH1 0x4 DUP1 CALLDATASIZE SUB DUP2 ADD SWAP1 PUSH2 0x421 SWAP2 SWAP1 PUSH2 0x2BE9 JUMP JUMPDEST PUSH2 0x2061 JUMP JUMPDEST STOP JUMPDEST PUSH1 0x60 PUSH1 0x0 PUSH2 0x436 PUSH1 0x5 PUSH2 0x2158 JUMP JUMPDEST SWAP1 POP PUSH1 0x0 PUSH2 0x444 PUSH1 0x6 PUSH2 0x2158 JUMP JUMPDEST PUSH2 0x44E PUSH1 0x5 PUSH2 0x2158 JUMP JUMPDEST PUSH2 0x458 SWAP2 SWAP1 PUSH2 0x2C45 JUMP JUMPDEST SWAP1 POP PUSH1 0x0 DUP1 DUP3 PUSH8 0xFFFFFFFFFFFFFFFF DUP2 GT ISZERO PUSH2 0x477 JUMPI PUSH2 0x476 PUSH2 0x2C79 JUMP JUMPDEST JUMPDEST PUSH1 0x40 MLOAD SWAP1 DUP1 DUP3 MSTORE DUP1 PUSH1 0x20 MUL PUSH1 0x20 ADD DUP3 ADD PUSH1 0x40 MSTORE DUP1 ISZERO PUSH2 0x4B0 JUMPI DUP2 PUSH1 0x20 ADD JUMPDEST PUSH2 0x49D PUSH2 0x254A JUMP JUMPDEST DUP2 MSTORE PUSH1 0x20 ADD SWAP1 PUSH1 0x1 SWAP1 SUB SWAP1 DUP2 PUSH2 0x495 JUMPI SWAP1 POP JUMPDEST POP SWAP1 POP PUSH1 0x0 JUMPDEST DUP5 DUP2 LT ISZERO PUSH2 0x6E1 JUMPI PUSH1 0x0 PUSH20 0xFFFFFFFFFFFFFFFFFFFFFFFFFFFFFFFFFFFFFFFF AND PUSH1 0x7 PUSH1 0x0 PUSH1 0x1 DUP5 PUSH2 0x4E7 SWAP2 SWAP1 PUSH2 0x2CA8 JUMP JUMPDEST DUP2 MSTORE PUSH1 0x20 ADD SWAP1 DUP2 MSTORE PUSH1 0x20 ADD PUSH1 0x0 KECCAK256 PUSH1 0x4 ADD PUSH1 0x0 SWAP1 SLOAD SWAP1 PUSH2 0x100 EXP SWAP1 DIV PUSH20 0xFFFFFFFFFFFFFFFFFFFFFFFFFFFFFFFFFFFFFFFF AND PUSH20 0xFFFFFFFFFFFFFFFFFFFFFFFFFFFFFFFFFFFFFFFF AND SUB PUSH2 0x6CE JUMPI PUSH1 0x0 PUSH1 0x7 PUSH1 0x0 PUSH1 0x1 DUP5 PUSH2 0x547 SWAP2 SWAP1 PUSH2 0x2CA8 JUMP JUMPDEST DUP2 MSTORE PUSH1 0x20 ADD SWAP1 DUP2 MSTORE PUSH1 0x20 ADD PUSH1 0x0 KECCAK256 PUSH1 0x0 ADD SLOAD SWAP1 POP PUSH1 0x0 PUSH1 0x7 PUSH1 0x0 DUP4 DUP2 MSTORE PUSH1 0x20 ADD SWAP1 DUP2 MSTORE PUSH1 0x20 ADD PUSH1 0x0 KECCAK256 SWAP1 POP DUP1 PUSH1 0x40 MLOAD DUP1 PUSH1 0xC0 ADD PUSH1 0x40 MSTORE SWAP1 DUP2 PUSH1 0x0 DUP3 ADD SLOAD DUP2 MSTORE PUSH1 0x20 ADD PUSH1 0x1 DUP3 ADD PUSH1 0x0 SWAP1 SLOAD SWAP1 PUSH2 0x100 EXP SWAP1 DIV PUSH20 0xFFFFFFFFFFFFFFFFFFFFFFFFFFFFFFFFFFFFFFFF AND PUSH20 0xFFFFFFFFFFFFFFFFFFFFFFFFFFFFFFFFFFFFFFFF AND PUSH20 0xFFFFFFFFFFFFFFFFFFFFFFFFFFFFFFFFFFFFFFFF AND DUP2 MSTORE PUSH1 0x20 ADD PUSH1 0x2 DUP3 ADD SLOAD DUP2 MSTORE PUSH1 0x20 ADD PUSH1 0x3 DUP3 ADD PUSH1 0x0 SWAP1 SLOAD SWAP1 PUSH2 0x100 EXP SWAP1 DIV PUSH20 0xFFFFFFFFFFFFFFFFFFFFFFFFFFFFFFFFFFFFFFFF AND PUSH20 0xFFFFFFFFFFFFFFFFFFFFFFFFFFFFFFFFFFFFFFFF AND PUSH20 0xFFFFFFFFFFFFFFFFFFFFFFFFFFFFFFFFFFFFFFFF AND DUP2 MSTORE PUSH1 0x20 ADD PUSH1 0x4 DUP3 ADD PUSH1 0x0 SWAP1 SLOAD SWAP1 PUSH2 0x100 EXP SWAP1 DIV PUSH20 0xFFFFFFFFFFFFFFFFFFFFFFFFFFFFFFFFFFFFFFFF AND PUSH20 0xFFFFFFFFFFFFFFFFFFFFFFFFFFFFFFFFFFFFFFFF AND PUSH20 0xFFFFFFFFFFFFFFFFFFFFFFFFFFFFFFFFFFFFFFFF AND DUP2 MSTORE PUSH1 0x20 ADD PUSH1 0x5 DUP3 ADD SLOAD DUP2 MSTORE POP POP DUP5 DUP7 DUP2 MLOAD DUP2 LT PUSH2 0x6B1 JUMPI PUSH2 0x6B0 PUSH2 0x2CFE JUMP JUMPDEST JUMPDEST PUSH1 0x20 MUL PUSH1 0x20 ADD ADD DUP2 SWAP1 MSTORE POP PUSH1 0x1 DUP6 PUSH2 0x6C9 SWAP2 SWAP1 PUSH2 0x2CA8 JUMP JUMPDEST SWAP5 POP POP POP JUMPDEST DUP1 DUP1 PUSH2 0x6D9 SWAP1 PUSH2 0x2D2D JUMP JUMPDEST SWAP2 POP POP PUSH2 0x4B6 JUMP JUMPDEST POP DUP1 SWAP5 POP POP POP POP POP SWAP1 JUMP JUMPDEST PUSH1 0x3 PUSH1 0x0 SWAP1 SLOAD SWAP1 PUSH2 0x100 EXP SWAP1 DIV PUSH20 0xFFFFFFFFFFFFFFFFFFFFFFFFFFFFFFFFFFFFFFFF AND DUP2 JUMP JUMPDEST PUSH1 0x60 PUSH1 0x0 PUSH2 0x720 PUSH1 0x5 PUSH2 0x2158 JUMP JUMPDEST SWAP1 POP PUSH1 0x0 DUP1 PUSH1 0x0 JUMPDEST DUP4 DUP2 LT ISZERO PUSH2 0x7C8 JUMPI CALLER PUSH20 0xFFFFFFFFFFFFFFFFFFFFFFFFFFFFFFFFFFFFFFFF AND PUSH1 0x7 PUSH1 0x0 PUSH1 0x1 DUP5 PUSH2 0x758 SWAP2 SWAP1 PUSH2 0x2CA8 JUMP JUMPDEST DUP2 MSTORE PUSH1 0x20 ADD SWAP1 DUP2 MSTORE PUSH1 0x20 ADD PUSH1 0x0 KECCAK256 PUSH1 0x4 ADD PUSH1 0x0 SWAP1 SLOAD SWAP1 PUSH2 0x100 EXP SWAP1 DIV PUSH20 0xFFFFFFFFFFFFFFFFFFFFFFFFFFFFFFFFFFFFFFFF AND PUSH20 0xFFFFFFFFFFFFFFFFFFFFFFFFFFFFFFFFFFFFFFFF AND SUB PUSH2 0x7B5 JUMPI PUSH1 0x1 DUP4 PUSH2 0x7B2 SWAP2 SWAP1 PUSH2 0x2CA8 JUMP JUMPDEST SWAP3 POP JUMPDEST DUP1 DUP1 PUSH2 0x7C0 SWAP1 PUSH2 0x2D2D JUMP JUMPDEST SWAP2 POP POP PUSH2 0x728 JUMP JUMPDEST POP PUSH1 0x0 DUP3 PUSH8 0xFFFFFFFFFFFFFFFF DUP2 GT ISZERO PUSH2 0x7E5 JUMPI PUSH2 0x7E4 PUSH2 0x2C79 JUMP JUMPDEST JUMPDEST PUSH1 0x40 MLOAD SWAP1 DUP1 DUP3 MSTORE DUP1 PUSH1 0x20 MUL PUSH1 0x20 ADD DUP3 ADD PUSH1 0x40 MSTORE DUP1 ISZERO PUSH2 0x81E JUMPI DUP2 PUSH1 0x20 ADD JUMPDEST PUSH2 0x80B PUSH2 0x254A JUMP JUMPDEST DUP2 MSTORE PUSH1 0x20 ADD SWAP1 PUSH1 0x1 SWAP1 SUB SWAP1 DUP2 PUSH2 0x803 JUMPI SWAP1 POP JUMPDEST POP SWAP1 POP PUSH1 0x0 JUMPDEST DUP5 DUP2 LT ISZERO PUSH2 0xA4E JUMPI CALLER PUSH20 0xFFFFFFFFFFFFFFFFFFFFFFFFFFFFFFFFFFFFFFFF AND PUSH1 0x7 PUSH1 0x0 PUSH1 0x1 DUP5 PUSH2 0x854 SWAP2 SWAP1 PUSH2 0x2CA8 JUMP JUMPDEST DUP2 MSTORE PUSH1 0x20 ADD SWAP1 DUP2 MSTORE PUSH1 0x20 ADD PUSH1 0x0 KECCAK256 PUSH1 0x4 ADD PUSH1 0x0 SWAP1 SLOAD SWAP1 PUSH2 0x100 EXP SWAP1 DIV PUSH20 0xFFFFFFFFFFFFFFFFFFFFFFFFFFFFFFFFFFFFFFFF AND PUSH20 0xFFFFFFFFFFFFFFFFFFFFFFFFFFFFFFFFFFFFFFFF AND SUB PUSH2 0xA3B JUMPI PUSH1 0x0 PUSH1 0x7 PUSH1 0x0 PUSH1 0x1 DUP5 PUSH2 0x8B4 SWAP2 SWAP1 PUSH2 0x2CA8 JUMP JUMPDEST DUP2 MSTORE PUSH1 0x20 ADD SWAP1 DUP2 MSTORE PUSH1 0x20 ADD PUSH1 0x0 KECCAK256 PUSH1 0x0 ADD SLOAD SWAP1 POP PUSH1 0x0 PUSH1 0x7 PUSH1 0x0 DUP4 DUP2 MSTORE PUSH1 0x20 ADD SWAP1 DUP2 MSTORE PUSH1 0x20 ADD PUSH1 0x0 KECCAK256 SWAP1 POP DUP1 PUSH1 0x40 MLOAD DUP1 PUSH1 0xC0 ADD PUSH1 0x40 MSTORE SWAP1 DUP2 PUSH1 0x0 DUP3 ADD SLOAD DUP2 MSTORE PUSH1 0x20 ADD PUSH1 0x1 DUP3 ADD PUSH1 0x0 SWAP1 SLOAD SWAP1 PUSH2 0x100 EXP SWAP1 DIV PUSH20 0xFFFFFFFFFFFFFFFFFFFFFFFFFFFFFFFFFFFFFFFF AND PUSH20 0xFFFFFFFFFFFFFFFFFFFFFFFFFFFFFFFFFFFFFFFF AND PUSH20 0xFFFFFFFFFFFFFFFFFFFFFFFFFFFFFFFFFFFFFFFF AND DUP2 MSTORE PUSH1 0x20 ADD PUSH1 0x2 DUP3 ADD SLOAD DUP2 MSTORE PUSH1 0x20 ADD PUSH1 0x3 DUP3 ADD PUSH1 0x0 SWAP1 SLOAD SWAP1 PUSH2 0x100 EXP SWAP1 DIV PUSH20 0xFFFFFFFFFFFFFFFFFFFFFFFFFFFFFFFFFFFFFFFF AND PUSH20 0xFFFFFFFFFFFFFFFFFFFFFFFFFFFFFFFFFFFFFFFF AND PUSH20 0xFFFFFFFFFFFFFFFFFFFFFFFFFFFFFFFFFFFFFFFF AND DUP2 MSTORE PUSH1 0x20 ADD PUSH1 0x4 DUP3 ADD PUSH1 0x0 SWAP1 SLOAD SWAP1 PUSH2 0x100 EXP SWAP1 DIV PUSH20 0xFFFFFFFFFFFFFFFFFFFFFFFFFFFFFFFFFFFFFFFF AND PUSH20 0xFFFFFFFFFFFFFFFFFFFFFFFFFFFFFFFFFFFFFFFF AND PUSH20 0xFFFFFFFFFFFFFFFFFFFFFFFFFFFFFFFFFFFFFFFF AND DUP2 MSTORE PUSH1 0x20 ADD PUSH1 0x5 DUP3 ADD SLOAD DUP2 MSTORE POP POP DUP5 DUP7 DUP2 MLOAD DUP2 LT PUSH2 0xA1E JUMPI PUSH2 0xA1D PUSH2 0x2CFE JUMP JUMPDEST JUMPDEST PUSH1 0x20 MUL PUSH1 0x20 ADD ADD DUP2 SWAP1 MSTORE POP PUSH1 0x1 DUP6 PUSH2 0xA36 SWAP2 SWAP1 PUSH2 0x2CA8 JUMP JUMPDEST SWAP5 POP POP POP JUMPDEST DUP1 DUP1 PUSH2 0xA46 SWAP1 PUSH2 0x2D2D JUMP JUMPDEST SWAP2 POP POP PUSH2 0x824 JUMP JUMPDEST POP DUP1 SWAP5 POP POP POP POP POP SWAP1 JUMP JUMPDEST PUSH2 0xA61 PUSH2 0x254A JUMP JUMPDEST PUSH1 0x0 PUSH1 0x7 PUSH1 0x0 DUP5 DUP2 MSTORE PUSH1 0x20 ADD SWAP1 DUP2 MSTORE PUSH1 0x20 ADD PUSH1 0x0 KECCAK256 PUSH1 0x40 MLOAD DUP1 PUSH1 0xC0 ADD PUSH1 0x40 MSTORE SWAP1 DUP2 PUSH1 0x0 DUP3 ADD SLOAD DUP2 MSTORE PUSH1 0x20 ADD PUSH1 0x1 DUP3 ADD PUSH1 0x0 SWAP1 SLOAD SWAP1 PUSH2 0x100 EXP SWAP1 DIV PUSH20 0xFFFFFFFFFFFFFFFFFFFFFFFFFFFFFFFFFFFFFFFF AND PUSH20 0xFFFFFFFFFFFFFFFFFFFFFFFFFFFFFFFFFFFFFFFF AND PUSH20 0xFFFFFFFFFFFFFFFFFFFFFFFFFFFFFFFFFFFFFFFF AND DUP2 MSTORE PUSH1 0x20 ADD PUSH1 0x2 DUP3 ADD SLOAD DUP2 MSTORE PUSH1 0x20 ADD PUSH1 0x3 DUP3 ADD PUSH1 0x0 SWAP1 SLOAD SWAP1 PUSH2 0x100 EXP SWAP1 DIV PUSH20 0xFFFFFFFFFFFFFFFFFFFFFFFFFFFFFFFFFFFFFFFF AND PUSH20 0xFFFFFFFFFFFFFFFFFFFFFFFFFFFFFFFFFFFFFFFF AND PUSH20 0xFFFFFFFFFFFFFFFFFFFFFFFFFFFFFFFFFFFFFFFF AND DUP2 MSTORE PUSH1 0x20 ADD PUSH1 0x4 DUP3 ADD PUSH1 0x0 SWAP1 SLOAD SWAP1 PUSH2 0x100 EXP SWAP1 DIV PUSH20 0xFFFFFFFFFFFFFFFFFFFFFFFFFFFFFFFFFFFFFFFF AND PUSH20 0xFFFFFFFFFFFFFFFFFFFFFFFFFFFFFFFFFFFFFFFF AND PUSH20 0xFFFFFFFFFFFFFFFFFFFFFFFFFFFFFFFFFFFFFFFF AND DUP2 MSTORE PUSH1 0x20 ADD PUSH1 0x5 DUP3 ADD SLOAD DUP2 MSTORE POP POP SWAP1 POP DUP1 SWAP2 POP POP SWAP2 SWAP1 POP JUMP JUMPDEST PUSH4 0x80AC58CD PUSH1 0xE0 SHL DUP2 JUMP JUMPDEST PUSH1 0x2 PUSH1 0x20 MSTORE DUP3 PUSH1 0x0 MSTORE PUSH1 0x40 PUSH1 0x0 KECCAK256 PUSH1 0x20 MSTORE DUP2 PUSH1 0x0 MSTORE PUSH1 0x40 PUSH1 0x0 KECCAK256 PUSH1 0x20 MSTORE DUP1 PUSH1 0x0 MSTORE PUSH1 0x40 PUSH1 0x0 KECCAK256 PUSH1 0x0 SWAP3 POP SWAP3 POP POP POP DUP1 PUSH1 0x0 ADD SLOAD SWAP1 DUP1 PUSH1 0x1 ADD SLOAD SWAP1 POP DUP3 JUMP JUMPDEST PUSH1 0x2 PUSH1 0x0 SLOAD SUB PUSH2 0xC3A JUMPI PUSH1 0x40 MLOAD PUSH32 0x8C379A000000000000000000000000000000000000000000000000000000000 DUP2 MSTORE PUSH1 0x4 ADD PUSH2 0xC31 SWAP1 PUSH2 0x2DD2 JUMP JUMPDEST PUSH1 0x40 MLOAD DUP1 SWAP2 SUB SWAP1 REVERT JUMPDEST PUSH1 0x2 PUSH1 0x0 DUP2 SWAP1 SSTORE POP PUSH1 0x0 DUP2 GT PUSH2 0xC85 JUMPI PUSH1 0x40 MLOAD PUSH32 0x8C379A000000000000000000000000000000000000000000000000000000000 DUP2 MSTORE PUSH1 0x4 ADD PUSH2 0xC7C SWAP1 PUSH2 0x2E3E JUMP JUMPDEST PUSH1 0x40 MLOAD DUP1 SWAP2 SUB SWAP1 REVERT JUMPDEST PUSH2 0xC8F PUSH1 0x5 PUSH2 0x2166 JUMP JUMPDEST PUSH1 0x0 PUSH2 0xC9B PUSH1 0x5 PUSH2 0x2158 JUMP JUMPDEST SWAP1 POP PUSH1 0x40 MLOAD DUP1 PUSH1 0xC0 ADD PUSH1 0x40 MSTORE DUP1 DUP3 DUP2 MSTORE PUSH1 0x20 ADD DUP6 PUSH20 0xFFFFFFFFFFFFFFFFFFFFFFFFFFFFFFFFFFFFFFFF AND DUP2 MSTORE PUSH1 0x20 ADD DUP5 DUP2 MSTORE PUSH1 0x20 ADD CALLER PUSH20 0xFFFFFFFFFFFFFFFFFFFFFFFFFFFFFFFFFFFFFFFF AND DUP2 MSTORE PUSH1 0x20 ADD PUSH1 0x0 PUSH20 0xFFFFFFFFFFFFFFFFFFFFFFFFFFFFFFFFFFFFFFFF AND DUP2 MSTORE PUSH1 0x20 ADD DUP4 DUP2 MSTORE POP PUSH1 0x7 PUSH1 0x0 DUP4 DUP2 MSTORE PUSH1 0x20 ADD SWAP1 DUP2 MSTORE PUSH1 0x20 ADD PUSH1 0x0 KECCAK256 PUSH1 0x0 DUP3 ADD MLOAD DUP2 PUSH1 0x0 ADD SSTORE PUSH1 0x20 DUP3 ADD MLOAD DUP2 PUSH1 0x1 ADD PUSH1 0x0 PUSH2 0x100 EXP DUP2 SLOAD DUP2 PUSH20 0xFFFFFFFFFFFFFFFFFFFFFFFFFFFFFFFFFFFFFFFF MUL NOT AND SWAP1 DUP4 PUSH20 0xFFFFFFFFFFFFFFFFFFFFFFFFFFFFFFFFFFFFFFFF AND MUL OR SWAP1 SSTORE POP PUSH1 0x40 DUP3 ADD MLOAD DUP2 PUSH1 0x2 ADD SSTORE PUSH1 0x60 DUP3 ADD MLOAD DUP2 PUSH1 0x3 ADD PUSH1 0x0 PUSH2 0x100 EXP DUP2 SLOAD DUP2 PUSH20 0xFFFFFFFFFFFFFFFFFFFFFFFFFFFFFFFFFFFFFFFF MUL NOT AND SWAP1 DUP4 PUSH20 0xFFFFFFFFFFFFFFFFFFFFFFFFFFFFFFFFFFFFFFFF AND MUL OR SWAP1 SSTORE POP PUSH1 0x80 DUP3 ADD MLOAD DUP2 PUSH1 0x4 ADD PUSH1 0x0 PUSH2 0x100 EXP DUP2 SLOAD DUP2 PUSH20 0xFFFFFFFFFFFFFFFFFFFFFFFFFFFFFFFFFFFFFFFF MUL NOT AND SWAP1 DUP4 PUSH20 0xFFFFFFFFFFFFFFFFFFFFFFFFFFFFFFFFFFFFFFFF AND MUL OR SWAP1 SSTORE POP PUSH1 0xA0 DUP3 ADD MLOAD DUP2 PUSH1 0x5 ADD SSTORE SWAP1 POP POP DUP4 PUSH20 0xFFFFFFFFFFFFFFFFFFFFFFFFFFFFFFFFFFFFFFFF AND PUSH4 0x23B872DD CALLER ADDRESS DUP7 PUSH1 0x40 MLOAD DUP5 PUSH4 0xFFFFFFFF AND PUSH1 0xE0 SHL DUP2 MSTORE PUSH1 0x4 ADD PUSH2 0xE53 SWAP4 SWAP3 SWAP2 SWAP1 PUSH2 0x2E5E JUMP JUMPDEST PUSH1 0x0 PUSH1 0x40 MLOAD DUP1 DUP4 SUB DUP2 PUSH1 0x0 DUP8 DUP1 EXTCODESIZE ISZERO DUP1 ISZERO PUSH2 0xE6D JUMPI PUSH1 0x0 DUP1 REVERT JUMPDEST POP GAS CALL ISZERO DUP1 ISZERO PUSH2 0xE81 JUMPI RETURNDATASIZE PUSH1 0x0 DUP1 RETURNDATACOPY RETURNDATASIZE PUSH1 0x0 REVERT JUMPDEST POP POP POP POP DUP3 DUP5 PUSH20 0xFFFFFFFFFFFFFFFFFFFFFFFFFFFFFFFFFFFFFFFF AND DUP3 PUSH32 0x2AD024D53A0DC50C130967F8D4941927EE087EA31394CEBB2B9599D3706C9C00 CALLER PUSH1 0x0 DUP8 PUSH1 0x40 MLOAD PUSH2 0xED2 SWAP4 SWAP3 SWAP2 SWAP1 PUSH2 0x2E5E JUMP JUMPDEST PUSH1 0x40 MLOAD DUP1 SWAP2 SUB SWAP1 LOG4 POP PUSH1 0x1 PUSH1 0x0 DUP2 SWAP1 SSTORE POP POP POP POP JUMP JUMPDEST PUSH1 0x1 PUSH1 0x20 MSTORE DUP2 PUSH1 0x0 MSTORE PUSH1 0x40 PUSH1 0x0 KECCAK256 PUSH1 0x20 MSTORE DUP1 PUSH1 0x0 MSTORE PUSH1 0x40 PUSH1 0x0 KECCAK256 PUSH1 0x0 SWAP2 POP SWAP2 POP POP DUP1 PUSH1 0x0 ADD SLOAD SWAP1 DUP1 PUSH1 0x1 ADD PUSH1 0x0 SWAP1 SLOAD SWAP1 PUSH2 0x100 EXP SWAP1 DIV PUSH20 0xFFFFFFFFFFFFFFFFFFFFFFFFFFFFFFFFFFFFFFFF AND SWAP1 DUP1 PUSH1 0x2 ADD PUSH1 0x0 SWAP1 SLOAD SWAP1 PUSH2 0x100 EXP SWAP1 DIV PUSH20 0xFFFFFFFFFFFFFFFFFFFFFFFFFFFFFFFFFFFFFFFF AND SWAP1 DUP1 PUSH1 0x3 ADD SLOAD SWAP1 DUP1 PUSH1 0x4 ADD SLOAD SWAP1 DUP1 PUSH1 0x5 ADD PUSH1 0x0 SWAP1 SLOAD SWAP1 PUSH2 0x100 EXP SWAP1 DIV PUSH1 0xFF AND SWAP1 POP DUP7 JUMP JUMPDEST PUSH1 0x0 DUP2 GT PUSH2 0xFC1 JUMPI PUSH1 0x40 MLOAD PUSH32 0x8C379A000000000000000000000000000000000000000000000000000000000 DUP2 MSTORE PUSH1 0x4 ADD PUSH2 0xFB8 SWAP1 PUSH2 0x2EE1 JUMP JUMPDEST PUSH1 0x40 MLOAD DUP1 SWAP2 SUB SWAP1 REVERT JUMPDEST PUSH2 0xFCA DUP4 PUSH2 0x217C JUMP JUMPDEST PUSH1 0x0 CALLER SWAP1 POP PUSH1 0x0 DUP5 SWAP1 POP DUP2 PUSH20 0xFFFFFFFFFFFFFFFFFFFFFFFFFFFFFFFFFFFFFFFF AND DUP2 PUSH20 0xFFFFFFFFFFFFFFFFFFFFFFFFFFFFFFFFFFFFFFFF AND PUSH4 0x6352211E DUP7 PUSH1 0x40 MLOAD DUP3 PUSH4 0xFFFFFFFF AND PUSH1 0xE0 SHL DUP2 MSTORE PUSH1 0x4 ADD PUSH2 0x1024 SWAP2 SWAP1 PUSH2 0x2F01 JUMP JUMPDEST PUSH1 0x20 PUSH1 0x40 MLOAD DUP1 DUP4 SUB DUP2 DUP7 GAS STATICCALL ISZERO DUP1 ISZERO PUSH2 0x1041 JUMPI RETURNDATASIZE PUSH1 0x0 DUP1 RETURNDATACOPY RETURNDATASIZE PUSH1 0x0 REVERT JUMPDEST POP POP POP POP PUSH1 0x40 MLOAD RETURNDATASIZE PUSH1 0x1F NOT PUSH1 0x1F DUP3 ADD AND DUP3 ADD DUP1 PUSH1 0x40 MSTORE POP DUP2 ADD SWAP1 PUSH2 0x1065 SWAP2 SWAP1 PUSH2 0x2F31 JUMP JUMPDEST PUSH20 0xFFFFFFFFFFFFFFFFFFFFFFFFFFFFFFFFFFFFFFFF AND EQ PUSH2 0x10BB JUMPI PUSH1 0x40 MLOAD PUSH32 0x8C379A000000000000000000000000000000000000000000000000000000000 DUP2 MSTORE PUSH1 0x4 ADD PUSH2 0x10B2 SWAP1 PUSH2 0x2FD0 JUMP JUMPDEST PUSH1 0x40 MLOAD DUP1 SWAP2 SUB SWAP1 REVERT JUMPDEST DUP1 PUSH20 0xFFFFFFFFFFFFFFFFFFFFFFFFFFFFFFFFFFFFFFFF AND PUSH4 0x23B872DD DUP4 ADDRESS DUP8 PUSH1 0x40 MLOAD DUP5 PUSH4 0xFFFFFFFF AND PUSH1 0xE0 SHL DUP2 MSTORE PUSH1 0x4 ADD PUSH2 0x10F8 SWAP4 SWAP3 SWAP2 SWAP1 PUSH2 0x2E5E JUMP JUMPDEST PUSH1 0x0 PUSH1 0x40 MLOAD DUP1 DUP4 SUB DUP2 PUSH1 0x0 DUP8 DUP1 EXTCODESIZE ISZERO DUP1 ISZERO PUSH2 0x1112 JUMPI PUSH1 0x0 DUP1 REVERT JUMPDEST POP GAS CALL ISZERO DUP1 ISZERO PUSH2 0x1126 JUMPI RETURNDATASIZE PUSH1 0x0 DUP1 RETURNDATACOPY RETURNDATASIZE PUSH1 0x0 REVERT JUMPDEST POP POP POP POP PUSH1 0x0 PUSH1 0x1 PUSH1 0x0 DUP8 PUSH20 0xFFFFFFFFFFFFFFFFFFFFFFFFFFFFFFFFFFFFFFFF AND PUSH20 0xFFFFFFFFFFFFFFFFFFFFFFFFFFFFFFFFFFFFFFFF AND DUP2 MSTORE PUSH1 0x20 ADD SWAP1 DUP2 MSTORE PUSH1 0x20 ADD PUSH1 0x0 KECCAK256 PUSH1 0x0 DUP7 DUP2 MSTORE PUSH1 0x20 ADD SWAP1 DUP2 MSTORE PUSH1 0x20 ADD PUSH1 0x0 KECCAK256 PUSH1 0x40 MLOAD DUP1 PUSH1 0xC0 ADD PUSH1 0x40 MSTORE SWAP1 DUP2 PUSH1 0x0 DUP3 ADD SLOAD DUP2 MSTORE PUSH1 0x20 ADD PUSH1 0x1 DUP3 ADD PUSH1 0x0 SWAP1 SLOAD SWAP1 PUSH2 0x100 EXP SWAP1 DIV PUSH20 0xFFFFFFFFFFFFFFFFFFFFFFFFFFFFFFFFFFFFFFFF AND PUSH20 0xFFFFFFFFFFFFFFFFFFFFFFFFFFFFFFFFFFFFFFFF AND PUSH20 0xFFFFFFFFFFFFFFFFFFFFFFFFFFFFFFFFFFFFFFFF AND DUP2 MSTORE PUSH1 0x20 ADD PUSH1 0x2 DUP3 ADD PUSH1 0x0 SWAP1 SLOAD SWAP1 PUSH2 0x100 EXP SWAP1 DIV PUSH20 0xFFFFFFFFFFFFFFFFFFFFFFFFFFFFFFFFFFFFFFFF AND PUSH20 0xFFFFFFFFFFFFFFFFFFFFFFFFFFFFFFFFFFFFFFFF AND PUSH20 0xFFFFFFFFFFFFFFFFFFFFFFFFFFFFFFFFFFFFFFFF AND DUP2 MSTORE PUSH1 0x20 ADD PUSH1 0x3 DUP3 ADD SLOAD DUP2 MSTORE PUSH1 0x20 ADD PUSH1 0x4 DUP3 ADD SLOAD DUP2 MSTORE PUSH1 0x20 ADD PUSH1 0x5 DUP3 ADD PUSH1 0x0 SWAP1 SLOAD SWAP1 PUSH2 0x100 EXP SWAP1 DIV PUSH1 0xFF AND PUSH1 0x4 DUP2 GT ISZERO PUSH2 0x1276 JUMPI PUSH2 0x1275 PUSH2 0x2ABF JUMP JUMPDEST JUMPDEST PUSH1 0x4 DUP2 GT ISZERO PUSH2 0x1288 JUMPI PUSH2 0x1287 PUSH2 0x2ABF JUMP JUMPDEST JUMPDEST DUP2 MSTORE POP POP SWAP1 POP PUSH1 0x0 DUP1 SHL DUP2 PUSH1 0x0 ADD MLOAD SUB PUSH2 0x12AF JUMPI PUSH2 0x12AA DUP4 DUP7 DUP9 DUP8 PUSH1 0x0 PUSH2 0x228D JUMP JUMPDEST PUSH2 0x1480 JUMP JUMPDEST PUSH1 0x1 PUSH1 0x4 DUP2 GT ISZERO PUSH2 0x12C3 JUMPI PUSH2 0x12C2 PUSH2 0x2ABF JUMP JUMPDEST JUMPDEST DUP2 PUSH1 0xA0 ADD MLOAD PUSH1 0x4 DUP2 GT ISZERO PUSH2 0x12DA JUMPI PUSH2 0x12D9 PUSH2 0x2ABF JUMP JUMPDEST JUMPDEST SUB PUSH2 0x131A JUMPI PUSH1 0x40 MLOAD PUSH32 0x8C379A000000000000000000000000000000000000000000000000000000000 DUP2 MSTORE PUSH1 0x4 ADD PUSH2 0x1311 SWAP1 PUSH2 0x303C JUMP JUMPDEST PUSH1 0x40 MLOAD DUP1 SWAP2 SUB SWAP1 REVERT JUMPDEST PUSH1 0x1 DUP1 PUSH1 0x0 DUP9 PUSH20 0xFFFFFFFFFFFFFFFFFFFFFFFFFFFFFFFFFFFFFFFF AND PUSH20 0xFFFFFFFFFFFFFFFFFFFFFFFFFFFFFFFFFFFFFFFF AND DUP2 MSTORE PUSH1 0x20 ADD SWAP1 DUP2 MSTORE PUSH1 0x20 ADD PUSH1 0x0 KECCAK256 PUSH1 0x0 DUP8 DUP2 MSTORE PUSH1 0x20 ADD SWAP1 DUP2 MSTORE PUSH1 0x20 ADD PUSH1 0x0 KECCAK256 PUSH1 0x5 ADD PUSH1 0x0 PUSH2 0x100 EXP DUP2 SLOAD DUP2 PUSH1 0xFF MUL NOT AND SWAP1 DUP4 PUSH1 0x4 DUP2 GT ISZERO PUSH2 0x1390 JUMPI PUSH2 0x138F PUSH2 0x2ABF JUMP JUMPDEST JUMPDEST MUL OR SWAP1 SSTORE POP DUP4 PUSH1 0x1 PUSH1 0x0 DUP9 PUSH20 0xFFFFFFFFFFFFFFFFFFFFFFFFFFFFFFFFFFFFFFFF AND PUSH20 0xFFFFFFFFFFFFFFFFFFFFFFFFFFFFFFFFFFFFFFFF AND DUP2 MSTORE PUSH1 0x20 ADD SWAP1 DUP2 MSTORE PUSH1 0x20 ADD PUSH1 0x0 KECCAK256 PUSH1 0x0 DUP8 DUP2 MSTORE PUSH1 0x20 ADD SWAP1 DUP2 MSTORE PUSH1 0x20 ADD PUSH1 0x0 KECCAK256 PUSH1 0x3 ADD DUP2 SWAP1 SSTORE POP DUP3 PUSH1 0x1 PUSH1 0x0 DUP9 PUSH20 0xFFFFFFFFFFFFFFFFFFFFFFFFFFFFFFFFFFFFFFFF AND PUSH20 0xFFFFFFFFFFFFFFFFFFFFFFFFFFFFFFFFFFFFFFFF AND DUP2 MSTORE PUSH1 0x20 ADD SWAP1 DUP2 MSTORE PUSH1 0x20 ADD PUSH1 0x0 KECCAK256 PUSH1 0x0 DUP8 DUP2 MSTORE PUSH1 0x20 ADD SWAP1 DUP2 MSTORE PUSH1 0x20 ADD PUSH1 0x0 KECCAK256 PUSH1 0x1 ADD PUSH1 0x0 PUSH2 0x100 EXP DUP2 SLOAD DUP2 PUSH20 0xFFFFFFFFFFFFFFFFFFFFFFFFFFFFFFFFFFFFFFFF MUL NOT AND SWAP1 DUP4 PUSH20 0xFFFFFFFFFFFFFFFFFFFFFFFFFFFFFFFFFFFFFFFF AND MUL OR SWAP1 SSTORE POP JUMPDEST DUP3 PUSH20 0xFFFFFFFFFFFFFFFFFFFFFFFFFFFFFFFFFFFFFFFF AND DUP6 PUSH32 0xFF2412BD5C66E6AD5153E35EE902EE32BB4393211A4D0662428B9B481929A7B9 DUP9 DUP5 PUSH1 0x0 ADD MLOAD DUP9 TIMESTAMP PUSH1 0x40 MLOAD PUSH2 0x14D1 SWAP5 SWAP4 SWAP3 SWAP2 SWAP1 PUSH2 0x30A8 JUMP JUMPDEST PUSH1 0x40 MLOAD DUP1 SWAP2 SUB SWAP1 LOG3 POP POP POP POP POP POP JUMP JUMPDEST PUSH2 0x14E9 PUSH2 0x2463 JUMP JUMPDEST PUSH20 0xFFFFFFFFFFFFFFFFFFFFFFFFFFFFFFFFFFFFFFFF AND PUSH2 0x1507 PUSH2 0x157C JUMP JUMPDEST PUSH20 0xFFFFFFFFFFFFFFFFFFFFFFFFFFFFFFFFFFFFFFFF AND EQ PUSH2 0x155D JUMPI PUSH1 0x40 MLOAD PUSH32 0x8C379A000000000000000000000000000000000000000000000000000000000 DUP2 MSTORE PUSH1 0x4 ADD PUSH2 0x1554 SWAP1 PUSH2 0x314C JUMP JUMPDEST PUSH1 0x40 MLOAD DUP1 SWAP2 SUB SWAP1 REVERT JUMPDEST PUSH2 0x1567 PUSH1 0x0 PUSH2 0x246B JUMP JUMPDEST JUMP JUMPDEST PUSH1 0x3 PUSH1 0x14 SWAP1 SLOAD SWAP1 PUSH2 0x100 EXP SWAP1 DIV PUSH1 0xFF AND DUP2 JUMP JUMPDEST PUSH1 0x0 PUSH1 0x4 PUSH1 0x0 SWAP1 SLOAD SWAP1 PUSH2 0x100 EXP SWAP1 DIV PUSH20 0xFFFFFFFFFFFFFFFFFFFFFFFFFFFFFFFFFFFFFFFF AND SWAP1 POP SWAP1 JUMP JUMPDEST PUSH2 0x15AE PUSH2 0x2463 JUMP JUMPDEST PUSH20 0xFFFFFFFFFFFFFFFFFFFFFFFFFFFFFFFFFFFFFFFF AND PUSH2 0x15CC PUSH2 0x157C JUMP JUMPDEST PUSH20 0xFFFFFFFFFFFFFFFFFFFFFFFFFFFFFFFFFFFFFFFF AND EQ PUSH2 0x1622 JUMPI PUSH1 0x40 MLOAD PUSH32 0x8C379A000000000000000000000000000000000000000000000000000000000 DUP2 MSTORE PUSH1 0x4 ADD PUSH2 0x1619 SWAP1 PUSH2 0x314C JUMP JUMPDEST PUSH1 0x40 MLOAD DUP1 SWAP2 SUB SWAP1 REVERT JUMPDEST DUP1 PUSH1 0x3 PUSH1 0x0 PUSH2 0x100 EXP DUP2 SLOAD DUP2 PUSH20 0xFFFFFFFFFFFFFFFFFFFFFFFFFFFFFFFFFFFFFFFF MUL NOT AND SWAP1 DUP4 PUSH20 0xFFFFFFFFFFFFFFFFFFFFFFFFFFFFFFFFFFFFFFFF AND MUL OR SWAP1 SSTORE POP POP JUMP JUMPDEST PUSH1 0x3 PUSH1 0x15 SWAP1 SLOAD SWAP1 PUSH2 0x100 EXP SWAP1 DIV PUSH1 0xFF AND DUP2 JUMP JUMPDEST PUSH1 0x2 PUSH1 0x0 SLOAD SUB PUSH2 0x16BE JUMPI PUSH1 0x40 MLOAD PUSH32 0x8C379A000000000000000000000000000000000000000000000000000000000 DUP2 MSTORE PUSH1 0x4 ADD PUSH2 0x16B5 SWAP1 PUSH2 0x2DD2 JUMP JUMPDEST PUSH1 0x40 MLOAD DUP1 SWAP2 SUB SWAP1 REVERT JUMPDEST PUSH1 0x2 PUSH1 0x0 DUP2 SWAP1 SSTORE POP PUSH1 0x0 PUSH1 0x7 PUSH1 0x0 DUP4 DUP2 MSTORE PUSH1 0x20 ADD SWAP1 DUP2 MSTORE PUSH1 0x20 ADD PUSH1 0x0 KECCAK256 PUSH1 0x5 ADD SLOAD SWAP1 POP PUSH1 0x0 PUSH1 0x7 PUSH1 0x0 DUP5 DUP2 MSTORE PUSH1 0x20 ADD SWAP1 DUP2 MSTORE PUSH1 0x20 ADD PUSH1 0x0 KECCAK256 PUSH1 0x2 ADD SLOAD SWAP1 POP DUP2 CALLVALUE EQ PUSH2 0x173E JUMPI PUSH1 0x40 MLOAD PUSH32 0x8C379A000000000000000000000000000000000000000000000000000000000 DUP2 MSTORE PUSH1 0x4 ADD PUSH2 0x1735 SWAP1 PUSH2 0x31DE JUMP JUMPDEST PUSH1 0x40 MLOAD DUP1 SWAP2 SUB SWAP1 REVERT JUMPDEST PUSH1 0x7 PUSH1 0x0 DUP5 DUP2 MSTORE PUSH1 0x20 ADD SWAP1 DUP2 MSTORE PUSH1 0x20 ADD PUSH1 0x0 KECCAK256 PUSH1 0x3 ADD PUSH1 0x0 SWAP1 SLOAD SWAP1 PUSH2 0x100 EXP SWAP1 DIV PUSH20 0xFFFFFFFFFFFFFFFFFFFFFFFFFFFFFFFFFFFFFFFF AND PUSH20 0xFFFFFFFFFFFFFFFFFFFFFFFFFFFFFFFFFFFFFFFF AND PUSH2 0x8FC CALLVALUE SWAP1 DUP2 ISZERO MUL SWAP1 PUSH1 0x40 MLOAD PUSH1 0x0 PUSH1 0x40 MLOAD DUP1 DUP4 SUB DUP2 DUP6 DUP9 DUP9 CALL SWAP4 POP POP POP POP ISZERO DUP1 ISZERO PUSH2 0x17BA JUMPI RETURNDATASIZE PUSH1 0x0 DUP1 RETURNDATACOPY RETURNDATASIZE PUSH1 0x0 REVERT JUMPDEST POP DUP4 PUSH20 0xFFFFFFFFFFFFFFFFFFFFFFFFFFFFFFFFFFFFFFFF AND PUSH4 0x23B872DD ADDRESS CALLER DUP5 PUSH1 0x40 MLOAD DUP5 PUSH4 0xFFFFFFFF AND PUSH1 0xE0 SHL DUP2 MSTORE PUSH1 0x4 ADD PUSH2 0x17F8 SWAP4 SWAP3 SWAP2 SWAP1 PUSH2 0x2E5E JUMP JUMPDEST PUSH1 0x0 PUSH1 0x40 MLOAD DUP1 DUP4 SUB DUP2 PUSH1 0x0 DUP8 DUP1 EXTCODESIZE ISZERO DUP1 ISZERO PUSH2 0x1812 JUMPI PUSH1 0x0 DUP1 REVERT JUMPDEST POP GAS CALL ISZERO DUP1 ISZERO PUSH2 0x1826 JUMPI RETURNDATASIZE PUSH1 0x0 DUP1 RETURNDATACOPY RETURNDATASIZE PUSH1 0x0 REVERT JUMPDEST POP POP POP POP CALLER PUSH1 0x7 PUSH1 0x0 DUP6 DUP2 MSTORE PUSH1 0x20 ADD SWAP1 DUP2 MSTORE PUSH1 0x20 ADD PUSH1 0x0 KECCAK256 PUSH1 0x4 ADD PUSH1 0x0 PUSH2 0x100 EXP DUP2 SLOAD DUP2 PUSH20 0xFFFFFFFFFFFFFFFFFFFFFFFFFFFFFFFFFFFFFFFF MUL NOT AND SWAP1 DUP4 PUSH20 0xFFFFFFFFFFFFFFFFFFFFFFFFFFFFFFFFFFFFFFFF AND MUL OR SWAP1 SSTORE POP PUSH2 0x1889 PUSH1 0x6 PUSH2 0x2166 JUMP JUMPDEST POP POP PUSH1 0x1 PUSH1 0x0 DUP2 SWAP1 SSTORE POP POP POP JUMP JUMPDEST PUSH2 0x189F PUSH2 0x254A JUMP JUMPDEST PUSH1 0x7 PUSH1 0x0 DUP4 DUP2 MSTORE PUSH1 0x20 ADD SWAP1 DUP2 MSTORE PUSH1 0x20 ADD PUSH1 0x0 KECCAK256 PUSH1 0x40 MLOAD DUP1 PUSH1 0xC0 ADD PUSH1 0x40 MSTORE SWAP1 DUP2 PUSH1 0x0 DUP3 ADD SLOAD DUP2 MSTORE PUSH1 0x20 ADD PUSH1 0x1 DUP3 ADD PUSH1 0x0 SWAP1 SLOAD SWAP1 PUSH2 0x100 EXP SWAP1 DIV PUSH20 0xFFFFFFFFFFFFFFFFFFFFFFFFFFFFFFFFFFFFFFFF AND PUSH20 0xFFFFFFFFFFFFFFFFFFFFFFFFFFFFFFFFFFFFFFFF AND PUSH20 0xFFFFFFFFFFFFFFFFFFFFFFFFFFFFFFFFFFFFFFFF AND DUP2 MSTORE PUSH1 0x20 ADD PUSH1 0x2 DUP3 ADD SLOAD DUP2 MSTORE PUSH1 0x20 ADD PUSH1 0x3 DUP3 ADD PUSH1 0x0 SWAP1 SLOAD SWAP1 PUSH2 0x100 EXP SWAP1 DIV PUSH20 0xFFFFFFFFFFFFFFFFFFFFFFFFFFFFFFFFFFFFFFFF AND PUSH20 0xFFFFFFFFFFFFFFFFFFFFFFFFFFFFFFFFFFFFFFFF AND PUSH20 0xFFFFFFFFFFFFFFFFFFFFFFFFFFFFFFFFFFFFFFFF AND DUP2 MSTORE PUSH1 0x20 ADD PUSH1 0x4 DUP3 ADD PUSH1 0x0 SWAP1 SLOAD SWAP1 PUSH2 0x100 EXP SWAP1 DIV PUSH20 0xFFFFFFFFFFFFFFFFFFFFFFFFFFFFFFFFFFFFFFFF AND PUSH20 0xFFFFFFFFFFFFFFFFFFFFFFFFFFFFFFFFFFFFFFFF AND PUSH20 0xFFFFFFFFFFFFFFFFFFFFFFFFFFFFFFFFFFFFFFFF AND DUP2 MSTORE PUSH1 0x20 ADD PUSH1 0x5 DUP3 ADD SLOAD DUP2 MSTORE POP POP SWAP1 POP SWAP2 SWAP1 POP JUMP JUMPDEST PUSH2 0x19ED DUP4 PUSH2 0x217C JUMP JUMPDEST PUSH1 0x0 CALLER SWAP1 POP PUSH1 0x0 DUP5 SWAP1 POP PUSH1 0x0 PUSH1 0x1 PUSH1 0x0 DUP8 PUSH20 0xFFFFFFFFFFFFFFFFFFFFFFFFFFFFFFFFFFFFFFFF AND PUSH20 0xFFFFFFFFFFFFFFFFFFFFFFFFFFFFFFFFFFFFFFFF AND DUP2 MSTORE PUSH1 0x20 ADD SWAP1 DUP2 MSTORE PUSH1 0x20 ADD PUSH1 0x0 KECCAK256 PUSH1 0x0 DUP7 DUP2 MSTORE PUSH1 0x20 ADD SWAP1 DUP2 MSTORE PUSH1 0x20 ADD PUSH1 0x0 KECCAK256 PUSH1 0x40 MLOAD DUP1 PUSH1 0xC0 ADD PUSH1 0x40 MSTORE SWAP1 DUP2 PUSH1 0x0 DUP3 ADD SLOAD DUP2 MSTORE PUSH1 0x20 ADD PUSH1 0x1 DUP3 ADD PUSH1 0x0 SWAP1 SLOAD SWAP1 PUSH2 0x100 EXP SWAP1 DIV PUSH20 0xFFFFFFFFFFFFFFFFFFFFFFFFFFFFFFFFFFFFFFFF AND PUSH20 0xFFFFFFFFFFFFFFFFFFFFFFFFFFFFFFFFFFFFFFFF AND PUSH20 0xFFFFFFFFFFFFFFFFFFFFFFFFFFFFFFFFFFFFFFFF AND DUP2 MSTORE PUSH1 0x20 ADD PUSH1 0x2 DUP3 ADD PUSH1 0x0 SWAP1 SLOAD SWAP1 PUSH2 0x100 EXP SWAP1 DIV PUSH20 0xFFFFFFFFFFFFFFFFFFFFFFFFFFFFFFFFFFFFFFFF AND PUSH20 0xFFFFFFFFFFFFFFFFFFFFFFFFFFFFFFFFFFFFFFFF AND PUSH20 0xFFFFFFFFFFFFFFFFFFFFFFFFFFFFFFFFFFFFFFFF AND DUP2 MSTORE PUSH1 0x20 ADD PUSH1 0x3 DUP3 ADD SLOAD DUP2 MSTORE PUSH1 0x20 ADD PUSH1 0x4 DUP3 ADD SLOAD DUP2 MSTORE PUSH1 0x20 ADD PUSH1 0x5 DUP3 ADD PUSH1 0x0 SWAP1 SLOAD SWAP1 PUSH2 0x100 EXP SWAP1 DIV PUSH1 0xFF AND PUSH1 0x4 DUP2 GT ISZERO PUSH2 0x1B43 JUMPI PUSH2 0x1B42 PUSH2 0x2ABF JUMP JUMPDEST JUMPDEST PUSH1 0x4 DUP2 GT ISZERO PUSH2 0x1B55 JUMPI PUSH2 0x1B54 PUSH2 0x2ABF JUMP JUMPDEST JUMPDEST DUP2 MSTORE POP POP SWAP1 POP PUSH1 0x0 DUP1 SHL DUP2 PUSH1 0x0 ADD MLOAD SUB PUSH2 0x1BA4 JUMPI PUSH1 0x40 MLOAD PUSH32 0x8C379A000000000000000000000000000000000000000000000000000000000 DUP2 MSTORE PUSH1 0x4 ADD PUSH2 0x1B9B SWAP1 PUSH2 0x324A JUMP JUMPDEST PUSH1 0x40 MLOAD DUP1 SWAP2 SUB SWAP1 REVERT JUMPDEST PUSH1 0x1 PUSH1 0x4 DUP2 GT ISZERO PUSH2 0x1BB8 JUMPI PUSH2 0x1BB7 PUSH2 0x2ABF JUMP JUMPDEST JUMPDEST DUP2 PUSH1 0xA0 ADD MLOAD PUSH1 0x4 DUP2 GT ISZERO PUSH2 0x1BCF JUMPI PUSH2 0x1BCE PUSH2 0x2ABF JUMP JUMPDEST JUMPDEST EQ PUSH2 0x1C0F JUMPI PUSH1 0x40 MLOAD PUSH32 0x8C379A000000000000000000000000000000000000000000000000000000000 DUP2 MSTORE PUSH1 0x4 ADD PUSH2 0x1C06 SWAP1 PUSH2 0x32B6 JUMP JUMPDEST PUSH1 0x40 MLOAD DUP1 SWAP2 SUB SWAP1 REVERT JUMPDEST PUSH1 0x0 DUP2 PUSH1 0x20 ADD MLOAD SWAP1 POP PUSH1 0x0 PUSH20 0xFFFFFFFFFFFFFFFFFFFFFFFFFFFFFFFFFFFFFFFF AND DUP2 PUSH20 0xFFFFFFFFFFFFFFFFFFFFFFFFFFFFFFFFFFFFFFFF AND SUB PUSH2 0x1C87 JUMPI PUSH1 0x40 MLOAD PUSH32 0x8C379A000000000000000000000000000000000000000000000000000000000 DUP2 MSTORE PUSH1 0x4 ADD PUSH2 0x1C7E SWAP1 PUSH2 0x3322 JUMP JUMPDEST PUSH1 0x40 MLOAD DUP1 SWAP2 SUB SWAP1 REVERT JUMPDEST DUP2 PUSH1 0x80 ADD MLOAD DUP6 LT ISZERO PUSH2 0x1CCE JUMPI PUSH1 0x40 MLOAD PUSH32 0x8C379A000000000000000000000000000000000000000000000000000000000 DUP2 MSTORE PUSH1 0x4 ADD PUSH2 0x1CC5 SWAP1 PUSH2 0x338E JUMP JUMPDEST PUSH1 0x40 MLOAD DUP1 SWAP2 SUB SWAP1 REVERT JUMPDEST PUSH1 0x0 PUSH1 0x64 DUP7 PUSH1 0x3 PUSH1 0x15 SWAP1 SLOAD SWAP1 PUSH2 0x100 EXP SWAP1 DIV PUSH1 0xFF AND PUSH1 0xFF AND PUSH2 0x1CF0 SWAP2 SWAP1 PUSH2 0x33AE JUMP JUMPDEST PUSH2 0x1CFA SWAP2 SWAP1 PUSH2 0x3437 JUMP JUMPDEST SWAP1 POP PUSH1 0x0 DUP2 DUP8 PUSH2 0x1D0A SWAP2 SWAP1 PUSH2 0x2C45 JUMP JUMPDEST SWAP1 POP PUSH1 0x3 PUSH1 0x0 SWAP1 SLOAD SWAP1 PUSH2 0x100 EXP SWAP1 DIV PUSH20 0xFFFFFFFFFFFFFFFFFFFFFFFFFFFFFFFFFFFFFFFF AND PUSH20 0xFFFFFFFFFFFFFFFFFFFFFFFFFFFFFFFFFFFFFFFF AND PUSH4 0x23B872DD DUP8 ADDRESS DUP6 PUSH1 0x40 MLOAD DUP5 PUSH4 0xFFFFFFFF AND PUSH1 0xE0 SHL DUP2 MSTORE PUSH1 0x4 ADD PUSH2 0x1D6B SWAP4 SWAP3 SWAP2 SWAP1 PUSH2 0x2E5E JUMP JUMPDEST PUSH1 0x20 PUSH1 0x40 MLOAD DUP1 DUP4 SUB DUP2 PUSH1 0x0 DUP8 GAS CALL ISZERO DUP1 ISZERO PUSH2 0x1D8A JUMPI RETURNDATASIZE PUSH1 0x0 DUP1 RETURNDATACOPY RETURNDATASIZE PUSH1 0x0 REVERT JUMPDEST POP POP POP POP PUSH1 0x40 MLOAD RETURNDATASIZE PUSH1 0x1F NOT PUSH1 0x1F DUP3 ADD AND DUP3 ADD DUP1 PUSH1 0x40 MSTORE POP DUP2 ADD SWAP1 PUSH2 0x1DAE SWAP2 SWAP1 PUSH2 0x34A0 JUMP JUMPDEST POP PUSH1 0x3 PUSH1 0x0 SWAP1 SLOAD SWAP1 PUSH2 0x100 EXP SWAP1 DIV PUSH20 0xFFFFFFFFFFFFFFFFFFFFFFFFFFFFFFFFFFFFFFFF AND PUSH20 0xFFFFFFFFFFFFFFFFFFFFFFFFFFFFFFFFFFFFFFFF AND PUSH4 0x23B872DD DUP8 DUP6 DUP5 PUSH1 0x40 MLOAD DUP5 PUSH4 0xFFFFFFFF AND PUSH1 0xE0 SHL DUP2 MSTORE PUSH1 0x4 ADD PUSH2 0x1E0E SWAP4 SWAP3 SWAP2 SWAP1 PUSH2 0x2E5E JUMP JUMPDEST PUSH1 0x20 PUSH1 0x40 MLOAD DUP1 DUP4 SUB DUP2 PUSH1 0x0 DUP8 GAS CALL ISZERO DUP1 ISZERO PUSH2 0x1E2D JUMPI RETURNDATASIZE PUSH1 0x0 DUP1 RETURNDATACOPY RETURNDATASIZE PUSH1 0x0 REVERT JUMPDEST POP POP POP POP PUSH1 0x40 MLOAD RETURNDATASIZE PUSH1 0x1F NOT PUSH1 0x1F DUP3 ADD AND DUP3 ADD DUP1 PUSH1 0x40 MSTORE POP DUP2 ADD SWAP1 PUSH2 0x1E51 SWAP2 SWAP1 PUSH2 0x34A0 JUMP JUMPDEST POP DUP5 PUSH20 0xFFFFFFFFFFFFFFFFFFFFFFFFFFFFFFFFFFFFFFFF AND PUSH4 0x42842E0E ADDRESS DUP9 DUP12 PUSH1 0x40 MLOAD DUP5 PUSH4 0xFFFFFFFF AND PUSH1 0xE0 SHL DUP2 MSTORE PUSH1 0x4 ADD PUSH2 0x1E8F SWAP4 SWAP3 SWAP2 SWAP1 PUSH2 0x2E5E JUMP JUMPDEST PUSH1 0x0 PUSH1 0x40 MLOAD DUP1 DUP4 SUB DUP2 PUSH1 0x0 DUP8 DUP1 EXTCODESIZE ISZERO DUP1 ISZERO PUSH2 0x1EA9 JUMPI PUSH1 0x0 DUP1 REVERT JUMPDEST POP GAS CALL ISZERO DUP1 ISZERO PUSH2 0x1EBD JUMPI RETURNDATASIZE PUSH1 0x0 DUP1 RETURNDATACOPY RETURNDATASIZE PUSH1 0x0 REVERT JUMPDEST POP POP POP POP DUP6 PUSH1 0x1 PUSH1 0x0 DUP12 PUSH20 0xFFFFFFFFFFFFFFFFFFFFFFFFFFFFFFFFFFFFFFFF AND PUSH20 0xFFFFFFFFFFFFFFFFFFFFFFFFFFFFFFFFFFFFFFFF AND DUP2 MSTORE PUSH1 0x20 ADD SWAP1 DUP2 MSTORE PUSH1 0x20 ADD PUSH1 0x0 KECCAK256 PUSH1 0x0 DUP11 DUP2 MSTORE PUSH1 0x20 ADD SWAP1 DUP2 MSTORE PUSH1 0x20 ADD PUSH1 0x0 KECCAK256 PUSH1 0x1 ADD PUSH1 0x0 PUSH2 0x100 EXP DUP2 SLOAD DUP2 PUSH20 0xFFFFFFFFFFFFFFFFFFFFFFFFFFFFFFFFFFFFFFFF MUL NOT AND SWAP1 DUP4 PUSH20 0xFFFFFFFFFFFFFFFFFFFFFFFFFFFFFFFFFFFFFFFF AND MUL OR SWAP1 SSTORE POP PUSH1 0x2 PUSH1 0x1 PUSH1 0x0 DUP12 PUSH20 0xFFFFFFFFFFFFFFFFFFFFFFFFFFFFFFFFFFFFFFFF AND PUSH20 0xFFFFFFFFFFFFFFFFFFFFFFFFFFFFFFFFFFFFFFFF AND DUP2 MSTORE PUSH1 0x20 ADD SWAP1 DUP2 MSTORE PUSH1 0x20 ADD PUSH1 0x0 KECCAK256 PUSH1 0x0 DUP11 DUP2 MSTORE PUSH1 0x20 ADD SWAP1 DUP2 MSTORE PUSH1 0x20 ADD PUSH1 0x0 KECCAK256 PUSH1 0x5 ADD PUSH1 0x0 PUSH2 0x100 EXP DUP2 SLOAD DUP2 PUSH1 0xFF MUL NOT AND SWAP1 DUP4 PUSH1 0x4 DUP2 GT ISZERO PUSH2 0x1FCA JUMPI PUSH2 0x1FC9 PUSH2 0x2ABF JUMP JUMPDEST JUMPDEST MUL OR SWAP1 SSTORE POP DUP6 PUSH20 0xFFFFFFFFFFFFFFFFFFFFFFFFFFFFFFFFFFFFFFFF AND DUP4 PUSH20 0xFFFFFFFFFFFFFFFFFFFFFFFFFFFFFFFFFFFFFFFF AND DUP10 PUSH32 0x30247E11BBB597DFEFD2A3124026F1EF8987A4D6BA46E3629F80BAC1B0C9FAEE DUP8 PUSH1 0x0 ADD MLOAD DUP14 DUP10 PUSH1 0x80 ADD MLOAD PUSH1 0x3 PUSH1 0x15 SWAP1 SLOAD SWAP1 PUSH2 0x100 EXP SWAP1 DIV PUSH1 0xFF AND DUP10 TIMESTAMP PUSH1 0x40 MLOAD PUSH2 0x204E SWAP7 SWAP6 SWAP5 SWAP4 SWAP3 SWAP2 SWAP1 PUSH2 0x3519 JUMP JUMPDEST PUSH1 0x40 MLOAD DUP1 SWAP2 SUB SWAP1 LOG4 POP POP POP POP POP POP POP POP POP JUMP JUMPDEST PUSH2 0x2069 PUSH2 0x2463 JUMP JUMPDEST PUSH20 0xFFFFFFFFFFFFFFFFFFFFFFFFFFFFFFFFFFFFFFFF AND PUSH2 0x2087 PUSH2 0x157C JUMP JUMPDEST PUSH20 0xFFFFFFFFFFFFFFFFFFFFFFFFFFFFFFFFFFFFFFFF AND EQ PUSH2 0x20DD JUMPI PUSH1 0x40 MLOAD PUSH32 0x8C379A000000000000000000000000000000000000000000000000000000000 DUP2 MSTORE PUSH1 0x4 ADD PUSH2 0x20D4 SWAP1 PUSH2 0x314C JUMP JUMPDEST PUSH1 0x40 MLOAD DUP1 SWAP2 SUB SWAP1 REVERT JUMPDEST PUSH1 0x0 PUSH20 0xFFFFFFFFFFFFFFFFFFFFFFFFFFFFFFFFFFFFFFFF AND DUP2 PUSH20 0xFFFFFFFFFFFFFFFFFFFFFFFFFFFFFFFFFFFFFFFF AND SUB PUSH2 0x214C JUMPI PUSH1 0x40 MLOAD PUSH32 0x8C379A000000000000000000000000000000000000000000000000000000000 DUP2 MSTORE PUSH1 0x4 ADD PUSH2 0x2143 SWAP1 PUSH2 0x35FF JUMP JUMPDEST PUSH1 0x40 MLOAD DUP1 SWAP2 SUB SWAP1 REVERT JUMPDEST PUSH2 0x2155 DUP2 PUSH2 0x246B JUMP JUMPDEST POP JUMP JUMPDEST PUSH1 0x0 DUP2 PUSH1 0x0 ADD SLOAD SWAP1 POP SWAP2 SWAP1 POP JUMP JUMPDEST PUSH1 0x1 DUP2 PUSH1 0x0 ADD PUSH1 0x0 DUP3 DUP3 SLOAD ADD SWAP3 POP POP DUP2 SWAP1 SSTORE POP POP JUMP JUMPDEST PUSH2 0x2185 DUP2 PUSH2 0x2531 JUMP JUMPDEST PUSH2 0x21C4 JUMPI PUSH1 0x40 MLOAD PUSH32 0x8C379A000000000000000000000000000000000000000000000000000000000 DUP2 MSTORE PUSH1 0x4 ADD PUSH2 0x21BB SWAP1 PUSH2 0x3691 JUMP JUMPDEST PUSH1 0x40 MLOAD DUP1 SWAP2 SUB SWAP1 REVERT JUMPDEST PUSH1 0x0 DUP2 SWAP1 POP DUP1 PUSH20 0xFFFFFFFFFFFFFFFFFFFFFFFFFFFFFFFFFFFFFFFF AND PUSH4 0x1FFC9A7 PUSH4 0x80AC58CD PUSH1 0xE0 SHL PUSH1 0x40 MLOAD DUP3 PUSH4 0xFFFFFFFF AND PUSH1 0xE0 SHL DUP2 MSTORE PUSH1 0x4 ADD PUSH2 0x2209 SWAP2 SWAP1 PUSH2 0x2932 JUMP JUMPDEST PUSH1 0x20 PUSH1 0x40 MLOAD DUP1 DUP4 SUB DUP2 DUP7 GAS STATICCALL ISZERO DUP1 ISZERO PUSH2 0x2226 JUMPI RETURNDATASIZE PUSH1 0x0 DUP1 RETURNDATACOPY RETURNDATASIZE PUSH1 0x0 REVERT JUMPDEST POP POP POP POP PUSH1 0x40 MLOAD RETURNDATASIZE PUSH1 0x1F NOT PUSH1 0x1F DUP3 ADD AND DUP3 ADD DUP1 PUSH1 0x40 MSTORE POP DUP2 ADD SWAP1 PUSH2 0x224A SWAP2 SWAP1 PUSH2 0x34A0 JUMP JUMPDEST PUSH2 0x2289 JUMPI PUSH1 0x40 MLOAD PUSH32 0x8C379A000000000000000000000000000000000000000000000000000000000 DUP2 MSTORE PUSH1 0x4 ADD PUSH2 0x2280 SWAP1 PUSH2 0x3723 JUMP JUMPDEST PUSH1 0x40 MLOAD DUP1 SWAP2 SUB SWAP1 REVERT JUMPDEST POP POP JUMP JUMPDEST PUSH1 0x0 TIMESTAMP DUP7 DUP7 DUP7 DUP7 PUSH1 0x40 MLOAD PUSH1 0x20 ADD PUSH2 0x22A8 SWAP6 SWAP5 SWAP4 SWAP3 SWAP2 SWAP1 PUSH2 0x37AC JUMP JUMPDEST PUSH1 0x40 MLOAD PUSH1 0x20 DUP2 DUP4 SUB SUB DUP2 MSTORE SWAP1 PUSH1 0x40 MSTORE DUP1 MLOAD SWAP1 PUSH1 0x20 ADD KECCAK256 SWAP1 POP PUSH1 0x40 MLOAD DUP1 PUSH1 0xC0 ADD PUSH1 0x40 MSTORE DUP1 DUP3 DUP2 MSTORE PUSH1 0x20 ADD DUP8 PUSH20 0xFFFFFFFFFFFFFFFFFFFFFFFFFFFFFFFFFFFFFFFF AND DUP2 MSTORE PUSH1 0x20 ADD DUP6 PUSH20 0xFFFFFFFFFFFFFFFFFFFFFFFFFFFFFFFFFFFFFFFF AND DUP2 MSTORE PUSH1 0x20 ADD DUP5 DUP2 MSTORE PUSH1 0x20 ADD DUP4 DUP2 MSTORE PUSH1 0x20 ADD PUSH1 0x1 PUSH1 0x4 DUP2 GT ISZERO PUSH2 0x2329 JUMPI PUSH2 0x2328 PUSH2 0x2ABF JUMP JUMPDEST JUMPDEST DUP2 MSTORE POP PUSH1 0x1 PUSH1 0x0 DUP7 PUSH20 0xFFFFFFFFFFFFFFFFFFFFFFFFFFFFFFFFFFFFFFFF AND PUSH20 0xFFFFFFFFFFFFFFFFFFFFFFFFFFFFFFFFFFFFFFFF AND DUP2 MSTORE PUSH1 0x20 ADD SWAP1 DUP2 MSTORE PUSH1 0x20 ADD PUSH1 0x0 KECCAK256 PUSH1 0x0 DUP8 DUP2 MSTORE PUSH1 0x20 ADD SWAP1 DUP2 MSTORE PUSH1 0x20 ADD PUSH1 0x0 KECCAK256 PUSH1 0x0 DUP3 ADD MLOAD DUP2 PUSH1 0x0 ADD SSTORE PUSH1 0x20 DUP3 ADD MLOAD DUP2 PUSH1 0x1 ADD PUSH1 0x0 PUSH2 0x100 EXP DUP2 SLOAD DUP2 PUSH20 0xFFFFFFFFFFFFFFFFFFFFFFFFFFFFFFFFFFFFFFFF MUL NOT AND SWAP1 DUP4 PUSH20 0xFFFFFFFFFFFFFFFFFFFFFFFFFFFFFFFFFFFFFFFF AND MUL OR SWAP1 SSTORE POP PUSH1 0x40 DUP3 ADD MLOAD DUP2 PUSH1 0x2 ADD PUSH1 0x0 PUSH2 0x100 EXP DUP2 SLOAD DUP2 PUSH20 0xFFFFFFFFFFFFFFFFFFFFFFFFFFFFFFFFFFFFFFFF MUL NOT AND SWAP1 DUP4 PUSH20 0xFFFFFFFFFFFFFFFFFFFFFFFFFFFFFFFFFFFFFFFF AND MUL OR SWAP1 SSTORE POP PUSH1 0x60 DUP3 ADD MLOAD DUP2 PUSH1 0x3 ADD SSTORE PUSH1 0x80 DUP3 ADD MLOAD DUP2 PUSH1 0x4 ADD SSTORE PUSH1 0xA0 DUP3 ADD MLOAD DUP2 PUSH1 0x5 ADD PUSH1 0x0 PUSH2 0x100 EXP DUP2 SLOAD DUP2 PUSH1 0xFF MUL NOT AND SWAP1 DUP4 PUSH1 0x4 DUP2 GT ISZERO PUSH2 0x2453 JUMPI PUSH2 0x2452 PUSH2 0x2ABF JUMP JUMPDEST JUMPDEST MUL OR SWAP1 SSTORE POP SWAP1 POP POP POP POP POP POP POP POP JUMP JUMPDEST PUSH1 0x0 CALLER SWAP1 POP SWAP1 JUMP JUMPDEST PUSH1 0x0 PUSH1 0x4 PUSH1 0x0 SWAP1 SLOAD SWAP1 PUSH2 0x100 EXP SWAP1 DIV PUSH20 0xFFFFFFFFFFFFFFFFFFFFFFFFFFFFFFFFFFFFFFFF AND SWAP1 POP DUP2 PUSH1 0x4 PUSH1 0x0 PUSH2 0x100 EXP DUP2 SLOAD DUP2 PUSH20 0xFFFFFFFFFFFFFFFFFFFFFFFFFFFFFFFFFFFFFFFF MUL NOT AND SWAP1 DUP4 PUSH20 0xFFFFFFFFFFFFFFFFFFFFFFFFFFFFFFFFFFFFFFFF AND MUL OR SWAP1 SSTORE POP DUP2 PUSH20 0xFFFFFFFFFFFFFFFFFFFFFFFFFFFFFFFFFFFFFFFF AND DUP2 PUSH20 0xFFFFFFFFFFFFFFFFFFFFFFFFFFFFFFFFFFFFFFFF AND PUSH32 0x8BE0079C531659141344CD1FD0A4F28419497F9722A3DAAFE3B4186F6B6457E0 PUSH1 0x40 MLOAD PUSH1 0x40 MLOAD DUP1 SWAP2 SUB SWAP1 LOG3 POP POP JUMP JUMPDEST PUSH1 0x0 DUP1 DUP3 EXTCODESIZE SWAP1 POP PUSH1 0x0 DUP2 PUSH4 0xFFFFFFFF AND GT SWAP2 POP POP SWAP2 SWAP1 POP JUMP JUMPDEST PUSH1 0x40 MLOAD DUP1 PUSH1 0xC0 ADD PUSH1 0x40 MSTORE DUP1 PUSH1 0x0 DUP2 MSTORE PUSH1 0x20 ADD PUSH1 0x0 PUSH20 0xFFFFFFFFFFFFFFFFFFFFFFFFFFFFFFFFFFFFFFFF AND DUP2 MSTORE PUSH1 0x20 ADD PUSH1 0x0 DUP2 MSTORE PUSH1 0x20 ADD PUSH1 0x0 PUSH20 0xFFFFFFFFFFFFFFFFFFFFFFFFFFFFFFFFFFFFFFFF AND DUP2 MSTORE PUSH1 0x20 ADD PUSH1 0x0 PUSH20 0xFFFFFFFFFFFFFFFFFFFFFFFFFFFFFFFFFFFFFFFF AND DUP2 MSTORE PUSH1 0x20 ADD PUSH1 0x0 DUP2 MSTORE POP SWAP1 JUMP JUMPDEST PUSH1 0x0 DUP2 MLOAD SWAP1 POP SWAP2 SWAP1 POP JUMP JUMPDEST PUSH1 0x0 DUP3 DUP3 MSTORE PUSH1 0x20 DUP3 ADD SWAP1 POP SWAP3 SWAP2 POP POP JUMP JUMPDEST PUSH1 0x0 DUP2 SWAP1 POP PUSH1 0x20 DUP3 ADD SWAP1 POP SWAP2 SWAP1 POP JUMP JUMPDEST PUSH1 0x0 DUP2 SWAP1 POP SWAP2 SWAP1 POP JUMP JUMPDEST PUSH2 0x2601 DUP2 PUSH2 0x25EE JUMP JUMPDEST DUP3 MSTORE POP POP JUMP JUMPDEST PUSH1 0x0 PUSH20 0xFFFFFFFFFFFFFFFFFFFFFFFFFFFFFFFFFFFFFFFF DUP3 AND SWAP1 POP SWAP2 SWAP1 POP JUMP JUMPDEST PUSH1 0x0 PUSH2 0x2632 DUP3 PUSH2 0x2607 JUMP JUMPDEST SWAP1 POP SWAP2 SWAP1 POP JUMP JUMPDEST PUSH2 0x2642 DUP2 PUSH2 0x2627 JUMP JUMPDEST DUP3 MSTORE POP POP JUMP JUMPDEST PUSH1 0x0 PUSH2 0x2653 DUP3 PUSH2 0x2607 JUMP JUMPDEST SWAP1 POP SWAP2 SWAP1 POP JUMP JUMPDEST PUSH2 0x2663 DUP2 PUSH2 0x2648 JUMP JUMPDEST DUP3 MSTORE POP POP JUMP JUMPDEST PUSH1 0xC0 DUP3 ADD PUSH1 0x0 DUP3 ADD MLOAD PUSH2 0x267F PUSH1 0x0 DUP6 ADD DUP3 PUSH2 0x25F8 JUMP JUMPDEST POP PUSH1 0x20 DUP3 ADD MLOAD PUSH2 0x2692 PUSH1 0x20 DUP6 ADD DUP3 PUSH2 0x2639 JUMP JUMPDEST POP PUSH1 0x40 DUP3 ADD MLOAD PUSH2 0x26A5 PUSH1 0x40 DUP6 ADD DUP3 PUSH2 0x25F8 JUMP JUMPDEST POP PUSH1 0x60 DUP3 ADD MLOAD PUSH2 0x26B8 PUSH1 0x60 DUP6 ADD DUP3 PUSH2 0x265A JUMP JUMPDEST POP PUSH1 0x80 DUP3 ADD MLOAD PUSH2 0x26CB PUSH1 0x80 DUP6 ADD DUP3 PUSH2 0x265A JUMP JUMPDEST POP PUSH1 0xA0 DUP3 ADD MLOAD PUSH2 0x26DE PUSH1 0xA0 DUP6 ADD DUP3 PUSH2 0x25F8 JUMP JUMPDEST POP POP POP POP JUMP JUMPDEST PUSH1 0x0 PUSH2 0x26F0 DUP4 DUP4 PUSH2 0x2669 JUMP JUMPDEST PUSH1 0xC0 DUP4 ADD SWAP1 POP SWAP3 SWAP2 POP POP JUMP JUMPDEST PUSH1 0x0 PUSH1 0x20 DUP3 ADD SWAP1 POP SWAP2 SWAP1 POP JUMP JUMPDEST PUSH1 0x0 PUSH2 0x2714 DUP3 PUSH2 0x25C2 JUMP JUMPDEST PUSH2 0x271E DUP2 DUP6 PUSH2 0x25CD JUMP JUMPDEST SWAP4 POP PUSH2 0x2729 DUP4 PUSH2 0x25DE JUMP JUMPDEST DUP1 PUSH1 0x0 JUMPDEST DUP4 DUP2 LT ISZERO PUSH2 0x275A JUMPI DUP2 MLOAD PUSH2 0x2741 DUP9 DUP3 PUSH2 0x26E4 JUMP JUMPDEST SWAP8 POP PUSH2 0x274C DUP4 PUSH2 0x26FC JUMP JUMPDEST SWAP3 POP POP PUSH1 0x1 DUP2 ADD SWAP1 POP PUSH2 0x272D JUMP JUMPDEST POP DUP6 SWAP4 POP POP POP POP SWAP3 SWAP2 POP POP JUMP JUMPDEST PUSH1 0x0 PUSH1 0x20 DUP3 ADD SWAP1 POP DUP2 DUP2 SUB PUSH1 0x0 DUP4 ADD MSTORE PUSH2 0x2781 DUP2 DUP5 PUSH2 0x2709 JUMP JUMPDEST SWAP1 POP SWAP3 SWAP2 POP POP JUMP JUMPDEST PUSH1 0x0 DUP2 SWAP1 POP SWAP2 SWAP1 POP JUMP JUMPDEST PUSH1 0x0 PUSH2 0x27AE PUSH2 0x27A9 PUSH2 0x27A4 DUP5 PUSH2 0x2607 JUMP JUMPDEST PUSH2 0x2789 JUMP JUMPDEST PUSH2 0x2607 JUMP JUMPDEST SWAP1 POP SWAP2 SWAP1 POP JUMP JUMPDEST PUSH1 0x0 PUSH2 0x27C0 DUP3 PUSH2 0x2793 JUMP JUMPDEST SWAP1 POP SWAP2 SWAP1 POP JUMP JUMPDEST PUSH1 0x0 PUSH2 0x27D2 DUP3 PUSH2 0x27B5 JUMP JUMPDEST SWAP1 POP SWAP2 SWAP1 POP JUMP JUMPDEST PUSH2 0x27E2 DUP2 PUSH2 0x27C7 JUMP JUMPDEST DUP3 MSTORE POP POP JUMP JUMPDEST PUSH1 0x0 PUSH1 0x20 DUP3 ADD SWAP1 POP PUSH2 0x27FD PUSH1 0x0 DUP4 ADD DUP5 PUSH2 0x27D9 JUMP JUMPDEST SWAP3 SWAP2 POP POP JUMP JUMPDEST PUSH1 0x0 DUP1 REVERT JUMPDEST PUSH2 0x2811 DUP2 PUSH2 0x25EE JUMP JUMPDEST DUP2 EQ PUSH2 0x281C JUMPI PUSH1 0x0 DUP1 REVERT JUMPDEST POP JUMP JUMPDEST PUSH1 0x0 DUP2 CALLDATALOAD SWAP1 POP PUSH2 0x282E DUP2 PUSH2 0x2808 JUMP JUMPDEST SWAP3 SWAP2 POP POP JUMP JUMPDEST PUSH1 0x0 PUSH1 0x20 DUP3 DUP5 SUB SLT ISZERO PUSH2 0x284A JUMPI PUSH2 0x2849 PUSH2 0x2803 JUMP JUMPDEST JUMPDEST PUSH1 0x0 PUSH2 0x2858 DUP5 DUP3 DUP6 ADD PUSH2 0x281F JUMP JUMPDEST SWAP2 POP POP SWAP3 SWAP2 POP POP JUMP JUMPDEST PUSH1 0xC0 DUP3 ADD PUSH1 0x0 DUP3 ADD MLOAD PUSH2 0x2877 PUSH1 0x0 DUP6 ADD DUP3 PUSH2 0x25F8 JUMP JUMPDEST POP PUSH1 0x20 DUP3 ADD MLOAD PUSH2 0x288A PUSH1 0x20 DUP6 ADD DUP3 PUSH2 0x2639 JUMP JUMPDEST POP PUSH1 0x40 DUP3 ADD MLOAD PUSH2 0x289D PUSH1 0x40 DUP6 ADD DUP3 PUSH2 0x25F8 JUMP JUMPDEST POP PUSH1 0x60 DUP3 ADD MLOAD PUSH2 0x28B0 PUSH1 0x60 DUP6 ADD DUP3 PUSH2 0x265A JUMP JUMPDEST POP PUSH1 0x80 DUP3 ADD MLOAD PUSH2 0x28C3 PUSH1 0x80 DUP6 ADD DUP3 PUSH2 0x265A JUMP JUMPDEST POP PUSH1 0xA0 DUP3 ADD MLOAD PUSH2 0x28D6 PUSH1 0xA0 DUP6 ADD DUP3 PUSH2 0x25F8 JUMP JUMPDEST POP POP POP POP JUMP JUMPDEST PUSH1 0x0 PUSH1 0xC0 DUP3 ADD SWAP1 POP PUSH2 0x28F1 PUSH1 0x0 DUP4 ADD DUP5 PUSH2 0x2861 JUMP JUMPDEST SWAP3 SWAP2 POP POP JUMP JUMPDEST PUSH1 0x0 PUSH32 0xFFFFFFFF00000000000000000000000000000000000000000000000000000000 DUP3 AND SWAP1 POP SWAP2 SWAP1 POP JUMP JUMPDEST PUSH2 0x292C DUP2 PUSH2 0x28F7 JUMP JUMPDEST DUP3 MSTORE POP POP JUMP JUMPDEST PUSH1 0x0 PUSH1 0x20 DUP3 ADD SWAP1 POP PUSH2 0x2947 PUSH1 0x0 DUP4 ADD DUP5 PUSH2 0x2923 JUMP JUMPDEST SWAP3 SWAP2 POP POP JUMP JUMPDEST PUSH2 0x2956 DUP2 PUSH2 0x2627 JUMP JUMPDEST DUP2 EQ PUSH2 0x2961 JUMPI PUSH1 0x0 DUP1 REVERT JUMPDEST POP JUMP JUMPDEST PUSH1 0x0 DUP2 CALLDATALOAD SWAP1 POP PUSH2 0x2973 DUP2 PUSH2 0x294D JUMP JUMPDEST SWAP3 SWAP2 POP POP JUMP JUMPDEST PUSH1 0x0 DUP1 PUSH1 0x0 PUSH1 0x60 DUP5 DUP7 SUB SLT ISZERO PUSH2 0x2992 JUMPI PUSH2 0x2991 PUSH2 0x2803 JUMP JUMPDEST JUMPDEST PUSH1 0x0 PUSH2 0x29A0 DUP7 DUP3 DUP8 ADD PUSH2 0x2964 JUMP JUMPDEST SWAP4 POP POP PUSH1 0x20 PUSH2 0x29B1 DUP7 DUP3 DUP8 ADD PUSH2 0x281F JUMP JUMPDEST SWAP3 POP POP PUSH1 0x40 PUSH2 0x29C2 DUP7 DUP3 DUP8 ADD PUSH2 0x2964 JUMP JUMPDEST SWAP2 POP POP SWAP3 POP SWAP3 POP SWAP3 JUMP JUMPDEST PUSH1 0x0 DUP2 SWAP1 POP SWAP2 SWAP1 POP JUMP JUMPDEST PUSH2 0x29DF DUP2 PUSH2 0x29CC JUMP JUMPDEST DUP3 MSTORE POP POP JUMP JUMPDEST PUSH2 0x29EE DUP2 PUSH2 0x25EE JUMP JUMPDEST DUP3 MSTORE POP POP JUMP JUMPDEST PUSH1 0x0 PUSH1 0x40 DUP3 ADD SWAP1 POP PUSH2 0x2A09 PUSH1 0x0 DUP4 ADD DUP6 PUSH2 0x29D6 JUMP JUMPDEST PUSH2 0x2A16 PUSH1 0x20 DUP4 ADD DUP5 PUSH2 0x29E5 JUMP JUMPDEST SWAP4 SWAP3 POP POP POP JUMP JUMPDEST PUSH1 0x0 DUP1 PUSH1 0x0 PUSH1 0x60 DUP5 DUP7 SUB SLT ISZERO PUSH2 0x2A36 JUMPI PUSH2 0x2A35 PUSH2 0x2803 JUMP JUMPDEST JUMPDEST PUSH1 0x0 PUSH2 0x2A44 DUP7 DUP3 DUP8 ADD PUSH2 0x2964 JUMP JUMPDEST SWAP4 POP POP PUSH1 0x20 PUSH2 0x2A55 DUP7 DUP3 DUP8 ADD PUSH2 0x281F JUMP JUMPDEST SWAP3 POP POP PUSH1 0x40 PUSH2 0x2A66 DUP7 DUP3 DUP8 ADD PUSH2 0x281F JUMP JUMPDEST SWAP2 POP POP SWAP3 POP SWAP3 POP SWAP3 JUMP JUMPDEST PUSH1 0x0 DUP1 PUSH1 0x40 DUP4 DUP6 SUB SLT ISZERO PUSH2 0x2A87 JUMPI PUSH2 0x2A86 PUSH2 0x2803 JUMP JUMPDEST JUMPDEST PUSH1 0x0 PUSH2 0x2A95 DUP6 DUP3 DUP7 ADD PUSH2 0x2964 JUMP JUMPDEST SWAP3 POP POP PUSH1 0x20 PUSH2 0x2AA6 DUP6 DUP3 DUP7 ADD PUSH2 0x281F JUMP JUMPDEST SWAP2 POP POP SWAP3 POP SWAP3 SWAP1 POP JUMP JUMPDEST PUSH2 0x2AB9 DUP2 PUSH2 0x2627 JUMP JUMPDEST DUP3 MSTORE POP POP JUMP JUMPDEST PUSH32 0x4E487B7100000000000000000000000000000000000000000000000000000000 PUSH1 0x0 MSTORE PUSH1 0x21 PUSH1 0x4 MSTORE PUSH1 0x24 PUSH1 0x0 REVERT JUMPDEST PUSH1 0x5 DUP2 LT PUSH2 0x2AFF JUMPI PUSH2 0x2AFE PUSH2 0x2ABF JUMP JUMPDEST JUMPDEST POP JUMP JUMPDEST PUSH1 0x0 DUP2 SWAP1 POP PUSH2 0x2B10 DUP3 PUSH2 0x2AEE JUMP JUMPDEST SWAP2 SWAP1 POP JUMP JUMPDEST PUSH1 0x0 PUSH2 0x2B20 DUP3 PUSH2 0x2B02 JUMP JUMPDEST SWAP1 POP SWAP2 SWAP1 POP JUMP JUMPDEST PUSH2 0x2B30 DUP2 PUSH2 0x2B15 JUMP JUMPDEST DUP3 MSTORE POP POP JUMP JUMPDEST PUSH1 0x0 PUSH1 0xC0 DUP3 ADD SWAP1 POP PUSH2 0x2B4B PUSH1 0x0 DUP4 ADD DUP10 PUSH2 0x29D6 JUMP JUMPDEST PUSH2 0x2B58 PUSH1 0x20 DUP4 ADD DUP9 PUSH2 0x2AB0 JUMP JUMPDEST PUSH2 0x2B65 PUSH1 0x40 DUP4 ADD DUP8 PUSH2 0x2AB0 JUMP JUMPDEST PUSH2 0x2B72 PUSH1 0x60 DUP4 ADD DUP7 PUSH2 0x29E5 JUMP JUMPDEST PUSH2 0x2B7F PUSH1 0x80 DUP4 ADD DUP6 PUSH2 0x29E5 JUMP JUMPDEST PUSH2 0x2B8C PUSH1 0xA0 DUP4 ADD DUP5 PUSH2 0x2B27 JUMP JUMPDEST SWAP8 SWAP7 POP POP POP POP POP POP POP JUMP JUMPDEST PUSH1 0x0 PUSH1 0xFF DUP3 AND SWAP1 POP SWAP2 SWAP1 POP JUMP JUMPDEST PUSH2 0x2BAD DUP2 PUSH2 0x2B97 JUMP JUMPDEST DUP3 MSTORE POP POP JUMP JUMPDEST PUSH1 0x0 PUSH1 0x20 DUP3 ADD SWAP1 POP PUSH2 0x2BC8 PUSH1 0x0 DUP4 ADD DUP5 PUSH2 0x2BA4 JUMP JUMPDEST SWAP3 SWAP2 POP POP JUMP JUMPDEST PUSH1 0x0 PUSH1 0x20 DUP3 ADD SWAP1 POP PUSH2 0x2BE3 PUSH1 0x0 DUP4 ADD DUP5 PUSH2 0x2AB0 JUMP JUMPDEST SWAP3 SWAP2 POP POP JUMP JUMPDEST PUSH1 0x0 PUSH1 0x20 DUP3 DUP5 SUB SLT ISZERO PUSH2 0x2BFF JUMPI PUSH2 0x2BFE PUSH2 0x2803 JUMP JUMPDEST JUMPDEST PUSH1 0x0 PUSH2 0x2C0D DUP5 DUP3 DUP6 ADD PUSH2 0x2964 JUMP JUMPDEST SWAP2 POP POP SWAP3 SWAP2 POP POP JUMP JUMPDEST PUSH32 0x4E487B7100000000000000000000000000000000000000000000000000000000 PUSH1 0x0 MSTORE PUSH1 0x11 PUSH1 0x4 MSTORE PUSH1 0x24 PUSH1 0x0 REVERT JUMPDEST PUSH1 0x0 PUSH2 0x2C50 DUP3 PUSH2 0x25EE JUMP JUMPDEST SWAP2 POP PUSH2 0x2C5B DUP4 PUSH2 0x25EE JUMP JUMPDEST SWAP3 POP DUP3 DUP3 LT ISZERO PUSH2 0x2C6E JUMPI PUSH2 0x2C6D PUSH2 0x2C16 JUMP JUMPDEST JUMPDEST DUP3 DUP3 SUB SWAP1 POP SWAP3 SWAP2 POP POP JUMP JUMPDEST PUSH32 0x4E487B7100000000000000000000000000000000000000000000000000000000 PUSH1 0x0 MSTORE PUSH1 0x41 PUSH1 0x4 MSTORE PUSH1 0x24 PUSH1 0x0 REVERT JUMPDEST PUSH1 0x0 PUSH2 0x2CB3 DUP3 PUSH2 0x25EE JUMP JUMPDEST SWAP2 POP PUSH2 0x2CBE DUP4 PUSH2 0x25EE JUMP JUMPDEST SWAP3 POP DUP3 PUSH32 0xFFFFFFFFFFFFFFFFFFFFFFFFFFFFFFFFFFFFFFFFFFFFFFFFFFFFFFFFFFFFFFFF SUB DUP3 GT ISZERO PUSH2 0x2CF3 JUMPI PUSH2 0x2CF2 PUSH2 0x2C16 JUMP JUMPDEST JUMPDEST DUP3 DUP3 ADD SWAP1 POP SWAP3 SWAP2 POP POP JUMP JUMPDEST PUSH32 0x4E487B7100000000000000000000000000000000000000000000000000000000 PUSH1 0x0 MSTORE PUSH1 0x32 PUSH1 0x4 MSTORE PUSH1 0x24 PUSH1 0x0 REVERT JUMPDEST PUSH1 0x0 PUSH2 0x2D38 DUP3 PUSH2 0x25EE JUMP JUMPDEST SWAP2 POP PUSH32 0xFFFFFFFFFFFFFFFFFFFFFFFFFFFFFFFFFFFFFFFFFFFFFFFFFFFFFFFFFFFFFFFF DUP3 SUB PUSH2 0x2D6A JUMPI PUSH2 0x2D69 PUSH2 0x2C16 JUMP JUMPDEST JUMPDEST PUSH1 0x1 DUP3 ADD SWAP1 POP SWAP2 SWAP1 POP JUMP JUMPDEST PUSH1 0x0 DUP3 DUP3 MSTORE PUSH1 0x20 DUP3 ADD SWAP1 POP SWAP3 SWAP2 POP POP JUMP JUMPDEST PUSH32 0x5265656E7472616E637947756172643A207265656E7472616E742063616C6C00 PUSH1 0x0 DUP3 ADD MSTORE POP JUMP JUMPDEST PUSH1 0x0 PUSH2 0x2DBC PUSH1 0x1F DUP4 PUSH2 0x2D75 JUMP JUMPDEST SWAP2 POP PUSH2 0x2DC7 DUP3 PUSH2 0x2D86 JUMP JUMPDEST PUSH1 0x20 DUP3 ADD SWAP1 POP SWAP2 SWAP1 POP JUMP JUMPDEST PUSH1 0x0 PUSH1 0x20 DUP3 ADD SWAP1 POP DUP2 DUP2 SUB PUSH1 0x0 DUP4 ADD MSTORE PUSH2 0x2DEB DUP2 PUSH2 0x2DAF JUMP JUMPDEST SWAP1 POP SWAP2 SWAP1 POP JUMP JUMPDEST PUSH32 0x5072696365206D757374206265206174206C6561737420312077656900000000 PUSH1 0x0 DUP3 ADD MSTORE POP JUMP JUMPDEST PUSH1 0x0 PUSH2 0x2E28 PUSH1 0x1C DUP4 PUSH2 0x2D75 JUMP JUMPDEST SWAP2 POP PUSH2 0x2E33 DUP3 PUSH2 0x2DF2 JUMP JUMPDEST PUSH1 0x20 DUP3 ADD SWAP1 POP SWAP2 SWAP1 POP JUMP JUMPDEST PUSH1 0x0 PUSH1 0x20 DUP3 ADD SWAP1 POP DUP2 DUP2 SUB PUSH1 0x0 DUP4 ADD MSTORE PUSH2 0x2E57 DUP2 PUSH2 0x2E1B JUMP JUMPDEST SWAP1 POP SWAP2 SWAP1 POP JUMP JUMPDEST PUSH1 0x0 PUSH1 0x60 DUP3 ADD SWAP1 POP PUSH2 0x2E73 PUSH1 0x0 DUP4 ADD DUP7 PUSH2 0x2AB0 JUMP JUMPDEST PUSH2 0x2E80 PUSH1 0x20 DUP4 ADD DUP6 PUSH2 0x2AB0 JUMP JUMPDEST PUSH2 0x2E8D PUSH1 0x40 DUP4 ADD DUP5 PUSH2 0x29E5 JUMP JUMPDEST SWAP5 SWAP4 POP POP POP POP JUMP JUMPDEST PUSH32 0x50726963652073686F756C6420626520626967676572207468616E2030000000 PUSH1 0x0 DUP3 ADD MSTORE POP JUMP JUMPDEST PUSH1 0x0 PUSH2 0x2ECB PUSH1 0x1D DUP4 PUSH2 0x2D75 JUMP JUMPDEST SWAP2 POP PUSH2 0x2ED6 DUP3 PUSH2 0x2E95 JUMP JUMPDEST PUSH1 0x20 DUP3 ADD SWAP1 POP SWAP2 SWAP1 POP JUMP JUMPDEST PUSH1 0x0 PUSH1 0x20 DUP3 ADD SWAP1 POP DUP2 DUP2 SUB PUSH1 0x0 DUP4 ADD MSTORE PUSH2 0x2EFA DUP2 PUSH2 0x2EBE JUMP JUMPDEST SWAP1 POP SWAP2 SWAP1 POP JUMP JUMPDEST PUSH1 0x0 PUSH1 0x20 DUP3 ADD SWAP1 POP PUSH2 0x2F16 PUSH1 0x0 DUP4 ADD DUP5 PUSH2 0x29E5 JUMP JUMPDEST SWAP3 SWAP2 POP POP JUMP JUMPDEST PUSH1 0x0 DUP2 MLOAD SWAP1 POP PUSH2 0x2F2B DUP2 PUSH2 0x294D JUMP JUMPDEST SWAP3 SWAP2 POP POP JUMP JUMPDEST PUSH1 0x0 PUSH1 0x20 DUP3 DUP5 SUB SLT ISZERO PUSH2 0x2F47 JUMPI PUSH2 0x2F46 PUSH2 0x2803 JUMP JUMPDEST JUMPDEST PUSH1 0x0 PUSH2 0x2F55 DUP5 DUP3 DUP6 ADD PUSH2 0x2F1C JUMP JUMPDEST SWAP2 POP POP SWAP3 SWAP2 POP POP JUMP JUMPDEST PUSH32 0x5468652073656C6C6572206973206E6F206C6F6E67657220746865206F776E65 PUSH1 0x0 DUP3 ADD MSTORE PUSH32 0x7200000000000000000000000000000000000000000000000000000000000000 PUSH1 0x20 DUP3 ADD MSTORE POP JUMP JUMPDEST PUSH1 0x0 PUSH2 0x2FBA PUSH1 0x21 DUP4 PUSH2 0x2D75 JUMP JUMPDEST SWAP2 POP PUSH2 0x2FC5 DUP3 PUSH2 0x2F5E JUMP JUMPDEST PUSH1 0x40 DUP3 ADD SWAP1 POP SWAP2 SWAP1 POP JUMP JUMPDEST PUSH1 0x0 PUSH1 0x20 DUP3 ADD SWAP1 POP DUP2 DUP2 SUB PUSH1 0x0 DUP4 ADD MSTORE PUSH2 0x2FE9 DUP2 PUSH2 0x2FAD JUMP JUMPDEST SWAP1 POP SWAP2 SWAP1 POP JUMP JUMPDEST PUSH32 0x4173736574206973206C697374696E6700000000000000000000000000000000 PUSH1 0x0 DUP3 ADD MSTORE POP JUMP JUMPDEST PUSH1 0x0 PUSH2 0x3026 PUSH1 0x10 DUP4 PUSH2 0x2D75 JUMP JUMPDEST SWAP2 POP PUSH2 0x3031 DUP3 PUSH2 0x2FF0 JUMP JUMPDEST PUSH1 0x20 DUP3 ADD SWAP1 POP SWAP2 SWAP1 POP JUMP JUMPDEST PUSH1 0x0 PUSH1 0x20 DUP3 ADD SWAP1 POP DUP2 DUP2 SUB PUSH1 0x0 DUP4 ADD MSTORE PUSH2 0x3055 DUP2 PUSH2 0x3019 JUMP JUMPDEST SWAP1 POP SWAP2 SWAP1 POP JUMP JUMPDEST PUSH32 0x424E420000000000000000000000000000000000000000000000000000000000 PUSH1 0x0 DUP3 ADD MSTORE POP JUMP JUMPDEST PUSH1 0x0 PUSH2 0x3092 PUSH1 0x3 DUP4 PUSH2 0x2D75 JUMP JUMPDEST SWAP2 POP PUSH2 0x309D DUP3 PUSH2 0x305C JUMP JUMPDEST PUSH1 0x20 DUP3 ADD SWAP1 POP SWAP2 SWAP1 POP JUMP JUMPDEST PUSH1 0x0 PUSH1 0xA0 DUP3 ADD SWAP1 POP PUSH2 0x30BD PUSH1 0x0 DUP4 ADD DUP8 PUSH2 0x2AB0 JUMP JUMPDEST PUSH2 0x30CA PUSH1 0x20 DUP4 ADD DUP7 PUSH2 0x29D6 JUMP JUMPDEST PUSH2 0x30D7 PUSH1 0x40 DUP4 ADD DUP6 PUSH2 0x29E5 JUMP JUMPDEST DUP2 DUP2 SUB PUSH1 0x60 DUP4 ADD MSTORE PUSH2 0x30E8 DUP2 PUSH2 0x3085 JUMP JUMPDEST SWAP1 POP PUSH2 0x30F7 PUSH1 0x80 DUP4 ADD DUP5 PUSH2 0x29E5 JUMP JUMPDEST SWAP6 SWAP5 POP POP POP POP POP JUMP JUMPDEST PUSH32 0x4F776E61626C653A2063616C6C6572206973206E6F7420746865206F776E6572 PUSH1 0x0 DUP3 ADD MSTORE POP JUMP JUMPDEST PUSH1 0x0 PUSH2 0x3136 PUSH1 0x20 DUP4 PUSH2 0x2D75 JUMP JUMPDEST SWAP2 POP PUSH2 0x3141 DUP3 PUSH2 0x3100 JUMP JUMPDEST PUSH1 0x20 DUP3 ADD SWAP1 POP SWAP2 SWAP1 POP JUMP JUMPDEST PUSH1 0x0 PUSH1 0x20 DUP3 ADD SWAP1 POP DUP2 DUP2 SUB PUSH1 0x0 DUP4 ADD MSTORE PUSH2 0x3165 DUP2 PUSH2 0x3129 JUMP JUMPDEST SWAP1 POP SWAP2 SWAP1 POP JUMP JUMPDEST PUSH32 0x506C65617365207375626D6974207468652061736B696E672070726963652069 PUSH1 0x0 DUP3 ADD MSTORE PUSH32 0x6E206F7264657220746F20636F6D706C65746520746865207075726368617365 PUSH1 0x20 DUP3 ADD MSTORE POP JUMP JUMPDEST PUSH1 0x0 PUSH2 0x31C8 PUSH1 0x40 DUP4 PUSH2 0x2D75 JUMP JUMPDEST SWAP2 POP PUSH2 0x31D3 DUP3 PUSH2 0x316C JUMP JUMPDEST PUSH1 0x40 DUP3 ADD SWAP1 POP SWAP2 SWAP1 POP JUMP JUMPDEST PUSH1 0x0 PUSH1 0x20 DUP3 ADD SWAP1 POP DUP2 DUP2 SUB PUSH1 0x0 DUP4 ADD MSTORE PUSH2 0x31F7 DUP2 PUSH2 0x31BB JUMP JUMPDEST SWAP1 POP SWAP2 SWAP1 POP JUMP JUMPDEST PUSH32 0x4173736574206E6F74207075626C697368656400000000000000000000000000 PUSH1 0x0 DUP3 ADD MSTORE POP JUMP JUMPDEST PUSH1 0x0 PUSH2 0x3234 PUSH1 0x13 DUP4 PUSH2 0x2D75 JUMP JUMPDEST SWAP2 POP PUSH2 0x323F DUP3 PUSH2 0x31FE JUMP JUMPDEST PUSH1 0x20 DUP3 ADD SWAP1 POP SWAP2 SWAP1 POP JUMP JUMPDEST PUSH1 0x0 PUSH1 0x20 DUP3 ADD SWAP1 POP DUP2 DUP2 SUB PUSH1 0x0 DUP4 ADD MSTORE PUSH2 0x3263 DUP2 PUSH2 0x3227 JUMP JUMPDEST SWAP1 POP SWAP2 SWAP1 POP JUMP JUMPDEST PUSH32 0x4173736574206973206E6F74206C69737420746F206275790000000000000000 PUSH1 0x0 DUP3 ADD MSTORE POP JUMP JUMPDEST PUSH1 0x0 PUSH2 0x32A0 PUSH1 0x18 DUP4 PUSH2 0x2D75 JUMP JUMPDEST SWAP2 POP PUSH2 0x32AB DUP3 PUSH2 0x326A JUMP JUMPDEST PUSH1 0x20 DUP3 ADD SWAP1 POP SWAP2 SWAP1 POP JUMP JUMPDEST PUSH1 0x0 PUSH1 0x20 DUP3 ADD SWAP1 POP DUP2 DUP2 SUB PUSH1 0x0 DUP4 ADD MSTORE PUSH2 0x32CF DUP2 PUSH2 0x3293 JUMP JUMPDEST SWAP1 POP SWAP2 SWAP1 POP JUMP JUMPDEST PUSH32 0x496E76616C696420616464726573730000000000000000000000000000000000 PUSH1 0x0 DUP3 ADD MSTORE POP JUMP JUMPDEST PUSH1 0x0 PUSH2 0x330C PUSH1 0xF DUP4 PUSH2 0x2D75 JUMP JUMPDEST SWAP2 POP PUSH2 0x3317 DUP3 PUSH2 0x32D6 JUMP JUMPDEST PUSH1 0x20 DUP3 ADD SWAP1 POP SWAP2 SWAP1 POP JUMP JUMPDEST PUSH1 0x0 PUSH1 0x20 DUP3 ADD SWAP1 POP DUP2 DUP2 SUB PUSH1 0x0 DUP4 ADD MSTORE PUSH2 0x333B DUP2 PUSH2 0x32FF JUMP JUMPDEST SWAP1 POP SWAP2 SWAP1 POP JUMP JUMPDEST PUSH32 0x7072696365206E65656420657175616C206C697374696E672070726963650000 PUSH1 0x0 DUP3 ADD MSTORE POP JUMP JUMPDEST PUSH1 0x0 PUSH2 0x3378 PUSH1 0x1E DUP4 PUSH2 0x2D75 JUMP JUMPDEST SWAP2 POP PUSH2 0x3383 DUP3 PUSH2 0x3342 JUMP JUMPDEST PUSH1 0x20 DUP3 ADD SWAP1 POP SWAP2 SWAP1 POP JUMP JUMPDEST PUSH1 0x0 PUSH1 0x20 DUP3 ADD SWAP1 POP DUP2 DUP2 SUB PUSH1 0x0 DUP4 ADD MSTORE PUSH2 0x33A7 DUP2 PUSH2 0x336B JUMP JUMPDEST SWAP1 POP SWAP2 SWAP1 POP JUMP JUMPDEST PUSH1 0x0 PUSH2 0x33B9 DUP3 PUSH2 0x25EE JUMP JUMPDEST SWAP2 POP PUSH2 0x33C4 DUP4 PUSH2 0x25EE JUMP JUMPDEST SWAP3 POP DUP2 PUSH32 0xFFFFFFFFFFFFFFFFFFFFFFFFFFFFFFFFFFFFFFFFFFFFFFFFFFFFFFFFFFFFFFFF DIV DUP4 GT DUP3 ISZERO ISZERO AND ISZERO PUSH2 0x33FD JUMPI PUSH2 0x33FC PUSH2 0x2C16 JUMP JUMPDEST JUMPDEST DUP3 DUP3 MUL SWAP1 POP SWAP3 SWAP2 POP POP JUMP JUMPDEST PUSH32 0x4E487B7100000000000000000000000000000000000000000000000000000000 PUSH1 0x0 MSTORE PUSH1 0x12 PUSH1 0x4 MSTORE PUSH1 0x24 PUSH1 0x0 REVERT JUMPDEST PUSH1 0x0 PUSH2 0x3442 DUP3 PUSH2 0x25EE JUMP JUMPDEST SWAP2 POP PUSH2 0x344D DUP4 PUSH2 0x25EE JUMP JUMPDEST SWAP3 POP DUP3 PUSH2 0x345D JUMPI PUSH2 0x345C PUSH2 0x3408 JUMP JUMPDEST JUMPDEST DUP3 DUP3 DIV SWAP1 POP SWAP3 SWAP2 POP POP JUMP JUMPDEST PUSH1 0x0 DUP2 ISZERO ISZERO SWAP1 POP SWAP2 SWAP1 POP JUMP JUMPDEST PUSH2 0x347D DUP2 PUSH2 0x3468 JUMP JUMPDEST DUP2 EQ PUSH2 0x3488 JUMPI PUSH1 0x0 DUP1 REVERT JUMPDEST POP JUMP JUMPDEST PUSH1 0x0 DUP2 MLOAD SWAP1 POP PUSH2 0x349A DUP2 PUSH2 0x3474 JUMP JUMPDEST SWAP3 SWAP2 POP POP JUMP JUMPDEST PUSH1 0x0 PUSH1 0x20 DUP3 DUP5 SUB SLT ISZERO PUSH2 0x34B6 JUMPI PUSH2 0x34B5 PUSH2 0x2803 JUMP JUMPDEST JUMPDEST PUSH1 0x0 PUSH2 0x34C4 DUP5 DUP3 DUP6 ADD PUSH2 0x348B JUMP JUMPDEST SWAP2 POP POP SWAP3 SWAP2 POP POP JUMP JUMPDEST PUSH32 0x414E544100000000000000000000000000000000000000000000000000000000 PUSH1 0x0 DUP3 ADD MSTORE POP JUMP JUMPDEST PUSH1 0x0 PUSH2 0x3503 PUSH1 0x4 DUP4 PUSH2 0x2D75 JUMP JUMPDEST SWAP2 POP PUSH2 0x350E DUP3 PUSH2 0x34CD JUMP JUMPDEST PUSH1 0x20 DUP3 ADD SWAP1 POP SWAP2 SWAP1 POP JUMP JUMPDEST PUSH1 0x0 PUSH1 0xE0 DUP3 ADD SWAP1 POP PUSH2 0x352E PUSH1 0x0 DUP4 ADD DUP10 PUSH2 0x29D6 JUMP JUMPDEST PUSH2 0x353B PUSH1 0x20 DUP4 ADD DUP9 PUSH2 0x2AB0 JUMP JUMPDEST PUSH2 0x3548 PUSH1 0x40 DUP4 ADD DUP8 PUSH2 0x29E5 JUMP JUMPDEST PUSH2 0x3555 PUSH1 0x60 DUP4 ADD DUP7 PUSH2 0x2BA4 JUMP JUMPDEST PUSH2 0x3562 PUSH1 0x80 DUP4 ADD DUP6 PUSH2 0x29E5 JUMP JUMPDEST DUP2 DUP2 SUB PUSH1 0xA0 DUP4 ADD MSTORE PUSH2 0x3573 DUP2 PUSH2 0x34F6 JUMP JUMPDEST SWAP1 POP PUSH2 0x3582 PUSH1 0xC0 DUP4 ADD DUP5 PUSH2 0x29E5 JUMP JUMPDEST SWAP8 SWAP7 POP POP POP POP POP POP POP JUMP JUMPDEST PUSH32 0x4F776E61626C653A206E6577206F776E657220697320746865207A65726F2061 PUSH1 0x0 DUP3 ADD MSTORE PUSH32 0x6464726573730000000000000000000000000000000000000000000000000000 PUSH1 0x20 DUP3 ADD MSTORE POP JUMP JUMPDEST PUSH1 0x0 PUSH2 0x35E9 PUSH1 0x26 DUP4 PUSH2 0x2D75 JUMP JUMPDEST SWAP2 POP PUSH2 0x35F4 DUP3 PUSH2 0x358D JUMP JUMPDEST PUSH1 0x40 DUP3 ADD SWAP1 POP SWAP2 SWAP1 POP JUMP JUMPDEST PUSH1 0x0 PUSH1 0x20 DUP3 ADD SWAP1 POP DUP2 DUP2 SUB PUSH1 0x0 DUP4 ADD MSTORE PUSH2 0x3618 DUP2 PUSH2 0x35DC JUMP JUMPDEST SWAP1 POP SWAP2 SWAP1 POP JUMP JUMPDEST PUSH32 0x546865204E465420416464726573732073686F756C64206265206120636F6E74 PUSH1 0x0 DUP3 ADD MSTORE PUSH32 0x7261637400000000000000000000000000000000000000000000000000000000 PUSH1 0x20 DUP3 ADD MSTORE POP JUMP JUMPDEST PUSH1 0x0 PUSH2 0x367B PUSH1 0x24 DUP4 PUSH2 0x2D75 JUMP JUMPDEST SWAP2 POP PUSH2 0x3686 DUP3 PUSH2 0x361F JUMP JUMPDEST PUSH1 0x40 DUP3 ADD SWAP1 POP SWAP2 SWAP1 POP JUMP JUMPDEST PUSH1 0x0 PUSH1 0x20 DUP3 ADD SWAP1 POP DUP2 DUP2 SUB PUSH1 0x0 DUP4 ADD MSTORE PUSH2 0x36AA DUP2 PUSH2 0x366E JUMP JUMPDEST SWAP1 POP SWAP2 SWAP1 POP JUMP JUMPDEST PUSH32 0x546865204E465420636F6E74726163742068617320616E20696E76616C696420 PUSH1 0x0 DUP3 ADD MSTORE PUSH32 0x45524337323120696D706C656D656E746174696F6E0000000000000000000000 PUSH1 0x20 DUP3 ADD MSTORE POP JUMP JUMPDEST PUSH1 0x0 PUSH2 0x370D PUSH1 0x35 DUP4 PUSH2 0x2D75 JUMP JUMPDEST SWAP2 POP PUSH2 0x3718 DUP3 PUSH2 0x36B1 JUMP JUMPDEST PUSH1 0x40 DUP3 ADD SWAP1 POP SWAP2 SWAP1 POP JUMP JUMPDEST PUSH1 0x0 PUSH1 0x20 DUP3 ADD SWAP1 POP DUP2 DUP2 SUB PUSH1 0x0 DUP4 ADD MSTORE PUSH2 0x373C DUP2 PUSH2 0x3700 JUMP JUMPDEST SWAP1 POP SWAP2 SWAP1 POP JUMP JUMPDEST PUSH1 0x0 DUP2 SWAP1 POP SWAP2 SWAP1 POP JUMP JUMPDEST PUSH2 0x375E PUSH2 0x3759 DUP3 PUSH2 0x25EE JUMP JUMPDEST PUSH2 0x3743 JUMP JUMPDEST DUP3 MSTORE POP POP JUMP JUMPDEST PUSH1 0x0 DUP2 PUSH1 0x60 SHL SWAP1 POP SWAP2 SWAP1 POP JUMP JUMPDEST PUSH1 0x0 PUSH2 0x377C DUP3 PUSH2 0x3764 JUMP JUMPDEST SWAP1 POP SWAP2 SWAP1 POP JUMP JUMPDEST PUSH1 0x0 PUSH2 0x378E DUP3 PUSH2 0x3771 JUMP JUMPDEST SWAP1 POP SWAP2 SWAP1 POP JUMP JUMPDEST PUSH2 0x37A6 PUSH2 0x37A1 DUP3 PUSH2 0x2627 JUMP JUMPDEST PUSH2 0x3783 JUMP JUMPDEST DUP3 MSTORE POP POP JUMP JUMPDEST PUSH1 0x0 PUSH2 0x37B8 DUP3 DUP9 PUSH2 0x374D JUMP JUMPDEST PUSH1 0x20 DUP3 ADD SWAP2 POP PUSH2 0x37C8 DUP3 DUP8 PUSH2 0x3795 JUMP JUMPDEST PUSH1 0x14 DUP3 ADD SWAP2 POP PUSH2 0x37D8 DUP3 DUP7 PUSH2 0x374D JUMP JUMPDEST PUSH1 0x20 DUP3 ADD SWAP2 POP PUSH2 0x37E8 DUP3 DUP6 PUSH2 0x3795 JUMP JUMPDEST PUSH1 0x14 DUP3 ADD SWAP2 POP PUSH2 0x37F8 DUP3 DUP5 PUSH2 0x374D JUMP JUMPDEST PUSH1 0x20 DUP3 ADD SWAP2 POP DUP2 SWAP1 POP SWAP7 SWAP6 POP POP POP POP POP POP JUMP INVALID LOG2 PUSH5 0x6970667358 0x22 SLT KECCAK256 0x5E 0xD1 0xA7 SWAP15 PUSH27 0x83C0647547EE21853FC1089221F7B1D4ACC91B1F7E21D43D024FAA PUSH5 0x736F6C6343 STOP ADDMOD 0xD STOP CALLER "
				},
				"gasEstimates": {
					"creation": {
						"codeDepositCost": "2880200",
						"executionCost": "infinite",
						"totalCost": "infinite"
					},
					"external": {
						"ERC721_Interface()": "364",
						"antaFeePercent()": "2543",
						"bnbFeePercent()": "2566",
						"buyItemBySQF(address,uint256,uint256)": "infinite",
						"createMarketItem(address,uint256,uint256)": "infinite",
						"createMarketSale(address,uint256)": "infinite",
						"fetchMarketItem(uint256)": "infinite",
						"fetchMarketItems()": "infinite",
						"fetchMyNFTs()": "infinite",
						"getMarketItem(uint256)": "infinite",
						"itemOffers(address,uint256,address)": "infinite",
						"items(address,uint256)": "infinite",
						"owner()": "2589",
						"renounceOwnership()": "30397",
						"sellItem(address,uint256,uint256)": "infinite",
						"setSQFToken(address)": "27051",
						"sqfToken()": "infinite",
						"transferOwnership(address)": "30830"
					},
					"internal": {
						"_createItem(address,uint256,address,uint256,uint256)": "infinite",
						"_requireERC721(address)": "infinite",
						"isContract(address)": "2653"
					}
				},
				"methodIdentifiers": {
					"ERC721_Interface()": "2b4c32be",
					"antaFeePercent()": "b7a60c7e",
					"bnbFeePercent()": "85a8b36c",
					"buyItemBySQF(address,uint256,uint256)": "f01b52dc",
					"createMarketItem(address,uint256,uint256)": "58eb2df5",
					"createMarketSale(address,uint256)": "c23b139e",
					"fetchMarketItem(uint256)": "2a45b250",
					"fetchMarketItems()": "0f08efe0",
					"fetchMyNFTs()": "202e3740",
					"getMarketItem(uint256)": "c7be7a49",
					"itemOffers(address,uint256,address)": "49739678",
					"items(address,uint256)": "5c80a435",
					"owner()": "8da5cb5b",
					"renounceOwnership()": "715018a6",
					"sellItem(address,uint256,uint256)": "68915327",
					"setSQFToken(address)": "92bf77dd",
					"sqfToken()": "15b81dc3",
					"transferOwnership(address)": "f2fde38b"
				}
			},
			"storageLayout": {
				"storage": [
					{
						"astId": 409,
						"contract": "contracts/Marketplace2/Marketplace.sol:NFTMarket",
						"label": "_status",
						"offset": 0,
						"slot": "0",
						"type": "t_uint256"
					},
					{
						"astId": 477,
						"contract": "contracts/Marketplace2/Marketplace.sol:NFTMarket",
						"label": "items",
						"offset": 0,
						"slot": "1",
						"type": "t_mapping(t_address,t_mapping(t_uint256,t_struct(Item)459_storage))"
					},
					{
						"astId": 486,
						"contract": "contracts/Marketplace2/Marketplace.sol:NFTMarket",
						"label": "itemOffers",
						"offset": 0,
						"slot": "2",
						"type": "t_mapping(t_address,t_mapping(t_uint256,t_mapping(t_address,t_struct(ItemOffer)464_storage)))"
					},
					{
						"astId": 489,
						"contract": "contracts/Marketplace2/Marketplace.sol:NFTMarket",
						"label": "sqfToken",
						"offset": 0,
						"slot": "3",
						"type": "t_contract(IERC20)201"
					},
					{
						"astId": 491,
						"contract": "contracts/Marketplace2/Marketplace.sol:NFTMarket",
						"label": "bnbFeePercent",
						"offset": 20,
						"slot": "3",
						"type": "t_uint8"
					},
					{
						"astId": 493,
						"contract": "contracts/Marketplace2/Marketplace.sol:NFTMarket",
						"label": "antaFeePercent",
						"offset": 21,
						"slot": "3",
						"type": "t_uint8"
					},
					{
						"astId": 27,
						"contract": "contracts/Marketplace2/Marketplace.sol:NFTMarket",
						"label": "_owner",
						"offset": 0,
						"slot": "4",
						"type": "t_address"
					},
					{
						"astId": 563,
						"contract": "contracts/Marketplace2/Marketplace.sol:NFTMarket",
						"label": "_itemIds",
						"offset": 0,
						"slot": "5",
						"type": "t_struct(Counter)331_storage"
					},
					{
						"astId": 566,
						"contract": "contracts/Marketplace2/Marketplace.sol:NFTMarket",
						"label": "_itemsSold",
						"offset": 0,
						"slot": "6",
						"type": "t_struct(Counter)331_storage"
					},
					{
						"astId": 584,
						"contract": "contracts/Marketplace2/Marketplace.sol:NFTMarket",
						"label": "idToMarketItem",
						"offset": 0,
						"slot": "7",
						"type": "t_mapping(t_uint256,t_struct(MarketItem)579_storage)"
					}
				],
				"types": {
					"t_address": {
						"encoding": "inplace",
						"label": "address",
						"numberOfBytes": "20"
					},
					"t_address_payable": {
						"encoding": "inplace",
						"label": "address payable",
						"numberOfBytes": "20"
					},
					"t_bytes32": {
						"encoding": "inplace",
						"label": "bytes32",
						"numberOfBytes": "32"
					},
					"t_contract(IERC20)201": {
						"encoding": "inplace",
						"label": "contract IERC20",
						"numberOfBytes": "20"
					},
					"t_enum(ItemStatus)445": {
						"encoding": "inplace",
						"label": "enum MarketplaceStorage.ItemStatus",
						"numberOfBytes": "1"
					},
					"t_mapping(t_address,t_mapping(t_uint256,t_mapping(t_address,t_struct(ItemOffer)464_storage)))": {
						"encoding": "mapping",
						"key": "t_address",
						"label": "mapping(address => mapping(uint256 => mapping(address => struct MarketplaceStorage.ItemOffer)))",
						"numberOfBytes": "32",
						"value": "t_mapping(t_uint256,t_mapping(t_address,t_struct(ItemOffer)464_storage))"
					},
					"t_mapping(t_address,t_mapping(t_uint256,t_struct(Item)459_storage))": {
						"encoding": "mapping",
						"key": "t_address",
						"label": "mapping(address => mapping(uint256 => struct MarketplaceStorage.Item))",
						"numberOfBytes": "32",
						"value": "t_mapping(t_uint256,t_struct(Item)459_storage)"
					},
					"t_mapping(t_address,t_struct(ItemOffer)464_storage)": {
						"encoding": "mapping",
						"key": "t_address",
						"label": "mapping(address => struct MarketplaceStorage.ItemOffer)",
						"numberOfBytes": "32",
						"value": "t_struct(ItemOffer)464_storage"
					},
					"t_mapping(t_uint256,t_mapping(t_address,t_struct(ItemOffer)464_storage))": {
						"encoding": "mapping",
						"key": "t_uint256",
						"label": "mapping(uint256 => mapping(address => struct MarketplaceStorage.ItemOffer))",
						"numberOfBytes": "32",
						"value": "t_mapping(t_address,t_struct(ItemOffer)464_storage)"
					},
					"t_mapping(t_uint256,t_struct(Item)459_storage)": {
						"encoding": "mapping",
						"key": "t_uint256",
						"label": "mapping(uint256 => struct MarketplaceStorage.Item)",
						"numberOfBytes": "32",
						"value": "t_struct(Item)459_storage"
					},
					"t_mapping(t_uint256,t_struct(MarketItem)579_storage)": {
						"encoding": "mapping",
						"key": "t_uint256",
						"label": "mapping(uint256 => struct NFTMarket.MarketItem)",
						"numberOfBytes": "32",
						"value": "t_struct(MarketItem)579_storage"
					},
					"t_struct(Counter)331_storage": {
						"encoding": "inplace",
						"label": "struct Counters.Counter",
						"members": [
							{
								"astId": 330,
								"contract": "contracts/Marketplace2/Marketplace.sol:NFTMarket",
								"label": "_value",
								"offset": 0,
								"slot": "0",
								"type": "t_uint256"
							}
						],
						"numberOfBytes": "32"
					},
					"t_struct(Item)459_storage": {
						"encoding": "inplace",
						"label": "struct MarketplaceStorage.Item",
						"members": [
							{
								"astId": 447,
								"contract": "contracts/Marketplace2/Marketplace.sol:NFTMarket",
								"label": "id",
								"offset": 0,
								"slot": "0",
								"type": "t_bytes32"
							},
							{
								"astId": 449,
								"contract": "contracts/Marketplace2/Marketplace.sol:NFTMarket",
								"label": "seller",
								"offset": 0,
								"slot": "1",
								"type": "t_address"
							},
							{
								"astId": 451,
								"contract": "contracts/Marketplace2/Marketplace.sol:NFTMarket",
								"label": "nftAddress",
								"offset": 0,
								"slot": "2",
								"type": "t_address"
							},
							{
								"astId": 453,
								"contract": "contracts/Marketplace2/Marketplace.sol:NFTMarket",
								"label": "price",
								"offset": 0,
								"slot": "3",
								"type": "t_uint256"
							},
							{
								"astId": 455,
								"contract": "contracts/Marketplace2/Marketplace.sol:NFTMarket",
								"label": "priceAnta",
								"offset": 0,
								"slot": "4",
								"type": "t_uint256"
							},
							{
								"astId": 458,
								"contract": "contracts/Marketplace2/Marketplace.sol:NFTMarket",
								"label": "status",
								"offset": 0,
								"slot": "5",
								"type": "t_enum(ItemStatus)445"
							}
						],
						"numberOfBytes": "192"
					},
					"t_struct(ItemOffer)464_storage": {
						"encoding": "inplace",
						"label": "struct MarketplaceStorage.ItemOffer",
						"members": [
							{
								"astId": 461,
								"contract": "contracts/Marketplace2/Marketplace.sol:NFTMarket",
								"label": "id",
								"offset": 0,
								"slot": "0",
								"type": "t_bytes32"
							},
							{
								"astId": 463,
								"contract": "contracts/Marketplace2/Marketplace.sol:NFTMarket",
								"label": "offerPrice",
								"offset": 0,
								"slot": "1",
								"type": "t_uint256"
							}
						],
						"numberOfBytes": "64"
					},
					"t_struct(MarketItem)579_storage": {
						"encoding": "inplace",
						"label": "struct NFTMarket.MarketItem",
						"members": [
							{
								"astId": 568,
								"contract": "contracts/Marketplace2/Marketplace.sol:NFTMarket",
								"label": "itemId",
								"offset": 0,
								"slot": "0",
								"type": "t_uint256"
							},
							{
								"astId": 570,
								"contract": "contracts/Marketplace2/Marketplace.sol:NFTMarket",
								"label": "nftContract",
								"offset": 0,
								"slot": "1",
								"type": "t_address"
							},
							{
								"astId": 572,
								"contract": "contracts/Marketplace2/Marketplace.sol:NFTMarket",
								"label": "tokenId",
								"offset": 0,
								"slot": "2",
								"type": "t_uint256"
							},
							{
								"astId": 574,
								"contract": "contracts/Marketplace2/Marketplace.sol:NFTMarket",
								"label": "seller",
								"offset": 0,
								"slot": "3",
								"type": "t_address_payable"
							},
							{
								"astId": 576,
								"contract": "contracts/Marketplace2/Marketplace.sol:NFTMarket",
								"label": "owner",
								"offset": 0,
								"slot": "4",
								"type": "t_address_payable"
							},
							{
								"astId": 578,
								"contract": "contracts/Marketplace2/Marketplace.sol:NFTMarket",
								"label": "price",
								"offset": 0,
								"slot": "5",
								"type": "t_uint256"
							}
						],
						"numberOfBytes": "192"
					},
					"t_uint256": {
						"encoding": "inplace",
						"label": "uint256",
						"numberOfBytes": "32"
					},
					"t_uint8": {
						"encoding": "inplace",
						"label": "uint8",
						"numberOfBytes": "1"
					}
				}
			},
			"userdoc": {
				"kind": "user",
				"methods": {},
				"version": 1
			}
		}
	}
}