{
	"contracts/Marketplace2/Marketplace.sol": {
		"NFTMarket": {
			"abi": [
				{
					"inputs": [
						{
							"internalType": "address",
							"name": "_mainToken",
							"type": "address"
						},
						{
							"internalType": "address",
							"name": "_mainNFT",
							"type": "address"
						},
						{
							"internalType": "address",
							"name": "_mainFactory",
							"type": "address"
						}
					],
					"stateMutability": "nonpayable",
					"type": "constructor"
				},
				{
					"anonymous": false,
					"inputs": [
						{
							"indexed": false,
							"internalType": "uint256",
							"name": "itemId",
							"type": "uint256"
						},
						{
							"indexed": true,
							"internalType": "uint256",
							"name": "tokenId",
							"type": "uint256"
						},
						{
							"indexed": true,
							"internalType": "address",
							"name": "seller",
							"type": "address"
						},
						{
							"indexed": false,
							"internalType": "uint256",
							"name": "price",
							"type": "uint256"
						},
						{
							"indexed": true,
							"internalType": "address",
							"name": "buyer",
							"type": "address"
						},
						{
							"indexed": false,
							"internalType": "string",
							"name": "currency",
							"type": "string"
						},
						{
							"indexed": false,
							"internalType": "uint256",
							"name": "createdAt",
							"type": "uint256"
						}
					],
					"name": "BuyItemSuccessful",
					"type": "event"
				},
				{
					"anonymous": false,
					"inputs": [
						{
							"indexed": false,
							"internalType": "uint256",
							"name": "id",
							"type": "uint256"
						},
						{
							"indexed": true,
							"internalType": "uint256",
							"name": "assetId",
							"type": "uint256"
						},
						{
							"indexed": true,
							"internalType": "address",
							"name": "delistBy",
							"type": "address"
						},
						{
							"indexed": false,
							"internalType": "uint256",
							"name": "createdAt",
							"type": "uint256"
						}
					],
					"name": "DelistItemSuccessful",
					"type": "event"
				},
				{
					"anonymous": false,
					"inputs": [
						{
							"indexed": true,
							"internalType": "uint256",
							"name": "itemId",
							"type": "uint256"
						},
						{
							"indexed": true,
							"internalType": "uint256",
							"name": "tokenId",
							"type": "uint256"
						},
						{
							"indexed": false,
							"internalType": "address",
							"name": "seller",
							"type": "address"
						},
						{
							"indexed": false,
							"internalType": "address",
							"name": "owner",
							"type": "address"
						},
						{
							"indexed": false,
							"internalType": "uint256",
							"name": "price",
							"type": "uint256"
						}
					],
					"name": "MarketItemCreated",
					"type": "event"
				},
				{
					"anonymous": false,
					"inputs": [
						{
							"indexed": true,
							"internalType": "address",
							"name": "previousOwner",
							"type": "address"
						},
						{
							"indexed": true,
							"internalType": "address",
							"name": "newOwner",
							"type": "address"
						}
					],
					"name": "OwnershipTransferred",
					"type": "event"
				},
				{
					"anonymous": false,
					"inputs": [
						{
							"indexed": false,
							"internalType": "address",
							"name": "nftAddress",
							"type": "address"
						},
						{
							"indexed": false,
							"internalType": "bytes32",
							"name": "id",
							"type": "bytes32"
						},
						{
							"indexed": true,
							"internalType": "uint256",
							"name": "assetId",
							"type": "uint256"
						},
						{
							"indexed": false,
							"internalType": "uint256",
							"name": "price",
							"type": "uint256"
						},
						{
							"indexed": true,
							"internalType": "address",
							"name": "seller",
							"type": "address"
						},
						{
							"indexed": false,
							"internalType": "string",
							"name": "currency",
							"type": "string"
						},
						{
							"indexed": false,
							"internalType": "uint256",
							"name": "createdAt",
							"type": "uint256"
						}
					],
					"name": "SellItemSuccessful",
					"type": "event"
				},
				{
					"inputs": [],
					"name": "ERC721_Interface",
					"outputs": [
						{
							"internalType": "bytes4",
							"name": "",
							"type": "bytes4"
						}
					],
					"stateMutability": "view",
					"type": "function"
				},
				{
					"inputs": [
						{
							"internalType": "uint256",
							"name": "",
							"type": "uint256"
						}
					],
					"name": "allItems",
					"outputs": [
						{
							"internalType": "uint256",
							"name": "itemId",
							"type": "uint256"
						},
						{
							"internalType": "uint256",
							"name": "tokenId",
							"type": "uint256"
						},
						{
							"internalType": "address",
							"name": "seller",
							"type": "address"
						},
						{
							"internalType": "address",
							"name": "owner",
							"type": "address"
						},
						{
							"internalType": "uint256",
							"name": "price",
							"type": "uint256"
						},
						{
							"internalType": "enum MarketplaceStorage.ItemStatus",
							"name": "status",
							"type": "uint8"
						}
					],
					"stateMutability": "view",
					"type": "function"
				},
				{
					"inputs": [],
					"name": "allMarketItems",
					"outputs": [
						{
							"internalType": "uint256",
							"name": "itemId",
							"type": "uint256"
						},
						{
							"internalType": "uint256",
							"name": "tokenId",
							"type": "uint256"
						},
						{
							"internalType": "address",
							"name": "seller",
							"type": "address"
						},
						{
							"internalType": "address",
							"name": "owner",
							"type": "address"
						},
						{
							"internalType": "uint256",
							"name": "price",
							"type": "uint256"
						},
						{
							"internalType": "enum MarketplaceStorage.ItemStatus",
							"name": "status",
							"type": "uint8"
						}
					],
					"stateMutability": "view",
					"type": "function"
				},
				{
					"inputs": [],
					"name": "antaFeePercent",
					"outputs": [
						{
							"internalType": "uint8",
							"name": "",
							"type": "uint8"
						}
					],
					"stateMutability": "view",
					"type": "function"
				},
				{
					"inputs": [],
					"name": "bnbFeePercent",
					"outputs": [
						{
							"internalType": "uint8",
							"name": "",
							"type": "uint8"
						}
					],
					"stateMutability": "view",
					"type": "function"
				},
				{
					"inputs": [
						{
							"internalType": "uint256",
							"name": "tokenId",
							"type": "uint256"
						},
						{
							"internalType": "uint256",
							"name": "price",
							"type": "uint256"
						}
					],
					"name": "createMarketItem",
					"outputs": [],
					"stateMutability": "nonpayable",
					"type": "function"
				},
				{
					"inputs": [
						{
							"internalType": "uint256",
							"name": "itemId",
							"type": "uint256"
						},
						{
							"internalType": "uint256",
							"name": "amount",
							"type": "uint256"
						}
					],
					"name": "createMarketSale",
					"outputs": [],
					"stateMutability": "nonpayable",
					"type": "function"
				},
				{
					"inputs": [],
					"name": "currentId",
					"outputs": [
						{
							"internalType": "uint256",
							"name": "",
							"type": "uint256"
						}
					],
					"stateMutability": "view",
					"type": "function"
				},
				{
					"inputs": [
						{
							"internalType": "uint256",
							"name": "itemId",
							"type": "uint256"
						}
					],
					"name": "delistItem",
					"outputs": [],
					"stateMutability": "nonpayable",
					"type": "function"
				},
				{
					"inputs": [],
					"name": "factory",
					"outputs": [
						{
							"internalType": "contract IFactory",
							"name": "",
							"type": "address"
						}
					],
					"stateMutability": "view",
					"type": "function"
				},
				{
					"inputs": [
						{
							"internalType": "uint256",
							"name": "itemId",
							"type": "uint256"
						}
					],
					"name": "fetchMarketItem",
					"outputs": [
						{
							"components": [
								{
									"internalType": "uint256",
									"name": "itemId",
									"type": "uint256"
								},
								{
									"internalType": "uint256",
									"name": "tokenId",
									"type": "uint256"
								},
								{
									"internalType": "address",
									"name": "seller",
									"type": "address"
								},
								{
									"internalType": "address",
									"name": "owner",
									"type": "address"
								},
								{
									"internalType": "uint256",
									"name": "price",
									"type": "uint256"
								},
								{
									"internalType": "enum MarketplaceStorage.ItemStatus",
									"name": "status",
									"type": "uint8"
								}
							],
							"internalType": "struct MarketplaceStorage.MarketItem",
							"name": "",
							"type": "tuple"
						}
					],
					"stateMutability": "view",
					"type": "function"
				},
				{
					"inputs": [],
					"name": "fetchMarketItems",
					"outputs": [
						{
							"components": [
								{
									"internalType": "uint256",
									"name": "itemId",
									"type": "uint256"
								},
								{
									"internalType": "uint256",
									"name": "tokenId",
									"type": "uint256"
								},
								{
									"internalType": "address",
									"name": "seller",
									"type": "address"
								},
								{
									"internalType": "address",
									"name": "owner",
									"type": "address"
								},
								{
									"internalType": "uint256",
									"name": "price",
									"type": "uint256"
								},
								{
									"internalType": "enum MarketplaceStorage.ItemStatus",
									"name": "status",
									"type": "uint8"
								}
							],
							"internalType": "struct MarketplaceStorage.MarketItem",
							"name": "",
							"type": "tuple"
						}
					],
					"stateMutability": "view",
					"type": "function"
				},
				{
					"inputs": [],
					"name": "fetchMySelling",
					"outputs": [
						{
							"components": [
								{
									"internalType": "uint256",
									"name": "itemId",
									"type": "uint256"
								},
								{
									"internalType": "uint256",
									"name": "tokenId",
									"type": "uint256"
								},
								{
									"internalType": "address",
									"name": "seller",
									"type": "address"
								},
								{
									"internalType": "address",
									"name": "owner",
									"type": "address"
								},
								{
									"internalType": "uint256",
									"name": "price",
									"type": "uint256"
								},
								{
									"internalType": "enum MarketplaceStorage.ItemStatus",
									"name": "status",
									"type": "uint8"
								}
							],
							"internalType": "struct MarketplaceStorage.MarketItem[]",
							"name": "",
							"type": "tuple[]"
						}
					],
					"stateMutability": "view",
					"type": "function"
				},
				{
					"inputs": [
						{
							"internalType": "uint256",
							"name": "tokenId",
							"type": "uint256"
						}
					],
					"name": "getIngameItem",
					"outputs": [
						{
							"components": [
								{
									"internalType": "uint256",
									"name": "id",
									"type": "uint256"
								},
								{
									"internalType": "address",
									"name": "owner",
									"type": "address"
								},
								{
									"internalType": "string",
									"name": "itemId",
									"type": "string"
								},
								{
									"internalType": "string",
									"name": "externalId",
									"type": "string"
								},
								{
									"internalType": "bool",
									"name": "ingame",
									"type": "bool"
								}
							],
							"internalType": "struct IFactory.ingameItems",
							"name": "",
							"type": "tuple"
						}
					],
					"stateMutability": "view",
					"type": "function"
				},
				{
					"inputs": [
						{
							"internalType": "uint256",
							"name": "marketItemId",
							"type": "uint256"
						}
					],
					"name": "getMarketItem",
					"outputs": [
						{
							"components": [
								{
									"internalType": "uint256",
									"name": "itemId",
									"type": "uint256"
								},
								{
									"internalType": "uint256",
									"name": "tokenId",
									"type": "uint256"
								},
								{
									"internalType": "address",
									"name": "seller",
									"type": "address"
								},
								{
									"internalType": "address",
									"name": "owner",
									"type": "address"
								},
								{
									"internalType": "uint256",
									"name": "price",
									"type": "uint256"
								},
								{
									"internalType": "enum MarketplaceStorage.ItemStatus",
									"name": "status",
									"type": "uint8"
								}
							],
							"internalType": "struct MarketplaceStorage.MarketItem",
							"name": "",
							"type": "tuple"
						}
					],
					"stateMutability": "view",
					"type": "function"
				},
				{
					"inputs": [
						{
							"internalType": "address",
							"name": "",
							"type": "address"
						},
						{
							"internalType": "uint256",
							"name": "",
							"type": "uint256"
						}
					],
					"name": "items",
					"outputs": [
						{
							"internalType": "uint256",
							"name": "itemId",
							"type": "uint256"
						},
						{
							"internalType": "uint256",
							"name": "tokenId",
							"type": "uint256"
						},
						{
							"internalType": "address",
							"name": "seller",
							"type": "address"
						},
						{
							"internalType": "address",
							"name": "owner",
							"type": "address"
						},
						{
							"internalType": "uint256",
							"name": "price",
							"type": "uint256"
						},
						{
							"internalType": "enum MarketplaceStorage.ItemStatus",
							"name": "status",
							"type": "uint8"
						}
					],
					"stateMutability": "view",
					"type": "function"
				},
				{
					"inputs": [],
					"name": "mainNFTs",
					"outputs": [
						{
							"internalType": "contract IERC721",
							"name": "",
							"type": "address"
						}
					],
					"stateMutability": "view",
					"type": "function"
				},
				{
					"inputs": [],
					"name": "mainToken",
					"outputs": [
						{
							"internalType": "contract IERC20",
							"name": "",
							"type": "address"
						}
					],
					"stateMutability": "view",
					"type": "function"
				},
				{
					"inputs": [],
					"name": "owner",
					"outputs": [
						{
							"internalType": "address",
							"name": "",
							"type": "address"
						}
					],
					"stateMutability": "view",
					"type": "function"
				},
				{
					"inputs": [],
					"name": "renounceOwnership",
					"outputs": [],
					"stateMutability": "nonpayable",
					"type": "function"
				},
				{
					"inputs": [
						{
							"internalType": "address",
							"name": "_address",
							"type": "address"
						}
					],
					"name": "setFactory",
					"outputs": [],
					"stateMutability": "nonpayable",
					"type": "function"
				},
				{
					"inputs": [
						{
							"internalType": "address",
							"name": "_address",
							"type": "address"
						}
					],
					"name": "setMainNFT",
					"outputs": [],
					"stateMutability": "nonpayable",
					"type": "function"
				},
				{
					"inputs": [
						{
							"internalType": "address",
							"name": "_address",
							"type": "address"
						}
					],
					"name": "setMainToken",
					"outputs": [],
					"stateMutability": "nonpayable",
					"type": "function"
				},
				{
					"inputs": [
						{
							"internalType": "address",
							"name": "newOwner",
							"type": "address"
						}
					],
					"name": "transferOwnership",
					"outputs": [],
					"stateMutability": "nonpayable",
					"type": "function"
				}
			],
			"devdoc": {
				"kind": "dev",
				"methods": {
					"owner()": {
						"details": "Returns the address of the current owner."
					},
					"renounceOwnership()": {
						"details": "Leaves the contract without owner. It will not be possible to call `onlyOwner` functions anymore. Can only be called by the current owner. NOTE: Renouncing ownership will leave the contract without an owner, thereby removing any functionality that is only available to the owner."
					},
					"transferOwnership(address)": {
						"details": "Transfers ownership of the contract to a new account (`newOwner`). Can only be called by the current owner."
					}
				},
				"version": 1
			},
			"evm": {
				"assembly": "    /* \"contracts/Marketplace2/Marketplace.sol\":17107:24705  contract NFTMarket is ReentrancyGuard,MarketplaceStorage, Ownable {... */\n  mstore(0x40, 0x80)\n    /* \"contracts/Marketplace2/Marketplace.sol\":17353:17547  constructor(address _mainToken, address _mainNFT, address _mainFactory ) {... */\n  callvalue\n  dup1\n  iszero\n  tag_1\n  jumpi\n  0x00\n  dup1\n  revert\ntag_1:\n  pop\n  mload(0x40)\n  sub(codesize, bytecodeSize)\n  dup1\n  bytecodeSize\n  dup4\n  codecopy\n  dup2\n  dup2\n  add\n  0x40\n  mstore\n  dup2\n  add\n  swap1\n  tag_2\n  swap2\n  swap1\n  tag_3\n  jump\t// in\ntag_2:\n    /* \"contracts/Marketplace2/Marketplace.sol\":14122:14123  1 */\n  0x01\n    /* \"contracts/Marketplace2/Marketplace.sol\":14227:14234  _status */\n  0x00\n    /* \"contracts/Marketplace2/Marketplace.sol\":14227:14249  _status = _NOT_ENTERED */\n  dup2\n  swap1\n  sstore\n  pop\n    /* \"contracts/Marketplace2/Marketplace.sol\":1561:1593  _transferOwnership(_msgSender()) */\n  tag_9\n    /* \"contracts/Marketplace2/Marketplace.sol\":1580:1592  _msgSender() */\n  tag_10\n    /* \"contracts/Marketplace2/Marketplace.sol\":1580:1590  _msgSender */\n  shl(0x20, tag_11)\n    /* \"contracts/Marketplace2/Marketplace.sol\":1580:1592  _msgSender() */\n  0x20\n  shr\n  jump\t// in\ntag_10:\n    /* \"contracts/Marketplace2/Marketplace.sol\":1561:1579  _transferOwnership */\n  shl(0x20, tag_12)\n    /* \"contracts/Marketplace2/Marketplace.sol\":1561:1593  _transferOwnership(_msgSender()) */\n  0x20\n  shr\n  jump\t// in\ntag_9:\n    /* \"contracts/Marketplace2/Marketplace.sol\":17453:17463  _mainToken */\n  dup3\n    /* \"contracts/Marketplace2/Marketplace.sol\":17434:17443  mainToken */\n  0x09\n  0x00\n    /* \"contracts/Marketplace2/Marketplace.sol\":17434:17464  mainToken = IERC20(_mainToken) */\n  0x0100\n  exp\n  dup2\n  sload\n  dup2\n  0xffffffffffffffffffffffffffffffffffffffff\n  mul\n  not\n  and\n  swap1\n  dup4\n  0xffffffffffffffffffffffffffffffffffffffff\n  and\n  mul\n  or\n  swap1\n  sstore\n  pop\n    /* \"contracts/Marketplace2/Marketplace.sol\":17491:17499  _mainNFT */\n  dup2\n    /* \"contracts/Marketplace2/Marketplace.sol\":17472:17480  mainNFTs */\n  0x0b\n  0x00\n    /* \"contracts/Marketplace2/Marketplace.sol\":17472:17500  mainNFTs = IERC721(_mainNFT) */\n  0x0100\n  exp\n  dup2\n  sload\n  dup2\n  0xffffffffffffffffffffffffffffffffffffffff\n  mul\n  not\n  and\n  swap1\n  dup4\n  0xffffffffffffffffffffffffffffffffffffffff\n  and\n  mul\n  or\n  swap1\n  sstore\n  pop\n    /* \"contracts/Marketplace2/Marketplace.sol\":17527:17539  _mainFactory */\n  dup1\n    /* \"contracts/Marketplace2/Marketplace.sol\":17508:17515  factory */\n  0x0a\n  0x00\n    /* \"contracts/Marketplace2/Marketplace.sol\":17508:17540  factory = IFactory(_mainFactory) */\n  0x0100\n  exp\n  dup2\n  sload\n  dup2\n  0xffffffffffffffffffffffffffffffffffffffff\n  mul\n  not\n  and\n  swap1\n  dup4\n  0xffffffffffffffffffffffffffffffffffffffff\n  and\n  mul\n  or\n  swap1\n  sstore\n  pop\n    /* \"contracts/Marketplace2/Marketplace.sol\":17353:17547  constructor(address _mainToken, address _mainNFT, address _mainFactory ) {... */\n  pop\n  pop\n  pop\n    /* \"contracts/Marketplace2/Marketplace.sol\":17107:24705  contract NFTMarket is ReentrancyGuard,MarketplaceStorage, Ownable {... */\n  jump(tag_14)\n    /* \"contracts/Marketplace2/Marketplace.sol\":554:650  function _msgSender() internal view virtual returns (address) {... */\ntag_11:\n    /* \"contracts/Marketplace2/Marketplace.sol\":607:614  address */\n  0x00\n    /* \"contracts/Marketplace2/Marketplace.sol\":633:643  msg.sender */\n  caller\n    /* \"contracts/Marketplace2/Marketplace.sol\":626:643  return msg.sender */\n  swap1\n  pop\n    /* \"contracts/Marketplace2/Marketplace.sol\":554:650  function _msgSender() internal view virtual returns (address) {... */\n  swap1\n  jump\t// out\n    /* \"contracts/Marketplace2/Marketplace.sol\":2910:3097  function _transferOwnership(address newOwner) internal virtual {... */\ntag_12:\n    /* \"contracts/Marketplace2/Marketplace.sol\":2983:2999  address oldOwner */\n  0x00\n    /* \"contracts/Marketplace2/Marketplace.sol\":3002:3008  _owner */\n  0x0c\n  0x00\n  swap1\n  sload\n  swap1\n  0x0100\n  exp\n  swap1\n  div\n  0xffffffffffffffffffffffffffffffffffffffff\n  and\n    /* \"contracts/Marketplace2/Marketplace.sol\":2983:3008  address oldOwner = _owner */\n  swap1\n  pop\n    /* \"contracts/Marketplace2/Marketplace.sol\":3027:3035  newOwner */\n  dup2\n    /* \"contracts/Marketplace2/Marketplace.sol\":3018:3024  _owner */\n  0x0c\n  0x00\n    /* \"contracts/Marketplace2/Marketplace.sol\":3018:3035  _owner = newOwner */\n  0x0100\n  exp\n  dup2\n  sload\n  dup2\n  0xffffffffffffffffffffffffffffffffffffffff\n  mul\n  not\n  and\n  swap1\n  dup4\n  0xffffffffffffffffffffffffffffffffffffffff\n  and\n  mul\n  or\n  swap1\n  sstore\n  pop\n    /* \"contracts/Marketplace2/Marketplace.sol\":3081:3089  newOwner */\n  dup2\n    /* \"contracts/Marketplace2/Marketplace.sol\":3050:3090  OwnershipTransferred(oldOwner, newOwner) */\n  0xffffffffffffffffffffffffffffffffffffffff\n  and\n    /* \"contracts/Marketplace2/Marketplace.sol\":3071:3079  oldOwner */\n  dup2\n    /* \"contracts/Marketplace2/Marketplace.sol\":3050:3090  OwnershipTransferred(oldOwner, newOwner) */\n  0xffffffffffffffffffffffffffffffffffffffff\n  and\n  0x8be0079c531659141344cd1fd0a4f28419497f9722a3daafe3b4186f6b6457e0\n  mload(0x40)\n  mload(0x40)\n  dup1\n  swap2\n  sub\n  swap1\n  log3\n    /* \"contracts/Marketplace2/Marketplace.sol\":2973:3097  {... */\n  pop\n    /* \"contracts/Marketplace2/Marketplace.sol\":2910:3097  function _transferOwnership(address newOwner) internal virtual {... */\n  pop\n  jump\t// out\n    /* \"#utility.yul\":88:205   */\ntag_18:\n    /* \"#utility.yul\":197:198   */\n  0x00\n    /* \"#utility.yul\":194:195   */\n  dup1\n    /* \"#utility.yul\":187:199   */\n  revert\n    /* \"#utility.yul\":334:460   */\ntag_20:\n    /* \"#utility.yul\":371:378   */\n  0x00\n    /* \"#utility.yul\":411:453   */\n  0xffffffffffffffffffffffffffffffffffffffff\n    /* \"#utility.yul\":404:409   */\n  dup3\n    /* \"#utility.yul\":400:454   */\n  and\n    /* \"#utility.yul\":389:454   */\n  swap1\n  pop\n    /* \"#utility.yul\":334:460   */\n  swap2\n  swap1\n  pop\n  jump\t// out\n    /* \"#utility.yul\":466:562   */\ntag_21:\n    /* \"#utility.yul\":503:510   */\n  0x00\n    /* \"#utility.yul\":532:556   */\n  tag_30\n    /* \"#utility.yul\":550:555   */\n  dup3\n    /* \"#utility.yul\":532:556   */\n  tag_20\n  jump\t// in\ntag_30:\n    /* \"#utility.yul\":521:556   */\n  swap1\n  pop\n    /* \"#utility.yul\":466:562   */\n  swap2\n  swap1\n  pop\n  jump\t// out\n    /* \"#utility.yul\":568:690   */\ntag_22:\n    /* \"#utility.yul\":641:665   */\n  tag_32\n    /* \"#utility.yul\":659:664   */\n  dup2\n    /* \"#utility.yul\":641:665   */\n  tag_21\n  jump\t// in\ntag_32:\n    /* \"#utility.yul\":634:639   */\n  dup2\n    /* \"#utility.yul\":631:666   */\n  eq\n    /* \"#utility.yul\":621:684   */\n  tag_33\n  jumpi\n    /* \"#utility.yul\":680:681   */\n  0x00\n    /* \"#utility.yul\":677:678   */\n  dup1\n    /* \"#utility.yul\":670:682   */\n  revert\n    /* \"#utility.yul\":621:684   */\ntag_33:\n    /* \"#utility.yul\":568:690   */\n  pop\n  jump\t// out\n    /* \"#utility.yul\":696:839   */\ntag_23:\n    /* \"#utility.yul\":753:758   */\n  0x00\n    /* \"#utility.yul\":784:790   */\n  dup2\n    /* \"#utility.yul\":778:791   */\n  mload\n    /* \"#utility.yul\":769:791   */\n  swap1\n  pop\n    /* \"#utility.yul\":800:833   */\n  tag_35\n    /* \"#utility.yul\":827:832   */\n  dup2\n    /* \"#utility.yul\":800:833   */\n  tag_22\n  jump\t// in\ntag_35:\n    /* \"#utility.yul\":696:839   */\n  swap3\n  swap2\n  pop\n  pop\n  jump\t// out\n    /* \"#utility.yul\":845:1508   */\ntag_3:\n    /* \"#utility.yul\":933:939   */\n  0x00\n    /* \"#utility.yul\":941:947   */\n  dup1\n    /* \"#utility.yul\":949:955   */\n  0x00\n    /* \"#utility.yul\":998:1000   */\n  0x60\n    /* \"#utility.yul\":986:995   */\n  dup5\n    /* \"#utility.yul\":977:984   */\n  dup7\n    /* \"#utility.yul\":973:996   */\n  sub\n    /* \"#utility.yul\":969:1001   */\n  slt\n    /* \"#utility.yul\":966:1085   */\n  iszero\n  tag_37\n  jumpi\n    /* \"#utility.yul\":1004:1083   */\n  tag_38\n  tag_18\n  jump\t// in\ntag_38:\n    /* \"#utility.yul\":966:1085   */\ntag_37:\n    /* \"#utility.yul\":1124:1125   */\n  0x00\n    /* \"#utility.yul\":1149:1213   */\n  tag_39\n    /* \"#utility.yul\":1205:1212   */\n  dup7\n    /* \"#utility.yul\":1196:1202   */\n  dup3\n    /* \"#utility.yul\":1185:1194   */\n  dup8\n    /* \"#utility.yul\":1181:1203   */\n  add\n    /* \"#utility.yul\":1149:1213   */\n  tag_23\n  jump\t// in\ntag_39:\n    /* \"#utility.yul\":1139:1213   */\n  swap4\n  pop\n    /* \"#utility.yul\":1095:1223   */\n  pop\n    /* \"#utility.yul\":1262:1264   */\n  0x20\n    /* \"#utility.yul\":1288:1352   */\n  tag_40\n    /* \"#utility.yul\":1344:1351   */\n  dup7\n    /* \"#utility.yul\":1335:1341   */\n  dup3\n    /* \"#utility.yul\":1324:1333   */\n  dup8\n    /* \"#utility.yul\":1320:1342   */\n  add\n    /* \"#utility.yul\":1288:1352   */\n  tag_23\n  jump\t// in\ntag_40:\n    /* \"#utility.yul\":1278:1352   */\n  swap3\n  pop\n    /* \"#utility.yul\":1233:1362   */\n  pop\n    /* \"#utility.yul\":1401:1403   */\n  0x40\n    /* \"#utility.yul\":1427:1491   */\n  tag_41\n    /* \"#utility.yul\":1483:1490   */\n  dup7\n    /* \"#utility.yul\":1474:1480   */\n  dup3\n    /* \"#utility.yul\":1463:1472   */\n  dup8\n    /* \"#utility.yul\":1459:1481   */\n  add\n    /* \"#utility.yul\":1427:1491   */\n  tag_23\n  jump\t// in\ntag_41:\n    /* \"#utility.yul\":1417:1491   */\n  swap2\n  pop\n    /* \"#utility.yul\":1372:1501   */\n  pop\n    /* \"#utility.yul\":845:1508   */\n  swap3\n  pop\n  swap3\n  pop\n  swap3\n  jump\t// out\n    /* \"contracts/Marketplace2/Marketplace.sol\":17107:24705  contract NFTMarket is ReentrancyGuard,MarketplaceStorage, Ownable {... */\ntag_14:\n  dataSize(sub_0)\n  dup1\n  dataOffset(sub_0)\n  0x00\n  codecopy\n  0x00\n  return\nstop\n\nsub_0: assembly {\n        /* \"contracts/Marketplace2/Marketplace.sol\":17107:24705  contract NFTMarket is ReentrancyGuard,MarketplaceStorage, Ownable {... */\n      mstore(0x40, 0x80)\n      callvalue\n      dup1\n      iszero\n      tag_1\n      jumpi\n      0x00\n      dup1\n      revert\n    tag_1:\n      pop\n      jumpi(tag_2, lt(calldatasize, 0x04))\n      shr(0xe0, calldataload(0x00))\n      dup1\n      0x673cf668\n      gt\n      tag_27\n      jumpi\n      dup1\n      0xc45a0155\n      gt\n      tag_28\n      jumpi\n      dup1\n      0xc45a0155\n      eq\n      tag_21\n      jumpi\n      dup1\n      0xc7be7a49\n      eq\n      tag_22\n      jumpi\n      dup1\n      0xe00dd161\n      eq\n      tag_23\n      jumpi\n      dup1\n      0xf2fde38b\n      eq\n      tag_24\n      jumpi\n      dup1\n      0xf55de0c7\n      eq\n      tag_25\n      jumpi\n      dup1\n      0xff68fa6e\n      eq\n      tag_26\n      jumpi\n      jump(tag_2)\n    tag_28:\n      dup1\n      0x673cf668\n      eq\n      tag_15\n      jumpi\n      dup1\n      0x715018a6\n      eq\n      tag_16\n      jumpi\n      dup1\n      0x85a8b36c\n      eq\n      tag_17\n      jumpi\n      dup1\n      0x8da5cb5b\n      eq\n      tag_18\n      jumpi\n      dup1\n      0xa1c11ca8\n      eq\n      tag_19\n      jumpi\n      dup1\n      0xb7a60c7e\n      eq\n      tag_20\n      jumpi\n      jump(tag_2)\n    tag_27:\n      dup1\n      0x2b4c32be\n      gt\n      tag_29\n      jumpi\n      dup1\n      0x2b4c32be\n      eq\n      tag_9\n      jumpi\n      dup1\n      0x361c1995\n      eq\n      tag_10\n      jumpi\n      dup1\n      0x3fc15f15\n      eq\n      tag_11\n      jumpi\n      dup1\n      0x517bd451\n      eq\n      tag_12\n      jumpi\n      dup1\n      0x5bb47808\n      eq\n      tag_13\n      jumpi\n      dup1\n      0x5c80a435\n      eq\n      tag_14\n      jumpi\n      jump(tag_2)\n    tag_29:\n      dup1\n      0x03ce1cb5\n      eq\n      tag_3\n      jumpi\n      dup1\n      0x0f08efe0\n      eq\n      tag_4\n      jumpi\n      dup1\n      0x10061631\n      eq\n      tag_5\n      jumpi\n      dup1\n      0x15b12494\n      eq\n      tag_6\n      jumpi\n      dup1\n      0x27ce464e\n      eq\n      tag_7\n      jumpi\n      dup1\n      0x2a45b250\n      eq\n      tag_8\n      jumpi\n    tag_2:\n      0x00\n      dup1\n      revert\n        /* \"contracts/Marketplace2/Marketplace.sol\":18019:18201  function getIngameItem(uint256 tokenId) public view returns(IFactory.ingameItems memory) { ... */\n    tag_3:\n      tag_30\n      0x04\n      dup1\n      calldatasize\n      sub\n      dup2\n      add\n      swap1\n      tag_31\n      swap2\n      swap1\n      tag_32\n      jump\t// in\n    tag_31:\n      tag_33\n      jump\t// in\n    tag_30:\n      mload(0x40)\n      tag_34\n      swap2\n      swap1\n      tag_35\n      jump\t// in\n    tag_34:\n      mload(0x40)\n      dup1\n      swap2\n      sub\n      swap1\n      return\n        /* \"contracts/Marketplace2/Marketplace.sol\":19928:20028  function fetchMarketItems() public view returns (MarketItem memory) {... */\n    tag_4:\n      tag_36\n      tag_37\n      jump\t// in\n    tag_36:\n      mload(0x40)\n      tag_38\n      swap2\n      swap1\n      tag_39\n      jump\t// in\n    tag_38:\n      mload(0x40)\n      dup1\n      swap2\n      sub\n      swap1\n      return\n        /* \"contracts/Marketplace2/Marketplace.sol\":20734:21492  function delistItem(uint256 itemId) public {... */\n    tag_5:\n      tag_40\n      0x04\n      dup1\n      calldatasize\n      sub\n      dup2\n      add\n      swap1\n      tag_41\n      swap2\n      swap1\n      tag_32\n      jump\t// in\n    tag_41:\n      tag_42\n      jump\t// in\n    tag_40:\n      stop\n        /* \"contracts/Marketplace2/Marketplace.sol\":17805:17907  function setMainNFT(address _address) external onlyOwner {... */\n    tag_6:\n      tag_43\n      0x04\n      dup1\n      calldatasize\n      sub\n      dup2\n      add\n      swap1\n      tag_44\n      swap2\n      swap1\n      tag_45\n      jump\t// in\n    tag_44:\n      tag_46\n      jump\t// in\n    tag_43:\n      stop\n        /* \"contracts/Marketplace2/Marketplace.sol\":17696:17800  function setMainToken(address _address) external onlyOwner {... */\n    tag_7:\n      tag_47\n      0x04\n      dup1\n      calldatasize\n      sub\n      dup2\n      add\n      swap1\n      tag_48\n      swap2\n      swap1\n      tag_45\n      jump\t// in\n    tag_48:\n      tag_49\n      jump\t// in\n    tag_47:\n      stop\n        /* \"contracts/Marketplace2/Marketplace.sol\":19771:19924  function fetchMarketItem(uint itemId) public view returns (MarketItem memory) {... */\n    tag_8:\n      tag_50\n      0x04\n      dup1\n      calldatasize\n      sub\n      dup2\n      add\n      swap1\n      tag_51\n      swap2\n      swap1\n      tag_32\n      jump\t// in\n    tag_51:\n      tag_52\n      jump\t// in\n    tag_50:\n      mload(0x40)\n      tag_53\n      swap2\n      swap1\n      tag_39\n      jump\t// in\n    tag_53:\n      mload(0x40)\n      dup1\n      swap2\n      sub\n      swap1\n      return\n        /* \"contracts/Marketplace2/Marketplace.sol\":15910:15970  bytes4 public constant ERC721_Interface = bytes4(0x80ac58cd) */\n    tag_9:\n      tag_54\n      tag_55\n      jump\t// in\n    tag_54:\n      mload(0x40)\n      tag_56\n      swap2\n      swap1\n      tag_57\n      jump\t// in\n    tag_56:\n      mload(0x40)\n      dup1\n      swap2\n      sub\n      swap1\n      return\n        /* \"contracts/Marketplace2/Marketplace.sol\":18303:18950  function createMarketItem(... */\n    tag_10:\n      tag_58\n      0x04\n      dup1\n      calldatasize\n      sub\n      dup2\n      add\n      swap1\n      tag_59\n      swap2\n      swap1\n      tag_60\n      jump\t// in\n    tag_59:\n      tag_61\n      jump\t// in\n    tag_58:\n      stop\n        /* \"contracts/Marketplace2/Marketplace.sol\":16171:16194  IERC20 public mainToken */\n    tag_11:\n      tag_62\n      tag_63\n      jump\t// in\n    tag_62:\n      mload(0x40)\n      tag_64\n      swap2\n      swap1\n      tag_65\n      jump\t// in\n    tag_64:\n      mload(0x40)\n      dup1\n      swap2\n      sub\n      swap1\n      return\n        /* \"contracts/Marketplace2/Marketplace.sol\":15871:15903  MarketItem public allMarketItems */\n    tag_12:\n      tag_66\n      tag_67\n      jump\t// in\n    tag_66:\n      mload(0x40)\n      tag_68\n      swap7\n      swap6\n      swap5\n      swap4\n      swap3\n      swap2\n      swap1\n      tag_69\n      jump\t// in\n    tag_68:\n      mload(0x40)\n      dup1\n      swap2\n      sub\n      swap1\n      return\n        /* \"contracts/Marketplace2/Marketplace.sol\":17912:18014  function setFactory(address _address) external onlyOwner {... */\n    tag_13:\n      tag_70\n      0x04\n      dup1\n      calldatasize\n      sub\n      dup2\n      add\n      swap1\n      tag_71\n      swap2\n      swap1\n      tag_45\n      jump\t// in\n    tag_71:\n      tag_72\n      jump\t// in\n    tag_70:\n      stop\n        /* \"contracts/Marketplace2/Marketplace.sol\":16101:16164  mapping(address => mapping(uint256 => MarketItem)) public items */\n    tag_14:\n      tag_73\n      0x04\n      dup1\n      calldatasize\n      sub\n      dup2\n      add\n      swap1\n      tag_74\n      swap2\n      swap1\n      tag_75\n      jump\t// in\n    tag_74:\n      tag_76\n      jump\t// in\n    tag_73:\n      mload(0x40)\n      tag_77\n      swap7\n      swap6\n      swap5\n      swap4\n      swap3\n      swap2\n      swap1\n      tag_69\n      jump\t// in\n    tag_77:\n      mload(0x40)\n      dup1\n      swap2\n      sub\n      swap1\n      return\n        /* \"contracts/Marketplace2/Marketplace.sol\":20032:20730  function fetchMySelling() public view returns (MarketItem[] memory) {... */\n    tag_15:\n      tag_78\n      tag_79\n      jump\t// in\n    tag_78:\n      mload(0x40)\n      tag_80\n      swap2\n      swap1\n      tag_81\n      jump\t// in\n    tag_80:\n      mload(0x40)\n      dup1\n      swap2\n      sub\n      swap1\n      return\n        /* \"contracts/Marketplace2/Marketplace.sol\":2308:2409  function renounceOwnership() public virtual onlyOwner {... */\n    tag_16:\n      tag_82\n      tag_83\n      jump\t// in\n    tag_82:\n      stop\n        /* \"contracts/Marketplace2/Marketplace.sol\":16259:16285  uint8 public bnbFeePercent */\n    tag_17:\n      tag_84\n      tag_85\n      jump\t// in\n    tag_84:\n      mload(0x40)\n      tag_86\n      swap2\n      swap1\n      tag_87\n      jump\t// in\n    tag_86:\n      mload(0x40)\n      dup1\n      swap2\n      sub\n      swap1\n      return\n        /* \"contracts/Marketplace2/Marketplace.sol\":1676:1761  function owner() public view virtual returns (address) {... */\n    tag_18:\n      tag_88\n      tag_89\n      jump\t// in\n    tag_88:\n      mload(0x40)\n      tag_90\n      swap2\n      swap1\n      tag_91\n      jump\t// in\n    tag_90:\n      mload(0x40)\n      dup1\n      swap2\n      sub\n      swap1\n      return\n        /* \"contracts/Marketplace2/Marketplace.sol\":18953:19767  function createMarketSale(... */\n    tag_19:\n      tag_92\n      0x04\n      dup1\n      calldatasize\n      sub\n      dup2\n      add\n      swap1\n      tag_93\n      swap2\n      swap1\n      tag_60\n      jump\t// in\n    tag_93:\n      tag_94\n      jump\t// in\n    tag_92:\n      stop\n        /* \"contracts/Marketplace2/Marketplace.sol\":16291:16318  uint8 public antaFeePercent */\n    tag_20:\n      tag_95\n      tag_96\n      jump\t// in\n    tag_95:\n      mload(0x40)\n      tag_97\n      swap2\n      swap1\n      tag_87\n      jump\t// in\n    tag_97:\n      mload(0x40)\n      dup1\n      swap2\n      sub\n      swap1\n      return\n        /* \"contracts/Marketplace2/Marketplace.sol\":16200:16223  IFactory public factory */\n    tag_21:\n      tag_98\n      tag_99\n      jump\t// in\n    tag_98:\n      mload(0x40)\n      tag_100\n      swap2\n      swap1\n      tag_101\n      jump\t// in\n    tag_100:\n      mload(0x40)\n      dup1\n      swap2\n      sub\n      swap1\n      return\n        /* \"contracts/Marketplace2/Marketplace.sol\":17553:17690  function getMarketItem(uint256 marketItemId) public view returns (MarketItem memory) {... */\n    tag_22:\n      tag_102\n      0x04\n      dup1\n      calldatasize\n      sub\n      dup2\n      add\n      swap1\n      tag_103\n      swap2\n      swap1\n      tag_32\n      jump\t// in\n    tag_103:\n      tag_104\n      jump\t// in\n    tag_102:\n      mload(0x40)\n      tag_105\n      swap2\n      swap1\n      tag_39\n      jump\t// in\n    tag_105:\n      mload(0x40)\n      dup1\n      swap2\n      sub\n      swap1\n      return\n        /* \"contracts/Marketplace2/Marketplace.sol\":18206:18299  function currentId() public view returns(uint256) { ... */\n    tag_23:\n      tag_106\n      tag_107\n      jump\t// in\n    tag_106:\n      mload(0x40)\n      tag_108\n      swap2\n      swap1\n      tag_109\n      jump\t// in\n    tag_108:\n      mload(0x40)\n      dup1\n      swap2\n      sub\n      swap1\n      return\n        /* \"contracts/Marketplace2/Marketplace.sol\":2558:2756  function transferOwnership(address newOwner) public virtual onlyOwner {... */\n    tag_24:\n      tag_110\n      0x04\n      dup1\n      calldatasize\n      sub\n      dup2\n      add\n      swap1\n      tag_111\n      swap2\n      swap1\n      tag_45\n      jump\t// in\n    tag_111:\n      tag_112\n      jump\t// in\n    tag_110:\n      stop\n        /* \"contracts/Marketplace2/Marketplace.sol\":16229:16252  IERC721 public mainNFTs */\n    tag_25:\n      tag_113\n      tag_114\n      jump\t// in\n    tag_113:\n      mload(0x40)\n      tag_115\n      swap2\n      swap1\n      tag_116\n      jump\t// in\n    tag_115:\n      mload(0x40)\n      dup1\n      swap2\n      sub\n      swap1\n      return\n        /* \"contracts/Marketplace2/Marketplace.sol\":15977:16024  mapping (uint256 => MarketItem) public allItems */\n    tag_26:\n      tag_117\n      0x04\n      dup1\n      calldatasize\n      sub\n      dup2\n      add\n      swap1\n      tag_118\n      swap2\n      swap1\n      tag_32\n      jump\t// in\n    tag_118:\n      tag_119\n      jump\t// in\n    tag_117:\n      mload(0x40)\n      tag_120\n      swap7\n      swap6\n      swap5\n      swap4\n      swap3\n      swap2\n      swap1\n      tag_69\n      jump\t// in\n    tag_120:\n      mload(0x40)\n      dup1\n      swap2\n      sub\n      swap1\n      return\n        /* \"contracts/Marketplace2/Marketplace.sol\":18019:18201  function getIngameItem(uint256 tokenId) public view returns(IFactory.ingameItems memory) { ... */\n    tag_33:\n        /* \"contracts/Marketplace2/Marketplace.sol\":18079:18106  IFactory.ingameItems memory */\n      tag_121\n      tag_122\n      jump\t// in\n    tag_121:\n        /* \"contracts/Marketplace2/Marketplace.sol\":18115:18147  IFactory.ingameItems memory item */\n      0x00\n        /* \"contracts/Marketplace2/Marketplace.sol\":18150:18157  factory */\n      0x0a\n      0x00\n      swap1\n      sload\n      swap1\n      0x0100\n      exp\n      swap1\n      div\n      0xffffffffffffffffffffffffffffffffffffffff\n      and\n        /* \"contracts/Marketplace2/Marketplace.sol\":18150:18168  factory.ingameItem */\n      0xffffffffffffffffffffffffffffffffffffffff\n      and\n      0xd30bdac9\n        /* \"contracts/Marketplace2/Marketplace.sol\":18169:18176  tokenId */\n      dup5\n        /* \"contracts/Marketplace2/Marketplace.sol\":18150:18177  factory.ingameItem(tokenId) */\n      mload(0x40)\n      dup3\n      0xffffffff\n      and\n      0xe0\n      shl\n      dup2\n      mstore\n      0x04\n      add\n      tag_124\n      swap2\n      swap1\n      tag_109\n      jump\t// in\n    tag_124:\n      0x00\n      mload(0x40)\n      dup1\n      dup4\n      sub\n      dup2\n      dup7\n      gas\n      staticcall\n      iszero\n      dup1\n      iszero\n      tag_126\n      jumpi\n      returndatasize\n      0x00\n      dup1\n      returndatacopy\n      revert(0x00, returndatasize)\n    tag_126:\n      pop\n      pop\n      pop\n      pop\n      mload(0x40)\n      returndatasize\n      0x00\n      dup3\n      returndatacopy\n      returndatasize\n      not(0x1f)\n      0x1f\n      dup3\n      add\n      and\n      dup3\n      add\n      dup1\n      0x40\n      mstore\n      pop\n      dup2\n      add\n      swap1\n      tag_127\n      swap2\n      swap1\n      tag_128\n      jump\t// in\n    tag_127:\n        /* \"contracts/Marketplace2/Marketplace.sol\":18115:18177  IFactory.ingameItems memory item = factory.ingameItem(tokenId) */\n      swap1\n      pop\n        /* \"contracts/Marketplace2/Marketplace.sol\":18190:18194  item */\n      dup1\n        /* \"contracts/Marketplace2/Marketplace.sol\":18183:18194  return item */\n      swap2\n      pop\n      pop\n        /* \"contracts/Marketplace2/Marketplace.sol\":18019:18201  function getIngameItem(uint256 tokenId) public view returns(IFactory.ingameItems memory) { ... */\n      swap2\n      swap1\n      pop\n      jump\t// out\n        /* \"contracts/Marketplace2/Marketplace.sol\":19928:20028  function fetchMarketItems() public view returns (MarketItem memory) {... */\n    tag_37:\n        /* \"contracts/Marketplace2/Marketplace.sol\":19977:19994  MarketItem memory */\n      tag_129\n      tag_130\n      jump\t// in\n    tag_129:\n        /* \"contracts/Marketplace2/Marketplace.sol\":20009:20023  allMarketItems */\n      0x01\n        /* \"contracts/Marketplace2/Marketplace.sol\":20002:20023  return allMarketItems */\n      mload(0x40)\n      dup1\n      0xc0\n      add\n      0x40\n      mstore\n      swap1\n      dup2\n      0x00\n      dup3\n      add\n      sload\n      dup2\n      mstore\n      0x20\n      add\n      0x01\n      dup3\n      add\n      sload\n      dup2\n      mstore\n      0x20\n      add\n      0x02\n      dup3\n      add\n      0x00\n      swap1\n      sload\n      swap1\n      0x0100\n      exp\n      swap1\n      div\n      0xffffffffffffffffffffffffffffffffffffffff\n      and\n      0xffffffffffffffffffffffffffffffffffffffff\n      and\n      0xffffffffffffffffffffffffffffffffffffffff\n      and\n      dup2\n      mstore\n      0x20\n      add\n      0x03\n      dup3\n      add\n      0x00\n      swap1\n      sload\n      swap1\n      0x0100\n      exp\n      swap1\n      div\n      0xffffffffffffffffffffffffffffffffffffffff\n      and\n      0xffffffffffffffffffffffffffffffffffffffff\n      and\n      0xffffffffffffffffffffffffffffffffffffffff\n      and\n      dup2\n      mstore\n      0x20\n      add\n      0x04\n      dup3\n      add\n      sload\n      dup2\n      mstore\n      0x20\n      add\n      0x05\n      dup3\n      add\n      0x00\n      swap1\n      sload\n      swap1\n      0x0100\n      exp\n      swap1\n      div\n      0xff\n      and\n      0x01\n      dup2\n      gt\n      iszero\n      tag_132\n      jumpi\n      tag_133\n      tag_134\n      jump\t// in\n    tag_133:\n    tag_132:\n      0x01\n      dup2\n      gt\n      iszero\n      tag_135\n      jumpi\n      tag_136\n      tag_134\n      jump\t// in\n    tag_136:\n    tag_135:\n      dup2\n      mstore\n      pop\n      pop\n      swap1\n      pop\n        /* \"contracts/Marketplace2/Marketplace.sol\":19928:20028  function fetchMarketItems() public view returns (MarketItem memory) {... */\n      swap1\n      jump\t// out\n        /* \"contracts/Marketplace2/Marketplace.sol\":20734:21492  function delistItem(uint256 itemId) public {... */\n    tag_42:\n        /* \"contracts/Marketplace2/Marketplace.sol\":20787:20803  address deleteBy */\n      0x00\n        /* \"contracts/Marketplace2/Marketplace.sol\":20806:20816  msg.sender */\n      caller\n        /* \"contracts/Marketplace2/Marketplace.sol\":20787:20816  address deleteBy = msg.sender */\n      swap1\n      pop\n        /* \"contracts/Marketplace2/Marketplace.sol\":20826:20848  MarketItem memory item */\n      0x00\n        /* \"contracts/Marketplace2/Marketplace.sol\":20851:20865  idToMarketItem */\n      0x0f\n        /* \"contracts/Marketplace2/Marketplace.sol\":20851:20873  idToMarketItem[itemId] */\n      0x00\n        /* \"contracts/Marketplace2/Marketplace.sol\":20866:20872  itemId */\n      dup5\n        /* \"contracts/Marketplace2/Marketplace.sol\":20851:20873  idToMarketItem[itemId] */\n      dup2\n      mstore\n      0x20\n      add\n      swap1\n      dup2\n      mstore\n      0x20\n      add\n      0x00\n      keccak256\n        /* \"contracts/Marketplace2/Marketplace.sol\":20826:20873  MarketItem memory item = idToMarketItem[itemId] */\n      mload(0x40)\n      dup1\n      0xc0\n      add\n      0x40\n      mstore\n      swap1\n      dup2\n      0x00\n      dup3\n      add\n      sload\n      dup2\n      mstore\n      0x20\n      add\n      0x01\n      dup3\n      add\n      sload\n      dup2\n      mstore\n      0x20\n      add\n      0x02\n      dup3\n      add\n      0x00\n      swap1\n      sload\n      swap1\n      0x0100\n      exp\n      swap1\n      div\n      0xffffffffffffffffffffffffffffffffffffffff\n      and\n      0xffffffffffffffffffffffffffffffffffffffff\n      and\n      0xffffffffffffffffffffffffffffffffffffffff\n      and\n      dup2\n      mstore\n      0x20\n      add\n      0x03\n      dup3\n      add\n      0x00\n      swap1\n      sload\n      swap1\n      0x0100\n      exp\n      swap1\n      div\n      0xffffffffffffffffffffffffffffffffffffffff\n      and\n      0xffffffffffffffffffffffffffffffffffffffff\n      and\n      0xffffffffffffffffffffffffffffffffffffffff\n      and\n      dup2\n      mstore\n      0x20\n      add\n      0x04\n      dup3\n      add\n      sload\n      dup2\n      mstore\n      0x20\n      add\n      0x05\n      dup3\n      add\n      0x00\n      swap1\n      sload\n      swap1\n      0x0100\n      exp\n      swap1\n      div\n      0xff\n      and\n      0x01\n      dup2\n      gt\n      iszero\n      tag_138\n      jumpi\n      tag_139\n      tag_134\n      jump\t// in\n    tag_139:\n    tag_138:\n      0x01\n      dup2\n      gt\n      iszero\n      tag_140\n      jumpi\n      tag_141\n      tag_134\n      jump\t// in\n    tag_141:\n    tag_140:\n      dup2\n      mstore\n      pop\n      pop\n      swap1\n      pop\n        /* \"contracts/Marketplace2/Marketplace.sol\":20908:20909  0 */\n      0x00\n        /* \"contracts/Marketplace2/Marketplace.sol\":20893:20897  item */\n      dup2\n        /* \"contracts/Marketplace2/Marketplace.sol\":20893:20904  item.itemId */\n      0x00\n      add\n      mload\n        /* \"contracts/Marketplace2/Marketplace.sol\":20893:20909  item.itemId != 0 */\n      sub\n        /* \"contracts/Marketplace2/Marketplace.sol\":20885:20933  require(item.itemId != 0, \"Asset not published\") */\n      tag_142\n      jumpi\n      mload(0x40)\n      0x08c379a000000000000000000000000000000000000000000000000000000000\n      dup2\n      mstore\n      0x04\n      add\n      tag_143\n      swap1\n      tag_144\n      jump\t// in\n    tag_143:\n      mload(0x40)\n      dup1\n      swap2\n      sub\n      swap1\n      revert\n    tag_142:\n        /* \"contracts/Marketplace2/Marketplace.sol\":20966:20984  ItemStatus.SELLING */\n      0x01\n        /* \"contracts/Marketplace2/Marketplace.sol\":20951:20984  item.status == ItemStatus.SELLING */\n      dup1\n      dup2\n      gt\n      iszero\n      tag_145\n      jumpi\n      tag_146\n      tag_134\n      jump\t// in\n    tag_146:\n    tag_145:\n        /* \"contracts/Marketplace2/Marketplace.sol\":20951:20955  item */\n      dup2\n        /* \"contracts/Marketplace2/Marketplace.sol\":20951:20962  item.status */\n      0xa0\n      add\n      mload\n        /* \"contracts/Marketplace2/Marketplace.sol\":20951:20984  item.status == ItemStatus.SELLING */\n      0x01\n      dup2\n      gt\n      iszero\n      tag_147\n      jumpi\n      tag_148\n      tag_134\n      jump\t// in\n    tag_148:\n    tag_147:\n      eq\n        /* \"contracts/Marketplace2/Marketplace.sol\":20943:21003  require(item.status == ItemStatus.SELLING, \"Asset delisted\") */\n      tag_149\n      jumpi\n      mload(0x40)\n      0x08c379a000000000000000000000000000000000000000000000000000000000\n      dup2\n      mstore\n      0x04\n      add\n      tag_150\n      swap1\n      tag_151\n      jump\t// in\n    tag_150:\n      mload(0x40)\n      dup1\n      swap2\n      sub\n      swap1\n      revert\n    tag_149:\n        /* \"contracts/Marketplace2/Marketplace.sol\":21014:21028  address seller */\n      0x00\n        /* \"contracts/Marketplace2/Marketplace.sol\":21031:21035  item */\n      dup2\n        /* \"contracts/Marketplace2/Marketplace.sol\":21031:21042  item.seller */\n      0x40\n      add\n      mload\n        /* \"contracts/Marketplace2/Marketplace.sol\":21014:21042  address seller = item.seller */\n      swap1\n      pop\n        /* \"contracts/Marketplace2/Marketplace.sol\":21078:21079  0 */\n      0x00\n        /* \"contracts/Marketplace2/Marketplace.sol\":21060:21080  seller != address(0) */\n      0xffffffffffffffffffffffffffffffffffffffff\n      and\n        /* \"contracts/Marketplace2/Marketplace.sol\":21060:21066  seller */\n      dup2\n        /* \"contracts/Marketplace2/Marketplace.sol\":21060:21080  seller != address(0) */\n      0xffffffffffffffffffffffffffffffffffffffff\n      and\n      sub\n        /* \"contracts/Marketplace2/Marketplace.sol\":21052:21100  require(seller != address(0), \"Invalid address\") */\n      tag_152\n      jumpi\n      mload(0x40)\n      0x08c379a000000000000000000000000000000000000000000000000000000000\n      dup2\n      mstore\n      0x04\n      add\n      tag_153\n      swap1\n      tag_154\n      jump\t// in\n    tag_153:\n      mload(0x40)\n      dup1\n      swap2\n      sub\n      swap1\n      revert\n    tag_152:\n        /* \"contracts/Marketplace2/Marketplace.sol\":21141:21151  msg.sender */\n      caller\n        /* \"contracts/Marketplace2/Marketplace.sol\":21131:21151  seller == msg.sender */\n      0xffffffffffffffffffffffffffffffffffffffff\n      and\n        /* \"contracts/Marketplace2/Marketplace.sol\":21131:21137  seller */\n      dup2\n        /* \"contracts/Marketplace2/Marketplace.sol\":21131:21151  seller == msg.sender */\n      0xffffffffffffffffffffffffffffffffffffffff\n      and\n      eq\n        /* \"contracts/Marketplace2/Marketplace.sol\":21110:21199  require(... */\n      tag_155\n      jumpi\n      mload(0x40)\n      0x08c379a000000000000000000000000000000000000000000000000000000000\n      dup2\n      mstore\n      0x04\n      add\n      tag_156\n      swap1\n      tag_157\n      jump\t// in\n    tag_156:\n      mload(0x40)\n      dup1\n      swap2\n      sub\n      swap1\n      revert\n    tag_155:\n        /* \"contracts/Marketplace2/Marketplace.sol\":21209:21217  mainNFTs */\n      0x0b\n      0x00\n      swap1\n      sload\n      swap1\n      0x0100\n      exp\n      swap1\n      div\n      0xffffffffffffffffffffffffffffffffffffffff\n      and\n        /* \"contracts/Marketplace2/Marketplace.sol\":21209:21234  mainNFTs.safeTransferFrom */\n      0xffffffffffffffffffffffffffffffffffffffff\n      and\n      0x42842e0e\n        /* \"contracts/Marketplace2/Marketplace.sol\":21243:21247  this */\n      address\n        /* \"contracts/Marketplace2/Marketplace.sol\":21250:21256  seller */\n      dup4\n        /* \"contracts/Marketplace2/Marketplace.sol\":21258:21264  itemId */\n      dup8\n        /* \"contracts/Marketplace2/Marketplace.sol\":21209:21265  mainNFTs.safeTransferFrom(address(this), seller, itemId) */\n      mload(0x40)\n      dup5\n      0xffffffff\n      and\n      0xe0\n      shl\n      dup2\n      mstore\n      0x04\n      add\n      tag_158\n      swap4\n      swap3\n      swap2\n      swap1\n      tag_159\n      jump\t// in\n    tag_158:\n      0x00\n      mload(0x40)\n      dup1\n      dup4\n      sub\n      dup2\n      0x00\n      dup8\n      dup1\n      extcodesize\n      iszero\n      dup1\n      iszero\n      tag_160\n      jumpi\n      0x00\n      dup1\n      revert\n    tag_160:\n      pop\n      gas\n      call\n      iszero\n      dup1\n      iszero\n      tag_162\n      jumpi\n      returndatasize\n      0x00\n      dup1\n      returndatacopy\n      revert(0x00, returndatasize)\n    tag_162:\n      pop\n      pop\n      pop\n      pop\n        /* \"contracts/Marketplace2/Marketplace.sol\":21289:21305  ItemStatus.AVAIL */\n      0x00\n        /* \"contracts/Marketplace2/Marketplace.sol\":21275:21279  item */\n      dup3\n        /* \"contracts/Marketplace2/Marketplace.sol\":21275:21286  item.status */\n      0xa0\n      add\n        /* \"contracts/Marketplace2/Marketplace.sol\":21275:21305  item.status = ItemStatus.AVAIL */\n      swap1\n      0x01\n      dup2\n      gt\n      iszero\n      tag_163\n      jumpi\n      tag_164\n      tag_134\n      jump\t// in\n    tag_164:\n    tag_163:\n      swap1\n      dup2\n      0x01\n      dup2\n      gt\n      iszero\n      tag_165\n      jumpi\n      tag_166\n      tag_134\n      jump\t// in\n    tag_166:\n    tag_165:\n      dup2\n      mstore\n      pop\n      pop\n        /* \"contracts/Marketplace2/Marketplace.sol\":21322:21336  idToMarketItem */\n      0x0f\n        /* \"contracts/Marketplace2/Marketplace.sol\":21322:21344  idToMarketItem[itemId] */\n      0x00\n        /* \"contracts/Marketplace2/Marketplace.sol\":21337:21343  itemId */\n      dup6\n        /* \"contracts/Marketplace2/Marketplace.sol\":21322:21344  idToMarketItem[itemId] */\n      dup2\n      mstore\n      0x20\n      add\n      swap1\n      dup2\n      mstore\n      0x20\n      add\n      0x00\n      keccak256\n      0x00\n        /* \"contracts/Marketplace2/Marketplace.sol\":21315:21344  delete idToMarketItem[itemId] */\n      dup1\n      dup3\n      add\n      0x00\n      swap1\n      sstore\n      0x01\n      dup3\n      add\n      0x00\n      swap1\n      sstore\n      0x02\n      dup3\n      add\n      exp(0x0100, 0x00)\n      dup2\n      sload\n      swap1\n      0xffffffffffffffffffffffffffffffffffffffff\n      mul\n      not\n      and\n      swap1\n      sstore\n      0x03\n      dup3\n      add\n      exp(0x0100, 0x00)\n      dup2\n      sload\n      swap1\n      0xffffffffffffffffffffffffffffffffffffffff\n      mul\n      not\n      and\n      swap1\n      sstore\n      0x04\n      dup3\n      add\n      0x00\n      swap1\n      sstore\n      0x05\n      dup3\n      add\n      exp(0x0100, 0x00)\n      dup2\n      sload\n      swap1\n      0xff\n      mul\n      not\n      and\n      swap1\n      sstore\n      pop\n      pop\n        /* \"contracts/Marketplace2/Marketplace.sol\":21438:21446  deleteBy */\n      dup3\n        /* \"contracts/Marketplace2/Marketplace.sol\":21359:21485  DelistItemSuccessful(... */\n      0xffffffffffffffffffffffffffffffffffffffff\n      and\n        /* \"contracts/Marketplace2/Marketplace.sol\":21418:21424  itemId */\n      dup5\n        /* \"contracts/Marketplace2/Marketplace.sol\":21359:21485  DelistItemSuccessful(... */\n      0x72ffc2a266acba5f77e2b49400103cb61b428f37a97057ebe671e83fddd71e67\n        /* \"contracts/Marketplace2/Marketplace.sol\":21393:21397  item */\n      dup5\n        /* \"contracts/Marketplace2/Marketplace.sol\":21393:21404  item.itemId */\n      0x00\n      add\n      mload\n        /* \"contracts/Marketplace2/Marketplace.sol\":21460:21475  block.timestamp */\n      timestamp\n        /* \"contracts/Marketplace2/Marketplace.sol\":21359:21485  DelistItemSuccessful(... */\n      mload(0x40)\n      tag_167\n      swap3\n      swap2\n      swap1\n      tag_168\n      jump\t// in\n    tag_167:\n      mload(0x40)\n      dup1\n      swap2\n      sub\n      swap1\n      log3\n        /* \"contracts/Marketplace2/Marketplace.sol\":20777:21492  {... */\n      pop\n      pop\n      pop\n        /* \"contracts/Marketplace2/Marketplace.sol\":20734:21492  function delistItem(uint256 itemId) public {... */\n      pop\n      jump\t// out\n        /* \"contracts/Marketplace2/Marketplace.sol\":17805:17907  function setMainNFT(address _address) external onlyOwner {... */\n    tag_46:\n        /* \"contracts/Marketplace2/Marketplace.sol\":1899:1911  _msgSender() */\n      tag_170\n        /* \"contracts/Marketplace2/Marketplace.sol\":1899:1909  _msgSender */\n      tag_171\n        /* \"contracts/Marketplace2/Marketplace.sol\":1899:1911  _msgSender() */\n      jump\t// in\n    tag_170:\n        /* \"contracts/Marketplace2/Marketplace.sol\":1888:1911  owner() == _msgSender() */\n      0xffffffffffffffffffffffffffffffffffffffff\n      and\n        /* \"contracts/Marketplace2/Marketplace.sol\":1888:1895  owner() */\n      tag_172\n        /* \"contracts/Marketplace2/Marketplace.sol\":1888:1893  owner */\n      tag_89\n        /* \"contracts/Marketplace2/Marketplace.sol\":1888:1895  owner() */\n      jump\t// in\n    tag_172:\n        /* \"contracts/Marketplace2/Marketplace.sol\":1888:1911  owner() == _msgSender() */\n      0xffffffffffffffffffffffffffffffffffffffff\n      and\n      eq\n        /* \"contracts/Marketplace2/Marketplace.sol\":1880:1948  require(owner() == _msgSender(), \"Ownable: caller is not the owner\") */\n      tag_173\n      jumpi\n      mload(0x40)\n      0x08c379a000000000000000000000000000000000000000000000000000000000\n      dup2\n      mstore\n      0x04\n      add\n      tag_174\n      swap1\n      tag_175\n      jump\t// in\n    tag_174:\n      mload(0x40)\n      dup1\n      swap2\n      sub\n      swap1\n      revert\n    tag_173:\n        /* \"contracts/Marketplace2/Marketplace.sol\":17891:17899  _address */\n      dup1\n        /* \"contracts/Marketplace2/Marketplace.sol\":17872:17880  mainNFTs */\n      0x0b\n      0x00\n        /* \"contracts/Marketplace2/Marketplace.sol\":17872:17900  mainNFTs = IERC721(_address) */\n      0x0100\n      exp\n      dup2\n      sload\n      dup2\n      0xffffffffffffffffffffffffffffffffffffffff\n      mul\n      not\n      and\n      swap1\n      dup4\n      0xffffffffffffffffffffffffffffffffffffffff\n      and\n      mul\n      or\n      swap1\n      sstore\n      pop\n        /* \"contracts/Marketplace2/Marketplace.sol\":17805:17907  function setMainNFT(address _address) external onlyOwner {... */\n      pop\n      jump\t// out\n        /* \"contracts/Marketplace2/Marketplace.sol\":17696:17800  function setMainToken(address _address) external onlyOwner {... */\n    tag_49:\n        /* \"contracts/Marketplace2/Marketplace.sol\":1899:1911  _msgSender() */\n      tag_178\n        /* \"contracts/Marketplace2/Marketplace.sol\":1899:1909  _msgSender */\n      tag_171\n        /* \"contracts/Marketplace2/Marketplace.sol\":1899:1911  _msgSender() */\n      jump\t// in\n    tag_178:\n        /* \"contracts/Marketplace2/Marketplace.sol\":1888:1911  owner() == _msgSender() */\n      0xffffffffffffffffffffffffffffffffffffffff\n      and\n        /* \"contracts/Marketplace2/Marketplace.sol\":1888:1895  owner() */\n      tag_179\n        /* \"contracts/Marketplace2/Marketplace.sol\":1888:1893  owner */\n      tag_89\n        /* \"contracts/Marketplace2/Marketplace.sol\":1888:1895  owner() */\n      jump\t// in\n    tag_179:\n        /* \"contracts/Marketplace2/Marketplace.sol\":1888:1911  owner() == _msgSender() */\n      0xffffffffffffffffffffffffffffffffffffffff\n      and\n      eq\n        /* \"contracts/Marketplace2/Marketplace.sol\":1880:1948  require(owner() == _msgSender(), \"Ownable: caller is not the owner\") */\n      tag_180\n      jumpi\n      mload(0x40)\n      0x08c379a000000000000000000000000000000000000000000000000000000000\n      dup2\n      mstore\n      0x04\n      add\n      tag_181\n      swap1\n      tag_175\n      jump\t// in\n    tag_181:\n      mload(0x40)\n      dup1\n      swap2\n      sub\n      swap1\n      revert\n    tag_180:\n        /* \"contracts/Marketplace2/Marketplace.sol\":17784:17792  _address */\n      dup1\n        /* \"contracts/Marketplace2/Marketplace.sol\":17765:17774  mainToken */\n      0x09\n      0x00\n        /* \"contracts/Marketplace2/Marketplace.sol\":17765:17793  mainToken = IERC20(_address) */\n      0x0100\n      exp\n      dup2\n      sload\n      dup2\n      0xffffffffffffffffffffffffffffffffffffffff\n      mul\n      not\n      and\n      swap1\n      dup4\n      0xffffffffffffffffffffffffffffffffffffffff\n      and\n      mul\n      or\n      swap1\n      sstore\n      pop\n        /* \"contracts/Marketplace2/Marketplace.sol\":17696:17800  function setMainToken(address _address) external onlyOwner {... */\n      pop\n      jump\t// out\n        /* \"contracts/Marketplace2/Marketplace.sol\":19771:19924  function fetchMarketItem(uint itemId) public view returns (MarketItem memory) {... */\n    tag_52:\n        /* \"contracts/Marketplace2/Marketplace.sol\":19830:19847  MarketItem memory */\n      tag_183\n      tag_130\n      jump\t// in\n    tag_183:\n        /* \"contracts/Marketplace2/Marketplace.sol\":19855:19877  MarketItem memory item */\n      0x00\n        /* \"contracts/Marketplace2/Marketplace.sol\":19880:19894  idToMarketItem */\n      0x0f\n        /* \"contracts/Marketplace2/Marketplace.sol\":19880:19902  idToMarketItem[itemId] */\n      0x00\n        /* \"contracts/Marketplace2/Marketplace.sol\":19895:19901  itemId */\n      dup5\n        /* \"contracts/Marketplace2/Marketplace.sol\":19880:19902  idToMarketItem[itemId] */\n      dup2\n      mstore\n      0x20\n      add\n      swap1\n      dup2\n      mstore\n      0x20\n      add\n      0x00\n      keccak256\n        /* \"contracts/Marketplace2/Marketplace.sol\":19855:19902  MarketItem memory item = idToMarketItem[itemId] */\n      mload(0x40)\n      dup1\n      0xc0\n      add\n      0x40\n      mstore\n      swap1\n      dup2\n      0x00\n      dup3\n      add\n      sload\n      dup2\n      mstore\n      0x20\n      add\n      0x01\n      dup3\n      add\n      sload\n      dup2\n      mstore\n      0x20\n      add\n      0x02\n      dup3\n      add\n      0x00\n      swap1\n      sload\n      swap1\n      0x0100\n      exp\n      swap1\n      div\n      0xffffffffffffffffffffffffffffffffffffffff\n      and\n      0xffffffffffffffffffffffffffffffffffffffff\n      and\n      0xffffffffffffffffffffffffffffffffffffffff\n      and\n      dup2\n      mstore\n      0x20\n      add\n      0x03\n      dup3\n      add\n      0x00\n      swap1\n      sload\n      swap1\n      0x0100\n      exp\n      swap1\n      div\n      0xffffffffffffffffffffffffffffffffffffffff\n      and\n      0xffffffffffffffffffffffffffffffffffffffff\n      and\n      0xffffffffffffffffffffffffffffffffffffffff\n      and\n      dup2\n      mstore\n      0x20\n      add\n      0x04\n      dup3\n      add\n      sload\n      dup2\n      mstore\n      0x20\n      add\n      0x05\n      dup3\n      add\n      0x00\n      swap1\n      sload\n      swap1\n      0x0100\n      exp\n      swap1\n      div\n      0xff\n      and\n      0x01\n      dup2\n      gt\n      iszero\n      tag_185\n      jumpi\n      tag_186\n      tag_134\n      jump\t// in\n    tag_186:\n    tag_185:\n      0x01\n      dup2\n      gt\n      iszero\n      tag_187\n      jumpi\n      tag_188\n      tag_134\n      jump\t// in\n    tag_188:\n    tag_187:\n      dup2\n      mstore\n      pop\n      pop\n      swap1\n      pop\n        /* \"contracts/Marketplace2/Marketplace.sol\":19915:19919  item */\n      dup1\n        /* \"contracts/Marketplace2/Marketplace.sol\":19908:19919  return item */\n      swap2\n      pop\n      pop\n        /* \"contracts/Marketplace2/Marketplace.sol\":19771:19924  function fetchMarketItem(uint itemId) public view returns (MarketItem memory) {... */\n      swap2\n      swap1\n      pop\n      jump\t// out\n        /* \"contracts/Marketplace2/Marketplace.sol\":15910:15970  bytes4 public constant ERC721_Interface = bytes4(0x80ac58cd) */\n    tag_55:\n        /* \"contracts/Marketplace2/Marketplace.sol\":15959:15969  0x80ac58cd */\n      0x80ac58cd\n        /* \"contracts/Marketplace2/Marketplace.sol\":15952:15970  bytes4(0x80ac58cd) */\n      0xe0\n      shl\n        /* \"contracts/Marketplace2/Marketplace.sol\":15910:15970  bytes4 public constant ERC721_Interface = bytes4(0x80ac58cd) */\n      dup2\n      jump\t// out\n        /* \"contracts/Marketplace2/Marketplace.sol\":18303:18950  function createMarketItem(... */\n    tag_61:\n        /* \"contracts/Marketplace2/Marketplace.sol\":18402:18403  0 */\n      0x00\n        /* \"contracts/Marketplace2/Marketplace.sol\":18394:18399  price */\n      dup2\n        /* \"contracts/Marketplace2/Marketplace.sol\":18394:18403  price > 0 */\n      gt\n        /* \"contracts/Marketplace2/Marketplace.sol\":18386:18436  require(price > 0, \"Price must be at least 1 wei\") */\n      tag_190\n      jumpi\n      mload(0x40)\n      0x08c379a000000000000000000000000000000000000000000000000000000000\n      dup2\n      mstore\n      0x04\n      add\n      tag_191\n      swap1\n      tag_192\n      jump\t// in\n    tag_191:\n      mload(0x40)\n      dup1\n      swap2\n      sub\n      swap1\n      revert\n    tag_190:\n        /* \"contracts/Marketplace2/Marketplace.sol\":18442:18474  IFactory.ingameItems memory item */\n      0x00\n        /* \"contracts/Marketplace2/Marketplace.sol\":18477:18484  factory */\n      0x0a\n      0x00\n      swap1\n      sload\n      swap1\n      0x0100\n      exp\n      swap1\n      div\n      0xffffffffffffffffffffffffffffffffffffffff\n      and\n        /* \"contracts/Marketplace2/Marketplace.sol\":18477:18495  factory.ingameItem */\n      0xffffffffffffffffffffffffffffffffffffffff\n      and\n      0xd30bdac9\n        /* \"contracts/Marketplace2/Marketplace.sol\":18496:18503  tokenId */\n      dup5\n        /* \"contracts/Marketplace2/Marketplace.sol\":18477:18504  factory.ingameItem(tokenId) */\n      mload(0x40)\n      dup3\n      0xffffffff\n      and\n      0xe0\n      shl\n      dup2\n      mstore\n      0x04\n      add\n      tag_193\n      swap2\n      swap1\n      tag_109\n      jump\t// in\n    tag_193:\n      0x00\n      mload(0x40)\n      dup1\n      dup4\n      sub\n      dup2\n      dup7\n      gas\n      staticcall\n      iszero\n      dup1\n      iszero\n      tag_195\n      jumpi\n      returndatasize\n      0x00\n      dup1\n      returndatacopy\n      revert(0x00, returndatasize)\n    tag_195:\n      pop\n      pop\n      pop\n      pop\n      mload(0x40)\n      returndatasize\n      0x00\n      dup3\n      returndatacopy\n      returndatasize\n      not(0x1f)\n      0x1f\n      dup3\n      add\n      and\n      dup3\n      add\n      dup1\n      0x40\n      mstore\n      pop\n      dup2\n      add\n      swap1\n      tag_196\n      swap2\n      swap1\n      tag_128\n      jump\t// in\n    tag_196:\n        /* \"contracts/Marketplace2/Marketplace.sol\":18442:18504  IFactory.ingameItems memory item = factory.ingameItem(tokenId) */\n      swap1\n      pop\n        /* \"contracts/Marketplace2/Marketplace.sol\":18533:18538  false */\n      0x00\n        /* \"contracts/Marketplace2/Marketplace.sol\":18518:18538  item.ingame == false */\n      iszero\n      iszero\n        /* \"contracts/Marketplace2/Marketplace.sol\":18518:18522  item */\n      dup2\n        /* \"contracts/Marketplace2/Marketplace.sol\":18518:18529  item.ingame */\n      0x80\n      add\n      mload\n        /* \"contracts/Marketplace2/Marketplace.sol\":18518:18538  item.ingame == false */\n      iszero\n      iszero\n      eq\n        /* \"contracts/Marketplace2/Marketplace.sol\":18510:18571  require(item.ingame == false, \"Item is not available now !\" ) */\n      tag_197\n      jumpi\n      mload(0x40)\n      0x08c379a000000000000000000000000000000000000000000000000000000000\n      dup2\n      mstore\n      0x04\n      add\n      tag_198\n      swap1\n      tag_199\n      jump\t// in\n    tag_198:\n      mload(0x40)\n      dup1\n      swap2\n      sub\n      swap1\n      revert\n    tag_197:\n        /* \"contracts/Marketplace2/Marketplace.sol\":18577:18607  _safeTransferToMarket(tokenId) */\n      tag_200\n        /* \"contracts/Marketplace2/Marketplace.sol\":18599:18606  tokenId */\n      dup4\n        /* \"contracts/Marketplace2/Marketplace.sol\":18577:18598  _safeTransferToMarket */\n      tag_201\n        /* \"contracts/Marketplace2/Marketplace.sol\":18577:18607  _safeTransferToMarket(tokenId) */\n      jump\t// in\n    tag_200:\n        /* \"contracts/Marketplace2/Marketplace.sol\":18613:18627  uint256 itemId */\n      0x00\n        /* \"contracts/Marketplace2/Marketplace.sol\":18630:18648  _itemIds.current() */\n      tag_202\n        /* \"contracts/Marketplace2/Marketplace.sol\":18630:18638  _itemIds */\n      0x0d\n        /* \"contracts/Marketplace2/Marketplace.sol\":18630:18646  _itemIds.current */\n      tag_203\n        /* \"contracts/Marketplace2/Marketplace.sol\":18630:18648  _itemIds.current() */\n      jump\t// in\n    tag_202:\n        /* \"contracts/Marketplace2/Marketplace.sol\":18613:18648  uint256 itemId = _itemIds.current() */\n      swap1\n      pop\n        /* \"contracts/Marketplace2/Marketplace.sol\":18680:18803  MarketItem(... */\n      mload(0x40)\n      dup1\n      0xc0\n      add\n      0x40\n      mstore\n      dup1\n        /* \"contracts/Marketplace2/Marketplace.sol\":18698:18704  itemId */\n      dup3\n        /* \"contracts/Marketplace2/Marketplace.sol\":18680:18803  MarketItem(... */\n      dup2\n      mstore\n      0x20\n      add\n        /* \"contracts/Marketplace2/Marketplace.sol\":18712:18719  tokenId */\n      dup6\n        /* \"contracts/Marketplace2/Marketplace.sol\":18680:18803  MarketItem(... */\n      dup2\n      mstore\n      0x20\n      add\n        /* \"contracts/Marketplace2/Marketplace.sol\":18727:18737  msg.sender */\n      caller\n        /* \"contracts/Marketplace2/Marketplace.sol\":18680:18803  MarketItem(... */\n      0xffffffffffffffffffffffffffffffffffffffff\n      and\n      dup2\n      mstore\n      0x20\n      add\n        /* \"contracts/Marketplace2/Marketplace.sol\":18753:18757  this */\n      address\n        /* \"contracts/Marketplace2/Marketplace.sol\":18680:18803  MarketItem(... */\n      0xffffffffffffffffffffffffffffffffffffffff\n      and\n      dup2\n      mstore\n      0x20\n      add\n        /* \"contracts/Marketplace2/Marketplace.sol\":18766:18771  price */\n      dup5\n        /* \"contracts/Marketplace2/Marketplace.sol\":18680:18803  MarketItem(... */\n      dup2\n      mstore\n      0x20\n      add\n        /* \"contracts/Marketplace2/Marketplace.sol\":18779:18797  ItemStatus.SELLING */\n      0x01\n        /* \"contracts/Marketplace2/Marketplace.sol\":18680:18803  MarketItem(... */\n      dup1\n      dup2\n      gt\n      iszero\n      tag_204\n      jumpi\n      tag_205\n      tag_134\n      jump\t// in\n    tag_205:\n    tag_204:\n      dup2\n      mstore\n      pop\n        /* \"contracts/Marketplace2/Marketplace.sol\":18654:18668  idToMarketItem */\n      0x0f\n        /* \"contracts/Marketplace2/Marketplace.sol\":18654:18676  idToMarketItem[itemId] */\n      0x00\n        /* \"contracts/Marketplace2/Marketplace.sol\":18669:18675  itemId */\n      dup4\n        /* \"contracts/Marketplace2/Marketplace.sol\":18654:18676  idToMarketItem[itemId] */\n      dup2\n      mstore\n      0x20\n      add\n      swap1\n      dup2\n      mstore\n      0x20\n      add\n      0x00\n      keccak256\n        /* \"contracts/Marketplace2/Marketplace.sol\":18654:18803  idToMarketItem[itemId] =  MarketItem(... */\n      0x00\n      dup3\n      add\n      mload\n      dup2\n      0x00\n      add\n      sstore\n      0x20\n      dup3\n      add\n      mload\n      dup2\n      0x01\n      add\n      sstore\n      0x40\n      dup3\n      add\n      mload\n      dup2\n      0x02\n      add\n      exp(0x0100, 0x00)\n      dup2\n      sload\n      dup2\n      0xffffffffffffffffffffffffffffffffffffffff\n      mul\n      not\n      and\n      swap1\n      dup4\n      0xffffffffffffffffffffffffffffffffffffffff\n      and\n      mul\n      or\n      swap1\n      sstore\n      pop\n      0x60\n      dup3\n      add\n      mload\n      dup2\n      0x03\n      add\n      exp(0x0100, 0x00)\n      dup2\n      sload\n      dup2\n      0xffffffffffffffffffffffffffffffffffffffff\n      mul\n      not\n      and\n      swap1\n      dup4\n      0xffffffffffffffffffffffffffffffffffffffff\n      and\n      mul\n      or\n      swap1\n      sstore\n      pop\n      0x80\n      dup3\n      add\n      mload\n      dup2\n      0x04\n      add\n      sstore\n      0xa0\n      dup3\n      add\n      mload\n      dup2\n      0x05\n      add\n      exp(0x0100, 0x00)\n      dup2\n      sload\n      dup2\n      0xff\n      mul\n      not\n      and\n      swap1\n      dup4\n      0x01\n      dup2\n      gt\n      iszero\n      tag_206\n      jumpi\n      tag_207\n      tag_134\n      jump\t// in\n    tag_207:\n    tag_206:\n      mul\n      or\n      swap1\n      sstore\n      pop\n      swap1\n      pop\n      pop\n        /* \"contracts/Marketplace2/Marketplace.sol\":18809:18829  _itemIds.increment() */\n      tag_208\n        /* \"contracts/Marketplace2/Marketplace.sol\":18809:18817  _itemIds */\n      0x0d\n        /* \"contracts/Marketplace2/Marketplace.sol\":18809:18827  _itemIds.increment */\n      tag_209\n        /* \"contracts/Marketplace2/Marketplace.sol\":18809:18829  _itemIds.increment() */\n      jump\t// in\n    tag_208:\n        /* \"contracts/Marketplace2/Marketplace.sol\":18880:18887  tokenId */\n      dup4\n        /* \"contracts/Marketplace2/Marketplace.sol\":18866:18872  itemId */\n      dup2\n        /* \"contracts/Marketplace2/Marketplace.sol\":18841:18945  MarketItemCreated(... */\n      0x38690a554ffbc44eb6a75016e47d517d0db8e6c37494adc68d6d0b2c66f0ab21\n        /* \"contracts/Marketplace2/Marketplace.sol\":18895:18905  msg.sender */\n      caller\n        /* \"contracts/Marketplace2/Marketplace.sol\":18921:18925  this */\n      address\n        /* \"contracts/Marketplace2/Marketplace.sol\":18934:18939  price */\n      dup8\n        /* \"contracts/Marketplace2/Marketplace.sol\":18841:18945  MarketItemCreated(... */\n      mload(0x40)\n      tag_210\n      swap4\n      swap3\n      swap2\n      swap1\n      tag_159\n      jump\t// in\n    tag_210:\n      mload(0x40)\n      dup1\n      swap2\n      sub\n      swap1\n      log3\n        /* \"contracts/Marketplace2/Marketplace.sol\":18380:18950  {... */\n      pop\n      pop\n        /* \"contracts/Marketplace2/Marketplace.sol\":18303:18950  function createMarketItem(... */\n      pop\n      pop\n      jump\t// out\n        /* \"contracts/Marketplace2/Marketplace.sol\":16171:16194  IERC20 public mainToken */\n    tag_63:\n      0x09\n      0x00\n      swap1\n      sload\n      swap1\n      0x0100\n      exp\n      swap1\n      div\n      0xffffffffffffffffffffffffffffffffffffffff\n      and\n      dup2\n      jump\t// out\n        /* \"contracts/Marketplace2/Marketplace.sol\":15871:15903  MarketItem public allMarketItems */\n    tag_67:\n      0x01\n      dup1\n      0x00\n      add\n      sload\n      swap1\n      dup1\n      0x01\n      add\n      sload\n      swap1\n      dup1\n      0x02\n      add\n      0x00\n      swap1\n      sload\n      swap1\n      0x0100\n      exp\n      swap1\n      div\n      0xffffffffffffffffffffffffffffffffffffffff\n      and\n      swap1\n      dup1\n      0x03\n      add\n      0x00\n      swap1\n      sload\n      swap1\n      0x0100\n      exp\n      swap1\n      div\n      0xffffffffffffffffffffffffffffffffffffffff\n      and\n      swap1\n      dup1\n      0x04\n      add\n      sload\n      swap1\n      dup1\n      0x05\n      add\n      0x00\n      swap1\n      sload\n      swap1\n      0x0100\n      exp\n      swap1\n      div\n      0xff\n      and\n      swap1\n      pop\n      dup7\n      jump\t// out\n        /* \"contracts/Marketplace2/Marketplace.sol\":17912:18014  function setFactory(address _address) external onlyOwner {... */\n    tag_72:\n        /* \"contracts/Marketplace2/Marketplace.sol\":1899:1911  _msgSender() */\n      tag_212\n        /* \"contracts/Marketplace2/Marketplace.sol\":1899:1909  _msgSender */\n      tag_171\n        /* \"contracts/Marketplace2/Marketplace.sol\":1899:1911  _msgSender() */\n      jump\t// in\n    tag_212:\n        /* \"contracts/Marketplace2/Marketplace.sol\":1888:1911  owner() == _msgSender() */\n      0xffffffffffffffffffffffffffffffffffffffff\n      and\n        /* \"contracts/Marketplace2/Marketplace.sol\":1888:1895  owner() */\n      tag_213\n        /* \"contracts/Marketplace2/Marketplace.sol\":1888:1893  owner */\n      tag_89\n        /* \"contracts/Marketplace2/Marketplace.sol\":1888:1895  owner() */\n      jump\t// in\n    tag_213:\n        /* \"contracts/Marketplace2/Marketplace.sol\":1888:1911  owner() == _msgSender() */\n      0xffffffffffffffffffffffffffffffffffffffff\n      and\n      eq\n        /* \"contracts/Marketplace2/Marketplace.sol\":1880:1948  require(owner() == _msgSender(), \"Ownable: caller is not the owner\") */\n      tag_214\n      jumpi\n      mload(0x40)\n      0x08c379a000000000000000000000000000000000000000000000000000000000\n      dup2\n      mstore\n      0x04\n      add\n      tag_215\n      swap1\n      tag_175\n      jump\t// in\n    tag_215:\n      mload(0x40)\n      dup1\n      swap2\n      sub\n      swap1\n      revert\n    tag_214:\n        /* \"contracts/Marketplace2/Marketplace.sol\":17998:18006  _address */\n      dup1\n        /* \"contracts/Marketplace2/Marketplace.sol\":17979:17986  factory */\n      0x0a\n      0x00\n        /* \"contracts/Marketplace2/Marketplace.sol\":17979:18007  factory = IFactory(_address) */\n      0x0100\n      exp\n      dup2\n      sload\n      dup2\n      0xffffffffffffffffffffffffffffffffffffffff\n      mul\n      not\n      and\n      swap1\n      dup4\n      0xffffffffffffffffffffffffffffffffffffffff\n      and\n      mul\n      or\n      swap1\n      sstore\n      pop\n        /* \"contracts/Marketplace2/Marketplace.sol\":17912:18014  function setFactory(address _address) external onlyOwner {... */\n      pop\n      jump\t// out\n        /* \"contracts/Marketplace2/Marketplace.sol\":16101:16164  mapping(address => mapping(uint256 => MarketItem)) public items */\n    tag_76:\n      mstore(0x20, 0x08)\n      dup2\n      0x00\n      mstore\n      mstore(0x20, keccak256(0x00, 0x40))\n      dup1\n      0x00\n      mstore\n      keccak256(0x00, 0x40)\n      0x00\n      swap2\n      pop\n      swap2\n      pop\n      pop\n      dup1\n      0x00\n      add\n      sload\n      swap1\n      dup1\n      0x01\n      add\n      sload\n      swap1\n      dup1\n      0x02\n      add\n      0x00\n      swap1\n      sload\n      swap1\n      0x0100\n      exp\n      swap1\n      div\n      0xffffffffffffffffffffffffffffffffffffffff\n      and\n      swap1\n      dup1\n      0x03\n      add\n      0x00\n      swap1\n      sload\n      swap1\n      0x0100\n      exp\n      swap1\n      div\n      0xffffffffffffffffffffffffffffffffffffffff\n      and\n      swap1\n      dup1\n      0x04\n      add\n      sload\n      swap1\n      dup1\n      0x05\n      add\n      0x00\n      swap1\n      sload\n      swap1\n      0x0100\n      exp\n      swap1\n      div\n      0xff\n      and\n      swap1\n      pop\n      dup7\n      jump\t// out\n        /* \"contracts/Marketplace2/Marketplace.sol\":20032:20730  function fetchMySelling() public view returns (MarketItem[] memory) {... */\n    tag_79:\n        /* \"contracts/Marketplace2/Marketplace.sol\":20079:20098  MarketItem[] memory */\n      0x60\n        /* \"contracts/Marketplace2/Marketplace.sol\":20106:20125  uint totalItemCount */\n      0x00\n        /* \"contracts/Marketplace2/Marketplace.sol\":20128:20146  _itemIds.current() */\n      tag_218\n        /* \"contracts/Marketplace2/Marketplace.sol\":20128:20136  _itemIds */\n      0x0d\n        /* \"contracts/Marketplace2/Marketplace.sol\":20128:20144  _itemIds.current */\n      tag_203\n        /* \"contracts/Marketplace2/Marketplace.sol\":20128:20146  _itemIds.current() */\n      jump\t// in\n    tag_218:\n        /* \"contracts/Marketplace2/Marketplace.sol\":20106:20146  uint totalItemCount = _itemIds.current() */\n      swap1\n      pop\n        /* \"contracts/Marketplace2/Marketplace.sol\":20152:20166  uint itemCount */\n      0x00\n        /* \"contracts/Marketplace2/Marketplace.sol\":20176:20193  uint currentIndex */\n      dup1\n        /* \"contracts/Marketplace2/Marketplace.sol\":20209:20215  uint i */\n      0x00\n        /* \"contracts/Marketplace2/Marketplace.sol\":20204:20336  for (uint i = 0; i < totalItemCount; i++) {... */\n    tag_219:\n        /* \"contracts/Marketplace2/Marketplace.sol\":20225:20239  totalItemCount */\n      dup4\n        /* \"contracts/Marketplace2/Marketplace.sol\":20221:20222  i */\n      dup2\n        /* \"contracts/Marketplace2/Marketplace.sol\":20221:20239  i < totalItemCount */\n      lt\n        /* \"contracts/Marketplace2/Marketplace.sol\":20204:20336  for (uint i = 0; i < totalItemCount; i++) {... */\n      iszero\n      tag_220\n      jumpi\n        /* \"contracts/Marketplace2/Marketplace.sol\":20285:20295  msg.sender */\n      caller\n        /* \"contracts/Marketplace2/Marketplace.sol\":20258:20295  idToMarketItem[i].owner == msg.sender */\n      0xffffffffffffffffffffffffffffffffffffffff\n      and\n        /* \"contracts/Marketplace2/Marketplace.sol\":20258:20272  idToMarketItem */\n      0x0f\n        /* \"contracts/Marketplace2/Marketplace.sol\":20258:20275  idToMarketItem[i] */\n      0x00\n        /* \"contracts/Marketplace2/Marketplace.sol\":20273:20274  i */\n      dup4\n        /* \"contracts/Marketplace2/Marketplace.sol\":20258:20275  idToMarketItem[i] */\n      dup2\n      mstore\n      0x20\n      add\n      swap1\n      dup2\n      mstore\n      0x20\n      add\n      0x00\n      keccak256\n        /* \"contracts/Marketplace2/Marketplace.sol\":20258:20281  idToMarketItem[i].owner */\n      0x03\n      add\n      0x00\n      swap1\n      sload\n      swap1\n      0x0100\n      exp\n      swap1\n      div\n      0xffffffffffffffffffffffffffffffffffffffff\n      and\n        /* \"contracts/Marketplace2/Marketplace.sol\":20258:20295  idToMarketItem[i].owner == msg.sender */\n      0xffffffffffffffffffffffffffffffffffffffff\n      and\n      sub\n        /* \"contracts/Marketplace2/Marketplace.sol\":20254:20330  if (idToMarketItem[i].owner == msg.sender) {... */\n      tag_222\n      jumpi\n        /* \"contracts/Marketplace2/Marketplace.sol\":20320:20321  1 */\n      0x01\n        /* \"contracts/Marketplace2/Marketplace.sol\":20307:20321  itemCount += 1 */\n      dup4\n      tag_223\n      swap2\n      swap1\n      tag_224\n      jump\t// in\n    tag_223:\n      swap3\n      pop\n        /* \"contracts/Marketplace2/Marketplace.sol\":20254:20330  if (idToMarketItem[i].owner == msg.sender) {... */\n    tag_222:\n        /* \"contracts/Marketplace2/Marketplace.sol\":20241:20244  i++ */\n      dup1\n      dup1\n      tag_225\n      swap1\n      tag_226\n      jump\t// in\n    tag_225:\n      swap2\n      pop\n      pop\n        /* \"contracts/Marketplace2/Marketplace.sol\":20204:20336  for (uint i = 0; i < totalItemCount; i++) {... */\n      jump(tag_219)\n    tag_220:\n      pop\n        /* \"contracts/Marketplace2/Marketplace.sol\":20342:20367  MarketItem[] memory items */\n      0x00\n        /* \"contracts/Marketplace2/Marketplace.sol\":20387:20396  itemCount */\n      dup3\n        /* \"contracts/Marketplace2/Marketplace.sol\":20370:20397  new MarketItem[](itemCount) */\n      0xffffffffffffffff\n      dup2\n      gt\n      iszero\n      tag_227\n      jumpi\n      tag_228\n      tag_229\n      jump\t// in\n    tag_228:\n    tag_227:\n      mload(0x40)\n      swap1\n      dup1\n      dup3\n      mstore\n      dup1\n      0x20\n      mul\n      0x20\n      add\n      dup3\n      add\n      0x40\n      mstore\n      dup1\n      iszero\n      tag_230\n      jumpi\n      dup2\n      0x20\n      add\n    tag_231:\n      tag_232\n      tag_130\n      jump\t// in\n    tag_232:\n      dup2\n      mstore\n      0x20\n      add\n      swap1\n      0x01\n      swap1\n      sub\n      swap1\n      dup2\n      tag_231\n      jumpi\n      swap1\n      pop\n    tag_230:\n      pop\n        /* \"contracts/Marketplace2/Marketplace.sol\":20342:20397  MarketItem[] memory items = new MarketItem[](itemCount) */\n      swap1\n      pop\n        /* \"contracts/Marketplace2/Marketplace.sol\":20408:20414  uint i */\n      0x00\n        /* \"contracts/Marketplace2/Marketplace.sol\":20403:20708  for (uint i = 0; i < totalItemCount; i++) {... */\n    tag_233:\n        /* \"contracts/Marketplace2/Marketplace.sol\":20424:20438  totalItemCount */\n      dup5\n        /* \"contracts/Marketplace2/Marketplace.sol\":20420:20421  i */\n      dup2\n        /* \"contracts/Marketplace2/Marketplace.sol\":20420:20438  i < totalItemCount */\n      lt\n        /* \"contracts/Marketplace2/Marketplace.sol\":20403:20708  for (uint i = 0; i < totalItemCount; i++) {... */\n      iszero\n      tag_234\n      jumpi\n        /* \"contracts/Marketplace2/Marketplace.sol\":20488:20498  msg.sender */\n      caller\n        /* \"contracts/Marketplace2/Marketplace.sol\":20457:20498  idToMarketItem[i + 1].owner == msg.sender */\n      0xffffffffffffffffffffffffffffffffffffffff\n      and\n        /* \"contracts/Marketplace2/Marketplace.sol\":20457:20471  idToMarketItem */\n      0x0f\n        /* \"contracts/Marketplace2/Marketplace.sol\":20457:20478  idToMarketItem[i + 1] */\n      0x00\n        /* \"contracts/Marketplace2/Marketplace.sol\":20476:20477  1 */\n      0x01\n        /* \"contracts/Marketplace2/Marketplace.sol\":20472:20473  i */\n      dup5\n        /* \"contracts/Marketplace2/Marketplace.sol\":20472:20477  i + 1 */\n      tag_236\n      swap2\n      swap1\n      tag_224\n      jump\t// in\n    tag_236:\n        /* \"contracts/Marketplace2/Marketplace.sol\":20457:20478  idToMarketItem[i + 1] */\n      dup2\n      mstore\n      0x20\n      add\n      swap1\n      dup2\n      mstore\n      0x20\n      add\n      0x00\n      keccak256\n        /* \"contracts/Marketplace2/Marketplace.sol\":20457:20484  idToMarketItem[i + 1].owner */\n      0x03\n      add\n      0x00\n      swap1\n      sload\n      swap1\n      0x0100\n      exp\n      swap1\n      div\n      0xffffffffffffffffffffffffffffffffffffffff\n      and\n        /* \"contracts/Marketplace2/Marketplace.sol\":20457:20498  idToMarketItem[i + 1].owner == msg.sender */\n      0xffffffffffffffffffffffffffffffffffffffff\n      and\n      sub\n        /* \"contracts/Marketplace2/Marketplace.sol\":20453:20702  if (idToMarketItem[i + 1].owner == msg.sender) {... */\n      tag_237\n      jumpi\n        /* \"contracts/Marketplace2/Marketplace.sol\":20510:20524  uint currentId */\n      0x00\n        /* \"contracts/Marketplace2/Marketplace.sol\":20527:20541  idToMarketItem */\n      0x0f\n        /* \"contracts/Marketplace2/Marketplace.sol\":20527:20548  idToMarketItem[i + 1] */\n      0x00\n        /* \"contracts/Marketplace2/Marketplace.sol\":20546:20547  1 */\n      0x01\n        /* \"contracts/Marketplace2/Marketplace.sol\":20542:20543  i */\n      dup5\n        /* \"contracts/Marketplace2/Marketplace.sol\":20542:20547  i + 1 */\n      tag_238\n      swap2\n      swap1\n      tag_224\n      jump\t// in\n    tag_238:\n        /* \"contracts/Marketplace2/Marketplace.sol\":20527:20548  idToMarketItem[i + 1] */\n      dup2\n      mstore\n      0x20\n      add\n      swap1\n      dup2\n      mstore\n      0x20\n      add\n      0x00\n      keccak256\n        /* \"contracts/Marketplace2/Marketplace.sol\":20527:20555  idToMarketItem[i + 1].itemId */\n      0x00\n      add\n      sload\n        /* \"contracts/Marketplace2/Marketplace.sol\":20510:20555  uint currentId = idToMarketItem[i + 1].itemId */\n      swap1\n      pop\n        /* \"contracts/Marketplace2/Marketplace.sol\":20565:20595  MarketItem storage currentItem */\n      0x00\n        /* \"contracts/Marketplace2/Marketplace.sol\":20598:20612  idToMarketItem */\n      0x0f\n        /* \"contracts/Marketplace2/Marketplace.sol\":20598:20623  idToMarketItem[currentId] */\n      0x00\n        /* \"contracts/Marketplace2/Marketplace.sol\":20613:20622  currentId */\n      dup4\n        /* \"contracts/Marketplace2/Marketplace.sol\":20598:20623  idToMarketItem[currentId] */\n      dup2\n      mstore\n      0x20\n      add\n      swap1\n      dup2\n      mstore\n      0x20\n      add\n      0x00\n      keccak256\n        /* \"contracts/Marketplace2/Marketplace.sol\":20565:20623  MarketItem storage currentItem = idToMarketItem[currentId] */\n      swap1\n      pop\n        /* \"contracts/Marketplace2/Marketplace.sol\":20655:20666  currentItem */\n      dup1\n        /* \"contracts/Marketplace2/Marketplace.sol\":20633:20666  items[currentIndex] = currentItem */\n      mload(0x40)\n      dup1\n      0xc0\n      add\n      0x40\n      mstore\n      swap1\n      dup2\n      0x00\n      dup3\n      add\n      sload\n      dup2\n      mstore\n      0x20\n      add\n      0x01\n      dup3\n      add\n      sload\n      dup2\n      mstore\n      0x20\n      add\n      0x02\n      dup3\n      add\n      0x00\n      swap1\n      sload\n      swap1\n      0x0100\n      exp\n      swap1\n      div\n      0xffffffffffffffffffffffffffffffffffffffff\n      and\n      0xffffffffffffffffffffffffffffffffffffffff\n      and\n      0xffffffffffffffffffffffffffffffffffffffff\n      and\n      dup2\n      mstore\n      0x20\n      add\n      0x03\n      dup3\n      add\n      0x00\n      swap1\n      sload\n      swap1\n      0x0100\n      exp\n      swap1\n      div\n      0xffffffffffffffffffffffffffffffffffffffff\n      and\n      0xffffffffffffffffffffffffffffffffffffffff\n      and\n      0xffffffffffffffffffffffffffffffffffffffff\n      and\n      dup2\n      mstore\n      0x20\n      add\n      0x04\n      dup3\n      add\n      sload\n      dup2\n      mstore\n      0x20\n      add\n      0x05\n      dup3\n      add\n      0x00\n      swap1\n      sload\n      swap1\n      0x0100\n      exp\n      swap1\n      div\n      0xff\n      and\n      0x01\n      dup2\n      gt\n      iszero\n      tag_239\n      jumpi\n      tag_240\n      tag_134\n      jump\t// in\n    tag_240:\n    tag_239:\n      0x01\n      dup2\n      gt\n      iszero\n      tag_241\n      jumpi\n      tag_242\n      tag_134\n      jump\t// in\n    tag_242:\n    tag_241:\n      dup2\n      mstore\n      pop\n      pop\n        /* \"contracts/Marketplace2/Marketplace.sol\":20633:20638  items */\n      dup5\n        /* \"contracts/Marketplace2/Marketplace.sol\":20639:20651  currentIndex */\n      dup7\n        /* \"contracts/Marketplace2/Marketplace.sol\":20633:20652  items[currentIndex] */\n      dup2\n      mload\n      dup2\n      lt\n      tag_243\n      jumpi\n      tag_244\n      tag_245\n      jump\t// in\n    tag_244:\n    tag_243:\n      0x20\n      mul\n      0x20\n      add\n      add\n        /* \"contracts/Marketplace2/Marketplace.sol\":20633:20666  items[currentIndex] = currentItem */\n      dup2\n      swap1\n      mstore\n      pop\n        /* \"contracts/Marketplace2/Marketplace.sol\":20692:20693  1 */\n      0x01\n        /* \"contracts/Marketplace2/Marketplace.sol\":20676:20693  currentIndex += 1 */\n      dup6\n      tag_246\n      swap2\n      swap1\n      tag_224\n      jump\t// in\n    tag_246:\n      swap5\n      pop\n        /* \"contracts/Marketplace2/Marketplace.sol\":20500:20702  {... */\n      pop\n      pop\n        /* \"contracts/Marketplace2/Marketplace.sol\":20453:20702  if (idToMarketItem[i + 1].owner == msg.sender) {... */\n    tag_237:\n        /* \"contracts/Marketplace2/Marketplace.sol\":20440:20443  i++ */\n      dup1\n      dup1\n      tag_247\n      swap1\n      tag_226\n      jump\t// in\n    tag_247:\n      swap2\n      pop\n      pop\n        /* \"contracts/Marketplace2/Marketplace.sol\":20403:20708  for (uint i = 0; i < totalItemCount; i++) {... */\n      jump(tag_233)\n    tag_234:\n      pop\n        /* \"contracts/Marketplace2/Marketplace.sol\":20720:20725  items */\n      dup1\n        /* \"contracts/Marketplace2/Marketplace.sol\":20713:20725  return items */\n      swap5\n      pop\n      pop\n      pop\n      pop\n      pop\n        /* \"contracts/Marketplace2/Marketplace.sol\":20032:20730  function fetchMySelling() public view returns (MarketItem[] memory) {... */\n      swap1\n      jump\t// out\n        /* \"contracts/Marketplace2/Marketplace.sol\":2308:2409  function renounceOwnership() public virtual onlyOwner {... */\n    tag_83:\n        /* \"contracts/Marketplace2/Marketplace.sol\":1899:1911  _msgSender() */\n      tag_249\n        /* \"contracts/Marketplace2/Marketplace.sol\":1899:1909  _msgSender */\n      tag_171\n        /* \"contracts/Marketplace2/Marketplace.sol\":1899:1911  _msgSender() */\n      jump\t// in\n    tag_249:\n        /* \"contracts/Marketplace2/Marketplace.sol\":1888:1911  owner() == _msgSender() */\n      0xffffffffffffffffffffffffffffffffffffffff\n      and\n        /* \"contracts/Marketplace2/Marketplace.sol\":1888:1895  owner() */\n      tag_250\n        /* \"contracts/Marketplace2/Marketplace.sol\":1888:1893  owner */\n      tag_89\n        /* \"contracts/Marketplace2/Marketplace.sol\":1888:1895  owner() */\n      jump\t// in\n    tag_250:\n        /* \"contracts/Marketplace2/Marketplace.sol\":1888:1911  owner() == _msgSender() */\n      0xffffffffffffffffffffffffffffffffffffffff\n      and\n      eq\n        /* \"contracts/Marketplace2/Marketplace.sol\":1880:1948  require(owner() == _msgSender(), \"Ownable: caller is not the owner\") */\n      tag_251\n      jumpi\n      mload(0x40)\n      0x08c379a000000000000000000000000000000000000000000000000000000000\n      dup2\n      mstore\n      0x04\n      add\n      tag_252\n      swap1\n      tag_175\n      jump\t// in\n    tag_252:\n      mload(0x40)\n      dup1\n      swap2\n      sub\n      swap1\n      revert\n    tag_251:\n        /* \"contracts/Marketplace2/Marketplace.sol\":2372:2402  _transferOwnership(address(0)) */\n      tag_254\n        /* \"contracts/Marketplace2/Marketplace.sol\":2399:2400  0 */\n      0x00\n        /* \"contracts/Marketplace2/Marketplace.sol\":2372:2390  _transferOwnership */\n      tag_255\n        /* \"contracts/Marketplace2/Marketplace.sol\":2372:2402  _transferOwnership(address(0)) */\n      jump\t// in\n    tag_254:\n        /* \"contracts/Marketplace2/Marketplace.sol\":2308:2409  function renounceOwnership() public virtual onlyOwner {... */\n      jump\t// out\n        /* \"contracts/Marketplace2/Marketplace.sol\":16259:16285  uint8 public bnbFeePercent */\n    tag_85:\n      0x0b\n      0x14\n      swap1\n      sload\n      swap1\n      0x0100\n      exp\n      swap1\n      div\n      0xff\n      and\n      dup2\n      jump\t// out\n        /* \"contracts/Marketplace2/Marketplace.sol\":1676:1761  function owner() public view virtual returns (address) {... */\n    tag_89:\n        /* \"contracts/Marketplace2/Marketplace.sol\":1722:1729  address */\n      0x00\n        /* \"contracts/Marketplace2/Marketplace.sol\":1748:1754  _owner */\n      0x0c\n      0x00\n      swap1\n      sload\n      swap1\n      0x0100\n      exp\n      swap1\n      div\n      0xffffffffffffffffffffffffffffffffffffffff\n      and\n        /* \"contracts/Marketplace2/Marketplace.sol\":1741:1754  return _owner */\n      swap1\n      pop\n        /* \"contracts/Marketplace2/Marketplace.sol\":1676:1761  function owner() public view virtual returns (address) {... */\n      swap1\n      jump\t// out\n        /* \"contracts/Marketplace2/Marketplace.sol\":18953:19767  function createMarketSale(... */\n    tag_94:\n        /* \"contracts/Marketplace2/Marketplace.sol\":19038:19048  uint price */\n      0x00\n        /* \"contracts/Marketplace2/Marketplace.sol\":19051:19065  idToMarketItem */\n      0x0f\n        /* \"contracts/Marketplace2/Marketplace.sol\":19051:19073  idToMarketItem[itemId] */\n      0x00\n        /* \"contracts/Marketplace2/Marketplace.sol\":19066:19072  itemId */\n      dup5\n        /* \"contracts/Marketplace2/Marketplace.sol\":19051:19073  idToMarketItem[itemId] */\n      dup2\n      mstore\n      0x20\n      add\n      swap1\n      dup2\n      mstore\n      0x20\n      add\n      0x00\n      keccak256\n        /* \"contracts/Marketplace2/Marketplace.sol\":19051:19079  idToMarketItem[itemId].price */\n      0x04\n      add\n      sload\n        /* \"contracts/Marketplace2/Marketplace.sol\":19038:19079  uint price = idToMarketItem[itemId].price */\n      swap1\n      pop\n        /* \"contracts/Marketplace2/Marketplace.sol\":19085:19097  uint tokenId */\n      0x00\n        /* \"contracts/Marketplace2/Marketplace.sol\":19100:19114  idToMarketItem */\n      0x0f\n        /* \"contracts/Marketplace2/Marketplace.sol\":19100:19122  idToMarketItem[itemId] */\n      0x00\n        /* \"contracts/Marketplace2/Marketplace.sol\":19115:19121  itemId */\n      dup6\n        /* \"contracts/Marketplace2/Marketplace.sol\":19100:19122  idToMarketItem[itemId] */\n      dup2\n      mstore\n      0x20\n      add\n      swap1\n      dup2\n      mstore\n      0x20\n      add\n      0x00\n      keccak256\n        /* \"contracts/Marketplace2/Marketplace.sol\":19100:19130  idToMarketItem[itemId].tokenId */\n      0x01\n      add\n      sload\n        /* \"contracts/Marketplace2/Marketplace.sol\":19085:19130  uint tokenId = idToMarketItem[itemId].tokenId */\n      swap1\n      pop\n        /* \"contracts/Marketplace2/Marketplace.sol\":19136:19150  address seller */\n      0x00\n        /* \"contracts/Marketplace2/Marketplace.sol\":19154:19168  idToMarketItem */\n      0x0f\n        /* \"contracts/Marketplace2/Marketplace.sol\":19154:19176  idToMarketItem[itemId] */\n      0x00\n        /* \"contracts/Marketplace2/Marketplace.sol\":19169:19175  itemId */\n      dup7\n        /* \"contracts/Marketplace2/Marketplace.sol\":19154:19176  idToMarketItem[itemId] */\n      dup2\n      mstore\n      0x20\n      add\n      swap1\n      dup2\n      mstore\n      0x20\n      add\n      0x00\n      keccak256\n        /* \"contracts/Marketplace2/Marketplace.sol\":19154:19183  idToMarketItem[itemId].seller */\n      0x02\n      add\n      0x00\n      swap1\n      sload\n      swap1\n      0x0100\n      exp\n      swap1\n      div\n      0xffffffffffffffffffffffffffffffffffffffff\n      and\n        /* \"contracts/Marketplace2/Marketplace.sol\":19136:19183  address seller =  idToMarketItem[itemId].seller */\n      swap1\n      pop\n        /* \"contracts/Marketplace2/Marketplace.sol\":19189:19221  IFactory.ingameItems memory item */\n      0x00\n        /* \"contracts/Marketplace2/Marketplace.sol\":19224:19231  factory */\n      0x0a\n      0x00\n      swap1\n      sload\n      swap1\n      0x0100\n      exp\n      swap1\n      div\n      0xffffffffffffffffffffffffffffffffffffffff\n      and\n        /* \"contracts/Marketplace2/Marketplace.sol\":19224:19242  factory.ingameItem */\n      0xffffffffffffffffffffffffffffffffffffffff\n      and\n      0xd30bdac9\n        /* \"contracts/Marketplace2/Marketplace.sol\":19243:19250  tokenId */\n      dup5\n        /* \"contracts/Marketplace2/Marketplace.sol\":19224:19251  factory.ingameItem(tokenId) */\n      mload(0x40)\n      dup3\n      0xffffffff\n      and\n      0xe0\n      shl\n      dup2\n      mstore\n      0x04\n      add\n      tag_258\n      swap2\n      swap1\n      tag_109\n      jump\t// in\n    tag_258:\n      0x00\n      mload(0x40)\n      dup1\n      dup4\n      sub\n      dup2\n      dup7\n      gas\n      staticcall\n      iszero\n      dup1\n      iszero\n      tag_260\n      jumpi\n      returndatasize\n      0x00\n      dup1\n      returndatacopy\n      revert(0x00, returndatasize)\n    tag_260:\n      pop\n      pop\n      pop\n      pop\n      mload(0x40)\n      returndatasize\n      0x00\n      dup3\n      returndatacopy\n      returndatasize\n      not(0x1f)\n      0x1f\n      dup3\n      add\n      and\n      dup3\n      add\n      dup1\n      0x40\n      mstore\n      pop\n      dup2\n      add\n      swap1\n      tag_261\n      swap2\n      swap1\n      tag_128\n      jump\t// in\n    tag_261:\n        /* \"contracts/Marketplace2/Marketplace.sol\":19189:19251  IFactory.ingameItems memory item = factory.ingameItem(tokenId) */\n      swap1\n      pop\n        /* \"contracts/Marketplace2/Marketplace.sol\":19275:19280  price */\n      dup4\n        /* \"contracts/Marketplace2/Marketplace.sol\":19265:19271  amount */\n      dup6\n        /* \"contracts/Marketplace2/Marketplace.sol\":19265:19280  amount == price */\n      eq\n        /* \"contracts/Marketplace2/Marketplace.sol\":19257:19349  require(amount == price, \"Please submit the asking price in order to complete the purchase\") */\n      tag_262\n      jumpi\n      mload(0x40)\n      0x08c379a000000000000000000000000000000000000000000000000000000000\n      dup2\n      mstore\n      0x04\n      add\n      tag_263\n      swap1\n      tag_264\n      jump\t// in\n    tag_263:\n      mload(0x40)\n      dup1\n      swap2\n      sub\n      swap1\n      revert\n    tag_262:\n        /* \"contracts/Marketplace2/Marketplace.sol\":19378:19383  false */\n      0x00\n        /* \"contracts/Marketplace2/Marketplace.sol\":19363:19383  item.ingame == false */\n      iszero\n      iszero\n        /* \"contracts/Marketplace2/Marketplace.sol\":19363:19367  item */\n      dup2\n        /* \"contracts/Marketplace2/Marketplace.sol\":19363:19374  item.ingame */\n      0x80\n      add\n      mload\n        /* \"contracts/Marketplace2/Marketplace.sol\":19363:19383  item.ingame == false */\n      iszero\n      iszero\n      eq\n        /* \"contracts/Marketplace2/Marketplace.sol\":19355:19415  require(item.ingame == false, \"Item is not available now !\") */\n      tag_265\n      jumpi\n      mload(0x40)\n      0x08c379a000000000000000000000000000000000000000000000000000000000\n      dup2\n      mstore\n      0x04\n      add\n      tag_266\n      swap1\n      tag_199\n      jump\t// in\n    tag_266:\n      mload(0x40)\n      dup1\n      swap2\n      sub\n      swap1\n      revert\n    tag_265:\n        /* \"contracts/Marketplace2/Marketplace.sol\":19421:19456  _safeBuyItem(itemId,amount,tokenId) */\n      tag_267\n        /* \"contracts/Marketplace2/Marketplace.sol\":19434:19440  itemId */\n      dup7\n        /* \"contracts/Marketplace2/Marketplace.sol\":19441:19447  amount */\n      dup7\n        /* \"contracts/Marketplace2/Marketplace.sol\":19448:19455  tokenId */\n      dup6\n        /* \"contracts/Marketplace2/Marketplace.sol\":19421:19433  _safeBuyItem */\n      tag_268\n        /* \"contracts/Marketplace2/Marketplace.sol\":19421:19456  _safeBuyItem(itemId,amount,tokenId) */\n      jump\t// in\n    tag_267:\n        /* \"contracts/Marketplace2/Marketplace.sol\":19501:19511  msg.sender */\n      caller\n        /* \"contracts/Marketplace2/Marketplace.sol\":19462:19476  idToMarketItem */\n      0x0f\n        /* \"contracts/Marketplace2/Marketplace.sol\":19462:19484  idToMarketItem[itemId] */\n      0x00\n        /* \"contracts/Marketplace2/Marketplace.sol\":19477:19483  itemId */\n      dup9\n        /* \"contracts/Marketplace2/Marketplace.sol\":19462:19484  idToMarketItem[itemId] */\n      dup2\n      mstore\n      0x20\n      add\n      swap1\n      dup2\n      mstore\n      0x20\n      add\n      0x00\n      keccak256\n        /* \"contracts/Marketplace2/Marketplace.sol\":19462:19490  idToMarketItem[itemId].owner */\n      0x03\n      add\n      0x00\n        /* \"contracts/Marketplace2/Marketplace.sol\":19462:19512  idToMarketItem[itemId].owner = address(msg.sender) */\n      0x0100\n      exp\n      dup2\n      sload\n      dup2\n      0xffffffffffffffffffffffffffffffffffffffff\n      mul\n      not\n      and\n      swap1\n      dup4\n      0xffffffffffffffffffffffffffffffffffffffff\n      and\n      mul\n      or\n      swap1\n      sstore\n      pop\n        /* \"contracts/Marketplace2/Marketplace.sol\":19550:19566  ItemStatus.AVAIL */\n      0x00\n        /* \"contracts/Marketplace2/Marketplace.sol\":19518:19532  idToMarketItem */\n      0x0f\n        /* \"contracts/Marketplace2/Marketplace.sol\":19518:19540  idToMarketItem[itemId] */\n      0x00\n        /* \"contracts/Marketplace2/Marketplace.sol\":19533:19539  itemId */\n      dup9\n        /* \"contracts/Marketplace2/Marketplace.sol\":19518:19540  idToMarketItem[itemId] */\n      dup2\n      mstore\n      0x20\n      add\n      swap1\n      dup2\n      mstore\n      0x20\n      add\n      0x00\n      keccak256\n        /* \"contracts/Marketplace2/Marketplace.sol\":19518:19547  idToMarketItem[itemId].status */\n      0x05\n      add\n      0x00\n        /* \"contracts/Marketplace2/Marketplace.sol\":19518:19566  idToMarketItem[itemId].status = ItemStatus.AVAIL */\n      0x0100\n      exp\n      dup2\n      sload\n      dup2\n      0xff\n      mul\n      not\n      and\n      swap1\n      dup4\n      0x01\n      dup2\n      gt\n      iszero\n      tag_269\n      jumpi\n      tag_270\n      tag_134\n      jump\t// in\n    tag_270:\n    tag_269:\n      mul\n      or\n      swap1\n      sstore\n      pop\n        /* \"contracts/Marketplace2/Marketplace.sol\":19572:19594  _itemsSold.increment() */\n      tag_271\n        /* \"contracts/Marketplace2/Marketplace.sol\":19572:19582  _itemsSold */\n      0x0e\n        /* \"contracts/Marketplace2/Marketplace.sol\":19572:19592  _itemsSold.increment */\n      tag_209\n        /* \"contracts/Marketplace2/Marketplace.sol\":19572:19594  _itemsSold.increment() */\n      jump\t// in\n    tag_271:\n        /* \"contracts/Marketplace2/Marketplace.sol\":19705:19715  msg.sender */\n      caller\n        /* \"contracts/Marketplace2/Marketplace.sol\":19606:19762  BuyItemSuccessful(... */\n      0xffffffffffffffffffffffffffffffffffffffff\n      and\n        /* \"contracts/Marketplace2/Marketplace.sol\":19666:19672  seller */\n      dup3\n        /* \"contracts/Marketplace2/Marketplace.sol\":19606:19762  BuyItemSuccessful(... */\n      0xffffffffffffffffffffffffffffffffffffffff\n      and\n        /* \"contracts/Marketplace2/Marketplace.sol\":19649:19656  tokenId */\n      dup5\n        /* \"contracts/Marketplace2/Marketplace.sol\":19606:19762  BuyItemSuccessful(... */\n      0x551327aee12d0a8b3ede8d0e3182a40a5ff3ed9f1811dd622915db30b609b7df\n        /* \"contracts/Marketplace2/Marketplace.sol\":19633:19639  itemId */\n      dup10\n        /* \"contracts/Marketplace2/Marketplace.sol\":19682:19687  price */\n      dup9\n        /* \"contracts/Marketplace2/Marketplace.sol\":19741:19756  block.timestamp */\n      timestamp\n        /* \"contracts/Marketplace2/Marketplace.sol\":19606:19762  BuyItemSuccessful(... */\n      mload(0x40)\n      tag_272\n      swap4\n      swap3\n      swap2\n      swap1\n      tag_273\n      jump\t// in\n    tag_272:\n      mload(0x40)\n      dup1\n      swap2\n      sub\n      swap1\n      log4\n        /* \"contracts/Marketplace2/Marketplace.sol\":19032:19767  {... */\n      pop\n      pop\n      pop\n      pop\n        /* \"contracts/Marketplace2/Marketplace.sol\":18953:19767  function createMarketSale(... */\n      pop\n      pop\n      jump\t// out\n        /* \"contracts/Marketplace2/Marketplace.sol\":16291:16318  uint8 public antaFeePercent */\n    tag_96:\n      0x0b\n      0x15\n      swap1\n      sload\n      swap1\n      0x0100\n      exp\n      swap1\n      div\n      0xff\n      and\n      dup2\n      jump\t// out\n        /* \"contracts/Marketplace2/Marketplace.sol\":16200:16223  IFactory public factory */\n    tag_99:\n      0x0a\n      0x00\n      swap1\n      sload\n      swap1\n      0x0100\n      exp\n      swap1\n      div\n      0xffffffffffffffffffffffffffffffffffffffff\n      and\n      dup2\n      jump\t// out\n        /* \"contracts/Marketplace2/Marketplace.sol\":17553:17690  function getMarketItem(uint256 marketItemId) public view returns (MarketItem memory) {... */\n    tag_104:\n        /* \"contracts/Marketplace2/Marketplace.sol\":17619:17636  MarketItem memory */\n      tag_274\n      tag_130\n      jump\t// in\n    tag_274:\n        /* \"contracts/Marketplace2/Marketplace.sol\":17655:17669  idToMarketItem */\n      0x0f\n        /* \"contracts/Marketplace2/Marketplace.sol\":17655:17683  idToMarketItem[marketItemId] */\n      0x00\n        /* \"contracts/Marketplace2/Marketplace.sol\":17670:17682  marketItemId */\n      dup4\n        /* \"contracts/Marketplace2/Marketplace.sol\":17655:17683  idToMarketItem[marketItemId] */\n      dup2\n      mstore\n      0x20\n      add\n      swap1\n      dup2\n      mstore\n      0x20\n      add\n      0x00\n      keccak256\n        /* \"contracts/Marketplace2/Marketplace.sol\":17648:17683  return idToMarketItem[marketItemId] */\n      mload(0x40)\n      dup1\n      0xc0\n      add\n      0x40\n      mstore\n      swap1\n      dup2\n      0x00\n      dup3\n      add\n      sload\n      dup2\n      mstore\n      0x20\n      add\n      0x01\n      dup3\n      add\n      sload\n      dup2\n      mstore\n      0x20\n      add\n      0x02\n      dup3\n      add\n      0x00\n      swap1\n      sload\n      swap1\n      0x0100\n      exp\n      swap1\n      div\n      0xffffffffffffffffffffffffffffffffffffffff\n      and\n      0xffffffffffffffffffffffffffffffffffffffff\n      and\n      0xffffffffffffffffffffffffffffffffffffffff\n      and\n      dup2\n      mstore\n      0x20\n      add\n      0x03\n      dup3\n      add\n      0x00\n      swap1\n      sload\n      swap1\n      0x0100\n      exp\n      swap1\n      div\n      0xffffffffffffffffffffffffffffffffffffffff\n      and\n      0xffffffffffffffffffffffffffffffffffffffff\n      and\n      0xffffffffffffffffffffffffffffffffffffffff\n      and\n      dup2\n      mstore\n      0x20\n      add\n      0x04\n      dup3\n      add\n      sload\n      dup2\n      mstore\n      0x20\n      add\n      0x05\n      dup3\n      add\n      0x00\n      swap1\n      sload\n      swap1\n      0x0100\n      exp\n      swap1\n      div\n      0xff\n      and\n      0x01\n      dup2\n      gt\n      iszero\n      tag_276\n      jumpi\n      tag_277\n      tag_134\n      jump\t// in\n    tag_277:\n    tag_276:\n      0x01\n      dup2\n      gt\n      iszero\n      tag_278\n      jumpi\n      tag_279\n      tag_134\n      jump\t// in\n    tag_279:\n    tag_278:\n      dup2\n      mstore\n      pop\n      pop\n      swap1\n      pop\n        /* \"contracts/Marketplace2/Marketplace.sol\":17553:17690  function getMarketItem(uint256 marketItemId) public view returns (MarketItem memory) {... */\n      swap2\n      swap1\n      pop\n      jump\t// out\n        /* \"contracts/Marketplace2/Marketplace.sol\":18206:18299  function currentId() public view returns(uint256) { ... */\n    tag_107:\n        /* \"contracts/Marketplace2/Marketplace.sol\":18247:18254  uint256 */\n      0x00\n        /* \"contracts/Marketplace2/Marketplace.sol\":18274:18292  _itemIds.current() */\n      tag_281\n        /* \"contracts/Marketplace2/Marketplace.sol\":18274:18282  _itemIds */\n      0x0d\n        /* \"contracts/Marketplace2/Marketplace.sol\":18274:18290  _itemIds.current */\n      tag_203\n        /* \"contracts/Marketplace2/Marketplace.sol\":18274:18292  _itemIds.current() */\n      jump\t// in\n    tag_281:\n        /* \"contracts/Marketplace2/Marketplace.sol\":18267:18292  return _itemIds.current() */\n      swap1\n      pop\n        /* \"contracts/Marketplace2/Marketplace.sol\":18206:18299  function currentId() public view returns(uint256) { ... */\n      swap1\n      jump\t// out\n        /* \"contracts/Marketplace2/Marketplace.sol\":2558:2756  function transferOwnership(address newOwner) public virtual onlyOwner {... */\n    tag_112:\n        /* \"contracts/Marketplace2/Marketplace.sol\":1899:1911  _msgSender() */\n      tag_283\n        /* \"contracts/Marketplace2/Marketplace.sol\":1899:1909  _msgSender */\n      tag_171\n        /* \"contracts/Marketplace2/Marketplace.sol\":1899:1911  _msgSender() */\n      jump\t// in\n    tag_283:\n        /* \"contracts/Marketplace2/Marketplace.sol\":1888:1911  owner() == _msgSender() */\n      0xffffffffffffffffffffffffffffffffffffffff\n      and\n        /* \"contracts/Marketplace2/Marketplace.sol\":1888:1895  owner() */\n      tag_284\n        /* \"contracts/Marketplace2/Marketplace.sol\":1888:1893  owner */\n      tag_89\n        /* \"contracts/Marketplace2/Marketplace.sol\":1888:1895  owner() */\n      jump\t// in\n    tag_284:\n        /* \"contracts/Marketplace2/Marketplace.sol\":1888:1911  owner() == _msgSender() */\n      0xffffffffffffffffffffffffffffffffffffffff\n      and\n      eq\n        /* \"contracts/Marketplace2/Marketplace.sol\":1880:1948  require(owner() == _msgSender(), \"Ownable: caller is not the owner\") */\n      tag_285\n      jumpi\n      mload(0x40)\n      0x08c379a000000000000000000000000000000000000000000000000000000000\n      dup2\n      mstore\n      0x04\n      add\n      tag_286\n      swap1\n      tag_175\n      jump\t// in\n    tag_286:\n      mload(0x40)\n      dup1\n      swap2\n      sub\n      swap1\n      revert\n    tag_285:\n        /* \"contracts/Marketplace2/Marketplace.sol\":2666:2667  0 */\n      0x00\n        /* \"contracts/Marketplace2/Marketplace.sol\":2646:2668  newOwner != address(0) */\n      0xffffffffffffffffffffffffffffffffffffffff\n      and\n        /* \"contracts/Marketplace2/Marketplace.sol\":2646:2654  newOwner */\n      dup2\n        /* \"contracts/Marketplace2/Marketplace.sol\":2646:2668  newOwner != address(0) */\n      0xffffffffffffffffffffffffffffffffffffffff\n      and\n      sub\n        /* \"contracts/Marketplace2/Marketplace.sol\":2638:2711  require(newOwner != address(0), \"Ownable: new owner is the zero address\") */\n      tag_288\n      jumpi\n      mload(0x40)\n      0x08c379a000000000000000000000000000000000000000000000000000000000\n      dup2\n      mstore\n      0x04\n      add\n      tag_289\n      swap1\n      tag_290\n      jump\t// in\n    tag_289:\n      mload(0x40)\n      dup1\n      swap2\n      sub\n      swap1\n      revert\n    tag_288:\n        /* \"contracts/Marketplace2/Marketplace.sol\":2721:2749  _transferOwnership(newOwner) */\n      tag_291\n        /* \"contracts/Marketplace2/Marketplace.sol\":2740:2748  newOwner */\n      dup2\n        /* \"contracts/Marketplace2/Marketplace.sol\":2721:2739  _transferOwnership */\n      tag_255\n        /* \"contracts/Marketplace2/Marketplace.sol\":2721:2749  _transferOwnership(newOwner) */\n      jump\t// in\n    tag_291:\n        /* \"contracts/Marketplace2/Marketplace.sol\":2558:2756  function transferOwnership(address newOwner) public virtual onlyOwner {... */\n      pop\n      jump\t// out\n        /* \"contracts/Marketplace2/Marketplace.sol\":16229:16252  IERC721 public mainNFTs */\n    tag_114:\n      0x0b\n      0x00\n      swap1\n      sload\n      swap1\n      0x0100\n      exp\n      swap1\n      div\n      0xffffffffffffffffffffffffffffffffffffffff\n      and\n      dup2\n      jump\t// out\n        /* \"contracts/Marketplace2/Marketplace.sol\":15977:16024  mapping (uint256 => MarketItem) public allItems */\n    tag_119:\n      mstore(0x20, 0x07)\n      dup1\n      0x00\n      mstore\n      keccak256(0x00, 0x40)\n      0x00\n      swap2\n      pop\n      swap1\n      pop\n      dup1\n      0x00\n      add\n      sload\n      swap1\n      dup1\n      0x01\n      add\n      sload\n      swap1\n      dup1\n      0x02\n      add\n      0x00\n      swap1\n      sload\n      swap1\n      0x0100\n      exp\n      swap1\n      div\n      0xffffffffffffffffffffffffffffffffffffffff\n      and\n      swap1\n      dup1\n      0x03\n      add\n      0x00\n      swap1\n      sload\n      swap1\n      0x0100\n      exp\n      swap1\n      div\n      0xffffffffffffffffffffffffffffffffffffffff\n      and\n      swap1\n      dup1\n      0x04\n      add\n      sload\n      swap1\n      dup1\n      0x05\n      add\n      0x00\n      swap1\n      sload\n      swap1\n      0x0100\n      exp\n      swap1\n      div\n      0xff\n      and\n      swap1\n      pop\n      dup7\n      jump\t// out\n        /* \"contracts/Marketplace2/Marketplace.sol\":554:650  function _msgSender() internal view virtual returns (address) {... */\n    tag_171:\n        /* \"contracts/Marketplace2/Marketplace.sol\":607:614  address */\n      0x00\n        /* \"contracts/Marketplace2/Marketplace.sol\":633:643  msg.sender */\n      caller\n        /* \"contracts/Marketplace2/Marketplace.sol\":626:643  return msg.sender */\n      swap1\n      pop\n        /* \"contracts/Marketplace2/Marketplace.sol\":554:650  function _msgSender() internal view virtual returns (address) {... */\n      swap1\n      jump\t// out\n        /* \"contracts/Marketplace2/Marketplace.sol\":21507:21708  function _safeTransferToMarket(uint256 tokenId) private {... */\n    tag_201:\n        /* \"contracts/Marketplace2/Marketplace.sol\":21573:21580  factory */\n      0x0a\n      0x00\n      swap1\n      sload\n      swap1\n      0x0100\n      exp\n      swap1\n      div\n      0xffffffffffffffffffffffffffffffffffffffff\n      and\n        /* \"contracts/Marketplace2/Marketplace.sol\":21573:21599  factory.setOwnerIngameItem */\n      0xffffffffffffffffffffffffffffffffffffffff\n      and\n      0xc1e9518a\n        /* \"contracts/Marketplace2/Marketplace.sol\":21600:21610  msg.sender */\n      caller\n        /* \"contracts/Marketplace2/Marketplace.sol\":21619:21623  this */\n      address\n        /* \"contracts/Marketplace2/Marketplace.sol\":21626:21633  tokenId */\n      dup5\n        /* \"contracts/Marketplace2/Marketplace.sol\":21573:21634  factory.setOwnerIngameItem(msg.sender,address(this), tokenId) */\n      mload(0x40)\n      dup5\n      0xffffffff\n      and\n      0xe0\n      shl\n      dup2\n      mstore\n      0x04\n      add\n      tag_294\n      swap4\n      swap3\n      swap2\n      swap1\n      tag_159\n      jump\t// in\n    tag_294:\n      0x00\n      mload(0x40)\n      dup1\n      dup4\n      sub\n      dup2\n      0x00\n      dup8\n      dup1\n      extcodesize\n      iszero\n      dup1\n      iszero\n      tag_295\n      jumpi\n      0x00\n      dup1\n      revert\n    tag_295:\n      pop\n      gas\n      call\n      iszero\n      dup1\n      iszero\n      tag_297\n      jumpi\n      returndatasize\n      0x00\n      dup1\n      returndatacopy\n      revert(0x00, returndatasize)\n    tag_297:\n      pop\n      pop\n      pop\n      pop\n        /* \"contracts/Marketplace2/Marketplace.sol\":21644:21652  mainNFTs */\n      0x0b\n      0x00\n      swap1\n      sload\n      swap1\n      0x0100\n      exp\n      swap1\n      div\n      0xffffffffffffffffffffffffffffffffffffffff\n      and\n        /* \"contracts/Marketplace2/Marketplace.sol\":21644:21665  mainNFTs.transferFrom */\n      0xffffffffffffffffffffffffffffffffffffffff\n      and\n      0x23b872dd\n        /* \"contracts/Marketplace2/Marketplace.sol\":21666:21676  msg.sender */\n      caller\n        /* \"contracts/Marketplace2/Marketplace.sol\":21686:21690  this */\n      address\n        /* \"contracts/Marketplace2/Marketplace.sol\":21693:21700  tokenId */\n      dup5\n        /* \"contracts/Marketplace2/Marketplace.sol\":21644:21701  mainNFTs.transferFrom(msg.sender, address(this), tokenId) */\n      mload(0x40)\n      dup5\n      0xffffffff\n      and\n      0xe0\n      shl\n      dup2\n      mstore\n      0x04\n      add\n      tag_298\n      swap4\n      swap3\n      swap2\n      swap1\n      tag_159\n      jump\t// in\n    tag_298:\n      0x00\n      mload(0x40)\n      dup1\n      dup4\n      sub\n      dup2\n      0x00\n      dup8\n      dup1\n      extcodesize\n      iszero\n      dup1\n      iszero\n      tag_299\n      jumpi\n      0x00\n      dup1\n      revert\n    tag_299:\n      pop\n      gas\n      call\n      iszero\n      dup1\n      iszero\n      tag_301\n      jumpi\n      returndatasize\n      0x00\n      dup1\n      returndatacopy\n      revert(0x00, returndatasize)\n    tag_301:\n      pop\n      pop\n      pop\n      pop\n        /* \"contracts/Marketplace2/Marketplace.sol\":21507:21708  function _safeTransferToMarket(uint256 tokenId) private {... */\n      pop\n      jump\t// out\n        /* \"contracts/Marketplace2/Marketplace.sol\":11851:11963  function current(Counter storage counter) internal view returns (uint256) {... */\n    tag_203:\n        /* \"contracts/Marketplace2/Marketplace.sol\":11916:11923  uint256 */\n      0x00\n        /* \"contracts/Marketplace2/Marketplace.sol\":11942:11949  counter */\n      dup2\n        /* \"contracts/Marketplace2/Marketplace.sol\":11942:11956  counter._value */\n      0x00\n      add\n      sload\n        /* \"contracts/Marketplace2/Marketplace.sol\":11935:11956  return counter._value */\n      swap1\n      pop\n        /* \"contracts/Marketplace2/Marketplace.sol\":11851:11963  function current(Counter storage counter) internal view returns (uint256) {... */\n      swap2\n      swap1\n      pop\n      jump\t// out\n        /* \"contracts/Marketplace2/Marketplace.sol\":11969:12092  function increment(Counter storage counter) internal {... */\n    tag_209:\n        /* \"contracts/Marketplace2/Marketplace.sol\":12074:12075  1 */\n      0x01\n        /* \"contracts/Marketplace2/Marketplace.sol\":12056:12063  counter */\n      dup2\n        /* \"contracts/Marketplace2/Marketplace.sol\":12056:12070  counter._value */\n      0x00\n      add\n      0x00\n        /* \"contracts/Marketplace2/Marketplace.sol\":12056:12075  counter._value += 1 */\n      dup3\n      dup3\n      sload\n      add\n      swap3\n      pop\n      pop\n      dup2\n      swap1\n      sstore\n      pop\n        /* \"contracts/Marketplace2/Marketplace.sol\":11969:12092  function increment(Counter storage counter) internal {... */\n      pop\n      jump\t// out\n        /* \"contracts/Marketplace2/Marketplace.sol\":2910:3097  function _transferOwnership(address newOwner) internal virtual {... */\n    tag_255:\n        /* \"contracts/Marketplace2/Marketplace.sol\":2983:2999  address oldOwner */\n      0x00\n        /* \"contracts/Marketplace2/Marketplace.sol\":3002:3008  _owner */\n      0x0c\n      0x00\n      swap1\n      sload\n      swap1\n      0x0100\n      exp\n      swap1\n      div\n      0xffffffffffffffffffffffffffffffffffffffff\n      and\n        /* \"contracts/Marketplace2/Marketplace.sol\":2983:3008  address oldOwner = _owner */\n      swap1\n      pop\n        /* \"contracts/Marketplace2/Marketplace.sol\":3027:3035  newOwner */\n      dup2\n        /* \"contracts/Marketplace2/Marketplace.sol\":3018:3024  _owner */\n      0x0c\n      0x00\n        /* \"contracts/Marketplace2/Marketplace.sol\":3018:3035  _owner = newOwner */\n      0x0100\n      exp\n      dup2\n      sload\n      dup2\n      0xffffffffffffffffffffffffffffffffffffffff\n      mul\n      not\n      and\n      swap1\n      dup4\n      0xffffffffffffffffffffffffffffffffffffffff\n      and\n      mul\n      or\n      swap1\n      sstore\n      pop\n        /* \"contracts/Marketplace2/Marketplace.sol\":3081:3089  newOwner */\n      dup2\n        /* \"contracts/Marketplace2/Marketplace.sol\":3050:3090  OwnershipTransferred(oldOwner, newOwner) */\n      0xffffffffffffffffffffffffffffffffffffffff\n      and\n        /* \"contracts/Marketplace2/Marketplace.sol\":3071:3079  oldOwner */\n      dup2\n        /* \"contracts/Marketplace2/Marketplace.sol\":3050:3090  OwnershipTransferred(oldOwner, newOwner) */\n      0xffffffffffffffffffffffffffffffffffffffff\n      and\n      0x8be0079c531659141344cd1fd0a4f28419497f9722a3daafe3b4186f6b6457e0\n      mload(0x40)\n      mload(0x40)\n      dup1\n      swap2\n      sub\n      swap1\n      log3\n        /* \"contracts/Marketplace2/Marketplace.sol\":2973:3097  {... */\n      pop\n        /* \"contracts/Marketplace2/Marketplace.sol\":2910:3097  function _transferOwnership(address newOwner) internal virtual {... */\n      pop\n      jump\t// out\n        /* \"contracts/Marketplace2/Marketplace.sol\":21715:22033  function _safeBuyItem(uint256 itemId,uint256 amount, uint256 tokenId ) private { ... */\n    tag_268:\n        /* \"contracts/Marketplace2/Marketplace.sol\":21805:21814  mainToken */\n      0x09\n      0x00\n      swap1\n      sload\n      swap1\n      0x0100\n      exp\n      swap1\n      div\n      0xffffffffffffffffffffffffffffffffffffffff\n      and\n        /* \"contracts/Marketplace2/Marketplace.sol\":21805:21827  mainToken.transferFrom */\n      0xffffffffffffffffffffffffffffffffffffffff\n      and\n      0x23b872dd\n        /* \"contracts/Marketplace2/Marketplace.sol\":21828:21838  msg.sender */\n      caller\n        /* \"contracts/Marketplace2/Marketplace.sol\":21840:21854  idToMarketItem */\n      0x0f\n        /* \"contracts/Marketplace2/Marketplace.sol\":21840:21862  idToMarketItem[itemId] */\n      0x00\n        /* \"contracts/Marketplace2/Marketplace.sol\":21855:21861  itemId */\n      dup8\n        /* \"contracts/Marketplace2/Marketplace.sol\":21840:21862  idToMarketItem[itemId] */\n      dup2\n      mstore\n      0x20\n      add\n      swap1\n      dup2\n      mstore\n      0x20\n      add\n      0x00\n      keccak256\n        /* \"contracts/Marketplace2/Marketplace.sol\":21840:21869  idToMarketItem[itemId].seller */\n      0x02\n      add\n      0x00\n      swap1\n      sload\n      swap1\n      0x0100\n      exp\n      swap1\n      div\n      0xffffffffffffffffffffffffffffffffffffffff\n      and\n        /* \"contracts/Marketplace2/Marketplace.sol\":21872:21878  amount */\n      dup6\n        /* \"contracts/Marketplace2/Marketplace.sol\":21805:21879  mainToken.transferFrom(msg.sender, idToMarketItem[itemId].seller , amount) */\n      mload(0x40)\n      dup5\n      0xffffffff\n      and\n      0xe0\n      shl\n      dup2\n      mstore\n      0x04\n      add\n      tag_306\n      swap4\n      swap3\n      swap2\n      swap1\n      tag_159\n      jump\t// in\n    tag_306:\n      0x20\n      mload(0x40)\n      dup1\n      dup4\n      sub\n      dup2\n      0x00\n      dup8\n      gas\n      call\n      iszero\n      dup1\n      iszero\n      tag_308\n      jumpi\n      returndatasize\n      0x00\n      dup1\n      returndatacopy\n      revert(0x00, returndatasize)\n    tag_308:\n      pop\n      pop\n      pop\n      pop\n      mload(0x40)\n      returndatasize\n      not(0x1f)\n      0x1f\n      dup3\n      add\n      and\n      dup3\n      add\n      dup1\n      0x40\n      mstore\n      pop\n      dup2\n      add\n      swap1\n      tag_309\n      swap2\n      swap1\n      tag_310\n      jump\t// in\n    tag_309:\n      pop\n        /* \"contracts/Marketplace2/Marketplace.sol\":21889:21896  factory */\n      0x0a\n      0x00\n      swap1\n      sload\n      swap1\n      0x0100\n      exp\n      swap1\n      div\n      0xffffffffffffffffffffffffffffffffffffffff\n      and\n        /* \"contracts/Marketplace2/Marketplace.sol\":21889:21915  factory.setOwnerIngameItem */\n      0xffffffffffffffffffffffffffffffffffffffff\n      and\n      0xc1e9518a\n        /* \"contracts/Marketplace2/Marketplace.sol\":21916:21926  msg.sender */\n      caller\n        /* \"contracts/Marketplace2/Marketplace.sol\":21935:21939  this */\n      address\n        /* \"contracts/Marketplace2/Marketplace.sol\":21942:21949  tokenId */\n      dup5\n        /* \"contracts/Marketplace2/Marketplace.sol\":21889:21950  factory.setOwnerIngameItem(msg.sender,address(this), tokenId) */\n      mload(0x40)\n      dup5\n      0xffffffff\n      and\n      0xe0\n      shl\n      dup2\n      mstore\n      0x04\n      add\n      tag_311\n      swap4\n      swap3\n      swap2\n      swap1\n      tag_159\n      jump\t// in\n    tag_311:\n      0x00\n      mload(0x40)\n      dup1\n      dup4\n      sub\n      dup2\n      0x00\n      dup8\n      dup1\n      extcodesize\n      iszero\n      dup1\n      iszero\n      tag_312\n      jumpi\n      0x00\n      dup1\n      revert\n    tag_312:\n      pop\n      gas\n      call\n      iszero\n      dup1\n      iszero\n      tag_314\n      jumpi\n      returndatasize\n      0x00\n      dup1\n      returndatacopy\n      revert(0x00, returndatasize)\n    tag_314:\n      pop\n      pop\n      pop\n      pop\n        /* \"contracts/Marketplace2/Marketplace.sol\":21960:21968  mainNFTs */\n      0x0b\n      0x00\n      swap1\n      sload\n      swap1\n      0x0100\n      exp\n      swap1\n      div\n      0xffffffffffffffffffffffffffffffffffffffff\n      and\n        /* \"contracts/Marketplace2/Marketplace.sol\":21960:21981  mainNFTs.transferFrom */\n      0xffffffffffffffffffffffffffffffffffffffff\n      and\n      0x23b872dd\n        /* \"contracts/Marketplace2/Marketplace.sol\":21990:21994  this */\n      address\n        /* \"contracts/Marketplace2/Marketplace.sol\":22005:22015  msg.sender */\n      caller\n        /* \"contracts/Marketplace2/Marketplace.sol\":22018:22025  tokenId */\n      dup5\n        /* \"contracts/Marketplace2/Marketplace.sol\":21960:22026  mainNFTs.transferFrom(address(this), address(msg.sender), tokenId) */\n      mload(0x40)\n      dup5\n      0xffffffff\n      and\n      0xe0\n      shl\n      dup2\n      mstore\n      0x04\n      add\n      tag_315\n      swap4\n      swap3\n      swap2\n      swap1\n      tag_159\n      jump\t// in\n    tag_315:\n      0x00\n      mload(0x40)\n      dup1\n      dup4\n      sub\n      dup2\n      0x00\n      dup8\n      dup1\n      extcodesize\n      iszero\n      dup1\n      iszero\n      tag_316\n      jumpi\n      0x00\n      dup1\n      revert\n    tag_316:\n      pop\n      gas\n      call\n      iszero\n      dup1\n      iszero\n      tag_318\n      jumpi\n      returndatasize\n      0x00\n      dup1\n      returndatacopy\n      revert(0x00, returndatasize)\n    tag_318:\n      pop\n      pop\n      pop\n      pop\n        /* \"contracts/Marketplace2/Marketplace.sol\":21715:22033  function _safeBuyItem(uint256 itemId,uint256 amount, uint256 tokenId ) private { ... */\n      pop\n      pop\n      pop\n      jump\t// out\n    tag_122:\n      mload(0x40)\n      dup1\n      0xa0\n      add\n      0x40\n      mstore\n      dup1\n      0x00\n      dup2\n      mstore\n      0x20\n      add\n      and(0xffffffffffffffffffffffffffffffffffffffff, 0x00)\n      dup2\n      mstore\n      0x20\n      add\n      0x60\n      dup2\n      mstore\n      0x20\n      add\n      0x60\n      dup2\n      mstore\n      0x20\n      add\n      iszero(iszero(0x00))\n      dup2\n      mstore\n      pop\n      swap1\n      jump\t// out\n    tag_130:\n      mload(0x40)\n      dup1\n      0xc0\n      add\n      0x40\n      mstore\n      dup1\n      0x00\n      dup2\n      mstore\n      0x20\n      add\n      0x00\n      dup2\n      mstore\n      0x20\n      add\n      and(0xffffffffffffffffffffffffffffffffffffffff, 0x00)\n      dup2\n      mstore\n      0x20\n      add\n      and(0xffffffffffffffffffffffffffffffffffffffff, 0x00)\n      dup2\n      mstore\n      0x20\n      add\n      0x00\n      dup2\n      mstore\n      0x20\n      add\n      0x00\n      0x01\n      dup2\n      gt\n      iszero\n      tag_319\n      jumpi\n      tag_320\n      tag_134\n      jump\t// in\n    tag_320:\n    tag_319:\n      dup2\n      mstore\n      pop\n      swap1\n      jump\t// out\n        /* \"#utility.yul\":7:82   */\n    tag_321:\n        /* \"#utility.yul\":40:46   */\n      0x00\n        /* \"#utility.yul\":73:75   */\n      0x40\n        /* \"#utility.yul\":67:76   */\n      mload\n        /* \"#utility.yul\":57:76   */\n      swap1\n      pop\n        /* \"#utility.yul\":7:82   */\n      swap1\n      jump\t// out\n        /* \"#utility.yul\":88:205   */\n    tag_322:\n        /* \"#utility.yul\":197:198   */\n      0x00\n        /* \"#utility.yul\":194:195   */\n      dup1\n        /* \"#utility.yul\":187:199   */\n      revert\n        /* \"#utility.yul\":211:328   */\n    tag_323:\n        /* \"#utility.yul\":320:321   */\n      0x00\n        /* \"#utility.yul\":317:318   */\n      dup1\n        /* \"#utility.yul\":310:322   */\n      revert\n        /* \"#utility.yul\":334:411   */\n    tag_324:\n        /* \"#utility.yul\":371:378   */\n      0x00\n        /* \"#utility.yul\":400:405   */\n      dup2\n        /* \"#utility.yul\":389:405   */\n      swap1\n      pop\n        /* \"#utility.yul\":334:411   */\n      swap2\n      swap1\n      pop\n      jump\t// out\n        /* \"#utility.yul\":417:539   */\n    tag_325:\n        /* \"#utility.yul\":490:514   */\n      tag_411\n        /* \"#utility.yul\":508:513   */\n      dup2\n        /* \"#utility.yul\":490:514   */\n      tag_324\n      jump\t// in\n    tag_411:\n        /* \"#utility.yul\":483:488   */\n      dup2\n        /* \"#utility.yul\":480:515   */\n      eq\n        /* \"#utility.yul\":470:533   */\n      tag_412\n      jumpi\n        /* \"#utility.yul\":529:530   */\n      0x00\n        /* \"#utility.yul\":526:527   */\n      dup1\n        /* \"#utility.yul\":519:531   */\n      revert\n        /* \"#utility.yul\":470:533   */\n    tag_412:\n        /* \"#utility.yul\":417:539   */\n      pop\n      jump\t// out\n        /* \"#utility.yul\":545:684   */\n    tag_326:\n        /* \"#utility.yul\":591:596   */\n      0x00\n        /* \"#utility.yul\":629:635   */\n      dup2\n        /* \"#utility.yul\":616:636   */\n      calldataload\n        /* \"#utility.yul\":607:636   */\n      swap1\n      pop\n        /* \"#utility.yul\":645:678   */\n      tag_414\n        /* \"#utility.yul\":672:677   */\n      dup2\n        /* \"#utility.yul\":645:678   */\n      tag_325\n      jump\t// in\n    tag_414:\n        /* \"#utility.yul\":545:684   */\n      swap3\n      swap2\n      pop\n      pop\n      jump\t// out\n        /* \"#utility.yul\":690:1019   */\n    tag_32:\n        /* \"#utility.yul\":749:755   */\n      0x00\n        /* \"#utility.yul\":798:800   */\n      0x20\n        /* \"#utility.yul\":786:795   */\n      dup3\n        /* \"#utility.yul\":777:784   */\n      dup5\n        /* \"#utility.yul\":773:796   */\n      sub\n        /* \"#utility.yul\":769:801   */\n      slt\n        /* \"#utility.yul\":766:885   */\n      iszero\n      tag_416\n      jumpi\n        /* \"#utility.yul\":804:883   */\n      tag_417\n      tag_322\n      jump\t// in\n    tag_417:\n        /* \"#utility.yul\":766:885   */\n    tag_416:\n        /* \"#utility.yul\":924:925   */\n      0x00\n        /* \"#utility.yul\":949:1002   */\n      tag_418\n        /* \"#utility.yul\":994:1001   */\n      dup5\n        /* \"#utility.yul\":985:991   */\n      dup3\n        /* \"#utility.yul\":974:983   */\n      dup6\n        /* \"#utility.yul\":970:992   */\n      add\n        /* \"#utility.yul\":949:1002   */\n      tag_326\n      jump\t// in\n    tag_418:\n        /* \"#utility.yul\":939:1002   */\n      swap2\n      pop\n        /* \"#utility.yul\":895:1012   */\n      pop\n        /* \"#utility.yul\":690:1019   */\n      swap3\n      swap2\n      pop\n      pop\n      jump\t// out\n        /* \"#utility.yul\":1025:1133   */\n    tag_327:\n        /* \"#utility.yul\":1102:1126   */\n      tag_420\n        /* \"#utility.yul\":1120:1125   */\n      dup2\n        /* \"#utility.yul\":1102:1126   */\n      tag_324\n      jump\t// in\n    tag_420:\n        /* \"#utility.yul\":1097:1100   */\n      dup3\n        /* \"#utility.yul\":1090:1127   */\n      mstore\n        /* \"#utility.yul\":1025:1133   */\n      pop\n      pop\n      jump\t// out\n        /* \"#utility.yul\":1139:1265   */\n    tag_328:\n        /* \"#utility.yul\":1176:1183   */\n      0x00\n        /* \"#utility.yul\":1216:1258   */\n      0xffffffffffffffffffffffffffffffffffffffff\n        /* \"#utility.yul\":1209:1214   */\n      dup3\n        /* \"#utility.yul\":1205:1259   */\n      and\n        /* \"#utility.yul\":1194:1259   */\n      swap1\n      pop\n        /* \"#utility.yul\":1139:1265   */\n      swap2\n      swap1\n      pop\n      jump\t// out\n        /* \"#utility.yul\":1271:1367   */\n    tag_329:\n        /* \"#utility.yul\":1308:1315   */\n      0x00\n        /* \"#utility.yul\":1337:1361   */\n      tag_423\n        /* \"#utility.yul\":1355:1360   */\n      dup3\n        /* \"#utility.yul\":1337:1361   */\n      tag_328\n      jump\t// in\n    tag_423:\n        /* \"#utility.yul\":1326:1361   */\n      swap1\n      pop\n        /* \"#utility.yul\":1271:1367   */\n      swap2\n      swap1\n      pop\n      jump\t// out\n        /* \"#utility.yul\":1373:1481   */\n    tag_330:\n        /* \"#utility.yul\":1450:1474   */\n      tag_425\n        /* \"#utility.yul\":1468:1473   */\n      dup2\n        /* \"#utility.yul\":1450:1474   */\n      tag_329\n      jump\t// in\n    tag_425:\n        /* \"#utility.yul\":1445:1448   */\n      dup3\n        /* \"#utility.yul\":1438:1475   */\n      mstore\n        /* \"#utility.yul\":1373:1481   */\n      pop\n      pop\n      jump\t// out\n        /* \"#utility.yul\":1487:1586   */\n    tag_331:\n        /* \"#utility.yul\":1539:1545   */\n      0x00\n        /* \"#utility.yul\":1573:1578   */\n      dup2\n        /* \"#utility.yul\":1567:1579   */\n      mload\n        /* \"#utility.yul\":1557:1579   */\n      swap1\n      pop\n        /* \"#utility.yul\":1487:1586   */\n      swap2\n      swap1\n      pop\n      jump\t// out\n        /* \"#utility.yul\":1592:1751   */\n    tag_332:\n        /* \"#utility.yul\":1666:1677   */\n      0x00\n        /* \"#utility.yul\":1700:1706   */\n      dup3\n        /* \"#utility.yul\":1695:1698   */\n      dup3\n        /* \"#utility.yul\":1688:1707   */\n      mstore\n        /* \"#utility.yul\":1740:1744   */\n      0x20\n        /* \"#utility.yul\":1735:1738   */\n      dup3\n        /* \"#utility.yul\":1731:1745   */\n      add\n        /* \"#utility.yul\":1716:1745   */\n      swap1\n      pop\n        /* \"#utility.yul\":1592:1751   */\n      swap3\n      swap2\n      pop\n      pop\n      jump\t// out\n        /* \"#utility.yul\":1757:2064   */\n    tag_333:\n        /* \"#utility.yul\":1825:1826   */\n      0x00\n        /* \"#utility.yul\":1835:1948   */\n    tag_429:\n        /* \"#utility.yul\":1849:1855   */\n      dup4\n        /* \"#utility.yul\":1846:1847   */\n      dup2\n        /* \"#utility.yul\":1843:1856   */\n      lt\n        /* \"#utility.yul\":1835:1948   */\n      iszero\n      tag_431\n      jumpi\n        /* \"#utility.yul\":1934:1935   */\n      dup1\n        /* \"#utility.yul\":1929:1932   */\n      dup3\n        /* \"#utility.yul\":1925:1936   */\n      add\n        /* \"#utility.yul\":1919:1937   */\n      mload\n        /* \"#utility.yul\":1915:1916   */\n      dup2\n        /* \"#utility.yul\":1910:1913   */\n      dup5\n        /* \"#utility.yul\":1906:1917   */\n      add\n        /* \"#utility.yul\":1899:1938   */\n      mstore\n        /* \"#utility.yul\":1871:1873   */\n      0x20\n        /* \"#utility.yul\":1868:1869   */\n      dup2\n        /* \"#utility.yul\":1864:1874   */\n      add\n        /* \"#utility.yul\":1859:1874   */\n      swap1\n      pop\n        /* \"#utility.yul\":1835:1948   */\n      jump(tag_429)\n    tag_431:\n        /* \"#utility.yul\":1966:1972   */\n      dup4\n        /* \"#utility.yul\":1963:1964   */\n      dup2\n        /* \"#utility.yul\":1960:1973   */\n      gt\n        /* \"#utility.yul\":1957:2058   */\n      iszero\n      tag_432\n      jumpi\n        /* \"#utility.yul\":2046:2047   */\n      0x00\n        /* \"#utility.yul\":2037:2043   */\n      dup5\n        /* \"#utility.yul\":2032:2035   */\n      dup5\n        /* \"#utility.yul\":2028:2044   */\n      add\n        /* \"#utility.yul\":2021:2048   */\n      mstore\n        /* \"#utility.yul\":1957:2058   */\n    tag_432:\n        /* \"#utility.yul\":1806:2064   */\n      pop\n        /* \"#utility.yul\":1757:2064   */\n      pop\n      pop\n      pop\n      jump\t// out\n        /* \"#utility.yul\":2070:2172   */\n    tag_334:\n        /* \"#utility.yul\":2111:2117   */\n      0x00\n        /* \"#utility.yul\":2162:2164   */\n      0x1f\n        /* \"#utility.yul\":2158:2165   */\n      not\n        /* \"#utility.yul\":2153:2155   */\n      0x1f\n        /* \"#utility.yul\":2146:2151   */\n      dup4\n        /* \"#utility.yul\":2142:2156   */\n      add\n        /* \"#utility.yul\":2138:2166   */\n      and\n        /* \"#utility.yul\":2128:2166   */\n      swap1\n      pop\n        /* \"#utility.yul\":2070:2172   */\n      swap2\n      swap1\n      pop\n      jump\t// out\n        /* \"#utility.yul\":2178:2522   */\n    tag_335:\n        /* \"#utility.yul\":2256:2259   */\n      0x00\n        /* \"#utility.yul\":2284:2323   */\n      tag_435\n        /* \"#utility.yul\":2317:2322   */\n      dup3\n        /* \"#utility.yul\":2284:2323   */\n      tag_331\n      jump\t// in\n    tag_435:\n        /* \"#utility.yul\":2339:2400   */\n      tag_436\n        /* \"#utility.yul\":2393:2399   */\n      dup2\n        /* \"#utility.yul\":2388:2391   */\n      dup6\n        /* \"#utility.yul\":2339:2400   */\n      tag_332\n      jump\t// in\n    tag_436:\n        /* \"#utility.yul\":2332:2400   */\n      swap4\n      pop\n        /* \"#utility.yul\":2409:2461   */\n      tag_437\n        /* \"#utility.yul\":2454:2460   */\n      dup2\n        /* \"#utility.yul\":2449:2452   */\n      dup6\n        /* \"#utility.yul\":2442:2446   */\n      0x20\n        /* \"#utility.yul\":2435:2440   */\n      dup7\n        /* \"#utility.yul\":2431:2447   */\n      add\n        /* \"#utility.yul\":2409:2461   */\n      tag_333\n      jump\t// in\n    tag_437:\n        /* \"#utility.yul\":2486:2515   */\n      tag_438\n        /* \"#utility.yul\":2508:2514   */\n      dup2\n        /* \"#utility.yul\":2486:2515   */\n      tag_334\n      jump\t// in\n    tag_438:\n        /* \"#utility.yul\":2481:2484   */\n      dup5\n        /* \"#utility.yul\":2477:2516   */\n      add\n        /* \"#utility.yul\":2470:2516   */\n      swap2\n      pop\n        /* \"#utility.yul\":2260:2522   */\n      pop\n        /* \"#utility.yul\":2178:2522   */\n      swap3\n      swap2\n      pop\n      pop\n      jump\t// out\n        /* \"#utility.yul\":2528:2618   */\n    tag_336:\n        /* \"#utility.yul\":2562:2569   */\n      0x00\n        /* \"#utility.yul\":2605:2610   */\n      dup2\n        /* \"#utility.yul\":2598:2611   */\n      iszero\n        /* \"#utility.yul\":2591:2612   */\n      iszero\n        /* \"#utility.yul\":2580:2612   */\n      swap1\n      pop\n        /* \"#utility.yul\":2528:2618   */\n      swap2\n      swap1\n      pop\n      jump\t// out\n        /* \"#utility.yul\":2624:2723   */\n    tag_337:\n        /* \"#utility.yul\":2695:2716   */\n      tag_441\n        /* \"#utility.yul\":2710:2715   */\n      dup2\n        /* \"#utility.yul\":2695:2716   */\n      tag_336\n      jump\t// in\n    tag_441:\n        /* \"#utility.yul\":2690:2693   */\n      dup3\n        /* \"#utility.yul\":2683:2717   */\n      mstore\n        /* \"#utility.yul\":2624:2723   */\n      pop\n      pop\n      jump\t// out\n        /* \"#utility.yul\":2795:4003   */\n    tag_338:\n        /* \"#utility.yul\":2920:2923   */\n      0x00\n        /* \"#utility.yul\":2956:2960   */\n      0xa0\n        /* \"#utility.yul\":2951:2954   */\n      dup4\n        /* \"#utility.yul\":2947:2961   */\n      add\n        /* \"#utility.yul\":3041:3045   */\n      0x00\n        /* \"#utility.yul\":3034:3039   */\n      dup4\n        /* \"#utility.yul\":3030:3046   */\n      add\n        /* \"#utility.yul\":3024:3047   */\n      mload\n        /* \"#utility.yul\":3060:3123   */\n      tag_443\n        /* \"#utility.yul\":3117:3121   */\n      0x00\n        /* \"#utility.yul\":3112:3115   */\n      dup7\n        /* \"#utility.yul\":3108:3122   */\n      add\n        /* \"#utility.yul\":3094:3106   */\n      dup3\n        /* \"#utility.yul\":3060:3123   */\n      tag_327\n      jump\t// in\n    tag_443:\n        /* \"#utility.yul\":2971:3133   */\n      pop\n        /* \"#utility.yul\":3216:3220   */\n      0x20\n        /* \"#utility.yul\":3209:3214   */\n      dup4\n        /* \"#utility.yul\":3205:3221   */\n      add\n        /* \"#utility.yul\":3199:3222   */\n      mload\n        /* \"#utility.yul\":3235:3298   */\n      tag_444\n        /* \"#utility.yul\":3292:3296   */\n      0x20\n        /* \"#utility.yul\":3287:3290   */\n      dup7\n        /* \"#utility.yul\":3283:3297   */\n      add\n        /* \"#utility.yul\":3269:3281   */\n      dup3\n        /* \"#utility.yul\":3235:3298   */\n      tag_330\n      jump\t// in\n    tag_444:\n        /* \"#utility.yul\":3143:3308   */\n      pop\n        /* \"#utility.yul\":3392:3396   */\n      0x40\n        /* \"#utility.yul\":3385:3390   */\n      dup4\n        /* \"#utility.yul\":3381:3397   */\n      add\n        /* \"#utility.yul\":3375:3398   */\n      mload\n        /* \"#utility.yul\":3445:3448   */\n      dup5\n        /* \"#utility.yul\":3439:3443   */\n      dup3\n        /* \"#utility.yul\":3435:3449   */\n      sub\n        /* \"#utility.yul\":3428:3432   */\n      0x40\n        /* \"#utility.yul\":3423:3426   */\n      dup7\n        /* \"#utility.yul\":3419:3433   */\n      add\n        /* \"#utility.yul\":3412:3450   */\n      mstore\n        /* \"#utility.yul\":3471:3544   */\n      tag_445\n        /* \"#utility.yul\":3539:3543   */\n      dup3\n        /* \"#utility.yul\":3525:3537   */\n      dup3\n        /* \"#utility.yul\":3471:3544   */\n      tag_335\n      jump\t// in\n    tag_445:\n        /* \"#utility.yul\":3463:3544   */\n      swap2\n      pop\n        /* \"#utility.yul\":3318:3555   */\n      pop\n        /* \"#utility.yul\":3643:3647   */\n      0x60\n        /* \"#utility.yul\":3636:3641   */\n      dup4\n        /* \"#utility.yul\":3632:3648   */\n      add\n        /* \"#utility.yul\":3626:3649   */\n      mload\n        /* \"#utility.yul\":3696:3699   */\n      dup5\n        /* \"#utility.yul\":3690:3694   */\n      dup3\n        /* \"#utility.yul\":3686:3700   */\n      sub\n        /* \"#utility.yul\":3679:3683   */\n      0x60\n        /* \"#utility.yul\":3674:3677   */\n      dup7\n        /* \"#utility.yul\":3670:3684   */\n      add\n        /* \"#utility.yul\":3663:3701   */\n      mstore\n        /* \"#utility.yul\":3722:3795   */\n      tag_446\n        /* \"#utility.yul\":3790:3794   */\n      dup3\n        /* \"#utility.yul\":3776:3788   */\n      dup3\n        /* \"#utility.yul\":3722:3795   */\n      tag_335\n      jump\t// in\n    tag_446:\n        /* \"#utility.yul\":3714:3795   */\n      swap2\n      pop\n        /* \"#utility.yul\":3565:3806   */\n      pop\n        /* \"#utility.yul\":3890:3894   */\n      0x80\n        /* \"#utility.yul\":3883:3888   */\n      dup4\n        /* \"#utility.yul\":3879:3895   */\n      add\n        /* \"#utility.yul\":3873:3896   */\n      mload\n        /* \"#utility.yul\":3909:3966   */\n      tag_447\n        /* \"#utility.yul\":3960:3964   */\n      0x80\n        /* \"#utility.yul\":3955:3958   */\n      dup7\n        /* \"#utility.yul\":3951:3965   */\n      add\n        /* \"#utility.yul\":3937:3949   */\n      dup3\n        /* \"#utility.yul\":3909:3966   */\n      tag_337\n      jump\t// in\n    tag_447:\n        /* \"#utility.yul\":3816:3976   */\n      pop\n        /* \"#utility.yul\":3993:3997   */\n      dup1\n        /* \"#utility.yul\":3986:3997   */\n      swap2\n      pop\n        /* \"#utility.yul\":2925:4003   */\n      pop\n        /* \"#utility.yul\":2795:4003   */\n      swap3\n      swap2\n      pop\n      pop\n      jump\t// out\n        /* \"#utility.yul\":4009:4394   */\n    tag_35:\n        /* \"#utility.yul\":4158:4162   */\n      0x00\n        /* \"#utility.yul\":4196:4198   */\n      0x20\n        /* \"#utility.yul\":4185:4194   */\n      dup3\n        /* \"#utility.yul\":4181:4199   */\n      add\n        /* \"#utility.yul\":4173:4199   */\n      swap1\n      pop\n        /* \"#utility.yul\":4245:4254   */\n      dup2\n        /* \"#utility.yul\":4239:4243   */\n      dup2\n        /* \"#utility.yul\":4235:4255   */\n      sub\n        /* \"#utility.yul\":4231:4232   */\n      0x00\n        /* \"#utility.yul\":4220:4229   */\n      dup4\n        /* \"#utility.yul\":4216:4233   */\n      add\n        /* \"#utility.yul\":4209:4256   */\n      mstore\n        /* \"#utility.yul\":4273:4387   */\n      tag_449\n        /* \"#utility.yul\":4382:4386   */\n      dup2\n        /* \"#utility.yul\":4373:4379   */\n      dup5\n        /* \"#utility.yul\":4273:4387   */\n      tag_338\n      jump\t// in\n    tag_449:\n        /* \"#utility.yul\":4265:4387   */\n      swap1\n      pop\n        /* \"#utility.yul\":4009:4394   */\n      swap3\n      swap2\n      pop\n      pop\n      jump\t// out\n        /* \"#utility.yul\":4400:4580   */\n    tag_134:\n        /* \"#utility.yul\":4448:4525   */\n      0x4e487b7100000000000000000000000000000000000000000000000000000000\n        /* \"#utility.yul\":4445:4446   */\n      0x00\n        /* \"#utility.yul\":4438:4526   */\n      mstore\n        /* \"#utility.yul\":4545:4549   */\n      0x21\n        /* \"#utility.yul\":4542:4543   */\n      0x04\n        /* \"#utility.yul\":4535:4550   */\n      mstore\n        /* \"#utility.yul\":4569:4573   */\n      0x24\n        /* \"#utility.yul\":4566:4567   */\n      0x00\n        /* \"#utility.yul\":4559:4574   */\n      revert\n        /* \"#utility.yul\":4586:4705   */\n    tag_339:\n        /* \"#utility.yul\":4673:4674   */\n      0x02\n        /* \"#utility.yul\":4666:4671   */\n      dup2\n        /* \"#utility.yul\":4663:4675   */\n      lt\n        /* \"#utility.yul\":4653:4699   */\n      tag_452\n      jumpi\n        /* \"#utility.yul\":4679:4697   */\n      tag_453\n      tag_134\n      jump\t// in\n    tag_453:\n        /* \"#utility.yul\":4653:4699   */\n    tag_452:\n        /* \"#utility.yul\":4586:4705   */\n      pop\n      jump\t// out\n        /* \"#utility.yul\":4711:4850   */\n    tag_340:\n        /* \"#utility.yul\":4762:4769   */\n      0x00\n        /* \"#utility.yul\":4791:4796   */\n      dup2\n        /* \"#utility.yul\":4780:4796   */\n      swap1\n      pop\n        /* \"#utility.yul\":4797:4844   */\n      tag_455\n        /* \"#utility.yul\":4838:4843   */\n      dup3\n        /* \"#utility.yul\":4797:4844   */\n      tag_339\n      jump\t// in\n    tag_455:\n        /* \"#utility.yul\":4711:4850   */\n      swap2\n      swap1\n      pop\n      jump\t// out\n        /* \"#utility.yul\":4856:4995   */\n    tag_341:\n        /* \"#utility.yul\":4918:4927   */\n      0x00\n        /* \"#utility.yul\":4951:4989   */\n      tag_457\n        /* \"#utility.yul\":4983:4988   */\n      dup3\n        /* \"#utility.yul\":4951:4989   */\n      tag_340\n      jump\t// in\n    tag_457:\n        /* \"#utility.yul\":4938:4989   */\n      swap1\n      pop\n        /* \"#utility.yul\":4856:4995   */\n      swap2\n      swap1\n      pop\n      jump\t// out\n        /* \"#utility.yul\":5001:5146   */\n    tag_342:\n        /* \"#utility.yul\":5090:5139   */\n      tag_459\n        /* \"#utility.yul\":5133:5138   */\n      dup2\n        /* \"#utility.yul\":5090:5139   */\n      tag_341\n      jump\t// in\n    tag_459:\n        /* \"#utility.yul\":5085:5088   */\n      dup3\n        /* \"#utility.yul\":5078:5140   */\n      mstore\n        /* \"#utility.yul\":5001:5146   */\n      pop\n      pop\n      jump\t// out\n        /* \"#utility.yul\":5236:6466   */\n    tag_343:\n        /* \"#utility.yul\":5387:5391   */\n      0xc0\n        /* \"#utility.yul\":5382:5385   */\n      dup3\n        /* \"#utility.yul\":5378:5392   */\n      add\n        /* \"#utility.yul\":5476:5480   */\n      0x00\n        /* \"#utility.yul\":5469:5474   */\n      dup3\n        /* \"#utility.yul\":5465:5481   */\n      add\n        /* \"#utility.yul\":5459:5482   */\n      mload\n        /* \"#utility.yul\":5495:5558   */\n      tag_461\n        /* \"#utility.yul\":5552:5556   */\n      0x00\n        /* \"#utility.yul\":5547:5550   */\n      dup6\n        /* \"#utility.yul\":5543:5557   */\n      add\n        /* \"#utility.yul\":5529:5541   */\n      dup3\n        /* \"#utility.yul\":5495:5558   */\n      tag_327\n      jump\t// in\n    tag_461:\n        /* \"#utility.yul\":5402:5568   */\n      pop\n        /* \"#utility.yul\":5653:5657   */\n      0x20\n        /* \"#utility.yul\":5646:5651   */\n      dup3\n        /* \"#utility.yul\":5642:5658   */\n      add\n        /* \"#utility.yul\":5636:5659   */\n      mload\n        /* \"#utility.yul\":5672:5735   */\n      tag_462\n        /* \"#utility.yul\":5729:5733   */\n      0x20\n        /* \"#utility.yul\":5724:5727   */\n      dup6\n        /* \"#utility.yul\":5720:5734   */\n      add\n        /* \"#utility.yul\":5706:5718   */\n      dup3\n        /* \"#utility.yul\":5672:5735   */\n      tag_327\n      jump\t// in\n    tag_462:\n        /* \"#utility.yul\":5578:5745   */\n      pop\n        /* \"#utility.yul\":5829:5833   */\n      0x40\n        /* \"#utility.yul\":5822:5827   */\n      dup3\n        /* \"#utility.yul\":5818:5834   */\n      add\n        /* \"#utility.yul\":5812:5835   */\n      mload\n        /* \"#utility.yul\":5848:5911   */\n      tag_463\n        /* \"#utility.yul\":5905:5909   */\n      0x40\n        /* \"#utility.yul\":5900:5903   */\n      dup6\n        /* \"#utility.yul\":5896:5910   */\n      add\n        /* \"#utility.yul\":5882:5894   */\n      dup3\n        /* \"#utility.yul\":5848:5911   */\n      tag_330\n      jump\t// in\n    tag_463:\n        /* \"#utility.yul\":5755:5921   */\n      pop\n        /* \"#utility.yul\":6004:6008   */\n      0x60\n        /* \"#utility.yul\":5997:6002   */\n      dup3\n        /* \"#utility.yul\":5993:6009   */\n      add\n        /* \"#utility.yul\":5987:6010   */\n      mload\n        /* \"#utility.yul\":6023:6086   */\n      tag_464\n        /* \"#utility.yul\":6080:6084   */\n      0x60\n        /* \"#utility.yul\":6075:6078   */\n      dup6\n        /* \"#utility.yul\":6071:6085   */\n      add\n        /* \"#utility.yul\":6057:6069   */\n      dup3\n        /* \"#utility.yul\":6023:6086   */\n      tag_330\n      jump\t// in\n    tag_464:\n        /* \"#utility.yul\":5931:6096   */\n      pop\n        /* \"#utility.yul\":6179:6183   */\n      0x80\n        /* \"#utility.yul\":6172:6177   */\n      dup3\n        /* \"#utility.yul\":6168:6184   */\n      add\n        /* \"#utility.yul\":6162:6185   */\n      mload\n        /* \"#utility.yul\":6198:6261   */\n      tag_465\n        /* \"#utility.yul\":6255:6259   */\n      0x80\n        /* \"#utility.yul\":6250:6253   */\n      dup6\n        /* \"#utility.yul\":6246:6260   */\n      add\n        /* \"#utility.yul\":6232:6244   */\n      dup3\n        /* \"#utility.yul\":6198:6261   */\n      tag_327\n      jump\t// in\n    tag_465:\n        /* \"#utility.yul\":6106:6271   */\n      pop\n        /* \"#utility.yul\":6355:6359   */\n      0xa0\n        /* \"#utility.yul\":6348:6353   */\n      dup3\n        /* \"#utility.yul\":6344:6360   */\n      add\n        /* \"#utility.yul\":6338:6361   */\n      mload\n        /* \"#utility.yul\":6374:6449   */\n      tag_466\n        /* \"#utility.yul\":6443:6447   */\n      0xa0\n        /* \"#utility.yul\":6438:6441   */\n      dup6\n        /* \"#utility.yul\":6434:6448   */\n      add\n        /* \"#utility.yul\":6420:6432   */\n      dup3\n        /* \"#utility.yul\":6374:6449   */\n      tag_342\n      jump\t// in\n    tag_466:\n        /* \"#utility.yul\":6281:6459   */\n      pop\n        /* \"#utility.yul\":5356:6466   */\n      pop\n        /* \"#utility.yul\":5236:6466   */\n      pop\n      pop\n      jump\t// out\n        /* \"#utility.yul\":6472:6803   */\n    tag_39:\n        /* \"#utility.yul\":6619:6623   */\n      0x00\n        /* \"#utility.yul\":6657:6660   */\n      0xc0\n        /* \"#utility.yul\":6646:6655   */\n      dup3\n        /* \"#utility.yul\":6642:6661   */\n      add\n        /* \"#utility.yul\":6634:6661   */\n      swap1\n      pop\n        /* \"#utility.yul\":6671:6796   */\n      tag_468\n        /* \"#utility.yul\":6793:6794   */\n      0x00\n        /* \"#utility.yul\":6782:6791   */\n      dup4\n        /* \"#utility.yul\":6778:6795   */\n      add\n        /* \"#utility.yul\":6769:6775   */\n      dup5\n        /* \"#utility.yul\":6671:6796   */\n      tag_343\n      jump\t// in\n    tag_468:\n        /* \"#utility.yul\":6472:6803   */\n      swap3\n      swap2\n      pop\n      pop\n      jump\t// out\n        /* \"#utility.yul\":6809:6931   */\n    tag_344:\n        /* \"#utility.yul\":6882:6906   */\n      tag_470\n        /* \"#utility.yul\":6900:6905   */\n      dup2\n        /* \"#utility.yul\":6882:6906   */\n      tag_329\n      jump\t// in\n    tag_470:\n        /* \"#utility.yul\":6875:6880   */\n      dup2\n        /* \"#utility.yul\":6872:6907   */\n      eq\n        /* \"#utility.yul\":6862:6925   */\n      tag_471\n      jumpi\n        /* \"#utility.yul\":6921:6922   */\n      0x00\n        /* \"#utility.yul\":6918:6919   */\n      dup1\n        /* \"#utility.yul\":6911:6923   */\n      revert\n        /* \"#utility.yul\":6862:6925   */\n    tag_471:\n        /* \"#utility.yul\":6809:6931   */\n      pop\n      jump\t// out\n        /* \"#utility.yul\":6937:7076   */\n    tag_345:\n        /* \"#utility.yul\":6983:6988   */\n      0x00\n        /* \"#utility.yul\":7021:7027   */\n      dup2\n        /* \"#utility.yul\":7008:7028   */\n      calldataload\n        /* \"#utility.yul\":6999:7028   */\n      swap1\n      pop\n        /* \"#utility.yul\":7037:7070   */\n      tag_473\n        /* \"#utility.yul\":7064:7069   */\n      dup2\n        /* \"#utility.yul\":7037:7070   */\n      tag_344\n      jump\t// in\n    tag_473:\n        /* \"#utility.yul\":6937:7076   */\n      swap3\n      swap2\n      pop\n      pop\n      jump\t// out\n        /* \"#utility.yul\":7082:7411   */\n    tag_45:\n        /* \"#utility.yul\":7141:7147   */\n      0x00\n        /* \"#utility.yul\":7190:7192   */\n      0x20\n        /* \"#utility.yul\":7178:7187   */\n      dup3\n        /* \"#utility.yul\":7169:7176   */\n      dup5\n        /* \"#utility.yul\":7165:7188   */\n      sub\n        /* \"#utility.yul\":7161:7193   */\n      slt\n        /* \"#utility.yul\":7158:7277   */\n      iszero\n      tag_475\n      jumpi\n        /* \"#utility.yul\":7196:7275   */\n      tag_476\n      tag_322\n      jump\t// in\n    tag_476:\n        /* \"#utility.yul\":7158:7277   */\n    tag_475:\n        /* \"#utility.yul\":7316:7317   */\n      0x00\n        /* \"#utility.yul\":7341:7394   */\n      tag_477\n        /* \"#utility.yul\":7386:7393   */\n      dup5\n        /* \"#utility.yul\":7377:7383   */\n      dup3\n        /* \"#utility.yul\":7366:7375   */\n      dup6\n        /* \"#utility.yul\":7362:7384   */\n      add\n        /* \"#utility.yul\":7341:7394   */\n      tag_345\n      jump\t// in\n    tag_477:\n        /* \"#utility.yul\":7331:7394   */\n      swap2\n      pop\n        /* \"#utility.yul\":7287:7404   */\n      pop\n        /* \"#utility.yul\":7082:7411   */\n      swap3\n      swap2\n      pop\n      pop\n      jump\t// out\n        /* \"#utility.yul\":7417:7566   */\n    tag_346:\n        /* \"#utility.yul\":7453:7460   */\n      0x00\n        /* \"#utility.yul\":7493:7559   */\n      0xffffffff00000000000000000000000000000000000000000000000000000000\n        /* \"#utility.yul\":7486:7491   */\n      dup3\n        /* \"#utility.yul\":7482:7560   */\n      and\n        /* \"#utility.yul\":7471:7560   */\n      swap1\n      pop\n        /* \"#utility.yul\":7417:7566   */\n      swap2\n      swap1\n      pop\n      jump\t// out\n        /* \"#utility.yul\":7572:7687   */\n    tag_347:\n        /* \"#utility.yul\":7657:7680   */\n      tag_480\n        /* \"#utility.yul\":7674:7679   */\n      dup2\n        /* \"#utility.yul\":7657:7680   */\n      tag_346\n      jump\t// in\n    tag_480:\n        /* \"#utility.yul\":7652:7655   */\n      dup3\n        /* \"#utility.yul\":7645:7681   */\n      mstore\n        /* \"#utility.yul\":7572:7687   */\n      pop\n      pop\n      jump\t// out\n        /* \"#utility.yul\":7693:7911   */\n    tag_57:\n        /* \"#utility.yul\":7784:7788   */\n      0x00\n        /* \"#utility.yul\":7822:7824   */\n      0x20\n        /* \"#utility.yul\":7811:7820   */\n      dup3\n        /* \"#utility.yul\":7807:7825   */\n      add\n        /* \"#utility.yul\":7799:7825   */\n      swap1\n      pop\n        /* \"#utility.yul\":7835:7904   */\n      tag_482\n        /* \"#utility.yul\":7901:7902   */\n      0x00\n        /* \"#utility.yul\":7890:7899   */\n      dup4\n        /* \"#utility.yul\":7886:7903   */\n      add\n        /* \"#utility.yul\":7877:7883   */\n      dup5\n        /* \"#utility.yul\":7835:7904   */\n      tag_347\n      jump\t// in\n    tag_482:\n        /* \"#utility.yul\":7693:7911   */\n      swap3\n      swap2\n      pop\n      pop\n      jump\t// out\n        /* \"#utility.yul\":7917:8391   */\n    tag_60:\n        /* \"#utility.yul\":7985:7991   */\n      0x00\n        /* \"#utility.yul\":7993:7999   */\n      dup1\n        /* \"#utility.yul\":8042:8044   */\n      0x40\n        /* \"#utility.yul\":8030:8039   */\n      dup4\n        /* \"#utility.yul\":8021:8028   */\n      dup6\n        /* \"#utility.yul\":8017:8040   */\n      sub\n        /* \"#utility.yul\":8013:8045   */\n      slt\n        /* \"#utility.yul\":8010:8129   */\n      iszero\n      tag_484\n      jumpi\n        /* \"#utility.yul\":8048:8127   */\n      tag_485\n      tag_322\n      jump\t// in\n    tag_485:\n        /* \"#utility.yul\":8010:8129   */\n    tag_484:\n        /* \"#utility.yul\":8168:8169   */\n      0x00\n        /* \"#utility.yul\":8193:8246   */\n      tag_486\n        /* \"#utility.yul\":8238:8245   */\n      dup6\n        /* \"#utility.yul\":8229:8235   */\n      dup3\n        /* \"#utility.yul\":8218:8227   */\n      dup7\n        /* \"#utility.yul\":8214:8236   */\n      add\n        /* \"#utility.yul\":8193:8246   */\n      tag_326\n      jump\t// in\n    tag_486:\n        /* \"#utility.yul\":8183:8246   */\n      swap3\n      pop\n        /* \"#utility.yul\":8139:8256   */\n      pop\n        /* \"#utility.yul\":8295:8297   */\n      0x20\n        /* \"#utility.yul\":8321:8374   */\n      tag_487\n        /* \"#utility.yul\":8366:8373   */\n      dup6\n        /* \"#utility.yul\":8357:8363   */\n      dup3\n        /* \"#utility.yul\":8346:8355   */\n      dup7\n        /* \"#utility.yul\":8342:8364   */\n      add\n        /* \"#utility.yul\":8321:8374   */\n      tag_326\n      jump\t// in\n    tag_487:\n        /* \"#utility.yul\":8311:8374   */\n      swap2\n      pop\n        /* \"#utility.yul\":8266:8384   */\n      pop\n        /* \"#utility.yul\":7917:8391   */\n      swap3\n      pop\n      swap3\n      swap1\n      pop\n      jump\t// out\n        /* \"#utility.yul\":8397:8457   */\n    tag_348:\n        /* \"#utility.yul\":8425:8428   */\n      0x00\n        /* \"#utility.yul\":8446:8451   */\n      dup2\n        /* \"#utility.yul\":8439:8451   */\n      swap1\n      pop\n        /* \"#utility.yul\":8397:8457   */\n      swap2\n      swap1\n      pop\n      jump\t// out\n        /* \"#utility.yul\":8463:8605   */\n    tag_349:\n        /* \"#utility.yul\":8513:8522   */\n      0x00\n        /* \"#utility.yul\":8546:8599   */\n      tag_490\n        /* \"#utility.yul\":8564:8598   */\n      tag_491\n        /* \"#utility.yul\":8573:8597   */\n      tag_492\n        /* \"#utility.yul\":8591:8596   */\n      dup5\n        /* \"#utility.yul\":8573:8597   */\n      tag_328\n      jump\t// in\n    tag_492:\n        /* \"#utility.yul\":8564:8598   */\n      tag_348\n      jump\t// in\n    tag_491:\n        /* \"#utility.yul\":8546:8599   */\n      tag_328\n      jump\t// in\n    tag_490:\n        /* \"#utility.yul\":8533:8599   */\n      swap1\n      pop\n        /* \"#utility.yul\":8463:8605   */\n      swap2\n      swap1\n      pop\n      jump\t// out\n        /* \"#utility.yul\":8611:8737   */\n    tag_350:\n        /* \"#utility.yul\":8661:8670   */\n      0x00\n        /* \"#utility.yul\":8694:8731   */\n      tag_494\n        /* \"#utility.yul\":8725:8730   */\n      dup3\n        /* \"#utility.yul\":8694:8731   */\n      tag_349\n      jump\t// in\n    tag_494:\n        /* \"#utility.yul\":8681:8731   */\n      swap1\n      pop\n        /* \"#utility.yul\":8611:8737   */\n      swap2\n      swap1\n      pop\n      jump\t// out\n        /* \"#utility.yul\":8743:8883   */\n    tag_351:\n        /* \"#utility.yul\":8807:8816   */\n      0x00\n        /* \"#utility.yul\":8840:8877   */\n      tag_496\n        /* \"#utility.yul\":8871:8876   */\n      dup3\n        /* \"#utility.yul\":8840:8877   */\n      tag_350\n      jump\t// in\n    tag_496:\n        /* \"#utility.yul\":8827:8877   */\n      swap1\n      pop\n        /* \"#utility.yul\":8743:8883   */\n      swap2\n      swap1\n      pop\n      jump\t// out\n        /* \"#utility.yul\":8889:9048   */\n    tag_352:\n        /* \"#utility.yul\":8990:9041   */\n      tag_498\n        /* \"#utility.yul\":9035:9040   */\n      dup2\n        /* \"#utility.yul\":8990:9041   */\n      tag_351\n      jump\t// in\n    tag_498:\n        /* \"#utility.yul\":8985:8988   */\n      dup3\n        /* \"#utility.yul\":8978:9042   */\n      mstore\n        /* \"#utility.yul\":8889:9048   */\n      pop\n      pop\n      jump\t// out\n        /* \"#utility.yul\":9054:9304   */\n    tag_65:\n        /* \"#utility.yul\":9161:9165   */\n      0x00\n        /* \"#utility.yul\":9199:9201   */\n      0x20\n        /* \"#utility.yul\":9188:9197   */\n      dup3\n        /* \"#utility.yul\":9184:9202   */\n      add\n        /* \"#utility.yul\":9176:9202   */\n      swap1\n      pop\n        /* \"#utility.yul\":9212:9297   */\n      tag_500\n        /* \"#utility.yul\":9294:9295   */\n      0x00\n        /* \"#utility.yul\":9283:9292   */\n      dup4\n        /* \"#utility.yul\":9279:9296   */\n      add\n        /* \"#utility.yul\":9270:9276   */\n      dup5\n        /* \"#utility.yul\":9212:9297   */\n      tag_352\n      jump\t// in\n    tag_500:\n        /* \"#utility.yul\":9054:9304   */\n      swap3\n      swap2\n      pop\n      pop\n      jump\t// out\n        /* \"#utility.yul\":9310:9428   */\n    tag_353:\n        /* \"#utility.yul\":9397:9421   */\n      tag_502\n        /* \"#utility.yul\":9415:9420   */\n      dup2\n        /* \"#utility.yul\":9397:9421   */\n      tag_324\n      jump\t// in\n    tag_502:\n        /* \"#utility.yul\":9392:9395   */\n      dup3\n        /* \"#utility.yul\":9385:9422   */\n      mstore\n        /* \"#utility.yul\":9310:9428   */\n      pop\n      pop\n      jump\t// out\n        /* \"#utility.yul\":9434:9552   */\n    tag_354:\n        /* \"#utility.yul\":9521:9545   */\n      tag_504\n        /* \"#utility.yul\":9539:9544   */\n      dup2\n        /* \"#utility.yul\":9521:9545   */\n      tag_329\n      jump\t// in\n    tag_504:\n        /* \"#utility.yul\":9516:9519   */\n      dup3\n        /* \"#utility.yul\":9509:9546   */\n      mstore\n        /* \"#utility.yul\":9434:9552   */\n      pop\n      pop\n      jump\t// out\n        /* \"#utility.yul\":9558:9713   */\n    tag_355:\n        /* \"#utility.yul\":9657:9706   */\n      tag_506\n        /* \"#utility.yul\":9700:9705   */\n      dup2\n        /* \"#utility.yul\":9657:9706   */\n      tag_341\n      jump\t// in\n    tag_506:\n        /* \"#utility.yul\":9652:9655   */\n      dup3\n        /* \"#utility.yul\":9645:9707   */\n      mstore\n        /* \"#utility.yul\":9558:9713   */\n      pop\n      pop\n      jump\t// out\n        /* \"#utility.yul\":9719:10518   */\n    tag_69:\n        /* \"#utility.yul\":9964:9968   */\n      0x00\n        /* \"#utility.yul\":10002:10005   */\n      0xc0\n        /* \"#utility.yul\":9991:10000   */\n      dup3\n        /* \"#utility.yul\":9987:10006   */\n      add\n        /* \"#utility.yul\":9979:10006   */\n      swap1\n      pop\n        /* \"#utility.yul\":10016:10087   */\n      tag_508\n        /* \"#utility.yul\":10084:10085   */\n      0x00\n        /* \"#utility.yul\":10073:10082   */\n      dup4\n        /* \"#utility.yul\":10069:10086   */\n      add\n        /* \"#utility.yul\":10060:10066   */\n      dup10\n        /* \"#utility.yul\":10016:10087   */\n      tag_353\n      jump\t// in\n    tag_508:\n        /* \"#utility.yul\":10097:10169   */\n      tag_509\n        /* \"#utility.yul\":10165:10167   */\n      0x20\n        /* \"#utility.yul\":10154:10163   */\n      dup4\n        /* \"#utility.yul\":10150:10168   */\n      add\n        /* \"#utility.yul\":10141:10147   */\n      dup9\n        /* \"#utility.yul\":10097:10169   */\n      tag_353\n      jump\t// in\n    tag_509:\n        /* \"#utility.yul\":10179:10251   */\n      tag_510\n        /* \"#utility.yul\":10247:10249   */\n      0x40\n        /* \"#utility.yul\":10236:10245   */\n      dup4\n        /* \"#utility.yul\":10232:10250   */\n      add\n        /* \"#utility.yul\":10223:10229   */\n      dup8\n        /* \"#utility.yul\":10179:10251   */\n      tag_354\n      jump\t// in\n    tag_510:\n        /* \"#utility.yul\":10261:10333   */\n      tag_511\n        /* \"#utility.yul\":10329:10331   */\n      0x60\n        /* \"#utility.yul\":10318:10327   */\n      dup4\n        /* \"#utility.yul\":10314:10332   */\n      add\n        /* \"#utility.yul\":10305:10311   */\n      dup7\n        /* \"#utility.yul\":10261:10333   */\n      tag_354\n      jump\t// in\n    tag_511:\n        /* \"#utility.yul\":10343:10416   */\n      tag_512\n        /* \"#utility.yul\":10411:10414   */\n      0x80\n        /* \"#utility.yul\":10400:10409   */\n      dup4\n        /* \"#utility.yul\":10396:10415   */\n      add\n        /* \"#utility.yul\":10387:10393   */\n      dup6\n        /* \"#utility.yul\":10343:10416   */\n      tag_353\n      jump\t// in\n    tag_512:\n        /* \"#utility.yul\":10426:10511   */\n      tag_513\n        /* \"#utility.yul\":10506:10509   */\n      0xa0\n        /* \"#utility.yul\":10495:10504   */\n      dup4\n        /* \"#utility.yul\":10491:10510   */\n      add\n        /* \"#utility.yul\":10482:10488   */\n      dup5\n        /* \"#utility.yul\":10426:10511   */\n      tag_355\n      jump\t// in\n    tag_513:\n        /* \"#utility.yul\":9719:10518   */\n      swap8\n      swap7\n      pop\n      pop\n      pop\n      pop\n      pop\n      pop\n      pop\n      jump\t// out\n        /* \"#utility.yul\":10524:10998   */\n    tag_75:\n        /* \"#utility.yul\":10592:10598   */\n      0x00\n        /* \"#utility.yul\":10600:10606   */\n      dup1\n        /* \"#utility.yul\":10649:10651   */\n      0x40\n        /* \"#utility.yul\":10637:10646   */\n      dup4\n        /* \"#utility.yul\":10628:10635   */\n      dup6\n        /* \"#utility.yul\":10624:10647   */\n      sub\n        /* \"#utility.yul\":10620:10652   */\n      slt\n        /* \"#utility.yul\":10617:10736   */\n      iszero\n      tag_515\n      jumpi\n        /* \"#utility.yul\":10655:10734   */\n      tag_516\n      tag_322\n      jump\t// in\n    tag_516:\n        /* \"#utility.yul\":10617:10736   */\n    tag_515:\n        /* \"#utility.yul\":10775:10776   */\n      0x00\n        /* \"#utility.yul\":10800:10853   */\n      tag_517\n        /* \"#utility.yul\":10845:10852   */\n      dup6\n        /* \"#utility.yul\":10836:10842   */\n      dup3\n        /* \"#utility.yul\":10825:10834   */\n      dup7\n        /* \"#utility.yul\":10821:10843   */\n      add\n        /* \"#utility.yul\":10800:10853   */\n      tag_345\n      jump\t// in\n    tag_517:\n        /* \"#utility.yul\":10790:10853   */\n      swap3\n      pop\n        /* \"#utility.yul\":10746:10863   */\n      pop\n        /* \"#utility.yul\":10902:10904   */\n      0x20\n        /* \"#utility.yul\":10928:10981   */\n      tag_518\n        /* \"#utility.yul\":10973:10980   */\n      dup6\n        /* \"#utility.yul\":10964:10970   */\n      dup3\n        /* \"#utility.yul\":10953:10962   */\n      dup7\n        /* \"#utility.yul\":10949:10971   */\n      add\n        /* \"#utility.yul\":10928:10981   */\n      tag_326\n      jump\t// in\n    tag_518:\n        /* \"#utility.yul\":10918:10981   */\n      swap2\n      pop\n        /* \"#utility.yul\":10873:10991   */\n      pop\n        /* \"#utility.yul\":10524:10998   */\n      swap3\n      pop\n      swap3\n      swap1\n      pop\n      jump\t// out\n        /* \"#utility.yul\":11004:11145   */\n    tag_356:\n        /* \"#utility.yul\":11098:11104   */\n      0x00\n        /* \"#utility.yul\":11132:11137   */\n      dup2\n        /* \"#utility.yul\":11126:11138   */\n      mload\n        /* \"#utility.yul\":11116:11138   */\n      swap1\n      pop\n        /* \"#utility.yul\":11004:11145   */\n      swap2\n      swap1\n      pop\n      jump\t// out\n        /* \"#utility.yul\":11151:11362   */\n    tag_357:\n        /* \"#utility.yul\":11277:11288   */\n      0x00\n        /* \"#utility.yul\":11311:11317   */\n      dup3\n        /* \"#utility.yul\":11306:11309   */\n      dup3\n        /* \"#utility.yul\":11299:11318   */\n      mstore\n        /* \"#utility.yul\":11351:11355   */\n      0x20\n        /* \"#utility.yul\":11346:11349   */\n      dup3\n        /* \"#utility.yul\":11342:11356   */\n      add\n        /* \"#utility.yul\":11327:11356   */\n      swap1\n      pop\n        /* \"#utility.yul\":11151:11362   */\n      swap3\n      swap2\n      pop\n      pop\n      jump\t// out\n        /* \"#utility.yul\":11368:11527   */\n    tag_358:\n        /* \"#utility.yul\":11462:11466   */\n      0x00\n        /* \"#utility.yul\":11485:11488   */\n      dup2\n        /* \"#utility.yul\":11477:11488   */\n      swap1\n      pop\n        /* \"#utility.yul\":11515:11519   */\n      0x20\n        /* \"#utility.yul\":11510:11513   */\n      dup3\n        /* \"#utility.yul\":11506:11520   */\n      add\n        /* \"#utility.yul\":11498:11520   */\n      swap1\n      pop\n        /* \"#utility.yul\":11368:11527   */\n      swap2\n      swap1\n      pop\n      jump\t// out\n        /* \"#utility.yul\":11617:12837   */\n    tag_359:\n        /* \"#utility.yul\":11758:11762   */\n      0xc0\n        /* \"#utility.yul\":11753:11756   */\n      dup3\n        /* \"#utility.yul\":11749:11763   */\n      add\n        /* \"#utility.yul\":11847:11851   */\n      0x00\n        /* \"#utility.yul\":11840:11845   */\n      dup3\n        /* \"#utility.yul\":11836:11852   */\n      add\n        /* \"#utility.yul\":11830:11853   */\n      mload\n        /* \"#utility.yul\":11866:11929   */\n      tag_523\n        /* \"#utility.yul\":11923:11927   */\n      0x00\n        /* \"#utility.yul\":11918:11921   */\n      dup6\n        /* \"#utility.yul\":11914:11928   */\n      add\n        /* \"#utility.yul\":11900:11912   */\n      dup3\n        /* \"#utility.yul\":11866:11929   */\n      tag_327\n      jump\t// in\n    tag_523:\n        /* \"#utility.yul\":11773:11939   */\n      pop\n        /* \"#utility.yul\":12024:12028   */\n      0x20\n        /* \"#utility.yul\":12017:12022   */\n      dup3\n        /* \"#utility.yul\":12013:12029   */\n      add\n        /* \"#utility.yul\":12007:12030   */\n      mload\n        /* \"#utility.yul\":12043:12106   */\n      tag_524\n        /* \"#utility.yul\":12100:12104   */\n      0x20\n        /* \"#utility.yul\":12095:12098   */\n      dup6\n        /* \"#utility.yul\":12091:12105   */\n      add\n        /* \"#utility.yul\":12077:12089   */\n      dup3\n        /* \"#utility.yul\":12043:12106   */\n      tag_327\n      jump\t// in\n    tag_524:\n        /* \"#utility.yul\":11949:12116   */\n      pop\n        /* \"#utility.yul\":12200:12204   */\n      0x40\n        /* \"#utility.yul\":12193:12198   */\n      dup3\n        /* \"#utility.yul\":12189:12205   */\n      add\n        /* \"#utility.yul\":12183:12206   */\n      mload\n        /* \"#utility.yul\":12219:12282   */\n      tag_525\n        /* \"#utility.yul\":12276:12280   */\n      0x40\n        /* \"#utility.yul\":12271:12274   */\n      dup6\n        /* \"#utility.yul\":12267:12281   */\n      add\n        /* \"#utility.yul\":12253:12265   */\n      dup3\n        /* \"#utility.yul\":12219:12282   */\n      tag_330\n      jump\t// in\n    tag_525:\n        /* \"#utility.yul\":12126:12292   */\n      pop\n        /* \"#utility.yul\":12375:12379   */\n      0x60\n        /* \"#utility.yul\":12368:12373   */\n      dup3\n        /* \"#utility.yul\":12364:12380   */\n      add\n        /* \"#utility.yul\":12358:12381   */\n      mload\n        /* \"#utility.yul\":12394:12457   */\n      tag_526\n        /* \"#utility.yul\":12451:12455   */\n      0x60\n        /* \"#utility.yul\":12446:12449   */\n      dup6\n        /* \"#utility.yul\":12442:12456   */\n      add\n        /* \"#utility.yul\":12428:12440   */\n      dup3\n        /* \"#utility.yul\":12394:12457   */\n      tag_330\n      jump\t// in\n    tag_526:\n        /* \"#utility.yul\":12302:12467   */\n      pop\n        /* \"#utility.yul\":12550:12554   */\n      0x80\n        /* \"#utility.yul\":12543:12548   */\n      dup3\n        /* \"#utility.yul\":12539:12555   */\n      add\n        /* \"#utility.yul\":12533:12556   */\n      mload\n        /* \"#utility.yul\":12569:12632   */\n      tag_527\n        /* \"#utility.yul\":12626:12630   */\n      0x80\n        /* \"#utility.yul\":12621:12624   */\n      dup6\n        /* \"#utility.yul\":12617:12631   */\n      add\n        /* \"#utility.yul\":12603:12615   */\n      dup3\n        /* \"#utility.yul\":12569:12632   */\n      tag_327\n      jump\t// in\n    tag_527:\n        /* \"#utility.yul\":12477:12642   */\n      pop\n        /* \"#utility.yul\":12726:12730   */\n      0xa0\n        /* \"#utility.yul\":12719:12724   */\n      dup3\n        /* \"#utility.yul\":12715:12731   */\n      add\n        /* \"#utility.yul\":12709:12732   */\n      mload\n        /* \"#utility.yul\":12745:12820   */\n      tag_528\n        /* \"#utility.yul\":12814:12818   */\n      0xa0\n        /* \"#utility.yul\":12809:12812   */\n      dup6\n        /* \"#utility.yul\":12805:12819   */\n      add\n        /* \"#utility.yul\":12791:12803   */\n      dup3\n        /* \"#utility.yul\":12745:12820   */\n      tag_342\n      jump\t// in\n    tag_528:\n        /* \"#utility.yul\":12652:12830   */\n      pop\n        /* \"#utility.yul\":11727:12837   */\n      pop\n        /* \"#utility.yul\":11617:12837   */\n      pop\n      pop\n      jump\t// out\n        /* \"#utility.yul\":12843:13130   */\n    tag_360:\n        /* \"#utility.yul\":12966:12976   */\n      0x00\n        /* \"#utility.yul\":12987:13087   */\n      tag_530\n        /* \"#utility.yul\":13083:13086   */\n      dup4\n        /* \"#utility.yul\":13075:13081   */\n      dup4\n        /* \"#utility.yul\":12987:13087   */\n      tag_359\n      jump\t// in\n    tag_530:\n        /* \"#utility.yul\":13119:13123   */\n      0xc0\n        /* \"#utility.yul\":13114:13117   */\n      dup4\n        /* \"#utility.yul\":13110:13124   */\n      add\n        /* \"#utility.yul\":13096:13124   */\n      swap1\n      pop\n        /* \"#utility.yul\":12843:13130   */\n      swap3\n      swap2\n      pop\n      pop\n      jump\t// out\n        /* \"#utility.yul\":13136:13276   */\n    tag_361:\n        /* \"#utility.yul\":13233:13237   */\n      0x00\n        /* \"#utility.yul\":13265:13269   */\n      0x20\n        /* \"#utility.yul\":13260:13263   */\n      dup3\n        /* \"#utility.yul\":13256:13270   */\n      add\n        /* \"#utility.yul\":13248:13270   */\n      swap1\n      pop\n        /* \"#utility.yul\":13136:13276   */\n      swap2\n      swap1\n      pop\n      jump\t// out\n        /* \"#utility.yul\":13370:14318   */\n    tag_362:\n        /* \"#utility.yul\":13543:13546   */\n      0x00\n        /* \"#utility.yul\":13572:13653   */\n      tag_533\n        /* \"#utility.yul\":13647:13652   */\n      dup3\n        /* \"#utility.yul\":13572:13653   */\n      tag_356\n      jump\t// in\n    tag_533:\n        /* \"#utility.yul\":13669:13782   */\n      tag_534\n        /* \"#utility.yul\":13775:13781   */\n      dup2\n        /* \"#utility.yul\":13770:13773   */\n      dup6\n        /* \"#utility.yul\":13669:13782   */\n      tag_357\n      jump\t// in\n    tag_534:\n        /* \"#utility.yul\":13662:13782   */\n      swap4\n      pop\n        /* \"#utility.yul\":13806:13889   */\n      tag_535\n        /* \"#utility.yul\":13883:13888   */\n      dup4\n        /* \"#utility.yul\":13806:13889   */\n      tag_358\n      jump\t// in\n    tag_535:\n        /* \"#utility.yul\":13912:13919   */\n      dup1\n        /* \"#utility.yul\":13943:13944   */\n      0x00\n        /* \"#utility.yul\":13928:14293   */\n    tag_536:\n        /* \"#utility.yul\":13953:13959   */\n      dup4\n        /* \"#utility.yul\":13950:13951   */\n      dup2\n        /* \"#utility.yul\":13947:13960   */\n      lt\n        /* \"#utility.yul\":13928:14293   */\n      iszero\n      tag_538\n      jumpi\n        /* \"#utility.yul\":14029:14035   */\n      dup2\n        /* \"#utility.yul\":14023:14036   */\n      mload\n        /* \"#utility.yul\":14056:14173   */\n      tag_539\n        /* \"#utility.yul\":14169:14172   */\n      dup9\n        /* \"#utility.yul\":14154:14167   */\n      dup3\n        /* \"#utility.yul\":14056:14173   */\n      tag_360\n      jump\t// in\n    tag_539:\n        /* \"#utility.yul\":14049:14173   */\n      swap8\n      pop\n        /* \"#utility.yul\":14196:14283   */\n      tag_540\n        /* \"#utility.yul\":14276:14282   */\n      dup4\n        /* \"#utility.yul\":14196:14283   */\n      tag_361\n      jump\t// in\n    tag_540:\n        /* \"#utility.yul\":14186:14283   */\n      swap3\n      pop\n        /* \"#utility.yul\":13988:14293   */\n      pop\n        /* \"#utility.yul\":13975:13976   */\n      0x01\n        /* \"#utility.yul\":13972:13973   */\n      dup2\n        /* \"#utility.yul\":13968:13977   */\n      add\n        /* \"#utility.yul\":13963:13977   */\n      swap1\n      pop\n        /* \"#utility.yul\":13928:14293   */\n      jump(tag_536)\n    tag_538:\n        /* \"#utility.yul\":13932:13946   */\n      pop\n        /* \"#utility.yul\":14309:14312   */\n      dup6\n        /* \"#utility.yul\":14302:14312   */\n      swap4\n      pop\n        /* \"#utility.yul\":13548:14318   */\n      pop\n      pop\n      pop\n        /* \"#utility.yul\":13370:14318   */\n      swap3\n      swap2\n      pop\n      pop\n      jump\t// out\n        /* \"#utility.yul\":14324:14805   */\n    tag_81:\n        /* \"#utility.yul\":14521:14525   */\n      0x00\n        /* \"#utility.yul\":14559:14561   */\n      0x20\n        /* \"#utility.yul\":14548:14557   */\n      dup3\n        /* \"#utility.yul\":14544:14562   */\n      add\n        /* \"#utility.yul\":14536:14562   */\n      swap1\n      pop\n        /* \"#utility.yul\":14608:14617   */\n      dup2\n        /* \"#utility.yul\":14602:14606   */\n      dup2\n        /* \"#utility.yul\":14598:14618   */\n      sub\n        /* \"#utility.yul\":14594:14595   */\n      0x00\n        /* \"#utility.yul\":14583:14592   */\n      dup4\n        /* \"#utility.yul\":14579:14596   */\n      add\n        /* \"#utility.yul\":14572:14619   */\n      mstore\n        /* \"#utility.yul\":14636:14798   */\n      tag_542\n        /* \"#utility.yul\":14793:14797   */\n      dup2\n        /* \"#utility.yul\":14784:14790   */\n      dup5\n        /* \"#utility.yul\":14636:14798   */\n      tag_362\n      jump\t// in\n    tag_542:\n        /* \"#utility.yul\":14628:14798   */\n      swap1\n      pop\n        /* \"#utility.yul\":14324:14805   */\n      swap3\n      swap2\n      pop\n      pop\n      jump\t// out\n        /* \"#utility.yul\":14811:14897   */\n    tag_363:\n        /* \"#utility.yul\":14846:14853   */\n      0x00\n        /* \"#utility.yul\":14886:14890   */\n      0xff\n        /* \"#utility.yul\":14879:14884   */\n      dup3\n        /* \"#utility.yul\":14875:14891   */\n      and\n        /* \"#utility.yul\":14864:14891   */\n      swap1\n      pop\n        /* \"#utility.yul\":14811:14897   */\n      swap2\n      swap1\n      pop\n      jump\t// out\n        /* \"#utility.yul\":14903:15015   */\n    tag_364:\n        /* \"#utility.yul\":14986:15008   */\n      tag_545\n        /* \"#utility.yul\":15002:15007   */\n      dup2\n        /* \"#utility.yul\":14986:15008   */\n      tag_363\n      jump\t// in\n    tag_545:\n        /* \"#utility.yul\":14981:14984   */\n      dup3\n        /* \"#utility.yul\":14974:15009   */\n      mstore\n        /* \"#utility.yul\":14903:15015   */\n      pop\n      pop\n      jump\t// out\n        /* \"#utility.yul\":15021:15235   */\n    tag_87:\n        /* \"#utility.yul\":15110:15114   */\n      0x00\n        /* \"#utility.yul\":15148:15150   */\n      0x20\n        /* \"#utility.yul\":15137:15146   */\n      dup3\n        /* \"#utility.yul\":15133:15151   */\n      add\n        /* \"#utility.yul\":15125:15151   */\n      swap1\n      pop\n        /* \"#utility.yul\":15161:15228   */\n      tag_547\n        /* \"#utility.yul\":15225:15226   */\n      0x00\n        /* \"#utility.yul\":15214:15223   */\n      dup4\n        /* \"#utility.yul\":15210:15227   */\n      add\n        /* \"#utility.yul\":15201:15207   */\n      dup5\n        /* \"#utility.yul\":15161:15228   */\n      tag_364\n      jump\t// in\n    tag_547:\n        /* \"#utility.yul\":15021:15235   */\n      swap3\n      swap2\n      pop\n      pop\n      jump\t// out\n        /* \"#utility.yul\":15241:15463   */\n    tag_91:\n        /* \"#utility.yul\":15334:15338   */\n      0x00\n        /* \"#utility.yul\":15372:15374   */\n      0x20\n        /* \"#utility.yul\":15361:15370   */\n      dup3\n        /* \"#utility.yul\":15357:15375   */\n      add\n        /* \"#utility.yul\":15349:15375   */\n      swap1\n      pop\n        /* \"#utility.yul\":15385:15456   */\n      tag_549\n        /* \"#utility.yul\":15453:15454   */\n      0x00\n        /* \"#utility.yul\":15442:15451   */\n      dup4\n        /* \"#utility.yul\":15438:15455   */\n      add\n        /* \"#utility.yul\":15429:15435   */\n      dup5\n        /* \"#utility.yul\":15385:15456   */\n      tag_354\n      jump\t// in\n    tag_549:\n        /* \"#utility.yul\":15241:15463   */\n      swap3\n      swap2\n      pop\n      pop\n      jump\t// out\n        /* \"#utility.yul\":15469:15611   */\n    tag_365:\n        /* \"#utility.yul\":15535:15544   */\n      0x00\n        /* \"#utility.yul\":15568:15605   */\n      tag_551\n        /* \"#utility.yul\":15599:15604   */\n      dup3\n        /* \"#utility.yul\":15568:15605   */\n      tag_350\n      jump\t// in\n    tag_551:\n        /* \"#utility.yul\":15555:15605   */\n      swap1\n      pop\n        /* \"#utility.yul\":15469:15611   */\n      swap2\n      swap1\n      pop\n      jump\t// out\n        /* \"#utility.yul\":15617:15780   */\n    tag_366:\n        /* \"#utility.yul\":15720:15773   */\n      tag_553\n        /* \"#utility.yul\":15767:15772   */\n      dup2\n        /* \"#utility.yul\":15720:15773   */\n      tag_365\n      jump\t// in\n    tag_553:\n        /* \"#utility.yul\":15715:15718   */\n      dup3\n        /* \"#utility.yul\":15708:15774   */\n      mstore\n        /* \"#utility.yul\":15617:15780   */\n      pop\n      pop\n      jump\t// out\n        /* \"#utility.yul\":15786:16040   */\n    tag_101:\n        /* \"#utility.yul\":15895:15899   */\n      0x00\n        /* \"#utility.yul\":15933:15935   */\n      0x20\n        /* \"#utility.yul\":15922:15931   */\n      dup3\n        /* \"#utility.yul\":15918:15936   */\n      add\n        /* \"#utility.yul\":15910:15936   */\n      swap1\n      pop\n        /* \"#utility.yul\":15946:16033   */\n      tag_555\n        /* \"#utility.yul\":16030:16031   */\n      0x00\n        /* \"#utility.yul\":16019:16028   */\n      dup4\n        /* \"#utility.yul\":16015:16032   */\n      add\n        /* \"#utility.yul\":16006:16012   */\n      dup5\n        /* \"#utility.yul\":15946:16033   */\n      tag_366\n      jump\t// in\n    tag_555:\n        /* \"#utility.yul\":15786:16040   */\n      swap3\n      swap2\n      pop\n      pop\n      jump\t// out\n        /* \"#utility.yul\":16046:16268   */\n    tag_109:\n        /* \"#utility.yul\":16139:16143   */\n      0x00\n        /* \"#utility.yul\":16177:16179   */\n      0x20\n        /* \"#utility.yul\":16166:16175   */\n      dup3\n        /* \"#utility.yul\":16162:16180   */\n      add\n        /* \"#utility.yul\":16154:16180   */\n      swap1\n      pop\n        /* \"#utility.yul\":16190:16261   */\n      tag_557\n        /* \"#utility.yul\":16258:16259   */\n      0x00\n        /* \"#utility.yul\":16247:16256   */\n      dup4\n        /* \"#utility.yul\":16243:16260   */\n      add\n        /* \"#utility.yul\":16234:16240   */\n      dup5\n        /* \"#utility.yul\":16190:16261   */\n      tag_353\n      jump\t// in\n    tag_557:\n        /* \"#utility.yul\":16046:16268   */\n      swap3\n      swap2\n      pop\n      pop\n      jump\t// out\n        /* \"#utility.yul\":16274:16415   */\n    tag_367:\n        /* \"#utility.yul\":16339:16348   */\n      0x00\n        /* \"#utility.yul\":16372:16409   */\n      tag_559\n        /* \"#utility.yul\":16403:16408   */\n      dup3\n        /* \"#utility.yul\":16372:16409   */\n      tag_350\n      jump\t// in\n    tag_559:\n        /* \"#utility.yul\":16359:16409   */\n      swap1\n      pop\n        /* \"#utility.yul\":16274:16415   */\n      swap2\n      swap1\n      pop\n      jump\t// out\n        /* \"#utility.yul\":16421:16582   */\n    tag_368:\n        /* \"#utility.yul\":16523:16575   */\n      tag_561\n        /* \"#utility.yul\":16569:16574   */\n      dup2\n        /* \"#utility.yul\":16523:16575   */\n      tag_367\n      jump\t// in\n    tag_561:\n        /* \"#utility.yul\":16518:16521   */\n      dup3\n        /* \"#utility.yul\":16511:16576   */\n      mstore\n        /* \"#utility.yul\":16421:16582   */\n      pop\n      pop\n      jump\t// out\n        /* \"#utility.yul\":16588:16840   */\n    tag_116:\n        /* \"#utility.yul\":16696:16700   */\n      0x00\n        /* \"#utility.yul\":16734:16736   */\n      0x20\n        /* \"#utility.yul\":16723:16732   */\n      dup3\n        /* \"#utility.yul\":16719:16737   */\n      add\n        /* \"#utility.yul\":16711:16737   */\n      swap1\n      pop\n        /* \"#utility.yul\":16747:16833   */\n      tag_563\n        /* \"#utility.yul\":16830:16831   */\n      0x00\n        /* \"#utility.yul\":16819:16828   */\n      dup4\n        /* \"#utility.yul\":16815:16832   */\n      add\n        /* \"#utility.yul\":16806:16812   */\n      dup5\n        /* \"#utility.yul\":16747:16833   */\n      tag_368\n      jump\t// in\n    tag_563:\n        /* \"#utility.yul\":16588:16840   */\n      swap3\n      swap2\n      pop\n      pop\n      jump\t// out\n        /* \"#utility.yul\":16846:16963   */\n    tag_369:\n        /* \"#utility.yul\":16955:16956   */\n      0x00\n        /* \"#utility.yul\":16952:16953   */\n      dup1\n        /* \"#utility.yul\":16945:16957   */\n      revert\n        /* \"#utility.yul\":16969:17149   */\n    tag_229:\n        /* \"#utility.yul\":17017:17094   */\n      0x4e487b7100000000000000000000000000000000000000000000000000000000\n        /* \"#utility.yul\":17014:17015   */\n      0x00\n        /* \"#utility.yul\":17007:17095   */\n      mstore\n        /* \"#utility.yul\":17114:17118   */\n      0x41\n        /* \"#utility.yul\":17111:17112   */\n      0x04\n        /* \"#utility.yul\":17104:17119   */\n      mstore\n        /* \"#utility.yul\":17138:17142   */\n      0x24\n        /* \"#utility.yul\":17135:17136   */\n      0x00\n        /* \"#utility.yul\":17128:17143   */\n      revert\n        /* \"#utility.yul\":17155:17436   */\n    tag_370:\n        /* \"#utility.yul\":17238:17265   */\n      tag_567\n        /* \"#utility.yul\":17260:17264   */\n      dup3\n        /* \"#utility.yul\":17238:17265   */\n      tag_334\n      jump\t// in\n    tag_567:\n        /* \"#utility.yul\":17230:17236   */\n      dup2\n        /* \"#utility.yul\":17226:17266   */\n      add\n        /* \"#utility.yul\":17368:17374   */\n      dup2\n        /* \"#utility.yul\":17356:17366   */\n      dup2\n        /* \"#utility.yul\":17353:17375   */\n      lt\n        /* \"#utility.yul\":17332:17350   */\n      0xffffffffffffffff\n        /* \"#utility.yul\":17320:17330   */\n      dup3\n        /* \"#utility.yul\":17317:17351   */\n      gt\n        /* \"#utility.yul\":17314:17376   */\n      or\n        /* \"#utility.yul\":17311:17399   */\n      iszero\n      tag_568\n      jumpi\n        /* \"#utility.yul\":17379:17397   */\n      tag_569\n      tag_229\n      jump\t// in\n    tag_569:\n        /* \"#utility.yul\":17311:17399   */\n    tag_568:\n        /* \"#utility.yul\":17419:17429   */\n      dup1\n        /* \"#utility.yul\":17415:17417   */\n      0x40\n        /* \"#utility.yul\":17408:17430   */\n      mstore\n        /* \"#utility.yul\":17198:17436   */\n      pop\n        /* \"#utility.yul\":17155:17436   */\n      pop\n      pop\n      jump\t// out\n        /* \"#utility.yul\":17442:17571   */\n    tag_371:\n        /* \"#utility.yul\":17476:17482   */\n      0x00\n        /* \"#utility.yul\":17503:17523   */\n      tag_571\n      tag_321\n      jump\t// in\n    tag_571:\n        /* \"#utility.yul\":17493:17523   */\n      swap1\n      pop\n        /* \"#utility.yul\":17532:17565   */\n      tag_572\n        /* \"#utility.yul\":17560:17564   */\n      dup3\n        /* \"#utility.yul\":17552:17558   */\n      dup3\n        /* \"#utility.yul\":17532:17565   */\n      tag_370\n      jump\t// in\n    tag_572:\n        /* \"#utility.yul\":17442:17571   */\n      swap2\n      swap1\n      pop\n      jump\t// out\n        /* \"#utility.yul\":17577:17694   */\n    tag_372:\n        /* \"#utility.yul\":17686:17687   */\n      0x00\n        /* \"#utility.yul\":17683:17684   */\n      dup1\n        /* \"#utility.yul\":17676:17688   */\n      revert\n        /* \"#utility.yul\":17700:17843   */\n    tag_373:\n        /* \"#utility.yul\":17757:17762   */\n      0x00\n        /* \"#utility.yul\":17788:17794   */\n      dup2\n        /* \"#utility.yul\":17782:17795   */\n      mload\n        /* \"#utility.yul\":17773:17795   */\n      swap1\n      pop\n        /* \"#utility.yul\":17804:17837   */\n      tag_575\n        /* \"#utility.yul\":17831:17836   */\n      dup2\n        /* \"#utility.yul\":17804:17837   */\n      tag_325\n      jump\t// in\n    tag_575:\n        /* \"#utility.yul\":17700:17843   */\n      swap3\n      swap2\n      pop\n      pop\n      jump\t// out\n        /* \"#utility.yul\":17849:17992   */\n    tag_374:\n        /* \"#utility.yul\":17906:17911   */\n      0x00\n        /* \"#utility.yul\":17937:17943   */\n      dup2\n        /* \"#utility.yul\":17931:17944   */\n      mload\n        /* \"#utility.yul\":17922:17944   */\n      swap1\n      pop\n        /* \"#utility.yul\":17953:17986   */\n      tag_577\n        /* \"#utility.yul\":17980:17985   */\n      dup2\n        /* \"#utility.yul\":17953:17986   */\n      tag_344\n      jump\t// in\n    tag_577:\n        /* \"#utility.yul\":17849:17992   */\n      swap3\n      swap2\n      pop\n      pop\n      jump\t// out\n        /* \"#utility.yul\":17998:18115   */\n    tag_375:\n        /* \"#utility.yul\":18107:18108   */\n      0x00\n        /* \"#utility.yul\":18104:18105   */\n      dup1\n        /* \"#utility.yul\":18097:18109   */\n      revert\n        /* \"#utility.yul\":18121:18238   */\n    tag_376:\n        /* \"#utility.yul\":18230:18231   */\n      0x00\n        /* \"#utility.yul\":18227:18228   */\n      dup1\n        /* \"#utility.yul\":18220:18232   */\n      revert\n        /* \"#utility.yul\":18244:18552   */\n    tag_377:\n        /* \"#utility.yul\":18306:18310   */\n      0x00\n        /* \"#utility.yul\":18396:18414   */\n      0xffffffffffffffff\n        /* \"#utility.yul\":18388:18394   */\n      dup3\n        /* \"#utility.yul\":18385:18415   */\n      gt\n        /* \"#utility.yul\":18382:18438   */\n      iszero\n      tag_581\n      jumpi\n        /* \"#utility.yul\":18418:18436   */\n      tag_582\n      tag_229\n      jump\t// in\n    tag_582:\n        /* \"#utility.yul\":18382:18438   */\n    tag_581:\n        /* \"#utility.yul\":18456:18485   */\n      tag_583\n        /* \"#utility.yul\":18478:18484   */\n      dup3\n        /* \"#utility.yul\":18456:18485   */\n      tag_334\n      jump\t// in\n    tag_583:\n        /* \"#utility.yul\":18448:18485   */\n      swap1\n      pop\n        /* \"#utility.yul\":18540:18544   */\n      0x20\n        /* \"#utility.yul\":18534:18538   */\n      dup2\n        /* \"#utility.yul\":18530:18545   */\n      add\n        /* \"#utility.yul\":18522:18545   */\n      swap1\n      pop\n        /* \"#utility.yul\":18244:18552   */\n      swap2\n      swap1\n      pop\n      jump\t// out\n        /* \"#utility.yul\":18558:18979   */\n    tag_378:\n        /* \"#utility.yul\":18647:18652   */\n      0x00\n        /* \"#utility.yul\":18672:18738   */\n      tag_585\n        /* \"#utility.yul\":18688:18737   */\n      tag_586\n        /* \"#utility.yul\":18730:18736   */\n      dup5\n        /* \"#utility.yul\":18688:18737   */\n      tag_377\n      jump\t// in\n    tag_586:\n        /* \"#utility.yul\":18672:18738   */\n      tag_371\n      jump\t// in\n    tag_585:\n        /* \"#utility.yul\":18663:18738   */\n      swap1\n      pop\n        /* \"#utility.yul\":18761:18767   */\n      dup3\n        /* \"#utility.yul\":18754:18759   */\n      dup2\n        /* \"#utility.yul\":18747:18768   */\n      mstore\n        /* \"#utility.yul\":18799:18803   */\n      0x20\n        /* \"#utility.yul\":18792:18797   */\n      dup2\n        /* \"#utility.yul\":18788:18804   */\n      add\n        /* \"#utility.yul\":18837:18840   */\n      dup5\n        /* \"#utility.yul\":18828:18834   */\n      dup5\n        /* \"#utility.yul\":18823:18826   */\n      dup5\n        /* \"#utility.yul\":18819:18835   */\n      add\n        /* \"#utility.yul\":18816:18841   */\n      gt\n        /* \"#utility.yul\":18813:18925   */\n      iszero\n      tag_587\n      jumpi\n        /* \"#utility.yul\":18844:18923   */\n      tag_588\n      tag_376\n      jump\t// in\n    tag_588:\n        /* \"#utility.yul\":18813:18925   */\n    tag_587:\n        /* \"#utility.yul\":18934:18973   */\n      tag_589\n        /* \"#utility.yul\":18966:18972   */\n      dup5\n        /* \"#utility.yul\":18961:18964   */\n      dup3\n        /* \"#utility.yul\":18956:18959   */\n      dup6\n        /* \"#utility.yul\":18934:18973   */\n      tag_333\n      jump\t// in\n    tag_589:\n        /* \"#utility.yul\":18653:18979   */\n      pop\n        /* \"#utility.yul\":18558:18979   */\n      swap4\n      swap3\n      pop\n      pop\n      pop\n      jump\t// out\n        /* \"#utility.yul\":18999:19354   */\n    tag_379:\n        /* \"#utility.yul\":19066:19071   */\n      0x00\n        /* \"#utility.yul\":19115:19118   */\n      dup3\n        /* \"#utility.yul\":19108:19112   */\n      0x1f\n        /* \"#utility.yul\":19100:19106   */\n      dup4\n        /* \"#utility.yul\":19096:19113   */\n      add\n        /* \"#utility.yul\":19092:19119   */\n      slt\n        /* \"#utility.yul\":19082:19204   */\n      tag_591\n      jumpi\n        /* \"#utility.yul\":19123:19202   */\n      tag_592\n      tag_375\n      jump\t// in\n    tag_592:\n        /* \"#utility.yul\":19082:19204   */\n    tag_591:\n        /* \"#utility.yul\":19233:19239   */\n      dup2\n        /* \"#utility.yul\":19227:19240   */\n      mload\n        /* \"#utility.yul\":19258:19348   */\n      tag_593\n        /* \"#utility.yul\":19344:19347   */\n      dup5\n        /* \"#utility.yul\":19336:19342   */\n      dup3\n        /* \"#utility.yul\":19329:19333   */\n      0x20\n        /* \"#utility.yul\":19321:19327   */\n      dup7\n        /* \"#utility.yul\":19317:19334   */\n      add\n        /* \"#utility.yul\":19258:19348   */\n      tag_378\n      jump\t// in\n    tag_593:\n        /* \"#utility.yul\":19249:19348   */\n      swap2\n      pop\n        /* \"#utility.yul\":19072:19354   */\n      pop\n        /* \"#utility.yul\":18999:19354   */\n      swap3\n      swap2\n      pop\n      pop\n      jump\t// out\n        /* \"#utility.yul\":19360:19476   */\n    tag_380:\n        /* \"#utility.yul\":19430:19451   */\n      tag_595\n        /* \"#utility.yul\":19445:19450   */\n      dup2\n        /* \"#utility.yul\":19430:19451   */\n      tag_336\n      jump\t// in\n    tag_595:\n        /* \"#utility.yul\":19423:19428   */\n      dup2\n        /* \"#utility.yul\":19420:19452   */\n      eq\n        /* \"#utility.yul\":19410:19470   */\n      tag_596\n      jumpi\n        /* \"#utility.yul\":19466:19467   */\n      0x00\n        /* \"#utility.yul\":19463:19464   */\n      dup1\n        /* \"#utility.yul\":19456:19468   */\n      revert\n        /* \"#utility.yul\":19410:19470   */\n    tag_596:\n        /* \"#utility.yul\":19360:19476   */\n      pop\n      jump\t// out\n        /* \"#utility.yul\":19482:19619   */\n    tag_381:\n        /* \"#utility.yul\":19536:19541   */\n      0x00\n        /* \"#utility.yul\":19567:19573   */\n      dup2\n        /* \"#utility.yul\":19561:19574   */\n      mload\n        /* \"#utility.yul\":19552:19574   */\n      swap1\n      pop\n        /* \"#utility.yul\":19583:19613   */\n      tag_598\n        /* \"#utility.yul\":19607:19612   */\n      dup2\n        /* \"#utility.yul\":19583:19613   */\n      tag_380\n      jump\t// in\n    tag_598:\n        /* \"#utility.yul\":19482:19619   */\n      swap3\n      swap2\n      pop\n      pop\n      jump\t// out\n        /* \"#utility.yul\":19660:21119   */\n    tag_382:\n        /* \"#utility.yul\":19748:19753   */\n      0x00\n        /* \"#utility.yul\":19792:19796   */\n      0xa0\n        /* \"#utility.yul\":19780:19789   */\n      dup3\n        /* \"#utility.yul\":19775:19778   */\n      dup5\n        /* \"#utility.yul\":19771:19790   */\n      sub\n        /* \"#utility.yul\":19767:19797   */\n      slt\n        /* \"#utility.yul\":19764:19881   */\n      iszero\n      tag_600\n      jumpi\n        /* \"#utility.yul\":19800:19879   */\n      tag_601\n      tag_369\n      jump\t// in\n    tag_601:\n        /* \"#utility.yul\":19764:19881   */\n    tag_600:\n        /* \"#utility.yul\":19899:19920   */\n      tag_602\n        /* \"#utility.yul\":19915:19919   */\n      0xa0\n        /* \"#utility.yul\":19899:19920   */\n      tag_371\n      jump\t// in\n    tag_602:\n        /* \"#utility.yul\":19890:19920   */\n      swap1\n      pop\n        /* \"#utility.yul\":19977:19978   */\n      0x00\n        /* \"#utility.yul\":20017:20077   */\n      tag_603\n        /* \"#utility.yul\":20073:20076   */\n      dup5\n        /* \"#utility.yul\":20064:20070   */\n      dup3\n        /* \"#utility.yul\":20053:20062   */\n      dup6\n        /* \"#utility.yul\":20049:20071   */\n      add\n        /* \"#utility.yul\":20017:20077   */\n      tag_373\n      jump\t// in\n    tag_603:\n        /* \"#utility.yul\":20010:20014   */\n      0x00\n        /* \"#utility.yul\":20003:20008   */\n      dup4\n        /* \"#utility.yul\":19999:20015   */\n      add\n        /* \"#utility.yul\":19992:20078   */\n      mstore\n        /* \"#utility.yul\":19930:20089   */\n      pop\n        /* \"#utility.yul\":20149:20151   */\n      0x20\n        /* \"#utility.yul\":20190:20250   */\n      tag_604\n        /* \"#utility.yul\":20246:20249   */\n      dup5\n        /* \"#utility.yul\":20237:20243   */\n      dup3\n        /* \"#utility.yul\":20226:20235   */\n      dup6\n        /* \"#utility.yul\":20222:20244   */\n      add\n        /* \"#utility.yul\":20190:20250   */\n      tag_374\n      jump\t// in\n    tag_604:\n        /* \"#utility.yul\":20183:20187   */\n      0x20\n        /* \"#utility.yul\":20176:20181   */\n      dup4\n        /* \"#utility.yul\":20172:20188   */\n      add\n        /* \"#utility.yul\":20165:20251   */\n      mstore\n        /* \"#utility.yul\":20099:20262   */\n      pop\n        /* \"#utility.yul\":20344:20346   */\n      0x40\n        /* \"#utility.yul\":20333:20342   */\n      dup3\n        /* \"#utility.yul\":20329:20347   */\n      add\n        /* \"#utility.yul\":20323:20348   */\n      mload\n        /* \"#utility.yul\":20375:20393   */\n      0xffffffffffffffff\n        /* \"#utility.yul\":20367:20373   */\n      dup2\n        /* \"#utility.yul\":20364:20394   */\n      gt\n        /* \"#utility.yul\":20361:20478   */\n      iszero\n      tag_605\n      jumpi\n        /* \"#utility.yul\":20397:20476   */\n      tag_606\n      tag_372\n      jump\t// in\n    tag_606:\n        /* \"#utility.yul\":20361:20478   */\n    tag_605:\n        /* \"#utility.yul\":20517:20587   */\n      tag_607\n        /* \"#utility.yul\":20583:20586   */\n      dup5\n        /* \"#utility.yul\":20574:20580   */\n      dup3\n        /* \"#utility.yul\":20563:20572   */\n      dup6\n        /* \"#utility.yul\":20559:20581   */\n      add\n        /* \"#utility.yul\":20517:20587   */\n      tag_379\n      jump\t// in\n    tag_607:\n        /* \"#utility.yul\":20510:20514   */\n      0x40\n        /* \"#utility.yul\":20503:20508   */\n      dup4\n        /* \"#utility.yul\":20499:20515   */\n      add\n        /* \"#utility.yul\":20492:20588   */\n      mstore\n        /* \"#utility.yul\":20272:20599   */\n      pop\n        /* \"#utility.yul\":20685:20687   */\n      0x60\n        /* \"#utility.yul\":20674:20683   */\n      dup3\n        /* \"#utility.yul\":20670:20688   */\n      add\n        /* \"#utility.yul\":20664:20689   */\n      mload\n        /* \"#utility.yul\":20716:20734   */\n      0xffffffffffffffff\n        /* \"#utility.yul\":20708:20714   */\n      dup2\n        /* \"#utility.yul\":20705:20735   */\n      gt\n        /* \"#utility.yul\":20702:20819   */\n      iszero\n      tag_608\n      jumpi\n        /* \"#utility.yul\":20738:20817   */\n      tag_609\n      tag_372\n      jump\t// in\n    tag_609:\n        /* \"#utility.yul\":20702:20819   */\n    tag_608:\n        /* \"#utility.yul\":20858:20928   */\n      tag_610\n        /* \"#utility.yul\":20924:20927   */\n      dup5\n        /* \"#utility.yul\":20915:20921   */\n      dup3\n        /* \"#utility.yul\":20904:20913   */\n      dup6\n        /* \"#utility.yul\":20900:20922   */\n      add\n        /* \"#utility.yul\":20858:20928   */\n      tag_379\n      jump\t// in\n    tag_610:\n        /* \"#utility.yul\":20851:20855   */\n      0x60\n        /* \"#utility.yul\":20844:20849   */\n      dup4\n        /* \"#utility.yul\":20840:20856   */\n      add\n        /* \"#utility.yul\":20833:20929   */\n      mstore\n        /* \"#utility.yul\":20609:20940   */\n      pop\n        /* \"#utility.yul\":21001:21004   */\n      0x80\n        /* \"#utility.yul\":21043:21100   */\n      tag_611\n        /* \"#utility.yul\":21096:21099   */\n      dup5\n        /* \"#utility.yul\":21087:21093   */\n      dup3\n        /* \"#utility.yul\":21076:21085   */\n      dup6\n        /* \"#utility.yul\":21072:21094   */\n      add\n        /* \"#utility.yul\":21043:21100   */\n      tag_381\n      jump\t// in\n    tag_611:\n        /* \"#utility.yul\":21036:21040   */\n      0x80\n        /* \"#utility.yul\":21029:21034   */\n      dup4\n        /* \"#utility.yul\":21025:21041   */\n      add\n        /* \"#utility.yul\":21018:21101   */\n      mstore\n        /* \"#utility.yul\":20950:21112   */\n      pop\n        /* \"#utility.yul\":19660:21119   */\n      swap3\n      swap2\n      pop\n      pop\n      jump\t// out\n        /* \"#utility.yul\":21125:21685   */\n    tag_128:\n        /* \"#utility.yul\":21223:21229   */\n      0x00\n        /* \"#utility.yul\":21272:21274   */\n      0x20\n        /* \"#utility.yul\":21260:21269   */\n      dup3\n        /* \"#utility.yul\":21251:21258   */\n      dup5\n        /* \"#utility.yul\":21247:21270   */\n      sub\n        /* \"#utility.yul\":21243:21275   */\n      slt\n        /* \"#utility.yul\":21240:21359   */\n      iszero\n      tag_613\n      jumpi\n        /* \"#utility.yul\":21278:21357   */\n      tag_614\n      tag_322\n      jump\t// in\n    tag_614:\n        /* \"#utility.yul\":21240:21359   */\n    tag_613:\n        /* \"#utility.yul\":21419:21420   */\n      0x00\n        /* \"#utility.yul\":21408:21417   */\n      dup3\n        /* \"#utility.yul\":21404:21421   */\n      add\n        /* \"#utility.yul\":21398:21422   */\n      mload\n        /* \"#utility.yul\":21449:21467   */\n      0xffffffffffffffff\n        /* \"#utility.yul\":21441:21447   */\n      dup2\n        /* \"#utility.yul\":21438:21468   */\n      gt\n        /* \"#utility.yul\":21435:21552   */\n      iszero\n      tag_615\n      jumpi\n        /* \"#utility.yul\":21471:21550   */\n      tag_616\n      tag_323\n      jump\t// in\n    tag_616:\n        /* \"#utility.yul\":21435:21552   */\n    tag_615:\n        /* \"#utility.yul\":21576:21668   */\n      tag_617\n        /* \"#utility.yul\":21660:21667   */\n      dup5\n        /* \"#utility.yul\":21651:21657   */\n      dup3\n        /* \"#utility.yul\":21640:21649   */\n      dup6\n        /* \"#utility.yul\":21636:21658   */\n      add\n        /* \"#utility.yul\":21576:21668   */\n      tag_382\n      jump\t// in\n    tag_617:\n        /* \"#utility.yul\":21566:21668   */\n      swap2\n      pop\n        /* \"#utility.yul\":21369:21678   */\n      pop\n        /* \"#utility.yul\":21125:21685   */\n      swap3\n      swap2\n      pop\n      pop\n      jump\t// out\n        /* \"#utility.yul\":21691:21860   */\n    tag_383:\n        /* \"#utility.yul\":21775:21786   */\n      0x00\n        /* \"#utility.yul\":21809:21815   */\n      dup3\n        /* \"#utility.yul\":21804:21807   */\n      dup3\n        /* \"#utility.yul\":21797:21816   */\n      mstore\n        /* \"#utility.yul\":21849:21853   */\n      0x20\n        /* \"#utility.yul\":21844:21847   */\n      dup3\n        /* \"#utility.yul\":21840:21854   */\n      add\n        /* \"#utility.yul\":21825:21854   */\n      swap1\n      pop\n        /* \"#utility.yul\":21691:21860   */\n      swap3\n      swap2\n      pop\n      pop\n      jump\t// out\n        /* \"#utility.yul\":21866:22035   */\n    tag_384:\n        /* \"#utility.yul\":22006:22027   */\n      0x4173736574206e6f74207075626c697368656400000000000000000000000000\n        /* \"#utility.yul\":22002:22003   */\n      0x00\n        /* \"#utility.yul\":21994:22000   */\n      dup3\n        /* \"#utility.yul\":21990:22004   */\n      add\n        /* \"#utility.yul\":21983:22028   */\n      mstore\n        /* \"#utility.yul\":21866:22035   */\n      pop\n      jump\t// out\n        /* \"#utility.yul\":22041:22407   */\n    tag_385:\n        /* \"#utility.yul\":22183:22186   */\n      0x00\n        /* \"#utility.yul\":22204:22271   */\n      tag_621\n        /* \"#utility.yul\":22268:22270   */\n      0x13\n        /* \"#utility.yul\":22263:22266   */\n      dup4\n        /* \"#utility.yul\":22204:22271   */\n      tag_383\n      jump\t// in\n    tag_621:\n        /* \"#utility.yul\":22197:22271   */\n      swap2\n      pop\n        /* \"#utility.yul\":22280:22373   */\n      tag_622\n        /* \"#utility.yul\":22369:22372   */\n      dup3\n        /* \"#utility.yul\":22280:22373   */\n      tag_384\n      jump\t// in\n    tag_622:\n        /* \"#utility.yul\":22398:22400   */\n      0x20\n        /* \"#utility.yul\":22393:22396   */\n      dup3\n        /* \"#utility.yul\":22389:22401   */\n      add\n        /* \"#utility.yul\":22382:22401   */\n      swap1\n      pop\n        /* \"#utility.yul\":22041:22407   */\n      swap2\n      swap1\n      pop\n      jump\t// out\n        /* \"#utility.yul\":22413:22832   */\n    tag_144:\n        /* \"#utility.yul\":22579:22583   */\n      0x00\n        /* \"#utility.yul\":22617:22619   */\n      0x20\n        /* \"#utility.yul\":22606:22615   */\n      dup3\n        /* \"#utility.yul\":22602:22620   */\n      add\n        /* \"#utility.yul\":22594:22620   */\n      swap1\n      pop\n        /* \"#utility.yul\":22666:22675   */\n      dup2\n        /* \"#utility.yul\":22660:22664   */\n      dup2\n        /* \"#utility.yul\":22656:22676   */\n      sub\n        /* \"#utility.yul\":22652:22653   */\n      0x00\n        /* \"#utility.yul\":22641:22650   */\n      dup4\n        /* \"#utility.yul\":22637:22654   */\n      add\n        /* \"#utility.yul\":22630:22677   */\n      mstore\n        /* \"#utility.yul\":22694:22825   */\n      tag_624\n        /* \"#utility.yul\":22820:22824   */\n      dup2\n        /* \"#utility.yul\":22694:22825   */\n      tag_385\n      jump\t// in\n    tag_624:\n        /* \"#utility.yul\":22686:22825   */\n      swap1\n      pop\n        /* \"#utility.yul\":22413:22832   */\n      swap2\n      swap1\n      pop\n      jump\t// out\n        /* \"#utility.yul\":22838:23002   */\n    tag_386:\n        /* \"#utility.yul\":22978:22994   */\n      0x41737365742064656c6973746564000000000000000000000000000000000000\n        /* \"#utility.yul\":22974:22975   */\n      0x00\n        /* \"#utility.yul\":22966:22972   */\n      dup3\n        /* \"#utility.yul\":22962:22976   */\n      add\n        /* \"#utility.yul\":22955:22995   */\n      mstore\n        /* \"#utility.yul\":22838:23002   */\n      pop\n      jump\t// out\n        /* \"#utility.yul\":23008:23374   */\n    tag_387:\n        /* \"#utility.yul\":23150:23153   */\n      0x00\n        /* \"#utility.yul\":23171:23238   */\n      tag_627\n        /* \"#utility.yul\":23235:23237   */\n      0x0e\n        /* \"#utility.yul\":23230:23233   */\n      dup4\n        /* \"#utility.yul\":23171:23238   */\n      tag_383\n      jump\t// in\n    tag_627:\n        /* \"#utility.yul\":23164:23238   */\n      swap2\n      pop\n        /* \"#utility.yul\":23247:23340   */\n      tag_628\n        /* \"#utility.yul\":23336:23339   */\n      dup3\n        /* \"#utility.yul\":23247:23340   */\n      tag_386\n      jump\t// in\n    tag_628:\n        /* \"#utility.yul\":23365:23367   */\n      0x20\n        /* \"#utility.yul\":23360:23363   */\n      dup3\n        /* \"#utility.yul\":23356:23368   */\n      add\n        /* \"#utility.yul\":23349:23368   */\n      swap1\n      pop\n        /* \"#utility.yul\":23008:23374   */\n      swap2\n      swap1\n      pop\n      jump\t// out\n        /* \"#utility.yul\":23380:23799   */\n    tag_151:\n        /* \"#utility.yul\":23546:23550   */\n      0x00\n        /* \"#utility.yul\":23584:23586   */\n      0x20\n        /* \"#utility.yul\":23573:23582   */\n      dup3\n        /* \"#utility.yul\":23569:23587   */\n      add\n        /* \"#utility.yul\":23561:23587   */\n      swap1\n      pop\n        /* \"#utility.yul\":23633:23642   */\n      dup2\n        /* \"#utility.yul\":23627:23631   */\n      dup2\n        /* \"#utility.yul\":23623:23643   */\n      sub\n        /* \"#utility.yul\":23619:23620   */\n      0x00\n        /* \"#utility.yul\":23608:23617   */\n      dup4\n        /* \"#utility.yul\":23604:23621   */\n      add\n        /* \"#utility.yul\":23597:23644   */\n      mstore\n        /* \"#utility.yul\":23661:23792   */\n      tag_630\n        /* \"#utility.yul\":23787:23791   */\n      dup2\n        /* \"#utility.yul\":23661:23792   */\n      tag_387\n      jump\t// in\n    tag_630:\n        /* \"#utility.yul\":23653:23792   */\n      swap1\n      pop\n        /* \"#utility.yul\":23380:23799   */\n      swap2\n      swap1\n      pop\n      jump\t// out\n        /* \"#utility.yul\":23805:23970   */\n    tag_388:\n        /* \"#utility.yul\":23945:23962   */\n      0x496e76616c696420616464726573730000000000000000000000000000000000\n        /* \"#utility.yul\":23941:23942   */\n      0x00\n        /* \"#utility.yul\":23933:23939   */\n      dup3\n        /* \"#utility.yul\":23929:23943   */\n      add\n        /* \"#utility.yul\":23922:23963   */\n      mstore\n        /* \"#utility.yul\":23805:23970   */\n      pop\n      jump\t// out\n        /* \"#utility.yul\":23976:24342   */\n    tag_389:\n        /* \"#utility.yul\":24118:24121   */\n      0x00\n        /* \"#utility.yul\":24139:24206   */\n      tag_633\n        /* \"#utility.yul\":24203:24205   */\n      0x0f\n        /* \"#utility.yul\":24198:24201   */\n      dup4\n        /* \"#utility.yul\":24139:24206   */\n      tag_383\n      jump\t// in\n    tag_633:\n        /* \"#utility.yul\":24132:24206   */\n      swap2\n      pop\n        /* \"#utility.yul\":24215:24308   */\n      tag_634\n        /* \"#utility.yul\":24304:24307   */\n      dup3\n        /* \"#utility.yul\":24215:24308   */\n      tag_388\n      jump\t// in\n    tag_634:\n        /* \"#utility.yul\":24333:24335   */\n      0x20\n        /* \"#utility.yul\":24328:24331   */\n      dup3\n        /* \"#utility.yul\":24324:24336   */\n      add\n        /* \"#utility.yul\":24317:24336   */\n      swap1\n      pop\n        /* \"#utility.yul\":23976:24342   */\n      swap2\n      swap1\n      pop\n      jump\t// out\n        /* \"#utility.yul\":24348:24767   */\n    tag_154:\n        /* \"#utility.yul\":24514:24518   */\n      0x00\n        /* \"#utility.yul\":24552:24554   */\n      0x20\n        /* \"#utility.yul\":24541:24550   */\n      dup3\n        /* \"#utility.yul\":24537:24555   */\n      add\n        /* \"#utility.yul\":24529:24555   */\n      swap1\n      pop\n        /* \"#utility.yul\":24601:24610   */\n      dup2\n        /* \"#utility.yul\":24595:24599   */\n      dup2\n        /* \"#utility.yul\":24591:24611   */\n      sub\n        /* \"#utility.yul\":24587:24588   */\n      0x00\n        /* \"#utility.yul\":24576:24585   */\n      dup4\n        /* \"#utility.yul\":24572:24589   */\n      add\n        /* \"#utility.yul\":24565:24612   */\n      mstore\n        /* \"#utility.yul\":24629:24760   */\n      tag_636\n        /* \"#utility.yul\":24755:24759   */\n      dup2\n        /* \"#utility.yul\":24629:24760   */\n      tag_389\n      jump\t// in\n    tag_636:\n        /* \"#utility.yul\":24621:24760   */\n      swap1\n      pop\n        /* \"#utility.yul\":24348:24767   */\n      swap2\n      swap1\n      pop\n      jump\t// out\n        /* \"#utility.yul\":24773:24945   */\n    tag_390:\n        /* \"#utility.yul\":24913:24937   */\n      0x4f6e6c792073656c6c65722063616e2064656c69737400000000000000000000\n        /* \"#utility.yul\":24909:24910   */\n      0x00\n        /* \"#utility.yul\":24901:24907   */\n      dup3\n        /* \"#utility.yul\":24897:24911   */\n      add\n        /* \"#utility.yul\":24890:24938   */\n      mstore\n        /* \"#utility.yul\":24773:24945   */\n      pop\n      jump\t// out\n        /* \"#utility.yul\":24951:25317   */\n    tag_391:\n        /* \"#utility.yul\":25093:25096   */\n      0x00\n        /* \"#utility.yul\":25114:25181   */\n      tag_639\n        /* \"#utility.yul\":25178:25180   */\n      0x16\n        /* \"#utility.yul\":25173:25176   */\n      dup4\n        /* \"#utility.yul\":25114:25181   */\n      tag_383\n      jump\t// in\n    tag_639:\n        /* \"#utility.yul\":25107:25181   */\n      swap2\n      pop\n        /* \"#utility.yul\":25190:25283   */\n      tag_640\n        /* \"#utility.yul\":25279:25282   */\n      dup3\n        /* \"#utility.yul\":25190:25283   */\n      tag_390\n      jump\t// in\n    tag_640:\n        /* \"#utility.yul\":25308:25310   */\n      0x20\n        /* \"#utility.yul\":25303:25306   */\n      dup3\n        /* \"#utility.yul\":25299:25311   */\n      add\n        /* \"#utility.yul\":25292:25311   */\n      swap1\n      pop\n        /* \"#utility.yul\":24951:25317   */\n      swap2\n      swap1\n      pop\n      jump\t// out\n        /* \"#utility.yul\":25323:25742   */\n    tag_157:\n        /* \"#utility.yul\":25489:25493   */\n      0x00\n        /* \"#utility.yul\":25527:25529   */\n      0x20\n        /* \"#utility.yul\":25516:25525   */\n      dup3\n        /* \"#utility.yul\":25512:25530   */\n      add\n        /* \"#utility.yul\":25504:25530   */\n      swap1\n      pop\n        /* \"#utility.yul\":25576:25585   */\n      dup2\n        /* \"#utility.yul\":25570:25574   */\n      dup2\n        /* \"#utility.yul\":25566:25586   */\n      sub\n        /* \"#utility.yul\":25562:25563   */\n      0x00\n        /* \"#utility.yul\":25551:25560   */\n      dup4\n        /* \"#utility.yul\":25547:25564   */\n      add\n        /* \"#utility.yul\":25540:25587   */\n      mstore\n        /* \"#utility.yul\":25604:25735   */\n      tag_642\n        /* \"#utility.yul\":25730:25734   */\n      dup2\n        /* \"#utility.yul\":25604:25735   */\n      tag_391\n      jump\t// in\n    tag_642:\n        /* \"#utility.yul\":25596:25735   */\n      swap1\n      pop\n        /* \"#utility.yul\":25323:25742   */\n      swap2\n      swap1\n      pop\n      jump\t// out\n        /* \"#utility.yul\":25748:26190   */\n    tag_159:\n        /* \"#utility.yul\":25897:25901   */\n      0x00\n        /* \"#utility.yul\":25935:25937   */\n      0x60\n        /* \"#utility.yul\":25924:25933   */\n      dup3\n        /* \"#utility.yul\":25920:25938   */\n      add\n        /* \"#utility.yul\":25912:25938   */\n      swap1\n      pop\n        /* \"#utility.yul\":25948:26019   */\n      tag_644\n        /* \"#utility.yul\":26016:26017   */\n      0x00\n        /* \"#utility.yul\":26005:26014   */\n      dup4\n        /* \"#utility.yul\":26001:26018   */\n      add\n        /* \"#utility.yul\":25992:25998   */\n      dup7\n        /* \"#utility.yul\":25948:26019   */\n      tag_354\n      jump\t// in\n    tag_644:\n        /* \"#utility.yul\":26029:26101   */\n      tag_645\n        /* \"#utility.yul\":26097:26099   */\n      0x20\n        /* \"#utility.yul\":26086:26095   */\n      dup4\n        /* \"#utility.yul\":26082:26100   */\n      add\n        /* \"#utility.yul\":26073:26079   */\n      dup6\n        /* \"#utility.yul\":26029:26101   */\n      tag_354\n      jump\t// in\n    tag_645:\n        /* \"#utility.yul\":26111:26183   */\n      tag_646\n        /* \"#utility.yul\":26179:26181   */\n      0x40\n        /* \"#utility.yul\":26168:26177   */\n      dup4\n        /* \"#utility.yul\":26164:26182   */\n      add\n        /* \"#utility.yul\":26155:26161   */\n      dup5\n        /* \"#utility.yul\":26111:26183   */\n      tag_353\n      jump\t// in\n    tag_646:\n        /* \"#utility.yul\":25748:26190   */\n      swap5\n      swap4\n      pop\n      pop\n      pop\n      pop\n      jump\t// out\n        /* \"#utility.yul\":26196:26528   */\n    tag_168:\n        /* \"#utility.yul\":26317:26321   */\n      0x00\n        /* \"#utility.yul\":26355:26357   */\n      0x40\n        /* \"#utility.yul\":26344:26353   */\n      dup3\n        /* \"#utility.yul\":26340:26358   */\n      add\n        /* \"#utility.yul\":26332:26358   */\n      swap1\n      pop\n        /* \"#utility.yul\":26368:26439   */\n      tag_648\n        /* \"#utility.yul\":26436:26437   */\n      0x00\n        /* \"#utility.yul\":26425:26434   */\n      dup4\n        /* \"#utility.yul\":26421:26438   */\n      add\n        /* \"#utility.yul\":26412:26418   */\n      dup6\n        /* \"#utility.yul\":26368:26439   */\n      tag_353\n      jump\t// in\n    tag_648:\n        /* \"#utility.yul\":26449:26521   */\n      tag_649\n        /* \"#utility.yul\":26517:26519   */\n      0x20\n        /* \"#utility.yul\":26506:26515   */\n      dup4\n        /* \"#utility.yul\":26502:26520   */\n      add\n        /* \"#utility.yul\":26493:26499   */\n      dup5\n        /* \"#utility.yul\":26449:26521   */\n      tag_353\n      jump\t// in\n    tag_649:\n        /* \"#utility.yul\":26196:26528   */\n      swap4\n      swap3\n      pop\n      pop\n      pop\n      jump\t// out\n        /* \"#utility.yul\":26534:26716   */\n    tag_392:\n        /* \"#utility.yul\":26674:26708   */\n      0x4f776e61626c653a2063616c6c6572206973206e6f7420746865206f776e6572\n        /* \"#utility.yul\":26670:26671   */\n      0x00\n        /* \"#utility.yul\":26662:26668   */\n      dup3\n        /* \"#utility.yul\":26658:26672   */\n      add\n        /* \"#utility.yul\":26651:26709   */\n      mstore\n        /* \"#utility.yul\":26534:26716   */\n      pop\n      jump\t// out\n        /* \"#utility.yul\":26722:27088   */\n    tag_393:\n        /* \"#utility.yul\":26864:26867   */\n      0x00\n        /* \"#utility.yul\":26885:26952   */\n      tag_652\n        /* \"#utility.yul\":26949:26951   */\n      0x20\n        /* \"#utility.yul\":26944:26947   */\n      dup4\n        /* \"#utility.yul\":26885:26952   */\n      tag_383\n      jump\t// in\n    tag_652:\n        /* \"#utility.yul\":26878:26952   */\n      swap2\n      pop\n        /* \"#utility.yul\":26961:27054   */\n      tag_653\n        /* \"#utility.yul\":27050:27053   */\n      dup3\n        /* \"#utility.yul\":26961:27054   */\n      tag_392\n      jump\t// in\n    tag_653:\n        /* \"#utility.yul\":27079:27081   */\n      0x20\n        /* \"#utility.yul\":27074:27077   */\n      dup3\n        /* \"#utility.yul\":27070:27082   */\n      add\n        /* \"#utility.yul\":27063:27082   */\n      swap1\n      pop\n        /* \"#utility.yul\":26722:27088   */\n      swap2\n      swap1\n      pop\n      jump\t// out\n        /* \"#utility.yul\":27094:27513   */\n    tag_175:\n        /* \"#utility.yul\":27260:27264   */\n      0x00\n        /* \"#utility.yul\":27298:27300   */\n      0x20\n        /* \"#utility.yul\":27287:27296   */\n      dup3\n        /* \"#utility.yul\":27283:27301   */\n      add\n        /* \"#utility.yul\":27275:27301   */\n      swap1\n      pop\n        /* \"#utility.yul\":27347:27356   */\n      dup2\n        /* \"#utility.yul\":27341:27345   */\n      dup2\n        /* \"#utility.yul\":27337:27357   */\n      sub\n        /* \"#utility.yul\":27333:27334   */\n      0x00\n        /* \"#utility.yul\":27322:27331   */\n      dup4\n        /* \"#utility.yul\":27318:27335   */\n      add\n        /* \"#utility.yul\":27311:27358   */\n      mstore\n        /* \"#utility.yul\":27375:27506   */\n      tag_655\n        /* \"#utility.yul\":27501:27505   */\n      dup2\n        /* \"#utility.yul\":27375:27506   */\n      tag_393\n      jump\t// in\n    tag_655:\n        /* \"#utility.yul\":27367:27506   */\n      swap1\n      pop\n        /* \"#utility.yul\":27094:27513   */\n      swap2\n      swap1\n      pop\n      jump\t// out\n        /* \"#utility.yul\":27519:27697   */\n    tag_394:\n        /* \"#utility.yul\":27659:27689   */\n      0x5072696365206d757374206265206174206c6561737420312077656900000000\n        /* \"#utility.yul\":27655:27656   */\n      0x00\n        /* \"#utility.yul\":27647:27653   */\n      dup3\n        /* \"#utility.yul\":27643:27657   */\n      add\n        /* \"#utility.yul\":27636:27690   */\n      mstore\n        /* \"#utility.yul\":27519:27697   */\n      pop\n      jump\t// out\n        /* \"#utility.yul\":27703:28069   */\n    tag_395:\n        /* \"#utility.yul\":27845:27848   */\n      0x00\n        /* \"#utility.yul\":27866:27933   */\n      tag_658\n        /* \"#utility.yul\":27930:27932   */\n      0x1c\n        /* \"#utility.yul\":27925:27928   */\n      dup4\n        /* \"#utility.yul\":27866:27933   */\n      tag_383\n      jump\t// in\n    tag_658:\n        /* \"#utility.yul\":27859:27933   */\n      swap2\n      pop\n        /* \"#utility.yul\":27942:28035   */\n      tag_659\n        /* \"#utility.yul\":28031:28034   */\n      dup3\n        /* \"#utility.yul\":27942:28035   */\n      tag_394\n      jump\t// in\n    tag_659:\n        /* \"#utility.yul\":28060:28062   */\n      0x20\n        /* \"#utility.yul\":28055:28058   */\n      dup3\n        /* \"#utility.yul\":28051:28063   */\n      add\n        /* \"#utility.yul\":28044:28063   */\n      swap1\n      pop\n        /* \"#utility.yul\":27703:28069   */\n      swap2\n      swap1\n      pop\n      jump\t// out\n        /* \"#utility.yul\":28075:28494   */\n    tag_192:\n        /* \"#utility.yul\":28241:28245   */\n      0x00\n        /* \"#utility.yul\":28279:28281   */\n      0x20\n        /* \"#utility.yul\":28268:28277   */\n      dup3\n        /* \"#utility.yul\":28264:28282   */\n      add\n        /* \"#utility.yul\":28256:28282   */\n      swap1\n      pop\n        /* \"#utility.yul\":28328:28337   */\n      dup2\n        /* \"#utility.yul\":28322:28326   */\n      dup2\n        /* \"#utility.yul\":28318:28338   */\n      sub\n        /* \"#utility.yul\":28314:28315   */\n      0x00\n        /* \"#utility.yul\":28303:28312   */\n      dup4\n        /* \"#utility.yul\":28299:28316   */\n      add\n        /* \"#utility.yul\":28292:28339   */\n      mstore\n        /* \"#utility.yul\":28356:28487   */\n      tag_661\n        /* \"#utility.yul\":28482:28486   */\n      dup2\n        /* \"#utility.yul\":28356:28487   */\n      tag_395\n      jump\t// in\n    tag_661:\n        /* \"#utility.yul\":28348:28487   */\n      swap1\n      pop\n        /* \"#utility.yul\":28075:28494   */\n      swap2\n      swap1\n      pop\n      jump\t// out\n        /* \"#utility.yul\":28500:28677   */\n    tag_396:\n        /* \"#utility.yul\":28640:28669   */\n      0x4974656d206973206e6f7420617661696c61626c65206e6f7720210000000000\n        /* \"#utility.yul\":28636:28637   */\n      0x00\n        /* \"#utility.yul\":28628:28634   */\n      dup3\n        /* \"#utility.yul\":28624:28638   */\n      add\n        /* \"#utility.yul\":28617:28670   */\n      mstore\n        /* \"#utility.yul\":28500:28677   */\n      pop\n      jump\t// out\n        /* \"#utility.yul\":28683:29049   */\n    tag_397:\n        /* \"#utility.yul\":28825:28828   */\n      0x00\n        /* \"#utility.yul\":28846:28913   */\n      tag_664\n        /* \"#utility.yul\":28910:28912   */\n      0x1b\n        /* \"#utility.yul\":28905:28908   */\n      dup4\n        /* \"#utility.yul\":28846:28913   */\n      tag_383\n      jump\t// in\n    tag_664:\n        /* \"#utility.yul\":28839:28913   */\n      swap2\n      pop\n        /* \"#utility.yul\":28922:29015   */\n      tag_665\n        /* \"#utility.yul\":29011:29014   */\n      dup3\n        /* \"#utility.yul\":28922:29015   */\n      tag_396\n      jump\t// in\n    tag_665:\n        /* \"#utility.yul\":29040:29042   */\n      0x20\n        /* \"#utility.yul\":29035:29038   */\n      dup3\n        /* \"#utility.yul\":29031:29043   */\n      add\n        /* \"#utility.yul\":29024:29043   */\n      swap1\n      pop\n        /* \"#utility.yul\":28683:29049   */\n      swap2\n      swap1\n      pop\n      jump\t// out\n        /* \"#utility.yul\":29055:29474   */\n    tag_199:\n        /* \"#utility.yul\":29221:29225   */\n      0x00\n        /* \"#utility.yul\":29259:29261   */\n      0x20\n        /* \"#utility.yul\":29248:29257   */\n      dup3\n        /* \"#utility.yul\":29244:29262   */\n      add\n        /* \"#utility.yul\":29236:29262   */\n      swap1\n      pop\n        /* \"#utility.yul\":29308:29317   */\n      dup2\n        /* \"#utility.yul\":29302:29306   */\n      dup2\n        /* \"#utility.yul\":29298:29318   */\n      sub\n        /* \"#utility.yul\":29294:29295   */\n      0x00\n        /* \"#utility.yul\":29283:29292   */\n      dup4\n        /* \"#utility.yul\":29279:29296   */\n      add\n        /* \"#utility.yul\":29272:29319   */\n      mstore\n        /* \"#utility.yul\":29336:29467   */\n      tag_667\n        /* \"#utility.yul\":29462:29466   */\n      dup2\n        /* \"#utility.yul\":29336:29467   */\n      tag_397\n      jump\t// in\n    tag_667:\n        /* \"#utility.yul\":29328:29467   */\n      swap1\n      pop\n        /* \"#utility.yul\":29055:29474   */\n      swap2\n      swap1\n      pop\n      jump\t// out\n        /* \"#utility.yul\":29480:29660   */\n    tag_398:\n        /* \"#utility.yul\":29528:29605   */\n      0x4e487b7100000000000000000000000000000000000000000000000000000000\n        /* \"#utility.yul\":29525:29526   */\n      0x00\n        /* \"#utility.yul\":29518:29606   */\n      mstore\n        /* \"#utility.yul\":29625:29629   */\n      0x11\n        /* \"#utility.yul\":29622:29623   */\n      0x04\n        /* \"#utility.yul\":29615:29630   */\n      mstore\n        /* \"#utility.yul\":29649:29653   */\n      0x24\n        /* \"#utility.yul\":29646:29647   */\n      0x00\n        /* \"#utility.yul\":29639:29654   */\n      revert\n        /* \"#utility.yul\":29666:29971   */\n    tag_224:\n        /* \"#utility.yul\":29706:29709   */\n      0x00\n        /* \"#utility.yul\":29725:29745   */\n      tag_670\n        /* \"#utility.yul\":29743:29744   */\n      dup3\n        /* \"#utility.yul\":29725:29745   */\n      tag_324\n      jump\t// in\n    tag_670:\n        /* \"#utility.yul\":29720:29745   */\n      swap2\n      pop\n        /* \"#utility.yul\":29759:29779   */\n      tag_671\n        /* \"#utility.yul\":29777:29778   */\n      dup4\n        /* \"#utility.yul\":29759:29779   */\n      tag_324\n      jump\t// in\n    tag_671:\n        /* \"#utility.yul\":29754:29779   */\n      swap3\n      pop\n        /* \"#utility.yul\":29913:29914   */\n      dup3\n        /* \"#utility.yul\":29845:29911   */\n      0xffffffffffffffffffffffffffffffffffffffffffffffffffffffffffffffff\n        /* \"#utility.yul\":29841:29915   */\n      sub\n        /* \"#utility.yul\":29838:29839   */\n      dup3\n        /* \"#utility.yul\":29835:29916   */\n      gt\n        /* \"#utility.yul\":29832:29939   */\n      iszero\n      tag_672\n      jumpi\n        /* \"#utility.yul\":29919:29937   */\n      tag_673\n      tag_398\n      jump\t// in\n    tag_673:\n        /* \"#utility.yul\":29832:29939   */\n    tag_672:\n        /* \"#utility.yul\":29963:29964   */\n      dup3\n        /* \"#utility.yul\":29960:29961   */\n      dup3\n        /* \"#utility.yul\":29956:29965   */\n      add\n        /* \"#utility.yul\":29949:29965   */\n      swap1\n      pop\n        /* \"#utility.yul\":29666:29971   */\n      swap3\n      swap2\n      pop\n      pop\n      jump\t// out\n        /* \"#utility.yul\":29977:30210   */\n    tag_226:\n        /* \"#utility.yul\":30016:30019   */\n      0x00\n        /* \"#utility.yul\":30039:30063   */\n      tag_675\n        /* \"#utility.yul\":30057:30062   */\n      dup3\n        /* \"#utility.yul\":30039:30063   */\n      tag_324\n      jump\t// in\n    tag_675:\n        /* \"#utility.yul\":30030:30063   */\n      swap2\n      pop\n        /* \"#utility.yul\":30085:30151   */\n      0xffffffffffffffffffffffffffffffffffffffffffffffffffffffffffffffff\n        /* \"#utility.yul\":30078:30083   */\n      dup3\n        /* \"#utility.yul\":30075:30152   */\n      sub\n        /* \"#utility.yul\":30072:30175   */\n      tag_676\n      jumpi\n        /* \"#utility.yul\":30155:30173   */\n      tag_677\n      tag_398\n      jump\t// in\n    tag_677:\n        /* \"#utility.yul\":30072:30175   */\n    tag_676:\n        /* \"#utility.yul\":30202:30203   */\n      0x01\n        /* \"#utility.yul\":30195:30200   */\n      dup3\n        /* \"#utility.yul\":30191:30204   */\n      add\n        /* \"#utility.yul\":30184:30204   */\n      swap1\n      pop\n        /* \"#utility.yul\":29977:30210   */\n      swap2\n      swap1\n      pop\n      jump\t// out\n        /* \"#utility.yul\":30216:30396   */\n    tag_245:\n        /* \"#utility.yul\":30264:30341   */\n      0x4e487b7100000000000000000000000000000000000000000000000000000000\n        /* \"#utility.yul\":30261:30262   */\n      0x00\n        /* \"#utility.yul\":30254:30342   */\n      mstore\n        /* \"#utility.yul\":30361:30365   */\n      0x32\n        /* \"#utility.yul\":30358:30359   */\n      0x04\n        /* \"#utility.yul\":30351:30366   */\n      mstore\n        /* \"#utility.yul\":30385:30389   */\n      0x24\n        /* \"#utility.yul\":30382:30383   */\n      0x00\n        /* \"#utility.yul\":30375:30390   */\n      revert\n        /* \"#utility.yul\":30402:30653   */\n    tag_399:\n        /* \"#utility.yul\":30542:30576   */\n      0x506c65617365207375626d6974207468652061736b696e672070726963652069\n        /* \"#utility.yul\":30538:30539   */\n      0x00\n        /* \"#utility.yul\":30530:30536   */\n      dup3\n        /* \"#utility.yul\":30526:30540   */\n      add\n        /* \"#utility.yul\":30519:30577   */\n      mstore\n        /* \"#utility.yul\":30611:30645   */\n      0x6e206f7264657220746f20636f6d706c65746520746865207075726368617365\n        /* \"#utility.yul\":30606:30608   */\n      0x20\n        /* \"#utility.yul\":30598:30604   */\n      dup3\n        /* \"#utility.yul\":30594:30609   */\n      add\n        /* \"#utility.yul\":30587:30646   */\n      mstore\n        /* \"#utility.yul\":30402:30653   */\n      pop\n      jump\t// out\n        /* \"#utility.yul\":30659:31025   */\n    tag_400:\n        /* \"#utility.yul\":30801:30804   */\n      0x00\n        /* \"#utility.yul\":30822:30889   */\n      tag_681\n        /* \"#utility.yul\":30886:30888   */\n      0x40\n        /* \"#utility.yul\":30881:30884   */\n      dup4\n        /* \"#utility.yul\":30822:30889   */\n      tag_383\n      jump\t// in\n    tag_681:\n        /* \"#utility.yul\":30815:30889   */\n      swap2\n      pop\n        /* \"#utility.yul\":30898:30991   */\n      tag_682\n        /* \"#utility.yul\":30987:30990   */\n      dup3\n        /* \"#utility.yul\":30898:30991   */\n      tag_399\n      jump\t// in\n    tag_682:\n        /* \"#utility.yul\":31016:31018   */\n      0x40\n        /* \"#utility.yul\":31011:31014   */\n      dup3\n        /* \"#utility.yul\":31007:31019   */\n      add\n        /* \"#utility.yul\":31000:31019   */\n      swap1\n      pop\n        /* \"#utility.yul\":30659:31025   */\n      swap2\n      swap1\n      pop\n      jump\t// out\n        /* \"#utility.yul\":31031:31450   */\n    tag_264:\n        /* \"#utility.yul\":31197:31201   */\n      0x00\n        /* \"#utility.yul\":31235:31237   */\n      0x20\n        /* \"#utility.yul\":31224:31233   */\n      dup3\n        /* \"#utility.yul\":31220:31238   */\n      add\n        /* \"#utility.yul\":31212:31238   */\n      swap1\n      pop\n        /* \"#utility.yul\":31284:31293   */\n      dup2\n        /* \"#utility.yul\":31278:31282   */\n      dup2\n        /* \"#utility.yul\":31274:31294   */\n      sub\n        /* \"#utility.yul\":31270:31271   */\n      0x00\n        /* \"#utility.yul\":31259:31268   */\n      dup4\n        /* \"#utility.yul\":31255:31272   */\n      add\n        /* \"#utility.yul\":31248:31295   */\n      mstore\n        /* \"#utility.yul\":31312:31443   */\n      tag_684\n        /* \"#utility.yul\":31438:31442   */\n      dup2\n        /* \"#utility.yul\":31312:31443   */\n      tag_400\n      jump\t// in\n    tag_684:\n        /* \"#utility.yul\":31304:31443   */\n      swap1\n      pop\n        /* \"#utility.yul\":31031:31450   */\n      swap2\n      swap1\n      pop\n      jump\t// out\n        /* \"#utility.yul\":31456:31609   */\n    tag_401:\n        /* \"#utility.yul\":31596:31601   */\n      0x5351460000000000000000000000000000000000000000000000000000000000\n        /* \"#utility.yul\":31592:31593   */\n      0x00\n        /* \"#utility.yul\":31584:31590   */\n      dup3\n        /* \"#utility.yul\":31580:31594   */\n      add\n        /* \"#utility.yul\":31573:31602   */\n      mstore\n        /* \"#utility.yul\":31456:31609   */\n      pop\n      jump\t// out\n        /* \"#utility.yul\":31615:31980   */\n    tag_402:\n        /* \"#utility.yul\":31757:31760   */\n      0x00\n        /* \"#utility.yul\":31778:31844   */\n      tag_687\n        /* \"#utility.yul\":31842:31843   */\n      0x03\n        /* \"#utility.yul\":31837:31840   */\n      dup4\n        /* \"#utility.yul\":31778:31844   */\n      tag_383\n      jump\t// in\n    tag_687:\n        /* \"#utility.yul\":31771:31844   */\n      swap2\n      pop\n        /* \"#utility.yul\":31853:31946   */\n      tag_688\n        /* \"#utility.yul\":31942:31945   */\n      dup3\n        /* \"#utility.yul\":31853:31946   */\n      tag_401\n      jump\t// in\n    tag_688:\n        /* \"#utility.yul\":31971:31973   */\n      0x20\n        /* \"#utility.yul\":31966:31969   */\n      dup3\n        /* \"#utility.yul\":31962:31974   */\n      add\n        /* \"#utility.yul\":31955:31974   */\n      swap1\n      pop\n        /* \"#utility.yul\":31615:31980   */\n      swap2\n      swap1\n      pop\n      jump\t// out\n        /* \"#utility.yul\":31986:32736   */\n    tag_273:\n        /* \"#utility.yul\":32236:32240   */\n      0x00\n        /* \"#utility.yul\":32274:32277   */\n      0x80\n        /* \"#utility.yul\":32263:32272   */\n      dup3\n        /* \"#utility.yul\":32259:32278   */\n      add\n        /* \"#utility.yul\":32251:32278   */\n      swap1\n      pop\n        /* \"#utility.yul\":32288:32359   */\n      tag_690\n        /* \"#utility.yul\":32356:32357   */\n      0x00\n        /* \"#utility.yul\":32345:32354   */\n      dup4\n        /* \"#utility.yul\":32341:32358   */\n      add\n        /* \"#utility.yul\":32332:32338   */\n      dup7\n        /* \"#utility.yul\":32288:32359   */\n      tag_353\n      jump\t// in\n    tag_690:\n        /* \"#utility.yul\":32369:32441   */\n      tag_691\n        /* \"#utility.yul\":32437:32439   */\n      0x20\n        /* \"#utility.yul\":32426:32435   */\n      dup4\n        /* \"#utility.yul\":32422:32440   */\n      add\n        /* \"#utility.yul\":32413:32419   */\n      dup6\n        /* \"#utility.yul\":32369:32441   */\n      tag_353\n      jump\t// in\n    tag_691:\n        /* \"#utility.yul\":32488:32497   */\n      dup2\n        /* \"#utility.yul\":32482:32486   */\n      dup2\n        /* \"#utility.yul\":32478:32498   */\n      sub\n        /* \"#utility.yul\":32473:32475   */\n      0x40\n        /* \"#utility.yul\":32462:32471   */\n      dup4\n        /* \"#utility.yul\":32458:32476   */\n      add\n        /* \"#utility.yul\":32451:32499   */\n      mstore\n        /* \"#utility.yul\":32516:32647   */\n      tag_692\n        /* \"#utility.yul\":32642:32646   */\n      dup2\n        /* \"#utility.yul\":32516:32647   */\n      tag_402\n      jump\t// in\n    tag_692:\n        /* \"#utility.yul\":32508:32647   */\n      swap1\n      pop\n        /* \"#utility.yul\":32657:32729   */\n      tag_693\n        /* \"#utility.yul\":32725:32727   */\n      0x60\n        /* \"#utility.yul\":32714:32723   */\n      dup4\n        /* \"#utility.yul\":32710:32728   */\n      add\n        /* \"#utility.yul\":32701:32707   */\n      dup5\n        /* \"#utility.yul\":32657:32729   */\n      tag_353\n      jump\t// in\n    tag_693:\n        /* \"#utility.yul\":31986:32736   */\n      swap5\n      swap4\n      pop\n      pop\n      pop\n      pop\n      jump\t// out\n        /* \"#utility.yul\":32742:32967   */\n    tag_403:\n        /* \"#utility.yul\":32882:32916   */\n      0x4f776e61626c653a206e6577206f776e657220697320746865207a65726f2061\n        /* \"#utility.yul\":32878:32879   */\n      0x00\n        /* \"#utility.yul\":32870:32876   */\n      dup3\n        /* \"#utility.yul\":32866:32880   */\n      add\n        /* \"#utility.yul\":32859:32917   */\n      mstore\n        /* \"#utility.yul\":32951:32959   */\n      0x6464726573730000000000000000000000000000000000000000000000000000\n        /* \"#utility.yul\":32946:32948   */\n      0x20\n        /* \"#utility.yul\":32938:32944   */\n      dup3\n        /* \"#utility.yul\":32934:32949   */\n      add\n        /* \"#utility.yul\":32927:32960   */\n      mstore\n        /* \"#utility.yul\":32742:32967   */\n      pop\n      jump\t// out\n        /* \"#utility.yul\":32973:33339   */\n    tag_404:\n        /* \"#utility.yul\":33115:33118   */\n      0x00\n        /* \"#utility.yul\":33136:33203   */\n      tag_696\n        /* \"#utility.yul\":33200:33202   */\n      0x26\n        /* \"#utility.yul\":33195:33198   */\n      dup4\n        /* \"#utility.yul\":33136:33203   */\n      tag_383\n      jump\t// in\n    tag_696:\n        /* \"#utility.yul\":33129:33203   */\n      swap2\n      pop\n        /* \"#utility.yul\":33212:33305   */\n      tag_697\n        /* \"#utility.yul\":33301:33304   */\n      dup3\n        /* \"#utility.yul\":33212:33305   */\n      tag_403\n      jump\t// in\n    tag_697:\n        /* \"#utility.yul\":33330:33332   */\n      0x40\n        /* \"#utility.yul\":33325:33328   */\n      dup3\n        /* \"#utility.yul\":33321:33333   */\n      add\n        /* \"#utility.yul\":33314:33333   */\n      swap1\n      pop\n        /* \"#utility.yul\":32973:33339   */\n      swap2\n      swap1\n      pop\n      jump\t// out\n        /* \"#utility.yul\":33345:33764   */\n    tag_290:\n        /* \"#utility.yul\":33511:33515   */\n      0x00\n        /* \"#utility.yul\":33549:33551   */\n      0x20\n        /* \"#utility.yul\":33538:33547   */\n      dup3\n        /* \"#utility.yul\":33534:33552   */\n      add\n        /* \"#utility.yul\":33526:33552   */\n      swap1\n      pop\n        /* \"#utility.yul\":33598:33607   */\n      dup2\n        /* \"#utility.yul\":33592:33596   */\n      dup2\n        /* \"#utility.yul\":33588:33608   */\n      sub\n        /* \"#utility.yul\":33584:33585   */\n      0x00\n        /* \"#utility.yul\":33573:33582   */\n      dup4\n        /* \"#utility.yul\":33569:33586   */\n      add\n        /* \"#utility.yul\":33562:33609   */\n      mstore\n        /* \"#utility.yul\":33626:33757   */\n      tag_699\n        /* \"#utility.yul\":33752:33756   */\n      dup2\n        /* \"#utility.yul\":33626:33757   */\n      tag_404\n      jump\t// in\n    tag_699:\n        /* \"#utility.yul\":33618:33757   */\n      swap1\n      pop\n        /* \"#utility.yul\":33345:33764   */\n      swap2\n      swap1\n      pop\n      jump\t// out\n        /* \"#utility.yul\":33770:34115   */\n    tag_310:\n        /* \"#utility.yul\":33837:33843   */\n      0x00\n        /* \"#utility.yul\":33886:33888   */\n      0x20\n        /* \"#utility.yul\":33874:33883   */\n      dup3\n        /* \"#utility.yul\":33865:33872   */\n      dup5\n        /* \"#utility.yul\":33861:33884   */\n      sub\n        /* \"#utility.yul\":33857:33889   */\n      slt\n        /* \"#utility.yul\":33854:33973   */\n      iszero\n      tag_701\n      jumpi\n        /* \"#utility.yul\":33892:33971   */\n      tag_702\n      tag_322\n      jump\t// in\n    tag_702:\n        /* \"#utility.yul\":33854:33973   */\n    tag_701:\n        /* \"#utility.yul\":34012:34013   */\n      0x00\n        /* \"#utility.yul\":34037:34098   */\n      tag_703\n        /* \"#utility.yul\":34090:34097   */\n      dup5\n        /* \"#utility.yul\":34081:34087   */\n      dup3\n        /* \"#utility.yul\":34070:34079   */\n      dup6\n        /* \"#utility.yul\":34066:34088   */\n      add\n        /* \"#utility.yul\":34037:34098   */\n      tag_381\n      jump\t// in\n    tag_703:\n        /* \"#utility.yul\":34027:34098   */\n      swap2\n      pop\n        /* \"#utility.yul\":33983:34108   */\n      pop\n        /* \"#utility.yul\":33770:34115   */\n      swap3\n      swap2\n      pop\n      pop\n      jump\t// out\n\n    auxdata: 0xa2646970667358221220ff882a9b649963298e694d0ed8b6e9142d14fea7ad1b4684e8fa7935dbe7e5da64736f6c634300080d0033\n}\n",
				"bytecode": {
					"linkReferences": {},
					"object": "60806040523480156200001157600080fd5b506040516200346938038062003469833981810160405281019062000037919062000263565b60016000819055506200005f620000536200012b60201b60201c565b6200013360201b60201c565b82600960006101000a81548173ffffffffffffffffffffffffffffffffffffffff021916908373ffffffffffffffffffffffffffffffffffffffff16021790555081600b60006101000a81548173ffffffffffffffffffffffffffffffffffffffff021916908373ffffffffffffffffffffffffffffffffffffffff16021790555080600a60006101000a81548173ffffffffffffffffffffffffffffffffffffffff021916908373ffffffffffffffffffffffffffffffffffffffff160217905550505050620002bf565b600033905090565b6000600c60009054906101000a900473ffffffffffffffffffffffffffffffffffffffff16905081600c60006101000a81548173ffffffffffffffffffffffffffffffffffffffff021916908373ffffffffffffffffffffffffffffffffffffffff1602179055508173ffffffffffffffffffffffffffffffffffffffff168173ffffffffffffffffffffffffffffffffffffffff167f8be0079c531659141344cd1fd0a4f28419497f9722a3daafe3b4186f6b6457e060405160405180910390a35050565b600080fd5b600073ffffffffffffffffffffffffffffffffffffffff82169050919050565b60006200022b82620001fe565b9050919050565b6200023d816200021e565b81146200024957600080fd5b50565b6000815190506200025d8162000232565b92915050565b6000806000606084860312156200027f576200027e620001f9565b5b60006200028f868287016200024c565b9350506020620002a2868287016200024c565b9250506040620002b5868287016200024c565b9150509250925092565b61319a80620002cf6000396000f3fe608060405234801561001057600080fd5b50600436106101585760003560e01c8063673cf668116100c3578063c45a01551161007c578063c45a015514610399578063c7be7a49146103b7578063e00dd161146103e7578063f2fde38b14610405578063f55de0c714610421578063ff68fa6e1461043f57610158565b8063673cf668146102fb578063715018a61461031957806385a8b36c146103235780638da5cb5b14610341578063a1c11ca81461035f578063b7a60c7e1461037b57610158565b80632b4c32be116101155780632b4c32be1461022f578063361c19951461024d5780633fc15f1514610269578063517bd451146102875780635bb47808146102aa5780635c80a435146102c657610158565b806303ce1cb51461015d5780630f08efe01461018d57806310061631146101ab57806315b12494146101c757806327ce464e146101e35780632a45b250146101ff575b600080fd5b61017760048036038101906101729190612144565b610474565b60405161018491906122f2565b60405180910390f35b61019561052a565b6040516101a29190612406565b60405180910390f35b6101c560048036038101906101c09190612144565b610649565b005b6101e160048036038101906101dc919061244d565b610ab9565b005b6101fd60048036038101906101f8919061244d565b610b79565b005b61021960048036038101906102149190612144565b610c39565b6040516102269190612406565b60405180910390f35b610237610d71565b60405161024491906124b5565b60405180910390f35b610267600480360381019061026291906124d0565b610d7c565b005b610271611070565b60405161027e919061256f565b60405180910390f35b61028f611096565b6040516102a1969594939291906125b7565b60405180910390f35b6102c460048036038101906102bf919061244d565b61110d565b005b6102e060048036038101906102db9190612618565b6111cd565b6040516102f2969594939291906125b7565b60405180910390f35b610303611263565b6040516103109190612782565b60405180910390f35b610321611583565b005b61032b61160b565b60405161033891906127c0565b60405180910390f35b61034961161e565b60405161035691906127db565b60405180910390f35b610379600480360381019061037491906124d0565b611648565b005b610383611906565b60405161039091906127c0565b60405180910390f35b6103a1611919565b6040516103ae9190612817565b60405180910390f35b6103d160048036038101906103cc9190612144565b61193f565b6040516103de9190612406565b60405180910390f35b6103ef611a71565b6040516103fc9190612832565b60405180910390f35b61041f600480360381019061041a919061244d565b611a82565b005b610429611b79565b604051610436919061286e565b60405180910390f35b61045960048036038101906104549190612144565b611b9f565b60405161046b969594939291906125b7565b60405180910390f35b61047c61203f565b6000600a60009054906101000a900473ffffffffffffffffffffffffffffffffffffffff1673ffffffffffffffffffffffffffffffffffffffff1663d30bdac9846040518263ffffffff1660e01b81526004016104d99190612832565b600060405180830381865afa1580156104f6573d6000803e3d6000fd5b505050506040513d6000823e3d601f19601f8201168201806040525081019061051f9190612ad3565b905080915050919050565b610532612086565b60016040518060c001604052908160008201548152602001600182015481526020016002820160009054906101000a900473ffffffffffffffffffffffffffffffffffffffff1673ffffffffffffffffffffffffffffffffffffffff1673ffffffffffffffffffffffffffffffffffffffff1681526020016003820160009054906101000a900473ffffffffffffffffffffffffffffffffffffffff1673ffffffffffffffffffffffffffffffffffffffff1673ffffffffffffffffffffffffffffffffffffffff168152602001600482015481526020016005820160009054906101000a900460ff16600181111561062e5761062d612314565b5b60018111156106405761063f612314565b5b81525050905090565b60003390506000600f60008481526020019081526020016000206040518060c001604052908160008201548152602001600182015481526020016002820160009054906101000a900473ffffffffffffffffffffffffffffffffffffffff1673ffffffffffffffffffffffffffffffffffffffff1673ffffffffffffffffffffffffffffffffffffffff1681526020016003820160009054906101000a900473ffffffffffffffffffffffffffffffffffffffff1673ffffffffffffffffffffffffffffffffffffffff1673ffffffffffffffffffffffffffffffffffffffff168152602001600482015481526020016005820160009054906101000a900460ff16600181111561075d5761075c612314565b5b600181111561076f5761076e612314565b5b81525050905060008160000151036107bc576040517f08c379a00000000000000000000000000000000000000000000000000000000081526004016107b390612b79565b60405180910390fd5b6001808111156107cf576107ce612314565b5b8160a0015160018111156107e6576107e5612314565b5b14610826576040517f08c379a000000000000000000000000000000000000000000000000000000000815260040161081d90612be5565b60405180910390fd5b600081604001519050600073ffffffffffffffffffffffffffffffffffffffff168173ffffffffffffffffffffffffffffffffffffffff160361089e576040517f08c379a000000000000000000000000000000000000000000000000000000000815260040161089590612c51565b60405180910390fd5b3373ffffffffffffffffffffffffffffffffffffffff168173ffffffffffffffffffffffffffffffffffffffff161461090c576040517f08c379a000000000000000000000000000000000000000000000000000000000815260040161090390612cbd565b60405180910390fd5b600b60009054906101000a900473ffffffffffffffffffffffffffffffffffffffff1673ffffffffffffffffffffffffffffffffffffffff166342842e0e3083876040518463ffffffff1660e01b815260040161096b93929190612cdd565b600060405180830381600087803b15801561098557600080fd5b505af1158015610999573d6000803e3d6000fd5b5050505060008260a0019060018111156109b6576109b5612314565b5b908160018111156109ca576109c9612314565b5b81525050600f600085815260200190815260200160002060008082016000905560018201600090556002820160006101000a81549073ffffffffffffffffffffffffffffffffffffffff02191690556003820160006101000a81549073ffffffffffffffffffffffffffffffffffffffff021916905560048201600090556005820160006101000a81549060ff021916905550508273ffffffffffffffffffffffffffffffffffffffff16847f72ffc2a266acba5f77e2b49400103cb61b428f37a97057ebe671e83fddd71e67846000015142604051610aab929190612d14565b60405180910390a350505050565b610ac1611c28565b73ffffffffffffffffffffffffffffffffffffffff16610adf61161e565b73ffffffffffffffffffffffffffffffffffffffff1614610b35576040517f08c379a0000000000000000000000000000000000000000000000000000000008152600401610b2c90612d89565b60405180910390fd5b80600b60006101000a81548173ffffffffffffffffffffffffffffffffffffffff021916908373ffffffffffffffffffffffffffffffffffffffff16021790555050565b610b81611c28565b73ffffffffffffffffffffffffffffffffffffffff16610b9f61161e565b73ffffffffffffffffffffffffffffffffffffffff1614610bf5576040517f08c379a0000000000000000000000000000000000000000000000000000000008152600401610bec90612d89565b60405180910390fd5b80600960006101000a81548173ffffffffffffffffffffffffffffffffffffffff021916908373ffffffffffffffffffffffffffffffffffffffff16021790555050565b610c41612086565b6000600f60008481526020019081526020016000206040518060c001604052908160008201548152602001600182015481526020016002820160009054906101000a900473ffffffffffffffffffffffffffffffffffffffff1673ffffffffffffffffffffffffffffffffffffffff1673ffffffffffffffffffffffffffffffffffffffff1681526020016003820160009054906101000a900473ffffffffffffffffffffffffffffffffffffffff1673ffffffffffffffffffffffffffffffffffffffff1673ffffffffffffffffffffffffffffffffffffffff168152602001600482015481526020016005820160009054906101000a900460ff166001811115610d5057610d4f612314565b5b6001811115610d6257610d61612314565b5b81525050905080915050919050565b6380ac58cd60e01b81565b60008111610dbf576040517f08c379a0000000000000000000000000000000000000000000000000000000008152600401610db690612df5565b60405180910390fd5b6000600a60009054906101000a900473ffffffffffffffffffffffffffffffffffffffff1673ffffffffffffffffffffffffffffffffffffffff1663d30bdac9846040518263ffffffff1660e01b8152600401610e1c9190612832565b600060405180830381865afa158015610e39573d6000803e3d6000fd5b505050506040513d6000823e3d601f19601f82011682018060405250810190610e629190612ad3565b9050600015158160800151151514610eaf576040517f08c379a0000000000000000000000000000000000000000000000000000000008152600401610ea690612e61565b60405180910390fd5b610eb883611c30565b6000610ec4600d611d55565b90506040518060c001604052808281526020018581526020013373ffffffffffffffffffffffffffffffffffffffff1681526020013073ffffffffffffffffffffffffffffffffffffffff168152602001848152602001600180811115610f2e57610f2d612314565b5b815250600f6000838152602001908152602001600020600082015181600001556020820151816001015560408201518160020160006101000a81548173ffffffffffffffffffffffffffffffffffffffff021916908373ffffffffffffffffffffffffffffffffffffffff16021790555060608201518160030160006101000a81548173ffffffffffffffffffffffffffffffffffffffff021916908373ffffffffffffffffffffffffffffffffffffffff1602179055506080820151816004015560a08201518160050160006101000a81548160ff0219169083600181111561101b5761101a612314565b5b021790555090505061102d600d611d63565b83817f38690a554ffbc44eb6a75016e47d517d0db8e6c37494adc68d6d0b2c66f0ab2133308760405161106293929190612cdd565b60405180910390a350505050565b600960009054906101000a900473ffffffffffffffffffffffffffffffffffffffff1681565b60018060000154908060010154908060020160009054906101000a900473ffffffffffffffffffffffffffffffffffffffff16908060030160009054906101000a900473ffffffffffffffffffffffffffffffffffffffff16908060040154908060050160009054906101000a900460ff16905086565b611115611c28565b73ffffffffffffffffffffffffffffffffffffffff1661113361161e565b73ffffffffffffffffffffffffffffffffffffffff1614611189576040517f08c379a000000000000000000000000000000000000000000000000000000000815260040161118090612d89565b60405180910390fd5b80600a60006101000a81548173ffffffffffffffffffffffffffffffffffffffff021916908373ffffffffffffffffffffffffffffffffffffffff16021790555050565b6008602052816000526040600020602052806000526040600020600091509150508060000154908060010154908060020160009054906101000a900473ffffffffffffffffffffffffffffffffffffffff16908060030160009054906101000a900473ffffffffffffffffffffffffffffffffffffffff16908060040154908060050160009054906101000a900460ff16905086565b60606000611271600d611d55565b905060008060005b8381101561130d573373ffffffffffffffffffffffffffffffffffffffff16600f600083815260200190815260200160002060030160009054906101000a900473ffffffffffffffffffffffffffffffffffffffff1673ffffffffffffffffffffffffffffffffffffffff16036112fa576001836112f79190612eb0565b92505b808061130590612f06565b915050611279565b5060008267ffffffffffffffff81111561132a5761132961288e565b5b60405190808252806020026020018201604052801561136357816020015b611350612086565b8152602001906001900390816113485790505b50905060005b84811015611578573373ffffffffffffffffffffffffffffffffffffffff16600f60006001846113999190612eb0565b815260200190815260200160002060030160009054906101000a900473ffffffffffffffffffffffffffffffffffffffff1673ffffffffffffffffffffffffffffffffffffffff1603611565576000600f60006001846113f99190612eb0565b81526020019081526020016000206000015490506000600f60008381526020019081526020016000209050806040518060c001604052908160008201548152602001600182015481526020016002820160009054906101000a900473ffffffffffffffffffffffffffffffffffffffff1673ffffffffffffffffffffffffffffffffffffffff1673ffffffffffffffffffffffffffffffffffffffff1681526020016003820160009054906101000a900473ffffffffffffffffffffffffffffffffffffffff1673ffffffffffffffffffffffffffffffffffffffff1673ffffffffffffffffffffffffffffffffffffffff168152602001600482015481526020016005820160009054906101000a900460ff16600181111561151f5761151e612314565b5b600181111561153157611530612314565b5b8152505084868151811061154857611547612f4e565b5b60200260200101819052506001856115609190612eb0565b945050505b808061157090612f06565b915050611369565b508094505050505090565b61158b611c28565b73ffffffffffffffffffffffffffffffffffffffff166115a961161e565b73ffffffffffffffffffffffffffffffffffffffff16146115ff576040517f08c379a00000000000000000000000000000000000000000000000000000000081526004016115f690612d89565b60405180910390fd5b6116096000611d79565b565b600b60149054906101000a900460ff1681565b6000600c60009054906101000a900473ffffffffffffffffffffffffffffffffffffffff16905090565b6000600f60008481526020019081526020016000206004015490506000600f60008581526020019081526020016000206001015490506000600f600086815260200190815260200160002060020160009054906101000a900473ffffffffffffffffffffffffffffffffffffffff1690506000600a60009054906101000a900473ffffffffffffffffffffffffffffffffffffffff1673ffffffffffffffffffffffffffffffffffffffff1663d30bdac9846040518263ffffffff1660e01b81526004016117169190612832565b600060405180830381865afa158015611733573d6000803e3d6000fd5b505050506040513d6000823e3d601f19601f8201168201806040525081019061175c9190612ad3565b90508385146117a0576040517f08c379a000000000000000000000000000000000000000000000000000000000815260040161179790612fef565b60405180910390fd5b6000151581608001511515146117eb576040517f08c379a00000000000000000000000000000000000000000000000000000000081526004016117e290612e61565b60405180910390fd5b6117f6868685611e3f565b33600f600088815260200190815260200160002060030160006101000a81548173ffffffffffffffffffffffffffffffffffffffff021916908373ffffffffffffffffffffffffffffffffffffffff1602179055506000600f600088815260200190815260200160002060050160006101000a81548160ff0219169083600181111561188557611884612314565b5b0217905550611894600e611d63565b3373ffffffffffffffffffffffffffffffffffffffff168273ffffffffffffffffffffffffffffffffffffffff16847f551327aee12d0a8b3ede8d0e3182a40a5ff3ed9f1811dd622915db30b609b7df8988426040516118f69392919061305b565b60405180910390a4505050505050565b600b60159054906101000a900460ff1681565b600a60009054906101000a900473ffffffffffffffffffffffffffffffffffffffff1681565b611947612086565b600f60008381526020019081526020016000206040518060c001604052908160008201548152602001600182015481526020016002820160009054906101000a900473ffffffffffffffffffffffffffffffffffffffff1673ffffffffffffffffffffffffffffffffffffffff1673ffffffffffffffffffffffffffffffffffffffff1681526020016003820160009054906101000a900473ffffffffffffffffffffffffffffffffffffffff1673ffffffffffffffffffffffffffffffffffffffff1673ffffffffffffffffffffffffffffffffffffffff168152602001600482015481526020016005820160009054906101000a900460ff166001811115611a5457611a53612314565b5b6001811115611a6657611a65612314565b5b815250509050919050565b6000611a7d600d611d55565b905090565b611a8a611c28565b73ffffffffffffffffffffffffffffffffffffffff16611aa861161e565b73ffffffffffffffffffffffffffffffffffffffff1614611afe576040517f08c379a0000000000000000000000000000000000000000000000000000000008152600401611af590612d89565b60405180910390fd5b600073ffffffffffffffffffffffffffffffffffffffff168173ffffffffffffffffffffffffffffffffffffffff1603611b6d576040517f08c379a0000000000000000000000000000000000000000000000000000000008152600401611b6490613117565b60405180910390fd5b611b7681611d79565b50565b600b60009054906101000a900473ffffffffffffffffffffffffffffffffffffffff1681565b60076020528060005260406000206000915090508060000154908060010154908060020160009054906101000a900473ffffffffffffffffffffffffffffffffffffffff16908060030160009054906101000a900473ffffffffffffffffffffffffffffffffffffffff16908060040154908060050160009054906101000a900460ff16905086565b600033905090565b600a60009054906101000a900473ffffffffffffffffffffffffffffffffffffffff1673ffffffffffffffffffffffffffffffffffffffff1663c1e9518a3330846040518463ffffffff1660e01b8152600401611c8f93929190612cdd565b600060405180830381600087803b158015611ca957600080fd5b505af1158015611cbd573d6000803e3d6000fd5b50505050600b60009054906101000a900473ffffffffffffffffffffffffffffffffffffffff1673ffffffffffffffffffffffffffffffffffffffff166323b872dd3330846040518463ffffffff1660e01b8152600401611d2093929190612cdd565b600060405180830381600087803b158015611d3a57600080fd5b505af1158015611d4e573d6000803e3d6000fd5b5050505050565b600081600001549050919050565b6001816000016000828254019250508190555050565b6000600c60009054906101000a900473ffffffffffffffffffffffffffffffffffffffff16905081600c60006101000a81548173ffffffffffffffffffffffffffffffffffffffff021916908373ffffffffffffffffffffffffffffffffffffffff1602179055508173ffffffffffffffffffffffffffffffffffffffff168173ffffffffffffffffffffffffffffffffffffffff167f8be0079c531659141344cd1fd0a4f28419497f9722a3daafe3b4186f6b6457e060405160405180910390a35050565b600960009054906101000a900473ffffffffffffffffffffffffffffffffffffffff1673ffffffffffffffffffffffffffffffffffffffff166323b872dd33600f600087815260200190815260200160002060020160009054906101000a900473ffffffffffffffffffffffffffffffffffffffff16856040518463ffffffff1660e01b8152600401611ed493929190612cdd565b6020604051808303816000875af1158015611ef3573d6000803e3d6000fd5b505050506040513d601f19601f82011682018060405250810190611f179190613137565b50600a60009054906101000a900473ffffffffffffffffffffffffffffffffffffffff1673ffffffffffffffffffffffffffffffffffffffff1663c1e9518a3330846040518463ffffffff1660e01b8152600401611f7793929190612cdd565b600060405180830381600087803b158015611f9157600080fd5b505af1158015611fa5573d6000803e3d6000fd5b50505050600b60009054906101000a900473ffffffffffffffffffffffffffffffffffffffff1673ffffffffffffffffffffffffffffffffffffffff166323b872dd3033846040518463ffffffff1660e01b815260040161200893929190612cdd565b600060405180830381600087803b15801561202257600080fd5b505af1158015612036573d6000803e3d6000fd5b50505050505050565b6040518060a0016040528060008152602001600073ffffffffffffffffffffffffffffffffffffffff16815260200160608152602001606081526020016000151581525090565b6040518060c001604052806000815260200160008152602001600073ffffffffffffffffffffffffffffffffffffffff168152602001600073ffffffffffffffffffffffffffffffffffffffff16815260200160008152602001600060018111156120f4576120f3612314565b5b81525090565b6000604051905090565b600080fd5b600080fd5b6000819050919050565b6121218161210e565b811461212c57600080fd5b50565b60008135905061213e81612118565b92915050565b60006020828403121561215a57612159612104565b5b60006121688482850161212f565b91505092915050565b61217a8161210e565b82525050565b600073ffffffffffffffffffffffffffffffffffffffff82169050919050565b60006121ab82612180565b9050919050565b6121bb816121a0565b82525050565b600081519050919050565b600082825260208201905092915050565b60005b838110156121fb5780820151818401526020810190506121e0565b8381111561220a576000848401525b50505050565b6000601f19601f8301169050919050565b600061222c826121c1565b61223681856121cc565b93506122468185602086016121dd565b61224f81612210565b840191505092915050565b60008115159050919050565b61226f8161225a565b82525050565b600060a08301600083015161228d6000860182612171565b5060208301516122a060208601826121b2565b50604083015184820360408601526122b88282612221565b915050606083015184820360608601526122d28282612221565b91505060808301516122e76080860182612266565b508091505092915050565b6000602082019050818103600083015261230c8184612275565b905092915050565b7f4e487b7100000000000000000000000000000000000000000000000000000000600052602160045260246000fd5b6002811061235457612353612314565b5b50565b600081905061236582612343565b919050565b600061237582612357565b9050919050565b6123858161236a565b82525050565b60c0820160008201516123a16000850182612171565b5060208201516123b46020850182612171565b5060408201516123c760408501826121b2565b5060608201516123da60608501826121b2565b5060808201516123ed6080850182612171565b5060a082015161240060a085018261237c565b50505050565b600060c08201905061241b600083018461238b565b92915050565b61242a816121a0565b811461243557600080fd5b50565b60008135905061244781612421565b92915050565b60006020828403121561246357612462612104565b5b600061247184828501612438565b91505092915050565b60007fffffffff0000000000000000000000000000000000000000000000000000000082169050919050565b6124af8161247a565b82525050565b60006020820190506124ca60008301846124a6565b92915050565b600080604083850312156124e7576124e6612104565b5b60006124f58582860161212f565b92505060206125068582860161212f565b9150509250929050565b6000819050919050565b600061253561253061252b84612180565b612510565b612180565b9050919050565b60006125478261251a565b9050919050565b60006125598261253c565b9050919050565b6125698161254e565b82525050565b60006020820190506125846000830184612560565b92915050565b6125938161210e565b82525050565b6125a2816121a0565b82525050565b6125b18161236a565b82525050565b600060c0820190506125cc600083018961258a565b6125d9602083018861258a565b6125e66040830187612599565b6125f36060830186612599565b612600608083018561258a565b61260d60a08301846125a8565b979650505050505050565b6000806040838503121561262f5761262e612104565b5b600061263d85828601612438565b925050602061264e8582860161212f565b9150509250929050565b600081519050919050565b600082825260208201905092915050565b6000819050602082019050919050565b60c08201600082015161269a6000850182612171565b5060208201516126ad6020850182612171565b5060408201516126c060408501826121b2565b5060608201516126d360608501826121b2565b5060808201516126e66080850182612171565b5060a08201516126f960a085018261237c565b50505050565b600061270b8383612684565b60c08301905092915050565b6000602082019050919050565b600061272f82612658565b6127398185612663565b935061274483612674565b8060005b8381101561277557815161275c88826126ff565b975061276783612717565b925050600181019050612748565b5085935050505092915050565b6000602082019050818103600083015261279c8184612724565b905092915050565b600060ff82169050919050565b6127ba816127a4565b82525050565b60006020820190506127d560008301846127b1565b92915050565b60006020820190506127f06000830184612599565b92915050565b60006128018261253c565b9050919050565b612811816127f6565b82525050565b600060208201905061282c6000830184612808565b92915050565b6000602082019050612847600083018461258a565b92915050565b60006128588261253c565b9050919050565b6128688161284d565b82525050565b6000602082019050612883600083018461285f565b92915050565b600080fd5b7f4e487b7100000000000000000000000000000000000000000000000000000000600052604160045260246000fd5b6128c682612210565b810181811067ffffffffffffffff821117156128e5576128e461288e565b5b80604052505050565b60006128f86120fa565b905061290482826128bd565b919050565b600080fd5b60008151905061291d81612118565b92915050565b60008151905061293281612421565b92915050565b600080fd5b600080fd5b600067ffffffffffffffff82111561295d5761295c61288e565b5b61296682612210565b9050602081019050919050565b600061298661298184612942565b6128ee565b9050828152602081018484840111156129a2576129a161293d565b5b6129ad8482856121dd565b509392505050565b600082601f8301126129ca576129c9612938565b5b81516129da848260208601612973565b91505092915050565b6129ec8161225a565b81146129f757600080fd5b50565b600081519050612a09816129e3565b92915050565b600060a08284031215612a2557612a24612889565b5b612a2f60a06128ee565b90506000612a3f8482850161290e565b6000830152506020612a5384828501612923565b602083015250604082015167ffffffffffffffff811115612a7757612a76612909565b5b612a83848285016129b5565b604083015250606082015167ffffffffffffffff811115612aa757612aa6612909565b5b612ab3848285016129b5565b6060830152506080612ac7848285016129fa565b60808301525092915050565b600060208284031215612ae957612ae8612104565b5b600082015167ffffffffffffffff811115612b0757612b06612109565b5b612b1384828501612a0f565b91505092915050565b600082825260208201905092915050565b7f4173736574206e6f74207075626c697368656400000000000000000000000000600082015250565b6000612b63601383612b1c565b9150612b6e82612b2d565b602082019050919050565b60006020820190508181036000830152612b9281612b56565b9050919050565b7f41737365742064656c6973746564000000000000000000000000000000000000600082015250565b6000612bcf600e83612b1c565b9150612bda82612b99565b602082019050919050565b60006020820190508181036000830152612bfe81612bc2565b9050919050565b7f496e76616c696420616464726573730000000000000000000000000000000000600082015250565b6000612c3b600f83612b1c565b9150612c4682612c05565b602082019050919050565b60006020820190508181036000830152612c6a81612c2e565b9050919050565b7f4f6e6c792073656c6c65722063616e2064656c69737400000000000000000000600082015250565b6000612ca7601683612b1c565b9150612cb282612c71565b602082019050919050565b60006020820190508181036000830152612cd681612c9a565b9050919050565b6000606082019050612cf26000830186612599565b612cff6020830185612599565b612d0c604083018461258a565b949350505050565b6000604082019050612d29600083018561258a565b612d36602083018461258a565b9392505050565b7f4f776e61626c653a2063616c6c6572206973206e6f7420746865206f776e6572600082015250565b6000612d73602083612b1c565b9150612d7e82612d3d565b602082019050919050565b60006020820190508181036000830152612da281612d66565b9050919050565b7f5072696365206d757374206265206174206c6561737420312077656900000000600082015250565b6000612ddf601c83612b1c565b9150612dea82612da9565b602082019050919050565b60006020820190508181036000830152612e0e81612dd2565b9050919050565b7f4974656d206973206e6f7420617661696c61626c65206e6f7720210000000000600082015250565b6000612e4b601b83612b1c565b9150612e5682612e15565b602082019050919050565b60006020820190508181036000830152612e7a81612e3e565b9050919050565b7f4e487b7100000000000000000000000000000000000000000000000000000000600052601160045260246000fd5b6000612ebb8261210e565b9150612ec68361210e565b9250827fffffffffffffffffffffffffffffffffffffffffffffffffffffffffffffffff03821115612efb57612efa612e81565b5b828201905092915050565b6000612f118261210e565b91507fffffffffffffffffffffffffffffffffffffffffffffffffffffffffffffffff8203612f4357612f42612e81565b5b600182019050919050565b7f4e487b7100000000000000000000000000000000000000000000000000000000600052603260045260246000fd5b7f506c65617365207375626d6974207468652061736b696e67207072696365206960008201527f6e206f7264657220746f20636f6d706c65746520746865207075726368617365602082015250565b6000612fd9604083612b1c565b9150612fe482612f7d565b604082019050919050565b6000602082019050818103600083015261300881612fcc565b9050919050565b7f5351460000000000000000000000000000000000000000000000000000000000600082015250565b6000613045600383612b1c565b91506130508261300f565b602082019050919050565b6000608082019050613070600083018661258a565b61307d602083018561258a565b818103604083015261308e81613038565b905061309d606083018461258a565b949350505050565b7f4f776e61626c653a206e6577206f776e657220697320746865207a65726f206160008201527f6464726573730000000000000000000000000000000000000000000000000000602082015250565b6000613101602683612b1c565b915061310c826130a5565b604082019050919050565b60006020820190508181036000830152613130816130f4565b9050919050565b60006020828403121561314d5761314c612104565b5b600061315b848285016129fa565b9150509291505056fea2646970667358221220ff882a9b649963298e694d0ed8b6e9142d14fea7ad1b4684e8fa7935dbe7e5da64736f6c634300080d0033",
					"opcodes": "PUSH1 0x80 PUSH1 0x40 MSTORE CALLVALUE DUP1 ISZERO PUSH3 0x11 JUMPI PUSH1 0x0 DUP1 REVERT JUMPDEST POP PUSH1 0x40 MLOAD PUSH3 0x3469 CODESIZE SUB DUP1 PUSH3 0x3469 DUP4 CODECOPY DUP2 DUP2 ADD PUSH1 0x40 MSTORE DUP2 ADD SWAP1 PUSH3 0x37 SWAP2 SWAP1 PUSH3 0x263 JUMP JUMPDEST PUSH1 0x1 PUSH1 0x0 DUP2 SWAP1 SSTORE POP PUSH3 0x5F PUSH3 0x53 PUSH3 0x12B PUSH1 0x20 SHL PUSH1 0x20 SHR JUMP JUMPDEST PUSH3 0x133 PUSH1 0x20 SHL PUSH1 0x20 SHR JUMP JUMPDEST DUP3 PUSH1 0x9 PUSH1 0x0 PUSH2 0x100 EXP DUP2 SLOAD DUP2 PUSH20 0xFFFFFFFFFFFFFFFFFFFFFFFFFFFFFFFFFFFFFFFF MUL NOT AND SWAP1 DUP4 PUSH20 0xFFFFFFFFFFFFFFFFFFFFFFFFFFFFFFFFFFFFFFFF AND MUL OR SWAP1 SSTORE POP DUP2 PUSH1 0xB PUSH1 0x0 PUSH2 0x100 EXP DUP2 SLOAD DUP2 PUSH20 0xFFFFFFFFFFFFFFFFFFFFFFFFFFFFFFFFFFFFFFFF MUL NOT AND SWAP1 DUP4 PUSH20 0xFFFFFFFFFFFFFFFFFFFFFFFFFFFFFFFFFFFFFFFF AND MUL OR SWAP1 SSTORE POP DUP1 PUSH1 0xA PUSH1 0x0 PUSH2 0x100 EXP DUP2 SLOAD DUP2 PUSH20 0xFFFFFFFFFFFFFFFFFFFFFFFFFFFFFFFFFFFFFFFF MUL NOT AND SWAP1 DUP4 PUSH20 0xFFFFFFFFFFFFFFFFFFFFFFFFFFFFFFFFFFFFFFFF AND MUL OR SWAP1 SSTORE POP POP POP POP PUSH3 0x2BF JUMP JUMPDEST PUSH1 0x0 CALLER SWAP1 POP SWAP1 JUMP JUMPDEST PUSH1 0x0 PUSH1 0xC PUSH1 0x0 SWAP1 SLOAD SWAP1 PUSH2 0x100 EXP SWAP1 DIV PUSH20 0xFFFFFFFFFFFFFFFFFFFFFFFFFFFFFFFFFFFFFFFF AND SWAP1 POP DUP2 PUSH1 0xC PUSH1 0x0 PUSH2 0x100 EXP DUP2 SLOAD DUP2 PUSH20 0xFFFFFFFFFFFFFFFFFFFFFFFFFFFFFFFFFFFFFFFF MUL NOT AND SWAP1 DUP4 PUSH20 0xFFFFFFFFFFFFFFFFFFFFFFFFFFFFFFFFFFFFFFFF AND MUL OR SWAP1 SSTORE POP DUP2 PUSH20 0xFFFFFFFFFFFFFFFFFFFFFFFFFFFFFFFFFFFFFFFF AND DUP2 PUSH20 0xFFFFFFFFFFFFFFFFFFFFFFFFFFFFFFFFFFFFFFFF AND PUSH32 0x8BE0079C531659141344CD1FD0A4F28419497F9722A3DAAFE3B4186F6B6457E0 PUSH1 0x40 MLOAD PUSH1 0x40 MLOAD DUP1 SWAP2 SUB SWAP1 LOG3 POP POP JUMP JUMPDEST PUSH1 0x0 DUP1 REVERT JUMPDEST PUSH1 0x0 PUSH20 0xFFFFFFFFFFFFFFFFFFFFFFFFFFFFFFFFFFFFFFFF DUP3 AND SWAP1 POP SWAP2 SWAP1 POP JUMP JUMPDEST PUSH1 0x0 PUSH3 0x22B DUP3 PUSH3 0x1FE JUMP JUMPDEST SWAP1 POP SWAP2 SWAP1 POP JUMP JUMPDEST PUSH3 0x23D DUP2 PUSH3 0x21E JUMP JUMPDEST DUP2 EQ PUSH3 0x249 JUMPI PUSH1 0x0 DUP1 REVERT JUMPDEST POP JUMP JUMPDEST PUSH1 0x0 DUP2 MLOAD SWAP1 POP PUSH3 0x25D DUP2 PUSH3 0x232 JUMP JUMPDEST SWAP3 SWAP2 POP POP JUMP JUMPDEST PUSH1 0x0 DUP1 PUSH1 0x0 PUSH1 0x60 DUP5 DUP7 SUB SLT ISZERO PUSH3 0x27F JUMPI PUSH3 0x27E PUSH3 0x1F9 JUMP JUMPDEST JUMPDEST PUSH1 0x0 PUSH3 0x28F DUP7 DUP3 DUP8 ADD PUSH3 0x24C JUMP JUMPDEST SWAP4 POP POP PUSH1 0x20 PUSH3 0x2A2 DUP7 DUP3 DUP8 ADD PUSH3 0x24C JUMP JUMPDEST SWAP3 POP POP PUSH1 0x40 PUSH3 0x2B5 DUP7 DUP3 DUP8 ADD PUSH3 0x24C JUMP JUMPDEST SWAP2 POP POP SWAP3 POP SWAP3 POP SWAP3 JUMP JUMPDEST PUSH2 0x319A DUP1 PUSH3 0x2CF PUSH1 0x0 CODECOPY PUSH1 0x0 RETURN INVALID PUSH1 0x80 PUSH1 0x40 MSTORE CALLVALUE DUP1 ISZERO PUSH2 0x10 JUMPI PUSH1 0x0 DUP1 REVERT JUMPDEST POP PUSH1 0x4 CALLDATASIZE LT PUSH2 0x158 JUMPI PUSH1 0x0 CALLDATALOAD PUSH1 0xE0 SHR DUP1 PUSH4 0x673CF668 GT PUSH2 0xC3 JUMPI DUP1 PUSH4 0xC45A0155 GT PUSH2 0x7C JUMPI DUP1 PUSH4 0xC45A0155 EQ PUSH2 0x399 JUMPI DUP1 PUSH4 0xC7BE7A49 EQ PUSH2 0x3B7 JUMPI DUP1 PUSH4 0xE00DD161 EQ PUSH2 0x3E7 JUMPI DUP1 PUSH4 0xF2FDE38B EQ PUSH2 0x405 JUMPI DUP1 PUSH4 0xF55DE0C7 EQ PUSH2 0x421 JUMPI DUP1 PUSH4 0xFF68FA6E EQ PUSH2 0x43F JUMPI PUSH2 0x158 JUMP JUMPDEST DUP1 PUSH4 0x673CF668 EQ PUSH2 0x2FB JUMPI DUP1 PUSH4 0x715018A6 EQ PUSH2 0x319 JUMPI DUP1 PUSH4 0x85A8B36C EQ PUSH2 0x323 JUMPI DUP1 PUSH4 0x8DA5CB5B EQ PUSH2 0x341 JUMPI DUP1 PUSH4 0xA1C11CA8 EQ PUSH2 0x35F JUMPI DUP1 PUSH4 0xB7A60C7E EQ PUSH2 0x37B JUMPI PUSH2 0x158 JUMP JUMPDEST DUP1 PUSH4 0x2B4C32BE GT PUSH2 0x115 JUMPI DUP1 PUSH4 0x2B4C32BE EQ PUSH2 0x22F JUMPI DUP1 PUSH4 0x361C1995 EQ PUSH2 0x24D JUMPI DUP1 PUSH4 0x3FC15F15 EQ PUSH2 0x269 JUMPI DUP1 PUSH4 0x517BD451 EQ PUSH2 0x287 JUMPI DUP1 PUSH4 0x5BB47808 EQ PUSH2 0x2AA JUMPI DUP1 PUSH4 0x5C80A435 EQ PUSH2 0x2C6 JUMPI PUSH2 0x158 JUMP JUMPDEST DUP1 PUSH4 0x3CE1CB5 EQ PUSH2 0x15D JUMPI DUP1 PUSH4 0xF08EFE0 EQ PUSH2 0x18D JUMPI DUP1 PUSH4 0x10061631 EQ PUSH2 0x1AB JUMPI DUP1 PUSH4 0x15B12494 EQ PUSH2 0x1C7 JUMPI DUP1 PUSH4 0x27CE464E EQ PUSH2 0x1E3 JUMPI DUP1 PUSH4 0x2A45B250 EQ PUSH2 0x1FF JUMPI JUMPDEST PUSH1 0x0 DUP1 REVERT JUMPDEST PUSH2 0x177 PUSH1 0x4 DUP1 CALLDATASIZE SUB DUP2 ADD SWAP1 PUSH2 0x172 SWAP2 SWAP1 PUSH2 0x2144 JUMP JUMPDEST PUSH2 0x474 JUMP JUMPDEST PUSH1 0x40 MLOAD PUSH2 0x184 SWAP2 SWAP1 PUSH2 0x22F2 JUMP JUMPDEST PUSH1 0x40 MLOAD DUP1 SWAP2 SUB SWAP1 RETURN JUMPDEST PUSH2 0x195 PUSH2 0x52A JUMP JUMPDEST PUSH1 0x40 MLOAD PUSH2 0x1A2 SWAP2 SWAP1 PUSH2 0x2406 JUMP JUMPDEST PUSH1 0x40 MLOAD DUP1 SWAP2 SUB SWAP1 RETURN JUMPDEST PUSH2 0x1C5 PUSH1 0x4 DUP1 CALLDATASIZE SUB DUP2 ADD SWAP1 PUSH2 0x1C0 SWAP2 SWAP1 PUSH2 0x2144 JUMP JUMPDEST PUSH2 0x649 JUMP JUMPDEST STOP JUMPDEST PUSH2 0x1E1 PUSH1 0x4 DUP1 CALLDATASIZE SUB DUP2 ADD SWAP1 PUSH2 0x1DC SWAP2 SWAP1 PUSH2 0x244D JUMP JUMPDEST PUSH2 0xAB9 JUMP JUMPDEST STOP JUMPDEST PUSH2 0x1FD PUSH1 0x4 DUP1 CALLDATASIZE SUB DUP2 ADD SWAP1 PUSH2 0x1F8 SWAP2 SWAP1 PUSH2 0x244D JUMP JUMPDEST PUSH2 0xB79 JUMP JUMPDEST STOP JUMPDEST PUSH2 0x219 PUSH1 0x4 DUP1 CALLDATASIZE SUB DUP2 ADD SWAP1 PUSH2 0x214 SWAP2 SWAP1 PUSH2 0x2144 JUMP JUMPDEST PUSH2 0xC39 JUMP JUMPDEST PUSH1 0x40 MLOAD PUSH2 0x226 SWAP2 SWAP1 PUSH2 0x2406 JUMP JUMPDEST PUSH1 0x40 MLOAD DUP1 SWAP2 SUB SWAP1 RETURN JUMPDEST PUSH2 0x237 PUSH2 0xD71 JUMP JUMPDEST PUSH1 0x40 MLOAD PUSH2 0x244 SWAP2 SWAP1 PUSH2 0x24B5 JUMP JUMPDEST PUSH1 0x40 MLOAD DUP1 SWAP2 SUB SWAP1 RETURN JUMPDEST PUSH2 0x267 PUSH1 0x4 DUP1 CALLDATASIZE SUB DUP2 ADD SWAP1 PUSH2 0x262 SWAP2 SWAP1 PUSH2 0x24D0 JUMP JUMPDEST PUSH2 0xD7C JUMP JUMPDEST STOP JUMPDEST PUSH2 0x271 PUSH2 0x1070 JUMP JUMPDEST PUSH1 0x40 MLOAD PUSH2 0x27E SWAP2 SWAP1 PUSH2 0x256F JUMP JUMPDEST PUSH1 0x40 MLOAD DUP1 SWAP2 SUB SWAP1 RETURN JUMPDEST PUSH2 0x28F PUSH2 0x1096 JUMP JUMPDEST PUSH1 0x40 MLOAD PUSH2 0x2A1 SWAP7 SWAP6 SWAP5 SWAP4 SWAP3 SWAP2 SWAP1 PUSH2 0x25B7 JUMP JUMPDEST PUSH1 0x40 MLOAD DUP1 SWAP2 SUB SWAP1 RETURN JUMPDEST PUSH2 0x2C4 PUSH1 0x4 DUP1 CALLDATASIZE SUB DUP2 ADD SWAP1 PUSH2 0x2BF SWAP2 SWAP1 PUSH2 0x244D JUMP JUMPDEST PUSH2 0x110D JUMP JUMPDEST STOP JUMPDEST PUSH2 0x2E0 PUSH1 0x4 DUP1 CALLDATASIZE SUB DUP2 ADD SWAP1 PUSH2 0x2DB SWAP2 SWAP1 PUSH2 0x2618 JUMP JUMPDEST PUSH2 0x11CD JUMP JUMPDEST PUSH1 0x40 MLOAD PUSH2 0x2F2 SWAP7 SWAP6 SWAP5 SWAP4 SWAP3 SWAP2 SWAP1 PUSH2 0x25B7 JUMP JUMPDEST PUSH1 0x40 MLOAD DUP1 SWAP2 SUB SWAP1 RETURN JUMPDEST PUSH2 0x303 PUSH2 0x1263 JUMP JUMPDEST PUSH1 0x40 MLOAD PUSH2 0x310 SWAP2 SWAP1 PUSH2 0x2782 JUMP JUMPDEST PUSH1 0x40 MLOAD DUP1 SWAP2 SUB SWAP1 RETURN JUMPDEST PUSH2 0x321 PUSH2 0x1583 JUMP JUMPDEST STOP JUMPDEST PUSH2 0x32B PUSH2 0x160B JUMP JUMPDEST PUSH1 0x40 MLOAD PUSH2 0x338 SWAP2 SWAP1 PUSH2 0x27C0 JUMP JUMPDEST PUSH1 0x40 MLOAD DUP1 SWAP2 SUB SWAP1 RETURN JUMPDEST PUSH2 0x349 PUSH2 0x161E JUMP JUMPDEST PUSH1 0x40 MLOAD PUSH2 0x356 SWAP2 SWAP1 PUSH2 0x27DB JUMP JUMPDEST PUSH1 0x40 MLOAD DUP1 SWAP2 SUB SWAP1 RETURN JUMPDEST PUSH2 0x379 PUSH1 0x4 DUP1 CALLDATASIZE SUB DUP2 ADD SWAP1 PUSH2 0x374 SWAP2 SWAP1 PUSH2 0x24D0 JUMP JUMPDEST PUSH2 0x1648 JUMP JUMPDEST STOP JUMPDEST PUSH2 0x383 PUSH2 0x1906 JUMP JUMPDEST PUSH1 0x40 MLOAD PUSH2 0x390 SWAP2 SWAP1 PUSH2 0x27C0 JUMP JUMPDEST PUSH1 0x40 MLOAD DUP1 SWAP2 SUB SWAP1 RETURN JUMPDEST PUSH2 0x3A1 PUSH2 0x1919 JUMP JUMPDEST PUSH1 0x40 MLOAD PUSH2 0x3AE SWAP2 SWAP1 PUSH2 0x2817 JUMP JUMPDEST PUSH1 0x40 MLOAD DUP1 SWAP2 SUB SWAP1 RETURN JUMPDEST PUSH2 0x3D1 PUSH1 0x4 DUP1 CALLDATASIZE SUB DUP2 ADD SWAP1 PUSH2 0x3CC SWAP2 SWAP1 PUSH2 0x2144 JUMP JUMPDEST PUSH2 0x193F JUMP JUMPDEST PUSH1 0x40 MLOAD PUSH2 0x3DE SWAP2 SWAP1 PUSH2 0x2406 JUMP JUMPDEST PUSH1 0x40 MLOAD DUP1 SWAP2 SUB SWAP1 RETURN JUMPDEST PUSH2 0x3EF PUSH2 0x1A71 JUMP JUMPDEST PUSH1 0x40 MLOAD PUSH2 0x3FC SWAP2 SWAP1 PUSH2 0x2832 JUMP JUMPDEST PUSH1 0x40 MLOAD DUP1 SWAP2 SUB SWAP1 RETURN JUMPDEST PUSH2 0x41F PUSH1 0x4 DUP1 CALLDATASIZE SUB DUP2 ADD SWAP1 PUSH2 0x41A SWAP2 SWAP1 PUSH2 0x244D JUMP JUMPDEST PUSH2 0x1A82 JUMP JUMPDEST STOP JUMPDEST PUSH2 0x429 PUSH2 0x1B79 JUMP JUMPDEST PUSH1 0x40 MLOAD PUSH2 0x436 SWAP2 SWAP1 PUSH2 0x286E JUMP JUMPDEST PUSH1 0x40 MLOAD DUP1 SWAP2 SUB SWAP1 RETURN JUMPDEST PUSH2 0x459 PUSH1 0x4 DUP1 CALLDATASIZE SUB DUP2 ADD SWAP1 PUSH2 0x454 SWAP2 SWAP1 PUSH2 0x2144 JUMP JUMPDEST PUSH2 0x1B9F JUMP JUMPDEST PUSH1 0x40 MLOAD PUSH2 0x46B SWAP7 SWAP6 SWAP5 SWAP4 SWAP3 SWAP2 SWAP1 PUSH2 0x25B7 JUMP JUMPDEST PUSH1 0x40 MLOAD DUP1 SWAP2 SUB SWAP1 RETURN JUMPDEST PUSH2 0x47C PUSH2 0x203F JUMP JUMPDEST PUSH1 0x0 PUSH1 0xA PUSH1 0x0 SWAP1 SLOAD SWAP1 PUSH2 0x100 EXP SWAP1 DIV PUSH20 0xFFFFFFFFFFFFFFFFFFFFFFFFFFFFFFFFFFFFFFFF AND PUSH20 0xFFFFFFFFFFFFFFFFFFFFFFFFFFFFFFFFFFFFFFFF AND PUSH4 0xD30BDAC9 DUP5 PUSH1 0x40 MLOAD DUP3 PUSH4 0xFFFFFFFF AND PUSH1 0xE0 SHL DUP2 MSTORE PUSH1 0x4 ADD PUSH2 0x4D9 SWAP2 SWAP1 PUSH2 0x2832 JUMP JUMPDEST PUSH1 0x0 PUSH1 0x40 MLOAD DUP1 DUP4 SUB DUP2 DUP7 GAS STATICCALL ISZERO DUP1 ISZERO PUSH2 0x4F6 JUMPI RETURNDATASIZE PUSH1 0x0 DUP1 RETURNDATACOPY RETURNDATASIZE PUSH1 0x0 REVERT JUMPDEST POP POP POP POP PUSH1 0x40 MLOAD RETURNDATASIZE PUSH1 0x0 DUP3 RETURNDATACOPY RETURNDATASIZE PUSH1 0x1F NOT PUSH1 0x1F DUP3 ADD AND DUP3 ADD DUP1 PUSH1 0x40 MSTORE POP DUP2 ADD SWAP1 PUSH2 0x51F SWAP2 SWAP1 PUSH2 0x2AD3 JUMP JUMPDEST SWAP1 POP DUP1 SWAP2 POP POP SWAP2 SWAP1 POP JUMP JUMPDEST PUSH2 0x532 PUSH2 0x2086 JUMP JUMPDEST PUSH1 0x1 PUSH1 0x40 MLOAD DUP1 PUSH1 0xC0 ADD PUSH1 0x40 MSTORE SWAP1 DUP2 PUSH1 0x0 DUP3 ADD SLOAD DUP2 MSTORE PUSH1 0x20 ADD PUSH1 0x1 DUP3 ADD SLOAD DUP2 MSTORE PUSH1 0x20 ADD PUSH1 0x2 DUP3 ADD PUSH1 0x0 SWAP1 SLOAD SWAP1 PUSH2 0x100 EXP SWAP1 DIV PUSH20 0xFFFFFFFFFFFFFFFFFFFFFFFFFFFFFFFFFFFFFFFF AND PUSH20 0xFFFFFFFFFFFFFFFFFFFFFFFFFFFFFFFFFFFFFFFF AND PUSH20 0xFFFFFFFFFFFFFFFFFFFFFFFFFFFFFFFFFFFFFFFF AND DUP2 MSTORE PUSH1 0x20 ADD PUSH1 0x3 DUP3 ADD PUSH1 0x0 SWAP1 SLOAD SWAP1 PUSH2 0x100 EXP SWAP1 DIV PUSH20 0xFFFFFFFFFFFFFFFFFFFFFFFFFFFFFFFFFFFFFFFF AND PUSH20 0xFFFFFFFFFFFFFFFFFFFFFFFFFFFFFFFFFFFFFFFF AND PUSH20 0xFFFFFFFFFFFFFFFFFFFFFFFFFFFFFFFFFFFFFFFF AND DUP2 MSTORE PUSH1 0x20 ADD PUSH1 0x4 DUP3 ADD SLOAD DUP2 MSTORE PUSH1 0x20 ADD PUSH1 0x5 DUP3 ADD PUSH1 0x0 SWAP1 SLOAD SWAP1 PUSH2 0x100 EXP SWAP1 DIV PUSH1 0xFF AND PUSH1 0x1 DUP2 GT ISZERO PUSH2 0x62E JUMPI PUSH2 0x62D PUSH2 0x2314 JUMP JUMPDEST JUMPDEST PUSH1 0x1 DUP2 GT ISZERO PUSH2 0x640 JUMPI PUSH2 0x63F PUSH2 0x2314 JUMP JUMPDEST JUMPDEST DUP2 MSTORE POP POP SWAP1 POP SWAP1 JUMP JUMPDEST PUSH1 0x0 CALLER SWAP1 POP PUSH1 0x0 PUSH1 0xF PUSH1 0x0 DUP5 DUP2 MSTORE PUSH1 0x20 ADD SWAP1 DUP2 MSTORE PUSH1 0x20 ADD PUSH1 0x0 KECCAK256 PUSH1 0x40 MLOAD DUP1 PUSH1 0xC0 ADD PUSH1 0x40 MSTORE SWAP1 DUP2 PUSH1 0x0 DUP3 ADD SLOAD DUP2 MSTORE PUSH1 0x20 ADD PUSH1 0x1 DUP3 ADD SLOAD DUP2 MSTORE PUSH1 0x20 ADD PUSH1 0x2 DUP3 ADD PUSH1 0x0 SWAP1 SLOAD SWAP1 PUSH2 0x100 EXP SWAP1 DIV PUSH20 0xFFFFFFFFFFFFFFFFFFFFFFFFFFFFFFFFFFFFFFFF AND PUSH20 0xFFFFFFFFFFFFFFFFFFFFFFFFFFFFFFFFFFFFFFFF AND PUSH20 0xFFFFFFFFFFFFFFFFFFFFFFFFFFFFFFFFFFFFFFFF AND DUP2 MSTORE PUSH1 0x20 ADD PUSH1 0x3 DUP3 ADD PUSH1 0x0 SWAP1 SLOAD SWAP1 PUSH2 0x100 EXP SWAP1 DIV PUSH20 0xFFFFFFFFFFFFFFFFFFFFFFFFFFFFFFFFFFFFFFFF AND PUSH20 0xFFFFFFFFFFFFFFFFFFFFFFFFFFFFFFFFFFFFFFFF AND PUSH20 0xFFFFFFFFFFFFFFFFFFFFFFFFFFFFFFFFFFFFFFFF AND DUP2 MSTORE PUSH1 0x20 ADD PUSH1 0x4 DUP3 ADD SLOAD DUP2 MSTORE PUSH1 0x20 ADD PUSH1 0x5 DUP3 ADD PUSH1 0x0 SWAP1 SLOAD SWAP1 PUSH2 0x100 EXP SWAP1 DIV PUSH1 0xFF AND PUSH1 0x1 DUP2 GT ISZERO PUSH2 0x75D JUMPI PUSH2 0x75C PUSH2 0x2314 JUMP JUMPDEST JUMPDEST PUSH1 0x1 DUP2 GT ISZERO PUSH2 0x76F JUMPI PUSH2 0x76E PUSH2 0x2314 JUMP JUMPDEST JUMPDEST DUP2 MSTORE POP POP SWAP1 POP PUSH1 0x0 DUP2 PUSH1 0x0 ADD MLOAD SUB PUSH2 0x7BC JUMPI PUSH1 0x40 MLOAD PUSH32 0x8C379A000000000000000000000000000000000000000000000000000000000 DUP2 MSTORE PUSH1 0x4 ADD PUSH2 0x7B3 SWAP1 PUSH2 0x2B79 JUMP JUMPDEST PUSH1 0x40 MLOAD DUP1 SWAP2 SUB SWAP1 REVERT JUMPDEST PUSH1 0x1 DUP1 DUP2 GT ISZERO PUSH2 0x7CF JUMPI PUSH2 0x7CE PUSH2 0x2314 JUMP JUMPDEST JUMPDEST DUP2 PUSH1 0xA0 ADD MLOAD PUSH1 0x1 DUP2 GT ISZERO PUSH2 0x7E6 JUMPI PUSH2 0x7E5 PUSH2 0x2314 JUMP JUMPDEST JUMPDEST EQ PUSH2 0x826 JUMPI PUSH1 0x40 MLOAD PUSH32 0x8C379A000000000000000000000000000000000000000000000000000000000 DUP2 MSTORE PUSH1 0x4 ADD PUSH2 0x81D SWAP1 PUSH2 0x2BE5 JUMP JUMPDEST PUSH1 0x40 MLOAD DUP1 SWAP2 SUB SWAP1 REVERT JUMPDEST PUSH1 0x0 DUP2 PUSH1 0x40 ADD MLOAD SWAP1 POP PUSH1 0x0 PUSH20 0xFFFFFFFFFFFFFFFFFFFFFFFFFFFFFFFFFFFFFFFF AND DUP2 PUSH20 0xFFFFFFFFFFFFFFFFFFFFFFFFFFFFFFFFFFFFFFFF AND SUB PUSH2 0x89E JUMPI PUSH1 0x40 MLOAD PUSH32 0x8C379A000000000000000000000000000000000000000000000000000000000 DUP2 MSTORE PUSH1 0x4 ADD PUSH2 0x895 SWAP1 PUSH2 0x2C51 JUMP JUMPDEST PUSH1 0x40 MLOAD DUP1 SWAP2 SUB SWAP1 REVERT JUMPDEST CALLER PUSH20 0xFFFFFFFFFFFFFFFFFFFFFFFFFFFFFFFFFFFFFFFF AND DUP2 PUSH20 0xFFFFFFFFFFFFFFFFFFFFFFFFFFFFFFFFFFFFFFFF AND EQ PUSH2 0x90C JUMPI PUSH1 0x40 MLOAD PUSH32 0x8C379A000000000000000000000000000000000000000000000000000000000 DUP2 MSTORE PUSH1 0x4 ADD PUSH2 0x903 SWAP1 PUSH2 0x2CBD JUMP JUMPDEST PUSH1 0x40 MLOAD DUP1 SWAP2 SUB SWAP1 REVERT JUMPDEST PUSH1 0xB PUSH1 0x0 SWAP1 SLOAD SWAP1 PUSH2 0x100 EXP SWAP1 DIV PUSH20 0xFFFFFFFFFFFFFFFFFFFFFFFFFFFFFFFFFFFFFFFF AND PUSH20 0xFFFFFFFFFFFFFFFFFFFFFFFFFFFFFFFFFFFFFFFF AND PUSH4 0x42842E0E ADDRESS DUP4 DUP8 PUSH1 0x40 MLOAD DUP5 PUSH4 0xFFFFFFFF AND PUSH1 0xE0 SHL DUP2 MSTORE PUSH1 0x4 ADD PUSH2 0x96B SWAP4 SWAP3 SWAP2 SWAP1 PUSH2 0x2CDD JUMP JUMPDEST PUSH1 0x0 PUSH1 0x40 MLOAD DUP1 DUP4 SUB DUP2 PUSH1 0x0 DUP8 DUP1 EXTCODESIZE ISZERO DUP1 ISZERO PUSH2 0x985 JUMPI PUSH1 0x0 DUP1 REVERT JUMPDEST POP GAS CALL ISZERO DUP1 ISZERO PUSH2 0x999 JUMPI RETURNDATASIZE PUSH1 0x0 DUP1 RETURNDATACOPY RETURNDATASIZE PUSH1 0x0 REVERT JUMPDEST POP POP POP POP PUSH1 0x0 DUP3 PUSH1 0xA0 ADD SWAP1 PUSH1 0x1 DUP2 GT ISZERO PUSH2 0x9B6 JUMPI PUSH2 0x9B5 PUSH2 0x2314 JUMP JUMPDEST JUMPDEST SWAP1 DUP2 PUSH1 0x1 DUP2 GT ISZERO PUSH2 0x9CA JUMPI PUSH2 0x9C9 PUSH2 0x2314 JUMP JUMPDEST JUMPDEST DUP2 MSTORE POP POP PUSH1 0xF PUSH1 0x0 DUP6 DUP2 MSTORE PUSH1 0x20 ADD SWAP1 DUP2 MSTORE PUSH1 0x20 ADD PUSH1 0x0 KECCAK256 PUSH1 0x0 DUP1 DUP3 ADD PUSH1 0x0 SWAP1 SSTORE PUSH1 0x1 DUP3 ADD PUSH1 0x0 SWAP1 SSTORE PUSH1 0x2 DUP3 ADD PUSH1 0x0 PUSH2 0x100 EXP DUP2 SLOAD SWAP1 PUSH20 0xFFFFFFFFFFFFFFFFFFFFFFFFFFFFFFFFFFFFFFFF MUL NOT AND SWAP1 SSTORE PUSH1 0x3 DUP3 ADD PUSH1 0x0 PUSH2 0x100 EXP DUP2 SLOAD SWAP1 PUSH20 0xFFFFFFFFFFFFFFFFFFFFFFFFFFFFFFFFFFFFFFFF MUL NOT AND SWAP1 SSTORE PUSH1 0x4 DUP3 ADD PUSH1 0x0 SWAP1 SSTORE PUSH1 0x5 DUP3 ADD PUSH1 0x0 PUSH2 0x100 EXP DUP2 SLOAD SWAP1 PUSH1 0xFF MUL NOT AND SWAP1 SSTORE POP POP DUP3 PUSH20 0xFFFFFFFFFFFFFFFFFFFFFFFFFFFFFFFFFFFFFFFF AND DUP5 PUSH32 0x72FFC2A266ACBA5F77E2B49400103CB61B428F37A97057EBE671E83FDDD71E67 DUP5 PUSH1 0x0 ADD MLOAD TIMESTAMP PUSH1 0x40 MLOAD PUSH2 0xAAB SWAP3 SWAP2 SWAP1 PUSH2 0x2D14 JUMP JUMPDEST PUSH1 0x40 MLOAD DUP1 SWAP2 SUB SWAP1 LOG3 POP POP POP POP JUMP JUMPDEST PUSH2 0xAC1 PUSH2 0x1C28 JUMP JUMPDEST PUSH20 0xFFFFFFFFFFFFFFFFFFFFFFFFFFFFFFFFFFFFFFFF AND PUSH2 0xADF PUSH2 0x161E JUMP JUMPDEST PUSH20 0xFFFFFFFFFFFFFFFFFFFFFFFFFFFFFFFFFFFFFFFF AND EQ PUSH2 0xB35 JUMPI PUSH1 0x40 MLOAD PUSH32 0x8C379A000000000000000000000000000000000000000000000000000000000 DUP2 MSTORE PUSH1 0x4 ADD PUSH2 0xB2C SWAP1 PUSH2 0x2D89 JUMP JUMPDEST PUSH1 0x40 MLOAD DUP1 SWAP2 SUB SWAP1 REVERT JUMPDEST DUP1 PUSH1 0xB PUSH1 0x0 PUSH2 0x100 EXP DUP2 SLOAD DUP2 PUSH20 0xFFFFFFFFFFFFFFFFFFFFFFFFFFFFFFFFFFFFFFFF MUL NOT AND SWAP1 DUP4 PUSH20 0xFFFFFFFFFFFFFFFFFFFFFFFFFFFFFFFFFFFFFFFF AND MUL OR SWAP1 SSTORE POP POP JUMP JUMPDEST PUSH2 0xB81 PUSH2 0x1C28 JUMP JUMPDEST PUSH20 0xFFFFFFFFFFFFFFFFFFFFFFFFFFFFFFFFFFFFFFFF AND PUSH2 0xB9F PUSH2 0x161E JUMP JUMPDEST PUSH20 0xFFFFFFFFFFFFFFFFFFFFFFFFFFFFFFFFFFFFFFFF AND EQ PUSH2 0xBF5 JUMPI PUSH1 0x40 MLOAD PUSH32 0x8C379A000000000000000000000000000000000000000000000000000000000 DUP2 MSTORE PUSH1 0x4 ADD PUSH2 0xBEC SWAP1 PUSH2 0x2D89 JUMP JUMPDEST PUSH1 0x40 MLOAD DUP1 SWAP2 SUB SWAP1 REVERT JUMPDEST DUP1 PUSH1 0x9 PUSH1 0x0 PUSH2 0x100 EXP DUP2 SLOAD DUP2 PUSH20 0xFFFFFFFFFFFFFFFFFFFFFFFFFFFFFFFFFFFFFFFF MUL NOT AND SWAP1 DUP4 PUSH20 0xFFFFFFFFFFFFFFFFFFFFFFFFFFFFFFFFFFFFFFFF AND MUL OR SWAP1 SSTORE POP POP JUMP JUMPDEST PUSH2 0xC41 PUSH2 0x2086 JUMP JUMPDEST PUSH1 0x0 PUSH1 0xF PUSH1 0x0 DUP5 DUP2 MSTORE PUSH1 0x20 ADD SWAP1 DUP2 MSTORE PUSH1 0x20 ADD PUSH1 0x0 KECCAK256 PUSH1 0x40 MLOAD DUP1 PUSH1 0xC0 ADD PUSH1 0x40 MSTORE SWAP1 DUP2 PUSH1 0x0 DUP3 ADD SLOAD DUP2 MSTORE PUSH1 0x20 ADD PUSH1 0x1 DUP3 ADD SLOAD DUP2 MSTORE PUSH1 0x20 ADD PUSH1 0x2 DUP3 ADD PUSH1 0x0 SWAP1 SLOAD SWAP1 PUSH2 0x100 EXP SWAP1 DIV PUSH20 0xFFFFFFFFFFFFFFFFFFFFFFFFFFFFFFFFFFFFFFFF AND PUSH20 0xFFFFFFFFFFFFFFFFFFFFFFFFFFFFFFFFFFFFFFFF AND PUSH20 0xFFFFFFFFFFFFFFFFFFFFFFFFFFFFFFFFFFFFFFFF AND DUP2 MSTORE PUSH1 0x20 ADD PUSH1 0x3 DUP3 ADD PUSH1 0x0 SWAP1 SLOAD SWAP1 PUSH2 0x100 EXP SWAP1 DIV PUSH20 0xFFFFFFFFFFFFFFFFFFFFFFFFFFFFFFFFFFFFFFFF AND PUSH20 0xFFFFFFFFFFFFFFFFFFFFFFFFFFFFFFFFFFFFFFFF AND PUSH20 0xFFFFFFFFFFFFFFFFFFFFFFFFFFFFFFFFFFFFFFFF AND DUP2 MSTORE PUSH1 0x20 ADD PUSH1 0x4 DUP3 ADD SLOAD DUP2 MSTORE PUSH1 0x20 ADD PUSH1 0x5 DUP3 ADD PUSH1 0x0 SWAP1 SLOAD SWAP1 PUSH2 0x100 EXP SWAP1 DIV PUSH1 0xFF AND PUSH1 0x1 DUP2 GT ISZERO PUSH2 0xD50 JUMPI PUSH2 0xD4F PUSH2 0x2314 JUMP JUMPDEST JUMPDEST PUSH1 0x1 DUP2 GT ISZERO PUSH2 0xD62 JUMPI PUSH2 0xD61 PUSH2 0x2314 JUMP JUMPDEST JUMPDEST DUP2 MSTORE POP POP SWAP1 POP DUP1 SWAP2 POP POP SWAP2 SWAP1 POP JUMP JUMPDEST PUSH4 0x80AC58CD PUSH1 0xE0 SHL DUP2 JUMP JUMPDEST PUSH1 0x0 DUP2 GT PUSH2 0xDBF JUMPI PUSH1 0x40 MLOAD PUSH32 0x8C379A000000000000000000000000000000000000000000000000000000000 DUP2 MSTORE PUSH1 0x4 ADD PUSH2 0xDB6 SWAP1 PUSH2 0x2DF5 JUMP JUMPDEST PUSH1 0x40 MLOAD DUP1 SWAP2 SUB SWAP1 REVERT JUMPDEST PUSH1 0x0 PUSH1 0xA PUSH1 0x0 SWAP1 SLOAD SWAP1 PUSH2 0x100 EXP SWAP1 DIV PUSH20 0xFFFFFFFFFFFFFFFFFFFFFFFFFFFFFFFFFFFFFFFF AND PUSH20 0xFFFFFFFFFFFFFFFFFFFFFFFFFFFFFFFFFFFFFFFF AND PUSH4 0xD30BDAC9 DUP5 PUSH1 0x40 MLOAD DUP3 PUSH4 0xFFFFFFFF AND PUSH1 0xE0 SHL DUP2 MSTORE PUSH1 0x4 ADD PUSH2 0xE1C SWAP2 SWAP1 PUSH2 0x2832 JUMP JUMPDEST PUSH1 0x0 PUSH1 0x40 MLOAD DUP1 DUP4 SUB DUP2 DUP7 GAS STATICCALL ISZERO DUP1 ISZERO PUSH2 0xE39 JUMPI RETURNDATASIZE PUSH1 0x0 DUP1 RETURNDATACOPY RETURNDATASIZE PUSH1 0x0 REVERT JUMPDEST POP POP POP POP PUSH1 0x40 MLOAD RETURNDATASIZE PUSH1 0x0 DUP3 RETURNDATACOPY RETURNDATASIZE PUSH1 0x1F NOT PUSH1 0x1F DUP3 ADD AND DUP3 ADD DUP1 PUSH1 0x40 MSTORE POP DUP2 ADD SWAP1 PUSH2 0xE62 SWAP2 SWAP1 PUSH2 0x2AD3 JUMP JUMPDEST SWAP1 POP PUSH1 0x0 ISZERO ISZERO DUP2 PUSH1 0x80 ADD MLOAD ISZERO ISZERO EQ PUSH2 0xEAF JUMPI PUSH1 0x40 MLOAD PUSH32 0x8C379A000000000000000000000000000000000000000000000000000000000 DUP2 MSTORE PUSH1 0x4 ADD PUSH2 0xEA6 SWAP1 PUSH2 0x2E61 JUMP JUMPDEST PUSH1 0x40 MLOAD DUP1 SWAP2 SUB SWAP1 REVERT JUMPDEST PUSH2 0xEB8 DUP4 PUSH2 0x1C30 JUMP JUMPDEST PUSH1 0x0 PUSH2 0xEC4 PUSH1 0xD PUSH2 0x1D55 JUMP JUMPDEST SWAP1 POP PUSH1 0x40 MLOAD DUP1 PUSH1 0xC0 ADD PUSH1 0x40 MSTORE DUP1 DUP3 DUP2 MSTORE PUSH1 0x20 ADD DUP6 DUP2 MSTORE PUSH1 0x20 ADD CALLER PUSH20 0xFFFFFFFFFFFFFFFFFFFFFFFFFFFFFFFFFFFFFFFF AND DUP2 MSTORE PUSH1 0x20 ADD ADDRESS PUSH20 0xFFFFFFFFFFFFFFFFFFFFFFFFFFFFFFFFFFFFFFFF AND DUP2 MSTORE PUSH1 0x20 ADD DUP5 DUP2 MSTORE PUSH1 0x20 ADD PUSH1 0x1 DUP1 DUP2 GT ISZERO PUSH2 0xF2E JUMPI PUSH2 0xF2D PUSH2 0x2314 JUMP JUMPDEST JUMPDEST DUP2 MSTORE POP PUSH1 0xF PUSH1 0x0 DUP4 DUP2 MSTORE PUSH1 0x20 ADD SWAP1 DUP2 MSTORE PUSH1 0x20 ADD PUSH1 0x0 KECCAK256 PUSH1 0x0 DUP3 ADD MLOAD DUP2 PUSH1 0x0 ADD SSTORE PUSH1 0x20 DUP3 ADD MLOAD DUP2 PUSH1 0x1 ADD SSTORE PUSH1 0x40 DUP3 ADD MLOAD DUP2 PUSH1 0x2 ADD PUSH1 0x0 PUSH2 0x100 EXP DUP2 SLOAD DUP2 PUSH20 0xFFFFFFFFFFFFFFFFFFFFFFFFFFFFFFFFFFFFFFFF MUL NOT AND SWAP1 DUP4 PUSH20 0xFFFFFFFFFFFFFFFFFFFFFFFFFFFFFFFFFFFFFFFF AND MUL OR SWAP1 SSTORE POP PUSH1 0x60 DUP3 ADD MLOAD DUP2 PUSH1 0x3 ADD PUSH1 0x0 PUSH2 0x100 EXP DUP2 SLOAD DUP2 PUSH20 0xFFFFFFFFFFFFFFFFFFFFFFFFFFFFFFFFFFFFFFFF MUL NOT AND SWAP1 DUP4 PUSH20 0xFFFFFFFFFFFFFFFFFFFFFFFFFFFFFFFFFFFFFFFF AND MUL OR SWAP1 SSTORE POP PUSH1 0x80 DUP3 ADD MLOAD DUP2 PUSH1 0x4 ADD SSTORE PUSH1 0xA0 DUP3 ADD MLOAD DUP2 PUSH1 0x5 ADD PUSH1 0x0 PUSH2 0x100 EXP DUP2 SLOAD DUP2 PUSH1 0xFF MUL NOT AND SWAP1 DUP4 PUSH1 0x1 DUP2 GT ISZERO PUSH2 0x101B JUMPI PUSH2 0x101A PUSH2 0x2314 JUMP JUMPDEST JUMPDEST MUL OR SWAP1 SSTORE POP SWAP1 POP POP PUSH2 0x102D PUSH1 0xD PUSH2 0x1D63 JUMP JUMPDEST DUP4 DUP2 PUSH32 0x38690A554FFBC44EB6A75016E47D517D0DB8E6C37494ADC68D6D0B2C66F0AB21 CALLER ADDRESS DUP8 PUSH1 0x40 MLOAD PUSH2 0x1062 SWAP4 SWAP3 SWAP2 SWAP1 PUSH2 0x2CDD JUMP JUMPDEST PUSH1 0x40 MLOAD DUP1 SWAP2 SUB SWAP1 LOG3 POP POP POP POP JUMP JUMPDEST PUSH1 0x9 PUSH1 0x0 SWAP1 SLOAD SWAP1 PUSH2 0x100 EXP SWAP1 DIV PUSH20 0xFFFFFFFFFFFFFFFFFFFFFFFFFFFFFFFFFFFFFFFF AND DUP2 JUMP JUMPDEST PUSH1 0x1 DUP1 PUSH1 0x0 ADD SLOAD SWAP1 DUP1 PUSH1 0x1 ADD SLOAD SWAP1 DUP1 PUSH1 0x2 ADD PUSH1 0x0 SWAP1 SLOAD SWAP1 PUSH2 0x100 EXP SWAP1 DIV PUSH20 0xFFFFFFFFFFFFFFFFFFFFFFFFFFFFFFFFFFFFFFFF AND SWAP1 DUP1 PUSH1 0x3 ADD PUSH1 0x0 SWAP1 SLOAD SWAP1 PUSH2 0x100 EXP SWAP1 DIV PUSH20 0xFFFFFFFFFFFFFFFFFFFFFFFFFFFFFFFFFFFFFFFF AND SWAP1 DUP1 PUSH1 0x4 ADD SLOAD SWAP1 DUP1 PUSH1 0x5 ADD PUSH1 0x0 SWAP1 SLOAD SWAP1 PUSH2 0x100 EXP SWAP1 DIV PUSH1 0xFF AND SWAP1 POP DUP7 JUMP JUMPDEST PUSH2 0x1115 PUSH2 0x1C28 JUMP JUMPDEST PUSH20 0xFFFFFFFFFFFFFFFFFFFFFFFFFFFFFFFFFFFFFFFF AND PUSH2 0x1133 PUSH2 0x161E JUMP JUMPDEST PUSH20 0xFFFFFFFFFFFFFFFFFFFFFFFFFFFFFFFFFFFFFFFF AND EQ PUSH2 0x1189 JUMPI PUSH1 0x40 MLOAD PUSH32 0x8C379A000000000000000000000000000000000000000000000000000000000 DUP2 MSTORE PUSH1 0x4 ADD PUSH2 0x1180 SWAP1 PUSH2 0x2D89 JUMP JUMPDEST PUSH1 0x40 MLOAD DUP1 SWAP2 SUB SWAP1 REVERT JUMPDEST DUP1 PUSH1 0xA PUSH1 0x0 PUSH2 0x100 EXP DUP2 SLOAD DUP2 PUSH20 0xFFFFFFFFFFFFFFFFFFFFFFFFFFFFFFFFFFFFFFFF MUL NOT AND SWAP1 DUP4 PUSH20 0xFFFFFFFFFFFFFFFFFFFFFFFFFFFFFFFFFFFFFFFF AND MUL OR SWAP1 SSTORE POP POP JUMP JUMPDEST PUSH1 0x8 PUSH1 0x20 MSTORE DUP2 PUSH1 0x0 MSTORE PUSH1 0x40 PUSH1 0x0 KECCAK256 PUSH1 0x20 MSTORE DUP1 PUSH1 0x0 MSTORE PUSH1 0x40 PUSH1 0x0 KECCAK256 PUSH1 0x0 SWAP2 POP SWAP2 POP POP DUP1 PUSH1 0x0 ADD SLOAD SWAP1 DUP1 PUSH1 0x1 ADD SLOAD SWAP1 DUP1 PUSH1 0x2 ADD PUSH1 0x0 SWAP1 SLOAD SWAP1 PUSH2 0x100 EXP SWAP1 DIV PUSH20 0xFFFFFFFFFFFFFFFFFFFFFFFFFFFFFFFFFFFFFFFF AND SWAP1 DUP1 PUSH1 0x3 ADD PUSH1 0x0 SWAP1 SLOAD SWAP1 PUSH2 0x100 EXP SWAP1 DIV PUSH20 0xFFFFFFFFFFFFFFFFFFFFFFFFFFFFFFFFFFFFFFFF AND SWAP1 DUP1 PUSH1 0x4 ADD SLOAD SWAP1 DUP1 PUSH1 0x5 ADD PUSH1 0x0 SWAP1 SLOAD SWAP1 PUSH2 0x100 EXP SWAP1 DIV PUSH1 0xFF AND SWAP1 POP DUP7 JUMP JUMPDEST PUSH1 0x60 PUSH1 0x0 PUSH2 0x1271 PUSH1 0xD PUSH2 0x1D55 JUMP JUMPDEST SWAP1 POP PUSH1 0x0 DUP1 PUSH1 0x0 JUMPDEST DUP4 DUP2 LT ISZERO PUSH2 0x130D JUMPI CALLER PUSH20 0xFFFFFFFFFFFFFFFFFFFFFFFFFFFFFFFFFFFFFFFF AND PUSH1 0xF PUSH1 0x0 DUP4 DUP2 MSTORE PUSH1 0x20 ADD SWAP1 DUP2 MSTORE PUSH1 0x20 ADD PUSH1 0x0 KECCAK256 PUSH1 0x3 ADD PUSH1 0x0 SWAP1 SLOAD SWAP1 PUSH2 0x100 EXP SWAP1 DIV PUSH20 0xFFFFFFFFFFFFFFFFFFFFFFFFFFFFFFFFFFFFFFFF AND PUSH20 0xFFFFFFFFFFFFFFFFFFFFFFFFFFFFFFFFFFFFFFFF AND SUB PUSH2 0x12FA JUMPI PUSH1 0x1 DUP4 PUSH2 0x12F7 SWAP2 SWAP1 PUSH2 0x2EB0 JUMP JUMPDEST SWAP3 POP JUMPDEST DUP1 DUP1 PUSH2 0x1305 SWAP1 PUSH2 0x2F06 JUMP JUMPDEST SWAP2 POP POP PUSH2 0x1279 JUMP JUMPDEST POP PUSH1 0x0 DUP3 PUSH8 0xFFFFFFFFFFFFFFFF DUP2 GT ISZERO PUSH2 0x132A JUMPI PUSH2 0x1329 PUSH2 0x288E JUMP JUMPDEST JUMPDEST PUSH1 0x40 MLOAD SWAP1 DUP1 DUP3 MSTORE DUP1 PUSH1 0x20 MUL PUSH1 0x20 ADD DUP3 ADD PUSH1 0x40 MSTORE DUP1 ISZERO PUSH2 0x1363 JUMPI DUP2 PUSH1 0x20 ADD JUMPDEST PUSH2 0x1350 PUSH2 0x2086 JUMP JUMPDEST DUP2 MSTORE PUSH1 0x20 ADD SWAP1 PUSH1 0x1 SWAP1 SUB SWAP1 DUP2 PUSH2 0x1348 JUMPI SWAP1 POP JUMPDEST POP SWAP1 POP PUSH1 0x0 JUMPDEST DUP5 DUP2 LT ISZERO PUSH2 0x1578 JUMPI CALLER PUSH20 0xFFFFFFFFFFFFFFFFFFFFFFFFFFFFFFFFFFFFFFFF AND PUSH1 0xF PUSH1 0x0 PUSH1 0x1 DUP5 PUSH2 0x1399 SWAP2 SWAP1 PUSH2 0x2EB0 JUMP JUMPDEST DUP2 MSTORE PUSH1 0x20 ADD SWAP1 DUP2 MSTORE PUSH1 0x20 ADD PUSH1 0x0 KECCAK256 PUSH1 0x3 ADD PUSH1 0x0 SWAP1 SLOAD SWAP1 PUSH2 0x100 EXP SWAP1 DIV PUSH20 0xFFFFFFFFFFFFFFFFFFFFFFFFFFFFFFFFFFFFFFFF AND PUSH20 0xFFFFFFFFFFFFFFFFFFFFFFFFFFFFFFFFFFFFFFFF AND SUB PUSH2 0x1565 JUMPI PUSH1 0x0 PUSH1 0xF PUSH1 0x0 PUSH1 0x1 DUP5 PUSH2 0x13F9 SWAP2 SWAP1 PUSH2 0x2EB0 JUMP JUMPDEST DUP2 MSTORE PUSH1 0x20 ADD SWAP1 DUP2 MSTORE PUSH1 0x20 ADD PUSH1 0x0 KECCAK256 PUSH1 0x0 ADD SLOAD SWAP1 POP PUSH1 0x0 PUSH1 0xF PUSH1 0x0 DUP4 DUP2 MSTORE PUSH1 0x20 ADD SWAP1 DUP2 MSTORE PUSH1 0x20 ADD PUSH1 0x0 KECCAK256 SWAP1 POP DUP1 PUSH1 0x40 MLOAD DUP1 PUSH1 0xC0 ADD PUSH1 0x40 MSTORE SWAP1 DUP2 PUSH1 0x0 DUP3 ADD SLOAD DUP2 MSTORE PUSH1 0x20 ADD PUSH1 0x1 DUP3 ADD SLOAD DUP2 MSTORE PUSH1 0x20 ADD PUSH1 0x2 DUP3 ADD PUSH1 0x0 SWAP1 SLOAD SWAP1 PUSH2 0x100 EXP SWAP1 DIV PUSH20 0xFFFFFFFFFFFFFFFFFFFFFFFFFFFFFFFFFFFFFFFF AND PUSH20 0xFFFFFFFFFFFFFFFFFFFFFFFFFFFFFFFFFFFFFFFF AND PUSH20 0xFFFFFFFFFFFFFFFFFFFFFFFFFFFFFFFFFFFFFFFF AND DUP2 MSTORE PUSH1 0x20 ADD PUSH1 0x3 DUP3 ADD PUSH1 0x0 SWAP1 SLOAD SWAP1 PUSH2 0x100 EXP SWAP1 DIV PUSH20 0xFFFFFFFFFFFFFFFFFFFFFFFFFFFFFFFFFFFFFFFF AND PUSH20 0xFFFFFFFFFFFFFFFFFFFFFFFFFFFFFFFFFFFFFFFF AND PUSH20 0xFFFFFFFFFFFFFFFFFFFFFFFFFFFFFFFFFFFFFFFF AND DUP2 MSTORE PUSH1 0x20 ADD PUSH1 0x4 DUP3 ADD SLOAD DUP2 MSTORE PUSH1 0x20 ADD PUSH1 0x5 DUP3 ADD PUSH1 0x0 SWAP1 SLOAD SWAP1 PUSH2 0x100 EXP SWAP1 DIV PUSH1 0xFF AND PUSH1 0x1 DUP2 GT ISZERO PUSH2 0x151F JUMPI PUSH2 0x151E PUSH2 0x2314 JUMP JUMPDEST JUMPDEST PUSH1 0x1 DUP2 GT ISZERO PUSH2 0x1531 JUMPI PUSH2 0x1530 PUSH2 0x2314 JUMP JUMPDEST JUMPDEST DUP2 MSTORE POP POP DUP5 DUP7 DUP2 MLOAD DUP2 LT PUSH2 0x1548 JUMPI PUSH2 0x1547 PUSH2 0x2F4E JUMP JUMPDEST JUMPDEST PUSH1 0x20 MUL PUSH1 0x20 ADD ADD DUP2 SWAP1 MSTORE POP PUSH1 0x1 DUP6 PUSH2 0x1560 SWAP2 SWAP1 PUSH2 0x2EB0 JUMP JUMPDEST SWAP5 POP POP POP JUMPDEST DUP1 DUP1 PUSH2 0x1570 SWAP1 PUSH2 0x2F06 JUMP JUMPDEST SWAP2 POP POP PUSH2 0x1369 JUMP JUMPDEST POP DUP1 SWAP5 POP POP POP POP POP SWAP1 JUMP JUMPDEST PUSH2 0x158B PUSH2 0x1C28 JUMP JUMPDEST PUSH20 0xFFFFFFFFFFFFFFFFFFFFFFFFFFFFFFFFFFFFFFFF AND PUSH2 0x15A9 PUSH2 0x161E JUMP JUMPDEST PUSH20 0xFFFFFFFFFFFFFFFFFFFFFFFFFFFFFFFFFFFFFFFF AND EQ PUSH2 0x15FF JUMPI PUSH1 0x40 MLOAD PUSH32 0x8C379A000000000000000000000000000000000000000000000000000000000 DUP2 MSTORE PUSH1 0x4 ADD PUSH2 0x15F6 SWAP1 PUSH2 0x2D89 JUMP JUMPDEST PUSH1 0x40 MLOAD DUP1 SWAP2 SUB SWAP1 REVERT JUMPDEST PUSH2 0x1609 PUSH1 0x0 PUSH2 0x1D79 JUMP JUMPDEST JUMP JUMPDEST PUSH1 0xB PUSH1 0x14 SWAP1 SLOAD SWAP1 PUSH2 0x100 EXP SWAP1 DIV PUSH1 0xFF AND DUP2 JUMP JUMPDEST PUSH1 0x0 PUSH1 0xC PUSH1 0x0 SWAP1 SLOAD SWAP1 PUSH2 0x100 EXP SWAP1 DIV PUSH20 0xFFFFFFFFFFFFFFFFFFFFFFFFFFFFFFFFFFFFFFFF AND SWAP1 POP SWAP1 JUMP JUMPDEST PUSH1 0x0 PUSH1 0xF PUSH1 0x0 DUP5 DUP2 MSTORE PUSH1 0x20 ADD SWAP1 DUP2 MSTORE PUSH1 0x20 ADD PUSH1 0x0 KECCAK256 PUSH1 0x4 ADD SLOAD SWAP1 POP PUSH1 0x0 PUSH1 0xF PUSH1 0x0 DUP6 DUP2 MSTORE PUSH1 0x20 ADD SWAP1 DUP2 MSTORE PUSH1 0x20 ADD PUSH1 0x0 KECCAK256 PUSH1 0x1 ADD SLOAD SWAP1 POP PUSH1 0x0 PUSH1 0xF PUSH1 0x0 DUP7 DUP2 MSTORE PUSH1 0x20 ADD SWAP1 DUP2 MSTORE PUSH1 0x20 ADD PUSH1 0x0 KECCAK256 PUSH1 0x2 ADD PUSH1 0x0 SWAP1 SLOAD SWAP1 PUSH2 0x100 EXP SWAP1 DIV PUSH20 0xFFFFFFFFFFFFFFFFFFFFFFFFFFFFFFFFFFFFFFFF AND SWAP1 POP PUSH1 0x0 PUSH1 0xA PUSH1 0x0 SWAP1 SLOAD SWAP1 PUSH2 0x100 EXP SWAP1 DIV PUSH20 0xFFFFFFFFFFFFFFFFFFFFFFFFFFFFFFFFFFFFFFFF AND PUSH20 0xFFFFFFFFFFFFFFFFFFFFFFFFFFFFFFFFFFFFFFFF AND PUSH4 0xD30BDAC9 DUP5 PUSH1 0x40 MLOAD DUP3 PUSH4 0xFFFFFFFF AND PUSH1 0xE0 SHL DUP2 MSTORE PUSH1 0x4 ADD PUSH2 0x1716 SWAP2 SWAP1 PUSH2 0x2832 JUMP JUMPDEST PUSH1 0x0 PUSH1 0x40 MLOAD DUP1 DUP4 SUB DUP2 DUP7 GAS STATICCALL ISZERO DUP1 ISZERO PUSH2 0x1733 JUMPI RETURNDATASIZE PUSH1 0x0 DUP1 RETURNDATACOPY RETURNDATASIZE PUSH1 0x0 REVERT JUMPDEST POP POP POP POP PUSH1 0x40 MLOAD RETURNDATASIZE PUSH1 0x0 DUP3 RETURNDATACOPY RETURNDATASIZE PUSH1 0x1F NOT PUSH1 0x1F DUP3 ADD AND DUP3 ADD DUP1 PUSH1 0x40 MSTORE POP DUP2 ADD SWAP1 PUSH2 0x175C SWAP2 SWAP1 PUSH2 0x2AD3 JUMP JUMPDEST SWAP1 POP DUP4 DUP6 EQ PUSH2 0x17A0 JUMPI PUSH1 0x40 MLOAD PUSH32 0x8C379A000000000000000000000000000000000000000000000000000000000 DUP2 MSTORE PUSH1 0x4 ADD PUSH2 0x1797 SWAP1 PUSH2 0x2FEF JUMP JUMPDEST PUSH1 0x40 MLOAD DUP1 SWAP2 SUB SWAP1 REVERT JUMPDEST PUSH1 0x0 ISZERO ISZERO DUP2 PUSH1 0x80 ADD MLOAD ISZERO ISZERO EQ PUSH2 0x17EB JUMPI PUSH1 0x40 MLOAD PUSH32 0x8C379A000000000000000000000000000000000000000000000000000000000 DUP2 MSTORE PUSH1 0x4 ADD PUSH2 0x17E2 SWAP1 PUSH2 0x2E61 JUMP JUMPDEST PUSH1 0x40 MLOAD DUP1 SWAP2 SUB SWAP1 REVERT JUMPDEST PUSH2 0x17F6 DUP7 DUP7 DUP6 PUSH2 0x1E3F JUMP JUMPDEST CALLER PUSH1 0xF PUSH1 0x0 DUP9 DUP2 MSTORE PUSH1 0x20 ADD SWAP1 DUP2 MSTORE PUSH1 0x20 ADD PUSH1 0x0 KECCAK256 PUSH1 0x3 ADD PUSH1 0x0 PUSH2 0x100 EXP DUP2 SLOAD DUP2 PUSH20 0xFFFFFFFFFFFFFFFFFFFFFFFFFFFFFFFFFFFFFFFF MUL NOT AND SWAP1 DUP4 PUSH20 0xFFFFFFFFFFFFFFFFFFFFFFFFFFFFFFFFFFFFFFFF AND MUL OR SWAP1 SSTORE POP PUSH1 0x0 PUSH1 0xF PUSH1 0x0 DUP9 DUP2 MSTORE PUSH1 0x20 ADD SWAP1 DUP2 MSTORE PUSH1 0x20 ADD PUSH1 0x0 KECCAK256 PUSH1 0x5 ADD PUSH1 0x0 PUSH2 0x100 EXP DUP2 SLOAD DUP2 PUSH1 0xFF MUL NOT AND SWAP1 DUP4 PUSH1 0x1 DUP2 GT ISZERO PUSH2 0x1885 JUMPI PUSH2 0x1884 PUSH2 0x2314 JUMP JUMPDEST JUMPDEST MUL OR SWAP1 SSTORE POP PUSH2 0x1894 PUSH1 0xE PUSH2 0x1D63 JUMP JUMPDEST CALLER PUSH20 0xFFFFFFFFFFFFFFFFFFFFFFFFFFFFFFFFFFFFFFFF AND DUP3 PUSH20 0xFFFFFFFFFFFFFFFFFFFFFFFFFFFFFFFFFFFFFFFF AND DUP5 PUSH32 0x551327AEE12D0A8B3EDE8D0E3182A40A5FF3ED9F1811DD622915DB30B609B7DF DUP10 DUP9 TIMESTAMP PUSH1 0x40 MLOAD PUSH2 0x18F6 SWAP4 SWAP3 SWAP2 SWAP1 PUSH2 0x305B JUMP JUMPDEST PUSH1 0x40 MLOAD DUP1 SWAP2 SUB SWAP1 LOG4 POP POP POP POP POP POP JUMP JUMPDEST PUSH1 0xB PUSH1 0x15 SWAP1 SLOAD SWAP1 PUSH2 0x100 EXP SWAP1 DIV PUSH1 0xFF AND DUP2 JUMP JUMPDEST PUSH1 0xA PUSH1 0x0 SWAP1 SLOAD SWAP1 PUSH2 0x100 EXP SWAP1 DIV PUSH20 0xFFFFFFFFFFFFFFFFFFFFFFFFFFFFFFFFFFFFFFFF AND DUP2 JUMP JUMPDEST PUSH2 0x1947 PUSH2 0x2086 JUMP JUMPDEST PUSH1 0xF PUSH1 0x0 DUP4 DUP2 MSTORE PUSH1 0x20 ADD SWAP1 DUP2 MSTORE PUSH1 0x20 ADD PUSH1 0x0 KECCAK256 PUSH1 0x40 MLOAD DUP1 PUSH1 0xC0 ADD PUSH1 0x40 MSTORE SWAP1 DUP2 PUSH1 0x0 DUP3 ADD SLOAD DUP2 MSTORE PUSH1 0x20 ADD PUSH1 0x1 DUP3 ADD SLOAD DUP2 MSTORE PUSH1 0x20 ADD PUSH1 0x2 DUP3 ADD PUSH1 0x0 SWAP1 SLOAD SWAP1 PUSH2 0x100 EXP SWAP1 DIV PUSH20 0xFFFFFFFFFFFFFFFFFFFFFFFFFFFFFFFFFFFFFFFF AND PUSH20 0xFFFFFFFFFFFFFFFFFFFFFFFFFFFFFFFFFFFFFFFF AND PUSH20 0xFFFFFFFFFFFFFFFFFFFFFFFFFFFFFFFFFFFFFFFF AND DUP2 MSTORE PUSH1 0x20 ADD PUSH1 0x3 DUP3 ADD PUSH1 0x0 SWAP1 SLOAD SWAP1 PUSH2 0x100 EXP SWAP1 DIV PUSH20 0xFFFFFFFFFFFFFFFFFFFFFFFFFFFFFFFFFFFFFFFF AND PUSH20 0xFFFFFFFFFFFFFFFFFFFFFFFFFFFFFFFFFFFFFFFF AND PUSH20 0xFFFFFFFFFFFFFFFFFFFFFFFFFFFFFFFFFFFFFFFF AND DUP2 MSTORE PUSH1 0x20 ADD PUSH1 0x4 DUP3 ADD SLOAD DUP2 MSTORE PUSH1 0x20 ADD PUSH1 0x5 DUP3 ADD PUSH1 0x0 SWAP1 SLOAD SWAP1 PUSH2 0x100 EXP SWAP1 DIV PUSH1 0xFF AND PUSH1 0x1 DUP2 GT ISZERO PUSH2 0x1A54 JUMPI PUSH2 0x1A53 PUSH2 0x2314 JUMP JUMPDEST JUMPDEST PUSH1 0x1 DUP2 GT ISZERO PUSH2 0x1A66 JUMPI PUSH2 0x1A65 PUSH2 0x2314 JUMP JUMPDEST JUMPDEST DUP2 MSTORE POP POP SWAP1 POP SWAP2 SWAP1 POP JUMP JUMPDEST PUSH1 0x0 PUSH2 0x1A7D PUSH1 0xD PUSH2 0x1D55 JUMP JUMPDEST SWAP1 POP SWAP1 JUMP JUMPDEST PUSH2 0x1A8A PUSH2 0x1C28 JUMP JUMPDEST PUSH20 0xFFFFFFFFFFFFFFFFFFFFFFFFFFFFFFFFFFFFFFFF AND PUSH2 0x1AA8 PUSH2 0x161E JUMP JUMPDEST PUSH20 0xFFFFFFFFFFFFFFFFFFFFFFFFFFFFFFFFFFFFFFFF AND EQ PUSH2 0x1AFE JUMPI PUSH1 0x40 MLOAD PUSH32 0x8C379A000000000000000000000000000000000000000000000000000000000 DUP2 MSTORE PUSH1 0x4 ADD PUSH2 0x1AF5 SWAP1 PUSH2 0x2D89 JUMP JUMPDEST PUSH1 0x40 MLOAD DUP1 SWAP2 SUB SWAP1 REVERT JUMPDEST PUSH1 0x0 PUSH20 0xFFFFFFFFFFFFFFFFFFFFFFFFFFFFFFFFFFFFFFFF AND DUP2 PUSH20 0xFFFFFFFFFFFFFFFFFFFFFFFFFFFFFFFFFFFFFFFF AND SUB PUSH2 0x1B6D JUMPI PUSH1 0x40 MLOAD PUSH32 0x8C379A000000000000000000000000000000000000000000000000000000000 DUP2 MSTORE PUSH1 0x4 ADD PUSH2 0x1B64 SWAP1 PUSH2 0x3117 JUMP JUMPDEST PUSH1 0x40 MLOAD DUP1 SWAP2 SUB SWAP1 REVERT JUMPDEST PUSH2 0x1B76 DUP2 PUSH2 0x1D79 JUMP JUMPDEST POP JUMP JUMPDEST PUSH1 0xB PUSH1 0x0 SWAP1 SLOAD SWAP1 PUSH2 0x100 EXP SWAP1 DIV PUSH20 0xFFFFFFFFFFFFFFFFFFFFFFFFFFFFFFFFFFFFFFFF AND DUP2 JUMP JUMPDEST PUSH1 0x7 PUSH1 0x20 MSTORE DUP1 PUSH1 0x0 MSTORE PUSH1 0x40 PUSH1 0x0 KECCAK256 PUSH1 0x0 SWAP2 POP SWAP1 POP DUP1 PUSH1 0x0 ADD SLOAD SWAP1 DUP1 PUSH1 0x1 ADD SLOAD SWAP1 DUP1 PUSH1 0x2 ADD PUSH1 0x0 SWAP1 SLOAD SWAP1 PUSH2 0x100 EXP SWAP1 DIV PUSH20 0xFFFFFFFFFFFFFFFFFFFFFFFFFFFFFFFFFFFFFFFF AND SWAP1 DUP1 PUSH1 0x3 ADD PUSH1 0x0 SWAP1 SLOAD SWAP1 PUSH2 0x100 EXP SWAP1 DIV PUSH20 0xFFFFFFFFFFFFFFFFFFFFFFFFFFFFFFFFFFFFFFFF AND SWAP1 DUP1 PUSH1 0x4 ADD SLOAD SWAP1 DUP1 PUSH1 0x5 ADD PUSH1 0x0 SWAP1 SLOAD SWAP1 PUSH2 0x100 EXP SWAP1 DIV PUSH1 0xFF AND SWAP1 POP DUP7 JUMP JUMPDEST PUSH1 0x0 CALLER SWAP1 POP SWAP1 JUMP JUMPDEST PUSH1 0xA PUSH1 0x0 SWAP1 SLOAD SWAP1 PUSH2 0x100 EXP SWAP1 DIV PUSH20 0xFFFFFFFFFFFFFFFFFFFFFFFFFFFFFFFFFFFFFFFF AND PUSH20 0xFFFFFFFFFFFFFFFFFFFFFFFFFFFFFFFFFFFFFFFF AND PUSH4 0xC1E9518A CALLER ADDRESS DUP5 PUSH1 0x40 MLOAD DUP5 PUSH4 0xFFFFFFFF AND PUSH1 0xE0 SHL DUP2 MSTORE PUSH1 0x4 ADD PUSH2 0x1C8F SWAP4 SWAP3 SWAP2 SWAP1 PUSH2 0x2CDD JUMP JUMPDEST PUSH1 0x0 PUSH1 0x40 MLOAD DUP1 DUP4 SUB DUP2 PUSH1 0x0 DUP8 DUP1 EXTCODESIZE ISZERO DUP1 ISZERO PUSH2 0x1CA9 JUMPI PUSH1 0x0 DUP1 REVERT JUMPDEST POP GAS CALL ISZERO DUP1 ISZERO PUSH2 0x1CBD JUMPI RETURNDATASIZE PUSH1 0x0 DUP1 RETURNDATACOPY RETURNDATASIZE PUSH1 0x0 REVERT JUMPDEST POP POP POP POP PUSH1 0xB PUSH1 0x0 SWAP1 SLOAD SWAP1 PUSH2 0x100 EXP SWAP1 DIV PUSH20 0xFFFFFFFFFFFFFFFFFFFFFFFFFFFFFFFFFFFFFFFF AND PUSH20 0xFFFFFFFFFFFFFFFFFFFFFFFFFFFFFFFFFFFFFFFF AND PUSH4 0x23B872DD CALLER ADDRESS DUP5 PUSH1 0x40 MLOAD DUP5 PUSH4 0xFFFFFFFF AND PUSH1 0xE0 SHL DUP2 MSTORE PUSH1 0x4 ADD PUSH2 0x1D20 SWAP4 SWAP3 SWAP2 SWAP1 PUSH2 0x2CDD JUMP JUMPDEST PUSH1 0x0 PUSH1 0x40 MLOAD DUP1 DUP4 SUB DUP2 PUSH1 0x0 DUP8 DUP1 EXTCODESIZE ISZERO DUP1 ISZERO PUSH2 0x1D3A JUMPI PUSH1 0x0 DUP1 REVERT JUMPDEST POP GAS CALL ISZERO DUP1 ISZERO PUSH2 0x1D4E JUMPI RETURNDATASIZE PUSH1 0x0 DUP1 RETURNDATACOPY RETURNDATASIZE PUSH1 0x0 REVERT JUMPDEST POP POP POP POP POP JUMP JUMPDEST PUSH1 0x0 DUP2 PUSH1 0x0 ADD SLOAD SWAP1 POP SWAP2 SWAP1 POP JUMP JUMPDEST PUSH1 0x1 DUP2 PUSH1 0x0 ADD PUSH1 0x0 DUP3 DUP3 SLOAD ADD SWAP3 POP POP DUP2 SWAP1 SSTORE POP POP JUMP JUMPDEST PUSH1 0x0 PUSH1 0xC PUSH1 0x0 SWAP1 SLOAD SWAP1 PUSH2 0x100 EXP SWAP1 DIV PUSH20 0xFFFFFFFFFFFFFFFFFFFFFFFFFFFFFFFFFFFFFFFF AND SWAP1 POP DUP2 PUSH1 0xC PUSH1 0x0 PUSH2 0x100 EXP DUP2 SLOAD DUP2 PUSH20 0xFFFFFFFFFFFFFFFFFFFFFFFFFFFFFFFFFFFFFFFF MUL NOT AND SWAP1 DUP4 PUSH20 0xFFFFFFFFFFFFFFFFFFFFFFFFFFFFFFFFFFFFFFFF AND MUL OR SWAP1 SSTORE POP DUP2 PUSH20 0xFFFFFFFFFFFFFFFFFFFFFFFFFFFFFFFFFFFFFFFF AND DUP2 PUSH20 0xFFFFFFFFFFFFFFFFFFFFFFFFFFFFFFFFFFFFFFFF AND PUSH32 0x8BE0079C531659141344CD1FD0A4F28419497F9722A3DAAFE3B4186F6B6457E0 PUSH1 0x40 MLOAD PUSH1 0x40 MLOAD DUP1 SWAP2 SUB SWAP1 LOG3 POP POP JUMP JUMPDEST PUSH1 0x9 PUSH1 0x0 SWAP1 SLOAD SWAP1 PUSH2 0x100 EXP SWAP1 DIV PUSH20 0xFFFFFFFFFFFFFFFFFFFFFFFFFFFFFFFFFFFFFFFF AND PUSH20 0xFFFFFFFFFFFFFFFFFFFFFFFFFFFFFFFFFFFFFFFF AND PUSH4 0x23B872DD CALLER PUSH1 0xF PUSH1 0x0 DUP8 DUP2 MSTORE PUSH1 0x20 ADD SWAP1 DUP2 MSTORE PUSH1 0x20 ADD PUSH1 0x0 KECCAK256 PUSH1 0x2 ADD PUSH1 0x0 SWAP1 SLOAD SWAP1 PUSH2 0x100 EXP SWAP1 DIV PUSH20 0xFFFFFFFFFFFFFFFFFFFFFFFFFFFFFFFFFFFFFFFF AND DUP6 PUSH1 0x40 MLOAD DUP5 PUSH4 0xFFFFFFFF AND PUSH1 0xE0 SHL DUP2 MSTORE PUSH1 0x4 ADD PUSH2 0x1ED4 SWAP4 SWAP3 SWAP2 SWAP1 PUSH2 0x2CDD JUMP JUMPDEST PUSH1 0x20 PUSH1 0x40 MLOAD DUP1 DUP4 SUB DUP2 PUSH1 0x0 DUP8 GAS CALL ISZERO DUP1 ISZERO PUSH2 0x1EF3 JUMPI RETURNDATASIZE PUSH1 0x0 DUP1 RETURNDATACOPY RETURNDATASIZE PUSH1 0x0 REVERT JUMPDEST POP POP POP POP PUSH1 0x40 MLOAD RETURNDATASIZE PUSH1 0x1F NOT PUSH1 0x1F DUP3 ADD AND DUP3 ADD DUP1 PUSH1 0x40 MSTORE POP DUP2 ADD SWAP1 PUSH2 0x1F17 SWAP2 SWAP1 PUSH2 0x3137 JUMP JUMPDEST POP PUSH1 0xA PUSH1 0x0 SWAP1 SLOAD SWAP1 PUSH2 0x100 EXP SWAP1 DIV PUSH20 0xFFFFFFFFFFFFFFFFFFFFFFFFFFFFFFFFFFFFFFFF AND PUSH20 0xFFFFFFFFFFFFFFFFFFFFFFFFFFFFFFFFFFFFFFFF AND PUSH4 0xC1E9518A CALLER ADDRESS DUP5 PUSH1 0x40 MLOAD DUP5 PUSH4 0xFFFFFFFF AND PUSH1 0xE0 SHL DUP2 MSTORE PUSH1 0x4 ADD PUSH2 0x1F77 SWAP4 SWAP3 SWAP2 SWAP1 PUSH2 0x2CDD JUMP JUMPDEST PUSH1 0x0 PUSH1 0x40 MLOAD DUP1 DUP4 SUB DUP2 PUSH1 0x0 DUP8 DUP1 EXTCODESIZE ISZERO DUP1 ISZERO PUSH2 0x1F91 JUMPI PUSH1 0x0 DUP1 REVERT JUMPDEST POP GAS CALL ISZERO DUP1 ISZERO PUSH2 0x1FA5 JUMPI RETURNDATASIZE PUSH1 0x0 DUP1 RETURNDATACOPY RETURNDATASIZE PUSH1 0x0 REVERT JUMPDEST POP POP POP POP PUSH1 0xB PUSH1 0x0 SWAP1 SLOAD SWAP1 PUSH2 0x100 EXP SWAP1 DIV PUSH20 0xFFFFFFFFFFFFFFFFFFFFFFFFFFFFFFFFFFFFFFFF AND PUSH20 0xFFFFFFFFFFFFFFFFFFFFFFFFFFFFFFFFFFFFFFFF AND PUSH4 0x23B872DD ADDRESS CALLER DUP5 PUSH1 0x40 MLOAD DUP5 PUSH4 0xFFFFFFFF AND PUSH1 0xE0 SHL DUP2 MSTORE PUSH1 0x4 ADD PUSH2 0x2008 SWAP4 SWAP3 SWAP2 SWAP1 PUSH2 0x2CDD JUMP JUMPDEST PUSH1 0x0 PUSH1 0x40 MLOAD DUP1 DUP4 SUB DUP2 PUSH1 0x0 DUP8 DUP1 EXTCODESIZE ISZERO DUP1 ISZERO PUSH2 0x2022 JUMPI PUSH1 0x0 DUP1 REVERT JUMPDEST POP GAS CALL ISZERO DUP1 ISZERO PUSH2 0x2036 JUMPI RETURNDATASIZE PUSH1 0x0 DUP1 RETURNDATACOPY RETURNDATASIZE PUSH1 0x0 REVERT JUMPDEST POP POP POP POP POP POP POP JUMP JUMPDEST PUSH1 0x40 MLOAD DUP1 PUSH1 0xA0 ADD PUSH1 0x40 MSTORE DUP1 PUSH1 0x0 DUP2 MSTORE PUSH1 0x20 ADD PUSH1 0x0 PUSH20 0xFFFFFFFFFFFFFFFFFFFFFFFFFFFFFFFFFFFFFFFF AND DUP2 MSTORE PUSH1 0x20 ADD PUSH1 0x60 DUP2 MSTORE PUSH1 0x20 ADD PUSH1 0x60 DUP2 MSTORE PUSH1 0x20 ADD PUSH1 0x0 ISZERO ISZERO DUP2 MSTORE POP SWAP1 JUMP JUMPDEST PUSH1 0x40 MLOAD DUP1 PUSH1 0xC0 ADD PUSH1 0x40 MSTORE DUP1 PUSH1 0x0 DUP2 MSTORE PUSH1 0x20 ADD PUSH1 0x0 DUP2 MSTORE PUSH1 0x20 ADD PUSH1 0x0 PUSH20 0xFFFFFFFFFFFFFFFFFFFFFFFFFFFFFFFFFFFFFFFF AND DUP2 MSTORE PUSH1 0x20 ADD PUSH1 0x0 PUSH20 0xFFFFFFFFFFFFFFFFFFFFFFFFFFFFFFFFFFFFFFFF AND DUP2 MSTORE PUSH1 0x20 ADD PUSH1 0x0 DUP2 MSTORE PUSH1 0x20 ADD PUSH1 0x0 PUSH1 0x1 DUP2 GT ISZERO PUSH2 0x20F4 JUMPI PUSH2 0x20F3 PUSH2 0x2314 JUMP JUMPDEST JUMPDEST DUP2 MSTORE POP SWAP1 JUMP JUMPDEST PUSH1 0x0 PUSH1 0x40 MLOAD SWAP1 POP SWAP1 JUMP JUMPDEST PUSH1 0x0 DUP1 REVERT JUMPDEST PUSH1 0x0 DUP1 REVERT JUMPDEST PUSH1 0x0 DUP2 SWAP1 POP SWAP2 SWAP1 POP JUMP JUMPDEST PUSH2 0x2121 DUP2 PUSH2 0x210E JUMP JUMPDEST DUP2 EQ PUSH2 0x212C JUMPI PUSH1 0x0 DUP1 REVERT JUMPDEST POP JUMP JUMPDEST PUSH1 0x0 DUP2 CALLDATALOAD SWAP1 POP PUSH2 0x213E DUP2 PUSH2 0x2118 JUMP JUMPDEST SWAP3 SWAP2 POP POP JUMP JUMPDEST PUSH1 0x0 PUSH1 0x20 DUP3 DUP5 SUB SLT ISZERO PUSH2 0x215A JUMPI PUSH2 0x2159 PUSH2 0x2104 JUMP JUMPDEST JUMPDEST PUSH1 0x0 PUSH2 0x2168 DUP5 DUP3 DUP6 ADD PUSH2 0x212F JUMP JUMPDEST SWAP2 POP POP SWAP3 SWAP2 POP POP JUMP JUMPDEST PUSH2 0x217A DUP2 PUSH2 0x210E JUMP JUMPDEST DUP3 MSTORE POP POP JUMP JUMPDEST PUSH1 0x0 PUSH20 0xFFFFFFFFFFFFFFFFFFFFFFFFFFFFFFFFFFFFFFFF DUP3 AND SWAP1 POP SWAP2 SWAP1 POP JUMP JUMPDEST PUSH1 0x0 PUSH2 0x21AB DUP3 PUSH2 0x2180 JUMP JUMPDEST SWAP1 POP SWAP2 SWAP1 POP JUMP JUMPDEST PUSH2 0x21BB DUP2 PUSH2 0x21A0 JUMP JUMPDEST DUP3 MSTORE POP POP JUMP JUMPDEST PUSH1 0x0 DUP2 MLOAD SWAP1 POP SWAP2 SWAP1 POP JUMP JUMPDEST PUSH1 0x0 DUP3 DUP3 MSTORE PUSH1 0x20 DUP3 ADD SWAP1 POP SWAP3 SWAP2 POP POP JUMP JUMPDEST PUSH1 0x0 JUMPDEST DUP4 DUP2 LT ISZERO PUSH2 0x21FB JUMPI DUP1 DUP3 ADD MLOAD DUP2 DUP5 ADD MSTORE PUSH1 0x20 DUP2 ADD SWAP1 POP PUSH2 0x21E0 JUMP JUMPDEST DUP4 DUP2 GT ISZERO PUSH2 0x220A JUMPI PUSH1 0x0 DUP5 DUP5 ADD MSTORE JUMPDEST POP POP POP POP JUMP JUMPDEST PUSH1 0x0 PUSH1 0x1F NOT PUSH1 0x1F DUP4 ADD AND SWAP1 POP SWAP2 SWAP1 POP JUMP JUMPDEST PUSH1 0x0 PUSH2 0x222C DUP3 PUSH2 0x21C1 JUMP JUMPDEST PUSH2 0x2236 DUP2 DUP6 PUSH2 0x21CC JUMP JUMPDEST SWAP4 POP PUSH2 0x2246 DUP2 DUP6 PUSH1 0x20 DUP7 ADD PUSH2 0x21DD JUMP JUMPDEST PUSH2 0x224F DUP2 PUSH2 0x2210 JUMP JUMPDEST DUP5 ADD SWAP2 POP POP SWAP3 SWAP2 POP POP JUMP JUMPDEST PUSH1 0x0 DUP2 ISZERO ISZERO SWAP1 POP SWAP2 SWAP1 POP JUMP JUMPDEST PUSH2 0x226F DUP2 PUSH2 0x225A JUMP JUMPDEST DUP3 MSTORE POP POP JUMP JUMPDEST PUSH1 0x0 PUSH1 0xA0 DUP4 ADD PUSH1 0x0 DUP4 ADD MLOAD PUSH2 0x228D PUSH1 0x0 DUP7 ADD DUP3 PUSH2 0x2171 JUMP JUMPDEST POP PUSH1 0x20 DUP4 ADD MLOAD PUSH2 0x22A0 PUSH1 0x20 DUP7 ADD DUP3 PUSH2 0x21B2 JUMP JUMPDEST POP PUSH1 0x40 DUP4 ADD MLOAD DUP5 DUP3 SUB PUSH1 0x40 DUP7 ADD MSTORE PUSH2 0x22B8 DUP3 DUP3 PUSH2 0x2221 JUMP JUMPDEST SWAP2 POP POP PUSH1 0x60 DUP4 ADD MLOAD DUP5 DUP3 SUB PUSH1 0x60 DUP7 ADD MSTORE PUSH2 0x22D2 DUP3 DUP3 PUSH2 0x2221 JUMP JUMPDEST SWAP2 POP POP PUSH1 0x80 DUP4 ADD MLOAD PUSH2 0x22E7 PUSH1 0x80 DUP7 ADD DUP3 PUSH2 0x2266 JUMP JUMPDEST POP DUP1 SWAP2 POP POP SWAP3 SWAP2 POP POP JUMP JUMPDEST PUSH1 0x0 PUSH1 0x20 DUP3 ADD SWAP1 POP DUP2 DUP2 SUB PUSH1 0x0 DUP4 ADD MSTORE PUSH2 0x230C DUP2 DUP5 PUSH2 0x2275 JUMP JUMPDEST SWAP1 POP SWAP3 SWAP2 POP POP JUMP JUMPDEST PUSH32 0x4E487B7100000000000000000000000000000000000000000000000000000000 PUSH1 0x0 MSTORE PUSH1 0x21 PUSH1 0x4 MSTORE PUSH1 0x24 PUSH1 0x0 REVERT JUMPDEST PUSH1 0x2 DUP2 LT PUSH2 0x2354 JUMPI PUSH2 0x2353 PUSH2 0x2314 JUMP JUMPDEST JUMPDEST POP JUMP JUMPDEST PUSH1 0x0 DUP2 SWAP1 POP PUSH2 0x2365 DUP3 PUSH2 0x2343 JUMP JUMPDEST SWAP2 SWAP1 POP JUMP JUMPDEST PUSH1 0x0 PUSH2 0x2375 DUP3 PUSH2 0x2357 JUMP JUMPDEST SWAP1 POP SWAP2 SWAP1 POP JUMP JUMPDEST PUSH2 0x2385 DUP2 PUSH2 0x236A JUMP JUMPDEST DUP3 MSTORE POP POP JUMP JUMPDEST PUSH1 0xC0 DUP3 ADD PUSH1 0x0 DUP3 ADD MLOAD PUSH2 0x23A1 PUSH1 0x0 DUP6 ADD DUP3 PUSH2 0x2171 JUMP JUMPDEST POP PUSH1 0x20 DUP3 ADD MLOAD PUSH2 0x23B4 PUSH1 0x20 DUP6 ADD DUP3 PUSH2 0x2171 JUMP JUMPDEST POP PUSH1 0x40 DUP3 ADD MLOAD PUSH2 0x23C7 PUSH1 0x40 DUP6 ADD DUP3 PUSH2 0x21B2 JUMP JUMPDEST POP PUSH1 0x60 DUP3 ADD MLOAD PUSH2 0x23DA PUSH1 0x60 DUP6 ADD DUP3 PUSH2 0x21B2 JUMP JUMPDEST POP PUSH1 0x80 DUP3 ADD MLOAD PUSH2 0x23ED PUSH1 0x80 DUP6 ADD DUP3 PUSH2 0x2171 JUMP JUMPDEST POP PUSH1 0xA0 DUP3 ADD MLOAD PUSH2 0x2400 PUSH1 0xA0 DUP6 ADD DUP3 PUSH2 0x237C JUMP JUMPDEST POP POP POP POP JUMP JUMPDEST PUSH1 0x0 PUSH1 0xC0 DUP3 ADD SWAP1 POP PUSH2 0x241B PUSH1 0x0 DUP4 ADD DUP5 PUSH2 0x238B JUMP JUMPDEST SWAP3 SWAP2 POP POP JUMP JUMPDEST PUSH2 0x242A DUP2 PUSH2 0x21A0 JUMP JUMPDEST DUP2 EQ PUSH2 0x2435 JUMPI PUSH1 0x0 DUP1 REVERT JUMPDEST POP JUMP JUMPDEST PUSH1 0x0 DUP2 CALLDATALOAD SWAP1 POP PUSH2 0x2447 DUP2 PUSH2 0x2421 JUMP JUMPDEST SWAP3 SWAP2 POP POP JUMP JUMPDEST PUSH1 0x0 PUSH1 0x20 DUP3 DUP5 SUB SLT ISZERO PUSH2 0x2463 JUMPI PUSH2 0x2462 PUSH2 0x2104 JUMP JUMPDEST JUMPDEST PUSH1 0x0 PUSH2 0x2471 DUP5 DUP3 DUP6 ADD PUSH2 0x2438 JUMP JUMPDEST SWAP2 POP POP SWAP3 SWAP2 POP POP JUMP JUMPDEST PUSH1 0x0 PUSH32 0xFFFFFFFF00000000000000000000000000000000000000000000000000000000 DUP3 AND SWAP1 POP SWAP2 SWAP1 POP JUMP JUMPDEST PUSH2 0x24AF DUP2 PUSH2 0x247A JUMP JUMPDEST DUP3 MSTORE POP POP JUMP JUMPDEST PUSH1 0x0 PUSH1 0x20 DUP3 ADD SWAP1 POP PUSH2 0x24CA PUSH1 0x0 DUP4 ADD DUP5 PUSH2 0x24A6 JUMP JUMPDEST SWAP3 SWAP2 POP POP JUMP JUMPDEST PUSH1 0x0 DUP1 PUSH1 0x40 DUP4 DUP6 SUB SLT ISZERO PUSH2 0x24E7 JUMPI PUSH2 0x24E6 PUSH2 0x2104 JUMP JUMPDEST JUMPDEST PUSH1 0x0 PUSH2 0x24F5 DUP6 DUP3 DUP7 ADD PUSH2 0x212F JUMP JUMPDEST SWAP3 POP POP PUSH1 0x20 PUSH2 0x2506 DUP6 DUP3 DUP7 ADD PUSH2 0x212F JUMP JUMPDEST SWAP2 POP POP SWAP3 POP SWAP3 SWAP1 POP JUMP JUMPDEST PUSH1 0x0 DUP2 SWAP1 POP SWAP2 SWAP1 POP JUMP JUMPDEST PUSH1 0x0 PUSH2 0x2535 PUSH2 0x2530 PUSH2 0x252B DUP5 PUSH2 0x2180 JUMP JUMPDEST PUSH2 0x2510 JUMP JUMPDEST PUSH2 0x2180 JUMP JUMPDEST SWAP1 POP SWAP2 SWAP1 POP JUMP JUMPDEST PUSH1 0x0 PUSH2 0x2547 DUP3 PUSH2 0x251A JUMP JUMPDEST SWAP1 POP SWAP2 SWAP1 POP JUMP JUMPDEST PUSH1 0x0 PUSH2 0x2559 DUP3 PUSH2 0x253C JUMP JUMPDEST SWAP1 POP SWAP2 SWAP1 POP JUMP JUMPDEST PUSH2 0x2569 DUP2 PUSH2 0x254E JUMP JUMPDEST DUP3 MSTORE POP POP JUMP JUMPDEST PUSH1 0x0 PUSH1 0x20 DUP3 ADD SWAP1 POP PUSH2 0x2584 PUSH1 0x0 DUP4 ADD DUP5 PUSH2 0x2560 JUMP JUMPDEST SWAP3 SWAP2 POP POP JUMP JUMPDEST PUSH2 0x2593 DUP2 PUSH2 0x210E JUMP JUMPDEST DUP3 MSTORE POP POP JUMP JUMPDEST PUSH2 0x25A2 DUP2 PUSH2 0x21A0 JUMP JUMPDEST DUP3 MSTORE POP POP JUMP JUMPDEST PUSH2 0x25B1 DUP2 PUSH2 0x236A JUMP JUMPDEST DUP3 MSTORE POP POP JUMP JUMPDEST PUSH1 0x0 PUSH1 0xC0 DUP3 ADD SWAP1 POP PUSH2 0x25CC PUSH1 0x0 DUP4 ADD DUP10 PUSH2 0x258A JUMP JUMPDEST PUSH2 0x25D9 PUSH1 0x20 DUP4 ADD DUP9 PUSH2 0x258A JUMP JUMPDEST PUSH2 0x25E6 PUSH1 0x40 DUP4 ADD DUP8 PUSH2 0x2599 JUMP JUMPDEST PUSH2 0x25F3 PUSH1 0x60 DUP4 ADD DUP7 PUSH2 0x2599 JUMP JUMPDEST PUSH2 0x2600 PUSH1 0x80 DUP4 ADD DUP6 PUSH2 0x258A JUMP JUMPDEST PUSH2 0x260D PUSH1 0xA0 DUP4 ADD DUP5 PUSH2 0x25A8 JUMP JUMPDEST SWAP8 SWAP7 POP POP POP POP POP POP POP JUMP JUMPDEST PUSH1 0x0 DUP1 PUSH1 0x40 DUP4 DUP6 SUB SLT ISZERO PUSH2 0x262F JUMPI PUSH2 0x262E PUSH2 0x2104 JUMP JUMPDEST JUMPDEST PUSH1 0x0 PUSH2 0x263D DUP6 DUP3 DUP7 ADD PUSH2 0x2438 JUMP JUMPDEST SWAP3 POP POP PUSH1 0x20 PUSH2 0x264E DUP6 DUP3 DUP7 ADD PUSH2 0x212F JUMP JUMPDEST SWAP2 POP POP SWAP3 POP SWAP3 SWAP1 POP JUMP JUMPDEST PUSH1 0x0 DUP2 MLOAD SWAP1 POP SWAP2 SWAP1 POP JUMP JUMPDEST PUSH1 0x0 DUP3 DUP3 MSTORE PUSH1 0x20 DUP3 ADD SWAP1 POP SWAP3 SWAP2 POP POP JUMP JUMPDEST PUSH1 0x0 DUP2 SWAP1 POP PUSH1 0x20 DUP3 ADD SWAP1 POP SWAP2 SWAP1 POP JUMP JUMPDEST PUSH1 0xC0 DUP3 ADD PUSH1 0x0 DUP3 ADD MLOAD PUSH2 0x269A PUSH1 0x0 DUP6 ADD DUP3 PUSH2 0x2171 JUMP JUMPDEST POP PUSH1 0x20 DUP3 ADD MLOAD PUSH2 0x26AD PUSH1 0x20 DUP6 ADD DUP3 PUSH2 0x2171 JUMP JUMPDEST POP PUSH1 0x40 DUP3 ADD MLOAD PUSH2 0x26C0 PUSH1 0x40 DUP6 ADD DUP3 PUSH2 0x21B2 JUMP JUMPDEST POP PUSH1 0x60 DUP3 ADD MLOAD PUSH2 0x26D3 PUSH1 0x60 DUP6 ADD DUP3 PUSH2 0x21B2 JUMP JUMPDEST POP PUSH1 0x80 DUP3 ADD MLOAD PUSH2 0x26E6 PUSH1 0x80 DUP6 ADD DUP3 PUSH2 0x2171 JUMP JUMPDEST POP PUSH1 0xA0 DUP3 ADD MLOAD PUSH2 0x26F9 PUSH1 0xA0 DUP6 ADD DUP3 PUSH2 0x237C JUMP JUMPDEST POP POP POP POP JUMP JUMPDEST PUSH1 0x0 PUSH2 0x270B DUP4 DUP4 PUSH2 0x2684 JUMP JUMPDEST PUSH1 0xC0 DUP4 ADD SWAP1 POP SWAP3 SWAP2 POP POP JUMP JUMPDEST PUSH1 0x0 PUSH1 0x20 DUP3 ADD SWAP1 POP SWAP2 SWAP1 POP JUMP JUMPDEST PUSH1 0x0 PUSH2 0x272F DUP3 PUSH2 0x2658 JUMP JUMPDEST PUSH2 0x2739 DUP2 DUP6 PUSH2 0x2663 JUMP JUMPDEST SWAP4 POP PUSH2 0x2744 DUP4 PUSH2 0x2674 JUMP JUMPDEST DUP1 PUSH1 0x0 JUMPDEST DUP4 DUP2 LT ISZERO PUSH2 0x2775 JUMPI DUP2 MLOAD PUSH2 0x275C DUP9 DUP3 PUSH2 0x26FF JUMP JUMPDEST SWAP8 POP PUSH2 0x2767 DUP4 PUSH2 0x2717 JUMP JUMPDEST SWAP3 POP POP PUSH1 0x1 DUP2 ADD SWAP1 POP PUSH2 0x2748 JUMP JUMPDEST POP DUP6 SWAP4 POP POP POP POP SWAP3 SWAP2 POP POP JUMP JUMPDEST PUSH1 0x0 PUSH1 0x20 DUP3 ADD SWAP1 POP DUP2 DUP2 SUB PUSH1 0x0 DUP4 ADD MSTORE PUSH2 0x279C DUP2 DUP5 PUSH2 0x2724 JUMP JUMPDEST SWAP1 POP SWAP3 SWAP2 POP POP JUMP JUMPDEST PUSH1 0x0 PUSH1 0xFF DUP3 AND SWAP1 POP SWAP2 SWAP1 POP JUMP JUMPDEST PUSH2 0x27BA DUP2 PUSH2 0x27A4 JUMP JUMPDEST DUP3 MSTORE POP POP JUMP JUMPDEST PUSH1 0x0 PUSH1 0x20 DUP3 ADD SWAP1 POP PUSH2 0x27D5 PUSH1 0x0 DUP4 ADD DUP5 PUSH2 0x27B1 JUMP JUMPDEST SWAP3 SWAP2 POP POP JUMP JUMPDEST PUSH1 0x0 PUSH1 0x20 DUP3 ADD SWAP1 POP PUSH2 0x27F0 PUSH1 0x0 DUP4 ADD DUP5 PUSH2 0x2599 JUMP JUMPDEST SWAP3 SWAP2 POP POP JUMP JUMPDEST PUSH1 0x0 PUSH2 0x2801 DUP3 PUSH2 0x253C JUMP JUMPDEST SWAP1 POP SWAP2 SWAP1 POP JUMP JUMPDEST PUSH2 0x2811 DUP2 PUSH2 0x27F6 JUMP JUMPDEST DUP3 MSTORE POP POP JUMP JUMPDEST PUSH1 0x0 PUSH1 0x20 DUP3 ADD SWAP1 POP PUSH2 0x282C PUSH1 0x0 DUP4 ADD DUP5 PUSH2 0x2808 JUMP JUMPDEST SWAP3 SWAP2 POP POP JUMP JUMPDEST PUSH1 0x0 PUSH1 0x20 DUP3 ADD SWAP1 POP PUSH2 0x2847 PUSH1 0x0 DUP4 ADD DUP5 PUSH2 0x258A JUMP JUMPDEST SWAP3 SWAP2 POP POP JUMP JUMPDEST PUSH1 0x0 PUSH2 0x2858 DUP3 PUSH2 0x253C JUMP JUMPDEST SWAP1 POP SWAP2 SWAP1 POP JUMP JUMPDEST PUSH2 0x2868 DUP2 PUSH2 0x284D JUMP JUMPDEST DUP3 MSTORE POP POP JUMP JUMPDEST PUSH1 0x0 PUSH1 0x20 DUP3 ADD SWAP1 POP PUSH2 0x2883 PUSH1 0x0 DUP4 ADD DUP5 PUSH2 0x285F JUMP JUMPDEST SWAP3 SWAP2 POP POP JUMP JUMPDEST PUSH1 0x0 DUP1 REVERT JUMPDEST PUSH32 0x4E487B7100000000000000000000000000000000000000000000000000000000 PUSH1 0x0 MSTORE PUSH1 0x41 PUSH1 0x4 MSTORE PUSH1 0x24 PUSH1 0x0 REVERT JUMPDEST PUSH2 0x28C6 DUP3 PUSH2 0x2210 JUMP JUMPDEST DUP2 ADD DUP2 DUP2 LT PUSH8 0xFFFFFFFFFFFFFFFF DUP3 GT OR ISZERO PUSH2 0x28E5 JUMPI PUSH2 0x28E4 PUSH2 0x288E JUMP JUMPDEST JUMPDEST DUP1 PUSH1 0x40 MSTORE POP POP POP JUMP JUMPDEST PUSH1 0x0 PUSH2 0x28F8 PUSH2 0x20FA JUMP JUMPDEST SWAP1 POP PUSH2 0x2904 DUP3 DUP3 PUSH2 0x28BD JUMP JUMPDEST SWAP2 SWAP1 POP JUMP JUMPDEST PUSH1 0x0 DUP1 REVERT JUMPDEST PUSH1 0x0 DUP2 MLOAD SWAP1 POP PUSH2 0x291D DUP2 PUSH2 0x2118 JUMP JUMPDEST SWAP3 SWAP2 POP POP JUMP JUMPDEST PUSH1 0x0 DUP2 MLOAD SWAP1 POP PUSH2 0x2932 DUP2 PUSH2 0x2421 JUMP JUMPDEST SWAP3 SWAP2 POP POP JUMP JUMPDEST PUSH1 0x0 DUP1 REVERT JUMPDEST PUSH1 0x0 DUP1 REVERT JUMPDEST PUSH1 0x0 PUSH8 0xFFFFFFFFFFFFFFFF DUP3 GT ISZERO PUSH2 0x295D JUMPI PUSH2 0x295C PUSH2 0x288E JUMP JUMPDEST JUMPDEST PUSH2 0x2966 DUP3 PUSH2 0x2210 JUMP JUMPDEST SWAP1 POP PUSH1 0x20 DUP2 ADD SWAP1 POP SWAP2 SWAP1 POP JUMP JUMPDEST PUSH1 0x0 PUSH2 0x2986 PUSH2 0x2981 DUP5 PUSH2 0x2942 JUMP JUMPDEST PUSH2 0x28EE JUMP JUMPDEST SWAP1 POP DUP3 DUP2 MSTORE PUSH1 0x20 DUP2 ADD DUP5 DUP5 DUP5 ADD GT ISZERO PUSH2 0x29A2 JUMPI PUSH2 0x29A1 PUSH2 0x293D JUMP JUMPDEST JUMPDEST PUSH2 0x29AD DUP5 DUP3 DUP6 PUSH2 0x21DD JUMP JUMPDEST POP SWAP4 SWAP3 POP POP POP JUMP JUMPDEST PUSH1 0x0 DUP3 PUSH1 0x1F DUP4 ADD SLT PUSH2 0x29CA JUMPI PUSH2 0x29C9 PUSH2 0x2938 JUMP JUMPDEST JUMPDEST DUP2 MLOAD PUSH2 0x29DA DUP5 DUP3 PUSH1 0x20 DUP7 ADD PUSH2 0x2973 JUMP JUMPDEST SWAP2 POP POP SWAP3 SWAP2 POP POP JUMP JUMPDEST PUSH2 0x29EC DUP2 PUSH2 0x225A JUMP JUMPDEST DUP2 EQ PUSH2 0x29F7 JUMPI PUSH1 0x0 DUP1 REVERT JUMPDEST POP JUMP JUMPDEST PUSH1 0x0 DUP2 MLOAD SWAP1 POP PUSH2 0x2A09 DUP2 PUSH2 0x29E3 JUMP JUMPDEST SWAP3 SWAP2 POP POP JUMP JUMPDEST PUSH1 0x0 PUSH1 0xA0 DUP3 DUP5 SUB SLT ISZERO PUSH2 0x2A25 JUMPI PUSH2 0x2A24 PUSH2 0x2889 JUMP JUMPDEST JUMPDEST PUSH2 0x2A2F PUSH1 0xA0 PUSH2 0x28EE JUMP JUMPDEST SWAP1 POP PUSH1 0x0 PUSH2 0x2A3F DUP5 DUP3 DUP6 ADD PUSH2 0x290E JUMP JUMPDEST PUSH1 0x0 DUP4 ADD MSTORE POP PUSH1 0x20 PUSH2 0x2A53 DUP5 DUP3 DUP6 ADD PUSH2 0x2923 JUMP JUMPDEST PUSH1 0x20 DUP4 ADD MSTORE POP PUSH1 0x40 DUP3 ADD MLOAD PUSH8 0xFFFFFFFFFFFFFFFF DUP2 GT ISZERO PUSH2 0x2A77 JUMPI PUSH2 0x2A76 PUSH2 0x2909 JUMP JUMPDEST JUMPDEST PUSH2 0x2A83 DUP5 DUP3 DUP6 ADD PUSH2 0x29B5 JUMP JUMPDEST PUSH1 0x40 DUP4 ADD MSTORE POP PUSH1 0x60 DUP3 ADD MLOAD PUSH8 0xFFFFFFFFFFFFFFFF DUP2 GT ISZERO PUSH2 0x2AA7 JUMPI PUSH2 0x2AA6 PUSH2 0x2909 JUMP JUMPDEST JUMPDEST PUSH2 0x2AB3 DUP5 DUP3 DUP6 ADD PUSH2 0x29B5 JUMP JUMPDEST PUSH1 0x60 DUP4 ADD MSTORE POP PUSH1 0x80 PUSH2 0x2AC7 DUP5 DUP3 DUP6 ADD PUSH2 0x29FA JUMP JUMPDEST PUSH1 0x80 DUP4 ADD MSTORE POP SWAP3 SWAP2 POP POP JUMP JUMPDEST PUSH1 0x0 PUSH1 0x20 DUP3 DUP5 SUB SLT ISZERO PUSH2 0x2AE9 JUMPI PUSH2 0x2AE8 PUSH2 0x2104 JUMP JUMPDEST JUMPDEST PUSH1 0x0 DUP3 ADD MLOAD PUSH8 0xFFFFFFFFFFFFFFFF DUP2 GT ISZERO PUSH2 0x2B07 JUMPI PUSH2 0x2B06 PUSH2 0x2109 JUMP JUMPDEST JUMPDEST PUSH2 0x2B13 DUP5 DUP3 DUP6 ADD PUSH2 0x2A0F JUMP JUMPDEST SWAP2 POP POP SWAP3 SWAP2 POP POP JUMP JUMPDEST PUSH1 0x0 DUP3 DUP3 MSTORE PUSH1 0x20 DUP3 ADD SWAP1 POP SWAP3 SWAP2 POP POP JUMP JUMPDEST PUSH32 0x4173736574206E6F74207075626C697368656400000000000000000000000000 PUSH1 0x0 DUP3 ADD MSTORE POP JUMP JUMPDEST PUSH1 0x0 PUSH2 0x2B63 PUSH1 0x13 DUP4 PUSH2 0x2B1C JUMP JUMPDEST SWAP2 POP PUSH2 0x2B6E DUP3 PUSH2 0x2B2D JUMP JUMPDEST PUSH1 0x20 DUP3 ADD SWAP1 POP SWAP2 SWAP1 POP JUMP JUMPDEST PUSH1 0x0 PUSH1 0x20 DUP3 ADD SWAP1 POP DUP2 DUP2 SUB PUSH1 0x0 DUP4 ADD MSTORE PUSH2 0x2B92 DUP2 PUSH2 0x2B56 JUMP JUMPDEST SWAP1 POP SWAP2 SWAP1 POP JUMP JUMPDEST PUSH32 0x41737365742064656C6973746564000000000000000000000000000000000000 PUSH1 0x0 DUP3 ADD MSTORE POP JUMP JUMPDEST PUSH1 0x0 PUSH2 0x2BCF PUSH1 0xE DUP4 PUSH2 0x2B1C JUMP JUMPDEST SWAP2 POP PUSH2 0x2BDA DUP3 PUSH2 0x2B99 JUMP JUMPDEST PUSH1 0x20 DUP3 ADD SWAP1 POP SWAP2 SWAP1 POP JUMP JUMPDEST PUSH1 0x0 PUSH1 0x20 DUP3 ADD SWAP1 POP DUP2 DUP2 SUB PUSH1 0x0 DUP4 ADD MSTORE PUSH2 0x2BFE DUP2 PUSH2 0x2BC2 JUMP JUMPDEST SWAP1 POP SWAP2 SWAP1 POP JUMP JUMPDEST PUSH32 0x496E76616C696420616464726573730000000000000000000000000000000000 PUSH1 0x0 DUP3 ADD MSTORE POP JUMP JUMPDEST PUSH1 0x0 PUSH2 0x2C3B PUSH1 0xF DUP4 PUSH2 0x2B1C JUMP JUMPDEST SWAP2 POP PUSH2 0x2C46 DUP3 PUSH2 0x2C05 JUMP JUMPDEST PUSH1 0x20 DUP3 ADD SWAP1 POP SWAP2 SWAP1 POP JUMP JUMPDEST PUSH1 0x0 PUSH1 0x20 DUP3 ADD SWAP1 POP DUP2 DUP2 SUB PUSH1 0x0 DUP4 ADD MSTORE PUSH2 0x2C6A DUP2 PUSH2 0x2C2E JUMP JUMPDEST SWAP1 POP SWAP2 SWAP1 POP JUMP JUMPDEST PUSH32 0x4F6E6C792073656C6C65722063616E2064656C69737400000000000000000000 PUSH1 0x0 DUP3 ADD MSTORE POP JUMP JUMPDEST PUSH1 0x0 PUSH2 0x2CA7 PUSH1 0x16 DUP4 PUSH2 0x2B1C JUMP JUMPDEST SWAP2 POP PUSH2 0x2CB2 DUP3 PUSH2 0x2C71 JUMP JUMPDEST PUSH1 0x20 DUP3 ADD SWAP1 POP SWAP2 SWAP1 POP JUMP JUMPDEST PUSH1 0x0 PUSH1 0x20 DUP3 ADD SWAP1 POP DUP2 DUP2 SUB PUSH1 0x0 DUP4 ADD MSTORE PUSH2 0x2CD6 DUP2 PUSH2 0x2C9A JUMP JUMPDEST SWAP1 POP SWAP2 SWAP1 POP JUMP JUMPDEST PUSH1 0x0 PUSH1 0x60 DUP3 ADD SWAP1 POP PUSH2 0x2CF2 PUSH1 0x0 DUP4 ADD DUP7 PUSH2 0x2599 JUMP JUMPDEST PUSH2 0x2CFF PUSH1 0x20 DUP4 ADD DUP6 PUSH2 0x2599 JUMP JUMPDEST PUSH2 0x2D0C PUSH1 0x40 DUP4 ADD DUP5 PUSH2 0x258A JUMP JUMPDEST SWAP5 SWAP4 POP POP POP POP JUMP JUMPDEST PUSH1 0x0 PUSH1 0x40 DUP3 ADD SWAP1 POP PUSH2 0x2D29 PUSH1 0x0 DUP4 ADD DUP6 PUSH2 0x258A JUMP JUMPDEST PUSH2 0x2D36 PUSH1 0x20 DUP4 ADD DUP5 PUSH2 0x258A JUMP JUMPDEST SWAP4 SWAP3 POP POP POP JUMP JUMPDEST PUSH32 0x4F776E61626C653A2063616C6C6572206973206E6F7420746865206F776E6572 PUSH1 0x0 DUP3 ADD MSTORE POP JUMP JUMPDEST PUSH1 0x0 PUSH2 0x2D73 PUSH1 0x20 DUP4 PUSH2 0x2B1C JUMP JUMPDEST SWAP2 POP PUSH2 0x2D7E DUP3 PUSH2 0x2D3D JUMP JUMPDEST PUSH1 0x20 DUP3 ADD SWAP1 POP SWAP2 SWAP1 POP JUMP JUMPDEST PUSH1 0x0 PUSH1 0x20 DUP3 ADD SWAP1 POP DUP2 DUP2 SUB PUSH1 0x0 DUP4 ADD MSTORE PUSH2 0x2DA2 DUP2 PUSH2 0x2D66 JUMP JUMPDEST SWAP1 POP SWAP2 SWAP1 POP JUMP JUMPDEST PUSH32 0x5072696365206D757374206265206174206C6561737420312077656900000000 PUSH1 0x0 DUP3 ADD MSTORE POP JUMP JUMPDEST PUSH1 0x0 PUSH2 0x2DDF PUSH1 0x1C DUP4 PUSH2 0x2B1C JUMP JUMPDEST SWAP2 POP PUSH2 0x2DEA DUP3 PUSH2 0x2DA9 JUMP JUMPDEST PUSH1 0x20 DUP3 ADD SWAP1 POP SWAP2 SWAP1 POP JUMP JUMPDEST PUSH1 0x0 PUSH1 0x20 DUP3 ADD SWAP1 POP DUP2 DUP2 SUB PUSH1 0x0 DUP4 ADD MSTORE PUSH2 0x2E0E DUP2 PUSH2 0x2DD2 JUMP JUMPDEST SWAP1 POP SWAP2 SWAP1 POP JUMP JUMPDEST PUSH32 0x4974656D206973206E6F7420617661696C61626C65206E6F7720210000000000 PUSH1 0x0 DUP3 ADD MSTORE POP JUMP JUMPDEST PUSH1 0x0 PUSH2 0x2E4B PUSH1 0x1B DUP4 PUSH2 0x2B1C JUMP JUMPDEST SWAP2 POP PUSH2 0x2E56 DUP3 PUSH2 0x2E15 JUMP JUMPDEST PUSH1 0x20 DUP3 ADD SWAP1 POP SWAP2 SWAP1 POP JUMP JUMPDEST PUSH1 0x0 PUSH1 0x20 DUP3 ADD SWAP1 POP DUP2 DUP2 SUB PUSH1 0x0 DUP4 ADD MSTORE PUSH2 0x2E7A DUP2 PUSH2 0x2E3E JUMP JUMPDEST SWAP1 POP SWAP2 SWAP1 POP JUMP JUMPDEST PUSH32 0x4E487B7100000000000000000000000000000000000000000000000000000000 PUSH1 0x0 MSTORE PUSH1 0x11 PUSH1 0x4 MSTORE PUSH1 0x24 PUSH1 0x0 REVERT JUMPDEST PUSH1 0x0 PUSH2 0x2EBB DUP3 PUSH2 0x210E JUMP JUMPDEST SWAP2 POP PUSH2 0x2EC6 DUP4 PUSH2 0x210E JUMP JUMPDEST SWAP3 POP DUP3 PUSH32 0xFFFFFFFFFFFFFFFFFFFFFFFFFFFFFFFFFFFFFFFFFFFFFFFFFFFFFFFFFFFFFFFF SUB DUP3 GT ISZERO PUSH2 0x2EFB JUMPI PUSH2 0x2EFA PUSH2 0x2E81 JUMP JUMPDEST JUMPDEST DUP3 DUP3 ADD SWAP1 POP SWAP3 SWAP2 POP POP JUMP JUMPDEST PUSH1 0x0 PUSH2 0x2F11 DUP3 PUSH2 0x210E JUMP JUMPDEST SWAP2 POP PUSH32 0xFFFFFFFFFFFFFFFFFFFFFFFFFFFFFFFFFFFFFFFFFFFFFFFFFFFFFFFFFFFFFFFF DUP3 SUB PUSH2 0x2F43 JUMPI PUSH2 0x2F42 PUSH2 0x2E81 JUMP JUMPDEST JUMPDEST PUSH1 0x1 DUP3 ADD SWAP1 POP SWAP2 SWAP1 POP JUMP JUMPDEST PUSH32 0x4E487B7100000000000000000000000000000000000000000000000000000000 PUSH1 0x0 MSTORE PUSH1 0x32 PUSH1 0x4 MSTORE PUSH1 0x24 PUSH1 0x0 REVERT JUMPDEST PUSH32 0x506C65617365207375626D6974207468652061736B696E672070726963652069 PUSH1 0x0 DUP3 ADD MSTORE PUSH32 0x6E206F7264657220746F20636F6D706C65746520746865207075726368617365 PUSH1 0x20 DUP3 ADD MSTORE POP JUMP JUMPDEST PUSH1 0x0 PUSH2 0x2FD9 PUSH1 0x40 DUP4 PUSH2 0x2B1C JUMP JUMPDEST SWAP2 POP PUSH2 0x2FE4 DUP3 PUSH2 0x2F7D JUMP JUMPDEST PUSH1 0x40 DUP3 ADD SWAP1 POP SWAP2 SWAP1 POP JUMP JUMPDEST PUSH1 0x0 PUSH1 0x20 DUP3 ADD SWAP1 POP DUP2 DUP2 SUB PUSH1 0x0 DUP4 ADD MSTORE PUSH2 0x3008 DUP2 PUSH2 0x2FCC JUMP JUMPDEST SWAP1 POP SWAP2 SWAP1 POP JUMP JUMPDEST PUSH32 0x5351460000000000000000000000000000000000000000000000000000000000 PUSH1 0x0 DUP3 ADD MSTORE POP JUMP JUMPDEST PUSH1 0x0 PUSH2 0x3045 PUSH1 0x3 DUP4 PUSH2 0x2B1C JUMP JUMPDEST SWAP2 POP PUSH2 0x3050 DUP3 PUSH2 0x300F JUMP JUMPDEST PUSH1 0x20 DUP3 ADD SWAP1 POP SWAP2 SWAP1 POP JUMP JUMPDEST PUSH1 0x0 PUSH1 0x80 DUP3 ADD SWAP1 POP PUSH2 0x3070 PUSH1 0x0 DUP4 ADD DUP7 PUSH2 0x258A JUMP JUMPDEST PUSH2 0x307D PUSH1 0x20 DUP4 ADD DUP6 PUSH2 0x258A JUMP JUMPDEST DUP2 DUP2 SUB PUSH1 0x40 DUP4 ADD MSTORE PUSH2 0x308E DUP2 PUSH2 0x3038 JUMP JUMPDEST SWAP1 POP PUSH2 0x309D PUSH1 0x60 DUP4 ADD DUP5 PUSH2 0x258A JUMP JUMPDEST SWAP5 SWAP4 POP POP POP POP JUMP JUMPDEST PUSH32 0x4F776E61626C653A206E6577206F776E657220697320746865207A65726F2061 PUSH1 0x0 DUP3 ADD MSTORE PUSH32 0x6464726573730000000000000000000000000000000000000000000000000000 PUSH1 0x20 DUP3 ADD MSTORE POP JUMP JUMPDEST PUSH1 0x0 PUSH2 0x3101 PUSH1 0x26 DUP4 PUSH2 0x2B1C JUMP JUMPDEST SWAP2 POP PUSH2 0x310C DUP3 PUSH2 0x30A5 JUMP JUMPDEST PUSH1 0x40 DUP3 ADD SWAP1 POP SWAP2 SWAP1 POP JUMP JUMPDEST PUSH1 0x0 PUSH1 0x20 DUP3 ADD SWAP1 POP DUP2 DUP2 SUB PUSH1 0x0 DUP4 ADD MSTORE PUSH2 0x3130 DUP2 PUSH2 0x30F4 JUMP JUMPDEST SWAP1 POP SWAP2 SWAP1 POP JUMP JUMPDEST PUSH1 0x0 PUSH1 0x20 DUP3 DUP5 SUB SLT ISZERO PUSH2 0x314D JUMPI PUSH2 0x314C PUSH2 0x2104 JUMP JUMPDEST JUMPDEST PUSH1 0x0 PUSH2 0x315B DUP5 DUP3 DUP6 ADD PUSH2 0x29FA JUMP JUMPDEST SWAP2 POP POP SWAP3 SWAP2 POP POP JUMP INVALID LOG2 PUSH5 0x6970667358 0x22 SLT KECCAK256 SELFDESTRUCT DUP9 0x2A SWAP12 PUSH5 0x9963298E69 0x4D 0xE 0xD8 0xB6 0xE9 EQ 0x2D EQ INVALID 0xA7 0xAD SHL CHAINID DUP5 0xE8 STATICCALL PUSH26 0x35DBE7E5DA64736F6C634300080D003300000000000000000000 "
				},
				"gasEstimates": {
					"creation": {
						"codeDepositCost": "2539600",
						"executionCost": "infinite",
						"totalCost": "infinite"
					},
					"external": {
						"ERC721_Interface()": "364",
						"allItems(uint256)": "infinite",
						"allMarketItems()": "infinite",
						"antaFeePercent()": "2654",
						"bnbFeePercent()": "2588",
						"createMarketItem(uint256,uint256)": "infinite",
						"createMarketSale(uint256,uint256)": "infinite",
						"currentId()": "2552",
						"delistItem(uint256)": "infinite",
						"factory()": "infinite",
						"fetchMarketItem(uint256)": "infinite",
						"fetchMarketItems()": "infinite",
						"fetchMySelling()": "infinite",
						"getIngameItem(uint256)": "infinite",
						"getMarketItem(uint256)": "infinite",
						"items(address,uint256)": "infinite",
						"mainNFTs()": "infinite",
						"mainToken()": "infinite",
						"owner()": "2611",
						"renounceOwnership()": "30419",
						"setFactory(address)": "27073",
						"setMainNFT(address)": "27052",
						"setMainToken(address)": "27074",
						"transferOwnership(address)": "30808"
					},
					"internal": {
						"_requireERC721(address)": "infinite",
						"_safeBuyItem(uint256,uint256,uint256)": "infinite",
						"_safeTransferToMarket(uint256)": "infinite",
						"isContract(address)": "infinite"
					}
				},
				"methodIdentifiers": {
					"ERC721_Interface()": "2b4c32be",
					"allItems(uint256)": "ff68fa6e",
					"allMarketItems()": "517bd451",
					"antaFeePercent()": "b7a60c7e",
					"bnbFeePercent()": "85a8b36c",
					"createMarketItem(uint256,uint256)": "361c1995",
					"createMarketSale(uint256,uint256)": "a1c11ca8",
					"currentId()": "e00dd161",
					"delistItem(uint256)": "10061631",
					"factory()": "c45a0155",
					"fetchMarketItem(uint256)": "2a45b250",
					"fetchMarketItems()": "0f08efe0",
					"fetchMySelling()": "673cf668",
					"getIngameItem(uint256)": "03ce1cb5",
					"getMarketItem(uint256)": "c7be7a49",
					"items(address,uint256)": "5c80a435",
					"mainNFTs()": "f55de0c7",
					"mainToken()": "3fc15f15",
					"owner()": "8da5cb5b",
					"renounceOwnership()": "715018a6",
					"setFactory(address)": "5bb47808",
					"setMainNFT(address)": "15b12494",
					"setMainToken(address)": "27ce464e",
					"transferOwnership(address)": "f2fde38b"
				}
			},
			"storageLayout": {
				"storage": [
					{
						"astId": 409,
						"contract": "contracts/Marketplace2/Marketplace.sol:NFTMarket",
						"label": "_status",
						"offset": 0,
						"slot": "0",
						"type": "t_uint256"
					},
					{
						"astId": 498,
						"contract": "contracts/Marketplace2/Marketplace.sol:NFTMarket",
						"label": "allMarketItems",
						"offset": 0,
						"slot": "1",
						"type": "t_struct(MarketItem)495_storage"
					},
					{
						"astId": 509,
						"contract": "contracts/Marketplace2/Marketplace.sol:NFTMarket",
						"label": "allItems",
						"offset": 0,
						"slot": "7",
						"type": "t_mapping(t_uint256,t_struct(MarketItem)495_storage)"
					},
					{
						"astId": 516,
						"contract": "contracts/Marketplace2/Marketplace.sol:NFTMarket",
						"label": "items",
						"offset": 0,
						"slot": "8",
						"type": "t_mapping(t_address,t_mapping(t_uint256,t_struct(MarketItem)495_storage))"
					},
					{
						"astId": 519,
						"contract": "contracts/Marketplace2/Marketplace.sol:NFTMarket",
						"label": "mainToken",
						"offset": 0,
						"slot": "9",
						"type": "t_contract(IERC20)201"
					},
					{
						"astId": 522,
						"contract": "contracts/Marketplace2/Marketplace.sol:NFTMarket",
						"label": "factory",
						"offset": 0,
						"slot": "10",
						"type": "t_contract(IFactory)477"
					},
					{
						"astId": 525,
						"contract": "contracts/Marketplace2/Marketplace.sol:NFTMarket",
						"label": "mainNFTs",
						"offset": 0,
						"slot": "11",
						"type": "t_contract(IERC721)326"
					},
					{
						"astId": 527,
						"contract": "contracts/Marketplace2/Marketplace.sol:NFTMarket",
						"label": "bnbFeePercent",
						"offset": 20,
						"slot": "11",
						"type": "t_uint8"
					},
					{
						"astId": 529,
						"contract": "contracts/Marketplace2/Marketplace.sol:NFTMarket",
						"label": "antaFeePercent",
						"offset": 21,
						"slot": "11",
						"type": "t_uint8"
					},
					{
						"astId": 27,
						"contract": "contracts/Marketplace2/Marketplace.sol:NFTMarket",
						"label": "_owner",
						"offset": 0,
						"slot": "12",
						"type": "t_address"
					},
					{
						"astId": 597,
						"contract": "contracts/Marketplace2/Marketplace.sol:NFTMarket",
						"label": "_itemIds",
						"offset": 0,
						"slot": "13",
						"type": "t_struct(Counter)331_storage"
					},
					{
						"astId": 600,
						"contract": "contracts/Marketplace2/Marketplace.sol:NFTMarket",
						"label": "_itemsSold",
						"offset": 0,
						"slot": "14",
						"type": "t_struct(Counter)331_storage"
					},
					{
						"astId": 605,
						"contract": "contracts/Marketplace2/Marketplace.sol:NFTMarket",
						"label": "idToMarketItem",
						"offset": 0,
						"slot": "15",
						"type": "t_mapping(t_uint256,t_struct(MarketItem)495_storage)"
					}
				],
				"types": {
					"t_address": {
						"encoding": "inplace",
						"label": "address",
						"numberOfBytes": "20"
					},
					"t_contract(IERC20)201": {
						"encoding": "inplace",
						"label": "contract IERC20",
						"numberOfBytes": "20"
					},
					"t_contract(IERC721)326": {
						"encoding": "inplace",
						"label": "contract IERC721",
						"numberOfBytes": "20"
					},
					"t_contract(IFactory)477": {
						"encoding": "inplace",
						"label": "contract IFactory",
						"numberOfBytes": "20"
					},
					"t_enum(ItemStatus)481": {
						"encoding": "inplace",
						"label": "enum MarketplaceStorage.ItemStatus",
						"numberOfBytes": "1"
					},
					"t_mapping(t_address,t_mapping(t_uint256,t_struct(MarketItem)495_storage))": {
						"encoding": "mapping",
						"key": "t_address",
						"label": "mapping(address => mapping(uint256 => struct MarketplaceStorage.MarketItem))",
						"numberOfBytes": "32",
						"value": "t_mapping(t_uint256,t_struct(MarketItem)495_storage)"
					},
					"t_mapping(t_uint256,t_struct(MarketItem)495_storage)": {
						"encoding": "mapping",
						"key": "t_uint256",
						"label": "mapping(uint256 => struct MarketplaceStorage.MarketItem)",
						"numberOfBytes": "32",
						"value": "t_struct(MarketItem)495_storage"
					},
					"t_struct(Counter)331_storage": {
						"encoding": "inplace",
						"label": "struct Counters.Counter",
						"members": [
							{
								"astId": 330,
								"contract": "contracts/Marketplace2/Marketplace.sol:NFTMarket",
								"label": "_value",
								"offset": 0,
								"slot": "0",
								"type": "t_uint256"
							}
						],
						"numberOfBytes": "32"
					},
					"t_struct(MarketItem)495_storage": {
						"encoding": "inplace",
						"label": "struct MarketplaceStorage.MarketItem",
						"members": [
							{
								"astId": 483,
								"contract": "contracts/Marketplace2/Marketplace.sol:NFTMarket",
								"label": "itemId",
								"offset": 0,
								"slot": "0",
								"type": "t_uint256"
							},
							{
								"astId": 485,
								"contract": "contracts/Marketplace2/Marketplace.sol:NFTMarket",
								"label": "tokenId",
								"offset": 0,
								"slot": "1",
								"type": "t_uint256"
							},
							{
								"astId": 487,
								"contract": "contracts/Marketplace2/Marketplace.sol:NFTMarket",
								"label": "seller",
								"offset": 0,
								"slot": "2",
								"type": "t_address"
							},
							{
								"astId": 489,
								"contract": "contracts/Marketplace2/Marketplace.sol:NFTMarket",
								"label": "owner",
								"offset": 0,
								"slot": "3",
								"type": "t_address"
							},
							{
								"astId": 491,
								"contract": "contracts/Marketplace2/Marketplace.sol:NFTMarket",
								"label": "price",
								"offset": 0,
								"slot": "4",
								"type": "t_uint256"
							},
							{
								"astId": 494,
								"contract": "contracts/Marketplace2/Marketplace.sol:NFTMarket",
								"label": "status",
								"offset": 0,
								"slot": "5",
								"type": "t_enum(ItemStatus)481"
							}
						],
						"numberOfBytes": "192"
					},
					"t_uint256": {
						"encoding": "inplace",
						"label": "uint256",
						"numberOfBytes": "32"
					},
					"t_uint8": {
						"encoding": "inplace",
						"label": "uint8",
						"numberOfBytes": "1"
					}
				}
			},
			"userdoc": {
				"kind": "user",
				"methods": {},
				"version": 1
			}
		}
	}
}