{
	"contracts/Marketplace2/Marketplace.sol": {
		"NFTMarket": {
			"abi": [
				{
					"inputs": [
						{
							"internalType": "address",
							"name": "_mainToken",
							"type": "address"
						},
						{
							"internalType": "address",
							"name": "_mainNFT",
							"type": "address"
						},
						{
							"internalType": "address",
							"name": "_mainFactory",
							"type": "address"
						}
					],
					"stateMutability": "payable",
					"type": "constructor"
				},
				{
					"anonymous": false,
					"inputs": [
						{
							"indexed": false,
							"internalType": "uint256",
							"name": "itemId",
							"type": "uint256"
						},
						{
							"indexed": true,
							"internalType": "uint256",
							"name": "tokenId",
							"type": "uint256"
						},
						{
							"indexed": true,
							"internalType": "address",
							"name": "seller",
							"type": "address"
						},
						{
							"indexed": false,
							"internalType": "uint256",
							"name": "price",
							"type": "uint256"
						},
						{
							"indexed": true,
							"internalType": "address",
							"name": "buyer",
							"type": "address"
						},
						{
							"indexed": false,
							"internalType": "string",
							"name": "currency",
							"type": "string"
						},
						{
							"indexed": false,
							"internalType": "uint256",
							"name": "createdAt",
							"type": "uint256"
						}
					],
					"name": "BuyItemSuccessful",
					"type": "event"
				},
				{
					"anonymous": false,
					"inputs": [
						{
							"indexed": false,
							"internalType": "uint256",
							"name": "id",
							"type": "uint256"
						},
						{
							"indexed": true,
							"internalType": "uint256",
							"name": "assetId",
							"type": "uint256"
						},
						{
							"indexed": true,
							"internalType": "address",
							"name": "delistBy",
							"type": "address"
						},
						{
							"indexed": false,
							"internalType": "uint256",
							"name": "createdAt",
							"type": "uint256"
						}
					],
					"name": "DelistItemSuccessful",
					"type": "event"
				},
				{
					"anonymous": false,
					"inputs": [
						{
							"indexed": true,
							"internalType": "uint256",
							"name": "itemId",
							"type": "uint256"
						},
						{
							"indexed": true,
							"internalType": "uint256",
							"name": "tokenId",
							"type": "uint256"
						},
						{
							"indexed": false,
							"internalType": "address",
							"name": "seller",
							"type": "address"
						},
						{
							"indexed": false,
							"internalType": "address",
							"name": "owner",
							"type": "address"
						},
						{
							"indexed": false,
							"internalType": "uint256",
							"name": "price",
							"type": "uint256"
						}
					],
					"name": "MarketItemCreated",
					"type": "event"
				},
				{
					"anonymous": false,
					"inputs": [
						{
							"indexed": true,
							"internalType": "address",
							"name": "previousOwner",
							"type": "address"
						},
						{
							"indexed": true,
							"internalType": "address",
							"name": "newOwner",
							"type": "address"
						}
					],
					"name": "OwnershipTransferred",
					"type": "event"
				},
				{
					"anonymous": false,
					"inputs": [
						{
							"indexed": false,
							"internalType": "address",
							"name": "nftAddress",
							"type": "address"
						},
						{
							"indexed": false,
							"internalType": "bytes32",
							"name": "id",
							"type": "bytes32"
						},
						{
							"indexed": true,
							"internalType": "uint256",
							"name": "assetId",
							"type": "uint256"
						},
						{
							"indexed": false,
							"internalType": "uint256",
							"name": "price",
							"type": "uint256"
						},
						{
							"indexed": true,
							"internalType": "address",
							"name": "seller",
							"type": "address"
						},
						{
							"indexed": false,
							"internalType": "string",
							"name": "currency",
							"type": "string"
						},
						{
							"indexed": false,
							"internalType": "uint256",
							"name": "createdAt",
							"type": "uint256"
						}
					],
					"name": "SellItemSuccessful",
					"type": "event"
				},
				{
					"inputs": [],
					"name": "ERC721_Interface",
					"outputs": [
						{
							"internalType": "bytes4",
							"name": "",
							"type": "bytes4"
						}
					],
					"stateMutability": "view",
					"type": "function"
				},
				{
					"inputs": [
						{
							"internalType": "uint256",
							"name": "",
							"type": "uint256"
						}
					],
					"name": "allItems",
					"outputs": [
						{
							"internalType": "uint256",
							"name": "itemId",
							"type": "uint256"
						},
						{
							"internalType": "uint256",
							"name": "tokenId",
							"type": "uint256"
						},
						{
							"internalType": "address",
							"name": "seller",
							"type": "address"
						},
						{
							"internalType": "address",
							"name": "owner",
							"type": "address"
						},
						{
							"internalType": "uint256",
							"name": "price",
							"type": "uint256"
						},
						{
							"internalType": "enum MarketplaceStorage.ItemStatus",
							"name": "status",
							"type": "uint8"
						}
					],
					"stateMutability": "view",
					"type": "function"
				},
				{
					"inputs": [],
					"name": "allMarketItems",
					"outputs": [
						{
							"internalType": "uint256",
							"name": "itemId",
							"type": "uint256"
						},
						{
							"internalType": "uint256",
							"name": "tokenId",
							"type": "uint256"
						},
						{
							"internalType": "address",
							"name": "seller",
							"type": "address"
						},
						{
							"internalType": "address",
							"name": "owner",
							"type": "address"
						},
						{
							"internalType": "uint256",
							"name": "price",
							"type": "uint256"
						},
						{
							"internalType": "enum MarketplaceStorage.ItemStatus",
							"name": "status",
							"type": "uint8"
						}
					],
					"stateMutability": "view",
					"type": "function"
				},
				{
					"inputs": [],
					"name": "antaFeePercent",
					"outputs": [
						{
							"internalType": "uint8",
							"name": "",
							"type": "uint8"
						}
					],
					"stateMutability": "view",
					"type": "function"
				},
				{
					"inputs": [],
					"name": "bnbFeePercent",
					"outputs": [
						{
							"internalType": "uint8",
							"name": "",
							"type": "uint8"
						}
					],
					"stateMutability": "view",
					"type": "function"
				},
				{
					"inputs": [
						{
							"internalType": "uint256",
							"name": "tokenId",
							"type": "uint256"
						},
						{
							"internalType": "uint256",
							"name": "price",
							"type": "uint256"
						}
					],
					"name": "createMarketItem",
					"outputs": [],
					"stateMutability": "payable",
					"type": "function"
				},
				{
					"inputs": [
						{
							"internalType": "uint256",
							"name": "itemId",
							"type": "uint256"
						},
						{
							"internalType": "uint256",
							"name": "amount",
							"type": "uint256"
						}
					],
					"name": "createMarketSale",
					"outputs": [],
					"stateMutability": "nonpayable",
					"type": "function"
				},
				{
					"inputs": [
						{
							"internalType": "uint256",
							"name": "itemId",
							"type": "uint256"
						}
					],
					"name": "delistItem",
					"outputs": [],
					"stateMutability": "nonpayable",
					"type": "function"
				},
				{
					"inputs": [],
					"name": "factory",
					"outputs": [
						{
							"internalType": "contract IFactory",
							"name": "",
							"type": "address"
						}
					],
					"stateMutability": "view",
					"type": "function"
				},
				{
					"inputs": [
						{
							"internalType": "uint256",
							"name": "marketItemId",
							"type": "uint256"
						}
					],
					"name": "getMarketItem",
					"outputs": [
						{
							"components": [
								{
									"internalType": "uint256",
									"name": "itemId",
									"type": "uint256"
								},
								{
									"internalType": "uint256",
									"name": "tokenId",
									"type": "uint256"
								},
								{
									"internalType": "address",
									"name": "seller",
									"type": "address"
								},
								{
									"internalType": "address",
									"name": "owner",
									"type": "address"
								},
								{
									"internalType": "uint256",
									"name": "price",
									"type": "uint256"
								},
								{
									"internalType": "enum MarketplaceStorage.ItemStatus",
									"name": "status",
									"type": "uint8"
								}
							],
							"internalType": "struct MarketplaceStorage.MarketItem",
							"name": "",
							"type": "tuple"
						}
					],
					"stateMutability": "view",
					"type": "function"
				},
				{
					"inputs": [
						{
							"internalType": "address",
							"name": "",
							"type": "address"
						},
						{
							"internalType": "uint256",
							"name": "",
							"type": "uint256"
						}
					],
					"name": "items",
					"outputs": [
						{
							"internalType": "uint256",
							"name": "itemId",
							"type": "uint256"
						},
						{
							"internalType": "uint256",
							"name": "tokenId",
							"type": "uint256"
						},
						{
							"internalType": "address",
							"name": "seller",
							"type": "address"
						},
						{
							"internalType": "address",
							"name": "owner",
							"type": "address"
						},
						{
							"internalType": "uint256",
							"name": "price",
							"type": "uint256"
						},
						{
							"internalType": "enum MarketplaceStorage.ItemStatus",
							"name": "status",
							"type": "uint8"
						}
					],
					"stateMutability": "view",
					"type": "function"
				},
				{
					"inputs": [],
					"name": "mainNFTs",
					"outputs": [
						{
							"internalType": "contract IERC721",
							"name": "",
							"type": "address"
						}
					],
					"stateMutability": "view",
					"type": "function"
				},
				{
					"inputs": [],
					"name": "mainToken",
					"outputs": [
						{
							"internalType": "contract IERC20",
							"name": "",
							"type": "address"
						}
					],
					"stateMutability": "view",
					"type": "function"
				},
				{
					"inputs": [],
					"name": "owner",
					"outputs": [
						{
							"internalType": "address",
							"name": "",
							"type": "address"
						}
					],
					"stateMutability": "view",
					"type": "function"
				},
				{
					"inputs": [],
					"name": "renounceOwnership",
					"outputs": [],
					"stateMutability": "nonpayable",
					"type": "function"
				},
				{
					"inputs": [
						{
							"internalType": "address",
							"name": "_address",
							"type": "address"
						}
					],
					"name": "setFactory",
					"outputs": [],
					"stateMutability": "nonpayable",
					"type": "function"
				},
				{
					"inputs": [
						{
							"internalType": "address",
							"name": "_address",
							"type": "address"
						}
					],
					"name": "setMainNFT",
					"outputs": [],
					"stateMutability": "nonpayable",
					"type": "function"
				},
				{
					"inputs": [
						{
							"internalType": "address",
							"name": "_address",
							"type": "address"
						}
					],
					"name": "setMainToken",
					"outputs": [],
					"stateMutability": "nonpayable",
					"type": "function"
				},
				{
					"inputs": [
						{
							"internalType": "address",
							"name": "newOwner",
							"type": "address"
						}
					],
					"name": "transferOwnership",
					"outputs": [],
					"stateMutability": "nonpayable",
					"type": "function"
				}
			],
			"devdoc": {
				"kind": "dev",
				"methods": {
					"owner()": {
						"details": "Returns the address of the current owner."
					},
					"renounceOwnership()": {
						"details": "Leaves the contract without owner. It will not be possible to call `onlyOwner` functions anymore. Can only be called by the current owner. NOTE: Renouncing ownership will leave the contract without an owner, thereby removing any functionality that is only available to the owner."
					},
					"transferOwnership(address)": {
						"details": "Transfers ownership of the contract to a new account (`newOwner`). Can only be called by the current owner."
					}
				},
				"version": 1
			},
			"evm": {
				"assembly": "    /* \"contracts/Marketplace2/Marketplace.sol\":17148:21563  contract NFTMarket is ReentrancyGuard,MarketplaceStorage, Ownable {... */\n  mstore(0x40, 0x80)\n    /* \"contracts/Marketplace2/Marketplace.sol\":17394:17596  constructor(address _mainToken, address _mainNFT, address _mainFactory ) payable {... */\n  mload(0x40)\n  sub(codesize, bytecodeSize)\n  dup1\n  bytecodeSize\n  dup4\n  codecopy\n  dup2\n  dup2\n  add\n  0x40\n  mstore\n  dup2\n  add\n  swap1\n  tag_1\n  swap2\n  swap1\n  tag_2\n  jump\t// in\ntag_1:\n    /* \"contracts/Marketplace2/Marketplace.sol\":14122:14123  1 */\n  0x01\n    /* \"contracts/Marketplace2/Marketplace.sol\":14227:14234  _status */\n  0x00\n    /* \"contracts/Marketplace2/Marketplace.sol\":14227:14249  _status = _NOT_ENTERED */\n  dup2\n  swap1\n  sstore\n  pop\n    /* \"contracts/Marketplace2/Marketplace.sol\":1561:1593  _transferOwnership(_msgSender()) */\n  tag_8\n    /* \"contracts/Marketplace2/Marketplace.sol\":1580:1592  _msgSender() */\n  tag_9\n    /* \"contracts/Marketplace2/Marketplace.sol\":1580:1590  _msgSender */\n  shl(0x20, tag_10)\n    /* \"contracts/Marketplace2/Marketplace.sol\":1580:1592  _msgSender() */\n  0x20\n  shr\n  jump\t// in\ntag_9:\n    /* \"contracts/Marketplace2/Marketplace.sol\":1561:1579  _transferOwnership */\n  shl(0x20, tag_11)\n    /* \"contracts/Marketplace2/Marketplace.sol\":1561:1593  _transferOwnership(_msgSender()) */\n  0x20\n  shr\n  jump\t// in\ntag_8:\n    /* \"contracts/Marketplace2/Marketplace.sol\":17502:17512  _mainToken */\n  dup3\n    /* \"contracts/Marketplace2/Marketplace.sol\":17483:17492  mainToken */\n  0x09\n  0x00\n    /* \"contracts/Marketplace2/Marketplace.sol\":17483:17513  mainToken = IERC20(_mainToken) */\n  0x0100\n  exp\n  dup2\n  sload\n  dup2\n  0xffffffffffffffffffffffffffffffffffffffff\n  mul\n  not\n  and\n  swap1\n  dup4\n  0xffffffffffffffffffffffffffffffffffffffff\n  and\n  mul\n  or\n  swap1\n  sstore\n  pop\n    /* \"contracts/Marketplace2/Marketplace.sol\":17540:17548  _mainNFT */\n  dup2\n    /* \"contracts/Marketplace2/Marketplace.sol\":17521:17529  mainNFTs */\n  0x0b\n  0x00\n    /* \"contracts/Marketplace2/Marketplace.sol\":17521:17549  mainNFTs = IERC721(_mainNFT) */\n  0x0100\n  exp\n  dup2\n  sload\n  dup2\n  0xffffffffffffffffffffffffffffffffffffffff\n  mul\n  not\n  and\n  swap1\n  dup4\n  0xffffffffffffffffffffffffffffffffffffffff\n  and\n  mul\n  or\n  swap1\n  sstore\n  pop\n    /* \"contracts/Marketplace2/Marketplace.sol\":17576:17588  _mainFactory */\n  dup1\n    /* \"contracts/Marketplace2/Marketplace.sol\":17557:17564  factory */\n  0x0a\n  0x00\n    /* \"contracts/Marketplace2/Marketplace.sol\":17557:17589  factory = IFactory(_mainFactory) */\n  0x0100\n  exp\n  dup2\n  sload\n  dup2\n  0xffffffffffffffffffffffffffffffffffffffff\n  mul\n  not\n  and\n  swap1\n  dup4\n  0xffffffffffffffffffffffffffffffffffffffff\n  and\n  mul\n  or\n  swap1\n  sstore\n  pop\n    /* \"contracts/Marketplace2/Marketplace.sol\":17394:17596  constructor(address _mainToken, address _mainNFT, address _mainFactory ) payable {... */\n  pop\n  pop\n  pop\n    /* \"contracts/Marketplace2/Marketplace.sol\":17148:21563  contract NFTMarket is ReentrancyGuard,MarketplaceStorage, Ownable {... */\n  jump(tag_13)\n    /* \"contracts/Marketplace2/Marketplace.sol\":554:650  function _msgSender() internal view virtual returns (address) {... */\ntag_10:\n    /* \"contracts/Marketplace2/Marketplace.sol\":607:614  address */\n  0x00\n    /* \"contracts/Marketplace2/Marketplace.sol\":633:643  msg.sender */\n  caller\n    /* \"contracts/Marketplace2/Marketplace.sol\":626:643  return msg.sender */\n  swap1\n  pop\n    /* \"contracts/Marketplace2/Marketplace.sol\":554:650  function _msgSender() internal view virtual returns (address) {... */\n  swap1\n  jump\t// out\n    /* \"contracts/Marketplace2/Marketplace.sol\":2910:3097  function _transferOwnership(address newOwner) internal virtual {... */\ntag_11:\n    /* \"contracts/Marketplace2/Marketplace.sol\":2983:2999  address oldOwner */\n  0x00\n    /* \"contracts/Marketplace2/Marketplace.sol\":3002:3008  _owner */\n  0x0c\n  0x00\n  swap1\n  sload\n  swap1\n  0x0100\n  exp\n  swap1\n  div\n  0xffffffffffffffffffffffffffffffffffffffff\n  and\n    /* \"contracts/Marketplace2/Marketplace.sol\":2983:3008  address oldOwner = _owner */\n  swap1\n  pop\n    /* \"contracts/Marketplace2/Marketplace.sol\":3027:3035  newOwner */\n  dup2\n    /* \"contracts/Marketplace2/Marketplace.sol\":3018:3024  _owner */\n  0x0c\n  0x00\n    /* \"contracts/Marketplace2/Marketplace.sol\":3018:3035  _owner = newOwner */\n  0x0100\n  exp\n  dup2\n  sload\n  dup2\n  0xffffffffffffffffffffffffffffffffffffffff\n  mul\n  not\n  and\n  swap1\n  dup4\n  0xffffffffffffffffffffffffffffffffffffffff\n  and\n  mul\n  or\n  swap1\n  sstore\n  pop\n    /* \"contracts/Marketplace2/Marketplace.sol\":3081:3089  newOwner */\n  dup2\n    /* \"contracts/Marketplace2/Marketplace.sol\":3050:3090  OwnershipTransferred(oldOwner, newOwner) */\n  0xffffffffffffffffffffffffffffffffffffffff\n  and\n    /* \"contracts/Marketplace2/Marketplace.sol\":3071:3079  oldOwner */\n  dup2\n    /* \"contracts/Marketplace2/Marketplace.sol\":3050:3090  OwnershipTransferred(oldOwner, newOwner) */\n  0xffffffffffffffffffffffffffffffffffffffff\n  and\n  0x8be0079c531659141344cd1fd0a4f28419497f9722a3daafe3b4186f6b6457e0\n  mload(0x40)\n  mload(0x40)\n  dup1\n  swap2\n  sub\n  swap1\n  log3\n    /* \"contracts/Marketplace2/Marketplace.sol\":2973:3097  {... */\n  pop\n    /* \"contracts/Marketplace2/Marketplace.sol\":2910:3097  function _transferOwnership(address newOwner) internal virtual {... */\n  pop\n  jump\t// out\n    /* \"#utility.yul\":88:205   */\ntag_17:\n    /* \"#utility.yul\":197:198   */\n  0x00\n    /* \"#utility.yul\":194:195   */\n  dup1\n    /* \"#utility.yul\":187:199   */\n  revert\n    /* \"#utility.yul\":334:460   */\ntag_19:\n    /* \"#utility.yul\":371:378   */\n  0x00\n    /* \"#utility.yul\":411:453   */\n  0xffffffffffffffffffffffffffffffffffffffff\n    /* \"#utility.yul\":404:409   */\n  dup3\n    /* \"#utility.yul\":400:454   */\n  and\n    /* \"#utility.yul\":389:454   */\n  swap1\n  pop\n    /* \"#utility.yul\":334:460   */\n  swap2\n  swap1\n  pop\n  jump\t// out\n    /* \"#utility.yul\":466:562   */\ntag_20:\n    /* \"#utility.yul\":503:510   */\n  0x00\n    /* \"#utility.yul\":532:556   */\n  tag_29\n    /* \"#utility.yul\":550:555   */\n  dup3\n    /* \"#utility.yul\":532:556   */\n  tag_19\n  jump\t// in\ntag_29:\n    /* \"#utility.yul\":521:556   */\n  swap1\n  pop\n    /* \"#utility.yul\":466:562   */\n  swap2\n  swap1\n  pop\n  jump\t// out\n    /* \"#utility.yul\":568:690   */\ntag_21:\n    /* \"#utility.yul\":641:665   */\n  tag_31\n    /* \"#utility.yul\":659:664   */\n  dup2\n    /* \"#utility.yul\":641:665   */\n  tag_20\n  jump\t// in\ntag_31:\n    /* \"#utility.yul\":634:639   */\n  dup2\n    /* \"#utility.yul\":631:666   */\n  eq\n    /* \"#utility.yul\":621:684   */\n  tag_32\n  jumpi\n    /* \"#utility.yul\":680:681   */\n  0x00\n    /* \"#utility.yul\":677:678   */\n  dup1\n    /* \"#utility.yul\":670:682   */\n  revert\n    /* \"#utility.yul\":621:684   */\ntag_32:\n    /* \"#utility.yul\":568:690   */\n  pop\n  jump\t// out\n    /* \"#utility.yul\":696:839   */\ntag_22:\n    /* \"#utility.yul\":753:758   */\n  0x00\n    /* \"#utility.yul\":784:790   */\n  dup2\n    /* \"#utility.yul\":778:791   */\n  mload\n    /* \"#utility.yul\":769:791   */\n  swap1\n  pop\n    /* \"#utility.yul\":800:833   */\n  tag_34\n    /* \"#utility.yul\":827:832   */\n  dup2\n    /* \"#utility.yul\":800:833   */\n  tag_21\n  jump\t// in\ntag_34:\n    /* \"#utility.yul\":696:839   */\n  swap3\n  swap2\n  pop\n  pop\n  jump\t// out\n    /* \"#utility.yul\":845:1508   */\ntag_2:\n    /* \"#utility.yul\":933:939   */\n  0x00\n    /* \"#utility.yul\":941:947   */\n  dup1\n    /* \"#utility.yul\":949:955   */\n  0x00\n    /* \"#utility.yul\":998:1000   */\n  0x60\n    /* \"#utility.yul\":986:995   */\n  dup5\n    /* \"#utility.yul\":977:984   */\n  dup7\n    /* \"#utility.yul\":973:996   */\n  sub\n    /* \"#utility.yul\":969:1001   */\n  slt\n    /* \"#utility.yul\":966:1085   */\n  iszero\n  tag_36\n  jumpi\n    /* \"#utility.yul\":1004:1083   */\n  tag_37\n  tag_17\n  jump\t// in\ntag_37:\n    /* \"#utility.yul\":966:1085   */\ntag_36:\n    /* \"#utility.yul\":1124:1125   */\n  0x00\n    /* \"#utility.yul\":1149:1213   */\n  tag_38\n    /* \"#utility.yul\":1205:1212   */\n  dup7\n    /* \"#utility.yul\":1196:1202   */\n  dup3\n    /* \"#utility.yul\":1185:1194   */\n  dup8\n    /* \"#utility.yul\":1181:1203   */\n  add\n    /* \"#utility.yul\":1149:1213   */\n  tag_22\n  jump\t// in\ntag_38:\n    /* \"#utility.yul\":1139:1213   */\n  swap4\n  pop\n    /* \"#utility.yul\":1095:1223   */\n  pop\n    /* \"#utility.yul\":1262:1264   */\n  0x20\n    /* \"#utility.yul\":1288:1352   */\n  tag_39\n    /* \"#utility.yul\":1344:1351   */\n  dup7\n    /* \"#utility.yul\":1335:1341   */\n  dup3\n    /* \"#utility.yul\":1324:1333   */\n  dup8\n    /* \"#utility.yul\":1320:1342   */\n  add\n    /* \"#utility.yul\":1288:1352   */\n  tag_22\n  jump\t// in\ntag_39:\n    /* \"#utility.yul\":1278:1352   */\n  swap3\n  pop\n    /* \"#utility.yul\":1233:1362   */\n  pop\n    /* \"#utility.yul\":1401:1403   */\n  0x40\n    /* \"#utility.yul\":1427:1491   */\n  tag_40\n    /* \"#utility.yul\":1483:1490   */\n  dup7\n    /* \"#utility.yul\":1474:1480   */\n  dup3\n    /* \"#utility.yul\":1463:1472   */\n  dup8\n    /* \"#utility.yul\":1459:1481   */\n  add\n    /* \"#utility.yul\":1427:1491   */\n  tag_22\n  jump\t// in\ntag_40:\n    /* \"#utility.yul\":1417:1491   */\n  swap2\n  pop\n    /* \"#utility.yul\":1372:1501   */\n  pop\n    /* \"#utility.yul\":845:1508   */\n  swap3\n  pop\n  swap3\n  pop\n  swap3\n  jump\t// out\n    /* \"contracts/Marketplace2/Marketplace.sol\":17148:21563  contract NFTMarket is ReentrancyGuard,MarketplaceStorage, Ownable {... */\ntag_13:\n  dataSize(sub_0)\n  dup1\n  dataOffset(sub_0)\n  0x00\n  codecopy\n  0x00\n  return\nstop\n\nsub_0: assembly {\n        /* \"contracts/Marketplace2/Marketplace.sol\":17148:21563  contract NFTMarket is ReentrancyGuard,MarketplaceStorage, Ownable {... */\n      mstore(0x40, 0x80)\n      jumpi(tag_1, lt(calldatasize, 0x04))\n      shr(0xe0, calldataload(0x00))\n      dup1\n      0x715018a6\n      gt\n      tag_21\n      jumpi\n      dup1\n      0xc45a0155\n      gt\n      tag_22\n      jumpi\n      dup1\n      0xc45a0155\n      eq\n      tag_16\n      jumpi\n      dup1\n      0xc7be7a49\n      eq\n      tag_17\n      jumpi\n      dup1\n      0xf2fde38b\n      eq\n      tag_18\n      jumpi\n      dup1\n      0xf55de0c7\n      eq\n      tag_19\n      jumpi\n      dup1\n      0xff68fa6e\n      eq\n      tag_20\n      jumpi\n      jump(tag_1)\n    tag_22:\n      dup1\n      0x715018a6\n      eq\n      tag_11\n      jumpi\n      dup1\n      0x85a8b36c\n      eq\n      tag_12\n      jumpi\n      dup1\n      0x8da5cb5b\n      eq\n      tag_13\n      jumpi\n      dup1\n      0xa1c11ca8\n      eq\n      tag_14\n      jumpi\n      dup1\n      0xb7a60c7e\n      eq\n      tag_15\n      jumpi\n      jump(tag_1)\n    tag_21:\n      dup1\n      0x361c1995\n      gt\n      tag_23\n      jumpi\n      dup1\n      0x361c1995\n      eq\n      tag_6\n      jumpi\n      dup1\n      0x3fc15f15\n      eq\n      tag_7\n      jumpi\n      dup1\n      0x517bd451\n      eq\n      tag_8\n      jumpi\n      dup1\n      0x5bb47808\n      eq\n      tag_9\n      jumpi\n      dup1\n      0x5c80a435\n      eq\n      tag_10\n      jumpi\n      jump(tag_1)\n    tag_23:\n      dup1\n      0x10061631\n      eq\n      tag_2\n      jumpi\n      dup1\n      0x15b12494\n      eq\n      tag_3\n      jumpi\n      dup1\n      0x27ce464e\n      eq\n      tag_4\n      jumpi\n      dup1\n      0x2b4c32be\n      eq\n      tag_5\n      jumpi\n    tag_1:\n      0x00\n      dup1\n      revert\n        /* \"contracts/Marketplace2/Marketplace.sol\":19704:20462  function delistItem(uint256 itemId) public {... */\n    tag_2:\n      callvalue\n      dup1\n      iszero\n      tag_24\n      jumpi\n      0x00\n      dup1\n      revert\n    tag_24:\n      pop\n      tag_25\n      0x04\n      dup1\n      calldatasize\n      sub\n      dup2\n      add\n      swap1\n      tag_26\n      swap2\n      swap1\n      tag_27\n      jump\t// in\n    tag_26:\n      tag_28\n      jump\t// in\n    tag_25:\n      stop\n        /* \"contracts/Marketplace2/Marketplace.sol\":17854:17956  function setMainNFT(address _address) external onlyOwner {... */\n    tag_3:\n      callvalue\n      dup1\n      iszero\n      tag_29\n      jumpi\n      0x00\n      dup1\n      revert\n    tag_29:\n      pop\n      tag_30\n      0x04\n      dup1\n      calldatasize\n      sub\n      dup2\n      add\n      swap1\n      tag_31\n      swap2\n      swap1\n      tag_32\n      jump\t// in\n    tag_31:\n      tag_33\n      jump\t// in\n    tag_30:\n      stop\n        /* \"contracts/Marketplace2/Marketplace.sol\":17745:17849  function setMainToken(address _address) external onlyOwner {... */\n    tag_4:\n      callvalue\n      dup1\n      iszero\n      tag_34\n      jumpi\n      0x00\n      dup1\n      revert\n    tag_34:\n      pop\n      tag_35\n      0x04\n      dup1\n      calldatasize\n      sub\n      dup2\n      add\n      swap1\n      tag_36\n      swap2\n      swap1\n      tag_32\n      jump\t// in\n    tag_36:\n      tag_37\n      jump\t// in\n    tag_35:\n      stop\n        /* \"contracts/Marketplace2/Marketplace.sol\":15951:16011  bytes4 public constant ERC721_Interface = bytes4(0x80ac58cd) */\n    tag_5:\n      callvalue\n      dup1\n      iszero\n      tag_38\n      jumpi\n      0x00\n      dup1\n      revert\n    tag_38:\n      pop\n      tag_39\n      tag_40\n      jump\t// in\n    tag_39:\n      mload(0x40)\n      tag_41\n      swap2\n      swap1\n      tag_42\n      jump\t// in\n    tag_41:\n      mload(0x40)\n      dup1\n      swap2\n      sub\n      swap1\n      return\n        /* \"contracts/Marketplace2/Marketplace.sol\":18067:18880  function createMarketItem(... */\n    tag_6:\n      tag_43\n      0x04\n      dup1\n      calldatasize\n      sub\n      dup2\n      add\n      swap1\n      tag_44\n      swap2\n      swap1\n      tag_45\n      jump\t// in\n    tag_44:\n      tag_46\n      jump\t// in\n    tag_43:\n      stop\n        /* \"contracts/Marketplace2/Marketplace.sol\":16212:16235  IERC20 public mainToken */\n    tag_7:\n      callvalue\n      dup1\n      iszero\n      tag_47\n      jumpi\n      0x00\n      dup1\n      revert\n    tag_47:\n      pop\n      tag_48\n      tag_49\n      jump\t// in\n    tag_48:\n      mload(0x40)\n      tag_50\n      swap2\n      swap1\n      tag_51\n      jump\t// in\n    tag_50:\n      mload(0x40)\n      dup1\n      swap2\n      sub\n      swap1\n      return\n        /* \"contracts/Marketplace2/Marketplace.sol\":15912:15944  MarketItem public allMarketItems */\n    tag_8:\n      callvalue\n      dup1\n      iszero\n      tag_52\n      jumpi\n      0x00\n      dup1\n      revert\n    tag_52:\n      pop\n      tag_53\n      tag_54\n      jump\t// in\n    tag_53:\n      mload(0x40)\n      tag_55\n      swap7\n      swap6\n      swap5\n      swap4\n      swap3\n      swap2\n      swap1\n      tag_56\n      jump\t// in\n    tag_55:\n      mload(0x40)\n      dup1\n      swap2\n      sub\n      swap1\n      return\n        /* \"contracts/Marketplace2/Marketplace.sol\":17961:18063  function setFactory(address _address) external onlyOwner {... */\n    tag_9:\n      callvalue\n      dup1\n      iszero\n      tag_57\n      jumpi\n      0x00\n      dup1\n      revert\n    tag_57:\n      pop\n      tag_58\n      0x04\n      dup1\n      calldatasize\n      sub\n      dup2\n      add\n      swap1\n      tag_59\n      swap2\n      swap1\n      tag_32\n      jump\t// in\n    tag_59:\n      tag_60\n      jump\t// in\n    tag_58:\n      stop\n        /* \"contracts/Marketplace2/Marketplace.sol\":16142:16205  mapping(address => mapping(uint256 => MarketItem)) public items */\n    tag_10:\n      callvalue\n      dup1\n      iszero\n      tag_61\n      jumpi\n      0x00\n      dup1\n      revert\n    tag_61:\n      pop\n      tag_62\n      0x04\n      dup1\n      calldatasize\n      sub\n      dup2\n      add\n      swap1\n      tag_63\n      swap2\n      swap1\n      tag_64\n      jump\t// in\n    tag_63:\n      tag_65\n      jump\t// in\n    tag_62:\n      mload(0x40)\n      tag_66\n      swap7\n      swap6\n      swap5\n      swap4\n      swap3\n      swap2\n      swap1\n      tag_56\n      jump\t// in\n    tag_66:\n      mload(0x40)\n      dup1\n      swap2\n      sub\n      swap1\n      return\n        /* \"contracts/Marketplace2/Marketplace.sol\":2308:2409  function renounceOwnership() public virtual onlyOwner {... */\n    tag_11:\n      callvalue\n      dup1\n      iszero\n      tag_67\n      jumpi\n      0x00\n      dup1\n      revert\n    tag_67:\n      pop\n      tag_68\n      tag_69\n      jump\t// in\n    tag_68:\n      stop\n        /* \"contracts/Marketplace2/Marketplace.sol\":16300:16326  uint8 public bnbFeePercent */\n    tag_12:\n      callvalue\n      dup1\n      iszero\n      tag_70\n      jumpi\n      0x00\n      dup1\n      revert\n    tag_70:\n      pop\n      tag_71\n      tag_72\n      jump\t// in\n    tag_71:\n      mload(0x40)\n      tag_73\n      swap2\n      swap1\n      tag_74\n      jump\t// in\n    tag_73:\n      mload(0x40)\n      dup1\n      swap2\n      sub\n      swap1\n      return\n        /* \"contracts/Marketplace2/Marketplace.sol\":1676:1761  function owner() public view virtual returns (address) {... */\n    tag_13:\n      callvalue\n      dup1\n      iszero\n      tag_75\n      jumpi\n      0x00\n      dup1\n      revert\n    tag_75:\n      pop\n      tag_76\n      tag_77\n      jump\t// in\n    tag_76:\n      mload(0x40)\n      tag_78\n      swap2\n      swap1\n      tag_79\n      jump\t// in\n    tag_78:\n      mload(0x40)\n      dup1\n      swap2\n      sub\n      swap1\n      return\n        /* \"contracts/Marketplace2/Marketplace.sol\":18883:19700  function createMarketSale(... */\n    tag_14:\n      callvalue\n      dup1\n      iszero\n      tag_80\n      jumpi\n      0x00\n      dup1\n      revert\n    tag_80:\n      pop\n      tag_81\n      0x04\n      dup1\n      calldatasize\n      sub\n      dup2\n      add\n      swap1\n      tag_82\n      swap2\n      swap1\n      tag_45\n      jump\t// in\n    tag_82:\n      tag_83\n      jump\t// in\n    tag_81:\n      stop\n        /* \"contracts/Marketplace2/Marketplace.sol\":16332:16359  uint8 public antaFeePercent */\n    tag_15:\n      callvalue\n      dup1\n      iszero\n      tag_84\n      jumpi\n      0x00\n      dup1\n      revert\n    tag_84:\n      pop\n      tag_85\n      tag_86\n      jump\t// in\n    tag_85:\n      mload(0x40)\n      tag_87\n      swap2\n      swap1\n      tag_74\n      jump\t// in\n    tag_87:\n      mload(0x40)\n      dup1\n      swap2\n      sub\n      swap1\n      return\n        /* \"contracts/Marketplace2/Marketplace.sol\":16241:16264  IFactory public factory */\n    tag_16:\n      callvalue\n      dup1\n      iszero\n      tag_88\n      jumpi\n      0x00\n      dup1\n      revert\n    tag_88:\n      pop\n      tag_89\n      tag_90\n      jump\t// in\n    tag_89:\n      mload(0x40)\n      tag_91\n      swap2\n      swap1\n      tag_92\n      jump\t// in\n    tag_91:\n      mload(0x40)\n      dup1\n      swap2\n      sub\n      swap1\n      return\n        /* \"contracts/Marketplace2/Marketplace.sol\":17602:17739  function getMarketItem(uint256 marketItemId) public view returns (MarketItem memory) {... */\n    tag_17:\n      callvalue\n      dup1\n      iszero\n      tag_93\n      jumpi\n      0x00\n      dup1\n      revert\n    tag_93:\n      pop\n      tag_94\n      0x04\n      dup1\n      calldatasize\n      sub\n      dup2\n      add\n      swap1\n      tag_95\n      swap2\n      swap1\n      tag_27\n      jump\t// in\n    tag_95:\n      tag_96\n      jump\t// in\n    tag_94:\n      mload(0x40)\n      tag_97\n      swap2\n      swap1\n      tag_98\n      jump\t// in\n    tag_97:\n      mload(0x40)\n      dup1\n      swap2\n      sub\n      swap1\n      return\n        /* \"contracts/Marketplace2/Marketplace.sol\":2558:2756  function transferOwnership(address newOwner) public virtual onlyOwner {... */\n    tag_18:\n      callvalue\n      dup1\n      iszero\n      tag_99\n      jumpi\n      0x00\n      dup1\n      revert\n    tag_99:\n      pop\n      tag_100\n      0x04\n      dup1\n      calldatasize\n      sub\n      dup2\n      add\n      swap1\n      tag_101\n      swap2\n      swap1\n      tag_32\n      jump\t// in\n    tag_101:\n      tag_102\n      jump\t// in\n    tag_100:\n      stop\n        /* \"contracts/Marketplace2/Marketplace.sol\":16270:16293  IERC721 public mainNFTs */\n    tag_19:\n      callvalue\n      dup1\n      iszero\n      tag_103\n      jumpi\n      0x00\n      dup1\n      revert\n    tag_103:\n      pop\n      tag_104\n      tag_105\n      jump\t// in\n    tag_104:\n      mload(0x40)\n      tag_106\n      swap2\n      swap1\n      tag_107\n      jump\t// in\n    tag_106:\n      mload(0x40)\n      dup1\n      swap2\n      sub\n      swap1\n      return\n        /* \"contracts/Marketplace2/Marketplace.sol\":16018:16065  mapping (uint256 => MarketItem) public allItems */\n    tag_20:\n      callvalue\n      dup1\n      iszero\n      tag_108\n      jumpi\n      0x00\n      dup1\n      revert\n    tag_108:\n      pop\n      tag_109\n      0x04\n      dup1\n      calldatasize\n      sub\n      dup2\n      add\n      swap1\n      tag_110\n      swap2\n      swap1\n      tag_27\n      jump\t// in\n    tag_110:\n      tag_111\n      jump\t// in\n    tag_109:\n      mload(0x40)\n      tag_112\n      swap7\n      swap6\n      swap5\n      swap4\n      swap3\n      swap2\n      swap1\n      tag_56\n      jump\t// in\n    tag_112:\n      mload(0x40)\n      dup1\n      swap2\n      sub\n      swap1\n      return\n        /* \"contracts/Marketplace2/Marketplace.sol\":19704:20462  function delistItem(uint256 itemId) public {... */\n    tag_28:\n        /* \"contracts/Marketplace2/Marketplace.sol\":19757:19773  address deleteBy */\n      0x00\n        /* \"contracts/Marketplace2/Marketplace.sol\":19776:19786  msg.sender */\n      caller\n        /* \"contracts/Marketplace2/Marketplace.sol\":19757:19786  address deleteBy = msg.sender */\n      swap1\n      pop\n        /* \"contracts/Marketplace2/Marketplace.sol\":19796:19818  MarketItem memory item */\n      0x00\n        /* \"contracts/Marketplace2/Marketplace.sol\":19821:19835  idToMarketItem */\n      0x0f\n        /* \"contracts/Marketplace2/Marketplace.sol\":19821:19843  idToMarketItem[itemId] */\n      0x00\n        /* \"contracts/Marketplace2/Marketplace.sol\":19836:19842  itemId */\n      dup5\n        /* \"contracts/Marketplace2/Marketplace.sol\":19821:19843  idToMarketItem[itemId] */\n      dup2\n      mstore\n      0x20\n      add\n      swap1\n      dup2\n      mstore\n      0x20\n      add\n      0x00\n      keccak256\n        /* \"contracts/Marketplace2/Marketplace.sol\":19796:19843  MarketItem memory item = idToMarketItem[itemId] */\n      mload(0x40)\n      dup1\n      0xc0\n      add\n      0x40\n      mstore\n      swap1\n      dup2\n      0x00\n      dup3\n      add\n      sload\n      dup2\n      mstore\n      0x20\n      add\n      0x01\n      dup3\n      add\n      sload\n      dup2\n      mstore\n      0x20\n      add\n      0x02\n      dup3\n      add\n      0x00\n      swap1\n      sload\n      swap1\n      0x0100\n      exp\n      swap1\n      div\n      0xffffffffffffffffffffffffffffffffffffffff\n      and\n      0xffffffffffffffffffffffffffffffffffffffff\n      and\n      0xffffffffffffffffffffffffffffffffffffffff\n      and\n      dup2\n      mstore\n      0x20\n      add\n      0x03\n      dup3\n      add\n      0x00\n      swap1\n      sload\n      swap1\n      0x0100\n      exp\n      swap1\n      div\n      0xffffffffffffffffffffffffffffffffffffffff\n      and\n      0xffffffffffffffffffffffffffffffffffffffff\n      and\n      0xffffffffffffffffffffffffffffffffffffffff\n      and\n      dup2\n      mstore\n      0x20\n      add\n      0x04\n      dup3\n      add\n      sload\n      dup2\n      mstore\n      0x20\n      add\n      0x05\n      dup3\n      add\n      0x00\n      swap1\n      sload\n      swap1\n      0x0100\n      exp\n      swap1\n      div\n      0xff\n      and\n      0x01\n      dup2\n      gt\n      iszero\n      tag_114\n      jumpi\n      tag_115\n      tag_116\n      jump\t// in\n    tag_115:\n    tag_114:\n      0x01\n      dup2\n      gt\n      iszero\n      tag_117\n      jumpi\n      tag_118\n      tag_116\n      jump\t// in\n    tag_118:\n    tag_117:\n      dup2\n      mstore\n      pop\n      pop\n      swap1\n      pop\n        /* \"contracts/Marketplace2/Marketplace.sol\":19878:19879  0 */\n      0x00\n        /* \"contracts/Marketplace2/Marketplace.sol\":19863:19867  item */\n      dup2\n        /* \"contracts/Marketplace2/Marketplace.sol\":19863:19874  item.itemId */\n      0x00\n      add\n      mload\n        /* \"contracts/Marketplace2/Marketplace.sol\":19863:19879  item.itemId != 0 */\n      sub\n        /* \"contracts/Marketplace2/Marketplace.sol\":19855:19903  require(item.itemId != 0, \"Asset not published\") */\n      tag_119\n      jumpi\n      mload(0x40)\n      0x08c379a000000000000000000000000000000000000000000000000000000000\n      dup2\n      mstore\n      0x04\n      add\n      tag_120\n      swap1\n      tag_121\n      jump\t// in\n    tag_120:\n      mload(0x40)\n      dup1\n      swap2\n      sub\n      swap1\n      revert\n    tag_119:\n        /* \"contracts/Marketplace2/Marketplace.sol\":19936:19954  ItemStatus.SELLING */\n      0x01\n        /* \"contracts/Marketplace2/Marketplace.sol\":19921:19954  item.status == ItemStatus.SELLING */\n      dup1\n      dup2\n      gt\n      iszero\n      tag_122\n      jumpi\n      tag_123\n      tag_116\n      jump\t// in\n    tag_123:\n    tag_122:\n        /* \"contracts/Marketplace2/Marketplace.sol\":19921:19925  item */\n      dup2\n        /* \"contracts/Marketplace2/Marketplace.sol\":19921:19932  item.status */\n      0xa0\n      add\n      mload\n        /* \"contracts/Marketplace2/Marketplace.sol\":19921:19954  item.status == ItemStatus.SELLING */\n      0x01\n      dup2\n      gt\n      iszero\n      tag_124\n      jumpi\n      tag_125\n      tag_116\n      jump\t// in\n    tag_125:\n    tag_124:\n      eq\n        /* \"contracts/Marketplace2/Marketplace.sol\":19913:19973  require(item.status == ItemStatus.SELLING, \"Asset delisted\") */\n      tag_126\n      jumpi\n      mload(0x40)\n      0x08c379a000000000000000000000000000000000000000000000000000000000\n      dup2\n      mstore\n      0x04\n      add\n      tag_127\n      swap1\n      tag_128\n      jump\t// in\n    tag_127:\n      mload(0x40)\n      dup1\n      swap2\n      sub\n      swap1\n      revert\n    tag_126:\n        /* \"contracts/Marketplace2/Marketplace.sol\":19984:19998  address seller */\n      0x00\n        /* \"contracts/Marketplace2/Marketplace.sol\":20001:20005  item */\n      dup2\n        /* \"contracts/Marketplace2/Marketplace.sol\":20001:20012  item.seller */\n      0x40\n      add\n      mload\n        /* \"contracts/Marketplace2/Marketplace.sol\":19984:20012  address seller = item.seller */\n      swap1\n      pop\n        /* \"contracts/Marketplace2/Marketplace.sol\":20048:20049  0 */\n      0x00\n        /* \"contracts/Marketplace2/Marketplace.sol\":20030:20050  seller != address(0) */\n      0xffffffffffffffffffffffffffffffffffffffff\n      and\n        /* \"contracts/Marketplace2/Marketplace.sol\":20030:20036  seller */\n      dup2\n        /* \"contracts/Marketplace2/Marketplace.sol\":20030:20050  seller != address(0) */\n      0xffffffffffffffffffffffffffffffffffffffff\n      and\n      sub\n        /* \"contracts/Marketplace2/Marketplace.sol\":20022:20070  require(seller != address(0), \"Invalid address\") */\n      tag_129\n      jumpi\n      mload(0x40)\n      0x08c379a000000000000000000000000000000000000000000000000000000000\n      dup2\n      mstore\n      0x04\n      add\n      tag_130\n      swap1\n      tag_131\n      jump\t// in\n    tag_130:\n      mload(0x40)\n      dup1\n      swap2\n      sub\n      swap1\n      revert\n    tag_129:\n        /* \"contracts/Marketplace2/Marketplace.sol\":20111:20121  msg.sender */\n      caller\n        /* \"contracts/Marketplace2/Marketplace.sol\":20101:20121  seller == msg.sender */\n      0xffffffffffffffffffffffffffffffffffffffff\n      and\n        /* \"contracts/Marketplace2/Marketplace.sol\":20101:20107  seller */\n      dup2\n        /* \"contracts/Marketplace2/Marketplace.sol\":20101:20121  seller == msg.sender */\n      0xffffffffffffffffffffffffffffffffffffffff\n      and\n      eq\n        /* \"contracts/Marketplace2/Marketplace.sol\":20080:20169  require(... */\n      tag_132\n      jumpi\n      mload(0x40)\n      0x08c379a000000000000000000000000000000000000000000000000000000000\n      dup2\n      mstore\n      0x04\n      add\n      tag_133\n      swap1\n      tag_134\n      jump\t// in\n    tag_133:\n      mload(0x40)\n      dup1\n      swap2\n      sub\n      swap1\n      revert\n    tag_132:\n        /* \"contracts/Marketplace2/Marketplace.sol\":20179:20187  mainNFTs */\n      0x0b\n      0x00\n      swap1\n      sload\n      swap1\n      0x0100\n      exp\n      swap1\n      div\n      0xffffffffffffffffffffffffffffffffffffffff\n      and\n        /* \"contracts/Marketplace2/Marketplace.sol\":20179:20204  mainNFTs.safeTransferFrom */\n      0xffffffffffffffffffffffffffffffffffffffff\n      and\n      0x42842e0e\n        /* \"contracts/Marketplace2/Marketplace.sol\":20213:20217  this */\n      address\n        /* \"contracts/Marketplace2/Marketplace.sol\":20220:20226  seller */\n      dup4\n        /* \"contracts/Marketplace2/Marketplace.sol\":20228:20234  itemId */\n      dup8\n        /* \"contracts/Marketplace2/Marketplace.sol\":20179:20235  mainNFTs.safeTransferFrom(address(this), seller, itemId) */\n      mload(0x40)\n      dup5\n      0xffffffff\n      and\n      0xe0\n      shl\n      dup2\n      mstore\n      0x04\n      add\n      tag_135\n      swap4\n      swap3\n      swap2\n      swap1\n      tag_136\n      jump\t// in\n    tag_135:\n      0x00\n      mload(0x40)\n      dup1\n      dup4\n      sub\n      dup2\n      0x00\n      dup8\n      dup1\n      extcodesize\n      iszero\n      dup1\n      iszero\n      tag_137\n      jumpi\n      0x00\n      dup1\n      revert\n    tag_137:\n      pop\n      gas\n      call\n      iszero\n      dup1\n      iszero\n      tag_139\n      jumpi\n      returndatasize\n      0x00\n      dup1\n      returndatacopy\n      revert(0x00, returndatasize)\n    tag_139:\n      pop\n      pop\n      pop\n      pop\n        /* \"contracts/Marketplace2/Marketplace.sol\":20259:20275  ItemStatus.AVAIL */\n      0x00\n        /* \"contracts/Marketplace2/Marketplace.sol\":20245:20249  item */\n      dup3\n        /* \"contracts/Marketplace2/Marketplace.sol\":20245:20256  item.status */\n      0xa0\n      add\n        /* \"contracts/Marketplace2/Marketplace.sol\":20245:20275  item.status = ItemStatus.AVAIL */\n      swap1\n      0x01\n      dup2\n      gt\n      iszero\n      tag_140\n      jumpi\n      tag_141\n      tag_116\n      jump\t// in\n    tag_141:\n    tag_140:\n      swap1\n      dup2\n      0x01\n      dup2\n      gt\n      iszero\n      tag_142\n      jumpi\n      tag_143\n      tag_116\n      jump\t// in\n    tag_143:\n    tag_142:\n      dup2\n      mstore\n      pop\n      pop\n        /* \"contracts/Marketplace2/Marketplace.sol\":20292:20306  idToMarketItem */\n      0x0f\n        /* \"contracts/Marketplace2/Marketplace.sol\":20292:20314  idToMarketItem[itemId] */\n      0x00\n        /* \"contracts/Marketplace2/Marketplace.sol\":20307:20313  itemId */\n      dup6\n        /* \"contracts/Marketplace2/Marketplace.sol\":20292:20314  idToMarketItem[itemId] */\n      dup2\n      mstore\n      0x20\n      add\n      swap1\n      dup2\n      mstore\n      0x20\n      add\n      0x00\n      keccak256\n      0x00\n        /* \"contracts/Marketplace2/Marketplace.sol\":20285:20314  delete idToMarketItem[itemId] */\n      dup1\n      dup3\n      add\n      0x00\n      swap1\n      sstore\n      0x01\n      dup3\n      add\n      0x00\n      swap1\n      sstore\n      0x02\n      dup3\n      add\n      exp(0x0100, 0x00)\n      dup2\n      sload\n      swap1\n      0xffffffffffffffffffffffffffffffffffffffff\n      mul\n      not\n      and\n      swap1\n      sstore\n      0x03\n      dup3\n      add\n      exp(0x0100, 0x00)\n      dup2\n      sload\n      swap1\n      0xffffffffffffffffffffffffffffffffffffffff\n      mul\n      not\n      and\n      swap1\n      sstore\n      0x04\n      dup3\n      add\n      0x00\n      swap1\n      sstore\n      0x05\n      dup3\n      add\n      exp(0x0100, 0x00)\n      dup2\n      sload\n      swap1\n      0xff\n      mul\n      not\n      and\n      swap1\n      sstore\n      pop\n      pop\n        /* \"contracts/Marketplace2/Marketplace.sol\":20408:20416  deleteBy */\n      dup3\n        /* \"contracts/Marketplace2/Marketplace.sol\":20329:20455  DelistItemSuccessful(... */\n      0xffffffffffffffffffffffffffffffffffffffff\n      and\n        /* \"contracts/Marketplace2/Marketplace.sol\":20388:20394  itemId */\n      dup5\n        /* \"contracts/Marketplace2/Marketplace.sol\":20329:20455  DelistItemSuccessful(... */\n      0x72ffc2a266acba5f77e2b49400103cb61b428f37a97057ebe671e83fddd71e67\n        /* \"contracts/Marketplace2/Marketplace.sol\":20363:20367  item */\n      dup5\n        /* \"contracts/Marketplace2/Marketplace.sol\":20363:20374  item.itemId */\n      0x00\n      add\n      mload\n        /* \"contracts/Marketplace2/Marketplace.sol\":20430:20445  block.timestamp */\n      timestamp\n        /* \"contracts/Marketplace2/Marketplace.sol\":20329:20455  DelistItemSuccessful(... */\n      mload(0x40)\n      tag_144\n      swap3\n      swap2\n      swap1\n      tag_145\n      jump\t// in\n    tag_144:\n      mload(0x40)\n      dup1\n      swap2\n      sub\n      swap1\n      log3\n        /* \"contracts/Marketplace2/Marketplace.sol\":19747:20462  {... */\n      pop\n      pop\n      pop\n        /* \"contracts/Marketplace2/Marketplace.sol\":19704:20462  function delistItem(uint256 itemId) public {... */\n      pop\n      jump\t// out\n        /* \"contracts/Marketplace2/Marketplace.sol\":17854:17956  function setMainNFT(address _address) external onlyOwner {... */\n    tag_33:\n        /* \"contracts/Marketplace2/Marketplace.sol\":1899:1911  _msgSender() */\n      tag_147\n        /* \"contracts/Marketplace2/Marketplace.sol\":1899:1909  _msgSender */\n      tag_148\n        /* \"contracts/Marketplace2/Marketplace.sol\":1899:1911  _msgSender() */\n      jump\t// in\n    tag_147:\n        /* \"contracts/Marketplace2/Marketplace.sol\":1888:1911  owner() == _msgSender() */\n      0xffffffffffffffffffffffffffffffffffffffff\n      and\n        /* \"contracts/Marketplace2/Marketplace.sol\":1888:1895  owner() */\n      tag_149\n        /* \"contracts/Marketplace2/Marketplace.sol\":1888:1893  owner */\n      tag_77\n        /* \"contracts/Marketplace2/Marketplace.sol\":1888:1895  owner() */\n      jump\t// in\n    tag_149:\n        /* \"contracts/Marketplace2/Marketplace.sol\":1888:1911  owner() == _msgSender() */\n      0xffffffffffffffffffffffffffffffffffffffff\n      and\n      eq\n        /* \"contracts/Marketplace2/Marketplace.sol\":1880:1948  require(owner() == _msgSender(), \"Ownable: caller is not the owner\") */\n      tag_150\n      jumpi\n      mload(0x40)\n      0x08c379a000000000000000000000000000000000000000000000000000000000\n      dup2\n      mstore\n      0x04\n      add\n      tag_151\n      swap1\n      tag_152\n      jump\t// in\n    tag_151:\n      mload(0x40)\n      dup1\n      swap2\n      sub\n      swap1\n      revert\n    tag_150:\n        /* \"contracts/Marketplace2/Marketplace.sol\":17940:17948  _address */\n      dup1\n        /* \"contracts/Marketplace2/Marketplace.sol\":17921:17929  mainNFTs */\n      0x0b\n      0x00\n        /* \"contracts/Marketplace2/Marketplace.sol\":17921:17949  mainNFTs = IERC721(_address) */\n      0x0100\n      exp\n      dup2\n      sload\n      dup2\n      0xffffffffffffffffffffffffffffffffffffffff\n      mul\n      not\n      and\n      swap1\n      dup4\n      0xffffffffffffffffffffffffffffffffffffffff\n      and\n      mul\n      or\n      swap1\n      sstore\n      pop\n        /* \"contracts/Marketplace2/Marketplace.sol\":17854:17956  function setMainNFT(address _address) external onlyOwner {... */\n      pop\n      jump\t// out\n        /* \"contracts/Marketplace2/Marketplace.sol\":17745:17849  function setMainToken(address _address) external onlyOwner {... */\n    tag_37:\n        /* \"contracts/Marketplace2/Marketplace.sol\":1899:1911  _msgSender() */\n      tag_155\n        /* \"contracts/Marketplace2/Marketplace.sol\":1899:1909  _msgSender */\n      tag_148\n        /* \"contracts/Marketplace2/Marketplace.sol\":1899:1911  _msgSender() */\n      jump\t// in\n    tag_155:\n        /* \"contracts/Marketplace2/Marketplace.sol\":1888:1911  owner() == _msgSender() */\n      0xffffffffffffffffffffffffffffffffffffffff\n      and\n        /* \"contracts/Marketplace2/Marketplace.sol\":1888:1895  owner() */\n      tag_156\n        /* \"contracts/Marketplace2/Marketplace.sol\":1888:1893  owner */\n      tag_77\n        /* \"contracts/Marketplace2/Marketplace.sol\":1888:1895  owner() */\n      jump\t// in\n    tag_156:\n        /* \"contracts/Marketplace2/Marketplace.sol\":1888:1911  owner() == _msgSender() */\n      0xffffffffffffffffffffffffffffffffffffffff\n      and\n      eq\n        /* \"contracts/Marketplace2/Marketplace.sol\":1880:1948  require(owner() == _msgSender(), \"Ownable: caller is not the owner\") */\n      tag_157\n      jumpi\n      mload(0x40)\n      0x08c379a000000000000000000000000000000000000000000000000000000000\n      dup2\n      mstore\n      0x04\n      add\n      tag_158\n      swap1\n      tag_152\n      jump\t// in\n    tag_158:\n      mload(0x40)\n      dup1\n      swap2\n      sub\n      swap1\n      revert\n    tag_157:\n        /* \"contracts/Marketplace2/Marketplace.sol\":17833:17841  _address */\n      dup1\n        /* \"contracts/Marketplace2/Marketplace.sol\":17814:17823  mainToken */\n      0x09\n      0x00\n        /* \"contracts/Marketplace2/Marketplace.sol\":17814:17842  mainToken = IERC20(_address) */\n      0x0100\n      exp\n      dup2\n      sload\n      dup2\n      0xffffffffffffffffffffffffffffffffffffffff\n      mul\n      not\n      and\n      swap1\n      dup4\n      0xffffffffffffffffffffffffffffffffffffffff\n      and\n      mul\n      or\n      swap1\n      sstore\n      pop\n        /* \"contracts/Marketplace2/Marketplace.sol\":17745:17849  function setMainToken(address _address) external onlyOwner {... */\n      pop\n      jump\t// out\n        /* \"contracts/Marketplace2/Marketplace.sol\":15951:16011  bytes4 public constant ERC721_Interface = bytes4(0x80ac58cd) */\n    tag_40:\n        /* \"contracts/Marketplace2/Marketplace.sol\":16000:16010  0x80ac58cd */\n      0x80ac58cd\n        /* \"contracts/Marketplace2/Marketplace.sol\":15993:16011  bytes4(0x80ac58cd) */\n      0xe0\n      shl\n        /* \"contracts/Marketplace2/Marketplace.sol\":15951:16011  bytes4 public constant ERC721_Interface = bytes4(0x80ac58cd) */\n      dup2\n      jump\t// out\n        /* \"contracts/Marketplace2/Marketplace.sol\":18067:18880  function createMarketItem(... */\n    tag_46:\n        /* \"contracts/Marketplace2/Marketplace.sol\":14165:14166  2 */\n      0x02\n        /* \"contracts/Marketplace2/Marketplace.sol\":14746:14753  _status */\n      sload(0x00)\n        /* \"contracts/Marketplace2/Marketplace.sol\":14746:14765  _status != _ENTERED */\n      sub\n        /* \"contracts/Marketplace2/Marketplace.sol\":14738:14801  require(_status != _ENTERED, \"ReentrancyGuard: reentrant call\") */\n      tag_161\n      jumpi\n      mload(0x40)\n      0x08c379a000000000000000000000000000000000000000000000000000000000\n      dup2\n      mstore\n      0x04\n      add\n      tag_162\n      swap1\n      tag_163\n      jump\t// in\n    tag_162:\n      mload(0x40)\n      dup1\n      swap2\n      sub\n      swap1\n      revert\n    tag_161:\n        /* \"contracts/Marketplace2/Marketplace.sol\":14165:14166  2 */\n      0x02\n        /* \"contracts/Marketplace2/Marketplace.sol\":14876:14883  _status */\n      0x00\n        /* \"contracts/Marketplace2/Marketplace.sol\":14876:14894  _status = _ENTERED */\n      dup2\n      swap1\n      sstore\n      pop\n        /* \"contracts/Marketplace2/Marketplace.sol\":18187:18188  0 */\n      0x00\n        /* \"contracts/Marketplace2/Marketplace.sol\":18179:18184  price */\n      dup2\n        /* \"contracts/Marketplace2/Marketplace.sol\":18179:18188  price > 0 */\n      gt\n        /* \"contracts/Marketplace2/Marketplace.sol\":18171:18221  require(price > 0, \"Price must be at least 1 wei\") */\n      tag_165\n      jumpi\n      mload(0x40)\n      0x08c379a000000000000000000000000000000000000000000000000000000000\n      dup2\n      mstore\n      0x04\n      add\n      tag_166\n      swap1\n      tag_167\n      jump\t// in\n    tag_166:\n      mload(0x40)\n      dup1\n      swap2\n      sub\n      swap1\n      revert\n    tag_165:\n        /* \"contracts/Marketplace2/Marketplace.sol\":18227:18261  StructLib.ingameItems memory _item */\n      0x00\n        /* \"contracts/Marketplace2/Marketplace.sol\":18264:18271  factory */\n      0x0a\n      0x00\n      swap1\n      sload\n      swap1\n      0x0100\n      exp\n      swap1\n      div\n      0xffffffffffffffffffffffffffffffffffffffff\n      and\n        /* \"contracts/Marketplace2/Marketplace.sol\":18264:18285  factory.getIngameItem */\n      0xffffffffffffffffffffffffffffffffffffffff\n      and\n      0x03ce1cb5\n        /* \"contracts/Marketplace2/Marketplace.sol\":18286:18293  tokenId */\n      dup5\n        /* \"contracts/Marketplace2/Marketplace.sol\":18264:18294  factory.getIngameItem(tokenId) */\n      mload(0x40)\n      dup3\n      0xffffffff\n      and\n      0xe0\n      shl\n      dup2\n      mstore\n      0x04\n      add\n      tag_168\n      swap2\n      swap1\n      tag_169\n      jump\t// in\n    tag_168:\n      0x00\n      mload(0x40)\n      dup1\n      dup4\n      sub\n      dup2\n      dup7\n      gas\n      staticcall\n      iszero\n      dup1\n      iszero\n      tag_171\n      jumpi\n      returndatasize\n      0x00\n      dup1\n      returndatacopy\n      revert(0x00, returndatasize)\n    tag_171:\n      pop\n      pop\n      pop\n      pop\n      mload(0x40)\n      returndatasize\n      0x00\n      dup3\n      returndatacopy\n      returndatasize\n      not(0x1f)\n      0x1f\n      dup3\n      add\n      and\n      dup3\n      add\n      dup1\n      0x40\n      mstore\n      pop\n      dup2\n      add\n      swap1\n      tag_172\n      swap2\n      swap1\n      tag_173\n      jump\t// in\n    tag_172:\n        /* \"contracts/Marketplace2/Marketplace.sol\":18227:18294  StructLib.ingameItems memory _item = factory.getIngameItem(tokenId) */\n      swap1\n      pop\n        /* \"contracts/Marketplace2/Marketplace.sol\":18324:18329  false */\n      0x00\n        /* \"contracts/Marketplace2/Marketplace.sol\":18308:18329  _item.ingame == false */\n      iszero\n      iszero\n        /* \"contracts/Marketplace2/Marketplace.sol\":18308:18313  _item */\n      dup2\n        /* \"contracts/Marketplace2/Marketplace.sol\":18308:18320  _item.ingame */\n      0x80\n      add\n      mload\n        /* \"contracts/Marketplace2/Marketplace.sol\":18308:18329  _item.ingame == false */\n      iszero\n      iszero\n      eq\n        /* \"contracts/Marketplace2/Marketplace.sol\":18300:18362  require(_item.ingame == false, \"Item is not available now !\" ) */\n      tag_174\n      jumpi\n      mload(0x40)\n      0x08c379a000000000000000000000000000000000000000000000000000000000\n      dup2\n      mstore\n      0x04\n      add\n      tag_175\n      swap1\n      tag_176\n      jump\t// in\n    tag_175:\n      mload(0x40)\n      dup1\n      swap2\n      sub\n      swap1\n      revert\n    tag_174:\n        /* \"contracts/Marketplace2/Marketplace.sol\":18368:18375  factory */\n      0x0a\n      0x00\n      swap1\n      sload\n      swap1\n      0x0100\n      exp\n      swap1\n      div\n      0xffffffffffffffffffffffffffffffffffffffff\n      and\n        /* \"contracts/Marketplace2/Marketplace.sol\":18368:18394  factory.setOwnerIngameItem */\n      0xffffffffffffffffffffffffffffffffffffffff\n      and\n      0xc1e9518a\n        /* \"contracts/Marketplace2/Marketplace.sol\":18403:18413  msg.sender */\n      caller\n        /* \"contracts/Marketplace2/Marketplace.sol\":18423:18427  this */\n      address\n        /* \"contracts/Marketplace2/Marketplace.sol\":18430:18437  tokenId */\n      dup7\n        /* \"contracts/Marketplace2/Marketplace.sol\":18368:18438  factory.setOwnerIngameItem(payable(msg.sender),address(this), tokenId) */\n      mload(0x40)\n      dup5\n      0xffffffff\n      and\n      0xe0\n      shl\n      dup2\n      mstore\n      0x04\n      add\n      tag_177\n      swap4\n      swap3\n      swap2\n      swap1\n      tag_178\n      jump\t// in\n    tag_177:\n      0x00\n      mload(0x40)\n      dup1\n      dup4\n      sub\n      dup2\n      0x00\n      dup8\n      dup1\n      extcodesize\n      iszero\n      dup1\n      iszero\n      tag_179\n      jumpi\n      0x00\n      dup1\n      revert\n    tag_179:\n      pop\n      gas\n      call\n      iszero\n      dup1\n      iszero\n      tag_181\n      jumpi\n      returndatasize\n      0x00\n      dup1\n      returndatacopy\n      revert(0x00, returndatasize)\n    tag_181:\n      pop\n      pop\n      pop\n      pop\n        /* \"contracts/Marketplace2/Marketplace.sol\":18444:18452  mainNFTs */\n      0x0b\n      0x00\n      swap1\n      sload\n      swap1\n      0x0100\n      exp\n      swap1\n      div\n      0xffffffffffffffffffffffffffffffffffffffff\n      and\n        /* \"contracts/Marketplace2/Marketplace.sol\":18444:18465  mainNFTs.transferFrom */\n      0xffffffffffffffffffffffffffffffffffffffff\n      and\n      0x23b872dd\n        /* \"contracts/Marketplace2/Marketplace.sol\":18466:18476  msg.sender */\n      caller\n        /* \"contracts/Marketplace2/Marketplace.sol\":18486:18490  this */\n      address\n        /* \"contracts/Marketplace2/Marketplace.sol\":18493:18500  tokenId */\n      dup7\n        /* \"contracts/Marketplace2/Marketplace.sol\":18444:18501  mainNFTs.transferFrom(msg.sender, address(this), tokenId) */\n      mload(0x40)\n      dup5\n      0xffffffff\n      and\n      0xe0\n      shl\n      dup2\n      mstore\n      0x04\n      add\n      tag_182\n      swap4\n      swap3\n      swap2\n      swap1\n      tag_136\n      jump\t// in\n    tag_182:\n      0x00\n      mload(0x40)\n      dup1\n      dup4\n      sub\n      dup2\n      0x00\n      dup8\n      dup1\n      extcodesize\n      iszero\n      dup1\n      iszero\n      tag_183\n      jumpi\n      0x00\n      dup1\n      revert\n    tag_183:\n      pop\n      gas\n      call\n      iszero\n      dup1\n      iszero\n      tag_185\n      jumpi\n      returndatasize\n      0x00\n      dup1\n      returndatacopy\n      revert(0x00, returndatasize)\n    tag_185:\n      pop\n      pop\n      pop\n      pop\n        /* \"contracts/Marketplace2/Marketplace.sol\":18507:18537  _safeTransferToMarket(tokenId) */\n      tag_186\n        /* \"contracts/Marketplace2/Marketplace.sol\":18529:18536  tokenId */\n      dup4\n        /* \"contracts/Marketplace2/Marketplace.sol\":18507:18528  _safeTransferToMarket */\n      tag_187\n        /* \"contracts/Marketplace2/Marketplace.sol\":18507:18537  _safeTransferToMarket(tokenId) */\n      jump\t// in\n    tag_186:\n        /* \"contracts/Marketplace2/Marketplace.sol\":18543:18557  uint256 itemId */\n      0x00\n        /* \"contracts/Marketplace2/Marketplace.sol\":18560:18578  _itemIds.current() */\n      tag_188\n        /* \"contracts/Marketplace2/Marketplace.sol\":18560:18568  _itemIds */\n      0x0d\n        /* \"contracts/Marketplace2/Marketplace.sol\":18560:18576  _itemIds.current */\n      tag_189\n        /* \"contracts/Marketplace2/Marketplace.sol\":18560:18578  _itemIds.current() */\n      jump\t// in\n    tag_188:\n        /* \"contracts/Marketplace2/Marketplace.sol\":18543:18578  uint256 itemId = _itemIds.current() */\n      swap1\n      pop\n        /* \"contracts/Marketplace2/Marketplace.sol\":18610:18733  MarketItem(... */\n      mload(0x40)\n      dup1\n      0xc0\n      add\n      0x40\n      mstore\n      dup1\n        /* \"contracts/Marketplace2/Marketplace.sol\":18628:18634  itemId */\n      dup3\n        /* \"contracts/Marketplace2/Marketplace.sol\":18610:18733  MarketItem(... */\n      dup2\n      mstore\n      0x20\n      add\n        /* \"contracts/Marketplace2/Marketplace.sol\":18642:18649  tokenId */\n      dup6\n        /* \"contracts/Marketplace2/Marketplace.sol\":18610:18733  MarketItem(... */\n      dup2\n      mstore\n      0x20\n      add\n        /* \"contracts/Marketplace2/Marketplace.sol\":18657:18667  msg.sender */\n      caller\n        /* \"contracts/Marketplace2/Marketplace.sol\":18610:18733  MarketItem(... */\n      0xffffffffffffffffffffffffffffffffffffffff\n      and\n      dup2\n      mstore\n      0x20\n      add\n        /* \"contracts/Marketplace2/Marketplace.sol\":18683:18687  this */\n      address\n        /* \"contracts/Marketplace2/Marketplace.sol\":18610:18733  MarketItem(... */\n      0xffffffffffffffffffffffffffffffffffffffff\n      and\n      dup2\n      mstore\n      0x20\n      add\n        /* \"contracts/Marketplace2/Marketplace.sol\":18696:18701  price */\n      dup5\n        /* \"contracts/Marketplace2/Marketplace.sol\":18610:18733  MarketItem(... */\n      dup2\n      mstore\n      0x20\n      add\n        /* \"contracts/Marketplace2/Marketplace.sol\":18709:18727  ItemStatus.SELLING */\n      0x01\n        /* \"contracts/Marketplace2/Marketplace.sol\":18610:18733  MarketItem(... */\n      dup1\n      dup2\n      gt\n      iszero\n      tag_190\n      jumpi\n      tag_191\n      tag_116\n      jump\t// in\n    tag_191:\n    tag_190:\n      dup2\n      mstore\n      pop\n        /* \"contracts/Marketplace2/Marketplace.sol\":18584:18598  idToMarketItem */\n      0x0f\n        /* \"contracts/Marketplace2/Marketplace.sol\":18584:18606  idToMarketItem[itemId] */\n      0x00\n        /* \"contracts/Marketplace2/Marketplace.sol\":18599:18605  itemId */\n      dup4\n        /* \"contracts/Marketplace2/Marketplace.sol\":18584:18606  idToMarketItem[itemId] */\n      dup2\n      mstore\n      0x20\n      add\n      swap1\n      dup2\n      mstore\n      0x20\n      add\n      0x00\n      keccak256\n        /* \"contracts/Marketplace2/Marketplace.sol\":18584:18733  idToMarketItem[itemId] =  MarketItem(... */\n      0x00\n      dup3\n      add\n      mload\n      dup2\n      0x00\n      add\n      sstore\n      0x20\n      dup3\n      add\n      mload\n      dup2\n      0x01\n      add\n      sstore\n      0x40\n      dup3\n      add\n      mload\n      dup2\n      0x02\n      add\n      exp(0x0100, 0x00)\n      dup2\n      sload\n      dup2\n      0xffffffffffffffffffffffffffffffffffffffff\n      mul\n      not\n      and\n      swap1\n      dup4\n      0xffffffffffffffffffffffffffffffffffffffff\n      and\n      mul\n      or\n      swap1\n      sstore\n      pop\n      0x60\n      dup3\n      add\n      mload\n      dup2\n      0x03\n      add\n      exp(0x0100, 0x00)\n      dup2\n      sload\n      dup2\n      0xffffffffffffffffffffffffffffffffffffffff\n      mul\n      not\n      and\n      swap1\n      dup4\n      0xffffffffffffffffffffffffffffffffffffffff\n      and\n      mul\n      or\n      swap1\n      sstore\n      pop\n      0x80\n      dup3\n      add\n      mload\n      dup2\n      0x04\n      add\n      sstore\n      0xa0\n      dup3\n      add\n      mload\n      dup2\n      0x05\n      add\n      exp(0x0100, 0x00)\n      dup2\n      sload\n      dup2\n      0xff\n      mul\n      not\n      and\n      swap1\n      dup4\n      0x01\n      dup2\n      gt\n      iszero\n      tag_192\n      jumpi\n      tag_193\n      tag_116\n      jump\t// in\n    tag_193:\n    tag_192:\n      mul\n      or\n      swap1\n      sstore\n      pop\n      swap1\n      pop\n      pop\n        /* \"contracts/Marketplace2/Marketplace.sol\":18739:18759  _itemIds.increment() */\n      tag_194\n        /* \"contracts/Marketplace2/Marketplace.sol\":18739:18747  _itemIds */\n      0x0d\n        /* \"contracts/Marketplace2/Marketplace.sol\":18739:18757  _itemIds.increment */\n      tag_195\n        /* \"contracts/Marketplace2/Marketplace.sol\":18739:18759  _itemIds.increment() */\n      jump\t// in\n    tag_194:\n        /* \"contracts/Marketplace2/Marketplace.sol\":18810:18817  tokenId */\n      dup4\n        /* \"contracts/Marketplace2/Marketplace.sol\":18796:18802  itemId */\n      dup2\n        /* \"contracts/Marketplace2/Marketplace.sol\":18771:18875  MarketItemCreated(... */\n      0x38690a554ffbc44eb6a75016e47d517d0db8e6c37494adc68d6d0b2c66f0ab21\n        /* \"contracts/Marketplace2/Marketplace.sol\":18825:18835  msg.sender */\n      caller\n        /* \"contracts/Marketplace2/Marketplace.sol\":18851:18855  this */\n      address\n        /* \"contracts/Marketplace2/Marketplace.sol\":18864:18869  price */\n      dup8\n        /* \"contracts/Marketplace2/Marketplace.sol\":18771:18875  MarketItemCreated(... */\n      mload(0x40)\n      tag_196\n      swap4\n      swap3\n      swap2\n      swap1\n      tag_136\n      jump\t// in\n    tag_196:\n      mload(0x40)\n      dup1\n      swap2\n      sub\n      swap1\n      log3\n        /* \"contracts/Marketplace2/Marketplace.sol\":18165:18880  {... */\n      pop\n      pop\n        /* \"contracts/Marketplace2/Marketplace.sol\":14122:14123  1 */\n      0x01\n        /* \"contracts/Marketplace2/Marketplace.sol\":15049:15056  _status */\n      0x00\n        /* \"contracts/Marketplace2/Marketplace.sol\":15049:15071  _status = _NOT_ENTERED */\n      dup2\n      swap1\n      sstore\n      pop\n        /* \"contracts/Marketplace2/Marketplace.sol\":18067:18880  function createMarketItem(... */\n      pop\n      pop\n      jump\t// out\n        /* \"contracts/Marketplace2/Marketplace.sol\":16212:16235  IERC20 public mainToken */\n    tag_49:\n      0x09\n      0x00\n      swap1\n      sload\n      swap1\n      0x0100\n      exp\n      swap1\n      div\n      0xffffffffffffffffffffffffffffffffffffffff\n      and\n      dup2\n      jump\t// out\n        /* \"contracts/Marketplace2/Marketplace.sol\":15912:15944  MarketItem public allMarketItems */\n    tag_54:\n      0x01\n      dup1\n      0x00\n      add\n      sload\n      swap1\n      dup1\n      0x01\n      add\n      sload\n      swap1\n      dup1\n      0x02\n      add\n      0x00\n      swap1\n      sload\n      swap1\n      0x0100\n      exp\n      swap1\n      div\n      0xffffffffffffffffffffffffffffffffffffffff\n      and\n      swap1\n      dup1\n      0x03\n      add\n      0x00\n      swap1\n      sload\n      swap1\n      0x0100\n      exp\n      swap1\n      div\n      0xffffffffffffffffffffffffffffffffffffffff\n      and\n      swap1\n      dup1\n      0x04\n      add\n      sload\n      swap1\n      dup1\n      0x05\n      add\n      0x00\n      swap1\n      sload\n      swap1\n      0x0100\n      exp\n      swap1\n      div\n      0xff\n      and\n      swap1\n      pop\n      dup7\n      jump\t// out\n        /* \"contracts/Marketplace2/Marketplace.sol\":17961:18063  function setFactory(address _address) external onlyOwner {... */\n    tag_60:\n        /* \"contracts/Marketplace2/Marketplace.sol\":1899:1911  _msgSender() */\n      tag_198\n        /* \"contracts/Marketplace2/Marketplace.sol\":1899:1909  _msgSender */\n      tag_148\n        /* \"contracts/Marketplace2/Marketplace.sol\":1899:1911  _msgSender() */\n      jump\t// in\n    tag_198:\n        /* \"contracts/Marketplace2/Marketplace.sol\":1888:1911  owner() == _msgSender() */\n      0xffffffffffffffffffffffffffffffffffffffff\n      and\n        /* \"contracts/Marketplace2/Marketplace.sol\":1888:1895  owner() */\n      tag_199\n        /* \"contracts/Marketplace2/Marketplace.sol\":1888:1893  owner */\n      tag_77\n        /* \"contracts/Marketplace2/Marketplace.sol\":1888:1895  owner() */\n      jump\t// in\n    tag_199:\n        /* \"contracts/Marketplace2/Marketplace.sol\":1888:1911  owner() == _msgSender() */\n      0xffffffffffffffffffffffffffffffffffffffff\n      and\n      eq\n        /* \"contracts/Marketplace2/Marketplace.sol\":1880:1948  require(owner() == _msgSender(), \"Ownable: caller is not the owner\") */\n      tag_200\n      jumpi\n      mload(0x40)\n      0x08c379a000000000000000000000000000000000000000000000000000000000\n      dup2\n      mstore\n      0x04\n      add\n      tag_201\n      swap1\n      tag_152\n      jump\t// in\n    tag_201:\n      mload(0x40)\n      dup1\n      swap2\n      sub\n      swap1\n      revert\n    tag_200:\n        /* \"contracts/Marketplace2/Marketplace.sol\":18047:18055  _address */\n      dup1\n        /* \"contracts/Marketplace2/Marketplace.sol\":18028:18035  factory */\n      0x0a\n      0x00\n        /* \"contracts/Marketplace2/Marketplace.sol\":18028:18056  factory = IFactory(_address) */\n      0x0100\n      exp\n      dup2\n      sload\n      dup2\n      0xffffffffffffffffffffffffffffffffffffffff\n      mul\n      not\n      and\n      swap1\n      dup4\n      0xffffffffffffffffffffffffffffffffffffffff\n      and\n      mul\n      or\n      swap1\n      sstore\n      pop\n        /* \"contracts/Marketplace2/Marketplace.sol\":17961:18063  function setFactory(address _address) external onlyOwner {... */\n      pop\n      jump\t// out\n        /* \"contracts/Marketplace2/Marketplace.sol\":16142:16205  mapping(address => mapping(uint256 => MarketItem)) public items */\n    tag_65:\n      mstore(0x20, 0x08)\n      dup2\n      0x00\n      mstore\n      mstore(0x20, keccak256(0x00, 0x40))\n      dup1\n      0x00\n      mstore\n      keccak256(0x00, 0x40)\n      0x00\n      swap2\n      pop\n      swap2\n      pop\n      pop\n      dup1\n      0x00\n      add\n      sload\n      swap1\n      dup1\n      0x01\n      add\n      sload\n      swap1\n      dup1\n      0x02\n      add\n      0x00\n      swap1\n      sload\n      swap1\n      0x0100\n      exp\n      swap1\n      div\n      0xffffffffffffffffffffffffffffffffffffffff\n      and\n      swap1\n      dup1\n      0x03\n      add\n      0x00\n      swap1\n      sload\n      swap1\n      0x0100\n      exp\n      swap1\n      div\n      0xffffffffffffffffffffffffffffffffffffffff\n      and\n      swap1\n      dup1\n      0x04\n      add\n      sload\n      swap1\n      dup1\n      0x05\n      add\n      0x00\n      swap1\n      sload\n      swap1\n      0x0100\n      exp\n      swap1\n      div\n      0xff\n      and\n      swap1\n      pop\n      dup7\n      jump\t// out\n        /* \"contracts/Marketplace2/Marketplace.sol\":2308:2409  function renounceOwnership() public virtual onlyOwner {... */\n    tag_69:\n        /* \"contracts/Marketplace2/Marketplace.sol\":1899:1911  _msgSender() */\n      tag_204\n        /* \"contracts/Marketplace2/Marketplace.sol\":1899:1909  _msgSender */\n      tag_148\n        /* \"contracts/Marketplace2/Marketplace.sol\":1899:1911  _msgSender() */\n      jump\t// in\n    tag_204:\n        /* \"contracts/Marketplace2/Marketplace.sol\":1888:1911  owner() == _msgSender() */\n      0xffffffffffffffffffffffffffffffffffffffff\n      and\n        /* \"contracts/Marketplace2/Marketplace.sol\":1888:1895  owner() */\n      tag_205\n        /* \"contracts/Marketplace2/Marketplace.sol\":1888:1893  owner */\n      tag_77\n        /* \"contracts/Marketplace2/Marketplace.sol\":1888:1895  owner() */\n      jump\t// in\n    tag_205:\n        /* \"contracts/Marketplace2/Marketplace.sol\":1888:1911  owner() == _msgSender() */\n      0xffffffffffffffffffffffffffffffffffffffff\n      and\n      eq\n        /* \"contracts/Marketplace2/Marketplace.sol\":1880:1948  require(owner() == _msgSender(), \"Ownable: caller is not the owner\") */\n      tag_206\n      jumpi\n      mload(0x40)\n      0x08c379a000000000000000000000000000000000000000000000000000000000\n      dup2\n      mstore\n      0x04\n      add\n      tag_207\n      swap1\n      tag_152\n      jump\t// in\n    tag_207:\n      mload(0x40)\n      dup1\n      swap2\n      sub\n      swap1\n      revert\n    tag_206:\n        /* \"contracts/Marketplace2/Marketplace.sol\":2372:2402  _transferOwnership(address(0)) */\n      tag_209\n        /* \"contracts/Marketplace2/Marketplace.sol\":2399:2400  0 */\n      0x00\n        /* \"contracts/Marketplace2/Marketplace.sol\":2372:2390  _transferOwnership */\n      tag_210\n        /* \"contracts/Marketplace2/Marketplace.sol\":2372:2402  _transferOwnership(address(0)) */\n      jump\t// in\n    tag_209:\n        /* \"contracts/Marketplace2/Marketplace.sol\":2308:2409  function renounceOwnership() public virtual onlyOwner {... */\n      jump\t// out\n        /* \"contracts/Marketplace2/Marketplace.sol\":16300:16326  uint8 public bnbFeePercent */\n    tag_72:\n      0x0b\n      0x14\n      swap1\n      sload\n      swap1\n      0x0100\n      exp\n      swap1\n      div\n      0xff\n      and\n      dup2\n      jump\t// out\n        /* \"contracts/Marketplace2/Marketplace.sol\":1676:1761  function owner() public view virtual returns (address) {... */\n    tag_77:\n        /* \"contracts/Marketplace2/Marketplace.sol\":1722:1729  address */\n      0x00\n        /* \"contracts/Marketplace2/Marketplace.sol\":1748:1754  _owner */\n      0x0c\n      0x00\n      swap1\n      sload\n      swap1\n      0x0100\n      exp\n      swap1\n      div\n      0xffffffffffffffffffffffffffffffffffffffff\n      and\n        /* \"contracts/Marketplace2/Marketplace.sol\":1741:1754  return _owner */\n      swap1\n      pop\n        /* \"contracts/Marketplace2/Marketplace.sol\":1676:1761  function owner() public view virtual returns (address) {... */\n      swap1\n      jump\t// out\n        /* \"contracts/Marketplace2/Marketplace.sol\":18883:19700  function createMarketSale(... */\n    tag_83:\n        /* \"contracts/Marketplace2/Marketplace.sol\":18968:18978  uint price */\n      0x00\n        /* \"contracts/Marketplace2/Marketplace.sol\":18981:18995  idToMarketItem */\n      0x0f\n        /* \"contracts/Marketplace2/Marketplace.sol\":18981:19003  idToMarketItem[itemId] */\n      0x00\n        /* \"contracts/Marketplace2/Marketplace.sol\":18996:19002  itemId */\n      dup5\n        /* \"contracts/Marketplace2/Marketplace.sol\":18981:19003  idToMarketItem[itemId] */\n      dup2\n      mstore\n      0x20\n      add\n      swap1\n      dup2\n      mstore\n      0x20\n      add\n      0x00\n      keccak256\n        /* \"contracts/Marketplace2/Marketplace.sol\":18981:19009  idToMarketItem[itemId].price */\n      0x04\n      add\n      sload\n        /* \"contracts/Marketplace2/Marketplace.sol\":18968:19009  uint price = idToMarketItem[itemId].price */\n      swap1\n      pop\n        /* \"contracts/Marketplace2/Marketplace.sol\":19015:19027  uint tokenId */\n      0x00\n        /* \"contracts/Marketplace2/Marketplace.sol\":19030:19044  idToMarketItem */\n      0x0f\n        /* \"contracts/Marketplace2/Marketplace.sol\":19030:19052  idToMarketItem[itemId] */\n      0x00\n        /* \"contracts/Marketplace2/Marketplace.sol\":19045:19051  itemId */\n      dup6\n        /* \"contracts/Marketplace2/Marketplace.sol\":19030:19052  idToMarketItem[itemId] */\n      dup2\n      mstore\n      0x20\n      add\n      swap1\n      dup2\n      mstore\n      0x20\n      add\n      0x00\n      keccak256\n        /* \"contracts/Marketplace2/Marketplace.sol\":19030:19060  idToMarketItem[itemId].tokenId */\n      0x01\n      add\n      sload\n        /* \"contracts/Marketplace2/Marketplace.sol\":19015:19060  uint tokenId = idToMarketItem[itemId].tokenId */\n      swap1\n      pop\n        /* \"contracts/Marketplace2/Marketplace.sol\":19066:19080  address seller */\n      0x00\n        /* \"contracts/Marketplace2/Marketplace.sol\":19084:19098  idToMarketItem */\n      0x0f\n        /* \"contracts/Marketplace2/Marketplace.sol\":19084:19106  idToMarketItem[itemId] */\n      0x00\n        /* \"contracts/Marketplace2/Marketplace.sol\":19099:19105  itemId */\n      dup7\n        /* \"contracts/Marketplace2/Marketplace.sol\":19084:19106  idToMarketItem[itemId] */\n      dup2\n      mstore\n      0x20\n      add\n      swap1\n      dup2\n      mstore\n      0x20\n      add\n      0x00\n      keccak256\n        /* \"contracts/Marketplace2/Marketplace.sol\":19084:19113  idToMarketItem[itemId].seller */\n      0x02\n      add\n      0x00\n      swap1\n      sload\n      swap1\n      0x0100\n      exp\n      swap1\n      div\n      0xffffffffffffffffffffffffffffffffffffffff\n      and\n        /* \"contracts/Marketplace2/Marketplace.sol\":19066:19113  address seller =  idToMarketItem[itemId].seller */\n      swap1\n      pop\n        /* \"contracts/Marketplace2/Marketplace.sol\":19119:19152  StructLib.ingameItems memory item */\n      0x00\n        /* \"contracts/Marketplace2/Marketplace.sol\":19155:19162  factory */\n      0x0a\n      0x00\n      swap1\n      sload\n      swap1\n      0x0100\n      exp\n      swap1\n      div\n      0xffffffffffffffffffffffffffffffffffffffff\n      and\n        /* \"contracts/Marketplace2/Marketplace.sol\":19155:19176  factory.getIngameItem */\n      0xffffffffffffffffffffffffffffffffffffffff\n      and\n      0x03ce1cb5\n        /* \"contracts/Marketplace2/Marketplace.sol\":19177:19184  tokenId */\n      dup5\n        /* \"contracts/Marketplace2/Marketplace.sol\":19155:19185  factory.getIngameItem(tokenId) */\n      mload(0x40)\n      dup3\n      0xffffffff\n      and\n      0xe0\n      shl\n      dup2\n      mstore\n      0x04\n      add\n      tag_213\n      swap2\n      swap1\n      tag_169\n      jump\t// in\n    tag_213:\n      0x00\n      mload(0x40)\n      dup1\n      dup4\n      sub\n      dup2\n      dup7\n      gas\n      staticcall\n      iszero\n      dup1\n      iszero\n      tag_215\n      jumpi\n      returndatasize\n      0x00\n      dup1\n      returndatacopy\n      revert(0x00, returndatasize)\n    tag_215:\n      pop\n      pop\n      pop\n      pop\n      mload(0x40)\n      returndatasize\n      0x00\n      dup3\n      returndatacopy\n      returndatasize\n      not(0x1f)\n      0x1f\n      dup3\n      add\n      and\n      dup3\n      add\n      dup1\n      0x40\n      mstore\n      pop\n      dup2\n      add\n      swap1\n      tag_216\n      swap2\n      swap1\n      tag_173\n      jump\t// in\n    tag_216:\n        /* \"contracts/Marketplace2/Marketplace.sol\":19119:19185  StructLib.ingameItems memory item = factory.getIngameItem(tokenId) */\n      swap1\n      pop\n        /* \"contracts/Marketplace2/Marketplace.sol\":19209:19214  price */\n      dup4\n        /* \"contracts/Marketplace2/Marketplace.sol\":19199:19205  amount */\n      dup6\n        /* \"contracts/Marketplace2/Marketplace.sol\":19199:19214  amount == price */\n      eq\n        /* \"contracts/Marketplace2/Marketplace.sol\":19191:19283  require(amount == price, \"Please submit the asking price in order to complete the purchase\") */\n      tag_217\n      jumpi\n      mload(0x40)\n      0x08c379a000000000000000000000000000000000000000000000000000000000\n      dup2\n      mstore\n      0x04\n      add\n      tag_218\n      swap1\n      tag_219\n      jump\t// in\n    tag_218:\n      mload(0x40)\n      dup1\n      swap2\n      sub\n      swap1\n      revert\n    tag_217:\n        /* \"contracts/Marketplace2/Marketplace.sol\":19312:19317  false */\n      0x00\n        /* \"contracts/Marketplace2/Marketplace.sol\":19297:19317  item.ingame == false */\n      iszero\n      iszero\n        /* \"contracts/Marketplace2/Marketplace.sol\":19297:19301  item */\n      dup2\n        /* \"contracts/Marketplace2/Marketplace.sol\":19297:19308  item.ingame */\n      0x80\n      add\n      mload\n        /* \"contracts/Marketplace2/Marketplace.sol\":19297:19317  item.ingame == false */\n      iszero\n      iszero\n      eq\n        /* \"contracts/Marketplace2/Marketplace.sol\":19289:19349  require(item.ingame == false, \"Item is not available now !\") */\n      tag_220\n      jumpi\n      mload(0x40)\n      0x08c379a000000000000000000000000000000000000000000000000000000000\n      dup2\n      mstore\n      0x04\n      add\n      tag_221\n      swap1\n      tag_176\n      jump\t// in\n    tag_221:\n      mload(0x40)\n      dup1\n      swap2\n      sub\n      swap1\n      revert\n    tag_220:\n        /* \"contracts/Marketplace2/Marketplace.sol\":19355:19390  _safeBuyItem(itemId,amount,tokenId) */\n      tag_222\n        /* \"contracts/Marketplace2/Marketplace.sol\":19368:19374  itemId */\n      dup7\n        /* \"contracts/Marketplace2/Marketplace.sol\":19375:19381  amount */\n      dup7\n        /* \"contracts/Marketplace2/Marketplace.sol\":19382:19389  tokenId */\n      dup6\n        /* \"contracts/Marketplace2/Marketplace.sol\":19355:19367  _safeBuyItem */\n      tag_223\n        /* \"contracts/Marketplace2/Marketplace.sol\":19355:19390  _safeBuyItem(itemId,amount,tokenId) */\n      jump\t// in\n    tag_222:\n        /* \"contracts/Marketplace2/Marketplace.sol\":19435:19445  msg.sender */\n      caller\n        /* \"contracts/Marketplace2/Marketplace.sol\":19396:19410  idToMarketItem */\n      0x0f\n        /* \"contracts/Marketplace2/Marketplace.sol\":19396:19418  idToMarketItem[itemId] */\n      0x00\n        /* \"contracts/Marketplace2/Marketplace.sol\":19411:19417  itemId */\n      dup9\n        /* \"contracts/Marketplace2/Marketplace.sol\":19396:19418  idToMarketItem[itemId] */\n      dup2\n      mstore\n      0x20\n      add\n      swap1\n      dup2\n      mstore\n      0x20\n      add\n      0x00\n      keccak256\n        /* \"contracts/Marketplace2/Marketplace.sol\":19396:19424  idToMarketItem[itemId].owner */\n      0x03\n      add\n      0x00\n        /* \"contracts/Marketplace2/Marketplace.sol\":19396:19446  idToMarketItem[itemId].owner = address(msg.sender) */\n      0x0100\n      exp\n      dup2\n      sload\n      dup2\n      0xffffffffffffffffffffffffffffffffffffffff\n      mul\n      not\n      and\n      swap1\n      dup4\n      0xffffffffffffffffffffffffffffffffffffffff\n      and\n      mul\n      or\n      swap1\n      sstore\n      pop\n        /* \"contracts/Marketplace2/Marketplace.sol\":19484:19500  ItemStatus.AVAIL */\n      0x00\n        /* \"contracts/Marketplace2/Marketplace.sol\":19452:19466  idToMarketItem */\n      0x0f\n        /* \"contracts/Marketplace2/Marketplace.sol\":19452:19474  idToMarketItem[itemId] */\n      0x00\n        /* \"contracts/Marketplace2/Marketplace.sol\":19467:19473  itemId */\n      dup9\n        /* \"contracts/Marketplace2/Marketplace.sol\":19452:19474  idToMarketItem[itemId] */\n      dup2\n      mstore\n      0x20\n      add\n      swap1\n      dup2\n      mstore\n      0x20\n      add\n      0x00\n      keccak256\n        /* \"contracts/Marketplace2/Marketplace.sol\":19452:19481  idToMarketItem[itemId].status */\n      0x05\n      add\n      0x00\n        /* \"contracts/Marketplace2/Marketplace.sol\":19452:19500  idToMarketItem[itemId].status = ItemStatus.AVAIL */\n      0x0100\n      exp\n      dup2\n      sload\n      dup2\n      0xff\n      mul\n      not\n      and\n      swap1\n      dup4\n      0x01\n      dup2\n      gt\n      iszero\n      tag_224\n      jumpi\n      tag_225\n      tag_116\n      jump\t// in\n    tag_225:\n    tag_224:\n      mul\n      or\n      swap1\n      sstore\n      pop\n        /* \"contracts/Marketplace2/Marketplace.sol\":19506:19528  _itemsSold.increment() */\n      tag_226\n        /* \"contracts/Marketplace2/Marketplace.sol\":19506:19516  _itemsSold */\n      0x0e\n        /* \"contracts/Marketplace2/Marketplace.sol\":19506:19526  _itemsSold.increment */\n      tag_195\n        /* \"contracts/Marketplace2/Marketplace.sol\":19506:19528  _itemsSold.increment() */\n      jump\t// in\n    tag_226:\n        /* \"contracts/Marketplace2/Marketplace.sol\":19638:19648  msg.sender */\n      caller\n        /* \"contracts/Marketplace2/Marketplace.sol\":19539:19695  BuyItemSuccessful(... */\n      0xffffffffffffffffffffffffffffffffffffffff\n      and\n        /* \"contracts/Marketplace2/Marketplace.sol\":19599:19605  seller */\n      dup3\n        /* \"contracts/Marketplace2/Marketplace.sol\":19539:19695  BuyItemSuccessful(... */\n      0xffffffffffffffffffffffffffffffffffffffff\n      and\n        /* \"contracts/Marketplace2/Marketplace.sol\":19582:19589  tokenId */\n      dup5\n        /* \"contracts/Marketplace2/Marketplace.sol\":19539:19695  BuyItemSuccessful(... */\n      0x551327aee12d0a8b3ede8d0e3182a40a5ff3ed9f1811dd622915db30b609b7df\n        /* \"contracts/Marketplace2/Marketplace.sol\":19566:19572  itemId */\n      dup10\n        /* \"contracts/Marketplace2/Marketplace.sol\":19615:19620  price */\n      dup9\n        /* \"contracts/Marketplace2/Marketplace.sol\":19674:19689  block.timestamp */\n      timestamp\n        /* \"contracts/Marketplace2/Marketplace.sol\":19539:19695  BuyItemSuccessful(... */\n      mload(0x40)\n      tag_227\n      swap4\n      swap3\n      swap2\n      swap1\n      tag_228\n      jump\t// in\n    tag_227:\n      mload(0x40)\n      dup1\n      swap2\n      sub\n      swap1\n      log4\n        /* \"contracts/Marketplace2/Marketplace.sol\":18962:19700  {... */\n      pop\n      pop\n      pop\n      pop\n        /* \"contracts/Marketplace2/Marketplace.sol\":18883:19700  function createMarketSale(... */\n      pop\n      pop\n      jump\t// out\n        /* \"contracts/Marketplace2/Marketplace.sol\":16332:16359  uint8 public antaFeePercent */\n    tag_86:\n      0x0b\n      0x15\n      swap1\n      sload\n      swap1\n      0x0100\n      exp\n      swap1\n      div\n      0xff\n      and\n      dup2\n      jump\t// out\n        /* \"contracts/Marketplace2/Marketplace.sol\":16241:16264  IFactory public factory */\n    tag_90:\n      0x0a\n      0x00\n      swap1\n      sload\n      swap1\n      0x0100\n      exp\n      swap1\n      div\n      0xffffffffffffffffffffffffffffffffffffffff\n      and\n      dup2\n      jump\t// out\n        /* \"contracts/Marketplace2/Marketplace.sol\":17602:17739  function getMarketItem(uint256 marketItemId) public view returns (MarketItem memory) {... */\n    tag_96:\n        /* \"contracts/Marketplace2/Marketplace.sol\":17668:17685  MarketItem memory */\n      tag_229\n      tag_230\n      jump\t// in\n    tag_229:\n        /* \"contracts/Marketplace2/Marketplace.sol\":17704:17718  idToMarketItem */\n      0x0f\n        /* \"contracts/Marketplace2/Marketplace.sol\":17704:17732  idToMarketItem[marketItemId] */\n      0x00\n        /* \"contracts/Marketplace2/Marketplace.sol\":17719:17731  marketItemId */\n      dup4\n        /* \"contracts/Marketplace2/Marketplace.sol\":17704:17732  idToMarketItem[marketItemId] */\n      dup2\n      mstore\n      0x20\n      add\n      swap1\n      dup2\n      mstore\n      0x20\n      add\n      0x00\n      keccak256\n        /* \"contracts/Marketplace2/Marketplace.sol\":17697:17732  return idToMarketItem[marketItemId] */\n      mload(0x40)\n      dup1\n      0xc0\n      add\n      0x40\n      mstore\n      swap1\n      dup2\n      0x00\n      dup3\n      add\n      sload\n      dup2\n      mstore\n      0x20\n      add\n      0x01\n      dup3\n      add\n      sload\n      dup2\n      mstore\n      0x20\n      add\n      0x02\n      dup3\n      add\n      0x00\n      swap1\n      sload\n      swap1\n      0x0100\n      exp\n      swap1\n      div\n      0xffffffffffffffffffffffffffffffffffffffff\n      and\n      0xffffffffffffffffffffffffffffffffffffffff\n      and\n      0xffffffffffffffffffffffffffffffffffffffff\n      and\n      dup2\n      mstore\n      0x20\n      add\n      0x03\n      dup3\n      add\n      0x00\n      swap1\n      sload\n      swap1\n      0x0100\n      exp\n      swap1\n      div\n      0xffffffffffffffffffffffffffffffffffffffff\n      and\n      0xffffffffffffffffffffffffffffffffffffffff\n      and\n      0xffffffffffffffffffffffffffffffffffffffff\n      and\n      dup2\n      mstore\n      0x20\n      add\n      0x04\n      dup3\n      add\n      sload\n      dup2\n      mstore\n      0x20\n      add\n      0x05\n      dup3\n      add\n      0x00\n      swap1\n      sload\n      swap1\n      0x0100\n      exp\n      swap1\n      div\n      0xff\n      and\n      0x01\n      dup2\n      gt\n      iszero\n      tag_232\n      jumpi\n      tag_233\n      tag_116\n      jump\t// in\n    tag_233:\n    tag_232:\n      0x01\n      dup2\n      gt\n      iszero\n      tag_234\n      jumpi\n      tag_235\n      tag_116\n      jump\t// in\n    tag_235:\n    tag_234:\n      dup2\n      mstore\n      pop\n      pop\n      swap1\n      pop\n        /* \"contracts/Marketplace2/Marketplace.sol\":17602:17739  function getMarketItem(uint256 marketItemId) public view returns (MarketItem memory) {... */\n      swap2\n      swap1\n      pop\n      jump\t// out\n        /* \"contracts/Marketplace2/Marketplace.sol\":2558:2756  function transferOwnership(address newOwner) public virtual onlyOwner {... */\n    tag_102:\n        /* \"contracts/Marketplace2/Marketplace.sol\":1899:1911  _msgSender() */\n      tag_237\n        /* \"contracts/Marketplace2/Marketplace.sol\":1899:1909  _msgSender */\n      tag_148\n        /* \"contracts/Marketplace2/Marketplace.sol\":1899:1911  _msgSender() */\n      jump\t// in\n    tag_237:\n        /* \"contracts/Marketplace2/Marketplace.sol\":1888:1911  owner() == _msgSender() */\n      0xffffffffffffffffffffffffffffffffffffffff\n      and\n        /* \"contracts/Marketplace2/Marketplace.sol\":1888:1895  owner() */\n      tag_238\n        /* \"contracts/Marketplace2/Marketplace.sol\":1888:1893  owner */\n      tag_77\n        /* \"contracts/Marketplace2/Marketplace.sol\":1888:1895  owner() */\n      jump\t// in\n    tag_238:\n        /* \"contracts/Marketplace2/Marketplace.sol\":1888:1911  owner() == _msgSender() */\n      0xffffffffffffffffffffffffffffffffffffffff\n      and\n      eq\n        /* \"contracts/Marketplace2/Marketplace.sol\":1880:1948  require(owner() == _msgSender(), \"Ownable: caller is not the owner\") */\n      tag_239\n      jumpi\n      mload(0x40)\n      0x08c379a000000000000000000000000000000000000000000000000000000000\n      dup2\n      mstore\n      0x04\n      add\n      tag_240\n      swap1\n      tag_152\n      jump\t// in\n    tag_240:\n      mload(0x40)\n      dup1\n      swap2\n      sub\n      swap1\n      revert\n    tag_239:\n        /* \"contracts/Marketplace2/Marketplace.sol\":2666:2667  0 */\n      0x00\n        /* \"contracts/Marketplace2/Marketplace.sol\":2646:2668  newOwner != address(0) */\n      0xffffffffffffffffffffffffffffffffffffffff\n      and\n        /* \"contracts/Marketplace2/Marketplace.sol\":2646:2654  newOwner */\n      dup2\n        /* \"contracts/Marketplace2/Marketplace.sol\":2646:2668  newOwner != address(0) */\n      0xffffffffffffffffffffffffffffffffffffffff\n      and\n      sub\n        /* \"contracts/Marketplace2/Marketplace.sol\":2638:2711  require(newOwner != address(0), \"Ownable: new owner is the zero address\") */\n      tag_242\n      jumpi\n      mload(0x40)\n      0x08c379a000000000000000000000000000000000000000000000000000000000\n      dup2\n      mstore\n      0x04\n      add\n      tag_243\n      swap1\n      tag_244\n      jump\t// in\n    tag_243:\n      mload(0x40)\n      dup1\n      swap2\n      sub\n      swap1\n      revert\n    tag_242:\n        /* \"contracts/Marketplace2/Marketplace.sol\":2721:2749  _transferOwnership(newOwner) */\n      tag_245\n        /* \"contracts/Marketplace2/Marketplace.sol\":2740:2748  newOwner */\n      dup2\n        /* \"contracts/Marketplace2/Marketplace.sol\":2721:2739  _transferOwnership */\n      tag_210\n        /* \"contracts/Marketplace2/Marketplace.sol\":2721:2749  _transferOwnership(newOwner) */\n      jump\t// in\n    tag_245:\n        /* \"contracts/Marketplace2/Marketplace.sol\":2558:2756  function transferOwnership(address newOwner) public virtual onlyOwner {... */\n      pop\n      jump\t// out\n        /* \"contracts/Marketplace2/Marketplace.sol\":16270:16293  IERC721 public mainNFTs */\n    tag_105:\n      0x0b\n      0x00\n      swap1\n      sload\n      swap1\n      0x0100\n      exp\n      swap1\n      div\n      0xffffffffffffffffffffffffffffffffffffffff\n      and\n      dup2\n      jump\t// out\n        /* \"contracts/Marketplace2/Marketplace.sol\":16018:16065  mapping (uint256 => MarketItem) public allItems */\n    tag_111:\n      mstore(0x20, 0x07)\n      dup1\n      0x00\n      mstore\n      keccak256(0x00, 0x40)\n      0x00\n      swap2\n      pop\n      swap1\n      pop\n      dup1\n      0x00\n      add\n      sload\n      swap1\n      dup1\n      0x01\n      add\n      sload\n      swap1\n      dup1\n      0x02\n      add\n      0x00\n      swap1\n      sload\n      swap1\n      0x0100\n      exp\n      swap1\n      div\n      0xffffffffffffffffffffffffffffffffffffffff\n      and\n      swap1\n      dup1\n      0x03\n      add\n      0x00\n      swap1\n      sload\n      swap1\n      0x0100\n      exp\n      swap1\n      div\n      0xffffffffffffffffffffffffffffffffffffffff\n      and\n      swap1\n      dup1\n      0x04\n      add\n      sload\n      swap1\n      dup1\n      0x05\n      add\n      0x00\n      swap1\n      sload\n      swap1\n      0x0100\n      exp\n      swap1\n      div\n      0xff\n      and\n      swap1\n      pop\n      dup7\n      jump\t// out\n        /* \"contracts/Marketplace2/Marketplace.sol\":554:650  function _msgSender() internal view virtual returns (address) {... */\n    tag_148:\n        /* \"contracts/Marketplace2/Marketplace.sol\":607:614  address */\n      0x00\n        /* \"contracts/Marketplace2/Marketplace.sol\":633:643  msg.sender */\n      caller\n        /* \"contracts/Marketplace2/Marketplace.sol\":626:643  return msg.sender */\n      swap1\n      pop\n        /* \"contracts/Marketplace2/Marketplace.sol\":554:650  function _msgSender() internal view virtual returns (address) {... */\n      swap1\n      jump\t// out\n        /* \"contracts/Marketplace2/Marketplace.sol\":20476:20677  function _safeTransferToMarket(uint256 tokenId) private {... */\n    tag_187:\n        /* \"contracts/Marketplace2/Marketplace.sol\":20542:20549  factory */\n      0x0a\n      0x00\n      swap1\n      sload\n      swap1\n      0x0100\n      exp\n      swap1\n      div\n      0xffffffffffffffffffffffffffffffffffffffff\n      and\n        /* \"contracts/Marketplace2/Marketplace.sol\":20542:20568  factory.setOwnerIngameItem */\n      0xffffffffffffffffffffffffffffffffffffffff\n      and\n      0xc1e9518a\n        /* \"contracts/Marketplace2/Marketplace.sol\":20569:20579  msg.sender */\n      caller\n        /* \"contracts/Marketplace2/Marketplace.sol\":20588:20592  this */\n      address\n        /* \"contracts/Marketplace2/Marketplace.sol\":20595:20602  tokenId */\n      dup5\n        /* \"contracts/Marketplace2/Marketplace.sol\":20542:20603  factory.setOwnerIngameItem(msg.sender,address(this), tokenId) */\n      mload(0x40)\n      dup5\n      0xffffffff\n      and\n      0xe0\n      shl\n      dup2\n      mstore\n      0x04\n      add\n      tag_248\n      swap4\n      swap3\n      swap2\n      swap1\n      tag_136\n      jump\t// in\n    tag_248:\n      0x00\n      mload(0x40)\n      dup1\n      dup4\n      sub\n      dup2\n      0x00\n      dup8\n      dup1\n      extcodesize\n      iszero\n      dup1\n      iszero\n      tag_249\n      jumpi\n      0x00\n      dup1\n      revert\n    tag_249:\n      pop\n      gas\n      call\n      iszero\n      dup1\n      iszero\n      tag_251\n      jumpi\n      returndatasize\n      0x00\n      dup1\n      returndatacopy\n      revert(0x00, returndatasize)\n    tag_251:\n      pop\n      pop\n      pop\n      pop\n        /* \"contracts/Marketplace2/Marketplace.sol\":20613:20621  mainNFTs */\n      0x0b\n      0x00\n      swap1\n      sload\n      swap1\n      0x0100\n      exp\n      swap1\n      div\n      0xffffffffffffffffffffffffffffffffffffffff\n      and\n        /* \"contracts/Marketplace2/Marketplace.sol\":20613:20634  mainNFTs.transferFrom */\n      0xffffffffffffffffffffffffffffffffffffffff\n      and\n      0x23b872dd\n        /* \"contracts/Marketplace2/Marketplace.sol\":20635:20645  msg.sender */\n      caller\n        /* \"contracts/Marketplace2/Marketplace.sol\":20655:20659  this */\n      address\n        /* \"contracts/Marketplace2/Marketplace.sol\":20662:20669  tokenId */\n      dup5\n        /* \"contracts/Marketplace2/Marketplace.sol\":20613:20670  mainNFTs.transferFrom(msg.sender, address(this), tokenId) */\n      mload(0x40)\n      dup5\n      0xffffffff\n      and\n      0xe0\n      shl\n      dup2\n      mstore\n      0x04\n      add\n      tag_252\n      swap4\n      swap3\n      swap2\n      swap1\n      tag_136\n      jump\t// in\n    tag_252:\n      0x00\n      mload(0x40)\n      dup1\n      dup4\n      sub\n      dup2\n      0x00\n      dup8\n      dup1\n      extcodesize\n      iszero\n      dup1\n      iszero\n      tag_253\n      jumpi\n      0x00\n      dup1\n      revert\n    tag_253:\n      pop\n      gas\n      call\n      iszero\n      dup1\n      iszero\n      tag_255\n      jumpi\n      returndatasize\n      0x00\n      dup1\n      returndatacopy\n      revert(0x00, returndatasize)\n    tag_255:\n      pop\n      pop\n      pop\n      pop\n        /* \"contracts/Marketplace2/Marketplace.sol\":20476:20677  function _safeTransferToMarket(uint256 tokenId) private {... */\n      pop\n      jump\t// out\n        /* \"contracts/Marketplace2/Marketplace.sol\":11851:11963  function current(Counter storage counter) internal view returns (uint256) {... */\n    tag_189:\n        /* \"contracts/Marketplace2/Marketplace.sol\":11916:11923  uint256 */\n      0x00\n        /* \"contracts/Marketplace2/Marketplace.sol\":11942:11949  counter */\n      dup2\n        /* \"contracts/Marketplace2/Marketplace.sol\":11942:11956  counter._value */\n      0x00\n      add\n      sload\n        /* \"contracts/Marketplace2/Marketplace.sol\":11935:11956  return counter._value */\n      swap1\n      pop\n        /* \"contracts/Marketplace2/Marketplace.sol\":11851:11963  function current(Counter storage counter) internal view returns (uint256) {... */\n      swap2\n      swap1\n      pop\n      jump\t// out\n        /* \"contracts/Marketplace2/Marketplace.sol\":11969:12092  function increment(Counter storage counter) internal {... */\n    tag_195:\n        /* \"contracts/Marketplace2/Marketplace.sol\":12074:12075  1 */\n      0x01\n        /* \"contracts/Marketplace2/Marketplace.sol\":12056:12063  counter */\n      dup2\n        /* \"contracts/Marketplace2/Marketplace.sol\":12056:12070  counter._value */\n      0x00\n      add\n      0x00\n        /* \"contracts/Marketplace2/Marketplace.sol\":12056:12075  counter._value += 1 */\n      dup3\n      dup3\n      sload\n      add\n      swap3\n      pop\n      pop\n      dup2\n      swap1\n      sstore\n      pop\n        /* \"contracts/Marketplace2/Marketplace.sol\":11969:12092  function increment(Counter storage counter) internal {... */\n      pop\n      jump\t// out\n        /* \"contracts/Marketplace2/Marketplace.sol\":2910:3097  function _transferOwnership(address newOwner) internal virtual {... */\n    tag_210:\n        /* \"contracts/Marketplace2/Marketplace.sol\":2983:2999  address oldOwner */\n      0x00\n        /* \"contracts/Marketplace2/Marketplace.sol\":3002:3008  _owner */\n      0x0c\n      0x00\n      swap1\n      sload\n      swap1\n      0x0100\n      exp\n      swap1\n      div\n      0xffffffffffffffffffffffffffffffffffffffff\n      and\n        /* \"contracts/Marketplace2/Marketplace.sol\":2983:3008  address oldOwner = _owner */\n      swap1\n      pop\n        /* \"contracts/Marketplace2/Marketplace.sol\":3027:3035  newOwner */\n      dup2\n        /* \"contracts/Marketplace2/Marketplace.sol\":3018:3024  _owner */\n      0x0c\n      0x00\n        /* \"contracts/Marketplace2/Marketplace.sol\":3018:3035  _owner = newOwner */\n      0x0100\n      exp\n      dup2\n      sload\n      dup2\n      0xffffffffffffffffffffffffffffffffffffffff\n      mul\n      not\n      and\n      swap1\n      dup4\n      0xffffffffffffffffffffffffffffffffffffffff\n      and\n      mul\n      or\n      swap1\n      sstore\n      pop\n        /* \"contracts/Marketplace2/Marketplace.sol\":3081:3089  newOwner */\n      dup2\n        /* \"contracts/Marketplace2/Marketplace.sol\":3050:3090  OwnershipTransferred(oldOwner, newOwner) */\n      0xffffffffffffffffffffffffffffffffffffffff\n      and\n        /* \"contracts/Marketplace2/Marketplace.sol\":3071:3079  oldOwner */\n      dup2\n        /* \"contracts/Marketplace2/Marketplace.sol\":3050:3090  OwnershipTransferred(oldOwner, newOwner) */\n      0xffffffffffffffffffffffffffffffffffffffff\n      and\n      0x8be0079c531659141344cd1fd0a4f28419497f9722a3daafe3b4186f6b6457e0\n      mload(0x40)\n      mload(0x40)\n      dup1\n      swap2\n      sub\n      swap1\n      log3\n        /* \"contracts/Marketplace2/Marketplace.sol\":2973:3097  {... */\n      pop\n        /* \"contracts/Marketplace2/Marketplace.sol\":2910:3097  function _transferOwnership(address newOwner) internal virtual {... */\n      pop\n      jump\t// out\n        /* \"contracts/Marketplace2/Marketplace.sol\":20684:21002  function _safeBuyItem(uint256 itemId,uint256 amount, uint256 tokenId ) private { ... */\n    tag_223:\n        /* \"contracts/Marketplace2/Marketplace.sol\":20774:20783  mainToken */\n      0x09\n      0x00\n      swap1\n      sload\n      swap1\n      0x0100\n      exp\n      swap1\n      div\n      0xffffffffffffffffffffffffffffffffffffffff\n      and\n        /* \"contracts/Marketplace2/Marketplace.sol\":20774:20796  mainToken.transferFrom */\n      0xffffffffffffffffffffffffffffffffffffffff\n      and\n      0x23b872dd\n        /* \"contracts/Marketplace2/Marketplace.sol\":20797:20807  msg.sender */\n      caller\n        /* \"contracts/Marketplace2/Marketplace.sol\":20809:20823  idToMarketItem */\n      0x0f\n        /* \"contracts/Marketplace2/Marketplace.sol\":20809:20831  idToMarketItem[itemId] */\n      0x00\n        /* \"contracts/Marketplace2/Marketplace.sol\":20824:20830  itemId */\n      dup8\n        /* \"contracts/Marketplace2/Marketplace.sol\":20809:20831  idToMarketItem[itemId] */\n      dup2\n      mstore\n      0x20\n      add\n      swap1\n      dup2\n      mstore\n      0x20\n      add\n      0x00\n      keccak256\n        /* \"contracts/Marketplace2/Marketplace.sol\":20809:20838  idToMarketItem[itemId].seller */\n      0x02\n      add\n      0x00\n      swap1\n      sload\n      swap1\n      0x0100\n      exp\n      swap1\n      div\n      0xffffffffffffffffffffffffffffffffffffffff\n      and\n        /* \"contracts/Marketplace2/Marketplace.sol\":20841:20847  amount */\n      dup6\n        /* \"contracts/Marketplace2/Marketplace.sol\":20774:20848  mainToken.transferFrom(msg.sender, idToMarketItem[itemId].seller , amount) */\n      mload(0x40)\n      dup5\n      0xffffffff\n      and\n      0xe0\n      shl\n      dup2\n      mstore\n      0x04\n      add\n      tag_260\n      swap4\n      swap3\n      swap2\n      swap1\n      tag_136\n      jump\t// in\n    tag_260:\n      0x20\n      mload(0x40)\n      dup1\n      dup4\n      sub\n      dup2\n      0x00\n      dup8\n      gas\n      call\n      iszero\n      dup1\n      iszero\n      tag_262\n      jumpi\n      returndatasize\n      0x00\n      dup1\n      returndatacopy\n      revert(0x00, returndatasize)\n    tag_262:\n      pop\n      pop\n      pop\n      pop\n      mload(0x40)\n      returndatasize\n      not(0x1f)\n      0x1f\n      dup3\n      add\n      and\n      dup3\n      add\n      dup1\n      0x40\n      mstore\n      pop\n      dup2\n      add\n      swap1\n      tag_263\n      swap2\n      swap1\n      tag_264\n      jump\t// in\n    tag_263:\n      pop\n        /* \"contracts/Marketplace2/Marketplace.sol\":20858:20865  factory */\n      0x0a\n      0x00\n      swap1\n      sload\n      swap1\n      0x0100\n      exp\n      swap1\n      div\n      0xffffffffffffffffffffffffffffffffffffffff\n      and\n        /* \"contracts/Marketplace2/Marketplace.sol\":20858:20884  factory.setOwnerIngameItem */\n      0xffffffffffffffffffffffffffffffffffffffff\n      and\n      0xc1e9518a\n        /* \"contracts/Marketplace2/Marketplace.sol\":20885:20895  msg.sender */\n      caller\n        /* \"contracts/Marketplace2/Marketplace.sol\":20904:20908  this */\n      address\n        /* \"contracts/Marketplace2/Marketplace.sol\":20911:20918  tokenId */\n      dup5\n        /* \"contracts/Marketplace2/Marketplace.sol\":20858:20919  factory.setOwnerIngameItem(msg.sender,address(this), tokenId) */\n      mload(0x40)\n      dup5\n      0xffffffff\n      and\n      0xe0\n      shl\n      dup2\n      mstore\n      0x04\n      add\n      tag_265\n      swap4\n      swap3\n      swap2\n      swap1\n      tag_136\n      jump\t// in\n    tag_265:\n      0x00\n      mload(0x40)\n      dup1\n      dup4\n      sub\n      dup2\n      0x00\n      dup8\n      dup1\n      extcodesize\n      iszero\n      dup1\n      iszero\n      tag_266\n      jumpi\n      0x00\n      dup1\n      revert\n    tag_266:\n      pop\n      gas\n      call\n      iszero\n      dup1\n      iszero\n      tag_268\n      jumpi\n      returndatasize\n      0x00\n      dup1\n      returndatacopy\n      revert(0x00, returndatasize)\n    tag_268:\n      pop\n      pop\n      pop\n      pop\n        /* \"contracts/Marketplace2/Marketplace.sol\":20929:20937  mainNFTs */\n      0x0b\n      0x00\n      swap1\n      sload\n      swap1\n      0x0100\n      exp\n      swap1\n      div\n      0xffffffffffffffffffffffffffffffffffffffff\n      and\n        /* \"contracts/Marketplace2/Marketplace.sol\":20929:20950  mainNFTs.transferFrom */\n      0xffffffffffffffffffffffffffffffffffffffff\n      and\n      0x23b872dd\n        /* \"contracts/Marketplace2/Marketplace.sol\":20959:20963  this */\n      address\n        /* \"contracts/Marketplace2/Marketplace.sol\":20974:20984  msg.sender */\n      caller\n        /* \"contracts/Marketplace2/Marketplace.sol\":20987:20994  tokenId */\n      dup5\n        /* \"contracts/Marketplace2/Marketplace.sol\":20929:20995  mainNFTs.transferFrom(address(this), address(msg.sender), tokenId) */\n      mload(0x40)\n      dup5\n      0xffffffff\n      and\n      0xe0\n      shl\n      dup2\n      mstore\n      0x04\n      add\n      tag_269\n      swap4\n      swap3\n      swap2\n      swap1\n      tag_136\n      jump\t// in\n    tag_269:\n      0x00\n      mload(0x40)\n      dup1\n      dup4\n      sub\n      dup2\n      0x00\n      dup8\n      dup1\n      extcodesize\n      iszero\n      dup1\n      iszero\n      tag_270\n      jumpi\n      0x00\n      dup1\n      revert\n    tag_270:\n      pop\n      gas\n      call\n      iszero\n      dup1\n      iszero\n      tag_272\n      jumpi\n      returndatasize\n      0x00\n      dup1\n      returndatacopy\n      revert(0x00, returndatasize)\n    tag_272:\n      pop\n      pop\n      pop\n      pop\n        /* \"contracts/Marketplace2/Marketplace.sol\":20684:21002  function _safeBuyItem(uint256 itemId,uint256 amount, uint256 tokenId ) private { ... */\n      pop\n      pop\n      pop\n      jump\t// out\n    tag_230:\n      mload(0x40)\n      dup1\n      0xc0\n      add\n      0x40\n      mstore\n      dup1\n      0x00\n      dup2\n      mstore\n      0x20\n      add\n      0x00\n      dup2\n      mstore\n      0x20\n      add\n      and(0xffffffffffffffffffffffffffffffffffffffff, 0x00)\n      dup2\n      mstore\n      0x20\n      add\n      and(0xffffffffffffffffffffffffffffffffffffffff, 0x00)\n      dup2\n      mstore\n      0x20\n      add\n      0x00\n      dup2\n      mstore\n      0x20\n      add\n      0x00\n      0x01\n      dup2\n      gt\n      iszero\n      tag_273\n      jumpi\n      tag_274\n      tag_116\n      jump\t// in\n    tag_274:\n    tag_273:\n      dup2\n      mstore\n      pop\n      swap1\n      jump\t// out\n        /* \"#utility.yul\":7:82   */\n    tag_275:\n        /* \"#utility.yul\":40:46   */\n      0x00\n        /* \"#utility.yul\":73:75   */\n      0x40\n        /* \"#utility.yul\":67:76   */\n      mload\n        /* \"#utility.yul\":57:76   */\n      swap1\n      pop\n        /* \"#utility.yul\":7:82   */\n      swap1\n      jump\t// out\n        /* \"#utility.yul\":88:205   */\n    tag_276:\n        /* \"#utility.yul\":197:198   */\n      0x00\n        /* \"#utility.yul\":194:195   */\n      dup1\n        /* \"#utility.yul\":187:199   */\n      revert\n        /* \"#utility.yul\":211:328   */\n    tag_277:\n        /* \"#utility.yul\":320:321   */\n      0x00\n        /* \"#utility.yul\":317:318   */\n      dup1\n        /* \"#utility.yul\":310:322   */\n      revert\n        /* \"#utility.yul\":334:411   */\n    tag_278:\n        /* \"#utility.yul\":371:378   */\n      0x00\n        /* \"#utility.yul\":400:405   */\n      dup2\n        /* \"#utility.yul\":389:405   */\n      swap1\n      pop\n        /* \"#utility.yul\":334:411   */\n      swap2\n      swap1\n      pop\n      jump\t// out\n        /* \"#utility.yul\":417:539   */\n    tag_279:\n        /* \"#utility.yul\":490:514   */\n      tag_357\n        /* \"#utility.yul\":508:513   */\n      dup2\n        /* \"#utility.yul\":490:514   */\n      tag_278\n      jump\t// in\n    tag_357:\n        /* \"#utility.yul\":483:488   */\n      dup2\n        /* \"#utility.yul\":480:515   */\n      eq\n        /* \"#utility.yul\":470:533   */\n      tag_358\n      jumpi\n        /* \"#utility.yul\":529:530   */\n      0x00\n        /* \"#utility.yul\":526:527   */\n      dup1\n        /* \"#utility.yul\":519:531   */\n      revert\n        /* \"#utility.yul\":470:533   */\n    tag_358:\n        /* \"#utility.yul\":417:539   */\n      pop\n      jump\t// out\n        /* \"#utility.yul\":545:684   */\n    tag_280:\n        /* \"#utility.yul\":591:596   */\n      0x00\n        /* \"#utility.yul\":629:635   */\n      dup2\n        /* \"#utility.yul\":616:636   */\n      calldataload\n        /* \"#utility.yul\":607:636   */\n      swap1\n      pop\n        /* \"#utility.yul\":645:678   */\n      tag_360\n        /* \"#utility.yul\":672:677   */\n      dup2\n        /* \"#utility.yul\":645:678   */\n      tag_279\n      jump\t// in\n    tag_360:\n        /* \"#utility.yul\":545:684   */\n      swap3\n      swap2\n      pop\n      pop\n      jump\t// out\n        /* \"#utility.yul\":690:1019   */\n    tag_27:\n        /* \"#utility.yul\":749:755   */\n      0x00\n        /* \"#utility.yul\":798:800   */\n      0x20\n        /* \"#utility.yul\":786:795   */\n      dup3\n        /* \"#utility.yul\":777:784   */\n      dup5\n        /* \"#utility.yul\":773:796   */\n      sub\n        /* \"#utility.yul\":769:801   */\n      slt\n        /* \"#utility.yul\":766:885   */\n      iszero\n      tag_362\n      jumpi\n        /* \"#utility.yul\":804:883   */\n      tag_363\n      tag_276\n      jump\t// in\n    tag_363:\n        /* \"#utility.yul\":766:885   */\n    tag_362:\n        /* \"#utility.yul\":924:925   */\n      0x00\n        /* \"#utility.yul\":949:1002   */\n      tag_364\n        /* \"#utility.yul\":994:1001   */\n      dup5\n        /* \"#utility.yul\":985:991   */\n      dup3\n        /* \"#utility.yul\":974:983   */\n      dup6\n        /* \"#utility.yul\":970:992   */\n      add\n        /* \"#utility.yul\":949:1002   */\n      tag_280\n      jump\t// in\n    tag_364:\n        /* \"#utility.yul\":939:1002   */\n      swap2\n      pop\n        /* \"#utility.yul\":895:1012   */\n      pop\n        /* \"#utility.yul\":690:1019   */\n      swap3\n      swap2\n      pop\n      pop\n      jump\t// out\n        /* \"#utility.yul\":1025:1151   */\n    tag_281:\n        /* \"#utility.yul\":1062:1069   */\n      0x00\n        /* \"#utility.yul\":1102:1144   */\n      0xffffffffffffffffffffffffffffffffffffffff\n        /* \"#utility.yul\":1095:1100   */\n      dup3\n        /* \"#utility.yul\":1091:1145   */\n      and\n        /* \"#utility.yul\":1080:1145   */\n      swap1\n      pop\n        /* \"#utility.yul\":1025:1151   */\n      swap2\n      swap1\n      pop\n      jump\t// out\n        /* \"#utility.yul\":1157:1253   */\n    tag_282:\n        /* \"#utility.yul\":1194:1201   */\n      0x00\n        /* \"#utility.yul\":1223:1247   */\n      tag_367\n        /* \"#utility.yul\":1241:1246   */\n      dup3\n        /* \"#utility.yul\":1223:1247   */\n      tag_281\n      jump\t// in\n    tag_367:\n        /* \"#utility.yul\":1212:1247   */\n      swap1\n      pop\n        /* \"#utility.yul\":1157:1253   */\n      swap2\n      swap1\n      pop\n      jump\t// out\n        /* \"#utility.yul\":1259:1381   */\n    tag_283:\n        /* \"#utility.yul\":1332:1356   */\n      tag_369\n        /* \"#utility.yul\":1350:1355   */\n      dup2\n        /* \"#utility.yul\":1332:1356   */\n      tag_282\n      jump\t// in\n    tag_369:\n        /* \"#utility.yul\":1325:1330   */\n      dup2\n        /* \"#utility.yul\":1322:1357   */\n      eq\n        /* \"#utility.yul\":1312:1375   */\n      tag_370\n      jumpi\n        /* \"#utility.yul\":1371:1372   */\n      0x00\n        /* \"#utility.yul\":1368:1369   */\n      dup1\n        /* \"#utility.yul\":1361:1373   */\n      revert\n        /* \"#utility.yul\":1312:1375   */\n    tag_370:\n        /* \"#utility.yul\":1259:1381   */\n      pop\n      jump\t// out\n        /* \"#utility.yul\":1387:1526   */\n    tag_284:\n        /* \"#utility.yul\":1433:1438   */\n      0x00\n        /* \"#utility.yul\":1471:1477   */\n      dup2\n        /* \"#utility.yul\":1458:1478   */\n      calldataload\n        /* \"#utility.yul\":1449:1478   */\n      swap1\n      pop\n        /* \"#utility.yul\":1487:1520   */\n      tag_372\n        /* \"#utility.yul\":1514:1519   */\n      dup2\n        /* \"#utility.yul\":1487:1520   */\n      tag_283\n      jump\t// in\n    tag_372:\n        /* \"#utility.yul\":1387:1526   */\n      swap3\n      swap2\n      pop\n      pop\n      jump\t// out\n        /* \"#utility.yul\":1532:1861   */\n    tag_32:\n        /* \"#utility.yul\":1591:1597   */\n      0x00\n        /* \"#utility.yul\":1640:1642   */\n      0x20\n        /* \"#utility.yul\":1628:1637   */\n      dup3\n        /* \"#utility.yul\":1619:1626   */\n      dup5\n        /* \"#utility.yul\":1615:1638   */\n      sub\n        /* \"#utility.yul\":1611:1643   */\n      slt\n        /* \"#utility.yul\":1608:1727   */\n      iszero\n      tag_374\n      jumpi\n        /* \"#utility.yul\":1646:1725   */\n      tag_375\n      tag_276\n      jump\t// in\n    tag_375:\n        /* \"#utility.yul\":1608:1727   */\n    tag_374:\n        /* \"#utility.yul\":1766:1767   */\n      0x00\n        /* \"#utility.yul\":1791:1844   */\n      tag_376\n        /* \"#utility.yul\":1836:1843   */\n      dup5\n        /* \"#utility.yul\":1827:1833   */\n      dup3\n        /* \"#utility.yul\":1816:1825   */\n      dup6\n        /* \"#utility.yul\":1812:1834   */\n      add\n        /* \"#utility.yul\":1791:1844   */\n      tag_284\n      jump\t// in\n    tag_376:\n        /* \"#utility.yul\":1781:1844   */\n      swap2\n      pop\n        /* \"#utility.yul\":1737:1854   */\n      pop\n        /* \"#utility.yul\":1532:1861   */\n      swap3\n      swap2\n      pop\n      pop\n      jump\t// out\n        /* \"#utility.yul\":1867:2016   */\n    tag_285:\n        /* \"#utility.yul\":1903:1910   */\n      0x00\n        /* \"#utility.yul\":1943:2009   */\n      0xffffffff00000000000000000000000000000000000000000000000000000000\n        /* \"#utility.yul\":1936:1941   */\n      dup3\n        /* \"#utility.yul\":1932:2010   */\n      and\n        /* \"#utility.yul\":1921:2010   */\n      swap1\n      pop\n        /* \"#utility.yul\":1867:2016   */\n      swap2\n      swap1\n      pop\n      jump\t// out\n        /* \"#utility.yul\":2022:2137   */\n    tag_286:\n        /* \"#utility.yul\":2107:2130   */\n      tag_379\n        /* \"#utility.yul\":2124:2129   */\n      dup2\n        /* \"#utility.yul\":2107:2130   */\n      tag_285\n      jump\t// in\n    tag_379:\n        /* \"#utility.yul\":2102:2105   */\n      dup3\n        /* \"#utility.yul\":2095:2131   */\n      mstore\n        /* \"#utility.yul\":2022:2137   */\n      pop\n      pop\n      jump\t// out\n        /* \"#utility.yul\":2143:2361   */\n    tag_42:\n        /* \"#utility.yul\":2234:2238   */\n      0x00\n        /* \"#utility.yul\":2272:2274   */\n      0x20\n        /* \"#utility.yul\":2261:2270   */\n      dup3\n        /* \"#utility.yul\":2257:2275   */\n      add\n        /* \"#utility.yul\":2249:2275   */\n      swap1\n      pop\n        /* \"#utility.yul\":2285:2354   */\n      tag_381\n        /* \"#utility.yul\":2351:2352   */\n      0x00\n        /* \"#utility.yul\":2340:2349   */\n      dup4\n        /* \"#utility.yul\":2336:2353   */\n      add\n        /* \"#utility.yul\":2327:2333   */\n      dup5\n        /* \"#utility.yul\":2285:2354   */\n      tag_286\n      jump\t// in\n    tag_381:\n        /* \"#utility.yul\":2143:2361   */\n      swap3\n      swap2\n      pop\n      pop\n      jump\t// out\n        /* \"#utility.yul\":2367:2841   */\n    tag_45:\n        /* \"#utility.yul\":2435:2441   */\n      0x00\n        /* \"#utility.yul\":2443:2449   */\n      dup1\n        /* \"#utility.yul\":2492:2494   */\n      0x40\n        /* \"#utility.yul\":2480:2489   */\n      dup4\n        /* \"#utility.yul\":2471:2478   */\n      dup6\n        /* \"#utility.yul\":2467:2490   */\n      sub\n        /* \"#utility.yul\":2463:2495   */\n      slt\n        /* \"#utility.yul\":2460:2579   */\n      iszero\n      tag_383\n      jumpi\n        /* \"#utility.yul\":2498:2577   */\n      tag_384\n      tag_276\n      jump\t// in\n    tag_384:\n        /* \"#utility.yul\":2460:2579   */\n    tag_383:\n        /* \"#utility.yul\":2618:2619   */\n      0x00\n        /* \"#utility.yul\":2643:2696   */\n      tag_385\n        /* \"#utility.yul\":2688:2695   */\n      dup6\n        /* \"#utility.yul\":2679:2685   */\n      dup3\n        /* \"#utility.yul\":2668:2677   */\n      dup7\n        /* \"#utility.yul\":2664:2686   */\n      add\n        /* \"#utility.yul\":2643:2696   */\n      tag_280\n      jump\t// in\n    tag_385:\n        /* \"#utility.yul\":2633:2696   */\n      swap3\n      pop\n        /* \"#utility.yul\":2589:2706   */\n      pop\n        /* \"#utility.yul\":2745:2747   */\n      0x20\n        /* \"#utility.yul\":2771:2824   */\n      tag_386\n        /* \"#utility.yul\":2816:2823   */\n      dup6\n        /* \"#utility.yul\":2807:2813   */\n      dup3\n        /* \"#utility.yul\":2796:2805   */\n      dup7\n        /* \"#utility.yul\":2792:2814   */\n      add\n        /* \"#utility.yul\":2771:2824   */\n      tag_280\n      jump\t// in\n    tag_386:\n        /* \"#utility.yul\":2761:2824   */\n      swap2\n      pop\n        /* \"#utility.yul\":2716:2834   */\n      pop\n        /* \"#utility.yul\":2367:2841   */\n      swap3\n      pop\n      swap3\n      swap1\n      pop\n      jump\t// out\n        /* \"#utility.yul\":2847:2907   */\n    tag_287:\n        /* \"#utility.yul\":2875:2878   */\n      0x00\n        /* \"#utility.yul\":2896:2901   */\n      dup2\n        /* \"#utility.yul\":2889:2901   */\n      swap1\n      pop\n        /* \"#utility.yul\":2847:2907   */\n      swap2\n      swap1\n      pop\n      jump\t// out\n        /* \"#utility.yul\":2913:3055   */\n    tag_288:\n        /* \"#utility.yul\":2963:2972   */\n      0x00\n        /* \"#utility.yul\":2996:3049   */\n      tag_389\n        /* \"#utility.yul\":3014:3048   */\n      tag_390\n        /* \"#utility.yul\":3023:3047   */\n      tag_391\n        /* \"#utility.yul\":3041:3046   */\n      dup5\n        /* \"#utility.yul\":3023:3047   */\n      tag_281\n      jump\t// in\n    tag_391:\n        /* \"#utility.yul\":3014:3048   */\n      tag_287\n      jump\t// in\n    tag_390:\n        /* \"#utility.yul\":2996:3049   */\n      tag_281\n      jump\t// in\n    tag_389:\n        /* \"#utility.yul\":2983:3049   */\n      swap1\n      pop\n        /* \"#utility.yul\":2913:3055   */\n      swap2\n      swap1\n      pop\n      jump\t// out\n        /* \"#utility.yul\":3061:3187   */\n    tag_289:\n        /* \"#utility.yul\":3111:3120   */\n      0x00\n        /* \"#utility.yul\":3144:3181   */\n      tag_393\n        /* \"#utility.yul\":3175:3180   */\n      dup3\n        /* \"#utility.yul\":3144:3181   */\n      tag_288\n      jump\t// in\n    tag_393:\n        /* \"#utility.yul\":3131:3181   */\n      swap1\n      pop\n        /* \"#utility.yul\":3061:3187   */\n      swap2\n      swap1\n      pop\n      jump\t// out\n        /* \"#utility.yul\":3193:3333   */\n    tag_290:\n        /* \"#utility.yul\":3257:3266   */\n      0x00\n        /* \"#utility.yul\":3290:3327   */\n      tag_395\n        /* \"#utility.yul\":3321:3326   */\n      dup3\n        /* \"#utility.yul\":3290:3327   */\n      tag_289\n      jump\t// in\n    tag_395:\n        /* \"#utility.yul\":3277:3327   */\n      swap1\n      pop\n        /* \"#utility.yul\":3193:3333   */\n      swap2\n      swap1\n      pop\n      jump\t// out\n        /* \"#utility.yul\":3339:3498   */\n    tag_291:\n        /* \"#utility.yul\":3440:3491   */\n      tag_397\n        /* \"#utility.yul\":3485:3490   */\n      dup2\n        /* \"#utility.yul\":3440:3491   */\n      tag_290\n      jump\t// in\n    tag_397:\n        /* \"#utility.yul\":3435:3438   */\n      dup3\n        /* \"#utility.yul\":3428:3492   */\n      mstore\n        /* \"#utility.yul\":3339:3498   */\n      pop\n      pop\n      jump\t// out\n        /* \"#utility.yul\":3504:3754   */\n    tag_51:\n        /* \"#utility.yul\":3611:3615   */\n      0x00\n        /* \"#utility.yul\":3649:3651   */\n      0x20\n        /* \"#utility.yul\":3638:3647   */\n      dup3\n        /* \"#utility.yul\":3634:3652   */\n      add\n        /* \"#utility.yul\":3626:3652   */\n      swap1\n      pop\n        /* \"#utility.yul\":3662:3747   */\n      tag_399\n        /* \"#utility.yul\":3744:3745   */\n      0x00\n        /* \"#utility.yul\":3733:3742   */\n      dup4\n        /* \"#utility.yul\":3729:3746   */\n      add\n        /* \"#utility.yul\":3720:3726   */\n      dup5\n        /* \"#utility.yul\":3662:3747   */\n      tag_291\n      jump\t// in\n    tag_399:\n        /* \"#utility.yul\":3504:3754   */\n      swap3\n      swap2\n      pop\n      pop\n      jump\t// out\n        /* \"#utility.yul\":3760:3878   */\n    tag_292:\n        /* \"#utility.yul\":3847:3871   */\n      tag_401\n        /* \"#utility.yul\":3865:3870   */\n      dup2\n        /* \"#utility.yul\":3847:3871   */\n      tag_278\n      jump\t// in\n    tag_401:\n        /* \"#utility.yul\":3842:3845   */\n      dup3\n        /* \"#utility.yul\":3835:3872   */\n      mstore\n        /* \"#utility.yul\":3760:3878   */\n      pop\n      pop\n      jump\t// out\n        /* \"#utility.yul\":3884:4002   */\n    tag_293:\n        /* \"#utility.yul\":3971:3995   */\n      tag_403\n        /* \"#utility.yul\":3989:3994   */\n      dup2\n        /* \"#utility.yul\":3971:3995   */\n      tag_282\n      jump\t// in\n    tag_403:\n        /* \"#utility.yul\":3966:3969   */\n      dup3\n        /* \"#utility.yul\":3959:3996   */\n      mstore\n        /* \"#utility.yul\":3884:4002   */\n      pop\n      pop\n      jump\t// out\n        /* \"#utility.yul\":4008:4188   */\n    tag_116:\n        /* \"#utility.yul\":4056:4133   */\n      0x4e487b7100000000000000000000000000000000000000000000000000000000\n        /* \"#utility.yul\":4053:4054   */\n      0x00\n        /* \"#utility.yul\":4046:4134   */\n      mstore\n        /* \"#utility.yul\":4153:4157   */\n      0x21\n        /* \"#utility.yul\":4150:4151   */\n      0x04\n        /* \"#utility.yul\":4143:4158   */\n      mstore\n        /* \"#utility.yul\":4177:4181   */\n      0x24\n        /* \"#utility.yul\":4174:4175   */\n      0x00\n        /* \"#utility.yul\":4167:4182   */\n      revert\n        /* \"#utility.yul\":4194:4313   */\n    tag_294:\n        /* \"#utility.yul\":4281:4282   */\n      0x02\n        /* \"#utility.yul\":4274:4279   */\n      dup2\n        /* \"#utility.yul\":4271:4283   */\n      lt\n        /* \"#utility.yul\":4261:4307   */\n      tag_406\n      jumpi\n        /* \"#utility.yul\":4287:4305   */\n      tag_407\n      tag_116\n      jump\t// in\n    tag_407:\n        /* \"#utility.yul\":4261:4307   */\n    tag_406:\n        /* \"#utility.yul\":4194:4313   */\n      pop\n      jump\t// out\n        /* \"#utility.yul\":4319:4458   */\n    tag_295:\n        /* \"#utility.yul\":4370:4377   */\n      0x00\n        /* \"#utility.yul\":4399:4404   */\n      dup2\n        /* \"#utility.yul\":4388:4404   */\n      swap1\n      pop\n        /* \"#utility.yul\":4405:4452   */\n      tag_409\n        /* \"#utility.yul\":4446:4451   */\n      dup3\n        /* \"#utility.yul\":4405:4452   */\n      tag_294\n      jump\t// in\n    tag_409:\n        /* \"#utility.yul\":4319:4458   */\n      swap2\n      swap1\n      pop\n      jump\t// out\n        /* \"#utility.yul\":4464:4603   */\n    tag_296:\n        /* \"#utility.yul\":4526:4535   */\n      0x00\n        /* \"#utility.yul\":4559:4597   */\n      tag_411\n        /* \"#utility.yul\":4591:4596   */\n      dup3\n        /* \"#utility.yul\":4559:4597   */\n      tag_295\n      jump\t// in\n    tag_411:\n        /* \"#utility.yul\":4546:4597   */\n      swap1\n      pop\n        /* \"#utility.yul\":4464:4603   */\n      swap2\n      swap1\n      pop\n      jump\t// out\n        /* \"#utility.yul\":4609:4764   */\n    tag_297:\n        /* \"#utility.yul\":4708:4757   */\n      tag_413\n        /* \"#utility.yul\":4751:4756   */\n      dup2\n        /* \"#utility.yul\":4708:4757   */\n      tag_296\n      jump\t// in\n    tag_413:\n        /* \"#utility.yul\":4703:4706   */\n      dup3\n        /* \"#utility.yul\":4696:4758   */\n      mstore\n        /* \"#utility.yul\":4609:4764   */\n      pop\n      pop\n      jump\t// out\n        /* \"#utility.yul\":4770:5569   */\n    tag_56:\n        /* \"#utility.yul\":5015:5019   */\n      0x00\n        /* \"#utility.yul\":5053:5056   */\n      0xc0\n        /* \"#utility.yul\":5042:5051   */\n      dup3\n        /* \"#utility.yul\":5038:5057   */\n      add\n        /* \"#utility.yul\":5030:5057   */\n      swap1\n      pop\n        /* \"#utility.yul\":5067:5138   */\n      tag_415\n        /* \"#utility.yul\":5135:5136   */\n      0x00\n        /* \"#utility.yul\":5124:5133   */\n      dup4\n        /* \"#utility.yul\":5120:5137   */\n      add\n        /* \"#utility.yul\":5111:5117   */\n      dup10\n        /* \"#utility.yul\":5067:5138   */\n      tag_292\n      jump\t// in\n    tag_415:\n        /* \"#utility.yul\":5148:5220   */\n      tag_416\n        /* \"#utility.yul\":5216:5218   */\n      0x20\n        /* \"#utility.yul\":5205:5214   */\n      dup4\n        /* \"#utility.yul\":5201:5219   */\n      add\n        /* \"#utility.yul\":5192:5198   */\n      dup9\n        /* \"#utility.yul\":5148:5220   */\n      tag_292\n      jump\t// in\n    tag_416:\n        /* \"#utility.yul\":5230:5302   */\n      tag_417\n        /* \"#utility.yul\":5298:5300   */\n      0x40\n        /* \"#utility.yul\":5287:5296   */\n      dup4\n        /* \"#utility.yul\":5283:5301   */\n      add\n        /* \"#utility.yul\":5274:5280   */\n      dup8\n        /* \"#utility.yul\":5230:5302   */\n      tag_293\n      jump\t// in\n    tag_417:\n        /* \"#utility.yul\":5312:5384   */\n      tag_418\n        /* \"#utility.yul\":5380:5382   */\n      0x60\n        /* \"#utility.yul\":5369:5378   */\n      dup4\n        /* \"#utility.yul\":5365:5383   */\n      add\n        /* \"#utility.yul\":5356:5362   */\n      dup7\n        /* \"#utility.yul\":5312:5384   */\n      tag_293\n      jump\t// in\n    tag_418:\n        /* \"#utility.yul\":5394:5467   */\n      tag_419\n        /* \"#utility.yul\":5462:5465   */\n      0x80\n        /* \"#utility.yul\":5451:5460   */\n      dup4\n        /* \"#utility.yul\":5447:5466   */\n      add\n        /* \"#utility.yul\":5438:5444   */\n      dup6\n        /* \"#utility.yul\":5394:5467   */\n      tag_292\n      jump\t// in\n    tag_419:\n        /* \"#utility.yul\":5477:5562   */\n      tag_420\n        /* \"#utility.yul\":5557:5560   */\n      0xa0\n        /* \"#utility.yul\":5546:5555   */\n      dup4\n        /* \"#utility.yul\":5542:5561   */\n      add\n        /* \"#utility.yul\":5533:5539   */\n      dup5\n        /* \"#utility.yul\":5477:5562   */\n      tag_297\n      jump\t// in\n    tag_420:\n        /* \"#utility.yul\":4770:5569   */\n      swap8\n      swap7\n      pop\n      pop\n      pop\n      pop\n      pop\n      pop\n      pop\n      jump\t// out\n        /* \"#utility.yul\":5575:6049   */\n    tag_64:\n        /* \"#utility.yul\":5643:5649   */\n      0x00\n        /* \"#utility.yul\":5651:5657   */\n      dup1\n        /* \"#utility.yul\":5700:5702   */\n      0x40\n        /* \"#utility.yul\":5688:5697   */\n      dup4\n        /* \"#utility.yul\":5679:5686   */\n      dup6\n        /* \"#utility.yul\":5675:5698   */\n      sub\n        /* \"#utility.yul\":5671:5703   */\n      slt\n        /* \"#utility.yul\":5668:5787   */\n      iszero\n      tag_422\n      jumpi\n        /* \"#utility.yul\":5706:5785   */\n      tag_423\n      tag_276\n      jump\t// in\n    tag_423:\n        /* \"#utility.yul\":5668:5787   */\n    tag_422:\n        /* \"#utility.yul\":5826:5827   */\n      0x00\n        /* \"#utility.yul\":5851:5904   */\n      tag_424\n        /* \"#utility.yul\":5896:5903   */\n      dup6\n        /* \"#utility.yul\":5887:5893   */\n      dup3\n        /* \"#utility.yul\":5876:5885   */\n      dup7\n        /* \"#utility.yul\":5872:5894   */\n      add\n        /* \"#utility.yul\":5851:5904   */\n      tag_284\n      jump\t// in\n    tag_424:\n        /* \"#utility.yul\":5841:5904   */\n      swap3\n      pop\n        /* \"#utility.yul\":5797:5914   */\n      pop\n        /* \"#utility.yul\":5953:5955   */\n      0x20\n        /* \"#utility.yul\":5979:6032   */\n      tag_425\n        /* \"#utility.yul\":6024:6031   */\n      dup6\n        /* \"#utility.yul\":6015:6021   */\n      dup3\n        /* \"#utility.yul\":6004:6013   */\n      dup7\n        /* \"#utility.yul\":6000:6022   */\n      add\n        /* \"#utility.yul\":5979:6032   */\n      tag_280\n      jump\t// in\n    tag_425:\n        /* \"#utility.yul\":5969:6032   */\n      swap2\n      pop\n        /* \"#utility.yul\":5924:6042   */\n      pop\n        /* \"#utility.yul\":5575:6049   */\n      swap3\n      pop\n      swap3\n      swap1\n      pop\n      jump\t// out\n        /* \"#utility.yul\":6055:6141   */\n    tag_298:\n        /* \"#utility.yul\":6090:6097   */\n      0x00\n        /* \"#utility.yul\":6130:6134   */\n      0xff\n        /* \"#utility.yul\":6123:6128   */\n      dup3\n        /* \"#utility.yul\":6119:6135   */\n      and\n        /* \"#utility.yul\":6108:6135   */\n      swap1\n      pop\n        /* \"#utility.yul\":6055:6141   */\n      swap2\n      swap1\n      pop\n      jump\t// out\n        /* \"#utility.yul\":6147:6259   */\n    tag_299:\n        /* \"#utility.yul\":6230:6252   */\n      tag_428\n        /* \"#utility.yul\":6246:6251   */\n      dup2\n        /* \"#utility.yul\":6230:6252   */\n      tag_298\n      jump\t// in\n    tag_428:\n        /* \"#utility.yul\":6225:6228   */\n      dup3\n        /* \"#utility.yul\":6218:6253   */\n      mstore\n        /* \"#utility.yul\":6147:6259   */\n      pop\n      pop\n      jump\t// out\n        /* \"#utility.yul\":6265:6479   */\n    tag_74:\n        /* \"#utility.yul\":6354:6358   */\n      0x00\n        /* \"#utility.yul\":6392:6394   */\n      0x20\n        /* \"#utility.yul\":6381:6390   */\n      dup3\n        /* \"#utility.yul\":6377:6395   */\n      add\n        /* \"#utility.yul\":6369:6395   */\n      swap1\n      pop\n        /* \"#utility.yul\":6405:6472   */\n      tag_430\n        /* \"#utility.yul\":6469:6470   */\n      0x00\n        /* \"#utility.yul\":6458:6467   */\n      dup4\n        /* \"#utility.yul\":6454:6471   */\n      add\n        /* \"#utility.yul\":6445:6451   */\n      dup5\n        /* \"#utility.yul\":6405:6472   */\n      tag_299\n      jump\t// in\n    tag_430:\n        /* \"#utility.yul\":6265:6479   */\n      swap3\n      swap2\n      pop\n      pop\n      jump\t// out\n        /* \"#utility.yul\":6485:6707   */\n    tag_79:\n        /* \"#utility.yul\":6578:6582   */\n      0x00\n        /* \"#utility.yul\":6616:6618   */\n      0x20\n        /* \"#utility.yul\":6605:6614   */\n      dup3\n        /* \"#utility.yul\":6601:6619   */\n      add\n        /* \"#utility.yul\":6593:6619   */\n      swap1\n      pop\n        /* \"#utility.yul\":6629:6700   */\n      tag_432\n        /* \"#utility.yul\":6697:6698   */\n      0x00\n        /* \"#utility.yul\":6686:6695   */\n      dup4\n        /* \"#utility.yul\":6682:6699   */\n      add\n        /* \"#utility.yul\":6673:6679   */\n      dup5\n        /* \"#utility.yul\":6629:6700   */\n      tag_293\n      jump\t// in\n    tag_432:\n        /* \"#utility.yul\":6485:6707   */\n      swap3\n      swap2\n      pop\n      pop\n      jump\t// out\n        /* \"#utility.yul\":6713:6855   */\n    tag_300:\n        /* \"#utility.yul\":6779:6788   */\n      0x00\n        /* \"#utility.yul\":6812:6849   */\n      tag_434\n        /* \"#utility.yul\":6843:6848   */\n      dup3\n        /* \"#utility.yul\":6812:6849   */\n      tag_289\n      jump\t// in\n    tag_434:\n        /* \"#utility.yul\":6799:6849   */\n      swap1\n      pop\n        /* \"#utility.yul\":6713:6855   */\n      swap2\n      swap1\n      pop\n      jump\t// out\n        /* \"#utility.yul\":6861:7024   */\n    tag_301:\n        /* \"#utility.yul\":6964:7017   */\n      tag_436\n        /* \"#utility.yul\":7011:7016   */\n      dup2\n        /* \"#utility.yul\":6964:7017   */\n      tag_300\n      jump\t// in\n    tag_436:\n        /* \"#utility.yul\":6959:6962   */\n      dup3\n        /* \"#utility.yul\":6952:7018   */\n      mstore\n        /* \"#utility.yul\":6861:7024   */\n      pop\n      pop\n      jump\t// out\n        /* \"#utility.yul\":7030:7284   */\n    tag_92:\n        /* \"#utility.yul\":7139:7143   */\n      0x00\n        /* \"#utility.yul\":7177:7179   */\n      0x20\n        /* \"#utility.yul\":7166:7175   */\n      dup3\n        /* \"#utility.yul\":7162:7180   */\n      add\n        /* \"#utility.yul\":7154:7180   */\n      swap1\n      pop\n        /* \"#utility.yul\":7190:7277   */\n      tag_438\n        /* \"#utility.yul\":7274:7275   */\n      0x00\n        /* \"#utility.yul\":7263:7272   */\n      dup4\n        /* \"#utility.yul\":7259:7276   */\n      add\n        /* \"#utility.yul\":7250:7256   */\n      dup5\n        /* \"#utility.yul\":7190:7277   */\n      tag_301\n      jump\t// in\n    tag_438:\n        /* \"#utility.yul\":7030:7284   */\n      swap3\n      swap2\n      pop\n      pop\n      jump\t// out\n        /* \"#utility.yul\":7290:7398   */\n    tag_302:\n        /* \"#utility.yul\":7367:7391   */\n      tag_440\n        /* \"#utility.yul\":7385:7390   */\n      dup2\n        /* \"#utility.yul\":7367:7391   */\n      tag_278\n      jump\t// in\n    tag_440:\n        /* \"#utility.yul\":7362:7365   */\n      dup3\n        /* \"#utility.yul\":7355:7392   */\n      mstore\n        /* \"#utility.yul\":7290:7398   */\n      pop\n      pop\n      jump\t// out\n        /* \"#utility.yul\":7404:7512   */\n    tag_303:\n        /* \"#utility.yul\":7481:7505   */\n      tag_442\n        /* \"#utility.yul\":7499:7504   */\n      dup2\n        /* \"#utility.yul\":7481:7505   */\n      tag_282\n      jump\t// in\n    tag_442:\n        /* \"#utility.yul\":7476:7479   */\n      dup3\n        /* \"#utility.yul\":7469:7506   */\n      mstore\n        /* \"#utility.yul\":7404:7512   */\n      pop\n      pop\n      jump\t// out\n        /* \"#utility.yul\":7518:7663   */\n    tag_304:\n        /* \"#utility.yul\":7607:7656   */\n      tag_444\n        /* \"#utility.yul\":7650:7655   */\n      dup2\n        /* \"#utility.yul\":7607:7656   */\n      tag_296\n      jump\t// in\n    tag_444:\n        /* \"#utility.yul\":7602:7605   */\n      dup3\n        /* \"#utility.yul\":7595:7657   */\n      mstore\n        /* \"#utility.yul\":7518:7663   */\n      pop\n      pop\n      jump\t// out\n        /* \"#utility.yul\":7753:8983   */\n    tag_305:\n        /* \"#utility.yul\":7904:7908   */\n      0xc0\n        /* \"#utility.yul\":7899:7902   */\n      dup3\n        /* \"#utility.yul\":7895:7909   */\n      add\n        /* \"#utility.yul\":7993:7997   */\n      0x00\n        /* \"#utility.yul\":7986:7991   */\n      dup3\n        /* \"#utility.yul\":7982:7998   */\n      add\n        /* \"#utility.yul\":7976:7999   */\n      mload\n        /* \"#utility.yul\":8012:8075   */\n      tag_446\n        /* \"#utility.yul\":8069:8073   */\n      0x00\n        /* \"#utility.yul\":8064:8067   */\n      dup6\n        /* \"#utility.yul\":8060:8074   */\n      add\n        /* \"#utility.yul\":8046:8058   */\n      dup3\n        /* \"#utility.yul\":8012:8075   */\n      tag_302\n      jump\t// in\n    tag_446:\n        /* \"#utility.yul\":7919:8085   */\n      pop\n        /* \"#utility.yul\":8170:8174   */\n      0x20\n        /* \"#utility.yul\":8163:8168   */\n      dup3\n        /* \"#utility.yul\":8159:8175   */\n      add\n        /* \"#utility.yul\":8153:8176   */\n      mload\n        /* \"#utility.yul\":8189:8252   */\n      tag_447\n        /* \"#utility.yul\":8246:8250   */\n      0x20\n        /* \"#utility.yul\":8241:8244   */\n      dup6\n        /* \"#utility.yul\":8237:8251   */\n      add\n        /* \"#utility.yul\":8223:8235   */\n      dup3\n        /* \"#utility.yul\":8189:8252   */\n      tag_302\n      jump\t// in\n    tag_447:\n        /* \"#utility.yul\":8095:8262   */\n      pop\n        /* \"#utility.yul\":8346:8350   */\n      0x40\n        /* \"#utility.yul\":8339:8344   */\n      dup3\n        /* \"#utility.yul\":8335:8351   */\n      add\n        /* \"#utility.yul\":8329:8352   */\n      mload\n        /* \"#utility.yul\":8365:8428   */\n      tag_448\n        /* \"#utility.yul\":8422:8426   */\n      0x40\n        /* \"#utility.yul\":8417:8420   */\n      dup6\n        /* \"#utility.yul\":8413:8427   */\n      add\n        /* \"#utility.yul\":8399:8411   */\n      dup3\n        /* \"#utility.yul\":8365:8428   */\n      tag_303\n      jump\t// in\n    tag_448:\n        /* \"#utility.yul\":8272:8438   */\n      pop\n        /* \"#utility.yul\":8521:8525   */\n      0x60\n        /* \"#utility.yul\":8514:8519   */\n      dup3\n        /* \"#utility.yul\":8510:8526   */\n      add\n        /* \"#utility.yul\":8504:8527   */\n      mload\n        /* \"#utility.yul\":8540:8603   */\n      tag_449\n        /* \"#utility.yul\":8597:8601   */\n      0x60\n        /* \"#utility.yul\":8592:8595   */\n      dup6\n        /* \"#utility.yul\":8588:8602   */\n      add\n        /* \"#utility.yul\":8574:8586   */\n      dup3\n        /* \"#utility.yul\":8540:8603   */\n      tag_303\n      jump\t// in\n    tag_449:\n        /* \"#utility.yul\":8448:8613   */\n      pop\n        /* \"#utility.yul\":8696:8700   */\n      0x80\n        /* \"#utility.yul\":8689:8694   */\n      dup3\n        /* \"#utility.yul\":8685:8701   */\n      add\n        /* \"#utility.yul\":8679:8702   */\n      mload\n        /* \"#utility.yul\":8715:8778   */\n      tag_450\n        /* \"#utility.yul\":8772:8776   */\n      0x80\n        /* \"#utility.yul\":8767:8770   */\n      dup6\n        /* \"#utility.yul\":8763:8777   */\n      add\n        /* \"#utility.yul\":8749:8761   */\n      dup3\n        /* \"#utility.yul\":8715:8778   */\n      tag_302\n      jump\t// in\n    tag_450:\n        /* \"#utility.yul\":8623:8788   */\n      pop\n        /* \"#utility.yul\":8872:8876   */\n      0xa0\n        /* \"#utility.yul\":8865:8870   */\n      dup3\n        /* \"#utility.yul\":8861:8877   */\n      add\n        /* \"#utility.yul\":8855:8878   */\n      mload\n        /* \"#utility.yul\":8891:8966   */\n      tag_451\n        /* \"#utility.yul\":8960:8964   */\n      0xa0\n        /* \"#utility.yul\":8955:8958   */\n      dup6\n        /* \"#utility.yul\":8951:8965   */\n      add\n        /* \"#utility.yul\":8937:8949   */\n      dup3\n        /* \"#utility.yul\":8891:8966   */\n      tag_304\n      jump\t// in\n    tag_451:\n        /* \"#utility.yul\":8798:8976   */\n      pop\n        /* \"#utility.yul\":7873:8983   */\n      pop\n        /* \"#utility.yul\":7753:8983   */\n      pop\n      pop\n      jump\t// out\n        /* \"#utility.yul\":8989:9320   */\n    tag_98:\n        /* \"#utility.yul\":9136:9140   */\n      0x00\n        /* \"#utility.yul\":9174:9177   */\n      0xc0\n        /* \"#utility.yul\":9163:9172   */\n      dup3\n        /* \"#utility.yul\":9159:9178   */\n      add\n        /* \"#utility.yul\":9151:9178   */\n      swap1\n      pop\n        /* \"#utility.yul\":9188:9313   */\n      tag_453\n        /* \"#utility.yul\":9310:9311   */\n      0x00\n        /* \"#utility.yul\":9299:9308   */\n      dup4\n        /* \"#utility.yul\":9295:9312   */\n      add\n        /* \"#utility.yul\":9286:9292   */\n      dup5\n        /* \"#utility.yul\":9188:9313   */\n      tag_305\n      jump\t// in\n    tag_453:\n        /* \"#utility.yul\":8989:9320   */\n      swap3\n      swap2\n      pop\n      pop\n      jump\t// out\n        /* \"#utility.yul\":9326:9467   */\n    tag_306:\n        /* \"#utility.yul\":9391:9400   */\n      0x00\n        /* \"#utility.yul\":9424:9461   */\n      tag_455\n        /* \"#utility.yul\":9455:9460   */\n      dup3\n        /* \"#utility.yul\":9424:9461   */\n      tag_289\n      jump\t// in\n    tag_455:\n        /* \"#utility.yul\":9411:9461   */\n      swap1\n      pop\n        /* \"#utility.yul\":9326:9467   */\n      swap2\n      swap1\n      pop\n      jump\t// out\n        /* \"#utility.yul\":9473:9634   */\n    tag_307:\n        /* \"#utility.yul\":9575:9627   */\n      tag_457\n        /* \"#utility.yul\":9621:9626   */\n      dup2\n        /* \"#utility.yul\":9575:9627   */\n      tag_306\n      jump\t// in\n    tag_457:\n        /* \"#utility.yul\":9570:9573   */\n      dup3\n        /* \"#utility.yul\":9563:9628   */\n      mstore\n        /* \"#utility.yul\":9473:9634   */\n      pop\n      pop\n      jump\t// out\n        /* \"#utility.yul\":9640:9892   */\n    tag_107:\n        /* \"#utility.yul\":9748:9752   */\n      0x00\n        /* \"#utility.yul\":9786:9788   */\n      0x20\n        /* \"#utility.yul\":9775:9784   */\n      dup3\n        /* \"#utility.yul\":9771:9789   */\n      add\n        /* \"#utility.yul\":9763:9789   */\n      swap1\n      pop\n        /* \"#utility.yul\":9799:9885   */\n      tag_459\n        /* \"#utility.yul\":9882:9883   */\n      0x00\n        /* \"#utility.yul\":9871:9880   */\n      dup4\n        /* \"#utility.yul\":9867:9884   */\n      add\n        /* \"#utility.yul\":9858:9864   */\n      dup5\n        /* \"#utility.yul\":9799:9885   */\n      tag_307\n      jump\t// in\n    tag_459:\n        /* \"#utility.yul\":9640:9892   */\n      swap3\n      swap2\n      pop\n      pop\n      jump\t// out\n        /* \"#utility.yul\":9898:10067   */\n    tag_308:\n        /* \"#utility.yul\":9982:9993   */\n      0x00\n        /* \"#utility.yul\":10016:10022   */\n      dup3\n        /* \"#utility.yul\":10011:10014   */\n      dup3\n        /* \"#utility.yul\":10004:10023   */\n      mstore\n        /* \"#utility.yul\":10056:10060   */\n      0x20\n        /* \"#utility.yul\":10051:10054   */\n      dup3\n        /* \"#utility.yul\":10047:10061   */\n      add\n        /* \"#utility.yul\":10032:10061   */\n      swap1\n      pop\n        /* \"#utility.yul\":9898:10067   */\n      swap3\n      swap2\n      pop\n      pop\n      jump\t// out\n        /* \"#utility.yul\":10073:10242   */\n    tag_309:\n        /* \"#utility.yul\":10213:10234   */\n      0x4173736574206e6f74207075626c697368656400000000000000000000000000\n        /* \"#utility.yul\":10209:10210   */\n      0x00\n        /* \"#utility.yul\":10201:10207   */\n      dup3\n        /* \"#utility.yul\":10197:10211   */\n      add\n        /* \"#utility.yul\":10190:10235   */\n      mstore\n        /* \"#utility.yul\":10073:10242   */\n      pop\n      jump\t// out\n        /* \"#utility.yul\":10248:10614   */\n    tag_310:\n        /* \"#utility.yul\":10390:10393   */\n      0x00\n        /* \"#utility.yul\":10411:10478   */\n      tag_463\n        /* \"#utility.yul\":10475:10477   */\n      0x13\n        /* \"#utility.yul\":10470:10473   */\n      dup4\n        /* \"#utility.yul\":10411:10478   */\n      tag_308\n      jump\t// in\n    tag_463:\n        /* \"#utility.yul\":10404:10478   */\n      swap2\n      pop\n        /* \"#utility.yul\":10487:10580   */\n      tag_464\n        /* \"#utility.yul\":10576:10579   */\n      dup3\n        /* \"#utility.yul\":10487:10580   */\n      tag_309\n      jump\t// in\n    tag_464:\n        /* \"#utility.yul\":10605:10607   */\n      0x20\n        /* \"#utility.yul\":10600:10603   */\n      dup3\n        /* \"#utility.yul\":10596:10608   */\n      add\n        /* \"#utility.yul\":10589:10608   */\n      swap1\n      pop\n        /* \"#utility.yul\":10248:10614   */\n      swap2\n      swap1\n      pop\n      jump\t// out\n        /* \"#utility.yul\":10620:11039   */\n    tag_121:\n        /* \"#utility.yul\":10786:10790   */\n      0x00\n        /* \"#utility.yul\":10824:10826   */\n      0x20\n        /* \"#utility.yul\":10813:10822   */\n      dup3\n        /* \"#utility.yul\":10809:10827   */\n      add\n        /* \"#utility.yul\":10801:10827   */\n      swap1\n      pop\n        /* \"#utility.yul\":10873:10882   */\n      dup2\n        /* \"#utility.yul\":10867:10871   */\n      dup2\n        /* \"#utility.yul\":10863:10883   */\n      sub\n        /* \"#utility.yul\":10859:10860   */\n      0x00\n        /* \"#utility.yul\":10848:10857   */\n      dup4\n        /* \"#utility.yul\":10844:10861   */\n      add\n        /* \"#utility.yul\":10837:10884   */\n      mstore\n        /* \"#utility.yul\":10901:11032   */\n      tag_466\n        /* \"#utility.yul\":11027:11031   */\n      dup2\n        /* \"#utility.yul\":10901:11032   */\n      tag_310\n      jump\t// in\n    tag_466:\n        /* \"#utility.yul\":10893:11032   */\n      swap1\n      pop\n        /* \"#utility.yul\":10620:11039   */\n      swap2\n      swap1\n      pop\n      jump\t// out\n        /* \"#utility.yul\":11045:11209   */\n    tag_311:\n        /* \"#utility.yul\":11185:11201   */\n      0x41737365742064656c6973746564000000000000000000000000000000000000\n        /* \"#utility.yul\":11181:11182   */\n      0x00\n        /* \"#utility.yul\":11173:11179   */\n      dup3\n        /* \"#utility.yul\":11169:11183   */\n      add\n        /* \"#utility.yul\":11162:11202   */\n      mstore\n        /* \"#utility.yul\":11045:11209   */\n      pop\n      jump\t// out\n        /* \"#utility.yul\":11215:11581   */\n    tag_312:\n        /* \"#utility.yul\":11357:11360   */\n      0x00\n        /* \"#utility.yul\":11378:11445   */\n      tag_469\n        /* \"#utility.yul\":11442:11444   */\n      0x0e\n        /* \"#utility.yul\":11437:11440   */\n      dup4\n        /* \"#utility.yul\":11378:11445   */\n      tag_308\n      jump\t// in\n    tag_469:\n        /* \"#utility.yul\":11371:11445   */\n      swap2\n      pop\n        /* \"#utility.yul\":11454:11547   */\n      tag_470\n        /* \"#utility.yul\":11543:11546   */\n      dup3\n        /* \"#utility.yul\":11454:11547   */\n      tag_311\n      jump\t// in\n    tag_470:\n        /* \"#utility.yul\":11572:11574   */\n      0x20\n        /* \"#utility.yul\":11567:11570   */\n      dup3\n        /* \"#utility.yul\":11563:11575   */\n      add\n        /* \"#utility.yul\":11556:11575   */\n      swap1\n      pop\n        /* \"#utility.yul\":11215:11581   */\n      swap2\n      swap1\n      pop\n      jump\t// out\n        /* \"#utility.yul\":11587:12006   */\n    tag_128:\n        /* \"#utility.yul\":11753:11757   */\n      0x00\n        /* \"#utility.yul\":11791:11793   */\n      0x20\n        /* \"#utility.yul\":11780:11789   */\n      dup3\n        /* \"#utility.yul\":11776:11794   */\n      add\n        /* \"#utility.yul\":11768:11794   */\n      swap1\n      pop\n        /* \"#utility.yul\":11840:11849   */\n      dup2\n        /* \"#utility.yul\":11834:11838   */\n      dup2\n        /* \"#utility.yul\":11830:11850   */\n      sub\n        /* \"#utility.yul\":11826:11827   */\n      0x00\n        /* \"#utility.yul\":11815:11824   */\n      dup4\n        /* \"#utility.yul\":11811:11828   */\n      add\n        /* \"#utility.yul\":11804:11851   */\n      mstore\n        /* \"#utility.yul\":11868:11999   */\n      tag_472\n        /* \"#utility.yul\":11994:11998   */\n      dup2\n        /* \"#utility.yul\":11868:11999   */\n      tag_312\n      jump\t// in\n    tag_472:\n        /* \"#utility.yul\":11860:11999   */\n      swap1\n      pop\n        /* \"#utility.yul\":11587:12006   */\n      swap2\n      swap1\n      pop\n      jump\t// out\n        /* \"#utility.yul\":12012:12177   */\n    tag_313:\n        /* \"#utility.yul\":12152:12169   */\n      0x496e76616c696420616464726573730000000000000000000000000000000000\n        /* \"#utility.yul\":12148:12149   */\n      0x00\n        /* \"#utility.yul\":12140:12146   */\n      dup3\n        /* \"#utility.yul\":12136:12150   */\n      add\n        /* \"#utility.yul\":12129:12170   */\n      mstore\n        /* \"#utility.yul\":12012:12177   */\n      pop\n      jump\t// out\n        /* \"#utility.yul\":12183:12549   */\n    tag_314:\n        /* \"#utility.yul\":12325:12328   */\n      0x00\n        /* \"#utility.yul\":12346:12413   */\n      tag_475\n        /* \"#utility.yul\":12410:12412   */\n      0x0f\n        /* \"#utility.yul\":12405:12408   */\n      dup4\n        /* \"#utility.yul\":12346:12413   */\n      tag_308\n      jump\t// in\n    tag_475:\n        /* \"#utility.yul\":12339:12413   */\n      swap2\n      pop\n        /* \"#utility.yul\":12422:12515   */\n      tag_476\n        /* \"#utility.yul\":12511:12514   */\n      dup3\n        /* \"#utility.yul\":12422:12515   */\n      tag_313\n      jump\t// in\n    tag_476:\n        /* \"#utility.yul\":12540:12542   */\n      0x20\n        /* \"#utility.yul\":12535:12538   */\n      dup3\n        /* \"#utility.yul\":12531:12543   */\n      add\n        /* \"#utility.yul\":12524:12543   */\n      swap1\n      pop\n        /* \"#utility.yul\":12183:12549   */\n      swap2\n      swap1\n      pop\n      jump\t// out\n        /* \"#utility.yul\":12555:12974   */\n    tag_131:\n        /* \"#utility.yul\":12721:12725   */\n      0x00\n        /* \"#utility.yul\":12759:12761   */\n      0x20\n        /* \"#utility.yul\":12748:12757   */\n      dup3\n        /* \"#utility.yul\":12744:12762   */\n      add\n        /* \"#utility.yul\":12736:12762   */\n      swap1\n      pop\n        /* \"#utility.yul\":12808:12817   */\n      dup2\n        /* \"#utility.yul\":12802:12806   */\n      dup2\n        /* \"#utility.yul\":12798:12818   */\n      sub\n        /* \"#utility.yul\":12794:12795   */\n      0x00\n        /* \"#utility.yul\":12783:12792   */\n      dup4\n        /* \"#utility.yul\":12779:12796   */\n      add\n        /* \"#utility.yul\":12772:12819   */\n      mstore\n        /* \"#utility.yul\":12836:12967   */\n      tag_478\n        /* \"#utility.yul\":12962:12966   */\n      dup2\n        /* \"#utility.yul\":12836:12967   */\n      tag_314\n      jump\t// in\n    tag_478:\n        /* \"#utility.yul\":12828:12967   */\n      swap1\n      pop\n        /* \"#utility.yul\":12555:12974   */\n      swap2\n      swap1\n      pop\n      jump\t// out\n        /* \"#utility.yul\":12980:13152   */\n    tag_315:\n        /* \"#utility.yul\":13120:13144   */\n      0x4f6e6c792073656c6c65722063616e2064656c69737400000000000000000000\n        /* \"#utility.yul\":13116:13117   */\n      0x00\n        /* \"#utility.yul\":13108:13114   */\n      dup3\n        /* \"#utility.yul\":13104:13118   */\n      add\n        /* \"#utility.yul\":13097:13145   */\n      mstore\n        /* \"#utility.yul\":12980:13152   */\n      pop\n      jump\t// out\n        /* \"#utility.yul\":13158:13524   */\n    tag_316:\n        /* \"#utility.yul\":13300:13303   */\n      0x00\n        /* \"#utility.yul\":13321:13388   */\n      tag_481\n        /* \"#utility.yul\":13385:13387   */\n      0x16\n        /* \"#utility.yul\":13380:13383   */\n      dup4\n        /* \"#utility.yul\":13321:13388   */\n      tag_308\n      jump\t// in\n    tag_481:\n        /* \"#utility.yul\":13314:13388   */\n      swap2\n      pop\n        /* \"#utility.yul\":13397:13490   */\n      tag_482\n        /* \"#utility.yul\":13486:13489   */\n      dup3\n        /* \"#utility.yul\":13397:13490   */\n      tag_315\n      jump\t// in\n    tag_482:\n        /* \"#utility.yul\":13515:13517   */\n      0x20\n        /* \"#utility.yul\":13510:13513   */\n      dup3\n        /* \"#utility.yul\":13506:13518   */\n      add\n        /* \"#utility.yul\":13499:13518   */\n      swap1\n      pop\n        /* \"#utility.yul\":13158:13524   */\n      swap2\n      swap1\n      pop\n      jump\t// out\n        /* \"#utility.yul\":13530:13949   */\n    tag_134:\n        /* \"#utility.yul\":13696:13700   */\n      0x00\n        /* \"#utility.yul\":13734:13736   */\n      0x20\n        /* \"#utility.yul\":13723:13732   */\n      dup3\n        /* \"#utility.yul\":13719:13737   */\n      add\n        /* \"#utility.yul\":13711:13737   */\n      swap1\n      pop\n        /* \"#utility.yul\":13783:13792   */\n      dup2\n        /* \"#utility.yul\":13777:13781   */\n      dup2\n        /* \"#utility.yul\":13773:13793   */\n      sub\n        /* \"#utility.yul\":13769:13770   */\n      0x00\n        /* \"#utility.yul\":13758:13767   */\n      dup4\n        /* \"#utility.yul\":13754:13771   */\n      add\n        /* \"#utility.yul\":13747:13794   */\n      mstore\n        /* \"#utility.yul\":13811:13942   */\n      tag_484\n        /* \"#utility.yul\":13937:13941   */\n      dup2\n        /* \"#utility.yul\":13811:13942   */\n      tag_316\n      jump\t// in\n    tag_484:\n        /* \"#utility.yul\":13803:13942   */\n      swap1\n      pop\n        /* \"#utility.yul\":13530:13949   */\n      swap2\n      swap1\n      pop\n      jump\t// out\n        /* \"#utility.yul\":13955:14397   */\n    tag_136:\n        /* \"#utility.yul\":14104:14108   */\n      0x00\n        /* \"#utility.yul\":14142:14144   */\n      0x60\n        /* \"#utility.yul\":14131:14140   */\n      dup3\n        /* \"#utility.yul\":14127:14145   */\n      add\n        /* \"#utility.yul\":14119:14145   */\n      swap1\n      pop\n        /* \"#utility.yul\":14155:14226   */\n      tag_486\n        /* \"#utility.yul\":14223:14224   */\n      0x00\n        /* \"#utility.yul\":14212:14221   */\n      dup4\n        /* \"#utility.yul\":14208:14225   */\n      add\n        /* \"#utility.yul\":14199:14205   */\n      dup7\n        /* \"#utility.yul\":14155:14226   */\n      tag_293\n      jump\t// in\n    tag_486:\n        /* \"#utility.yul\":14236:14308   */\n      tag_487\n        /* \"#utility.yul\":14304:14306   */\n      0x20\n        /* \"#utility.yul\":14293:14302   */\n      dup4\n        /* \"#utility.yul\":14289:14307   */\n      add\n        /* \"#utility.yul\":14280:14286   */\n      dup6\n        /* \"#utility.yul\":14236:14308   */\n      tag_293\n      jump\t// in\n    tag_487:\n        /* \"#utility.yul\":14318:14390   */\n      tag_488\n        /* \"#utility.yul\":14386:14388   */\n      0x40\n        /* \"#utility.yul\":14375:14384   */\n      dup4\n        /* \"#utility.yul\":14371:14389   */\n      add\n        /* \"#utility.yul\":14362:14368   */\n      dup5\n        /* \"#utility.yul\":14318:14390   */\n      tag_292\n      jump\t// in\n    tag_488:\n        /* \"#utility.yul\":13955:14397   */\n      swap5\n      swap4\n      pop\n      pop\n      pop\n      pop\n      jump\t// out\n        /* \"#utility.yul\":14403:14735   */\n    tag_145:\n        /* \"#utility.yul\":14524:14528   */\n      0x00\n        /* \"#utility.yul\":14562:14564   */\n      0x40\n        /* \"#utility.yul\":14551:14560   */\n      dup3\n        /* \"#utility.yul\":14547:14565   */\n      add\n        /* \"#utility.yul\":14539:14565   */\n      swap1\n      pop\n        /* \"#utility.yul\":14575:14646   */\n      tag_490\n        /* \"#utility.yul\":14643:14644   */\n      0x00\n        /* \"#utility.yul\":14632:14641   */\n      dup4\n        /* \"#utility.yul\":14628:14645   */\n      add\n        /* \"#utility.yul\":14619:14625   */\n      dup6\n        /* \"#utility.yul\":14575:14646   */\n      tag_292\n      jump\t// in\n    tag_490:\n        /* \"#utility.yul\":14656:14728   */\n      tag_491\n        /* \"#utility.yul\":14724:14726   */\n      0x20\n        /* \"#utility.yul\":14713:14722   */\n      dup4\n        /* \"#utility.yul\":14709:14727   */\n      add\n        /* \"#utility.yul\":14700:14706   */\n      dup5\n        /* \"#utility.yul\":14656:14728   */\n      tag_292\n      jump\t// in\n    tag_491:\n        /* \"#utility.yul\":14403:14735   */\n      swap4\n      swap3\n      pop\n      pop\n      pop\n      jump\t// out\n        /* \"#utility.yul\":14741:14923   */\n    tag_317:\n        /* \"#utility.yul\":14881:14915   */\n      0x4f776e61626c653a2063616c6c6572206973206e6f7420746865206f776e6572\n        /* \"#utility.yul\":14877:14878   */\n      0x00\n        /* \"#utility.yul\":14869:14875   */\n      dup3\n        /* \"#utility.yul\":14865:14879   */\n      add\n        /* \"#utility.yul\":14858:14916   */\n      mstore\n        /* \"#utility.yul\":14741:14923   */\n      pop\n      jump\t// out\n        /* \"#utility.yul\":14929:15295   */\n    tag_318:\n        /* \"#utility.yul\":15071:15074   */\n      0x00\n        /* \"#utility.yul\":15092:15159   */\n      tag_494\n        /* \"#utility.yul\":15156:15158   */\n      0x20\n        /* \"#utility.yul\":15151:15154   */\n      dup4\n        /* \"#utility.yul\":15092:15159   */\n      tag_308\n      jump\t// in\n    tag_494:\n        /* \"#utility.yul\":15085:15159   */\n      swap2\n      pop\n        /* \"#utility.yul\":15168:15261   */\n      tag_495\n        /* \"#utility.yul\":15257:15260   */\n      dup3\n        /* \"#utility.yul\":15168:15261   */\n      tag_317\n      jump\t// in\n    tag_495:\n        /* \"#utility.yul\":15286:15288   */\n      0x20\n        /* \"#utility.yul\":15281:15284   */\n      dup3\n        /* \"#utility.yul\":15277:15289   */\n      add\n        /* \"#utility.yul\":15270:15289   */\n      swap1\n      pop\n        /* \"#utility.yul\":14929:15295   */\n      swap2\n      swap1\n      pop\n      jump\t// out\n        /* \"#utility.yul\":15301:15720   */\n    tag_152:\n        /* \"#utility.yul\":15467:15471   */\n      0x00\n        /* \"#utility.yul\":15505:15507   */\n      0x20\n        /* \"#utility.yul\":15494:15503   */\n      dup3\n        /* \"#utility.yul\":15490:15508   */\n      add\n        /* \"#utility.yul\":15482:15508   */\n      swap1\n      pop\n        /* \"#utility.yul\":15554:15563   */\n      dup2\n        /* \"#utility.yul\":15548:15552   */\n      dup2\n        /* \"#utility.yul\":15544:15564   */\n      sub\n        /* \"#utility.yul\":15540:15541   */\n      0x00\n        /* \"#utility.yul\":15529:15538   */\n      dup4\n        /* \"#utility.yul\":15525:15542   */\n      add\n        /* \"#utility.yul\":15518:15565   */\n      mstore\n        /* \"#utility.yul\":15582:15713   */\n      tag_497\n        /* \"#utility.yul\":15708:15712   */\n      dup2\n        /* \"#utility.yul\":15582:15713   */\n      tag_318\n      jump\t// in\n    tag_497:\n        /* \"#utility.yul\":15574:15713   */\n      swap1\n      pop\n        /* \"#utility.yul\":15301:15720   */\n      swap2\n      swap1\n      pop\n      jump\t// out\n        /* \"#utility.yul\":15726:15907   */\n    tag_319:\n        /* \"#utility.yul\":15866:15899   */\n      0x5265656e7472616e637947756172643a207265656e7472616e742063616c6c00\n        /* \"#utility.yul\":15862:15863   */\n      0x00\n        /* \"#utility.yul\":15854:15860   */\n      dup3\n        /* \"#utility.yul\":15850:15864   */\n      add\n        /* \"#utility.yul\":15843:15900   */\n      mstore\n        /* \"#utility.yul\":15726:15907   */\n      pop\n      jump\t// out\n        /* \"#utility.yul\":15913:16279   */\n    tag_320:\n        /* \"#utility.yul\":16055:16058   */\n      0x00\n        /* \"#utility.yul\":16076:16143   */\n      tag_500\n        /* \"#utility.yul\":16140:16142   */\n      0x1f\n        /* \"#utility.yul\":16135:16138   */\n      dup4\n        /* \"#utility.yul\":16076:16143   */\n      tag_308\n      jump\t// in\n    tag_500:\n        /* \"#utility.yul\":16069:16143   */\n      swap2\n      pop\n        /* \"#utility.yul\":16152:16245   */\n      tag_501\n        /* \"#utility.yul\":16241:16244   */\n      dup3\n        /* \"#utility.yul\":16152:16245   */\n      tag_319\n      jump\t// in\n    tag_501:\n        /* \"#utility.yul\":16270:16272   */\n      0x20\n        /* \"#utility.yul\":16265:16268   */\n      dup3\n        /* \"#utility.yul\":16261:16273   */\n      add\n        /* \"#utility.yul\":16254:16273   */\n      swap1\n      pop\n        /* \"#utility.yul\":15913:16279   */\n      swap2\n      swap1\n      pop\n      jump\t// out\n        /* \"#utility.yul\":16285:16704   */\n    tag_163:\n        /* \"#utility.yul\":16451:16455   */\n      0x00\n        /* \"#utility.yul\":16489:16491   */\n      0x20\n        /* \"#utility.yul\":16478:16487   */\n      dup3\n        /* \"#utility.yul\":16474:16492   */\n      add\n        /* \"#utility.yul\":16466:16492   */\n      swap1\n      pop\n        /* \"#utility.yul\":16538:16547   */\n      dup2\n        /* \"#utility.yul\":16532:16536   */\n      dup2\n        /* \"#utility.yul\":16528:16548   */\n      sub\n        /* \"#utility.yul\":16524:16525   */\n      0x00\n        /* \"#utility.yul\":16513:16522   */\n      dup4\n        /* \"#utility.yul\":16509:16526   */\n      add\n        /* \"#utility.yul\":16502:16549   */\n      mstore\n        /* \"#utility.yul\":16566:16697   */\n      tag_503\n        /* \"#utility.yul\":16692:16696   */\n      dup2\n        /* \"#utility.yul\":16566:16697   */\n      tag_320\n      jump\t// in\n    tag_503:\n        /* \"#utility.yul\":16558:16697   */\n      swap1\n      pop\n        /* \"#utility.yul\":16285:16704   */\n      swap2\n      swap1\n      pop\n      jump\t// out\n        /* \"#utility.yul\":16710:16888   */\n    tag_321:\n        /* \"#utility.yul\":16850:16880   */\n      0x5072696365206d757374206265206174206c6561737420312077656900000000\n        /* \"#utility.yul\":16846:16847   */\n      0x00\n        /* \"#utility.yul\":16838:16844   */\n      dup3\n        /* \"#utility.yul\":16834:16848   */\n      add\n        /* \"#utility.yul\":16827:16881   */\n      mstore\n        /* \"#utility.yul\":16710:16888   */\n      pop\n      jump\t// out\n        /* \"#utility.yul\":16894:17260   */\n    tag_322:\n        /* \"#utility.yul\":17036:17039   */\n      0x00\n        /* \"#utility.yul\":17057:17124   */\n      tag_506\n        /* \"#utility.yul\":17121:17123   */\n      0x1c\n        /* \"#utility.yul\":17116:17119   */\n      dup4\n        /* \"#utility.yul\":17057:17124   */\n      tag_308\n      jump\t// in\n    tag_506:\n        /* \"#utility.yul\":17050:17124   */\n      swap2\n      pop\n        /* \"#utility.yul\":17133:17226   */\n      tag_507\n        /* \"#utility.yul\":17222:17225   */\n      dup3\n        /* \"#utility.yul\":17133:17226   */\n      tag_321\n      jump\t// in\n    tag_507:\n        /* \"#utility.yul\":17251:17253   */\n      0x20\n        /* \"#utility.yul\":17246:17249   */\n      dup3\n        /* \"#utility.yul\":17242:17254   */\n      add\n        /* \"#utility.yul\":17235:17254   */\n      swap1\n      pop\n        /* \"#utility.yul\":16894:17260   */\n      swap2\n      swap1\n      pop\n      jump\t// out\n        /* \"#utility.yul\":17266:17685   */\n    tag_167:\n        /* \"#utility.yul\":17432:17436   */\n      0x00\n        /* \"#utility.yul\":17470:17472   */\n      0x20\n        /* \"#utility.yul\":17459:17468   */\n      dup3\n        /* \"#utility.yul\":17455:17473   */\n      add\n        /* \"#utility.yul\":17447:17473   */\n      swap1\n      pop\n        /* \"#utility.yul\":17519:17528   */\n      dup2\n        /* \"#utility.yul\":17513:17517   */\n      dup2\n        /* \"#utility.yul\":17509:17529   */\n      sub\n        /* \"#utility.yul\":17505:17506   */\n      0x00\n        /* \"#utility.yul\":17494:17503   */\n      dup4\n        /* \"#utility.yul\":17490:17507   */\n      add\n        /* \"#utility.yul\":17483:17530   */\n      mstore\n        /* \"#utility.yul\":17547:17678   */\n      tag_509\n        /* \"#utility.yul\":17673:17677   */\n      dup2\n        /* \"#utility.yul\":17547:17678   */\n      tag_322\n      jump\t// in\n    tag_509:\n        /* \"#utility.yul\":17539:17678   */\n      swap1\n      pop\n        /* \"#utility.yul\":17266:17685   */\n      swap2\n      swap1\n      pop\n      jump\t// out\n        /* \"#utility.yul\":17691:17913   */\n    tag_169:\n        /* \"#utility.yul\":17784:17788   */\n      0x00\n        /* \"#utility.yul\":17822:17824   */\n      0x20\n        /* \"#utility.yul\":17811:17820   */\n      dup3\n        /* \"#utility.yul\":17807:17825   */\n      add\n        /* \"#utility.yul\":17799:17825   */\n      swap1\n      pop\n        /* \"#utility.yul\":17835:17906   */\n      tag_511\n        /* \"#utility.yul\":17903:17904   */\n      0x00\n        /* \"#utility.yul\":17892:17901   */\n      dup4\n        /* \"#utility.yul\":17888:17905   */\n      add\n        /* \"#utility.yul\":17879:17885   */\n      dup5\n        /* \"#utility.yul\":17835:17906   */\n      tag_292\n      jump\t// in\n    tag_511:\n        /* \"#utility.yul\":17691:17913   */\n      swap3\n      swap2\n      pop\n      pop\n      jump\t// out\n        /* \"#utility.yul\":17919:18036   */\n    tag_323:\n        /* \"#utility.yul\":18028:18029   */\n      0x00\n        /* \"#utility.yul\":18025:18026   */\n      dup1\n        /* \"#utility.yul\":18018:18030   */\n      revert\n        /* \"#utility.yul\":18042:18144   */\n    tag_324:\n        /* \"#utility.yul\":18083:18089   */\n      0x00\n        /* \"#utility.yul\":18134:18136   */\n      0x1f\n        /* \"#utility.yul\":18130:18137   */\n      not\n        /* \"#utility.yul\":18125:18127   */\n      0x1f\n        /* \"#utility.yul\":18118:18123   */\n      dup4\n        /* \"#utility.yul\":18114:18128   */\n      add\n        /* \"#utility.yul\":18110:18138   */\n      and\n        /* \"#utility.yul\":18100:18138   */\n      swap1\n      pop\n        /* \"#utility.yul\":18042:18144   */\n      swap2\n      swap1\n      pop\n      jump\t// out\n        /* \"#utility.yul\":18150:18330   */\n    tag_325:\n        /* \"#utility.yul\":18198:18275   */\n      0x4e487b7100000000000000000000000000000000000000000000000000000000\n        /* \"#utility.yul\":18195:18196   */\n      0x00\n        /* \"#utility.yul\":18188:18276   */\n      mstore\n        /* \"#utility.yul\":18295:18299   */\n      0x41\n        /* \"#utility.yul\":18292:18293   */\n      0x04\n        /* \"#utility.yul\":18285:18300   */\n      mstore\n        /* \"#utility.yul\":18319:18323   */\n      0x24\n        /* \"#utility.yul\":18316:18317   */\n      0x00\n        /* \"#utility.yul\":18309:18324   */\n      revert\n        /* \"#utility.yul\":18336:18617   */\n    tag_326:\n        /* \"#utility.yul\":18419:18446   */\n      tag_516\n        /* \"#utility.yul\":18441:18445   */\n      dup3\n        /* \"#utility.yul\":18419:18446   */\n      tag_324\n      jump\t// in\n    tag_516:\n        /* \"#utility.yul\":18411:18417   */\n      dup2\n        /* \"#utility.yul\":18407:18447   */\n      add\n        /* \"#utility.yul\":18549:18555   */\n      dup2\n        /* \"#utility.yul\":18537:18547   */\n      dup2\n        /* \"#utility.yul\":18534:18556   */\n      lt\n        /* \"#utility.yul\":18513:18531   */\n      0xffffffffffffffff\n        /* \"#utility.yul\":18501:18511   */\n      dup3\n        /* \"#utility.yul\":18498:18532   */\n      gt\n        /* \"#utility.yul\":18495:18557   */\n      or\n        /* \"#utility.yul\":18492:18580   */\n      iszero\n      tag_517\n      jumpi\n        /* \"#utility.yul\":18560:18578   */\n      tag_518\n      tag_325\n      jump\t// in\n    tag_518:\n        /* \"#utility.yul\":18492:18580   */\n    tag_517:\n        /* \"#utility.yul\":18600:18610   */\n      dup1\n        /* \"#utility.yul\":18596:18598   */\n      0x40\n        /* \"#utility.yul\":18589:18611   */\n      mstore\n        /* \"#utility.yul\":18379:18617   */\n      pop\n        /* \"#utility.yul\":18336:18617   */\n      pop\n      pop\n      jump\t// out\n        /* \"#utility.yul\":18623:18752   */\n    tag_327:\n        /* \"#utility.yul\":18657:18663   */\n      0x00\n        /* \"#utility.yul\":18684:18704   */\n      tag_520\n      tag_275\n      jump\t// in\n    tag_520:\n        /* \"#utility.yul\":18674:18704   */\n      swap1\n      pop\n        /* \"#utility.yul\":18713:18746   */\n      tag_521\n        /* \"#utility.yul\":18741:18745   */\n      dup3\n        /* \"#utility.yul\":18733:18739   */\n      dup3\n        /* \"#utility.yul\":18713:18746   */\n      tag_326\n      jump\t// in\n    tag_521:\n        /* \"#utility.yul\":18623:18752   */\n      swap2\n      swap1\n      pop\n      jump\t// out\n        /* \"#utility.yul\":18758:18875   */\n    tag_328:\n        /* \"#utility.yul\":18867:18868   */\n      0x00\n        /* \"#utility.yul\":18864:18865   */\n      dup1\n        /* \"#utility.yul\":18857:18869   */\n      revert\n        /* \"#utility.yul\":18881:19024   */\n    tag_329:\n        /* \"#utility.yul\":18938:18943   */\n      0x00\n        /* \"#utility.yul\":18969:18975   */\n      dup2\n        /* \"#utility.yul\":18963:18976   */\n      mload\n        /* \"#utility.yul\":18954:18976   */\n      swap1\n      pop\n        /* \"#utility.yul\":18985:19018   */\n      tag_524\n        /* \"#utility.yul\":19012:19017   */\n      dup2\n        /* \"#utility.yul\":18985:19018   */\n      tag_279\n      jump\t// in\n    tag_524:\n        /* \"#utility.yul\":18881:19024   */\n      swap3\n      swap2\n      pop\n      pop\n      jump\t// out\n        /* \"#utility.yul\":19030:19173   */\n    tag_330:\n        /* \"#utility.yul\":19087:19092   */\n      0x00\n        /* \"#utility.yul\":19118:19124   */\n      dup2\n        /* \"#utility.yul\":19112:19125   */\n      mload\n        /* \"#utility.yul\":19103:19125   */\n      swap1\n      pop\n        /* \"#utility.yul\":19134:19167   */\n      tag_526\n        /* \"#utility.yul\":19161:19166   */\n      dup2\n        /* \"#utility.yul\":19134:19167   */\n      tag_283\n      jump\t// in\n    tag_526:\n        /* \"#utility.yul\":19030:19173   */\n      swap3\n      swap2\n      pop\n      pop\n      jump\t// out\n        /* \"#utility.yul\":19179:19296   */\n    tag_331:\n        /* \"#utility.yul\":19288:19289   */\n      0x00\n        /* \"#utility.yul\":19285:19286   */\n      dup1\n        /* \"#utility.yul\":19278:19290   */\n      revert\n        /* \"#utility.yul\":19302:19419   */\n    tag_332:\n        /* \"#utility.yul\":19411:19412   */\n      0x00\n        /* \"#utility.yul\":19408:19409   */\n      dup1\n        /* \"#utility.yul\":19401:19413   */\n      revert\n        /* \"#utility.yul\":19425:19733   */\n    tag_333:\n        /* \"#utility.yul\":19487:19491   */\n      0x00\n        /* \"#utility.yul\":19577:19595   */\n      0xffffffffffffffff\n        /* \"#utility.yul\":19569:19575   */\n      dup3\n        /* \"#utility.yul\":19566:19596   */\n      gt\n        /* \"#utility.yul\":19563:19619   */\n      iszero\n      tag_530\n      jumpi\n        /* \"#utility.yul\":19599:19617   */\n      tag_531\n      tag_325\n      jump\t// in\n    tag_531:\n        /* \"#utility.yul\":19563:19619   */\n    tag_530:\n        /* \"#utility.yul\":19637:19666   */\n      tag_532\n        /* \"#utility.yul\":19659:19665   */\n      dup3\n        /* \"#utility.yul\":19637:19666   */\n      tag_324\n      jump\t// in\n    tag_532:\n        /* \"#utility.yul\":19629:19666   */\n      swap1\n      pop\n        /* \"#utility.yul\":19721:19725   */\n      0x20\n        /* \"#utility.yul\":19715:19719   */\n      dup2\n        /* \"#utility.yul\":19711:19726   */\n      add\n        /* \"#utility.yul\":19703:19726   */\n      swap1\n      pop\n        /* \"#utility.yul\":19425:19733   */\n      swap2\n      swap1\n      pop\n      jump\t// out\n        /* \"#utility.yul\":19739:20046   */\n    tag_334:\n        /* \"#utility.yul\":19807:19808   */\n      0x00\n        /* \"#utility.yul\":19817:19930   */\n    tag_534:\n        /* \"#utility.yul\":19831:19837   */\n      dup4\n        /* \"#utility.yul\":19828:19829   */\n      dup2\n        /* \"#utility.yul\":19825:19838   */\n      lt\n        /* \"#utility.yul\":19817:19930   */\n      iszero\n      tag_536\n      jumpi\n        /* \"#utility.yul\":19916:19917   */\n      dup1\n        /* \"#utility.yul\":19911:19914   */\n      dup3\n        /* \"#utility.yul\":19907:19918   */\n      add\n        /* \"#utility.yul\":19901:19919   */\n      mload\n        /* \"#utility.yul\":19897:19898   */\n      dup2\n        /* \"#utility.yul\":19892:19895   */\n      dup5\n        /* \"#utility.yul\":19888:19899   */\n      add\n        /* \"#utility.yul\":19881:19920   */\n      mstore\n        /* \"#utility.yul\":19853:19855   */\n      0x20\n        /* \"#utility.yul\":19850:19851   */\n      dup2\n        /* \"#utility.yul\":19846:19856   */\n      add\n        /* \"#utility.yul\":19841:19856   */\n      swap1\n      pop\n        /* \"#utility.yul\":19817:19930   */\n      jump(tag_534)\n    tag_536:\n        /* \"#utility.yul\":19948:19954   */\n      dup4\n        /* \"#utility.yul\":19945:19946   */\n      dup2\n        /* \"#utility.yul\":19942:19955   */\n      gt\n        /* \"#utility.yul\":19939:20040   */\n      iszero\n      tag_537\n      jumpi\n        /* \"#utility.yul\":20028:20029   */\n      0x00\n        /* \"#utility.yul\":20019:20025   */\n      dup5\n        /* \"#utility.yul\":20014:20017   */\n      dup5\n        /* \"#utility.yul\":20010:20026   */\n      add\n        /* \"#utility.yul\":20003:20030   */\n      mstore\n        /* \"#utility.yul\":19939:20040   */\n    tag_537:\n        /* \"#utility.yul\":19788:20046   */\n      pop\n        /* \"#utility.yul\":19739:20046   */\n      pop\n      pop\n      pop\n      jump\t// out\n        /* \"#utility.yul\":20052:20473   */\n    tag_335:\n        /* \"#utility.yul\":20141:20146   */\n      0x00\n        /* \"#utility.yul\":20166:20232   */\n      tag_539\n        /* \"#utility.yul\":20182:20231   */\n      tag_540\n        /* \"#utility.yul\":20224:20230   */\n      dup5\n        /* \"#utility.yul\":20182:20231   */\n      tag_333\n      jump\t// in\n    tag_540:\n        /* \"#utility.yul\":20166:20232   */\n      tag_327\n      jump\t// in\n    tag_539:\n        /* \"#utility.yul\":20157:20232   */\n      swap1\n      pop\n        /* \"#utility.yul\":20255:20261   */\n      dup3\n        /* \"#utility.yul\":20248:20253   */\n      dup2\n        /* \"#utility.yul\":20241:20262   */\n      mstore\n        /* \"#utility.yul\":20293:20297   */\n      0x20\n        /* \"#utility.yul\":20286:20291   */\n      dup2\n        /* \"#utility.yul\":20282:20298   */\n      add\n        /* \"#utility.yul\":20331:20334   */\n      dup5\n        /* \"#utility.yul\":20322:20328   */\n      dup5\n        /* \"#utility.yul\":20317:20320   */\n      dup5\n        /* \"#utility.yul\":20313:20329   */\n      add\n        /* \"#utility.yul\":20310:20335   */\n      gt\n        /* \"#utility.yul\":20307:20419   */\n      iszero\n      tag_541\n      jumpi\n        /* \"#utility.yul\":20338:20417   */\n      tag_542\n      tag_332\n      jump\t// in\n    tag_542:\n        /* \"#utility.yul\":20307:20419   */\n    tag_541:\n        /* \"#utility.yul\":20428:20467   */\n      tag_543\n        /* \"#utility.yul\":20460:20466   */\n      dup5\n        /* \"#utility.yul\":20455:20458   */\n      dup3\n        /* \"#utility.yul\":20450:20453   */\n      dup6\n        /* \"#utility.yul\":20428:20467   */\n      tag_334\n      jump\t// in\n    tag_543:\n        /* \"#utility.yul\":20147:20473   */\n      pop\n        /* \"#utility.yul\":20052:20473   */\n      swap4\n      swap3\n      pop\n      pop\n      pop\n      jump\t// out\n        /* \"#utility.yul\":20493:20848   */\n    tag_336:\n        /* \"#utility.yul\":20560:20565   */\n      0x00\n        /* \"#utility.yul\":20609:20612   */\n      dup3\n        /* \"#utility.yul\":20602:20606   */\n      0x1f\n        /* \"#utility.yul\":20594:20600   */\n      dup4\n        /* \"#utility.yul\":20590:20607   */\n      add\n        /* \"#utility.yul\":20586:20613   */\n      slt\n        /* \"#utility.yul\":20576:20698   */\n      tag_545\n      jumpi\n        /* \"#utility.yul\":20617:20696   */\n      tag_546\n      tag_331\n      jump\t// in\n    tag_546:\n        /* \"#utility.yul\":20576:20698   */\n    tag_545:\n        /* \"#utility.yul\":20727:20733   */\n      dup2\n        /* \"#utility.yul\":20721:20734   */\n      mload\n        /* \"#utility.yul\":20752:20842   */\n      tag_547\n        /* \"#utility.yul\":20838:20841   */\n      dup5\n        /* \"#utility.yul\":20830:20836   */\n      dup3\n        /* \"#utility.yul\":20823:20827   */\n      0x20\n        /* \"#utility.yul\":20815:20821   */\n      dup7\n        /* \"#utility.yul\":20811:20828   */\n      add\n        /* \"#utility.yul\":20752:20842   */\n      tag_335\n      jump\t// in\n    tag_547:\n        /* \"#utility.yul\":20743:20842   */\n      swap2\n      pop\n        /* \"#utility.yul\":20566:20848   */\n      pop\n        /* \"#utility.yul\":20493:20848   */\n      swap3\n      swap2\n      pop\n      pop\n      jump\t// out\n        /* \"#utility.yul\":20854:20944   */\n    tag_337:\n        /* \"#utility.yul\":20888:20895   */\n      0x00\n        /* \"#utility.yul\":20931:20936   */\n      dup2\n        /* \"#utility.yul\":20924:20937   */\n      iszero\n        /* \"#utility.yul\":20917:20938   */\n      iszero\n        /* \"#utility.yul\":20906:20938   */\n      swap1\n      pop\n        /* \"#utility.yul\":20854:20944   */\n      swap2\n      swap1\n      pop\n      jump\t// out\n        /* \"#utility.yul\":20950:21066   */\n    tag_338:\n        /* \"#utility.yul\":21020:21041   */\n      tag_550\n        /* \"#utility.yul\":21035:21040   */\n      dup2\n        /* \"#utility.yul\":21020:21041   */\n      tag_337\n      jump\t// in\n    tag_550:\n        /* \"#utility.yul\":21013:21018   */\n      dup2\n        /* \"#utility.yul\":21010:21042   */\n      eq\n        /* \"#utility.yul\":21000:21060   */\n      tag_551\n      jumpi\n        /* \"#utility.yul\":21056:21057   */\n      0x00\n        /* \"#utility.yul\":21053:21054   */\n      dup1\n        /* \"#utility.yul\":21046:21058   */\n      revert\n        /* \"#utility.yul\":21000:21060   */\n    tag_551:\n        /* \"#utility.yul\":20950:21066   */\n      pop\n      jump\t// out\n        /* \"#utility.yul\":21072:21209   */\n    tag_339:\n        /* \"#utility.yul\":21126:21131   */\n      0x00\n        /* \"#utility.yul\":21157:21163   */\n      dup2\n        /* \"#utility.yul\":21151:21164   */\n      mload\n        /* \"#utility.yul\":21142:21164   */\n      swap1\n      pop\n        /* \"#utility.yul\":21173:21203   */\n      tag_553\n        /* \"#utility.yul\":21197:21202   */\n      dup2\n        /* \"#utility.yul\":21173:21203   */\n      tag_338\n      jump\t// in\n    tag_553:\n        /* \"#utility.yul\":21072:21209   */\n      swap3\n      swap2\n      pop\n      pop\n      jump\t// out\n        /* \"#utility.yul\":21251:22710   */\n    tag_340:\n        /* \"#utility.yul\":21339:21344   */\n      0x00\n        /* \"#utility.yul\":21383:21387   */\n      0xa0\n        /* \"#utility.yul\":21371:21380   */\n      dup3\n        /* \"#utility.yul\":21366:21369   */\n      dup5\n        /* \"#utility.yul\":21362:21381   */\n      sub\n        /* \"#utility.yul\":21358:21388   */\n      slt\n        /* \"#utility.yul\":21355:21472   */\n      iszero\n      tag_555\n      jumpi\n        /* \"#utility.yul\":21391:21470   */\n      tag_556\n      tag_323\n      jump\t// in\n    tag_556:\n        /* \"#utility.yul\":21355:21472   */\n    tag_555:\n        /* \"#utility.yul\":21490:21511   */\n      tag_557\n        /* \"#utility.yul\":21506:21510   */\n      0xa0\n        /* \"#utility.yul\":21490:21511   */\n      tag_327\n      jump\t// in\n    tag_557:\n        /* \"#utility.yul\":21481:21511   */\n      swap1\n      pop\n        /* \"#utility.yul\":21568:21569   */\n      0x00\n        /* \"#utility.yul\":21608:21668   */\n      tag_558\n        /* \"#utility.yul\":21664:21667   */\n      dup5\n        /* \"#utility.yul\":21655:21661   */\n      dup3\n        /* \"#utility.yul\":21644:21653   */\n      dup6\n        /* \"#utility.yul\":21640:21662   */\n      add\n        /* \"#utility.yul\":21608:21668   */\n      tag_329\n      jump\t// in\n    tag_558:\n        /* \"#utility.yul\":21601:21605   */\n      0x00\n        /* \"#utility.yul\":21594:21599   */\n      dup4\n        /* \"#utility.yul\":21590:21606   */\n      add\n        /* \"#utility.yul\":21583:21669   */\n      mstore\n        /* \"#utility.yul\":21521:21680   */\n      pop\n        /* \"#utility.yul\":21740:21742   */\n      0x20\n        /* \"#utility.yul\":21781:21841   */\n      tag_559\n        /* \"#utility.yul\":21837:21840   */\n      dup5\n        /* \"#utility.yul\":21828:21834   */\n      dup3\n        /* \"#utility.yul\":21817:21826   */\n      dup6\n        /* \"#utility.yul\":21813:21835   */\n      add\n        /* \"#utility.yul\":21781:21841   */\n      tag_330\n      jump\t// in\n    tag_559:\n        /* \"#utility.yul\":21774:21778   */\n      0x20\n        /* \"#utility.yul\":21767:21772   */\n      dup4\n        /* \"#utility.yul\":21763:21779   */\n      add\n        /* \"#utility.yul\":21756:21842   */\n      mstore\n        /* \"#utility.yul\":21690:21853   */\n      pop\n        /* \"#utility.yul\":21935:21937   */\n      0x40\n        /* \"#utility.yul\":21924:21933   */\n      dup3\n        /* \"#utility.yul\":21920:21938   */\n      add\n        /* \"#utility.yul\":21914:21939   */\n      mload\n        /* \"#utility.yul\":21966:21984   */\n      0xffffffffffffffff\n        /* \"#utility.yul\":21958:21964   */\n      dup2\n        /* \"#utility.yul\":21955:21985   */\n      gt\n        /* \"#utility.yul\":21952:22069   */\n      iszero\n      tag_560\n      jumpi\n        /* \"#utility.yul\":21988:22067   */\n      tag_561\n      tag_328\n      jump\t// in\n    tag_561:\n        /* \"#utility.yul\":21952:22069   */\n    tag_560:\n        /* \"#utility.yul\":22108:22178   */\n      tag_562\n        /* \"#utility.yul\":22174:22177   */\n      dup5\n        /* \"#utility.yul\":22165:22171   */\n      dup3\n        /* \"#utility.yul\":22154:22163   */\n      dup6\n        /* \"#utility.yul\":22150:22172   */\n      add\n        /* \"#utility.yul\":22108:22178   */\n      tag_336\n      jump\t// in\n    tag_562:\n        /* \"#utility.yul\":22101:22105   */\n      0x40\n        /* \"#utility.yul\":22094:22099   */\n      dup4\n        /* \"#utility.yul\":22090:22106   */\n      add\n        /* \"#utility.yul\":22083:22179   */\n      mstore\n        /* \"#utility.yul\":21863:22190   */\n      pop\n        /* \"#utility.yul\":22276:22278   */\n      0x60\n        /* \"#utility.yul\":22265:22274   */\n      dup3\n        /* \"#utility.yul\":22261:22279   */\n      add\n        /* \"#utility.yul\":22255:22280   */\n      mload\n        /* \"#utility.yul\":22307:22325   */\n      0xffffffffffffffff\n        /* \"#utility.yul\":22299:22305   */\n      dup2\n        /* \"#utility.yul\":22296:22326   */\n      gt\n        /* \"#utility.yul\":22293:22410   */\n      iszero\n      tag_563\n      jumpi\n        /* \"#utility.yul\":22329:22408   */\n      tag_564\n      tag_328\n      jump\t// in\n    tag_564:\n        /* \"#utility.yul\":22293:22410   */\n    tag_563:\n        /* \"#utility.yul\":22449:22519   */\n      tag_565\n        /* \"#utility.yul\":22515:22518   */\n      dup5\n        /* \"#utility.yul\":22506:22512   */\n      dup3\n        /* \"#utility.yul\":22495:22504   */\n      dup6\n        /* \"#utility.yul\":22491:22513   */\n      add\n        /* \"#utility.yul\":22449:22519   */\n      tag_336\n      jump\t// in\n    tag_565:\n        /* \"#utility.yul\":22442:22446   */\n      0x60\n        /* \"#utility.yul\":22435:22440   */\n      dup4\n        /* \"#utility.yul\":22431:22447   */\n      add\n        /* \"#utility.yul\":22424:22520   */\n      mstore\n        /* \"#utility.yul\":22200:22531   */\n      pop\n        /* \"#utility.yul\":22592:22595   */\n      0x80\n        /* \"#utility.yul\":22634:22691   */\n      tag_566\n        /* \"#utility.yul\":22687:22690   */\n      dup5\n        /* \"#utility.yul\":22678:22684   */\n      dup3\n        /* \"#utility.yul\":22667:22676   */\n      dup6\n        /* \"#utility.yul\":22663:22685   */\n      add\n        /* \"#utility.yul\":22634:22691   */\n      tag_339\n      jump\t// in\n    tag_566:\n        /* \"#utility.yul\":22627:22631   */\n      0x80\n        /* \"#utility.yul\":22620:22625   */\n      dup4\n        /* \"#utility.yul\":22616:22632   */\n      add\n        /* \"#utility.yul\":22609:22692   */\n      mstore\n        /* \"#utility.yul\":22541:22703   */\n      pop\n        /* \"#utility.yul\":21251:22710   */\n      swap3\n      swap2\n      pop\n      pop\n      jump\t// out\n        /* \"#utility.yul\":22716:23276   */\n    tag_173:\n        /* \"#utility.yul\":22814:22820   */\n      0x00\n        /* \"#utility.yul\":22863:22865   */\n      0x20\n        /* \"#utility.yul\":22851:22860   */\n      dup3\n        /* \"#utility.yul\":22842:22849   */\n      dup5\n        /* \"#utility.yul\":22838:22861   */\n      sub\n        /* \"#utility.yul\":22834:22866   */\n      slt\n        /* \"#utility.yul\":22831:22950   */\n      iszero\n      tag_568\n      jumpi\n        /* \"#utility.yul\":22869:22948   */\n      tag_569\n      tag_276\n      jump\t// in\n    tag_569:\n        /* \"#utility.yul\":22831:22950   */\n    tag_568:\n        /* \"#utility.yul\":23010:23011   */\n      0x00\n        /* \"#utility.yul\":22999:23008   */\n      dup3\n        /* \"#utility.yul\":22995:23012   */\n      add\n        /* \"#utility.yul\":22989:23013   */\n      mload\n        /* \"#utility.yul\":23040:23058   */\n      0xffffffffffffffff\n        /* \"#utility.yul\":23032:23038   */\n      dup2\n        /* \"#utility.yul\":23029:23059   */\n      gt\n        /* \"#utility.yul\":23026:23143   */\n      iszero\n      tag_570\n      jumpi\n        /* \"#utility.yul\":23062:23141   */\n      tag_571\n      tag_277\n      jump\t// in\n    tag_571:\n        /* \"#utility.yul\":23026:23143   */\n    tag_570:\n        /* \"#utility.yul\":23167:23259   */\n      tag_572\n        /* \"#utility.yul\":23251:23258   */\n      dup5\n        /* \"#utility.yul\":23242:23248   */\n      dup3\n        /* \"#utility.yul\":23231:23240   */\n      dup6\n        /* \"#utility.yul\":23227:23249   */\n      add\n        /* \"#utility.yul\":23167:23259   */\n      tag_340\n      jump\t// in\n    tag_572:\n        /* \"#utility.yul\":23157:23259   */\n      swap2\n      pop\n        /* \"#utility.yul\":22960:23269   */\n      pop\n        /* \"#utility.yul\":22716:23276   */\n      swap3\n      swap2\n      pop\n      pop\n      jump\t// out\n        /* \"#utility.yul\":23282:23459   */\n    tag_341:\n        /* \"#utility.yul\":23422:23451   */\n      0x4974656d206973206e6f7420617661696c61626c65206e6f7720210000000000\n        /* \"#utility.yul\":23418:23419   */\n      0x00\n        /* \"#utility.yul\":23410:23416   */\n      dup3\n        /* \"#utility.yul\":23406:23420   */\n      add\n        /* \"#utility.yul\":23399:23452   */\n      mstore\n        /* \"#utility.yul\":23282:23459   */\n      pop\n      jump\t// out\n        /* \"#utility.yul\":23465:23831   */\n    tag_342:\n        /* \"#utility.yul\":23607:23610   */\n      0x00\n        /* \"#utility.yul\":23628:23695   */\n      tag_575\n        /* \"#utility.yul\":23692:23694   */\n      0x1b\n        /* \"#utility.yul\":23687:23690   */\n      dup4\n        /* \"#utility.yul\":23628:23695   */\n      tag_308\n      jump\t// in\n    tag_575:\n        /* \"#utility.yul\":23621:23695   */\n      swap2\n      pop\n        /* \"#utility.yul\":23704:23797   */\n      tag_576\n        /* \"#utility.yul\":23793:23796   */\n      dup3\n        /* \"#utility.yul\":23704:23797   */\n      tag_341\n      jump\t// in\n    tag_576:\n        /* \"#utility.yul\":23822:23824   */\n      0x20\n        /* \"#utility.yul\":23817:23820   */\n      dup3\n        /* \"#utility.yul\":23813:23825   */\n      add\n        /* \"#utility.yul\":23806:23825   */\n      swap1\n      pop\n        /* \"#utility.yul\":23465:23831   */\n      swap2\n      swap1\n      pop\n      jump\t// out\n        /* \"#utility.yul\":23837:24256   */\n    tag_176:\n        /* \"#utility.yul\":24003:24007   */\n      0x00\n        /* \"#utility.yul\":24041:24043   */\n      0x20\n        /* \"#utility.yul\":24030:24039   */\n      dup3\n        /* \"#utility.yul\":24026:24044   */\n      add\n        /* \"#utility.yul\":24018:24044   */\n      swap1\n      pop\n        /* \"#utility.yul\":24090:24099   */\n      dup2\n        /* \"#utility.yul\":24084:24088   */\n      dup2\n        /* \"#utility.yul\":24080:24100   */\n      sub\n        /* \"#utility.yul\":24076:24077   */\n      0x00\n        /* \"#utility.yul\":24065:24074   */\n      dup4\n        /* \"#utility.yul\":24061:24078   */\n      add\n        /* \"#utility.yul\":24054:24101   */\n      mstore\n        /* \"#utility.yul\":24118:24249   */\n      tag_578\n        /* \"#utility.yul\":24244:24248   */\n      dup2\n        /* \"#utility.yul\":24118:24249   */\n      tag_342\n      jump\t// in\n    tag_578:\n        /* \"#utility.yul\":24110:24249   */\n      swap1\n      pop\n        /* \"#utility.yul\":23837:24256   */\n      swap2\n      swap1\n      pop\n      jump\t// out\n        /* \"#utility.yul\":24262:24396   */\n    tag_343:\n        /* \"#utility.yul\":24320:24329   */\n      0x00\n        /* \"#utility.yul\":24353:24390   */\n      tag_580\n        /* \"#utility.yul\":24384:24389   */\n      dup3\n        /* \"#utility.yul\":24353:24390   */\n      tag_289\n      jump\t// in\n    tag_580:\n        /* \"#utility.yul\":24340:24390   */\n      swap1\n      pop\n        /* \"#utility.yul\":24262:24396   */\n      swap2\n      swap1\n      pop\n      jump\t// out\n        /* \"#utility.yul\":24402:24549   */\n    tag_344:\n        /* \"#utility.yul\":24497:24542   */\n      tag_582\n        /* \"#utility.yul\":24536:24541   */\n      dup2\n        /* \"#utility.yul\":24497:24542   */\n      tag_343\n      jump\t// in\n    tag_582:\n        /* \"#utility.yul\":24492:24495   */\n      dup3\n        /* \"#utility.yul\":24485:24543   */\n      mstore\n        /* \"#utility.yul\":24402:24549   */\n      pop\n      pop\n      jump\t// out\n        /* \"#utility.yul\":24555:25013   */\n    tag_178:\n        /* \"#utility.yul\":24712:24716   */\n      0x00\n        /* \"#utility.yul\":24750:24752   */\n      0x60\n        /* \"#utility.yul\":24739:24748   */\n      dup3\n        /* \"#utility.yul\":24735:24753   */\n      add\n        /* \"#utility.yul\":24727:24753   */\n      swap1\n      pop\n        /* \"#utility.yul\":24763:24842   */\n      tag_584\n        /* \"#utility.yul\":24839:24840   */\n      0x00\n        /* \"#utility.yul\":24828:24837   */\n      dup4\n        /* \"#utility.yul\":24824:24841   */\n      add\n        /* \"#utility.yul\":24815:24821   */\n      dup7\n        /* \"#utility.yul\":24763:24842   */\n      tag_344\n      jump\t// in\n    tag_584:\n        /* \"#utility.yul\":24852:24924   */\n      tag_585\n        /* \"#utility.yul\":24920:24922   */\n      0x20\n        /* \"#utility.yul\":24909:24918   */\n      dup4\n        /* \"#utility.yul\":24905:24923   */\n      add\n        /* \"#utility.yul\":24896:24902   */\n      dup6\n        /* \"#utility.yul\":24852:24924   */\n      tag_293\n      jump\t// in\n    tag_585:\n        /* \"#utility.yul\":24934:25006   */\n      tag_586\n        /* \"#utility.yul\":25002:25004   */\n      0x40\n        /* \"#utility.yul\":24991:25000   */\n      dup4\n        /* \"#utility.yul\":24987:25005   */\n      add\n        /* \"#utility.yul\":24978:24984   */\n      dup5\n        /* \"#utility.yul\":24934:25006   */\n      tag_292\n      jump\t// in\n    tag_586:\n        /* \"#utility.yul\":24555:25013   */\n      swap5\n      swap4\n      pop\n      pop\n      pop\n      pop\n      jump\t// out\n        /* \"#utility.yul\":25019:25270   */\n    tag_345:\n        /* \"#utility.yul\":25159:25193   */\n      0x506c65617365207375626d6974207468652061736b696e672070726963652069\n        /* \"#utility.yul\":25155:25156   */\n      0x00\n        /* \"#utility.yul\":25147:25153   */\n      dup3\n        /* \"#utility.yul\":25143:25157   */\n      add\n        /* \"#utility.yul\":25136:25194   */\n      mstore\n        /* \"#utility.yul\":25228:25262   */\n      0x6e206f7264657220746f20636f6d706c65746520746865207075726368617365\n        /* \"#utility.yul\":25223:25225   */\n      0x20\n        /* \"#utility.yul\":25215:25221   */\n      dup3\n        /* \"#utility.yul\":25211:25226   */\n      add\n        /* \"#utility.yul\":25204:25263   */\n      mstore\n        /* \"#utility.yul\":25019:25270   */\n      pop\n      jump\t// out\n        /* \"#utility.yul\":25276:25642   */\n    tag_346:\n        /* \"#utility.yul\":25418:25421   */\n      0x00\n        /* \"#utility.yul\":25439:25506   */\n      tag_589\n        /* \"#utility.yul\":25503:25505   */\n      0x40\n        /* \"#utility.yul\":25498:25501   */\n      dup4\n        /* \"#utility.yul\":25439:25506   */\n      tag_308\n      jump\t// in\n    tag_589:\n        /* \"#utility.yul\":25432:25506   */\n      swap2\n      pop\n        /* \"#utility.yul\":25515:25608   */\n      tag_590\n        /* \"#utility.yul\":25604:25607   */\n      dup3\n        /* \"#utility.yul\":25515:25608   */\n      tag_345\n      jump\t// in\n    tag_590:\n        /* \"#utility.yul\":25633:25635   */\n      0x40\n        /* \"#utility.yul\":25628:25631   */\n      dup3\n        /* \"#utility.yul\":25624:25636   */\n      add\n        /* \"#utility.yul\":25617:25636   */\n      swap1\n      pop\n        /* \"#utility.yul\":25276:25642   */\n      swap2\n      swap1\n      pop\n      jump\t// out\n        /* \"#utility.yul\":25648:26067   */\n    tag_219:\n        /* \"#utility.yul\":25814:25818   */\n      0x00\n        /* \"#utility.yul\":25852:25854   */\n      0x20\n        /* \"#utility.yul\":25841:25850   */\n      dup3\n        /* \"#utility.yul\":25837:25855   */\n      add\n        /* \"#utility.yul\":25829:25855   */\n      swap1\n      pop\n        /* \"#utility.yul\":25901:25910   */\n      dup2\n        /* \"#utility.yul\":25895:25899   */\n      dup2\n        /* \"#utility.yul\":25891:25911   */\n      sub\n        /* \"#utility.yul\":25887:25888   */\n      0x00\n        /* \"#utility.yul\":25876:25885   */\n      dup4\n        /* \"#utility.yul\":25872:25889   */\n      add\n        /* \"#utility.yul\":25865:25912   */\n      mstore\n        /* \"#utility.yul\":25929:26060   */\n      tag_592\n        /* \"#utility.yul\":26055:26059   */\n      dup2\n        /* \"#utility.yul\":25929:26060   */\n      tag_346\n      jump\t// in\n    tag_592:\n        /* \"#utility.yul\":25921:26060   */\n      swap1\n      pop\n        /* \"#utility.yul\":25648:26067   */\n      swap2\n      swap1\n      pop\n      jump\t// out\n        /* \"#utility.yul\":26073:26226   */\n    tag_347:\n        /* \"#utility.yul\":26213:26218   */\n      0x5351460000000000000000000000000000000000000000000000000000000000\n        /* \"#utility.yul\":26209:26210   */\n      0x00\n        /* \"#utility.yul\":26201:26207   */\n      dup3\n        /* \"#utility.yul\":26197:26211   */\n      add\n        /* \"#utility.yul\":26190:26219   */\n      mstore\n        /* \"#utility.yul\":26073:26226   */\n      pop\n      jump\t// out\n        /* \"#utility.yul\":26232:26597   */\n    tag_348:\n        /* \"#utility.yul\":26374:26377   */\n      0x00\n        /* \"#utility.yul\":26395:26461   */\n      tag_595\n        /* \"#utility.yul\":26459:26460   */\n      0x03\n        /* \"#utility.yul\":26454:26457   */\n      dup4\n        /* \"#utility.yul\":26395:26461   */\n      tag_308\n      jump\t// in\n    tag_595:\n        /* \"#utility.yul\":26388:26461   */\n      swap2\n      pop\n        /* \"#utility.yul\":26470:26563   */\n      tag_596\n        /* \"#utility.yul\":26559:26562   */\n      dup3\n        /* \"#utility.yul\":26470:26563   */\n      tag_347\n      jump\t// in\n    tag_596:\n        /* \"#utility.yul\":26588:26590   */\n      0x20\n        /* \"#utility.yul\":26583:26586   */\n      dup3\n        /* \"#utility.yul\":26579:26591   */\n      add\n        /* \"#utility.yul\":26572:26591   */\n      swap1\n      pop\n        /* \"#utility.yul\":26232:26597   */\n      swap2\n      swap1\n      pop\n      jump\t// out\n        /* \"#utility.yul\":26603:27353   */\n    tag_228:\n        /* \"#utility.yul\":26853:26857   */\n      0x00\n        /* \"#utility.yul\":26891:26894   */\n      0x80\n        /* \"#utility.yul\":26880:26889   */\n      dup3\n        /* \"#utility.yul\":26876:26895   */\n      add\n        /* \"#utility.yul\":26868:26895   */\n      swap1\n      pop\n        /* \"#utility.yul\":26905:26976   */\n      tag_598\n        /* \"#utility.yul\":26973:26974   */\n      0x00\n        /* \"#utility.yul\":26962:26971   */\n      dup4\n        /* \"#utility.yul\":26958:26975   */\n      add\n        /* \"#utility.yul\":26949:26955   */\n      dup7\n        /* \"#utility.yul\":26905:26976   */\n      tag_292\n      jump\t// in\n    tag_598:\n        /* \"#utility.yul\":26986:27058   */\n      tag_599\n        /* \"#utility.yul\":27054:27056   */\n      0x20\n        /* \"#utility.yul\":27043:27052   */\n      dup4\n        /* \"#utility.yul\":27039:27057   */\n      add\n        /* \"#utility.yul\":27030:27036   */\n      dup6\n        /* \"#utility.yul\":26986:27058   */\n      tag_292\n      jump\t// in\n    tag_599:\n        /* \"#utility.yul\":27105:27114   */\n      dup2\n        /* \"#utility.yul\":27099:27103   */\n      dup2\n        /* \"#utility.yul\":27095:27115   */\n      sub\n        /* \"#utility.yul\":27090:27092   */\n      0x40\n        /* \"#utility.yul\":27079:27088   */\n      dup4\n        /* \"#utility.yul\":27075:27093   */\n      add\n        /* \"#utility.yul\":27068:27116   */\n      mstore\n        /* \"#utility.yul\":27133:27264   */\n      tag_600\n        /* \"#utility.yul\":27259:27263   */\n      dup2\n        /* \"#utility.yul\":27133:27264   */\n      tag_348\n      jump\t// in\n    tag_600:\n        /* \"#utility.yul\":27125:27264   */\n      swap1\n      pop\n        /* \"#utility.yul\":27274:27346   */\n      tag_601\n        /* \"#utility.yul\":27342:27344   */\n      0x60\n        /* \"#utility.yul\":27331:27340   */\n      dup4\n        /* \"#utility.yul\":27327:27345   */\n      add\n        /* \"#utility.yul\":27318:27324   */\n      dup5\n        /* \"#utility.yul\":27274:27346   */\n      tag_292\n      jump\t// in\n    tag_601:\n        /* \"#utility.yul\":26603:27353   */\n      swap5\n      swap4\n      pop\n      pop\n      pop\n      pop\n      jump\t// out\n        /* \"#utility.yul\":27359:27584   */\n    tag_349:\n        /* \"#utility.yul\":27499:27533   */\n      0x4f776e61626c653a206e6577206f776e657220697320746865207a65726f2061\n        /* \"#utility.yul\":27495:27496   */\n      0x00\n        /* \"#utility.yul\":27487:27493   */\n      dup3\n        /* \"#utility.yul\":27483:27497   */\n      add\n        /* \"#utility.yul\":27476:27534   */\n      mstore\n        /* \"#utility.yul\":27568:27576   */\n      0x6464726573730000000000000000000000000000000000000000000000000000\n        /* \"#utility.yul\":27563:27565   */\n      0x20\n        /* \"#utility.yul\":27555:27561   */\n      dup3\n        /* \"#utility.yul\":27551:27566   */\n      add\n        /* \"#utility.yul\":27544:27577   */\n      mstore\n        /* \"#utility.yul\":27359:27584   */\n      pop\n      jump\t// out\n        /* \"#utility.yul\":27590:27956   */\n    tag_350:\n        /* \"#utility.yul\":27732:27735   */\n      0x00\n        /* \"#utility.yul\":27753:27820   */\n      tag_604\n        /* \"#utility.yul\":27817:27819   */\n      0x26\n        /* \"#utility.yul\":27812:27815   */\n      dup4\n        /* \"#utility.yul\":27753:27820   */\n      tag_308\n      jump\t// in\n    tag_604:\n        /* \"#utility.yul\":27746:27820   */\n      swap2\n      pop\n        /* \"#utility.yul\":27829:27922   */\n      tag_605\n        /* \"#utility.yul\":27918:27921   */\n      dup3\n        /* \"#utility.yul\":27829:27922   */\n      tag_349\n      jump\t// in\n    tag_605:\n        /* \"#utility.yul\":27947:27949   */\n      0x40\n        /* \"#utility.yul\":27942:27945   */\n      dup3\n        /* \"#utility.yul\":27938:27950   */\n      add\n        /* \"#utility.yul\":27931:27950   */\n      swap1\n      pop\n        /* \"#utility.yul\":27590:27956   */\n      swap2\n      swap1\n      pop\n      jump\t// out\n        /* \"#utility.yul\":27962:28381   */\n    tag_244:\n        /* \"#utility.yul\":28128:28132   */\n      0x00\n        /* \"#utility.yul\":28166:28168   */\n      0x20\n        /* \"#utility.yul\":28155:28164   */\n      dup3\n        /* \"#utility.yul\":28151:28169   */\n      add\n        /* \"#utility.yul\":28143:28169   */\n      swap1\n      pop\n        /* \"#utility.yul\":28215:28224   */\n      dup2\n        /* \"#utility.yul\":28209:28213   */\n      dup2\n        /* \"#utility.yul\":28205:28225   */\n      sub\n        /* \"#utility.yul\":28201:28202   */\n      0x00\n        /* \"#utility.yul\":28190:28199   */\n      dup4\n        /* \"#utility.yul\":28186:28203   */\n      add\n        /* \"#utility.yul\":28179:28226   */\n      mstore\n        /* \"#utility.yul\":28243:28374   */\n      tag_607\n        /* \"#utility.yul\":28369:28373   */\n      dup2\n        /* \"#utility.yul\":28243:28374   */\n      tag_350\n      jump\t// in\n    tag_607:\n        /* \"#utility.yul\":28235:28374   */\n      swap1\n      pop\n        /* \"#utility.yul\":27962:28381   */\n      swap2\n      swap1\n      pop\n      jump\t// out\n        /* \"#utility.yul\":28387:28732   */\n    tag_264:\n        /* \"#utility.yul\":28454:28460   */\n      0x00\n        /* \"#utility.yul\":28503:28505   */\n      0x20\n        /* \"#utility.yul\":28491:28500   */\n      dup3\n        /* \"#utility.yul\":28482:28489   */\n      dup5\n        /* \"#utility.yul\":28478:28501   */\n      sub\n        /* \"#utility.yul\":28474:28506   */\n      slt\n        /* \"#utility.yul\":28471:28590   */\n      iszero\n      tag_609\n      jumpi\n        /* \"#utility.yul\":28509:28588   */\n      tag_610\n      tag_276\n      jump\t// in\n    tag_610:\n        /* \"#utility.yul\":28471:28590   */\n    tag_609:\n        /* \"#utility.yul\":28629:28630   */\n      0x00\n        /* \"#utility.yul\":28654:28715   */\n      tag_611\n        /* \"#utility.yul\":28707:28714   */\n      dup5\n        /* \"#utility.yul\":28698:28704   */\n      dup3\n        /* \"#utility.yul\":28687:28696   */\n      dup6\n        /* \"#utility.yul\":28683:28705   */\n      add\n        /* \"#utility.yul\":28654:28715   */\n      tag_339\n      jump\t// in\n    tag_611:\n        /* \"#utility.yul\":28644:28715   */\n      swap2\n      pop\n        /* \"#utility.yul\":28600:28725   */\n      pop\n        /* \"#utility.yul\":28387:28732   */\n      swap3\n      swap2\n      pop\n      pop\n      jump\t// out\n\n    auxdata: 0xa26469706673582212208127b7284407535c4bbba8da8dc2afc689832803efe6ea705fce5a641741d70664736f6c634300080d0033\n}\n",
				"bytecode": {
					"linkReferences": {},
					"object": "608060405260405162002cb238038062002cb2833981810160405281019062000029919062000255565b600160008190555062000051620000456200011d60201b60201c565b6200012560201b60201c565b82600960006101000a81548173ffffffffffffffffffffffffffffffffffffffff021916908373ffffffffffffffffffffffffffffffffffffffff16021790555081600b60006101000a81548173ffffffffffffffffffffffffffffffffffffffff021916908373ffffffffffffffffffffffffffffffffffffffff16021790555080600a60006101000a81548173ffffffffffffffffffffffffffffffffffffffff021916908373ffffffffffffffffffffffffffffffffffffffff160217905550505050620002b1565b600033905090565b6000600c60009054906101000a900473ffffffffffffffffffffffffffffffffffffffff16905081600c60006101000a81548173ffffffffffffffffffffffffffffffffffffffff021916908373ffffffffffffffffffffffffffffffffffffffff1602179055508173ffffffffffffffffffffffffffffffffffffffff168173ffffffffffffffffffffffffffffffffffffffff167f8be0079c531659141344cd1fd0a4f28419497f9722a3daafe3b4186f6b6457e060405160405180910390a35050565b600080fd5b600073ffffffffffffffffffffffffffffffffffffffff82169050919050565b60006200021d82620001f0565b9050919050565b6200022f8162000210565b81146200023b57600080fd5b50565b6000815190506200024f8162000224565b92915050565b600080600060608486031215620002715762000270620001eb565b5b600062000281868287016200023e565b935050602062000294868287016200023e565b9250506040620002a7868287016200023e565b9150509250925092565b6129f180620002c16000396000f3fe6080604052600436106101145760003560e01c8063715018a6116100a0578063c45a015511610064578063c45a015514610362578063c7be7a491461038d578063f2fde38b146103ca578063f55de0c7146103f3578063ff68fa6e1461041e57610114565b8063715018a6146102a157806385a8b36c146102b85780638da5cb5b146102e3578063a1c11ca81461030e578063b7a60c7e1461033757610114565b8063361c1995116100e7578063361c1995146101bf5780633fc15f15146101db578063517bd451146102065780635bb47808146102365780635c80a4351461025f57610114565b8063100616311461011957806315b124941461014257806327ce464e1461016b5780632b4c32be14610194575b600080fd5b34801561012557600080fd5b50610140600480360381019061013b9190611c22565b610460565b005b34801561014e57600080fd5b5061016960048036038101906101649190611cad565b6108d0565b005b34801561017757600080fd5b50610192600480360381019061018d9190611cad565b610990565b005b3480156101a057600080fd5b506101a9610a50565b6040516101b69190611d15565b60405180910390f35b6101d960048036038101906101d49190611d30565b610a5b565b005b3480156101e757600080fd5b506101f0610ec6565b6040516101fd9190611dcf565b60405180910390f35b34801561021257600080fd5b5061021b610eec565b60405161022d96959493929190611e7f565b60405180910390f35b34801561024257600080fd5b5061025d60048036038101906102589190611cad565b610f63565b005b34801561026b57600080fd5b5061028660048036038101906102819190611ee0565b611023565b60405161029896959493929190611e7f565b60405180910390f35b3480156102ad57600080fd5b506102b66110b9565b005b3480156102c457600080fd5b506102cd611141565b6040516102da9190611f3c565b60405180910390f35b3480156102ef57600080fd5b506102f8611154565b6040516103059190611f57565b60405180910390f35b34801561031a57600080fd5b5061033560048036038101906103309190611d30565b61117e565b005b34801561034357600080fd5b5061034c61143c565b6040516103599190611f3c565b60405180910390f35b34801561036e57600080fd5b5061037761144f565b6040516103849190611f93565b60405180910390f35b34801561039957600080fd5b506103b460048036038101906103af9190611c22565b611475565b6040516103c19190612056565b60405180910390f35b3480156103d657600080fd5b506103f160048036038101906103ec9190611cad565b6115a7565b005b3480156103ff57600080fd5b5061040861169e565b6040516104159190612092565b60405180910390f35b34801561042a57600080fd5b5061044560048036038101906104409190611c22565b6116c4565b60405161045796959493929190611e7f565b60405180910390f35b60003390506000600f60008481526020019081526020016000206040518060c001604052908160008201548152602001600182015481526020016002820160009054906101000a900473ffffffffffffffffffffffffffffffffffffffff1673ffffffffffffffffffffffffffffffffffffffff1673ffffffffffffffffffffffffffffffffffffffff1681526020016003820160009054906101000a900473ffffffffffffffffffffffffffffffffffffffff1673ffffffffffffffffffffffffffffffffffffffff1673ffffffffffffffffffffffffffffffffffffffff168152602001600482015481526020016005820160009054906101000a900460ff16600181111561057457610573611e08565b5b600181111561058657610585611e08565b5b81525050905060008160000151036105d3576040517f08c379a00000000000000000000000000000000000000000000000000000000081526004016105ca9061210a565b60405180910390fd5b6001808111156105e6576105e5611e08565b5b8160a0015160018111156105fd576105fc611e08565b5b1461063d576040517f08c379a000000000000000000000000000000000000000000000000000000000815260040161063490612176565b60405180910390fd5b600081604001519050600073ffffffffffffffffffffffffffffffffffffffff168173ffffffffffffffffffffffffffffffffffffffff16036106b5576040517f08c379a00000000000000000000000000000000000000000000000000000000081526004016106ac906121e2565b60405180910390fd5b3373ffffffffffffffffffffffffffffffffffffffff168173ffffffffffffffffffffffffffffffffffffffff1614610723576040517f08c379a000000000000000000000000000000000000000000000000000000000815260040161071a9061224e565b60405180910390fd5b600b60009054906101000a900473ffffffffffffffffffffffffffffffffffffffff1673ffffffffffffffffffffffffffffffffffffffff166342842e0e3083876040518463ffffffff1660e01b81526004016107829392919061226e565b600060405180830381600087803b15801561079c57600080fd5b505af11580156107b0573d6000803e3d6000fd5b5050505060008260a0019060018111156107cd576107cc611e08565b5b908160018111156107e1576107e0611e08565b5b81525050600f600085815260200190815260200160002060008082016000905560018201600090556002820160006101000a81549073ffffffffffffffffffffffffffffffffffffffff02191690556003820160006101000a81549073ffffffffffffffffffffffffffffffffffffffff021916905560048201600090556005820160006101000a81549060ff021916905550508273ffffffffffffffffffffffffffffffffffffffff16847f72ffc2a266acba5f77e2b49400103cb61b428f37a97057ebe671e83fddd71e678460000151426040516108c29291906122a5565b60405180910390a350505050565b6108d861174d565b73ffffffffffffffffffffffffffffffffffffffff166108f6611154565b73ffffffffffffffffffffffffffffffffffffffff161461094c576040517f08c379a00000000000000000000000000000000000000000000000000000000081526004016109439061231a565b60405180910390fd5b80600b60006101000a81548173ffffffffffffffffffffffffffffffffffffffff021916908373ffffffffffffffffffffffffffffffffffffffff16021790555050565b61099861174d565b73ffffffffffffffffffffffffffffffffffffffff166109b6611154565b73ffffffffffffffffffffffffffffffffffffffff1614610a0c576040517f08c379a0000000000000000000000000000000000000000000000000000000008152600401610a039061231a565b60405180910390fd5b80600960006101000a81548173ffffffffffffffffffffffffffffffffffffffff021916908373ffffffffffffffffffffffffffffffffffffffff16021790555050565b6380ac58cd60e01b81565b600260005403610aa0576040517f08c379a0000000000000000000000000000000000000000000000000000000008152600401610a9790612386565b60405180910390fd5b600260008190555060008111610aeb576040517f08c379a0000000000000000000000000000000000000000000000000000000008152600401610ae2906123f2565b60405180910390fd5b6000600a60009054906101000a900473ffffffffffffffffffffffffffffffffffffffff1673ffffffffffffffffffffffffffffffffffffffff166303ce1cb5846040518263ffffffff1660e01b8152600401610b489190612412565b600060405180830381865afa158015610b65573d6000803e3d6000fd5b505050506040513d6000823e3d601f19601f82011682018060405250810190610b8e91906126c7565b9050600015158160800151151514610bdb576040517f08c379a0000000000000000000000000000000000000000000000000000000008152600401610bd29061275c565b60405180910390fd5b600a60009054906101000a900473ffffffffffffffffffffffffffffffffffffffff1673ffffffffffffffffffffffffffffffffffffffff1663c1e9518a3330866040518463ffffffff1660e01b8152600401610c3a9392919061279d565b600060405180830381600087803b158015610c5457600080fd5b505af1158015610c68573d6000803e3d6000fd5b50505050600b60009054906101000a900473ffffffffffffffffffffffffffffffffffffffff1673ffffffffffffffffffffffffffffffffffffffff166323b872dd3330866040518463ffffffff1660e01b8152600401610ccb9392919061226e565b600060405180830381600087803b158015610ce557600080fd5b505af1158015610cf9573d6000803e3d6000fd5b50505050610d0683611755565b6000610d12600d61187a565b90506040518060c001604052808281526020018581526020013373ffffffffffffffffffffffffffffffffffffffff1681526020013073ffffffffffffffffffffffffffffffffffffffff168152602001848152602001600180811115610d7c57610d7b611e08565b5b815250600f6000838152602001908152602001600020600082015181600001556020820151816001015560408201518160020160006101000a81548173ffffffffffffffffffffffffffffffffffffffff021916908373ffffffffffffffffffffffffffffffffffffffff16021790555060608201518160030160006101000a81548173ffffffffffffffffffffffffffffffffffffffff021916908373ffffffffffffffffffffffffffffffffffffffff1602179055506080820151816004015560a08201518160050160006101000a81548160ff02191690836001811115610e6957610e68611e08565b5b0217905550905050610e7b600d611888565b83817f38690a554ffbc44eb6a75016e47d517d0db8e6c37494adc68d6d0b2c66f0ab21333087604051610eb09392919061226e565b60405180910390a3505060016000819055505050565b600960009054906101000a900473ffffffffffffffffffffffffffffffffffffffff1681565b60018060000154908060010154908060020160009054906101000a900473ffffffffffffffffffffffffffffffffffffffff16908060030160009054906101000a900473ffffffffffffffffffffffffffffffffffffffff16908060040154908060050160009054906101000a900460ff16905086565b610f6b61174d565b73ffffffffffffffffffffffffffffffffffffffff16610f89611154565b73ffffffffffffffffffffffffffffffffffffffff1614610fdf576040517f08c379a0000000000000000000000000000000000000000000000000000000008152600401610fd69061231a565b60405180910390fd5b80600a60006101000a81548173ffffffffffffffffffffffffffffffffffffffff021916908373ffffffffffffffffffffffffffffffffffffffff16021790555050565b6008602052816000526040600020602052806000526040600020600091509150508060000154908060010154908060020160009054906101000a900473ffffffffffffffffffffffffffffffffffffffff16908060030160009054906101000a900473ffffffffffffffffffffffffffffffffffffffff16908060040154908060050160009054906101000a900460ff16905086565b6110c161174d565b73ffffffffffffffffffffffffffffffffffffffff166110df611154565b73ffffffffffffffffffffffffffffffffffffffff1614611135576040517f08c379a000000000000000000000000000000000000000000000000000000000815260040161112c9061231a565b60405180910390fd5b61113f600061189e565b565b600b60149054906101000a900460ff1681565b6000600c60009054906101000a900473ffffffffffffffffffffffffffffffffffffffff16905090565b6000600f60008481526020019081526020016000206004015490506000600f60008581526020019081526020016000206001015490506000600f600086815260200190815260200160002060020160009054906101000a900473ffffffffffffffffffffffffffffffffffffffff1690506000600a60009054906101000a900473ffffffffffffffffffffffffffffffffffffffff1673ffffffffffffffffffffffffffffffffffffffff166303ce1cb5846040518263ffffffff1660e01b815260040161124c9190612412565b600060405180830381865afa158015611269573d6000803e3d6000fd5b505050506040513d6000823e3d601f19601f8201168201806040525081019061129291906126c7565b90508385146112d6576040517f08c379a00000000000000000000000000000000000000000000000000000000081526004016112cd90612846565b60405180910390fd5b600015158160800151151514611321576040517f08c379a00000000000000000000000000000000000000000000000000000000081526004016113189061275c565b60405180910390fd5b61132c868685611964565b33600f600088815260200190815260200160002060030160006101000a81548173ffffffffffffffffffffffffffffffffffffffff021916908373ffffffffffffffffffffffffffffffffffffffff1602179055506000600f600088815260200190815260200160002060050160006101000a81548160ff021916908360018111156113bb576113ba611e08565b5b02179055506113ca600e611888565b3373ffffffffffffffffffffffffffffffffffffffff168273ffffffffffffffffffffffffffffffffffffffff16847f551327aee12d0a8b3ede8d0e3182a40a5ff3ed9f1811dd622915db30b609b7df89884260405161142c939291906128b2565b60405180910390a4505050505050565b600b60159054906101000a900460ff1681565b600a60009054906101000a900473ffffffffffffffffffffffffffffffffffffffff1681565b61147d611b64565b600f60008381526020019081526020016000206040518060c001604052908160008201548152602001600182015481526020016002820160009054906101000a900473ffffffffffffffffffffffffffffffffffffffff1673ffffffffffffffffffffffffffffffffffffffff1673ffffffffffffffffffffffffffffffffffffffff1681526020016003820160009054906101000a900473ffffffffffffffffffffffffffffffffffffffff1673ffffffffffffffffffffffffffffffffffffffff1673ffffffffffffffffffffffffffffffffffffffff168152602001600482015481526020016005820160009054906101000a900460ff16600181111561158a57611589611e08565b5b600181111561159c5761159b611e08565b5b815250509050919050565b6115af61174d565b73ffffffffffffffffffffffffffffffffffffffff166115cd611154565b73ffffffffffffffffffffffffffffffffffffffff1614611623576040517f08c379a000000000000000000000000000000000000000000000000000000000815260040161161a9061231a565b60405180910390fd5b600073ffffffffffffffffffffffffffffffffffffffff168173ffffffffffffffffffffffffffffffffffffffff1603611692576040517f08c379a00000000000000000000000000000000000000000000000000000000081526004016116899061296e565b60405180910390fd5b61169b8161189e565b50565b600b60009054906101000a900473ffffffffffffffffffffffffffffffffffffffff1681565b60076020528060005260406000206000915090508060000154908060010154908060020160009054906101000a900473ffffffffffffffffffffffffffffffffffffffff16908060030160009054906101000a900473ffffffffffffffffffffffffffffffffffffffff16908060040154908060050160009054906101000a900460ff16905086565b600033905090565b600a60009054906101000a900473ffffffffffffffffffffffffffffffffffffffff1673ffffffffffffffffffffffffffffffffffffffff1663c1e9518a3330846040518463ffffffff1660e01b81526004016117b49392919061226e565b600060405180830381600087803b1580156117ce57600080fd5b505af11580156117e2573d6000803e3d6000fd5b50505050600b60009054906101000a900473ffffffffffffffffffffffffffffffffffffffff1673ffffffffffffffffffffffffffffffffffffffff166323b872dd3330846040518463ffffffff1660e01b81526004016118459392919061226e565b600060405180830381600087803b15801561185f57600080fd5b505af1158015611873573d6000803e3d6000fd5b5050505050565b600081600001549050919050565b6001816000016000828254019250508190555050565b6000600c60009054906101000a900473ffffffffffffffffffffffffffffffffffffffff16905081600c60006101000a81548173ffffffffffffffffffffffffffffffffffffffff021916908373ffffffffffffffffffffffffffffffffffffffff1602179055508173ffffffffffffffffffffffffffffffffffffffff168173ffffffffffffffffffffffffffffffffffffffff167f8be0079c531659141344cd1fd0a4f28419497f9722a3daafe3b4186f6b6457e060405160405180910390a35050565b600960009054906101000a900473ffffffffffffffffffffffffffffffffffffffff1673ffffffffffffffffffffffffffffffffffffffff166323b872dd33600f600087815260200190815260200160002060020160009054906101000a900473ffffffffffffffffffffffffffffffffffffffff16856040518463ffffffff1660e01b81526004016119f99392919061226e565b6020604051808303816000875af1158015611a18573d6000803e3d6000fd5b505050506040513d601f19601f82011682018060405250810190611a3c919061298e565b50600a60009054906101000a900473ffffffffffffffffffffffffffffffffffffffff1673ffffffffffffffffffffffffffffffffffffffff1663c1e9518a3330846040518463ffffffff1660e01b8152600401611a9c9392919061226e565b600060405180830381600087803b158015611ab657600080fd5b505af1158015611aca573d6000803e3d6000fd5b50505050600b60009054906101000a900473ffffffffffffffffffffffffffffffffffffffff1673ffffffffffffffffffffffffffffffffffffffff166323b872dd3033846040518463ffffffff1660e01b8152600401611b2d9392919061226e565b600060405180830381600087803b158015611b4757600080fd5b505af1158015611b5b573d6000803e3d6000fd5b50505050505050565b6040518060c001604052806000815260200160008152602001600073ffffffffffffffffffffffffffffffffffffffff168152602001600073ffffffffffffffffffffffffffffffffffffffff1681526020016000815260200160006001811115611bd257611bd1611e08565b5b81525090565b6000604051905090565b600080fd5b600080fd5b6000819050919050565b611bff81611bec565b8114611c0a57600080fd5b50565b600081359050611c1c81611bf6565b92915050565b600060208284031215611c3857611c37611be2565b5b6000611c4684828501611c0d565b91505092915050565b600073ffffffffffffffffffffffffffffffffffffffff82169050919050565b6000611c7a82611c4f565b9050919050565b611c8a81611c6f565b8114611c9557600080fd5b50565b600081359050611ca781611c81565b92915050565b600060208284031215611cc357611cc2611be2565b5b6000611cd184828501611c98565b91505092915050565b60007fffffffff0000000000000000000000000000000000000000000000000000000082169050919050565b611d0f81611cda565b82525050565b6000602082019050611d2a6000830184611d06565b92915050565b60008060408385031215611d4757611d46611be2565b5b6000611d5585828601611c0d565b9250506020611d6685828601611c0d565b9150509250929050565b6000819050919050565b6000611d95611d90611d8b84611c4f565b611d70565b611c4f565b9050919050565b6000611da782611d7a565b9050919050565b6000611db982611d9c565b9050919050565b611dc981611dae565b82525050565b6000602082019050611de46000830184611dc0565b92915050565b611df381611bec565b82525050565b611e0281611c6f565b82525050565b7f4e487b7100000000000000000000000000000000000000000000000000000000600052602160045260246000fd5b60028110611e4857611e47611e08565b5b50565b6000819050611e5982611e37565b919050565b6000611e6982611e4b565b9050919050565b611e7981611e5e565b82525050565b600060c082019050611e946000830189611dea565b611ea16020830188611dea565b611eae6040830187611df9565b611ebb6060830186611df9565b611ec86080830185611dea565b611ed560a0830184611e70565b979650505050505050565b60008060408385031215611ef757611ef6611be2565b5b6000611f0585828601611c98565b9250506020611f1685828601611c0d565b9150509250929050565b600060ff82169050919050565b611f3681611f20565b82525050565b6000602082019050611f516000830184611f2d565b92915050565b6000602082019050611f6c6000830184611df9565b92915050565b6000611f7d82611d9c565b9050919050565b611f8d81611f72565b82525050565b6000602082019050611fa86000830184611f84565b92915050565b611fb781611bec565b82525050565b611fc681611c6f565b82525050565b611fd581611e5e565b82525050565b60c082016000820151611ff16000850182611fae565b5060208201516120046020850182611fae565b5060408201516120176040850182611fbd565b50606082015161202a6060850182611fbd565b50608082015161203d6080850182611fae565b5060a082015161205060a0850182611fcc565b50505050565b600060c08201905061206b6000830184611fdb565b92915050565b600061207c82611d9c565b9050919050565b61208c81612071565b82525050565b60006020820190506120a76000830184612083565b92915050565b600082825260208201905092915050565b7f4173736574206e6f74207075626c697368656400000000000000000000000000600082015250565b60006120f46013836120ad565b91506120ff826120be565b602082019050919050565b60006020820190508181036000830152612123816120e7565b9050919050565b7f41737365742064656c6973746564000000000000000000000000000000000000600082015250565b6000612160600e836120ad565b915061216b8261212a565b602082019050919050565b6000602082019050818103600083015261218f81612153565b9050919050565b7f496e76616c696420616464726573730000000000000000000000000000000000600082015250565b60006121cc600f836120ad565b91506121d782612196565b602082019050919050565b600060208201905081810360008301526121fb816121bf565b9050919050565b7f4f6e6c792073656c6c65722063616e2064656c69737400000000000000000000600082015250565b60006122386016836120ad565b915061224382612202565b602082019050919050565b600060208201905081810360008301526122678161222b565b9050919050565b60006060820190506122836000830186611df9565b6122906020830185611df9565b61229d6040830184611dea565b949350505050565b60006040820190506122ba6000830185611dea565b6122c76020830184611dea565b9392505050565b7f4f776e61626c653a2063616c6c6572206973206e6f7420746865206f776e6572600082015250565b60006123046020836120ad565b915061230f826122ce565b602082019050919050565b60006020820190508181036000830152612333816122f7565b9050919050565b7f5265656e7472616e637947756172643a207265656e7472616e742063616c6c00600082015250565b6000612370601f836120ad565b915061237b8261233a565b602082019050919050565b6000602082019050818103600083015261239f81612363565b9050919050565b7f5072696365206d757374206265206174206c6561737420312077656900000000600082015250565b60006123dc601c836120ad565b91506123e7826123a6565b602082019050919050565b6000602082019050818103600083015261240b816123cf565b9050919050565b60006020820190506124276000830184611dea565b92915050565b600080fd5b6000601f19601f8301169050919050565b7f4e487b7100000000000000000000000000000000000000000000000000000000600052604160045260246000fd5b61247b82612432565b810181811067ffffffffffffffff8211171561249a57612499612443565b5b80604052505050565b60006124ad611bd8565b90506124b98282612472565b919050565b600080fd5b6000815190506124d281611bf6565b92915050565b6000815190506124e781611c81565b92915050565b600080fd5b600080fd5b600067ffffffffffffffff82111561251257612511612443565b5b61251b82612432565b9050602081019050919050565b60005b8381101561254657808201518184015260208101905061252b565b83811115612555576000848401525b50505050565b600061256e612569846124f7565b6124a3565b90508281526020810184848401111561258a576125896124f2565b5b612595848285612528565b509392505050565b600082601f8301126125b2576125b16124ed565b5b81516125c284826020860161255b565b91505092915050565b60008115159050919050565b6125e0816125cb565b81146125eb57600080fd5b50565b6000815190506125fd816125d7565b92915050565b600060a082840312156126195761261861242d565b5b61262360a06124a3565b90506000612633848285016124c3565b6000830152506020612647848285016124d8565b602083015250604082015167ffffffffffffffff81111561266b5761266a6124be565b5b6126778482850161259d565b604083015250606082015167ffffffffffffffff81111561269b5761269a6124be565b5b6126a78482850161259d565b60608301525060806126bb848285016125ee565b60808301525092915050565b6000602082840312156126dd576126dc611be2565b5b600082015167ffffffffffffffff8111156126fb576126fa611be7565b5b61270784828501612603565b91505092915050565b7f4974656d206973206e6f7420617661696c61626c65206e6f7720210000000000600082015250565b6000612746601b836120ad565b915061275182612710565b602082019050919050565b6000602082019050818103600083015261277581612739565b9050919050565b600061278782611d9c565b9050919050565b6127978161277c565b82525050565b60006060820190506127b2600083018661278e565b6127bf6020830185611df9565b6127cc6040830184611dea565b949350505050565b7f506c65617365207375626d6974207468652061736b696e67207072696365206960008201527f6e206f7264657220746f20636f6d706c65746520746865207075726368617365602082015250565b60006128306040836120ad565b915061283b826127d4565b604082019050919050565b6000602082019050818103600083015261285f81612823565b9050919050565b7f5351460000000000000000000000000000000000000000000000000000000000600082015250565b600061289c6003836120ad565b91506128a782612866565b602082019050919050565b60006080820190506128c76000830186611dea565b6128d46020830185611dea565b81810360408301526128e58161288f565b90506128f46060830184611dea565b949350505050565b7f4f776e61626c653a206e6577206f776e657220697320746865207a65726f206160008201527f6464726573730000000000000000000000000000000000000000000000000000602082015250565b60006129586026836120ad565b9150612963826128fc565b604082019050919050565b600060208201905081810360008301526129878161294b565b9050919050565b6000602082840312156129a4576129a3611be2565b5b60006129b2848285016125ee565b9150509291505056fea26469706673582212208127b7284407535c4bbba8da8dc2afc689832803efe6ea705fce5a641741d70664736f6c634300080d0033",
					"opcodes": "PUSH1 0x80 PUSH1 0x40 MSTORE PUSH1 0x40 MLOAD PUSH3 0x2CB2 CODESIZE SUB DUP1 PUSH3 0x2CB2 DUP4 CODECOPY DUP2 DUP2 ADD PUSH1 0x40 MSTORE DUP2 ADD SWAP1 PUSH3 0x29 SWAP2 SWAP1 PUSH3 0x255 JUMP JUMPDEST PUSH1 0x1 PUSH1 0x0 DUP2 SWAP1 SSTORE POP PUSH3 0x51 PUSH3 0x45 PUSH3 0x11D PUSH1 0x20 SHL PUSH1 0x20 SHR JUMP JUMPDEST PUSH3 0x125 PUSH1 0x20 SHL PUSH1 0x20 SHR JUMP JUMPDEST DUP3 PUSH1 0x9 PUSH1 0x0 PUSH2 0x100 EXP DUP2 SLOAD DUP2 PUSH20 0xFFFFFFFFFFFFFFFFFFFFFFFFFFFFFFFFFFFFFFFF MUL NOT AND SWAP1 DUP4 PUSH20 0xFFFFFFFFFFFFFFFFFFFFFFFFFFFFFFFFFFFFFFFF AND MUL OR SWAP1 SSTORE POP DUP2 PUSH1 0xB PUSH1 0x0 PUSH2 0x100 EXP DUP2 SLOAD DUP2 PUSH20 0xFFFFFFFFFFFFFFFFFFFFFFFFFFFFFFFFFFFFFFFF MUL NOT AND SWAP1 DUP4 PUSH20 0xFFFFFFFFFFFFFFFFFFFFFFFFFFFFFFFFFFFFFFFF AND MUL OR SWAP1 SSTORE POP DUP1 PUSH1 0xA PUSH1 0x0 PUSH2 0x100 EXP DUP2 SLOAD DUP2 PUSH20 0xFFFFFFFFFFFFFFFFFFFFFFFFFFFFFFFFFFFFFFFF MUL NOT AND SWAP1 DUP4 PUSH20 0xFFFFFFFFFFFFFFFFFFFFFFFFFFFFFFFFFFFFFFFF AND MUL OR SWAP1 SSTORE POP POP POP POP PUSH3 0x2B1 JUMP JUMPDEST PUSH1 0x0 CALLER SWAP1 POP SWAP1 JUMP JUMPDEST PUSH1 0x0 PUSH1 0xC PUSH1 0x0 SWAP1 SLOAD SWAP1 PUSH2 0x100 EXP SWAP1 DIV PUSH20 0xFFFFFFFFFFFFFFFFFFFFFFFFFFFFFFFFFFFFFFFF AND SWAP1 POP DUP2 PUSH1 0xC PUSH1 0x0 PUSH2 0x100 EXP DUP2 SLOAD DUP2 PUSH20 0xFFFFFFFFFFFFFFFFFFFFFFFFFFFFFFFFFFFFFFFF MUL NOT AND SWAP1 DUP4 PUSH20 0xFFFFFFFFFFFFFFFFFFFFFFFFFFFFFFFFFFFFFFFF AND MUL OR SWAP1 SSTORE POP DUP2 PUSH20 0xFFFFFFFFFFFFFFFFFFFFFFFFFFFFFFFFFFFFFFFF AND DUP2 PUSH20 0xFFFFFFFFFFFFFFFFFFFFFFFFFFFFFFFFFFFFFFFF AND PUSH32 0x8BE0079C531659141344CD1FD0A4F28419497F9722A3DAAFE3B4186F6B6457E0 PUSH1 0x40 MLOAD PUSH1 0x40 MLOAD DUP1 SWAP2 SUB SWAP1 LOG3 POP POP JUMP JUMPDEST PUSH1 0x0 DUP1 REVERT JUMPDEST PUSH1 0x0 PUSH20 0xFFFFFFFFFFFFFFFFFFFFFFFFFFFFFFFFFFFFFFFF DUP3 AND SWAP1 POP SWAP2 SWAP1 POP JUMP JUMPDEST PUSH1 0x0 PUSH3 0x21D DUP3 PUSH3 0x1F0 JUMP JUMPDEST SWAP1 POP SWAP2 SWAP1 POP JUMP JUMPDEST PUSH3 0x22F DUP2 PUSH3 0x210 JUMP JUMPDEST DUP2 EQ PUSH3 0x23B JUMPI PUSH1 0x0 DUP1 REVERT JUMPDEST POP JUMP JUMPDEST PUSH1 0x0 DUP2 MLOAD SWAP1 POP PUSH3 0x24F DUP2 PUSH3 0x224 JUMP JUMPDEST SWAP3 SWAP2 POP POP JUMP JUMPDEST PUSH1 0x0 DUP1 PUSH1 0x0 PUSH1 0x60 DUP5 DUP7 SUB SLT ISZERO PUSH3 0x271 JUMPI PUSH3 0x270 PUSH3 0x1EB JUMP JUMPDEST JUMPDEST PUSH1 0x0 PUSH3 0x281 DUP7 DUP3 DUP8 ADD PUSH3 0x23E JUMP JUMPDEST SWAP4 POP POP PUSH1 0x20 PUSH3 0x294 DUP7 DUP3 DUP8 ADD PUSH3 0x23E JUMP JUMPDEST SWAP3 POP POP PUSH1 0x40 PUSH3 0x2A7 DUP7 DUP3 DUP8 ADD PUSH3 0x23E JUMP JUMPDEST SWAP2 POP POP SWAP3 POP SWAP3 POP SWAP3 JUMP JUMPDEST PUSH2 0x29F1 DUP1 PUSH3 0x2C1 PUSH1 0x0 CODECOPY PUSH1 0x0 RETURN INVALID PUSH1 0x80 PUSH1 0x40 MSTORE PUSH1 0x4 CALLDATASIZE LT PUSH2 0x114 JUMPI PUSH1 0x0 CALLDATALOAD PUSH1 0xE0 SHR DUP1 PUSH4 0x715018A6 GT PUSH2 0xA0 JUMPI DUP1 PUSH4 0xC45A0155 GT PUSH2 0x64 JUMPI DUP1 PUSH4 0xC45A0155 EQ PUSH2 0x362 JUMPI DUP1 PUSH4 0xC7BE7A49 EQ PUSH2 0x38D JUMPI DUP1 PUSH4 0xF2FDE38B EQ PUSH2 0x3CA JUMPI DUP1 PUSH4 0xF55DE0C7 EQ PUSH2 0x3F3 JUMPI DUP1 PUSH4 0xFF68FA6E EQ PUSH2 0x41E JUMPI PUSH2 0x114 JUMP JUMPDEST DUP1 PUSH4 0x715018A6 EQ PUSH2 0x2A1 JUMPI DUP1 PUSH4 0x85A8B36C EQ PUSH2 0x2B8 JUMPI DUP1 PUSH4 0x8DA5CB5B EQ PUSH2 0x2E3 JUMPI DUP1 PUSH4 0xA1C11CA8 EQ PUSH2 0x30E JUMPI DUP1 PUSH4 0xB7A60C7E EQ PUSH2 0x337 JUMPI PUSH2 0x114 JUMP JUMPDEST DUP1 PUSH4 0x361C1995 GT PUSH2 0xE7 JUMPI DUP1 PUSH4 0x361C1995 EQ PUSH2 0x1BF JUMPI DUP1 PUSH4 0x3FC15F15 EQ PUSH2 0x1DB JUMPI DUP1 PUSH4 0x517BD451 EQ PUSH2 0x206 JUMPI DUP1 PUSH4 0x5BB47808 EQ PUSH2 0x236 JUMPI DUP1 PUSH4 0x5C80A435 EQ PUSH2 0x25F JUMPI PUSH2 0x114 JUMP JUMPDEST DUP1 PUSH4 0x10061631 EQ PUSH2 0x119 JUMPI DUP1 PUSH4 0x15B12494 EQ PUSH2 0x142 JUMPI DUP1 PUSH4 0x27CE464E EQ PUSH2 0x16B JUMPI DUP1 PUSH4 0x2B4C32BE EQ PUSH2 0x194 JUMPI JUMPDEST PUSH1 0x0 DUP1 REVERT JUMPDEST CALLVALUE DUP1 ISZERO PUSH2 0x125 JUMPI PUSH1 0x0 DUP1 REVERT JUMPDEST POP PUSH2 0x140 PUSH1 0x4 DUP1 CALLDATASIZE SUB DUP2 ADD SWAP1 PUSH2 0x13B SWAP2 SWAP1 PUSH2 0x1C22 JUMP JUMPDEST PUSH2 0x460 JUMP JUMPDEST STOP JUMPDEST CALLVALUE DUP1 ISZERO PUSH2 0x14E JUMPI PUSH1 0x0 DUP1 REVERT JUMPDEST POP PUSH2 0x169 PUSH1 0x4 DUP1 CALLDATASIZE SUB DUP2 ADD SWAP1 PUSH2 0x164 SWAP2 SWAP1 PUSH2 0x1CAD JUMP JUMPDEST PUSH2 0x8D0 JUMP JUMPDEST STOP JUMPDEST CALLVALUE DUP1 ISZERO PUSH2 0x177 JUMPI PUSH1 0x0 DUP1 REVERT JUMPDEST POP PUSH2 0x192 PUSH1 0x4 DUP1 CALLDATASIZE SUB DUP2 ADD SWAP1 PUSH2 0x18D SWAP2 SWAP1 PUSH2 0x1CAD JUMP JUMPDEST PUSH2 0x990 JUMP JUMPDEST STOP JUMPDEST CALLVALUE DUP1 ISZERO PUSH2 0x1A0 JUMPI PUSH1 0x0 DUP1 REVERT JUMPDEST POP PUSH2 0x1A9 PUSH2 0xA50 JUMP JUMPDEST PUSH1 0x40 MLOAD PUSH2 0x1B6 SWAP2 SWAP1 PUSH2 0x1D15 JUMP JUMPDEST PUSH1 0x40 MLOAD DUP1 SWAP2 SUB SWAP1 RETURN JUMPDEST PUSH2 0x1D9 PUSH1 0x4 DUP1 CALLDATASIZE SUB DUP2 ADD SWAP1 PUSH2 0x1D4 SWAP2 SWAP1 PUSH2 0x1D30 JUMP JUMPDEST PUSH2 0xA5B JUMP JUMPDEST STOP JUMPDEST CALLVALUE DUP1 ISZERO PUSH2 0x1E7 JUMPI PUSH1 0x0 DUP1 REVERT JUMPDEST POP PUSH2 0x1F0 PUSH2 0xEC6 JUMP JUMPDEST PUSH1 0x40 MLOAD PUSH2 0x1FD SWAP2 SWAP1 PUSH2 0x1DCF JUMP JUMPDEST PUSH1 0x40 MLOAD DUP1 SWAP2 SUB SWAP1 RETURN JUMPDEST CALLVALUE DUP1 ISZERO PUSH2 0x212 JUMPI PUSH1 0x0 DUP1 REVERT JUMPDEST POP PUSH2 0x21B PUSH2 0xEEC JUMP JUMPDEST PUSH1 0x40 MLOAD PUSH2 0x22D SWAP7 SWAP6 SWAP5 SWAP4 SWAP3 SWAP2 SWAP1 PUSH2 0x1E7F JUMP JUMPDEST PUSH1 0x40 MLOAD DUP1 SWAP2 SUB SWAP1 RETURN JUMPDEST CALLVALUE DUP1 ISZERO PUSH2 0x242 JUMPI PUSH1 0x0 DUP1 REVERT JUMPDEST POP PUSH2 0x25D PUSH1 0x4 DUP1 CALLDATASIZE SUB DUP2 ADD SWAP1 PUSH2 0x258 SWAP2 SWAP1 PUSH2 0x1CAD JUMP JUMPDEST PUSH2 0xF63 JUMP JUMPDEST STOP JUMPDEST CALLVALUE DUP1 ISZERO PUSH2 0x26B JUMPI PUSH1 0x0 DUP1 REVERT JUMPDEST POP PUSH2 0x286 PUSH1 0x4 DUP1 CALLDATASIZE SUB DUP2 ADD SWAP1 PUSH2 0x281 SWAP2 SWAP1 PUSH2 0x1EE0 JUMP JUMPDEST PUSH2 0x1023 JUMP JUMPDEST PUSH1 0x40 MLOAD PUSH2 0x298 SWAP7 SWAP6 SWAP5 SWAP4 SWAP3 SWAP2 SWAP1 PUSH2 0x1E7F JUMP JUMPDEST PUSH1 0x40 MLOAD DUP1 SWAP2 SUB SWAP1 RETURN JUMPDEST CALLVALUE DUP1 ISZERO PUSH2 0x2AD JUMPI PUSH1 0x0 DUP1 REVERT JUMPDEST POP PUSH2 0x2B6 PUSH2 0x10B9 JUMP JUMPDEST STOP JUMPDEST CALLVALUE DUP1 ISZERO PUSH2 0x2C4 JUMPI PUSH1 0x0 DUP1 REVERT JUMPDEST POP PUSH2 0x2CD PUSH2 0x1141 JUMP JUMPDEST PUSH1 0x40 MLOAD PUSH2 0x2DA SWAP2 SWAP1 PUSH2 0x1F3C JUMP JUMPDEST PUSH1 0x40 MLOAD DUP1 SWAP2 SUB SWAP1 RETURN JUMPDEST CALLVALUE DUP1 ISZERO PUSH2 0x2EF JUMPI PUSH1 0x0 DUP1 REVERT JUMPDEST POP PUSH2 0x2F8 PUSH2 0x1154 JUMP JUMPDEST PUSH1 0x40 MLOAD PUSH2 0x305 SWAP2 SWAP1 PUSH2 0x1F57 JUMP JUMPDEST PUSH1 0x40 MLOAD DUP1 SWAP2 SUB SWAP1 RETURN JUMPDEST CALLVALUE DUP1 ISZERO PUSH2 0x31A JUMPI PUSH1 0x0 DUP1 REVERT JUMPDEST POP PUSH2 0x335 PUSH1 0x4 DUP1 CALLDATASIZE SUB DUP2 ADD SWAP1 PUSH2 0x330 SWAP2 SWAP1 PUSH2 0x1D30 JUMP JUMPDEST PUSH2 0x117E JUMP JUMPDEST STOP JUMPDEST CALLVALUE DUP1 ISZERO PUSH2 0x343 JUMPI PUSH1 0x0 DUP1 REVERT JUMPDEST POP PUSH2 0x34C PUSH2 0x143C JUMP JUMPDEST PUSH1 0x40 MLOAD PUSH2 0x359 SWAP2 SWAP1 PUSH2 0x1F3C JUMP JUMPDEST PUSH1 0x40 MLOAD DUP1 SWAP2 SUB SWAP1 RETURN JUMPDEST CALLVALUE DUP1 ISZERO PUSH2 0x36E JUMPI PUSH1 0x0 DUP1 REVERT JUMPDEST POP PUSH2 0x377 PUSH2 0x144F JUMP JUMPDEST PUSH1 0x40 MLOAD PUSH2 0x384 SWAP2 SWAP1 PUSH2 0x1F93 JUMP JUMPDEST PUSH1 0x40 MLOAD DUP1 SWAP2 SUB SWAP1 RETURN JUMPDEST CALLVALUE DUP1 ISZERO PUSH2 0x399 JUMPI PUSH1 0x0 DUP1 REVERT JUMPDEST POP PUSH2 0x3B4 PUSH1 0x4 DUP1 CALLDATASIZE SUB DUP2 ADD SWAP1 PUSH2 0x3AF SWAP2 SWAP1 PUSH2 0x1C22 JUMP JUMPDEST PUSH2 0x1475 JUMP JUMPDEST PUSH1 0x40 MLOAD PUSH2 0x3C1 SWAP2 SWAP1 PUSH2 0x2056 JUMP JUMPDEST PUSH1 0x40 MLOAD DUP1 SWAP2 SUB SWAP1 RETURN JUMPDEST CALLVALUE DUP1 ISZERO PUSH2 0x3D6 JUMPI PUSH1 0x0 DUP1 REVERT JUMPDEST POP PUSH2 0x3F1 PUSH1 0x4 DUP1 CALLDATASIZE SUB DUP2 ADD SWAP1 PUSH2 0x3EC SWAP2 SWAP1 PUSH2 0x1CAD JUMP JUMPDEST PUSH2 0x15A7 JUMP JUMPDEST STOP JUMPDEST CALLVALUE DUP1 ISZERO PUSH2 0x3FF JUMPI PUSH1 0x0 DUP1 REVERT JUMPDEST POP PUSH2 0x408 PUSH2 0x169E JUMP JUMPDEST PUSH1 0x40 MLOAD PUSH2 0x415 SWAP2 SWAP1 PUSH2 0x2092 JUMP JUMPDEST PUSH1 0x40 MLOAD DUP1 SWAP2 SUB SWAP1 RETURN JUMPDEST CALLVALUE DUP1 ISZERO PUSH2 0x42A JUMPI PUSH1 0x0 DUP1 REVERT JUMPDEST POP PUSH2 0x445 PUSH1 0x4 DUP1 CALLDATASIZE SUB DUP2 ADD SWAP1 PUSH2 0x440 SWAP2 SWAP1 PUSH2 0x1C22 JUMP JUMPDEST PUSH2 0x16C4 JUMP JUMPDEST PUSH1 0x40 MLOAD PUSH2 0x457 SWAP7 SWAP6 SWAP5 SWAP4 SWAP3 SWAP2 SWAP1 PUSH2 0x1E7F JUMP JUMPDEST PUSH1 0x40 MLOAD DUP1 SWAP2 SUB SWAP1 RETURN JUMPDEST PUSH1 0x0 CALLER SWAP1 POP PUSH1 0x0 PUSH1 0xF PUSH1 0x0 DUP5 DUP2 MSTORE PUSH1 0x20 ADD SWAP1 DUP2 MSTORE PUSH1 0x20 ADD PUSH1 0x0 KECCAK256 PUSH1 0x40 MLOAD DUP1 PUSH1 0xC0 ADD PUSH1 0x40 MSTORE SWAP1 DUP2 PUSH1 0x0 DUP3 ADD SLOAD DUP2 MSTORE PUSH1 0x20 ADD PUSH1 0x1 DUP3 ADD SLOAD DUP2 MSTORE PUSH1 0x20 ADD PUSH1 0x2 DUP3 ADD PUSH1 0x0 SWAP1 SLOAD SWAP1 PUSH2 0x100 EXP SWAP1 DIV PUSH20 0xFFFFFFFFFFFFFFFFFFFFFFFFFFFFFFFFFFFFFFFF AND PUSH20 0xFFFFFFFFFFFFFFFFFFFFFFFFFFFFFFFFFFFFFFFF AND PUSH20 0xFFFFFFFFFFFFFFFFFFFFFFFFFFFFFFFFFFFFFFFF AND DUP2 MSTORE PUSH1 0x20 ADD PUSH1 0x3 DUP3 ADD PUSH1 0x0 SWAP1 SLOAD SWAP1 PUSH2 0x100 EXP SWAP1 DIV PUSH20 0xFFFFFFFFFFFFFFFFFFFFFFFFFFFFFFFFFFFFFFFF AND PUSH20 0xFFFFFFFFFFFFFFFFFFFFFFFFFFFFFFFFFFFFFFFF AND PUSH20 0xFFFFFFFFFFFFFFFFFFFFFFFFFFFFFFFFFFFFFFFF AND DUP2 MSTORE PUSH1 0x20 ADD PUSH1 0x4 DUP3 ADD SLOAD DUP2 MSTORE PUSH1 0x20 ADD PUSH1 0x5 DUP3 ADD PUSH1 0x0 SWAP1 SLOAD SWAP1 PUSH2 0x100 EXP SWAP1 DIV PUSH1 0xFF AND PUSH1 0x1 DUP2 GT ISZERO PUSH2 0x574 JUMPI PUSH2 0x573 PUSH2 0x1E08 JUMP JUMPDEST JUMPDEST PUSH1 0x1 DUP2 GT ISZERO PUSH2 0x586 JUMPI PUSH2 0x585 PUSH2 0x1E08 JUMP JUMPDEST JUMPDEST DUP2 MSTORE POP POP SWAP1 POP PUSH1 0x0 DUP2 PUSH1 0x0 ADD MLOAD SUB PUSH2 0x5D3 JUMPI PUSH1 0x40 MLOAD PUSH32 0x8C379A000000000000000000000000000000000000000000000000000000000 DUP2 MSTORE PUSH1 0x4 ADD PUSH2 0x5CA SWAP1 PUSH2 0x210A JUMP JUMPDEST PUSH1 0x40 MLOAD DUP1 SWAP2 SUB SWAP1 REVERT JUMPDEST PUSH1 0x1 DUP1 DUP2 GT ISZERO PUSH2 0x5E6 JUMPI PUSH2 0x5E5 PUSH2 0x1E08 JUMP JUMPDEST JUMPDEST DUP2 PUSH1 0xA0 ADD MLOAD PUSH1 0x1 DUP2 GT ISZERO PUSH2 0x5FD JUMPI PUSH2 0x5FC PUSH2 0x1E08 JUMP JUMPDEST JUMPDEST EQ PUSH2 0x63D JUMPI PUSH1 0x40 MLOAD PUSH32 0x8C379A000000000000000000000000000000000000000000000000000000000 DUP2 MSTORE PUSH1 0x4 ADD PUSH2 0x634 SWAP1 PUSH2 0x2176 JUMP JUMPDEST PUSH1 0x40 MLOAD DUP1 SWAP2 SUB SWAP1 REVERT JUMPDEST PUSH1 0x0 DUP2 PUSH1 0x40 ADD MLOAD SWAP1 POP PUSH1 0x0 PUSH20 0xFFFFFFFFFFFFFFFFFFFFFFFFFFFFFFFFFFFFFFFF AND DUP2 PUSH20 0xFFFFFFFFFFFFFFFFFFFFFFFFFFFFFFFFFFFFFFFF AND SUB PUSH2 0x6B5 JUMPI PUSH1 0x40 MLOAD PUSH32 0x8C379A000000000000000000000000000000000000000000000000000000000 DUP2 MSTORE PUSH1 0x4 ADD PUSH2 0x6AC SWAP1 PUSH2 0x21E2 JUMP JUMPDEST PUSH1 0x40 MLOAD DUP1 SWAP2 SUB SWAP1 REVERT JUMPDEST CALLER PUSH20 0xFFFFFFFFFFFFFFFFFFFFFFFFFFFFFFFFFFFFFFFF AND DUP2 PUSH20 0xFFFFFFFFFFFFFFFFFFFFFFFFFFFFFFFFFFFFFFFF AND EQ PUSH2 0x723 JUMPI PUSH1 0x40 MLOAD PUSH32 0x8C379A000000000000000000000000000000000000000000000000000000000 DUP2 MSTORE PUSH1 0x4 ADD PUSH2 0x71A SWAP1 PUSH2 0x224E JUMP JUMPDEST PUSH1 0x40 MLOAD DUP1 SWAP2 SUB SWAP1 REVERT JUMPDEST PUSH1 0xB PUSH1 0x0 SWAP1 SLOAD SWAP1 PUSH2 0x100 EXP SWAP1 DIV PUSH20 0xFFFFFFFFFFFFFFFFFFFFFFFFFFFFFFFFFFFFFFFF AND PUSH20 0xFFFFFFFFFFFFFFFFFFFFFFFFFFFFFFFFFFFFFFFF AND PUSH4 0x42842E0E ADDRESS DUP4 DUP8 PUSH1 0x40 MLOAD DUP5 PUSH4 0xFFFFFFFF AND PUSH1 0xE0 SHL DUP2 MSTORE PUSH1 0x4 ADD PUSH2 0x782 SWAP4 SWAP3 SWAP2 SWAP1 PUSH2 0x226E JUMP JUMPDEST PUSH1 0x0 PUSH1 0x40 MLOAD DUP1 DUP4 SUB DUP2 PUSH1 0x0 DUP8 DUP1 EXTCODESIZE ISZERO DUP1 ISZERO PUSH2 0x79C JUMPI PUSH1 0x0 DUP1 REVERT JUMPDEST POP GAS CALL ISZERO DUP1 ISZERO PUSH2 0x7B0 JUMPI RETURNDATASIZE PUSH1 0x0 DUP1 RETURNDATACOPY RETURNDATASIZE PUSH1 0x0 REVERT JUMPDEST POP POP POP POP PUSH1 0x0 DUP3 PUSH1 0xA0 ADD SWAP1 PUSH1 0x1 DUP2 GT ISZERO PUSH2 0x7CD JUMPI PUSH2 0x7CC PUSH2 0x1E08 JUMP JUMPDEST JUMPDEST SWAP1 DUP2 PUSH1 0x1 DUP2 GT ISZERO PUSH2 0x7E1 JUMPI PUSH2 0x7E0 PUSH2 0x1E08 JUMP JUMPDEST JUMPDEST DUP2 MSTORE POP POP PUSH1 0xF PUSH1 0x0 DUP6 DUP2 MSTORE PUSH1 0x20 ADD SWAP1 DUP2 MSTORE PUSH1 0x20 ADD PUSH1 0x0 KECCAK256 PUSH1 0x0 DUP1 DUP3 ADD PUSH1 0x0 SWAP1 SSTORE PUSH1 0x1 DUP3 ADD PUSH1 0x0 SWAP1 SSTORE PUSH1 0x2 DUP3 ADD PUSH1 0x0 PUSH2 0x100 EXP DUP2 SLOAD SWAP1 PUSH20 0xFFFFFFFFFFFFFFFFFFFFFFFFFFFFFFFFFFFFFFFF MUL NOT AND SWAP1 SSTORE PUSH1 0x3 DUP3 ADD PUSH1 0x0 PUSH2 0x100 EXP DUP2 SLOAD SWAP1 PUSH20 0xFFFFFFFFFFFFFFFFFFFFFFFFFFFFFFFFFFFFFFFF MUL NOT AND SWAP1 SSTORE PUSH1 0x4 DUP3 ADD PUSH1 0x0 SWAP1 SSTORE PUSH1 0x5 DUP3 ADD PUSH1 0x0 PUSH2 0x100 EXP DUP2 SLOAD SWAP1 PUSH1 0xFF MUL NOT AND SWAP1 SSTORE POP POP DUP3 PUSH20 0xFFFFFFFFFFFFFFFFFFFFFFFFFFFFFFFFFFFFFFFF AND DUP5 PUSH32 0x72FFC2A266ACBA5F77E2B49400103CB61B428F37A97057EBE671E83FDDD71E67 DUP5 PUSH1 0x0 ADD MLOAD TIMESTAMP PUSH1 0x40 MLOAD PUSH2 0x8C2 SWAP3 SWAP2 SWAP1 PUSH2 0x22A5 JUMP JUMPDEST PUSH1 0x40 MLOAD DUP1 SWAP2 SUB SWAP1 LOG3 POP POP POP POP JUMP JUMPDEST PUSH2 0x8D8 PUSH2 0x174D JUMP JUMPDEST PUSH20 0xFFFFFFFFFFFFFFFFFFFFFFFFFFFFFFFFFFFFFFFF AND PUSH2 0x8F6 PUSH2 0x1154 JUMP JUMPDEST PUSH20 0xFFFFFFFFFFFFFFFFFFFFFFFFFFFFFFFFFFFFFFFF AND EQ PUSH2 0x94C JUMPI PUSH1 0x40 MLOAD PUSH32 0x8C379A000000000000000000000000000000000000000000000000000000000 DUP2 MSTORE PUSH1 0x4 ADD PUSH2 0x943 SWAP1 PUSH2 0x231A JUMP JUMPDEST PUSH1 0x40 MLOAD DUP1 SWAP2 SUB SWAP1 REVERT JUMPDEST DUP1 PUSH1 0xB PUSH1 0x0 PUSH2 0x100 EXP DUP2 SLOAD DUP2 PUSH20 0xFFFFFFFFFFFFFFFFFFFFFFFFFFFFFFFFFFFFFFFF MUL NOT AND SWAP1 DUP4 PUSH20 0xFFFFFFFFFFFFFFFFFFFFFFFFFFFFFFFFFFFFFFFF AND MUL OR SWAP1 SSTORE POP POP JUMP JUMPDEST PUSH2 0x998 PUSH2 0x174D JUMP JUMPDEST PUSH20 0xFFFFFFFFFFFFFFFFFFFFFFFFFFFFFFFFFFFFFFFF AND PUSH2 0x9B6 PUSH2 0x1154 JUMP JUMPDEST PUSH20 0xFFFFFFFFFFFFFFFFFFFFFFFFFFFFFFFFFFFFFFFF AND EQ PUSH2 0xA0C JUMPI PUSH1 0x40 MLOAD PUSH32 0x8C379A000000000000000000000000000000000000000000000000000000000 DUP2 MSTORE PUSH1 0x4 ADD PUSH2 0xA03 SWAP1 PUSH2 0x231A JUMP JUMPDEST PUSH1 0x40 MLOAD DUP1 SWAP2 SUB SWAP1 REVERT JUMPDEST DUP1 PUSH1 0x9 PUSH1 0x0 PUSH2 0x100 EXP DUP2 SLOAD DUP2 PUSH20 0xFFFFFFFFFFFFFFFFFFFFFFFFFFFFFFFFFFFFFFFF MUL NOT AND SWAP1 DUP4 PUSH20 0xFFFFFFFFFFFFFFFFFFFFFFFFFFFFFFFFFFFFFFFF AND MUL OR SWAP1 SSTORE POP POP JUMP JUMPDEST PUSH4 0x80AC58CD PUSH1 0xE0 SHL DUP2 JUMP JUMPDEST PUSH1 0x2 PUSH1 0x0 SLOAD SUB PUSH2 0xAA0 JUMPI PUSH1 0x40 MLOAD PUSH32 0x8C379A000000000000000000000000000000000000000000000000000000000 DUP2 MSTORE PUSH1 0x4 ADD PUSH2 0xA97 SWAP1 PUSH2 0x2386 JUMP JUMPDEST PUSH1 0x40 MLOAD DUP1 SWAP2 SUB SWAP1 REVERT JUMPDEST PUSH1 0x2 PUSH1 0x0 DUP2 SWAP1 SSTORE POP PUSH1 0x0 DUP2 GT PUSH2 0xAEB JUMPI PUSH1 0x40 MLOAD PUSH32 0x8C379A000000000000000000000000000000000000000000000000000000000 DUP2 MSTORE PUSH1 0x4 ADD PUSH2 0xAE2 SWAP1 PUSH2 0x23F2 JUMP JUMPDEST PUSH1 0x40 MLOAD DUP1 SWAP2 SUB SWAP1 REVERT JUMPDEST PUSH1 0x0 PUSH1 0xA PUSH1 0x0 SWAP1 SLOAD SWAP1 PUSH2 0x100 EXP SWAP1 DIV PUSH20 0xFFFFFFFFFFFFFFFFFFFFFFFFFFFFFFFFFFFFFFFF AND PUSH20 0xFFFFFFFFFFFFFFFFFFFFFFFFFFFFFFFFFFFFFFFF AND PUSH4 0x3CE1CB5 DUP5 PUSH1 0x40 MLOAD DUP3 PUSH4 0xFFFFFFFF AND PUSH1 0xE0 SHL DUP2 MSTORE PUSH1 0x4 ADD PUSH2 0xB48 SWAP2 SWAP1 PUSH2 0x2412 JUMP JUMPDEST PUSH1 0x0 PUSH1 0x40 MLOAD DUP1 DUP4 SUB DUP2 DUP7 GAS STATICCALL ISZERO DUP1 ISZERO PUSH2 0xB65 JUMPI RETURNDATASIZE PUSH1 0x0 DUP1 RETURNDATACOPY RETURNDATASIZE PUSH1 0x0 REVERT JUMPDEST POP POP POP POP PUSH1 0x40 MLOAD RETURNDATASIZE PUSH1 0x0 DUP3 RETURNDATACOPY RETURNDATASIZE PUSH1 0x1F NOT PUSH1 0x1F DUP3 ADD AND DUP3 ADD DUP1 PUSH1 0x40 MSTORE POP DUP2 ADD SWAP1 PUSH2 0xB8E SWAP2 SWAP1 PUSH2 0x26C7 JUMP JUMPDEST SWAP1 POP PUSH1 0x0 ISZERO ISZERO DUP2 PUSH1 0x80 ADD MLOAD ISZERO ISZERO EQ PUSH2 0xBDB JUMPI PUSH1 0x40 MLOAD PUSH32 0x8C379A000000000000000000000000000000000000000000000000000000000 DUP2 MSTORE PUSH1 0x4 ADD PUSH2 0xBD2 SWAP1 PUSH2 0x275C JUMP JUMPDEST PUSH1 0x40 MLOAD DUP1 SWAP2 SUB SWAP1 REVERT JUMPDEST PUSH1 0xA PUSH1 0x0 SWAP1 SLOAD SWAP1 PUSH2 0x100 EXP SWAP1 DIV PUSH20 0xFFFFFFFFFFFFFFFFFFFFFFFFFFFFFFFFFFFFFFFF AND PUSH20 0xFFFFFFFFFFFFFFFFFFFFFFFFFFFFFFFFFFFFFFFF AND PUSH4 0xC1E9518A CALLER ADDRESS DUP7 PUSH1 0x40 MLOAD DUP5 PUSH4 0xFFFFFFFF AND PUSH1 0xE0 SHL DUP2 MSTORE PUSH1 0x4 ADD PUSH2 0xC3A SWAP4 SWAP3 SWAP2 SWAP1 PUSH2 0x279D JUMP JUMPDEST PUSH1 0x0 PUSH1 0x40 MLOAD DUP1 DUP4 SUB DUP2 PUSH1 0x0 DUP8 DUP1 EXTCODESIZE ISZERO DUP1 ISZERO PUSH2 0xC54 JUMPI PUSH1 0x0 DUP1 REVERT JUMPDEST POP GAS CALL ISZERO DUP1 ISZERO PUSH2 0xC68 JUMPI RETURNDATASIZE PUSH1 0x0 DUP1 RETURNDATACOPY RETURNDATASIZE PUSH1 0x0 REVERT JUMPDEST POP POP POP POP PUSH1 0xB PUSH1 0x0 SWAP1 SLOAD SWAP1 PUSH2 0x100 EXP SWAP1 DIV PUSH20 0xFFFFFFFFFFFFFFFFFFFFFFFFFFFFFFFFFFFFFFFF AND PUSH20 0xFFFFFFFFFFFFFFFFFFFFFFFFFFFFFFFFFFFFFFFF AND PUSH4 0x23B872DD CALLER ADDRESS DUP7 PUSH1 0x40 MLOAD DUP5 PUSH4 0xFFFFFFFF AND PUSH1 0xE0 SHL DUP2 MSTORE PUSH1 0x4 ADD PUSH2 0xCCB SWAP4 SWAP3 SWAP2 SWAP1 PUSH2 0x226E JUMP JUMPDEST PUSH1 0x0 PUSH1 0x40 MLOAD DUP1 DUP4 SUB DUP2 PUSH1 0x0 DUP8 DUP1 EXTCODESIZE ISZERO DUP1 ISZERO PUSH2 0xCE5 JUMPI PUSH1 0x0 DUP1 REVERT JUMPDEST POP GAS CALL ISZERO DUP1 ISZERO PUSH2 0xCF9 JUMPI RETURNDATASIZE PUSH1 0x0 DUP1 RETURNDATACOPY RETURNDATASIZE PUSH1 0x0 REVERT JUMPDEST POP POP POP POP PUSH2 0xD06 DUP4 PUSH2 0x1755 JUMP JUMPDEST PUSH1 0x0 PUSH2 0xD12 PUSH1 0xD PUSH2 0x187A JUMP JUMPDEST SWAP1 POP PUSH1 0x40 MLOAD DUP1 PUSH1 0xC0 ADD PUSH1 0x40 MSTORE DUP1 DUP3 DUP2 MSTORE PUSH1 0x20 ADD DUP6 DUP2 MSTORE PUSH1 0x20 ADD CALLER PUSH20 0xFFFFFFFFFFFFFFFFFFFFFFFFFFFFFFFFFFFFFFFF AND DUP2 MSTORE PUSH1 0x20 ADD ADDRESS PUSH20 0xFFFFFFFFFFFFFFFFFFFFFFFFFFFFFFFFFFFFFFFF AND DUP2 MSTORE PUSH1 0x20 ADD DUP5 DUP2 MSTORE PUSH1 0x20 ADD PUSH1 0x1 DUP1 DUP2 GT ISZERO PUSH2 0xD7C JUMPI PUSH2 0xD7B PUSH2 0x1E08 JUMP JUMPDEST JUMPDEST DUP2 MSTORE POP PUSH1 0xF PUSH1 0x0 DUP4 DUP2 MSTORE PUSH1 0x20 ADD SWAP1 DUP2 MSTORE PUSH1 0x20 ADD PUSH1 0x0 KECCAK256 PUSH1 0x0 DUP3 ADD MLOAD DUP2 PUSH1 0x0 ADD SSTORE PUSH1 0x20 DUP3 ADD MLOAD DUP2 PUSH1 0x1 ADD SSTORE PUSH1 0x40 DUP3 ADD MLOAD DUP2 PUSH1 0x2 ADD PUSH1 0x0 PUSH2 0x100 EXP DUP2 SLOAD DUP2 PUSH20 0xFFFFFFFFFFFFFFFFFFFFFFFFFFFFFFFFFFFFFFFF MUL NOT AND SWAP1 DUP4 PUSH20 0xFFFFFFFFFFFFFFFFFFFFFFFFFFFFFFFFFFFFFFFF AND MUL OR SWAP1 SSTORE POP PUSH1 0x60 DUP3 ADD MLOAD DUP2 PUSH1 0x3 ADD PUSH1 0x0 PUSH2 0x100 EXP DUP2 SLOAD DUP2 PUSH20 0xFFFFFFFFFFFFFFFFFFFFFFFFFFFFFFFFFFFFFFFF MUL NOT AND SWAP1 DUP4 PUSH20 0xFFFFFFFFFFFFFFFFFFFFFFFFFFFFFFFFFFFFFFFF AND MUL OR SWAP1 SSTORE POP PUSH1 0x80 DUP3 ADD MLOAD DUP2 PUSH1 0x4 ADD SSTORE PUSH1 0xA0 DUP3 ADD MLOAD DUP2 PUSH1 0x5 ADD PUSH1 0x0 PUSH2 0x100 EXP DUP2 SLOAD DUP2 PUSH1 0xFF MUL NOT AND SWAP1 DUP4 PUSH1 0x1 DUP2 GT ISZERO PUSH2 0xE69 JUMPI PUSH2 0xE68 PUSH2 0x1E08 JUMP JUMPDEST JUMPDEST MUL OR SWAP1 SSTORE POP SWAP1 POP POP PUSH2 0xE7B PUSH1 0xD PUSH2 0x1888 JUMP JUMPDEST DUP4 DUP2 PUSH32 0x38690A554FFBC44EB6A75016E47D517D0DB8E6C37494ADC68D6D0B2C66F0AB21 CALLER ADDRESS DUP8 PUSH1 0x40 MLOAD PUSH2 0xEB0 SWAP4 SWAP3 SWAP2 SWAP1 PUSH2 0x226E JUMP JUMPDEST PUSH1 0x40 MLOAD DUP1 SWAP2 SUB SWAP1 LOG3 POP POP PUSH1 0x1 PUSH1 0x0 DUP2 SWAP1 SSTORE POP POP POP JUMP JUMPDEST PUSH1 0x9 PUSH1 0x0 SWAP1 SLOAD SWAP1 PUSH2 0x100 EXP SWAP1 DIV PUSH20 0xFFFFFFFFFFFFFFFFFFFFFFFFFFFFFFFFFFFFFFFF AND DUP2 JUMP JUMPDEST PUSH1 0x1 DUP1 PUSH1 0x0 ADD SLOAD SWAP1 DUP1 PUSH1 0x1 ADD SLOAD SWAP1 DUP1 PUSH1 0x2 ADD PUSH1 0x0 SWAP1 SLOAD SWAP1 PUSH2 0x100 EXP SWAP1 DIV PUSH20 0xFFFFFFFFFFFFFFFFFFFFFFFFFFFFFFFFFFFFFFFF AND SWAP1 DUP1 PUSH1 0x3 ADD PUSH1 0x0 SWAP1 SLOAD SWAP1 PUSH2 0x100 EXP SWAP1 DIV PUSH20 0xFFFFFFFFFFFFFFFFFFFFFFFFFFFFFFFFFFFFFFFF AND SWAP1 DUP1 PUSH1 0x4 ADD SLOAD SWAP1 DUP1 PUSH1 0x5 ADD PUSH1 0x0 SWAP1 SLOAD SWAP1 PUSH2 0x100 EXP SWAP1 DIV PUSH1 0xFF AND SWAP1 POP DUP7 JUMP JUMPDEST PUSH2 0xF6B PUSH2 0x174D JUMP JUMPDEST PUSH20 0xFFFFFFFFFFFFFFFFFFFFFFFFFFFFFFFFFFFFFFFF AND PUSH2 0xF89 PUSH2 0x1154 JUMP JUMPDEST PUSH20 0xFFFFFFFFFFFFFFFFFFFFFFFFFFFFFFFFFFFFFFFF AND EQ PUSH2 0xFDF JUMPI PUSH1 0x40 MLOAD PUSH32 0x8C379A000000000000000000000000000000000000000000000000000000000 DUP2 MSTORE PUSH1 0x4 ADD PUSH2 0xFD6 SWAP1 PUSH2 0x231A JUMP JUMPDEST PUSH1 0x40 MLOAD DUP1 SWAP2 SUB SWAP1 REVERT JUMPDEST DUP1 PUSH1 0xA PUSH1 0x0 PUSH2 0x100 EXP DUP2 SLOAD DUP2 PUSH20 0xFFFFFFFFFFFFFFFFFFFFFFFFFFFFFFFFFFFFFFFF MUL NOT AND SWAP1 DUP4 PUSH20 0xFFFFFFFFFFFFFFFFFFFFFFFFFFFFFFFFFFFFFFFF AND MUL OR SWAP1 SSTORE POP POP JUMP JUMPDEST PUSH1 0x8 PUSH1 0x20 MSTORE DUP2 PUSH1 0x0 MSTORE PUSH1 0x40 PUSH1 0x0 KECCAK256 PUSH1 0x20 MSTORE DUP1 PUSH1 0x0 MSTORE PUSH1 0x40 PUSH1 0x0 KECCAK256 PUSH1 0x0 SWAP2 POP SWAP2 POP POP DUP1 PUSH1 0x0 ADD SLOAD SWAP1 DUP1 PUSH1 0x1 ADD SLOAD SWAP1 DUP1 PUSH1 0x2 ADD PUSH1 0x0 SWAP1 SLOAD SWAP1 PUSH2 0x100 EXP SWAP1 DIV PUSH20 0xFFFFFFFFFFFFFFFFFFFFFFFFFFFFFFFFFFFFFFFF AND SWAP1 DUP1 PUSH1 0x3 ADD PUSH1 0x0 SWAP1 SLOAD SWAP1 PUSH2 0x100 EXP SWAP1 DIV PUSH20 0xFFFFFFFFFFFFFFFFFFFFFFFFFFFFFFFFFFFFFFFF AND SWAP1 DUP1 PUSH1 0x4 ADD SLOAD SWAP1 DUP1 PUSH1 0x5 ADD PUSH1 0x0 SWAP1 SLOAD SWAP1 PUSH2 0x100 EXP SWAP1 DIV PUSH1 0xFF AND SWAP1 POP DUP7 JUMP JUMPDEST PUSH2 0x10C1 PUSH2 0x174D JUMP JUMPDEST PUSH20 0xFFFFFFFFFFFFFFFFFFFFFFFFFFFFFFFFFFFFFFFF AND PUSH2 0x10DF PUSH2 0x1154 JUMP JUMPDEST PUSH20 0xFFFFFFFFFFFFFFFFFFFFFFFFFFFFFFFFFFFFFFFF AND EQ PUSH2 0x1135 JUMPI PUSH1 0x40 MLOAD PUSH32 0x8C379A000000000000000000000000000000000000000000000000000000000 DUP2 MSTORE PUSH1 0x4 ADD PUSH2 0x112C SWAP1 PUSH2 0x231A JUMP JUMPDEST PUSH1 0x40 MLOAD DUP1 SWAP2 SUB SWAP1 REVERT JUMPDEST PUSH2 0x113F PUSH1 0x0 PUSH2 0x189E JUMP JUMPDEST JUMP JUMPDEST PUSH1 0xB PUSH1 0x14 SWAP1 SLOAD SWAP1 PUSH2 0x100 EXP SWAP1 DIV PUSH1 0xFF AND DUP2 JUMP JUMPDEST PUSH1 0x0 PUSH1 0xC PUSH1 0x0 SWAP1 SLOAD SWAP1 PUSH2 0x100 EXP SWAP1 DIV PUSH20 0xFFFFFFFFFFFFFFFFFFFFFFFFFFFFFFFFFFFFFFFF AND SWAP1 POP SWAP1 JUMP JUMPDEST PUSH1 0x0 PUSH1 0xF PUSH1 0x0 DUP5 DUP2 MSTORE PUSH1 0x20 ADD SWAP1 DUP2 MSTORE PUSH1 0x20 ADD PUSH1 0x0 KECCAK256 PUSH1 0x4 ADD SLOAD SWAP1 POP PUSH1 0x0 PUSH1 0xF PUSH1 0x0 DUP6 DUP2 MSTORE PUSH1 0x20 ADD SWAP1 DUP2 MSTORE PUSH1 0x20 ADD PUSH1 0x0 KECCAK256 PUSH1 0x1 ADD SLOAD SWAP1 POP PUSH1 0x0 PUSH1 0xF PUSH1 0x0 DUP7 DUP2 MSTORE PUSH1 0x20 ADD SWAP1 DUP2 MSTORE PUSH1 0x20 ADD PUSH1 0x0 KECCAK256 PUSH1 0x2 ADD PUSH1 0x0 SWAP1 SLOAD SWAP1 PUSH2 0x100 EXP SWAP1 DIV PUSH20 0xFFFFFFFFFFFFFFFFFFFFFFFFFFFFFFFFFFFFFFFF AND SWAP1 POP PUSH1 0x0 PUSH1 0xA PUSH1 0x0 SWAP1 SLOAD SWAP1 PUSH2 0x100 EXP SWAP1 DIV PUSH20 0xFFFFFFFFFFFFFFFFFFFFFFFFFFFFFFFFFFFFFFFF AND PUSH20 0xFFFFFFFFFFFFFFFFFFFFFFFFFFFFFFFFFFFFFFFF AND PUSH4 0x3CE1CB5 DUP5 PUSH1 0x40 MLOAD DUP3 PUSH4 0xFFFFFFFF AND PUSH1 0xE0 SHL DUP2 MSTORE PUSH1 0x4 ADD PUSH2 0x124C SWAP2 SWAP1 PUSH2 0x2412 JUMP JUMPDEST PUSH1 0x0 PUSH1 0x40 MLOAD DUP1 DUP4 SUB DUP2 DUP7 GAS STATICCALL ISZERO DUP1 ISZERO PUSH2 0x1269 JUMPI RETURNDATASIZE PUSH1 0x0 DUP1 RETURNDATACOPY RETURNDATASIZE PUSH1 0x0 REVERT JUMPDEST POP POP POP POP PUSH1 0x40 MLOAD RETURNDATASIZE PUSH1 0x0 DUP3 RETURNDATACOPY RETURNDATASIZE PUSH1 0x1F NOT PUSH1 0x1F DUP3 ADD AND DUP3 ADD DUP1 PUSH1 0x40 MSTORE POP DUP2 ADD SWAP1 PUSH2 0x1292 SWAP2 SWAP1 PUSH2 0x26C7 JUMP JUMPDEST SWAP1 POP DUP4 DUP6 EQ PUSH2 0x12D6 JUMPI PUSH1 0x40 MLOAD PUSH32 0x8C379A000000000000000000000000000000000000000000000000000000000 DUP2 MSTORE PUSH1 0x4 ADD PUSH2 0x12CD SWAP1 PUSH2 0x2846 JUMP JUMPDEST PUSH1 0x40 MLOAD DUP1 SWAP2 SUB SWAP1 REVERT JUMPDEST PUSH1 0x0 ISZERO ISZERO DUP2 PUSH1 0x80 ADD MLOAD ISZERO ISZERO EQ PUSH2 0x1321 JUMPI PUSH1 0x40 MLOAD PUSH32 0x8C379A000000000000000000000000000000000000000000000000000000000 DUP2 MSTORE PUSH1 0x4 ADD PUSH2 0x1318 SWAP1 PUSH2 0x275C JUMP JUMPDEST PUSH1 0x40 MLOAD DUP1 SWAP2 SUB SWAP1 REVERT JUMPDEST PUSH2 0x132C DUP7 DUP7 DUP6 PUSH2 0x1964 JUMP JUMPDEST CALLER PUSH1 0xF PUSH1 0x0 DUP9 DUP2 MSTORE PUSH1 0x20 ADD SWAP1 DUP2 MSTORE PUSH1 0x20 ADD PUSH1 0x0 KECCAK256 PUSH1 0x3 ADD PUSH1 0x0 PUSH2 0x100 EXP DUP2 SLOAD DUP2 PUSH20 0xFFFFFFFFFFFFFFFFFFFFFFFFFFFFFFFFFFFFFFFF MUL NOT AND SWAP1 DUP4 PUSH20 0xFFFFFFFFFFFFFFFFFFFFFFFFFFFFFFFFFFFFFFFF AND MUL OR SWAP1 SSTORE POP PUSH1 0x0 PUSH1 0xF PUSH1 0x0 DUP9 DUP2 MSTORE PUSH1 0x20 ADD SWAP1 DUP2 MSTORE PUSH1 0x20 ADD PUSH1 0x0 KECCAK256 PUSH1 0x5 ADD PUSH1 0x0 PUSH2 0x100 EXP DUP2 SLOAD DUP2 PUSH1 0xFF MUL NOT AND SWAP1 DUP4 PUSH1 0x1 DUP2 GT ISZERO PUSH2 0x13BB JUMPI PUSH2 0x13BA PUSH2 0x1E08 JUMP JUMPDEST JUMPDEST MUL OR SWAP1 SSTORE POP PUSH2 0x13CA PUSH1 0xE PUSH2 0x1888 JUMP JUMPDEST CALLER PUSH20 0xFFFFFFFFFFFFFFFFFFFFFFFFFFFFFFFFFFFFFFFF AND DUP3 PUSH20 0xFFFFFFFFFFFFFFFFFFFFFFFFFFFFFFFFFFFFFFFF AND DUP5 PUSH32 0x551327AEE12D0A8B3EDE8D0E3182A40A5FF3ED9F1811DD622915DB30B609B7DF DUP10 DUP9 TIMESTAMP PUSH1 0x40 MLOAD PUSH2 0x142C SWAP4 SWAP3 SWAP2 SWAP1 PUSH2 0x28B2 JUMP JUMPDEST PUSH1 0x40 MLOAD DUP1 SWAP2 SUB SWAP1 LOG4 POP POP POP POP POP POP JUMP JUMPDEST PUSH1 0xB PUSH1 0x15 SWAP1 SLOAD SWAP1 PUSH2 0x100 EXP SWAP1 DIV PUSH1 0xFF AND DUP2 JUMP JUMPDEST PUSH1 0xA PUSH1 0x0 SWAP1 SLOAD SWAP1 PUSH2 0x100 EXP SWAP1 DIV PUSH20 0xFFFFFFFFFFFFFFFFFFFFFFFFFFFFFFFFFFFFFFFF AND DUP2 JUMP JUMPDEST PUSH2 0x147D PUSH2 0x1B64 JUMP JUMPDEST PUSH1 0xF PUSH1 0x0 DUP4 DUP2 MSTORE PUSH1 0x20 ADD SWAP1 DUP2 MSTORE PUSH1 0x20 ADD PUSH1 0x0 KECCAK256 PUSH1 0x40 MLOAD DUP1 PUSH1 0xC0 ADD PUSH1 0x40 MSTORE SWAP1 DUP2 PUSH1 0x0 DUP3 ADD SLOAD DUP2 MSTORE PUSH1 0x20 ADD PUSH1 0x1 DUP3 ADD SLOAD DUP2 MSTORE PUSH1 0x20 ADD PUSH1 0x2 DUP3 ADD PUSH1 0x0 SWAP1 SLOAD SWAP1 PUSH2 0x100 EXP SWAP1 DIV PUSH20 0xFFFFFFFFFFFFFFFFFFFFFFFFFFFFFFFFFFFFFFFF AND PUSH20 0xFFFFFFFFFFFFFFFFFFFFFFFFFFFFFFFFFFFFFFFF AND PUSH20 0xFFFFFFFFFFFFFFFFFFFFFFFFFFFFFFFFFFFFFFFF AND DUP2 MSTORE PUSH1 0x20 ADD PUSH1 0x3 DUP3 ADD PUSH1 0x0 SWAP1 SLOAD SWAP1 PUSH2 0x100 EXP SWAP1 DIV PUSH20 0xFFFFFFFFFFFFFFFFFFFFFFFFFFFFFFFFFFFFFFFF AND PUSH20 0xFFFFFFFFFFFFFFFFFFFFFFFFFFFFFFFFFFFFFFFF AND PUSH20 0xFFFFFFFFFFFFFFFFFFFFFFFFFFFFFFFFFFFFFFFF AND DUP2 MSTORE PUSH1 0x20 ADD PUSH1 0x4 DUP3 ADD SLOAD DUP2 MSTORE PUSH1 0x20 ADD PUSH1 0x5 DUP3 ADD PUSH1 0x0 SWAP1 SLOAD SWAP1 PUSH2 0x100 EXP SWAP1 DIV PUSH1 0xFF AND PUSH1 0x1 DUP2 GT ISZERO PUSH2 0x158A JUMPI PUSH2 0x1589 PUSH2 0x1E08 JUMP JUMPDEST JUMPDEST PUSH1 0x1 DUP2 GT ISZERO PUSH2 0x159C JUMPI PUSH2 0x159B PUSH2 0x1E08 JUMP JUMPDEST JUMPDEST DUP2 MSTORE POP POP SWAP1 POP SWAP2 SWAP1 POP JUMP JUMPDEST PUSH2 0x15AF PUSH2 0x174D JUMP JUMPDEST PUSH20 0xFFFFFFFFFFFFFFFFFFFFFFFFFFFFFFFFFFFFFFFF AND PUSH2 0x15CD PUSH2 0x1154 JUMP JUMPDEST PUSH20 0xFFFFFFFFFFFFFFFFFFFFFFFFFFFFFFFFFFFFFFFF AND EQ PUSH2 0x1623 JUMPI PUSH1 0x40 MLOAD PUSH32 0x8C379A000000000000000000000000000000000000000000000000000000000 DUP2 MSTORE PUSH1 0x4 ADD PUSH2 0x161A SWAP1 PUSH2 0x231A JUMP JUMPDEST PUSH1 0x40 MLOAD DUP1 SWAP2 SUB SWAP1 REVERT JUMPDEST PUSH1 0x0 PUSH20 0xFFFFFFFFFFFFFFFFFFFFFFFFFFFFFFFFFFFFFFFF AND DUP2 PUSH20 0xFFFFFFFFFFFFFFFFFFFFFFFFFFFFFFFFFFFFFFFF AND SUB PUSH2 0x1692 JUMPI PUSH1 0x40 MLOAD PUSH32 0x8C379A000000000000000000000000000000000000000000000000000000000 DUP2 MSTORE PUSH1 0x4 ADD PUSH2 0x1689 SWAP1 PUSH2 0x296E JUMP JUMPDEST PUSH1 0x40 MLOAD DUP1 SWAP2 SUB SWAP1 REVERT JUMPDEST PUSH2 0x169B DUP2 PUSH2 0x189E JUMP JUMPDEST POP JUMP JUMPDEST PUSH1 0xB PUSH1 0x0 SWAP1 SLOAD SWAP1 PUSH2 0x100 EXP SWAP1 DIV PUSH20 0xFFFFFFFFFFFFFFFFFFFFFFFFFFFFFFFFFFFFFFFF AND DUP2 JUMP JUMPDEST PUSH1 0x7 PUSH1 0x20 MSTORE DUP1 PUSH1 0x0 MSTORE PUSH1 0x40 PUSH1 0x0 KECCAK256 PUSH1 0x0 SWAP2 POP SWAP1 POP DUP1 PUSH1 0x0 ADD SLOAD SWAP1 DUP1 PUSH1 0x1 ADD SLOAD SWAP1 DUP1 PUSH1 0x2 ADD PUSH1 0x0 SWAP1 SLOAD SWAP1 PUSH2 0x100 EXP SWAP1 DIV PUSH20 0xFFFFFFFFFFFFFFFFFFFFFFFFFFFFFFFFFFFFFFFF AND SWAP1 DUP1 PUSH1 0x3 ADD PUSH1 0x0 SWAP1 SLOAD SWAP1 PUSH2 0x100 EXP SWAP1 DIV PUSH20 0xFFFFFFFFFFFFFFFFFFFFFFFFFFFFFFFFFFFFFFFF AND SWAP1 DUP1 PUSH1 0x4 ADD SLOAD SWAP1 DUP1 PUSH1 0x5 ADD PUSH1 0x0 SWAP1 SLOAD SWAP1 PUSH2 0x100 EXP SWAP1 DIV PUSH1 0xFF AND SWAP1 POP DUP7 JUMP JUMPDEST PUSH1 0x0 CALLER SWAP1 POP SWAP1 JUMP JUMPDEST PUSH1 0xA PUSH1 0x0 SWAP1 SLOAD SWAP1 PUSH2 0x100 EXP SWAP1 DIV PUSH20 0xFFFFFFFFFFFFFFFFFFFFFFFFFFFFFFFFFFFFFFFF AND PUSH20 0xFFFFFFFFFFFFFFFFFFFFFFFFFFFFFFFFFFFFFFFF AND PUSH4 0xC1E9518A CALLER ADDRESS DUP5 PUSH1 0x40 MLOAD DUP5 PUSH4 0xFFFFFFFF AND PUSH1 0xE0 SHL DUP2 MSTORE PUSH1 0x4 ADD PUSH2 0x17B4 SWAP4 SWAP3 SWAP2 SWAP1 PUSH2 0x226E JUMP JUMPDEST PUSH1 0x0 PUSH1 0x40 MLOAD DUP1 DUP4 SUB DUP2 PUSH1 0x0 DUP8 DUP1 EXTCODESIZE ISZERO DUP1 ISZERO PUSH2 0x17CE JUMPI PUSH1 0x0 DUP1 REVERT JUMPDEST POP GAS CALL ISZERO DUP1 ISZERO PUSH2 0x17E2 JUMPI RETURNDATASIZE PUSH1 0x0 DUP1 RETURNDATACOPY RETURNDATASIZE PUSH1 0x0 REVERT JUMPDEST POP POP POP POP PUSH1 0xB PUSH1 0x0 SWAP1 SLOAD SWAP1 PUSH2 0x100 EXP SWAP1 DIV PUSH20 0xFFFFFFFFFFFFFFFFFFFFFFFFFFFFFFFFFFFFFFFF AND PUSH20 0xFFFFFFFFFFFFFFFFFFFFFFFFFFFFFFFFFFFFFFFF AND PUSH4 0x23B872DD CALLER ADDRESS DUP5 PUSH1 0x40 MLOAD DUP5 PUSH4 0xFFFFFFFF AND PUSH1 0xE0 SHL DUP2 MSTORE PUSH1 0x4 ADD PUSH2 0x1845 SWAP4 SWAP3 SWAP2 SWAP1 PUSH2 0x226E JUMP JUMPDEST PUSH1 0x0 PUSH1 0x40 MLOAD DUP1 DUP4 SUB DUP2 PUSH1 0x0 DUP8 DUP1 EXTCODESIZE ISZERO DUP1 ISZERO PUSH2 0x185F JUMPI PUSH1 0x0 DUP1 REVERT JUMPDEST POP GAS CALL ISZERO DUP1 ISZERO PUSH2 0x1873 JUMPI RETURNDATASIZE PUSH1 0x0 DUP1 RETURNDATACOPY RETURNDATASIZE PUSH1 0x0 REVERT JUMPDEST POP POP POP POP POP JUMP JUMPDEST PUSH1 0x0 DUP2 PUSH1 0x0 ADD SLOAD SWAP1 POP SWAP2 SWAP1 POP JUMP JUMPDEST PUSH1 0x1 DUP2 PUSH1 0x0 ADD PUSH1 0x0 DUP3 DUP3 SLOAD ADD SWAP3 POP POP DUP2 SWAP1 SSTORE POP POP JUMP JUMPDEST PUSH1 0x0 PUSH1 0xC PUSH1 0x0 SWAP1 SLOAD SWAP1 PUSH2 0x100 EXP SWAP1 DIV PUSH20 0xFFFFFFFFFFFFFFFFFFFFFFFFFFFFFFFFFFFFFFFF AND SWAP1 POP DUP2 PUSH1 0xC PUSH1 0x0 PUSH2 0x100 EXP DUP2 SLOAD DUP2 PUSH20 0xFFFFFFFFFFFFFFFFFFFFFFFFFFFFFFFFFFFFFFFF MUL NOT AND SWAP1 DUP4 PUSH20 0xFFFFFFFFFFFFFFFFFFFFFFFFFFFFFFFFFFFFFFFF AND MUL OR SWAP1 SSTORE POP DUP2 PUSH20 0xFFFFFFFFFFFFFFFFFFFFFFFFFFFFFFFFFFFFFFFF AND DUP2 PUSH20 0xFFFFFFFFFFFFFFFFFFFFFFFFFFFFFFFFFFFFFFFF AND PUSH32 0x8BE0079C531659141344CD1FD0A4F28419497F9722A3DAAFE3B4186F6B6457E0 PUSH1 0x40 MLOAD PUSH1 0x40 MLOAD DUP1 SWAP2 SUB SWAP1 LOG3 POP POP JUMP JUMPDEST PUSH1 0x9 PUSH1 0x0 SWAP1 SLOAD SWAP1 PUSH2 0x100 EXP SWAP1 DIV PUSH20 0xFFFFFFFFFFFFFFFFFFFFFFFFFFFFFFFFFFFFFFFF AND PUSH20 0xFFFFFFFFFFFFFFFFFFFFFFFFFFFFFFFFFFFFFFFF AND PUSH4 0x23B872DD CALLER PUSH1 0xF PUSH1 0x0 DUP8 DUP2 MSTORE PUSH1 0x20 ADD SWAP1 DUP2 MSTORE PUSH1 0x20 ADD PUSH1 0x0 KECCAK256 PUSH1 0x2 ADD PUSH1 0x0 SWAP1 SLOAD SWAP1 PUSH2 0x100 EXP SWAP1 DIV PUSH20 0xFFFFFFFFFFFFFFFFFFFFFFFFFFFFFFFFFFFFFFFF AND DUP6 PUSH1 0x40 MLOAD DUP5 PUSH4 0xFFFFFFFF AND PUSH1 0xE0 SHL DUP2 MSTORE PUSH1 0x4 ADD PUSH2 0x19F9 SWAP4 SWAP3 SWAP2 SWAP1 PUSH2 0x226E JUMP JUMPDEST PUSH1 0x20 PUSH1 0x40 MLOAD DUP1 DUP4 SUB DUP2 PUSH1 0x0 DUP8 GAS CALL ISZERO DUP1 ISZERO PUSH2 0x1A18 JUMPI RETURNDATASIZE PUSH1 0x0 DUP1 RETURNDATACOPY RETURNDATASIZE PUSH1 0x0 REVERT JUMPDEST POP POP POP POP PUSH1 0x40 MLOAD RETURNDATASIZE PUSH1 0x1F NOT PUSH1 0x1F DUP3 ADD AND DUP3 ADD DUP1 PUSH1 0x40 MSTORE POP DUP2 ADD SWAP1 PUSH2 0x1A3C SWAP2 SWAP1 PUSH2 0x298E JUMP JUMPDEST POP PUSH1 0xA PUSH1 0x0 SWAP1 SLOAD SWAP1 PUSH2 0x100 EXP SWAP1 DIV PUSH20 0xFFFFFFFFFFFFFFFFFFFFFFFFFFFFFFFFFFFFFFFF AND PUSH20 0xFFFFFFFFFFFFFFFFFFFFFFFFFFFFFFFFFFFFFFFF AND PUSH4 0xC1E9518A CALLER ADDRESS DUP5 PUSH1 0x40 MLOAD DUP5 PUSH4 0xFFFFFFFF AND PUSH1 0xE0 SHL DUP2 MSTORE PUSH1 0x4 ADD PUSH2 0x1A9C SWAP4 SWAP3 SWAP2 SWAP1 PUSH2 0x226E JUMP JUMPDEST PUSH1 0x0 PUSH1 0x40 MLOAD DUP1 DUP4 SUB DUP2 PUSH1 0x0 DUP8 DUP1 EXTCODESIZE ISZERO DUP1 ISZERO PUSH2 0x1AB6 JUMPI PUSH1 0x0 DUP1 REVERT JUMPDEST POP GAS CALL ISZERO DUP1 ISZERO PUSH2 0x1ACA JUMPI RETURNDATASIZE PUSH1 0x0 DUP1 RETURNDATACOPY RETURNDATASIZE PUSH1 0x0 REVERT JUMPDEST POP POP POP POP PUSH1 0xB PUSH1 0x0 SWAP1 SLOAD SWAP1 PUSH2 0x100 EXP SWAP1 DIV PUSH20 0xFFFFFFFFFFFFFFFFFFFFFFFFFFFFFFFFFFFFFFFF AND PUSH20 0xFFFFFFFFFFFFFFFFFFFFFFFFFFFFFFFFFFFFFFFF AND PUSH4 0x23B872DD ADDRESS CALLER DUP5 PUSH1 0x40 MLOAD DUP5 PUSH4 0xFFFFFFFF AND PUSH1 0xE0 SHL DUP2 MSTORE PUSH1 0x4 ADD PUSH2 0x1B2D SWAP4 SWAP3 SWAP2 SWAP1 PUSH2 0x226E JUMP JUMPDEST PUSH1 0x0 PUSH1 0x40 MLOAD DUP1 DUP4 SUB DUP2 PUSH1 0x0 DUP8 DUP1 EXTCODESIZE ISZERO DUP1 ISZERO PUSH2 0x1B47 JUMPI PUSH1 0x0 DUP1 REVERT JUMPDEST POP GAS CALL ISZERO DUP1 ISZERO PUSH2 0x1B5B JUMPI RETURNDATASIZE PUSH1 0x0 DUP1 RETURNDATACOPY RETURNDATASIZE PUSH1 0x0 REVERT JUMPDEST POP POP POP POP POP POP POP JUMP JUMPDEST PUSH1 0x40 MLOAD DUP1 PUSH1 0xC0 ADD PUSH1 0x40 MSTORE DUP1 PUSH1 0x0 DUP2 MSTORE PUSH1 0x20 ADD PUSH1 0x0 DUP2 MSTORE PUSH1 0x20 ADD PUSH1 0x0 PUSH20 0xFFFFFFFFFFFFFFFFFFFFFFFFFFFFFFFFFFFFFFFF AND DUP2 MSTORE PUSH1 0x20 ADD PUSH1 0x0 PUSH20 0xFFFFFFFFFFFFFFFFFFFFFFFFFFFFFFFFFFFFFFFF AND DUP2 MSTORE PUSH1 0x20 ADD PUSH1 0x0 DUP2 MSTORE PUSH1 0x20 ADD PUSH1 0x0 PUSH1 0x1 DUP2 GT ISZERO PUSH2 0x1BD2 JUMPI PUSH2 0x1BD1 PUSH2 0x1E08 JUMP JUMPDEST JUMPDEST DUP2 MSTORE POP SWAP1 JUMP JUMPDEST PUSH1 0x0 PUSH1 0x40 MLOAD SWAP1 POP SWAP1 JUMP JUMPDEST PUSH1 0x0 DUP1 REVERT JUMPDEST PUSH1 0x0 DUP1 REVERT JUMPDEST PUSH1 0x0 DUP2 SWAP1 POP SWAP2 SWAP1 POP JUMP JUMPDEST PUSH2 0x1BFF DUP2 PUSH2 0x1BEC JUMP JUMPDEST DUP2 EQ PUSH2 0x1C0A JUMPI PUSH1 0x0 DUP1 REVERT JUMPDEST POP JUMP JUMPDEST PUSH1 0x0 DUP2 CALLDATALOAD SWAP1 POP PUSH2 0x1C1C DUP2 PUSH2 0x1BF6 JUMP JUMPDEST SWAP3 SWAP2 POP POP JUMP JUMPDEST PUSH1 0x0 PUSH1 0x20 DUP3 DUP5 SUB SLT ISZERO PUSH2 0x1C38 JUMPI PUSH2 0x1C37 PUSH2 0x1BE2 JUMP JUMPDEST JUMPDEST PUSH1 0x0 PUSH2 0x1C46 DUP5 DUP3 DUP6 ADD PUSH2 0x1C0D JUMP JUMPDEST SWAP2 POP POP SWAP3 SWAP2 POP POP JUMP JUMPDEST PUSH1 0x0 PUSH20 0xFFFFFFFFFFFFFFFFFFFFFFFFFFFFFFFFFFFFFFFF DUP3 AND SWAP1 POP SWAP2 SWAP1 POP JUMP JUMPDEST PUSH1 0x0 PUSH2 0x1C7A DUP3 PUSH2 0x1C4F JUMP JUMPDEST SWAP1 POP SWAP2 SWAP1 POP JUMP JUMPDEST PUSH2 0x1C8A DUP2 PUSH2 0x1C6F JUMP JUMPDEST DUP2 EQ PUSH2 0x1C95 JUMPI PUSH1 0x0 DUP1 REVERT JUMPDEST POP JUMP JUMPDEST PUSH1 0x0 DUP2 CALLDATALOAD SWAP1 POP PUSH2 0x1CA7 DUP2 PUSH2 0x1C81 JUMP JUMPDEST SWAP3 SWAP2 POP POP JUMP JUMPDEST PUSH1 0x0 PUSH1 0x20 DUP3 DUP5 SUB SLT ISZERO PUSH2 0x1CC3 JUMPI PUSH2 0x1CC2 PUSH2 0x1BE2 JUMP JUMPDEST JUMPDEST PUSH1 0x0 PUSH2 0x1CD1 DUP5 DUP3 DUP6 ADD PUSH2 0x1C98 JUMP JUMPDEST SWAP2 POP POP SWAP3 SWAP2 POP POP JUMP JUMPDEST PUSH1 0x0 PUSH32 0xFFFFFFFF00000000000000000000000000000000000000000000000000000000 DUP3 AND SWAP1 POP SWAP2 SWAP1 POP JUMP JUMPDEST PUSH2 0x1D0F DUP2 PUSH2 0x1CDA JUMP JUMPDEST DUP3 MSTORE POP POP JUMP JUMPDEST PUSH1 0x0 PUSH1 0x20 DUP3 ADD SWAP1 POP PUSH2 0x1D2A PUSH1 0x0 DUP4 ADD DUP5 PUSH2 0x1D06 JUMP JUMPDEST SWAP3 SWAP2 POP POP JUMP JUMPDEST PUSH1 0x0 DUP1 PUSH1 0x40 DUP4 DUP6 SUB SLT ISZERO PUSH2 0x1D47 JUMPI PUSH2 0x1D46 PUSH2 0x1BE2 JUMP JUMPDEST JUMPDEST PUSH1 0x0 PUSH2 0x1D55 DUP6 DUP3 DUP7 ADD PUSH2 0x1C0D JUMP JUMPDEST SWAP3 POP POP PUSH1 0x20 PUSH2 0x1D66 DUP6 DUP3 DUP7 ADD PUSH2 0x1C0D JUMP JUMPDEST SWAP2 POP POP SWAP3 POP SWAP3 SWAP1 POP JUMP JUMPDEST PUSH1 0x0 DUP2 SWAP1 POP SWAP2 SWAP1 POP JUMP JUMPDEST PUSH1 0x0 PUSH2 0x1D95 PUSH2 0x1D90 PUSH2 0x1D8B DUP5 PUSH2 0x1C4F JUMP JUMPDEST PUSH2 0x1D70 JUMP JUMPDEST PUSH2 0x1C4F JUMP JUMPDEST SWAP1 POP SWAP2 SWAP1 POP JUMP JUMPDEST PUSH1 0x0 PUSH2 0x1DA7 DUP3 PUSH2 0x1D7A JUMP JUMPDEST SWAP1 POP SWAP2 SWAP1 POP JUMP JUMPDEST PUSH1 0x0 PUSH2 0x1DB9 DUP3 PUSH2 0x1D9C JUMP JUMPDEST SWAP1 POP SWAP2 SWAP1 POP JUMP JUMPDEST PUSH2 0x1DC9 DUP2 PUSH2 0x1DAE JUMP JUMPDEST DUP3 MSTORE POP POP JUMP JUMPDEST PUSH1 0x0 PUSH1 0x20 DUP3 ADD SWAP1 POP PUSH2 0x1DE4 PUSH1 0x0 DUP4 ADD DUP5 PUSH2 0x1DC0 JUMP JUMPDEST SWAP3 SWAP2 POP POP JUMP JUMPDEST PUSH2 0x1DF3 DUP2 PUSH2 0x1BEC JUMP JUMPDEST DUP3 MSTORE POP POP JUMP JUMPDEST PUSH2 0x1E02 DUP2 PUSH2 0x1C6F JUMP JUMPDEST DUP3 MSTORE POP POP JUMP JUMPDEST PUSH32 0x4E487B7100000000000000000000000000000000000000000000000000000000 PUSH1 0x0 MSTORE PUSH1 0x21 PUSH1 0x4 MSTORE PUSH1 0x24 PUSH1 0x0 REVERT JUMPDEST PUSH1 0x2 DUP2 LT PUSH2 0x1E48 JUMPI PUSH2 0x1E47 PUSH2 0x1E08 JUMP JUMPDEST JUMPDEST POP JUMP JUMPDEST PUSH1 0x0 DUP2 SWAP1 POP PUSH2 0x1E59 DUP3 PUSH2 0x1E37 JUMP JUMPDEST SWAP2 SWAP1 POP JUMP JUMPDEST PUSH1 0x0 PUSH2 0x1E69 DUP3 PUSH2 0x1E4B JUMP JUMPDEST SWAP1 POP SWAP2 SWAP1 POP JUMP JUMPDEST PUSH2 0x1E79 DUP2 PUSH2 0x1E5E JUMP JUMPDEST DUP3 MSTORE POP POP JUMP JUMPDEST PUSH1 0x0 PUSH1 0xC0 DUP3 ADD SWAP1 POP PUSH2 0x1E94 PUSH1 0x0 DUP4 ADD DUP10 PUSH2 0x1DEA JUMP JUMPDEST PUSH2 0x1EA1 PUSH1 0x20 DUP4 ADD DUP9 PUSH2 0x1DEA JUMP JUMPDEST PUSH2 0x1EAE PUSH1 0x40 DUP4 ADD DUP8 PUSH2 0x1DF9 JUMP JUMPDEST PUSH2 0x1EBB PUSH1 0x60 DUP4 ADD DUP7 PUSH2 0x1DF9 JUMP JUMPDEST PUSH2 0x1EC8 PUSH1 0x80 DUP4 ADD DUP6 PUSH2 0x1DEA JUMP JUMPDEST PUSH2 0x1ED5 PUSH1 0xA0 DUP4 ADD DUP5 PUSH2 0x1E70 JUMP JUMPDEST SWAP8 SWAP7 POP POP POP POP POP POP POP JUMP JUMPDEST PUSH1 0x0 DUP1 PUSH1 0x40 DUP4 DUP6 SUB SLT ISZERO PUSH2 0x1EF7 JUMPI PUSH2 0x1EF6 PUSH2 0x1BE2 JUMP JUMPDEST JUMPDEST PUSH1 0x0 PUSH2 0x1F05 DUP6 DUP3 DUP7 ADD PUSH2 0x1C98 JUMP JUMPDEST SWAP3 POP POP PUSH1 0x20 PUSH2 0x1F16 DUP6 DUP3 DUP7 ADD PUSH2 0x1C0D JUMP JUMPDEST SWAP2 POP POP SWAP3 POP SWAP3 SWAP1 POP JUMP JUMPDEST PUSH1 0x0 PUSH1 0xFF DUP3 AND SWAP1 POP SWAP2 SWAP1 POP JUMP JUMPDEST PUSH2 0x1F36 DUP2 PUSH2 0x1F20 JUMP JUMPDEST DUP3 MSTORE POP POP JUMP JUMPDEST PUSH1 0x0 PUSH1 0x20 DUP3 ADD SWAP1 POP PUSH2 0x1F51 PUSH1 0x0 DUP4 ADD DUP5 PUSH2 0x1F2D JUMP JUMPDEST SWAP3 SWAP2 POP POP JUMP JUMPDEST PUSH1 0x0 PUSH1 0x20 DUP3 ADD SWAP1 POP PUSH2 0x1F6C PUSH1 0x0 DUP4 ADD DUP5 PUSH2 0x1DF9 JUMP JUMPDEST SWAP3 SWAP2 POP POP JUMP JUMPDEST PUSH1 0x0 PUSH2 0x1F7D DUP3 PUSH2 0x1D9C JUMP JUMPDEST SWAP1 POP SWAP2 SWAP1 POP JUMP JUMPDEST PUSH2 0x1F8D DUP2 PUSH2 0x1F72 JUMP JUMPDEST DUP3 MSTORE POP POP JUMP JUMPDEST PUSH1 0x0 PUSH1 0x20 DUP3 ADD SWAP1 POP PUSH2 0x1FA8 PUSH1 0x0 DUP4 ADD DUP5 PUSH2 0x1F84 JUMP JUMPDEST SWAP3 SWAP2 POP POP JUMP JUMPDEST PUSH2 0x1FB7 DUP2 PUSH2 0x1BEC JUMP JUMPDEST DUP3 MSTORE POP POP JUMP JUMPDEST PUSH2 0x1FC6 DUP2 PUSH2 0x1C6F JUMP JUMPDEST DUP3 MSTORE POP POP JUMP JUMPDEST PUSH2 0x1FD5 DUP2 PUSH2 0x1E5E JUMP JUMPDEST DUP3 MSTORE POP POP JUMP JUMPDEST PUSH1 0xC0 DUP3 ADD PUSH1 0x0 DUP3 ADD MLOAD PUSH2 0x1FF1 PUSH1 0x0 DUP6 ADD DUP3 PUSH2 0x1FAE JUMP JUMPDEST POP PUSH1 0x20 DUP3 ADD MLOAD PUSH2 0x2004 PUSH1 0x20 DUP6 ADD DUP3 PUSH2 0x1FAE JUMP JUMPDEST POP PUSH1 0x40 DUP3 ADD MLOAD PUSH2 0x2017 PUSH1 0x40 DUP6 ADD DUP3 PUSH2 0x1FBD JUMP JUMPDEST POP PUSH1 0x60 DUP3 ADD MLOAD PUSH2 0x202A PUSH1 0x60 DUP6 ADD DUP3 PUSH2 0x1FBD JUMP JUMPDEST POP PUSH1 0x80 DUP3 ADD MLOAD PUSH2 0x203D PUSH1 0x80 DUP6 ADD DUP3 PUSH2 0x1FAE JUMP JUMPDEST POP PUSH1 0xA0 DUP3 ADD MLOAD PUSH2 0x2050 PUSH1 0xA0 DUP6 ADD DUP3 PUSH2 0x1FCC JUMP JUMPDEST POP POP POP POP JUMP JUMPDEST PUSH1 0x0 PUSH1 0xC0 DUP3 ADD SWAP1 POP PUSH2 0x206B PUSH1 0x0 DUP4 ADD DUP5 PUSH2 0x1FDB JUMP JUMPDEST SWAP3 SWAP2 POP POP JUMP JUMPDEST PUSH1 0x0 PUSH2 0x207C DUP3 PUSH2 0x1D9C JUMP JUMPDEST SWAP1 POP SWAP2 SWAP1 POP JUMP JUMPDEST PUSH2 0x208C DUP2 PUSH2 0x2071 JUMP JUMPDEST DUP3 MSTORE POP POP JUMP JUMPDEST PUSH1 0x0 PUSH1 0x20 DUP3 ADD SWAP1 POP PUSH2 0x20A7 PUSH1 0x0 DUP4 ADD DUP5 PUSH2 0x2083 JUMP JUMPDEST SWAP3 SWAP2 POP POP JUMP JUMPDEST PUSH1 0x0 DUP3 DUP3 MSTORE PUSH1 0x20 DUP3 ADD SWAP1 POP SWAP3 SWAP2 POP POP JUMP JUMPDEST PUSH32 0x4173736574206E6F74207075626C697368656400000000000000000000000000 PUSH1 0x0 DUP3 ADD MSTORE POP JUMP JUMPDEST PUSH1 0x0 PUSH2 0x20F4 PUSH1 0x13 DUP4 PUSH2 0x20AD JUMP JUMPDEST SWAP2 POP PUSH2 0x20FF DUP3 PUSH2 0x20BE JUMP JUMPDEST PUSH1 0x20 DUP3 ADD SWAP1 POP SWAP2 SWAP1 POP JUMP JUMPDEST PUSH1 0x0 PUSH1 0x20 DUP3 ADD SWAP1 POP DUP2 DUP2 SUB PUSH1 0x0 DUP4 ADD MSTORE PUSH2 0x2123 DUP2 PUSH2 0x20E7 JUMP JUMPDEST SWAP1 POP SWAP2 SWAP1 POP JUMP JUMPDEST PUSH32 0x41737365742064656C6973746564000000000000000000000000000000000000 PUSH1 0x0 DUP3 ADD MSTORE POP JUMP JUMPDEST PUSH1 0x0 PUSH2 0x2160 PUSH1 0xE DUP4 PUSH2 0x20AD JUMP JUMPDEST SWAP2 POP PUSH2 0x216B DUP3 PUSH2 0x212A JUMP JUMPDEST PUSH1 0x20 DUP3 ADD SWAP1 POP SWAP2 SWAP1 POP JUMP JUMPDEST PUSH1 0x0 PUSH1 0x20 DUP3 ADD SWAP1 POP DUP2 DUP2 SUB PUSH1 0x0 DUP4 ADD MSTORE PUSH2 0x218F DUP2 PUSH2 0x2153 JUMP JUMPDEST SWAP1 POP SWAP2 SWAP1 POP JUMP JUMPDEST PUSH32 0x496E76616C696420616464726573730000000000000000000000000000000000 PUSH1 0x0 DUP3 ADD MSTORE POP JUMP JUMPDEST PUSH1 0x0 PUSH2 0x21CC PUSH1 0xF DUP4 PUSH2 0x20AD JUMP JUMPDEST SWAP2 POP PUSH2 0x21D7 DUP3 PUSH2 0x2196 JUMP JUMPDEST PUSH1 0x20 DUP3 ADD SWAP1 POP SWAP2 SWAP1 POP JUMP JUMPDEST PUSH1 0x0 PUSH1 0x20 DUP3 ADD SWAP1 POP DUP2 DUP2 SUB PUSH1 0x0 DUP4 ADD MSTORE PUSH2 0x21FB DUP2 PUSH2 0x21BF JUMP JUMPDEST SWAP1 POP SWAP2 SWAP1 POP JUMP JUMPDEST PUSH32 0x4F6E6C792073656C6C65722063616E2064656C69737400000000000000000000 PUSH1 0x0 DUP3 ADD MSTORE POP JUMP JUMPDEST PUSH1 0x0 PUSH2 0x2238 PUSH1 0x16 DUP4 PUSH2 0x20AD JUMP JUMPDEST SWAP2 POP PUSH2 0x2243 DUP3 PUSH2 0x2202 JUMP JUMPDEST PUSH1 0x20 DUP3 ADD SWAP1 POP SWAP2 SWAP1 POP JUMP JUMPDEST PUSH1 0x0 PUSH1 0x20 DUP3 ADD SWAP1 POP DUP2 DUP2 SUB PUSH1 0x0 DUP4 ADD MSTORE PUSH2 0x2267 DUP2 PUSH2 0x222B JUMP JUMPDEST SWAP1 POP SWAP2 SWAP1 POP JUMP JUMPDEST PUSH1 0x0 PUSH1 0x60 DUP3 ADD SWAP1 POP PUSH2 0x2283 PUSH1 0x0 DUP4 ADD DUP7 PUSH2 0x1DF9 JUMP JUMPDEST PUSH2 0x2290 PUSH1 0x20 DUP4 ADD DUP6 PUSH2 0x1DF9 JUMP JUMPDEST PUSH2 0x229D PUSH1 0x40 DUP4 ADD DUP5 PUSH2 0x1DEA JUMP JUMPDEST SWAP5 SWAP4 POP POP POP POP JUMP JUMPDEST PUSH1 0x0 PUSH1 0x40 DUP3 ADD SWAP1 POP PUSH2 0x22BA PUSH1 0x0 DUP4 ADD DUP6 PUSH2 0x1DEA JUMP JUMPDEST PUSH2 0x22C7 PUSH1 0x20 DUP4 ADD DUP5 PUSH2 0x1DEA JUMP JUMPDEST SWAP4 SWAP3 POP POP POP JUMP JUMPDEST PUSH32 0x4F776E61626C653A2063616C6C6572206973206E6F7420746865206F776E6572 PUSH1 0x0 DUP3 ADD MSTORE POP JUMP JUMPDEST PUSH1 0x0 PUSH2 0x2304 PUSH1 0x20 DUP4 PUSH2 0x20AD JUMP JUMPDEST SWAP2 POP PUSH2 0x230F DUP3 PUSH2 0x22CE JUMP JUMPDEST PUSH1 0x20 DUP3 ADD SWAP1 POP SWAP2 SWAP1 POP JUMP JUMPDEST PUSH1 0x0 PUSH1 0x20 DUP3 ADD SWAP1 POP DUP2 DUP2 SUB PUSH1 0x0 DUP4 ADD MSTORE PUSH2 0x2333 DUP2 PUSH2 0x22F7 JUMP JUMPDEST SWAP1 POP SWAP2 SWAP1 POP JUMP JUMPDEST PUSH32 0x5265656E7472616E637947756172643A207265656E7472616E742063616C6C00 PUSH1 0x0 DUP3 ADD MSTORE POP JUMP JUMPDEST PUSH1 0x0 PUSH2 0x2370 PUSH1 0x1F DUP4 PUSH2 0x20AD JUMP JUMPDEST SWAP2 POP PUSH2 0x237B DUP3 PUSH2 0x233A JUMP JUMPDEST PUSH1 0x20 DUP3 ADD SWAP1 POP SWAP2 SWAP1 POP JUMP JUMPDEST PUSH1 0x0 PUSH1 0x20 DUP3 ADD SWAP1 POP DUP2 DUP2 SUB PUSH1 0x0 DUP4 ADD MSTORE PUSH2 0x239F DUP2 PUSH2 0x2363 JUMP JUMPDEST SWAP1 POP SWAP2 SWAP1 POP JUMP JUMPDEST PUSH32 0x5072696365206D757374206265206174206C6561737420312077656900000000 PUSH1 0x0 DUP3 ADD MSTORE POP JUMP JUMPDEST PUSH1 0x0 PUSH2 0x23DC PUSH1 0x1C DUP4 PUSH2 0x20AD JUMP JUMPDEST SWAP2 POP PUSH2 0x23E7 DUP3 PUSH2 0x23A6 JUMP JUMPDEST PUSH1 0x20 DUP3 ADD SWAP1 POP SWAP2 SWAP1 POP JUMP JUMPDEST PUSH1 0x0 PUSH1 0x20 DUP3 ADD SWAP1 POP DUP2 DUP2 SUB PUSH1 0x0 DUP4 ADD MSTORE PUSH2 0x240B DUP2 PUSH2 0x23CF JUMP JUMPDEST SWAP1 POP SWAP2 SWAP1 POP JUMP JUMPDEST PUSH1 0x0 PUSH1 0x20 DUP3 ADD SWAP1 POP PUSH2 0x2427 PUSH1 0x0 DUP4 ADD DUP5 PUSH2 0x1DEA JUMP JUMPDEST SWAP3 SWAP2 POP POP JUMP JUMPDEST PUSH1 0x0 DUP1 REVERT JUMPDEST PUSH1 0x0 PUSH1 0x1F NOT PUSH1 0x1F DUP4 ADD AND SWAP1 POP SWAP2 SWAP1 POP JUMP JUMPDEST PUSH32 0x4E487B7100000000000000000000000000000000000000000000000000000000 PUSH1 0x0 MSTORE PUSH1 0x41 PUSH1 0x4 MSTORE PUSH1 0x24 PUSH1 0x0 REVERT JUMPDEST PUSH2 0x247B DUP3 PUSH2 0x2432 JUMP JUMPDEST DUP2 ADD DUP2 DUP2 LT PUSH8 0xFFFFFFFFFFFFFFFF DUP3 GT OR ISZERO PUSH2 0x249A JUMPI PUSH2 0x2499 PUSH2 0x2443 JUMP JUMPDEST JUMPDEST DUP1 PUSH1 0x40 MSTORE POP POP POP JUMP JUMPDEST PUSH1 0x0 PUSH2 0x24AD PUSH2 0x1BD8 JUMP JUMPDEST SWAP1 POP PUSH2 0x24B9 DUP3 DUP3 PUSH2 0x2472 JUMP JUMPDEST SWAP2 SWAP1 POP JUMP JUMPDEST PUSH1 0x0 DUP1 REVERT JUMPDEST PUSH1 0x0 DUP2 MLOAD SWAP1 POP PUSH2 0x24D2 DUP2 PUSH2 0x1BF6 JUMP JUMPDEST SWAP3 SWAP2 POP POP JUMP JUMPDEST PUSH1 0x0 DUP2 MLOAD SWAP1 POP PUSH2 0x24E7 DUP2 PUSH2 0x1C81 JUMP JUMPDEST SWAP3 SWAP2 POP POP JUMP JUMPDEST PUSH1 0x0 DUP1 REVERT JUMPDEST PUSH1 0x0 DUP1 REVERT JUMPDEST PUSH1 0x0 PUSH8 0xFFFFFFFFFFFFFFFF DUP3 GT ISZERO PUSH2 0x2512 JUMPI PUSH2 0x2511 PUSH2 0x2443 JUMP JUMPDEST JUMPDEST PUSH2 0x251B DUP3 PUSH2 0x2432 JUMP JUMPDEST SWAP1 POP PUSH1 0x20 DUP2 ADD SWAP1 POP SWAP2 SWAP1 POP JUMP JUMPDEST PUSH1 0x0 JUMPDEST DUP4 DUP2 LT ISZERO PUSH2 0x2546 JUMPI DUP1 DUP3 ADD MLOAD DUP2 DUP5 ADD MSTORE PUSH1 0x20 DUP2 ADD SWAP1 POP PUSH2 0x252B JUMP JUMPDEST DUP4 DUP2 GT ISZERO PUSH2 0x2555 JUMPI PUSH1 0x0 DUP5 DUP5 ADD MSTORE JUMPDEST POP POP POP POP JUMP JUMPDEST PUSH1 0x0 PUSH2 0x256E PUSH2 0x2569 DUP5 PUSH2 0x24F7 JUMP JUMPDEST PUSH2 0x24A3 JUMP JUMPDEST SWAP1 POP DUP3 DUP2 MSTORE PUSH1 0x20 DUP2 ADD DUP5 DUP5 DUP5 ADD GT ISZERO PUSH2 0x258A JUMPI PUSH2 0x2589 PUSH2 0x24F2 JUMP JUMPDEST JUMPDEST PUSH2 0x2595 DUP5 DUP3 DUP6 PUSH2 0x2528 JUMP JUMPDEST POP SWAP4 SWAP3 POP POP POP JUMP JUMPDEST PUSH1 0x0 DUP3 PUSH1 0x1F DUP4 ADD SLT PUSH2 0x25B2 JUMPI PUSH2 0x25B1 PUSH2 0x24ED JUMP JUMPDEST JUMPDEST DUP2 MLOAD PUSH2 0x25C2 DUP5 DUP3 PUSH1 0x20 DUP7 ADD PUSH2 0x255B JUMP JUMPDEST SWAP2 POP POP SWAP3 SWAP2 POP POP JUMP JUMPDEST PUSH1 0x0 DUP2 ISZERO ISZERO SWAP1 POP SWAP2 SWAP1 POP JUMP JUMPDEST PUSH2 0x25E0 DUP2 PUSH2 0x25CB JUMP JUMPDEST DUP2 EQ PUSH2 0x25EB JUMPI PUSH1 0x0 DUP1 REVERT JUMPDEST POP JUMP JUMPDEST PUSH1 0x0 DUP2 MLOAD SWAP1 POP PUSH2 0x25FD DUP2 PUSH2 0x25D7 JUMP JUMPDEST SWAP3 SWAP2 POP POP JUMP JUMPDEST PUSH1 0x0 PUSH1 0xA0 DUP3 DUP5 SUB SLT ISZERO PUSH2 0x2619 JUMPI PUSH2 0x2618 PUSH2 0x242D JUMP JUMPDEST JUMPDEST PUSH2 0x2623 PUSH1 0xA0 PUSH2 0x24A3 JUMP JUMPDEST SWAP1 POP PUSH1 0x0 PUSH2 0x2633 DUP5 DUP3 DUP6 ADD PUSH2 0x24C3 JUMP JUMPDEST PUSH1 0x0 DUP4 ADD MSTORE POP PUSH1 0x20 PUSH2 0x2647 DUP5 DUP3 DUP6 ADD PUSH2 0x24D8 JUMP JUMPDEST PUSH1 0x20 DUP4 ADD MSTORE POP PUSH1 0x40 DUP3 ADD MLOAD PUSH8 0xFFFFFFFFFFFFFFFF DUP2 GT ISZERO PUSH2 0x266B JUMPI PUSH2 0x266A PUSH2 0x24BE JUMP JUMPDEST JUMPDEST PUSH2 0x2677 DUP5 DUP3 DUP6 ADD PUSH2 0x259D JUMP JUMPDEST PUSH1 0x40 DUP4 ADD MSTORE POP PUSH1 0x60 DUP3 ADD MLOAD PUSH8 0xFFFFFFFFFFFFFFFF DUP2 GT ISZERO PUSH2 0x269B JUMPI PUSH2 0x269A PUSH2 0x24BE JUMP JUMPDEST JUMPDEST PUSH2 0x26A7 DUP5 DUP3 DUP6 ADD PUSH2 0x259D JUMP JUMPDEST PUSH1 0x60 DUP4 ADD MSTORE POP PUSH1 0x80 PUSH2 0x26BB DUP5 DUP3 DUP6 ADD PUSH2 0x25EE JUMP JUMPDEST PUSH1 0x80 DUP4 ADD MSTORE POP SWAP3 SWAP2 POP POP JUMP JUMPDEST PUSH1 0x0 PUSH1 0x20 DUP3 DUP5 SUB SLT ISZERO PUSH2 0x26DD JUMPI PUSH2 0x26DC PUSH2 0x1BE2 JUMP JUMPDEST JUMPDEST PUSH1 0x0 DUP3 ADD MLOAD PUSH8 0xFFFFFFFFFFFFFFFF DUP2 GT ISZERO PUSH2 0x26FB JUMPI PUSH2 0x26FA PUSH2 0x1BE7 JUMP JUMPDEST JUMPDEST PUSH2 0x2707 DUP5 DUP3 DUP6 ADD PUSH2 0x2603 JUMP JUMPDEST SWAP2 POP POP SWAP3 SWAP2 POP POP JUMP JUMPDEST PUSH32 0x4974656D206973206E6F7420617661696C61626C65206E6F7720210000000000 PUSH1 0x0 DUP3 ADD MSTORE POP JUMP JUMPDEST PUSH1 0x0 PUSH2 0x2746 PUSH1 0x1B DUP4 PUSH2 0x20AD JUMP JUMPDEST SWAP2 POP PUSH2 0x2751 DUP3 PUSH2 0x2710 JUMP JUMPDEST PUSH1 0x20 DUP3 ADD SWAP1 POP SWAP2 SWAP1 POP JUMP JUMPDEST PUSH1 0x0 PUSH1 0x20 DUP3 ADD SWAP1 POP DUP2 DUP2 SUB PUSH1 0x0 DUP4 ADD MSTORE PUSH2 0x2775 DUP2 PUSH2 0x2739 JUMP JUMPDEST SWAP1 POP SWAP2 SWAP1 POP JUMP JUMPDEST PUSH1 0x0 PUSH2 0x2787 DUP3 PUSH2 0x1D9C JUMP JUMPDEST SWAP1 POP SWAP2 SWAP1 POP JUMP JUMPDEST PUSH2 0x2797 DUP2 PUSH2 0x277C JUMP JUMPDEST DUP3 MSTORE POP POP JUMP JUMPDEST PUSH1 0x0 PUSH1 0x60 DUP3 ADD SWAP1 POP PUSH2 0x27B2 PUSH1 0x0 DUP4 ADD DUP7 PUSH2 0x278E JUMP JUMPDEST PUSH2 0x27BF PUSH1 0x20 DUP4 ADD DUP6 PUSH2 0x1DF9 JUMP JUMPDEST PUSH2 0x27CC PUSH1 0x40 DUP4 ADD DUP5 PUSH2 0x1DEA JUMP JUMPDEST SWAP5 SWAP4 POP POP POP POP JUMP JUMPDEST PUSH32 0x506C65617365207375626D6974207468652061736B696E672070726963652069 PUSH1 0x0 DUP3 ADD MSTORE PUSH32 0x6E206F7264657220746F20636F6D706C65746520746865207075726368617365 PUSH1 0x20 DUP3 ADD MSTORE POP JUMP JUMPDEST PUSH1 0x0 PUSH2 0x2830 PUSH1 0x40 DUP4 PUSH2 0x20AD JUMP JUMPDEST SWAP2 POP PUSH2 0x283B DUP3 PUSH2 0x27D4 JUMP JUMPDEST PUSH1 0x40 DUP3 ADD SWAP1 POP SWAP2 SWAP1 POP JUMP JUMPDEST PUSH1 0x0 PUSH1 0x20 DUP3 ADD SWAP1 POP DUP2 DUP2 SUB PUSH1 0x0 DUP4 ADD MSTORE PUSH2 0x285F DUP2 PUSH2 0x2823 JUMP JUMPDEST SWAP1 POP SWAP2 SWAP1 POP JUMP JUMPDEST PUSH32 0x5351460000000000000000000000000000000000000000000000000000000000 PUSH1 0x0 DUP3 ADD MSTORE POP JUMP JUMPDEST PUSH1 0x0 PUSH2 0x289C PUSH1 0x3 DUP4 PUSH2 0x20AD JUMP JUMPDEST SWAP2 POP PUSH2 0x28A7 DUP3 PUSH2 0x2866 JUMP JUMPDEST PUSH1 0x20 DUP3 ADD SWAP1 POP SWAP2 SWAP1 POP JUMP JUMPDEST PUSH1 0x0 PUSH1 0x80 DUP3 ADD SWAP1 POP PUSH2 0x28C7 PUSH1 0x0 DUP4 ADD DUP7 PUSH2 0x1DEA JUMP JUMPDEST PUSH2 0x28D4 PUSH1 0x20 DUP4 ADD DUP6 PUSH2 0x1DEA JUMP JUMPDEST DUP2 DUP2 SUB PUSH1 0x40 DUP4 ADD MSTORE PUSH2 0x28E5 DUP2 PUSH2 0x288F JUMP JUMPDEST SWAP1 POP PUSH2 0x28F4 PUSH1 0x60 DUP4 ADD DUP5 PUSH2 0x1DEA JUMP JUMPDEST SWAP5 SWAP4 POP POP POP POP JUMP JUMPDEST PUSH32 0x4F776E61626C653A206E6577206F776E657220697320746865207A65726F2061 PUSH1 0x0 DUP3 ADD MSTORE PUSH32 0x6464726573730000000000000000000000000000000000000000000000000000 PUSH1 0x20 DUP3 ADD MSTORE POP JUMP JUMPDEST PUSH1 0x0 PUSH2 0x2958 PUSH1 0x26 DUP4 PUSH2 0x20AD JUMP JUMPDEST SWAP2 POP PUSH2 0x2963 DUP3 PUSH2 0x28FC JUMP JUMPDEST PUSH1 0x40 DUP3 ADD SWAP1 POP SWAP2 SWAP1 POP JUMP JUMPDEST PUSH1 0x0 PUSH1 0x20 DUP3 ADD SWAP1 POP DUP2 DUP2 SUB PUSH1 0x0 DUP4 ADD MSTORE PUSH2 0x2987 DUP2 PUSH2 0x294B JUMP JUMPDEST SWAP1 POP SWAP2 SWAP1 POP JUMP JUMPDEST PUSH1 0x0 PUSH1 0x20 DUP3 DUP5 SUB SLT ISZERO PUSH2 0x29A4 JUMPI PUSH2 0x29A3 PUSH2 0x1BE2 JUMP JUMPDEST JUMPDEST PUSH1 0x0 PUSH2 0x29B2 DUP5 DUP3 DUP6 ADD PUSH2 0x25EE JUMP JUMPDEST SWAP2 POP POP SWAP3 SWAP2 POP POP JUMP INVALID LOG2 PUSH5 0x6970667358 0x22 SLT KECCAK256 DUP2 0x27 0xB7 0x28 DIFFICULTY SMOD MSTORE8 0x5C 0x4B 0xBB 0xA8 0xDA DUP14 0xC2 0xAF 0xC6 DUP10 DUP4 0x28 SUB 0xEF 0xE6 0xEA PUSH17 0x5FCE5A641741D70664736F6C634300080D STOP CALLER "
				},
				"gasEstimates": {
					"creation": {
						"codeDepositCost": "2147400",
						"executionCost": "infinite",
						"totalCost": "infinite"
					},
					"external": {
						"ERC721_Interface()": "431",
						"allItems(uint256)": "infinite",
						"allMarketItems()": "infinite",
						"antaFeePercent()": "2632",
						"bnbFeePercent()": "2566",
						"createMarketItem(uint256,uint256)": "infinite",
						"createMarketSale(uint256,uint256)": "infinite",
						"delistItem(uint256)": "infinite",
						"factory()": "infinite",
						"getMarketItem(uint256)": "infinite",
						"items(address,uint256)": "infinite",
						"mainNFTs()": "infinite",
						"mainToken()": "infinite",
						"owner()": "2589",
						"renounceOwnership()": "30397",
						"setFactory(address)": "27051",
						"setMainNFT(address)": "27008",
						"setMainToken(address)": "27030",
						"transferOwnership(address)": "30786"
					},
					"internal": {
						"_requireERC721(address)": "infinite",
						"_safeBuyItem(uint256,uint256,uint256)": "infinite",
						"_safeTransferToMarket(uint256)": "infinite",
						"isContract(address)": "infinite"
					}
				},
				"methodIdentifiers": {
					"ERC721_Interface()": "2b4c32be",
					"allItems(uint256)": "ff68fa6e",
					"allMarketItems()": "517bd451",
					"antaFeePercent()": "b7a60c7e",
					"bnbFeePercent()": "85a8b36c",
					"createMarketItem(uint256,uint256)": "361c1995",
					"createMarketSale(uint256,uint256)": "a1c11ca8",
					"delistItem(uint256)": "10061631",
					"factory()": "c45a0155",
					"getMarketItem(uint256)": "c7be7a49",
					"items(address,uint256)": "5c80a435",
					"mainNFTs()": "f55de0c7",
					"mainToken()": "3fc15f15",
					"owner()": "8da5cb5b",
					"renounceOwnership()": "715018a6",
					"setFactory(address)": "5bb47808",
					"setMainNFT(address)": "15b12494",
					"setMainToken(address)": "27ce464e",
					"transferOwnership(address)": "f2fde38b"
				}
			},
			"storageLayout": {
				"storage": [
					{
						"astId": 409,
						"contract": "contracts/Marketplace2/Marketplace.sol:NFTMarket",
						"label": "_status",
						"offset": 0,
						"slot": "0",
						"type": "t_uint256"
					},
					{
						"astId": 499,
						"contract": "contracts/Marketplace2/Marketplace.sol:NFTMarket",
						"label": "allMarketItems",
						"offset": 0,
						"slot": "1",
						"type": "t_struct(MarketItem)496_storage"
					},
					{
						"astId": 510,
						"contract": "contracts/Marketplace2/Marketplace.sol:NFTMarket",
						"label": "allItems",
						"offset": 0,
						"slot": "7",
						"type": "t_mapping(t_uint256,t_struct(MarketItem)496_storage)"
					},
					{
						"astId": 517,
						"contract": "contracts/Marketplace2/Marketplace.sol:NFTMarket",
						"label": "items",
						"offset": 0,
						"slot": "8",
						"type": "t_mapping(t_address,t_mapping(t_uint256,t_struct(MarketItem)496_storage))"
					},
					{
						"astId": 520,
						"contract": "contracts/Marketplace2/Marketplace.sol:NFTMarket",
						"label": "mainToken",
						"offset": 0,
						"slot": "9",
						"type": "t_contract(IERC20)201"
					},
					{
						"astId": 523,
						"contract": "contracts/Marketplace2/Marketplace.sol:NFTMarket",
						"label": "factory",
						"offset": 0,
						"slot": "10",
						"type": "t_contract(IFactory)478"
					},
					{
						"astId": 526,
						"contract": "contracts/Marketplace2/Marketplace.sol:NFTMarket",
						"label": "mainNFTs",
						"offset": 0,
						"slot": "11",
						"type": "t_contract(IERC721)326"
					},
					{
						"astId": 528,
						"contract": "contracts/Marketplace2/Marketplace.sol:NFTMarket",
						"label": "bnbFeePercent",
						"offset": 20,
						"slot": "11",
						"type": "t_uint8"
					},
					{
						"astId": 530,
						"contract": "contracts/Marketplace2/Marketplace.sol:NFTMarket",
						"label": "antaFeePercent",
						"offset": 21,
						"slot": "11",
						"type": "t_uint8"
					},
					{
						"astId": 27,
						"contract": "contracts/Marketplace2/Marketplace.sol:NFTMarket",
						"label": "_owner",
						"offset": 0,
						"slot": "12",
						"type": "t_address"
					},
					{
						"astId": 598,
						"contract": "contracts/Marketplace2/Marketplace.sol:NFTMarket",
						"label": "_itemIds",
						"offset": 0,
						"slot": "13",
						"type": "t_struct(Counter)331_storage"
					},
					{
						"astId": 601,
						"contract": "contracts/Marketplace2/Marketplace.sol:NFTMarket",
						"label": "_itemsSold",
						"offset": 0,
						"slot": "14",
						"type": "t_struct(Counter)331_storage"
					},
					{
						"astId": 606,
						"contract": "contracts/Marketplace2/Marketplace.sol:NFTMarket",
						"label": "idToMarketItem",
						"offset": 0,
						"slot": "15",
						"type": "t_mapping(t_uint256,t_struct(MarketItem)496_storage)"
					}
				],
				"types": {
					"t_address": {
						"encoding": "inplace",
						"label": "address",
						"numberOfBytes": "20"
					},
					"t_contract(IERC20)201": {
						"encoding": "inplace",
						"label": "contract IERC20",
						"numberOfBytes": "20"
					},
					"t_contract(IERC721)326": {
						"encoding": "inplace",
						"label": "contract IERC721",
						"numberOfBytes": "20"
					},
					"t_contract(IFactory)478": {
						"encoding": "inplace",
						"label": "contract IFactory",
						"numberOfBytes": "20"
					},
					"t_enum(ItemStatus)482": {
						"encoding": "inplace",
						"label": "enum MarketplaceStorage.ItemStatus",
						"numberOfBytes": "1"
					},
					"t_mapping(t_address,t_mapping(t_uint256,t_struct(MarketItem)496_storage))": {
						"encoding": "mapping",
						"key": "t_address",
						"label": "mapping(address => mapping(uint256 => struct MarketplaceStorage.MarketItem))",
						"numberOfBytes": "32",
						"value": "t_mapping(t_uint256,t_struct(MarketItem)496_storage)"
					},
					"t_mapping(t_uint256,t_struct(MarketItem)496_storage)": {
						"encoding": "mapping",
						"key": "t_uint256",
						"label": "mapping(uint256 => struct MarketplaceStorage.MarketItem)",
						"numberOfBytes": "32",
						"value": "t_struct(MarketItem)496_storage"
					},
					"t_struct(Counter)331_storage": {
						"encoding": "inplace",
						"label": "struct Counters.Counter",
						"members": [
							{
								"astId": 330,
								"contract": "contracts/Marketplace2/Marketplace.sol:NFTMarket",
								"label": "_value",
								"offset": 0,
								"slot": "0",
								"type": "t_uint256"
							}
						],
						"numberOfBytes": "32"
					},
					"t_struct(MarketItem)496_storage": {
						"encoding": "inplace",
						"label": "struct MarketplaceStorage.MarketItem",
						"members": [
							{
								"astId": 484,
								"contract": "contracts/Marketplace2/Marketplace.sol:NFTMarket",
								"label": "itemId",
								"offset": 0,
								"slot": "0",
								"type": "t_uint256"
							},
							{
								"astId": 486,
								"contract": "contracts/Marketplace2/Marketplace.sol:NFTMarket",
								"label": "tokenId",
								"offset": 0,
								"slot": "1",
								"type": "t_uint256"
							},
							{
								"astId": 488,
								"contract": "contracts/Marketplace2/Marketplace.sol:NFTMarket",
								"label": "seller",
								"offset": 0,
								"slot": "2",
								"type": "t_address"
							},
							{
								"astId": 490,
								"contract": "contracts/Marketplace2/Marketplace.sol:NFTMarket",
								"label": "owner",
								"offset": 0,
								"slot": "3",
								"type": "t_address"
							},
							{
								"astId": 492,
								"contract": "contracts/Marketplace2/Marketplace.sol:NFTMarket",
								"label": "price",
								"offset": 0,
								"slot": "4",
								"type": "t_uint256"
							},
							{
								"astId": 495,
								"contract": "contracts/Marketplace2/Marketplace.sol:NFTMarket",
								"label": "status",
								"offset": 0,
								"slot": "5",
								"type": "t_enum(ItemStatus)482"
							}
						],
						"numberOfBytes": "192"
					},
					"t_uint256": {
						"encoding": "inplace",
						"label": "uint256",
						"numberOfBytes": "32"
					},
					"t_uint8": {
						"encoding": "inplace",
						"label": "uint8",
						"numberOfBytes": "1"
					}
				}
			},
			"userdoc": {
				"kind": "user",
				"methods": {},
				"version": 1
			}
		}
	}
}