{
	"contracts/Marketplace2/Marketplace.sol": {
		"NFTMarket": {
			"abi": [
				{
					"inputs": [
						{
							"internalType": "address",
							"name": "_mainToken",
							"type": "address"
						},
						{
							"internalType": "address",
							"name": "_mainNFT",
							"type": "address"
						},
						{
							"internalType": "address",
							"name": "_mainFactory",
							"type": "address"
						}
					],
					"stateMutability": "nonpayable",
					"type": "constructor"
				},
				{
					"anonymous": false,
					"inputs": [
						{
							"indexed": false,
							"internalType": "uint256",
							"name": "itemId",
							"type": "uint256"
						},
						{
							"indexed": true,
							"internalType": "uint256",
							"name": "tokenId",
							"type": "uint256"
						},
						{
							"indexed": true,
							"internalType": "address",
							"name": "seller",
							"type": "address"
						},
						{
							"indexed": false,
							"internalType": "uint256",
							"name": "price",
							"type": "uint256"
						},
						{
							"indexed": true,
							"internalType": "address",
							"name": "buyer",
							"type": "address"
						},
						{
							"indexed": false,
							"internalType": "string",
							"name": "currency",
							"type": "string"
						},
						{
							"indexed": false,
							"internalType": "uint256",
							"name": "createdAt",
							"type": "uint256"
						}
					],
					"name": "BuyItemSuccessful",
					"type": "event"
				},
				{
					"anonymous": false,
					"inputs": [
						{
							"indexed": false,
							"internalType": "uint256",
							"name": "id",
							"type": "uint256"
						},
						{
							"indexed": true,
							"internalType": "uint256",
							"name": "assetId",
							"type": "uint256"
						},
						{
							"indexed": true,
							"internalType": "address",
							"name": "delistBy",
							"type": "address"
						},
						{
							"indexed": false,
							"internalType": "uint256",
							"name": "createdAt",
							"type": "uint256"
						}
					],
					"name": "DelistItemSuccessful",
					"type": "event"
				},
				{
					"anonymous": false,
					"inputs": [
						{
							"indexed": true,
							"internalType": "uint256",
							"name": "itemId",
							"type": "uint256"
						},
						{
							"indexed": true,
							"internalType": "uint256",
							"name": "tokenId",
							"type": "uint256"
						},
						{
							"indexed": false,
							"internalType": "address",
							"name": "seller",
							"type": "address"
						},
						{
							"indexed": false,
							"internalType": "address",
							"name": "owner",
							"type": "address"
						},
						{
							"indexed": false,
							"internalType": "uint256",
							"name": "price",
							"type": "uint256"
						}
					],
					"name": "MarketItemCreated",
					"type": "event"
				},
				{
					"anonymous": false,
					"inputs": [
						{
							"indexed": true,
							"internalType": "address",
							"name": "previousOwner",
							"type": "address"
						},
						{
							"indexed": true,
							"internalType": "address",
							"name": "newOwner",
							"type": "address"
						}
					],
					"name": "OwnershipTransferred",
					"type": "event"
				},
				{
					"anonymous": false,
					"inputs": [
						{
							"indexed": false,
							"internalType": "address",
							"name": "nftAddress",
							"type": "address"
						},
						{
							"indexed": false,
							"internalType": "bytes32",
							"name": "id",
							"type": "bytes32"
						},
						{
							"indexed": true,
							"internalType": "uint256",
							"name": "assetId",
							"type": "uint256"
						},
						{
							"indexed": false,
							"internalType": "uint256",
							"name": "price",
							"type": "uint256"
						},
						{
							"indexed": true,
							"internalType": "address",
							"name": "seller",
							"type": "address"
						},
						{
							"indexed": false,
							"internalType": "string",
							"name": "currency",
							"type": "string"
						},
						{
							"indexed": false,
							"internalType": "uint256",
							"name": "createdAt",
							"type": "uint256"
						}
					],
					"name": "SellItemSuccessful",
					"type": "event"
				},
				{
					"inputs": [],
					"name": "ERC721_Interface",
					"outputs": [
						{
							"internalType": "bytes4",
							"name": "",
							"type": "bytes4"
						}
					],
					"stateMutability": "view",
					"type": "function"
				},
				{
					"inputs": [
						{
							"internalType": "uint256",
							"name": "",
							"type": "uint256"
						}
					],
					"name": "allItems",
					"outputs": [
						{
							"internalType": "uint256",
							"name": "itemId",
							"type": "uint256"
						},
						{
							"internalType": "uint256",
							"name": "tokenId",
							"type": "uint256"
						},
						{
							"internalType": "address",
							"name": "seller",
							"type": "address"
						},
						{
							"internalType": "address",
							"name": "owner",
							"type": "address"
						},
						{
							"internalType": "uint256",
							"name": "price",
							"type": "uint256"
						},
						{
							"internalType": "enum MarketplaceStorage.ItemStatus",
							"name": "status",
							"type": "uint8"
						}
					],
					"stateMutability": "view",
					"type": "function"
				},
				{
					"inputs": [],
					"name": "allMarketItems",
					"outputs": [
						{
							"internalType": "uint256",
							"name": "itemId",
							"type": "uint256"
						},
						{
							"internalType": "uint256",
							"name": "tokenId",
							"type": "uint256"
						},
						{
							"internalType": "address",
							"name": "seller",
							"type": "address"
						},
						{
							"internalType": "address",
							"name": "owner",
							"type": "address"
						},
						{
							"internalType": "uint256",
							"name": "price",
							"type": "uint256"
						},
						{
							"internalType": "enum MarketplaceStorage.ItemStatus",
							"name": "status",
							"type": "uint8"
						}
					],
					"stateMutability": "view",
					"type": "function"
				},
				{
					"inputs": [],
					"name": "antaFeePercent",
					"outputs": [
						{
							"internalType": "uint8",
							"name": "",
							"type": "uint8"
						}
					],
					"stateMutability": "view",
					"type": "function"
				},
				{
					"inputs": [],
					"name": "bnbFeePercent",
					"outputs": [
						{
							"internalType": "uint8",
							"name": "",
							"type": "uint8"
						}
					],
					"stateMutability": "view",
					"type": "function"
				},
				{
					"inputs": [
						{
							"internalType": "uint256",
							"name": "tokenId",
							"type": "uint256"
						},
						{
							"internalType": "uint256",
							"name": "price",
							"type": "uint256"
						}
					],
					"name": "createMarketItem",
					"outputs": [],
					"stateMutability": "nonpayable",
					"type": "function"
				},
				{
					"inputs": [
						{
							"internalType": "uint256",
							"name": "itemId",
							"type": "uint256"
						},
						{
							"internalType": "uint256",
							"name": "amount",
							"type": "uint256"
						}
					],
					"name": "createMarketSale",
					"outputs": [],
					"stateMutability": "nonpayable",
					"type": "function"
				},
				{
					"inputs": [
						{
							"internalType": "uint256",
							"name": "itemId",
							"type": "uint256"
						}
					],
					"name": "delistItem",
					"outputs": [],
					"stateMutability": "nonpayable",
					"type": "function"
				},
				{
					"inputs": [],
					"name": "factory",
					"outputs": [
						{
							"internalType": "contract IFactory",
							"name": "",
							"type": "address"
						}
					],
					"stateMutability": "view",
					"type": "function"
				},
				{
					"inputs": [
						{
							"internalType": "uint256",
							"name": "itemId",
							"type": "uint256"
						}
					],
					"name": "fetchMarketItem",
					"outputs": [
						{
							"components": [
								{
									"internalType": "uint256",
									"name": "itemId",
									"type": "uint256"
								},
								{
									"internalType": "uint256",
									"name": "tokenId",
									"type": "uint256"
								},
								{
									"internalType": "address",
									"name": "seller",
									"type": "address"
								},
								{
									"internalType": "address",
									"name": "owner",
									"type": "address"
								},
								{
									"internalType": "uint256",
									"name": "price",
									"type": "uint256"
								},
								{
									"internalType": "enum MarketplaceStorage.ItemStatus",
									"name": "status",
									"type": "uint8"
								}
							],
							"internalType": "struct MarketplaceStorage.MarketItem",
							"name": "",
							"type": "tuple"
						}
					],
					"stateMutability": "view",
					"type": "function"
				},
				{
					"inputs": [],
					"name": "fetchMarketItems",
					"outputs": [
						{
							"components": [
								{
									"internalType": "uint256",
									"name": "itemId",
									"type": "uint256"
								},
								{
									"internalType": "uint256",
									"name": "tokenId",
									"type": "uint256"
								},
								{
									"internalType": "address",
									"name": "seller",
									"type": "address"
								},
								{
									"internalType": "address",
									"name": "owner",
									"type": "address"
								},
								{
									"internalType": "uint256",
									"name": "price",
									"type": "uint256"
								},
								{
									"internalType": "enum MarketplaceStorage.ItemStatus",
									"name": "status",
									"type": "uint8"
								}
							],
							"internalType": "struct MarketplaceStorage.MarketItem",
							"name": "",
							"type": "tuple"
						}
					],
					"stateMutability": "view",
					"type": "function"
				},
				{
					"inputs": [],
					"name": "fetchMySelling",
					"outputs": [
						{
							"components": [
								{
									"internalType": "uint256",
									"name": "itemId",
									"type": "uint256"
								},
								{
									"internalType": "uint256",
									"name": "tokenId",
									"type": "uint256"
								},
								{
									"internalType": "address",
									"name": "seller",
									"type": "address"
								},
								{
									"internalType": "address",
									"name": "owner",
									"type": "address"
								},
								{
									"internalType": "uint256",
									"name": "price",
									"type": "uint256"
								},
								{
									"internalType": "enum MarketplaceStorage.ItemStatus",
									"name": "status",
									"type": "uint8"
								}
							],
							"internalType": "struct MarketplaceStorage.MarketItem[]",
							"name": "",
							"type": "tuple[]"
						}
					],
					"stateMutability": "view",
					"type": "function"
				},
				{
					"inputs": [
						{
							"internalType": "uint256",
							"name": "marketItemId",
							"type": "uint256"
						}
					],
					"name": "getMarketItem",
					"outputs": [
						{
							"components": [
								{
									"internalType": "uint256",
									"name": "itemId",
									"type": "uint256"
								},
								{
									"internalType": "uint256",
									"name": "tokenId",
									"type": "uint256"
								},
								{
									"internalType": "address",
									"name": "seller",
									"type": "address"
								},
								{
									"internalType": "address",
									"name": "owner",
									"type": "address"
								},
								{
									"internalType": "uint256",
									"name": "price",
									"type": "uint256"
								},
								{
									"internalType": "enum MarketplaceStorage.ItemStatus",
									"name": "status",
									"type": "uint8"
								}
							],
							"internalType": "struct MarketplaceStorage.MarketItem",
							"name": "",
							"type": "tuple"
						}
					],
					"stateMutability": "view",
					"type": "function"
				},
				{
					"inputs": [
						{
							"internalType": "address",
							"name": "",
							"type": "address"
						},
						{
							"internalType": "uint256",
							"name": "",
							"type": "uint256"
						}
					],
					"name": "items",
					"outputs": [
						{
							"internalType": "uint256",
							"name": "itemId",
							"type": "uint256"
						},
						{
							"internalType": "uint256",
							"name": "tokenId",
							"type": "uint256"
						},
						{
							"internalType": "address",
							"name": "seller",
							"type": "address"
						},
						{
							"internalType": "address",
							"name": "owner",
							"type": "address"
						},
						{
							"internalType": "uint256",
							"name": "price",
							"type": "uint256"
						},
						{
							"internalType": "enum MarketplaceStorage.ItemStatus",
							"name": "status",
							"type": "uint8"
						}
					],
					"stateMutability": "view",
					"type": "function"
				},
				{
					"inputs": [],
					"name": "mainNFTs",
					"outputs": [
						{
							"internalType": "contract IERC721",
							"name": "",
							"type": "address"
						}
					],
					"stateMutability": "view",
					"type": "function"
				},
				{
					"inputs": [],
					"name": "mainToken",
					"outputs": [
						{
							"internalType": "contract IERC20",
							"name": "",
							"type": "address"
						}
					],
					"stateMutability": "view",
					"type": "function"
				},
				{
					"inputs": [],
					"name": "owner",
					"outputs": [
						{
							"internalType": "address",
							"name": "",
							"type": "address"
						}
					],
					"stateMutability": "view",
					"type": "function"
				},
				{
					"inputs": [],
					"name": "renounceOwnership",
					"outputs": [],
					"stateMutability": "nonpayable",
					"type": "function"
				},
				{
					"inputs": [
						{
							"internalType": "address",
							"name": "_address",
							"type": "address"
						}
					],
					"name": "setFactory",
					"outputs": [],
					"stateMutability": "nonpayable",
					"type": "function"
				},
				{
					"inputs": [
						{
							"internalType": "address",
							"name": "_address",
							"type": "address"
						}
					],
					"name": "setMainNFT",
					"outputs": [],
					"stateMutability": "nonpayable",
					"type": "function"
				},
				{
					"inputs": [
						{
							"internalType": "address",
							"name": "_address",
							"type": "address"
						}
					],
					"name": "setMainToken",
					"outputs": [],
					"stateMutability": "nonpayable",
					"type": "function"
				},
				{
					"inputs": [
						{
							"internalType": "address",
							"name": "newOwner",
							"type": "address"
						}
					],
					"name": "transferOwnership",
					"outputs": [],
					"stateMutability": "nonpayable",
					"type": "function"
				}
			],
			"devdoc": {
				"kind": "dev",
				"methods": {
					"owner()": {
						"details": "Returns the address of the current owner."
					},
					"renounceOwnership()": {
						"details": "Leaves the contract without owner. It will not be possible to call `onlyOwner` functions anymore. Can only be called by the current owner. NOTE: Renouncing ownership will leave the contract without an owner, thereby removing any functionality that is only available to the owner."
					},
					"transferOwnership(address)": {
						"details": "Transfers ownership of the contract to a new account (`newOwner`). Can only be called by the current owner."
					}
				},
				"version": 1
			},
			"evm": {
				"assembly": "    /* \"contracts/Marketplace2/Marketplace.sol\":17107:24164  contract NFTMarket is ReentrancyGuard,MarketplaceStorage, Ownable {... */\n  mstore(0x40, 0x80)\n    /* \"contracts/Marketplace2/Marketplace.sol\":17353:17547  constructor(address _mainToken, address _mainNFT, address _mainFactory ) {... */\n  callvalue\n  dup1\n  iszero\n  tag_1\n  jumpi\n  0x00\n  dup1\n  revert\ntag_1:\n  pop\n  mload(0x40)\n  sub(codesize, bytecodeSize)\n  dup1\n  bytecodeSize\n  dup4\n  codecopy\n  dup2\n  dup2\n  add\n  0x40\n  mstore\n  dup2\n  add\n  swap1\n  tag_2\n  swap2\n  swap1\n  tag_3\n  jump\t// in\ntag_2:\n    /* \"contracts/Marketplace2/Marketplace.sol\":14122:14123  1 */\n  0x01\n    /* \"contracts/Marketplace2/Marketplace.sol\":14227:14234  _status */\n  0x00\n    /* \"contracts/Marketplace2/Marketplace.sol\":14227:14249  _status = _NOT_ENTERED */\n  dup2\n  swap1\n  sstore\n  pop\n    /* \"contracts/Marketplace2/Marketplace.sol\":1561:1593  _transferOwnership(_msgSender()) */\n  tag_9\n    /* \"contracts/Marketplace2/Marketplace.sol\":1580:1592  _msgSender() */\n  tag_10\n    /* \"contracts/Marketplace2/Marketplace.sol\":1580:1590  _msgSender */\n  shl(0x20, tag_11)\n    /* \"contracts/Marketplace2/Marketplace.sol\":1580:1592  _msgSender() */\n  0x20\n  shr\n  jump\t// in\ntag_10:\n    /* \"contracts/Marketplace2/Marketplace.sol\":1561:1579  _transferOwnership */\n  shl(0x20, tag_12)\n    /* \"contracts/Marketplace2/Marketplace.sol\":1561:1593  _transferOwnership(_msgSender()) */\n  0x20\n  shr\n  jump\t// in\ntag_9:\n    /* \"contracts/Marketplace2/Marketplace.sol\":17453:17463  _mainToken */\n  dup3\n    /* \"contracts/Marketplace2/Marketplace.sol\":17434:17443  mainToken */\n  0x09\n  0x00\n    /* \"contracts/Marketplace2/Marketplace.sol\":17434:17464  mainToken = IERC20(_mainToken) */\n  0x0100\n  exp\n  dup2\n  sload\n  dup2\n  0xffffffffffffffffffffffffffffffffffffffff\n  mul\n  not\n  and\n  swap1\n  dup4\n  0xffffffffffffffffffffffffffffffffffffffff\n  and\n  mul\n  or\n  swap1\n  sstore\n  pop\n    /* \"contracts/Marketplace2/Marketplace.sol\":17491:17499  _mainNFT */\n  dup2\n    /* \"contracts/Marketplace2/Marketplace.sol\":17472:17480  mainNFTs */\n  0x0b\n  0x00\n    /* \"contracts/Marketplace2/Marketplace.sol\":17472:17500  mainNFTs = IERC721(_mainNFT) */\n  0x0100\n  exp\n  dup2\n  sload\n  dup2\n  0xffffffffffffffffffffffffffffffffffffffff\n  mul\n  not\n  and\n  swap1\n  dup4\n  0xffffffffffffffffffffffffffffffffffffffff\n  and\n  mul\n  or\n  swap1\n  sstore\n  pop\n    /* \"contracts/Marketplace2/Marketplace.sol\":17527:17539  _mainFactory */\n  dup1\n    /* \"contracts/Marketplace2/Marketplace.sol\":17508:17515  factory */\n  0x0a\n  0x00\n    /* \"contracts/Marketplace2/Marketplace.sol\":17508:17540  factory = IFactory(_mainFactory) */\n  0x0100\n  exp\n  dup2\n  sload\n  dup2\n  0xffffffffffffffffffffffffffffffffffffffff\n  mul\n  not\n  and\n  swap1\n  dup4\n  0xffffffffffffffffffffffffffffffffffffffff\n  and\n  mul\n  or\n  swap1\n  sstore\n  pop\n    /* \"contracts/Marketplace2/Marketplace.sol\":17353:17547  constructor(address _mainToken, address _mainNFT, address _mainFactory ) {... */\n  pop\n  pop\n  pop\n    /* \"contracts/Marketplace2/Marketplace.sol\":17107:24164  contract NFTMarket is ReentrancyGuard,MarketplaceStorage, Ownable {... */\n  jump(tag_14)\n    /* \"contracts/Marketplace2/Marketplace.sol\":554:650  function _msgSender() internal view virtual returns (address) {... */\ntag_11:\n    /* \"contracts/Marketplace2/Marketplace.sol\":607:614  address */\n  0x00\n    /* \"contracts/Marketplace2/Marketplace.sol\":633:643  msg.sender */\n  caller\n    /* \"contracts/Marketplace2/Marketplace.sol\":626:643  return msg.sender */\n  swap1\n  pop\n    /* \"contracts/Marketplace2/Marketplace.sol\":554:650  function _msgSender() internal view virtual returns (address) {... */\n  swap1\n  jump\t// out\n    /* \"contracts/Marketplace2/Marketplace.sol\":2910:3097  function _transferOwnership(address newOwner) internal virtual {... */\ntag_12:\n    /* \"contracts/Marketplace2/Marketplace.sol\":2983:2999  address oldOwner */\n  0x00\n    /* \"contracts/Marketplace2/Marketplace.sol\":3002:3008  _owner */\n  0x0c\n  0x00\n  swap1\n  sload\n  swap1\n  0x0100\n  exp\n  swap1\n  div\n  0xffffffffffffffffffffffffffffffffffffffff\n  and\n    /* \"contracts/Marketplace2/Marketplace.sol\":2983:3008  address oldOwner = _owner */\n  swap1\n  pop\n    /* \"contracts/Marketplace2/Marketplace.sol\":3027:3035  newOwner */\n  dup2\n    /* \"contracts/Marketplace2/Marketplace.sol\":3018:3024  _owner */\n  0x0c\n  0x00\n    /* \"contracts/Marketplace2/Marketplace.sol\":3018:3035  _owner = newOwner */\n  0x0100\n  exp\n  dup2\n  sload\n  dup2\n  0xffffffffffffffffffffffffffffffffffffffff\n  mul\n  not\n  and\n  swap1\n  dup4\n  0xffffffffffffffffffffffffffffffffffffffff\n  and\n  mul\n  or\n  swap1\n  sstore\n  pop\n    /* \"contracts/Marketplace2/Marketplace.sol\":3081:3089  newOwner */\n  dup2\n    /* \"contracts/Marketplace2/Marketplace.sol\":3050:3090  OwnershipTransferred(oldOwner, newOwner) */\n  0xffffffffffffffffffffffffffffffffffffffff\n  and\n    /* \"contracts/Marketplace2/Marketplace.sol\":3071:3079  oldOwner */\n  dup2\n    /* \"contracts/Marketplace2/Marketplace.sol\":3050:3090  OwnershipTransferred(oldOwner, newOwner) */\n  0xffffffffffffffffffffffffffffffffffffffff\n  and\n  0x8be0079c531659141344cd1fd0a4f28419497f9722a3daafe3b4186f6b6457e0\n  mload(0x40)\n  mload(0x40)\n  dup1\n  swap2\n  sub\n  swap1\n  log3\n    /* \"contracts/Marketplace2/Marketplace.sol\":2973:3097  {... */\n  pop\n    /* \"contracts/Marketplace2/Marketplace.sol\":2910:3097  function _transferOwnership(address newOwner) internal virtual {... */\n  pop\n  jump\t// out\n    /* \"#utility.yul\":88:205   */\ntag_18:\n    /* \"#utility.yul\":197:198   */\n  0x00\n    /* \"#utility.yul\":194:195   */\n  dup1\n    /* \"#utility.yul\":187:199   */\n  revert\n    /* \"#utility.yul\":334:460   */\ntag_20:\n    /* \"#utility.yul\":371:378   */\n  0x00\n    /* \"#utility.yul\":411:453   */\n  0xffffffffffffffffffffffffffffffffffffffff\n    /* \"#utility.yul\":404:409   */\n  dup3\n    /* \"#utility.yul\":400:454   */\n  and\n    /* \"#utility.yul\":389:454   */\n  swap1\n  pop\n    /* \"#utility.yul\":334:460   */\n  swap2\n  swap1\n  pop\n  jump\t// out\n    /* \"#utility.yul\":466:562   */\ntag_21:\n    /* \"#utility.yul\":503:510   */\n  0x00\n    /* \"#utility.yul\":532:556   */\n  tag_30\n    /* \"#utility.yul\":550:555   */\n  dup3\n    /* \"#utility.yul\":532:556   */\n  tag_20\n  jump\t// in\ntag_30:\n    /* \"#utility.yul\":521:556   */\n  swap1\n  pop\n    /* \"#utility.yul\":466:562   */\n  swap2\n  swap1\n  pop\n  jump\t// out\n    /* \"#utility.yul\":568:690   */\ntag_22:\n    /* \"#utility.yul\":641:665   */\n  tag_32\n    /* \"#utility.yul\":659:664   */\n  dup2\n    /* \"#utility.yul\":641:665   */\n  tag_21\n  jump\t// in\ntag_32:\n    /* \"#utility.yul\":634:639   */\n  dup2\n    /* \"#utility.yul\":631:666   */\n  eq\n    /* \"#utility.yul\":621:684   */\n  tag_33\n  jumpi\n    /* \"#utility.yul\":680:681   */\n  0x00\n    /* \"#utility.yul\":677:678   */\n  dup1\n    /* \"#utility.yul\":670:682   */\n  revert\n    /* \"#utility.yul\":621:684   */\ntag_33:\n    /* \"#utility.yul\":568:690   */\n  pop\n  jump\t// out\n    /* \"#utility.yul\":696:839   */\ntag_23:\n    /* \"#utility.yul\":753:758   */\n  0x00\n    /* \"#utility.yul\":784:790   */\n  dup2\n    /* \"#utility.yul\":778:791   */\n  mload\n    /* \"#utility.yul\":769:791   */\n  swap1\n  pop\n    /* \"#utility.yul\":800:833   */\n  tag_35\n    /* \"#utility.yul\":827:832   */\n  dup2\n    /* \"#utility.yul\":800:833   */\n  tag_22\n  jump\t// in\ntag_35:\n    /* \"#utility.yul\":696:839   */\n  swap3\n  swap2\n  pop\n  pop\n  jump\t// out\n    /* \"#utility.yul\":845:1508   */\ntag_3:\n    /* \"#utility.yul\":933:939   */\n  0x00\n    /* \"#utility.yul\":941:947   */\n  dup1\n    /* \"#utility.yul\":949:955   */\n  0x00\n    /* \"#utility.yul\":998:1000   */\n  0x60\n    /* \"#utility.yul\":986:995   */\n  dup5\n    /* \"#utility.yul\":977:984   */\n  dup7\n    /* \"#utility.yul\":973:996   */\n  sub\n    /* \"#utility.yul\":969:1001   */\n  slt\n    /* \"#utility.yul\":966:1085   */\n  iszero\n  tag_37\n  jumpi\n    /* \"#utility.yul\":1004:1083   */\n  tag_38\n  tag_18\n  jump\t// in\ntag_38:\n    /* \"#utility.yul\":966:1085   */\ntag_37:\n    /* \"#utility.yul\":1124:1125   */\n  0x00\n    /* \"#utility.yul\":1149:1213   */\n  tag_39\n    /* \"#utility.yul\":1205:1212   */\n  dup7\n    /* \"#utility.yul\":1196:1202   */\n  dup3\n    /* \"#utility.yul\":1185:1194   */\n  dup8\n    /* \"#utility.yul\":1181:1203   */\n  add\n    /* \"#utility.yul\":1149:1213   */\n  tag_23\n  jump\t// in\ntag_39:\n    /* \"#utility.yul\":1139:1213   */\n  swap4\n  pop\n    /* \"#utility.yul\":1095:1223   */\n  pop\n    /* \"#utility.yul\":1262:1264   */\n  0x20\n    /* \"#utility.yul\":1288:1352   */\n  tag_40\n    /* \"#utility.yul\":1344:1351   */\n  dup7\n    /* \"#utility.yul\":1335:1341   */\n  dup3\n    /* \"#utility.yul\":1324:1333   */\n  dup8\n    /* \"#utility.yul\":1320:1342   */\n  add\n    /* \"#utility.yul\":1288:1352   */\n  tag_23\n  jump\t// in\ntag_40:\n    /* \"#utility.yul\":1278:1352   */\n  swap3\n  pop\n    /* \"#utility.yul\":1233:1362   */\n  pop\n    /* \"#utility.yul\":1401:1403   */\n  0x40\n    /* \"#utility.yul\":1427:1491   */\n  tag_41\n    /* \"#utility.yul\":1483:1490   */\n  dup7\n    /* \"#utility.yul\":1474:1480   */\n  dup3\n    /* \"#utility.yul\":1463:1472   */\n  dup8\n    /* \"#utility.yul\":1459:1481   */\n  add\n    /* \"#utility.yul\":1427:1491   */\n  tag_23\n  jump\t// in\ntag_41:\n    /* \"#utility.yul\":1417:1491   */\n  swap2\n  pop\n    /* \"#utility.yul\":1372:1501   */\n  pop\n    /* \"#utility.yul\":845:1508   */\n  swap3\n  pop\n  swap3\n  pop\n  swap3\n  jump\t// out\n    /* \"contracts/Marketplace2/Marketplace.sol\":17107:24164  contract NFTMarket is ReentrancyGuard,MarketplaceStorage, Ownable {... */\ntag_14:\n  dataSize(sub_0)\n  dup1\n  dataOffset(sub_0)\n  0x00\n  codecopy\n  0x00\n  return\nstop\n\nsub_0: assembly {\n        /* \"contracts/Marketplace2/Marketplace.sol\":17107:24164  contract NFTMarket is ReentrancyGuard,MarketplaceStorage, Ownable {... */\n      mstore(0x40, 0x80)\n      callvalue\n      dup1\n      iszero\n      tag_1\n      jumpi\n      0x00\n      dup1\n      revert\n    tag_1:\n      pop\n      jumpi(tag_2, lt(calldatasize, 0x04))\n      shr(0xe0, calldataload(0x00))\n      dup1\n      0x673cf668\n      gt\n      tag_25\n      jumpi\n      dup1\n      0xb7a60c7e\n      gt\n      tag_26\n      jumpi\n      dup1\n      0xb7a60c7e\n      eq\n      tag_19\n      jumpi\n      dup1\n      0xc45a0155\n      eq\n      tag_20\n      jumpi\n      dup1\n      0xc7be7a49\n      eq\n      tag_21\n      jumpi\n      dup1\n      0xf2fde38b\n      eq\n      tag_22\n      jumpi\n      dup1\n      0xf55de0c7\n      eq\n      tag_23\n      jumpi\n      dup1\n      0xff68fa6e\n      eq\n      tag_24\n      jumpi\n      jump(tag_2)\n    tag_26:\n      dup1\n      0x673cf668\n      eq\n      tag_14\n      jumpi\n      dup1\n      0x715018a6\n      eq\n      tag_15\n      jumpi\n      dup1\n      0x85a8b36c\n      eq\n      tag_16\n      jumpi\n      dup1\n      0x8da5cb5b\n      eq\n      tag_17\n      jumpi\n      dup1\n      0xa1c11ca8\n      eq\n      tag_18\n      jumpi\n      jump(tag_2)\n    tag_25:\n      dup1\n      0x2b4c32be\n      gt\n      tag_27\n      jumpi\n      dup1\n      0x2b4c32be\n      eq\n      tag_8\n      jumpi\n      dup1\n      0x361c1995\n      eq\n      tag_9\n      jumpi\n      dup1\n      0x3fc15f15\n      eq\n      tag_10\n      jumpi\n      dup1\n      0x517bd451\n      eq\n      tag_11\n      jumpi\n      dup1\n      0x5bb47808\n      eq\n      tag_12\n      jumpi\n      dup1\n      0x5c80a435\n      eq\n      tag_13\n      jumpi\n      jump(tag_2)\n    tag_27:\n      dup1\n      0x0f08efe0\n      eq\n      tag_3\n      jumpi\n      dup1\n      0x10061631\n      eq\n      tag_4\n      jumpi\n      dup1\n      0x15b12494\n      eq\n      tag_5\n      jumpi\n      dup1\n      0x27ce464e\n      eq\n      tag_6\n      jumpi\n      dup1\n      0x2a45b250\n      eq\n      tag_7\n      jumpi\n    tag_2:\n      0x00\n      dup1\n      revert\n        /* \"contracts/Marketplace2/Marketplace.sol\":19928:20028  function fetchMarketItems() public view returns (MarketItem memory) {... */\n    tag_3:\n      tag_28\n      tag_29\n      jump\t// in\n    tag_28:\n      mload(0x40)\n      tag_30\n      swap2\n      swap1\n      tag_31\n      jump\t// in\n    tag_30:\n      mload(0x40)\n      dup1\n      swap2\n      sub\n      swap1\n      return\n        /* \"contracts/Marketplace2/Marketplace.sol\":20734:21492  function delistItem(uint256 itemId) public {... */\n    tag_4:\n      tag_32\n      0x04\n      dup1\n      calldatasize\n      sub\n      dup2\n      add\n      swap1\n      tag_33\n      swap2\n      swap1\n      tag_34\n      jump\t// in\n    tag_33:\n      tag_35\n      jump\t// in\n    tag_32:\n      stop\n        /* \"contracts/Marketplace2/Marketplace.sol\":17805:17907  function setMainNFT(address _address) external onlyOwner {... */\n    tag_5:\n      tag_36\n      0x04\n      dup1\n      calldatasize\n      sub\n      dup2\n      add\n      swap1\n      tag_37\n      swap2\n      swap1\n      tag_38\n      jump\t// in\n    tag_37:\n      tag_39\n      jump\t// in\n    tag_36:\n      stop\n        /* \"contracts/Marketplace2/Marketplace.sol\":17696:17800  function setMainToken(address _address) external onlyOwner {... */\n    tag_6:\n      tag_40\n      0x04\n      dup1\n      calldatasize\n      sub\n      dup2\n      add\n      swap1\n      tag_41\n      swap2\n      swap1\n      tag_38\n      jump\t// in\n    tag_41:\n      tag_42\n      jump\t// in\n    tag_40:\n      stop\n        /* \"contracts/Marketplace2/Marketplace.sol\":19771:19924  function fetchMarketItem(uint itemId) public view returns (MarketItem memory) {... */\n    tag_7:\n      tag_43\n      0x04\n      dup1\n      calldatasize\n      sub\n      dup2\n      add\n      swap1\n      tag_44\n      swap2\n      swap1\n      tag_34\n      jump\t// in\n    tag_44:\n      tag_45\n      jump\t// in\n    tag_43:\n      mload(0x40)\n      tag_46\n      swap2\n      swap1\n      tag_31\n      jump\t// in\n    tag_46:\n      mload(0x40)\n      dup1\n      swap2\n      sub\n      swap1\n      return\n        /* \"contracts/Marketplace2/Marketplace.sol\":15910:15970  bytes4 public constant ERC721_Interface = bytes4(0x80ac58cd) */\n    tag_8:\n      tag_47\n      tag_48\n      jump\t// in\n    tag_47:\n      mload(0x40)\n      tag_49\n      swap2\n      swap1\n      tag_50\n      jump\t// in\n    tag_49:\n      mload(0x40)\n      dup1\n      swap2\n      sub\n      swap1\n      return\n        /* \"contracts/Marketplace2/Marketplace.sol\":18018:18771  function createMarketItem(... */\n    tag_9:\n      tag_51\n      0x04\n      dup1\n      calldatasize\n      sub\n      dup2\n      add\n      swap1\n      tag_52\n      swap2\n      swap1\n      tag_53\n      jump\t// in\n    tag_52:\n      tag_54\n      jump\t// in\n    tag_51:\n      stop\n        /* \"contracts/Marketplace2/Marketplace.sol\":16171:16194  IERC20 public mainToken */\n    tag_10:\n      tag_55\n      tag_56\n      jump\t// in\n    tag_55:\n      mload(0x40)\n      tag_57\n      swap2\n      swap1\n      tag_58\n      jump\t// in\n    tag_57:\n      mload(0x40)\n      dup1\n      swap2\n      sub\n      swap1\n      return\n        /* \"contracts/Marketplace2/Marketplace.sol\":15871:15903  MarketItem public allMarketItems */\n    tag_11:\n      tag_59\n      tag_60\n      jump\t// in\n    tag_59:\n      mload(0x40)\n      tag_61\n      swap7\n      swap6\n      swap5\n      swap4\n      swap3\n      swap2\n      swap1\n      tag_62\n      jump\t// in\n    tag_61:\n      mload(0x40)\n      dup1\n      swap2\n      sub\n      swap1\n      return\n        /* \"contracts/Marketplace2/Marketplace.sol\":17912:18014  function setFactory(address _address) external onlyOwner {... */\n    tag_12:\n      tag_63\n      0x04\n      dup1\n      calldatasize\n      sub\n      dup2\n      add\n      swap1\n      tag_64\n      swap2\n      swap1\n      tag_38\n      jump\t// in\n    tag_64:\n      tag_65\n      jump\t// in\n    tag_63:\n      stop\n        /* \"contracts/Marketplace2/Marketplace.sol\":16101:16164  mapping(address => mapping(uint256 => MarketItem)) public items */\n    tag_13:\n      tag_66\n      0x04\n      dup1\n      calldatasize\n      sub\n      dup2\n      add\n      swap1\n      tag_67\n      swap2\n      swap1\n      tag_68\n      jump\t// in\n    tag_67:\n      tag_69\n      jump\t// in\n    tag_66:\n      mload(0x40)\n      tag_70\n      swap7\n      swap6\n      swap5\n      swap4\n      swap3\n      swap2\n      swap1\n      tag_62\n      jump\t// in\n    tag_70:\n      mload(0x40)\n      dup1\n      swap2\n      sub\n      swap1\n      return\n        /* \"contracts/Marketplace2/Marketplace.sol\":20032:20730  function fetchMySelling() public view returns (MarketItem[] memory) {... */\n    tag_14:\n      tag_71\n      tag_72\n      jump\t// in\n    tag_71:\n      mload(0x40)\n      tag_73\n      swap2\n      swap1\n      tag_74\n      jump\t// in\n    tag_73:\n      mload(0x40)\n      dup1\n      swap2\n      sub\n      swap1\n      return\n        /* \"contracts/Marketplace2/Marketplace.sol\":2308:2409  function renounceOwnership() public virtual onlyOwner {... */\n    tag_15:\n      tag_75\n      tag_76\n      jump\t// in\n    tag_75:\n      stop\n        /* \"contracts/Marketplace2/Marketplace.sol\":16259:16285  uint8 public bnbFeePercent */\n    tag_16:\n      tag_77\n      tag_78\n      jump\t// in\n    tag_77:\n      mload(0x40)\n      tag_79\n      swap2\n      swap1\n      tag_80\n      jump\t// in\n    tag_79:\n      mload(0x40)\n      dup1\n      swap2\n      sub\n      swap1\n      return\n        /* \"contracts/Marketplace2/Marketplace.sol\":1676:1761  function owner() public view virtual returns (address) {... */\n    tag_17:\n      tag_81\n      tag_82\n      jump\t// in\n    tag_81:\n      mload(0x40)\n      tag_83\n      swap2\n      swap1\n      tag_84\n      jump\t// in\n    tag_83:\n      mload(0x40)\n      dup1\n      swap2\n      sub\n      swap1\n      return\n        /* \"contracts/Marketplace2/Marketplace.sol\":18774:19767  function createMarketSale(... */\n    tag_18:\n      tag_85\n      0x04\n      dup1\n      calldatasize\n      sub\n      dup2\n      add\n      swap1\n      tag_86\n      swap2\n      swap1\n      tag_53\n      jump\t// in\n    tag_86:\n      tag_87\n      jump\t// in\n    tag_85:\n      stop\n        /* \"contracts/Marketplace2/Marketplace.sol\":16291:16318  uint8 public antaFeePercent */\n    tag_19:\n      tag_88\n      tag_89\n      jump\t// in\n    tag_88:\n      mload(0x40)\n      tag_90\n      swap2\n      swap1\n      tag_80\n      jump\t// in\n    tag_90:\n      mload(0x40)\n      dup1\n      swap2\n      sub\n      swap1\n      return\n        /* \"contracts/Marketplace2/Marketplace.sol\":16200:16223  IFactory public factory */\n    tag_20:\n      tag_91\n      tag_92\n      jump\t// in\n    tag_91:\n      mload(0x40)\n      tag_93\n      swap2\n      swap1\n      tag_94\n      jump\t// in\n    tag_93:\n      mload(0x40)\n      dup1\n      swap2\n      sub\n      swap1\n      return\n        /* \"contracts/Marketplace2/Marketplace.sol\":17553:17690  function getMarketItem(uint256 marketItemId) public view returns (MarketItem memory) {... */\n    tag_21:\n      tag_95\n      0x04\n      dup1\n      calldatasize\n      sub\n      dup2\n      add\n      swap1\n      tag_96\n      swap2\n      swap1\n      tag_34\n      jump\t// in\n    tag_96:\n      tag_97\n      jump\t// in\n    tag_95:\n      mload(0x40)\n      tag_98\n      swap2\n      swap1\n      tag_31\n      jump\t// in\n    tag_98:\n      mload(0x40)\n      dup1\n      swap2\n      sub\n      swap1\n      return\n        /* \"contracts/Marketplace2/Marketplace.sol\":2558:2756  function transferOwnership(address newOwner) public virtual onlyOwner {... */\n    tag_22:\n      tag_99\n      0x04\n      dup1\n      calldatasize\n      sub\n      dup2\n      add\n      swap1\n      tag_100\n      swap2\n      swap1\n      tag_38\n      jump\t// in\n    tag_100:\n      tag_101\n      jump\t// in\n    tag_99:\n      stop\n        /* \"contracts/Marketplace2/Marketplace.sol\":16229:16252  IERC721 public mainNFTs */\n    tag_23:\n      tag_102\n      tag_103\n      jump\t// in\n    tag_102:\n      mload(0x40)\n      tag_104\n      swap2\n      swap1\n      tag_105\n      jump\t// in\n    tag_104:\n      mload(0x40)\n      dup1\n      swap2\n      sub\n      swap1\n      return\n        /* \"contracts/Marketplace2/Marketplace.sol\":15977:16024  mapping (uint256 => MarketItem) public allItems */\n    tag_24:\n      tag_106\n      0x04\n      dup1\n      calldatasize\n      sub\n      dup2\n      add\n      swap1\n      tag_107\n      swap2\n      swap1\n      tag_34\n      jump\t// in\n    tag_107:\n      tag_108\n      jump\t// in\n    tag_106:\n      mload(0x40)\n      tag_109\n      swap7\n      swap6\n      swap5\n      swap4\n      swap3\n      swap2\n      swap1\n      tag_62\n      jump\t// in\n    tag_109:\n      mload(0x40)\n      dup1\n      swap2\n      sub\n      swap1\n      return\n        /* \"contracts/Marketplace2/Marketplace.sol\":19928:20028  function fetchMarketItems() public view returns (MarketItem memory) {... */\n    tag_29:\n        /* \"contracts/Marketplace2/Marketplace.sol\":19977:19994  MarketItem memory */\n      tag_110\n      tag_111\n      jump\t// in\n    tag_110:\n        /* \"contracts/Marketplace2/Marketplace.sol\":20009:20023  allMarketItems */\n      0x01\n        /* \"contracts/Marketplace2/Marketplace.sol\":20002:20023  return allMarketItems */\n      mload(0x40)\n      dup1\n      0xc0\n      add\n      0x40\n      mstore\n      swap1\n      dup2\n      0x00\n      dup3\n      add\n      sload\n      dup2\n      mstore\n      0x20\n      add\n      0x01\n      dup3\n      add\n      sload\n      dup2\n      mstore\n      0x20\n      add\n      0x02\n      dup3\n      add\n      0x00\n      swap1\n      sload\n      swap1\n      0x0100\n      exp\n      swap1\n      div\n      0xffffffffffffffffffffffffffffffffffffffff\n      and\n      0xffffffffffffffffffffffffffffffffffffffff\n      and\n      0xffffffffffffffffffffffffffffffffffffffff\n      and\n      dup2\n      mstore\n      0x20\n      add\n      0x03\n      dup3\n      add\n      0x00\n      swap1\n      sload\n      swap1\n      0x0100\n      exp\n      swap1\n      div\n      0xffffffffffffffffffffffffffffffffffffffff\n      and\n      0xffffffffffffffffffffffffffffffffffffffff\n      and\n      0xffffffffffffffffffffffffffffffffffffffff\n      and\n      dup2\n      mstore\n      0x20\n      add\n      0x04\n      dup3\n      add\n      sload\n      dup2\n      mstore\n      0x20\n      add\n      0x05\n      dup3\n      add\n      0x00\n      swap1\n      sload\n      swap1\n      0x0100\n      exp\n      swap1\n      div\n      0xff\n      and\n      0x01\n      dup2\n      gt\n      iszero\n      tag_113\n      jumpi\n      tag_114\n      tag_115\n      jump\t// in\n    tag_114:\n    tag_113:\n      0x01\n      dup2\n      gt\n      iszero\n      tag_116\n      jumpi\n      tag_117\n      tag_115\n      jump\t// in\n    tag_117:\n    tag_116:\n      dup2\n      mstore\n      pop\n      pop\n      swap1\n      pop\n        /* \"contracts/Marketplace2/Marketplace.sol\":19928:20028  function fetchMarketItems() public view returns (MarketItem memory) {... */\n      swap1\n      jump\t// out\n        /* \"contracts/Marketplace2/Marketplace.sol\":20734:21492  function delistItem(uint256 itemId) public {... */\n    tag_35:\n        /* \"contracts/Marketplace2/Marketplace.sol\":20787:20803  address deleteBy */\n      0x00\n        /* \"contracts/Marketplace2/Marketplace.sol\":20806:20816  msg.sender */\n      caller\n        /* \"contracts/Marketplace2/Marketplace.sol\":20787:20816  address deleteBy = msg.sender */\n      swap1\n      pop\n        /* \"contracts/Marketplace2/Marketplace.sol\":20826:20848  MarketItem memory item */\n      0x00\n        /* \"contracts/Marketplace2/Marketplace.sol\":20851:20865  idToMarketItem */\n      0x0f\n        /* \"contracts/Marketplace2/Marketplace.sol\":20851:20873  idToMarketItem[itemId] */\n      0x00\n        /* \"contracts/Marketplace2/Marketplace.sol\":20866:20872  itemId */\n      dup5\n        /* \"contracts/Marketplace2/Marketplace.sol\":20851:20873  idToMarketItem[itemId] */\n      dup2\n      mstore\n      0x20\n      add\n      swap1\n      dup2\n      mstore\n      0x20\n      add\n      0x00\n      keccak256\n        /* \"contracts/Marketplace2/Marketplace.sol\":20826:20873  MarketItem memory item = idToMarketItem[itemId] */\n      mload(0x40)\n      dup1\n      0xc0\n      add\n      0x40\n      mstore\n      swap1\n      dup2\n      0x00\n      dup3\n      add\n      sload\n      dup2\n      mstore\n      0x20\n      add\n      0x01\n      dup3\n      add\n      sload\n      dup2\n      mstore\n      0x20\n      add\n      0x02\n      dup3\n      add\n      0x00\n      swap1\n      sload\n      swap1\n      0x0100\n      exp\n      swap1\n      div\n      0xffffffffffffffffffffffffffffffffffffffff\n      and\n      0xffffffffffffffffffffffffffffffffffffffff\n      and\n      0xffffffffffffffffffffffffffffffffffffffff\n      and\n      dup2\n      mstore\n      0x20\n      add\n      0x03\n      dup3\n      add\n      0x00\n      swap1\n      sload\n      swap1\n      0x0100\n      exp\n      swap1\n      div\n      0xffffffffffffffffffffffffffffffffffffffff\n      and\n      0xffffffffffffffffffffffffffffffffffffffff\n      and\n      0xffffffffffffffffffffffffffffffffffffffff\n      and\n      dup2\n      mstore\n      0x20\n      add\n      0x04\n      dup3\n      add\n      sload\n      dup2\n      mstore\n      0x20\n      add\n      0x05\n      dup3\n      add\n      0x00\n      swap1\n      sload\n      swap1\n      0x0100\n      exp\n      swap1\n      div\n      0xff\n      and\n      0x01\n      dup2\n      gt\n      iszero\n      tag_119\n      jumpi\n      tag_120\n      tag_115\n      jump\t// in\n    tag_120:\n    tag_119:\n      0x01\n      dup2\n      gt\n      iszero\n      tag_121\n      jumpi\n      tag_122\n      tag_115\n      jump\t// in\n    tag_122:\n    tag_121:\n      dup2\n      mstore\n      pop\n      pop\n      swap1\n      pop\n        /* \"contracts/Marketplace2/Marketplace.sol\":20908:20909  0 */\n      0x00\n        /* \"contracts/Marketplace2/Marketplace.sol\":20893:20897  item */\n      dup2\n        /* \"contracts/Marketplace2/Marketplace.sol\":20893:20904  item.itemId */\n      0x00\n      add\n      mload\n        /* \"contracts/Marketplace2/Marketplace.sol\":20893:20909  item.itemId != 0 */\n      sub\n        /* \"contracts/Marketplace2/Marketplace.sol\":20885:20933  require(item.itemId != 0, \"Asset not published\") */\n      tag_123\n      jumpi\n      mload(0x40)\n      0x08c379a000000000000000000000000000000000000000000000000000000000\n      dup2\n      mstore\n      0x04\n      add\n      tag_124\n      swap1\n      tag_125\n      jump\t// in\n    tag_124:\n      mload(0x40)\n      dup1\n      swap2\n      sub\n      swap1\n      revert\n    tag_123:\n        /* \"contracts/Marketplace2/Marketplace.sol\":20966:20984  ItemStatus.SELLING */\n      0x01\n        /* \"contracts/Marketplace2/Marketplace.sol\":20951:20984  item.status == ItemStatus.SELLING */\n      dup1\n      dup2\n      gt\n      iszero\n      tag_126\n      jumpi\n      tag_127\n      tag_115\n      jump\t// in\n    tag_127:\n    tag_126:\n        /* \"contracts/Marketplace2/Marketplace.sol\":20951:20955  item */\n      dup2\n        /* \"contracts/Marketplace2/Marketplace.sol\":20951:20962  item.status */\n      0xa0\n      add\n      mload\n        /* \"contracts/Marketplace2/Marketplace.sol\":20951:20984  item.status == ItemStatus.SELLING */\n      0x01\n      dup2\n      gt\n      iszero\n      tag_128\n      jumpi\n      tag_129\n      tag_115\n      jump\t// in\n    tag_129:\n    tag_128:\n      eq\n        /* \"contracts/Marketplace2/Marketplace.sol\":20943:21003  require(item.status == ItemStatus.SELLING, \"Asset delisted\") */\n      tag_130\n      jumpi\n      mload(0x40)\n      0x08c379a000000000000000000000000000000000000000000000000000000000\n      dup2\n      mstore\n      0x04\n      add\n      tag_131\n      swap1\n      tag_132\n      jump\t// in\n    tag_131:\n      mload(0x40)\n      dup1\n      swap2\n      sub\n      swap1\n      revert\n    tag_130:\n        /* \"contracts/Marketplace2/Marketplace.sol\":21014:21028  address seller */\n      0x00\n        /* \"contracts/Marketplace2/Marketplace.sol\":21031:21035  item */\n      dup2\n        /* \"contracts/Marketplace2/Marketplace.sol\":21031:21042  item.seller */\n      0x40\n      add\n      mload\n        /* \"contracts/Marketplace2/Marketplace.sol\":21014:21042  address seller = item.seller */\n      swap1\n      pop\n        /* \"contracts/Marketplace2/Marketplace.sol\":21078:21079  0 */\n      0x00\n        /* \"contracts/Marketplace2/Marketplace.sol\":21060:21080  seller != address(0) */\n      0xffffffffffffffffffffffffffffffffffffffff\n      and\n        /* \"contracts/Marketplace2/Marketplace.sol\":21060:21066  seller */\n      dup2\n        /* \"contracts/Marketplace2/Marketplace.sol\":21060:21080  seller != address(0) */\n      0xffffffffffffffffffffffffffffffffffffffff\n      and\n      sub\n        /* \"contracts/Marketplace2/Marketplace.sol\":21052:21100  require(seller != address(0), \"Invalid address\") */\n      tag_133\n      jumpi\n      mload(0x40)\n      0x08c379a000000000000000000000000000000000000000000000000000000000\n      dup2\n      mstore\n      0x04\n      add\n      tag_134\n      swap1\n      tag_135\n      jump\t// in\n    tag_134:\n      mload(0x40)\n      dup1\n      swap2\n      sub\n      swap1\n      revert\n    tag_133:\n        /* \"contracts/Marketplace2/Marketplace.sol\":21141:21151  msg.sender */\n      caller\n        /* \"contracts/Marketplace2/Marketplace.sol\":21131:21151  seller == msg.sender */\n      0xffffffffffffffffffffffffffffffffffffffff\n      and\n        /* \"contracts/Marketplace2/Marketplace.sol\":21131:21137  seller */\n      dup2\n        /* \"contracts/Marketplace2/Marketplace.sol\":21131:21151  seller == msg.sender */\n      0xffffffffffffffffffffffffffffffffffffffff\n      and\n      eq\n        /* \"contracts/Marketplace2/Marketplace.sol\":21110:21199  require(... */\n      tag_136\n      jumpi\n      mload(0x40)\n      0x08c379a000000000000000000000000000000000000000000000000000000000\n      dup2\n      mstore\n      0x04\n      add\n      tag_137\n      swap1\n      tag_138\n      jump\t// in\n    tag_137:\n      mload(0x40)\n      dup1\n      swap2\n      sub\n      swap1\n      revert\n    tag_136:\n        /* \"contracts/Marketplace2/Marketplace.sol\":21209:21217  mainNFTs */\n      0x0b\n      0x00\n      swap1\n      sload\n      swap1\n      0x0100\n      exp\n      swap1\n      div\n      0xffffffffffffffffffffffffffffffffffffffff\n      and\n        /* \"contracts/Marketplace2/Marketplace.sol\":21209:21234  mainNFTs.safeTransferFrom */\n      0xffffffffffffffffffffffffffffffffffffffff\n      and\n      0x42842e0e\n        /* \"contracts/Marketplace2/Marketplace.sol\":21243:21247  this */\n      address\n        /* \"contracts/Marketplace2/Marketplace.sol\":21250:21256  seller */\n      dup4\n        /* \"contracts/Marketplace2/Marketplace.sol\":21258:21264  itemId */\n      dup8\n        /* \"contracts/Marketplace2/Marketplace.sol\":21209:21265  mainNFTs.safeTransferFrom(address(this), seller, itemId) */\n      mload(0x40)\n      dup5\n      0xffffffff\n      and\n      0xe0\n      shl\n      dup2\n      mstore\n      0x04\n      add\n      tag_139\n      swap4\n      swap3\n      swap2\n      swap1\n      tag_140\n      jump\t// in\n    tag_139:\n      0x00\n      mload(0x40)\n      dup1\n      dup4\n      sub\n      dup2\n      0x00\n      dup8\n      dup1\n      extcodesize\n      iszero\n      dup1\n      iszero\n      tag_141\n      jumpi\n      0x00\n      dup1\n      revert\n    tag_141:\n      pop\n      gas\n      call\n      iszero\n      dup1\n      iszero\n      tag_143\n      jumpi\n      returndatasize\n      0x00\n      dup1\n      returndatacopy\n      revert(0x00, returndatasize)\n    tag_143:\n      pop\n      pop\n      pop\n      pop\n        /* \"contracts/Marketplace2/Marketplace.sol\":21289:21305  ItemStatus.AVAIL */\n      0x00\n        /* \"contracts/Marketplace2/Marketplace.sol\":21275:21279  item */\n      dup3\n        /* \"contracts/Marketplace2/Marketplace.sol\":21275:21286  item.status */\n      0xa0\n      add\n        /* \"contracts/Marketplace2/Marketplace.sol\":21275:21305  item.status = ItemStatus.AVAIL */\n      swap1\n      0x01\n      dup2\n      gt\n      iszero\n      tag_144\n      jumpi\n      tag_145\n      tag_115\n      jump\t// in\n    tag_145:\n    tag_144:\n      swap1\n      dup2\n      0x01\n      dup2\n      gt\n      iszero\n      tag_146\n      jumpi\n      tag_147\n      tag_115\n      jump\t// in\n    tag_147:\n    tag_146:\n      dup2\n      mstore\n      pop\n      pop\n        /* \"contracts/Marketplace2/Marketplace.sol\":21322:21336  idToMarketItem */\n      0x0f\n        /* \"contracts/Marketplace2/Marketplace.sol\":21322:21344  idToMarketItem[itemId] */\n      0x00\n        /* \"contracts/Marketplace2/Marketplace.sol\":21337:21343  itemId */\n      dup6\n        /* \"contracts/Marketplace2/Marketplace.sol\":21322:21344  idToMarketItem[itemId] */\n      dup2\n      mstore\n      0x20\n      add\n      swap1\n      dup2\n      mstore\n      0x20\n      add\n      0x00\n      keccak256\n      0x00\n        /* \"contracts/Marketplace2/Marketplace.sol\":21315:21344  delete idToMarketItem[itemId] */\n      dup1\n      dup3\n      add\n      0x00\n      swap1\n      sstore\n      0x01\n      dup3\n      add\n      0x00\n      swap1\n      sstore\n      0x02\n      dup3\n      add\n      exp(0x0100, 0x00)\n      dup2\n      sload\n      swap1\n      0xffffffffffffffffffffffffffffffffffffffff\n      mul\n      not\n      and\n      swap1\n      sstore\n      0x03\n      dup3\n      add\n      exp(0x0100, 0x00)\n      dup2\n      sload\n      swap1\n      0xffffffffffffffffffffffffffffffffffffffff\n      mul\n      not\n      and\n      swap1\n      sstore\n      0x04\n      dup3\n      add\n      0x00\n      swap1\n      sstore\n      0x05\n      dup3\n      add\n      exp(0x0100, 0x00)\n      dup2\n      sload\n      swap1\n      0xff\n      mul\n      not\n      and\n      swap1\n      sstore\n      pop\n      pop\n        /* \"contracts/Marketplace2/Marketplace.sol\":21438:21446  deleteBy */\n      dup3\n        /* \"contracts/Marketplace2/Marketplace.sol\":21359:21485  DelistItemSuccessful(... */\n      0xffffffffffffffffffffffffffffffffffffffff\n      and\n        /* \"contracts/Marketplace2/Marketplace.sol\":21418:21424  itemId */\n      dup5\n        /* \"contracts/Marketplace2/Marketplace.sol\":21359:21485  DelistItemSuccessful(... */\n      0x72ffc2a266acba5f77e2b49400103cb61b428f37a97057ebe671e83fddd71e67\n        /* \"contracts/Marketplace2/Marketplace.sol\":21393:21397  item */\n      dup5\n        /* \"contracts/Marketplace2/Marketplace.sol\":21393:21404  item.itemId */\n      0x00\n      add\n      mload\n        /* \"contracts/Marketplace2/Marketplace.sol\":21460:21475  block.timestamp */\n      timestamp\n        /* \"contracts/Marketplace2/Marketplace.sol\":21359:21485  DelistItemSuccessful(... */\n      mload(0x40)\n      tag_148\n      swap3\n      swap2\n      swap1\n      tag_149\n      jump\t// in\n    tag_148:\n      mload(0x40)\n      dup1\n      swap2\n      sub\n      swap1\n      log3\n        /* \"contracts/Marketplace2/Marketplace.sol\":20777:21492  {... */\n      pop\n      pop\n      pop\n        /* \"contracts/Marketplace2/Marketplace.sol\":20734:21492  function delistItem(uint256 itemId) public {... */\n      pop\n      jump\t// out\n        /* \"contracts/Marketplace2/Marketplace.sol\":17805:17907  function setMainNFT(address _address) external onlyOwner {... */\n    tag_39:\n        /* \"contracts/Marketplace2/Marketplace.sol\":1899:1911  _msgSender() */\n      tag_151\n        /* \"contracts/Marketplace2/Marketplace.sol\":1899:1909  _msgSender */\n      tag_152\n        /* \"contracts/Marketplace2/Marketplace.sol\":1899:1911  _msgSender() */\n      jump\t// in\n    tag_151:\n        /* \"contracts/Marketplace2/Marketplace.sol\":1888:1911  owner() == _msgSender() */\n      0xffffffffffffffffffffffffffffffffffffffff\n      and\n        /* \"contracts/Marketplace2/Marketplace.sol\":1888:1895  owner() */\n      tag_153\n        /* \"contracts/Marketplace2/Marketplace.sol\":1888:1893  owner */\n      tag_82\n        /* \"contracts/Marketplace2/Marketplace.sol\":1888:1895  owner() */\n      jump\t// in\n    tag_153:\n        /* \"contracts/Marketplace2/Marketplace.sol\":1888:1911  owner() == _msgSender() */\n      0xffffffffffffffffffffffffffffffffffffffff\n      and\n      eq\n        /* \"contracts/Marketplace2/Marketplace.sol\":1880:1948  require(owner() == _msgSender(), \"Ownable: caller is not the owner\") */\n      tag_154\n      jumpi\n      mload(0x40)\n      0x08c379a000000000000000000000000000000000000000000000000000000000\n      dup2\n      mstore\n      0x04\n      add\n      tag_155\n      swap1\n      tag_156\n      jump\t// in\n    tag_155:\n      mload(0x40)\n      dup1\n      swap2\n      sub\n      swap1\n      revert\n    tag_154:\n        /* \"contracts/Marketplace2/Marketplace.sol\":17891:17899  _address */\n      dup1\n        /* \"contracts/Marketplace2/Marketplace.sol\":17872:17880  mainNFTs */\n      0x0b\n      0x00\n        /* \"contracts/Marketplace2/Marketplace.sol\":17872:17900  mainNFTs = IERC721(_address) */\n      0x0100\n      exp\n      dup2\n      sload\n      dup2\n      0xffffffffffffffffffffffffffffffffffffffff\n      mul\n      not\n      and\n      swap1\n      dup4\n      0xffffffffffffffffffffffffffffffffffffffff\n      and\n      mul\n      or\n      swap1\n      sstore\n      pop\n        /* \"contracts/Marketplace2/Marketplace.sol\":17805:17907  function setMainNFT(address _address) external onlyOwner {... */\n      pop\n      jump\t// out\n        /* \"contracts/Marketplace2/Marketplace.sol\":17696:17800  function setMainToken(address _address) external onlyOwner {... */\n    tag_42:\n        /* \"contracts/Marketplace2/Marketplace.sol\":1899:1911  _msgSender() */\n      tag_159\n        /* \"contracts/Marketplace2/Marketplace.sol\":1899:1909  _msgSender */\n      tag_152\n        /* \"contracts/Marketplace2/Marketplace.sol\":1899:1911  _msgSender() */\n      jump\t// in\n    tag_159:\n        /* \"contracts/Marketplace2/Marketplace.sol\":1888:1911  owner() == _msgSender() */\n      0xffffffffffffffffffffffffffffffffffffffff\n      and\n        /* \"contracts/Marketplace2/Marketplace.sol\":1888:1895  owner() */\n      tag_160\n        /* \"contracts/Marketplace2/Marketplace.sol\":1888:1893  owner */\n      tag_82\n        /* \"contracts/Marketplace2/Marketplace.sol\":1888:1895  owner() */\n      jump\t// in\n    tag_160:\n        /* \"contracts/Marketplace2/Marketplace.sol\":1888:1911  owner() == _msgSender() */\n      0xffffffffffffffffffffffffffffffffffffffff\n      and\n      eq\n        /* \"contracts/Marketplace2/Marketplace.sol\":1880:1948  require(owner() == _msgSender(), \"Ownable: caller is not the owner\") */\n      tag_161\n      jumpi\n      mload(0x40)\n      0x08c379a000000000000000000000000000000000000000000000000000000000\n      dup2\n      mstore\n      0x04\n      add\n      tag_162\n      swap1\n      tag_156\n      jump\t// in\n    tag_162:\n      mload(0x40)\n      dup1\n      swap2\n      sub\n      swap1\n      revert\n    tag_161:\n        /* \"contracts/Marketplace2/Marketplace.sol\":17784:17792  _address */\n      dup1\n        /* \"contracts/Marketplace2/Marketplace.sol\":17765:17774  mainToken */\n      0x09\n      0x00\n        /* \"contracts/Marketplace2/Marketplace.sol\":17765:17793  mainToken = IERC20(_address) */\n      0x0100\n      exp\n      dup2\n      sload\n      dup2\n      0xffffffffffffffffffffffffffffffffffffffff\n      mul\n      not\n      and\n      swap1\n      dup4\n      0xffffffffffffffffffffffffffffffffffffffff\n      and\n      mul\n      or\n      swap1\n      sstore\n      pop\n        /* \"contracts/Marketplace2/Marketplace.sol\":17696:17800  function setMainToken(address _address) external onlyOwner {... */\n      pop\n      jump\t// out\n        /* \"contracts/Marketplace2/Marketplace.sol\":19771:19924  function fetchMarketItem(uint itemId) public view returns (MarketItem memory) {... */\n    tag_45:\n        /* \"contracts/Marketplace2/Marketplace.sol\":19830:19847  MarketItem memory */\n      tag_164\n      tag_111\n      jump\t// in\n    tag_164:\n        /* \"contracts/Marketplace2/Marketplace.sol\":19855:19877  MarketItem memory item */\n      0x00\n        /* \"contracts/Marketplace2/Marketplace.sol\":19880:19894  idToMarketItem */\n      0x0f\n        /* \"contracts/Marketplace2/Marketplace.sol\":19880:19902  idToMarketItem[itemId] */\n      0x00\n        /* \"contracts/Marketplace2/Marketplace.sol\":19895:19901  itemId */\n      dup5\n        /* \"contracts/Marketplace2/Marketplace.sol\":19880:19902  idToMarketItem[itemId] */\n      dup2\n      mstore\n      0x20\n      add\n      swap1\n      dup2\n      mstore\n      0x20\n      add\n      0x00\n      keccak256\n        /* \"contracts/Marketplace2/Marketplace.sol\":19855:19902  MarketItem memory item = idToMarketItem[itemId] */\n      mload(0x40)\n      dup1\n      0xc0\n      add\n      0x40\n      mstore\n      swap1\n      dup2\n      0x00\n      dup3\n      add\n      sload\n      dup2\n      mstore\n      0x20\n      add\n      0x01\n      dup3\n      add\n      sload\n      dup2\n      mstore\n      0x20\n      add\n      0x02\n      dup3\n      add\n      0x00\n      swap1\n      sload\n      swap1\n      0x0100\n      exp\n      swap1\n      div\n      0xffffffffffffffffffffffffffffffffffffffff\n      and\n      0xffffffffffffffffffffffffffffffffffffffff\n      and\n      0xffffffffffffffffffffffffffffffffffffffff\n      and\n      dup2\n      mstore\n      0x20\n      add\n      0x03\n      dup3\n      add\n      0x00\n      swap1\n      sload\n      swap1\n      0x0100\n      exp\n      swap1\n      div\n      0xffffffffffffffffffffffffffffffffffffffff\n      and\n      0xffffffffffffffffffffffffffffffffffffffff\n      and\n      0xffffffffffffffffffffffffffffffffffffffff\n      and\n      dup2\n      mstore\n      0x20\n      add\n      0x04\n      dup3\n      add\n      sload\n      dup2\n      mstore\n      0x20\n      add\n      0x05\n      dup3\n      add\n      0x00\n      swap1\n      sload\n      swap1\n      0x0100\n      exp\n      swap1\n      div\n      0xff\n      and\n      0x01\n      dup2\n      gt\n      iszero\n      tag_166\n      jumpi\n      tag_167\n      tag_115\n      jump\t// in\n    tag_167:\n    tag_166:\n      0x01\n      dup2\n      gt\n      iszero\n      tag_168\n      jumpi\n      tag_169\n      tag_115\n      jump\t// in\n    tag_169:\n    tag_168:\n      dup2\n      mstore\n      pop\n      pop\n      swap1\n      pop\n        /* \"contracts/Marketplace2/Marketplace.sol\":19915:19919  item */\n      dup1\n        /* \"contracts/Marketplace2/Marketplace.sol\":19908:19919  return item */\n      swap2\n      pop\n      pop\n        /* \"contracts/Marketplace2/Marketplace.sol\":19771:19924  function fetchMarketItem(uint itemId) public view returns (MarketItem memory) {... */\n      swap2\n      swap1\n      pop\n      jump\t// out\n        /* \"contracts/Marketplace2/Marketplace.sol\":15910:15970  bytes4 public constant ERC721_Interface = bytes4(0x80ac58cd) */\n    tag_48:\n        /* \"contracts/Marketplace2/Marketplace.sol\":15959:15969  0x80ac58cd */\n      0x80ac58cd\n        /* \"contracts/Marketplace2/Marketplace.sol\":15952:15970  bytes4(0x80ac58cd) */\n      0xe0\n      shl\n        /* \"contracts/Marketplace2/Marketplace.sol\":15910:15970  bytes4 public constant ERC721_Interface = bytes4(0x80ac58cd) */\n      dup2\n      jump\t// out\n        /* \"contracts/Marketplace2/Marketplace.sol\":18018:18771  function createMarketItem(... */\n    tag_54:\n        /* \"contracts/Marketplace2/Marketplace.sol\":18117:18118  0 */\n      0x00\n        /* \"contracts/Marketplace2/Marketplace.sol\":18109:18114  price */\n      dup2\n        /* \"contracts/Marketplace2/Marketplace.sol\":18109:18118  price > 0 */\n      gt\n        /* \"contracts/Marketplace2/Marketplace.sol\":18101:18151  require(price > 0, \"Price must be at least 1 wei\") */\n      tag_171\n      jumpi\n      mload(0x40)\n      0x08c379a000000000000000000000000000000000000000000000000000000000\n      dup2\n      mstore\n      0x04\n      add\n      tag_172\n      swap1\n      tag_173\n      jump\t// in\n    tag_172:\n      mload(0x40)\n      dup1\n      swap2\n      sub\n      swap1\n      revert\n    tag_171:\n        /* \"contracts/Marketplace2/Marketplace.sol\":18158:18190  IFactory.ingameItems memory item */\n      0x00\n        /* \"contracts/Marketplace2/Marketplace.sol\":18193:18200  factory */\n      0x0a\n      0x00\n      swap1\n      sload\n      swap1\n      0x0100\n      exp\n      swap1\n      div\n      0xffffffffffffffffffffffffffffffffffffffff\n      and\n        /* \"contracts/Marketplace2/Marketplace.sol\":18193:18211  factory.ingameItem */\n      0xffffffffffffffffffffffffffffffffffffffff\n      and\n      0xd30bdac9\n        /* \"contracts/Marketplace2/Marketplace.sol\":18212:18219  tokenId */\n      dup5\n        /* \"contracts/Marketplace2/Marketplace.sol\":18193:18220  factory.ingameItem(tokenId) */\n      mload(0x40)\n      dup3\n      0xffffffff\n      and\n      0xe0\n      shl\n      dup2\n      mstore\n      0x04\n      add\n      tag_174\n      swap2\n      swap1\n      tag_175\n      jump\t// in\n    tag_174:\n      0x00\n      mload(0x40)\n      dup1\n      dup4\n      sub\n      dup2\n      dup7\n      gas\n      staticcall\n      iszero\n      dup1\n      iszero\n      tag_177\n      jumpi\n      returndatasize\n      0x00\n      dup1\n      returndatacopy\n      revert(0x00, returndatasize)\n    tag_177:\n      pop\n      pop\n      pop\n      pop\n      mload(0x40)\n      returndatasize\n      0x00\n      dup3\n      returndatacopy\n      returndatasize\n      not(0x1f)\n      0x1f\n      dup3\n      add\n      and\n      dup3\n      add\n      dup1\n      0x40\n      mstore\n      pop\n      dup2\n      add\n      swap1\n      tag_178\n      swap2\n      swap1\n      tag_179\n      jump\t// in\n    tag_178:\n        /* \"contracts/Marketplace2/Marketplace.sol\":18158:18220  IFactory.ingameItems memory item = factory.ingameItem(tokenId) */\n      swap1\n      pop\n        /* \"contracts/Marketplace2/Marketplace.sol\":18249:18254  false */\n      0x00\n        /* \"contracts/Marketplace2/Marketplace.sol\":18234:18254  item.ingame == false */\n      iszero\n      iszero\n        /* \"contracts/Marketplace2/Marketplace.sol\":18234:18238  item */\n      dup2\n        /* \"contracts/Marketplace2/Marketplace.sol\":18234:18245  item.ingame */\n      0x80\n      add\n      mload\n        /* \"contracts/Marketplace2/Marketplace.sol\":18234:18254  item.ingame == false */\n      iszero\n      iszero\n      eq\n        /* \"contracts/Marketplace2/Marketplace.sol\":18226:18287  require(item.ingame == false, \"Item is not available now !\" ) */\n      tag_180\n      jumpi\n      mload(0x40)\n      0x08c379a000000000000000000000000000000000000000000000000000000000\n      dup2\n      mstore\n      0x04\n      add\n      tag_181\n      swap1\n      tag_182\n      jump\t// in\n    tag_181:\n      mload(0x40)\n      dup1\n      swap2\n      sub\n      swap1\n      revert\n    tag_180:\n        /* \"contracts/Marketplace2/Marketplace.sol\":18293:18307  uint256 itemId */\n      0x00\n        /* \"contracts/Marketplace2/Marketplace.sol\":18310:18328  _itemIds.current() */\n      tag_183\n        /* \"contracts/Marketplace2/Marketplace.sol\":18310:18318  _itemIds */\n      0x0d\n        /* \"contracts/Marketplace2/Marketplace.sol\":18310:18326  _itemIds.current */\n      tag_184\n        /* \"contracts/Marketplace2/Marketplace.sol\":18310:18328  _itemIds.current() */\n      jump\t// in\n    tag_183:\n        /* \"contracts/Marketplace2/Marketplace.sol\":18293:18328  uint256 itemId = _itemIds.current() */\n      swap1\n      pop\n        /* \"contracts/Marketplace2/Marketplace.sol\":18339:18347  mainNFTs */\n      0x0b\n      0x00\n      swap1\n      sload\n      swap1\n      0x0100\n      exp\n      swap1\n      div\n      0xffffffffffffffffffffffffffffffffffffffff\n      and\n        /* \"contracts/Marketplace2/Marketplace.sol\":18339:18360  mainNFTs.transferFrom */\n      0xffffffffffffffffffffffffffffffffffffffff\n      and\n      0x23b872dd\n        /* \"contracts/Marketplace2/Marketplace.sol\":18361:18371  msg.sender */\n      caller\n        /* \"contracts/Marketplace2/Marketplace.sol\":18381:18385  this */\n      address\n        /* \"contracts/Marketplace2/Marketplace.sol\":18388:18395  tokenId */\n      dup8\n        /* \"contracts/Marketplace2/Marketplace.sol\":18339:18396  mainNFTs.transferFrom(msg.sender, address(this), tokenId) */\n      mload(0x40)\n      dup5\n      0xffffffff\n      and\n      0xe0\n      shl\n      dup2\n      mstore\n      0x04\n      add\n      tag_185\n      swap4\n      swap3\n      swap2\n      swap1\n      tag_140\n      jump\t// in\n    tag_185:\n      0x00\n      mload(0x40)\n      dup1\n      dup4\n      sub\n      dup2\n      0x00\n      dup8\n      dup1\n      extcodesize\n      iszero\n      dup1\n      iszero\n      tag_186\n      jumpi\n      0x00\n      dup1\n      revert\n    tag_186:\n      pop\n      gas\n      call\n      iszero\n      dup1\n      iszero\n      tag_188\n      jumpi\n      returndatasize\n      0x00\n      dup1\n      returndatacopy\n      revert(0x00, returndatasize)\n    tag_188:\n      pop\n      pop\n      pop\n      pop\n        /* \"contracts/Marketplace2/Marketplace.sol\":18527:18650  MarketItem(... */\n      mload(0x40)\n      dup1\n      0xc0\n      add\n      0x40\n      mstore\n      dup1\n        /* \"contracts/Marketplace2/Marketplace.sol\":18545:18551  itemId */\n      dup3\n        /* \"contracts/Marketplace2/Marketplace.sol\":18527:18650  MarketItem(... */\n      dup2\n      mstore\n      0x20\n      add\n        /* \"contracts/Marketplace2/Marketplace.sol\":18559:18566  tokenId */\n      dup6\n        /* \"contracts/Marketplace2/Marketplace.sol\":18527:18650  MarketItem(... */\n      dup2\n      mstore\n      0x20\n      add\n        /* \"contracts/Marketplace2/Marketplace.sol\":18574:18584  msg.sender */\n      caller\n        /* \"contracts/Marketplace2/Marketplace.sol\":18527:18650  MarketItem(... */\n      0xffffffffffffffffffffffffffffffffffffffff\n      and\n      dup2\n      mstore\n      0x20\n      add\n        /* \"contracts/Marketplace2/Marketplace.sol\":18600:18604  this */\n      address\n        /* \"contracts/Marketplace2/Marketplace.sol\":18527:18650  MarketItem(... */\n      0xffffffffffffffffffffffffffffffffffffffff\n      and\n      dup2\n      mstore\n      0x20\n      add\n        /* \"contracts/Marketplace2/Marketplace.sol\":18613:18618  price */\n      dup5\n        /* \"contracts/Marketplace2/Marketplace.sol\":18527:18650  MarketItem(... */\n      dup2\n      mstore\n      0x20\n      add\n        /* \"contracts/Marketplace2/Marketplace.sol\":18626:18644  ItemStatus.SELLING */\n      0x01\n        /* \"contracts/Marketplace2/Marketplace.sol\":18527:18650  MarketItem(... */\n      dup1\n      dup2\n      gt\n      iszero\n      tag_189\n      jumpi\n      tag_190\n      tag_115\n      jump\t// in\n    tag_190:\n    tag_189:\n      dup2\n      mstore\n      pop\n        /* \"contracts/Marketplace2/Marketplace.sol\":18501:18515  idToMarketItem */\n      0x0f\n        /* \"contracts/Marketplace2/Marketplace.sol\":18501:18523  idToMarketItem[itemId] */\n      0x00\n        /* \"contracts/Marketplace2/Marketplace.sol\":18516:18522  itemId */\n      dup4\n        /* \"contracts/Marketplace2/Marketplace.sol\":18501:18523  idToMarketItem[itemId] */\n      dup2\n      mstore\n      0x20\n      add\n      swap1\n      dup2\n      mstore\n      0x20\n      add\n      0x00\n      keccak256\n        /* \"contracts/Marketplace2/Marketplace.sol\":18501:18650  idToMarketItem[itemId] =  MarketItem(... */\n      0x00\n      dup3\n      add\n      mload\n      dup2\n      0x00\n      add\n      sstore\n      0x20\n      dup3\n      add\n      mload\n      dup2\n      0x01\n      add\n      sstore\n      0x40\n      dup3\n      add\n      mload\n      dup2\n      0x02\n      add\n      exp(0x0100, 0x00)\n      dup2\n      sload\n      dup2\n      0xffffffffffffffffffffffffffffffffffffffff\n      mul\n      not\n      and\n      swap1\n      dup4\n      0xffffffffffffffffffffffffffffffffffffffff\n      and\n      mul\n      or\n      swap1\n      sstore\n      pop\n      0x60\n      dup3\n      add\n      mload\n      dup2\n      0x03\n      add\n      exp(0x0100, 0x00)\n      dup2\n      sload\n      dup2\n      0xffffffffffffffffffffffffffffffffffffffff\n      mul\n      not\n      and\n      swap1\n      dup4\n      0xffffffffffffffffffffffffffffffffffffffff\n      and\n      mul\n      or\n      swap1\n      sstore\n      pop\n      0x80\n      dup3\n      add\n      mload\n      dup2\n      0x04\n      add\n      sstore\n      0xa0\n      dup3\n      add\n      mload\n      dup2\n      0x05\n      add\n      exp(0x0100, 0x00)\n      dup2\n      sload\n      dup2\n      0xff\n      mul\n      not\n      and\n      swap1\n      dup4\n      0x01\n      dup2\n      gt\n      iszero\n      tag_191\n      jumpi\n      tag_192\n      tag_115\n      jump\t// in\n    tag_192:\n    tag_191:\n      mul\n      or\n      swap1\n      sstore\n      pop\n      swap1\n      pop\n      pop\n        /* \"contracts/Marketplace2/Marketplace.sol\":18701:18708  tokenId */\n      dup4\n        /* \"contracts/Marketplace2/Marketplace.sol\":18687:18693  itemId */\n      dup2\n        /* \"contracts/Marketplace2/Marketplace.sol\":18662:18766  MarketItemCreated(... */\n      0x38690a554ffbc44eb6a75016e47d517d0db8e6c37494adc68d6d0b2c66f0ab21\n        /* \"contracts/Marketplace2/Marketplace.sol\":18716:18726  msg.sender */\n      caller\n        /* \"contracts/Marketplace2/Marketplace.sol\":18742:18746  this */\n      address\n        /* \"contracts/Marketplace2/Marketplace.sol\":18755:18760  price */\n      dup8\n        /* \"contracts/Marketplace2/Marketplace.sol\":18662:18766  MarketItemCreated(... */\n      mload(0x40)\n      tag_193\n      swap4\n      swap3\n      swap2\n      swap1\n      tag_140\n      jump\t// in\n    tag_193:\n      mload(0x40)\n      dup1\n      swap2\n      sub\n      swap1\n      log3\n        /* \"contracts/Marketplace2/Marketplace.sol\":18095:18771  {... */\n      pop\n      pop\n        /* \"contracts/Marketplace2/Marketplace.sol\":18018:18771  function createMarketItem(... */\n      pop\n      pop\n      jump\t// out\n        /* \"contracts/Marketplace2/Marketplace.sol\":16171:16194  IERC20 public mainToken */\n    tag_56:\n      0x09\n      0x00\n      swap1\n      sload\n      swap1\n      0x0100\n      exp\n      swap1\n      div\n      0xffffffffffffffffffffffffffffffffffffffff\n      and\n      dup2\n      jump\t// out\n        /* \"contracts/Marketplace2/Marketplace.sol\":15871:15903  MarketItem public allMarketItems */\n    tag_60:\n      0x01\n      dup1\n      0x00\n      add\n      sload\n      swap1\n      dup1\n      0x01\n      add\n      sload\n      swap1\n      dup1\n      0x02\n      add\n      0x00\n      swap1\n      sload\n      swap1\n      0x0100\n      exp\n      swap1\n      div\n      0xffffffffffffffffffffffffffffffffffffffff\n      and\n      swap1\n      dup1\n      0x03\n      add\n      0x00\n      swap1\n      sload\n      swap1\n      0x0100\n      exp\n      swap1\n      div\n      0xffffffffffffffffffffffffffffffffffffffff\n      and\n      swap1\n      dup1\n      0x04\n      add\n      sload\n      swap1\n      dup1\n      0x05\n      add\n      0x00\n      swap1\n      sload\n      swap1\n      0x0100\n      exp\n      swap1\n      div\n      0xff\n      and\n      swap1\n      pop\n      dup7\n      jump\t// out\n        /* \"contracts/Marketplace2/Marketplace.sol\":17912:18014  function setFactory(address _address) external onlyOwner {... */\n    tag_65:\n        /* \"contracts/Marketplace2/Marketplace.sol\":1899:1911  _msgSender() */\n      tag_195\n        /* \"contracts/Marketplace2/Marketplace.sol\":1899:1909  _msgSender */\n      tag_152\n        /* \"contracts/Marketplace2/Marketplace.sol\":1899:1911  _msgSender() */\n      jump\t// in\n    tag_195:\n        /* \"contracts/Marketplace2/Marketplace.sol\":1888:1911  owner() == _msgSender() */\n      0xffffffffffffffffffffffffffffffffffffffff\n      and\n        /* \"contracts/Marketplace2/Marketplace.sol\":1888:1895  owner() */\n      tag_196\n        /* \"contracts/Marketplace2/Marketplace.sol\":1888:1893  owner */\n      tag_82\n        /* \"contracts/Marketplace2/Marketplace.sol\":1888:1895  owner() */\n      jump\t// in\n    tag_196:\n        /* \"contracts/Marketplace2/Marketplace.sol\":1888:1911  owner() == _msgSender() */\n      0xffffffffffffffffffffffffffffffffffffffff\n      and\n      eq\n        /* \"contracts/Marketplace2/Marketplace.sol\":1880:1948  require(owner() == _msgSender(), \"Ownable: caller is not the owner\") */\n      tag_197\n      jumpi\n      mload(0x40)\n      0x08c379a000000000000000000000000000000000000000000000000000000000\n      dup2\n      mstore\n      0x04\n      add\n      tag_198\n      swap1\n      tag_156\n      jump\t// in\n    tag_198:\n      mload(0x40)\n      dup1\n      swap2\n      sub\n      swap1\n      revert\n    tag_197:\n        /* \"contracts/Marketplace2/Marketplace.sol\":17998:18006  _address */\n      dup1\n        /* \"contracts/Marketplace2/Marketplace.sol\":17979:17986  factory */\n      0x0a\n      0x00\n        /* \"contracts/Marketplace2/Marketplace.sol\":17979:18007  factory = IFactory(_address) */\n      0x0100\n      exp\n      dup2\n      sload\n      dup2\n      0xffffffffffffffffffffffffffffffffffffffff\n      mul\n      not\n      and\n      swap1\n      dup4\n      0xffffffffffffffffffffffffffffffffffffffff\n      and\n      mul\n      or\n      swap1\n      sstore\n      pop\n        /* \"contracts/Marketplace2/Marketplace.sol\":17912:18014  function setFactory(address _address) external onlyOwner {... */\n      pop\n      jump\t// out\n        /* \"contracts/Marketplace2/Marketplace.sol\":16101:16164  mapping(address => mapping(uint256 => MarketItem)) public items */\n    tag_69:\n      mstore(0x20, 0x08)\n      dup2\n      0x00\n      mstore\n      mstore(0x20, keccak256(0x00, 0x40))\n      dup1\n      0x00\n      mstore\n      keccak256(0x00, 0x40)\n      0x00\n      swap2\n      pop\n      swap2\n      pop\n      pop\n      dup1\n      0x00\n      add\n      sload\n      swap1\n      dup1\n      0x01\n      add\n      sload\n      swap1\n      dup1\n      0x02\n      add\n      0x00\n      swap1\n      sload\n      swap1\n      0x0100\n      exp\n      swap1\n      div\n      0xffffffffffffffffffffffffffffffffffffffff\n      and\n      swap1\n      dup1\n      0x03\n      add\n      0x00\n      swap1\n      sload\n      swap1\n      0x0100\n      exp\n      swap1\n      div\n      0xffffffffffffffffffffffffffffffffffffffff\n      and\n      swap1\n      dup1\n      0x04\n      add\n      sload\n      swap1\n      dup1\n      0x05\n      add\n      0x00\n      swap1\n      sload\n      swap1\n      0x0100\n      exp\n      swap1\n      div\n      0xff\n      and\n      swap1\n      pop\n      dup7\n      jump\t// out\n        /* \"contracts/Marketplace2/Marketplace.sol\":20032:20730  function fetchMySelling() public view returns (MarketItem[] memory) {... */\n    tag_72:\n        /* \"contracts/Marketplace2/Marketplace.sol\":20079:20098  MarketItem[] memory */\n      0x60\n        /* \"contracts/Marketplace2/Marketplace.sol\":20106:20125  uint totalItemCount */\n      0x00\n        /* \"contracts/Marketplace2/Marketplace.sol\":20128:20146  _itemIds.current() */\n      tag_201\n        /* \"contracts/Marketplace2/Marketplace.sol\":20128:20136  _itemIds */\n      0x0d\n        /* \"contracts/Marketplace2/Marketplace.sol\":20128:20144  _itemIds.current */\n      tag_184\n        /* \"contracts/Marketplace2/Marketplace.sol\":20128:20146  _itemIds.current() */\n      jump\t// in\n    tag_201:\n        /* \"contracts/Marketplace2/Marketplace.sol\":20106:20146  uint totalItemCount = _itemIds.current() */\n      swap1\n      pop\n        /* \"contracts/Marketplace2/Marketplace.sol\":20152:20166  uint itemCount */\n      0x00\n        /* \"contracts/Marketplace2/Marketplace.sol\":20176:20193  uint currentIndex */\n      dup1\n        /* \"contracts/Marketplace2/Marketplace.sol\":20209:20215  uint i */\n      0x00\n        /* \"contracts/Marketplace2/Marketplace.sol\":20204:20336  for (uint i = 0; i < totalItemCount; i++) {... */\n    tag_202:\n        /* \"contracts/Marketplace2/Marketplace.sol\":20225:20239  totalItemCount */\n      dup4\n        /* \"contracts/Marketplace2/Marketplace.sol\":20221:20222  i */\n      dup2\n        /* \"contracts/Marketplace2/Marketplace.sol\":20221:20239  i < totalItemCount */\n      lt\n        /* \"contracts/Marketplace2/Marketplace.sol\":20204:20336  for (uint i = 0; i < totalItemCount; i++) {... */\n      iszero\n      tag_203\n      jumpi\n        /* \"contracts/Marketplace2/Marketplace.sol\":20285:20295  msg.sender */\n      caller\n        /* \"contracts/Marketplace2/Marketplace.sol\":20258:20295  idToMarketItem[i].owner == msg.sender */\n      0xffffffffffffffffffffffffffffffffffffffff\n      and\n        /* \"contracts/Marketplace2/Marketplace.sol\":20258:20272  idToMarketItem */\n      0x0f\n        /* \"contracts/Marketplace2/Marketplace.sol\":20258:20275  idToMarketItem[i] */\n      0x00\n        /* \"contracts/Marketplace2/Marketplace.sol\":20273:20274  i */\n      dup4\n        /* \"contracts/Marketplace2/Marketplace.sol\":20258:20275  idToMarketItem[i] */\n      dup2\n      mstore\n      0x20\n      add\n      swap1\n      dup2\n      mstore\n      0x20\n      add\n      0x00\n      keccak256\n        /* \"contracts/Marketplace2/Marketplace.sol\":20258:20281  idToMarketItem[i].owner */\n      0x03\n      add\n      0x00\n      swap1\n      sload\n      swap1\n      0x0100\n      exp\n      swap1\n      div\n      0xffffffffffffffffffffffffffffffffffffffff\n      and\n        /* \"contracts/Marketplace2/Marketplace.sol\":20258:20295  idToMarketItem[i].owner == msg.sender */\n      0xffffffffffffffffffffffffffffffffffffffff\n      and\n      sub\n        /* \"contracts/Marketplace2/Marketplace.sol\":20254:20330  if (idToMarketItem[i].owner == msg.sender) {... */\n      tag_205\n      jumpi\n        /* \"contracts/Marketplace2/Marketplace.sol\":20320:20321  1 */\n      0x01\n        /* \"contracts/Marketplace2/Marketplace.sol\":20307:20321  itemCount += 1 */\n      dup4\n      tag_206\n      swap2\n      swap1\n      tag_207\n      jump\t// in\n    tag_206:\n      swap3\n      pop\n        /* \"contracts/Marketplace2/Marketplace.sol\":20254:20330  if (idToMarketItem[i].owner == msg.sender) {... */\n    tag_205:\n        /* \"contracts/Marketplace2/Marketplace.sol\":20241:20244  i++ */\n      dup1\n      dup1\n      tag_208\n      swap1\n      tag_209\n      jump\t// in\n    tag_208:\n      swap2\n      pop\n      pop\n        /* \"contracts/Marketplace2/Marketplace.sol\":20204:20336  for (uint i = 0; i < totalItemCount; i++) {... */\n      jump(tag_202)\n    tag_203:\n      pop\n        /* \"contracts/Marketplace2/Marketplace.sol\":20342:20367  MarketItem[] memory items */\n      0x00\n        /* \"contracts/Marketplace2/Marketplace.sol\":20387:20396  itemCount */\n      dup3\n        /* \"contracts/Marketplace2/Marketplace.sol\":20370:20397  new MarketItem[](itemCount) */\n      0xffffffffffffffff\n      dup2\n      gt\n      iszero\n      tag_210\n      jumpi\n      tag_211\n      tag_212\n      jump\t// in\n    tag_211:\n    tag_210:\n      mload(0x40)\n      swap1\n      dup1\n      dup3\n      mstore\n      dup1\n      0x20\n      mul\n      0x20\n      add\n      dup3\n      add\n      0x40\n      mstore\n      dup1\n      iszero\n      tag_213\n      jumpi\n      dup2\n      0x20\n      add\n    tag_214:\n      tag_215\n      tag_111\n      jump\t// in\n    tag_215:\n      dup2\n      mstore\n      0x20\n      add\n      swap1\n      0x01\n      swap1\n      sub\n      swap1\n      dup2\n      tag_214\n      jumpi\n      swap1\n      pop\n    tag_213:\n      pop\n        /* \"contracts/Marketplace2/Marketplace.sol\":20342:20397  MarketItem[] memory items = new MarketItem[](itemCount) */\n      swap1\n      pop\n        /* \"contracts/Marketplace2/Marketplace.sol\":20408:20414  uint i */\n      0x00\n        /* \"contracts/Marketplace2/Marketplace.sol\":20403:20708  for (uint i = 0; i < totalItemCount; i++) {... */\n    tag_216:\n        /* \"contracts/Marketplace2/Marketplace.sol\":20424:20438  totalItemCount */\n      dup5\n        /* \"contracts/Marketplace2/Marketplace.sol\":20420:20421  i */\n      dup2\n        /* \"contracts/Marketplace2/Marketplace.sol\":20420:20438  i < totalItemCount */\n      lt\n        /* \"contracts/Marketplace2/Marketplace.sol\":20403:20708  for (uint i = 0; i < totalItemCount; i++) {... */\n      iszero\n      tag_217\n      jumpi\n        /* \"contracts/Marketplace2/Marketplace.sol\":20488:20498  msg.sender */\n      caller\n        /* \"contracts/Marketplace2/Marketplace.sol\":20457:20498  idToMarketItem[i + 1].owner == msg.sender */\n      0xffffffffffffffffffffffffffffffffffffffff\n      and\n        /* \"contracts/Marketplace2/Marketplace.sol\":20457:20471  idToMarketItem */\n      0x0f\n        /* \"contracts/Marketplace2/Marketplace.sol\":20457:20478  idToMarketItem[i + 1] */\n      0x00\n        /* \"contracts/Marketplace2/Marketplace.sol\":20476:20477  1 */\n      0x01\n        /* \"contracts/Marketplace2/Marketplace.sol\":20472:20473  i */\n      dup5\n        /* \"contracts/Marketplace2/Marketplace.sol\":20472:20477  i + 1 */\n      tag_219\n      swap2\n      swap1\n      tag_207\n      jump\t// in\n    tag_219:\n        /* \"contracts/Marketplace2/Marketplace.sol\":20457:20478  idToMarketItem[i + 1] */\n      dup2\n      mstore\n      0x20\n      add\n      swap1\n      dup2\n      mstore\n      0x20\n      add\n      0x00\n      keccak256\n        /* \"contracts/Marketplace2/Marketplace.sol\":20457:20484  idToMarketItem[i + 1].owner */\n      0x03\n      add\n      0x00\n      swap1\n      sload\n      swap1\n      0x0100\n      exp\n      swap1\n      div\n      0xffffffffffffffffffffffffffffffffffffffff\n      and\n        /* \"contracts/Marketplace2/Marketplace.sol\":20457:20498  idToMarketItem[i + 1].owner == msg.sender */\n      0xffffffffffffffffffffffffffffffffffffffff\n      and\n      sub\n        /* \"contracts/Marketplace2/Marketplace.sol\":20453:20702  if (idToMarketItem[i + 1].owner == msg.sender) {... */\n      tag_220\n      jumpi\n        /* \"contracts/Marketplace2/Marketplace.sol\":20510:20524  uint currentId */\n      0x00\n        /* \"contracts/Marketplace2/Marketplace.sol\":20527:20541  idToMarketItem */\n      0x0f\n        /* \"contracts/Marketplace2/Marketplace.sol\":20527:20548  idToMarketItem[i + 1] */\n      0x00\n        /* \"contracts/Marketplace2/Marketplace.sol\":20546:20547  1 */\n      0x01\n        /* \"contracts/Marketplace2/Marketplace.sol\":20542:20543  i */\n      dup5\n        /* \"contracts/Marketplace2/Marketplace.sol\":20542:20547  i + 1 */\n      tag_221\n      swap2\n      swap1\n      tag_207\n      jump\t// in\n    tag_221:\n        /* \"contracts/Marketplace2/Marketplace.sol\":20527:20548  idToMarketItem[i + 1] */\n      dup2\n      mstore\n      0x20\n      add\n      swap1\n      dup2\n      mstore\n      0x20\n      add\n      0x00\n      keccak256\n        /* \"contracts/Marketplace2/Marketplace.sol\":20527:20555  idToMarketItem[i + 1].itemId */\n      0x00\n      add\n      sload\n        /* \"contracts/Marketplace2/Marketplace.sol\":20510:20555  uint currentId = idToMarketItem[i + 1].itemId */\n      swap1\n      pop\n        /* \"contracts/Marketplace2/Marketplace.sol\":20565:20595  MarketItem storage currentItem */\n      0x00\n        /* \"contracts/Marketplace2/Marketplace.sol\":20598:20612  idToMarketItem */\n      0x0f\n        /* \"contracts/Marketplace2/Marketplace.sol\":20598:20623  idToMarketItem[currentId] */\n      0x00\n        /* \"contracts/Marketplace2/Marketplace.sol\":20613:20622  currentId */\n      dup4\n        /* \"contracts/Marketplace2/Marketplace.sol\":20598:20623  idToMarketItem[currentId] */\n      dup2\n      mstore\n      0x20\n      add\n      swap1\n      dup2\n      mstore\n      0x20\n      add\n      0x00\n      keccak256\n        /* \"contracts/Marketplace2/Marketplace.sol\":20565:20623  MarketItem storage currentItem = idToMarketItem[currentId] */\n      swap1\n      pop\n        /* \"contracts/Marketplace2/Marketplace.sol\":20655:20666  currentItem */\n      dup1\n        /* \"contracts/Marketplace2/Marketplace.sol\":20633:20666  items[currentIndex] = currentItem */\n      mload(0x40)\n      dup1\n      0xc0\n      add\n      0x40\n      mstore\n      swap1\n      dup2\n      0x00\n      dup3\n      add\n      sload\n      dup2\n      mstore\n      0x20\n      add\n      0x01\n      dup3\n      add\n      sload\n      dup2\n      mstore\n      0x20\n      add\n      0x02\n      dup3\n      add\n      0x00\n      swap1\n      sload\n      swap1\n      0x0100\n      exp\n      swap1\n      div\n      0xffffffffffffffffffffffffffffffffffffffff\n      and\n      0xffffffffffffffffffffffffffffffffffffffff\n      and\n      0xffffffffffffffffffffffffffffffffffffffff\n      and\n      dup2\n      mstore\n      0x20\n      add\n      0x03\n      dup3\n      add\n      0x00\n      swap1\n      sload\n      swap1\n      0x0100\n      exp\n      swap1\n      div\n      0xffffffffffffffffffffffffffffffffffffffff\n      and\n      0xffffffffffffffffffffffffffffffffffffffff\n      and\n      0xffffffffffffffffffffffffffffffffffffffff\n      and\n      dup2\n      mstore\n      0x20\n      add\n      0x04\n      dup3\n      add\n      sload\n      dup2\n      mstore\n      0x20\n      add\n      0x05\n      dup3\n      add\n      0x00\n      swap1\n      sload\n      swap1\n      0x0100\n      exp\n      swap1\n      div\n      0xff\n      and\n      0x01\n      dup2\n      gt\n      iszero\n      tag_222\n      jumpi\n      tag_223\n      tag_115\n      jump\t// in\n    tag_223:\n    tag_222:\n      0x01\n      dup2\n      gt\n      iszero\n      tag_224\n      jumpi\n      tag_225\n      tag_115\n      jump\t// in\n    tag_225:\n    tag_224:\n      dup2\n      mstore\n      pop\n      pop\n        /* \"contracts/Marketplace2/Marketplace.sol\":20633:20638  items */\n      dup5\n        /* \"contracts/Marketplace2/Marketplace.sol\":20639:20651  currentIndex */\n      dup7\n        /* \"contracts/Marketplace2/Marketplace.sol\":20633:20652  items[currentIndex] */\n      dup2\n      mload\n      dup2\n      lt\n      tag_226\n      jumpi\n      tag_227\n      tag_228\n      jump\t// in\n    tag_227:\n    tag_226:\n      0x20\n      mul\n      0x20\n      add\n      add\n        /* \"contracts/Marketplace2/Marketplace.sol\":20633:20666  items[currentIndex] = currentItem */\n      dup2\n      swap1\n      mstore\n      pop\n        /* \"contracts/Marketplace2/Marketplace.sol\":20692:20693  1 */\n      0x01\n        /* \"contracts/Marketplace2/Marketplace.sol\":20676:20693  currentIndex += 1 */\n      dup6\n      tag_229\n      swap2\n      swap1\n      tag_207\n      jump\t// in\n    tag_229:\n      swap5\n      pop\n        /* \"contracts/Marketplace2/Marketplace.sol\":20500:20702  {... */\n      pop\n      pop\n        /* \"contracts/Marketplace2/Marketplace.sol\":20453:20702  if (idToMarketItem[i + 1].owner == msg.sender) {... */\n    tag_220:\n        /* \"contracts/Marketplace2/Marketplace.sol\":20440:20443  i++ */\n      dup1\n      dup1\n      tag_230\n      swap1\n      tag_209\n      jump\t// in\n    tag_230:\n      swap2\n      pop\n      pop\n        /* \"contracts/Marketplace2/Marketplace.sol\":20403:20708  for (uint i = 0; i < totalItemCount; i++) {... */\n      jump(tag_216)\n    tag_217:\n      pop\n        /* \"contracts/Marketplace2/Marketplace.sol\":20720:20725  items */\n      dup1\n        /* \"contracts/Marketplace2/Marketplace.sol\":20713:20725  return items */\n      swap5\n      pop\n      pop\n      pop\n      pop\n      pop\n        /* \"contracts/Marketplace2/Marketplace.sol\":20032:20730  function fetchMySelling() public view returns (MarketItem[] memory) {... */\n      swap1\n      jump\t// out\n        /* \"contracts/Marketplace2/Marketplace.sol\":2308:2409  function renounceOwnership() public virtual onlyOwner {... */\n    tag_76:\n        /* \"contracts/Marketplace2/Marketplace.sol\":1899:1911  _msgSender() */\n      tag_232\n        /* \"contracts/Marketplace2/Marketplace.sol\":1899:1909  _msgSender */\n      tag_152\n        /* \"contracts/Marketplace2/Marketplace.sol\":1899:1911  _msgSender() */\n      jump\t// in\n    tag_232:\n        /* \"contracts/Marketplace2/Marketplace.sol\":1888:1911  owner() == _msgSender() */\n      0xffffffffffffffffffffffffffffffffffffffff\n      and\n        /* \"contracts/Marketplace2/Marketplace.sol\":1888:1895  owner() */\n      tag_233\n        /* \"contracts/Marketplace2/Marketplace.sol\":1888:1893  owner */\n      tag_82\n        /* \"contracts/Marketplace2/Marketplace.sol\":1888:1895  owner() */\n      jump\t// in\n    tag_233:\n        /* \"contracts/Marketplace2/Marketplace.sol\":1888:1911  owner() == _msgSender() */\n      0xffffffffffffffffffffffffffffffffffffffff\n      and\n      eq\n        /* \"contracts/Marketplace2/Marketplace.sol\":1880:1948  require(owner() == _msgSender(), \"Ownable: caller is not the owner\") */\n      tag_234\n      jumpi\n      mload(0x40)\n      0x08c379a000000000000000000000000000000000000000000000000000000000\n      dup2\n      mstore\n      0x04\n      add\n      tag_235\n      swap1\n      tag_156\n      jump\t// in\n    tag_235:\n      mload(0x40)\n      dup1\n      swap2\n      sub\n      swap1\n      revert\n    tag_234:\n        /* \"contracts/Marketplace2/Marketplace.sol\":2372:2402  _transferOwnership(address(0)) */\n      tag_237\n        /* \"contracts/Marketplace2/Marketplace.sol\":2399:2400  0 */\n      0x00\n        /* \"contracts/Marketplace2/Marketplace.sol\":2372:2390  _transferOwnership */\n      tag_238\n        /* \"contracts/Marketplace2/Marketplace.sol\":2372:2402  _transferOwnership(address(0)) */\n      jump\t// in\n    tag_237:\n        /* \"contracts/Marketplace2/Marketplace.sol\":2308:2409  function renounceOwnership() public virtual onlyOwner {... */\n      jump\t// out\n        /* \"contracts/Marketplace2/Marketplace.sol\":16259:16285  uint8 public bnbFeePercent */\n    tag_78:\n      0x0b\n      0x14\n      swap1\n      sload\n      swap1\n      0x0100\n      exp\n      swap1\n      div\n      0xff\n      and\n      dup2\n      jump\t// out\n        /* \"contracts/Marketplace2/Marketplace.sol\":1676:1761  function owner() public view virtual returns (address) {... */\n    tag_82:\n        /* \"contracts/Marketplace2/Marketplace.sol\":1722:1729  address */\n      0x00\n        /* \"contracts/Marketplace2/Marketplace.sol\":1748:1754  _owner */\n      0x0c\n      0x00\n      swap1\n      sload\n      swap1\n      0x0100\n      exp\n      swap1\n      div\n      0xffffffffffffffffffffffffffffffffffffffff\n      and\n        /* \"contracts/Marketplace2/Marketplace.sol\":1741:1754  return _owner */\n      swap1\n      pop\n        /* \"contracts/Marketplace2/Marketplace.sol\":1676:1761  function owner() public view virtual returns (address) {... */\n      swap1\n      jump\t// out\n        /* \"contracts/Marketplace2/Marketplace.sol\":18774:19767  function createMarketSale(... */\n    tag_87:\n        /* \"contracts/Marketplace2/Marketplace.sol\":18859:18869  uint price */\n      0x00\n        /* \"contracts/Marketplace2/Marketplace.sol\":18872:18886  idToMarketItem */\n      0x0f\n        /* \"contracts/Marketplace2/Marketplace.sol\":18872:18894  idToMarketItem[itemId] */\n      0x00\n        /* \"contracts/Marketplace2/Marketplace.sol\":18887:18893  itemId */\n      dup5\n        /* \"contracts/Marketplace2/Marketplace.sol\":18872:18894  idToMarketItem[itemId] */\n      dup2\n      mstore\n      0x20\n      add\n      swap1\n      dup2\n      mstore\n      0x20\n      add\n      0x00\n      keccak256\n        /* \"contracts/Marketplace2/Marketplace.sol\":18872:18900  idToMarketItem[itemId].price */\n      0x04\n      add\n      sload\n        /* \"contracts/Marketplace2/Marketplace.sol\":18859:18900  uint price = idToMarketItem[itemId].price */\n      swap1\n      pop\n        /* \"contracts/Marketplace2/Marketplace.sol\":18906:18918  uint tokenId */\n      0x00\n        /* \"contracts/Marketplace2/Marketplace.sol\":18921:18935  idToMarketItem */\n      0x0f\n        /* \"contracts/Marketplace2/Marketplace.sol\":18921:18943  idToMarketItem[itemId] */\n      0x00\n        /* \"contracts/Marketplace2/Marketplace.sol\":18936:18942  itemId */\n      dup6\n        /* \"contracts/Marketplace2/Marketplace.sol\":18921:18943  idToMarketItem[itemId] */\n      dup2\n      mstore\n      0x20\n      add\n      swap1\n      dup2\n      mstore\n      0x20\n      add\n      0x00\n      keccak256\n        /* \"contracts/Marketplace2/Marketplace.sol\":18921:18951  idToMarketItem[itemId].tokenId */\n      0x01\n      add\n      sload\n        /* \"contracts/Marketplace2/Marketplace.sol\":18906:18951  uint tokenId = idToMarketItem[itemId].tokenId */\n      swap1\n      pop\n        /* \"contracts/Marketplace2/Marketplace.sol\":18957:18971  address seller */\n      0x00\n        /* \"contracts/Marketplace2/Marketplace.sol\":18975:18989  idToMarketItem */\n      0x0f\n        /* \"contracts/Marketplace2/Marketplace.sol\":18975:18997  idToMarketItem[itemId] */\n      0x00\n        /* \"contracts/Marketplace2/Marketplace.sol\":18990:18996  itemId */\n      dup7\n        /* \"contracts/Marketplace2/Marketplace.sol\":18975:18997  idToMarketItem[itemId] */\n      dup2\n      mstore\n      0x20\n      add\n      swap1\n      dup2\n      mstore\n      0x20\n      add\n      0x00\n      keccak256\n        /* \"contracts/Marketplace2/Marketplace.sol\":18975:19004  idToMarketItem[itemId].seller */\n      0x02\n      add\n      0x00\n      swap1\n      sload\n      swap1\n      0x0100\n      exp\n      swap1\n      div\n      0xffffffffffffffffffffffffffffffffffffffff\n      and\n        /* \"contracts/Marketplace2/Marketplace.sol\":18957:19004  address seller =  idToMarketItem[itemId].seller */\n      swap1\n      pop\n        /* \"contracts/Marketplace2/Marketplace.sol\":19010:19042  IFactory.ingameItems memory item */\n      0x00\n        /* \"contracts/Marketplace2/Marketplace.sol\":19045:19052  factory */\n      0x0a\n      0x00\n      swap1\n      sload\n      swap1\n      0x0100\n      exp\n      swap1\n      div\n      0xffffffffffffffffffffffffffffffffffffffff\n      and\n        /* \"contracts/Marketplace2/Marketplace.sol\":19045:19063  factory.ingameItem */\n      0xffffffffffffffffffffffffffffffffffffffff\n      and\n      0xd30bdac9\n        /* \"contracts/Marketplace2/Marketplace.sol\":19064:19071  tokenId */\n      dup5\n        /* \"contracts/Marketplace2/Marketplace.sol\":19045:19072  factory.ingameItem(tokenId) */\n      mload(0x40)\n      dup3\n      0xffffffff\n      and\n      0xe0\n      shl\n      dup2\n      mstore\n      0x04\n      add\n      tag_241\n      swap2\n      swap1\n      tag_175\n      jump\t// in\n    tag_241:\n      0x00\n      mload(0x40)\n      dup1\n      dup4\n      sub\n      dup2\n      dup7\n      gas\n      staticcall\n      iszero\n      dup1\n      iszero\n      tag_243\n      jumpi\n      returndatasize\n      0x00\n      dup1\n      returndatacopy\n      revert(0x00, returndatasize)\n    tag_243:\n      pop\n      pop\n      pop\n      pop\n      mload(0x40)\n      returndatasize\n      0x00\n      dup3\n      returndatacopy\n      returndatasize\n      not(0x1f)\n      0x1f\n      dup3\n      add\n      and\n      dup3\n      add\n      dup1\n      0x40\n      mstore\n      pop\n      dup2\n      add\n      swap1\n      tag_244\n      swap2\n      swap1\n      tag_179\n      jump\t// in\n    tag_244:\n        /* \"contracts/Marketplace2/Marketplace.sol\":19010:19072  IFactory.ingameItems memory item = factory.ingameItem(tokenId) */\n      swap1\n      pop\n        /* \"contracts/Marketplace2/Marketplace.sol\":19096:19101  price */\n      dup4\n        /* \"contracts/Marketplace2/Marketplace.sol\":19086:19092  amount */\n      dup6\n        /* \"contracts/Marketplace2/Marketplace.sol\":19086:19101  amount == price */\n      eq\n        /* \"contracts/Marketplace2/Marketplace.sol\":19078:19170  require(amount == price, \"Please submit the asking price in order to complete the purchase\") */\n      tag_245\n      jumpi\n      mload(0x40)\n      0x08c379a000000000000000000000000000000000000000000000000000000000\n      dup2\n      mstore\n      0x04\n      add\n      tag_246\n      swap1\n      tag_247\n      jump\t// in\n    tag_246:\n      mload(0x40)\n      dup1\n      swap2\n      sub\n      swap1\n      revert\n    tag_245:\n        /* \"contracts/Marketplace2/Marketplace.sol\":19199:19204  false */\n      0x00\n        /* \"contracts/Marketplace2/Marketplace.sol\":19184:19204  item.ingame == false */\n      iszero\n      iszero\n        /* \"contracts/Marketplace2/Marketplace.sol\":19184:19188  item */\n      dup2\n        /* \"contracts/Marketplace2/Marketplace.sol\":19184:19195  item.ingame */\n      0x80\n      add\n      mload\n        /* \"contracts/Marketplace2/Marketplace.sol\":19184:19204  item.ingame == false */\n      iszero\n      iszero\n      eq\n        /* \"contracts/Marketplace2/Marketplace.sol\":19176:19236  require(item.ingame == false, \"Item is not available now !\") */\n      tag_248\n      jumpi\n      mload(0x40)\n      0x08c379a000000000000000000000000000000000000000000000000000000000\n      dup2\n      mstore\n      0x04\n      add\n      tag_249\n      swap1\n      tag_182\n      jump\t// in\n    tag_249:\n      mload(0x40)\n      dup1\n      swap2\n      sub\n      swap1\n      revert\n    tag_248:\n        /* \"contracts/Marketplace2/Marketplace.sol\":19243:19252  mainToken */\n      0x09\n      0x00\n      swap1\n      sload\n      swap1\n      0x0100\n      exp\n      swap1\n      div\n      0xffffffffffffffffffffffffffffffffffffffff\n      and\n        /* \"contracts/Marketplace2/Marketplace.sol\":19243:19265  mainToken.transferFrom */\n      0xffffffffffffffffffffffffffffffffffffffff\n      and\n      0x23b872dd\n        /* \"contracts/Marketplace2/Marketplace.sol\":19266:19276  msg.sender */\n      caller\n        /* \"contracts/Marketplace2/Marketplace.sol\":19278:19292  idToMarketItem */\n      0x0f\n        /* \"contracts/Marketplace2/Marketplace.sol\":19278:19300  idToMarketItem[itemId] */\n      0x00\n        /* \"contracts/Marketplace2/Marketplace.sol\":19293:19299  itemId */\n      dup11\n        /* \"contracts/Marketplace2/Marketplace.sol\":19278:19300  idToMarketItem[itemId] */\n      dup2\n      mstore\n      0x20\n      add\n      swap1\n      dup2\n      mstore\n      0x20\n      add\n      0x00\n      keccak256\n        /* \"contracts/Marketplace2/Marketplace.sol\":19278:19307  idToMarketItem[itemId].seller */\n      0x02\n      add\n      0x00\n      swap1\n      sload\n      swap1\n      0x0100\n      exp\n      swap1\n      div\n      0xffffffffffffffffffffffffffffffffffffffff\n      and\n        /* \"contracts/Marketplace2/Marketplace.sol\":19310:19316  amount */\n      dup9\n        /* \"contracts/Marketplace2/Marketplace.sol\":19243:19317  mainToken.transferFrom(msg.sender, idToMarketItem[itemId].seller , amount) */\n      mload(0x40)\n      dup5\n      0xffffffff\n      and\n      0xe0\n      shl\n      dup2\n      mstore\n      0x04\n      add\n      tag_250\n      swap4\n      swap3\n      swap2\n      swap1\n      tag_140\n      jump\t// in\n    tag_250:\n      0x20\n      mload(0x40)\n      dup1\n      dup4\n      sub\n      dup2\n      0x00\n      dup8\n      gas\n      call\n      iszero\n      dup1\n      iszero\n      tag_252\n      jumpi\n      returndatasize\n      0x00\n      dup1\n      returndatacopy\n      revert(0x00, returndatasize)\n    tag_252:\n      pop\n      pop\n      pop\n      pop\n      mload(0x40)\n      returndatasize\n      not(0x1f)\n      0x1f\n      dup3\n      add\n      and\n      dup3\n      add\n      dup1\n      0x40\n      mstore\n      pop\n      dup2\n      add\n      swap1\n      tag_253\n      swap2\n      swap1\n      tag_254\n      jump\t// in\n    tag_253:\n      pop\n        /* \"contracts/Marketplace2/Marketplace.sol\":19323:19331  mainNFTs */\n      0x0b\n      0x00\n      swap1\n      sload\n      swap1\n      0x0100\n      exp\n      swap1\n      div\n      0xffffffffffffffffffffffffffffffffffffffff\n      and\n        /* \"contracts/Marketplace2/Marketplace.sol\":19323:19344  mainNFTs.transferFrom */\n      0xffffffffffffffffffffffffffffffffffffffff\n      and\n      0x23b872dd\n        /* \"contracts/Marketplace2/Marketplace.sol\":19353:19357  this */\n      address\n        /* \"contracts/Marketplace2/Marketplace.sol\":19368:19378  msg.sender */\n      caller\n        /* \"contracts/Marketplace2/Marketplace.sol\":19381:19388  tokenId */\n      dup7\n        /* \"contracts/Marketplace2/Marketplace.sol\":19323:19389  mainNFTs.transferFrom(address(this), address(msg.sender), tokenId) */\n      mload(0x40)\n      dup5\n      0xffffffff\n      and\n      0xe0\n      shl\n      dup2\n      mstore\n      0x04\n      add\n      tag_255\n      swap4\n      swap3\n      swap2\n      swap1\n      tag_140\n      jump\t// in\n    tag_255:\n      0x00\n      mload(0x40)\n      dup1\n      dup4\n      sub\n      dup2\n      0x00\n      dup8\n      dup1\n      extcodesize\n      iszero\n      dup1\n      iszero\n      tag_256\n      jumpi\n      0x00\n      dup1\n      revert\n    tag_256:\n      pop\n      gas\n      call\n      iszero\n      dup1\n      iszero\n      tag_258\n      jumpi\n      returndatasize\n      0x00\n      dup1\n      returndatacopy\n      revert(0x00, returndatasize)\n    tag_258:\n      pop\n      pop\n      pop\n      pop\n        /* \"contracts/Marketplace2/Marketplace.sol\":19434:19444  msg.sender */\n      caller\n        /* \"contracts/Marketplace2/Marketplace.sol\":19395:19409  idToMarketItem */\n      0x0f\n        /* \"contracts/Marketplace2/Marketplace.sol\":19395:19417  idToMarketItem[itemId] */\n      0x00\n        /* \"contracts/Marketplace2/Marketplace.sol\":19410:19416  itemId */\n      dup9\n        /* \"contracts/Marketplace2/Marketplace.sol\":19395:19417  idToMarketItem[itemId] */\n      dup2\n      mstore\n      0x20\n      add\n      swap1\n      dup2\n      mstore\n      0x20\n      add\n      0x00\n      keccak256\n        /* \"contracts/Marketplace2/Marketplace.sol\":19395:19423  idToMarketItem[itemId].owner */\n      0x03\n      add\n      0x00\n        /* \"contracts/Marketplace2/Marketplace.sol\":19395:19445  idToMarketItem[itemId].owner = address(msg.sender) */\n      0x0100\n      exp\n      dup2\n      sload\n      dup2\n      0xffffffffffffffffffffffffffffffffffffffff\n      mul\n      not\n      and\n      swap1\n      dup4\n      0xffffffffffffffffffffffffffffffffffffffff\n      and\n      mul\n      or\n      swap1\n      sstore\n      pop\n        /* \"contracts/Marketplace2/Marketplace.sol\":19483:19499  ItemStatus.AVAIL */\n      0x00\n        /* \"contracts/Marketplace2/Marketplace.sol\":19451:19465  idToMarketItem */\n      0x0f\n        /* \"contracts/Marketplace2/Marketplace.sol\":19451:19473  idToMarketItem[itemId] */\n      0x00\n        /* \"contracts/Marketplace2/Marketplace.sol\":19466:19472  itemId */\n      dup9\n        /* \"contracts/Marketplace2/Marketplace.sol\":19451:19473  idToMarketItem[itemId] */\n      dup2\n      mstore\n      0x20\n      add\n      swap1\n      dup2\n      mstore\n      0x20\n      add\n      0x00\n      keccak256\n        /* \"contracts/Marketplace2/Marketplace.sol\":19451:19480  idToMarketItem[itemId].status */\n      0x05\n      add\n      0x00\n        /* \"contracts/Marketplace2/Marketplace.sol\":19451:19499  idToMarketItem[itemId].status = ItemStatus.AVAIL */\n      0x0100\n      exp\n      dup2\n      sload\n      dup2\n      0xff\n      mul\n      not\n      and\n      swap1\n      dup4\n      0x01\n      dup2\n      gt\n      iszero\n      tag_259\n      jumpi\n      tag_260\n      tag_115\n      jump\t// in\n    tag_260:\n    tag_259:\n      mul\n      or\n      swap1\n      sstore\n      pop\n        /* \"contracts/Marketplace2/Marketplace.sol\":19505:19512  factory */\n      0x0a\n      0x00\n      swap1\n      sload\n      swap1\n      0x0100\n      exp\n      swap1\n      div\n      0xffffffffffffffffffffffffffffffffffffffff\n      and\n        /* \"contracts/Marketplace2/Marketplace.sol\":19505:19531  factory.setOwnerIngameItem */\n      0xffffffffffffffffffffffffffffffffffffffff\n      and\n      0xc1e9518a\n        /* \"contracts/Marketplace2/Marketplace.sol\":19540:19544  this */\n      address\n        /* \"contracts/Marketplace2/Marketplace.sol\":19546:19556  msg.sender */\n      caller\n        /* \"contracts/Marketplace2/Marketplace.sol\":19558:19565  tokenId */\n      dup7\n        /* \"contracts/Marketplace2/Marketplace.sol\":19505:19566  factory.setOwnerIngameItem(address(this),msg.sender, tokenId) */\n      mload(0x40)\n      dup5\n      0xffffffff\n      and\n      0xe0\n      shl\n      dup2\n      mstore\n      0x04\n      add\n      tag_261\n      swap4\n      swap3\n      swap2\n      swap1\n      tag_140\n      jump\t// in\n    tag_261:\n      0x00\n      mload(0x40)\n      dup1\n      dup4\n      sub\n      dup2\n      0x00\n      dup8\n      dup1\n      extcodesize\n      iszero\n      dup1\n      iszero\n      tag_262\n      jumpi\n      0x00\n      dup1\n      revert\n    tag_262:\n      pop\n      gas\n      call\n      iszero\n      dup1\n      iszero\n      tag_264\n      jumpi\n      returndatasize\n      0x00\n      dup1\n      returndatacopy\n      revert(0x00, returndatasize)\n    tag_264:\n      pop\n      pop\n      pop\n      pop\n        /* \"contracts/Marketplace2/Marketplace.sol\":19572:19594  _itemsSold.increment() */\n      tag_265\n        /* \"contracts/Marketplace2/Marketplace.sol\":19572:19582  _itemsSold */\n      0x0e\n        /* \"contracts/Marketplace2/Marketplace.sol\":19572:19592  _itemsSold.increment */\n      tag_266\n        /* \"contracts/Marketplace2/Marketplace.sol\":19572:19594  _itemsSold.increment() */\n      jump\t// in\n    tag_265:\n        /* \"contracts/Marketplace2/Marketplace.sol\":19705:19715  msg.sender */\n      caller\n        /* \"contracts/Marketplace2/Marketplace.sol\":19606:19762  BuyItemSuccessful(... */\n      0xffffffffffffffffffffffffffffffffffffffff\n      and\n        /* \"contracts/Marketplace2/Marketplace.sol\":19666:19672  seller */\n      dup3\n        /* \"contracts/Marketplace2/Marketplace.sol\":19606:19762  BuyItemSuccessful(... */\n      0xffffffffffffffffffffffffffffffffffffffff\n      and\n        /* \"contracts/Marketplace2/Marketplace.sol\":19649:19656  tokenId */\n      dup5\n        /* \"contracts/Marketplace2/Marketplace.sol\":19606:19762  BuyItemSuccessful(... */\n      0x551327aee12d0a8b3ede8d0e3182a40a5ff3ed9f1811dd622915db30b609b7df\n        /* \"contracts/Marketplace2/Marketplace.sol\":19633:19639  itemId */\n      dup10\n        /* \"contracts/Marketplace2/Marketplace.sol\":19682:19687  price */\n      dup9\n        /* \"contracts/Marketplace2/Marketplace.sol\":19741:19756  block.timestamp */\n      timestamp\n        /* \"contracts/Marketplace2/Marketplace.sol\":19606:19762  BuyItemSuccessful(... */\n      mload(0x40)\n      tag_267\n      swap4\n      swap3\n      swap2\n      swap1\n      tag_268\n      jump\t// in\n    tag_267:\n      mload(0x40)\n      dup1\n      swap2\n      sub\n      swap1\n      log4\n        /* \"contracts/Marketplace2/Marketplace.sol\":18853:19767  {... */\n      pop\n      pop\n      pop\n      pop\n        /* \"contracts/Marketplace2/Marketplace.sol\":18774:19767  function createMarketSale(... */\n      pop\n      pop\n      jump\t// out\n        /* \"contracts/Marketplace2/Marketplace.sol\":16291:16318  uint8 public antaFeePercent */\n    tag_89:\n      0x0b\n      0x15\n      swap1\n      sload\n      swap1\n      0x0100\n      exp\n      swap1\n      div\n      0xff\n      and\n      dup2\n      jump\t// out\n        /* \"contracts/Marketplace2/Marketplace.sol\":16200:16223  IFactory public factory */\n    tag_92:\n      0x0a\n      0x00\n      swap1\n      sload\n      swap1\n      0x0100\n      exp\n      swap1\n      div\n      0xffffffffffffffffffffffffffffffffffffffff\n      and\n      dup2\n      jump\t// out\n        /* \"contracts/Marketplace2/Marketplace.sol\":17553:17690  function getMarketItem(uint256 marketItemId) public view returns (MarketItem memory) {... */\n    tag_97:\n        /* \"contracts/Marketplace2/Marketplace.sol\":17619:17636  MarketItem memory */\n      tag_269\n      tag_111\n      jump\t// in\n    tag_269:\n        /* \"contracts/Marketplace2/Marketplace.sol\":17655:17669  idToMarketItem */\n      0x0f\n        /* \"contracts/Marketplace2/Marketplace.sol\":17655:17683  idToMarketItem[marketItemId] */\n      0x00\n        /* \"contracts/Marketplace2/Marketplace.sol\":17670:17682  marketItemId */\n      dup4\n        /* \"contracts/Marketplace2/Marketplace.sol\":17655:17683  idToMarketItem[marketItemId] */\n      dup2\n      mstore\n      0x20\n      add\n      swap1\n      dup2\n      mstore\n      0x20\n      add\n      0x00\n      keccak256\n        /* \"contracts/Marketplace2/Marketplace.sol\":17648:17683  return idToMarketItem[marketItemId] */\n      mload(0x40)\n      dup1\n      0xc0\n      add\n      0x40\n      mstore\n      swap1\n      dup2\n      0x00\n      dup3\n      add\n      sload\n      dup2\n      mstore\n      0x20\n      add\n      0x01\n      dup3\n      add\n      sload\n      dup2\n      mstore\n      0x20\n      add\n      0x02\n      dup3\n      add\n      0x00\n      swap1\n      sload\n      swap1\n      0x0100\n      exp\n      swap1\n      div\n      0xffffffffffffffffffffffffffffffffffffffff\n      and\n      0xffffffffffffffffffffffffffffffffffffffff\n      and\n      0xffffffffffffffffffffffffffffffffffffffff\n      and\n      dup2\n      mstore\n      0x20\n      add\n      0x03\n      dup3\n      add\n      0x00\n      swap1\n      sload\n      swap1\n      0x0100\n      exp\n      swap1\n      div\n      0xffffffffffffffffffffffffffffffffffffffff\n      and\n      0xffffffffffffffffffffffffffffffffffffffff\n      and\n      0xffffffffffffffffffffffffffffffffffffffff\n      and\n      dup2\n      mstore\n      0x20\n      add\n      0x04\n      dup3\n      add\n      sload\n      dup2\n      mstore\n      0x20\n      add\n      0x05\n      dup3\n      add\n      0x00\n      swap1\n      sload\n      swap1\n      0x0100\n      exp\n      swap1\n      div\n      0xff\n      and\n      0x01\n      dup2\n      gt\n      iszero\n      tag_271\n      jumpi\n      tag_272\n      tag_115\n      jump\t// in\n    tag_272:\n    tag_271:\n      0x01\n      dup2\n      gt\n      iszero\n      tag_273\n      jumpi\n      tag_274\n      tag_115\n      jump\t// in\n    tag_274:\n    tag_273:\n      dup2\n      mstore\n      pop\n      pop\n      swap1\n      pop\n        /* \"contracts/Marketplace2/Marketplace.sol\":17553:17690  function getMarketItem(uint256 marketItemId) public view returns (MarketItem memory) {... */\n      swap2\n      swap1\n      pop\n      jump\t// out\n        /* \"contracts/Marketplace2/Marketplace.sol\":2558:2756  function transferOwnership(address newOwner) public virtual onlyOwner {... */\n    tag_101:\n        /* \"contracts/Marketplace2/Marketplace.sol\":1899:1911  _msgSender() */\n      tag_276\n        /* \"contracts/Marketplace2/Marketplace.sol\":1899:1909  _msgSender */\n      tag_152\n        /* \"contracts/Marketplace2/Marketplace.sol\":1899:1911  _msgSender() */\n      jump\t// in\n    tag_276:\n        /* \"contracts/Marketplace2/Marketplace.sol\":1888:1911  owner() == _msgSender() */\n      0xffffffffffffffffffffffffffffffffffffffff\n      and\n        /* \"contracts/Marketplace2/Marketplace.sol\":1888:1895  owner() */\n      tag_277\n        /* \"contracts/Marketplace2/Marketplace.sol\":1888:1893  owner */\n      tag_82\n        /* \"contracts/Marketplace2/Marketplace.sol\":1888:1895  owner() */\n      jump\t// in\n    tag_277:\n        /* \"contracts/Marketplace2/Marketplace.sol\":1888:1911  owner() == _msgSender() */\n      0xffffffffffffffffffffffffffffffffffffffff\n      and\n      eq\n        /* \"contracts/Marketplace2/Marketplace.sol\":1880:1948  require(owner() == _msgSender(), \"Ownable: caller is not the owner\") */\n      tag_278\n      jumpi\n      mload(0x40)\n      0x08c379a000000000000000000000000000000000000000000000000000000000\n      dup2\n      mstore\n      0x04\n      add\n      tag_279\n      swap1\n      tag_156\n      jump\t// in\n    tag_279:\n      mload(0x40)\n      dup1\n      swap2\n      sub\n      swap1\n      revert\n    tag_278:\n        /* \"contracts/Marketplace2/Marketplace.sol\":2666:2667  0 */\n      0x00\n        /* \"contracts/Marketplace2/Marketplace.sol\":2646:2668  newOwner != address(0) */\n      0xffffffffffffffffffffffffffffffffffffffff\n      and\n        /* \"contracts/Marketplace2/Marketplace.sol\":2646:2654  newOwner */\n      dup2\n        /* \"contracts/Marketplace2/Marketplace.sol\":2646:2668  newOwner != address(0) */\n      0xffffffffffffffffffffffffffffffffffffffff\n      and\n      sub\n        /* \"contracts/Marketplace2/Marketplace.sol\":2638:2711  require(newOwner != address(0), \"Ownable: new owner is the zero address\") */\n      tag_281\n      jumpi\n      mload(0x40)\n      0x08c379a000000000000000000000000000000000000000000000000000000000\n      dup2\n      mstore\n      0x04\n      add\n      tag_282\n      swap1\n      tag_283\n      jump\t// in\n    tag_282:\n      mload(0x40)\n      dup1\n      swap2\n      sub\n      swap1\n      revert\n    tag_281:\n        /* \"contracts/Marketplace2/Marketplace.sol\":2721:2749  _transferOwnership(newOwner) */\n      tag_284\n        /* \"contracts/Marketplace2/Marketplace.sol\":2740:2748  newOwner */\n      dup2\n        /* \"contracts/Marketplace2/Marketplace.sol\":2721:2739  _transferOwnership */\n      tag_238\n        /* \"contracts/Marketplace2/Marketplace.sol\":2721:2749  _transferOwnership(newOwner) */\n      jump\t// in\n    tag_284:\n        /* \"contracts/Marketplace2/Marketplace.sol\":2558:2756  function transferOwnership(address newOwner) public virtual onlyOwner {... */\n      pop\n      jump\t// out\n        /* \"contracts/Marketplace2/Marketplace.sol\":16229:16252  IERC721 public mainNFTs */\n    tag_103:\n      0x0b\n      0x00\n      swap1\n      sload\n      swap1\n      0x0100\n      exp\n      swap1\n      div\n      0xffffffffffffffffffffffffffffffffffffffff\n      and\n      dup2\n      jump\t// out\n        /* \"contracts/Marketplace2/Marketplace.sol\":15977:16024  mapping (uint256 => MarketItem) public allItems */\n    tag_108:\n      mstore(0x20, 0x07)\n      dup1\n      0x00\n      mstore\n      keccak256(0x00, 0x40)\n      0x00\n      swap2\n      pop\n      swap1\n      pop\n      dup1\n      0x00\n      add\n      sload\n      swap1\n      dup1\n      0x01\n      add\n      sload\n      swap1\n      dup1\n      0x02\n      add\n      0x00\n      swap1\n      sload\n      swap1\n      0x0100\n      exp\n      swap1\n      div\n      0xffffffffffffffffffffffffffffffffffffffff\n      and\n      swap1\n      dup1\n      0x03\n      add\n      0x00\n      swap1\n      sload\n      swap1\n      0x0100\n      exp\n      swap1\n      div\n      0xffffffffffffffffffffffffffffffffffffffff\n      and\n      swap1\n      dup1\n      0x04\n      add\n      sload\n      swap1\n      dup1\n      0x05\n      add\n      0x00\n      swap1\n      sload\n      swap1\n      0x0100\n      exp\n      swap1\n      div\n      0xff\n      and\n      swap1\n      pop\n      dup7\n      jump\t// out\n        /* \"contracts/Marketplace2/Marketplace.sol\":554:650  function _msgSender() internal view virtual returns (address) {... */\n    tag_152:\n        /* \"contracts/Marketplace2/Marketplace.sol\":607:614  address */\n      0x00\n        /* \"contracts/Marketplace2/Marketplace.sol\":633:643  msg.sender */\n      caller\n        /* \"contracts/Marketplace2/Marketplace.sol\":626:643  return msg.sender */\n      swap1\n      pop\n        /* \"contracts/Marketplace2/Marketplace.sol\":554:650  function _msgSender() internal view virtual returns (address) {... */\n      swap1\n      jump\t// out\n        /* \"contracts/Marketplace2/Marketplace.sol\":11851:11963  function current(Counter storage counter) internal view returns (uint256) {... */\n    tag_184:\n        /* \"contracts/Marketplace2/Marketplace.sol\":11916:11923  uint256 */\n      0x00\n        /* \"contracts/Marketplace2/Marketplace.sol\":11942:11949  counter */\n      dup2\n        /* \"contracts/Marketplace2/Marketplace.sol\":11942:11956  counter._value */\n      0x00\n      add\n      sload\n        /* \"contracts/Marketplace2/Marketplace.sol\":11935:11956  return counter._value */\n      swap1\n      pop\n        /* \"contracts/Marketplace2/Marketplace.sol\":11851:11963  function current(Counter storage counter) internal view returns (uint256) {... */\n      swap2\n      swap1\n      pop\n      jump\t// out\n        /* \"contracts/Marketplace2/Marketplace.sol\":2910:3097  function _transferOwnership(address newOwner) internal virtual {... */\n    tag_238:\n        /* \"contracts/Marketplace2/Marketplace.sol\":2983:2999  address oldOwner */\n      0x00\n        /* \"contracts/Marketplace2/Marketplace.sol\":3002:3008  _owner */\n      0x0c\n      0x00\n      swap1\n      sload\n      swap1\n      0x0100\n      exp\n      swap1\n      div\n      0xffffffffffffffffffffffffffffffffffffffff\n      and\n        /* \"contracts/Marketplace2/Marketplace.sol\":2983:3008  address oldOwner = _owner */\n      swap1\n      pop\n        /* \"contracts/Marketplace2/Marketplace.sol\":3027:3035  newOwner */\n      dup2\n        /* \"contracts/Marketplace2/Marketplace.sol\":3018:3024  _owner */\n      0x0c\n      0x00\n        /* \"contracts/Marketplace2/Marketplace.sol\":3018:3035  _owner = newOwner */\n      0x0100\n      exp\n      dup2\n      sload\n      dup2\n      0xffffffffffffffffffffffffffffffffffffffff\n      mul\n      not\n      and\n      swap1\n      dup4\n      0xffffffffffffffffffffffffffffffffffffffff\n      and\n      mul\n      or\n      swap1\n      sstore\n      pop\n        /* \"contracts/Marketplace2/Marketplace.sol\":3081:3089  newOwner */\n      dup2\n        /* \"contracts/Marketplace2/Marketplace.sol\":3050:3090  OwnershipTransferred(oldOwner, newOwner) */\n      0xffffffffffffffffffffffffffffffffffffffff\n      and\n        /* \"contracts/Marketplace2/Marketplace.sol\":3071:3079  oldOwner */\n      dup2\n        /* \"contracts/Marketplace2/Marketplace.sol\":3050:3090  OwnershipTransferred(oldOwner, newOwner) */\n      0xffffffffffffffffffffffffffffffffffffffff\n      and\n      0x8be0079c531659141344cd1fd0a4f28419497f9722a3daafe3b4186f6b6457e0\n      mload(0x40)\n      mload(0x40)\n      dup1\n      swap2\n      sub\n      swap1\n      log3\n        /* \"contracts/Marketplace2/Marketplace.sol\":2973:3097  {... */\n      pop\n        /* \"contracts/Marketplace2/Marketplace.sol\":2910:3097  function _transferOwnership(address newOwner) internal virtual {... */\n      pop\n      jump\t// out\n        /* \"contracts/Marketplace2/Marketplace.sol\":11969:12092  function increment(Counter storage counter) internal {... */\n    tag_266:\n        /* \"contracts/Marketplace2/Marketplace.sol\":12074:12075  1 */\n      0x01\n        /* \"contracts/Marketplace2/Marketplace.sol\":12056:12063  counter */\n      dup2\n        /* \"contracts/Marketplace2/Marketplace.sol\":12056:12070  counter._value */\n      0x00\n      add\n      0x00\n        /* \"contracts/Marketplace2/Marketplace.sol\":12056:12075  counter._value += 1 */\n      dup3\n      dup3\n      sload\n      add\n      swap3\n      pop\n      pop\n      dup2\n      swap1\n      sstore\n      pop\n        /* \"contracts/Marketplace2/Marketplace.sol\":11969:12092  function increment(Counter storage counter) internal {... */\n      pop\n      jump\t// out\n    tag_111:\n      mload(0x40)\n      dup1\n      0xc0\n      add\n      0x40\n      mstore\n      dup1\n      0x00\n      dup2\n      mstore\n      0x20\n      add\n      0x00\n      dup2\n      mstore\n      0x20\n      add\n      and(0xffffffffffffffffffffffffffffffffffffffff, 0x00)\n      dup2\n      mstore\n      0x20\n      add\n      and(0xffffffffffffffffffffffffffffffffffffffff, 0x00)\n      dup2\n      mstore\n      0x20\n      add\n      0x00\n      dup2\n      mstore\n      0x20\n      add\n      0x00\n      0x01\n      dup2\n      gt\n      iszero\n      tag_289\n      jumpi\n      tag_290\n      tag_115\n      jump\t// in\n    tag_290:\n    tag_289:\n      dup2\n      mstore\n      pop\n      swap1\n      jump\t// out\n        /* \"#utility.yul\":7:84   */\n    tag_291:\n        /* \"#utility.yul\":44:51   */\n      0x00\n        /* \"#utility.yul\":73:78   */\n      dup2\n        /* \"#utility.yul\":62:78   */\n      swap1\n      pop\n        /* \"#utility.yul\":7:84   */\n      swap2\n      swap1\n      pop\n      jump\t// out\n        /* \"#utility.yul\":90:198   */\n    tag_292:\n        /* \"#utility.yul\":167:191   */\n      tag_373\n        /* \"#utility.yul\":185:190   */\n      dup2\n        /* \"#utility.yul\":167:191   */\n      tag_291\n      jump\t// in\n    tag_373:\n        /* \"#utility.yul\":162:165   */\n      dup3\n        /* \"#utility.yul\":155:192   */\n      mstore\n        /* \"#utility.yul\":90:198   */\n      pop\n      pop\n      jump\t// out\n        /* \"#utility.yul\":204:330   */\n    tag_293:\n        /* \"#utility.yul\":241:248   */\n      0x00\n        /* \"#utility.yul\":281:323   */\n      0xffffffffffffffffffffffffffffffffffffffff\n        /* \"#utility.yul\":274:279   */\n      dup3\n        /* \"#utility.yul\":270:324   */\n      and\n        /* \"#utility.yul\":259:324   */\n      swap1\n      pop\n        /* \"#utility.yul\":204:330   */\n      swap2\n      swap1\n      pop\n      jump\t// out\n        /* \"#utility.yul\":336:432   */\n    tag_294:\n        /* \"#utility.yul\":373:380   */\n      0x00\n        /* \"#utility.yul\":402:426   */\n      tag_376\n        /* \"#utility.yul\":420:425   */\n      dup3\n        /* \"#utility.yul\":402:426   */\n      tag_293\n      jump\t// in\n    tag_376:\n        /* \"#utility.yul\":391:426   */\n      swap1\n      pop\n        /* \"#utility.yul\":336:432   */\n      swap2\n      swap1\n      pop\n      jump\t// out\n        /* \"#utility.yul\":438:546   */\n    tag_295:\n        /* \"#utility.yul\":515:539   */\n      tag_378\n        /* \"#utility.yul\":533:538   */\n      dup2\n        /* \"#utility.yul\":515:539   */\n      tag_294\n      jump\t// in\n    tag_378:\n        /* \"#utility.yul\":510:513   */\n      dup3\n        /* \"#utility.yul\":503:540   */\n      mstore\n        /* \"#utility.yul\":438:546   */\n      pop\n      pop\n      jump\t// out\n        /* \"#utility.yul\":552:732   */\n    tag_115:\n        /* \"#utility.yul\":600:677   */\n      0x4e487b7100000000000000000000000000000000000000000000000000000000\n        /* \"#utility.yul\":597:598   */\n      0x00\n        /* \"#utility.yul\":590:678   */\n      mstore\n        /* \"#utility.yul\":697:701   */\n      0x21\n        /* \"#utility.yul\":694:695   */\n      0x04\n        /* \"#utility.yul\":687:702   */\n      mstore\n        /* \"#utility.yul\":721:725   */\n      0x24\n        /* \"#utility.yul\":718:719   */\n      0x00\n        /* \"#utility.yul\":711:726   */\n      revert\n        /* \"#utility.yul\":738:857   */\n    tag_296:\n        /* \"#utility.yul\":825:826   */\n      0x02\n        /* \"#utility.yul\":818:823   */\n      dup2\n        /* \"#utility.yul\":815:827   */\n      lt\n        /* \"#utility.yul\":805:851   */\n      tag_381\n      jumpi\n        /* \"#utility.yul\":831:849   */\n      tag_382\n      tag_115\n      jump\t// in\n    tag_382:\n        /* \"#utility.yul\":805:851   */\n    tag_381:\n        /* \"#utility.yul\":738:857   */\n      pop\n      jump\t// out\n        /* \"#utility.yul\":863:1002   */\n    tag_297:\n        /* \"#utility.yul\":914:921   */\n      0x00\n        /* \"#utility.yul\":943:948   */\n      dup2\n        /* \"#utility.yul\":932:948   */\n      swap1\n      pop\n        /* \"#utility.yul\":949:996   */\n      tag_384\n        /* \"#utility.yul\":990:995   */\n      dup3\n        /* \"#utility.yul\":949:996   */\n      tag_296\n      jump\t// in\n    tag_384:\n        /* \"#utility.yul\":863:1002   */\n      swap2\n      swap1\n      pop\n      jump\t// out\n        /* \"#utility.yul\":1008:1147   */\n    tag_298:\n        /* \"#utility.yul\":1070:1079   */\n      0x00\n        /* \"#utility.yul\":1103:1141   */\n      tag_386\n        /* \"#utility.yul\":1135:1140   */\n      dup3\n        /* \"#utility.yul\":1103:1141   */\n      tag_297\n      jump\t// in\n    tag_386:\n        /* \"#utility.yul\":1090:1141   */\n      swap1\n      pop\n        /* \"#utility.yul\":1008:1147   */\n      swap2\n      swap1\n      pop\n      jump\t// out\n        /* \"#utility.yul\":1153:1298   */\n    tag_299:\n        /* \"#utility.yul\":1242:1291   */\n      tag_388\n        /* \"#utility.yul\":1285:1290   */\n      dup2\n        /* \"#utility.yul\":1242:1291   */\n      tag_298\n      jump\t// in\n    tag_388:\n        /* \"#utility.yul\":1237:1240   */\n      dup3\n        /* \"#utility.yul\":1230:1292   */\n      mstore\n        /* \"#utility.yul\":1153:1298   */\n      pop\n      pop\n      jump\t// out\n        /* \"#utility.yul\":1388:2618   */\n    tag_300:\n        /* \"#utility.yul\":1539:1543   */\n      0xc0\n        /* \"#utility.yul\":1534:1537   */\n      dup3\n        /* \"#utility.yul\":1530:1544   */\n      add\n        /* \"#utility.yul\":1628:1632   */\n      0x00\n        /* \"#utility.yul\":1621:1626   */\n      dup3\n        /* \"#utility.yul\":1617:1633   */\n      add\n        /* \"#utility.yul\":1611:1634   */\n      mload\n        /* \"#utility.yul\":1647:1710   */\n      tag_390\n        /* \"#utility.yul\":1704:1708   */\n      0x00\n        /* \"#utility.yul\":1699:1702   */\n      dup6\n        /* \"#utility.yul\":1695:1709   */\n      add\n        /* \"#utility.yul\":1681:1693   */\n      dup3\n        /* \"#utility.yul\":1647:1710   */\n      tag_292\n      jump\t// in\n    tag_390:\n        /* \"#utility.yul\":1554:1720   */\n      pop\n        /* \"#utility.yul\":1805:1809   */\n      0x20\n        /* \"#utility.yul\":1798:1803   */\n      dup3\n        /* \"#utility.yul\":1794:1810   */\n      add\n        /* \"#utility.yul\":1788:1811   */\n      mload\n        /* \"#utility.yul\":1824:1887   */\n      tag_391\n        /* \"#utility.yul\":1881:1885   */\n      0x20\n        /* \"#utility.yul\":1876:1879   */\n      dup6\n        /* \"#utility.yul\":1872:1886   */\n      add\n        /* \"#utility.yul\":1858:1870   */\n      dup3\n        /* \"#utility.yul\":1824:1887   */\n      tag_292\n      jump\t// in\n    tag_391:\n        /* \"#utility.yul\":1730:1897   */\n      pop\n        /* \"#utility.yul\":1981:1985   */\n      0x40\n        /* \"#utility.yul\":1974:1979   */\n      dup3\n        /* \"#utility.yul\":1970:1986   */\n      add\n        /* \"#utility.yul\":1964:1987   */\n      mload\n        /* \"#utility.yul\":2000:2063   */\n      tag_392\n        /* \"#utility.yul\":2057:2061   */\n      0x40\n        /* \"#utility.yul\":2052:2055   */\n      dup6\n        /* \"#utility.yul\":2048:2062   */\n      add\n        /* \"#utility.yul\":2034:2046   */\n      dup3\n        /* \"#utility.yul\":2000:2063   */\n      tag_295\n      jump\t// in\n    tag_392:\n        /* \"#utility.yul\":1907:2073   */\n      pop\n        /* \"#utility.yul\":2156:2160   */\n      0x60\n        /* \"#utility.yul\":2149:2154   */\n      dup3\n        /* \"#utility.yul\":2145:2161   */\n      add\n        /* \"#utility.yul\":2139:2162   */\n      mload\n        /* \"#utility.yul\":2175:2238   */\n      tag_393\n        /* \"#utility.yul\":2232:2236   */\n      0x60\n        /* \"#utility.yul\":2227:2230   */\n      dup6\n        /* \"#utility.yul\":2223:2237   */\n      add\n        /* \"#utility.yul\":2209:2221   */\n      dup3\n        /* \"#utility.yul\":2175:2238   */\n      tag_295\n      jump\t// in\n    tag_393:\n        /* \"#utility.yul\":2083:2248   */\n      pop\n        /* \"#utility.yul\":2331:2335   */\n      0x80\n        /* \"#utility.yul\":2324:2329   */\n      dup3\n        /* \"#utility.yul\":2320:2336   */\n      add\n        /* \"#utility.yul\":2314:2337   */\n      mload\n        /* \"#utility.yul\":2350:2413   */\n      tag_394\n        /* \"#utility.yul\":2407:2411   */\n      0x80\n        /* \"#utility.yul\":2402:2405   */\n      dup6\n        /* \"#utility.yul\":2398:2412   */\n      add\n        /* \"#utility.yul\":2384:2396   */\n      dup3\n        /* \"#utility.yul\":2350:2413   */\n      tag_292\n      jump\t// in\n    tag_394:\n        /* \"#utility.yul\":2258:2423   */\n      pop\n        /* \"#utility.yul\":2507:2511   */\n      0xa0\n        /* \"#utility.yul\":2500:2505   */\n      dup3\n        /* \"#utility.yul\":2496:2512   */\n      add\n        /* \"#utility.yul\":2490:2513   */\n      mload\n        /* \"#utility.yul\":2526:2601   */\n      tag_395\n        /* \"#utility.yul\":2595:2599   */\n      0xa0\n        /* \"#utility.yul\":2590:2593   */\n      dup6\n        /* \"#utility.yul\":2586:2600   */\n      add\n        /* \"#utility.yul\":2572:2584   */\n      dup3\n        /* \"#utility.yul\":2526:2601   */\n      tag_299\n      jump\t// in\n    tag_395:\n        /* \"#utility.yul\":2433:2611   */\n      pop\n        /* \"#utility.yul\":1508:2618   */\n      pop\n        /* \"#utility.yul\":1388:2618   */\n      pop\n      pop\n      jump\t// out\n        /* \"#utility.yul\":2624:2955   */\n    tag_31:\n        /* \"#utility.yul\":2771:2775   */\n      0x00\n        /* \"#utility.yul\":2809:2812   */\n      0xc0\n        /* \"#utility.yul\":2798:2807   */\n      dup3\n        /* \"#utility.yul\":2794:2813   */\n      add\n        /* \"#utility.yul\":2786:2813   */\n      swap1\n      pop\n        /* \"#utility.yul\":2823:2948   */\n      tag_397\n        /* \"#utility.yul\":2945:2946   */\n      0x00\n        /* \"#utility.yul\":2934:2943   */\n      dup4\n        /* \"#utility.yul\":2930:2947   */\n      add\n        /* \"#utility.yul\":2921:2927   */\n      dup5\n        /* \"#utility.yul\":2823:2948   */\n      tag_300\n      jump\t// in\n    tag_397:\n        /* \"#utility.yul\":2624:2955   */\n      swap3\n      swap2\n      pop\n      pop\n      jump\t// out\n        /* \"#utility.yul\":2961:3036   */\n    tag_301:\n        /* \"#utility.yul\":2994:3000   */\n      0x00\n        /* \"#utility.yul\":3027:3029   */\n      0x40\n        /* \"#utility.yul\":3021:3030   */\n      mload\n        /* \"#utility.yul\":3011:3030   */\n      swap1\n      pop\n        /* \"#utility.yul\":2961:3036   */\n      swap1\n      jump\t// out\n        /* \"#utility.yul\":3042:3159   */\n    tag_302:\n        /* \"#utility.yul\":3151:3152   */\n      0x00\n        /* \"#utility.yul\":3148:3149   */\n      dup1\n        /* \"#utility.yul\":3141:3153   */\n      revert\n        /* \"#utility.yul\":3165:3282   */\n    tag_303:\n        /* \"#utility.yul\":3274:3275   */\n      0x00\n        /* \"#utility.yul\":3271:3272   */\n      dup1\n        /* \"#utility.yul\":3264:3276   */\n      revert\n        /* \"#utility.yul\":3288:3410   */\n    tag_304:\n        /* \"#utility.yul\":3361:3385   */\n      tag_402\n        /* \"#utility.yul\":3379:3384   */\n      dup2\n        /* \"#utility.yul\":3361:3385   */\n      tag_291\n      jump\t// in\n    tag_402:\n        /* \"#utility.yul\":3354:3359   */\n      dup2\n        /* \"#utility.yul\":3351:3386   */\n      eq\n        /* \"#utility.yul\":3341:3404   */\n      tag_403\n      jumpi\n        /* \"#utility.yul\":3400:3401   */\n      0x00\n        /* \"#utility.yul\":3397:3398   */\n      dup1\n        /* \"#utility.yul\":3390:3402   */\n      revert\n        /* \"#utility.yul\":3341:3404   */\n    tag_403:\n        /* \"#utility.yul\":3288:3410   */\n      pop\n      jump\t// out\n        /* \"#utility.yul\":3416:3555   */\n    tag_305:\n        /* \"#utility.yul\":3462:3467   */\n      0x00\n        /* \"#utility.yul\":3500:3506   */\n      dup2\n        /* \"#utility.yul\":3487:3507   */\n      calldataload\n        /* \"#utility.yul\":3478:3507   */\n      swap1\n      pop\n        /* \"#utility.yul\":3516:3549   */\n      tag_405\n        /* \"#utility.yul\":3543:3548   */\n      dup2\n        /* \"#utility.yul\":3516:3549   */\n      tag_304\n      jump\t// in\n    tag_405:\n        /* \"#utility.yul\":3416:3555   */\n      swap3\n      swap2\n      pop\n      pop\n      jump\t// out\n        /* \"#utility.yul\":3561:3890   */\n    tag_34:\n        /* \"#utility.yul\":3620:3626   */\n      0x00\n        /* \"#utility.yul\":3669:3671   */\n      0x20\n        /* \"#utility.yul\":3657:3666   */\n      dup3\n        /* \"#utility.yul\":3648:3655   */\n      dup5\n        /* \"#utility.yul\":3644:3667   */\n      sub\n        /* \"#utility.yul\":3640:3672   */\n      slt\n        /* \"#utility.yul\":3637:3756   */\n      iszero\n      tag_407\n      jumpi\n        /* \"#utility.yul\":3675:3754   */\n      tag_408\n      tag_302\n      jump\t// in\n    tag_408:\n        /* \"#utility.yul\":3637:3756   */\n    tag_407:\n        /* \"#utility.yul\":3795:3796   */\n      0x00\n        /* \"#utility.yul\":3820:3873   */\n      tag_409\n        /* \"#utility.yul\":3865:3872   */\n      dup5\n        /* \"#utility.yul\":3856:3862   */\n      dup3\n        /* \"#utility.yul\":3845:3854   */\n      dup6\n        /* \"#utility.yul\":3841:3863   */\n      add\n        /* \"#utility.yul\":3820:3873   */\n      tag_305\n      jump\t// in\n    tag_409:\n        /* \"#utility.yul\":3810:3873   */\n      swap2\n      pop\n        /* \"#utility.yul\":3766:3883   */\n      pop\n        /* \"#utility.yul\":3561:3890   */\n      swap3\n      swap2\n      pop\n      pop\n      jump\t// out\n        /* \"#utility.yul\":3896:4018   */\n    tag_306:\n        /* \"#utility.yul\":3969:3993   */\n      tag_411\n        /* \"#utility.yul\":3987:3992   */\n      dup2\n        /* \"#utility.yul\":3969:3993   */\n      tag_294\n      jump\t// in\n    tag_411:\n        /* \"#utility.yul\":3962:3967   */\n      dup2\n        /* \"#utility.yul\":3959:3994   */\n      eq\n        /* \"#utility.yul\":3949:4012   */\n      tag_412\n      jumpi\n        /* \"#utility.yul\":4008:4009   */\n      0x00\n        /* \"#utility.yul\":4005:4006   */\n      dup1\n        /* \"#utility.yul\":3998:4010   */\n      revert\n        /* \"#utility.yul\":3949:4012   */\n    tag_412:\n        /* \"#utility.yul\":3896:4018   */\n      pop\n      jump\t// out\n        /* \"#utility.yul\":4024:4163   */\n    tag_307:\n        /* \"#utility.yul\":4070:4075   */\n      0x00\n        /* \"#utility.yul\":4108:4114   */\n      dup2\n        /* \"#utility.yul\":4095:4115   */\n      calldataload\n        /* \"#utility.yul\":4086:4115   */\n      swap1\n      pop\n        /* \"#utility.yul\":4124:4157   */\n      tag_414\n        /* \"#utility.yul\":4151:4156   */\n      dup2\n        /* \"#utility.yul\":4124:4157   */\n      tag_306\n      jump\t// in\n    tag_414:\n        /* \"#utility.yul\":4024:4163   */\n      swap3\n      swap2\n      pop\n      pop\n      jump\t// out\n        /* \"#utility.yul\":4169:4498   */\n    tag_38:\n        /* \"#utility.yul\":4228:4234   */\n      0x00\n        /* \"#utility.yul\":4277:4279   */\n      0x20\n        /* \"#utility.yul\":4265:4274   */\n      dup3\n        /* \"#utility.yul\":4256:4263   */\n      dup5\n        /* \"#utility.yul\":4252:4275   */\n      sub\n        /* \"#utility.yul\":4248:4280   */\n      slt\n        /* \"#utility.yul\":4245:4364   */\n      iszero\n      tag_416\n      jumpi\n        /* \"#utility.yul\":4283:4362   */\n      tag_417\n      tag_302\n      jump\t// in\n    tag_417:\n        /* \"#utility.yul\":4245:4364   */\n    tag_416:\n        /* \"#utility.yul\":4403:4404   */\n      0x00\n        /* \"#utility.yul\":4428:4481   */\n      tag_418\n        /* \"#utility.yul\":4473:4480   */\n      dup5\n        /* \"#utility.yul\":4464:4470   */\n      dup3\n        /* \"#utility.yul\":4453:4462   */\n      dup6\n        /* \"#utility.yul\":4449:4471   */\n      add\n        /* \"#utility.yul\":4428:4481   */\n      tag_307\n      jump\t// in\n    tag_418:\n        /* \"#utility.yul\":4418:4481   */\n      swap2\n      pop\n        /* \"#utility.yul\":4374:4491   */\n      pop\n        /* \"#utility.yul\":4169:4498   */\n      swap3\n      swap2\n      pop\n      pop\n      jump\t// out\n        /* \"#utility.yul\":4504:4653   */\n    tag_308:\n        /* \"#utility.yul\":4540:4547   */\n      0x00\n        /* \"#utility.yul\":4580:4646   */\n      0xffffffff00000000000000000000000000000000000000000000000000000000\n        /* \"#utility.yul\":4573:4578   */\n      dup3\n        /* \"#utility.yul\":4569:4647   */\n      and\n        /* \"#utility.yul\":4558:4647   */\n      swap1\n      pop\n        /* \"#utility.yul\":4504:4653   */\n      swap2\n      swap1\n      pop\n      jump\t// out\n        /* \"#utility.yul\":4659:4774   */\n    tag_309:\n        /* \"#utility.yul\":4744:4767   */\n      tag_421\n        /* \"#utility.yul\":4761:4766   */\n      dup2\n        /* \"#utility.yul\":4744:4767   */\n      tag_308\n      jump\t// in\n    tag_421:\n        /* \"#utility.yul\":4739:4742   */\n      dup3\n        /* \"#utility.yul\":4732:4768   */\n      mstore\n        /* \"#utility.yul\":4659:4774   */\n      pop\n      pop\n      jump\t// out\n        /* \"#utility.yul\":4780:4998   */\n    tag_50:\n        /* \"#utility.yul\":4871:4875   */\n      0x00\n        /* \"#utility.yul\":4909:4911   */\n      0x20\n        /* \"#utility.yul\":4898:4907   */\n      dup3\n        /* \"#utility.yul\":4894:4912   */\n      add\n        /* \"#utility.yul\":4886:4912   */\n      swap1\n      pop\n        /* \"#utility.yul\":4922:4991   */\n      tag_423\n        /* \"#utility.yul\":4988:4989   */\n      0x00\n        /* \"#utility.yul\":4977:4986   */\n      dup4\n        /* \"#utility.yul\":4973:4990   */\n      add\n        /* \"#utility.yul\":4964:4970   */\n      dup5\n        /* \"#utility.yul\":4922:4991   */\n      tag_309\n      jump\t// in\n    tag_423:\n        /* \"#utility.yul\":4780:4998   */\n      swap3\n      swap2\n      pop\n      pop\n      jump\t// out\n        /* \"#utility.yul\":5004:5478   */\n    tag_53:\n        /* \"#utility.yul\":5072:5078   */\n      0x00\n        /* \"#utility.yul\":5080:5086   */\n      dup1\n        /* \"#utility.yul\":5129:5131   */\n      0x40\n        /* \"#utility.yul\":5117:5126   */\n      dup4\n        /* \"#utility.yul\":5108:5115   */\n      dup6\n        /* \"#utility.yul\":5104:5127   */\n      sub\n        /* \"#utility.yul\":5100:5132   */\n      slt\n        /* \"#utility.yul\":5097:5216   */\n      iszero\n      tag_425\n      jumpi\n        /* \"#utility.yul\":5135:5214   */\n      tag_426\n      tag_302\n      jump\t// in\n    tag_426:\n        /* \"#utility.yul\":5097:5216   */\n    tag_425:\n        /* \"#utility.yul\":5255:5256   */\n      0x00\n        /* \"#utility.yul\":5280:5333   */\n      tag_427\n        /* \"#utility.yul\":5325:5332   */\n      dup6\n        /* \"#utility.yul\":5316:5322   */\n      dup3\n        /* \"#utility.yul\":5305:5314   */\n      dup7\n        /* \"#utility.yul\":5301:5323   */\n      add\n        /* \"#utility.yul\":5280:5333   */\n      tag_305\n      jump\t// in\n    tag_427:\n        /* \"#utility.yul\":5270:5333   */\n      swap3\n      pop\n        /* \"#utility.yul\":5226:5343   */\n      pop\n        /* \"#utility.yul\":5382:5384   */\n      0x20\n        /* \"#utility.yul\":5408:5461   */\n      tag_428\n        /* \"#utility.yul\":5453:5460   */\n      dup6\n        /* \"#utility.yul\":5444:5450   */\n      dup3\n        /* \"#utility.yul\":5433:5442   */\n      dup7\n        /* \"#utility.yul\":5429:5451   */\n      add\n        /* \"#utility.yul\":5408:5461   */\n      tag_305\n      jump\t// in\n    tag_428:\n        /* \"#utility.yul\":5398:5461   */\n      swap2\n      pop\n        /* \"#utility.yul\":5353:5471   */\n      pop\n        /* \"#utility.yul\":5004:5478   */\n      swap3\n      pop\n      swap3\n      swap1\n      pop\n      jump\t// out\n        /* \"#utility.yul\":5484:5544   */\n    tag_310:\n        /* \"#utility.yul\":5512:5515   */\n      0x00\n        /* \"#utility.yul\":5533:5538   */\n      dup2\n        /* \"#utility.yul\":5526:5538   */\n      swap1\n      pop\n        /* \"#utility.yul\":5484:5544   */\n      swap2\n      swap1\n      pop\n      jump\t// out\n        /* \"#utility.yul\":5550:5692   */\n    tag_311:\n        /* \"#utility.yul\":5600:5609   */\n      0x00\n        /* \"#utility.yul\":5633:5686   */\n      tag_431\n        /* \"#utility.yul\":5651:5685   */\n      tag_432\n        /* \"#utility.yul\":5660:5684   */\n      tag_433\n        /* \"#utility.yul\":5678:5683   */\n      dup5\n        /* \"#utility.yul\":5660:5684   */\n      tag_293\n      jump\t// in\n    tag_433:\n        /* \"#utility.yul\":5651:5685   */\n      tag_310\n      jump\t// in\n    tag_432:\n        /* \"#utility.yul\":5633:5686   */\n      tag_293\n      jump\t// in\n    tag_431:\n        /* \"#utility.yul\":5620:5686   */\n      swap1\n      pop\n        /* \"#utility.yul\":5550:5692   */\n      swap2\n      swap1\n      pop\n      jump\t// out\n        /* \"#utility.yul\":5698:5824   */\n    tag_312:\n        /* \"#utility.yul\":5748:5757   */\n      0x00\n        /* \"#utility.yul\":5781:5818   */\n      tag_435\n        /* \"#utility.yul\":5812:5817   */\n      dup3\n        /* \"#utility.yul\":5781:5818   */\n      tag_311\n      jump\t// in\n    tag_435:\n        /* \"#utility.yul\":5768:5818   */\n      swap1\n      pop\n        /* \"#utility.yul\":5698:5824   */\n      swap2\n      swap1\n      pop\n      jump\t// out\n        /* \"#utility.yul\":5830:5970   */\n    tag_313:\n        /* \"#utility.yul\":5894:5903   */\n      0x00\n        /* \"#utility.yul\":5927:5964   */\n      tag_437\n        /* \"#utility.yul\":5958:5963   */\n      dup3\n        /* \"#utility.yul\":5927:5964   */\n      tag_312\n      jump\t// in\n    tag_437:\n        /* \"#utility.yul\":5914:5964   */\n      swap1\n      pop\n        /* \"#utility.yul\":5830:5970   */\n      swap2\n      swap1\n      pop\n      jump\t// out\n        /* \"#utility.yul\":5976:6135   */\n    tag_314:\n        /* \"#utility.yul\":6077:6128   */\n      tag_439\n        /* \"#utility.yul\":6122:6127   */\n      dup2\n        /* \"#utility.yul\":6077:6128   */\n      tag_313\n      jump\t// in\n    tag_439:\n        /* \"#utility.yul\":6072:6075   */\n      dup3\n        /* \"#utility.yul\":6065:6129   */\n      mstore\n        /* \"#utility.yul\":5976:6135   */\n      pop\n      pop\n      jump\t// out\n        /* \"#utility.yul\":6141:6391   */\n    tag_58:\n        /* \"#utility.yul\":6248:6252   */\n      0x00\n        /* \"#utility.yul\":6286:6288   */\n      0x20\n        /* \"#utility.yul\":6275:6284   */\n      dup3\n        /* \"#utility.yul\":6271:6289   */\n      add\n        /* \"#utility.yul\":6263:6289   */\n      swap1\n      pop\n        /* \"#utility.yul\":6299:6384   */\n      tag_441\n        /* \"#utility.yul\":6381:6382   */\n      0x00\n        /* \"#utility.yul\":6370:6379   */\n      dup4\n        /* \"#utility.yul\":6366:6383   */\n      add\n        /* \"#utility.yul\":6357:6363   */\n      dup5\n        /* \"#utility.yul\":6299:6384   */\n      tag_314\n      jump\t// in\n    tag_441:\n        /* \"#utility.yul\":6141:6391   */\n      swap3\n      swap2\n      pop\n      pop\n      jump\t// out\n        /* \"#utility.yul\":6397:6515   */\n    tag_315:\n        /* \"#utility.yul\":6484:6508   */\n      tag_443\n        /* \"#utility.yul\":6502:6507   */\n      dup2\n        /* \"#utility.yul\":6484:6508   */\n      tag_291\n      jump\t// in\n    tag_443:\n        /* \"#utility.yul\":6479:6482   */\n      dup3\n        /* \"#utility.yul\":6472:6509   */\n      mstore\n        /* \"#utility.yul\":6397:6515   */\n      pop\n      pop\n      jump\t// out\n        /* \"#utility.yul\":6521:6639   */\n    tag_316:\n        /* \"#utility.yul\":6608:6632   */\n      tag_445\n        /* \"#utility.yul\":6626:6631   */\n      dup2\n        /* \"#utility.yul\":6608:6632   */\n      tag_294\n      jump\t// in\n    tag_445:\n        /* \"#utility.yul\":6603:6606   */\n      dup3\n        /* \"#utility.yul\":6596:6633   */\n      mstore\n        /* \"#utility.yul\":6521:6639   */\n      pop\n      pop\n      jump\t// out\n        /* \"#utility.yul\":6645:6800   */\n    tag_317:\n        /* \"#utility.yul\":6744:6793   */\n      tag_447\n        /* \"#utility.yul\":6787:6792   */\n      dup2\n        /* \"#utility.yul\":6744:6793   */\n      tag_298\n      jump\t// in\n    tag_447:\n        /* \"#utility.yul\":6739:6742   */\n      dup3\n        /* \"#utility.yul\":6732:6794   */\n      mstore\n        /* \"#utility.yul\":6645:6800   */\n      pop\n      pop\n      jump\t// out\n        /* \"#utility.yul\":6806:7605   */\n    tag_62:\n        /* \"#utility.yul\":7051:7055   */\n      0x00\n        /* \"#utility.yul\":7089:7092   */\n      0xc0\n        /* \"#utility.yul\":7078:7087   */\n      dup3\n        /* \"#utility.yul\":7074:7093   */\n      add\n        /* \"#utility.yul\":7066:7093   */\n      swap1\n      pop\n        /* \"#utility.yul\":7103:7174   */\n      tag_449\n        /* \"#utility.yul\":7171:7172   */\n      0x00\n        /* \"#utility.yul\":7160:7169   */\n      dup4\n        /* \"#utility.yul\":7156:7173   */\n      add\n        /* \"#utility.yul\":7147:7153   */\n      dup10\n        /* \"#utility.yul\":7103:7174   */\n      tag_315\n      jump\t// in\n    tag_449:\n        /* \"#utility.yul\":7184:7256   */\n      tag_450\n        /* \"#utility.yul\":7252:7254   */\n      0x20\n        /* \"#utility.yul\":7241:7250   */\n      dup4\n        /* \"#utility.yul\":7237:7255   */\n      add\n        /* \"#utility.yul\":7228:7234   */\n      dup9\n        /* \"#utility.yul\":7184:7256   */\n      tag_315\n      jump\t// in\n    tag_450:\n        /* \"#utility.yul\":7266:7338   */\n      tag_451\n        /* \"#utility.yul\":7334:7336   */\n      0x40\n        /* \"#utility.yul\":7323:7332   */\n      dup4\n        /* \"#utility.yul\":7319:7337   */\n      add\n        /* \"#utility.yul\":7310:7316   */\n      dup8\n        /* \"#utility.yul\":7266:7338   */\n      tag_316\n      jump\t// in\n    tag_451:\n        /* \"#utility.yul\":7348:7420   */\n      tag_452\n        /* \"#utility.yul\":7416:7418   */\n      0x60\n        /* \"#utility.yul\":7405:7414   */\n      dup4\n        /* \"#utility.yul\":7401:7419   */\n      add\n        /* \"#utility.yul\":7392:7398   */\n      dup7\n        /* \"#utility.yul\":7348:7420   */\n      tag_316\n      jump\t// in\n    tag_452:\n        /* \"#utility.yul\":7430:7503   */\n      tag_453\n        /* \"#utility.yul\":7498:7501   */\n      0x80\n        /* \"#utility.yul\":7487:7496   */\n      dup4\n        /* \"#utility.yul\":7483:7502   */\n      add\n        /* \"#utility.yul\":7474:7480   */\n      dup6\n        /* \"#utility.yul\":7430:7503   */\n      tag_315\n      jump\t// in\n    tag_453:\n        /* \"#utility.yul\":7513:7598   */\n      tag_454\n        /* \"#utility.yul\":7593:7596   */\n      0xa0\n        /* \"#utility.yul\":7582:7591   */\n      dup4\n        /* \"#utility.yul\":7578:7597   */\n      add\n        /* \"#utility.yul\":7569:7575   */\n      dup5\n        /* \"#utility.yul\":7513:7598   */\n      tag_317\n      jump\t// in\n    tag_454:\n        /* \"#utility.yul\":6806:7605   */\n      swap8\n      swap7\n      pop\n      pop\n      pop\n      pop\n      pop\n      pop\n      pop\n      jump\t// out\n        /* \"#utility.yul\":7611:8085   */\n    tag_68:\n        /* \"#utility.yul\":7679:7685   */\n      0x00\n        /* \"#utility.yul\":7687:7693   */\n      dup1\n        /* \"#utility.yul\":7736:7738   */\n      0x40\n        /* \"#utility.yul\":7724:7733   */\n      dup4\n        /* \"#utility.yul\":7715:7722   */\n      dup6\n        /* \"#utility.yul\":7711:7734   */\n      sub\n        /* \"#utility.yul\":7707:7739   */\n      slt\n        /* \"#utility.yul\":7704:7823   */\n      iszero\n      tag_456\n      jumpi\n        /* \"#utility.yul\":7742:7821   */\n      tag_457\n      tag_302\n      jump\t// in\n    tag_457:\n        /* \"#utility.yul\":7704:7823   */\n    tag_456:\n        /* \"#utility.yul\":7862:7863   */\n      0x00\n        /* \"#utility.yul\":7887:7940   */\n      tag_458\n        /* \"#utility.yul\":7932:7939   */\n      dup6\n        /* \"#utility.yul\":7923:7929   */\n      dup3\n        /* \"#utility.yul\":7912:7921   */\n      dup7\n        /* \"#utility.yul\":7908:7930   */\n      add\n        /* \"#utility.yul\":7887:7940   */\n      tag_307\n      jump\t// in\n    tag_458:\n        /* \"#utility.yul\":7877:7940   */\n      swap3\n      pop\n        /* \"#utility.yul\":7833:7950   */\n      pop\n        /* \"#utility.yul\":7989:7991   */\n      0x20\n        /* \"#utility.yul\":8015:8068   */\n      tag_459\n        /* \"#utility.yul\":8060:8067   */\n      dup6\n        /* \"#utility.yul\":8051:8057   */\n      dup3\n        /* \"#utility.yul\":8040:8049   */\n      dup7\n        /* \"#utility.yul\":8036:8058   */\n      add\n        /* \"#utility.yul\":8015:8068   */\n      tag_305\n      jump\t// in\n    tag_459:\n        /* \"#utility.yul\":8005:8068   */\n      swap2\n      pop\n        /* \"#utility.yul\":7960:8078   */\n      pop\n        /* \"#utility.yul\":7611:8085   */\n      swap3\n      pop\n      swap3\n      swap1\n      pop\n      jump\t// out\n        /* \"#utility.yul\":8091:8232   */\n    tag_318:\n        /* \"#utility.yul\":8185:8191   */\n      0x00\n        /* \"#utility.yul\":8219:8224   */\n      dup2\n        /* \"#utility.yul\":8213:8225   */\n      mload\n        /* \"#utility.yul\":8203:8225   */\n      swap1\n      pop\n        /* \"#utility.yul\":8091:8232   */\n      swap2\n      swap1\n      pop\n      jump\t// out\n        /* \"#utility.yul\":8238:8449   */\n    tag_319:\n        /* \"#utility.yul\":8364:8375   */\n      0x00\n        /* \"#utility.yul\":8398:8404   */\n      dup3\n        /* \"#utility.yul\":8393:8396   */\n      dup3\n        /* \"#utility.yul\":8386:8405   */\n      mstore\n        /* \"#utility.yul\":8438:8442   */\n      0x20\n        /* \"#utility.yul\":8433:8436   */\n      dup3\n        /* \"#utility.yul\":8429:8443   */\n      add\n        /* \"#utility.yul\":8414:8443   */\n      swap1\n      pop\n        /* \"#utility.yul\":8238:8449   */\n      swap3\n      swap2\n      pop\n      pop\n      jump\t// out\n        /* \"#utility.yul\":8455:8614   */\n    tag_320:\n        /* \"#utility.yul\":8549:8553   */\n      0x00\n        /* \"#utility.yul\":8572:8575   */\n      dup2\n        /* \"#utility.yul\":8564:8575   */\n      swap1\n      pop\n        /* \"#utility.yul\":8602:8606   */\n      0x20\n        /* \"#utility.yul\":8597:8600   */\n      dup3\n        /* \"#utility.yul\":8593:8607   */\n      add\n        /* \"#utility.yul\":8585:8607   */\n      swap1\n      pop\n        /* \"#utility.yul\":8455:8614   */\n      swap2\n      swap1\n      pop\n      jump\t// out\n        /* \"#utility.yul\":8704:9924   */\n    tag_321:\n        /* \"#utility.yul\":8845:8849   */\n      0xc0\n        /* \"#utility.yul\":8840:8843   */\n      dup3\n        /* \"#utility.yul\":8836:8850   */\n      add\n        /* \"#utility.yul\":8934:8938   */\n      0x00\n        /* \"#utility.yul\":8927:8932   */\n      dup3\n        /* \"#utility.yul\":8923:8939   */\n      add\n        /* \"#utility.yul\":8917:8940   */\n      mload\n        /* \"#utility.yul\":8953:9016   */\n      tag_464\n        /* \"#utility.yul\":9010:9014   */\n      0x00\n        /* \"#utility.yul\":9005:9008   */\n      dup6\n        /* \"#utility.yul\":9001:9015   */\n      add\n        /* \"#utility.yul\":8987:8999   */\n      dup3\n        /* \"#utility.yul\":8953:9016   */\n      tag_292\n      jump\t// in\n    tag_464:\n        /* \"#utility.yul\":8860:9026   */\n      pop\n        /* \"#utility.yul\":9111:9115   */\n      0x20\n        /* \"#utility.yul\":9104:9109   */\n      dup3\n        /* \"#utility.yul\":9100:9116   */\n      add\n        /* \"#utility.yul\":9094:9117   */\n      mload\n        /* \"#utility.yul\":9130:9193   */\n      tag_465\n        /* \"#utility.yul\":9187:9191   */\n      0x20\n        /* \"#utility.yul\":9182:9185   */\n      dup6\n        /* \"#utility.yul\":9178:9192   */\n      add\n        /* \"#utility.yul\":9164:9176   */\n      dup3\n        /* \"#utility.yul\":9130:9193   */\n      tag_292\n      jump\t// in\n    tag_465:\n        /* \"#utility.yul\":9036:9203   */\n      pop\n        /* \"#utility.yul\":9287:9291   */\n      0x40\n        /* \"#utility.yul\":9280:9285   */\n      dup3\n        /* \"#utility.yul\":9276:9292   */\n      add\n        /* \"#utility.yul\":9270:9293   */\n      mload\n        /* \"#utility.yul\":9306:9369   */\n      tag_466\n        /* \"#utility.yul\":9363:9367   */\n      0x40\n        /* \"#utility.yul\":9358:9361   */\n      dup6\n        /* \"#utility.yul\":9354:9368   */\n      add\n        /* \"#utility.yul\":9340:9352   */\n      dup3\n        /* \"#utility.yul\":9306:9369   */\n      tag_295\n      jump\t// in\n    tag_466:\n        /* \"#utility.yul\":9213:9379   */\n      pop\n        /* \"#utility.yul\":9462:9466   */\n      0x60\n        /* \"#utility.yul\":9455:9460   */\n      dup3\n        /* \"#utility.yul\":9451:9467   */\n      add\n        /* \"#utility.yul\":9445:9468   */\n      mload\n        /* \"#utility.yul\":9481:9544   */\n      tag_467\n        /* \"#utility.yul\":9538:9542   */\n      0x60\n        /* \"#utility.yul\":9533:9536   */\n      dup6\n        /* \"#utility.yul\":9529:9543   */\n      add\n        /* \"#utility.yul\":9515:9527   */\n      dup3\n        /* \"#utility.yul\":9481:9544   */\n      tag_295\n      jump\t// in\n    tag_467:\n        /* \"#utility.yul\":9389:9554   */\n      pop\n        /* \"#utility.yul\":9637:9641   */\n      0x80\n        /* \"#utility.yul\":9630:9635   */\n      dup3\n        /* \"#utility.yul\":9626:9642   */\n      add\n        /* \"#utility.yul\":9620:9643   */\n      mload\n        /* \"#utility.yul\":9656:9719   */\n      tag_468\n        /* \"#utility.yul\":9713:9717   */\n      0x80\n        /* \"#utility.yul\":9708:9711   */\n      dup6\n        /* \"#utility.yul\":9704:9718   */\n      add\n        /* \"#utility.yul\":9690:9702   */\n      dup3\n        /* \"#utility.yul\":9656:9719   */\n      tag_292\n      jump\t// in\n    tag_468:\n        /* \"#utility.yul\":9564:9729   */\n      pop\n        /* \"#utility.yul\":9813:9817   */\n      0xa0\n        /* \"#utility.yul\":9806:9811   */\n      dup3\n        /* \"#utility.yul\":9802:9818   */\n      add\n        /* \"#utility.yul\":9796:9819   */\n      mload\n        /* \"#utility.yul\":9832:9907   */\n      tag_469\n        /* \"#utility.yul\":9901:9905   */\n      0xa0\n        /* \"#utility.yul\":9896:9899   */\n      dup6\n        /* \"#utility.yul\":9892:9906   */\n      add\n        /* \"#utility.yul\":9878:9890   */\n      dup3\n        /* \"#utility.yul\":9832:9907   */\n      tag_299\n      jump\t// in\n    tag_469:\n        /* \"#utility.yul\":9739:9917   */\n      pop\n        /* \"#utility.yul\":8814:9924   */\n      pop\n        /* \"#utility.yul\":8704:9924   */\n      pop\n      pop\n      jump\t// out\n        /* \"#utility.yul\":9930:10217   */\n    tag_322:\n        /* \"#utility.yul\":10053:10063   */\n      0x00\n        /* \"#utility.yul\":10074:10174   */\n      tag_471\n        /* \"#utility.yul\":10170:10173   */\n      dup4\n        /* \"#utility.yul\":10162:10168   */\n      dup4\n        /* \"#utility.yul\":10074:10174   */\n      tag_321\n      jump\t// in\n    tag_471:\n        /* \"#utility.yul\":10206:10210   */\n      0xc0\n        /* \"#utility.yul\":10201:10204   */\n      dup4\n        /* \"#utility.yul\":10197:10211   */\n      add\n        /* \"#utility.yul\":10183:10211   */\n      swap1\n      pop\n        /* \"#utility.yul\":9930:10217   */\n      swap3\n      swap2\n      pop\n      pop\n      jump\t// out\n        /* \"#utility.yul\":10223:10363   */\n    tag_323:\n        /* \"#utility.yul\":10320:10324   */\n      0x00\n        /* \"#utility.yul\":10352:10356   */\n      0x20\n        /* \"#utility.yul\":10347:10350   */\n      dup3\n        /* \"#utility.yul\":10343:10357   */\n      add\n        /* \"#utility.yul\":10335:10357   */\n      swap1\n      pop\n        /* \"#utility.yul\":10223:10363   */\n      swap2\n      swap1\n      pop\n      jump\t// out\n        /* \"#utility.yul\":10457:11405   */\n    tag_324:\n        /* \"#utility.yul\":10630:10633   */\n      0x00\n        /* \"#utility.yul\":10659:10740   */\n      tag_474\n        /* \"#utility.yul\":10734:10739   */\n      dup3\n        /* \"#utility.yul\":10659:10740   */\n      tag_318\n      jump\t// in\n    tag_474:\n        /* \"#utility.yul\":10756:10869   */\n      tag_475\n        /* \"#utility.yul\":10862:10868   */\n      dup2\n        /* \"#utility.yul\":10857:10860   */\n      dup6\n        /* \"#utility.yul\":10756:10869   */\n      tag_319\n      jump\t// in\n    tag_475:\n        /* \"#utility.yul\":10749:10869   */\n      swap4\n      pop\n        /* \"#utility.yul\":10893:10976   */\n      tag_476\n        /* \"#utility.yul\":10970:10975   */\n      dup4\n        /* \"#utility.yul\":10893:10976   */\n      tag_320\n      jump\t// in\n    tag_476:\n        /* \"#utility.yul\":10999:11006   */\n      dup1\n        /* \"#utility.yul\":11030:11031   */\n      0x00\n        /* \"#utility.yul\":11015:11380   */\n    tag_477:\n        /* \"#utility.yul\":11040:11046   */\n      dup4\n        /* \"#utility.yul\":11037:11038   */\n      dup2\n        /* \"#utility.yul\":11034:11047   */\n      lt\n        /* \"#utility.yul\":11015:11380   */\n      iszero\n      tag_479\n      jumpi\n        /* \"#utility.yul\":11116:11122   */\n      dup2\n        /* \"#utility.yul\":11110:11123   */\n      mload\n        /* \"#utility.yul\":11143:11260   */\n      tag_480\n        /* \"#utility.yul\":11256:11259   */\n      dup9\n        /* \"#utility.yul\":11241:11254   */\n      dup3\n        /* \"#utility.yul\":11143:11260   */\n      tag_322\n      jump\t// in\n    tag_480:\n        /* \"#utility.yul\":11136:11260   */\n      swap8\n      pop\n        /* \"#utility.yul\":11283:11370   */\n      tag_481\n        /* \"#utility.yul\":11363:11369   */\n      dup4\n        /* \"#utility.yul\":11283:11370   */\n      tag_323\n      jump\t// in\n    tag_481:\n        /* \"#utility.yul\":11273:11370   */\n      swap3\n      pop\n        /* \"#utility.yul\":11075:11380   */\n      pop\n        /* \"#utility.yul\":11062:11063   */\n      0x01\n        /* \"#utility.yul\":11059:11060   */\n      dup2\n        /* \"#utility.yul\":11055:11064   */\n      add\n        /* \"#utility.yul\":11050:11064   */\n      swap1\n      pop\n        /* \"#utility.yul\":11015:11380   */\n      jump(tag_477)\n    tag_479:\n        /* \"#utility.yul\":11019:11033   */\n      pop\n        /* \"#utility.yul\":11396:11399   */\n      dup6\n        /* \"#utility.yul\":11389:11399   */\n      swap4\n      pop\n        /* \"#utility.yul\":10635:11405   */\n      pop\n      pop\n      pop\n        /* \"#utility.yul\":10457:11405   */\n      swap3\n      swap2\n      pop\n      pop\n      jump\t// out\n        /* \"#utility.yul\":11411:11892   */\n    tag_74:\n        /* \"#utility.yul\":11608:11612   */\n      0x00\n        /* \"#utility.yul\":11646:11648   */\n      0x20\n        /* \"#utility.yul\":11635:11644   */\n      dup3\n        /* \"#utility.yul\":11631:11649   */\n      add\n        /* \"#utility.yul\":11623:11649   */\n      swap1\n      pop\n        /* \"#utility.yul\":11695:11704   */\n      dup2\n        /* \"#utility.yul\":11689:11693   */\n      dup2\n        /* \"#utility.yul\":11685:11705   */\n      sub\n        /* \"#utility.yul\":11681:11682   */\n      0x00\n        /* \"#utility.yul\":11670:11679   */\n      dup4\n        /* \"#utility.yul\":11666:11683   */\n      add\n        /* \"#utility.yul\":11659:11706   */\n      mstore\n        /* \"#utility.yul\":11723:11885   */\n      tag_483\n        /* \"#utility.yul\":11880:11884   */\n      dup2\n        /* \"#utility.yul\":11871:11877   */\n      dup5\n        /* \"#utility.yul\":11723:11885   */\n      tag_324\n      jump\t// in\n    tag_483:\n        /* \"#utility.yul\":11715:11885   */\n      swap1\n      pop\n        /* \"#utility.yul\":11411:11892   */\n      swap3\n      swap2\n      pop\n      pop\n      jump\t// out\n        /* \"#utility.yul\":11898:11984   */\n    tag_325:\n        /* \"#utility.yul\":11933:11940   */\n      0x00\n        /* \"#utility.yul\":11973:11977   */\n      0xff\n        /* \"#utility.yul\":11966:11971   */\n      dup3\n        /* \"#utility.yul\":11962:11978   */\n      and\n        /* \"#utility.yul\":11951:11978   */\n      swap1\n      pop\n        /* \"#utility.yul\":11898:11984   */\n      swap2\n      swap1\n      pop\n      jump\t// out\n        /* \"#utility.yul\":11990:12102   */\n    tag_326:\n        /* \"#utility.yul\":12073:12095   */\n      tag_486\n        /* \"#utility.yul\":12089:12094   */\n      dup2\n        /* \"#utility.yul\":12073:12095   */\n      tag_325\n      jump\t// in\n    tag_486:\n        /* \"#utility.yul\":12068:12071   */\n      dup3\n        /* \"#utility.yul\":12061:12096   */\n      mstore\n        /* \"#utility.yul\":11990:12102   */\n      pop\n      pop\n      jump\t// out\n        /* \"#utility.yul\":12108:12322   */\n    tag_80:\n        /* \"#utility.yul\":12197:12201   */\n      0x00\n        /* \"#utility.yul\":12235:12237   */\n      0x20\n        /* \"#utility.yul\":12224:12233   */\n      dup3\n        /* \"#utility.yul\":12220:12238   */\n      add\n        /* \"#utility.yul\":12212:12238   */\n      swap1\n      pop\n        /* \"#utility.yul\":12248:12315   */\n      tag_488\n        /* \"#utility.yul\":12312:12313   */\n      0x00\n        /* \"#utility.yul\":12301:12310   */\n      dup4\n        /* \"#utility.yul\":12297:12314   */\n      add\n        /* \"#utility.yul\":12288:12294   */\n      dup5\n        /* \"#utility.yul\":12248:12315   */\n      tag_326\n      jump\t// in\n    tag_488:\n        /* \"#utility.yul\":12108:12322   */\n      swap3\n      swap2\n      pop\n      pop\n      jump\t// out\n        /* \"#utility.yul\":12328:12550   */\n    tag_84:\n        /* \"#utility.yul\":12421:12425   */\n      0x00\n        /* \"#utility.yul\":12459:12461   */\n      0x20\n        /* \"#utility.yul\":12448:12457   */\n      dup3\n        /* \"#utility.yul\":12444:12462   */\n      add\n        /* \"#utility.yul\":12436:12462   */\n      swap1\n      pop\n        /* \"#utility.yul\":12472:12543   */\n      tag_490\n        /* \"#utility.yul\":12540:12541   */\n      0x00\n        /* \"#utility.yul\":12529:12538   */\n      dup4\n        /* \"#utility.yul\":12525:12542   */\n      add\n        /* \"#utility.yul\":12516:12522   */\n      dup5\n        /* \"#utility.yul\":12472:12543   */\n      tag_316\n      jump\t// in\n    tag_490:\n        /* \"#utility.yul\":12328:12550   */\n      swap3\n      swap2\n      pop\n      pop\n      jump\t// out\n        /* \"#utility.yul\":12556:12698   */\n    tag_327:\n        /* \"#utility.yul\":12622:12631   */\n      0x00\n        /* \"#utility.yul\":12655:12692   */\n      tag_492\n        /* \"#utility.yul\":12686:12691   */\n      dup3\n        /* \"#utility.yul\":12655:12692   */\n      tag_312\n      jump\t// in\n    tag_492:\n        /* \"#utility.yul\":12642:12692   */\n      swap1\n      pop\n        /* \"#utility.yul\":12556:12698   */\n      swap2\n      swap1\n      pop\n      jump\t// out\n        /* \"#utility.yul\":12704:12867   */\n    tag_328:\n        /* \"#utility.yul\":12807:12860   */\n      tag_494\n        /* \"#utility.yul\":12854:12859   */\n      dup2\n        /* \"#utility.yul\":12807:12860   */\n      tag_327\n      jump\t// in\n    tag_494:\n        /* \"#utility.yul\":12802:12805   */\n      dup3\n        /* \"#utility.yul\":12795:12861   */\n      mstore\n        /* \"#utility.yul\":12704:12867   */\n      pop\n      pop\n      jump\t// out\n        /* \"#utility.yul\":12873:13127   */\n    tag_94:\n        /* \"#utility.yul\":12982:12986   */\n      0x00\n        /* \"#utility.yul\":13020:13022   */\n      0x20\n        /* \"#utility.yul\":13009:13018   */\n      dup3\n        /* \"#utility.yul\":13005:13023   */\n      add\n        /* \"#utility.yul\":12997:13023   */\n      swap1\n      pop\n        /* \"#utility.yul\":13033:13120   */\n      tag_496\n        /* \"#utility.yul\":13117:13118   */\n      0x00\n        /* \"#utility.yul\":13106:13115   */\n      dup4\n        /* \"#utility.yul\":13102:13119   */\n      add\n        /* \"#utility.yul\":13093:13099   */\n      dup5\n        /* \"#utility.yul\":13033:13120   */\n      tag_328\n      jump\t// in\n    tag_496:\n        /* \"#utility.yul\":12873:13127   */\n      swap3\n      swap2\n      pop\n      pop\n      jump\t// out\n        /* \"#utility.yul\":13133:13274   */\n    tag_329:\n        /* \"#utility.yul\":13198:13207   */\n      0x00\n        /* \"#utility.yul\":13231:13268   */\n      tag_498\n        /* \"#utility.yul\":13262:13267   */\n      dup3\n        /* \"#utility.yul\":13231:13268   */\n      tag_312\n      jump\t// in\n    tag_498:\n        /* \"#utility.yul\":13218:13268   */\n      swap1\n      pop\n        /* \"#utility.yul\":13133:13274   */\n      swap2\n      swap1\n      pop\n      jump\t// out\n        /* \"#utility.yul\":13280:13441   */\n    tag_330:\n        /* \"#utility.yul\":13382:13434   */\n      tag_500\n        /* \"#utility.yul\":13428:13433   */\n      dup2\n        /* \"#utility.yul\":13382:13434   */\n      tag_329\n      jump\t// in\n    tag_500:\n        /* \"#utility.yul\":13377:13380   */\n      dup3\n        /* \"#utility.yul\":13370:13435   */\n      mstore\n        /* \"#utility.yul\":13280:13441   */\n      pop\n      pop\n      jump\t// out\n        /* \"#utility.yul\":13447:13699   */\n    tag_105:\n        /* \"#utility.yul\":13555:13559   */\n      0x00\n        /* \"#utility.yul\":13593:13595   */\n      0x20\n        /* \"#utility.yul\":13582:13591   */\n      dup3\n        /* \"#utility.yul\":13578:13596   */\n      add\n        /* \"#utility.yul\":13570:13596   */\n      swap1\n      pop\n        /* \"#utility.yul\":13606:13692   */\n      tag_502\n        /* \"#utility.yul\":13689:13690   */\n      0x00\n        /* \"#utility.yul\":13678:13687   */\n      dup4\n        /* \"#utility.yul\":13674:13691   */\n      add\n        /* \"#utility.yul\":13665:13671   */\n      dup5\n        /* \"#utility.yul\":13606:13692   */\n      tag_330\n      jump\t// in\n    tag_502:\n        /* \"#utility.yul\":13447:13699   */\n      swap3\n      swap2\n      pop\n      pop\n      jump\t// out\n        /* \"#utility.yul\":13705:13874   */\n    tag_331:\n        /* \"#utility.yul\":13789:13800   */\n      0x00\n        /* \"#utility.yul\":13823:13829   */\n      dup3\n        /* \"#utility.yul\":13818:13821   */\n      dup3\n        /* \"#utility.yul\":13811:13830   */\n      mstore\n        /* \"#utility.yul\":13863:13867   */\n      0x20\n        /* \"#utility.yul\":13858:13861   */\n      dup3\n        /* \"#utility.yul\":13854:13868   */\n      add\n        /* \"#utility.yul\":13839:13868   */\n      swap1\n      pop\n        /* \"#utility.yul\":13705:13874   */\n      swap3\n      swap2\n      pop\n      pop\n      jump\t// out\n        /* \"#utility.yul\":13880:14049   */\n    tag_332:\n        /* \"#utility.yul\":14020:14041   */\n      0x4173736574206e6f74207075626c697368656400000000000000000000000000\n        /* \"#utility.yul\":14016:14017   */\n      0x00\n        /* \"#utility.yul\":14008:14014   */\n      dup3\n        /* \"#utility.yul\":14004:14018   */\n      add\n        /* \"#utility.yul\":13997:14042   */\n      mstore\n        /* \"#utility.yul\":13880:14049   */\n      pop\n      jump\t// out\n        /* \"#utility.yul\":14055:14421   */\n    tag_333:\n        /* \"#utility.yul\":14197:14200   */\n      0x00\n        /* \"#utility.yul\":14218:14285   */\n      tag_506\n        /* \"#utility.yul\":14282:14284   */\n      0x13\n        /* \"#utility.yul\":14277:14280   */\n      dup4\n        /* \"#utility.yul\":14218:14285   */\n      tag_331\n      jump\t// in\n    tag_506:\n        /* \"#utility.yul\":14211:14285   */\n      swap2\n      pop\n        /* \"#utility.yul\":14294:14387   */\n      tag_507\n        /* \"#utility.yul\":14383:14386   */\n      dup3\n        /* \"#utility.yul\":14294:14387   */\n      tag_332\n      jump\t// in\n    tag_507:\n        /* \"#utility.yul\":14412:14414   */\n      0x20\n        /* \"#utility.yul\":14407:14410   */\n      dup3\n        /* \"#utility.yul\":14403:14415   */\n      add\n        /* \"#utility.yul\":14396:14415   */\n      swap1\n      pop\n        /* \"#utility.yul\":14055:14421   */\n      swap2\n      swap1\n      pop\n      jump\t// out\n        /* \"#utility.yul\":14427:14846   */\n    tag_125:\n        /* \"#utility.yul\":14593:14597   */\n      0x00\n        /* \"#utility.yul\":14631:14633   */\n      0x20\n        /* \"#utility.yul\":14620:14629   */\n      dup3\n        /* \"#utility.yul\":14616:14634   */\n      add\n        /* \"#utility.yul\":14608:14634   */\n      swap1\n      pop\n        /* \"#utility.yul\":14680:14689   */\n      dup2\n        /* \"#utility.yul\":14674:14678   */\n      dup2\n        /* \"#utility.yul\":14670:14690   */\n      sub\n        /* \"#utility.yul\":14666:14667   */\n      0x00\n        /* \"#utility.yul\":14655:14664   */\n      dup4\n        /* \"#utility.yul\":14651:14668   */\n      add\n        /* \"#utility.yul\":14644:14691   */\n      mstore\n        /* \"#utility.yul\":14708:14839   */\n      tag_509\n        /* \"#utility.yul\":14834:14838   */\n      dup2\n        /* \"#utility.yul\":14708:14839   */\n      tag_333\n      jump\t// in\n    tag_509:\n        /* \"#utility.yul\":14700:14839   */\n      swap1\n      pop\n        /* \"#utility.yul\":14427:14846   */\n      swap2\n      swap1\n      pop\n      jump\t// out\n        /* \"#utility.yul\":14852:15016   */\n    tag_334:\n        /* \"#utility.yul\":14992:15008   */\n      0x41737365742064656c6973746564000000000000000000000000000000000000\n        /* \"#utility.yul\":14988:14989   */\n      0x00\n        /* \"#utility.yul\":14980:14986   */\n      dup3\n        /* \"#utility.yul\":14976:14990   */\n      add\n        /* \"#utility.yul\":14969:15009   */\n      mstore\n        /* \"#utility.yul\":14852:15016   */\n      pop\n      jump\t// out\n        /* \"#utility.yul\":15022:15388   */\n    tag_335:\n        /* \"#utility.yul\":15164:15167   */\n      0x00\n        /* \"#utility.yul\":15185:15252   */\n      tag_512\n        /* \"#utility.yul\":15249:15251   */\n      0x0e\n        /* \"#utility.yul\":15244:15247   */\n      dup4\n        /* \"#utility.yul\":15185:15252   */\n      tag_331\n      jump\t// in\n    tag_512:\n        /* \"#utility.yul\":15178:15252   */\n      swap2\n      pop\n        /* \"#utility.yul\":15261:15354   */\n      tag_513\n        /* \"#utility.yul\":15350:15353   */\n      dup3\n        /* \"#utility.yul\":15261:15354   */\n      tag_334\n      jump\t// in\n    tag_513:\n        /* \"#utility.yul\":15379:15381   */\n      0x20\n        /* \"#utility.yul\":15374:15377   */\n      dup3\n        /* \"#utility.yul\":15370:15382   */\n      add\n        /* \"#utility.yul\":15363:15382   */\n      swap1\n      pop\n        /* \"#utility.yul\":15022:15388   */\n      swap2\n      swap1\n      pop\n      jump\t// out\n        /* \"#utility.yul\":15394:15813   */\n    tag_132:\n        /* \"#utility.yul\":15560:15564   */\n      0x00\n        /* \"#utility.yul\":15598:15600   */\n      0x20\n        /* \"#utility.yul\":15587:15596   */\n      dup3\n        /* \"#utility.yul\":15583:15601   */\n      add\n        /* \"#utility.yul\":15575:15601   */\n      swap1\n      pop\n        /* \"#utility.yul\":15647:15656   */\n      dup2\n        /* \"#utility.yul\":15641:15645   */\n      dup2\n        /* \"#utility.yul\":15637:15657   */\n      sub\n        /* \"#utility.yul\":15633:15634   */\n      0x00\n        /* \"#utility.yul\":15622:15631   */\n      dup4\n        /* \"#utility.yul\":15618:15635   */\n      add\n        /* \"#utility.yul\":15611:15658   */\n      mstore\n        /* \"#utility.yul\":15675:15806   */\n      tag_515\n        /* \"#utility.yul\":15801:15805   */\n      dup2\n        /* \"#utility.yul\":15675:15806   */\n      tag_335\n      jump\t// in\n    tag_515:\n        /* \"#utility.yul\":15667:15806   */\n      swap1\n      pop\n        /* \"#utility.yul\":15394:15813   */\n      swap2\n      swap1\n      pop\n      jump\t// out\n        /* \"#utility.yul\":15819:15984   */\n    tag_336:\n        /* \"#utility.yul\":15959:15976   */\n      0x496e76616c696420616464726573730000000000000000000000000000000000\n        /* \"#utility.yul\":15955:15956   */\n      0x00\n        /* \"#utility.yul\":15947:15953   */\n      dup3\n        /* \"#utility.yul\":15943:15957   */\n      add\n        /* \"#utility.yul\":15936:15977   */\n      mstore\n        /* \"#utility.yul\":15819:15984   */\n      pop\n      jump\t// out\n        /* \"#utility.yul\":15990:16356   */\n    tag_337:\n        /* \"#utility.yul\":16132:16135   */\n      0x00\n        /* \"#utility.yul\":16153:16220   */\n      tag_518\n        /* \"#utility.yul\":16217:16219   */\n      0x0f\n        /* \"#utility.yul\":16212:16215   */\n      dup4\n        /* \"#utility.yul\":16153:16220   */\n      tag_331\n      jump\t// in\n    tag_518:\n        /* \"#utility.yul\":16146:16220   */\n      swap2\n      pop\n        /* \"#utility.yul\":16229:16322   */\n      tag_519\n        /* \"#utility.yul\":16318:16321   */\n      dup3\n        /* \"#utility.yul\":16229:16322   */\n      tag_336\n      jump\t// in\n    tag_519:\n        /* \"#utility.yul\":16347:16349   */\n      0x20\n        /* \"#utility.yul\":16342:16345   */\n      dup3\n        /* \"#utility.yul\":16338:16350   */\n      add\n        /* \"#utility.yul\":16331:16350   */\n      swap1\n      pop\n        /* \"#utility.yul\":15990:16356   */\n      swap2\n      swap1\n      pop\n      jump\t// out\n        /* \"#utility.yul\":16362:16781   */\n    tag_135:\n        /* \"#utility.yul\":16528:16532   */\n      0x00\n        /* \"#utility.yul\":16566:16568   */\n      0x20\n        /* \"#utility.yul\":16555:16564   */\n      dup3\n        /* \"#utility.yul\":16551:16569   */\n      add\n        /* \"#utility.yul\":16543:16569   */\n      swap1\n      pop\n        /* \"#utility.yul\":16615:16624   */\n      dup2\n        /* \"#utility.yul\":16609:16613   */\n      dup2\n        /* \"#utility.yul\":16605:16625   */\n      sub\n        /* \"#utility.yul\":16601:16602   */\n      0x00\n        /* \"#utility.yul\":16590:16599   */\n      dup4\n        /* \"#utility.yul\":16586:16603   */\n      add\n        /* \"#utility.yul\":16579:16626   */\n      mstore\n        /* \"#utility.yul\":16643:16774   */\n      tag_521\n        /* \"#utility.yul\":16769:16773   */\n      dup2\n        /* \"#utility.yul\":16643:16774   */\n      tag_337\n      jump\t// in\n    tag_521:\n        /* \"#utility.yul\":16635:16774   */\n      swap1\n      pop\n        /* \"#utility.yul\":16362:16781   */\n      swap2\n      swap1\n      pop\n      jump\t// out\n        /* \"#utility.yul\":16787:16959   */\n    tag_338:\n        /* \"#utility.yul\":16927:16951   */\n      0x4f6e6c792073656c6c65722063616e2064656c69737400000000000000000000\n        /* \"#utility.yul\":16923:16924   */\n      0x00\n        /* \"#utility.yul\":16915:16921   */\n      dup3\n        /* \"#utility.yul\":16911:16925   */\n      add\n        /* \"#utility.yul\":16904:16952   */\n      mstore\n        /* \"#utility.yul\":16787:16959   */\n      pop\n      jump\t// out\n        /* \"#utility.yul\":16965:17331   */\n    tag_339:\n        /* \"#utility.yul\":17107:17110   */\n      0x00\n        /* \"#utility.yul\":17128:17195   */\n      tag_524\n        /* \"#utility.yul\":17192:17194   */\n      0x16\n        /* \"#utility.yul\":17187:17190   */\n      dup4\n        /* \"#utility.yul\":17128:17195   */\n      tag_331\n      jump\t// in\n    tag_524:\n        /* \"#utility.yul\":17121:17195   */\n      swap2\n      pop\n        /* \"#utility.yul\":17204:17297   */\n      tag_525\n        /* \"#utility.yul\":17293:17296   */\n      dup3\n        /* \"#utility.yul\":17204:17297   */\n      tag_338\n      jump\t// in\n    tag_525:\n        /* \"#utility.yul\":17322:17324   */\n      0x20\n        /* \"#utility.yul\":17317:17320   */\n      dup3\n        /* \"#utility.yul\":17313:17325   */\n      add\n        /* \"#utility.yul\":17306:17325   */\n      swap1\n      pop\n        /* \"#utility.yul\":16965:17331   */\n      swap2\n      swap1\n      pop\n      jump\t// out\n        /* \"#utility.yul\":17337:17756   */\n    tag_138:\n        /* \"#utility.yul\":17503:17507   */\n      0x00\n        /* \"#utility.yul\":17541:17543   */\n      0x20\n        /* \"#utility.yul\":17530:17539   */\n      dup3\n        /* \"#utility.yul\":17526:17544   */\n      add\n        /* \"#utility.yul\":17518:17544   */\n      swap1\n      pop\n        /* \"#utility.yul\":17590:17599   */\n      dup2\n        /* \"#utility.yul\":17584:17588   */\n      dup2\n        /* \"#utility.yul\":17580:17600   */\n      sub\n        /* \"#utility.yul\":17576:17577   */\n      0x00\n        /* \"#utility.yul\":17565:17574   */\n      dup4\n        /* \"#utility.yul\":17561:17578   */\n      add\n        /* \"#utility.yul\":17554:17601   */\n      mstore\n        /* \"#utility.yul\":17618:17749   */\n      tag_527\n        /* \"#utility.yul\":17744:17748   */\n      dup2\n        /* \"#utility.yul\":17618:17749   */\n      tag_339\n      jump\t// in\n    tag_527:\n        /* \"#utility.yul\":17610:17749   */\n      swap1\n      pop\n        /* \"#utility.yul\":17337:17756   */\n      swap2\n      swap1\n      pop\n      jump\t// out\n        /* \"#utility.yul\":17762:18204   */\n    tag_140:\n        /* \"#utility.yul\":17911:17915   */\n      0x00\n        /* \"#utility.yul\":17949:17951   */\n      0x60\n        /* \"#utility.yul\":17938:17947   */\n      dup3\n        /* \"#utility.yul\":17934:17952   */\n      add\n        /* \"#utility.yul\":17926:17952   */\n      swap1\n      pop\n        /* \"#utility.yul\":17962:18033   */\n      tag_529\n        /* \"#utility.yul\":18030:18031   */\n      0x00\n        /* \"#utility.yul\":18019:18028   */\n      dup4\n        /* \"#utility.yul\":18015:18032   */\n      add\n        /* \"#utility.yul\":18006:18012   */\n      dup7\n        /* \"#utility.yul\":17962:18033   */\n      tag_316\n      jump\t// in\n    tag_529:\n        /* \"#utility.yul\":18043:18115   */\n      tag_530\n        /* \"#utility.yul\":18111:18113   */\n      0x20\n        /* \"#utility.yul\":18100:18109   */\n      dup4\n        /* \"#utility.yul\":18096:18114   */\n      add\n        /* \"#utility.yul\":18087:18093   */\n      dup6\n        /* \"#utility.yul\":18043:18115   */\n      tag_316\n      jump\t// in\n    tag_530:\n        /* \"#utility.yul\":18125:18197   */\n      tag_531\n        /* \"#utility.yul\":18193:18195   */\n      0x40\n        /* \"#utility.yul\":18182:18191   */\n      dup4\n        /* \"#utility.yul\":18178:18196   */\n      add\n        /* \"#utility.yul\":18169:18175   */\n      dup5\n        /* \"#utility.yul\":18125:18197   */\n      tag_315\n      jump\t// in\n    tag_531:\n        /* \"#utility.yul\":17762:18204   */\n      swap5\n      swap4\n      pop\n      pop\n      pop\n      pop\n      jump\t// out\n        /* \"#utility.yul\":18210:18542   */\n    tag_149:\n        /* \"#utility.yul\":18331:18335   */\n      0x00\n        /* \"#utility.yul\":18369:18371   */\n      0x40\n        /* \"#utility.yul\":18358:18367   */\n      dup3\n        /* \"#utility.yul\":18354:18372   */\n      add\n        /* \"#utility.yul\":18346:18372   */\n      swap1\n      pop\n        /* \"#utility.yul\":18382:18453   */\n      tag_533\n        /* \"#utility.yul\":18450:18451   */\n      0x00\n        /* \"#utility.yul\":18439:18448   */\n      dup4\n        /* \"#utility.yul\":18435:18452   */\n      add\n        /* \"#utility.yul\":18426:18432   */\n      dup6\n        /* \"#utility.yul\":18382:18453   */\n      tag_315\n      jump\t// in\n    tag_533:\n        /* \"#utility.yul\":18463:18535   */\n      tag_534\n        /* \"#utility.yul\":18531:18533   */\n      0x20\n        /* \"#utility.yul\":18520:18529   */\n      dup4\n        /* \"#utility.yul\":18516:18534   */\n      add\n        /* \"#utility.yul\":18507:18513   */\n      dup5\n        /* \"#utility.yul\":18463:18535   */\n      tag_315\n      jump\t// in\n    tag_534:\n        /* \"#utility.yul\":18210:18542   */\n      swap4\n      swap3\n      pop\n      pop\n      pop\n      jump\t// out\n        /* \"#utility.yul\":18548:18730   */\n    tag_340:\n        /* \"#utility.yul\":18688:18722   */\n      0x4f776e61626c653a2063616c6c6572206973206e6f7420746865206f776e6572\n        /* \"#utility.yul\":18684:18685   */\n      0x00\n        /* \"#utility.yul\":18676:18682   */\n      dup3\n        /* \"#utility.yul\":18672:18686   */\n      add\n        /* \"#utility.yul\":18665:18723   */\n      mstore\n        /* \"#utility.yul\":18548:18730   */\n      pop\n      jump\t// out\n        /* \"#utility.yul\":18736:19102   */\n    tag_341:\n        /* \"#utility.yul\":18878:18881   */\n      0x00\n        /* \"#utility.yul\":18899:18966   */\n      tag_537\n        /* \"#utility.yul\":18963:18965   */\n      0x20\n        /* \"#utility.yul\":18958:18961   */\n      dup4\n        /* \"#utility.yul\":18899:18966   */\n      tag_331\n      jump\t// in\n    tag_537:\n        /* \"#utility.yul\":18892:18966   */\n      swap2\n      pop\n        /* \"#utility.yul\":18975:19068   */\n      tag_538\n        /* \"#utility.yul\":19064:19067   */\n      dup3\n        /* \"#utility.yul\":18975:19068   */\n      tag_340\n      jump\t// in\n    tag_538:\n        /* \"#utility.yul\":19093:19095   */\n      0x20\n        /* \"#utility.yul\":19088:19091   */\n      dup3\n        /* \"#utility.yul\":19084:19096   */\n      add\n        /* \"#utility.yul\":19077:19096   */\n      swap1\n      pop\n        /* \"#utility.yul\":18736:19102   */\n      swap2\n      swap1\n      pop\n      jump\t// out\n        /* \"#utility.yul\":19108:19527   */\n    tag_156:\n        /* \"#utility.yul\":19274:19278   */\n      0x00\n        /* \"#utility.yul\":19312:19314   */\n      0x20\n        /* \"#utility.yul\":19301:19310   */\n      dup3\n        /* \"#utility.yul\":19297:19315   */\n      add\n        /* \"#utility.yul\":19289:19315   */\n      swap1\n      pop\n        /* \"#utility.yul\":19361:19370   */\n      dup2\n        /* \"#utility.yul\":19355:19359   */\n      dup2\n        /* \"#utility.yul\":19351:19371   */\n      sub\n        /* \"#utility.yul\":19347:19348   */\n      0x00\n        /* \"#utility.yul\":19336:19345   */\n      dup4\n        /* \"#utility.yul\":19332:19349   */\n      add\n        /* \"#utility.yul\":19325:19372   */\n      mstore\n        /* \"#utility.yul\":19389:19520   */\n      tag_540\n        /* \"#utility.yul\":19515:19519   */\n      dup2\n        /* \"#utility.yul\":19389:19520   */\n      tag_341\n      jump\t// in\n    tag_540:\n        /* \"#utility.yul\":19381:19520   */\n      swap1\n      pop\n        /* \"#utility.yul\":19108:19527   */\n      swap2\n      swap1\n      pop\n      jump\t// out\n        /* \"#utility.yul\":19533:19711   */\n    tag_342:\n        /* \"#utility.yul\":19673:19703   */\n      0x5072696365206d757374206265206174206c6561737420312077656900000000\n        /* \"#utility.yul\":19669:19670   */\n      0x00\n        /* \"#utility.yul\":19661:19667   */\n      dup3\n        /* \"#utility.yul\":19657:19671   */\n      add\n        /* \"#utility.yul\":19650:19704   */\n      mstore\n        /* \"#utility.yul\":19533:19711   */\n      pop\n      jump\t// out\n        /* \"#utility.yul\":19717:20083   */\n    tag_343:\n        /* \"#utility.yul\":19859:19862   */\n      0x00\n        /* \"#utility.yul\":19880:19947   */\n      tag_543\n        /* \"#utility.yul\":19944:19946   */\n      0x1c\n        /* \"#utility.yul\":19939:19942   */\n      dup4\n        /* \"#utility.yul\":19880:19947   */\n      tag_331\n      jump\t// in\n    tag_543:\n        /* \"#utility.yul\":19873:19947   */\n      swap2\n      pop\n        /* \"#utility.yul\":19956:20049   */\n      tag_544\n        /* \"#utility.yul\":20045:20048   */\n      dup3\n        /* \"#utility.yul\":19956:20049   */\n      tag_342\n      jump\t// in\n    tag_544:\n        /* \"#utility.yul\":20074:20076   */\n      0x20\n        /* \"#utility.yul\":20069:20072   */\n      dup3\n        /* \"#utility.yul\":20065:20077   */\n      add\n        /* \"#utility.yul\":20058:20077   */\n      swap1\n      pop\n        /* \"#utility.yul\":19717:20083   */\n      swap2\n      swap1\n      pop\n      jump\t// out\n        /* \"#utility.yul\":20089:20508   */\n    tag_173:\n        /* \"#utility.yul\":20255:20259   */\n      0x00\n        /* \"#utility.yul\":20293:20295   */\n      0x20\n        /* \"#utility.yul\":20282:20291   */\n      dup3\n        /* \"#utility.yul\":20278:20296   */\n      add\n        /* \"#utility.yul\":20270:20296   */\n      swap1\n      pop\n        /* \"#utility.yul\":20342:20351   */\n      dup2\n        /* \"#utility.yul\":20336:20340   */\n      dup2\n        /* \"#utility.yul\":20332:20352   */\n      sub\n        /* \"#utility.yul\":20328:20329   */\n      0x00\n        /* \"#utility.yul\":20317:20326   */\n      dup4\n        /* \"#utility.yul\":20313:20330   */\n      add\n        /* \"#utility.yul\":20306:20353   */\n      mstore\n        /* \"#utility.yul\":20370:20501   */\n      tag_546\n        /* \"#utility.yul\":20496:20500   */\n      dup2\n        /* \"#utility.yul\":20370:20501   */\n      tag_343\n      jump\t// in\n    tag_546:\n        /* \"#utility.yul\":20362:20501   */\n      swap1\n      pop\n        /* \"#utility.yul\":20089:20508   */\n      swap2\n      swap1\n      pop\n      jump\t// out\n        /* \"#utility.yul\":20514:20736   */\n    tag_175:\n        /* \"#utility.yul\":20607:20611   */\n      0x00\n        /* \"#utility.yul\":20645:20647   */\n      0x20\n        /* \"#utility.yul\":20634:20643   */\n      dup3\n        /* \"#utility.yul\":20630:20648   */\n      add\n        /* \"#utility.yul\":20622:20648   */\n      swap1\n      pop\n        /* \"#utility.yul\":20658:20729   */\n      tag_548\n        /* \"#utility.yul\":20726:20727   */\n      0x00\n        /* \"#utility.yul\":20715:20724   */\n      dup4\n        /* \"#utility.yul\":20711:20728   */\n      add\n        /* \"#utility.yul\":20702:20708   */\n      dup5\n        /* \"#utility.yul\":20658:20729   */\n      tag_315\n      jump\t// in\n    tag_548:\n        /* \"#utility.yul\":20514:20736   */\n      swap3\n      swap2\n      pop\n      pop\n      jump\t// out\n        /* \"#utility.yul\":20742:20859   */\n    tag_344:\n        /* \"#utility.yul\":20851:20852   */\n      0x00\n        /* \"#utility.yul\":20848:20849   */\n      dup1\n        /* \"#utility.yul\":20841:20853   */\n      revert\n        /* \"#utility.yul\":20865:20967   */\n    tag_345:\n        /* \"#utility.yul\":20906:20912   */\n      0x00\n        /* \"#utility.yul\":20957:20959   */\n      0x1f\n        /* \"#utility.yul\":20953:20960   */\n      not\n        /* \"#utility.yul\":20948:20950   */\n      0x1f\n        /* \"#utility.yul\":20941:20946   */\n      dup4\n        /* \"#utility.yul\":20937:20951   */\n      add\n        /* \"#utility.yul\":20933:20961   */\n      and\n        /* \"#utility.yul\":20923:20961   */\n      swap1\n      pop\n        /* \"#utility.yul\":20865:20967   */\n      swap2\n      swap1\n      pop\n      jump\t// out\n        /* \"#utility.yul\":20973:21153   */\n    tag_212:\n        /* \"#utility.yul\":21021:21098   */\n      0x4e487b7100000000000000000000000000000000000000000000000000000000\n        /* \"#utility.yul\":21018:21019   */\n      0x00\n        /* \"#utility.yul\":21011:21099   */\n      mstore\n        /* \"#utility.yul\":21118:21122   */\n      0x41\n        /* \"#utility.yul\":21115:21116   */\n      0x04\n        /* \"#utility.yul\":21108:21123   */\n      mstore\n        /* \"#utility.yul\":21142:21146   */\n      0x24\n        /* \"#utility.yul\":21139:21140   */\n      0x00\n        /* \"#utility.yul\":21132:21147   */\n      revert\n        /* \"#utility.yul\":21159:21440   */\n    tag_346:\n        /* \"#utility.yul\":21242:21269   */\n      tag_553\n        /* \"#utility.yul\":21264:21268   */\n      dup3\n        /* \"#utility.yul\":21242:21269   */\n      tag_345\n      jump\t// in\n    tag_553:\n        /* \"#utility.yul\":21234:21240   */\n      dup2\n        /* \"#utility.yul\":21230:21270   */\n      add\n        /* \"#utility.yul\":21372:21378   */\n      dup2\n        /* \"#utility.yul\":21360:21370   */\n      dup2\n        /* \"#utility.yul\":21357:21379   */\n      lt\n        /* \"#utility.yul\":21336:21354   */\n      0xffffffffffffffff\n        /* \"#utility.yul\":21324:21334   */\n      dup3\n        /* \"#utility.yul\":21321:21355   */\n      gt\n        /* \"#utility.yul\":21318:21380   */\n      or\n        /* \"#utility.yul\":21315:21403   */\n      iszero\n      tag_554\n      jumpi\n        /* \"#utility.yul\":21383:21401   */\n      tag_555\n      tag_212\n      jump\t// in\n    tag_555:\n        /* \"#utility.yul\":21315:21403   */\n    tag_554:\n        /* \"#utility.yul\":21423:21433   */\n      dup1\n        /* \"#utility.yul\":21419:21421   */\n      0x40\n        /* \"#utility.yul\":21412:21434   */\n      mstore\n        /* \"#utility.yul\":21202:21440   */\n      pop\n        /* \"#utility.yul\":21159:21440   */\n      pop\n      pop\n      jump\t// out\n        /* \"#utility.yul\":21446:21575   */\n    tag_347:\n        /* \"#utility.yul\":21480:21486   */\n      0x00\n        /* \"#utility.yul\":21507:21527   */\n      tag_557\n      tag_301\n      jump\t// in\n    tag_557:\n        /* \"#utility.yul\":21497:21527   */\n      swap1\n      pop\n        /* \"#utility.yul\":21536:21569   */\n      tag_558\n        /* \"#utility.yul\":21564:21568   */\n      dup3\n        /* \"#utility.yul\":21556:21562   */\n      dup3\n        /* \"#utility.yul\":21536:21569   */\n      tag_346\n      jump\t// in\n    tag_558:\n        /* \"#utility.yul\":21446:21575   */\n      swap2\n      swap1\n      pop\n      jump\t// out\n        /* \"#utility.yul\":21581:21698   */\n    tag_348:\n        /* \"#utility.yul\":21690:21691   */\n      0x00\n        /* \"#utility.yul\":21687:21688   */\n      dup1\n        /* \"#utility.yul\":21680:21692   */\n      revert\n        /* \"#utility.yul\":21704:21847   */\n    tag_349:\n        /* \"#utility.yul\":21761:21766   */\n      0x00\n        /* \"#utility.yul\":21792:21798   */\n      dup2\n        /* \"#utility.yul\":21786:21799   */\n      mload\n        /* \"#utility.yul\":21777:21799   */\n      swap1\n      pop\n        /* \"#utility.yul\":21808:21841   */\n      tag_561\n        /* \"#utility.yul\":21835:21840   */\n      dup2\n        /* \"#utility.yul\":21808:21841   */\n      tag_304\n      jump\t// in\n    tag_561:\n        /* \"#utility.yul\":21704:21847   */\n      swap3\n      swap2\n      pop\n      pop\n      jump\t// out\n        /* \"#utility.yul\":21853:21996   */\n    tag_350:\n        /* \"#utility.yul\":21910:21915   */\n      0x00\n        /* \"#utility.yul\":21941:21947   */\n      dup2\n        /* \"#utility.yul\":21935:21948   */\n      mload\n        /* \"#utility.yul\":21926:21948   */\n      swap1\n      pop\n        /* \"#utility.yul\":21957:21990   */\n      tag_563\n        /* \"#utility.yul\":21984:21989   */\n      dup2\n        /* \"#utility.yul\":21957:21990   */\n      tag_306\n      jump\t// in\n    tag_563:\n        /* \"#utility.yul\":21853:21996   */\n      swap3\n      swap2\n      pop\n      pop\n      jump\t// out\n        /* \"#utility.yul\":22002:22119   */\n    tag_351:\n        /* \"#utility.yul\":22111:22112   */\n      0x00\n        /* \"#utility.yul\":22108:22109   */\n      dup1\n        /* \"#utility.yul\":22101:22113   */\n      revert\n        /* \"#utility.yul\":22125:22242   */\n    tag_352:\n        /* \"#utility.yul\":22234:22235   */\n      0x00\n        /* \"#utility.yul\":22231:22232   */\n      dup1\n        /* \"#utility.yul\":22224:22236   */\n      revert\n        /* \"#utility.yul\":22248:22556   */\n    tag_353:\n        /* \"#utility.yul\":22310:22314   */\n      0x00\n        /* \"#utility.yul\":22400:22418   */\n      0xffffffffffffffff\n        /* \"#utility.yul\":22392:22398   */\n      dup3\n        /* \"#utility.yul\":22389:22419   */\n      gt\n        /* \"#utility.yul\":22386:22442   */\n      iszero\n      tag_567\n      jumpi\n        /* \"#utility.yul\":22422:22440   */\n      tag_568\n      tag_212\n      jump\t// in\n    tag_568:\n        /* \"#utility.yul\":22386:22442   */\n    tag_567:\n        /* \"#utility.yul\":22460:22489   */\n      tag_569\n        /* \"#utility.yul\":22482:22488   */\n      dup3\n        /* \"#utility.yul\":22460:22489   */\n      tag_345\n      jump\t// in\n    tag_569:\n        /* \"#utility.yul\":22452:22489   */\n      swap1\n      pop\n        /* \"#utility.yul\":22544:22548   */\n      0x20\n        /* \"#utility.yul\":22538:22542   */\n      dup2\n        /* \"#utility.yul\":22534:22549   */\n      add\n        /* \"#utility.yul\":22526:22549   */\n      swap1\n      pop\n        /* \"#utility.yul\":22248:22556   */\n      swap2\n      swap1\n      pop\n      jump\t// out\n        /* \"#utility.yul\":22562:22869   */\n    tag_354:\n        /* \"#utility.yul\":22630:22631   */\n      0x00\n        /* \"#utility.yul\":22640:22753   */\n    tag_571:\n        /* \"#utility.yul\":22654:22660   */\n      dup4\n        /* \"#utility.yul\":22651:22652   */\n      dup2\n        /* \"#utility.yul\":22648:22661   */\n      lt\n        /* \"#utility.yul\":22640:22753   */\n      iszero\n      tag_573\n      jumpi\n        /* \"#utility.yul\":22739:22740   */\n      dup1\n        /* \"#utility.yul\":22734:22737   */\n      dup3\n        /* \"#utility.yul\":22730:22741   */\n      add\n        /* \"#utility.yul\":22724:22742   */\n      mload\n        /* \"#utility.yul\":22720:22721   */\n      dup2\n        /* \"#utility.yul\":22715:22718   */\n      dup5\n        /* \"#utility.yul\":22711:22722   */\n      add\n        /* \"#utility.yul\":22704:22743   */\n      mstore\n        /* \"#utility.yul\":22676:22678   */\n      0x20\n        /* \"#utility.yul\":22673:22674   */\n      dup2\n        /* \"#utility.yul\":22669:22679   */\n      add\n        /* \"#utility.yul\":22664:22679   */\n      swap1\n      pop\n        /* \"#utility.yul\":22640:22753   */\n      jump(tag_571)\n    tag_573:\n        /* \"#utility.yul\":22771:22777   */\n      dup4\n        /* \"#utility.yul\":22768:22769   */\n      dup2\n        /* \"#utility.yul\":22765:22778   */\n      gt\n        /* \"#utility.yul\":22762:22863   */\n      iszero\n      tag_574\n      jumpi\n        /* \"#utility.yul\":22851:22852   */\n      0x00\n        /* \"#utility.yul\":22842:22848   */\n      dup5\n        /* \"#utility.yul\":22837:22840   */\n      dup5\n        /* \"#utility.yul\":22833:22849   */\n      add\n        /* \"#utility.yul\":22826:22853   */\n      mstore\n        /* \"#utility.yul\":22762:22863   */\n    tag_574:\n        /* \"#utility.yul\":22611:22869   */\n      pop\n        /* \"#utility.yul\":22562:22869   */\n      pop\n      pop\n      pop\n      jump\t// out\n        /* \"#utility.yul\":22875:23296   */\n    tag_355:\n        /* \"#utility.yul\":22964:22969   */\n      0x00\n        /* \"#utility.yul\":22989:23055   */\n      tag_576\n        /* \"#utility.yul\":23005:23054   */\n      tag_577\n        /* \"#utility.yul\":23047:23053   */\n      dup5\n        /* \"#utility.yul\":23005:23054   */\n      tag_353\n      jump\t// in\n    tag_577:\n        /* \"#utility.yul\":22989:23055   */\n      tag_347\n      jump\t// in\n    tag_576:\n        /* \"#utility.yul\":22980:23055   */\n      swap1\n      pop\n        /* \"#utility.yul\":23078:23084   */\n      dup3\n        /* \"#utility.yul\":23071:23076   */\n      dup2\n        /* \"#utility.yul\":23064:23085   */\n      mstore\n        /* \"#utility.yul\":23116:23120   */\n      0x20\n        /* \"#utility.yul\":23109:23114   */\n      dup2\n        /* \"#utility.yul\":23105:23121   */\n      add\n        /* \"#utility.yul\":23154:23157   */\n      dup5\n        /* \"#utility.yul\":23145:23151   */\n      dup5\n        /* \"#utility.yul\":23140:23143   */\n      dup5\n        /* \"#utility.yul\":23136:23152   */\n      add\n        /* \"#utility.yul\":23133:23158   */\n      gt\n        /* \"#utility.yul\":23130:23242   */\n      iszero\n      tag_578\n      jumpi\n        /* \"#utility.yul\":23161:23240   */\n      tag_579\n      tag_352\n      jump\t// in\n    tag_579:\n        /* \"#utility.yul\":23130:23242   */\n    tag_578:\n        /* \"#utility.yul\":23251:23290   */\n      tag_580\n        /* \"#utility.yul\":23283:23289   */\n      dup5\n        /* \"#utility.yul\":23278:23281   */\n      dup3\n        /* \"#utility.yul\":23273:23276   */\n      dup6\n        /* \"#utility.yul\":23251:23290   */\n      tag_354\n      jump\t// in\n    tag_580:\n        /* \"#utility.yul\":22970:23296   */\n      pop\n        /* \"#utility.yul\":22875:23296   */\n      swap4\n      swap3\n      pop\n      pop\n      pop\n      jump\t// out\n        /* \"#utility.yul\":23316:23671   */\n    tag_356:\n        /* \"#utility.yul\":23383:23388   */\n      0x00\n        /* \"#utility.yul\":23432:23435   */\n      dup3\n        /* \"#utility.yul\":23425:23429   */\n      0x1f\n        /* \"#utility.yul\":23417:23423   */\n      dup4\n        /* \"#utility.yul\":23413:23430   */\n      add\n        /* \"#utility.yul\":23409:23436   */\n      slt\n        /* \"#utility.yul\":23399:23521   */\n      tag_582\n      jumpi\n        /* \"#utility.yul\":23440:23519   */\n      tag_583\n      tag_351\n      jump\t// in\n    tag_583:\n        /* \"#utility.yul\":23399:23521   */\n    tag_582:\n        /* \"#utility.yul\":23550:23556   */\n      dup2\n        /* \"#utility.yul\":23544:23557   */\n      mload\n        /* \"#utility.yul\":23575:23665   */\n      tag_584\n        /* \"#utility.yul\":23661:23664   */\n      dup5\n        /* \"#utility.yul\":23653:23659   */\n      dup3\n        /* \"#utility.yul\":23646:23650   */\n      0x20\n        /* \"#utility.yul\":23638:23644   */\n      dup7\n        /* \"#utility.yul\":23634:23651   */\n      add\n        /* \"#utility.yul\":23575:23665   */\n      tag_355\n      jump\t// in\n    tag_584:\n        /* \"#utility.yul\":23566:23665   */\n      swap2\n      pop\n        /* \"#utility.yul\":23389:23671   */\n      pop\n        /* \"#utility.yul\":23316:23671   */\n      swap3\n      swap2\n      pop\n      pop\n      jump\t// out\n        /* \"#utility.yul\":23677:23767   */\n    tag_357:\n        /* \"#utility.yul\":23711:23718   */\n      0x00\n        /* \"#utility.yul\":23754:23759   */\n      dup2\n        /* \"#utility.yul\":23747:23760   */\n      iszero\n        /* \"#utility.yul\":23740:23761   */\n      iszero\n        /* \"#utility.yul\":23729:23761   */\n      swap1\n      pop\n        /* \"#utility.yul\":23677:23767   */\n      swap2\n      swap1\n      pop\n      jump\t// out\n        /* \"#utility.yul\":23773:23889   */\n    tag_358:\n        /* \"#utility.yul\":23843:23864   */\n      tag_587\n        /* \"#utility.yul\":23858:23863   */\n      dup2\n        /* \"#utility.yul\":23843:23864   */\n      tag_357\n      jump\t// in\n    tag_587:\n        /* \"#utility.yul\":23836:23841   */\n      dup2\n        /* \"#utility.yul\":23833:23865   */\n      eq\n        /* \"#utility.yul\":23823:23883   */\n      tag_588\n      jumpi\n        /* \"#utility.yul\":23879:23880   */\n      0x00\n        /* \"#utility.yul\":23876:23877   */\n      dup1\n        /* \"#utility.yul\":23869:23881   */\n      revert\n        /* \"#utility.yul\":23823:23883   */\n    tag_588:\n        /* \"#utility.yul\":23773:23889   */\n      pop\n      jump\t// out\n        /* \"#utility.yul\":23895:24032   */\n    tag_359:\n        /* \"#utility.yul\":23949:23954   */\n      0x00\n        /* \"#utility.yul\":23980:23986   */\n      dup2\n        /* \"#utility.yul\":23974:23987   */\n      mload\n        /* \"#utility.yul\":23965:23987   */\n      swap1\n      pop\n        /* \"#utility.yul\":23996:24026   */\n      tag_590\n        /* \"#utility.yul\":24020:24025   */\n      dup2\n        /* \"#utility.yul\":23996:24026   */\n      tag_358\n      jump\t// in\n    tag_590:\n        /* \"#utility.yul\":23895:24032   */\n      swap3\n      swap2\n      pop\n      pop\n      jump\t// out\n        /* \"#utility.yul\":24073:25532   */\n    tag_360:\n        /* \"#utility.yul\":24161:24166   */\n      0x00\n        /* \"#utility.yul\":24205:24209   */\n      0xa0\n        /* \"#utility.yul\":24193:24202   */\n      dup3\n        /* \"#utility.yul\":24188:24191   */\n      dup5\n        /* \"#utility.yul\":24184:24203   */\n      sub\n        /* \"#utility.yul\":24180:24210   */\n      slt\n        /* \"#utility.yul\":24177:24294   */\n      iszero\n      tag_592\n      jumpi\n        /* \"#utility.yul\":24213:24292   */\n      tag_593\n      tag_344\n      jump\t// in\n    tag_593:\n        /* \"#utility.yul\":24177:24294   */\n    tag_592:\n        /* \"#utility.yul\":24312:24333   */\n      tag_594\n        /* \"#utility.yul\":24328:24332   */\n      0xa0\n        /* \"#utility.yul\":24312:24333   */\n      tag_347\n      jump\t// in\n    tag_594:\n        /* \"#utility.yul\":24303:24333   */\n      swap1\n      pop\n        /* \"#utility.yul\":24390:24391   */\n      0x00\n        /* \"#utility.yul\":24430:24490   */\n      tag_595\n        /* \"#utility.yul\":24486:24489   */\n      dup5\n        /* \"#utility.yul\":24477:24483   */\n      dup3\n        /* \"#utility.yul\":24466:24475   */\n      dup6\n        /* \"#utility.yul\":24462:24484   */\n      add\n        /* \"#utility.yul\":24430:24490   */\n      tag_349\n      jump\t// in\n    tag_595:\n        /* \"#utility.yul\":24423:24427   */\n      0x00\n        /* \"#utility.yul\":24416:24421   */\n      dup4\n        /* \"#utility.yul\":24412:24428   */\n      add\n        /* \"#utility.yul\":24405:24491   */\n      mstore\n        /* \"#utility.yul\":24343:24502   */\n      pop\n        /* \"#utility.yul\":24562:24564   */\n      0x20\n        /* \"#utility.yul\":24603:24663   */\n      tag_596\n        /* \"#utility.yul\":24659:24662   */\n      dup5\n        /* \"#utility.yul\":24650:24656   */\n      dup3\n        /* \"#utility.yul\":24639:24648   */\n      dup6\n        /* \"#utility.yul\":24635:24657   */\n      add\n        /* \"#utility.yul\":24603:24663   */\n      tag_350\n      jump\t// in\n    tag_596:\n        /* \"#utility.yul\":24596:24600   */\n      0x20\n        /* \"#utility.yul\":24589:24594   */\n      dup4\n        /* \"#utility.yul\":24585:24601   */\n      add\n        /* \"#utility.yul\":24578:24664   */\n      mstore\n        /* \"#utility.yul\":24512:24675   */\n      pop\n        /* \"#utility.yul\":24757:24759   */\n      0x40\n        /* \"#utility.yul\":24746:24755   */\n      dup3\n        /* \"#utility.yul\":24742:24760   */\n      add\n        /* \"#utility.yul\":24736:24761   */\n      mload\n        /* \"#utility.yul\":24788:24806   */\n      0xffffffffffffffff\n        /* \"#utility.yul\":24780:24786   */\n      dup2\n        /* \"#utility.yul\":24777:24807   */\n      gt\n        /* \"#utility.yul\":24774:24891   */\n      iszero\n      tag_597\n      jumpi\n        /* \"#utility.yul\":24810:24889   */\n      tag_598\n      tag_348\n      jump\t// in\n    tag_598:\n        /* \"#utility.yul\":24774:24891   */\n    tag_597:\n        /* \"#utility.yul\":24930:25000   */\n      tag_599\n        /* \"#utility.yul\":24996:24999   */\n      dup5\n        /* \"#utility.yul\":24987:24993   */\n      dup3\n        /* \"#utility.yul\":24976:24985   */\n      dup6\n        /* \"#utility.yul\":24972:24994   */\n      add\n        /* \"#utility.yul\":24930:25000   */\n      tag_356\n      jump\t// in\n    tag_599:\n        /* \"#utility.yul\":24923:24927   */\n      0x40\n        /* \"#utility.yul\":24916:24921   */\n      dup4\n        /* \"#utility.yul\":24912:24928   */\n      add\n        /* \"#utility.yul\":24905:25001   */\n      mstore\n        /* \"#utility.yul\":24685:25012   */\n      pop\n        /* \"#utility.yul\":25098:25100   */\n      0x60\n        /* \"#utility.yul\":25087:25096   */\n      dup3\n        /* \"#utility.yul\":25083:25101   */\n      add\n        /* \"#utility.yul\":25077:25102   */\n      mload\n        /* \"#utility.yul\":25129:25147   */\n      0xffffffffffffffff\n        /* \"#utility.yul\":25121:25127   */\n      dup2\n        /* \"#utility.yul\":25118:25148   */\n      gt\n        /* \"#utility.yul\":25115:25232   */\n      iszero\n      tag_600\n      jumpi\n        /* \"#utility.yul\":25151:25230   */\n      tag_601\n      tag_348\n      jump\t// in\n    tag_601:\n        /* \"#utility.yul\":25115:25232   */\n    tag_600:\n        /* \"#utility.yul\":25271:25341   */\n      tag_602\n        /* \"#utility.yul\":25337:25340   */\n      dup5\n        /* \"#utility.yul\":25328:25334   */\n      dup3\n        /* \"#utility.yul\":25317:25326   */\n      dup6\n        /* \"#utility.yul\":25313:25335   */\n      add\n        /* \"#utility.yul\":25271:25341   */\n      tag_356\n      jump\t// in\n    tag_602:\n        /* \"#utility.yul\":25264:25268   */\n      0x60\n        /* \"#utility.yul\":25257:25262   */\n      dup4\n        /* \"#utility.yul\":25253:25269   */\n      add\n        /* \"#utility.yul\":25246:25342   */\n      mstore\n        /* \"#utility.yul\":25022:25353   */\n      pop\n        /* \"#utility.yul\":25414:25417   */\n      0x80\n        /* \"#utility.yul\":25456:25513   */\n      tag_603\n        /* \"#utility.yul\":25509:25512   */\n      dup5\n        /* \"#utility.yul\":25500:25506   */\n      dup3\n        /* \"#utility.yul\":25489:25498   */\n      dup6\n        /* \"#utility.yul\":25485:25507   */\n      add\n        /* \"#utility.yul\":25456:25513   */\n      tag_359\n      jump\t// in\n    tag_603:\n        /* \"#utility.yul\":25449:25453   */\n      0x80\n        /* \"#utility.yul\":25442:25447   */\n      dup4\n        /* \"#utility.yul\":25438:25454   */\n      add\n        /* \"#utility.yul\":25431:25514   */\n      mstore\n        /* \"#utility.yul\":25363:25525   */\n      pop\n        /* \"#utility.yul\":24073:25532   */\n      swap3\n      swap2\n      pop\n      pop\n      jump\t// out\n        /* \"#utility.yul\":25538:26098   */\n    tag_179:\n        /* \"#utility.yul\":25636:25642   */\n      0x00\n        /* \"#utility.yul\":25685:25687   */\n      0x20\n        /* \"#utility.yul\":25673:25682   */\n      dup3\n        /* \"#utility.yul\":25664:25671   */\n      dup5\n        /* \"#utility.yul\":25660:25683   */\n      sub\n        /* \"#utility.yul\":25656:25688   */\n      slt\n        /* \"#utility.yul\":25653:25772   */\n      iszero\n      tag_605\n      jumpi\n        /* \"#utility.yul\":25691:25770   */\n      tag_606\n      tag_302\n      jump\t// in\n    tag_606:\n        /* \"#utility.yul\":25653:25772   */\n    tag_605:\n        /* \"#utility.yul\":25832:25833   */\n      0x00\n        /* \"#utility.yul\":25821:25830   */\n      dup3\n        /* \"#utility.yul\":25817:25834   */\n      add\n        /* \"#utility.yul\":25811:25835   */\n      mload\n        /* \"#utility.yul\":25862:25880   */\n      0xffffffffffffffff\n        /* \"#utility.yul\":25854:25860   */\n      dup2\n        /* \"#utility.yul\":25851:25881   */\n      gt\n        /* \"#utility.yul\":25848:25965   */\n      iszero\n      tag_607\n      jumpi\n        /* \"#utility.yul\":25884:25963   */\n      tag_608\n      tag_303\n      jump\t// in\n    tag_608:\n        /* \"#utility.yul\":25848:25965   */\n    tag_607:\n        /* \"#utility.yul\":25989:26081   */\n      tag_609\n        /* \"#utility.yul\":26073:26080   */\n      dup5\n        /* \"#utility.yul\":26064:26070   */\n      dup3\n        /* \"#utility.yul\":26053:26062   */\n      dup6\n        /* \"#utility.yul\":26049:26071   */\n      add\n        /* \"#utility.yul\":25989:26081   */\n      tag_360\n      jump\t// in\n    tag_609:\n        /* \"#utility.yul\":25979:26081   */\n      swap2\n      pop\n        /* \"#utility.yul\":25782:26091   */\n      pop\n        /* \"#utility.yul\":25538:26098   */\n      swap3\n      swap2\n      pop\n      pop\n      jump\t// out\n        /* \"#utility.yul\":26104:26281   */\n    tag_361:\n        /* \"#utility.yul\":26244:26273   */\n      0x4974656d206973206e6f7420617661696c61626c65206e6f7720210000000000\n        /* \"#utility.yul\":26240:26241   */\n      0x00\n        /* \"#utility.yul\":26232:26238   */\n      dup3\n        /* \"#utility.yul\":26228:26242   */\n      add\n        /* \"#utility.yul\":26221:26274   */\n      mstore\n        /* \"#utility.yul\":26104:26281   */\n      pop\n      jump\t// out\n        /* \"#utility.yul\":26287:26653   */\n    tag_362:\n        /* \"#utility.yul\":26429:26432   */\n      0x00\n        /* \"#utility.yul\":26450:26517   */\n      tag_612\n        /* \"#utility.yul\":26514:26516   */\n      0x1b\n        /* \"#utility.yul\":26509:26512   */\n      dup4\n        /* \"#utility.yul\":26450:26517   */\n      tag_331\n      jump\t// in\n    tag_612:\n        /* \"#utility.yul\":26443:26517   */\n      swap2\n      pop\n        /* \"#utility.yul\":26526:26619   */\n      tag_613\n        /* \"#utility.yul\":26615:26618   */\n      dup3\n        /* \"#utility.yul\":26526:26619   */\n      tag_361\n      jump\t// in\n    tag_613:\n        /* \"#utility.yul\":26644:26646   */\n      0x20\n        /* \"#utility.yul\":26639:26642   */\n      dup3\n        /* \"#utility.yul\":26635:26647   */\n      add\n        /* \"#utility.yul\":26628:26647   */\n      swap1\n      pop\n        /* \"#utility.yul\":26287:26653   */\n      swap2\n      swap1\n      pop\n      jump\t// out\n        /* \"#utility.yul\":26659:27078   */\n    tag_182:\n        /* \"#utility.yul\":26825:26829   */\n      0x00\n        /* \"#utility.yul\":26863:26865   */\n      0x20\n        /* \"#utility.yul\":26852:26861   */\n      dup3\n        /* \"#utility.yul\":26848:26866   */\n      add\n        /* \"#utility.yul\":26840:26866   */\n      swap1\n      pop\n        /* \"#utility.yul\":26912:26921   */\n      dup2\n        /* \"#utility.yul\":26906:26910   */\n      dup2\n        /* \"#utility.yul\":26902:26922   */\n      sub\n        /* \"#utility.yul\":26898:26899   */\n      0x00\n        /* \"#utility.yul\":26887:26896   */\n      dup4\n        /* \"#utility.yul\":26883:26900   */\n      add\n        /* \"#utility.yul\":26876:26923   */\n      mstore\n        /* \"#utility.yul\":26940:27071   */\n      tag_615\n        /* \"#utility.yul\":27066:27070   */\n      dup2\n        /* \"#utility.yul\":26940:27071   */\n      tag_362\n      jump\t// in\n    tag_615:\n        /* \"#utility.yul\":26932:27071   */\n      swap1\n      pop\n        /* \"#utility.yul\":26659:27078   */\n      swap2\n      swap1\n      pop\n      jump\t// out\n        /* \"#utility.yul\":27084:27264   */\n    tag_363:\n        /* \"#utility.yul\":27132:27209   */\n      0x4e487b7100000000000000000000000000000000000000000000000000000000\n        /* \"#utility.yul\":27129:27130   */\n      0x00\n        /* \"#utility.yul\":27122:27210   */\n      mstore\n        /* \"#utility.yul\":27229:27233   */\n      0x11\n        /* \"#utility.yul\":27226:27227   */\n      0x04\n        /* \"#utility.yul\":27219:27234   */\n      mstore\n        /* \"#utility.yul\":27253:27257   */\n      0x24\n        /* \"#utility.yul\":27250:27251   */\n      0x00\n        /* \"#utility.yul\":27243:27258   */\n      revert\n        /* \"#utility.yul\":27270:27575   */\n    tag_207:\n        /* \"#utility.yul\":27310:27313   */\n      0x00\n        /* \"#utility.yul\":27329:27349   */\n      tag_618\n        /* \"#utility.yul\":27347:27348   */\n      dup3\n        /* \"#utility.yul\":27329:27349   */\n      tag_291\n      jump\t// in\n    tag_618:\n        /* \"#utility.yul\":27324:27349   */\n      swap2\n      pop\n        /* \"#utility.yul\":27363:27383   */\n      tag_619\n        /* \"#utility.yul\":27381:27382   */\n      dup4\n        /* \"#utility.yul\":27363:27383   */\n      tag_291\n      jump\t// in\n    tag_619:\n        /* \"#utility.yul\":27358:27383   */\n      swap3\n      pop\n        /* \"#utility.yul\":27517:27518   */\n      dup3\n        /* \"#utility.yul\":27449:27515   */\n      0xffffffffffffffffffffffffffffffffffffffffffffffffffffffffffffffff\n        /* \"#utility.yul\":27445:27519   */\n      sub\n        /* \"#utility.yul\":27442:27443   */\n      dup3\n        /* \"#utility.yul\":27439:27520   */\n      gt\n        /* \"#utility.yul\":27436:27543   */\n      iszero\n      tag_620\n      jumpi\n        /* \"#utility.yul\":27523:27541   */\n      tag_621\n      tag_363\n      jump\t// in\n    tag_621:\n        /* \"#utility.yul\":27436:27543   */\n    tag_620:\n        /* \"#utility.yul\":27567:27568   */\n      dup3\n        /* \"#utility.yul\":27564:27565   */\n      dup3\n        /* \"#utility.yul\":27560:27569   */\n      add\n        /* \"#utility.yul\":27553:27569   */\n      swap1\n      pop\n        /* \"#utility.yul\":27270:27575   */\n      swap3\n      swap2\n      pop\n      pop\n      jump\t// out\n        /* \"#utility.yul\":27581:27814   */\n    tag_209:\n        /* \"#utility.yul\":27620:27623   */\n      0x00\n        /* \"#utility.yul\":27643:27667   */\n      tag_623\n        /* \"#utility.yul\":27661:27666   */\n      dup3\n        /* \"#utility.yul\":27643:27667   */\n      tag_291\n      jump\t// in\n    tag_623:\n        /* \"#utility.yul\":27634:27667   */\n      swap2\n      pop\n        /* \"#utility.yul\":27689:27755   */\n      0xffffffffffffffffffffffffffffffffffffffffffffffffffffffffffffffff\n        /* \"#utility.yul\":27682:27687   */\n      dup3\n        /* \"#utility.yul\":27679:27756   */\n      sub\n        /* \"#utility.yul\":27676:27779   */\n      tag_624\n      jumpi\n        /* \"#utility.yul\":27759:27777   */\n      tag_625\n      tag_363\n      jump\t// in\n    tag_625:\n        /* \"#utility.yul\":27676:27779   */\n    tag_624:\n        /* \"#utility.yul\":27806:27807   */\n      0x01\n        /* \"#utility.yul\":27799:27804   */\n      dup3\n        /* \"#utility.yul\":27795:27808   */\n      add\n        /* \"#utility.yul\":27788:27808   */\n      swap1\n      pop\n        /* \"#utility.yul\":27581:27814   */\n      swap2\n      swap1\n      pop\n      jump\t// out\n        /* \"#utility.yul\":27820:28000   */\n    tag_228:\n        /* \"#utility.yul\":27868:27945   */\n      0x4e487b7100000000000000000000000000000000000000000000000000000000\n        /* \"#utility.yul\":27865:27866   */\n      0x00\n        /* \"#utility.yul\":27858:27946   */\n      mstore\n        /* \"#utility.yul\":27965:27969   */\n      0x32\n        /* \"#utility.yul\":27962:27963   */\n      0x04\n        /* \"#utility.yul\":27955:27970   */\n      mstore\n        /* \"#utility.yul\":27989:27993   */\n      0x24\n        /* \"#utility.yul\":27986:27987   */\n      0x00\n        /* \"#utility.yul\":27979:27994   */\n      revert\n        /* \"#utility.yul\":28006:28257   */\n    tag_364:\n        /* \"#utility.yul\":28146:28180   */\n      0x506c65617365207375626d6974207468652061736b696e672070726963652069\n        /* \"#utility.yul\":28142:28143   */\n      0x00\n        /* \"#utility.yul\":28134:28140   */\n      dup3\n        /* \"#utility.yul\":28130:28144   */\n      add\n        /* \"#utility.yul\":28123:28181   */\n      mstore\n        /* \"#utility.yul\":28215:28249   */\n      0x6e206f7264657220746f20636f6d706c65746520746865207075726368617365\n        /* \"#utility.yul\":28210:28212   */\n      0x20\n        /* \"#utility.yul\":28202:28208   */\n      dup3\n        /* \"#utility.yul\":28198:28213   */\n      add\n        /* \"#utility.yul\":28191:28250   */\n      mstore\n        /* \"#utility.yul\":28006:28257   */\n      pop\n      jump\t// out\n        /* \"#utility.yul\":28263:28629   */\n    tag_365:\n        /* \"#utility.yul\":28405:28408   */\n      0x00\n        /* \"#utility.yul\":28426:28493   */\n      tag_629\n        /* \"#utility.yul\":28490:28492   */\n      0x40\n        /* \"#utility.yul\":28485:28488   */\n      dup4\n        /* \"#utility.yul\":28426:28493   */\n      tag_331\n      jump\t// in\n    tag_629:\n        /* \"#utility.yul\":28419:28493   */\n      swap2\n      pop\n        /* \"#utility.yul\":28502:28595   */\n      tag_630\n        /* \"#utility.yul\":28591:28594   */\n      dup3\n        /* \"#utility.yul\":28502:28595   */\n      tag_364\n      jump\t// in\n    tag_630:\n        /* \"#utility.yul\":28620:28622   */\n      0x40\n        /* \"#utility.yul\":28615:28618   */\n      dup3\n        /* \"#utility.yul\":28611:28623   */\n      add\n        /* \"#utility.yul\":28604:28623   */\n      swap1\n      pop\n        /* \"#utility.yul\":28263:28629   */\n      swap2\n      swap1\n      pop\n      jump\t// out\n        /* \"#utility.yul\":28635:29054   */\n    tag_247:\n        /* \"#utility.yul\":28801:28805   */\n      0x00\n        /* \"#utility.yul\":28839:28841   */\n      0x20\n        /* \"#utility.yul\":28828:28837   */\n      dup3\n        /* \"#utility.yul\":28824:28842   */\n      add\n        /* \"#utility.yul\":28816:28842   */\n      swap1\n      pop\n        /* \"#utility.yul\":28888:28897   */\n      dup2\n        /* \"#utility.yul\":28882:28886   */\n      dup2\n        /* \"#utility.yul\":28878:28898   */\n      sub\n        /* \"#utility.yul\":28874:28875   */\n      0x00\n        /* \"#utility.yul\":28863:28872   */\n      dup4\n        /* \"#utility.yul\":28859:28876   */\n      add\n        /* \"#utility.yul\":28852:28899   */\n      mstore\n        /* \"#utility.yul\":28916:29047   */\n      tag_632\n        /* \"#utility.yul\":29042:29046   */\n      dup2\n        /* \"#utility.yul\":28916:29047   */\n      tag_365\n      jump\t// in\n    tag_632:\n        /* \"#utility.yul\":28908:29047   */\n      swap1\n      pop\n        /* \"#utility.yul\":28635:29054   */\n      swap2\n      swap1\n      pop\n      jump\t// out\n        /* \"#utility.yul\":29060:29405   */\n    tag_254:\n        /* \"#utility.yul\":29127:29133   */\n      0x00\n        /* \"#utility.yul\":29176:29178   */\n      0x20\n        /* \"#utility.yul\":29164:29173   */\n      dup3\n        /* \"#utility.yul\":29155:29162   */\n      dup5\n        /* \"#utility.yul\":29151:29174   */\n      sub\n        /* \"#utility.yul\":29147:29179   */\n      slt\n        /* \"#utility.yul\":29144:29263   */\n      iszero\n      tag_634\n      jumpi\n        /* \"#utility.yul\":29182:29261   */\n      tag_635\n      tag_302\n      jump\t// in\n    tag_635:\n        /* \"#utility.yul\":29144:29263   */\n    tag_634:\n        /* \"#utility.yul\":29302:29303   */\n      0x00\n        /* \"#utility.yul\":29327:29388   */\n      tag_636\n        /* \"#utility.yul\":29380:29387   */\n      dup5\n        /* \"#utility.yul\":29371:29377   */\n      dup3\n        /* \"#utility.yul\":29360:29369   */\n      dup6\n        /* \"#utility.yul\":29356:29378   */\n      add\n        /* \"#utility.yul\":29327:29388   */\n      tag_359\n      jump\t// in\n    tag_636:\n        /* \"#utility.yul\":29317:29388   */\n      swap2\n      pop\n        /* \"#utility.yul\":29273:29398   */\n      pop\n        /* \"#utility.yul\":29060:29405   */\n      swap3\n      swap2\n      pop\n      pop\n      jump\t// out\n        /* \"#utility.yul\":29411:29564   */\n    tag_366:\n        /* \"#utility.yul\":29551:29556   */\n      0x5351460000000000000000000000000000000000000000000000000000000000\n        /* \"#utility.yul\":29547:29548   */\n      0x00\n        /* \"#utility.yul\":29539:29545   */\n      dup3\n        /* \"#utility.yul\":29535:29549   */\n      add\n        /* \"#utility.yul\":29528:29557   */\n      mstore\n        /* \"#utility.yul\":29411:29564   */\n      pop\n      jump\t// out\n        /* \"#utility.yul\":29570:29935   */\n    tag_367:\n        /* \"#utility.yul\":29712:29715   */\n      0x00\n        /* \"#utility.yul\":29733:29799   */\n      tag_639\n        /* \"#utility.yul\":29797:29798   */\n      0x03\n        /* \"#utility.yul\":29792:29795   */\n      dup4\n        /* \"#utility.yul\":29733:29799   */\n      tag_331\n      jump\t// in\n    tag_639:\n        /* \"#utility.yul\":29726:29799   */\n      swap2\n      pop\n        /* \"#utility.yul\":29808:29901   */\n      tag_640\n        /* \"#utility.yul\":29897:29900   */\n      dup3\n        /* \"#utility.yul\":29808:29901   */\n      tag_366\n      jump\t// in\n    tag_640:\n        /* \"#utility.yul\":29926:29928   */\n      0x20\n        /* \"#utility.yul\":29921:29924   */\n      dup3\n        /* \"#utility.yul\":29917:29929   */\n      add\n        /* \"#utility.yul\":29910:29929   */\n      swap1\n      pop\n        /* \"#utility.yul\":29570:29935   */\n      swap2\n      swap1\n      pop\n      jump\t// out\n        /* \"#utility.yul\":29941:30691   */\n    tag_268:\n        /* \"#utility.yul\":30191:30195   */\n      0x00\n        /* \"#utility.yul\":30229:30232   */\n      0x80\n        /* \"#utility.yul\":30218:30227   */\n      dup3\n        /* \"#utility.yul\":30214:30233   */\n      add\n        /* \"#utility.yul\":30206:30233   */\n      swap1\n      pop\n        /* \"#utility.yul\":30243:30314   */\n      tag_642\n        /* \"#utility.yul\":30311:30312   */\n      0x00\n        /* \"#utility.yul\":30300:30309   */\n      dup4\n        /* \"#utility.yul\":30296:30313   */\n      add\n        /* \"#utility.yul\":30287:30293   */\n      dup7\n        /* \"#utility.yul\":30243:30314   */\n      tag_315\n      jump\t// in\n    tag_642:\n        /* \"#utility.yul\":30324:30396   */\n      tag_643\n        /* \"#utility.yul\":30392:30394   */\n      0x20\n        /* \"#utility.yul\":30381:30390   */\n      dup4\n        /* \"#utility.yul\":30377:30395   */\n      add\n        /* \"#utility.yul\":30368:30374   */\n      dup6\n        /* \"#utility.yul\":30324:30396   */\n      tag_315\n      jump\t// in\n    tag_643:\n        /* \"#utility.yul\":30443:30452   */\n      dup2\n        /* \"#utility.yul\":30437:30441   */\n      dup2\n        /* \"#utility.yul\":30433:30453   */\n      sub\n        /* \"#utility.yul\":30428:30430   */\n      0x40\n        /* \"#utility.yul\":30417:30426   */\n      dup4\n        /* \"#utility.yul\":30413:30431   */\n      add\n        /* \"#utility.yul\":30406:30454   */\n      mstore\n        /* \"#utility.yul\":30471:30602   */\n      tag_644\n        /* \"#utility.yul\":30597:30601   */\n      dup2\n        /* \"#utility.yul\":30471:30602   */\n      tag_367\n      jump\t// in\n    tag_644:\n        /* \"#utility.yul\":30463:30602   */\n      swap1\n      pop\n        /* \"#utility.yul\":30612:30684   */\n      tag_645\n        /* \"#utility.yul\":30680:30682   */\n      0x60\n        /* \"#utility.yul\":30669:30678   */\n      dup4\n        /* \"#utility.yul\":30665:30683   */\n      add\n        /* \"#utility.yul\":30656:30662   */\n      dup5\n        /* \"#utility.yul\":30612:30684   */\n      tag_315\n      jump\t// in\n    tag_645:\n        /* \"#utility.yul\":29941:30691   */\n      swap5\n      swap4\n      pop\n      pop\n      pop\n      pop\n      jump\t// out\n        /* \"#utility.yul\":30697:30922   */\n    tag_368:\n        /* \"#utility.yul\":30837:30871   */\n      0x4f776e61626c653a206e6577206f776e657220697320746865207a65726f2061\n        /* \"#utility.yul\":30833:30834   */\n      0x00\n        /* \"#utility.yul\":30825:30831   */\n      dup3\n        /* \"#utility.yul\":30821:30835   */\n      add\n        /* \"#utility.yul\":30814:30872   */\n      mstore\n        /* \"#utility.yul\":30906:30914   */\n      0x6464726573730000000000000000000000000000000000000000000000000000\n        /* \"#utility.yul\":30901:30903   */\n      0x20\n        /* \"#utility.yul\":30893:30899   */\n      dup3\n        /* \"#utility.yul\":30889:30904   */\n      add\n        /* \"#utility.yul\":30882:30915   */\n      mstore\n        /* \"#utility.yul\":30697:30922   */\n      pop\n      jump\t// out\n        /* \"#utility.yul\":30928:31294   */\n    tag_369:\n        /* \"#utility.yul\":31070:31073   */\n      0x00\n        /* \"#utility.yul\":31091:31158   */\n      tag_648\n        /* \"#utility.yul\":31155:31157   */\n      0x26\n        /* \"#utility.yul\":31150:31153   */\n      dup4\n        /* \"#utility.yul\":31091:31158   */\n      tag_331\n      jump\t// in\n    tag_648:\n        /* \"#utility.yul\":31084:31158   */\n      swap2\n      pop\n        /* \"#utility.yul\":31167:31260   */\n      tag_649\n        /* \"#utility.yul\":31256:31259   */\n      dup3\n        /* \"#utility.yul\":31167:31260   */\n      tag_368\n      jump\t// in\n    tag_649:\n        /* \"#utility.yul\":31285:31287   */\n      0x40\n        /* \"#utility.yul\":31280:31283   */\n      dup3\n        /* \"#utility.yul\":31276:31288   */\n      add\n        /* \"#utility.yul\":31269:31288   */\n      swap1\n      pop\n        /* \"#utility.yul\":30928:31294   */\n      swap2\n      swap1\n      pop\n      jump\t// out\n        /* \"#utility.yul\":31300:31719   */\n    tag_283:\n        /* \"#utility.yul\":31466:31470   */\n      0x00\n        /* \"#utility.yul\":31504:31506   */\n      0x20\n        /* \"#utility.yul\":31493:31502   */\n      dup3\n        /* \"#utility.yul\":31489:31507   */\n      add\n        /* \"#utility.yul\":31481:31507   */\n      swap1\n      pop\n        /* \"#utility.yul\":31553:31562   */\n      dup2\n        /* \"#utility.yul\":31547:31551   */\n      dup2\n        /* \"#utility.yul\":31543:31563   */\n      sub\n        /* \"#utility.yul\":31539:31540   */\n      0x00\n        /* \"#utility.yul\":31528:31537   */\n      dup4\n        /* \"#utility.yul\":31524:31541   */\n      add\n        /* \"#utility.yul\":31517:31564   */\n      mstore\n        /* \"#utility.yul\":31581:31712   */\n      tag_651\n        /* \"#utility.yul\":31707:31711   */\n      dup2\n        /* \"#utility.yul\":31581:31712   */\n      tag_369\n      jump\t// in\n    tag_651:\n        /* \"#utility.yul\":31573:31712   */\n      swap1\n      pop\n        /* \"#utility.yul\":31300:31719   */\n      swap2\n      swap1\n      pop\n      jump\t// out\n\n    auxdata: 0xa2646970667358221220708640289755370d83d73c1486392959a428a171e5068a3d4475a88a2c1b91d164736f6c634300080d0033\n}\n",
				"bytecode": {
					"linkReferences": {},
					"object": "60806040523480156200001157600080fd5b506040516200313d3803806200313d833981810160405281019062000037919062000263565b60016000819055506200005f620000536200012b60201b60201c565b6200013360201b60201c565b82600960006101000a81548173ffffffffffffffffffffffffffffffffffffffff021916908373ffffffffffffffffffffffffffffffffffffffff16021790555081600b60006101000a81548173ffffffffffffffffffffffffffffffffffffffff021916908373ffffffffffffffffffffffffffffffffffffffff16021790555080600a60006101000a81548173ffffffffffffffffffffffffffffffffffffffff021916908373ffffffffffffffffffffffffffffffffffffffff160217905550505050620002bf565b600033905090565b6000600c60009054906101000a900473ffffffffffffffffffffffffffffffffffffffff16905081600c60006101000a81548173ffffffffffffffffffffffffffffffffffffffff021916908373ffffffffffffffffffffffffffffffffffffffff1602179055508173ffffffffffffffffffffffffffffffffffffffff168173ffffffffffffffffffffffffffffffffffffffff167f8be0079c531659141344cd1fd0a4f28419497f9722a3daafe3b4186f6b6457e060405160405180910390a35050565b600080fd5b600073ffffffffffffffffffffffffffffffffffffffff82169050919050565b60006200022b82620001fe565b9050919050565b6200023d816200021e565b81146200024957600080fd5b50565b6000815190506200025d8162000232565b92915050565b6000806000606084860312156200027f576200027e620001f9565b5b60006200028f868287016200024c565b9350506020620002a2868287016200024c565b9250506040620002b5868287016200024c565b9150509250925092565b612e6e80620002cf6000396000f3fe608060405234801561001057600080fd5b50600436106101425760003560e01c8063673cf668116100b8578063b7a60c7e1161007c578063b7a60c7e14610335578063c45a015514610353578063c7be7a4914610371578063f2fde38b146103a1578063f55de0c7146103bd578063ff68fa6e146103db57610142565b8063673cf668146102b5578063715018a6146102d357806385a8b36c146102dd5780638da5cb5b146102fb578063a1c11ca81461031957610142565b80632b4c32be1161010a5780632b4c32be146101e9578063361c1995146102075780633fc15f1514610223578063517bd451146102415780635bb47808146102645780635c80a4351461028057610142565b80630f08efe014610147578063100616311461016557806315b124941461018157806327ce464e1461019d5780632a45b250146101b9575b600080fd5b61014f610410565b60405161015c919061201d565b60405180910390f35b61017f600480360381019061017a9190612078565b61052f565b005b61019b600480360381019061019691906120d1565b61099f565b005b6101b760048036038101906101b291906120d1565b610a5f565b005b6101d360048036038101906101ce9190612078565b610b1f565b6040516101e0919061201d565b60405180910390f35b6101f1610c57565b6040516101fe9190612139565b60405180910390f35b610221600480360381019061021c9190612154565b610c62565b005b61022b610fd4565b60405161023891906121f3565b60405180910390f35b610249610ffa565b60405161025b9695949392919061223b565b60405180910390f35b61027e600480360381019061027991906120d1565b611071565b005b61029a6004803603810190610295919061229c565b611131565b6040516102ac9695949392919061223b565b60405180910390f35b6102bd6111c7565b6040516102ca9190612406565b60405180910390f35b6102db6114e7565b005b6102e561156f565b6040516102f29190612444565b60405180910390f35b610303611582565b604051610310919061245f565b60405180910390f35b610333600480360381019061032e9190612154565b6115ac565b005b61033d611a5a565b60405161034a9190612444565b60405180910390f35b61035b611a6d565b604051610368919061249b565b60405180910390f35b61038b60048036038101906103869190612078565b611a93565b604051610398919061201d565b60405180910390f35b6103bb60048036038101906103b691906120d1565b611bc5565b005b6103c5611cbc565b6040516103d291906124d7565b60405180910390f35b6103f560048036038101906103f09190612078565b611ce2565b6040516104079695949392919061223b565b60405180910390f35b610418611e5d565b60016040518060c001604052908160008201548152602001600182015481526020016002820160009054906101000a900473ffffffffffffffffffffffffffffffffffffffff1673ffffffffffffffffffffffffffffffffffffffff1673ffffffffffffffffffffffffffffffffffffffff1681526020016003820160009054906101000a900473ffffffffffffffffffffffffffffffffffffffff1673ffffffffffffffffffffffffffffffffffffffff1673ffffffffffffffffffffffffffffffffffffffff168152602001600482015481526020016005820160009054906101000a900460ff16600181111561051457610513611f2b565b5b600181111561052657610525611f2b565b5b81525050905090565b60003390506000600f60008481526020019081526020016000206040518060c001604052908160008201548152602001600182015481526020016002820160009054906101000a900473ffffffffffffffffffffffffffffffffffffffff1673ffffffffffffffffffffffffffffffffffffffff1673ffffffffffffffffffffffffffffffffffffffff1681526020016003820160009054906101000a900473ffffffffffffffffffffffffffffffffffffffff1673ffffffffffffffffffffffffffffffffffffffff1673ffffffffffffffffffffffffffffffffffffffff168152602001600482015481526020016005820160009054906101000a900460ff16600181111561064357610642611f2b565b5b600181111561065557610654611f2b565b5b81525050905060008160000151036106a2576040517f08c379a00000000000000000000000000000000000000000000000000000000081526004016106999061254f565b60405180910390fd5b6001808111156106b5576106b4611f2b565b5b8160a0015160018111156106cc576106cb611f2b565b5b1461070c576040517f08c379a0000000000000000000000000000000000000000000000000000000008152600401610703906125bb565b60405180910390fd5b600081604001519050600073ffffffffffffffffffffffffffffffffffffffff168173ffffffffffffffffffffffffffffffffffffffff1603610784576040517f08c379a000000000000000000000000000000000000000000000000000000000815260040161077b90612627565b60405180910390fd5b3373ffffffffffffffffffffffffffffffffffffffff168173ffffffffffffffffffffffffffffffffffffffff16146107f2576040517f08c379a00000000000000000000000000000000000000000000000000000000081526004016107e990612693565b60405180910390fd5b600b60009054906101000a900473ffffffffffffffffffffffffffffffffffffffff1673ffffffffffffffffffffffffffffffffffffffff166342842e0e3083876040518463ffffffff1660e01b8152600401610851939291906126b3565b600060405180830381600087803b15801561086b57600080fd5b505af115801561087f573d6000803e3d6000fd5b5050505060008260a00190600181111561089c5761089b611f2b565b5b908160018111156108b0576108af611f2b565b5b81525050600f600085815260200190815260200160002060008082016000905560018201600090556002820160006101000a81549073ffffffffffffffffffffffffffffffffffffffff02191690556003820160006101000a81549073ffffffffffffffffffffffffffffffffffffffff021916905560048201600090556005820160006101000a81549060ff021916905550508273ffffffffffffffffffffffffffffffffffffffff16847f72ffc2a266acba5f77e2b49400103cb61b428f37a97057ebe671e83fddd71e678460000151426040516109919291906126ea565b60405180910390a350505050565b6109a7611d6b565b73ffffffffffffffffffffffffffffffffffffffff166109c5611582565b73ffffffffffffffffffffffffffffffffffffffff1614610a1b576040517f08c379a0000000000000000000000000000000000000000000000000000000008152600401610a129061275f565b60405180910390fd5b80600b60006101000a81548173ffffffffffffffffffffffffffffffffffffffff021916908373ffffffffffffffffffffffffffffffffffffffff16021790555050565b610a67611d6b565b73ffffffffffffffffffffffffffffffffffffffff16610a85611582565b73ffffffffffffffffffffffffffffffffffffffff1614610adb576040517f08c379a0000000000000000000000000000000000000000000000000000000008152600401610ad29061275f565b60405180910390fd5b80600960006101000a81548173ffffffffffffffffffffffffffffffffffffffff021916908373ffffffffffffffffffffffffffffffffffffffff16021790555050565b610b27611e5d565b6000600f60008481526020019081526020016000206040518060c001604052908160008201548152602001600182015481526020016002820160009054906101000a900473ffffffffffffffffffffffffffffffffffffffff1673ffffffffffffffffffffffffffffffffffffffff1673ffffffffffffffffffffffffffffffffffffffff1681526020016003820160009054906101000a900473ffffffffffffffffffffffffffffffffffffffff1673ffffffffffffffffffffffffffffffffffffffff1673ffffffffffffffffffffffffffffffffffffffff168152602001600482015481526020016005820160009054906101000a900460ff166001811115610c3657610c35611f2b565b5b6001811115610c4857610c47611f2b565b5b81525050905080915050919050565b6380ac58cd60e01b81565b60008111610ca5576040517f08c379a0000000000000000000000000000000000000000000000000000000008152600401610c9c906127cb565b60405180910390fd5b6000600a60009054906101000a900473ffffffffffffffffffffffffffffffffffffffff1673ffffffffffffffffffffffffffffffffffffffff1663d30bdac9846040518263ffffffff1660e01b8152600401610d0291906127eb565b600060405180830381865afa158015610d1f573d6000803e3d6000fd5b505050506040513d6000823e3d601f19601f82011682018060405250810190610d489190612aa0565b9050600015158160800151151514610d95576040517f08c379a0000000000000000000000000000000000000000000000000000000008152600401610d8c90612b35565b60405180910390fd5b6000610da1600d611d73565b9050600b60009054906101000a900473ffffffffffffffffffffffffffffffffffffffff1673ffffffffffffffffffffffffffffffffffffffff166323b872dd3330876040518463ffffffff1660e01b8152600401610e02939291906126b3565b600060405180830381600087803b158015610e1c57600080fd5b505af1158015610e30573d6000803e3d6000fd5b505050506040518060c001604052808281526020018581526020013373ffffffffffffffffffffffffffffffffffffffff1681526020013073ffffffffffffffffffffffffffffffffffffffff168152602001848152602001600180811115610e9c57610e9b611f2b565b5b815250600f6000838152602001908152602001600020600082015181600001556020820151816001015560408201518160020160006101000a81548173ffffffffffffffffffffffffffffffffffffffff021916908373ffffffffffffffffffffffffffffffffffffffff16021790555060608201518160030160006101000a81548173ffffffffffffffffffffffffffffffffffffffff021916908373ffffffffffffffffffffffffffffffffffffffff1602179055506080820151816004015560a08201518160050160006101000a81548160ff02191690836001811115610f8957610f88611f2b565b5b021790555090505083817f38690a554ffbc44eb6a75016e47d517d0db8e6c37494adc68d6d0b2c66f0ab21333087604051610fc6939291906126b3565b60405180910390a350505050565b600960009054906101000a900473ffffffffffffffffffffffffffffffffffffffff1681565b60018060000154908060010154908060020160009054906101000a900473ffffffffffffffffffffffffffffffffffffffff16908060030160009054906101000a900473ffffffffffffffffffffffffffffffffffffffff16908060040154908060050160009054906101000a900460ff16905086565b611079611d6b565b73ffffffffffffffffffffffffffffffffffffffff16611097611582565b73ffffffffffffffffffffffffffffffffffffffff16146110ed576040517f08c379a00000000000000000000000000000000000000000000000000000000081526004016110e49061275f565b60405180910390fd5b80600a60006101000a81548173ffffffffffffffffffffffffffffffffffffffff021916908373ffffffffffffffffffffffffffffffffffffffff16021790555050565b6008602052816000526040600020602052806000526040600020600091509150508060000154908060010154908060020160009054906101000a900473ffffffffffffffffffffffffffffffffffffffff16908060030160009054906101000a900473ffffffffffffffffffffffffffffffffffffffff16908060040154908060050160009054906101000a900460ff16905086565b606060006111d5600d611d73565b905060008060005b83811015611271573373ffffffffffffffffffffffffffffffffffffffff16600f600083815260200190815260200160002060030160009054906101000a900473ffffffffffffffffffffffffffffffffffffffff1673ffffffffffffffffffffffffffffffffffffffff160361125e5760018361125b9190612b84565b92505b808061126990612bda565b9150506111dd565b5060008267ffffffffffffffff81111561128e5761128d61281c565b5b6040519080825280602002602001820160405280156112c757816020015b6112b4611e5d565b8152602001906001900390816112ac5790505b50905060005b848110156114dc573373ffffffffffffffffffffffffffffffffffffffff16600f60006001846112fd9190612b84565b815260200190815260200160002060030160009054906101000a900473ffffffffffffffffffffffffffffffffffffffff1673ffffffffffffffffffffffffffffffffffffffff16036114c9576000600f600060018461135d9190612b84565b81526020019081526020016000206000015490506000600f60008381526020019081526020016000209050806040518060c001604052908160008201548152602001600182015481526020016002820160009054906101000a900473ffffffffffffffffffffffffffffffffffffffff1673ffffffffffffffffffffffffffffffffffffffff1673ffffffffffffffffffffffffffffffffffffffff1681526020016003820160009054906101000a900473ffffffffffffffffffffffffffffffffffffffff1673ffffffffffffffffffffffffffffffffffffffff1673ffffffffffffffffffffffffffffffffffffffff168152602001600482015481526020016005820160009054906101000a900460ff16600181111561148357611482611f2b565b5b600181111561149557611494611f2b565b5b815250508486815181106114ac576114ab612c22565b5b60200260200101819052506001856114c49190612b84565b945050505b80806114d490612bda565b9150506112cd565b508094505050505090565b6114ef611d6b565b73ffffffffffffffffffffffffffffffffffffffff1661150d611582565b73ffffffffffffffffffffffffffffffffffffffff1614611563576040517f08c379a000000000000000000000000000000000000000000000000000000000815260040161155a9061275f565b60405180910390fd5b61156d6000611d81565b565b600b60149054906101000a900460ff1681565b6000600c60009054906101000a900473ffffffffffffffffffffffffffffffffffffffff16905090565b6000600f60008481526020019081526020016000206004015490506000600f60008581526020019081526020016000206001015490506000600f600086815260200190815260200160002060020160009054906101000a900473ffffffffffffffffffffffffffffffffffffffff1690506000600a60009054906101000a900473ffffffffffffffffffffffffffffffffffffffff1673ffffffffffffffffffffffffffffffffffffffff1663d30bdac9846040518263ffffffff1660e01b815260040161167a91906127eb565b600060405180830381865afa158015611697573d6000803e3d6000fd5b505050506040513d6000823e3d601f19601f820116820180604052508101906116c09190612aa0565b9050838514611704576040517f08c379a00000000000000000000000000000000000000000000000000000000081526004016116fb90612cc3565b60405180910390fd5b60001515816080015115151461174f576040517f08c379a000000000000000000000000000000000000000000000000000000000815260040161174690612b35565b60405180910390fd5b600960009054906101000a900473ffffffffffffffffffffffffffffffffffffffff1673ffffffffffffffffffffffffffffffffffffffff166323b872dd33600f60008a815260200190815260200160002060020160009054906101000a900473ffffffffffffffffffffffffffffffffffffffff16886040518463ffffffff1660e01b81526004016117e4939291906126b3565b6020604051808303816000875af1158015611803573d6000803e3d6000fd5b505050506040513d601f19601f820116820180604052508101906118279190612ce3565b50600b60009054906101000a900473ffffffffffffffffffffffffffffffffffffffff1673ffffffffffffffffffffffffffffffffffffffff166323b872dd3033866040518463ffffffff1660e01b8152600401611887939291906126b3565b600060405180830381600087803b1580156118a157600080fd5b505af11580156118b5573d6000803e3d6000fd5b5050505033600f600088815260200190815260200160002060030160006101000a81548173ffffffffffffffffffffffffffffffffffffffff021916908373ffffffffffffffffffffffffffffffffffffffff1602179055506000600f600088815260200190815260200160002060050160006101000a81548160ff0219169083600181111561194857611947611f2b565b5b0217905550600a60009054906101000a900473ffffffffffffffffffffffffffffffffffffffff1673ffffffffffffffffffffffffffffffffffffffff1663c1e9518a3033866040518463ffffffff1660e01b81526004016119ac939291906126b3565b600060405180830381600087803b1580156119c657600080fd5b505af11580156119da573d6000803e3d6000fd5b505050506119e8600e611e47565b3373ffffffffffffffffffffffffffffffffffffffff168273ffffffffffffffffffffffffffffffffffffffff16847f551327aee12d0a8b3ede8d0e3182a40a5ff3ed9f1811dd622915db30b609b7df898842604051611a4a93929190612d5c565b60405180910390a4505050505050565b600b60159054906101000a900460ff1681565b600a60009054906101000a900473ffffffffffffffffffffffffffffffffffffffff1681565b611a9b611e5d565b600f60008381526020019081526020016000206040518060c001604052908160008201548152602001600182015481526020016002820160009054906101000a900473ffffffffffffffffffffffffffffffffffffffff1673ffffffffffffffffffffffffffffffffffffffff1673ffffffffffffffffffffffffffffffffffffffff1681526020016003820160009054906101000a900473ffffffffffffffffffffffffffffffffffffffff1673ffffffffffffffffffffffffffffffffffffffff1673ffffffffffffffffffffffffffffffffffffffff168152602001600482015481526020016005820160009054906101000a900460ff166001811115611ba857611ba7611f2b565b5b6001811115611bba57611bb9611f2b565b5b815250509050919050565b611bcd611d6b565b73ffffffffffffffffffffffffffffffffffffffff16611beb611582565b73ffffffffffffffffffffffffffffffffffffffff1614611c41576040517f08c379a0000000000000000000000000000000000000000000000000000000008152600401611c389061275f565b60405180910390fd5b600073ffffffffffffffffffffffffffffffffffffffff168173ffffffffffffffffffffffffffffffffffffffff1603611cb0576040517f08c379a0000000000000000000000000000000000000000000000000000000008152600401611ca790612e18565b60405180910390fd5b611cb981611d81565b50565b600b60009054906101000a900473ffffffffffffffffffffffffffffffffffffffff1681565b60076020528060005260406000206000915090508060000154908060010154908060020160009054906101000a900473ffffffffffffffffffffffffffffffffffffffff16908060030160009054906101000a900473ffffffffffffffffffffffffffffffffffffffff16908060040154908060050160009054906101000a900460ff16905086565b600033905090565b600081600001549050919050565b6000600c60009054906101000a900473ffffffffffffffffffffffffffffffffffffffff16905081600c60006101000a81548173ffffffffffffffffffffffffffffffffffffffff021916908373ffffffffffffffffffffffffffffffffffffffff1602179055508173ffffffffffffffffffffffffffffffffffffffff168173ffffffffffffffffffffffffffffffffffffffff167f8be0079c531659141344cd1fd0a4f28419497f9722a3daafe3b4186f6b6457e060405160405180910390a35050565b6001816000016000828254019250508190555050565b6040518060c001604052806000815260200160008152602001600073ffffffffffffffffffffffffffffffffffffffff168152602001600073ffffffffffffffffffffffffffffffffffffffff1681526020016000815260200160006001811115611ecb57611eca611f2b565b5b81525090565b6000819050919050565b611ee481611ed1565b82525050565b600073ffffffffffffffffffffffffffffffffffffffff82169050919050565b6000611f1582611eea565b9050919050565b611f2581611f0a565b82525050565b7f4e487b7100000000000000000000000000000000000000000000000000000000600052602160045260246000fd5b60028110611f6b57611f6a611f2b565b5b50565b6000819050611f7c82611f5a565b919050565b6000611f8c82611f6e565b9050919050565b611f9c81611f81565b82525050565b60c082016000820151611fb86000850182611edb565b506020820151611fcb6020850182611edb565b506040820151611fde6040850182611f1c565b506060820151611ff16060850182611f1c565b5060808201516120046080850182611edb565b5060a082015161201760a0850182611f93565b50505050565b600060c0820190506120326000830184611fa2565b92915050565b6000604051905090565b600080fd5b600080fd5b61205581611ed1565b811461206057600080fd5b50565b6000813590506120728161204c565b92915050565b60006020828403121561208e5761208d612042565b5b600061209c84828501612063565b91505092915050565b6120ae81611f0a565b81146120b957600080fd5b50565b6000813590506120cb816120a5565b92915050565b6000602082840312156120e7576120e6612042565b5b60006120f5848285016120bc565b91505092915050565b60007fffffffff0000000000000000000000000000000000000000000000000000000082169050919050565b612133816120fe565b82525050565b600060208201905061214e600083018461212a565b92915050565b6000806040838503121561216b5761216a612042565b5b600061217985828601612063565b925050602061218a85828601612063565b9150509250929050565b6000819050919050565b60006121b96121b46121af84611eea565b612194565b611eea565b9050919050565b60006121cb8261219e565b9050919050565b60006121dd826121c0565b9050919050565b6121ed816121d2565b82525050565b600060208201905061220860008301846121e4565b92915050565b61221781611ed1565b82525050565b61222681611f0a565b82525050565b61223581611f81565b82525050565b600060c082019050612250600083018961220e565b61225d602083018861220e565b61226a604083018761221d565b612277606083018661221d565b612284608083018561220e565b61229160a083018461222c565b979650505050505050565b600080604083850312156122b3576122b2612042565b5b60006122c1858286016120bc565b92505060206122d285828601612063565b9150509250929050565b600081519050919050565b600082825260208201905092915050565b6000819050602082019050919050565b60c08201600082015161231e6000850182611edb565b5060208201516123316020850182611edb565b5060408201516123446040850182611f1c565b5060608201516123576060850182611f1c565b50608082015161236a6080850182611edb565b5060a082015161237d60a0850182611f93565b50505050565b600061238f8383612308565b60c08301905092915050565b6000602082019050919050565b60006123b3826122dc565b6123bd81856122e7565b93506123c8836122f8565b8060005b838110156123f95781516123e08882612383565b97506123eb8361239b565b9250506001810190506123cc565b5085935050505092915050565b6000602082019050818103600083015261242081846123a8565b905092915050565b600060ff82169050919050565b61243e81612428565b82525050565b60006020820190506124596000830184612435565b92915050565b6000602082019050612474600083018461221d565b92915050565b6000612485826121c0565b9050919050565b6124958161247a565b82525050565b60006020820190506124b0600083018461248c565b92915050565b60006124c1826121c0565b9050919050565b6124d1816124b6565b82525050565b60006020820190506124ec60008301846124c8565b92915050565b600082825260208201905092915050565b7f4173736574206e6f74207075626c697368656400000000000000000000000000600082015250565b60006125396013836124f2565b915061254482612503565b602082019050919050565b600060208201905081810360008301526125688161252c565b9050919050565b7f41737365742064656c6973746564000000000000000000000000000000000000600082015250565b60006125a5600e836124f2565b91506125b08261256f565b602082019050919050565b600060208201905081810360008301526125d481612598565b9050919050565b7f496e76616c696420616464726573730000000000000000000000000000000000600082015250565b6000612611600f836124f2565b915061261c826125db565b602082019050919050565b6000602082019050818103600083015261264081612604565b9050919050565b7f4f6e6c792073656c6c65722063616e2064656c69737400000000000000000000600082015250565b600061267d6016836124f2565b915061268882612647565b602082019050919050565b600060208201905081810360008301526126ac81612670565b9050919050565b60006060820190506126c8600083018661221d565b6126d5602083018561221d565b6126e2604083018461220e565b949350505050565b60006040820190506126ff600083018561220e565b61270c602083018461220e565b9392505050565b7f4f776e61626c653a2063616c6c6572206973206e6f7420746865206f776e6572600082015250565b60006127496020836124f2565b915061275482612713565b602082019050919050565b600060208201905081810360008301526127788161273c565b9050919050565b7f5072696365206d757374206265206174206c6561737420312077656900000000600082015250565b60006127b5601c836124f2565b91506127c08261277f565b602082019050919050565b600060208201905081810360008301526127e4816127a8565b9050919050565b6000602082019050612800600083018461220e565b92915050565b600080fd5b6000601f19601f8301169050919050565b7f4e487b7100000000000000000000000000000000000000000000000000000000600052604160045260246000fd5b6128548261280b565b810181811067ffffffffffffffff821117156128735761287261281c565b5b80604052505050565b6000612886612038565b9050612892828261284b565b919050565b600080fd5b6000815190506128ab8161204c565b92915050565b6000815190506128c0816120a5565b92915050565b600080fd5b600080fd5b600067ffffffffffffffff8211156128eb576128ea61281c565b5b6128f48261280b565b9050602081019050919050565b60005b8381101561291f578082015181840152602081019050612904565b8381111561292e576000848401525b50505050565b6000612947612942846128d0565b61287c565b905082815260208101848484011115612963576129626128cb565b5b61296e848285612901565b509392505050565b600082601f83011261298b5761298a6128c6565b5b815161299b848260208601612934565b91505092915050565b60008115159050919050565b6129b9816129a4565b81146129c457600080fd5b50565b6000815190506129d6816129b0565b92915050565b600060a082840312156129f2576129f1612806565b5b6129fc60a061287c565b90506000612a0c8482850161289c565b6000830152506020612a20848285016128b1565b602083015250604082015167ffffffffffffffff811115612a4457612a43612897565b5b612a5084828501612976565b604083015250606082015167ffffffffffffffff811115612a7457612a73612897565b5b612a8084828501612976565b6060830152506080612a94848285016129c7565b60808301525092915050565b600060208284031215612ab657612ab5612042565b5b600082015167ffffffffffffffff811115612ad457612ad3612047565b5b612ae0848285016129dc565b91505092915050565b7f4974656d206973206e6f7420617661696c61626c65206e6f7720210000000000600082015250565b6000612b1f601b836124f2565b9150612b2a82612ae9565b602082019050919050565b60006020820190508181036000830152612b4e81612b12565b9050919050565b7f4e487b7100000000000000000000000000000000000000000000000000000000600052601160045260246000fd5b6000612b8f82611ed1565b9150612b9a83611ed1565b9250827fffffffffffffffffffffffffffffffffffffffffffffffffffffffffffffffff03821115612bcf57612bce612b55565b5b828201905092915050565b6000612be582611ed1565b91507fffffffffffffffffffffffffffffffffffffffffffffffffffffffffffffffff8203612c1757612c16612b55565b5b600182019050919050565b7f4e487b7100000000000000000000000000000000000000000000000000000000600052603260045260246000fd5b7f506c65617365207375626d6974207468652061736b696e67207072696365206960008201527f6e206f7264657220746f20636f6d706c65746520746865207075726368617365602082015250565b6000612cad6040836124f2565b9150612cb882612c51565b604082019050919050565b60006020820190508181036000830152612cdc81612ca0565b9050919050565b600060208284031215612cf957612cf8612042565b5b6000612d07848285016129c7565b91505092915050565b7f5351460000000000000000000000000000000000000000000000000000000000600082015250565b6000612d466003836124f2565b9150612d5182612d10565b602082019050919050565b6000608082019050612d71600083018661220e565b612d7e602083018561220e565b8181036040830152612d8f81612d39565b9050612d9e606083018461220e565b949350505050565b7f4f776e61626c653a206e6577206f776e657220697320746865207a65726f206160008201527f6464726573730000000000000000000000000000000000000000000000000000602082015250565b6000612e026026836124f2565b9150612e0d82612da6565b604082019050919050565b60006020820190508181036000830152612e3181612df5565b905091905056fea2646970667358221220708640289755370d83d73c1486392959a428a171e5068a3d4475a88a2c1b91d164736f6c634300080d0033",
					"opcodes": "PUSH1 0x80 PUSH1 0x40 MSTORE CALLVALUE DUP1 ISZERO PUSH3 0x11 JUMPI PUSH1 0x0 DUP1 REVERT JUMPDEST POP PUSH1 0x40 MLOAD PUSH3 0x313D CODESIZE SUB DUP1 PUSH3 0x313D DUP4 CODECOPY DUP2 DUP2 ADD PUSH1 0x40 MSTORE DUP2 ADD SWAP1 PUSH3 0x37 SWAP2 SWAP1 PUSH3 0x263 JUMP JUMPDEST PUSH1 0x1 PUSH1 0x0 DUP2 SWAP1 SSTORE POP PUSH3 0x5F PUSH3 0x53 PUSH3 0x12B PUSH1 0x20 SHL PUSH1 0x20 SHR JUMP JUMPDEST PUSH3 0x133 PUSH1 0x20 SHL PUSH1 0x20 SHR JUMP JUMPDEST DUP3 PUSH1 0x9 PUSH1 0x0 PUSH2 0x100 EXP DUP2 SLOAD DUP2 PUSH20 0xFFFFFFFFFFFFFFFFFFFFFFFFFFFFFFFFFFFFFFFF MUL NOT AND SWAP1 DUP4 PUSH20 0xFFFFFFFFFFFFFFFFFFFFFFFFFFFFFFFFFFFFFFFF AND MUL OR SWAP1 SSTORE POP DUP2 PUSH1 0xB PUSH1 0x0 PUSH2 0x100 EXP DUP2 SLOAD DUP2 PUSH20 0xFFFFFFFFFFFFFFFFFFFFFFFFFFFFFFFFFFFFFFFF MUL NOT AND SWAP1 DUP4 PUSH20 0xFFFFFFFFFFFFFFFFFFFFFFFFFFFFFFFFFFFFFFFF AND MUL OR SWAP1 SSTORE POP DUP1 PUSH1 0xA PUSH1 0x0 PUSH2 0x100 EXP DUP2 SLOAD DUP2 PUSH20 0xFFFFFFFFFFFFFFFFFFFFFFFFFFFFFFFFFFFFFFFF MUL NOT AND SWAP1 DUP4 PUSH20 0xFFFFFFFFFFFFFFFFFFFFFFFFFFFFFFFFFFFFFFFF AND MUL OR SWAP1 SSTORE POP POP POP POP PUSH3 0x2BF JUMP JUMPDEST PUSH1 0x0 CALLER SWAP1 POP SWAP1 JUMP JUMPDEST PUSH1 0x0 PUSH1 0xC PUSH1 0x0 SWAP1 SLOAD SWAP1 PUSH2 0x100 EXP SWAP1 DIV PUSH20 0xFFFFFFFFFFFFFFFFFFFFFFFFFFFFFFFFFFFFFFFF AND SWAP1 POP DUP2 PUSH1 0xC PUSH1 0x0 PUSH2 0x100 EXP DUP2 SLOAD DUP2 PUSH20 0xFFFFFFFFFFFFFFFFFFFFFFFFFFFFFFFFFFFFFFFF MUL NOT AND SWAP1 DUP4 PUSH20 0xFFFFFFFFFFFFFFFFFFFFFFFFFFFFFFFFFFFFFFFF AND MUL OR SWAP1 SSTORE POP DUP2 PUSH20 0xFFFFFFFFFFFFFFFFFFFFFFFFFFFFFFFFFFFFFFFF AND DUP2 PUSH20 0xFFFFFFFFFFFFFFFFFFFFFFFFFFFFFFFFFFFFFFFF AND PUSH32 0x8BE0079C531659141344CD1FD0A4F28419497F9722A3DAAFE3B4186F6B6457E0 PUSH1 0x40 MLOAD PUSH1 0x40 MLOAD DUP1 SWAP2 SUB SWAP1 LOG3 POP POP JUMP JUMPDEST PUSH1 0x0 DUP1 REVERT JUMPDEST PUSH1 0x0 PUSH20 0xFFFFFFFFFFFFFFFFFFFFFFFFFFFFFFFFFFFFFFFF DUP3 AND SWAP1 POP SWAP2 SWAP1 POP JUMP JUMPDEST PUSH1 0x0 PUSH3 0x22B DUP3 PUSH3 0x1FE JUMP JUMPDEST SWAP1 POP SWAP2 SWAP1 POP JUMP JUMPDEST PUSH3 0x23D DUP2 PUSH3 0x21E JUMP JUMPDEST DUP2 EQ PUSH3 0x249 JUMPI PUSH1 0x0 DUP1 REVERT JUMPDEST POP JUMP JUMPDEST PUSH1 0x0 DUP2 MLOAD SWAP1 POP PUSH3 0x25D DUP2 PUSH3 0x232 JUMP JUMPDEST SWAP3 SWAP2 POP POP JUMP JUMPDEST PUSH1 0x0 DUP1 PUSH1 0x0 PUSH1 0x60 DUP5 DUP7 SUB SLT ISZERO PUSH3 0x27F JUMPI PUSH3 0x27E PUSH3 0x1F9 JUMP JUMPDEST JUMPDEST PUSH1 0x0 PUSH3 0x28F DUP7 DUP3 DUP8 ADD PUSH3 0x24C JUMP JUMPDEST SWAP4 POP POP PUSH1 0x20 PUSH3 0x2A2 DUP7 DUP3 DUP8 ADD PUSH3 0x24C JUMP JUMPDEST SWAP3 POP POP PUSH1 0x40 PUSH3 0x2B5 DUP7 DUP3 DUP8 ADD PUSH3 0x24C JUMP JUMPDEST SWAP2 POP POP SWAP3 POP SWAP3 POP SWAP3 JUMP JUMPDEST PUSH2 0x2E6E DUP1 PUSH3 0x2CF PUSH1 0x0 CODECOPY PUSH1 0x0 RETURN INVALID PUSH1 0x80 PUSH1 0x40 MSTORE CALLVALUE DUP1 ISZERO PUSH2 0x10 JUMPI PUSH1 0x0 DUP1 REVERT JUMPDEST POP PUSH1 0x4 CALLDATASIZE LT PUSH2 0x142 JUMPI PUSH1 0x0 CALLDATALOAD PUSH1 0xE0 SHR DUP1 PUSH4 0x673CF668 GT PUSH2 0xB8 JUMPI DUP1 PUSH4 0xB7A60C7E GT PUSH2 0x7C JUMPI DUP1 PUSH4 0xB7A60C7E EQ PUSH2 0x335 JUMPI DUP1 PUSH4 0xC45A0155 EQ PUSH2 0x353 JUMPI DUP1 PUSH4 0xC7BE7A49 EQ PUSH2 0x371 JUMPI DUP1 PUSH4 0xF2FDE38B EQ PUSH2 0x3A1 JUMPI DUP1 PUSH4 0xF55DE0C7 EQ PUSH2 0x3BD JUMPI DUP1 PUSH4 0xFF68FA6E EQ PUSH2 0x3DB JUMPI PUSH2 0x142 JUMP JUMPDEST DUP1 PUSH4 0x673CF668 EQ PUSH2 0x2B5 JUMPI DUP1 PUSH4 0x715018A6 EQ PUSH2 0x2D3 JUMPI DUP1 PUSH4 0x85A8B36C EQ PUSH2 0x2DD JUMPI DUP1 PUSH4 0x8DA5CB5B EQ PUSH2 0x2FB JUMPI DUP1 PUSH4 0xA1C11CA8 EQ PUSH2 0x319 JUMPI PUSH2 0x142 JUMP JUMPDEST DUP1 PUSH4 0x2B4C32BE GT PUSH2 0x10A JUMPI DUP1 PUSH4 0x2B4C32BE EQ PUSH2 0x1E9 JUMPI DUP1 PUSH4 0x361C1995 EQ PUSH2 0x207 JUMPI DUP1 PUSH4 0x3FC15F15 EQ PUSH2 0x223 JUMPI DUP1 PUSH4 0x517BD451 EQ PUSH2 0x241 JUMPI DUP1 PUSH4 0x5BB47808 EQ PUSH2 0x264 JUMPI DUP1 PUSH4 0x5C80A435 EQ PUSH2 0x280 JUMPI PUSH2 0x142 JUMP JUMPDEST DUP1 PUSH4 0xF08EFE0 EQ PUSH2 0x147 JUMPI DUP1 PUSH4 0x10061631 EQ PUSH2 0x165 JUMPI DUP1 PUSH4 0x15B12494 EQ PUSH2 0x181 JUMPI DUP1 PUSH4 0x27CE464E EQ PUSH2 0x19D JUMPI DUP1 PUSH4 0x2A45B250 EQ PUSH2 0x1B9 JUMPI JUMPDEST PUSH1 0x0 DUP1 REVERT JUMPDEST PUSH2 0x14F PUSH2 0x410 JUMP JUMPDEST PUSH1 0x40 MLOAD PUSH2 0x15C SWAP2 SWAP1 PUSH2 0x201D JUMP JUMPDEST PUSH1 0x40 MLOAD DUP1 SWAP2 SUB SWAP1 RETURN JUMPDEST PUSH2 0x17F PUSH1 0x4 DUP1 CALLDATASIZE SUB DUP2 ADD SWAP1 PUSH2 0x17A SWAP2 SWAP1 PUSH2 0x2078 JUMP JUMPDEST PUSH2 0x52F JUMP JUMPDEST STOP JUMPDEST PUSH2 0x19B PUSH1 0x4 DUP1 CALLDATASIZE SUB DUP2 ADD SWAP1 PUSH2 0x196 SWAP2 SWAP1 PUSH2 0x20D1 JUMP JUMPDEST PUSH2 0x99F JUMP JUMPDEST STOP JUMPDEST PUSH2 0x1B7 PUSH1 0x4 DUP1 CALLDATASIZE SUB DUP2 ADD SWAP1 PUSH2 0x1B2 SWAP2 SWAP1 PUSH2 0x20D1 JUMP JUMPDEST PUSH2 0xA5F JUMP JUMPDEST STOP JUMPDEST PUSH2 0x1D3 PUSH1 0x4 DUP1 CALLDATASIZE SUB DUP2 ADD SWAP1 PUSH2 0x1CE SWAP2 SWAP1 PUSH2 0x2078 JUMP JUMPDEST PUSH2 0xB1F JUMP JUMPDEST PUSH1 0x40 MLOAD PUSH2 0x1E0 SWAP2 SWAP1 PUSH2 0x201D JUMP JUMPDEST PUSH1 0x40 MLOAD DUP1 SWAP2 SUB SWAP1 RETURN JUMPDEST PUSH2 0x1F1 PUSH2 0xC57 JUMP JUMPDEST PUSH1 0x40 MLOAD PUSH2 0x1FE SWAP2 SWAP1 PUSH2 0x2139 JUMP JUMPDEST PUSH1 0x40 MLOAD DUP1 SWAP2 SUB SWAP1 RETURN JUMPDEST PUSH2 0x221 PUSH1 0x4 DUP1 CALLDATASIZE SUB DUP2 ADD SWAP1 PUSH2 0x21C SWAP2 SWAP1 PUSH2 0x2154 JUMP JUMPDEST PUSH2 0xC62 JUMP JUMPDEST STOP JUMPDEST PUSH2 0x22B PUSH2 0xFD4 JUMP JUMPDEST PUSH1 0x40 MLOAD PUSH2 0x238 SWAP2 SWAP1 PUSH2 0x21F3 JUMP JUMPDEST PUSH1 0x40 MLOAD DUP1 SWAP2 SUB SWAP1 RETURN JUMPDEST PUSH2 0x249 PUSH2 0xFFA JUMP JUMPDEST PUSH1 0x40 MLOAD PUSH2 0x25B SWAP7 SWAP6 SWAP5 SWAP4 SWAP3 SWAP2 SWAP1 PUSH2 0x223B JUMP JUMPDEST PUSH1 0x40 MLOAD DUP1 SWAP2 SUB SWAP1 RETURN JUMPDEST PUSH2 0x27E PUSH1 0x4 DUP1 CALLDATASIZE SUB DUP2 ADD SWAP1 PUSH2 0x279 SWAP2 SWAP1 PUSH2 0x20D1 JUMP JUMPDEST PUSH2 0x1071 JUMP JUMPDEST STOP JUMPDEST PUSH2 0x29A PUSH1 0x4 DUP1 CALLDATASIZE SUB DUP2 ADD SWAP1 PUSH2 0x295 SWAP2 SWAP1 PUSH2 0x229C JUMP JUMPDEST PUSH2 0x1131 JUMP JUMPDEST PUSH1 0x40 MLOAD PUSH2 0x2AC SWAP7 SWAP6 SWAP5 SWAP4 SWAP3 SWAP2 SWAP1 PUSH2 0x223B JUMP JUMPDEST PUSH1 0x40 MLOAD DUP1 SWAP2 SUB SWAP1 RETURN JUMPDEST PUSH2 0x2BD PUSH2 0x11C7 JUMP JUMPDEST PUSH1 0x40 MLOAD PUSH2 0x2CA SWAP2 SWAP1 PUSH2 0x2406 JUMP JUMPDEST PUSH1 0x40 MLOAD DUP1 SWAP2 SUB SWAP1 RETURN JUMPDEST PUSH2 0x2DB PUSH2 0x14E7 JUMP JUMPDEST STOP JUMPDEST PUSH2 0x2E5 PUSH2 0x156F JUMP JUMPDEST PUSH1 0x40 MLOAD PUSH2 0x2F2 SWAP2 SWAP1 PUSH2 0x2444 JUMP JUMPDEST PUSH1 0x40 MLOAD DUP1 SWAP2 SUB SWAP1 RETURN JUMPDEST PUSH2 0x303 PUSH2 0x1582 JUMP JUMPDEST PUSH1 0x40 MLOAD PUSH2 0x310 SWAP2 SWAP1 PUSH2 0x245F JUMP JUMPDEST PUSH1 0x40 MLOAD DUP1 SWAP2 SUB SWAP1 RETURN JUMPDEST PUSH2 0x333 PUSH1 0x4 DUP1 CALLDATASIZE SUB DUP2 ADD SWAP1 PUSH2 0x32E SWAP2 SWAP1 PUSH2 0x2154 JUMP JUMPDEST PUSH2 0x15AC JUMP JUMPDEST STOP JUMPDEST PUSH2 0x33D PUSH2 0x1A5A JUMP JUMPDEST PUSH1 0x40 MLOAD PUSH2 0x34A SWAP2 SWAP1 PUSH2 0x2444 JUMP JUMPDEST PUSH1 0x40 MLOAD DUP1 SWAP2 SUB SWAP1 RETURN JUMPDEST PUSH2 0x35B PUSH2 0x1A6D JUMP JUMPDEST PUSH1 0x40 MLOAD PUSH2 0x368 SWAP2 SWAP1 PUSH2 0x249B JUMP JUMPDEST PUSH1 0x40 MLOAD DUP1 SWAP2 SUB SWAP1 RETURN JUMPDEST PUSH2 0x38B PUSH1 0x4 DUP1 CALLDATASIZE SUB DUP2 ADD SWAP1 PUSH2 0x386 SWAP2 SWAP1 PUSH2 0x2078 JUMP JUMPDEST PUSH2 0x1A93 JUMP JUMPDEST PUSH1 0x40 MLOAD PUSH2 0x398 SWAP2 SWAP1 PUSH2 0x201D JUMP JUMPDEST PUSH1 0x40 MLOAD DUP1 SWAP2 SUB SWAP1 RETURN JUMPDEST PUSH2 0x3BB PUSH1 0x4 DUP1 CALLDATASIZE SUB DUP2 ADD SWAP1 PUSH2 0x3B6 SWAP2 SWAP1 PUSH2 0x20D1 JUMP JUMPDEST PUSH2 0x1BC5 JUMP JUMPDEST STOP JUMPDEST PUSH2 0x3C5 PUSH2 0x1CBC JUMP JUMPDEST PUSH1 0x40 MLOAD PUSH2 0x3D2 SWAP2 SWAP1 PUSH2 0x24D7 JUMP JUMPDEST PUSH1 0x40 MLOAD DUP1 SWAP2 SUB SWAP1 RETURN JUMPDEST PUSH2 0x3F5 PUSH1 0x4 DUP1 CALLDATASIZE SUB DUP2 ADD SWAP1 PUSH2 0x3F0 SWAP2 SWAP1 PUSH2 0x2078 JUMP JUMPDEST PUSH2 0x1CE2 JUMP JUMPDEST PUSH1 0x40 MLOAD PUSH2 0x407 SWAP7 SWAP6 SWAP5 SWAP4 SWAP3 SWAP2 SWAP1 PUSH2 0x223B JUMP JUMPDEST PUSH1 0x40 MLOAD DUP1 SWAP2 SUB SWAP1 RETURN JUMPDEST PUSH2 0x418 PUSH2 0x1E5D JUMP JUMPDEST PUSH1 0x1 PUSH1 0x40 MLOAD DUP1 PUSH1 0xC0 ADD PUSH1 0x40 MSTORE SWAP1 DUP2 PUSH1 0x0 DUP3 ADD SLOAD DUP2 MSTORE PUSH1 0x20 ADD PUSH1 0x1 DUP3 ADD SLOAD DUP2 MSTORE PUSH1 0x20 ADD PUSH1 0x2 DUP3 ADD PUSH1 0x0 SWAP1 SLOAD SWAP1 PUSH2 0x100 EXP SWAP1 DIV PUSH20 0xFFFFFFFFFFFFFFFFFFFFFFFFFFFFFFFFFFFFFFFF AND PUSH20 0xFFFFFFFFFFFFFFFFFFFFFFFFFFFFFFFFFFFFFFFF AND PUSH20 0xFFFFFFFFFFFFFFFFFFFFFFFFFFFFFFFFFFFFFFFF AND DUP2 MSTORE PUSH1 0x20 ADD PUSH1 0x3 DUP3 ADD PUSH1 0x0 SWAP1 SLOAD SWAP1 PUSH2 0x100 EXP SWAP1 DIV PUSH20 0xFFFFFFFFFFFFFFFFFFFFFFFFFFFFFFFFFFFFFFFF AND PUSH20 0xFFFFFFFFFFFFFFFFFFFFFFFFFFFFFFFFFFFFFFFF AND PUSH20 0xFFFFFFFFFFFFFFFFFFFFFFFFFFFFFFFFFFFFFFFF AND DUP2 MSTORE PUSH1 0x20 ADD PUSH1 0x4 DUP3 ADD SLOAD DUP2 MSTORE PUSH1 0x20 ADD PUSH1 0x5 DUP3 ADD PUSH1 0x0 SWAP1 SLOAD SWAP1 PUSH2 0x100 EXP SWAP1 DIV PUSH1 0xFF AND PUSH1 0x1 DUP2 GT ISZERO PUSH2 0x514 JUMPI PUSH2 0x513 PUSH2 0x1F2B JUMP JUMPDEST JUMPDEST PUSH1 0x1 DUP2 GT ISZERO PUSH2 0x526 JUMPI PUSH2 0x525 PUSH2 0x1F2B JUMP JUMPDEST JUMPDEST DUP2 MSTORE POP POP SWAP1 POP SWAP1 JUMP JUMPDEST PUSH1 0x0 CALLER SWAP1 POP PUSH1 0x0 PUSH1 0xF PUSH1 0x0 DUP5 DUP2 MSTORE PUSH1 0x20 ADD SWAP1 DUP2 MSTORE PUSH1 0x20 ADD PUSH1 0x0 KECCAK256 PUSH1 0x40 MLOAD DUP1 PUSH1 0xC0 ADD PUSH1 0x40 MSTORE SWAP1 DUP2 PUSH1 0x0 DUP3 ADD SLOAD DUP2 MSTORE PUSH1 0x20 ADD PUSH1 0x1 DUP3 ADD SLOAD DUP2 MSTORE PUSH1 0x20 ADD PUSH1 0x2 DUP3 ADD PUSH1 0x0 SWAP1 SLOAD SWAP1 PUSH2 0x100 EXP SWAP1 DIV PUSH20 0xFFFFFFFFFFFFFFFFFFFFFFFFFFFFFFFFFFFFFFFF AND PUSH20 0xFFFFFFFFFFFFFFFFFFFFFFFFFFFFFFFFFFFFFFFF AND PUSH20 0xFFFFFFFFFFFFFFFFFFFFFFFFFFFFFFFFFFFFFFFF AND DUP2 MSTORE PUSH1 0x20 ADD PUSH1 0x3 DUP3 ADD PUSH1 0x0 SWAP1 SLOAD SWAP1 PUSH2 0x100 EXP SWAP1 DIV PUSH20 0xFFFFFFFFFFFFFFFFFFFFFFFFFFFFFFFFFFFFFFFF AND PUSH20 0xFFFFFFFFFFFFFFFFFFFFFFFFFFFFFFFFFFFFFFFF AND PUSH20 0xFFFFFFFFFFFFFFFFFFFFFFFFFFFFFFFFFFFFFFFF AND DUP2 MSTORE PUSH1 0x20 ADD PUSH1 0x4 DUP3 ADD SLOAD DUP2 MSTORE PUSH1 0x20 ADD PUSH1 0x5 DUP3 ADD PUSH1 0x0 SWAP1 SLOAD SWAP1 PUSH2 0x100 EXP SWAP1 DIV PUSH1 0xFF AND PUSH1 0x1 DUP2 GT ISZERO PUSH2 0x643 JUMPI PUSH2 0x642 PUSH2 0x1F2B JUMP JUMPDEST JUMPDEST PUSH1 0x1 DUP2 GT ISZERO PUSH2 0x655 JUMPI PUSH2 0x654 PUSH2 0x1F2B JUMP JUMPDEST JUMPDEST DUP2 MSTORE POP POP SWAP1 POP PUSH1 0x0 DUP2 PUSH1 0x0 ADD MLOAD SUB PUSH2 0x6A2 JUMPI PUSH1 0x40 MLOAD PUSH32 0x8C379A000000000000000000000000000000000000000000000000000000000 DUP2 MSTORE PUSH1 0x4 ADD PUSH2 0x699 SWAP1 PUSH2 0x254F JUMP JUMPDEST PUSH1 0x40 MLOAD DUP1 SWAP2 SUB SWAP1 REVERT JUMPDEST PUSH1 0x1 DUP1 DUP2 GT ISZERO PUSH2 0x6B5 JUMPI PUSH2 0x6B4 PUSH2 0x1F2B JUMP JUMPDEST JUMPDEST DUP2 PUSH1 0xA0 ADD MLOAD PUSH1 0x1 DUP2 GT ISZERO PUSH2 0x6CC JUMPI PUSH2 0x6CB PUSH2 0x1F2B JUMP JUMPDEST JUMPDEST EQ PUSH2 0x70C JUMPI PUSH1 0x40 MLOAD PUSH32 0x8C379A000000000000000000000000000000000000000000000000000000000 DUP2 MSTORE PUSH1 0x4 ADD PUSH2 0x703 SWAP1 PUSH2 0x25BB JUMP JUMPDEST PUSH1 0x40 MLOAD DUP1 SWAP2 SUB SWAP1 REVERT JUMPDEST PUSH1 0x0 DUP2 PUSH1 0x40 ADD MLOAD SWAP1 POP PUSH1 0x0 PUSH20 0xFFFFFFFFFFFFFFFFFFFFFFFFFFFFFFFFFFFFFFFF AND DUP2 PUSH20 0xFFFFFFFFFFFFFFFFFFFFFFFFFFFFFFFFFFFFFFFF AND SUB PUSH2 0x784 JUMPI PUSH1 0x40 MLOAD PUSH32 0x8C379A000000000000000000000000000000000000000000000000000000000 DUP2 MSTORE PUSH1 0x4 ADD PUSH2 0x77B SWAP1 PUSH2 0x2627 JUMP JUMPDEST PUSH1 0x40 MLOAD DUP1 SWAP2 SUB SWAP1 REVERT JUMPDEST CALLER PUSH20 0xFFFFFFFFFFFFFFFFFFFFFFFFFFFFFFFFFFFFFFFF AND DUP2 PUSH20 0xFFFFFFFFFFFFFFFFFFFFFFFFFFFFFFFFFFFFFFFF AND EQ PUSH2 0x7F2 JUMPI PUSH1 0x40 MLOAD PUSH32 0x8C379A000000000000000000000000000000000000000000000000000000000 DUP2 MSTORE PUSH1 0x4 ADD PUSH2 0x7E9 SWAP1 PUSH2 0x2693 JUMP JUMPDEST PUSH1 0x40 MLOAD DUP1 SWAP2 SUB SWAP1 REVERT JUMPDEST PUSH1 0xB PUSH1 0x0 SWAP1 SLOAD SWAP1 PUSH2 0x100 EXP SWAP1 DIV PUSH20 0xFFFFFFFFFFFFFFFFFFFFFFFFFFFFFFFFFFFFFFFF AND PUSH20 0xFFFFFFFFFFFFFFFFFFFFFFFFFFFFFFFFFFFFFFFF AND PUSH4 0x42842E0E ADDRESS DUP4 DUP8 PUSH1 0x40 MLOAD DUP5 PUSH4 0xFFFFFFFF AND PUSH1 0xE0 SHL DUP2 MSTORE PUSH1 0x4 ADD PUSH2 0x851 SWAP4 SWAP3 SWAP2 SWAP1 PUSH2 0x26B3 JUMP JUMPDEST PUSH1 0x0 PUSH1 0x40 MLOAD DUP1 DUP4 SUB DUP2 PUSH1 0x0 DUP8 DUP1 EXTCODESIZE ISZERO DUP1 ISZERO PUSH2 0x86B JUMPI PUSH1 0x0 DUP1 REVERT JUMPDEST POP GAS CALL ISZERO DUP1 ISZERO PUSH2 0x87F JUMPI RETURNDATASIZE PUSH1 0x0 DUP1 RETURNDATACOPY RETURNDATASIZE PUSH1 0x0 REVERT JUMPDEST POP POP POP POP PUSH1 0x0 DUP3 PUSH1 0xA0 ADD SWAP1 PUSH1 0x1 DUP2 GT ISZERO PUSH2 0x89C JUMPI PUSH2 0x89B PUSH2 0x1F2B JUMP JUMPDEST JUMPDEST SWAP1 DUP2 PUSH1 0x1 DUP2 GT ISZERO PUSH2 0x8B0 JUMPI PUSH2 0x8AF PUSH2 0x1F2B JUMP JUMPDEST JUMPDEST DUP2 MSTORE POP POP PUSH1 0xF PUSH1 0x0 DUP6 DUP2 MSTORE PUSH1 0x20 ADD SWAP1 DUP2 MSTORE PUSH1 0x20 ADD PUSH1 0x0 KECCAK256 PUSH1 0x0 DUP1 DUP3 ADD PUSH1 0x0 SWAP1 SSTORE PUSH1 0x1 DUP3 ADD PUSH1 0x0 SWAP1 SSTORE PUSH1 0x2 DUP3 ADD PUSH1 0x0 PUSH2 0x100 EXP DUP2 SLOAD SWAP1 PUSH20 0xFFFFFFFFFFFFFFFFFFFFFFFFFFFFFFFFFFFFFFFF MUL NOT AND SWAP1 SSTORE PUSH1 0x3 DUP3 ADD PUSH1 0x0 PUSH2 0x100 EXP DUP2 SLOAD SWAP1 PUSH20 0xFFFFFFFFFFFFFFFFFFFFFFFFFFFFFFFFFFFFFFFF MUL NOT AND SWAP1 SSTORE PUSH1 0x4 DUP3 ADD PUSH1 0x0 SWAP1 SSTORE PUSH1 0x5 DUP3 ADD PUSH1 0x0 PUSH2 0x100 EXP DUP2 SLOAD SWAP1 PUSH1 0xFF MUL NOT AND SWAP1 SSTORE POP POP DUP3 PUSH20 0xFFFFFFFFFFFFFFFFFFFFFFFFFFFFFFFFFFFFFFFF AND DUP5 PUSH32 0x72FFC2A266ACBA5F77E2B49400103CB61B428F37A97057EBE671E83FDDD71E67 DUP5 PUSH1 0x0 ADD MLOAD TIMESTAMP PUSH1 0x40 MLOAD PUSH2 0x991 SWAP3 SWAP2 SWAP1 PUSH2 0x26EA JUMP JUMPDEST PUSH1 0x40 MLOAD DUP1 SWAP2 SUB SWAP1 LOG3 POP POP POP POP JUMP JUMPDEST PUSH2 0x9A7 PUSH2 0x1D6B JUMP JUMPDEST PUSH20 0xFFFFFFFFFFFFFFFFFFFFFFFFFFFFFFFFFFFFFFFF AND PUSH2 0x9C5 PUSH2 0x1582 JUMP JUMPDEST PUSH20 0xFFFFFFFFFFFFFFFFFFFFFFFFFFFFFFFFFFFFFFFF AND EQ PUSH2 0xA1B JUMPI PUSH1 0x40 MLOAD PUSH32 0x8C379A000000000000000000000000000000000000000000000000000000000 DUP2 MSTORE PUSH1 0x4 ADD PUSH2 0xA12 SWAP1 PUSH2 0x275F JUMP JUMPDEST PUSH1 0x40 MLOAD DUP1 SWAP2 SUB SWAP1 REVERT JUMPDEST DUP1 PUSH1 0xB PUSH1 0x0 PUSH2 0x100 EXP DUP2 SLOAD DUP2 PUSH20 0xFFFFFFFFFFFFFFFFFFFFFFFFFFFFFFFFFFFFFFFF MUL NOT AND SWAP1 DUP4 PUSH20 0xFFFFFFFFFFFFFFFFFFFFFFFFFFFFFFFFFFFFFFFF AND MUL OR SWAP1 SSTORE POP POP JUMP JUMPDEST PUSH2 0xA67 PUSH2 0x1D6B JUMP JUMPDEST PUSH20 0xFFFFFFFFFFFFFFFFFFFFFFFFFFFFFFFFFFFFFFFF AND PUSH2 0xA85 PUSH2 0x1582 JUMP JUMPDEST PUSH20 0xFFFFFFFFFFFFFFFFFFFFFFFFFFFFFFFFFFFFFFFF AND EQ PUSH2 0xADB JUMPI PUSH1 0x40 MLOAD PUSH32 0x8C379A000000000000000000000000000000000000000000000000000000000 DUP2 MSTORE PUSH1 0x4 ADD PUSH2 0xAD2 SWAP1 PUSH2 0x275F JUMP JUMPDEST PUSH1 0x40 MLOAD DUP1 SWAP2 SUB SWAP1 REVERT JUMPDEST DUP1 PUSH1 0x9 PUSH1 0x0 PUSH2 0x100 EXP DUP2 SLOAD DUP2 PUSH20 0xFFFFFFFFFFFFFFFFFFFFFFFFFFFFFFFFFFFFFFFF MUL NOT AND SWAP1 DUP4 PUSH20 0xFFFFFFFFFFFFFFFFFFFFFFFFFFFFFFFFFFFFFFFF AND MUL OR SWAP1 SSTORE POP POP JUMP JUMPDEST PUSH2 0xB27 PUSH2 0x1E5D JUMP JUMPDEST PUSH1 0x0 PUSH1 0xF PUSH1 0x0 DUP5 DUP2 MSTORE PUSH1 0x20 ADD SWAP1 DUP2 MSTORE PUSH1 0x20 ADD PUSH1 0x0 KECCAK256 PUSH1 0x40 MLOAD DUP1 PUSH1 0xC0 ADD PUSH1 0x40 MSTORE SWAP1 DUP2 PUSH1 0x0 DUP3 ADD SLOAD DUP2 MSTORE PUSH1 0x20 ADD PUSH1 0x1 DUP3 ADD SLOAD DUP2 MSTORE PUSH1 0x20 ADD PUSH1 0x2 DUP3 ADD PUSH1 0x0 SWAP1 SLOAD SWAP1 PUSH2 0x100 EXP SWAP1 DIV PUSH20 0xFFFFFFFFFFFFFFFFFFFFFFFFFFFFFFFFFFFFFFFF AND PUSH20 0xFFFFFFFFFFFFFFFFFFFFFFFFFFFFFFFFFFFFFFFF AND PUSH20 0xFFFFFFFFFFFFFFFFFFFFFFFFFFFFFFFFFFFFFFFF AND DUP2 MSTORE PUSH1 0x20 ADD PUSH1 0x3 DUP3 ADD PUSH1 0x0 SWAP1 SLOAD SWAP1 PUSH2 0x100 EXP SWAP1 DIV PUSH20 0xFFFFFFFFFFFFFFFFFFFFFFFFFFFFFFFFFFFFFFFF AND PUSH20 0xFFFFFFFFFFFFFFFFFFFFFFFFFFFFFFFFFFFFFFFF AND PUSH20 0xFFFFFFFFFFFFFFFFFFFFFFFFFFFFFFFFFFFFFFFF AND DUP2 MSTORE PUSH1 0x20 ADD PUSH1 0x4 DUP3 ADD SLOAD DUP2 MSTORE PUSH1 0x20 ADD PUSH1 0x5 DUP3 ADD PUSH1 0x0 SWAP1 SLOAD SWAP1 PUSH2 0x100 EXP SWAP1 DIV PUSH1 0xFF AND PUSH1 0x1 DUP2 GT ISZERO PUSH2 0xC36 JUMPI PUSH2 0xC35 PUSH2 0x1F2B JUMP JUMPDEST JUMPDEST PUSH1 0x1 DUP2 GT ISZERO PUSH2 0xC48 JUMPI PUSH2 0xC47 PUSH2 0x1F2B JUMP JUMPDEST JUMPDEST DUP2 MSTORE POP POP SWAP1 POP DUP1 SWAP2 POP POP SWAP2 SWAP1 POP JUMP JUMPDEST PUSH4 0x80AC58CD PUSH1 0xE0 SHL DUP2 JUMP JUMPDEST PUSH1 0x0 DUP2 GT PUSH2 0xCA5 JUMPI PUSH1 0x40 MLOAD PUSH32 0x8C379A000000000000000000000000000000000000000000000000000000000 DUP2 MSTORE PUSH1 0x4 ADD PUSH2 0xC9C SWAP1 PUSH2 0x27CB JUMP JUMPDEST PUSH1 0x40 MLOAD DUP1 SWAP2 SUB SWAP1 REVERT JUMPDEST PUSH1 0x0 PUSH1 0xA PUSH1 0x0 SWAP1 SLOAD SWAP1 PUSH2 0x100 EXP SWAP1 DIV PUSH20 0xFFFFFFFFFFFFFFFFFFFFFFFFFFFFFFFFFFFFFFFF AND PUSH20 0xFFFFFFFFFFFFFFFFFFFFFFFFFFFFFFFFFFFFFFFF AND PUSH4 0xD30BDAC9 DUP5 PUSH1 0x40 MLOAD DUP3 PUSH4 0xFFFFFFFF AND PUSH1 0xE0 SHL DUP2 MSTORE PUSH1 0x4 ADD PUSH2 0xD02 SWAP2 SWAP1 PUSH2 0x27EB JUMP JUMPDEST PUSH1 0x0 PUSH1 0x40 MLOAD DUP1 DUP4 SUB DUP2 DUP7 GAS STATICCALL ISZERO DUP1 ISZERO PUSH2 0xD1F JUMPI RETURNDATASIZE PUSH1 0x0 DUP1 RETURNDATACOPY RETURNDATASIZE PUSH1 0x0 REVERT JUMPDEST POP POP POP POP PUSH1 0x40 MLOAD RETURNDATASIZE PUSH1 0x0 DUP3 RETURNDATACOPY RETURNDATASIZE PUSH1 0x1F NOT PUSH1 0x1F DUP3 ADD AND DUP3 ADD DUP1 PUSH1 0x40 MSTORE POP DUP2 ADD SWAP1 PUSH2 0xD48 SWAP2 SWAP1 PUSH2 0x2AA0 JUMP JUMPDEST SWAP1 POP PUSH1 0x0 ISZERO ISZERO DUP2 PUSH1 0x80 ADD MLOAD ISZERO ISZERO EQ PUSH2 0xD95 JUMPI PUSH1 0x40 MLOAD PUSH32 0x8C379A000000000000000000000000000000000000000000000000000000000 DUP2 MSTORE PUSH1 0x4 ADD PUSH2 0xD8C SWAP1 PUSH2 0x2B35 JUMP JUMPDEST PUSH1 0x40 MLOAD DUP1 SWAP2 SUB SWAP1 REVERT JUMPDEST PUSH1 0x0 PUSH2 0xDA1 PUSH1 0xD PUSH2 0x1D73 JUMP JUMPDEST SWAP1 POP PUSH1 0xB PUSH1 0x0 SWAP1 SLOAD SWAP1 PUSH2 0x100 EXP SWAP1 DIV PUSH20 0xFFFFFFFFFFFFFFFFFFFFFFFFFFFFFFFFFFFFFFFF AND PUSH20 0xFFFFFFFFFFFFFFFFFFFFFFFFFFFFFFFFFFFFFFFF AND PUSH4 0x23B872DD CALLER ADDRESS DUP8 PUSH1 0x40 MLOAD DUP5 PUSH4 0xFFFFFFFF AND PUSH1 0xE0 SHL DUP2 MSTORE PUSH1 0x4 ADD PUSH2 0xE02 SWAP4 SWAP3 SWAP2 SWAP1 PUSH2 0x26B3 JUMP JUMPDEST PUSH1 0x0 PUSH1 0x40 MLOAD DUP1 DUP4 SUB DUP2 PUSH1 0x0 DUP8 DUP1 EXTCODESIZE ISZERO DUP1 ISZERO PUSH2 0xE1C JUMPI PUSH1 0x0 DUP1 REVERT JUMPDEST POP GAS CALL ISZERO DUP1 ISZERO PUSH2 0xE30 JUMPI RETURNDATASIZE PUSH1 0x0 DUP1 RETURNDATACOPY RETURNDATASIZE PUSH1 0x0 REVERT JUMPDEST POP POP POP POP PUSH1 0x40 MLOAD DUP1 PUSH1 0xC0 ADD PUSH1 0x40 MSTORE DUP1 DUP3 DUP2 MSTORE PUSH1 0x20 ADD DUP6 DUP2 MSTORE PUSH1 0x20 ADD CALLER PUSH20 0xFFFFFFFFFFFFFFFFFFFFFFFFFFFFFFFFFFFFFFFF AND DUP2 MSTORE PUSH1 0x20 ADD ADDRESS PUSH20 0xFFFFFFFFFFFFFFFFFFFFFFFFFFFFFFFFFFFFFFFF AND DUP2 MSTORE PUSH1 0x20 ADD DUP5 DUP2 MSTORE PUSH1 0x20 ADD PUSH1 0x1 DUP1 DUP2 GT ISZERO PUSH2 0xE9C JUMPI PUSH2 0xE9B PUSH2 0x1F2B JUMP JUMPDEST JUMPDEST DUP2 MSTORE POP PUSH1 0xF PUSH1 0x0 DUP4 DUP2 MSTORE PUSH1 0x20 ADD SWAP1 DUP2 MSTORE PUSH1 0x20 ADD PUSH1 0x0 KECCAK256 PUSH1 0x0 DUP3 ADD MLOAD DUP2 PUSH1 0x0 ADD SSTORE PUSH1 0x20 DUP3 ADD MLOAD DUP2 PUSH1 0x1 ADD SSTORE PUSH1 0x40 DUP3 ADD MLOAD DUP2 PUSH1 0x2 ADD PUSH1 0x0 PUSH2 0x100 EXP DUP2 SLOAD DUP2 PUSH20 0xFFFFFFFFFFFFFFFFFFFFFFFFFFFFFFFFFFFFFFFF MUL NOT AND SWAP1 DUP4 PUSH20 0xFFFFFFFFFFFFFFFFFFFFFFFFFFFFFFFFFFFFFFFF AND MUL OR SWAP1 SSTORE POP PUSH1 0x60 DUP3 ADD MLOAD DUP2 PUSH1 0x3 ADD PUSH1 0x0 PUSH2 0x100 EXP DUP2 SLOAD DUP2 PUSH20 0xFFFFFFFFFFFFFFFFFFFFFFFFFFFFFFFFFFFFFFFF MUL NOT AND SWAP1 DUP4 PUSH20 0xFFFFFFFFFFFFFFFFFFFFFFFFFFFFFFFFFFFFFFFF AND MUL OR SWAP1 SSTORE POP PUSH1 0x80 DUP3 ADD MLOAD DUP2 PUSH1 0x4 ADD SSTORE PUSH1 0xA0 DUP3 ADD MLOAD DUP2 PUSH1 0x5 ADD PUSH1 0x0 PUSH2 0x100 EXP DUP2 SLOAD DUP2 PUSH1 0xFF MUL NOT AND SWAP1 DUP4 PUSH1 0x1 DUP2 GT ISZERO PUSH2 0xF89 JUMPI PUSH2 0xF88 PUSH2 0x1F2B JUMP JUMPDEST JUMPDEST MUL OR SWAP1 SSTORE POP SWAP1 POP POP DUP4 DUP2 PUSH32 0x38690A554FFBC44EB6A75016E47D517D0DB8E6C37494ADC68D6D0B2C66F0AB21 CALLER ADDRESS DUP8 PUSH1 0x40 MLOAD PUSH2 0xFC6 SWAP4 SWAP3 SWAP2 SWAP1 PUSH2 0x26B3 JUMP JUMPDEST PUSH1 0x40 MLOAD DUP1 SWAP2 SUB SWAP1 LOG3 POP POP POP POP JUMP JUMPDEST PUSH1 0x9 PUSH1 0x0 SWAP1 SLOAD SWAP1 PUSH2 0x100 EXP SWAP1 DIV PUSH20 0xFFFFFFFFFFFFFFFFFFFFFFFFFFFFFFFFFFFFFFFF AND DUP2 JUMP JUMPDEST PUSH1 0x1 DUP1 PUSH1 0x0 ADD SLOAD SWAP1 DUP1 PUSH1 0x1 ADD SLOAD SWAP1 DUP1 PUSH1 0x2 ADD PUSH1 0x0 SWAP1 SLOAD SWAP1 PUSH2 0x100 EXP SWAP1 DIV PUSH20 0xFFFFFFFFFFFFFFFFFFFFFFFFFFFFFFFFFFFFFFFF AND SWAP1 DUP1 PUSH1 0x3 ADD PUSH1 0x0 SWAP1 SLOAD SWAP1 PUSH2 0x100 EXP SWAP1 DIV PUSH20 0xFFFFFFFFFFFFFFFFFFFFFFFFFFFFFFFFFFFFFFFF AND SWAP1 DUP1 PUSH1 0x4 ADD SLOAD SWAP1 DUP1 PUSH1 0x5 ADD PUSH1 0x0 SWAP1 SLOAD SWAP1 PUSH2 0x100 EXP SWAP1 DIV PUSH1 0xFF AND SWAP1 POP DUP7 JUMP JUMPDEST PUSH2 0x1079 PUSH2 0x1D6B JUMP JUMPDEST PUSH20 0xFFFFFFFFFFFFFFFFFFFFFFFFFFFFFFFFFFFFFFFF AND PUSH2 0x1097 PUSH2 0x1582 JUMP JUMPDEST PUSH20 0xFFFFFFFFFFFFFFFFFFFFFFFFFFFFFFFFFFFFFFFF AND EQ PUSH2 0x10ED JUMPI PUSH1 0x40 MLOAD PUSH32 0x8C379A000000000000000000000000000000000000000000000000000000000 DUP2 MSTORE PUSH1 0x4 ADD PUSH2 0x10E4 SWAP1 PUSH2 0x275F JUMP JUMPDEST PUSH1 0x40 MLOAD DUP1 SWAP2 SUB SWAP1 REVERT JUMPDEST DUP1 PUSH1 0xA PUSH1 0x0 PUSH2 0x100 EXP DUP2 SLOAD DUP2 PUSH20 0xFFFFFFFFFFFFFFFFFFFFFFFFFFFFFFFFFFFFFFFF MUL NOT AND SWAP1 DUP4 PUSH20 0xFFFFFFFFFFFFFFFFFFFFFFFFFFFFFFFFFFFFFFFF AND MUL OR SWAP1 SSTORE POP POP JUMP JUMPDEST PUSH1 0x8 PUSH1 0x20 MSTORE DUP2 PUSH1 0x0 MSTORE PUSH1 0x40 PUSH1 0x0 KECCAK256 PUSH1 0x20 MSTORE DUP1 PUSH1 0x0 MSTORE PUSH1 0x40 PUSH1 0x0 KECCAK256 PUSH1 0x0 SWAP2 POP SWAP2 POP POP DUP1 PUSH1 0x0 ADD SLOAD SWAP1 DUP1 PUSH1 0x1 ADD SLOAD SWAP1 DUP1 PUSH1 0x2 ADD PUSH1 0x0 SWAP1 SLOAD SWAP1 PUSH2 0x100 EXP SWAP1 DIV PUSH20 0xFFFFFFFFFFFFFFFFFFFFFFFFFFFFFFFFFFFFFFFF AND SWAP1 DUP1 PUSH1 0x3 ADD PUSH1 0x0 SWAP1 SLOAD SWAP1 PUSH2 0x100 EXP SWAP1 DIV PUSH20 0xFFFFFFFFFFFFFFFFFFFFFFFFFFFFFFFFFFFFFFFF AND SWAP1 DUP1 PUSH1 0x4 ADD SLOAD SWAP1 DUP1 PUSH1 0x5 ADD PUSH1 0x0 SWAP1 SLOAD SWAP1 PUSH2 0x100 EXP SWAP1 DIV PUSH1 0xFF AND SWAP1 POP DUP7 JUMP JUMPDEST PUSH1 0x60 PUSH1 0x0 PUSH2 0x11D5 PUSH1 0xD PUSH2 0x1D73 JUMP JUMPDEST SWAP1 POP PUSH1 0x0 DUP1 PUSH1 0x0 JUMPDEST DUP4 DUP2 LT ISZERO PUSH2 0x1271 JUMPI CALLER PUSH20 0xFFFFFFFFFFFFFFFFFFFFFFFFFFFFFFFFFFFFFFFF AND PUSH1 0xF PUSH1 0x0 DUP4 DUP2 MSTORE PUSH1 0x20 ADD SWAP1 DUP2 MSTORE PUSH1 0x20 ADD PUSH1 0x0 KECCAK256 PUSH1 0x3 ADD PUSH1 0x0 SWAP1 SLOAD SWAP1 PUSH2 0x100 EXP SWAP1 DIV PUSH20 0xFFFFFFFFFFFFFFFFFFFFFFFFFFFFFFFFFFFFFFFF AND PUSH20 0xFFFFFFFFFFFFFFFFFFFFFFFFFFFFFFFFFFFFFFFF AND SUB PUSH2 0x125E JUMPI PUSH1 0x1 DUP4 PUSH2 0x125B SWAP2 SWAP1 PUSH2 0x2B84 JUMP JUMPDEST SWAP3 POP JUMPDEST DUP1 DUP1 PUSH2 0x1269 SWAP1 PUSH2 0x2BDA JUMP JUMPDEST SWAP2 POP POP PUSH2 0x11DD JUMP JUMPDEST POP PUSH1 0x0 DUP3 PUSH8 0xFFFFFFFFFFFFFFFF DUP2 GT ISZERO PUSH2 0x128E JUMPI PUSH2 0x128D PUSH2 0x281C JUMP JUMPDEST JUMPDEST PUSH1 0x40 MLOAD SWAP1 DUP1 DUP3 MSTORE DUP1 PUSH1 0x20 MUL PUSH1 0x20 ADD DUP3 ADD PUSH1 0x40 MSTORE DUP1 ISZERO PUSH2 0x12C7 JUMPI DUP2 PUSH1 0x20 ADD JUMPDEST PUSH2 0x12B4 PUSH2 0x1E5D JUMP JUMPDEST DUP2 MSTORE PUSH1 0x20 ADD SWAP1 PUSH1 0x1 SWAP1 SUB SWAP1 DUP2 PUSH2 0x12AC JUMPI SWAP1 POP JUMPDEST POP SWAP1 POP PUSH1 0x0 JUMPDEST DUP5 DUP2 LT ISZERO PUSH2 0x14DC JUMPI CALLER PUSH20 0xFFFFFFFFFFFFFFFFFFFFFFFFFFFFFFFFFFFFFFFF AND PUSH1 0xF PUSH1 0x0 PUSH1 0x1 DUP5 PUSH2 0x12FD SWAP2 SWAP1 PUSH2 0x2B84 JUMP JUMPDEST DUP2 MSTORE PUSH1 0x20 ADD SWAP1 DUP2 MSTORE PUSH1 0x20 ADD PUSH1 0x0 KECCAK256 PUSH1 0x3 ADD PUSH1 0x0 SWAP1 SLOAD SWAP1 PUSH2 0x100 EXP SWAP1 DIV PUSH20 0xFFFFFFFFFFFFFFFFFFFFFFFFFFFFFFFFFFFFFFFF AND PUSH20 0xFFFFFFFFFFFFFFFFFFFFFFFFFFFFFFFFFFFFFFFF AND SUB PUSH2 0x14C9 JUMPI PUSH1 0x0 PUSH1 0xF PUSH1 0x0 PUSH1 0x1 DUP5 PUSH2 0x135D SWAP2 SWAP1 PUSH2 0x2B84 JUMP JUMPDEST DUP2 MSTORE PUSH1 0x20 ADD SWAP1 DUP2 MSTORE PUSH1 0x20 ADD PUSH1 0x0 KECCAK256 PUSH1 0x0 ADD SLOAD SWAP1 POP PUSH1 0x0 PUSH1 0xF PUSH1 0x0 DUP4 DUP2 MSTORE PUSH1 0x20 ADD SWAP1 DUP2 MSTORE PUSH1 0x20 ADD PUSH1 0x0 KECCAK256 SWAP1 POP DUP1 PUSH1 0x40 MLOAD DUP1 PUSH1 0xC0 ADD PUSH1 0x40 MSTORE SWAP1 DUP2 PUSH1 0x0 DUP3 ADD SLOAD DUP2 MSTORE PUSH1 0x20 ADD PUSH1 0x1 DUP3 ADD SLOAD DUP2 MSTORE PUSH1 0x20 ADD PUSH1 0x2 DUP3 ADD PUSH1 0x0 SWAP1 SLOAD SWAP1 PUSH2 0x100 EXP SWAP1 DIV PUSH20 0xFFFFFFFFFFFFFFFFFFFFFFFFFFFFFFFFFFFFFFFF AND PUSH20 0xFFFFFFFFFFFFFFFFFFFFFFFFFFFFFFFFFFFFFFFF AND PUSH20 0xFFFFFFFFFFFFFFFFFFFFFFFFFFFFFFFFFFFFFFFF AND DUP2 MSTORE PUSH1 0x20 ADD PUSH1 0x3 DUP3 ADD PUSH1 0x0 SWAP1 SLOAD SWAP1 PUSH2 0x100 EXP SWAP1 DIV PUSH20 0xFFFFFFFFFFFFFFFFFFFFFFFFFFFFFFFFFFFFFFFF AND PUSH20 0xFFFFFFFFFFFFFFFFFFFFFFFFFFFFFFFFFFFFFFFF AND PUSH20 0xFFFFFFFFFFFFFFFFFFFFFFFFFFFFFFFFFFFFFFFF AND DUP2 MSTORE PUSH1 0x20 ADD PUSH1 0x4 DUP3 ADD SLOAD DUP2 MSTORE PUSH1 0x20 ADD PUSH1 0x5 DUP3 ADD PUSH1 0x0 SWAP1 SLOAD SWAP1 PUSH2 0x100 EXP SWAP1 DIV PUSH1 0xFF AND PUSH1 0x1 DUP2 GT ISZERO PUSH2 0x1483 JUMPI PUSH2 0x1482 PUSH2 0x1F2B JUMP JUMPDEST JUMPDEST PUSH1 0x1 DUP2 GT ISZERO PUSH2 0x1495 JUMPI PUSH2 0x1494 PUSH2 0x1F2B JUMP JUMPDEST JUMPDEST DUP2 MSTORE POP POP DUP5 DUP7 DUP2 MLOAD DUP2 LT PUSH2 0x14AC JUMPI PUSH2 0x14AB PUSH2 0x2C22 JUMP JUMPDEST JUMPDEST PUSH1 0x20 MUL PUSH1 0x20 ADD ADD DUP2 SWAP1 MSTORE POP PUSH1 0x1 DUP6 PUSH2 0x14C4 SWAP2 SWAP1 PUSH2 0x2B84 JUMP JUMPDEST SWAP5 POP POP POP JUMPDEST DUP1 DUP1 PUSH2 0x14D4 SWAP1 PUSH2 0x2BDA JUMP JUMPDEST SWAP2 POP POP PUSH2 0x12CD JUMP JUMPDEST POP DUP1 SWAP5 POP POP POP POP POP SWAP1 JUMP JUMPDEST PUSH2 0x14EF PUSH2 0x1D6B JUMP JUMPDEST PUSH20 0xFFFFFFFFFFFFFFFFFFFFFFFFFFFFFFFFFFFFFFFF AND PUSH2 0x150D PUSH2 0x1582 JUMP JUMPDEST PUSH20 0xFFFFFFFFFFFFFFFFFFFFFFFFFFFFFFFFFFFFFFFF AND EQ PUSH2 0x1563 JUMPI PUSH1 0x40 MLOAD PUSH32 0x8C379A000000000000000000000000000000000000000000000000000000000 DUP2 MSTORE PUSH1 0x4 ADD PUSH2 0x155A SWAP1 PUSH2 0x275F JUMP JUMPDEST PUSH1 0x40 MLOAD DUP1 SWAP2 SUB SWAP1 REVERT JUMPDEST PUSH2 0x156D PUSH1 0x0 PUSH2 0x1D81 JUMP JUMPDEST JUMP JUMPDEST PUSH1 0xB PUSH1 0x14 SWAP1 SLOAD SWAP1 PUSH2 0x100 EXP SWAP1 DIV PUSH1 0xFF AND DUP2 JUMP JUMPDEST PUSH1 0x0 PUSH1 0xC PUSH1 0x0 SWAP1 SLOAD SWAP1 PUSH2 0x100 EXP SWAP1 DIV PUSH20 0xFFFFFFFFFFFFFFFFFFFFFFFFFFFFFFFFFFFFFFFF AND SWAP1 POP SWAP1 JUMP JUMPDEST PUSH1 0x0 PUSH1 0xF PUSH1 0x0 DUP5 DUP2 MSTORE PUSH1 0x20 ADD SWAP1 DUP2 MSTORE PUSH1 0x20 ADD PUSH1 0x0 KECCAK256 PUSH1 0x4 ADD SLOAD SWAP1 POP PUSH1 0x0 PUSH1 0xF PUSH1 0x0 DUP6 DUP2 MSTORE PUSH1 0x20 ADD SWAP1 DUP2 MSTORE PUSH1 0x20 ADD PUSH1 0x0 KECCAK256 PUSH1 0x1 ADD SLOAD SWAP1 POP PUSH1 0x0 PUSH1 0xF PUSH1 0x0 DUP7 DUP2 MSTORE PUSH1 0x20 ADD SWAP1 DUP2 MSTORE PUSH1 0x20 ADD PUSH1 0x0 KECCAK256 PUSH1 0x2 ADD PUSH1 0x0 SWAP1 SLOAD SWAP1 PUSH2 0x100 EXP SWAP1 DIV PUSH20 0xFFFFFFFFFFFFFFFFFFFFFFFFFFFFFFFFFFFFFFFF AND SWAP1 POP PUSH1 0x0 PUSH1 0xA PUSH1 0x0 SWAP1 SLOAD SWAP1 PUSH2 0x100 EXP SWAP1 DIV PUSH20 0xFFFFFFFFFFFFFFFFFFFFFFFFFFFFFFFFFFFFFFFF AND PUSH20 0xFFFFFFFFFFFFFFFFFFFFFFFFFFFFFFFFFFFFFFFF AND PUSH4 0xD30BDAC9 DUP5 PUSH1 0x40 MLOAD DUP3 PUSH4 0xFFFFFFFF AND PUSH1 0xE0 SHL DUP2 MSTORE PUSH1 0x4 ADD PUSH2 0x167A SWAP2 SWAP1 PUSH2 0x27EB JUMP JUMPDEST PUSH1 0x0 PUSH1 0x40 MLOAD DUP1 DUP4 SUB DUP2 DUP7 GAS STATICCALL ISZERO DUP1 ISZERO PUSH2 0x1697 JUMPI RETURNDATASIZE PUSH1 0x0 DUP1 RETURNDATACOPY RETURNDATASIZE PUSH1 0x0 REVERT JUMPDEST POP POP POP POP PUSH1 0x40 MLOAD RETURNDATASIZE PUSH1 0x0 DUP3 RETURNDATACOPY RETURNDATASIZE PUSH1 0x1F NOT PUSH1 0x1F DUP3 ADD AND DUP3 ADD DUP1 PUSH1 0x40 MSTORE POP DUP2 ADD SWAP1 PUSH2 0x16C0 SWAP2 SWAP1 PUSH2 0x2AA0 JUMP JUMPDEST SWAP1 POP DUP4 DUP6 EQ PUSH2 0x1704 JUMPI PUSH1 0x40 MLOAD PUSH32 0x8C379A000000000000000000000000000000000000000000000000000000000 DUP2 MSTORE PUSH1 0x4 ADD PUSH2 0x16FB SWAP1 PUSH2 0x2CC3 JUMP JUMPDEST PUSH1 0x40 MLOAD DUP1 SWAP2 SUB SWAP1 REVERT JUMPDEST PUSH1 0x0 ISZERO ISZERO DUP2 PUSH1 0x80 ADD MLOAD ISZERO ISZERO EQ PUSH2 0x174F JUMPI PUSH1 0x40 MLOAD PUSH32 0x8C379A000000000000000000000000000000000000000000000000000000000 DUP2 MSTORE PUSH1 0x4 ADD PUSH2 0x1746 SWAP1 PUSH2 0x2B35 JUMP JUMPDEST PUSH1 0x40 MLOAD DUP1 SWAP2 SUB SWAP1 REVERT JUMPDEST PUSH1 0x9 PUSH1 0x0 SWAP1 SLOAD SWAP1 PUSH2 0x100 EXP SWAP1 DIV PUSH20 0xFFFFFFFFFFFFFFFFFFFFFFFFFFFFFFFFFFFFFFFF AND PUSH20 0xFFFFFFFFFFFFFFFFFFFFFFFFFFFFFFFFFFFFFFFF AND PUSH4 0x23B872DD CALLER PUSH1 0xF PUSH1 0x0 DUP11 DUP2 MSTORE PUSH1 0x20 ADD SWAP1 DUP2 MSTORE PUSH1 0x20 ADD PUSH1 0x0 KECCAK256 PUSH1 0x2 ADD PUSH1 0x0 SWAP1 SLOAD SWAP1 PUSH2 0x100 EXP SWAP1 DIV PUSH20 0xFFFFFFFFFFFFFFFFFFFFFFFFFFFFFFFFFFFFFFFF AND DUP9 PUSH1 0x40 MLOAD DUP5 PUSH4 0xFFFFFFFF AND PUSH1 0xE0 SHL DUP2 MSTORE PUSH1 0x4 ADD PUSH2 0x17E4 SWAP4 SWAP3 SWAP2 SWAP1 PUSH2 0x26B3 JUMP JUMPDEST PUSH1 0x20 PUSH1 0x40 MLOAD DUP1 DUP4 SUB DUP2 PUSH1 0x0 DUP8 GAS CALL ISZERO DUP1 ISZERO PUSH2 0x1803 JUMPI RETURNDATASIZE PUSH1 0x0 DUP1 RETURNDATACOPY RETURNDATASIZE PUSH1 0x0 REVERT JUMPDEST POP POP POP POP PUSH1 0x40 MLOAD RETURNDATASIZE PUSH1 0x1F NOT PUSH1 0x1F DUP3 ADD AND DUP3 ADD DUP1 PUSH1 0x40 MSTORE POP DUP2 ADD SWAP1 PUSH2 0x1827 SWAP2 SWAP1 PUSH2 0x2CE3 JUMP JUMPDEST POP PUSH1 0xB PUSH1 0x0 SWAP1 SLOAD SWAP1 PUSH2 0x100 EXP SWAP1 DIV PUSH20 0xFFFFFFFFFFFFFFFFFFFFFFFFFFFFFFFFFFFFFFFF AND PUSH20 0xFFFFFFFFFFFFFFFFFFFFFFFFFFFFFFFFFFFFFFFF AND PUSH4 0x23B872DD ADDRESS CALLER DUP7 PUSH1 0x40 MLOAD DUP5 PUSH4 0xFFFFFFFF AND PUSH1 0xE0 SHL DUP2 MSTORE PUSH1 0x4 ADD PUSH2 0x1887 SWAP4 SWAP3 SWAP2 SWAP1 PUSH2 0x26B3 JUMP JUMPDEST PUSH1 0x0 PUSH1 0x40 MLOAD DUP1 DUP4 SUB DUP2 PUSH1 0x0 DUP8 DUP1 EXTCODESIZE ISZERO DUP1 ISZERO PUSH2 0x18A1 JUMPI PUSH1 0x0 DUP1 REVERT JUMPDEST POP GAS CALL ISZERO DUP1 ISZERO PUSH2 0x18B5 JUMPI RETURNDATASIZE PUSH1 0x0 DUP1 RETURNDATACOPY RETURNDATASIZE PUSH1 0x0 REVERT JUMPDEST POP POP POP POP CALLER PUSH1 0xF PUSH1 0x0 DUP9 DUP2 MSTORE PUSH1 0x20 ADD SWAP1 DUP2 MSTORE PUSH1 0x20 ADD PUSH1 0x0 KECCAK256 PUSH1 0x3 ADD PUSH1 0x0 PUSH2 0x100 EXP DUP2 SLOAD DUP2 PUSH20 0xFFFFFFFFFFFFFFFFFFFFFFFFFFFFFFFFFFFFFFFF MUL NOT AND SWAP1 DUP4 PUSH20 0xFFFFFFFFFFFFFFFFFFFFFFFFFFFFFFFFFFFFFFFF AND MUL OR SWAP1 SSTORE POP PUSH1 0x0 PUSH1 0xF PUSH1 0x0 DUP9 DUP2 MSTORE PUSH1 0x20 ADD SWAP1 DUP2 MSTORE PUSH1 0x20 ADD PUSH1 0x0 KECCAK256 PUSH1 0x5 ADD PUSH1 0x0 PUSH2 0x100 EXP DUP2 SLOAD DUP2 PUSH1 0xFF MUL NOT AND SWAP1 DUP4 PUSH1 0x1 DUP2 GT ISZERO PUSH2 0x1948 JUMPI PUSH2 0x1947 PUSH2 0x1F2B JUMP JUMPDEST JUMPDEST MUL OR SWAP1 SSTORE POP PUSH1 0xA PUSH1 0x0 SWAP1 SLOAD SWAP1 PUSH2 0x100 EXP SWAP1 DIV PUSH20 0xFFFFFFFFFFFFFFFFFFFFFFFFFFFFFFFFFFFFFFFF AND PUSH20 0xFFFFFFFFFFFFFFFFFFFFFFFFFFFFFFFFFFFFFFFF AND PUSH4 0xC1E9518A ADDRESS CALLER DUP7 PUSH1 0x40 MLOAD DUP5 PUSH4 0xFFFFFFFF AND PUSH1 0xE0 SHL DUP2 MSTORE PUSH1 0x4 ADD PUSH2 0x19AC SWAP4 SWAP3 SWAP2 SWAP1 PUSH2 0x26B3 JUMP JUMPDEST PUSH1 0x0 PUSH1 0x40 MLOAD DUP1 DUP4 SUB DUP2 PUSH1 0x0 DUP8 DUP1 EXTCODESIZE ISZERO DUP1 ISZERO PUSH2 0x19C6 JUMPI PUSH1 0x0 DUP1 REVERT JUMPDEST POP GAS CALL ISZERO DUP1 ISZERO PUSH2 0x19DA JUMPI RETURNDATASIZE PUSH1 0x0 DUP1 RETURNDATACOPY RETURNDATASIZE PUSH1 0x0 REVERT JUMPDEST POP POP POP POP PUSH2 0x19E8 PUSH1 0xE PUSH2 0x1E47 JUMP JUMPDEST CALLER PUSH20 0xFFFFFFFFFFFFFFFFFFFFFFFFFFFFFFFFFFFFFFFF AND DUP3 PUSH20 0xFFFFFFFFFFFFFFFFFFFFFFFFFFFFFFFFFFFFFFFF AND DUP5 PUSH32 0x551327AEE12D0A8B3EDE8D0E3182A40A5FF3ED9F1811DD622915DB30B609B7DF DUP10 DUP9 TIMESTAMP PUSH1 0x40 MLOAD PUSH2 0x1A4A SWAP4 SWAP3 SWAP2 SWAP1 PUSH2 0x2D5C JUMP JUMPDEST PUSH1 0x40 MLOAD DUP1 SWAP2 SUB SWAP1 LOG4 POP POP POP POP POP POP JUMP JUMPDEST PUSH1 0xB PUSH1 0x15 SWAP1 SLOAD SWAP1 PUSH2 0x100 EXP SWAP1 DIV PUSH1 0xFF AND DUP2 JUMP JUMPDEST PUSH1 0xA PUSH1 0x0 SWAP1 SLOAD SWAP1 PUSH2 0x100 EXP SWAP1 DIV PUSH20 0xFFFFFFFFFFFFFFFFFFFFFFFFFFFFFFFFFFFFFFFF AND DUP2 JUMP JUMPDEST PUSH2 0x1A9B PUSH2 0x1E5D JUMP JUMPDEST PUSH1 0xF PUSH1 0x0 DUP4 DUP2 MSTORE PUSH1 0x20 ADD SWAP1 DUP2 MSTORE PUSH1 0x20 ADD PUSH1 0x0 KECCAK256 PUSH1 0x40 MLOAD DUP1 PUSH1 0xC0 ADD PUSH1 0x40 MSTORE SWAP1 DUP2 PUSH1 0x0 DUP3 ADD SLOAD DUP2 MSTORE PUSH1 0x20 ADD PUSH1 0x1 DUP3 ADD SLOAD DUP2 MSTORE PUSH1 0x20 ADD PUSH1 0x2 DUP3 ADD PUSH1 0x0 SWAP1 SLOAD SWAP1 PUSH2 0x100 EXP SWAP1 DIV PUSH20 0xFFFFFFFFFFFFFFFFFFFFFFFFFFFFFFFFFFFFFFFF AND PUSH20 0xFFFFFFFFFFFFFFFFFFFFFFFFFFFFFFFFFFFFFFFF AND PUSH20 0xFFFFFFFFFFFFFFFFFFFFFFFFFFFFFFFFFFFFFFFF AND DUP2 MSTORE PUSH1 0x20 ADD PUSH1 0x3 DUP3 ADD PUSH1 0x0 SWAP1 SLOAD SWAP1 PUSH2 0x100 EXP SWAP1 DIV PUSH20 0xFFFFFFFFFFFFFFFFFFFFFFFFFFFFFFFFFFFFFFFF AND PUSH20 0xFFFFFFFFFFFFFFFFFFFFFFFFFFFFFFFFFFFFFFFF AND PUSH20 0xFFFFFFFFFFFFFFFFFFFFFFFFFFFFFFFFFFFFFFFF AND DUP2 MSTORE PUSH1 0x20 ADD PUSH1 0x4 DUP3 ADD SLOAD DUP2 MSTORE PUSH1 0x20 ADD PUSH1 0x5 DUP3 ADD PUSH1 0x0 SWAP1 SLOAD SWAP1 PUSH2 0x100 EXP SWAP1 DIV PUSH1 0xFF AND PUSH1 0x1 DUP2 GT ISZERO PUSH2 0x1BA8 JUMPI PUSH2 0x1BA7 PUSH2 0x1F2B JUMP JUMPDEST JUMPDEST PUSH1 0x1 DUP2 GT ISZERO PUSH2 0x1BBA JUMPI PUSH2 0x1BB9 PUSH2 0x1F2B JUMP JUMPDEST JUMPDEST DUP2 MSTORE POP POP SWAP1 POP SWAP2 SWAP1 POP JUMP JUMPDEST PUSH2 0x1BCD PUSH2 0x1D6B JUMP JUMPDEST PUSH20 0xFFFFFFFFFFFFFFFFFFFFFFFFFFFFFFFFFFFFFFFF AND PUSH2 0x1BEB PUSH2 0x1582 JUMP JUMPDEST PUSH20 0xFFFFFFFFFFFFFFFFFFFFFFFFFFFFFFFFFFFFFFFF AND EQ PUSH2 0x1C41 JUMPI PUSH1 0x40 MLOAD PUSH32 0x8C379A000000000000000000000000000000000000000000000000000000000 DUP2 MSTORE PUSH1 0x4 ADD PUSH2 0x1C38 SWAP1 PUSH2 0x275F JUMP JUMPDEST PUSH1 0x40 MLOAD DUP1 SWAP2 SUB SWAP1 REVERT JUMPDEST PUSH1 0x0 PUSH20 0xFFFFFFFFFFFFFFFFFFFFFFFFFFFFFFFFFFFFFFFF AND DUP2 PUSH20 0xFFFFFFFFFFFFFFFFFFFFFFFFFFFFFFFFFFFFFFFF AND SUB PUSH2 0x1CB0 JUMPI PUSH1 0x40 MLOAD PUSH32 0x8C379A000000000000000000000000000000000000000000000000000000000 DUP2 MSTORE PUSH1 0x4 ADD PUSH2 0x1CA7 SWAP1 PUSH2 0x2E18 JUMP JUMPDEST PUSH1 0x40 MLOAD DUP1 SWAP2 SUB SWAP1 REVERT JUMPDEST PUSH2 0x1CB9 DUP2 PUSH2 0x1D81 JUMP JUMPDEST POP JUMP JUMPDEST PUSH1 0xB PUSH1 0x0 SWAP1 SLOAD SWAP1 PUSH2 0x100 EXP SWAP1 DIV PUSH20 0xFFFFFFFFFFFFFFFFFFFFFFFFFFFFFFFFFFFFFFFF AND DUP2 JUMP JUMPDEST PUSH1 0x7 PUSH1 0x20 MSTORE DUP1 PUSH1 0x0 MSTORE PUSH1 0x40 PUSH1 0x0 KECCAK256 PUSH1 0x0 SWAP2 POP SWAP1 POP DUP1 PUSH1 0x0 ADD SLOAD SWAP1 DUP1 PUSH1 0x1 ADD SLOAD SWAP1 DUP1 PUSH1 0x2 ADD PUSH1 0x0 SWAP1 SLOAD SWAP1 PUSH2 0x100 EXP SWAP1 DIV PUSH20 0xFFFFFFFFFFFFFFFFFFFFFFFFFFFFFFFFFFFFFFFF AND SWAP1 DUP1 PUSH1 0x3 ADD PUSH1 0x0 SWAP1 SLOAD SWAP1 PUSH2 0x100 EXP SWAP1 DIV PUSH20 0xFFFFFFFFFFFFFFFFFFFFFFFFFFFFFFFFFFFFFFFF AND SWAP1 DUP1 PUSH1 0x4 ADD SLOAD SWAP1 DUP1 PUSH1 0x5 ADD PUSH1 0x0 SWAP1 SLOAD SWAP1 PUSH2 0x100 EXP SWAP1 DIV PUSH1 0xFF AND SWAP1 POP DUP7 JUMP JUMPDEST PUSH1 0x0 CALLER SWAP1 POP SWAP1 JUMP JUMPDEST PUSH1 0x0 DUP2 PUSH1 0x0 ADD SLOAD SWAP1 POP SWAP2 SWAP1 POP JUMP JUMPDEST PUSH1 0x0 PUSH1 0xC PUSH1 0x0 SWAP1 SLOAD SWAP1 PUSH2 0x100 EXP SWAP1 DIV PUSH20 0xFFFFFFFFFFFFFFFFFFFFFFFFFFFFFFFFFFFFFFFF AND SWAP1 POP DUP2 PUSH1 0xC PUSH1 0x0 PUSH2 0x100 EXP DUP2 SLOAD DUP2 PUSH20 0xFFFFFFFFFFFFFFFFFFFFFFFFFFFFFFFFFFFFFFFF MUL NOT AND SWAP1 DUP4 PUSH20 0xFFFFFFFFFFFFFFFFFFFFFFFFFFFFFFFFFFFFFFFF AND MUL OR SWAP1 SSTORE POP DUP2 PUSH20 0xFFFFFFFFFFFFFFFFFFFFFFFFFFFFFFFFFFFFFFFF AND DUP2 PUSH20 0xFFFFFFFFFFFFFFFFFFFFFFFFFFFFFFFFFFFFFFFF AND PUSH32 0x8BE0079C531659141344CD1FD0A4F28419497F9722A3DAAFE3B4186F6B6457E0 PUSH1 0x40 MLOAD PUSH1 0x40 MLOAD DUP1 SWAP2 SUB SWAP1 LOG3 POP POP JUMP JUMPDEST PUSH1 0x1 DUP2 PUSH1 0x0 ADD PUSH1 0x0 DUP3 DUP3 SLOAD ADD SWAP3 POP POP DUP2 SWAP1 SSTORE POP POP JUMP JUMPDEST PUSH1 0x40 MLOAD DUP1 PUSH1 0xC0 ADD PUSH1 0x40 MSTORE DUP1 PUSH1 0x0 DUP2 MSTORE PUSH1 0x20 ADD PUSH1 0x0 DUP2 MSTORE PUSH1 0x20 ADD PUSH1 0x0 PUSH20 0xFFFFFFFFFFFFFFFFFFFFFFFFFFFFFFFFFFFFFFFF AND DUP2 MSTORE PUSH1 0x20 ADD PUSH1 0x0 PUSH20 0xFFFFFFFFFFFFFFFFFFFFFFFFFFFFFFFFFFFFFFFF AND DUP2 MSTORE PUSH1 0x20 ADD PUSH1 0x0 DUP2 MSTORE PUSH1 0x20 ADD PUSH1 0x0 PUSH1 0x1 DUP2 GT ISZERO PUSH2 0x1ECB JUMPI PUSH2 0x1ECA PUSH2 0x1F2B JUMP JUMPDEST JUMPDEST DUP2 MSTORE POP SWAP1 JUMP JUMPDEST PUSH1 0x0 DUP2 SWAP1 POP SWAP2 SWAP1 POP JUMP JUMPDEST PUSH2 0x1EE4 DUP2 PUSH2 0x1ED1 JUMP JUMPDEST DUP3 MSTORE POP POP JUMP JUMPDEST PUSH1 0x0 PUSH20 0xFFFFFFFFFFFFFFFFFFFFFFFFFFFFFFFFFFFFFFFF DUP3 AND SWAP1 POP SWAP2 SWAP1 POP JUMP JUMPDEST PUSH1 0x0 PUSH2 0x1F15 DUP3 PUSH2 0x1EEA JUMP JUMPDEST SWAP1 POP SWAP2 SWAP1 POP JUMP JUMPDEST PUSH2 0x1F25 DUP2 PUSH2 0x1F0A JUMP JUMPDEST DUP3 MSTORE POP POP JUMP JUMPDEST PUSH32 0x4E487B7100000000000000000000000000000000000000000000000000000000 PUSH1 0x0 MSTORE PUSH1 0x21 PUSH1 0x4 MSTORE PUSH1 0x24 PUSH1 0x0 REVERT JUMPDEST PUSH1 0x2 DUP2 LT PUSH2 0x1F6B JUMPI PUSH2 0x1F6A PUSH2 0x1F2B JUMP JUMPDEST JUMPDEST POP JUMP JUMPDEST PUSH1 0x0 DUP2 SWAP1 POP PUSH2 0x1F7C DUP3 PUSH2 0x1F5A JUMP JUMPDEST SWAP2 SWAP1 POP JUMP JUMPDEST PUSH1 0x0 PUSH2 0x1F8C DUP3 PUSH2 0x1F6E JUMP JUMPDEST SWAP1 POP SWAP2 SWAP1 POP JUMP JUMPDEST PUSH2 0x1F9C DUP2 PUSH2 0x1F81 JUMP JUMPDEST DUP3 MSTORE POP POP JUMP JUMPDEST PUSH1 0xC0 DUP3 ADD PUSH1 0x0 DUP3 ADD MLOAD PUSH2 0x1FB8 PUSH1 0x0 DUP6 ADD DUP3 PUSH2 0x1EDB JUMP JUMPDEST POP PUSH1 0x20 DUP3 ADD MLOAD PUSH2 0x1FCB PUSH1 0x20 DUP6 ADD DUP3 PUSH2 0x1EDB JUMP JUMPDEST POP PUSH1 0x40 DUP3 ADD MLOAD PUSH2 0x1FDE PUSH1 0x40 DUP6 ADD DUP3 PUSH2 0x1F1C JUMP JUMPDEST POP PUSH1 0x60 DUP3 ADD MLOAD PUSH2 0x1FF1 PUSH1 0x60 DUP6 ADD DUP3 PUSH2 0x1F1C JUMP JUMPDEST POP PUSH1 0x80 DUP3 ADD MLOAD PUSH2 0x2004 PUSH1 0x80 DUP6 ADD DUP3 PUSH2 0x1EDB JUMP JUMPDEST POP PUSH1 0xA0 DUP3 ADD MLOAD PUSH2 0x2017 PUSH1 0xA0 DUP6 ADD DUP3 PUSH2 0x1F93 JUMP JUMPDEST POP POP POP POP JUMP JUMPDEST PUSH1 0x0 PUSH1 0xC0 DUP3 ADD SWAP1 POP PUSH2 0x2032 PUSH1 0x0 DUP4 ADD DUP5 PUSH2 0x1FA2 JUMP JUMPDEST SWAP3 SWAP2 POP POP JUMP JUMPDEST PUSH1 0x0 PUSH1 0x40 MLOAD SWAP1 POP SWAP1 JUMP JUMPDEST PUSH1 0x0 DUP1 REVERT JUMPDEST PUSH1 0x0 DUP1 REVERT JUMPDEST PUSH2 0x2055 DUP2 PUSH2 0x1ED1 JUMP JUMPDEST DUP2 EQ PUSH2 0x2060 JUMPI PUSH1 0x0 DUP1 REVERT JUMPDEST POP JUMP JUMPDEST PUSH1 0x0 DUP2 CALLDATALOAD SWAP1 POP PUSH2 0x2072 DUP2 PUSH2 0x204C JUMP JUMPDEST SWAP3 SWAP2 POP POP JUMP JUMPDEST PUSH1 0x0 PUSH1 0x20 DUP3 DUP5 SUB SLT ISZERO PUSH2 0x208E JUMPI PUSH2 0x208D PUSH2 0x2042 JUMP JUMPDEST JUMPDEST PUSH1 0x0 PUSH2 0x209C DUP5 DUP3 DUP6 ADD PUSH2 0x2063 JUMP JUMPDEST SWAP2 POP POP SWAP3 SWAP2 POP POP JUMP JUMPDEST PUSH2 0x20AE DUP2 PUSH2 0x1F0A JUMP JUMPDEST DUP2 EQ PUSH2 0x20B9 JUMPI PUSH1 0x0 DUP1 REVERT JUMPDEST POP JUMP JUMPDEST PUSH1 0x0 DUP2 CALLDATALOAD SWAP1 POP PUSH2 0x20CB DUP2 PUSH2 0x20A5 JUMP JUMPDEST SWAP3 SWAP2 POP POP JUMP JUMPDEST PUSH1 0x0 PUSH1 0x20 DUP3 DUP5 SUB SLT ISZERO PUSH2 0x20E7 JUMPI PUSH2 0x20E6 PUSH2 0x2042 JUMP JUMPDEST JUMPDEST PUSH1 0x0 PUSH2 0x20F5 DUP5 DUP3 DUP6 ADD PUSH2 0x20BC JUMP JUMPDEST SWAP2 POP POP SWAP3 SWAP2 POP POP JUMP JUMPDEST PUSH1 0x0 PUSH32 0xFFFFFFFF00000000000000000000000000000000000000000000000000000000 DUP3 AND SWAP1 POP SWAP2 SWAP1 POP JUMP JUMPDEST PUSH2 0x2133 DUP2 PUSH2 0x20FE JUMP JUMPDEST DUP3 MSTORE POP POP JUMP JUMPDEST PUSH1 0x0 PUSH1 0x20 DUP3 ADD SWAP1 POP PUSH2 0x214E PUSH1 0x0 DUP4 ADD DUP5 PUSH2 0x212A JUMP JUMPDEST SWAP3 SWAP2 POP POP JUMP JUMPDEST PUSH1 0x0 DUP1 PUSH1 0x40 DUP4 DUP6 SUB SLT ISZERO PUSH2 0x216B JUMPI PUSH2 0x216A PUSH2 0x2042 JUMP JUMPDEST JUMPDEST PUSH1 0x0 PUSH2 0x2179 DUP6 DUP3 DUP7 ADD PUSH2 0x2063 JUMP JUMPDEST SWAP3 POP POP PUSH1 0x20 PUSH2 0x218A DUP6 DUP3 DUP7 ADD PUSH2 0x2063 JUMP JUMPDEST SWAP2 POP POP SWAP3 POP SWAP3 SWAP1 POP JUMP JUMPDEST PUSH1 0x0 DUP2 SWAP1 POP SWAP2 SWAP1 POP JUMP JUMPDEST PUSH1 0x0 PUSH2 0x21B9 PUSH2 0x21B4 PUSH2 0x21AF DUP5 PUSH2 0x1EEA JUMP JUMPDEST PUSH2 0x2194 JUMP JUMPDEST PUSH2 0x1EEA JUMP JUMPDEST SWAP1 POP SWAP2 SWAP1 POP JUMP JUMPDEST PUSH1 0x0 PUSH2 0x21CB DUP3 PUSH2 0x219E JUMP JUMPDEST SWAP1 POP SWAP2 SWAP1 POP JUMP JUMPDEST PUSH1 0x0 PUSH2 0x21DD DUP3 PUSH2 0x21C0 JUMP JUMPDEST SWAP1 POP SWAP2 SWAP1 POP JUMP JUMPDEST PUSH2 0x21ED DUP2 PUSH2 0x21D2 JUMP JUMPDEST DUP3 MSTORE POP POP JUMP JUMPDEST PUSH1 0x0 PUSH1 0x20 DUP3 ADD SWAP1 POP PUSH2 0x2208 PUSH1 0x0 DUP4 ADD DUP5 PUSH2 0x21E4 JUMP JUMPDEST SWAP3 SWAP2 POP POP JUMP JUMPDEST PUSH2 0x2217 DUP2 PUSH2 0x1ED1 JUMP JUMPDEST DUP3 MSTORE POP POP JUMP JUMPDEST PUSH2 0x2226 DUP2 PUSH2 0x1F0A JUMP JUMPDEST DUP3 MSTORE POP POP JUMP JUMPDEST PUSH2 0x2235 DUP2 PUSH2 0x1F81 JUMP JUMPDEST DUP3 MSTORE POP POP JUMP JUMPDEST PUSH1 0x0 PUSH1 0xC0 DUP3 ADD SWAP1 POP PUSH2 0x2250 PUSH1 0x0 DUP4 ADD DUP10 PUSH2 0x220E JUMP JUMPDEST PUSH2 0x225D PUSH1 0x20 DUP4 ADD DUP9 PUSH2 0x220E JUMP JUMPDEST PUSH2 0x226A PUSH1 0x40 DUP4 ADD DUP8 PUSH2 0x221D JUMP JUMPDEST PUSH2 0x2277 PUSH1 0x60 DUP4 ADD DUP7 PUSH2 0x221D JUMP JUMPDEST PUSH2 0x2284 PUSH1 0x80 DUP4 ADD DUP6 PUSH2 0x220E JUMP JUMPDEST PUSH2 0x2291 PUSH1 0xA0 DUP4 ADD DUP5 PUSH2 0x222C JUMP JUMPDEST SWAP8 SWAP7 POP POP POP POP POP POP POP JUMP JUMPDEST PUSH1 0x0 DUP1 PUSH1 0x40 DUP4 DUP6 SUB SLT ISZERO PUSH2 0x22B3 JUMPI PUSH2 0x22B2 PUSH2 0x2042 JUMP JUMPDEST JUMPDEST PUSH1 0x0 PUSH2 0x22C1 DUP6 DUP3 DUP7 ADD PUSH2 0x20BC JUMP JUMPDEST SWAP3 POP POP PUSH1 0x20 PUSH2 0x22D2 DUP6 DUP3 DUP7 ADD PUSH2 0x2063 JUMP JUMPDEST SWAP2 POP POP SWAP3 POP SWAP3 SWAP1 POP JUMP JUMPDEST PUSH1 0x0 DUP2 MLOAD SWAP1 POP SWAP2 SWAP1 POP JUMP JUMPDEST PUSH1 0x0 DUP3 DUP3 MSTORE PUSH1 0x20 DUP3 ADD SWAP1 POP SWAP3 SWAP2 POP POP JUMP JUMPDEST PUSH1 0x0 DUP2 SWAP1 POP PUSH1 0x20 DUP3 ADD SWAP1 POP SWAP2 SWAP1 POP JUMP JUMPDEST PUSH1 0xC0 DUP3 ADD PUSH1 0x0 DUP3 ADD MLOAD PUSH2 0x231E PUSH1 0x0 DUP6 ADD DUP3 PUSH2 0x1EDB JUMP JUMPDEST POP PUSH1 0x20 DUP3 ADD MLOAD PUSH2 0x2331 PUSH1 0x20 DUP6 ADD DUP3 PUSH2 0x1EDB JUMP JUMPDEST POP PUSH1 0x40 DUP3 ADD MLOAD PUSH2 0x2344 PUSH1 0x40 DUP6 ADD DUP3 PUSH2 0x1F1C JUMP JUMPDEST POP PUSH1 0x60 DUP3 ADD MLOAD PUSH2 0x2357 PUSH1 0x60 DUP6 ADD DUP3 PUSH2 0x1F1C JUMP JUMPDEST POP PUSH1 0x80 DUP3 ADD MLOAD PUSH2 0x236A PUSH1 0x80 DUP6 ADD DUP3 PUSH2 0x1EDB JUMP JUMPDEST POP PUSH1 0xA0 DUP3 ADD MLOAD PUSH2 0x237D PUSH1 0xA0 DUP6 ADD DUP3 PUSH2 0x1F93 JUMP JUMPDEST POP POP POP POP JUMP JUMPDEST PUSH1 0x0 PUSH2 0x238F DUP4 DUP4 PUSH2 0x2308 JUMP JUMPDEST PUSH1 0xC0 DUP4 ADD SWAP1 POP SWAP3 SWAP2 POP POP JUMP JUMPDEST PUSH1 0x0 PUSH1 0x20 DUP3 ADD SWAP1 POP SWAP2 SWAP1 POP JUMP JUMPDEST PUSH1 0x0 PUSH2 0x23B3 DUP3 PUSH2 0x22DC JUMP JUMPDEST PUSH2 0x23BD DUP2 DUP6 PUSH2 0x22E7 JUMP JUMPDEST SWAP4 POP PUSH2 0x23C8 DUP4 PUSH2 0x22F8 JUMP JUMPDEST DUP1 PUSH1 0x0 JUMPDEST DUP4 DUP2 LT ISZERO PUSH2 0x23F9 JUMPI DUP2 MLOAD PUSH2 0x23E0 DUP9 DUP3 PUSH2 0x2383 JUMP JUMPDEST SWAP8 POP PUSH2 0x23EB DUP4 PUSH2 0x239B JUMP JUMPDEST SWAP3 POP POP PUSH1 0x1 DUP2 ADD SWAP1 POP PUSH2 0x23CC JUMP JUMPDEST POP DUP6 SWAP4 POP POP POP POP SWAP3 SWAP2 POP POP JUMP JUMPDEST PUSH1 0x0 PUSH1 0x20 DUP3 ADD SWAP1 POP DUP2 DUP2 SUB PUSH1 0x0 DUP4 ADD MSTORE PUSH2 0x2420 DUP2 DUP5 PUSH2 0x23A8 JUMP JUMPDEST SWAP1 POP SWAP3 SWAP2 POP POP JUMP JUMPDEST PUSH1 0x0 PUSH1 0xFF DUP3 AND SWAP1 POP SWAP2 SWAP1 POP JUMP JUMPDEST PUSH2 0x243E DUP2 PUSH2 0x2428 JUMP JUMPDEST DUP3 MSTORE POP POP JUMP JUMPDEST PUSH1 0x0 PUSH1 0x20 DUP3 ADD SWAP1 POP PUSH2 0x2459 PUSH1 0x0 DUP4 ADD DUP5 PUSH2 0x2435 JUMP JUMPDEST SWAP3 SWAP2 POP POP JUMP JUMPDEST PUSH1 0x0 PUSH1 0x20 DUP3 ADD SWAP1 POP PUSH2 0x2474 PUSH1 0x0 DUP4 ADD DUP5 PUSH2 0x221D JUMP JUMPDEST SWAP3 SWAP2 POP POP JUMP JUMPDEST PUSH1 0x0 PUSH2 0x2485 DUP3 PUSH2 0x21C0 JUMP JUMPDEST SWAP1 POP SWAP2 SWAP1 POP JUMP JUMPDEST PUSH2 0x2495 DUP2 PUSH2 0x247A JUMP JUMPDEST DUP3 MSTORE POP POP JUMP JUMPDEST PUSH1 0x0 PUSH1 0x20 DUP3 ADD SWAP1 POP PUSH2 0x24B0 PUSH1 0x0 DUP4 ADD DUP5 PUSH2 0x248C JUMP JUMPDEST SWAP3 SWAP2 POP POP JUMP JUMPDEST PUSH1 0x0 PUSH2 0x24C1 DUP3 PUSH2 0x21C0 JUMP JUMPDEST SWAP1 POP SWAP2 SWAP1 POP JUMP JUMPDEST PUSH2 0x24D1 DUP2 PUSH2 0x24B6 JUMP JUMPDEST DUP3 MSTORE POP POP JUMP JUMPDEST PUSH1 0x0 PUSH1 0x20 DUP3 ADD SWAP1 POP PUSH2 0x24EC PUSH1 0x0 DUP4 ADD DUP5 PUSH2 0x24C8 JUMP JUMPDEST SWAP3 SWAP2 POP POP JUMP JUMPDEST PUSH1 0x0 DUP3 DUP3 MSTORE PUSH1 0x20 DUP3 ADD SWAP1 POP SWAP3 SWAP2 POP POP JUMP JUMPDEST PUSH32 0x4173736574206E6F74207075626C697368656400000000000000000000000000 PUSH1 0x0 DUP3 ADD MSTORE POP JUMP JUMPDEST PUSH1 0x0 PUSH2 0x2539 PUSH1 0x13 DUP4 PUSH2 0x24F2 JUMP JUMPDEST SWAP2 POP PUSH2 0x2544 DUP3 PUSH2 0x2503 JUMP JUMPDEST PUSH1 0x20 DUP3 ADD SWAP1 POP SWAP2 SWAP1 POP JUMP JUMPDEST PUSH1 0x0 PUSH1 0x20 DUP3 ADD SWAP1 POP DUP2 DUP2 SUB PUSH1 0x0 DUP4 ADD MSTORE PUSH2 0x2568 DUP2 PUSH2 0x252C JUMP JUMPDEST SWAP1 POP SWAP2 SWAP1 POP JUMP JUMPDEST PUSH32 0x41737365742064656C6973746564000000000000000000000000000000000000 PUSH1 0x0 DUP3 ADD MSTORE POP JUMP JUMPDEST PUSH1 0x0 PUSH2 0x25A5 PUSH1 0xE DUP4 PUSH2 0x24F2 JUMP JUMPDEST SWAP2 POP PUSH2 0x25B0 DUP3 PUSH2 0x256F JUMP JUMPDEST PUSH1 0x20 DUP3 ADD SWAP1 POP SWAP2 SWAP1 POP JUMP JUMPDEST PUSH1 0x0 PUSH1 0x20 DUP3 ADD SWAP1 POP DUP2 DUP2 SUB PUSH1 0x0 DUP4 ADD MSTORE PUSH2 0x25D4 DUP2 PUSH2 0x2598 JUMP JUMPDEST SWAP1 POP SWAP2 SWAP1 POP JUMP JUMPDEST PUSH32 0x496E76616C696420616464726573730000000000000000000000000000000000 PUSH1 0x0 DUP3 ADD MSTORE POP JUMP JUMPDEST PUSH1 0x0 PUSH2 0x2611 PUSH1 0xF DUP4 PUSH2 0x24F2 JUMP JUMPDEST SWAP2 POP PUSH2 0x261C DUP3 PUSH2 0x25DB JUMP JUMPDEST PUSH1 0x20 DUP3 ADD SWAP1 POP SWAP2 SWAP1 POP JUMP JUMPDEST PUSH1 0x0 PUSH1 0x20 DUP3 ADD SWAP1 POP DUP2 DUP2 SUB PUSH1 0x0 DUP4 ADD MSTORE PUSH2 0x2640 DUP2 PUSH2 0x2604 JUMP JUMPDEST SWAP1 POP SWAP2 SWAP1 POP JUMP JUMPDEST PUSH32 0x4F6E6C792073656C6C65722063616E2064656C69737400000000000000000000 PUSH1 0x0 DUP3 ADD MSTORE POP JUMP JUMPDEST PUSH1 0x0 PUSH2 0x267D PUSH1 0x16 DUP4 PUSH2 0x24F2 JUMP JUMPDEST SWAP2 POP PUSH2 0x2688 DUP3 PUSH2 0x2647 JUMP JUMPDEST PUSH1 0x20 DUP3 ADD SWAP1 POP SWAP2 SWAP1 POP JUMP JUMPDEST PUSH1 0x0 PUSH1 0x20 DUP3 ADD SWAP1 POP DUP2 DUP2 SUB PUSH1 0x0 DUP4 ADD MSTORE PUSH2 0x26AC DUP2 PUSH2 0x2670 JUMP JUMPDEST SWAP1 POP SWAP2 SWAP1 POP JUMP JUMPDEST PUSH1 0x0 PUSH1 0x60 DUP3 ADD SWAP1 POP PUSH2 0x26C8 PUSH1 0x0 DUP4 ADD DUP7 PUSH2 0x221D JUMP JUMPDEST PUSH2 0x26D5 PUSH1 0x20 DUP4 ADD DUP6 PUSH2 0x221D JUMP JUMPDEST PUSH2 0x26E2 PUSH1 0x40 DUP4 ADD DUP5 PUSH2 0x220E JUMP JUMPDEST SWAP5 SWAP4 POP POP POP POP JUMP JUMPDEST PUSH1 0x0 PUSH1 0x40 DUP3 ADD SWAP1 POP PUSH2 0x26FF PUSH1 0x0 DUP4 ADD DUP6 PUSH2 0x220E JUMP JUMPDEST PUSH2 0x270C PUSH1 0x20 DUP4 ADD DUP5 PUSH2 0x220E JUMP JUMPDEST SWAP4 SWAP3 POP POP POP JUMP JUMPDEST PUSH32 0x4F776E61626C653A2063616C6C6572206973206E6F7420746865206F776E6572 PUSH1 0x0 DUP3 ADD MSTORE POP JUMP JUMPDEST PUSH1 0x0 PUSH2 0x2749 PUSH1 0x20 DUP4 PUSH2 0x24F2 JUMP JUMPDEST SWAP2 POP PUSH2 0x2754 DUP3 PUSH2 0x2713 JUMP JUMPDEST PUSH1 0x20 DUP3 ADD SWAP1 POP SWAP2 SWAP1 POP JUMP JUMPDEST PUSH1 0x0 PUSH1 0x20 DUP3 ADD SWAP1 POP DUP2 DUP2 SUB PUSH1 0x0 DUP4 ADD MSTORE PUSH2 0x2778 DUP2 PUSH2 0x273C JUMP JUMPDEST SWAP1 POP SWAP2 SWAP1 POP JUMP JUMPDEST PUSH32 0x5072696365206D757374206265206174206C6561737420312077656900000000 PUSH1 0x0 DUP3 ADD MSTORE POP JUMP JUMPDEST PUSH1 0x0 PUSH2 0x27B5 PUSH1 0x1C DUP4 PUSH2 0x24F2 JUMP JUMPDEST SWAP2 POP PUSH2 0x27C0 DUP3 PUSH2 0x277F JUMP JUMPDEST PUSH1 0x20 DUP3 ADD SWAP1 POP SWAP2 SWAP1 POP JUMP JUMPDEST PUSH1 0x0 PUSH1 0x20 DUP3 ADD SWAP1 POP DUP2 DUP2 SUB PUSH1 0x0 DUP4 ADD MSTORE PUSH2 0x27E4 DUP2 PUSH2 0x27A8 JUMP JUMPDEST SWAP1 POP SWAP2 SWAP1 POP JUMP JUMPDEST PUSH1 0x0 PUSH1 0x20 DUP3 ADD SWAP1 POP PUSH2 0x2800 PUSH1 0x0 DUP4 ADD DUP5 PUSH2 0x220E JUMP JUMPDEST SWAP3 SWAP2 POP POP JUMP JUMPDEST PUSH1 0x0 DUP1 REVERT JUMPDEST PUSH1 0x0 PUSH1 0x1F NOT PUSH1 0x1F DUP4 ADD AND SWAP1 POP SWAP2 SWAP1 POP JUMP JUMPDEST PUSH32 0x4E487B7100000000000000000000000000000000000000000000000000000000 PUSH1 0x0 MSTORE PUSH1 0x41 PUSH1 0x4 MSTORE PUSH1 0x24 PUSH1 0x0 REVERT JUMPDEST PUSH2 0x2854 DUP3 PUSH2 0x280B JUMP JUMPDEST DUP2 ADD DUP2 DUP2 LT PUSH8 0xFFFFFFFFFFFFFFFF DUP3 GT OR ISZERO PUSH2 0x2873 JUMPI PUSH2 0x2872 PUSH2 0x281C JUMP JUMPDEST JUMPDEST DUP1 PUSH1 0x40 MSTORE POP POP POP JUMP JUMPDEST PUSH1 0x0 PUSH2 0x2886 PUSH2 0x2038 JUMP JUMPDEST SWAP1 POP PUSH2 0x2892 DUP3 DUP3 PUSH2 0x284B JUMP JUMPDEST SWAP2 SWAP1 POP JUMP JUMPDEST PUSH1 0x0 DUP1 REVERT JUMPDEST PUSH1 0x0 DUP2 MLOAD SWAP1 POP PUSH2 0x28AB DUP2 PUSH2 0x204C JUMP JUMPDEST SWAP3 SWAP2 POP POP JUMP JUMPDEST PUSH1 0x0 DUP2 MLOAD SWAP1 POP PUSH2 0x28C0 DUP2 PUSH2 0x20A5 JUMP JUMPDEST SWAP3 SWAP2 POP POP JUMP JUMPDEST PUSH1 0x0 DUP1 REVERT JUMPDEST PUSH1 0x0 DUP1 REVERT JUMPDEST PUSH1 0x0 PUSH8 0xFFFFFFFFFFFFFFFF DUP3 GT ISZERO PUSH2 0x28EB JUMPI PUSH2 0x28EA PUSH2 0x281C JUMP JUMPDEST JUMPDEST PUSH2 0x28F4 DUP3 PUSH2 0x280B JUMP JUMPDEST SWAP1 POP PUSH1 0x20 DUP2 ADD SWAP1 POP SWAP2 SWAP1 POP JUMP JUMPDEST PUSH1 0x0 JUMPDEST DUP4 DUP2 LT ISZERO PUSH2 0x291F JUMPI DUP1 DUP3 ADD MLOAD DUP2 DUP5 ADD MSTORE PUSH1 0x20 DUP2 ADD SWAP1 POP PUSH2 0x2904 JUMP JUMPDEST DUP4 DUP2 GT ISZERO PUSH2 0x292E JUMPI PUSH1 0x0 DUP5 DUP5 ADD MSTORE JUMPDEST POP POP POP POP JUMP JUMPDEST PUSH1 0x0 PUSH2 0x2947 PUSH2 0x2942 DUP5 PUSH2 0x28D0 JUMP JUMPDEST PUSH2 0x287C JUMP JUMPDEST SWAP1 POP DUP3 DUP2 MSTORE PUSH1 0x20 DUP2 ADD DUP5 DUP5 DUP5 ADD GT ISZERO PUSH2 0x2963 JUMPI PUSH2 0x2962 PUSH2 0x28CB JUMP JUMPDEST JUMPDEST PUSH2 0x296E DUP5 DUP3 DUP6 PUSH2 0x2901 JUMP JUMPDEST POP SWAP4 SWAP3 POP POP POP JUMP JUMPDEST PUSH1 0x0 DUP3 PUSH1 0x1F DUP4 ADD SLT PUSH2 0x298B JUMPI PUSH2 0x298A PUSH2 0x28C6 JUMP JUMPDEST JUMPDEST DUP2 MLOAD PUSH2 0x299B DUP5 DUP3 PUSH1 0x20 DUP7 ADD PUSH2 0x2934 JUMP JUMPDEST SWAP2 POP POP SWAP3 SWAP2 POP POP JUMP JUMPDEST PUSH1 0x0 DUP2 ISZERO ISZERO SWAP1 POP SWAP2 SWAP1 POP JUMP JUMPDEST PUSH2 0x29B9 DUP2 PUSH2 0x29A4 JUMP JUMPDEST DUP2 EQ PUSH2 0x29C4 JUMPI PUSH1 0x0 DUP1 REVERT JUMPDEST POP JUMP JUMPDEST PUSH1 0x0 DUP2 MLOAD SWAP1 POP PUSH2 0x29D6 DUP2 PUSH2 0x29B0 JUMP JUMPDEST SWAP3 SWAP2 POP POP JUMP JUMPDEST PUSH1 0x0 PUSH1 0xA0 DUP3 DUP5 SUB SLT ISZERO PUSH2 0x29F2 JUMPI PUSH2 0x29F1 PUSH2 0x2806 JUMP JUMPDEST JUMPDEST PUSH2 0x29FC PUSH1 0xA0 PUSH2 0x287C JUMP JUMPDEST SWAP1 POP PUSH1 0x0 PUSH2 0x2A0C DUP5 DUP3 DUP6 ADD PUSH2 0x289C JUMP JUMPDEST PUSH1 0x0 DUP4 ADD MSTORE POP PUSH1 0x20 PUSH2 0x2A20 DUP5 DUP3 DUP6 ADD PUSH2 0x28B1 JUMP JUMPDEST PUSH1 0x20 DUP4 ADD MSTORE POP PUSH1 0x40 DUP3 ADD MLOAD PUSH8 0xFFFFFFFFFFFFFFFF DUP2 GT ISZERO PUSH2 0x2A44 JUMPI PUSH2 0x2A43 PUSH2 0x2897 JUMP JUMPDEST JUMPDEST PUSH2 0x2A50 DUP5 DUP3 DUP6 ADD PUSH2 0x2976 JUMP JUMPDEST PUSH1 0x40 DUP4 ADD MSTORE POP PUSH1 0x60 DUP3 ADD MLOAD PUSH8 0xFFFFFFFFFFFFFFFF DUP2 GT ISZERO PUSH2 0x2A74 JUMPI PUSH2 0x2A73 PUSH2 0x2897 JUMP JUMPDEST JUMPDEST PUSH2 0x2A80 DUP5 DUP3 DUP6 ADD PUSH2 0x2976 JUMP JUMPDEST PUSH1 0x60 DUP4 ADD MSTORE POP PUSH1 0x80 PUSH2 0x2A94 DUP5 DUP3 DUP6 ADD PUSH2 0x29C7 JUMP JUMPDEST PUSH1 0x80 DUP4 ADD MSTORE POP SWAP3 SWAP2 POP POP JUMP JUMPDEST PUSH1 0x0 PUSH1 0x20 DUP3 DUP5 SUB SLT ISZERO PUSH2 0x2AB6 JUMPI PUSH2 0x2AB5 PUSH2 0x2042 JUMP JUMPDEST JUMPDEST PUSH1 0x0 DUP3 ADD MLOAD PUSH8 0xFFFFFFFFFFFFFFFF DUP2 GT ISZERO PUSH2 0x2AD4 JUMPI PUSH2 0x2AD3 PUSH2 0x2047 JUMP JUMPDEST JUMPDEST PUSH2 0x2AE0 DUP5 DUP3 DUP6 ADD PUSH2 0x29DC JUMP JUMPDEST SWAP2 POP POP SWAP3 SWAP2 POP POP JUMP JUMPDEST PUSH32 0x4974656D206973206E6F7420617661696C61626C65206E6F7720210000000000 PUSH1 0x0 DUP3 ADD MSTORE POP JUMP JUMPDEST PUSH1 0x0 PUSH2 0x2B1F PUSH1 0x1B DUP4 PUSH2 0x24F2 JUMP JUMPDEST SWAP2 POP PUSH2 0x2B2A DUP3 PUSH2 0x2AE9 JUMP JUMPDEST PUSH1 0x20 DUP3 ADD SWAP1 POP SWAP2 SWAP1 POP JUMP JUMPDEST PUSH1 0x0 PUSH1 0x20 DUP3 ADD SWAP1 POP DUP2 DUP2 SUB PUSH1 0x0 DUP4 ADD MSTORE PUSH2 0x2B4E DUP2 PUSH2 0x2B12 JUMP JUMPDEST SWAP1 POP SWAP2 SWAP1 POP JUMP JUMPDEST PUSH32 0x4E487B7100000000000000000000000000000000000000000000000000000000 PUSH1 0x0 MSTORE PUSH1 0x11 PUSH1 0x4 MSTORE PUSH1 0x24 PUSH1 0x0 REVERT JUMPDEST PUSH1 0x0 PUSH2 0x2B8F DUP3 PUSH2 0x1ED1 JUMP JUMPDEST SWAP2 POP PUSH2 0x2B9A DUP4 PUSH2 0x1ED1 JUMP JUMPDEST SWAP3 POP DUP3 PUSH32 0xFFFFFFFFFFFFFFFFFFFFFFFFFFFFFFFFFFFFFFFFFFFFFFFFFFFFFFFFFFFFFFFF SUB DUP3 GT ISZERO PUSH2 0x2BCF JUMPI PUSH2 0x2BCE PUSH2 0x2B55 JUMP JUMPDEST JUMPDEST DUP3 DUP3 ADD SWAP1 POP SWAP3 SWAP2 POP POP JUMP JUMPDEST PUSH1 0x0 PUSH2 0x2BE5 DUP3 PUSH2 0x1ED1 JUMP JUMPDEST SWAP2 POP PUSH32 0xFFFFFFFFFFFFFFFFFFFFFFFFFFFFFFFFFFFFFFFFFFFFFFFFFFFFFFFFFFFFFFFF DUP3 SUB PUSH2 0x2C17 JUMPI PUSH2 0x2C16 PUSH2 0x2B55 JUMP JUMPDEST JUMPDEST PUSH1 0x1 DUP3 ADD SWAP1 POP SWAP2 SWAP1 POP JUMP JUMPDEST PUSH32 0x4E487B7100000000000000000000000000000000000000000000000000000000 PUSH1 0x0 MSTORE PUSH1 0x32 PUSH1 0x4 MSTORE PUSH1 0x24 PUSH1 0x0 REVERT JUMPDEST PUSH32 0x506C65617365207375626D6974207468652061736B696E672070726963652069 PUSH1 0x0 DUP3 ADD MSTORE PUSH32 0x6E206F7264657220746F20636F6D706C65746520746865207075726368617365 PUSH1 0x20 DUP3 ADD MSTORE POP JUMP JUMPDEST PUSH1 0x0 PUSH2 0x2CAD PUSH1 0x40 DUP4 PUSH2 0x24F2 JUMP JUMPDEST SWAP2 POP PUSH2 0x2CB8 DUP3 PUSH2 0x2C51 JUMP JUMPDEST PUSH1 0x40 DUP3 ADD SWAP1 POP SWAP2 SWAP1 POP JUMP JUMPDEST PUSH1 0x0 PUSH1 0x20 DUP3 ADD SWAP1 POP DUP2 DUP2 SUB PUSH1 0x0 DUP4 ADD MSTORE PUSH2 0x2CDC DUP2 PUSH2 0x2CA0 JUMP JUMPDEST SWAP1 POP SWAP2 SWAP1 POP JUMP JUMPDEST PUSH1 0x0 PUSH1 0x20 DUP3 DUP5 SUB SLT ISZERO PUSH2 0x2CF9 JUMPI PUSH2 0x2CF8 PUSH2 0x2042 JUMP JUMPDEST JUMPDEST PUSH1 0x0 PUSH2 0x2D07 DUP5 DUP3 DUP6 ADD PUSH2 0x29C7 JUMP JUMPDEST SWAP2 POP POP SWAP3 SWAP2 POP POP JUMP JUMPDEST PUSH32 0x5351460000000000000000000000000000000000000000000000000000000000 PUSH1 0x0 DUP3 ADD MSTORE POP JUMP JUMPDEST PUSH1 0x0 PUSH2 0x2D46 PUSH1 0x3 DUP4 PUSH2 0x24F2 JUMP JUMPDEST SWAP2 POP PUSH2 0x2D51 DUP3 PUSH2 0x2D10 JUMP JUMPDEST PUSH1 0x20 DUP3 ADD SWAP1 POP SWAP2 SWAP1 POP JUMP JUMPDEST PUSH1 0x0 PUSH1 0x80 DUP3 ADD SWAP1 POP PUSH2 0x2D71 PUSH1 0x0 DUP4 ADD DUP7 PUSH2 0x220E JUMP JUMPDEST PUSH2 0x2D7E PUSH1 0x20 DUP4 ADD DUP6 PUSH2 0x220E JUMP JUMPDEST DUP2 DUP2 SUB PUSH1 0x40 DUP4 ADD MSTORE PUSH2 0x2D8F DUP2 PUSH2 0x2D39 JUMP JUMPDEST SWAP1 POP PUSH2 0x2D9E PUSH1 0x60 DUP4 ADD DUP5 PUSH2 0x220E JUMP JUMPDEST SWAP5 SWAP4 POP POP POP POP JUMP JUMPDEST PUSH32 0x4F776E61626C653A206E6577206F776E657220697320746865207A65726F2061 PUSH1 0x0 DUP3 ADD MSTORE PUSH32 0x6464726573730000000000000000000000000000000000000000000000000000 PUSH1 0x20 DUP3 ADD MSTORE POP JUMP JUMPDEST PUSH1 0x0 PUSH2 0x2E02 PUSH1 0x26 DUP4 PUSH2 0x24F2 JUMP JUMPDEST SWAP2 POP PUSH2 0x2E0D DUP3 PUSH2 0x2DA6 JUMP JUMPDEST PUSH1 0x40 DUP3 ADD SWAP1 POP SWAP2 SWAP1 POP JUMP JUMPDEST PUSH1 0x0 PUSH1 0x20 DUP3 ADD SWAP1 POP DUP2 DUP2 SUB PUSH1 0x0 DUP4 ADD MSTORE PUSH2 0x2E31 DUP2 PUSH2 0x2DF5 JUMP JUMPDEST SWAP1 POP SWAP2 SWAP1 POP JUMP INVALID LOG2 PUSH5 0x6970667358 0x22 SLT KECCAK256 PUSH17 0x8640289755370D83D73C1486392959A428 LOG1 PUSH18 0xE5068A3D4475A88A2C1B91D164736F6C6343 STOP ADDMOD 0xD STOP CALLER "
				},
				"gasEstimates": {
					"creation": {
						"codeDepositCost": "2377200",
						"executionCost": "infinite",
						"totalCost": "infinite"
					},
					"external": {
						"ERC721_Interface()": "364",
						"allItems(uint256)": "infinite",
						"allMarketItems()": "infinite",
						"antaFeePercent()": "2543",
						"bnbFeePercent()": "2588",
						"createMarketItem(uint256,uint256)": "infinite",
						"createMarketSale(uint256,uint256)": "infinite",
						"delistItem(uint256)": "infinite",
						"factory()": "infinite",
						"fetchMarketItem(uint256)": "infinite",
						"fetchMarketItems()": "infinite",
						"fetchMySelling()": "infinite",
						"getMarketItem(uint256)": "infinite",
						"items(address,uint256)": "infinite",
						"mainNFTs()": "infinite",
						"mainToken()": "infinite",
						"owner()": "2611",
						"renounceOwnership()": "30419",
						"setFactory(address)": "27073",
						"setMainNFT(address)": "27030",
						"setMainToken(address)": "27052",
						"transferOwnership(address)": "30808"
					},
					"internal": {
						"_requireERC721(address)": "infinite",
						"isContract(address)": "infinite"
					}
				},
				"methodIdentifiers": {
					"ERC721_Interface()": "2b4c32be",
					"allItems(uint256)": "ff68fa6e",
					"allMarketItems()": "517bd451",
					"antaFeePercent()": "b7a60c7e",
					"bnbFeePercent()": "85a8b36c",
					"createMarketItem(uint256,uint256)": "361c1995",
					"createMarketSale(uint256,uint256)": "a1c11ca8",
					"delistItem(uint256)": "10061631",
					"factory()": "c45a0155",
					"fetchMarketItem(uint256)": "2a45b250",
					"fetchMarketItems()": "0f08efe0",
					"fetchMySelling()": "673cf668",
					"getMarketItem(uint256)": "c7be7a49",
					"items(address,uint256)": "5c80a435",
					"mainNFTs()": "f55de0c7",
					"mainToken()": "3fc15f15",
					"owner()": "8da5cb5b",
					"renounceOwnership()": "715018a6",
					"setFactory(address)": "5bb47808",
					"setMainNFT(address)": "15b12494",
					"setMainToken(address)": "27ce464e",
					"transferOwnership(address)": "f2fde38b"
				}
			},
			"storageLayout": {
				"storage": [
					{
						"astId": 409,
						"contract": "contracts/Marketplace2/Marketplace.sol:NFTMarket",
						"label": "_status",
						"offset": 0,
						"slot": "0",
						"type": "t_uint256"
					},
					{
						"astId": 498,
						"contract": "contracts/Marketplace2/Marketplace.sol:NFTMarket",
						"label": "allMarketItems",
						"offset": 0,
						"slot": "1",
						"type": "t_struct(MarketItem)495_storage"
					},
					{
						"astId": 509,
						"contract": "contracts/Marketplace2/Marketplace.sol:NFTMarket",
						"label": "allItems",
						"offset": 0,
						"slot": "7",
						"type": "t_mapping(t_uint256,t_struct(MarketItem)495_storage)"
					},
					{
						"astId": 516,
						"contract": "contracts/Marketplace2/Marketplace.sol:NFTMarket",
						"label": "items",
						"offset": 0,
						"slot": "8",
						"type": "t_mapping(t_address,t_mapping(t_uint256,t_struct(MarketItem)495_storage))"
					},
					{
						"astId": 519,
						"contract": "contracts/Marketplace2/Marketplace.sol:NFTMarket",
						"label": "mainToken",
						"offset": 0,
						"slot": "9",
						"type": "t_contract(IERC20)201"
					},
					{
						"astId": 522,
						"contract": "contracts/Marketplace2/Marketplace.sol:NFTMarket",
						"label": "factory",
						"offset": 0,
						"slot": "10",
						"type": "t_contract(IFactory)477"
					},
					{
						"astId": 525,
						"contract": "contracts/Marketplace2/Marketplace.sol:NFTMarket",
						"label": "mainNFTs",
						"offset": 0,
						"slot": "11",
						"type": "t_contract(IERC721)326"
					},
					{
						"astId": 527,
						"contract": "contracts/Marketplace2/Marketplace.sol:NFTMarket",
						"label": "bnbFeePercent",
						"offset": 20,
						"slot": "11",
						"type": "t_uint8"
					},
					{
						"astId": 529,
						"contract": "contracts/Marketplace2/Marketplace.sol:NFTMarket",
						"label": "antaFeePercent",
						"offset": 21,
						"slot": "11",
						"type": "t_uint8"
					},
					{
						"astId": 27,
						"contract": "contracts/Marketplace2/Marketplace.sol:NFTMarket",
						"label": "_owner",
						"offset": 0,
						"slot": "12",
						"type": "t_address"
					},
					{
						"astId": 597,
						"contract": "contracts/Marketplace2/Marketplace.sol:NFTMarket",
						"label": "_itemIds",
						"offset": 0,
						"slot": "13",
						"type": "t_struct(Counter)331_storage"
					},
					{
						"astId": 600,
						"contract": "contracts/Marketplace2/Marketplace.sol:NFTMarket",
						"label": "_itemsSold",
						"offset": 0,
						"slot": "14",
						"type": "t_struct(Counter)331_storage"
					},
					{
						"astId": 605,
						"contract": "contracts/Marketplace2/Marketplace.sol:NFTMarket",
						"label": "idToMarketItem",
						"offset": 0,
						"slot": "15",
						"type": "t_mapping(t_uint256,t_struct(MarketItem)495_storage)"
					}
				],
				"types": {
					"t_address": {
						"encoding": "inplace",
						"label": "address",
						"numberOfBytes": "20"
					},
					"t_contract(IERC20)201": {
						"encoding": "inplace",
						"label": "contract IERC20",
						"numberOfBytes": "20"
					},
					"t_contract(IERC721)326": {
						"encoding": "inplace",
						"label": "contract IERC721",
						"numberOfBytes": "20"
					},
					"t_contract(IFactory)477": {
						"encoding": "inplace",
						"label": "contract IFactory",
						"numberOfBytes": "20"
					},
					"t_enum(ItemStatus)481": {
						"encoding": "inplace",
						"label": "enum MarketplaceStorage.ItemStatus",
						"numberOfBytes": "1"
					},
					"t_mapping(t_address,t_mapping(t_uint256,t_struct(MarketItem)495_storage))": {
						"encoding": "mapping",
						"key": "t_address",
						"label": "mapping(address => mapping(uint256 => struct MarketplaceStorage.MarketItem))",
						"numberOfBytes": "32",
						"value": "t_mapping(t_uint256,t_struct(MarketItem)495_storage)"
					},
					"t_mapping(t_uint256,t_struct(MarketItem)495_storage)": {
						"encoding": "mapping",
						"key": "t_uint256",
						"label": "mapping(uint256 => struct MarketplaceStorage.MarketItem)",
						"numberOfBytes": "32",
						"value": "t_struct(MarketItem)495_storage"
					},
					"t_struct(Counter)331_storage": {
						"encoding": "inplace",
						"label": "struct Counters.Counter",
						"members": [
							{
								"astId": 330,
								"contract": "contracts/Marketplace2/Marketplace.sol:NFTMarket",
								"label": "_value",
								"offset": 0,
								"slot": "0",
								"type": "t_uint256"
							}
						],
						"numberOfBytes": "32"
					},
					"t_struct(MarketItem)495_storage": {
						"encoding": "inplace",
						"label": "struct MarketplaceStorage.MarketItem",
						"members": [
							{
								"astId": 483,
								"contract": "contracts/Marketplace2/Marketplace.sol:NFTMarket",
								"label": "itemId",
								"offset": 0,
								"slot": "0",
								"type": "t_uint256"
							},
							{
								"astId": 485,
								"contract": "contracts/Marketplace2/Marketplace.sol:NFTMarket",
								"label": "tokenId",
								"offset": 0,
								"slot": "1",
								"type": "t_uint256"
							},
							{
								"astId": 487,
								"contract": "contracts/Marketplace2/Marketplace.sol:NFTMarket",
								"label": "seller",
								"offset": 0,
								"slot": "2",
								"type": "t_address"
							},
							{
								"astId": 489,
								"contract": "contracts/Marketplace2/Marketplace.sol:NFTMarket",
								"label": "owner",
								"offset": 0,
								"slot": "3",
								"type": "t_address"
							},
							{
								"astId": 491,
								"contract": "contracts/Marketplace2/Marketplace.sol:NFTMarket",
								"label": "price",
								"offset": 0,
								"slot": "4",
								"type": "t_uint256"
							},
							{
								"astId": 494,
								"contract": "contracts/Marketplace2/Marketplace.sol:NFTMarket",
								"label": "status",
								"offset": 0,
								"slot": "5",
								"type": "t_enum(ItemStatus)481"
							}
						],
						"numberOfBytes": "192"
					},
					"t_uint256": {
						"encoding": "inplace",
						"label": "uint256",
						"numberOfBytes": "32"
					},
					"t_uint8": {
						"encoding": "inplace",
						"label": "uint8",
						"numberOfBytes": "1"
					}
				}
			},
			"userdoc": {
				"kind": "user",
				"methods": {},
				"version": 1
			}
		}
	}
}