{
	"contracts/Marketplace2/Marketplace.sol": {
		"NFTMarket": {
			"abi": [
				{
					"anonymous": false,
					"inputs": [
						{
							"indexed": false,
							"internalType": "bytes32",
							"name": "id",
							"type": "bytes32"
						},
						{
							"indexed": true,
							"internalType": "uint256",
							"name": "assetId",
							"type": "uint256"
						},
						{
							"indexed": true,
							"internalType": "address",
							"name": "seller",
							"type": "address"
						},
						{
							"indexed": false,
							"internalType": "address",
							"name": "nftAddress",
							"type": "address"
						},
						{
							"indexed": false,
							"internalType": "uint256",
							"name": "price",
							"type": "uint256"
						},
						{
							"indexed": false,
							"internalType": "uint8",
							"name": "feePercent",
							"type": "uint8"
						},
						{
							"indexed": false,
							"internalType": "uint256",
							"name": "fee",
							"type": "uint256"
						},
						{
							"indexed": true,
							"internalType": "address",
							"name": "buyer",
							"type": "address"
						},
						{
							"indexed": false,
							"internalType": "string",
							"name": "currency",
							"type": "string"
						},
						{
							"indexed": false,
							"internalType": "uint256",
							"name": "createdAt",
							"type": "uint256"
						}
					],
					"name": "BuyItemSuccessful",
					"type": "event"
				},
				{
					"anonymous": false,
					"inputs": [
						{
							"indexed": true,
							"internalType": "address",
							"name": "receiver",
							"type": "address"
						},
						{
							"indexed": false,
							"internalType": "uint256",
							"name": "value",
							"type": "uint256"
						}
					],
					"name": "Claim",
					"type": "event"
				},
				{
					"anonymous": false,
					"inputs": [
						{
							"indexed": false,
							"internalType": "address",
							"name": "nftAddress",
							"type": "address"
						},
						{
							"indexed": false,
							"internalType": "bytes32",
							"name": "id",
							"type": "bytes32"
						},
						{
							"indexed": true,
							"internalType": "uint256",
							"name": "assetId",
							"type": "uint256"
						},
						{
							"indexed": true,
							"internalType": "address",
							"name": "delistBy",
							"type": "address"
						},
						{
							"indexed": false,
							"internalType": "uint256",
							"name": "createdAt",
							"type": "uint256"
						}
					],
					"name": "DelistItemSuccessful",
					"type": "event"
				},
				{
					"anonymous": false,
					"inputs": [
						{
							"indexed": true,
							"internalType": "address",
							"name": "previousOwner",
							"type": "address"
						},
						{
							"indexed": true,
							"internalType": "address",
							"name": "newOwner",
							"type": "address"
						}
					],
					"name": "OwnershipTransferred",
					"type": "event"
				},
				{
					"anonymous": false,
					"inputs": [
						{
							"indexed": false,
							"internalType": "address",
							"name": "nftAddress",
							"type": "address"
						},
						{
							"indexed": false,
							"internalType": "bytes32",
							"name": "id",
							"type": "bytes32"
						},
						{
							"indexed": true,
							"internalType": "uint256",
							"name": "assetId",
							"type": "uint256"
						},
						{
							"indexed": false,
							"internalType": "uint256",
							"name": "price",
							"type": "uint256"
						},
						{
							"indexed": true,
							"internalType": "address",
							"name": "seller",
							"type": "address"
						},
						{
							"indexed": false,
							"internalType": "string",
							"name": "currency",
							"type": "string"
						},
						{
							"indexed": false,
							"internalType": "uint256",
							"name": "createdAt",
							"type": "uint256"
						}
					],
					"name": "SellItemSuccessful",
					"type": "event"
				},
				{
					"inputs": [],
					"name": "ERC721_Interface",
					"outputs": [
						{
							"internalType": "bytes4",
							"name": "",
							"type": "bytes4"
						}
					],
					"stateMutability": "view",
					"type": "function"
				},
				{
					"inputs": [],
					"name": "antaFeePercent",
					"outputs": [
						{
							"internalType": "uint8",
							"name": "",
							"type": "uint8"
						}
					],
					"stateMutability": "view",
					"type": "function"
				},
				{
					"inputs": [],
					"name": "bnbFeePercent",
					"outputs": [
						{
							"internalType": "uint8",
							"name": "",
							"type": "uint8"
						}
					],
					"stateMutability": "view",
					"type": "function"
				},
				{
					"inputs": [
						{
							"internalType": "address",
							"name": "nftAddress",
							"type": "address"
						},
						{
							"internalType": "uint256",
							"name": "assetId",
							"type": "uint256"
						},
						{
							"internalType": "uint256",
							"name": "priceAnta",
							"type": "uint256"
						}
					],
					"name": "buyItemBySQF",
					"outputs": [],
					"stateMutability": "nonpayable",
					"type": "function"
				},
				{
					"inputs": [
						{
							"internalType": "address",
							"name": "nftContract",
							"type": "address"
						},
						{
							"internalType": "uint256",
							"name": "tokenId",
							"type": "uint256"
						},
						{
							"internalType": "uint256",
							"name": "price",
							"type": "uint256"
						}
					],
					"name": "createMarketItem",
					"outputs": [],
					"stateMutability": "payable",
					"type": "function"
				},
				{
					"inputs": [
						{
							"internalType": "address",
							"name": "nftContract",
							"type": "address"
						},
						{
							"internalType": "uint256",
							"name": "itemId",
							"type": "uint256"
						}
					],
					"name": "createMarketSale",
					"outputs": [],
					"stateMutability": "payable",
					"type": "function"
				},
				{
					"inputs": [
						{
							"internalType": "uint256",
							"name": "itemId",
							"type": "uint256"
						}
					],
					"name": "fetchMarketItem",
					"outputs": [
						{
							"components": [
								{
									"internalType": "uint256",
									"name": "itemId",
									"type": "uint256"
								},
								{
									"internalType": "address",
									"name": "nftContract",
									"type": "address"
								},
								{
									"internalType": "uint256",
									"name": "tokenId",
									"type": "uint256"
								},
								{
									"internalType": "address payable",
									"name": "seller",
									"type": "address"
								},
								{
									"internalType": "address payable",
									"name": "owner",
									"type": "address"
								},
								{
									"internalType": "uint256",
									"name": "price",
									"type": "uint256"
								}
							],
							"internalType": "struct NFTMarket.MarketItem",
							"name": "",
							"type": "tuple"
						}
					],
					"stateMutability": "view",
					"type": "function"
				},
				{
					"inputs": [],
					"name": "fetchMarketItems",
					"outputs": [
						{
							"components": [
								{
									"internalType": "uint256",
									"name": "itemId",
									"type": "uint256"
								},
								{
									"internalType": "address",
									"name": "nftContract",
									"type": "address"
								},
								{
									"internalType": "uint256",
									"name": "tokenId",
									"type": "uint256"
								},
								{
									"internalType": "address payable",
									"name": "seller",
									"type": "address"
								},
								{
									"internalType": "address payable",
									"name": "owner",
									"type": "address"
								},
								{
									"internalType": "uint256",
									"name": "price",
									"type": "uint256"
								}
							],
							"internalType": "struct NFTMarket.MarketItem[]",
							"name": "",
							"type": "tuple[]"
						}
					],
					"stateMutability": "view",
					"type": "function"
				},
				{
					"inputs": [],
					"name": "fetchMyNFTs",
					"outputs": [
						{
							"components": [
								{
									"internalType": "uint256",
									"name": "itemId",
									"type": "uint256"
								},
								{
									"internalType": "address",
									"name": "nftContract",
									"type": "address"
								},
								{
									"internalType": "uint256",
									"name": "tokenId",
									"type": "uint256"
								},
								{
									"internalType": "address payable",
									"name": "seller",
									"type": "address"
								},
								{
									"internalType": "address payable",
									"name": "owner",
									"type": "address"
								},
								{
									"internalType": "uint256",
									"name": "price",
									"type": "uint256"
								}
							],
							"internalType": "struct NFTMarket.MarketItem[]",
							"name": "",
							"type": "tuple[]"
						}
					],
					"stateMutability": "view",
					"type": "function"
				},
				{
					"inputs": [
						{
							"internalType": "uint256",
							"name": "marketItemId",
							"type": "uint256"
						}
					],
					"name": "getMarketItem",
					"outputs": [
						{
							"components": [
								{
									"internalType": "uint256",
									"name": "itemId",
									"type": "uint256"
								},
								{
									"internalType": "address",
									"name": "nftContract",
									"type": "address"
								},
								{
									"internalType": "uint256",
									"name": "tokenId",
									"type": "uint256"
								},
								{
									"internalType": "address payable",
									"name": "seller",
									"type": "address"
								},
								{
									"internalType": "address payable",
									"name": "owner",
									"type": "address"
								},
								{
									"internalType": "uint256",
									"name": "price",
									"type": "uint256"
								}
							],
							"internalType": "struct NFTMarket.MarketItem",
							"name": "",
							"type": "tuple"
						}
					],
					"stateMutability": "view",
					"type": "function"
				},
				{
					"inputs": [
						{
							"internalType": "address",
							"name": "",
							"type": "address"
						},
						{
							"internalType": "uint256",
							"name": "",
							"type": "uint256"
						},
						{
							"internalType": "address",
							"name": "",
							"type": "address"
						}
					],
					"name": "itemOffers",
					"outputs": [
						{
							"internalType": "bytes32",
							"name": "id",
							"type": "bytes32"
						},
						{
							"internalType": "uint256",
							"name": "offerPrice",
							"type": "uint256"
						}
					],
					"stateMutability": "view",
					"type": "function"
				},
				{
					"inputs": [
						{
							"internalType": "address",
							"name": "",
							"type": "address"
						},
						{
							"internalType": "uint256",
							"name": "",
							"type": "uint256"
						}
					],
					"name": "items",
					"outputs": [
						{
							"internalType": "bytes32",
							"name": "id",
							"type": "bytes32"
						},
						{
							"internalType": "address",
							"name": "seller",
							"type": "address"
						},
						{
							"internalType": "address",
							"name": "nftAddress",
							"type": "address"
						},
						{
							"internalType": "uint256",
							"name": "price",
							"type": "uint256"
						},
						{
							"internalType": "uint256",
							"name": "priceAnta",
							"type": "uint256"
						},
						{
							"internalType": "enum MarketplaceStorage.ItemStatus",
							"name": "status",
							"type": "uint8"
						}
					],
					"stateMutability": "view",
					"type": "function"
				},
				{
					"inputs": [],
					"name": "owner",
					"outputs": [
						{
							"internalType": "address",
							"name": "",
							"type": "address"
						}
					],
					"stateMutability": "view",
					"type": "function"
				},
				{
					"inputs": [],
					"name": "renounceOwnership",
					"outputs": [],
					"stateMutability": "nonpayable",
					"type": "function"
				},
				{
					"inputs": [
						{
							"internalType": "address",
							"name": "nftAddress",
							"type": "address"
						},
						{
							"internalType": "uint256",
							"name": "assetId",
							"type": "uint256"
						},
						{
							"internalType": "uint256",
							"name": "price",
							"type": "uint256"
						}
					],
					"name": "sellItem",
					"outputs": [],
					"stateMutability": "nonpayable",
					"type": "function"
				},
				{
					"inputs": [
						{
							"internalType": "address",
							"name": "_address",
							"type": "address"
						}
					],
					"name": "setSQFToken",
					"outputs": [],
					"stateMutability": "nonpayable",
					"type": "function"
				},
				{
					"inputs": [],
					"name": "sqfToken",
					"outputs": [
						{
							"internalType": "contract IERC20",
							"name": "",
							"type": "address"
						}
					],
					"stateMutability": "view",
					"type": "function"
				},
				{
					"inputs": [
						{
							"internalType": "address",
							"name": "newOwner",
							"type": "address"
						}
					],
					"name": "transferOwnership",
					"outputs": [],
					"stateMutability": "nonpayable",
					"type": "function"
				}
			],
			"devdoc": {
				"kind": "dev",
				"methods": {
					"owner()": {
						"details": "Returns the address of the current owner."
					},
					"renounceOwnership()": {
						"details": "Leaves the contract without owner. It will not be possible to call `onlyOwner` functions anymore. Can only be called by the current owner. NOTE: Renouncing ownership will leave the contract without an owner, thereby removing any functionality that is only available to the owner."
					},
					"transferOwnership(address)": {
						"details": "Transfers ownership of the contract to a new account (`newOwner`). Can only be called by the current owner."
					}
				},
				"version": 1
			},
			"evm": {
				"assembly": "    /* \"contracts/Marketplace2/Marketplace.sol\":17004:24041  contract NFTMarket is ReentrancyGuard, MarketplaceStorage, Ownable {... */\n  mstore(0x40, 0x80)\n  callvalue\n  dup1\n  iszero\n  tag_1\n  jumpi\n  0x00\n  dup1\n  revert\ntag_1:\n  pop\n    /* \"contracts/Marketplace2/Marketplace.sol\":14124:14125  1 */\n  0x01\n    /* \"contracts/Marketplace2/Marketplace.sol\":14229:14236  _status */\n  0x00\n    /* \"contracts/Marketplace2/Marketplace.sol\":14229:14251  _status = _NOT_ENTERED */\n  dup2\n  swap1\n  sstore\n  pop\n    /* \"contracts/Marketplace2/Marketplace.sol\":1563:1595  _transferOwnership(_msgSender()) */\n  tag_6\n    /* \"contracts/Marketplace2/Marketplace.sol\":1582:1594  _msgSender() */\n  tag_7\n    /* \"contracts/Marketplace2/Marketplace.sol\":1582:1592  _msgSender */\n  shl(0x20, tag_8)\n    /* \"contracts/Marketplace2/Marketplace.sol\":1582:1594  _msgSender() */\n  0x20\n  shr\n  jump\t// in\ntag_7:\n    /* \"contracts/Marketplace2/Marketplace.sol\":1563:1581  _transferOwnership */\n  shl(0x20, tag_9)\n    /* \"contracts/Marketplace2/Marketplace.sol\":1563:1595  _transferOwnership(_msgSender()) */\n  0x20\n  shr\n  jump\t// in\ntag_6:\n    /* \"contracts/Marketplace2/Marketplace.sol\":17004:24041  contract NFTMarket is ReentrancyGuard, MarketplaceStorage, Ownable {... */\n  jump(tag_10)\n    /* \"contracts/Marketplace2/Marketplace.sol\":556:652  function _msgSender() internal view virtual returns (address) {... */\ntag_8:\n    /* \"contracts/Marketplace2/Marketplace.sol\":609:616  address */\n  0x00\n    /* \"contracts/Marketplace2/Marketplace.sol\":635:645  msg.sender */\n  caller\n    /* \"contracts/Marketplace2/Marketplace.sol\":628:645  return msg.sender */\n  swap1\n  pop\n    /* \"contracts/Marketplace2/Marketplace.sol\":556:652  function _msgSender() internal view virtual returns (address) {... */\n  swap1\n  jump\t// out\n    /* \"contracts/Marketplace2/Marketplace.sol\":2912:3099  function _transferOwnership(address newOwner) internal virtual {... */\ntag_9:\n    /* \"contracts/Marketplace2/Marketplace.sol\":2985:3001  address oldOwner */\n  0x00\n    /* \"contracts/Marketplace2/Marketplace.sol\":3004:3010  _owner */\n  0x04\n  0x00\n  swap1\n  sload\n  swap1\n  0x0100\n  exp\n  swap1\n  div\n  0xffffffffffffffffffffffffffffffffffffffff\n  and\n    /* \"contracts/Marketplace2/Marketplace.sol\":2985:3010  address oldOwner = _owner */\n  swap1\n  pop\n    /* \"contracts/Marketplace2/Marketplace.sol\":3029:3037  newOwner */\n  dup2\n    /* \"contracts/Marketplace2/Marketplace.sol\":3020:3026  _owner */\n  0x04\n  0x00\n    /* \"contracts/Marketplace2/Marketplace.sol\":3020:3037  _owner = newOwner */\n  0x0100\n  exp\n  dup2\n  sload\n  dup2\n  0xffffffffffffffffffffffffffffffffffffffff\n  mul\n  not\n  and\n  swap1\n  dup4\n  0xffffffffffffffffffffffffffffffffffffffff\n  and\n  mul\n  or\n  swap1\n  sstore\n  pop\n    /* \"contracts/Marketplace2/Marketplace.sol\":3083:3091  newOwner */\n  dup2\n    /* \"contracts/Marketplace2/Marketplace.sol\":3052:3092  OwnershipTransferred(oldOwner, newOwner) */\n  0xffffffffffffffffffffffffffffffffffffffff\n  and\n    /* \"contracts/Marketplace2/Marketplace.sol\":3073:3081  oldOwner */\n  dup2\n    /* \"contracts/Marketplace2/Marketplace.sol\":3052:3092  OwnershipTransferred(oldOwner, newOwner) */\n  0xffffffffffffffffffffffffffffffffffffffff\n  and\n  0x8be0079c531659141344cd1fd0a4f28419497f9722a3daafe3b4186f6b6457e0\n  mload(0x40)\n  mload(0x40)\n  dup1\n  swap2\n  sub\n  swap1\n  log3\n    /* \"contracts/Marketplace2/Marketplace.sol\":2975:3099  {... */\n  pop\n    /* \"contracts/Marketplace2/Marketplace.sol\":2912:3099  function _transferOwnership(address newOwner) internal virtual {... */\n  pop\n  jump\t// out\n    /* \"contracts/Marketplace2/Marketplace.sol\":17004:24041  contract NFTMarket is ReentrancyGuard, MarketplaceStorage, Ownable {... */\ntag_10:\n  dataSize(sub_0)\n  dup1\n  dataOffset(sub_0)\n  0x00\n  codecopy\n  0x00\n  return\nstop\n\nsub_0: assembly {\n        /* \"contracts/Marketplace2/Marketplace.sol\":17004:24041  contract NFTMarket is ReentrancyGuard, MarketplaceStorage, Ownable {... */\n      mstore(0x40, 0x80)\n      jumpi(tag_1, lt(calldatasize, 0x04))\n      shr(0xe0, calldataload(0x00))\n      dup1\n      0x715018a6\n      gt\n      tag_20\n      jumpi\n      dup1\n      0xb7a60c7e\n      gt\n      tag_21\n      jumpi\n      dup1\n      0xb7a60c7e\n      eq\n      tag_15\n      jumpi\n      dup1\n      0xc23b139e\n      eq\n      tag_16\n      jumpi\n      dup1\n      0xc7be7a49\n      eq\n      tag_17\n      jumpi\n      dup1\n      0xf01b52dc\n      eq\n      tag_18\n      jumpi\n      dup1\n      0xf2fde38b\n      eq\n      tag_19\n      jumpi\n      jump(tag_1)\n    tag_21:\n      dup1\n      0x715018a6\n      eq\n      tag_11\n      jumpi\n      dup1\n      0x85a8b36c\n      eq\n      tag_12\n      jumpi\n      dup1\n      0x8da5cb5b\n      eq\n      tag_13\n      jumpi\n      dup1\n      0x92bf77dd\n      eq\n      tag_14\n      jumpi\n      jump(tag_1)\n    tag_20:\n      dup1\n      0x2b4c32be\n      gt\n      tag_22\n      jumpi\n      dup1\n      0x2b4c32be\n      eq\n      tag_6\n      jumpi\n      dup1\n      0x49739678\n      eq\n      tag_7\n      jumpi\n      dup1\n      0x58eb2df5\n      eq\n      tag_8\n      jumpi\n      dup1\n      0x5c80a435\n      eq\n      tag_9\n      jumpi\n      dup1\n      0x68915327\n      eq\n      tag_10\n      jumpi\n      jump(tag_1)\n    tag_22:\n      dup1\n      0x0f08efe0\n      eq\n      tag_2\n      jumpi\n      dup1\n      0x15b81dc3\n      eq\n      tag_3\n      jumpi\n      dup1\n      0x202e3740\n      eq\n      tag_4\n      jumpi\n      dup1\n      0x2a45b250\n      eq\n      tag_5\n      jumpi\n    tag_1:\n      0x00\n      dup1\n      revert\n        /* \"contracts/Marketplace2/Marketplace.sol\":20230:20838  function fetchMarketItems() public view returns (MarketItem[] memory) {... */\n    tag_2:\n      callvalue\n      dup1\n      iszero\n      tag_23\n      jumpi\n      0x00\n      dup1\n      revert\n    tag_23:\n      pop\n      tag_24\n      tag_25\n      jump\t// in\n    tag_24:\n      mload(0x40)\n      tag_26\n      swap2\n      swap1\n      tag_27\n      jump\t// in\n    tag_26:\n      mload(0x40)\n      dup1\n      swap2\n      sub\n      swap1\n      return\n        /* \"contracts/Marketplace2/Marketplace.sol\":16146:16168  IERC20 public sqfToken */\n    tag_3:\n      callvalue\n      dup1\n      iszero\n      tag_28\n      jumpi\n      0x00\n      dup1\n      revert\n    tag_28:\n      pop\n      tag_29\n      tag_30\n      jump\t// in\n    tag_29:\n      mload(0x40)\n      tag_31\n      swap2\n      swap1\n      tag_32\n      jump\t// in\n    tag_31:\n      mload(0x40)\n      dup1\n      swap2\n      sub\n      swap1\n      return\n        /* \"contracts/Marketplace2/Marketplace.sol\":20842:21545  function fetchMyNFTs() public view returns (MarketItem[] memory) {... */\n    tag_4:\n      callvalue\n      dup1\n      iszero\n      tag_33\n      jumpi\n      0x00\n      dup1\n      revert\n    tag_33:\n      pop\n      tag_34\n      tag_35\n      jump\t// in\n    tag_34:\n      mload(0x40)\n      tag_36\n      swap2\n      swap1\n      tag_27\n      jump\t// in\n    tag_36:\n      mload(0x40)\n      dup1\n      swap2\n      sub\n      swap1\n      return\n        /* \"contracts/Marketplace2/Marketplace.sol\":20073:20226  function fetchMarketItem(uint itemId) public view returns (MarketItem memory) {... */\n    tag_5:\n      callvalue\n      dup1\n      iszero\n      tag_37\n      jumpi\n      0x00\n      dup1\n      revert\n    tag_37:\n      pop\n      tag_38\n      0x04\n      dup1\n      calldatasize\n      sub\n      dup2\n      add\n      swap1\n      tag_39\n      swap2\n      swap1\n      tag_40\n      jump\t// in\n    tag_39:\n      tag_41\n      jump\t// in\n    tag_38:\n      mload(0x40)\n      tag_42\n      swap2\n      swap1\n      tag_43\n      jump\t// in\n    tag_42:\n      mload(0x40)\n      dup1\n      swap2\n      sub\n      swap1\n      return\n        /* \"contracts/Marketplace2/Marketplace.sol\":15771:15831  bytes4 public constant ERC721_Interface = bytes4(0x80ac58cd) */\n    tag_6:\n      callvalue\n      dup1\n      iszero\n      tag_44\n      jumpi\n      0x00\n      dup1\n      revert\n    tag_44:\n      pop\n      tag_45\n      tag_46\n      jump\t// in\n    tag_45:\n      mload(0x40)\n      tag_47\n      swap2\n      swap1\n      tag_48\n      jump\t// in\n    tag_47:\n      mload(0x40)\n      dup1\n      swap2\n      sub\n      swap1\n      return\n        /* \"contracts/Marketplace2/Marketplace.sol\":16045:16140  mapping(address => mapping(uint256 => mapping(address => ItemOffer)))... */\n    tag_7:\n      callvalue\n      dup1\n      iszero\n      tag_49\n      jumpi\n      0x00\n      dup1\n      revert\n    tag_49:\n      pop\n      tag_50\n      0x04\n      dup1\n      calldatasize\n      sub\n      dup2\n      add\n      swap1\n      tag_51\n      swap2\n      swap1\n      tag_52\n      jump\t// in\n    tag_51:\n      tag_53\n      jump\t// in\n    tag_50:\n      mload(0x40)\n      tag_54\n      swap3\n      swap2\n      swap1\n      tag_55\n      jump\t// in\n    tag_54:\n      mload(0x40)\n      dup1\n      swap2\n      sub\n      swap1\n      return\n        /* \"contracts/Marketplace2/Marketplace.sol\":17649:18144  function createMarketItem(... */\n    tag_8:\n      tag_56\n      0x04\n      dup1\n      calldatasize\n      sub\n      dup2\n      add\n      swap1\n      tag_57\n      swap2\n      swap1\n      tag_58\n      jump\t// in\n    tag_57:\n      tag_59\n      jump\t// in\n    tag_56:\n      stop\n        /* \"contracts/Marketplace2/Marketplace.sol\":15909:15966  mapping(address => mapping(uint256 => Item)) public items */\n    tag_9:\n      callvalue\n      dup1\n      iszero\n      tag_60\n      jumpi\n      0x00\n      dup1\n      revert\n    tag_60:\n      pop\n      tag_61\n      0x04\n      dup1\n      calldatasize\n      sub\n      dup2\n      add\n      swap1\n      tag_62\n      swap2\n      swap1\n      tag_63\n      jump\t// in\n    tag_62:\n      tag_64\n      jump\t// in\n    tag_61:\n      mload(0x40)\n      tag_65\n      swap7\n      swap6\n      swap5\n      swap4\n      swap3\n      swap2\n      swap1\n      tag_66\n      jump\t// in\n    tag_65:\n      mload(0x40)\n      dup1\n      swap2\n      sub\n      swap1\n      return\n        /* \"contracts/Marketplace2/Marketplace.sol\":18148:19541  function sellItem(... */\n    tag_10:\n      callvalue\n      dup1\n      iszero\n      tag_67\n      jumpi\n      0x00\n      dup1\n      revert\n    tag_67:\n      pop\n      tag_68\n      0x04\n      dup1\n      calldatasize\n      sub\n      dup2\n      add\n      swap1\n      tag_69\n      swap2\n      swap1\n      tag_58\n      jump\t// in\n    tag_69:\n      tag_70\n      jump\t// in\n    tag_68:\n      stop\n        /* \"contracts/Marketplace2/Marketplace.sol\":2310:2411  function renounceOwnership() public virtual onlyOwner {... */\n    tag_11:\n      callvalue\n      dup1\n      iszero\n      tag_71\n      jumpi\n      0x00\n      dup1\n      revert\n    tag_71:\n      pop\n      tag_72\n      tag_73\n      jump\t// in\n    tag_72:\n      stop\n        /* \"contracts/Marketplace2/Marketplace.sol\":16175:16201  uint8 public bnbFeePercent */\n    tag_12:\n      callvalue\n      dup1\n      iszero\n      tag_74\n      jumpi\n      0x00\n      dup1\n      revert\n    tag_74:\n      pop\n      tag_75\n      tag_76\n      jump\t// in\n    tag_75:\n      mload(0x40)\n      tag_77\n      swap2\n      swap1\n      tag_78\n      jump\t// in\n    tag_77:\n      mload(0x40)\n      dup1\n      swap2\n      sub\n      swap1\n      return\n        /* \"contracts/Marketplace2/Marketplace.sol\":1678:1763  function owner() public view virtual returns (address) {... */\n    tag_13:\n      callvalue\n      dup1\n      iszero\n      tag_79\n      jumpi\n      0x00\n      dup1\n      revert\n    tag_79:\n      pop\n      tag_80\n      tag_81\n      jump\t// in\n    tag_80:\n      mload(0x40)\n      tag_82\n      swap2\n      swap1\n      tag_83\n      jump\t// in\n    tag_82:\n      mload(0x40)\n      dup1\n      swap2\n      sub\n      swap1\n      return\n        /* \"contracts/Marketplace2/Marketplace.sol\":17547:17645  function setSQFToken(address _address) external onlyOwner {... */\n    tag_14:\n      callvalue\n      dup1\n      iszero\n      tag_84\n      jumpi\n      0x00\n      dup1\n      revert\n    tag_84:\n      pop\n      tag_85\n      0x04\n      dup1\n      calldatasize\n      sub\n      dup2\n      add\n      swap1\n      tag_86\n      swap2\n      swap1\n      tag_87\n      jump\t// in\n    tag_86:\n      tag_88\n      jump\t// in\n    tag_85:\n      stop\n        /* \"contracts/Marketplace2/Marketplace.sol\":16207:16234  uint8 public antaFeePercent */\n    tag_15:\n      callvalue\n      dup1\n      iszero\n      tag_89\n      jumpi\n      0x00\n      dup1\n      revert\n    tag_89:\n      pop\n      tag_90\n      tag_91\n      jump\t// in\n    tag_90:\n      mload(0x40)\n      tag_92\n      swap2\n      swap1\n      tag_78\n      jump\t// in\n    tag_92:\n      mload(0x40)\n      dup1\n      swap2\n      sub\n      swap1\n      return\n        /* \"contracts/Marketplace2/Marketplace.sol\":19545:20069  function createMarketSale(... */\n    tag_16:\n      tag_93\n      0x04\n      dup1\n      calldatasize\n      sub\n      dup2\n      add\n      swap1\n      tag_94\n      swap2\n      swap1\n      tag_63\n      jump\t// in\n    tag_94:\n      tag_95\n      jump\t// in\n    tag_93:\n      stop\n        /* \"contracts/Marketplace2/Marketplace.sol\":17414:17545  function getMarketItem(uint256 marketItemId) public view returns (MarketItem memory) {... */\n    tag_17:\n      callvalue\n      dup1\n      iszero\n      tag_96\n      jumpi\n      0x00\n      dup1\n      revert\n    tag_96:\n      pop\n      tag_97\n      0x04\n      dup1\n      calldatasize\n      sub\n      dup2\n      add\n      swap1\n      tag_98\n      swap2\n      swap1\n      tag_40\n      jump\t// in\n    tag_98:\n      tag_99\n      jump\t// in\n    tag_97:\n      mload(0x40)\n      tag_100\n      swap2\n      swap1\n      tag_43\n      jump\t// in\n    tag_100:\n      mload(0x40)\n      dup1\n      swap2\n      sub\n      swap1\n      return\n        /* \"contracts/Marketplace2/Marketplace.sol\":21550:22846  function buyItemBySQF(... */\n    tag_18:\n      callvalue\n      dup1\n      iszero\n      tag_101\n      jumpi\n      0x00\n      dup1\n      revert\n    tag_101:\n      pop\n      tag_102\n      0x04\n      dup1\n      calldatasize\n      sub\n      dup2\n      add\n      swap1\n      tag_103\n      swap2\n      swap1\n      tag_58\n      jump\t// in\n    tag_103:\n      tag_104\n      jump\t// in\n    tag_102:\n      stop\n        /* \"contracts/Marketplace2/Marketplace.sol\":2560:2758  function transferOwnership(address newOwner) public virtual onlyOwner {... */\n    tag_19:\n      callvalue\n      dup1\n      iszero\n      tag_105\n      jumpi\n      0x00\n      dup1\n      revert\n    tag_105:\n      pop\n      tag_106\n      0x04\n      dup1\n      calldatasize\n      sub\n      dup2\n      add\n      swap1\n      tag_107\n      swap2\n      swap1\n      tag_87\n      jump\t// in\n    tag_107:\n      tag_108\n      jump\t// in\n    tag_106:\n      stop\n        /* \"contracts/Marketplace2/Marketplace.sol\":20230:20838  function fetchMarketItems() public view returns (MarketItem[] memory) {... */\n    tag_25:\n        /* \"contracts/Marketplace2/Marketplace.sol\":20279:20298  MarketItem[] memory */\n      0x60\n        /* \"contracts/Marketplace2/Marketplace.sol\":20306:20320  uint itemCount */\n      0x00\n        /* \"contracts/Marketplace2/Marketplace.sol\":20323:20341  _itemIds.current() */\n      tag_110\n        /* \"contracts/Marketplace2/Marketplace.sol\":20323:20331  _itemIds */\n      0x05\n        /* \"contracts/Marketplace2/Marketplace.sol\":20323:20339  _itemIds.current */\n      tag_111\n        /* \"contracts/Marketplace2/Marketplace.sol\":20323:20341  _itemIds.current() */\n      jump\t// in\n    tag_110:\n        /* \"contracts/Marketplace2/Marketplace.sol\":20306:20341  uint itemCount = _itemIds.current() */\n      swap1\n      pop\n        /* \"contracts/Marketplace2/Marketplace.sol\":20347:20367  uint unsoldItemCount */\n      0x00\n        /* \"contracts/Marketplace2/Marketplace.sol\":20391:20411  _itemsSold.current() */\n      tag_112\n        /* \"contracts/Marketplace2/Marketplace.sol\":20391:20401  _itemsSold */\n      0x06\n        /* \"contracts/Marketplace2/Marketplace.sol\":20391:20409  _itemsSold.current */\n      tag_111\n        /* \"contracts/Marketplace2/Marketplace.sol\":20391:20411  _itemsSold.current() */\n      jump\t// in\n    tag_112:\n        /* \"contracts/Marketplace2/Marketplace.sol\":20370:20388  _itemIds.current() */\n      tag_113\n        /* \"contracts/Marketplace2/Marketplace.sol\":20370:20378  _itemIds */\n      0x05\n        /* \"contracts/Marketplace2/Marketplace.sol\":20370:20386  _itemIds.current */\n      tag_111\n        /* \"contracts/Marketplace2/Marketplace.sol\":20370:20388  _itemIds.current() */\n      jump\t// in\n    tag_113:\n        /* \"contracts/Marketplace2/Marketplace.sol\":20370:20411  _itemIds.current() - _itemsSold.current() */\n      tag_114\n      swap2\n      swap1\n      tag_115\n      jump\t// in\n    tag_114:\n        /* \"contracts/Marketplace2/Marketplace.sol\":20347:20411  uint unsoldItemCount = _itemIds.current() - _itemsSold.current() */\n      swap1\n      pop\n        /* \"contracts/Marketplace2/Marketplace.sol\":20417:20434  uint currentIndex */\n      0x00\n        /* \"contracts/Marketplace2/Marketplace.sol\":20445:20470  MarketItem[] memory items */\n      dup1\n        /* \"contracts/Marketplace2/Marketplace.sol\":20490:20505  unsoldItemCount */\n      dup3\n        /* \"contracts/Marketplace2/Marketplace.sol\":20473:20506  new MarketItem[](unsoldItemCount) */\n      0xffffffffffffffff\n      dup2\n      gt\n      iszero\n      tag_116\n      jumpi\n      tag_117\n      tag_118\n      jump\t// in\n    tag_117:\n    tag_116:\n      mload(0x40)\n      swap1\n      dup1\n      dup3\n      mstore\n      dup1\n      0x20\n      mul\n      0x20\n      add\n      dup3\n      add\n      0x40\n      mstore\n      dup1\n      iszero\n      tag_119\n      jumpi\n      dup2\n      0x20\n      add\n    tag_120:\n      tag_121\n      tag_122\n      jump\t// in\n    tag_121:\n      dup2\n      mstore\n      0x20\n      add\n      swap1\n      0x01\n      swap1\n      sub\n      swap1\n      dup2\n      tag_120\n      jumpi\n      swap1\n      pop\n    tag_119:\n      pop\n        /* \"contracts/Marketplace2/Marketplace.sol\":20445:20506  MarketItem[] memory items = new MarketItem[](unsoldItemCount) */\n      swap1\n      pop\n        /* \"contracts/Marketplace2/Marketplace.sol\":20517:20523  uint i */\n      0x00\n        /* \"contracts/Marketplace2/Marketplace.sol\":20512:20812  for (uint i = 0; i < itemCount; i++) {... */\n    tag_123:\n        /* \"contracts/Marketplace2/Marketplace.sol\":20533:20542  itemCount */\n      dup5\n        /* \"contracts/Marketplace2/Marketplace.sol\":20529:20530  i */\n      dup2\n        /* \"contracts/Marketplace2/Marketplace.sol\":20529:20542  i < itemCount */\n      lt\n        /* \"contracts/Marketplace2/Marketplace.sol\":20512:20812  for (uint i = 0; i < itemCount; i++) {... */\n      iszero\n      tag_124\n      jumpi\n        /* \"contracts/Marketplace2/Marketplace.sol\":20600:20601  0 */\n      0x00\n        /* \"contracts/Marketplace2/Marketplace.sol\":20561:20602  idToMarketItem[i + 1].owner == address(0) */\n      0xffffffffffffffffffffffffffffffffffffffff\n      and\n        /* \"contracts/Marketplace2/Marketplace.sol\":20561:20575  idToMarketItem */\n      0x07\n        /* \"contracts/Marketplace2/Marketplace.sol\":20561:20582  idToMarketItem[i + 1] */\n      0x00\n        /* \"contracts/Marketplace2/Marketplace.sol\":20580:20581  1 */\n      0x01\n        /* \"contracts/Marketplace2/Marketplace.sol\":20576:20577  i */\n      dup5\n        /* \"contracts/Marketplace2/Marketplace.sol\":20576:20581  i + 1 */\n      tag_126\n      swap2\n      swap1\n      tag_127\n      jump\t// in\n    tag_126:\n        /* \"contracts/Marketplace2/Marketplace.sol\":20561:20582  idToMarketItem[i + 1] */\n      dup2\n      mstore\n      0x20\n      add\n      swap1\n      dup2\n      mstore\n      0x20\n      add\n      0x00\n      keccak256\n        /* \"contracts/Marketplace2/Marketplace.sol\":20561:20588  idToMarketItem[i + 1].owner */\n      0x04\n      add\n      0x00\n      swap1\n      sload\n      swap1\n      0x0100\n      exp\n      swap1\n      div\n      0xffffffffffffffffffffffffffffffffffffffff\n      and\n        /* \"contracts/Marketplace2/Marketplace.sol\":20561:20602  idToMarketItem[i + 1].owner == address(0) */\n      0xffffffffffffffffffffffffffffffffffffffff\n      and\n      sub\n        /* \"contracts/Marketplace2/Marketplace.sol\":20557:20806  if (idToMarketItem[i + 1].owner == address(0)) {... */\n      tag_128\n      jumpi\n        /* \"contracts/Marketplace2/Marketplace.sol\":20614:20628  uint currentId */\n      0x00\n        /* \"contracts/Marketplace2/Marketplace.sol\":20631:20645  idToMarketItem */\n      0x07\n        /* \"contracts/Marketplace2/Marketplace.sol\":20631:20652  idToMarketItem[i + 1] */\n      0x00\n        /* \"contracts/Marketplace2/Marketplace.sol\":20650:20651  1 */\n      0x01\n        /* \"contracts/Marketplace2/Marketplace.sol\":20646:20647  i */\n      dup5\n        /* \"contracts/Marketplace2/Marketplace.sol\":20646:20651  i + 1 */\n      tag_129\n      swap2\n      swap1\n      tag_127\n      jump\t// in\n    tag_129:\n        /* \"contracts/Marketplace2/Marketplace.sol\":20631:20652  idToMarketItem[i + 1] */\n      dup2\n      mstore\n      0x20\n      add\n      swap1\n      dup2\n      mstore\n      0x20\n      add\n      0x00\n      keccak256\n        /* \"contracts/Marketplace2/Marketplace.sol\":20631:20659  idToMarketItem[i + 1].itemId */\n      0x00\n      add\n      sload\n        /* \"contracts/Marketplace2/Marketplace.sol\":20614:20659  uint currentId = idToMarketItem[i + 1].itemId */\n      swap1\n      pop\n        /* \"contracts/Marketplace2/Marketplace.sol\":20669:20699  MarketItem storage currentItem */\n      0x00\n        /* \"contracts/Marketplace2/Marketplace.sol\":20702:20716  idToMarketItem */\n      0x07\n        /* \"contracts/Marketplace2/Marketplace.sol\":20702:20727  idToMarketItem[currentId] */\n      0x00\n        /* \"contracts/Marketplace2/Marketplace.sol\":20717:20726  currentId */\n      dup4\n        /* \"contracts/Marketplace2/Marketplace.sol\":20702:20727  idToMarketItem[currentId] */\n      dup2\n      mstore\n      0x20\n      add\n      swap1\n      dup2\n      mstore\n      0x20\n      add\n      0x00\n      keccak256\n        /* \"contracts/Marketplace2/Marketplace.sol\":20669:20727  MarketItem storage currentItem = idToMarketItem[currentId] */\n      swap1\n      pop\n        /* \"contracts/Marketplace2/Marketplace.sol\":20759:20770  currentItem */\n      dup1\n        /* \"contracts/Marketplace2/Marketplace.sol\":20737:20770  items[currentIndex] = currentItem */\n      mload(0x40)\n      dup1\n      0xc0\n      add\n      0x40\n      mstore\n      swap1\n      dup2\n      0x00\n      dup3\n      add\n      sload\n      dup2\n      mstore\n      0x20\n      add\n      0x01\n      dup3\n      add\n      0x00\n      swap1\n      sload\n      swap1\n      0x0100\n      exp\n      swap1\n      div\n      0xffffffffffffffffffffffffffffffffffffffff\n      and\n      0xffffffffffffffffffffffffffffffffffffffff\n      and\n      0xffffffffffffffffffffffffffffffffffffffff\n      and\n      dup2\n      mstore\n      0x20\n      add\n      0x02\n      dup3\n      add\n      sload\n      dup2\n      mstore\n      0x20\n      add\n      0x03\n      dup3\n      add\n      0x00\n      swap1\n      sload\n      swap1\n      0x0100\n      exp\n      swap1\n      div\n      0xffffffffffffffffffffffffffffffffffffffff\n      and\n      0xffffffffffffffffffffffffffffffffffffffff\n      and\n      0xffffffffffffffffffffffffffffffffffffffff\n      and\n      dup2\n      mstore\n      0x20\n      add\n      0x04\n      dup3\n      add\n      0x00\n      swap1\n      sload\n      swap1\n      0x0100\n      exp\n      swap1\n      div\n      0xffffffffffffffffffffffffffffffffffffffff\n      and\n      0xffffffffffffffffffffffffffffffffffffffff\n      and\n      0xffffffffffffffffffffffffffffffffffffffff\n      and\n      dup2\n      mstore\n      0x20\n      add\n      0x05\n      dup3\n      add\n      sload\n      dup2\n      mstore\n      pop\n      pop\n        /* \"contracts/Marketplace2/Marketplace.sol\":20737:20742  items */\n      dup5\n        /* \"contracts/Marketplace2/Marketplace.sol\":20743:20755  currentIndex */\n      dup7\n        /* \"contracts/Marketplace2/Marketplace.sol\":20737:20756  items[currentIndex] */\n      dup2\n      mload\n      dup2\n      lt\n      tag_130\n      jumpi\n      tag_131\n      tag_132\n      jump\t// in\n    tag_131:\n    tag_130:\n      0x20\n      mul\n      0x20\n      add\n      add\n        /* \"contracts/Marketplace2/Marketplace.sol\":20737:20770  items[currentIndex] = currentItem */\n      dup2\n      swap1\n      mstore\n      pop\n        /* \"contracts/Marketplace2/Marketplace.sol\":20796:20797  1 */\n      0x01\n        /* \"contracts/Marketplace2/Marketplace.sol\":20780:20797  currentIndex += 1 */\n      dup6\n      tag_133\n      swap2\n      swap1\n      tag_127\n      jump\t// in\n    tag_133:\n      swap5\n      pop\n        /* \"contracts/Marketplace2/Marketplace.sol\":20604:20806  {... */\n      pop\n      pop\n        /* \"contracts/Marketplace2/Marketplace.sol\":20557:20806  if (idToMarketItem[i + 1].owner == address(0)) {... */\n    tag_128:\n        /* \"contracts/Marketplace2/Marketplace.sol\":20544:20547  i++ */\n      dup1\n      dup1\n      tag_134\n      swap1\n      tag_135\n      jump\t// in\n    tag_134:\n      swap2\n      pop\n      pop\n        /* \"contracts/Marketplace2/Marketplace.sol\":20512:20812  for (uint i = 0; i < itemCount; i++) {... */\n      jump(tag_123)\n    tag_124:\n      pop\n        /* \"contracts/Marketplace2/Marketplace.sol\":20828:20833  items */\n      dup1\n        /* \"contracts/Marketplace2/Marketplace.sol\":20821:20833  return items */\n      swap5\n      pop\n      pop\n      pop\n      pop\n      pop\n        /* \"contracts/Marketplace2/Marketplace.sol\":20230:20838  function fetchMarketItems() public view returns (MarketItem[] memory) {... */\n      swap1\n      jump\t// out\n        /* \"contracts/Marketplace2/Marketplace.sol\":16146:16168  IERC20 public sqfToken */\n    tag_30:\n      0x03\n      0x00\n      swap1\n      sload\n      swap1\n      0x0100\n      exp\n      swap1\n      div\n      0xffffffffffffffffffffffffffffffffffffffff\n      and\n      dup2\n      jump\t// out\n        /* \"contracts/Marketplace2/Marketplace.sol\":20842:21545  function fetchMyNFTs() public view returns (MarketItem[] memory) {... */\n    tag_35:\n        /* \"contracts/Marketplace2/Marketplace.sol\":20886:20905  MarketItem[] memory */\n      0x60\n        /* \"contracts/Marketplace2/Marketplace.sol\":20913:20932  uint totalItemCount */\n      0x00\n        /* \"contracts/Marketplace2/Marketplace.sol\":20935:20953  _itemIds.current() */\n      tag_137\n        /* \"contracts/Marketplace2/Marketplace.sol\":20935:20943  _itemIds */\n      0x05\n        /* \"contracts/Marketplace2/Marketplace.sol\":20935:20951  _itemIds.current */\n      tag_111\n        /* \"contracts/Marketplace2/Marketplace.sol\":20935:20953  _itemIds.current() */\n      jump\t// in\n    tag_137:\n        /* \"contracts/Marketplace2/Marketplace.sol\":20913:20953  uint totalItemCount = _itemIds.current() */\n      swap1\n      pop\n        /* \"contracts/Marketplace2/Marketplace.sol\":20959:20973  uint itemCount */\n      0x00\n        /* \"contracts/Marketplace2/Marketplace.sol\":20983:21000  uint currentIndex */\n      dup1\n        /* \"contracts/Marketplace2/Marketplace.sol\":21016:21022  uint i */\n      0x00\n        /* \"contracts/Marketplace2/Marketplace.sol\":21011:21147  for (uint i = 0; i < totalItemCount; i++) {... */\n    tag_138:\n        /* \"contracts/Marketplace2/Marketplace.sol\":21032:21046  totalItemCount */\n      dup4\n        /* \"contracts/Marketplace2/Marketplace.sol\":21028:21029  i */\n      dup2\n        /* \"contracts/Marketplace2/Marketplace.sol\":21028:21046  i < totalItemCount */\n      lt\n        /* \"contracts/Marketplace2/Marketplace.sol\":21011:21147  for (uint i = 0; i < totalItemCount; i++) {... */\n      iszero\n      tag_139\n      jumpi\n        /* \"contracts/Marketplace2/Marketplace.sol\":21096:21106  msg.sender */\n      caller\n        /* \"contracts/Marketplace2/Marketplace.sol\":21065:21106  idToMarketItem[i + 1].owner == msg.sender */\n      0xffffffffffffffffffffffffffffffffffffffff\n      and\n        /* \"contracts/Marketplace2/Marketplace.sol\":21065:21079  idToMarketItem */\n      0x07\n        /* \"contracts/Marketplace2/Marketplace.sol\":21065:21086  idToMarketItem[i + 1] */\n      0x00\n        /* \"contracts/Marketplace2/Marketplace.sol\":21084:21085  1 */\n      0x01\n        /* \"contracts/Marketplace2/Marketplace.sol\":21080:21081  i */\n      dup5\n        /* \"contracts/Marketplace2/Marketplace.sol\":21080:21085  i + 1 */\n      tag_141\n      swap2\n      swap1\n      tag_127\n      jump\t// in\n    tag_141:\n        /* \"contracts/Marketplace2/Marketplace.sol\":21065:21086  idToMarketItem[i + 1] */\n      dup2\n      mstore\n      0x20\n      add\n      swap1\n      dup2\n      mstore\n      0x20\n      add\n      0x00\n      keccak256\n        /* \"contracts/Marketplace2/Marketplace.sol\":21065:21092  idToMarketItem[i + 1].owner */\n      0x04\n      add\n      0x00\n      swap1\n      sload\n      swap1\n      0x0100\n      exp\n      swap1\n      div\n      0xffffffffffffffffffffffffffffffffffffffff\n      and\n        /* \"contracts/Marketplace2/Marketplace.sol\":21065:21106  idToMarketItem[i + 1].owner == msg.sender */\n      0xffffffffffffffffffffffffffffffffffffffff\n      and\n      sub\n        /* \"contracts/Marketplace2/Marketplace.sol\":21061:21141  if (idToMarketItem[i + 1].owner == msg.sender) {... */\n      tag_142\n      jumpi\n        /* \"contracts/Marketplace2/Marketplace.sol\":21131:21132  1 */\n      0x01\n        /* \"contracts/Marketplace2/Marketplace.sol\":21118:21132  itemCount += 1 */\n      dup4\n      tag_143\n      swap2\n      swap1\n      tag_127\n      jump\t// in\n    tag_143:\n      swap3\n      pop\n        /* \"contracts/Marketplace2/Marketplace.sol\":21061:21141  if (idToMarketItem[i + 1].owner == msg.sender) {... */\n    tag_142:\n        /* \"contracts/Marketplace2/Marketplace.sol\":21048:21051  i++ */\n      dup1\n      dup1\n      tag_144\n      swap1\n      tag_135\n      jump\t// in\n    tag_144:\n      swap2\n      pop\n      pop\n        /* \"contracts/Marketplace2/Marketplace.sol\":21011:21147  for (uint i = 0; i < totalItemCount; i++) {... */\n      jump(tag_138)\n    tag_139:\n      pop\n        /* \"contracts/Marketplace2/Marketplace.sol\":21153:21178  MarketItem[] memory items */\n      0x00\n        /* \"contracts/Marketplace2/Marketplace.sol\":21198:21207  itemCount */\n      dup3\n        /* \"contracts/Marketplace2/Marketplace.sol\":21181:21208  new MarketItem[](itemCount) */\n      0xffffffffffffffff\n      dup2\n      gt\n      iszero\n      tag_145\n      jumpi\n      tag_146\n      tag_118\n      jump\t// in\n    tag_146:\n    tag_145:\n      mload(0x40)\n      swap1\n      dup1\n      dup3\n      mstore\n      dup1\n      0x20\n      mul\n      0x20\n      add\n      dup3\n      add\n      0x40\n      mstore\n      dup1\n      iszero\n      tag_147\n      jumpi\n      dup2\n      0x20\n      add\n    tag_148:\n      tag_149\n      tag_122\n      jump\t// in\n    tag_149:\n      dup2\n      mstore\n      0x20\n      add\n      swap1\n      0x01\n      swap1\n      sub\n      swap1\n      dup2\n      tag_148\n      jumpi\n      swap1\n      pop\n    tag_147:\n      pop\n        /* \"contracts/Marketplace2/Marketplace.sol\":21153:21208  MarketItem[] memory items = new MarketItem[](itemCount) */\n      swap1\n      pop\n        /* \"contracts/Marketplace2/Marketplace.sol\":21219:21225  uint i */\n      0x00\n        /* \"contracts/Marketplace2/Marketplace.sol\":21214:21519  for (uint i = 0; i < totalItemCount; i++) {... */\n    tag_150:\n        /* \"contracts/Marketplace2/Marketplace.sol\":21235:21249  totalItemCount */\n      dup5\n        /* \"contracts/Marketplace2/Marketplace.sol\":21231:21232  i */\n      dup2\n        /* \"contracts/Marketplace2/Marketplace.sol\":21231:21249  i < totalItemCount */\n      lt\n        /* \"contracts/Marketplace2/Marketplace.sol\":21214:21519  for (uint i = 0; i < totalItemCount; i++) {... */\n      iszero\n      tag_151\n      jumpi\n        /* \"contracts/Marketplace2/Marketplace.sol\":21299:21309  msg.sender */\n      caller\n        /* \"contracts/Marketplace2/Marketplace.sol\":21268:21309  idToMarketItem[i + 1].owner == msg.sender */\n      0xffffffffffffffffffffffffffffffffffffffff\n      and\n        /* \"contracts/Marketplace2/Marketplace.sol\":21268:21282  idToMarketItem */\n      0x07\n        /* \"contracts/Marketplace2/Marketplace.sol\":21268:21289  idToMarketItem[i + 1] */\n      0x00\n        /* \"contracts/Marketplace2/Marketplace.sol\":21287:21288  1 */\n      0x01\n        /* \"contracts/Marketplace2/Marketplace.sol\":21283:21284  i */\n      dup5\n        /* \"contracts/Marketplace2/Marketplace.sol\":21283:21288  i + 1 */\n      tag_153\n      swap2\n      swap1\n      tag_127\n      jump\t// in\n    tag_153:\n        /* \"contracts/Marketplace2/Marketplace.sol\":21268:21289  idToMarketItem[i + 1] */\n      dup2\n      mstore\n      0x20\n      add\n      swap1\n      dup2\n      mstore\n      0x20\n      add\n      0x00\n      keccak256\n        /* \"contracts/Marketplace2/Marketplace.sol\":21268:21295  idToMarketItem[i + 1].owner */\n      0x04\n      add\n      0x00\n      swap1\n      sload\n      swap1\n      0x0100\n      exp\n      swap1\n      div\n      0xffffffffffffffffffffffffffffffffffffffff\n      and\n        /* \"contracts/Marketplace2/Marketplace.sol\":21268:21309  idToMarketItem[i + 1].owner == msg.sender */\n      0xffffffffffffffffffffffffffffffffffffffff\n      and\n      sub\n        /* \"contracts/Marketplace2/Marketplace.sol\":21264:21513  if (idToMarketItem[i + 1].owner == msg.sender) {... */\n      tag_154\n      jumpi\n        /* \"contracts/Marketplace2/Marketplace.sol\":21321:21335  uint currentId */\n      0x00\n        /* \"contracts/Marketplace2/Marketplace.sol\":21338:21352  idToMarketItem */\n      0x07\n        /* \"contracts/Marketplace2/Marketplace.sol\":21338:21359  idToMarketItem[i + 1] */\n      0x00\n        /* \"contracts/Marketplace2/Marketplace.sol\":21357:21358  1 */\n      0x01\n        /* \"contracts/Marketplace2/Marketplace.sol\":21353:21354  i */\n      dup5\n        /* \"contracts/Marketplace2/Marketplace.sol\":21353:21358  i + 1 */\n      tag_155\n      swap2\n      swap1\n      tag_127\n      jump\t// in\n    tag_155:\n        /* \"contracts/Marketplace2/Marketplace.sol\":21338:21359  idToMarketItem[i + 1] */\n      dup2\n      mstore\n      0x20\n      add\n      swap1\n      dup2\n      mstore\n      0x20\n      add\n      0x00\n      keccak256\n        /* \"contracts/Marketplace2/Marketplace.sol\":21338:21366  idToMarketItem[i + 1].itemId */\n      0x00\n      add\n      sload\n        /* \"contracts/Marketplace2/Marketplace.sol\":21321:21366  uint currentId = idToMarketItem[i + 1].itemId */\n      swap1\n      pop\n        /* \"contracts/Marketplace2/Marketplace.sol\":21376:21406  MarketItem storage currentItem */\n      0x00\n        /* \"contracts/Marketplace2/Marketplace.sol\":21409:21423  idToMarketItem */\n      0x07\n        /* \"contracts/Marketplace2/Marketplace.sol\":21409:21434  idToMarketItem[currentId] */\n      0x00\n        /* \"contracts/Marketplace2/Marketplace.sol\":21424:21433  currentId */\n      dup4\n        /* \"contracts/Marketplace2/Marketplace.sol\":21409:21434  idToMarketItem[currentId] */\n      dup2\n      mstore\n      0x20\n      add\n      swap1\n      dup2\n      mstore\n      0x20\n      add\n      0x00\n      keccak256\n        /* \"contracts/Marketplace2/Marketplace.sol\":21376:21434  MarketItem storage currentItem = idToMarketItem[currentId] */\n      swap1\n      pop\n        /* \"contracts/Marketplace2/Marketplace.sol\":21466:21477  currentItem */\n      dup1\n        /* \"contracts/Marketplace2/Marketplace.sol\":21444:21477  items[currentIndex] = currentItem */\n      mload(0x40)\n      dup1\n      0xc0\n      add\n      0x40\n      mstore\n      swap1\n      dup2\n      0x00\n      dup3\n      add\n      sload\n      dup2\n      mstore\n      0x20\n      add\n      0x01\n      dup3\n      add\n      0x00\n      swap1\n      sload\n      swap1\n      0x0100\n      exp\n      swap1\n      div\n      0xffffffffffffffffffffffffffffffffffffffff\n      and\n      0xffffffffffffffffffffffffffffffffffffffff\n      and\n      0xffffffffffffffffffffffffffffffffffffffff\n      and\n      dup2\n      mstore\n      0x20\n      add\n      0x02\n      dup3\n      add\n      sload\n      dup2\n      mstore\n      0x20\n      add\n      0x03\n      dup3\n      add\n      0x00\n      swap1\n      sload\n      swap1\n      0x0100\n      exp\n      swap1\n      div\n      0xffffffffffffffffffffffffffffffffffffffff\n      and\n      0xffffffffffffffffffffffffffffffffffffffff\n      and\n      0xffffffffffffffffffffffffffffffffffffffff\n      and\n      dup2\n      mstore\n      0x20\n      add\n      0x04\n      dup3\n      add\n      0x00\n      swap1\n      sload\n      swap1\n      0x0100\n      exp\n      swap1\n      div\n      0xffffffffffffffffffffffffffffffffffffffff\n      and\n      0xffffffffffffffffffffffffffffffffffffffff\n      and\n      0xffffffffffffffffffffffffffffffffffffffff\n      and\n      dup2\n      mstore\n      0x20\n      add\n      0x05\n      dup3\n      add\n      sload\n      dup2\n      mstore\n      pop\n      pop\n        /* \"contracts/Marketplace2/Marketplace.sol\":21444:21449  items */\n      dup5\n        /* \"contracts/Marketplace2/Marketplace.sol\":21450:21462  currentIndex */\n      dup7\n        /* \"contracts/Marketplace2/Marketplace.sol\":21444:21463  items[currentIndex] */\n      dup2\n      mload\n      dup2\n      lt\n      tag_156\n      jumpi\n      tag_157\n      tag_132\n      jump\t// in\n    tag_157:\n    tag_156:\n      0x20\n      mul\n      0x20\n      add\n      add\n        /* \"contracts/Marketplace2/Marketplace.sol\":21444:21477  items[currentIndex] = currentItem */\n      dup2\n      swap1\n      mstore\n      pop\n        /* \"contracts/Marketplace2/Marketplace.sol\":21503:21504  1 */\n      0x01\n        /* \"contracts/Marketplace2/Marketplace.sol\":21487:21504  currentIndex += 1 */\n      dup6\n      tag_158\n      swap2\n      swap1\n      tag_127\n      jump\t// in\n    tag_158:\n      swap5\n      pop\n        /* \"contracts/Marketplace2/Marketplace.sol\":21311:21513  {... */\n      pop\n      pop\n        /* \"contracts/Marketplace2/Marketplace.sol\":21264:21513  if (idToMarketItem[i + 1].owner == msg.sender) {... */\n    tag_154:\n        /* \"contracts/Marketplace2/Marketplace.sol\":21251:21254  i++ */\n      dup1\n      dup1\n      tag_159\n      swap1\n      tag_135\n      jump\t// in\n    tag_159:\n      swap2\n      pop\n      pop\n        /* \"contracts/Marketplace2/Marketplace.sol\":21214:21519  for (uint i = 0; i < totalItemCount; i++) {... */\n      jump(tag_150)\n    tag_151:\n      pop\n        /* \"contracts/Marketplace2/Marketplace.sol\":21535:21540  items */\n      dup1\n        /* \"contracts/Marketplace2/Marketplace.sol\":21528:21540  return items */\n      swap5\n      pop\n      pop\n      pop\n      pop\n      pop\n        /* \"contracts/Marketplace2/Marketplace.sol\":20842:21545  function fetchMyNFTs() public view returns (MarketItem[] memory) {... */\n      swap1\n      jump\t// out\n        /* \"contracts/Marketplace2/Marketplace.sol\":20073:20226  function fetchMarketItem(uint itemId) public view returns (MarketItem memory) {... */\n    tag_41:\n        /* \"contracts/Marketplace2/Marketplace.sol\":20132:20149  MarketItem memory */\n      tag_160\n      tag_122\n      jump\t// in\n    tag_160:\n        /* \"contracts/Marketplace2/Marketplace.sol\":20157:20179  MarketItem memory item */\n      0x00\n        /* \"contracts/Marketplace2/Marketplace.sol\":20182:20196  idToMarketItem */\n      0x07\n        /* \"contracts/Marketplace2/Marketplace.sol\":20182:20204  idToMarketItem[itemId] */\n      0x00\n        /* \"contracts/Marketplace2/Marketplace.sol\":20197:20203  itemId */\n      dup5\n        /* \"contracts/Marketplace2/Marketplace.sol\":20182:20204  idToMarketItem[itemId] */\n      dup2\n      mstore\n      0x20\n      add\n      swap1\n      dup2\n      mstore\n      0x20\n      add\n      0x00\n      keccak256\n        /* \"contracts/Marketplace2/Marketplace.sol\":20157:20204  MarketItem memory item = idToMarketItem[itemId] */\n      mload(0x40)\n      dup1\n      0xc0\n      add\n      0x40\n      mstore\n      swap1\n      dup2\n      0x00\n      dup3\n      add\n      sload\n      dup2\n      mstore\n      0x20\n      add\n      0x01\n      dup3\n      add\n      0x00\n      swap1\n      sload\n      swap1\n      0x0100\n      exp\n      swap1\n      div\n      0xffffffffffffffffffffffffffffffffffffffff\n      and\n      0xffffffffffffffffffffffffffffffffffffffff\n      and\n      0xffffffffffffffffffffffffffffffffffffffff\n      and\n      dup2\n      mstore\n      0x20\n      add\n      0x02\n      dup3\n      add\n      sload\n      dup2\n      mstore\n      0x20\n      add\n      0x03\n      dup3\n      add\n      0x00\n      swap1\n      sload\n      swap1\n      0x0100\n      exp\n      swap1\n      div\n      0xffffffffffffffffffffffffffffffffffffffff\n      and\n      0xffffffffffffffffffffffffffffffffffffffff\n      and\n      0xffffffffffffffffffffffffffffffffffffffff\n      and\n      dup2\n      mstore\n      0x20\n      add\n      0x04\n      dup3\n      add\n      0x00\n      swap1\n      sload\n      swap1\n      0x0100\n      exp\n      swap1\n      div\n      0xffffffffffffffffffffffffffffffffffffffff\n      and\n      0xffffffffffffffffffffffffffffffffffffffff\n      and\n      0xffffffffffffffffffffffffffffffffffffffff\n      and\n      dup2\n      mstore\n      0x20\n      add\n      0x05\n      dup3\n      add\n      sload\n      dup2\n      mstore\n      pop\n      pop\n      swap1\n      pop\n        /* \"contracts/Marketplace2/Marketplace.sol\":20217:20221  item */\n      dup1\n        /* \"contracts/Marketplace2/Marketplace.sol\":20210:20221  return item */\n      swap2\n      pop\n      pop\n        /* \"contracts/Marketplace2/Marketplace.sol\":20073:20226  function fetchMarketItem(uint itemId) public view returns (MarketItem memory) {... */\n      swap2\n      swap1\n      pop\n      jump\t// out\n        /* \"contracts/Marketplace2/Marketplace.sol\":15771:15831  bytes4 public constant ERC721_Interface = bytes4(0x80ac58cd) */\n    tag_46:\n        /* \"contracts/Marketplace2/Marketplace.sol\":15820:15830  0x80ac58cd */\n      0x80ac58cd\n        /* \"contracts/Marketplace2/Marketplace.sol\":15813:15831  bytes4(0x80ac58cd) */\n      0xe0\n      shl\n        /* \"contracts/Marketplace2/Marketplace.sol\":15771:15831  bytes4 public constant ERC721_Interface = bytes4(0x80ac58cd) */\n      dup2\n      jump\t// out\n        /* \"contracts/Marketplace2/Marketplace.sol\":16045:16140  mapping(address => mapping(uint256 => mapping(address => ItemOffer)))... */\n    tag_53:\n      mstore(0x20, 0x02)\n      dup3\n      0x00\n      mstore\n      mstore(0x20, keccak256(0x00, 0x40))\n      dup2\n      0x00\n      mstore\n      mstore(0x20, keccak256(0x00, 0x40))\n      dup1\n      0x00\n      mstore\n      keccak256(0x00, 0x40)\n      0x00\n      swap3\n      pop\n      swap3\n      pop\n      pop\n      pop\n      dup1\n      0x00\n      add\n      sload\n      swap1\n      dup1\n      0x01\n      add\n      sload\n      swap1\n      pop\n      dup3\n      jump\t// out\n        /* \"contracts/Marketplace2/Marketplace.sol\":17649:18144  function createMarketItem(... */\n    tag_59:\n        /* \"contracts/Marketplace2/Marketplace.sol\":14167:14168  2 */\n      0x02\n        /* \"contracts/Marketplace2/Marketplace.sol\":14748:14755  _status */\n      sload(0x00)\n        /* \"contracts/Marketplace2/Marketplace.sol\":14748:14767  _status != _ENTERED */\n      sub\n        /* \"contracts/Marketplace2/Marketplace.sol\":14740:14803  require(_status != _ENTERED, \"ReentrancyGuard: reentrant call\") */\n      tag_163\n      jumpi\n      mload(0x40)\n      0x08c379a000000000000000000000000000000000000000000000000000000000\n      dup2\n      mstore\n      0x04\n      add\n      tag_164\n      swap1\n      tag_165\n      jump\t// in\n    tag_164:\n      mload(0x40)\n      dup1\n      swap2\n      sub\n      swap1\n      revert\n    tag_163:\n        /* \"contracts/Marketplace2/Marketplace.sol\":14167:14168  2 */\n      0x02\n        /* \"contracts/Marketplace2/Marketplace.sol\":14878:14885  _status */\n      0x00\n        /* \"contracts/Marketplace2/Marketplace.sol\":14878:14896  _status = _ENTERED */\n      dup2\n      swap1\n      sstore\n      pop\n        /* \"contracts/Marketplace2/Marketplace.sol\":17794:17795  0 */\n      0x00\n        /* \"contracts/Marketplace2/Marketplace.sol\":17786:17791  price */\n      dup2\n        /* \"contracts/Marketplace2/Marketplace.sol\":17786:17795  price > 0 */\n      gt\n        /* \"contracts/Marketplace2/Marketplace.sol\":17778:17828  require(price > 0, \"Price must be at least 1 wei\") */\n      tag_167\n      jumpi\n      mload(0x40)\n      0x08c379a000000000000000000000000000000000000000000000000000000000\n      dup2\n      mstore\n      0x04\n      add\n      tag_168\n      swap1\n      tag_169\n      jump\t// in\n    tag_168:\n      mload(0x40)\n      dup1\n      swap2\n      sub\n      swap1\n      revert\n    tag_167:\n        /* \"contracts/Marketplace2/Marketplace.sol\":17835:17855  _itemIds.increment() */\n      tag_170\n        /* \"contracts/Marketplace2/Marketplace.sol\":17835:17843  _itemIds */\n      0x05\n        /* \"contracts/Marketplace2/Marketplace.sol\":17835:17853  _itemIds.increment */\n      tag_171\n        /* \"contracts/Marketplace2/Marketplace.sol\":17835:17855  _itemIds.increment() */\n      jump\t// in\n    tag_170:\n        /* \"contracts/Marketplace2/Marketplace.sol\":17861:17875  uint256 itemId */\n      0x00\n        /* \"contracts/Marketplace2/Marketplace.sol\":17878:17896  _itemIds.current() */\n      tag_172\n        /* \"contracts/Marketplace2/Marketplace.sol\":17878:17886  _itemIds */\n      0x05\n        /* \"contracts/Marketplace2/Marketplace.sol\":17878:17894  _itemIds.current */\n      tag_111\n        /* \"contracts/Marketplace2/Marketplace.sol\":17878:17896  _itemIds.current() */\n      jump\t// in\n    tag_172:\n        /* \"contracts/Marketplace2/Marketplace.sol\":17861:17896  uint256 itemId = _itemIds.current() */\n      swap1\n      pop\n        /* \"contracts/Marketplace2/Marketplace.sol\":17931:18062  MarketItem(... */\n      mload(0x40)\n      dup1\n      0xc0\n      add\n      0x40\n      mstore\n      dup1\n        /* \"contracts/Marketplace2/Marketplace.sol\":17949:17955  itemId */\n      dup3\n        /* \"contracts/Marketplace2/Marketplace.sol\":17931:18062  MarketItem(... */\n      dup2\n      mstore\n      0x20\n      add\n        /* \"contracts/Marketplace2/Marketplace.sol\":17963:17974  nftContract */\n      dup6\n        /* \"contracts/Marketplace2/Marketplace.sol\":17931:18062  MarketItem(... */\n      0xffffffffffffffffffffffffffffffffffffffff\n      and\n      dup2\n      mstore\n      0x20\n      add\n        /* \"contracts/Marketplace2/Marketplace.sol\":17982:17989  tokenId */\n      dup5\n        /* \"contracts/Marketplace2/Marketplace.sol\":17931:18062  MarketItem(... */\n      dup2\n      mstore\n      0x20\n      add\n        /* \"contracts/Marketplace2/Marketplace.sol\":18005:18015  msg.sender */\n      caller\n        /* \"contracts/Marketplace2/Marketplace.sol\":17931:18062  MarketItem(... */\n      0xffffffffffffffffffffffffffffffffffffffff\n      and\n      dup2\n      mstore\n      0x20\n      add\n        /* \"contracts/Marketplace2/Marketplace.sol\":18040:18041  0 */\n      0x00\n        /* \"contracts/Marketplace2/Marketplace.sol\":17931:18062  MarketItem(... */\n      0xffffffffffffffffffffffffffffffffffffffff\n      and\n      dup2\n      mstore\n      0x20\n      add\n        /* \"contracts/Marketplace2/Marketplace.sol\":18051:18056  price */\n      dup4\n        /* \"contracts/Marketplace2/Marketplace.sol\":17931:18062  MarketItem(... */\n      dup2\n      mstore\n      pop\n        /* \"contracts/Marketplace2/Marketplace.sol\":17905:17919  idToMarketItem */\n      0x07\n        /* \"contracts/Marketplace2/Marketplace.sol\":17905:17927  idToMarketItem[itemId] */\n      0x00\n        /* \"contracts/Marketplace2/Marketplace.sol\":17920:17926  itemId */\n      dup4\n        /* \"contracts/Marketplace2/Marketplace.sol\":17905:17927  idToMarketItem[itemId] */\n      dup2\n      mstore\n      0x20\n      add\n      swap1\n      dup2\n      mstore\n      0x20\n      add\n      0x00\n      keccak256\n        /* \"contracts/Marketplace2/Marketplace.sol\":17905:18062  idToMarketItem[itemId] =  MarketItem(... */\n      0x00\n      dup3\n      add\n      mload\n      dup2\n      0x00\n      add\n      sstore\n      0x20\n      dup3\n      add\n      mload\n      dup2\n      0x01\n      add\n      exp(0x0100, 0x00)\n      dup2\n      sload\n      dup2\n      0xffffffffffffffffffffffffffffffffffffffff\n      mul\n      not\n      and\n      swap1\n      dup4\n      0xffffffffffffffffffffffffffffffffffffffff\n      and\n      mul\n      or\n      swap1\n      sstore\n      pop\n      0x40\n      dup3\n      add\n      mload\n      dup2\n      0x02\n      add\n      sstore\n      0x60\n      dup3\n      add\n      mload\n      dup2\n      0x03\n      add\n      exp(0x0100, 0x00)\n      dup2\n      sload\n      dup2\n      0xffffffffffffffffffffffffffffffffffffffff\n      mul\n      not\n      and\n      swap1\n      dup4\n      0xffffffffffffffffffffffffffffffffffffffff\n      and\n      mul\n      or\n      swap1\n      sstore\n      pop\n      0x80\n      dup3\n      add\n      mload\n      dup2\n      0x04\n      add\n      exp(0x0100, 0x00)\n      dup2\n      sload\n      dup2\n      0xffffffffffffffffffffffffffffffffffffffff\n      mul\n      not\n      and\n      swap1\n      dup4\n      0xffffffffffffffffffffffffffffffffffffffff\n      and\n      mul\n      or\n      swap1\n      sstore\n      pop\n      0xa0\n      dup3\n      add\n      mload\n      dup2\n      0x05\n      add\n      sstore\n      swap1\n      pop\n      pop\n        /* \"contracts/Marketplace2/Marketplace.sol\":18077:18088  nftContract */\n      dup4\n        /* \"contracts/Marketplace2/Marketplace.sol\":18069:18102  IERC721(nftContract).transferFrom */\n      0xffffffffffffffffffffffffffffffffffffffff\n      and\n      0x23b872dd\n        /* \"contracts/Marketplace2/Marketplace.sol\":18103:18113  msg.sender */\n      caller\n        /* \"contracts/Marketplace2/Marketplace.sol\":18123:18127  this */\n      address\n        /* \"contracts/Marketplace2/Marketplace.sol\":18130:18137  tokenId */\n      dup7\n        /* \"contracts/Marketplace2/Marketplace.sol\":18069:18138  IERC721(nftContract).transferFrom(msg.sender, address(this), tokenId) */\n      mload(0x40)\n      dup5\n      0xffffffff\n      and\n      0xe0\n      shl\n      dup2\n      mstore\n      0x04\n      add\n      tag_173\n      swap4\n      swap3\n      swap2\n      swap1\n      tag_174\n      jump\t// in\n    tag_173:\n      0x00\n      mload(0x40)\n      dup1\n      dup4\n      sub\n      dup2\n      0x00\n      dup8\n      dup1\n      extcodesize\n      iszero\n      dup1\n      iszero\n      tag_175\n      jumpi\n      0x00\n      dup1\n      revert\n    tag_175:\n      pop\n      gas\n      call\n      iszero\n      dup1\n      iszero\n      tag_177\n      jumpi\n      returndatasize\n      0x00\n      dup1\n      returndatacopy\n      revert(0x00, returndatasize)\n    tag_177:\n      pop\n      pop\n      pop\n      pop\n        /* \"contracts/Marketplace2/Marketplace.sol\":17772:18144  {... */\n      pop\n        /* \"contracts/Marketplace2/Marketplace.sol\":14124:14125  1 */\n      0x01\n        /* \"contracts/Marketplace2/Marketplace.sol\":15051:15058  _status */\n      0x00\n        /* \"contracts/Marketplace2/Marketplace.sol\":15051:15073  _status = _NOT_ENTERED */\n      dup2\n      swap1\n      sstore\n      pop\n        /* \"contracts/Marketplace2/Marketplace.sol\":17649:18144  function createMarketItem(... */\n      pop\n      pop\n      pop\n      jump\t// out\n        /* \"contracts/Marketplace2/Marketplace.sol\":15909:15966  mapping(address => mapping(uint256 => Item)) public items */\n    tag_64:\n      mstore(0x20, 0x01)\n      dup2\n      0x00\n      mstore\n      mstore(0x20, keccak256(0x00, 0x40))\n      dup1\n      0x00\n      mstore\n      keccak256(0x00, 0x40)\n      0x00\n      swap2\n      pop\n      swap2\n      pop\n      pop\n      dup1\n      0x00\n      add\n      sload\n      swap1\n      dup1\n      0x01\n      add\n      0x00\n      swap1\n      sload\n      swap1\n      0x0100\n      exp\n      swap1\n      div\n      0xffffffffffffffffffffffffffffffffffffffff\n      and\n      swap1\n      dup1\n      0x02\n      add\n      0x00\n      swap1\n      sload\n      swap1\n      0x0100\n      exp\n      swap1\n      div\n      0xffffffffffffffffffffffffffffffffffffffff\n      and\n      swap1\n      dup1\n      0x03\n      add\n      sload\n      swap1\n      dup1\n      0x04\n      add\n      sload\n      swap1\n      dup1\n      0x05\n      add\n      0x00\n      swap1\n      sload\n      swap1\n      0x0100\n      exp\n      swap1\n      div\n      0xff\n      and\n      swap1\n      pop\n      dup7\n      jump\t// out\n        /* \"contracts/Marketplace2/Marketplace.sol\":18148:19541  function sellItem(... */\n    tag_70:\n        /* \"contracts/Marketplace2/Marketplace.sol\":18278:18279  0 */\n      0x00\n        /* \"contracts/Marketplace2/Marketplace.sol\":18270:18275  price */\n      dup2\n        /* \"contracts/Marketplace2/Marketplace.sol\":18270:18279  price > 0 */\n      gt\n        /* \"contracts/Marketplace2/Marketplace.sol\":18262:18312  require(price > 0, \"Price must be at least 1 wei\") */\n      tag_179\n      jumpi\n      mload(0x40)\n      0x08c379a000000000000000000000000000000000000000000000000000000000\n      dup2\n      mstore\n      0x04\n      add\n      tag_180\n      swap1\n      tag_169\n      jump\t// in\n    tag_180:\n      mload(0x40)\n      dup1\n      swap2\n      sub\n      swap1\n      revert\n    tag_179:\n        /* \"contracts/Marketplace2/Marketplace.sol\":18319:18345  _requireERC721(nftAddress) */\n      tag_181\n        /* \"contracts/Marketplace2/Marketplace.sol\":18334:18344  nftAddress */\n      dup4\n        /* \"contracts/Marketplace2/Marketplace.sol\":18319:18333  _requireERC721 */\n      tag_182\n        /* \"contracts/Marketplace2/Marketplace.sol\":18319:18345  _requireERC721(nftAddress) */\n      jump\t// in\n    tag_181:\n        /* \"contracts/Marketplace2/Marketplace.sol\":18352:18366  address seller */\n      0x00\n        /* \"contracts/Marketplace2/Marketplace.sol\":18369:18379  msg.sender */\n      caller\n        /* \"contracts/Marketplace2/Marketplace.sol\":18352:18379  address seller = msg.sender */\n      swap1\n      pop\n        /* \"contracts/Marketplace2/Marketplace.sol\":18386:18406  _itemIds.increment() */\n      tag_183\n        /* \"contracts/Marketplace2/Marketplace.sol\":18386:18394  _itemIds */\n      0x05\n        /* \"contracts/Marketplace2/Marketplace.sol\":18386:18404  _itemIds.increment */\n      tag_171\n        /* \"contracts/Marketplace2/Marketplace.sol\":18386:18406  _itemIds.increment() */\n      jump\t// in\n    tag_183:\n        /* \"contracts/Marketplace2/Marketplace.sol\":18413:18432  IERC721 nftRegistry */\n      0x00\n        /* \"contracts/Marketplace2/Marketplace.sol\":18443:18453  nftAddress */\n      dup5\n        /* \"contracts/Marketplace2/Marketplace.sol\":18413:18454  IERC721 nftRegistry = IERC721(nftAddress) */\n      swap1\n      pop\n        /* \"contracts/Marketplace2/Marketplace.sol\":18461:18475  uint256 itemId */\n      0x00\n        /* \"contracts/Marketplace2/Marketplace.sol\":18478:18496  _itemIds.current() */\n      tag_184\n        /* \"contracts/Marketplace2/Marketplace.sol\":18478:18486  _itemIds */\n      0x05\n        /* \"contracts/Marketplace2/Marketplace.sol\":18478:18494  _itemIds.current */\n      tag_111\n        /* \"contracts/Marketplace2/Marketplace.sol\":18478:18496  _itemIds.current() */\n      jump\t// in\n    tag_184:\n        /* \"contracts/Marketplace2/Marketplace.sol\":18461:18496  uint256 itemId = _itemIds.current() */\n      swap1\n      pop\n        /* \"contracts/Marketplace2/Marketplace.sol\":18556:18562  seller */\n      dup3\n        /* \"contracts/Marketplace2/Marketplace.sol\":18524:18562  nftRegistry.ownerOf(assetId) == seller */\n      0xffffffffffffffffffffffffffffffffffffffff\n      and\n        /* \"contracts/Marketplace2/Marketplace.sol\":18524:18535  nftRegistry */\n      dup3\n        /* \"contracts/Marketplace2/Marketplace.sol\":18524:18543  nftRegistry.ownerOf */\n      0xffffffffffffffffffffffffffffffffffffffff\n      and\n      0x6352211e\n        /* \"contracts/Marketplace2/Marketplace.sol\":18544:18551  assetId */\n      dup8\n        /* \"contracts/Marketplace2/Marketplace.sol\":18524:18552  nftRegistry.ownerOf(assetId) */\n      mload(0x40)\n      dup3\n      0xffffffff\n      and\n      0xe0\n      shl\n      dup2\n      mstore\n      0x04\n      add\n      tag_185\n      swap2\n      swap1\n      tag_186\n      jump\t// in\n    tag_185:\n      0x20\n      mload(0x40)\n      dup1\n      dup4\n      sub\n      dup2\n      dup7\n      gas\n      staticcall\n      iszero\n      dup1\n      iszero\n      tag_188\n      jumpi\n      returndatasize\n      0x00\n      dup1\n      returndatacopy\n      revert(0x00, returndatasize)\n    tag_188:\n      pop\n      pop\n      pop\n      pop\n      mload(0x40)\n      returndatasize\n      not(0x1f)\n      0x1f\n      dup3\n      add\n      and\n      dup3\n      add\n      dup1\n      0x40\n      mstore\n      pop\n      dup2\n      add\n      swap1\n      tag_189\n      swap2\n      swap1\n      tag_190\n      jump\t// in\n    tag_189:\n        /* \"contracts/Marketplace2/Marketplace.sol\":18524:18562  nftRegistry.ownerOf(assetId) == seller */\n      0xffffffffffffffffffffffffffffffffffffffff\n      and\n      eq\n        /* \"contracts/Marketplace2/Marketplace.sol\":18503:18621  require(... */\n      tag_191\n      jumpi\n      mload(0x40)\n      0x08c379a000000000000000000000000000000000000000000000000000000000\n      dup2\n      mstore\n      0x04\n      add\n      tag_192\n      swap1\n      tag_193\n      jump\t// in\n    tag_192:\n      mload(0x40)\n      dup1\n      swap2\n      sub\n      swap1\n      revert\n    tag_191:\n        /* \"contracts/Marketplace2/Marketplace.sol\":18654:18784  MarketItem(... */\n      mload(0x40)\n      dup1\n      0xc0\n      add\n      0x40\n      mstore\n      dup1\n        /* \"contracts/Marketplace2/Marketplace.sol\":18672:18678  itemId */\n      dup3\n        /* \"contracts/Marketplace2/Marketplace.sol\":18654:18784  MarketItem(... */\n      dup2\n      mstore\n      0x20\n      add\n        /* \"contracts/Marketplace2/Marketplace.sol\":18686:18696  nftAddress */\n      dup8\n        /* \"contracts/Marketplace2/Marketplace.sol\":18654:18784  MarketItem(... */\n      0xffffffffffffffffffffffffffffffffffffffff\n      and\n      dup2\n      mstore\n      0x20\n      add\n        /* \"contracts/Marketplace2/Marketplace.sol\":18704:18711  assetId */\n      dup7\n        /* \"contracts/Marketplace2/Marketplace.sol\":18654:18784  MarketItem(... */\n      dup2\n      mstore\n      0x20\n      add\n        /* \"contracts/Marketplace2/Marketplace.sol\":18727:18737  msg.sender */\n      caller\n        /* \"contracts/Marketplace2/Marketplace.sol\":18654:18784  MarketItem(... */\n      0xffffffffffffffffffffffffffffffffffffffff\n      and\n      dup2\n      mstore\n      0x20\n      add\n        /* \"contracts/Marketplace2/Marketplace.sol\":18762:18763  0 */\n      0x00\n        /* \"contracts/Marketplace2/Marketplace.sol\":18654:18784  MarketItem(... */\n      0xffffffffffffffffffffffffffffffffffffffff\n      and\n      dup2\n      mstore\n      0x20\n      add\n        /* \"contracts/Marketplace2/Marketplace.sol\":18773:18778  price */\n      dup6\n        /* \"contracts/Marketplace2/Marketplace.sol\":18654:18784  MarketItem(... */\n      dup2\n      mstore\n      pop\n        /* \"contracts/Marketplace2/Marketplace.sol\":18628:18642  idToMarketItem */\n      0x07\n        /* \"contracts/Marketplace2/Marketplace.sol\":18628:18650  idToMarketItem[itemId] */\n      0x00\n        /* \"contracts/Marketplace2/Marketplace.sol\":18643:18649  itemId */\n      dup4\n        /* \"contracts/Marketplace2/Marketplace.sol\":18628:18650  idToMarketItem[itemId] */\n      dup2\n      mstore\n      0x20\n      add\n      swap1\n      dup2\n      mstore\n      0x20\n      add\n      0x00\n      keccak256\n        /* \"contracts/Marketplace2/Marketplace.sol\":18628:18784  idToMarketItem[itemId] =  MarketItem(... */\n      0x00\n      dup3\n      add\n      mload\n      dup2\n      0x00\n      add\n      sstore\n      0x20\n      dup3\n      add\n      mload\n      dup2\n      0x01\n      add\n      exp(0x0100, 0x00)\n      dup2\n      sload\n      dup2\n      0xffffffffffffffffffffffffffffffffffffffff\n      mul\n      not\n      and\n      swap1\n      dup4\n      0xffffffffffffffffffffffffffffffffffffffff\n      and\n      mul\n      or\n      swap1\n      sstore\n      pop\n      0x40\n      dup3\n      add\n      mload\n      dup2\n      0x02\n      add\n      sstore\n      0x60\n      dup3\n      add\n      mload\n      dup2\n      0x03\n      add\n      exp(0x0100, 0x00)\n      dup2\n      sload\n      dup2\n      0xffffffffffffffffffffffffffffffffffffffff\n      mul\n      not\n      and\n      swap1\n      dup4\n      0xffffffffffffffffffffffffffffffffffffffff\n      and\n      mul\n      or\n      swap1\n      sstore\n      pop\n      0x80\n      dup3\n      add\n      mload\n      dup2\n      0x04\n      add\n      exp(0x0100, 0x00)\n      dup2\n      sload\n      dup2\n      0xffffffffffffffffffffffffffffffffffffffff\n      mul\n      not\n      and\n      swap1\n      dup4\n      0xffffffffffffffffffffffffffffffffffffffff\n      and\n      mul\n      or\n      swap1\n      sstore\n      pop\n      0xa0\n      dup3\n      add\n      mload\n      dup2\n      0x05\n      add\n      sstore\n      swap1\n      pop\n      pop\n        /* \"contracts/Marketplace2/Marketplace.sol\":18794:18805  nftRegistry */\n      dup2\n        /* \"contracts/Marketplace2/Marketplace.sol\":18794:18818  nftRegistry.transferFrom */\n      0xffffffffffffffffffffffffffffffffffffffff\n      and\n      0x23b872dd\n        /* \"contracts/Marketplace2/Marketplace.sol\":18819:18825  seller */\n      dup5\n        /* \"contracts/Marketplace2/Marketplace.sol\":18835:18839  this */\n      address\n        /* \"contracts/Marketplace2/Marketplace.sol\":18842:18849  assetId */\n      dup9\n        /* \"contracts/Marketplace2/Marketplace.sol\":18794:18850  nftRegistry.transferFrom(seller, address(this), assetId) */\n      mload(0x40)\n      dup5\n      0xffffffff\n      and\n      0xe0\n      shl\n      dup2\n      mstore\n      0x04\n      add\n      tag_194\n      swap4\n      swap3\n      swap2\n      swap1\n      tag_174\n      jump\t// in\n    tag_194:\n      0x00\n      mload(0x40)\n      dup1\n      dup4\n      sub\n      dup2\n      0x00\n      dup8\n      dup1\n      extcodesize\n      iszero\n      dup1\n      iszero\n      tag_195\n      jumpi\n      0x00\n      dup1\n      revert\n    tag_195:\n      pop\n      gas\n      call\n      iszero\n      dup1\n      iszero\n      tag_197\n      jumpi\n      returndatasize\n      0x00\n      dup1\n      returndatacopy\n      revert(0x00, returndatasize)\n    tag_197:\n      pop\n      pop\n      pop\n      pop\n        /* \"contracts/Marketplace2/Marketplace.sol\":18860:18876  Item memory item */\n      0x00\n        /* \"contracts/Marketplace2/Marketplace.sol\":18879:18884  items */\n      0x01\n        /* \"contracts/Marketplace2/Marketplace.sol\":18879:18896  items[nftAddress] */\n      0x00\n        /* \"contracts/Marketplace2/Marketplace.sol\":18885:18895  nftAddress */\n      dup9\n        /* \"contracts/Marketplace2/Marketplace.sol\":18879:18896  items[nftAddress] */\n      0xffffffffffffffffffffffffffffffffffffffff\n      and\n      0xffffffffffffffffffffffffffffffffffffffff\n      and\n      dup2\n      mstore\n      0x20\n      add\n      swap1\n      dup2\n      mstore\n      0x20\n      add\n      0x00\n      keccak256\n        /* \"contracts/Marketplace2/Marketplace.sol\":18879:18905  items[nftAddress][assetId] */\n      0x00\n        /* \"contracts/Marketplace2/Marketplace.sol\":18897:18904  assetId */\n      dup8\n        /* \"contracts/Marketplace2/Marketplace.sol\":18879:18905  items[nftAddress][assetId] */\n      dup2\n      mstore\n      0x20\n      add\n      swap1\n      dup2\n      mstore\n      0x20\n      add\n      0x00\n      keccak256\n        /* \"contracts/Marketplace2/Marketplace.sol\":18860:18905  Item memory item = items[nftAddress][assetId] */\n      mload(0x40)\n      dup1\n      0xc0\n      add\n      0x40\n      mstore\n      swap1\n      dup2\n      0x00\n      dup3\n      add\n      sload\n      dup2\n      mstore\n      0x20\n      add\n      0x01\n      dup3\n      add\n      0x00\n      swap1\n      sload\n      swap1\n      0x0100\n      exp\n      swap1\n      div\n      0xffffffffffffffffffffffffffffffffffffffff\n      and\n      0xffffffffffffffffffffffffffffffffffffffff\n      and\n      0xffffffffffffffffffffffffffffffffffffffff\n      and\n      dup2\n      mstore\n      0x20\n      add\n      0x02\n      dup3\n      add\n      0x00\n      swap1\n      sload\n      swap1\n      0x0100\n      exp\n      swap1\n      div\n      0xffffffffffffffffffffffffffffffffffffffff\n      and\n      0xffffffffffffffffffffffffffffffffffffffff\n      and\n      0xffffffffffffffffffffffffffffffffffffffff\n      and\n      dup2\n      mstore\n      0x20\n      add\n      0x03\n      dup3\n      add\n      sload\n      dup2\n      mstore\n      0x20\n      add\n      0x04\n      dup3\n      add\n      sload\n      dup2\n      mstore\n      0x20\n      add\n      0x05\n      dup3\n      add\n      0x00\n      swap1\n      sload\n      swap1\n      0x0100\n      exp\n      swap1\n      div\n      0xff\n      and\n      0x04\n      dup2\n      gt\n      iszero\n      tag_198\n      jumpi\n      tag_199\n      tag_200\n      jump\t// in\n    tag_199:\n    tag_198:\n      0x04\n      dup2\n      gt\n      iszero\n      tag_201\n      jumpi\n      tag_202\n      tag_200\n      jump\t// in\n    tag_202:\n    tag_201:\n      dup2\n      mstore\n      pop\n      pop\n      swap1\n      pop\n        /* \"contracts/Marketplace2/Marketplace.sol\":18930:18931  0 */\n      0x00\n        /* \"contracts/Marketplace2/Marketplace.sol\":18919:18931  item.id == 0 */\n      dup1\n      shl\n        /* \"contracts/Marketplace2/Marketplace.sol\":18919:18923  item */\n      dup2\n        /* \"contracts/Marketplace2/Marketplace.sol\":18919:18926  item.id */\n      0x00\n      add\n      mload\n        /* \"contracts/Marketplace2/Marketplace.sol\":18919:18931  item.id == 0 */\n      sub\n        /* \"contracts/Marketplace2/Marketplace.sol\":18915:19273  if (item.id == 0) {... */\n      tag_203\n      jumpi\n        /* \"contracts/Marketplace2/Marketplace.sol\":18947:18997  _createItem(seller, assetId, nftAddress, price, 0) */\n      tag_204\n        /* \"contracts/Marketplace2/Marketplace.sol\":18959:18965  seller */\n      dup5\n        /* \"contracts/Marketplace2/Marketplace.sol\":18967:18974  assetId */\n      dup8\n        /* \"contracts/Marketplace2/Marketplace.sol\":18976:18986  nftAddress */\n      dup10\n        /* \"contracts/Marketplace2/Marketplace.sol\":18988:18993  price */\n      dup9\n        /* \"contracts/Marketplace2/Marketplace.sol\":18995:18996  0 */\n      0x00\n        /* \"contracts/Marketplace2/Marketplace.sol\":18947:18958  _createItem */\n      tag_205\n        /* \"contracts/Marketplace2/Marketplace.sol\":18947:18997  _createItem(seller, assetId, nftAddress, price, 0) */\n      jump\t// in\n    tag_204:\n        /* \"contracts/Marketplace2/Marketplace.sol\":18915:19273  if (item.id == 0) {... */\n      jump(tag_206)\n    tag_203:\n        /* \"contracts/Marketplace2/Marketplace.sol\":19051:19066  ItemStatus.LIST */\n      0x01\n        /* \"contracts/Marketplace2/Marketplace.sol\":19036:19066  item.status != ItemStatus.LIST */\n      0x04\n      dup2\n      gt\n      iszero\n      tag_207\n      jumpi\n      tag_208\n      tag_200\n      jump\t// in\n    tag_208:\n    tag_207:\n        /* \"contracts/Marketplace2/Marketplace.sol\":19036:19040  item */\n      dup2\n        /* \"contracts/Marketplace2/Marketplace.sol\":19036:19047  item.status */\n      0xa0\n      add\n      mload\n        /* \"contracts/Marketplace2/Marketplace.sol\":19036:19066  item.status != ItemStatus.LIST */\n      0x04\n      dup2\n      gt\n      iszero\n      tag_209\n      jumpi\n      tag_210\n      tag_200\n      jump\t// in\n    tag_210:\n    tag_209:\n      sub\n        /* \"contracts/Marketplace2/Marketplace.sol\":19028:19087  require(item.status != ItemStatus.LIST, \"Asset is listing\") */\n      tag_211\n      jumpi\n      mload(0x40)\n      0x08c379a000000000000000000000000000000000000000000000000000000000\n      dup2\n      mstore\n      0x04\n      add\n      tag_212\n      swap1\n      tag_213\n      jump\t// in\n    tag_212:\n      mload(0x40)\n      dup1\n      swap2\n      sub\n      swap1\n      revert\n    tag_211:\n        /* \"contracts/Marketplace2/Marketplace.sol\":19137:19152  ItemStatus.LIST */\n      0x01\n        /* \"contracts/Marketplace2/Marketplace.sol\":19101:19106  items */\n      dup1\n        /* \"contracts/Marketplace2/Marketplace.sol\":19101:19118  items[nftAddress] */\n      0x00\n        /* \"contracts/Marketplace2/Marketplace.sol\":19107:19117  nftAddress */\n      dup10\n        /* \"contracts/Marketplace2/Marketplace.sol\":19101:19118  items[nftAddress] */\n      0xffffffffffffffffffffffffffffffffffffffff\n      and\n      0xffffffffffffffffffffffffffffffffffffffff\n      and\n      dup2\n      mstore\n      0x20\n      add\n      swap1\n      dup2\n      mstore\n      0x20\n      add\n      0x00\n      keccak256\n        /* \"contracts/Marketplace2/Marketplace.sol\":19101:19127  items[nftAddress][assetId] */\n      0x00\n        /* \"contracts/Marketplace2/Marketplace.sol\":19119:19126  assetId */\n      dup9\n        /* \"contracts/Marketplace2/Marketplace.sol\":19101:19127  items[nftAddress][assetId] */\n      dup2\n      mstore\n      0x20\n      add\n      swap1\n      dup2\n      mstore\n      0x20\n      add\n      0x00\n      keccak256\n        /* \"contracts/Marketplace2/Marketplace.sol\":19101:19134  items[nftAddress][assetId].status */\n      0x05\n      add\n      0x00\n        /* \"contracts/Marketplace2/Marketplace.sol\":19101:19152  items[nftAddress][assetId].status = ItemStatus.LIST */\n      0x0100\n      exp\n      dup2\n      sload\n      dup2\n      0xff\n      mul\n      not\n      and\n      swap1\n      dup4\n      0x04\n      dup2\n      gt\n      iszero\n      tag_214\n      jumpi\n      tag_215\n      tag_200\n      jump\t// in\n    tag_215:\n    tag_214:\n      mul\n      or\n      swap1\n      sstore\n      pop\n        /* \"contracts/Marketplace2/Marketplace.sol\":19201:19206  price */\n      dup5\n        /* \"contracts/Marketplace2/Marketplace.sol\":19166:19171  items */\n      0x01\n        /* \"contracts/Marketplace2/Marketplace.sol\":19166:19183  items[nftAddress] */\n      0x00\n        /* \"contracts/Marketplace2/Marketplace.sol\":19172:19182  nftAddress */\n      dup10\n        /* \"contracts/Marketplace2/Marketplace.sol\":19166:19183  items[nftAddress] */\n      0xffffffffffffffffffffffffffffffffffffffff\n      and\n      0xffffffffffffffffffffffffffffffffffffffff\n      and\n      dup2\n      mstore\n      0x20\n      add\n      swap1\n      dup2\n      mstore\n      0x20\n      add\n      0x00\n      keccak256\n        /* \"contracts/Marketplace2/Marketplace.sol\":19166:19192  items[nftAddress][assetId] */\n      0x00\n        /* \"contracts/Marketplace2/Marketplace.sol\":19184:19191  assetId */\n      dup9\n        /* \"contracts/Marketplace2/Marketplace.sol\":19166:19192  items[nftAddress][assetId] */\n      dup2\n      mstore\n      0x20\n      add\n      swap1\n      dup2\n      mstore\n      0x20\n      add\n      0x00\n      keccak256\n        /* \"contracts/Marketplace2/Marketplace.sol\":19166:19198  items[nftAddress][assetId].price */\n      0x03\n      add\n        /* \"contracts/Marketplace2/Marketplace.sol\":19166:19206  items[nftAddress][assetId].price = price */\n      dup2\n      swap1\n      sstore\n      pop\n        /* \"contracts/Marketplace2/Marketplace.sol\":19256:19262  seller */\n      dup4\n        /* \"contracts/Marketplace2/Marketplace.sol\":19220:19225  items */\n      0x01\n        /* \"contracts/Marketplace2/Marketplace.sol\":19220:19237  items[nftAddress] */\n      0x00\n        /* \"contracts/Marketplace2/Marketplace.sol\":19226:19236  nftAddress */\n      dup10\n        /* \"contracts/Marketplace2/Marketplace.sol\":19220:19237  items[nftAddress] */\n      0xffffffffffffffffffffffffffffffffffffffff\n      and\n      0xffffffffffffffffffffffffffffffffffffffff\n      and\n      dup2\n      mstore\n      0x20\n      add\n      swap1\n      dup2\n      mstore\n      0x20\n      add\n      0x00\n      keccak256\n        /* \"contracts/Marketplace2/Marketplace.sol\":19220:19246  items[nftAddress][assetId] */\n      0x00\n        /* \"contracts/Marketplace2/Marketplace.sol\":19238:19245  assetId */\n      dup9\n        /* \"contracts/Marketplace2/Marketplace.sol\":19220:19246  items[nftAddress][assetId] */\n      dup2\n      mstore\n      0x20\n      add\n      swap1\n      dup2\n      mstore\n      0x20\n      add\n      0x00\n      keccak256\n        /* \"contracts/Marketplace2/Marketplace.sol\":19220:19253  items[nftAddress][assetId].seller */\n      0x01\n      add\n      0x00\n        /* \"contracts/Marketplace2/Marketplace.sol\":19220:19262  items[nftAddress][assetId].seller = seller */\n      0x0100\n      exp\n      dup2\n      sload\n      dup2\n      0xffffffffffffffffffffffffffffffffffffffff\n      mul\n      not\n      and\n      swap1\n      dup4\n      0xffffffffffffffffffffffffffffffffffffffff\n      and\n      mul\n      or\n      swap1\n      sstore\n      pop\n        /* \"contracts/Marketplace2/Marketplace.sol\":18915:19273  if (item.id == 0) {... */\n    tag_206:\n        /* \"contracts/Marketplace2/Marketplace.sol\":19279:19290  nftRegistry */\n      dup3\n        /* \"contracts/Marketplace2/Marketplace.sol\":19279:19303  nftRegistry.transferFrom */\n      0xffffffffffffffffffffffffffffffffffffffff\n      and\n      0x23b872dd\n        /* \"contracts/Marketplace2/Marketplace.sol\":19304:19310  seller */\n      dup6\n        /* \"contracts/Marketplace2/Marketplace.sol\":19320:19324  this */\n      address\n        /* \"contracts/Marketplace2/Marketplace.sol\":19327:19334  assetId */\n      dup10\n        /* \"contracts/Marketplace2/Marketplace.sol\":19279:19335  nftRegistry.transferFrom(seller, address(this), assetId) */\n      mload(0x40)\n      dup5\n      0xffffffff\n      and\n      0xe0\n      shl\n      dup2\n      mstore\n      0x04\n      add\n      tag_216\n      swap4\n      swap3\n      swap2\n      swap1\n      tag_174\n      jump\t// in\n    tag_216:\n      0x00\n      mload(0x40)\n      dup1\n      dup4\n      sub\n      dup2\n      0x00\n      dup8\n      dup1\n      extcodesize\n      iszero\n      dup1\n      iszero\n      tag_217\n      jumpi\n      0x00\n      dup1\n      revert\n    tag_217:\n      pop\n      gas\n      call\n      iszero\n      dup1\n      iszero\n      tag_219\n      jumpi\n      returndatasize\n      0x00\n      dup1\n      returndatacopy\n      revert(0x00, returndatasize)\n    tag_219:\n      pop\n      pop\n      pop\n      pop\n        /* \"contracts/Marketplace2/Marketplace.sol\":19470:19476  seller */\n      dup4\n        /* \"contracts/Marketplace2/Marketplace.sol\":19353:19534  SellItemSuccessful(... */\n      0xffffffffffffffffffffffffffffffffffffffff\n      and\n        /* \"contracts/Marketplace2/Marketplace.sol\":19430:19437  assetId */\n      dup7\n        /* \"contracts/Marketplace2/Marketplace.sol\":19353:19534  SellItemSuccessful(... */\n      0xff2412bd5c66e6ad5153e35ee902ee32bb4393211a4d0662428b9b481929a7b9\n        /* \"contracts/Marketplace2/Marketplace.sol\":19385:19395  nftAddress */\n      dup10\n        /* \"contracts/Marketplace2/Marketplace.sol\":19409:19413  item */\n      dup5\n        /* \"contracts/Marketplace2/Marketplace.sol\":19409:19416  item.id */\n      0x00\n      add\n      mload\n        /* \"contracts/Marketplace2/Marketplace.sol\":19451:19456  price */\n      dup10\n        /* \"contracts/Marketplace2/Marketplace.sol\":19509:19524  block.timestamp */\n      timestamp\n        /* \"contracts/Marketplace2/Marketplace.sol\":19353:19534  SellItemSuccessful(... */\n      mload(0x40)\n      tag_220\n      swap5\n      swap4\n      swap3\n      swap2\n      swap1\n      tag_221\n      jump\t// in\n    tag_220:\n      mload(0x40)\n      dup1\n      swap2\n      sub\n      swap1\n      log3\n        /* \"contracts/Marketplace2/Marketplace.sol\":18255:19541  {... */\n      pop\n      pop\n      pop\n      pop\n        /* \"contracts/Marketplace2/Marketplace.sol\":18148:19541  function sellItem(... */\n      pop\n      pop\n      pop\n      jump\t// out\n        /* \"contracts/Marketplace2/Marketplace.sol\":2310:2411  function renounceOwnership() public virtual onlyOwner {... */\n    tag_73:\n        /* \"contracts/Marketplace2/Marketplace.sol\":1901:1913  _msgSender() */\n      tag_223\n        /* \"contracts/Marketplace2/Marketplace.sol\":1901:1911  _msgSender */\n      tag_224\n        /* \"contracts/Marketplace2/Marketplace.sol\":1901:1913  _msgSender() */\n      jump\t// in\n    tag_223:\n        /* \"contracts/Marketplace2/Marketplace.sol\":1890:1913  owner() == _msgSender() */\n      0xffffffffffffffffffffffffffffffffffffffff\n      and\n        /* \"contracts/Marketplace2/Marketplace.sol\":1890:1897  owner() */\n      tag_225\n        /* \"contracts/Marketplace2/Marketplace.sol\":1890:1895  owner */\n      tag_81\n        /* \"contracts/Marketplace2/Marketplace.sol\":1890:1897  owner() */\n      jump\t// in\n    tag_225:\n        /* \"contracts/Marketplace2/Marketplace.sol\":1890:1913  owner() == _msgSender() */\n      0xffffffffffffffffffffffffffffffffffffffff\n      and\n      eq\n        /* \"contracts/Marketplace2/Marketplace.sol\":1882:1950  require(owner() == _msgSender(), \"Ownable: caller is not the owner\") */\n      tag_226\n      jumpi\n      mload(0x40)\n      0x08c379a000000000000000000000000000000000000000000000000000000000\n      dup2\n      mstore\n      0x04\n      add\n      tag_227\n      swap1\n      tag_228\n      jump\t// in\n    tag_227:\n      mload(0x40)\n      dup1\n      swap2\n      sub\n      swap1\n      revert\n    tag_226:\n        /* \"contracts/Marketplace2/Marketplace.sol\":2374:2404  _transferOwnership(address(0)) */\n      tag_230\n        /* \"contracts/Marketplace2/Marketplace.sol\":2401:2402  0 */\n      0x00\n        /* \"contracts/Marketplace2/Marketplace.sol\":2374:2392  _transferOwnership */\n      tag_231\n        /* \"contracts/Marketplace2/Marketplace.sol\":2374:2404  _transferOwnership(address(0)) */\n      jump\t// in\n    tag_230:\n        /* \"contracts/Marketplace2/Marketplace.sol\":2310:2411  function renounceOwnership() public virtual onlyOwner {... */\n      jump\t// out\n        /* \"contracts/Marketplace2/Marketplace.sol\":16175:16201  uint8 public bnbFeePercent */\n    tag_76:\n      0x03\n      0x14\n      swap1\n      sload\n      swap1\n      0x0100\n      exp\n      swap1\n      div\n      0xff\n      and\n      dup2\n      jump\t// out\n        /* \"contracts/Marketplace2/Marketplace.sol\":1678:1763  function owner() public view virtual returns (address) {... */\n    tag_81:\n        /* \"contracts/Marketplace2/Marketplace.sol\":1724:1731  address */\n      0x00\n        /* \"contracts/Marketplace2/Marketplace.sol\":1750:1756  _owner */\n      0x04\n      0x00\n      swap1\n      sload\n      swap1\n      0x0100\n      exp\n      swap1\n      div\n      0xffffffffffffffffffffffffffffffffffffffff\n      and\n        /* \"contracts/Marketplace2/Marketplace.sol\":1743:1756  return _owner */\n      swap1\n      pop\n        /* \"contracts/Marketplace2/Marketplace.sol\":1678:1763  function owner() public view virtual returns (address) {... */\n      swap1\n      jump\t// out\n        /* \"contracts/Marketplace2/Marketplace.sol\":17547:17645  function setSQFToken(address _address) external onlyOwner {... */\n    tag_88:\n        /* \"contracts/Marketplace2/Marketplace.sol\":1901:1913  _msgSender() */\n      tag_234\n        /* \"contracts/Marketplace2/Marketplace.sol\":1901:1911  _msgSender */\n      tag_224\n        /* \"contracts/Marketplace2/Marketplace.sol\":1901:1913  _msgSender() */\n      jump\t// in\n    tag_234:\n        /* \"contracts/Marketplace2/Marketplace.sol\":1890:1913  owner() == _msgSender() */\n      0xffffffffffffffffffffffffffffffffffffffff\n      and\n        /* \"contracts/Marketplace2/Marketplace.sol\":1890:1897  owner() */\n      tag_235\n        /* \"contracts/Marketplace2/Marketplace.sol\":1890:1895  owner */\n      tag_81\n        /* \"contracts/Marketplace2/Marketplace.sol\":1890:1897  owner() */\n      jump\t// in\n    tag_235:\n        /* \"contracts/Marketplace2/Marketplace.sol\":1890:1913  owner() == _msgSender() */\n      0xffffffffffffffffffffffffffffffffffffffff\n      and\n      eq\n        /* \"contracts/Marketplace2/Marketplace.sol\":1882:1950  require(owner() == _msgSender(), \"Ownable: caller is not the owner\") */\n      tag_236\n      jumpi\n      mload(0x40)\n      0x08c379a000000000000000000000000000000000000000000000000000000000\n      dup2\n      mstore\n      0x04\n      add\n      tag_237\n      swap1\n      tag_228\n      jump\t// in\n    tag_237:\n      mload(0x40)\n      dup1\n      swap2\n      sub\n      swap1\n      revert\n    tag_236:\n        /* \"contracts/Marketplace2/Marketplace.sol\":17633:17641  _address */\n      dup1\n        /* \"contracts/Marketplace2/Marketplace.sol\":17615:17623  sqfToken */\n      0x03\n      0x00\n        /* \"contracts/Marketplace2/Marketplace.sol\":17615:17642  sqfToken = IERC20(_address) */\n      0x0100\n      exp\n      dup2\n      sload\n      dup2\n      0xffffffffffffffffffffffffffffffffffffffff\n      mul\n      not\n      and\n      swap1\n      dup4\n      0xffffffffffffffffffffffffffffffffffffffff\n      and\n      mul\n      or\n      swap1\n      sstore\n      pop\n        /* \"contracts/Marketplace2/Marketplace.sol\":17547:17645  function setSQFToken(address _address) external onlyOwner {... */\n      pop\n      jump\t// out\n        /* \"contracts/Marketplace2/Marketplace.sol\":16207:16234  uint8 public antaFeePercent */\n    tag_91:\n      0x03\n      0x15\n      swap1\n      sload\n      swap1\n      0x0100\n      exp\n      swap1\n      div\n      0xff\n      and\n      dup2\n      jump\t// out\n        /* \"contracts/Marketplace2/Marketplace.sol\":19545:20069  function createMarketSale(... */\n    tag_95:\n        /* \"contracts/Marketplace2/Marketplace.sol\":14167:14168  2 */\n      0x02\n        /* \"contracts/Marketplace2/Marketplace.sol\":14748:14755  _status */\n      sload(0x00)\n        /* \"contracts/Marketplace2/Marketplace.sol\":14748:14767  _status != _ENTERED */\n      sub\n        /* \"contracts/Marketplace2/Marketplace.sol\":14740:14803  require(_status != _ENTERED, \"ReentrancyGuard: reentrant call\") */\n      tag_240\n      jumpi\n      mload(0x40)\n      0x08c379a000000000000000000000000000000000000000000000000000000000\n      dup2\n      mstore\n      0x04\n      add\n      tag_241\n      swap1\n      tag_165\n      jump\t// in\n    tag_241:\n      mload(0x40)\n      dup1\n      swap2\n      sub\n      swap1\n      revert\n    tag_240:\n        /* \"contracts/Marketplace2/Marketplace.sol\":14167:14168  2 */\n      0x02\n        /* \"contracts/Marketplace2/Marketplace.sol\":14878:14885  _status */\n      0x00\n        /* \"contracts/Marketplace2/Marketplace.sol\":14878:14896  _status = _ENTERED */\n      dup2\n      swap1\n      sstore\n      pop\n        /* \"contracts/Marketplace2/Marketplace.sol\":19656:19666  uint price */\n      0x00\n        /* \"contracts/Marketplace2/Marketplace.sol\":19669:19683  idToMarketItem */\n      0x07\n        /* \"contracts/Marketplace2/Marketplace.sol\":19669:19691  idToMarketItem[itemId] */\n      0x00\n        /* \"contracts/Marketplace2/Marketplace.sol\":19684:19690  itemId */\n      dup4\n        /* \"contracts/Marketplace2/Marketplace.sol\":19669:19691  idToMarketItem[itemId] */\n      dup2\n      mstore\n      0x20\n      add\n      swap1\n      dup2\n      mstore\n      0x20\n      add\n      0x00\n      keccak256\n        /* \"contracts/Marketplace2/Marketplace.sol\":19669:19697  idToMarketItem[itemId].price */\n      0x05\n      add\n      sload\n        /* \"contracts/Marketplace2/Marketplace.sol\":19656:19697  uint price = idToMarketItem[itemId].price */\n      swap1\n      pop\n        /* \"contracts/Marketplace2/Marketplace.sol\":19703:19715  uint tokenId */\n      0x00\n        /* \"contracts/Marketplace2/Marketplace.sol\":19718:19732  idToMarketItem */\n      0x07\n        /* \"contracts/Marketplace2/Marketplace.sol\":19718:19740  idToMarketItem[itemId] */\n      0x00\n        /* \"contracts/Marketplace2/Marketplace.sol\":19733:19739  itemId */\n      dup5\n        /* \"contracts/Marketplace2/Marketplace.sol\":19718:19740  idToMarketItem[itemId] */\n      dup2\n      mstore\n      0x20\n      add\n      swap1\n      dup2\n      mstore\n      0x20\n      add\n      0x00\n      keccak256\n        /* \"contracts/Marketplace2/Marketplace.sol\":19718:19748  idToMarketItem[itemId].tokenId */\n      0x02\n      add\n      sload\n        /* \"contracts/Marketplace2/Marketplace.sol\":19703:19748  uint tokenId = idToMarketItem[itemId].tokenId */\n      swap1\n      pop\n        /* \"contracts/Marketplace2/Marketplace.sol\":19775:19780  price */\n      dup2\n        /* \"contracts/Marketplace2/Marketplace.sol\":19762:19771  msg.value */\n      callvalue\n        /* \"contracts/Marketplace2/Marketplace.sol\":19762:19780  msg.value == price */\n      eq\n        /* \"contracts/Marketplace2/Marketplace.sol\":19754:19849  require(msg.value == price, \"Please submit the asking price in order to complete the purchase\") */\n      tag_243\n      jumpi\n      mload(0x40)\n      0x08c379a000000000000000000000000000000000000000000000000000000000\n      dup2\n      mstore\n      0x04\n      add\n      tag_244\n      swap1\n      tag_245\n      jump\t// in\n    tag_244:\n      mload(0x40)\n      dup1\n      swap2\n      sub\n      swap1\n      revert\n    tag_243:\n        /* \"contracts/Marketplace2/Marketplace.sol\":19856:19870  idToMarketItem */\n      0x07\n        /* \"contracts/Marketplace2/Marketplace.sol\":19856:19878  idToMarketItem[itemId] */\n      0x00\n        /* \"contracts/Marketplace2/Marketplace.sol\":19871:19877  itemId */\n      dup5\n        /* \"contracts/Marketplace2/Marketplace.sol\":19856:19878  idToMarketItem[itemId] */\n      dup2\n      mstore\n      0x20\n      add\n      swap1\n      dup2\n      mstore\n      0x20\n      add\n      0x00\n      keccak256\n        /* \"contracts/Marketplace2/Marketplace.sol\":19856:19885  idToMarketItem[itemId].seller */\n      0x03\n      add\n      0x00\n      swap1\n      sload\n      swap1\n      0x0100\n      exp\n      swap1\n      div\n      0xffffffffffffffffffffffffffffffffffffffff\n      and\n        /* \"contracts/Marketplace2/Marketplace.sol\":19856:19894  idToMarketItem[itemId].seller.transfer */\n      0xffffffffffffffffffffffffffffffffffffffff\n      and\n        /* \"contracts/Marketplace2/Marketplace.sol\":19856:19905  idToMarketItem[itemId].seller.transfer(msg.value) */\n      0x08fc\n        /* \"contracts/Marketplace2/Marketplace.sol\":19895:19904  msg.value */\n      callvalue\n        /* \"contracts/Marketplace2/Marketplace.sol\":19856:19905  idToMarketItem[itemId].seller.transfer(msg.value) */\n      swap1\n      dup2\n      iszero\n      mul\n      swap1\n      mload(0x40)\n      0x00\n      mload(0x40)\n      dup1\n      dup4\n      sub\n      dup2\n      dup6\n      dup9\n      dup9\n      call\n      swap4\n      pop\n      pop\n      pop\n      pop\n      iszero\n      dup1\n      iszero\n      tag_247\n      jumpi\n      returndatasize\n      0x00\n      dup1\n      returndatacopy\n      revert(0x00, returndatasize)\n    tag_247:\n      pop\n        /* \"contracts/Marketplace2/Marketplace.sol\":19919:19930  nftContract */\n      dup4\n        /* \"contracts/Marketplace2/Marketplace.sol\":19911:19944  IERC721(nftContract).transferFrom */\n      0xffffffffffffffffffffffffffffffffffffffff\n      and\n      0x23b872dd\n        /* \"contracts/Marketplace2/Marketplace.sol\":19953:19957  this */\n      address\n        /* \"contracts/Marketplace2/Marketplace.sol\":19960:19970  msg.sender */\n      caller\n        /* \"contracts/Marketplace2/Marketplace.sol\":19972:19979  tokenId */\n      dup5\n        /* \"contracts/Marketplace2/Marketplace.sol\":19911:19980  IERC721(nftContract).transferFrom(address(this), msg.sender, tokenId) */\n      mload(0x40)\n      dup5\n      0xffffffff\n      and\n      0xe0\n      shl\n      dup2\n      mstore\n      0x04\n      add\n      tag_248\n      swap4\n      swap3\n      swap2\n      swap1\n      tag_174\n      jump\t// in\n    tag_248:\n      0x00\n      mload(0x40)\n      dup1\n      dup4\n      sub\n      dup2\n      0x00\n      dup8\n      dup1\n      extcodesize\n      iszero\n      dup1\n      iszero\n      tag_249\n      jumpi\n      0x00\n      dup1\n      revert\n    tag_249:\n      pop\n      gas\n      call\n      iszero\n      dup1\n      iszero\n      tag_251\n      jumpi\n      returndatasize\n      0x00\n      dup1\n      returndatacopy\n      revert(0x00, returndatasize)\n    tag_251:\n      pop\n      pop\n      pop\n      pop\n        /* \"contracts/Marketplace2/Marketplace.sol\":20025:20035  msg.sender */\n      caller\n        /* \"contracts/Marketplace2/Marketplace.sol\":19986:20000  idToMarketItem */\n      0x07\n        /* \"contracts/Marketplace2/Marketplace.sol\":19986:20008  idToMarketItem[itemId] */\n      0x00\n        /* \"contracts/Marketplace2/Marketplace.sol\":20001:20007  itemId */\n      dup6\n        /* \"contracts/Marketplace2/Marketplace.sol\":19986:20008  idToMarketItem[itemId] */\n      dup2\n      mstore\n      0x20\n      add\n      swap1\n      dup2\n      mstore\n      0x20\n      add\n      0x00\n      keccak256\n        /* \"contracts/Marketplace2/Marketplace.sol\":19986:20014  idToMarketItem[itemId].owner */\n      0x04\n      add\n      0x00\n        /* \"contracts/Marketplace2/Marketplace.sol\":19986:20036  idToMarketItem[itemId].owner = payable(msg.sender) */\n      0x0100\n      exp\n      dup2\n      sload\n      dup2\n      0xffffffffffffffffffffffffffffffffffffffff\n      mul\n      not\n      and\n      swap1\n      dup4\n      0xffffffffffffffffffffffffffffffffffffffff\n      and\n      mul\n      or\n      swap1\n      sstore\n      pop\n        /* \"contracts/Marketplace2/Marketplace.sol\":20042:20064  _itemsSold.increment() */\n      tag_252\n        /* \"contracts/Marketplace2/Marketplace.sol\":20042:20052  _itemsSold */\n      0x06\n        /* \"contracts/Marketplace2/Marketplace.sol\":20042:20062  _itemsSold.increment */\n      tag_171\n        /* \"contracts/Marketplace2/Marketplace.sol\":20042:20064  _itemsSold.increment() */\n      jump\t// in\n    tag_252:\n        /* \"contracts/Marketplace2/Marketplace.sol\":19650:20069  {... */\n      pop\n      pop\n        /* \"contracts/Marketplace2/Marketplace.sol\":14124:14125  1 */\n      0x01\n        /* \"contracts/Marketplace2/Marketplace.sol\":15051:15058  _status */\n      0x00\n        /* \"contracts/Marketplace2/Marketplace.sol\":15051:15073  _status = _NOT_ENTERED */\n      dup2\n      swap1\n      sstore\n      pop\n        /* \"contracts/Marketplace2/Marketplace.sol\":19545:20069  function createMarketSale(... */\n      pop\n      pop\n      jump\t// out\n        /* \"contracts/Marketplace2/Marketplace.sol\":17414:17545  function getMarketItem(uint256 marketItemId) public view returns (MarketItem memory) {... */\n    tag_99:\n        /* \"contracts/Marketplace2/Marketplace.sol\":17480:17497  MarketItem memory */\n      tag_253\n      tag_122\n      jump\t// in\n    tag_253:\n        /* \"contracts/Marketplace2/Marketplace.sol\":17512:17526  idToMarketItem */\n      0x07\n        /* \"contracts/Marketplace2/Marketplace.sol\":17512:17540  idToMarketItem[marketItemId] */\n      0x00\n        /* \"contracts/Marketplace2/Marketplace.sol\":17527:17539  marketItemId */\n      dup4\n        /* \"contracts/Marketplace2/Marketplace.sol\":17512:17540  idToMarketItem[marketItemId] */\n      dup2\n      mstore\n      0x20\n      add\n      swap1\n      dup2\n      mstore\n      0x20\n      add\n      0x00\n      keccak256\n        /* \"contracts/Marketplace2/Marketplace.sol\":17505:17540  return idToMarketItem[marketItemId] */\n      mload(0x40)\n      dup1\n      0xc0\n      add\n      0x40\n      mstore\n      swap1\n      dup2\n      0x00\n      dup3\n      add\n      sload\n      dup2\n      mstore\n      0x20\n      add\n      0x01\n      dup3\n      add\n      0x00\n      swap1\n      sload\n      swap1\n      0x0100\n      exp\n      swap1\n      div\n      0xffffffffffffffffffffffffffffffffffffffff\n      and\n      0xffffffffffffffffffffffffffffffffffffffff\n      and\n      0xffffffffffffffffffffffffffffffffffffffff\n      and\n      dup2\n      mstore\n      0x20\n      add\n      0x02\n      dup3\n      add\n      sload\n      dup2\n      mstore\n      0x20\n      add\n      0x03\n      dup3\n      add\n      0x00\n      swap1\n      sload\n      swap1\n      0x0100\n      exp\n      swap1\n      div\n      0xffffffffffffffffffffffffffffffffffffffff\n      and\n      0xffffffffffffffffffffffffffffffffffffffff\n      and\n      0xffffffffffffffffffffffffffffffffffffffff\n      and\n      dup2\n      mstore\n      0x20\n      add\n      0x04\n      dup3\n      add\n      0x00\n      swap1\n      sload\n      swap1\n      0x0100\n      exp\n      swap1\n      div\n      0xffffffffffffffffffffffffffffffffffffffff\n      and\n      0xffffffffffffffffffffffffffffffffffffffff\n      and\n      0xffffffffffffffffffffffffffffffffffffffff\n      and\n      dup2\n      mstore\n      0x20\n      add\n      0x05\n      dup3\n      add\n      sload\n      dup2\n      mstore\n      pop\n      pop\n      swap1\n      pop\n        /* \"contracts/Marketplace2/Marketplace.sol\":17414:17545  function getMarketItem(uint256 marketItemId) public view returns (MarketItem memory) {... */\n      swap2\n      swap1\n      pop\n      jump\t// out\n        /* \"contracts/Marketplace2/Marketplace.sol\":21550:22846  function buyItemBySQF(... */\n    tag_104:\n        /* \"contracts/Marketplace2/Marketplace.sol\":21675:21701  _requireERC721(nftAddress) */\n      tag_256\n        /* \"contracts/Marketplace2/Marketplace.sol\":21690:21700  nftAddress */\n      dup4\n        /* \"contracts/Marketplace2/Marketplace.sol\":21675:21689  _requireERC721 */\n      tag_182\n        /* \"contracts/Marketplace2/Marketplace.sol\":21675:21701  _requireERC721(nftAddress) */\n      jump\t// in\n    tag_256:\n        /* \"contracts/Marketplace2/Marketplace.sol\":21712:21726  address sender */\n      0x00\n        /* \"contracts/Marketplace2/Marketplace.sol\":21729:21739  msg.sender */\n      caller\n        /* \"contracts/Marketplace2/Marketplace.sol\":21712:21739  address sender = msg.sender */\n      swap1\n      pop\n        /* \"contracts/Marketplace2/Marketplace.sol\":21749:21768  IERC721 nftRegistry */\n      0x00\n        /* \"contracts/Marketplace2/Marketplace.sol\":21779:21789  nftAddress */\n      dup5\n        /* \"contracts/Marketplace2/Marketplace.sol\":21749:21790  IERC721 nftRegistry = IERC721(nftAddress) */\n      swap1\n      pop\n        /* \"contracts/Marketplace2/Marketplace.sol\":21800:21816  Item memory item */\n      0x00\n        /* \"contracts/Marketplace2/Marketplace.sol\":21819:21824  items */\n      0x01\n        /* \"contracts/Marketplace2/Marketplace.sol\":21819:21836  items[nftAddress] */\n      0x00\n        /* \"contracts/Marketplace2/Marketplace.sol\":21825:21835  nftAddress */\n      dup8\n        /* \"contracts/Marketplace2/Marketplace.sol\":21819:21836  items[nftAddress] */\n      0xffffffffffffffffffffffffffffffffffffffff\n      and\n      0xffffffffffffffffffffffffffffffffffffffff\n      and\n      dup2\n      mstore\n      0x20\n      add\n      swap1\n      dup2\n      mstore\n      0x20\n      add\n      0x00\n      keccak256\n        /* \"contracts/Marketplace2/Marketplace.sol\":21819:21845  items[nftAddress][assetId] */\n      0x00\n        /* \"contracts/Marketplace2/Marketplace.sol\":21837:21844  assetId */\n      dup7\n        /* \"contracts/Marketplace2/Marketplace.sol\":21819:21845  items[nftAddress][assetId] */\n      dup2\n      mstore\n      0x20\n      add\n      swap1\n      dup2\n      mstore\n      0x20\n      add\n      0x00\n      keccak256\n        /* \"contracts/Marketplace2/Marketplace.sol\":21800:21845  Item memory item = items[nftAddress][assetId] */\n      mload(0x40)\n      dup1\n      0xc0\n      add\n      0x40\n      mstore\n      swap1\n      dup2\n      0x00\n      dup3\n      add\n      sload\n      dup2\n      mstore\n      0x20\n      add\n      0x01\n      dup3\n      add\n      0x00\n      swap1\n      sload\n      swap1\n      0x0100\n      exp\n      swap1\n      div\n      0xffffffffffffffffffffffffffffffffffffffff\n      and\n      0xffffffffffffffffffffffffffffffffffffffff\n      and\n      0xffffffffffffffffffffffffffffffffffffffff\n      and\n      dup2\n      mstore\n      0x20\n      add\n      0x02\n      dup3\n      add\n      0x00\n      swap1\n      sload\n      swap1\n      0x0100\n      exp\n      swap1\n      div\n      0xffffffffffffffffffffffffffffffffffffffff\n      and\n      0xffffffffffffffffffffffffffffffffffffffff\n      and\n      0xffffffffffffffffffffffffffffffffffffffff\n      and\n      dup2\n      mstore\n      0x20\n      add\n      0x03\n      dup3\n      add\n      sload\n      dup2\n      mstore\n      0x20\n      add\n      0x04\n      dup3\n      add\n      sload\n      dup2\n      mstore\n      0x20\n      add\n      0x05\n      dup3\n      add\n      0x00\n      swap1\n      sload\n      swap1\n      0x0100\n      exp\n      swap1\n      div\n      0xff\n      and\n      0x04\n      dup2\n      gt\n      iszero\n      tag_257\n      jumpi\n      tag_258\n      tag_200\n      jump\t// in\n    tag_258:\n    tag_257:\n      0x04\n      dup2\n      gt\n      iszero\n      tag_259\n      jumpi\n      tag_260\n      tag_200\n      jump\t// in\n    tag_260:\n    tag_259:\n      dup2\n      mstore\n      pop\n      pop\n      swap1\n      pop\n        /* \"contracts/Marketplace2/Marketplace.sol\":21875:21876  0 */\n      0x00\n        /* \"contracts/Marketplace2/Marketplace.sol\":21864:21876  item.id != 0 */\n      dup1\n      shl\n        /* \"contracts/Marketplace2/Marketplace.sol\":21864:21868  item */\n      dup2\n        /* \"contracts/Marketplace2/Marketplace.sol\":21864:21871  item.id */\n      0x00\n      add\n      mload\n        /* \"contracts/Marketplace2/Marketplace.sol\":21864:21876  item.id != 0 */\n      sub\n        /* \"contracts/Marketplace2/Marketplace.sol\":21856:21900  require(item.id != 0, \"Asset not published\") */\n      tag_261\n      jumpi\n      mload(0x40)\n      0x08c379a000000000000000000000000000000000000000000000000000000000\n      dup2\n      mstore\n      0x04\n      add\n      tag_262\n      swap1\n      tag_263\n      jump\t// in\n    tag_262:\n      mload(0x40)\n      dup1\n      swap2\n      sub\n      swap1\n      revert\n    tag_261:\n        /* \"contracts/Marketplace2/Marketplace.sol\":21933:21948  ItemStatus.LIST */\n      0x01\n        /* \"contracts/Marketplace2/Marketplace.sol\":21918:21948  item.status == ItemStatus.LIST */\n      0x04\n      dup2\n      gt\n      iszero\n      tag_264\n      jumpi\n      tag_265\n      tag_200\n      jump\t// in\n    tag_265:\n    tag_264:\n        /* \"contracts/Marketplace2/Marketplace.sol\":21918:21922  item */\n      dup2\n        /* \"contracts/Marketplace2/Marketplace.sol\":21918:21929  item.status */\n      0xa0\n      add\n      mload\n        /* \"contracts/Marketplace2/Marketplace.sol\":21918:21948  item.status == ItemStatus.LIST */\n      0x04\n      dup2\n      gt\n      iszero\n      tag_266\n      jumpi\n      tag_267\n      tag_200\n      jump\t// in\n    tag_267:\n    tag_266:\n      eq\n        /* \"contracts/Marketplace2/Marketplace.sol\":21910:21977  require(item.status == ItemStatus.LIST, \"Asset is not list to buy\") */\n      tag_268\n      jumpi\n      mload(0x40)\n      0x08c379a000000000000000000000000000000000000000000000000000000000\n      dup2\n      mstore\n      0x04\n      add\n      tag_269\n      swap1\n      tag_270\n      jump\t// in\n    tag_269:\n      mload(0x40)\n      dup1\n      swap2\n      sub\n      swap1\n      revert\n    tag_268:\n        /* \"contracts/Marketplace2/Marketplace.sol\":21988:22002  address seller */\n      0x00\n        /* \"contracts/Marketplace2/Marketplace.sol\":22005:22009  item */\n      dup2\n        /* \"contracts/Marketplace2/Marketplace.sol\":22005:22016  item.seller */\n      0x20\n      add\n      mload\n        /* \"contracts/Marketplace2/Marketplace.sol\":21988:22016  address seller = item.seller */\n      swap1\n      pop\n        /* \"contracts/Marketplace2/Marketplace.sol\":22053:22054  0 */\n      0x00\n        /* \"contracts/Marketplace2/Marketplace.sol\":22035:22055  seller != address(0) */\n      0xffffffffffffffffffffffffffffffffffffffff\n      and\n        /* \"contracts/Marketplace2/Marketplace.sol\":22035:22041  seller */\n      dup2\n        /* \"contracts/Marketplace2/Marketplace.sol\":22035:22055  seller != address(0) */\n      0xffffffffffffffffffffffffffffffffffffffff\n      and\n      sub\n        /* \"contracts/Marketplace2/Marketplace.sol\":22027:22075  require(seller != address(0), \"Invalid address\") */\n      tag_271\n      jumpi\n      mload(0x40)\n      0x08c379a000000000000000000000000000000000000000000000000000000000\n      dup2\n      mstore\n      0x04\n      add\n      tag_272\n      swap1\n      tag_273\n      jump\t// in\n    tag_272:\n      mload(0x40)\n      dup1\n      swap2\n      sub\n      swap1\n      revert\n    tag_271:\n        /* \"contracts/Marketplace2/Marketplace.sol\":22106:22110  item */\n      dup2\n        /* \"contracts/Marketplace2/Marketplace.sol\":22106:22120  item.priceAnta */\n      0x80\n      add\n      mload\n        /* \"contracts/Marketplace2/Marketplace.sol\":22093:22102  priceAnta */\n      dup6\n        /* \"contracts/Marketplace2/Marketplace.sol\":22093:22120  priceAnta >= item.priceAnta */\n      lt\n      iszero\n        /* \"contracts/Marketplace2/Marketplace.sol\":22085:22155  require(priceAnta >= item.priceAnta, \"price need equal listing price\") */\n      tag_274\n      jumpi\n      mload(0x40)\n      0x08c379a000000000000000000000000000000000000000000000000000000000\n      dup2\n      mstore\n      0x04\n      add\n      tag_275\n      swap1\n      tag_276\n      jump\t// in\n    tag_275:\n      mload(0x40)\n      dup1\n      swap2\n      sub\n      swap1\n      revert\n    tag_274:\n        /* \"contracts/Marketplace2/Marketplace.sol\":22166:22177  uint256 fee */\n      0x00\n        /* \"contracts/Marketplace2/Marketplace.sol\":22211:22214  100 */\n      0x64\n        /* \"contracts/Marketplace2/Marketplace.sol\":22198:22207  priceAnta */\n      dup7\n        /* \"contracts/Marketplace2/Marketplace.sol\":22181:22195  antaFeePercent */\n      0x03\n      0x15\n      swap1\n      sload\n      swap1\n      0x0100\n      exp\n      swap1\n      div\n      0xff\n      and\n        /* \"contracts/Marketplace2/Marketplace.sol\":22181:22207  antaFeePercent * priceAnta */\n      0xff\n      and\n      tag_277\n      swap2\n      swap1\n      tag_278\n      jump\t// in\n    tag_277:\n        /* \"contracts/Marketplace2/Marketplace.sol\":22180:22214  (antaFeePercent * priceAnta) / 100 */\n      tag_279\n      swap2\n      swap1\n      tag_280\n      jump\t// in\n    tag_279:\n        /* \"contracts/Marketplace2/Marketplace.sol\":22166:22214  uint256 fee = (antaFeePercent * priceAnta) / 100 */\n      swap1\n      pop\n        /* \"contracts/Marketplace2/Marketplace.sol\":22224:22244  uint256 remainAmount */\n      0x00\n        /* \"contracts/Marketplace2/Marketplace.sol\":22259:22262  fee */\n      dup2\n        /* \"contracts/Marketplace2/Marketplace.sol\":22247:22256  priceAnta */\n      dup8\n        /* \"contracts/Marketplace2/Marketplace.sol\":22247:22262  priceAnta - fee */\n      tag_281\n      swap2\n      swap1\n      tag_115\n      jump\t// in\n    tag_281:\n        /* \"contracts/Marketplace2/Marketplace.sol\":22224:22262  uint256 remainAmount = priceAnta - fee */\n      swap1\n      pop\n        /* \"contracts/Marketplace2/Marketplace.sol\":22272:22280  sqfToken */\n      0x03\n      0x00\n      swap1\n      sload\n      swap1\n      0x0100\n      exp\n      swap1\n      div\n      0xffffffffffffffffffffffffffffffffffffffff\n      and\n        /* \"contracts/Marketplace2/Marketplace.sol\":22272:22293  sqfToken.transferFrom */\n      0xffffffffffffffffffffffffffffffffffffffff\n      and\n      0x23b872dd\n        /* \"contracts/Marketplace2/Marketplace.sol\":22294:22300  sender */\n      dup8\n        /* \"contracts/Marketplace2/Marketplace.sol\":22310:22314  this */\n      address\n        /* \"contracts/Marketplace2/Marketplace.sol\":22317:22320  fee */\n      dup6\n        /* \"contracts/Marketplace2/Marketplace.sol\":22272:22321  sqfToken.transferFrom(sender, address(this), fee) */\n      mload(0x40)\n      dup5\n      0xffffffff\n      and\n      0xe0\n      shl\n      dup2\n      mstore\n      0x04\n      add\n      tag_282\n      swap4\n      swap3\n      swap2\n      swap1\n      tag_174\n      jump\t// in\n    tag_282:\n      0x20\n      mload(0x40)\n      dup1\n      dup4\n      sub\n      dup2\n      0x00\n      dup8\n      gas\n      call\n      iszero\n      dup1\n      iszero\n      tag_284\n      jumpi\n      returndatasize\n      0x00\n      dup1\n      returndatacopy\n      revert(0x00, returndatasize)\n    tag_284:\n      pop\n      pop\n      pop\n      pop\n      mload(0x40)\n      returndatasize\n      not(0x1f)\n      0x1f\n      dup3\n      add\n      and\n      dup3\n      add\n      dup1\n      0x40\n      mstore\n      pop\n      dup2\n      add\n      swap1\n      tag_285\n      swap2\n      swap1\n      tag_286\n      jump\t// in\n    tag_285:\n      pop\n        /* \"contracts/Marketplace2/Marketplace.sol\":22331:22339  sqfToken */\n      0x03\n      0x00\n      swap1\n      sload\n      swap1\n      0x0100\n      exp\n      swap1\n      div\n      0xffffffffffffffffffffffffffffffffffffffff\n      and\n        /* \"contracts/Marketplace2/Marketplace.sol\":22331:22352  sqfToken.transferFrom */\n      0xffffffffffffffffffffffffffffffffffffffff\n      and\n      0x23b872dd\n        /* \"contracts/Marketplace2/Marketplace.sol\":22353:22359  sender */\n      dup8\n        /* \"contracts/Marketplace2/Marketplace.sol\":22361:22367  seller */\n      dup6\n        /* \"contracts/Marketplace2/Marketplace.sol\":22369:22381  remainAmount */\n      dup5\n        /* \"contracts/Marketplace2/Marketplace.sol\":22331:22382  sqfToken.transferFrom(sender, seller, remainAmount) */\n      mload(0x40)\n      dup5\n      0xffffffff\n      and\n      0xe0\n      shl\n      dup2\n      mstore\n      0x04\n      add\n      tag_287\n      swap4\n      swap3\n      swap2\n      swap1\n      tag_174\n      jump\t// in\n    tag_287:\n      0x20\n      mload(0x40)\n      dup1\n      dup4\n      sub\n      dup2\n      0x00\n      dup8\n      gas\n      call\n      iszero\n      dup1\n      iszero\n      tag_289\n      jumpi\n      returndatasize\n      0x00\n      dup1\n      returndatacopy\n      revert(0x00, returndatasize)\n    tag_289:\n      pop\n      pop\n      pop\n      pop\n      mload(0x40)\n      returndatasize\n      not(0x1f)\n      0x1f\n      dup3\n      add\n      and\n      dup3\n      add\n      dup1\n      0x40\n      mstore\n      pop\n      dup2\n      add\n      swap1\n      tag_290\n      swap2\n      swap1\n      tag_286\n      jump\t// in\n    tag_290:\n      pop\n        /* \"contracts/Marketplace2/Marketplace.sol\":22392:22403  nftRegistry */\n      dup5\n        /* \"contracts/Marketplace2/Marketplace.sol\":22392:22420  nftRegistry.safeTransferFrom */\n      0xffffffffffffffffffffffffffffffffffffffff\n      and\n      0x42842e0e\n        /* \"contracts/Marketplace2/Marketplace.sol\":22429:22433  this */\n      address\n        /* \"contracts/Marketplace2/Marketplace.sol\":22436:22442  sender */\n      dup9\n        /* \"contracts/Marketplace2/Marketplace.sol\":22444:22451  assetId */\n      dup12\n        /* \"contracts/Marketplace2/Marketplace.sol\":22392:22452  nftRegistry.safeTransferFrom(address(this), sender, assetId) */\n      mload(0x40)\n      dup5\n      0xffffffff\n      and\n      0xe0\n      shl\n      dup2\n      mstore\n      0x04\n      add\n      tag_291\n      swap4\n      swap3\n      swap2\n      swap1\n      tag_174\n      jump\t// in\n    tag_291:\n      0x00\n      mload(0x40)\n      dup1\n      dup4\n      sub\n      dup2\n      0x00\n      dup8\n      dup1\n      extcodesize\n      iszero\n      dup1\n      iszero\n      tag_292\n      jumpi\n      0x00\n      dup1\n      revert\n    tag_292:\n      pop\n      gas\n      call\n      iszero\n      dup1\n      iszero\n      tag_294\n      jumpi\n      returndatasize\n      0x00\n      dup1\n      returndatacopy\n      revert(0x00, returndatasize)\n    tag_294:\n      pop\n      pop\n      pop\n      pop\n        /* \"contracts/Marketplace2/Marketplace.sol\":22499:22505  sender */\n      dup6\n        /* \"contracts/Marketplace2/Marketplace.sol\":22463:22468  items */\n      0x01\n        /* \"contracts/Marketplace2/Marketplace.sol\":22463:22480  items[nftAddress] */\n      0x00\n        /* \"contracts/Marketplace2/Marketplace.sol\":22469:22479  nftAddress */\n      dup12\n        /* \"contracts/Marketplace2/Marketplace.sol\":22463:22480  items[nftAddress] */\n      0xffffffffffffffffffffffffffffffffffffffff\n      and\n      0xffffffffffffffffffffffffffffffffffffffff\n      and\n      dup2\n      mstore\n      0x20\n      add\n      swap1\n      dup2\n      mstore\n      0x20\n      add\n      0x00\n      keccak256\n        /* \"contracts/Marketplace2/Marketplace.sol\":22463:22489  items[nftAddress][assetId] */\n      0x00\n        /* \"contracts/Marketplace2/Marketplace.sol\":22481:22488  assetId */\n      dup11\n        /* \"contracts/Marketplace2/Marketplace.sol\":22463:22489  items[nftAddress][assetId] */\n      dup2\n      mstore\n      0x20\n      add\n      swap1\n      dup2\n      mstore\n      0x20\n      add\n      0x00\n      keccak256\n        /* \"contracts/Marketplace2/Marketplace.sol\":22463:22496  items[nftAddress][assetId].seller */\n      0x01\n      add\n      0x00\n        /* \"contracts/Marketplace2/Marketplace.sol\":22463:22505  items[nftAddress][assetId].seller = sender */\n      0x0100\n      exp\n      dup2\n      sload\n      dup2\n      0xffffffffffffffffffffffffffffffffffffffff\n      mul\n      not\n      and\n      swap1\n      dup4\n      0xffffffffffffffffffffffffffffffffffffffff\n      and\n      mul\n      or\n      swap1\n      sstore\n      pop\n        /* \"contracts/Marketplace2/Marketplace.sol\":22551:22568  ItemStatus.BOUGHT */\n      0x02\n        /* \"contracts/Marketplace2/Marketplace.sol\":22515:22520  items */\n      0x01\n        /* \"contracts/Marketplace2/Marketplace.sol\":22515:22532  items[nftAddress] */\n      0x00\n        /* \"contracts/Marketplace2/Marketplace.sol\":22521:22531  nftAddress */\n      dup12\n        /* \"contracts/Marketplace2/Marketplace.sol\":22515:22532  items[nftAddress] */\n      0xffffffffffffffffffffffffffffffffffffffff\n      and\n      0xffffffffffffffffffffffffffffffffffffffff\n      and\n      dup2\n      mstore\n      0x20\n      add\n      swap1\n      dup2\n      mstore\n      0x20\n      add\n      0x00\n      keccak256\n        /* \"contracts/Marketplace2/Marketplace.sol\":22515:22541  items[nftAddress][assetId] */\n      0x00\n        /* \"contracts/Marketplace2/Marketplace.sol\":22533:22540  assetId */\n      dup11\n        /* \"contracts/Marketplace2/Marketplace.sol\":22515:22541  items[nftAddress][assetId] */\n      dup2\n      mstore\n      0x20\n      add\n      swap1\n      dup2\n      mstore\n      0x20\n      add\n      0x00\n      keccak256\n        /* \"contracts/Marketplace2/Marketplace.sol\":22515:22548  items[nftAddress][assetId].status */\n      0x05\n      add\n      0x00\n        /* \"contracts/Marketplace2/Marketplace.sol\":22515:22568  items[nftAddress][assetId].status = ItemStatus.BOUGHT */\n      0x0100\n      exp\n      dup2\n      sload\n      dup2\n      0xff\n      mul\n      not\n      and\n      swap1\n      dup4\n      0x04\n      dup2\n      gt\n      iszero\n      tag_295\n      jumpi\n      tag_296\n      tag_200\n      jump\t// in\n    tag_296:\n    tag_295:\n      mul\n      or\n      swap1\n      sstore\n      pop\n        /* \"contracts/Marketplace2/Marketplace.sol\":22774:22780  sender */\n      dup6\n        /* \"contracts/Marketplace2/Marketplace.sol\":22584:22839  BuyItemSuccessful(... */\n      0xffffffffffffffffffffffffffffffffffffffff\n      and\n        /* \"contracts/Marketplace2/Marketplace.sol\":22657:22663  seller */\n      dup4\n        /* \"contracts/Marketplace2/Marketplace.sol\":22584:22839  BuyItemSuccessful(... */\n      0xffffffffffffffffffffffffffffffffffffffff\n      and\n        /* \"contracts/Marketplace2/Marketplace.sol\":22636:22643  assetId */\n      dup10\n        /* \"contracts/Marketplace2/Marketplace.sol\":22584:22839  BuyItemSuccessful(... */\n      0x30247e11bbb597dfefd2a3124026f1ef8987a4d6ba46e3629f80bac1b0c9faee\n        /* \"contracts/Marketplace2/Marketplace.sol\":22615:22619  item */\n      dup8\n        /* \"contracts/Marketplace2/Marketplace.sol\":22615:22622  item.id */\n      0x00\n      add\n      mload\n        /* \"contracts/Marketplace2/Marketplace.sol\":22677:22687  nftAddress */\n      dup14\n        /* \"contracts/Marketplace2/Marketplace.sol\":22701:22705  item */\n      dup10\n        /* \"contracts/Marketplace2/Marketplace.sol\":22701:22715  item.priceAnta */\n      0x80\n      add\n      mload\n        /* \"contracts/Marketplace2/Marketplace.sol\":22729:22743  antaFeePercent */\n      0x03\n      0x15\n      swap1\n      sload\n      swap1\n      0x0100\n      exp\n      swap1\n      div\n      0xff\n      and\n        /* \"contracts/Marketplace2/Marketplace.sol\":22757:22760  fee */\n      dup10\n        /* \"contracts/Marketplace2/Marketplace.sol\":22814:22829  block.timestamp */\n      timestamp\n        /* \"contracts/Marketplace2/Marketplace.sol\":22584:22839  BuyItemSuccessful(... */\n      mload(0x40)\n      tag_297\n      swap7\n      swap6\n      swap5\n      swap4\n      swap3\n      swap2\n      swap1\n      tag_298\n      jump\t// in\n    tag_297:\n      mload(0x40)\n      dup1\n      swap2\n      sub\n      swap1\n      log4\n        /* \"contracts/Marketplace2/Marketplace.sol\":21665:22846  {... */\n      pop\n      pop\n      pop\n      pop\n      pop\n      pop\n        /* \"contracts/Marketplace2/Marketplace.sol\":21550:22846  function buyItemBySQF(... */\n      pop\n      pop\n      pop\n      jump\t// out\n        /* \"contracts/Marketplace2/Marketplace.sol\":2560:2758  function transferOwnership(address newOwner) public virtual onlyOwner {... */\n    tag_108:\n        /* \"contracts/Marketplace2/Marketplace.sol\":1901:1913  _msgSender() */\n      tag_300\n        /* \"contracts/Marketplace2/Marketplace.sol\":1901:1911  _msgSender */\n      tag_224\n        /* \"contracts/Marketplace2/Marketplace.sol\":1901:1913  _msgSender() */\n      jump\t// in\n    tag_300:\n        /* \"contracts/Marketplace2/Marketplace.sol\":1890:1913  owner() == _msgSender() */\n      0xffffffffffffffffffffffffffffffffffffffff\n      and\n        /* \"contracts/Marketplace2/Marketplace.sol\":1890:1897  owner() */\n      tag_301\n        /* \"contracts/Marketplace2/Marketplace.sol\":1890:1895  owner */\n      tag_81\n        /* \"contracts/Marketplace2/Marketplace.sol\":1890:1897  owner() */\n      jump\t// in\n    tag_301:\n        /* \"contracts/Marketplace2/Marketplace.sol\":1890:1913  owner() == _msgSender() */\n      0xffffffffffffffffffffffffffffffffffffffff\n      and\n      eq\n        /* \"contracts/Marketplace2/Marketplace.sol\":1882:1950  require(owner() == _msgSender(), \"Ownable: caller is not the owner\") */\n      tag_302\n      jumpi\n      mload(0x40)\n      0x08c379a000000000000000000000000000000000000000000000000000000000\n      dup2\n      mstore\n      0x04\n      add\n      tag_303\n      swap1\n      tag_228\n      jump\t// in\n    tag_303:\n      mload(0x40)\n      dup1\n      swap2\n      sub\n      swap1\n      revert\n    tag_302:\n        /* \"contracts/Marketplace2/Marketplace.sol\":2668:2669  0 */\n      0x00\n        /* \"contracts/Marketplace2/Marketplace.sol\":2648:2670  newOwner != address(0) */\n      0xffffffffffffffffffffffffffffffffffffffff\n      and\n        /* \"contracts/Marketplace2/Marketplace.sol\":2648:2656  newOwner */\n      dup2\n        /* \"contracts/Marketplace2/Marketplace.sol\":2648:2670  newOwner != address(0) */\n      0xffffffffffffffffffffffffffffffffffffffff\n      and\n      sub\n        /* \"contracts/Marketplace2/Marketplace.sol\":2640:2713  require(newOwner != address(0), \"Ownable: new owner is the zero address\") */\n      tag_305\n      jumpi\n      mload(0x40)\n      0x08c379a000000000000000000000000000000000000000000000000000000000\n      dup2\n      mstore\n      0x04\n      add\n      tag_306\n      swap1\n      tag_307\n      jump\t// in\n    tag_306:\n      mload(0x40)\n      dup1\n      swap2\n      sub\n      swap1\n      revert\n    tag_305:\n        /* \"contracts/Marketplace2/Marketplace.sol\":2723:2751  _transferOwnership(newOwner) */\n      tag_308\n        /* \"contracts/Marketplace2/Marketplace.sol\":2742:2750  newOwner */\n      dup2\n        /* \"contracts/Marketplace2/Marketplace.sol\":2723:2741  _transferOwnership */\n      tag_231\n        /* \"contracts/Marketplace2/Marketplace.sol\":2723:2751  _transferOwnership(newOwner) */\n      jump\t// in\n    tag_308:\n        /* \"contracts/Marketplace2/Marketplace.sol\":2560:2758  function transferOwnership(address newOwner) public virtual onlyOwner {... */\n      pop\n      jump\t// out\n        /* \"contracts/Marketplace2/Marketplace.sol\":11853:11965  function current(Counter storage counter) internal view returns (uint256) {... */\n    tag_111:\n        /* \"contracts/Marketplace2/Marketplace.sol\":11918:11925  uint256 */\n      0x00\n        /* \"contracts/Marketplace2/Marketplace.sol\":11944:11951  counter */\n      dup2\n        /* \"contracts/Marketplace2/Marketplace.sol\":11944:11958  counter._value */\n      0x00\n      add\n      sload\n        /* \"contracts/Marketplace2/Marketplace.sol\":11937:11958  return counter._value */\n      swap1\n      pop\n        /* \"contracts/Marketplace2/Marketplace.sol\":11853:11965  function current(Counter storage counter) internal view returns (uint256) {... */\n      swap2\n      swap1\n      pop\n      jump\t// out\n        /* \"contracts/Marketplace2/Marketplace.sol\":11971:12094  function increment(Counter storage counter) internal {... */\n    tag_171:\n        /* \"contracts/Marketplace2/Marketplace.sol\":12076:12077  1 */\n      0x01\n        /* \"contracts/Marketplace2/Marketplace.sol\":12058:12065  counter */\n      dup2\n        /* \"contracts/Marketplace2/Marketplace.sol\":12058:12072  counter._value */\n      0x00\n      add\n      0x00\n        /* \"contracts/Marketplace2/Marketplace.sol\":12058:12077  counter._value += 1 */\n      dup3\n      dup3\n      sload\n      add\n      swap3\n      pop\n      pop\n      dup2\n      swap1\n      sstore\n      pop\n        /* \"contracts/Marketplace2/Marketplace.sol\":11971:12094  function increment(Counter storage counter) internal {... */\n      pop\n      jump\t// out\n        /* \"contracts/Marketplace2/Marketplace.sol\":22852:23241  function _requireERC721(address nftAddress) internal view {... */\n    tag_182:\n        /* \"contracts/Marketplace2/Marketplace.sol\":22941:22963  isContract(nftAddress) */\n      tag_312\n        /* \"contracts/Marketplace2/Marketplace.sol\":22952:22962  nftAddress */\n      dup2\n        /* \"contracts/Marketplace2/Marketplace.sol\":22941:22951  isContract */\n      tag_313\n        /* \"contracts/Marketplace2/Marketplace.sol\":22941:22963  isContract(nftAddress) */\n      jump\t// in\n    tag_312:\n        /* \"contracts/Marketplace2/Marketplace.sol\":22920:23025  require(... */\n      tag_314\n      jumpi\n      mload(0x40)\n      0x08c379a000000000000000000000000000000000000000000000000000000000\n      dup2\n      mstore\n      0x04\n      add\n      tag_315\n      swap1\n      tag_316\n      jump\t// in\n    tag_315:\n      mload(0x40)\n      dup1\n      swap2\n      sub\n      swap1\n      revert\n    tag_314:\n        /* \"contracts/Marketplace2/Marketplace.sol\":23036:23055  IERC721 nftRegistry */\n      0x00\n        /* \"contracts/Marketplace2/Marketplace.sol\":23066:23076  nftAddress */\n      dup2\n        /* \"contracts/Marketplace2/Marketplace.sol\":23036:23077  IERC721 nftRegistry = IERC721(nftAddress) */\n      swap1\n      pop\n        /* \"contracts/Marketplace2/Marketplace.sol\":23108:23119  nftRegistry */\n      dup1\n        /* \"contracts/Marketplace2/Marketplace.sol\":23108:23137  nftRegistry.supportsInterface */\n      0xffffffffffffffffffffffffffffffffffffffff\n      and\n      0x01ffc9a7\n        /* \"contracts/Marketplace2/Marketplace.sol\":15820:15830  0x80ac58cd */\n      0x80ac58cd\n        /* \"contracts/Marketplace2/Marketplace.sol\":15813:15831  bytes4(0x80ac58cd) */\n      0xe0\n      shl\n        /* \"contracts/Marketplace2/Marketplace.sol\":23108:23155  nftRegistry.supportsInterface(ERC721_Interface) */\n      mload(0x40)\n      dup3\n      0xffffffff\n      and\n      0xe0\n      shl\n      dup2\n      mstore\n      0x04\n      add\n      tag_317\n      swap2\n      swap1\n      tag_48\n      jump\t// in\n    tag_317:\n      0x20\n      mload(0x40)\n      dup1\n      dup4\n      sub\n      dup2\n      dup7\n      gas\n      staticcall\n      iszero\n      dup1\n      iszero\n      tag_319\n      jumpi\n      returndatasize\n      0x00\n      dup1\n      returndatacopy\n      revert(0x00, returndatasize)\n    tag_319:\n      pop\n      pop\n      pop\n      pop\n      mload(0x40)\n      returndatasize\n      not(0x1f)\n      0x1f\n      dup3\n      add\n      and\n      dup3\n      add\n      dup1\n      0x40\n      mstore\n      pop\n      dup2\n      add\n      swap1\n      tag_320\n      swap2\n      swap1\n      tag_286\n      jump\t// in\n    tag_320:\n        /* \"contracts/Marketplace2/Marketplace.sol\":23087:23234  require(... */\n      tag_321\n      jumpi\n      mload(0x40)\n      0x08c379a000000000000000000000000000000000000000000000000000000000\n      dup2\n      mstore\n      0x04\n      add\n      tag_322\n      swap1\n      tag_323\n      jump\t// in\n    tag_322:\n      mload(0x40)\n      dup1\n      swap2\n      sub\n      swap1\n      revert\n    tag_321:\n        /* \"contracts/Marketplace2/Marketplace.sol\":22910:23241  {... */\n      pop\n        /* \"contracts/Marketplace2/Marketplace.sol\":22852:23241  function _requireERC721(address nftAddress) internal view {... */\n      pop\n      jump\t// out\n        /* \"contracts/Marketplace2/Marketplace.sol\":23405:24039  function _createItem(... */\n    tag_205:\n        /* \"contracts/Marketplace2/Marketplace.sol\":23578:23592  bytes32 itemId */\n      0x00\n        /* \"contracts/Marketplace2/Marketplace.sol\":23652:23667  block.timestamp */\n      timestamp\n        /* \"contracts/Marketplace2/Marketplace.sol\":23685:23691  seller */\n      dup7\n        /* \"contracts/Marketplace2/Marketplace.sol\":23709:23716  assetId */\n      dup7\n        /* \"contracts/Marketplace2/Marketplace.sol\":23734:23744  nftAddress */\n      dup7\n        /* \"contracts/Marketplace2/Marketplace.sol\":23762:23767  price */\n      dup7\n        /* \"contracts/Marketplace2/Marketplace.sol\":23618:23781  abi.encodePacked(... */\n      add(0x20, mload(0x40))\n      tag_325\n      swap6\n      swap5\n      swap4\n      swap3\n      swap2\n      swap1\n      tag_326\n      jump\t// in\n    tag_325:\n      mload(0x40)\n      0x20\n      dup2\n      dup4\n      sub\n      sub\n      dup2\n      mstore\n      swap1\n      0x40\n      mstore\n        /* \"contracts/Marketplace2/Marketplace.sol\":23595:23791  keccak256(... */\n      dup1\n      mload\n      swap1\n      0x20\n      add\n      keccak256\n        /* \"contracts/Marketplace2/Marketplace.sol\":23578:23791  bytes32 itemId = keccak256(... */\n      swap1\n      pop\n        /* \"contracts/Marketplace2/Marketplace.sol\":23831:24032  Item({... */\n      mload(0x40)\n      dup1\n      0xc0\n      add\n      0x40\n      mstore\n      dup1\n        /* \"contracts/Marketplace2/Marketplace.sol\":23854:23860  itemId */\n      dup3\n        /* \"contracts/Marketplace2/Marketplace.sol\":23831:24032  Item({... */\n      dup2\n      mstore\n      0x20\n      add\n        /* \"contracts/Marketplace2/Marketplace.sol\":23882:23888  seller */\n      dup8\n        /* \"contracts/Marketplace2/Marketplace.sol\":23831:24032  Item({... */\n      0xffffffffffffffffffffffffffffffffffffffff\n      and\n      dup2\n      mstore\n      0x20\n      add\n        /* \"contracts/Marketplace2/Marketplace.sol\":23914:23924  nftAddress */\n      dup6\n        /* \"contracts/Marketplace2/Marketplace.sol\":23831:24032  Item({... */\n      0xffffffffffffffffffffffffffffffffffffffff\n      and\n      dup2\n      mstore\n      0x20\n      add\n        /* \"contracts/Marketplace2/Marketplace.sol\":23945:23950  price */\n      dup5\n        /* \"contracts/Marketplace2/Marketplace.sol\":23831:24032  Item({... */\n      dup2\n      mstore\n      0x20\n      add\n        /* \"contracts/Marketplace2/Marketplace.sol\":23975:23984  priceAnta */\n      dup4\n        /* \"contracts/Marketplace2/Marketplace.sol\":23831:24032  Item({... */\n      dup2\n      mstore\n      0x20\n      add\n        /* \"contracts/Marketplace2/Marketplace.sol\":24006:24021  ItemStatus.LIST */\n      0x01\n        /* \"contracts/Marketplace2/Marketplace.sol\":23831:24032  Item({... */\n      0x04\n      dup2\n      gt\n      iszero\n      tag_327\n      jumpi\n      tag_328\n      tag_200\n      jump\t// in\n    tag_328:\n    tag_327:\n      dup2\n      mstore\n      pop\n        /* \"contracts/Marketplace2/Marketplace.sol\":23802:23807  items */\n      0x01\n        /* \"contracts/Marketplace2/Marketplace.sol\":23802:23819  items[nftAddress] */\n      0x00\n        /* \"contracts/Marketplace2/Marketplace.sol\":23808:23818  nftAddress */\n      dup7\n        /* \"contracts/Marketplace2/Marketplace.sol\":23802:23819  items[nftAddress] */\n      0xffffffffffffffffffffffffffffffffffffffff\n      and\n      0xffffffffffffffffffffffffffffffffffffffff\n      and\n      dup2\n      mstore\n      0x20\n      add\n      swap1\n      dup2\n      mstore\n      0x20\n      add\n      0x00\n      keccak256\n        /* \"contracts/Marketplace2/Marketplace.sol\":23802:23828  items[nftAddress][assetId] */\n      0x00\n        /* \"contracts/Marketplace2/Marketplace.sol\":23820:23827  assetId */\n      dup8\n        /* \"contracts/Marketplace2/Marketplace.sol\":23802:23828  items[nftAddress][assetId] */\n      dup2\n      mstore\n      0x20\n      add\n      swap1\n      dup2\n      mstore\n      0x20\n      add\n      0x00\n      keccak256\n        /* \"contracts/Marketplace2/Marketplace.sol\":23802:24032  items[nftAddress][assetId] = Item({... */\n      0x00\n      dup3\n      add\n      mload\n      dup2\n      0x00\n      add\n      sstore\n      0x20\n      dup3\n      add\n      mload\n      dup2\n      0x01\n      add\n      exp(0x0100, 0x00)\n      dup2\n      sload\n      dup2\n      0xffffffffffffffffffffffffffffffffffffffff\n      mul\n      not\n      and\n      swap1\n      dup4\n      0xffffffffffffffffffffffffffffffffffffffff\n      and\n      mul\n      or\n      swap1\n      sstore\n      pop\n      0x40\n      dup3\n      add\n      mload\n      dup2\n      0x02\n      add\n      exp(0x0100, 0x00)\n      dup2\n      sload\n      dup2\n      0xffffffffffffffffffffffffffffffffffffffff\n      mul\n      not\n      and\n      swap1\n      dup4\n      0xffffffffffffffffffffffffffffffffffffffff\n      and\n      mul\n      or\n      swap1\n      sstore\n      pop\n      0x60\n      dup3\n      add\n      mload\n      dup2\n      0x03\n      add\n      sstore\n      0x80\n      dup3\n      add\n      mload\n      dup2\n      0x04\n      add\n      sstore\n      0xa0\n      dup3\n      add\n      mload\n      dup2\n      0x05\n      add\n      exp(0x0100, 0x00)\n      dup2\n      sload\n      dup2\n      0xff\n      mul\n      not\n      and\n      swap1\n      dup4\n      0x04\n      dup2\n      gt\n      iszero\n      tag_329\n      jumpi\n      tag_330\n      tag_200\n      jump\t// in\n    tag_330:\n    tag_329:\n      mul\n      or\n      swap1\n      sstore\n      pop\n      swap1\n      pop\n      pop\n        /* \"contracts/Marketplace2/Marketplace.sol\":23568:24039  {... */\n      pop\n        /* \"contracts/Marketplace2/Marketplace.sol\":23405:24039  function _createItem(... */\n      pop\n      pop\n      pop\n      pop\n      pop\n      jump\t// out\n        /* \"contracts/Marketplace2/Marketplace.sol\":556:652  function _msgSender() internal view virtual returns (address) {... */\n    tag_224:\n        /* \"contracts/Marketplace2/Marketplace.sol\":609:616  address */\n      0x00\n        /* \"contracts/Marketplace2/Marketplace.sol\":635:645  msg.sender */\n      caller\n        /* \"contracts/Marketplace2/Marketplace.sol\":628:645  return msg.sender */\n      swap1\n      pop\n        /* \"contracts/Marketplace2/Marketplace.sol\":556:652  function _msgSender() internal view virtual returns (address) {... */\n      swap1\n      jump\t// out\n        /* \"contracts/Marketplace2/Marketplace.sol\":2912:3099  function _transferOwnership(address newOwner) internal virtual {... */\n    tag_231:\n        /* \"contracts/Marketplace2/Marketplace.sol\":2985:3001  address oldOwner */\n      0x00\n        /* \"contracts/Marketplace2/Marketplace.sol\":3004:3010  _owner */\n      0x04\n      0x00\n      swap1\n      sload\n      swap1\n      0x0100\n      exp\n      swap1\n      div\n      0xffffffffffffffffffffffffffffffffffffffff\n      and\n        /* \"contracts/Marketplace2/Marketplace.sol\":2985:3010  address oldOwner = _owner */\n      swap1\n      pop\n        /* \"contracts/Marketplace2/Marketplace.sol\":3029:3037  newOwner */\n      dup2\n        /* \"contracts/Marketplace2/Marketplace.sol\":3020:3026  _owner */\n      0x04\n      0x00\n        /* \"contracts/Marketplace2/Marketplace.sol\":3020:3037  _owner = newOwner */\n      0x0100\n      exp\n      dup2\n      sload\n      dup2\n      0xffffffffffffffffffffffffffffffffffffffff\n      mul\n      not\n      and\n      swap1\n      dup4\n      0xffffffffffffffffffffffffffffffffffffffff\n      and\n      mul\n      or\n      swap1\n      sstore\n      pop\n        /* \"contracts/Marketplace2/Marketplace.sol\":3083:3091  newOwner */\n      dup2\n        /* \"contracts/Marketplace2/Marketplace.sol\":3052:3092  OwnershipTransferred(oldOwner, newOwner) */\n      0xffffffffffffffffffffffffffffffffffffffff\n      and\n        /* \"contracts/Marketplace2/Marketplace.sol\":3073:3081  oldOwner */\n      dup2\n        /* \"contracts/Marketplace2/Marketplace.sol\":3052:3092  OwnershipTransferred(oldOwner, newOwner) */\n      0xffffffffffffffffffffffffffffffffffffffff\n      and\n      0x8be0079c531659141344cd1fd0a4f28419497f9722a3daafe3b4186f6b6457e0\n      mload(0x40)\n      mload(0x40)\n      dup1\n      swap2\n      sub\n      swap1\n      log3\n        /* \"contracts/Marketplace2/Marketplace.sol\":2975:3099  {... */\n      pop\n        /* \"contracts/Marketplace2/Marketplace.sol\":2912:3099  function _transferOwnership(address newOwner) internal virtual {... */\n      pop\n      jump\t// out\n        /* \"contracts/Marketplace2/Marketplace.sol\":23247:23404  function isContract(address _addr) private view returns (bool){... */\n    tag_313:\n        /* \"contracts/Marketplace2/Marketplace.sol\":23304:23308  bool */\n      0x00\n        /* \"contracts/Marketplace2/Marketplace.sol\":23315:23326  uint32 size */\n      dup1\n        /* \"contracts/Marketplace2/Marketplace.sol\":23367:23372  _addr */\n      dup3\n        /* \"contracts/Marketplace2/Marketplace.sol\":23355:23373  extcodesize(_addr) */\n      extcodesize\n        /* \"contracts/Marketplace2/Marketplace.sol\":23347:23373  size := extcodesize(_addr) */\n      swap1\n      pop\n        /* \"contracts/Marketplace2/Marketplace.sol\":23399:23400  0 */\n      0x00\n        /* \"contracts/Marketplace2/Marketplace.sol\":23392:23396  size */\n      dup2\n        /* \"contracts/Marketplace2/Marketplace.sol\":23392:23400  size > 0 */\n      0xffffffff\n      and\n      gt\n        /* \"contracts/Marketplace2/Marketplace.sol\":23384:23401  return (size > 0) */\n      swap2\n      pop\n      pop\n        /* \"contracts/Marketplace2/Marketplace.sol\":23247:23404  function isContract(address _addr) private view returns (bool){... */\n      swap2\n      swap1\n      pop\n      jump\t// out\n    tag_122:\n      mload(0x40)\n      dup1\n      0xc0\n      add\n      0x40\n      mstore\n      dup1\n      0x00\n      dup2\n      mstore\n      0x20\n      add\n      and(0xffffffffffffffffffffffffffffffffffffffff, 0x00)\n      dup2\n      mstore\n      0x20\n      add\n      0x00\n      dup2\n      mstore\n      0x20\n      add\n      and(0xffffffffffffffffffffffffffffffffffffffff, 0x00)\n      dup2\n      mstore\n      0x20\n      add\n      and(0xffffffffffffffffffffffffffffffffffffffff, 0x00)\n      dup2\n      mstore\n      0x20\n      add\n      0x00\n      dup2\n      mstore\n      pop\n      swap1\n      jump\t// out\n        /* \"#utility.yul\":7:148   */\n    tag_334:\n        /* \"#utility.yul\":101:107   */\n      0x00\n        /* \"#utility.yul\":135:140   */\n      dup2\n        /* \"#utility.yul\":129:141   */\n      mload\n        /* \"#utility.yul\":119:141   */\n      swap1\n      pop\n        /* \"#utility.yul\":7:148   */\n      swap2\n      swap1\n      pop\n      jump\t// out\n        /* \"#utility.yul\":154:365   */\n    tag_335:\n        /* \"#utility.yul\":280:291   */\n      0x00\n        /* \"#utility.yul\":314:320   */\n      dup3\n        /* \"#utility.yul\":309:312   */\n      dup3\n        /* \"#utility.yul\":302:321   */\n      mstore\n        /* \"#utility.yul\":354:358   */\n      0x20\n        /* \"#utility.yul\":349:352   */\n      dup3\n        /* \"#utility.yul\":345:359   */\n      add\n        /* \"#utility.yul\":330:359   */\n      swap1\n      pop\n        /* \"#utility.yul\":154:365   */\n      swap3\n      swap2\n      pop\n      pop\n      jump\t// out\n        /* \"#utility.yul\":371:530   */\n    tag_336:\n        /* \"#utility.yul\":465:469   */\n      0x00\n        /* \"#utility.yul\":488:491   */\n      dup2\n        /* \"#utility.yul\":480:491   */\n      swap1\n      pop\n        /* \"#utility.yul\":518:522   */\n      0x20\n        /* \"#utility.yul\":513:516   */\n      dup3\n        /* \"#utility.yul\":509:523   */\n      add\n        /* \"#utility.yul\":501:523   */\n      swap1\n      pop\n        /* \"#utility.yul\":371:530   */\n      swap2\n      swap1\n      pop\n      jump\t// out\n        /* \"#utility.yul\":536:613   */\n    tag_337:\n        /* \"#utility.yul\":573:580   */\n      0x00\n        /* \"#utility.yul\":602:607   */\n      dup2\n        /* \"#utility.yul\":591:607   */\n      swap1\n      pop\n        /* \"#utility.yul\":536:613   */\n      swap2\n      swap1\n      pop\n      jump\t// out\n        /* \"#utility.yul\":619:727   */\n    tag_338:\n        /* \"#utility.yul\":696:720   */\n      tag_422\n        /* \"#utility.yul\":714:719   */\n      dup2\n        /* \"#utility.yul\":696:720   */\n      tag_337\n      jump\t// in\n    tag_422:\n        /* \"#utility.yul\":691:694   */\n      dup3\n        /* \"#utility.yul\":684:721   */\n      mstore\n        /* \"#utility.yul\":619:727   */\n      pop\n      pop\n      jump\t// out\n        /* \"#utility.yul\":733:859   */\n    tag_339:\n        /* \"#utility.yul\":770:777   */\n      0x00\n        /* \"#utility.yul\":810:852   */\n      0xffffffffffffffffffffffffffffffffffffffff\n        /* \"#utility.yul\":803:808   */\n      dup3\n        /* \"#utility.yul\":799:853   */\n      and\n        /* \"#utility.yul\":788:853   */\n      swap1\n      pop\n        /* \"#utility.yul\":733:859   */\n      swap2\n      swap1\n      pop\n      jump\t// out\n        /* \"#utility.yul\":865:961   */\n    tag_340:\n        /* \"#utility.yul\":902:909   */\n      0x00\n        /* \"#utility.yul\":931:955   */\n      tag_425\n        /* \"#utility.yul\":949:954   */\n      dup3\n        /* \"#utility.yul\":931:955   */\n      tag_339\n      jump\t// in\n    tag_425:\n        /* \"#utility.yul\":920:955   */\n      swap1\n      pop\n        /* \"#utility.yul\":865:961   */\n      swap2\n      swap1\n      pop\n      jump\t// out\n        /* \"#utility.yul\":967:1075   */\n    tag_341:\n        /* \"#utility.yul\":1044:1068   */\n      tag_427\n        /* \"#utility.yul\":1062:1067   */\n      dup2\n        /* \"#utility.yul\":1044:1068   */\n      tag_340\n      jump\t// in\n    tag_427:\n        /* \"#utility.yul\":1039:1042   */\n      dup3\n        /* \"#utility.yul\":1032:1069   */\n      mstore\n        /* \"#utility.yul\":967:1075   */\n      pop\n      pop\n      jump\t// out\n        /* \"#utility.yul\":1081:1185   */\n    tag_342:\n        /* \"#utility.yul\":1126:1133   */\n      0x00\n        /* \"#utility.yul\":1155:1179   */\n      tag_429\n        /* \"#utility.yul\":1173:1178   */\n      dup3\n        /* \"#utility.yul\":1155:1179   */\n      tag_339\n      jump\t// in\n    tag_429:\n        /* \"#utility.yul\":1144:1179   */\n      swap1\n      pop\n        /* \"#utility.yul\":1081:1185   */\n      swap2\n      swap1\n      pop\n      jump\t// out\n        /* \"#utility.yul\":1191:1323   */\n    tag_343:\n        /* \"#utility.yul\":1284:1316   */\n      tag_431\n        /* \"#utility.yul\":1310:1315   */\n      dup2\n        /* \"#utility.yul\":1284:1316   */\n      tag_342\n      jump\t// in\n    tag_431:\n        /* \"#utility.yul\":1279:1282   */\n      dup3\n        /* \"#utility.yul\":1272:1317   */\n      mstore\n        /* \"#utility.yul\":1191:1323   */\n      pop\n      pop\n      jump\t// out\n        /* \"#utility.yul\":1395:2640   */\n    tag_344:\n        /* \"#utility.yul\":1536:1540   */\n      0xc0\n        /* \"#utility.yul\":1531:1534   */\n      dup3\n        /* \"#utility.yul\":1527:1541   */\n      add\n        /* \"#utility.yul\":1625:1629   */\n      0x00\n        /* \"#utility.yul\":1618:1623   */\n      dup3\n        /* \"#utility.yul\":1614:1630   */\n      add\n        /* \"#utility.yul\":1608:1631   */\n      mload\n        /* \"#utility.yul\":1644:1707   */\n      tag_433\n        /* \"#utility.yul\":1701:1705   */\n      0x00\n        /* \"#utility.yul\":1696:1699   */\n      dup6\n        /* \"#utility.yul\":1692:1706   */\n      add\n        /* \"#utility.yul\":1678:1690   */\n      dup3\n        /* \"#utility.yul\":1644:1707   */\n      tag_338\n      jump\t// in\n    tag_433:\n        /* \"#utility.yul\":1551:1717   */\n      pop\n        /* \"#utility.yul\":1806:1810   */\n      0x20\n        /* \"#utility.yul\":1799:1804   */\n      dup3\n        /* \"#utility.yul\":1795:1811   */\n      add\n        /* \"#utility.yul\":1789:1812   */\n      mload\n        /* \"#utility.yul\":1825:1888   */\n      tag_434\n        /* \"#utility.yul\":1882:1886   */\n      0x20\n        /* \"#utility.yul\":1877:1880   */\n      dup6\n        /* \"#utility.yul\":1873:1887   */\n      add\n        /* \"#utility.yul\":1859:1871   */\n      dup3\n        /* \"#utility.yul\":1825:1888   */\n      tag_341\n      jump\t// in\n    tag_434:\n        /* \"#utility.yul\":1727:1898   */\n      pop\n        /* \"#utility.yul\":1983:1987   */\n      0x40\n        /* \"#utility.yul\":1976:1981   */\n      dup3\n        /* \"#utility.yul\":1972:1988   */\n      add\n        /* \"#utility.yul\":1966:1989   */\n      mload\n        /* \"#utility.yul\":2002:2065   */\n      tag_435\n        /* \"#utility.yul\":2059:2063   */\n      0x40\n        /* \"#utility.yul\":2054:2057   */\n      dup6\n        /* \"#utility.yul\":2050:2064   */\n      add\n        /* \"#utility.yul\":2036:2048   */\n      dup3\n        /* \"#utility.yul\":2002:2065   */\n      tag_338\n      jump\t// in\n    tag_435:\n        /* \"#utility.yul\":1908:2075   */\n      pop\n        /* \"#utility.yul\":2159:2163   */\n      0x60\n        /* \"#utility.yul\":2152:2157   */\n      dup3\n        /* \"#utility.yul\":2148:2164   */\n      add\n        /* \"#utility.yul\":2142:2165   */\n      mload\n        /* \"#utility.yul\":2178:2257   */\n      tag_436\n        /* \"#utility.yul\":2251:2255   */\n      0x60\n        /* \"#utility.yul\":2246:2249   */\n      dup6\n        /* \"#utility.yul\":2242:2256   */\n      add\n        /* \"#utility.yul\":2228:2240   */\n      dup3\n        /* \"#utility.yul\":2178:2257   */\n      tag_343\n      jump\t// in\n    tag_436:\n        /* \"#utility.yul\":2085:2267   */\n      pop\n        /* \"#utility.yul\":2350:2354   */\n      0x80\n        /* \"#utility.yul\":2343:2348   */\n      dup3\n        /* \"#utility.yul\":2339:2355   */\n      add\n        /* \"#utility.yul\":2333:2356   */\n      mload\n        /* \"#utility.yul\":2369:2448   */\n      tag_437\n        /* \"#utility.yul\":2442:2446   */\n      0x80\n        /* \"#utility.yul\":2437:2440   */\n      dup6\n        /* \"#utility.yul\":2433:2447   */\n      add\n        /* \"#utility.yul\":2419:2431   */\n      dup3\n        /* \"#utility.yul\":2369:2448   */\n      tag_343\n      jump\t// in\n    tag_437:\n        /* \"#utility.yul\":2277:2458   */\n      pop\n        /* \"#utility.yul\":2541:2545   */\n      0xa0\n        /* \"#utility.yul\":2534:2539   */\n      dup3\n        /* \"#utility.yul\":2530:2546   */\n      add\n        /* \"#utility.yul\":2524:2547   */\n      mload\n        /* \"#utility.yul\":2560:2623   */\n      tag_438\n        /* \"#utility.yul\":2617:2621   */\n      0xa0\n        /* \"#utility.yul\":2612:2615   */\n      dup6\n        /* \"#utility.yul\":2608:2622   */\n      add\n        /* \"#utility.yul\":2594:2606   */\n      dup3\n        /* \"#utility.yul\":2560:2623   */\n      tag_338\n      jump\t// in\n    tag_438:\n        /* \"#utility.yul\":2468:2633   */\n      pop\n        /* \"#utility.yul\":1505:2640   */\n      pop\n        /* \"#utility.yul\":1395:2640   */\n      pop\n      pop\n      jump\t// out\n        /* \"#utility.yul\":2646:2933   */\n    tag_345:\n        /* \"#utility.yul\":2769:2779   */\n      0x00\n        /* \"#utility.yul\":2790:2890   */\n      tag_440\n        /* \"#utility.yul\":2886:2889   */\n      dup4\n        /* \"#utility.yul\":2878:2884   */\n      dup4\n        /* \"#utility.yul\":2790:2890   */\n      tag_344\n      jump\t// in\n    tag_440:\n        /* \"#utility.yul\":2922:2926   */\n      0xc0\n        /* \"#utility.yul\":2917:2920   */\n      dup4\n        /* \"#utility.yul\":2913:2927   */\n      add\n        /* \"#utility.yul\":2899:2927   */\n      swap1\n      pop\n        /* \"#utility.yul\":2646:2933   */\n      swap3\n      swap2\n      pop\n      pop\n      jump\t// out\n        /* \"#utility.yul\":2939:3079   */\n    tag_346:\n        /* \"#utility.yul\":3036:3040   */\n      0x00\n        /* \"#utility.yul\":3068:3072   */\n      0x20\n        /* \"#utility.yul\":3063:3066   */\n      dup3\n        /* \"#utility.yul\":3059:3073   */\n      add\n        /* \"#utility.yul\":3051:3073   */\n      swap1\n      pop\n        /* \"#utility.yul\":2939:3079   */\n      swap2\n      swap1\n      pop\n      jump\t// out\n        /* \"#utility.yul\":3155:4103   */\n    tag_347:\n        /* \"#utility.yul\":3328:3331   */\n      0x00\n        /* \"#utility.yul\":3357:3438   */\n      tag_443\n        /* \"#utility.yul\":3432:3437   */\n      dup3\n        /* \"#utility.yul\":3357:3438   */\n      tag_334\n      jump\t// in\n    tag_443:\n        /* \"#utility.yul\":3454:3567   */\n      tag_444\n        /* \"#utility.yul\":3560:3566   */\n      dup2\n        /* \"#utility.yul\":3555:3558   */\n      dup6\n        /* \"#utility.yul\":3454:3567   */\n      tag_335\n      jump\t// in\n    tag_444:\n        /* \"#utility.yul\":3447:3567   */\n      swap4\n      pop\n        /* \"#utility.yul\":3591:3674   */\n      tag_445\n        /* \"#utility.yul\":3668:3673   */\n      dup4\n        /* \"#utility.yul\":3591:3674   */\n      tag_336\n      jump\t// in\n    tag_445:\n        /* \"#utility.yul\":3697:3704   */\n      dup1\n        /* \"#utility.yul\":3728:3729   */\n      0x00\n        /* \"#utility.yul\":3713:4078   */\n    tag_446:\n        /* \"#utility.yul\":3738:3744   */\n      dup4\n        /* \"#utility.yul\":3735:3736   */\n      dup2\n        /* \"#utility.yul\":3732:3745   */\n      lt\n        /* \"#utility.yul\":3713:4078   */\n      iszero\n      tag_448\n      jumpi\n        /* \"#utility.yul\":3814:3820   */\n      dup2\n        /* \"#utility.yul\":3808:3821   */\n      mload\n        /* \"#utility.yul\":3841:3958   */\n      tag_449\n        /* \"#utility.yul\":3954:3957   */\n      dup9\n        /* \"#utility.yul\":3939:3952   */\n      dup3\n        /* \"#utility.yul\":3841:3958   */\n      tag_345\n      jump\t// in\n    tag_449:\n        /* \"#utility.yul\":3834:3958   */\n      swap8\n      pop\n        /* \"#utility.yul\":3981:4068   */\n      tag_450\n        /* \"#utility.yul\":4061:4067   */\n      dup4\n        /* \"#utility.yul\":3981:4068   */\n      tag_346\n      jump\t// in\n    tag_450:\n        /* \"#utility.yul\":3971:4068   */\n      swap3\n      pop\n        /* \"#utility.yul\":3773:4078   */\n      pop\n        /* \"#utility.yul\":3760:3761   */\n      0x01\n        /* \"#utility.yul\":3757:3758   */\n      dup2\n        /* \"#utility.yul\":3753:3762   */\n      add\n        /* \"#utility.yul\":3748:3762   */\n      swap1\n      pop\n        /* \"#utility.yul\":3713:4078   */\n      jump(tag_446)\n    tag_448:\n        /* \"#utility.yul\":3717:3731   */\n      pop\n        /* \"#utility.yul\":4094:4097   */\n      dup6\n        /* \"#utility.yul\":4087:4097   */\n      swap4\n      pop\n        /* \"#utility.yul\":3333:4103   */\n      pop\n      pop\n      pop\n        /* \"#utility.yul\":3155:4103   */\n      swap3\n      swap2\n      pop\n      pop\n      jump\t// out\n        /* \"#utility.yul\":4109:4590   */\n    tag_27:\n        /* \"#utility.yul\":4306:4310   */\n      0x00\n        /* \"#utility.yul\":4344:4346   */\n      0x20\n        /* \"#utility.yul\":4333:4342   */\n      dup3\n        /* \"#utility.yul\":4329:4347   */\n      add\n        /* \"#utility.yul\":4321:4347   */\n      swap1\n      pop\n        /* \"#utility.yul\":4393:4402   */\n      dup2\n        /* \"#utility.yul\":4387:4391   */\n      dup2\n        /* \"#utility.yul\":4383:4403   */\n      sub\n        /* \"#utility.yul\":4379:4380   */\n      0x00\n        /* \"#utility.yul\":4368:4377   */\n      dup4\n        /* \"#utility.yul\":4364:4381   */\n      add\n        /* \"#utility.yul\":4357:4404   */\n      mstore\n        /* \"#utility.yul\":4421:4583   */\n      tag_452\n        /* \"#utility.yul\":4578:4582   */\n      dup2\n        /* \"#utility.yul\":4569:4575   */\n      dup5\n        /* \"#utility.yul\":4421:4583   */\n      tag_347\n      jump\t// in\n    tag_452:\n        /* \"#utility.yul\":4413:4583   */\n      swap1\n      pop\n        /* \"#utility.yul\":4109:4590   */\n      swap3\n      swap2\n      pop\n      pop\n      jump\t// out\n        /* \"#utility.yul\":4596:4656   */\n    tag_348:\n        /* \"#utility.yul\":4624:4627   */\n      0x00\n        /* \"#utility.yul\":4645:4650   */\n      dup2\n        /* \"#utility.yul\":4638:4650   */\n      swap1\n      pop\n        /* \"#utility.yul\":4596:4656   */\n      swap2\n      swap1\n      pop\n      jump\t// out\n        /* \"#utility.yul\":4662:4804   */\n    tag_349:\n        /* \"#utility.yul\":4712:4721   */\n      0x00\n        /* \"#utility.yul\":4745:4798   */\n      tag_455\n        /* \"#utility.yul\":4763:4797   */\n      tag_456\n        /* \"#utility.yul\":4772:4796   */\n      tag_457\n        /* \"#utility.yul\":4790:4795   */\n      dup5\n        /* \"#utility.yul\":4772:4796   */\n      tag_339\n      jump\t// in\n    tag_457:\n        /* \"#utility.yul\":4763:4797   */\n      tag_348\n      jump\t// in\n    tag_456:\n        /* \"#utility.yul\":4745:4798   */\n      tag_339\n      jump\t// in\n    tag_455:\n        /* \"#utility.yul\":4732:4798   */\n      swap1\n      pop\n        /* \"#utility.yul\":4662:4804   */\n      swap2\n      swap1\n      pop\n      jump\t// out\n        /* \"#utility.yul\":4810:4936   */\n    tag_350:\n        /* \"#utility.yul\":4860:4869   */\n      0x00\n        /* \"#utility.yul\":4893:4930   */\n      tag_459\n        /* \"#utility.yul\":4924:4929   */\n      dup3\n        /* \"#utility.yul\":4893:4930   */\n      tag_349\n      jump\t// in\n    tag_459:\n        /* \"#utility.yul\":4880:4930   */\n      swap1\n      pop\n        /* \"#utility.yul\":4810:4936   */\n      swap2\n      swap1\n      pop\n      jump\t// out\n        /* \"#utility.yul\":4942:5082   */\n    tag_351:\n        /* \"#utility.yul\":5006:5015   */\n      0x00\n        /* \"#utility.yul\":5039:5076   */\n      tag_461\n        /* \"#utility.yul\":5070:5075   */\n      dup3\n        /* \"#utility.yul\":5039:5076   */\n      tag_350\n      jump\t// in\n    tag_461:\n        /* \"#utility.yul\":5026:5076   */\n      swap1\n      pop\n        /* \"#utility.yul\":4942:5082   */\n      swap2\n      swap1\n      pop\n      jump\t// out\n        /* \"#utility.yul\":5088:5247   */\n    tag_352:\n        /* \"#utility.yul\":5189:5240   */\n      tag_463\n        /* \"#utility.yul\":5234:5239   */\n      dup2\n        /* \"#utility.yul\":5189:5240   */\n      tag_351\n      jump\t// in\n    tag_463:\n        /* \"#utility.yul\":5184:5187   */\n      dup3\n        /* \"#utility.yul\":5177:5241   */\n      mstore\n        /* \"#utility.yul\":5088:5247   */\n      pop\n      pop\n      jump\t// out\n        /* \"#utility.yul\":5253:5503   */\n    tag_32:\n        /* \"#utility.yul\":5360:5364   */\n      0x00\n        /* \"#utility.yul\":5398:5400   */\n      0x20\n        /* \"#utility.yul\":5387:5396   */\n      dup3\n        /* \"#utility.yul\":5383:5401   */\n      add\n        /* \"#utility.yul\":5375:5401   */\n      swap1\n      pop\n        /* \"#utility.yul\":5411:5496   */\n      tag_465\n        /* \"#utility.yul\":5493:5494   */\n      0x00\n        /* \"#utility.yul\":5482:5491   */\n      dup4\n        /* \"#utility.yul\":5478:5495   */\n      add\n        /* \"#utility.yul\":5469:5475   */\n      dup5\n        /* \"#utility.yul\":5411:5496   */\n      tag_352\n      jump\t// in\n    tag_465:\n        /* \"#utility.yul\":5253:5503   */\n      swap3\n      swap2\n      pop\n      pop\n      jump\t// out\n        /* \"#utility.yul\":5590:5707   */\n    tag_354:\n        /* \"#utility.yul\":5699:5700   */\n      0x00\n        /* \"#utility.yul\":5696:5697   */\n      dup1\n        /* \"#utility.yul\":5689:5701   */\n      revert\n        /* \"#utility.yul\":5836:5958   */\n    tag_356:\n        /* \"#utility.yul\":5909:5933   */\n      tag_470\n        /* \"#utility.yul\":5927:5932   */\n      dup2\n        /* \"#utility.yul\":5909:5933   */\n      tag_337\n      jump\t// in\n    tag_470:\n        /* \"#utility.yul\":5902:5907   */\n      dup2\n        /* \"#utility.yul\":5899:5934   */\n      eq\n        /* \"#utility.yul\":5889:5952   */\n      tag_471\n      jumpi\n        /* \"#utility.yul\":5948:5949   */\n      0x00\n        /* \"#utility.yul\":5945:5946   */\n      dup1\n        /* \"#utility.yul\":5938:5950   */\n      revert\n        /* \"#utility.yul\":5889:5952   */\n    tag_471:\n        /* \"#utility.yul\":5836:5958   */\n      pop\n      jump\t// out\n        /* \"#utility.yul\":5964:6103   */\n    tag_357:\n        /* \"#utility.yul\":6010:6015   */\n      0x00\n        /* \"#utility.yul\":6048:6054   */\n      dup2\n        /* \"#utility.yul\":6035:6055   */\n      calldataload\n        /* \"#utility.yul\":6026:6055   */\n      swap1\n      pop\n        /* \"#utility.yul\":6064:6097   */\n      tag_473\n        /* \"#utility.yul\":6091:6096   */\n      dup2\n        /* \"#utility.yul\":6064:6097   */\n      tag_356\n      jump\t// in\n    tag_473:\n        /* \"#utility.yul\":5964:6103   */\n      swap3\n      swap2\n      pop\n      pop\n      jump\t// out\n        /* \"#utility.yul\":6109:6438   */\n    tag_40:\n        /* \"#utility.yul\":6168:6174   */\n      0x00\n        /* \"#utility.yul\":6217:6219   */\n      0x20\n        /* \"#utility.yul\":6205:6214   */\n      dup3\n        /* \"#utility.yul\":6196:6203   */\n      dup5\n        /* \"#utility.yul\":6192:6215   */\n      sub\n        /* \"#utility.yul\":6188:6220   */\n      slt\n        /* \"#utility.yul\":6185:6304   */\n      iszero\n      tag_475\n      jumpi\n        /* \"#utility.yul\":6223:6302   */\n      tag_476\n      tag_354\n      jump\t// in\n    tag_476:\n        /* \"#utility.yul\":6185:6304   */\n    tag_475:\n        /* \"#utility.yul\":6343:6344   */\n      0x00\n        /* \"#utility.yul\":6368:6421   */\n      tag_477\n        /* \"#utility.yul\":6413:6420   */\n      dup5\n        /* \"#utility.yul\":6404:6410   */\n      dup3\n        /* \"#utility.yul\":6393:6402   */\n      dup6\n        /* \"#utility.yul\":6389:6411   */\n      add\n        /* \"#utility.yul\":6368:6421   */\n      tag_357\n      jump\t// in\n    tag_477:\n        /* \"#utility.yul\":6358:6421   */\n      swap2\n      pop\n        /* \"#utility.yul\":6314:6431   */\n      pop\n        /* \"#utility.yul\":6109:6438   */\n      swap3\n      swap2\n      pop\n      pop\n      jump\t// out\n        /* \"#utility.yul\":6510:7765   */\n    tag_358:\n        /* \"#utility.yul\":6661:6665   */\n      0xc0\n        /* \"#utility.yul\":6656:6659   */\n      dup3\n        /* \"#utility.yul\":6652:6666   */\n      add\n        /* \"#utility.yul\":6750:6754   */\n      0x00\n        /* \"#utility.yul\":6743:6748   */\n      dup3\n        /* \"#utility.yul\":6739:6755   */\n      add\n        /* \"#utility.yul\":6733:6756   */\n      mload\n        /* \"#utility.yul\":6769:6832   */\n      tag_479\n        /* \"#utility.yul\":6826:6830   */\n      0x00\n        /* \"#utility.yul\":6821:6824   */\n      dup6\n        /* \"#utility.yul\":6817:6831   */\n      add\n        /* \"#utility.yul\":6803:6815   */\n      dup3\n        /* \"#utility.yul\":6769:6832   */\n      tag_338\n      jump\t// in\n    tag_479:\n        /* \"#utility.yul\":6676:6842   */\n      pop\n        /* \"#utility.yul\":6931:6935   */\n      0x20\n        /* \"#utility.yul\":6924:6929   */\n      dup3\n        /* \"#utility.yul\":6920:6936   */\n      add\n        /* \"#utility.yul\":6914:6937   */\n      mload\n        /* \"#utility.yul\":6950:7013   */\n      tag_480\n        /* \"#utility.yul\":7007:7011   */\n      0x20\n        /* \"#utility.yul\":7002:7005   */\n      dup6\n        /* \"#utility.yul\":6998:7012   */\n      add\n        /* \"#utility.yul\":6984:6996   */\n      dup3\n        /* \"#utility.yul\":6950:7013   */\n      tag_341\n      jump\t// in\n    tag_480:\n        /* \"#utility.yul\":6852:7023   */\n      pop\n        /* \"#utility.yul\":7108:7112   */\n      0x40\n        /* \"#utility.yul\":7101:7106   */\n      dup3\n        /* \"#utility.yul\":7097:7113   */\n      add\n        /* \"#utility.yul\":7091:7114   */\n      mload\n        /* \"#utility.yul\":7127:7190   */\n      tag_481\n        /* \"#utility.yul\":7184:7188   */\n      0x40\n        /* \"#utility.yul\":7179:7182   */\n      dup6\n        /* \"#utility.yul\":7175:7189   */\n      add\n        /* \"#utility.yul\":7161:7173   */\n      dup3\n        /* \"#utility.yul\":7127:7190   */\n      tag_338\n      jump\t// in\n    tag_481:\n        /* \"#utility.yul\":7033:7200   */\n      pop\n        /* \"#utility.yul\":7284:7288   */\n      0x60\n        /* \"#utility.yul\":7277:7282   */\n      dup3\n        /* \"#utility.yul\":7273:7289   */\n      add\n        /* \"#utility.yul\":7267:7290   */\n      mload\n        /* \"#utility.yul\":7303:7382   */\n      tag_482\n        /* \"#utility.yul\":7376:7380   */\n      0x60\n        /* \"#utility.yul\":7371:7374   */\n      dup6\n        /* \"#utility.yul\":7367:7381   */\n      add\n        /* \"#utility.yul\":7353:7365   */\n      dup3\n        /* \"#utility.yul\":7303:7382   */\n      tag_343\n      jump\t// in\n    tag_482:\n        /* \"#utility.yul\":7210:7392   */\n      pop\n        /* \"#utility.yul\":7475:7479   */\n      0x80\n        /* \"#utility.yul\":7468:7473   */\n      dup3\n        /* \"#utility.yul\":7464:7480   */\n      add\n        /* \"#utility.yul\":7458:7481   */\n      mload\n        /* \"#utility.yul\":7494:7573   */\n      tag_483\n        /* \"#utility.yul\":7567:7571   */\n      0x80\n        /* \"#utility.yul\":7562:7565   */\n      dup6\n        /* \"#utility.yul\":7558:7572   */\n      add\n        /* \"#utility.yul\":7544:7556   */\n      dup3\n        /* \"#utility.yul\":7494:7573   */\n      tag_343\n      jump\t// in\n    tag_483:\n        /* \"#utility.yul\":7402:7583   */\n      pop\n        /* \"#utility.yul\":7666:7670   */\n      0xa0\n        /* \"#utility.yul\":7659:7664   */\n      dup3\n        /* \"#utility.yul\":7655:7671   */\n      add\n        /* \"#utility.yul\":7649:7672   */\n      mload\n        /* \"#utility.yul\":7685:7748   */\n      tag_484\n        /* \"#utility.yul\":7742:7746   */\n      0xa0\n        /* \"#utility.yul\":7737:7740   */\n      dup6\n        /* \"#utility.yul\":7733:7747   */\n      add\n        /* \"#utility.yul\":7719:7731   */\n      dup3\n        /* \"#utility.yul\":7685:7748   */\n      tag_338\n      jump\t// in\n    tag_484:\n        /* \"#utility.yul\":7593:7758   */\n      pop\n        /* \"#utility.yul\":6630:7765   */\n      pop\n        /* \"#utility.yul\":6510:7765   */\n      pop\n      pop\n      jump\t// out\n        /* \"#utility.yul\":7771:8102   */\n    tag_43:\n        /* \"#utility.yul\":7918:7922   */\n      0x00\n        /* \"#utility.yul\":7956:7959   */\n      0xc0\n        /* \"#utility.yul\":7945:7954   */\n      dup3\n        /* \"#utility.yul\":7941:7960   */\n      add\n        /* \"#utility.yul\":7933:7960   */\n      swap1\n      pop\n        /* \"#utility.yul\":7970:8095   */\n      tag_486\n        /* \"#utility.yul\":8092:8093   */\n      0x00\n        /* \"#utility.yul\":8081:8090   */\n      dup4\n        /* \"#utility.yul\":8077:8094   */\n      add\n        /* \"#utility.yul\":8068:8074   */\n      dup5\n        /* \"#utility.yul\":7970:8095   */\n      tag_358\n      jump\t// in\n    tag_486:\n        /* \"#utility.yul\":7771:8102   */\n      swap3\n      swap2\n      pop\n      pop\n      jump\t// out\n        /* \"#utility.yul\":8108:8257   */\n    tag_359:\n        /* \"#utility.yul\":8144:8151   */\n      0x00\n        /* \"#utility.yul\":8184:8250   */\n      0xffffffff00000000000000000000000000000000000000000000000000000000\n        /* \"#utility.yul\":8177:8182   */\n      dup3\n        /* \"#utility.yul\":8173:8251   */\n      and\n        /* \"#utility.yul\":8162:8251   */\n      swap1\n      pop\n        /* \"#utility.yul\":8108:8257   */\n      swap2\n      swap1\n      pop\n      jump\t// out\n        /* \"#utility.yul\":8263:8378   */\n    tag_360:\n        /* \"#utility.yul\":8348:8371   */\n      tag_489\n        /* \"#utility.yul\":8365:8370   */\n      dup2\n        /* \"#utility.yul\":8348:8371   */\n      tag_359\n      jump\t// in\n    tag_489:\n        /* \"#utility.yul\":8343:8346   */\n      dup3\n        /* \"#utility.yul\":8336:8372   */\n      mstore\n        /* \"#utility.yul\":8263:8378   */\n      pop\n      pop\n      jump\t// out\n        /* \"#utility.yul\":8384:8602   */\n    tag_48:\n        /* \"#utility.yul\":8475:8479   */\n      0x00\n        /* \"#utility.yul\":8513:8515   */\n      0x20\n        /* \"#utility.yul\":8502:8511   */\n      dup3\n        /* \"#utility.yul\":8498:8516   */\n      add\n        /* \"#utility.yul\":8490:8516   */\n      swap1\n      pop\n        /* \"#utility.yul\":8526:8595   */\n      tag_491\n        /* \"#utility.yul\":8592:8593   */\n      0x00\n        /* \"#utility.yul\":8581:8590   */\n      dup4\n        /* \"#utility.yul\":8577:8594   */\n      add\n        /* \"#utility.yul\":8568:8574   */\n      dup5\n        /* \"#utility.yul\":8526:8595   */\n      tag_360\n      jump\t// in\n    tag_491:\n        /* \"#utility.yul\":8384:8602   */\n      swap3\n      swap2\n      pop\n      pop\n      jump\t// out\n        /* \"#utility.yul\":8608:8730   */\n    tag_361:\n        /* \"#utility.yul\":8681:8705   */\n      tag_493\n        /* \"#utility.yul\":8699:8704   */\n      dup2\n        /* \"#utility.yul\":8681:8705   */\n      tag_340\n      jump\t// in\n    tag_493:\n        /* \"#utility.yul\":8674:8679   */\n      dup2\n        /* \"#utility.yul\":8671:8706   */\n      eq\n        /* \"#utility.yul\":8661:8724   */\n      tag_494\n      jumpi\n        /* \"#utility.yul\":8720:8721   */\n      0x00\n        /* \"#utility.yul\":8717:8718   */\n      dup1\n        /* \"#utility.yul\":8710:8722   */\n      revert\n        /* \"#utility.yul\":8661:8724   */\n    tag_494:\n        /* \"#utility.yul\":8608:8730   */\n      pop\n      jump\t// out\n        /* \"#utility.yul\":8736:8875   */\n    tag_362:\n        /* \"#utility.yul\":8782:8787   */\n      0x00\n        /* \"#utility.yul\":8820:8826   */\n      dup2\n        /* \"#utility.yul\":8807:8827   */\n      calldataload\n        /* \"#utility.yul\":8798:8827   */\n      swap1\n      pop\n        /* \"#utility.yul\":8836:8869   */\n      tag_496\n        /* \"#utility.yul\":8863:8868   */\n      dup2\n        /* \"#utility.yul\":8836:8869   */\n      tag_361\n      jump\t// in\n    tag_496:\n        /* \"#utility.yul\":8736:8875   */\n      swap3\n      swap2\n      pop\n      pop\n      jump\t// out\n        /* \"#utility.yul\":8881:9500   */\n    tag_52:\n        /* \"#utility.yul\":8958:8964   */\n      0x00\n        /* \"#utility.yul\":8966:8972   */\n      dup1\n        /* \"#utility.yul\":8974:8980   */\n      0x00\n        /* \"#utility.yul\":9023:9025   */\n      0x60\n        /* \"#utility.yul\":9011:9020   */\n      dup5\n        /* \"#utility.yul\":9002:9009   */\n      dup7\n        /* \"#utility.yul\":8998:9021   */\n      sub\n        /* \"#utility.yul\":8994:9026   */\n      slt\n        /* \"#utility.yul\":8991:9110   */\n      iszero\n      tag_498\n      jumpi\n        /* \"#utility.yul\":9029:9108   */\n      tag_499\n      tag_354\n      jump\t// in\n    tag_499:\n        /* \"#utility.yul\":8991:9110   */\n    tag_498:\n        /* \"#utility.yul\":9149:9150   */\n      0x00\n        /* \"#utility.yul\":9174:9227   */\n      tag_500\n        /* \"#utility.yul\":9219:9226   */\n      dup7\n        /* \"#utility.yul\":9210:9216   */\n      dup3\n        /* \"#utility.yul\":9199:9208   */\n      dup8\n        /* \"#utility.yul\":9195:9217   */\n      add\n        /* \"#utility.yul\":9174:9227   */\n      tag_362\n      jump\t// in\n    tag_500:\n        /* \"#utility.yul\":9164:9227   */\n      swap4\n      pop\n        /* \"#utility.yul\":9120:9237   */\n      pop\n        /* \"#utility.yul\":9276:9278   */\n      0x20\n        /* \"#utility.yul\":9302:9355   */\n      tag_501\n        /* \"#utility.yul\":9347:9354   */\n      dup7\n        /* \"#utility.yul\":9338:9344   */\n      dup3\n        /* \"#utility.yul\":9327:9336   */\n      dup8\n        /* \"#utility.yul\":9323:9345   */\n      add\n        /* \"#utility.yul\":9302:9355   */\n      tag_357\n      jump\t// in\n    tag_501:\n        /* \"#utility.yul\":9292:9355   */\n      swap3\n      pop\n        /* \"#utility.yul\":9247:9365   */\n      pop\n        /* \"#utility.yul\":9404:9406   */\n      0x40\n        /* \"#utility.yul\":9430:9483   */\n      tag_502\n        /* \"#utility.yul\":9475:9482   */\n      dup7\n        /* \"#utility.yul\":9466:9472   */\n      dup3\n        /* \"#utility.yul\":9455:9464   */\n      dup8\n        /* \"#utility.yul\":9451:9473   */\n      add\n        /* \"#utility.yul\":9430:9483   */\n      tag_362\n      jump\t// in\n    tag_502:\n        /* \"#utility.yul\":9420:9483   */\n      swap2\n      pop\n        /* \"#utility.yul\":9375:9493   */\n      pop\n        /* \"#utility.yul\":8881:9500   */\n      swap3\n      pop\n      swap3\n      pop\n      swap3\n      jump\t// out\n        /* \"#utility.yul\":9506:9583   */\n    tag_363:\n        /* \"#utility.yul\":9543:9550   */\n      0x00\n        /* \"#utility.yul\":9572:9577   */\n      dup2\n        /* \"#utility.yul\":9561:9577   */\n      swap1\n      pop\n        /* \"#utility.yul\":9506:9583   */\n      swap2\n      swap1\n      pop\n      jump\t// out\n        /* \"#utility.yul\":9589:9707   */\n    tag_364:\n        /* \"#utility.yul\":9676:9700   */\n      tag_505\n        /* \"#utility.yul\":9694:9699   */\n      dup2\n        /* \"#utility.yul\":9676:9700   */\n      tag_363\n      jump\t// in\n    tag_505:\n        /* \"#utility.yul\":9671:9674   */\n      dup3\n        /* \"#utility.yul\":9664:9701   */\n      mstore\n        /* \"#utility.yul\":9589:9707   */\n      pop\n      pop\n      jump\t// out\n        /* \"#utility.yul\":9713:9831   */\n    tag_365:\n        /* \"#utility.yul\":9800:9824   */\n      tag_507\n        /* \"#utility.yul\":9818:9823   */\n      dup2\n        /* \"#utility.yul\":9800:9824   */\n      tag_337\n      jump\t// in\n    tag_507:\n        /* \"#utility.yul\":9795:9798   */\n      dup3\n        /* \"#utility.yul\":9788:9825   */\n      mstore\n        /* \"#utility.yul\":9713:9831   */\n      pop\n      pop\n      jump\t// out\n        /* \"#utility.yul\":9837:10169   */\n    tag_55:\n        /* \"#utility.yul\":9958:9962   */\n      0x00\n        /* \"#utility.yul\":9996:9998   */\n      0x40\n        /* \"#utility.yul\":9985:9994   */\n      dup3\n        /* \"#utility.yul\":9981:9999   */\n      add\n        /* \"#utility.yul\":9973:9999   */\n      swap1\n      pop\n        /* \"#utility.yul\":10009:10080   */\n      tag_509\n        /* \"#utility.yul\":10077:10078   */\n      0x00\n        /* \"#utility.yul\":10066:10075   */\n      dup4\n        /* \"#utility.yul\":10062:10079   */\n      add\n        /* \"#utility.yul\":10053:10059   */\n      dup6\n        /* \"#utility.yul\":10009:10080   */\n      tag_364\n      jump\t// in\n    tag_509:\n        /* \"#utility.yul\":10090:10162   */\n      tag_510\n        /* \"#utility.yul\":10158:10160   */\n      0x20\n        /* \"#utility.yul\":10147:10156   */\n      dup4\n        /* \"#utility.yul\":10143:10161   */\n      add\n        /* \"#utility.yul\":10134:10140   */\n      dup5\n        /* \"#utility.yul\":10090:10162   */\n      tag_365\n      jump\t// in\n    tag_510:\n        /* \"#utility.yul\":9837:10169   */\n      swap4\n      swap3\n      pop\n      pop\n      pop\n      jump\t// out\n        /* \"#utility.yul\":10175:10794   */\n    tag_58:\n        /* \"#utility.yul\":10252:10258   */\n      0x00\n        /* \"#utility.yul\":10260:10266   */\n      dup1\n        /* \"#utility.yul\":10268:10274   */\n      0x00\n        /* \"#utility.yul\":10317:10319   */\n      0x60\n        /* \"#utility.yul\":10305:10314   */\n      dup5\n        /* \"#utility.yul\":10296:10303   */\n      dup7\n        /* \"#utility.yul\":10292:10315   */\n      sub\n        /* \"#utility.yul\":10288:10320   */\n      slt\n        /* \"#utility.yul\":10285:10404   */\n      iszero\n      tag_512\n      jumpi\n        /* \"#utility.yul\":10323:10402   */\n      tag_513\n      tag_354\n      jump\t// in\n    tag_513:\n        /* \"#utility.yul\":10285:10404   */\n    tag_512:\n        /* \"#utility.yul\":10443:10444   */\n      0x00\n        /* \"#utility.yul\":10468:10521   */\n      tag_514\n        /* \"#utility.yul\":10513:10520   */\n      dup7\n        /* \"#utility.yul\":10504:10510   */\n      dup3\n        /* \"#utility.yul\":10493:10502   */\n      dup8\n        /* \"#utility.yul\":10489:10511   */\n      add\n        /* \"#utility.yul\":10468:10521   */\n      tag_362\n      jump\t// in\n    tag_514:\n        /* \"#utility.yul\":10458:10521   */\n      swap4\n      pop\n        /* \"#utility.yul\":10414:10531   */\n      pop\n        /* \"#utility.yul\":10570:10572   */\n      0x20\n        /* \"#utility.yul\":10596:10649   */\n      tag_515\n        /* \"#utility.yul\":10641:10648   */\n      dup7\n        /* \"#utility.yul\":10632:10638   */\n      dup3\n        /* \"#utility.yul\":10621:10630   */\n      dup8\n        /* \"#utility.yul\":10617:10639   */\n      add\n        /* \"#utility.yul\":10596:10649   */\n      tag_357\n      jump\t// in\n    tag_515:\n        /* \"#utility.yul\":10586:10649   */\n      swap3\n      pop\n        /* \"#utility.yul\":10541:10659   */\n      pop\n        /* \"#utility.yul\":10698:10700   */\n      0x40\n        /* \"#utility.yul\":10724:10777   */\n      tag_516\n        /* \"#utility.yul\":10769:10776   */\n      dup7\n        /* \"#utility.yul\":10760:10766   */\n      dup3\n        /* \"#utility.yul\":10749:10758   */\n      dup8\n        /* \"#utility.yul\":10745:10767   */\n      add\n        /* \"#utility.yul\":10724:10777   */\n      tag_357\n      jump\t// in\n    tag_516:\n        /* \"#utility.yul\":10714:10777   */\n      swap2\n      pop\n        /* \"#utility.yul\":10669:10787   */\n      pop\n        /* \"#utility.yul\":10175:10794   */\n      swap3\n      pop\n      swap3\n      pop\n      swap3\n      jump\t// out\n        /* \"#utility.yul\":10800:11274   */\n    tag_63:\n        /* \"#utility.yul\":10868:10874   */\n      0x00\n        /* \"#utility.yul\":10876:10882   */\n      dup1\n        /* \"#utility.yul\":10925:10927   */\n      0x40\n        /* \"#utility.yul\":10913:10922   */\n      dup4\n        /* \"#utility.yul\":10904:10911   */\n      dup6\n        /* \"#utility.yul\":10900:10923   */\n      sub\n        /* \"#utility.yul\":10896:10928   */\n      slt\n        /* \"#utility.yul\":10893:11012   */\n      iszero\n      tag_518\n      jumpi\n        /* \"#utility.yul\":10931:11010   */\n      tag_519\n      tag_354\n      jump\t// in\n    tag_519:\n        /* \"#utility.yul\":10893:11012   */\n    tag_518:\n        /* \"#utility.yul\":11051:11052   */\n      0x00\n        /* \"#utility.yul\":11076:11129   */\n      tag_520\n        /* \"#utility.yul\":11121:11128   */\n      dup6\n        /* \"#utility.yul\":11112:11118   */\n      dup3\n        /* \"#utility.yul\":11101:11110   */\n      dup7\n        /* \"#utility.yul\":11097:11119   */\n      add\n        /* \"#utility.yul\":11076:11129   */\n      tag_362\n      jump\t// in\n    tag_520:\n        /* \"#utility.yul\":11066:11129   */\n      swap3\n      pop\n        /* \"#utility.yul\":11022:11139   */\n      pop\n        /* \"#utility.yul\":11178:11180   */\n      0x20\n        /* \"#utility.yul\":11204:11257   */\n      tag_521\n        /* \"#utility.yul\":11249:11256   */\n      dup6\n        /* \"#utility.yul\":11240:11246   */\n      dup3\n        /* \"#utility.yul\":11229:11238   */\n      dup7\n        /* \"#utility.yul\":11225:11247   */\n      add\n        /* \"#utility.yul\":11204:11257   */\n      tag_357\n      jump\t// in\n    tag_521:\n        /* \"#utility.yul\":11194:11257   */\n      swap2\n      pop\n        /* \"#utility.yul\":11149:11267   */\n      pop\n        /* \"#utility.yul\":10800:11274   */\n      swap3\n      pop\n      swap3\n      swap1\n      pop\n      jump\t// out\n        /* \"#utility.yul\":11280:11398   */\n    tag_366:\n        /* \"#utility.yul\":11367:11391   */\n      tag_523\n        /* \"#utility.yul\":11385:11390   */\n      dup2\n        /* \"#utility.yul\":11367:11391   */\n      tag_340\n      jump\t// in\n    tag_523:\n        /* \"#utility.yul\":11362:11365   */\n      dup3\n        /* \"#utility.yul\":11355:11392   */\n      mstore\n        /* \"#utility.yul\":11280:11398   */\n      pop\n      pop\n      jump\t// out\n        /* \"#utility.yul\":11404:11584   */\n    tag_200:\n        /* \"#utility.yul\":11452:11529   */\n      0x4e487b7100000000000000000000000000000000000000000000000000000000\n        /* \"#utility.yul\":11449:11450   */\n      0x00\n        /* \"#utility.yul\":11442:11530   */\n      mstore\n        /* \"#utility.yul\":11549:11553   */\n      0x21\n        /* \"#utility.yul\":11546:11547   */\n      0x04\n        /* \"#utility.yul\":11539:11554   */\n      mstore\n        /* \"#utility.yul\":11573:11577   */\n      0x24\n        /* \"#utility.yul\":11570:11571   */\n      0x00\n        /* \"#utility.yul\":11563:11578   */\n      revert\n        /* \"#utility.yul\":11590:11709   */\n    tag_367:\n        /* \"#utility.yul\":11677:11678   */\n      0x05\n        /* \"#utility.yul\":11670:11675   */\n      dup2\n        /* \"#utility.yul\":11667:11679   */\n      lt\n        /* \"#utility.yul\":11657:11703   */\n      tag_526\n      jumpi\n        /* \"#utility.yul\":11683:11701   */\n      tag_527\n      tag_200\n      jump\t// in\n    tag_527:\n        /* \"#utility.yul\":11657:11703   */\n    tag_526:\n        /* \"#utility.yul\":11590:11709   */\n      pop\n      jump\t// out\n        /* \"#utility.yul\":11715:11854   */\n    tag_368:\n        /* \"#utility.yul\":11766:11773   */\n      0x00\n        /* \"#utility.yul\":11795:11800   */\n      dup2\n        /* \"#utility.yul\":11784:11800   */\n      swap1\n      pop\n        /* \"#utility.yul\":11801:11848   */\n      tag_529\n        /* \"#utility.yul\":11842:11847   */\n      dup3\n        /* \"#utility.yul\":11801:11848   */\n      tag_367\n      jump\t// in\n    tag_529:\n        /* \"#utility.yul\":11715:11854   */\n      swap2\n      swap1\n      pop\n      jump\t// out\n        /* \"#utility.yul\":11860:11999   */\n    tag_369:\n        /* \"#utility.yul\":11922:11931   */\n      0x00\n        /* \"#utility.yul\":11955:11993   */\n      tag_531\n        /* \"#utility.yul\":11987:11992   */\n      dup3\n        /* \"#utility.yul\":11955:11993   */\n      tag_368\n      jump\t// in\n    tag_531:\n        /* \"#utility.yul\":11942:11993   */\n      swap1\n      pop\n        /* \"#utility.yul\":11860:11999   */\n      swap2\n      swap1\n      pop\n      jump\t// out\n        /* \"#utility.yul\":12005:12160   */\n    tag_370:\n        /* \"#utility.yul\":12104:12153   */\n      tag_533\n        /* \"#utility.yul\":12147:12152   */\n      dup2\n        /* \"#utility.yul\":12104:12153   */\n      tag_369\n      jump\t// in\n    tag_533:\n        /* \"#utility.yul\":12099:12102   */\n      dup3\n        /* \"#utility.yul\":12092:12154   */\n      mstore\n        /* \"#utility.yul\":12005:12160   */\n      pop\n      pop\n      jump\t// out\n        /* \"#utility.yul\":12166:12965   */\n    tag_66:\n        /* \"#utility.yul\":12411:12415   */\n      0x00\n        /* \"#utility.yul\":12449:12452   */\n      0xc0\n        /* \"#utility.yul\":12438:12447   */\n      dup3\n        /* \"#utility.yul\":12434:12453   */\n      add\n        /* \"#utility.yul\":12426:12453   */\n      swap1\n      pop\n        /* \"#utility.yul\":12463:12534   */\n      tag_535\n        /* \"#utility.yul\":12531:12532   */\n      0x00\n        /* \"#utility.yul\":12520:12529   */\n      dup4\n        /* \"#utility.yul\":12516:12533   */\n      add\n        /* \"#utility.yul\":12507:12513   */\n      dup10\n        /* \"#utility.yul\":12463:12534   */\n      tag_364\n      jump\t// in\n    tag_535:\n        /* \"#utility.yul\":12544:12616   */\n      tag_536\n        /* \"#utility.yul\":12612:12614   */\n      0x20\n        /* \"#utility.yul\":12601:12610   */\n      dup4\n        /* \"#utility.yul\":12597:12615   */\n      add\n        /* \"#utility.yul\":12588:12594   */\n      dup9\n        /* \"#utility.yul\":12544:12616   */\n      tag_366\n      jump\t// in\n    tag_536:\n        /* \"#utility.yul\":12626:12698   */\n      tag_537\n        /* \"#utility.yul\":12694:12696   */\n      0x40\n        /* \"#utility.yul\":12683:12692   */\n      dup4\n        /* \"#utility.yul\":12679:12697   */\n      add\n        /* \"#utility.yul\":12670:12676   */\n      dup8\n        /* \"#utility.yul\":12626:12698   */\n      tag_366\n      jump\t// in\n    tag_537:\n        /* \"#utility.yul\":12708:12780   */\n      tag_538\n        /* \"#utility.yul\":12776:12778   */\n      0x60\n        /* \"#utility.yul\":12765:12774   */\n      dup4\n        /* \"#utility.yul\":12761:12779   */\n      add\n        /* \"#utility.yul\":12752:12758   */\n      dup7\n        /* \"#utility.yul\":12708:12780   */\n      tag_365\n      jump\t// in\n    tag_538:\n        /* \"#utility.yul\":12790:12863   */\n      tag_539\n        /* \"#utility.yul\":12858:12861   */\n      0x80\n        /* \"#utility.yul\":12847:12856   */\n      dup4\n        /* \"#utility.yul\":12843:12862   */\n      add\n        /* \"#utility.yul\":12834:12840   */\n      dup6\n        /* \"#utility.yul\":12790:12863   */\n      tag_365\n      jump\t// in\n    tag_539:\n        /* \"#utility.yul\":12873:12958   */\n      tag_540\n        /* \"#utility.yul\":12953:12956   */\n      0xa0\n        /* \"#utility.yul\":12942:12951   */\n      dup4\n        /* \"#utility.yul\":12938:12957   */\n      add\n        /* \"#utility.yul\":12929:12935   */\n      dup5\n        /* \"#utility.yul\":12873:12958   */\n      tag_370\n      jump\t// in\n    tag_540:\n        /* \"#utility.yul\":12166:12965   */\n      swap8\n      swap7\n      pop\n      pop\n      pop\n      pop\n      pop\n      pop\n      pop\n      jump\t// out\n        /* \"#utility.yul\":12971:13057   */\n    tag_371:\n        /* \"#utility.yul\":13006:13013   */\n      0x00\n        /* \"#utility.yul\":13046:13050   */\n      0xff\n        /* \"#utility.yul\":13039:13044   */\n      dup3\n        /* \"#utility.yul\":13035:13051   */\n      and\n        /* \"#utility.yul\":13024:13051   */\n      swap1\n      pop\n        /* \"#utility.yul\":12971:13057   */\n      swap2\n      swap1\n      pop\n      jump\t// out\n        /* \"#utility.yul\":13063:13175   */\n    tag_372:\n        /* \"#utility.yul\":13146:13168   */\n      tag_543\n        /* \"#utility.yul\":13162:13167   */\n      dup2\n        /* \"#utility.yul\":13146:13168   */\n      tag_371\n      jump\t// in\n    tag_543:\n        /* \"#utility.yul\":13141:13144   */\n      dup3\n        /* \"#utility.yul\":13134:13169   */\n      mstore\n        /* \"#utility.yul\":13063:13175   */\n      pop\n      pop\n      jump\t// out\n        /* \"#utility.yul\":13181:13395   */\n    tag_78:\n        /* \"#utility.yul\":13270:13274   */\n      0x00\n        /* \"#utility.yul\":13308:13310   */\n      0x20\n        /* \"#utility.yul\":13297:13306   */\n      dup3\n        /* \"#utility.yul\":13293:13311   */\n      add\n        /* \"#utility.yul\":13285:13311   */\n      swap1\n      pop\n        /* \"#utility.yul\":13321:13388   */\n      tag_545\n        /* \"#utility.yul\":13385:13386   */\n      0x00\n        /* \"#utility.yul\":13374:13383   */\n      dup4\n        /* \"#utility.yul\":13370:13387   */\n      add\n        /* \"#utility.yul\":13361:13367   */\n      dup5\n        /* \"#utility.yul\":13321:13388   */\n      tag_372\n      jump\t// in\n    tag_545:\n        /* \"#utility.yul\":13181:13395   */\n      swap3\n      swap2\n      pop\n      pop\n      jump\t// out\n        /* \"#utility.yul\":13401:13623   */\n    tag_83:\n        /* \"#utility.yul\":13494:13498   */\n      0x00\n        /* \"#utility.yul\":13532:13534   */\n      0x20\n        /* \"#utility.yul\":13521:13530   */\n      dup3\n        /* \"#utility.yul\":13517:13535   */\n      add\n        /* \"#utility.yul\":13509:13535   */\n      swap1\n      pop\n        /* \"#utility.yul\":13545:13616   */\n      tag_547\n        /* \"#utility.yul\":13613:13614   */\n      0x00\n        /* \"#utility.yul\":13602:13611   */\n      dup4\n        /* \"#utility.yul\":13598:13615   */\n      add\n        /* \"#utility.yul\":13589:13595   */\n      dup5\n        /* \"#utility.yul\":13545:13616   */\n      tag_366\n      jump\t// in\n    tag_547:\n        /* \"#utility.yul\":13401:13623   */\n      swap3\n      swap2\n      pop\n      pop\n      jump\t// out\n        /* \"#utility.yul\":13629:13958   */\n    tag_87:\n        /* \"#utility.yul\":13688:13694   */\n      0x00\n        /* \"#utility.yul\":13737:13739   */\n      0x20\n        /* \"#utility.yul\":13725:13734   */\n      dup3\n        /* \"#utility.yul\":13716:13723   */\n      dup5\n        /* \"#utility.yul\":13712:13735   */\n      sub\n        /* \"#utility.yul\":13708:13740   */\n      slt\n        /* \"#utility.yul\":13705:13824   */\n      iszero\n      tag_549\n      jumpi\n        /* \"#utility.yul\":13743:13822   */\n      tag_550\n      tag_354\n      jump\t// in\n    tag_550:\n        /* \"#utility.yul\":13705:13824   */\n    tag_549:\n        /* \"#utility.yul\":13863:13864   */\n      0x00\n        /* \"#utility.yul\":13888:13941   */\n      tag_551\n        /* \"#utility.yul\":13933:13940   */\n      dup5\n        /* \"#utility.yul\":13924:13930   */\n      dup3\n        /* \"#utility.yul\":13913:13922   */\n      dup6\n        /* \"#utility.yul\":13909:13931   */\n      add\n        /* \"#utility.yul\":13888:13941   */\n      tag_362\n      jump\t// in\n    tag_551:\n        /* \"#utility.yul\":13878:13941   */\n      swap2\n      pop\n        /* \"#utility.yul\":13834:13951   */\n      pop\n        /* \"#utility.yul\":13629:13958   */\n      swap3\n      swap2\n      pop\n      pop\n      jump\t// out\n        /* \"#utility.yul\":13964:14144   */\n    tag_373:\n        /* \"#utility.yul\":14012:14089   */\n      0x4e487b7100000000000000000000000000000000000000000000000000000000\n        /* \"#utility.yul\":14009:14010   */\n      0x00\n        /* \"#utility.yul\":14002:14090   */\n      mstore\n        /* \"#utility.yul\":14109:14113   */\n      0x11\n        /* \"#utility.yul\":14106:14107   */\n      0x04\n        /* \"#utility.yul\":14099:14114   */\n      mstore\n        /* \"#utility.yul\":14133:14137   */\n      0x24\n        /* \"#utility.yul\":14130:14131   */\n      0x00\n        /* \"#utility.yul\":14123:14138   */\n      revert\n        /* \"#utility.yul\":14150:14341   */\n    tag_115:\n        /* \"#utility.yul\":14190:14194   */\n      0x00\n        /* \"#utility.yul\":14210:14230   */\n      tag_554\n        /* \"#utility.yul\":14228:14229   */\n      dup3\n        /* \"#utility.yul\":14210:14230   */\n      tag_337\n      jump\t// in\n    tag_554:\n        /* \"#utility.yul\":14205:14230   */\n      swap2\n      pop\n        /* \"#utility.yul\":14244:14264   */\n      tag_555\n        /* \"#utility.yul\":14262:14263   */\n      dup4\n        /* \"#utility.yul\":14244:14264   */\n      tag_337\n      jump\t// in\n    tag_555:\n        /* \"#utility.yul\":14239:14264   */\n      swap3\n      pop\n        /* \"#utility.yul\":14283:14284   */\n      dup3\n        /* \"#utility.yul\":14280:14281   */\n      dup3\n        /* \"#utility.yul\":14277:14285   */\n      lt\n        /* \"#utility.yul\":14274:14308   */\n      iszero\n      tag_556\n      jumpi\n        /* \"#utility.yul\":14288:14306   */\n      tag_557\n      tag_373\n      jump\t// in\n    tag_557:\n        /* \"#utility.yul\":14274:14308   */\n    tag_556:\n        /* \"#utility.yul\":14333:14334   */\n      dup3\n        /* \"#utility.yul\":14330:14331   */\n      dup3\n        /* \"#utility.yul\":14326:14335   */\n      sub\n        /* \"#utility.yul\":14318:14335   */\n      swap1\n      pop\n        /* \"#utility.yul\":14150:14341   */\n      swap3\n      swap2\n      pop\n      pop\n      jump\t// out\n        /* \"#utility.yul\":14347:14527   */\n    tag_118:\n        /* \"#utility.yul\":14395:14472   */\n      0x4e487b7100000000000000000000000000000000000000000000000000000000\n        /* \"#utility.yul\":14392:14393   */\n      0x00\n        /* \"#utility.yul\":14385:14473   */\n      mstore\n        /* \"#utility.yul\":14492:14496   */\n      0x41\n        /* \"#utility.yul\":14489:14490   */\n      0x04\n        /* \"#utility.yul\":14482:14497   */\n      mstore\n        /* \"#utility.yul\":14516:14520   */\n      0x24\n        /* \"#utility.yul\":14513:14514   */\n      0x00\n        /* \"#utility.yul\":14506:14521   */\n      revert\n        /* \"#utility.yul\":14533:14838   */\n    tag_127:\n        /* \"#utility.yul\":14573:14576   */\n      0x00\n        /* \"#utility.yul\":14592:14612   */\n      tag_560\n        /* \"#utility.yul\":14610:14611   */\n      dup3\n        /* \"#utility.yul\":14592:14612   */\n      tag_337\n      jump\t// in\n    tag_560:\n        /* \"#utility.yul\":14587:14612   */\n      swap2\n      pop\n        /* \"#utility.yul\":14626:14646   */\n      tag_561\n        /* \"#utility.yul\":14644:14645   */\n      dup4\n        /* \"#utility.yul\":14626:14646   */\n      tag_337\n      jump\t// in\n    tag_561:\n        /* \"#utility.yul\":14621:14646   */\n      swap3\n      pop\n        /* \"#utility.yul\":14780:14781   */\n      dup3\n        /* \"#utility.yul\":14712:14778   */\n      0xffffffffffffffffffffffffffffffffffffffffffffffffffffffffffffffff\n        /* \"#utility.yul\":14708:14782   */\n      sub\n        /* \"#utility.yul\":14705:14706   */\n      dup3\n        /* \"#utility.yul\":14702:14783   */\n      gt\n        /* \"#utility.yul\":14699:14806   */\n      iszero\n      tag_562\n      jumpi\n        /* \"#utility.yul\":14786:14804   */\n      tag_563\n      tag_373\n      jump\t// in\n    tag_563:\n        /* \"#utility.yul\":14699:14806   */\n    tag_562:\n        /* \"#utility.yul\":14830:14831   */\n      dup3\n        /* \"#utility.yul\":14827:14828   */\n      dup3\n        /* \"#utility.yul\":14823:14832   */\n      add\n        /* \"#utility.yul\":14816:14832   */\n      swap1\n      pop\n        /* \"#utility.yul\":14533:14838   */\n      swap3\n      swap2\n      pop\n      pop\n      jump\t// out\n        /* \"#utility.yul\":14844:15024   */\n    tag_132:\n        /* \"#utility.yul\":14892:14969   */\n      0x4e487b7100000000000000000000000000000000000000000000000000000000\n        /* \"#utility.yul\":14889:14890   */\n      0x00\n        /* \"#utility.yul\":14882:14970   */\n      mstore\n        /* \"#utility.yul\":14989:14993   */\n      0x32\n        /* \"#utility.yul\":14986:14987   */\n      0x04\n        /* \"#utility.yul\":14979:14994   */\n      mstore\n        /* \"#utility.yul\":15013:15017   */\n      0x24\n        /* \"#utility.yul\":15010:15011   */\n      0x00\n        /* \"#utility.yul\":15003:15018   */\n      revert\n        /* \"#utility.yul\":15030:15263   */\n    tag_135:\n        /* \"#utility.yul\":15069:15072   */\n      0x00\n        /* \"#utility.yul\":15092:15116   */\n      tag_566\n        /* \"#utility.yul\":15110:15115   */\n      dup3\n        /* \"#utility.yul\":15092:15116   */\n      tag_337\n      jump\t// in\n    tag_566:\n        /* \"#utility.yul\":15083:15116   */\n      swap2\n      pop\n        /* \"#utility.yul\":15138:15204   */\n      0xffffffffffffffffffffffffffffffffffffffffffffffffffffffffffffffff\n        /* \"#utility.yul\":15131:15136   */\n      dup3\n        /* \"#utility.yul\":15128:15205   */\n      sub\n        /* \"#utility.yul\":15125:15228   */\n      tag_567\n      jumpi\n        /* \"#utility.yul\":15208:15226   */\n      tag_568\n      tag_373\n      jump\t// in\n    tag_568:\n        /* \"#utility.yul\":15125:15228   */\n    tag_567:\n        /* \"#utility.yul\":15255:15256   */\n      0x01\n        /* \"#utility.yul\":15248:15253   */\n      dup3\n        /* \"#utility.yul\":15244:15257   */\n      add\n        /* \"#utility.yul\":15237:15257   */\n      swap1\n      pop\n        /* \"#utility.yul\":15030:15263   */\n      swap2\n      swap1\n      pop\n      jump\t// out\n        /* \"#utility.yul\":15269:15438   */\n    tag_374:\n        /* \"#utility.yul\":15353:15364   */\n      0x00\n        /* \"#utility.yul\":15387:15393   */\n      dup3\n        /* \"#utility.yul\":15382:15385   */\n      dup3\n        /* \"#utility.yul\":15375:15394   */\n      mstore\n        /* \"#utility.yul\":15427:15431   */\n      0x20\n        /* \"#utility.yul\":15422:15425   */\n      dup3\n        /* \"#utility.yul\":15418:15432   */\n      add\n        /* \"#utility.yul\":15403:15432   */\n      swap1\n      pop\n        /* \"#utility.yul\":15269:15438   */\n      swap3\n      swap2\n      pop\n      pop\n      jump\t// out\n        /* \"#utility.yul\":15444:15625   */\n    tag_375:\n        /* \"#utility.yul\":15584:15617   */\n      0x5265656e7472616e637947756172643a207265656e7472616e742063616c6c00\n        /* \"#utility.yul\":15580:15581   */\n      0x00\n        /* \"#utility.yul\":15572:15578   */\n      dup3\n        /* \"#utility.yul\":15568:15582   */\n      add\n        /* \"#utility.yul\":15561:15618   */\n      mstore\n        /* \"#utility.yul\":15444:15625   */\n      pop\n      jump\t// out\n        /* \"#utility.yul\":15631:15997   */\n    tag_376:\n        /* \"#utility.yul\":15773:15776   */\n      0x00\n        /* \"#utility.yul\":15794:15861   */\n      tag_572\n        /* \"#utility.yul\":15858:15860   */\n      0x1f\n        /* \"#utility.yul\":15853:15856   */\n      dup4\n        /* \"#utility.yul\":15794:15861   */\n      tag_374\n      jump\t// in\n    tag_572:\n        /* \"#utility.yul\":15787:15861   */\n      swap2\n      pop\n        /* \"#utility.yul\":15870:15963   */\n      tag_573\n        /* \"#utility.yul\":15959:15962   */\n      dup3\n        /* \"#utility.yul\":15870:15963   */\n      tag_375\n      jump\t// in\n    tag_573:\n        /* \"#utility.yul\":15988:15990   */\n      0x20\n        /* \"#utility.yul\":15983:15986   */\n      dup3\n        /* \"#utility.yul\":15979:15991   */\n      add\n        /* \"#utility.yul\":15972:15991   */\n      swap1\n      pop\n        /* \"#utility.yul\":15631:15997   */\n      swap2\n      swap1\n      pop\n      jump\t// out\n        /* \"#utility.yul\":16003:16422   */\n    tag_165:\n        /* \"#utility.yul\":16169:16173   */\n      0x00\n        /* \"#utility.yul\":16207:16209   */\n      0x20\n        /* \"#utility.yul\":16196:16205   */\n      dup3\n        /* \"#utility.yul\":16192:16210   */\n      add\n        /* \"#utility.yul\":16184:16210   */\n      swap1\n      pop\n        /* \"#utility.yul\":16256:16265   */\n      dup2\n        /* \"#utility.yul\":16250:16254   */\n      dup2\n        /* \"#utility.yul\":16246:16266   */\n      sub\n        /* \"#utility.yul\":16242:16243   */\n      0x00\n        /* \"#utility.yul\":16231:16240   */\n      dup4\n        /* \"#utility.yul\":16227:16244   */\n      add\n        /* \"#utility.yul\":16220:16267   */\n      mstore\n        /* \"#utility.yul\":16284:16415   */\n      tag_575\n        /* \"#utility.yul\":16410:16414   */\n      dup2\n        /* \"#utility.yul\":16284:16415   */\n      tag_376\n      jump\t// in\n    tag_575:\n        /* \"#utility.yul\":16276:16415   */\n      swap1\n      pop\n        /* \"#utility.yul\":16003:16422   */\n      swap2\n      swap1\n      pop\n      jump\t// out\n        /* \"#utility.yul\":16428:16606   */\n    tag_377:\n        /* \"#utility.yul\":16568:16598   */\n      0x5072696365206d757374206265206174206c6561737420312077656900000000\n        /* \"#utility.yul\":16564:16565   */\n      0x00\n        /* \"#utility.yul\":16556:16562   */\n      dup3\n        /* \"#utility.yul\":16552:16566   */\n      add\n        /* \"#utility.yul\":16545:16599   */\n      mstore\n        /* \"#utility.yul\":16428:16606   */\n      pop\n      jump\t// out\n        /* \"#utility.yul\":16612:16978   */\n    tag_378:\n        /* \"#utility.yul\":16754:16757   */\n      0x00\n        /* \"#utility.yul\":16775:16842   */\n      tag_578\n        /* \"#utility.yul\":16839:16841   */\n      0x1c\n        /* \"#utility.yul\":16834:16837   */\n      dup4\n        /* \"#utility.yul\":16775:16842   */\n      tag_374\n      jump\t// in\n    tag_578:\n        /* \"#utility.yul\":16768:16842   */\n      swap2\n      pop\n        /* \"#utility.yul\":16851:16944   */\n      tag_579\n        /* \"#utility.yul\":16940:16943   */\n      dup3\n        /* \"#utility.yul\":16851:16944   */\n      tag_377\n      jump\t// in\n    tag_579:\n        /* \"#utility.yul\":16969:16971   */\n      0x20\n        /* \"#utility.yul\":16964:16967   */\n      dup3\n        /* \"#utility.yul\":16960:16972   */\n      add\n        /* \"#utility.yul\":16953:16972   */\n      swap1\n      pop\n        /* \"#utility.yul\":16612:16978   */\n      swap2\n      swap1\n      pop\n      jump\t// out\n        /* \"#utility.yul\":16984:17403   */\n    tag_169:\n        /* \"#utility.yul\":17150:17154   */\n      0x00\n        /* \"#utility.yul\":17188:17190   */\n      0x20\n        /* \"#utility.yul\":17177:17186   */\n      dup3\n        /* \"#utility.yul\":17173:17191   */\n      add\n        /* \"#utility.yul\":17165:17191   */\n      swap1\n      pop\n        /* \"#utility.yul\":17237:17246   */\n      dup2\n        /* \"#utility.yul\":17231:17235   */\n      dup2\n        /* \"#utility.yul\":17227:17247   */\n      sub\n        /* \"#utility.yul\":17223:17224   */\n      0x00\n        /* \"#utility.yul\":17212:17221   */\n      dup4\n        /* \"#utility.yul\":17208:17225   */\n      add\n        /* \"#utility.yul\":17201:17248   */\n      mstore\n        /* \"#utility.yul\":17265:17396   */\n      tag_581\n        /* \"#utility.yul\":17391:17395   */\n      dup2\n        /* \"#utility.yul\":17265:17396   */\n      tag_378\n      jump\t// in\n    tag_581:\n        /* \"#utility.yul\":17257:17396   */\n      swap1\n      pop\n        /* \"#utility.yul\":16984:17403   */\n      swap2\n      swap1\n      pop\n      jump\t// out\n        /* \"#utility.yul\":17409:17851   */\n    tag_174:\n        /* \"#utility.yul\":17558:17562   */\n      0x00\n        /* \"#utility.yul\":17596:17598   */\n      0x60\n        /* \"#utility.yul\":17585:17594   */\n      dup3\n        /* \"#utility.yul\":17581:17599   */\n      add\n        /* \"#utility.yul\":17573:17599   */\n      swap1\n      pop\n        /* \"#utility.yul\":17609:17680   */\n      tag_583\n        /* \"#utility.yul\":17677:17678   */\n      0x00\n        /* \"#utility.yul\":17666:17675   */\n      dup4\n        /* \"#utility.yul\":17662:17679   */\n      add\n        /* \"#utility.yul\":17653:17659   */\n      dup7\n        /* \"#utility.yul\":17609:17680   */\n      tag_366\n      jump\t// in\n    tag_583:\n        /* \"#utility.yul\":17690:17762   */\n      tag_584\n        /* \"#utility.yul\":17758:17760   */\n      0x20\n        /* \"#utility.yul\":17747:17756   */\n      dup4\n        /* \"#utility.yul\":17743:17761   */\n      add\n        /* \"#utility.yul\":17734:17740   */\n      dup6\n        /* \"#utility.yul\":17690:17762   */\n      tag_366\n      jump\t// in\n    tag_584:\n        /* \"#utility.yul\":17772:17844   */\n      tag_585\n        /* \"#utility.yul\":17840:17842   */\n      0x40\n        /* \"#utility.yul\":17829:17838   */\n      dup4\n        /* \"#utility.yul\":17825:17843   */\n      add\n        /* \"#utility.yul\":17816:17822   */\n      dup5\n        /* \"#utility.yul\":17772:17844   */\n      tag_365\n      jump\t// in\n    tag_585:\n        /* \"#utility.yul\":17409:17851   */\n      swap5\n      swap4\n      pop\n      pop\n      pop\n      pop\n      jump\t// out\n        /* \"#utility.yul\":17857:18079   */\n    tag_186:\n        /* \"#utility.yul\":17950:17954   */\n      0x00\n        /* \"#utility.yul\":17988:17990   */\n      0x20\n        /* \"#utility.yul\":17977:17986   */\n      dup3\n        /* \"#utility.yul\":17973:17991   */\n      add\n        /* \"#utility.yul\":17965:17991   */\n      swap1\n      pop\n        /* \"#utility.yul\":18001:18072   */\n      tag_587\n        /* \"#utility.yul\":18069:18070   */\n      0x00\n        /* \"#utility.yul\":18058:18067   */\n      dup4\n        /* \"#utility.yul\":18054:18071   */\n      add\n        /* \"#utility.yul\":18045:18051   */\n      dup5\n        /* \"#utility.yul\":18001:18072   */\n      tag_365\n      jump\t// in\n    tag_587:\n        /* \"#utility.yul\":17857:18079   */\n      swap3\n      swap2\n      pop\n      pop\n      jump\t// out\n        /* \"#utility.yul\":18085:18228   */\n    tag_379:\n        /* \"#utility.yul\":18142:18147   */\n      0x00\n        /* \"#utility.yul\":18173:18179   */\n      dup2\n        /* \"#utility.yul\":18167:18180   */\n      mload\n        /* \"#utility.yul\":18158:18180   */\n      swap1\n      pop\n        /* \"#utility.yul\":18189:18222   */\n      tag_589\n        /* \"#utility.yul\":18216:18221   */\n      dup2\n        /* \"#utility.yul\":18189:18222   */\n      tag_361\n      jump\t// in\n    tag_589:\n        /* \"#utility.yul\":18085:18228   */\n      swap3\n      swap2\n      pop\n      pop\n      jump\t// out\n        /* \"#utility.yul\":18234:18585   */\n    tag_190:\n        /* \"#utility.yul\":18304:18310   */\n      0x00\n        /* \"#utility.yul\":18353:18355   */\n      0x20\n        /* \"#utility.yul\":18341:18350   */\n      dup3\n        /* \"#utility.yul\":18332:18339   */\n      dup5\n        /* \"#utility.yul\":18328:18351   */\n      sub\n        /* \"#utility.yul\":18324:18356   */\n      slt\n        /* \"#utility.yul\":18321:18440   */\n      iszero\n      tag_591\n      jumpi\n        /* \"#utility.yul\":18359:18438   */\n      tag_592\n      tag_354\n      jump\t// in\n    tag_592:\n        /* \"#utility.yul\":18321:18440   */\n    tag_591:\n        /* \"#utility.yul\":18479:18480   */\n      0x00\n        /* \"#utility.yul\":18504:18568   */\n      tag_593\n        /* \"#utility.yul\":18560:18567   */\n      dup5\n        /* \"#utility.yul\":18551:18557   */\n      dup3\n        /* \"#utility.yul\":18540:18549   */\n      dup6\n        /* \"#utility.yul\":18536:18558   */\n      add\n        /* \"#utility.yul\":18504:18568   */\n      tag_379\n      jump\t// in\n    tag_593:\n        /* \"#utility.yul\":18494:18568   */\n      swap2\n      pop\n        /* \"#utility.yul\":18450:18578   */\n      pop\n        /* \"#utility.yul\":18234:18585   */\n      swap3\n      swap2\n      pop\n      pop\n      jump\t// out\n        /* \"#utility.yul\":18591:18811   */\n    tag_380:\n        /* \"#utility.yul\":18731:18765   */\n      0x5468652073656c6c6572206973206e6f206c6f6e67657220746865206f776e65\n        /* \"#utility.yul\":18727:18728   */\n      0x00\n        /* \"#utility.yul\":18719:18725   */\n      dup3\n        /* \"#utility.yul\":18715:18729   */\n      add\n        /* \"#utility.yul\":18708:18766   */\n      mstore\n        /* \"#utility.yul\":18800:18803   */\n      0x7200000000000000000000000000000000000000000000000000000000000000\n        /* \"#utility.yul\":18795:18797   */\n      0x20\n        /* \"#utility.yul\":18787:18793   */\n      dup3\n        /* \"#utility.yul\":18783:18798   */\n      add\n        /* \"#utility.yul\":18776:18804   */\n      mstore\n        /* \"#utility.yul\":18591:18811   */\n      pop\n      jump\t// out\n        /* \"#utility.yul\":18817:19183   */\n    tag_381:\n        /* \"#utility.yul\":18959:18962   */\n      0x00\n        /* \"#utility.yul\":18980:19047   */\n      tag_596\n        /* \"#utility.yul\":19044:19046   */\n      0x21\n        /* \"#utility.yul\":19039:19042   */\n      dup4\n        /* \"#utility.yul\":18980:19047   */\n      tag_374\n      jump\t// in\n    tag_596:\n        /* \"#utility.yul\":18973:19047   */\n      swap2\n      pop\n        /* \"#utility.yul\":19056:19149   */\n      tag_597\n        /* \"#utility.yul\":19145:19148   */\n      dup3\n        /* \"#utility.yul\":19056:19149   */\n      tag_380\n      jump\t// in\n    tag_597:\n        /* \"#utility.yul\":19174:19176   */\n      0x40\n        /* \"#utility.yul\":19169:19172   */\n      dup3\n        /* \"#utility.yul\":19165:19177   */\n      add\n        /* \"#utility.yul\":19158:19177   */\n      swap1\n      pop\n        /* \"#utility.yul\":18817:19183   */\n      swap2\n      swap1\n      pop\n      jump\t// out\n        /* \"#utility.yul\":19189:19608   */\n    tag_193:\n        /* \"#utility.yul\":19355:19359   */\n      0x00\n        /* \"#utility.yul\":19393:19395   */\n      0x20\n        /* \"#utility.yul\":19382:19391   */\n      dup3\n        /* \"#utility.yul\":19378:19396   */\n      add\n        /* \"#utility.yul\":19370:19396   */\n      swap1\n      pop\n        /* \"#utility.yul\":19442:19451   */\n      dup2\n        /* \"#utility.yul\":19436:19440   */\n      dup2\n        /* \"#utility.yul\":19432:19452   */\n      sub\n        /* \"#utility.yul\":19428:19429   */\n      0x00\n        /* \"#utility.yul\":19417:19426   */\n      dup4\n        /* \"#utility.yul\":19413:19430   */\n      add\n        /* \"#utility.yul\":19406:19453   */\n      mstore\n        /* \"#utility.yul\":19470:19601   */\n      tag_599\n        /* \"#utility.yul\":19596:19600   */\n      dup2\n        /* \"#utility.yul\":19470:19601   */\n      tag_381\n      jump\t// in\n    tag_599:\n        /* \"#utility.yul\":19462:19601   */\n      swap1\n      pop\n        /* \"#utility.yul\":19189:19608   */\n      swap2\n      swap1\n      pop\n      jump\t// out\n        /* \"#utility.yul\":19614:19780   */\n    tag_382:\n        /* \"#utility.yul\":19754:19772   */\n      0x4173736574206973206c697374696e6700000000000000000000000000000000\n        /* \"#utility.yul\":19750:19751   */\n      0x00\n        /* \"#utility.yul\":19742:19748   */\n      dup3\n        /* \"#utility.yul\":19738:19752   */\n      add\n        /* \"#utility.yul\":19731:19773   */\n      mstore\n        /* \"#utility.yul\":19614:19780   */\n      pop\n      jump\t// out\n        /* \"#utility.yul\":19786:20152   */\n    tag_383:\n        /* \"#utility.yul\":19928:19931   */\n      0x00\n        /* \"#utility.yul\":19949:20016   */\n      tag_602\n        /* \"#utility.yul\":20013:20015   */\n      0x10\n        /* \"#utility.yul\":20008:20011   */\n      dup4\n        /* \"#utility.yul\":19949:20016   */\n      tag_374\n      jump\t// in\n    tag_602:\n        /* \"#utility.yul\":19942:20016   */\n      swap2\n      pop\n        /* \"#utility.yul\":20025:20118   */\n      tag_603\n        /* \"#utility.yul\":20114:20117   */\n      dup3\n        /* \"#utility.yul\":20025:20118   */\n      tag_382\n      jump\t// in\n    tag_603:\n        /* \"#utility.yul\":20143:20145   */\n      0x20\n        /* \"#utility.yul\":20138:20141   */\n      dup3\n        /* \"#utility.yul\":20134:20146   */\n      add\n        /* \"#utility.yul\":20127:20146   */\n      swap1\n      pop\n        /* \"#utility.yul\":19786:20152   */\n      swap2\n      swap1\n      pop\n      jump\t// out\n        /* \"#utility.yul\":20158:20577   */\n    tag_213:\n        /* \"#utility.yul\":20324:20328   */\n      0x00\n        /* \"#utility.yul\":20362:20364   */\n      0x20\n        /* \"#utility.yul\":20351:20360   */\n      dup3\n        /* \"#utility.yul\":20347:20365   */\n      add\n        /* \"#utility.yul\":20339:20365   */\n      swap1\n      pop\n        /* \"#utility.yul\":20411:20420   */\n      dup2\n        /* \"#utility.yul\":20405:20409   */\n      dup2\n        /* \"#utility.yul\":20401:20421   */\n      sub\n        /* \"#utility.yul\":20397:20398   */\n      0x00\n        /* \"#utility.yul\":20386:20395   */\n      dup4\n        /* \"#utility.yul\":20382:20399   */\n      add\n        /* \"#utility.yul\":20375:20422   */\n      mstore\n        /* \"#utility.yul\":20439:20570   */\n      tag_605\n        /* \"#utility.yul\":20565:20569   */\n      dup2\n        /* \"#utility.yul\":20439:20570   */\n      tag_383\n      jump\t// in\n    tag_605:\n        /* \"#utility.yul\":20431:20570   */\n      swap1\n      pop\n        /* \"#utility.yul\":20158:20577   */\n      swap2\n      swap1\n      pop\n      jump\t// out\n        /* \"#utility.yul\":20583:20736   */\n    tag_384:\n        /* \"#utility.yul\":20723:20728   */\n      0x5351460000000000000000000000000000000000000000000000000000000000\n        /* \"#utility.yul\":20719:20720   */\n      0x00\n        /* \"#utility.yul\":20711:20717   */\n      dup3\n        /* \"#utility.yul\":20707:20721   */\n      add\n        /* \"#utility.yul\":20700:20729   */\n      mstore\n        /* \"#utility.yul\":20583:20736   */\n      pop\n      jump\t// out\n        /* \"#utility.yul\":20742:21107   */\n    tag_385:\n        /* \"#utility.yul\":20884:20887   */\n      0x00\n        /* \"#utility.yul\":20905:20971   */\n      tag_608\n        /* \"#utility.yul\":20969:20970   */\n      0x03\n        /* \"#utility.yul\":20964:20967   */\n      dup4\n        /* \"#utility.yul\":20905:20971   */\n      tag_374\n      jump\t// in\n    tag_608:\n        /* \"#utility.yul\":20898:20971   */\n      swap2\n      pop\n        /* \"#utility.yul\":20980:21073   */\n      tag_609\n        /* \"#utility.yul\":21069:21072   */\n      dup3\n        /* \"#utility.yul\":20980:21073   */\n      tag_384\n      jump\t// in\n    tag_609:\n        /* \"#utility.yul\":21098:21100   */\n      0x20\n        /* \"#utility.yul\":21093:21096   */\n      dup3\n        /* \"#utility.yul\":21089:21101   */\n      add\n        /* \"#utility.yul\":21082:21101   */\n      swap1\n      pop\n        /* \"#utility.yul\":20742:21107   */\n      swap2\n      swap1\n      pop\n      jump\t// out\n        /* \"#utility.yul\":21113:21974   */\n    tag_221:\n        /* \"#utility.yul\":21391:21395   */\n      0x00\n        /* \"#utility.yul\":21429:21432   */\n      0xa0\n        /* \"#utility.yul\":21418:21427   */\n      dup3\n        /* \"#utility.yul\":21414:21433   */\n      add\n        /* \"#utility.yul\":21406:21433   */\n      swap1\n      pop\n        /* \"#utility.yul\":21443:21514   */\n      tag_611\n        /* \"#utility.yul\":21511:21512   */\n      0x00\n        /* \"#utility.yul\":21500:21509   */\n      dup4\n        /* \"#utility.yul\":21496:21513   */\n      add\n        /* \"#utility.yul\":21487:21493   */\n      dup8\n        /* \"#utility.yul\":21443:21514   */\n      tag_366\n      jump\t// in\n    tag_611:\n        /* \"#utility.yul\":21524:21596   */\n      tag_612\n        /* \"#utility.yul\":21592:21594   */\n      0x20\n        /* \"#utility.yul\":21581:21590   */\n      dup4\n        /* \"#utility.yul\":21577:21595   */\n      add\n        /* \"#utility.yul\":21568:21574   */\n      dup7\n        /* \"#utility.yul\":21524:21596   */\n      tag_364\n      jump\t// in\n    tag_612:\n        /* \"#utility.yul\":21606:21678   */\n      tag_613\n        /* \"#utility.yul\":21674:21676   */\n      0x40\n        /* \"#utility.yul\":21663:21672   */\n      dup4\n        /* \"#utility.yul\":21659:21677   */\n      add\n        /* \"#utility.yul\":21650:21656   */\n      dup6\n        /* \"#utility.yul\":21606:21678   */\n      tag_365\n      jump\t// in\n    tag_613:\n        /* \"#utility.yul\":21725:21734   */\n      dup2\n        /* \"#utility.yul\":21719:21723   */\n      dup2\n        /* \"#utility.yul\":21715:21735   */\n      sub\n        /* \"#utility.yul\":21710:21712   */\n      0x60\n        /* \"#utility.yul\":21699:21708   */\n      dup4\n        /* \"#utility.yul\":21695:21713   */\n      add\n        /* \"#utility.yul\":21688:21736   */\n      mstore\n        /* \"#utility.yul\":21753:21884   */\n      tag_614\n        /* \"#utility.yul\":21879:21883   */\n      dup2\n        /* \"#utility.yul\":21753:21884   */\n      tag_385\n      jump\t// in\n    tag_614:\n        /* \"#utility.yul\":21745:21884   */\n      swap1\n      pop\n        /* \"#utility.yul\":21894:21967   */\n      tag_615\n        /* \"#utility.yul\":21962:21965   */\n      0x80\n        /* \"#utility.yul\":21951:21960   */\n      dup4\n        /* \"#utility.yul\":21947:21966   */\n      add\n        /* \"#utility.yul\":21938:21944   */\n      dup5\n        /* \"#utility.yul\":21894:21967   */\n      tag_365\n      jump\t// in\n    tag_615:\n        /* \"#utility.yul\":21113:21974   */\n      swap6\n      swap5\n      pop\n      pop\n      pop\n      pop\n      pop\n      jump\t// out\n        /* \"#utility.yul\":21980:22162   */\n    tag_386:\n        /* \"#utility.yul\":22120:22154   */\n      0x4f776e61626c653a2063616c6c6572206973206e6f7420746865206f776e6572\n        /* \"#utility.yul\":22116:22117   */\n      0x00\n        /* \"#utility.yul\":22108:22114   */\n      dup3\n        /* \"#utility.yul\":22104:22118   */\n      add\n        /* \"#utility.yul\":22097:22155   */\n      mstore\n        /* \"#utility.yul\":21980:22162   */\n      pop\n      jump\t// out\n        /* \"#utility.yul\":22168:22534   */\n    tag_387:\n        /* \"#utility.yul\":22310:22313   */\n      0x00\n        /* \"#utility.yul\":22331:22398   */\n      tag_618\n        /* \"#utility.yul\":22395:22397   */\n      0x20\n        /* \"#utility.yul\":22390:22393   */\n      dup4\n        /* \"#utility.yul\":22331:22398   */\n      tag_374\n      jump\t// in\n    tag_618:\n        /* \"#utility.yul\":22324:22398   */\n      swap2\n      pop\n        /* \"#utility.yul\":22407:22500   */\n      tag_619\n        /* \"#utility.yul\":22496:22499   */\n      dup3\n        /* \"#utility.yul\":22407:22500   */\n      tag_386\n      jump\t// in\n    tag_619:\n        /* \"#utility.yul\":22525:22527   */\n      0x20\n        /* \"#utility.yul\":22520:22523   */\n      dup3\n        /* \"#utility.yul\":22516:22528   */\n      add\n        /* \"#utility.yul\":22509:22528   */\n      swap1\n      pop\n        /* \"#utility.yul\":22168:22534   */\n      swap2\n      swap1\n      pop\n      jump\t// out\n        /* \"#utility.yul\":22540:22959   */\n    tag_228:\n        /* \"#utility.yul\":22706:22710   */\n      0x00\n        /* \"#utility.yul\":22744:22746   */\n      0x20\n        /* \"#utility.yul\":22733:22742   */\n      dup3\n        /* \"#utility.yul\":22729:22747   */\n      add\n        /* \"#utility.yul\":22721:22747   */\n      swap1\n      pop\n        /* \"#utility.yul\":22793:22802   */\n      dup2\n        /* \"#utility.yul\":22787:22791   */\n      dup2\n        /* \"#utility.yul\":22783:22803   */\n      sub\n        /* \"#utility.yul\":22779:22780   */\n      0x00\n        /* \"#utility.yul\":22768:22777   */\n      dup4\n        /* \"#utility.yul\":22764:22781   */\n      add\n        /* \"#utility.yul\":22757:22804   */\n      mstore\n        /* \"#utility.yul\":22821:22952   */\n      tag_621\n        /* \"#utility.yul\":22947:22951   */\n      dup2\n        /* \"#utility.yul\":22821:22952   */\n      tag_387\n      jump\t// in\n    tag_621:\n        /* \"#utility.yul\":22813:22952   */\n      swap1\n      pop\n        /* \"#utility.yul\":22540:22959   */\n      swap2\n      swap1\n      pop\n      jump\t// out\n        /* \"#utility.yul\":22965:23216   */\n    tag_388:\n        /* \"#utility.yul\":23105:23139   */\n      0x506c65617365207375626d6974207468652061736b696e672070726963652069\n        /* \"#utility.yul\":23101:23102   */\n      0x00\n        /* \"#utility.yul\":23093:23099   */\n      dup3\n        /* \"#utility.yul\":23089:23103   */\n      add\n        /* \"#utility.yul\":23082:23140   */\n      mstore\n        /* \"#utility.yul\":23174:23208   */\n      0x6e206f7264657220746f20636f6d706c65746520746865207075726368617365\n        /* \"#utility.yul\":23169:23171   */\n      0x20\n        /* \"#utility.yul\":23161:23167   */\n      dup3\n        /* \"#utility.yul\":23157:23172   */\n      add\n        /* \"#utility.yul\":23150:23209   */\n      mstore\n        /* \"#utility.yul\":22965:23216   */\n      pop\n      jump\t// out\n        /* \"#utility.yul\":23222:23588   */\n    tag_389:\n        /* \"#utility.yul\":23364:23367   */\n      0x00\n        /* \"#utility.yul\":23385:23452   */\n      tag_624\n        /* \"#utility.yul\":23449:23451   */\n      0x40\n        /* \"#utility.yul\":23444:23447   */\n      dup4\n        /* \"#utility.yul\":23385:23452   */\n      tag_374\n      jump\t// in\n    tag_624:\n        /* \"#utility.yul\":23378:23452   */\n      swap2\n      pop\n        /* \"#utility.yul\":23461:23554   */\n      tag_625\n        /* \"#utility.yul\":23550:23553   */\n      dup3\n        /* \"#utility.yul\":23461:23554   */\n      tag_388\n      jump\t// in\n    tag_625:\n        /* \"#utility.yul\":23579:23581   */\n      0x40\n        /* \"#utility.yul\":23574:23577   */\n      dup3\n        /* \"#utility.yul\":23570:23582   */\n      add\n        /* \"#utility.yul\":23563:23582   */\n      swap1\n      pop\n        /* \"#utility.yul\":23222:23588   */\n      swap2\n      swap1\n      pop\n      jump\t// out\n        /* \"#utility.yul\":23594:24013   */\n    tag_245:\n        /* \"#utility.yul\":23760:23764   */\n      0x00\n        /* \"#utility.yul\":23798:23800   */\n      0x20\n        /* \"#utility.yul\":23787:23796   */\n      dup3\n        /* \"#utility.yul\":23783:23801   */\n      add\n        /* \"#utility.yul\":23775:23801   */\n      swap1\n      pop\n        /* \"#utility.yul\":23847:23856   */\n      dup2\n        /* \"#utility.yul\":23841:23845   */\n      dup2\n        /* \"#utility.yul\":23837:23857   */\n      sub\n        /* \"#utility.yul\":23833:23834   */\n      0x00\n        /* \"#utility.yul\":23822:23831   */\n      dup4\n        /* \"#utility.yul\":23818:23835   */\n      add\n        /* \"#utility.yul\":23811:23858   */\n      mstore\n        /* \"#utility.yul\":23875:24006   */\n      tag_627\n        /* \"#utility.yul\":24001:24005   */\n      dup2\n        /* \"#utility.yul\":23875:24006   */\n      tag_389\n      jump\t// in\n    tag_627:\n        /* \"#utility.yul\":23867:24006   */\n      swap1\n      pop\n        /* \"#utility.yul\":23594:24013   */\n      swap2\n      swap1\n      pop\n      jump\t// out\n        /* \"#utility.yul\":24019:24188   */\n    tag_390:\n        /* \"#utility.yul\":24159:24180   */\n      0x4173736574206e6f74207075626c697368656400000000000000000000000000\n        /* \"#utility.yul\":24155:24156   */\n      0x00\n        /* \"#utility.yul\":24147:24153   */\n      dup3\n        /* \"#utility.yul\":24143:24157   */\n      add\n        /* \"#utility.yul\":24136:24181   */\n      mstore\n        /* \"#utility.yul\":24019:24188   */\n      pop\n      jump\t// out\n        /* \"#utility.yul\":24194:24560   */\n    tag_391:\n        /* \"#utility.yul\":24336:24339   */\n      0x00\n        /* \"#utility.yul\":24357:24424   */\n      tag_630\n        /* \"#utility.yul\":24421:24423   */\n      0x13\n        /* \"#utility.yul\":24416:24419   */\n      dup4\n        /* \"#utility.yul\":24357:24424   */\n      tag_374\n      jump\t// in\n    tag_630:\n        /* \"#utility.yul\":24350:24424   */\n      swap2\n      pop\n        /* \"#utility.yul\":24433:24526   */\n      tag_631\n        /* \"#utility.yul\":24522:24525   */\n      dup3\n        /* \"#utility.yul\":24433:24526   */\n      tag_390\n      jump\t// in\n    tag_631:\n        /* \"#utility.yul\":24551:24553   */\n      0x20\n        /* \"#utility.yul\":24546:24549   */\n      dup3\n        /* \"#utility.yul\":24542:24554   */\n      add\n        /* \"#utility.yul\":24535:24554   */\n      swap1\n      pop\n        /* \"#utility.yul\":24194:24560   */\n      swap2\n      swap1\n      pop\n      jump\t// out\n        /* \"#utility.yul\":24566:24985   */\n    tag_263:\n        /* \"#utility.yul\":24732:24736   */\n      0x00\n        /* \"#utility.yul\":24770:24772   */\n      0x20\n        /* \"#utility.yul\":24759:24768   */\n      dup3\n        /* \"#utility.yul\":24755:24773   */\n      add\n        /* \"#utility.yul\":24747:24773   */\n      swap1\n      pop\n        /* \"#utility.yul\":24819:24828   */\n      dup2\n        /* \"#utility.yul\":24813:24817   */\n      dup2\n        /* \"#utility.yul\":24809:24829   */\n      sub\n        /* \"#utility.yul\":24805:24806   */\n      0x00\n        /* \"#utility.yul\":24794:24803   */\n      dup4\n        /* \"#utility.yul\":24790:24807   */\n      add\n        /* \"#utility.yul\":24783:24830   */\n      mstore\n        /* \"#utility.yul\":24847:24978   */\n      tag_633\n        /* \"#utility.yul\":24973:24977   */\n      dup2\n        /* \"#utility.yul\":24847:24978   */\n      tag_391\n      jump\t// in\n    tag_633:\n        /* \"#utility.yul\":24839:24978   */\n      swap1\n      pop\n        /* \"#utility.yul\":24566:24985   */\n      swap2\n      swap1\n      pop\n      jump\t// out\n        /* \"#utility.yul\":24991:25165   */\n    tag_392:\n        /* \"#utility.yul\":25131:25157   */\n      0x4173736574206973206e6f74206c69737420746f206275790000000000000000\n        /* \"#utility.yul\":25127:25128   */\n      0x00\n        /* \"#utility.yul\":25119:25125   */\n      dup3\n        /* \"#utility.yul\":25115:25129   */\n      add\n        /* \"#utility.yul\":25108:25158   */\n      mstore\n        /* \"#utility.yul\":24991:25165   */\n      pop\n      jump\t// out\n        /* \"#utility.yul\":25171:25537   */\n    tag_393:\n        /* \"#utility.yul\":25313:25316   */\n      0x00\n        /* \"#utility.yul\":25334:25401   */\n      tag_636\n        /* \"#utility.yul\":25398:25400   */\n      0x18\n        /* \"#utility.yul\":25393:25396   */\n      dup4\n        /* \"#utility.yul\":25334:25401   */\n      tag_374\n      jump\t// in\n    tag_636:\n        /* \"#utility.yul\":25327:25401   */\n      swap2\n      pop\n        /* \"#utility.yul\":25410:25503   */\n      tag_637\n        /* \"#utility.yul\":25499:25502   */\n      dup3\n        /* \"#utility.yul\":25410:25503   */\n      tag_392\n      jump\t// in\n    tag_637:\n        /* \"#utility.yul\":25528:25530   */\n      0x20\n        /* \"#utility.yul\":25523:25526   */\n      dup3\n        /* \"#utility.yul\":25519:25531   */\n      add\n        /* \"#utility.yul\":25512:25531   */\n      swap1\n      pop\n        /* \"#utility.yul\":25171:25537   */\n      swap2\n      swap1\n      pop\n      jump\t// out\n        /* \"#utility.yul\":25543:25962   */\n    tag_270:\n        /* \"#utility.yul\":25709:25713   */\n      0x00\n        /* \"#utility.yul\":25747:25749   */\n      0x20\n        /* \"#utility.yul\":25736:25745   */\n      dup3\n        /* \"#utility.yul\":25732:25750   */\n      add\n        /* \"#utility.yul\":25724:25750   */\n      swap1\n      pop\n        /* \"#utility.yul\":25796:25805   */\n      dup2\n        /* \"#utility.yul\":25790:25794   */\n      dup2\n        /* \"#utility.yul\":25786:25806   */\n      sub\n        /* \"#utility.yul\":25782:25783   */\n      0x00\n        /* \"#utility.yul\":25771:25780   */\n      dup4\n        /* \"#utility.yul\":25767:25784   */\n      add\n        /* \"#utility.yul\":25760:25807   */\n      mstore\n        /* \"#utility.yul\":25824:25955   */\n      tag_639\n        /* \"#utility.yul\":25950:25954   */\n      dup2\n        /* \"#utility.yul\":25824:25955   */\n      tag_393\n      jump\t// in\n    tag_639:\n        /* \"#utility.yul\":25816:25955   */\n      swap1\n      pop\n        /* \"#utility.yul\":25543:25962   */\n      swap2\n      swap1\n      pop\n      jump\t// out\n        /* \"#utility.yul\":25968:26133   */\n    tag_394:\n        /* \"#utility.yul\":26108:26125   */\n      0x496e76616c696420616464726573730000000000000000000000000000000000\n        /* \"#utility.yul\":26104:26105   */\n      0x00\n        /* \"#utility.yul\":26096:26102   */\n      dup3\n        /* \"#utility.yul\":26092:26106   */\n      add\n        /* \"#utility.yul\":26085:26126   */\n      mstore\n        /* \"#utility.yul\":25968:26133   */\n      pop\n      jump\t// out\n        /* \"#utility.yul\":26139:26505   */\n    tag_395:\n        /* \"#utility.yul\":26281:26284   */\n      0x00\n        /* \"#utility.yul\":26302:26369   */\n      tag_642\n        /* \"#utility.yul\":26366:26368   */\n      0x0f\n        /* \"#utility.yul\":26361:26364   */\n      dup4\n        /* \"#utility.yul\":26302:26369   */\n      tag_374\n      jump\t// in\n    tag_642:\n        /* \"#utility.yul\":26295:26369   */\n      swap2\n      pop\n        /* \"#utility.yul\":26378:26471   */\n      tag_643\n        /* \"#utility.yul\":26467:26470   */\n      dup3\n        /* \"#utility.yul\":26378:26471   */\n      tag_394\n      jump\t// in\n    tag_643:\n        /* \"#utility.yul\":26496:26498   */\n      0x20\n        /* \"#utility.yul\":26491:26494   */\n      dup3\n        /* \"#utility.yul\":26487:26499   */\n      add\n        /* \"#utility.yul\":26480:26499   */\n      swap1\n      pop\n        /* \"#utility.yul\":26139:26505   */\n      swap2\n      swap1\n      pop\n      jump\t// out\n        /* \"#utility.yul\":26511:26930   */\n    tag_273:\n        /* \"#utility.yul\":26677:26681   */\n      0x00\n        /* \"#utility.yul\":26715:26717   */\n      0x20\n        /* \"#utility.yul\":26704:26713   */\n      dup3\n        /* \"#utility.yul\":26700:26718   */\n      add\n        /* \"#utility.yul\":26692:26718   */\n      swap1\n      pop\n        /* \"#utility.yul\":26764:26773   */\n      dup2\n        /* \"#utility.yul\":26758:26762   */\n      dup2\n        /* \"#utility.yul\":26754:26774   */\n      sub\n        /* \"#utility.yul\":26750:26751   */\n      0x00\n        /* \"#utility.yul\":26739:26748   */\n      dup4\n        /* \"#utility.yul\":26735:26752   */\n      add\n        /* \"#utility.yul\":26728:26775   */\n      mstore\n        /* \"#utility.yul\":26792:26923   */\n      tag_645\n        /* \"#utility.yul\":26918:26922   */\n      dup2\n        /* \"#utility.yul\":26792:26923   */\n      tag_395\n      jump\t// in\n    tag_645:\n        /* \"#utility.yul\":26784:26923   */\n      swap1\n      pop\n        /* \"#utility.yul\":26511:26930   */\n      swap2\n      swap1\n      pop\n      jump\t// out\n        /* \"#utility.yul\":26936:27116   */\n    tag_396:\n        /* \"#utility.yul\":27076:27108   */\n      0x7072696365206e65656420657175616c206c697374696e672070726963650000\n        /* \"#utility.yul\":27072:27073   */\n      0x00\n        /* \"#utility.yul\":27064:27070   */\n      dup3\n        /* \"#utility.yul\":27060:27074   */\n      add\n        /* \"#utility.yul\":27053:27109   */\n      mstore\n        /* \"#utility.yul\":26936:27116   */\n      pop\n      jump\t// out\n        /* \"#utility.yul\":27122:27488   */\n    tag_397:\n        /* \"#utility.yul\":27264:27267   */\n      0x00\n        /* \"#utility.yul\":27285:27352   */\n      tag_648\n        /* \"#utility.yul\":27349:27351   */\n      0x1e\n        /* \"#utility.yul\":27344:27347   */\n      dup4\n        /* \"#utility.yul\":27285:27352   */\n      tag_374\n      jump\t// in\n    tag_648:\n        /* \"#utility.yul\":27278:27352   */\n      swap2\n      pop\n        /* \"#utility.yul\":27361:27454   */\n      tag_649\n        /* \"#utility.yul\":27450:27453   */\n      dup3\n        /* \"#utility.yul\":27361:27454   */\n      tag_396\n      jump\t// in\n    tag_649:\n        /* \"#utility.yul\":27479:27481   */\n      0x20\n        /* \"#utility.yul\":27474:27477   */\n      dup3\n        /* \"#utility.yul\":27470:27482   */\n      add\n        /* \"#utility.yul\":27463:27482   */\n      swap1\n      pop\n        /* \"#utility.yul\":27122:27488   */\n      swap2\n      swap1\n      pop\n      jump\t// out\n        /* \"#utility.yul\":27494:27913   */\n    tag_276:\n        /* \"#utility.yul\":27660:27664   */\n      0x00\n        /* \"#utility.yul\":27698:27700   */\n      0x20\n        /* \"#utility.yul\":27687:27696   */\n      dup3\n        /* \"#utility.yul\":27683:27701   */\n      add\n        /* \"#utility.yul\":27675:27701   */\n      swap1\n      pop\n        /* \"#utility.yul\":27747:27756   */\n      dup2\n        /* \"#utility.yul\":27741:27745   */\n      dup2\n        /* \"#utility.yul\":27737:27757   */\n      sub\n        /* \"#utility.yul\":27733:27734   */\n      0x00\n        /* \"#utility.yul\":27722:27731   */\n      dup4\n        /* \"#utility.yul\":27718:27735   */\n      add\n        /* \"#utility.yul\":27711:27758   */\n      mstore\n        /* \"#utility.yul\":27775:27906   */\n      tag_651\n        /* \"#utility.yul\":27901:27905   */\n      dup2\n        /* \"#utility.yul\":27775:27906   */\n      tag_397\n      jump\t// in\n    tag_651:\n        /* \"#utility.yul\":27767:27906   */\n      swap1\n      pop\n        /* \"#utility.yul\":27494:27913   */\n      swap2\n      swap1\n      pop\n      jump\t// out\n        /* \"#utility.yul\":27919:28267   */\n    tag_278:\n        /* \"#utility.yul\":27959:27966   */\n      0x00\n        /* \"#utility.yul\":27982:28002   */\n      tag_653\n        /* \"#utility.yul\":28000:28001   */\n      dup3\n        /* \"#utility.yul\":27982:28002   */\n      tag_337\n      jump\t// in\n    tag_653:\n        /* \"#utility.yul\":27977:28002   */\n      swap2\n      pop\n        /* \"#utility.yul\":28016:28036   */\n      tag_654\n        /* \"#utility.yul\":28034:28035   */\n      dup4\n        /* \"#utility.yul\":28016:28036   */\n      tag_337\n      jump\t// in\n    tag_654:\n        /* \"#utility.yul\":28011:28036   */\n      swap3\n      pop\n        /* \"#utility.yul\":28204:28205   */\n      dup2\n        /* \"#utility.yul\":28136:28202   */\n      0xffffffffffffffffffffffffffffffffffffffffffffffffffffffffffffffff\n        /* \"#utility.yul\":28132:28206   */\n      div\n        /* \"#utility.yul\":28129:28130   */\n      dup4\n        /* \"#utility.yul\":28126:28207   */\n      gt\n        /* \"#utility.yul\":28121:28122   */\n      dup3\n        /* \"#utility.yul\":28114:28123   */\n      iszero\n        /* \"#utility.yul\":28107:28124   */\n      iszero\n        /* \"#utility.yul\":28103:28208   */\n      and\n        /* \"#utility.yul\":28100:28231   */\n      iszero\n      tag_655\n      jumpi\n        /* \"#utility.yul\":28211:28229   */\n      tag_656\n      tag_373\n      jump\t// in\n    tag_656:\n        /* \"#utility.yul\":28100:28231   */\n    tag_655:\n        /* \"#utility.yul\":28259:28260   */\n      dup3\n        /* \"#utility.yul\":28256:28257   */\n      dup3\n        /* \"#utility.yul\":28252:28261   */\n      mul\n        /* \"#utility.yul\":28241:28261   */\n      swap1\n      pop\n        /* \"#utility.yul\":27919:28267   */\n      swap3\n      swap2\n      pop\n      pop\n      jump\t// out\n        /* \"#utility.yul\":28273:28453   */\n    tag_398:\n        /* \"#utility.yul\":28321:28398   */\n      0x4e487b7100000000000000000000000000000000000000000000000000000000\n        /* \"#utility.yul\":28318:28319   */\n      0x00\n        /* \"#utility.yul\":28311:28399   */\n      mstore\n        /* \"#utility.yul\":28418:28422   */\n      0x12\n        /* \"#utility.yul\":28415:28416   */\n      0x04\n        /* \"#utility.yul\":28408:28423   */\n      mstore\n        /* \"#utility.yul\":28442:28446   */\n      0x24\n        /* \"#utility.yul\":28439:28440   */\n      0x00\n        /* \"#utility.yul\":28432:28447   */\n      revert\n        /* \"#utility.yul\":28459:28644   */\n    tag_280:\n        /* \"#utility.yul\":28499:28500   */\n      0x00\n        /* \"#utility.yul\":28516:28536   */\n      tag_659\n        /* \"#utility.yul\":28534:28535   */\n      dup3\n        /* \"#utility.yul\":28516:28536   */\n      tag_337\n      jump\t// in\n    tag_659:\n        /* \"#utility.yul\":28511:28536   */\n      swap2\n      pop\n        /* \"#utility.yul\":28550:28570   */\n      tag_660\n        /* \"#utility.yul\":28568:28569   */\n      dup4\n        /* \"#utility.yul\":28550:28570   */\n      tag_337\n      jump\t// in\n    tag_660:\n        /* \"#utility.yul\":28545:28570   */\n      swap3\n      pop\n        /* \"#utility.yul\":28589:28590   */\n      dup3\n        /* \"#utility.yul\":28579:28614   */\n      tag_661\n      jumpi\n        /* \"#utility.yul\":28594:28612   */\n      tag_662\n      tag_398\n      jump\t// in\n    tag_662:\n        /* \"#utility.yul\":28579:28614   */\n    tag_661:\n        /* \"#utility.yul\":28636:28637   */\n      dup3\n        /* \"#utility.yul\":28633:28634   */\n      dup3\n        /* \"#utility.yul\":28629:28638   */\n      div\n        /* \"#utility.yul\":28624:28638   */\n      swap1\n      pop\n        /* \"#utility.yul\":28459:28644   */\n      swap3\n      swap2\n      pop\n      pop\n      jump\t// out\n        /* \"#utility.yul\":28650:28740   */\n    tag_399:\n        /* \"#utility.yul\":28684:28691   */\n      0x00\n        /* \"#utility.yul\":28727:28732   */\n      dup2\n        /* \"#utility.yul\":28720:28733   */\n      iszero\n        /* \"#utility.yul\":28713:28734   */\n      iszero\n        /* \"#utility.yul\":28702:28734   */\n      swap1\n      pop\n        /* \"#utility.yul\":28650:28740   */\n      swap2\n      swap1\n      pop\n      jump\t// out\n        /* \"#utility.yul\":28746:28862   */\n    tag_400:\n        /* \"#utility.yul\":28816:28837   */\n      tag_665\n        /* \"#utility.yul\":28831:28836   */\n      dup2\n        /* \"#utility.yul\":28816:28837   */\n      tag_399\n      jump\t// in\n    tag_665:\n        /* \"#utility.yul\":28809:28814   */\n      dup2\n        /* \"#utility.yul\":28806:28838   */\n      eq\n        /* \"#utility.yul\":28796:28856   */\n      tag_666\n      jumpi\n        /* \"#utility.yul\":28852:28853   */\n      0x00\n        /* \"#utility.yul\":28849:28850   */\n      dup1\n        /* \"#utility.yul\":28842:28854   */\n      revert\n        /* \"#utility.yul\":28796:28856   */\n    tag_666:\n        /* \"#utility.yul\":28746:28862   */\n      pop\n      jump\t// out\n        /* \"#utility.yul\":28868:29005   */\n    tag_401:\n        /* \"#utility.yul\":28922:28927   */\n      0x00\n        /* \"#utility.yul\":28953:28959   */\n      dup2\n        /* \"#utility.yul\":28947:28960   */\n      mload\n        /* \"#utility.yul\":28938:28960   */\n      swap1\n      pop\n        /* \"#utility.yul\":28969:28999   */\n      tag_668\n        /* \"#utility.yul\":28993:28998   */\n      dup2\n        /* \"#utility.yul\":28969:28999   */\n      tag_400\n      jump\t// in\n    tag_668:\n        /* \"#utility.yul\":28868:29005   */\n      swap3\n      swap2\n      pop\n      pop\n      jump\t// out\n        /* \"#utility.yul\":29011:29356   */\n    tag_286:\n        /* \"#utility.yul\":29078:29084   */\n      0x00\n        /* \"#utility.yul\":29127:29129   */\n      0x20\n        /* \"#utility.yul\":29115:29124   */\n      dup3\n        /* \"#utility.yul\":29106:29113   */\n      dup5\n        /* \"#utility.yul\":29102:29125   */\n      sub\n        /* \"#utility.yul\":29098:29130   */\n      slt\n        /* \"#utility.yul\":29095:29214   */\n      iszero\n      tag_670\n      jumpi\n        /* \"#utility.yul\":29133:29212   */\n      tag_671\n      tag_354\n      jump\t// in\n    tag_671:\n        /* \"#utility.yul\":29095:29214   */\n    tag_670:\n        /* \"#utility.yul\":29253:29254   */\n      0x00\n        /* \"#utility.yul\":29278:29339   */\n      tag_672\n        /* \"#utility.yul\":29331:29338   */\n      dup5\n        /* \"#utility.yul\":29322:29328   */\n      dup3\n        /* \"#utility.yul\":29311:29320   */\n      dup6\n        /* \"#utility.yul\":29307:29329   */\n      add\n        /* \"#utility.yul\":29278:29339   */\n      tag_401\n      jump\t// in\n    tag_672:\n        /* \"#utility.yul\":29268:29339   */\n      swap2\n      pop\n        /* \"#utility.yul\":29224:29349   */\n      pop\n        /* \"#utility.yul\":29011:29356   */\n      swap3\n      swap2\n      pop\n      pop\n      jump\t// out\n        /* \"#utility.yul\":29362:29516   */\n    tag_402:\n        /* \"#utility.yul\":29502:29508   */\n      0x414e544100000000000000000000000000000000000000000000000000000000\n        /* \"#utility.yul\":29498:29499   */\n      0x00\n        /* \"#utility.yul\":29490:29496   */\n      dup3\n        /* \"#utility.yul\":29486:29500   */\n      add\n        /* \"#utility.yul\":29479:29509   */\n      mstore\n        /* \"#utility.yul\":29362:29516   */\n      pop\n      jump\t// out\n        /* \"#utility.yul\":29522:29887   */\n    tag_403:\n        /* \"#utility.yul\":29664:29667   */\n      0x00\n        /* \"#utility.yul\":29685:29751   */\n      tag_675\n        /* \"#utility.yul\":29749:29750   */\n      0x04\n        /* \"#utility.yul\":29744:29747   */\n      dup4\n        /* \"#utility.yul\":29685:29751   */\n      tag_374\n      jump\t// in\n    tag_675:\n        /* \"#utility.yul\":29678:29751   */\n      swap2\n      pop\n        /* \"#utility.yul\":29760:29853   */\n      tag_676\n        /* \"#utility.yul\":29849:29852   */\n      dup3\n        /* \"#utility.yul\":29760:29853   */\n      tag_402\n      jump\t// in\n    tag_676:\n        /* \"#utility.yul\":29878:29880   */\n      0x20\n        /* \"#utility.yul\":29873:29876   */\n      dup3\n        /* \"#utility.yul\":29869:29881   */\n      add\n        /* \"#utility.yul\":29862:29881   */\n      swap1\n      pop\n        /* \"#utility.yul\":29522:29887   */\n      swap2\n      swap1\n      pop\n      jump\t// out\n        /* \"#utility.yul\":29893:30968   */\n    tag_298:\n        /* \"#utility.yul\":30223:30227   */\n      0x00\n        /* \"#utility.yul\":30261:30264   */\n      0xe0\n        /* \"#utility.yul\":30250:30259   */\n      dup3\n        /* \"#utility.yul\":30246:30265   */\n      add\n        /* \"#utility.yul\":30238:30265   */\n      swap1\n      pop\n        /* \"#utility.yul\":30275:30346   */\n      tag_678\n        /* \"#utility.yul\":30343:30344   */\n      0x00\n        /* \"#utility.yul\":30332:30341   */\n      dup4\n        /* \"#utility.yul\":30328:30345   */\n      add\n        /* \"#utility.yul\":30319:30325   */\n      dup10\n        /* \"#utility.yul\":30275:30346   */\n      tag_364\n      jump\t// in\n    tag_678:\n        /* \"#utility.yul\":30356:30428   */\n      tag_679\n        /* \"#utility.yul\":30424:30426   */\n      0x20\n        /* \"#utility.yul\":30413:30422   */\n      dup4\n        /* \"#utility.yul\":30409:30427   */\n      add\n        /* \"#utility.yul\":30400:30406   */\n      dup9\n        /* \"#utility.yul\":30356:30428   */\n      tag_366\n      jump\t// in\n    tag_679:\n        /* \"#utility.yul\":30438:30510   */\n      tag_680\n        /* \"#utility.yul\":30506:30508   */\n      0x40\n        /* \"#utility.yul\":30495:30504   */\n      dup4\n        /* \"#utility.yul\":30491:30509   */\n      add\n        /* \"#utility.yul\":30482:30488   */\n      dup8\n        /* \"#utility.yul\":30438:30510   */\n      tag_365\n      jump\t// in\n    tag_680:\n        /* \"#utility.yul\":30520:30588   */\n      tag_681\n        /* \"#utility.yul\":30584:30586   */\n      0x60\n        /* \"#utility.yul\":30573:30582   */\n      dup4\n        /* \"#utility.yul\":30569:30587   */\n      add\n        /* \"#utility.yul\":30560:30566   */\n      dup7\n        /* \"#utility.yul\":30520:30588   */\n      tag_372\n      jump\t// in\n    tag_681:\n        /* \"#utility.yul\":30598:30671   */\n      tag_682\n        /* \"#utility.yul\":30666:30669   */\n      0x80\n        /* \"#utility.yul\":30655:30664   */\n      dup4\n        /* \"#utility.yul\":30651:30670   */\n      add\n        /* \"#utility.yul\":30642:30648   */\n      dup6\n        /* \"#utility.yul\":30598:30671   */\n      tag_365\n      jump\t// in\n    tag_682:\n        /* \"#utility.yul\":30719:30728   */\n      dup2\n        /* \"#utility.yul\":30713:30717   */\n      dup2\n        /* \"#utility.yul\":30709:30729   */\n      sub\n        /* \"#utility.yul\":30703:30706   */\n      0xa0\n        /* \"#utility.yul\":30692:30701   */\n      dup4\n        /* \"#utility.yul\":30688:30707   */\n      add\n        /* \"#utility.yul\":30681:30730   */\n      mstore\n        /* \"#utility.yul\":30747:30878   */\n      tag_683\n        /* \"#utility.yul\":30873:30877   */\n      dup2\n        /* \"#utility.yul\":30747:30878   */\n      tag_403\n      jump\t// in\n    tag_683:\n        /* \"#utility.yul\":30739:30878   */\n      swap1\n      pop\n        /* \"#utility.yul\":30888:30961   */\n      tag_684\n        /* \"#utility.yul\":30956:30959   */\n      0xc0\n        /* \"#utility.yul\":30945:30954   */\n      dup4\n        /* \"#utility.yul\":30941:30960   */\n      add\n        /* \"#utility.yul\":30932:30938   */\n      dup5\n        /* \"#utility.yul\":30888:30961   */\n      tag_365\n      jump\t// in\n    tag_684:\n        /* \"#utility.yul\":29893:30968   */\n      swap8\n      swap7\n      pop\n      pop\n      pop\n      pop\n      pop\n      pop\n      pop\n      jump\t// out\n        /* \"#utility.yul\":30974:31199   */\n    tag_404:\n        /* \"#utility.yul\":31114:31148   */\n      0x4f776e61626c653a206e6577206f776e657220697320746865207a65726f2061\n        /* \"#utility.yul\":31110:31111   */\n      0x00\n        /* \"#utility.yul\":31102:31108   */\n      dup3\n        /* \"#utility.yul\":31098:31112   */\n      add\n        /* \"#utility.yul\":31091:31149   */\n      mstore\n        /* \"#utility.yul\":31183:31191   */\n      0x6464726573730000000000000000000000000000000000000000000000000000\n        /* \"#utility.yul\":31178:31180   */\n      0x20\n        /* \"#utility.yul\":31170:31176   */\n      dup3\n        /* \"#utility.yul\":31166:31181   */\n      add\n        /* \"#utility.yul\":31159:31192   */\n      mstore\n        /* \"#utility.yul\":30974:31199   */\n      pop\n      jump\t// out\n        /* \"#utility.yul\":31205:31571   */\n    tag_405:\n        /* \"#utility.yul\":31347:31350   */\n      0x00\n        /* \"#utility.yul\":31368:31435   */\n      tag_687\n        /* \"#utility.yul\":31432:31434   */\n      0x26\n        /* \"#utility.yul\":31427:31430   */\n      dup4\n        /* \"#utility.yul\":31368:31435   */\n      tag_374\n      jump\t// in\n    tag_687:\n        /* \"#utility.yul\":31361:31435   */\n      swap2\n      pop\n        /* \"#utility.yul\":31444:31537   */\n      tag_688\n        /* \"#utility.yul\":31533:31536   */\n      dup3\n        /* \"#utility.yul\":31444:31537   */\n      tag_404\n      jump\t// in\n    tag_688:\n        /* \"#utility.yul\":31562:31564   */\n      0x40\n        /* \"#utility.yul\":31557:31560   */\n      dup3\n        /* \"#utility.yul\":31553:31565   */\n      add\n        /* \"#utility.yul\":31546:31565   */\n      swap1\n      pop\n        /* \"#utility.yul\":31205:31571   */\n      swap2\n      swap1\n      pop\n      jump\t// out\n        /* \"#utility.yul\":31577:31996   */\n    tag_307:\n        /* \"#utility.yul\":31743:31747   */\n      0x00\n        /* \"#utility.yul\":31781:31783   */\n      0x20\n        /* \"#utility.yul\":31770:31779   */\n      dup3\n        /* \"#utility.yul\":31766:31784   */\n      add\n        /* \"#utility.yul\":31758:31784   */\n      swap1\n      pop\n        /* \"#utility.yul\":31830:31839   */\n      dup2\n        /* \"#utility.yul\":31824:31828   */\n      dup2\n        /* \"#utility.yul\":31820:31840   */\n      sub\n        /* \"#utility.yul\":31816:31817   */\n      0x00\n        /* \"#utility.yul\":31805:31814   */\n      dup4\n        /* \"#utility.yul\":31801:31818   */\n      add\n        /* \"#utility.yul\":31794:31841   */\n      mstore\n        /* \"#utility.yul\":31858:31989   */\n      tag_690\n        /* \"#utility.yul\":31984:31988   */\n      dup2\n        /* \"#utility.yul\":31858:31989   */\n      tag_405\n      jump\t// in\n    tag_690:\n        /* \"#utility.yul\":31850:31989   */\n      swap1\n      pop\n        /* \"#utility.yul\":31577:31996   */\n      swap2\n      swap1\n      pop\n      jump\t// out\n        /* \"#utility.yul\":32002:32225   */\n    tag_406:\n        /* \"#utility.yul\":32142:32176   */\n      0x546865204e465420416464726573732073686f756c64206265206120636f6e74\n        /* \"#utility.yul\":32138:32139   */\n      0x00\n        /* \"#utility.yul\":32130:32136   */\n      dup3\n        /* \"#utility.yul\":32126:32140   */\n      add\n        /* \"#utility.yul\":32119:32177   */\n      mstore\n        /* \"#utility.yul\":32211:32217   */\n      0x7261637400000000000000000000000000000000000000000000000000000000\n        /* \"#utility.yul\":32206:32208   */\n      0x20\n        /* \"#utility.yul\":32198:32204   */\n      dup3\n        /* \"#utility.yul\":32194:32209   */\n      add\n        /* \"#utility.yul\":32187:32218   */\n      mstore\n        /* \"#utility.yul\":32002:32225   */\n      pop\n      jump\t// out\n        /* \"#utility.yul\":32231:32597   */\n    tag_407:\n        /* \"#utility.yul\":32373:32376   */\n      0x00\n        /* \"#utility.yul\":32394:32461   */\n      tag_693\n        /* \"#utility.yul\":32458:32460   */\n      0x24\n        /* \"#utility.yul\":32453:32456   */\n      dup4\n        /* \"#utility.yul\":32394:32461   */\n      tag_374\n      jump\t// in\n    tag_693:\n        /* \"#utility.yul\":32387:32461   */\n      swap2\n      pop\n        /* \"#utility.yul\":32470:32563   */\n      tag_694\n        /* \"#utility.yul\":32559:32562   */\n      dup3\n        /* \"#utility.yul\":32470:32563   */\n      tag_406\n      jump\t// in\n    tag_694:\n        /* \"#utility.yul\":32588:32590   */\n      0x40\n        /* \"#utility.yul\":32583:32586   */\n      dup3\n        /* \"#utility.yul\":32579:32591   */\n      add\n        /* \"#utility.yul\":32572:32591   */\n      swap1\n      pop\n        /* \"#utility.yul\":32231:32597   */\n      swap2\n      swap1\n      pop\n      jump\t// out\n        /* \"#utility.yul\":32603:33022   */\n    tag_316:\n        /* \"#utility.yul\":32769:32773   */\n      0x00\n        /* \"#utility.yul\":32807:32809   */\n      0x20\n        /* \"#utility.yul\":32796:32805   */\n      dup3\n        /* \"#utility.yul\":32792:32810   */\n      add\n        /* \"#utility.yul\":32784:32810   */\n      swap1\n      pop\n        /* \"#utility.yul\":32856:32865   */\n      dup2\n        /* \"#utility.yul\":32850:32854   */\n      dup2\n        /* \"#utility.yul\":32846:32866   */\n      sub\n        /* \"#utility.yul\":32842:32843   */\n      0x00\n        /* \"#utility.yul\":32831:32840   */\n      dup4\n        /* \"#utility.yul\":32827:32844   */\n      add\n        /* \"#utility.yul\":32820:32867   */\n      mstore\n        /* \"#utility.yul\":32884:33015   */\n      tag_696\n        /* \"#utility.yul\":33010:33014   */\n      dup2\n        /* \"#utility.yul\":32884:33015   */\n      tag_407\n      jump\t// in\n    tag_696:\n        /* \"#utility.yul\":32876:33015   */\n      swap1\n      pop\n        /* \"#utility.yul\":32603:33022   */\n      swap2\n      swap1\n      pop\n      jump\t// out\n        /* \"#utility.yul\":33028:33268   */\n    tag_408:\n        /* \"#utility.yul\":33168:33202   */\n      0x546865204e465420636f6e74726163742068617320616e20696e76616c696420\n        /* \"#utility.yul\":33164:33165   */\n      0x00\n        /* \"#utility.yul\":33156:33162   */\n      dup3\n        /* \"#utility.yul\":33152:33166   */\n      add\n        /* \"#utility.yul\":33145:33203   */\n      mstore\n        /* \"#utility.yul\":33237:33260   */\n      0x45524337323120696d706c656d656e746174696f6e0000000000000000000000\n        /* \"#utility.yul\":33232:33234   */\n      0x20\n        /* \"#utility.yul\":33224:33230   */\n      dup3\n        /* \"#utility.yul\":33220:33235   */\n      add\n        /* \"#utility.yul\":33213:33261   */\n      mstore\n        /* \"#utility.yul\":33028:33268   */\n      pop\n      jump\t// out\n        /* \"#utility.yul\":33274:33640   */\n    tag_409:\n        /* \"#utility.yul\":33416:33419   */\n      0x00\n        /* \"#utility.yul\":33437:33504   */\n      tag_699\n        /* \"#utility.yul\":33501:33503   */\n      0x35\n        /* \"#utility.yul\":33496:33499   */\n      dup4\n        /* \"#utility.yul\":33437:33504   */\n      tag_374\n      jump\t// in\n    tag_699:\n        /* \"#utility.yul\":33430:33504   */\n      swap2\n      pop\n        /* \"#utility.yul\":33513:33606   */\n      tag_700\n        /* \"#utility.yul\":33602:33605   */\n      dup3\n        /* \"#utility.yul\":33513:33606   */\n      tag_408\n      jump\t// in\n    tag_700:\n        /* \"#utility.yul\":33631:33633   */\n      0x40\n        /* \"#utility.yul\":33626:33629   */\n      dup3\n        /* \"#utility.yul\":33622:33634   */\n      add\n        /* \"#utility.yul\":33615:33634   */\n      swap1\n      pop\n        /* \"#utility.yul\":33274:33640   */\n      swap2\n      swap1\n      pop\n      jump\t// out\n        /* \"#utility.yul\":33646:34065   */\n    tag_323:\n        /* \"#utility.yul\":33812:33816   */\n      0x00\n        /* \"#utility.yul\":33850:33852   */\n      0x20\n        /* \"#utility.yul\":33839:33848   */\n      dup3\n        /* \"#utility.yul\":33835:33853   */\n      add\n        /* \"#utility.yul\":33827:33853   */\n      swap1\n      pop\n        /* \"#utility.yul\":33899:33908   */\n      dup2\n        /* \"#utility.yul\":33893:33897   */\n      dup2\n        /* \"#utility.yul\":33889:33909   */\n      sub\n        /* \"#utility.yul\":33885:33886   */\n      0x00\n        /* \"#utility.yul\":33874:33883   */\n      dup4\n        /* \"#utility.yul\":33870:33887   */\n      add\n        /* \"#utility.yul\":33863:33910   */\n      mstore\n        /* \"#utility.yul\":33927:34058   */\n      tag_702\n        /* \"#utility.yul\":34053:34057   */\n      dup2\n        /* \"#utility.yul\":33927:34058   */\n      tag_409\n      jump\t// in\n    tag_702:\n        /* \"#utility.yul\":33919:34058   */\n      swap1\n      pop\n        /* \"#utility.yul\":33646:34065   */\n      swap2\n      swap1\n      pop\n      jump\t// out\n        /* \"#utility.yul\":34071:34150   */\n    tag_410:\n        /* \"#utility.yul\":34110:34117   */\n      0x00\n        /* \"#utility.yul\":34139:34144   */\n      dup2\n        /* \"#utility.yul\":34128:34144   */\n      swap1\n      pop\n        /* \"#utility.yul\":34071:34150   */\n      swap2\n      swap1\n      pop\n      jump\t// out\n        /* \"#utility.yul\":34156:34313   */\n    tag_411:\n        /* \"#utility.yul\":34261:34306   */\n      tag_705\n        /* \"#utility.yul\":34281:34305   */\n      tag_706\n        /* \"#utility.yul\":34299:34304   */\n      dup3\n        /* \"#utility.yul\":34281:34305   */\n      tag_337\n      jump\t// in\n    tag_706:\n        /* \"#utility.yul\":34261:34306   */\n      tag_410\n      jump\t// in\n    tag_705:\n        /* \"#utility.yul\":34256:34259   */\n      dup3\n        /* \"#utility.yul\":34249:34307   */\n      mstore\n        /* \"#utility.yul\":34156:34313   */\n      pop\n      pop\n      jump\t// out\n        /* \"#utility.yul\":34319:34413   */\n    tag_412:\n        /* \"#utility.yul\":34352:34360   */\n      0x00\n        /* \"#utility.yul\":34400:34405   */\n      dup2\n        /* \"#utility.yul\":34396:34398   */\n      0x60\n        /* \"#utility.yul\":34392:34406   */\n      shl\n        /* \"#utility.yul\":34371:34406   */\n      swap1\n      pop\n        /* \"#utility.yul\":34319:34413   */\n      swap2\n      swap1\n      pop\n      jump\t// out\n        /* \"#utility.yul\":34419:34513   */\n    tag_413:\n        /* \"#utility.yul\":34458:34465   */\n      0x00\n        /* \"#utility.yul\":34487:34507   */\n      tag_709\n        /* \"#utility.yul\":34501:34506   */\n      dup3\n        /* \"#utility.yul\":34487:34507   */\n      tag_412\n      jump\t// in\n    tag_709:\n        /* \"#utility.yul\":34476:34507   */\n      swap1\n      pop\n        /* \"#utility.yul\":34419:34513   */\n      swap2\n      swap1\n      pop\n      jump\t// out\n        /* \"#utility.yul\":34519:34619   */\n    tag_414:\n        /* \"#utility.yul\":34558:34565   */\n      0x00\n        /* \"#utility.yul\":34587:34613   */\n      tag_711\n        /* \"#utility.yul\":34607:34612   */\n      dup3\n        /* \"#utility.yul\":34587:34613   */\n      tag_413\n      jump\t// in\n    tag_711:\n        /* \"#utility.yul\":34576:34613   */\n      swap1\n      pop\n        /* \"#utility.yul\":34519:34619   */\n      swap2\n      swap1\n      pop\n      jump\t// out\n        /* \"#utility.yul\":34625:34782   */\n    tag_415:\n        /* \"#utility.yul\":34730:34775   */\n      tag_713\n        /* \"#utility.yul\":34750:34774   */\n      tag_714\n        /* \"#utility.yul\":34768:34773   */\n      dup3\n        /* \"#utility.yul\":34750:34774   */\n      tag_340\n      jump\t// in\n    tag_714:\n        /* \"#utility.yul\":34730:34775   */\n      tag_414\n      jump\t// in\n    tag_713:\n        /* \"#utility.yul\":34725:34728   */\n      dup3\n        /* \"#utility.yul\":34718:34776   */\n      mstore\n        /* \"#utility.yul\":34625:34782   */\n      pop\n      pop\n      jump\t// out\n        /* \"#utility.yul\":34788:35608   */\n    tag_326:\n        /* \"#utility.yul\":35012:35015   */\n      0x00\n        /* \"#utility.yul\":35027:35102   */\n      tag_716\n        /* \"#utility.yul\":35098:35101   */\n      dup3\n        /* \"#utility.yul\":35089:35095   */\n      dup9\n        /* \"#utility.yul\":35027:35102   */\n      tag_411\n      jump\t// in\n    tag_716:\n        /* \"#utility.yul\":35127:35129   */\n      0x20\n        /* \"#utility.yul\":35122:35125   */\n      dup3\n        /* \"#utility.yul\":35118:35130   */\n      add\n        /* \"#utility.yul\":35111:35130   */\n      swap2\n      pop\n        /* \"#utility.yul\":35140:35215   */\n      tag_717\n        /* \"#utility.yul\":35211:35214   */\n      dup3\n        /* \"#utility.yul\":35202:35208   */\n      dup8\n        /* \"#utility.yul\":35140:35215   */\n      tag_415\n      jump\t// in\n    tag_717:\n        /* \"#utility.yul\":35240:35242   */\n      0x14\n        /* \"#utility.yul\":35235:35238   */\n      dup3\n        /* \"#utility.yul\":35231:35243   */\n      add\n        /* \"#utility.yul\":35224:35243   */\n      swap2\n      pop\n        /* \"#utility.yul\":35253:35328   */\n      tag_718\n        /* \"#utility.yul\":35324:35327   */\n      dup3\n        /* \"#utility.yul\":35315:35321   */\n      dup7\n        /* \"#utility.yul\":35253:35328   */\n      tag_411\n      jump\t// in\n    tag_718:\n        /* \"#utility.yul\":35353:35355   */\n      0x20\n        /* \"#utility.yul\":35348:35351   */\n      dup3\n        /* \"#utility.yul\":35344:35356   */\n      add\n        /* \"#utility.yul\":35337:35356   */\n      swap2\n      pop\n        /* \"#utility.yul\":35366:35441   */\n      tag_719\n        /* \"#utility.yul\":35437:35440   */\n      dup3\n        /* \"#utility.yul\":35428:35434   */\n      dup6\n        /* \"#utility.yul\":35366:35441   */\n      tag_415\n      jump\t// in\n    tag_719:\n        /* \"#utility.yul\":35466:35468   */\n      0x14\n        /* \"#utility.yul\":35461:35464   */\n      dup3\n        /* \"#utility.yul\":35457:35469   */\n      add\n        /* \"#utility.yul\":35450:35469   */\n      swap2\n      pop\n        /* \"#utility.yul\":35479:35554   */\n      tag_720\n        /* \"#utility.yul\":35550:35553   */\n      dup3\n        /* \"#utility.yul\":35541:35547   */\n      dup5\n        /* \"#utility.yul\":35479:35554   */\n      tag_411\n      jump\t// in\n    tag_720:\n        /* \"#utility.yul\":35579:35581   */\n      0x20\n        /* \"#utility.yul\":35574:35577   */\n      dup3\n        /* \"#utility.yul\":35570:35582   */\n      add\n        /* \"#utility.yul\":35563:35582   */\n      swap2\n      pop\n        /* \"#utility.yul\":35599:35602   */\n      dup2\n        /* \"#utility.yul\":35592:35602   */\n      swap1\n      pop\n        /* \"#utility.yul\":34788:35608   */\n      swap7\n      swap6\n      pop\n      pop\n      pop\n      pop\n      pop\n      pop\n      jump\t// out\n\n    auxdata: 0xa26469706673582212202b0b3327ccfa446ad0fe32c455874df4531d5393e0c27743f9e346b033b584f864736f6c634300080d0033\n}\n",
				"bytecode": {
					"linkReferences": {},
					"object": "60806040523480156200001157600080fd5b5060016000819055506200003a6200002e6200004060201b60201c565b6200004860201b60201c565b6200010e565b600033905090565b6000600460009054906101000a900473ffffffffffffffffffffffffffffffffffffffff16905081600460006101000a81548173ffffffffffffffffffffffffffffffffffffffff021916908373ffffffffffffffffffffffffffffffffffffffff1602179055508173ffffffffffffffffffffffffffffffffffffffff168173ffffffffffffffffffffffffffffffffffffffff167f8be0079c531659141344cd1fd0a4f28419497f9722a3daafe3b4186f6b6457e060405160405180910390a35050565b613981806200011e6000396000f3fe6080604052600436106101095760003560e01c8063715018a611610095578063b7a60c7e11610064578063b7a60c7e14610352578063c23b139e1461037d578063c7be7a4914610399578063f01b52dc146103d6578063f2fde38b146103ff57610109565b8063715018a6146102bc57806385a8b36c146102d35780638da5cb5b146102fe57806392bf77dd1461032957610109565b80632b4c32be116100dc5780632b4c32be146101cc57806349739678146101f757806358eb2df5146102355780635c80a43514610251578063689153271461029357610109565b80630f08efe01461010e57806315b81dc314610139578063202e3740146101645780632a45b2501461018f575b600080fd5b34801561011a57600080fd5b50610123610428565b6040516101309190612913565b60405180910390f35b34801561014557600080fd5b5061014e6106ec565b60405161015b9190612994565b60405180910390f35b34801561017057600080fd5b50610179610712565b6040516101869190612913565b60405180910390f35b34801561019b57600080fd5b506101b660048036038101906101b191906129e0565b610a59565b6040516101c39190612a88565b60405180910390f35b3480156101d857600080fd5b506101e1610bac565b6040516101ee9190612ade565b60405180910390f35b34801561020357600080fd5b5061021e60048036038101906102199190612b25565b610bb7565b60405161022c929190612ba0565b60405180910390f35b61024f600480360381019061024a9190612bc9565b610bf5565b005b34801561025d57600080fd5b5061027860048036038101906102739190612c1c565b610e93565b60405161028a96959493929190612ce2565b60405180910390f35b34801561029f57600080fd5b506102ba60048036038101906102b59190612bc9565b610f29565b005b3480156102c857600080fd5b506102d161168d565b005b3480156102df57600080fd5b506102e8611715565b6040516102f59190612d5f565b60405180910390f35b34801561030a57600080fd5b50610313611728565b6040516103209190612d7a565b60405180910390f35b34801561033557600080fd5b50610350600480360381019061034b9190612d95565b611752565b005b34801561035e57600080fd5b50610367611812565b6040516103749190612d5f565b60405180910390f35b61039760048036038101906103929190612c1c565b611825565b005b3480156103a557600080fd5b506103c060048036038101906103bb91906129e0565b611a43565b6040516103cd9190612a88565b60405180910390f35b3480156103e257600080fd5b506103fd60048036038101906103f89190612bc9565b611b90565b005b34801561040b57600080fd5b5061042660048036038101906104219190612d95565b61220d565b005b606060006104366005612304565b905060006104446006612304565b61044e6005612304565b6104589190612df1565b90506000808267ffffffffffffffff81111561047757610476612e25565b5b6040519080825280602002602001820160405280156104b057816020015b61049d6126f6565b8152602001906001900390816104955790505b50905060005b848110156106e157600073ffffffffffffffffffffffffffffffffffffffff16600760006001846104e79190612e54565b815260200190815260200160002060040160009054906101000a900473ffffffffffffffffffffffffffffffffffffffff1673ffffffffffffffffffffffffffffffffffffffff16036106ce576000600760006001846105479190612e54565b81526020019081526020016000206000015490506000600760008381526020019081526020016000209050806040518060c0016040529081600082015481526020016001820160009054906101000a900473ffffffffffffffffffffffffffffffffffffffff1673ffffffffffffffffffffffffffffffffffffffff1673ffffffffffffffffffffffffffffffffffffffff168152602001600282015481526020016003820160009054906101000a900473ffffffffffffffffffffffffffffffffffffffff1673ffffffffffffffffffffffffffffffffffffffff1673ffffffffffffffffffffffffffffffffffffffff1681526020016004820160009054906101000a900473ffffffffffffffffffffffffffffffffffffffff1673ffffffffffffffffffffffffffffffffffffffff1673ffffffffffffffffffffffffffffffffffffffff1681526020016005820154815250508486815181106106b1576106b0612eaa565b5b60200260200101819052506001856106c99190612e54565b945050505b80806106d990612ed9565b9150506104b6565b508094505050505090565b600360009054906101000a900473ffffffffffffffffffffffffffffffffffffffff1681565b606060006107206005612304565b905060008060005b838110156107c8573373ffffffffffffffffffffffffffffffffffffffff16600760006001846107589190612e54565b815260200190815260200160002060040160009054906101000a900473ffffffffffffffffffffffffffffffffffffffff1673ffffffffffffffffffffffffffffffffffffffff16036107b5576001836107b29190612e54565b92505b80806107c090612ed9565b915050610728565b5060008267ffffffffffffffff8111156107e5576107e4612e25565b5b60405190808252806020026020018201604052801561081e57816020015b61080b6126f6565b8152602001906001900390816108035790505b50905060005b84811015610a4e573373ffffffffffffffffffffffffffffffffffffffff16600760006001846108549190612e54565b815260200190815260200160002060040160009054906101000a900473ffffffffffffffffffffffffffffffffffffffff1673ffffffffffffffffffffffffffffffffffffffff1603610a3b576000600760006001846108b49190612e54565b81526020019081526020016000206000015490506000600760008381526020019081526020016000209050806040518060c0016040529081600082015481526020016001820160009054906101000a900473ffffffffffffffffffffffffffffffffffffffff1673ffffffffffffffffffffffffffffffffffffffff1673ffffffffffffffffffffffffffffffffffffffff168152602001600282015481526020016003820160009054906101000a900473ffffffffffffffffffffffffffffffffffffffff1673ffffffffffffffffffffffffffffffffffffffff1673ffffffffffffffffffffffffffffffffffffffff1681526020016004820160009054906101000a900473ffffffffffffffffffffffffffffffffffffffff1673ffffffffffffffffffffffffffffffffffffffff1673ffffffffffffffffffffffffffffffffffffffff168152602001600582015481525050848681518110610a1e57610a1d612eaa565b5b6020026020010181905250600185610a369190612e54565b945050505b8080610a4690612ed9565b915050610824565b508094505050505090565b610a616126f6565b6000600760008481526020019081526020016000206040518060c0016040529081600082015481526020016001820160009054906101000a900473ffffffffffffffffffffffffffffffffffffffff1673ffffffffffffffffffffffffffffffffffffffff1673ffffffffffffffffffffffffffffffffffffffff168152602001600282015481526020016003820160009054906101000a900473ffffffffffffffffffffffffffffffffffffffff1673ffffffffffffffffffffffffffffffffffffffff1673ffffffffffffffffffffffffffffffffffffffff1681526020016004820160009054906101000a900473ffffffffffffffffffffffffffffffffffffffff1673ffffffffffffffffffffffffffffffffffffffff1673ffffffffffffffffffffffffffffffffffffffff168152602001600582015481525050905080915050919050565b6380ac58cd60e01b81565b600260205282600052604060002060205281600052604060002060205280600052604060002060009250925050508060000154908060010154905082565b600260005403610c3a576040517f08c379a0000000000000000000000000000000000000000000000000000000008152600401610c3190612f7e565b60405180910390fd5b600260008190555060008111610c85576040517f08c379a0000000000000000000000000000000000000000000000000000000008152600401610c7c90612fea565b60405180910390fd5b610c8f6005612312565b6000610c9b6005612304565b90506040518060c001604052808281526020018573ffffffffffffffffffffffffffffffffffffffff1681526020018481526020013373ffffffffffffffffffffffffffffffffffffffff168152602001600073ffffffffffffffffffffffffffffffffffffffff16815260200183815250600760008381526020019081526020016000206000820151816000015560208201518160010160006101000a81548173ffffffffffffffffffffffffffffffffffffffff021916908373ffffffffffffffffffffffffffffffffffffffff1602179055506040820151816002015560608201518160030160006101000a81548173ffffffffffffffffffffffffffffffffffffffff021916908373ffffffffffffffffffffffffffffffffffffffff16021790555060808201518160040160006101000a81548173ffffffffffffffffffffffffffffffffffffffff021916908373ffffffffffffffffffffffffffffffffffffffff16021790555060a082015181600501559050508373ffffffffffffffffffffffffffffffffffffffff166323b872dd3330866040518463ffffffff1660e01b8152600401610e539392919061300a565b600060405180830381600087803b158015610e6d57600080fd5b505af1158015610e81573d6000803e3d6000fd5b50505050506001600081905550505050565b6001602052816000526040600020602052806000526040600020600091509150508060000154908060010160009054906101000a900473ffffffffffffffffffffffffffffffffffffffff16908060020160009054906101000a900473ffffffffffffffffffffffffffffffffffffffff16908060030154908060040154908060050160009054906101000a900460ff16905086565b60008111610f6c576040517f08c379a0000000000000000000000000000000000000000000000000000000008152600401610f6390612fea565b60405180910390fd5b610f7583612328565b6000339050610f846005612312565b60008490506000610f956005612304565b90508273ffffffffffffffffffffffffffffffffffffffff168273ffffffffffffffffffffffffffffffffffffffff16636352211e876040518263ffffffff1660e01b8152600401610fe79190613041565b602060405180830381865afa158015611004573d6000803e3d6000fd5b505050506040513d601f19601f820116820180604052508101906110289190613071565b73ffffffffffffffffffffffffffffffffffffffff161461107e576040517f08c379a000000000000000000000000000000000000000000000000000000000815260040161107590613110565b60405180910390fd5b6040518060c001604052808281526020018773ffffffffffffffffffffffffffffffffffffffff1681526020018681526020013373ffffffffffffffffffffffffffffffffffffffff168152602001600073ffffffffffffffffffffffffffffffffffffffff16815260200185815250600760008381526020019081526020016000206000820151816000015560208201518160010160006101000a81548173ffffffffffffffffffffffffffffffffffffffff021916908373ffffffffffffffffffffffffffffffffffffffff1602179055506040820151816002015560608201518160030160006101000a81548173ffffffffffffffffffffffffffffffffffffffff021916908373ffffffffffffffffffffffffffffffffffffffff16021790555060808201518160040160006101000a81548173ffffffffffffffffffffffffffffffffffffffff021916908373ffffffffffffffffffffffffffffffffffffffff16021790555060a082015181600501559050508173ffffffffffffffffffffffffffffffffffffffff166323b872dd8430886040518463ffffffff1660e01b81526004016112349392919061300a565b600060405180830381600087803b15801561124e57600080fd5b505af1158015611262573d6000803e3d6000fd5b505050506000600160008873ffffffffffffffffffffffffffffffffffffffff1673ffffffffffffffffffffffffffffffffffffffff16815260200190815260200160002060008781526020019081526020016000206040518060c0016040529081600082015481526020016001820160009054906101000a900473ffffffffffffffffffffffffffffffffffffffff1673ffffffffffffffffffffffffffffffffffffffff1673ffffffffffffffffffffffffffffffffffffffff1681526020016002820160009054906101000a900473ffffffffffffffffffffffffffffffffffffffff1673ffffffffffffffffffffffffffffffffffffffff1673ffffffffffffffffffffffffffffffffffffffff16815260200160038201548152602001600482015481526020016005820160009054906101000a900460ff1660048111156113b2576113b1612c6b565b5b60048111156113c4576113c3612c6b565b5b8152505090506000801b8160000151036113eb576113e6848789886000612439565b6115bc565b600160048111156113ff576113fe612c6b565b5b8160a00151600481111561141657611415612c6b565b5b03611456576040517f08c379a000000000000000000000000000000000000000000000000000000000815260040161144d9061317c565b60405180910390fd5b60018060008973ffffffffffffffffffffffffffffffffffffffff1673ffffffffffffffffffffffffffffffffffffffff168152602001908152602001600020600088815260200190815260200160002060050160006101000a81548160ff021916908360048111156114cc576114cb612c6b565b5b021790555084600160008973ffffffffffffffffffffffffffffffffffffffff1673ffffffffffffffffffffffffffffffffffffffff16815260200190815260200160002060008881526020019081526020016000206003018190555083600160008973ffffffffffffffffffffffffffffffffffffffff1673ffffffffffffffffffffffffffffffffffffffff168152602001908152602001600020600088815260200190815260200160002060010160006101000a81548173ffffffffffffffffffffffffffffffffffffffff021916908373ffffffffffffffffffffffffffffffffffffffff1602179055505b8273ffffffffffffffffffffffffffffffffffffffff166323b872dd8530896040518463ffffffff1660e01b81526004016115f99392919061300a565b600060405180830381600087803b15801561161357600080fd5b505af1158015611627573d6000803e3d6000fd5b505050508373ffffffffffffffffffffffffffffffffffffffff16867fff2412bd5c66e6ad5153e35ee902ee32bb4393211a4d0662428b9b481929a7b9898460000151894260405161167c94939291906131e8565b60405180910390a350505050505050565b61169561260f565b73ffffffffffffffffffffffffffffffffffffffff166116b3611728565b73ffffffffffffffffffffffffffffffffffffffff1614611709576040517f08c379a00000000000000000000000000000000000000000000000000000000081526004016117009061328c565b60405180910390fd5b6117136000612617565b565b600360149054906101000a900460ff1681565b6000600460009054906101000a900473ffffffffffffffffffffffffffffffffffffffff16905090565b61175a61260f565b73ffffffffffffffffffffffffffffffffffffffff16611778611728565b73ffffffffffffffffffffffffffffffffffffffff16146117ce576040517f08c379a00000000000000000000000000000000000000000000000000000000081526004016117c59061328c565b60405180910390fd5b80600360006101000a81548173ffffffffffffffffffffffffffffffffffffffff021916908373ffffffffffffffffffffffffffffffffffffffff16021790555050565b600360159054906101000a900460ff1681565b60026000540361186a576040517f08c379a000000000000000000000000000000000000000000000000000000000815260040161186190612f7e565b60405180910390fd5b60026000819055506000600760008381526020019081526020016000206005015490506000600760008481526020019081526020016000206002015490508134146118ea576040517f08c379a00000000000000000000000000000000000000000000000000000000081526004016118e19061331e565b60405180910390fd5b6007600084815260200190815260200160002060030160009054906101000a900473ffffffffffffffffffffffffffffffffffffffff1673ffffffffffffffffffffffffffffffffffffffff166108fc349081150290604051600060405180830381858888f19350505050158015611966573d6000803e3d6000fd5b508373ffffffffffffffffffffffffffffffffffffffff166323b872dd3033846040518463ffffffff1660e01b81526004016119a49392919061300a565b600060405180830381600087803b1580156119be57600080fd5b505af11580156119d2573d6000803e3d6000fd5b50505050336007600085815260200190815260200160002060040160006101000a81548173ffffffffffffffffffffffffffffffffffffffff021916908373ffffffffffffffffffffffffffffffffffffffff160217905550611a356006612312565b505060016000819055505050565b611a4b6126f6565b600760008381526020019081526020016000206040518060c0016040529081600082015481526020016001820160009054906101000a900473ffffffffffffffffffffffffffffffffffffffff1673ffffffffffffffffffffffffffffffffffffffff1673ffffffffffffffffffffffffffffffffffffffff168152602001600282015481526020016003820160009054906101000a900473ffffffffffffffffffffffffffffffffffffffff1673ffffffffffffffffffffffffffffffffffffffff1673ffffffffffffffffffffffffffffffffffffffff1681526020016004820160009054906101000a900473ffffffffffffffffffffffffffffffffffffffff1673ffffffffffffffffffffffffffffffffffffffff1673ffffffffffffffffffffffffffffffffffffffff1681526020016005820154815250509050919050565b611b9983612328565b600033905060008490506000600160008773ffffffffffffffffffffffffffffffffffffffff1673ffffffffffffffffffffffffffffffffffffffff16815260200190815260200160002060008681526020019081526020016000206040518060c0016040529081600082015481526020016001820160009054906101000a900473ffffffffffffffffffffffffffffffffffffffff1673ffffffffffffffffffffffffffffffffffffffff1673ffffffffffffffffffffffffffffffffffffffff1681526020016002820160009054906101000a900473ffffffffffffffffffffffffffffffffffffffff1673ffffffffffffffffffffffffffffffffffffffff1673ffffffffffffffffffffffffffffffffffffffff16815260200160038201548152602001600482015481526020016005820160009054906101000a900460ff166004811115611cef57611cee612c6b565b5b6004811115611d0157611d00612c6b565b5b8152505090506000801b816000015103611d50576040517f08c379a0000000000000000000000000000000000000000000000000000000008152600401611d479061338a565b60405180910390fd5b60016004811115611d6457611d63612c6b565b5b8160a001516004811115611d7b57611d7a612c6b565b5b14611dbb576040517f08c379a0000000000000000000000000000000000000000000000000000000008152600401611db2906133f6565b60405180910390fd5b600081602001519050600073ffffffffffffffffffffffffffffffffffffffff168173ffffffffffffffffffffffffffffffffffffffff1603611e33576040517f08c379a0000000000000000000000000000000000000000000000000000000008152600401611e2a90613462565b60405180910390fd5b8160800151851015611e7a576040517f08c379a0000000000000000000000000000000000000000000000000000000008152600401611e71906134ce565b60405180910390fd5b6000606486600360159054906101000a900460ff1660ff16611e9c91906134ee565b611ea69190613577565b905060008187611eb69190612df1565b9050600360009054906101000a900473ffffffffffffffffffffffffffffffffffffffff1673ffffffffffffffffffffffffffffffffffffffff166323b872dd8730856040518463ffffffff1660e01b8152600401611f179392919061300a565b6020604051808303816000875af1158015611f36573d6000803e3d6000fd5b505050506040513d601f19601f82011682018060405250810190611f5a91906135e0565b50600360009054906101000a900473ffffffffffffffffffffffffffffffffffffffff1673ffffffffffffffffffffffffffffffffffffffff166323b872dd8785846040518463ffffffff1660e01b8152600401611fba9392919061300a565b6020604051808303816000875af1158015611fd9573d6000803e3d6000fd5b505050506040513d601f19601f82011682018060405250810190611ffd91906135e0565b508473ffffffffffffffffffffffffffffffffffffffff166342842e0e30888b6040518463ffffffff1660e01b815260040161203b9392919061300a565b600060405180830381600087803b15801561205557600080fd5b505af1158015612069573d6000803e3d6000fd5b5050505085600160008b73ffffffffffffffffffffffffffffffffffffffff1673ffffffffffffffffffffffffffffffffffffffff16815260200190815260200160002060008a815260200190815260200160002060010160006101000a81548173ffffffffffffffffffffffffffffffffffffffff021916908373ffffffffffffffffffffffffffffffffffffffff1602179055506002600160008b73ffffffffffffffffffffffffffffffffffffffff1673ffffffffffffffffffffffffffffffffffffffff16815260200190815260200160002060008a815260200190815260200160002060050160006101000a81548160ff0219169083600481111561217657612175612c6b565b5b02179055508573ffffffffffffffffffffffffffffffffffffffff168373ffffffffffffffffffffffffffffffffffffffff16897f30247e11bbb597dfefd2a3124026f1ef8987a4d6ba46e3629f80bac1b0c9faee87600001518d8960800151600360159054906101000a900460ff1689426040516121fa96959493929190613659565b60405180910390a4505050505050505050565b61221561260f565b73ffffffffffffffffffffffffffffffffffffffff16612233611728565b73ffffffffffffffffffffffffffffffffffffffff1614612289576040517f08c379a00000000000000000000000000000000000000000000000000000000081526004016122809061328c565b60405180910390fd5b600073ffffffffffffffffffffffffffffffffffffffff168173ffffffffffffffffffffffffffffffffffffffff16036122f8576040517f08c379a00000000000000000000000000000000000000000000000000000000081526004016122ef9061373f565b60405180910390fd5b61230181612617565b50565b600081600001549050919050565b6001816000016000828254019250508190555050565b612331816126dd565b612370576040517f08c379a0000000000000000000000000000000000000000000000000000000008152600401612367906137d1565b60405180910390fd5b60008190508073ffffffffffffffffffffffffffffffffffffffff166301ffc9a76380ac58cd60e01b6040518263ffffffff1660e01b81526004016123b59190612ade565b602060405180830381865afa1580156123d2573d6000803e3d6000fd5b505050506040513d601f19601f820116820180604052508101906123f691906135e0565b612435576040517f08c379a000000000000000000000000000000000000000000000000000000000815260040161242c90613863565b60405180910390fd5b5050565b600042868686866040516020016124549594939291906138ec565b6040516020818303038152906040528051906020012090506040518060c001604052808281526020018773ffffffffffffffffffffffffffffffffffffffff1681526020018573ffffffffffffffffffffffffffffffffffffffff168152602001848152602001838152602001600160048111156124d5576124d4612c6b565b5b815250600160008673ffffffffffffffffffffffffffffffffffffffff1673ffffffffffffffffffffffffffffffffffffffff16815260200190815260200160002060008781526020019081526020016000206000820151816000015560208201518160010160006101000a81548173ffffffffffffffffffffffffffffffffffffffff021916908373ffffffffffffffffffffffffffffffffffffffff16021790555060408201518160020160006101000a81548173ffffffffffffffffffffffffffffffffffffffff021916908373ffffffffffffffffffffffffffffffffffffffff160217905550606082015181600301556080820151816004015560a08201518160050160006101000a81548160ff021916908360048111156125ff576125fe612c6b565b5b0217905550905050505050505050565b600033905090565b6000600460009054906101000a900473ffffffffffffffffffffffffffffffffffffffff16905081600460006101000a81548173ffffffffffffffffffffffffffffffffffffffff021916908373ffffffffffffffffffffffffffffffffffffffff1602179055508173ffffffffffffffffffffffffffffffffffffffff168173ffffffffffffffffffffffffffffffffffffffff167f8be0079c531659141344cd1fd0a4f28419497f9722a3daafe3b4186f6b6457e060405160405180910390a35050565b600080823b905060008163ffffffff1611915050919050565b6040518060c0016040528060008152602001600073ffffffffffffffffffffffffffffffffffffffff16815260200160008152602001600073ffffffffffffffffffffffffffffffffffffffff168152602001600073ffffffffffffffffffffffffffffffffffffffff168152602001600081525090565b600081519050919050565b600082825260208201905092915050565b6000819050602082019050919050565b6000819050919050565b6127ad8161279a565b82525050565b600073ffffffffffffffffffffffffffffffffffffffff82169050919050565b60006127de826127b3565b9050919050565b6127ee816127d3565b82525050565b60006127ff826127b3565b9050919050565b61280f816127f4565b82525050565b60c08201600082015161282b60008501826127a4565b50602082015161283e60208501826127e5565b50604082015161285160408501826127a4565b5060608201516128646060850182612806565b5060808201516128776080850182612806565b5060a082015161288a60a08501826127a4565b50505050565b600061289c8383612815565b60c08301905092915050565b6000602082019050919050565b60006128c08261276e565b6128ca8185612779565b93506128d58361278a565b8060005b838110156129065781516128ed8882612890565b97506128f8836128a8565b9250506001810190506128d9565b5085935050505092915050565b6000602082019050818103600083015261292d81846128b5565b905092915050565b6000819050919050565b600061295a612955612950846127b3565b612935565b6127b3565b9050919050565b600061296c8261293f565b9050919050565b600061297e82612961565b9050919050565b61298e81612973565b82525050565b60006020820190506129a96000830184612985565b92915050565b600080fd5b6129bd8161279a565b81146129c857600080fd5b50565b6000813590506129da816129b4565b92915050565b6000602082840312156129f6576129f56129af565b5b6000612a04848285016129cb565b91505092915050565b60c082016000820151612a2360008501826127a4565b506020820151612a3660208501826127e5565b506040820151612a4960408501826127a4565b506060820151612a5c6060850182612806565b506080820151612a6f6080850182612806565b5060a0820151612a8260a08501826127a4565b50505050565b600060c082019050612a9d6000830184612a0d565b92915050565b60007fffffffff0000000000000000000000000000000000000000000000000000000082169050919050565b612ad881612aa3565b82525050565b6000602082019050612af36000830184612acf565b92915050565b612b02816127d3565b8114612b0d57600080fd5b50565b600081359050612b1f81612af9565b92915050565b600080600060608486031215612b3e57612b3d6129af565b5b6000612b4c86828701612b10565b9350506020612b5d868287016129cb565b9250506040612b6e86828701612b10565b9150509250925092565b6000819050919050565b612b8b81612b78565b82525050565b612b9a8161279a565b82525050565b6000604082019050612bb56000830185612b82565b612bc26020830184612b91565b9392505050565b600080600060608486031215612be257612be16129af565b5b6000612bf086828701612b10565b9350506020612c01868287016129cb565b9250506040612c12868287016129cb565b9150509250925092565b60008060408385031215612c3357612c326129af565b5b6000612c4185828601612b10565b9250506020612c52858286016129cb565b9150509250929050565b612c65816127d3565b82525050565b7f4e487b7100000000000000000000000000000000000000000000000000000000600052602160045260246000fd5b60058110612cab57612caa612c6b565b5b50565b6000819050612cbc82612c9a565b919050565b6000612ccc82612cae565b9050919050565b612cdc81612cc1565b82525050565b600060c082019050612cf76000830189612b82565b612d046020830188612c5c565b612d116040830187612c5c565b612d1e6060830186612b91565b612d2b6080830185612b91565b612d3860a0830184612cd3565b979650505050505050565b600060ff82169050919050565b612d5981612d43565b82525050565b6000602082019050612d746000830184612d50565b92915050565b6000602082019050612d8f6000830184612c5c565b92915050565b600060208284031215612dab57612daa6129af565b5b6000612db984828501612b10565b91505092915050565b7f4e487b7100000000000000000000000000000000000000000000000000000000600052601160045260246000fd5b6000612dfc8261279a565b9150612e078361279a565b925082821015612e1a57612e19612dc2565b5b828203905092915050565b7f4e487b7100000000000000000000000000000000000000000000000000000000600052604160045260246000fd5b6000612e5f8261279a565b9150612e6a8361279a565b9250827fffffffffffffffffffffffffffffffffffffffffffffffffffffffffffffffff03821115612e9f57612e9e612dc2565b5b828201905092915050565b7f4e487b7100000000000000000000000000000000000000000000000000000000600052603260045260246000fd5b6000612ee48261279a565b91507fffffffffffffffffffffffffffffffffffffffffffffffffffffffffffffffff8203612f1657612f15612dc2565b5b600182019050919050565b600082825260208201905092915050565b7f5265656e7472616e637947756172643a207265656e7472616e742063616c6c00600082015250565b6000612f68601f83612f21565b9150612f7382612f32565b602082019050919050565b60006020820190508181036000830152612f9781612f5b565b9050919050565b7f5072696365206d757374206265206174206c6561737420312077656900000000600082015250565b6000612fd4601c83612f21565b9150612fdf82612f9e565b602082019050919050565b6000602082019050818103600083015261300381612fc7565b9050919050565b600060608201905061301f6000830186612c5c565b61302c6020830185612c5c565b6130396040830184612b91565b949350505050565b60006020820190506130566000830184612b91565b92915050565b60008151905061306b81612af9565b92915050565b600060208284031215613087576130866129af565b5b60006130958482850161305c565b91505092915050565b7f5468652073656c6c6572206973206e6f206c6f6e67657220746865206f776e6560008201527f7200000000000000000000000000000000000000000000000000000000000000602082015250565b60006130fa602183612f21565b91506131058261309e565b604082019050919050565b60006020820190508181036000830152613129816130ed565b9050919050565b7f4173736574206973206c697374696e6700000000000000000000000000000000600082015250565b6000613166601083612f21565b915061317182613130565b602082019050919050565b6000602082019050818103600083015261319581613159565b9050919050565b7f5351460000000000000000000000000000000000000000000000000000000000600082015250565b60006131d2600383612f21565b91506131dd8261319c565b602082019050919050565b600060a0820190506131fd6000830187612c5c565b61320a6020830186612b82565b6132176040830185612b91565b8181036060830152613228816131c5565b90506132376080830184612b91565b95945050505050565b7f4f776e61626c653a2063616c6c6572206973206e6f7420746865206f776e6572600082015250565b6000613276602083612f21565b915061328182613240565b602082019050919050565b600060208201905081810360008301526132a581613269565b9050919050565b7f506c65617365207375626d6974207468652061736b696e67207072696365206960008201527f6e206f7264657220746f20636f6d706c65746520746865207075726368617365602082015250565b6000613308604083612f21565b9150613313826132ac565b604082019050919050565b60006020820190508181036000830152613337816132fb565b9050919050565b7f4173736574206e6f74207075626c697368656400000000000000000000000000600082015250565b6000613374601383612f21565b915061337f8261333e565b602082019050919050565b600060208201905081810360008301526133a381613367565b9050919050565b7f4173736574206973206e6f74206c69737420746f206275790000000000000000600082015250565b60006133e0601883612f21565b91506133eb826133aa565b602082019050919050565b6000602082019050818103600083015261340f816133d3565b9050919050565b7f496e76616c696420616464726573730000000000000000000000000000000000600082015250565b600061344c600f83612f21565b915061345782613416565b602082019050919050565b6000602082019050818103600083015261347b8161343f565b9050919050565b7f7072696365206e65656420657175616c206c697374696e672070726963650000600082015250565b60006134b8601e83612f21565b91506134c382613482565b602082019050919050565b600060208201905081810360008301526134e7816134ab565b9050919050565b60006134f98261279a565b91506135048361279a565b9250817fffffffffffffffffffffffffffffffffffffffffffffffffffffffffffffffff048311821515161561353d5761353c612dc2565b5b828202905092915050565b7f4e487b7100000000000000000000000000000000000000000000000000000000600052601260045260246000fd5b60006135828261279a565b915061358d8361279a565b92508261359d5761359c613548565b5b828204905092915050565b60008115159050919050565b6135bd816135a8565b81146135c857600080fd5b50565b6000815190506135da816135b4565b92915050565b6000602082840312156135f6576135f56129af565b5b6000613604848285016135cb565b91505092915050565b7f414e544100000000000000000000000000000000000000000000000000000000600082015250565b6000613643600483612f21565b915061364e8261360d565b602082019050919050565b600060e08201905061366e6000830189612b82565b61367b6020830188612c5c565b6136886040830187612b91565b6136956060830186612d50565b6136a26080830185612b91565b81810360a08301526136b381613636565b90506136c260c0830184612b91565b979650505050505050565b7f4f776e61626c653a206e6577206f776e657220697320746865207a65726f206160008201527f6464726573730000000000000000000000000000000000000000000000000000602082015250565b6000613729602683612f21565b9150613734826136cd565b604082019050919050565b600060208201905081810360008301526137588161371c565b9050919050565b7f546865204e465420416464726573732073686f756c64206265206120636f6e7460008201527f7261637400000000000000000000000000000000000000000000000000000000602082015250565b60006137bb602483612f21565b91506137c68261375f565b604082019050919050565b600060208201905081810360008301526137ea816137ae565b9050919050565b7f546865204e465420636f6e74726163742068617320616e20696e76616c69642060008201527f45524337323120696d706c656d656e746174696f6e0000000000000000000000602082015250565b600061384d603583612f21565b9150613858826137f1565b604082019050919050565b6000602082019050818103600083015261387c81613840565b9050919050565b6000819050919050565b61389e6138998261279a565b613883565b82525050565b60008160601b9050919050565b60006138bc826138a4565b9050919050565b60006138ce826138b1565b9050919050565b6138e66138e1826127d3565b6138c3565b82525050565b60006138f8828861388d565b60208201915061390882876138d5565b601482019150613918828661388d565b60208201915061392882856138d5565b601482019150613938828461388d565b602082019150819050969550505050505056fea26469706673582212202b0b3327ccfa446ad0fe32c455874df4531d5393e0c27743f9e346b033b584f864736f6c634300080d0033",
					"opcodes": "PUSH1 0x80 PUSH1 0x40 MSTORE CALLVALUE DUP1 ISZERO PUSH3 0x11 JUMPI PUSH1 0x0 DUP1 REVERT JUMPDEST POP PUSH1 0x1 PUSH1 0x0 DUP2 SWAP1 SSTORE POP PUSH3 0x3A PUSH3 0x2E PUSH3 0x40 PUSH1 0x20 SHL PUSH1 0x20 SHR JUMP JUMPDEST PUSH3 0x48 PUSH1 0x20 SHL PUSH1 0x20 SHR JUMP JUMPDEST PUSH3 0x10E JUMP JUMPDEST PUSH1 0x0 CALLER SWAP1 POP SWAP1 JUMP JUMPDEST PUSH1 0x0 PUSH1 0x4 PUSH1 0x0 SWAP1 SLOAD SWAP1 PUSH2 0x100 EXP SWAP1 DIV PUSH20 0xFFFFFFFFFFFFFFFFFFFFFFFFFFFFFFFFFFFFFFFF AND SWAP1 POP DUP2 PUSH1 0x4 PUSH1 0x0 PUSH2 0x100 EXP DUP2 SLOAD DUP2 PUSH20 0xFFFFFFFFFFFFFFFFFFFFFFFFFFFFFFFFFFFFFFFF MUL NOT AND SWAP1 DUP4 PUSH20 0xFFFFFFFFFFFFFFFFFFFFFFFFFFFFFFFFFFFFFFFF AND MUL OR SWAP1 SSTORE POP DUP2 PUSH20 0xFFFFFFFFFFFFFFFFFFFFFFFFFFFFFFFFFFFFFFFF AND DUP2 PUSH20 0xFFFFFFFFFFFFFFFFFFFFFFFFFFFFFFFFFFFFFFFF AND PUSH32 0x8BE0079C531659141344CD1FD0A4F28419497F9722A3DAAFE3B4186F6B6457E0 PUSH1 0x40 MLOAD PUSH1 0x40 MLOAD DUP1 SWAP2 SUB SWAP1 LOG3 POP POP JUMP JUMPDEST PUSH2 0x3981 DUP1 PUSH3 0x11E PUSH1 0x0 CODECOPY PUSH1 0x0 RETURN INVALID PUSH1 0x80 PUSH1 0x40 MSTORE PUSH1 0x4 CALLDATASIZE LT PUSH2 0x109 JUMPI PUSH1 0x0 CALLDATALOAD PUSH1 0xE0 SHR DUP1 PUSH4 0x715018A6 GT PUSH2 0x95 JUMPI DUP1 PUSH4 0xB7A60C7E GT PUSH2 0x64 JUMPI DUP1 PUSH4 0xB7A60C7E EQ PUSH2 0x352 JUMPI DUP1 PUSH4 0xC23B139E EQ PUSH2 0x37D JUMPI DUP1 PUSH4 0xC7BE7A49 EQ PUSH2 0x399 JUMPI DUP1 PUSH4 0xF01B52DC EQ PUSH2 0x3D6 JUMPI DUP1 PUSH4 0xF2FDE38B EQ PUSH2 0x3FF JUMPI PUSH2 0x109 JUMP JUMPDEST DUP1 PUSH4 0x715018A6 EQ PUSH2 0x2BC JUMPI DUP1 PUSH4 0x85A8B36C EQ PUSH2 0x2D3 JUMPI DUP1 PUSH4 0x8DA5CB5B EQ PUSH2 0x2FE JUMPI DUP1 PUSH4 0x92BF77DD EQ PUSH2 0x329 JUMPI PUSH2 0x109 JUMP JUMPDEST DUP1 PUSH4 0x2B4C32BE GT PUSH2 0xDC JUMPI DUP1 PUSH4 0x2B4C32BE EQ PUSH2 0x1CC JUMPI DUP1 PUSH4 0x49739678 EQ PUSH2 0x1F7 JUMPI DUP1 PUSH4 0x58EB2DF5 EQ PUSH2 0x235 JUMPI DUP1 PUSH4 0x5C80A435 EQ PUSH2 0x251 JUMPI DUP1 PUSH4 0x68915327 EQ PUSH2 0x293 JUMPI PUSH2 0x109 JUMP JUMPDEST DUP1 PUSH4 0xF08EFE0 EQ PUSH2 0x10E JUMPI DUP1 PUSH4 0x15B81DC3 EQ PUSH2 0x139 JUMPI DUP1 PUSH4 0x202E3740 EQ PUSH2 0x164 JUMPI DUP1 PUSH4 0x2A45B250 EQ PUSH2 0x18F JUMPI JUMPDEST PUSH1 0x0 DUP1 REVERT JUMPDEST CALLVALUE DUP1 ISZERO PUSH2 0x11A JUMPI PUSH1 0x0 DUP1 REVERT JUMPDEST POP PUSH2 0x123 PUSH2 0x428 JUMP JUMPDEST PUSH1 0x40 MLOAD PUSH2 0x130 SWAP2 SWAP1 PUSH2 0x2913 JUMP JUMPDEST PUSH1 0x40 MLOAD DUP1 SWAP2 SUB SWAP1 RETURN JUMPDEST CALLVALUE DUP1 ISZERO PUSH2 0x145 JUMPI PUSH1 0x0 DUP1 REVERT JUMPDEST POP PUSH2 0x14E PUSH2 0x6EC JUMP JUMPDEST PUSH1 0x40 MLOAD PUSH2 0x15B SWAP2 SWAP1 PUSH2 0x2994 JUMP JUMPDEST PUSH1 0x40 MLOAD DUP1 SWAP2 SUB SWAP1 RETURN JUMPDEST CALLVALUE DUP1 ISZERO PUSH2 0x170 JUMPI PUSH1 0x0 DUP1 REVERT JUMPDEST POP PUSH2 0x179 PUSH2 0x712 JUMP JUMPDEST PUSH1 0x40 MLOAD PUSH2 0x186 SWAP2 SWAP1 PUSH2 0x2913 JUMP JUMPDEST PUSH1 0x40 MLOAD DUP1 SWAP2 SUB SWAP1 RETURN JUMPDEST CALLVALUE DUP1 ISZERO PUSH2 0x19B JUMPI PUSH1 0x0 DUP1 REVERT JUMPDEST POP PUSH2 0x1B6 PUSH1 0x4 DUP1 CALLDATASIZE SUB DUP2 ADD SWAP1 PUSH2 0x1B1 SWAP2 SWAP1 PUSH2 0x29E0 JUMP JUMPDEST PUSH2 0xA59 JUMP JUMPDEST PUSH1 0x40 MLOAD PUSH2 0x1C3 SWAP2 SWAP1 PUSH2 0x2A88 JUMP JUMPDEST PUSH1 0x40 MLOAD DUP1 SWAP2 SUB SWAP1 RETURN JUMPDEST CALLVALUE DUP1 ISZERO PUSH2 0x1D8 JUMPI PUSH1 0x0 DUP1 REVERT JUMPDEST POP PUSH2 0x1E1 PUSH2 0xBAC JUMP JUMPDEST PUSH1 0x40 MLOAD PUSH2 0x1EE SWAP2 SWAP1 PUSH2 0x2ADE JUMP JUMPDEST PUSH1 0x40 MLOAD DUP1 SWAP2 SUB SWAP1 RETURN JUMPDEST CALLVALUE DUP1 ISZERO PUSH2 0x203 JUMPI PUSH1 0x0 DUP1 REVERT JUMPDEST POP PUSH2 0x21E PUSH1 0x4 DUP1 CALLDATASIZE SUB DUP2 ADD SWAP1 PUSH2 0x219 SWAP2 SWAP1 PUSH2 0x2B25 JUMP JUMPDEST PUSH2 0xBB7 JUMP JUMPDEST PUSH1 0x40 MLOAD PUSH2 0x22C SWAP3 SWAP2 SWAP1 PUSH2 0x2BA0 JUMP JUMPDEST PUSH1 0x40 MLOAD DUP1 SWAP2 SUB SWAP1 RETURN JUMPDEST PUSH2 0x24F PUSH1 0x4 DUP1 CALLDATASIZE SUB DUP2 ADD SWAP1 PUSH2 0x24A SWAP2 SWAP1 PUSH2 0x2BC9 JUMP JUMPDEST PUSH2 0xBF5 JUMP JUMPDEST STOP JUMPDEST CALLVALUE DUP1 ISZERO PUSH2 0x25D JUMPI PUSH1 0x0 DUP1 REVERT JUMPDEST POP PUSH2 0x278 PUSH1 0x4 DUP1 CALLDATASIZE SUB DUP2 ADD SWAP1 PUSH2 0x273 SWAP2 SWAP1 PUSH2 0x2C1C JUMP JUMPDEST PUSH2 0xE93 JUMP JUMPDEST PUSH1 0x40 MLOAD PUSH2 0x28A SWAP7 SWAP6 SWAP5 SWAP4 SWAP3 SWAP2 SWAP1 PUSH2 0x2CE2 JUMP JUMPDEST PUSH1 0x40 MLOAD DUP1 SWAP2 SUB SWAP1 RETURN JUMPDEST CALLVALUE DUP1 ISZERO PUSH2 0x29F JUMPI PUSH1 0x0 DUP1 REVERT JUMPDEST POP PUSH2 0x2BA PUSH1 0x4 DUP1 CALLDATASIZE SUB DUP2 ADD SWAP1 PUSH2 0x2B5 SWAP2 SWAP1 PUSH2 0x2BC9 JUMP JUMPDEST PUSH2 0xF29 JUMP JUMPDEST STOP JUMPDEST CALLVALUE DUP1 ISZERO PUSH2 0x2C8 JUMPI PUSH1 0x0 DUP1 REVERT JUMPDEST POP PUSH2 0x2D1 PUSH2 0x168D JUMP JUMPDEST STOP JUMPDEST CALLVALUE DUP1 ISZERO PUSH2 0x2DF JUMPI PUSH1 0x0 DUP1 REVERT JUMPDEST POP PUSH2 0x2E8 PUSH2 0x1715 JUMP JUMPDEST PUSH1 0x40 MLOAD PUSH2 0x2F5 SWAP2 SWAP1 PUSH2 0x2D5F JUMP JUMPDEST PUSH1 0x40 MLOAD DUP1 SWAP2 SUB SWAP1 RETURN JUMPDEST CALLVALUE DUP1 ISZERO PUSH2 0x30A JUMPI PUSH1 0x0 DUP1 REVERT JUMPDEST POP PUSH2 0x313 PUSH2 0x1728 JUMP JUMPDEST PUSH1 0x40 MLOAD PUSH2 0x320 SWAP2 SWAP1 PUSH2 0x2D7A JUMP JUMPDEST PUSH1 0x40 MLOAD DUP1 SWAP2 SUB SWAP1 RETURN JUMPDEST CALLVALUE DUP1 ISZERO PUSH2 0x335 JUMPI PUSH1 0x0 DUP1 REVERT JUMPDEST POP PUSH2 0x350 PUSH1 0x4 DUP1 CALLDATASIZE SUB DUP2 ADD SWAP1 PUSH2 0x34B SWAP2 SWAP1 PUSH2 0x2D95 JUMP JUMPDEST PUSH2 0x1752 JUMP JUMPDEST STOP JUMPDEST CALLVALUE DUP1 ISZERO PUSH2 0x35E JUMPI PUSH1 0x0 DUP1 REVERT JUMPDEST POP PUSH2 0x367 PUSH2 0x1812 JUMP JUMPDEST PUSH1 0x40 MLOAD PUSH2 0x374 SWAP2 SWAP1 PUSH2 0x2D5F JUMP JUMPDEST PUSH1 0x40 MLOAD DUP1 SWAP2 SUB SWAP1 RETURN JUMPDEST PUSH2 0x397 PUSH1 0x4 DUP1 CALLDATASIZE SUB DUP2 ADD SWAP1 PUSH2 0x392 SWAP2 SWAP1 PUSH2 0x2C1C JUMP JUMPDEST PUSH2 0x1825 JUMP JUMPDEST STOP JUMPDEST CALLVALUE DUP1 ISZERO PUSH2 0x3A5 JUMPI PUSH1 0x0 DUP1 REVERT JUMPDEST POP PUSH2 0x3C0 PUSH1 0x4 DUP1 CALLDATASIZE SUB DUP2 ADD SWAP1 PUSH2 0x3BB SWAP2 SWAP1 PUSH2 0x29E0 JUMP JUMPDEST PUSH2 0x1A43 JUMP JUMPDEST PUSH1 0x40 MLOAD PUSH2 0x3CD SWAP2 SWAP1 PUSH2 0x2A88 JUMP JUMPDEST PUSH1 0x40 MLOAD DUP1 SWAP2 SUB SWAP1 RETURN JUMPDEST CALLVALUE DUP1 ISZERO PUSH2 0x3E2 JUMPI PUSH1 0x0 DUP1 REVERT JUMPDEST POP PUSH2 0x3FD PUSH1 0x4 DUP1 CALLDATASIZE SUB DUP2 ADD SWAP1 PUSH2 0x3F8 SWAP2 SWAP1 PUSH2 0x2BC9 JUMP JUMPDEST PUSH2 0x1B90 JUMP JUMPDEST STOP JUMPDEST CALLVALUE DUP1 ISZERO PUSH2 0x40B JUMPI PUSH1 0x0 DUP1 REVERT JUMPDEST POP PUSH2 0x426 PUSH1 0x4 DUP1 CALLDATASIZE SUB DUP2 ADD SWAP1 PUSH2 0x421 SWAP2 SWAP1 PUSH2 0x2D95 JUMP JUMPDEST PUSH2 0x220D JUMP JUMPDEST STOP JUMPDEST PUSH1 0x60 PUSH1 0x0 PUSH2 0x436 PUSH1 0x5 PUSH2 0x2304 JUMP JUMPDEST SWAP1 POP PUSH1 0x0 PUSH2 0x444 PUSH1 0x6 PUSH2 0x2304 JUMP JUMPDEST PUSH2 0x44E PUSH1 0x5 PUSH2 0x2304 JUMP JUMPDEST PUSH2 0x458 SWAP2 SWAP1 PUSH2 0x2DF1 JUMP JUMPDEST SWAP1 POP PUSH1 0x0 DUP1 DUP3 PUSH8 0xFFFFFFFFFFFFFFFF DUP2 GT ISZERO PUSH2 0x477 JUMPI PUSH2 0x476 PUSH2 0x2E25 JUMP JUMPDEST JUMPDEST PUSH1 0x40 MLOAD SWAP1 DUP1 DUP3 MSTORE DUP1 PUSH1 0x20 MUL PUSH1 0x20 ADD DUP3 ADD PUSH1 0x40 MSTORE DUP1 ISZERO PUSH2 0x4B0 JUMPI DUP2 PUSH1 0x20 ADD JUMPDEST PUSH2 0x49D PUSH2 0x26F6 JUMP JUMPDEST DUP2 MSTORE PUSH1 0x20 ADD SWAP1 PUSH1 0x1 SWAP1 SUB SWAP1 DUP2 PUSH2 0x495 JUMPI SWAP1 POP JUMPDEST POP SWAP1 POP PUSH1 0x0 JUMPDEST DUP5 DUP2 LT ISZERO PUSH2 0x6E1 JUMPI PUSH1 0x0 PUSH20 0xFFFFFFFFFFFFFFFFFFFFFFFFFFFFFFFFFFFFFFFF AND PUSH1 0x7 PUSH1 0x0 PUSH1 0x1 DUP5 PUSH2 0x4E7 SWAP2 SWAP1 PUSH2 0x2E54 JUMP JUMPDEST DUP2 MSTORE PUSH1 0x20 ADD SWAP1 DUP2 MSTORE PUSH1 0x20 ADD PUSH1 0x0 KECCAK256 PUSH1 0x4 ADD PUSH1 0x0 SWAP1 SLOAD SWAP1 PUSH2 0x100 EXP SWAP1 DIV PUSH20 0xFFFFFFFFFFFFFFFFFFFFFFFFFFFFFFFFFFFFFFFF AND PUSH20 0xFFFFFFFFFFFFFFFFFFFFFFFFFFFFFFFFFFFFFFFF AND SUB PUSH2 0x6CE JUMPI PUSH1 0x0 PUSH1 0x7 PUSH1 0x0 PUSH1 0x1 DUP5 PUSH2 0x547 SWAP2 SWAP1 PUSH2 0x2E54 JUMP JUMPDEST DUP2 MSTORE PUSH1 0x20 ADD SWAP1 DUP2 MSTORE PUSH1 0x20 ADD PUSH1 0x0 KECCAK256 PUSH1 0x0 ADD SLOAD SWAP1 POP PUSH1 0x0 PUSH1 0x7 PUSH1 0x0 DUP4 DUP2 MSTORE PUSH1 0x20 ADD SWAP1 DUP2 MSTORE PUSH1 0x20 ADD PUSH1 0x0 KECCAK256 SWAP1 POP DUP1 PUSH1 0x40 MLOAD DUP1 PUSH1 0xC0 ADD PUSH1 0x40 MSTORE SWAP1 DUP2 PUSH1 0x0 DUP3 ADD SLOAD DUP2 MSTORE PUSH1 0x20 ADD PUSH1 0x1 DUP3 ADD PUSH1 0x0 SWAP1 SLOAD SWAP1 PUSH2 0x100 EXP SWAP1 DIV PUSH20 0xFFFFFFFFFFFFFFFFFFFFFFFFFFFFFFFFFFFFFFFF AND PUSH20 0xFFFFFFFFFFFFFFFFFFFFFFFFFFFFFFFFFFFFFFFF AND PUSH20 0xFFFFFFFFFFFFFFFFFFFFFFFFFFFFFFFFFFFFFFFF AND DUP2 MSTORE PUSH1 0x20 ADD PUSH1 0x2 DUP3 ADD SLOAD DUP2 MSTORE PUSH1 0x20 ADD PUSH1 0x3 DUP3 ADD PUSH1 0x0 SWAP1 SLOAD SWAP1 PUSH2 0x100 EXP SWAP1 DIV PUSH20 0xFFFFFFFFFFFFFFFFFFFFFFFFFFFFFFFFFFFFFFFF AND PUSH20 0xFFFFFFFFFFFFFFFFFFFFFFFFFFFFFFFFFFFFFFFF AND PUSH20 0xFFFFFFFFFFFFFFFFFFFFFFFFFFFFFFFFFFFFFFFF AND DUP2 MSTORE PUSH1 0x20 ADD PUSH1 0x4 DUP3 ADD PUSH1 0x0 SWAP1 SLOAD SWAP1 PUSH2 0x100 EXP SWAP1 DIV PUSH20 0xFFFFFFFFFFFFFFFFFFFFFFFFFFFFFFFFFFFFFFFF AND PUSH20 0xFFFFFFFFFFFFFFFFFFFFFFFFFFFFFFFFFFFFFFFF AND PUSH20 0xFFFFFFFFFFFFFFFFFFFFFFFFFFFFFFFFFFFFFFFF AND DUP2 MSTORE PUSH1 0x20 ADD PUSH1 0x5 DUP3 ADD SLOAD DUP2 MSTORE POP POP DUP5 DUP7 DUP2 MLOAD DUP2 LT PUSH2 0x6B1 JUMPI PUSH2 0x6B0 PUSH2 0x2EAA JUMP JUMPDEST JUMPDEST PUSH1 0x20 MUL PUSH1 0x20 ADD ADD DUP2 SWAP1 MSTORE POP PUSH1 0x1 DUP6 PUSH2 0x6C9 SWAP2 SWAP1 PUSH2 0x2E54 JUMP JUMPDEST SWAP5 POP POP POP JUMPDEST DUP1 DUP1 PUSH2 0x6D9 SWAP1 PUSH2 0x2ED9 JUMP JUMPDEST SWAP2 POP POP PUSH2 0x4B6 JUMP JUMPDEST POP DUP1 SWAP5 POP POP POP POP POP SWAP1 JUMP JUMPDEST PUSH1 0x3 PUSH1 0x0 SWAP1 SLOAD SWAP1 PUSH2 0x100 EXP SWAP1 DIV PUSH20 0xFFFFFFFFFFFFFFFFFFFFFFFFFFFFFFFFFFFFFFFF AND DUP2 JUMP JUMPDEST PUSH1 0x60 PUSH1 0x0 PUSH2 0x720 PUSH1 0x5 PUSH2 0x2304 JUMP JUMPDEST SWAP1 POP PUSH1 0x0 DUP1 PUSH1 0x0 JUMPDEST DUP4 DUP2 LT ISZERO PUSH2 0x7C8 JUMPI CALLER PUSH20 0xFFFFFFFFFFFFFFFFFFFFFFFFFFFFFFFFFFFFFFFF AND PUSH1 0x7 PUSH1 0x0 PUSH1 0x1 DUP5 PUSH2 0x758 SWAP2 SWAP1 PUSH2 0x2E54 JUMP JUMPDEST DUP2 MSTORE PUSH1 0x20 ADD SWAP1 DUP2 MSTORE PUSH1 0x20 ADD PUSH1 0x0 KECCAK256 PUSH1 0x4 ADD PUSH1 0x0 SWAP1 SLOAD SWAP1 PUSH2 0x100 EXP SWAP1 DIV PUSH20 0xFFFFFFFFFFFFFFFFFFFFFFFFFFFFFFFFFFFFFFFF AND PUSH20 0xFFFFFFFFFFFFFFFFFFFFFFFFFFFFFFFFFFFFFFFF AND SUB PUSH2 0x7B5 JUMPI PUSH1 0x1 DUP4 PUSH2 0x7B2 SWAP2 SWAP1 PUSH2 0x2E54 JUMP JUMPDEST SWAP3 POP JUMPDEST DUP1 DUP1 PUSH2 0x7C0 SWAP1 PUSH2 0x2ED9 JUMP JUMPDEST SWAP2 POP POP PUSH2 0x728 JUMP JUMPDEST POP PUSH1 0x0 DUP3 PUSH8 0xFFFFFFFFFFFFFFFF DUP2 GT ISZERO PUSH2 0x7E5 JUMPI PUSH2 0x7E4 PUSH2 0x2E25 JUMP JUMPDEST JUMPDEST PUSH1 0x40 MLOAD SWAP1 DUP1 DUP3 MSTORE DUP1 PUSH1 0x20 MUL PUSH1 0x20 ADD DUP3 ADD PUSH1 0x40 MSTORE DUP1 ISZERO PUSH2 0x81E JUMPI DUP2 PUSH1 0x20 ADD JUMPDEST PUSH2 0x80B PUSH2 0x26F6 JUMP JUMPDEST DUP2 MSTORE PUSH1 0x20 ADD SWAP1 PUSH1 0x1 SWAP1 SUB SWAP1 DUP2 PUSH2 0x803 JUMPI SWAP1 POP JUMPDEST POP SWAP1 POP PUSH1 0x0 JUMPDEST DUP5 DUP2 LT ISZERO PUSH2 0xA4E JUMPI CALLER PUSH20 0xFFFFFFFFFFFFFFFFFFFFFFFFFFFFFFFFFFFFFFFF AND PUSH1 0x7 PUSH1 0x0 PUSH1 0x1 DUP5 PUSH2 0x854 SWAP2 SWAP1 PUSH2 0x2E54 JUMP JUMPDEST DUP2 MSTORE PUSH1 0x20 ADD SWAP1 DUP2 MSTORE PUSH1 0x20 ADD PUSH1 0x0 KECCAK256 PUSH1 0x4 ADD PUSH1 0x0 SWAP1 SLOAD SWAP1 PUSH2 0x100 EXP SWAP1 DIV PUSH20 0xFFFFFFFFFFFFFFFFFFFFFFFFFFFFFFFFFFFFFFFF AND PUSH20 0xFFFFFFFFFFFFFFFFFFFFFFFFFFFFFFFFFFFFFFFF AND SUB PUSH2 0xA3B JUMPI PUSH1 0x0 PUSH1 0x7 PUSH1 0x0 PUSH1 0x1 DUP5 PUSH2 0x8B4 SWAP2 SWAP1 PUSH2 0x2E54 JUMP JUMPDEST DUP2 MSTORE PUSH1 0x20 ADD SWAP1 DUP2 MSTORE PUSH1 0x20 ADD PUSH1 0x0 KECCAK256 PUSH1 0x0 ADD SLOAD SWAP1 POP PUSH1 0x0 PUSH1 0x7 PUSH1 0x0 DUP4 DUP2 MSTORE PUSH1 0x20 ADD SWAP1 DUP2 MSTORE PUSH1 0x20 ADD PUSH1 0x0 KECCAK256 SWAP1 POP DUP1 PUSH1 0x40 MLOAD DUP1 PUSH1 0xC0 ADD PUSH1 0x40 MSTORE SWAP1 DUP2 PUSH1 0x0 DUP3 ADD SLOAD DUP2 MSTORE PUSH1 0x20 ADD PUSH1 0x1 DUP3 ADD PUSH1 0x0 SWAP1 SLOAD SWAP1 PUSH2 0x100 EXP SWAP1 DIV PUSH20 0xFFFFFFFFFFFFFFFFFFFFFFFFFFFFFFFFFFFFFFFF AND PUSH20 0xFFFFFFFFFFFFFFFFFFFFFFFFFFFFFFFFFFFFFFFF AND PUSH20 0xFFFFFFFFFFFFFFFFFFFFFFFFFFFFFFFFFFFFFFFF AND DUP2 MSTORE PUSH1 0x20 ADD PUSH1 0x2 DUP3 ADD SLOAD DUP2 MSTORE PUSH1 0x20 ADD PUSH1 0x3 DUP3 ADD PUSH1 0x0 SWAP1 SLOAD SWAP1 PUSH2 0x100 EXP SWAP1 DIV PUSH20 0xFFFFFFFFFFFFFFFFFFFFFFFFFFFFFFFFFFFFFFFF AND PUSH20 0xFFFFFFFFFFFFFFFFFFFFFFFFFFFFFFFFFFFFFFFF AND PUSH20 0xFFFFFFFFFFFFFFFFFFFFFFFFFFFFFFFFFFFFFFFF AND DUP2 MSTORE PUSH1 0x20 ADD PUSH1 0x4 DUP3 ADD PUSH1 0x0 SWAP1 SLOAD SWAP1 PUSH2 0x100 EXP SWAP1 DIV PUSH20 0xFFFFFFFFFFFFFFFFFFFFFFFFFFFFFFFFFFFFFFFF AND PUSH20 0xFFFFFFFFFFFFFFFFFFFFFFFFFFFFFFFFFFFFFFFF AND PUSH20 0xFFFFFFFFFFFFFFFFFFFFFFFFFFFFFFFFFFFFFFFF AND DUP2 MSTORE PUSH1 0x20 ADD PUSH1 0x5 DUP3 ADD SLOAD DUP2 MSTORE POP POP DUP5 DUP7 DUP2 MLOAD DUP2 LT PUSH2 0xA1E JUMPI PUSH2 0xA1D PUSH2 0x2EAA JUMP JUMPDEST JUMPDEST PUSH1 0x20 MUL PUSH1 0x20 ADD ADD DUP2 SWAP1 MSTORE POP PUSH1 0x1 DUP6 PUSH2 0xA36 SWAP2 SWAP1 PUSH2 0x2E54 JUMP JUMPDEST SWAP5 POP POP POP JUMPDEST DUP1 DUP1 PUSH2 0xA46 SWAP1 PUSH2 0x2ED9 JUMP JUMPDEST SWAP2 POP POP PUSH2 0x824 JUMP JUMPDEST POP DUP1 SWAP5 POP POP POP POP POP SWAP1 JUMP JUMPDEST PUSH2 0xA61 PUSH2 0x26F6 JUMP JUMPDEST PUSH1 0x0 PUSH1 0x7 PUSH1 0x0 DUP5 DUP2 MSTORE PUSH1 0x20 ADD SWAP1 DUP2 MSTORE PUSH1 0x20 ADD PUSH1 0x0 KECCAK256 PUSH1 0x40 MLOAD DUP1 PUSH1 0xC0 ADD PUSH1 0x40 MSTORE SWAP1 DUP2 PUSH1 0x0 DUP3 ADD SLOAD DUP2 MSTORE PUSH1 0x20 ADD PUSH1 0x1 DUP3 ADD PUSH1 0x0 SWAP1 SLOAD SWAP1 PUSH2 0x100 EXP SWAP1 DIV PUSH20 0xFFFFFFFFFFFFFFFFFFFFFFFFFFFFFFFFFFFFFFFF AND PUSH20 0xFFFFFFFFFFFFFFFFFFFFFFFFFFFFFFFFFFFFFFFF AND PUSH20 0xFFFFFFFFFFFFFFFFFFFFFFFFFFFFFFFFFFFFFFFF AND DUP2 MSTORE PUSH1 0x20 ADD PUSH1 0x2 DUP3 ADD SLOAD DUP2 MSTORE PUSH1 0x20 ADD PUSH1 0x3 DUP3 ADD PUSH1 0x0 SWAP1 SLOAD SWAP1 PUSH2 0x100 EXP SWAP1 DIV PUSH20 0xFFFFFFFFFFFFFFFFFFFFFFFFFFFFFFFFFFFFFFFF AND PUSH20 0xFFFFFFFFFFFFFFFFFFFFFFFFFFFFFFFFFFFFFFFF AND PUSH20 0xFFFFFFFFFFFFFFFFFFFFFFFFFFFFFFFFFFFFFFFF AND DUP2 MSTORE PUSH1 0x20 ADD PUSH1 0x4 DUP3 ADD PUSH1 0x0 SWAP1 SLOAD SWAP1 PUSH2 0x100 EXP SWAP1 DIV PUSH20 0xFFFFFFFFFFFFFFFFFFFFFFFFFFFFFFFFFFFFFFFF AND PUSH20 0xFFFFFFFFFFFFFFFFFFFFFFFFFFFFFFFFFFFFFFFF AND PUSH20 0xFFFFFFFFFFFFFFFFFFFFFFFFFFFFFFFFFFFFFFFF AND DUP2 MSTORE PUSH1 0x20 ADD PUSH1 0x5 DUP3 ADD SLOAD DUP2 MSTORE POP POP SWAP1 POP DUP1 SWAP2 POP POP SWAP2 SWAP1 POP JUMP JUMPDEST PUSH4 0x80AC58CD PUSH1 0xE0 SHL DUP2 JUMP JUMPDEST PUSH1 0x2 PUSH1 0x20 MSTORE DUP3 PUSH1 0x0 MSTORE PUSH1 0x40 PUSH1 0x0 KECCAK256 PUSH1 0x20 MSTORE DUP2 PUSH1 0x0 MSTORE PUSH1 0x40 PUSH1 0x0 KECCAK256 PUSH1 0x20 MSTORE DUP1 PUSH1 0x0 MSTORE PUSH1 0x40 PUSH1 0x0 KECCAK256 PUSH1 0x0 SWAP3 POP SWAP3 POP POP POP DUP1 PUSH1 0x0 ADD SLOAD SWAP1 DUP1 PUSH1 0x1 ADD SLOAD SWAP1 POP DUP3 JUMP JUMPDEST PUSH1 0x2 PUSH1 0x0 SLOAD SUB PUSH2 0xC3A JUMPI PUSH1 0x40 MLOAD PUSH32 0x8C379A000000000000000000000000000000000000000000000000000000000 DUP2 MSTORE PUSH1 0x4 ADD PUSH2 0xC31 SWAP1 PUSH2 0x2F7E JUMP JUMPDEST PUSH1 0x40 MLOAD DUP1 SWAP2 SUB SWAP1 REVERT JUMPDEST PUSH1 0x2 PUSH1 0x0 DUP2 SWAP1 SSTORE POP PUSH1 0x0 DUP2 GT PUSH2 0xC85 JUMPI PUSH1 0x40 MLOAD PUSH32 0x8C379A000000000000000000000000000000000000000000000000000000000 DUP2 MSTORE PUSH1 0x4 ADD PUSH2 0xC7C SWAP1 PUSH2 0x2FEA JUMP JUMPDEST PUSH1 0x40 MLOAD DUP1 SWAP2 SUB SWAP1 REVERT JUMPDEST PUSH2 0xC8F PUSH1 0x5 PUSH2 0x2312 JUMP JUMPDEST PUSH1 0x0 PUSH2 0xC9B PUSH1 0x5 PUSH2 0x2304 JUMP JUMPDEST SWAP1 POP PUSH1 0x40 MLOAD DUP1 PUSH1 0xC0 ADD PUSH1 0x40 MSTORE DUP1 DUP3 DUP2 MSTORE PUSH1 0x20 ADD DUP6 PUSH20 0xFFFFFFFFFFFFFFFFFFFFFFFFFFFFFFFFFFFFFFFF AND DUP2 MSTORE PUSH1 0x20 ADD DUP5 DUP2 MSTORE PUSH1 0x20 ADD CALLER PUSH20 0xFFFFFFFFFFFFFFFFFFFFFFFFFFFFFFFFFFFFFFFF AND DUP2 MSTORE PUSH1 0x20 ADD PUSH1 0x0 PUSH20 0xFFFFFFFFFFFFFFFFFFFFFFFFFFFFFFFFFFFFFFFF AND DUP2 MSTORE PUSH1 0x20 ADD DUP4 DUP2 MSTORE POP PUSH1 0x7 PUSH1 0x0 DUP4 DUP2 MSTORE PUSH1 0x20 ADD SWAP1 DUP2 MSTORE PUSH1 0x20 ADD PUSH1 0x0 KECCAK256 PUSH1 0x0 DUP3 ADD MLOAD DUP2 PUSH1 0x0 ADD SSTORE PUSH1 0x20 DUP3 ADD MLOAD DUP2 PUSH1 0x1 ADD PUSH1 0x0 PUSH2 0x100 EXP DUP2 SLOAD DUP2 PUSH20 0xFFFFFFFFFFFFFFFFFFFFFFFFFFFFFFFFFFFFFFFF MUL NOT AND SWAP1 DUP4 PUSH20 0xFFFFFFFFFFFFFFFFFFFFFFFFFFFFFFFFFFFFFFFF AND MUL OR SWAP1 SSTORE POP PUSH1 0x40 DUP3 ADD MLOAD DUP2 PUSH1 0x2 ADD SSTORE PUSH1 0x60 DUP3 ADD MLOAD DUP2 PUSH1 0x3 ADD PUSH1 0x0 PUSH2 0x100 EXP DUP2 SLOAD DUP2 PUSH20 0xFFFFFFFFFFFFFFFFFFFFFFFFFFFFFFFFFFFFFFFF MUL NOT AND SWAP1 DUP4 PUSH20 0xFFFFFFFFFFFFFFFFFFFFFFFFFFFFFFFFFFFFFFFF AND MUL OR SWAP1 SSTORE POP PUSH1 0x80 DUP3 ADD MLOAD DUP2 PUSH1 0x4 ADD PUSH1 0x0 PUSH2 0x100 EXP DUP2 SLOAD DUP2 PUSH20 0xFFFFFFFFFFFFFFFFFFFFFFFFFFFFFFFFFFFFFFFF MUL NOT AND SWAP1 DUP4 PUSH20 0xFFFFFFFFFFFFFFFFFFFFFFFFFFFFFFFFFFFFFFFF AND MUL OR SWAP1 SSTORE POP PUSH1 0xA0 DUP3 ADD MLOAD DUP2 PUSH1 0x5 ADD SSTORE SWAP1 POP POP DUP4 PUSH20 0xFFFFFFFFFFFFFFFFFFFFFFFFFFFFFFFFFFFFFFFF AND PUSH4 0x23B872DD CALLER ADDRESS DUP7 PUSH1 0x40 MLOAD DUP5 PUSH4 0xFFFFFFFF AND PUSH1 0xE0 SHL DUP2 MSTORE PUSH1 0x4 ADD PUSH2 0xE53 SWAP4 SWAP3 SWAP2 SWAP1 PUSH2 0x300A JUMP JUMPDEST PUSH1 0x0 PUSH1 0x40 MLOAD DUP1 DUP4 SUB DUP2 PUSH1 0x0 DUP8 DUP1 EXTCODESIZE ISZERO DUP1 ISZERO PUSH2 0xE6D JUMPI PUSH1 0x0 DUP1 REVERT JUMPDEST POP GAS CALL ISZERO DUP1 ISZERO PUSH2 0xE81 JUMPI RETURNDATASIZE PUSH1 0x0 DUP1 RETURNDATACOPY RETURNDATASIZE PUSH1 0x0 REVERT JUMPDEST POP POP POP POP POP PUSH1 0x1 PUSH1 0x0 DUP2 SWAP1 SSTORE POP POP POP POP JUMP JUMPDEST PUSH1 0x1 PUSH1 0x20 MSTORE DUP2 PUSH1 0x0 MSTORE PUSH1 0x40 PUSH1 0x0 KECCAK256 PUSH1 0x20 MSTORE DUP1 PUSH1 0x0 MSTORE PUSH1 0x40 PUSH1 0x0 KECCAK256 PUSH1 0x0 SWAP2 POP SWAP2 POP POP DUP1 PUSH1 0x0 ADD SLOAD SWAP1 DUP1 PUSH1 0x1 ADD PUSH1 0x0 SWAP1 SLOAD SWAP1 PUSH2 0x100 EXP SWAP1 DIV PUSH20 0xFFFFFFFFFFFFFFFFFFFFFFFFFFFFFFFFFFFFFFFF AND SWAP1 DUP1 PUSH1 0x2 ADD PUSH1 0x0 SWAP1 SLOAD SWAP1 PUSH2 0x100 EXP SWAP1 DIV PUSH20 0xFFFFFFFFFFFFFFFFFFFFFFFFFFFFFFFFFFFFFFFF AND SWAP1 DUP1 PUSH1 0x3 ADD SLOAD SWAP1 DUP1 PUSH1 0x4 ADD SLOAD SWAP1 DUP1 PUSH1 0x5 ADD PUSH1 0x0 SWAP1 SLOAD SWAP1 PUSH2 0x100 EXP SWAP1 DIV PUSH1 0xFF AND SWAP1 POP DUP7 JUMP JUMPDEST PUSH1 0x0 DUP2 GT PUSH2 0xF6C JUMPI PUSH1 0x40 MLOAD PUSH32 0x8C379A000000000000000000000000000000000000000000000000000000000 DUP2 MSTORE PUSH1 0x4 ADD PUSH2 0xF63 SWAP1 PUSH2 0x2FEA JUMP JUMPDEST PUSH1 0x40 MLOAD DUP1 SWAP2 SUB SWAP1 REVERT JUMPDEST PUSH2 0xF75 DUP4 PUSH2 0x2328 JUMP JUMPDEST PUSH1 0x0 CALLER SWAP1 POP PUSH2 0xF84 PUSH1 0x5 PUSH2 0x2312 JUMP JUMPDEST PUSH1 0x0 DUP5 SWAP1 POP PUSH1 0x0 PUSH2 0xF95 PUSH1 0x5 PUSH2 0x2304 JUMP JUMPDEST SWAP1 POP DUP3 PUSH20 0xFFFFFFFFFFFFFFFFFFFFFFFFFFFFFFFFFFFFFFFF AND DUP3 PUSH20 0xFFFFFFFFFFFFFFFFFFFFFFFFFFFFFFFFFFFFFFFF AND PUSH4 0x6352211E DUP8 PUSH1 0x40 MLOAD DUP3 PUSH4 0xFFFFFFFF AND PUSH1 0xE0 SHL DUP2 MSTORE PUSH1 0x4 ADD PUSH2 0xFE7 SWAP2 SWAP1 PUSH2 0x3041 JUMP JUMPDEST PUSH1 0x20 PUSH1 0x40 MLOAD DUP1 DUP4 SUB DUP2 DUP7 GAS STATICCALL ISZERO DUP1 ISZERO PUSH2 0x1004 JUMPI RETURNDATASIZE PUSH1 0x0 DUP1 RETURNDATACOPY RETURNDATASIZE PUSH1 0x0 REVERT JUMPDEST POP POP POP POP PUSH1 0x40 MLOAD RETURNDATASIZE PUSH1 0x1F NOT PUSH1 0x1F DUP3 ADD AND DUP3 ADD DUP1 PUSH1 0x40 MSTORE POP DUP2 ADD SWAP1 PUSH2 0x1028 SWAP2 SWAP1 PUSH2 0x3071 JUMP JUMPDEST PUSH20 0xFFFFFFFFFFFFFFFFFFFFFFFFFFFFFFFFFFFFFFFF AND EQ PUSH2 0x107E JUMPI PUSH1 0x40 MLOAD PUSH32 0x8C379A000000000000000000000000000000000000000000000000000000000 DUP2 MSTORE PUSH1 0x4 ADD PUSH2 0x1075 SWAP1 PUSH2 0x3110 JUMP JUMPDEST PUSH1 0x40 MLOAD DUP1 SWAP2 SUB SWAP1 REVERT JUMPDEST PUSH1 0x40 MLOAD DUP1 PUSH1 0xC0 ADD PUSH1 0x40 MSTORE DUP1 DUP3 DUP2 MSTORE PUSH1 0x20 ADD DUP8 PUSH20 0xFFFFFFFFFFFFFFFFFFFFFFFFFFFFFFFFFFFFFFFF AND DUP2 MSTORE PUSH1 0x20 ADD DUP7 DUP2 MSTORE PUSH1 0x20 ADD CALLER PUSH20 0xFFFFFFFFFFFFFFFFFFFFFFFFFFFFFFFFFFFFFFFF AND DUP2 MSTORE PUSH1 0x20 ADD PUSH1 0x0 PUSH20 0xFFFFFFFFFFFFFFFFFFFFFFFFFFFFFFFFFFFFFFFF AND DUP2 MSTORE PUSH1 0x20 ADD DUP6 DUP2 MSTORE POP PUSH1 0x7 PUSH1 0x0 DUP4 DUP2 MSTORE PUSH1 0x20 ADD SWAP1 DUP2 MSTORE PUSH1 0x20 ADD PUSH1 0x0 KECCAK256 PUSH1 0x0 DUP3 ADD MLOAD DUP2 PUSH1 0x0 ADD SSTORE PUSH1 0x20 DUP3 ADD MLOAD DUP2 PUSH1 0x1 ADD PUSH1 0x0 PUSH2 0x100 EXP DUP2 SLOAD DUP2 PUSH20 0xFFFFFFFFFFFFFFFFFFFFFFFFFFFFFFFFFFFFFFFF MUL NOT AND SWAP1 DUP4 PUSH20 0xFFFFFFFFFFFFFFFFFFFFFFFFFFFFFFFFFFFFFFFF AND MUL OR SWAP1 SSTORE POP PUSH1 0x40 DUP3 ADD MLOAD DUP2 PUSH1 0x2 ADD SSTORE PUSH1 0x60 DUP3 ADD MLOAD DUP2 PUSH1 0x3 ADD PUSH1 0x0 PUSH2 0x100 EXP DUP2 SLOAD DUP2 PUSH20 0xFFFFFFFFFFFFFFFFFFFFFFFFFFFFFFFFFFFFFFFF MUL NOT AND SWAP1 DUP4 PUSH20 0xFFFFFFFFFFFFFFFFFFFFFFFFFFFFFFFFFFFFFFFF AND MUL OR SWAP1 SSTORE POP PUSH1 0x80 DUP3 ADD MLOAD DUP2 PUSH1 0x4 ADD PUSH1 0x0 PUSH2 0x100 EXP DUP2 SLOAD DUP2 PUSH20 0xFFFFFFFFFFFFFFFFFFFFFFFFFFFFFFFFFFFFFFFF MUL NOT AND SWAP1 DUP4 PUSH20 0xFFFFFFFFFFFFFFFFFFFFFFFFFFFFFFFFFFFFFFFF AND MUL OR SWAP1 SSTORE POP PUSH1 0xA0 DUP3 ADD MLOAD DUP2 PUSH1 0x5 ADD SSTORE SWAP1 POP POP DUP2 PUSH20 0xFFFFFFFFFFFFFFFFFFFFFFFFFFFFFFFFFFFFFFFF AND PUSH4 0x23B872DD DUP5 ADDRESS DUP9 PUSH1 0x40 MLOAD DUP5 PUSH4 0xFFFFFFFF AND PUSH1 0xE0 SHL DUP2 MSTORE PUSH1 0x4 ADD PUSH2 0x1234 SWAP4 SWAP3 SWAP2 SWAP1 PUSH2 0x300A JUMP JUMPDEST PUSH1 0x0 PUSH1 0x40 MLOAD DUP1 DUP4 SUB DUP2 PUSH1 0x0 DUP8 DUP1 EXTCODESIZE ISZERO DUP1 ISZERO PUSH2 0x124E JUMPI PUSH1 0x0 DUP1 REVERT JUMPDEST POP GAS CALL ISZERO DUP1 ISZERO PUSH2 0x1262 JUMPI RETURNDATASIZE PUSH1 0x0 DUP1 RETURNDATACOPY RETURNDATASIZE PUSH1 0x0 REVERT JUMPDEST POP POP POP POP PUSH1 0x0 PUSH1 0x1 PUSH1 0x0 DUP9 PUSH20 0xFFFFFFFFFFFFFFFFFFFFFFFFFFFFFFFFFFFFFFFF AND PUSH20 0xFFFFFFFFFFFFFFFFFFFFFFFFFFFFFFFFFFFFFFFF AND DUP2 MSTORE PUSH1 0x20 ADD SWAP1 DUP2 MSTORE PUSH1 0x20 ADD PUSH1 0x0 KECCAK256 PUSH1 0x0 DUP8 DUP2 MSTORE PUSH1 0x20 ADD SWAP1 DUP2 MSTORE PUSH1 0x20 ADD PUSH1 0x0 KECCAK256 PUSH1 0x40 MLOAD DUP1 PUSH1 0xC0 ADD PUSH1 0x40 MSTORE SWAP1 DUP2 PUSH1 0x0 DUP3 ADD SLOAD DUP2 MSTORE PUSH1 0x20 ADD PUSH1 0x1 DUP3 ADD PUSH1 0x0 SWAP1 SLOAD SWAP1 PUSH2 0x100 EXP SWAP1 DIV PUSH20 0xFFFFFFFFFFFFFFFFFFFFFFFFFFFFFFFFFFFFFFFF AND PUSH20 0xFFFFFFFFFFFFFFFFFFFFFFFFFFFFFFFFFFFFFFFF AND PUSH20 0xFFFFFFFFFFFFFFFFFFFFFFFFFFFFFFFFFFFFFFFF AND DUP2 MSTORE PUSH1 0x20 ADD PUSH1 0x2 DUP3 ADD PUSH1 0x0 SWAP1 SLOAD SWAP1 PUSH2 0x100 EXP SWAP1 DIV PUSH20 0xFFFFFFFFFFFFFFFFFFFFFFFFFFFFFFFFFFFFFFFF AND PUSH20 0xFFFFFFFFFFFFFFFFFFFFFFFFFFFFFFFFFFFFFFFF AND PUSH20 0xFFFFFFFFFFFFFFFFFFFFFFFFFFFFFFFFFFFFFFFF AND DUP2 MSTORE PUSH1 0x20 ADD PUSH1 0x3 DUP3 ADD SLOAD DUP2 MSTORE PUSH1 0x20 ADD PUSH1 0x4 DUP3 ADD SLOAD DUP2 MSTORE PUSH1 0x20 ADD PUSH1 0x5 DUP3 ADD PUSH1 0x0 SWAP1 SLOAD SWAP1 PUSH2 0x100 EXP SWAP1 DIV PUSH1 0xFF AND PUSH1 0x4 DUP2 GT ISZERO PUSH2 0x13B2 JUMPI PUSH2 0x13B1 PUSH2 0x2C6B JUMP JUMPDEST JUMPDEST PUSH1 0x4 DUP2 GT ISZERO PUSH2 0x13C4 JUMPI PUSH2 0x13C3 PUSH2 0x2C6B JUMP JUMPDEST JUMPDEST DUP2 MSTORE POP POP SWAP1 POP PUSH1 0x0 DUP1 SHL DUP2 PUSH1 0x0 ADD MLOAD SUB PUSH2 0x13EB JUMPI PUSH2 0x13E6 DUP5 DUP8 DUP10 DUP9 PUSH1 0x0 PUSH2 0x2439 JUMP JUMPDEST PUSH2 0x15BC JUMP JUMPDEST PUSH1 0x1 PUSH1 0x4 DUP2 GT ISZERO PUSH2 0x13FF JUMPI PUSH2 0x13FE PUSH2 0x2C6B JUMP JUMPDEST JUMPDEST DUP2 PUSH1 0xA0 ADD MLOAD PUSH1 0x4 DUP2 GT ISZERO PUSH2 0x1416 JUMPI PUSH2 0x1415 PUSH2 0x2C6B JUMP JUMPDEST JUMPDEST SUB PUSH2 0x1456 JUMPI PUSH1 0x40 MLOAD PUSH32 0x8C379A000000000000000000000000000000000000000000000000000000000 DUP2 MSTORE PUSH1 0x4 ADD PUSH2 0x144D SWAP1 PUSH2 0x317C JUMP JUMPDEST PUSH1 0x40 MLOAD DUP1 SWAP2 SUB SWAP1 REVERT JUMPDEST PUSH1 0x1 DUP1 PUSH1 0x0 DUP10 PUSH20 0xFFFFFFFFFFFFFFFFFFFFFFFFFFFFFFFFFFFFFFFF AND PUSH20 0xFFFFFFFFFFFFFFFFFFFFFFFFFFFFFFFFFFFFFFFF AND DUP2 MSTORE PUSH1 0x20 ADD SWAP1 DUP2 MSTORE PUSH1 0x20 ADD PUSH1 0x0 KECCAK256 PUSH1 0x0 DUP9 DUP2 MSTORE PUSH1 0x20 ADD SWAP1 DUP2 MSTORE PUSH1 0x20 ADD PUSH1 0x0 KECCAK256 PUSH1 0x5 ADD PUSH1 0x0 PUSH2 0x100 EXP DUP2 SLOAD DUP2 PUSH1 0xFF MUL NOT AND SWAP1 DUP4 PUSH1 0x4 DUP2 GT ISZERO PUSH2 0x14CC JUMPI PUSH2 0x14CB PUSH2 0x2C6B JUMP JUMPDEST JUMPDEST MUL OR SWAP1 SSTORE POP DUP5 PUSH1 0x1 PUSH1 0x0 DUP10 PUSH20 0xFFFFFFFFFFFFFFFFFFFFFFFFFFFFFFFFFFFFFFFF AND PUSH20 0xFFFFFFFFFFFFFFFFFFFFFFFFFFFFFFFFFFFFFFFF AND DUP2 MSTORE PUSH1 0x20 ADD SWAP1 DUP2 MSTORE PUSH1 0x20 ADD PUSH1 0x0 KECCAK256 PUSH1 0x0 DUP9 DUP2 MSTORE PUSH1 0x20 ADD SWAP1 DUP2 MSTORE PUSH1 0x20 ADD PUSH1 0x0 KECCAK256 PUSH1 0x3 ADD DUP2 SWAP1 SSTORE POP DUP4 PUSH1 0x1 PUSH1 0x0 DUP10 PUSH20 0xFFFFFFFFFFFFFFFFFFFFFFFFFFFFFFFFFFFFFFFF AND PUSH20 0xFFFFFFFFFFFFFFFFFFFFFFFFFFFFFFFFFFFFFFFF AND DUP2 MSTORE PUSH1 0x20 ADD SWAP1 DUP2 MSTORE PUSH1 0x20 ADD PUSH1 0x0 KECCAK256 PUSH1 0x0 DUP9 DUP2 MSTORE PUSH1 0x20 ADD SWAP1 DUP2 MSTORE PUSH1 0x20 ADD PUSH1 0x0 KECCAK256 PUSH1 0x1 ADD PUSH1 0x0 PUSH2 0x100 EXP DUP2 SLOAD DUP2 PUSH20 0xFFFFFFFFFFFFFFFFFFFFFFFFFFFFFFFFFFFFFFFF MUL NOT AND SWAP1 DUP4 PUSH20 0xFFFFFFFFFFFFFFFFFFFFFFFFFFFFFFFFFFFFFFFF AND MUL OR SWAP1 SSTORE POP JUMPDEST DUP3 PUSH20 0xFFFFFFFFFFFFFFFFFFFFFFFFFFFFFFFFFFFFFFFF AND PUSH4 0x23B872DD DUP6 ADDRESS DUP10 PUSH1 0x40 MLOAD DUP5 PUSH4 0xFFFFFFFF AND PUSH1 0xE0 SHL DUP2 MSTORE PUSH1 0x4 ADD PUSH2 0x15F9 SWAP4 SWAP3 SWAP2 SWAP1 PUSH2 0x300A JUMP JUMPDEST PUSH1 0x0 PUSH1 0x40 MLOAD DUP1 DUP4 SUB DUP2 PUSH1 0x0 DUP8 DUP1 EXTCODESIZE ISZERO DUP1 ISZERO PUSH2 0x1613 JUMPI PUSH1 0x0 DUP1 REVERT JUMPDEST POP GAS CALL ISZERO DUP1 ISZERO PUSH2 0x1627 JUMPI RETURNDATASIZE PUSH1 0x0 DUP1 RETURNDATACOPY RETURNDATASIZE PUSH1 0x0 REVERT JUMPDEST POP POP POP POP DUP4 PUSH20 0xFFFFFFFFFFFFFFFFFFFFFFFFFFFFFFFFFFFFFFFF AND DUP7 PUSH32 0xFF2412BD5C66E6AD5153E35EE902EE32BB4393211A4D0662428B9B481929A7B9 DUP10 DUP5 PUSH1 0x0 ADD MLOAD DUP10 TIMESTAMP PUSH1 0x40 MLOAD PUSH2 0x167C SWAP5 SWAP4 SWAP3 SWAP2 SWAP1 PUSH2 0x31E8 JUMP JUMPDEST PUSH1 0x40 MLOAD DUP1 SWAP2 SUB SWAP1 LOG3 POP POP POP POP POP POP POP JUMP JUMPDEST PUSH2 0x1695 PUSH2 0x260F JUMP JUMPDEST PUSH20 0xFFFFFFFFFFFFFFFFFFFFFFFFFFFFFFFFFFFFFFFF AND PUSH2 0x16B3 PUSH2 0x1728 JUMP JUMPDEST PUSH20 0xFFFFFFFFFFFFFFFFFFFFFFFFFFFFFFFFFFFFFFFF AND EQ PUSH2 0x1709 JUMPI PUSH1 0x40 MLOAD PUSH32 0x8C379A000000000000000000000000000000000000000000000000000000000 DUP2 MSTORE PUSH1 0x4 ADD PUSH2 0x1700 SWAP1 PUSH2 0x328C JUMP JUMPDEST PUSH1 0x40 MLOAD DUP1 SWAP2 SUB SWAP1 REVERT JUMPDEST PUSH2 0x1713 PUSH1 0x0 PUSH2 0x2617 JUMP JUMPDEST JUMP JUMPDEST PUSH1 0x3 PUSH1 0x14 SWAP1 SLOAD SWAP1 PUSH2 0x100 EXP SWAP1 DIV PUSH1 0xFF AND DUP2 JUMP JUMPDEST PUSH1 0x0 PUSH1 0x4 PUSH1 0x0 SWAP1 SLOAD SWAP1 PUSH2 0x100 EXP SWAP1 DIV PUSH20 0xFFFFFFFFFFFFFFFFFFFFFFFFFFFFFFFFFFFFFFFF AND SWAP1 POP SWAP1 JUMP JUMPDEST PUSH2 0x175A PUSH2 0x260F JUMP JUMPDEST PUSH20 0xFFFFFFFFFFFFFFFFFFFFFFFFFFFFFFFFFFFFFFFF AND PUSH2 0x1778 PUSH2 0x1728 JUMP JUMPDEST PUSH20 0xFFFFFFFFFFFFFFFFFFFFFFFFFFFFFFFFFFFFFFFF AND EQ PUSH2 0x17CE JUMPI PUSH1 0x40 MLOAD PUSH32 0x8C379A000000000000000000000000000000000000000000000000000000000 DUP2 MSTORE PUSH1 0x4 ADD PUSH2 0x17C5 SWAP1 PUSH2 0x328C JUMP JUMPDEST PUSH1 0x40 MLOAD DUP1 SWAP2 SUB SWAP1 REVERT JUMPDEST DUP1 PUSH1 0x3 PUSH1 0x0 PUSH2 0x100 EXP DUP2 SLOAD DUP2 PUSH20 0xFFFFFFFFFFFFFFFFFFFFFFFFFFFFFFFFFFFFFFFF MUL NOT AND SWAP1 DUP4 PUSH20 0xFFFFFFFFFFFFFFFFFFFFFFFFFFFFFFFFFFFFFFFF AND MUL OR SWAP1 SSTORE POP POP JUMP JUMPDEST PUSH1 0x3 PUSH1 0x15 SWAP1 SLOAD SWAP1 PUSH2 0x100 EXP SWAP1 DIV PUSH1 0xFF AND DUP2 JUMP JUMPDEST PUSH1 0x2 PUSH1 0x0 SLOAD SUB PUSH2 0x186A JUMPI PUSH1 0x40 MLOAD PUSH32 0x8C379A000000000000000000000000000000000000000000000000000000000 DUP2 MSTORE PUSH1 0x4 ADD PUSH2 0x1861 SWAP1 PUSH2 0x2F7E JUMP JUMPDEST PUSH1 0x40 MLOAD DUP1 SWAP2 SUB SWAP1 REVERT JUMPDEST PUSH1 0x2 PUSH1 0x0 DUP2 SWAP1 SSTORE POP PUSH1 0x0 PUSH1 0x7 PUSH1 0x0 DUP4 DUP2 MSTORE PUSH1 0x20 ADD SWAP1 DUP2 MSTORE PUSH1 0x20 ADD PUSH1 0x0 KECCAK256 PUSH1 0x5 ADD SLOAD SWAP1 POP PUSH1 0x0 PUSH1 0x7 PUSH1 0x0 DUP5 DUP2 MSTORE PUSH1 0x20 ADD SWAP1 DUP2 MSTORE PUSH1 0x20 ADD PUSH1 0x0 KECCAK256 PUSH1 0x2 ADD SLOAD SWAP1 POP DUP2 CALLVALUE EQ PUSH2 0x18EA JUMPI PUSH1 0x40 MLOAD PUSH32 0x8C379A000000000000000000000000000000000000000000000000000000000 DUP2 MSTORE PUSH1 0x4 ADD PUSH2 0x18E1 SWAP1 PUSH2 0x331E JUMP JUMPDEST PUSH1 0x40 MLOAD DUP1 SWAP2 SUB SWAP1 REVERT JUMPDEST PUSH1 0x7 PUSH1 0x0 DUP5 DUP2 MSTORE PUSH1 0x20 ADD SWAP1 DUP2 MSTORE PUSH1 0x20 ADD PUSH1 0x0 KECCAK256 PUSH1 0x3 ADD PUSH1 0x0 SWAP1 SLOAD SWAP1 PUSH2 0x100 EXP SWAP1 DIV PUSH20 0xFFFFFFFFFFFFFFFFFFFFFFFFFFFFFFFFFFFFFFFF AND PUSH20 0xFFFFFFFFFFFFFFFFFFFFFFFFFFFFFFFFFFFFFFFF AND PUSH2 0x8FC CALLVALUE SWAP1 DUP2 ISZERO MUL SWAP1 PUSH1 0x40 MLOAD PUSH1 0x0 PUSH1 0x40 MLOAD DUP1 DUP4 SUB DUP2 DUP6 DUP9 DUP9 CALL SWAP4 POP POP POP POP ISZERO DUP1 ISZERO PUSH2 0x1966 JUMPI RETURNDATASIZE PUSH1 0x0 DUP1 RETURNDATACOPY RETURNDATASIZE PUSH1 0x0 REVERT JUMPDEST POP DUP4 PUSH20 0xFFFFFFFFFFFFFFFFFFFFFFFFFFFFFFFFFFFFFFFF AND PUSH4 0x23B872DD ADDRESS CALLER DUP5 PUSH1 0x40 MLOAD DUP5 PUSH4 0xFFFFFFFF AND PUSH1 0xE0 SHL DUP2 MSTORE PUSH1 0x4 ADD PUSH2 0x19A4 SWAP4 SWAP3 SWAP2 SWAP1 PUSH2 0x300A JUMP JUMPDEST PUSH1 0x0 PUSH1 0x40 MLOAD DUP1 DUP4 SUB DUP2 PUSH1 0x0 DUP8 DUP1 EXTCODESIZE ISZERO DUP1 ISZERO PUSH2 0x19BE JUMPI PUSH1 0x0 DUP1 REVERT JUMPDEST POP GAS CALL ISZERO DUP1 ISZERO PUSH2 0x19D2 JUMPI RETURNDATASIZE PUSH1 0x0 DUP1 RETURNDATACOPY RETURNDATASIZE PUSH1 0x0 REVERT JUMPDEST POP POP POP POP CALLER PUSH1 0x7 PUSH1 0x0 DUP6 DUP2 MSTORE PUSH1 0x20 ADD SWAP1 DUP2 MSTORE PUSH1 0x20 ADD PUSH1 0x0 KECCAK256 PUSH1 0x4 ADD PUSH1 0x0 PUSH2 0x100 EXP DUP2 SLOAD DUP2 PUSH20 0xFFFFFFFFFFFFFFFFFFFFFFFFFFFFFFFFFFFFFFFF MUL NOT AND SWAP1 DUP4 PUSH20 0xFFFFFFFFFFFFFFFFFFFFFFFFFFFFFFFFFFFFFFFF AND MUL OR SWAP1 SSTORE POP PUSH2 0x1A35 PUSH1 0x6 PUSH2 0x2312 JUMP JUMPDEST POP POP PUSH1 0x1 PUSH1 0x0 DUP2 SWAP1 SSTORE POP POP POP JUMP JUMPDEST PUSH2 0x1A4B PUSH2 0x26F6 JUMP JUMPDEST PUSH1 0x7 PUSH1 0x0 DUP4 DUP2 MSTORE PUSH1 0x20 ADD SWAP1 DUP2 MSTORE PUSH1 0x20 ADD PUSH1 0x0 KECCAK256 PUSH1 0x40 MLOAD DUP1 PUSH1 0xC0 ADD PUSH1 0x40 MSTORE SWAP1 DUP2 PUSH1 0x0 DUP3 ADD SLOAD DUP2 MSTORE PUSH1 0x20 ADD PUSH1 0x1 DUP3 ADD PUSH1 0x0 SWAP1 SLOAD SWAP1 PUSH2 0x100 EXP SWAP1 DIV PUSH20 0xFFFFFFFFFFFFFFFFFFFFFFFFFFFFFFFFFFFFFFFF AND PUSH20 0xFFFFFFFFFFFFFFFFFFFFFFFFFFFFFFFFFFFFFFFF AND PUSH20 0xFFFFFFFFFFFFFFFFFFFFFFFFFFFFFFFFFFFFFFFF AND DUP2 MSTORE PUSH1 0x20 ADD PUSH1 0x2 DUP3 ADD SLOAD DUP2 MSTORE PUSH1 0x20 ADD PUSH1 0x3 DUP3 ADD PUSH1 0x0 SWAP1 SLOAD SWAP1 PUSH2 0x100 EXP SWAP1 DIV PUSH20 0xFFFFFFFFFFFFFFFFFFFFFFFFFFFFFFFFFFFFFFFF AND PUSH20 0xFFFFFFFFFFFFFFFFFFFFFFFFFFFFFFFFFFFFFFFF AND PUSH20 0xFFFFFFFFFFFFFFFFFFFFFFFFFFFFFFFFFFFFFFFF AND DUP2 MSTORE PUSH1 0x20 ADD PUSH1 0x4 DUP3 ADD PUSH1 0x0 SWAP1 SLOAD SWAP1 PUSH2 0x100 EXP SWAP1 DIV PUSH20 0xFFFFFFFFFFFFFFFFFFFFFFFFFFFFFFFFFFFFFFFF AND PUSH20 0xFFFFFFFFFFFFFFFFFFFFFFFFFFFFFFFFFFFFFFFF AND PUSH20 0xFFFFFFFFFFFFFFFFFFFFFFFFFFFFFFFFFFFFFFFF AND DUP2 MSTORE PUSH1 0x20 ADD PUSH1 0x5 DUP3 ADD SLOAD DUP2 MSTORE POP POP SWAP1 POP SWAP2 SWAP1 POP JUMP JUMPDEST PUSH2 0x1B99 DUP4 PUSH2 0x2328 JUMP JUMPDEST PUSH1 0x0 CALLER SWAP1 POP PUSH1 0x0 DUP5 SWAP1 POP PUSH1 0x0 PUSH1 0x1 PUSH1 0x0 DUP8 PUSH20 0xFFFFFFFFFFFFFFFFFFFFFFFFFFFFFFFFFFFFFFFF AND PUSH20 0xFFFFFFFFFFFFFFFFFFFFFFFFFFFFFFFFFFFFFFFF AND DUP2 MSTORE PUSH1 0x20 ADD SWAP1 DUP2 MSTORE PUSH1 0x20 ADD PUSH1 0x0 KECCAK256 PUSH1 0x0 DUP7 DUP2 MSTORE PUSH1 0x20 ADD SWAP1 DUP2 MSTORE PUSH1 0x20 ADD PUSH1 0x0 KECCAK256 PUSH1 0x40 MLOAD DUP1 PUSH1 0xC0 ADD PUSH1 0x40 MSTORE SWAP1 DUP2 PUSH1 0x0 DUP3 ADD SLOAD DUP2 MSTORE PUSH1 0x20 ADD PUSH1 0x1 DUP3 ADD PUSH1 0x0 SWAP1 SLOAD SWAP1 PUSH2 0x100 EXP SWAP1 DIV PUSH20 0xFFFFFFFFFFFFFFFFFFFFFFFFFFFFFFFFFFFFFFFF AND PUSH20 0xFFFFFFFFFFFFFFFFFFFFFFFFFFFFFFFFFFFFFFFF AND PUSH20 0xFFFFFFFFFFFFFFFFFFFFFFFFFFFFFFFFFFFFFFFF AND DUP2 MSTORE PUSH1 0x20 ADD PUSH1 0x2 DUP3 ADD PUSH1 0x0 SWAP1 SLOAD SWAP1 PUSH2 0x100 EXP SWAP1 DIV PUSH20 0xFFFFFFFFFFFFFFFFFFFFFFFFFFFFFFFFFFFFFFFF AND PUSH20 0xFFFFFFFFFFFFFFFFFFFFFFFFFFFFFFFFFFFFFFFF AND PUSH20 0xFFFFFFFFFFFFFFFFFFFFFFFFFFFFFFFFFFFFFFFF AND DUP2 MSTORE PUSH1 0x20 ADD PUSH1 0x3 DUP3 ADD SLOAD DUP2 MSTORE PUSH1 0x20 ADD PUSH1 0x4 DUP3 ADD SLOAD DUP2 MSTORE PUSH1 0x20 ADD PUSH1 0x5 DUP3 ADD PUSH1 0x0 SWAP1 SLOAD SWAP1 PUSH2 0x100 EXP SWAP1 DIV PUSH1 0xFF AND PUSH1 0x4 DUP2 GT ISZERO PUSH2 0x1CEF JUMPI PUSH2 0x1CEE PUSH2 0x2C6B JUMP JUMPDEST JUMPDEST PUSH1 0x4 DUP2 GT ISZERO PUSH2 0x1D01 JUMPI PUSH2 0x1D00 PUSH2 0x2C6B JUMP JUMPDEST JUMPDEST DUP2 MSTORE POP POP SWAP1 POP PUSH1 0x0 DUP1 SHL DUP2 PUSH1 0x0 ADD MLOAD SUB PUSH2 0x1D50 JUMPI PUSH1 0x40 MLOAD PUSH32 0x8C379A000000000000000000000000000000000000000000000000000000000 DUP2 MSTORE PUSH1 0x4 ADD PUSH2 0x1D47 SWAP1 PUSH2 0x338A JUMP JUMPDEST PUSH1 0x40 MLOAD DUP1 SWAP2 SUB SWAP1 REVERT JUMPDEST PUSH1 0x1 PUSH1 0x4 DUP2 GT ISZERO PUSH2 0x1D64 JUMPI PUSH2 0x1D63 PUSH2 0x2C6B JUMP JUMPDEST JUMPDEST DUP2 PUSH1 0xA0 ADD MLOAD PUSH1 0x4 DUP2 GT ISZERO PUSH2 0x1D7B JUMPI PUSH2 0x1D7A PUSH2 0x2C6B JUMP JUMPDEST JUMPDEST EQ PUSH2 0x1DBB JUMPI PUSH1 0x40 MLOAD PUSH32 0x8C379A000000000000000000000000000000000000000000000000000000000 DUP2 MSTORE PUSH1 0x4 ADD PUSH2 0x1DB2 SWAP1 PUSH2 0x33F6 JUMP JUMPDEST PUSH1 0x40 MLOAD DUP1 SWAP2 SUB SWAP1 REVERT JUMPDEST PUSH1 0x0 DUP2 PUSH1 0x20 ADD MLOAD SWAP1 POP PUSH1 0x0 PUSH20 0xFFFFFFFFFFFFFFFFFFFFFFFFFFFFFFFFFFFFFFFF AND DUP2 PUSH20 0xFFFFFFFFFFFFFFFFFFFFFFFFFFFFFFFFFFFFFFFF AND SUB PUSH2 0x1E33 JUMPI PUSH1 0x40 MLOAD PUSH32 0x8C379A000000000000000000000000000000000000000000000000000000000 DUP2 MSTORE PUSH1 0x4 ADD PUSH2 0x1E2A SWAP1 PUSH2 0x3462 JUMP JUMPDEST PUSH1 0x40 MLOAD DUP1 SWAP2 SUB SWAP1 REVERT JUMPDEST DUP2 PUSH1 0x80 ADD MLOAD DUP6 LT ISZERO PUSH2 0x1E7A JUMPI PUSH1 0x40 MLOAD PUSH32 0x8C379A000000000000000000000000000000000000000000000000000000000 DUP2 MSTORE PUSH1 0x4 ADD PUSH2 0x1E71 SWAP1 PUSH2 0x34CE JUMP JUMPDEST PUSH1 0x40 MLOAD DUP1 SWAP2 SUB SWAP1 REVERT JUMPDEST PUSH1 0x0 PUSH1 0x64 DUP7 PUSH1 0x3 PUSH1 0x15 SWAP1 SLOAD SWAP1 PUSH2 0x100 EXP SWAP1 DIV PUSH1 0xFF AND PUSH1 0xFF AND PUSH2 0x1E9C SWAP2 SWAP1 PUSH2 0x34EE JUMP JUMPDEST PUSH2 0x1EA6 SWAP2 SWAP1 PUSH2 0x3577 JUMP JUMPDEST SWAP1 POP PUSH1 0x0 DUP2 DUP8 PUSH2 0x1EB6 SWAP2 SWAP1 PUSH2 0x2DF1 JUMP JUMPDEST SWAP1 POP PUSH1 0x3 PUSH1 0x0 SWAP1 SLOAD SWAP1 PUSH2 0x100 EXP SWAP1 DIV PUSH20 0xFFFFFFFFFFFFFFFFFFFFFFFFFFFFFFFFFFFFFFFF AND PUSH20 0xFFFFFFFFFFFFFFFFFFFFFFFFFFFFFFFFFFFFFFFF AND PUSH4 0x23B872DD DUP8 ADDRESS DUP6 PUSH1 0x40 MLOAD DUP5 PUSH4 0xFFFFFFFF AND PUSH1 0xE0 SHL DUP2 MSTORE PUSH1 0x4 ADD PUSH2 0x1F17 SWAP4 SWAP3 SWAP2 SWAP1 PUSH2 0x300A JUMP JUMPDEST PUSH1 0x20 PUSH1 0x40 MLOAD DUP1 DUP4 SUB DUP2 PUSH1 0x0 DUP8 GAS CALL ISZERO DUP1 ISZERO PUSH2 0x1F36 JUMPI RETURNDATASIZE PUSH1 0x0 DUP1 RETURNDATACOPY RETURNDATASIZE PUSH1 0x0 REVERT JUMPDEST POP POP POP POP PUSH1 0x40 MLOAD RETURNDATASIZE PUSH1 0x1F NOT PUSH1 0x1F DUP3 ADD AND DUP3 ADD DUP1 PUSH1 0x40 MSTORE POP DUP2 ADD SWAP1 PUSH2 0x1F5A SWAP2 SWAP1 PUSH2 0x35E0 JUMP JUMPDEST POP PUSH1 0x3 PUSH1 0x0 SWAP1 SLOAD SWAP1 PUSH2 0x100 EXP SWAP1 DIV PUSH20 0xFFFFFFFFFFFFFFFFFFFFFFFFFFFFFFFFFFFFFFFF AND PUSH20 0xFFFFFFFFFFFFFFFFFFFFFFFFFFFFFFFFFFFFFFFF AND PUSH4 0x23B872DD DUP8 DUP6 DUP5 PUSH1 0x40 MLOAD DUP5 PUSH4 0xFFFFFFFF AND PUSH1 0xE0 SHL DUP2 MSTORE PUSH1 0x4 ADD PUSH2 0x1FBA SWAP4 SWAP3 SWAP2 SWAP1 PUSH2 0x300A JUMP JUMPDEST PUSH1 0x20 PUSH1 0x40 MLOAD DUP1 DUP4 SUB DUP2 PUSH1 0x0 DUP8 GAS CALL ISZERO DUP1 ISZERO PUSH2 0x1FD9 JUMPI RETURNDATASIZE PUSH1 0x0 DUP1 RETURNDATACOPY RETURNDATASIZE PUSH1 0x0 REVERT JUMPDEST POP POP POP POP PUSH1 0x40 MLOAD RETURNDATASIZE PUSH1 0x1F NOT PUSH1 0x1F DUP3 ADD AND DUP3 ADD DUP1 PUSH1 0x40 MSTORE POP DUP2 ADD SWAP1 PUSH2 0x1FFD SWAP2 SWAP1 PUSH2 0x35E0 JUMP JUMPDEST POP DUP5 PUSH20 0xFFFFFFFFFFFFFFFFFFFFFFFFFFFFFFFFFFFFFFFF AND PUSH4 0x42842E0E ADDRESS DUP9 DUP12 PUSH1 0x40 MLOAD DUP5 PUSH4 0xFFFFFFFF AND PUSH1 0xE0 SHL DUP2 MSTORE PUSH1 0x4 ADD PUSH2 0x203B SWAP4 SWAP3 SWAP2 SWAP1 PUSH2 0x300A JUMP JUMPDEST PUSH1 0x0 PUSH1 0x40 MLOAD DUP1 DUP4 SUB DUP2 PUSH1 0x0 DUP8 DUP1 EXTCODESIZE ISZERO DUP1 ISZERO PUSH2 0x2055 JUMPI PUSH1 0x0 DUP1 REVERT JUMPDEST POP GAS CALL ISZERO DUP1 ISZERO PUSH2 0x2069 JUMPI RETURNDATASIZE PUSH1 0x0 DUP1 RETURNDATACOPY RETURNDATASIZE PUSH1 0x0 REVERT JUMPDEST POP POP POP POP DUP6 PUSH1 0x1 PUSH1 0x0 DUP12 PUSH20 0xFFFFFFFFFFFFFFFFFFFFFFFFFFFFFFFFFFFFFFFF AND PUSH20 0xFFFFFFFFFFFFFFFFFFFFFFFFFFFFFFFFFFFFFFFF AND DUP2 MSTORE PUSH1 0x20 ADD SWAP1 DUP2 MSTORE PUSH1 0x20 ADD PUSH1 0x0 KECCAK256 PUSH1 0x0 DUP11 DUP2 MSTORE PUSH1 0x20 ADD SWAP1 DUP2 MSTORE PUSH1 0x20 ADD PUSH1 0x0 KECCAK256 PUSH1 0x1 ADD PUSH1 0x0 PUSH2 0x100 EXP DUP2 SLOAD DUP2 PUSH20 0xFFFFFFFFFFFFFFFFFFFFFFFFFFFFFFFFFFFFFFFF MUL NOT AND SWAP1 DUP4 PUSH20 0xFFFFFFFFFFFFFFFFFFFFFFFFFFFFFFFFFFFFFFFF AND MUL OR SWAP1 SSTORE POP PUSH1 0x2 PUSH1 0x1 PUSH1 0x0 DUP12 PUSH20 0xFFFFFFFFFFFFFFFFFFFFFFFFFFFFFFFFFFFFFFFF AND PUSH20 0xFFFFFFFFFFFFFFFFFFFFFFFFFFFFFFFFFFFFFFFF AND DUP2 MSTORE PUSH1 0x20 ADD SWAP1 DUP2 MSTORE PUSH1 0x20 ADD PUSH1 0x0 KECCAK256 PUSH1 0x0 DUP11 DUP2 MSTORE PUSH1 0x20 ADD SWAP1 DUP2 MSTORE PUSH1 0x20 ADD PUSH1 0x0 KECCAK256 PUSH1 0x5 ADD PUSH1 0x0 PUSH2 0x100 EXP DUP2 SLOAD DUP2 PUSH1 0xFF MUL NOT AND SWAP1 DUP4 PUSH1 0x4 DUP2 GT ISZERO PUSH2 0x2176 JUMPI PUSH2 0x2175 PUSH2 0x2C6B JUMP JUMPDEST JUMPDEST MUL OR SWAP1 SSTORE POP DUP6 PUSH20 0xFFFFFFFFFFFFFFFFFFFFFFFFFFFFFFFFFFFFFFFF AND DUP4 PUSH20 0xFFFFFFFFFFFFFFFFFFFFFFFFFFFFFFFFFFFFFFFF AND DUP10 PUSH32 0x30247E11BBB597DFEFD2A3124026F1EF8987A4D6BA46E3629F80BAC1B0C9FAEE DUP8 PUSH1 0x0 ADD MLOAD DUP14 DUP10 PUSH1 0x80 ADD MLOAD PUSH1 0x3 PUSH1 0x15 SWAP1 SLOAD SWAP1 PUSH2 0x100 EXP SWAP1 DIV PUSH1 0xFF AND DUP10 TIMESTAMP PUSH1 0x40 MLOAD PUSH2 0x21FA SWAP7 SWAP6 SWAP5 SWAP4 SWAP3 SWAP2 SWAP1 PUSH2 0x3659 JUMP JUMPDEST PUSH1 0x40 MLOAD DUP1 SWAP2 SUB SWAP1 LOG4 POP POP POP POP POP POP POP POP POP JUMP JUMPDEST PUSH2 0x2215 PUSH2 0x260F JUMP JUMPDEST PUSH20 0xFFFFFFFFFFFFFFFFFFFFFFFFFFFFFFFFFFFFFFFF AND PUSH2 0x2233 PUSH2 0x1728 JUMP JUMPDEST PUSH20 0xFFFFFFFFFFFFFFFFFFFFFFFFFFFFFFFFFFFFFFFF AND EQ PUSH2 0x2289 JUMPI PUSH1 0x40 MLOAD PUSH32 0x8C379A000000000000000000000000000000000000000000000000000000000 DUP2 MSTORE PUSH1 0x4 ADD PUSH2 0x2280 SWAP1 PUSH2 0x328C JUMP JUMPDEST PUSH1 0x40 MLOAD DUP1 SWAP2 SUB SWAP1 REVERT JUMPDEST PUSH1 0x0 PUSH20 0xFFFFFFFFFFFFFFFFFFFFFFFFFFFFFFFFFFFFFFFF AND DUP2 PUSH20 0xFFFFFFFFFFFFFFFFFFFFFFFFFFFFFFFFFFFFFFFF AND SUB PUSH2 0x22F8 JUMPI PUSH1 0x40 MLOAD PUSH32 0x8C379A000000000000000000000000000000000000000000000000000000000 DUP2 MSTORE PUSH1 0x4 ADD PUSH2 0x22EF SWAP1 PUSH2 0x373F JUMP JUMPDEST PUSH1 0x40 MLOAD DUP1 SWAP2 SUB SWAP1 REVERT JUMPDEST PUSH2 0x2301 DUP2 PUSH2 0x2617 JUMP JUMPDEST POP JUMP JUMPDEST PUSH1 0x0 DUP2 PUSH1 0x0 ADD SLOAD SWAP1 POP SWAP2 SWAP1 POP JUMP JUMPDEST PUSH1 0x1 DUP2 PUSH1 0x0 ADD PUSH1 0x0 DUP3 DUP3 SLOAD ADD SWAP3 POP POP DUP2 SWAP1 SSTORE POP POP JUMP JUMPDEST PUSH2 0x2331 DUP2 PUSH2 0x26DD JUMP JUMPDEST PUSH2 0x2370 JUMPI PUSH1 0x40 MLOAD PUSH32 0x8C379A000000000000000000000000000000000000000000000000000000000 DUP2 MSTORE PUSH1 0x4 ADD PUSH2 0x2367 SWAP1 PUSH2 0x37D1 JUMP JUMPDEST PUSH1 0x40 MLOAD DUP1 SWAP2 SUB SWAP1 REVERT JUMPDEST PUSH1 0x0 DUP2 SWAP1 POP DUP1 PUSH20 0xFFFFFFFFFFFFFFFFFFFFFFFFFFFFFFFFFFFFFFFF AND PUSH4 0x1FFC9A7 PUSH4 0x80AC58CD PUSH1 0xE0 SHL PUSH1 0x40 MLOAD DUP3 PUSH4 0xFFFFFFFF AND PUSH1 0xE0 SHL DUP2 MSTORE PUSH1 0x4 ADD PUSH2 0x23B5 SWAP2 SWAP1 PUSH2 0x2ADE JUMP JUMPDEST PUSH1 0x20 PUSH1 0x40 MLOAD DUP1 DUP4 SUB DUP2 DUP7 GAS STATICCALL ISZERO DUP1 ISZERO PUSH2 0x23D2 JUMPI RETURNDATASIZE PUSH1 0x0 DUP1 RETURNDATACOPY RETURNDATASIZE PUSH1 0x0 REVERT JUMPDEST POP POP POP POP PUSH1 0x40 MLOAD RETURNDATASIZE PUSH1 0x1F NOT PUSH1 0x1F DUP3 ADD AND DUP3 ADD DUP1 PUSH1 0x40 MSTORE POP DUP2 ADD SWAP1 PUSH2 0x23F6 SWAP2 SWAP1 PUSH2 0x35E0 JUMP JUMPDEST PUSH2 0x2435 JUMPI PUSH1 0x40 MLOAD PUSH32 0x8C379A000000000000000000000000000000000000000000000000000000000 DUP2 MSTORE PUSH1 0x4 ADD PUSH2 0x242C SWAP1 PUSH2 0x3863 JUMP JUMPDEST PUSH1 0x40 MLOAD DUP1 SWAP2 SUB SWAP1 REVERT JUMPDEST POP POP JUMP JUMPDEST PUSH1 0x0 TIMESTAMP DUP7 DUP7 DUP7 DUP7 PUSH1 0x40 MLOAD PUSH1 0x20 ADD PUSH2 0x2454 SWAP6 SWAP5 SWAP4 SWAP3 SWAP2 SWAP1 PUSH2 0x38EC JUMP JUMPDEST PUSH1 0x40 MLOAD PUSH1 0x20 DUP2 DUP4 SUB SUB DUP2 MSTORE SWAP1 PUSH1 0x40 MSTORE DUP1 MLOAD SWAP1 PUSH1 0x20 ADD KECCAK256 SWAP1 POP PUSH1 0x40 MLOAD DUP1 PUSH1 0xC0 ADD PUSH1 0x40 MSTORE DUP1 DUP3 DUP2 MSTORE PUSH1 0x20 ADD DUP8 PUSH20 0xFFFFFFFFFFFFFFFFFFFFFFFFFFFFFFFFFFFFFFFF AND DUP2 MSTORE PUSH1 0x20 ADD DUP6 PUSH20 0xFFFFFFFFFFFFFFFFFFFFFFFFFFFFFFFFFFFFFFFF AND DUP2 MSTORE PUSH1 0x20 ADD DUP5 DUP2 MSTORE PUSH1 0x20 ADD DUP4 DUP2 MSTORE PUSH1 0x20 ADD PUSH1 0x1 PUSH1 0x4 DUP2 GT ISZERO PUSH2 0x24D5 JUMPI PUSH2 0x24D4 PUSH2 0x2C6B JUMP JUMPDEST JUMPDEST DUP2 MSTORE POP PUSH1 0x1 PUSH1 0x0 DUP7 PUSH20 0xFFFFFFFFFFFFFFFFFFFFFFFFFFFFFFFFFFFFFFFF AND PUSH20 0xFFFFFFFFFFFFFFFFFFFFFFFFFFFFFFFFFFFFFFFF AND DUP2 MSTORE PUSH1 0x20 ADD SWAP1 DUP2 MSTORE PUSH1 0x20 ADD PUSH1 0x0 KECCAK256 PUSH1 0x0 DUP8 DUP2 MSTORE PUSH1 0x20 ADD SWAP1 DUP2 MSTORE PUSH1 0x20 ADD PUSH1 0x0 KECCAK256 PUSH1 0x0 DUP3 ADD MLOAD DUP2 PUSH1 0x0 ADD SSTORE PUSH1 0x20 DUP3 ADD MLOAD DUP2 PUSH1 0x1 ADD PUSH1 0x0 PUSH2 0x100 EXP DUP2 SLOAD DUP2 PUSH20 0xFFFFFFFFFFFFFFFFFFFFFFFFFFFFFFFFFFFFFFFF MUL NOT AND SWAP1 DUP4 PUSH20 0xFFFFFFFFFFFFFFFFFFFFFFFFFFFFFFFFFFFFFFFF AND MUL OR SWAP1 SSTORE POP PUSH1 0x40 DUP3 ADD MLOAD DUP2 PUSH1 0x2 ADD PUSH1 0x0 PUSH2 0x100 EXP DUP2 SLOAD DUP2 PUSH20 0xFFFFFFFFFFFFFFFFFFFFFFFFFFFFFFFFFFFFFFFF MUL NOT AND SWAP1 DUP4 PUSH20 0xFFFFFFFFFFFFFFFFFFFFFFFFFFFFFFFFFFFFFFFF AND MUL OR SWAP1 SSTORE POP PUSH1 0x60 DUP3 ADD MLOAD DUP2 PUSH1 0x3 ADD SSTORE PUSH1 0x80 DUP3 ADD MLOAD DUP2 PUSH1 0x4 ADD SSTORE PUSH1 0xA0 DUP3 ADD MLOAD DUP2 PUSH1 0x5 ADD PUSH1 0x0 PUSH2 0x100 EXP DUP2 SLOAD DUP2 PUSH1 0xFF MUL NOT AND SWAP1 DUP4 PUSH1 0x4 DUP2 GT ISZERO PUSH2 0x25FF JUMPI PUSH2 0x25FE PUSH2 0x2C6B JUMP JUMPDEST JUMPDEST MUL OR SWAP1 SSTORE POP SWAP1 POP POP POP POP POP POP POP POP JUMP JUMPDEST PUSH1 0x0 CALLER SWAP1 POP SWAP1 JUMP JUMPDEST PUSH1 0x0 PUSH1 0x4 PUSH1 0x0 SWAP1 SLOAD SWAP1 PUSH2 0x100 EXP SWAP1 DIV PUSH20 0xFFFFFFFFFFFFFFFFFFFFFFFFFFFFFFFFFFFFFFFF AND SWAP1 POP DUP2 PUSH1 0x4 PUSH1 0x0 PUSH2 0x100 EXP DUP2 SLOAD DUP2 PUSH20 0xFFFFFFFFFFFFFFFFFFFFFFFFFFFFFFFFFFFFFFFF MUL NOT AND SWAP1 DUP4 PUSH20 0xFFFFFFFFFFFFFFFFFFFFFFFFFFFFFFFFFFFFFFFF AND MUL OR SWAP1 SSTORE POP DUP2 PUSH20 0xFFFFFFFFFFFFFFFFFFFFFFFFFFFFFFFFFFFFFFFF AND DUP2 PUSH20 0xFFFFFFFFFFFFFFFFFFFFFFFFFFFFFFFFFFFFFFFF AND PUSH32 0x8BE0079C531659141344CD1FD0A4F28419497F9722A3DAAFE3B4186F6B6457E0 PUSH1 0x40 MLOAD PUSH1 0x40 MLOAD DUP1 SWAP2 SUB SWAP1 LOG3 POP POP JUMP JUMPDEST PUSH1 0x0 DUP1 DUP3 EXTCODESIZE SWAP1 POP PUSH1 0x0 DUP2 PUSH4 0xFFFFFFFF AND GT SWAP2 POP POP SWAP2 SWAP1 POP JUMP JUMPDEST PUSH1 0x40 MLOAD DUP1 PUSH1 0xC0 ADD PUSH1 0x40 MSTORE DUP1 PUSH1 0x0 DUP2 MSTORE PUSH1 0x20 ADD PUSH1 0x0 PUSH20 0xFFFFFFFFFFFFFFFFFFFFFFFFFFFFFFFFFFFFFFFF AND DUP2 MSTORE PUSH1 0x20 ADD PUSH1 0x0 DUP2 MSTORE PUSH1 0x20 ADD PUSH1 0x0 PUSH20 0xFFFFFFFFFFFFFFFFFFFFFFFFFFFFFFFFFFFFFFFF AND DUP2 MSTORE PUSH1 0x20 ADD PUSH1 0x0 PUSH20 0xFFFFFFFFFFFFFFFFFFFFFFFFFFFFFFFFFFFFFFFF AND DUP2 MSTORE PUSH1 0x20 ADD PUSH1 0x0 DUP2 MSTORE POP SWAP1 JUMP JUMPDEST PUSH1 0x0 DUP2 MLOAD SWAP1 POP SWAP2 SWAP1 POP JUMP JUMPDEST PUSH1 0x0 DUP3 DUP3 MSTORE PUSH1 0x20 DUP3 ADD SWAP1 POP SWAP3 SWAP2 POP POP JUMP JUMPDEST PUSH1 0x0 DUP2 SWAP1 POP PUSH1 0x20 DUP3 ADD SWAP1 POP SWAP2 SWAP1 POP JUMP JUMPDEST PUSH1 0x0 DUP2 SWAP1 POP SWAP2 SWAP1 POP JUMP JUMPDEST PUSH2 0x27AD DUP2 PUSH2 0x279A JUMP JUMPDEST DUP3 MSTORE POP POP JUMP JUMPDEST PUSH1 0x0 PUSH20 0xFFFFFFFFFFFFFFFFFFFFFFFFFFFFFFFFFFFFFFFF DUP3 AND SWAP1 POP SWAP2 SWAP1 POP JUMP JUMPDEST PUSH1 0x0 PUSH2 0x27DE DUP3 PUSH2 0x27B3 JUMP JUMPDEST SWAP1 POP SWAP2 SWAP1 POP JUMP JUMPDEST PUSH2 0x27EE DUP2 PUSH2 0x27D3 JUMP JUMPDEST DUP3 MSTORE POP POP JUMP JUMPDEST PUSH1 0x0 PUSH2 0x27FF DUP3 PUSH2 0x27B3 JUMP JUMPDEST SWAP1 POP SWAP2 SWAP1 POP JUMP JUMPDEST PUSH2 0x280F DUP2 PUSH2 0x27F4 JUMP JUMPDEST DUP3 MSTORE POP POP JUMP JUMPDEST PUSH1 0xC0 DUP3 ADD PUSH1 0x0 DUP3 ADD MLOAD PUSH2 0x282B PUSH1 0x0 DUP6 ADD DUP3 PUSH2 0x27A4 JUMP JUMPDEST POP PUSH1 0x20 DUP3 ADD MLOAD PUSH2 0x283E PUSH1 0x20 DUP6 ADD DUP3 PUSH2 0x27E5 JUMP JUMPDEST POP PUSH1 0x40 DUP3 ADD MLOAD PUSH2 0x2851 PUSH1 0x40 DUP6 ADD DUP3 PUSH2 0x27A4 JUMP JUMPDEST POP PUSH1 0x60 DUP3 ADD MLOAD PUSH2 0x2864 PUSH1 0x60 DUP6 ADD DUP3 PUSH2 0x2806 JUMP JUMPDEST POP PUSH1 0x80 DUP3 ADD MLOAD PUSH2 0x2877 PUSH1 0x80 DUP6 ADD DUP3 PUSH2 0x2806 JUMP JUMPDEST POP PUSH1 0xA0 DUP3 ADD MLOAD PUSH2 0x288A PUSH1 0xA0 DUP6 ADD DUP3 PUSH2 0x27A4 JUMP JUMPDEST POP POP POP POP JUMP JUMPDEST PUSH1 0x0 PUSH2 0x289C DUP4 DUP4 PUSH2 0x2815 JUMP JUMPDEST PUSH1 0xC0 DUP4 ADD SWAP1 POP SWAP3 SWAP2 POP POP JUMP JUMPDEST PUSH1 0x0 PUSH1 0x20 DUP3 ADD SWAP1 POP SWAP2 SWAP1 POP JUMP JUMPDEST PUSH1 0x0 PUSH2 0x28C0 DUP3 PUSH2 0x276E JUMP JUMPDEST PUSH2 0x28CA DUP2 DUP6 PUSH2 0x2779 JUMP JUMPDEST SWAP4 POP PUSH2 0x28D5 DUP4 PUSH2 0x278A JUMP JUMPDEST DUP1 PUSH1 0x0 JUMPDEST DUP4 DUP2 LT ISZERO PUSH2 0x2906 JUMPI DUP2 MLOAD PUSH2 0x28ED DUP9 DUP3 PUSH2 0x2890 JUMP JUMPDEST SWAP8 POP PUSH2 0x28F8 DUP4 PUSH2 0x28A8 JUMP JUMPDEST SWAP3 POP POP PUSH1 0x1 DUP2 ADD SWAP1 POP PUSH2 0x28D9 JUMP JUMPDEST POP DUP6 SWAP4 POP POP POP POP SWAP3 SWAP2 POP POP JUMP JUMPDEST PUSH1 0x0 PUSH1 0x20 DUP3 ADD SWAP1 POP DUP2 DUP2 SUB PUSH1 0x0 DUP4 ADD MSTORE PUSH2 0x292D DUP2 DUP5 PUSH2 0x28B5 JUMP JUMPDEST SWAP1 POP SWAP3 SWAP2 POP POP JUMP JUMPDEST PUSH1 0x0 DUP2 SWAP1 POP SWAP2 SWAP1 POP JUMP JUMPDEST PUSH1 0x0 PUSH2 0x295A PUSH2 0x2955 PUSH2 0x2950 DUP5 PUSH2 0x27B3 JUMP JUMPDEST PUSH2 0x2935 JUMP JUMPDEST PUSH2 0x27B3 JUMP JUMPDEST SWAP1 POP SWAP2 SWAP1 POP JUMP JUMPDEST PUSH1 0x0 PUSH2 0x296C DUP3 PUSH2 0x293F JUMP JUMPDEST SWAP1 POP SWAP2 SWAP1 POP JUMP JUMPDEST PUSH1 0x0 PUSH2 0x297E DUP3 PUSH2 0x2961 JUMP JUMPDEST SWAP1 POP SWAP2 SWAP1 POP JUMP JUMPDEST PUSH2 0x298E DUP2 PUSH2 0x2973 JUMP JUMPDEST DUP3 MSTORE POP POP JUMP JUMPDEST PUSH1 0x0 PUSH1 0x20 DUP3 ADD SWAP1 POP PUSH2 0x29A9 PUSH1 0x0 DUP4 ADD DUP5 PUSH2 0x2985 JUMP JUMPDEST SWAP3 SWAP2 POP POP JUMP JUMPDEST PUSH1 0x0 DUP1 REVERT JUMPDEST PUSH2 0x29BD DUP2 PUSH2 0x279A JUMP JUMPDEST DUP2 EQ PUSH2 0x29C8 JUMPI PUSH1 0x0 DUP1 REVERT JUMPDEST POP JUMP JUMPDEST PUSH1 0x0 DUP2 CALLDATALOAD SWAP1 POP PUSH2 0x29DA DUP2 PUSH2 0x29B4 JUMP JUMPDEST SWAP3 SWAP2 POP POP JUMP JUMPDEST PUSH1 0x0 PUSH1 0x20 DUP3 DUP5 SUB SLT ISZERO PUSH2 0x29F6 JUMPI PUSH2 0x29F5 PUSH2 0x29AF JUMP JUMPDEST JUMPDEST PUSH1 0x0 PUSH2 0x2A04 DUP5 DUP3 DUP6 ADD PUSH2 0x29CB JUMP JUMPDEST SWAP2 POP POP SWAP3 SWAP2 POP POP JUMP JUMPDEST PUSH1 0xC0 DUP3 ADD PUSH1 0x0 DUP3 ADD MLOAD PUSH2 0x2A23 PUSH1 0x0 DUP6 ADD DUP3 PUSH2 0x27A4 JUMP JUMPDEST POP PUSH1 0x20 DUP3 ADD MLOAD PUSH2 0x2A36 PUSH1 0x20 DUP6 ADD DUP3 PUSH2 0x27E5 JUMP JUMPDEST POP PUSH1 0x40 DUP3 ADD MLOAD PUSH2 0x2A49 PUSH1 0x40 DUP6 ADD DUP3 PUSH2 0x27A4 JUMP JUMPDEST POP PUSH1 0x60 DUP3 ADD MLOAD PUSH2 0x2A5C PUSH1 0x60 DUP6 ADD DUP3 PUSH2 0x2806 JUMP JUMPDEST POP PUSH1 0x80 DUP3 ADD MLOAD PUSH2 0x2A6F PUSH1 0x80 DUP6 ADD DUP3 PUSH2 0x2806 JUMP JUMPDEST POP PUSH1 0xA0 DUP3 ADD MLOAD PUSH2 0x2A82 PUSH1 0xA0 DUP6 ADD DUP3 PUSH2 0x27A4 JUMP JUMPDEST POP POP POP POP JUMP JUMPDEST PUSH1 0x0 PUSH1 0xC0 DUP3 ADD SWAP1 POP PUSH2 0x2A9D PUSH1 0x0 DUP4 ADD DUP5 PUSH2 0x2A0D JUMP JUMPDEST SWAP3 SWAP2 POP POP JUMP JUMPDEST PUSH1 0x0 PUSH32 0xFFFFFFFF00000000000000000000000000000000000000000000000000000000 DUP3 AND SWAP1 POP SWAP2 SWAP1 POP JUMP JUMPDEST PUSH2 0x2AD8 DUP2 PUSH2 0x2AA3 JUMP JUMPDEST DUP3 MSTORE POP POP JUMP JUMPDEST PUSH1 0x0 PUSH1 0x20 DUP3 ADD SWAP1 POP PUSH2 0x2AF3 PUSH1 0x0 DUP4 ADD DUP5 PUSH2 0x2ACF JUMP JUMPDEST SWAP3 SWAP2 POP POP JUMP JUMPDEST PUSH2 0x2B02 DUP2 PUSH2 0x27D3 JUMP JUMPDEST DUP2 EQ PUSH2 0x2B0D JUMPI PUSH1 0x0 DUP1 REVERT JUMPDEST POP JUMP JUMPDEST PUSH1 0x0 DUP2 CALLDATALOAD SWAP1 POP PUSH2 0x2B1F DUP2 PUSH2 0x2AF9 JUMP JUMPDEST SWAP3 SWAP2 POP POP JUMP JUMPDEST PUSH1 0x0 DUP1 PUSH1 0x0 PUSH1 0x60 DUP5 DUP7 SUB SLT ISZERO PUSH2 0x2B3E JUMPI PUSH2 0x2B3D PUSH2 0x29AF JUMP JUMPDEST JUMPDEST PUSH1 0x0 PUSH2 0x2B4C DUP7 DUP3 DUP8 ADD PUSH2 0x2B10 JUMP JUMPDEST SWAP4 POP POP PUSH1 0x20 PUSH2 0x2B5D DUP7 DUP3 DUP8 ADD PUSH2 0x29CB JUMP JUMPDEST SWAP3 POP POP PUSH1 0x40 PUSH2 0x2B6E DUP7 DUP3 DUP8 ADD PUSH2 0x2B10 JUMP JUMPDEST SWAP2 POP POP SWAP3 POP SWAP3 POP SWAP3 JUMP JUMPDEST PUSH1 0x0 DUP2 SWAP1 POP SWAP2 SWAP1 POP JUMP JUMPDEST PUSH2 0x2B8B DUP2 PUSH2 0x2B78 JUMP JUMPDEST DUP3 MSTORE POP POP JUMP JUMPDEST PUSH2 0x2B9A DUP2 PUSH2 0x279A JUMP JUMPDEST DUP3 MSTORE POP POP JUMP JUMPDEST PUSH1 0x0 PUSH1 0x40 DUP3 ADD SWAP1 POP PUSH2 0x2BB5 PUSH1 0x0 DUP4 ADD DUP6 PUSH2 0x2B82 JUMP JUMPDEST PUSH2 0x2BC2 PUSH1 0x20 DUP4 ADD DUP5 PUSH2 0x2B91 JUMP JUMPDEST SWAP4 SWAP3 POP POP POP JUMP JUMPDEST PUSH1 0x0 DUP1 PUSH1 0x0 PUSH1 0x60 DUP5 DUP7 SUB SLT ISZERO PUSH2 0x2BE2 JUMPI PUSH2 0x2BE1 PUSH2 0x29AF JUMP JUMPDEST JUMPDEST PUSH1 0x0 PUSH2 0x2BF0 DUP7 DUP3 DUP8 ADD PUSH2 0x2B10 JUMP JUMPDEST SWAP4 POP POP PUSH1 0x20 PUSH2 0x2C01 DUP7 DUP3 DUP8 ADD PUSH2 0x29CB JUMP JUMPDEST SWAP3 POP POP PUSH1 0x40 PUSH2 0x2C12 DUP7 DUP3 DUP8 ADD PUSH2 0x29CB JUMP JUMPDEST SWAP2 POP POP SWAP3 POP SWAP3 POP SWAP3 JUMP JUMPDEST PUSH1 0x0 DUP1 PUSH1 0x40 DUP4 DUP6 SUB SLT ISZERO PUSH2 0x2C33 JUMPI PUSH2 0x2C32 PUSH2 0x29AF JUMP JUMPDEST JUMPDEST PUSH1 0x0 PUSH2 0x2C41 DUP6 DUP3 DUP7 ADD PUSH2 0x2B10 JUMP JUMPDEST SWAP3 POP POP PUSH1 0x20 PUSH2 0x2C52 DUP6 DUP3 DUP7 ADD PUSH2 0x29CB JUMP JUMPDEST SWAP2 POP POP SWAP3 POP SWAP3 SWAP1 POP JUMP JUMPDEST PUSH2 0x2C65 DUP2 PUSH2 0x27D3 JUMP JUMPDEST DUP3 MSTORE POP POP JUMP JUMPDEST PUSH32 0x4E487B7100000000000000000000000000000000000000000000000000000000 PUSH1 0x0 MSTORE PUSH1 0x21 PUSH1 0x4 MSTORE PUSH1 0x24 PUSH1 0x0 REVERT JUMPDEST PUSH1 0x5 DUP2 LT PUSH2 0x2CAB JUMPI PUSH2 0x2CAA PUSH2 0x2C6B JUMP JUMPDEST JUMPDEST POP JUMP JUMPDEST PUSH1 0x0 DUP2 SWAP1 POP PUSH2 0x2CBC DUP3 PUSH2 0x2C9A JUMP JUMPDEST SWAP2 SWAP1 POP JUMP JUMPDEST PUSH1 0x0 PUSH2 0x2CCC DUP3 PUSH2 0x2CAE JUMP JUMPDEST SWAP1 POP SWAP2 SWAP1 POP JUMP JUMPDEST PUSH2 0x2CDC DUP2 PUSH2 0x2CC1 JUMP JUMPDEST DUP3 MSTORE POP POP JUMP JUMPDEST PUSH1 0x0 PUSH1 0xC0 DUP3 ADD SWAP1 POP PUSH2 0x2CF7 PUSH1 0x0 DUP4 ADD DUP10 PUSH2 0x2B82 JUMP JUMPDEST PUSH2 0x2D04 PUSH1 0x20 DUP4 ADD DUP9 PUSH2 0x2C5C JUMP JUMPDEST PUSH2 0x2D11 PUSH1 0x40 DUP4 ADD DUP8 PUSH2 0x2C5C JUMP JUMPDEST PUSH2 0x2D1E PUSH1 0x60 DUP4 ADD DUP7 PUSH2 0x2B91 JUMP JUMPDEST PUSH2 0x2D2B PUSH1 0x80 DUP4 ADD DUP6 PUSH2 0x2B91 JUMP JUMPDEST PUSH2 0x2D38 PUSH1 0xA0 DUP4 ADD DUP5 PUSH2 0x2CD3 JUMP JUMPDEST SWAP8 SWAP7 POP POP POP POP POP POP POP JUMP JUMPDEST PUSH1 0x0 PUSH1 0xFF DUP3 AND SWAP1 POP SWAP2 SWAP1 POP JUMP JUMPDEST PUSH2 0x2D59 DUP2 PUSH2 0x2D43 JUMP JUMPDEST DUP3 MSTORE POP POP JUMP JUMPDEST PUSH1 0x0 PUSH1 0x20 DUP3 ADD SWAP1 POP PUSH2 0x2D74 PUSH1 0x0 DUP4 ADD DUP5 PUSH2 0x2D50 JUMP JUMPDEST SWAP3 SWAP2 POP POP JUMP JUMPDEST PUSH1 0x0 PUSH1 0x20 DUP3 ADD SWAP1 POP PUSH2 0x2D8F PUSH1 0x0 DUP4 ADD DUP5 PUSH2 0x2C5C JUMP JUMPDEST SWAP3 SWAP2 POP POP JUMP JUMPDEST PUSH1 0x0 PUSH1 0x20 DUP3 DUP5 SUB SLT ISZERO PUSH2 0x2DAB JUMPI PUSH2 0x2DAA PUSH2 0x29AF JUMP JUMPDEST JUMPDEST PUSH1 0x0 PUSH2 0x2DB9 DUP5 DUP3 DUP6 ADD PUSH2 0x2B10 JUMP JUMPDEST SWAP2 POP POP SWAP3 SWAP2 POP POP JUMP JUMPDEST PUSH32 0x4E487B7100000000000000000000000000000000000000000000000000000000 PUSH1 0x0 MSTORE PUSH1 0x11 PUSH1 0x4 MSTORE PUSH1 0x24 PUSH1 0x0 REVERT JUMPDEST PUSH1 0x0 PUSH2 0x2DFC DUP3 PUSH2 0x279A JUMP JUMPDEST SWAP2 POP PUSH2 0x2E07 DUP4 PUSH2 0x279A JUMP JUMPDEST SWAP3 POP DUP3 DUP3 LT ISZERO PUSH2 0x2E1A JUMPI PUSH2 0x2E19 PUSH2 0x2DC2 JUMP JUMPDEST JUMPDEST DUP3 DUP3 SUB SWAP1 POP SWAP3 SWAP2 POP POP JUMP JUMPDEST PUSH32 0x4E487B7100000000000000000000000000000000000000000000000000000000 PUSH1 0x0 MSTORE PUSH1 0x41 PUSH1 0x4 MSTORE PUSH1 0x24 PUSH1 0x0 REVERT JUMPDEST PUSH1 0x0 PUSH2 0x2E5F DUP3 PUSH2 0x279A JUMP JUMPDEST SWAP2 POP PUSH2 0x2E6A DUP4 PUSH2 0x279A JUMP JUMPDEST SWAP3 POP DUP3 PUSH32 0xFFFFFFFFFFFFFFFFFFFFFFFFFFFFFFFFFFFFFFFFFFFFFFFFFFFFFFFFFFFFFFFF SUB DUP3 GT ISZERO PUSH2 0x2E9F JUMPI PUSH2 0x2E9E PUSH2 0x2DC2 JUMP JUMPDEST JUMPDEST DUP3 DUP3 ADD SWAP1 POP SWAP3 SWAP2 POP POP JUMP JUMPDEST PUSH32 0x4E487B7100000000000000000000000000000000000000000000000000000000 PUSH1 0x0 MSTORE PUSH1 0x32 PUSH1 0x4 MSTORE PUSH1 0x24 PUSH1 0x0 REVERT JUMPDEST PUSH1 0x0 PUSH2 0x2EE4 DUP3 PUSH2 0x279A JUMP JUMPDEST SWAP2 POP PUSH32 0xFFFFFFFFFFFFFFFFFFFFFFFFFFFFFFFFFFFFFFFFFFFFFFFFFFFFFFFFFFFFFFFF DUP3 SUB PUSH2 0x2F16 JUMPI PUSH2 0x2F15 PUSH2 0x2DC2 JUMP JUMPDEST JUMPDEST PUSH1 0x1 DUP3 ADD SWAP1 POP SWAP2 SWAP1 POP JUMP JUMPDEST PUSH1 0x0 DUP3 DUP3 MSTORE PUSH1 0x20 DUP3 ADD SWAP1 POP SWAP3 SWAP2 POP POP JUMP JUMPDEST PUSH32 0x5265656E7472616E637947756172643A207265656E7472616E742063616C6C00 PUSH1 0x0 DUP3 ADD MSTORE POP JUMP JUMPDEST PUSH1 0x0 PUSH2 0x2F68 PUSH1 0x1F DUP4 PUSH2 0x2F21 JUMP JUMPDEST SWAP2 POP PUSH2 0x2F73 DUP3 PUSH2 0x2F32 JUMP JUMPDEST PUSH1 0x20 DUP3 ADD SWAP1 POP SWAP2 SWAP1 POP JUMP JUMPDEST PUSH1 0x0 PUSH1 0x20 DUP3 ADD SWAP1 POP DUP2 DUP2 SUB PUSH1 0x0 DUP4 ADD MSTORE PUSH2 0x2F97 DUP2 PUSH2 0x2F5B JUMP JUMPDEST SWAP1 POP SWAP2 SWAP1 POP JUMP JUMPDEST PUSH32 0x5072696365206D757374206265206174206C6561737420312077656900000000 PUSH1 0x0 DUP3 ADD MSTORE POP JUMP JUMPDEST PUSH1 0x0 PUSH2 0x2FD4 PUSH1 0x1C DUP4 PUSH2 0x2F21 JUMP JUMPDEST SWAP2 POP PUSH2 0x2FDF DUP3 PUSH2 0x2F9E JUMP JUMPDEST PUSH1 0x20 DUP3 ADD SWAP1 POP SWAP2 SWAP1 POP JUMP JUMPDEST PUSH1 0x0 PUSH1 0x20 DUP3 ADD SWAP1 POP DUP2 DUP2 SUB PUSH1 0x0 DUP4 ADD MSTORE PUSH2 0x3003 DUP2 PUSH2 0x2FC7 JUMP JUMPDEST SWAP1 POP SWAP2 SWAP1 POP JUMP JUMPDEST PUSH1 0x0 PUSH1 0x60 DUP3 ADD SWAP1 POP PUSH2 0x301F PUSH1 0x0 DUP4 ADD DUP7 PUSH2 0x2C5C JUMP JUMPDEST PUSH2 0x302C PUSH1 0x20 DUP4 ADD DUP6 PUSH2 0x2C5C JUMP JUMPDEST PUSH2 0x3039 PUSH1 0x40 DUP4 ADD DUP5 PUSH2 0x2B91 JUMP JUMPDEST SWAP5 SWAP4 POP POP POP POP JUMP JUMPDEST PUSH1 0x0 PUSH1 0x20 DUP3 ADD SWAP1 POP PUSH2 0x3056 PUSH1 0x0 DUP4 ADD DUP5 PUSH2 0x2B91 JUMP JUMPDEST SWAP3 SWAP2 POP POP JUMP JUMPDEST PUSH1 0x0 DUP2 MLOAD SWAP1 POP PUSH2 0x306B DUP2 PUSH2 0x2AF9 JUMP JUMPDEST SWAP3 SWAP2 POP POP JUMP JUMPDEST PUSH1 0x0 PUSH1 0x20 DUP3 DUP5 SUB SLT ISZERO PUSH2 0x3087 JUMPI PUSH2 0x3086 PUSH2 0x29AF JUMP JUMPDEST JUMPDEST PUSH1 0x0 PUSH2 0x3095 DUP5 DUP3 DUP6 ADD PUSH2 0x305C JUMP JUMPDEST SWAP2 POP POP SWAP3 SWAP2 POP POP JUMP JUMPDEST PUSH32 0x5468652073656C6C6572206973206E6F206C6F6E67657220746865206F776E65 PUSH1 0x0 DUP3 ADD MSTORE PUSH32 0x7200000000000000000000000000000000000000000000000000000000000000 PUSH1 0x20 DUP3 ADD MSTORE POP JUMP JUMPDEST PUSH1 0x0 PUSH2 0x30FA PUSH1 0x21 DUP4 PUSH2 0x2F21 JUMP JUMPDEST SWAP2 POP PUSH2 0x3105 DUP3 PUSH2 0x309E JUMP JUMPDEST PUSH1 0x40 DUP3 ADD SWAP1 POP SWAP2 SWAP1 POP JUMP JUMPDEST PUSH1 0x0 PUSH1 0x20 DUP3 ADD SWAP1 POP DUP2 DUP2 SUB PUSH1 0x0 DUP4 ADD MSTORE PUSH2 0x3129 DUP2 PUSH2 0x30ED JUMP JUMPDEST SWAP1 POP SWAP2 SWAP1 POP JUMP JUMPDEST PUSH32 0x4173736574206973206C697374696E6700000000000000000000000000000000 PUSH1 0x0 DUP3 ADD MSTORE POP JUMP JUMPDEST PUSH1 0x0 PUSH2 0x3166 PUSH1 0x10 DUP4 PUSH2 0x2F21 JUMP JUMPDEST SWAP2 POP PUSH2 0x3171 DUP3 PUSH2 0x3130 JUMP JUMPDEST PUSH1 0x20 DUP3 ADD SWAP1 POP SWAP2 SWAP1 POP JUMP JUMPDEST PUSH1 0x0 PUSH1 0x20 DUP3 ADD SWAP1 POP DUP2 DUP2 SUB PUSH1 0x0 DUP4 ADD MSTORE PUSH2 0x3195 DUP2 PUSH2 0x3159 JUMP JUMPDEST SWAP1 POP SWAP2 SWAP1 POP JUMP JUMPDEST PUSH32 0x5351460000000000000000000000000000000000000000000000000000000000 PUSH1 0x0 DUP3 ADD MSTORE POP JUMP JUMPDEST PUSH1 0x0 PUSH2 0x31D2 PUSH1 0x3 DUP4 PUSH2 0x2F21 JUMP JUMPDEST SWAP2 POP PUSH2 0x31DD DUP3 PUSH2 0x319C JUMP JUMPDEST PUSH1 0x20 DUP3 ADD SWAP1 POP SWAP2 SWAP1 POP JUMP JUMPDEST PUSH1 0x0 PUSH1 0xA0 DUP3 ADD SWAP1 POP PUSH2 0x31FD PUSH1 0x0 DUP4 ADD DUP8 PUSH2 0x2C5C JUMP JUMPDEST PUSH2 0x320A PUSH1 0x20 DUP4 ADD DUP7 PUSH2 0x2B82 JUMP JUMPDEST PUSH2 0x3217 PUSH1 0x40 DUP4 ADD DUP6 PUSH2 0x2B91 JUMP JUMPDEST DUP2 DUP2 SUB PUSH1 0x60 DUP4 ADD MSTORE PUSH2 0x3228 DUP2 PUSH2 0x31C5 JUMP JUMPDEST SWAP1 POP PUSH2 0x3237 PUSH1 0x80 DUP4 ADD DUP5 PUSH2 0x2B91 JUMP JUMPDEST SWAP6 SWAP5 POP POP POP POP POP JUMP JUMPDEST PUSH32 0x4F776E61626C653A2063616C6C6572206973206E6F7420746865206F776E6572 PUSH1 0x0 DUP3 ADD MSTORE POP JUMP JUMPDEST PUSH1 0x0 PUSH2 0x3276 PUSH1 0x20 DUP4 PUSH2 0x2F21 JUMP JUMPDEST SWAP2 POP PUSH2 0x3281 DUP3 PUSH2 0x3240 JUMP JUMPDEST PUSH1 0x20 DUP3 ADD SWAP1 POP SWAP2 SWAP1 POP JUMP JUMPDEST PUSH1 0x0 PUSH1 0x20 DUP3 ADD SWAP1 POP DUP2 DUP2 SUB PUSH1 0x0 DUP4 ADD MSTORE PUSH2 0x32A5 DUP2 PUSH2 0x3269 JUMP JUMPDEST SWAP1 POP SWAP2 SWAP1 POP JUMP JUMPDEST PUSH32 0x506C65617365207375626D6974207468652061736B696E672070726963652069 PUSH1 0x0 DUP3 ADD MSTORE PUSH32 0x6E206F7264657220746F20636F6D706C65746520746865207075726368617365 PUSH1 0x20 DUP3 ADD MSTORE POP JUMP JUMPDEST PUSH1 0x0 PUSH2 0x3308 PUSH1 0x40 DUP4 PUSH2 0x2F21 JUMP JUMPDEST SWAP2 POP PUSH2 0x3313 DUP3 PUSH2 0x32AC JUMP JUMPDEST PUSH1 0x40 DUP3 ADD SWAP1 POP SWAP2 SWAP1 POP JUMP JUMPDEST PUSH1 0x0 PUSH1 0x20 DUP3 ADD SWAP1 POP DUP2 DUP2 SUB PUSH1 0x0 DUP4 ADD MSTORE PUSH2 0x3337 DUP2 PUSH2 0x32FB JUMP JUMPDEST SWAP1 POP SWAP2 SWAP1 POP JUMP JUMPDEST PUSH32 0x4173736574206E6F74207075626C697368656400000000000000000000000000 PUSH1 0x0 DUP3 ADD MSTORE POP JUMP JUMPDEST PUSH1 0x0 PUSH2 0x3374 PUSH1 0x13 DUP4 PUSH2 0x2F21 JUMP JUMPDEST SWAP2 POP PUSH2 0x337F DUP3 PUSH2 0x333E JUMP JUMPDEST PUSH1 0x20 DUP3 ADD SWAP1 POP SWAP2 SWAP1 POP JUMP JUMPDEST PUSH1 0x0 PUSH1 0x20 DUP3 ADD SWAP1 POP DUP2 DUP2 SUB PUSH1 0x0 DUP4 ADD MSTORE PUSH2 0x33A3 DUP2 PUSH2 0x3367 JUMP JUMPDEST SWAP1 POP SWAP2 SWAP1 POP JUMP JUMPDEST PUSH32 0x4173736574206973206E6F74206C69737420746F206275790000000000000000 PUSH1 0x0 DUP3 ADD MSTORE POP JUMP JUMPDEST PUSH1 0x0 PUSH2 0x33E0 PUSH1 0x18 DUP4 PUSH2 0x2F21 JUMP JUMPDEST SWAP2 POP PUSH2 0x33EB DUP3 PUSH2 0x33AA JUMP JUMPDEST PUSH1 0x20 DUP3 ADD SWAP1 POP SWAP2 SWAP1 POP JUMP JUMPDEST PUSH1 0x0 PUSH1 0x20 DUP3 ADD SWAP1 POP DUP2 DUP2 SUB PUSH1 0x0 DUP4 ADD MSTORE PUSH2 0x340F DUP2 PUSH2 0x33D3 JUMP JUMPDEST SWAP1 POP SWAP2 SWAP1 POP JUMP JUMPDEST PUSH32 0x496E76616C696420616464726573730000000000000000000000000000000000 PUSH1 0x0 DUP3 ADD MSTORE POP JUMP JUMPDEST PUSH1 0x0 PUSH2 0x344C PUSH1 0xF DUP4 PUSH2 0x2F21 JUMP JUMPDEST SWAP2 POP PUSH2 0x3457 DUP3 PUSH2 0x3416 JUMP JUMPDEST PUSH1 0x20 DUP3 ADD SWAP1 POP SWAP2 SWAP1 POP JUMP JUMPDEST PUSH1 0x0 PUSH1 0x20 DUP3 ADD SWAP1 POP DUP2 DUP2 SUB PUSH1 0x0 DUP4 ADD MSTORE PUSH2 0x347B DUP2 PUSH2 0x343F JUMP JUMPDEST SWAP1 POP SWAP2 SWAP1 POP JUMP JUMPDEST PUSH32 0x7072696365206E65656420657175616C206C697374696E672070726963650000 PUSH1 0x0 DUP3 ADD MSTORE POP JUMP JUMPDEST PUSH1 0x0 PUSH2 0x34B8 PUSH1 0x1E DUP4 PUSH2 0x2F21 JUMP JUMPDEST SWAP2 POP PUSH2 0x34C3 DUP3 PUSH2 0x3482 JUMP JUMPDEST PUSH1 0x20 DUP3 ADD SWAP1 POP SWAP2 SWAP1 POP JUMP JUMPDEST PUSH1 0x0 PUSH1 0x20 DUP3 ADD SWAP1 POP DUP2 DUP2 SUB PUSH1 0x0 DUP4 ADD MSTORE PUSH2 0x34E7 DUP2 PUSH2 0x34AB JUMP JUMPDEST SWAP1 POP SWAP2 SWAP1 POP JUMP JUMPDEST PUSH1 0x0 PUSH2 0x34F9 DUP3 PUSH2 0x279A JUMP JUMPDEST SWAP2 POP PUSH2 0x3504 DUP4 PUSH2 0x279A JUMP JUMPDEST SWAP3 POP DUP2 PUSH32 0xFFFFFFFFFFFFFFFFFFFFFFFFFFFFFFFFFFFFFFFFFFFFFFFFFFFFFFFFFFFFFFFF DIV DUP4 GT DUP3 ISZERO ISZERO AND ISZERO PUSH2 0x353D JUMPI PUSH2 0x353C PUSH2 0x2DC2 JUMP JUMPDEST JUMPDEST DUP3 DUP3 MUL SWAP1 POP SWAP3 SWAP2 POP POP JUMP JUMPDEST PUSH32 0x4E487B7100000000000000000000000000000000000000000000000000000000 PUSH1 0x0 MSTORE PUSH1 0x12 PUSH1 0x4 MSTORE PUSH1 0x24 PUSH1 0x0 REVERT JUMPDEST PUSH1 0x0 PUSH2 0x3582 DUP3 PUSH2 0x279A JUMP JUMPDEST SWAP2 POP PUSH2 0x358D DUP4 PUSH2 0x279A JUMP JUMPDEST SWAP3 POP DUP3 PUSH2 0x359D JUMPI PUSH2 0x359C PUSH2 0x3548 JUMP JUMPDEST JUMPDEST DUP3 DUP3 DIV SWAP1 POP SWAP3 SWAP2 POP POP JUMP JUMPDEST PUSH1 0x0 DUP2 ISZERO ISZERO SWAP1 POP SWAP2 SWAP1 POP JUMP JUMPDEST PUSH2 0x35BD DUP2 PUSH2 0x35A8 JUMP JUMPDEST DUP2 EQ PUSH2 0x35C8 JUMPI PUSH1 0x0 DUP1 REVERT JUMPDEST POP JUMP JUMPDEST PUSH1 0x0 DUP2 MLOAD SWAP1 POP PUSH2 0x35DA DUP2 PUSH2 0x35B4 JUMP JUMPDEST SWAP3 SWAP2 POP POP JUMP JUMPDEST PUSH1 0x0 PUSH1 0x20 DUP3 DUP5 SUB SLT ISZERO PUSH2 0x35F6 JUMPI PUSH2 0x35F5 PUSH2 0x29AF JUMP JUMPDEST JUMPDEST PUSH1 0x0 PUSH2 0x3604 DUP5 DUP3 DUP6 ADD PUSH2 0x35CB JUMP JUMPDEST SWAP2 POP POP SWAP3 SWAP2 POP POP JUMP JUMPDEST PUSH32 0x414E544100000000000000000000000000000000000000000000000000000000 PUSH1 0x0 DUP3 ADD MSTORE POP JUMP JUMPDEST PUSH1 0x0 PUSH2 0x3643 PUSH1 0x4 DUP4 PUSH2 0x2F21 JUMP JUMPDEST SWAP2 POP PUSH2 0x364E DUP3 PUSH2 0x360D JUMP JUMPDEST PUSH1 0x20 DUP3 ADD SWAP1 POP SWAP2 SWAP1 POP JUMP JUMPDEST PUSH1 0x0 PUSH1 0xE0 DUP3 ADD SWAP1 POP PUSH2 0x366E PUSH1 0x0 DUP4 ADD DUP10 PUSH2 0x2B82 JUMP JUMPDEST PUSH2 0x367B PUSH1 0x20 DUP4 ADD DUP9 PUSH2 0x2C5C JUMP JUMPDEST PUSH2 0x3688 PUSH1 0x40 DUP4 ADD DUP8 PUSH2 0x2B91 JUMP JUMPDEST PUSH2 0x3695 PUSH1 0x60 DUP4 ADD DUP7 PUSH2 0x2D50 JUMP JUMPDEST PUSH2 0x36A2 PUSH1 0x80 DUP4 ADD DUP6 PUSH2 0x2B91 JUMP JUMPDEST DUP2 DUP2 SUB PUSH1 0xA0 DUP4 ADD MSTORE PUSH2 0x36B3 DUP2 PUSH2 0x3636 JUMP JUMPDEST SWAP1 POP PUSH2 0x36C2 PUSH1 0xC0 DUP4 ADD DUP5 PUSH2 0x2B91 JUMP JUMPDEST SWAP8 SWAP7 POP POP POP POP POP POP POP JUMP JUMPDEST PUSH32 0x4F776E61626C653A206E6577206F776E657220697320746865207A65726F2061 PUSH1 0x0 DUP3 ADD MSTORE PUSH32 0x6464726573730000000000000000000000000000000000000000000000000000 PUSH1 0x20 DUP3 ADD MSTORE POP JUMP JUMPDEST PUSH1 0x0 PUSH2 0x3729 PUSH1 0x26 DUP4 PUSH2 0x2F21 JUMP JUMPDEST SWAP2 POP PUSH2 0x3734 DUP3 PUSH2 0x36CD JUMP JUMPDEST PUSH1 0x40 DUP3 ADD SWAP1 POP SWAP2 SWAP1 POP JUMP JUMPDEST PUSH1 0x0 PUSH1 0x20 DUP3 ADD SWAP1 POP DUP2 DUP2 SUB PUSH1 0x0 DUP4 ADD MSTORE PUSH2 0x3758 DUP2 PUSH2 0x371C JUMP JUMPDEST SWAP1 POP SWAP2 SWAP1 POP JUMP JUMPDEST PUSH32 0x546865204E465420416464726573732073686F756C64206265206120636F6E74 PUSH1 0x0 DUP3 ADD MSTORE PUSH32 0x7261637400000000000000000000000000000000000000000000000000000000 PUSH1 0x20 DUP3 ADD MSTORE POP JUMP JUMPDEST PUSH1 0x0 PUSH2 0x37BB PUSH1 0x24 DUP4 PUSH2 0x2F21 JUMP JUMPDEST SWAP2 POP PUSH2 0x37C6 DUP3 PUSH2 0x375F JUMP JUMPDEST PUSH1 0x40 DUP3 ADD SWAP1 POP SWAP2 SWAP1 POP JUMP JUMPDEST PUSH1 0x0 PUSH1 0x20 DUP3 ADD SWAP1 POP DUP2 DUP2 SUB PUSH1 0x0 DUP4 ADD MSTORE PUSH2 0x37EA DUP2 PUSH2 0x37AE JUMP JUMPDEST SWAP1 POP SWAP2 SWAP1 POP JUMP JUMPDEST PUSH32 0x546865204E465420636F6E74726163742068617320616E20696E76616C696420 PUSH1 0x0 DUP3 ADD MSTORE PUSH32 0x45524337323120696D706C656D656E746174696F6E0000000000000000000000 PUSH1 0x20 DUP3 ADD MSTORE POP JUMP JUMPDEST PUSH1 0x0 PUSH2 0x384D PUSH1 0x35 DUP4 PUSH2 0x2F21 JUMP JUMPDEST SWAP2 POP PUSH2 0x3858 DUP3 PUSH2 0x37F1 JUMP JUMPDEST PUSH1 0x40 DUP3 ADD SWAP1 POP SWAP2 SWAP1 POP JUMP JUMPDEST PUSH1 0x0 PUSH1 0x20 DUP3 ADD SWAP1 POP DUP2 DUP2 SUB PUSH1 0x0 DUP4 ADD MSTORE PUSH2 0x387C DUP2 PUSH2 0x3840 JUMP JUMPDEST SWAP1 POP SWAP2 SWAP1 POP JUMP JUMPDEST PUSH1 0x0 DUP2 SWAP1 POP SWAP2 SWAP1 POP JUMP JUMPDEST PUSH2 0x389E PUSH2 0x3899 DUP3 PUSH2 0x279A JUMP JUMPDEST PUSH2 0x3883 JUMP JUMPDEST DUP3 MSTORE POP POP JUMP JUMPDEST PUSH1 0x0 DUP2 PUSH1 0x60 SHL SWAP1 POP SWAP2 SWAP1 POP JUMP JUMPDEST PUSH1 0x0 PUSH2 0x38BC DUP3 PUSH2 0x38A4 JUMP JUMPDEST SWAP1 POP SWAP2 SWAP1 POP JUMP JUMPDEST PUSH1 0x0 PUSH2 0x38CE DUP3 PUSH2 0x38B1 JUMP JUMPDEST SWAP1 POP SWAP2 SWAP1 POP JUMP JUMPDEST PUSH2 0x38E6 PUSH2 0x38E1 DUP3 PUSH2 0x27D3 JUMP JUMPDEST PUSH2 0x38C3 JUMP JUMPDEST DUP3 MSTORE POP POP JUMP JUMPDEST PUSH1 0x0 PUSH2 0x38F8 DUP3 DUP9 PUSH2 0x388D JUMP JUMPDEST PUSH1 0x20 DUP3 ADD SWAP2 POP PUSH2 0x3908 DUP3 DUP8 PUSH2 0x38D5 JUMP JUMPDEST PUSH1 0x14 DUP3 ADD SWAP2 POP PUSH2 0x3918 DUP3 DUP7 PUSH2 0x388D JUMP JUMPDEST PUSH1 0x20 DUP3 ADD SWAP2 POP PUSH2 0x3928 DUP3 DUP6 PUSH2 0x38D5 JUMP JUMPDEST PUSH1 0x14 DUP3 ADD SWAP2 POP PUSH2 0x3938 DUP3 DUP5 PUSH2 0x388D JUMP JUMPDEST PUSH1 0x20 DUP3 ADD SWAP2 POP DUP2 SWAP1 POP SWAP7 SWAP6 POP POP POP POP POP POP JUMP INVALID LOG2 PUSH5 0x6970667358 0x22 SLT KECCAK256 0x2B SIGNEXTEND CALLER 0x27 0xCC STATICCALL DIFFICULTY PUSH11 0xD0FE32C455874DF4531D53 SWAP4 0xE0 0xC2 PUSH24 0x43F9E346B033B584F864736F6C634300080D003300000000 "
				},
				"gasEstimates": {
					"creation": {
						"codeDepositCost": "2944200",
						"executionCost": "infinite",
						"totalCost": "infinite"
					},
					"external": {
						"ERC721_Interface()": "364",
						"antaFeePercent()": "2543",
						"bnbFeePercent()": "2566",
						"buyItemBySQF(address,uint256,uint256)": "infinite",
						"createMarketItem(address,uint256,uint256)": "infinite",
						"createMarketSale(address,uint256)": "infinite",
						"fetchMarketItem(uint256)": "infinite",
						"fetchMarketItems()": "infinite",
						"fetchMyNFTs()": "infinite",
						"getMarketItem(uint256)": "infinite",
						"itemOffers(address,uint256,address)": "infinite",
						"items(address,uint256)": "infinite",
						"owner()": "2589",
						"renounceOwnership()": "30397",
						"sellItem(address,uint256,uint256)": "infinite",
						"setSQFToken(address)": "27051",
						"sqfToken()": "infinite",
						"transferOwnership(address)": "30830"
					},
					"internal": {
						"_createItem(address,uint256,address,uint256,uint256)": "infinite",
						"_requireERC721(address)": "infinite",
						"isContract(address)": "2653"
					}
				},
				"methodIdentifiers": {
					"ERC721_Interface()": "2b4c32be",
					"antaFeePercent()": "b7a60c7e",
					"bnbFeePercent()": "85a8b36c",
					"buyItemBySQF(address,uint256,uint256)": "f01b52dc",
					"createMarketItem(address,uint256,uint256)": "58eb2df5",
					"createMarketSale(address,uint256)": "c23b139e",
					"fetchMarketItem(uint256)": "2a45b250",
					"fetchMarketItems()": "0f08efe0",
					"fetchMyNFTs()": "202e3740",
					"getMarketItem(uint256)": "c7be7a49",
					"itemOffers(address,uint256,address)": "49739678",
					"items(address,uint256)": "5c80a435",
					"owner()": "8da5cb5b",
					"renounceOwnership()": "715018a6",
					"sellItem(address,uint256,uint256)": "68915327",
					"setSQFToken(address)": "92bf77dd",
					"sqfToken()": "15b81dc3",
					"transferOwnership(address)": "f2fde38b"
				}
			},
			"storageLayout": {
				"storage": [
					{
						"astId": 409,
						"contract": "contracts/Marketplace2/Marketplace.sol:NFTMarket",
						"label": "_status",
						"offset": 0,
						"slot": "0",
						"type": "t_uint256"
					},
					{
						"astId": 477,
						"contract": "contracts/Marketplace2/Marketplace.sol:NFTMarket",
						"label": "items",
						"offset": 0,
						"slot": "1",
						"type": "t_mapping(t_address,t_mapping(t_uint256,t_struct(Item)459_storage))"
					},
					{
						"astId": 486,
						"contract": "contracts/Marketplace2/Marketplace.sol:NFTMarket",
						"label": "itemOffers",
						"offset": 0,
						"slot": "2",
						"type": "t_mapping(t_address,t_mapping(t_uint256,t_mapping(t_address,t_struct(ItemOffer)464_storage)))"
					},
					{
						"astId": 489,
						"contract": "contracts/Marketplace2/Marketplace.sol:NFTMarket",
						"label": "sqfToken",
						"offset": 0,
						"slot": "3",
						"type": "t_contract(IERC20)201"
					},
					{
						"astId": 491,
						"contract": "contracts/Marketplace2/Marketplace.sol:NFTMarket",
						"label": "bnbFeePercent",
						"offset": 20,
						"slot": "3",
						"type": "t_uint8"
					},
					{
						"astId": 493,
						"contract": "contracts/Marketplace2/Marketplace.sol:NFTMarket",
						"label": "antaFeePercent",
						"offset": 21,
						"slot": "3",
						"type": "t_uint8"
					},
					{
						"astId": 27,
						"contract": "contracts/Marketplace2/Marketplace.sol:NFTMarket",
						"label": "_owner",
						"offset": 0,
						"slot": "4",
						"type": "t_address"
					},
					{
						"astId": 563,
						"contract": "contracts/Marketplace2/Marketplace.sol:NFTMarket",
						"label": "_itemIds",
						"offset": 0,
						"slot": "5",
						"type": "t_struct(Counter)331_storage"
					},
					{
						"astId": 566,
						"contract": "contracts/Marketplace2/Marketplace.sol:NFTMarket",
						"label": "_itemsSold",
						"offset": 0,
						"slot": "6",
						"type": "t_struct(Counter)331_storage"
					},
					{
						"astId": 584,
						"contract": "contracts/Marketplace2/Marketplace.sol:NFTMarket",
						"label": "idToMarketItem",
						"offset": 0,
						"slot": "7",
						"type": "t_mapping(t_uint256,t_struct(MarketItem)579_storage)"
					}
				],
				"types": {
					"t_address": {
						"encoding": "inplace",
						"label": "address",
						"numberOfBytes": "20"
					},
					"t_address_payable": {
						"encoding": "inplace",
						"label": "address payable",
						"numberOfBytes": "20"
					},
					"t_bytes32": {
						"encoding": "inplace",
						"label": "bytes32",
						"numberOfBytes": "32"
					},
					"t_contract(IERC20)201": {
						"encoding": "inplace",
						"label": "contract IERC20",
						"numberOfBytes": "20"
					},
					"t_enum(ItemStatus)445": {
						"encoding": "inplace",
						"label": "enum MarketplaceStorage.ItemStatus",
						"numberOfBytes": "1"
					},
					"t_mapping(t_address,t_mapping(t_uint256,t_mapping(t_address,t_struct(ItemOffer)464_storage)))": {
						"encoding": "mapping",
						"key": "t_address",
						"label": "mapping(address => mapping(uint256 => mapping(address => struct MarketplaceStorage.ItemOffer)))",
						"numberOfBytes": "32",
						"value": "t_mapping(t_uint256,t_mapping(t_address,t_struct(ItemOffer)464_storage))"
					},
					"t_mapping(t_address,t_mapping(t_uint256,t_struct(Item)459_storage))": {
						"encoding": "mapping",
						"key": "t_address",
						"label": "mapping(address => mapping(uint256 => struct MarketplaceStorage.Item))",
						"numberOfBytes": "32",
						"value": "t_mapping(t_uint256,t_struct(Item)459_storage)"
					},
					"t_mapping(t_address,t_struct(ItemOffer)464_storage)": {
						"encoding": "mapping",
						"key": "t_address",
						"label": "mapping(address => struct MarketplaceStorage.ItemOffer)",
						"numberOfBytes": "32",
						"value": "t_struct(ItemOffer)464_storage"
					},
					"t_mapping(t_uint256,t_mapping(t_address,t_struct(ItemOffer)464_storage))": {
						"encoding": "mapping",
						"key": "t_uint256",
						"label": "mapping(uint256 => mapping(address => struct MarketplaceStorage.ItemOffer))",
						"numberOfBytes": "32",
						"value": "t_mapping(t_address,t_struct(ItemOffer)464_storage)"
					},
					"t_mapping(t_uint256,t_struct(Item)459_storage)": {
						"encoding": "mapping",
						"key": "t_uint256",
						"label": "mapping(uint256 => struct MarketplaceStorage.Item)",
						"numberOfBytes": "32",
						"value": "t_struct(Item)459_storage"
					},
					"t_mapping(t_uint256,t_struct(MarketItem)579_storage)": {
						"encoding": "mapping",
						"key": "t_uint256",
						"label": "mapping(uint256 => struct NFTMarket.MarketItem)",
						"numberOfBytes": "32",
						"value": "t_struct(MarketItem)579_storage"
					},
					"t_struct(Counter)331_storage": {
						"encoding": "inplace",
						"label": "struct Counters.Counter",
						"members": [
							{
								"astId": 330,
								"contract": "contracts/Marketplace2/Marketplace.sol:NFTMarket",
								"label": "_value",
								"offset": 0,
								"slot": "0",
								"type": "t_uint256"
							}
						],
						"numberOfBytes": "32"
					},
					"t_struct(Item)459_storage": {
						"encoding": "inplace",
						"label": "struct MarketplaceStorage.Item",
						"members": [
							{
								"astId": 447,
								"contract": "contracts/Marketplace2/Marketplace.sol:NFTMarket",
								"label": "id",
								"offset": 0,
								"slot": "0",
								"type": "t_bytes32"
							},
							{
								"astId": 449,
								"contract": "contracts/Marketplace2/Marketplace.sol:NFTMarket",
								"label": "seller",
								"offset": 0,
								"slot": "1",
								"type": "t_address"
							},
							{
								"astId": 451,
								"contract": "contracts/Marketplace2/Marketplace.sol:NFTMarket",
								"label": "nftAddress",
								"offset": 0,
								"slot": "2",
								"type": "t_address"
							},
							{
								"astId": 453,
								"contract": "contracts/Marketplace2/Marketplace.sol:NFTMarket",
								"label": "price",
								"offset": 0,
								"slot": "3",
								"type": "t_uint256"
							},
							{
								"astId": 455,
								"contract": "contracts/Marketplace2/Marketplace.sol:NFTMarket",
								"label": "priceAnta",
								"offset": 0,
								"slot": "4",
								"type": "t_uint256"
							},
							{
								"astId": 458,
								"contract": "contracts/Marketplace2/Marketplace.sol:NFTMarket",
								"label": "status",
								"offset": 0,
								"slot": "5",
								"type": "t_enum(ItemStatus)445"
							}
						],
						"numberOfBytes": "192"
					},
					"t_struct(ItemOffer)464_storage": {
						"encoding": "inplace",
						"label": "struct MarketplaceStorage.ItemOffer",
						"members": [
							{
								"astId": 461,
								"contract": "contracts/Marketplace2/Marketplace.sol:NFTMarket",
								"label": "id",
								"offset": 0,
								"slot": "0",
								"type": "t_bytes32"
							},
							{
								"astId": 463,
								"contract": "contracts/Marketplace2/Marketplace.sol:NFTMarket",
								"label": "offerPrice",
								"offset": 0,
								"slot": "1",
								"type": "t_uint256"
							}
						],
						"numberOfBytes": "64"
					},
					"t_struct(MarketItem)579_storage": {
						"encoding": "inplace",
						"label": "struct NFTMarket.MarketItem",
						"members": [
							{
								"astId": 568,
								"contract": "contracts/Marketplace2/Marketplace.sol:NFTMarket",
								"label": "itemId",
								"offset": 0,
								"slot": "0",
								"type": "t_uint256"
							},
							{
								"astId": 570,
								"contract": "contracts/Marketplace2/Marketplace.sol:NFTMarket",
								"label": "nftContract",
								"offset": 0,
								"slot": "1",
								"type": "t_address"
							},
							{
								"astId": 572,
								"contract": "contracts/Marketplace2/Marketplace.sol:NFTMarket",
								"label": "tokenId",
								"offset": 0,
								"slot": "2",
								"type": "t_uint256"
							},
							{
								"astId": 574,
								"contract": "contracts/Marketplace2/Marketplace.sol:NFTMarket",
								"label": "seller",
								"offset": 0,
								"slot": "3",
								"type": "t_address_payable"
							},
							{
								"astId": 576,
								"contract": "contracts/Marketplace2/Marketplace.sol:NFTMarket",
								"label": "owner",
								"offset": 0,
								"slot": "4",
								"type": "t_address_payable"
							},
							{
								"astId": 578,
								"contract": "contracts/Marketplace2/Marketplace.sol:NFTMarket",
								"label": "price",
								"offset": 0,
								"slot": "5",
								"type": "t_uint256"
							}
						],
						"numberOfBytes": "192"
					},
					"t_uint256": {
						"encoding": "inplace",
						"label": "uint256",
						"numberOfBytes": "32"
					},
					"t_uint8": {
						"encoding": "inplace",
						"label": "uint8",
						"numberOfBytes": "1"
					}
				}
			},
			"userdoc": {
				"kind": "user",
				"methods": {},
				"version": 1
			}
		}
	}
}