{
	"contracts/Marketplace2/Marketplace.sol": {
		"NFTMarket": {
			"abi": [
				{
					"anonymous": false,
					"inputs": [
						{
							"indexed": false,
							"internalType": "bytes32",
							"name": "id",
							"type": "bytes32"
						},
						{
							"indexed": true,
							"internalType": "uint256",
							"name": "assetId",
							"type": "uint256"
						},
						{
							"indexed": true,
							"internalType": "address",
							"name": "seller",
							"type": "address"
						},
						{
							"indexed": false,
							"internalType": "address",
							"name": "nftAddress",
							"type": "address"
						},
						{
							"indexed": false,
							"internalType": "uint256",
							"name": "price",
							"type": "uint256"
						},
						{
							"indexed": false,
							"internalType": "uint8",
							"name": "feePercent",
							"type": "uint8"
						},
						{
							"indexed": false,
							"internalType": "uint256",
							"name": "fee",
							"type": "uint256"
						},
						{
							"indexed": true,
							"internalType": "address",
							"name": "buyer",
							"type": "address"
						},
						{
							"indexed": false,
							"internalType": "string",
							"name": "currency",
							"type": "string"
						},
						{
							"indexed": false,
							"internalType": "uint256",
							"name": "createdAt",
							"type": "uint256"
						}
					],
					"name": "BuyItemSuccessful",
					"type": "event"
				},
				{
					"anonymous": false,
					"inputs": [
						{
							"indexed": true,
							"internalType": "address",
							"name": "receiver",
							"type": "address"
						},
						{
							"indexed": false,
							"internalType": "uint256",
							"name": "value",
							"type": "uint256"
						}
					],
					"name": "Claim",
					"type": "event"
				},
				{
					"anonymous": false,
					"inputs": [
						{
							"indexed": false,
							"internalType": "address",
							"name": "nftAddress",
							"type": "address"
						},
						{
							"indexed": false,
							"internalType": "bytes32",
							"name": "id",
							"type": "bytes32"
						},
						{
							"indexed": true,
							"internalType": "uint256",
							"name": "assetId",
							"type": "uint256"
						},
						{
							"indexed": true,
							"internalType": "address",
							"name": "delistBy",
							"type": "address"
						},
						{
							"indexed": false,
							"internalType": "uint256",
							"name": "createdAt",
							"type": "uint256"
						}
					],
					"name": "DelistItemSuccessful",
					"type": "event"
				},
				{
					"anonymous": false,
					"inputs": [
						{
							"indexed": true,
							"internalType": "address",
							"name": "previousOwner",
							"type": "address"
						},
						{
							"indexed": true,
							"internalType": "address",
							"name": "newOwner",
							"type": "address"
						}
					],
					"name": "OwnershipTransferred",
					"type": "event"
				},
				{
					"anonymous": false,
					"inputs": [
						{
							"indexed": false,
							"internalType": "address",
							"name": "nftAddress",
							"type": "address"
						},
						{
							"indexed": false,
							"internalType": "bytes32",
							"name": "id",
							"type": "bytes32"
						},
						{
							"indexed": true,
							"internalType": "uint256",
							"name": "assetId",
							"type": "uint256"
						},
						{
							"indexed": false,
							"internalType": "uint256",
							"name": "price",
							"type": "uint256"
						},
						{
							"indexed": true,
							"internalType": "address",
							"name": "seller",
							"type": "address"
						},
						{
							"indexed": false,
							"internalType": "string",
							"name": "currency",
							"type": "string"
						},
						{
							"indexed": false,
							"internalType": "uint256",
							"name": "createdAt",
							"type": "uint256"
						}
					],
					"name": "SellItemSuccessful",
					"type": "event"
				},
				{
					"inputs": [],
					"name": "ERC721_Interface",
					"outputs": [
						{
							"internalType": "bytes4",
							"name": "",
							"type": "bytes4"
						}
					],
					"stateMutability": "view",
					"type": "function"
				},
				{
					"inputs": [],
					"name": "antaFeePercent",
					"outputs": [
						{
							"internalType": "uint8",
							"name": "",
							"type": "uint8"
						}
					],
					"stateMutability": "view",
					"type": "function"
				},
				{
					"inputs": [],
					"name": "bnbFeePercent",
					"outputs": [
						{
							"internalType": "uint8",
							"name": "",
							"type": "uint8"
						}
					],
					"stateMutability": "view",
					"type": "function"
				},
				{
					"inputs": [
						{
							"internalType": "address",
							"name": "nftAddress",
							"type": "address"
						},
						{
							"internalType": "uint256",
							"name": "assetId",
							"type": "uint256"
						},
						{
							"internalType": "uint256",
							"name": "priceAnta",
							"type": "uint256"
						}
					],
					"name": "buyItemBySQF",
					"outputs": [],
					"stateMutability": "nonpayable",
					"type": "function"
				},
				{
					"inputs": [
						{
							"internalType": "address",
							"name": "nftContract",
							"type": "address"
						},
						{
							"internalType": "uint256",
							"name": "itemId",
							"type": "uint256"
						}
					],
					"name": "createMarketSale",
					"outputs": [],
					"stateMutability": "payable",
					"type": "function"
				},
				{
					"inputs": [
						{
							"internalType": "uint256",
							"name": "itemId",
							"type": "uint256"
						}
					],
					"name": "fetchMarketItem",
					"outputs": [
						{
							"components": [
								{
									"internalType": "uint256",
									"name": "itemId",
									"type": "uint256"
								},
								{
									"internalType": "address",
									"name": "nftContract",
									"type": "address"
								},
								{
									"internalType": "uint256",
									"name": "tokenId",
									"type": "uint256"
								},
								{
									"internalType": "address payable",
									"name": "seller",
									"type": "address"
								},
								{
									"internalType": "address payable",
									"name": "owner",
									"type": "address"
								},
								{
									"internalType": "uint256",
									"name": "price",
									"type": "uint256"
								}
							],
							"internalType": "struct NFTMarket.MarketItem",
							"name": "",
							"type": "tuple"
						}
					],
					"stateMutability": "view",
					"type": "function"
				},
				{
					"inputs": [],
					"name": "fetchMyNFTs",
					"outputs": [
						{
							"components": [
								{
									"internalType": "uint256",
									"name": "itemId",
									"type": "uint256"
								},
								{
									"internalType": "address",
									"name": "nftContract",
									"type": "address"
								},
								{
									"internalType": "uint256",
									"name": "tokenId",
									"type": "uint256"
								},
								{
									"internalType": "address payable",
									"name": "seller",
									"type": "address"
								},
								{
									"internalType": "address payable",
									"name": "owner",
									"type": "address"
								},
								{
									"internalType": "uint256",
									"name": "price",
									"type": "uint256"
								}
							],
							"internalType": "struct NFTMarket.MarketItem[]",
							"name": "",
							"type": "tuple[]"
						}
					],
					"stateMutability": "view",
					"type": "function"
				},
				{
					"inputs": [
						{
							"internalType": "uint256",
							"name": "marketItemId",
							"type": "uint256"
						}
					],
					"name": "getMarketItem",
					"outputs": [
						{
							"components": [
								{
									"internalType": "uint256",
									"name": "itemId",
									"type": "uint256"
								},
								{
									"internalType": "address",
									"name": "nftContract",
									"type": "address"
								},
								{
									"internalType": "uint256",
									"name": "tokenId",
									"type": "uint256"
								},
								{
									"internalType": "address payable",
									"name": "seller",
									"type": "address"
								},
								{
									"internalType": "address payable",
									"name": "owner",
									"type": "address"
								},
								{
									"internalType": "uint256",
									"name": "price",
									"type": "uint256"
								}
							],
							"internalType": "struct NFTMarket.MarketItem",
							"name": "",
							"type": "tuple"
						}
					],
					"stateMutability": "view",
					"type": "function"
				},
				{
					"inputs": [
						{
							"internalType": "address",
							"name": "",
							"type": "address"
						},
						{
							"internalType": "uint256",
							"name": "",
							"type": "uint256"
						},
						{
							"internalType": "address",
							"name": "",
							"type": "address"
						}
					],
					"name": "itemOffers",
					"outputs": [
						{
							"internalType": "bytes32",
							"name": "id",
							"type": "bytes32"
						},
						{
							"internalType": "uint256",
							"name": "offerPrice",
							"type": "uint256"
						}
					],
					"stateMutability": "view",
					"type": "function"
				},
				{
					"inputs": [
						{
							"internalType": "address",
							"name": "",
							"type": "address"
						},
						{
							"internalType": "uint256",
							"name": "",
							"type": "uint256"
						}
					],
					"name": "items",
					"outputs": [
						{
							"internalType": "bytes32",
							"name": "id",
							"type": "bytes32"
						},
						{
							"internalType": "address",
							"name": "seller",
							"type": "address"
						},
						{
							"internalType": "address",
							"name": "nftAddress",
							"type": "address"
						},
						{
							"internalType": "uint256",
							"name": "price",
							"type": "uint256"
						},
						{
							"internalType": "uint256",
							"name": "priceAnta",
							"type": "uint256"
						},
						{
							"internalType": "enum MarketplaceStorage.ItemStatus",
							"name": "status",
							"type": "uint8"
						}
					],
					"stateMutability": "view",
					"type": "function"
				},
				{
					"inputs": [],
					"name": "owner",
					"outputs": [
						{
							"internalType": "address",
							"name": "",
							"type": "address"
						}
					],
					"stateMutability": "view",
					"type": "function"
				},
				{
					"inputs": [],
					"name": "renounceOwnership",
					"outputs": [],
					"stateMutability": "nonpayable",
					"type": "function"
				},
				{
					"inputs": [
						{
							"internalType": "address",
							"name": "nftAddress",
							"type": "address"
						},
						{
							"internalType": "uint256",
							"name": "assetId",
							"type": "uint256"
						},
						{
							"internalType": "uint256",
							"name": "price",
							"type": "uint256"
						}
					],
					"name": "sellItem",
					"outputs": [],
					"stateMutability": "nonpayable",
					"type": "function"
				},
				{
					"inputs": [
						{
							"internalType": "address",
							"name": "_address",
							"type": "address"
						}
					],
					"name": "setSQFToken",
					"outputs": [],
					"stateMutability": "nonpayable",
					"type": "function"
				},
				{
					"inputs": [],
					"name": "sqfToken",
					"outputs": [
						{
							"internalType": "contract IERC20",
							"name": "",
							"type": "address"
						}
					],
					"stateMutability": "view",
					"type": "function"
				},
				{
					"inputs": [
						{
							"internalType": "address",
							"name": "newOwner",
							"type": "address"
						}
					],
					"name": "transferOwnership",
					"outputs": [],
					"stateMutability": "nonpayable",
					"type": "function"
				}
			],
			"devdoc": {
				"kind": "dev",
				"methods": {
					"owner()": {
						"details": "Returns the address of the current owner."
					},
					"renounceOwnership()": {
						"details": "Leaves the contract without owner. It will not be possible to call `onlyOwner` functions anymore. Can only be called by the current owner. NOTE: Renouncing ownership will leave the contract without an owner, thereby removing any functionality that is only available to the owner."
					},
					"transferOwnership(address)": {
						"details": "Transfers ownership of the contract to a new account (`newOwner`). Can only be called by the current owner."
					}
				},
				"version": 1
			},
			"evm": {
				"assembly": "    /* \"contracts/Marketplace2/Marketplace.sol\":17004:24131  contract NFTMarket is ReentrancyGuard, MarketplaceStorage, Ownable {... */\n  mstore(0x40, 0x80)\n  callvalue\n  dup1\n  iszero\n  tag_1\n  jumpi\n  0x00\n  dup1\n  revert\ntag_1:\n  pop\n    /* \"contracts/Marketplace2/Marketplace.sol\":14124:14125  1 */\n  0x01\n    /* \"contracts/Marketplace2/Marketplace.sol\":14229:14236  _status */\n  0x00\n    /* \"contracts/Marketplace2/Marketplace.sol\":14229:14251  _status = _NOT_ENTERED */\n  dup2\n  swap1\n  sstore\n  pop\n    /* \"contracts/Marketplace2/Marketplace.sol\":1563:1595  _transferOwnership(_msgSender()) */\n  tag_6\n    /* \"contracts/Marketplace2/Marketplace.sol\":1582:1594  _msgSender() */\n  tag_7\n    /* \"contracts/Marketplace2/Marketplace.sol\":1582:1592  _msgSender */\n  shl(0x20, tag_8)\n    /* \"contracts/Marketplace2/Marketplace.sol\":1582:1594  _msgSender() */\n  0x20\n  shr\n  jump\t// in\ntag_7:\n    /* \"contracts/Marketplace2/Marketplace.sol\":1563:1581  _transferOwnership */\n  shl(0x20, tag_9)\n    /* \"contracts/Marketplace2/Marketplace.sol\":1563:1595  _transferOwnership(_msgSender()) */\n  0x20\n  shr\n  jump\t// in\ntag_6:\n    /* \"contracts/Marketplace2/Marketplace.sol\":17004:24131  contract NFTMarket is ReentrancyGuard, MarketplaceStorage, Ownable {... */\n  jump(tag_10)\n    /* \"contracts/Marketplace2/Marketplace.sol\":556:652  function _msgSender() internal view virtual returns (address) {... */\ntag_8:\n    /* \"contracts/Marketplace2/Marketplace.sol\":609:616  address */\n  0x00\n    /* \"contracts/Marketplace2/Marketplace.sol\":635:645  msg.sender */\n  caller\n    /* \"contracts/Marketplace2/Marketplace.sol\":628:645  return msg.sender */\n  swap1\n  pop\n    /* \"contracts/Marketplace2/Marketplace.sol\":556:652  function _msgSender() internal view virtual returns (address) {... */\n  swap1\n  jump\t// out\n    /* \"contracts/Marketplace2/Marketplace.sol\":2912:3099  function _transferOwnership(address newOwner) internal virtual {... */\ntag_9:\n    /* \"contracts/Marketplace2/Marketplace.sol\":2985:3001  address oldOwner */\n  0x00\n    /* \"contracts/Marketplace2/Marketplace.sol\":3004:3010  _owner */\n  0x04\n  0x00\n  swap1\n  sload\n  swap1\n  0x0100\n  exp\n  swap1\n  div\n  0xffffffffffffffffffffffffffffffffffffffff\n  and\n    /* \"contracts/Marketplace2/Marketplace.sol\":2985:3010  address oldOwner = _owner */\n  swap1\n  pop\n    /* \"contracts/Marketplace2/Marketplace.sol\":3029:3037  newOwner */\n  dup2\n    /* \"contracts/Marketplace2/Marketplace.sol\":3020:3026  _owner */\n  0x04\n  0x00\n    /* \"contracts/Marketplace2/Marketplace.sol\":3020:3037  _owner = newOwner */\n  0x0100\n  exp\n  dup2\n  sload\n  dup2\n  0xffffffffffffffffffffffffffffffffffffffff\n  mul\n  not\n  and\n  swap1\n  dup4\n  0xffffffffffffffffffffffffffffffffffffffff\n  and\n  mul\n  or\n  swap1\n  sstore\n  pop\n    /* \"contracts/Marketplace2/Marketplace.sol\":3083:3091  newOwner */\n  dup2\n    /* \"contracts/Marketplace2/Marketplace.sol\":3052:3092  OwnershipTransferred(oldOwner, newOwner) */\n  0xffffffffffffffffffffffffffffffffffffffff\n  and\n    /* \"contracts/Marketplace2/Marketplace.sol\":3073:3081  oldOwner */\n  dup2\n    /* \"contracts/Marketplace2/Marketplace.sol\":3052:3092  OwnershipTransferred(oldOwner, newOwner) */\n  0xffffffffffffffffffffffffffffffffffffffff\n  and\n  0x8be0079c531659141344cd1fd0a4f28419497f9722a3daafe3b4186f6b6457e0\n  mload(0x40)\n  mload(0x40)\n  dup1\n  swap2\n  sub\n  swap1\n  log3\n    /* \"contracts/Marketplace2/Marketplace.sol\":2975:3099  {... */\n  pop\n    /* \"contracts/Marketplace2/Marketplace.sol\":2912:3099  function _transferOwnership(address newOwner) internal virtual {... */\n  pop\n  jump\t// out\n    /* \"contracts/Marketplace2/Marketplace.sol\":17004:24131  contract NFTMarket is ReentrancyGuard, MarketplaceStorage, Ownable {... */\ntag_10:\n  dataSize(sub_0)\n  dup1\n  dataOffset(sub_0)\n  0x00\n  codecopy\n  0x00\n  return\nstop\n\nsub_0: assembly {\n        /* \"contracts/Marketplace2/Marketplace.sol\":17004:24131  contract NFTMarket is ReentrancyGuard, MarketplaceStorage, Ownable {... */\n      mstore(0x40, 0x80)\n      jumpi(tag_1, lt(calldatasize, 0x04))\n      shr(0xe0, calldataload(0x00))\n      dup1\n      0x85a8b36c\n      gt\n      tag_18\n      jumpi\n      dup1\n      0xc23b139e\n      gt\n      tag_19\n      jumpi\n      dup1\n      0xc23b139e\n      eq\n      tag_14\n      jumpi\n      dup1\n      0xc7be7a49\n      eq\n      tag_15\n      jumpi\n      dup1\n      0xf01b52dc\n      eq\n      tag_16\n      jumpi\n      dup1\n      0xf2fde38b\n      eq\n      tag_17\n      jumpi\n      jump(tag_1)\n    tag_19:\n      dup1\n      0x85a8b36c\n      eq\n      tag_10\n      jumpi\n      dup1\n      0x8da5cb5b\n      eq\n      tag_11\n      jumpi\n      dup1\n      0x92bf77dd\n      eq\n      tag_12\n      jumpi\n      dup1\n      0xb7a60c7e\n      eq\n      tag_13\n      jumpi\n      jump(tag_1)\n    tag_18:\n      dup1\n      0x49739678\n      gt\n      tag_20\n      jumpi\n      dup1\n      0x49739678\n      eq\n      tag_6\n      jumpi\n      dup1\n      0x5c80a435\n      eq\n      tag_7\n      jumpi\n      dup1\n      0x68915327\n      eq\n      tag_8\n      jumpi\n      dup1\n      0x715018a6\n      eq\n      tag_9\n      jumpi\n      jump(tag_1)\n    tag_20:\n      dup1\n      0x15b81dc3\n      eq\n      tag_2\n      jumpi\n      dup1\n      0x202e3740\n      eq\n      tag_3\n      jumpi\n      dup1\n      0x2a45b250\n      eq\n      tag_4\n      jumpi\n      dup1\n      0x2b4c32be\n      eq\n      tag_5\n      jumpi\n    tag_1:\n      0x00\n      dup1\n      revert\n        /* \"contracts/Marketplace2/Marketplace.sol\":16146:16168  IERC20 public sqfToken */\n    tag_2:\n      callvalue\n      dup1\n      iszero\n      tag_21\n      jumpi\n      0x00\n      dup1\n      revert\n    tag_21:\n      pop\n      tag_22\n      tag_23\n      jump\t// in\n    tag_22:\n      mload(0x40)\n      tag_24\n      swap2\n      swap1\n      tag_25\n      jump\t// in\n    tag_24:\n      mload(0x40)\n      dup1\n      swap2\n      sub\n      swap1\n      return\n        /* \"contracts/Marketplace2/Marketplace.sol\":20932:21635  function fetchMyNFTs() public view returns (MarketItem[] memory) {... */\n    tag_3:\n      callvalue\n      dup1\n      iszero\n      tag_26\n      jumpi\n      0x00\n      dup1\n      revert\n    tag_26:\n      pop\n      tag_27\n      tag_28\n      jump\t// in\n    tag_27:\n      mload(0x40)\n      tag_29\n      swap2\n      swap1\n      tag_30\n      jump\t// in\n    tag_29:\n      mload(0x40)\n      dup1\n      swap2\n      sub\n      swap1\n      return\n        /* \"contracts/Marketplace2/Marketplace.sol\":20124:20277  function fetchMarketItem(uint itemId) public view returns (MarketItem memory) {... */\n    tag_4:\n      callvalue\n      dup1\n      iszero\n      tag_31\n      jumpi\n      0x00\n      dup1\n      revert\n    tag_31:\n      pop\n      tag_32\n      0x04\n      dup1\n      calldatasize\n      sub\n      dup2\n      add\n      swap1\n      tag_33\n      swap2\n      swap1\n      tag_34\n      jump\t// in\n    tag_33:\n      tag_35\n      jump\t// in\n    tag_32:\n      mload(0x40)\n      tag_36\n      swap2\n      swap1\n      tag_37\n      jump\t// in\n    tag_36:\n      mload(0x40)\n      dup1\n      swap2\n      sub\n      swap1\n      return\n        /* \"contracts/Marketplace2/Marketplace.sol\":15771:15831  bytes4 public constant ERC721_Interface = bytes4(0x80ac58cd) */\n    tag_5:\n      callvalue\n      dup1\n      iszero\n      tag_38\n      jumpi\n      0x00\n      dup1\n      revert\n    tag_38:\n      pop\n      tag_39\n      tag_40\n      jump\t// in\n    tag_39:\n      mload(0x40)\n      tag_41\n      swap2\n      swap1\n      tag_42\n      jump\t// in\n    tag_41:\n      mload(0x40)\n      dup1\n      swap2\n      sub\n      swap1\n      return\n        /* \"contracts/Marketplace2/Marketplace.sol\":16045:16140  mapping(address => mapping(uint256 => mapping(address => ItemOffer)))... */\n    tag_6:\n      callvalue\n      dup1\n      iszero\n      tag_43\n      jumpi\n      0x00\n      dup1\n      revert\n    tag_43:\n      pop\n      tag_44\n      0x04\n      dup1\n      calldatasize\n      sub\n      dup2\n      add\n      swap1\n      tag_45\n      swap2\n      swap1\n      tag_46\n      jump\t// in\n    tag_45:\n      tag_47\n      jump\t// in\n    tag_44:\n      mload(0x40)\n      tag_48\n      swap3\n      swap2\n      swap1\n      tag_49\n      jump\t// in\n    tag_48:\n      mload(0x40)\n      dup1\n      swap2\n      sub\n      swap1\n      return\n        /* \"contracts/Marketplace2/Marketplace.sol\":15909:15966  mapping(address => mapping(uint256 => Item)) public items */\n    tag_7:\n      callvalue\n      dup1\n      iszero\n      tag_50\n      jumpi\n      0x00\n      dup1\n      revert\n    tag_50:\n      pop\n      tag_51\n      0x04\n      dup1\n      calldatasize\n      sub\n      dup2\n      add\n      swap1\n      tag_52\n      swap2\n      swap1\n      tag_53\n      jump\t// in\n    tag_52:\n      tag_54\n      jump\t// in\n    tag_51:\n      mload(0x40)\n      tag_55\n      swap7\n      swap6\n      swap5\n      swap4\n      swap3\n      swap2\n      swap1\n      tag_56\n      jump\t// in\n    tag_55:\n      mload(0x40)\n      dup1\n      swap2\n      sub\n      swap1\n      return\n        /* \"contracts/Marketplace2/Marketplace.sol\":18202:19592  function sellItem(... */\n    tag_8:\n      callvalue\n      dup1\n      iszero\n      tag_57\n      jumpi\n      0x00\n      dup1\n      revert\n    tag_57:\n      pop\n      tag_58\n      0x04\n      dup1\n      calldatasize\n      sub\n      dup2\n      add\n      swap1\n      tag_59\n      swap2\n      swap1\n      tag_60\n      jump\t// in\n    tag_59:\n      tag_61\n      jump\t// in\n    tag_58:\n      stop\n        /* \"contracts/Marketplace2/Marketplace.sol\":2310:2411  function renounceOwnership() public virtual onlyOwner {... */\n    tag_9:\n      callvalue\n      dup1\n      iszero\n      tag_62\n      jumpi\n      0x00\n      dup1\n      revert\n    tag_62:\n      pop\n      tag_63\n      tag_64\n      jump\t// in\n    tag_63:\n      stop\n        /* \"contracts/Marketplace2/Marketplace.sol\":16175:16201  uint8 public bnbFeePercent */\n    tag_10:\n      callvalue\n      dup1\n      iszero\n      tag_65\n      jumpi\n      0x00\n      dup1\n      revert\n    tag_65:\n      pop\n      tag_66\n      tag_67\n      jump\t// in\n    tag_66:\n      mload(0x40)\n      tag_68\n      swap2\n      swap1\n      tag_69\n      jump\t// in\n    tag_68:\n      mload(0x40)\n      dup1\n      swap2\n      sub\n      swap1\n      return\n        /* \"contracts/Marketplace2/Marketplace.sol\":1678:1763  function owner() public view virtual returns (address) {... */\n    tag_11:\n      callvalue\n      dup1\n      iszero\n      tag_70\n      jumpi\n      0x00\n      dup1\n      revert\n    tag_70:\n      pop\n      tag_71\n      tag_72\n      jump\t// in\n    tag_71:\n      mload(0x40)\n      tag_73\n      swap2\n      swap1\n      tag_74\n      jump\t// in\n    tag_73:\n      mload(0x40)\n      dup1\n      swap2\n      sub\n      swap1\n      return\n        /* \"contracts/Marketplace2/Marketplace.sol\":17547:17645  function setSQFToken(address _address) external onlyOwner {... */\n    tag_12:\n      callvalue\n      dup1\n      iszero\n      tag_75\n      jumpi\n      0x00\n      dup1\n      revert\n    tag_75:\n      pop\n      tag_76\n      0x04\n      dup1\n      calldatasize\n      sub\n      dup2\n      add\n      swap1\n      tag_77\n      swap2\n      swap1\n      tag_78\n      jump\t// in\n    tag_77:\n      tag_79\n      jump\t// in\n    tag_76:\n      stop\n        /* \"contracts/Marketplace2/Marketplace.sol\":16207:16234  uint8 public antaFeePercent */\n    tag_13:\n      callvalue\n      dup1\n      iszero\n      tag_80\n      jumpi\n      0x00\n      dup1\n      revert\n    tag_80:\n      pop\n      tag_81\n      tag_82\n      jump\t// in\n    tag_81:\n      mload(0x40)\n      tag_83\n      swap2\n      swap1\n      tag_69\n      jump\t// in\n    tag_83:\n      mload(0x40)\n      dup1\n      swap2\n      sub\n      swap1\n      return\n        /* \"contracts/Marketplace2/Marketplace.sol\":19596:20120  function createMarketSale(... */\n    tag_14:\n      tag_84\n      0x04\n      dup1\n      calldatasize\n      sub\n      dup2\n      add\n      swap1\n      tag_85\n      swap2\n      swap1\n      tag_53\n      jump\t// in\n    tag_85:\n      tag_86\n      jump\t// in\n    tag_84:\n      stop\n        /* \"contracts/Marketplace2/Marketplace.sol\":17414:17545  function getMarketItem(uint256 marketItemId) public view returns (MarketItem memory) {... */\n    tag_15:\n      callvalue\n      dup1\n      iszero\n      tag_87\n      jumpi\n      0x00\n      dup1\n      revert\n    tag_87:\n      pop\n      tag_88\n      0x04\n      dup1\n      calldatasize\n      sub\n      dup2\n      add\n      swap1\n      tag_89\n      swap2\n      swap1\n      tag_34\n      jump\t// in\n    tag_89:\n      tag_90\n      jump\t// in\n    tag_88:\n      mload(0x40)\n      tag_91\n      swap2\n      swap1\n      tag_37\n      jump\t// in\n    tag_91:\n      mload(0x40)\n      dup1\n      swap2\n      sub\n      swap1\n      return\n        /* \"contracts/Marketplace2/Marketplace.sol\":21640:22936  function buyItemBySQF(... */\n    tag_16:\n      callvalue\n      dup1\n      iszero\n      tag_92\n      jumpi\n      0x00\n      dup1\n      revert\n    tag_92:\n      pop\n      tag_93\n      0x04\n      dup1\n      calldatasize\n      sub\n      dup2\n      add\n      swap1\n      tag_94\n      swap2\n      swap1\n      tag_60\n      jump\t// in\n    tag_94:\n      tag_95\n      jump\t// in\n    tag_93:\n      stop\n        /* \"contracts/Marketplace2/Marketplace.sol\":2560:2758  function transferOwnership(address newOwner) public virtual onlyOwner {... */\n    tag_17:\n      callvalue\n      dup1\n      iszero\n      tag_96\n      jumpi\n      0x00\n      dup1\n      revert\n    tag_96:\n      pop\n      tag_97\n      0x04\n      dup1\n      calldatasize\n      sub\n      dup2\n      add\n      swap1\n      tag_98\n      swap2\n      swap1\n      tag_78\n      jump\t// in\n    tag_98:\n      tag_99\n      jump\t// in\n    tag_97:\n      stop\n        /* \"contracts/Marketplace2/Marketplace.sol\":16146:16168  IERC20 public sqfToken */\n    tag_23:\n      0x03\n      0x00\n      swap1\n      sload\n      swap1\n      0x0100\n      exp\n      swap1\n      div\n      0xffffffffffffffffffffffffffffffffffffffff\n      and\n      dup2\n      jump\t// out\n        /* \"contracts/Marketplace2/Marketplace.sol\":20932:21635  function fetchMyNFTs() public view returns (MarketItem[] memory) {... */\n    tag_28:\n        /* \"contracts/Marketplace2/Marketplace.sol\":20976:20995  MarketItem[] memory */\n      0x60\n        /* \"contracts/Marketplace2/Marketplace.sol\":21003:21022  uint totalItemCount */\n      0x00\n        /* \"contracts/Marketplace2/Marketplace.sol\":21025:21043  _itemIds.current() */\n      tag_101\n        /* \"contracts/Marketplace2/Marketplace.sol\":21025:21033  _itemIds */\n      0x05\n        /* \"contracts/Marketplace2/Marketplace.sol\":21025:21041  _itemIds.current */\n      tag_102\n        /* \"contracts/Marketplace2/Marketplace.sol\":21025:21043  _itemIds.current() */\n      jump\t// in\n    tag_101:\n        /* \"contracts/Marketplace2/Marketplace.sol\":21003:21043  uint totalItemCount = _itemIds.current() */\n      swap1\n      pop\n        /* \"contracts/Marketplace2/Marketplace.sol\":21049:21063  uint itemCount */\n      0x00\n        /* \"contracts/Marketplace2/Marketplace.sol\":21073:21090  uint currentIndex */\n      dup1\n        /* \"contracts/Marketplace2/Marketplace.sol\":21106:21112  uint i */\n      0x00\n        /* \"contracts/Marketplace2/Marketplace.sol\":21101:21237  for (uint i = 0; i < totalItemCount; i++) {... */\n    tag_103:\n        /* \"contracts/Marketplace2/Marketplace.sol\":21122:21136  totalItemCount */\n      dup4\n        /* \"contracts/Marketplace2/Marketplace.sol\":21118:21119  i */\n      dup2\n        /* \"contracts/Marketplace2/Marketplace.sol\":21118:21136  i < totalItemCount */\n      lt\n        /* \"contracts/Marketplace2/Marketplace.sol\":21101:21237  for (uint i = 0; i < totalItemCount; i++) {... */\n      iszero\n      tag_104\n      jumpi\n        /* \"contracts/Marketplace2/Marketplace.sol\":21186:21196  msg.sender */\n      caller\n        /* \"contracts/Marketplace2/Marketplace.sol\":21155:21196  idToMarketItem[i + 1].owner == msg.sender */\n      0xffffffffffffffffffffffffffffffffffffffff\n      and\n        /* \"contracts/Marketplace2/Marketplace.sol\":21155:21169  idToMarketItem */\n      0x07\n        /* \"contracts/Marketplace2/Marketplace.sol\":21155:21176  idToMarketItem[i + 1] */\n      0x00\n        /* \"contracts/Marketplace2/Marketplace.sol\":21174:21175  1 */\n      0x01\n        /* \"contracts/Marketplace2/Marketplace.sol\":21170:21171  i */\n      dup5\n        /* \"contracts/Marketplace2/Marketplace.sol\":21170:21175  i + 1 */\n      tag_106\n      swap2\n      swap1\n      tag_107\n      jump\t// in\n    tag_106:\n        /* \"contracts/Marketplace2/Marketplace.sol\":21155:21176  idToMarketItem[i + 1] */\n      dup2\n      mstore\n      0x20\n      add\n      swap1\n      dup2\n      mstore\n      0x20\n      add\n      0x00\n      keccak256\n        /* \"contracts/Marketplace2/Marketplace.sol\":21155:21182  idToMarketItem[i + 1].owner */\n      0x04\n      add\n      0x00\n      swap1\n      sload\n      swap1\n      0x0100\n      exp\n      swap1\n      div\n      0xffffffffffffffffffffffffffffffffffffffff\n      and\n        /* \"contracts/Marketplace2/Marketplace.sol\":21155:21196  idToMarketItem[i + 1].owner == msg.sender */\n      0xffffffffffffffffffffffffffffffffffffffff\n      and\n      sub\n        /* \"contracts/Marketplace2/Marketplace.sol\":21151:21231  if (idToMarketItem[i + 1].owner == msg.sender) {... */\n      tag_108\n      jumpi\n        /* \"contracts/Marketplace2/Marketplace.sol\":21221:21222  1 */\n      0x01\n        /* \"contracts/Marketplace2/Marketplace.sol\":21208:21222  itemCount += 1 */\n      dup4\n      tag_109\n      swap2\n      swap1\n      tag_107\n      jump\t// in\n    tag_109:\n      swap3\n      pop\n        /* \"contracts/Marketplace2/Marketplace.sol\":21151:21231  if (idToMarketItem[i + 1].owner == msg.sender) {... */\n    tag_108:\n        /* \"contracts/Marketplace2/Marketplace.sol\":21138:21141  i++ */\n      dup1\n      dup1\n      tag_110\n      swap1\n      tag_111\n      jump\t// in\n    tag_110:\n      swap2\n      pop\n      pop\n        /* \"contracts/Marketplace2/Marketplace.sol\":21101:21237  for (uint i = 0; i < totalItemCount; i++) {... */\n      jump(tag_103)\n    tag_104:\n      pop\n        /* \"contracts/Marketplace2/Marketplace.sol\":21243:21268  MarketItem[] memory items */\n      0x00\n        /* \"contracts/Marketplace2/Marketplace.sol\":21288:21297  itemCount */\n      dup3\n        /* \"contracts/Marketplace2/Marketplace.sol\":21271:21298  new MarketItem[](itemCount) */\n      0xffffffffffffffff\n      dup2\n      gt\n      iszero\n      tag_112\n      jumpi\n      tag_113\n      tag_114\n      jump\t// in\n    tag_113:\n    tag_112:\n      mload(0x40)\n      swap1\n      dup1\n      dup3\n      mstore\n      dup1\n      0x20\n      mul\n      0x20\n      add\n      dup3\n      add\n      0x40\n      mstore\n      dup1\n      iszero\n      tag_115\n      jumpi\n      dup2\n      0x20\n      add\n    tag_116:\n      tag_117\n      tag_118\n      jump\t// in\n    tag_117:\n      dup2\n      mstore\n      0x20\n      add\n      swap1\n      0x01\n      swap1\n      sub\n      swap1\n      dup2\n      tag_116\n      jumpi\n      swap1\n      pop\n    tag_115:\n      pop\n        /* \"contracts/Marketplace2/Marketplace.sol\":21243:21298  MarketItem[] memory items = new MarketItem[](itemCount) */\n      swap1\n      pop\n        /* \"contracts/Marketplace2/Marketplace.sol\":21309:21315  uint i */\n      0x00\n        /* \"contracts/Marketplace2/Marketplace.sol\":21304:21609  for (uint i = 0; i < totalItemCount; i++) {... */\n    tag_119:\n        /* \"contracts/Marketplace2/Marketplace.sol\":21325:21339  totalItemCount */\n      dup5\n        /* \"contracts/Marketplace2/Marketplace.sol\":21321:21322  i */\n      dup2\n        /* \"contracts/Marketplace2/Marketplace.sol\":21321:21339  i < totalItemCount */\n      lt\n        /* \"contracts/Marketplace2/Marketplace.sol\":21304:21609  for (uint i = 0; i < totalItemCount; i++) {... */\n      iszero\n      tag_120\n      jumpi\n        /* \"contracts/Marketplace2/Marketplace.sol\":21389:21399  msg.sender */\n      caller\n        /* \"contracts/Marketplace2/Marketplace.sol\":21358:21399  idToMarketItem[i + 1].owner == msg.sender */\n      0xffffffffffffffffffffffffffffffffffffffff\n      and\n        /* \"contracts/Marketplace2/Marketplace.sol\":21358:21372  idToMarketItem */\n      0x07\n        /* \"contracts/Marketplace2/Marketplace.sol\":21358:21379  idToMarketItem[i + 1] */\n      0x00\n        /* \"contracts/Marketplace2/Marketplace.sol\":21377:21378  1 */\n      0x01\n        /* \"contracts/Marketplace2/Marketplace.sol\":21373:21374  i */\n      dup5\n        /* \"contracts/Marketplace2/Marketplace.sol\":21373:21378  i + 1 */\n      tag_122\n      swap2\n      swap1\n      tag_107\n      jump\t// in\n    tag_122:\n        /* \"contracts/Marketplace2/Marketplace.sol\":21358:21379  idToMarketItem[i + 1] */\n      dup2\n      mstore\n      0x20\n      add\n      swap1\n      dup2\n      mstore\n      0x20\n      add\n      0x00\n      keccak256\n        /* \"contracts/Marketplace2/Marketplace.sol\":21358:21385  idToMarketItem[i + 1].owner */\n      0x04\n      add\n      0x00\n      swap1\n      sload\n      swap1\n      0x0100\n      exp\n      swap1\n      div\n      0xffffffffffffffffffffffffffffffffffffffff\n      and\n        /* \"contracts/Marketplace2/Marketplace.sol\":21358:21399  idToMarketItem[i + 1].owner == msg.sender */\n      0xffffffffffffffffffffffffffffffffffffffff\n      and\n      sub\n        /* \"contracts/Marketplace2/Marketplace.sol\":21354:21603  if (idToMarketItem[i + 1].owner == msg.sender) {... */\n      tag_123\n      jumpi\n        /* \"contracts/Marketplace2/Marketplace.sol\":21411:21425  uint currentId */\n      0x00\n        /* \"contracts/Marketplace2/Marketplace.sol\":21428:21442  idToMarketItem */\n      0x07\n        /* \"contracts/Marketplace2/Marketplace.sol\":21428:21449  idToMarketItem[i + 1] */\n      0x00\n        /* \"contracts/Marketplace2/Marketplace.sol\":21447:21448  1 */\n      0x01\n        /* \"contracts/Marketplace2/Marketplace.sol\":21443:21444  i */\n      dup5\n        /* \"contracts/Marketplace2/Marketplace.sol\":21443:21448  i + 1 */\n      tag_124\n      swap2\n      swap1\n      tag_107\n      jump\t// in\n    tag_124:\n        /* \"contracts/Marketplace2/Marketplace.sol\":21428:21449  idToMarketItem[i + 1] */\n      dup2\n      mstore\n      0x20\n      add\n      swap1\n      dup2\n      mstore\n      0x20\n      add\n      0x00\n      keccak256\n        /* \"contracts/Marketplace2/Marketplace.sol\":21428:21456  idToMarketItem[i + 1].itemId */\n      0x00\n      add\n      sload\n        /* \"contracts/Marketplace2/Marketplace.sol\":21411:21456  uint currentId = idToMarketItem[i + 1].itemId */\n      swap1\n      pop\n        /* \"contracts/Marketplace2/Marketplace.sol\":21466:21496  MarketItem storage currentItem */\n      0x00\n        /* \"contracts/Marketplace2/Marketplace.sol\":21499:21513  idToMarketItem */\n      0x07\n        /* \"contracts/Marketplace2/Marketplace.sol\":21499:21524  idToMarketItem[currentId] */\n      0x00\n        /* \"contracts/Marketplace2/Marketplace.sol\":21514:21523  currentId */\n      dup4\n        /* \"contracts/Marketplace2/Marketplace.sol\":21499:21524  idToMarketItem[currentId] */\n      dup2\n      mstore\n      0x20\n      add\n      swap1\n      dup2\n      mstore\n      0x20\n      add\n      0x00\n      keccak256\n        /* \"contracts/Marketplace2/Marketplace.sol\":21466:21524  MarketItem storage currentItem = idToMarketItem[currentId] */\n      swap1\n      pop\n        /* \"contracts/Marketplace2/Marketplace.sol\":21556:21567  currentItem */\n      dup1\n        /* \"contracts/Marketplace2/Marketplace.sol\":21534:21567  items[currentIndex] = currentItem */\n      mload(0x40)\n      dup1\n      0xc0\n      add\n      0x40\n      mstore\n      swap1\n      dup2\n      0x00\n      dup3\n      add\n      sload\n      dup2\n      mstore\n      0x20\n      add\n      0x01\n      dup3\n      add\n      0x00\n      swap1\n      sload\n      swap1\n      0x0100\n      exp\n      swap1\n      div\n      0xffffffffffffffffffffffffffffffffffffffff\n      and\n      0xffffffffffffffffffffffffffffffffffffffff\n      and\n      0xffffffffffffffffffffffffffffffffffffffff\n      and\n      dup2\n      mstore\n      0x20\n      add\n      0x02\n      dup3\n      add\n      sload\n      dup2\n      mstore\n      0x20\n      add\n      0x03\n      dup3\n      add\n      0x00\n      swap1\n      sload\n      swap1\n      0x0100\n      exp\n      swap1\n      div\n      0xffffffffffffffffffffffffffffffffffffffff\n      and\n      0xffffffffffffffffffffffffffffffffffffffff\n      and\n      0xffffffffffffffffffffffffffffffffffffffff\n      and\n      dup2\n      mstore\n      0x20\n      add\n      0x04\n      dup3\n      add\n      0x00\n      swap1\n      sload\n      swap1\n      0x0100\n      exp\n      swap1\n      div\n      0xffffffffffffffffffffffffffffffffffffffff\n      and\n      0xffffffffffffffffffffffffffffffffffffffff\n      and\n      0xffffffffffffffffffffffffffffffffffffffff\n      and\n      dup2\n      mstore\n      0x20\n      add\n      0x05\n      dup3\n      add\n      sload\n      dup2\n      mstore\n      pop\n      pop\n        /* \"contracts/Marketplace2/Marketplace.sol\":21534:21539  items */\n      dup5\n        /* \"contracts/Marketplace2/Marketplace.sol\":21540:21552  currentIndex */\n      dup7\n        /* \"contracts/Marketplace2/Marketplace.sol\":21534:21553  items[currentIndex] */\n      dup2\n      mload\n      dup2\n      lt\n      tag_125\n      jumpi\n      tag_126\n      tag_127\n      jump\t// in\n    tag_126:\n    tag_125:\n      0x20\n      mul\n      0x20\n      add\n      add\n        /* \"contracts/Marketplace2/Marketplace.sol\":21534:21567  items[currentIndex] = currentItem */\n      dup2\n      swap1\n      mstore\n      pop\n        /* \"contracts/Marketplace2/Marketplace.sol\":21593:21594  1 */\n      0x01\n        /* \"contracts/Marketplace2/Marketplace.sol\":21577:21594  currentIndex += 1 */\n      dup6\n      tag_128\n      swap2\n      swap1\n      tag_107\n      jump\t// in\n    tag_128:\n      swap5\n      pop\n        /* \"contracts/Marketplace2/Marketplace.sol\":21401:21603  {... */\n      pop\n      pop\n        /* \"contracts/Marketplace2/Marketplace.sol\":21354:21603  if (idToMarketItem[i + 1].owner == msg.sender) {... */\n    tag_123:\n        /* \"contracts/Marketplace2/Marketplace.sol\":21341:21344  i++ */\n      dup1\n      dup1\n      tag_129\n      swap1\n      tag_111\n      jump\t// in\n    tag_129:\n      swap2\n      pop\n      pop\n        /* \"contracts/Marketplace2/Marketplace.sol\":21304:21609  for (uint i = 0; i < totalItemCount; i++) {... */\n      jump(tag_119)\n    tag_120:\n      pop\n        /* \"contracts/Marketplace2/Marketplace.sol\":21625:21630  items */\n      dup1\n        /* \"contracts/Marketplace2/Marketplace.sol\":21618:21630  return items */\n      swap5\n      pop\n      pop\n      pop\n      pop\n      pop\n        /* \"contracts/Marketplace2/Marketplace.sol\":20932:21635  function fetchMyNFTs() public view returns (MarketItem[] memory) {... */\n      swap1\n      jump\t// out\n        /* \"contracts/Marketplace2/Marketplace.sol\":20124:20277  function fetchMarketItem(uint itemId) public view returns (MarketItem memory) {... */\n    tag_35:\n        /* \"contracts/Marketplace2/Marketplace.sol\":20183:20200  MarketItem memory */\n      tag_130\n      tag_118\n      jump\t// in\n    tag_130:\n        /* \"contracts/Marketplace2/Marketplace.sol\":20208:20230  MarketItem memory item */\n      0x00\n        /* \"contracts/Marketplace2/Marketplace.sol\":20233:20247  idToMarketItem */\n      0x07\n        /* \"contracts/Marketplace2/Marketplace.sol\":20233:20255  idToMarketItem[itemId] */\n      0x00\n        /* \"contracts/Marketplace2/Marketplace.sol\":20248:20254  itemId */\n      dup5\n        /* \"contracts/Marketplace2/Marketplace.sol\":20233:20255  idToMarketItem[itemId] */\n      dup2\n      mstore\n      0x20\n      add\n      swap1\n      dup2\n      mstore\n      0x20\n      add\n      0x00\n      keccak256\n        /* \"contracts/Marketplace2/Marketplace.sol\":20208:20255  MarketItem memory item = idToMarketItem[itemId] */\n      mload(0x40)\n      dup1\n      0xc0\n      add\n      0x40\n      mstore\n      swap1\n      dup2\n      0x00\n      dup3\n      add\n      sload\n      dup2\n      mstore\n      0x20\n      add\n      0x01\n      dup3\n      add\n      0x00\n      swap1\n      sload\n      swap1\n      0x0100\n      exp\n      swap1\n      div\n      0xffffffffffffffffffffffffffffffffffffffff\n      and\n      0xffffffffffffffffffffffffffffffffffffffff\n      and\n      0xffffffffffffffffffffffffffffffffffffffff\n      and\n      dup2\n      mstore\n      0x20\n      add\n      0x02\n      dup3\n      add\n      sload\n      dup2\n      mstore\n      0x20\n      add\n      0x03\n      dup3\n      add\n      0x00\n      swap1\n      sload\n      swap1\n      0x0100\n      exp\n      swap1\n      div\n      0xffffffffffffffffffffffffffffffffffffffff\n      and\n      0xffffffffffffffffffffffffffffffffffffffff\n      and\n      0xffffffffffffffffffffffffffffffffffffffff\n      and\n      dup2\n      mstore\n      0x20\n      add\n      0x04\n      dup3\n      add\n      0x00\n      swap1\n      sload\n      swap1\n      0x0100\n      exp\n      swap1\n      div\n      0xffffffffffffffffffffffffffffffffffffffff\n      and\n      0xffffffffffffffffffffffffffffffffffffffff\n      and\n      0xffffffffffffffffffffffffffffffffffffffff\n      and\n      dup2\n      mstore\n      0x20\n      add\n      0x05\n      dup3\n      add\n      sload\n      dup2\n      mstore\n      pop\n      pop\n      swap1\n      pop\n        /* \"contracts/Marketplace2/Marketplace.sol\":20268:20272  item */\n      dup1\n        /* \"contracts/Marketplace2/Marketplace.sol\":20261:20272  return item */\n      swap2\n      pop\n      pop\n        /* \"contracts/Marketplace2/Marketplace.sol\":20124:20277  function fetchMarketItem(uint itemId) public view returns (MarketItem memory) {... */\n      swap2\n      swap1\n      pop\n      jump\t// out\n        /* \"contracts/Marketplace2/Marketplace.sol\":15771:15831  bytes4 public constant ERC721_Interface = bytes4(0x80ac58cd) */\n    tag_40:\n        /* \"contracts/Marketplace2/Marketplace.sol\":15820:15830  0x80ac58cd */\n      0x80ac58cd\n        /* \"contracts/Marketplace2/Marketplace.sol\":15813:15831  bytes4(0x80ac58cd) */\n      0xe0\n      shl\n        /* \"contracts/Marketplace2/Marketplace.sol\":15771:15831  bytes4 public constant ERC721_Interface = bytes4(0x80ac58cd) */\n      dup2\n      jump\t// out\n        /* \"contracts/Marketplace2/Marketplace.sol\":16045:16140  mapping(address => mapping(uint256 => mapping(address => ItemOffer)))... */\n    tag_47:\n      mstore(0x20, 0x02)\n      dup3\n      0x00\n      mstore\n      mstore(0x20, keccak256(0x00, 0x40))\n      dup2\n      0x00\n      mstore\n      mstore(0x20, keccak256(0x00, 0x40))\n      dup1\n      0x00\n      mstore\n      keccak256(0x00, 0x40)\n      0x00\n      swap3\n      pop\n      swap3\n      pop\n      pop\n      pop\n      dup1\n      0x00\n      add\n      sload\n      swap1\n      dup1\n      0x01\n      add\n      sload\n      swap1\n      pop\n      dup3\n      jump\t// out\n        /* \"contracts/Marketplace2/Marketplace.sol\":15909:15966  mapping(address => mapping(uint256 => Item)) public items */\n    tag_54:\n      mstore(0x20, 0x01)\n      dup2\n      0x00\n      mstore\n      mstore(0x20, keccak256(0x00, 0x40))\n      dup1\n      0x00\n      mstore\n      keccak256(0x00, 0x40)\n      0x00\n      swap2\n      pop\n      swap2\n      pop\n      pop\n      dup1\n      0x00\n      add\n      sload\n      swap1\n      dup1\n      0x01\n      add\n      0x00\n      swap1\n      sload\n      swap1\n      0x0100\n      exp\n      swap1\n      div\n      0xffffffffffffffffffffffffffffffffffffffff\n      and\n      swap1\n      dup1\n      0x02\n      add\n      0x00\n      swap1\n      sload\n      swap1\n      0x0100\n      exp\n      swap1\n      div\n      0xffffffffffffffffffffffffffffffffffffffff\n      and\n      swap1\n      dup1\n      0x03\n      add\n      sload\n      swap1\n      dup1\n      0x04\n      add\n      sload\n      swap1\n      dup1\n      0x05\n      add\n      0x00\n      swap1\n      sload\n      swap1\n      0x0100\n      exp\n      swap1\n      div\n      0xff\n      and\n      swap1\n      pop\n      dup7\n      jump\t// out\n        /* \"contracts/Marketplace2/Marketplace.sol\":18202:19592  function sellItem(... */\n    tag_61:\n        /* \"contracts/Marketplace2/Marketplace.sol\":18332:18333  0 */\n      0x00\n        /* \"contracts/Marketplace2/Marketplace.sol\":18324:18329  price */\n      dup2\n        /* \"contracts/Marketplace2/Marketplace.sol\":18324:18333  price > 0 */\n      gt\n        /* \"contracts/Marketplace2/Marketplace.sol\":18316:18366  require(price > 0, \"Price must be at least 1 wei\") */\n      tag_133\n      jumpi\n      mload(0x40)\n      0x08c379a000000000000000000000000000000000000000000000000000000000\n      dup2\n      mstore\n      0x04\n      add\n      tag_134\n      swap1\n      tag_135\n      jump\t// in\n    tag_134:\n      mload(0x40)\n      dup1\n      swap2\n      sub\n      swap1\n      revert\n    tag_133:\n        /* \"contracts/Marketplace2/Marketplace.sol\":18373:18399  _requireERC721(nftAddress) */\n      tag_136\n        /* \"contracts/Marketplace2/Marketplace.sol\":18388:18398  nftAddress */\n      dup4\n        /* \"contracts/Marketplace2/Marketplace.sol\":18373:18387  _requireERC721 */\n      tag_137\n        /* \"contracts/Marketplace2/Marketplace.sol\":18373:18399  _requireERC721(nftAddress) */\n      jump\t// in\n    tag_136:\n        /* \"contracts/Marketplace2/Marketplace.sol\":18406:18420  address seller */\n      0x00\n        /* \"contracts/Marketplace2/Marketplace.sol\":18423:18433  msg.sender */\n      caller\n        /* \"contracts/Marketplace2/Marketplace.sol\":18406:18433  address seller = msg.sender */\n      swap1\n      pop\n        /* \"contracts/Marketplace2/Marketplace.sol\":18440:18460  _itemIds.increment() */\n      tag_138\n        /* \"contracts/Marketplace2/Marketplace.sol\":18440:18448  _itemIds */\n      0x05\n        /* \"contracts/Marketplace2/Marketplace.sol\":18440:18458  _itemIds.increment */\n      tag_139\n        /* \"contracts/Marketplace2/Marketplace.sol\":18440:18460  _itemIds.increment() */\n      jump\t// in\n    tag_138:\n        /* \"contracts/Marketplace2/Marketplace.sol\":18467:18486  IERC721 nftRegistry */\n      0x00\n        /* \"contracts/Marketplace2/Marketplace.sol\":18497:18507  nftAddress */\n      dup5\n        /* \"contracts/Marketplace2/Marketplace.sol\":18467:18508  IERC721 nftRegistry = IERC721(nftAddress) */\n      swap1\n      pop\n        /* \"contracts/Marketplace2/Marketplace.sol\":18515:18529  uint256 itemId */\n      0x00\n        /* \"contracts/Marketplace2/Marketplace.sol\":18532:18550  _itemIds.current() */\n      tag_140\n        /* \"contracts/Marketplace2/Marketplace.sol\":18532:18540  _itemIds */\n      0x05\n        /* \"contracts/Marketplace2/Marketplace.sol\":18532:18548  _itemIds.current */\n      tag_102\n        /* \"contracts/Marketplace2/Marketplace.sol\":18532:18550  _itemIds.current() */\n      jump\t// in\n    tag_140:\n        /* \"contracts/Marketplace2/Marketplace.sol\":18515:18550  uint256 itemId = _itemIds.current() */\n      swap1\n      pop\n        /* \"contracts/Marketplace2/Marketplace.sol\":18610:18616  seller */\n      dup3\n        /* \"contracts/Marketplace2/Marketplace.sol\":18578:18616  nftRegistry.ownerOf(assetId) == seller */\n      0xffffffffffffffffffffffffffffffffffffffff\n      and\n        /* \"contracts/Marketplace2/Marketplace.sol\":18578:18589  nftRegistry */\n      dup3\n        /* \"contracts/Marketplace2/Marketplace.sol\":18578:18597  nftRegistry.ownerOf */\n      0xffffffffffffffffffffffffffffffffffffffff\n      and\n      0x6352211e\n        /* \"contracts/Marketplace2/Marketplace.sol\":18598:18605  assetId */\n      dup8\n        /* \"contracts/Marketplace2/Marketplace.sol\":18578:18606  nftRegistry.ownerOf(assetId) */\n      mload(0x40)\n      dup3\n      0xffffffff\n      and\n      0xe0\n      shl\n      dup2\n      mstore\n      0x04\n      add\n      tag_141\n      swap2\n      swap1\n      tag_142\n      jump\t// in\n    tag_141:\n      0x20\n      mload(0x40)\n      dup1\n      dup4\n      sub\n      dup2\n      dup7\n      gas\n      staticcall\n      iszero\n      dup1\n      iszero\n      tag_144\n      jumpi\n      returndatasize\n      0x00\n      dup1\n      returndatacopy\n      revert(0x00, returndatasize)\n    tag_144:\n      pop\n      pop\n      pop\n      pop\n      mload(0x40)\n      returndatasize\n      not(0x1f)\n      0x1f\n      dup3\n      add\n      and\n      dup3\n      add\n      dup1\n      0x40\n      mstore\n      pop\n      dup2\n      add\n      swap1\n      tag_145\n      swap2\n      swap1\n      tag_146\n      jump\t// in\n    tag_145:\n        /* \"contracts/Marketplace2/Marketplace.sol\":18578:18616  nftRegistry.ownerOf(assetId) == seller */\n      0xffffffffffffffffffffffffffffffffffffffff\n      and\n      eq\n        /* \"contracts/Marketplace2/Marketplace.sol\":18557:18675  require(... */\n      tag_147\n      jumpi\n      mload(0x40)\n      0x08c379a000000000000000000000000000000000000000000000000000000000\n      dup2\n      mstore\n      0x04\n      add\n      tag_148\n      swap1\n      tag_149\n      jump\t// in\n    tag_148:\n      mload(0x40)\n      dup1\n      swap2\n      sub\n      swap1\n      revert\n    tag_147:\n        /* \"contracts/Marketplace2/Marketplace.sol\":18708:18838  MarketItem(... */\n      mload(0x40)\n      dup1\n      0xc0\n      add\n      0x40\n      mstore\n      dup1\n        /* \"contracts/Marketplace2/Marketplace.sol\":18726:18732  itemId */\n      dup3\n        /* \"contracts/Marketplace2/Marketplace.sol\":18708:18838  MarketItem(... */\n      dup2\n      mstore\n      0x20\n      add\n        /* \"contracts/Marketplace2/Marketplace.sol\":18740:18750  nftAddress */\n      dup8\n        /* \"contracts/Marketplace2/Marketplace.sol\":18708:18838  MarketItem(... */\n      0xffffffffffffffffffffffffffffffffffffffff\n      and\n      dup2\n      mstore\n      0x20\n      add\n        /* \"contracts/Marketplace2/Marketplace.sol\":18758:18765  assetId */\n      dup7\n        /* \"contracts/Marketplace2/Marketplace.sol\":18708:18838  MarketItem(... */\n      dup2\n      mstore\n      0x20\n      add\n        /* \"contracts/Marketplace2/Marketplace.sol\":18781:18791  msg.sender */\n      caller\n        /* \"contracts/Marketplace2/Marketplace.sol\":18708:18838  MarketItem(... */\n      0xffffffffffffffffffffffffffffffffffffffff\n      and\n      dup2\n      mstore\n      0x20\n      add\n        /* \"contracts/Marketplace2/Marketplace.sol\":18816:18817  0 */\n      0x00\n        /* \"contracts/Marketplace2/Marketplace.sol\":18708:18838  MarketItem(... */\n      0xffffffffffffffffffffffffffffffffffffffff\n      and\n      dup2\n      mstore\n      0x20\n      add\n        /* \"contracts/Marketplace2/Marketplace.sol\":18827:18832  price */\n      dup6\n        /* \"contracts/Marketplace2/Marketplace.sol\":18708:18838  MarketItem(... */\n      dup2\n      mstore\n      pop\n        /* \"contracts/Marketplace2/Marketplace.sol\":18682:18696  idToMarketItem */\n      0x07\n        /* \"contracts/Marketplace2/Marketplace.sol\":18682:18704  idToMarketItem[itemId] */\n      0x00\n        /* \"contracts/Marketplace2/Marketplace.sol\":18697:18703  itemId */\n      dup4\n        /* \"contracts/Marketplace2/Marketplace.sol\":18682:18704  idToMarketItem[itemId] */\n      dup2\n      mstore\n      0x20\n      add\n      swap1\n      dup2\n      mstore\n      0x20\n      add\n      0x00\n      keccak256\n        /* \"contracts/Marketplace2/Marketplace.sol\":18682:18838  idToMarketItem[itemId] =  MarketItem(... */\n      0x00\n      dup3\n      add\n      mload\n      dup2\n      0x00\n      add\n      sstore\n      0x20\n      dup3\n      add\n      mload\n      dup2\n      0x01\n      add\n      exp(0x0100, 0x00)\n      dup2\n      sload\n      dup2\n      0xffffffffffffffffffffffffffffffffffffffff\n      mul\n      not\n      and\n      swap1\n      dup4\n      0xffffffffffffffffffffffffffffffffffffffff\n      and\n      mul\n      or\n      swap1\n      sstore\n      pop\n      0x40\n      dup3\n      add\n      mload\n      dup2\n      0x02\n      add\n      sstore\n      0x60\n      dup3\n      add\n      mload\n      dup2\n      0x03\n      add\n      exp(0x0100, 0x00)\n      dup2\n      sload\n      dup2\n      0xffffffffffffffffffffffffffffffffffffffff\n      mul\n      not\n      and\n      swap1\n      dup4\n      0xffffffffffffffffffffffffffffffffffffffff\n      and\n      mul\n      or\n      swap1\n      sstore\n      pop\n      0x80\n      dup3\n      add\n      mload\n      dup2\n      0x04\n      add\n      exp(0x0100, 0x00)\n      dup2\n      sload\n      dup2\n      0xffffffffffffffffffffffffffffffffffffffff\n      mul\n      not\n      and\n      swap1\n      dup4\n      0xffffffffffffffffffffffffffffffffffffffff\n      and\n      mul\n      or\n      swap1\n      sstore\n      pop\n      0xa0\n      dup3\n      add\n      mload\n      dup2\n      0x05\n      add\n      sstore\n      swap1\n      pop\n      pop\n        /* \"contracts/Marketplace2/Marketplace.sol\":18848:18859  nftRegistry */\n      dup2\n        /* \"contracts/Marketplace2/Marketplace.sol\":18848:18872  nftRegistry.transferFrom */\n      0xffffffffffffffffffffffffffffffffffffffff\n      and\n      0x23b872dd\n        /* \"contracts/Marketplace2/Marketplace.sol\":18873:18879  seller */\n      dup5\n        /* \"contracts/Marketplace2/Marketplace.sol\":18889:18893  this */\n      address\n        /* \"contracts/Marketplace2/Marketplace.sol\":18896:18903  assetId */\n      dup9\n        /* \"contracts/Marketplace2/Marketplace.sol\":18848:18904  nftRegistry.transferFrom(seller, address(this), assetId) */\n      mload(0x40)\n      dup5\n      0xffffffff\n      and\n      0xe0\n      shl\n      dup2\n      mstore\n      0x04\n      add\n      tag_150\n      swap4\n      swap3\n      swap2\n      swap1\n      tag_151\n      jump\t// in\n    tag_150:\n      0x00\n      mload(0x40)\n      dup1\n      dup4\n      sub\n      dup2\n      0x00\n      dup8\n      dup1\n      extcodesize\n      iszero\n      dup1\n      iszero\n      tag_152\n      jumpi\n      0x00\n      dup1\n      revert\n    tag_152:\n      pop\n      gas\n      call\n      iszero\n      dup1\n      iszero\n      tag_154\n      jumpi\n      returndatasize\n      0x00\n      dup1\n      returndatacopy\n      revert(0x00, returndatasize)\n    tag_154:\n      pop\n      pop\n      pop\n      pop\n        /* \"contracts/Marketplace2/Marketplace.sol\":18914:18930  Item memory item */\n      0x00\n        /* \"contracts/Marketplace2/Marketplace.sol\":18933:18938  items */\n      0x01\n        /* \"contracts/Marketplace2/Marketplace.sol\":18933:18950  items[nftAddress] */\n      0x00\n        /* \"contracts/Marketplace2/Marketplace.sol\":18939:18949  nftAddress */\n      dup9\n        /* \"contracts/Marketplace2/Marketplace.sol\":18933:18950  items[nftAddress] */\n      0xffffffffffffffffffffffffffffffffffffffff\n      and\n      0xffffffffffffffffffffffffffffffffffffffff\n      and\n      dup2\n      mstore\n      0x20\n      add\n      swap1\n      dup2\n      mstore\n      0x20\n      add\n      0x00\n      keccak256\n        /* \"contracts/Marketplace2/Marketplace.sol\":18933:18959  items[nftAddress][assetId] */\n      0x00\n        /* \"contracts/Marketplace2/Marketplace.sol\":18951:18958  assetId */\n      dup8\n        /* \"contracts/Marketplace2/Marketplace.sol\":18933:18959  items[nftAddress][assetId] */\n      dup2\n      mstore\n      0x20\n      add\n      swap1\n      dup2\n      mstore\n      0x20\n      add\n      0x00\n      keccak256\n        /* \"contracts/Marketplace2/Marketplace.sol\":18914:18959  Item memory item = items[nftAddress][assetId] */\n      mload(0x40)\n      dup1\n      0xc0\n      add\n      0x40\n      mstore\n      swap1\n      dup2\n      0x00\n      dup3\n      add\n      sload\n      dup2\n      mstore\n      0x20\n      add\n      0x01\n      dup3\n      add\n      0x00\n      swap1\n      sload\n      swap1\n      0x0100\n      exp\n      swap1\n      div\n      0xffffffffffffffffffffffffffffffffffffffff\n      and\n      0xffffffffffffffffffffffffffffffffffffffff\n      and\n      0xffffffffffffffffffffffffffffffffffffffff\n      and\n      dup2\n      mstore\n      0x20\n      add\n      0x02\n      dup3\n      add\n      0x00\n      swap1\n      sload\n      swap1\n      0x0100\n      exp\n      swap1\n      div\n      0xffffffffffffffffffffffffffffffffffffffff\n      and\n      0xffffffffffffffffffffffffffffffffffffffff\n      and\n      0xffffffffffffffffffffffffffffffffffffffff\n      and\n      dup2\n      mstore\n      0x20\n      add\n      0x03\n      dup3\n      add\n      sload\n      dup2\n      mstore\n      0x20\n      add\n      0x04\n      dup3\n      add\n      sload\n      dup2\n      mstore\n      0x20\n      add\n      0x05\n      dup3\n      add\n      0x00\n      swap1\n      sload\n      swap1\n      0x0100\n      exp\n      swap1\n      div\n      0xff\n      and\n      0x04\n      dup2\n      gt\n      iszero\n      tag_155\n      jumpi\n      tag_156\n      tag_157\n      jump\t// in\n    tag_156:\n    tag_155:\n      0x04\n      dup2\n      gt\n      iszero\n      tag_158\n      jumpi\n      tag_159\n      tag_157\n      jump\t// in\n    tag_159:\n    tag_158:\n      dup2\n      mstore\n      pop\n      pop\n      swap1\n      pop\n        /* \"contracts/Marketplace2/Marketplace.sol\":18984:18985  0 */\n      0x00\n        /* \"contracts/Marketplace2/Marketplace.sol\":18973:18985  item.id == 0 */\n      dup1\n      shl\n        /* \"contracts/Marketplace2/Marketplace.sol\":18973:18977  item */\n      dup2\n        /* \"contracts/Marketplace2/Marketplace.sol\":18973:18980  item.id */\n      0x00\n      add\n      mload\n        /* \"contracts/Marketplace2/Marketplace.sol\":18973:18985  item.id == 0 */\n      sub\n        /* \"contracts/Marketplace2/Marketplace.sol\":18969:19327  if (item.id == 0) {... */\n      tag_160\n      jumpi\n        /* \"contracts/Marketplace2/Marketplace.sol\":19001:19051  _createItem(seller, assetId, nftAddress, price, 0) */\n      tag_161\n        /* \"contracts/Marketplace2/Marketplace.sol\":19013:19019  seller */\n      dup5\n        /* \"contracts/Marketplace2/Marketplace.sol\":19021:19028  assetId */\n      dup8\n        /* \"contracts/Marketplace2/Marketplace.sol\":19030:19040  nftAddress */\n      dup10\n        /* \"contracts/Marketplace2/Marketplace.sol\":19042:19047  price */\n      dup9\n        /* \"contracts/Marketplace2/Marketplace.sol\":19049:19050  0 */\n      0x00\n        /* \"contracts/Marketplace2/Marketplace.sol\":19001:19012  _createItem */\n      tag_162\n        /* \"contracts/Marketplace2/Marketplace.sol\":19001:19051  _createItem(seller, assetId, nftAddress, price, 0) */\n      jump\t// in\n    tag_161:\n        /* \"contracts/Marketplace2/Marketplace.sol\":18969:19327  if (item.id == 0) {... */\n      jump(tag_163)\n    tag_160:\n        /* \"contracts/Marketplace2/Marketplace.sol\":19105:19120  ItemStatus.LIST */\n      0x01\n        /* \"contracts/Marketplace2/Marketplace.sol\":19090:19120  item.status != ItemStatus.LIST */\n      0x04\n      dup2\n      gt\n      iszero\n      tag_164\n      jumpi\n      tag_165\n      tag_157\n      jump\t// in\n    tag_165:\n    tag_164:\n        /* \"contracts/Marketplace2/Marketplace.sol\":19090:19094  item */\n      dup2\n        /* \"contracts/Marketplace2/Marketplace.sol\":19090:19101  item.status */\n      0xa0\n      add\n      mload\n        /* \"contracts/Marketplace2/Marketplace.sol\":19090:19120  item.status != ItemStatus.LIST */\n      0x04\n      dup2\n      gt\n      iszero\n      tag_166\n      jumpi\n      tag_167\n      tag_157\n      jump\t// in\n    tag_167:\n    tag_166:\n      sub\n        /* \"contracts/Marketplace2/Marketplace.sol\":19082:19141  require(item.status != ItemStatus.LIST, \"Asset is listing\") */\n      tag_168\n      jumpi\n      mload(0x40)\n      0x08c379a000000000000000000000000000000000000000000000000000000000\n      dup2\n      mstore\n      0x04\n      add\n      tag_169\n      swap1\n      tag_170\n      jump\t// in\n    tag_169:\n      mload(0x40)\n      dup1\n      swap2\n      sub\n      swap1\n      revert\n    tag_168:\n        /* \"contracts/Marketplace2/Marketplace.sol\":19191:19206  ItemStatus.LIST */\n      0x01\n        /* \"contracts/Marketplace2/Marketplace.sol\":19155:19160  items */\n      dup1\n        /* \"contracts/Marketplace2/Marketplace.sol\":19155:19172  items[nftAddress] */\n      0x00\n        /* \"contracts/Marketplace2/Marketplace.sol\":19161:19171  nftAddress */\n      dup10\n        /* \"contracts/Marketplace2/Marketplace.sol\":19155:19172  items[nftAddress] */\n      0xffffffffffffffffffffffffffffffffffffffff\n      and\n      0xffffffffffffffffffffffffffffffffffffffff\n      and\n      dup2\n      mstore\n      0x20\n      add\n      swap1\n      dup2\n      mstore\n      0x20\n      add\n      0x00\n      keccak256\n        /* \"contracts/Marketplace2/Marketplace.sol\":19155:19181  items[nftAddress][assetId] */\n      0x00\n        /* \"contracts/Marketplace2/Marketplace.sol\":19173:19180  assetId */\n      dup9\n        /* \"contracts/Marketplace2/Marketplace.sol\":19155:19181  items[nftAddress][assetId] */\n      dup2\n      mstore\n      0x20\n      add\n      swap1\n      dup2\n      mstore\n      0x20\n      add\n      0x00\n      keccak256\n        /* \"contracts/Marketplace2/Marketplace.sol\":19155:19188  items[nftAddress][assetId].status */\n      0x05\n      add\n      0x00\n        /* \"contracts/Marketplace2/Marketplace.sol\":19155:19206  items[nftAddress][assetId].status = ItemStatus.LIST */\n      0x0100\n      exp\n      dup2\n      sload\n      dup2\n      0xff\n      mul\n      not\n      and\n      swap1\n      dup4\n      0x04\n      dup2\n      gt\n      iszero\n      tag_171\n      jumpi\n      tag_172\n      tag_157\n      jump\t// in\n    tag_172:\n    tag_171:\n      mul\n      or\n      swap1\n      sstore\n      pop\n        /* \"contracts/Marketplace2/Marketplace.sol\":19255:19260  price */\n      dup5\n        /* \"contracts/Marketplace2/Marketplace.sol\":19220:19225  items */\n      0x01\n        /* \"contracts/Marketplace2/Marketplace.sol\":19220:19237  items[nftAddress] */\n      0x00\n        /* \"contracts/Marketplace2/Marketplace.sol\":19226:19236  nftAddress */\n      dup10\n        /* \"contracts/Marketplace2/Marketplace.sol\":19220:19237  items[nftAddress] */\n      0xffffffffffffffffffffffffffffffffffffffff\n      and\n      0xffffffffffffffffffffffffffffffffffffffff\n      and\n      dup2\n      mstore\n      0x20\n      add\n      swap1\n      dup2\n      mstore\n      0x20\n      add\n      0x00\n      keccak256\n        /* \"contracts/Marketplace2/Marketplace.sol\":19220:19246  items[nftAddress][assetId] */\n      0x00\n        /* \"contracts/Marketplace2/Marketplace.sol\":19238:19245  assetId */\n      dup9\n        /* \"contracts/Marketplace2/Marketplace.sol\":19220:19246  items[nftAddress][assetId] */\n      dup2\n      mstore\n      0x20\n      add\n      swap1\n      dup2\n      mstore\n      0x20\n      add\n      0x00\n      keccak256\n        /* \"contracts/Marketplace2/Marketplace.sol\":19220:19252  items[nftAddress][assetId].price */\n      0x03\n      add\n        /* \"contracts/Marketplace2/Marketplace.sol\":19220:19260  items[nftAddress][assetId].price = price */\n      dup2\n      swap1\n      sstore\n      pop\n        /* \"contracts/Marketplace2/Marketplace.sol\":19310:19316  seller */\n      dup4\n        /* \"contracts/Marketplace2/Marketplace.sol\":19274:19279  items */\n      0x01\n        /* \"contracts/Marketplace2/Marketplace.sol\":19274:19291  items[nftAddress] */\n      0x00\n        /* \"contracts/Marketplace2/Marketplace.sol\":19280:19290  nftAddress */\n      dup10\n        /* \"contracts/Marketplace2/Marketplace.sol\":19274:19291  items[nftAddress] */\n      0xffffffffffffffffffffffffffffffffffffffff\n      and\n      0xffffffffffffffffffffffffffffffffffffffff\n      and\n      dup2\n      mstore\n      0x20\n      add\n      swap1\n      dup2\n      mstore\n      0x20\n      add\n      0x00\n      keccak256\n        /* \"contracts/Marketplace2/Marketplace.sol\":19274:19300  items[nftAddress][assetId] */\n      0x00\n        /* \"contracts/Marketplace2/Marketplace.sol\":19292:19299  assetId */\n      dup9\n        /* \"contracts/Marketplace2/Marketplace.sol\":19274:19300  items[nftAddress][assetId] */\n      dup2\n      mstore\n      0x20\n      add\n      swap1\n      dup2\n      mstore\n      0x20\n      add\n      0x00\n      keccak256\n        /* \"contracts/Marketplace2/Marketplace.sol\":19274:19307  items[nftAddress][assetId].seller */\n      0x01\n      add\n      0x00\n        /* \"contracts/Marketplace2/Marketplace.sol\":19274:19316  items[nftAddress][assetId].seller = seller */\n      0x0100\n      exp\n      dup2\n      sload\n      dup2\n      0xffffffffffffffffffffffffffffffffffffffff\n      mul\n      not\n      and\n      swap1\n      dup4\n      0xffffffffffffffffffffffffffffffffffffffff\n      and\n      mul\n      or\n      swap1\n      sstore\n      pop\n        /* \"contracts/Marketplace2/Marketplace.sol\":18969:19327  if (item.id == 0) {... */\n    tag_163:\n        /* \"contracts/Marketplace2/Marketplace.sol\":19333:19344  nftRegistry */\n      dup3\n        /* \"contracts/Marketplace2/Marketplace.sol\":19333:19357  nftRegistry.transferFrom */\n      0xffffffffffffffffffffffffffffffffffffffff\n      and\n      0x23b872dd\n        /* \"contracts/Marketplace2/Marketplace.sol\":19358:19364  seller */\n      dup6\n        /* \"contracts/Marketplace2/Marketplace.sol\":19374:19378  this */\n      address\n        /* \"contracts/Marketplace2/Marketplace.sol\":19381:19388  assetId */\n      dup10\n        /* \"contracts/Marketplace2/Marketplace.sol\":19333:19389  nftRegistry.transferFrom(seller, address(this), assetId) */\n      mload(0x40)\n      dup5\n      0xffffffff\n      and\n      0xe0\n      shl\n      dup2\n      mstore\n      0x04\n      add\n      tag_173\n      swap4\n      swap3\n      swap2\n      swap1\n      tag_151\n      jump\t// in\n    tag_173:\n      0x00\n      mload(0x40)\n      dup1\n      dup4\n      sub\n      dup2\n      0x00\n      dup8\n      dup1\n      extcodesize\n      iszero\n      dup1\n      iszero\n      tag_174\n      jumpi\n      0x00\n      dup1\n      revert\n    tag_174:\n      pop\n      gas\n      call\n      iszero\n      dup1\n      iszero\n      tag_176\n      jumpi\n      returndatasize\n      0x00\n      dup1\n      returndatacopy\n      revert(0x00, returndatasize)\n    tag_176:\n      pop\n      pop\n      pop\n      pop\n        /* \"contracts/Marketplace2/Marketplace.sol\":19521:19527  seller */\n      dup4\n        /* \"contracts/Marketplace2/Marketplace.sol\":19404:19585  SellItemSuccessful(... */\n      0xffffffffffffffffffffffffffffffffffffffff\n      and\n        /* \"contracts/Marketplace2/Marketplace.sol\":19481:19488  assetId */\n      dup7\n        /* \"contracts/Marketplace2/Marketplace.sol\":19404:19585  SellItemSuccessful(... */\n      0xff2412bd5c66e6ad5153e35ee902ee32bb4393211a4d0662428b9b481929a7b9\n        /* \"contracts/Marketplace2/Marketplace.sol\":19436:19446  nftAddress */\n      dup10\n        /* \"contracts/Marketplace2/Marketplace.sol\":19460:19464  item */\n      dup5\n        /* \"contracts/Marketplace2/Marketplace.sol\":19460:19467  item.id */\n      0x00\n      add\n      mload\n        /* \"contracts/Marketplace2/Marketplace.sol\":19502:19507  price */\n      dup10\n        /* \"contracts/Marketplace2/Marketplace.sol\":19560:19575  block.timestamp */\n      timestamp\n        /* \"contracts/Marketplace2/Marketplace.sol\":19404:19585  SellItemSuccessful(... */\n      mload(0x40)\n      tag_177\n      swap5\n      swap4\n      swap3\n      swap2\n      swap1\n      tag_178\n      jump\t// in\n    tag_177:\n      mload(0x40)\n      dup1\n      swap2\n      sub\n      swap1\n      log3\n        /* \"contracts/Marketplace2/Marketplace.sol\":18309:19592  {... */\n      pop\n      pop\n      pop\n      pop\n        /* \"contracts/Marketplace2/Marketplace.sol\":18202:19592  function sellItem(... */\n      pop\n      pop\n      pop\n      jump\t// out\n        /* \"contracts/Marketplace2/Marketplace.sol\":2310:2411  function renounceOwnership() public virtual onlyOwner {... */\n    tag_64:\n        /* \"contracts/Marketplace2/Marketplace.sol\":1901:1913  _msgSender() */\n      tag_180\n        /* \"contracts/Marketplace2/Marketplace.sol\":1901:1911  _msgSender */\n      tag_181\n        /* \"contracts/Marketplace2/Marketplace.sol\":1901:1913  _msgSender() */\n      jump\t// in\n    tag_180:\n        /* \"contracts/Marketplace2/Marketplace.sol\":1890:1913  owner() == _msgSender() */\n      0xffffffffffffffffffffffffffffffffffffffff\n      and\n        /* \"contracts/Marketplace2/Marketplace.sol\":1890:1897  owner() */\n      tag_182\n        /* \"contracts/Marketplace2/Marketplace.sol\":1890:1895  owner */\n      tag_72\n        /* \"contracts/Marketplace2/Marketplace.sol\":1890:1897  owner() */\n      jump\t// in\n    tag_182:\n        /* \"contracts/Marketplace2/Marketplace.sol\":1890:1913  owner() == _msgSender() */\n      0xffffffffffffffffffffffffffffffffffffffff\n      and\n      eq\n        /* \"contracts/Marketplace2/Marketplace.sol\":1882:1950  require(owner() == _msgSender(), \"Ownable: caller is not the owner\") */\n      tag_183\n      jumpi\n      mload(0x40)\n      0x08c379a000000000000000000000000000000000000000000000000000000000\n      dup2\n      mstore\n      0x04\n      add\n      tag_184\n      swap1\n      tag_185\n      jump\t// in\n    tag_184:\n      mload(0x40)\n      dup1\n      swap2\n      sub\n      swap1\n      revert\n    tag_183:\n        /* \"contracts/Marketplace2/Marketplace.sol\":2374:2404  _transferOwnership(address(0)) */\n      tag_187\n        /* \"contracts/Marketplace2/Marketplace.sol\":2401:2402  0 */\n      0x00\n        /* \"contracts/Marketplace2/Marketplace.sol\":2374:2392  _transferOwnership */\n      tag_188\n        /* \"contracts/Marketplace2/Marketplace.sol\":2374:2404  _transferOwnership(address(0)) */\n      jump\t// in\n    tag_187:\n        /* \"contracts/Marketplace2/Marketplace.sol\":2310:2411  function renounceOwnership() public virtual onlyOwner {... */\n      jump\t// out\n        /* \"contracts/Marketplace2/Marketplace.sol\":16175:16201  uint8 public bnbFeePercent */\n    tag_67:\n      0x03\n      0x14\n      swap1\n      sload\n      swap1\n      0x0100\n      exp\n      swap1\n      div\n      0xff\n      and\n      dup2\n      jump\t// out\n        /* \"contracts/Marketplace2/Marketplace.sol\":1678:1763  function owner() public view virtual returns (address) {... */\n    tag_72:\n        /* \"contracts/Marketplace2/Marketplace.sol\":1724:1731  address */\n      0x00\n        /* \"contracts/Marketplace2/Marketplace.sol\":1750:1756  _owner */\n      0x04\n      0x00\n      swap1\n      sload\n      swap1\n      0x0100\n      exp\n      swap1\n      div\n      0xffffffffffffffffffffffffffffffffffffffff\n      and\n        /* \"contracts/Marketplace2/Marketplace.sol\":1743:1756  return _owner */\n      swap1\n      pop\n        /* \"contracts/Marketplace2/Marketplace.sol\":1678:1763  function owner() public view virtual returns (address) {... */\n      swap1\n      jump\t// out\n        /* \"contracts/Marketplace2/Marketplace.sol\":17547:17645  function setSQFToken(address _address) external onlyOwner {... */\n    tag_79:\n        /* \"contracts/Marketplace2/Marketplace.sol\":1901:1913  _msgSender() */\n      tag_191\n        /* \"contracts/Marketplace2/Marketplace.sol\":1901:1911  _msgSender */\n      tag_181\n        /* \"contracts/Marketplace2/Marketplace.sol\":1901:1913  _msgSender() */\n      jump\t// in\n    tag_191:\n        /* \"contracts/Marketplace2/Marketplace.sol\":1890:1913  owner() == _msgSender() */\n      0xffffffffffffffffffffffffffffffffffffffff\n      and\n        /* \"contracts/Marketplace2/Marketplace.sol\":1890:1897  owner() */\n      tag_192\n        /* \"contracts/Marketplace2/Marketplace.sol\":1890:1895  owner */\n      tag_72\n        /* \"contracts/Marketplace2/Marketplace.sol\":1890:1897  owner() */\n      jump\t// in\n    tag_192:\n        /* \"contracts/Marketplace2/Marketplace.sol\":1890:1913  owner() == _msgSender() */\n      0xffffffffffffffffffffffffffffffffffffffff\n      and\n      eq\n        /* \"contracts/Marketplace2/Marketplace.sol\":1882:1950  require(owner() == _msgSender(), \"Ownable: caller is not the owner\") */\n      tag_193\n      jumpi\n      mload(0x40)\n      0x08c379a000000000000000000000000000000000000000000000000000000000\n      dup2\n      mstore\n      0x04\n      add\n      tag_194\n      swap1\n      tag_185\n      jump\t// in\n    tag_194:\n      mload(0x40)\n      dup1\n      swap2\n      sub\n      swap1\n      revert\n    tag_193:\n        /* \"contracts/Marketplace2/Marketplace.sol\":17633:17641  _address */\n      dup1\n        /* \"contracts/Marketplace2/Marketplace.sol\":17615:17623  sqfToken */\n      0x03\n      0x00\n        /* \"contracts/Marketplace2/Marketplace.sol\":17615:17642  sqfToken = IERC20(_address) */\n      0x0100\n      exp\n      dup2\n      sload\n      dup2\n      0xffffffffffffffffffffffffffffffffffffffff\n      mul\n      not\n      and\n      swap1\n      dup4\n      0xffffffffffffffffffffffffffffffffffffffff\n      and\n      mul\n      or\n      swap1\n      sstore\n      pop\n        /* \"contracts/Marketplace2/Marketplace.sol\":17547:17645  function setSQFToken(address _address) external onlyOwner {... */\n      pop\n      jump\t// out\n        /* \"contracts/Marketplace2/Marketplace.sol\":16207:16234  uint8 public antaFeePercent */\n    tag_82:\n      0x03\n      0x15\n      swap1\n      sload\n      swap1\n      0x0100\n      exp\n      swap1\n      div\n      0xff\n      and\n      dup2\n      jump\t// out\n        /* \"contracts/Marketplace2/Marketplace.sol\":19596:20120  function createMarketSale(... */\n    tag_86:\n        /* \"contracts/Marketplace2/Marketplace.sol\":14167:14168  2 */\n      0x02\n        /* \"contracts/Marketplace2/Marketplace.sol\":14748:14755  _status */\n      sload(0x00)\n        /* \"contracts/Marketplace2/Marketplace.sol\":14748:14767  _status != _ENTERED */\n      sub\n        /* \"contracts/Marketplace2/Marketplace.sol\":14740:14803  require(_status != _ENTERED, \"ReentrancyGuard: reentrant call\") */\n      tag_197\n      jumpi\n      mload(0x40)\n      0x08c379a000000000000000000000000000000000000000000000000000000000\n      dup2\n      mstore\n      0x04\n      add\n      tag_198\n      swap1\n      tag_199\n      jump\t// in\n    tag_198:\n      mload(0x40)\n      dup1\n      swap2\n      sub\n      swap1\n      revert\n    tag_197:\n        /* \"contracts/Marketplace2/Marketplace.sol\":14167:14168  2 */\n      0x02\n        /* \"contracts/Marketplace2/Marketplace.sol\":14878:14885  _status */\n      0x00\n        /* \"contracts/Marketplace2/Marketplace.sol\":14878:14896  _status = _ENTERED */\n      dup2\n      swap1\n      sstore\n      pop\n        /* \"contracts/Marketplace2/Marketplace.sol\":19707:19717  uint price */\n      0x00\n        /* \"contracts/Marketplace2/Marketplace.sol\":19720:19734  idToMarketItem */\n      0x07\n        /* \"contracts/Marketplace2/Marketplace.sol\":19720:19742  idToMarketItem[itemId] */\n      0x00\n        /* \"contracts/Marketplace2/Marketplace.sol\":19735:19741  itemId */\n      dup4\n        /* \"contracts/Marketplace2/Marketplace.sol\":19720:19742  idToMarketItem[itemId] */\n      dup2\n      mstore\n      0x20\n      add\n      swap1\n      dup2\n      mstore\n      0x20\n      add\n      0x00\n      keccak256\n        /* \"contracts/Marketplace2/Marketplace.sol\":19720:19748  idToMarketItem[itemId].price */\n      0x05\n      add\n      sload\n        /* \"contracts/Marketplace2/Marketplace.sol\":19707:19748  uint price = idToMarketItem[itemId].price */\n      swap1\n      pop\n        /* \"contracts/Marketplace2/Marketplace.sol\":19754:19766  uint tokenId */\n      0x00\n        /* \"contracts/Marketplace2/Marketplace.sol\":19769:19783  idToMarketItem */\n      0x07\n        /* \"contracts/Marketplace2/Marketplace.sol\":19769:19791  idToMarketItem[itemId] */\n      0x00\n        /* \"contracts/Marketplace2/Marketplace.sol\":19784:19790  itemId */\n      dup5\n        /* \"contracts/Marketplace2/Marketplace.sol\":19769:19791  idToMarketItem[itemId] */\n      dup2\n      mstore\n      0x20\n      add\n      swap1\n      dup2\n      mstore\n      0x20\n      add\n      0x00\n      keccak256\n        /* \"contracts/Marketplace2/Marketplace.sol\":19769:19799  idToMarketItem[itemId].tokenId */\n      0x02\n      add\n      sload\n        /* \"contracts/Marketplace2/Marketplace.sol\":19754:19799  uint tokenId = idToMarketItem[itemId].tokenId */\n      swap1\n      pop\n        /* \"contracts/Marketplace2/Marketplace.sol\":19826:19831  price */\n      dup2\n        /* \"contracts/Marketplace2/Marketplace.sol\":19813:19822  msg.value */\n      callvalue\n        /* \"contracts/Marketplace2/Marketplace.sol\":19813:19831  msg.value == price */\n      eq\n        /* \"contracts/Marketplace2/Marketplace.sol\":19805:19900  require(msg.value == price, \"Please submit the asking price in order to complete the purchase\") */\n      tag_201\n      jumpi\n      mload(0x40)\n      0x08c379a000000000000000000000000000000000000000000000000000000000\n      dup2\n      mstore\n      0x04\n      add\n      tag_202\n      swap1\n      tag_203\n      jump\t// in\n    tag_202:\n      mload(0x40)\n      dup1\n      swap2\n      sub\n      swap1\n      revert\n    tag_201:\n        /* \"contracts/Marketplace2/Marketplace.sol\":19907:19921  idToMarketItem */\n      0x07\n        /* \"contracts/Marketplace2/Marketplace.sol\":19907:19929  idToMarketItem[itemId] */\n      0x00\n        /* \"contracts/Marketplace2/Marketplace.sol\":19922:19928  itemId */\n      dup5\n        /* \"contracts/Marketplace2/Marketplace.sol\":19907:19929  idToMarketItem[itemId] */\n      dup2\n      mstore\n      0x20\n      add\n      swap1\n      dup2\n      mstore\n      0x20\n      add\n      0x00\n      keccak256\n        /* \"contracts/Marketplace2/Marketplace.sol\":19907:19936  idToMarketItem[itemId].seller */\n      0x03\n      add\n      0x00\n      swap1\n      sload\n      swap1\n      0x0100\n      exp\n      swap1\n      div\n      0xffffffffffffffffffffffffffffffffffffffff\n      and\n        /* \"contracts/Marketplace2/Marketplace.sol\":19907:19945  idToMarketItem[itemId].seller.transfer */\n      0xffffffffffffffffffffffffffffffffffffffff\n      and\n        /* \"contracts/Marketplace2/Marketplace.sol\":19907:19956  idToMarketItem[itemId].seller.transfer(msg.value) */\n      0x08fc\n        /* \"contracts/Marketplace2/Marketplace.sol\":19946:19955  msg.value */\n      callvalue\n        /* \"contracts/Marketplace2/Marketplace.sol\":19907:19956  idToMarketItem[itemId].seller.transfer(msg.value) */\n      swap1\n      dup2\n      iszero\n      mul\n      swap1\n      mload(0x40)\n      0x00\n      mload(0x40)\n      dup1\n      dup4\n      sub\n      dup2\n      dup6\n      dup9\n      dup9\n      call\n      swap4\n      pop\n      pop\n      pop\n      pop\n      iszero\n      dup1\n      iszero\n      tag_205\n      jumpi\n      returndatasize\n      0x00\n      dup1\n      returndatacopy\n      revert(0x00, returndatasize)\n    tag_205:\n      pop\n        /* \"contracts/Marketplace2/Marketplace.sol\":19970:19981  nftContract */\n      dup4\n        /* \"contracts/Marketplace2/Marketplace.sol\":19962:19995  IERC721(nftContract).transferFrom */\n      0xffffffffffffffffffffffffffffffffffffffff\n      and\n      0x23b872dd\n        /* \"contracts/Marketplace2/Marketplace.sol\":20004:20008  this */\n      address\n        /* \"contracts/Marketplace2/Marketplace.sol\":20011:20021  msg.sender */\n      caller\n        /* \"contracts/Marketplace2/Marketplace.sol\":20023:20030  tokenId */\n      dup5\n        /* \"contracts/Marketplace2/Marketplace.sol\":19962:20031  IERC721(nftContract).transferFrom(address(this), msg.sender, tokenId) */\n      mload(0x40)\n      dup5\n      0xffffffff\n      and\n      0xe0\n      shl\n      dup2\n      mstore\n      0x04\n      add\n      tag_206\n      swap4\n      swap3\n      swap2\n      swap1\n      tag_151\n      jump\t// in\n    tag_206:\n      0x00\n      mload(0x40)\n      dup1\n      dup4\n      sub\n      dup2\n      0x00\n      dup8\n      dup1\n      extcodesize\n      iszero\n      dup1\n      iszero\n      tag_207\n      jumpi\n      0x00\n      dup1\n      revert\n    tag_207:\n      pop\n      gas\n      call\n      iszero\n      dup1\n      iszero\n      tag_209\n      jumpi\n      returndatasize\n      0x00\n      dup1\n      returndatacopy\n      revert(0x00, returndatasize)\n    tag_209:\n      pop\n      pop\n      pop\n      pop\n        /* \"contracts/Marketplace2/Marketplace.sol\":20076:20086  msg.sender */\n      caller\n        /* \"contracts/Marketplace2/Marketplace.sol\":20037:20051  idToMarketItem */\n      0x07\n        /* \"contracts/Marketplace2/Marketplace.sol\":20037:20059  idToMarketItem[itemId] */\n      0x00\n        /* \"contracts/Marketplace2/Marketplace.sol\":20052:20058  itemId */\n      dup6\n        /* \"contracts/Marketplace2/Marketplace.sol\":20037:20059  idToMarketItem[itemId] */\n      dup2\n      mstore\n      0x20\n      add\n      swap1\n      dup2\n      mstore\n      0x20\n      add\n      0x00\n      keccak256\n        /* \"contracts/Marketplace2/Marketplace.sol\":20037:20065  idToMarketItem[itemId].owner */\n      0x04\n      add\n      0x00\n        /* \"contracts/Marketplace2/Marketplace.sol\":20037:20087  idToMarketItem[itemId].owner = payable(msg.sender) */\n      0x0100\n      exp\n      dup2\n      sload\n      dup2\n      0xffffffffffffffffffffffffffffffffffffffff\n      mul\n      not\n      and\n      swap1\n      dup4\n      0xffffffffffffffffffffffffffffffffffffffff\n      and\n      mul\n      or\n      swap1\n      sstore\n      pop\n        /* \"contracts/Marketplace2/Marketplace.sol\":20093:20115  _itemsSold.increment() */\n      tag_210\n        /* \"contracts/Marketplace2/Marketplace.sol\":20093:20103  _itemsSold */\n      0x06\n        /* \"contracts/Marketplace2/Marketplace.sol\":20093:20113  _itemsSold.increment */\n      tag_139\n        /* \"contracts/Marketplace2/Marketplace.sol\":20093:20115  _itemsSold.increment() */\n      jump\t// in\n    tag_210:\n        /* \"contracts/Marketplace2/Marketplace.sol\":19701:20120  {... */\n      pop\n      pop\n        /* \"contracts/Marketplace2/Marketplace.sol\":14124:14125  1 */\n      0x01\n        /* \"contracts/Marketplace2/Marketplace.sol\":15051:15058  _status */\n      0x00\n        /* \"contracts/Marketplace2/Marketplace.sol\":15051:15073  _status = _NOT_ENTERED */\n      dup2\n      swap1\n      sstore\n      pop\n        /* \"contracts/Marketplace2/Marketplace.sol\":19596:20120  function createMarketSale(... */\n      pop\n      pop\n      jump\t// out\n        /* \"contracts/Marketplace2/Marketplace.sol\":17414:17545  function getMarketItem(uint256 marketItemId) public view returns (MarketItem memory) {... */\n    tag_90:\n        /* \"contracts/Marketplace2/Marketplace.sol\":17480:17497  MarketItem memory */\n      tag_211\n      tag_118\n      jump\t// in\n    tag_211:\n        /* \"contracts/Marketplace2/Marketplace.sol\":17512:17526  idToMarketItem */\n      0x07\n        /* \"contracts/Marketplace2/Marketplace.sol\":17512:17540  idToMarketItem[marketItemId] */\n      0x00\n        /* \"contracts/Marketplace2/Marketplace.sol\":17527:17539  marketItemId */\n      dup4\n        /* \"contracts/Marketplace2/Marketplace.sol\":17512:17540  idToMarketItem[marketItemId] */\n      dup2\n      mstore\n      0x20\n      add\n      swap1\n      dup2\n      mstore\n      0x20\n      add\n      0x00\n      keccak256\n        /* \"contracts/Marketplace2/Marketplace.sol\":17505:17540  return idToMarketItem[marketItemId] */\n      mload(0x40)\n      dup1\n      0xc0\n      add\n      0x40\n      mstore\n      swap1\n      dup2\n      0x00\n      dup3\n      add\n      sload\n      dup2\n      mstore\n      0x20\n      add\n      0x01\n      dup3\n      add\n      0x00\n      swap1\n      sload\n      swap1\n      0x0100\n      exp\n      swap1\n      div\n      0xffffffffffffffffffffffffffffffffffffffff\n      and\n      0xffffffffffffffffffffffffffffffffffffffff\n      and\n      0xffffffffffffffffffffffffffffffffffffffff\n      and\n      dup2\n      mstore\n      0x20\n      add\n      0x02\n      dup3\n      add\n      sload\n      dup2\n      mstore\n      0x20\n      add\n      0x03\n      dup3\n      add\n      0x00\n      swap1\n      sload\n      swap1\n      0x0100\n      exp\n      swap1\n      div\n      0xffffffffffffffffffffffffffffffffffffffff\n      and\n      0xffffffffffffffffffffffffffffffffffffffff\n      and\n      0xffffffffffffffffffffffffffffffffffffffff\n      and\n      dup2\n      mstore\n      0x20\n      add\n      0x04\n      dup3\n      add\n      0x00\n      swap1\n      sload\n      swap1\n      0x0100\n      exp\n      swap1\n      div\n      0xffffffffffffffffffffffffffffffffffffffff\n      and\n      0xffffffffffffffffffffffffffffffffffffffff\n      and\n      0xffffffffffffffffffffffffffffffffffffffff\n      and\n      dup2\n      mstore\n      0x20\n      add\n      0x05\n      dup3\n      add\n      sload\n      dup2\n      mstore\n      pop\n      pop\n      swap1\n      pop\n        /* \"contracts/Marketplace2/Marketplace.sol\":17414:17545  function getMarketItem(uint256 marketItemId) public view returns (MarketItem memory) {... */\n      swap2\n      swap1\n      pop\n      jump\t// out\n        /* \"contracts/Marketplace2/Marketplace.sol\":21640:22936  function buyItemBySQF(... */\n    tag_95:\n        /* \"contracts/Marketplace2/Marketplace.sol\":21765:21791  _requireERC721(nftAddress) */\n      tag_214\n        /* \"contracts/Marketplace2/Marketplace.sol\":21780:21790  nftAddress */\n      dup4\n        /* \"contracts/Marketplace2/Marketplace.sol\":21765:21779  _requireERC721 */\n      tag_137\n        /* \"contracts/Marketplace2/Marketplace.sol\":21765:21791  _requireERC721(nftAddress) */\n      jump\t// in\n    tag_214:\n        /* \"contracts/Marketplace2/Marketplace.sol\":21802:21816  address sender */\n      0x00\n        /* \"contracts/Marketplace2/Marketplace.sol\":21819:21829  msg.sender */\n      caller\n        /* \"contracts/Marketplace2/Marketplace.sol\":21802:21829  address sender = msg.sender */\n      swap1\n      pop\n        /* \"contracts/Marketplace2/Marketplace.sol\":21839:21858  IERC721 nftRegistry */\n      0x00\n        /* \"contracts/Marketplace2/Marketplace.sol\":21869:21879  nftAddress */\n      dup5\n        /* \"contracts/Marketplace2/Marketplace.sol\":21839:21880  IERC721 nftRegistry = IERC721(nftAddress) */\n      swap1\n      pop\n        /* \"contracts/Marketplace2/Marketplace.sol\":21890:21906  Item memory item */\n      0x00\n        /* \"contracts/Marketplace2/Marketplace.sol\":21909:21914  items */\n      0x01\n        /* \"contracts/Marketplace2/Marketplace.sol\":21909:21926  items[nftAddress] */\n      0x00\n        /* \"contracts/Marketplace2/Marketplace.sol\":21915:21925  nftAddress */\n      dup8\n        /* \"contracts/Marketplace2/Marketplace.sol\":21909:21926  items[nftAddress] */\n      0xffffffffffffffffffffffffffffffffffffffff\n      and\n      0xffffffffffffffffffffffffffffffffffffffff\n      and\n      dup2\n      mstore\n      0x20\n      add\n      swap1\n      dup2\n      mstore\n      0x20\n      add\n      0x00\n      keccak256\n        /* \"contracts/Marketplace2/Marketplace.sol\":21909:21935  items[nftAddress][assetId] */\n      0x00\n        /* \"contracts/Marketplace2/Marketplace.sol\":21927:21934  assetId */\n      dup7\n        /* \"contracts/Marketplace2/Marketplace.sol\":21909:21935  items[nftAddress][assetId] */\n      dup2\n      mstore\n      0x20\n      add\n      swap1\n      dup2\n      mstore\n      0x20\n      add\n      0x00\n      keccak256\n        /* \"contracts/Marketplace2/Marketplace.sol\":21890:21935  Item memory item = items[nftAddress][assetId] */\n      mload(0x40)\n      dup1\n      0xc0\n      add\n      0x40\n      mstore\n      swap1\n      dup2\n      0x00\n      dup3\n      add\n      sload\n      dup2\n      mstore\n      0x20\n      add\n      0x01\n      dup3\n      add\n      0x00\n      swap1\n      sload\n      swap1\n      0x0100\n      exp\n      swap1\n      div\n      0xffffffffffffffffffffffffffffffffffffffff\n      and\n      0xffffffffffffffffffffffffffffffffffffffff\n      and\n      0xffffffffffffffffffffffffffffffffffffffff\n      and\n      dup2\n      mstore\n      0x20\n      add\n      0x02\n      dup3\n      add\n      0x00\n      swap1\n      sload\n      swap1\n      0x0100\n      exp\n      swap1\n      div\n      0xffffffffffffffffffffffffffffffffffffffff\n      and\n      0xffffffffffffffffffffffffffffffffffffffff\n      and\n      0xffffffffffffffffffffffffffffffffffffffff\n      and\n      dup2\n      mstore\n      0x20\n      add\n      0x03\n      dup3\n      add\n      sload\n      dup2\n      mstore\n      0x20\n      add\n      0x04\n      dup3\n      add\n      sload\n      dup2\n      mstore\n      0x20\n      add\n      0x05\n      dup3\n      add\n      0x00\n      swap1\n      sload\n      swap1\n      0x0100\n      exp\n      swap1\n      div\n      0xff\n      and\n      0x04\n      dup2\n      gt\n      iszero\n      tag_215\n      jumpi\n      tag_216\n      tag_157\n      jump\t// in\n    tag_216:\n    tag_215:\n      0x04\n      dup2\n      gt\n      iszero\n      tag_217\n      jumpi\n      tag_218\n      tag_157\n      jump\t// in\n    tag_218:\n    tag_217:\n      dup2\n      mstore\n      pop\n      pop\n      swap1\n      pop\n        /* \"contracts/Marketplace2/Marketplace.sol\":21965:21966  0 */\n      0x00\n        /* \"contracts/Marketplace2/Marketplace.sol\":21954:21966  item.id != 0 */\n      dup1\n      shl\n        /* \"contracts/Marketplace2/Marketplace.sol\":21954:21958  item */\n      dup2\n        /* \"contracts/Marketplace2/Marketplace.sol\":21954:21961  item.id */\n      0x00\n      add\n      mload\n        /* \"contracts/Marketplace2/Marketplace.sol\":21954:21966  item.id != 0 */\n      sub\n        /* \"contracts/Marketplace2/Marketplace.sol\":21946:21990  require(item.id != 0, \"Asset not published\") */\n      tag_219\n      jumpi\n      mload(0x40)\n      0x08c379a000000000000000000000000000000000000000000000000000000000\n      dup2\n      mstore\n      0x04\n      add\n      tag_220\n      swap1\n      tag_221\n      jump\t// in\n    tag_220:\n      mload(0x40)\n      dup1\n      swap2\n      sub\n      swap1\n      revert\n    tag_219:\n        /* \"contracts/Marketplace2/Marketplace.sol\":22023:22038  ItemStatus.LIST */\n      0x01\n        /* \"contracts/Marketplace2/Marketplace.sol\":22008:22038  item.status == ItemStatus.LIST */\n      0x04\n      dup2\n      gt\n      iszero\n      tag_222\n      jumpi\n      tag_223\n      tag_157\n      jump\t// in\n    tag_223:\n    tag_222:\n        /* \"contracts/Marketplace2/Marketplace.sol\":22008:22012  item */\n      dup2\n        /* \"contracts/Marketplace2/Marketplace.sol\":22008:22019  item.status */\n      0xa0\n      add\n      mload\n        /* \"contracts/Marketplace2/Marketplace.sol\":22008:22038  item.status == ItemStatus.LIST */\n      0x04\n      dup2\n      gt\n      iszero\n      tag_224\n      jumpi\n      tag_225\n      tag_157\n      jump\t// in\n    tag_225:\n    tag_224:\n      eq\n        /* \"contracts/Marketplace2/Marketplace.sol\":22000:22067  require(item.status == ItemStatus.LIST, \"Asset is not list to buy\") */\n      tag_226\n      jumpi\n      mload(0x40)\n      0x08c379a000000000000000000000000000000000000000000000000000000000\n      dup2\n      mstore\n      0x04\n      add\n      tag_227\n      swap1\n      tag_228\n      jump\t// in\n    tag_227:\n      mload(0x40)\n      dup1\n      swap2\n      sub\n      swap1\n      revert\n    tag_226:\n        /* \"contracts/Marketplace2/Marketplace.sol\":22078:22092  address seller */\n      0x00\n        /* \"contracts/Marketplace2/Marketplace.sol\":22095:22099  item */\n      dup2\n        /* \"contracts/Marketplace2/Marketplace.sol\":22095:22106  item.seller */\n      0x20\n      add\n      mload\n        /* \"contracts/Marketplace2/Marketplace.sol\":22078:22106  address seller = item.seller */\n      swap1\n      pop\n        /* \"contracts/Marketplace2/Marketplace.sol\":22143:22144  0 */\n      0x00\n        /* \"contracts/Marketplace2/Marketplace.sol\":22125:22145  seller != address(0) */\n      0xffffffffffffffffffffffffffffffffffffffff\n      and\n        /* \"contracts/Marketplace2/Marketplace.sol\":22125:22131  seller */\n      dup2\n        /* \"contracts/Marketplace2/Marketplace.sol\":22125:22145  seller != address(0) */\n      0xffffffffffffffffffffffffffffffffffffffff\n      and\n      sub\n        /* \"contracts/Marketplace2/Marketplace.sol\":22117:22165  require(seller != address(0), \"Invalid address\") */\n      tag_229\n      jumpi\n      mload(0x40)\n      0x08c379a000000000000000000000000000000000000000000000000000000000\n      dup2\n      mstore\n      0x04\n      add\n      tag_230\n      swap1\n      tag_231\n      jump\t// in\n    tag_230:\n      mload(0x40)\n      dup1\n      swap2\n      sub\n      swap1\n      revert\n    tag_229:\n        /* \"contracts/Marketplace2/Marketplace.sol\":22196:22200  item */\n      dup2\n        /* \"contracts/Marketplace2/Marketplace.sol\":22196:22210  item.priceAnta */\n      0x80\n      add\n      mload\n        /* \"contracts/Marketplace2/Marketplace.sol\":22183:22192  priceAnta */\n      dup6\n        /* \"contracts/Marketplace2/Marketplace.sol\":22183:22210  priceAnta >= item.priceAnta */\n      lt\n      iszero\n        /* \"contracts/Marketplace2/Marketplace.sol\":22175:22245  require(priceAnta >= item.priceAnta, \"price need equal listing price\") */\n      tag_232\n      jumpi\n      mload(0x40)\n      0x08c379a000000000000000000000000000000000000000000000000000000000\n      dup2\n      mstore\n      0x04\n      add\n      tag_233\n      swap1\n      tag_234\n      jump\t// in\n    tag_233:\n      mload(0x40)\n      dup1\n      swap2\n      sub\n      swap1\n      revert\n    tag_232:\n        /* \"contracts/Marketplace2/Marketplace.sol\":22256:22267  uint256 fee */\n      0x00\n        /* \"contracts/Marketplace2/Marketplace.sol\":22301:22304  100 */\n      0x64\n        /* \"contracts/Marketplace2/Marketplace.sol\":22288:22297  priceAnta */\n      dup7\n        /* \"contracts/Marketplace2/Marketplace.sol\":22271:22285  antaFeePercent */\n      0x03\n      0x15\n      swap1\n      sload\n      swap1\n      0x0100\n      exp\n      swap1\n      div\n      0xff\n      and\n        /* \"contracts/Marketplace2/Marketplace.sol\":22271:22297  antaFeePercent * priceAnta */\n      0xff\n      and\n      tag_235\n      swap2\n      swap1\n      tag_236\n      jump\t// in\n    tag_235:\n        /* \"contracts/Marketplace2/Marketplace.sol\":22270:22304  (antaFeePercent * priceAnta) / 100 */\n      tag_237\n      swap2\n      swap1\n      tag_238\n      jump\t// in\n    tag_237:\n        /* \"contracts/Marketplace2/Marketplace.sol\":22256:22304  uint256 fee = (antaFeePercent * priceAnta) / 100 */\n      swap1\n      pop\n        /* \"contracts/Marketplace2/Marketplace.sol\":22314:22334  uint256 remainAmount */\n      0x00\n        /* \"contracts/Marketplace2/Marketplace.sol\":22349:22352  fee */\n      dup2\n        /* \"contracts/Marketplace2/Marketplace.sol\":22337:22346  priceAnta */\n      dup8\n        /* \"contracts/Marketplace2/Marketplace.sol\":22337:22352  priceAnta - fee */\n      tag_239\n      swap2\n      swap1\n      tag_240\n      jump\t// in\n    tag_239:\n        /* \"contracts/Marketplace2/Marketplace.sol\":22314:22352  uint256 remainAmount = priceAnta - fee */\n      swap1\n      pop\n        /* \"contracts/Marketplace2/Marketplace.sol\":22362:22370  sqfToken */\n      0x03\n      0x00\n      swap1\n      sload\n      swap1\n      0x0100\n      exp\n      swap1\n      div\n      0xffffffffffffffffffffffffffffffffffffffff\n      and\n        /* \"contracts/Marketplace2/Marketplace.sol\":22362:22383  sqfToken.transferFrom */\n      0xffffffffffffffffffffffffffffffffffffffff\n      and\n      0x23b872dd\n        /* \"contracts/Marketplace2/Marketplace.sol\":22384:22390  sender */\n      dup8\n        /* \"contracts/Marketplace2/Marketplace.sol\":22400:22404  this */\n      address\n        /* \"contracts/Marketplace2/Marketplace.sol\":22407:22410  fee */\n      dup6\n        /* \"contracts/Marketplace2/Marketplace.sol\":22362:22411  sqfToken.transferFrom(sender, address(this), fee) */\n      mload(0x40)\n      dup5\n      0xffffffff\n      and\n      0xe0\n      shl\n      dup2\n      mstore\n      0x04\n      add\n      tag_241\n      swap4\n      swap3\n      swap2\n      swap1\n      tag_151\n      jump\t// in\n    tag_241:\n      0x20\n      mload(0x40)\n      dup1\n      dup4\n      sub\n      dup2\n      0x00\n      dup8\n      gas\n      call\n      iszero\n      dup1\n      iszero\n      tag_243\n      jumpi\n      returndatasize\n      0x00\n      dup1\n      returndatacopy\n      revert(0x00, returndatasize)\n    tag_243:\n      pop\n      pop\n      pop\n      pop\n      mload(0x40)\n      returndatasize\n      not(0x1f)\n      0x1f\n      dup3\n      add\n      and\n      dup3\n      add\n      dup1\n      0x40\n      mstore\n      pop\n      dup2\n      add\n      swap1\n      tag_244\n      swap2\n      swap1\n      tag_245\n      jump\t// in\n    tag_244:\n      pop\n        /* \"contracts/Marketplace2/Marketplace.sol\":22421:22429  sqfToken */\n      0x03\n      0x00\n      swap1\n      sload\n      swap1\n      0x0100\n      exp\n      swap1\n      div\n      0xffffffffffffffffffffffffffffffffffffffff\n      and\n        /* \"contracts/Marketplace2/Marketplace.sol\":22421:22442  sqfToken.transferFrom */\n      0xffffffffffffffffffffffffffffffffffffffff\n      and\n      0x23b872dd\n        /* \"contracts/Marketplace2/Marketplace.sol\":22443:22449  sender */\n      dup8\n        /* \"contracts/Marketplace2/Marketplace.sol\":22451:22457  seller */\n      dup6\n        /* \"contracts/Marketplace2/Marketplace.sol\":22459:22471  remainAmount */\n      dup5\n        /* \"contracts/Marketplace2/Marketplace.sol\":22421:22472  sqfToken.transferFrom(sender, seller, remainAmount) */\n      mload(0x40)\n      dup5\n      0xffffffff\n      and\n      0xe0\n      shl\n      dup2\n      mstore\n      0x04\n      add\n      tag_246\n      swap4\n      swap3\n      swap2\n      swap1\n      tag_151\n      jump\t// in\n    tag_246:\n      0x20\n      mload(0x40)\n      dup1\n      dup4\n      sub\n      dup2\n      0x00\n      dup8\n      gas\n      call\n      iszero\n      dup1\n      iszero\n      tag_248\n      jumpi\n      returndatasize\n      0x00\n      dup1\n      returndatacopy\n      revert(0x00, returndatasize)\n    tag_248:\n      pop\n      pop\n      pop\n      pop\n      mload(0x40)\n      returndatasize\n      not(0x1f)\n      0x1f\n      dup3\n      add\n      and\n      dup3\n      add\n      dup1\n      0x40\n      mstore\n      pop\n      dup2\n      add\n      swap1\n      tag_249\n      swap2\n      swap1\n      tag_245\n      jump\t// in\n    tag_249:\n      pop\n        /* \"contracts/Marketplace2/Marketplace.sol\":22482:22493  nftRegistry */\n      dup5\n        /* \"contracts/Marketplace2/Marketplace.sol\":22482:22510  nftRegistry.safeTransferFrom */\n      0xffffffffffffffffffffffffffffffffffffffff\n      and\n      0x42842e0e\n        /* \"contracts/Marketplace2/Marketplace.sol\":22519:22523  this */\n      address\n        /* \"contracts/Marketplace2/Marketplace.sol\":22526:22532  sender */\n      dup9\n        /* \"contracts/Marketplace2/Marketplace.sol\":22534:22541  assetId */\n      dup12\n        /* \"contracts/Marketplace2/Marketplace.sol\":22482:22542  nftRegistry.safeTransferFrom(address(this), sender, assetId) */\n      mload(0x40)\n      dup5\n      0xffffffff\n      and\n      0xe0\n      shl\n      dup2\n      mstore\n      0x04\n      add\n      tag_250\n      swap4\n      swap3\n      swap2\n      swap1\n      tag_151\n      jump\t// in\n    tag_250:\n      0x00\n      mload(0x40)\n      dup1\n      dup4\n      sub\n      dup2\n      0x00\n      dup8\n      dup1\n      extcodesize\n      iszero\n      dup1\n      iszero\n      tag_251\n      jumpi\n      0x00\n      dup1\n      revert\n    tag_251:\n      pop\n      gas\n      call\n      iszero\n      dup1\n      iszero\n      tag_253\n      jumpi\n      returndatasize\n      0x00\n      dup1\n      returndatacopy\n      revert(0x00, returndatasize)\n    tag_253:\n      pop\n      pop\n      pop\n      pop\n        /* \"contracts/Marketplace2/Marketplace.sol\":22589:22595  sender */\n      dup6\n        /* \"contracts/Marketplace2/Marketplace.sol\":22553:22558  items */\n      0x01\n        /* \"contracts/Marketplace2/Marketplace.sol\":22553:22570  items[nftAddress] */\n      0x00\n        /* \"contracts/Marketplace2/Marketplace.sol\":22559:22569  nftAddress */\n      dup12\n        /* \"contracts/Marketplace2/Marketplace.sol\":22553:22570  items[nftAddress] */\n      0xffffffffffffffffffffffffffffffffffffffff\n      and\n      0xffffffffffffffffffffffffffffffffffffffff\n      and\n      dup2\n      mstore\n      0x20\n      add\n      swap1\n      dup2\n      mstore\n      0x20\n      add\n      0x00\n      keccak256\n        /* \"contracts/Marketplace2/Marketplace.sol\":22553:22579  items[nftAddress][assetId] */\n      0x00\n        /* \"contracts/Marketplace2/Marketplace.sol\":22571:22578  assetId */\n      dup11\n        /* \"contracts/Marketplace2/Marketplace.sol\":22553:22579  items[nftAddress][assetId] */\n      dup2\n      mstore\n      0x20\n      add\n      swap1\n      dup2\n      mstore\n      0x20\n      add\n      0x00\n      keccak256\n        /* \"contracts/Marketplace2/Marketplace.sol\":22553:22586  items[nftAddress][assetId].seller */\n      0x01\n      add\n      0x00\n        /* \"contracts/Marketplace2/Marketplace.sol\":22553:22595  items[nftAddress][assetId].seller = sender */\n      0x0100\n      exp\n      dup2\n      sload\n      dup2\n      0xffffffffffffffffffffffffffffffffffffffff\n      mul\n      not\n      and\n      swap1\n      dup4\n      0xffffffffffffffffffffffffffffffffffffffff\n      and\n      mul\n      or\n      swap1\n      sstore\n      pop\n        /* \"contracts/Marketplace2/Marketplace.sol\":22641:22658  ItemStatus.BOUGHT */\n      0x02\n        /* \"contracts/Marketplace2/Marketplace.sol\":22605:22610  items */\n      0x01\n        /* \"contracts/Marketplace2/Marketplace.sol\":22605:22622  items[nftAddress] */\n      0x00\n        /* \"contracts/Marketplace2/Marketplace.sol\":22611:22621  nftAddress */\n      dup12\n        /* \"contracts/Marketplace2/Marketplace.sol\":22605:22622  items[nftAddress] */\n      0xffffffffffffffffffffffffffffffffffffffff\n      and\n      0xffffffffffffffffffffffffffffffffffffffff\n      and\n      dup2\n      mstore\n      0x20\n      add\n      swap1\n      dup2\n      mstore\n      0x20\n      add\n      0x00\n      keccak256\n        /* \"contracts/Marketplace2/Marketplace.sol\":22605:22631  items[nftAddress][assetId] */\n      0x00\n        /* \"contracts/Marketplace2/Marketplace.sol\":22623:22630  assetId */\n      dup11\n        /* \"contracts/Marketplace2/Marketplace.sol\":22605:22631  items[nftAddress][assetId] */\n      dup2\n      mstore\n      0x20\n      add\n      swap1\n      dup2\n      mstore\n      0x20\n      add\n      0x00\n      keccak256\n        /* \"contracts/Marketplace2/Marketplace.sol\":22605:22638  items[nftAddress][assetId].status */\n      0x05\n      add\n      0x00\n        /* \"contracts/Marketplace2/Marketplace.sol\":22605:22658  items[nftAddress][assetId].status = ItemStatus.BOUGHT */\n      0x0100\n      exp\n      dup2\n      sload\n      dup2\n      0xff\n      mul\n      not\n      and\n      swap1\n      dup4\n      0x04\n      dup2\n      gt\n      iszero\n      tag_254\n      jumpi\n      tag_255\n      tag_157\n      jump\t// in\n    tag_255:\n    tag_254:\n      mul\n      or\n      swap1\n      sstore\n      pop\n        /* \"contracts/Marketplace2/Marketplace.sol\":22864:22870  sender */\n      dup6\n        /* \"contracts/Marketplace2/Marketplace.sol\":22674:22929  BuyItemSuccessful(... */\n      0xffffffffffffffffffffffffffffffffffffffff\n      and\n        /* \"contracts/Marketplace2/Marketplace.sol\":22747:22753  seller */\n      dup4\n        /* \"contracts/Marketplace2/Marketplace.sol\":22674:22929  BuyItemSuccessful(... */\n      0xffffffffffffffffffffffffffffffffffffffff\n      and\n        /* \"contracts/Marketplace2/Marketplace.sol\":22726:22733  assetId */\n      dup10\n        /* \"contracts/Marketplace2/Marketplace.sol\":22674:22929  BuyItemSuccessful(... */\n      0x30247e11bbb597dfefd2a3124026f1ef8987a4d6ba46e3629f80bac1b0c9faee\n        /* \"contracts/Marketplace2/Marketplace.sol\":22705:22709  item */\n      dup8\n        /* \"contracts/Marketplace2/Marketplace.sol\":22705:22712  item.id */\n      0x00\n      add\n      mload\n        /* \"contracts/Marketplace2/Marketplace.sol\":22767:22777  nftAddress */\n      dup14\n        /* \"contracts/Marketplace2/Marketplace.sol\":22791:22795  item */\n      dup10\n        /* \"contracts/Marketplace2/Marketplace.sol\":22791:22805  item.priceAnta */\n      0x80\n      add\n      mload\n        /* \"contracts/Marketplace2/Marketplace.sol\":22819:22833  antaFeePercent */\n      0x03\n      0x15\n      swap1\n      sload\n      swap1\n      0x0100\n      exp\n      swap1\n      div\n      0xff\n      and\n        /* \"contracts/Marketplace2/Marketplace.sol\":22847:22850  fee */\n      dup10\n        /* \"contracts/Marketplace2/Marketplace.sol\":22904:22919  block.timestamp */\n      timestamp\n        /* \"contracts/Marketplace2/Marketplace.sol\":22674:22929  BuyItemSuccessful(... */\n      mload(0x40)\n      tag_256\n      swap7\n      swap6\n      swap5\n      swap4\n      swap3\n      swap2\n      swap1\n      tag_257\n      jump\t// in\n    tag_256:\n      mload(0x40)\n      dup1\n      swap2\n      sub\n      swap1\n      log4\n        /* \"contracts/Marketplace2/Marketplace.sol\":21755:22936  {... */\n      pop\n      pop\n      pop\n      pop\n      pop\n      pop\n        /* \"contracts/Marketplace2/Marketplace.sol\":21640:22936  function buyItemBySQF(... */\n      pop\n      pop\n      pop\n      jump\t// out\n        /* \"contracts/Marketplace2/Marketplace.sol\":2560:2758  function transferOwnership(address newOwner) public virtual onlyOwner {... */\n    tag_99:\n        /* \"contracts/Marketplace2/Marketplace.sol\":1901:1913  _msgSender() */\n      tag_259\n        /* \"contracts/Marketplace2/Marketplace.sol\":1901:1911  _msgSender */\n      tag_181\n        /* \"contracts/Marketplace2/Marketplace.sol\":1901:1913  _msgSender() */\n      jump\t// in\n    tag_259:\n        /* \"contracts/Marketplace2/Marketplace.sol\":1890:1913  owner() == _msgSender() */\n      0xffffffffffffffffffffffffffffffffffffffff\n      and\n        /* \"contracts/Marketplace2/Marketplace.sol\":1890:1897  owner() */\n      tag_260\n        /* \"contracts/Marketplace2/Marketplace.sol\":1890:1895  owner */\n      tag_72\n        /* \"contracts/Marketplace2/Marketplace.sol\":1890:1897  owner() */\n      jump\t// in\n    tag_260:\n        /* \"contracts/Marketplace2/Marketplace.sol\":1890:1913  owner() == _msgSender() */\n      0xffffffffffffffffffffffffffffffffffffffff\n      and\n      eq\n        /* \"contracts/Marketplace2/Marketplace.sol\":1882:1950  require(owner() == _msgSender(), \"Ownable: caller is not the owner\") */\n      tag_261\n      jumpi\n      mload(0x40)\n      0x08c379a000000000000000000000000000000000000000000000000000000000\n      dup2\n      mstore\n      0x04\n      add\n      tag_262\n      swap1\n      tag_185\n      jump\t// in\n    tag_262:\n      mload(0x40)\n      dup1\n      swap2\n      sub\n      swap1\n      revert\n    tag_261:\n        /* \"contracts/Marketplace2/Marketplace.sol\":2668:2669  0 */\n      0x00\n        /* \"contracts/Marketplace2/Marketplace.sol\":2648:2670  newOwner != address(0) */\n      0xffffffffffffffffffffffffffffffffffffffff\n      and\n        /* \"contracts/Marketplace2/Marketplace.sol\":2648:2656  newOwner */\n      dup2\n        /* \"contracts/Marketplace2/Marketplace.sol\":2648:2670  newOwner != address(0) */\n      0xffffffffffffffffffffffffffffffffffffffff\n      and\n      sub\n        /* \"contracts/Marketplace2/Marketplace.sol\":2640:2713  require(newOwner != address(0), \"Ownable: new owner is the zero address\") */\n      tag_264\n      jumpi\n      mload(0x40)\n      0x08c379a000000000000000000000000000000000000000000000000000000000\n      dup2\n      mstore\n      0x04\n      add\n      tag_265\n      swap1\n      tag_266\n      jump\t// in\n    tag_265:\n      mload(0x40)\n      dup1\n      swap2\n      sub\n      swap1\n      revert\n    tag_264:\n        /* \"contracts/Marketplace2/Marketplace.sol\":2723:2751  _transferOwnership(newOwner) */\n      tag_267\n        /* \"contracts/Marketplace2/Marketplace.sol\":2742:2750  newOwner */\n      dup2\n        /* \"contracts/Marketplace2/Marketplace.sol\":2723:2741  _transferOwnership */\n      tag_188\n        /* \"contracts/Marketplace2/Marketplace.sol\":2723:2751  _transferOwnership(newOwner) */\n      jump\t// in\n    tag_267:\n        /* \"contracts/Marketplace2/Marketplace.sol\":2560:2758  function transferOwnership(address newOwner) public virtual onlyOwner {... */\n      pop\n      jump\t// out\n        /* \"contracts/Marketplace2/Marketplace.sol\":11853:11965  function current(Counter storage counter) internal view returns (uint256) {... */\n    tag_102:\n        /* \"contracts/Marketplace2/Marketplace.sol\":11918:11925  uint256 */\n      0x00\n        /* \"contracts/Marketplace2/Marketplace.sol\":11944:11951  counter */\n      dup2\n        /* \"contracts/Marketplace2/Marketplace.sol\":11944:11958  counter._value */\n      0x00\n      add\n      sload\n        /* \"contracts/Marketplace2/Marketplace.sol\":11937:11958  return counter._value */\n      swap1\n      pop\n        /* \"contracts/Marketplace2/Marketplace.sol\":11853:11965  function current(Counter storage counter) internal view returns (uint256) {... */\n      swap2\n      swap1\n      pop\n      jump\t// out\n        /* \"contracts/Marketplace2/Marketplace.sol\":22942:23331  function _requireERC721(address nftAddress) internal view {... */\n    tag_137:\n        /* \"contracts/Marketplace2/Marketplace.sol\":23031:23053  isContract(nftAddress) */\n      tag_270\n        /* \"contracts/Marketplace2/Marketplace.sol\":23042:23052  nftAddress */\n      dup2\n        /* \"contracts/Marketplace2/Marketplace.sol\":23031:23041  isContract */\n      tag_271\n        /* \"contracts/Marketplace2/Marketplace.sol\":23031:23053  isContract(nftAddress) */\n      jump\t// in\n    tag_270:\n        /* \"contracts/Marketplace2/Marketplace.sol\":23010:23115  require(... */\n      tag_272\n      jumpi\n      mload(0x40)\n      0x08c379a000000000000000000000000000000000000000000000000000000000\n      dup2\n      mstore\n      0x04\n      add\n      tag_273\n      swap1\n      tag_274\n      jump\t// in\n    tag_273:\n      mload(0x40)\n      dup1\n      swap2\n      sub\n      swap1\n      revert\n    tag_272:\n        /* \"contracts/Marketplace2/Marketplace.sol\":23126:23145  IERC721 nftRegistry */\n      0x00\n        /* \"contracts/Marketplace2/Marketplace.sol\":23156:23166  nftAddress */\n      dup2\n        /* \"contracts/Marketplace2/Marketplace.sol\":23126:23167  IERC721 nftRegistry = IERC721(nftAddress) */\n      swap1\n      pop\n        /* \"contracts/Marketplace2/Marketplace.sol\":23198:23209  nftRegistry */\n      dup1\n        /* \"contracts/Marketplace2/Marketplace.sol\":23198:23227  nftRegistry.supportsInterface */\n      0xffffffffffffffffffffffffffffffffffffffff\n      and\n      0x01ffc9a7\n        /* \"contracts/Marketplace2/Marketplace.sol\":15820:15830  0x80ac58cd */\n      0x80ac58cd\n        /* \"contracts/Marketplace2/Marketplace.sol\":15813:15831  bytes4(0x80ac58cd) */\n      0xe0\n      shl\n        /* \"contracts/Marketplace2/Marketplace.sol\":23198:23245  nftRegistry.supportsInterface(ERC721_Interface) */\n      mload(0x40)\n      dup3\n      0xffffffff\n      and\n      0xe0\n      shl\n      dup2\n      mstore\n      0x04\n      add\n      tag_275\n      swap2\n      swap1\n      tag_42\n      jump\t// in\n    tag_275:\n      0x20\n      mload(0x40)\n      dup1\n      dup4\n      sub\n      dup2\n      dup7\n      gas\n      staticcall\n      iszero\n      dup1\n      iszero\n      tag_277\n      jumpi\n      returndatasize\n      0x00\n      dup1\n      returndatacopy\n      revert(0x00, returndatasize)\n    tag_277:\n      pop\n      pop\n      pop\n      pop\n      mload(0x40)\n      returndatasize\n      not(0x1f)\n      0x1f\n      dup3\n      add\n      and\n      dup3\n      add\n      dup1\n      0x40\n      mstore\n      pop\n      dup2\n      add\n      swap1\n      tag_278\n      swap2\n      swap1\n      tag_245\n      jump\t// in\n    tag_278:\n        /* \"contracts/Marketplace2/Marketplace.sol\":23177:23324  require(... */\n      tag_279\n      jumpi\n      mload(0x40)\n      0x08c379a000000000000000000000000000000000000000000000000000000000\n      dup2\n      mstore\n      0x04\n      add\n      tag_280\n      swap1\n      tag_281\n      jump\t// in\n    tag_280:\n      mload(0x40)\n      dup1\n      swap2\n      sub\n      swap1\n      revert\n    tag_279:\n        /* \"contracts/Marketplace2/Marketplace.sol\":23000:23331  {... */\n      pop\n        /* \"contracts/Marketplace2/Marketplace.sol\":22942:23331  function _requireERC721(address nftAddress) internal view {... */\n      pop\n      jump\t// out\n        /* \"contracts/Marketplace2/Marketplace.sol\":11971:12094  function increment(Counter storage counter) internal {... */\n    tag_139:\n        /* \"contracts/Marketplace2/Marketplace.sol\":12076:12077  1 */\n      0x01\n        /* \"contracts/Marketplace2/Marketplace.sol\":12058:12065  counter */\n      dup2\n        /* \"contracts/Marketplace2/Marketplace.sol\":12058:12072  counter._value */\n      0x00\n      add\n      0x00\n        /* \"contracts/Marketplace2/Marketplace.sol\":12058:12077  counter._value += 1 */\n      dup3\n      dup3\n      sload\n      add\n      swap3\n      pop\n      pop\n      dup2\n      swap1\n      sstore\n      pop\n        /* \"contracts/Marketplace2/Marketplace.sol\":11971:12094  function increment(Counter storage counter) internal {... */\n      pop\n      jump\t// out\n        /* \"contracts/Marketplace2/Marketplace.sol\":23495:24129  function _createItem(... */\n    tag_162:\n        /* \"contracts/Marketplace2/Marketplace.sol\":23668:23682  bytes32 itemId */\n      0x00\n        /* \"contracts/Marketplace2/Marketplace.sol\":23742:23757  block.timestamp */\n      timestamp\n        /* \"contracts/Marketplace2/Marketplace.sol\":23775:23781  seller */\n      dup7\n        /* \"contracts/Marketplace2/Marketplace.sol\":23799:23806  assetId */\n      dup7\n        /* \"contracts/Marketplace2/Marketplace.sol\":23824:23834  nftAddress */\n      dup7\n        /* \"contracts/Marketplace2/Marketplace.sol\":23852:23857  price */\n      dup7\n        /* \"contracts/Marketplace2/Marketplace.sol\":23708:23871  abi.encodePacked(... */\n      add(0x20, mload(0x40))\n      tag_284\n      swap6\n      swap5\n      swap4\n      swap3\n      swap2\n      swap1\n      tag_285\n      jump\t// in\n    tag_284:\n      mload(0x40)\n      0x20\n      dup2\n      dup4\n      sub\n      sub\n      dup2\n      mstore\n      swap1\n      0x40\n      mstore\n        /* \"contracts/Marketplace2/Marketplace.sol\":23685:23881  keccak256(... */\n      dup1\n      mload\n      swap1\n      0x20\n      add\n      keccak256\n        /* \"contracts/Marketplace2/Marketplace.sol\":23668:23881  bytes32 itemId = keccak256(... */\n      swap1\n      pop\n        /* \"contracts/Marketplace2/Marketplace.sol\":23921:24122  Item({... */\n      mload(0x40)\n      dup1\n      0xc0\n      add\n      0x40\n      mstore\n      dup1\n        /* \"contracts/Marketplace2/Marketplace.sol\":23944:23950  itemId */\n      dup3\n        /* \"contracts/Marketplace2/Marketplace.sol\":23921:24122  Item({... */\n      dup2\n      mstore\n      0x20\n      add\n        /* \"contracts/Marketplace2/Marketplace.sol\":23972:23978  seller */\n      dup8\n        /* \"contracts/Marketplace2/Marketplace.sol\":23921:24122  Item({... */\n      0xffffffffffffffffffffffffffffffffffffffff\n      and\n      dup2\n      mstore\n      0x20\n      add\n        /* \"contracts/Marketplace2/Marketplace.sol\":24004:24014  nftAddress */\n      dup6\n        /* \"contracts/Marketplace2/Marketplace.sol\":23921:24122  Item({... */\n      0xffffffffffffffffffffffffffffffffffffffff\n      and\n      dup2\n      mstore\n      0x20\n      add\n        /* \"contracts/Marketplace2/Marketplace.sol\":24035:24040  price */\n      dup5\n        /* \"contracts/Marketplace2/Marketplace.sol\":23921:24122  Item({... */\n      dup2\n      mstore\n      0x20\n      add\n        /* \"contracts/Marketplace2/Marketplace.sol\":24065:24074  priceAnta */\n      dup4\n        /* \"contracts/Marketplace2/Marketplace.sol\":23921:24122  Item({... */\n      dup2\n      mstore\n      0x20\n      add\n        /* \"contracts/Marketplace2/Marketplace.sol\":24096:24111  ItemStatus.LIST */\n      0x01\n        /* \"contracts/Marketplace2/Marketplace.sol\":23921:24122  Item({... */\n      0x04\n      dup2\n      gt\n      iszero\n      tag_286\n      jumpi\n      tag_287\n      tag_157\n      jump\t// in\n    tag_287:\n    tag_286:\n      dup2\n      mstore\n      pop\n        /* \"contracts/Marketplace2/Marketplace.sol\":23892:23897  items */\n      0x01\n        /* \"contracts/Marketplace2/Marketplace.sol\":23892:23909  items[nftAddress] */\n      0x00\n        /* \"contracts/Marketplace2/Marketplace.sol\":23898:23908  nftAddress */\n      dup7\n        /* \"contracts/Marketplace2/Marketplace.sol\":23892:23909  items[nftAddress] */\n      0xffffffffffffffffffffffffffffffffffffffff\n      and\n      0xffffffffffffffffffffffffffffffffffffffff\n      and\n      dup2\n      mstore\n      0x20\n      add\n      swap1\n      dup2\n      mstore\n      0x20\n      add\n      0x00\n      keccak256\n        /* \"contracts/Marketplace2/Marketplace.sol\":23892:23918  items[nftAddress][assetId] */\n      0x00\n        /* \"contracts/Marketplace2/Marketplace.sol\":23910:23917  assetId */\n      dup8\n        /* \"contracts/Marketplace2/Marketplace.sol\":23892:23918  items[nftAddress][assetId] */\n      dup2\n      mstore\n      0x20\n      add\n      swap1\n      dup2\n      mstore\n      0x20\n      add\n      0x00\n      keccak256\n        /* \"contracts/Marketplace2/Marketplace.sol\":23892:24122  items[nftAddress][assetId] = Item({... */\n      0x00\n      dup3\n      add\n      mload\n      dup2\n      0x00\n      add\n      sstore\n      0x20\n      dup3\n      add\n      mload\n      dup2\n      0x01\n      add\n      exp(0x0100, 0x00)\n      dup2\n      sload\n      dup2\n      0xffffffffffffffffffffffffffffffffffffffff\n      mul\n      not\n      and\n      swap1\n      dup4\n      0xffffffffffffffffffffffffffffffffffffffff\n      and\n      mul\n      or\n      swap1\n      sstore\n      pop\n      0x40\n      dup3\n      add\n      mload\n      dup2\n      0x02\n      add\n      exp(0x0100, 0x00)\n      dup2\n      sload\n      dup2\n      0xffffffffffffffffffffffffffffffffffffffff\n      mul\n      not\n      and\n      swap1\n      dup4\n      0xffffffffffffffffffffffffffffffffffffffff\n      and\n      mul\n      or\n      swap1\n      sstore\n      pop\n      0x60\n      dup3\n      add\n      mload\n      dup2\n      0x03\n      add\n      sstore\n      0x80\n      dup3\n      add\n      mload\n      dup2\n      0x04\n      add\n      sstore\n      0xa0\n      dup3\n      add\n      mload\n      dup2\n      0x05\n      add\n      exp(0x0100, 0x00)\n      dup2\n      sload\n      dup2\n      0xff\n      mul\n      not\n      and\n      swap1\n      dup4\n      0x04\n      dup2\n      gt\n      iszero\n      tag_288\n      jumpi\n      tag_289\n      tag_157\n      jump\t// in\n    tag_289:\n    tag_288:\n      mul\n      or\n      swap1\n      sstore\n      pop\n      swap1\n      pop\n      pop\n        /* \"contracts/Marketplace2/Marketplace.sol\":23658:24129  {... */\n      pop\n        /* \"contracts/Marketplace2/Marketplace.sol\":23495:24129  function _createItem(... */\n      pop\n      pop\n      pop\n      pop\n      pop\n      jump\t// out\n        /* \"contracts/Marketplace2/Marketplace.sol\":556:652  function _msgSender() internal view virtual returns (address) {... */\n    tag_181:\n        /* \"contracts/Marketplace2/Marketplace.sol\":609:616  address */\n      0x00\n        /* \"contracts/Marketplace2/Marketplace.sol\":635:645  msg.sender */\n      caller\n        /* \"contracts/Marketplace2/Marketplace.sol\":628:645  return msg.sender */\n      swap1\n      pop\n        /* \"contracts/Marketplace2/Marketplace.sol\":556:652  function _msgSender() internal view virtual returns (address) {... */\n      swap1\n      jump\t// out\n        /* \"contracts/Marketplace2/Marketplace.sol\":2912:3099  function _transferOwnership(address newOwner) internal virtual {... */\n    tag_188:\n        /* \"contracts/Marketplace2/Marketplace.sol\":2985:3001  address oldOwner */\n      0x00\n        /* \"contracts/Marketplace2/Marketplace.sol\":3004:3010  _owner */\n      0x04\n      0x00\n      swap1\n      sload\n      swap1\n      0x0100\n      exp\n      swap1\n      div\n      0xffffffffffffffffffffffffffffffffffffffff\n      and\n        /* \"contracts/Marketplace2/Marketplace.sol\":2985:3010  address oldOwner = _owner */\n      swap1\n      pop\n        /* \"contracts/Marketplace2/Marketplace.sol\":3029:3037  newOwner */\n      dup2\n        /* \"contracts/Marketplace2/Marketplace.sol\":3020:3026  _owner */\n      0x04\n      0x00\n        /* \"contracts/Marketplace2/Marketplace.sol\":3020:3037  _owner = newOwner */\n      0x0100\n      exp\n      dup2\n      sload\n      dup2\n      0xffffffffffffffffffffffffffffffffffffffff\n      mul\n      not\n      and\n      swap1\n      dup4\n      0xffffffffffffffffffffffffffffffffffffffff\n      and\n      mul\n      or\n      swap1\n      sstore\n      pop\n        /* \"contracts/Marketplace2/Marketplace.sol\":3083:3091  newOwner */\n      dup2\n        /* \"contracts/Marketplace2/Marketplace.sol\":3052:3092  OwnershipTransferred(oldOwner, newOwner) */\n      0xffffffffffffffffffffffffffffffffffffffff\n      and\n        /* \"contracts/Marketplace2/Marketplace.sol\":3073:3081  oldOwner */\n      dup2\n        /* \"contracts/Marketplace2/Marketplace.sol\":3052:3092  OwnershipTransferred(oldOwner, newOwner) */\n      0xffffffffffffffffffffffffffffffffffffffff\n      and\n      0x8be0079c531659141344cd1fd0a4f28419497f9722a3daafe3b4186f6b6457e0\n      mload(0x40)\n      mload(0x40)\n      dup1\n      swap2\n      sub\n      swap1\n      log3\n        /* \"contracts/Marketplace2/Marketplace.sol\":2975:3099  {... */\n      pop\n        /* \"contracts/Marketplace2/Marketplace.sol\":2912:3099  function _transferOwnership(address newOwner) internal virtual {... */\n      pop\n      jump\t// out\n        /* \"contracts/Marketplace2/Marketplace.sol\":23337:23494  function isContract(address _addr) private view returns (bool){... */\n    tag_271:\n        /* \"contracts/Marketplace2/Marketplace.sol\":23394:23398  bool */\n      0x00\n        /* \"contracts/Marketplace2/Marketplace.sol\":23405:23416  uint32 size */\n      dup1\n        /* \"contracts/Marketplace2/Marketplace.sol\":23457:23462  _addr */\n      dup3\n        /* \"contracts/Marketplace2/Marketplace.sol\":23445:23463  extcodesize(_addr) */\n      extcodesize\n        /* \"contracts/Marketplace2/Marketplace.sol\":23437:23463  size := extcodesize(_addr) */\n      swap1\n      pop\n        /* \"contracts/Marketplace2/Marketplace.sol\":23489:23490  0 */\n      0x00\n        /* \"contracts/Marketplace2/Marketplace.sol\":23482:23486  size */\n      dup2\n        /* \"contracts/Marketplace2/Marketplace.sol\":23482:23490  size > 0 */\n      0xffffffff\n      and\n      gt\n        /* \"contracts/Marketplace2/Marketplace.sol\":23474:23491  return (size > 0) */\n      swap2\n      pop\n      pop\n        /* \"contracts/Marketplace2/Marketplace.sol\":23337:23494  function isContract(address _addr) private view returns (bool){... */\n      swap2\n      swap1\n      pop\n      jump\t// out\n    tag_118:\n      mload(0x40)\n      dup1\n      0xc0\n      add\n      0x40\n      mstore\n      dup1\n      0x00\n      dup2\n      mstore\n      0x20\n      add\n      and(0xffffffffffffffffffffffffffffffffffffffff, 0x00)\n      dup2\n      mstore\n      0x20\n      add\n      0x00\n      dup2\n      mstore\n      0x20\n      add\n      and(0xffffffffffffffffffffffffffffffffffffffff, 0x00)\n      dup2\n      mstore\n      0x20\n      add\n      and(0xffffffffffffffffffffffffffffffffffffffff, 0x00)\n      dup2\n      mstore\n      0x20\n      add\n      0x00\n      dup2\n      mstore\n      pop\n      swap1\n      jump\t// out\n        /* \"#utility.yul\":7:133   */\n    tag_293:\n        /* \"#utility.yul\":44:51   */\n      0x00\n        /* \"#utility.yul\":84:126   */\n      0xffffffffffffffffffffffffffffffffffffffff\n        /* \"#utility.yul\":77:82   */\n      dup3\n        /* \"#utility.yul\":73:127   */\n      and\n        /* \"#utility.yul\":62:127   */\n      swap1\n      pop\n        /* \"#utility.yul\":7:133   */\n      swap2\n      swap1\n      pop\n      jump\t// out\n        /* \"#utility.yul\":139:199   */\n    tag_294:\n        /* \"#utility.yul\":167:170   */\n      0x00\n        /* \"#utility.yul\":188:193   */\n      dup2\n        /* \"#utility.yul\":181:193   */\n      swap1\n      pop\n        /* \"#utility.yul\":139:199   */\n      swap2\n      swap1\n      pop\n      jump\t// out\n        /* \"#utility.yul\":205:347   */\n    tag_295:\n        /* \"#utility.yul\":255:264   */\n      0x00\n        /* \"#utility.yul\":288:341   */\n      tag_379\n        /* \"#utility.yul\":306:340   */\n      tag_380\n        /* \"#utility.yul\":315:339   */\n      tag_381\n        /* \"#utility.yul\":333:338   */\n      dup5\n        /* \"#utility.yul\":315:339   */\n      tag_293\n      jump\t// in\n    tag_381:\n        /* \"#utility.yul\":306:340   */\n      tag_294\n      jump\t// in\n    tag_380:\n        /* \"#utility.yul\":288:341   */\n      tag_293\n      jump\t// in\n    tag_379:\n        /* \"#utility.yul\":275:341   */\n      swap1\n      pop\n        /* \"#utility.yul\":205:347   */\n      swap2\n      swap1\n      pop\n      jump\t// out\n        /* \"#utility.yul\":353:479   */\n    tag_296:\n        /* \"#utility.yul\":403:412   */\n      0x00\n        /* \"#utility.yul\":436:473   */\n      tag_383\n        /* \"#utility.yul\":467:472   */\n      dup3\n        /* \"#utility.yul\":436:473   */\n      tag_295\n      jump\t// in\n    tag_383:\n        /* \"#utility.yul\":423:473   */\n      swap1\n      pop\n        /* \"#utility.yul\":353:479   */\n      swap2\n      swap1\n      pop\n      jump\t// out\n        /* \"#utility.yul\":485:625   */\n    tag_297:\n        /* \"#utility.yul\":549:558   */\n      0x00\n        /* \"#utility.yul\":582:619   */\n      tag_385\n        /* \"#utility.yul\":613:618   */\n      dup3\n        /* \"#utility.yul\":582:619   */\n      tag_296\n      jump\t// in\n    tag_385:\n        /* \"#utility.yul\":569:619   */\n      swap1\n      pop\n        /* \"#utility.yul\":485:625   */\n      swap2\n      swap1\n      pop\n      jump\t// out\n        /* \"#utility.yul\":631:790   */\n    tag_298:\n        /* \"#utility.yul\":732:783   */\n      tag_387\n        /* \"#utility.yul\":777:782   */\n      dup2\n        /* \"#utility.yul\":732:783   */\n      tag_297\n      jump\t// in\n    tag_387:\n        /* \"#utility.yul\":727:730   */\n      dup3\n        /* \"#utility.yul\":720:784   */\n      mstore\n        /* \"#utility.yul\":631:790   */\n      pop\n      pop\n      jump\t// out\n        /* \"#utility.yul\":796:1046   */\n    tag_25:\n        /* \"#utility.yul\":903:907   */\n      0x00\n        /* \"#utility.yul\":941:943   */\n      0x20\n        /* \"#utility.yul\":930:939   */\n      dup3\n        /* \"#utility.yul\":926:944   */\n      add\n        /* \"#utility.yul\":918:944   */\n      swap1\n      pop\n        /* \"#utility.yul\":954:1039   */\n      tag_389\n        /* \"#utility.yul\":1036:1037   */\n      0x00\n        /* \"#utility.yul\":1025:1034   */\n      dup4\n        /* \"#utility.yul\":1021:1038   */\n      add\n        /* \"#utility.yul\":1012:1018   */\n      dup5\n        /* \"#utility.yul\":954:1039   */\n      tag_298\n      jump\t// in\n    tag_389:\n        /* \"#utility.yul\":796:1046   */\n      swap3\n      swap2\n      pop\n      pop\n      jump\t// out\n        /* \"#utility.yul\":1052:1193   */\n    tag_299:\n        /* \"#utility.yul\":1146:1152   */\n      0x00\n        /* \"#utility.yul\":1180:1185   */\n      dup2\n        /* \"#utility.yul\":1174:1186   */\n      mload\n        /* \"#utility.yul\":1164:1186   */\n      swap1\n      pop\n        /* \"#utility.yul\":1052:1193   */\n      swap2\n      swap1\n      pop\n      jump\t// out\n        /* \"#utility.yul\":1199:1410   */\n    tag_300:\n        /* \"#utility.yul\":1325:1336   */\n      0x00\n        /* \"#utility.yul\":1359:1365   */\n      dup3\n        /* \"#utility.yul\":1354:1357   */\n      dup3\n        /* \"#utility.yul\":1347:1366   */\n      mstore\n        /* \"#utility.yul\":1399:1403   */\n      0x20\n        /* \"#utility.yul\":1394:1397   */\n      dup3\n        /* \"#utility.yul\":1390:1404   */\n      add\n        /* \"#utility.yul\":1375:1404   */\n      swap1\n      pop\n        /* \"#utility.yul\":1199:1410   */\n      swap3\n      swap2\n      pop\n      pop\n      jump\t// out\n        /* \"#utility.yul\":1416:1575   */\n    tag_301:\n        /* \"#utility.yul\":1510:1514   */\n      0x00\n        /* \"#utility.yul\":1533:1536   */\n      dup2\n        /* \"#utility.yul\":1525:1536   */\n      swap1\n      pop\n        /* \"#utility.yul\":1563:1567   */\n      0x20\n        /* \"#utility.yul\":1558:1561   */\n      dup3\n        /* \"#utility.yul\":1554:1568   */\n      add\n        /* \"#utility.yul\":1546:1568   */\n      swap1\n      pop\n        /* \"#utility.yul\":1416:1575   */\n      swap2\n      swap1\n      pop\n      jump\t// out\n        /* \"#utility.yul\":1581:1658   */\n    tag_302:\n        /* \"#utility.yul\":1618:1625   */\n      0x00\n        /* \"#utility.yul\":1647:1652   */\n      dup2\n        /* \"#utility.yul\":1636:1652   */\n      swap1\n      pop\n        /* \"#utility.yul\":1581:1658   */\n      swap2\n      swap1\n      pop\n      jump\t// out\n        /* \"#utility.yul\":1664:1772   */\n    tag_303:\n        /* \"#utility.yul\":1741:1765   */\n      tag_395\n        /* \"#utility.yul\":1759:1764   */\n      dup2\n        /* \"#utility.yul\":1741:1765   */\n      tag_302\n      jump\t// in\n    tag_395:\n        /* \"#utility.yul\":1736:1739   */\n      dup3\n        /* \"#utility.yul\":1729:1766   */\n      mstore\n        /* \"#utility.yul\":1664:1772   */\n      pop\n      pop\n      jump\t// out\n        /* \"#utility.yul\":1778:1874   */\n    tag_304:\n        /* \"#utility.yul\":1815:1822   */\n      0x00\n        /* \"#utility.yul\":1844:1868   */\n      tag_397\n        /* \"#utility.yul\":1862:1867   */\n      dup3\n        /* \"#utility.yul\":1844:1868   */\n      tag_293\n      jump\t// in\n    tag_397:\n        /* \"#utility.yul\":1833:1868   */\n      swap1\n      pop\n        /* \"#utility.yul\":1778:1874   */\n      swap2\n      swap1\n      pop\n      jump\t// out\n        /* \"#utility.yul\":1880:1988   */\n    tag_305:\n        /* \"#utility.yul\":1957:1981   */\n      tag_399\n        /* \"#utility.yul\":1975:1980   */\n      dup2\n        /* \"#utility.yul\":1957:1981   */\n      tag_304\n      jump\t// in\n    tag_399:\n        /* \"#utility.yul\":1952:1955   */\n      dup3\n        /* \"#utility.yul\":1945:1982   */\n      mstore\n        /* \"#utility.yul\":1880:1988   */\n      pop\n      pop\n      jump\t// out\n        /* \"#utility.yul\":1994:2098   */\n    tag_306:\n        /* \"#utility.yul\":2039:2046   */\n      0x00\n        /* \"#utility.yul\":2068:2092   */\n      tag_401\n        /* \"#utility.yul\":2086:2091   */\n      dup3\n        /* \"#utility.yul\":2068:2092   */\n      tag_293\n      jump\t// in\n    tag_401:\n        /* \"#utility.yul\":2057:2092   */\n      swap1\n      pop\n        /* \"#utility.yul\":1994:2098   */\n      swap2\n      swap1\n      pop\n      jump\t// out\n        /* \"#utility.yul\":2104:2236   */\n    tag_307:\n        /* \"#utility.yul\":2197:2229   */\n      tag_403\n        /* \"#utility.yul\":2223:2228   */\n      dup2\n        /* \"#utility.yul\":2197:2229   */\n      tag_306\n      jump\t// in\n    tag_403:\n        /* \"#utility.yul\":2192:2195   */\n      dup3\n        /* \"#utility.yul\":2185:2230   */\n      mstore\n        /* \"#utility.yul\":2104:2236   */\n      pop\n      pop\n      jump\t// out\n        /* \"#utility.yul\":2308:3553   */\n    tag_308:\n        /* \"#utility.yul\":2449:2453   */\n      0xc0\n        /* \"#utility.yul\":2444:2447   */\n      dup3\n        /* \"#utility.yul\":2440:2454   */\n      add\n        /* \"#utility.yul\":2538:2542   */\n      0x00\n        /* \"#utility.yul\":2531:2536   */\n      dup3\n        /* \"#utility.yul\":2527:2543   */\n      add\n        /* \"#utility.yul\":2521:2544   */\n      mload\n        /* \"#utility.yul\":2557:2620   */\n      tag_405\n        /* \"#utility.yul\":2614:2618   */\n      0x00\n        /* \"#utility.yul\":2609:2612   */\n      dup6\n        /* \"#utility.yul\":2605:2619   */\n      add\n        /* \"#utility.yul\":2591:2603   */\n      dup3\n        /* \"#utility.yul\":2557:2620   */\n      tag_303\n      jump\t// in\n    tag_405:\n        /* \"#utility.yul\":2464:2630   */\n      pop\n        /* \"#utility.yul\":2719:2723   */\n      0x20\n        /* \"#utility.yul\":2712:2717   */\n      dup3\n        /* \"#utility.yul\":2708:2724   */\n      add\n        /* \"#utility.yul\":2702:2725   */\n      mload\n        /* \"#utility.yul\":2738:2801   */\n      tag_406\n        /* \"#utility.yul\":2795:2799   */\n      0x20\n        /* \"#utility.yul\":2790:2793   */\n      dup6\n        /* \"#utility.yul\":2786:2800   */\n      add\n        /* \"#utility.yul\":2772:2784   */\n      dup3\n        /* \"#utility.yul\":2738:2801   */\n      tag_305\n      jump\t// in\n    tag_406:\n        /* \"#utility.yul\":2640:2811   */\n      pop\n        /* \"#utility.yul\":2896:2900   */\n      0x40\n        /* \"#utility.yul\":2889:2894   */\n      dup3\n        /* \"#utility.yul\":2885:2901   */\n      add\n        /* \"#utility.yul\":2879:2902   */\n      mload\n        /* \"#utility.yul\":2915:2978   */\n      tag_407\n        /* \"#utility.yul\":2972:2976   */\n      0x40\n        /* \"#utility.yul\":2967:2970   */\n      dup6\n        /* \"#utility.yul\":2963:2977   */\n      add\n        /* \"#utility.yul\":2949:2961   */\n      dup3\n        /* \"#utility.yul\":2915:2978   */\n      tag_303\n      jump\t// in\n    tag_407:\n        /* \"#utility.yul\":2821:2988   */\n      pop\n        /* \"#utility.yul\":3072:3076   */\n      0x60\n        /* \"#utility.yul\":3065:3070   */\n      dup3\n        /* \"#utility.yul\":3061:3077   */\n      add\n        /* \"#utility.yul\":3055:3078   */\n      mload\n        /* \"#utility.yul\":3091:3170   */\n      tag_408\n        /* \"#utility.yul\":3164:3168   */\n      0x60\n        /* \"#utility.yul\":3159:3162   */\n      dup6\n        /* \"#utility.yul\":3155:3169   */\n      add\n        /* \"#utility.yul\":3141:3153   */\n      dup3\n        /* \"#utility.yul\":3091:3170   */\n      tag_307\n      jump\t// in\n    tag_408:\n        /* \"#utility.yul\":2998:3180   */\n      pop\n        /* \"#utility.yul\":3263:3267   */\n      0x80\n        /* \"#utility.yul\":3256:3261   */\n      dup3\n        /* \"#utility.yul\":3252:3268   */\n      add\n        /* \"#utility.yul\":3246:3269   */\n      mload\n        /* \"#utility.yul\":3282:3361   */\n      tag_409\n        /* \"#utility.yul\":3355:3359   */\n      0x80\n        /* \"#utility.yul\":3350:3353   */\n      dup6\n        /* \"#utility.yul\":3346:3360   */\n      add\n        /* \"#utility.yul\":3332:3344   */\n      dup3\n        /* \"#utility.yul\":3282:3361   */\n      tag_307\n      jump\t// in\n    tag_409:\n        /* \"#utility.yul\":3190:3371   */\n      pop\n        /* \"#utility.yul\":3454:3458   */\n      0xa0\n        /* \"#utility.yul\":3447:3452   */\n      dup3\n        /* \"#utility.yul\":3443:3459   */\n      add\n        /* \"#utility.yul\":3437:3460   */\n      mload\n        /* \"#utility.yul\":3473:3536   */\n      tag_410\n        /* \"#utility.yul\":3530:3534   */\n      0xa0\n        /* \"#utility.yul\":3525:3528   */\n      dup6\n        /* \"#utility.yul\":3521:3535   */\n      add\n        /* \"#utility.yul\":3507:3519   */\n      dup3\n        /* \"#utility.yul\":3473:3536   */\n      tag_303\n      jump\t// in\n    tag_410:\n        /* \"#utility.yul\":3381:3546   */\n      pop\n        /* \"#utility.yul\":2418:3553   */\n      pop\n        /* \"#utility.yul\":2308:3553   */\n      pop\n      pop\n      jump\t// out\n        /* \"#utility.yul\":3559:3846   */\n    tag_309:\n        /* \"#utility.yul\":3682:3692   */\n      0x00\n        /* \"#utility.yul\":3703:3803   */\n      tag_412\n        /* \"#utility.yul\":3799:3802   */\n      dup4\n        /* \"#utility.yul\":3791:3797   */\n      dup4\n        /* \"#utility.yul\":3703:3803   */\n      tag_308\n      jump\t// in\n    tag_412:\n        /* \"#utility.yul\":3835:3839   */\n      0xc0\n        /* \"#utility.yul\":3830:3833   */\n      dup4\n        /* \"#utility.yul\":3826:3840   */\n      add\n        /* \"#utility.yul\":3812:3840   */\n      swap1\n      pop\n        /* \"#utility.yul\":3559:3846   */\n      swap3\n      swap2\n      pop\n      pop\n      jump\t// out\n        /* \"#utility.yul\":3852:3992   */\n    tag_310:\n        /* \"#utility.yul\":3949:3953   */\n      0x00\n        /* \"#utility.yul\":3981:3985   */\n      0x20\n        /* \"#utility.yul\":3976:3979   */\n      dup3\n        /* \"#utility.yul\":3972:3986   */\n      add\n        /* \"#utility.yul\":3964:3986   */\n      swap1\n      pop\n        /* \"#utility.yul\":3852:3992   */\n      swap2\n      swap1\n      pop\n      jump\t// out\n        /* \"#utility.yul\":4068:5016   */\n    tag_311:\n        /* \"#utility.yul\":4241:4244   */\n      0x00\n        /* \"#utility.yul\":4270:4351   */\n      tag_415\n        /* \"#utility.yul\":4345:4350   */\n      dup3\n        /* \"#utility.yul\":4270:4351   */\n      tag_299\n      jump\t// in\n    tag_415:\n        /* \"#utility.yul\":4367:4480   */\n      tag_416\n        /* \"#utility.yul\":4473:4479   */\n      dup2\n        /* \"#utility.yul\":4468:4471   */\n      dup6\n        /* \"#utility.yul\":4367:4480   */\n      tag_300\n      jump\t// in\n    tag_416:\n        /* \"#utility.yul\":4360:4480   */\n      swap4\n      pop\n        /* \"#utility.yul\":4504:4587   */\n      tag_417\n        /* \"#utility.yul\":4581:4586   */\n      dup4\n        /* \"#utility.yul\":4504:4587   */\n      tag_301\n      jump\t// in\n    tag_417:\n        /* \"#utility.yul\":4610:4617   */\n      dup1\n        /* \"#utility.yul\":4641:4642   */\n      0x00\n        /* \"#utility.yul\":4626:4991   */\n    tag_418:\n        /* \"#utility.yul\":4651:4657   */\n      dup4\n        /* \"#utility.yul\":4648:4649   */\n      dup2\n        /* \"#utility.yul\":4645:4658   */\n      lt\n        /* \"#utility.yul\":4626:4991   */\n      iszero\n      tag_420\n      jumpi\n        /* \"#utility.yul\":4727:4733   */\n      dup2\n        /* \"#utility.yul\":4721:4734   */\n      mload\n        /* \"#utility.yul\":4754:4871   */\n      tag_421\n        /* \"#utility.yul\":4867:4870   */\n      dup9\n        /* \"#utility.yul\":4852:4865   */\n      dup3\n        /* \"#utility.yul\":4754:4871   */\n      tag_309\n      jump\t// in\n    tag_421:\n        /* \"#utility.yul\":4747:4871   */\n      swap8\n      pop\n        /* \"#utility.yul\":4894:4981   */\n      tag_422\n        /* \"#utility.yul\":4974:4980   */\n      dup4\n        /* \"#utility.yul\":4894:4981   */\n      tag_310\n      jump\t// in\n    tag_422:\n        /* \"#utility.yul\":4884:4981   */\n      swap3\n      pop\n        /* \"#utility.yul\":4686:4991   */\n      pop\n        /* \"#utility.yul\":4673:4674   */\n      0x01\n        /* \"#utility.yul\":4670:4671   */\n      dup2\n        /* \"#utility.yul\":4666:4675   */\n      add\n        /* \"#utility.yul\":4661:4675   */\n      swap1\n      pop\n        /* \"#utility.yul\":4626:4991   */\n      jump(tag_418)\n    tag_420:\n        /* \"#utility.yul\":4630:4644   */\n      pop\n        /* \"#utility.yul\":5007:5010   */\n      dup6\n        /* \"#utility.yul\":5000:5010   */\n      swap4\n      pop\n        /* \"#utility.yul\":4246:5016   */\n      pop\n      pop\n      pop\n        /* \"#utility.yul\":4068:5016   */\n      swap3\n      swap2\n      pop\n      pop\n      jump\t// out\n        /* \"#utility.yul\":5022:5503   */\n    tag_30:\n        /* \"#utility.yul\":5219:5223   */\n      0x00\n        /* \"#utility.yul\":5257:5259   */\n      0x20\n        /* \"#utility.yul\":5246:5255   */\n      dup3\n        /* \"#utility.yul\":5242:5260   */\n      add\n        /* \"#utility.yul\":5234:5260   */\n      swap1\n      pop\n        /* \"#utility.yul\":5306:5315   */\n      dup2\n        /* \"#utility.yul\":5300:5304   */\n      dup2\n        /* \"#utility.yul\":5296:5316   */\n      sub\n        /* \"#utility.yul\":5292:5293   */\n      0x00\n        /* \"#utility.yul\":5281:5290   */\n      dup4\n        /* \"#utility.yul\":5277:5294   */\n      add\n        /* \"#utility.yul\":5270:5317   */\n      mstore\n        /* \"#utility.yul\":5334:5496   */\n      tag_424\n        /* \"#utility.yul\":5491:5495   */\n      dup2\n        /* \"#utility.yul\":5482:5488   */\n      dup5\n        /* \"#utility.yul\":5334:5496   */\n      tag_311\n      jump\t// in\n    tag_424:\n        /* \"#utility.yul\":5326:5496   */\n      swap1\n      pop\n        /* \"#utility.yul\":5022:5503   */\n      swap3\n      swap2\n      pop\n      pop\n      jump\t// out\n        /* \"#utility.yul\":5590:5707   */\n    tag_313:\n        /* \"#utility.yul\":5699:5700   */\n      0x00\n        /* \"#utility.yul\":5696:5697   */\n      dup1\n        /* \"#utility.yul\":5689:5701   */\n      revert\n        /* \"#utility.yul\":5836:5958   */\n    tag_315:\n        /* \"#utility.yul\":5909:5933   */\n      tag_429\n        /* \"#utility.yul\":5927:5932   */\n      dup2\n        /* \"#utility.yul\":5909:5933   */\n      tag_302\n      jump\t// in\n    tag_429:\n        /* \"#utility.yul\":5902:5907   */\n      dup2\n        /* \"#utility.yul\":5899:5934   */\n      eq\n        /* \"#utility.yul\":5889:5952   */\n      tag_430\n      jumpi\n        /* \"#utility.yul\":5948:5949   */\n      0x00\n        /* \"#utility.yul\":5945:5946   */\n      dup1\n        /* \"#utility.yul\":5938:5950   */\n      revert\n        /* \"#utility.yul\":5889:5952   */\n    tag_430:\n        /* \"#utility.yul\":5836:5958   */\n      pop\n      jump\t// out\n        /* \"#utility.yul\":5964:6103   */\n    tag_316:\n        /* \"#utility.yul\":6010:6015   */\n      0x00\n        /* \"#utility.yul\":6048:6054   */\n      dup2\n        /* \"#utility.yul\":6035:6055   */\n      calldataload\n        /* \"#utility.yul\":6026:6055   */\n      swap1\n      pop\n        /* \"#utility.yul\":6064:6097   */\n      tag_432\n        /* \"#utility.yul\":6091:6096   */\n      dup2\n        /* \"#utility.yul\":6064:6097   */\n      tag_315\n      jump\t// in\n    tag_432:\n        /* \"#utility.yul\":5964:6103   */\n      swap3\n      swap2\n      pop\n      pop\n      jump\t// out\n        /* \"#utility.yul\":6109:6438   */\n    tag_34:\n        /* \"#utility.yul\":6168:6174   */\n      0x00\n        /* \"#utility.yul\":6217:6219   */\n      0x20\n        /* \"#utility.yul\":6205:6214   */\n      dup3\n        /* \"#utility.yul\":6196:6203   */\n      dup5\n        /* \"#utility.yul\":6192:6215   */\n      sub\n        /* \"#utility.yul\":6188:6220   */\n      slt\n        /* \"#utility.yul\":6185:6304   */\n      iszero\n      tag_434\n      jumpi\n        /* \"#utility.yul\":6223:6302   */\n      tag_435\n      tag_313\n      jump\t// in\n    tag_435:\n        /* \"#utility.yul\":6185:6304   */\n    tag_434:\n        /* \"#utility.yul\":6343:6344   */\n      0x00\n        /* \"#utility.yul\":6368:6421   */\n      tag_436\n        /* \"#utility.yul\":6413:6420   */\n      dup5\n        /* \"#utility.yul\":6404:6410   */\n      dup3\n        /* \"#utility.yul\":6393:6402   */\n      dup6\n        /* \"#utility.yul\":6389:6411   */\n      add\n        /* \"#utility.yul\":6368:6421   */\n      tag_316\n      jump\t// in\n    tag_436:\n        /* \"#utility.yul\":6358:6421   */\n      swap2\n      pop\n        /* \"#utility.yul\":6314:6431   */\n      pop\n        /* \"#utility.yul\":6109:6438   */\n      swap3\n      swap2\n      pop\n      pop\n      jump\t// out\n        /* \"#utility.yul\":6510:7765   */\n    tag_317:\n        /* \"#utility.yul\":6661:6665   */\n      0xc0\n        /* \"#utility.yul\":6656:6659   */\n      dup3\n        /* \"#utility.yul\":6652:6666   */\n      add\n        /* \"#utility.yul\":6750:6754   */\n      0x00\n        /* \"#utility.yul\":6743:6748   */\n      dup3\n        /* \"#utility.yul\":6739:6755   */\n      add\n        /* \"#utility.yul\":6733:6756   */\n      mload\n        /* \"#utility.yul\":6769:6832   */\n      tag_438\n        /* \"#utility.yul\":6826:6830   */\n      0x00\n        /* \"#utility.yul\":6821:6824   */\n      dup6\n        /* \"#utility.yul\":6817:6831   */\n      add\n        /* \"#utility.yul\":6803:6815   */\n      dup3\n        /* \"#utility.yul\":6769:6832   */\n      tag_303\n      jump\t// in\n    tag_438:\n        /* \"#utility.yul\":6676:6842   */\n      pop\n        /* \"#utility.yul\":6931:6935   */\n      0x20\n        /* \"#utility.yul\":6924:6929   */\n      dup3\n        /* \"#utility.yul\":6920:6936   */\n      add\n        /* \"#utility.yul\":6914:6937   */\n      mload\n        /* \"#utility.yul\":6950:7013   */\n      tag_439\n        /* \"#utility.yul\":7007:7011   */\n      0x20\n        /* \"#utility.yul\":7002:7005   */\n      dup6\n        /* \"#utility.yul\":6998:7012   */\n      add\n        /* \"#utility.yul\":6984:6996   */\n      dup3\n        /* \"#utility.yul\":6950:7013   */\n      tag_305\n      jump\t// in\n    tag_439:\n        /* \"#utility.yul\":6852:7023   */\n      pop\n        /* \"#utility.yul\":7108:7112   */\n      0x40\n        /* \"#utility.yul\":7101:7106   */\n      dup3\n        /* \"#utility.yul\":7097:7113   */\n      add\n        /* \"#utility.yul\":7091:7114   */\n      mload\n        /* \"#utility.yul\":7127:7190   */\n      tag_440\n        /* \"#utility.yul\":7184:7188   */\n      0x40\n        /* \"#utility.yul\":7179:7182   */\n      dup6\n        /* \"#utility.yul\":7175:7189   */\n      add\n        /* \"#utility.yul\":7161:7173   */\n      dup3\n        /* \"#utility.yul\":7127:7190   */\n      tag_303\n      jump\t// in\n    tag_440:\n        /* \"#utility.yul\":7033:7200   */\n      pop\n        /* \"#utility.yul\":7284:7288   */\n      0x60\n        /* \"#utility.yul\":7277:7282   */\n      dup3\n        /* \"#utility.yul\":7273:7289   */\n      add\n        /* \"#utility.yul\":7267:7290   */\n      mload\n        /* \"#utility.yul\":7303:7382   */\n      tag_441\n        /* \"#utility.yul\":7376:7380   */\n      0x60\n        /* \"#utility.yul\":7371:7374   */\n      dup6\n        /* \"#utility.yul\":7367:7381   */\n      add\n        /* \"#utility.yul\":7353:7365   */\n      dup3\n        /* \"#utility.yul\":7303:7382   */\n      tag_307\n      jump\t// in\n    tag_441:\n        /* \"#utility.yul\":7210:7392   */\n      pop\n        /* \"#utility.yul\":7475:7479   */\n      0x80\n        /* \"#utility.yul\":7468:7473   */\n      dup3\n        /* \"#utility.yul\":7464:7480   */\n      add\n        /* \"#utility.yul\":7458:7481   */\n      mload\n        /* \"#utility.yul\":7494:7573   */\n      tag_442\n        /* \"#utility.yul\":7567:7571   */\n      0x80\n        /* \"#utility.yul\":7562:7565   */\n      dup6\n        /* \"#utility.yul\":7558:7572   */\n      add\n        /* \"#utility.yul\":7544:7556   */\n      dup3\n        /* \"#utility.yul\":7494:7573   */\n      tag_307\n      jump\t// in\n    tag_442:\n        /* \"#utility.yul\":7402:7583   */\n      pop\n        /* \"#utility.yul\":7666:7670   */\n      0xa0\n        /* \"#utility.yul\":7659:7664   */\n      dup3\n        /* \"#utility.yul\":7655:7671   */\n      add\n        /* \"#utility.yul\":7649:7672   */\n      mload\n        /* \"#utility.yul\":7685:7748   */\n      tag_443\n        /* \"#utility.yul\":7742:7746   */\n      0xa0\n        /* \"#utility.yul\":7737:7740   */\n      dup6\n        /* \"#utility.yul\":7733:7747   */\n      add\n        /* \"#utility.yul\":7719:7731   */\n      dup3\n        /* \"#utility.yul\":7685:7748   */\n      tag_303\n      jump\t// in\n    tag_443:\n        /* \"#utility.yul\":7593:7758   */\n      pop\n        /* \"#utility.yul\":6630:7765   */\n      pop\n        /* \"#utility.yul\":6510:7765   */\n      pop\n      pop\n      jump\t// out\n        /* \"#utility.yul\":7771:8102   */\n    tag_37:\n        /* \"#utility.yul\":7918:7922   */\n      0x00\n        /* \"#utility.yul\":7956:7959   */\n      0xc0\n        /* \"#utility.yul\":7945:7954   */\n      dup3\n        /* \"#utility.yul\":7941:7960   */\n      add\n        /* \"#utility.yul\":7933:7960   */\n      swap1\n      pop\n        /* \"#utility.yul\":7970:8095   */\n      tag_445\n        /* \"#utility.yul\":8092:8093   */\n      0x00\n        /* \"#utility.yul\":8081:8090   */\n      dup4\n        /* \"#utility.yul\":8077:8094   */\n      add\n        /* \"#utility.yul\":8068:8074   */\n      dup5\n        /* \"#utility.yul\":7970:8095   */\n      tag_317\n      jump\t// in\n    tag_445:\n        /* \"#utility.yul\":7771:8102   */\n      swap3\n      swap2\n      pop\n      pop\n      jump\t// out\n        /* \"#utility.yul\":8108:8257   */\n    tag_318:\n        /* \"#utility.yul\":8144:8151   */\n      0x00\n        /* \"#utility.yul\":8184:8250   */\n      0xffffffff00000000000000000000000000000000000000000000000000000000\n        /* \"#utility.yul\":8177:8182   */\n      dup3\n        /* \"#utility.yul\":8173:8251   */\n      and\n        /* \"#utility.yul\":8162:8251   */\n      swap1\n      pop\n        /* \"#utility.yul\":8108:8257   */\n      swap2\n      swap1\n      pop\n      jump\t// out\n        /* \"#utility.yul\":8263:8378   */\n    tag_319:\n        /* \"#utility.yul\":8348:8371   */\n      tag_448\n        /* \"#utility.yul\":8365:8370   */\n      dup2\n        /* \"#utility.yul\":8348:8371   */\n      tag_318\n      jump\t// in\n    tag_448:\n        /* \"#utility.yul\":8343:8346   */\n      dup3\n        /* \"#utility.yul\":8336:8372   */\n      mstore\n        /* \"#utility.yul\":8263:8378   */\n      pop\n      pop\n      jump\t// out\n        /* \"#utility.yul\":8384:8602   */\n    tag_42:\n        /* \"#utility.yul\":8475:8479   */\n      0x00\n        /* \"#utility.yul\":8513:8515   */\n      0x20\n        /* \"#utility.yul\":8502:8511   */\n      dup3\n        /* \"#utility.yul\":8498:8516   */\n      add\n        /* \"#utility.yul\":8490:8516   */\n      swap1\n      pop\n        /* \"#utility.yul\":8526:8595   */\n      tag_450\n        /* \"#utility.yul\":8592:8593   */\n      0x00\n        /* \"#utility.yul\":8581:8590   */\n      dup4\n        /* \"#utility.yul\":8577:8594   */\n      add\n        /* \"#utility.yul\":8568:8574   */\n      dup5\n        /* \"#utility.yul\":8526:8595   */\n      tag_319\n      jump\t// in\n    tag_450:\n        /* \"#utility.yul\":8384:8602   */\n      swap3\n      swap2\n      pop\n      pop\n      jump\t// out\n        /* \"#utility.yul\":8608:8730   */\n    tag_320:\n        /* \"#utility.yul\":8681:8705   */\n      tag_452\n        /* \"#utility.yul\":8699:8704   */\n      dup2\n        /* \"#utility.yul\":8681:8705   */\n      tag_304\n      jump\t// in\n    tag_452:\n        /* \"#utility.yul\":8674:8679   */\n      dup2\n        /* \"#utility.yul\":8671:8706   */\n      eq\n        /* \"#utility.yul\":8661:8724   */\n      tag_453\n      jumpi\n        /* \"#utility.yul\":8720:8721   */\n      0x00\n        /* \"#utility.yul\":8717:8718   */\n      dup1\n        /* \"#utility.yul\":8710:8722   */\n      revert\n        /* \"#utility.yul\":8661:8724   */\n    tag_453:\n        /* \"#utility.yul\":8608:8730   */\n      pop\n      jump\t// out\n        /* \"#utility.yul\":8736:8875   */\n    tag_321:\n        /* \"#utility.yul\":8782:8787   */\n      0x00\n        /* \"#utility.yul\":8820:8826   */\n      dup2\n        /* \"#utility.yul\":8807:8827   */\n      calldataload\n        /* \"#utility.yul\":8798:8827   */\n      swap1\n      pop\n        /* \"#utility.yul\":8836:8869   */\n      tag_455\n        /* \"#utility.yul\":8863:8868   */\n      dup2\n        /* \"#utility.yul\":8836:8869   */\n      tag_320\n      jump\t// in\n    tag_455:\n        /* \"#utility.yul\":8736:8875   */\n      swap3\n      swap2\n      pop\n      pop\n      jump\t// out\n        /* \"#utility.yul\":8881:9500   */\n    tag_46:\n        /* \"#utility.yul\":8958:8964   */\n      0x00\n        /* \"#utility.yul\":8966:8972   */\n      dup1\n        /* \"#utility.yul\":8974:8980   */\n      0x00\n        /* \"#utility.yul\":9023:9025   */\n      0x60\n        /* \"#utility.yul\":9011:9020   */\n      dup5\n        /* \"#utility.yul\":9002:9009   */\n      dup7\n        /* \"#utility.yul\":8998:9021   */\n      sub\n        /* \"#utility.yul\":8994:9026   */\n      slt\n        /* \"#utility.yul\":8991:9110   */\n      iszero\n      tag_457\n      jumpi\n        /* \"#utility.yul\":9029:9108   */\n      tag_458\n      tag_313\n      jump\t// in\n    tag_458:\n        /* \"#utility.yul\":8991:9110   */\n    tag_457:\n        /* \"#utility.yul\":9149:9150   */\n      0x00\n        /* \"#utility.yul\":9174:9227   */\n      tag_459\n        /* \"#utility.yul\":9219:9226   */\n      dup7\n        /* \"#utility.yul\":9210:9216   */\n      dup3\n        /* \"#utility.yul\":9199:9208   */\n      dup8\n        /* \"#utility.yul\":9195:9217   */\n      add\n        /* \"#utility.yul\":9174:9227   */\n      tag_321\n      jump\t// in\n    tag_459:\n        /* \"#utility.yul\":9164:9227   */\n      swap4\n      pop\n        /* \"#utility.yul\":9120:9237   */\n      pop\n        /* \"#utility.yul\":9276:9278   */\n      0x20\n        /* \"#utility.yul\":9302:9355   */\n      tag_460\n        /* \"#utility.yul\":9347:9354   */\n      dup7\n        /* \"#utility.yul\":9338:9344   */\n      dup3\n        /* \"#utility.yul\":9327:9336   */\n      dup8\n        /* \"#utility.yul\":9323:9345   */\n      add\n        /* \"#utility.yul\":9302:9355   */\n      tag_316\n      jump\t// in\n    tag_460:\n        /* \"#utility.yul\":9292:9355   */\n      swap3\n      pop\n        /* \"#utility.yul\":9247:9365   */\n      pop\n        /* \"#utility.yul\":9404:9406   */\n      0x40\n        /* \"#utility.yul\":9430:9483   */\n      tag_461\n        /* \"#utility.yul\":9475:9482   */\n      dup7\n        /* \"#utility.yul\":9466:9472   */\n      dup3\n        /* \"#utility.yul\":9455:9464   */\n      dup8\n        /* \"#utility.yul\":9451:9473   */\n      add\n        /* \"#utility.yul\":9430:9483   */\n      tag_321\n      jump\t// in\n    tag_461:\n        /* \"#utility.yul\":9420:9483   */\n      swap2\n      pop\n        /* \"#utility.yul\":9375:9493   */\n      pop\n        /* \"#utility.yul\":8881:9500   */\n      swap3\n      pop\n      swap3\n      pop\n      swap3\n      jump\t// out\n        /* \"#utility.yul\":9506:9583   */\n    tag_322:\n        /* \"#utility.yul\":9543:9550   */\n      0x00\n        /* \"#utility.yul\":9572:9577   */\n      dup2\n        /* \"#utility.yul\":9561:9577   */\n      swap1\n      pop\n        /* \"#utility.yul\":9506:9583   */\n      swap2\n      swap1\n      pop\n      jump\t// out\n        /* \"#utility.yul\":9589:9707   */\n    tag_323:\n        /* \"#utility.yul\":9676:9700   */\n      tag_464\n        /* \"#utility.yul\":9694:9699   */\n      dup2\n        /* \"#utility.yul\":9676:9700   */\n      tag_322\n      jump\t// in\n    tag_464:\n        /* \"#utility.yul\":9671:9674   */\n      dup3\n        /* \"#utility.yul\":9664:9701   */\n      mstore\n        /* \"#utility.yul\":9589:9707   */\n      pop\n      pop\n      jump\t// out\n        /* \"#utility.yul\":9713:9831   */\n    tag_324:\n        /* \"#utility.yul\":9800:9824   */\n      tag_466\n        /* \"#utility.yul\":9818:9823   */\n      dup2\n        /* \"#utility.yul\":9800:9824   */\n      tag_302\n      jump\t// in\n    tag_466:\n        /* \"#utility.yul\":9795:9798   */\n      dup3\n        /* \"#utility.yul\":9788:9825   */\n      mstore\n        /* \"#utility.yul\":9713:9831   */\n      pop\n      pop\n      jump\t// out\n        /* \"#utility.yul\":9837:10169   */\n    tag_49:\n        /* \"#utility.yul\":9958:9962   */\n      0x00\n        /* \"#utility.yul\":9996:9998   */\n      0x40\n        /* \"#utility.yul\":9985:9994   */\n      dup3\n        /* \"#utility.yul\":9981:9999   */\n      add\n        /* \"#utility.yul\":9973:9999   */\n      swap1\n      pop\n        /* \"#utility.yul\":10009:10080   */\n      tag_468\n        /* \"#utility.yul\":10077:10078   */\n      0x00\n        /* \"#utility.yul\":10066:10075   */\n      dup4\n        /* \"#utility.yul\":10062:10079   */\n      add\n        /* \"#utility.yul\":10053:10059   */\n      dup6\n        /* \"#utility.yul\":10009:10080   */\n      tag_323\n      jump\t// in\n    tag_468:\n        /* \"#utility.yul\":10090:10162   */\n      tag_469\n        /* \"#utility.yul\":10158:10160   */\n      0x20\n        /* \"#utility.yul\":10147:10156   */\n      dup4\n        /* \"#utility.yul\":10143:10161   */\n      add\n        /* \"#utility.yul\":10134:10140   */\n      dup5\n        /* \"#utility.yul\":10090:10162   */\n      tag_324\n      jump\t// in\n    tag_469:\n        /* \"#utility.yul\":9837:10169   */\n      swap4\n      swap3\n      pop\n      pop\n      pop\n      jump\t// out\n        /* \"#utility.yul\":10175:10649   */\n    tag_53:\n        /* \"#utility.yul\":10243:10249   */\n      0x00\n        /* \"#utility.yul\":10251:10257   */\n      dup1\n        /* \"#utility.yul\":10300:10302   */\n      0x40\n        /* \"#utility.yul\":10288:10297   */\n      dup4\n        /* \"#utility.yul\":10279:10286   */\n      dup6\n        /* \"#utility.yul\":10275:10298   */\n      sub\n        /* \"#utility.yul\":10271:10303   */\n      slt\n        /* \"#utility.yul\":10268:10387   */\n      iszero\n      tag_471\n      jumpi\n        /* \"#utility.yul\":10306:10385   */\n      tag_472\n      tag_313\n      jump\t// in\n    tag_472:\n        /* \"#utility.yul\":10268:10387   */\n    tag_471:\n        /* \"#utility.yul\":10426:10427   */\n      0x00\n        /* \"#utility.yul\":10451:10504   */\n      tag_473\n        /* \"#utility.yul\":10496:10503   */\n      dup6\n        /* \"#utility.yul\":10487:10493   */\n      dup3\n        /* \"#utility.yul\":10476:10485   */\n      dup7\n        /* \"#utility.yul\":10472:10494   */\n      add\n        /* \"#utility.yul\":10451:10504   */\n      tag_321\n      jump\t// in\n    tag_473:\n        /* \"#utility.yul\":10441:10504   */\n      swap3\n      pop\n        /* \"#utility.yul\":10397:10514   */\n      pop\n        /* \"#utility.yul\":10553:10555   */\n      0x20\n        /* \"#utility.yul\":10579:10632   */\n      tag_474\n        /* \"#utility.yul\":10624:10631   */\n      dup6\n        /* \"#utility.yul\":10615:10621   */\n      dup3\n        /* \"#utility.yul\":10604:10613   */\n      dup7\n        /* \"#utility.yul\":10600:10622   */\n      add\n        /* \"#utility.yul\":10579:10632   */\n      tag_316\n      jump\t// in\n    tag_474:\n        /* \"#utility.yul\":10569:10632   */\n      swap2\n      pop\n        /* \"#utility.yul\":10524:10642   */\n      pop\n        /* \"#utility.yul\":10175:10649   */\n      swap3\n      pop\n      swap3\n      swap1\n      pop\n      jump\t// out\n        /* \"#utility.yul\":10655:10773   */\n    tag_325:\n        /* \"#utility.yul\":10742:10766   */\n      tag_476\n        /* \"#utility.yul\":10760:10765   */\n      dup2\n        /* \"#utility.yul\":10742:10766   */\n      tag_304\n      jump\t// in\n    tag_476:\n        /* \"#utility.yul\":10737:10740   */\n      dup3\n        /* \"#utility.yul\":10730:10767   */\n      mstore\n        /* \"#utility.yul\":10655:10773   */\n      pop\n      pop\n      jump\t// out\n        /* \"#utility.yul\":10779:10959   */\n    tag_157:\n        /* \"#utility.yul\":10827:10904   */\n      0x4e487b7100000000000000000000000000000000000000000000000000000000\n        /* \"#utility.yul\":10824:10825   */\n      0x00\n        /* \"#utility.yul\":10817:10905   */\n      mstore\n        /* \"#utility.yul\":10924:10928   */\n      0x21\n        /* \"#utility.yul\":10921:10922   */\n      0x04\n        /* \"#utility.yul\":10914:10929   */\n      mstore\n        /* \"#utility.yul\":10948:10952   */\n      0x24\n        /* \"#utility.yul\":10945:10946   */\n      0x00\n        /* \"#utility.yul\":10938:10953   */\n      revert\n        /* \"#utility.yul\":10965:11084   */\n    tag_326:\n        /* \"#utility.yul\":11052:11053   */\n      0x05\n        /* \"#utility.yul\":11045:11050   */\n      dup2\n        /* \"#utility.yul\":11042:11054   */\n      lt\n        /* \"#utility.yul\":11032:11078   */\n      tag_479\n      jumpi\n        /* \"#utility.yul\":11058:11076   */\n      tag_480\n      tag_157\n      jump\t// in\n    tag_480:\n        /* \"#utility.yul\":11032:11078   */\n    tag_479:\n        /* \"#utility.yul\":10965:11084   */\n      pop\n      jump\t// out\n        /* \"#utility.yul\":11090:11229   */\n    tag_327:\n        /* \"#utility.yul\":11141:11148   */\n      0x00\n        /* \"#utility.yul\":11170:11175   */\n      dup2\n        /* \"#utility.yul\":11159:11175   */\n      swap1\n      pop\n        /* \"#utility.yul\":11176:11223   */\n      tag_482\n        /* \"#utility.yul\":11217:11222   */\n      dup3\n        /* \"#utility.yul\":11176:11223   */\n      tag_326\n      jump\t// in\n    tag_482:\n        /* \"#utility.yul\":11090:11229   */\n      swap2\n      swap1\n      pop\n      jump\t// out\n        /* \"#utility.yul\":11235:11374   */\n    tag_328:\n        /* \"#utility.yul\":11297:11306   */\n      0x00\n        /* \"#utility.yul\":11330:11368   */\n      tag_484\n        /* \"#utility.yul\":11362:11367   */\n      dup3\n        /* \"#utility.yul\":11330:11368   */\n      tag_327\n      jump\t// in\n    tag_484:\n        /* \"#utility.yul\":11317:11368   */\n      swap1\n      pop\n        /* \"#utility.yul\":11235:11374   */\n      swap2\n      swap1\n      pop\n      jump\t// out\n        /* \"#utility.yul\":11380:11535   */\n    tag_329:\n        /* \"#utility.yul\":11479:11528   */\n      tag_486\n        /* \"#utility.yul\":11522:11527   */\n      dup2\n        /* \"#utility.yul\":11479:11528   */\n      tag_328\n      jump\t// in\n    tag_486:\n        /* \"#utility.yul\":11474:11477   */\n      dup3\n        /* \"#utility.yul\":11467:11529   */\n      mstore\n        /* \"#utility.yul\":11380:11535   */\n      pop\n      pop\n      jump\t// out\n        /* \"#utility.yul\":11541:12340   */\n    tag_56:\n        /* \"#utility.yul\":11786:11790   */\n      0x00\n        /* \"#utility.yul\":11824:11827   */\n      0xc0\n        /* \"#utility.yul\":11813:11822   */\n      dup3\n        /* \"#utility.yul\":11809:11828   */\n      add\n        /* \"#utility.yul\":11801:11828   */\n      swap1\n      pop\n        /* \"#utility.yul\":11838:11909   */\n      tag_488\n        /* \"#utility.yul\":11906:11907   */\n      0x00\n        /* \"#utility.yul\":11895:11904   */\n      dup4\n        /* \"#utility.yul\":11891:11908   */\n      add\n        /* \"#utility.yul\":11882:11888   */\n      dup10\n        /* \"#utility.yul\":11838:11909   */\n      tag_323\n      jump\t// in\n    tag_488:\n        /* \"#utility.yul\":11919:11991   */\n      tag_489\n        /* \"#utility.yul\":11987:11989   */\n      0x20\n        /* \"#utility.yul\":11976:11985   */\n      dup4\n        /* \"#utility.yul\":11972:11990   */\n      add\n        /* \"#utility.yul\":11963:11969   */\n      dup9\n        /* \"#utility.yul\":11919:11991   */\n      tag_325\n      jump\t// in\n    tag_489:\n        /* \"#utility.yul\":12001:12073   */\n      tag_490\n        /* \"#utility.yul\":12069:12071   */\n      0x40\n        /* \"#utility.yul\":12058:12067   */\n      dup4\n        /* \"#utility.yul\":12054:12072   */\n      add\n        /* \"#utility.yul\":12045:12051   */\n      dup8\n        /* \"#utility.yul\":12001:12073   */\n      tag_325\n      jump\t// in\n    tag_490:\n        /* \"#utility.yul\":12083:12155   */\n      tag_491\n        /* \"#utility.yul\":12151:12153   */\n      0x60\n        /* \"#utility.yul\":12140:12149   */\n      dup4\n        /* \"#utility.yul\":12136:12154   */\n      add\n        /* \"#utility.yul\":12127:12133   */\n      dup7\n        /* \"#utility.yul\":12083:12155   */\n      tag_324\n      jump\t// in\n    tag_491:\n        /* \"#utility.yul\":12165:12238   */\n      tag_492\n        /* \"#utility.yul\":12233:12236   */\n      0x80\n        /* \"#utility.yul\":12222:12231   */\n      dup4\n        /* \"#utility.yul\":12218:12237   */\n      add\n        /* \"#utility.yul\":12209:12215   */\n      dup6\n        /* \"#utility.yul\":12165:12238   */\n      tag_324\n      jump\t// in\n    tag_492:\n        /* \"#utility.yul\":12248:12333   */\n      tag_493\n        /* \"#utility.yul\":12328:12331   */\n      0xa0\n        /* \"#utility.yul\":12317:12326   */\n      dup4\n        /* \"#utility.yul\":12313:12332   */\n      add\n        /* \"#utility.yul\":12304:12310   */\n      dup5\n        /* \"#utility.yul\":12248:12333   */\n      tag_329\n      jump\t// in\n    tag_493:\n        /* \"#utility.yul\":11541:12340   */\n      swap8\n      swap7\n      pop\n      pop\n      pop\n      pop\n      pop\n      pop\n      pop\n      jump\t// out\n        /* \"#utility.yul\":12346:12965   */\n    tag_60:\n        /* \"#utility.yul\":12423:12429   */\n      0x00\n        /* \"#utility.yul\":12431:12437   */\n      dup1\n        /* \"#utility.yul\":12439:12445   */\n      0x00\n        /* \"#utility.yul\":12488:12490   */\n      0x60\n        /* \"#utility.yul\":12476:12485   */\n      dup5\n        /* \"#utility.yul\":12467:12474   */\n      dup7\n        /* \"#utility.yul\":12463:12486   */\n      sub\n        /* \"#utility.yul\":12459:12491   */\n      slt\n        /* \"#utility.yul\":12456:12575   */\n      iszero\n      tag_495\n      jumpi\n        /* \"#utility.yul\":12494:12573   */\n      tag_496\n      tag_313\n      jump\t// in\n    tag_496:\n        /* \"#utility.yul\":12456:12575   */\n    tag_495:\n        /* \"#utility.yul\":12614:12615   */\n      0x00\n        /* \"#utility.yul\":12639:12692   */\n      tag_497\n        /* \"#utility.yul\":12684:12691   */\n      dup7\n        /* \"#utility.yul\":12675:12681   */\n      dup3\n        /* \"#utility.yul\":12664:12673   */\n      dup8\n        /* \"#utility.yul\":12660:12682   */\n      add\n        /* \"#utility.yul\":12639:12692   */\n      tag_321\n      jump\t// in\n    tag_497:\n        /* \"#utility.yul\":12629:12692   */\n      swap4\n      pop\n        /* \"#utility.yul\":12585:12702   */\n      pop\n        /* \"#utility.yul\":12741:12743   */\n      0x20\n        /* \"#utility.yul\":12767:12820   */\n      tag_498\n        /* \"#utility.yul\":12812:12819   */\n      dup7\n        /* \"#utility.yul\":12803:12809   */\n      dup3\n        /* \"#utility.yul\":12792:12801   */\n      dup8\n        /* \"#utility.yul\":12788:12810   */\n      add\n        /* \"#utility.yul\":12767:12820   */\n      tag_316\n      jump\t// in\n    tag_498:\n        /* \"#utility.yul\":12757:12820   */\n      swap3\n      pop\n        /* \"#utility.yul\":12712:12830   */\n      pop\n        /* \"#utility.yul\":12869:12871   */\n      0x40\n        /* \"#utility.yul\":12895:12948   */\n      tag_499\n        /* \"#utility.yul\":12940:12947   */\n      dup7\n        /* \"#utility.yul\":12931:12937   */\n      dup3\n        /* \"#utility.yul\":12920:12929   */\n      dup8\n        /* \"#utility.yul\":12916:12938   */\n      add\n        /* \"#utility.yul\":12895:12948   */\n      tag_316\n      jump\t// in\n    tag_499:\n        /* \"#utility.yul\":12885:12948   */\n      swap2\n      pop\n        /* \"#utility.yul\":12840:12958   */\n      pop\n        /* \"#utility.yul\":12346:12965   */\n      swap3\n      pop\n      swap3\n      pop\n      swap3\n      jump\t// out\n        /* \"#utility.yul\":12971:13057   */\n    tag_330:\n        /* \"#utility.yul\":13006:13013   */\n      0x00\n        /* \"#utility.yul\":13046:13050   */\n      0xff\n        /* \"#utility.yul\":13039:13044   */\n      dup3\n        /* \"#utility.yul\":13035:13051   */\n      and\n        /* \"#utility.yul\":13024:13051   */\n      swap1\n      pop\n        /* \"#utility.yul\":12971:13057   */\n      swap2\n      swap1\n      pop\n      jump\t// out\n        /* \"#utility.yul\":13063:13175   */\n    tag_331:\n        /* \"#utility.yul\":13146:13168   */\n      tag_502\n        /* \"#utility.yul\":13162:13167   */\n      dup2\n        /* \"#utility.yul\":13146:13168   */\n      tag_330\n      jump\t// in\n    tag_502:\n        /* \"#utility.yul\":13141:13144   */\n      dup3\n        /* \"#utility.yul\":13134:13169   */\n      mstore\n        /* \"#utility.yul\":13063:13175   */\n      pop\n      pop\n      jump\t// out\n        /* \"#utility.yul\":13181:13395   */\n    tag_69:\n        /* \"#utility.yul\":13270:13274   */\n      0x00\n        /* \"#utility.yul\":13308:13310   */\n      0x20\n        /* \"#utility.yul\":13297:13306   */\n      dup3\n        /* \"#utility.yul\":13293:13311   */\n      add\n        /* \"#utility.yul\":13285:13311   */\n      swap1\n      pop\n        /* \"#utility.yul\":13321:13388   */\n      tag_504\n        /* \"#utility.yul\":13385:13386   */\n      0x00\n        /* \"#utility.yul\":13374:13383   */\n      dup4\n        /* \"#utility.yul\":13370:13387   */\n      add\n        /* \"#utility.yul\":13361:13367   */\n      dup5\n        /* \"#utility.yul\":13321:13388   */\n      tag_331\n      jump\t// in\n    tag_504:\n        /* \"#utility.yul\":13181:13395   */\n      swap3\n      swap2\n      pop\n      pop\n      jump\t// out\n        /* \"#utility.yul\":13401:13623   */\n    tag_74:\n        /* \"#utility.yul\":13494:13498   */\n      0x00\n        /* \"#utility.yul\":13532:13534   */\n      0x20\n        /* \"#utility.yul\":13521:13530   */\n      dup3\n        /* \"#utility.yul\":13517:13535   */\n      add\n        /* \"#utility.yul\":13509:13535   */\n      swap1\n      pop\n        /* \"#utility.yul\":13545:13616   */\n      tag_506\n        /* \"#utility.yul\":13613:13614   */\n      0x00\n        /* \"#utility.yul\":13602:13611   */\n      dup4\n        /* \"#utility.yul\":13598:13615   */\n      add\n        /* \"#utility.yul\":13589:13595   */\n      dup5\n        /* \"#utility.yul\":13545:13616   */\n      tag_325\n      jump\t// in\n    tag_506:\n        /* \"#utility.yul\":13401:13623   */\n      swap3\n      swap2\n      pop\n      pop\n      jump\t// out\n        /* \"#utility.yul\":13629:13958   */\n    tag_78:\n        /* \"#utility.yul\":13688:13694   */\n      0x00\n        /* \"#utility.yul\":13737:13739   */\n      0x20\n        /* \"#utility.yul\":13725:13734   */\n      dup3\n        /* \"#utility.yul\":13716:13723   */\n      dup5\n        /* \"#utility.yul\":13712:13735   */\n      sub\n        /* \"#utility.yul\":13708:13740   */\n      slt\n        /* \"#utility.yul\":13705:13824   */\n      iszero\n      tag_508\n      jumpi\n        /* \"#utility.yul\":13743:13822   */\n      tag_509\n      tag_313\n      jump\t// in\n    tag_509:\n        /* \"#utility.yul\":13705:13824   */\n    tag_508:\n        /* \"#utility.yul\":13863:13864   */\n      0x00\n        /* \"#utility.yul\":13888:13941   */\n      tag_510\n        /* \"#utility.yul\":13933:13940   */\n      dup5\n        /* \"#utility.yul\":13924:13930   */\n      dup3\n        /* \"#utility.yul\":13913:13922   */\n      dup6\n        /* \"#utility.yul\":13909:13931   */\n      add\n        /* \"#utility.yul\":13888:13941   */\n      tag_321\n      jump\t// in\n    tag_510:\n        /* \"#utility.yul\":13878:13941   */\n      swap2\n      pop\n        /* \"#utility.yul\":13834:13951   */\n      pop\n        /* \"#utility.yul\":13629:13958   */\n      swap3\n      swap2\n      pop\n      pop\n      jump\t// out\n        /* \"#utility.yul\":13964:14144   */\n    tag_332:\n        /* \"#utility.yul\":14012:14089   */\n      0x4e487b7100000000000000000000000000000000000000000000000000000000\n        /* \"#utility.yul\":14009:14010   */\n      0x00\n        /* \"#utility.yul\":14002:14090   */\n      mstore\n        /* \"#utility.yul\":14109:14113   */\n      0x11\n        /* \"#utility.yul\":14106:14107   */\n      0x04\n        /* \"#utility.yul\":14099:14114   */\n      mstore\n        /* \"#utility.yul\":14133:14137   */\n      0x24\n        /* \"#utility.yul\":14130:14131   */\n      0x00\n        /* \"#utility.yul\":14123:14138   */\n      revert\n        /* \"#utility.yul\":14150:14455   */\n    tag_107:\n        /* \"#utility.yul\":14190:14193   */\n      0x00\n        /* \"#utility.yul\":14209:14229   */\n      tag_513\n        /* \"#utility.yul\":14227:14228   */\n      dup3\n        /* \"#utility.yul\":14209:14229   */\n      tag_302\n      jump\t// in\n    tag_513:\n        /* \"#utility.yul\":14204:14229   */\n      swap2\n      pop\n        /* \"#utility.yul\":14243:14263   */\n      tag_514\n        /* \"#utility.yul\":14261:14262   */\n      dup4\n        /* \"#utility.yul\":14243:14263   */\n      tag_302\n      jump\t// in\n    tag_514:\n        /* \"#utility.yul\":14238:14263   */\n      swap3\n      pop\n        /* \"#utility.yul\":14397:14398   */\n      dup3\n        /* \"#utility.yul\":14329:14395   */\n      0xffffffffffffffffffffffffffffffffffffffffffffffffffffffffffffffff\n        /* \"#utility.yul\":14325:14399   */\n      sub\n        /* \"#utility.yul\":14322:14323   */\n      dup3\n        /* \"#utility.yul\":14319:14400   */\n      gt\n        /* \"#utility.yul\":14316:14423   */\n      iszero\n      tag_515\n      jumpi\n        /* \"#utility.yul\":14403:14421   */\n      tag_516\n      tag_332\n      jump\t// in\n    tag_516:\n        /* \"#utility.yul\":14316:14423   */\n    tag_515:\n        /* \"#utility.yul\":14447:14448   */\n      dup3\n        /* \"#utility.yul\":14444:14445   */\n      dup3\n        /* \"#utility.yul\":14440:14449   */\n      add\n        /* \"#utility.yul\":14433:14449   */\n      swap1\n      pop\n        /* \"#utility.yul\":14150:14455   */\n      swap3\n      swap2\n      pop\n      pop\n      jump\t// out\n        /* \"#utility.yul\":14461:14694   */\n    tag_111:\n        /* \"#utility.yul\":14500:14503   */\n      0x00\n        /* \"#utility.yul\":14523:14547   */\n      tag_518\n        /* \"#utility.yul\":14541:14546   */\n      dup3\n        /* \"#utility.yul\":14523:14547   */\n      tag_302\n      jump\t// in\n    tag_518:\n        /* \"#utility.yul\":14514:14547   */\n      swap2\n      pop\n        /* \"#utility.yul\":14569:14635   */\n      0xffffffffffffffffffffffffffffffffffffffffffffffffffffffffffffffff\n        /* \"#utility.yul\":14562:14567   */\n      dup3\n        /* \"#utility.yul\":14559:14636   */\n      sub\n        /* \"#utility.yul\":14556:14659   */\n      tag_519\n      jumpi\n        /* \"#utility.yul\":14639:14657   */\n      tag_520\n      tag_332\n      jump\t// in\n    tag_520:\n        /* \"#utility.yul\":14556:14659   */\n    tag_519:\n        /* \"#utility.yul\":14686:14687   */\n      0x01\n        /* \"#utility.yul\":14679:14684   */\n      dup3\n        /* \"#utility.yul\":14675:14688   */\n      add\n        /* \"#utility.yul\":14668:14688   */\n      swap1\n      pop\n        /* \"#utility.yul\":14461:14694   */\n      swap2\n      swap1\n      pop\n      jump\t// out\n        /* \"#utility.yul\":14700:14880   */\n    tag_114:\n        /* \"#utility.yul\":14748:14825   */\n      0x4e487b7100000000000000000000000000000000000000000000000000000000\n        /* \"#utility.yul\":14745:14746   */\n      0x00\n        /* \"#utility.yul\":14738:14826   */\n      mstore\n        /* \"#utility.yul\":14845:14849   */\n      0x41\n        /* \"#utility.yul\":14842:14843   */\n      0x04\n        /* \"#utility.yul\":14835:14850   */\n      mstore\n        /* \"#utility.yul\":14869:14873   */\n      0x24\n        /* \"#utility.yul\":14866:14867   */\n      0x00\n        /* \"#utility.yul\":14859:14874   */\n      revert\n        /* \"#utility.yul\":14886:15066   */\n    tag_127:\n        /* \"#utility.yul\":14934:15011   */\n      0x4e487b7100000000000000000000000000000000000000000000000000000000\n        /* \"#utility.yul\":14931:14932   */\n      0x00\n        /* \"#utility.yul\":14924:15012   */\n      mstore\n        /* \"#utility.yul\":15031:15035   */\n      0x32\n        /* \"#utility.yul\":15028:15029   */\n      0x04\n        /* \"#utility.yul\":15021:15036   */\n      mstore\n        /* \"#utility.yul\":15055:15059   */\n      0x24\n        /* \"#utility.yul\":15052:15053   */\n      0x00\n        /* \"#utility.yul\":15045:15060   */\n      revert\n        /* \"#utility.yul\":15072:15241   */\n    tag_333:\n        /* \"#utility.yul\":15156:15167   */\n      0x00\n        /* \"#utility.yul\":15190:15196   */\n      dup3\n        /* \"#utility.yul\":15185:15188   */\n      dup3\n        /* \"#utility.yul\":15178:15197   */\n      mstore\n        /* \"#utility.yul\":15230:15234   */\n      0x20\n        /* \"#utility.yul\":15225:15228   */\n      dup3\n        /* \"#utility.yul\":15221:15235   */\n      add\n        /* \"#utility.yul\":15206:15235   */\n      swap1\n      pop\n        /* \"#utility.yul\":15072:15241   */\n      swap3\n      swap2\n      pop\n      pop\n      jump\t// out\n        /* \"#utility.yul\":15247:15425   */\n    tag_334:\n        /* \"#utility.yul\":15387:15417   */\n      0x5072696365206d757374206265206174206c6561737420312077656900000000\n        /* \"#utility.yul\":15383:15384   */\n      0x00\n        /* \"#utility.yul\":15375:15381   */\n      dup3\n        /* \"#utility.yul\":15371:15385   */\n      add\n        /* \"#utility.yul\":15364:15418   */\n      mstore\n        /* \"#utility.yul\":15247:15425   */\n      pop\n      jump\t// out\n        /* \"#utility.yul\":15431:15797   */\n    tag_335:\n        /* \"#utility.yul\":15573:15576   */\n      0x00\n        /* \"#utility.yul\":15594:15661   */\n      tag_526\n        /* \"#utility.yul\":15658:15660   */\n      0x1c\n        /* \"#utility.yul\":15653:15656   */\n      dup4\n        /* \"#utility.yul\":15594:15661   */\n      tag_333\n      jump\t// in\n    tag_526:\n        /* \"#utility.yul\":15587:15661   */\n      swap2\n      pop\n        /* \"#utility.yul\":15670:15763   */\n      tag_527\n        /* \"#utility.yul\":15759:15762   */\n      dup3\n        /* \"#utility.yul\":15670:15763   */\n      tag_334\n      jump\t// in\n    tag_527:\n        /* \"#utility.yul\":15788:15790   */\n      0x20\n        /* \"#utility.yul\":15783:15786   */\n      dup3\n        /* \"#utility.yul\":15779:15791   */\n      add\n        /* \"#utility.yul\":15772:15791   */\n      swap1\n      pop\n        /* \"#utility.yul\":15431:15797   */\n      swap2\n      swap1\n      pop\n      jump\t// out\n        /* \"#utility.yul\":15803:16222   */\n    tag_135:\n        /* \"#utility.yul\":15969:15973   */\n      0x00\n        /* \"#utility.yul\":16007:16009   */\n      0x20\n        /* \"#utility.yul\":15996:16005   */\n      dup3\n        /* \"#utility.yul\":15992:16010   */\n      add\n        /* \"#utility.yul\":15984:16010   */\n      swap1\n      pop\n        /* \"#utility.yul\":16056:16065   */\n      dup2\n        /* \"#utility.yul\":16050:16054   */\n      dup2\n        /* \"#utility.yul\":16046:16066   */\n      sub\n        /* \"#utility.yul\":16042:16043   */\n      0x00\n        /* \"#utility.yul\":16031:16040   */\n      dup4\n        /* \"#utility.yul\":16027:16044   */\n      add\n        /* \"#utility.yul\":16020:16067   */\n      mstore\n        /* \"#utility.yul\":16084:16215   */\n      tag_529\n        /* \"#utility.yul\":16210:16214   */\n      dup2\n        /* \"#utility.yul\":16084:16215   */\n      tag_335\n      jump\t// in\n    tag_529:\n        /* \"#utility.yul\":16076:16215   */\n      swap1\n      pop\n        /* \"#utility.yul\":15803:16222   */\n      swap2\n      swap1\n      pop\n      jump\t// out\n        /* \"#utility.yul\":16228:16450   */\n    tag_142:\n        /* \"#utility.yul\":16321:16325   */\n      0x00\n        /* \"#utility.yul\":16359:16361   */\n      0x20\n        /* \"#utility.yul\":16348:16357   */\n      dup3\n        /* \"#utility.yul\":16344:16362   */\n      add\n        /* \"#utility.yul\":16336:16362   */\n      swap1\n      pop\n        /* \"#utility.yul\":16372:16443   */\n      tag_531\n        /* \"#utility.yul\":16440:16441   */\n      0x00\n        /* \"#utility.yul\":16429:16438   */\n      dup4\n        /* \"#utility.yul\":16425:16442   */\n      add\n        /* \"#utility.yul\":16416:16422   */\n      dup5\n        /* \"#utility.yul\":16372:16443   */\n      tag_324\n      jump\t// in\n    tag_531:\n        /* \"#utility.yul\":16228:16450   */\n      swap3\n      swap2\n      pop\n      pop\n      jump\t// out\n        /* \"#utility.yul\":16456:16599   */\n    tag_336:\n        /* \"#utility.yul\":16513:16518   */\n      0x00\n        /* \"#utility.yul\":16544:16550   */\n      dup2\n        /* \"#utility.yul\":16538:16551   */\n      mload\n        /* \"#utility.yul\":16529:16551   */\n      swap1\n      pop\n        /* \"#utility.yul\":16560:16593   */\n      tag_533\n        /* \"#utility.yul\":16587:16592   */\n      dup2\n        /* \"#utility.yul\":16560:16593   */\n      tag_320\n      jump\t// in\n    tag_533:\n        /* \"#utility.yul\":16456:16599   */\n      swap3\n      swap2\n      pop\n      pop\n      jump\t// out\n        /* \"#utility.yul\":16605:16956   */\n    tag_146:\n        /* \"#utility.yul\":16675:16681   */\n      0x00\n        /* \"#utility.yul\":16724:16726   */\n      0x20\n        /* \"#utility.yul\":16712:16721   */\n      dup3\n        /* \"#utility.yul\":16703:16710   */\n      dup5\n        /* \"#utility.yul\":16699:16722   */\n      sub\n        /* \"#utility.yul\":16695:16727   */\n      slt\n        /* \"#utility.yul\":16692:16811   */\n      iszero\n      tag_535\n      jumpi\n        /* \"#utility.yul\":16730:16809   */\n      tag_536\n      tag_313\n      jump\t// in\n    tag_536:\n        /* \"#utility.yul\":16692:16811   */\n    tag_535:\n        /* \"#utility.yul\":16850:16851   */\n      0x00\n        /* \"#utility.yul\":16875:16939   */\n      tag_537\n        /* \"#utility.yul\":16931:16938   */\n      dup5\n        /* \"#utility.yul\":16922:16928   */\n      dup3\n        /* \"#utility.yul\":16911:16920   */\n      dup6\n        /* \"#utility.yul\":16907:16929   */\n      add\n        /* \"#utility.yul\":16875:16939   */\n      tag_336\n      jump\t// in\n    tag_537:\n        /* \"#utility.yul\":16865:16939   */\n      swap2\n      pop\n        /* \"#utility.yul\":16821:16949   */\n      pop\n        /* \"#utility.yul\":16605:16956   */\n      swap3\n      swap2\n      pop\n      pop\n      jump\t// out\n        /* \"#utility.yul\":16962:17182   */\n    tag_337:\n        /* \"#utility.yul\":17102:17136   */\n      0x5468652073656c6c6572206973206e6f206c6f6e67657220746865206f776e65\n        /* \"#utility.yul\":17098:17099   */\n      0x00\n        /* \"#utility.yul\":17090:17096   */\n      dup3\n        /* \"#utility.yul\":17086:17100   */\n      add\n        /* \"#utility.yul\":17079:17137   */\n      mstore\n        /* \"#utility.yul\":17171:17174   */\n      0x7200000000000000000000000000000000000000000000000000000000000000\n        /* \"#utility.yul\":17166:17168   */\n      0x20\n        /* \"#utility.yul\":17158:17164   */\n      dup3\n        /* \"#utility.yul\":17154:17169   */\n      add\n        /* \"#utility.yul\":17147:17175   */\n      mstore\n        /* \"#utility.yul\":16962:17182   */\n      pop\n      jump\t// out\n        /* \"#utility.yul\":17188:17554   */\n    tag_338:\n        /* \"#utility.yul\":17330:17333   */\n      0x00\n        /* \"#utility.yul\":17351:17418   */\n      tag_540\n        /* \"#utility.yul\":17415:17417   */\n      0x21\n        /* \"#utility.yul\":17410:17413   */\n      dup4\n        /* \"#utility.yul\":17351:17418   */\n      tag_333\n      jump\t// in\n    tag_540:\n        /* \"#utility.yul\":17344:17418   */\n      swap2\n      pop\n        /* \"#utility.yul\":17427:17520   */\n      tag_541\n        /* \"#utility.yul\":17516:17519   */\n      dup3\n        /* \"#utility.yul\":17427:17520   */\n      tag_337\n      jump\t// in\n    tag_541:\n        /* \"#utility.yul\":17545:17547   */\n      0x40\n        /* \"#utility.yul\":17540:17543   */\n      dup3\n        /* \"#utility.yul\":17536:17548   */\n      add\n        /* \"#utility.yul\":17529:17548   */\n      swap1\n      pop\n        /* \"#utility.yul\":17188:17554   */\n      swap2\n      swap1\n      pop\n      jump\t// out\n        /* \"#utility.yul\":17560:17979   */\n    tag_149:\n        /* \"#utility.yul\":17726:17730   */\n      0x00\n        /* \"#utility.yul\":17764:17766   */\n      0x20\n        /* \"#utility.yul\":17753:17762   */\n      dup3\n        /* \"#utility.yul\":17749:17767   */\n      add\n        /* \"#utility.yul\":17741:17767   */\n      swap1\n      pop\n        /* \"#utility.yul\":17813:17822   */\n      dup2\n        /* \"#utility.yul\":17807:17811   */\n      dup2\n        /* \"#utility.yul\":17803:17823   */\n      sub\n        /* \"#utility.yul\":17799:17800   */\n      0x00\n        /* \"#utility.yul\":17788:17797   */\n      dup4\n        /* \"#utility.yul\":17784:17801   */\n      add\n        /* \"#utility.yul\":17777:17824   */\n      mstore\n        /* \"#utility.yul\":17841:17972   */\n      tag_543\n        /* \"#utility.yul\":17967:17971   */\n      dup2\n        /* \"#utility.yul\":17841:17972   */\n      tag_338\n      jump\t// in\n    tag_543:\n        /* \"#utility.yul\":17833:17972   */\n      swap1\n      pop\n        /* \"#utility.yul\":17560:17979   */\n      swap2\n      swap1\n      pop\n      jump\t// out\n        /* \"#utility.yul\":17985:18427   */\n    tag_151:\n        /* \"#utility.yul\":18134:18138   */\n      0x00\n        /* \"#utility.yul\":18172:18174   */\n      0x60\n        /* \"#utility.yul\":18161:18170   */\n      dup3\n        /* \"#utility.yul\":18157:18175   */\n      add\n        /* \"#utility.yul\":18149:18175   */\n      swap1\n      pop\n        /* \"#utility.yul\":18185:18256   */\n      tag_545\n        /* \"#utility.yul\":18253:18254   */\n      0x00\n        /* \"#utility.yul\":18242:18251   */\n      dup4\n        /* \"#utility.yul\":18238:18255   */\n      add\n        /* \"#utility.yul\":18229:18235   */\n      dup7\n        /* \"#utility.yul\":18185:18256   */\n      tag_325\n      jump\t// in\n    tag_545:\n        /* \"#utility.yul\":18266:18338   */\n      tag_546\n        /* \"#utility.yul\":18334:18336   */\n      0x20\n        /* \"#utility.yul\":18323:18332   */\n      dup4\n        /* \"#utility.yul\":18319:18337   */\n      add\n        /* \"#utility.yul\":18310:18316   */\n      dup6\n        /* \"#utility.yul\":18266:18338   */\n      tag_325\n      jump\t// in\n    tag_546:\n        /* \"#utility.yul\":18348:18420   */\n      tag_547\n        /* \"#utility.yul\":18416:18418   */\n      0x40\n        /* \"#utility.yul\":18405:18414   */\n      dup4\n        /* \"#utility.yul\":18401:18419   */\n      add\n        /* \"#utility.yul\":18392:18398   */\n      dup5\n        /* \"#utility.yul\":18348:18420   */\n      tag_324\n      jump\t// in\n    tag_547:\n        /* \"#utility.yul\":17985:18427   */\n      swap5\n      swap4\n      pop\n      pop\n      pop\n      pop\n      jump\t// out\n        /* \"#utility.yul\":18433:18599   */\n    tag_339:\n        /* \"#utility.yul\":18573:18591   */\n      0x4173736574206973206c697374696e6700000000000000000000000000000000\n        /* \"#utility.yul\":18569:18570   */\n      0x00\n        /* \"#utility.yul\":18561:18567   */\n      dup3\n        /* \"#utility.yul\":18557:18571   */\n      add\n        /* \"#utility.yul\":18550:18592   */\n      mstore\n        /* \"#utility.yul\":18433:18599   */\n      pop\n      jump\t// out\n        /* \"#utility.yul\":18605:18971   */\n    tag_340:\n        /* \"#utility.yul\":18747:18750   */\n      0x00\n        /* \"#utility.yul\":18768:18835   */\n      tag_550\n        /* \"#utility.yul\":18832:18834   */\n      0x10\n        /* \"#utility.yul\":18827:18830   */\n      dup4\n        /* \"#utility.yul\":18768:18835   */\n      tag_333\n      jump\t// in\n    tag_550:\n        /* \"#utility.yul\":18761:18835   */\n      swap2\n      pop\n        /* \"#utility.yul\":18844:18937   */\n      tag_551\n        /* \"#utility.yul\":18933:18936   */\n      dup3\n        /* \"#utility.yul\":18844:18937   */\n      tag_339\n      jump\t// in\n    tag_551:\n        /* \"#utility.yul\":18962:18964   */\n      0x20\n        /* \"#utility.yul\":18957:18960   */\n      dup3\n        /* \"#utility.yul\":18953:18965   */\n      add\n        /* \"#utility.yul\":18946:18965   */\n      swap1\n      pop\n        /* \"#utility.yul\":18605:18971   */\n      swap2\n      swap1\n      pop\n      jump\t// out\n        /* \"#utility.yul\":18977:19396   */\n    tag_170:\n        /* \"#utility.yul\":19143:19147   */\n      0x00\n        /* \"#utility.yul\":19181:19183   */\n      0x20\n        /* \"#utility.yul\":19170:19179   */\n      dup3\n        /* \"#utility.yul\":19166:19184   */\n      add\n        /* \"#utility.yul\":19158:19184   */\n      swap1\n      pop\n        /* \"#utility.yul\":19230:19239   */\n      dup2\n        /* \"#utility.yul\":19224:19228   */\n      dup2\n        /* \"#utility.yul\":19220:19240   */\n      sub\n        /* \"#utility.yul\":19216:19217   */\n      0x00\n        /* \"#utility.yul\":19205:19214   */\n      dup4\n        /* \"#utility.yul\":19201:19218   */\n      add\n        /* \"#utility.yul\":19194:19241   */\n      mstore\n        /* \"#utility.yul\":19258:19389   */\n      tag_553\n        /* \"#utility.yul\":19384:19388   */\n      dup2\n        /* \"#utility.yul\":19258:19389   */\n      tag_340\n      jump\t// in\n    tag_553:\n        /* \"#utility.yul\":19250:19389   */\n      swap1\n      pop\n        /* \"#utility.yul\":18977:19396   */\n      swap2\n      swap1\n      pop\n      jump\t// out\n        /* \"#utility.yul\":19402:19555   */\n    tag_341:\n        /* \"#utility.yul\":19542:19547   */\n      0x5351460000000000000000000000000000000000000000000000000000000000\n        /* \"#utility.yul\":19538:19539   */\n      0x00\n        /* \"#utility.yul\":19530:19536   */\n      dup3\n        /* \"#utility.yul\":19526:19540   */\n      add\n        /* \"#utility.yul\":19519:19548   */\n      mstore\n        /* \"#utility.yul\":19402:19555   */\n      pop\n      jump\t// out\n        /* \"#utility.yul\":19561:19926   */\n    tag_342:\n        /* \"#utility.yul\":19703:19706   */\n      0x00\n        /* \"#utility.yul\":19724:19790   */\n      tag_556\n        /* \"#utility.yul\":19788:19789   */\n      0x03\n        /* \"#utility.yul\":19783:19786   */\n      dup4\n        /* \"#utility.yul\":19724:19790   */\n      tag_333\n      jump\t// in\n    tag_556:\n        /* \"#utility.yul\":19717:19790   */\n      swap2\n      pop\n        /* \"#utility.yul\":19799:19892   */\n      tag_557\n        /* \"#utility.yul\":19888:19891   */\n      dup3\n        /* \"#utility.yul\":19799:19892   */\n      tag_341\n      jump\t// in\n    tag_557:\n        /* \"#utility.yul\":19917:19919   */\n      0x20\n        /* \"#utility.yul\":19912:19915   */\n      dup3\n        /* \"#utility.yul\":19908:19920   */\n      add\n        /* \"#utility.yul\":19901:19920   */\n      swap1\n      pop\n        /* \"#utility.yul\":19561:19926   */\n      swap2\n      swap1\n      pop\n      jump\t// out\n        /* \"#utility.yul\":19932:20793   */\n    tag_178:\n        /* \"#utility.yul\":20210:20214   */\n      0x00\n        /* \"#utility.yul\":20248:20251   */\n      0xa0\n        /* \"#utility.yul\":20237:20246   */\n      dup3\n        /* \"#utility.yul\":20233:20252   */\n      add\n        /* \"#utility.yul\":20225:20252   */\n      swap1\n      pop\n        /* \"#utility.yul\":20262:20333   */\n      tag_559\n        /* \"#utility.yul\":20330:20331   */\n      0x00\n        /* \"#utility.yul\":20319:20328   */\n      dup4\n        /* \"#utility.yul\":20315:20332   */\n      add\n        /* \"#utility.yul\":20306:20312   */\n      dup8\n        /* \"#utility.yul\":20262:20333   */\n      tag_325\n      jump\t// in\n    tag_559:\n        /* \"#utility.yul\":20343:20415   */\n      tag_560\n        /* \"#utility.yul\":20411:20413   */\n      0x20\n        /* \"#utility.yul\":20400:20409   */\n      dup4\n        /* \"#utility.yul\":20396:20414   */\n      add\n        /* \"#utility.yul\":20387:20393   */\n      dup7\n        /* \"#utility.yul\":20343:20415   */\n      tag_323\n      jump\t// in\n    tag_560:\n        /* \"#utility.yul\":20425:20497   */\n      tag_561\n        /* \"#utility.yul\":20493:20495   */\n      0x40\n        /* \"#utility.yul\":20482:20491   */\n      dup4\n        /* \"#utility.yul\":20478:20496   */\n      add\n        /* \"#utility.yul\":20469:20475   */\n      dup6\n        /* \"#utility.yul\":20425:20497   */\n      tag_324\n      jump\t// in\n    tag_561:\n        /* \"#utility.yul\":20544:20553   */\n      dup2\n        /* \"#utility.yul\":20538:20542   */\n      dup2\n        /* \"#utility.yul\":20534:20554   */\n      sub\n        /* \"#utility.yul\":20529:20531   */\n      0x60\n        /* \"#utility.yul\":20518:20527   */\n      dup4\n        /* \"#utility.yul\":20514:20532   */\n      add\n        /* \"#utility.yul\":20507:20555   */\n      mstore\n        /* \"#utility.yul\":20572:20703   */\n      tag_562\n        /* \"#utility.yul\":20698:20702   */\n      dup2\n        /* \"#utility.yul\":20572:20703   */\n      tag_342\n      jump\t// in\n    tag_562:\n        /* \"#utility.yul\":20564:20703   */\n      swap1\n      pop\n        /* \"#utility.yul\":20713:20786   */\n      tag_563\n        /* \"#utility.yul\":20781:20784   */\n      0x80\n        /* \"#utility.yul\":20770:20779   */\n      dup4\n        /* \"#utility.yul\":20766:20785   */\n      add\n        /* \"#utility.yul\":20757:20763   */\n      dup5\n        /* \"#utility.yul\":20713:20786   */\n      tag_324\n      jump\t// in\n    tag_563:\n        /* \"#utility.yul\":19932:20793   */\n      swap6\n      swap5\n      pop\n      pop\n      pop\n      pop\n      pop\n      jump\t// out\n        /* \"#utility.yul\":20799:20981   */\n    tag_343:\n        /* \"#utility.yul\":20939:20973   */\n      0x4f776e61626c653a2063616c6c6572206973206e6f7420746865206f776e6572\n        /* \"#utility.yul\":20935:20936   */\n      0x00\n        /* \"#utility.yul\":20927:20933   */\n      dup3\n        /* \"#utility.yul\":20923:20937   */\n      add\n        /* \"#utility.yul\":20916:20974   */\n      mstore\n        /* \"#utility.yul\":20799:20981   */\n      pop\n      jump\t// out\n        /* \"#utility.yul\":20987:21353   */\n    tag_344:\n        /* \"#utility.yul\":21129:21132   */\n      0x00\n        /* \"#utility.yul\":21150:21217   */\n      tag_566\n        /* \"#utility.yul\":21214:21216   */\n      0x20\n        /* \"#utility.yul\":21209:21212   */\n      dup4\n        /* \"#utility.yul\":21150:21217   */\n      tag_333\n      jump\t// in\n    tag_566:\n        /* \"#utility.yul\":21143:21217   */\n      swap2\n      pop\n        /* \"#utility.yul\":21226:21319   */\n      tag_567\n        /* \"#utility.yul\":21315:21318   */\n      dup3\n        /* \"#utility.yul\":21226:21319   */\n      tag_343\n      jump\t// in\n    tag_567:\n        /* \"#utility.yul\":21344:21346   */\n      0x20\n        /* \"#utility.yul\":21339:21342   */\n      dup3\n        /* \"#utility.yul\":21335:21347   */\n      add\n        /* \"#utility.yul\":21328:21347   */\n      swap1\n      pop\n        /* \"#utility.yul\":20987:21353   */\n      swap2\n      swap1\n      pop\n      jump\t// out\n        /* \"#utility.yul\":21359:21778   */\n    tag_185:\n        /* \"#utility.yul\":21525:21529   */\n      0x00\n        /* \"#utility.yul\":21563:21565   */\n      0x20\n        /* \"#utility.yul\":21552:21561   */\n      dup3\n        /* \"#utility.yul\":21548:21566   */\n      add\n        /* \"#utility.yul\":21540:21566   */\n      swap1\n      pop\n        /* \"#utility.yul\":21612:21621   */\n      dup2\n        /* \"#utility.yul\":21606:21610   */\n      dup2\n        /* \"#utility.yul\":21602:21622   */\n      sub\n        /* \"#utility.yul\":21598:21599   */\n      0x00\n        /* \"#utility.yul\":21587:21596   */\n      dup4\n        /* \"#utility.yul\":21583:21600   */\n      add\n        /* \"#utility.yul\":21576:21623   */\n      mstore\n        /* \"#utility.yul\":21640:21771   */\n      tag_569\n        /* \"#utility.yul\":21766:21770   */\n      dup2\n        /* \"#utility.yul\":21640:21771   */\n      tag_344\n      jump\t// in\n    tag_569:\n        /* \"#utility.yul\":21632:21771   */\n      swap1\n      pop\n        /* \"#utility.yul\":21359:21778   */\n      swap2\n      swap1\n      pop\n      jump\t// out\n        /* \"#utility.yul\":21784:21965   */\n    tag_345:\n        /* \"#utility.yul\":21924:21957   */\n      0x5265656e7472616e637947756172643a207265656e7472616e742063616c6c00\n        /* \"#utility.yul\":21920:21921   */\n      0x00\n        /* \"#utility.yul\":21912:21918   */\n      dup3\n        /* \"#utility.yul\":21908:21922   */\n      add\n        /* \"#utility.yul\":21901:21958   */\n      mstore\n        /* \"#utility.yul\":21784:21965   */\n      pop\n      jump\t// out\n        /* \"#utility.yul\":21971:22337   */\n    tag_346:\n        /* \"#utility.yul\":22113:22116   */\n      0x00\n        /* \"#utility.yul\":22134:22201   */\n      tag_572\n        /* \"#utility.yul\":22198:22200   */\n      0x1f\n        /* \"#utility.yul\":22193:22196   */\n      dup4\n        /* \"#utility.yul\":22134:22201   */\n      tag_333\n      jump\t// in\n    tag_572:\n        /* \"#utility.yul\":22127:22201   */\n      swap2\n      pop\n        /* \"#utility.yul\":22210:22303   */\n      tag_573\n        /* \"#utility.yul\":22299:22302   */\n      dup3\n        /* \"#utility.yul\":22210:22303   */\n      tag_345\n      jump\t// in\n    tag_573:\n        /* \"#utility.yul\":22328:22330   */\n      0x20\n        /* \"#utility.yul\":22323:22326   */\n      dup3\n        /* \"#utility.yul\":22319:22331   */\n      add\n        /* \"#utility.yul\":22312:22331   */\n      swap1\n      pop\n        /* \"#utility.yul\":21971:22337   */\n      swap2\n      swap1\n      pop\n      jump\t// out\n        /* \"#utility.yul\":22343:22762   */\n    tag_199:\n        /* \"#utility.yul\":22509:22513   */\n      0x00\n        /* \"#utility.yul\":22547:22549   */\n      0x20\n        /* \"#utility.yul\":22536:22545   */\n      dup3\n        /* \"#utility.yul\":22532:22550   */\n      add\n        /* \"#utility.yul\":22524:22550   */\n      swap1\n      pop\n        /* \"#utility.yul\":22596:22605   */\n      dup2\n        /* \"#utility.yul\":22590:22594   */\n      dup2\n        /* \"#utility.yul\":22586:22606   */\n      sub\n        /* \"#utility.yul\":22582:22583   */\n      0x00\n        /* \"#utility.yul\":22571:22580   */\n      dup4\n        /* \"#utility.yul\":22567:22584   */\n      add\n        /* \"#utility.yul\":22560:22607   */\n      mstore\n        /* \"#utility.yul\":22624:22755   */\n      tag_575\n        /* \"#utility.yul\":22750:22754   */\n      dup2\n        /* \"#utility.yul\":22624:22755   */\n      tag_346\n      jump\t// in\n    tag_575:\n        /* \"#utility.yul\":22616:22755   */\n      swap1\n      pop\n        /* \"#utility.yul\":22343:22762   */\n      swap2\n      swap1\n      pop\n      jump\t// out\n        /* \"#utility.yul\":22768:23019   */\n    tag_347:\n        /* \"#utility.yul\":22908:22942   */\n      0x506c65617365207375626d6974207468652061736b696e672070726963652069\n        /* \"#utility.yul\":22904:22905   */\n      0x00\n        /* \"#utility.yul\":22896:22902   */\n      dup3\n        /* \"#utility.yul\":22892:22906   */\n      add\n        /* \"#utility.yul\":22885:22943   */\n      mstore\n        /* \"#utility.yul\":22977:23011   */\n      0x6e206f7264657220746f20636f6d706c65746520746865207075726368617365\n        /* \"#utility.yul\":22972:22974   */\n      0x20\n        /* \"#utility.yul\":22964:22970   */\n      dup3\n        /* \"#utility.yul\":22960:22975   */\n      add\n        /* \"#utility.yul\":22953:23012   */\n      mstore\n        /* \"#utility.yul\":22768:23019   */\n      pop\n      jump\t// out\n        /* \"#utility.yul\":23025:23391   */\n    tag_348:\n        /* \"#utility.yul\":23167:23170   */\n      0x00\n        /* \"#utility.yul\":23188:23255   */\n      tag_578\n        /* \"#utility.yul\":23252:23254   */\n      0x40\n        /* \"#utility.yul\":23247:23250   */\n      dup4\n        /* \"#utility.yul\":23188:23255   */\n      tag_333\n      jump\t// in\n    tag_578:\n        /* \"#utility.yul\":23181:23255   */\n      swap2\n      pop\n        /* \"#utility.yul\":23264:23357   */\n      tag_579\n        /* \"#utility.yul\":23353:23356   */\n      dup3\n        /* \"#utility.yul\":23264:23357   */\n      tag_347\n      jump\t// in\n    tag_579:\n        /* \"#utility.yul\":23382:23384   */\n      0x40\n        /* \"#utility.yul\":23377:23380   */\n      dup3\n        /* \"#utility.yul\":23373:23385   */\n      add\n        /* \"#utility.yul\":23366:23385   */\n      swap1\n      pop\n        /* \"#utility.yul\":23025:23391   */\n      swap2\n      swap1\n      pop\n      jump\t// out\n        /* \"#utility.yul\":23397:23816   */\n    tag_203:\n        /* \"#utility.yul\":23563:23567   */\n      0x00\n        /* \"#utility.yul\":23601:23603   */\n      0x20\n        /* \"#utility.yul\":23590:23599   */\n      dup3\n        /* \"#utility.yul\":23586:23604   */\n      add\n        /* \"#utility.yul\":23578:23604   */\n      swap1\n      pop\n        /* \"#utility.yul\":23650:23659   */\n      dup2\n        /* \"#utility.yul\":23644:23648   */\n      dup2\n        /* \"#utility.yul\":23640:23660   */\n      sub\n        /* \"#utility.yul\":23636:23637   */\n      0x00\n        /* \"#utility.yul\":23625:23634   */\n      dup4\n        /* \"#utility.yul\":23621:23638   */\n      add\n        /* \"#utility.yul\":23614:23661   */\n      mstore\n        /* \"#utility.yul\":23678:23809   */\n      tag_581\n        /* \"#utility.yul\":23804:23808   */\n      dup2\n        /* \"#utility.yul\":23678:23809   */\n      tag_348\n      jump\t// in\n    tag_581:\n        /* \"#utility.yul\":23670:23809   */\n      swap1\n      pop\n        /* \"#utility.yul\":23397:23816   */\n      swap2\n      swap1\n      pop\n      jump\t// out\n        /* \"#utility.yul\":23822:23991   */\n    tag_349:\n        /* \"#utility.yul\":23962:23983   */\n      0x4173736574206e6f74207075626c697368656400000000000000000000000000\n        /* \"#utility.yul\":23958:23959   */\n      0x00\n        /* \"#utility.yul\":23950:23956   */\n      dup3\n        /* \"#utility.yul\":23946:23960   */\n      add\n        /* \"#utility.yul\":23939:23984   */\n      mstore\n        /* \"#utility.yul\":23822:23991   */\n      pop\n      jump\t// out\n        /* \"#utility.yul\":23997:24363   */\n    tag_350:\n        /* \"#utility.yul\":24139:24142   */\n      0x00\n        /* \"#utility.yul\":24160:24227   */\n      tag_584\n        /* \"#utility.yul\":24224:24226   */\n      0x13\n        /* \"#utility.yul\":24219:24222   */\n      dup4\n        /* \"#utility.yul\":24160:24227   */\n      tag_333\n      jump\t// in\n    tag_584:\n        /* \"#utility.yul\":24153:24227   */\n      swap2\n      pop\n        /* \"#utility.yul\":24236:24329   */\n      tag_585\n        /* \"#utility.yul\":24325:24328   */\n      dup3\n        /* \"#utility.yul\":24236:24329   */\n      tag_349\n      jump\t// in\n    tag_585:\n        /* \"#utility.yul\":24354:24356   */\n      0x20\n        /* \"#utility.yul\":24349:24352   */\n      dup3\n        /* \"#utility.yul\":24345:24357   */\n      add\n        /* \"#utility.yul\":24338:24357   */\n      swap1\n      pop\n        /* \"#utility.yul\":23997:24363   */\n      swap2\n      swap1\n      pop\n      jump\t// out\n        /* \"#utility.yul\":24369:24788   */\n    tag_221:\n        /* \"#utility.yul\":24535:24539   */\n      0x00\n        /* \"#utility.yul\":24573:24575   */\n      0x20\n        /* \"#utility.yul\":24562:24571   */\n      dup3\n        /* \"#utility.yul\":24558:24576   */\n      add\n        /* \"#utility.yul\":24550:24576   */\n      swap1\n      pop\n        /* \"#utility.yul\":24622:24631   */\n      dup2\n        /* \"#utility.yul\":24616:24620   */\n      dup2\n        /* \"#utility.yul\":24612:24632   */\n      sub\n        /* \"#utility.yul\":24608:24609   */\n      0x00\n        /* \"#utility.yul\":24597:24606   */\n      dup4\n        /* \"#utility.yul\":24593:24610   */\n      add\n        /* \"#utility.yul\":24586:24633   */\n      mstore\n        /* \"#utility.yul\":24650:24781   */\n      tag_587\n        /* \"#utility.yul\":24776:24780   */\n      dup2\n        /* \"#utility.yul\":24650:24781   */\n      tag_350\n      jump\t// in\n    tag_587:\n        /* \"#utility.yul\":24642:24781   */\n      swap1\n      pop\n        /* \"#utility.yul\":24369:24788   */\n      swap2\n      swap1\n      pop\n      jump\t// out\n        /* \"#utility.yul\":24794:24968   */\n    tag_351:\n        /* \"#utility.yul\":24934:24960   */\n      0x4173736574206973206e6f74206c69737420746f206275790000000000000000\n        /* \"#utility.yul\":24930:24931   */\n      0x00\n        /* \"#utility.yul\":24922:24928   */\n      dup3\n        /* \"#utility.yul\":24918:24932   */\n      add\n        /* \"#utility.yul\":24911:24961   */\n      mstore\n        /* \"#utility.yul\":24794:24968   */\n      pop\n      jump\t// out\n        /* \"#utility.yul\":24974:25340   */\n    tag_352:\n        /* \"#utility.yul\":25116:25119   */\n      0x00\n        /* \"#utility.yul\":25137:25204   */\n      tag_590\n        /* \"#utility.yul\":25201:25203   */\n      0x18\n        /* \"#utility.yul\":25196:25199   */\n      dup4\n        /* \"#utility.yul\":25137:25204   */\n      tag_333\n      jump\t// in\n    tag_590:\n        /* \"#utility.yul\":25130:25204   */\n      swap2\n      pop\n        /* \"#utility.yul\":25213:25306   */\n      tag_591\n        /* \"#utility.yul\":25302:25305   */\n      dup3\n        /* \"#utility.yul\":25213:25306   */\n      tag_351\n      jump\t// in\n    tag_591:\n        /* \"#utility.yul\":25331:25333   */\n      0x20\n        /* \"#utility.yul\":25326:25329   */\n      dup3\n        /* \"#utility.yul\":25322:25334   */\n      add\n        /* \"#utility.yul\":25315:25334   */\n      swap1\n      pop\n        /* \"#utility.yul\":24974:25340   */\n      swap2\n      swap1\n      pop\n      jump\t// out\n        /* \"#utility.yul\":25346:25765   */\n    tag_228:\n        /* \"#utility.yul\":25512:25516   */\n      0x00\n        /* \"#utility.yul\":25550:25552   */\n      0x20\n        /* \"#utility.yul\":25539:25548   */\n      dup3\n        /* \"#utility.yul\":25535:25553   */\n      add\n        /* \"#utility.yul\":25527:25553   */\n      swap1\n      pop\n        /* \"#utility.yul\":25599:25608   */\n      dup2\n        /* \"#utility.yul\":25593:25597   */\n      dup2\n        /* \"#utility.yul\":25589:25609   */\n      sub\n        /* \"#utility.yul\":25585:25586   */\n      0x00\n        /* \"#utility.yul\":25574:25583   */\n      dup4\n        /* \"#utility.yul\":25570:25587   */\n      add\n        /* \"#utility.yul\":25563:25610   */\n      mstore\n        /* \"#utility.yul\":25627:25758   */\n      tag_593\n        /* \"#utility.yul\":25753:25757   */\n      dup2\n        /* \"#utility.yul\":25627:25758   */\n      tag_352\n      jump\t// in\n    tag_593:\n        /* \"#utility.yul\":25619:25758   */\n      swap1\n      pop\n        /* \"#utility.yul\":25346:25765   */\n      swap2\n      swap1\n      pop\n      jump\t// out\n        /* \"#utility.yul\":25771:25936   */\n    tag_353:\n        /* \"#utility.yul\":25911:25928   */\n      0x496e76616c696420616464726573730000000000000000000000000000000000\n        /* \"#utility.yul\":25907:25908   */\n      0x00\n        /* \"#utility.yul\":25899:25905   */\n      dup3\n        /* \"#utility.yul\":25895:25909   */\n      add\n        /* \"#utility.yul\":25888:25929   */\n      mstore\n        /* \"#utility.yul\":25771:25936   */\n      pop\n      jump\t// out\n        /* \"#utility.yul\":25942:26308   */\n    tag_354:\n        /* \"#utility.yul\":26084:26087   */\n      0x00\n        /* \"#utility.yul\":26105:26172   */\n      tag_596\n        /* \"#utility.yul\":26169:26171   */\n      0x0f\n        /* \"#utility.yul\":26164:26167   */\n      dup4\n        /* \"#utility.yul\":26105:26172   */\n      tag_333\n      jump\t// in\n    tag_596:\n        /* \"#utility.yul\":26098:26172   */\n      swap2\n      pop\n        /* \"#utility.yul\":26181:26274   */\n      tag_597\n        /* \"#utility.yul\":26270:26273   */\n      dup3\n        /* \"#utility.yul\":26181:26274   */\n      tag_353\n      jump\t// in\n    tag_597:\n        /* \"#utility.yul\":26299:26301   */\n      0x20\n        /* \"#utility.yul\":26294:26297   */\n      dup3\n        /* \"#utility.yul\":26290:26302   */\n      add\n        /* \"#utility.yul\":26283:26302   */\n      swap1\n      pop\n        /* \"#utility.yul\":25942:26308   */\n      swap2\n      swap1\n      pop\n      jump\t// out\n        /* \"#utility.yul\":26314:26733   */\n    tag_231:\n        /* \"#utility.yul\":26480:26484   */\n      0x00\n        /* \"#utility.yul\":26518:26520   */\n      0x20\n        /* \"#utility.yul\":26507:26516   */\n      dup3\n        /* \"#utility.yul\":26503:26521   */\n      add\n        /* \"#utility.yul\":26495:26521   */\n      swap1\n      pop\n        /* \"#utility.yul\":26567:26576   */\n      dup2\n        /* \"#utility.yul\":26561:26565   */\n      dup2\n        /* \"#utility.yul\":26557:26577   */\n      sub\n        /* \"#utility.yul\":26553:26554   */\n      0x00\n        /* \"#utility.yul\":26542:26551   */\n      dup4\n        /* \"#utility.yul\":26538:26555   */\n      add\n        /* \"#utility.yul\":26531:26578   */\n      mstore\n        /* \"#utility.yul\":26595:26726   */\n      tag_599\n        /* \"#utility.yul\":26721:26725   */\n      dup2\n        /* \"#utility.yul\":26595:26726   */\n      tag_354\n      jump\t// in\n    tag_599:\n        /* \"#utility.yul\":26587:26726   */\n      swap1\n      pop\n        /* \"#utility.yul\":26314:26733   */\n      swap2\n      swap1\n      pop\n      jump\t// out\n        /* \"#utility.yul\":26739:26919   */\n    tag_355:\n        /* \"#utility.yul\":26879:26911   */\n      0x7072696365206e65656420657175616c206c697374696e672070726963650000\n        /* \"#utility.yul\":26875:26876   */\n      0x00\n        /* \"#utility.yul\":26867:26873   */\n      dup3\n        /* \"#utility.yul\":26863:26877   */\n      add\n        /* \"#utility.yul\":26856:26912   */\n      mstore\n        /* \"#utility.yul\":26739:26919   */\n      pop\n      jump\t// out\n        /* \"#utility.yul\":26925:27291   */\n    tag_356:\n        /* \"#utility.yul\":27067:27070   */\n      0x00\n        /* \"#utility.yul\":27088:27155   */\n      tag_602\n        /* \"#utility.yul\":27152:27154   */\n      0x1e\n        /* \"#utility.yul\":27147:27150   */\n      dup4\n        /* \"#utility.yul\":27088:27155   */\n      tag_333\n      jump\t// in\n    tag_602:\n        /* \"#utility.yul\":27081:27155   */\n      swap2\n      pop\n        /* \"#utility.yul\":27164:27257   */\n      tag_603\n        /* \"#utility.yul\":27253:27256   */\n      dup3\n        /* \"#utility.yul\":27164:27257   */\n      tag_355\n      jump\t// in\n    tag_603:\n        /* \"#utility.yul\":27282:27284   */\n      0x20\n        /* \"#utility.yul\":27277:27280   */\n      dup3\n        /* \"#utility.yul\":27273:27285   */\n      add\n        /* \"#utility.yul\":27266:27285   */\n      swap1\n      pop\n        /* \"#utility.yul\":26925:27291   */\n      swap2\n      swap1\n      pop\n      jump\t// out\n        /* \"#utility.yul\":27297:27716   */\n    tag_234:\n        /* \"#utility.yul\":27463:27467   */\n      0x00\n        /* \"#utility.yul\":27501:27503   */\n      0x20\n        /* \"#utility.yul\":27490:27499   */\n      dup3\n        /* \"#utility.yul\":27486:27504   */\n      add\n        /* \"#utility.yul\":27478:27504   */\n      swap1\n      pop\n        /* \"#utility.yul\":27550:27559   */\n      dup2\n        /* \"#utility.yul\":27544:27548   */\n      dup2\n        /* \"#utility.yul\":27540:27560   */\n      sub\n        /* \"#utility.yul\":27536:27537   */\n      0x00\n        /* \"#utility.yul\":27525:27534   */\n      dup4\n        /* \"#utility.yul\":27521:27538   */\n      add\n        /* \"#utility.yul\":27514:27561   */\n      mstore\n        /* \"#utility.yul\":27578:27709   */\n      tag_605\n        /* \"#utility.yul\":27704:27708   */\n      dup2\n        /* \"#utility.yul\":27578:27709   */\n      tag_356\n      jump\t// in\n    tag_605:\n        /* \"#utility.yul\":27570:27709   */\n      swap1\n      pop\n        /* \"#utility.yul\":27297:27716   */\n      swap2\n      swap1\n      pop\n      jump\t// out\n        /* \"#utility.yul\":27722:28070   */\n    tag_236:\n        /* \"#utility.yul\":27762:27769   */\n      0x00\n        /* \"#utility.yul\":27785:27805   */\n      tag_607\n        /* \"#utility.yul\":27803:27804   */\n      dup3\n        /* \"#utility.yul\":27785:27805   */\n      tag_302\n      jump\t// in\n    tag_607:\n        /* \"#utility.yul\":27780:27805   */\n      swap2\n      pop\n        /* \"#utility.yul\":27819:27839   */\n      tag_608\n        /* \"#utility.yul\":27837:27838   */\n      dup4\n        /* \"#utility.yul\":27819:27839   */\n      tag_302\n      jump\t// in\n    tag_608:\n        /* \"#utility.yul\":27814:27839   */\n      swap3\n      pop\n        /* \"#utility.yul\":28007:28008   */\n      dup2\n        /* \"#utility.yul\":27939:28005   */\n      0xffffffffffffffffffffffffffffffffffffffffffffffffffffffffffffffff\n        /* \"#utility.yul\":27935:28009   */\n      div\n        /* \"#utility.yul\":27932:27933   */\n      dup4\n        /* \"#utility.yul\":27929:28010   */\n      gt\n        /* \"#utility.yul\":27924:27925   */\n      dup3\n        /* \"#utility.yul\":27917:27926   */\n      iszero\n        /* \"#utility.yul\":27910:27927   */\n      iszero\n        /* \"#utility.yul\":27906:28011   */\n      and\n        /* \"#utility.yul\":27903:28034   */\n      iszero\n      tag_609\n      jumpi\n        /* \"#utility.yul\":28014:28032   */\n      tag_610\n      tag_332\n      jump\t// in\n    tag_610:\n        /* \"#utility.yul\":27903:28034   */\n    tag_609:\n        /* \"#utility.yul\":28062:28063   */\n      dup3\n        /* \"#utility.yul\":28059:28060   */\n      dup3\n        /* \"#utility.yul\":28055:28064   */\n      mul\n        /* \"#utility.yul\":28044:28064   */\n      swap1\n      pop\n        /* \"#utility.yul\":27722:28070   */\n      swap3\n      swap2\n      pop\n      pop\n      jump\t// out\n        /* \"#utility.yul\":28076:28256   */\n    tag_357:\n        /* \"#utility.yul\":28124:28201   */\n      0x4e487b7100000000000000000000000000000000000000000000000000000000\n        /* \"#utility.yul\":28121:28122   */\n      0x00\n        /* \"#utility.yul\":28114:28202   */\n      mstore\n        /* \"#utility.yul\":28221:28225   */\n      0x12\n        /* \"#utility.yul\":28218:28219   */\n      0x04\n        /* \"#utility.yul\":28211:28226   */\n      mstore\n        /* \"#utility.yul\":28245:28249   */\n      0x24\n        /* \"#utility.yul\":28242:28243   */\n      0x00\n        /* \"#utility.yul\":28235:28250   */\n      revert\n        /* \"#utility.yul\":28262:28447   */\n    tag_238:\n        /* \"#utility.yul\":28302:28303   */\n      0x00\n        /* \"#utility.yul\":28319:28339   */\n      tag_613\n        /* \"#utility.yul\":28337:28338   */\n      dup3\n        /* \"#utility.yul\":28319:28339   */\n      tag_302\n      jump\t// in\n    tag_613:\n        /* \"#utility.yul\":28314:28339   */\n      swap2\n      pop\n        /* \"#utility.yul\":28353:28373   */\n      tag_614\n        /* \"#utility.yul\":28371:28372   */\n      dup4\n        /* \"#utility.yul\":28353:28373   */\n      tag_302\n      jump\t// in\n    tag_614:\n        /* \"#utility.yul\":28348:28373   */\n      swap3\n      pop\n        /* \"#utility.yul\":28392:28393   */\n      dup3\n        /* \"#utility.yul\":28382:28417   */\n      tag_615\n      jumpi\n        /* \"#utility.yul\":28397:28415   */\n      tag_616\n      tag_357\n      jump\t// in\n    tag_616:\n        /* \"#utility.yul\":28382:28417   */\n    tag_615:\n        /* \"#utility.yul\":28439:28440   */\n      dup3\n        /* \"#utility.yul\":28436:28437   */\n      dup3\n        /* \"#utility.yul\":28432:28441   */\n      div\n        /* \"#utility.yul\":28427:28441   */\n      swap1\n      pop\n        /* \"#utility.yul\":28262:28447   */\n      swap3\n      swap2\n      pop\n      pop\n      jump\t// out\n        /* \"#utility.yul\":28453:28644   */\n    tag_240:\n        /* \"#utility.yul\":28493:28497   */\n      0x00\n        /* \"#utility.yul\":28513:28533   */\n      tag_618\n        /* \"#utility.yul\":28531:28532   */\n      dup3\n        /* \"#utility.yul\":28513:28533   */\n      tag_302\n      jump\t// in\n    tag_618:\n        /* \"#utility.yul\":28508:28533   */\n      swap2\n      pop\n        /* \"#utility.yul\":28547:28567   */\n      tag_619\n        /* \"#utility.yul\":28565:28566   */\n      dup4\n        /* \"#utility.yul\":28547:28567   */\n      tag_302\n      jump\t// in\n    tag_619:\n        /* \"#utility.yul\":28542:28567   */\n      swap3\n      pop\n        /* \"#utility.yul\":28586:28587   */\n      dup3\n        /* \"#utility.yul\":28583:28584   */\n      dup3\n        /* \"#utility.yul\":28580:28588   */\n      lt\n        /* \"#utility.yul\":28577:28611   */\n      iszero\n      tag_620\n      jumpi\n        /* \"#utility.yul\":28591:28609   */\n      tag_621\n      tag_332\n      jump\t// in\n    tag_621:\n        /* \"#utility.yul\":28577:28611   */\n    tag_620:\n        /* \"#utility.yul\":28636:28637   */\n      dup3\n        /* \"#utility.yul\":28633:28634   */\n      dup3\n        /* \"#utility.yul\":28629:28638   */\n      sub\n        /* \"#utility.yul\":28621:28638   */\n      swap1\n      pop\n        /* \"#utility.yul\":28453:28644   */\n      swap3\n      swap2\n      pop\n      pop\n      jump\t// out\n        /* \"#utility.yul\":28650:28740   */\n    tag_358:\n        /* \"#utility.yul\":28684:28691   */\n      0x00\n        /* \"#utility.yul\":28727:28732   */\n      dup2\n        /* \"#utility.yul\":28720:28733   */\n      iszero\n        /* \"#utility.yul\":28713:28734   */\n      iszero\n        /* \"#utility.yul\":28702:28734   */\n      swap1\n      pop\n        /* \"#utility.yul\":28650:28740   */\n      swap2\n      swap1\n      pop\n      jump\t// out\n        /* \"#utility.yul\":28746:28862   */\n    tag_359:\n        /* \"#utility.yul\":28816:28837   */\n      tag_624\n        /* \"#utility.yul\":28831:28836   */\n      dup2\n        /* \"#utility.yul\":28816:28837   */\n      tag_358\n      jump\t// in\n    tag_624:\n        /* \"#utility.yul\":28809:28814   */\n      dup2\n        /* \"#utility.yul\":28806:28838   */\n      eq\n        /* \"#utility.yul\":28796:28856   */\n      tag_625\n      jumpi\n        /* \"#utility.yul\":28852:28853   */\n      0x00\n        /* \"#utility.yul\":28849:28850   */\n      dup1\n        /* \"#utility.yul\":28842:28854   */\n      revert\n        /* \"#utility.yul\":28796:28856   */\n    tag_625:\n        /* \"#utility.yul\":28746:28862   */\n      pop\n      jump\t// out\n        /* \"#utility.yul\":28868:29005   */\n    tag_360:\n        /* \"#utility.yul\":28922:28927   */\n      0x00\n        /* \"#utility.yul\":28953:28959   */\n      dup2\n        /* \"#utility.yul\":28947:28960   */\n      mload\n        /* \"#utility.yul\":28938:28960   */\n      swap1\n      pop\n        /* \"#utility.yul\":28969:28999   */\n      tag_627\n        /* \"#utility.yul\":28993:28998   */\n      dup2\n        /* \"#utility.yul\":28969:28999   */\n      tag_359\n      jump\t// in\n    tag_627:\n        /* \"#utility.yul\":28868:29005   */\n      swap3\n      swap2\n      pop\n      pop\n      jump\t// out\n        /* \"#utility.yul\":29011:29356   */\n    tag_245:\n        /* \"#utility.yul\":29078:29084   */\n      0x00\n        /* \"#utility.yul\":29127:29129   */\n      0x20\n        /* \"#utility.yul\":29115:29124   */\n      dup3\n        /* \"#utility.yul\":29106:29113   */\n      dup5\n        /* \"#utility.yul\":29102:29125   */\n      sub\n        /* \"#utility.yul\":29098:29130   */\n      slt\n        /* \"#utility.yul\":29095:29214   */\n      iszero\n      tag_629\n      jumpi\n        /* \"#utility.yul\":29133:29212   */\n      tag_630\n      tag_313\n      jump\t// in\n    tag_630:\n        /* \"#utility.yul\":29095:29214   */\n    tag_629:\n        /* \"#utility.yul\":29253:29254   */\n      0x00\n        /* \"#utility.yul\":29278:29339   */\n      tag_631\n        /* \"#utility.yul\":29331:29338   */\n      dup5\n        /* \"#utility.yul\":29322:29328   */\n      dup3\n        /* \"#utility.yul\":29311:29320   */\n      dup6\n        /* \"#utility.yul\":29307:29329   */\n      add\n        /* \"#utility.yul\":29278:29339   */\n      tag_360\n      jump\t// in\n    tag_631:\n        /* \"#utility.yul\":29268:29339   */\n      swap2\n      pop\n        /* \"#utility.yul\":29224:29349   */\n      pop\n        /* \"#utility.yul\":29011:29356   */\n      swap3\n      swap2\n      pop\n      pop\n      jump\t// out\n        /* \"#utility.yul\":29362:29516   */\n    tag_361:\n        /* \"#utility.yul\":29502:29508   */\n      0x414e544100000000000000000000000000000000000000000000000000000000\n        /* \"#utility.yul\":29498:29499   */\n      0x00\n        /* \"#utility.yul\":29490:29496   */\n      dup3\n        /* \"#utility.yul\":29486:29500   */\n      add\n        /* \"#utility.yul\":29479:29509   */\n      mstore\n        /* \"#utility.yul\":29362:29516   */\n      pop\n      jump\t// out\n        /* \"#utility.yul\":29522:29887   */\n    tag_362:\n        /* \"#utility.yul\":29664:29667   */\n      0x00\n        /* \"#utility.yul\":29685:29751   */\n      tag_634\n        /* \"#utility.yul\":29749:29750   */\n      0x04\n        /* \"#utility.yul\":29744:29747   */\n      dup4\n        /* \"#utility.yul\":29685:29751   */\n      tag_333\n      jump\t// in\n    tag_634:\n        /* \"#utility.yul\":29678:29751   */\n      swap2\n      pop\n        /* \"#utility.yul\":29760:29853   */\n      tag_635\n        /* \"#utility.yul\":29849:29852   */\n      dup3\n        /* \"#utility.yul\":29760:29853   */\n      tag_361\n      jump\t// in\n    tag_635:\n        /* \"#utility.yul\":29878:29880   */\n      0x20\n        /* \"#utility.yul\":29873:29876   */\n      dup3\n        /* \"#utility.yul\":29869:29881   */\n      add\n        /* \"#utility.yul\":29862:29881   */\n      swap1\n      pop\n        /* \"#utility.yul\":29522:29887   */\n      swap2\n      swap1\n      pop\n      jump\t// out\n        /* \"#utility.yul\":29893:30968   */\n    tag_257:\n        /* \"#utility.yul\":30223:30227   */\n      0x00\n        /* \"#utility.yul\":30261:30264   */\n      0xe0\n        /* \"#utility.yul\":30250:30259   */\n      dup3\n        /* \"#utility.yul\":30246:30265   */\n      add\n        /* \"#utility.yul\":30238:30265   */\n      swap1\n      pop\n        /* \"#utility.yul\":30275:30346   */\n      tag_637\n        /* \"#utility.yul\":30343:30344   */\n      0x00\n        /* \"#utility.yul\":30332:30341   */\n      dup4\n        /* \"#utility.yul\":30328:30345   */\n      add\n        /* \"#utility.yul\":30319:30325   */\n      dup10\n        /* \"#utility.yul\":30275:30346   */\n      tag_323\n      jump\t// in\n    tag_637:\n        /* \"#utility.yul\":30356:30428   */\n      tag_638\n        /* \"#utility.yul\":30424:30426   */\n      0x20\n        /* \"#utility.yul\":30413:30422   */\n      dup4\n        /* \"#utility.yul\":30409:30427   */\n      add\n        /* \"#utility.yul\":30400:30406   */\n      dup9\n        /* \"#utility.yul\":30356:30428   */\n      tag_325\n      jump\t// in\n    tag_638:\n        /* \"#utility.yul\":30438:30510   */\n      tag_639\n        /* \"#utility.yul\":30506:30508   */\n      0x40\n        /* \"#utility.yul\":30495:30504   */\n      dup4\n        /* \"#utility.yul\":30491:30509   */\n      add\n        /* \"#utility.yul\":30482:30488   */\n      dup8\n        /* \"#utility.yul\":30438:30510   */\n      tag_324\n      jump\t// in\n    tag_639:\n        /* \"#utility.yul\":30520:30588   */\n      tag_640\n        /* \"#utility.yul\":30584:30586   */\n      0x60\n        /* \"#utility.yul\":30573:30582   */\n      dup4\n        /* \"#utility.yul\":30569:30587   */\n      add\n        /* \"#utility.yul\":30560:30566   */\n      dup7\n        /* \"#utility.yul\":30520:30588   */\n      tag_331\n      jump\t// in\n    tag_640:\n        /* \"#utility.yul\":30598:30671   */\n      tag_641\n        /* \"#utility.yul\":30666:30669   */\n      0x80\n        /* \"#utility.yul\":30655:30664   */\n      dup4\n        /* \"#utility.yul\":30651:30670   */\n      add\n        /* \"#utility.yul\":30642:30648   */\n      dup6\n        /* \"#utility.yul\":30598:30671   */\n      tag_324\n      jump\t// in\n    tag_641:\n        /* \"#utility.yul\":30719:30728   */\n      dup2\n        /* \"#utility.yul\":30713:30717   */\n      dup2\n        /* \"#utility.yul\":30709:30729   */\n      sub\n        /* \"#utility.yul\":30703:30706   */\n      0xa0\n        /* \"#utility.yul\":30692:30701   */\n      dup4\n        /* \"#utility.yul\":30688:30707   */\n      add\n        /* \"#utility.yul\":30681:30730   */\n      mstore\n        /* \"#utility.yul\":30747:30878   */\n      tag_642\n        /* \"#utility.yul\":30873:30877   */\n      dup2\n        /* \"#utility.yul\":30747:30878   */\n      tag_362\n      jump\t// in\n    tag_642:\n        /* \"#utility.yul\":30739:30878   */\n      swap1\n      pop\n        /* \"#utility.yul\":30888:30961   */\n      tag_643\n        /* \"#utility.yul\":30956:30959   */\n      0xc0\n        /* \"#utility.yul\":30945:30954   */\n      dup4\n        /* \"#utility.yul\":30941:30960   */\n      add\n        /* \"#utility.yul\":30932:30938   */\n      dup5\n        /* \"#utility.yul\":30888:30961   */\n      tag_324\n      jump\t// in\n    tag_643:\n        /* \"#utility.yul\":29893:30968   */\n      swap8\n      swap7\n      pop\n      pop\n      pop\n      pop\n      pop\n      pop\n      pop\n      jump\t// out\n        /* \"#utility.yul\":30974:31199   */\n    tag_363:\n        /* \"#utility.yul\":31114:31148   */\n      0x4f776e61626c653a206e6577206f776e657220697320746865207a65726f2061\n        /* \"#utility.yul\":31110:31111   */\n      0x00\n        /* \"#utility.yul\":31102:31108   */\n      dup3\n        /* \"#utility.yul\":31098:31112   */\n      add\n        /* \"#utility.yul\":31091:31149   */\n      mstore\n        /* \"#utility.yul\":31183:31191   */\n      0x6464726573730000000000000000000000000000000000000000000000000000\n        /* \"#utility.yul\":31178:31180   */\n      0x20\n        /* \"#utility.yul\":31170:31176   */\n      dup3\n        /* \"#utility.yul\":31166:31181   */\n      add\n        /* \"#utility.yul\":31159:31192   */\n      mstore\n        /* \"#utility.yul\":30974:31199   */\n      pop\n      jump\t// out\n        /* \"#utility.yul\":31205:31571   */\n    tag_364:\n        /* \"#utility.yul\":31347:31350   */\n      0x00\n        /* \"#utility.yul\":31368:31435   */\n      tag_646\n        /* \"#utility.yul\":31432:31434   */\n      0x26\n        /* \"#utility.yul\":31427:31430   */\n      dup4\n        /* \"#utility.yul\":31368:31435   */\n      tag_333\n      jump\t// in\n    tag_646:\n        /* \"#utility.yul\":31361:31435   */\n      swap2\n      pop\n        /* \"#utility.yul\":31444:31537   */\n      tag_647\n        /* \"#utility.yul\":31533:31536   */\n      dup3\n        /* \"#utility.yul\":31444:31537   */\n      tag_363\n      jump\t// in\n    tag_647:\n        /* \"#utility.yul\":31562:31564   */\n      0x40\n        /* \"#utility.yul\":31557:31560   */\n      dup3\n        /* \"#utility.yul\":31553:31565   */\n      add\n        /* \"#utility.yul\":31546:31565   */\n      swap1\n      pop\n        /* \"#utility.yul\":31205:31571   */\n      swap2\n      swap1\n      pop\n      jump\t// out\n        /* \"#utility.yul\":31577:31996   */\n    tag_266:\n        /* \"#utility.yul\":31743:31747   */\n      0x00\n        /* \"#utility.yul\":31781:31783   */\n      0x20\n        /* \"#utility.yul\":31770:31779   */\n      dup3\n        /* \"#utility.yul\":31766:31784   */\n      add\n        /* \"#utility.yul\":31758:31784   */\n      swap1\n      pop\n        /* \"#utility.yul\":31830:31839   */\n      dup2\n        /* \"#utility.yul\":31824:31828   */\n      dup2\n        /* \"#utility.yul\":31820:31840   */\n      sub\n        /* \"#utility.yul\":31816:31817   */\n      0x00\n        /* \"#utility.yul\":31805:31814   */\n      dup4\n        /* \"#utility.yul\":31801:31818   */\n      add\n        /* \"#utility.yul\":31794:31841   */\n      mstore\n        /* \"#utility.yul\":31858:31989   */\n      tag_649\n        /* \"#utility.yul\":31984:31988   */\n      dup2\n        /* \"#utility.yul\":31858:31989   */\n      tag_364\n      jump\t// in\n    tag_649:\n        /* \"#utility.yul\":31850:31989   */\n      swap1\n      pop\n        /* \"#utility.yul\":31577:31996   */\n      swap2\n      swap1\n      pop\n      jump\t// out\n        /* \"#utility.yul\":32002:32225   */\n    tag_365:\n        /* \"#utility.yul\":32142:32176   */\n      0x546865204e465420416464726573732073686f756c64206265206120636f6e74\n        /* \"#utility.yul\":32138:32139   */\n      0x00\n        /* \"#utility.yul\":32130:32136   */\n      dup3\n        /* \"#utility.yul\":32126:32140   */\n      add\n        /* \"#utility.yul\":32119:32177   */\n      mstore\n        /* \"#utility.yul\":32211:32217   */\n      0x7261637400000000000000000000000000000000000000000000000000000000\n        /* \"#utility.yul\":32206:32208   */\n      0x20\n        /* \"#utility.yul\":32198:32204   */\n      dup3\n        /* \"#utility.yul\":32194:32209   */\n      add\n        /* \"#utility.yul\":32187:32218   */\n      mstore\n        /* \"#utility.yul\":32002:32225   */\n      pop\n      jump\t// out\n        /* \"#utility.yul\":32231:32597   */\n    tag_366:\n        /* \"#utility.yul\":32373:32376   */\n      0x00\n        /* \"#utility.yul\":32394:32461   */\n      tag_652\n        /* \"#utility.yul\":32458:32460   */\n      0x24\n        /* \"#utility.yul\":32453:32456   */\n      dup4\n        /* \"#utility.yul\":32394:32461   */\n      tag_333\n      jump\t// in\n    tag_652:\n        /* \"#utility.yul\":32387:32461   */\n      swap2\n      pop\n        /* \"#utility.yul\":32470:32563   */\n      tag_653\n        /* \"#utility.yul\":32559:32562   */\n      dup3\n        /* \"#utility.yul\":32470:32563   */\n      tag_365\n      jump\t// in\n    tag_653:\n        /* \"#utility.yul\":32588:32590   */\n      0x40\n        /* \"#utility.yul\":32583:32586   */\n      dup3\n        /* \"#utility.yul\":32579:32591   */\n      add\n        /* \"#utility.yul\":32572:32591   */\n      swap1\n      pop\n        /* \"#utility.yul\":32231:32597   */\n      swap2\n      swap1\n      pop\n      jump\t// out\n        /* \"#utility.yul\":32603:33022   */\n    tag_274:\n        /* \"#utility.yul\":32769:32773   */\n      0x00\n        /* \"#utility.yul\":32807:32809   */\n      0x20\n        /* \"#utility.yul\":32796:32805   */\n      dup3\n        /* \"#utility.yul\":32792:32810   */\n      add\n        /* \"#utility.yul\":32784:32810   */\n      swap1\n      pop\n        /* \"#utility.yul\":32856:32865   */\n      dup2\n        /* \"#utility.yul\":32850:32854   */\n      dup2\n        /* \"#utility.yul\":32846:32866   */\n      sub\n        /* \"#utility.yul\":32842:32843   */\n      0x00\n        /* \"#utility.yul\":32831:32840   */\n      dup4\n        /* \"#utility.yul\":32827:32844   */\n      add\n        /* \"#utility.yul\":32820:32867   */\n      mstore\n        /* \"#utility.yul\":32884:33015   */\n      tag_655\n        /* \"#utility.yul\":33010:33014   */\n      dup2\n        /* \"#utility.yul\":32884:33015   */\n      tag_366\n      jump\t// in\n    tag_655:\n        /* \"#utility.yul\":32876:33015   */\n      swap1\n      pop\n        /* \"#utility.yul\":32603:33022   */\n      swap2\n      swap1\n      pop\n      jump\t// out\n        /* \"#utility.yul\":33028:33268   */\n    tag_367:\n        /* \"#utility.yul\":33168:33202   */\n      0x546865204e465420636f6e74726163742068617320616e20696e76616c696420\n        /* \"#utility.yul\":33164:33165   */\n      0x00\n        /* \"#utility.yul\":33156:33162   */\n      dup3\n        /* \"#utility.yul\":33152:33166   */\n      add\n        /* \"#utility.yul\":33145:33203   */\n      mstore\n        /* \"#utility.yul\":33237:33260   */\n      0x45524337323120696d706c656d656e746174696f6e0000000000000000000000\n        /* \"#utility.yul\":33232:33234   */\n      0x20\n        /* \"#utility.yul\":33224:33230   */\n      dup3\n        /* \"#utility.yul\":33220:33235   */\n      add\n        /* \"#utility.yul\":33213:33261   */\n      mstore\n        /* \"#utility.yul\":33028:33268   */\n      pop\n      jump\t// out\n        /* \"#utility.yul\":33274:33640   */\n    tag_368:\n        /* \"#utility.yul\":33416:33419   */\n      0x00\n        /* \"#utility.yul\":33437:33504   */\n      tag_658\n        /* \"#utility.yul\":33501:33503   */\n      0x35\n        /* \"#utility.yul\":33496:33499   */\n      dup4\n        /* \"#utility.yul\":33437:33504   */\n      tag_333\n      jump\t// in\n    tag_658:\n        /* \"#utility.yul\":33430:33504   */\n      swap2\n      pop\n        /* \"#utility.yul\":33513:33606   */\n      tag_659\n        /* \"#utility.yul\":33602:33605   */\n      dup3\n        /* \"#utility.yul\":33513:33606   */\n      tag_367\n      jump\t// in\n    tag_659:\n        /* \"#utility.yul\":33631:33633   */\n      0x40\n        /* \"#utility.yul\":33626:33629   */\n      dup3\n        /* \"#utility.yul\":33622:33634   */\n      add\n        /* \"#utility.yul\":33615:33634   */\n      swap1\n      pop\n        /* \"#utility.yul\":33274:33640   */\n      swap2\n      swap1\n      pop\n      jump\t// out\n        /* \"#utility.yul\":33646:34065   */\n    tag_281:\n        /* \"#utility.yul\":33812:33816   */\n      0x00\n        /* \"#utility.yul\":33850:33852   */\n      0x20\n        /* \"#utility.yul\":33839:33848   */\n      dup3\n        /* \"#utility.yul\":33835:33853   */\n      add\n        /* \"#utility.yul\":33827:33853   */\n      swap1\n      pop\n        /* \"#utility.yul\":33899:33908   */\n      dup2\n        /* \"#utility.yul\":33893:33897   */\n      dup2\n        /* \"#utility.yul\":33889:33909   */\n      sub\n        /* \"#utility.yul\":33885:33886   */\n      0x00\n        /* \"#utility.yul\":33874:33883   */\n      dup4\n        /* \"#utility.yul\":33870:33887   */\n      add\n        /* \"#utility.yul\":33863:33910   */\n      mstore\n        /* \"#utility.yul\":33927:34058   */\n      tag_661\n        /* \"#utility.yul\":34053:34057   */\n      dup2\n        /* \"#utility.yul\":33927:34058   */\n      tag_368\n      jump\t// in\n    tag_661:\n        /* \"#utility.yul\":33919:34058   */\n      swap1\n      pop\n        /* \"#utility.yul\":33646:34065   */\n      swap2\n      swap1\n      pop\n      jump\t// out\n        /* \"#utility.yul\":34071:34150   */\n    tag_369:\n        /* \"#utility.yul\":34110:34117   */\n      0x00\n        /* \"#utility.yul\":34139:34144   */\n      dup2\n        /* \"#utility.yul\":34128:34144   */\n      swap1\n      pop\n        /* \"#utility.yul\":34071:34150   */\n      swap2\n      swap1\n      pop\n      jump\t// out\n        /* \"#utility.yul\":34156:34313   */\n    tag_370:\n        /* \"#utility.yul\":34261:34306   */\n      tag_664\n        /* \"#utility.yul\":34281:34305   */\n      tag_665\n        /* \"#utility.yul\":34299:34304   */\n      dup3\n        /* \"#utility.yul\":34281:34305   */\n      tag_302\n      jump\t// in\n    tag_665:\n        /* \"#utility.yul\":34261:34306   */\n      tag_369\n      jump\t// in\n    tag_664:\n        /* \"#utility.yul\":34256:34259   */\n      dup3\n        /* \"#utility.yul\":34249:34307   */\n      mstore\n        /* \"#utility.yul\":34156:34313   */\n      pop\n      pop\n      jump\t// out\n        /* \"#utility.yul\":34319:34413   */\n    tag_371:\n        /* \"#utility.yul\":34352:34360   */\n      0x00\n        /* \"#utility.yul\":34400:34405   */\n      dup2\n        /* \"#utility.yul\":34396:34398   */\n      0x60\n        /* \"#utility.yul\":34392:34406   */\n      shl\n        /* \"#utility.yul\":34371:34406   */\n      swap1\n      pop\n        /* \"#utility.yul\":34319:34413   */\n      swap2\n      swap1\n      pop\n      jump\t// out\n        /* \"#utility.yul\":34419:34513   */\n    tag_372:\n        /* \"#utility.yul\":34458:34465   */\n      0x00\n        /* \"#utility.yul\":34487:34507   */\n      tag_668\n        /* \"#utility.yul\":34501:34506   */\n      dup3\n        /* \"#utility.yul\":34487:34507   */\n      tag_371\n      jump\t// in\n    tag_668:\n        /* \"#utility.yul\":34476:34507   */\n      swap1\n      pop\n        /* \"#utility.yul\":34419:34513   */\n      swap2\n      swap1\n      pop\n      jump\t// out\n        /* \"#utility.yul\":34519:34619   */\n    tag_373:\n        /* \"#utility.yul\":34558:34565   */\n      0x00\n        /* \"#utility.yul\":34587:34613   */\n      tag_670\n        /* \"#utility.yul\":34607:34612   */\n      dup3\n        /* \"#utility.yul\":34587:34613   */\n      tag_372\n      jump\t// in\n    tag_670:\n        /* \"#utility.yul\":34576:34613   */\n      swap1\n      pop\n        /* \"#utility.yul\":34519:34619   */\n      swap2\n      swap1\n      pop\n      jump\t// out\n        /* \"#utility.yul\":34625:34782   */\n    tag_374:\n        /* \"#utility.yul\":34730:34775   */\n      tag_672\n        /* \"#utility.yul\":34750:34774   */\n      tag_673\n        /* \"#utility.yul\":34768:34773   */\n      dup3\n        /* \"#utility.yul\":34750:34774   */\n      tag_304\n      jump\t// in\n    tag_673:\n        /* \"#utility.yul\":34730:34775   */\n      tag_373\n      jump\t// in\n    tag_672:\n        /* \"#utility.yul\":34725:34728   */\n      dup3\n        /* \"#utility.yul\":34718:34776   */\n      mstore\n        /* \"#utility.yul\":34625:34782   */\n      pop\n      pop\n      jump\t// out\n        /* \"#utility.yul\":34788:35608   */\n    tag_285:\n        /* \"#utility.yul\":35012:35015   */\n      0x00\n        /* \"#utility.yul\":35027:35102   */\n      tag_675\n        /* \"#utility.yul\":35098:35101   */\n      dup3\n        /* \"#utility.yul\":35089:35095   */\n      dup9\n        /* \"#utility.yul\":35027:35102   */\n      tag_370\n      jump\t// in\n    tag_675:\n        /* \"#utility.yul\":35127:35129   */\n      0x20\n        /* \"#utility.yul\":35122:35125   */\n      dup3\n        /* \"#utility.yul\":35118:35130   */\n      add\n        /* \"#utility.yul\":35111:35130   */\n      swap2\n      pop\n        /* \"#utility.yul\":35140:35215   */\n      tag_676\n        /* \"#utility.yul\":35211:35214   */\n      dup3\n        /* \"#utility.yul\":35202:35208   */\n      dup8\n        /* \"#utility.yul\":35140:35215   */\n      tag_374\n      jump\t// in\n    tag_676:\n        /* \"#utility.yul\":35240:35242   */\n      0x14\n        /* \"#utility.yul\":35235:35238   */\n      dup3\n        /* \"#utility.yul\":35231:35243   */\n      add\n        /* \"#utility.yul\":35224:35243   */\n      swap2\n      pop\n        /* \"#utility.yul\":35253:35328   */\n      tag_677\n        /* \"#utility.yul\":35324:35327   */\n      dup3\n        /* \"#utility.yul\":35315:35321   */\n      dup7\n        /* \"#utility.yul\":35253:35328   */\n      tag_370\n      jump\t// in\n    tag_677:\n        /* \"#utility.yul\":35353:35355   */\n      0x20\n        /* \"#utility.yul\":35348:35351   */\n      dup3\n        /* \"#utility.yul\":35344:35356   */\n      add\n        /* \"#utility.yul\":35337:35356   */\n      swap2\n      pop\n        /* \"#utility.yul\":35366:35441   */\n      tag_678\n        /* \"#utility.yul\":35437:35440   */\n      dup3\n        /* \"#utility.yul\":35428:35434   */\n      dup6\n        /* \"#utility.yul\":35366:35441   */\n      tag_374\n      jump\t// in\n    tag_678:\n        /* \"#utility.yul\":35466:35468   */\n      0x14\n        /* \"#utility.yul\":35461:35464   */\n      dup3\n        /* \"#utility.yul\":35457:35469   */\n      add\n        /* \"#utility.yul\":35450:35469   */\n      swap2\n      pop\n        /* \"#utility.yul\":35479:35554   */\n      tag_679\n        /* \"#utility.yul\":35550:35553   */\n      dup3\n        /* \"#utility.yul\":35541:35547   */\n      dup5\n        /* \"#utility.yul\":35479:35554   */\n      tag_370\n      jump\t// in\n    tag_679:\n        /* \"#utility.yul\":35579:35581   */\n      0x20\n        /* \"#utility.yul\":35574:35577   */\n      dup3\n        /* \"#utility.yul\":35570:35582   */\n      add\n        /* \"#utility.yul\":35563:35582   */\n      swap2\n      pop\n        /* \"#utility.yul\":35599:35602   */\n      dup2\n        /* \"#utility.yul\":35592:35602   */\n      swap1\n      pop\n        /* \"#utility.yul\":34788:35608   */\n      swap7\n      swap6\n      pop\n      pop\n      pop\n      pop\n      pop\n      pop\n      jump\t// out\n\n    auxdata: 0xa2646970667358221220c64ece2dd3148b82858028647c645fae9bf04f50318c36b4b098ab8d110a6d8564736f6c634300080d0033\n}\n",
				"bytecode": {
					"linkReferences": {},
					"object": "60806040523480156200001157600080fd5b5060016000819055506200003a6200002e6200004060201b60201c565b6200004860201b60201c565b6200010e565b600033905090565b6000600460009054906101000a900473ffffffffffffffffffffffffffffffffffffffff16905081600460006101000a81548173ffffffffffffffffffffffffffffffffffffffff021916908373ffffffffffffffffffffffffffffffffffffffff1602179055508173ffffffffffffffffffffffffffffffffffffffff168173ffffffffffffffffffffffffffffffffffffffff167f8be0079c531659141344cd1fd0a4f28419497f9722a3daafe3b4186f6b6457e060405160405180910390a35050565b6133c2806200011e6000396000f3fe6080604052600436106100f35760003560e01c806385a8b36c1161008a578063c23b139e11610059578063c23b139e14610320578063c7be7a491461033c578063f01b52dc14610379578063f2fde38b146103a2576100f3565b806385a8b36c146102765780638da5cb5b146102a157806392bf77dd146102cc578063b7a60c7e146102f5576100f3565b806349739678116100c657806349739678146101b65780635c80a435146101f45780636891532714610236578063715018a61461025f576100f3565b806315b81dc3146100f8578063202e3740146101235780632a45b2501461014e5780632b4c32be1461018b575b600080fd5b34801561010457600080fd5b5061010d6103cb565b60405161011a919061222e565b60405180910390f35b34801561012f57600080fd5b506101386103f1565b60405161014591906123ce565b60405180910390f35b34801561015a57600080fd5b5061017560048036038101906101709190612421565b610738565b60405161018291906124c9565b60405180910390f35b34801561019757600080fd5b506101a061088b565b6040516101ad919061251f565b60405180910390f35b3480156101c257600080fd5b506101dd60048036038101906101d89190612566565b610896565b6040516101eb9291906125e1565b60405180910390f35b34801561020057600080fd5b5061021b6004803603810190610216919061260a565b6108d4565b60405161022d969594939291906126d0565b60405180910390f35b34801561024257600080fd5b5061025d60048036038101906102589190612731565b61096a565b005b34801561026b57600080fd5b506102746110ce565b005b34801561028257600080fd5b5061028b611156565b60405161029891906127a0565b60405180910390f35b3480156102ad57600080fd5b506102b6611169565b6040516102c391906127bb565b60405180910390f35b3480156102d857600080fd5b506102f360048036038101906102ee91906127d6565b611193565b005b34801561030157600080fd5b5061030a611253565b60405161031791906127a0565b60405180910390f35b61033a6004803603810190610335919061260a565b611266565b005b34801561034857600080fd5b50610363600480360381019061035e9190612421565b611484565b60405161037091906124c9565b60405180910390f35b34801561038557600080fd5b506103a0600480360381019061039b9190612731565b6115d1565b005b3480156103ae57600080fd5b506103c960048036038101906103c491906127d6565b611c4e565b005b600360009054906101000a900473ffffffffffffffffffffffffffffffffffffffff1681565b606060006103ff6005611d45565b905060008060005b838110156104a7573373ffffffffffffffffffffffffffffffffffffffff16600760006001846104379190612832565b815260200190815260200160002060040160009054906101000a900473ffffffffffffffffffffffffffffffffffffffff1673ffffffffffffffffffffffffffffffffffffffff1603610494576001836104919190612832565b92505b808061049f90612888565b915050610407565b5060008267ffffffffffffffff8111156104c4576104c36128d0565b5b6040519080825280602002602001820160405280156104fd57816020015b6104ea612137565b8152602001906001900390816104e25790505b50905060005b8481101561072d573373ffffffffffffffffffffffffffffffffffffffff16600760006001846105339190612832565b815260200190815260200160002060040160009054906101000a900473ffffffffffffffffffffffffffffffffffffffff1673ffffffffffffffffffffffffffffffffffffffff160361071a576000600760006001846105939190612832565b81526020019081526020016000206000015490506000600760008381526020019081526020016000209050806040518060c0016040529081600082015481526020016001820160009054906101000a900473ffffffffffffffffffffffffffffffffffffffff1673ffffffffffffffffffffffffffffffffffffffff1673ffffffffffffffffffffffffffffffffffffffff168152602001600282015481526020016003820160009054906101000a900473ffffffffffffffffffffffffffffffffffffffff1673ffffffffffffffffffffffffffffffffffffffff1673ffffffffffffffffffffffffffffffffffffffff1681526020016004820160009054906101000a900473ffffffffffffffffffffffffffffffffffffffff1673ffffffffffffffffffffffffffffffffffffffff1673ffffffffffffffffffffffffffffffffffffffff1681526020016005820154815250508486815181106106fd576106fc6128ff565b5b60200260200101819052506001856107159190612832565b945050505b808061072590612888565b915050610503565b508094505050505090565b610740612137565b6000600760008481526020019081526020016000206040518060c0016040529081600082015481526020016001820160009054906101000a900473ffffffffffffffffffffffffffffffffffffffff1673ffffffffffffffffffffffffffffffffffffffff1673ffffffffffffffffffffffffffffffffffffffff168152602001600282015481526020016003820160009054906101000a900473ffffffffffffffffffffffffffffffffffffffff1673ffffffffffffffffffffffffffffffffffffffff1673ffffffffffffffffffffffffffffffffffffffff1681526020016004820160009054906101000a900473ffffffffffffffffffffffffffffffffffffffff1673ffffffffffffffffffffffffffffffffffffffff1673ffffffffffffffffffffffffffffffffffffffff168152602001600582015481525050905080915050919050565b6380ac58cd60e01b81565b600260205282600052604060002060205281600052604060002060205280600052604060002060009250925050508060000154908060010154905082565b6001602052816000526040600020602052806000526040600020600091509150508060000154908060010160009054906101000a900473ffffffffffffffffffffffffffffffffffffffff16908060020160009054906101000a900473ffffffffffffffffffffffffffffffffffffffff16908060030154908060040154908060050160009054906101000a900460ff16905086565b600081116109ad576040517f08c379a00000000000000000000000000000000000000000000000000000000081526004016109a49061298b565b60405180910390fd5b6109b683611d53565b60003390506109c56005611e64565b600084905060006109d66005611d45565b90508273ffffffffffffffffffffffffffffffffffffffff168273ffffffffffffffffffffffffffffffffffffffff16636352211e876040518263ffffffff1660e01b8152600401610a2891906129ab565b602060405180830381865afa158015610a45573d6000803e3d6000fd5b505050506040513d601f19601f82011682018060405250810190610a6991906129db565b73ffffffffffffffffffffffffffffffffffffffff1614610abf576040517f08c379a0000000000000000000000000000000000000000000000000000000008152600401610ab690612a7a565b60405180910390fd5b6040518060c001604052808281526020018773ffffffffffffffffffffffffffffffffffffffff1681526020018681526020013373ffffffffffffffffffffffffffffffffffffffff168152602001600073ffffffffffffffffffffffffffffffffffffffff16815260200185815250600760008381526020019081526020016000206000820151816000015560208201518160010160006101000a81548173ffffffffffffffffffffffffffffffffffffffff021916908373ffffffffffffffffffffffffffffffffffffffff1602179055506040820151816002015560608201518160030160006101000a81548173ffffffffffffffffffffffffffffffffffffffff021916908373ffffffffffffffffffffffffffffffffffffffff16021790555060808201518160040160006101000a81548173ffffffffffffffffffffffffffffffffffffffff021916908373ffffffffffffffffffffffffffffffffffffffff16021790555060a082015181600501559050508173ffffffffffffffffffffffffffffffffffffffff166323b872dd8430886040518463ffffffff1660e01b8152600401610c7593929190612a9a565b600060405180830381600087803b158015610c8f57600080fd5b505af1158015610ca3573d6000803e3d6000fd5b505050506000600160008873ffffffffffffffffffffffffffffffffffffffff1673ffffffffffffffffffffffffffffffffffffffff16815260200190815260200160002060008781526020019081526020016000206040518060c0016040529081600082015481526020016001820160009054906101000a900473ffffffffffffffffffffffffffffffffffffffff1673ffffffffffffffffffffffffffffffffffffffff1673ffffffffffffffffffffffffffffffffffffffff1681526020016002820160009054906101000a900473ffffffffffffffffffffffffffffffffffffffff1673ffffffffffffffffffffffffffffffffffffffff1673ffffffffffffffffffffffffffffffffffffffff16815260200160038201548152602001600482015481526020016005820160009054906101000a900460ff166004811115610df357610df2612659565b5b6004811115610e0557610e04612659565b5b8152505090506000801b816000015103610e2c57610e27848789886000611e7a565b610ffd565b60016004811115610e4057610e3f612659565b5b8160a001516004811115610e5757610e56612659565b5b03610e97576040517f08c379a0000000000000000000000000000000000000000000000000000000008152600401610e8e90612b1d565b60405180910390fd5b60018060008973ffffffffffffffffffffffffffffffffffffffff1673ffffffffffffffffffffffffffffffffffffffff168152602001908152602001600020600088815260200190815260200160002060050160006101000a81548160ff02191690836004811115610f0d57610f0c612659565b5b021790555084600160008973ffffffffffffffffffffffffffffffffffffffff1673ffffffffffffffffffffffffffffffffffffffff16815260200190815260200160002060008881526020019081526020016000206003018190555083600160008973ffffffffffffffffffffffffffffffffffffffff1673ffffffffffffffffffffffffffffffffffffffff168152602001908152602001600020600088815260200190815260200160002060010160006101000a81548173ffffffffffffffffffffffffffffffffffffffff021916908373ffffffffffffffffffffffffffffffffffffffff1602179055505b8273ffffffffffffffffffffffffffffffffffffffff166323b872dd8530896040518463ffffffff1660e01b815260040161103a93929190612a9a565b600060405180830381600087803b15801561105457600080fd5b505af1158015611068573d6000803e3d6000fd5b505050508373ffffffffffffffffffffffffffffffffffffffff16867fff2412bd5c66e6ad5153e35ee902ee32bb4393211a4d0662428b9b481929a7b989846000015189426040516110bd9493929190612b89565b60405180910390a350505050505050565b6110d6612050565b73ffffffffffffffffffffffffffffffffffffffff166110f4611169565b73ffffffffffffffffffffffffffffffffffffffff161461114a576040517f08c379a000000000000000000000000000000000000000000000000000000000815260040161114190612c2d565b60405180910390fd5b6111546000612058565b565b600360149054906101000a900460ff1681565b6000600460009054906101000a900473ffffffffffffffffffffffffffffffffffffffff16905090565b61119b612050565b73ffffffffffffffffffffffffffffffffffffffff166111b9611169565b73ffffffffffffffffffffffffffffffffffffffff161461120f576040517f08c379a000000000000000000000000000000000000000000000000000000000815260040161120690612c2d565b60405180910390fd5b80600360006101000a81548173ffffffffffffffffffffffffffffffffffffffff021916908373ffffffffffffffffffffffffffffffffffffffff16021790555050565b600360159054906101000a900460ff1681565b6002600054036112ab576040517f08c379a00000000000000000000000000000000000000000000000000000000081526004016112a290612c99565b60405180910390fd5b600260008190555060006007600083815260200190815260200160002060050154905060006007600084815260200190815260200160002060020154905081341461132b576040517f08c379a000000000000000000000000000000000000000000000000000000000815260040161132290612d2b565b60405180910390fd5b6007600084815260200190815260200160002060030160009054906101000a900473ffffffffffffffffffffffffffffffffffffffff1673ffffffffffffffffffffffffffffffffffffffff166108fc349081150290604051600060405180830381858888f193505050501580156113a7573d6000803e3d6000fd5b508373ffffffffffffffffffffffffffffffffffffffff166323b872dd3033846040518463ffffffff1660e01b81526004016113e593929190612a9a565b600060405180830381600087803b1580156113ff57600080fd5b505af1158015611413573d6000803e3d6000fd5b50505050336007600085815260200190815260200160002060040160006101000a81548173ffffffffffffffffffffffffffffffffffffffff021916908373ffffffffffffffffffffffffffffffffffffffff1602179055506114766006611e64565b505060016000819055505050565b61148c612137565b600760008381526020019081526020016000206040518060c0016040529081600082015481526020016001820160009054906101000a900473ffffffffffffffffffffffffffffffffffffffff1673ffffffffffffffffffffffffffffffffffffffff1673ffffffffffffffffffffffffffffffffffffffff168152602001600282015481526020016003820160009054906101000a900473ffffffffffffffffffffffffffffffffffffffff1673ffffffffffffffffffffffffffffffffffffffff1673ffffffffffffffffffffffffffffffffffffffff1681526020016004820160009054906101000a900473ffffffffffffffffffffffffffffffffffffffff1673ffffffffffffffffffffffffffffffffffffffff1673ffffffffffffffffffffffffffffffffffffffff1681526020016005820154815250509050919050565b6115da83611d53565b600033905060008490506000600160008773ffffffffffffffffffffffffffffffffffffffff1673ffffffffffffffffffffffffffffffffffffffff16815260200190815260200160002060008681526020019081526020016000206040518060c0016040529081600082015481526020016001820160009054906101000a900473ffffffffffffffffffffffffffffffffffffffff1673ffffffffffffffffffffffffffffffffffffffff1673ffffffffffffffffffffffffffffffffffffffff1681526020016002820160009054906101000a900473ffffffffffffffffffffffffffffffffffffffff1673ffffffffffffffffffffffffffffffffffffffff1673ffffffffffffffffffffffffffffffffffffffff16815260200160038201548152602001600482015481526020016005820160009054906101000a900460ff1660048111156117305761172f612659565b5b600481111561174257611741612659565b5b8152505090506000801b816000015103611791576040517f08c379a000000000000000000000000000000000000000000000000000000000815260040161178890612d97565b60405180910390fd5b600160048111156117a5576117a4612659565b5b8160a0015160048111156117bc576117bb612659565b5b146117fc576040517f08c379a00000000000000000000000000000000000000000000000000000000081526004016117f390612e03565b60405180910390fd5b600081602001519050600073ffffffffffffffffffffffffffffffffffffffff168173ffffffffffffffffffffffffffffffffffffffff1603611874576040517f08c379a000000000000000000000000000000000000000000000000000000000815260040161186b90612e6f565b60405180910390fd5b81608001518510156118bb576040517f08c379a00000000000000000000000000000000000000000000000000000000081526004016118b290612edb565b60405180910390fd5b6000606486600360159054906101000a900460ff1660ff166118dd9190612efb565b6118e79190612f84565b9050600081876118f79190612fb5565b9050600360009054906101000a900473ffffffffffffffffffffffffffffffffffffffff1673ffffffffffffffffffffffffffffffffffffffff166323b872dd8730856040518463ffffffff1660e01b815260040161195893929190612a9a565b6020604051808303816000875af1158015611977573d6000803e3d6000fd5b505050506040513d601f19601f8201168201806040525081019061199b9190613021565b50600360009054906101000a900473ffffffffffffffffffffffffffffffffffffffff1673ffffffffffffffffffffffffffffffffffffffff166323b872dd8785846040518463ffffffff1660e01b81526004016119fb93929190612a9a565b6020604051808303816000875af1158015611a1a573d6000803e3d6000fd5b505050506040513d601f19601f82011682018060405250810190611a3e9190613021565b508473ffffffffffffffffffffffffffffffffffffffff166342842e0e30888b6040518463ffffffff1660e01b8152600401611a7c93929190612a9a565b600060405180830381600087803b158015611a9657600080fd5b505af1158015611aaa573d6000803e3d6000fd5b5050505085600160008b73ffffffffffffffffffffffffffffffffffffffff1673ffffffffffffffffffffffffffffffffffffffff16815260200190815260200160002060008a815260200190815260200160002060010160006101000a81548173ffffffffffffffffffffffffffffffffffffffff021916908373ffffffffffffffffffffffffffffffffffffffff1602179055506002600160008b73ffffffffffffffffffffffffffffffffffffffff1673ffffffffffffffffffffffffffffffffffffffff16815260200190815260200160002060008a815260200190815260200160002060050160006101000a81548160ff02191690836004811115611bb757611bb6612659565b5b02179055508573ffffffffffffffffffffffffffffffffffffffff168373ffffffffffffffffffffffffffffffffffffffff16897f30247e11bbb597dfefd2a3124026f1ef8987a4d6ba46e3629f80bac1b0c9faee87600001518d8960800151600360159054906101000a900460ff168942604051611c3b9695949392919061309a565b60405180910390a4505050505050505050565b611c56612050565b73ffffffffffffffffffffffffffffffffffffffff16611c74611169565b73ffffffffffffffffffffffffffffffffffffffff1614611cca576040517f08c379a0000000000000000000000000000000000000000000000000000000008152600401611cc190612c2d565b60405180910390fd5b600073ffffffffffffffffffffffffffffffffffffffff168173ffffffffffffffffffffffffffffffffffffffff1603611d39576040517f08c379a0000000000000000000000000000000000000000000000000000000008152600401611d3090613180565b60405180910390fd5b611d4281612058565b50565b600081600001549050919050565b611d5c8161211e565b611d9b576040517f08c379a0000000000000000000000000000000000000000000000000000000008152600401611d9290613212565b60405180910390fd5b60008190508073ffffffffffffffffffffffffffffffffffffffff166301ffc9a76380ac58cd60e01b6040518263ffffffff1660e01b8152600401611de0919061251f565b602060405180830381865afa158015611dfd573d6000803e3d6000fd5b505050506040513d601f19601f82011682018060405250810190611e219190613021565b611e60576040517f08c379a0000000000000000000000000000000000000000000000000000000008152600401611e57906132a4565b60405180910390fd5b5050565b6001816000016000828254019250508190555050565b60004286868686604051602001611e9595949392919061332d565b6040516020818303038152906040528051906020012090506040518060c001604052808281526020018773ffffffffffffffffffffffffffffffffffffffff1681526020018573ffffffffffffffffffffffffffffffffffffffff16815260200184815260200183815260200160016004811115611f1657611f15612659565b5b815250600160008673ffffffffffffffffffffffffffffffffffffffff1673ffffffffffffffffffffffffffffffffffffffff16815260200190815260200160002060008781526020019081526020016000206000820151816000015560208201518160010160006101000a81548173ffffffffffffffffffffffffffffffffffffffff021916908373ffffffffffffffffffffffffffffffffffffffff16021790555060408201518160020160006101000a81548173ffffffffffffffffffffffffffffffffffffffff021916908373ffffffffffffffffffffffffffffffffffffffff160217905550606082015181600301556080820151816004015560a08201518160050160006101000a81548160ff021916908360048111156120405761203f612659565b5b0217905550905050505050505050565b600033905090565b6000600460009054906101000a900473ffffffffffffffffffffffffffffffffffffffff16905081600460006101000a81548173ffffffffffffffffffffffffffffffffffffffff021916908373ffffffffffffffffffffffffffffffffffffffff1602179055508173ffffffffffffffffffffffffffffffffffffffff168173ffffffffffffffffffffffffffffffffffffffff167f8be0079c531659141344cd1fd0a4f28419497f9722a3daafe3b4186f6b6457e060405160405180910390a35050565b600080823b905060008163ffffffff1611915050919050565b6040518060c0016040528060008152602001600073ffffffffffffffffffffffffffffffffffffffff16815260200160008152602001600073ffffffffffffffffffffffffffffffffffffffff168152602001600073ffffffffffffffffffffffffffffffffffffffff168152602001600081525090565b600073ffffffffffffffffffffffffffffffffffffffff82169050919050565b6000819050919050565b60006121f46121ef6121ea846121af565b6121cf565b6121af565b9050919050565b6000612206826121d9565b9050919050565b6000612218826121fb565b9050919050565b6122288161220d565b82525050565b6000602082019050612243600083018461221f565b92915050565b600081519050919050565b600082825260208201905092915050565b6000819050602082019050919050565b6000819050919050565b61228881612275565b82525050565b6000612299826121af565b9050919050565b6122a98161228e565b82525050565b60006122ba826121af565b9050919050565b6122ca816122af565b82525050565b60c0820160008201516122e6600085018261227f565b5060208201516122f960208501826122a0565b50604082015161230c604085018261227f565b50606082015161231f60608501826122c1565b50608082015161233260808501826122c1565b5060a082015161234560a085018261227f565b50505050565b600061235783836122d0565b60c08301905092915050565b6000602082019050919050565b600061237b82612249565b6123858185612254565b935061239083612265565b8060005b838110156123c15781516123a8888261234b565b97506123b383612363565b925050600181019050612394565b5085935050505092915050565b600060208201905081810360008301526123e88184612370565b905092915050565b600080fd5b6123fe81612275565b811461240957600080fd5b50565b60008135905061241b816123f5565b92915050565b600060208284031215612437576124366123f0565b5b60006124458482850161240c565b91505092915050565b60c082016000820151612464600085018261227f565b50602082015161247760208501826122a0565b50604082015161248a604085018261227f565b50606082015161249d60608501826122c1565b5060808201516124b060808501826122c1565b5060a08201516124c360a085018261227f565b50505050565b600060c0820190506124de600083018461244e565b92915050565b60007fffffffff0000000000000000000000000000000000000000000000000000000082169050919050565b612519816124e4565b82525050565b60006020820190506125346000830184612510565b92915050565b6125438161228e565b811461254e57600080fd5b50565b6000813590506125608161253a565b92915050565b60008060006060848603121561257f5761257e6123f0565b5b600061258d86828701612551565b935050602061259e8682870161240c565b92505060406125af86828701612551565b9150509250925092565b6000819050919050565b6125cc816125b9565b82525050565b6125db81612275565b82525050565b60006040820190506125f660008301856125c3565b61260360208301846125d2565b9392505050565b60008060408385031215612621576126206123f0565b5b600061262f85828601612551565b92505060206126408582860161240c565b9150509250929050565b6126538161228e565b82525050565b7f4e487b7100000000000000000000000000000000000000000000000000000000600052602160045260246000fd5b6005811061269957612698612659565b5b50565b60008190506126aa82612688565b919050565b60006126ba8261269c565b9050919050565b6126ca816126af565b82525050565b600060c0820190506126e560008301896125c3565b6126f2602083018861264a565b6126ff604083018761264a565b61270c60608301866125d2565b61271960808301856125d2565b61272660a08301846126c1565b979650505050505050565b60008060006060848603121561274a576127496123f0565b5b600061275886828701612551565b93505060206127698682870161240c565b925050604061277a8682870161240c565b9150509250925092565b600060ff82169050919050565b61279a81612784565b82525050565b60006020820190506127b56000830184612791565b92915050565b60006020820190506127d0600083018461264a565b92915050565b6000602082840312156127ec576127eb6123f0565b5b60006127fa84828501612551565b91505092915050565b7f4e487b7100000000000000000000000000000000000000000000000000000000600052601160045260246000fd5b600061283d82612275565b915061284883612275565b9250827fffffffffffffffffffffffffffffffffffffffffffffffffffffffffffffffff0382111561287d5761287c612803565b5b828201905092915050565b600061289382612275565b91507fffffffffffffffffffffffffffffffffffffffffffffffffffffffffffffffff82036128c5576128c4612803565b5b600182019050919050565b7f4e487b7100000000000000000000000000000000000000000000000000000000600052604160045260246000fd5b7f4e487b7100000000000000000000000000000000000000000000000000000000600052603260045260246000fd5b600082825260208201905092915050565b7f5072696365206d757374206265206174206c6561737420312077656900000000600082015250565b6000612975601c8361292e565b91506129808261293f565b602082019050919050565b600060208201905081810360008301526129a481612968565b9050919050565b60006020820190506129c060008301846125d2565b92915050565b6000815190506129d58161253a565b92915050565b6000602082840312156129f1576129f06123f0565b5b60006129ff848285016129c6565b91505092915050565b7f5468652073656c6c6572206973206e6f206c6f6e67657220746865206f776e6560008201527f7200000000000000000000000000000000000000000000000000000000000000602082015250565b6000612a6460218361292e565b9150612a6f82612a08565b604082019050919050565b60006020820190508181036000830152612a9381612a57565b9050919050565b6000606082019050612aaf600083018661264a565b612abc602083018561264a565b612ac960408301846125d2565b949350505050565b7f4173736574206973206c697374696e6700000000000000000000000000000000600082015250565b6000612b0760108361292e565b9150612b1282612ad1565b602082019050919050565b60006020820190508181036000830152612b3681612afa565b9050919050565b7f5351460000000000000000000000000000000000000000000000000000000000600082015250565b6000612b7360038361292e565b9150612b7e82612b3d565b602082019050919050565b600060a082019050612b9e600083018761264a565b612bab60208301866125c3565b612bb860408301856125d2565b8181036060830152612bc981612b66565b9050612bd860808301846125d2565b95945050505050565b7f4f776e61626c653a2063616c6c6572206973206e6f7420746865206f776e6572600082015250565b6000612c1760208361292e565b9150612c2282612be1565b602082019050919050565b60006020820190508181036000830152612c4681612c0a565b9050919050565b7f5265656e7472616e637947756172643a207265656e7472616e742063616c6c00600082015250565b6000612c83601f8361292e565b9150612c8e82612c4d565b602082019050919050565b60006020820190508181036000830152612cb281612c76565b9050919050565b7f506c65617365207375626d6974207468652061736b696e67207072696365206960008201527f6e206f7264657220746f20636f6d706c65746520746865207075726368617365602082015250565b6000612d1560408361292e565b9150612d2082612cb9565b604082019050919050565b60006020820190508181036000830152612d4481612d08565b9050919050565b7f4173736574206e6f74207075626c697368656400000000000000000000000000600082015250565b6000612d8160138361292e565b9150612d8c82612d4b565b602082019050919050565b60006020820190508181036000830152612db081612d74565b9050919050565b7f4173736574206973206e6f74206c69737420746f206275790000000000000000600082015250565b6000612ded60188361292e565b9150612df882612db7565b602082019050919050565b60006020820190508181036000830152612e1c81612de0565b9050919050565b7f496e76616c696420616464726573730000000000000000000000000000000000600082015250565b6000612e59600f8361292e565b9150612e6482612e23565b602082019050919050565b60006020820190508181036000830152612e8881612e4c565b9050919050565b7f7072696365206e65656420657175616c206c697374696e672070726963650000600082015250565b6000612ec5601e8361292e565b9150612ed082612e8f565b602082019050919050565b60006020820190508181036000830152612ef481612eb8565b9050919050565b6000612f0682612275565b9150612f1183612275565b9250817fffffffffffffffffffffffffffffffffffffffffffffffffffffffffffffffff0483118215151615612f4a57612f49612803565b5b828202905092915050565b7f4e487b7100000000000000000000000000000000000000000000000000000000600052601260045260246000fd5b6000612f8f82612275565b9150612f9a83612275565b925082612faa57612fa9612f55565b5b828204905092915050565b6000612fc082612275565b9150612fcb83612275565b925082821015612fde57612fdd612803565b5b828203905092915050565b60008115159050919050565b612ffe81612fe9565b811461300957600080fd5b50565b60008151905061301b81612ff5565b92915050565b600060208284031215613037576130366123f0565b5b60006130458482850161300c565b91505092915050565b7f414e544100000000000000000000000000000000000000000000000000000000600082015250565b600061308460048361292e565b915061308f8261304e565b602082019050919050565b600060e0820190506130af60008301896125c3565b6130bc602083018861264a565b6130c960408301876125d2565b6130d66060830186612791565b6130e360808301856125d2565b81810360a08301526130f481613077565b905061310360c08301846125d2565b979650505050505050565b7f4f776e61626c653a206e6577206f776e657220697320746865207a65726f206160008201527f6464726573730000000000000000000000000000000000000000000000000000602082015250565b600061316a60268361292e565b91506131758261310e565b604082019050919050565b600060208201905081810360008301526131998161315d565b9050919050565b7f546865204e465420416464726573732073686f756c64206265206120636f6e7460008201527f7261637400000000000000000000000000000000000000000000000000000000602082015250565b60006131fc60248361292e565b9150613207826131a0565b604082019050919050565b6000602082019050818103600083015261322b816131ef565b9050919050565b7f546865204e465420636f6e74726163742068617320616e20696e76616c69642060008201527f45524337323120696d706c656d656e746174696f6e0000000000000000000000602082015250565b600061328e60358361292e565b915061329982613232565b604082019050919050565b600060208201905081810360008301526132bd81613281565b9050919050565b6000819050919050565b6132df6132da82612275565b6132c4565b82525050565b60008160601b9050919050565b60006132fd826132e5565b9050919050565b600061330f826132f2565b9050919050565b6133276133228261228e565b613304565b82525050565b600061333982886132ce565b6020820191506133498287613316565b60148201915061335982866132ce565b6020820191506133698285613316565b60148201915061337982846132ce565b602082019150819050969550505050505056fea2646970667358221220c64ece2dd3148b82858028647c645fae9bf04f50318c36b4b098ab8d110a6d8564736f6c634300080d0033",
					"opcodes": "PUSH1 0x80 PUSH1 0x40 MSTORE CALLVALUE DUP1 ISZERO PUSH3 0x11 JUMPI PUSH1 0x0 DUP1 REVERT JUMPDEST POP PUSH1 0x1 PUSH1 0x0 DUP2 SWAP1 SSTORE POP PUSH3 0x3A PUSH3 0x2E PUSH3 0x40 PUSH1 0x20 SHL PUSH1 0x20 SHR JUMP JUMPDEST PUSH3 0x48 PUSH1 0x20 SHL PUSH1 0x20 SHR JUMP JUMPDEST PUSH3 0x10E JUMP JUMPDEST PUSH1 0x0 CALLER SWAP1 POP SWAP1 JUMP JUMPDEST PUSH1 0x0 PUSH1 0x4 PUSH1 0x0 SWAP1 SLOAD SWAP1 PUSH2 0x100 EXP SWAP1 DIV PUSH20 0xFFFFFFFFFFFFFFFFFFFFFFFFFFFFFFFFFFFFFFFF AND SWAP1 POP DUP2 PUSH1 0x4 PUSH1 0x0 PUSH2 0x100 EXP DUP2 SLOAD DUP2 PUSH20 0xFFFFFFFFFFFFFFFFFFFFFFFFFFFFFFFFFFFFFFFF MUL NOT AND SWAP1 DUP4 PUSH20 0xFFFFFFFFFFFFFFFFFFFFFFFFFFFFFFFFFFFFFFFF AND MUL OR SWAP1 SSTORE POP DUP2 PUSH20 0xFFFFFFFFFFFFFFFFFFFFFFFFFFFFFFFFFFFFFFFF AND DUP2 PUSH20 0xFFFFFFFFFFFFFFFFFFFFFFFFFFFFFFFFFFFFFFFF AND PUSH32 0x8BE0079C531659141344CD1FD0A4F28419497F9722A3DAAFE3B4186F6B6457E0 PUSH1 0x40 MLOAD PUSH1 0x40 MLOAD DUP1 SWAP2 SUB SWAP1 LOG3 POP POP JUMP JUMPDEST PUSH2 0x33C2 DUP1 PUSH3 0x11E PUSH1 0x0 CODECOPY PUSH1 0x0 RETURN INVALID PUSH1 0x80 PUSH1 0x40 MSTORE PUSH1 0x4 CALLDATASIZE LT PUSH2 0xF3 JUMPI PUSH1 0x0 CALLDATALOAD PUSH1 0xE0 SHR DUP1 PUSH4 0x85A8B36C GT PUSH2 0x8A JUMPI DUP1 PUSH4 0xC23B139E GT PUSH2 0x59 JUMPI DUP1 PUSH4 0xC23B139E EQ PUSH2 0x320 JUMPI DUP1 PUSH4 0xC7BE7A49 EQ PUSH2 0x33C JUMPI DUP1 PUSH4 0xF01B52DC EQ PUSH2 0x379 JUMPI DUP1 PUSH4 0xF2FDE38B EQ PUSH2 0x3A2 JUMPI PUSH2 0xF3 JUMP JUMPDEST DUP1 PUSH4 0x85A8B36C EQ PUSH2 0x276 JUMPI DUP1 PUSH4 0x8DA5CB5B EQ PUSH2 0x2A1 JUMPI DUP1 PUSH4 0x92BF77DD EQ PUSH2 0x2CC JUMPI DUP1 PUSH4 0xB7A60C7E EQ PUSH2 0x2F5 JUMPI PUSH2 0xF3 JUMP JUMPDEST DUP1 PUSH4 0x49739678 GT PUSH2 0xC6 JUMPI DUP1 PUSH4 0x49739678 EQ PUSH2 0x1B6 JUMPI DUP1 PUSH4 0x5C80A435 EQ PUSH2 0x1F4 JUMPI DUP1 PUSH4 0x68915327 EQ PUSH2 0x236 JUMPI DUP1 PUSH4 0x715018A6 EQ PUSH2 0x25F JUMPI PUSH2 0xF3 JUMP JUMPDEST DUP1 PUSH4 0x15B81DC3 EQ PUSH2 0xF8 JUMPI DUP1 PUSH4 0x202E3740 EQ PUSH2 0x123 JUMPI DUP1 PUSH4 0x2A45B250 EQ PUSH2 0x14E JUMPI DUP1 PUSH4 0x2B4C32BE EQ PUSH2 0x18B JUMPI JUMPDEST PUSH1 0x0 DUP1 REVERT JUMPDEST CALLVALUE DUP1 ISZERO PUSH2 0x104 JUMPI PUSH1 0x0 DUP1 REVERT JUMPDEST POP PUSH2 0x10D PUSH2 0x3CB JUMP JUMPDEST PUSH1 0x40 MLOAD PUSH2 0x11A SWAP2 SWAP1 PUSH2 0x222E JUMP JUMPDEST PUSH1 0x40 MLOAD DUP1 SWAP2 SUB SWAP1 RETURN JUMPDEST CALLVALUE DUP1 ISZERO PUSH2 0x12F JUMPI PUSH1 0x0 DUP1 REVERT JUMPDEST POP PUSH2 0x138 PUSH2 0x3F1 JUMP JUMPDEST PUSH1 0x40 MLOAD PUSH2 0x145 SWAP2 SWAP1 PUSH2 0x23CE JUMP JUMPDEST PUSH1 0x40 MLOAD DUP1 SWAP2 SUB SWAP1 RETURN JUMPDEST CALLVALUE DUP1 ISZERO PUSH2 0x15A JUMPI PUSH1 0x0 DUP1 REVERT JUMPDEST POP PUSH2 0x175 PUSH1 0x4 DUP1 CALLDATASIZE SUB DUP2 ADD SWAP1 PUSH2 0x170 SWAP2 SWAP1 PUSH2 0x2421 JUMP JUMPDEST PUSH2 0x738 JUMP JUMPDEST PUSH1 0x40 MLOAD PUSH2 0x182 SWAP2 SWAP1 PUSH2 0x24C9 JUMP JUMPDEST PUSH1 0x40 MLOAD DUP1 SWAP2 SUB SWAP1 RETURN JUMPDEST CALLVALUE DUP1 ISZERO PUSH2 0x197 JUMPI PUSH1 0x0 DUP1 REVERT JUMPDEST POP PUSH2 0x1A0 PUSH2 0x88B JUMP JUMPDEST PUSH1 0x40 MLOAD PUSH2 0x1AD SWAP2 SWAP1 PUSH2 0x251F JUMP JUMPDEST PUSH1 0x40 MLOAD DUP1 SWAP2 SUB SWAP1 RETURN JUMPDEST CALLVALUE DUP1 ISZERO PUSH2 0x1C2 JUMPI PUSH1 0x0 DUP1 REVERT JUMPDEST POP PUSH2 0x1DD PUSH1 0x4 DUP1 CALLDATASIZE SUB DUP2 ADD SWAP1 PUSH2 0x1D8 SWAP2 SWAP1 PUSH2 0x2566 JUMP JUMPDEST PUSH2 0x896 JUMP JUMPDEST PUSH1 0x40 MLOAD PUSH2 0x1EB SWAP3 SWAP2 SWAP1 PUSH2 0x25E1 JUMP JUMPDEST PUSH1 0x40 MLOAD DUP1 SWAP2 SUB SWAP1 RETURN JUMPDEST CALLVALUE DUP1 ISZERO PUSH2 0x200 JUMPI PUSH1 0x0 DUP1 REVERT JUMPDEST POP PUSH2 0x21B PUSH1 0x4 DUP1 CALLDATASIZE SUB DUP2 ADD SWAP1 PUSH2 0x216 SWAP2 SWAP1 PUSH2 0x260A JUMP JUMPDEST PUSH2 0x8D4 JUMP JUMPDEST PUSH1 0x40 MLOAD PUSH2 0x22D SWAP7 SWAP6 SWAP5 SWAP4 SWAP3 SWAP2 SWAP1 PUSH2 0x26D0 JUMP JUMPDEST PUSH1 0x40 MLOAD DUP1 SWAP2 SUB SWAP1 RETURN JUMPDEST CALLVALUE DUP1 ISZERO PUSH2 0x242 JUMPI PUSH1 0x0 DUP1 REVERT JUMPDEST POP PUSH2 0x25D PUSH1 0x4 DUP1 CALLDATASIZE SUB DUP2 ADD SWAP1 PUSH2 0x258 SWAP2 SWAP1 PUSH2 0x2731 JUMP JUMPDEST PUSH2 0x96A JUMP JUMPDEST STOP JUMPDEST CALLVALUE DUP1 ISZERO PUSH2 0x26B JUMPI PUSH1 0x0 DUP1 REVERT JUMPDEST POP PUSH2 0x274 PUSH2 0x10CE JUMP JUMPDEST STOP JUMPDEST CALLVALUE DUP1 ISZERO PUSH2 0x282 JUMPI PUSH1 0x0 DUP1 REVERT JUMPDEST POP PUSH2 0x28B PUSH2 0x1156 JUMP JUMPDEST PUSH1 0x40 MLOAD PUSH2 0x298 SWAP2 SWAP1 PUSH2 0x27A0 JUMP JUMPDEST PUSH1 0x40 MLOAD DUP1 SWAP2 SUB SWAP1 RETURN JUMPDEST CALLVALUE DUP1 ISZERO PUSH2 0x2AD JUMPI PUSH1 0x0 DUP1 REVERT JUMPDEST POP PUSH2 0x2B6 PUSH2 0x1169 JUMP JUMPDEST PUSH1 0x40 MLOAD PUSH2 0x2C3 SWAP2 SWAP1 PUSH2 0x27BB JUMP JUMPDEST PUSH1 0x40 MLOAD DUP1 SWAP2 SUB SWAP1 RETURN JUMPDEST CALLVALUE DUP1 ISZERO PUSH2 0x2D8 JUMPI PUSH1 0x0 DUP1 REVERT JUMPDEST POP PUSH2 0x2F3 PUSH1 0x4 DUP1 CALLDATASIZE SUB DUP2 ADD SWAP1 PUSH2 0x2EE SWAP2 SWAP1 PUSH2 0x27D6 JUMP JUMPDEST PUSH2 0x1193 JUMP JUMPDEST STOP JUMPDEST CALLVALUE DUP1 ISZERO PUSH2 0x301 JUMPI PUSH1 0x0 DUP1 REVERT JUMPDEST POP PUSH2 0x30A PUSH2 0x1253 JUMP JUMPDEST PUSH1 0x40 MLOAD PUSH2 0x317 SWAP2 SWAP1 PUSH2 0x27A0 JUMP JUMPDEST PUSH1 0x40 MLOAD DUP1 SWAP2 SUB SWAP1 RETURN JUMPDEST PUSH2 0x33A PUSH1 0x4 DUP1 CALLDATASIZE SUB DUP2 ADD SWAP1 PUSH2 0x335 SWAP2 SWAP1 PUSH2 0x260A JUMP JUMPDEST PUSH2 0x1266 JUMP JUMPDEST STOP JUMPDEST CALLVALUE DUP1 ISZERO PUSH2 0x348 JUMPI PUSH1 0x0 DUP1 REVERT JUMPDEST POP PUSH2 0x363 PUSH1 0x4 DUP1 CALLDATASIZE SUB DUP2 ADD SWAP1 PUSH2 0x35E SWAP2 SWAP1 PUSH2 0x2421 JUMP JUMPDEST PUSH2 0x1484 JUMP JUMPDEST PUSH1 0x40 MLOAD PUSH2 0x370 SWAP2 SWAP1 PUSH2 0x24C9 JUMP JUMPDEST PUSH1 0x40 MLOAD DUP1 SWAP2 SUB SWAP1 RETURN JUMPDEST CALLVALUE DUP1 ISZERO PUSH2 0x385 JUMPI PUSH1 0x0 DUP1 REVERT JUMPDEST POP PUSH2 0x3A0 PUSH1 0x4 DUP1 CALLDATASIZE SUB DUP2 ADD SWAP1 PUSH2 0x39B SWAP2 SWAP1 PUSH2 0x2731 JUMP JUMPDEST PUSH2 0x15D1 JUMP JUMPDEST STOP JUMPDEST CALLVALUE DUP1 ISZERO PUSH2 0x3AE JUMPI PUSH1 0x0 DUP1 REVERT JUMPDEST POP PUSH2 0x3C9 PUSH1 0x4 DUP1 CALLDATASIZE SUB DUP2 ADD SWAP1 PUSH2 0x3C4 SWAP2 SWAP1 PUSH2 0x27D6 JUMP JUMPDEST PUSH2 0x1C4E JUMP JUMPDEST STOP JUMPDEST PUSH1 0x3 PUSH1 0x0 SWAP1 SLOAD SWAP1 PUSH2 0x100 EXP SWAP1 DIV PUSH20 0xFFFFFFFFFFFFFFFFFFFFFFFFFFFFFFFFFFFFFFFF AND DUP2 JUMP JUMPDEST PUSH1 0x60 PUSH1 0x0 PUSH2 0x3FF PUSH1 0x5 PUSH2 0x1D45 JUMP JUMPDEST SWAP1 POP PUSH1 0x0 DUP1 PUSH1 0x0 JUMPDEST DUP4 DUP2 LT ISZERO PUSH2 0x4A7 JUMPI CALLER PUSH20 0xFFFFFFFFFFFFFFFFFFFFFFFFFFFFFFFFFFFFFFFF AND PUSH1 0x7 PUSH1 0x0 PUSH1 0x1 DUP5 PUSH2 0x437 SWAP2 SWAP1 PUSH2 0x2832 JUMP JUMPDEST DUP2 MSTORE PUSH1 0x20 ADD SWAP1 DUP2 MSTORE PUSH1 0x20 ADD PUSH1 0x0 KECCAK256 PUSH1 0x4 ADD PUSH1 0x0 SWAP1 SLOAD SWAP1 PUSH2 0x100 EXP SWAP1 DIV PUSH20 0xFFFFFFFFFFFFFFFFFFFFFFFFFFFFFFFFFFFFFFFF AND PUSH20 0xFFFFFFFFFFFFFFFFFFFFFFFFFFFFFFFFFFFFFFFF AND SUB PUSH2 0x494 JUMPI PUSH1 0x1 DUP4 PUSH2 0x491 SWAP2 SWAP1 PUSH2 0x2832 JUMP JUMPDEST SWAP3 POP JUMPDEST DUP1 DUP1 PUSH2 0x49F SWAP1 PUSH2 0x2888 JUMP JUMPDEST SWAP2 POP POP PUSH2 0x407 JUMP JUMPDEST POP PUSH1 0x0 DUP3 PUSH8 0xFFFFFFFFFFFFFFFF DUP2 GT ISZERO PUSH2 0x4C4 JUMPI PUSH2 0x4C3 PUSH2 0x28D0 JUMP JUMPDEST JUMPDEST PUSH1 0x40 MLOAD SWAP1 DUP1 DUP3 MSTORE DUP1 PUSH1 0x20 MUL PUSH1 0x20 ADD DUP3 ADD PUSH1 0x40 MSTORE DUP1 ISZERO PUSH2 0x4FD JUMPI DUP2 PUSH1 0x20 ADD JUMPDEST PUSH2 0x4EA PUSH2 0x2137 JUMP JUMPDEST DUP2 MSTORE PUSH1 0x20 ADD SWAP1 PUSH1 0x1 SWAP1 SUB SWAP1 DUP2 PUSH2 0x4E2 JUMPI SWAP1 POP JUMPDEST POP SWAP1 POP PUSH1 0x0 JUMPDEST DUP5 DUP2 LT ISZERO PUSH2 0x72D JUMPI CALLER PUSH20 0xFFFFFFFFFFFFFFFFFFFFFFFFFFFFFFFFFFFFFFFF AND PUSH1 0x7 PUSH1 0x0 PUSH1 0x1 DUP5 PUSH2 0x533 SWAP2 SWAP1 PUSH2 0x2832 JUMP JUMPDEST DUP2 MSTORE PUSH1 0x20 ADD SWAP1 DUP2 MSTORE PUSH1 0x20 ADD PUSH1 0x0 KECCAK256 PUSH1 0x4 ADD PUSH1 0x0 SWAP1 SLOAD SWAP1 PUSH2 0x100 EXP SWAP1 DIV PUSH20 0xFFFFFFFFFFFFFFFFFFFFFFFFFFFFFFFFFFFFFFFF AND PUSH20 0xFFFFFFFFFFFFFFFFFFFFFFFFFFFFFFFFFFFFFFFF AND SUB PUSH2 0x71A JUMPI PUSH1 0x0 PUSH1 0x7 PUSH1 0x0 PUSH1 0x1 DUP5 PUSH2 0x593 SWAP2 SWAP1 PUSH2 0x2832 JUMP JUMPDEST DUP2 MSTORE PUSH1 0x20 ADD SWAP1 DUP2 MSTORE PUSH1 0x20 ADD PUSH1 0x0 KECCAK256 PUSH1 0x0 ADD SLOAD SWAP1 POP PUSH1 0x0 PUSH1 0x7 PUSH1 0x0 DUP4 DUP2 MSTORE PUSH1 0x20 ADD SWAP1 DUP2 MSTORE PUSH1 0x20 ADD PUSH1 0x0 KECCAK256 SWAP1 POP DUP1 PUSH1 0x40 MLOAD DUP1 PUSH1 0xC0 ADD PUSH1 0x40 MSTORE SWAP1 DUP2 PUSH1 0x0 DUP3 ADD SLOAD DUP2 MSTORE PUSH1 0x20 ADD PUSH1 0x1 DUP3 ADD PUSH1 0x0 SWAP1 SLOAD SWAP1 PUSH2 0x100 EXP SWAP1 DIV PUSH20 0xFFFFFFFFFFFFFFFFFFFFFFFFFFFFFFFFFFFFFFFF AND PUSH20 0xFFFFFFFFFFFFFFFFFFFFFFFFFFFFFFFFFFFFFFFF AND PUSH20 0xFFFFFFFFFFFFFFFFFFFFFFFFFFFFFFFFFFFFFFFF AND DUP2 MSTORE PUSH1 0x20 ADD PUSH1 0x2 DUP3 ADD SLOAD DUP2 MSTORE PUSH1 0x20 ADD PUSH1 0x3 DUP3 ADD PUSH1 0x0 SWAP1 SLOAD SWAP1 PUSH2 0x100 EXP SWAP1 DIV PUSH20 0xFFFFFFFFFFFFFFFFFFFFFFFFFFFFFFFFFFFFFFFF AND PUSH20 0xFFFFFFFFFFFFFFFFFFFFFFFFFFFFFFFFFFFFFFFF AND PUSH20 0xFFFFFFFFFFFFFFFFFFFFFFFFFFFFFFFFFFFFFFFF AND DUP2 MSTORE PUSH1 0x20 ADD PUSH1 0x4 DUP3 ADD PUSH1 0x0 SWAP1 SLOAD SWAP1 PUSH2 0x100 EXP SWAP1 DIV PUSH20 0xFFFFFFFFFFFFFFFFFFFFFFFFFFFFFFFFFFFFFFFF AND PUSH20 0xFFFFFFFFFFFFFFFFFFFFFFFFFFFFFFFFFFFFFFFF AND PUSH20 0xFFFFFFFFFFFFFFFFFFFFFFFFFFFFFFFFFFFFFFFF AND DUP2 MSTORE PUSH1 0x20 ADD PUSH1 0x5 DUP3 ADD SLOAD DUP2 MSTORE POP POP DUP5 DUP7 DUP2 MLOAD DUP2 LT PUSH2 0x6FD JUMPI PUSH2 0x6FC PUSH2 0x28FF JUMP JUMPDEST JUMPDEST PUSH1 0x20 MUL PUSH1 0x20 ADD ADD DUP2 SWAP1 MSTORE POP PUSH1 0x1 DUP6 PUSH2 0x715 SWAP2 SWAP1 PUSH2 0x2832 JUMP JUMPDEST SWAP5 POP POP POP JUMPDEST DUP1 DUP1 PUSH2 0x725 SWAP1 PUSH2 0x2888 JUMP JUMPDEST SWAP2 POP POP PUSH2 0x503 JUMP JUMPDEST POP DUP1 SWAP5 POP POP POP POP POP SWAP1 JUMP JUMPDEST PUSH2 0x740 PUSH2 0x2137 JUMP JUMPDEST PUSH1 0x0 PUSH1 0x7 PUSH1 0x0 DUP5 DUP2 MSTORE PUSH1 0x20 ADD SWAP1 DUP2 MSTORE PUSH1 0x20 ADD PUSH1 0x0 KECCAK256 PUSH1 0x40 MLOAD DUP1 PUSH1 0xC0 ADD PUSH1 0x40 MSTORE SWAP1 DUP2 PUSH1 0x0 DUP3 ADD SLOAD DUP2 MSTORE PUSH1 0x20 ADD PUSH1 0x1 DUP3 ADD PUSH1 0x0 SWAP1 SLOAD SWAP1 PUSH2 0x100 EXP SWAP1 DIV PUSH20 0xFFFFFFFFFFFFFFFFFFFFFFFFFFFFFFFFFFFFFFFF AND PUSH20 0xFFFFFFFFFFFFFFFFFFFFFFFFFFFFFFFFFFFFFFFF AND PUSH20 0xFFFFFFFFFFFFFFFFFFFFFFFFFFFFFFFFFFFFFFFF AND DUP2 MSTORE PUSH1 0x20 ADD PUSH1 0x2 DUP3 ADD SLOAD DUP2 MSTORE PUSH1 0x20 ADD PUSH1 0x3 DUP3 ADD PUSH1 0x0 SWAP1 SLOAD SWAP1 PUSH2 0x100 EXP SWAP1 DIV PUSH20 0xFFFFFFFFFFFFFFFFFFFFFFFFFFFFFFFFFFFFFFFF AND PUSH20 0xFFFFFFFFFFFFFFFFFFFFFFFFFFFFFFFFFFFFFFFF AND PUSH20 0xFFFFFFFFFFFFFFFFFFFFFFFFFFFFFFFFFFFFFFFF AND DUP2 MSTORE PUSH1 0x20 ADD PUSH1 0x4 DUP3 ADD PUSH1 0x0 SWAP1 SLOAD SWAP1 PUSH2 0x100 EXP SWAP1 DIV PUSH20 0xFFFFFFFFFFFFFFFFFFFFFFFFFFFFFFFFFFFFFFFF AND PUSH20 0xFFFFFFFFFFFFFFFFFFFFFFFFFFFFFFFFFFFFFFFF AND PUSH20 0xFFFFFFFFFFFFFFFFFFFFFFFFFFFFFFFFFFFFFFFF AND DUP2 MSTORE PUSH1 0x20 ADD PUSH1 0x5 DUP3 ADD SLOAD DUP2 MSTORE POP POP SWAP1 POP DUP1 SWAP2 POP POP SWAP2 SWAP1 POP JUMP JUMPDEST PUSH4 0x80AC58CD PUSH1 0xE0 SHL DUP2 JUMP JUMPDEST PUSH1 0x2 PUSH1 0x20 MSTORE DUP3 PUSH1 0x0 MSTORE PUSH1 0x40 PUSH1 0x0 KECCAK256 PUSH1 0x20 MSTORE DUP2 PUSH1 0x0 MSTORE PUSH1 0x40 PUSH1 0x0 KECCAK256 PUSH1 0x20 MSTORE DUP1 PUSH1 0x0 MSTORE PUSH1 0x40 PUSH1 0x0 KECCAK256 PUSH1 0x0 SWAP3 POP SWAP3 POP POP POP DUP1 PUSH1 0x0 ADD SLOAD SWAP1 DUP1 PUSH1 0x1 ADD SLOAD SWAP1 POP DUP3 JUMP JUMPDEST PUSH1 0x1 PUSH1 0x20 MSTORE DUP2 PUSH1 0x0 MSTORE PUSH1 0x40 PUSH1 0x0 KECCAK256 PUSH1 0x20 MSTORE DUP1 PUSH1 0x0 MSTORE PUSH1 0x40 PUSH1 0x0 KECCAK256 PUSH1 0x0 SWAP2 POP SWAP2 POP POP DUP1 PUSH1 0x0 ADD SLOAD SWAP1 DUP1 PUSH1 0x1 ADD PUSH1 0x0 SWAP1 SLOAD SWAP1 PUSH2 0x100 EXP SWAP1 DIV PUSH20 0xFFFFFFFFFFFFFFFFFFFFFFFFFFFFFFFFFFFFFFFF AND SWAP1 DUP1 PUSH1 0x2 ADD PUSH1 0x0 SWAP1 SLOAD SWAP1 PUSH2 0x100 EXP SWAP1 DIV PUSH20 0xFFFFFFFFFFFFFFFFFFFFFFFFFFFFFFFFFFFFFFFF AND SWAP1 DUP1 PUSH1 0x3 ADD SLOAD SWAP1 DUP1 PUSH1 0x4 ADD SLOAD SWAP1 DUP1 PUSH1 0x5 ADD PUSH1 0x0 SWAP1 SLOAD SWAP1 PUSH2 0x100 EXP SWAP1 DIV PUSH1 0xFF AND SWAP1 POP DUP7 JUMP JUMPDEST PUSH1 0x0 DUP2 GT PUSH2 0x9AD JUMPI PUSH1 0x40 MLOAD PUSH32 0x8C379A000000000000000000000000000000000000000000000000000000000 DUP2 MSTORE PUSH1 0x4 ADD PUSH2 0x9A4 SWAP1 PUSH2 0x298B JUMP JUMPDEST PUSH1 0x40 MLOAD DUP1 SWAP2 SUB SWAP1 REVERT JUMPDEST PUSH2 0x9B6 DUP4 PUSH2 0x1D53 JUMP JUMPDEST PUSH1 0x0 CALLER SWAP1 POP PUSH2 0x9C5 PUSH1 0x5 PUSH2 0x1E64 JUMP JUMPDEST PUSH1 0x0 DUP5 SWAP1 POP PUSH1 0x0 PUSH2 0x9D6 PUSH1 0x5 PUSH2 0x1D45 JUMP JUMPDEST SWAP1 POP DUP3 PUSH20 0xFFFFFFFFFFFFFFFFFFFFFFFFFFFFFFFFFFFFFFFF AND DUP3 PUSH20 0xFFFFFFFFFFFFFFFFFFFFFFFFFFFFFFFFFFFFFFFF AND PUSH4 0x6352211E DUP8 PUSH1 0x40 MLOAD DUP3 PUSH4 0xFFFFFFFF AND PUSH1 0xE0 SHL DUP2 MSTORE PUSH1 0x4 ADD PUSH2 0xA28 SWAP2 SWAP1 PUSH2 0x29AB JUMP JUMPDEST PUSH1 0x20 PUSH1 0x40 MLOAD DUP1 DUP4 SUB DUP2 DUP7 GAS STATICCALL ISZERO DUP1 ISZERO PUSH2 0xA45 JUMPI RETURNDATASIZE PUSH1 0x0 DUP1 RETURNDATACOPY RETURNDATASIZE PUSH1 0x0 REVERT JUMPDEST POP POP POP POP PUSH1 0x40 MLOAD RETURNDATASIZE PUSH1 0x1F NOT PUSH1 0x1F DUP3 ADD AND DUP3 ADD DUP1 PUSH1 0x40 MSTORE POP DUP2 ADD SWAP1 PUSH2 0xA69 SWAP2 SWAP1 PUSH2 0x29DB JUMP JUMPDEST PUSH20 0xFFFFFFFFFFFFFFFFFFFFFFFFFFFFFFFFFFFFFFFF AND EQ PUSH2 0xABF JUMPI PUSH1 0x40 MLOAD PUSH32 0x8C379A000000000000000000000000000000000000000000000000000000000 DUP2 MSTORE PUSH1 0x4 ADD PUSH2 0xAB6 SWAP1 PUSH2 0x2A7A JUMP JUMPDEST PUSH1 0x40 MLOAD DUP1 SWAP2 SUB SWAP1 REVERT JUMPDEST PUSH1 0x40 MLOAD DUP1 PUSH1 0xC0 ADD PUSH1 0x40 MSTORE DUP1 DUP3 DUP2 MSTORE PUSH1 0x20 ADD DUP8 PUSH20 0xFFFFFFFFFFFFFFFFFFFFFFFFFFFFFFFFFFFFFFFF AND DUP2 MSTORE PUSH1 0x20 ADD DUP7 DUP2 MSTORE PUSH1 0x20 ADD CALLER PUSH20 0xFFFFFFFFFFFFFFFFFFFFFFFFFFFFFFFFFFFFFFFF AND DUP2 MSTORE PUSH1 0x20 ADD PUSH1 0x0 PUSH20 0xFFFFFFFFFFFFFFFFFFFFFFFFFFFFFFFFFFFFFFFF AND DUP2 MSTORE PUSH1 0x20 ADD DUP6 DUP2 MSTORE POP PUSH1 0x7 PUSH1 0x0 DUP4 DUP2 MSTORE PUSH1 0x20 ADD SWAP1 DUP2 MSTORE PUSH1 0x20 ADD PUSH1 0x0 KECCAK256 PUSH1 0x0 DUP3 ADD MLOAD DUP2 PUSH1 0x0 ADD SSTORE PUSH1 0x20 DUP3 ADD MLOAD DUP2 PUSH1 0x1 ADD PUSH1 0x0 PUSH2 0x100 EXP DUP2 SLOAD DUP2 PUSH20 0xFFFFFFFFFFFFFFFFFFFFFFFFFFFFFFFFFFFFFFFF MUL NOT AND SWAP1 DUP4 PUSH20 0xFFFFFFFFFFFFFFFFFFFFFFFFFFFFFFFFFFFFFFFF AND MUL OR SWAP1 SSTORE POP PUSH1 0x40 DUP3 ADD MLOAD DUP2 PUSH1 0x2 ADD SSTORE PUSH1 0x60 DUP3 ADD MLOAD DUP2 PUSH1 0x3 ADD PUSH1 0x0 PUSH2 0x100 EXP DUP2 SLOAD DUP2 PUSH20 0xFFFFFFFFFFFFFFFFFFFFFFFFFFFFFFFFFFFFFFFF MUL NOT AND SWAP1 DUP4 PUSH20 0xFFFFFFFFFFFFFFFFFFFFFFFFFFFFFFFFFFFFFFFF AND MUL OR SWAP1 SSTORE POP PUSH1 0x80 DUP3 ADD MLOAD DUP2 PUSH1 0x4 ADD PUSH1 0x0 PUSH2 0x100 EXP DUP2 SLOAD DUP2 PUSH20 0xFFFFFFFFFFFFFFFFFFFFFFFFFFFFFFFFFFFFFFFF MUL NOT AND SWAP1 DUP4 PUSH20 0xFFFFFFFFFFFFFFFFFFFFFFFFFFFFFFFFFFFFFFFF AND MUL OR SWAP1 SSTORE POP PUSH1 0xA0 DUP3 ADD MLOAD DUP2 PUSH1 0x5 ADD SSTORE SWAP1 POP POP DUP2 PUSH20 0xFFFFFFFFFFFFFFFFFFFFFFFFFFFFFFFFFFFFFFFF AND PUSH4 0x23B872DD DUP5 ADDRESS DUP9 PUSH1 0x40 MLOAD DUP5 PUSH4 0xFFFFFFFF AND PUSH1 0xE0 SHL DUP2 MSTORE PUSH1 0x4 ADD PUSH2 0xC75 SWAP4 SWAP3 SWAP2 SWAP1 PUSH2 0x2A9A JUMP JUMPDEST PUSH1 0x0 PUSH1 0x40 MLOAD DUP1 DUP4 SUB DUP2 PUSH1 0x0 DUP8 DUP1 EXTCODESIZE ISZERO DUP1 ISZERO PUSH2 0xC8F JUMPI PUSH1 0x0 DUP1 REVERT JUMPDEST POP GAS CALL ISZERO DUP1 ISZERO PUSH2 0xCA3 JUMPI RETURNDATASIZE PUSH1 0x0 DUP1 RETURNDATACOPY RETURNDATASIZE PUSH1 0x0 REVERT JUMPDEST POP POP POP POP PUSH1 0x0 PUSH1 0x1 PUSH1 0x0 DUP9 PUSH20 0xFFFFFFFFFFFFFFFFFFFFFFFFFFFFFFFFFFFFFFFF AND PUSH20 0xFFFFFFFFFFFFFFFFFFFFFFFFFFFFFFFFFFFFFFFF AND DUP2 MSTORE PUSH1 0x20 ADD SWAP1 DUP2 MSTORE PUSH1 0x20 ADD PUSH1 0x0 KECCAK256 PUSH1 0x0 DUP8 DUP2 MSTORE PUSH1 0x20 ADD SWAP1 DUP2 MSTORE PUSH1 0x20 ADD PUSH1 0x0 KECCAK256 PUSH1 0x40 MLOAD DUP1 PUSH1 0xC0 ADD PUSH1 0x40 MSTORE SWAP1 DUP2 PUSH1 0x0 DUP3 ADD SLOAD DUP2 MSTORE PUSH1 0x20 ADD PUSH1 0x1 DUP3 ADD PUSH1 0x0 SWAP1 SLOAD SWAP1 PUSH2 0x100 EXP SWAP1 DIV PUSH20 0xFFFFFFFFFFFFFFFFFFFFFFFFFFFFFFFFFFFFFFFF AND PUSH20 0xFFFFFFFFFFFFFFFFFFFFFFFFFFFFFFFFFFFFFFFF AND PUSH20 0xFFFFFFFFFFFFFFFFFFFFFFFFFFFFFFFFFFFFFFFF AND DUP2 MSTORE PUSH1 0x20 ADD PUSH1 0x2 DUP3 ADD PUSH1 0x0 SWAP1 SLOAD SWAP1 PUSH2 0x100 EXP SWAP1 DIV PUSH20 0xFFFFFFFFFFFFFFFFFFFFFFFFFFFFFFFFFFFFFFFF AND PUSH20 0xFFFFFFFFFFFFFFFFFFFFFFFFFFFFFFFFFFFFFFFF AND PUSH20 0xFFFFFFFFFFFFFFFFFFFFFFFFFFFFFFFFFFFFFFFF AND DUP2 MSTORE PUSH1 0x20 ADD PUSH1 0x3 DUP3 ADD SLOAD DUP2 MSTORE PUSH1 0x20 ADD PUSH1 0x4 DUP3 ADD SLOAD DUP2 MSTORE PUSH1 0x20 ADD PUSH1 0x5 DUP3 ADD PUSH1 0x0 SWAP1 SLOAD SWAP1 PUSH2 0x100 EXP SWAP1 DIV PUSH1 0xFF AND PUSH1 0x4 DUP2 GT ISZERO PUSH2 0xDF3 JUMPI PUSH2 0xDF2 PUSH2 0x2659 JUMP JUMPDEST JUMPDEST PUSH1 0x4 DUP2 GT ISZERO PUSH2 0xE05 JUMPI PUSH2 0xE04 PUSH2 0x2659 JUMP JUMPDEST JUMPDEST DUP2 MSTORE POP POP SWAP1 POP PUSH1 0x0 DUP1 SHL DUP2 PUSH1 0x0 ADD MLOAD SUB PUSH2 0xE2C JUMPI PUSH2 0xE27 DUP5 DUP8 DUP10 DUP9 PUSH1 0x0 PUSH2 0x1E7A JUMP JUMPDEST PUSH2 0xFFD JUMP JUMPDEST PUSH1 0x1 PUSH1 0x4 DUP2 GT ISZERO PUSH2 0xE40 JUMPI PUSH2 0xE3F PUSH2 0x2659 JUMP JUMPDEST JUMPDEST DUP2 PUSH1 0xA0 ADD MLOAD PUSH1 0x4 DUP2 GT ISZERO PUSH2 0xE57 JUMPI PUSH2 0xE56 PUSH2 0x2659 JUMP JUMPDEST JUMPDEST SUB PUSH2 0xE97 JUMPI PUSH1 0x40 MLOAD PUSH32 0x8C379A000000000000000000000000000000000000000000000000000000000 DUP2 MSTORE PUSH1 0x4 ADD PUSH2 0xE8E SWAP1 PUSH2 0x2B1D JUMP JUMPDEST PUSH1 0x40 MLOAD DUP1 SWAP2 SUB SWAP1 REVERT JUMPDEST PUSH1 0x1 DUP1 PUSH1 0x0 DUP10 PUSH20 0xFFFFFFFFFFFFFFFFFFFFFFFFFFFFFFFFFFFFFFFF AND PUSH20 0xFFFFFFFFFFFFFFFFFFFFFFFFFFFFFFFFFFFFFFFF AND DUP2 MSTORE PUSH1 0x20 ADD SWAP1 DUP2 MSTORE PUSH1 0x20 ADD PUSH1 0x0 KECCAK256 PUSH1 0x0 DUP9 DUP2 MSTORE PUSH1 0x20 ADD SWAP1 DUP2 MSTORE PUSH1 0x20 ADD PUSH1 0x0 KECCAK256 PUSH1 0x5 ADD PUSH1 0x0 PUSH2 0x100 EXP DUP2 SLOAD DUP2 PUSH1 0xFF MUL NOT AND SWAP1 DUP4 PUSH1 0x4 DUP2 GT ISZERO PUSH2 0xF0D JUMPI PUSH2 0xF0C PUSH2 0x2659 JUMP JUMPDEST JUMPDEST MUL OR SWAP1 SSTORE POP DUP5 PUSH1 0x1 PUSH1 0x0 DUP10 PUSH20 0xFFFFFFFFFFFFFFFFFFFFFFFFFFFFFFFFFFFFFFFF AND PUSH20 0xFFFFFFFFFFFFFFFFFFFFFFFFFFFFFFFFFFFFFFFF AND DUP2 MSTORE PUSH1 0x20 ADD SWAP1 DUP2 MSTORE PUSH1 0x20 ADD PUSH1 0x0 KECCAK256 PUSH1 0x0 DUP9 DUP2 MSTORE PUSH1 0x20 ADD SWAP1 DUP2 MSTORE PUSH1 0x20 ADD PUSH1 0x0 KECCAK256 PUSH1 0x3 ADD DUP2 SWAP1 SSTORE POP DUP4 PUSH1 0x1 PUSH1 0x0 DUP10 PUSH20 0xFFFFFFFFFFFFFFFFFFFFFFFFFFFFFFFFFFFFFFFF AND PUSH20 0xFFFFFFFFFFFFFFFFFFFFFFFFFFFFFFFFFFFFFFFF AND DUP2 MSTORE PUSH1 0x20 ADD SWAP1 DUP2 MSTORE PUSH1 0x20 ADD PUSH1 0x0 KECCAK256 PUSH1 0x0 DUP9 DUP2 MSTORE PUSH1 0x20 ADD SWAP1 DUP2 MSTORE PUSH1 0x20 ADD PUSH1 0x0 KECCAK256 PUSH1 0x1 ADD PUSH1 0x0 PUSH2 0x100 EXP DUP2 SLOAD DUP2 PUSH20 0xFFFFFFFFFFFFFFFFFFFFFFFFFFFFFFFFFFFFFFFF MUL NOT AND SWAP1 DUP4 PUSH20 0xFFFFFFFFFFFFFFFFFFFFFFFFFFFFFFFFFFFFFFFF AND MUL OR SWAP1 SSTORE POP JUMPDEST DUP3 PUSH20 0xFFFFFFFFFFFFFFFFFFFFFFFFFFFFFFFFFFFFFFFF AND PUSH4 0x23B872DD DUP6 ADDRESS DUP10 PUSH1 0x40 MLOAD DUP5 PUSH4 0xFFFFFFFF AND PUSH1 0xE0 SHL DUP2 MSTORE PUSH1 0x4 ADD PUSH2 0x103A SWAP4 SWAP3 SWAP2 SWAP1 PUSH2 0x2A9A JUMP JUMPDEST PUSH1 0x0 PUSH1 0x40 MLOAD DUP1 DUP4 SUB DUP2 PUSH1 0x0 DUP8 DUP1 EXTCODESIZE ISZERO DUP1 ISZERO PUSH2 0x1054 JUMPI PUSH1 0x0 DUP1 REVERT JUMPDEST POP GAS CALL ISZERO DUP1 ISZERO PUSH2 0x1068 JUMPI RETURNDATASIZE PUSH1 0x0 DUP1 RETURNDATACOPY RETURNDATASIZE PUSH1 0x0 REVERT JUMPDEST POP POP POP POP DUP4 PUSH20 0xFFFFFFFFFFFFFFFFFFFFFFFFFFFFFFFFFFFFFFFF AND DUP7 PUSH32 0xFF2412BD5C66E6AD5153E35EE902EE32BB4393211A4D0662428B9B481929A7B9 DUP10 DUP5 PUSH1 0x0 ADD MLOAD DUP10 TIMESTAMP PUSH1 0x40 MLOAD PUSH2 0x10BD SWAP5 SWAP4 SWAP3 SWAP2 SWAP1 PUSH2 0x2B89 JUMP JUMPDEST PUSH1 0x40 MLOAD DUP1 SWAP2 SUB SWAP1 LOG3 POP POP POP POP POP POP POP JUMP JUMPDEST PUSH2 0x10D6 PUSH2 0x2050 JUMP JUMPDEST PUSH20 0xFFFFFFFFFFFFFFFFFFFFFFFFFFFFFFFFFFFFFFFF AND PUSH2 0x10F4 PUSH2 0x1169 JUMP JUMPDEST PUSH20 0xFFFFFFFFFFFFFFFFFFFFFFFFFFFFFFFFFFFFFFFF AND EQ PUSH2 0x114A JUMPI PUSH1 0x40 MLOAD PUSH32 0x8C379A000000000000000000000000000000000000000000000000000000000 DUP2 MSTORE PUSH1 0x4 ADD PUSH2 0x1141 SWAP1 PUSH2 0x2C2D JUMP JUMPDEST PUSH1 0x40 MLOAD DUP1 SWAP2 SUB SWAP1 REVERT JUMPDEST PUSH2 0x1154 PUSH1 0x0 PUSH2 0x2058 JUMP JUMPDEST JUMP JUMPDEST PUSH1 0x3 PUSH1 0x14 SWAP1 SLOAD SWAP1 PUSH2 0x100 EXP SWAP1 DIV PUSH1 0xFF AND DUP2 JUMP JUMPDEST PUSH1 0x0 PUSH1 0x4 PUSH1 0x0 SWAP1 SLOAD SWAP1 PUSH2 0x100 EXP SWAP1 DIV PUSH20 0xFFFFFFFFFFFFFFFFFFFFFFFFFFFFFFFFFFFFFFFF AND SWAP1 POP SWAP1 JUMP JUMPDEST PUSH2 0x119B PUSH2 0x2050 JUMP JUMPDEST PUSH20 0xFFFFFFFFFFFFFFFFFFFFFFFFFFFFFFFFFFFFFFFF AND PUSH2 0x11B9 PUSH2 0x1169 JUMP JUMPDEST PUSH20 0xFFFFFFFFFFFFFFFFFFFFFFFFFFFFFFFFFFFFFFFF AND EQ PUSH2 0x120F JUMPI PUSH1 0x40 MLOAD PUSH32 0x8C379A000000000000000000000000000000000000000000000000000000000 DUP2 MSTORE PUSH1 0x4 ADD PUSH2 0x1206 SWAP1 PUSH2 0x2C2D JUMP JUMPDEST PUSH1 0x40 MLOAD DUP1 SWAP2 SUB SWAP1 REVERT JUMPDEST DUP1 PUSH1 0x3 PUSH1 0x0 PUSH2 0x100 EXP DUP2 SLOAD DUP2 PUSH20 0xFFFFFFFFFFFFFFFFFFFFFFFFFFFFFFFFFFFFFFFF MUL NOT AND SWAP1 DUP4 PUSH20 0xFFFFFFFFFFFFFFFFFFFFFFFFFFFFFFFFFFFFFFFF AND MUL OR SWAP1 SSTORE POP POP JUMP JUMPDEST PUSH1 0x3 PUSH1 0x15 SWAP1 SLOAD SWAP1 PUSH2 0x100 EXP SWAP1 DIV PUSH1 0xFF AND DUP2 JUMP JUMPDEST PUSH1 0x2 PUSH1 0x0 SLOAD SUB PUSH2 0x12AB JUMPI PUSH1 0x40 MLOAD PUSH32 0x8C379A000000000000000000000000000000000000000000000000000000000 DUP2 MSTORE PUSH1 0x4 ADD PUSH2 0x12A2 SWAP1 PUSH2 0x2C99 JUMP JUMPDEST PUSH1 0x40 MLOAD DUP1 SWAP2 SUB SWAP1 REVERT JUMPDEST PUSH1 0x2 PUSH1 0x0 DUP2 SWAP1 SSTORE POP PUSH1 0x0 PUSH1 0x7 PUSH1 0x0 DUP4 DUP2 MSTORE PUSH1 0x20 ADD SWAP1 DUP2 MSTORE PUSH1 0x20 ADD PUSH1 0x0 KECCAK256 PUSH1 0x5 ADD SLOAD SWAP1 POP PUSH1 0x0 PUSH1 0x7 PUSH1 0x0 DUP5 DUP2 MSTORE PUSH1 0x20 ADD SWAP1 DUP2 MSTORE PUSH1 0x20 ADD PUSH1 0x0 KECCAK256 PUSH1 0x2 ADD SLOAD SWAP1 POP DUP2 CALLVALUE EQ PUSH2 0x132B JUMPI PUSH1 0x40 MLOAD PUSH32 0x8C379A000000000000000000000000000000000000000000000000000000000 DUP2 MSTORE PUSH1 0x4 ADD PUSH2 0x1322 SWAP1 PUSH2 0x2D2B JUMP JUMPDEST PUSH1 0x40 MLOAD DUP1 SWAP2 SUB SWAP1 REVERT JUMPDEST PUSH1 0x7 PUSH1 0x0 DUP5 DUP2 MSTORE PUSH1 0x20 ADD SWAP1 DUP2 MSTORE PUSH1 0x20 ADD PUSH1 0x0 KECCAK256 PUSH1 0x3 ADD PUSH1 0x0 SWAP1 SLOAD SWAP1 PUSH2 0x100 EXP SWAP1 DIV PUSH20 0xFFFFFFFFFFFFFFFFFFFFFFFFFFFFFFFFFFFFFFFF AND PUSH20 0xFFFFFFFFFFFFFFFFFFFFFFFFFFFFFFFFFFFFFFFF AND PUSH2 0x8FC CALLVALUE SWAP1 DUP2 ISZERO MUL SWAP1 PUSH1 0x40 MLOAD PUSH1 0x0 PUSH1 0x40 MLOAD DUP1 DUP4 SUB DUP2 DUP6 DUP9 DUP9 CALL SWAP4 POP POP POP POP ISZERO DUP1 ISZERO PUSH2 0x13A7 JUMPI RETURNDATASIZE PUSH1 0x0 DUP1 RETURNDATACOPY RETURNDATASIZE PUSH1 0x0 REVERT JUMPDEST POP DUP4 PUSH20 0xFFFFFFFFFFFFFFFFFFFFFFFFFFFFFFFFFFFFFFFF AND PUSH4 0x23B872DD ADDRESS CALLER DUP5 PUSH1 0x40 MLOAD DUP5 PUSH4 0xFFFFFFFF AND PUSH1 0xE0 SHL DUP2 MSTORE PUSH1 0x4 ADD PUSH2 0x13E5 SWAP4 SWAP3 SWAP2 SWAP1 PUSH2 0x2A9A JUMP JUMPDEST PUSH1 0x0 PUSH1 0x40 MLOAD DUP1 DUP4 SUB DUP2 PUSH1 0x0 DUP8 DUP1 EXTCODESIZE ISZERO DUP1 ISZERO PUSH2 0x13FF JUMPI PUSH1 0x0 DUP1 REVERT JUMPDEST POP GAS CALL ISZERO DUP1 ISZERO PUSH2 0x1413 JUMPI RETURNDATASIZE PUSH1 0x0 DUP1 RETURNDATACOPY RETURNDATASIZE PUSH1 0x0 REVERT JUMPDEST POP POP POP POP CALLER PUSH1 0x7 PUSH1 0x0 DUP6 DUP2 MSTORE PUSH1 0x20 ADD SWAP1 DUP2 MSTORE PUSH1 0x20 ADD PUSH1 0x0 KECCAK256 PUSH1 0x4 ADD PUSH1 0x0 PUSH2 0x100 EXP DUP2 SLOAD DUP2 PUSH20 0xFFFFFFFFFFFFFFFFFFFFFFFFFFFFFFFFFFFFFFFF MUL NOT AND SWAP1 DUP4 PUSH20 0xFFFFFFFFFFFFFFFFFFFFFFFFFFFFFFFFFFFFFFFF AND MUL OR SWAP1 SSTORE POP PUSH2 0x1476 PUSH1 0x6 PUSH2 0x1E64 JUMP JUMPDEST POP POP PUSH1 0x1 PUSH1 0x0 DUP2 SWAP1 SSTORE POP POP POP JUMP JUMPDEST PUSH2 0x148C PUSH2 0x2137 JUMP JUMPDEST PUSH1 0x7 PUSH1 0x0 DUP4 DUP2 MSTORE PUSH1 0x20 ADD SWAP1 DUP2 MSTORE PUSH1 0x20 ADD PUSH1 0x0 KECCAK256 PUSH1 0x40 MLOAD DUP1 PUSH1 0xC0 ADD PUSH1 0x40 MSTORE SWAP1 DUP2 PUSH1 0x0 DUP3 ADD SLOAD DUP2 MSTORE PUSH1 0x20 ADD PUSH1 0x1 DUP3 ADD PUSH1 0x0 SWAP1 SLOAD SWAP1 PUSH2 0x100 EXP SWAP1 DIV PUSH20 0xFFFFFFFFFFFFFFFFFFFFFFFFFFFFFFFFFFFFFFFF AND PUSH20 0xFFFFFFFFFFFFFFFFFFFFFFFFFFFFFFFFFFFFFFFF AND PUSH20 0xFFFFFFFFFFFFFFFFFFFFFFFFFFFFFFFFFFFFFFFF AND DUP2 MSTORE PUSH1 0x20 ADD PUSH1 0x2 DUP3 ADD SLOAD DUP2 MSTORE PUSH1 0x20 ADD PUSH1 0x3 DUP3 ADD PUSH1 0x0 SWAP1 SLOAD SWAP1 PUSH2 0x100 EXP SWAP1 DIV PUSH20 0xFFFFFFFFFFFFFFFFFFFFFFFFFFFFFFFFFFFFFFFF AND PUSH20 0xFFFFFFFFFFFFFFFFFFFFFFFFFFFFFFFFFFFFFFFF AND PUSH20 0xFFFFFFFFFFFFFFFFFFFFFFFFFFFFFFFFFFFFFFFF AND DUP2 MSTORE PUSH1 0x20 ADD PUSH1 0x4 DUP3 ADD PUSH1 0x0 SWAP1 SLOAD SWAP1 PUSH2 0x100 EXP SWAP1 DIV PUSH20 0xFFFFFFFFFFFFFFFFFFFFFFFFFFFFFFFFFFFFFFFF AND PUSH20 0xFFFFFFFFFFFFFFFFFFFFFFFFFFFFFFFFFFFFFFFF AND PUSH20 0xFFFFFFFFFFFFFFFFFFFFFFFFFFFFFFFFFFFFFFFF AND DUP2 MSTORE PUSH1 0x20 ADD PUSH1 0x5 DUP3 ADD SLOAD DUP2 MSTORE POP POP SWAP1 POP SWAP2 SWAP1 POP JUMP JUMPDEST PUSH2 0x15DA DUP4 PUSH2 0x1D53 JUMP JUMPDEST PUSH1 0x0 CALLER SWAP1 POP PUSH1 0x0 DUP5 SWAP1 POP PUSH1 0x0 PUSH1 0x1 PUSH1 0x0 DUP8 PUSH20 0xFFFFFFFFFFFFFFFFFFFFFFFFFFFFFFFFFFFFFFFF AND PUSH20 0xFFFFFFFFFFFFFFFFFFFFFFFFFFFFFFFFFFFFFFFF AND DUP2 MSTORE PUSH1 0x20 ADD SWAP1 DUP2 MSTORE PUSH1 0x20 ADD PUSH1 0x0 KECCAK256 PUSH1 0x0 DUP7 DUP2 MSTORE PUSH1 0x20 ADD SWAP1 DUP2 MSTORE PUSH1 0x20 ADD PUSH1 0x0 KECCAK256 PUSH1 0x40 MLOAD DUP1 PUSH1 0xC0 ADD PUSH1 0x40 MSTORE SWAP1 DUP2 PUSH1 0x0 DUP3 ADD SLOAD DUP2 MSTORE PUSH1 0x20 ADD PUSH1 0x1 DUP3 ADD PUSH1 0x0 SWAP1 SLOAD SWAP1 PUSH2 0x100 EXP SWAP1 DIV PUSH20 0xFFFFFFFFFFFFFFFFFFFFFFFFFFFFFFFFFFFFFFFF AND PUSH20 0xFFFFFFFFFFFFFFFFFFFFFFFFFFFFFFFFFFFFFFFF AND PUSH20 0xFFFFFFFFFFFFFFFFFFFFFFFFFFFFFFFFFFFFFFFF AND DUP2 MSTORE PUSH1 0x20 ADD PUSH1 0x2 DUP3 ADD PUSH1 0x0 SWAP1 SLOAD SWAP1 PUSH2 0x100 EXP SWAP1 DIV PUSH20 0xFFFFFFFFFFFFFFFFFFFFFFFFFFFFFFFFFFFFFFFF AND PUSH20 0xFFFFFFFFFFFFFFFFFFFFFFFFFFFFFFFFFFFFFFFF AND PUSH20 0xFFFFFFFFFFFFFFFFFFFFFFFFFFFFFFFFFFFFFFFF AND DUP2 MSTORE PUSH1 0x20 ADD PUSH1 0x3 DUP3 ADD SLOAD DUP2 MSTORE PUSH1 0x20 ADD PUSH1 0x4 DUP3 ADD SLOAD DUP2 MSTORE PUSH1 0x20 ADD PUSH1 0x5 DUP3 ADD PUSH1 0x0 SWAP1 SLOAD SWAP1 PUSH2 0x100 EXP SWAP1 DIV PUSH1 0xFF AND PUSH1 0x4 DUP2 GT ISZERO PUSH2 0x1730 JUMPI PUSH2 0x172F PUSH2 0x2659 JUMP JUMPDEST JUMPDEST PUSH1 0x4 DUP2 GT ISZERO PUSH2 0x1742 JUMPI PUSH2 0x1741 PUSH2 0x2659 JUMP JUMPDEST JUMPDEST DUP2 MSTORE POP POP SWAP1 POP PUSH1 0x0 DUP1 SHL DUP2 PUSH1 0x0 ADD MLOAD SUB PUSH2 0x1791 JUMPI PUSH1 0x40 MLOAD PUSH32 0x8C379A000000000000000000000000000000000000000000000000000000000 DUP2 MSTORE PUSH1 0x4 ADD PUSH2 0x1788 SWAP1 PUSH2 0x2D97 JUMP JUMPDEST PUSH1 0x40 MLOAD DUP1 SWAP2 SUB SWAP1 REVERT JUMPDEST PUSH1 0x1 PUSH1 0x4 DUP2 GT ISZERO PUSH2 0x17A5 JUMPI PUSH2 0x17A4 PUSH2 0x2659 JUMP JUMPDEST JUMPDEST DUP2 PUSH1 0xA0 ADD MLOAD PUSH1 0x4 DUP2 GT ISZERO PUSH2 0x17BC JUMPI PUSH2 0x17BB PUSH2 0x2659 JUMP JUMPDEST JUMPDEST EQ PUSH2 0x17FC JUMPI PUSH1 0x40 MLOAD PUSH32 0x8C379A000000000000000000000000000000000000000000000000000000000 DUP2 MSTORE PUSH1 0x4 ADD PUSH2 0x17F3 SWAP1 PUSH2 0x2E03 JUMP JUMPDEST PUSH1 0x40 MLOAD DUP1 SWAP2 SUB SWAP1 REVERT JUMPDEST PUSH1 0x0 DUP2 PUSH1 0x20 ADD MLOAD SWAP1 POP PUSH1 0x0 PUSH20 0xFFFFFFFFFFFFFFFFFFFFFFFFFFFFFFFFFFFFFFFF AND DUP2 PUSH20 0xFFFFFFFFFFFFFFFFFFFFFFFFFFFFFFFFFFFFFFFF AND SUB PUSH2 0x1874 JUMPI PUSH1 0x40 MLOAD PUSH32 0x8C379A000000000000000000000000000000000000000000000000000000000 DUP2 MSTORE PUSH1 0x4 ADD PUSH2 0x186B SWAP1 PUSH2 0x2E6F JUMP JUMPDEST PUSH1 0x40 MLOAD DUP1 SWAP2 SUB SWAP1 REVERT JUMPDEST DUP2 PUSH1 0x80 ADD MLOAD DUP6 LT ISZERO PUSH2 0x18BB JUMPI PUSH1 0x40 MLOAD PUSH32 0x8C379A000000000000000000000000000000000000000000000000000000000 DUP2 MSTORE PUSH1 0x4 ADD PUSH2 0x18B2 SWAP1 PUSH2 0x2EDB JUMP JUMPDEST PUSH1 0x40 MLOAD DUP1 SWAP2 SUB SWAP1 REVERT JUMPDEST PUSH1 0x0 PUSH1 0x64 DUP7 PUSH1 0x3 PUSH1 0x15 SWAP1 SLOAD SWAP1 PUSH2 0x100 EXP SWAP1 DIV PUSH1 0xFF AND PUSH1 0xFF AND PUSH2 0x18DD SWAP2 SWAP1 PUSH2 0x2EFB JUMP JUMPDEST PUSH2 0x18E7 SWAP2 SWAP1 PUSH2 0x2F84 JUMP JUMPDEST SWAP1 POP PUSH1 0x0 DUP2 DUP8 PUSH2 0x18F7 SWAP2 SWAP1 PUSH2 0x2FB5 JUMP JUMPDEST SWAP1 POP PUSH1 0x3 PUSH1 0x0 SWAP1 SLOAD SWAP1 PUSH2 0x100 EXP SWAP1 DIV PUSH20 0xFFFFFFFFFFFFFFFFFFFFFFFFFFFFFFFFFFFFFFFF AND PUSH20 0xFFFFFFFFFFFFFFFFFFFFFFFFFFFFFFFFFFFFFFFF AND PUSH4 0x23B872DD DUP8 ADDRESS DUP6 PUSH1 0x40 MLOAD DUP5 PUSH4 0xFFFFFFFF AND PUSH1 0xE0 SHL DUP2 MSTORE PUSH1 0x4 ADD PUSH2 0x1958 SWAP4 SWAP3 SWAP2 SWAP1 PUSH2 0x2A9A JUMP JUMPDEST PUSH1 0x20 PUSH1 0x40 MLOAD DUP1 DUP4 SUB DUP2 PUSH1 0x0 DUP8 GAS CALL ISZERO DUP1 ISZERO PUSH2 0x1977 JUMPI RETURNDATASIZE PUSH1 0x0 DUP1 RETURNDATACOPY RETURNDATASIZE PUSH1 0x0 REVERT JUMPDEST POP POP POP POP PUSH1 0x40 MLOAD RETURNDATASIZE PUSH1 0x1F NOT PUSH1 0x1F DUP3 ADD AND DUP3 ADD DUP1 PUSH1 0x40 MSTORE POP DUP2 ADD SWAP1 PUSH2 0x199B SWAP2 SWAP1 PUSH2 0x3021 JUMP JUMPDEST POP PUSH1 0x3 PUSH1 0x0 SWAP1 SLOAD SWAP1 PUSH2 0x100 EXP SWAP1 DIV PUSH20 0xFFFFFFFFFFFFFFFFFFFFFFFFFFFFFFFFFFFFFFFF AND PUSH20 0xFFFFFFFFFFFFFFFFFFFFFFFFFFFFFFFFFFFFFFFF AND PUSH4 0x23B872DD DUP8 DUP6 DUP5 PUSH1 0x40 MLOAD DUP5 PUSH4 0xFFFFFFFF AND PUSH1 0xE0 SHL DUP2 MSTORE PUSH1 0x4 ADD PUSH2 0x19FB SWAP4 SWAP3 SWAP2 SWAP1 PUSH2 0x2A9A JUMP JUMPDEST PUSH1 0x20 PUSH1 0x40 MLOAD DUP1 DUP4 SUB DUP2 PUSH1 0x0 DUP8 GAS CALL ISZERO DUP1 ISZERO PUSH2 0x1A1A JUMPI RETURNDATASIZE PUSH1 0x0 DUP1 RETURNDATACOPY RETURNDATASIZE PUSH1 0x0 REVERT JUMPDEST POP POP POP POP PUSH1 0x40 MLOAD RETURNDATASIZE PUSH1 0x1F NOT PUSH1 0x1F DUP3 ADD AND DUP3 ADD DUP1 PUSH1 0x40 MSTORE POP DUP2 ADD SWAP1 PUSH2 0x1A3E SWAP2 SWAP1 PUSH2 0x3021 JUMP JUMPDEST POP DUP5 PUSH20 0xFFFFFFFFFFFFFFFFFFFFFFFFFFFFFFFFFFFFFFFF AND PUSH4 0x42842E0E ADDRESS DUP9 DUP12 PUSH1 0x40 MLOAD DUP5 PUSH4 0xFFFFFFFF AND PUSH1 0xE0 SHL DUP2 MSTORE PUSH1 0x4 ADD PUSH2 0x1A7C SWAP4 SWAP3 SWAP2 SWAP1 PUSH2 0x2A9A JUMP JUMPDEST PUSH1 0x0 PUSH1 0x40 MLOAD DUP1 DUP4 SUB DUP2 PUSH1 0x0 DUP8 DUP1 EXTCODESIZE ISZERO DUP1 ISZERO PUSH2 0x1A96 JUMPI PUSH1 0x0 DUP1 REVERT JUMPDEST POP GAS CALL ISZERO DUP1 ISZERO PUSH2 0x1AAA JUMPI RETURNDATASIZE PUSH1 0x0 DUP1 RETURNDATACOPY RETURNDATASIZE PUSH1 0x0 REVERT JUMPDEST POP POP POP POP DUP6 PUSH1 0x1 PUSH1 0x0 DUP12 PUSH20 0xFFFFFFFFFFFFFFFFFFFFFFFFFFFFFFFFFFFFFFFF AND PUSH20 0xFFFFFFFFFFFFFFFFFFFFFFFFFFFFFFFFFFFFFFFF AND DUP2 MSTORE PUSH1 0x20 ADD SWAP1 DUP2 MSTORE PUSH1 0x20 ADD PUSH1 0x0 KECCAK256 PUSH1 0x0 DUP11 DUP2 MSTORE PUSH1 0x20 ADD SWAP1 DUP2 MSTORE PUSH1 0x20 ADD PUSH1 0x0 KECCAK256 PUSH1 0x1 ADD PUSH1 0x0 PUSH2 0x100 EXP DUP2 SLOAD DUP2 PUSH20 0xFFFFFFFFFFFFFFFFFFFFFFFFFFFFFFFFFFFFFFFF MUL NOT AND SWAP1 DUP4 PUSH20 0xFFFFFFFFFFFFFFFFFFFFFFFFFFFFFFFFFFFFFFFF AND MUL OR SWAP1 SSTORE POP PUSH1 0x2 PUSH1 0x1 PUSH1 0x0 DUP12 PUSH20 0xFFFFFFFFFFFFFFFFFFFFFFFFFFFFFFFFFFFFFFFF AND PUSH20 0xFFFFFFFFFFFFFFFFFFFFFFFFFFFFFFFFFFFFFFFF AND DUP2 MSTORE PUSH1 0x20 ADD SWAP1 DUP2 MSTORE PUSH1 0x20 ADD PUSH1 0x0 KECCAK256 PUSH1 0x0 DUP11 DUP2 MSTORE PUSH1 0x20 ADD SWAP1 DUP2 MSTORE PUSH1 0x20 ADD PUSH1 0x0 KECCAK256 PUSH1 0x5 ADD PUSH1 0x0 PUSH2 0x100 EXP DUP2 SLOAD DUP2 PUSH1 0xFF MUL NOT AND SWAP1 DUP4 PUSH1 0x4 DUP2 GT ISZERO PUSH2 0x1BB7 JUMPI PUSH2 0x1BB6 PUSH2 0x2659 JUMP JUMPDEST JUMPDEST MUL OR SWAP1 SSTORE POP DUP6 PUSH20 0xFFFFFFFFFFFFFFFFFFFFFFFFFFFFFFFFFFFFFFFF AND DUP4 PUSH20 0xFFFFFFFFFFFFFFFFFFFFFFFFFFFFFFFFFFFFFFFF AND DUP10 PUSH32 0x30247E11BBB597DFEFD2A3124026F1EF8987A4D6BA46E3629F80BAC1B0C9FAEE DUP8 PUSH1 0x0 ADD MLOAD DUP14 DUP10 PUSH1 0x80 ADD MLOAD PUSH1 0x3 PUSH1 0x15 SWAP1 SLOAD SWAP1 PUSH2 0x100 EXP SWAP1 DIV PUSH1 0xFF AND DUP10 TIMESTAMP PUSH1 0x40 MLOAD PUSH2 0x1C3B SWAP7 SWAP6 SWAP5 SWAP4 SWAP3 SWAP2 SWAP1 PUSH2 0x309A JUMP JUMPDEST PUSH1 0x40 MLOAD DUP1 SWAP2 SUB SWAP1 LOG4 POP POP POP POP POP POP POP POP POP JUMP JUMPDEST PUSH2 0x1C56 PUSH2 0x2050 JUMP JUMPDEST PUSH20 0xFFFFFFFFFFFFFFFFFFFFFFFFFFFFFFFFFFFFFFFF AND PUSH2 0x1C74 PUSH2 0x1169 JUMP JUMPDEST PUSH20 0xFFFFFFFFFFFFFFFFFFFFFFFFFFFFFFFFFFFFFFFF AND EQ PUSH2 0x1CCA JUMPI PUSH1 0x40 MLOAD PUSH32 0x8C379A000000000000000000000000000000000000000000000000000000000 DUP2 MSTORE PUSH1 0x4 ADD PUSH2 0x1CC1 SWAP1 PUSH2 0x2C2D JUMP JUMPDEST PUSH1 0x40 MLOAD DUP1 SWAP2 SUB SWAP1 REVERT JUMPDEST PUSH1 0x0 PUSH20 0xFFFFFFFFFFFFFFFFFFFFFFFFFFFFFFFFFFFFFFFF AND DUP2 PUSH20 0xFFFFFFFFFFFFFFFFFFFFFFFFFFFFFFFFFFFFFFFF AND SUB PUSH2 0x1D39 JUMPI PUSH1 0x40 MLOAD PUSH32 0x8C379A000000000000000000000000000000000000000000000000000000000 DUP2 MSTORE PUSH1 0x4 ADD PUSH2 0x1D30 SWAP1 PUSH2 0x3180 JUMP JUMPDEST PUSH1 0x40 MLOAD DUP1 SWAP2 SUB SWAP1 REVERT JUMPDEST PUSH2 0x1D42 DUP2 PUSH2 0x2058 JUMP JUMPDEST POP JUMP JUMPDEST PUSH1 0x0 DUP2 PUSH1 0x0 ADD SLOAD SWAP1 POP SWAP2 SWAP1 POP JUMP JUMPDEST PUSH2 0x1D5C DUP2 PUSH2 0x211E JUMP JUMPDEST PUSH2 0x1D9B JUMPI PUSH1 0x40 MLOAD PUSH32 0x8C379A000000000000000000000000000000000000000000000000000000000 DUP2 MSTORE PUSH1 0x4 ADD PUSH2 0x1D92 SWAP1 PUSH2 0x3212 JUMP JUMPDEST PUSH1 0x40 MLOAD DUP1 SWAP2 SUB SWAP1 REVERT JUMPDEST PUSH1 0x0 DUP2 SWAP1 POP DUP1 PUSH20 0xFFFFFFFFFFFFFFFFFFFFFFFFFFFFFFFFFFFFFFFF AND PUSH4 0x1FFC9A7 PUSH4 0x80AC58CD PUSH1 0xE0 SHL PUSH1 0x40 MLOAD DUP3 PUSH4 0xFFFFFFFF AND PUSH1 0xE0 SHL DUP2 MSTORE PUSH1 0x4 ADD PUSH2 0x1DE0 SWAP2 SWAP1 PUSH2 0x251F JUMP JUMPDEST PUSH1 0x20 PUSH1 0x40 MLOAD DUP1 DUP4 SUB DUP2 DUP7 GAS STATICCALL ISZERO DUP1 ISZERO PUSH2 0x1DFD JUMPI RETURNDATASIZE PUSH1 0x0 DUP1 RETURNDATACOPY RETURNDATASIZE PUSH1 0x0 REVERT JUMPDEST POP POP POP POP PUSH1 0x40 MLOAD RETURNDATASIZE PUSH1 0x1F NOT PUSH1 0x1F DUP3 ADD AND DUP3 ADD DUP1 PUSH1 0x40 MSTORE POP DUP2 ADD SWAP1 PUSH2 0x1E21 SWAP2 SWAP1 PUSH2 0x3021 JUMP JUMPDEST PUSH2 0x1E60 JUMPI PUSH1 0x40 MLOAD PUSH32 0x8C379A000000000000000000000000000000000000000000000000000000000 DUP2 MSTORE PUSH1 0x4 ADD PUSH2 0x1E57 SWAP1 PUSH2 0x32A4 JUMP JUMPDEST PUSH1 0x40 MLOAD DUP1 SWAP2 SUB SWAP1 REVERT JUMPDEST POP POP JUMP JUMPDEST PUSH1 0x1 DUP2 PUSH1 0x0 ADD PUSH1 0x0 DUP3 DUP3 SLOAD ADD SWAP3 POP POP DUP2 SWAP1 SSTORE POP POP JUMP JUMPDEST PUSH1 0x0 TIMESTAMP DUP7 DUP7 DUP7 DUP7 PUSH1 0x40 MLOAD PUSH1 0x20 ADD PUSH2 0x1E95 SWAP6 SWAP5 SWAP4 SWAP3 SWAP2 SWAP1 PUSH2 0x332D JUMP JUMPDEST PUSH1 0x40 MLOAD PUSH1 0x20 DUP2 DUP4 SUB SUB DUP2 MSTORE SWAP1 PUSH1 0x40 MSTORE DUP1 MLOAD SWAP1 PUSH1 0x20 ADD KECCAK256 SWAP1 POP PUSH1 0x40 MLOAD DUP1 PUSH1 0xC0 ADD PUSH1 0x40 MSTORE DUP1 DUP3 DUP2 MSTORE PUSH1 0x20 ADD DUP8 PUSH20 0xFFFFFFFFFFFFFFFFFFFFFFFFFFFFFFFFFFFFFFFF AND DUP2 MSTORE PUSH1 0x20 ADD DUP6 PUSH20 0xFFFFFFFFFFFFFFFFFFFFFFFFFFFFFFFFFFFFFFFF AND DUP2 MSTORE PUSH1 0x20 ADD DUP5 DUP2 MSTORE PUSH1 0x20 ADD DUP4 DUP2 MSTORE PUSH1 0x20 ADD PUSH1 0x1 PUSH1 0x4 DUP2 GT ISZERO PUSH2 0x1F16 JUMPI PUSH2 0x1F15 PUSH2 0x2659 JUMP JUMPDEST JUMPDEST DUP2 MSTORE POP PUSH1 0x1 PUSH1 0x0 DUP7 PUSH20 0xFFFFFFFFFFFFFFFFFFFFFFFFFFFFFFFFFFFFFFFF AND PUSH20 0xFFFFFFFFFFFFFFFFFFFFFFFFFFFFFFFFFFFFFFFF AND DUP2 MSTORE PUSH1 0x20 ADD SWAP1 DUP2 MSTORE PUSH1 0x20 ADD PUSH1 0x0 KECCAK256 PUSH1 0x0 DUP8 DUP2 MSTORE PUSH1 0x20 ADD SWAP1 DUP2 MSTORE PUSH1 0x20 ADD PUSH1 0x0 KECCAK256 PUSH1 0x0 DUP3 ADD MLOAD DUP2 PUSH1 0x0 ADD SSTORE PUSH1 0x20 DUP3 ADD MLOAD DUP2 PUSH1 0x1 ADD PUSH1 0x0 PUSH2 0x100 EXP DUP2 SLOAD DUP2 PUSH20 0xFFFFFFFFFFFFFFFFFFFFFFFFFFFFFFFFFFFFFFFF MUL NOT AND SWAP1 DUP4 PUSH20 0xFFFFFFFFFFFFFFFFFFFFFFFFFFFFFFFFFFFFFFFF AND MUL OR SWAP1 SSTORE POP PUSH1 0x40 DUP3 ADD MLOAD DUP2 PUSH1 0x2 ADD PUSH1 0x0 PUSH2 0x100 EXP DUP2 SLOAD DUP2 PUSH20 0xFFFFFFFFFFFFFFFFFFFFFFFFFFFFFFFFFFFFFFFF MUL NOT AND SWAP1 DUP4 PUSH20 0xFFFFFFFFFFFFFFFFFFFFFFFFFFFFFFFFFFFFFFFF AND MUL OR SWAP1 SSTORE POP PUSH1 0x60 DUP3 ADD MLOAD DUP2 PUSH1 0x3 ADD SSTORE PUSH1 0x80 DUP3 ADD MLOAD DUP2 PUSH1 0x4 ADD SSTORE PUSH1 0xA0 DUP3 ADD MLOAD DUP2 PUSH1 0x5 ADD PUSH1 0x0 PUSH2 0x100 EXP DUP2 SLOAD DUP2 PUSH1 0xFF MUL NOT AND SWAP1 DUP4 PUSH1 0x4 DUP2 GT ISZERO PUSH2 0x2040 JUMPI PUSH2 0x203F PUSH2 0x2659 JUMP JUMPDEST JUMPDEST MUL OR SWAP1 SSTORE POP SWAP1 POP POP POP POP POP POP POP POP JUMP JUMPDEST PUSH1 0x0 CALLER SWAP1 POP SWAP1 JUMP JUMPDEST PUSH1 0x0 PUSH1 0x4 PUSH1 0x0 SWAP1 SLOAD SWAP1 PUSH2 0x100 EXP SWAP1 DIV PUSH20 0xFFFFFFFFFFFFFFFFFFFFFFFFFFFFFFFFFFFFFFFF AND SWAP1 POP DUP2 PUSH1 0x4 PUSH1 0x0 PUSH2 0x100 EXP DUP2 SLOAD DUP2 PUSH20 0xFFFFFFFFFFFFFFFFFFFFFFFFFFFFFFFFFFFFFFFF MUL NOT AND SWAP1 DUP4 PUSH20 0xFFFFFFFFFFFFFFFFFFFFFFFFFFFFFFFFFFFFFFFF AND MUL OR SWAP1 SSTORE POP DUP2 PUSH20 0xFFFFFFFFFFFFFFFFFFFFFFFFFFFFFFFFFFFFFFFF AND DUP2 PUSH20 0xFFFFFFFFFFFFFFFFFFFFFFFFFFFFFFFFFFFFFFFF AND PUSH32 0x8BE0079C531659141344CD1FD0A4F28419497F9722A3DAAFE3B4186F6B6457E0 PUSH1 0x40 MLOAD PUSH1 0x40 MLOAD DUP1 SWAP2 SUB SWAP1 LOG3 POP POP JUMP JUMPDEST PUSH1 0x0 DUP1 DUP3 EXTCODESIZE SWAP1 POP PUSH1 0x0 DUP2 PUSH4 0xFFFFFFFF AND GT SWAP2 POP POP SWAP2 SWAP1 POP JUMP JUMPDEST PUSH1 0x40 MLOAD DUP1 PUSH1 0xC0 ADD PUSH1 0x40 MSTORE DUP1 PUSH1 0x0 DUP2 MSTORE PUSH1 0x20 ADD PUSH1 0x0 PUSH20 0xFFFFFFFFFFFFFFFFFFFFFFFFFFFFFFFFFFFFFFFF AND DUP2 MSTORE PUSH1 0x20 ADD PUSH1 0x0 DUP2 MSTORE PUSH1 0x20 ADD PUSH1 0x0 PUSH20 0xFFFFFFFFFFFFFFFFFFFFFFFFFFFFFFFFFFFFFFFF AND DUP2 MSTORE PUSH1 0x20 ADD PUSH1 0x0 PUSH20 0xFFFFFFFFFFFFFFFFFFFFFFFFFFFFFFFFFFFFFFFF AND DUP2 MSTORE PUSH1 0x20 ADD PUSH1 0x0 DUP2 MSTORE POP SWAP1 JUMP JUMPDEST PUSH1 0x0 PUSH20 0xFFFFFFFFFFFFFFFFFFFFFFFFFFFFFFFFFFFFFFFF DUP3 AND SWAP1 POP SWAP2 SWAP1 POP JUMP JUMPDEST PUSH1 0x0 DUP2 SWAP1 POP SWAP2 SWAP1 POP JUMP JUMPDEST PUSH1 0x0 PUSH2 0x21F4 PUSH2 0x21EF PUSH2 0x21EA DUP5 PUSH2 0x21AF JUMP JUMPDEST PUSH2 0x21CF JUMP JUMPDEST PUSH2 0x21AF JUMP JUMPDEST SWAP1 POP SWAP2 SWAP1 POP JUMP JUMPDEST PUSH1 0x0 PUSH2 0x2206 DUP3 PUSH2 0x21D9 JUMP JUMPDEST SWAP1 POP SWAP2 SWAP1 POP JUMP JUMPDEST PUSH1 0x0 PUSH2 0x2218 DUP3 PUSH2 0x21FB JUMP JUMPDEST SWAP1 POP SWAP2 SWAP1 POP JUMP JUMPDEST PUSH2 0x2228 DUP2 PUSH2 0x220D JUMP JUMPDEST DUP3 MSTORE POP POP JUMP JUMPDEST PUSH1 0x0 PUSH1 0x20 DUP3 ADD SWAP1 POP PUSH2 0x2243 PUSH1 0x0 DUP4 ADD DUP5 PUSH2 0x221F JUMP JUMPDEST SWAP3 SWAP2 POP POP JUMP JUMPDEST PUSH1 0x0 DUP2 MLOAD SWAP1 POP SWAP2 SWAP1 POP JUMP JUMPDEST PUSH1 0x0 DUP3 DUP3 MSTORE PUSH1 0x20 DUP3 ADD SWAP1 POP SWAP3 SWAP2 POP POP JUMP JUMPDEST PUSH1 0x0 DUP2 SWAP1 POP PUSH1 0x20 DUP3 ADD SWAP1 POP SWAP2 SWAP1 POP JUMP JUMPDEST PUSH1 0x0 DUP2 SWAP1 POP SWAP2 SWAP1 POP JUMP JUMPDEST PUSH2 0x2288 DUP2 PUSH2 0x2275 JUMP JUMPDEST DUP3 MSTORE POP POP JUMP JUMPDEST PUSH1 0x0 PUSH2 0x2299 DUP3 PUSH2 0x21AF JUMP JUMPDEST SWAP1 POP SWAP2 SWAP1 POP JUMP JUMPDEST PUSH2 0x22A9 DUP2 PUSH2 0x228E JUMP JUMPDEST DUP3 MSTORE POP POP JUMP JUMPDEST PUSH1 0x0 PUSH2 0x22BA DUP3 PUSH2 0x21AF JUMP JUMPDEST SWAP1 POP SWAP2 SWAP1 POP JUMP JUMPDEST PUSH2 0x22CA DUP2 PUSH2 0x22AF JUMP JUMPDEST DUP3 MSTORE POP POP JUMP JUMPDEST PUSH1 0xC0 DUP3 ADD PUSH1 0x0 DUP3 ADD MLOAD PUSH2 0x22E6 PUSH1 0x0 DUP6 ADD DUP3 PUSH2 0x227F JUMP JUMPDEST POP PUSH1 0x20 DUP3 ADD MLOAD PUSH2 0x22F9 PUSH1 0x20 DUP6 ADD DUP3 PUSH2 0x22A0 JUMP JUMPDEST POP PUSH1 0x40 DUP3 ADD MLOAD PUSH2 0x230C PUSH1 0x40 DUP6 ADD DUP3 PUSH2 0x227F JUMP JUMPDEST POP PUSH1 0x60 DUP3 ADD MLOAD PUSH2 0x231F PUSH1 0x60 DUP6 ADD DUP3 PUSH2 0x22C1 JUMP JUMPDEST POP PUSH1 0x80 DUP3 ADD MLOAD PUSH2 0x2332 PUSH1 0x80 DUP6 ADD DUP3 PUSH2 0x22C1 JUMP JUMPDEST POP PUSH1 0xA0 DUP3 ADD MLOAD PUSH2 0x2345 PUSH1 0xA0 DUP6 ADD DUP3 PUSH2 0x227F JUMP JUMPDEST POP POP POP POP JUMP JUMPDEST PUSH1 0x0 PUSH2 0x2357 DUP4 DUP4 PUSH2 0x22D0 JUMP JUMPDEST PUSH1 0xC0 DUP4 ADD SWAP1 POP SWAP3 SWAP2 POP POP JUMP JUMPDEST PUSH1 0x0 PUSH1 0x20 DUP3 ADD SWAP1 POP SWAP2 SWAP1 POP JUMP JUMPDEST PUSH1 0x0 PUSH2 0x237B DUP3 PUSH2 0x2249 JUMP JUMPDEST PUSH2 0x2385 DUP2 DUP6 PUSH2 0x2254 JUMP JUMPDEST SWAP4 POP PUSH2 0x2390 DUP4 PUSH2 0x2265 JUMP JUMPDEST DUP1 PUSH1 0x0 JUMPDEST DUP4 DUP2 LT ISZERO PUSH2 0x23C1 JUMPI DUP2 MLOAD PUSH2 0x23A8 DUP9 DUP3 PUSH2 0x234B JUMP JUMPDEST SWAP8 POP PUSH2 0x23B3 DUP4 PUSH2 0x2363 JUMP JUMPDEST SWAP3 POP POP PUSH1 0x1 DUP2 ADD SWAP1 POP PUSH2 0x2394 JUMP JUMPDEST POP DUP6 SWAP4 POP POP POP POP SWAP3 SWAP2 POP POP JUMP JUMPDEST PUSH1 0x0 PUSH1 0x20 DUP3 ADD SWAP1 POP DUP2 DUP2 SUB PUSH1 0x0 DUP4 ADD MSTORE PUSH2 0x23E8 DUP2 DUP5 PUSH2 0x2370 JUMP JUMPDEST SWAP1 POP SWAP3 SWAP2 POP POP JUMP JUMPDEST PUSH1 0x0 DUP1 REVERT JUMPDEST PUSH2 0x23FE DUP2 PUSH2 0x2275 JUMP JUMPDEST DUP2 EQ PUSH2 0x2409 JUMPI PUSH1 0x0 DUP1 REVERT JUMPDEST POP JUMP JUMPDEST PUSH1 0x0 DUP2 CALLDATALOAD SWAP1 POP PUSH2 0x241B DUP2 PUSH2 0x23F5 JUMP JUMPDEST SWAP3 SWAP2 POP POP JUMP JUMPDEST PUSH1 0x0 PUSH1 0x20 DUP3 DUP5 SUB SLT ISZERO PUSH2 0x2437 JUMPI PUSH2 0x2436 PUSH2 0x23F0 JUMP JUMPDEST JUMPDEST PUSH1 0x0 PUSH2 0x2445 DUP5 DUP3 DUP6 ADD PUSH2 0x240C JUMP JUMPDEST SWAP2 POP POP SWAP3 SWAP2 POP POP JUMP JUMPDEST PUSH1 0xC0 DUP3 ADD PUSH1 0x0 DUP3 ADD MLOAD PUSH2 0x2464 PUSH1 0x0 DUP6 ADD DUP3 PUSH2 0x227F JUMP JUMPDEST POP PUSH1 0x20 DUP3 ADD MLOAD PUSH2 0x2477 PUSH1 0x20 DUP6 ADD DUP3 PUSH2 0x22A0 JUMP JUMPDEST POP PUSH1 0x40 DUP3 ADD MLOAD PUSH2 0x248A PUSH1 0x40 DUP6 ADD DUP3 PUSH2 0x227F JUMP JUMPDEST POP PUSH1 0x60 DUP3 ADD MLOAD PUSH2 0x249D PUSH1 0x60 DUP6 ADD DUP3 PUSH2 0x22C1 JUMP JUMPDEST POP PUSH1 0x80 DUP3 ADD MLOAD PUSH2 0x24B0 PUSH1 0x80 DUP6 ADD DUP3 PUSH2 0x22C1 JUMP JUMPDEST POP PUSH1 0xA0 DUP3 ADD MLOAD PUSH2 0x24C3 PUSH1 0xA0 DUP6 ADD DUP3 PUSH2 0x227F JUMP JUMPDEST POP POP POP POP JUMP JUMPDEST PUSH1 0x0 PUSH1 0xC0 DUP3 ADD SWAP1 POP PUSH2 0x24DE PUSH1 0x0 DUP4 ADD DUP5 PUSH2 0x244E JUMP JUMPDEST SWAP3 SWAP2 POP POP JUMP JUMPDEST PUSH1 0x0 PUSH32 0xFFFFFFFF00000000000000000000000000000000000000000000000000000000 DUP3 AND SWAP1 POP SWAP2 SWAP1 POP JUMP JUMPDEST PUSH2 0x2519 DUP2 PUSH2 0x24E4 JUMP JUMPDEST DUP3 MSTORE POP POP JUMP JUMPDEST PUSH1 0x0 PUSH1 0x20 DUP3 ADD SWAP1 POP PUSH2 0x2534 PUSH1 0x0 DUP4 ADD DUP5 PUSH2 0x2510 JUMP JUMPDEST SWAP3 SWAP2 POP POP JUMP JUMPDEST PUSH2 0x2543 DUP2 PUSH2 0x228E JUMP JUMPDEST DUP2 EQ PUSH2 0x254E JUMPI PUSH1 0x0 DUP1 REVERT JUMPDEST POP JUMP JUMPDEST PUSH1 0x0 DUP2 CALLDATALOAD SWAP1 POP PUSH2 0x2560 DUP2 PUSH2 0x253A JUMP JUMPDEST SWAP3 SWAP2 POP POP JUMP JUMPDEST PUSH1 0x0 DUP1 PUSH1 0x0 PUSH1 0x60 DUP5 DUP7 SUB SLT ISZERO PUSH2 0x257F JUMPI PUSH2 0x257E PUSH2 0x23F0 JUMP JUMPDEST JUMPDEST PUSH1 0x0 PUSH2 0x258D DUP7 DUP3 DUP8 ADD PUSH2 0x2551 JUMP JUMPDEST SWAP4 POP POP PUSH1 0x20 PUSH2 0x259E DUP7 DUP3 DUP8 ADD PUSH2 0x240C JUMP JUMPDEST SWAP3 POP POP PUSH1 0x40 PUSH2 0x25AF DUP7 DUP3 DUP8 ADD PUSH2 0x2551 JUMP JUMPDEST SWAP2 POP POP SWAP3 POP SWAP3 POP SWAP3 JUMP JUMPDEST PUSH1 0x0 DUP2 SWAP1 POP SWAP2 SWAP1 POP JUMP JUMPDEST PUSH2 0x25CC DUP2 PUSH2 0x25B9 JUMP JUMPDEST DUP3 MSTORE POP POP JUMP JUMPDEST PUSH2 0x25DB DUP2 PUSH2 0x2275 JUMP JUMPDEST DUP3 MSTORE POP POP JUMP JUMPDEST PUSH1 0x0 PUSH1 0x40 DUP3 ADD SWAP1 POP PUSH2 0x25F6 PUSH1 0x0 DUP4 ADD DUP6 PUSH2 0x25C3 JUMP JUMPDEST PUSH2 0x2603 PUSH1 0x20 DUP4 ADD DUP5 PUSH2 0x25D2 JUMP JUMPDEST SWAP4 SWAP3 POP POP POP JUMP JUMPDEST PUSH1 0x0 DUP1 PUSH1 0x40 DUP4 DUP6 SUB SLT ISZERO PUSH2 0x2621 JUMPI PUSH2 0x2620 PUSH2 0x23F0 JUMP JUMPDEST JUMPDEST PUSH1 0x0 PUSH2 0x262F DUP6 DUP3 DUP7 ADD PUSH2 0x2551 JUMP JUMPDEST SWAP3 POP POP PUSH1 0x20 PUSH2 0x2640 DUP6 DUP3 DUP7 ADD PUSH2 0x240C JUMP JUMPDEST SWAP2 POP POP SWAP3 POP SWAP3 SWAP1 POP JUMP JUMPDEST PUSH2 0x2653 DUP2 PUSH2 0x228E JUMP JUMPDEST DUP3 MSTORE POP POP JUMP JUMPDEST PUSH32 0x4E487B7100000000000000000000000000000000000000000000000000000000 PUSH1 0x0 MSTORE PUSH1 0x21 PUSH1 0x4 MSTORE PUSH1 0x24 PUSH1 0x0 REVERT JUMPDEST PUSH1 0x5 DUP2 LT PUSH2 0x2699 JUMPI PUSH2 0x2698 PUSH2 0x2659 JUMP JUMPDEST JUMPDEST POP JUMP JUMPDEST PUSH1 0x0 DUP2 SWAP1 POP PUSH2 0x26AA DUP3 PUSH2 0x2688 JUMP JUMPDEST SWAP2 SWAP1 POP JUMP JUMPDEST PUSH1 0x0 PUSH2 0x26BA DUP3 PUSH2 0x269C JUMP JUMPDEST SWAP1 POP SWAP2 SWAP1 POP JUMP JUMPDEST PUSH2 0x26CA DUP2 PUSH2 0x26AF JUMP JUMPDEST DUP3 MSTORE POP POP JUMP JUMPDEST PUSH1 0x0 PUSH1 0xC0 DUP3 ADD SWAP1 POP PUSH2 0x26E5 PUSH1 0x0 DUP4 ADD DUP10 PUSH2 0x25C3 JUMP JUMPDEST PUSH2 0x26F2 PUSH1 0x20 DUP4 ADD DUP9 PUSH2 0x264A JUMP JUMPDEST PUSH2 0x26FF PUSH1 0x40 DUP4 ADD DUP8 PUSH2 0x264A JUMP JUMPDEST PUSH2 0x270C PUSH1 0x60 DUP4 ADD DUP7 PUSH2 0x25D2 JUMP JUMPDEST PUSH2 0x2719 PUSH1 0x80 DUP4 ADD DUP6 PUSH2 0x25D2 JUMP JUMPDEST PUSH2 0x2726 PUSH1 0xA0 DUP4 ADD DUP5 PUSH2 0x26C1 JUMP JUMPDEST SWAP8 SWAP7 POP POP POP POP POP POP POP JUMP JUMPDEST PUSH1 0x0 DUP1 PUSH1 0x0 PUSH1 0x60 DUP5 DUP7 SUB SLT ISZERO PUSH2 0x274A JUMPI PUSH2 0x2749 PUSH2 0x23F0 JUMP JUMPDEST JUMPDEST PUSH1 0x0 PUSH2 0x2758 DUP7 DUP3 DUP8 ADD PUSH2 0x2551 JUMP JUMPDEST SWAP4 POP POP PUSH1 0x20 PUSH2 0x2769 DUP7 DUP3 DUP8 ADD PUSH2 0x240C JUMP JUMPDEST SWAP3 POP POP PUSH1 0x40 PUSH2 0x277A DUP7 DUP3 DUP8 ADD PUSH2 0x240C JUMP JUMPDEST SWAP2 POP POP SWAP3 POP SWAP3 POP SWAP3 JUMP JUMPDEST PUSH1 0x0 PUSH1 0xFF DUP3 AND SWAP1 POP SWAP2 SWAP1 POP JUMP JUMPDEST PUSH2 0x279A DUP2 PUSH2 0x2784 JUMP JUMPDEST DUP3 MSTORE POP POP JUMP JUMPDEST PUSH1 0x0 PUSH1 0x20 DUP3 ADD SWAP1 POP PUSH2 0x27B5 PUSH1 0x0 DUP4 ADD DUP5 PUSH2 0x2791 JUMP JUMPDEST SWAP3 SWAP2 POP POP JUMP JUMPDEST PUSH1 0x0 PUSH1 0x20 DUP3 ADD SWAP1 POP PUSH2 0x27D0 PUSH1 0x0 DUP4 ADD DUP5 PUSH2 0x264A JUMP JUMPDEST SWAP3 SWAP2 POP POP JUMP JUMPDEST PUSH1 0x0 PUSH1 0x20 DUP3 DUP5 SUB SLT ISZERO PUSH2 0x27EC JUMPI PUSH2 0x27EB PUSH2 0x23F0 JUMP JUMPDEST JUMPDEST PUSH1 0x0 PUSH2 0x27FA DUP5 DUP3 DUP6 ADD PUSH2 0x2551 JUMP JUMPDEST SWAP2 POP POP SWAP3 SWAP2 POP POP JUMP JUMPDEST PUSH32 0x4E487B7100000000000000000000000000000000000000000000000000000000 PUSH1 0x0 MSTORE PUSH1 0x11 PUSH1 0x4 MSTORE PUSH1 0x24 PUSH1 0x0 REVERT JUMPDEST PUSH1 0x0 PUSH2 0x283D DUP3 PUSH2 0x2275 JUMP JUMPDEST SWAP2 POP PUSH2 0x2848 DUP4 PUSH2 0x2275 JUMP JUMPDEST SWAP3 POP DUP3 PUSH32 0xFFFFFFFFFFFFFFFFFFFFFFFFFFFFFFFFFFFFFFFFFFFFFFFFFFFFFFFFFFFFFFFF SUB DUP3 GT ISZERO PUSH2 0x287D JUMPI PUSH2 0x287C PUSH2 0x2803 JUMP JUMPDEST JUMPDEST DUP3 DUP3 ADD SWAP1 POP SWAP3 SWAP2 POP POP JUMP JUMPDEST PUSH1 0x0 PUSH2 0x2893 DUP3 PUSH2 0x2275 JUMP JUMPDEST SWAP2 POP PUSH32 0xFFFFFFFFFFFFFFFFFFFFFFFFFFFFFFFFFFFFFFFFFFFFFFFFFFFFFFFFFFFFFFFF DUP3 SUB PUSH2 0x28C5 JUMPI PUSH2 0x28C4 PUSH2 0x2803 JUMP JUMPDEST JUMPDEST PUSH1 0x1 DUP3 ADD SWAP1 POP SWAP2 SWAP1 POP JUMP JUMPDEST PUSH32 0x4E487B7100000000000000000000000000000000000000000000000000000000 PUSH1 0x0 MSTORE PUSH1 0x41 PUSH1 0x4 MSTORE PUSH1 0x24 PUSH1 0x0 REVERT JUMPDEST PUSH32 0x4E487B7100000000000000000000000000000000000000000000000000000000 PUSH1 0x0 MSTORE PUSH1 0x32 PUSH1 0x4 MSTORE PUSH1 0x24 PUSH1 0x0 REVERT JUMPDEST PUSH1 0x0 DUP3 DUP3 MSTORE PUSH1 0x20 DUP3 ADD SWAP1 POP SWAP3 SWAP2 POP POP JUMP JUMPDEST PUSH32 0x5072696365206D757374206265206174206C6561737420312077656900000000 PUSH1 0x0 DUP3 ADD MSTORE POP JUMP JUMPDEST PUSH1 0x0 PUSH2 0x2975 PUSH1 0x1C DUP4 PUSH2 0x292E JUMP JUMPDEST SWAP2 POP PUSH2 0x2980 DUP3 PUSH2 0x293F JUMP JUMPDEST PUSH1 0x20 DUP3 ADD SWAP1 POP SWAP2 SWAP1 POP JUMP JUMPDEST PUSH1 0x0 PUSH1 0x20 DUP3 ADD SWAP1 POP DUP2 DUP2 SUB PUSH1 0x0 DUP4 ADD MSTORE PUSH2 0x29A4 DUP2 PUSH2 0x2968 JUMP JUMPDEST SWAP1 POP SWAP2 SWAP1 POP JUMP JUMPDEST PUSH1 0x0 PUSH1 0x20 DUP3 ADD SWAP1 POP PUSH2 0x29C0 PUSH1 0x0 DUP4 ADD DUP5 PUSH2 0x25D2 JUMP JUMPDEST SWAP3 SWAP2 POP POP JUMP JUMPDEST PUSH1 0x0 DUP2 MLOAD SWAP1 POP PUSH2 0x29D5 DUP2 PUSH2 0x253A JUMP JUMPDEST SWAP3 SWAP2 POP POP JUMP JUMPDEST PUSH1 0x0 PUSH1 0x20 DUP3 DUP5 SUB SLT ISZERO PUSH2 0x29F1 JUMPI PUSH2 0x29F0 PUSH2 0x23F0 JUMP JUMPDEST JUMPDEST PUSH1 0x0 PUSH2 0x29FF DUP5 DUP3 DUP6 ADD PUSH2 0x29C6 JUMP JUMPDEST SWAP2 POP POP SWAP3 SWAP2 POP POP JUMP JUMPDEST PUSH32 0x5468652073656C6C6572206973206E6F206C6F6E67657220746865206F776E65 PUSH1 0x0 DUP3 ADD MSTORE PUSH32 0x7200000000000000000000000000000000000000000000000000000000000000 PUSH1 0x20 DUP3 ADD MSTORE POP JUMP JUMPDEST PUSH1 0x0 PUSH2 0x2A64 PUSH1 0x21 DUP4 PUSH2 0x292E JUMP JUMPDEST SWAP2 POP PUSH2 0x2A6F DUP3 PUSH2 0x2A08 JUMP JUMPDEST PUSH1 0x40 DUP3 ADD SWAP1 POP SWAP2 SWAP1 POP JUMP JUMPDEST PUSH1 0x0 PUSH1 0x20 DUP3 ADD SWAP1 POP DUP2 DUP2 SUB PUSH1 0x0 DUP4 ADD MSTORE PUSH2 0x2A93 DUP2 PUSH2 0x2A57 JUMP JUMPDEST SWAP1 POP SWAP2 SWAP1 POP JUMP JUMPDEST PUSH1 0x0 PUSH1 0x60 DUP3 ADD SWAP1 POP PUSH2 0x2AAF PUSH1 0x0 DUP4 ADD DUP7 PUSH2 0x264A JUMP JUMPDEST PUSH2 0x2ABC PUSH1 0x20 DUP4 ADD DUP6 PUSH2 0x264A JUMP JUMPDEST PUSH2 0x2AC9 PUSH1 0x40 DUP4 ADD DUP5 PUSH2 0x25D2 JUMP JUMPDEST SWAP5 SWAP4 POP POP POP POP JUMP JUMPDEST PUSH32 0x4173736574206973206C697374696E6700000000000000000000000000000000 PUSH1 0x0 DUP3 ADD MSTORE POP JUMP JUMPDEST PUSH1 0x0 PUSH2 0x2B07 PUSH1 0x10 DUP4 PUSH2 0x292E JUMP JUMPDEST SWAP2 POP PUSH2 0x2B12 DUP3 PUSH2 0x2AD1 JUMP JUMPDEST PUSH1 0x20 DUP3 ADD SWAP1 POP SWAP2 SWAP1 POP JUMP JUMPDEST PUSH1 0x0 PUSH1 0x20 DUP3 ADD SWAP1 POP DUP2 DUP2 SUB PUSH1 0x0 DUP4 ADD MSTORE PUSH2 0x2B36 DUP2 PUSH2 0x2AFA JUMP JUMPDEST SWAP1 POP SWAP2 SWAP1 POP JUMP JUMPDEST PUSH32 0x5351460000000000000000000000000000000000000000000000000000000000 PUSH1 0x0 DUP3 ADD MSTORE POP JUMP JUMPDEST PUSH1 0x0 PUSH2 0x2B73 PUSH1 0x3 DUP4 PUSH2 0x292E JUMP JUMPDEST SWAP2 POP PUSH2 0x2B7E DUP3 PUSH2 0x2B3D JUMP JUMPDEST PUSH1 0x20 DUP3 ADD SWAP1 POP SWAP2 SWAP1 POP JUMP JUMPDEST PUSH1 0x0 PUSH1 0xA0 DUP3 ADD SWAP1 POP PUSH2 0x2B9E PUSH1 0x0 DUP4 ADD DUP8 PUSH2 0x264A JUMP JUMPDEST PUSH2 0x2BAB PUSH1 0x20 DUP4 ADD DUP7 PUSH2 0x25C3 JUMP JUMPDEST PUSH2 0x2BB8 PUSH1 0x40 DUP4 ADD DUP6 PUSH2 0x25D2 JUMP JUMPDEST DUP2 DUP2 SUB PUSH1 0x60 DUP4 ADD MSTORE PUSH2 0x2BC9 DUP2 PUSH2 0x2B66 JUMP JUMPDEST SWAP1 POP PUSH2 0x2BD8 PUSH1 0x80 DUP4 ADD DUP5 PUSH2 0x25D2 JUMP JUMPDEST SWAP6 SWAP5 POP POP POP POP POP JUMP JUMPDEST PUSH32 0x4F776E61626C653A2063616C6C6572206973206E6F7420746865206F776E6572 PUSH1 0x0 DUP3 ADD MSTORE POP JUMP JUMPDEST PUSH1 0x0 PUSH2 0x2C17 PUSH1 0x20 DUP4 PUSH2 0x292E JUMP JUMPDEST SWAP2 POP PUSH2 0x2C22 DUP3 PUSH2 0x2BE1 JUMP JUMPDEST PUSH1 0x20 DUP3 ADD SWAP1 POP SWAP2 SWAP1 POP JUMP JUMPDEST PUSH1 0x0 PUSH1 0x20 DUP3 ADD SWAP1 POP DUP2 DUP2 SUB PUSH1 0x0 DUP4 ADD MSTORE PUSH2 0x2C46 DUP2 PUSH2 0x2C0A JUMP JUMPDEST SWAP1 POP SWAP2 SWAP1 POP JUMP JUMPDEST PUSH32 0x5265656E7472616E637947756172643A207265656E7472616E742063616C6C00 PUSH1 0x0 DUP3 ADD MSTORE POP JUMP JUMPDEST PUSH1 0x0 PUSH2 0x2C83 PUSH1 0x1F DUP4 PUSH2 0x292E JUMP JUMPDEST SWAP2 POP PUSH2 0x2C8E DUP3 PUSH2 0x2C4D JUMP JUMPDEST PUSH1 0x20 DUP3 ADD SWAP1 POP SWAP2 SWAP1 POP JUMP JUMPDEST PUSH1 0x0 PUSH1 0x20 DUP3 ADD SWAP1 POP DUP2 DUP2 SUB PUSH1 0x0 DUP4 ADD MSTORE PUSH2 0x2CB2 DUP2 PUSH2 0x2C76 JUMP JUMPDEST SWAP1 POP SWAP2 SWAP1 POP JUMP JUMPDEST PUSH32 0x506C65617365207375626D6974207468652061736B696E672070726963652069 PUSH1 0x0 DUP3 ADD MSTORE PUSH32 0x6E206F7264657220746F20636F6D706C65746520746865207075726368617365 PUSH1 0x20 DUP3 ADD MSTORE POP JUMP JUMPDEST PUSH1 0x0 PUSH2 0x2D15 PUSH1 0x40 DUP4 PUSH2 0x292E JUMP JUMPDEST SWAP2 POP PUSH2 0x2D20 DUP3 PUSH2 0x2CB9 JUMP JUMPDEST PUSH1 0x40 DUP3 ADD SWAP1 POP SWAP2 SWAP1 POP JUMP JUMPDEST PUSH1 0x0 PUSH1 0x20 DUP3 ADD SWAP1 POP DUP2 DUP2 SUB PUSH1 0x0 DUP4 ADD MSTORE PUSH2 0x2D44 DUP2 PUSH2 0x2D08 JUMP JUMPDEST SWAP1 POP SWAP2 SWAP1 POP JUMP JUMPDEST PUSH32 0x4173736574206E6F74207075626C697368656400000000000000000000000000 PUSH1 0x0 DUP3 ADD MSTORE POP JUMP JUMPDEST PUSH1 0x0 PUSH2 0x2D81 PUSH1 0x13 DUP4 PUSH2 0x292E JUMP JUMPDEST SWAP2 POP PUSH2 0x2D8C DUP3 PUSH2 0x2D4B JUMP JUMPDEST PUSH1 0x20 DUP3 ADD SWAP1 POP SWAP2 SWAP1 POP JUMP JUMPDEST PUSH1 0x0 PUSH1 0x20 DUP3 ADD SWAP1 POP DUP2 DUP2 SUB PUSH1 0x0 DUP4 ADD MSTORE PUSH2 0x2DB0 DUP2 PUSH2 0x2D74 JUMP JUMPDEST SWAP1 POP SWAP2 SWAP1 POP JUMP JUMPDEST PUSH32 0x4173736574206973206E6F74206C69737420746F206275790000000000000000 PUSH1 0x0 DUP3 ADD MSTORE POP JUMP JUMPDEST PUSH1 0x0 PUSH2 0x2DED PUSH1 0x18 DUP4 PUSH2 0x292E JUMP JUMPDEST SWAP2 POP PUSH2 0x2DF8 DUP3 PUSH2 0x2DB7 JUMP JUMPDEST PUSH1 0x20 DUP3 ADD SWAP1 POP SWAP2 SWAP1 POP JUMP JUMPDEST PUSH1 0x0 PUSH1 0x20 DUP3 ADD SWAP1 POP DUP2 DUP2 SUB PUSH1 0x0 DUP4 ADD MSTORE PUSH2 0x2E1C DUP2 PUSH2 0x2DE0 JUMP JUMPDEST SWAP1 POP SWAP2 SWAP1 POP JUMP JUMPDEST PUSH32 0x496E76616C696420616464726573730000000000000000000000000000000000 PUSH1 0x0 DUP3 ADD MSTORE POP JUMP JUMPDEST PUSH1 0x0 PUSH2 0x2E59 PUSH1 0xF DUP4 PUSH2 0x292E JUMP JUMPDEST SWAP2 POP PUSH2 0x2E64 DUP3 PUSH2 0x2E23 JUMP JUMPDEST PUSH1 0x20 DUP3 ADD SWAP1 POP SWAP2 SWAP1 POP JUMP JUMPDEST PUSH1 0x0 PUSH1 0x20 DUP3 ADD SWAP1 POP DUP2 DUP2 SUB PUSH1 0x0 DUP4 ADD MSTORE PUSH2 0x2E88 DUP2 PUSH2 0x2E4C JUMP JUMPDEST SWAP1 POP SWAP2 SWAP1 POP JUMP JUMPDEST PUSH32 0x7072696365206E65656420657175616C206C697374696E672070726963650000 PUSH1 0x0 DUP3 ADD MSTORE POP JUMP JUMPDEST PUSH1 0x0 PUSH2 0x2EC5 PUSH1 0x1E DUP4 PUSH2 0x292E JUMP JUMPDEST SWAP2 POP PUSH2 0x2ED0 DUP3 PUSH2 0x2E8F JUMP JUMPDEST PUSH1 0x20 DUP3 ADD SWAP1 POP SWAP2 SWAP1 POP JUMP JUMPDEST PUSH1 0x0 PUSH1 0x20 DUP3 ADD SWAP1 POP DUP2 DUP2 SUB PUSH1 0x0 DUP4 ADD MSTORE PUSH2 0x2EF4 DUP2 PUSH2 0x2EB8 JUMP JUMPDEST SWAP1 POP SWAP2 SWAP1 POP JUMP JUMPDEST PUSH1 0x0 PUSH2 0x2F06 DUP3 PUSH2 0x2275 JUMP JUMPDEST SWAP2 POP PUSH2 0x2F11 DUP4 PUSH2 0x2275 JUMP JUMPDEST SWAP3 POP DUP2 PUSH32 0xFFFFFFFFFFFFFFFFFFFFFFFFFFFFFFFFFFFFFFFFFFFFFFFFFFFFFFFFFFFFFFFF DIV DUP4 GT DUP3 ISZERO ISZERO AND ISZERO PUSH2 0x2F4A JUMPI PUSH2 0x2F49 PUSH2 0x2803 JUMP JUMPDEST JUMPDEST DUP3 DUP3 MUL SWAP1 POP SWAP3 SWAP2 POP POP JUMP JUMPDEST PUSH32 0x4E487B7100000000000000000000000000000000000000000000000000000000 PUSH1 0x0 MSTORE PUSH1 0x12 PUSH1 0x4 MSTORE PUSH1 0x24 PUSH1 0x0 REVERT JUMPDEST PUSH1 0x0 PUSH2 0x2F8F DUP3 PUSH2 0x2275 JUMP JUMPDEST SWAP2 POP PUSH2 0x2F9A DUP4 PUSH2 0x2275 JUMP JUMPDEST SWAP3 POP DUP3 PUSH2 0x2FAA JUMPI PUSH2 0x2FA9 PUSH2 0x2F55 JUMP JUMPDEST JUMPDEST DUP3 DUP3 DIV SWAP1 POP SWAP3 SWAP2 POP POP JUMP JUMPDEST PUSH1 0x0 PUSH2 0x2FC0 DUP3 PUSH2 0x2275 JUMP JUMPDEST SWAP2 POP PUSH2 0x2FCB DUP4 PUSH2 0x2275 JUMP JUMPDEST SWAP3 POP DUP3 DUP3 LT ISZERO PUSH2 0x2FDE JUMPI PUSH2 0x2FDD PUSH2 0x2803 JUMP JUMPDEST JUMPDEST DUP3 DUP3 SUB SWAP1 POP SWAP3 SWAP2 POP POP JUMP JUMPDEST PUSH1 0x0 DUP2 ISZERO ISZERO SWAP1 POP SWAP2 SWAP1 POP JUMP JUMPDEST PUSH2 0x2FFE DUP2 PUSH2 0x2FE9 JUMP JUMPDEST DUP2 EQ PUSH2 0x3009 JUMPI PUSH1 0x0 DUP1 REVERT JUMPDEST POP JUMP JUMPDEST PUSH1 0x0 DUP2 MLOAD SWAP1 POP PUSH2 0x301B DUP2 PUSH2 0x2FF5 JUMP JUMPDEST SWAP3 SWAP2 POP POP JUMP JUMPDEST PUSH1 0x0 PUSH1 0x20 DUP3 DUP5 SUB SLT ISZERO PUSH2 0x3037 JUMPI PUSH2 0x3036 PUSH2 0x23F0 JUMP JUMPDEST JUMPDEST PUSH1 0x0 PUSH2 0x3045 DUP5 DUP3 DUP6 ADD PUSH2 0x300C JUMP JUMPDEST SWAP2 POP POP SWAP3 SWAP2 POP POP JUMP JUMPDEST PUSH32 0x414E544100000000000000000000000000000000000000000000000000000000 PUSH1 0x0 DUP3 ADD MSTORE POP JUMP JUMPDEST PUSH1 0x0 PUSH2 0x3084 PUSH1 0x4 DUP4 PUSH2 0x292E JUMP JUMPDEST SWAP2 POP PUSH2 0x308F DUP3 PUSH2 0x304E JUMP JUMPDEST PUSH1 0x20 DUP3 ADD SWAP1 POP SWAP2 SWAP1 POP JUMP JUMPDEST PUSH1 0x0 PUSH1 0xE0 DUP3 ADD SWAP1 POP PUSH2 0x30AF PUSH1 0x0 DUP4 ADD DUP10 PUSH2 0x25C3 JUMP JUMPDEST PUSH2 0x30BC PUSH1 0x20 DUP4 ADD DUP9 PUSH2 0x264A JUMP JUMPDEST PUSH2 0x30C9 PUSH1 0x40 DUP4 ADD DUP8 PUSH2 0x25D2 JUMP JUMPDEST PUSH2 0x30D6 PUSH1 0x60 DUP4 ADD DUP7 PUSH2 0x2791 JUMP JUMPDEST PUSH2 0x30E3 PUSH1 0x80 DUP4 ADD DUP6 PUSH2 0x25D2 JUMP JUMPDEST DUP2 DUP2 SUB PUSH1 0xA0 DUP4 ADD MSTORE PUSH2 0x30F4 DUP2 PUSH2 0x3077 JUMP JUMPDEST SWAP1 POP PUSH2 0x3103 PUSH1 0xC0 DUP4 ADD DUP5 PUSH2 0x25D2 JUMP JUMPDEST SWAP8 SWAP7 POP POP POP POP POP POP POP JUMP JUMPDEST PUSH32 0x4F776E61626C653A206E6577206F776E657220697320746865207A65726F2061 PUSH1 0x0 DUP3 ADD MSTORE PUSH32 0x6464726573730000000000000000000000000000000000000000000000000000 PUSH1 0x20 DUP3 ADD MSTORE POP JUMP JUMPDEST PUSH1 0x0 PUSH2 0x316A PUSH1 0x26 DUP4 PUSH2 0x292E JUMP JUMPDEST SWAP2 POP PUSH2 0x3175 DUP3 PUSH2 0x310E JUMP JUMPDEST PUSH1 0x40 DUP3 ADD SWAP1 POP SWAP2 SWAP1 POP JUMP JUMPDEST PUSH1 0x0 PUSH1 0x20 DUP3 ADD SWAP1 POP DUP2 DUP2 SUB PUSH1 0x0 DUP4 ADD MSTORE PUSH2 0x3199 DUP2 PUSH2 0x315D JUMP JUMPDEST SWAP1 POP SWAP2 SWAP1 POP JUMP JUMPDEST PUSH32 0x546865204E465420416464726573732073686F756C64206265206120636F6E74 PUSH1 0x0 DUP3 ADD MSTORE PUSH32 0x7261637400000000000000000000000000000000000000000000000000000000 PUSH1 0x20 DUP3 ADD MSTORE POP JUMP JUMPDEST PUSH1 0x0 PUSH2 0x31FC PUSH1 0x24 DUP4 PUSH2 0x292E JUMP JUMPDEST SWAP2 POP PUSH2 0x3207 DUP3 PUSH2 0x31A0 JUMP JUMPDEST PUSH1 0x40 DUP3 ADD SWAP1 POP SWAP2 SWAP1 POP JUMP JUMPDEST PUSH1 0x0 PUSH1 0x20 DUP3 ADD SWAP1 POP DUP2 DUP2 SUB PUSH1 0x0 DUP4 ADD MSTORE PUSH2 0x322B DUP2 PUSH2 0x31EF JUMP JUMPDEST SWAP1 POP SWAP2 SWAP1 POP JUMP JUMPDEST PUSH32 0x546865204E465420636F6E74726163742068617320616E20696E76616C696420 PUSH1 0x0 DUP3 ADD MSTORE PUSH32 0x45524337323120696D706C656D656E746174696F6E0000000000000000000000 PUSH1 0x20 DUP3 ADD MSTORE POP JUMP JUMPDEST PUSH1 0x0 PUSH2 0x328E PUSH1 0x35 DUP4 PUSH2 0x292E JUMP JUMPDEST SWAP2 POP PUSH2 0x3299 DUP3 PUSH2 0x3232 JUMP JUMPDEST PUSH1 0x40 DUP3 ADD SWAP1 POP SWAP2 SWAP1 POP JUMP JUMPDEST PUSH1 0x0 PUSH1 0x20 DUP3 ADD SWAP1 POP DUP2 DUP2 SUB PUSH1 0x0 DUP4 ADD MSTORE PUSH2 0x32BD DUP2 PUSH2 0x3281 JUMP JUMPDEST SWAP1 POP SWAP2 SWAP1 POP JUMP JUMPDEST PUSH1 0x0 DUP2 SWAP1 POP SWAP2 SWAP1 POP JUMP JUMPDEST PUSH2 0x32DF PUSH2 0x32DA DUP3 PUSH2 0x2275 JUMP JUMPDEST PUSH2 0x32C4 JUMP JUMPDEST DUP3 MSTORE POP POP JUMP JUMPDEST PUSH1 0x0 DUP2 PUSH1 0x60 SHL SWAP1 POP SWAP2 SWAP1 POP JUMP JUMPDEST PUSH1 0x0 PUSH2 0x32FD DUP3 PUSH2 0x32E5 JUMP JUMPDEST SWAP1 POP SWAP2 SWAP1 POP JUMP JUMPDEST PUSH1 0x0 PUSH2 0x330F DUP3 PUSH2 0x32F2 JUMP JUMPDEST SWAP1 POP SWAP2 SWAP1 POP JUMP JUMPDEST PUSH2 0x3327 PUSH2 0x3322 DUP3 PUSH2 0x228E JUMP JUMPDEST PUSH2 0x3304 JUMP JUMPDEST DUP3 MSTORE POP POP JUMP JUMPDEST PUSH1 0x0 PUSH2 0x3339 DUP3 DUP9 PUSH2 0x32CE JUMP JUMPDEST PUSH1 0x20 DUP3 ADD SWAP2 POP PUSH2 0x3349 DUP3 DUP8 PUSH2 0x3316 JUMP JUMPDEST PUSH1 0x14 DUP3 ADD SWAP2 POP PUSH2 0x3359 DUP3 DUP7 PUSH2 0x32CE JUMP JUMPDEST PUSH1 0x20 DUP3 ADD SWAP2 POP PUSH2 0x3369 DUP3 DUP6 PUSH2 0x3316 JUMP JUMPDEST PUSH1 0x14 DUP3 ADD SWAP2 POP PUSH2 0x3379 DUP3 DUP5 PUSH2 0x32CE JUMP JUMPDEST PUSH1 0x20 DUP3 ADD SWAP2 POP DUP2 SWAP1 POP SWAP7 SWAP6 POP POP POP POP POP POP JUMP INVALID LOG2 PUSH5 0x6970667358 0x22 SLT KECCAK256 0xC6 0x4E 0xCE 0x2D 0xD3 EQ DUP12 DUP3 DUP6 DUP1 0x28 PUSH5 0x7C645FAE9B CREATE 0x4F POP BALANCE DUP13 CALLDATASIZE 0xB4 0xB0 SWAP9 0xAB DUP14 GT EXP PUSH14 0x8564736F6C634300080D00330000 "
				},
				"gasEstimates": {
					"creation": {
						"codeDepositCost": "2650000",
						"executionCost": "infinite",
						"totalCost": "infinite"
					},
					"external": {
						"ERC721_Interface()": "431",
						"antaFeePercent()": "2610",
						"bnbFeePercent()": "2544",
						"buyItemBySQF(address,uint256,uint256)": "infinite",
						"createMarketSale(address,uint256)": "infinite",
						"fetchMarketItem(uint256)": "infinite",
						"fetchMyNFTs()": "infinite",
						"getMarketItem(uint256)": "infinite",
						"itemOffers(address,uint256,address)": "infinite",
						"items(address,uint256)": "infinite",
						"owner()": "2567",
						"renounceOwnership()": "30463",
						"sellItem(address,uint256,uint256)": "infinite",
						"setSQFToken(address)": "27029",
						"sqfToken()": "infinite",
						"transferOwnership(address)": "30808"
					},
					"internal": {
						"_createItem(address,uint256,address,uint256,uint256)": "infinite",
						"_requireERC721(address)": "infinite",
						"isContract(address)": "2653"
					}
				},
				"methodIdentifiers": {
					"ERC721_Interface()": "2b4c32be",
					"antaFeePercent()": "b7a60c7e",
					"bnbFeePercent()": "85a8b36c",
					"buyItemBySQF(address,uint256,uint256)": "f01b52dc",
					"createMarketSale(address,uint256)": "c23b139e",
					"fetchMarketItem(uint256)": "2a45b250",
					"fetchMyNFTs()": "202e3740",
					"getMarketItem(uint256)": "c7be7a49",
					"itemOffers(address,uint256,address)": "49739678",
					"items(address,uint256)": "5c80a435",
					"owner()": "8da5cb5b",
					"renounceOwnership()": "715018a6",
					"sellItem(address,uint256,uint256)": "68915327",
					"setSQFToken(address)": "92bf77dd",
					"sqfToken()": "15b81dc3",
					"transferOwnership(address)": "f2fde38b"
				}
			},
			"storageLayout": {
				"storage": [
					{
						"astId": 409,
						"contract": "contracts/Marketplace2/Marketplace.sol:NFTMarket",
						"label": "_status",
						"offset": 0,
						"slot": "0",
						"type": "t_uint256"
					},
					{
						"astId": 477,
						"contract": "contracts/Marketplace2/Marketplace.sol:NFTMarket",
						"label": "items",
						"offset": 0,
						"slot": "1",
						"type": "t_mapping(t_address,t_mapping(t_uint256,t_struct(Item)459_storage))"
					},
					{
						"astId": 486,
						"contract": "contracts/Marketplace2/Marketplace.sol:NFTMarket",
						"label": "itemOffers",
						"offset": 0,
						"slot": "2",
						"type": "t_mapping(t_address,t_mapping(t_uint256,t_mapping(t_address,t_struct(ItemOffer)464_storage)))"
					},
					{
						"astId": 489,
						"contract": "contracts/Marketplace2/Marketplace.sol:NFTMarket",
						"label": "sqfToken",
						"offset": 0,
						"slot": "3",
						"type": "t_contract(IERC20)201"
					},
					{
						"astId": 491,
						"contract": "contracts/Marketplace2/Marketplace.sol:NFTMarket",
						"label": "bnbFeePercent",
						"offset": 20,
						"slot": "3",
						"type": "t_uint8"
					},
					{
						"astId": 493,
						"contract": "contracts/Marketplace2/Marketplace.sol:NFTMarket",
						"label": "antaFeePercent",
						"offset": 21,
						"slot": "3",
						"type": "t_uint8"
					},
					{
						"astId": 27,
						"contract": "contracts/Marketplace2/Marketplace.sol:NFTMarket",
						"label": "_owner",
						"offset": 0,
						"slot": "4",
						"type": "t_address"
					},
					{
						"astId": 563,
						"contract": "contracts/Marketplace2/Marketplace.sol:NFTMarket",
						"label": "_itemIds",
						"offset": 0,
						"slot": "5",
						"type": "t_struct(Counter)331_storage"
					},
					{
						"astId": 566,
						"contract": "contracts/Marketplace2/Marketplace.sol:NFTMarket",
						"label": "_itemsSold",
						"offset": 0,
						"slot": "6",
						"type": "t_struct(Counter)331_storage"
					},
					{
						"astId": 584,
						"contract": "contracts/Marketplace2/Marketplace.sol:NFTMarket",
						"label": "idToMarketItem",
						"offset": 0,
						"slot": "7",
						"type": "t_mapping(t_uint256,t_struct(MarketItem)579_storage)"
					}
				],
				"types": {
					"t_address": {
						"encoding": "inplace",
						"label": "address",
						"numberOfBytes": "20"
					},
					"t_address_payable": {
						"encoding": "inplace",
						"label": "address payable",
						"numberOfBytes": "20"
					},
					"t_bytes32": {
						"encoding": "inplace",
						"label": "bytes32",
						"numberOfBytes": "32"
					},
					"t_contract(IERC20)201": {
						"encoding": "inplace",
						"label": "contract IERC20",
						"numberOfBytes": "20"
					},
					"t_enum(ItemStatus)445": {
						"encoding": "inplace",
						"label": "enum MarketplaceStorage.ItemStatus",
						"numberOfBytes": "1"
					},
					"t_mapping(t_address,t_mapping(t_uint256,t_mapping(t_address,t_struct(ItemOffer)464_storage)))": {
						"encoding": "mapping",
						"key": "t_address",
						"label": "mapping(address => mapping(uint256 => mapping(address => struct MarketplaceStorage.ItemOffer)))",
						"numberOfBytes": "32",
						"value": "t_mapping(t_uint256,t_mapping(t_address,t_struct(ItemOffer)464_storage))"
					},
					"t_mapping(t_address,t_mapping(t_uint256,t_struct(Item)459_storage))": {
						"encoding": "mapping",
						"key": "t_address",
						"label": "mapping(address => mapping(uint256 => struct MarketplaceStorage.Item))",
						"numberOfBytes": "32",
						"value": "t_mapping(t_uint256,t_struct(Item)459_storage)"
					},
					"t_mapping(t_address,t_struct(ItemOffer)464_storage)": {
						"encoding": "mapping",
						"key": "t_address",
						"label": "mapping(address => struct MarketplaceStorage.ItemOffer)",
						"numberOfBytes": "32",
						"value": "t_struct(ItemOffer)464_storage"
					},
					"t_mapping(t_uint256,t_mapping(t_address,t_struct(ItemOffer)464_storage))": {
						"encoding": "mapping",
						"key": "t_uint256",
						"label": "mapping(uint256 => mapping(address => struct MarketplaceStorage.ItemOffer))",
						"numberOfBytes": "32",
						"value": "t_mapping(t_address,t_struct(ItemOffer)464_storage)"
					},
					"t_mapping(t_uint256,t_struct(Item)459_storage)": {
						"encoding": "mapping",
						"key": "t_uint256",
						"label": "mapping(uint256 => struct MarketplaceStorage.Item)",
						"numberOfBytes": "32",
						"value": "t_struct(Item)459_storage"
					},
					"t_mapping(t_uint256,t_struct(MarketItem)579_storage)": {
						"encoding": "mapping",
						"key": "t_uint256",
						"label": "mapping(uint256 => struct NFTMarket.MarketItem)",
						"numberOfBytes": "32",
						"value": "t_struct(MarketItem)579_storage"
					},
					"t_struct(Counter)331_storage": {
						"encoding": "inplace",
						"label": "struct Counters.Counter",
						"members": [
							{
								"astId": 330,
								"contract": "contracts/Marketplace2/Marketplace.sol:NFTMarket",
								"label": "_value",
								"offset": 0,
								"slot": "0",
								"type": "t_uint256"
							}
						],
						"numberOfBytes": "32"
					},
					"t_struct(Item)459_storage": {
						"encoding": "inplace",
						"label": "struct MarketplaceStorage.Item",
						"members": [
							{
								"astId": 447,
								"contract": "contracts/Marketplace2/Marketplace.sol:NFTMarket",
								"label": "id",
								"offset": 0,
								"slot": "0",
								"type": "t_bytes32"
							},
							{
								"astId": 449,
								"contract": "contracts/Marketplace2/Marketplace.sol:NFTMarket",
								"label": "seller",
								"offset": 0,
								"slot": "1",
								"type": "t_address"
							},
							{
								"astId": 451,
								"contract": "contracts/Marketplace2/Marketplace.sol:NFTMarket",
								"label": "nftAddress",
								"offset": 0,
								"slot": "2",
								"type": "t_address"
							},
							{
								"astId": 453,
								"contract": "contracts/Marketplace2/Marketplace.sol:NFTMarket",
								"label": "price",
								"offset": 0,
								"slot": "3",
								"type": "t_uint256"
							},
							{
								"astId": 455,
								"contract": "contracts/Marketplace2/Marketplace.sol:NFTMarket",
								"label": "priceAnta",
								"offset": 0,
								"slot": "4",
								"type": "t_uint256"
							},
							{
								"astId": 458,
								"contract": "contracts/Marketplace2/Marketplace.sol:NFTMarket",
								"label": "status",
								"offset": 0,
								"slot": "5",
								"type": "t_enum(ItemStatus)445"
							}
						],
						"numberOfBytes": "192"
					},
					"t_struct(ItemOffer)464_storage": {
						"encoding": "inplace",
						"label": "struct MarketplaceStorage.ItemOffer",
						"members": [
							{
								"astId": 461,
								"contract": "contracts/Marketplace2/Marketplace.sol:NFTMarket",
								"label": "id",
								"offset": 0,
								"slot": "0",
								"type": "t_bytes32"
							},
							{
								"astId": 463,
								"contract": "contracts/Marketplace2/Marketplace.sol:NFTMarket",
								"label": "offerPrice",
								"offset": 0,
								"slot": "1",
								"type": "t_uint256"
							}
						],
						"numberOfBytes": "64"
					},
					"t_struct(MarketItem)579_storage": {
						"encoding": "inplace",
						"label": "struct NFTMarket.MarketItem",
						"members": [
							{
								"astId": 568,
								"contract": "contracts/Marketplace2/Marketplace.sol:NFTMarket",
								"label": "itemId",
								"offset": 0,
								"slot": "0",
								"type": "t_uint256"
							},
							{
								"astId": 570,
								"contract": "contracts/Marketplace2/Marketplace.sol:NFTMarket",
								"label": "nftContract",
								"offset": 0,
								"slot": "1",
								"type": "t_address"
							},
							{
								"astId": 572,
								"contract": "contracts/Marketplace2/Marketplace.sol:NFTMarket",
								"label": "tokenId",
								"offset": 0,
								"slot": "2",
								"type": "t_uint256"
							},
							{
								"astId": 574,
								"contract": "contracts/Marketplace2/Marketplace.sol:NFTMarket",
								"label": "seller",
								"offset": 0,
								"slot": "3",
								"type": "t_address_payable"
							},
							{
								"astId": 576,
								"contract": "contracts/Marketplace2/Marketplace.sol:NFTMarket",
								"label": "owner",
								"offset": 0,
								"slot": "4",
								"type": "t_address_payable"
							},
							{
								"astId": 578,
								"contract": "contracts/Marketplace2/Marketplace.sol:NFTMarket",
								"label": "price",
								"offset": 0,
								"slot": "5",
								"type": "t_uint256"
							}
						],
						"numberOfBytes": "192"
					},
					"t_uint256": {
						"encoding": "inplace",
						"label": "uint256",
						"numberOfBytes": "32"
					},
					"t_uint8": {
						"encoding": "inplace",
						"label": "uint8",
						"numberOfBytes": "1"
					}
				}
			},
			"userdoc": {
				"kind": "user",
				"methods": {},
				"version": 1
			}
		}
	}
}