{
	"contracts/Marketplace2/Marketplace.sol": {
		"NFTMarket": {
			"abi": [
				{
					"inputs": [
						{
							"internalType": "address",
							"name": "_mainToken",
							"type": "address"
						},
						{
							"internalType": "address",
							"name": "_mainNFT",
							"type": "address"
						},
						{
							"internalType": "address",
							"name": "_mainFactory",
							"type": "address"
						}
					],
					"stateMutability": "nonpayable",
					"type": "constructor"
				},
				{
					"anonymous": false,
					"inputs": [
						{
							"indexed": false,
							"internalType": "uint256",
							"name": "itemId",
							"type": "uint256"
						},
						{
							"indexed": true,
							"internalType": "uint256",
							"name": "tokenId",
							"type": "uint256"
						},
						{
							"indexed": true,
							"internalType": "address",
							"name": "seller",
							"type": "address"
						},
						{
							"indexed": false,
							"internalType": "uint256",
							"name": "price",
							"type": "uint256"
						},
						{
							"indexed": true,
							"internalType": "address",
							"name": "buyer",
							"type": "address"
						},
						{
							"indexed": false,
							"internalType": "string",
							"name": "currency",
							"type": "string"
						},
						{
							"indexed": false,
							"internalType": "uint256",
							"name": "createdAt",
							"type": "uint256"
						}
					],
					"name": "BuyItemSuccessful",
					"type": "event"
				},
				{
					"anonymous": false,
					"inputs": [
						{
							"indexed": false,
							"internalType": "uint256",
							"name": "id",
							"type": "uint256"
						},
						{
							"indexed": true,
							"internalType": "uint256",
							"name": "assetId",
							"type": "uint256"
						},
						{
							"indexed": true,
							"internalType": "address",
							"name": "delistBy",
							"type": "address"
						},
						{
							"indexed": false,
							"internalType": "uint256",
							"name": "createdAt",
							"type": "uint256"
						}
					],
					"name": "DelistItemSuccessful",
					"type": "event"
				},
				{
					"anonymous": false,
					"inputs": [
						{
							"indexed": true,
							"internalType": "uint256",
							"name": "itemId",
							"type": "uint256"
						},
						{
							"indexed": true,
							"internalType": "uint256",
							"name": "tokenId",
							"type": "uint256"
						},
						{
							"indexed": false,
							"internalType": "address",
							"name": "seller",
							"type": "address"
						},
						{
							"indexed": false,
							"internalType": "address",
							"name": "owner",
							"type": "address"
						},
						{
							"indexed": false,
							"internalType": "uint256",
							"name": "price",
							"type": "uint256"
						}
					],
					"name": "MarketItemCreated",
					"type": "event"
				},
				{
					"anonymous": false,
					"inputs": [
						{
							"indexed": true,
							"internalType": "address",
							"name": "previousOwner",
							"type": "address"
						},
						{
							"indexed": true,
							"internalType": "address",
							"name": "newOwner",
							"type": "address"
						}
					],
					"name": "OwnershipTransferred",
					"type": "event"
				},
				{
					"anonymous": false,
					"inputs": [
						{
							"indexed": false,
							"internalType": "address",
							"name": "nftAddress",
							"type": "address"
						},
						{
							"indexed": false,
							"internalType": "bytes32",
							"name": "id",
							"type": "bytes32"
						},
						{
							"indexed": true,
							"internalType": "uint256",
							"name": "assetId",
							"type": "uint256"
						},
						{
							"indexed": false,
							"internalType": "uint256",
							"name": "price",
							"type": "uint256"
						},
						{
							"indexed": true,
							"internalType": "address",
							"name": "seller",
							"type": "address"
						},
						{
							"indexed": false,
							"internalType": "string",
							"name": "currency",
							"type": "string"
						},
						{
							"indexed": false,
							"internalType": "uint256",
							"name": "createdAt",
							"type": "uint256"
						}
					],
					"name": "SellItemSuccessful",
					"type": "event"
				},
				{
					"inputs": [],
					"name": "ERC721_Interface",
					"outputs": [
						{
							"internalType": "bytes4",
							"name": "",
							"type": "bytes4"
						}
					],
					"stateMutability": "view",
					"type": "function"
				},
				{
					"inputs": [
						{
							"internalType": "uint256",
							"name": "",
							"type": "uint256"
						}
					],
					"name": "allItems",
					"outputs": [
						{
							"internalType": "uint256",
							"name": "itemId",
							"type": "uint256"
						},
						{
							"internalType": "uint256",
							"name": "tokenId",
							"type": "uint256"
						},
						{
							"internalType": "address",
							"name": "seller",
							"type": "address"
						},
						{
							"internalType": "address",
							"name": "owner",
							"type": "address"
						},
						{
							"internalType": "uint256",
							"name": "price",
							"type": "uint256"
						},
						{
							"internalType": "enum MarketplaceStorage.ItemStatus",
							"name": "status",
							"type": "uint8"
						}
					],
					"stateMutability": "view",
					"type": "function"
				},
				{
					"inputs": [],
					"name": "allMarketItems",
					"outputs": [
						{
							"internalType": "uint256",
							"name": "itemId",
							"type": "uint256"
						},
						{
							"internalType": "uint256",
							"name": "tokenId",
							"type": "uint256"
						},
						{
							"internalType": "address",
							"name": "seller",
							"type": "address"
						},
						{
							"internalType": "address",
							"name": "owner",
							"type": "address"
						},
						{
							"internalType": "uint256",
							"name": "price",
							"type": "uint256"
						},
						{
							"internalType": "enum MarketplaceStorage.ItemStatus",
							"name": "status",
							"type": "uint8"
						}
					],
					"stateMutability": "view",
					"type": "function"
				},
				{
					"inputs": [],
					"name": "antaFeePercent",
					"outputs": [
						{
							"internalType": "uint8",
							"name": "",
							"type": "uint8"
						}
					],
					"stateMutability": "view",
					"type": "function"
				},
				{
					"inputs": [],
					"name": "bnbFeePercent",
					"outputs": [
						{
							"internalType": "uint8",
							"name": "",
							"type": "uint8"
						}
					],
					"stateMutability": "view",
					"type": "function"
				},
				{
					"inputs": [
						{
							"internalType": "uint256",
							"name": "tokenId",
							"type": "uint256"
						},
						{
							"internalType": "uint256",
							"name": "price",
							"type": "uint256"
						}
					],
					"name": "createMarketItem",
					"outputs": [],
					"stateMutability": "payable",
					"type": "function"
				},
				{
					"inputs": [
						{
							"internalType": "uint256",
							"name": "itemId",
							"type": "uint256"
						},
						{
							"internalType": "uint256",
							"name": "amount",
							"type": "uint256"
						}
					],
					"name": "createMarketSale",
					"outputs": [],
					"stateMutability": "nonpayable",
					"type": "function"
				},
				{
					"inputs": [
						{
							"internalType": "uint256",
							"name": "itemId",
							"type": "uint256"
						}
					],
					"name": "delistItem",
					"outputs": [],
					"stateMutability": "nonpayable",
					"type": "function"
				},
				{
					"inputs": [],
					"name": "factory",
					"outputs": [
						{
							"internalType": "contract IFactory",
							"name": "",
							"type": "address"
						}
					],
					"stateMutability": "view",
					"type": "function"
				},
				{
					"inputs": [
						{
							"internalType": "uint256",
							"name": "itemId",
							"type": "uint256"
						}
					],
					"name": "fetchMarketItem",
					"outputs": [
						{
							"components": [
								{
									"internalType": "uint256",
									"name": "itemId",
									"type": "uint256"
								},
								{
									"internalType": "uint256",
									"name": "tokenId",
									"type": "uint256"
								},
								{
									"internalType": "address",
									"name": "seller",
									"type": "address"
								},
								{
									"internalType": "address",
									"name": "owner",
									"type": "address"
								},
								{
									"internalType": "uint256",
									"name": "price",
									"type": "uint256"
								},
								{
									"internalType": "enum MarketplaceStorage.ItemStatus",
									"name": "status",
									"type": "uint8"
								}
							],
							"internalType": "struct MarketplaceStorage.MarketItem",
							"name": "",
							"type": "tuple"
						}
					],
					"stateMutability": "view",
					"type": "function"
				},
				{
					"inputs": [],
					"name": "fetchMarketItems",
					"outputs": [
						{
							"components": [
								{
									"internalType": "uint256",
									"name": "itemId",
									"type": "uint256"
								},
								{
									"internalType": "uint256",
									"name": "tokenId",
									"type": "uint256"
								},
								{
									"internalType": "address",
									"name": "seller",
									"type": "address"
								},
								{
									"internalType": "address",
									"name": "owner",
									"type": "address"
								},
								{
									"internalType": "uint256",
									"name": "price",
									"type": "uint256"
								},
								{
									"internalType": "enum MarketplaceStorage.ItemStatus",
									"name": "status",
									"type": "uint8"
								}
							],
							"internalType": "struct MarketplaceStorage.MarketItem",
							"name": "",
							"type": "tuple"
						}
					],
					"stateMutability": "view",
					"type": "function"
				},
				{
					"inputs": [],
					"name": "fetchMySelling",
					"outputs": [
						{
							"components": [
								{
									"internalType": "uint256",
									"name": "itemId",
									"type": "uint256"
								},
								{
									"internalType": "uint256",
									"name": "tokenId",
									"type": "uint256"
								},
								{
									"internalType": "address",
									"name": "seller",
									"type": "address"
								},
								{
									"internalType": "address",
									"name": "owner",
									"type": "address"
								},
								{
									"internalType": "uint256",
									"name": "price",
									"type": "uint256"
								},
								{
									"internalType": "enum MarketplaceStorage.ItemStatus",
									"name": "status",
									"type": "uint8"
								}
							],
							"internalType": "struct MarketplaceStorage.MarketItem[]",
							"name": "",
							"type": "tuple[]"
						}
					],
					"stateMutability": "view",
					"type": "function"
				},
				{
					"inputs": [
						{
							"internalType": "uint256",
							"name": "tokenId",
							"type": "uint256"
						}
					],
					"name": "getAlalalalala",
					"outputs": [
						{
							"internalType": "bool",
							"name": "",
							"type": "bool"
						}
					],
					"stateMutability": "view",
					"type": "function"
				},
				{
					"inputs": [
						{
							"internalType": "uint256",
							"name": "marketItemId",
							"type": "uint256"
						}
					],
					"name": "getMarketItem",
					"outputs": [
						{
							"components": [
								{
									"internalType": "uint256",
									"name": "itemId",
									"type": "uint256"
								},
								{
									"internalType": "uint256",
									"name": "tokenId",
									"type": "uint256"
								},
								{
									"internalType": "address",
									"name": "seller",
									"type": "address"
								},
								{
									"internalType": "address",
									"name": "owner",
									"type": "address"
								},
								{
									"internalType": "uint256",
									"name": "price",
									"type": "uint256"
								},
								{
									"internalType": "enum MarketplaceStorage.ItemStatus",
									"name": "status",
									"type": "uint8"
								}
							],
							"internalType": "struct MarketplaceStorage.MarketItem",
							"name": "",
							"type": "tuple"
						}
					],
					"stateMutability": "view",
					"type": "function"
				},
				{
					"inputs": [
						{
							"internalType": "address",
							"name": "",
							"type": "address"
						},
						{
							"internalType": "uint256",
							"name": "",
							"type": "uint256"
						}
					],
					"name": "items",
					"outputs": [
						{
							"internalType": "uint256",
							"name": "itemId",
							"type": "uint256"
						},
						{
							"internalType": "uint256",
							"name": "tokenId",
							"type": "uint256"
						},
						{
							"internalType": "address",
							"name": "seller",
							"type": "address"
						},
						{
							"internalType": "address",
							"name": "owner",
							"type": "address"
						},
						{
							"internalType": "uint256",
							"name": "price",
							"type": "uint256"
						},
						{
							"internalType": "enum MarketplaceStorage.ItemStatus",
							"name": "status",
							"type": "uint8"
						}
					],
					"stateMutability": "view",
					"type": "function"
				},
				{
					"inputs": [],
					"name": "mainNFTs",
					"outputs": [
						{
							"internalType": "contract IERC721",
							"name": "",
							"type": "address"
						}
					],
					"stateMutability": "view",
					"type": "function"
				},
				{
					"inputs": [],
					"name": "mainToken",
					"outputs": [
						{
							"internalType": "contract IERC20",
							"name": "",
							"type": "address"
						}
					],
					"stateMutability": "view",
					"type": "function"
				},
				{
					"inputs": [],
					"name": "owner",
					"outputs": [
						{
							"internalType": "address",
							"name": "",
							"type": "address"
						}
					],
					"stateMutability": "view",
					"type": "function"
				},
				{
					"inputs": [],
					"name": "renounceOwnership",
					"outputs": [],
					"stateMutability": "nonpayable",
					"type": "function"
				},
				{
					"inputs": [
						{
							"internalType": "address",
							"name": "_address",
							"type": "address"
						}
					],
					"name": "setFactory",
					"outputs": [],
					"stateMutability": "nonpayable",
					"type": "function"
				},
				{
					"inputs": [
						{
							"internalType": "address",
							"name": "_address",
							"type": "address"
						}
					],
					"name": "setMainNFT",
					"outputs": [],
					"stateMutability": "nonpayable",
					"type": "function"
				},
				{
					"inputs": [
						{
							"internalType": "address",
							"name": "_address",
							"type": "address"
						}
					],
					"name": "setMainToken",
					"outputs": [],
					"stateMutability": "nonpayable",
					"type": "function"
				},
				{
					"inputs": [
						{
							"internalType": "uint256",
							"name": "tokenId",
							"type": "uint256"
						}
					],
					"name": "testView",
					"outputs": [
						{
							"internalType": "address",
							"name": "",
							"type": "address"
						}
					],
					"stateMutability": "view",
					"type": "function"
				},
				{
					"inputs": [
						{
							"internalType": "address",
							"name": "newOwner",
							"type": "address"
						}
					],
					"name": "transferOwnership",
					"outputs": [],
					"stateMutability": "nonpayable",
					"type": "function"
				}
			],
			"devdoc": {
				"kind": "dev",
				"methods": {
					"owner()": {
						"details": "Returns the address of the current owner."
					},
					"renounceOwnership()": {
						"details": "Leaves the contract without owner. It will not be possible to call `onlyOwner` functions anymore. Can only be called by the current owner. NOTE: Renouncing ownership will leave the contract without an owner, thereby removing any functionality that is only available to the owner."
					},
					"transferOwnership(address)": {
						"details": "Transfers ownership of the contract to a new account (`newOwner`). Can only be called by the current owner."
					}
				},
				"version": 1
			},
			"evm": {
				"assembly": "    /* \"contracts/Marketplace2/Marketplace.sol\":17107:24549  contract NFTMarket is ReentrancyGuard,MarketplaceStorage, Ownable {... */\n  mstore(0x40, 0x80)\n    /* \"contracts/Marketplace2/Marketplace.sol\":17353:17547  constructor(address _mainToken, address _mainNFT, address _mainFactory ) {... */\n  callvalue\n  dup1\n  iszero\n  tag_1\n  jumpi\n  0x00\n  dup1\n  revert\ntag_1:\n  pop\n  mload(0x40)\n  sub(codesize, bytecodeSize)\n  dup1\n  bytecodeSize\n  dup4\n  codecopy\n  dup2\n  dup2\n  add\n  0x40\n  mstore\n  dup2\n  add\n  swap1\n  tag_2\n  swap2\n  swap1\n  tag_3\n  jump\t// in\ntag_2:\n    /* \"contracts/Marketplace2/Marketplace.sol\":14122:14123  1 */\n  0x01\n    /* \"contracts/Marketplace2/Marketplace.sol\":14227:14234  _status */\n  0x00\n    /* \"contracts/Marketplace2/Marketplace.sol\":14227:14249  _status = _NOT_ENTERED */\n  dup2\n  swap1\n  sstore\n  pop\n    /* \"contracts/Marketplace2/Marketplace.sol\":1561:1593  _transferOwnership(_msgSender()) */\n  tag_9\n    /* \"contracts/Marketplace2/Marketplace.sol\":1580:1592  _msgSender() */\n  tag_10\n    /* \"contracts/Marketplace2/Marketplace.sol\":1580:1590  _msgSender */\n  shl(0x20, tag_11)\n    /* \"contracts/Marketplace2/Marketplace.sol\":1580:1592  _msgSender() */\n  0x20\n  shr\n  jump\t// in\ntag_10:\n    /* \"contracts/Marketplace2/Marketplace.sol\":1561:1579  _transferOwnership */\n  shl(0x20, tag_12)\n    /* \"contracts/Marketplace2/Marketplace.sol\":1561:1593  _transferOwnership(_msgSender()) */\n  0x20\n  shr\n  jump\t// in\ntag_9:\n    /* \"contracts/Marketplace2/Marketplace.sol\":17453:17463  _mainToken */\n  dup3\n    /* \"contracts/Marketplace2/Marketplace.sol\":17434:17443  mainToken */\n  0x09\n  0x00\n    /* \"contracts/Marketplace2/Marketplace.sol\":17434:17464  mainToken = IERC20(_mainToken) */\n  0x0100\n  exp\n  dup2\n  sload\n  dup2\n  0xffffffffffffffffffffffffffffffffffffffff\n  mul\n  not\n  and\n  swap1\n  dup4\n  0xffffffffffffffffffffffffffffffffffffffff\n  and\n  mul\n  or\n  swap1\n  sstore\n  pop\n    /* \"contracts/Marketplace2/Marketplace.sol\":17491:17499  _mainNFT */\n  dup2\n    /* \"contracts/Marketplace2/Marketplace.sol\":17472:17480  mainNFTs */\n  0x0b\n  0x00\n    /* \"contracts/Marketplace2/Marketplace.sol\":17472:17500  mainNFTs = IERC721(_mainNFT) */\n  0x0100\n  exp\n  dup2\n  sload\n  dup2\n  0xffffffffffffffffffffffffffffffffffffffff\n  mul\n  not\n  and\n  swap1\n  dup4\n  0xffffffffffffffffffffffffffffffffffffffff\n  and\n  mul\n  or\n  swap1\n  sstore\n  pop\n    /* \"contracts/Marketplace2/Marketplace.sol\":17527:17539  _mainFactory */\n  dup1\n    /* \"contracts/Marketplace2/Marketplace.sol\":17508:17515  factory */\n  0x0a\n  0x00\n    /* \"contracts/Marketplace2/Marketplace.sol\":17508:17540  factory = IFactory(_mainFactory) */\n  0x0100\n  exp\n  dup2\n  sload\n  dup2\n  0xffffffffffffffffffffffffffffffffffffffff\n  mul\n  not\n  and\n  swap1\n  dup4\n  0xffffffffffffffffffffffffffffffffffffffff\n  and\n  mul\n  or\n  swap1\n  sstore\n  pop\n    /* \"contracts/Marketplace2/Marketplace.sol\":17353:17547  constructor(address _mainToken, address _mainNFT, address _mainFactory ) {... */\n  pop\n  pop\n  pop\n    /* \"contracts/Marketplace2/Marketplace.sol\":17107:24549  contract NFTMarket is ReentrancyGuard,MarketplaceStorage, Ownable {... */\n  jump(tag_14)\n    /* \"contracts/Marketplace2/Marketplace.sol\":554:650  function _msgSender() internal view virtual returns (address) {... */\ntag_11:\n    /* \"contracts/Marketplace2/Marketplace.sol\":607:614  address */\n  0x00\n    /* \"contracts/Marketplace2/Marketplace.sol\":633:643  msg.sender */\n  caller\n    /* \"contracts/Marketplace2/Marketplace.sol\":626:643  return msg.sender */\n  swap1\n  pop\n    /* \"contracts/Marketplace2/Marketplace.sol\":554:650  function _msgSender() internal view virtual returns (address) {... */\n  swap1\n  jump\t// out\n    /* \"contracts/Marketplace2/Marketplace.sol\":2910:3097  function _transferOwnership(address newOwner) internal virtual {... */\ntag_12:\n    /* \"contracts/Marketplace2/Marketplace.sol\":2983:2999  address oldOwner */\n  0x00\n    /* \"contracts/Marketplace2/Marketplace.sol\":3002:3008  _owner */\n  0x0c\n  0x00\n  swap1\n  sload\n  swap1\n  0x0100\n  exp\n  swap1\n  div\n  0xffffffffffffffffffffffffffffffffffffffff\n  and\n    /* \"contracts/Marketplace2/Marketplace.sol\":2983:3008  address oldOwner = _owner */\n  swap1\n  pop\n    /* \"contracts/Marketplace2/Marketplace.sol\":3027:3035  newOwner */\n  dup2\n    /* \"contracts/Marketplace2/Marketplace.sol\":3018:3024  _owner */\n  0x0c\n  0x00\n    /* \"contracts/Marketplace2/Marketplace.sol\":3018:3035  _owner = newOwner */\n  0x0100\n  exp\n  dup2\n  sload\n  dup2\n  0xffffffffffffffffffffffffffffffffffffffff\n  mul\n  not\n  and\n  swap1\n  dup4\n  0xffffffffffffffffffffffffffffffffffffffff\n  and\n  mul\n  or\n  swap1\n  sstore\n  pop\n    /* \"contracts/Marketplace2/Marketplace.sol\":3081:3089  newOwner */\n  dup2\n    /* \"contracts/Marketplace2/Marketplace.sol\":3050:3090  OwnershipTransferred(oldOwner, newOwner) */\n  0xffffffffffffffffffffffffffffffffffffffff\n  and\n    /* \"contracts/Marketplace2/Marketplace.sol\":3071:3079  oldOwner */\n  dup2\n    /* \"contracts/Marketplace2/Marketplace.sol\":3050:3090  OwnershipTransferred(oldOwner, newOwner) */\n  0xffffffffffffffffffffffffffffffffffffffff\n  and\n  0x8be0079c531659141344cd1fd0a4f28419497f9722a3daafe3b4186f6b6457e0\n  mload(0x40)\n  mload(0x40)\n  dup1\n  swap2\n  sub\n  swap1\n  log3\n    /* \"contracts/Marketplace2/Marketplace.sol\":2973:3097  {... */\n  pop\n    /* \"contracts/Marketplace2/Marketplace.sol\":2910:3097  function _transferOwnership(address newOwner) internal virtual {... */\n  pop\n  jump\t// out\n    /* \"#utility.yul\":88:205   */\ntag_18:\n    /* \"#utility.yul\":197:198   */\n  0x00\n    /* \"#utility.yul\":194:195   */\n  dup1\n    /* \"#utility.yul\":187:199   */\n  revert\n    /* \"#utility.yul\":334:460   */\ntag_20:\n    /* \"#utility.yul\":371:378   */\n  0x00\n    /* \"#utility.yul\":411:453   */\n  0xffffffffffffffffffffffffffffffffffffffff\n    /* \"#utility.yul\":404:409   */\n  dup3\n    /* \"#utility.yul\":400:454   */\n  and\n    /* \"#utility.yul\":389:454   */\n  swap1\n  pop\n    /* \"#utility.yul\":334:460   */\n  swap2\n  swap1\n  pop\n  jump\t// out\n    /* \"#utility.yul\":466:562   */\ntag_21:\n    /* \"#utility.yul\":503:510   */\n  0x00\n    /* \"#utility.yul\":532:556   */\n  tag_30\n    /* \"#utility.yul\":550:555   */\n  dup3\n    /* \"#utility.yul\":532:556   */\n  tag_20\n  jump\t// in\ntag_30:\n    /* \"#utility.yul\":521:556   */\n  swap1\n  pop\n    /* \"#utility.yul\":466:562   */\n  swap2\n  swap1\n  pop\n  jump\t// out\n    /* \"#utility.yul\":568:690   */\ntag_22:\n    /* \"#utility.yul\":641:665   */\n  tag_32\n    /* \"#utility.yul\":659:664   */\n  dup2\n    /* \"#utility.yul\":641:665   */\n  tag_21\n  jump\t// in\ntag_32:\n    /* \"#utility.yul\":634:639   */\n  dup2\n    /* \"#utility.yul\":631:666   */\n  eq\n    /* \"#utility.yul\":621:684   */\n  tag_33\n  jumpi\n    /* \"#utility.yul\":680:681   */\n  0x00\n    /* \"#utility.yul\":677:678   */\n  dup1\n    /* \"#utility.yul\":670:682   */\n  revert\n    /* \"#utility.yul\":621:684   */\ntag_33:\n    /* \"#utility.yul\":568:690   */\n  pop\n  jump\t// out\n    /* \"#utility.yul\":696:839   */\ntag_23:\n    /* \"#utility.yul\":753:758   */\n  0x00\n    /* \"#utility.yul\":784:790   */\n  dup2\n    /* \"#utility.yul\":778:791   */\n  mload\n    /* \"#utility.yul\":769:791   */\n  swap1\n  pop\n    /* \"#utility.yul\":800:833   */\n  tag_35\n    /* \"#utility.yul\":827:832   */\n  dup2\n    /* \"#utility.yul\":800:833   */\n  tag_22\n  jump\t// in\ntag_35:\n    /* \"#utility.yul\":696:839   */\n  swap3\n  swap2\n  pop\n  pop\n  jump\t// out\n    /* \"#utility.yul\":845:1508   */\ntag_3:\n    /* \"#utility.yul\":933:939   */\n  0x00\n    /* \"#utility.yul\":941:947   */\n  dup1\n    /* \"#utility.yul\":949:955   */\n  0x00\n    /* \"#utility.yul\":998:1000   */\n  0x60\n    /* \"#utility.yul\":986:995   */\n  dup5\n    /* \"#utility.yul\":977:984   */\n  dup7\n    /* \"#utility.yul\":973:996   */\n  sub\n    /* \"#utility.yul\":969:1001   */\n  slt\n    /* \"#utility.yul\":966:1085   */\n  iszero\n  tag_37\n  jumpi\n    /* \"#utility.yul\":1004:1083   */\n  tag_38\n  tag_18\n  jump\t// in\ntag_38:\n    /* \"#utility.yul\":966:1085   */\ntag_37:\n    /* \"#utility.yul\":1124:1125   */\n  0x00\n    /* \"#utility.yul\":1149:1213   */\n  tag_39\n    /* \"#utility.yul\":1205:1212   */\n  dup7\n    /* \"#utility.yul\":1196:1202   */\n  dup3\n    /* \"#utility.yul\":1185:1194   */\n  dup8\n    /* \"#utility.yul\":1181:1203   */\n  add\n    /* \"#utility.yul\":1149:1213   */\n  tag_23\n  jump\t// in\ntag_39:\n    /* \"#utility.yul\":1139:1213   */\n  swap4\n  pop\n    /* \"#utility.yul\":1095:1223   */\n  pop\n    /* \"#utility.yul\":1262:1264   */\n  0x20\n    /* \"#utility.yul\":1288:1352   */\n  tag_40\n    /* \"#utility.yul\":1344:1351   */\n  dup7\n    /* \"#utility.yul\":1335:1341   */\n  dup3\n    /* \"#utility.yul\":1324:1333   */\n  dup8\n    /* \"#utility.yul\":1320:1342   */\n  add\n    /* \"#utility.yul\":1288:1352   */\n  tag_23\n  jump\t// in\ntag_40:\n    /* \"#utility.yul\":1278:1352   */\n  swap3\n  pop\n    /* \"#utility.yul\":1233:1362   */\n  pop\n    /* \"#utility.yul\":1401:1403   */\n  0x40\n    /* \"#utility.yul\":1427:1491   */\n  tag_41\n    /* \"#utility.yul\":1483:1490   */\n  dup7\n    /* \"#utility.yul\":1474:1480   */\n  dup3\n    /* \"#utility.yul\":1463:1472   */\n  dup8\n    /* \"#utility.yul\":1459:1481   */\n  add\n    /* \"#utility.yul\":1427:1491   */\n  tag_23\n  jump\t// in\ntag_41:\n    /* \"#utility.yul\":1417:1491   */\n  swap2\n  pop\n    /* \"#utility.yul\":1372:1501   */\n  pop\n    /* \"#utility.yul\":845:1508   */\n  swap3\n  pop\n  swap3\n  pop\n  swap3\n  jump\t// out\n    /* \"contracts/Marketplace2/Marketplace.sol\":17107:24549  contract NFTMarket is ReentrancyGuard,MarketplaceStorage, Ownable {... */\ntag_14:\n  dataSize(sub_0)\n  dup1\n  dataOffset(sub_0)\n  0x00\n  codecopy\n  0x00\n  return\nstop\n\nsub_0: assembly {\n        /* \"contracts/Marketplace2/Marketplace.sol\":17107:24549  contract NFTMarket is ReentrancyGuard,MarketplaceStorage, Ownable {... */\n      mstore(0x40, 0x80)\n      jumpi(tag_1, lt(calldatasize, 0x04))\n      shr(0xe0, calldataload(0x00))\n      dup1\n      0x673cf668\n      gt\n      tag_26\n      jumpi\n      dup1\n      0xc45a0155\n      gt\n      tag_27\n      jumpi\n      dup1\n      0xc45a0155\n      eq\n      tag_20\n      jumpi\n      dup1\n      0xc7be7a49\n      eq\n      tag_21\n      jumpi\n      dup1\n      0xe0606dd8\n      eq\n      tag_22\n      jumpi\n      dup1\n      0xf2fde38b\n      eq\n      tag_23\n      jumpi\n      dup1\n      0xf55de0c7\n      eq\n      tag_24\n      jumpi\n      dup1\n      0xff68fa6e\n      eq\n      tag_25\n      jumpi\n      jump(tag_1)\n    tag_27:\n      dup1\n      0x673cf668\n      eq\n      tag_14\n      jumpi\n      dup1\n      0x715018a6\n      eq\n      tag_15\n      jumpi\n      dup1\n      0x85a8b36c\n      eq\n      tag_16\n      jumpi\n      dup1\n      0x8da5cb5b\n      eq\n      tag_17\n      jumpi\n      dup1\n      0xa1c11ca8\n      eq\n      tag_18\n      jumpi\n      dup1\n      0xb7a60c7e\n      eq\n      tag_19\n      jumpi\n      jump(tag_1)\n    tag_26:\n      dup1\n      0x2b4c32be\n      gt\n      tag_28\n      jumpi\n      dup1\n      0x2b4c32be\n      eq\n      tag_8\n      jumpi\n      dup1\n      0x361c1995\n      eq\n      tag_9\n      jumpi\n      dup1\n      0x3fc15f15\n      eq\n      tag_10\n      jumpi\n      dup1\n      0x517bd451\n      eq\n      tag_11\n      jumpi\n      dup1\n      0x5bb47808\n      eq\n      tag_12\n      jumpi\n      dup1\n      0x5c80a435\n      eq\n      tag_13\n      jumpi\n      jump(tag_1)\n    tag_28:\n      dup1\n      0x0f08efe0\n      eq\n      tag_2\n      jumpi\n      dup1\n      0x10061631\n      eq\n      tag_3\n      jumpi\n      dup1\n      0x15b12494\n      eq\n      tag_4\n      jumpi\n      dup1\n      0x16e7031a\n      eq\n      tag_5\n      jumpi\n      dup1\n      0x27ce464e\n      eq\n      tag_6\n      jumpi\n      dup1\n      0x2a45b250\n      eq\n      tag_7\n      jumpi\n    tag_1:\n      0x00\n      dup1\n      revert\n        /* \"contracts/Marketplace2/Marketplace.sol\":20309:20409  function fetchMarketItems() public view returns (MarketItem memory) {... */\n    tag_2:\n      callvalue\n      dup1\n      iszero\n      tag_29\n      jumpi\n      0x00\n      dup1\n      revert\n    tag_29:\n      pop\n      tag_30\n      tag_31\n      jump\t// in\n    tag_30:\n      mload(0x40)\n      tag_32\n      swap2\n      swap1\n      tag_33\n      jump\t// in\n    tag_32:\n      mload(0x40)\n      dup1\n      swap2\n      sub\n      swap1\n      return\n        /* \"contracts/Marketplace2/Marketplace.sol\":21119:21877  function delistItem(uint256 itemId) public {... */\n    tag_3:\n      callvalue\n      dup1\n      iszero\n      tag_34\n      jumpi\n      0x00\n      dup1\n      revert\n    tag_34:\n      pop\n      tag_35\n      0x04\n      dup1\n      calldatasize\n      sub\n      dup2\n      add\n      swap1\n      tag_36\n      swap2\n      swap1\n      tag_37\n      jump\t// in\n    tag_36:\n      tag_38\n      jump\t// in\n    tag_35:\n      stop\n        /* \"contracts/Marketplace2/Marketplace.sol\":17805:17907  function setMainNFT(address _address) external onlyOwner {... */\n    tag_4:\n      callvalue\n      dup1\n      iszero\n      tag_39\n      jumpi\n      0x00\n      dup1\n      revert\n    tag_39:\n      pop\n      tag_40\n      0x04\n      dup1\n      calldatasize\n      sub\n      dup2\n      add\n      swap1\n      tag_41\n      swap2\n      swap1\n      tag_42\n      jump\t// in\n    tag_41:\n      tag_43\n      jump\t// in\n    tag_40:\n      stop\n        /* \"contracts/Marketplace2/Marketplace.sol\":18020:18193  function getAlalalalala(uint tokenId) public view returns (bool) { ... */\n    tag_5:\n      callvalue\n      dup1\n      iszero\n      tag_44\n      jumpi\n      0x00\n      dup1\n      revert\n    tag_44:\n      pop\n      tag_45\n      0x04\n      dup1\n      calldatasize\n      sub\n      dup2\n      add\n      swap1\n      tag_46\n      swap2\n      swap1\n      tag_37\n      jump\t// in\n    tag_46:\n      tag_47\n      jump\t// in\n    tag_45:\n      mload(0x40)\n      tag_48\n      swap2\n      swap1\n      tag_49\n      jump\t// in\n    tag_48:\n      mload(0x40)\n      dup1\n      swap2\n      sub\n      swap1\n      return\n        /* \"contracts/Marketplace2/Marketplace.sol\":17696:17800  function setMainToken(address _address) external onlyOwner {... */\n    tag_6:\n      callvalue\n      dup1\n      iszero\n      tag_50\n      jumpi\n      0x00\n      dup1\n      revert\n    tag_50:\n      pop\n      tag_51\n      0x04\n      dup1\n      calldatasize\n      sub\n      dup2\n      add\n      swap1\n      tag_52\n      swap2\n      swap1\n      tag_42\n      jump\t// in\n    tag_52:\n      tag_53\n      jump\t// in\n    tag_51:\n      stop\n        /* \"contracts/Marketplace2/Marketplace.sol\":20152:20305  function fetchMarketItem(uint itemId) public view returns (MarketItem memory) {... */\n    tag_7:\n      callvalue\n      dup1\n      iszero\n      tag_54\n      jumpi\n      0x00\n      dup1\n      revert\n    tag_54:\n      pop\n      tag_55\n      0x04\n      dup1\n      calldatasize\n      sub\n      dup2\n      add\n      swap1\n      tag_56\n      swap2\n      swap1\n      tag_37\n      jump\t// in\n    tag_56:\n      tag_57\n      jump\t// in\n    tag_55:\n      mload(0x40)\n      tag_58\n      swap2\n      swap1\n      tag_33\n      jump\t// in\n    tag_58:\n      mload(0x40)\n      dup1\n      swap2\n      sub\n      swap1\n      return\n        /* \"contracts/Marketplace2/Marketplace.sol\":15910:15970  bytes4 public constant ERC721_Interface = bytes4(0x80ac58cd) */\n    tag_8:\n      callvalue\n      dup1\n      iszero\n      tag_59\n      jumpi\n      0x00\n      dup1\n      revert\n    tag_59:\n      pop\n      tag_60\n      tag_61\n      jump\t// in\n    tag_60:\n      mload(0x40)\n      tag_62\n      swap2\n      swap1\n      tag_63\n      jump\t// in\n    tag_62:\n      mload(0x40)\n      dup1\n      swap2\n      sub\n      swap1\n      return\n        /* \"contracts/Marketplace2/Marketplace.sol\":18197:18960  function createMarketItem(... */\n    tag_9:\n      tag_64\n      0x04\n      dup1\n      calldatasize\n      sub\n      dup2\n      add\n      swap1\n      tag_65\n      swap2\n      swap1\n      tag_66\n      jump\t// in\n    tag_65:\n      tag_67\n      jump\t// in\n    tag_64:\n      stop\n        /* \"contracts/Marketplace2/Marketplace.sol\":16171:16194  IERC20 public mainToken */\n    tag_10:\n      callvalue\n      dup1\n      iszero\n      tag_68\n      jumpi\n      0x00\n      dup1\n      revert\n    tag_68:\n      pop\n      tag_69\n      tag_70\n      jump\t// in\n    tag_69:\n      mload(0x40)\n      tag_71\n      swap2\n      swap1\n      tag_72\n      jump\t// in\n    tag_71:\n      mload(0x40)\n      dup1\n      swap2\n      sub\n      swap1\n      return\n        /* \"contracts/Marketplace2/Marketplace.sol\":15871:15903  MarketItem public allMarketItems */\n    tag_11:\n      callvalue\n      dup1\n      iszero\n      tag_73\n      jumpi\n      0x00\n      dup1\n      revert\n    tag_73:\n      pop\n      tag_74\n      tag_75\n      jump\t// in\n    tag_74:\n      mload(0x40)\n      tag_76\n      swap7\n      swap6\n      swap5\n      swap4\n      swap3\n      swap2\n      swap1\n      tag_77\n      jump\t// in\n    tag_76:\n      mload(0x40)\n      dup1\n      swap2\n      sub\n      swap1\n      return\n        /* \"contracts/Marketplace2/Marketplace.sol\":17912:18014  function setFactory(address _address) external onlyOwner {... */\n    tag_12:\n      callvalue\n      dup1\n      iszero\n      tag_78\n      jumpi\n      0x00\n      dup1\n      revert\n    tag_78:\n      pop\n      tag_79\n      0x04\n      dup1\n      calldatasize\n      sub\n      dup2\n      add\n      swap1\n      tag_80\n      swap2\n      swap1\n      tag_42\n      jump\t// in\n    tag_80:\n      tag_81\n      jump\t// in\n    tag_79:\n      stop\n        /* \"contracts/Marketplace2/Marketplace.sol\":16101:16164  mapping(address => mapping(uint256 => MarketItem)) public items */\n    tag_13:\n      callvalue\n      dup1\n      iszero\n      tag_82\n      jumpi\n      0x00\n      dup1\n      revert\n    tag_82:\n      pop\n      tag_83\n      0x04\n      dup1\n      calldatasize\n      sub\n      dup2\n      add\n      swap1\n      tag_84\n      swap2\n      swap1\n      tag_85\n      jump\t// in\n    tag_84:\n      tag_86\n      jump\t// in\n    tag_83:\n      mload(0x40)\n      tag_87\n      swap7\n      swap6\n      swap5\n      swap4\n      swap3\n      swap2\n      swap1\n      tag_77\n      jump\t// in\n    tag_87:\n      mload(0x40)\n      dup1\n      swap2\n      sub\n      swap1\n      return\n        /* \"contracts/Marketplace2/Marketplace.sol\":20413:21115  function fetchMySelling() public view returns (MarketItem[] memory) {... */\n    tag_14:\n      callvalue\n      dup1\n      iszero\n      tag_88\n      jumpi\n      0x00\n      dup1\n      revert\n    tag_88:\n      pop\n      tag_89\n      tag_90\n      jump\t// in\n    tag_89:\n      mload(0x40)\n      tag_91\n      swap2\n      swap1\n      tag_92\n      jump\t// in\n    tag_91:\n      mload(0x40)\n      dup1\n      swap2\n      sub\n      swap1\n      return\n        /* \"contracts/Marketplace2/Marketplace.sol\":2308:2409  function renounceOwnership() public virtual onlyOwner {... */\n    tag_15:\n      callvalue\n      dup1\n      iszero\n      tag_93\n      jumpi\n      0x00\n      dup1\n      revert\n    tag_93:\n      pop\n      tag_94\n      tag_95\n      jump\t// in\n    tag_94:\n      stop\n        /* \"contracts/Marketplace2/Marketplace.sol\":16259:16285  uint8 public bnbFeePercent */\n    tag_16:\n      callvalue\n      dup1\n      iszero\n      tag_96\n      jumpi\n      0x00\n      dup1\n      revert\n    tag_96:\n      pop\n      tag_97\n      tag_98\n      jump\t// in\n    tag_97:\n      mload(0x40)\n      tag_99\n      swap2\n      swap1\n      tag_100\n      jump\t// in\n    tag_99:\n      mload(0x40)\n      dup1\n      swap2\n      sub\n      swap1\n      return\n        /* \"contracts/Marketplace2/Marketplace.sol\":1676:1761  function owner() public view virtual returns (address) {... */\n    tag_17:\n      callvalue\n      dup1\n      iszero\n      tag_101\n      jumpi\n      0x00\n      dup1\n      revert\n    tag_101:\n      pop\n      tag_102\n      tag_103\n      jump\t// in\n    tag_102:\n      mload(0x40)\n      tag_104\n      swap2\n      swap1\n      tag_105\n      jump\t// in\n    tag_104:\n      mload(0x40)\n      dup1\n      swap2\n      sub\n      swap1\n      return\n        /* \"contracts/Marketplace2/Marketplace.sol\":19142:20148  function createMarketSale(... */\n    tag_18:\n      callvalue\n      dup1\n      iszero\n      tag_106\n      jumpi\n      0x00\n      dup1\n      revert\n    tag_106:\n      pop\n      tag_107\n      0x04\n      dup1\n      calldatasize\n      sub\n      dup2\n      add\n      swap1\n      tag_108\n      swap2\n      swap1\n      tag_66\n      jump\t// in\n    tag_108:\n      tag_109\n      jump\t// in\n    tag_107:\n      stop\n        /* \"contracts/Marketplace2/Marketplace.sol\":16291:16318  uint8 public antaFeePercent */\n    tag_19:\n      callvalue\n      dup1\n      iszero\n      tag_110\n      jumpi\n      0x00\n      dup1\n      revert\n    tag_110:\n      pop\n      tag_111\n      tag_112\n      jump\t// in\n    tag_111:\n      mload(0x40)\n      tag_113\n      swap2\n      swap1\n      tag_100\n      jump\t// in\n    tag_113:\n      mload(0x40)\n      dup1\n      swap2\n      sub\n      swap1\n      return\n        /* \"contracts/Marketplace2/Marketplace.sol\":16200:16223  IFactory public factory */\n    tag_20:\n      callvalue\n      dup1\n      iszero\n      tag_114\n      jumpi\n      0x00\n      dup1\n      revert\n    tag_114:\n      pop\n      tag_115\n      tag_116\n      jump\t// in\n    tag_115:\n      mload(0x40)\n      tag_117\n      swap2\n      swap1\n      tag_118\n      jump\t// in\n    tag_117:\n      mload(0x40)\n      dup1\n      swap2\n      sub\n      swap1\n      return\n        /* \"contracts/Marketplace2/Marketplace.sol\":17553:17690  function getMarketItem(uint256 marketItemId) public view returns (MarketItem memory) {... */\n    tag_21:\n      callvalue\n      dup1\n      iszero\n      tag_119\n      jumpi\n      0x00\n      dup1\n      revert\n    tag_119:\n      pop\n      tag_120\n      0x04\n      dup1\n      calldatasize\n      sub\n      dup2\n      add\n      swap1\n      tag_121\n      swap2\n      swap1\n      tag_37\n      jump\t// in\n    tag_121:\n      tag_122\n      jump\t// in\n    tag_120:\n      mload(0x40)\n      tag_123\n      swap2\n      swap1\n      tag_33\n      jump\t// in\n    tag_123:\n      mload(0x40)\n      dup1\n      swap2\n      sub\n      swap1\n      return\n        /* \"contracts/Marketplace2/Marketplace.sol\":18966:19138  function testView(uint256 tokenId) public view returns (address) { ... */\n    tag_22:\n      callvalue\n      dup1\n      iszero\n      tag_124\n      jumpi\n      0x00\n      dup1\n      revert\n    tag_124:\n      pop\n      tag_125\n      0x04\n      dup1\n      calldatasize\n      sub\n      dup2\n      add\n      swap1\n      tag_126\n      swap2\n      swap1\n      tag_37\n      jump\t// in\n    tag_126:\n      tag_127\n      jump\t// in\n    tag_125:\n      mload(0x40)\n      tag_128\n      swap2\n      swap1\n      tag_105\n      jump\t// in\n    tag_128:\n      mload(0x40)\n      dup1\n      swap2\n      sub\n      swap1\n      return\n        /* \"contracts/Marketplace2/Marketplace.sol\":2558:2756  function transferOwnership(address newOwner) public virtual onlyOwner {... */\n    tag_23:\n      callvalue\n      dup1\n      iszero\n      tag_129\n      jumpi\n      0x00\n      dup1\n      revert\n    tag_129:\n      pop\n      tag_130\n      0x04\n      dup1\n      calldatasize\n      sub\n      dup2\n      add\n      swap1\n      tag_131\n      swap2\n      swap1\n      tag_42\n      jump\t// in\n    tag_131:\n      tag_132\n      jump\t// in\n    tag_130:\n      stop\n        /* \"contracts/Marketplace2/Marketplace.sol\":16229:16252  IERC721 public mainNFTs */\n    tag_24:\n      callvalue\n      dup1\n      iszero\n      tag_133\n      jumpi\n      0x00\n      dup1\n      revert\n    tag_133:\n      pop\n      tag_134\n      tag_135\n      jump\t// in\n    tag_134:\n      mload(0x40)\n      tag_136\n      swap2\n      swap1\n      tag_137\n      jump\t// in\n    tag_136:\n      mload(0x40)\n      dup1\n      swap2\n      sub\n      swap1\n      return\n        /* \"contracts/Marketplace2/Marketplace.sol\":15977:16024  mapping (uint256 => MarketItem) public allItems */\n    tag_25:\n      callvalue\n      dup1\n      iszero\n      tag_138\n      jumpi\n      0x00\n      dup1\n      revert\n    tag_138:\n      pop\n      tag_139\n      0x04\n      dup1\n      calldatasize\n      sub\n      dup2\n      add\n      swap1\n      tag_140\n      swap2\n      swap1\n      tag_37\n      jump\t// in\n    tag_140:\n      tag_141\n      jump\t// in\n    tag_139:\n      mload(0x40)\n      tag_142\n      swap7\n      swap6\n      swap5\n      swap4\n      swap3\n      swap2\n      swap1\n      tag_77\n      jump\t// in\n    tag_142:\n      mload(0x40)\n      dup1\n      swap2\n      sub\n      swap1\n      return\n        /* \"contracts/Marketplace2/Marketplace.sol\":20309:20409  function fetchMarketItems() public view returns (MarketItem memory) {... */\n    tag_31:\n        /* \"contracts/Marketplace2/Marketplace.sol\":20358:20375  MarketItem memory */\n      tag_143\n      tag_144\n      jump\t// in\n    tag_143:\n        /* \"contracts/Marketplace2/Marketplace.sol\":20390:20404  allMarketItems */\n      0x01\n        /* \"contracts/Marketplace2/Marketplace.sol\":20383:20404  return allMarketItems */\n      mload(0x40)\n      dup1\n      0xc0\n      add\n      0x40\n      mstore\n      swap1\n      dup2\n      0x00\n      dup3\n      add\n      sload\n      dup2\n      mstore\n      0x20\n      add\n      0x01\n      dup3\n      add\n      sload\n      dup2\n      mstore\n      0x20\n      add\n      0x02\n      dup3\n      add\n      0x00\n      swap1\n      sload\n      swap1\n      0x0100\n      exp\n      swap1\n      div\n      0xffffffffffffffffffffffffffffffffffffffff\n      and\n      0xffffffffffffffffffffffffffffffffffffffff\n      and\n      0xffffffffffffffffffffffffffffffffffffffff\n      and\n      dup2\n      mstore\n      0x20\n      add\n      0x03\n      dup3\n      add\n      0x00\n      swap1\n      sload\n      swap1\n      0x0100\n      exp\n      swap1\n      div\n      0xffffffffffffffffffffffffffffffffffffffff\n      and\n      0xffffffffffffffffffffffffffffffffffffffff\n      and\n      0xffffffffffffffffffffffffffffffffffffffff\n      and\n      dup2\n      mstore\n      0x20\n      add\n      0x04\n      dup3\n      add\n      sload\n      dup2\n      mstore\n      0x20\n      add\n      0x05\n      dup3\n      add\n      0x00\n      swap1\n      sload\n      swap1\n      0x0100\n      exp\n      swap1\n      div\n      0xff\n      and\n      0x01\n      dup2\n      gt\n      iszero\n      tag_146\n      jumpi\n      tag_147\n      tag_148\n      jump\t// in\n    tag_147:\n    tag_146:\n      0x01\n      dup2\n      gt\n      iszero\n      tag_149\n      jumpi\n      tag_150\n      tag_148\n      jump\t// in\n    tag_150:\n    tag_149:\n      dup2\n      mstore\n      pop\n      pop\n      swap1\n      pop\n        /* \"contracts/Marketplace2/Marketplace.sol\":20309:20409  function fetchMarketItems() public view returns (MarketItem memory) {... */\n      swap1\n      jump\t// out\n        /* \"contracts/Marketplace2/Marketplace.sol\":21119:21877  function delistItem(uint256 itemId) public {... */\n    tag_38:\n        /* \"contracts/Marketplace2/Marketplace.sol\":21172:21188  address deleteBy */\n      0x00\n        /* \"contracts/Marketplace2/Marketplace.sol\":21191:21201  msg.sender */\n      caller\n        /* \"contracts/Marketplace2/Marketplace.sol\":21172:21201  address deleteBy = msg.sender */\n      swap1\n      pop\n        /* \"contracts/Marketplace2/Marketplace.sol\":21211:21233  MarketItem memory item */\n      0x00\n        /* \"contracts/Marketplace2/Marketplace.sol\":21236:21250  idToMarketItem */\n      0x0f\n        /* \"contracts/Marketplace2/Marketplace.sol\":21236:21258  idToMarketItem[itemId] */\n      0x00\n        /* \"contracts/Marketplace2/Marketplace.sol\":21251:21257  itemId */\n      dup5\n        /* \"contracts/Marketplace2/Marketplace.sol\":21236:21258  idToMarketItem[itemId] */\n      dup2\n      mstore\n      0x20\n      add\n      swap1\n      dup2\n      mstore\n      0x20\n      add\n      0x00\n      keccak256\n        /* \"contracts/Marketplace2/Marketplace.sol\":21211:21258  MarketItem memory item = idToMarketItem[itemId] */\n      mload(0x40)\n      dup1\n      0xc0\n      add\n      0x40\n      mstore\n      swap1\n      dup2\n      0x00\n      dup3\n      add\n      sload\n      dup2\n      mstore\n      0x20\n      add\n      0x01\n      dup3\n      add\n      sload\n      dup2\n      mstore\n      0x20\n      add\n      0x02\n      dup3\n      add\n      0x00\n      swap1\n      sload\n      swap1\n      0x0100\n      exp\n      swap1\n      div\n      0xffffffffffffffffffffffffffffffffffffffff\n      and\n      0xffffffffffffffffffffffffffffffffffffffff\n      and\n      0xffffffffffffffffffffffffffffffffffffffff\n      and\n      dup2\n      mstore\n      0x20\n      add\n      0x03\n      dup3\n      add\n      0x00\n      swap1\n      sload\n      swap1\n      0x0100\n      exp\n      swap1\n      div\n      0xffffffffffffffffffffffffffffffffffffffff\n      and\n      0xffffffffffffffffffffffffffffffffffffffff\n      and\n      0xffffffffffffffffffffffffffffffffffffffff\n      and\n      dup2\n      mstore\n      0x20\n      add\n      0x04\n      dup3\n      add\n      sload\n      dup2\n      mstore\n      0x20\n      add\n      0x05\n      dup3\n      add\n      0x00\n      swap1\n      sload\n      swap1\n      0x0100\n      exp\n      swap1\n      div\n      0xff\n      and\n      0x01\n      dup2\n      gt\n      iszero\n      tag_152\n      jumpi\n      tag_153\n      tag_148\n      jump\t// in\n    tag_153:\n    tag_152:\n      0x01\n      dup2\n      gt\n      iszero\n      tag_154\n      jumpi\n      tag_155\n      tag_148\n      jump\t// in\n    tag_155:\n    tag_154:\n      dup2\n      mstore\n      pop\n      pop\n      swap1\n      pop\n        /* \"contracts/Marketplace2/Marketplace.sol\":21293:21294  0 */\n      0x00\n        /* \"contracts/Marketplace2/Marketplace.sol\":21278:21282  item */\n      dup2\n        /* \"contracts/Marketplace2/Marketplace.sol\":21278:21289  item.itemId */\n      0x00\n      add\n      mload\n        /* \"contracts/Marketplace2/Marketplace.sol\":21278:21294  item.itemId != 0 */\n      sub\n        /* \"contracts/Marketplace2/Marketplace.sol\":21270:21318  require(item.itemId != 0, \"Asset not published\") */\n      tag_156\n      jumpi\n      mload(0x40)\n      0x08c379a000000000000000000000000000000000000000000000000000000000\n      dup2\n      mstore\n      0x04\n      add\n      tag_157\n      swap1\n      tag_158\n      jump\t// in\n    tag_157:\n      mload(0x40)\n      dup1\n      swap2\n      sub\n      swap1\n      revert\n    tag_156:\n        /* \"contracts/Marketplace2/Marketplace.sol\":21351:21369  ItemStatus.SELLING */\n      0x01\n        /* \"contracts/Marketplace2/Marketplace.sol\":21336:21369  item.status == ItemStatus.SELLING */\n      dup1\n      dup2\n      gt\n      iszero\n      tag_159\n      jumpi\n      tag_160\n      tag_148\n      jump\t// in\n    tag_160:\n    tag_159:\n        /* \"contracts/Marketplace2/Marketplace.sol\":21336:21340  item */\n      dup2\n        /* \"contracts/Marketplace2/Marketplace.sol\":21336:21347  item.status */\n      0xa0\n      add\n      mload\n        /* \"contracts/Marketplace2/Marketplace.sol\":21336:21369  item.status == ItemStatus.SELLING */\n      0x01\n      dup2\n      gt\n      iszero\n      tag_161\n      jumpi\n      tag_162\n      tag_148\n      jump\t// in\n    tag_162:\n    tag_161:\n      eq\n        /* \"contracts/Marketplace2/Marketplace.sol\":21328:21388  require(item.status == ItemStatus.SELLING, \"Asset delisted\") */\n      tag_163\n      jumpi\n      mload(0x40)\n      0x08c379a000000000000000000000000000000000000000000000000000000000\n      dup2\n      mstore\n      0x04\n      add\n      tag_164\n      swap1\n      tag_165\n      jump\t// in\n    tag_164:\n      mload(0x40)\n      dup1\n      swap2\n      sub\n      swap1\n      revert\n    tag_163:\n        /* \"contracts/Marketplace2/Marketplace.sol\":21399:21413  address seller */\n      0x00\n        /* \"contracts/Marketplace2/Marketplace.sol\":21416:21420  item */\n      dup2\n        /* \"contracts/Marketplace2/Marketplace.sol\":21416:21427  item.seller */\n      0x40\n      add\n      mload\n        /* \"contracts/Marketplace2/Marketplace.sol\":21399:21427  address seller = item.seller */\n      swap1\n      pop\n        /* \"contracts/Marketplace2/Marketplace.sol\":21463:21464  0 */\n      0x00\n        /* \"contracts/Marketplace2/Marketplace.sol\":21445:21465  seller != address(0) */\n      0xffffffffffffffffffffffffffffffffffffffff\n      and\n        /* \"contracts/Marketplace2/Marketplace.sol\":21445:21451  seller */\n      dup2\n        /* \"contracts/Marketplace2/Marketplace.sol\":21445:21465  seller != address(0) */\n      0xffffffffffffffffffffffffffffffffffffffff\n      and\n      sub\n        /* \"contracts/Marketplace2/Marketplace.sol\":21437:21485  require(seller != address(0), \"Invalid address\") */\n      tag_166\n      jumpi\n      mload(0x40)\n      0x08c379a000000000000000000000000000000000000000000000000000000000\n      dup2\n      mstore\n      0x04\n      add\n      tag_167\n      swap1\n      tag_168\n      jump\t// in\n    tag_167:\n      mload(0x40)\n      dup1\n      swap2\n      sub\n      swap1\n      revert\n    tag_166:\n        /* \"contracts/Marketplace2/Marketplace.sol\":21526:21536  msg.sender */\n      caller\n        /* \"contracts/Marketplace2/Marketplace.sol\":21516:21536  seller == msg.sender */\n      0xffffffffffffffffffffffffffffffffffffffff\n      and\n        /* \"contracts/Marketplace2/Marketplace.sol\":21516:21522  seller */\n      dup2\n        /* \"contracts/Marketplace2/Marketplace.sol\":21516:21536  seller == msg.sender */\n      0xffffffffffffffffffffffffffffffffffffffff\n      and\n      eq\n        /* \"contracts/Marketplace2/Marketplace.sol\":21495:21584  require(... */\n      tag_169\n      jumpi\n      mload(0x40)\n      0x08c379a000000000000000000000000000000000000000000000000000000000\n      dup2\n      mstore\n      0x04\n      add\n      tag_170\n      swap1\n      tag_171\n      jump\t// in\n    tag_170:\n      mload(0x40)\n      dup1\n      swap2\n      sub\n      swap1\n      revert\n    tag_169:\n        /* \"contracts/Marketplace2/Marketplace.sol\":21594:21602  mainNFTs */\n      0x0b\n      0x00\n      swap1\n      sload\n      swap1\n      0x0100\n      exp\n      swap1\n      div\n      0xffffffffffffffffffffffffffffffffffffffff\n      and\n        /* \"contracts/Marketplace2/Marketplace.sol\":21594:21619  mainNFTs.safeTransferFrom */\n      0xffffffffffffffffffffffffffffffffffffffff\n      and\n      0x42842e0e\n        /* \"contracts/Marketplace2/Marketplace.sol\":21628:21632  this */\n      address\n        /* \"contracts/Marketplace2/Marketplace.sol\":21635:21641  seller */\n      dup4\n        /* \"contracts/Marketplace2/Marketplace.sol\":21643:21649  itemId */\n      dup8\n        /* \"contracts/Marketplace2/Marketplace.sol\":21594:21650  mainNFTs.safeTransferFrom(address(this), seller, itemId) */\n      mload(0x40)\n      dup5\n      0xffffffff\n      and\n      0xe0\n      shl\n      dup2\n      mstore\n      0x04\n      add\n      tag_172\n      swap4\n      swap3\n      swap2\n      swap1\n      tag_173\n      jump\t// in\n    tag_172:\n      0x00\n      mload(0x40)\n      dup1\n      dup4\n      sub\n      dup2\n      0x00\n      dup8\n      dup1\n      extcodesize\n      iszero\n      dup1\n      iszero\n      tag_174\n      jumpi\n      0x00\n      dup1\n      revert\n    tag_174:\n      pop\n      gas\n      call\n      iszero\n      dup1\n      iszero\n      tag_176\n      jumpi\n      returndatasize\n      0x00\n      dup1\n      returndatacopy\n      revert(0x00, returndatasize)\n    tag_176:\n      pop\n      pop\n      pop\n      pop\n        /* \"contracts/Marketplace2/Marketplace.sol\":21674:21690  ItemStatus.AVAIL */\n      0x00\n        /* \"contracts/Marketplace2/Marketplace.sol\":21660:21664  item */\n      dup3\n        /* \"contracts/Marketplace2/Marketplace.sol\":21660:21671  item.status */\n      0xa0\n      add\n        /* \"contracts/Marketplace2/Marketplace.sol\":21660:21690  item.status = ItemStatus.AVAIL */\n      swap1\n      0x01\n      dup2\n      gt\n      iszero\n      tag_177\n      jumpi\n      tag_178\n      tag_148\n      jump\t// in\n    tag_178:\n    tag_177:\n      swap1\n      dup2\n      0x01\n      dup2\n      gt\n      iszero\n      tag_179\n      jumpi\n      tag_180\n      tag_148\n      jump\t// in\n    tag_180:\n    tag_179:\n      dup2\n      mstore\n      pop\n      pop\n        /* \"contracts/Marketplace2/Marketplace.sol\":21707:21721  idToMarketItem */\n      0x0f\n        /* \"contracts/Marketplace2/Marketplace.sol\":21707:21729  idToMarketItem[itemId] */\n      0x00\n        /* \"contracts/Marketplace2/Marketplace.sol\":21722:21728  itemId */\n      dup6\n        /* \"contracts/Marketplace2/Marketplace.sol\":21707:21729  idToMarketItem[itemId] */\n      dup2\n      mstore\n      0x20\n      add\n      swap1\n      dup2\n      mstore\n      0x20\n      add\n      0x00\n      keccak256\n      0x00\n        /* \"contracts/Marketplace2/Marketplace.sol\":21700:21729  delete idToMarketItem[itemId] */\n      dup1\n      dup3\n      add\n      0x00\n      swap1\n      sstore\n      0x01\n      dup3\n      add\n      0x00\n      swap1\n      sstore\n      0x02\n      dup3\n      add\n      exp(0x0100, 0x00)\n      dup2\n      sload\n      swap1\n      0xffffffffffffffffffffffffffffffffffffffff\n      mul\n      not\n      and\n      swap1\n      sstore\n      0x03\n      dup3\n      add\n      exp(0x0100, 0x00)\n      dup2\n      sload\n      swap1\n      0xffffffffffffffffffffffffffffffffffffffff\n      mul\n      not\n      and\n      swap1\n      sstore\n      0x04\n      dup3\n      add\n      0x00\n      swap1\n      sstore\n      0x05\n      dup3\n      add\n      exp(0x0100, 0x00)\n      dup2\n      sload\n      swap1\n      0xff\n      mul\n      not\n      and\n      swap1\n      sstore\n      pop\n      pop\n        /* \"contracts/Marketplace2/Marketplace.sol\":21823:21831  deleteBy */\n      dup3\n        /* \"contracts/Marketplace2/Marketplace.sol\":21744:21870  DelistItemSuccessful(... */\n      0xffffffffffffffffffffffffffffffffffffffff\n      and\n        /* \"contracts/Marketplace2/Marketplace.sol\":21803:21809  itemId */\n      dup5\n        /* \"contracts/Marketplace2/Marketplace.sol\":21744:21870  DelistItemSuccessful(... */\n      0x72ffc2a266acba5f77e2b49400103cb61b428f37a97057ebe671e83fddd71e67\n        /* \"contracts/Marketplace2/Marketplace.sol\":21778:21782  item */\n      dup5\n        /* \"contracts/Marketplace2/Marketplace.sol\":21778:21789  item.itemId */\n      0x00\n      add\n      mload\n        /* \"contracts/Marketplace2/Marketplace.sol\":21845:21860  block.timestamp */\n      timestamp\n        /* \"contracts/Marketplace2/Marketplace.sol\":21744:21870  DelistItemSuccessful(... */\n      mload(0x40)\n      tag_181\n      swap3\n      swap2\n      swap1\n      tag_182\n      jump\t// in\n    tag_181:\n      mload(0x40)\n      dup1\n      swap2\n      sub\n      swap1\n      log3\n        /* \"contracts/Marketplace2/Marketplace.sol\":21162:21877  {... */\n      pop\n      pop\n      pop\n        /* \"contracts/Marketplace2/Marketplace.sol\":21119:21877  function delistItem(uint256 itemId) public {... */\n      pop\n      jump\t// out\n        /* \"contracts/Marketplace2/Marketplace.sol\":17805:17907  function setMainNFT(address _address) external onlyOwner {... */\n    tag_43:\n        /* \"contracts/Marketplace2/Marketplace.sol\":1899:1911  _msgSender() */\n      tag_184\n        /* \"contracts/Marketplace2/Marketplace.sol\":1899:1909  _msgSender */\n      tag_185\n        /* \"contracts/Marketplace2/Marketplace.sol\":1899:1911  _msgSender() */\n      jump\t// in\n    tag_184:\n        /* \"contracts/Marketplace2/Marketplace.sol\":1888:1911  owner() == _msgSender() */\n      0xffffffffffffffffffffffffffffffffffffffff\n      and\n        /* \"contracts/Marketplace2/Marketplace.sol\":1888:1895  owner() */\n      tag_186\n        /* \"contracts/Marketplace2/Marketplace.sol\":1888:1893  owner */\n      tag_103\n        /* \"contracts/Marketplace2/Marketplace.sol\":1888:1895  owner() */\n      jump\t// in\n    tag_186:\n        /* \"contracts/Marketplace2/Marketplace.sol\":1888:1911  owner() == _msgSender() */\n      0xffffffffffffffffffffffffffffffffffffffff\n      and\n      eq\n        /* \"contracts/Marketplace2/Marketplace.sol\":1880:1948  require(owner() == _msgSender(), \"Ownable: caller is not the owner\") */\n      tag_187\n      jumpi\n      mload(0x40)\n      0x08c379a000000000000000000000000000000000000000000000000000000000\n      dup2\n      mstore\n      0x04\n      add\n      tag_188\n      swap1\n      tag_189\n      jump\t// in\n    tag_188:\n      mload(0x40)\n      dup1\n      swap2\n      sub\n      swap1\n      revert\n    tag_187:\n        /* \"contracts/Marketplace2/Marketplace.sol\":17891:17899  _address */\n      dup1\n        /* \"contracts/Marketplace2/Marketplace.sol\":17872:17880  mainNFTs */\n      0x0b\n      0x00\n        /* \"contracts/Marketplace2/Marketplace.sol\":17872:17900  mainNFTs = IERC721(_address) */\n      0x0100\n      exp\n      dup2\n      sload\n      dup2\n      0xffffffffffffffffffffffffffffffffffffffff\n      mul\n      not\n      and\n      swap1\n      dup4\n      0xffffffffffffffffffffffffffffffffffffffff\n      and\n      mul\n      or\n      swap1\n      sstore\n      pop\n        /* \"contracts/Marketplace2/Marketplace.sol\":17805:17907  function setMainNFT(address _address) external onlyOwner {... */\n      pop\n      jump\t// out\n        /* \"contracts/Marketplace2/Marketplace.sol\":18020:18193  function getAlalalalala(uint tokenId) public view returns (bool) { ... */\n    tag_47:\n        /* \"contracts/Marketplace2/Marketplace.sol\":18079:18083  bool */\n      0x00\n        /* \"contracts/Marketplace2/Marketplace.sol\":18096:18128  IFactory.ingameItems memory item */\n      dup1\n        /* \"contracts/Marketplace2/Marketplace.sol\":18131:18138  factory */\n      0x0a\n      0x00\n      swap1\n      sload\n      swap1\n      0x0100\n      exp\n      swap1\n      div\n      0xffffffffffffffffffffffffffffffffffffffff\n      and\n        /* \"contracts/Marketplace2/Marketplace.sol\":18131:18149  factory.ingameItem */\n      0xffffffffffffffffffffffffffffffffffffffff\n      and\n      0xd30bdac9\n        /* \"contracts/Marketplace2/Marketplace.sol\":18150:18157  tokenId */\n      dup5\n        /* \"contracts/Marketplace2/Marketplace.sol\":18131:18158  factory.ingameItem(tokenId) */\n      mload(0x40)\n      dup3\n      0xffffffff\n      and\n      0xe0\n      shl\n      dup2\n      mstore\n      0x04\n      add\n      tag_192\n      swap2\n      swap1\n      tag_193\n      jump\t// in\n    tag_192:\n      0x00\n      mload(0x40)\n      dup1\n      dup4\n      sub\n      dup2\n      dup7\n      gas\n      staticcall\n      iszero\n      dup1\n      iszero\n      tag_195\n      jumpi\n      returndatasize\n      0x00\n      dup1\n      returndatacopy\n      revert(0x00, returndatasize)\n    tag_195:\n      pop\n      pop\n      pop\n      pop\n      mload(0x40)\n      returndatasize\n      0x00\n      dup3\n      returndatacopy\n      returndatasize\n      not(0x1f)\n      0x1f\n      dup3\n      add\n      and\n      dup3\n      add\n      dup1\n      0x40\n      mstore\n      pop\n      dup2\n      add\n      swap1\n      tag_196\n      swap2\n      swap1\n      tag_197\n      jump\t// in\n    tag_196:\n        /* \"contracts/Marketplace2/Marketplace.sol\":18096:18158  IFactory.ingameItems memory item = factory.ingameItem(tokenId) */\n      swap1\n      pop\n        /* \"contracts/Marketplace2/Marketplace.sol\":18175:18179  item */\n      dup1\n        /* \"contracts/Marketplace2/Marketplace.sol\":18175:18186  item.ingame */\n      0x80\n      add\n      mload\n        /* \"contracts/Marketplace2/Marketplace.sol\":18168:18186  return item.ingame */\n      swap2\n      pop\n      pop\n        /* \"contracts/Marketplace2/Marketplace.sol\":18020:18193  function getAlalalalala(uint tokenId) public view returns (bool) { ... */\n      swap2\n      swap1\n      pop\n      jump\t// out\n        /* \"contracts/Marketplace2/Marketplace.sol\":17696:17800  function setMainToken(address _address) external onlyOwner {... */\n    tag_53:\n        /* \"contracts/Marketplace2/Marketplace.sol\":1899:1911  _msgSender() */\n      tag_199\n        /* \"contracts/Marketplace2/Marketplace.sol\":1899:1909  _msgSender */\n      tag_185\n        /* \"contracts/Marketplace2/Marketplace.sol\":1899:1911  _msgSender() */\n      jump\t// in\n    tag_199:\n        /* \"contracts/Marketplace2/Marketplace.sol\":1888:1911  owner() == _msgSender() */\n      0xffffffffffffffffffffffffffffffffffffffff\n      and\n        /* \"contracts/Marketplace2/Marketplace.sol\":1888:1895  owner() */\n      tag_200\n        /* \"contracts/Marketplace2/Marketplace.sol\":1888:1893  owner */\n      tag_103\n        /* \"contracts/Marketplace2/Marketplace.sol\":1888:1895  owner() */\n      jump\t// in\n    tag_200:\n        /* \"contracts/Marketplace2/Marketplace.sol\":1888:1911  owner() == _msgSender() */\n      0xffffffffffffffffffffffffffffffffffffffff\n      and\n      eq\n        /* \"contracts/Marketplace2/Marketplace.sol\":1880:1948  require(owner() == _msgSender(), \"Ownable: caller is not the owner\") */\n      tag_201\n      jumpi\n      mload(0x40)\n      0x08c379a000000000000000000000000000000000000000000000000000000000\n      dup2\n      mstore\n      0x04\n      add\n      tag_202\n      swap1\n      tag_189\n      jump\t// in\n    tag_202:\n      mload(0x40)\n      dup1\n      swap2\n      sub\n      swap1\n      revert\n    tag_201:\n        /* \"contracts/Marketplace2/Marketplace.sol\":17784:17792  _address */\n      dup1\n        /* \"contracts/Marketplace2/Marketplace.sol\":17765:17774  mainToken */\n      0x09\n      0x00\n        /* \"contracts/Marketplace2/Marketplace.sol\":17765:17793  mainToken = IERC20(_address) */\n      0x0100\n      exp\n      dup2\n      sload\n      dup2\n      0xffffffffffffffffffffffffffffffffffffffff\n      mul\n      not\n      and\n      swap1\n      dup4\n      0xffffffffffffffffffffffffffffffffffffffff\n      and\n      mul\n      or\n      swap1\n      sstore\n      pop\n        /* \"contracts/Marketplace2/Marketplace.sol\":17696:17800  function setMainToken(address _address) external onlyOwner {... */\n      pop\n      jump\t// out\n        /* \"contracts/Marketplace2/Marketplace.sol\":20152:20305  function fetchMarketItem(uint itemId) public view returns (MarketItem memory) {... */\n    tag_57:\n        /* \"contracts/Marketplace2/Marketplace.sol\":20211:20228  MarketItem memory */\n      tag_204\n      tag_144\n      jump\t// in\n    tag_204:\n        /* \"contracts/Marketplace2/Marketplace.sol\":20236:20258  MarketItem memory item */\n      0x00\n        /* \"contracts/Marketplace2/Marketplace.sol\":20261:20275  idToMarketItem */\n      0x0f\n        /* \"contracts/Marketplace2/Marketplace.sol\":20261:20283  idToMarketItem[itemId] */\n      0x00\n        /* \"contracts/Marketplace2/Marketplace.sol\":20276:20282  itemId */\n      dup5\n        /* \"contracts/Marketplace2/Marketplace.sol\":20261:20283  idToMarketItem[itemId] */\n      dup2\n      mstore\n      0x20\n      add\n      swap1\n      dup2\n      mstore\n      0x20\n      add\n      0x00\n      keccak256\n        /* \"contracts/Marketplace2/Marketplace.sol\":20236:20283  MarketItem memory item = idToMarketItem[itemId] */\n      mload(0x40)\n      dup1\n      0xc0\n      add\n      0x40\n      mstore\n      swap1\n      dup2\n      0x00\n      dup3\n      add\n      sload\n      dup2\n      mstore\n      0x20\n      add\n      0x01\n      dup3\n      add\n      sload\n      dup2\n      mstore\n      0x20\n      add\n      0x02\n      dup3\n      add\n      0x00\n      swap1\n      sload\n      swap1\n      0x0100\n      exp\n      swap1\n      div\n      0xffffffffffffffffffffffffffffffffffffffff\n      and\n      0xffffffffffffffffffffffffffffffffffffffff\n      and\n      0xffffffffffffffffffffffffffffffffffffffff\n      and\n      dup2\n      mstore\n      0x20\n      add\n      0x03\n      dup3\n      add\n      0x00\n      swap1\n      sload\n      swap1\n      0x0100\n      exp\n      swap1\n      div\n      0xffffffffffffffffffffffffffffffffffffffff\n      and\n      0xffffffffffffffffffffffffffffffffffffffff\n      and\n      0xffffffffffffffffffffffffffffffffffffffff\n      and\n      dup2\n      mstore\n      0x20\n      add\n      0x04\n      dup3\n      add\n      sload\n      dup2\n      mstore\n      0x20\n      add\n      0x05\n      dup3\n      add\n      0x00\n      swap1\n      sload\n      swap1\n      0x0100\n      exp\n      swap1\n      div\n      0xff\n      and\n      0x01\n      dup2\n      gt\n      iszero\n      tag_206\n      jumpi\n      tag_207\n      tag_148\n      jump\t// in\n    tag_207:\n    tag_206:\n      0x01\n      dup2\n      gt\n      iszero\n      tag_208\n      jumpi\n      tag_209\n      tag_148\n      jump\t// in\n    tag_209:\n    tag_208:\n      dup2\n      mstore\n      pop\n      pop\n      swap1\n      pop\n        /* \"contracts/Marketplace2/Marketplace.sol\":20296:20300  item */\n      dup1\n        /* \"contracts/Marketplace2/Marketplace.sol\":20289:20300  return item */\n      swap2\n      pop\n      pop\n        /* \"contracts/Marketplace2/Marketplace.sol\":20152:20305  function fetchMarketItem(uint itemId) public view returns (MarketItem memory) {... */\n      swap2\n      swap1\n      pop\n      jump\t// out\n        /* \"contracts/Marketplace2/Marketplace.sol\":15910:15970  bytes4 public constant ERC721_Interface = bytes4(0x80ac58cd) */\n    tag_61:\n        /* \"contracts/Marketplace2/Marketplace.sol\":15959:15969  0x80ac58cd */\n      0x80ac58cd\n        /* \"contracts/Marketplace2/Marketplace.sol\":15952:15970  bytes4(0x80ac58cd) */\n      0xe0\n      shl\n        /* \"contracts/Marketplace2/Marketplace.sol\":15910:15970  bytes4 public constant ERC721_Interface = bytes4(0x80ac58cd) */\n      dup2\n      jump\t// out\n        /* \"contracts/Marketplace2/Marketplace.sol\":18197:18960  function createMarketItem(... */\n    tag_67:\n        /* \"contracts/Marketplace2/Marketplace.sol\":14165:14166  2 */\n      0x02\n        /* \"contracts/Marketplace2/Marketplace.sol\":14746:14753  _status */\n      sload(0x00)\n        /* \"contracts/Marketplace2/Marketplace.sol\":14746:14765  _status != _ENTERED */\n      sub\n        /* \"contracts/Marketplace2/Marketplace.sol\":14738:14801  require(_status != _ENTERED, \"ReentrancyGuard: reentrant call\") */\n      tag_211\n      jumpi\n      mload(0x40)\n      0x08c379a000000000000000000000000000000000000000000000000000000000\n      dup2\n      mstore\n      0x04\n      add\n      tag_212\n      swap1\n      tag_213\n      jump\t// in\n    tag_212:\n      mload(0x40)\n      dup1\n      swap2\n      sub\n      swap1\n      revert\n    tag_211:\n        /* \"contracts/Marketplace2/Marketplace.sol\":14165:14166  2 */\n      0x02\n        /* \"contracts/Marketplace2/Marketplace.sol\":14876:14883  _status */\n      0x00\n        /* \"contracts/Marketplace2/Marketplace.sol\":14876:14894  _status = _ENTERED */\n      dup2\n      swap1\n      sstore\n      pop\n        /* \"contracts/Marketplace2/Marketplace.sol\":18317:18318  0 */\n      0x00\n        /* \"contracts/Marketplace2/Marketplace.sol\":18309:18314  price */\n      dup2\n        /* \"contracts/Marketplace2/Marketplace.sol\":18309:18318  price > 0 */\n      gt\n        /* \"contracts/Marketplace2/Marketplace.sol\":18301:18351  require(price > 0, \"Price must be at least 1 wei\") */\n      tag_215\n      jumpi\n      mload(0x40)\n      0x08c379a000000000000000000000000000000000000000000000000000000000\n      dup2\n      mstore\n      0x04\n      add\n      tag_216\n      swap1\n      tag_217\n      jump\t// in\n    tag_216:\n      mload(0x40)\n      dup1\n      swap2\n      sub\n      swap1\n      revert\n    tag_215:\n        /* \"contracts/Marketplace2/Marketplace.sol\":18358:18390  IFactory.ingameItems memory item */\n      0x00\n        /* \"contracts/Marketplace2/Marketplace.sol\":18393:18400  factory */\n      0x0a\n      0x00\n      swap1\n      sload\n      swap1\n      0x0100\n      exp\n      swap1\n      div\n      0xffffffffffffffffffffffffffffffffffffffff\n      and\n        /* \"contracts/Marketplace2/Marketplace.sol\":18393:18411  factory.ingameItem */\n      0xffffffffffffffffffffffffffffffffffffffff\n      and\n      0xd30bdac9\n        /* \"contracts/Marketplace2/Marketplace.sol\":18412:18419  tokenId */\n      dup5\n        /* \"contracts/Marketplace2/Marketplace.sol\":18393:18420  factory.ingameItem(tokenId) */\n      mload(0x40)\n      dup3\n      0xffffffff\n      and\n      0xe0\n      shl\n      dup2\n      mstore\n      0x04\n      add\n      tag_218\n      swap2\n      swap1\n      tag_193\n      jump\t// in\n    tag_218:\n      0x00\n      mload(0x40)\n      dup1\n      dup4\n      sub\n      dup2\n      dup7\n      gas\n      staticcall\n      iszero\n      dup1\n      iszero\n      tag_220\n      jumpi\n      returndatasize\n      0x00\n      dup1\n      returndatacopy\n      revert(0x00, returndatasize)\n    tag_220:\n      pop\n      pop\n      pop\n      pop\n      mload(0x40)\n      returndatasize\n      0x00\n      dup3\n      returndatacopy\n      returndatasize\n      not(0x1f)\n      0x1f\n      dup3\n      add\n      and\n      dup3\n      add\n      dup1\n      0x40\n      mstore\n      pop\n      dup2\n      add\n      swap1\n      tag_221\n      swap2\n      swap1\n      tag_197\n      jump\t// in\n    tag_221:\n        /* \"contracts/Marketplace2/Marketplace.sol\":18358:18420  IFactory.ingameItems memory item = factory.ingameItem(tokenId) */\n      swap1\n      pop\n        /* \"contracts/Marketplace2/Marketplace.sol\":18449:18454  false */\n      0x00\n        /* \"contracts/Marketplace2/Marketplace.sol\":18434:18454  item.ingame == false */\n      iszero\n      iszero\n        /* \"contracts/Marketplace2/Marketplace.sol\":18434:18438  item */\n      dup2\n        /* \"contracts/Marketplace2/Marketplace.sol\":18434:18445  item.ingame */\n      0x80\n      add\n      mload\n        /* \"contracts/Marketplace2/Marketplace.sol\":18434:18454  item.ingame == false */\n      iszero\n      iszero\n      eq\n        /* \"contracts/Marketplace2/Marketplace.sol\":18426:18487  require(item.ingame == false, \"Item is not available now !\" ) */\n      tag_222\n      jumpi\n      mload(0x40)\n      0x08c379a000000000000000000000000000000000000000000000000000000000\n      dup2\n      mstore\n      0x04\n      add\n      tag_223\n      swap1\n      tag_224\n      jump\t// in\n    tag_223:\n      mload(0x40)\n      dup1\n      swap2\n      sub\n      swap1\n      revert\n    tag_222:\n        /* \"contracts/Marketplace2/Marketplace.sol\":18493:18513  _itemIds.increment() */\n      tag_225\n        /* \"contracts/Marketplace2/Marketplace.sol\":18493:18501  _itemIds */\n      0x0d\n        /* \"contracts/Marketplace2/Marketplace.sol\":18493:18511  _itemIds.increment */\n      tag_226\n        /* \"contracts/Marketplace2/Marketplace.sol\":18493:18513  _itemIds.increment() */\n      jump\t// in\n    tag_225:\n        /* \"contracts/Marketplace2/Marketplace.sol\":18519:18533  uint256 itemId */\n      0x00\n        /* \"contracts/Marketplace2/Marketplace.sol\":18536:18554  _itemIds.current() */\n      tag_227\n        /* \"contracts/Marketplace2/Marketplace.sol\":18536:18544  _itemIds */\n      0x0d\n        /* \"contracts/Marketplace2/Marketplace.sol\":18536:18552  _itemIds.current */\n      tag_228\n        /* \"contracts/Marketplace2/Marketplace.sol\":18536:18554  _itemIds.current() */\n      jump\t// in\n    tag_227:\n        /* \"contracts/Marketplace2/Marketplace.sol\":18519:18554  uint256 itemId = _itemIds.current() */\n      swap1\n      pop\n        /* \"contracts/Marketplace2/Marketplace.sol\":18591:18711  MarketItem(... */\n      mload(0x40)\n      dup1\n      0xc0\n      add\n      0x40\n      mstore\n      dup1\n        /* \"contracts/Marketplace2/Marketplace.sol\":18609:18615  itemId */\n      dup3\n        /* \"contracts/Marketplace2/Marketplace.sol\":18591:18711  MarketItem(... */\n      dup2\n      mstore\n      0x20\n      add\n        /* \"contracts/Marketplace2/Marketplace.sol\":18623:18630  tokenId */\n      dup6\n        /* \"contracts/Marketplace2/Marketplace.sol\":18591:18711  MarketItem(... */\n      dup2\n      mstore\n      0x20\n      add\n        /* \"contracts/Marketplace2/Marketplace.sol\":18638:18648  msg.sender */\n      caller\n        /* \"contracts/Marketplace2/Marketplace.sol\":18591:18711  MarketItem(... */\n      0xffffffffffffffffffffffffffffffffffffffff\n      and\n      dup2\n      mstore\n      0x20\n      add\n        /* \"contracts/Marketplace2/Marketplace.sol\":18664:18665  0 */\n      0x00\n        /* \"contracts/Marketplace2/Marketplace.sol\":18591:18711  MarketItem(... */\n      0xffffffffffffffffffffffffffffffffffffffff\n      and\n      dup2\n      mstore\n      0x20\n      add\n        /* \"contracts/Marketplace2/Marketplace.sol\":18674:18679  price */\n      dup5\n        /* \"contracts/Marketplace2/Marketplace.sol\":18591:18711  MarketItem(... */\n      dup2\n      mstore\n      0x20\n      add\n        /* \"contracts/Marketplace2/Marketplace.sol\":18687:18705  ItemStatus.SELLING */\n      0x01\n        /* \"contracts/Marketplace2/Marketplace.sol\":18591:18711  MarketItem(... */\n      dup1\n      dup2\n      gt\n      iszero\n      tag_229\n      jumpi\n      tag_230\n      tag_148\n      jump\t// in\n    tag_230:\n    tag_229:\n      dup2\n      mstore\n      pop\n        /* \"contracts/Marketplace2/Marketplace.sol\":18565:18579  idToMarketItem */\n      0x0f\n        /* \"contracts/Marketplace2/Marketplace.sol\":18565:18587  idToMarketItem[itemId] */\n      0x00\n        /* \"contracts/Marketplace2/Marketplace.sol\":18580:18586  itemId */\n      dup4\n        /* \"contracts/Marketplace2/Marketplace.sol\":18565:18587  idToMarketItem[itemId] */\n      dup2\n      mstore\n      0x20\n      add\n      swap1\n      dup2\n      mstore\n      0x20\n      add\n      0x00\n      keccak256\n        /* \"contracts/Marketplace2/Marketplace.sol\":18565:18711  idToMarketItem[itemId] =  MarketItem(... */\n      0x00\n      dup3\n      add\n      mload\n      dup2\n      0x00\n      add\n      sstore\n      0x20\n      dup3\n      add\n      mload\n      dup2\n      0x01\n      add\n      sstore\n      0x40\n      dup3\n      add\n      mload\n      dup2\n      0x02\n      add\n      exp(0x0100, 0x00)\n      dup2\n      sload\n      dup2\n      0xffffffffffffffffffffffffffffffffffffffff\n      mul\n      not\n      and\n      swap1\n      dup4\n      0xffffffffffffffffffffffffffffffffffffffff\n      and\n      mul\n      or\n      swap1\n      sstore\n      pop\n      0x60\n      dup3\n      add\n      mload\n      dup2\n      0x03\n      add\n      exp(0x0100, 0x00)\n      dup2\n      sload\n      dup2\n      0xffffffffffffffffffffffffffffffffffffffff\n      mul\n      not\n      and\n      swap1\n      dup4\n      0xffffffffffffffffffffffffffffffffffffffff\n      and\n      mul\n      or\n      swap1\n      sstore\n      pop\n      0x80\n      dup3\n      add\n      mload\n      dup2\n      0x04\n      add\n      sstore\n      0xa0\n      dup3\n      add\n      mload\n      dup2\n      0x05\n      add\n      exp(0x0100, 0x00)\n      dup2\n      sload\n      dup2\n      0xff\n      mul\n      not\n      and\n      swap1\n      dup4\n      0x01\n      dup2\n      gt\n      iszero\n      tag_231\n      jumpi\n      tag_232\n      tag_148\n      jump\t// in\n    tag_232:\n    tag_231:\n      mul\n      or\n      swap1\n      sstore\n      pop\n      swap1\n      pop\n      pop\n        /* \"contracts/Marketplace2/Marketplace.sol\":18718:18726  mainNFTs */\n      0x0b\n      0x00\n      swap1\n      sload\n      swap1\n      0x0100\n      exp\n      swap1\n      div\n      0xffffffffffffffffffffffffffffffffffffffff\n      and\n        /* \"contracts/Marketplace2/Marketplace.sol\":18718:18739  mainNFTs.transferFrom */\n      0xffffffffffffffffffffffffffffffffffffffff\n      and\n      0x23b872dd\n        /* \"contracts/Marketplace2/Marketplace.sol\":18740:18750  msg.sender */\n      caller\n        /* \"contracts/Marketplace2/Marketplace.sol\":18760:18764  this */\n      address\n        /* \"contracts/Marketplace2/Marketplace.sol\":18767:18774  tokenId */\n      dup8\n        /* \"contracts/Marketplace2/Marketplace.sol\":18718:18775  mainNFTs.transferFrom(msg.sender, address(this), tokenId) */\n      mload(0x40)\n      dup5\n      0xffffffff\n      and\n      0xe0\n      shl\n      dup2\n      mstore\n      0x04\n      add\n      tag_233\n      swap4\n      swap3\n      swap2\n      swap1\n      tag_173\n      jump\t// in\n    tag_233:\n      0x00\n      mload(0x40)\n      dup1\n      dup4\n      sub\n      dup2\n      0x00\n      dup8\n      dup1\n      extcodesize\n      iszero\n      dup1\n      iszero\n      tag_234\n      jumpi\n      0x00\n      dup1\n      revert\n    tag_234:\n      pop\n      gas\n      call\n      iszero\n      dup1\n      iszero\n      tag_236\n      jumpi\n      returndatasize\n      0x00\n      dup1\n      returndatacopy\n      revert(0x00, returndatasize)\n    tag_236:\n      pop\n      pop\n      pop\n      pop\n        /* \"contracts/Marketplace2/Marketplace.sol\":18781:18788  factory */\n      0x0a\n      0x00\n      swap1\n      sload\n      swap1\n      0x0100\n      exp\n      swap1\n      div\n      0xffffffffffffffffffffffffffffffffffffffff\n      and\n        /* \"contracts/Marketplace2/Marketplace.sol\":18781:18807  factory.setOwnerIngameItem */\n      0xffffffffffffffffffffffffffffffffffffffff\n      and\n      0xc1e9518a\n        /* \"contracts/Marketplace2/Marketplace.sol\":18808:18818  msg.sender */\n      caller\n        /* \"contracts/Marketplace2/Marketplace.sol\":18827:18831  this */\n      address\n        /* \"contracts/Marketplace2/Marketplace.sol\":18834:18841  tokenId */\n      dup8\n        /* \"contracts/Marketplace2/Marketplace.sol\":18781:18842  factory.setOwnerIngameItem(msg.sender,address(this), tokenId) */\n      mload(0x40)\n      dup5\n      0xffffffff\n      and\n      0xe0\n      shl\n      dup2\n      mstore\n      0x04\n      add\n      tag_237\n      swap4\n      swap3\n      swap2\n      swap1\n      tag_173\n      jump\t// in\n    tag_237:\n      0x00\n      mload(0x40)\n      dup1\n      dup4\n      sub\n      dup2\n      0x00\n      dup8\n      dup1\n      extcodesize\n      iszero\n      dup1\n      iszero\n      tag_238\n      jumpi\n      0x00\n      dup1\n      revert\n    tag_238:\n      pop\n      gas\n      call\n      iszero\n      dup1\n      iszero\n      tag_240\n      jumpi\n      returndatasize\n      0x00\n      dup1\n      returndatacopy\n      revert(0x00, returndatasize)\n    tag_240:\n      pop\n      pop\n      pop\n      pop\n        /* \"contracts/Marketplace2/Marketplace.sol\":18893:18900  tokenId */\n      dup4\n        /* \"contracts/Marketplace2/Marketplace.sol\":18879:18885  itemId */\n      dup2\n        /* \"contracts/Marketplace2/Marketplace.sol\":18854:18955  MarketItemCreated(... */\n      0x38690a554ffbc44eb6a75016e47d517d0db8e6c37494adc68d6d0b2c66f0ab21\n        /* \"contracts/Marketplace2/Marketplace.sol\":18908:18918  msg.sender */\n      caller\n        /* \"contracts/Marketplace2/Marketplace.sol\":18934:18935  0 */\n      0x00\n        /* \"contracts/Marketplace2/Marketplace.sol\":18944:18949  price */\n      dup8\n        /* \"contracts/Marketplace2/Marketplace.sol\":18854:18955  MarketItemCreated(... */\n      mload(0x40)\n      tag_241\n      swap4\n      swap3\n      swap2\n      swap1\n      tag_173\n      jump\t// in\n    tag_241:\n      mload(0x40)\n      dup1\n      swap2\n      sub\n      swap1\n      log3\n        /* \"contracts/Marketplace2/Marketplace.sol\":18295:18960  {... */\n      pop\n      pop\n        /* \"contracts/Marketplace2/Marketplace.sol\":14122:14123  1 */\n      0x01\n        /* \"contracts/Marketplace2/Marketplace.sol\":15049:15056  _status */\n      0x00\n        /* \"contracts/Marketplace2/Marketplace.sol\":15049:15071  _status = _NOT_ENTERED */\n      dup2\n      swap1\n      sstore\n      pop\n        /* \"contracts/Marketplace2/Marketplace.sol\":18197:18960  function createMarketItem(... */\n      pop\n      pop\n      jump\t// out\n        /* \"contracts/Marketplace2/Marketplace.sol\":16171:16194  IERC20 public mainToken */\n    tag_70:\n      0x09\n      0x00\n      swap1\n      sload\n      swap1\n      0x0100\n      exp\n      swap1\n      div\n      0xffffffffffffffffffffffffffffffffffffffff\n      and\n      dup2\n      jump\t// out\n        /* \"contracts/Marketplace2/Marketplace.sol\":15871:15903  MarketItem public allMarketItems */\n    tag_75:\n      0x01\n      dup1\n      0x00\n      add\n      sload\n      swap1\n      dup1\n      0x01\n      add\n      sload\n      swap1\n      dup1\n      0x02\n      add\n      0x00\n      swap1\n      sload\n      swap1\n      0x0100\n      exp\n      swap1\n      div\n      0xffffffffffffffffffffffffffffffffffffffff\n      and\n      swap1\n      dup1\n      0x03\n      add\n      0x00\n      swap1\n      sload\n      swap1\n      0x0100\n      exp\n      swap1\n      div\n      0xffffffffffffffffffffffffffffffffffffffff\n      and\n      swap1\n      dup1\n      0x04\n      add\n      sload\n      swap1\n      dup1\n      0x05\n      add\n      0x00\n      swap1\n      sload\n      swap1\n      0x0100\n      exp\n      swap1\n      div\n      0xff\n      and\n      swap1\n      pop\n      dup7\n      jump\t// out\n        /* \"contracts/Marketplace2/Marketplace.sol\":17912:18014  function setFactory(address _address) external onlyOwner {... */\n    tag_81:\n        /* \"contracts/Marketplace2/Marketplace.sol\":1899:1911  _msgSender() */\n      tag_243\n        /* \"contracts/Marketplace2/Marketplace.sol\":1899:1909  _msgSender */\n      tag_185\n        /* \"contracts/Marketplace2/Marketplace.sol\":1899:1911  _msgSender() */\n      jump\t// in\n    tag_243:\n        /* \"contracts/Marketplace2/Marketplace.sol\":1888:1911  owner() == _msgSender() */\n      0xffffffffffffffffffffffffffffffffffffffff\n      and\n        /* \"contracts/Marketplace2/Marketplace.sol\":1888:1895  owner() */\n      tag_244\n        /* \"contracts/Marketplace2/Marketplace.sol\":1888:1893  owner */\n      tag_103\n        /* \"contracts/Marketplace2/Marketplace.sol\":1888:1895  owner() */\n      jump\t// in\n    tag_244:\n        /* \"contracts/Marketplace2/Marketplace.sol\":1888:1911  owner() == _msgSender() */\n      0xffffffffffffffffffffffffffffffffffffffff\n      and\n      eq\n        /* \"contracts/Marketplace2/Marketplace.sol\":1880:1948  require(owner() == _msgSender(), \"Ownable: caller is not the owner\") */\n      tag_245\n      jumpi\n      mload(0x40)\n      0x08c379a000000000000000000000000000000000000000000000000000000000\n      dup2\n      mstore\n      0x04\n      add\n      tag_246\n      swap1\n      tag_189\n      jump\t// in\n    tag_246:\n      mload(0x40)\n      dup1\n      swap2\n      sub\n      swap1\n      revert\n    tag_245:\n        /* \"contracts/Marketplace2/Marketplace.sol\":17998:18006  _address */\n      dup1\n        /* \"contracts/Marketplace2/Marketplace.sol\":17979:17986  factory */\n      0x0a\n      0x00\n        /* \"contracts/Marketplace2/Marketplace.sol\":17979:18007  factory = IFactory(_address) */\n      0x0100\n      exp\n      dup2\n      sload\n      dup2\n      0xffffffffffffffffffffffffffffffffffffffff\n      mul\n      not\n      and\n      swap1\n      dup4\n      0xffffffffffffffffffffffffffffffffffffffff\n      and\n      mul\n      or\n      swap1\n      sstore\n      pop\n        /* \"contracts/Marketplace2/Marketplace.sol\":17912:18014  function setFactory(address _address) external onlyOwner {... */\n      pop\n      jump\t// out\n        /* \"contracts/Marketplace2/Marketplace.sol\":16101:16164  mapping(address => mapping(uint256 => MarketItem)) public items */\n    tag_86:\n      mstore(0x20, 0x08)\n      dup2\n      0x00\n      mstore\n      mstore(0x20, keccak256(0x00, 0x40))\n      dup1\n      0x00\n      mstore\n      keccak256(0x00, 0x40)\n      0x00\n      swap2\n      pop\n      swap2\n      pop\n      pop\n      dup1\n      0x00\n      add\n      sload\n      swap1\n      dup1\n      0x01\n      add\n      sload\n      swap1\n      dup1\n      0x02\n      add\n      0x00\n      swap1\n      sload\n      swap1\n      0x0100\n      exp\n      swap1\n      div\n      0xffffffffffffffffffffffffffffffffffffffff\n      and\n      swap1\n      dup1\n      0x03\n      add\n      0x00\n      swap1\n      sload\n      swap1\n      0x0100\n      exp\n      swap1\n      div\n      0xffffffffffffffffffffffffffffffffffffffff\n      and\n      swap1\n      dup1\n      0x04\n      add\n      sload\n      swap1\n      dup1\n      0x05\n      add\n      0x00\n      swap1\n      sload\n      swap1\n      0x0100\n      exp\n      swap1\n      div\n      0xff\n      and\n      swap1\n      pop\n      dup7\n      jump\t// out\n        /* \"contracts/Marketplace2/Marketplace.sol\":20413:21115  function fetchMySelling() public view returns (MarketItem[] memory) {... */\n    tag_90:\n        /* \"contracts/Marketplace2/Marketplace.sol\":20460:20479  MarketItem[] memory */\n      0x60\n        /* \"contracts/Marketplace2/Marketplace.sol\":20487:20506  uint totalItemCount */\n      0x00\n        /* \"contracts/Marketplace2/Marketplace.sol\":20509:20527  _itemIds.current() */\n      tag_249\n        /* \"contracts/Marketplace2/Marketplace.sol\":20509:20517  _itemIds */\n      0x0d\n        /* \"contracts/Marketplace2/Marketplace.sol\":20509:20525  _itemIds.current */\n      tag_228\n        /* \"contracts/Marketplace2/Marketplace.sol\":20509:20527  _itemIds.current() */\n      jump\t// in\n    tag_249:\n        /* \"contracts/Marketplace2/Marketplace.sol\":20487:20527  uint totalItemCount = _itemIds.current() */\n      swap1\n      pop\n        /* \"contracts/Marketplace2/Marketplace.sol\":20533:20547  uint itemCount */\n      0x00\n        /* \"contracts/Marketplace2/Marketplace.sol\":20557:20574  uint currentIndex */\n      dup1\n        /* \"contracts/Marketplace2/Marketplace.sol\":20590:20596  uint i */\n      0x00\n        /* \"contracts/Marketplace2/Marketplace.sol\":20585:20721  for (uint i = 0; i < totalItemCount; i++) {... */\n    tag_250:\n        /* \"contracts/Marketplace2/Marketplace.sol\":20606:20620  totalItemCount */\n      dup4\n        /* \"contracts/Marketplace2/Marketplace.sol\":20602:20603  i */\n      dup2\n        /* \"contracts/Marketplace2/Marketplace.sol\":20602:20620  i < totalItemCount */\n      lt\n        /* \"contracts/Marketplace2/Marketplace.sol\":20585:20721  for (uint i = 0; i < totalItemCount; i++) {... */\n      iszero\n      tag_251\n      jumpi\n        /* \"contracts/Marketplace2/Marketplace.sol\":20670:20680  msg.sender */\n      caller\n        /* \"contracts/Marketplace2/Marketplace.sol\":20639:20680  idToMarketItem[i + 1].owner == msg.sender */\n      0xffffffffffffffffffffffffffffffffffffffff\n      and\n        /* \"contracts/Marketplace2/Marketplace.sol\":20639:20653  idToMarketItem */\n      0x0f\n        /* \"contracts/Marketplace2/Marketplace.sol\":20639:20660  idToMarketItem[i + 1] */\n      0x00\n        /* \"contracts/Marketplace2/Marketplace.sol\":20658:20659  1 */\n      0x01\n        /* \"contracts/Marketplace2/Marketplace.sol\":20654:20655  i */\n      dup5\n        /* \"contracts/Marketplace2/Marketplace.sol\":20654:20659  i + 1 */\n      tag_253\n      swap2\n      swap1\n      tag_254\n      jump\t// in\n    tag_253:\n        /* \"contracts/Marketplace2/Marketplace.sol\":20639:20660  idToMarketItem[i + 1] */\n      dup2\n      mstore\n      0x20\n      add\n      swap1\n      dup2\n      mstore\n      0x20\n      add\n      0x00\n      keccak256\n        /* \"contracts/Marketplace2/Marketplace.sol\":20639:20666  idToMarketItem[i + 1].owner */\n      0x03\n      add\n      0x00\n      swap1\n      sload\n      swap1\n      0x0100\n      exp\n      swap1\n      div\n      0xffffffffffffffffffffffffffffffffffffffff\n      and\n        /* \"contracts/Marketplace2/Marketplace.sol\":20639:20680  idToMarketItem[i + 1].owner == msg.sender */\n      0xffffffffffffffffffffffffffffffffffffffff\n      and\n      sub\n        /* \"contracts/Marketplace2/Marketplace.sol\":20635:20715  if (idToMarketItem[i + 1].owner == msg.sender) {... */\n      tag_255\n      jumpi\n        /* \"contracts/Marketplace2/Marketplace.sol\":20705:20706  1 */\n      0x01\n        /* \"contracts/Marketplace2/Marketplace.sol\":20692:20706  itemCount += 1 */\n      dup4\n      tag_256\n      swap2\n      swap1\n      tag_254\n      jump\t// in\n    tag_256:\n      swap3\n      pop\n        /* \"contracts/Marketplace2/Marketplace.sol\":20635:20715  if (idToMarketItem[i + 1].owner == msg.sender) {... */\n    tag_255:\n        /* \"contracts/Marketplace2/Marketplace.sol\":20622:20625  i++ */\n      dup1\n      dup1\n      tag_257\n      swap1\n      tag_258\n      jump\t// in\n    tag_257:\n      swap2\n      pop\n      pop\n        /* \"contracts/Marketplace2/Marketplace.sol\":20585:20721  for (uint i = 0; i < totalItemCount; i++) {... */\n      jump(tag_250)\n    tag_251:\n      pop\n        /* \"contracts/Marketplace2/Marketplace.sol\":20727:20752  MarketItem[] memory items */\n      0x00\n        /* \"contracts/Marketplace2/Marketplace.sol\":20772:20781  itemCount */\n      dup3\n        /* \"contracts/Marketplace2/Marketplace.sol\":20755:20782  new MarketItem[](itemCount) */\n      0xffffffffffffffff\n      dup2\n      gt\n      iszero\n      tag_259\n      jumpi\n      tag_260\n      tag_261\n      jump\t// in\n    tag_260:\n    tag_259:\n      mload(0x40)\n      swap1\n      dup1\n      dup3\n      mstore\n      dup1\n      0x20\n      mul\n      0x20\n      add\n      dup3\n      add\n      0x40\n      mstore\n      dup1\n      iszero\n      tag_262\n      jumpi\n      dup2\n      0x20\n      add\n    tag_263:\n      tag_264\n      tag_144\n      jump\t// in\n    tag_264:\n      dup2\n      mstore\n      0x20\n      add\n      swap1\n      0x01\n      swap1\n      sub\n      swap1\n      dup2\n      tag_263\n      jumpi\n      swap1\n      pop\n    tag_262:\n      pop\n        /* \"contracts/Marketplace2/Marketplace.sol\":20727:20782  MarketItem[] memory items = new MarketItem[](itemCount) */\n      swap1\n      pop\n        /* \"contracts/Marketplace2/Marketplace.sol\":20793:20799  uint i */\n      0x00\n        /* \"contracts/Marketplace2/Marketplace.sol\":20788:21093  for (uint i = 0; i < totalItemCount; i++) {... */\n    tag_265:\n        /* \"contracts/Marketplace2/Marketplace.sol\":20809:20823  totalItemCount */\n      dup5\n        /* \"contracts/Marketplace2/Marketplace.sol\":20805:20806  i */\n      dup2\n        /* \"contracts/Marketplace2/Marketplace.sol\":20805:20823  i < totalItemCount */\n      lt\n        /* \"contracts/Marketplace2/Marketplace.sol\":20788:21093  for (uint i = 0; i < totalItemCount; i++) {... */\n      iszero\n      tag_266\n      jumpi\n        /* \"contracts/Marketplace2/Marketplace.sol\":20873:20883  msg.sender */\n      caller\n        /* \"contracts/Marketplace2/Marketplace.sol\":20842:20883  idToMarketItem[i + 1].owner == msg.sender */\n      0xffffffffffffffffffffffffffffffffffffffff\n      and\n        /* \"contracts/Marketplace2/Marketplace.sol\":20842:20856  idToMarketItem */\n      0x0f\n        /* \"contracts/Marketplace2/Marketplace.sol\":20842:20863  idToMarketItem[i + 1] */\n      0x00\n        /* \"contracts/Marketplace2/Marketplace.sol\":20861:20862  1 */\n      0x01\n        /* \"contracts/Marketplace2/Marketplace.sol\":20857:20858  i */\n      dup5\n        /* \"contracts/Marketplace2/Marketplace.sol\":20857:20862  i + 1 */\n      tag_268\n      swap2\n      swap1\n      tag_254\n      jump\t// in\n    tag_268:\n        /* \"contracts/Marketplace2/Marketplace.sol\":20842:20863  idToMarketItem[i + 1] */\n      dup2\n      mstore\n      0x20\n      add\n      swap1\n      dup2\n      mstore\n      0x20\n      add\n      0x00\n      keccak256\n        /* \"contracts/Marketplace2/Marketplace.sol\":20842:20869  idToMarketItem[i + 1].owner */\n      0x03\n      add\n      0x00\n      swap1\n      sload\n      swap1\n      0x0100\n      exp\n      swap1\n      div\n      0xffffffffffffffffffffffffffffffffffffffff\n      and\n        /* \"contracts/Marketplace2/Marketplace.sol\":20842:20883  idToMarketItem[i + 1].owner == msg.sender */\n      0xffffffffffffffffffffffffffffffffffffffff\n      and\n      sub\n        /* \"contracts/Marketplace2/Marketplace.sol\":20838:21087  if (idToMarketItem[i + 1].owner == msg.sender) {... */\n      tag_269\n      jumpi\n        /* \"contracts/Marketplace2/Marketplace.sol\":20895:20909  uint currentId */\n      0x00\n        /* \"contracts/Marketplace2/Marketplace.sol\":20912:20926  idToMarketItem */\n      0x0f\n        /* \"contracts/Marketplace2/Marketplace.sol\":20912:20933  idToMarketItem[i + 1] */\n      0x00\n        /* \"contracts/Marketplace2/Marketplace.sol\":20931:20932  1 */\n      0x01\n        /* \"contracts/Marketplace2/Marketplace.sol\":20927:20928  i */\n      dup5\n        /* \"contracts/Marketplace2/Marketplace.sol\":20927:20932  i + 1 */\n      tag_270\n      swap2\n      swap1\n      tag_254\n      jump\t// in\n    tag_270:\n        /* \"contracts/Marketplace2/Marketplace.sol\":20912:20933  idToMarketItem[i + 1] */\n      dup2\n      mstore\n      0x20\n      add\n      swap1\n      dup2\n      mstore\n      0x20\n      add\n      0x00\n      keccak256\n        /* \"contracts/Marketplace2/Marketplace.sol\":20912:20940  idToMarketItem[i + 1].itemId */\n      0x00\n      add\n      sload\n        /* \"contracts/Marketplace2/Marketplace.sol\":20895:20940  uint currentId = idToMarketItem[i + 1].itemId */\n      swap1\n      pop\n        /* \"contracts/Marketplace2/Marketplace.sol\":20950:20980  MarketItem storage currentItem */\n      0x00\n        /* \"contracts/Marketplace2/Marketplace.sol\":20983:20997  idToMarketItem */\n      0x0f\n        /* \"contracts/Marketplace2/Marketplace.sol\":20983:21008  idToMarketItem[currentId] */\n      0x00\n        /* \"contracts/Marketplace2/Marketplace.sol\":20998:21007  currentId */\n      dup4\n        /* \"contracts/Marketplace2/Marketplace.sol\":20983:21008  idToMarketItem[currentId] */\n      dup2\n      mstore\n      0x20\n      add\n      swap1\n      dup2\n      mstore\n      0x20\n      add\n      0x00\n      keccak256\n        /* \"contracts/Marketplace2/Marketplace.sol\":20950:21008  MarketItem storage currentItem = idToMarketItem[currentId] */\n      swap1\n      pop\n        /* \"contracts/Marketplace2/Marketplace.sol\":21040:21051  currentItem */\n      dup1\n        /* \"contracts/Marketplace2/Marketplace.sol\":21018:21051  items[currentIndex] = currentItem */\n      mload(0x40)\n      dup1\n      0xc0\n      add\n      0x40\n      mstore\n      swap1\n      dup2\n      0x00\n      dup3\n      add\n      sload\n      dup2\n      mstore\n      0x20\n      add\n      0x01\n      dup3\n      add\n      sload\n      dup2\n      mstore\n      0x20\n      add\n      0x02\n      dup3\n      add\n      0x00\n      swap1\n      sload\n      swap1\n      0x0100\n      exp\n      swap1\n      div\n      0xffffffffffffffffffffffffffffffffffffffff\n      and\n      0xffffffffffffffffffffffffffffffffffffffff\n      and\n      0xffffffffffffffffffffffffffffffffffffffff\n      and\n      dup2\n      mstore\n      0x20\n      add\n      0x03\n      dup3\n      add\n      0x00\n      swap1\n      sload\n      swap1\n      0x0100\n      exp\n      swap1\n      div\n      0xffffffffffffffffffffffffffffffffffffffff\n      and\n      0xffffffffffffffffffffffffffffffffffffffff\n      and\n      0xffffffffffffffffffffffffffffffffffffffff\n      and\n      dup2\n      mstore\n      0x20\n      add\n      0x04\n      dup3\n      add\n      sload\n      dup2\n      mstore\n      0x20\n      add\n      0x05\n      dup3\n      add\n      0x00\n      swap1\n      sload\n      swap1\n      0x0100\n      exp\n      swap1\n      div\n      0xff\n      and\n      0x01\n      dup2\n      gt\n      iszero\n      tag_271\n      jumpi\n      tag_272\n      tag_148\n      jump\t// in\n    tag_272:\n    tag_271:\n      0x01\n      dup2\n      gt\n      iszero\n      tag_273\n      jumpi\n      tag_274\n      tag_148\n      jump\t// in\n    tag_274:\n    tag_273:\n      dup2\n      mstore\n      pop\n      pop\n        /* \"contracts/Marketplace2/Marketplace.sol\":21018:21023  items */\n      dup5\n        /* \"contracts/Marketplace2/Marketplace.sol\":21024:21036  currentIndex */\n      dup7\n        /* \"contracts/Marketplace2/Marketplace.sol\":21018:21037  items[currentIndex] */\n      dup2\n      mload\n      dup2\n      lt\n      tag_275\n      jumpi\n      tag_276\n      tag_277\n      jump\t// in\n    tag_276:\n    tag_275:\n      0x20\n      mul\n      0x20\n      add\n      add\n        /* \"contracts/Marketplace2/Marketplace.sol\":21018:21051  items[currentIndex] = currentItem */\n      dup2\n      swap1\n      mstore\n      pop\n        /* \"contracts/Marketplace2/Marketplace.sol\":21077:21078  1 */\n      0x01\n        /* \"contracts/Marketplace2/Marketplace.sol\":21061:21078  currentIndex += 1 */\n      dup6\n      tag_278\n      swap2\n      swap1\n      tag_254\n      jump\t// in\n    tag_278:\n      swap5\n      pop\n        /* \"contracts/Marketplace2/Marketplace.sol\":20885:21087  {... */\n      pop\n      pop\n        /* \"contracts/Marketplace2/Marketplace.sol\":20838:21087  if (idToMarketItem[i + 1].owner == msg.sender) {... */\n    tag_269:\n        /* \"contracts/Marketplace2/Marketplace.sol\":20825:20828  i++ */\n      dup1\n      dup1\n      tag_279\n      swap1\n      tag_258\n      jump\t// in\n    tag_279:\n      swap2\n      pop\n      pop\n        /* \"contracts/Marketplace2/Marketplace.sol\":20788:21093  for (uint i = 0; i < totalItemCount; i++) {... */\n      jump(tag_265)\n    tag_266:\n      pop\n        /* \"contracts/Marketplace2/Marketplace.sol\":21105:21110  items */\n      dup1\n        /* \"contracts/Marketplace2/Marketplace.sol\":21098:21110  return items */\n      swap5\n      pop\n      pop\n      pop\n      pop\n      pop\n        /* \"contracts/Marketplace2/Marketplace.sol\":20413:21115  function fetchMySelling() public view returns (MarketItem[] memory) {... */\n      swap1\n      jump\t// out\n        /* \"contracts/Marketplace2/Marketplace.sol\":2308:2409  function renounceOwnership() public virtual onlyOwner {... */\n    tag_95:\n        /* \"contracts/Marketplace2/Marketplace.sol\":1899:1911  _msgSender() */\n      tag_281\n        /* \"contracts/Marketplace2/Marketplace.sol\":1899:1909  _msgSender */\n      tag_185\n        /* \"contracts/Marketplace2/Marketplace.sol\":1899:1911  _msgSender() */\n      jump\t// in\n    tag_281:\n        /* \"contracts/Marketplace2/Marketplace.sol\":1888:1911  owner() == _msgSender() */\n      0xffffffffffffffffffffffffffffffffffffffff\n      and\n        /* \"contracts/Marketplace2/Marketplace.sol\":1888:1895  owner() */\n      tag_282\n        /* \"contracts/Marketplace2/Marketplace.sol\":1888:1893  owner */\n      tag_103\n        /* \"contracts/Marketplace2/Marketplace.sol\":1888:1895  owner() */\n      jump\t// in\n    tag_282:\n        /* \"contracts/Marketplace2/Marketplace.sol\":1888:1911  owner() == _msgSender() */\n      0xffffffffffffffffffffffffffffffffffffffff\n      and\n      eq\n        /* \"contracts/Marketplace2/Marketplace.sol\":1880:1948  require(owner() == _msgSender(), \"Ownable: caller is not the owner\") */\n      tag_283\n      jumpi\n      mload(0x40)\n      0x08c379a000000000000000000000000000000000000000000000000000000000\n      dup2\n      mstore\n      0x04\n      add\n      tag_284\n      swap1\n      tag_189\n      jump\t// in\n    tag_284:\n      mload(0x40)\n      dup1\n      swap2\n      sub\n      swap1\n      revert\n    tag_283:\n        /* \"contracts/Marketplace2/Marketplace.sol\":2372:2402  _transferOwnership(address(0)) */\n      tag_286\n        /* \"contracts/Marketplace2/Marketplace.sol\":2399:2400  0 */\n      0x00\n        /* \"contracts/Marketplace2/Marketplace.sol\":2372:2390  _transferOwnership */\n      tag_287\n        /* \"contracts/Marketplace2/Marketplace.sol\":2372:2402  _transferOwnership(address(0)) */\n      jump\t// in\n    tag_286:\n        /* \"contracts/Marketplace2/Marketplace.sol\":2308:2409  function renounceOwnership() public virtual onlyOwner {... */\n      jump\t// out\n        /* \"contracts/Marketplace2/Marketplace.sol\":16259:16285  uint8 public bnbFeePercent */\n    tag_98:\n      0x0b\n      0x14\n      swap1\n      sload\n      swap1\n      0x0100\n      exp\n      swap1\n      div\n      0xff\n      and\n      dup2\n      jump\t// out\n        /* \"contracts/Marketplace2/Marketplace.sol\":1676:1761  function owner() public view virtual returns (address) {... */\n    tag_103:\n        /* \"contracts/Marketplace2/Marketplace.sol\":1722:1729  address */\n      0x00\n        /* \"contracts/Marketplace2/Marketplace.sol\":1748:1754  _owner */\n      0x0c\n      0x00\n      swap1\n      sload\n      swap1\n      0x0100\n      exp\n      swap1\n      div\n      0xffffffffffffffffffffffffffffffffffffffff\n      and\n        /* \"contracts/Marketplace2/Marketplace.sol\":1741:1754  return _owner */\n      swap1\n      pop\n        /* \"contracts/Marketplace2/Marketplace.sol\":1676:1761  function owner() public view virtual returns (address) {... */\n      swap1\n      jump\t// out\n        /* \"contracts/Marketplace2/Marketplace.sol\":19142:20148  function createMarketSale(... */\n    tag_109:\n        /* \"contracts/Marketplace2/Marketplace.sol\":14165:14166  2 */\n      0x02\n        /* \"contracts/Marketplace2/Marketplace.sol\":14746:14753  _status */\n      sload(0x00)\n        /* \"contracts/Marketplace2/Marketplace.sol\":14746:14765  _status != _ENTERED */\n      sub\n        /* \"contracts/Marketplace2/Marketplace.sol\":14738:14801  require(_status != _ENTERED, \"ReentrancyGuard: reentrant call\") */\n      tag_290\n      jumpi\n      mload(0x40)\n      0x08c379a000000000000000000000000000000000000000000000000000000000\n      dup2\n      mstore\n      0x04\n      add\n      tag_291\n      swap1\n      tag_213\n      jump\t// in\n    tag_291:\n      mload(0x40)\n      dup1\n      swap2\n      sub\n      swap1\n      revert\n    tag_290:\n        /* \"contracts/Marketplace2/Marketplace.sol\":14165:14166  2 */\n      0x02\n        /* \"contracts/Marketplace2/Marketplace.sol\":14876:14883  _status */\n      0x00\n        /* \"contracts/Marketplace2/Marketplace.sol\":14876:14894  _status = _ENTERED */\n      dup2\n      swap1\n      sstore\n      pop\n        /* \"contracts/Marketplace2/Marketplace.sol\":19240:19250  uint price */\n      0x00\n        /* \"contracts/Marketplace2/Marketplace.sol\":19253:19267  idToMarketItem */\n      0x0f\n        /* \"contracts/Marketplace2/Marketplace.sol\":19253:19275  idToMarketItem[itemId] */\n      0x00\n        /* \"contracts/Marketplace2/Marketplace.sol\":19268:19274  itemId */\n      dup5\n        /* \"contracts/Marketplace2/Marketplace.sol\":19253:19275  idToMarketItem[itemId] */\n      dup2\n      mstore\n      0x20\n      add\n      swap1\n      dup2\n      mstore\n      0x20\n      add\n      0x00\n      keccak256\n        /* \"contracts/Marketplace2/Marketplace.sol\":19253:19281  idToMarketItem[itemId].price */\n      0x04\n      add\n      sload\n        /* \"contracts/Marketplace2/Marketplace.sol\":19240:19281  uint price = idToMarketItem[itemId].price */\n      swap1\n      pop\n        /* \"contracts/Marketplace2/Marketplace.sol\":19287:19299  uint tokenId */\n      0x00\n        /* \"contracts/Marketplace2/Marketplace.sol\":19302:19316  idToMarketItem */\n      0x0f\n        /* \"contracts/Marketplace2/Marketplace.sol\":19302:19324  idToMarketItem[itemId] */\n      0x00\n        /* \"contracts/Marketplace2/Marketplace.sol\":19317:19323  itemId */\n      dup6\n        /* \"contracts/Marketplace2/Marketplace.sol\":19302:19324  idToMarketItem[itemId] */\n      dup2\n      mstore\n      0x20\n      add\n      swap1\n      dup2\n      mstore\n      0x20\n      add\n      0x00\n      keccak256\n        /* \"contracts/Marketplace2/Marketplace.sol\":19302:19332  idToMarketItem[itemId].tokenId */\n      0x01\n      add\n      sload\n        /* \"contracts/Marketplace2/Marketplace.sol\":19287:19332  uint tokenId = idToMarketItem[itemId].tokenId */\n      swap1\n      pop\n        /* \"contracts/Marketplace2/Marketplace.sol\":19338:19352  address seller */\n      0x00\n        /* \"contracts/Marketplace2/Marketplace.sol\":19356:19370  idToMarketItem */\n      0x0f\n        /* \"contracts/Marketplace2/Marketplace.sol\":19356:19378  idToMarketItem[itemId] */\n      0x00\n        /* \"contracts/Marketplace2/Marketplace.sol\":19371:19377  itemId */\n      dup7\n        /* \"contracts/Marketplace2/Marketplace.sol\":19356:19378  idToMarketItem[itemId] */\n      dup2\n      mstore\n      0x20\n      add\n      swap1\n      dup2\n      mstore\n      0x20\n      add\n      0x00\n      keccak256\n        /* \"contracts/Marketplace2/Marketplace.sol\":19356:19385  idToMarketItem[itemId].seller */\n      0x02\n      add\n      0x00\n      swap1\n      sload\n      swap1\n      0x0100\n      exp\n      swap1\n      div\n      0xffffffffffffffffffffffffffffffffffffffff\n      and\n        /* \"contracts/Marketplace2/Marketplace.sol\":19338:19385  address seller =  idToMarketItem[itemId].seller */\n      swap1\n      pop\n        /* \"contracts/Marketplace2/Marketplace.sol\":19391:19423  IFactory.ingameItems memory item */\n      0x00\n        /* \"contracts/Marketplace2/Marketplace.sol\":19426:19433  factory */\n      0x0a\n      0x00\n      swap1\n      sload\n      swap1\n      0x0100\n      exp\n      swap1\n      div\n      0xffffffffffffffffffffffffffffffffffffffff\n      and\n        /* \"contracts/Marketplace2/Marketplace.sol\":19426:19444  factory.ingameItem */\n      0xffffffffffffffffffffffffffffffffffffffff\n      and\n      0xd30bdac9\n        /* \"contracts/Marketplace2/Marketplace.sol\":19445:19452  tokenId */\n      dup5\n        /* \"contracts/Marketplace2/Marketplace.sol\":19426:19453  factory.ingameItem(tokenId) */\n      mload(0x40)\n      dup3\n      0xffffffff\n      and\n      0xe0\n      shl\n      dup2\n      mstore\n      0x04\n      add\n      tag_293\n      swap2\n      swap1\n      tag_193\n      jump\t// in\n    tag_293:\n      0x00\n      mload(0x40)\n      dup1\n      dup4\n      sub\n      dup2\n      dup7\n      gas\n      staticcall\n      iszero\n      dup1\n      iszero\n      tag_295\n      jumpi\n      returndatasize\n      0x00\n      dup1\n      returndatacopy\n      revert(0x00, returndatasize)\n    tag_295:\n      pop\n      pop\n      pop\n      pop\n      mload(0x40)\n      returndatasize\n      0x00\n      dup3\n      returndatacopy\n      returndatasize\n      not(0x1f)\n      0x1f\n      dup3\n      add\n      and\n      dup3\n      add\n      dup1\n      0x40\n      mstore\n      pop\n      dup2\n      add\n      swap1\n      tag_296\n      swap2\n      swap1\n      tag_197\n      jump\t// in\n    tag_296:\n        /* \"contracts/Marketplace2/Marketplace.sol\":19391:19453  IFactory.ingameItems memory item = factory.ingameItem(tokenId) */\n      swap1\n      pop\n        /* \"contracts/Marketplace2/Marketplace.sol\":19477:19482  price */\n      dup4\n        /* \"contracts/Marketplace2/Marketplace.sol\":19467:19473  amount */\n      dup6\n        /* \"contracts/Marketplace2/Marketplace.sol\":19467:19482  amount == price */\n      eq\n        /* \"contracts/Marketplace2/Marketplace.sol\":19459:19551  require(amount == price, \"Please submit the asking price in order to complete the purchase\") */\n      tag_297\n      jumpi\n      mload(0x40)\n      0x08c379a000000000000000000000000000000000000000000000000000000000\n      dup2\n      mstore\n      0x04\n      add\n      tag_298\n      swap1\n      tag_299\n      jump\t// in\n    tag_298:\n      mload(0x40)\n      dup1\n      swap2\n      sub\n      swap1\n      revert\n    tag_297:\n        /* \"contracts/Marketplace2/Marketplace.sol\":19580:19585  false */\n      0x00\n        /* \"contracts/Marketplace2/Marketplace.sol\":19565:19585  item.ingame == false */\n      iszero\n      iszero\n        /* \"contracts/Marketplace2/Marketplace.sol\":19565:19569  item */\n      dup2\n        /* \"contracts/Marketplace2/Marketplace.sol\":19565:19576  item.ingame */\n      0x80\n      add\n      mload\n        /* \"contracts/Marketplace2/Marketplace.sol\":19565:19585  item.ingame == false */\n      iszero\n      iszero\n      eq\n        /* \"contracts/Marketplace2/Marketplace.sol\":19557:19617  require(item.ingame == false, \"Item is not available now !\") */\n      tag_300\n      jumpi\n      mload(0x40)\n      0x08c379a000000000000000000000000000000000000000000000000000000000\n      dup2\n      mstore\n      0x04\n      add\n      tag_301\n      swap1\n      tag_224\n      jump\t// in\n    tag_301:\n      mload(0x40)\n      dup1\n      swap2\n      sub\n      swap1\n      revert\n    tag_300:\n        /* \"contracts/Marketplace2/Marketplace.sol\":19624:19633  mainToken */\n      0x09\n      0x00\n      swap1\n      sload\n      swap1\n      0x0100\n      exp\n      swap1\n      div\n      0xffffffffffffffffffffffffffffffffffffffff\n      and\n        /* \"contracts/Marketplace2/Marketplace.sol\":19624:19646  mainToken.transferFrom */\n      0xffffffffffffffffffffffffffffffffffffffff\n      and\n      0x23b872dd\n        /* \"contracts/Marketplace2/Marketplace.sol\":19647:19657  msg.sender */\n      caller\n        /* \"contracts/Marketplace2/Marketplace.sol\":19659:19673  idToMarketItem */\n      0x0f\n        /* \"contracts/Marketplace2/Marketplace.sol\":19659:19681  idToMarketItem[itemId] */\n      0x00\n        /* \"contracts/Marketplace2/Marketplace.sol\":19674:19680  itemId */\n      dup11\n        /* \"contracts/Marketplace2/Marketplace.sol\":19659:19681  idToMarketItem[itemId] */\n      dup2\n      mstore\n      0x20\n      add\n      swap1\n      dup2\n      mstore\n      0x20\n      add\n      0x00\n      keccak256\n        /* \"contracts/Marketplace2/Marketplace.sol\":19659:19688  idToMarketItem[itemId].seller */\n      0x02\n      add\n      0x00\n      swap1\n      sload\n      swap1\n      0x0100\n      exp\n      swap1\n      div\n      0xffffffffffffffffffffffffffffffffffffffff\n      and\n        /* \"contracts/Marketplace2/Marketplace.sol\":19691:19697  amount */\n      dup9\n        /* \"contracts/Marketplace2/Marketplace.sol\":19624:19698  mainToken.transferFrom(msg.sender, idToMarketItem[itemId].seller , amount) */\n      mload(0x40)\n      dup5\n      0xffffffff\n      and\n      0xe0\n      shl\n      dup2\n      mstore\n      0x04\n      add\n      tag_302\n      swap4\n      swap3\n      swap2\n      swap1\n      tag_173\n      jump\t// in\n    tag_302:\n      0x20\n      mload(0x40)\n      dup1\n      dup4\n      sub\n      dup2\n      0x00\n      dup8\n      gas\n      call\n      iszero\n      dup1\n      iszero\n      tag_304\n      jumpi\n      returndatasize\n      0x00\n      dup1\n      returndatacopy\n      revert(0x00, returndatasize)\n    tag_304:\n      pop\n      pop\n      pop\n      pop\n      mload(0x40)\n      returndatasize\n      not(0x1f)\n      0x1f\n      dup3\n      add\n      and\n      dup3\n      add\n      dup1\n      0x40\n      mstore\n      pop\n      dup2\n      add\n      swap1\n      tag_305\n      swap2\n      swap1\n      tag_306\n      jump\t// in\n    tag_305:\n      pop\n        /* \"contracts/Marketplace2/Marketplace.sol\":19704:19712  mainNFTs */\n      0x0b\n      0x00\n      swap1\n      sload\n      swap1\n      0x0100\n      exp\n      swap1\n      div\n      0xffffffffffffffffffffffffffffffffffffffff\n      and\n        /* \"contracts/Marketplace2/Marketplace.sol\":19704:19725  mainNFTs.transferFrom */\n      0xffffffffffffffffffffffffffffffffffffffff\n      and\n      0x23b872dd\n        /* \"contracts/Marketplace2/Marketplace.sol\":19734:19738  this */\n      address\n        /* \"contracts/Marketplace2/Marketplace.sol\":19749:19759  msg.sender */\n      caller\n        /* \"contracts/Marketplace2/Marketplace.sol\":19762:19769  tokenId */\n      dup7\n        /* \"contracts/Marketplace2/Marketplace.sol\":19704:19770  mainNFTs.transferFrom(address(this), address(msg.sender), tokenId) */\n      mload(0x40)\n      dup5\n      0xffffffff\n      and\n      0xe0\n      shl\n      dup2\n      mstore\n      0x04\n      add\n      tag_307\n      swap4\n      swap3\n      swap2\n      swap1\n      tag_173\n      jump\t// in\n    tag_307:\n      0x00\n      mload(0x40)\n      dup1\n      dup4\n      sub\n      dup2\n      0x00\n      dup8\n      dup1\n      extcodesize\n      iszero\n      dup1\n      iszero\n      tag_308\n      jumpi\n      0x00\n      dup1\n      revert\n    tag_308:\n      pop\n      gas\n      call\n      iszero\n      dup1\n      iszero\n      tag_310\n      jumpi\n      returndatasize\n      0x00\n      dup1\n      returndatacopy\n      revert(0x00, returndatasize)\n    tag_310:\n      pop\n      pop\n      pop\n      pop\n        /* \"contracts/Marketplace2/Marketplace.sol\":19815:19825  msg.sender */\n      caller\n        /* \"contracts/Marketplace2/Marketplace.sol\":19776:19790  idToMarketItem */\n      0x0f\n        /* \"contracts/Marketplace2/Marketplace.sol\":19776:19798  idToMarketItem[itemId] */\n      0x00\n        /* \"contracts/Marketplace2/Marketplace.sol\":19791:19797  itemId */\n      dup9\n        /* \"contracts/Marketplace2/Marketplace.sol\":19776:19798  idToMarketItem[itemId] */\n      dup2\n      mstore\n      0x20\n      add\n      swap1\n      dup2\n      mstore\n      0x20\n      add\n      0x00\n      keccak256\n        /* \"contracts/Marketplace2/Marketplace.sol\":19776:19804  idToMarketItem[itemId].owner */\n      0x03\n      add\n      0x00\n        /* \"contracts/Marketplace2/Marketplace.sol\":19776:19826  idToMarketItem[itemId].owner = address(msg.sender) */\n      0x0100\n      exp\n      dup2\n      sload\n      dup2\n      0xffffffffffffffffffffffffffffffffffffffff\n      mul\n      not\n      and\n      swap1\n      dup4\n      0xffffffffffffffffffffffffffffffffffffffff\n      and\n      mul\n      or\n      swap1\n      sstore\n      pop\n        /* \"contracts/Marketplace2/Marketplace.sol\":19864:19880  ItemStatus.AVAIL */\n      0x00\n        /* \"contracts/Marketplace2/Marketplace.sol\":19832:19846  idToMarketItem */\n      0x0f\n        /* \"contracts/Marketplace2/Marketplace.sol\":19832:19854  idToMarketItem[itemId] */\n      0x00\n        /* \"contracts/Marketplace2/Marketplace.sol\":19847:19853  itemId */\n      dup9\n        /* \"contracts/Marketplace2/Marketplace.sol\":19832:19854  idToMarketItem[itemId] */\n      dup2\n      mstore\n      0x20\n      add\n      swap1\n      dup2\n      mstore\n      0x20\n      add\n      0x00\n      keccak256\n        /* \"contracts/Marketplace2/Marketplace.sol\":19832:19861  idToMarketItem[itemId].status */\n      0x05\n      add\n      0x00\n        /* \"contracts/Marketplace2/Marketplace.sol\":19832:19880  idToMarketItem[itemId].status = ItemStatus.AVAIL */\n      0x0100\n      exp\n      dup2\n      sload\n      dup2\n      0xff\n      mul\n      not\n      and\n      swap1\n      dup4\n      0x01\n      dup2\n      gt\n      iszero\n      tag_311\n      jumpi\n      tag_312\n      tag_148\n      jump\t// in\n    tag_312:\n    tag_311:\n      mul\n      or\n      swap1\n      sstore\n      pop\n        /* \"contracts/Marketplace2/Marketplace.sol\":19886:19893  factory */\n      0x0a\n      0x00\n      swap1\n      sload\n      swap1\n      0x0100\n      exp\n      swap1\n      div\n      0xffffffffffffffffffffffffffffffffffffffff\n      and\n        /* \"contracts/Marketplace2/Marketplace.sol\":19886:19912  factory.setOwnerIngameItem */\n      0xffffffffffffffffffffffffffffffffffffffff\n      and\n      0xc1e9518a\n        /* \"contracts/Marketplace2/Marketplace.sol\":19921:19925  this */\n      address\n        /* \"contracts/Marketplace2/Marketplace.sol\":19927:19937  msg.sender */\n      caller\n        /* \"contracts/Marketplace2/Marketplace.sol\":19939:19946  tokenId */\n      dup7\n        /* \"contracts/Marketplace2/Marketplace.sol\":19886:19947  factory.setOwnerIngameItem(address(this),msg.sender, tokenId) */\n      mload(0x40)\n      dup5\n      0xffffffff\n      and\n      0xe0\n      shl\n      dup2\n      mstore\n      0x04\n      add\n      tag_313\n      swap4\n      swap3\n      swap2\n      swap1\n      tag_173\n      jump\t// in\n    tag_313:\n      0x00\n      mload(0x40)\n      dup1\n      dup4\n      sub\n      dup2\n      0x00\n      dup8\n      dup1\n      extcodesize\n      iszero\n      dup1\n      iszero\n      tag_314\n      jumpi\n      0x00\n      dup1\n      revert\n    tag_314:\n      pop\n      gas\n      call\n      iszero\n      dup1\n      iszero\n      tag_316\n      jumpi\n      returndatasize\n      0x00\n      dup1\n      returndatacopy\n      revert(0x00, returndatasize)\n    tag_316:\n      pop\n      pop\n      pop\n      pop\n        /* \"contracts/Marketplace2/Marketplace.sol\":19953:19975  _itemsSold.increment() */\n      tag_317\n        /* \"contracts/Marketplace2/Marketplace.sol\":19953:19963  _itemsSold */\n      0x0e\n        /* \"contracts/Marketplace2/Marketplace.sol\":19953:19973  _itemsSold.increment */\n      tag_226\n        /* \"contracts/Marketplace2/Marketplace.sol\":19953:19975  _itemsSold.increment() */\n      jump\t// in\n    tag_317:\n        /* \"contracts/Marketplace2/Marketplace.sol\":20086:20096  msg.sender */\n      caller\n        /* \"contracts/Marketplace2/Marketplace.sol\":19987:20143  BuyItemSuccessful(... */\n      0xffffffffffffffffffffffffffffffffffffffff\n      and\n        /* \"contracts/Marketplace2/Marketplace.sol\":20047:20053  seller */\n      dup3\n        /* \"contracts/Marketplace2/Marketplace.sol\":19987:20143  BuyItemSuccessful(... */\n      0xffffffffffffffffffffffffffffffffffffffff\n      and\n        /* \"contracts/Marketplace2/Marketplace.sol\":20030:20037  tokenId */\n      dup5\n        /* \"contracts/Marketplace2/Marketplace.sol\":19987:20143  BuyItemSuccessful(... */\n      0x551327aee12d0a8b3ede8d0e3182a40a5ff3ed9f1811dd622915db30b609b7df\n        /* \"contracts/Marketplace2/Marketplace.sol\":20014:20020  itemId */\n      dup10\n        /* \"contracts/Marketplace2/Marketplace.sol\":20063:20068  price */\n      dup9\n        /* \"contracts/Marketplace2/Marketplace.sol\":20122:20137  block.timestamp */\n      timestamp\n        /* \"contracts/Marketplace2/Marketplace.sol\":19987:20143  BuyItemSuccessful(... */\n      mload(0x40)\n      tag_318\n      swap4\n      swap3\n      swap2\n      swap1\n      tag_319\n      jump\t// in\n    tag_318:\n      mload(0x40)\n      dup1\n      swap2\n      sub\n      swap1\n      log4\n        /* \"contracts/Marketplace2/Marketplace.sol\":19234:20148  {... */\n      pop\n      pop\n      pop\n      pop\n        /* \"contracts/Marketplace2/Marketplace.sol\":14122:14123  1 */\n      0x01\n        /* \"contracts/Marketplace2/Marketplace.sol\":15049:15056  _status */\n      0x00\n        /* \"contracts/Marketplace2/Marketplace.sol\":15049:15071  _status = _NOT_ENTERED */\n      dup2\n      swap1\n      sstore\n      pop\n        /* \"contracts/Marketplace2/Marketplace.sol\":19142:20148  function createMarketSale(... */\n      pop\n      pop\n      jump\t// out\n        /* \"contracts/Marketplace2/Marketplace.sol\":16291:16318  uint8 public antaFeePercent */\n    tag_112:\n      0x0b\n      0x15\n      swap1\n      sload\n      swap1\n      0x0100\n      exp\n      swap1\n      div\n      0xff\n      and\n      dup2\n      jump\t// out\n        /* \"contracts/Marketplace2/Marketplace.sol\":16200:16223  IFactory public factory */\n    tag_116:\n      0x0a\n      0x00\n      swap1\n      sload\n      swap1\n      0x0100\n      exp\n      swap1\n      div\n      0xffffffffffffffffffffffffffffffffffffffff\n      and\n      dup2\n      jump\t// out\n        /* \"contracts/Marketplace2/Marketplace.sol\":17553:17690  function getMarketItem(uint256 marketItemId) public view returns (MarketItem memory) {... */\n    tag_122:\n        /* \"contracts/Marketplace2/Marketplace.sol\":17619:17636  MarketItem memory */\n      tag_320\n      tag_144\n      jump\t// in\n    tag_320:\n        /* \"contracts/Marketplace2/Marketplace.sol\":17655:17669  idToMarketItem */\n      0x0f\n        /* \"contracts/Marketplace2/Marketplace.sol\":17655:17683  idToMarketItem[marketItemId] */\n      0x00\n        /* \"contracts/Marketplace2/Marketplace.sol\":17670:17682  marketItemId */\n      dup4\n        /* \"contracts/Marketplace2/Marketplace.sol\":17655:17683  idToMarketItem[marketItemId] */\n      dup2\n      mstore\n      0x20\n      add\n      swap1\n      dup2\n      mstore\n      0x20\n      add\n      0x00\n      keccak256\n        /* \"contracts/Marketplace2/Marketplace.sol\":17648:17683  return idToMarketItem[marketItemId] */\n      mload(0x40)\n      dup1\n      0xc0\n      add\n      0x40\n      mstore\n      swap1\n      dup2\n      0x00\n      dup3\n      add\n      sload\n      dup2\n      mstore\n      0x20\n      add\n      0x01\n      dup3\n      add\n      sload\n      dup2\n      mstore\n      0x20\n      add\n      0x02\n      dup3\n      add\n      0x00\n      swap1\n      sload\n      swap1\n      0x0100\n      exp\n      swap1\n      div\n      0xffffffffffffffffffffffffffffffffffffffff\n      and\n      0xffffffffffffffffffffffffffffffffffffffff\n      and\n      0xffffffffffffffffffffffffffffffffffffffff\n      and\n      dup2\n      mstore\n      0x20\n      add\n      0x03\n      dup3\n      add\n      0x00\n      swap1\n      sload\n      swap1\n      0x0100\n      exp\n      swap1\n      div\n      0xffffffffffffffffffffffffffffffffffffffff\n      and\n      0xffffffffffffffffffffffffffffffffffffffff\n      and\n      0xffffffffffffffffffffffffffffffffffffffff\n      and\n      dup2\n      mstore\n      0x20\n      add\n      0x04\n      dup3\n      add\n      sload\n      dup2\n      mstore\n      0x20\n      add\n      0x05\n      dup3\n      add\n      0x00\n      swap1\n      sload\n      swap1\n      0x0100\n      exp\n      swap1\n      div\n      0xff\n      and\n      0x01\n      dup2\n      gt\n      iszero\n      tag_322\n      jumpi\n      tag_323\n      tag_148\n      jump\t// in\n    tag_323:\n    tag_322:\n      0x01\n      dup2\n      gt\n      iszero\n      tag_324\n      jumpi\n      tag_325\n      tag_148\n      jump\t// in\n    tag_325:\n    tag_324:\n      dup2\n      mstore\n      pop\n      pop\n      swap1\n      pop\n        /* \"contracts/Marketplace2/Marketplace.sol\":17553:17690  function getMarketItem(uint256 marketItemId) public view returns (MarketItem memory) {... */\n      swap2\n      swap1\n      pop\n      jump\t// out\n        /* \"contracts/Marketplace2/Marketplace.sol\":18966:19138  function testView(uint256 tokenId) public view returns (address) { ... */\n    tag_127:\n        /* \"contracts/Marketplace2/Marketplace.sol\":19022:19029  address */\n      0x00\n        /* \"contracts/Marketplace2/Marketplace.sol\":19042:19074  IFactory.ingameItems memory item */\n      dup1\n        /* \"contracts/Marketplace2/Marketplace.sol\":19077:19084  factory */\n      0x0a\n      0x00\n      swap1\n      sload\n      swap1\n      0x0100\n      exp\n      swap1\n      div\n      0xffffffffffffffffffffffffffffffffffffffff\n      and\n        /* \"contracts/Marketplace2/Marketplace.sol\":19077:19095  factory.ingameItem */\n      0xffffffffffffffffffffffffffffffffffffffff\n      and\n      0xd30bdac9\n        /* \"contracts/Marketplace2/Marketplace.sol\":19096:19103  tokenId */\n      dup5\n        /* \"contracts/Marketplace2/Marketplace.sol\":19077:19104  factory.ingameItem(tokenId) */\n      mload(0x40)\n      dup3\n      0xffffffff\n      and\n      0xe0\n      shl\n      dup2\n      mstore\n      0x04\n      add\n      tag_327\n      swap2\n      swap1\n      tag_193\n      jump\t// in\n    tag_327:\n      0x00\n      mload(0x40)\n      dup1\n      dup4\n      sub\n      dup2\n      dup7\n      gas\n      staticcall\n      iszero\n      dup1\n      iszero\n      tag_329\n      jumpi\n      returndatasize\n      0x00\n      dup1\n      returndatacopy\n      revert(0x00, returndatasize)\n    tag_329:\n      pop\n      pop\n      pop\n      pop\n      mload(0x40)\n      returndatasize\n      0x00\n      dup3\n      returndatacopy\n      returndatasize\n      not(0x1f)\n      0x1f\n      dup3\n      add\n      and\n      dup3\n      add\n      dup1\n      0x40\n      mstore\n      pop\n      dup2\n      add\n      swap1\n      tag_330\n      swap2\n      swap1\n      tag_197\n      jump\t// in\n    tag_330:\n        /* \"contracts/Marketplace2/Marketplace.sol\":19042:19104  IFactory.ingameItems memory item = factory.ingameItem(tokenId) */\n      swap1\n      pop\n        /* \"contracts/Marketplace2/Marketplace.sol\":19121:19125  item */\n      dup1\n        /* \"contracts/Marketplace2/Marketplace.sol\":19121:19131  item.owner */\n      0x20\n      add\n      mload\n        /* \"contracts/Marketplace2/Marketplace.sol\":19114:19131  return item.owner */\n      swap2\n      pop\n      pop\n        /* \"contracts/Marketplace2/Marketplace.sol\":18966:19138  function testView(uint256 tokenId) public view returns (address) { ... */\n      swap2\n      swap1\n      pop\n      jump\t// out\n        /* \"contracts/Marketplace2/Marketplace.sol\":2558:2756  function transferOwnership(address newOwner) public virtual onlyOwner {... */\n    tag_132:\n        /* \"contracts/Marketplace2/Marketplace.sol\":1899:1911  _msgSender() */\n      tag_332\n        /* \"contracts/Marketplace2/Marketplace.sol\":1899:1909  _msgSender */\n      tag_185\n        /* \"contracts/Marketplace2/Marketplace.sol\":1899:1911  _msgSender() */\n      jump\t// in\n    tag_332:\n        /* \"contracts/Marketplace2/Marketplace.sol\":1888:1911  owner() == _msgSender() */\n      0xffffffffffffffffffffffffffffffffffffffff\n      and\n        /* \"contracts/Marketplace2/Marketplace.sol\":1888:1895  owner() */\n      tag_333\n        /* \"contracts/Marketplace2/Marketplace.sol\":1888:1893  owner */\n      tag_103\n        /* \"contracts/Marketplace2/Marketplace.sol\":1888:1895  owner() */\n      jump\t// in\n    tag_333:\n        /* \"contracts/Marketplace2/Marketplace.sol\":1888:1911  owner() == _msgSender() */\n      0xffffffffffffffffffffffffffffffffffffffff\n      and\n      eq\n        /* \"contracts/Marketplace2/Marketplace.sol\":1880:1948  require(owner() == _msgSender(), \"Ownable: caller is not the owner\") */\n      tag_334\n      jumpi\n      mload(0x40)\n      0x08c379a000000000000000000000000000000000000000000000000000000000\n      dup2\n      mstore\n      0x04\n      add\n      tag_335\n      swap1\n      tag_189\n      jump\t// in\n    tag_335:\n      mload(0x40)\n      dup1\n      swap2\n      sub\n      swap1\n      revert\n    tag_334:\n        /* \"contracts/Marketplace2/Marketplace.sol\":2666:2667  0 */\n      0x00\n        /* \"contracts/Marketplace2/Marketplace.sol\":2646:2668  newOwner != address(0) */\n      0xffffffffffffffffffffffffffffffffffffffff\n      and\n        /* \"contracts/Marketplace2/Marketplace.sol\":2646:2654  newOwner */\n      dup2\n        /* \"contracts/Marketplace2/Marketplace.sol\":2646:2668  newOwner != address(0) */\n      0xffffffffffffffffffffffffffffffffffffffff\n      and\n      sub\n        /* \"contracts/Marketplace2/Marketplace.sol\":2638:2711  require(newOwner != address(0), \"Ownable: new owner is the zero address\") */\n      tag_337\n      jumpi\n      mload(0x40)\n      0x08c379a000000000000000000000000000000000000000000000000000000000\n      dup2\n      mstore\n      0x04\n      add\n      tag_338\n      swap1\n      tag_339\n      jump\t// in\n    tag_338:\n      mload(0x40)\n      dup1\n      swap2\n      sub\n      swap1\n      revert\n    tag_337:\n        /* \"contracts/Marketplace2/Marketplace.sol\":2721:2749  _transferOwnership(newOwner) */\n      tag_340\n        /* \"contracts/Marketplace2/Marketplace.sol\":2740:2748  newOwner */\n      dup2\n        /* \"contracts/Marketplace2/Marketplace.sol\":2721:2739  _transferOwnership */\n      tag_287\n        /* \"contracts/Marketplace2/Marketplace.sol\":2721:2749  _transferOwnership(newOwner) */\n      jump\t// in\n    tag_340:\n        /* \"contracts/Marketplace2/Marketplace.sol\":2558:2756  function transferOwnership(address newOwner) public virtual onlyOwner {... */\n      pop\n      jump\t// out\n        /* \"contracts/Marketplace2/Marketplace.sol\":16229:16252  IERC721 public mainNFTs */\n    tag_135:\n      0x0b\n      0x00\n      swap1\n      sload\n      swap1\n      0x0100\n      exp\n      swap1\n      div\n      0xffffffffffffffffffffffffffffffffffffffff\n      and\n      dup2\n      jump\t// out\n        /* \"contracts/Marketplace2/Marketplace.sol\":15977:16024  mapping (uint256 => MarketItem) public allItems */\n    tag_141:\n      mstore(0x20, 0x07)\n      dup1\n      0x00\n      mstore\n      keccak256(0x00, 0x40)\n      0x00\n      swap2\n      pop\n      swap1\n      pop\n      dup1\n      0x00\n      add\n      sload\n      swap1\n      dup1\n      0x01\n      add\n      sload\n      swap1\n      dup1\n      0x02\n      add\n      0x00\n      swap1\n      sload\n      swap1\n      0x0100\n      exp\n      swap1\n      div\n      0xffffffffffffffffffffffffffffffffffffffff\n      and\n      swap1\n      dup1\n      0x03\n      add\n      0x00\n      swap1\n      sload\n      swap1\n      0x0100\n      exp\n      swap1\n      div\n      0xffffffffffffffffffffffffffffffffffffffff\n      and\n      swap1\n      dup1\n      0x04\n      add\n      sload\n      swap1\n      dup1\n      0x05\n      add\n      0x00\n      swap1\n      sload\n      swap1\n      0x0100\n      exp\n      swap1\n      div\n      0xff\n      and\n      swap1\n      pop\n      dup7\n      jump\t// out\n        /* \"contracts/Marketplace2/Marketplace.sol\":554:650  function _msgSender() internal view virtual returns (address) {... */\n    tag_185:\n        /* \"contracts/Marketplace2/Marketplace.sol\":607:614  address */\n      0x00\n        /* \"contracts/Marketplace2/Marketplace.sol\":633:643  msg.sender */\n      caller\n        /* \"contracts/Marketplace2/Marketplace.sol\":626:643  return msg.sender */\n      swap1\n      pop\n        /* \"contracts/Marketplace2/Marketplace.sol\":554:650  function _msgSender() internal view virtual returns (address) {... */\n      swap1\n      jump\t// out\n        /* \"contracts/Marketplace2/Marketplace.sol\":11969:12092  function increment(Counter storage counter) internal {... */\n    tag_226:\n        /* \"contracts/Marketplace2/Marketplace.sol\":12074:12075  1 */\n      0x01\n        /* \"contracts/Marketplace2/Marketplace.sol\":12056:12063  counter */\n      dup2\n        /* \"contracts/Marketplace2/Marketplace.sol\":12056:12070  counter._value */\n      0x00\n      add\n      0x00\n        /* \"contracts/Marketplace2/Marketplace.sol\":12056:12075  counter._value += 1 */\n      dup3\n      dup3\n      sload\n      add\n      swap3\n      pop\n      pop\n      dup2\n      swap1\n      sstore\n      pop\n        /* \"contracts/Marketplace2/Marketplace.sol\":11969:12092  function increment(Counter storage counter) internal {... */\n      pop\n      jump\t// out\n        /* \"contracts/Marketplace2/Marketplace.sol\":11851:11963  function current(Counter storage counter) internal view returns (uint256) {... */\n    tag_228:\n        /* \"contracts/Marketplace2/Marketplace.sol\":11916:11923  uint256 */\n      0x00\n        /* \"contracts/Marketplace2/Marketplace.sol\":11942:11949  counter */\n      dup2\n        /* \"contracts/Marketplace2/Marketplace.sol\":11942:11956  counter._value */\n      0x00\n      add\n      sload\n        /* \"contracts/Marketplace2/Marketplace.sol\":11935:11956  return counter._value */\n      swap1\n      pop\n        /* \"contracts/Marketplace2/Marketplace.sol\":11851:11963  function current(Counter storage counter) internal view returns (uint256) {... */\n      swap2\n      swap1\n      pop\n      jump\t// out\n        /* \"contracts/Marketplace2/Marketplace.sol\":2910:3097  function _transferOwnership(address newOwner) internal virtual {... */\n    tag_287:\n        /* \"contracts/Marketplace2/Marketplace.sol\":2983:2999  address oldOwner */\n      0x00\n        /* \"contracts/Marketplace2/Marketplace.sol\":3002:3008  _owner */\n      0x0c\n      0x00\n      swap1\n      sload\n      swap1\n      0x0100\n      exp\n      swap1\n      div\n      0xffffffffffffffffffffffffffffffffffffffff\n      and\n        /* \"contracts/Marketplace2/Marketplace.sol\":2983:3008  address oldOwner = _owner */\n      swap1\n      pop\n        /* \"contracts/Marketplace2/Marketplace.sol\":3027:3035  newOwner */\n      dup2\n        /* \"contracts/Marketplace2/Marketplace.sol\":3018:3024  _owner */\n      0x0c\n      0x00\n        /* \"contracts/Marketplace2/Marketplace.sol\":3018:3035  _owner = newOwner */\n      0x0100\n      exp\n      dup2\n      sload\n      dup2\n      0xffffffffffffffffffffffffffffffffffffffff\n      mul\n      not\n      and\n      swap1\n      dup4\n      0xffffffffffffffffffffffffffffffffffffffff\n      and\n      mul\n      or\n      swap1\n      sstore\n      pop\n        /* \"contracts/Marketplace2/Marketplace.sol\":3081:3089  newOwner */\n      dup2\n        /* \"contracts/Marketplace2/Marketplace.sol\":3050:3090  OwnershipTransferred(oldOwner, newOwner) */\n      0xffffffffffffffffffffffffffffffffffffffff\n      and\n        /* \"contracts/Marketplace2/Marketplace.sol\":3071:3079  oldOwner */\n      dup2\n        /* \"contracts/Marketplace2/Marketplace.sol\":3050:3090  OwnershipTransferred(oldOwner, newOwner) */\n      0xffffffffffffffffffffffffffffffffffffffff\n      and\n      0x8be0079c531659141344cd1fd0a4f28419497f9722a3daafe3b4186f6b6457e0\n      mload(0x40)\n      mload(0x40)\n      dup1\n      swap2\n      sub\n      swap1\n      log3\n        /* \"contracts/Marketplace2/Marketplace.sol\":2973:3097  {... */\n      pop\n        /* \"contracts/Marketplace2/Marketplace.sol\":2910:3097  function _transferOwnership(address newOwner) internal virtual {... */\n      pop\n      jump\t// out\n    tag_144:\n      mload(0x40)\n      dup1\n      0xc0\n      add\n      0x40\n      mstore\n      dup1\n      0x00\n      dup2\n      mstore\n      0x20\n      add\n      0x00\n      dup2\n      mstore\n      0x20\n      add\n      and(0xffffffffffffffffffffffffffffffffffffffff, 0x00)\n      dup2\n      mstore\n      0x20\n      add\n      and(0xffffffffffffffffffffffffffffffffffffffff, 0x00)\n      dup2\n      mstore\n      0x20\n      add\n      0x00\n      dup2\n      mstore\n      0x20\n      add\n      0x00\n      0x01\n      dup2\n      gt\n      iszero\n      tag_345\n      jumpi\n      tag_346\n      tag_148\n      jump\t// in\n    tag_346:\n    tag_345:\n      dup2\n      mstore\n      pop\n      swap1\n      jump\t// out\n        /* \"#utility.yul\":7:84   */\n    tag_347:\n        /* \"#utility.yul\":44:51   */\n      0x00\n        /* \"#utility.yul\":73:78   */\n      dup2\n        /* \"#utility.yul\":62:78   */\n      swap1\n      pop\n        /* \"#utility.yul\":7:84   */\n      swap2\n      swap1\n      pop\n      jump\t// out\n        /* \"#utility.yul\":90:198   */\n    tag_348:\n        /* \"#utility.yul\":167:191   */\n      tag_432\n        /* \"#utility.yul\":185:190   */\n      dup2\n        /* \"#utility.yul\":167:191   */\n      tag_347\n      jump\t// in\n    tag_432:\n        /* \"#utility.yul\":162:165   */\n      dup3\n        /* \"#utility.yul\":155:192   */\n      mstore\n        /* \"#utility.yul\":90:198   */\n      pop\n      pop\n      jump\t// out\n        /* \"#utility.yul\":204:330   */\n    tag_349:\n        /* \"#utility.yul\":241:248   */\n      0x00\n        /* \"#utility.yul\":281:323   */\n      0xffffffffffffffffffffffffffffffffffffffff\n        /* \"#utility.yul\":274:279   */\n      dup3\n        /* \"#utility.yul\":270:324   */\n      and\n        /* \"#utility.yul\":259:324   */\n      swap1\n      pop\n        /* \"#utility.yul\":204:330   */\n      swap2\n      swap1\n      pop\n      jump\t// out\n        /* \"#utility.yul\":336:432   */\n    tag_350:\n        /* \"#utility.yul\":373:380   */\n      0x00\n        /* \"#utility.yul\":402:426   */\n      tag_435\n        /* \"#utility.yul\":420:425   */\n      dup3\n        /* \"#utility.yul\":402:426   */\n      tag_349\n      jump\t// in\n    tag_435:\n        /* \"#utility.yul\":391:426   */\n      swap1\n      pop\n        /* \"#utility.yul\":336:432   */\n      swap2\n      swap1\n      pop\n      jump\t// out\n        /* \"#utility.yul\":438:546   */\n    tag_351:\n        /* \"#utility.yul\":515:539   */\n      tag_437\n        /* \"#utility.yul\":533:538   */\n      dup2\n        /* \"#utility.yul\":515:539   */\n      tag_350\n      jump\t// in\n    tag_437:\n        /* \"#utility.yul\":510:513   */\n      dup3\n        /* \"#utility.yul\":503:540   */\n      mstore\n        /* \"#utility.yul\":438:546   */\n      pop\n      pop\n      jump\t// out\n        /* \"#utility.yul\":552:732   */\n    tag_148:\n        /* \"#utility.yul\":600:677   */\n      0x4e487b7100000000000000000000000000000000000000000000000000000000\n        /* \"#utility.yul\":597:598   */\n      0x00\n        /* \"#utility.yul\":590:678   */\n      mstore\n        /* \"#utility.yul\":697:701   */\n      0x21\n        /* \"#utility.yul\":694:695   */\n      0x04\n        /* \"#utility.yul\":687:702   */\n      mstore\n        /* \"#utility.yul\":721:725   */\n      0x24\n        /* \"#utility.yul\":718:719   */\n      0x00\n        /* \"#utility.yul\":711:726   */\n      revert\n        /* \"#utility.yul\":738:857   */\n    tag_352:\n        /* \"#utility.yul\":825:826   */\n      0x02\n        /* \"#utility.yul\":818:823   */\n      dup2\n        /* \"#utility.yul\":815:827   */\n      lt\n        /* \"#utility.yul\":805:851   */\n      tag_440\n      jumpi\n        /* \"#utility.yul\":831:849   */\n      tag_441\n      tag_148\n      jump\t// in\n    tag_441:\n        /* \"#utility.yul\":805:851   */\n    tag_440:\n        /* \"#utility.yul\":738:857   */\n      pop\n      jump\t// out\n        /* \"#utility.yul\":863:1002   */\n    tag_353:\n        /* \"#utility.yul\":914:921   */\n      0x00\n        /* \"#utility.yul\":943:948   */\n      dup2\n        /* \"#utility.yul\":932:948   */\n      swap1\n      pop\n        /* \"#utility.yul\":949:996   */\n      tag_443\n        /* \"#utility.yul\":990:995   */\n      dup3\n        /* \"#utility.yul\":949:996   */\n      tag_352\n      jump\t// in\n    tag_443:\n        /* \"#utility.yul\":863:1002   */\n      swap2\n      swap1\n      pop\n      jump\t// out\n        /* \"#utility.yul\":1008:1147   */\n    tag_354:\n        /* \"#utility.yul\":1070:1079   */\n      0x00\n        /* \"#utility.yul\":1103:1141   */\n      tag_445\n        /* \"#utility.yul\":1135:1140   */\n      dup3\n        /* \"#utility.yul\":1103:1141   */\n      tag_353\n      jump\t// in\n    tag_445:\n        /* \"#utility.yul\":1090:1141   */\n      swap1\n      pop\n        /* \"#utility.yul\":1008:1147   */\n      swap2\n      swap1\n      pop\n      jump\t// out\n        /* \"#utility.yul\":1153:1298   */\n    tag_355:\n        /* \"#utility.yul\":1242:1291   */\n      tag_447\n        /* \"#utility.yul\":1285:1290   */\n      dup2\n        /* \"#utility.yul\":1242:1291   */\n      tag_354\n      jump\t// in\n    tag_447:\n        /* \"#utility.yul\":1237:1240   */\n      dup3\n        /* \"#utility.yul\":1230:1292   */\n      mstore\n        /* \"#utility.yul\":1153:1298   */\n      pop\n      pop\n      jump\t// out\n        /* \"#utility.yul\":1388:2618   */\n    tag_356:\n        /* \"#utility.yul\":1539:1543   */\n      0xc0\n        /* \"#utility.yul\":1534:1537   */\n      dup3\n        /* \"#utility.yul\":1530:1544   */\n      add\n        /* \"#utility.yul\":1628:1632   */\n      0x00\n        /* \"#utility.yul\":1621:1626   */\n      dup3\n        /* \"#utility.yul\":1617:1633   */\n      add\n        /* \"#utility.yul\":1611:1634   */\n      mload\n        /* \"#utility.yul\":1647:1710   */\n      tag_449\n        /* \"#utility.yul\":1704:1708   */\n      0x00\n        /* \"#utility.yul\":1699:1702   */\n      dup6\n        /* \"#utility.yul\":1695:1709   */\n      add\n        /* \"#utility.yul\":1681:1693   */\n      dup3\n        /* \"#utility.yul\":1647:1710   */\n      tag_348\n      jump\t// in\n    tag_449:\n        /* \"#utility.yul\":1554:1720   */\n      pop\n        /* \"#utility.yul\":1805:1809   */\n      0x20\n        /* \"#utility.yul\":1798:1803   */\n      dup3\n        /* \"#utility.yul\":1794:1810   */\n      add\n        /* \"#utility.yul\":1788:1811   */\n      mload\n        /* \"#utility.yul\":1824:1887   */\n      tag_450\n        /* \"#utility.yul\":1881:1885   */\n      0x20\n        /* \"#utility.yul\":1876:1879   */\n      dup6\n        /* \"#utility.yul\":1872:1886   */\n      add\n        /* \"#utility.yul\":1858:1870   */\n      dup3\n        /* \"#utility.yul\":1824:1887   */\n      tag_348\n      jump\t// in\n    tag_450:\n        /* \"#utility.yul\":1730:1897   */\n      pop\n        /* \"#utility.yul\":1981:1985   */\n      0x40\n        /* \"#utility.yul\":1974:1979   */\n      dup3\n        /* \"#utility.yul\":1970:1986   */\n      add\n        /* \"#utility.yul\":1964:1987   */\n      mload\n        /* \"#utility.yul\":2000:2063   */\n      tag_451\n        /* \"#utility.yul\":2057:2061   */\n      0x40\n        /* \"#utility.yul\":2052:2055   */\n      dup6\n        /* \"#utility.yul\":2048:2062   */\n      add\n        /* \"#utility.yul\":2034:2046   */\n      dup3\n        /* \"#utility.yul\":2000:2063   */\n      tag_351\n      jump\t// in\n    tag_451:\n        /* \"#utility.yul\":1907:2073   */\n      pop\n        /* \"#utility.yul\":2156:2160   */\n      0x60\n        /* \"#utility.yul\":2149:2154   */\n      dup3\n        /* \"#utility.yul\":2145:2161   */\n      add\n        /* \"#utility.yul\":2139:2162   */\n      mload\n        /* \"#utility.yul\":2175:2238   */\n      tag_452\n        /* \"#utility.yul\":2232:2236   */\n      0x60\n        /* \"#utility.yul\":2227:2230   */\n      dup6\n        /* \"#utility.yul\":2223:2237   */\n      add\n        /* \"#utility.yul\":2209:2221   */\n      dup3\n        /* \"#utility.yul\":2175:2238   */\n      tag_351\n      jump\t// in\n    tag_452:\n        /* \"#utility.yul\":2083:2248   */\n      pop\n        /* \"#utility.yul\":2331:2335   */\n      0x80\n        /* \"#utility.yul\":2324:2329   */\n      dup3\n        /* \"#utility.yul\":2320:2336   */\n      add\n        /* \"#utility.yul\":2314:2337   */\n      mload\n        /* \"#utility.yul\":2350:2413   */\n      tag_453\n        /* \"#utility.yul\":2407:2411   */\n      0x80\n        /* \"#utility.yul\":2402:2405   */\n      dup6\n        /* \"#utility.yul\":2398:2412   */\n      add\n        /* \"#utility.yul\":2384:2396   */\n      dup3\n        /* \"#utility.yul\":2350:2413   */\n      tag_348\n      jump\t// in\n    tag_453:\n        /* \"#utility.yul\":2258:2423   */\n      pop\n        /* \"#utility.yul\":2507:2511   */\n      0xa0\n        /* \"#utility.yul\":2500:2505   */\n      dup3\n        /* \"#utility.yul\":2496:2512   */\n      add\n        /* \"#utility.yul\":2490:2513   */\n      mload\n        /* \"#utility.yul\":2526:2601   */\n      tag_454\n        /* \"#utility.yul\":2595:2599   */\n      0xa0\n        /* \"#utility.yul\":2590:2593   */\n      dup6\n        /* \"#utility.yul\":2586:2600   */\n      add\n        /* \"#utility.yul\":2572:2584   */\n      dup3\n        /* \"#utility.yul\":2526:2601   */\n      tag_355\n      jump\t// in\n    tag_454:\n        /* \"#utility.yul\":2433:2611   */\n      pop\n        /* \"#utility.yul\":1508:2618   */\n      pop\n        /* \"#utility.yul\":1388:2618   */\n      pop\n      pop\n      jump\t// out\n        /* \"#utility.yul\":2624:2955   */\n    tag_33:\n        /* \"#utility.yul\":2771:2775   */\n      0x00\n        /* \"#utility.yul\":2809:2812   */\n      0xc0\n        /* \"#utility.yul\":2798:2807   */\n      dup3\n        /* \"#utility.yul\":2794:2813   */\n      add\n        /* \"#utility.yul\":2786:2813   */\n      swap1\n      pop\n        /* \"#utility.yul\":2823:2948   */\n      tag_456\n        /* \"#utility.yul\":2945:2946   */\n      0x00\n        /* \"#utility.yul\":2934:2943   */\n      dup4\n        /* \"#utility.yul\":2930:2947   */\n      add\n        /* \"#utility.yul\":2921:2927   */\n      dup5\n        /* \"#utility.yul\":2823:2948   */\n      tag_356\n      jump\t// in\n    tag_456:\n        /* \"#utility.yul\":2624:2955   */\n      swap3\n      swap2\n      pop\n      pop\n      jump\t// out\n        /* \"#utility.yul\":2961:3036   */\n    tag_357:\n        /* \"#utility.yul\":2994:3000   */\n      0x00\n        /* \"#utility.yul\":3027:3029   */\n      0x40\n        /* \"#utility.yul\":3021:3030   */\n      mload\n        /* \"#utility.yul\":3011:3030   */\n      swap1\n      pop\n        /* \"#utility.yul\":2961:3036   */\n      swap1\n      jump\t// out\n        /* \"#utility.yul\":3042:3159   */\n    tag_358:\n        /* \"#utility.yul\":3151:3152   */\n      0x00\n        /* \"#utility.yul\":3148:3149   */\n      dup1\n        /* \"#utility.yul\":3141:3153   */\n      revert\n        /* \"#utility.yul\":3165:3282   */\n    tag_359:\n        /* \"#utility.yul\":3274:3275   */\n      0x00\n        /* \"#utility.yul\":3271:3272   */\n      dup1\n        /* \"#utility.yul\":3264:3276   */\n      revert\n        /* \"#utility.yul\":3288:3410   */\n    tag_360:\n        /* \"#utility.yul\":3361:3385   */\n      tag_461\n        /* \"#utility.yul\":3379:3384   */\n      dup2\n        /* \"#utility.yul\":3361:3385   */\n      tag_347\n      jump\t// in\n    tag_461:\n        /* \"#utility.yul\":3354:3359   */\n      dup2\n        /* \"#utility.yul\":3351:3386   */\n      eq\n        /* \"#utility.yul\":3341:3404   */\n      tag_462\n      jumpi\n        /* \"#utility.yul\":3400:3401   */\n      0x00\n        /* \"#utility.yul\":3397:3398   */\n      dup1\n        /* \"#utility.yul\":3390:3402   */\n      revert\n        /* \"#utility.yul\":3341:3404   */\n    tag_462:\n        /* \"#utility.yul\":3288:3410   */\n      pop\n      jump\t// out\n        /* \"#utility.yul\":3416:3555   */\n    tag_361:\n        /* \"#utility.yul\":3462:3467   */\n      0x00\n        /* \"#utility.yul\":3500:3506   */\n      dup2\n        /* \"#utility.yul\":3487:3507   */\n      calldataload\n        /* \"#utility.yul\":3478:3507   */\n      swap1\n      pop\n        /* \"#utility.yul\":3516:3549   */\n      tag_464\n        /* \"#utility.yul\":3543:3548   */\n      dup2\n        /* \"#utility.yul\":3516:3549   */\n      tag_360\n      jump\t// in\n    tag_464:\n        /* \"#utility.yul\":3416:3555   */\n      swap3\n      swap2\n      pop\n      pop\n      jump\t// out\n        /* \"#utility.yul\":3561:3890   */\n    tag_37:\n        /* \"#utility.yul\":3620:3626   */\n      0x00\n        /* \"#utility.yul\":3669:3671   */\n      0x20\n        /* \"#utility.yul\":3657:3666   */\n      dup3\n        /* \"#utility.yul\":3648:3655   */\n      dup5\n        /* \"#utility.yul\":3644:3667   */\n      sub\n        /* \"#utility.yul\":3640:3672   */\n      slt\n        /* \"#utility.yul\":3637:3756   */\n      iszero\n      tag_466\n      jumpi\n        /* \"#utility.yul\":3675:3754   */\n      tag_467\n      tag_358\n      jump\t// in\n    tag_467:\n        /* \"#utility.yul\":3637:3756   */\n    tag_466:\n        /* \"#utility.yul\":3795:3796   */\n      0x00\n        /* \"#utility.yul\":3820:3873   */\n      tag_468\n        /* \"#utility.yul\":3865:3872   */\n      dup5\n        /* \"#utility.yul\":3856:3862   */\n      dup3\n        /* \"#utility.yul\":3845:3854   */\n      dup6\n        /* \"#utility.yul\":3841:3863   */\n      add\n        /* \"#utility.yul\":3820:3873   */\n      tag_361\n      jump\t// in\n    tag_468:\n        /* \"#utility.yul\":3810:3873   */\n      swap2\n      pop\n        /* \"#utility.yul\":3766:3883   */\n      pop\n        /* \"#utility.yul\":3561:3890   */\n      swap3\n      swap2\n      pop\n      pop\n      jump\t// out\n        /* \"#utility.yul\":3896:4018   */\n    tag_362:\n        /* \"#utility.yul\":3969:3993   */\n      tag_470\n        /* \"#utility.yul\":3987:3992   */\n      dup2\n        /* \"#utility.yul\":3969:3993   */\n      tag_350\n      jump\t// in\n    tag_470:\n        /* \"#utility.yul\":3962:3967   */\n      dup2\n        /* \"#utility.yul\":3959:3994   */\n      eq\n        /* \"#utility.yul\":3949:4012   */\n      tag_471\n      jumpi\n        /* \"#utility.yul\":4008:4009   */\n      0x00\n        /* \"#utility.yul\":4005:4006   */\n      dup1\n        /* \"#utility.yul\":3998:4010   */\n      revert\n        /* \"#utility.yul\":3949:4012   */\n    tag_471:\n        /* \"#utility.yul\":3896:4018   */\n      pop\n      jump\t// out\n        /* \"#utility.yul\":4024:4163   */\n    tag_363:\n        /* \"#utility.yul\":4070:4075   */\n      0x00\n        /* \"#utility.yul\":4108:4114   */\n      dup2\n        /* \"#utility.yul\":4095:4115   */\n      calldataload\n        /* \"#utility.yul\":4086:4115   */\n      swap1\n      pop\n        /* \"#utility.yul\":4124:4157   */\n      tag_473\n        /* \"#utility.yul\":4151:4156   */\n      dup2\n        /* \"#utility.yul\":4124:4157   */\n      tag_362\n      jump\t// in\n    tag_473:\n        /* \"#utility.yul\":4024:4163   */\n      swap3\n      swap2\n      pop\n      pop\n      jump\t// out\n        /* \"#utility.yul\":4169:4498   */\n    tag_42:\n        /* \"#utility.yul\":4228:4234   */\n      0x00\n        /* \"#utility.yul\":4277:4279   */\n      0x20\n        /* \"#utility.yul\":4265:4274   */\n      dup3\n        /* \"#utility.yul\":4256:4263   */\n      dup5\n        /* \"#utility.yul\":4252:4275   */\n      sub\n        /* \"#utility.yul\":4248:4280   */\n      slt\n        /* \"#utility.yul\":4245:4364   */\n      iszero\n      tag_475\n      jumpi\n        /* \"#utility.yul\":4283:4362   */\n      tag_476\n      tag_358\n      jump\t// in\n    tag_476:\n        /* \"#utility.yul\":4245:4364   */\n    tag_475:\n        /* \"#utility.yul\":4403:4404   */\n      0x00\n        /* \"#utility.yul\":4428:4481   */\n      tag_477\n        /* \"#utility.yul\":4473:4480   */\n      dup5\n        /* \"#utility.yul\":4464:4470   */\n      dup3\n        /* \"#utility.yul\":4453:4462   */\n      dup6\n        /* \"#utility.yul\":4449:4471   */\n      add\n        /* \"#utility.yul\":4428:4481   */\n      tag_363\n      jump\t// in\n    tag_477:\n        /* \"#utility.yul\":4418:4481   */\n      swap2\n      pop\n        /* \"#utility.yul\":4374:4491   */\n      pop\n        /* \"#utility.yul\":4169:4498   */\n      swap3\n      swap2\n      pop\n      pop\n      jump\t// out\n        /* \"#utility.yul\":4504:4594   */\n    tag_364:\n        /* \"#utility.yul\":4538:4545   */\n      0x00\n        /* \"#utility.yul\":4581:4586   */\n      dup2\n        /* \"#utility.yul\":4574:4587   */\n      iszero\n        /* \"#utility.yul\":4567:4588   */\n      iszero\n        /* \"#utility.yul\":4556:4588   */\n      swap1\n      pop\n        /* \"#utility.yul\":4504:4594   */\n      swap2\n      swap1\n      pop\n      jump\t// out\n        /* \"#utility.yul\":4600:4709   */\n    tag_365:\n        /* \"#utility.yul\":4681:4702   */\n      tag_480\n        /* \"#utility.yul\":4696:4701   */\n      dup2\n        /* \"#utility.yul\":4681:4702   */\n      tag_364\n      jump\t// in\n    tag_480:\n        /* \"#utility.yul\":4676:4679   */\n      dup3\n        /* \"#utility.yul\":4669:4703   */\n      mstore\n        /* \"#utility.yul\":4600:4709   */\n      pop\n      pop\n      jump\t// out\n        /* \"#utility.yul\":4715:4925   */\n    tag_49:\n        /* \"#utility.yul\":4802:4806   */\n      0x00\n        /* \"#utility.yul\":4840:4842   */\n      0x20\n        /* \"#utility.yul\":4829:4838   */\n      dup3\n        /* \"#utility.yul\":4825:4843   */\n      add\n        /* \"#utility.yul\":4817:4843   */\n      swap1\n      pop\n        /* \"#utility.yul\":4853:4918   */\n      tag_482\n        /* \"#utility.yul\":4915:4916   */\n      0x00\n        /* \"#utility.yul\":4904:4913   */\n      dup4\n        /* \"#utility.yul\":4900:4917   */\n      add\n        /* \"#utility.yul\":4891:4897   */\n      dup5\n        /* \"#utility.yul\":4853:4918   */\n      tag_365\n      jump\t// in\n    tag_482:\n        /* \"#utility.yul\":4715:4925   */\n      swap3\n      swap2\n      pop\n      pop\n      jump\t// out\n        /* \"#utility.yul\":4931:5080   */\n    tag_366:\n        /* \"#utility.yul\":4967:4974   */\n      0x00\n        /* \"#utility.yul\":5007:5073   */\n      0xffffffff00000000000000000000000000000000000000000000000000000000\n        /* \"#utility.yul\":5000:5005   */\n      dup3\n        /* \"#utility.yul\":4996:5074   */\n      and\n        /* \"#utility.yul\":4985:5074   */\n      swap1\n      pop\n        /* \"#utility.yul\":4931:5080   */\n      swap2\n      swap1\n      pop\n      jump\t// out\n        /* \"#utility.yul\":5086:5201   */\n    tag_367:\n        /* \"#utility.yul\":5171:5194   */\n      tag_485\n        /* \"#utility.yul\":5188:5193   */\n      dup2\n        /* \"#utility.yul\":5171:5194   */\n      tag_366\n      jump\t// in\n    tag_485:\n        /* \"#utility.yul\":5166:5169   */\n      dup3\n        /* \"#utility.yul\":5159:5195   */\n      mstore\n        /* \"#utility.yul\":5086:5201   */\n      pop\n      pop\n      jump\t// out\n        /* \"#utility.yul\":5207:5425   */\n    tag_63:\n        /* \"#utility.yul\":5298:5302   */\n      0x00\n        /* \"#utility.yul\":5336:5338   */\n      0x20\n        /* \"#utility.yul\":5325:5334   */\n      dup3\n        /* \"#utility.yul\":5321:5339   */\n      add\n        /* \"#utility.yul\":5313:5339   */\n      swap1\n      pop\n        /* \"#utility.yul\":5349:5418   */\n      tag_487\n        /* \"#utility.yul\":5415:5416   */\n      0x00\n        /* \"#utility.yul\":5404:5413   */\n      dup4\n        /* \"#utility.yul\":5400:5417   */\n      add\n        /* \"#utility.yul\":5391:5397   */\n      dup5\n        /* \"#utility.yul\":5349:5418   */\n      tag_367\n      jump\t// in\n    tag_487:\n        /* \"#utility.yul\":5207:5425   */\n      swap3\n      swap2\n      pop\n      pop\n      jump\t// out\n        /* \"#utility.yul\":5431:5905   */\n    tag_66:\n        /* \"#utility.yul\":5499:5505   */\n      0x00\n        /* \"#utility.yul\":5507:5513   */\n      dup1\n        /* \"#utility.yul\":5556:5558   */\n      0x40\n        /* \"#utility.yul\":5544:5553   */\n      dup4\n        /* \"#utility.yul\":5535:5542   */\n      dup6\n        /* \"#utility.yul\":5531:5554   */\n      sub\n        /* \"#utility.yul\":5527:5559   */\n      slt\n        /* \"#utility.yul\":5524:5643   */\n      iszero\n      tag_489\n      jumpi\n        /* \"#utility.yul\":5562:5641   */\n      tag_490\n      tag_358\n      jump\t// in\n    tag_490:\n        /* \"#utility.yul\":5524:5643   */\n    tag_489:\n        /* \"#utility.yul\":5682:5683   */\n      0x00\n        /* \"#utility.yul\":5707:5760   */\n      tag_491\n        /* \"#utility.yul\":5752:5759   */\n      dup6\n        /* \"#utility.yul\":5743:5749   */\n      dup3\n        /* \"#utility.yul\":5732:5741   */\n      dup7\n        /* \"#utility.yul\":5728:5750   */\n      add\n        /* \"#utility.yul\":5707:5760   */\n      tag_361\n      jump\t// in\n    tag_491:\n        /* \"#utility.yul\":5697:5760   */\n      swap3\n      pop\n        /* \"#utility.yul\":5653:5770   */\n      pop\n        /* \"#utility.yul\":5809:5811   */\n      0x20\n        /* \"#utility.yul\":5835:5888   */\n      tag_492\n        /* \"#utility.yul\":5880:5887   */\n      dup6\n        /* \"#utility.yul\":5871:5877   */\n      dup3\n        /* \"#utility.yul\":5860:5869   */\n      dup7\n        /* \"#utility.yul\":5856:5878   */\n      add\n        /* \"#utility.yul\":5835:5888   */\n      tag_361\n      jump\t// in\n    tag_492:\n        /* \"#utility.yul\":5825:5888   */\n      swap2\n      pop\n        /* \"#utility.yul\":5780:5898   */\n      pop\n        /* \"#utility.yul\":5431:5905   */\n      swap3\n      pop\n      swap3\n      swap1\n      pop\n      jump\t// out\n        /* \"#utility.yul\":5911:5971   */\n    tag_368:\n        /* \"#utility.yul\":5939:5942   */\n      0x00\n        /* \"#utility.yul\":5960:5965   */\n      dup2\n        /* \"#utility.yul\":5953:5965   */\n      swap1\n      pop\n        /* \"#utility.yul\":5911:5971   */\n      swap2\n      swap1\n      pop\n      jump\t// out\n        /* \"#utility.yul\":5977:6119   */\n    tag_369:\n        /* \"#utility.yul\":6027:6036   */\n      0x00\n        /* \"#utility.yul\":6060:6113   */\n      tag_495\n        /* \"#utility.yul\":6078:6112   */\n      tag_496\n        /* \"#utility.yul\":6087:6111   */\n      tag_497\n        /* \"#utility.yul\":6105:6110   */\n      dup5\n        /* \"#utility.yul\":6087:6111   */\n      tag_349\n      jump\t// in\n    tag_497:\n        /* \"#utility.yul\":6078:6112   */\n      tag_368\n      jump\t// in\n    tag_496:\n        /* \"#utility.yul\":6060:6113   */\n      tag_349\n      jump\t// in\n    tag_495:\n        /* \"#utility.yul\":6047:6113   */\n      swap1\n      pop\n        /* \"#utility.yul\":5977:6119   */\n      swap2\n      swap1\n      pop\n      jump\t// out\n        /* \"#utility.yul\":6125:6251   */\n    tag_370:\n        /* \"#utility.yul\":6175:6184   */\n      0x00\n        /* \"#utility.yul\":6208:6245   */\n      tag_499\n        /* \"#utility.yul\":6239:6244   */\n      dup3\n        /* \"#utility.yul\":6208:6245   */\n      tag_369\n      jump\t// in\n    tag_499:\n        /* \"#utility.yul\":6195:6245   */\n      swap1\n      pop\n        /* \"#utility.yul\":6125:6251   */\n      swap2\n      swap1\n      pop\n      jump\t// out\n        /* \"#utility.yul\":6257:6397   */\n    tag_371:\n        /* \"#utility.yul\":6321:6330   */\n      0x00\n        /* \"#utility.yul\":6354:6391   */\n      tag_501\n        /* \"#utility.yul\":6385:6390   */\n      dup3\n        /* \"#utility.yul\":6354:6391   */\n      tag_370\n      jump\t// in\n    tag_501:\n        /* \"#utility.yul\":6341:6391   */\n      swap1\n      pop\n        /* \"#utility.yul\":6257:6397   */\n      swap2\n      swap1\n      pop\n      jump\t// out\n        /* \"#utility.yul\":6403:6562   */\n    tag_372:\n        /* \"#utility.yul\":6504:6555   */\n      tag_503\n        /* \"#utility.yul\":6549:6554   */\n      dup2\n        /* \"#utility.yul\":6504:6555   */\n      tag_371\n      jump\t// in\n    tag_503:\n        /* \"#utility.yul\":6499:6502   */\n      dup3\n        /* \"#utility.yul\":6492:6556   */\n      mstore\n        /* \"#utility.yul\":6403:6562   */\n      pop\n      pop\n      jump\t// out\n        /* \"#utility.yul\":6568:6818   */\n    tag_72:\n        /* \"#utility.yul\":6675:6679   */\n      0x00\n        /* \"#utility.yul\":6713:6715   */\n      0x20\n        /* \"#utility.yul\":6702:6711   */\n      dup3\n        /* \"#utility.yul\":6698:6716   */\n      add\n        /* \"#utility.yul\":6690:6716   */\n      swap1\n      pop\n        /* \"#utility.yul\":6726:6811   */\n      tag_505\n        /* \"#utility.yul\":6808:6809   */\n      0x00\n        /* \"#utility.yul\":6797:6806   */\n      dup4\n        /* \"#utility.yul\":6793:6810   */\n      add\n        /* \"#utility.yul\":6784:6790   */\n      dup5\n        /* \"#utility.yul\":6726:6811   */\n      tag_372\n      jump\t// in\n    tag_505:\n        /* \"#utility.yul\":6568:6818   */\n      swap3\n      swap2\n      pop\n      pop\n      jump\t// out\n        /* \"#utility.yul\":6824:6942   */\n    tag_373:\n        /* \"#utility.yul\":6911:6935   */\n      tag_507\n        /* \"#utility.yul\":6929:6934   */\n      dup2\n        /* \"#utility.yul\":6911:6935   */\n      tag_347\n      jump\t// in\n    tag_507:\n        /* \"#utility.yul\":6906:6909   */\n      dup3\n        /* \"#utility.yul\":6899:6936   */\n      mstore\n        /* \"#utility.yul\":6824:6942   */\n      pop\n      pop\n      jump\t// out\n        /* \"#utility.yul\":6948:7066   */\n    tag_374:\n        /* \"#utility.yul\":7035:7059   */\n      tag_509\n        /* \"#utility.yul\":7053:7058   */\n      dup2\n        /* \"#utility.yul\":7035:7059   */\n      tag_350\n      jump\t// in\n    tag_509:\n        /* \"#utility.yul\":7030:7033   */\n      dup3\n        /* \"#utility.yul\":7023:7060   */\n      mstore\n        /* \"#utility.yul\":6948:7066   */\n      pop\n      pop\n      jump\t// out\n        /* \"#utility.yul\":7072:7227   */\n    tag_375:\n        /* \"#utility.yul\":7171:7220   */\n      tag_511\n        /* \"#utility.yul\":7214:7219   */\n      dup2\n        /* \"#utility.yul\":7171:7220   */\n      tag_354\n      jump\t// in\n    tag_511:\n        /* \"#utility.yul\":7166:7169   */\n      dup3\n        /* \"#utility.yul\":7159:7221   */\n      mstore\n        /* \"#utility.yul\":7072:7227   */\n      pop\n      pop\n      jump\t// out\n        /* \"#utility.yul\":7233:8032   */\n    tag_77:\n        /* \"#utility.yul\":7478:7482   */\n      0x00\n        /* \"#utility.yul\":7516:7519   */\n      0xc0\n        /* \"#utility.yul\":7505:7514   */\n      dup3\n        /* \"#utility.yul\":7501:7520   */\n      add\n        /* \"#utility.yul\":7493:7520   */\n      swap1\n      pop\n        /* \"#utility.yul\":7530:7601   */\n      tag_513\n        /* \"#utility.yul\":7598:7599   */\n      0x00\n        /* \"#utility.yul\":7587:7596   */\n      dup4\n        /* \"#utility.yul\":7583:7600   */\n      add\n        /* \"#utility.yul\":7574:7580   */\n      dup10\n        /* \"#utility.yul\":7530:7601   */\n      tag_373\n      jump\t// in\n    tag_513:\n        /* \"#utility.yul\":7611:7683   */\n      tag_514\n        /* \"#utility.yul\":7679:7681   */\n      0x20\n        /* \"#utility.yul\":7668:7677   */\n      dup4\n        /* \"#utility.yul\":7664:7682   */\n      add\n        /* \"#utility.yul\":7655:7661   */\n      dup9\n        /* \"#utility.yul\":7611:7683   */\n      tag_373\n      jump\t// in\n    tag_514:\n        /* \"#utility.yul\":7693:7765   */\n      tag_515\n        /* \"#utility.yul\":7761:7763   */\n      0x40\n        /* \"#utility.yul\":7750:7759   */\n      dup4\n        /* \"#utility.yul\":7746:7764   */\n      add\n        /* \"#utility.yul\":7737:7743   */\n      dup8\n        /* \"#utility.yul\":7693:7765   */\n      tag_374\n      jump\t// in\n    tag_515:\n        /* \"#utility.yul\":7775:7847   */\n      tag_516\n        /* \"#utility.yul\":7843:7845   */\n      0x60\n        /* \"#utility.yul\":7832:7841   */\n      dup4\n        /* \"#utility.yul\":7828:7846   */\n      add\n        /* \"#utility.yul\":7819:7825   */\n      dup7\n        /* \"#utility.yul\":7775:7847   */\n      tag_374\n      jump\t// in\n    tag_516:\n        /* \"#utility.yul\":7857:7930   */\n      tag_517\n        /* \"#utility.yul\":7925:7928   */\n      0x80\n        /* \"#utility.yul\":7914:7923   */\n      dup4\n        /* \"#utility.yul\":7910:7929   */\n      add\n        /* \"#utility.yul\":7901:7907   */\n      dup6\n        /* \"#utility.yul\":7857:7930   */\n      tag_373\n      jump\t// in\n    tag_517:\n        /* \"#utility.yul\":7940:8025   */\n      tag_518\n        /* \"#utility.yul\":8020:8023   */\n      0xa0\n        /* \"#utility.yul\":8009:8018   */\n      dup4\n        /* \"#utility.yul\":8005:8024   */\n      add\n        /* \"#utility.yul\":7996:8002   */\n      dup5\n        /* \"#utility.yul\":7940:8025   */\n      tag_375\n      jump\t// in\n    tag_518:\n        /* \"#utility.yul\":7233:8032   */\n      swap8\n      swap7\n      pop\n      pop\n      pop\n      pop\n      pop\n      pop\n      pop\n      jump\t// out\n        /* \"#utility.yul\":8038:8512   */\n    tag_85:\n        /* \"#utility.yul\":8106:8112   */\n      0x00\n        /* \"#utility.yul\":8114:8120   */\n      dup1\n        /* \"#utility.yul\":8163:8165   */\n      0x40\n        /* \"#utility.yul\":8151:8160   */\n      dup4\n        /* \"#utility.yul\":8142:8149   */\n      dup6\n        /* \"#utility.yul\":8138:8161   */\n      sub\n        /* \"#utility.yul\":8134:8166   */\n      slt\n        /* \"#utility.yul\":8131:8250   */\n      iszero\n      tag_520\n      jumpi\n        /* \"#utility.yul\":8169:8248   */\n      tag_521\n      tag_358\n      jump\t// in\n    tag_521:\n        /* \"#utility.yul\":8131:8250   */\n    tag_520:\n        /* \"#utility.yul\":8289:8290   */\n      0x00\n        /* \"#utility.yul\":8314:8367   */\n      tag_522\n        /* \"#utility.yul\":8359:8366   */\n      dup6\n        /* \"#utility.yul\":8350:8356   */\n      dup3\n        /* \"#utility.yul\":8339:8348   */\n      dup7\n        /* \"#utility.yul\":8335:8357   */\n      add\n        /* \"#utility.yul\":8314:8367   */\n      tag_363\n      jump\t// in\n    tag_522:\n        /* \"#utility.yul\":8304:8367   */\n      swap3\n      pop\n        /* \"#utility.yul\":8260:8377   */\n      pop\n        /* \"#utility.yul\":8416:8418   */\n      0x20\n        /* \"#utility.yul\":8442:8495   */\n      tag_523\n        /* \"#utility.yul\":8487:8494   */\n      dup6\n        /* \"#utility.yul\":8478:8484   */\n      dup3\n        /* \"#utility.yul\":8467:8476   */\n      dup7\n        /* \"#utility.yul\":8463:8485   */\n      add\n        /* \"#utility.yul\":8442:8495   */\n      tag_361\n      jump\t// in\n    tag_523:\n        /* \"#utility.yul\":8432:8495   */\n      swap2\n      pop\n        /* \"#utility.yul\":8387:8505   */\n      pop\n        /* \"#utility.yul\":8038:8512   */\n      swap3\n      pop\n      swap3\n      swap1\n      pop\n      jump\t// out\n        /* \"#utility.yul\":8518:8659   */\n    tag_376:\n        /* \"#utility.yul\":8612:8618   */\n      0x00\n        /* \"#utility.yul\":8646:8651   */\n      dup2\n        /* \"#utility.yul\":8640:8652   */\n      mload\n        /* \"#utility.yul\":8630:8652   */\n      swap1\n      pop\n        /* \"#utility.yul\":8518:8659   */\n      swap2\n      swap1\n      pop\n      jump\t// out\n        /* \"#utility.yul\":8665:8876   */\n    tag_377:\n        /* \"#utility.yul\":8791:8802   */\n      0x00\n        /* \"#utility.yul\":8825:8831   */\n      dup3\n        /* \"#utility.yul\":8820:8823   */\n      dup3\n        /* \"#utility.yul\":8813:8832   */\n      mstore\n        /* \"#utility.yul\":8865:8869   */\n      0x20\n        /* \"#utility.yul\":8860:8863   */\n      dup3\n        /* \"#utility.yul\":8856:8870   */\n      add\n        /* \"#utility.yul\":8841:8870   */\n      swap1\n      pop\n        /* \"#utility.yul\":8665:8876   */\n      swap3\n      swap2\n      pop\n      pop\n      jump\t// out\n        /* \"#utility.yul\":8882:9041   */\n    tag_378:\n        /* \"#utility.yul\":8976:8980   */\n      0x00\n        /* \"#utility.yul\":8999:9002   */\n      dup2\n        /* \"#utility.yul\":8991:9002   */\n      swap1\n      pop\n        /* \"#utility.yul\":9029:9033   */\n      0x20\n        /* \"#utility.yul\":9024:9027   */\n      dup3\n        /* \"#utility.yul\":9020:9034   */\n      add\n        /* \"#utility.yul\":9012:9034   */\n      swap1\n      pop\n        /* \"#utility.yul\":8882:9041   */\n      swap2\n      swap1\n      pop\n      jump\t// out\n        /* \"#utility.yul\":9131:10351   */\n    tag_379:\n        /* \"#utility.yul\":9272:9276   */\n      0xc0\n        /* \"#utility.yul\":9267:9270   */\n      dup3\n        /* \"#utility.yul\":9263:9277   */\n      add\n        /* \"#utility.yul\":9361:9365   */\n      0x00\n        /* \"#utility.yul\":9354:9359   */\n      dup3\n        /* \"#utility.yul\":9350:9366   */\n      add\n        /* \"#utility.yul\":9344:9367   */\n      mload\n        /* \"#utility.yul\":9380:9443   */\n      tag_528\n        /* \"#utility.yul\":9437:9441   */\n      0x00\n        /* \"#utility.yul\":9432:9435   */\n      dup6\n        /* \"#utility.yul\":9428:9442   */\n      add\n        /* \"#utility.yul\":9414:9426   */\n      dup3\n        /* \"#utility.yul\":9380:9443   */\n      tag_348\n      jump\t// in\n    tag_528:\n        /* \"#utility.yul\":9287:9453   */\n      pop\n        /* \"#utility.yul\":9538:9542   */\n      0x20\n        /* \"#utility.yul\":9531:9536   */\n      dup3\n        /* \"#utility.yul\":9527:9543   */\n      add\n        /* \"#utility.yul\":9521:9544   */\n      mload\n        /* \"#utility.yul\":9557:9620   */\n      tag_529\n        /* \"#utility.yul\":9614:9618   */\n      0x20\n        /* \"#utility.yul\":9609:9612   */\n      dup6\n        /* \"#utility.yul\":9605:9619   */\n      add\n        /* \"#utility.yul\":9591:9603   */\n      dup3\n        /* \"#utility.yul\":9557:9620   */\n      tag_348\n      jump\t// in\n    tag_529:\n        /* \"#utility.yul\":9463:9630   */\n      pop\n        /* \"#utility.yul\":9714:9718   */\n      0x40\n        /* \"#utility.yul\":9707:9712   */\n      dup3\n        /* \"#utility.yul\":9703:9719   */\n      add\n        /* \"#utility.yul\":9697:9720   */\n      mload\n        /* \"#utility.yul\":9733:9796   */\n      tag_530\n        /* \"#utility.yul\":9790:9794   */\n      0x40\n        /* \"#utility.yul\":9785:9788   */\n      dup6\n        /* \"#utility.yul\":9781:9795   */\n      add\n        /* \"#utility.yul\":9767:9779   */\n      dup3\n        /* \"#utility.yul\":9733:9796   */\n      tag_351\n      jump\t// in\n    tag_530:\n        /* \"#utility.yul\":9640:9806   */\n      pop\n        /* \"#utility.yul\":9889:9893   */\n      0x60\n        /* \"#utility.yul\":9882:9887   */\n      dup3\n        /* \"#utility.yul\":9878:9894   */\n      add\n        /* \"#utility.yul\":9872:9895   */\n      mload\n        /* \"#utility.yul\":9908:9971   */\n      tag_531\n        /* \"#utility.yul\":9965:9969   */\n      0x60\n        /* \"#utility.yul\":9960:9963   */\n      dup6\n        /* \"#utility.yul\":9956:9970   */\n      add\n        /* \"#utility.yul\":9942:9954   */\n      dup3\n        /* \"#utility.yul\":9908:9971   */\n      tag_351\n      jump\t// in\n    tag_531:\n        /* \"#utility.yul\":9816:9981   */\n      pop\n        /* \"#utility.yul\":10064:10068   */\n      0x80\n        /* \"#utility.yul\":10057:10062   */\n      dup3\n        /* \"#utility.yul\":10053:10069   */\n      add\n        /* \"#utility.yul\":10047:10070   */\n      mload\n        /* \"#utility.yul\":10083:10146   */\n      tag_532\n        /* \"#utility.yul\":10140:10144   */\n      0x80\n        /* \"#utility.yul\":10135:10138   */\n      dup6\n        /* \"#utility.yul\":10131:10145   */\n      add\n        /* \"#utility.yul\":10117:10129   */\n      dup3\n        /* \"#utility.yul\":10083:10146   */\n      tag_348\n      jump\t// in\n    tag_532:\n        /* \"#utility.yul\":9991:10156   */\n      pop\n        /* \"#utility.yul\":10240:10244   */\n      0xa0\n        /* \"#utility.yul\":10233:10238   */\n      dup3\n        /* \"#utility.yul\":10229:10245   */\n      add\n        /* \"#utility.yul\":10223:10246   */\n      mload\n        /* \"#utility.yul\":10259:10334   */\n      tag_533\n        /* \"#utility.yul\":10328:10332   */\n      0xa0\n        /* \"#utility.yul\":10323:10326   */\n      dup6\n        /* \"#utility.yul\":10319:10333   */\n      add\n        /* \"#utility.yul\":10305:10317   */\n      dup3\n        /* \"#utility.yul\":10259:10334   */\n      tag_355\n      jump\t// in\n    tag_533:\n        /* \"#utility.yul\":10166:10344   */\n      pop\n        /* \"#utility.yul\":9241:10351   */\n      pop\n        /* \"#utility.yul\":9131:10351   */\n      pop\n      pop\n      jump\t// out\n        /* \"#utility.yul\":10357:10644   */\n    tag_380:\n        /* \"#utility.yul\":10480:10490   */\n      0x00\n        /* \"#utility.yul\":10501:10601   */\n      tag_535\n        /* \"#utility.yul\":10597:10600   */\n      dup4\n        /* \"#utility.yul\":10589:10595   */\n      dup4\n        /* \"#utility.yul\":10501:10601   */\n      tag_379\n      jump\t// in\n    tag_535:\n        /* \"#utility.yul\":10633:10637   */\n      0xc0\n        /* \"#utility.yul\":10628:10631   */\n      dup4\n        /* \"#utility.yul\":10624:10638   */\n      add\n        /* \"#utility.yul\":10610:10638   */\n      swap1\n      pop\n        /* \"#utility.yul\":10357:10644   */\n      swap3\n      swap2\n      pop\n      pop\n      jump\t// out\n        /* \"#utility.yul\":10650:10790   */\n    tag_381:\n        /* \"#utility.yul\":10747:10751   */\n      0x00\n        /* \"#utility.yul\":10779:10783   */\n      0x20\n        /* \"#utility.yul\":10774:10777   */\n      dup3\n        /* \"#utility.yul\":10770:10784   */\n      add\n        /* \"#utility.yul\":10762:10784   */\n      swap1\n      pop\n        /* \"#utility.yul\":10650:10790   */\n      swap2\n      swap1\n      pop\n      jump\t// out\n        /* \"#utility.yul\":10884:11832   */\n    tag_382:\n        /* \"#utility.yul\":11057:11060   */\n      0x00\n        /* \"#utility.yul\":11086:11167   */\n      tag_538\n        /* \"#utility.yul\":11161:11166   */\n      dup3\n        /* \"#utility.yul\":11086:11167   */\n      tag_376\n      jump\t// in\n    tag_538:\n        /* \"#utility.yul\":11183:11296   */\n      tag_539\n        /* \"#utility.yul\":11289:11295   */\n      dup2\n        /* \"#utility.yul\":11284:11287   */\n      dup6\n        /* \"#utility.yul\":11183:11296   */\n      tag_377\n      jump\t// in\n    tag_539:\n        /* \"#utility.yul\":11176:11296   */\n      swap4\n      pop\n        /* \"#utility.yul\":11320:11403   */\n      tag_540\n        /* \"#utility.yul\":11397:11402   */\n      dup4\n        /* \"#utility.yul\":11320:11403   */\n      tag_378\n      jump\t// in\n    tag_540:\n        /* \"#utility.yul\":11426:11433   */\n      dup1\n        /* \"#utility.yul\":11457:11458   */\n      0x00\n        /* \"#utility.yul\":11442:11807   */\n    tag_541:\n        /* \"#utility.yul\":11467:11473   */\n      dup4\n        /* \"#utility.yul\":11464:11465   */\n      dup2\n        /* \"#utility.yul\":11461:11474   */\n      lt\n        /* \"#utility.yul\":11442:11807   */\n      iszero\n      tag_543\n      jumpi\n        /* \"#utility.yul\":11543:11549   */\n      dup2\n        /* \"#utility.yul\":11537:11550   */\n      mload\n        /* \"#utility.yul\":11570:11687   */\n      tag_544\n        /* \"#utility.yul\":11683:11686   */\n      dup9\n        /* \"#utility.yul\":11668:11681   */\n      dup3\n        /* \"#utility.yul\":11570:11687   */\n      tag_380\n      jump\t// in\n    tag_544:\n        /* \"#utility.yul\":11563:11687   */\n      swap8\n      pop\n        /* \"#utility.yul\":11710:11797   */\n      tag_545\n        /* \"#utility.yul\":11790:11796   */\n      dup4\n        /* \"#utility.yul\":11710:11797   */\n      tag_381\n      jump\t// in\n    tag_545:\n        /* \"#utility.yul\":11700:11797   */\n      swap3\n      pop\n        /* \"#utility.yul\":11502:11807   */\n      pop\n        /* \"#utility.yul\":11489:11490   */\n      0x01\n        /* \"#utility.yul\":11486:11487   */\n      dup2\n        /* \"#utility.yul\":11482:11491   */\n      add\n        /* \"#utility.yul\":11477:11491   */\n      swap1\n      pop\n        /* \"#utility.yul\":11442:11807   */\n      jump(tag_541)\n    tag_543:\n        /* \"#utility.yul\":11446:11460   */\n      pop\n        /* \"#utility.yul\":11823:11826   */\n      dup6\n        /* \"#utility.yul\":11816:11826   */\n      swap4\n      pop\n        /* \"#utility.yul\":11062:11832   */\n      pop\n      pop\n      pop\n        /* \"#utility.yul\":10884:11832   */\n      swap3\n      swap2\n      pop\n      pop\n      jump\t// out\n        /* \"#utility.yul\":11838:12319   */\n    tag_92:\n        /* \"#utility.yul\":12035:12039   */\n      0x00\n        /* \"#utility.yul\":12073:12075   */\n      0x20\n        /* \"#utility.yul\":12062:12071   */\n      dup3\n        /* \"#utility.yul\":12058:12076   */\n      add\n        /* \"#utility.yul\":12050:12076   */\n      swap1\n      pop\n        /* \"#utility.yul\":12122:12131   */\n      dup2\n        /* \"#utility.yul\":12116:12120   */\n      dup2\n        /* \"#utility.yul\":12112:12132   */\n      sub\n        /* \"#utility.yul\":12108:12109   */\n      0x00\n        /* \"#utility.yul\":12097:12106   */\n      dup4\n        /* \"#utility.yul\":12093:12110   */\n      add\n        /* \"#utility.yul\":12086:12133   */\n      mstore\n        /* \"#utility.yul\":12150:12312   */\n      tag_547\n        /* \"#utility.yul\":12307:12311   */\n      dup2\n        /* \"#utility.yul\":12298:12304   */\n      dup5\n        /* \"#utility.yul\":12150:12312   */\n      tag_382\n      jump\t// in\n    tag_547:\n        /* \"#utility.yul\":12142:12312   */\n      swap1\n      pop\n        /* \"#utility.yul\":11838:12319   */\n      swap3\n      swap2\n      pop\n      pop\n      jump\t// out\n        /* \"#utility.yul\":12325:12411   */\n    tag_383:\n        /* \"#utility.yul\":12360:12367   */\n      0x00\n        /* \"#utility.yul\":12400:12404   */\n      0xff\n        /* \"#utility.yul\":12393:12398   */\n      dup3\n        /* \"#utility.yul\":12389:12405   */\n      and\n        /* \"#utility.yul\":12378:12405   */\n      swap1\n      pop\n        /* \"#utility.yul\":12325:12411   */\n      swap2\n      swap1\n      pop\n      jump\t// out\n        /* \"#utility.yul\":12417:12529   */\n    tag_384:\n        /* \"#utility.yul\":12500:12522   */\n      tag_550\n        /* \"#utility.yul\":12516:12521   */\n      dup2\n        /* \"#utility.yul\":12500:12522   */\n      tag_383\n      jump\t// in\n    tag_550:\n        /* \"#utility.yul\":12495:12498   */\n      dup3\n        /* \"#utility.yul\":12488:12523   */\n      mstore\n        /* \"#utility.yul\":12417:12529   */\n      pop\n      pop\n      jump\t// out\n        /* \"#utility.yul\":12535:12749   */\n    tag_100:\n        /* \"#utility.yul\":12624:12628   */\n      0x00\n        /* \"#utility.yul\":12662:12664   */\n      0x20\n        /* \"#utility.yul\":12651:12660   */\n      dup3\n        /* \"#utility.yul\":12647:12665   */\n      add\n        /* \"#utility.yul\":12639:12665   */\n      swap1\n      pop\n        /* \"#utility.yul\":12675:12742   */\n      tag_552\n        /* \"#utility.yul\":12739:12740   */\n      0x00\n        /* \"#utility.yul\":12728:12737   */\n      dup4\n        /* \"#utility.yul\":12724:12741   */\n      add\n        /* \"#utility.yul\":12715:12721   */\n      dup5\n        /* \"#utility.yul\":12675:12742   */\n      tag_384\n      jump\t// in\n    tag_552:\n        /* \"#utility.yul\":12535:12749   */\n      swap3\n      swap2\n      pop\n      pop\n      jump\t// out\n        /* \"#utility.yul\":12755:12977   */\n    tag_105:\n        /* \"#utility.yul\":12848:12852   */\n      0x00\n        /* \"#utility.yul\":12886:12888   */\n      0x20\n        /* \"#utility.yul\":12875:12884   */\n      dup3\n        /* \"#utility.yul\":12871:12889   */\n      add\n        /* \"#utility.yul\":12863:12889   */\n      swap1\n      pop\n        /* \"#utility.yul\":12899:12970   */\n      tag_554\n        /* \"#utility.yul\":12967:12968   */\n      0x00\n        /* \"#utility.yul\":12956:12965   */\n      dup4\n        /* \"#utility.yul\":12952:12969   */\n      add\n        /* \"#utility.yul\":12943:12949   */\n      dup5\n        /* \"#utility.yul\":12899:12970   */\n      tag_374\n      jump\t// in\n    tag_554:\n        /* \"#utility.yul\":12755:12977   */\n      swap3\n      swap2\n      pop\n      pop\n      jump\t// out\n        /* \"#utility.yul\":12983:13125   */\n    tag_385:\n        /* \"#utility.yul\":13049:13058   */\n      0x00\n        /* \"#utility.yul\":13082:13119   */\n      tag_556\n        /* \"#utility.yul\":13113:13118   */\n      dup3\n        /* \"#utility.yul\":13082:13119   */\n      tag_370\n      jump\t// in\n    tag_556:\n        /* \"#utility.yul\":13069:13119   */\n      swap1\n      pop\n        /* \"#utility.yul\":12983:13125   */\n      swap2\n      swap1\n      pop\n      jump\t// out\n        /* \"#utility.yul\":13131:13294   */\n    tag_386:\n        /* \"#utility.yul\":13234:13287   */\n      tag_558\n        /* \"#utility.yul\":13281:13286   */\n      dup2\n        /* \"#utility.yul\":13234:13287   */\n      tag_385\n      jump\t// in\n    tag_558:\n        /* \"#utility.yul\":13229:13232   */\n      dup3\n        /* \"#utility.yul\":13222:13288   */\n      mstore\n        /* \"#utility.yul\":13131:13294   */\n      pop\n      pop\n      jump\t// out\n        /* \"#utility.yul\":13300:13554   */\n    tag_118:\n        /* \"#utility.yul\":13409:13413   */\n      0x00\n        /* \"#utility.yul\":13447:13449   */\n      0x20\n        /* \"#utility.yul\":13436:13445   */\n      dup3\n        /* \"#utility.yul\":13432:13450   */\n      add\n        /* \"#utility.yul\":13424:13450   */\n      swap1\n      pop\n        /* \"#utility.yul\":13460:13547   */\n      tag_560\n        /* \"#utility.yul\":13544:13545   */\n      0x00\n        /* \"#utility.yul\":13533:13542   */\n      dup4\n        /* \"#utility.yul\":13529:13546   */\n      add\n        /* \"#utility.yul\":13520:13526   */\n      dup5\n        /* \"#utility.yul\":13460:13547   */\n      tag_386\n      jump\t// in\n    tag_560:\n        /* \"#utility.yul\":13300:13554   */\n      swap3\n      swap2\n      pop\n      pop\n      jump\t// out\n        /* \"#utility.yul\":13560:13701   */\n    tag_387:\n        /* \"#utility.yul\":13625:13634   */\n      0x00\n        /* \"#utility.yul\":13658:13695   */\n      tag_562\n        /* \"#utility.yul\":13689:13694   */\n      dup3\n        /* \"#utility.yul\":13658:13695   */\n      tag_370\n      jump\t// in\n    tag_562:\n        /* \"#utility.yul\":13645:13695   */\n      swap1\n      pop\n        /* \"#utility.yul\":13560:13701   */\n      swap2\n      swap1\n      pop\n      jump\t// out\n        /* \"#utility.yul\":13707:13868   */\n    tag_388:\n        /* \"#utility.yul\":13809:13861   */\n      tag_564\n        /* \"#utility.yul\":13855:13860   */\n      dup2\n        /* \"#utility.yul\":13809:13861   */\n      tag_387\n      jump\t// in\n    tag_564:\n        /* \"#utility.yul\":13804:13807   */\n      dup3\n        /* \"#utility.yul\":13797:13862   */\n      mstore\n        /* \"#utility.yul\":13707:13868   */\n      pop\n      pop\n      jump\t// out\n        /* \"#utility.yul\":13874:14126   */\n    tag_137:\n        /* \"#utility.yul\":13982:13986   */\n      0x00\n        /* \"#utility.yul\":14020:14022   */\n      0x20\n        /* \"#utility.yul\":14009:14018   */\n      dup3\n        /* \"#utility.yul\":14005:14023   */\n      add\n        /* \"#utility.yul\":13997:14023   */\n      swap1\n      pop\n        /* \"#utility.yul\":14033:14119   */\n      tag_566\n        /* \"#utility.yul\":14116:14117   */\n      0x00\n        /* \"#utility.yul\":14105:14114   */\n      dup4\n        /* \"#utility.yul\":14101:14118   */\n      add\n        /* \"#utility.yul\":14092:14098   */\n      dup5\n        /* \"#utility.yul\":14033:14119   */\n      tag_388\n      jump\t// in\n    tag_566:\n        /* \"#utility.yul\":13874:14126   */\n      swap3\n      swap2\n      pop\n      pop\n      jump\t// out\n        /* \"#utility.yul\":14132:14301   */\n    tag_389:\n        /* \"#utility.yul\":14216:14227   */\n      0x00\n        /* \"#utility.yul\":14250:14256   */\n      dup3\n        /* \"#utility.yul\":14245:14248   */\n      dup3\n        /* \"#utility.yul\":14238:14257   */\n      mstore\n        /* \"#utility.yul\":14290:14294   */\n      0x20\n        /* \"#utility.yul\":14285:14288   */\n      dup3\n        /* \"#utility.yul\":14281:14295   */\n      add\n        /* \"#utility.yul\":14266:14295   */\n      swap1\n      pop\n        /* \"#utility.yul\":14132:14301   */\n      swap3\n      swap2\n      pop\n      pop\n      jump\t// out\n        /* \"#utility.yul\":14307:14476   */\n    tag_390:\n        /* \"#utility.yul\":14447:14468   */\n      0x4173736574206e6f74207075626c697368656400000000000000000000000000\n        /* \"#utility.yul\":14443:14444   */\n      0x00\n        /* \"#utility.yul\":14435:14441   */\n      dup3\n        /* \"#utility.yul\":14431:14445   */\n      add\n        /* \"#utility.yul\":14424:14469   */\n      mstore\n        /* \"#utility.yul\":14307:14476   */\n      pop\n      jump\t// out\n        /* \"#utility.yul\":14482:14848   */\n    tag_391:\n        /* \"#utility.yul\":14624:14627   */\n      0x00\n        /* \"#utility.yul\":14645:14712   */\n      tag_570\n        /* \"#utility.yul\":14709:14711   */\n      0x13\n        /* \"#utility.yul\":14704:14707   */\n      dup4\n        /* \"#utility.yul\":14645:14712   */\n      tag_389\n      jump\t// in\n    tag_570:\n        /* \"#utility.yul\":14638:14712   */\n      swap2\n      pop\n        /* \"#utility.yul\":14721:14814   */\n      tag_571\n        /* \"#utility.yul\":14810:14813   */\n      dup3\n        /* \"#utility.yul\":14721:14814   */\n      tag_390\n      jump\t// in\n    tag_571:\n        /* \"#utility.yul\":14839:14841   */\n      0x20\n        /* \"#utility.yul\":14834:14837   */\n      dup3\n        /* \"#utility.yul\":14830:14842   */\n      add\n        /* \"#utility.yul\":14823:14842   */\n      swap1\n      pop\n        /* \"#utility.yul\":14482:14848   */\n      swap2\n      swap1\n      pop\n      jump\t// out\n        /* \"#utility.yul\":14854:15273   */\n    tag_158:\n        /* \"#utility.yul\":15020:15024   */\n      0x00\n        /* \"#utility.yul\":15058:15060   */\n      0x20\n        /* \"#utility.yul\":15047:15056   */\n      dup3\n        /* \"#utility.yul\":15043:15061   */\n      add\n        /* \"#utility.yul\":15035:15061   */\n      swap1\n      pop\n        /* \"#utility.yul\":15107:15116   */\n      dup2\n        /* \"#utility.yul\":15101:15105   */\n      dup2\n        /* \"#utility.yul\":15097:15117   */\n      sub\n        /* \"#utility.yul\":15093:15094   */\n      0x00\n        /* \"#utility.yul\":15082:15091   */\n      dup4\n        /* \"#utility.yul\":15078:15095   */\n      add\n        /* \"#utility.yul\":15071:15118   */\n      mstore\n        /* \"#utility.yul\":15135:15266   */\n      tag_573\n        /* \"#utility.yul\":15261:15265   */\n      dup2\n        /* \"#utility.yul\":15135:15266   */\n      tag_391\n      jump\t// in\n    tag_573:\n        /* \"#utility.yul\":15127:15266   */\n      swap1\n      pop\n        /* \"#utility.yul\":14854:15273   */\n      swap2\n      swap1\n      pop\n      jump\t// out\n        /* \"#utility.yul\":15279:15443   */\n    tag_392:\n        /* \"#utility.yul\":15419:15435   */\n      0x41737365742064656c6973746564000000000000000000000000000000000000\n        /* \"#utility.yul\":15415:15416   */\n      0x00\n        /* \"#utility.yul\":15407:15413   */\n      dup3\n        /* \"#utility.yul\":15403:15417   */\n      add\n        /* \"#utility.yul\":15396:15436   */\n      mstore\n        /* \"#utility.yul\":15279:15443   */\n      pop\n      jump\t// out\n        /* \"#utility.yul\":15449:15815   */\n    tag_393:\n        /* \"#utility.yul\":15591:15594   */\n      0x00\n        /* \"#utility.yul\":15612:15679   */\n      tag_576\n        /* \"#utility.yul\":15676:15678   */\n      0x0e\n        /* \"#utility.yul\":15671:15674   */\n      dup4\n        /* \"#utility.yul\":15612:15679   */\n      tag_389\n      jump\t// in\n    tag_576:\n        /* \"#utility.yul\":15605:15679   */\n      swap2\n      pop\n        /* \"#utility.yul\":15688:15781   */\n      tag_577\n        /* \"#utility.yul\":15777:15780   */\n      dup3\n        /* \"#utility.yul\":15688:15781   */\n      tag_392\n      jump\t// in\n    tag_577:\n        /* \"#utility.yul\":15806:15808   */\n      0x20\n        /* \"#utility.yul\":15801:15804   */\n      dup3\n        /* \"#utility.yul\":15797:15809   */\n      add\n        /* \"#utility.yul\":15790:15809   */\n      swap1\n      pop\n        /* \"#utility.yul\":15449:15815   */\n      swap2\n      swap1\n      pop\n      jump\t// out\n        /* \"#utility.yul\":15821:16240   */\n    tag_165:\n        /* \"#utility.yul\":15987:15991   */\n      0x00\n        /* \"#utility.yul\":16025:16027   */\n      0x20\n        /* \"#utility.yul\":16014:16023   */\n      dup3\n        /* \"#utility.yul\":16010:16028   */\n      add\n        /* \"#utility.yul\":16002:16028   */\n      swap1\n      pop\n        /* \"#utility.yul\":16074:16083   */\n      dup2\n        /* \"#utility.yul\":16068:16072   */\n      dup2\n        /* \"#utility.yul\":16064:16084   */\n      sub\n        /* \"#utility.yul\":16060:16061   */\n      0x00\n        /* \"#utility.yul\":16049:16058   */\n      dup4\n        /* \"#utility.yul\":16045:16062   */\n      add\n        /* \"#utility.yul\":16038:16085   */\n      mstore\n        /* \"#utility.yul\":16102:16233   */\n      tag_579\n        /* \"#utility.yul\":16228:16232   */\n      dup2\n        /* \"#utility.yul\":16102:16233   */\n      tag_393\n      jump\t// in\n    tag_579:\n        /* \"#utility.yul\":16094:16233   */\n      swap1\n      pop\n        /* \"#utility.yul\":15821:16240   */\n      swap2\n      swap1\n      pop\n      jump\t// out\n        /* \"#utility.yul\":16246:16411   */\n    tag_394:\n        /* \"#utility.yul\":16386:16403   */\n      0x496e76616c696420616464726573730000000000000000000000000000000000\n        /* \"#utility.yul\":16382:16383   */\n      0x00\n        /* \"#utility.yul\":16374:16380   */\n      dup3\n        /* \"#utility.yul\":16370:16384   */\n      add\n        /* \"#utility.yul\":16363:16404   */\n      mstore\n        /* \"#utility.yul\":16246:16411   */\n      pop\n      jump\t// out\n        /* \"#utility.yul\":16417:16783   */\n    tag_395:\n        /* \"#utility.yul\":16559:16562   */\n      0x00\n        /* \"#utility.yul\":16580:16647   */\n      tag_582\n        /* \"#utility.yul\":16644:16646   */\n      0x0f\n        /* \"#utility.yul\":16639:16642   */\n      dup4\n        /* \"#utility.yul\":16580:16647   */\n      tag_389\n      jump\t// in\n    tag_582:\n        /* \"#utility.yul\":16573:16647   */\n      swap2\n      pop\n        /* \"#utility.yul\":16656:16749   */\n      tag_583\n        /* \"#utility.yul\":16745:16748   */\n      dup3\n        /* \"#utility.yul\":16656:16749   */\n      tag_394\n      jump\t// in\n    tag_583:\n        /* \"#utility.yul\":16774:16776   */\n      0x20\n        /* \"#utility.yul\":16769:16772   */\n      dup3\n        /* \"#utility.yul\":16765:16777   */\n      add\n        /* \"#utility.yul\":16758:16777   */\n      swap1\n      pop\n        /* \"#utility.yul\":16417:16783   */\n      swap2\n      swap1\n      pop\n      jump\t// out\n        /* \"#utility.yul\":16789:17208   */\n    tag_168:\n        /* \"#utility.yul\":16955:16959   */\n      0x00\n        /* \"#utility.yul\":16993:16995   */\n      0x20\n        /* \"#utility.yul\":16982:16991   */\n      dup3\n        /* \"#utility.yul\":16978:16996   */\n      add\n        /* \"#utility.yul\":16970:16996   */\n      swap1\n      pop\n        /* \"#utility.yul\":17042:17051   */\n      dup2\n        /* \"#utility.yul\":17036:17040   */\n      dup2\n        /* \"#utility.yul\":17032:17052   */\n      sub\n        /* \"#utility.yul\":17028:17029   */\n      0x00\n        /* \"#utility.yul\":17017:17026   */\n      dup4\n        /* \"#utility.yul\":17013:17030   */\n      add\n        /* \"#utility.yul\":17006:17053   */\n      mstore\n        /* \"#utility.yul\":17070:17201   */\n      tag_585\n        /* \"#utility.yul\":17196:17200   */\n      dup2\n        /* \"#utility.yul\":17070:17201   */\n      tag_395\n      jump\t// in\n    tag_585:\n        /* \"#utility.yul\":17062:17201   */\n      swap1\n      pop\n        /* \"#utility.yul\":16789:17208   */\n      swap2\n      swap1\n      pop\n      jump\t// out\n        /* \"#utility.yul\":17214:17386   */\n    tag_396:\n        /* \"#utility.yul\":17354:17378   */\n      0x4f6e6c792073656c6c65722063616e2064656c69737400000000000000000000\n        /* \"#utility.yul\":17350:17351   */\n      0x00\n        /* \"#utility.yul\":17342:17348   */\n      dup3\n        /* \"#utility.yul\":17338:17352   */\n      add\n        /* \"#utility.yul\":17331:17379   */\n      mstore\n        /* \"#utility.yul\":17214:17386   */\n      pop\n      jump\t// out\n        /* \"#utility.yul\":17392:17758   */\n    tag_397:\n        /* \"#utility.yul\":17534:17537   */\n      0x00\n        /* \"#utility.yul\":17555:17622   */\n      tag_588\n        /* \"#utility.yul\":17619:17621   */\n      0x16\n        /* \"#utility.yul\":17614:17617   */\n      dup4\n        /* \"#utility.yul\":17555:17622   */\n      tag_389\n      jump\t// in\n    tag_588:\n        /* \"#utility.yul\":17548:17622   */\n      swap2\n      pop\n        /* \"#utility.yul\":17631:17724   */\n      tag_589\n        /* \"#utility.yul\":17720:17723   */\n      dup3\n        /* \"#utility.yul\":17631:17724   */\n      tag_396\n      jump\t// in\n    tag_589:\n        /* \"#utility.yul\":17749:17751   */\n      0x20\n        /* \"#utility.yul\":17744:17747   */\n      dup3\n        /* \"#utility.yul\":17740:17752   */\n      add\n        /* \"#utility.yul\":17733:17752   */\n      swap1\n      pop\n        /* \"#utility.yul\":17392:17758   */\n      swap2\n      swap1\n      pop\n      jump\t// out\n        /* \"#utility.yul\":17764:18183   */\n    tag_171:\n        /* \"#utility.yul\":17930:17934   */\n      0x00\n        /* \"#utility.yul\":17968:17970   */\n      0x20\n        /* \"#utility.yul\":17957:17966   */\n      dup3\n        /* \"#utility.yul\":17953:17971   */\n      add\n        /* \"#utility.yul\":17945:17971   */\n      swap1\n      pop\n        /* \"#utility.yul\":18017:18026   */\n      dup2\n        /* \"#utility.yul\":18011:18015   */\n      dup2\n        /* \"#utility.yul\":18007:18027   */\n      sub\n        /* \"#utility.yul\":18003:18004   */\n      0x00\n        /* \"#utility.yul\":17992:18001   */\n      dup4\n        /* \"#utility.yul\":17988:18005   */\n      add\n        /* \"#utility.yul\":17981:18028   */\n      mstore\n        /* \"#utility.yul\":18045:18176   */\n      tag_591\n        /* \"#utility.yul\":18171:18175   */\n      dup2\n        /* \"#utility.yul\":18045:18176   */\n      tag_397\n      jump\t// in\n    tag_591:\n        /* \"#utility.yul\":18037:18176   */\n      swap1\n      pop\n        /* \"#utility.yul\":17764:18183   */\n      swap2\n      swap1\n      pop\n      jump\t// out\n        /* \"#utility.yul\":18189:18631   */\n    tag_173:\n        /* \"#utility.yul\":18338:18342   */\n      0x00\n        /* \"#utility.yul\":18376:18378   */\n      0x60\n        /* \"#utility.yul\":18365:18374   */\n      dup3\n        /* \"#utility.yul\":18361:18379   */\n      add\n        /* \"#utility.yul\":18353:18379   */\n      swap1\n      pop\n        /* \"#utility.yul\":18389:18460   */\n      tag_593\n        /* \"#utility.yul\":18457:18458   */\n      0x00\n        /* \"#utility.yul\":18446:18455   */\n      dup4\n        /* \"#utility.yul\":18442:18459   */\n      add\n        /* \"#utility.yul\":18433:18439   */\n      dup7\n        /* \"#utility.yul\":18389:18460   */\n      tag_374\n      jump\t// in\n    tag_593:\n        /* \"#utility.yul\":18470:18542   */\n      tag_594\n        /* \"#utility.yul\":18538:18540   */\n      0x20\n        /* \"#utility.yul\":18527:18536   */\n      dup4\n        /* \"#utility.yul\":18523:18541   */\n      add\n        /* \"#utility.yul\":18514:18520   */\n      dup6\n        /* \"#utility.yul\":18470:18542   */\n      tag_374\n      jump\t// in\n    tag_594:\n        /* \"#utility.yul\":18552:18624   */\n      tag_595\n        /* \"#utility.yul\":18620:18622   */\n      0x40\n        /* \"#utility.yul\":18609:18618   */\n      dup4\n        /* \"#utility.yul\":18605:18623   */\n      add\n        /* \"#utility.yul\":18596:18602   */\n      dup5\n        /* \"#utility.yul\":18552:18624   */\n      tag_373\n      jump\t// in\n    tag_595:\n        /* \"#utility.yul\":18189:18631   */\n      swap5\n      swap4\n      pop\n      pop\n      pop\n      pop\n      jump\t// out\n        /* \"#utility.yul\":18637:18969   */\n    tag_182:\n        /* \"#utility.yul\":18758:18762   */\n      0x00\n        /* \"#utility.yul\":18796:18798   */\n      0x40\n        /* \"#utility.yul\":18785:18794   */\n      dup3\n        /* \"#utility.yul\":18781:18799   */\n      add\n        /* \"#utility.yul\":18773:18799   */\n      swap1\n      pop\n        /* \"#utility.yul\":18809:18880   */\n      tag_597\n        /* \"#utility.yul\":18877:18878   */\n      0x00\n        /* \"#utility.yul\":18866:18875   */\n      dup4\n        /* \"#utility.yul\":18862:18879   */\n      add\n        /* \"#utility.yul\":18853:18859   */\n      dup6\n        /* \"#utility.yul\":18809:18880   */\n      tag_373\n      jump\t// in\n    tag_597:\n        /* \"#utility.yul\":18890:18962   */\n      tag_598\n        /* \"#utility.yul\":18958:18960   */\n      0x20\n        /* \"#utility.yul\":18947:18956   */\n      dup4\n        /* \"#utility.yul\":18943:18961   */\n      add\n        /* \"#utility.yul\":18934:18940   */\n      dup5\n        /* \"#utility.yul\":18890:18962   */\n      tag_373\n      jump\t// in\n    tag_598:\n        /* \"#utility.yul\":18637:18969   */\n      swap4\n      swap3\n      pop\n      pop\n      pop\n      jump\t// out\n        /* \"#utility.yul\":18975:19157   */\n    tag_398:\n        /* \"#utility.yul\":19115:19149   */\n      0x4f776e61626c653a2063616c6c6572206973206e6f7420746865206f776e6572\n        /* \"#utility.yul\":19111:19112   */\n      0x00\n        /* \"#utility.yul\":19103:19109   */\n      dup3\n        /* \"#utility.yul\":19099:19113   */\n      add\n        /* \"#utility.yul\":19092:19150   */\n      mstore\n        /* \"#utility.yul\":18975:19157   */\n      pop\n      jump\t// out\n        /* \"#utility.yul\":19163:19529   */\n    tag_399:\n        /* \"#utility.yul\":19305:19308   */\n      0x00\n        /* \"#utility.yul\":19326:19393   */\n      tag_601\n        /* \"#utility.yul\":19390:19392   */\n      0x20\n        /* \"#utility.yul\":19385:19388   */\n      dup4\n        /* \"#utility.yul\":19326:19393   */\n      tag_389\n      jump\t// in\n    tag_601:\n        /* \"#utility.yul\":19319:19393   */\n      swap2\n      pop\n        /* \"#utility.yul\":19402:19495   */\n      tag_602\n        /* \"#utility.yul\":19491:19494   */\n      dup3\n        /* \"#utility.yul\":19402:19495   */\n      tag_398\n      jump\t// in\n    tag_602:\n        /* \"#utility.yul\":19520:19522   */\n      0x20\n        /* \"#utility.yul\":19515:19518   */\n      dup3\n        /* \"#utility.yul\":19511:19523   */\n      add\n        /* \"#utility.yul\":19504:19523   */\n      swap1\n      pop\n        /* \"#utility.yul\":19163:19529   */\n      swap2\n      swap1\n      pop\n      jump\t// out\n        /* \"#utility.yul\":19535:19954   */\n    tag_189:\n        /* \"#utility.yul\":19701:19705   */\n      0x00\n        /* \"#utility.yul\":19739:19741   */\n      0x20\n        /* \"#utility.yul\":19728:19737   */\n      dup3\n        /* \"#utility.yul\":19724:19742   */\n      add\n        /* \"#utility.yul\":19716:19742   */\n      swap1\n      pop\n        /* \"#utility.yul\":19788:19797   */\n      dup2\n        /* \"#utility.yul\":19782:19786   */\n      dup2\n        /* \"#utility.yul\":19778:19798   */\n      sub\n        /* \"#utility.yul\":19774:19775   */\n      0x00\n        /* \"#utility.yul\":19763:19772   */\n      dup4\n        /* \"#utility.yul\":19759:19776   */\n      add\n        /* \"#utility.yul\":19752:19799   */\n      mstore\n        /* \"#utility.yul\":19816:19947   */\n      tag_604\n        /* \"#utility.yul\":19942:19946   */\n      dup2\n        /* \"#utility.yul\":19816:19947   */\n      tag_399\n      jump\t// in\n    tag_604:\n        /* \"#utility.yul\":19808:19947   */\n      swap1\n      pop\n        /* \"#utility.yul\":19535:19954   */\n      swap2\n      swap1\n      pop\n      jump\t// out\n        /* \"#utility.yul\":19960:20182   */\n    tag_193:\n        /* \"#utility.yul\":20053:20057   */\n      0x00\n        /* \"#utility.yul\":20091:20093   */\n      0x20\n        /* \"#utility.yul\":20080:20089   */\n      dup3\n        /* \"#utility.yul\":20076:20094   */\n      add\n        /* \"#utility.yul\":20068:20094   */\n      swap1\n      pop\n        /* \"#utility.yul\":20104:20175   */\n      tag_606\n        /* \"#utility.yul\":20172:20173   */\n      0x00\n        /* \"#utility.yul\":20161:20170   */\n      dup4\n        /* \"#utility.yul\":20157:20174   */\n      add\n        /* \"#utility.yul\":20148:20154   */\n      dup5\n        /* \"#utility.yul\":20104:20175   */\n      tag_373\n      jump\t// in\n    tag_606:\n        /* \"#utility.yul\":19960:20182   */\n      swap3\n      swap2\n      pop\n      pop\n      jump\t// out\n        /* \"#utility.yul\":20188:20305   */\n    tag_400:\n        /* \"#utility.yul\":20297:20298   */\n      0x00\n        /* \"#utility.yul\":20294:20295   */\n      dup1\n        /* \"#utility.yul\":20287:20299   */\n      revert\n        /* \"#utility.yul\":20311:20413   */\n    tag_401:\n        /* \"#utility.yul\":20352:20358   */\n      0x00\n        /* \"#utility.yul\":20403:20405   */\n      0x1f\n        /* \"#utility.yul\":20399:20406   */\n      not\n        /* \"#utility.yul\":20394:20396   */\n      0x1f\n        /* \"#utility.yul\":20387:20392   */\n      dup4\n        /* \"#utility.yul\":20383:20397   */\n      add\n        /* \"#utility.yul\":20379:20407   */\n      and\n        /* \"#utility.yul\":20369:20407   */\n      swap1\n      pop\n        /* \"#utility.yul\":20311:20413   */\n      swap2\n      swap1\n      pop\n      jump\t// out\n        /* \"#utility.yul\":20419:20599   */\n    tag_261:\n        /* \"#utility.yul\":20467:20544   */\n      0x4e487b7100000000000000000000000000000000000000000000000000000000\n        /* \"#utility.yul\":20464:20465   */\n      0x00\n        /* \"#utility.yul\":20457:20545   */\n      mstore\n        /* \"#utility.yul\":20564:20568   */\n      0x41\n        /* \"#utility.yul\":20561:20562   */\n      0x04\n        /* \"#utility.yul\":20554:20569   */\n      mstore\n        /* \"#utility.yul\":20588:20592   */\n      0x24\n        /* \"#utility.yul\":20585:20586   */\n      0x00\n        /* \"#utility.yul\":20578:20593   */\n      revert\n        /* \"#utility.yul\":20605:20886   */\n    tag_402:\n        /* \"#utility.yul\":20688:20715   */\n      tag_611\n        /* \"#utility.yul\":20710:20714   */\n      dup3\n        /* \"#utility.yul\":20688:20715   */\n      tag_401\n      jump\t// in\n    tag_611:\n        /* \"#utility.yul\":20680:20686   */\n      dup2\n        /* \"#utility.yul\":20676:20716   */\n      add\n        /* \"#utility.yul\":20818:20824   */\n      dup2\n        /* \"#utility.yul\":20806:20816   */\n      dup2\n        /* \"#utility.yul\":20803:20825   */\n      lt\n        /* \"#utility.yul\":20782:20800   */\n      0xffffffffffffffff\n        /* \"#utility.yul\":20770:20780   */\n      dup3\n        /* \"#utility.yul\":20767:20801   */\n      gt\n        /* \"#utility.yul\":20764:20826   */\n      or\n        /* \"#utility.yul\":20761:20849   */\n      iszero\n      tag_612\n      jumpi\n        /* \"#utility.yul\":20829:20847   */\n      tag_613\n      tag_261\n      jump\t// in\n    tag_613:\n        /* \"#utility.yul\":20761:20849   */\n    tag_612:\n        /* \"#utility.yul\":20869:20879   */\n      dup1\n        /* \"#utility.yul\":20865:20867   */\n      0x40\n        /* \"#utility.yul\":20858:20880   */\n      mstore\n        /* \"#utility.yul\":20648:20886   */\n      pop\n        /* \"#utility.yul\":20605:20886   */\n      pop\n      pop\n      jump\t// out\n        /* \"#utility.yul\":20892:21021   */\n    tag_403:\n        /* \"#utility.yul\":20926:20932   */\n      0x00\n        /* \"#utility.yul\":20953:20973   */\n      tag_615\n      tag_357\n      jump\t// in\n    tag_615:\n        /* \"#utility.yul\":20943:20973   */\n      swap1\n      pop\n        /* \"#utility.yul\":20982:21015   */\n      tag_616\n        /* \"#utility.yul\":21010:21014   */\n      dup3\n        /* \"#utility.yul\":21002:21008   */\n      dup3\n        /* \"#utility.yul\":20982:21015   */\n      tag_402\n      jump\t// in\n    tag_616:\n        /* \"#utility.yul\":20892:21021   */\n      swap2\n      swap1\n      pop\n      jump\t// out\n        /* \"#utility.yul\":21027:21144   */\n    tag_404:\n        /* \"#utility.yul\":21136:21137   */\n      0x00\n        /* \"#utility.yul\":21133:21134   */\n      dup1\n        /* \"#utility.yul\":21126:21138   */\n      revert\n        /* \"#utility.yul\":21150:21293   */\n    tag_405:\n        /* \"#utility.yul\":21207:21212   */\n      0x00\n        /* \"#utility.yul\":21238:21244   */\n      dup2\n        /* \"#utility.yul\":21232:21245   */\n      mload\n        /* \"#utility.yul\":21223:21245   */\n      swap1\n      pop\n        /* \"#utility.yul\":21254:21287   */\n      tag_619\n        /* \"#utility.yul\":21281:21286   */\n      dup2\n        /* \"#utility.yul\":21254:21287   */\n      tag_360\n      jump\t// in\n    tag_619:\n        /* \"#utility.yul\":21150:21293   */\n      swap3\n      swap2\n      pop\n      pop\n      jump\t// out\n        /* \"#utility.yul\":21299:21442   */\n    tag_406:\n        /* \"#utility.yul\":21356:21361   */\n      0x00\n        /* \"#utility.yul\":21387:21393   */\n      dup2\n        /* \"#utility.yul\":21381:21394   */\n      mload\n        /* \"#utility.yul\":21372:21394   */\n      swap1\n      pop\n        /* \"#utility.yul\":21403:21436   */\n      tag_621\n        /* \"#utility.yul\":21430:21435   */\n      dup2\n        /* \"#utility.yul\":21403:21436   */\n      tag_362\n      jump\t// in\n    tag_621:\n        /* \"#utility.yul\":21299:21442   */\n      swap3\n      swap2\n      pop\n      pop\n      jump\t// out\n        /* \"#utility.yul\":21448:21565   */\n    tag_407:\n        /* \"#utility.yul\":21557:21558   */\n      0x00\n        /* \"#utility.yul\":21554:21555   */\n      dup1\n        /* \"#utility.yul\":21547:21559   */\n      revert\n        /* \"#utility.yul\":21571:21688   */\n    tag_408:\n        /* \"#utility.yul\":21680:21681   */\n      0x00\n        /* \"#utility.yul\":21677:21678   */\n      dup1\n        /* \"#utility.yul\":21670:21682   */\n      revert\n        /* \"#utility.yul\":21694:22002   */\n    tag_409:\n        /* \"#utility.yul\":21756:21760   */\n      0x00\n        /* \"#utility.yul\":21846:21864   */\n      0xffffffffffffffff\n        /* \"#utility.yul\":21838:21844   */\n      dup3\n        /* \"#utility.yul\":21835:21865   */\n      gt\n        /* \"#utility.yul\":21832:21888   */\n      iszero\n      tag_625\n      jumpi\n        /* \"#utility.yul\":21868:21886   */\n      tag_626\n      tag_261\n      jump\t// in\n    tag_626:\n        /* \"#utility.yul\":21832:21888   */\n    tag_625:\n        /* \"#utility.yul\":21906:21935   */\n      tag_627\n        /* \"#utility.yul\":21928:21934   */\n      dup3\n        /* \"#utility.yul\":21906:21935   */\n      tag_401\n      jump\t// in\n    tag_627:\n        /* \"#utility.yul\":21898:21935   */\n      swap1\n      pop\n        /* \"#utility.yul\":21990:21994   */\n      0x20\n        /* \"#utility.yul\":21984:21988   */\n      dup2\n        /* \"#utility.yul\":21980:21995   */\n      add\n        /* \"#utility.yul\":21972:21995   */\n      swap1\n      pop\n        /* \"#utility.yul\":21694:22002   */\n      swap2\n      swap1\n      pop\n      jump\t// out\n        /* \"#utility.yul\":22008:22315   */\n    tag_410:\n        /* \"#utility.yul\":22076:22077   */\n      0x00\n        /* \"#utility.yul\":22086:22199   */\n    tag_629:\n        /* \"#utility.yul\":22100:22106   */\n      dup4\n        /* \"#utility.yul\":22097:22098   */\n      dup2\n        /* \"#utility.yul\":22094:22107   */\n      lt\n        /* \"#utility.yul\":22086:22199   */\n      iszero\n      tag_631\n      jumpi\n        /* \"#utility.yul\":22185:22186   */\n      dup1\n        /* \"#utility.yul\":22180:22183   */\n      dup3\n        /* \"#utility.yul\":22176:22187   */\n      add\n        /* \"#utility.yul\":22170:22188   */\n      mload\n        /* \"#utility.yul\":22166:22167   */\n      dup2\n        /* \"#utility.yul\":22161:22164   */\n      dup5\n        /* \"#utility.yul\":22157:22168   */\n      add\n        /* \"#utility.yul\":22150:22189   */\n      mstore\n        /* \"#utility.yul\":22122:22124   */\n      0x20\n        /* \"#utility.yul\":22119:22120   */\n      dup2\n        /* \"#utility.yul\":22115:22125   */\n      add\n        /* \"#utility.yul\":22110:22125   */\n      swap1\n      pop\n        /* \"#utility.yul\":22086:22199   */\n      jump(tag_629)\n    tag_631:\n        /* \"#utility.yul\":22217:22223   */\n      dup4\n        /* \"#utility.yul\":22214:22215   */\n      dup2\n        /* \"#utility.yul\":22211:22224   */\n      gt\n        /* \"#utility.yul\":22208:22309   */\n      iszero\n      tag_632\n      jumpi\n        /* \"#utility.yul\":22297:22298   */\n      0x00\n        /* \"#utility.yul\":22288:22294   */\n      dup5\n        /* \"#utility.yul\":22283:22286   */\n      dup5\n        /* \"#utility.yul\":22279:22295   */\n      add\n        /* \"#utility.yul\":22272:22299   */\n      mstore\n        /* \"#utility.yul\":22208:22309   */\n    tag_632:\n        /* \"#utility.yul\":22057:22315   */\n      pop\n        /* \"#utility.yul\":22008:22315   */\n      pop\n      pop\n      pop\n      jump\t// out\n        /* \"#utility.yul\":22321:22742   */\n    tag_411:\n        /* \"#utility.yul\":22410:22415   */\n      0x00\n        /* \"#utility.yul\":22435:22501   */\n      tag_634\n        /* \"#utility.yul\":22451:22500   */\n      tag_635\n        /* \"#utility.yul\":22493:22499   */\n      dup5\n        /* \"#utility.yul\":22451:22500   */\n      tag_409\n      jump\t// in\n    tag_635:\n        /* \"#utility.yul\":22435:22501   */\n      tag_403\n      jump\t// in\n    tag_634:\n        /* \"#utility.yul\":22426:22501   */\n      swap1\n      pop\n        /* \"#utility.yul\":22524:22530   */\n      dup3\n        /* \"#utility.yul\":22517:22522   */\n      dup2\n        /* \"#utility.yul\":22510:22531   */\n      mstore\n        /* \"#utility.yul\":22562:22566   */\n      0x20\n        /* \"#utility.yul\":22555:22560   */\n      dup2\n        /* \"#utility.yul\":22551:22567   */\n      add\n        /* \"#utility.yul\":22600:22603   */\n      dup5\n        /* \"#utility.yul\":22591:22597   */\n      dup5\n        /* \"#utility.yul\":22586:22589   */\n      dup5\n        /* \"#utility.yul\":22582:22598   */\n      add\n        /* \"#utility.yul\":22579:22604   */\n      gt\n        /* \"#utility.yul\":22576:22688   */\n      iszero\n      tag_636\n      jumpi\n        /* \"#utility.yul\":22607:22686   */\n      tag_637\n      tag_408\n      jump\t// in\n    tag_637:\n        /* \"#utility.yul\":22576:22688   */\n    tag_636:\n        /* \"#utility.yul\":22697:22736   */\n      tag_638\n        /* \"#utility.yul\":22729:22735   */\n      dup5\n        /* \"#utility.yul\":22724:22727   */\n      dup3\n        /* \"#utility.yul\":22719:22722   */\n      dup6\n        /* \"#utility.yul\":22697:22736   */\n      tag_410\n      jump\t// in\n    tag_638:\n        /* \"#utility.yul\":22416:22742   */\n      pop\n        /* \"#utility.yul\":22321:22742   */\n      swap4\n      swap3\n      pop\n      pop\n      pop\n      jump\t// out\n        /* \"#utility.yul\":22762:23117   */\n    tag_412:\n        /* \"#utility.yul\":22829:22834   */\n      0x00\n        /* \"#utility.yul\":22878:22881   */\n      dup3\n        /* \"#utility.yul\":22871:22875   */\n      0x1f\n        /* \"#utility.yul\":22863:22869   */\n      dup4\n        /* \"#utility.yul\":22859:22876   */\n      add\n        /* \"#utility.yul\":22855:22882   */\n      slt\n        /* \"#utility.yul\":22845:22967   */\n      tag_640\n      jumpi\n        /* \"#utility.yul\":22886:22965   */\n      tag_641\n      tag_407\n      jump\t// in\n    tag_641:\n        /* \"#utility.yul\":22845:22967   */\n    tag_640:\n        /* \"#utility.yul\":22996:23002   */\n      dup2\n        /* \"#utility.yul\":22990:23003   */\n      mload\n        /* \"#utility.yul\":23021:23111   */\n      tag_642\n        /* \"#utility.yul\":23107:23110   */\n      dup5\n        /* \"#utility.yul\":23099:23105   */\n      dup3\n        /* \"#utility.yul\":23092:23096   */\n      0x20\n        /* \"#utility.yul\":23084:23090   */\n      dup7\n        /* \"#utility.yul\":23080:23097   */\n      add\n        /* \"#utility.yul\":23021:23111   */\n      tag_411\n      jump\t// in\n    tag_642:\n        /* \"#utility.yul\":23012:23111   */\n      swap2\n      pop\n        /* \"#utility.yul\":22835:23117   */\n      pop\n        /* \"#utility.yul\":22762:23117   */\n      swap3\n      swap2\n      pop\n      pop\n      jump\t// out\n        /* \"#utility.yul\":23123:23239   */\n    tag_413:\n        /* \"#utility.yul\":23193:23214   */\n      tag_644\n        /* \"#utility.yul\":23208:23213   */\n      dup2\n        /* \"#utility.yul\":23193:23214   */\n      tag_364\n      jump\t// in\n    tag_644:\n        /* \"#utility.yul\":23186:23191   */\n      dup2\n        /* \"#utility.yul\":23183:23215   */\n      eq\n        /* \"#utility.yul\":23173:23233   */\n      tag_645\n      jumpi\n        /* \"#utility.yul\":23229:23230   */\n      0x00\n        /* \"#utility.yul\":23226:23227   */\n      dup1\n        /* \"#utility.yul\":23219:23231   */\n      revert\n        /* \"#utility.yul\":23173:23233   */\n    tag_645:\n        /* \"#utility.yul\":23123:23239   */\n      pop\n      jump\t// out\n        /* \"#utility.yul\":23245:23382   */\n    tag_414:\n        /* \"#utility.yul\":23299:23304   */\n      0x00\n        /* \"#utility.yul\":23330:23336   */\n      dup2\n        /* \"#utility.yul\":23324:23337   */\n      mload\n        /* \"#utility.yul\":23315:23337   */\n      swap1\n      pop\n        /* \"#utility.yul\":23346:23376   */\n      tag_647\n        /* \"#utility.yul\":23370:23375   */\n      dup2\n        /* \"#utility.yul\":23346:23376   */\n      tag_413\n      jump\t// in\n    tag_647:\n        /* \"#utility.yul\":23245:23382   */\n      swap3\n      swap2\n      pop\n      pop\n      jump\t// out\n        /* \"#utility.yul\":23423:24882   */\n    tag_415:\n        /* \"#utility.yul\":23511:23516   */\n      0x00\n        /* \"#utility.yul\":23555:23559   */\n      0xa0\n        /* \"#utility.yul\":23543:23552   */\n      dup3\n        /* \"#utility.yul\":23538:23541   */\n      dup5\n        /* \"#utility.yul\":23534:23553   */\n      sub\n        /* \"#utility.yul\":23530:23560   */\n      slt\n        /* \"#utility.yul\":23527:23644   */\n      iszero\n      tag_649\n      jumpi\n        /* \"#utility.yul\":23563:23642   */\n      tag_650\n      tag_400\n      jump\t// in\n    tag_650:\n        /* \"#utility.yul\":23527:23644   */\n    tag_649:\n        /* \"#utility.yul\":23662:23683   */\n      tag_651\n        /* \"#utility.yul\":23678:23682   */\n      0xa0\n        /* \"#utility.yul\":23662:23683   */\n      tag_403\n      jump\t// in\n    tag_651:\n        /* \"#utility.yul\":23653:23683   */\n      swap1\n      pop\n        /* \"#utility.yul\":23740:23741   */\n      0x00\n        /* \"#utility.yul\":23780:23840   */\n      tag_652\n        /* \"#utility.yul\":23836:23839   */\n      dup5\n        /* \"#utility.yul\":23827:23833   */\n      dup3\n        /* \"#utility.yul\":23816:23825   */\n      dup6\n        /* \"#utility.yul\":23812:23834   */\n      add\n        /* \"#utility.yul\":23780:23840   */\n      tag_405\n      jump\t// in\n    tag_652:\n        /* \"#utility.yul\":23773:23777   */\n      0x00\n        /* \"#utility.yul\":23766:23771   */\n      dup4\n        /* \"#utility.yul\":23762:23778   */\n      add\n        /* \"#utility.yul\":23755:23841   */\n      mstore\n        /* \"#utility.yul\":23693:23852   */\n      pop\n        /* \"#utility.yul\":23912:23914   */\n      0x20\n        /* \"#utility.yul\":23953:24013   */\n      tag_653\n        /* \"#utility.yul\":24009:24012   */\n      dup5\n        /* \"#utility.yul\":24000:24006   */\n      dup3\n        /* \"#utility.yul\":23989:23998   */\n      dup6\n        /* \"#utility.yul\":23985:24007   */\n      add\n        /* \"#utility.yul\":23953:24013   */\n      tag_406\n      jump\t// in\n    tag_653:\n        /* \"#utility.yul\":23946:23950   */\n      0x20\n        /* \"#utility.yul\":23939:23944   */\n      dup4\n        /* \"#utility.yul\":23935:23951   */\n      add\n        /* \"#utility.yul\":23928:24014   */\n      mstore\n        /* \"#utility.yul\":23862:24025   */\n      pop\n        /* \"#utility.yul\":24107:24109   */\n      0x40\n        /* \"#utility.yul\":24096:24105   */\n      dup3\n        /* \"#utility.yul\":24092:24110   */\n      add\n        /* \"#utility.yul\":24086:24111   */\n      mload\n        /* \"#utility.yul\":24138:24156   */\n      0xffffffffffffffff\n        /* \"#utility.yul\":24130:24136   */\n      dup2\n        /* \"#utility.yul\":24127:24157   */\n      gt\n        /* \"#utility.yul\":24124:24241   */\n      iszero\n      tag_654\n      jumpi\n        /* \"#utility.yul\":24160:24239   */\n      tag_655\n      tag_404\n      jump\t// in\n    tag_655:\n        /* \"#utility.yul\":24124:24241   */\n    tag_654:\n        /* \"#utility.yul\":24280:24350   */\n      tag_656\n        /* \"#utility.yul\":24346:24349   */\n      dup5\n        /* \"#utility.yul\":24337:24343   */\n      dup3\n        /* \"#utility.yul\":24326:24335   */\n      dup6\n        /* \"#utility.yul\":24322:24344   */\n      add\n        /* \"#utility.yul\":24280:24350   */\n      tag_412\n      jump\t// in\n    tag_656:\n        /* \"#utility.yul\":24273:24277   */\n      0x40\n        /* \"#utility.yul\":24266:24271   */\n      dup4\n        /* \"#utility.yul\":24262:24278   */\n      add\n        /* \"#utility.yul\":24255:24351   */\n      mstore\n        /* \"#utility.yul\":24035:24362   */\n      pop\n        /* \"#utility.yul\":24448:24450   */\n      0x60\n        /* \"#utility.yul\":24437:24446   */\n      dup3\n        /* \"#utility.yul\":24433:24451   */\n      add\n        /* \"#utility.yul\":24427:24452   */\n      mload\n        /* \"#utility.yul\":24479:24497   */\n      0xffffffffffffffff\n        /* \"#utility.yul\":24471:24477   */\n      dup2\n        /* \"#utility.yul\":24468:24498   */\n      gt\n        /* \"#utility.yul\":24465:24582   */\n      iszero\n      tag_657\n      jumpi\n        /* \"#utility.yul\":24501:24580   */\n      tag_658\n      tag_404\n      jump\t// in\n    tag_658:\n        /* \"#utility.yul\":24465:24582   */\n    tag_657:\n        /* \"#utility.yul\":24621:24691   */\n      tag_659\n        /* \"#utility.yul\":24687:24690   */\n      dup5\n        /* \"#utility.yul\":24678:24684   */\n      dup3\n        /* \"#utility.yul\":24667:24676   */\n      dup6\n        /* \"#utility.yul\":24663:24685   */\n      add\n        /* \"#utility.yul\":24621:24691   */\n      tag_412\n      jump\t// in\n    tag_659:\n        /* \"#utility.yul\":24614:24618   */\n      0x60\n        /* \"#utility.yul\":24607:24612   */\n      dup4\n        /* \"#utility.yul\":24603:24619   */\n      add\n        /* \"#utility.yul\":24596:24692   */\n      mstore\n        /* \"#utility.yul\":24372:24703   */\n      pop\n        /* \"#utility.yul\":24764:24767   */\n      0x80\n        /* \"#utility.yul\":24806:24863   */\n      tag_660\n        /* \"#utility.yul\":24859:24862   */\n      dup5\n        /* \"#utility.yul\":24850:24856   */\n      dup3\n        /* \"#utility.yul\":24839:24848   */\n      dup6\n        /* \"#utility.yul\":24835:24857   */\n      add\n        /* \"#utility.yul\":24806:24863   */\n      tag_414\n      jump\t// in\n    tag_660:\n        /* \"#utility.yul\":24799:24803   */\n      0x80\n        /* \"#utility.yul\":24792:24797   */\n      dup4\n        /* \"#utility.yul\":24788:24804   */\n      add\n        /* \"#utility.yul\":24781:24864   */\n      mstore\n        /* \"#utility.yul\":24713:24875   */\n      pop\n        /* \"#utility.yul\":23423:24882   */\n      swap3\n      swap2\n      pop\n      pop\n      jump\t// out\n        /* \"#utility.yul\":24888:25448   */\n    tag_197:\n        /* \"#utility.yul\":24986:24992   */\n      0x00\n        /* \"#utility.yul\":25035:25037   */\n      0x20\n        /* \"#utility.yul\":25023:25032   */\n      dup3\n        /* \"#utility.yul\":25014:25021   */\n      dup5\n        /* \"#utility.yul\":25010:25033   */\n      sub\n        /* \"#utility.yul\":25006:25038   */\n      slt\n        /* \"#utility.yul\":25003:25122   */\n      iszero\n      tag_662\n      jumpi\n        /* \"#utility.yul\":25041:25120   */\n      tag_663\n      tag_358\n      jump\t// in\n    tag_663:\n        /* \"#utility.yul\":25003:25122   */\n    tag_662:\n        /* \"#utility.yul\":25182:25183   */\n      0x00\n        /* \"#utility.yul\":25171:25180   */\n      dup3\n        /* \"#utility.yul\":25167:25184   */\n      add\n        /* \"#utility.yul\":25161:25185   */\n      mload\n        /* \"#utility.yul\":25212:25230   */\n      0xffffffffffffffff\n        /* \"#utility.yul\":25204:25210   */\n      dup2\n        /* \"#utility.yul\":25201:25231   */\n      gt\n        /* \"#utility.yul\":25198:25315   */\n      iszero\n      tag_664\n      jumpi\n        /* \"#utility.yul\":25234:25313   */\n      tag_665\n      tag_359\n      jump\t// in\n    tag_665:\n        /* \"#utility.yul\":25198:25315   */\n    tag_664:\n        /* \"#utility.yul\":25339:25431   */\n      tag_666\n        /* \"#utility.yul\":25423:25430   */\n      dup5\n        /* \"#utility.yul\":25414:25420   */\n      dup3\n        /* \"#utility.yul\":25403:25412   */\n      dup6\n        /* \"#utility.yul\":25399:25421   */\n      add\n        /* \"#utility.yul\":25339:25431   */\n      tag_415\n      jump\t// in\n    tag_666:\n        /* \"#utility.yul\":25329:25431   */\n      swap2\n      pop\n        /* \"#utility.yul\":25132:25441   */\n      pop\n        /* \"#utility.yul\":24888:25448   */\n      swap3\n      swap2\n      pop\n      pop\n      jump\t// out\n        /* \"#utility.yul\":25454:25635   */\n    tag_416:\n        /* \"#utility.yul\":25594:25627   */\n      0x5265656e7472616e637947756172643a207265656e7472616e742063616c6c00\n        /* \"#utility.yul\":25590:25591   */\n      0x00\n        /* \"#utility.yul\":25582:25588   */\n      dup3\n        /* \"#utility.yul\":25578:25592   */\n      add\n        /* \"#utility.yul\":25571:25628   */\n      mstore\n        /* \"#utility.yul\":25454:25635   */\n      pop\n      jump\t// out\n        /* \"#utility.yul\":25641:26007   */\n    tag_417:\n        /* \"#utility.yul\":25783:25786   */\n      0x00\n        /* \"#utility.yul\":25804:25871   */\n      tag_669\n        /* \"#utility.yul\":25868:25870   */\n      0x1f\n        /* \"#utility.yul\":25863:25866   */\n      dup4\n        /* \"#utility.yul\":25804:25871   */\n      tag_389\n      jump\t// in\n    tag_669:\n        /* \"#utility.yul\":25797:25871   */\n      swap2\n      pop\n        /* \"#utility.yul\":25880:25973   */\n      tag_670\n        /* \"#utility.yul\":25969:25972   */\n      dup3\n        /* \"#utility.yul\":25880:25973   */\n      tag_416\n      jump\t// in\n    tag_670:\n        /* \"#utility.yul\":25998:26000   */\n      0x20\n        /* \"#utility.yul\":25993:25996   */\n      dup3\n        /* \"#utility.yul\":25989:26001   */\n      add\n        /* \"#utility.yul\":25982:26001   */\n      swap1\n      pop\n        /* \"#utility.yul\":25641:26007   */\n      swap2\n      swap1\n      pop\n      jump\t// out\n        /* \"#utility.yul\":26013:26432   */\n    tag_213:\n        /* \"#utility.yul\":26179:26183   */\n      0x00\n        /* \"#utility.yul\":26217:26219   */\n      0x20\n        /* \"#utility.yul\":26206:26215   */\n      dup3\n        /* \"#utility.yul\":26202:26220   */\n      add\n        /* \"#utility.yul\":26194:26220   */\n      swap1\n      pop\n        /* \"#utility.yul\":26266:26275   */\n      dup2\n        /* \"#utility.yul\":26260:26264   */\n      dup2\n        /* \"#utility.yul\":26256:26276   */\n      sub\n        /* \"#utility.yul\":26252:26253   */\n      0x00\n        /* \"#utility.yul\":26241:26250   */\n      dup4\n        /* \"#utility.yul\":26237:26254   */\n      add\n        /* \"#utility.yul\":26230:26277   */\n      mstore\n        /* \"#utility.yul\":26294:26425   */\n      tag_672\n        /* \"#utility.yul\":26420:26424   */\n      dup2\n        /* \"#utility.yul\":26294:26425   */\n      tag_417\n      jump\t// in\n    tag_672:\n        /* \"#utility.yul\":26286:26425   */\n      swap1\n      pop\n        /* \"#utility.yul\":26013:26432   */\n      swap2\n      swap1\n      pop\n      jump\t// out\n        /* \"#utility.yul\":26438:26616   */\n    tag_418:\n        /* \"#utility.yul\":26578:26608   */\n      0x5072696365206d757374206265206174206c6561737420312077656900000000\n        /* \"#utility.yul\":26574:26575   */\n      0x00\n        /* \"#utility.yul\":26566:26572   */\n      dup3\n        /* \"#utility.yul\":26562:26576   */\n      add\n        /* \"#utility.yul\":26555:26609   */\n      mstore\n        /* \"#utility.yul\":26438:26616   */\n      pop\n      jump\t// out\n        /* \"#utility.yul\":26622:26988   */\n    tag_419:\n        /* \"#utility.yul\":26764:26767   */\n      0x00\n        /* \"#utility.yul\":26785:26852   */\n      tag_675\n        /* \"#utility.yul\":26849:26851   */\n      0x1c\n        /* \"#utility.yul\":26844:26847   */\n      dup4\n        /* \"#utility.yul\":26785:26852   */\n      tag_389\n      jump\t// in\n    tag_675:\n        /* \"#utility.yul\":26778:26852   */\n      swap2\n      pop\n        /* \"#utility.yul\":26861:26954   */\n      tag_676\n        /* \"#utility.yul\":26950:26953   */\n      dup3\n        /* \"#utility.yul\":26861:26954   */\n      tag_418\n      jump\t// in\n    tag_676:\n        /* \"#utility.yul\":26979:26981   */\n      0x20\n        /* \"#utility.yul\":26974:26977   */\n      dup3\n        /* \"#utility.yul\":26970:26982   */\n      add\n        /* \"#utility.yul\":26963:26982   */\n      swap1\n      pop\n        /* \"#utility.yul\":26622:26988   */\n      swap2\n      swap1\n      pop\n      jump\t// out\n        /* \"#utility.yul\":26994:27413   */\n    tag_217:\n        /* \"#utility.yul\":27160:27164   */\n      0x00\n        /* \"#utility.yul\":27198:27200   */\n      0x20\n        /* \"#utility.yul\":27187:27196   */\n      dup3\n        /* \"#utility.yul\":27183:27201   */\n      add\n        /* \"#utility.yul\":27175:27201   */\n      swap1\n      pop\n        /* \"#utility.yul\":27247:27256   */\n      dup2\n        /* \"#utility.yul\":27241:27245   */\n      dup2\n        /* \"#utility.yul\":27237:27257   */\n      sub\n        /* \"#utility.yul\":27233:27234   */\n      0x00\n        /* \"#utility.yul\":27222:27231   */\n      dup4\n        /* \"#utility.yul\":27218:27235   */\n      add\n        /* \"#utility.yul\":27211:27258   */\n      mstore\n        /* \"#utility.yul\":27275:27406   */\n      tag_678\n        /* \"#utility.yul\":27401:27405   */\n      dup2\n        /* \"#utility.yul\":27275:27406   */\n      tag_419\n      jump\t// in\n    tag_678:\n        /* \"#utility.yul\":27267:27406   */\n      swap1\n      pop\n        /* \"#utility.yul\":26994:27413   */\n      swap2\n      swap1\n      pop\n      jump\t// out\n        /* \"#utility.yul\":27419:27596   */\n    tag_420:\n        /* \"#utility.yul\":27559:27588   */\n      0x4974656d206973206e6f7420617661696c61626c65206e6f7720210000000000\n        /* \"#utility.yul\":27555:27556   */\n      0x00\n        /* \"#utility.yul\":27547:27553   */\n      dup3\n        /* \"#utility.yul\":27543:27557   */\n      add\n        /* \"#utility.yul\":27536:27589   */\n      mstore\n        /* \"#utility.yul\":27419:27596   */\n      pop\n      jump\t// out\n        /* \"#utility.yul\":27602:27968   */\n    tag_421:\n        /* \"#utility.yul\":27744:27747   */\n      0x00\n        /* \"#utility.yul\":27765:27832   */\n      tag_681\n        /* \"#utility.yul\":27829:27831   */\n      0x1b\n        /* \"#utility.yul\":27824:27827   */\n      dup4\n        /* \"#utility.yul\":27765:27832   */\n      tag_389\n      jump\t// in\n    tag_681:\n        /* \"#utility.yul\":27758:27832   */\n      swap2\n      pop\n        /* \"#utility.yul\":27841:27934   */\n      tag_682\n        /* \"#utility.yul\":27930:27933   */\n      dup3\n        /* \"#utility.yul\":27841:27934   */\n      tag_420\n      jump\t// in\n    tag_682:\n        /* \"#utility.yul\":27959:27961   */\n      0x20\n        /* \"#utility.yul\":27954:27957   */\n      dup3\n        /* \"#utility.yul\":27950:27962   */\n      add\n        /* \"#utility.yul\":27943:27962   */\n      swap1\n      pop\n        /* \"#utility.yul\":27602:27968   */\n      swap2\n      swap1\n      pop\n      jump\t// out\n        /* \"#utility.yul\":27974:28393   */\n    tag_224:\n        /* \"#utility.yul\":28140:28144   */\n      0x00\n        /* \"#utility.yul\":28178:28180   */\n      0x20\n        /* \"#utility.yul\":28167:28176   */\n      dup3\n        /* \"#utility.yul\":28163:28181   */\n      add\n        /* \"#utility.yul\":28155:28181   */\n      swap1\n      pop\n        /* \"#utility.yul\":28227:28236   */\n      dup2\n        /* \"#utility.yul\":28221:28225   */\n      dup2\n        /* \"#utility.yul\":28217:28237   */\n      sub\n        /* \"#utility.yul\":28213:28214   */\n      0x00\n        /* \"#utility.yul\":28202:28211   */\n      dup4\n        /* \"#utility.yul\":28198:28215   */\n      add\n        /* \"#utility.yul\":28191:28238   */\n      mstore\n        /* \"#utility.yul\":28255:28386   */\n      tag_684\n        /* \"#utility.yul\":28381:28385   */\n      dup2\n        /* \"#utility.yul\":28255:28386   */\n      tag_421\n      jump\t// in\n    tag_684:\n        /* \"#utility.yul\":28247:28386   */\n      swap1\n      pop\n        /* \"#utility.yul\":27974:28393   */\n      swap2\n      swap1\n      pop\n      jump\t// out\n        /* \"#utility.yul\":28399:28579   */\n    tag_422:\n        /* \"#utility.yul\":28447:28524   */\n      0x4e487b7100000000000000000000000000000000000000000000000000000000\n        /* \"#utility.yul\":28444:28445   */\n      0x00\n        /* \"#utility.yul\":28437:28525   */\n      mstore\n        /* \"#utility.yul\":28544:28548   */\n      0x11\n        /* \"#utility.yul\":28541:28542   */\n      0x04\n        /* \"#utility.yul\":28534:28549   */\n      mstore\n        /* \"#utility.yul\":28568:28572   */\n      0x24\n        /* \"#utility.yul\":28565:28566   */\n      0x00\n        /* \"#utility.yul\":28558:28573   */\n      revert\n        /* \"#utility.yul\":28585:28890   */\n    tag_254:\n        /* \"#utility.yul\":28625:28628   */\n      0x00\n        /* \"#utility.yul\":28644:28664   */\n      tag_687\n        /* \"#utility.yul\":28662:28663   */\n      dup3\n        /* \"#utility.yul\":28644:28664   */\n      tag_347\n      jump\t// in\n    tag_687:\n        /* \"#utility.yul\":28639:28664   */\n      swap2\n      pop\n        /* \"#utility.yul\":28678:28698   */\n      tag_688\n        /* \"#utility.yul\":28696:28697   */\n      dup4\n        /* \"#utility.yul\":28678:28698   */\n      tag_347\n      jump\t// in\n    tag_688:\n        /* \"#utility.yul\":28673:28698   */\n      swap3\n      pop\n        /* \"#utility.yul\":28832:28833   */\n      dup3\n        /* \"#utility.yul\":28764:28830   */\n      0xffffffffffffffffffffffffffffffffffffffffffffffffffffffffffffffff\n        /* \"#utility.yul\":28760:28834   */\n      sub\n        /* \"#utility.yul\":28757:28758   */\n      dup3\n        /* \"#utility.yul\":28754:28835   */\n      gt\n        /* \"#utility.yul\":28751:28858   */\n      iszero\n      tag_689\n      jumpi\n        /* \"#utility.yul\":28838:28856   */\n      tag_690\n      tag_422\n      jump\t// in\n    tag_690:\n        /* \"#utility.yul\":28751:28858   */\n    tag_689:\n        /* \"#utility.yul\":28882:28883   */\n      dup3\n        /* \"#utility.yul\":28879:28880   */\n      dup3\n        /* \"#utility.yul\":28875:28884   */\n      add\n        /* \"#utility.yul\":28868:28884   */\n      swap1\n      pop\n        /* \"#utility.yul\":28585:28890   */\n      swap3\n      swap2\n      pop\n      pop\n      jump\t// out\n        /* \"#utility.yul\":28896:29129   */\n    tag_258:\n        /* \"#utility.yul\":28935:28938   */\n      0x00\n        /* \"#utility.yul\":28958:28982   */\n      tag_692\n        /* \"#utility.yul\":28976:28981   */\n      dup3\n        /* \"#utility.yul\":28958:28982   */\n      tag_347\n      jump\t// in\n    tag_692:\n        /* \"#utility.yul\":28949:28982   */\n      swap2\n      pop\n        /* \"#utility.yul\":29004:29070   */\n      0xffffffffffffffffffffffffffffffffffffffffffffffffffffffffffffffff\n        /* \"#utility.yul\":28997:29002   */\n      dup3\n        /* \"#utility.yul\":28994:29071   */\n      sub\n        /* \"#utility.yul\":28991:29094   */\n      tag_693\n      jumpi\n        /* \"#utility.yul\":29074:29092   */\n      tag_694\n      tag_422\n      jump\t// in\n    tag_694:\n        /* \"#utility.yul\":28991:29094   */\n    tag_693:\n        /* \"#utility.yul\":29121:29122   */\n      0x01\n        /* \"#utility.yul\":29114:29119   */\n      dup3\n        /* \"#utility.yul\":29110:29123   */\n      add\n        /* \"#utility.yul\":29103:29123   */\n      swap1\n      pop\n        /* \"#utility.yul\":28896:29129   */\n      swap2\n      swap1\n      pop\n      jump\t// out\n        /* \"#utility.yul\":29135:29315   */\n    tag_277:\n        /* \"#utility.yul\":29183:29260   */\n      0x4e487b7100000000000000000000000000000000000000000000000000000000\n        /* \"#utility.yul\":29180:29181   */\n      0x00\n        /* \"#utility.yul\":29173:29261   */\n      mstore\n        /* \"#utility.yul\":29280:29284   */\n      0x32\n        /* \"#utility.yul\":29277:29278   */\n      0x04\n        /* \"#utility.yul\":29270:29285   */\n      mstore\n        /* \"#utility.yul\":29304:29308   */\n      0x24\n        /* \"#utility.yul\":29301:29302   */\n      0x00\n        /* \"#utility.yul\":29294:29309   */\n      revert\n        /* \"#utility.yul\":29321:29572   */\n    tag_423:\n        /* \"#utility.yul\":29461:29495   */\n      0x506c65617365207375626d6974207468652061736b696e672070726963652069\n        /* \"#utility.yul\":29457:29458   */\n      0x00\n        /* \"#utility.yul\":29449:29455   */\n      dup3\n        /* \"#utility.yul\":29445:29459   */\n      add\n        /* \"#utility.yul\":29438:29496   */\n      mstore\n        /* \"#utility.yul\":29530:29564   */\n      0x6e206f7264657220746f20636f6d706c65746520746865207075726368617365\n        /* \"#utility.yul\":29525:29527   */\n      0x20\n        /* \"#utility.yul\":29517:29523   */\n      dup3\n        /* \"#utility.yul\":29513:29528   */\n      add\n        /* \"#utility.yul\":29506:29565   */\n      mstore\n        /* \"#utility.yul\":29321:29572   */\n      pop\n      jump\t// out\n        /* \"#utility.yul\":29578:29944   */\n    tag_424:\n        /* \"#utility.yul\":29720:29723   */\n      0x00\n        /* \"#utility.yul\":29741:29808   */\n      tag_698\n        /* \"#utility.yul\":29805:29807   */\n      0x40\n        /* \"#utility.yul\":29800:29803   */\n      dup4\n        /* \"#utility.yul\":29741:29808   */\n      tag_389\n      jump\t// in\n    tag_698:\n        /* \"#utility.yul\":29734:29808   */\n      swap2\n      pop\n        /* \"#utility.yul\":29817:29910   */\n      tag_699\n        /* \"#utility.yul\":29906:29909   */\n      dup3\n        /* \"#utility.yul\":29817:29910   */\n      tag_423\n      jump\t// in\n    tag_699:\n        /* \"#utility.yul\":29935:29937   */\n      0x40\n        /* \"#utility.yul\":29930:29933   */\n      dup3\n        /* \"#utility.yul\":29926:29938   */\n      add\n        /* \"#utility.yul\":29919:29938   */\n      swap1\n      pop\n        /* \"#utility.yul\":29578:29944   */\n      swap2\n      swap1\n      pop\n      jump\t// out\n        /* \"#utility.yul\":29950:30369   */\n    tag_299:\n        /* \"#utility.yul\":30116:30120   */\n      0x00\n        /* \"#utility.yul\":30154:30156   */\n      0x20\n        /* \"#utility.yul\":30143:30152   */\n      dup3\n        /* \"#utility.yul\":30139:30157   */\n      add\n        /* \"#utility.yul\":30131:30157   */\n      swap1\n      pop\n        /* \"#utility.yul\":30203:30212   */\n      dup2\n        /* \"#utility.yul\":30197:30201   */\n      dup2\n        /* \"#utility.yul\":30193:30213   */\n      sub\n        /* \"#utility.yul\":30189:30190   */\n      0x00\n        /* \"#utility.yul\":30178:30187   */\n      dup4\n        /* \"#utility.yul\":30174:30191   */\n      add\n        /* \"#utility.yul\":30167:30214   */\n      mstore\n        /* \"#utility.yul\":30231:30362   */\n      tag_701\n        /* \"#utility.yul\":30357:30361   */\n      dup2\n        /* \"#utility.yul\":30231:30362   */\n      tag_424\n      jump\t// in\n    tag_701:\n        /* \"#utility.yul\":30223:30362   */\n      swap1\n      pop\n        /* \"#utility.yul\":29950:30369   */\n      swap2\n      swap1\n      pop\n      jump\t// out\n        /* \"#utility.yul\":30375:30720   */\n    tag_306:\n        /* \"#utility.yul\":30442:30448   */\n      0x00\n        /* \"#utility.yul\":30491:30493   */\n      0x20\n        /* \"#utility.yul\":30479:30488   */\n      dup3\n        /* \"#utility.yul\":30470:30477   */\n      dup5\n        /* \"#utility.yul\":30466:30489   */\n      sub\n        /* \"#utility.yul\":30462:30494   */\n      slt\n        /* \"#utility.yul\":30459:30578   */\n      iszero\n      tag_703\n      jumpi\n        /* \"#utility.yul\":30497:30576   */\n      tag_704\n      tag_358\n      jump\t// in\n    tag_704:\n        /* \"#utility.yul\":30459:30578   */\n    tag_703:\n        /* \"#utility.yul\":30617:30618   */\n      0x00\n        /* \"#utility.yul\":30642:30703   */\n      tag_705\n        /* \"#utility.yul\":30695:30702   */\n      dup5\n        /* \"#utility.yul\":30686:30692   */\n      dup3\n        /* \"#utility.yul\":30675:30684   */\n      dup6\n        /* \"#utility.yul\":30671:30693   */\n      add\n        /* \"#utility.yul\":30642:30703   */\n      tag_414\n      jump\t// in\n    tag_705:\n        /* \"#utility.yul\":30632:30703   */\n      swap2\n      pop\n        /* \"#utility.yul\":30588:30713   */\n      pop\n        /* \"#utility.yul\":30375:30720   */\n      swap3\n      swap2\n      pop\n      pop\n      jump\t// out\n        /* \"#utility.yul\":30726:30879   */\n    tag_425:\n        /* \"#utility.yul\":30866:30871   */\n      0x5351460000000000000000000000000000000000000000000000000000000000\n        /* \"#utility.yul\":30862:30863   */\n      0x00\n        /* \"#utility.yul\":30854:30860   */\n      dup3\n        /* \"#utility.yul\":30850:30864   */\n      add\n        /* \"#utility.yul\":30843:30872   */\n      mstore\n        /* \"#utility.yul\":30726:30879   */\n      pop\n      jump\t// out\n        /* \"#utility.yul\":30885:31250   */\n    tag_426:\n        /* \"#utility.yul\":31027:31030   */\n      0x00\n        /* \"#utility.yul\":31048:31114   */\n      tag_708\n        /* \"#utility.yul\":31112:31113   */\n      0x03\n        /* \"#utility.yul\":31107:31110   */\n      dup4\n        /* \"#utility.yul\":31048:31114   */\n      tag_389\n      jump\t// in\n    tag_708:\n        /* \"#utility.yul\":31041:31114   */\n      swap2\n      pop\n        /* \"#utility.yul\":31123:31216   */\n      tag_709\n        /* \"#utility.yul\":31212:31215   */\n      dup3\n        /* \"#utility.yul\":31123:31216   */\n      tag_425\n      jump\t// in\n    tag_709:\n        /* \"#utility.yul\":31241:31243   */\n      0x20\n        /* \"#utility.yul\":31236:31239   */\n      dup3\n        /* \"#utility.yul\":31232:31244   */\n      add\n        /* \"#utility.yul\":31225:31244   */\n      swap1\n      pop\n        /* \"#utility.yul\":30885:31250   */\n      swap2\n      swap1\n      pop\n      jump\t// out\n        /* \"#utility.yul\":31256:32006   */\n    tag_319:\n        /* \"#utility.yul\":31506:31510   */\n      0x00\n        /* \"#utility.yul\":31544:31547   */\n      0x80\n        /* \"#utility.yul\":31533:31542   */\n      dup3\n        /* \"#utility.yul\":31529:31548   */\n      add\n        /* \"#utility.yul\":31521:31548   */\n      swap1\n      pop\n        /* \"#utility.yul\":31558:31629   */\n      tag_711\n        /* \"#utility.yul\":31626:31627   */\n      0x00\n        /* \"#utility.yul\":31615:31624   */\n      dup4\n        /* \"#utility.yul\":31611:31628   */\n      add\n        /* \"#utility.yul\":31602:31608   */\n      dup7\n        /* \"#utility.yul\":31558:31629   */\n      tag_373\n      jump\t// in\n    tag_711:\n        /* \"#utility.yul\":31639:31711   */\n      tag_712\n        /* \"#utility.yul\":31707:31709   */\n      0x20\n        /* \"#utility.yul\":31696:31705   */\n      dup4\n        /* \"#utility.yul\":31692:31710   */\n      add\n        /* \"#utility.yul\":31683:31689   */\n      dup6\n        /* \"#utility.yul\":31639:31711   */\n      tag_373\n      jump\t// in\n    tag_712:\n        /* \"#utility.yul\":31758:31767   */\n      dup2\n        /* \"#utility.yul\":31752:31756   */\n      dup2\n        /* \"#utility.yul\":31748:31768   */\n      sub\n        /* \"#utility.yul\":31743:31745   */\n      0x40\n        /* \"#utility.yul\":31732:31741   */\n      dup4\n        /* \"#utility.yul\":31728:31746   */\n      add\n        /* \"#utility.yul\":31721:31769   */\n      mstore\n        /* \"#utility.yul\":31786:31917   */\n      tag_713\n        /* \"#utility.yul\":31912:31916   */\n      dup2\n        /* \"#utility.yul\":31786:31917   */\n      tag_426\n      jump\t// in\n    tag_713:\n        /* \"#utility.yul\":31778:31917   */\n      swap1\n      pop\n        /* \"#utility.yul\":31927:31999   */\n      tag_714\n        /* \"#utility.yul\":31995:31997   */\n      0x60\n        /* \"#utility.yul\":31984:31993   */\n      dup4\n        /* \"#utility.yul\":31980:31998   */\n      add\n        /* \"#utility.yul\":31971:31977   */\n      dup5\n        /* \"#utility.yul\":31927:31999   */\n      tag_373\n      jump\t// in\n    tag_714:\n        /* \"#utility.yul\":31256:32006   */\n      swap5\n      swap4\n      pop\n      pop\n      pop\n      pop\n      jump\t// out\n        /* \"#utility.yul\":32012:32237   */\n    tag_427:\n        /* \"#utility.yul\":32152:32186   */\n      0x4f776e61626c653a206e6577206f776e657220697320746865207a65726f2061\n        /* \"#utility.yul\":32148:32149   */\n      0x00\n        /* \"#utility.yul\":32140:32146   */\n      dup3\n        /* \"#utility.yul\":32136:32150   */\n      add\n        /* \"#utility.yul\":32129:32187   */\n      mstore\n        /* \"#utility.yul\":32221:32229   */\n      0x6464726573730000000000000000000000000000000000000000000000000000\n        /* \"#utility.yul\":32216:32218   */\n      0x20\n        /* \"#utility.yul\":32208:32214   */\n      dup3\n        /* \"#utility.yul\":32204:32219   */\n      add\n        /* \"#utility.yul\":32197:32230   */\n      mstore\n        /* \"#utility.yul\":32012:32237   */\n      pop\n      jump\t// out\n        /* \"#utility.yul\":32243:32609   */\n    tag_428:\n        /* \"#utility.yul\":32385:32388   */\n      0x00\n        /* \"#utility.yul\":32406:32473   */\n      tag_717\n        /* \"#utility.yul\":32470:32472   */\n      0x26\n        /* \"#utility.yul\":32465:32468   */\n      dup4\n        /* \"#utility.yul\":32406:32473   */\n      tag_389\n      jump\t// in\n    tag_717:\n        /* \"#utility.yul\":32399:32473   */\n      swap2\n      pop\n        /* \"#utility.yul\":32482:32575   */\n      tag_718\n        /* \"#utility.yul\":32571:32574   */\n      dup3\n        /* \"#utility.yul\":32482:32575   */\n      tag_427\n      jump\t// in\n    tag_718:\n        /* \"#utility.yul\":32600:32602   */\n      0x40\n        /* \"#utility.yul\":32595:32598   */\n      dup3\n        /* \"#utility.yul\":32591:32603   */\n      add\n        /* \"#utility.yul\":32584:32603   */\n      swap1\n      pop\n        /* \"#utility.yul\":32243:32609   */\n      swap2\n      swap1\n      pop\n      jump\t// out\n        /* \"#utility.yul\":32615:33034   */\n    tag_339:\n        /* \"#utility.yul\":32781:32785   */\n      0x00\n        /* \"#utility.yul\":32819:32821   */\n      0x20\n        /* \"#utility.yul\":32808:32817   */\n      dup3\n        /* \"#utility.yul\":32804:32822   */\n      add\n        /* \"#utility.yul\":32796:32822   */\n      swap1\n      pop\n        /* \"#utility.yul\":32868:32877   */\n      dup2\n        /* \"#utility.yul\":32862:32866   */\n      dup2\n        /* \"#utility.yul\":32858:32878   */\n      sub\n        /* \"#utility.yul\":32854:32855   */\n      0x00\n        /* \"#utility.yul\":32843:32852   */\n      dup4\n        /* \"#utility.yul\":32839:32856   */\n      add\n        /* \"#utility.yul\":32832:32879   */\n      mstore\n        /* \"#utility.yul\":32896:33027   */\n      tag_720\n        /* \"#utility.yul\":33022:33026   */\n      dup2\n        /* \"#utility.yul\":32896:33027   */\n      tag_428\n      jump\t// in\n    tag_720:\n        /* \"#utility.yul\":32888:33027   */\n      swap1\n      pop\n        /* \"#utility.yul\":32615:33034   */\n      swap2\n      swap1\n      pop\n      jump\t// out\n\n    auxdata: 0xa264697066735822122013c2dbc129cb53dc3cfb07dccaf2a6b63198498e5f6b54b9d42e63f0910e6e6564736f6c634300080d0033\n}\n",
				"bytecode": {
					"linkReferences": {},
					"object": "60806040523480156200001157600080fd5b506040516200362038038062003620833981810160405281019062000037919062000263565b60016000819055506200005f620000536200012b60201b60201c565b6200013360201b60201c565b82600960006101000a81548173ffffffffffffffffffffffffffffffffffffffff021916908373ffffffffffffffffffffffffffffffffffffffff16021790555081600b60006101000a81548173ffffffffffffffffffffffffffffffffffffffff021916908373ffffffffffffffffffffffffffffffffffffffff16021790555080600a60006101000a81548173ffffffffffffffffffffffffffffffffffffffff021916908373ffffffffffffffffffffffffffffffffffffffff160217905550505050620002bf565b600033905090565b6000600c60009054906101000a900473ffffffffffffffffffffffffffffffffffffffff16905081600c60006101000a81548173ffffffffffffffffffffffffffffffffffffffff021916908373ffffffffffffffffffffffffffffffffffffffff1602179055508173ffffffffffffffffffffffffffffffffffffffff168173ffffffffffffffffffffffffffffffffffffffff167f8be0079c531659141344cd1fd0a4f28419497f9722a3daafe3b4186f6b6457e060405160405180910390a35050565b600080fd5b600073ffffffffffffffffffffffffffffffffffffffff82169050919050565b60006200022b82620001fe565b9050919050565b6200023d816200021e565b81146200024957600080fd5b50565b6000815190506200025d8162000232565b92915050565b6000806000606084860312156200027f576200027e620001f9565b5b60006200028f868287016200024c565b9350506020620002a2868287016200024c565b9250506040620002b5868287016200024c565b9150509250925092565b61335180620002cf6000396000f3fe60806040526004361061014b5760003560e01c8063673cf668116100b6578063c45a01551161006f578063c45a015514610469578063c7be7a4914610494578063e0606dd8146104d1578063f2fde38b1461050e578063f55de0c714610537578063ff68fa6e146105625761014b565b8063673cf6681461037d578063715018a6146103a857806385a8b36c146103bf5780638da5cb5b146103ea578063a1c11ca814610415578063b7a60c7e1461043e5761014b565b80632b4c32be116101085780632b4c32be14610270578063361c19951461029b5780633fc15f15146102b7578063517bd451146102e25780635bb47808146103125780635c80a4351461033b5761014b565b80630f08efe014610150578063100616311461017b57806315b12494146101a457806316e7031a146101cd57806327ce464e1461020a5780632a45b25014610233575b600080fd5b34801561015c57600080fd5b506101656105a4565b604051610172919061246a565b60405180910390f35b34801561018757600080fd5b506101a2600480360381019061019d91906124c5565b6106c3565b005b3480156101b057600080fd5b506101cb60048036038101906101c6919061251e565b610b33565b005b3480156101d957600080fd5b506101f460048036038101906101ef91906124c5565b610bf3565b6040516102019190612566565b60405180910390f35b34801561021657600080fd5b50610231600480360381019061022c919061251e565b610ca6565b005b34801561023f57600080fd5b5061025a600480360381019061025591906124c5565b610d66565b604051610267919061246a565b60405180910390f35b34801561027c57600080fd5b50610285610e9e565b60405161029291906125bc565b60405180910390f35b6102b560048036038101906102b091906125d7565b610ea9565b005b3480156102c357600080fd5b506102cc61130d565b6040516102d99190612676565b60405180910390f35b3480156102ee57600080fd5b506102f7611333565b604051610309969594939291906126be565b60405180910390f35b34801561031e57600080fd5b506103396004803603810190610334919061251e565b6113aa565b005b34801561034757600080fd5b50610362600480360381019061035d919061271f565b61146a565b604051610374969594939291906126be565b60405180910390f35b34801561038957600080fd5b50610392611500565b60405161039f9190612889565b60405180910390f35b3480156103b457600080fd5b506103bd61182c565b005b3480156103cb57600080fd5b506103d46118b4565b6040516103e191906128c7565b60405180910390f35b3480156103f657600080fd5b506103ff6118c7565b60405161040c91906128e2565b60405180910390f35b34801561042157600080fd5b5061043c600480360381019061043791906125d7565b6118f1565b005b34801561044a57600080fd5b50610453611df4565b60405161046091906128c7565b60405180910390f35b34801561047557600080fd5b5061047e611e07565b60405161048b919061291e565b60405180910390f35b3480156104a057600080fd5b506104bb60048036038101906104b691906124c5565b611e2d565b6040516104c8919061246a565b60405180910390f35b3480156104dd57600080fd5b506104f860048036038101906104f391906124c5565b611f5f565b60405161050591906128e2565b60405180910390f35b34801561051a57600080fd5b506105356004803603810190610530919061251e565b612012565b005b34801561054357600080fd5b5061054c612109565b604051610559919061295a565b60405180910390f35b34801561056e57600080fd5b50610589600480360381019061058491906124c5565b61212f565b60405161059b969594939291906126be565b60405180910390f35b6105ac6122aa565b60016040518060c001604052908160008201548152602001600182015481526020016002820160009054906101000a900473ffffffffffffffffffffffffffffffffffffffff1673ffffffffffffffffffffffffffffffffffffffff1673ffffffffffffffffffffffffffffffffffffffff1681526020016003820160009054906101000a900473ffffffffffffffffffffffffffffffffffffffff1673ffffffffffffffffffffffffffffffffffffffff1673ffffffffffffffffffffffffffffffffffffffff168152602001600482015481526020016005820160009054906101000a900460ff1660018111156106a8576106a7612378565b5b60018111156106ba576106b9612378565b5b81525050905090565b60003390506000600f60008481526020019081526020016000206040518060c001604052908160008201548152602001600182015481526020016002820160009054906101000a900473ffffffffffffffffffffffffffffffffffffffff1673ffffffffffffffffffffffffffffffffffffffff1673ffffffffffffffffffffffffffffffffffffffff1681526020016003820160009054906101000a900473ffffffffffffffffffffffffffffffffffffffff1673ffffffffffffffffffffffffffffffffffffffff1673ffffffffffffffffffffffffffffffffffffffff168152602001600482015481526020016005820160009054906101000a900460ff1660018111156107d7576107d6612378565b5b60018111156107e9576107e8612378565b5b8152505090506000816000015103610836576040517f08c379a000000000000000000000000000000000000000000000000000000000815260040161082d906129d2565b60405180910390fd5b60018081111561084957610848612378565b5b8160a0015160018111156108605761085f612378565b5b146108a0576040517f08c379a000000000000000000000000000000000000000000000000000000000815260040161089790612a3e565b60405180910390fd5b600081604001519050600073ffffffffffffffffffffffffffffffffffffffff168173ffffffffffffffffffffffffffffffffffffffff1603610918576040517f08c379a000000000000000000000000000000000000000000000000000000000815260040161090f90612aaa565b60405180910390fd5b3373ffffffffffffffffffffffffffffffffffffffff168173ffffffffffffffffffffffffffffffffffffffff1614610986576040517f08c379a000000000000000000000000000000000000000000000000000000000815260040161097d90612b16565b60405180910390fd5b600b60009054906101000a900473ffffffffffffffffffffffffffffffffffffffff1673ffffffffffffffffffffffffffffffffffffffff166342842e0e3083876040518463ffffffff1660e01b81526004016109e593929190612b36565b600060405180830381600087803b1580156109ff57600080fd5b505af1158015610a13573d6000803e3d6000fd5b5050505060008260a001906001811115610a3057610a2f612378565b5b90816001811115610a4457610a43612378565b5b81525050600f600085815260200190815260200160002060008082016000905560018201600090556002820160006101000a81549073ffffffffffffffffffffffffffffffffffffffff02191690556003820160006101000a81549073ffffffffffffffffffffffffffffffffffffffff021916905560048201600090556005820160006101000a81549060ff021916905550508273ffffffffffffffffffffffffffffffffffffffff16847f72ffc2a266acba5f77e2b49400103cb61b428f37a97057ebe671e83fddd71e67846000015142604051610b25929190612b6d565b60405180910390a350505050565b610b3b6121b8565b73ffffffffffffffffffffffffffffffffffffffff16610b596118c7565b73ffffffffffffffffffffffffffffffffffffffff1614610baf576040517f08c379a0000000000000000000000000000000000000000000000000000000008152600401610ba690612be2565b60405180910390fd5b80600b60006101000a81548173ffffffffffffffffffffffffffffffffffffffff021916908373ffffffffffffffffffffffffffffffffffffffff16021790555050565b600080600a60009054906101000a900473ffffffffffffffffffffffffffffffffffffffff1673ffffffffffffffffffffffffffffffffffffffff1663d30bdac9846040518263ffffffff1660e01b8152600401610c519190612c02565b600060405180830381865afa158015610c6e573d6000803e3d6000fd5b505050506040513d6000823e3d601f19601f82011682018060405250810190610c979190612eab565b90508060800151915050919050565b610cae6121b8565b73ffffffffffffffffffffffffffffffffffffffff16610ccc6118c7565b73ffffffffffffffffffffffffffffffffffffffff1614610d22576040517f08c379a0000000000000000000000000000000000000000000000000000000008152600401610d1990612be2565b60405180910390fd5b80600960006101000a81548173ffffffffffffffffffffffffffffffffffffffff021916908373ffffffffffffffffffffffffffffffffffffffff16021790555050565b610d6e6122aa565b6000600f60008481526020019081526020016000206040518060c001604052908160008201548152602001600182015481526020016002820160009054906101000a900473ffffffffffffffffffffffffffffffffffffffff1673ffffffffffffffffffffffffffffffffffffffff1673ffffffffffffffffffffffffffffffffffffffff1681526020016003820160009054906101000a900473ffffffffffffffffffffffffffffffffffffffff1673ffffffffffffffffffffffffffffffffffffffff1673ffffffffffffffffffffffffffffffffffffffff168152602001600482015481526020016005820160009054906101000a900460ff166001811115610e7d57610e7c612378565b5b6001811115610e8f57610e8e612378565b5b81525050905080915050919050565b6380ac58cd60e01b81565b600260005403610eee576040517f08c379a0000000000000000000000000000000000000000000000000000000008152600401610ee590612f40565b60405180910390fd5b600260008190555060008111610f39576040517f08c379a0000000000000000000000000000000000000000000000000000000008152600401610f3090612fac565b60405180910390fd5b6000600a60009054906101000a900473ffffffffffffffffffffffffffffffffffffffff1673ffffffffffffffffffffffffffffffffffffffff1663d30bdac9846040518263ffffffff1660e01b8152600401610f969190612c02565b600060405180830381865afa158015610fb3573d6000803e3d6000fd5b505050506040513d6000823e3d601f19601f82011682018060405250810190610fdc9190612eab565b9050600015158160800151151514611029576040517f08c379a000000000000000000000000000000000000000000000000000000000815260040161102090613018565b60405180910390fd5b611033600d6121c0565b600061103f600d6121d6565b90506040518060c001604052808281526020018581526020013373ffffffffffffffffffffffffffffffffffffffff168152602001600073ffffffffffffffffffffffffffffffffffffffff1681526020018481526020016001808111156110aa576110a9612378565b5b815250600f6000838152602001908152602001600020600082015181600001556020820151816001015560408201518160020160006101000a81548173ffffffffffffffffffffffffffffffffffffffff021916908373ffffffffffffffffffffffffffffffffffffffff16021790555060608201518160030160006101000a81548173ffffffffffffffffffffffffffffffffffffffff021916908373ffffffffffffffffffffffffffffffffffffffff1602179055506080820151816004015560a08201518160050160006101000a81548160ff0219169083600181111561119757611196612378565b5b0217905550905050600b60009054906101000a900473ffffffffffffffffffffffffffffffffffffffff1673ffffffffffffffffffffffffffffffffffffffff166323b872dd3330876040518463ffffffff1660e01b81526004016111fe93929190612b36565b600060405180830381600087803b15801561121857600080fd5b505af115801561122c573d6000803e3d6000fd5b50505050600a60009054906101000a900473ffffffffffffffffffffffffffffffffffffffff1673ffffffffffffffffffffffffffffffffffffffff1663c1e9518a3330876040518463ffffffff1660e01b815260040161128f93929190612b36565b600060405180830381600087803b1580156112a957600080fd5b505af11580156112bd573d6000803e3d6000fd5b5050505083817f38690a554ffbc44eb6a75016e47d517d0db8e6c37494adc68d6d0b2c66f0ab21336000876040516112f793929190612b36565b60405180910390a3505060016000819055505050565b600960009054906101000a900473ffffffffffffffffffffffffffffffffffffffff1681565b60018060000154908060010154908060020160009054906101000a900473ffffffffffffffffffffffffffffffffffffffff16908060030160009054906101000a900473ffffffffffffffffffffffffffffffffffffffff16908060040154908060050160009054906101000a900460ff16905086565b6113b26121b8565b73ffffffffffffffffffffffffffffffffffffffff166113d06118c7565b73ffffffffffffffffffffffffffffffffffffffff1614611426576040517f08c379a000000000000000000000000000000000000000000000000000000000815260040161141d90612be2565b60405180910390fd5b80600a60006101000a81548173ffffffffffffffffffffffffffffffffffffffff021916908373ffffffffffffffffffffffffffffffffffffffff16021790555050565b6008602052816000526040600020602052806000526040600020600091509150508060000154908060010154908060020160009054906101000a900473ffffffffffffffffffffffffffffffffffffffff16908060030160009054906101000a900473ffffffffffffffffffffffffffffffffffffffff16908060040154908060050160009054906101000a900460ff16905086565b6060600061150e600d6121d6565b905060008060005b838110156115b6573373ffffffffffffffffffffffffffffffffffffffff16600f60006001846115469190613067565b815260200190815260200160002060030160009054906101000a900473ffffffffffffffffffffffffffffffffffffffff1673ffffffffffffffffffffffffffffffffffffffff16036115a3576001836115a09190613067565b92505b80806115ae906130bd565b915050611516565b5060008267ffffffffffffffff8111156115d3576115d2612c33565b5b60405190808252806020026020018201604052801561160c57816020015b6115f96122aa565b8152602001906001900390816115f15790505b50905060005b84811015611821573373ffffffffffffffffffffffffffffffffffffffff16600f60006001846116429190613067565b815260200190815260200160002060030160009054906101000a900473ffffffffffffffffffffffffffffffffffffffff1673ffffffffffffffffffffffffffffffffffffffff160361180e576000600f60006001846116a29190613067565b81526020019081526020016000206000015490506000600f60008381526020019081526020016000209050806040518060c001604052908160008201548152602001600182015481526020016002820160009054906101000a900473ffffffffffffffffffffffffffffffffffffffff1673ffffffffffffffffffffffffffffffffffffffff1673ffffffffffffffffffffffffffffffffffffffff1681526020016003820160009054906101000a900473ffffffffffffffffffffffffffffffffffffffff1673ffffffffffffffffffffffffffffffffffffffff1673ffffffffffffffffffffffffffffffffffffffff168152602001600482015481526020016005820160009054906101000a900460ff1660018111156117c8576117c7612378565b5b60018111156117da576117d9612378565b5b815250508486815181106117f1576117f0613105565b5b60200260200101819052506001856118099190613067565b945050505b8080611819906130bd565b915050611612565b508094505050505090565b6118346121b8565b73ffffffffffffffffffffffffffffffffffffffff166118526118c7565b73ffffffffffffffffffffffffffffffffffffffff16146118a8576040517f08c379a000000000000000000000000000000000000000000000000000000000815260040161189f90612be2565b60405180910390fd5b6118b260006121e4565b565b600b60149054906101000a900460ff1681565b6000600c60009054906101000a900473ffffffffffffffffffffffffffffffffffffffff16905090565b600260005403611936576040517f08c379a000000000000000000000000000000000000000000000000000000000815260040161192d90612f40565b60405180910390fd5b60026000819055506000600f60008481526020019081526020016000206004015490506000600f60008581526020019081526020016000206001015490506000600f600086815260200190815260200160002060020160009054906101000a900473ffffffffffffffffffffffffffffffffffffffff1690506000600a60009054906101000a900473ffffffffffffffffffffffffffffffffffffffff1673ffffffffffffffffffffffffffffffffffffffff1663d30bdac9846040518263ffffffff1660e01b8152600401611a0c9190612c02565b600060405180830381865afa158015611a29573d6000803e3d6000fd5b505050506040513d6000823e3d601f19601f82011682018060405250810190611a529190612eab565b9050838514611a96576040517f08c379a0000000000000000000000000000000000000000000000000000000008152600401611a8d906131a6565b60405180910390fd5b600015158160800151151514611ae1576040517f08c379a0000000000000000000000000000000000000000000000000000000008152600401611ad890613018565b60405180910390fd5b600960009054906101000a900473ffffffffffffffffffffffffffffffffffffffff1673ffffffffffffffffffffffffffffffffffffffff166323b872dd33600f60008a815260200190815260200160002060020160009054906101000a900473ffffffffffffffffffffffffffffffffffffffff16886040518463ffffffff1660e01b8152600401611b7693929190612b36565b6020604051808303816000875af1158015611b95573d6000803e3d6000fd5b505050506040513d601f19601f82011682018060405250810190611bb991906131c6565b50600b60009054906101000a900473ffffffffffffffffffffffffffffffffffffffff1673ffffffffffffffffffffffffffffffffffffffff166323b872dd3033866040518463ffffffff1660e01b8152600401611c1993929190612b36565b600060405180830381600087803b158015611c3357600080fd5b505af1158015611c47573d6000803e3d6000fd5b5050505033600f600088815260200190815260200160002060030160006101000a81548173ffffffffffffffffffffffffffffffffffffffff021916908373ffffffffffffffffffffffffffffffffffffffff1602179055506000600f600088815260200190815260200160002060050160006101000a81548160ff02191690836001811115611cda57611cd9612378565b5b0217905550600a60009054906101000a900473ffffffffffffffffffffffffffffffffffffffff1673ffffffffffffffffffffffffffffffffffffffff1663c1e9518a3033866040518463ffffffff1660e01b8152600401611d3e93929190612b36565b600060405180830381600087803b158015611d5857600080fd5b505af1158015611d6c573d6000803e3d6000fd5b50505050611d7a600e6121c0565b3373ffffffffffffffffffffffffffffffffffffffff168273ffffffffffffffffffffffffffffffffffffffff16847f551327aee12d0a8b3ede8d0e3182a40a5ff3ed9f1811dd622915db30b609b7df898842604051611ddc9392919061323f565b60405180910390a45050505060016000819055505050565b600b60159054906101000a900460ff1681565b600a60009054906101000a900473ffffffffffffffffffffffffffffffffffffffff1681565b611e356122aa565b600f60008381526020019081526020016000206040518060c001604052908160008201548152602001600182015481526020016002820160009054906101000a900473ffffffffffffffffffffffffffffffffffffffff1673ffffffffffffffffffffffffffffffffffffffff1673ffffffffffffffffffffffffffffffffffffffff1681526020016003820160009054906101000a900473ffffffffffffffffffffffffffffffffffffffff1673ffffffffffffffffffffffffffffffffffffffff1673ffffffffffffffffffffffffffffffffffffffff168152602001600482015481526020016005820160009054906101000a900460ff166001811115611f4257611f41612378565b5b6001811115611f5457611f53612378565b5b815250509050919050565b600080600a60009054906101000a900473ffffffffffffffffffffffffffffffffffffffff1673ffffffffffffffffffffffffffffffffffffffff1663d30bdac9846040518263ffffffff1660e01b8152600401611fbd9190612c02565b600060405180830381865afa158015611fda573d6000803e3d6000fd5b505050506040513d6000823e3d601f19601f820116820180604052508101906120039190612eab565b90508060200151915050919050565b61201a6121b8565b73ffffffffffffffffffffffffffffffffffffffff166120386118c7565b73ffffffffffffffffffffffffffffffffffffffff161461208e576040517f08c379a000000000000000000000000000000000000000000000000000000000815260040161208590612be2565b60405180910390fd5b600073ffffffffffffffffffffffffffffffffffffffff168173ffffffffffffffffffffffffffffffffffffffff16036120fd576040517f08c379a00000000000000000000000000000000000000000000000000000000081526004016120f4906132fb565b60405180910390fd5b612106816121e4565b50565b600b60009054906101000a900473ffffffffffffffffffffffffffffffffffffffff1681565b60076020528060005260406000206000915090508060000154908060010154908060020160009054906101000a900473ffffffffffffffffffffffffffffffffffffffff16908060030160009054906101000a900473ffffffffffffffffffffffffffffffffffffffff16908060040154908060050160009054906101000a900460ff16905086565b600033905090565b6001816000016000828254019250508190555050565b600081600001549050919050565b6000600c60009054906101000a900473ffffffffffffffffffffffffffffffffffffffff16905081600c60006101000a81548173ffffffffffffffffffffffffffffffffffffffff021916908373ffffffffffffffffffffffffffffffffffffffff1602179055508173ffffffffffffffffffffffffffffffffffffffff168173ffffffffffffffffffffffffffffffffffffffff167f8be0079c531659141344cd1fd0a4f28419497f9722a3daafe3b4186f6b6457e060405160405180910390a35050565b6040518060c001604052806000815260200160008152602001600073ffffffffffffffffffffffffffffffffffffffff168152602001600073ffffffffffffffffffffffffffffffffffffffff168152602001600081526020016000600181111561231857612317612378565b5b81525090565b6000819050919050565b6123318161231e565b82525050565b600073ffffffffffffffffffffffffffffffffffffffff82169050919050565b600061236282612337565b9050919050565b61237281612357565b82525050565b7f4e487b7100000000000000000000000000000000000000000000000000000000600052602160045260246000fd5b600281106123b8576123b7612378565b5b50565b60008190506123c9826123a7565b919050565b60006123d9826123bb565b9050919050565b6123e9816123ce565b82525050565b60c0820160008201516124056000850182612328565b5060208201516124186020850182612328565b50604082015161242b6040850182612369565b50606082015161243e6060850182612369565b5060808201516124516080850182612328565b5060a082015161246460a08501826123e0565b50505050565b600060c08201905061247f60008301846123ef565b92915050565b6000604051905090565b600080fd5b600080fd5b6124a28161231e565b81146124ad57600080fd5b50565b6000813590506124bf81612499565b92915050565b6000602082840312156124db576124da61248f565b5b60006124e9848285016124b0565b91505092915050565b6124fb81612357565b811461250657600080fd5b50565b600081359050612518816124f2565b92915050565b6000602082840312156125345761253361248f565b5b600061254284828501612509565b91505092915050565b60008115159050919050565b6125608161254b565b82525050565b600060208201905061257b6000830184612557565b92915050565b60007fffffffff0000000000000000000000000000000000000000000000000000000082169050919050565b6125b681612581565b82525050565b60006020820190506125d160008301846125ad565b92915050565b600080604083850312156125ee576125ed61248f565b5b60006125fc858286016124b0565b925050602061260d858286016124b0565b9150509250929050565b6000819050919050565b600061263c61263761263284612337565b612617565b612337565b9050919050565b600061264e82612621565b9050919050565b600061266082612643565b9050919050565b61267081612655565b82525050565b600060208201905061268b6000830184612667565b92915050565b61269a8161231e565b82525050565b6126a981612357565b82525050565b6126b8816123ce565b82525050565b600060c0820190506126d36000830189612691565b6126e06020830188612691565b6126ed60408301876126a0565b6126fa60608301866126a0565b6127076080830185612691565b61271460a08301846126af565b979650505050505050565b600080604083850312156127365761273561248f565b5b600061274485828601612509565b9250506020612755858286016124b0565b9150509250929050565b600081519050919050565b600082825260208201905092915050565b6000819050602082019050919050565b60c0820160008201516127a16000850182612328565b5060208201516127b46020850182612328565b5060408201516127c76040850182612369565b5060608201516127da6060850182612369565b5060808201516127ed6080850182612328565b5060a082015161280060a08501826123e0565b50505050565b6000612812838361278b565b60c08301905092915050565b6000602082019050919050565b60006128368261275f565b612840818561276a565b935061284b8361277b565b8060005b8381101561287c5781516128638882612806565b975061286e8361281e565b92505060018101905061284f565b5085935050505092915050565b600060208201905081810360008301526128a3818461282b565b905092915050565b600060ff82169050919050565b6128c1816128ab565b82525050565b60006020820190506128dc60008301846128b8565b92915050565b60006020820190506128f760008301846126a0565b92915050565b600061290882612643565b9050919050565b612918816128fd565b82525050565b6000602082019050612933600083018461290f565b92915050565b600061294482612643565b9050919050565b61295481612939565b82525050565b600060208201905061296f600083018461294b565b92915050565b600082825260208201905092915050565b7f4173736574206e6f74207075626c697368656400000000000000000000000000600082015250565b60006129bc601383612975565b91506129c782612986565b602082019050919050565b600060208201905081810360008301526129eb816129af565b9050919050565b7f41737365742064656c6973746564000000000000000000000000000000000000600082015250565b6000612a28600e83612975565b9150612a33826129f2565b602082019050919050565b60006020820190508181036000830152612a5781612a1b565b9050919050565b7f496e76616c696420616464726573730000000000000000000000000000000000600082015250565b6000612a94600f83612975565b9150612a9f82612a5e565b602082019050919050565b60006020820190508181036000830152612ac381612a87565b9050919050565b7f4f6e6c792073656c6c65722063616e2064656c69737400000000000000000000600082015250565b6000612b00601683612975565b9150612b0b82612aca565b602082019050919050565b60006020820190508181036000830152612b2f81612af3565b9050919050565b6000606082019050612b4b60008301866126a0565b612b5860208301856126a0565b612b656040830184612691565b949350505050565b6000604082019050612b826000830185612691565b612b8f6020830184612691565b9392505050565b7f4f776e61626c653a2063616c6c6572206973206e6f7420746865206f776e6572600082015250565b6000612bcc602083612975565b9150612bd782612b96565b602082019050919050565b60006020820190508181036000830152612bfb81612bbf565b9050919050565b6000602082019050612c176000830184612691565b92915050565b600080fd5b6000601f19601f8301169050919050565b7f4e487b7100000000000000000000000000000000000000000000000000000000600052604160045260246000fd5b612c6b82612c22565b810181811067ffffffffffffffff82111715612c8a57612c89612c33565b5b80604052505050565b6000612c9d612485565b9050612ca98282612c62565b919050565b600080fd5b600081519050612cc281612499565b92915050565b600081519050612cd7816124f2565b92915050565b600080fd5b600080fd5b600067ffffffffffffffff821115612d0257612d01612c33565b5b612d0b82612c22565b9050602081019050919050565b60005b83811015612d36578082015181840152602081019050612d1b565b83811115612d45576000848401525b50505050565b6000612d5e612d5984612ce7565b612c93565b905082815260208101848484011115612d7a57612d79612ce2565b5b612d85848285612d18565b509392505050565b600082601f830112612da257612da1612cdd565b5b8151612db2848260208601612d4b565b91505092915050565b612dc48161254b565b8114612dcf57600080fd5b50565b600081519050612de181612dbb565b92915050565b600060a08284031215612dfd57612dfc612c1d565b5b612e0760a0612c93565b90506000612e1784828501612cb3565b6000830152506020612e2b84828501612cc8565b602083015250604082015167ffffffffffffffff811115612e4f57612e4e612cae565b5b612e5b84828501612d8d565b604083015250606082015167ffffffffffffffff811115612e7f57612e7e612cae565b5b612e8b84828501612d8d565b6060830152506080612e9f84828501612dd2565b60808301525092915050565b600060208284031215612ec157612ec061248f565b5b600082015167ffffffffffffffff811115612edf57612ede612494565b5b612eeb84828501612de7565b91505092915050565b7f5265656e7472616e637947756172643a207265656e7472616e742063616c6c00600082015250565b6000612f2a601f83612975565b9150612f3582612ef4565b602082019050919050565b60006020820190508181036000830152612f5981612f1d565b9050919050565b7f5072696365206d757374206265206174206c6561737420312077656900000000600082015250565b6000612f96601c83612975565b9150612fa182612f60565b602082019050919050565b60006020820190508181036000830152612fc581612f89565b9050919050565b7f4974656d206973206e6f7420617661696c61626c65206e6f7720210000000000600082015250565b6000613002601b83612975565b915061300d82612fcc565b602082019050919050565b6000602082019050818103600083015261303181612ff5565b9050919050565b7f4e487b7100000000000000000000000000000000000000000000000000000000600052601160045260246000fd5b60006130728261231e565b915061307d8361231e565b9250827fffffffffffffffffffffffffffffffffffffffffffffffffffffffffffffffff038211156130b2576130b1613038565b5b828201905092915050565b60006130c88261231e565b91507fffffffffffffffffffffffffffffffffffffffffffffffffffffffffffffffff82036130fa576130f9613038565b5b600182019050919050565b7f4e487b7100000000000000000000000000000000000000000000000000000000600052603260045260246000fd5b7f506c65617365207375626d6974207468652061736b696e67207072696365206960008201527f6e206f7264657220746f20636f6d706c65746520746865207075726368617365602082015250565b6000613190604083612975565b915061319b82613134565b604082019050919050565b600060208201905081810360008301526131bf81613183565b9050919050565b6000602082840312156131dc576131db61248f565b5b60006131ea84828501612dd2565b91505092915050565b7f5351460000000000000000000000000000000000000000000000000000000000600082015250565b6000613229600383612975565b9150613234826131f3565b602082019050919050565b60006080820190506132546000830186612691565b6132616020830185612691565b81810360408301526132728161321c565b90506132816060830184612691565b949350505050565b7f4f776e61626c653a206e6577206f776e657220697320746865207a65726f206160008201527f6464726573730000000000000000000000000000000000000000000000000000602082015250565b60006132e5602683612975565b91506132f082613289565b604082019050919050565b60006020820190508181036000830152613314816132d8565b905091905056fea264697066735822122013c2dbc129cb53dc3cfb07dccaf2a6b63198498e5f6b54b9d42e63f0910e6e6564736f6c634300080d0033",
					"opcodes": "PUSH1 0x80 PUSH1 0x40 MSTORE CALLVALUE DUP1 ISZERO PUSH3 0x11 JUMPI PUSH1 0x0 DUP1 REVERT JUMPDEST POP PUSH1 0x40 MLOAD PUSH3 0x3620 CODESIZE SUB DUP1 PUSH3 0x3620 DUP4 CODECOPY DUP2 DUP2 ADD PUSH1 0x40 MSTORE DUP2 ADD SWAP1 PUSH3 0x37 SWAP2 SWAP1 PUSH3 0x263 JUMP JUMPDEST PUSH1 0x1 PUSH1 0x0 DUP2 SWAP1 SSTORE POP PUSH3 0x5F PUSH3 0x53 PUSH3 0x12B PUSH1 0x20 SHL PUSH1 0x20 SHR JUMP JUMPDEST PUSH3 0x133 PUSH1 0x20 SHL PUSH1 0x20 SHR JUMP JUMPDEST DUP3 PUSH1 0x9 PUSH1 0x0 PUSH2 0x100 EXP DUP2 SLOAD DUP2 PUSH20 0xFFFFFFFFFFFFFFFFFFFFFFFFFFFFFFFFFFFFFFFF MUL NOT AND SWAP1 DUP4 PUSH20 0xFFFFFFFFFFFFFFFFFFFFFFFFFFFFFFFFFFFFFFFF AND MUL OR SWAP1 SSTORE POP DUP2 PUSH1 0xB PUSH1 0x0 PUSH2 0x100 EXP DUP2 SLOAD DUP2 PUSH20 0xFFFFFFFFFFFFFFFFFFFFFFFFFFFFFFFFFFFFFFFF MUL NOT AND SWAP1 DUP4 PUSH20 0xFFFFFFFFFFFFFFFFFFFFFFFFFFFFFFFFFFFFFFFF AND MUL OR SWAP1 SSTORE POP DUP1 PUSH1 0xA PUSH1 0x0 PUSH2 0x100 EXP DUP2 SLOAD DUP2 PUSH20 0xFFFFFFFFFFFFFFFFFFFFFFFFFFFFFFFFFFFFFFFF MUL NOT AND SWAP1 DUP4 PUSH20 0xFFFFFFFFFFFFFFFFFFFFFFFFFFFFFFFFFFFFFFFF AND MUL OR SWAP1 SSTORE POP POP POP POP PUSH3 0x2BF JUMP JUMPDEST PUSH1 0x0 CALLER SWAP1 POP SWAP1 JUMP JUMPDEST PUSH1 0x0 PUSH1 0xC PUSH1 0x0 SWAP1 SLOAD SWAP1 PUSH2 0x100 EXP SWAP1 DIV PUSH20 0xFFFFFFFFFFFFFFFFFFFFFFFFFFFFFFFFFFFFFFFF AND SWAP1 POP DUP2 PUSH1 0xC PUSH1 0x0 PUSH2 0x100 EXP DUP2 SLOAD DUP2 PUSH20 0xFFFFFFFFFFFFFFFFFFFFFFFFFFFFFFFFFFFFFFFF MUL NOT AND SWAP1 DUP4 PUSH20 0xFFFFFFFFFFFFFFFFFFFFFFFFFFFFFFFFFFFFFFFF AND MUL OR SWAP1 SSTORE POP DUP2 PUSH20 0xFFFFFFFFFFFFFFFFFFFFFFFFFFFFFFFFFFFFFFFF AND DUP2 PUSH20 0xFFFFFFFFFFFFFFFFFFFFFFFFFFFFFFFFFFFFFFFF AND PUSH32 0x8BE0079C531659141344CD1FD0A4F28419497F9722A3DAAFE3B4186F6B6457E0 PUSH1 0x40 MLOAD PUSH1 0x40 MLOAD DUP1 SWAP2 SUB SWAP1 LOG3 POP POP JUMP JUMPDEST PUSH1 0x0 DUP1 REVERT JUMPDEST PUSH1 0x0 PUSH20 0xFFFFFFFFFFFFFFFFFFFFFFFFFFFFFFFFFFFFFFFF DUP3 AND SWAP1 POP SWAP2 SWAP1 POP JUMP JUMPDEST PUSH1 0x0 PUSH3 0x22B DUP3 PUSH3 0x1FE JUMP JUMPDEST SWAP1 POP SWAP2 SWAP1 POP JUMP JUMPDEST PUSH3 0x23D DUP2 PUSH3 0x21E JUMP JUMPDEST DUP2 EQ PUSH3 0x249 JUMPI PUSH1 0x0 DUP1 REVERT JUMPDEST POP JUMP JUMPDEST PUSH1 0x0 DUP2 MLOAD SWAP1 POP PUSH3 0x25D DUP2 PUSH3 0x232 JUMP JUMPDEST SWAP3 SWAP2 POP POP JUMP JUMPDEST PUSH1 0x0 DUP1 PUSH1 0x0 PUSH1 0x60 DUP5 DUP7 SUB SLT ISZERO PUSH3 0x27F JUMPI PUSH3 0x27E PUSH3 0x1F9 JUMP JUMPDEST JUMPDEST PUSH1 0x0 PUSH3 0x28F DUP7 DUP3 DUP8 ADD PUSH3 0x24C JUMP JUMPDEST SWAP4 POP POP PUSH1 0x20 PUSH3 0x2A2 DUP7 DUP3 DUP8 ADD PUSH3 0x24C JUMP JUMPDEST SWAP3 POP POP PUSH1 0x40 PUSH3 0x2B5 DUP7 DUP3 DUP8 ADD PUSH3 0x24C JUMP JUMPDEST SWAP2 POP POP SWAP3 POP SWAP3 POP SWAP3 JUMP JUMPDEST PUSH2 0x3351 DUP1 PUSH3 0x2CF PUSH1 0x0 CODECOPY PUSH1 0x0 RETURN INVALID PUSH1 0x80 PUSH1 0x40 MSTORE PUSH1 0x4 CALLDATASIZE LT PUSH2 0x14B JUMPI PUSH1 0x0 CALLDATALOAD PUSH1 0xE0 SHR DUP1 PUSH4 0x673CF668 GT PUSH2 0xB6 JUMPI DUP1 PUSH4 0xC45A0155 GT PUSH2 0x6F JUMPI DUP1 PUSH4 0xC45A0155 EQ PUSH2 0x469 JUMPI DUP1 PUSH4 0xC7BE7A49 EQ PUSH2 0x494 JUMPI DUP1 PUSH4 0xE0606DD8 EQ PUSH2 0x4D1 JUMPI DUP1 PUSH4 0xF2FDE38B EQ PUSH2 0x50E JUMPI DUP1 PUSH4 0xF55DE0C7 EQ PUSH2 0x537 JUMPI DUP1 PUSH4 0xFF68FA6E EQ PUSH2 0x562 JUMPI PUSH2 0x14B JUMP JUMPDEST DUP1 PUSH4 0x673CF668 EQ PUSH2 0x37D JUMPI DUP1 PUSH4 0x715018A6 EQ PUSH2 0x3A8 JUMPI DUP1 PUSH4 0x85A8B36C EQ PUSH2 0x3BF JUMPI DUP1 PUSH4 0x8DA5CB5B EQ PUSH2 0x3EA JUMPI DUP1 PUSH4 0xA1C11CA8 EQ PUSH2 0x415 JUMPI DUP1 PUSH4 0xB7A60C7E EQ PUSH2 0x43E JUMPI PUSH2 0x14B JUMP JUMPDEST DUP1 PUSH4 0x2B4C32BE GT PUSH2 0x108 JUMPI DUP1 PUSH4 0x2B4C32BE EQ PUSH2 0x270 JUMPI DUP1 PUSH4 0x361C1995 EQ PUSH2 0x29B JUMPI DUP1 PUSH4 0x3FC15F15 EQ PUSH2 0x2B7 JUMPI DUP1 PUSH4 0x517BD451 EQ PUSH2 0x2E2 JUMPI DUP1 PUSH4 0x5BB47808 EQ PUSH2 0x312 JUMPI DUP1 PUSH4 0x5C80A435 EQ PUSH2 0x33B JUMPI PUSH2 0x14B JUMP JUMPDEST DUP1 PUSH4 0xF08EFE0 EQ PUSH2 0x150 JUMPI DUP1 PUSH4 0x10061631 EQ PUSH2 0x17B JUMPI DUP1 PUSH4 0x15B12494 EQ PUSH2 0x1A4 JUMPI DUP1 PUSH4 0x16E7031A EQ PUSH2 0x1CD JUMPI DUP1 PUSH4 0x27CE464E EQ PUSH2 0x20A JUMPI DUP1 PUSH4 0x2A45B250 EQ PUSH2 0x233 JUMPI JUMPDEST PUSH1 0x0 DUP1 REVERT JUMPDEST CALLVALUE DUP1 ISZERO PUSH2 0x15C JUMPI PUSH1 0x0 DUP1 REVERT JUMPDEST POP PUSH2 0x165 PUSH2 0x5A4 JUMP JUMPDEST PUSH1 0x40 MLOAD PUSH2 0x172 SWAP2 SWAP1 PUSH2 0x246A JUMP JUMPDEST PUSH1 0x40 MLOAD DUP1 SWAP2 SUB SWAP1 RETURN JUMPDEST CALLVALUE DUP1 ISZERO PUSH2 0x187 JUMPI PUSH1 0x0 DUP1 REVERT JUMPDEST POP PUSH2 0x1A2 PUSH1 0x4 DUP1 CALLDATASIZE SUB DUP2 ADD SWAP1 PUSH2 0x19D SWAP2 SWAP1 PUSH2 0x24C5 JUMP JUMPDEST PUSH2 0x6C3 JUMP JUMPDEST STOP JUMPDEST CALLVALUE DUP1 ISZERO PUSH2 0x1B0 JUMPI PUSH1 0x0 DUP1 REVERT JUMPDEST POP PUSH2 0x1CB PUSH1 0x4 DUP1 CALLDATASIZE SUB DUP2 ADD SWAP1 PUSH2 0x1C6 SWAP2 SWAP1 PUSH2 0x251E JUMP JUMPDEST PUSH2 0xB33 JUMP JUMPDEST STOP JUMPDEST CALLVALUE DUP1 ISZERO PUSH2 0x1D9 JUMPI PUSH1 0x0 DUP1 REVERT JUMPDEST POP PUSH2 0x1F4 PUSH1 0x4 DUP1 CALLDATASIZE SUB DUP2 ADD SWAP1 PUSH2 0x1EF SWAP2 SWAP1 PUSH2 0x24C5 JUMP JUMPDEST PUSH2 0xBF3 JUMP JUMPDEST PUSH1 0x40 MLOAD PUSH2 0x201 SWAP2 SWAP1 PUSH2 0x2566 JUMP JUMPDEST PUSH1 0x40 MLOAD DUP1 SWAP2 SUB SWAP1 RETURN JUMPDEST CALLVALUE DUP1 ISZERO PUSH2 0x216 JUMPI PUSH1 0x0 DUP1 REVERT JUMPDEST POP PUSH2 0x231 PUSH1 0x4 DUP1 CALLDATASIZE SUB DUP2 ADD SWAP1 PUSH2 0x22C SWAP2 SWAP1 PUSH2 0x251E JUMP JUMPDEST PUSH2 0xCA6 JUMP JUMPDEST STOP JUMPDEST CALLVALUE DUP1 ISZERO PUSH2 0x23F JUMPI PUSH1 0x0 DUP1 REVERT JUMPDEST POP PUSH2 0x25A PUSH1 0x4 DUP1 CALLDATASIZE SUB DUP2 ADD SWAP1 PUSH2 0x255 SWAP2 SWAP1 PUSH2 0x24C5 JUMP JUMPDEST PUSH2 0xD66 JUMP JUMPDEST PUSH1 0x40 MLOAD PUSH2 0x267 SWAP2 SWAP1 PUSH2 0x246A JUMP JUMPDEST PUSH1 0x40 MLOAD DUP1 SWAP2 SUB SWAP1 RETURN JUMPDEST CALLVALUE DUP1 ISZERO PUSH2 0x27C JUMPI PUSH1 0x0 DUP1 REVERT JUMPDEST POP PUSH2 0x285 PUSH2 0xE9E JUMP JUMPDEST PUSH1 0x40 MLOAD PUSH2 0x292 SWAP2 SWAP1 PUSH2 0x25BC JUMP JUMPDEST PUSH1 0x40 MLOAD DUP1 SWAP2 SUB SWAP1 RETURN JUMPDEST PUSH2 0x2B5 PUSH1 0x4 DUP1 CALLDATASIZE SUB DUP2 ADD SWAP1 PUSH2 0x2B0 SWAP2 SWAP1 PUSH2 0x25D7 JUMP JUMPDEST PUSH2 0xEA9 JUMP JUMPDEST STOP JUMPDEST CALLVALUE DUP1 ISZERO PUSH2 0x2C3 JUMPI PUSH1 0x0 DUP1 REVERT JUMPDEST POP PUSH2 0x2CC PUSH2 0x130D JUMP JUMPDEST PUSH1 0x40 MLOAD PUSH2 0x2D9 SWAP2 SWAP1 PUSH2 0x2676 JUMP JUMPDEST PUSH1 0x40 MLOAD DUP1 SWAP2 SUB SWAP1 RETURN JUMPDEST CALLVALUE DUP1 ISZERO PUSH2 0x2EE JUMPI PUSH1 0x0 DUP1 REVERT JUMPDEST POP PUSH2 0x2F7 PUSH2 0x1333 JUMP JUMPDEST PUSH1 0x40 MLOAD PUSH2 0x309 SWAP7 SWAP6 SWAP5 SWAP4 SWAP3 SWAP2 SWAP1 PUSH2 0x26BE JUMP JUMPDEST PUSH1 0x40 MLOAD DUP1 SWAP2 SUB SWAP1 RETURN JUMPDEST CALLVALUE DUP1 ISZERO PUSH2 0x31E JUMPI PUSH1 0x0 DUP1 REVERT JUMPDEST POP PUSH2 0x339 PUSH1 0x4 DUP1 CALLDATASIZE SUB DUP2 ADD SWAP1 PUSH2 0x334 SWAP2 SWAP1 PUSH2 0x251E JUMP JUMPDEST PUSH2 0x13AA JUMP JUMPDEST STOP JUMPDEST CALLVALUE DUP1 ISZERO PUSH2 0x347 JUMPI PUSH1 0x0 DUP1 REVERT JUMPDEST POP PUSH2 0x362 PUSH1 0x4 DUP1 CALLDATASIZE SUB DUP2 ADD SWAP1 PUSH2 0x35D SWAP2 SWAP1 PUSH2 0x271F JUMP JUMPDEST PUSH2 0x146A JUMP JUMPDEST PUSH1 0x40 MLOAD PUSH2 0x374 SWAP7 SWAP6 SWAP5 SWAP4 SWAP3 SWAP2 SWAP1 PUSH2 0x26BE JUMP JUMPDEST PUSH1 0x40 MLOAD DUP1 SWAP2 SUB SWAP1 RETURN JUMPDEST CALLVALUE DUP1 ISZERO PUSH2 0x389 JUMPI PUSH1 0x0 DUP1 REVERT JUMPDEST POP PUSH2 0x392 PUSH2 0x1500 JUMP JUMPDEST PUSH1 0x40 MLOAD PUSH2 0x39F SWAP2 SWAP1 PUSH2 0x2889 JUMP JUMPDEST PUSH1 0x40 MLOAD DUP1 SWAP2 SUB SWAP1 RETURN JUMPDEST CALLVALUE DUP1 ISZERO PUSH2 0x3B4 JUMPI PUSH1 0x0 DUP1 REVERT JUMPDEST POP PUSH2 0x3BD PUSH2 0x182C JUMP JUMPDEST STOP JUMPDEST CALLVALUE DUP1 ISZERO PUSH2 0x3CB JUMPI PUSH1 0x0 DUP1 REVERT JUMPDEST POP PUSH2 0x3D4 PUSH2 0x18B4 JUMP JUMPDEST PUSH1 0x40 MLOAD PUSH2 0x3E1 SWAP2 SWAP1 PUSH2 0x28C7 JUMP JUMPDEST PUSH1 0x40 MLOAD DUP1 SWAP2 SUB SWAP1 RETURN JUMPDEST CALLVALUE DUP1 ISZERO PUSH2 0x3F6 JUMPI PUSH1 0x0 DUP1 REVERT JUMPDEST POP PUSH2 0x3FF PUSH2 0x18C7 JUMP JUMPDEST PUSH1 0x40 MLOAD PUSH2 0x40C SWAP2 SWAP1 PUSH2 0x28E2 JUMP JUMPDEST PUSH1 0x40 MLOAD DUP1 SWAP2 SUB SWAP1 RETURN JUMPDEST CALLVALUE DUP1 ISZERO PUSH2 0x421 JUMPI PUSH1 0x0 DUP1 REVERT JUMPDEST POP PUSH2 0x43C PUSH1 0x4 DUP1 CALLDATASIZE SUB DUP2 ADD SWAP1 PUSH2 0x437 SWAP2 SWAP1 PUSH2 0x25D7 JUMP JUMPDEST PUSH2 0x18F1 JUMP JUMPDEST STOP JUMPDEST CALLVALUE DUP1 ISZERO PUSH2 0x44A JUMPI PUSH1 0x0 DUP1 REVERT JUMPDEST POP PUSH2 0x453 PUSH2 0x1DF4 JUMP JUMPDEST PUSH1 0x40 MLOAD PUSH2 0x460 SWAP2 SWAP1 PUSH2 0x28C7 JUMP JUMPDEST PUSH1 0x40 MLOAD DUP1 SWAP2 SUB SWAP1 RETURN JUMPDEST CALLVALUE DUP1 ISZERO PUSH2 0x475 JUMPI PUSH1 0x0 DUP1 REVERT JUMPDEST POP PUSH2 0x47E PUSH2 0x1E07 JUMP JUMPDEST PUSH1 0x40 MLOAD PUSH2 0x48B SWAP2 SWAP1 PUSH2 0x291E JUMP JUMPDEST PUSH1 0x40 MLOAD DUP1 SWAP2 SUB SWAP1 RETURN JUMPDEST CALLVALUE DUP1 ISZERO PUSH2 0x4A0 JUMPI PUSH1 0x0 DUP1 REVERT JUMPDEST POP PUSH2 0x4BB PUSH1 0x4 DUP1 CALLDATASIZE SUB DUP2 ADD SWAP1 PUSH2 0x4B6 SWAP2 SWAP1 PUSH2 0x24C5 JUMP JUMPDEST PUSH2 0x1E2D JUMP JUMPDEST PUSH1 0x40 MLOAD PUSH2 0x4C8 SWAP2 SWAP1 PUSH2 0x246A JUMP JUMPDEST PUSH1 0x40 MLOAD DUP1 SWAP2 SUB SWAP1 RETURN JUMPDEST CALLVALUE DUP1 ISZERO PUSH2 0x4DD JUMPI PUSH1 0x0 DUP1 REVERT JUMPDEST POP PUSH2 0x4F8 PUSH1 0x4 DUP1 CALLDATASIZE SUB DUP2 ADD SWAP1 PUSH2 0x4F3 SWAP2 SWAP1 PUSH2 0x24C5 JUMP JUMPDEST PUSH2 0x1F5F JUMP JUMPDEST PUSH1 0x40 MLOAD PUSH2 0x505 SWAP2 SWAP1 PUSH2 0x28E2 JUMP JUMPDEST PUSH1 0x40 MLOAD DUP1 SWAP2 SUB SWAP1 RETURN JUMPDEST CALLVALUE DUP1 ISZERO PUSH2 0x51A JUMPI PUSH1 0x0 DUP1 REVERT JUMPDEST POP PUSH2 0x535 PUSH1 0x4 DUP1 CALLDATASIZE SUB DUP2 ADD SWAP1 PUSH2 0x530 SWAP2 SWAP1 PUSH2 0x251E JUMP JUMPDEST PUSH2 0x2012 JUMP JUMPDEST STOP JUMPDEST CALLVALUE DUP1 ISZERO PUSH2 0x543 JUMPI PUSH1 0x0 DUP1 REVERT JUMPDEST POP PUSH2 0x54C PUSH2 0x2109 JUMP JUMPDEST PUSH1 0x40 MLOAD PUSH2 0x559 SWAP2 SWAP1 PUSH2 0x295A JUMP JUMPDEST PUSH1 0x40 MLOAD DUP1 SWAP2 SUB SWAP1 RETURN JUMPDEST CALLVALUE DUP1 ISZERO PUSH2 0x56E JUMPI PUSH1 0x0 DUP1 REVERT JUMPDEST POP PUSH2 0x589 PUSH1 0x4 DUP1 CALLDATASIZE SUB DUP2 ADD SWAP1 PUSH2 0x584 SWAP2 SWAP1 PUSH2 0x24C5 JUMP JUMPDEST PUSH2 0x212F JUMP JUMPDEST PUSH1 0x40 MLOAD PUSH2 0x59B SWAP7 SWAP6 SWAP5 SWAP4 SWAP3 SWAP2 SWAP1 PUSH2 0x26BE JUMP JUMPDEST PUSH1 0x40 MLOAD DUP1 SWAP2 SUB SWAP1 RETURN JUMPDEST PUSH2 0x5AC PUSH2 0x22AA JUMP JUMPDEST PUSH1 0x1 PUSH1 0x40 MLOAD DUP1 PUSH1 0xC0 ADD PUSH1 0x40 MSTORE SWAP1 DUP2 PUSH1 0x0 DUP3 ADD SLOAD DUP2 MSTORE PUSH1 0x20 ADD PUSH1 0x1 DUP3 ADD SLOAD DUP2 MSTORE PUSH1 0x20 ADD PUSH1 0x2 DUP3 ADD PUSH1 0x0 SWAP1 SLOAD SWAP1 PUSH2 0x100 EXP SWAP1 DIV PUSH20 0xFFFFFFFFFFFFFFFFFFFFFFFFFFFFFFFFFFFFFFFF AND PUSH20 0xFFFFFFFFFFFFFFFFFFFFFFFFFFFFFFFFFFFFFFFF AND PUSH20 0xFFFFFFFFFFFFFFFFFFFFFFFFFFFFFFFFFFFFFFFF AND DUP2 MSTORE PUSH1 0x20 ADD PUSH1 0x3 DUP3 ADD PUSH1 0x0 SWAP1 SLOAD SWAP1 PUSH2 0x100 EXP SWAP1 DIV PUSH20 0xFFFFFFFFFFFFFFFFFFFFFFFFFFFFFFFFFFFFFFFF AND PUSH20 0xFFFFFFFFFFFFFFFFFFFFFFFFFFFFFFFFFFFFFFFF AND PUSH20 0xFFFFFFFFFFFFFFFFFFFFFFFFFFFFFFFFFFFFFFFF AND DUP2 MSTORE PUSH1 0x20 ADD PUSH1 0x4 DUP3 ADD SLOAD DUP2 MSTORE PUSH1 0x20 ADD PUSH1 0x5 DUP3 ADD PUSH1 0x0 SWAP1 SLOAD SWAP1 PUSH2 0x100 EXP SWAP1 DIV PUSH1 0xFF AND PUSH1 0x1 DUP2 GT ISZERO PUSH2 0x6A8 JUMPI PUSH2 0x6A7 PUSH2 0x2378 JUMP JUMPDEST JUMPDEST PUSH1 0x1 DUP2 GT ISZERO PUSH2 0x6BA JUMPI PUSH2 0x6B9 PUSH2 0x2378 JUMP JUMPDEST JUMPDEST DUP2 MSTORE POP POP SWAP1 POP SWAP1 JUMP JUMPDEST PUSH1 0x0 CALLER SWAP1 POP PUSH1 0x0 PUSH1 0xF PUSH1 0x0 DUP5 DUP2 MSTORE PUSH1 0x20 ADD SWAP1 DUP2 MSTORE PUSH1 0x20 ADD PUSH1 0x0 KECCAK256 PUSH1 0x40 MLOAD DUP1 PUSH1 0xC0 ADD PUSH1 0x40 MSTORE SWAP1 DUP2 PUSH1 0x0 DUP3 ADD SLOAD DUP2 MSTORE PUSH1 0x20 ADD PUSH1 0x1 DUP3 ADD SLOAD DUP2 MSTORE PUSH1 0x20 ADD PUSH1 0x2 DUP3 ADD PUSH1 0x0 SWAP1 SLOAD SWAP1 PUSH2 0x100 EXP SWAP1 DIV PUSH20 0xFFFFFFFFFFFFFFFFFFFFFFFFFFFFFFFFFFFFFFFF AND PUSH20 0xFFFFFFFFFFFFFFFFFFFFFFFFFFFFFFFFFFFFFFFF AND PUSH20 0xFFFFFFFFFFFFFFFFFFFFFFFFFFFFFFFFFFFFFFFF AND DUP2 MSTORE PUSH1 0x20 ADD PUSH1 0x3 DUP3 ADD PUSH1 0x0 SWAP1 SLOAD SWAP1 PUSH2 0x100 EXP SWAP1 DIV PUSH20 0xFFFFFFFFFFFFFFFFFFFFFFFFFFFFFFFFFFFFFFFF AND PUSH20 0xFFFFFFFFFFFFFFFFFFFFFFFFFFFFFFFFFFFFFFFF AND PUSH20 0xFFFFFFFFFFFFFFFFFFFFFFFFFFFFFFFFFFFFFFFF AND DUP2 MSTORE PUSH1 0x20 ADD PUSH1 0x4 DUP3 ADD SLOAD DUP2 MSTORE PUSH1 0x20 ADD PUSH1 0x5 DUP3 ADD PUSH1 0x0 SWAP1 SLOAD SWAP1 PUSH2 0x100 EXP SWAP1 DIV PUSH1 0xFF AND PUSH1 0x1 DUP2 GT ISZERO PUSH2 0x7D7 JUMPI PUSH2 0x7D6 PUSH2 0x2378 JUMP JUMPDEST JUMPDEST PUSH1 0x1 DUP2 GT ISZERO PUSH2 0x7E9 JUMPI PUSH2 0x7E8 PUSH2 0x2378 JUMP JUMPDEST JUMPDEST DUP2 MSTORE POP POP SWAP1 POP PUSH1 0x0 DUP2 PUSH1 0x0 ADD MLOAD SUB PUSH2 0x836 JUMPI PUSH1 0x40 MLOAD PUSH32 0x8C379A000000000000000000000000000000000000000000000000000000000 DUP2 MSTORE PUSH1 0x4 ADD PUSH2 0x82D SWAP1 PUSH2 0x29D2 JUMP JUMPDEST PUSH1 0x40 MLOAD DUP1 SWAP2 SUB SWAP1 REVERT JUMPDEST PUSH1 0x1 DUP1 DUP2 GT ISZERO PUSH2 0x849 JUMPI PUSH2 0x848 PUSH2 0x2378 JUMP JUMPDEST JUMPDEST DUP2 PUSH1 0xA0 ADD MLOAD PUSH1 0x1 DUP2 GT ISZERO PUSH2 0x860 JUMPI PUSH2 0x85F PUSH2 0x2378 JUMP JUMPDEST JUMPDEST EQ PUSH2 0x8A0 JUMPI PUSH1 0x40 MLOAD PUSH32 0x8C379A000000000000000000000000000000000000000000000000000000000 DUP2 MSTORE PUSH1 0x4 ADD PUSH2 0x897 SWAP1 PUSH2 0x2A3E JUMP JUMPDEST PUSH1 0x40 MLOAD DUP1 SWAP2 SUB SWAP1 REVERT JUMPDEST PUSH1 0x0 DUP2 PUSH1 0x40 ADD MLOAD SWAP1 POP PUSH1 0x0 PUSH20 0xFFFFFFFFFFFFFFFFFFFFFFFFFFFFFFFFFFFFFFFF AND DUP2 PUSH20 0xFFFFFFFFFFFFFFFFFFFFFFFFFFFFFFFFFFFFFFFF AND SUB PUSH2 0x918 JUMPI PUSH1 0x40 MLOAD PUSH32 0x8C379A000000000000000000000000000000000000000000000000000000000 DUP2 MSTORE PUSH1 0x4 ADD PUSH2 0x90F SWAP1 PUSH2 0x2AAA JUMP JUMPDEST PUSH1 0x40 MLOAD DUP1 SWAP2 SUB SWAP1 REVERT JUMPDEST CALLER PUSH20 0xFFFFFFFFFFFFFFFFFFFFFFFFFFFFFFFFFFFFFFFF AND DUP2 PUSH20 0xFFFFFFFFFFFFFFFFFFFFFFFFFFFFFFFFFFFFFFFF AND EQ PUSH2 0x986 JUMPI PUSH1 0x40 MLOAD PUSH32 0x8C379A000000000000000000000000000000000000000000000000000000000 DUP2 MSTORE PUSH1 0x4 ADD PUSH2 0x97D SWAP1 PUSH2 0x2B16 JUMP JUMPDEST PUSH1 0x40 MLOAD DUP1 SWAP2 SUB SWAP1 REVERT JUMPDEST PUSH1 0xB PUSH1 0x0 SWAP1 SLOAD SWAP1 PUSH2 0x100 EXP SWAP1 DIV PUSH20 0xFFFFFFFFFFFFFFFFFFFFFFFFFFFFFFFFFFFFFFFF AND PUSH20 0xFFFFFFFFFFFFFFFFFFFFFFFFFFFFFFFFFFFFFFFF AND PUSH4 0x42842E0E ADDRESS DUP4 DUP8 PUSH1 0x40 MLOAD DUP5 PUSH4 0xFFFFFFFF AND PUSH1 0xE0 SHL DUP2 MSTORE PUSH1 0x4 ADD PUSH2 0x9E5 SWAP4 SWAP3 SWAP2 SWAP1 PUSH2 0x2B36 JUMP JUMPDEST PUSH1 0x0 PUSH1 0x40 MLOAD DUP1 DUP4 SUB DUP2 PUSH1 0x0 DUP8 DUP1 EXTCODESIZE ISZERO DUP1 ISZERO PUSH2 0x9FF JUMPI PUSH1 0x0 DUP1 REVERT JUMPDEST POP GAS CALL ISZERO DUP1 ISZERO PUSH2 0xA13 JUMPI RETURNDATASIZE PUSH1 0x0 DUP1 RETURNDATACOPY RETURNDATASIZE PUSH1 0x0 REVERT JUMPDEST POP POP POP POP PUSH1 0x0 DUP3 PUSH1 0xA0 ADD SWAP1 PUSH1 0x1 DUP2 GT ISZERO PUSH2 0xA30 JUMPI PUSH2 0xA2F PUSH2 0x2378 JUMP JUMPDEST JUMPDEST SWAP1 DUP2 PUSH1 0x1 DUP2 GT ISZERO PUSH2 0xA44 JUMPI PUSH2 0xA43 PUSH2 0x2378 JUMP JUMPDEST JUMPDEST DUP2 MSTORE POP POP PUSH1 0xF PUSH1 0x0 DUP6 DUP2 MSTORE PUSH1 0x20 ADD SWAP1 DUP2 MSTORE PUSH1 0x20 ADD PUSH1 0x0 KECCAK256 PUSH1 0x0 DUP1 DUP3 ADD PUSH1 0x0 SWAP1 SSTORE PUSH1 0x1 DUP3 ADD PUSH1 0x0 SWAP1 SSTORE PUSH1 0x2 DUP3 ADD PUSH1 0x0 PUSH2 0x100 EXP DUP2 SLOAD SWAP1 PUSH20 0xFFFFFFFFFFFFFFFFFFFFFFFFFFFFFFFFFFFFFFFF MUL NOT AND SWAP1 SSTORE PUSH1 0x3 DUP3 ADD PUSH1 0x0 PUSH2 0x100 EXP DUP2 SLOAD SWAP1 PUSH20 0xFFFFFFFFFFFFFFFFFFFFFFFFFFFFFFFFFFFFFFFF MUL NOT AND SWAP1 SSTORE PUSH1 0x4 DUP3 ADD PUSH1 0x0 SWAP1 SSTORE PUSH1 0x5 DUP3 ADD PUSH1 0x0 PUSH2 0x100 EXP DUP2 SLOAD SWAP1 PUSH1 0xFF MUL NOT AND SWAP1 SSTORE POP POP DUP3 PUSH20 0xFFFFFFFFFFFFFFFFFFFFFFFFFFFFFFFFFFFFFFFF AND DUP5 PUSH32 0x72FFC2A266ACBA5F77E2B49400103CB61B428F37A97057EBE671E83FDDD71E67 DUP5 PUSH1 0x0 ADD MLOAD TIMESTAMP PUSH1 0x40 MLOAD PUSH2 0xB25 SWAP3 SWAP2 SWAP1 PUSH2 0x2B6D JUMP JUMPDEST PUSH1 0x40 MLOAD DUP1 SWAP2 SUB SWAP1 LOG3 POP POP POP POP JUMP JUMPDEST PUSH2 0xB3B PUSH2 0x21B8 JUMP JUMPDEST PUSH20 0xFFFFFFFFFFFFFFFFFFFFFFFFFFFFFFFFFFFFFFFF AND PUSH2 0xB59 PUSH2 0x18C7 JUMP JUMPDEST PUSH20 0xFFFFFFFFFFFFFFFFFFFFFFFFFFFFFFFFFFFFFFFF AND EQ PUSH2 0xBAF JUMPI PUSH1 0x40 MLOAD PUSH32 0x8C379A000000000000000000000000000000000000000000000000000000000 DUP2 MSTORE PUSH1 0x4 ADD PUSH2 0xBA6 SWAP1 PUSH2 0x2BE2 JUMP JUMPDEST PUSH1 0x40 MLOAD DUP1 SWAP2 SUB SWAP1 REVERT JUMPDEST DUP1 PUSH1 0xB PUSH1 0x0 PUSH2 0x100 EXP DUP2 SLOAD DUP2 PUSH20 0xFFFFFFFFFFFFFFFFFFFFFFFFFFFFFFFFFFFFFFFF MUL NOT AND SWAP1 DUP4 PUSH20 0xFFFFFFFFFFFFFFFFFFFFFFFFFFFFFFFFFFFFFFFF AND MUL OR SWAP1 SSTORE POP POP JUMP JUMPDEST PUSH1 0x0 DUP1 PUSH1 0xA PUSH1 0x0 SWAP1 SLOAD SWAP1 PUSH2 0x100 EXP SWAP1 DIV PUSH20 0xFFFFFFFFFFFFFFFFFFFFFFFFFFFFFFFFFFFFFFFF AND PUSH20 0xFFFFFFFFFFFFFFFFFFFFFFFFFFFFFFFFFFFFFFFF AND PUSH4 0xD30BDAC9 DUP5 PUSH1 0x40 MLOAD DUP3 PUSH4 0xFFFFFFFF AND PUSH1 0xE0 SHL DUP2 MSTORE PUSH1 0x4 ADD PUSH2 0xC51 SWAP2 SWAP1 PUSH2 0x2C02 JUMP JUMPDEST PUSH1 0x0 PUSH1 0x40 MLOAD DUP1 DUP4 SUB DUP2 DUP7 GAS STATICCALL ISZERO DUP1 ISZERO PUSH2 0xC6E JUMPI RETURNDATASIZE PUSH1 0x0 DUP1 RETURNDATACOPY RETURNDATASIZE PUSH1 0x0 REVERT JUMPDEST POP POP POP POP PUSH1 0x40 MLOAD RETURNDATASIZE PUSH1 0x0 DUP3 RETURNDATACOPY RETURNDATASIZE PUSH1 0x1F NOT PUSH1 0x1F DUP3 ADD AND DUP3 ADD DUP1 PUSH1 0x40 MSTORE POP DUP2 ADD SWAP1 PUSH2 0xC97 SWAP2 SWAP1 PUSH2 0x2EAB JUMP JUMPDEST SWAP1 POP DUP1 PUSH1 0x80 ADD MLOAD SWAP2 POP POP SWAP2 SWAP1 POP JUMP JUMPDEST PUSH2 0xCAE PUSH2 0x21B8 JUMP JUMPDEST PUSH20 0xFFFFFFFFFFFFFFFFFFFFFFFFFFFFFFFFFFFFFFFF AND PUSH2 0xCCC PUSH2 0x18C7 JUMP JUMPDEST PUSH20 0xFFFFFFFFFFFFFFFFFFFFFFFFFFFFFFFFFFFFFFFF AND EQ PUSH2 0xD22 JUMPI PUSH1 0x40 MLOAD PUSH32 0x8C379A000000000000000000000000000000000000000000000000000000000 DUP2 MSTORE PUSH1 0x4 ADD PUSH2 0xD19 SWAP1 PUSH2 0x2BE2 JUMP JUMPDEST PUSH1 0x40 MLOAD DUP1 SWAP2 SUB SWAP1 REVERT JUMPDEST DUP1 PUSH1 0x9 PUSH1 0x0 PUSH2 0x100 EXP DUP2 SLOAD DUP2 PUSH20 0xFFFFFFFFFFFFFFFFFFFFFFFFFFFFFFFFFFFFFFFF MUL NOT AND SWAP1 DUP4 PUSH20 0xFFFFFFFFFFFFFFFFFFFFFFFFFFFFFFFFFFFFFFFF AND MUL OR SWAP1 SSTORE POP POP JUMP JUMPDEST PUSH2 0xD6E PUSH2 0x22AA JUMP JUMPDEST PUSH1 0x0 PUSH1 0xF PUSH1 0x0 DUP5 DUP2 MSTORE PUSH1 0x20 ADD SWAP1 DUP2 MSTORE PUSH1 0x20 ADD PUSH1 0x0 KECCAK256 PUSH1 0x40 MLOAD DUP1 PUSH1 0xC0 ADD PUSH1 0x40 MSTORE SWAP1 DUP2 PUSH1 0x0 DUP3 ADD SLOAD DUP2 MSTORE PUSH1 0x20 ADD PUSH1 0x1 DUP3 ADD SLOAD DUP2 MSTORE PUSH1 0x20 ADD PUSH1 0x2 DUP3 ADD PUSH1 0x0 SWAP1 SLOAD SWAP1 PUSH2 0x100 EXP SWAP1 DIV PUSH20 0xFFFFFFFFFFFFFFFFFFFFFFFFFFFFFFFFFFFFFFFF AND PUSH20 0xFFFFFFFFFFFFFFFFFFFFFFFFFFFFFFFFFFFFFFFF AND PUSH20 0xFFFFFFFFFFFFFFFFFFFFFFFFFFFFFFFFFFFFFFFF AND DUP2 MSTORE PUSH1 0x20 ADD PUSH1 0x3 DUP3 ADD PUSH1 0x0 SWAP1 SLOAD SWAP1 PUSH2 0x100 EXP SWAP1 DIV PUSH20 0xFFFFFFFFFFFFFFFFFFFFFFFFFFFFFFFFFFFFFFFF AND PUSH20 0xFFFFFFFFFFFFFFFFFFFFFFFFFFFFFFFFFFFFFFFF AND PUSH20 0xFFFFFFFFFFFFFFFFFFFFFFFFFFFFFFFFFFFFFFFF AND DUP2 MSTORE PUSH1 0x20 ADD PUSH1 0x4 DUP3 ADD SLOAD DUP2 MSTORE PUSH1 0x20 ADD PUSH1 0x5 DUP3 ADD PUSH1 0x0 SWAP1 SLOAD SWAP1 PUSH2 0x100 EXP SWAP1 DIV PUSH1 0xFF AND PUSH1 0x1 DUP2 GT ISZERO PUSH2 0xE7D JUMPI PUSH2 0xE7C PUSH2 0x2378 JUMP JUMPDEST JUMPDEST PUSH1 0x1 DUP2 GT ISZERO PUSH2 0xE8F JUMPI PUSH2 0xE8E PUSH2 0x2378 JUMP JUMPDEST JUMPDEST DUP2 MSTORE POP POP SWAP1 POP DUP1 SWAP2 POP POP SWAP2 SWAP1 POP JUMP JUMPDEST PUSH4 0x80AC58CD PUSH1 0xE0 SHL DUP2 JUMP JUMPDEST PUSH1 0x2 PUSH1 0x0 SLOAD SUB PUSH2 0xEEE JUMPI PUSH1 0x40 MLOAD PUSH32 0x8C379A000000000000000000000000000000000000000000000000000000000 DUP2 MSTORE PUSH1 0x4 ADD PUSH2 0xEE5 SWAP1 PUSH2 0x2F40 JUMP JUMPDEST PUSH1 0x40 MLOAD DUP1 SWAP2 SUB SWAP1 REVERT JUMPDEST PUSH1 0x2 PUSH1 0x0 DUP2 SWAP1 SSTORE POP PUSH1 0x0 DUP2 GT PUSH2 0xF39 JUMPI PUSH1 0x40 MLOAD PUSH32 0x8C379A000000000000000000000000000000000000000000000000000000000 DUP2 MSTORE PUSH1 0x4 ADD PUSH2 0xF30 SWAP1 PUSH2 0x2FAC JUMP JUMPDEST PUSH1 0x40 MLOAD DUP1 SWAP2 SUB SWAP1 REVERT JUMPDEST PUSH1 0x0 PUSH1 0xA PUSH1 0x0 SWAP1 SLOAD SWAP1 PUSH2 0x100 EXP SWAP1 DIV PUSH20 0xFFFFFFFFFFFFFFFFFFFFFFFFFFFFFFFFFFFFFFFF AND PUSH20 0xFFFFFFFFFFFFFFFFFFFFFFFFFFFFFFFFFFFFFFFF AND PUSH4 0xD30BDAC9 DUP5 PUSH1 0x40 MLOAD DUP3 PUSH4 0xFFFFFFFF AND PUSH1 0xE0 SHL DUP2 MSTORE PUSH1 0x4 ADD PUSH2 0xF96 SWAP2 SWAP1 PUSH2 0x2C02 JUMP JUMPDEST PUSH1 0x0 PUSH1 0x40 MLOAD DUP1 DUP4 SUB DUP2 DUP7 GAS STATICCALL ISZERO DUP1 ISZERO PUSH2 0xFB3 JUMPI RETURNDATASIZE PUSH1 0x0 DUP1 RETURNDATACOPY RETURNDATASIZE PUSH1 0x0 REVERT JUMPDEST POP POP POP POP PUSH1 0x40 MLOAD RETURNDATASIZE PUSH1 0x0 DUP3 RETURNDATACOPY RETURNDATASIZE PUSH1 0x1F NOT PUSH1 0x1F DUP3 ADD AND DUP3 ADD DUP1 PUSH1 0x40 MSTORE POP DUP2 ADD SWAP1 PUSH2 0xFDC SWAP2 SWAP1 PUSH2 0x2EAB JUMP JUMPDEST SWAP1 POP PUSH1 0x0 ISZERO ISZERO DUP2 PUSH1 0x80 ADD MLOAD ISZERO ISZERO EQ PUSH2 0x1029 JUMPI PUSH1 0x40 MLOAD PUSH32 0x8C379A000000000000000000000000000000000000000000000000000000000 DUP2 MSTORE PUSH1 0x4 ADD PUSH2 0x1020 SWAP1 PUSH2 0x3018 JUMP JUMPDEST PUSH1 0x40 MLOAD DUP1 SWAP2 SUB SWAP1 REVERT JUMPDEST PUSH2 0x1033 PUSH1 0xD PUSH2 0x21C0 JUMP JUMPDEST PUSH1 0x0 PUSH2 0x103F PUSH1 0xD PUSH2 0x21D6 JUMP JUMPDEST SWAP1 POP PUSH1 0x40 MLOAD DUP1 PUSH1 0xC0 ADD PUSH1 0x40 MSTORE DUP1 DUP3 DUP2 MSTORE PUSH1 0x20 ADD DUP6 DUP2 MSTORE PUSH1 0x20 ADD CALLER PUSH20 0xFFFFFFFFFFFFFFFFFFFFFFFFFFFFFFFFFFFFFFFF AND DUP2 MSTORE PUSH1 0x20 ADD PUSH1 0x0 PUSH20 0xFFFFFFFFFFFFFFFFFFFFFFFFFFFFFFFFFFFFFFFF AND DUP2 MSTORE PUSH1 0x20 ADD DUP5 DUP2 MSTORE PUSH1 0x20 ADD PUSH1 0x1 DUP1 DUP2 GT ISZERO PUSH2 0x10AA JUMPI PUSH2 0x10A9 PUSH2 0x2378 JUMP JUMPDEST JUMPDEST DUP2 MSTORE POP PUSH1 0xF PUSH1 0x0 DUP4 DUP2 MSTORE PUSH1 0x20 ADD SWAP1 DUP2 MSTORE PUSH1 0x20 ADD PUSH1 0x0 KECCAK256 PUSH1 0x0 DUP3 ADD MLOAD DUP2 PUSH1 0x0 ADD SSTORE PUSH1 0x20 DUP3 ADD MLOAD DUP2 PUSH1 0x1 ADD SSTORE PUSH1 0x40 DUP3 ADD MLOAD DUP2 PUSH1 0x2 ADD PUSH1 0x0 PUSH2 0x100 EXP DUP2 SLOAD DUP2 PUSH20 0xFFFFFFFFFFFFFFFFFFFFFFFFFFFFFFFFFFFFFFFF MUL NOT AND SWAP1 DUP4 PUSH20 0xFFFFFFFFFFFFFFFFFFFFFFFFFFFFFFFFFFFFFFFF AND MUL OR SWAP1 SSTORE POP PUSH1 0x60 DUP3 ADD MLOAD DUP2 PUSH1 0x3 ADD PUSH1 0x0 PUSH2 0x100 EXP DUP2 SLOAD DUP2 PUSH20 0xFFFFFFFFFFFFFFFFFFFFFFFFFFFFFFFFFFFFFFFF MUL NOT AND SWAP1 DUP4 PUSH20 0xFFFFFFFFFFFFFFFFFFFFFFFFFFFFFFFFFFFFFFFF AND MUL OR SWAP1 SSTORE POP PUSH1 0x80 DUP3 ADD MLOAD DUP2 PUSH1 0x4 ADD SSTORE PUSH1 0xA0 DUP3 ADD MLOAD DUP2 PUSH1 0x5 ADD PUSH1 0x0 PUSH2 0x100 EXP DUP2 SLOAD DUP2 PUSH1 0xFF MUL NOT AND SWAP1 DUP4 PUSH1 0x1 DUP2 GT ISZERO PUSH2 0x1197 JUMPI PUSH2 0x1196 PUSH2 0x2378 JUMP JUMPDEST JUMPDEST MUL OR SWAP1 SSTORE POP SWAP1 POP POP PUSH1 0xB PUSH1 0x0 SWAP1 SLOAD SWAP1 PUSH2 0x100 EXP SWAP1 DIV PUSH20 0xFFFFFFFFFFFFFFFFFFFFFFFFFFFFFFFFFFFFFFFF AND PUSH20 0xFFFFFFFFFFFFFFFFFFFFFFFFFFFFFFFFFFFFFFFF AND PUSH4 0x23B872DD CALLER ADDRESS DUP8 PUSH1 0x40 MLOAD DUP5 PUSH4 0xFFFFFFFF AND PUSH1 0xE0 SHL DUP2 MSTORE PUSH1 0x4 ADD PUSH2 0x11FE SWAP4 SWAP3 SWAP2 SWAP1 PUSH2 0x2B36 JUMP JUMPDEST PUSH1 0x0 PUSH1 0x40 MLOAD DUP1 DUP4 SUB DUP2 PUSH1 0x0 DUP8 DUP1 EXTCODESIZE ISZERO DUP1 ISZERO PUSH2 0x1218 JUMPI PUSH1 0x0 DUP1 REVERT JUMPDEST POP GAS CALL ISZERO DUP1 ISZERO PUSH2 0x122C JUMPI RETURNDATASIZE PUSH1 0x0 DUP1 RETURNDATACOPY RETURNDATASIZE PUSH1 0x0 REVERT JUMPDEST POP POP POP POP PUSH1 0xA PUSH1 0x0 SWAP1 SLOAD SWAP1 PUSH2 0x100 EXP SWAP1 DIV PUSH20 0xFFFFFFFFFFFFFFFFFFFFFFFFFFFFFFFFFFFFFFFF AND PUSH20 0xFFFFFFFFFFFFFFFFFFFFFFFFFFFFFFFFFFFFFFFF AND PUSH4 0xC1E9518A CALLER ADDRESS DUP8 PUSH1 0x40 MLOAD DUP5 PUSH4 0xFFFFFFFF AND PUSH1 0xE0 SHL DUP2 MSTORE PUSH1 0x4 ADD PUSH2 0x128F SWAP4 SWAP3 SWAP2 SWAP1 PUSH2 0x2B36 JUMP JUMPDEST PUSH1 0x0 PUSH1 0x40 MLOAD DUP1 DUP4 SUB DUP2 PUSH1 0x0 DUP8 DUP1 EXTCODESIZE ISZERO DUP1 ISZERO PUSH2 0x12A9 JUMPI PUSH1 0x0 DUP1 REVERT JUMPDEST POP GAS CALL ISZERO DUP1 ISZERO PUSH2 0x12BD JUMPI RETURNDATASIZE PUSH1 0x0 DUP1 RETURNDATACOPY RETURNDATASIZE PUSH1 0x0 REVERT JUMPDEST POP POP POP POP DUP4 DUP2 PUSH32 0x38690A554FFBC44EB6A75016E47D517D0DB8E6C37494ADC68D6D0B2C66F0AB21 CALLER PUSH1 0x0 DUP8 PUSH1 0x40 MLOAD PUSH2 0x12F7 SWAP4 SWAP3 SWAP2 SWAP1 PUSH2 0x2B36 JUMP JUMPDEST PUSH1 0x40 MLOAD DUP1 SWAP2 SUB SWAP1 LOG3 POP POP PUSH1 0x1 PUSH1 0x0 DUP2 SWAP1 SSTORE POP POP POP JUMP JUMPDEST PUSH1 0x9 PUSH1 0x0 SWAP1 SLOAD SWAP1 PUSH2 0x100 EXP SWAP1 DIV PUSH20 0xFFFFFFFFFFFFFFFFFFFFFFFFFFFFFFFFFFFFFFFF AND DUP2 JUMP JUMPDEST PUSH1 0x1 DUP1 PUSH1 0x0 ADD SLOAD SWAP1 DUP1 PUSH1 0x1 ADD SLOAD SWAP1 DUP1 PUSH1 0x2 ADD PUSH1 0x0 SWAP1 SLOAD SWAP1 PUSH2 0x100 EXP SWAP1 DIV PUSH20 0xFFFFFFFFFFFFFFFFFFFFFFFFFFFFFFFFFFFFFFFF AND SWAP1 DUP1 PUSH1 0x3 ADD PUSH1 0x0 SWAP1 SLOAD SWAP1 PUSH2 0x100 EXP SWAP1 DIV PUSH20 0xFFFFFFFFFFFFFFFFFFFFFFFFFFFFFFFFFFFFFFFF AND SWAP1 DUP1 PUSH1 0x4 ADD SLOAD SWAP1 DUP1 PUSH1 0x5 ADD PUSH1 0x0 SWAP1 SLOAD SWAP1 PUSH2 0x100 EXP SWAP1 DIV PUSH1 0xFF AND SWAP1 POP DUP7 JUMP JUMPDEST PUSH2 0x13B2 PUSH2 0x21B8 JUMP JUMPDEST PUSH20 0xFFFFFFFFFFFFFFFFFFFFFFFFFFFFFFFFFFFFFFFF AND PUSH2 0x13D0 PUSH2 0x18C7 JUMP JUMPDEST PUSH20 0xFFFFFFFFFFFFFFFFFFFFFFFFFFFFFFFFFFFFFFFF AND EQ PUSH2 0x1426 JUMPI PUSH1 0x40 MLOAD PUSH32 0x8C379A000000000000000000000000000000000000000000000000000000000 DUP2 MSTORE PUSH1 0x4 ADD PUSH2 0x141D SWAP1 PUSH2 0x2BE2 JUMP JUMPDEST PUSH1 0x40 MLOAD DUP1 SWAP2 SUB SWAP1 REVERT JUMPDEST DUP1 PUSH1 0xA PUSH1 0x0 PUSH2 0x100 EXP DUP2 SLOAD DUP2 PUSH20 0xFFFFFFFFFFFFFFFFFFFFFFFFFFFFFFFFFFFFFFFF MUL NOT AND SWAP1 DUP4 PUSH20 0xFFFFFFFFFFFFFFFFFFFFFFFFFFFFFFFFFFFFFFFF AND MUL OR SWAP1 SSTORE POP POP JUMP JUMPDEST PUSH1 0x8 PUSH1 0x20 MSTORE DUP2 PUSH1 0x0 MSTORE PUSH1 0x40 PUSH1 0x0 KECCAK256 PUSH1 0x20 MSTORE DUP1 PUSH1 0x0 MSTORE PUSH1 0x40 PUSH1 0x0 KECCAK256 PUSH1 0x0 SWAP2 POP SWAP2 POP POP DUP1 PUSH1 0x0 ADD SLOAD SWAP1 DUP1 PUSH1 0x1 ADD SLOAD SWAP1 DUP1 PUSH1 0x2 ADD PUSH1 0x0 SWAP1 SLOAD SWAP1 PUSH2 0x100 EXP SWAP1 DIV PUSH20 0xFFFFFFFFFFFFFFFFFFFFFFFFFFFFFFFFFFFFFFFF AND SWAP1 DUP1 PUSH1 0x3 ADD PUSH1 0x0 SWAP1 SLOAD SWAP1 PUSH2 0x100 EXP SWAP1 DIV PUSH20 0xFFFFFFFFFFFFFFFFFFFFFFFFFFFFFFFFFFFFFFFF AND SWAP1 DUP1 PUSH1 0x4 ADD SLOAD SWAP1 DUP1 PUSH1 0x5 ADD PUSH1 0x0 SWAP1 SLOAD SWAP1 PUSH2 0x100 EXP SWAP1 DIV PUSH1 0xFF AND SWAP1 POP DUP7 JUMP JUMPDEST PUSH1 0x60 PUSH1 0x0 PUSH2 0x150E PUSH1 0xD PUSH2 0x21D6 JUMP JUMPDEST SWAP1 POP PUSH1 0x0 DUP1 PUSH1 0x0 JUMPDEST DUP4 DUP2 LT ISZERO PUSH2 0x15B6 JUMPI CALLER PUSH20 0xFFFFFFFFFFFFFFFFFFFFFFFFFFFFFFFFFFFFFFFF AND PUSH1 0xF PUSH1 0x0 PUSH1 0x1 DUP5 PUSH2 0x1546 SWAP2 SWAP1 PUSH2 0x3067 JUMP JUMPDEST DUP2 MSTORE PUSH1 0x20 ADD SWAP1 DUP2 MSTORE PUSH1 0x20 ADD PUSH1 0x0 KECCAK256 PUSH1 0x3 ADD PUSH1 0x0 SWAP1 SLOAD SWAP1 PUSH2 0x100 EXP SWAP1 DIV PUSH20 0xFFFFFFFFFFFFFFFFFFFFFFFFFFFFFFFFFFFFFFFF AND PUSH20 0xFFFFFFFFFFFFFFFFFFFFFFFFFFFFFFFFFFFFFFFF AND SUB PUSH2 0x15A3 JUMPI PUSH1 0x1 DUP4 PUSH2 0x15A0 SWAP2 SWAP1 PUSH2 0x3067 JUMP JUMPDEST SWAP3 POP JUMPDEST DUP1 DUP1 PUSH2 0x15AE SWAP1 PUSH2 0x30BD JUMP JUMPDEST SWAP2 POP POP PUSH2 0x1516 JUMP JUMPDEST POP PUSH1 0x0 DUP3 PUSH8 0xFFFFFFFFFFFFFFFF DUP2 GT ISZERO PUSH2 0x15D3 JUMPI PUSH2 0x15D2 PUSH2 0x2C33 JUMP JUMPDEST JUMPDEST PUSH1 0x40 MLOAD SWAP1 DUP1 DUP3 MSTORE DUP1 PUSH1 0x20 MUL PUSH1 0x20 ADD DUP3 ADD PUSH1 0x40 MSTORE DUP1 ISZERO PUSH2 0x160C JUMPI DUP2 PUSH1 0x20 ADD JUMPDEST PUSH2 0x15F9 PUSH2 0x22AA JUMP JUMPDEST DUP2 MSTORE PUSH1 0x20 ADD SWAP1 PUSH1 0x1 SWAP1 SUB SWAP1 DUP2 PUSH2 0x15F1 JUMPI SWAP1 POP JUMPDEST POP SWAP1 POP PUSH1 0x0 JUMPDEST DUP5 DUP2 LT ISZERO PUSH2 0x1821 JUMPI CALLER PUSH20 0xFFFFFFFFFFFFFFFFFFFFFFFFFFFFFFFFFFFFFFFF AND PUSH1 0xF PUSH1 0x0 PUSH1 0x1 DUP5 PUSH2 0x1642 SWAP2 SWAP1 PUSH2 0x3067 JUMP JUMPDEST DUP2 MSTORE PUSH1 0x20 ADD SWAP1 DUP2 MSTORE PUSH1 0x20 ADD PUSH1 0x0 KECCAK256 PUSH1 0x3 ADD PUSH1 0x0 SWAP1 SLOAD SWAP1 PUSH2 0x100 EXP SWAP1 DIV PUSH20 0xFFFFFFFFFFFFFFFFFFFFFFFFFFFFFFFFFFFFFFFF AND PUSH20 0xFFFFFFFFFFFFFFFFFFFFFFFFFFFFFFFFFFFFFFFF AND SUB PUSH2 0x180E JUMPI PUSH1 0x0 PUSH1 0xF PUSH1 0x0 PUSH1 0x1 DUP5 PUSH2 0x16A2 SWAP2 SWAP1 PUSH2 0x3067 JUMP JUMPDEST DUP2 MSTORE PUSH1 0x20 ADD SWAP1 DUP2 MSTORE PUSH1 0x20 ADD PUSH1 0x0 KECCAK256 PUSH1 0x0 ADD SLOAD SWAP1 POP PUSH1 0x0 PUSH1 0xF PUSH1 0x0 DUP4 DUP2 MSTORE PUSH1 0x20 ADD SWAP1 DUP2 MSTORE PUSH1 0x20 ADD PUSH1 0x0 KECCAK256 SWAP1 POP DUP1 PUSH1 0x40 MLOAD DUP1 PUSH1 0xC0 ADD PUSH1 0x40 MSTORE SWAP1 DUP2 PUSH1 0x0 DUP3 ADD SLOAD DUP2 MSTORE PUSH1 0x20 ADD PUSH1 0x1 DUP3 ADD SLOAD DUP2 MSTORE PUSH1 0x20 ADD PUSH1 0x2 DUP3 ADD PUSH1 0x0 SWAP1 SLOAD SWAP1 PUSH2 0x100 EXP SWAP1 DIV PUSH20 0xFFFFFFFFFFFFFFFFFFFFFFFFFFFFFFFFFFFFFFFF AND PUSH20 0xFFFFFFFFFFFFFFFFFFFFFFFFFFFFFFFFFFFFFFFF AND PUSH20 0xFFFFFFFFFFFFFFFFFFFFFFFFFFFFFFFFFFFFFFFF AND DUP2 MSTORE PUSH1 0x20 ADD PUSH1 0x3 DUP3 ADD PUSH1 0x0 SWAP1 SLOAD SWAP1 PUSH2 0x100 EXP SWAP1 DIV PUSH20 0xFFFFFFFFFFFFFFFFFFFFFFFFFFFFFFFFFFFFFFFF AND PUSH20 0xFFFFFFFFFFFFFFFFFFFFFFFFFFFFFFFFFFFFFFFF AND PUSH20 0xFFFFFFFFFFFFFFFFFFFFFFFFFFFFFFFFFFFFFFFF AND DUP2 MSTORE PUSH1 0x20 ADD PUSH1 0x4 DUP3 ADD SLOAD DUP2 MSTORE PUSH1 0x20 ADD PUSH1 0x5 DUP3 ADD PUSH1 0x0 SWAP1 SLOAD SWAP1 PUSH2 0x100 EXP SWAP1 DIV PUSH1 0xFF AND PUSH1 0x1 DUP2 GT ISZERO PUSH2 0x17C8 JUMPI PUSH2 0x17C7 PUSH2 0x2378 JUMP JUMPDEST JUMPDEST PUSH1 0x1 DUP2 GT ISZERO PUSH2 0x17DA JUMPI PUSH2 0x17D9 PUSH2 0x2378 JUMP JUMPDEST JUMPDEST DUP2 MSTORE POP POP DUP5 DUP7 DUP2 MLOAD DUP2 LT PUSH2 0x17F1 JUMPI PUSH2 0x17F0 PUSH2 0x3105 JUMP JUMPDEST JUMPDEST PUSH1 0x20 MUL PUSH1 0x20 ADD ADD DUP2 SWAP1 MSTORE POP PUSH1 0x1 DUP6 PUSH2 0x1809 SWAP2 SWAP1 PUSH2 0x3067 JUMP JUMPDEST SWAP5 POP POP POP JUMPDEST DUP1 DUP1 PUSH2 0x1819 SWAP1 PUSH2 0x30BD JUMP JUMPDEST SWAP2 POP POP PUSH2 0x1612 JUMP JUMPDEST POP DUP1 SWAP5 POP POP POP POP POP SWAP1 JUMP JUMPDEST PUSH2 0x1834 PUSH2 0x21B8 JUMP JUMPDEST PUSH20 0xFFFFFFFFFFFFFFFFFFFFFFFFFFFFFFFFFFFFFFFF AND PUSH2 0x1852 PUSH2 0x18C7 JUMP JUMPDEST PUSH20 0xFFFFFFFFFFFFFFFFFFFFFFFFFFFFFFFFFFFFFFFF AND EQ PUSH2 0x18A8 JUMPI PUSH1 0x40 MLOAD PUSH32 0x8C379A000000000000000000000000000000000000000000000000000000000 DUP2 MSTORE PUSH1 0x4 ADD PUSH2 0x189F SWAP1 PUSH2 0x2BE2 JUMP JUMPDEST PUSH1 0x40 MLOAD DUP1 SWAP2 SUB SWAP1 REVERT JUMPDEST PUSH2 0x18B2 PUSH1 0x0 PUSH2 0x21E4 JUMP JUMPDEST JUMP JUMPDEST PUSH1 0xB PUSH1 0x14 SWAP1 SLOAD SWAP1 PUSH2 0x100 EXP SWAP1 DIV PUSH1 0xFF AND DUP2 JUMP JUMPDEST PUSH1 0x0 PUSH1 0xC PUSH1 0x0 SWAP1 SLOAD SWAP1 PUSH2 0x100 EXP SWAP1 DIV PUSH20 0xFFFFFFFFFFFFFFFFFFFFFFFFFFFFFFFFFFFFFFFF AND SWAP1 POP SWAP1 JUMP JUMPDEST PUSH1 0x2 PUSH1 0x0 SLOAD SUB PUSH2 0x1936 JUMPI PUSH1 0x40 MLOAD PUSH32 0x8C379A000000000000000000000000000000000000000000000000000000000 DUP2 MSTORE PUSH1 0x4 ADD PUSH2 0x192D SWAP1 PUSH2 0x2F40 JUMP JUMPDEST PUSH1 0x40 MLOAD DUP1 SWAP2 SUB SWAP1 REVERT JUMPDEST PUSH1 0x2 PUSH1 0x0 DUP2 SWAP1 SSTORE POP PUSH1 0x0 PUSH1 0xF PUSH1 0x0 DUP5 DUP2 MSTORE PUSH1 0x20 ADD SWAP1 DUP2 MSTORE PUSH1 0x20 ADD PUSH1 0x0 KECCAK256 PUSH1 0x4 ADD SLOAD SWAP1 POP PUSH1 0x0 PUSH1 0xF PUSH1 0x0 DUP6 DUP2 MSTORE PUSH1 0x20 ADD SWAP1 DUP2 MSTORE PUSH1 0x20 ADD PUSH1 0x0 KECCAK256 PUSH1 0x1 ADD SLOAD SWAP1 POP PUSH1 0x0 PUSH1 0xF PUSH1 0x0 DUP7 DUP2 MSTORE PUSH1 0x20 ADD SWAP1 DUP2 MSTORE PUSH1 0x20 ADD PUSH1 0x0 KECCAK256 PUSH1 0x2 ADD PUSH1 0x0 SWAP1 SLOAD SWAP1 PUSH2 0x100 EXP SWAP1 DIV PUSH20 0xFFFFFFFFFFFFFFFFFFFFFFFFFFFFFFFFFFFFFFFF AND SWAP1 POP PUSH1 0x0 PUSH1 0xA PUSH1 0x0 SWAP1 SLOAD SWAP1 PUSH2 0x100 EXP SWAP1 DIV PUSH20 0xFFFFFFFFFFFFFFFFFFFFFFFFFFFFFFFFFFFFFFFF AND PUSH20 0xFFFFFFFFFFFFFFFFFFFFFFFFFFFFFFFFFFFFFFFF AND PUSH4 0xD30BDAC9 DUP5 PUSH1 0x40 MLOAD DUP3 PUSH4 0xFFFFFFFF AND PUSH1 0xE0 SHL DUP2 MSTORE PUSH1 0x4 ADD PUSH2 0x1A0C SWAP2 SWAP1 PUSH2 0x2C02 JUMP JUMPDEST PUSH1 0x0 PUSH1 0x40 MLOAD DUP1 DUP4 SUB DUP2 DUP7 GAS STATICCALL ISZERO DUP1 ISZERO PUSH2 0x1A29 JUMPI RETURNDATASIZE PUSH1 0x0 DUP1 RETURNDATACOPY RETURNDATASIZE PUSH1 0x0 REVERT JUMPDEST POP POP POP POP PUSH1 0x40 MLOAD RETURNDATASIZE PUSH1 0x0 DUP3 RETURNDATACOPY RETURNDATASIZE PUSH1 0x1F NOT PUSH1 0x1F DUP3 ADD AND DUP3 ADD DUP1 PUSH1 0x40 MSTORE POP DUP2 ADD SWAP1 PUSH2 0x1A52 SWAP2 SWAP1 PUSH2 0x2EAB JUMP JUMPDEST SWAP1 POP DUP4 DUP6 EQ PUSH2 0x1A96 JUMPI PUSH1 0x40 MLOAD PUSH32 0x8C379A000000000000000000000000000000000000000000000000000000000 DUP2 MSTORE PUSH1 0x4 ADD PUSH2 0x1A8D SWAP1 PUSH2 0x31A6 JUMP JUMPDEST PUSH1 0x40 MLOAD DUP1 SWAP2 SUB SWAP1 REVERT JUMPDEST PUSH1 0x0 ISZERO ISZERO DUP2 PUSH1 0x80 ADD MLOAD ISZERO ISZERO EQ PUSH2 0x1AE1 JUMPI PUSH1 0x40 MLOAD PUSH32 0x8C379A000000000000000000000000000000000000000000000000000000000 DUP2 MSTORE PUSH1 0x4 ADD PUSH2 0x1AD8 SWAP1 PUSH2 0x3018 JUMP JUMPDEST PUSH1 0x40 MLOAD DUP1 SWAP2 SUB SWAP1 REVERT JUMPDEST PUSH1 0x9 PUSH1 0x0 SWAP1 SLOAD SWAP1 PUSH2 0x100 EXP SWAP1 DIV PUSH20 0xFFFFFFFFFFFFFFFFFFFFFFFFFFFFFFFFFFFFFFFF AND PUSH20 0xFFFFFFFFFFFFFFFFFFFFFFFFFFFFFFFFFFFFFFFF AND PUSH4 0x23B872DD CALLER PUSH1 0xF PUSH1 0x0 DUP11 DUP2 MSTORE PUSH1 0x20 ADD SWAP1 DUP2 MSTORE PUSH1 0x20 ADD PUSH1 0x0 KECCAK256 PUSH1 0x2 ADD PUSH1 0x0 SWAP1 SLOAD SWAP1 PUSH2 0x100 EXP SWAP1 DIV PUSH20 0xFFFFFFFFFFFFFFFFFFFFFFFFFFFFFFFFFFFFFFFF AND DUP9 PUSH1 0x40 MLOAD DUP5 PUSH4 0xFFFFFFFF AND PUSH1 0xE0 SHL DUP2 MSTORE PUSH1 0x4 ADD PUSH2 0x1B76 SWAP4 SWAP3 SWAP2 SWAP1 PUSH2 0x2B36 JUMP JUMPDEST PUSH1 0x20 PUSH1 0x40 MLOAD DUP1 DUP4 SUB DUP2 PUSH1 0x0 DUP8 GAS CALL ISZERO DUP1 ISZERO PUSH2 0x1B95 JUMPI RETURNDATASIZE PUSH1 0x0 DUP1 RETURNDATACOPY RETURNDATASIZE PUSH1 0x0 REVERT JUMPDEST POP POP POP POP PUSH1 0x40 MLOAD RETURNDATASIZE PUSH1 0x1F NOT PUSH1 0x1F DUP3 ADD AND DUP3 ADD DUP1 PUSH1 0x40 MSTORE POP DUP2 ADD SWAP1 PUSH2 0x1BB9 SWAP2 SWAP1 PUSH2 0x31C6 JUMP JUMPDEST POP PUSH1 0xB PUSH1 0x0 SWAP1 SLOAD SWAP1 PUSH2 0x100 EXP SWAP1 DIV PUSH20 0xFFFFFFFFFFFFFFFFFFFFFFFFFFFFFFFFFFFFFFFF AND PUSH20 0xFFFFFFFFFFFFFFFFFFFFFFFFFFFFFFFFFFFFFFFF AND PUSH4 0x23B872DD ADDRESS CALLER DUP7 PUSH1 0x40 MLOAD DUP5 PUSH4 0xFFFFFFFF AND PUSH1 0xE0 SHL DUP2 MSTORE PUSH1 0x4 ADD PUSH2 0x1C19 SWAP4 SWAP3 SWAP2 SWAP1 PUSH2 0x2B36 JUMP JUMPDEST PUSH1 0x0 PUSH1 0x40 MLOAD DUP1 DUP4 SUB DUP2 PUSH1 0x0 DUP8 DUP1 EXTCODESIZE ISZERO DUP1 ISZERO PUSH2 0x1C33 JUMPI PUSH1 0x0 DUP1 REVERT JUMPDEST POP GAS CALL ISZERO DUP1 ISZERO PUSH2 0x1C47 JUMPI RETURNDATASIZE PUSH1 0x0 DUP1 RETURNDATACOPY RETURNDATASIZE PUSH1 0x0 REVERT JUMPDEST POP POP POP POP CALLER PUSH1 0xF PUSH1 0x0 DUP9 DUP2 MSTORE PUSH1 0x20 ADD SWAP1 DUP2 MSTORE PUSH1 0x20 ADD PUSH1 0x0 KECCAK256 PUSH1 0x3 ADD PUSH1 0x0 PUSH2 0x100 EXP DUP2 SLOAD DUP2 PUSH20 0xFFFFFFFFFFFFFFFFFFFFFFFFFFFFFFFFFFFFFFFF MUL NOT AND SWAP1 DUP4 PUSH20 0xFFFFFFFFFFFFFFFFFFFFFFFFFFFFFFFFFFFFFFFF AND MUL OR SWAP1 SSTORE POP PUSH1 0x0 PUSH1 0xF PUSH1 0x0 DUP9 DUP2 MSTORE PUSH1 0x20 ADD SWAP1 DUP2 MSTORE PUSH1 0x20 ADD PUSH1 0x0 KECCAK256 PUSH1 0x5 ADD PUSH1 0x0 PUSH2 0x100 EXP DUP2 SLOAD DUP2 PUSH1 0xFF MUL NOT AND SWAP1 DUP4 PUSH1 0x1 DUP2 GT ISZERO PUSH2 0x1CDA JUMPI PUSH2 0x1CD9 PUSH2 0x2378 JUMP JUMPDEST JUMPDEST MUL OR SWAP1 SSTORE POP PUSH1 0xA PUSH1 0x0 SWAP1 SLOAD SWAP1 PUSH2 0x100 EXP SWAP1 DIV PUSH20 0xFFFFFFFFFFFFFFFFFFFFFFFFFFFFFFFFFFFFFFFF AND PUSH20 0xFFFFFFFFFFFFFFFFFFFFFFFFFFFFFFFFFFFFFFFF AND PUSH4 0xC1E9518A ADDRESS CALLER DUP7 PUSH1 0x40 MLOAD DUP5 PUSH4 0xFFFFFFFF AND PUSH1 0xE0 SHL DUP2 MSTORE PUSH1 0x4 ADD PUSH2 0x1D3E SWAP4 SWAP3 SWAP2 SWAP1 PUSH2 0x2B36 JUMP JUMPDEST PUSH1 0x0 PUSH1 0x40 MLOAD DUP1 DUP4 SUB DUP2 PUSH1 0x0 DUP8 DUP1 EXTCODESIZE ISZERO DUP1 ISZERO PUSH2 0x1D58 JUMPI PUSH1 0x0 DUP1 REVERT JUMPDEST POP GAS CALL ISZERO DUP1 ISZERO PUSH2 0x1D6C JUMPI RETURNDATASIZE PUSH1 0x0 DUP1 RETURNDATACOPY RETURNDATASIZE PUSH1 0x0 REVERT JUMPDEST POP POP POP POP PUSH2 0x1D7A PUSH1 0xE PUSH2 0x21C0 JUMP JUMPDEST CALLER PUSH20 0xFFFFFFFFFFFFFFFFFFFFFFFFFFFFFFFFFFFFFFFF AND DUP3 PUSH20 0xFFFFFFFFFFFFFFFFFFFFFFFFFFFFFFFFFFFFFFFF AND DUP5 PUSH32 0x551327AEE12D0A8B3EDE8D0E3182A40A5FF3ED9F1811DD622915DB30B609B7DF DUP10 DUP9 TIMESTAMP PUSH1 0x40 MLOAD PUSH2 0x1DDC SWAP4 SWAP3 SWAP2 SWAP1 PUSH2 0x323F JUMP JUMPDEST PUSH1 0x40 MLOAD DUP1 SWAP2 SUB SWAP1 LOG4 POP POP POP POP PUSH1 0x1 PUSH1 0x0 DUP2 SWAP1 SSTORE POP POP POP JUMP JUMPDEST PUSH1 0xB PUSH1 0x15 SWAP1 SLOAD SWAP1 PUSH2 0x100 EXP SWAP1 DIV PUSH1 0xFF AND DUP2 JUMP JUMPDEST PUSH1 0xA PUSH1 0x0 SWAP1 SLOAD SWAP1 PUSH2 0x100 EXP SWAP1 DIV PUSH20 0xFFFFFFFFFFFFFFFFFFFFFFFFFFFFFFFFFFFFFFFF AND DUP2 JUMP JUMPDEST PUSH2 0x1E35 PUSH2 0x22AA JUMP JUMPDEST PUSH1 0xF PUSH1 0x0 DUP4 DUP2 MSTORE PUSH1 0x20 ADD SWAP1 DUP2 MSTORE PUSH1 0x20 ADD PUSH1 0x0 KECCAK256 PUSH1 0x40 MLOAD DUP1 PUSH1 0xC0 ADD PUSH1 0x40 MSTORE SWAP1 DUP2 PUSH1 0x0 DUP3 ADD SLOAD DUP2 MSTORE PUSH1 0x20 ADD PUSH1 0x1 DUP3 ADD SLOAD DUP2 MSTORE PUSH1 0x20 ADD PUSH1 0x2 DUP3 ADD PUSH1 0x0 SWAP1 SLOAD SWAP1 PUSH2 0x100 EXP SWAP1 DIV PUSH20 0xFFFFFFFFFFFFFFFFFFFFFFFFFFFFFFFFFFFFFFFF AND PUSH20 0xFFFFFFFFFFFFFFFFFFFFFFFFFFFFFFFFFFFFFFFF AND PUSH20 0xFFFFFFFFFFFFFFFFFFFFFFFFFFFFFFFFFFFFFFFF AND DUP2 MSTORE PUSH1 0x20 ADD PUSH1 0x3 DUP3 ADD PUSH1 0x0 SWAP1 SLOAD SWAP1 PUSH2 0x100 EXP SWAP1 DIV PUSH20 0xFFFFFFFFFFFFFFFFFFFFFFFFFFFFFFFFFFFFFFFF AND PUSH20 0xFFFFFFFFFFFFFFFFFFFFFFFFFFFFFFFFFFFFFFFF AND PUSH20 0xFFFFFFFFFFFFFFFFFFFFFFFFFFFFFFFFFFFFFFFF AND DUP2 MSTORE PUSH1 0x20 ADD PUSH1 0x4 DUP3 ADD SLOAD DUP2 MSTORE PUSH1 0x20 ADD PUSH1 0x5 DUP3 ADD PUSH1 0x0 SWAP1 SLOAD SWAP1 PUSH2 0x100 EXP SWAP1 DIV PUSH1 0xFF AND PUSH1 0x1 DUP2 GT ISZERO PUSH2 0x1F42 JUMPI PUSH2 0x1F41 PUSH2 0x2378 JUMP JUMPDEST JUMPDEST PUSH1 0x1 DUP2 GT ISZERO PUSH2 0x1F54 JUMPI PUSH2 0x1F53 PUSH2 0x2378 JUMP JUMPDEST JUMPDEST DUP2 MSTORE POP POP SWAP1 POP SWAP2 SWAP1 POP JUMP JUMPDEST PUSH1 0x0 DUP1 PUSH1 0xA PUSH1 0x0 SWAP1 SLOAD SWAP1 PUSH2 0x100 EXP SWAP1 DIV PUSH20 0xFFFFFFFFFFFFFFFFFFFFFFFFFFFFFFFFFFFFFFFF AND PUSH20 0xFFFFFFFFFFFFFFFFFFFFFFFFFFFFFFFFFFFFFFFF AND PUSH4 0xD30BDAC9 DUP5 PUSH1 0x40 MLOAD DUP3 PUSH4 0xFFFFFFFF AND PUSH1 0xE0 SHL DUP2 MSTORE PUSH1 0x4 ADD PUSH2 0x1FBD SWAP2 SWAP1 PUSH2 0x2C02 JUMP JUMPDEST PUSH1 0x0 PUSH1 0x40 MLOAD DUP1 DUP4 SUB DUP2 DUP7 GAS STATICCALL ISZERO DUP1 ISZERO PUSH2 0x1FDA JUMPI RETURNDATASIZE PUSH1 0x0 DUP1 RETURNDATACOPY RETURNDATASIZE PUSH1 0x0 REVERT JUMPDEST POP POP POP POP PUSH1 0x40 MLOAD RETURNDATASIZE PUSH1 0x0 DUP3 RETURNDATACOPY RETURNDATASIZE PUSH1 0x1F NOT PUSH1 0x1F DUP3 ADD AND DUP3 ADD DUP1 PUSH1 0x40 MSTORE POP DUP2 ADD SWAP1 PUSH2 0x2003 SWAP2 SWAP1 PUSH2 0x2EAB JUMP JUMPDEST SWAP1 POP DUP1 PUSH1 0x20 ADD MLOAD SWAP2 POP POP SWAP2 SWAP1 POP JUMP JUMPDEST PUSH2 0x201A PUSH2 0x21B8 JUMP JUMPDEST PUSH20 0xFFFFFFFFFFFFFFFFFFFFFFFFFFFFFFFFFFFFFFFF AND PUSH2 0x2038 PUSH2 0x18C7 JUMP JUMPDEST PUSH20 0xFFFFFFFFFFFFFFFFFFFFFFFFFFFFFFFFFFFFFFFF AND EQ PUSH2 0x208E JUMPI PUSH1 0x40 MLOAD PUSH32 0x8C379A000000000000000000000000000000000000000000000000000000000 DUP2 MSTORE PUSH1 0x4 ADD PUSH2 0x2085 SWAP1 PUSH2 0x2BE2 JUMP JUMPDEST PUSH1 0x40 MLOAD DUP1 SWAP2 SUB SWAP1 REVERT JUMPDEST PUSH1 0x0 PUSH20 0xFFFFFFFFFFFFFFFFFFFFFFFFFFFFFFFFFFFFFFFF AND DUP2 PUSH20 0xFFFFFFFFFFFFFFFFFFFFFFFFFFFFFFFFFFFFFFFF AND SUB PUSH2 0x20FD JUMPI PUSH1 0x40 MLOAD PUSH32 0x8C379A000000000000000000000000000000000000000000000000000000000 DUP2 MSTORE PUSH1 0x4 ADD PUSH2 0x20F4 SWAP1 PUSH2 0x32FB JUMP JUMPDEST PUSH1 0x40 MLOAD DUP1 SWAP2 SUB SWAP1 REVERT JUMPDEST PUSH2 0x2106 DUP2 PUSH2 0x21E4 JUMP JUMPDEST POP JUMP JUMPDEST PUSH1 0xB PUSH1 0x0 SWAP1 SLOAD SWAP1 PUSH2 0x100 EXP SWAP1 DIV PUSH20 0xFFFFFFFFFFFFFFFFFFFFFFFFFFFFFFFFFFFFFFFF AND DUP2 JUMP JUMPDEST PUSH1 0x7 PUSH1 0x20 MSTORE DUP1 PUSH1 0x0 MSTORE PUSH1 0x40 PUSH1 0x0 KECCAK256 PUSH1 0x0 SWAP2 POP SWAP1 POP DUP1 PUSH1 0x0 ADD SLOAD SWAP1 DUP1 PUSH1 0x1 ADD SLOAD SWAP1 DUP1 PUSH1 0x2 ADD PUSH1 0x0 SWAP1 SLOAD SWAP1 PUSH2 0x100 EXP SWAP1 DIV PUSH20 0xFFFFFFFFFFFFFFFFFFFFFFFFFFFFFFFFFFFFFFFF AND SWAP1 DUP1 PUSH1 0x3 ADD PUSH1 0x0 SWAP1 SLOAD SWAP1 PUSH2 0x100 EXP SWAP1 DIV PUSH20 0xFFFFFFFFFFFFFFFFFFFFFFFFFFFFFFFFFFFFFFFF AND SWAP1 DUP1 PUSH1 0x4 ADD SLOAD SWAP1 DUP1 PUSH1 0x5 ADD PUSH1 0x0 SWAP1 SLOAD SWAP1 PUSH2 0x100 EXP SWAP1 DIV PUSH1 0xFF AND SWAP1 POP DUP7 JUMP JUMPDEST PUSH1 0x0 CALLER SWAP1 POP SWAP1 JUMP JUMPDEST PUSH1 0x1 DUP2 PUSH1 0x0 ADD PUSH1 0x0 DUP3 DUP3 SLOAD ADD SWAP3 POP POP DUP2 SWAP1 SSTORE POP POP JUMP JUMPDEST PUSH1 0x0 DUP2 PUSH1 0x0 ADD SLOAD SWAP1 POP SWAP2 SWAP1 POP JUMP JUMPDEST PUSH1 0x0 PUSH1 0xC PUSH1 0x0 SWAP1 SLOAD SWAP1 PUSH2 0x100 EXP SWAP1 DIV PUSH20 0xFFFFFFFFFFFFFFFFFFFFFFFFFFFFFFFFFFFFFFFF AND SWAP1 POP DUP2 PUSH1 0xC PUSH1 0x0 PUSH2 0x100 EXP DUP2 SLOAD DUP2 PUSH20 0xFFFFFFFFFFFFFFFFFFFFFFFFFFFFFFFFFFFFFFFF MUL NOT AND SWAP1 DUP4 PUSH20 0xFFFFFFFFFFFFFFFFFFFFFFFFFFFFFFFFFFFFFFFF AND MUL OR SWAP1 SSTORE POP DUP2 PUSH20 0xFFFFFFFFFFFFFFFFFFFFFFFFFFFFFFFFFFFFFFFF AND DUP2 PUSH20 0xFFFFFFFFFFFFFFFFFFFFFFFFFFFFFFFFFFFFFFFF AND PUSH32 0x8BE0079C531659141344CD1FD0A4F28419497F9722A3DAAFE3B4186F6B6457E0 PUSH1 0x40 MLOAD PUSH1 0x40 MLOAD DUP1 SWAP2 SUB SWAP1 LOG3 POP POP JUMP JUMPDEST PUSH1 0x40 MLOAD DUP1 PUSH1 0xC0 ADD PUSH1 0x40 MSTORE DUP1 PUSH1 0x0 DUP2 MSTORE PUSH1 0x20 ADD PUSH1 0x0 DUP2 MSTORE PUSH1 0x20 ADD PUSH1 0x0 PUSH20 0xFFFFFFFFFFFFFFFFFFFFFFFFFFFFFFFFFFFFFFFF AND DUP2 MSTORE PUSH1 0x20 ADD PUSH1 0x0 PUSH20 0xFFFFFFFFFFFFFFFFFFFFFFFFFFFFFFFFFFFFFFFF AND DUP2 MSTORE PUSH1 0x20 ADD PUSH1 0x0 DUP2 MSTORE PUSH1 0x20 ADD PUSH1 0x0 PUSH1 0x1 DUP2 GT ISZERO PUSH2 0x2318 JUMPI PUSH2 0x2317 PUSH2 0x2378 JUMP JUMPDEST JUMPDEST DUP2 MSTORE POP SWAP1 JUMP JUMPDEST PUSH1 0x0 DUP2 SWAP1 POP SWAP2 SWAP1 POP JUMP JUMPDEST PUSH2 0x2331 DUP2 PUSH2 0x231E JUMP JUMPDEST DUP3 MSTORE POP POP JUMP JUMPDEST PUSH1 0x0 PUSH20 0xFFFFFFFFFFFFFFFFFFFFFFFFFFFFFFFFFFFFFFFF DUP3 AND SWAP1 POP SWAP2 SWAP1 POP JUMP JUMPDEST PUSH1 0x0 PUSH2 0x2362 DUP3 PUSH2 0x2337 JUMP JUMPDEST SWAP1 POP SWAP2 SWAP1 POP JUMP JUMPDEST PUSH2 0x2372 DUP2 PUSH2 0x2357 JUMP JUMPDEST DUP3 MSTORE POP POP JUMP JUMPDEST PUSH32 0x4E487B7100000000000000000000000000000000000000000000000000000000 PUSH1 0x0 MSTORE PUSH1 0x21 PUSH1 0x4 MSTORE PUSH1 0x24 PUSH1 0x0 REVERT JUMPDEST PUSH1 0x2 DUP2 LT PUSH2 0x23B8 JUMPI PUSH2 0x23B7 PUSH2 0x2378 JUMP JUMPDEST JUMPDEST POP JUMP JUMPDEST PUSH1 0x0 DUP2 SWAP1 POP PUSH2 0x23C9 DUP3 PUSH2 0x23A7 JUMP JUMPDEST SWAP2 SWAP1 POP JUMP JUMPDEST PUSH1 0x0 PUSH2 0x23D9 DUP3 PUSH2 0x23BB JUMP JUMPDEST SWAP1 POP SWAP2 SWAP1 POP JUMP JUMPDEST PUSH2 0x23E9 DUP2 PUSH2 0x23CE JUMP JUMPDEST DUP3 MSTORE POP POP JUMP JUMPDEST PUSH1 0xC0 DUP3 ADD PUSH1 0x0 DUP3 ADD MLOAD PUSH2 0x2405 PUSH1 0x0 DUP6 ADD DUP3 PUSH2 0x2328 JUMP JUMPDEST POP PUSH1 0x20 DUP3 ADD MLOAD PUSH2 0x2418 PUSH1 0x20 DUP6 ADD DUP3 PUSH2 0x2328 JUMP JUMPDEST POP PUSH1 0x40 DUP3 ADD MLOAD PUSH2 0x242B PUSH1 0x40 DUP6 ADD DUP3 PUSH2 0x2369 JUMP JUMPDEST POP PUSH1 0x60 DUP3 ADD MLOAD PUSH2 0x243E PUSH1 0x60 DUP6 ADD DUP3 PUSH2 0x2369 JUMP JUMPDEST POP PUSH1 0x80 DUP3 ADD MLOAD PUSH2 0x2451 PUSH1 0x80 DUP6 ADD DUP3 PUSH2 0x2328 JUMP JUMPDEST POP PUSH1 0xA0 DUP3 ADD MLOAD PUSH2 0x2464 PUSH1 0xA0 DUP6 ADD DUP3 PUSH2 0x23E0 JUMP JUMPDEST POP POP POP POP JUMP JUMPDEST PUSH1 0x0 PUSH1 0xC0 DUP3 ADD SWAP1 POP PUSH2 0x247F PUSH1 0x0 DUP4 ADD DUP5 PUSH2 0x23EF JUMP JUMPDEST SWAP3 SWAP2 POP POP JUMP JUMPDEST PUSH1 0x0 PUSH1 0x40 MLOAD SWAP1 POP SWAP1 JUMP JUMPDEST PUSH1 0x0 DUP1 REVERT JUMPDEST PUSH1 0x0 DUP1 REVERT JUMPDEST PUSH2 0x24A2 DUP2 PUSH2 0x231E JUMP JUMPDEST DUP2 EQ PUSH2 0x24AD JUMPI PUSH1 0x0 DUP1 REVERT JUMPDEST POP JUMP JUMPDEST PUSH1 0x0 DUP2 CALLDATALOAD SWAP1 POP PUSH2 0x24BF DUP2 PUSH2 0x2499 JUMP JUMPDEST SWAP3 SWAP2 POP POP JUMP JUMPDEST PUSH1 0x0 PUSH1 0x20 DUP3 DUP5 SUB SLT ISZERO PUSH2 0x24DB JUMPI PUSH2 0x24DA PUSH2 0x248F JUMP JUMPDEST JUMPDEST PUSH1 0x0 PUSH2 0x24E9 DUP5 DUP3 DUP6 ADD PUSH2 0x24B0 JUMP JUMPDEST SWAP2 POP POP SWAP3 SWAP2 POP POP JUMP JUMPDEST PUSH2 0x24FB DUP2 PUSH2 0x2357 JUMP JUMPDEST DUP2 EQ PUSH2 0x2506 JUMPI PUSH1 0x0 DUP1 REVERT JUMPDEST POP JUMP JUMPDEST PUSH1 0x0 DUP2 CALLDATALOAD SWAP1 POP PUSH2 0x2518 DUP2 PUSH2 0x24F2 JUMP JUMPDEST SWAP3 SWAP2 POP POP JUMP JUMPDEST PUSH1 0x0 PUSH1 0x20 DUP3 DUP5 SUB SLT ISZERO PUSH2 0x2534 JUMPI PUSH2 0x2533 PUSH2 0x248F JUMP JUMPDEST JUMPDEST PUSH1 0x0 PUSH2 0x2542 DUP5 DUP3 DUP6 ADD PUSH2 0x2509 JUMP JUMPDEST SWAP2 POP POP SWAP3 SWAP2 POP POP JUMP JUMPDEST PUSH1 0x0 DUP2 ISZERO ISZERO SWAP1 POP SWAP2 SWAP1 POP JUMP JUMPDEST PUSH2 0x2560 DUP2 PUSH2 0x254B JUMP JUMPDEST DUP3 MSTORE POP POP JUMP JUMPDEST PUSH1 0x0 PUSH1 0x20 DUP3 ADD SWAP1 POP PUSH2 0x257B PUSH1 0x0 DUP4 ADD DUP5 PUSH2 0x2557 JUMP JUMPDEST SWAP3 SWAP2 POP POP JUMP JUMPDEST PUSH1 0x0 PUSH32 0xFFFFFFFF00000000000000000000000000000000000000000000000000000000 DUP3 AND SWAP1 POP SWAP2 SWAP1 POP JUMP JUMPDEST PUSH2 0x25B6 DUP2 PUSH2 0x2581 JUMP JUMPDEST DUP3 MSTORE POP POP JUMP JUMPDEST PUSH1 0x0 PUSH1 0x20 DUP3 ADD SWAP1 POP PUSH2 0x25D1 PUSH1 0x0 DUP4 ADD DUP5 PUSH2 0x25AD JUMP JUMPDEST SWAP3 SWAP2 POP POP JUMP JUMPDEST PUSH1 0x0 DUP1 PUSH1 0x40 DUP4 DUP6 SUB SLT ISZERO PUSH2 0x25EE JUMPI PUSH2 0x25ED PUSH2 0x248F JUMP JUMPDEST JUMPDEST PUSH1 0x0 PUSH2 0x25FC DUP6 DUP3 DUP7 ADD PUSH2 0x24B0 JUMP JUMPDEST SWAP3 POP POP PUSH1 0x20 PUSH2 0x260D DUP6 DUP3 DUP7 ADD PUSH2 0x24B0 JUMP JUMPDEST SWAP2 POP POP SWAP3 POP SWAP3 SWAP1 POP JUMP JUMPDEST PUSH1 0x0 DUP2 SWAP1 POP SWAP2 SWAP1 POP JUMP JUMPDEST PUSH1 0x0 PUSH2 0x263C PUSH2 0x2637 PUSH2 0x2632 DUP5 PUSH2 0x2337 JUMP JUMPDEST PUSH2 0x2617 JUMP JUMPDEST PUSH2 0x2337 JUMP JUMPDEST SWAP1 POP SWAP2 SWAP1 POP JUMP JUMPDEST PUSH1 0x0 PUSH2 0x264E DUP3 PUSH2 0x2621 JUMP JUMPDEST SWAP1 POP SWAP2 SWAP1 POP JUMP JUMPDEST PUSH1 0x0 PUSH2 0x2660 DUP3 PUSH2 0x2643 JUMP JUMPDEST SWAP1 POP SWAP2 SWAP1 POP JUMP JUMPDEST PUSH2 0x2670 DUP2 PUSH2 0x2655 JUMP JUMPDEST DUP3 MSTORE POP POP JUMP JUMPDEST PUSH1 0x0 PUSH1 0x20 DUP3 ADD SWAP1 POP PUSH2 0x268B PUSH1 0x0 DUP4 ADD DUP5 PUSH2 0x2667 JUMP JUMPDEST SWAP3 SWAP2 POP POP JUMP JUMPDEST PUSH2 0x269A DUP2 PUSH2 0x231E JUMP JUMPDEST DUP3 MSTORE POP POP JUMP JUMPDEST PUSH2 0x26A9 DUP2 PUSH2 0x2357 JUMP JUMPDEST DUP3 MSTORE POP POP JUMP JUMPDEST PUSH2 0x26B8 DUP2 PUSH2 0x23CE JUMP JUMPDEST DUP3 MSTORE POP POP JUMP JUMPDEST PUSH1 0x0 PUSH1 0xC0 DUP3 ADD SWAP1 POP PUSH2 0x26D3 PUSH1 0x0 DUP4 ADD DUP10 PUSH2 0x2691 JUMP JUMPDEST PUSH2 0x26E0 PUSH1 0x20 DUP4 ADD DUP9 PUSH2 0x2691 JUMP JUMPDEST PUSH2 0x26ED PUSH1 0x40 DUP4 ADD DUP8 PUSH2 0x26A0 JUMP JUMPDEST PUSH2 0x26FA PUSH1 0x60 DUP4 ADD DUP7 PUSH2 0x26A0 JUMP JUMPDEST PUSH2 0x2707 PUSH1 0x80 DUP4 ADD DUP6 PUSH2 0x2691 JUMP JUMPDEST PUSH2 0x2714 PUSH1 0xA0 DUP4 ADD DUP5 PUSH2 0x26AF JUMP JUMPDEST SWAP8 SWAP7 POP POP POP POP POP POP POP JUMP JUMPDEST PUSH1 0x0 DUP1 PUSH1 0x40 DUP4 DUP6 SUB SLT ISZERO PUSH2 0x2736 JUMPI PUSH2 0x2735 PUSH2 0x248F JUMP JUMPDEST JUMPDEST PUSH1 0x0 PUSH2 0x2744 DUP6 DUP3 DUP7 ADD PUSH2 0x2509 JUMP JUMPDEST SWAP3 POP POP PUSH1 0x20 PUSH2 0x2755 DUP6 DUP3 DUP7 ADD PUSH2 0x24B0 JUMP JUMPDEST SWAP2 POP POP SWAP3 POP SWAP3 SWAP1 POP JUMP JUMPDEST PUSH1 0x0 DUP2 MLOAD SWAP1 POP SWAP2 SWAP1 POP JUMP JUMPDEST PUSH1 0x0 DUP3 DUP3 MSTORE PUSH1 0x20 DUP3 ADD SWAP1 POP SWAP3 SWAP2 POP POP JUMP JUMPDEST PUSH1 0x0 DUP2 SWAP1 POP PUSH1 0x20 DUP3 ADD SWAP1 POP SWAP2 SWAP1 POP JUMP JUMPDEST PUSH1 0xC0 DUP3 ADD PUSH1 0x0 DUP3 ADD MLOAD PUSH2 0x27A1 PUSH1 0x0 DUP6 ADD DUP3 PUSH2 0x2328 JUMP JUMPDEST POP PUSH1 0x20 DUP3 ADD MLOAD PUSH2 0x27B4 PUSH1 0x20 DUP6 ADD DUP3 PUSH2 0x2328 JUMP JUMPDEST POP PUSH1 0x40 DUP3 ADD MLOAD PUSH2 0x27C7 PUSH1 0x40 DUP6 ADD DUP3 PUSH2 0x2369 JUMP JUMPDEST POP PUSH1 0x60 DUP3 ADD MLOAD PUSH2 0x27DA PUSH1 0x60 DUP6 ADD DUP3 PUSH2 0x2369 JUMP JUMPDEST POP PUSH1 0x80 DUP3 ADD MLOAD PUSH2 0x27ED PUSH1 0x80 DUP6 ADD DUP3 PUSH2 0x2328 JUMP JUMPDEST POP PUSH1 0xA0 DUP3 ADD MLOAD PUSH2 0x2800 PUSH1 0xA0 DUP6 ADD DUP3 PUSH2 0x23E0 JUMP JUMPDEST POP POP POP POP JUMP JUMPDEST PUSH1 0x0 PUSH2 0x2812 DUP4 DUP4 PUSH2 0x278B JUMP JUMPDEST PUSH1 0xC0 DUP4 ADD SWAP1 POP SWAP3 SWAP2 POP POP JUMP JUMPDEST PUSH1 0x0 PUSH1 0x20 DUP3 ADD SWAP1 POP SWAP2 SWAP1 POP JUMP JUMPDEST PUSH1 0x0 PUSH2 0x2836 DUP3 PUSH2 0x275F JUMP JUMPDEST PUSH2 0x2840 DUP2 DUP6 PUSH2 0x276A JUMP JUMPDEST SWAP4 POP PUSH2 0x284B DUP4 PUSH2 0x277B JUMP JUMPDEST DUP1 PUSH1 0x0 JUMPDEST DUP4 DUP2 LT ISZERO PUSH2 0x287C JUMPI DUP2 MLOAD PUSH2 0x2863 DUP9 DUP3 PUSH2 0x2806 JUMP JUMPDEST SWAP8 POP PUSH2 0x286E DUP4 PUSH2 0x281E JUMP JUMPDEST SWAP3 POP POP PUSH1 0x1 DUP2 ADD SWAP1 POP PUSH2 0x284F JUMP JUMPDEST POP DUP6 SWAP4 POP POP POP POP SWAP3 SWAP2 POP POP JUMP JUMPDEST PUSH1 0x0 PUSH1 0x20 DUP3 ADD SWAP1 POP DUP2 DUP2 SUB PUSH1 0x0 DUP4 ADD MSTORE PUSH2 0x28A3 DUP2 DUP5 PUSH2 0x282B JUMP JUMPDEST SWAP1 POP SWAP3 SWAP2 POP POP JUMP JUMPDEST PUSH1 0x0 PUSH1 0xFF DUP3 AND SWAP1 POP SWAP2 SWAP1 POP JUMP JUMPDEST PUSH2 0x28C1 DUP2 PUSH2 0x28AB JUMP JUMPDEST DUP3 MSTORE POP POP JUMP JUMPDEST PUSH1 0x0 PUSH1 0x20 DUP3 ADD SWAP1 POP PUSH2 0x28DC PUSH1 0x0 DUP4 ADD DUP5 PUSH2 0x28B8 JUMP JUMPDEST SWAP3 SWAP2 POP POP JUMP JUMPDEST PUSH1 0x0 PUSH1 0x20 DUP3 ADD SWAP1 POP PUSH2 0x28F7 PUSH1 0x0 DUP4 ADD DUP5 PUSH2 0x26A0 JUMP JUMPDEST SWAP3 SWAP2 POP POP JUMP JUMPDEST PUSH1 0x0 PUSH2 0x2908 DUP3 PUSH2 0x2643 JUMP JUMPDEST SWAP1 POP SWAP2 SWAP1 POP JUMP JUMPDEST PUSH2 0x2918 DUP2 PUSH2 0x28FD JUMP JUMPDEST DUP3 MSTORE POP POP JUMP JUMPDEST PUSH1 0x0 PUSH1 0x20 DUP3 ADD SWAP1 POP PUSH2 0x2933 PUSH1 0x0 DUP4 ADD DUP5 PUSH2 0x290F JUMP JUMPDEST SWAP3 SWAP2 POP POP JUMP JUMPDEST PUSH1 0x0 PUSH2 0x2944 DUP3 PUSH2 0x2643 JUMP JUMPDEST SWAP1 POP SWAP2 SWAP1 POP JUMP JUMPDEST PUSH2 0x2954 DUP2 PUSH2 0x2939 JUMP JUMPDEST DUP3 MSTORE POP POP JUMP JUMPDEST PUSH1 0x0 PUSH1 0x20 DUP3 ADD SWAP1 POP PUSH2 0x296F PUSH1 0x0 DUP4 ADD DUP5 PUSH2 0x294B JUMP JUMPDEST SWAP3 SWAP2 POP POP JUMP JUMPDEST PUSH1 0x0 DUP3 DUP3 MSTORE PUSH1 0x20 DUP3 ADD SWAP1 POP SWAP3 SWAP2 POP POP JUMP JUMPDEST PUSH32 0x4173736574206E6F74207075626C697368656400000000000000000000000000 PUSH1 0x0 DUP3 ADD MSTORE POP JUMP JUMPDEST PUSH1 0x0 PUSH2 0x29BC PUSH1 0x13 DUP4 PUSH2 0x2975 JUMP JUMPDEST SWAP2 POP PUSH2 0x29C7 DUP3 PUSH2 0x2986 JUMP JUMPDEST PUSH1 0x20 DUP3 ADD SWAP1 POP SWAP2 SWAP1 POP JUMP JUMPDEST PUSH1 0x0 PUSH1 0x20 DUP3 ADD SWAP1 POP DUP2 DUP2 SUB PUSH1 0x0 DUP4 ADD MSTORE PUSH2 0x29EB DUP2 PUSH2 0x29AF JUMP JUMPDEST SWAP1 POP SWAP2 SWAP1 POP JUMP JUMPDEST PUSH32 0x41737365742064656C6973746564000000000000000000000000000000000000 PUSH1 0x0 DUP3 ADD MSTORE POP JUMP JUMPDEST PUSH1 0x0 PUSH2 0x2A28 PUSH1 0xE DUP4 PUSH2 0x2975 JUMP JUMPDEST SWAP2 POP PUSH2 0x2A33 DUP3 PUSH2 0x29F2 JUMP JUMPDEST PUSH1 0x20 DUP3 ADD SWAP1 POP SWAP2 SWAP1 POP JUMP JUMPDEST PUSH1 0x0 PUSH1 0x20 DUP3 ADD SWAP1 POP DUP2 DUP2 SUB PUSH1 0x0 DUP4 ADD MSTORE PUSH2 0x2A57 DUP2 PUSH2 0x2A1B JUMP JUMPDEST SWAP1 POP SWAP2 SWAP1 POP JUMP JUMPDEST PUSH32 0x496E76616C696420616464726573730000000000000000000000000000000000 PUSH1 0x0 DUP3 ADD MSTORE POP JUMP JUMPDEST PUSH1 0x0 PUSH2 0x2A94 PUSH1 0xF DUP4 PUSH2 0x2975 JUMP JUMPDEST SWAP2 POP PUSH2 0x2A9F DUP3 PUSH2 0x2A5E JUMP JUMPDEST PUSH1 0x20 DUP3 ADD SWAP1 POP SWAP2 SWAP1 POP JUMP JUMPDEST PUSH1 0x0 PUSH1 0x20 DUP3 ADD SWAP1 POP DUP2 DUP2 SUB PUSH1 0x0 DUP4 ADD MSTORE PUSH2 0x2AC3 DUP2 PUSH2 0x2A87 JUMP JUMPDEST SWAP1 POP SWAP2 SWAP1 POP JUMP JUMPDEST PUSH32 0x4F6E6C792073656C6C65722063616E2064656C69737400000000000000000000 PUSH1 0x0 DUP3 ADD MSTORE POP JUMP JUMPDEST PUSH1 0x0 PUSH2 0x2B00 PUSH1 0x16 DUP4 PUSH2 0x2975 JUMP JUMPDEST SWAP2 POP PUSH2 0x2B0B DUP3 PUSH2 0x2ACA JUMP JUMPDEST PUSH1 0x20 DUP3 ADD SWAP1 POP SWAP2 SWAP1 POP JUMP JUMPDEST PUSH1 0x0 PUSH1 0x20 DUP3 ADD SWAP1 POP DUP2 DUP2 SUB PUSH1 0x0 DUP4 ADD MSTORE PUSH2 0x2B2F DUP2 PUSH2 0x2AF3 JUMP JUMPDEST SWAP1 POP SWAP2 SWAP1 POP JUMP JUMPDEST PUSH1 0x0 PUSH1 0x60 DUP3 ADD SWAP1 POP PUSH2 0x2B4B PUSH1 0x0 DUP4 ADD DUP7 PUSH2 0x26A0 JUMP JUMPDEST PUSH2 0x2B58 PUSH1 0x20 DUP4 ADD DUP6 PUSH2 0x26A0 JUMP JUMPDEST PUSH2 0x2B65 PUSH1 0x40 DUP4 ADD DUP5 PUSH2 0x2691 JUMP JUMPDEST SWAP5 SWAP4 POP POP POP POP JUMP JUMPDEST PUSH1 0x0 PUSH1 0x40 DUP3 ADD SWAP1 POP PUSH2 0x2B82 PUSH1 0x0 DUP4 ADD DUP6 PUSH2 0x2691 JUMP JUMPDEST PUSH2 0x2B8F PUSH1 0x20 DUP4 ADD DUP5 PUSH2 0x2691 JUMP JUMPDEST SWAP4 SWAP3 POP POP POP JUMP JUMPDEST PUSH32 0x4F776E61626C653A2063616C6C6572206973206E6F7420746865206F776E6572 PUSH1 0x0 DUP3 ADD MSTORE POP JUMP JUMPDEST PUSH1 0x0 PUSH2 0x2BCC PUSH1 0x20 DUP4 PUSH2 0x2975 JUMP JUMPDEST SWAP2 POP PUSH2 0x2BD7 DUP3 PUSH2 0x2B96 JUMP JUMPDEST PUSH1 0x20 DUP3 ADD SWAP1 POP SWAP2 SWAP1 POP JUMP JUMPDEST PUSH1 0x0 PUSH1 0x20 DUP3 ADD SWAP1 POP DUP2 DUP2 SUB PUSH1 0x0 DUP4 ADD MSTORE PUSH2 0x2BFB DUP2 PUSH2 0x2BBF JUMP JUMPDEST SWAP1 POP SWAP2 SWAP1 POP JUMP JUMPDEST PUSH1 0x0 PUSH1 0x20 DUP3 ADD SWAP1 POP PUSH2 0x2C17 PUSH1 0x0 DUP4 ADD DUP5 PUSH2 0x2691 JUMP JUMPDEST SWAP3 SWAP2 POP POP JUMP JUMPDEST PUSH1 0x0 DUP1 REVERT JUMPDEST PUSH1 0x0 PUSH1 0x1F NOT PUSH1 0x1F DUP4 ADD AND SWAP1 POP SWAP2 SWAP1 POP JUMP JUMPDEST PUSH32 0x4E487B7100000000000000000000000000000000000000000000000000000000 PUSH1 0x0 MSTORE PUSH1 0x41 PUSH1 0x4 MSTORE PUSH1 0x24 PUSH1 0x0 REVERT JUMPDEST PUSH2 0x2C6B DUP3 PUSH2 0x2C22 JUMP JUMPDEST DUP2 ADD DUP2 DUP2 LT PUSH8 0xFFFFFFFFFFFFFFFF DUP3 GT OR ISZERO PUSH2 0x2C8A JUMPI PUSH2 0x2C89 PUSH2 0x2C33 JUMP JUMPDEST JUMPDEST DUP1 PUSH1 0x40 MSTORE POP POP POP JUMP JUMPDEST PUSH1 0x0 PUSH2 0x2C9D PUSH2 0x2485 JUMP JUMPDEST SWAP1 POP PUSH2 0x2CA9 DUP3 DUP3 PUSH2 0x2C62 JUMP JUMPDEST SWAP2 SWAP1 POP JUMP JUMPDEST PUSH1 0x0 DUP1 REVERT JUMPDEST PUSH1 0x0 DUP2 MLOAD SWAP1 POP PUSH2 0x2CC2 DUP2 PUSH2 0x2499 JUMP JUMPDEST SWAP3 SWAP2 POP POP JUMP JUMPDEST PUSH1 0x0 DUP2 MLOAD SWAP1 POP PUSH2 0x2CD7 DUP2 PUSH2 0x24F2 JUMP JUMPDEST SWAP3 SWAP2 POP POP JUMP JUMPDEST PUSH1 0x0 DUP1 REVERT JUMPDEST PUSH1 0x0 DUP1 REVERT JUMPDEST PUSH1 0x0 PUSH8 0xFFFFFFFFFFFFFFFF DUP3 GT ISZERO PUSH2 0x2D02 JUMPI PUSH2 0x2D01 PUSH2 0x2C33 JUMP JUMPDEST JUMPDEST PUSH2 0x2D0B DUP3 PUSH2 0x2C22 JUMP JUMPDEST SWAP1 POP PUSH1 0x20 DUP2 ADD SWAP1 POP SWAP2 SWAP1 POP JUMP JUMPDEST PUSH1 0x0 JUMPDEST DUP4 DUP2 LT ISZERO PUSH2 0x2D36 JUMPI DUP1 DUP3 ADD MLOAD DUP2 DUP5 ADD MSTORE PUSH1 0x20 DUP2 ADD SWAP1 POP PUSH2 0x2D1B JUMP JUMPDEST DUP4 DUP2 GT ISZERO PUSH2 0x2D45 JUMPI PUSH1 0x0 DUP5 DUP5 ADD MSTORE JUMPDEST POP POP POP POP JUMP JUMPDEST PUSH1 0x0 PUSH2 0x2D5E PUSH2 0x2D59 DUP5 PUSH2 0x2CE7 JUMP JUMPDEST PUSH2 0x2C93 JUMP JUMPDEST SWAP1 POP DUP3 DUP2 MSTORE PUSH1 0x20 DUP2 ADD DUP5 DUP5 DUP5 ADD GT ISZERO PUSH2 0x2D7A JUMPI PUSH2 0x2D79 PUSH2 0x2CE2 JUMP JUMPDEST JUMPDEST PUSH2 0x2D85 DUP5 DUP3 DUP6 PUSH2 0x2D18 JUMP JUMPDEST POP SWAP4 SWAP3 POP POP POP JUMP JUMPDEST PUSH1 0x0 DUP3 PUSH1 0x1F DUP4 ADD SLT PUSH2 0x2DA2 JUMPI PUSH2 0x2DA1 PUSH2 0x2CDD JUMP JUMPDEST JUMPDEST DUP2 MLOAD PUSH2 0x2DB2 DUP5 DUP3 PUSH1 0x20 DUP7 ADD PUSH2 0x2D4B JUMP JUMPDEST SWAP2 POP POP SWAP3 SWAP2 POP POP JUMP JUMPDEST PUSH2 0x2DC4 DUP2 PUSH2 0x254B JUMP JUMPDEST DUP2 EQ PUSH2 0x2DCF JUMPI PUSH1 0x0 DUP1 REVERT JUMPDEST POP JUMP JUMPDEST PUSH1 0x0 DUP2 MLOAD SWAP1 POP PUSH2 0x2DE1 DUP2 PUSH2 0x2DBB JUMP JUMPDEST SWAP3 SWAP2 POP POP JUMP JUMPDEST PUSH1 0x0 PUSH1 0xA0 DUP3 DUP5 SUB SLT ISZERO PUSH2 0x2DFD JUMPI PUSH2 0x2DFC PUSH2 0x2C1D JUMP JUMPDEST JUMPDEST PUSH2 0x2E07 PUSH1 0xA0 PUSH2 0x2C93 JUMP JUMPDEST SWAP1 POP PUSH1 0x0 PUSH2 0x2E17 DUP5 DUP3 DUP6 ADD PUSH2 0x2CB3 JUMP JUMPDEST PUSH1 0x0 DUP4 ADD MSTORE POP PUSH1 0x20 PUSH2 0x2E2B DUP5 DUP3 DUP6 ADD PUSH2 0x2CC8 JUMP JUMPDEST PUSH1 0x20 DUP4 ADD MSTORE POP PUSH1 0x40 DUP3 ADD MLOAD PUSH8 0xFFFFFFFFFFFFFFFF DUP2 GT ISZERO PUSH2 0x2E4F JUMPI PUSH2 0x2E4E PUSH2 0x2CAE JUMP JUMPDEST JUMPDEST PUSH2 0x2E5B DUP5 DUP3 DUP6 ADD PUSH2 0x2D8D JUMP JUMPDEST PUSH1 0x40 DUP4 ADD MSTORE POP PUSH1 0x60 DUP3 ADD MLOAD PUSH8 0xFFFFFFFFFFFFFFFF DUP2 GT ISZERO PUSH2 0x2E7F JUMPI PUSH2 0x2E7E PUSH2 0x2CAE JUMP JUMPDEST JUMPDEST PUSH2 0x2E8B DUP5 DUP3 DUP6 ADD PUSH2 0x2D8D JUMP JUMPDEST PUSH1 0x60 DUP4 ADD MSTORE POP PUSH1 0x80 PUSH2 0x2E9F DUP5 DUP3 DUP6 ADD PUSH2 0x2DD2 JUMP JUMPDEST PUSH1 0x80 DUP4 ADD MSTORE POP SWAP3 SWAP2 POP POP JUMP JUMPDEST PUSH1 0x0 PUSH1 0x20 DUP3 DUP5 SUB SLT ISZERO PUSH2 0x2EC1 JUMPI PUSH2 0x2EC0 PUSH2 0x248F JUMP JUMPDEST JUMPDEST PUSH1 0x0 DUP3 ADD MLOAD PUSH8 0xFFFFFFFFFFFFFFFF DUP2 GT ISZERO PUSH2 0x2EDF JUMPI PUSH2 0x2EDE PUSH2 0x2494 JUMP JUMPDEST JUMPDEST PUSH2 0x2EEB DUP5 DUP3 DUP6 ADD PUSH2 0x2DE7 JUMP JUMPDEST SWAP2 POP POP SWAP3 SWAP2 POP POP JUMP JUMPDEST PUSH32 0x5265656E7472616E637947756172643A207265656E7472616E742063616C6C00 PUSH1 0x0 DUP3 ADD MSTORE POP JUMP JUMPDEST PUSH1 0x0 PUSH2 0x2F2A PUSH1 0x1F DUP4 PUSH2 0x2975 JUMP JUMPDEST SWAP2 POP PUSH2 0x2F35 DUP3 PUSH2 0x2EF4 JUMP JUMPDEST PUSH1 0x20 DUP3 ADD SWAP1 POP SWAP2 SWAP1 POP JUMP JUMPDEST PUSH1 0x0 PUSH1 0x20 DUP3 ADD SWAP1 POP DUP2 DUP2 SUB PUSH1 0x0 DUP4 ADD MSTORE PUSH2 0x2F59 DUP2 PUSH2 0x2F1D JUMP JUMPDEST SWAP1 POP SWAP2 SWAP1 POP JUMP JUMPDEST PUSH32 0x5072696365206D757374206265206174206C6561737420312077656900000000 PUSH1 0x0 DUP3 ADD MSTORE POP JUMP JUMPDEST PUSH1 0x0 PUSH2 0x2F96 PUSH1 0x1C DUP4 PUSH2 0x2975 JUMP JUMPDEST SWAP2 POP PUSH2 0x2FA1 DUP3 PUSH2 0x2F60 JUMP JUMPDEST PUSH1 0x20 DUP3 ADD SWAP1 POP SWAP2 SWAP1 POP JUMP JUMPDEST PUSH1 0x0 PUSH1 0x20 DUP3 ADD SWAP1 POP DUP2 DUP2 SUB PUSH1 0x0 DUP4 ADD MSTORE PUSH2 0x2FC5 DUP2 PUSH2 0x2F89 JUMP JUMPDEST SWAP1 POP SWAP2 SWAP1 POP JUMP JUMPDEST PUSH32 0x4974656D206973206E6F7420617661696C61626C65206E6F7720210000000000 PUSH1 0x0 DUP3 ADD MSTORE POP JUMP JUMPDEST PUSH1 0x0 PUSH2 0x3002 PUSH1 0x1B DUP4 PUSH2 0x2975 JUMP JUMPDEST SWAP2 POP PUSH2 0x300D DUP3 PUSH2 0x2FCC JUMP JUMPDEST PUSH1 0x20 DUP3 ADD SWAP1 POP SWAP2 SWAP1 POP JUMP JUMPDEST PUSH1 0x0 PUSH1 0x20 DUP3 ADD SWAP1 POP DUP2 DUP2 SUB PUSH1 0x0 DUP4 ADD MSTORE PUSH2 0x3031 DUP2 PUSH2 0x2FF5 JUMP JUMPDEST SWAP1 POP SWAP2 SWAP1 POP JUMP JUMPDEST PUSH32 0x4E487B7100000000000000000000000000000000000000000000000000000000 PUSH1 0x0 MSTORE PUSH1 0x11 PUSH1 0x4 MSTORE PUSH1 0x24 PUSH1 0x0 REVERT JUMPDEST PUSH1 0x0 PUSH2 0x3072 DUP3 PUSH2 0x231E JUMP JUMPDEST SWAP2 POP PUSH2 0x307D DUP4 PUSH2 0x231E JUMP JUMPDEST SWAP3 POP DUP3 PUSH32 0xFFFFFFFFFFFFFFFFFFFFFFFFFFFFFFFFFFFFFFFFFFFFFFFFFFFFFFFFFFFFFFFF SUB DUP3 GT ISZERO PUSH2 0x30B2 JUMPI PUSH2 0x30B1 PUSH2 0x3038 JUMP JUMPDEST JUMPDEST DUP3 DUP3 ADD SWAP1 POP SWAP3 SWAP2 POP POP JUMP JUMPDEST PUSH1 0x0 PUSH2 0x30C8 DUP3 PUSH2 0x231E JUMP JUMPDEST SWAP2 POP PUSH32 0xFFFFFFFFFFFFFFFFFFFFFFFFFFFFFFFFFFFFFFFFFFFFFFFFFFFFFFFFFFFFFFFF DUP3 SUB PUSH2 0x30FA JUMPI PUSH2 0x30F9 PUSH2 0x3038 JUMP JUMPDEST JUMPDEST PUSH1 0x1 DUP3 ADD SWAP1 POP SWAP2 SWAP1 POP JUMP JUMPDEST PUSH32 0x4E487B7100000000000000000000000000000000000000000000000000000000 PUSH1 0x0 MSTORE PUSH1 0x32 PUSH1 0x4 MSTORE PUSH1 0x24 PUSH1 0x0 REVERT JUMPDEST PUSH32 0x506C65617365207375626D6974207468652061736B696E672070726963652069 PUSH1 0x0 DUP3 ADD MSTORE PUSH32 0x6E206F7264657220746F20636F6D706C65746520746865207075726368617365 PUSH1 0x20 DUP3 ADD MSTORE POP JUMP JUMPDEST PUSH1 0x0 PUSH2 0x3190 PUSH1 0x40 DUP4 PUSH2 0x2975 JUMP JUMPDEST SWAP2 POP PUSH2 0x319B DUP3 PUSH2 0x3134 JUMP JUMPDEST PUSH1 0x40 DUP3 ADD SWAP1 POP SWAP2 SWAP1 POP JUMP JUMPDEST PUSH1 0x0 PUSH1 0x20 DUP3 ADD SWAP1 POP DUP2 DUP2 SUB PUSH1 0x0 DUP4 ADD MSTORE PUSH2 0x31BF DUP2 PUSH2 0x3183 JUMP JUMPDEST SWAP1 POP SWAP2 SWAP1 POP JUMP JUMPDEST PUSH1 0x0 PUSH1 0x20 DUP3 DUP5 SUB SLT ISZERO PUSH2 0x31DC JUMPI PUSH2 0x31DB PUSH2 0x248F JUMP JUMPDEST JUMPDEST PUSH1 0x0 PUSH2 0x31EA DUP5 DUP3 DUP6 ADD PUSH2 0x2DD2 JUMP JUMPDEST SWAP2 POP POP SWAP3 SWAP2 POP POP JUMP JUMPDEST PUSH32 0x5351460000000000000000000000000000000000000000000000000000000000 PUSH1 0x0 DUP3 ADD MSTORE POP JUMP JUMPDEST PUSH1 0x0 PUSH2 0x3229 PUSH1 0x3 DUP4 PUSH2 0x2975 JUMP JUMPDEST SWAP2 POP PUSH2 0x3234 DUP3 PUSH2 0x31F3 JUMP JUMPDEST PUSH1 0x20 DUP3 ADD SWAP1 POP SWAP2 SWAP1 POP JUMP JUMPDEST PUSH1 0x0 PUSH1 0x80 DUP3 ADD SWAP1 POP PUSH2 0x3254 PUSH1 0x0 DUP4 ADD DUP7 PUSH2 0x2691 JUMP JUMPDEST PUSH2 0x3261 PUSH1 0x20 DUP4 ADD DUP6 PUSH2 0x2691 JUMP JUMPDEST DUP2 DUP2 SUB PUSH1 0x40 DUP4 ADD MSTORE PUSH2 0x3272 DUP2 PUSH2 0x321C JUMP JUMPDEST SWAP1 POP PUSH2 0x3281 PUSH1 0x60 DUP4 ADD DUP5 PUSH2 0x2691 JUMP JUMPDEST SWAP5 SWAP4 POP POP POP POP JUMP JUMPDEST PUSH32 0x4F776E61626C653A206E6577206F776E657220697320746865207A65726F2061 PUSH1 0x0 DUP3 ADD MSTORE PUSH32 0x6464726573730000000000000000000000000000000000000000000000000000 PUSH1 0x20 DUP3 ADD MSTORE POP JUMP JUMPDEST PUSH1 0x0 PUSH2 0x32E5 PUSH1 0x26 DUP4 PUSH2 0x2975 JUMP JUMPDEST SWAP2 POP PUSH2 0x32F0 DUP3 PUSH2 0x3289 JUMP JUMPDEST PUSH1 0x40 DUP3 ADD SWAP1 POP SWAP2 SWAP1 POP JUMP JUMPDEST PUSH1 0x0 PUSH1 0x20 DUP3 ADD SWAP1 POP DUP2 DUP2 SUB PUSH1 0x0 DUP4 ADD MSTORE PUSH2 0x3314 DUP2 PUSH2 0x32D8 JUMP JUMPDEST SWAP1 POP SWAP2 SWAP1 POP JUMP INVALID LOG2 PUSH5 0x6970667358 0x22 SLT KECCAK256 SGT 0xC2 0xDB 0xC1 0x29 0xCB MSTORE8 0xDC EXTCODECOPY 0xFB SMOD 0xDC 0xCA CALLCODE 0xA6 0xB6 BALANCE SWAP9 0x49 DUP15 0x5F PUSH12 0x54B9D42E63F0910E6E656473 PUSH16 0x6C634300080D00330000000000000000 "
				},
				"gasEstimates": {
					"creation": {
						"codeDepositCost": "2627400",
						"executionCost": "infinite",
						"totalCost": "infinite"
					},
					"external": {
						"ERC721_Interface()": "364",
						"allItems(uint256)": "infinite",
						"allMarketItems()": "infinite",
						"antaFeePercent()": "2654",
						"bnbFeePercent()": "2588",
						"createMarketItem(uint256,uint256)": "infinite",
						"createMarketSale(uint256,uint256)": "infinite",
						"delistItem(uint256)": "infinite",
						"factory()": "infinite",
						"fetchMarketItem(uint256)": "infinite",
						"fetchMarketItems()": "infinite",
						"fetchMySelling()": "infinite",
						"getAlalalalala(uint256)": "infinite",
						"getMarketItem(uint256)": "infinite",
						"items(address,uint256)": "infinite",
						"mainNFTs()": "infinite",
						"mainToken()": "infinite",
						"owner()": "2611",
						"renounceOwnership()": "30419",
						"setFactory(address)": "27073",
						"setMainNFT(address)": "27030",
						"setMainToken(address)": "27074",
						"testView(uint256)": "infinite",
						"transferOwnership(address)": "30808"
					},
					"internal": {
						"_requireERC721(address)": "infinite",
						"isContract(address)": "infinite"
					}
				},
				"methodIdentifiers": {
					"ERC721_Interface()": "2b4c32be",
					"allItems(uint256)": "ff68fa6e",
					"allMarketItems()": "517bd451",
					"antaFeePercent()": "b7a60c7e",
					"bnbFeePercent()": "85a8b36c",
					"createMarketItem(uint256,uint256)": "361c1995",
					"createMarketSale(uint256,uint256)": "a1c11ca8",
					"delistItem(uint256)": "10061631",
					"factory()": "c45a0155",
					"fetchMarketItem(uint256)": "2a45b250",
					"fetchMarketItems()": "0f08efe0",
					"fetchMySelling()": "673cf668",
					"getAlalalalala(uint256)": "16e7031a",
					"getMarketItem(uint256)": "c7be7a49",
					"items(address,uint256)": "5c80a435",
					"mainNFTs()": "f55de0c7",
					"mainToken()": "3fc15f15",
					"owner()": "8da5cb5b",
					"renounceOwnership()": "715018a6",
					"setFactory(address)": "5bb47808",
					"setMainNFT(address)": "15b12494",
					"setMainToken(address)": "27ce464e",
					"testView(uint256)": "e0606dd8",
					"transferOwnership(address)": "f2fde38b"
				}
			},
			"storageLayout": {
				"storage": [
					{
						"astId": 409,
						"contract": "contracts/Marketplace2/Marketplace.sol:NFTMarket",
						"label": "_status",
						"offset": 0,
						"slot": "0",
						"type": "t_uint256"
					},
					{
						"astId": 498,
						"contract": "contracts/Marketplace2/Marketplace.sol:NFTMarket",
						"label": "allMarketItems",
						"offset": 0,
						"slot": "1",
						"type": "t_struct(MarketItem)495_storage"
					},
					{
						"astId": 509,
						"contract": "contracts/Marketplace2/Marketplace.sol:NFTMarket",
						"label": "allItems",
						"offset": 0,
						"slot": "7",
						"type": "t_mapping(t_uint256,t_struct(MarketItem)495_storage)"
					},
					{
						"astId": 516,
						"contract": "contracts/Marketplace2/Marketplace.sol:NFTMarket",
						"label": "items",
						"offset": 0,
						"slot": "8",
						"type": "t_mapping(t_address,t_mapping(t_uint256,t_struct(MarketItem)495_storage))"
					},
					{
						"astId": 519,
						"contract": "contracts/Marketplace2/Marketplace.sol:NFTMarket",
						"label": "mainToken",
						"offset": 0,
						"slot": "9",
						"type": "t_contract(IERC20)201"
					},
					{
						"astId": 522,
						"contract": "contracts/Marketplace2/Marketplace.sol:NFTMarket",
						"label": "factory",
						"offset": 0,
						"slot": "10",
						"type": "t_contract(IFactory)477"
					},
					{
						"astId": 525,
						"contract": "contracts/Marketplace2/Marketplace.sol:NFTMarket",
						"label": "mainNFTs",
						"offset": 0,
						"slot": "11",
						"type": "t_contract(IERC721)326"
					},
					{
						"astId": 527,
						"contract": "contracts/Marketplace2/Marketplace.sol:NFTMarket",
						"label": "bnbFeePercent",
						"offset": 20,
						"slot": "11",
						"type": "t_uint8"
					},
					{
						"astId": 529,
						"contract": "contracts/Marketplace2/Marketplace.sol:NFTMarket",
						"label": "antaFeePercent",
						"offset": 21,
						"slot": "11",
						"type": "t_uint8"
					},
					{
						"astId": 27,
						"contract": "contracts/Marketplace2/Marketplace.sol:NFTMarket",
						"label": "_owner",
						"offset": 0,
						"slot": "12",
						"type": "t_address"
					},
					{
						"astId": 597,
						"contract": "contracts/Marketplace2/Marketplace.sol:NFTMarket",
						"label": "_itemIds",
						"offset": 0,
						"slot": "13",
						"type": "t_struct(Counter)331_storage"
					},
					{
						"astId": 600,
						"contract": "contracts/Marketplace2/Marketplace.sol:NFTMarket",
						"label": "_itemsSold",
						"offset": 0,
						"slot": "14",
						"type": "t_struct(Counter)331_storage"
					},
					{
						"astId": 605,
						"contract": "contracts/Marketplace2/Marketplace.sol:NFTMarket",
						"label": "idToMarketItem",
						"offset": 0,
						"slot": "15",
						"type": "t_mapping(t_uint256,t_struct(MarketItem)495_storage)"
					}
				],
				"types": {
					"t_address": {
						"encoding": "inplace",
						"label": "address",
						"numberOfBytes": "20"
					},
					"t_contract(IERC20)201": {
						"encoding": "inplace",
						"label": "contract IERC20",
						"numberOfBytes": "20"
					},
					"t_contract(IERC721)326": {
						"encoding": "inplace",
						"label": "contract IERC721",
						"numberOfBytes": "20"
					},
					"t_contract(IFactory)477": {
						"encoding": "inplace",
						"label": "contract IFactory",
						"numberOfBytes": "20"
					},
					"t_enum(ItemStatus)481": {
						"encoding": "inplace",
						"label": "enum MarketplaceStorage.ItemStatus",
						"numberOfBytes": "1"
					},
					"t_mapping(t_address,t_mapping(t_uint256,t_struct(MarketItem)495_storage))": {
						"encoding": "mapping",
						"key": "t_address",
						"label": "mapping(address => mapping(uint256 => struct MarketplaceStorage.MarketItem))",
						"numberOfBytes": "32",
						"value": "t_mapping(t_uint256,t_struct(MarketItem)495_storage)"
					},
					"t_mapping(t_uint256,t_struct(MarketItem)495_storage)": {
						"encoding": "mapping",
						"key": "t_uint256",
						"label": "mapping(uint256 => struct MarketplaceStorage.MarketItem)",
						"numberOfBytes": "32",
						"value": "t_struct(MarketItem)495_storage"
					},
					"t_struct(Counter)331_storage": {
						"encoding": "inplace",
						"label": "struct Counters.Counter",
						"members": [
							{
								"astId": 330,
								"contract": "contracts/Marketplace2/Marketplace.sol:NFTMarket",
								"label": "_value",
								"offset": 0,
								"slot": "0",
								"type": "t_uint256"
							}
						],
						"numberOfBytes": "32"
					},
					"t_struct(MarketItem)495_storage": {
						"encoding": "inplace",
						"label": "struct MarketplaceStorage.MarketItem",
						"members": [
							{
								"astId": 483,
								"contract": "contracts/Marketplace2/Marketplace.sol:NFTMarket",
								"label": "itemId",
								"offset": 0,
								"slot": "0",
								"type": "t_uint256"
							},
							{
								"astId": 485,
								"contract": "contracts/Marketplace2/Marketplace.sol:NFTMarket",
								"label": "tokenId",
								"offset": 0,
								"slot": "1",
								"type": "t_uint256"
							},
							{
								"astId": 487,
								"contract": "contracts/Marketplace2/Marketplace.sol:NFTMarket",
								"label": "seller",
								"offset": 0,
								"slot": "2",
								"type": "t_address"
							},
							{
								"astId": 489,
								"contract": "contracts/Marketplace2/Marketplace.sol:NFTMarket",
								"label": "owner",
								"offset": 0,
								"slot": "3",
								"type": "t_address"
							},
							{
								"astId": 491,
								"contract": "contracts/Marketplace2/Marketplace.sol:NFTMarket",
								"label": "price",
								"offset": 0,
								"slot": "4",
								"type": "t_uint256"
							},
							{
								"astId": 494,
								"contract": "contracts/Marketplace2/Marketplace.sol:NFTMarket",
								"label": "status",
								"offset": 0,
								"slot": "5",
								"type": "t_enum(ItemStatus)481"
							}
						],
						"numberOfBytes": "192"
					},
					"t_uint256": {
						"encoding": "inplace",
						"label": "uint256",
						"numberOfBytes": "32"
					},
					"t_uint8": {
						"encoding": "inplace",
						"label": "uint8",
						"numberOfBytes": "1"
					}
				}
			},
			"userdoc": {
				"kind": "user",
				"methods": {},
				"version": 1
			}
		}
	}
}