{
	"contracts/Marketplace2/Marketplace.sol": {
		"NFTMarket": {
			"abi": [
				{
					"anonymous": false,
					"inputs": [
						{
							"indexed": true,
							"internalType": "uint256",
							"name": "itemId",
							"type": "uint256"
						},
						{
							"indexed": true,
							"internalType": "address",
							"name": "nftContract",
							"type": "address"
						},
						{
							"indexed": true,
							"internalType": "uint256",
							"name": "tokenId",
							"type": "uint256"
						},
						{
							"indexed": false,
							"internalType": "address",
							"name": "seller",
							"type": "address"
						},
						{
							"indexed": false,
							"internalType": "address",
							"name": "owner",
							"type": "address"
						},
						{
							"indexed": false,
							"internalType": "uint256",
							"name": "price",
							"type": "uint256"
						}
					],
					"name": "MarketItemCreated",
					"type": "event"
				},
				{
					"inputs": [
						{
							"internalType": "address",
							"name": "nftContract",
							"type": "address"
						},
						{
							"internalType": "uint256",
							"name": "tokenId",
							"type": "uint256"
						},
						{
							"internalType": "uint256",
							"name": "price",
							"type": "uint256"
						}
					],
					"name": "createMarketItem",
					"outputs": [],
					"stateMutability": "payable",
					"type": "function"
				},
				{
					"inputs": [
						{
							"internalType": "address",
							"name": "nftContract",
							"type": "address"
						},
						{
							"internalType": "uint256",
							"name": "itemId",
							"type": "uint256"
						}
					],
					"name": "createMarketSale",
					"outputs": [],
					"stateMutability": "payable",
					"type": "function"
				},
				{
					"inputs": [
						{
							"internalType": "uint256",
							"name": "itemId",
							"type": "uint256"
						}
					],
					"name": "fetchMarketItem",
					"outputs": [
						{
							"components": [
								{
									"internalType": "uint256",
									"name": "itemId",
									"type": "uint256"
								},
								{
									"internalType": "address",
									"name": "nftContract",
									"type": "address"
								},
								{
									"internalType": "uint256",
									"name": "tokenId",
									"type": "uint256"
								},
								{
									"internalType": "address payable",
									"name": "seller",
									"type": "address"
								},
								{
									"internalType": "address payable",
									"name": "owner",
									"type": "address"
								},
								{
									"internalType": "uint256",
									"name": "price",
									"type": "uint256"
								}
							],
							"internalType": "struct NFTMarket.MarketItem",
							"name": "",
							"type": "tuple"
						}
					],
					"stateMutability": "view",
					"type": "function"
				},
				{
					"inputs": [],
					"name": "fetchMarketItems",
					"outputs": [
						{
							"components": [
								{
									"internalType": "uint256",
									"name": "itemId",
									"type": "uint256"
								},
								{
									"internalType": "address",
									"name": "nftContract",
									"type": "address"
								},
								{
									"internalType": "uint256",
									"name": "tokenId",
									"type": "uint256"
								},
								{
									"internalType": "address payable",
									"name": "seller",
									"type": "address"
								},
								{
									"internalType": "address payable",
									"name": "owner",
									"type": "address"
								},
								{
									"internalType": "uint256",
									"name": "price",
									"type": "uint256"
								}
							],
							"internalType": "struct NFTMarket.MarketItem[]",
							"name": "",
							"type": "tuple[]"
						}
					],
					"stateMutability": "view",
					"type": "function"
				},
				{
					"inputs": [],
					"name": "fetchMyNFTs",
					"outputs": [
						{
							"components": [
								{
									"internalType": "uint256",
									"name": "itemId",
									"type": "uint256"
								},
								{
									"internalType": "address",
									"name": "nftContract",
									"type": "address"
								},
								{
									"internalType": "uint256",
									"name": "tokenId",
									"type": "uint256"
								},
								{
									"internalType": "address payable",
									"name": "seller",
									"type": "address"
								},
								{
									"internalType": "address payable",
									"name": "owner",
									"type": "address"
								},
								{
									"internalType": "uint256",
									"name": "price",
									"type": "uint256"
								}
							],
							"internalType": "struct NFTMarket.MarketItem[]",
							"name": "",
							"type": "tuple[]"
						}
					],
					"stateMutability": "view",
					"type": "function"
				},
				{
					"inputs": [
						{
							"internalType": "uint256",
							"name": "marketItemId",
							"type": "uint256"
						}
					],
					"name": "getMarketItem",
					"outputs": [
						{
							"components": [
								{
									"internalType": "uint256",
									"name": "itemId",
									"type": "uint256"
								},
								{
									"internalType": "address",
									"name": "nftContract",
									"type": "address"
								},
								{
									"internalType": "uint256",
									"name": "tokenId",
									"type": "uint256"
								},
								{
									"internalType": "address payable",
									"name": "seller",
									"type": "address"
								},
								{
									"internalType": "address payable",
									"name": "owner",
									"type": "address"
								},
								{
									"internalType": "uint256",
									"name": "price",
									"type": "uint256"
								}
							],
							"internalType": "struct NFTMarket.MarketItem",
							"name": "",
							"type": "tuple"
						}
					],
					"stateMutability": "view",
					"type": "function"
				}
			],
			"devdoc": {
				"kind": "dev",
				"methods": {},
				"version": 1
			},
			"evm": {
				"assembly": "    /* \"contracts/Marketplace2/Marketplace.sol\":9320:12645  contract NFTMarket is ReentrancyGuard {... */\n  mstore(0x40, 0x80)\n  callvalue\n  dup1\n  iszero\n  tag_1\n  jumpi\n  0x00\n  dup1\n  revert\ntag_1:\n  pop\n    /* \"contracts/Marketplace2/Marketplace.sol\":8360:8361  1 */\n  0x01\n    /* \"contracts/Marketplace2/Marketplace.sol\":8465:8472  _status */\n  0x00\n    /* \"contracts/Marketplace2/Marketplace.sol\":8465:8487  _status = _NOT_ENTERED */\n  sstore\n    /* \"contracts/Marketplace2/Marketplace.sol\":9320:12645  contract NFTMarket is ReentrancyGuard {... */\n  dataSize(sub_0)\n  dup1\n  dataOffset(sub_0)\n  0x00\n  codecopy\n  0x00\n  return\nstop\n\nsub_0: assembly {\n        /* \"contracts/Marketplace2/Marketplace.sol\":9320:12645  contract NFTMarket is ReentrancyGuard {... */\n      mstore(0x40, 0x80)\n      jumpi(tag_1, lt(calldatasize, 0x04))\n      shr(0xe0, calldataload(0x00))\n      dup1\n      0x0f08efe0\n      eq\n      tag_2\n      jumpi\n      dup1\n      0x202e3740\n      eq\n      tag_3\n      jumpi\n      dup1\n      0x2a45b250\n      eq\n      tag_4\n      jumpi\n      dup1\n      0x58eb2df5\n      eq\n      tag_5\n      jumpi\n      dup1\n      0xc23b139e\n      eq\n      tag_6\n      jumpi\n      dup1\n      0xc7be7a49\n      eq\n      tag_4\n      jumpi\n    tag_1:\n      0x00\n      dup1\n      revert\n        /* \"contracts/Marketplace2/Marketplace.sol\":11328:11936  function fetchMarketItems() public view returns (MarketItem[] memory) {... */\n    tag_2:\n      callvalue\n      dup1\n      iszero\n      tag_8\n      jumpi\n      0x00\n      dup1\n      revert\n    tag_8:\n      pop\n      tag_9\n      tag_10\n      jump\t// in\n    tag_9:\n      mload(0x40)\n      tag_11\n      swap2\n      swap1\n      tag_12\n      jump\t// in\n    tag_11:\n      mload(0x40)\n      dup1\n      swap2\n      sub\n      swap1\n      return\n        /* \"contracts/Marketplace2/Marketplace.sol\":11940:12643  function fetchMyNFTs() public view returns (MarketItem[] memory) {... */\n    tag_3:\n      callvalue\n      dup1\n      iszero\n      tag_13\n      jumpi\n      0x00\n      dup1\n      revert\n    tag_13:\n      pop\n      tag_9\n      tag_15\n      jump\t// in\n        /* \"contracts/Marketplace2/Marketplace.sol\":11171:11324  function fetchMarketItem(uint itemId) public view returns (MarketItem memory) {... */\n    tag_4:\n      callvalue\n      dup1\n      iszero\n      tag_17\n      jumpi\n      0x00\n      dup1\n      revert\n    tag_17:\n      pop\n      tag_18\n      tag_19\n      calldatasize\n      0x04\n      tag_20\n      jump\t// in\n    tag_19:\n      tag_21\n      jump\t// in\n    tag_18:\n      mload(0x40)\n      tag_11\n      swap2\n      swap1\n      tag_23\n      jump\t// in\n        /* \"contracts/Marketplace2/Marketplace.sol\":10013:10639  function createMarketItem(... */\n    tag_5:\n      tag_24\n      tag_25\n      calldatasize\n      0x04\n      tag_26\n      jump\t// in\n    tag_25:\n      tag_27\n      jump\t// in\n    tag_24:\n      stop\n        /* \"contracts/Marketplace2/Marketplace.sol\":10643:11167  function createMarketSale(... */\n    tag_6:\n      tag_24\n      tag_29\n      calldatasize\n      0x04\n      tag_30\n      jump\t// in\n    tag_29:\n      tag_31\n      jump\t// in\n        /* \"contracts/Marketplace2/Marketplace.sol\":11328:11936  function fetchMarketItems() public view returns (MarketItem[] memory) {... */\n    tag_10:\n        /* \"contracts/Marketplace2/Marketplace.sol\":11377:11396  MarketItem[] memory */\n      0x60\n        /* \"contracts/Marketplace2/Marketplace.sol\":11404:11418  uint itemCount */\n      0x00\n        /* \"contracts/Marketplace2/Marketplace.sol\":11421:11439  _itemIds.current() */\n      tag_38\n        /* \"contracts/Marketplace2/Marketplace.sol\":11421:11429  _itemIds */\n      0x01\n        /* \"contracts/Marketplace2/Marketplace.sol\":6180:6194  counter._value */\n      sload\n      swap1\n        /* \"contracts/Marketplace2/Marketplace.sol\":6089:6201  function current(Counter storage counter) internal view returns (uint256) {... */\n      jump\n        /* \"contracts/Marketplace2/Marketplace.sol\":11421:11439  _itemIds.current() */\n    tag_38:\n        /* \"contracts/Marketplace2/Marketplace.sol\":11404:11439  uint itemCount = _itemIds.current() */\n      swap1\n      pop\n        /* \"contracts/Marketplace2/Marketplace.sol\":11445:11465  uint unsoldItemCount */\n      0x00\n        /* \"contracts/Marketplace2/Marketplace.sol\":11489:11509  _itemsSold.current() */\n      tag_40\n        /* \"contracts/Marketplace2/Marketplace.sol\":11489:11499  _itemsSold */\n      0x02\n        /* \"contracts/Marketplace2/Marketplace.sol\":6180:6194  counter._value */\n      sload\n      swap1\n        /* \"contracts/Marketplace2/Marketplace.sol\":6089:6201  function current(Counter storage counter) internal view returns (uint256) {... */\n      jump\n        /* \"contracts/Marketplace2/Marketplace.sol\":11489:11509  _itemsSold.current() */\n    tag_40:\n        /* \"contracts/Marketplace2/Marketplace.sol\":11468:11476  _itemIds */\n      0x01\n        /* \"contracts/Marketplace2/Marketplace.sol\":6180:6194  counter._value */\n      sload\n        /* \"contracts/Marketplace2/Marketplace.sol\":11468:11509  _itemIds.current() - _itemsSold.current() */\n      tag_42\n      swap2\n      swap1\n      tag_43\n      jump\t// in\n    tag_42:\n        /* \"contracts/Marketplace2/Marketplace.sol\":11445:11509  uint unsoldItemCount = _itemIds.current() - _itemsSold.current() */\n      swap1\n      pop\n        /* \"contracts/Marketplace2/Marketplace.sol\":11515:11532  uint currentIndex */\n      0x00\n        /* \"contracts/Marketplace2/Marketplace.sol\":11543:11568  MarketItem[] memory items */\n      dup1\n        /* \"contracts/Marketplace2/Marketplace.sol\":11588:11603  unsoldItemCount */\n      dup3\n        /* \"contracts/Marketplace2/Marketplace.sol\":11571:11604  new MarketItem[](unsoldItemCount) */\n      0xffffffffffffffff\n      dup2\n      gt\n      iszero\n      tag_45\n      jumpi\n      tag_45\n      tag_46\n      jump\t// in\n    tag_45:\n      mload(0x40)\n      swap1\n      dup1\n      dup3\n      mstore\n      dup1\n      0x20\n      mul\n      0x20\n      add\n      dup3\n      add\n      0x40\n      mstore\n      dup1\n      iszero\n      tag_47\n      jumpi\n      dup2\n      0x20\n      add\n    tag_48:\n      tag_49\n      tag_50\n      jump\t// in\n    tag_49:\n      dup2\n      mstore\n      0x20\n      add\n      swap1\n      0x01\n      swap1\n      sub\n      swap1\n      dup2\n      tag_48\n      jumpi\n      swap1\n      pop\n    tag_47:\n      pop\n        /* \"contracts/Marketplace2/Marketplace.sol\":11543:11604  MarketItem[] memory items = new MarketItem[](unsoldItemCount) */\n      swap1\n      pop\n        /* \"contracts/Marketplace2/Marketplace.sol\":11615:11621  uint i */\n      0x00\n        /* \"contracts/Marketplace2/Marketplace.sol\":11610:11910  for (uint i = 0; i < itemCount; i++) {... */\n    tag_51:\n        /* \"contracts/Marketplace2/Marketplace.sol\":11631:11640  itemCount */\n      dup5\n        /* \"contracts/Marketplace2/Marketplace.sol\":11627:11628  i */\n      dup2\n        /* \"contracts/Marketplace2/Marketplace.sol\":11627:11640  i < itemCount */\n      lt\n        /* \"contracts/Marketplace2/Marketplace.sol\":11610:11910  for (uint i = 0; i < itemCount; i++) {... */\n      iszero\n      tag_52\n      jumpi\n        /* \"contracts/Marketplace2/Marketplace.sol\":11698:11699  0 */\n      0x00\n        /* \"contracts/Marketplace2/Marketplace.sol\":11659:11673  idToMarketItem */\n      0x03\n        /* \"contracts/Marketplace2/Marketplace.sol\":11698:11699  0 */\n      dup2\n        /* \"contracts/Marketplace2/Marketplace.sol\":11674:11679  i + 1 */\n      tag_54\n        /* \"contracts/Marketplace2/Marketplace.sol\":11674:11675  i */\n      dup5\n        /* \"contracts/Marketplace2/Marketplace.sol\":11678:11679  1 */\n      0x01\n        /* \"contracts/Marketplace2/Marketplace.sol\":11674:11679  i + 1 */\n      tag_55\n      jump\t// in\n    tag_54:\n        /* \"contracts/Marketplace2/Marketplace.sol\":11659:11680  idToMarketItem[i + 1] */\n      dup2\n      mstore\n      0x20\n      dup2\n      add\n      swap2\n      swap1\n      swap2\n      mstore\n      0x40\n      add\n      0x00\n      keccak256\n        /* \"contracts/Marketplace2/Marketplace.sol\":11659:11686  idToMarketItem[i + 1].owner */\n      0x04\n      add\n      sload\n      sub(shl(0xa0, 0x01), 0x01)\n      and\n        /* \"contracts/Marketplace2/Marketplace.sol\":11659:11700  idToMarketItem[i + 1].owner == address(0) */\n      sub\n        /* \"contracts/Marketplace2/Marketplace.sol\":11655:11904  if (idToMarketItem[i + 1].owner == address(0)) {... */\n      tag_56\n      jumpi\n        /* \"contracts/Marketplace2/Marketplace.sol\":11712:11726  uint currentId */\n      0x00\n        /* \"contracts/Marketplace2/Marketplace.sol\":11729:11743  idToMarketItem */\n      0x03\n        /* \"contracts/Marketplace2/Marketplace.sol\":11712:11726  uint currentId */\n      dup2\n        /* \"contracts/Marketplace2/Marketplace.sol\":11744:11749  i + 1 */\n      tag_57\n        /* \"contracts/Marketplace2/Marketplace.sol\":11744:11745  i */\n      dup5\n        /* \"contracts/Marketplace2/Marketplace.sol\":11748:11749  1 */\n      0x01\n        /* \"contracts/Marketplace2/Marketplace.sol\":11744:11749  i + 1 */\n      tag_55\n      jump\t// in\n    tag_57:\n        /* \"contracts/Marketplace2/Marketplace.sol\":11729:11750  idToMarketItem[i + 1] */\n      dup2\n      mstore\n      0x20\n      dup1\n      dup3\n      add\n      swap3\n      swap1\n      swap3\n      mstore\n      0x40\n      swap1\n      dup2\n      add\n      0x00\n      swap1\n      dup2\n      keccak256\n        /* \"contracts/Marketplace2/Marketplace.sol\":11729:11757  idToMarketItem[i + 1].itemId */\n      sload\n        /* \"contracts/Marketplace2/Marketplace.sol\":11800:11825  idToMarketItem[currentId] */\n      dup1\n      dup3\n      mstore\n        /* \"contracts/Marketplace2/Marketplace.sol\":11800:11814  idToMarketItem */\n      0x03\n        /* \"contracts/Marketplace2/Marketplace.sol\":11800:11825  idToMarketItem[currentId] */\n      dup1\n      dup6\n      mstore\n      swap2\n      dup4\n      swap1\n      keccak256\n        /* \"contracts/Marketplace2/Marketplace.sol\":11835:11868  items[currentIndex] = currentItem */\n      dup4\n      mload\n      0xc0\n      dup2\n      add\n      dup6\n      mstore\n      dup2\n      sload\n      dup2\n      mstore\n      0x01\n      dup3\n      add\n      sload\n      sub(shl(0xa0, 0x01), 0x01)\n      swap1\n      dup2\n      and\n      swap7\n      dup3\n      add\n      swap7\n      swap1\n      swap7\n      mstore\n      0x02\n      dup3\n      add\n      sload\n      swap5\n      dup2\n      add\n      swap5\n      swap1\n      swap5\n      mstore\n      swap2\n      dup3\n      add\n      sload\n      dup5\n      and\n      0x60\n      dup5\n      add\n      mstore\n      0x04\n      dup3\n      add\n      sload\n      swap1\n      swap4\n      and\n      0x80\n      dup4\n      add\n      mstore\n      0x05\n      dup2\n      add\n      sload\n      0xa0\n      dup4\n      add\n      mstore\n        /* \"contracts/Marketplace2/Marketplace.sol\":11835:11854  items[currentIndex] */\n      dup6\n      mload\n        /* \"contracts/Marketplace2/Marketplace.sol\":11729:11757  idToMarketItem[i + 1].itemId */\n      swap3\n      swap4\n      pop\n        /* \"contracts/Marketplace2/Marketplace.sol\":11800:11825  idToMarketItem[currentId] */\n      swap2\n        /* \"contracts/Marketplace2/Marketplace.sol\":11835:11840  items */\n      dup6\n      swap1\n        /* \"contracts/Marketplace2/Marketplace.sol\":11841:11853  currentIndex */\n      dup8\n      swap1\n        /* \"contracts/Marketplace2/Marketplace.sol\":11835:11854  items[currentIndex] */\n      dup2\n      lt\n      tag_59\n      jumpi\n      tag_59\n      tag_60\n      jump\t// in\n    tag_59:\n      0x20\n      swap1\n      dup2\n      mul\n      swap2\n      swap1\n      swap2\n      add\n      add\n        /* \"contracts/Marketplace2/Marketplace.sol\":11835:11868  items[currentIndex] = currentItem */\n      mstore\n        /* \"contracts/Marketplace2/Marketplace.sol\":11878:11895  currentIndex += 1 */\n      tag_61\n        /* \"contracts/Marketplace2/Marketplace.sol\":11894:11895  1 */\n      0x01\n        /* \"contracts/Marketplace2/Marketplace.sol\":11878:11895  currentIndex += 1 */\n      dup7\n      tag_55\n      jump\t// in\n    tag_61:\n      swap5\n      pop\n        /* \"contracts/Marketplace2/Marketplace.sol\":11702:11904  {... */\n      pop\n      pop\n        /* \"contracts/Marketplace2/Marketplace.sol\":11655:11904  if (idToMarketItem[i + 1].owner == address(0)) {... */\n    tag_56:\n        /* \"contracts/Marketplace2/Marketplace.sol\":11642:11645  i++ */\n      dup1\n      tag_62\n      dup2\n      tag_63\n      jump\t// in\n    tag_62:\n      swap2\n      pop\n      pop\n        /* \"contracts/Marketplace2/Marketplace.sol\":11610:11910  for (uint i = 0; i < itemCount; i++) {... */\n      jump(tag_51)\n    tag_52:\n      pop\n        /* \"contracts/Marketplace2/Marketplace.sol\":11926:11931  items */\n      swap5\n        /* \"contracts/Marketplace2/Marketplace.sol\":11328:11936  function fetchMarketItems() public view returns (MarketItem[] memory) {... */\n      swap4\n      pop\n      pop\n      pop\n      pop\n      jump\t// out\n        /* \"contracts/Marketplace2/Marketplace.sol\":11940:12643  function fetchMyNFTs() public view returns (MarketItem[] memory) {... */\n    tag_15:\n        /* \"contracts/Marketplace2/Marketplace.sol\":11984:12003  MarketItem[] memory */\n      0x60\n        /* \"contracts/Marketplace2/Marketplace.sol\":12011:12030  uint totalItemCount */\n      0x00\n        /* \"contracts/Marketplace2/Marketplace.sol\":12033:12051  _itemIds.current() */\n      tag_65\n        /* \"contracts/Marketplace2/Marketplace.sol\":12033:12041  _itemIds */\n      0x01\n        /* \"contracts/Marketplace2/Marketplace.sol\":6180:6194  counter._value */\n      sload\n      swap1\n        /* \"contracts/Marketplace2/Marketplace.sol\":6089:6201  function current(Counter storage counter) internal view returns (uint256) {... */\n      jump\n        /* \"contracts/Marketplace2/Marketplace.sol\":12033:12051  _itemIds.current() */\n    tag_65:\n        /* \"contracts/Marketplace2/Marketplace.sol\":12011:12051  uint totalItemCount = _itemIds.current() */\n      swap1\n      pop\n        /* \"contracts/Marketplace2/Marketplace.sol\":12057:12071  uint itemCount */\n      0x00\n        /* \"contracts/Marketplace2/Marketplace.sol\":12081:12098  uint currentIndex */\n      dup1\n        /* \"contracts/Marketplace2/Marketplace.sol\":12114:12120  uint i */\n      0x00\n        /* \"contracts/Marketplace2/Marketplace.sol\":12109:12245  for (uint i = 0; i < totalItemCount; i++) {... */\n    tag_66:\n        /* \"contracts/Marketplace2/Marketplace.sol\":12130:12144  totalItemCount */\n      dup4\n        /* \"contracts/Marketplace2/Marketplace.sol\":12126:12127  i */\n      dup2\n        /* \"contracts/Marketplace2/Marketplace.sol\":12126:12144  i < totalItemCount */\n      lt\n        /* \"contracts/Marketplace2/Marketplace.sol\":12109:12245  for (uint i = 0; i < totalItemCount; i++) {... */\n      iszero\n      tag_67\n      jumpi\n        /* \"contracts/Marketplace2/Marketplace.sol\":12194:12204  msg.sender */\n      caller\n        /* \"contracts/Marketplace2/Marketplace.sol\":12163:12177  idToMarketItem */\n      0x03\n        /* \"contracts/Marketplace2/Marketplace.sol\":12163:12184  idToMarketItem[i + 1] */\n      0x00\n        /* \"contracts/Marketplace2/Marketplace.sol\":12178:12183  i + 1 */\n      tag_69\n        /* \"contracts/Marketplace2/Marketplace.sol\":12178:12179  i */\n      dup5\n        /* \"contracts/Marketplace2/Marketplace.sol\":12182:12183  1 */\n      0x01\n        /* \"contracts/Marketplace2/Marketplace.sol\":12178:12183  i + 1 */\n      tag_55\n      jump\t// in\n    tag_69:\n        /* \"contracts/Marketplace2/Marketplace.sol\":12163:12184  idToMarketItem[i + 1] */\n      dup2\n      mstore\n      0x20\n      dup2\n      add\n      swap2\n      swap1\n      swap2\n      mstore\n      0x40\n      add\n      0x00\n      keccak256\n        /* \"contracts/Marketplace2/Marketplace.sol\":12163:12190  idToMarketItem[i + 1].owner */\n      0x04\n      add\n      sload\n      sub(shl(0xa0, 0x01), 0x01)\n      and\n        /* \"contracts/Marketplace2/Marketplace.sol\":12163:12204  idToMarketItem[i + 1].owner == msg.sender */\n      sub\n        /* \"contracts/Marketplace2/Marketplace.sol\":12159:12239  if (idToMarketItem[i + 1].owner == msg.sender) {... */\n      tag_70\n      jumpi\n        /* \"contracts/Marketplace2/Marketplace.sol\":12216:12230  itemCount += 1 */\n      tag_71\n        /* \"contracts/Marketplace2/Marketplace.sol\":12229:12230  1 */\n      0x01\n        /* \"contracts/Marketplace2/Marketplace.sol\":12216:12230  itemCount += 1 */\n      dup5\n      tag_55\n      jump\t// in\n    tag_71:\n      swap3\n      pop\n        /* \"contracts/Marketplace2/Marketplace.sol\":12159:12239  if (idToMarketItem[i + 1].owner == msg.sender) {... */\n    tag_70:\n        /* \"contracts/Marketplace2/Marketplace.sol\":12146:12149  i++ */\n      dup1\n      tag_72\n      dup2\n      tag_63\n      jump\t// in\n    tag_72:\n      swap2\n      pop\n      pop\n        /* \"contracts/Marketplace2/Marketplace.sol\":12109:12245  for (uint i = 0; i < totalItemCount; i++) {... */\n      jump(tag_66)\n    tag_67:\n      pop\n        /* \"contracts/Marketplace2/Marketplace.sol\":12251:12276  MarketItem[] memory items */\n      0x00\n        /* \"contracts/Marketplace2/Marketplace.sol\":12296:12305  itemCount */\n      dup3\n        /* \"contracts/Marketplace2/Marketplace.sol\":12279:12306  new MarketItem[](itemCount) */\n      0xffffffffffffffff\n      dup2\n      gt\n      iszero\n      tag_74\n      jumpi\n      tag_74\n      tag_46\n      jump\t// in\n    tag_74:\n      mload(0x40)\n      swap1\n      dup1\n      dup3\n      mstore\n      dup1\n      0x20\n      mul\n      0x20\n      add\n      dup3\n      add\n      0x40\n      mstore\n      dup1\n      iszero\n      tag_75\n      jumpi\n      dup2\n      0x20\n      add\n    tag_76:\n      tag_77\n      tag_50\n      jump\t// in\n    tag_77:\n      dup2\n      mstore\n      0x20\n      add\n      swap1\n      0x01\n      swap1\n      sub\n      swap1\n      dup2\n      tag_76\n      jumpi\n      swap1\n      pop\n    tag_75:\n      pop\n        /* \"contracts/Marketplace2/Marketplace.sol\":12251:12306  MarketItem[] memory items = new MarketItem[](itemCount) */\n      swap1\n      pop\n        /* \"contracts/Marketplace2/Marketplace.sol\":12317:12323  uint i */\n      0x00\n        /* \"contracts/Marketplace2/Marketplace.sol\":12312:12617  for (uint i = 0; i < totalItemCount; i++) {... */\n    tag_78:\n        /* \"contracts/Marketplace2/Marketplace.sol\":12333:12347  totalItemCount */\n      dup5\n        /* \"contracts/Marketplace2/Marketplace.sol\":12329:12330  i */\n      dup2\n        /* \"contracts/Marketplace2/Marketplace.sol\":12329:12347  i < totalItemCount */\n      lt\n        /* \"contracts/Marketplace2/Marketplace.sol\":12312:12617  for (uint i = 0; i < totalItemCount; i++) {... */\n      iszero\n      tag_52\n      jumpi\n        /* \"contracts/Marketplace2/Marketplace.sol\":12397:12407  msg.sender */\n      caller\n        /* \"contracts/Marketplace2/Marketplace.sol\":12366:12380  idToMarketItem */\n      0x03\n        /* \"contracts/Marketplace2/Marketplace.sol\":12366:12387  idToMarketItem[i + 1] */\n      0x00\n        /* \"contracts/Marketplace2/Marketplace.sol\":12381:12386  i + 1 */\n      tag_81\n        /* \"contracts/Marketplace2/Marketplace.sol\":12381:12382  i */\n      dup5\n        /* \"contracts/Marketplace2/Marketplace.sol\":12385:12386  1 */\n      0x01\n        /* \"contracts/Marketplace2/Marketplace.sol\":12381:12386  i + 1 */\n      tag_55\n      jump\t// in\n    tag_81:\n        /* \"contracts/Marketplace2/Marketplace.sol\":12366:12387  idToMarketItem[i + 1] */\n      dup2\n      mstore\n      0x20\n      dup2\n      add\n      swap2\n      swap1\n      swap2\n      mstore\n      0x40\n      add\n      0x00\n      keccak256\n        /* \"contracts/Marketplace2/Marketplace.sol\":12366:12393  idToMarketItem[i + 1].owner */\n      0x04\n      add\n      sload\n      sub(shl(0xa0, 0x01), 0x01)\n      and\n        /* \"contracts/Marketplace2/Marketplace.sol\":12366:12407  idToMarketItem[i + 1].owner == msg.sender */\n      sub\n        /* \"contracts/Marketplace2/Marketplace.sol\":12362:12611  if (idToMarketItem[i + 1].owner == msg.sender) {... */\n      tag_82\n      jumpi\n        /* \"contracts/Marketplace2/Marketplace.sol\":12419:12433  uint currentId */\n      0x00\n        /* \"contracts/Marketplace2/Marketplace.sol\":12436:12450  idToMarketItem */\n      0x03\n        /* \"contracts/Marketplace2/Marketplace.sol\":12419:12433  uint currentId */\n      dup2\n        /* \"contracts/Marketplace2/Marketplace.sol\":12451:12456  i + 1 */\n      tag_83\n        /* \"contracts/Marketplace2/Marketplace.sol\":12451:12452  i */\n      dup5\n        /* \"contracts/Marketplace2/Marketplace.sol\":12455:12456  1 */\n      0x01\n        /* \"contracts/Marketplace2/Marketplace.sol\":12451:12456  i + 1 */\n      tag_55\n      jump\t// in\n    tag_83:\n        /* \"contracts/Marketplace2/Marketplace.sol\":12436:12457  idToMarketItem[i + 1] */\n      dup2\n      mstore\n      0x20\n      dup1\n      dup3\n      add\n      swap3\n      swap1\n      swap3\n      mstore\n      0x40\n      swap1\n      dup2\n      add\n      0x00\n      swap1\n      dup2\n      keccak256\n        /* \"contracts/Marketplace2/Marketplace.sol\":12436:12464  idToMarketItem[i + 1].itemId */\n      sload\n        /* \"contracts/Marketplace2/Marketplace.sol\":12507:12532  idToMarketItem[currentId] */\n      dup1\n      dup3\n      mstore\n        /* \"contracts/Marketplace2/Marketplace.sol\":12507:12521  idToMarketItem */\n      0x03\n        /* \"contracts/Marketplace2/Marketplace.sol\":12507:12532  idToMarketItem[currentId] */\n      dup1\n      dup6\n      mstore\n      swap2\n      dup4\n      swap1\n      keccak256\n        /* \"contracts/Marketplace2/Marketplace.sol\":12542:12575  items[currentIndex] = currentItem */\n      dup4\n      mload\n      0xc0\n      dup2\n      add\n      dup6\n      mstore\n      dup2\n      sload\n      dup2\n      mstore\n      0x01\n      dup3\n      add\n      sload\n      sub(shl(0xa0, 0x01), 0x01)\n      swap1\n      dup2\n      and\n      swap7\n      dup3\n      add\n      swap7\n      swap1\n      swap7\n      mstore\n      0x02\n      dup3\n      add\n      sload\n      swap5\n      dup2\n      add\n      swap5\n      swap1\n      swap5\n      mstore\n      swap2\n      dup3\n      add\n      sload\n      dup5\n      and\n      0x60\n      dup5\n      add\n      mstore\n      0x04\n      dup3\n      add\n      sload\n      swap1\n      swap4\n      and\n      0x80\n      dup4\n      add\n      mstore\n      0x05\n      dup2\n      add\n      sload\n      0xa0\n      dup4\n      add\n      mstore\n        /* \"contracts/Marketplace2/Marketplace.sol\":12542:12561  items[currentIndex] */\n      dup6\n      mload\n        /* \"contracts/Marketplace2/Marketplace.sol\":12436:12464  idToMarketItem[i + 1].itemId */\n      swap3\n      swap4\n      pop\n        /* \"contracts/Marketplace2/Marketplace.sol\":12507:12532  idToMarketItem[currentId] */\n      swap2\n        /* \"contracts/Marketplace2/Marketplace.sol\":12542:12547  items */\n      dup6\n      swap1\n        /* \"contracts/Marketplace2/Marketplace.sol\":12548:12560  currentIndex */\n      dup8\n      swap1\n        /* \"contracts/Marketplace2/Marketplace.sol\":12542:12561  items[currentIndex] */\n      dup2\n      lt\n      tag_85\n      jumpi\n      tag_85\n      tag_60\n      jump\t// in\n    tag_85:\n      0x20\n      swap1\n      dup2\n      mul\n      swap2\n      swap1\n      swap2\n      add\n      add\n        /* \"contracts/Marketplace2/Marketplace.sol\":12542:12575  items[currentIndex] = currentItem */\n      mstore\n        /* \"contracts/Marketplace2/Marketplace.sol\":12585:12602  currentIndex += 1 */\n      tag_86\n        /* \"contracts/Marketplace2/Marketplace.sol\":12601:12602  1 */\n      0x01\n        /* \"contracts/Marketplace2/Marketplace.sol\":12585:12602  currentIndex += 1 */\n      dup7\n      tag_55\n      jump\t// in\n    tag_86:\n      swap5\n      pop\n        /* \"contracts/Marketplace2/Marketplace.sol\":12409:12611  {... */\n      pop\n      pop\n        /* \"contracts/Marketplace2/Marketplace.sol\":12362:12611  if (idToMarketItem[i + 1].owner == msg.sender) {... */\n    tag_82:\n        /* \"contracts/Marketplace2/Marketplace.sol\":12349:12352  i++ */\n      dup1\n      tag_87\n      dup2\n      tag_63\n      jump\t// in\n    tag_87:\n      swap2\n      pop\n      pop\n        /* \"contracts/Marketplace2/Marketplace.sol\":12312:12617  for (uint i = 0; i < totalItemCount; i++) {... */\n      jump(tag_78)\n        /* \"contracts/Marketplace2/Marketplace.sol\":11171:11324  function fetchMarketItem(uint itemId) public view returns (MarketItem memory) {... */\n    tag_21:\n        /* \"contracts/Marketplace2/Marketplace.sol\":11230:11247  MarketItem memory */\n      tag_88\n      tag_50\n      jump\t// in\n    tag_88:\n      pop\n        /* \"contracts/Marketplace2/Marketplace.sol\":11255:11277  MarketItem memory item */\n      0x00\n        /* \"contracts/Marketplace2/Marketplace.sol\":11280:11302  idToMarketItem[itemId] */\n      swap1\n      dup2\n      mstore\n        /* \"contracts/Marketplace2/Marketplace.sol\":11280:11294  idToMarketItem */\n      0x03\n        /* \"contracts/Marketplace2/Marketplace.sol\":11280:11302  idToMarketItem[itemId] */\n      0x20\n      dup2\n      dup2\n      mstore\n      0x40\n      swap3\n      dup4\n      swap1\n      keccak256\n        /* \"contracts/Marketplace2/Marketplace.sol\":11255:11302  MarketItem memory item = idToMarketItem[itemId] */\n      dup4\n      mload\n      0xc0\n      dup2\n      add\n      dup6\n      mstore\n      dup2\n      sload\n      dup2\n      mstore\n      0x01\n      dup3\n      add\n      sload\n      sub(shl(0xa0, 0x01), 0x01)\n      swap1\n      dup2\n      and\n      swap4\n      dup3\n      add\n      swap4\n      swap1\n      swap4\n      mstore\n      0x02\n      dup3\n      add\n      sload\n      swap5\n      dup2\n      add\n      swap5\n      swap1\n      swap5\n      mstore\n      swap2\n      dup3\n      add\n      sload\n      dup2\n      and\n      0x60\n      dup5\n      add\n      mstore\n      0x04\n      dup3\n      add\n      sload\n      and\n      0x80\n      dup4\n      add\n      mstore\n      0x05\n      add\n      sload\n      0xa0\n      dup3\n      add\n      mstore\n      swap1\n        /* \"contracts/Marketplace2/Marketplace.sol\":11171:11324  function fetchMarketItem(uint itemId) public view returns (MarketItem memory) {... */\n      jump\t// out\n        /* \"contracts/Marketplace2/Marketplace.sol\":10013:10639  function createMarketItem(... */\n    tag_27:\n        /* \"contracts/Marketplace2/Marketplace.sol\":8403:8404  2 */\n      0x02\n        /* \"contracts/Marketplace2/Marketplace.sol\":8984:8991  _status */\n      sload(0x00)\n        /* \"contracts/Marketplace2/Marketplace.sol\":8984:9003  _status != _ENTERED */\n      sub\n        /* \"contracts/Marketplace2/Marketplace.sol\":8976:9039  require(_status != _ENTERED, \"ReentrancyGuard: reentrant call\") */\n      tag_91\n      jumpi\n      mload(0x40)\n      shl(0xe5, 0x461bcd)\n      dup2\n      mstore\n        /* \"#utility.yul\":3424:3426   */\n      0x20\n        /* \"contracts/Marketplace2/Marketplace.sol\":8976:9039  require(_status != _ENTERED, \"ReentrancyGuard: reentrant call\") */\n      0x04\n      dup3\n      add\n        /* \"#utility.yul\":3406:3427   */\n      mstore\n        /* \"#utility.yul\":3463:3465   */\n      0x1f\n        /* \"#utility.yul\":3443:3461   */\n      0x24\n      dup3\n      add\n        /* \"#utility.yul\":3436:3466   */\n      mstore\n        /* \"#utility.yul\":3502:3535   */\n      0x5265656e7472616e637947756172643a207265656e7472616e742063616c6c00\n        /* \"#utility.yul\":3482:3500   */\n      0x44\n      dup3\n      add\n        /* \"#utility.yul\":3475:3536   */\n      mstore\n        /* \"#utility.yul\":3553:3571   */\n      0x64\n      add\n        /* \"contracts/Marketplace2/Marketplace.sol\":8976:9039  require(_status != _ENTERED, \"ReentrancyGuard: reentrant call\") */\n    tag_92:\n      mload(0x40)\n      dup1\n      swap2\n      sub\n      swap1\n      revert\n    tag_91:\n        /* \"contracts/Marketplace2/Marketplace.sol\":8403:8404  2 */\n      0x02\n        /* \"contracts/Marketplace2/Marketplace.sol\":9114:9121  _status */\n      0x00\n        /* \"contracts/Marketplace2/Marketplace.sol\":9114:9132  _status = _ENTERED */\n      sstore\n        /* \"contracts/Marketplace2/Marketplace.sol\":10150:10159  price > 0 */\n      dup1\n        /* \"contracts/Marketplace2/Marketplace.sol\":10142:10192  require(price > 0, \"Price must be at least 1 wei\") */\n      tag_95\n      jumpi\n      mload(0x40)\n      shl(0xe5, 0x461bcd)\n      dup2\n      mstore\n        /* \"#utility.yul\":3784:3786   */\n      0x20\n        /* \"contracts/Marketplace2/Marketplace.sol\":10142:10192  require(price > 0, \"Price must be at least 1 wei\") */\n      0x04\n      dup3\n      add\n        /* \"#utility.yul\":3766:3787   */\n      mstore\n        /* \"#utility.yul\":3823:3825   */\n      0x1c\n        /* \"#utility.yul\":3803:3821   */\n      0x24\n      dup3\n      add\n        /* \"#utility.yul\":3796:3826   */\n      mstore\n        /* \"#utility.yul\":3862:3892   */\n      0x5072696365206d757374206265206174206c6561737420312077656900000000\n        /* \"#utility.yul\":3842:3860   */\n      0x44\n      dup3\n      add\n        /* \"#utility.yul\":3835:3893   */\n      mstore\n        /* \"#utility.yul\":3910:3928   */\n      0x64\n      add\n        /* \"contracts/Marketplace2/Marketplace.sol\":10142:10192  require(price > 0, \"Price must be at least 1 wei\") */\n      tag_92\n        /* \"#utility.yul\":3582:3934   */\n      jump\n        /* \"contracts/Marketplace2/Marketplace.sol\":10142:10192  require(price > 0, \"Price must be at least 1 wei\") */\n    tag_95:\n        /* \"contracts/Marketplace2/Marketplace.sol\":10199:10219  _itemIds.increment() */\n      tag_98\n        /* \"contracts/Marketplace2/Marketplace.sol\":10199:10207  _itemIds */\n      0x01\n        /* \"contracts/Marketplace2/Marketplace.sol\":6294:6313  counter._value += 1 */\n      dup1\n      sload\n        /* \"contracts/Marketplace2/Marketplace.sol\":6312:6313  1 */\n      0x01\n        /* \"contracts/Marketplace2/Marketplace.sol\":6294:6313  counter._value += 1 */\n      add\n      swap1\n      sstore\n        /* \"contracts/Marketplace2/Marketplace.sol\":6207:6330  function increment(Counter storage counter) internal {... */\n      jump\n        /* \"contracts/Marketplace2/Marketplace.sol\":10199:10219  _itemIds.increment() */\n    tag_98:\n        /* \"contracts/Marketplace2/Marketplace.sol\":10225:10239  uint256 itemId */\n      0x00\n        /* \"contracts/Marketplace2/Marketplace.sol\":10242:10260  _itemIds.current() */\n      tag_100\n        /* \"contracts/Marketplace2/Marketplace.sol\":10242:10250  _itemIds */\n      0x01\n        /* \"contracts/Marketplace2/Marketplace.sol\":6180:6194  counter._value */\n      sload\n      swap1\n        /* \"contracts/Marketplace2/Marketplace.sol\":6089:6201  function current(Counter storage counter) internal view returns (uint256) {... */\n      jump\n        /* \"contracts/Marketplace2/Marketplace.sol\":10242:10260  _itemIds.current() */\n    tag_100:\n        /* \"contracts/Marketplace2/Marketplace.sol\":10295:10426  MarketItem(... */\n      0x40\n      dup1\n      mload\n      0xc0\n      dup2\n      add\n      dup3\n      mstore\n      dup3\n      dup2\n      mstore\n      sub(shl(0xa0, 0x01), 0x01)\n      dup8\n      dup2\n      and\n      0x20\n      dup1\n      dup5\n      add\n      dup3\n      dup2\n      mstore\n      dup5\n      dup7\n      add\n      dup11\n      dup2\n      mstore\n        /* \"contracts/Marketplace2/Marketplace.sol\":10369:10379  msg.sender */\n      caller\n        /* \"contracts/Marketplace2/Marketplace.sol\":10295:10426  MarketItem(... */\n      0x60\n      dup8\n      add\n      dup2\n      dup2\n      mstore\n      0x00\n      0x80\n      dup10\n      add\n      dup2\n      dup2\n      mstore\n      0xa0\n      dup11\n      add\n      dup15\n      dup2\n      mstore\n        /* \"contracts/Marketplace2/Marketplace.sol\":10269:10291  idToMarketItem[itemId] */\n      dup13\n      dup4\n      mstore\n        /* \"contracts/Marketplace2/Marketplace.sol\":10269:10283  idToMarketItem */\n      0x03\n        /* \"contracts/Marketplace2/Marketplace.sol\":10269:10291  idToMarketItem[itemId] */\n      swap8\n      dup9\n      swap1\n      mstore\n      swap2\n      dup12\n      swap1\n      keccak256\n        /* \"contracts/Marketplace2/Marketplace.sol\":10269:10426  idToMarketItem[itemId] =  MarketItem(... */\n      swap10\n      mload\n      dup11\n      sstore\n      swap5\n      mload\n      0x01\n      dup11\n      add\n      dup1\n      sload\n      not(sub(shl(0xa0, 0x01), 0x01))\n      swap1\n      dup2\n      and\n      swap3\n      dup12\n      and\n      swap3\n      swap1\n      swap3\n      or\n      swap1\n      sstore\n      swap4\n      mload\n      0x02\n      dup11\n      add\n      sstore\n      swap1\n      mload\n      swap5\n      dup9\n      add\n      dup1\n      sload\n      dup5\n      and\n      swap6\n      dup9\n      and\n      swap6\n      swap1\n      swap6\n      or\n      swap1\n      swap5\n      sstore\n      swap2\n      mload\n      0x04\n      dup1\n      dup9\n      add\n      dup1\n      sload\n      swap1\n      swap4\n      and\n      swap2\n      swap1\n      swap7\n      and\n      or\n      swap1\n      sstore\n      swap1\n      mload\n      0x05\n      swap1\n      swap5\n      add\n      swap4\n      swap1\n      swap4\n      sstore\n        /* \"contracts/Marketplace2/Marketplace.sol\":10433:10502  IERC721(nftContract).transferFrom(msg.sender, address(this), tokenId) */\n      swap3\n      mload\n      shl(0xe0, 0x23b872dd)\n      dup2\n      mstore\n      swap1\n      dup2\n      add\n        /* \"#utility.yul\":4179:4213   */\n      swap2\n      swap1\n      swap2\n      mstore\n        /* \"contracts/Marketplace2/Marketplace.sol\":10487:10491  this */\n      address\n        /* \"#utility.yul\":4229:4247   */\n      0x24\n      dup3\n      add\n        /* \"#utility.yul\":4222:4265   */\n      mstore\n        /* \"#utility.yul\":4281:4299   */\n      0x44\n      dup2\n      add\n        /* \"#utility.yul\":4274:4308   */\n      dup7\n      swap1\n      mstore\n        /* \"contracts/Marketplace2/Marketplace.sol\":10295:10426  MarketItem(... */\n      swap2\n      swap3\n      pop\n      swap1\n        /* \"contracts/Marketplace2/Marketplace.sol\":10433:10466  IERC721(nftContract).transferFrom */\n      0x23b872dd\n      swap1\n        /* \"#utility.yul\":4114:4132   */\n      0x64\n      add\n        /* \"contracts/Marketplace2/Marketplace.sol\":10433:10502  IERC721(nftContract).transferFrom(msg.sender, address(this), tokenId) */\n      0x00\n      mload(0x40)\n      dup1\n      dup4\n      sub\n      dup2\n      0x00\n      dup8\n      dup1\n      extcodesize\n      iszero\n      dup1\n      iszero\n      tag_103\n      jumpi\n      0x00\n      dup1\n      revert\n    tag_103:\n      pop\n      gas\n      call\n      iszero\n      dup1\n      iszero\n      tag_105\n      jumpi\n      returndatasize\n      0x00\n      dup1\n      returndatacopy\n      revert(0x00, returndatasize)\n    tag_105:\n      pop\n      pop\n        /* \"contracts/Marketplace2/Marketplace.sol\":10514:10634  MarketItemCreated(... */\n      0x40\n      dup1\n      mload\n        /* \"contracts/Marketplace2/Marketplace.sol\":10587:10597  msg.sender */\n      caller\n        /* \"#utility.yul\":4179:4213   */\n      dup2\n      mstore\n        /* \"contracts/Marketplace2/Marketplace.sol\":10613:10614  0 */\n      0x00\n        /* \"#utility.yul\":4244:4246   */\n      0x20\n        /* \"#utility.yul\":4229:4247   */\n      dup3\n      add\n        /* \"#utility.yul\":4222:4265   */\n      mstore\n        /* \"#utility.yul\":4281:4299   */\n      swap1\n      dup2\n      add\n        /* \"#utility.yul\":4274:4308   */\n      dup6\n      swap1\n      mstore\n        /* \"contracts/Marketplace2/Marketplace.sol\":10572:10579  tokenId */\n      dup6\n      swap3\n      pop\n      sub(shl(0xa0, 0x01), 0x01)\n        /* \"contracts/Marketplace2/Marketplace.sol\":10514:10634  MarketItemCreated(... */\n      dup8\n      and\n      swap2\n      pop\n        /* \"contracts/Marketplace2/Marketplace.sol\":10539:10545  itemId */\n      dup4\n      swap1\n        /* \"contracts/Marketplace2/Marketplace.sol\":10514:10634  MarketItemCreated(... */\n      0x2ad024d53a0dc50c130967f8d4941927ee087ea31394cebb2b9599d3706c9c00\n      swap1\n        /* \"#utility.yul\":4129:4131   */\n      0x60\n        /* \"#utility.yul\":4114:4132   */\n      add\n        /* \"contracts/Marketplace2/Marketplace.sol\":10514:10634  MarketItemCreated(... */\n      mload(0x40)\n      dup1\n      swap2\n      sub\n      swap1\n      log4\n      pop\n      pop\n        /* \"contracts/Marketplace2/Marketplace.sol\":8360:8361  1 */\n      0x01\n        /* \"contracts/Marketplace2/Marketplace.sol\":9287:9294  _status */\n      0x00\n        /* \"contracts/Marketplace2/Marketplace.sol\":9287:9309  _status = _NOT_ENTERED */\n      sstore\n      pop\n      pop\n        /* \"contracts/Marketplace2/Marketplace.sol\":10013:10639  function createMarketItem(... */\n      jump\t// out\n        /* \"contracts/Marketplace2/Marketplace.sol\":10643:11167  function createMarketSale(... */\n    tag_31:\n        /* \"contracts/Marketplace2/Marketplace.sol\":8403:8404  2 */\n      0x02\n        /* \"contracts/Marketplace2/Marketplace.sol\":8984:8991  _status */\n      sload(0x00)\n        /* \"contracts/Marketplace2/Marketplace.sol\":8984:9003  _status != _ENTERED */\n      sub\n        /* \"contracts/Marketplace2/Marketplace.sol\":8976:9039  require(_status != _ENTERED, \"ReentrancyGuard: reentrant call\") */\n      tag_108\n      jumpi\n      mload(0x40)\n      shl(0xe5, 0x461bcd)\n      dup2\n      mstore\n        /* \"#utility.yul\":3424:3426   */\n      0x20\n        /* \"contracts/Marketplace2/Marketplace.sol\":8976:9039  require(_status != _ENTERED, \"ReentrancyGuard: reentrant call\") */\n      0x04\n      dup3\n      add\n        /* \"#utility.yul\":3406:3427   */\n      mstore\n        /* \"#utility.yul\":3463:3465   */\n      0x1f\n        /* \"#utility.yul\":3443:3461   */\n      0x24\n      dup3\n      add\n        /* \"#utility.yul\":3436:3466   */\n      mstore\n        /* \"#utility.yul\":3502:3535   */\n      0x5265656e7472616e637947756172643a207265656e7472616e742063616c6c00\n        /* \"#utility.yul\":3482:3500   */\n      0x44\n      dup3\n      add\n        /* \"#utility.yul\":3475:3536   */\n      mstore\n        /* \"#utility.yul\":3553:3571   */\n      0x64\n      add\n        /* \"contracts/Marketplace2/Marketplace.sol\":8976:9039  require(_status != _ENTERED, \"ReentrancyGuard: reentrant call\") */\n      tag_92\n        /* \"#utility.yul\":3222:3577   */\n      jump\n        /* \"contracts/Marketplace2/Marketplace.sol\":8976:9039  require(_status != _ENTERED, \"ReentrancyGuard: reentrant call\") */\n    tag_108:\n        /* \"contracts/Marketplace2/Marketplace.sol\":8403:8404  2 */\n      0x02\n        /* \"contracts/Marketplace2/Marketplace.sol\":9114:9121  _status */\n      0x00\n        /* \"contracts/Marketplace2/Marketplace.sol\":9114:9132  _status = _ENTERED */\n      dup2\n      dup2\n      sstore\n        /* \"contracts/Marketplace2/Marketplace.sol\":10767:10789  idToMarketItem[itemId] */\n      dup3\n      dup2\n      mstore\n        /* \"contracts/Marketplace2/Marketplace.sol\":10767:10781  idToMarketItem */\n      0x03\n        /* \"contracts/Marketplace2/Marketplace.sol\":10767:10789  idToMarketItem[itemId] */\n      0x20\n      mstore\n      0x40\n      swap1\n      keccak256\n        /* \"contracts/Marketplace2/Marketplace.sol\":10767:10795  idToMarketItem[itemId].price */\n      0x05\n      dup2\n      add\n      sload\n        /* \"contracts/Marketplace2/Marketplace.sol\":10816:10846  idToMarketItem[itemId].tokenId */\n      swap2\n      add\n      sload\n        /* \"contracts/Marketplace2/Marketplace.sol\":10860:10869  msg.value */\n      callvalue\n        /* \"contracts/Marketplace2/Marketplace.sol\":10860:10878  msg.value == price */\n      dup3\n      eq\n        /* \"contracts/Marketplace2/Marketplace.sol\":10852:10947  require(msg.value == price, \"Please submit the asking price in order to complete the purchase\") */\n      tag_111\n      jumpi\n      0x40\n      dup1\n      mload\n      shl(0xe5, 0x461bcd)\n      dup2\n      mstore\n        /* \"#utility.yul\":4521:4523   */\n      0x20\n        /* \"contracts/Marketplace2/Marketplace.sol\":10852:10947  require(msg.value == price, \"Please submit the asking price in order to complete the purchase\") */\n      0x04\n      dup3\n      add\n        /* \"#utility.yul\":4503:4524   */\n      mstore\n        /* \"#utility.yul\":4540:4558   */\n      0x24\n      dup2\n      add\n        /* \"#utility.yul\":4533:4563   */\n      swap2\n      swap1\n      swap2\n      mstore\n        /* \"#utility.yul\":4599:4633   */\n      0x506c65617365207375626d6974207468652061736b696e672070726963652069\n        /* \"#utility.yul\":4579:4597   */\n      0x44\n      dup3\n      add\n        /* \"#utility.yul\":4572:4634   */\n      mstore\n        /* \"#utility.yul\":4670:4704   */\n      0x6e206f7264657220746f20636f6d706c65746520746865207075726368617365\n        /* \"#utility.yul\":4650:4668   */\n      0x64\n      dup3\n      add\n        /* \"#utility.yul\":4643:4705   */\n      mstore\n        /* \"#utility.yul\":4722:4741   */\n      0x84\n      add\n        /* \"contracts/Marketplace2/Marketplace.sol\":10852:10947  require(msg.value == price, \"Please submit the asking price in order to complete the purchase\") */\n      tag_92\n        /* \"#utility.yul\":4319:4747   */\n      jump\n        /* \"contracts/Marketplace2/Marketplace.sol\":10852:10947  require(msg.value == price, \"Please submit the asking price in order to complete the purchase\") */\n    tag_111:\n        /* \"contracts/Marketplace2/Marketplace.sol\":10954:10976  idToMarketItem[itemId] */\n      0x00\n      dup4\n      dup2\n      mstore\n        /* \"contracts/Marketplace2/Marketplace.sol\":10954:10968  idToMarketItem */\n      0x03\n        /* \"contracts/Marketplace2/Marketplace.sol\":10954:10976  idToMarketItem[itemId] */\n      0x20\n      dup2\n      swap1\n      mstore\n      0x40\n      dup1\n      dup4\n      keccak256\n        /* \"contracts/Marketplace2/Marketplace.sol\":10954:10983  idToMarketItem[itemId].seller */\n      swap1\n      swap2\n      add\n      sload\n        /* \"contracts/Marketplace2/Marketplace.sol\":10954:11003  idToMarketItem[itemId].seller.transfer(msg.value) */\n      swap1\n      mload\n      sub(shl(0xa0, 0x01), 0x01)\n        /* \"contracts/Marketplace2/Marketplace.sol\":10954:10983  idToMarketItem[itemId].seller */\n      swap1\n      swap2\n      and\n      swap2\n        /* \"contracts/Marketplace2/Marketplace.sol\":10993:11002  msg.value */\n      callvalue\n        /* \"contracts/Marketplace2/Marketplace.sol\":10954:11003  idToMarketItem[itemId].seller.transfer(msg.value) */\n      dup1\n      iszero\n      0x08fc\n      mul\n      swap3\n        /* \"contracts/Marketplace2/Marketplace.sol\":10993:11002  msg.value */\n      swap1\n      swap2\n        /* \"contracts/Marketplace2/Marketplace.sol\":10954:11003  idToMarketItem[itemId].seller.transfer(msg.value) */\n      dup2\n        /* \"contracts/Marketplace2/Marketplace.sol\":10954:10976  idToMarketItem[itemId] */\n      dup2\n        /* \"contracts/Marketplace2/Marketplace.sol\":10954:11003  idToMarketItem[itemId].seller.transfer(msg.value) */\n      dup2\n        /* \"contracts/Marketplace2/Marketplace.sol\":10993:11002  msg.value */\n      dup6\n        /* \"contracts/Marketplace2/Marketplace.sol\":10954:10983  idToMarketItem[itemId].seller */\n      dup9\n        /* \"contracts/Marketplace2/Marketplace.sol\":10954:11003  idToMarketItem[itemId].seller.transfer(msg.value) */\n      dup9\n      call\n      swap4\n      pop\n      pop\n      pop\n      pop\n      iszero\n      dup1\n      iszero\n      tag_115\n      jumpi\n      returndatasize\n      0x00\n      dup1\n      returndatacopy\n      revert(0x00, returndatasize)\n    tag_115:\n      pop\n        /* \"contracts/Marketplace2/Marketplace.sol\":11009:11078  IERC721(nftContract).transferFrom(address(this), msg.sender, tokenId) */\n      mload(0x40)\n      shl(0xe0, 0x23b872dd)\n      dup2\n      mstore\n        /* \"contracts/Marketplace2/Marketplace.sol\":11051:11055  this */\n      address\n        /* \"contracts/Marketplace2/Marketplace.sol\":11009:11078  IERC721(nftContract).transferFrom(address(this), msg.sender, tokenId) */\n      0x04\n      dup3\n      add\n        /* \"#utility.yul\":4179:4213   */\n      mstore\n        /* \"contracts/Marketplace2/Marketplace.sol\":11058:11068  msg.sender */\n      caller\n        /* \"#utility.yul\":4229:4247   */\n      0x24\n      dup3\n      add\n        /* \"#utility.yul\":4222:4265   */\n      mstore\n        /* \"#utility.yul\":4281:4299   */\n      0x44\n      dup2\n      add\n        /* \"#utility.yul\":4274:4308   */\n      dup3\n      swap1\n      mstore\n      sub(shl(0xa0, 0x01), 0x01)\n        /* \"contracts/Marketplace2/Marketplace.sol\":11009:11042  IERC721(nftContract).transferFrom */\n      dup6\n      and\n      swap1\n      0x23b872dd\n      swap1\n        /* \"#utility.yul\":4114:4132   */\n      0x64\n      add\n        /* \"contracts/Marketplace2/Marketplace.sol\":11009:11078  IERC721(nftContract).transferFrom(address(this), msg.sender, tokenId) */\n      0x00\n      mload(0x40)\n      dup1\n      dup4\n      sub\n      dup2\n      0x00\n      dup8\n      dup1\n      extcodesize\n      iszero\n      dup1\n      iszero\n      tag_117\n      jumpi\n      0x00\n      dup1\n      revert\n    tag_117:\n      pop\n      gas\n      call\n      iszero\n      dup1\n      iszero\n      tag_119\n      jumpi\n      returndatasize\n      0x00\n      dup1\n      returndatacopy\n      revert(0x00, returndatasize)\n    tag_119:\n      pop\n      pop\n      pop\n        /* \"contracts/Marketplace2/Marketplace.sol\":11084:11106  idToMarketItem[itemId] */\n      0x00\n      dup5\n      dup2\n      mstore\n        /* \"contracts/Marketplace2/Marketplace.sol\":11084:11098  idToMarketItem */\n      0x03\n        /* \"contracts/Marketplace2/Marketplace.sol\":11084:11106  idToMarketItem[itemId] */\n      0x20\n      mstore\n      0x40\n      swap1\n      keccak256\n        /* \"contracts/Marketplace2/Marketplace.sol\":11084:11112  idToMarketItem[itemId].owner */\n      0x04\n      add\n        /* \"contracts/Marketplace2/Marketplace.sol\":11084:11134  idToMarketItem[itemId].owner = payable(msg.sender) */\n      dup1\n      sload\n      not(sub(shl(0xa0, 0x01), 0x01))\n      and\n        /* \"contracts/Marketplace2/Marketplace.sol\":11123:11133  msg.sender */\n      caller\n        /* \"contracts/Marketplace2/Marketplace.sol\":11084:11134  idToMarketItem[itemId].owner = payable(msg.sender) */\n      or\n      swap1\n      sstore\n      pop\n        /* \"contracts/Marketplace2/Marketplace.sol\":11140:11162  _itemsSold.increment() */\n      tag_120\n        /* \"contracts/Marketplace2/Marketplace.sol\":11140:11150  _itemsSold */\n      0x02\n        /* \"contracts/Marketplace2/Marketplace.sol\":6294:6313  counter._value += 1 */\n      dup1\n      sload\n        /* \"contracts/Marketplace2/Marketplace.sol\":6312:6313  1 */\n      0x01\n        /* \"contracts/Marketplace2/Marketplace.sol\":6294:6313  counter._value += 1 */\n      add\n      swap1\n      sstore\n        /* \"contracts/Marketplace2/Marketplace.sol\":6207:6330  function increment(Counter storage counter) internal {... */\n      jump\n        /* \"contracts/Marketplace2/Marketplace.sol\":11140:11162  _itemsSold.increment() */\n    tag_120:\n      pop\n      pop\n        /* \"contracts/Marketplace2/Marketplace.sol\":8360:8361  1 */\n      0x01\n        /* \"contracts/Marketplace2/Marketplace.sol\":9287:9294  _status */\n      0x00\n        /* \"contracts/Marketplace2/Marketplace.sol\":9287:9309  _status = _NOT_ENTERED */\n      sstore\n      pop\n      pop\n        /* \"contracts/Marketplace2/Marketplace.sol\":10643:11167  function createMarketSale(... */\n      jump\t// out\n    tag_50:\n      mload(0x40)\n      dup1\n      0xc0\n      add\n      0x40\n      mstore\n      dup1\n      0x00\n      dup2\n      mstore\n      0x20\n      add\n      and(sub(shl(0xa0, 0x01), 0x01), 0x00)\n      dup2\n      mstore\n      0x20\n      add\n      0x00\n      dup2\n      mstore\n      0x20\n      add\n      and(sub(shl(0xa0, 0x01), 0x01), 0x00)\n      dup2\n      mstore\n      0x20\n      add\n      and(sub(shl(0xa0, 0x01), 0x01), 0x00)\n      dup2\n      mstore\n      0x20\n      add\n      0x00\n      dup2\n      mstore\n      pop\n      swap1\n      jump\t// out\n        /* \"#utility.yul\":14:495   */\n    tag_125:\n        /* \"#utility.yul\":96:101   */\n      dup1\n        /* \"#utility.yul\":90:102   */\n      mload\n        /* \"#utility.yul\":85:88   */\n      dup3\n        /* \"#utility.yul\":78:103   */\n      mstore\n        /* \"#utility.yul\":149:153   */\n      0x20\n        /* \"#utility.yul\":142:147   */\n      dup2\n        /* \"#utility.yul\":138:154   */\n      add\n        /* \"#utility.yul\":132:155   */\n      mload\n        /* \"#utility.yul\":191:192   */\n      0x01\n        /* \"#utility.yul\":187:188   */\n      dup1\n        /* \"#utility.yul\":182:185   */\n      0xa0\n        /* \"#utility.yul\":178:189   */\n      shl\n        /* \"#utility.yul\":174:193   */\n      sub\n        /* \"#utility.yul\":243:245   */\n      dup1\n        /* \"#utility.yul\":229:241   */\n      dup3\n        /* \"#utility.yul\":225:246   */\n      and\n        /* \"#utility.yul\":218:222   */\n      0x20\n        /* \"#utility.yul\":213:216   */\n      dup6\n        /* \"#utility.yul\":209:223   */\n      add\n        /* \"#utility.yul\":202:247   */\n      mstore\n        /* \"#utility.yul\":296:300   */\n      0x40\n        /* \"#utility.yul\":289:294   */\n      dup4\n        /* \"#utility.yul\":285:301   */\n      add\n        /* \"#utility.yul\":279:302   */\n      mload\n        /* \"#utility.yul\":272:276   */\n      0x40\n        /* \"#utility.yul\":267:270   */\n      dup6\n        /* \"#utility.yul\":263:277   */\n      add\n        /* \"#utility.yul\":256:303   */\n      mstore\n        /* \"#utility.yul\":364:366   */\n      dup1\n        /* \"#utility.yul\":356:360   */\n      0x60\n        /* \"#utility.yul\":349:354   */\n      dup5\n        /* \"#utility.yul\":345:361   */\n      add\n        /* \"#utility.yul\":339:362   */\n      mload\n        /* \"#utility.yul\":335:367   */\n      and\n        /* \"#utility.yul\":328:332   */\n      0x60\n        /* \"#utility.yul\":323:326   */\n      dup6\n        /* \"#utility.yul\":319:333   */\n      add\n        /* \"#utility.yul\":312:368   */\n      mstore\n        /* \"#utility.yul\":429:431   */\n      dup1\n        /* \"#utility.yul\":421:425   */\n      0x80\n        /* \"#utility.yul\":414:419   */\n      dup5\n        /* \"#utility.yul\":410:426   */\n      add\n        /* \"#utility.yul\":404:427   */\n      mload\n        /* \"#utility.yul\":400:432   */\n      and\n        /* \"#utility.yul\":393:397   */\n      0x80\n        /* \"#utility.yul\":388:391   */\n      dup6\n        /* \"#utility.yul\":384:398   */\n      add\n        /* \"#utility.yul\":377:433   */\n      mstore\n      pop\n      pop\n        /* \"#utility.yul\":482:486   */\n      0xa0\n        /* \"#utility.yul\":475:480   */\n      dup2\n        /* \"#utility.yul\":471:487   */\n      add\n        /* \"#utility.yul\":465:488   */\n      mload\n        /* \"#utility.yul\":458:462   */\n      0xa0\n        /* \"#utility.yul\":453:456   */\n      dup4\n        /* \"#utility.yul\":449:463   */\n      add\n        /* \"#utility.yul\":442:489   */\n      mstore\n        /* \"#utility.yul\":14:495   */\n      pop\n      pop\n      jump\t// out\n        /* \"#utility.yul\":500:1210   */\n    tag_12:\n        /* \"#utility.yul\":725:727   */\n      0x20\n        /* \"#utility.yul\":777:798   */\n      dup1\n      dup3\n      mstore\n        /* \"#utility.yul\":847:860   */\n      dup3\n      mload\n        /* \"#utility.yul\":750:768   */\n      dup3\n      dup3\n      add\n        /* \"#utility.yul\":869:891   */\n      dup2\n      swap1\n      mstore\n        /* \"#utility.yul\":696:700   */\n      0x00\n      swap2\n        /* \"#utility.yul\":725:727   */\n      swap1\n        /* \"#utility.yul\":948:963   */\n      dup5\n      dup3\n      add\n      swap1\n        /* \"#utility.yul\":922:924   */\n      0x40\n        /* \"#utility.yul\":907:925   */\n      dup6\n      add\n      swap1\n        /* \"#utility.yul\":696:700   */\n      dup5\n        /* \"#utility.yul\":991:1184   */\n    tag_131:\n        /* \"#utility.yul\":1005:1011   */\n      dup2\n        /* \"#utility.yul\":1002:1003   */\n      dup2\n        /* \"#utility.yul\":999:1012   */\n      lt\n        /* \"#utility.yul\":991:1184   */\n      iszero\n      tag_133\n      jumpi\n        /* \"#utility.yul\":1054:1102   */\n      tag_134\n        /* \"#utility.yul\":1098:1101   */\n      dup4\n        /* \"#utility.yul\":1089:1095   */\n      dup6\n        /* \"#utility.yul\":1083:1096   */\n      mload\n        /* \"#utility.yul\":1054:1102   */\n      tag_125\n      jump\t// in\n    tag_134:\n        /* \"#utility.yul\":1159:1174   */\n      swap3\n      dup5\n      add\n      swap3\n        /* \"#utility.yul\":1131:1135   */\n      0xc0\n        /* \"#utility.yul\":1122:1136   */\n      swap3\n      swap1\n      swap3\n      add\n      swap2\n        /* \"#utility.yul\":1027:1028   */\n      0x01\n        /* \"#utility.yul\":1020:1029   */\n      add\n        /* \"#utility.yul\":991:1184   */\n      jump(tag_131)\n    tag_133:\n      pop\n        /* \"#utility.yul\":1201:1204   */\n      swap1\n      swap7\n        /* \"#utility.yul\":500:1210   */\n      swap6\n      pop\n      pop\n      pop\n      pop\n      pop\n      pop\n      jump\t// out\n        /* \"#utility.yul\":1215:1395   */\n    tag_20:\n        /* \"#utility.yul\":1274:1280   */\n      0x00\n        /* \"#utility.yul\":1327:1329   */\n      0x20\n        /* \"#utility.yul\":1315:1324   */\n      dup3\n        /* \"#utility.yul\":1306:1313   */\n      dup5\n        /* \"#utility.yul\":1302:1325   */\n      sub\n        /* \"#utility.yul\":1298:1330   */\n      slt\n        /* \"#utility.yul\":1295:1347   */\n      iszero\n      tag_136\n      jumpi\n        /* \"#utility.yul\":1343:1344   */\n      0x00\n        /* \"#utility.yul\":1340:1341   */\n      dup1\n        /* \"#utility.yul\":1333:1345   */\n      revert\n        /* \"#utility.yul\":1295:1347   */\n    tag_136:\n      pop\n        /* \"#utility.yul\":1366:1389   */\n      calldataload\n      swap2\n        /* \"#utility.yul\":1215:1395   */\n      swap1\n      pop\n      jump\t// out\n        /* \"#utility.yul\":1400:1654   */\n    tag_23:\n        /* \"#utility.yul\":1588:1591   */\n      0xc0\n        /* \"#utility.yul\":1573:1592   */\n      dup2\n      add\n        /* \"#utility.yul\":1601:1648   */\n      tag_138\n        /* \"#utility.yul\":1577:1586   */\n      dup3\n        /* \"#utility.yul\":1630:1636   */\n      dup5\n        /* \"#utility.yul\":1601:1648   */\n      tag_125\n      jump\t// in\n    tag_138:\n        /* \"#utility.yul\":1400:1654   */\n      swap3\n      swap2\n      pop\n      pop\n      jump\t// out\n        /* \"#utility.yul\":1659:1832   */\n    tag_126:\n        /* \"#utility.yul\":1727:1747   */\n      dup1\n      calldataload\n      sub(shl(0xa0, 0x01), 0x01)\n        /* \"#utility.yul\":1776:1807   */\n      dup2\n      and\n        /* \"#utility.yul\":1766:1808   */\n      dup2\n      eq\n        /* \"#utility.yul\":1756:1826   */\n      tag_140\n      jumpi\n        /* \"#utility.yul\":1822:1823   */\n      0x00\n        /* \"#utility.yul\":1819:1820   */\n      dup1\n        /* \"#utility.yul\":1812:1824   */\n      revert\n        /* \"#utility.yul\":1756:1826   */\n    tag_140:\n        /* \"#utility.yul\":1659:1832   */\n      swap2\n      swap1\n      pop\n      jump\t// out\n        /* \"#utility.yul\":1837:2159   */\n    tag_26:\n        /* \"#utility.yul\":1914:1920   */\n      0x00\n        /* \"#utility.yul\":1922:1928   */\n      dup1\n        /* \"#utility.yul\":1930:1936   */\n      0x00\n        /* \"#utility.yul\":1983:1985   */\n      0x60\n        /* \"#utility.yul\":1971:1980   */\n      dup5\n        /* \"#utility.yul\":1962:1969   */\n      dup7\n        /* \"#utility.yul\":1958:1981   */\n      sub\n        /* \"#utility.yul\":1954:1986   */\n      slt\n        /* \"#utility.yul\":1951:2003   */\n      iszero\n      tag_142\n      jumpi\n        /* \"#utility.yul\":1999:2000   */\n      0x00\n        /* \"#utility.yul\":1996:1997   */\n      dup1\n        /* \"#utility.yul\":1989:2001   */\n      revert\n        /* \"#utility.yul\":1951:2003   */\n    tag_142:\n        /* \"#utility.yul\":2022:2051   */\n      tag_143\n        /* \"#utility.yul\":2041:2050   */\n      dup5\n        /* \"#utility.yul\":2022:2051   */\n      tag_126\n      jump\t// in\n    tag_143:\n        /* \"#utility.yul\":2012:2051   */\n      swap6\n        /* \"#utility.yul\":2098:2100   */\n      0x20\n        /* \"#utility.yul\":2083:2101   */\n      dup6\n      add\n        /* \"#utility.yul\":2070:2102   */\n      calldataload\n      swap6\n      pop\n        /* \"#utility.yul\":2149:2151   */\n      0x40\n        /* \"#utility.yul\":2134:2152   */\n      swap1\n      swap5\n      add\n        /* \"#utility.yul\":2121:2153   */\n      calldataload\n      swap4\n        /* \"#utility.yul\":1837:2159   */\n      swap3\n      pop\n      pop\n      pop\n      jump\t// out\n        /* \"#utility.yul\":2164:2418   */\n    tag_30:\n        /* \"#utility.yul\":2232:2238   */\n      0x00\n        /* \"#utility.yul\":2240:2246   */\n      dup1\n        /* \"#utility.yul\":2293:2295   */\n      0x40\n        /* \"#utility.yul\":2281:2290   */\n      dup4\n        /* \"#utility.yul\":2272:2279   */\n      dup6\n        /* \"#utility.yul\":2268:2291   */\n      sub\n        /* \"#utility.yul\":2264:2296   */\n      slt\n        /* \"#utility.yul\":2261:2313   */\n      iszero\n      tag_145\n      jumpi\n        /* \"#utility.yul\":2309:2310   */\n      0x00\n        /* \"#utility.yul\":2306:2307   */\n      dup1\n        /* \"#utility.yul\":2299:2311   */\n      revert\n        /* \"#utility.yul\":2261:2313   */\n    tag_145:\n        /* \"#utility.yul\":2332:2361   */\n      tag_146\n        /* \"#utility.yul\":2351:2360   */\n      dup4\n        /* \"#utility.yul\":2332:2361   */\n      tag_126\n      jump\t// in\n    tag_146:\n        /* \"#utility.yul\":2322:2361   */\n      swap5\n        /* \"#utility.yul\":2408:2410   */\n      0x20\n        /* \"#utility.yul\":2393:2411   */\n      swap4\n      swap1\n      swap4\n      add\n        /* \"#utility.yul\":2380:2412   */\n      calldataload\n      swap4\n      pop\n      pop\n      pop\n        /* \"#utility.yul\":2164:2418   */\n      jump\t// out\n        /* \"#utility.yul\":2423:2550   */\n    tag_127:\n        /* \"#utility.yul\":2484:2494   */\n      0x4e487b71\n        /* \"#utility.yul\":2479:2482   */\n      0xe0\n        /* \"#utility.yul\":2475:2495   */\n      shl\n        /* \"#utility.yul\":2472:2473   */\n      0x00\n        /* \"#utility.yul\":2465:2496   */\n      mstore\n        /* \"#utility.yul\":2515:2519   */\n      0x11\n        /* \"#utility.yul\":2512:2513   */\n      0x04\n        /* \"#utility.yul\":2505:2520   */\n      mstore\n        /* \"#utility.yul\":2539:2543   */\n      0x24\n        /* \"#utility.yul\":2536:2537   */\n      0x00\n        /* \"#utility.yul\":2529:2544   */\n      revert\n        /* \"#utility.yul\":2555:2680   */\n    tag_43:\n        /* \"#utility.yul\":2595:2599   */\n      0x00\n        /* \"#utility.yul\":2623:2624   */\n      dup3\n        /* \"#utility.yul\":2620:2621   */\n      dup3\n        /* \"#utility.yul\":2617:2625   */\n      lt\n        /* \"#utility.yul\":2614:2648   */\n      iszero\n      tag_150\n      jumpi\n        /* \"#utility.yul\":2628:2646   */\n      tag_150\n      tag_127\n      jump\t// in\n    tag_150:\n      pop\n        /* \"#utility.yul\":2665:2674   */\n      sub\n      swap1\n        /* \"#utility.yul\":2555:2680   */\n      jump\t// out\n        /* \"#utility.yul\":2685:2812   */\n    tag_46:\n        /* \"#utility.yul\":2746:2756   */\n      0x4e487b71\n        /* \"#utility.yul\":2741:2744   */\n      0xe0\n        /* \"#utility.yul\":2737:2757   */\n      shl\n        /* \"#utility.yul\":2734:2735   */\n      0x00\n        /* \"#utility.yul\":2727:2758   */\n      mstore\n        /* \"#utility.yul\":2777:2781   */\n      0x41\n        /* \"#utility.yul\":2774:2775   */\n      0x04\n        /* \"#utility.yul\":2767:2782   */\n      mstore\n        /* \"#utility.yul\":2801:2805   */\n      0x24\n        /* \"#utility.yul\":2798:2799   */\n      0x00\n        /* \"#utility.yul\":2791:2806   */\n      revert\n        /* \"#utility.yul\":2817:2945   */\n    tag_55:\n        /* \"#utility.yul\":2857:2860   */\n      0x00\n        /* \"#utility.yul\":2888:2889   */\n      dup3\n        /* \"#utility.yul\":2884:2890   */\n      not\n        /* \"#utility.yul\":2881:2882   */\n      dup3\n        /* \"#utility.yul\":2878:2891   */\n      gt\n        /* \"#utility.yul\":2875:2914   */\n      iszero\n      tag_154\n      jumpi\n        /* \"#utility.yul\":2894:2912   */\n      tag_154\n      tag_127\n      jump\t// in\n    tag_154:\n      pop\n        /* \"#utility.yul\":2930:2939   */\n      add\n      swap1\n        /* \"#utility.yul\":2817:2945   */\n      jump\t// out\n        /* \"#utility.yul\":2950:3077   */\n    tag_60:\n        /* \"#utility.yul\":3011:3021   */\n      0x4e487b71\n        /* \"#utility.yul\":3006:3009   */\n      0xe0\n        /* \"#utility.yul\":3002:3022   */\n      shl\n        /* \"#utility.yul\":2999:3000   */\n      0x00\n        /* \"#utility.yul\":2992:3023   */\n      mstore\n        /* \"#utility.yul\":3042:3046   */\n      0x32\n        /* \"#utility.yul\":3039:3040   */\n      0x04\n        /* \"#utility.yul\":3032:3047   */\n      mstore\n        /* \"#utility.yul\":3066:3070   */\n      0x24\n        /* \"#utility.yul\":3063:3064   */\n      0x00\n        /* \"#utility.yul\":3056:3071   */\n      revert\n        /* \"#utility.yul\":3082:3217   */\n    tag_63:\n        /* \"#utility.yul\":3121:3124   */\n      0x00\n        /* \"#utility.yul\":3142:3159   */\n      0x01\n      dup3\n      add\n        /* \"#utility.yul\":3139:3182   */\n      tag_158\n      jumpi\n        /* \"#utility.yul\":3162:3180   */\n      tag_158\n      tag_127\n      jump\t// in\n    tag_158:\n      pop\n        /* \"#utility.yul\":3209:3210   */\n      0x01\n        /* \"#utility.yul\":3198:3211   */\n      add\n      swap1\n        /* \"#utility.yul\":3082:3217   */\n      jump\t// out\n\n    auxdata: 0xa264697066735822122014ad74bbfe82f2968b41034ec41a3c663a005bda807c11e108f5b2462fab4ee964736f6c634300080d0033\n}\n",
				"bytecode": {
					"linkReferences": {},
					"object": "608060405234801561001057600080fd5b506001600055610af4806100256000396000f3fe6080604052600436106100555760003560e01c80630f08efe01461005a578063202e3740146100855780632a45b2501461009a57806358eb2df5146100c7578063c23b139e146100dc578063c7be7a491461009a575b600080fd5b34801561006657600080fd5b5061006f6100ef565b60405161007c9190610940565b60405180910390f35b34801561009157600080fd5b5061006f61027e565b3480156100a657600080fd5b506100ba6100b536600461098e565b61044a565b60405161007c91906109a7565b6100da6100d53660046109d7565b6104b6565b005b6100da6100ea366004610a0a565b6106d6565b606060006100fc60015490565b9050600061010960025490565b6001546101169190610a4a565b90506000808267ffffffffffffffff81111561013457610134610a61565b60405190808252806020026020018201604052801561016d57816020015b61015a6108a5565b8152602001906001900390816101525790505b50905060005b8481101561027557600060038161018b846001610a77565b81526020810191909152604001600020600401546001600160a01b0316036102635760006003816101bd846001610a77565b81526020808201929092526040908101600090812054808252600380855291839020835160c0810185528154815260018201546001600160a01b0390811696820196909652600282015494810194909452918201548416606084015260048201549093166080830152600581015460a083015285519293509185908790811061024857610248610a8f565b602090810291909101015261025e600186610a77565b945050505b8061026d81610aa5565b915050610173565b50949350505050565b6060600061028b60015490565b905060008060005b838110156102ed5733600360006102ab846001610a77565b81526020810191909152604001600020600401546001600160a01b0316036102db576102d8600184610a77565b92505b806102e581610aa5565b915050610293565b5060008267ffffffffffffffff81111561030957610309610a61565b60405190808252806020026020018201604052801561034257816020015b61032f6108a5565b8152602001906001900390816103275790505b50905060005b84811015610275573360036000610360846001610a77565b81526020810191909152604001600020600401546001600160a01b031603610438576000600381610392846001610a77565b81526020808201929092526040908101600090812054808252600380855291839020835160c0810185528154815260018201546001600160a01b0390811696820196909652600282015494810194909452918201548416606084015260048201549093166080830152600581015460a083015285519293509185908790811061041d5761041d610a8f565b6020908102919091010152610433600186610a77565b945050505b8061044281610aa5565b915050610348565b6104526108a5565b50600090815260036020818152604092839020835160c0810185528154815260018201546001600160a01b0390811693820193909352600282015494810194909452918201548116606084015260048201541660808301526005015460a082015290565b60026000540361050d5760405162461bcd60e51b815260206004820152601f60248201527f5265656e7472616e637947756172643a207265656e7472616e742063616c6c0060448201526064015b60405180910390fd5b60026000558061055f5760405162461bcd60e51b815260206004820152601c60248201527f5072696365206d757374206265206174206c65617374203120776569000000006044820152606401610504565b61056d600180546001019055565b600061057860015490565b6040805160c0810182528281526001600160a01b0387811660208084018281528486018a8152336060870181815260006080890181815260a08a018e81528c8352600397889052918b902099518a55945160018a0180546001600160a01b0319908116928b16929092179055935160028a01559051948801805484169588169590951790945591516004808801805490931691909616179055905160059094019390935592516323b872dd60e01b81529081019190915230602482015260448101869052919250906323b872dd90606401600060405180830381600087803b15801561066357600080fd5b505af1158015610677573d6000803e3d6000fd5b505060408051338152600060208201529081018590528592506001600160a01b038716915083907f2ad024d53a0dc50c130967f8d4941927ee087ea31394cebb2b9599d3706c9c009060600160405180910390a4505060016000555050565b6002600054036107285760405162461bcd60e51b815260206004820152601f60248201527f5265656e7472616e637947756172643a207265656e7472616e742063616c6c006044820152606401610504565b6002600081815582815260036020526040902060058101549101543482146107ba576040805162461bcd60e51b81526020600482015260248101919091527f506c65617365207375626d6974207468652061736b696e67207072696365206960448201527f6e206f7264657220746f20636f6d706c657465207468652070757263686173656064820152608401610504565b60008381526003602081905260408083209091015490516001600160a01b03909116913480156108fc02929091818181858888f19350505050158015610804573d6000803e3d6000fd5b506040516323b872dd60e01b8152306004820152336024820152604481018290526001600160a01b038516906323b872dd90606401600060405180830381600087803b15801561085357600080fd5b505af1158015610867573d6000803e3d6000fd5b505050600084815260036020526040902060040180546001600160a01b031916331790555061089a600280546001019055565b505060016000555050565b6040518060c001604052806000815260200160006001600160a01b031681526020016000815260200160006001600160a01b0316815260200160006001600160a01b03168152602001600081525090565b80518252602081015160018060a01b03808216602085015260408301516040850152806060840151166060850152806080840151166080850152505060a081015160a08301525050565b6020808252825182820181905260009190848201906040850190845b818110156109825761096f8385516108f6565b9284019260c0929092019160010161095c565b50909695505050505050565b6000602082840312156109a057600080fd5b5035919050565b60c081016109b582846108f6565b92915050565b80356001600160a01b03811681146109d257600080fd5b919050565b6000806000606084860312156109ec57600080fd5b6109f5846109bb565b95602085013595506040909401359392505050565b60008060408385031215610a1d57600080fd5b610a26836109bb565b946020939093013593505050565b634e487b7160e01b600052601160045260246000fd5b600082821015610a5c57610a5c610a34565b500390565b634e487b7160e01b600052604160045260246000fd5b60008219821115610a8a57610a8a610a34565b500190565b634e487b7160e01b600052603260045260246000fd5b600060018201610ab757610ab7610a34565b506001019056fea264697066735822122014ad74bbfe82f2968b41034ec41a3c663a005bda807c11e108f5b2462fab4ee964736f6c634300080d0033",
					"opcodes": "PUSH1 0x80 PUSH1 0x40 MSTORE CALLVALUE DUP1 ISZERO PUSH2 0x10 JUMPI PUSH1 0x0 DUP1 REVERT JUMPDEST POP PUSH1 0x1 PUSH1 0x0 SSTORE PUSH2 0xAF4 DUP1 PUSH2 0x25 PUSH1 0x0 CODECOPY PUSH1 0x0 RETURN INVALID PUSH1 0x80 PUSH1 0x40 MSTORE PUSH1 0x4 CALLDATASIZE LT PUSH2 0x55 JUMPI PUSH1 0x0 CALLDATALOAD PUSH1 0xE0 SHR DUP1 PUSH4 0xF08EFE0 EQ PUSH2 0x5A JUMPI DUP1 PUSH4 0x202E3740 EQ PUSH2 0x85 JUMPI DUP1 PUSH4 0x2A45B250 EQ PUSH2 0x9A JUMPI DUP1 PUSH4 0x58EB2DF5 EQ PUSH2 0xC7 JUMPI DUP1 PUSH4 0xC23B139E EQ PUSH2 0xDC JUMPI DUP1 PUSH4 0xC7BE7A49 EQ PUSH2 0x9A JUMPI JUMPDEST PUSH1 0x0 DUP1 REVERT JUMPDEST CALLVALUE DUP1 ISZERO PUSH2 0x66 JUMPI PUSH1 0x0 DUP1 REVERT JUMPDEST POP PUSH2 0x6F PUSH2 0xEF JUMP JUMPDEST PUSH1 0x40 MLOAD PUSH2 0x7C SWAP2 SWAP1 PUSH2 0x940 JUMP JUMPDEST PUSH1 0x40 MLOAD DUP1 SWAP2 SUB SWAP1 RETURN JUMPDEST CALLVALUE DUP1 ISZERO PUSH2 0x91 JUMPI PUSH1 0x0 DUP1 REVERT JUMPDEST POP PUSH2 0x6F PUSH2 0x27E JUMP JUMPDEST CALLVALUE DUP1 ISZERO PUSH2 0xA6 JUMPI PUSH1 0x0 DUP1 REVERT JUMPDEST POP PUSH2 0xBA PUSH2 0xB5 CALLDATASIZE PUSH1 0x4 PUSH2 0x98E JUMP JUMPDEST PUSH2 0x44A JUMP JUMPDEST PUSH1 0x40 MLOAD PUSH2 0x7C SWAP2 SWAP1 PUSH2 0x9A7 JUMP JUMPDEST PUSH2 0xDA PUSH2 0xD5 CALLDATASIZE PUSH1 0x4 PUSH2 0x9D7 JUMP JUMPDEST PUSH2 0x4B6 JUMP JUMPDEST STOP JUMPDEST PUSH2 0xDA PUSH2 0xEA CALLDATASIZE PUSH1 0x4 PUSH2 0xA0A JUMP JUMPDEST PUSH2 0x6D6 JUMP JUMPDEST PUSH1 0x60 PUSH1 0x0 PUSH2 0xFC PUSH1 0x1 SLOAD SWAP1 JUMP JUMPDEST SWAP1 POP PUSH1 0x0 PUSH2 0x109 PUSH1 0x2 SLOAD SWAP1 JUMP JUMPDEST PUSH1 0x1 SLOAD PUSH2 0x116 SWAP2 SWAP1 PUSH2 0xA4A JUMP JUMPDEST SWAP1 POP PUSH1 0x0 DUP1 DUP3 PUSH8 0xFFFFFFFFFFFFFFFF DUP2 GT ISZERO PUSH2 0x134 JUMPI PUSH2 0x134 PUSH2 0xA61 JUMP JUMPDEST PUSH1 0x40 MLOAD SWAP1 DUP1 DUP3 MSTORE DUP1 PUSH1 0x20 MUL PUSH1 0x20 ADD DUP3 ADD PUSH1 0x40 MSTORE DUP1 ISZERO PUSH2 0x16D JUMPI DUP2 PUSH1 0x20 ADD JUMPDEST PUSH2 0x15A PUSH2 0x8A5 JUMP JUMPDEST DUP2 MSTORE PUSH1 0x20 ADD SWAP1 PUSH1 0x1 SWAP1 SUB SWAP1 DUP2 PUSH2 0x152 JUMPI SWAP1 POP JUMPDEST POP SWAP1 POP PUSH1 0x0 JUMPDEST DUP5 DUP2 LT ISZERO PUSH2 0x275 JUMPI PUSH1 0x0 PUSH1 0x3 DUP2 PUSH2 0x18B DUP5 PUSH1 0x1 PUSH2 0xA77 JUMP JUMPDEST DUP2 MSTORE PUSH1 0x20 DUP2 ADD SWAP2 SWAP1 SWAP2 MSTORE PUSH1 0x40 ADD PUSH1 0x0 KECCAK256 PUSH1 0x4 ADD SLOAD PUSH1 0x1 PUSH1 0x1 PUSH1 0xA0 SHL SUB AND SUB PUSH2 0x263 JUMPI PUSH1 0x0 PUSH1 0x3 DUP2 PUSH2 0x1BD DUP5 PUSH1 0x1 PUSH2 0xA77 JUMP JUMPDEST DUP2 MSTORE PUSH1 0x20 DUP1 DUP3 ADD SWAP3 SWAP1 SWAP3 MSTORE PUSH1 0x40 SWAP1 DUP2 ADD PUSH1 0x0 SWAP1 DUP2 KECCAK256 SLOAD DUP1 DUP3 MSTORE PUSH1 0x3 DUP1 DUP6 MSTORE SWAP2 DUP4 SWAP1 KECCAK256 DUP4 MLOAD PUSH1 0xC0 DUP2 ADD DUP6 MSTORE DUP2 SLOAD DUP2 MSTORE PUSH1 0x1 DUP3 ADD SLOAD PUSH1 0x1 PUSH1 0x1 PUSH1 0xA0 SHL SUB SWAP1 DUP2 AND SWAP7 DUP3 ADD SWAP7 SWAP1 SWAP7 MSTORE PUSH1 0x2 DUP3 ADD SLOAD SWAP5 DUP2 ADD SWAP5 SWAP1 SWAP5 MSTORE SWAP2 DUP3 ADD SLOAD DUP5 AND PUSH1 0x60 DUP5 ADD MSTORE PUSH1 0x4 DUP3 ADD SLOAD SWAP1 SWAP4 AND PUSH1 0x80 DUP4 ADD MSTORE PUSH1 0x5 DUP2 ADD SLOAD PUSH1 0xA0 DUP4 ADD MSTORE DUP6 MLOAD SWAP3 SWAP4 POP SWAP2 DUP6 SWAP1 DUP8 SWAP1 DUP2 LT PUSH2 0x248 JUMPI PUSH2 0x248 PUSH2 0xA8F JUMP JUMPDEST PUSH1 0x20 SWAP1 DUP2 MUL SWAP2 SWAP1 SWAP2 ADD ADD MSTORE PUSH2 0x25E PUSH1 0x1 DUP7 PUSH2 0xA77 JUMP JUMPDEST SWAP5 POP POP POP JUMPDEST DUP1 PUSH2 0x26D DUP2 PUSH2 0xAA5 JUMP JUMPDEST SWAP2 POP POP PUSH2 0x173 JUMP JUMPDEST POP SWAP5 SWAP4 POP POP POP POP JUMP JUMPDEST PUSH1 0x60 PUSH1 0x0 PUSH2 0x28B PUSH1 0x1 SLOAD SWAP1 JUMP JUMPDEST SWAP1 POP PUSH1 0x0 DUP1 PUSH1 0x0 JUMPDEST DUP4 DUP2 LT ISZERO PUSH2 0x2ED JUMPI CALLER PUSH1 0x3 PUSH1 0x0 PUSH2 0x2AB DUP5 PUSH1 0x1 PUSH2 0xA77 JUMP JUMPDEST DUP2 MSTORE PUSH1 0x20 DUP2 ADD SWAP2 SWAP1 SWAP2 MSTORE PUSH1 0x40 ADD PUSH1 0x0 KECCAK256 PUSH1 0x4 ADD SLOAD PUSH1 0x1 PUSH1 0x1 PUSH1 0xA0 SHL SUB AND SUB PUSH2 0x2DB JUMPI PUSH2 0x2D8 PUSH1 0x1 DUP5 PUSH2 0xA77 JUMP JUMPDEST SWAP3 POP JUMPDEST DUP1 PUSH2 0x2E5 DUP2 PUSH2 0xAA5 JUMP JUMPDEST SWAP2 POP POP PUSH2 0x293 JUMP JUMPDEST POP PUSH1 0x0 DUP3 PUSH8 0xFFFFFFFFFFFFFFFF DUP2 GT ISZERO PUSH2 0x309 JUMPI PUSH2 0x309 PUSH2 0xA61 JUMP JUMPDEST PUSH1 0x40 MLOAD SWAP1 DUP1 DUP3 MSTORE DUP1 PUSH1 0x20 MUL PUSH1 0x20 ADD DUP3 ADD PUSH1 0x40 MSTORE DUP1 ISZERO PUSH2 0x342 JUMPI DUP2 PUSH1 0x20 ADD JUMPDEST PUSH2 0x32F PUSH2 0x8A5 JUMP JUMPDEST DUP2 MSTORE PUSH1 0x20 ADD SWAP1 PUSH1 0x1 SWAP1 SUB SWAP1 DUP2 PUSH2 0x327 JUMPI SWAP1 POP JUMPDEST POP SWAP1 POP PUSH1 0x0 JUMPDEST DUP5 DUP2 LT ISZERO PUSH2 0x275 JUMPI CALLER PUSH1 0x3 PUSH1 0x0 PUSH2 0x360 DUP5 PUSH1 0x1 PUSH2 0xA77 JUMP JUMPDEST DUP2 MSTORE PUSH1 0x20 DUP2 ADD SWAP2 SWAP1 SWAP2 MSTORE PUSH1 0x40 ADD PUSH1 0x0 KECCAK256 PUSH1 0x4 ADD SLOAD PUSH1 0x1 PUSH1 0x1 PUSH1 0xA0 SHL SUB AND SUB PUSH2 0x438 JUMPI PUSH1 0x0 PUSH1 0x3 DUP2 PUSH2 0x392 DUP5 PUSH1 0x1 PUSH2 0xA77 JUMP JUMPDEST DUP2 MSTORE PUSH1 0x20 DUP1 DUP3 ADD SWAP3 SWAP1 SWAP3 MSTORE PUSH1 0x40 SWAP1 DUP2 ADD PUSH1 0x0 SWAP1 DUP2 KECCAK256 SLOAD DUP1 DUP3 MSTORE PUSH1 0x3 DUP1 DUP6 MSTORE SWAP2 DUP4 SWAP1 KECCAK256 DUP4 MLOAD PUSH1 0xC0 DUP2 ADD DUP6 MSTORE DUP2 SLOAD DUP2 MSTORE PUSH1 0x1 DUP3 ADD SLOAD PUSH1 0x1 PUSH1 0x1 PUSH1 0xA0 SHL SUB SWAP1 DUP2 AND SWAP7 DUP3 ADD SWAP7 SWAP1 SWAP7 MSTORE PUSH1 0x2 DUP3 ADD SLOAD SWAP5 DUP2 ADD SWAP5 SWAP1 SWAP5 MSTORE SWAP2 DUP3 ADD SLOAD DUP5 AND PUSH1 0x60 DUP5 ADD MSTORE PUSH1 0x4 DUP3 ADD SLOAD SWAP1 SWAP4 AND PUSH1 0x80 DUP4 ADD MSTORE PUSH1 0x5 DUP2 ADD SLOAD PUSH1 0xA0 DUP4 ADD MSTORE DUP6 MLOAD SWAP3 SWAP4 POP SWAP2 DUP6 SWAP1 DUP8 SWAP1 DUP2 LT PUSH2 0x41D JUMPI PUSH2 0x41D PUSH2 0xA8F JUMP JUMPDEST PUSH1 0x20 SWAP1 DUP2 MUL SWAP2 SWAP1 SWAP2 ADD ADD MSTORE PUSH2 0x433 PUSH1 0x1 DUP7 PUSH2 0xA77 JUMP JUMPDEST SWAP5 POP POP POP JUMPDEST DUP1 PUSH2 0x442 DUP2 PUSH2 0xAA5 JUMP JUMPDEST SWAP2 POP POP PUSH2 0x348 JUMP JUMPDEST PUSH2 0x452 PUSH2 0x8A5 JUMP JUMPDEST POP PUSH1 0x0 SWAP1 DUP2 MSTORE PUSH1 0x3 PUSH1 0x20 DUP2 DUP2 MSTORE PUSH1 0x40 SWAP3 DUP4 SWAP1 KECCAK256 DUP4 MLOAD PUSH1 0xC0 DUP2 ADD DUP6 MSTORE DUP2 SLOAD DUP2 MSTORE PUSH1 0x1 DUP3 ADD SLOAD PUSH1 0x1 PUSH1 0x1 PUSH1 0xA0 SHL SUB SWAP1 DUP2 AND SWAP4 DUP3 ADD SWAP4 SWAP1 SWAP4 MSTORE PUSH1 0x2 DUP3 ADD SLOAD SWAP5 DUP2 ADD SWAP5 SWAP1 SWAP5 MSTORE SWAP2 DUP3 ADD SLOAD DUP2 AND PUSH1 0x60 DUP5 ADD MSTORE PUSH1 0x4 DUP3 ADD SLOAD AND PUSH1 0x80 DUP4 ADD MSTORE PUSH1 0x5 ADD SLOAD PUSH1 0xA0 DUP3 ADD MSTORE SWAP1 JUMP JUMPDEST PUSH1 0x2 PUSH1 0x0 SLOAD SUB PUSH2 0x50D JUMPI PUSH1 0x40 MLOAD PUSH3 0x461BCD PUSH1 0xE5 SHL DUP2 MSTORE PUSH1 0x20 PUSH1 0x4 DUP3 ADD MSTORE PUSH1 0x1F PUSH1 0x24 DUP3 ADD MSTORE PUSH32 0x5265656E7472616E637947756172643A207265656E7472616E742063616C6C00 PUSH1 0x44 DUP3 ADD MSTORE PUSH1 0x64 ADD JUMPDEST PUSH1 0x40 MLOAD DUP1 SWAP2 SUB SWAP1 REVERT JUMPDEST PUSH1 0x2 PUSH1 0x0 SSTORE DUP1 PUSH2 0x55F JUMPI PUSH1 0x40 MLOAD PUSH3 0x461BCD PUSH1 0xE5 SHL DUP2 MSTORE PUSH1 0x20 PUSH1 0x4 DUP3 ADD MSTORE PUSH1 0x1C PUSH1 0x24 DUP3 ADD MSTORE PUSH32 0x5072696365206D757374206265206174206C6561737420312077656900000000 PUSH1 0x44 DUP3 ADD MSTORE PUSH1 0x64 ADD PUSH2 0x504 JUMP JUMPDEST PUSH2 0x56D PUSH1 0x1 DUP1 SLOAD PUSH1 0x1 ADD SWAP1 SSTORE JUMP JUMPDEST PUSH1 0x0 PUSH2 0x578 PUSH1 0x1 SLOAD SWAP1 JUMP JUMPDEST PUSH1 0x40 DUP1 MLOAD PUSH1 0xC0 DUP2 ADD DUP3 MSTORE DUP3 DUP2 MSTORE PUSH1 0x1 PUSH1 0x1 PUSH1 0xA0 SHL SUB DUP8 DUP2 AND PUSH1 0x20 DUP1 DUP5 ADD DUP3 DUP2 MSTORE DUP5 DUP7 ADD DUP11 DUP2 MSTORE CALLER PUSH1 0x60 DUP8 ADD DUP2 DUP2 MSTORE PUSH1 0x0 PUSH1 0x80 DUP10 ADD DUP2 DUP2 MSTORE PUSH1 0xA0 DUP11 ADD DUP15 DUP2 MSTORE DUP13 DUP4 MSTORE PUSH1 0x3 SWAP8 DUP9 SWAP1 MSTORE SWAP2 DUP12 SWAP1 KECCAK256 SWAP10 MLOAD DUP11 SSTORE SWAP5 MLOAD PUSH1 0x1 DUP11 ADD DUP1 SLOAD PUSH1 0x1 PUSH1 0x1 PUSH1 0xA0 SHL SUB NOT SWAP1 DUP2 AND SWAP3 DUP12 AND SWAP3 SWAP1 SWAP3 OR SWAP1 SSTORE SWAP4 MLOAD PUSH1 0x2 DUP11 ADD SSTORE SWAP1 MLOAD SWAP5 DUP9 ADD DUP1 SLOAD DUP5 AND SWAP6 DUP9 AND SWAP6 SWAP1 SWAP6 OR SWAP1 SWAP5 SSTORE SWAP2 MLOAD PUSH1 0x4 DUP1 DUP9 ADD DUP1 SLOAD SWAP1 SWAP4 AND SWAP2 SWAP1 SWAP7 AND OR SWAP1 SSTORE SWAP1 MLOAD PUSH1 0x5 SWAP1 SWAP5 ADD SWAP4 SWAP1 SWAP4 SSTORE SWAP3 MLOAD PUSH4 0x23B872DD PUSH1 0xE0 SHL DUP2 MSTORE SWAP1 DUP2 ADD SWAP2 SWAP1 SWAP2 MSTORE ADDRESS PUSH1 0x24 DUP3 ADD MSTORE PUSH1 0x44 DUP2 ADD DUP7 SWAP1 MSTORE SWAP2 SWAP3 POP SWAP1 PUSH4 0x23B872DD SWAP1 PUSH1 0x64 ADD PUSH1 0x0 PUSH1 0x40 MLOAD DUP1 DUP4 SUB DUP2 PUSH1 0x0 DUP8 DUP1 EXTCODESIZE ISZERO DUP1 ISZERO PUSH2 0x663 JUMPI PUSH1 0x0 DUP1 REVERT JUMPDEST POP GAS CALL ISZERO DUP1 ISZERO PUSH2 0x677 JUMPI RETURNDATASIZE PUSH1 0x0 DUP1 RETURNDATACOPY RETURNDATASIZE PUSH1 0x0 REVERT JUMPDEST POP POP PUSH1 0x40 DUP1 MLOAD CALLER DUP2 MSTORE PUSH1 0x0 PUSH1 0x20 DUP3 ADD MSTORE SWAP1 DUP2 ADD DUP6 SWAP1 MSTORE DUP6 SWAP3 POP PUSH1 0x1 PUSH1 0x1 PUSH1 0xA0 SHL SUB DUP8 AND SWAP2 POP DUP4 SWAP1 PUSH32 0x2AD024D53A0DC50C130967F8D4941927EE087EA31394CEBB2B9599D3706C9C00 SWAP1 PUSH1 0x60 ADD PUSH1 0x40 MLOAD DUP1 SWAP2 SUB SWAP1 LOG4 POP POP PUSH1 0x1 PUSH1 0x0 SSTORE POP POP JUMP JUMPDEST PUSH1 0x2 PUSH1 0x0 SLOAD SUB PUSH2 0x728 JUMPI PUSH1 0x40 MLOAD PUSH3 0x461BCD PUSH1 0xE5 SHL DUP2 MSTORE PUSH1 0x20 PUSH1 0x4 DUP3 ADD MSTORE PUSH1 0x1F PUSH1 0x24 DUP3 ADD MSTORE PUSH32 0x5265656E7472616E637947756172643A207265656E7472616E742063616C6C00 PUSH1 0x44 DUP3 ADD MSTORE PUSH1 0x64 ADD PUSH2 0x504 JUMP JUMPDEST PUSH1 0x2 PUSH1 0x0 DUP2 DUP2 SSTORE DUP3 DUP2 MSTORE PUSH1 0x3 PUSH1 0x20 MSTORE PUSH1 0x40 SWAP1 KECCAK256 PUSH1 0x5 DUP2 ADD SLOAD SWAP2 ADD SLOAD CALLVALUE DUP3 EQ PUSH2 0x7BA JUMPI PUSH1 0x40 DUP1 MLOAD PUSH3 0x461BCD PUSH1 0xE5 SHL DUP2 MSTORE PUSH1 0x20 PUSH1 0x4 DUP3 ADD MSTORE PUSH1 0x24 DUP2 ADD SWAP2 SWAP1 SWAP2 MSTORE PUSH32 0x506C65617365207375626D6974207468652061736B696E672070726963652069 PUSH1 0x44 DUP3 ADD MSTORE PUSH32 0x6E206F7264657220746F20636F6D706C65746520746865207075726368617365 PUSH1 0x64 DUP3 ADD MSTORE PUSH1 0x84 ADD PUSH2 0x504 JUMP JUMPDEST PUSH1 0x0 DUP4 DUP2 MSTORE PUSH1 0x3 PUSH1 0x20 DUP2 SWAP1 MSTORE PUSH1 0x40 DUP1 DUP4 KECCAK256 SWAP1 SWAP2 ADD SLOAD SWAP1 MLOAD PUSH1 0x1 PUSH1 0x1 PUSH1 0xA0 SHL SUB SWAP1 SWAP2 AND SWAP2 CALLVALUE DUP1 ISZERO PUSH2 0x8FC MUL SWAP3 SWAP1 SWAP2 DUP2 DUP2 DUP2 DUP6 DUP9 DUP9 CALL SWAP4 POP POP POP POP ISZERO DUP1 ISZERO PUSH2 0x804 JUMPI RETURNDATASIZE PUSH1 0x0 DUP1 RETURNDATACOPY RETURNDATASIZE PUSH1 0x0 REVERT JUMPDEST POP PUSH1 0x40 MLOAD PUSH4 0x23B872DD PUSH1 0xE0 SHL DUP2 MSTORE ADDRESS PUSH1 0x4 DUP3 ADD MSTORE CALLER PUSH1 0x24 DUP3 ADD MSTORE PUSH1 0x44 DUP2 ADD DUP3 SWAP1 MSTORE PUSH1 0x1 PUSH1 0x1 PUSH1 0xA0 SHL SUB DUP6 AND SWAP1 PUSH4 0x23B872DD SWAP1 PUSH1 0x64 ADD PUSH1 0x0 PUSH1 0x40 MLOAD DUP1 DUP4 SUB DUP2 PUSH1 0x0 DUP8 DUP1 EXTCODESIZE ISZERO DUP1 ISZERO PUSH2 0x853 JUMPI PUSH1 0x0 DUP1 REVERT JUMPDEST POP GAS CALL ISZERO DUP1 ISZERO PUSH2 0x867 JUMPI RETURNDATASIZE PUSH1 0x0 DUP1 RETURNDATACOPY RETURNDATASIZE PUSH1 0x0 REVERT JUMPDEST POP POP POP PUSH1 0x0 DUP5 DUP2 MSTORE PUSH1 0x3 PUSH1 0x20 MSTORE PUSH1 0x40 SWAP1 KECCAK256 PUSH1 0x4 ADD DUP1 SLOAD PUSH1 0x1 PUSH1 0x1 PUSH1 0xA0 SHL SUB NOT AND CALLER OR SWAP1 SSTORE POP PUSH2 0x89A PUSH1 0x2 DUP1 SLOAD PUSH1 0x1 ADD SWAP1 SSTORE JUMP JUMPDEST POP POP PUSH1 0x1 PUSH1 0x0 SSTORE POP POP JUMP JUMPDEST PUSH1 0x40 MLOAD DUP1 PUSH1 0xC0 ADD PUSH1 0x40 MSTORE DUP1 PUSH1 0x0 DUP2 MSTORE PUSH1 0x20 ADD PUSH1 0x0 PUSH1 0x1 PUSH1 0x1 PUSH1 0xA0 SHL SUB AND DUP2 MSTORE PUSH1 0x20 ADD PUSH1 0x0 DUP2 MSTORE PUSH1 0x20 ADD PUSH1 0x0 PUSH1 0x1 PUSH1 0x1 PUSH1 0xA0 SHL SUB AND DUP2 MSTORE PUSH1 0x20 ADD PUSH1 0x0 PUSH1 0x1 PUSH1 0x1 PUSH1 0xA0 SHL SUB AND DUP2 MSTORE PUSH1 0x20 ADD PUSH1 0x0 DUP2 MSTORE POP SWAP1 JUMP JUMPDEST DUP1 MLOAD DUP3 MSTORE PUSH1 0x20 DUP2 ADD MLOAD PUSH1 0x1 DUP1 PUSH1 0xA0 SHL SUB DUP1 DUP3 AND PUSH1 0x20 DUP6 ADD MSTORE PUSH1 0x40 DUP4 ADD MLOAD PUSH1 0x40 DUP6 ADD MSTORE DUP1 PUSH1 0x60 DUP5 ADD MLOAD AND PUSH1 0x60 DUP6 ADD MSTORE DUP1 PUSH1 0x80 DUP5 ADD MLOAD AND PUSH1 0x80 DUP6 ADD MSTORE POP POP PUSH1 0xA0 DUP2 ADD MLOAD PUSH1 0xA0 DUP4 ADD MSTORE POP POP JUMP JUMPDEST PUSH1 0x20 DUP1 DUP3 MSTORE DUP3 MLOAD DUP3 DUP3 ADD DUP2 SWAP1 MSTORE PUSH1 0x0 SWAP2 SWAP1 DUP5 DUP3 ADD SWAP1 PUSH1 0x40 DUP6 ADD SWAP1 DUP5 JUMPDEST DUP2 DUP2 LT ISZERO PUSH2 0x982 JUMPI PUSH2 0x96F DUP4 DUP6 MLOAD PUSH2 0x8F6 JUMP JUMPDEST SWAP3 DUP5 ADD SWAP3 PUSH1 0xC0 SWAP3 SWAP1 SWAP3 ADD SWAP2 PUSH1 0x1 ADD PUSH2 0x95C JUMP JUMPDEST POP SWAP1 SWAP7 SWAP6 POP POP POP POP POP POP JUMP JUMPDEST PUSH1 0x0 PUSH1 0x20 DUP3 DUP5 SUB SLT ISZERO PUSH2 0x9A0 JUMPI PUSH1 0x0 DUP1 REVERT JUMPDEST POP CALLDATALOAD SWAP2 SWAP1 POP JUMP JUMPDEST PUSH1 0xC0 DUP2 ADD PUSH2 0x9B5 DUP3 DUP5 PUSH2 0x8F6 JUMP JUMPDEST SWAP3 SWAP2 POP POP JUMP JUMPDEST DUP1 CALLDATALOAD PUSH1 0x1 PUSH1 0x1 PUSH1 0xA0 SHL SUB DUP2 AND DUP2 EQ PUSH2 0x9D2 JUMPI PUSH1 0x0 DUP1 REVERT JUMPDEST SWAP2 SWAP1 POP JUMP JUMPDEST PUSH1 0x0 DUP1 PUSH1 0x0 PUSH1 0x60 DUP5 DUP7 SUB SLT ISZERO PUSH2 0x9EC JUMPI PUSH1 0x0 DUP1 REVERT JUMPDEST PUSH2 0x9F5 DUP5 PUSH2 0x9BB JUMP JUMPDEST SWAP6 PUSH1 0x20 DUP6 ADD CALLDATALOAD SWAP6 POP PUSH1 0x40 SWAP1 SWAP5 ADD CALLDATALOAD SWAP4 SWAP3 POP POP POP JUMP JUMPDEST PUSH1 0x0 DUP1 PUSH1 0x40 DUP4 DUP6 SUB SLT ISZERO PUSH2 0xA1D JUMPI PUSH1 0x0 DUP1 REVERT JUMPDEST PUSH2 0xA26 DUP4 PUSH2 0x9BB JUMP JUMPDEST SWAP5 PUSH1 0x20 SWAP4 SWAP1 SWAP4 ADD CALLDATALOAD SWAP4 POP POP POP JUMP JUMPDEST PUSH4 0x4E487B71 PUSH1 0xE0 SHL PUSH1 0x0 MSTORE PUSH1 0x11 PUSH1 0x4 MSTORE PUSH1 0x24 PUSH1 0x0 REVERT JUMPDEST PUSH1 0x0 DUP3 DUP3 LT ISZERO PUSH2 0xA5C JUMPI PUSH2 0xA5C PUSH2 0xA34 JUMP JUMPDEST POP SUB SWAP1 JUMP JUMPDEST PUSH4 0x4E487B71 PUSH1 0xE0 SHL PUSH1 0x0 MSTORE PUSH1 0x41 PUSH1 0x4 MSTORE PUSH1 0x24 PUSH1 0x0 REVERT JUMPDEST PUSH1 0x0 DUP3 NOT DUP3 GT ISZERO PUSH2 0xA8A JUMPI PUSH2 0xA8A PUSH2 0xA34 JUMP JUMPDEST POP ADD SWAP1 JUMP JUMPDEST PUSH4 0x4E487B71 PUSH1 0xE0 SHL PUSH1 0x0 MSTORE PUSH1 0x32 PUSH1 0x4 MSTORE PUSH1 0x24 PUSH1 0x0 REVERT JUMPDEST PUSH1 0x0 PUSH1 0x1 DUP3 ADD PUSH2 0xAB7 JUMPI PUSH2 0xAB7 PUSH2 0xA34 JUMP JUMPDEST POP PUSH1 0x1 ADD SWAP1 JUMP INVALID LOG2 PUSH5 0x6970667358 0x22 SLT KECCAK256 EQ 0xAD PUSH21 0xBBFE82F2968B41034EC41A3C663A005BDA807C11E1 ADDMOD CREATE2 0xB2 CHAINID 0x2F 0xAB 0x4E 0xE9 PUSH5 0x736F6C6343 STOP ADDMOD 0xD STOP CALLER "
				},
				"gasEstimates": {
					"creation": {
						"codeDepositCost": "560800",
						"executionCost": "22700",
						"totalCost": "583500"
					},
					"external": {
						"createMarketItem(address,uint256,uint256)": "infinite",
						"createMarketSale(address,uint256)": "infinite",
						"fetchMarketItem(uint256)": "13639",
						"fetchMarketItems()": "infinite",
						"fetchMyNFTs()": "infinite",
						"getMarketItem(uint256)": "13705"
					}
				},
				"methodIdentifiers": {
					"createMarketItem(address,uint256,uint256)": "58eb2df5",
					"createMarketSale(address,uint256)": "c23b139e",
					"fetchMarketItem(uint256)": "2a45b250",
					"fetchMarketItems()": "0f08efe0",
					"fetchMyNFTs()": "202e3740",
					"getMarketItem(uint256)": "c7be7a49"
				}
			},
			"storageLayout": {
				"storage": [
					{
						"astId": 208,
						"contract": "contracts/Marketplace2/Marketplace.sol:NFTMarket",
						"label": "_status",
						"offset": 0,
						"slot": "0",
						"type": "t_uint256"
					},
					{
						"astId": 246,
						"contract": "contracts/Marketplace2/Marketplace.sol:NFTMarket",
						"label": "_itemIds",
						"offset": 0,
						"slot": "1",
						"type": "t_struct(Counter)130_storage"
					},
					{
						"astId": 249,
						"contract": "contracts/Marketplace2/Marketplace.sol:NFTMarket",
						"label": "_itemsSold",
						"offset": 0,
						"slot": "2",
						"type": "t_struct(Counter)130_storage"
					},
					{
						"astId": 267,
						"contract": "contracts/Marketplace2/Marketplace.sol:NFTMarket",
						"label": "idToMarketItem",
						"offset": 0,
						"slot": "3",
						"type": "t_mapping(t_uint256,t_struct(MarketItem)262_storage)"
					}
				],
				"types": {
					"t_address": {
						"encoding": "inplace",
						"label": "address",
						"numberOfBytes": "20"
					},
					"t_address_payable": {
						"encoding": "inplace",
						"label": "address payable",
						"numberOfBytes": "20"
					},
					"t_mapping(t_uint256,t_struct(MarketItem)262_storage)": {
						"encoding": "mapping",
						"key": "t_uint256",
						"label": "mapping(uint256 => struct NFTMarket.MarketItem)",
						"numberOfBytes": "32",
						"value": "t_struct(MarketItem)262_storage"
					},
					"t_struct(Counter)130_storage": {
						"encoding": "inplace",
						"label": "struct Counters.Counter",
						"members": [
							{
								"astId": 129,
								"contract": "contracts/Marketplace2/Marketplace.sol:NFTMarket",
								"label": "_value",
								"offset": 0,
								"slot": "0",
								"type": "t_uint256"
							}
						],
						"numberOfBytes": "32"
					},
					"t_struct(MarketItem)262_storage": {
						"encoding": "inplace",
						"label": "struct NFTMarket.MarketItem",
						"members": [
							{
								"astId": 251,
								"contract": "contracts/Marketplace2/Marketplace.sol:NFTMarket",
								"label": "itemId",
								"offset": 0,
								"slot": "0",
								"type": "t_uint256"
							},
							{
								"astId": 253,
								"contract": "contracts/Marketplace2/Marketplace.sol:NFTMarket",
								"label": "nftContract",
								"offset": 0,
								"slot": "1",
								"type": "t_address"
							},
							{
								"astId": 255,
								"contract": "contracts/Marketplace2/Marketplace.sol:NFTMarket",
								"label": "tokenId",
								"offset": 0,
								"slot": "2",
								"type": "t_uint256"
							},
							{
								"astId": 257,
								"contract": "contracts/Marketplace2/Marketplace.sol:NFTMarket",
								"label": "seller",
								"offset": 0,
								"slot": "3",
								"type": "t_address_payable"
							},
							{
								"astId": 259,
								"contract": "contracts/Marketplace2/Marketplace.sol:NFTMarket",
								"label": "owner",
								"offset": 0,
								"slot": "4",
								"type": "t_address_payable"
							},
							{
								"astId": 261,
								"contract": "contracts/Marketplace2/Marketplace.sol:NFTMarket",
								"label": "price",
								"offset": 0,
								"slot": "5",
								"type": "t_uint256"
							}
						],
						"numberOfBytes": "192"
					},
					"t_uint256": {
						"encoding": "inplace",
						"label": "uint256",
						"numberOfBytes": "32"
					}
				}
			},
			"userdoc": {
				"kind": "user",
				"methods": {},
				"version": 1
			}
		}
	}
}