{
	"contracts/Marketplace2/Marketplace.sol": {
		"MarketplaceStorage": {
			"abi": [
				{
					"anonymous": false,
					"inputs": [
						{
							"indexed": false,
							"internalType": "bytes32",
							"name": "id",
							"type": "bytes32"
						},
						{
							"indexed": true,
							"internalType": "uint256",
							"name": "assetId",
							"type": "uint256"
						},
						{
							"indexed": true,
							"internalType": "address",
							"name": "seller",
							"type": "address"
						},
						{
							"indexed": false,
							"internalType": "address",
							"name": "nftAddress",
							"type": "address"
						},
						{
							"indexed": false,
							"internalType": "uint256",
							"name": "price",
							"type": "uint256"
						},
						{
							"indexed": false,
							"internalType": "uint8",
							"name": "feePercent",
							"type": "uint8"
						},
						{
							"indexed": false,
							"internalType": "uint256",
							"name": "fee",
							"type": "uint256"
						},
						{
							"indexed": true,
							"internalType": "address",
							"name": "buyer",
							"type": "address"
						},
						{
							"indexed": false,
							"internalType": "string",
							"name": "currency",
							"type": "string"
						},
						{
							"indexed": false,
							"internalType": "uint256",
							"name": "createdAt",
							"type": "uint256"
						}
					],
					"name": "BuyItemSuccessful",
					"type": "event"
				},
				{
					"anonymous": false,
					"inputs": [
						{
							"indexed": false,
							"internalType": "address",
							"name": "nftAddress",
							"type": "address"
						},
						{
							"indexed": false,
							"internalType": "uint256",
							"name": "id",
							"type": "uint256"
						},
						{
							"indexed": true,
							"internalType": "uint256",
							"name": "assetId",
							"type": "uint256"
						},
						{
							"indexed": true,
							"internalType": "address",
							"name": "delistBy",
							"type": "address"
						},
						{
							"indexed": false,
							"internalType": "uint256",
							"name": "createdAt",
							"type": "uint256"
						}
					],
					"name": "DelistItemSuccessful",
					"type": "event"
				},
				{
					"anonymous": false,
					"inputs": [
						{
							"indexed": true,
							"internalType": "uint256",
							"name": "itemId",
							"type": "uint256"
						},
						{
							"indexed": true,
							"internalType": "address",
							"name": "nftContract",
							"type": "address"
						},
						{
							"indexed": true,
							"internalType": "uint256",
							"name": "tokenId",
							"type": "uint256"
						},
						{
							"indexed": false,
							"internalType": "address",
							"name": "seller",
							"type": "address"
						},
						{
							"indexed": false,
							"internalType": "address",
							"name": "owner",
							"type": "address"
						},
						{
							"indexed": false,
							"internalType": "uint256",
							"name": "price",
							"type": "uint256"
						}
					],
					"name": "MarketItemCreated",
					"type": "event"
				},
				{
					"anonymous": false,
					"inputs": [
						{
							"indexed": false,
							"internalType": "address",
							"name": "nftAddress",
							"type": "address"
						},
						{
							"indexed": false,
							"internalType": "bytes32",
							"name": "id",
							"type": "bytes32"
						},
						{
							"indexed": true,
							"internalType": "uint256",
							"name": "assetId",
							"type": "uint256"
						},
						{
							"indexed": false,
							"internalType": "uint256",
							"name": "price",
							"type": "uint256"
						},
						{
							"indexed": true,
							"internalType": "address",
							"name": "seller",
							"type": "address"
						},
						{
							"indexed": false,
							"internalType": "string",
							"name": "currency",
							"type": "string"
						},
						{
							"indexed": false,
							"internalType": "uint256",
							"name": "createdAt",
							"type": "uint256"
						}
					],
					"name": "SellItemSuccessful",
					"type": "event"
				},
				{
					"inputs": [],
					"name": "ERC721_Interface",
					"outputs": [
						{
							"internalType": "bytes4",
							"name": "",
							"type": "bytes4"
						}
					],
					"stateMutability": "view",
					"type": "function"
				},
				{
					"inputs": [
						{
							"internalType": "uint256",
							"name": "",
							"type": "uint256"
						}
					],
					"name": "allItems",
					"outputs": [
						{
							"internalType": "uint256",
							"name": "itemId",
							"type": "uint256"
						},
						{
							"internalType": "address",
							"name": "nftContract",
							"type": "address"
						},
						{
							"internalType": "uint256",
							"name": "tokenId",
							"type": "uint256"
						},
						{
							"internalType": "address payable",
							"name": "seller",
							"type": "address"
						},
						{
							"internalType": "address payable",
							"name": "owner",
							"type": "address"
						},
						{
							"internalType": "uint256",
							"name": "price",
							"type": "uint256"
						},
						{
							"internalType": "enum MarketplaceStorage.ItemStatus",
							"name": "status",
							"type": "uint8"
						}
					],
					"stateMutability": "view",
					"type": "function"
				},
				{
					"inputs": [],
					"name": "allMarketItems",
					"outputs": [
						{
							"internalType": "uint256",
							"name": "itemId",
							"type": "uint256"
						},
						{
							"internalType": "address",
							"name": "nftContract",
							"type": "address"
						},
						{
							"internalType": "uint256",
							"name": "tokenId",
							"type": "uint256"
						},
						{
							"internalType": "address payable",
							"name": "seller",
							"type": "address"
						},
						{
							"internalType": "address payable",
							"name": "owner",
							"type": "address"
						},
						{
							"internalType": "uint256",
							"name": "price",
							"type": "uint256"
						},
						{
							"internalType": "enum MarketplaceStorage.ItemStatus",
							"name": "status",
							"type": "uint8"
						}
					],
					"stateMutability": "view",
					"type": "function"
				},
				{
					"inputs": [],
					"name": "antaFeePercent",
					"outputs": [
						{
							"internalType": "uint8",
							"name": "",
							"type": "uint8"
						}
					],
					"stateMutability": "view",
					"type": "function"
				},
				{
					"inputs": [],
					"name": "bnbFeePercent",
					"outputs": [
						{
							"internalType": "uint8",
							"name": "",
							"type": "uint8"
						}
					],
					"stateMutability": "view",
					"type": "function"
				},
				{
					"inputs": [
						{
							"internalType": "address",
							"name": "",
							"type": "address"
						},
						{
							"internalType": "uint256",
							"name": "",
							"type": "uint256"
						}
					],
					"name": "items",
					"outputs": [
						{
							"internalType": "uint256",
							"name": "itemId",
							"type": "uint256"
						},
						{
							"internalType": "address",
							"name": "nftContract",
							"type": "address"
						},
						{
							"internalType": "uint256",
							"name": "tokenId",
							"type": "uint256"
						},
						{
							"internalType": "address payable",
							"name": "seller",
							"type": "address"
						},
						{
							"internalType": "address payable",
							"name": "owner",
							"type": "address"
						},
						{
							"internalType": "uint256",
							"name": "price",
							"type": "uint256"
						},
						{
							"internalType": "enum MarketplaceStorage.ItemStatus",
							"name": "status",
							"type": "uint8"
						}
					],
					"stateMutability": "view",
					"type": "function"
				},
				{
					"inputs": [],
					"name": "sqfToken",
					"outputs": [
						{
							"internalType": "contract IERC20",
							"name": "",
							"type": "address"
						}
					],
					"stateMutability": "view",
					"type": "function"
				}
			],
			"devdoc": {
				"kind": "dev",
				"methods": {},
				"version": 1
			},
			"evm": {
				"assembly": "    /* \"contracts/Marketplace2/Marketplace.sol\":15539:17131  contract MarketplaceStorage {... */\n  mstore(0x40, 0x80)\n  callvalue\n  dup1\n  iszero\n  tag_1\n  jumpi\n  0x00\n  dup1\n  revert\ntag_1:\n  pop\n  dataSize(sub_0)\n  dup1\n  dataOffset(sub_0)\n  0x00\n  codecopy\n  0x00\n  return\nstop\n\nsub_0: assembly {\n        /* \"contracts/Marketplace2/Marketplace.sol\":15539:17131  contract MarketplaceStorage {... */\n      mstore(0x40, 0x80)\n      callvalue\n      dup1\n      iszero\n      tag_1\n      jumpi\n      0x00\n      dup1\n      revert\n    tag_1:\n      pop\n      jumpi(tag_2, lt(calldatasize, 0x04))\n      shr(0xe0, calldataload(0x00))\n      dup1\n      0x5c80a435\n      gt\n      tag_10\n      jumpi\n      dup1\n      0x5c80a435\n      eq\n      tag_6\n      jumpi\n      dup1\n      0x85a8b36c\n      eq\n      tag_7\n      jumpi\n      dup1\n      0xb7a60c7e\n      eq\n      tag_8\n      jumpi\n      dup1\n      0xff68fa6e\n      eq\n      tag_9\n      jumpi\n      jump(tag_2)\n    tag_10:\n      dup1\n      0x15b81dc3\n      eq\n      tag_3\n      jumpi\n      dup1\n      0x2b4c32be\n      eq\n      tag_4\n      jumpi\n      dup1\n      0x517bd451\n      eq\n      tag_5\n      jumpi\n    tag_2:\n      0x00\n      dup1\n      revert\n        /* \"contracts/Marketplace2/Marketplace.sol\":16122:16144  IERC20 public sqfToken */\n    tag_3:\n      tag_11\n      tag_12\n      jump\t// in\n    tag_11:\n      mload(0x40)\n      tag_13\n      swap2\n      swap1\n      tag_14\n      jump\t// in\n    tag_13:\n      mload(0x40)\n      dup1\n      swap2\n      sub\n      swap1\n      return\n        /* \"contracts/Marketplace2/Marketplace.sol\":15861:15921  bytes4 public constant ERC721_Interface = bytes4(0x80ac58cd) */\n    tag_4:\n      tag_15\n      tag_16\n      jump\t// in\n    tag_15:\n      mload(0x40)\n      tag_17\n      swap2\n      swap1\n      tag_18\n      jump\t// in\n    tag_17:\n      mload(0x40)\n      dup1\n      swap2\n      sub\n      swap1\n      return\n        /* \"contracts/Marketplace2/Marketplace.sol\":15822:15854  MarketItem public allMarketItems */\n    tag_5:\n      tag_19\n      tag_20\n      jump\t// in\n    tag_19:\n      mload(0x40)\n      tag_21\n      swap8\n      swap7\n      swap6\n      swap5\n      swap4\n      swap3\n      swap2\n      swap1\n      tag_22\n      jump\t// in\n    tag_21:\n      mload(0x40)\n      dup1\n      swap2\n      sub\n      swap1\n      return\n        /* \"contracts/Marketplace2/Marketplace.sol\":16052:16115  mapping(address => mapping(uint256 => MarketItem)) public items */\n    tag_6:\n      tag_23\n      0x04\n      dup1\n      calldatasize\n      sub\n      dup2\n      add\n      swap1\n      tag_24\n      swap2\n      swap1\n      tag_25\n      jump\t// in\n    tag_24:\n      tag_26\n      jump\t// in\n    tag_23:\n      mload(0x40)\n      tag_27\n      swap8\n      swap7\n      swap6\n      swap5\n      swap4\n      swap3\n      swap2\n      swap1\n      tag_22\n      jump\t// in\n    tag_27:\n      mload(0x40)\n      dup1\n      swap2\n      sub\n      swap1\n      return\n        /* \"contracts/Marketplace2/Marketplace.sol\":16151:16177  uint8 public bnbFeePercent */\n    tag_7:\n      tag_28\n      tag_29\n      jump\t// in\n    tag_28:\n      mload(0x40)\n      tag_30\n      swap2\n      swap1\n      tag_31\n      jump\t// in\n    tag_30:\n      mload(0x40)\n      dup1\n      swap2\n      sub\n      swap1\n      return\n        /* \"contracts/Marketplace2/Marketplace.sol\":16183:16210  uint8 public antaFeePercent */\n    tag_8:\n      tag_32\n      tag_33\n      jump\t// in\n    tag_32:\n      mload(0x40)\n      tag_34\n      swap2\n      swap1\n      tag_31\n      jump\t// in\n    tag_34:\n      mload(0x40)\n      dup1\n      swap2\n      sub\n      swap1\n      return\n        /* \"contracts/Marketplace2/Marketplace.sol\":15928:15975  mapping (uint256 => MarketItem) public allItems */\n    tag_9:\n      tag_35\n      0x04\n      dup1\n      calldatasize\n      sub\n      dup2\n      add\n      swap1\n      tag_36\n      swap2\n      swap1\n      tag_37\n      jump\t// in\n    tag_36:\n      tag_38\n      jump\t// in\n    tag_35:\n      mload(0x40)\n      tag_39\n      swap8\n      swap7\n      swap6\n      swap5\n      swap4\n      swap3\n      swap2\n      swap1\n      tag_22\n      jump\t// in\n    tag_39:\n      mload(0x40)\n      dup1\n      swap2\n      sub\n      swap1\n      return\n        /* \"contracts/Marketplace2/Marketplace.sol\":16122:16144  IERC20 public sqfToken */\n    tag_12:\n      0x09\n      0x00\n      swap1\n      sload\n      swap1\n      0x0100\n      exp\n      swap1\n      div\n      0xffffffffffffffffffffffffffffffffffffffff\n      and\n      dup2\n      jump\t// out\n        /* \"contracts/Marketplace2/Marketplace.sol\":15861:15921  bytes4 public constant ERC721_Interface = bytes4(0x80ac58cd) */\n    tag_16:\n        /* \"contracts/Marketplace2/Marketplace.sol\":15910:15920  0x80ac58cd */\n      0x80ac58cd\n        /* \"contracts/Marketplace2/Marketplace.sol\":15903:15921  bytes4(0x80ac58cd) */\n      0xe0\n      shl\n        /* \"contracts/Marketplace2/Marketplace.sol\":15861:15921  bytes4 public constant ERC721_Interface = bytes4(0x80ac58cd) */\n      dup2\n      jump\t// out\n        /* \"contracts/Marketplace2/Marketplace.sol\":15822:15854  MarketItem public allMarketItems */\n    tag_20:\n      0x00\n      dup1\n      0x00\n      add\n      sload\n      swap1\n      dup1\n      0x01\n      add\n      0x00\n      swap1\n      sload\n      swap1\n      0x0100\n      exp\n      swap1\n      div\n      0xffffffffffffffffffffffffffffffffffffffff\n      and\n      swap1\n      dup1\n      0x02\n      add\n      sload\n      swap1\n      dup1\n      0x03\n      add\n      0x00\n      swap1\n      sload\n      swap1\n      0x0100\n      exp\n      swap1\n      div\n      0xffffffffffffffffffffffffffffffffffffffff\n      and\n      swap1\n      dup1\n      0x04\n      add\n      0x00\n      swap1\n      sload\n      swap1\n      0x0100\n      exp\n      swap1\n      div\n      0xffffffffffffffffffffffffffffffffffffffff\n      and\n      swap1\n      dup1\n      0x05\n      add\n      sload\n      swap1\n      dup1\n      0x06\n      add\n      0x00\n      swap1\n      sload\n      swap1\n      0x0100\n      exp\n      swap1\n      div\n      0xff\n      and\n      swap1\n      pop\n      dup8\n      jump\t// out\n        /* \"contracts/Marketplace2/Marketplace.sol\":16052:16115  mapping(address => mapping(uint256 => MarketItem)) public items */\n    tag_26:\n      mstore(0x20, 0x08)\n      dup2\n      0x00\n      mstore\n      mstore(0x20, keccak256(0x00, 0x40))\n      dup1\n      0x00\n      mstore\n      keccak256(0x00, 0x40)\n      0x00\n      swap2\n      pop\n      swap2\n      pop\n      pop\n      dup1\n      0x00\n      add\n      sload\n      swap1\n      dup1\n      0x01\n      add\n      0x00\n      swap1\n      sload\n      swap1\n      0x0100\n      exp\n      swap1\n      div\n      0xffffffffffffffffffffffffffffffffffffffff\n      and\n      swap1\n      dup1\n      0x02\n      add\n      sload\n      swap1\n      dup1\n      0x03\n      add\n      0x00\n      swap1\n      sload\n      swap1\n      0x0100\n      exp\n      swap1\n      div\n      0xffffffffffffffffffffffffffffffffffffffff\n      and\n      swap1\n      dup1\n      0x04\n      add\n      0x00\n      swap1\n      sload\n      swap1\n      0x0100\n      exp\n      swap1\n      div\n      0xffffffffffffffffffffffffffffffffffffffff\n      and\n      swap1\n      dup1\n      0x05\n      add\n      sload\n      swap1\n      dup1\n      0x06\n      add\n      0x00\n      swap1\n      sload\n      swap1\n      0x0100\n      exp\n      swap1\n      div\n      0xff\n      and\n      swap1\n      pop\n      dup8\n      jump\t// out\n        /* \"contracts/Marketplace2/Marketplace.sol\":16151:16177  uint8 public bnbFeePercent */\n    tag_29:\n      0x09\n      0x14\n      swap1\n      sload\n      swap1\n      0x0100\n      exp\n      swap1\n      div\n      0xff\n      and\n      dup2\n      jump\t// out\n        /* \"contracts/Marketplace2/Marketplace.sol\":16183:16210  uint8 public antaFeePercent */\n    tag_33:\n      0x09\n      0x15\n      swap1\n      sload\n      swap1\n      0x0100\n      exp\n      swap1\n      div\n      0xff\n      and\n      dup2\n      jump\t// out\n        /* \"contracts/Marketplace2/Marketplace.sol\":15928:15975  mapping (uint256 => MarketItem) public allItems */\n    tag_38:\n      mstore(0x20, 0x07)\n      dup1\n      0x00\n      mstore\n      keccak256(0x00, 0x40)\n      0x00\n      swap2\n      pop\n      swap1\n      pop\n      dup1\n      0x00\n      add\n      sload\n      swap1\n      dup1\n      0x01\n      add\n      0x00\n      swap1\n      sload\n      swap1\n      0x0100\n      exp\n      swap1\n      div\n      0xffffffffffffffffffffffffffffffffffffffff\n      and\n      swap1\n      dup1\n      0x02\n      add\n      sload\n      swap1\n      dup1\n      0x03\n      add\n      0x00\n      swap1\n      sload\n      swap1\n      0x0100\n      exp\n      swap1\n      div\n      0xffffffffffffffffffffffffffffffffffffffff\n      and\n      swap1\n      dup1\n      0x04\n      add\n      0x00\n      swap1\n      sload\n      swap1\n      0x0100\n      exp\n      swap1\n      div\n      0xffffffffffffffffffffffffffffffffffffffff\n      and\n      swap1\n      dup1\n      0x05\n      add\n      sload\n      swap1\n      dup1\n      0x06\n      add\n      0x00\n      swap1\n      sload\n      swap1\n      0x0100\n      exp\n      swap1\n      div\n      0xff\n      and\n      swap1\n      pop\n      dup8\n      jump\t// out\n        /* \"#utility.yul\":7:133   */\n    tag_40:\n        /* \"#utility.yul\":44:51   */\n      0x00\n        /* \"#utility.yul\":84:126   */\n      0xffffffffffffffffffffffffffffffffffffffff\n        /* \"#utility.yul\":77:82   */\n      dup3\n        /* \"#utility.yul\":73:127   */\n      and\n        /* \"#utility.yul\":62:127   */\n      swap1\n      pop\n        /* \"#utility.yul\":7:133   */\n      swap2\n      swap1\n      pop\n      jump\t// out\n        /* \"#utility.yul\":139:199   */\n    tag_41:\n        /* \"#utility.yul\":167:170   */\n      0x00\n        /* \"#utility.yul\":188:193   */\n      dup2\n        /* \"#utility.yul\":181:193   */\n      swap1\n      pop\n        /* \"#utility.yul\":139:199   */\n      swap2\n      swap1\n      pop\n      jump\t// out\n        /* \"#utility.yul\":205:347   */\n    tag_42:\n        /* \"#utility.yul\":255:264   */\n      0x00\n        /* \"#utility.yul\":288:341   */\n      tag_72\n        /* \"#utility.yul\":306:340   */\n      tag_73\n        /* \"#utility.yul\":315:339   */\n      tag_74\n        /* \"#utility.yul\":333:338   */\n      dup5\n        /* \"#utility.yul\":315:339   */\n      tag_40\n      jump\t// in\n    tag_74:\n        /* \"#utility.yul\":306:340   */\n      tag_41\n      jump\t// in\n    tag_73:\n        /* \"#utility.yul\":288:341   */\n      tag_40\n      jump\t// in\n    tag_72:\n        /* \"#utility.yul\":275:341   */\n      swap1\n      pop\n        /* \"#utility.yul\":205:347   */\n      swap2\n      swap1\n      pop\n      jump\t// out\n        /* \"#utility.yul\":353:479   */\n    tag_43:\n        /* \"#utility.yul\":403:412   */\n      0x00\n        /* \"#utility.yul\":436:473   */\n      tag_76\n        /* \"#utility.yul\":467:472   */\n      dup3\n        /* \"#utility.yul\":436:473   */\n      tag_42\n      jump\t// in\n    tag_76:\n        /* \"#utility.yul\":423:473   */\n      swap1\n      pop\n        /* \"#utility.yul\":353:479   */\n      swap2\n      swap1\n      pop\n      jump\t// out\n        /* \"#utility.yul\":485:625   */\n    tag_44:\n        /* \"#utility.yul\":549:558   */\n      0x00\n        /* \"#utility.yul\":582:619   */\n      tag_78\n        /* \"#utility.yul\":613:618   */\n      dup3\n        /* \"#utility.yul\":582:619   */\n      tag_43\n      jump\t// in\n    tag_78:\n        /* \"#utility.yul\":569:619   */\n      swap1\n      pop\n        /* \"#utility.yul\":485:625   */\n      swap2\n      swap1\n      pop\n      jump\t// out\n        /* \"#utility.yul\":631:790   */\n    tag_45:\n        /* \"#utility.yul\":732:783   */\n      tag_80\n        /* \"#utility.yul\":777:782   */\n      dup2\n        /* \"#utility.yul\":732:783   */\n      tag_44\n      jump\t// in\n    tag_80:\n        /* \"#utility.yul\":727:730   */\n      dup3\n        /* \"#utility.yul\":720:784   */\n      mstore\n        /* \"#utility.yul\":631:790   */\n      pop\n      pop\n      jump\t// out\n        /* \"#utility.yul\":796:1046   */\n    tag_14:\n        /* \"#utility.yul\":903:907   */\n      0x00\n        /* \"#utility.yul\":941:943   */\n      0x20\n        /* \"#utility.yul\":930:939   */\n      dup3\n        /* \"#utility.yul\":926:944   */\n      add\n        /* \"#utility.yul\":918:944   */\n      swap1\n      pop\n        /* \"#utility.yul\":954:1039   */\n      tag_82\n        /* \"#utility.yul\":1036:1037   */\n      0x00\n        /* \"#utility.yul\":1025:1034   */\n      dup4\n        /* \"#utility.yul\":1021:1038   */\n      add\n        /* \"#utility.yul\":1012:1018   */\n      dup5\n        /* \"#utility.yul\":954:1039   */\n      tag_45\n      jump\t// in\n    tag_82:\n        /* \"#utility.yul\":796:1046   */\n      swap3\n      swap2\n      pop\n      pop\n      jump\t// out\n        /* \"#utility.yul\":1052:1201   */\n    tag_46:\n        /* \"#utility.yul\":1088:1095   */\n      0x00\n        /* \"#utility.yul\":1128:1194   */\n      0xffffffff00000000000000000000000000000000000000000000000000000000\n        /* \"#utility.yul\":1121:1126   */\n      dup3\n        /* \"#utility.yul\":1117:1195   */\n      and\n        /* \"#utility.yul\":1106:1195   */\n      swap1\n      pop\n        /* \"#utility.yul\":1052:1201   */\n      swap2\n      swap1\n      pop\n      jump\t// out\n        /* \"#utility.yul\":1207:1322   */\n    tag_47:\n        /* \"#utility.yul\":1292:1315   */\n      tag_85\n        /* \"#utility.yul\":1309:1314   */\n      dup2\n        /* \"#utility.yul\":1292:1315   */\n      tag_46\n      jump\t// in\n    tag_85:\n        /* \"#utility.yul\":1287:1290   */\n      dup3\n        /* \"#utility.yul\":1280:1316   */\n      mstore\n        /* \"#utility.yul\":1207:1322   */\n      pop\n      pop\n      jump\t// out\n        /* \"#utility.yul\":1328:1546   */\n    tag_18:\n        /* \"#utility.yul\":1419:1423   */\n      0x00\n        /* \"#utility.yul\":1457:1459   */\n      0x20\n        /* \"#utility.yul\":1446:1455   */\n      dup3\n        /* \"#utility.yul\":1442:1460   */\n      add\n        /* \"#utility.yul\":1434:1460   */\n      swap1\n      pop\n        /* \"#utility.yul\":1470:1539   */\n      tag_87\n        /* \"#utility.yul\":1536:1537   */\n      0x00\n        /* \"#utility.yul\":1525:1534   */\n      dup4\n        /* \"#utility.yul\":1521:1538   */\n      add\n        /* \"#utility.yul\":1512:1518   */\n      dup5\n        /* \"#utility.yul\":1470:1539   */\n      tag_47\n      jump\t// in\n    tag_87:\n        /* \"#utility.yul\":1328:1546   */\n      swap3\n      swap2\n      pop\n      pop\n      jump\t// out\n        /* \"#utility.yul\":1552:1629   */\n    tag_48:\n        /* \"#utility.yul\":1589:1596   */\n      0x00\n        /* \"#utility.yul\":1618:1623   */\n      dup2\n        /* \"#utility.yul\":1607:1623   */\n      swap1\n      pop\n        /* \"#utility.yul\":1552:1629   */\n      swap2\n      swap1\n      pop\n      jump\t// out\n        /* \"#utility.yul\":1635:1753   */\n    tag_49:\n        /* \"#utility.yul\":1722:1746   */\n      tag_90\n        /* \"#utility.yul\":1740:1745   */\n      dup2\n        /* \"#utility.yul\":1722:1746   */\n      tag_48\n      jump\t// in\n    tag_90:\n        /* \"#utility.yul\":1717:1720   */\n      dup3\n        /* \"#utility.yul\":1710:1747   */\n      mstore\n        /* \"#utility.yul\":1635:1753   */\n      pop\n      pop\n      jump\t// out\n        /* \"#utility.yul\":1759:1855   */\n    tag_50:\n        /* \"#utility.yul\":1796:1803   */\n      0x00\n        /* \"#utility.yul\":1825:1849   */\n      tag_92\n        /* \"#utility.yul\":1843:1848   */\n      dup3\n        /* \"#utility.yul\":1825:1849   */\n      tag_40\n      jump\t// in\n    tag_92:\n        /* \"#utility.yul\":1814:1849   */\n      swap1\n      pop\n        /* \"#utility.yul\":1759:1855   */\n      swap2\n      swap1\n      pop\n      jump\t// out\n        /* \"#utility.yul\":1861:1979   */\n    tag_51:\n        /* \"#utility.yul\":1948:1972   */\n      tag_94\n        /* \"#utility.yul\":1966:1971   */\n      dup2\n        /* \"#utility.yul\":1948:1972   */\n      tag_50\n      jump\t// in\n    tag_94:\n        /* \"#utility.yul\":1943:1946   */\n      dup3\n        /* \"#utility.yul\":1936:1973   */\n      mstore\n        /* \"#utility.yul\":1861:1979   */\n      pop\n      pop\n      jump\t// out\n        /* \"#utility.yul\":1985:2089   */\n    tag_52:\n        /* \"#utility.yul\":2030:2037   */\n      0x00\n        /* \"#utility.yul\":2059:2083   */\n      tag_96\n        /* \"#utility.yul\":2077:2082   */\n      dup3\n        /* \"#utility.yul\":2059:2083   */\n      tag_40\n      jump\t// in\n    tag_96:\n        /* \"#utility.yul\":2048:2083   */\n      swap1\n      pop\n        /* \"#utility.yul\":1985:2089   */\n      swap2\n      swap1\n      pop\n      jump\t// out\n        /* \"#utility.yul\":2095:2237   */\n    tag_53:\n        /* \"#utility.yul\":2198:2230   */\n      tag_98\n        /* \"#utility.yul\":2224:2229   */\n      dup2\n        /* \"#utility.yul\":2198:2230   */\n      tag_52\n      jump\t// in\n    tag_98:\n        /* \"#utility.yul\":2193:2196   */\n      dup3\n        /* \"#utility.yul\":2186:2231   */\n      mstore\n        /* \"#utility.yul\":2095:2237   */\n      pop\n      pop\n      jump\t// out\n        /* \"#utility.yul\":2243:2423   */\n    tag_54:\n        /* \"#utility.yul\":2291:2368   */\n      0x4e487b7100000000000000000000000000000000000000000000000000000000\n        /* \"#utility.yul\":2288:2289   */\n      0x00\n        /* \"#utility.yul\":2281:2369   */\n      mstore\n        /* \"#utility.yul\":2388:2392   */\n      0x21\n        /* \"#utility.yul\":2385:2386   */\n      0x04\n        /* \"#utility.yul\":2378:2393   */\n      mstore\n        /* \"#utility.yul\":2412:2416   */\n      0x24\n        /* \"#utility.yul\":2409:2410   */\n      0x00\n        /* \"#utility.yul\":2402:2417   */\n      revert\n        /* \"#utility.yul\":2429:2548   */\n    tag_55:\n        /* \"#utility.yul\":2516:2517   */\n      0x02\n        /* \"#utility.yul\":2509:2514   */\n      dup2\n        /* \"#utility.yul\":2506:2518   */\n      lt\n        /* \"#utility.yul\":2496:2542   */\n      tag_101\n      jumpi\n        /* \"#utility.yul\":2522:2540   */\n      tag_102\n      tag_54\n      jump\t// in\n    tag_102:\n        /* \"#utility.yul\":2496:2542   */\n    tag_101:\n        /* \"#utility.yul\":2429:2548   */\n      pop\n      jump\t// out\n        /* \"#utility.yul\":2554:2693   */\n    tag_56:\n        /* \"#utility.yul\":2605:2612   */\n      0x00\n        /* \"#utility.yul\":2634:2639   */\n      dup2\n        /* \"#utility.yul\":2623:2639   */\n      swap1\n      pop\n        /* \"#utility.yul\":2640:2687   */\n      tag_104\n        /* \"#utility.yul\":2681:2686   */\n      dup3\n        /* \"#utility.yul\":2640:2687   */\n      tag_55\n      jump\t// in\n    tag_104:\n        /* \"#utility.yul\":2554:2693   */\n      swap2\n      swap1\n      pop\n      jump\t// out\n        /* \"#utility.yul\":2699:2838   */\n    tag_57:\n        /* \"#utility.yul\":2761:2770   */\n      0x00\n        /* \"#utility.yul\":2794:2832   */\n      tag_106\n        /* \"#utility.yul\":2826:2831   */\n      dup3\n        /* \"#utility.yul\":2794:2832   */\n      tag_56\n      jump\t// in\n    tag_106:\n        /* \"#utility.yul\":2781:2832   */\n      swap1\n      pop\n        /* \"#utility.yul\":2699:2838   */\n      swap2\n      swap1\n      pop\n      jump\t// out\n        /* \"#utility.yul\":2844:2999   */\n    tag_58:\n        /* \"#utility.yul\":2943:2992   */\n      tag_108\n        /* \"#utility.yul\":2986:2991   */\n      dup2\n        /* \"#utility.yul\":2943:2992   */\n      tag_57\n      jump\t// in\n    tag_108:\n        /* \"#utility.yul\":2938:2941   */\n      dup3\n        /* \"#utility.yul\":2931:2993   */\n      mstore\n        /* \"#utility.yul\":2844:2999   */\n      pop\n      pop\n      jump\t// out\n        /* \"#utility.yul\":3005:3979   */\n    tag_22:\n        /* \"#utility.yul\":3310:3314   */\n      0x00\n        /* \"#utility.yul\":3348:3351   */\n      0xe0\n        /* \"#utility.yul\":3337:3346   */\n      dup3\n        /* \"#utility.yul\":3333:3352   */\n      add\n        /* \"#utility.yul\":3325:3352   */\n      swap1\n      pop\n        /* \"#utility.yul\":3362:3433   */\n      tag_110\n        /* \"#utility.yul\":3430:3431   */\n      0x00\n        /* \"#utility.yul\":3419:3428   */\n      dup4\n        /* \"#utility.yul\":3415:3432   */\n      add\n        /* \"#utility.yul\":3406:3412   */\n      dup11\n        /* \"#utility.yul\":3362:3433   */\n      tag_49\n      jump\t// in\n    tag_110:\n        /* \"#utility.yul\":3443:3515   */\n      tag_111\n        /* \"#utility.yul\":3511:3513   */\n      0x20\n        /* \"#utility.yul\":3500:3509   */\n      dup4\n        /* \"#utility.yul\":3496:3514   */\n      add\n        /* \"#utility.yul\":3487:3493   */\n      dup10\n        /* \"#utility.yul\":3443:3515   */\n      tag_51\n      jump\t// in\n    tag_111:\n        /* \"#utility.yul\":3525:3597   */\n      tag_112\n        /* \"#utility.yul\":3593:3595   */\n      0x40\n        /* \"#utility.yul\":3582:3591   */\n      dup4\n        /* \"#utility.yul\":3578:3596   */\n      add\n        /* \"#utility.yul\":3569:3575   */\n      dup9\n        /* \"#utility.yul\":3525:3597   */\n      tag_49\n      jump\t// in\n    tag_112:\n        /* \"#utility.yul\":3607:3695   */\n      tag_113\n        /* \"#utility.yul\":3691:3693   */\n      0x60\n        /* \"#utility.yul\":3680:3689   */\n      dup4\n        /* \"#utility.yul\":3676:3694   */\n      add\n        /* \"#utility.yul\":3667:3673   */\n      dup8\n        /* \"#utility.yul\":3607:3695   */\n      tag_53\n      jump\t// in\n    tag_113:\n        /* \"#utility.yul\":3705:3794   */\n      tag_114\n        /* \"#utility.yul\":3789:3792   */\n      0x80\n        /* \"#utility.yul\":3778:3787   */\n      dup4\n        /* \"#utility.yul\":3774:3793   */\n      add\n        /* \"#utility.yul\":3765:3771   */\n      dup7\n        /* \"#utility.yul\":3705:3794   */\n      tag_53\n      jump\t// in\n    tag_114:\n        /* \"#utility.yul\":3804:3877   */\n      tag_115\n        /* \"#utility.yul\":3872:3875   */\n      0xa0\n        /* \"#utility.yul\":3861:3870   */\n      dup4\n        /* \"#utility.yul\":3857:3876   */\n      add\n        /* \"#utility.yul\":3848:3854   */\n      dup6\n        /* \"#utility.yul\":3804:3877   */\n      tag_49\n      jump\t// in\n    tag_115:\n        /* \"#utility.yul\":3887:3972   */\n      tag_116\n        /* \"#utility.yul\":3967:3970   */\n      0xc0\n        /* \"#utility.yul\":3956:3965   */\n      dup4\n        /* \"#utility.yul\":3952:3971   */\n      add\n        /* \"#utility.yul\":3943:3949   */\n      dup5\n        /* \"#utility.yul\":3887:3972   */\n      tag_58\n      jump\t// in\n    tag_116:\n        /* \"#utility.yul\":3005:3979   */\n      swap9\n      swap8\n      pop\n      pop\n      pop\n      pop\n      pop\n      pop\n      pop\n      pop\n      jump\t// out\n        /* \"#utility.yul\":4066:4183   */\n    tag_60:\n        /* \"#utility.yul\":4175:4176   */\n      0x00\n        /* \"#utility.yul\":4172:4173   */\n      dup1\n        /* \"#utility.yul\":4165:4177   */\n      revert\n        /* \"#utility.yul\":4312:4434   */\n    tag_62:\n        /* \"#utility.yul\":4385:4409   */\n      tag_121\n        /* \"#utility.yul\":4403:4408   */\n      dup2\n        /* \"#utility.yul\":4385:4409   */\n      tag_50\n      jump\t// in\n    tag_121:\n        /* \"#utility.yul\":4378:4383   */\n      dup2\n        /* \"#utility.yul\":4375:4410   */\n      eq\n        /* \"#utility.yul\":4365:4428   */\n      tag_122\n      jumpi\n        /* \"#utility.yul\":4424:4425   */\n      0x00\n        /* \"#utility.yul\":4421:4422   */\n      dup1\n        /* \"#utility.yul\":4414:4426   */\n      revert\n        /* \"#utility.yul\":4365:4428   */\n    tag_122:\n        /* \"#utility.yul\":4312:4434   */\n      pop\n      jump\t// out\n        /* \"#utility.yul\":4440:4579   */\n    tag_63:\n        /* \"#utility.yul\":4486:4491   */\n      0x00\n        /* \"#utility.yul\":4524:4530   */\n      dup2\n        /* \"#utility.yul\":4511:4531   */\n      calldataload\n        /* \"#utility.yul\":4502:4531   */\n      swap1\n      pop\n        /* \"#utility.yul\":4540:4573   */\n      tag_124\n        /* \"#utility.yul\":4567:4572   */\n      dup2\n        /* \"#utility.yul\":4540:4573   */\n      tag_62\n      jump\t// in\n    tag_124:\n        /* \"#utility.yul\":4440:4579   */\n      swap3\n      swap2\n      pop\n      pop\n      jump\t// out\n        /* \"#utility.yul\":4585:4707   */\n    tag_64:\n        /* \"#utility.yul\":4658:4682   */\n      tag_126\n        /* \"#utility.yul\":4676:4681   */\n      dup2\n        /* \"#utility.yul\":4658:4682   */\n      tag_48\n      jump\t// in\n    tag_126:\n        /* \"#utility.yul\":4651:4656   */\n      dup2\n        /* \"#utility.yul\":4648:4683   */\n      eq\n        /* \"#utility.yul\":4638:4701   */\n      tag_127\n      jumpi\n        /* \"#utility.yul\":4697:4698   */\n      0x00\n        /* \"#utility.yul\":4694:4695   */\n      dup1\n        /* \"#utility.yul\":4687:4699   */\n      revert\n        /* \"#utility.yul\":4638:4701   */\n    tag_127:\n        /* \"#utility.yul\":4585:4707   */\n      pop\n      jump\t// out\n        /* \"#utility.yul\":4713:4852   */\n    tag_65:\n        /* \"#utility.yul\":4759:4764   */\n      0x00\n        /* \"#utility.yul\":4797:4803   */\n      dup2\n        /* \"#utility.yul\":4784:4804   */\n      calldataload\n        /* \"#utility.yul\":4775:4804   */\n      swap1\n      pop\n        /* \"#utility.yul\":4813:4846   */\n      tag_129\n        /* \"#utility.yul\":4840:4845   */\n      dup2\n        /* \"#utility.yul\":4813:4846   */\n      tag_64\n      jump\t// in\n    tag_129:\n        /* \"#utility.yul\":4713:4852   */\n      swap3\n      swap2\n      pop\n      pop\n      jump\t// out\n        /* \"#utility.yul\":4858:5332   */\n    tag_25:\n        /* \"#utility.yul\":4926:4932   */\n      0x00\n        /* \"#utility.yul\":4934:4940   */\n      dup1\n        /* \"#utility.yul\":4983:4985   */\n      0x40\n        /* \"#utility.yul\":4971:4980   */\n      dup4\n        /* \"#utility.yul\":4962:4969   */\n      dup6\n        /* \"#utility.yul\":4958:4981   */\n      sub\n        /* \"#utility.yul\":4954:4986   */\n      slt\n        /* \"#utility.yul\":4951:5070   */\n      iszero\n      tag_131\n      jumpi\n        /* \"#utility.yul\":4989:5068   */\n      tag_132\n      tag_60\n      jump\t// in\n    tag_132:\n        /* \"#utility.yul\":4951:5070   */\n    tag_131:\n        /* \"#utility.yul\":5109:5110   */\n      0x00\n        /* \"#utility.yul\":5134:5187   */\n      tag_133\n        /* \"#utility.yul\":5179:5186   */\n      dup6\n        /* \"#utility.yul\":5170:5176   */\n      dup3\n        /* \"#utility.yul\":5159:5168   */\n      dup7\n        /* \"#utility.yul\":5155:5177   */\n      add\n        /* \"#utility.yul\":5134:5187   */\n      tag_63\n      jump\t// in\n    tag_133:\n        /* \"#utility.yul\":5124:5187   */\n      swap3\n      pop\n        /* \"#utility.yul\":5080:5197   */\n      pop\n        /* \"#utility.yul\":5236:5238   */\n      0x20\n        /* \"#utility.yul\":5262:5315   */\n      tag_134\n        /* \"#utility.yul\":5307:5314   */\n      dup6\n        /* \"#utility.yul\":5298:5304   */\n      dup3\n        /* \"#utility.yul\":5287:5296   */\n      dup7\n        /* \"#utility.yul\":5283:5305   */\n      add\n        /* \"#utility.yul\":5262:5315   */\n      tag_65\n      jump\t// in\n    tag_134:\n        /* \"#utility.yul\":5252:5315   */\n      swap2\n      pop\n        /* \"#utility.yul\":5207:5325   */\n      pop\n        /* \"#utility.yul\":4858:5332   */\n      swap3\n      pop\n      swap3\n      swap1\n      pop\n      jump\t// out\n        /* \"#utility.yul\":5338:5424   */\n    tag_66:\n        /* \"#utility.yul\":5373:5380   */\n      0x00\n        /* \"#utility.yul\":5413:5417   */\n      0xff\n        /* \"#utility.yul\":5406:5411   */\n      dup3\n        /* \"#utility.yul\":5402:5418   */\n      and\n        /* \"#utility.yul\":5391:5418   */\n      swap1\n      pop\n        /* \"#utility.yul\":5338:5424   */\n      swap2\n      swap1\n      pop\n      jump\t// out\n        /* \"#utility.yul\":5430:5542   */\n    tag_67:\n        /* \"#utility.yul\":5513:5535   */\n      tag_137\n        /* \"#utility.yul\":5529:5534   */\n      dup2\n        /* \"#utility.yul\":5513:5535   */\n      tag_66\n      jump\t// in\n    tag_137:\n        /* \"#utility.yul\":5508:5511   */\n      dup3\n        /* \"#utility.yul\":5501:5536   */\n      mstore\n        /* \"#utility.yul\":5430:5542   */\n      pop\n      pop\n      jump\t// out\n        /* \"#utility.yul\":5548:5762   */\n    tag_31:\n        /* \"#utility.yul\":5637:5641   */\n      0x00\n        /* \"#utility.yul\":5675:5677   */\n      0x20\n        /* \"#utility.yul\":5664:5673   */\n      dup3\n        /* \"#utility.yul\":5660:5678   */\n      add\n        /* \"#utility.yul\":5652:5678   */\n      swap1\n      pop\n        /* \"#utility.yul\":5688:5755   */\n      tag_139\n        /* \"#utility.yul\":5752:5753   */\n      0x00\n        /* \"#utility.yul\":5741:5750   */\n      dup4\n        /* \"#utility.yul\":5737:5754   */\n      add\n        /* \"#utility.yul\":5728:5734   */\n      dup5\n        /* \"#utility.yul\":5688:5755   */\n      tag_67\n      jump\t// in\n    tag_139:\n        /* \"#utility.yul\":5548:5762   */\n      swap3\n      swap2\n      pop\n      pop\n      jump\t// out\n        /* \"#utility.yul\":5768:6097   */\n    tag_37:\n        /* \"#utility.yul\":5827:5833   */\n      0x00\n        /* \"#utility.yul\":5876:5878   */\n      0x20\n        /* \"#utility.yul\":5864:5873   */\n      dup3\n        /* \"#utility.yul\":5855:5862   */\n      dup5\n        /* \"#utility.yul\":5851:5874   */\n      sub\n        /* \"#utility.yul\":5847:5879   */\n      slt\n        /* \"#utility.yul\":5844:5963   */\n      iszero\n      tag_141\n      jumpi\n        /* \"#utility.yul\":5882:5961   */\n      tag_142\n      tag_60\n      jump\t// in\n    tag_142:\n        /* \"#utility.yul\":5844:5963   */\n    tag_141:\n        /* \"#utility.yul\":6002:6003   */\n      0x00\n        /* \"#utility.yul\":6027:6080   */\n      tag_143\n        /* \"#utility.yul\":6072:6079   */\n      dup5\n        /* \"#utility.yul\":6063:6069   */\n      dup3\n        /* \"#utility.yul\":6052:6061   */\n      dup6\n        /* \"#utility.yul\":6048:6070   */\n      add\n        /* \"#utility.yul\":6027:6080   */\n      tag_65\n      jump\t// in\n    tag_143:\n        /* \"#utility.yul\":6017:6080   */\n      swap2\n      pop\n        /* \"#utility.yul\":5973:6090   */\n      pop\n        /* \"#utility.yul\":5768:6097   */\n      swap3\n      swap2\n      pop\n      pop\n      jump\t// out\n\n    auxdata: 0xa2646970667358221220969fe3833f7e3988ef724e598f12ee035a3fc708ebc637996d9fa8fdc03be6c864736f6c634300080d0033\n}\n",
				"bytecode": {
					"linkReferences": {},
					"object": "608060405234801561001057600080fd5b50610751806100206000396000f3fe608060405234801561001057600080fd5b506004361061007d5760003560e01c80635c80a4351161005b5780635c80a435146100e257806385a8b36c14610118578063b7a60c7e14610136578063ff68fa6e146101545761007d565b806315b81dc3146100825780632b4c32be146100a0578063517bd451146100be575b600080fd5b61008a61018a565b6040516100979190610468565b60405180910390f35b6100a86101b0565b6040516100b591906104be565b60405180910390f35b6100c66101bb565b6040516100d997969594939291906105ab565b60405180910390f35b6100fc60048036038101906100f79190610677565b610258565b60405161010f97969594939291906105ab565b60405180910390f35b610120610314565b60405161012d91906106d3565b60405180910390f35b61013e610327565b60405161014b91906106d3565b60405180910390f35b61016e600480360381019061016991906106ee565b61033a565b60405161018197969594939291906105ab565b60405180910390f35b600960009054906101000a900473ffffffffffffffffffffffffffffffffffffffff1681565b6380ac58cd60e01b81565b60008060000154908060010160009054906101000a900473ffffffffffffffffffffffffffffffffffffffff16908060020154908060030160009054906101000a900473ffffffffffffffffffffffffffffffffffffffff16908060040160009054906101000a900473ffffffffffffffffffffffffffffffffffffffff16908060050154908060060160009054906101000a900460ff16905087565b6008602052816000526040600020602052806000526040600020600091509150508060000154908060010160009054906101000a900473ffffffffffffffffffffffffffffffffffffffff16908060020154908060030160009054906101000a900473ffffffffffffffffffffffffffffffffffffffff16908060040160009054906101000a900473ffffffffffffffffffffffffffffffffffffffff16908060050154908060060160009054906101000a900460ff16905087565b600960149054906101000a900460ff1681565b600960159054906101000a900460ff1681565b60076020528060005260406000206000915090508060000154908060010160009054906101000a900473ffffffffffffffffffffffffffffffffffffffff16908060020154908060030160009054906101000a900473ffffffffffffffffffffffffffffffffffffffff16908060040160009054906101000a900473ffffffffffffffffffffffffffffffffffffffff16908060050154908060060160009054906101000a900460ff16905087565b600073ffffffffffffffffffffffffffffffffffffffff82169050919050565b6000819050919050565b600061042e610429610424846103e9565b610409565b6103e9565b9050919050565b600061044082610413565b9050919050565b600061045282610435565b9050919050565b61046281610447565b82525050565b600060208201905061047d6000830184610459565b92915050565b60007fffffffff0000000000000000000000000000000000000000000000000000000082169050919050565b6104b881610483565b82525050565b60006020820190506104d360008301846104af565b92915050565b6000819050919050565b6104ec816104d9565b82525050565b60006104fd826103e9565b9050919050565b61050d816104f2565b82525050565b600061051e826103e9565b9050919050565b61052e81610513565b82525050565b7f4e487b7100000000000000000000000000000000000000000000000000000000600052602160045260246000fd5b6002811061057457610573610534565b5b50565b600081905061058582610563565b919050565b600061059582610577565b9050919050565b6105a58161058a565b82525050565b600060e0820190506105c0600083018a6104e3565b6105cd6020830189610504565b6105da60408301886104e3565b6105e76060830187610525565b6105f46080830186610525565b61060160a08301856104e3565b61060e60c083018461059c565b98975050505050505050565b600080fd5b610628816104f2565b811461063357600080fd5b50565b6000813590506106458161061f565b92915050565b610654816104d9565b811461065f57600080fd5b50565b6000813590506106718161064b565b92915050565b6000806040838503121561068e5761068d61061a565b5b600061069c85828601610636565b92505060206106ad85828601610662565b9150509250929050565b600060ff82169050919050565b6106cd816106b7565b82525050565b60006020820190506106e860008301846106c4565b92915050565b6000602082840312156107045761070361061a565b5b600061071284828501610662565b9150509291505056fea2646970667358221220969fe3833f7e3988ef724e598f12ee035a3fc708ebc637996d9fa8fdc03be6c864736f6c634300080d0033",
					"opcodes": "PUSH1 0x80 PUSH1 0x40 MSTORE CALLVALUE DUP1 ISZERO PUSH2 0x10 JUMPI PUSH1 0x0 DUP1 REVERT JUMPDEST POP PUSH2 0x751 DUP1 PUSH2 0x20 PUSH1 0x0 CODECOPY PUSH1 0x0 RETURN INVALID PUSH1 0x80 PUSH1 0x40 MSTORE CALLVALUE DUP1 ISZERO PUSH2 0x10 JUMPI PUSH1 0x0 DUP1 REVERT JUMPDEST POP PUSH1 0x4 CALLDATASIZE LT PUSH2 0x7D JUMPI PUSH1 0x0 CALLDATALOAD PUSH1 0xE0 SHR DUP1 PUSH4 0x5C80A435 GT PUSH2 0x5B JUMPI DUP1 PUSH4 0x5C80A435 EQ PUSH2 0xE2 JUMPI DUP1 PUSH4 0x85A8B36C EQ PUSH2 0x118 JUMPI DUP1 PUSH4 0xB7A60C7E EQ PUSH2 0x136 JUMPI DUP1 PUSH4 0xFF68FA6E EQ PUSH2 0x154 JUMPI PUSH2 0x7D JUMP JUMPDEST DUP1 PUSH4 0x15B81DC3 EQ PUSH2 0x82 JUMPI DUP1 PUSH4 0x2B4C32BE EQ PUSH2 0xA0 JUMPI DUP1 PUSH4 0x517BD451 EQ PUSH2 0xBE JUMPI JUMPDEST PUSH1 0x0 DUP1 REVERT JUMPDEST PUSH2 0x8A PUSH2 0x18A JUMP JUMPDEST PUSH1 0x40 MLOAD PUSH2 0x97 SWAP2 SWAP1 PUSH2 0x468 JUMP JUMPDEST PUSH1 0x40 MLOAD DUP1 SWAP2 SUB SWAP1 RETURN JUMPDEST PUSH2 0xA8 PUSH2 0x1B0 JUMP JUMPDEST PUSH1 0x40 MLOAD PUSH2 0xB5 SWAP2 SWAP1 PUSH2 0x4BE JUMP JUMPDEST PUSH1 0x40 MLOAD DUP1 SWAP2 SUB SWAP1 RETURN JUMPDEST PUSH2 0xC6 PUSH2 0x1BB JUMP JUMPDEST PUSH1 0x40 MLOAD PUSH2 0xD9 SWAP8 SWAP7 SWAP6 SWAP5 SWAP4 SWAP3 SWAP2 SWAP1 PUSH2 0x5AB JUMP JUMPDEST PUSH1 0x40 MLOAD DUP1 SWAP2 SUB SWAP1 RETURN JUMPDEST PUSH2 0xFC PUSH1 0x4 DUP1 CALLDATASIZE SUB DUP2 ADD SWAP1 PUSH2 0xF7 SWAP2 SWAP1 PUSH2 0x677 JUMP JUMPDEST PUSH2 0x258 JUMP JUMPDEST PUSH1 0x40 MLOAD PUSH2 0x10F SWAP8 SWAP7 SWAP6 SWAP5 SWAP4 SWAP3 SWAP2 SWAP1 PUSH2 0x5AB JUMP JUMPDEST PUSH1 0x40 MLOAD DUP1 SWAP2 SUB SWAP1 RETURN JUMPDEST PUSH2 0x120 PUSH2 0x314 JUMP JUMPDEST PUSH1 0x40 MLOAD PUSH2 0x12D SWAP2 SWAP1 PUSH2 0x6D3 JUMP JUMPDEST PUSH1 0x40 MLOAD DUP1 SWAP2 SUB SWAP1 RETURN JUMPDEST PUSH2 0x13E PUSH2 0x327 JUMP JUMPDEST PUSH1 0x40 MLOAD PUSH2 0x14B SWAP2 SWAP1 PUSH2 0x6D3 JUMP JUMPDEST PUSH1 0x40 MLOAD DUP1 SWAP2 SUB SWAP1 RETURN JUMPDEST PUSH2 0x16E PUSH1 0x4 DUP1 CALLDATASIZE SUB DUP2 ADD SWAP1 PUSH2 0x169 SWAP2 SWAP1 PUSH2 0x6EE JUMP JUMPDEST PUSH2 0x33A JUMP JUMPDEST PUSH1 0x40 MLOAD PUSH2 0x181 SWAP8 SWAP7 SWAP6 SWAP5 SWAP4 SWAP3 SWAP2 SWAP1 PUSH2 0x5AB JUMP JUMPDEST PUSH1 0x40 MLOAD DUP1 SWAP2 SUB SWAP1 RETURN JUMPDEST PUSH1 0x9 PUSH1 0x0 SWAP1 SLOAD SWAP1 PUSH2 0x100 EXP SWAP1 DIV PUSH20 0xFFFFFFFFFFFFFFFFFFFFFFFFFFFFFFFFFFFFFFFF AND DUP2 JUMP JUMPDEST PUSH4 0x80AC58CD PUSH1 0xE0 SHL DUP2 JUMP JUMPDEST PUSH1 0x0 DUP1 PUSH1 0x0 ADD SLOAD SWAP1 DUP1 PUSH1 0x1 ADD PUSH1 0x0 SWAP1 SLOAD SWAP1 PUSH2 0x100 EXP SWAP1 DIV PUSH20 0xFFFFFFFFFFFFFFFFFFFFFFFFFFFFFFFFFFFFFFFF AND SWAP1 DUP1 PUSH1 0x2 ADD SLOAD SWAP1 DUP1 PUSH1 0x3 ADD PUSH1 0x0 SWAP1 SLOAD SWAP1 PUSH2 0x100 EXP SWAP1 DIV PUSH20 0xFFFFFFFFFFFFFFFFFFFFFFFFFFFFFFFFFFFFFFFF AND SWAP1 DUP1 PUSH1 0x4 ADD PUSH1 0x0 SWAP1 SLOAD SWAP1 PUSH2 0x100 EXP SWAP1 DIV PUSH20 0xFFFFFFFFFFFFFFFFFFFFFFFFFFFFFFFFFFFFFFFF AND SWAP1 DUP1 PUSH1 0x5 ADD SLOAD SWAP1 DUP1 PUSH1 0x6 ADD PUSH1 0x0 SWAP1 SLOAD SWAP1 PUSH2 0x100 EXP SWAP1 DIV PUSH1 0xFF AND SWAP1 POP DUP8 JUMP JUMPDEST PUSH1 0x8 PUSH1 0x20 MSTORE DUP2 PUSH1 0x0 MSTORE PUSH1 0x40 PUSH1 0x0 KECCAK256 PUSH1 0x20 MSTORE DUP1 PUSH1 0x0 MSTORE PUSH1 0x40 PUSH1 0x0 KECCAK256 PUSH1 0x0 SWAP2 POP SWAP2 POP POP DUP1 PUSH1 0x0 ADD SLOAD SWAP1 DUP1 PUSH1 0x1 ADD PUSH1 0x0 SWAP1 SLOAD SWAP1 PUSH2 0x100 EXP SWAP1 DIV PUSH20 0xFFFFFFFFFFFFFFFFFFFFFFFFFFFFFFFFFFFFFFFF AND SWAP1 DUP1 PUSH1 0x2 ADD SLOAD SWAP1 DUP1 PUSH1 0x3 ADD PUSH1 0x0 SWAP1 SLOAD SWAP1 PUSH2 0x100 EXP SWAP1 DIV PUSH20 0xFFFFFFFFFFFFFFFFFFFFFFFFFFFFFFFFFFFFFFFF AND SWAP1 DUP1 PUSH1 0x4 ADD PUSH1 0x0 SWAP1 SLOAD SWAP1 PUSH2 0x100 EXP SWAP1 DIV PUSH20 0xFFFFFFFFFFFFFFFFFFFFFFFFFFFFFFFFFFFFFFFF AND SWAP1 DUP1 PUSH1 0x5 ADD SLOAD SWAP1 DUP1 PUSH1 0x6 ADD PUSH1 0x0 SWAP1 SLOAD SWAP1 PUSH2 0x100 EXP SWAP1 DIV PUSH1 0xFF AND SWAP1 POP DUP8 JUMP JUMPDEST PUSH1 0x9 PUSH1 0x14 SWAP1 SLOAD SWAP1 PUSH2 0x100 EXP SWAP1 DIV PUSH1 0xFF AND DUP2 JUMP JUMPDEST PUSH1 0x9 PUSH1 0x15 SWAP1 SLOAD SWAP1 PUSH2 0x100 EXP SWAP1 DIV PUSH1 0xFF AND DUP2 JUMP JUMPDEST PUSH1 0x7 PUSH1 0x20 MSTORE DUP1 PUSH1 0x0 MSTORE PUSH1 0x40 PUSH1 0x0 KECCAK256 PUSH1 0x0 SWAP2 POP SWAP1 POP DUP1 PUSH1 0x0 ADD SLOAD SWAP1 DUP1 PUSH1 0x1 ADD PUSH1 0x0 SWAP1 SLOAD SWAP1 PUSH2 0x100 EXP SWAP1 DIV PUSH20 0xFFFFFFFFFFFFFFFFFFFFFFFFFFFFFFFFFFFFFFFF AND SWAP1 DUP1 PUSH1 0x2 ADD SLOAD SWAP1 DUP1 PUSH1 0x3 ADD PUSH1 0x0 SWAP1 SLOAD SWAP1 PUSH2 0x100 EXP SWAP1 DIV PUSH20 0xFFFFFFFFFFFFFFFFFFFFFFFFFFFFFFFFFFFFFFFF AND SWAP1 DUP1 PUSH1 0x4 ADD PUSH1 0x0 SWAP1 SLOAD SWAP1 PUSH2 0x100 EXP SWAP1 DIV PUSH20 0xFFFFFFFFFFFFFFFFFFFFFFFFFFFFFFFFFFFFFFFF AND SWAP1 DUP1 PUSH1 0x5 ADD SLOAD SWAP1 DUP1 PUSH1 0x6 ADD PUSH1 0x0 SWAP1 SLOAD SWAP1 PUSH2 0x100 EXP SWAP1 DIV PUSH1 0xFF AND SWAP1 POP DUP8 JUMP JUMPDEST PUSH1 0x0 PUSH20 0xFFFFFFFFFFFFFFFFFFFFFFFFFFFFFFFFFFFFFFFF DUP3 AND SWAP1 POP SWAP2 SWAP1 POP JUMP JUMPDEST PUSH1 0x0 DUP2 SWAP1 POP SWAP2 SWAP1 POP JUMP JUMPDEST PUSH1 0x0 PUSH2 0x42E PUSH2 0x429 PUSH2 0x424 DUP5 PUSH2 0x3E9 JUMP JUMPDEST PUSH2 0x409 JUMP JUMPDEST PUSH2 0x3E9 JUMP JUMPDEST SWAP1 POP SWAP2 SWAP1 POP JUMP JUMPDEST PUSH1 0x0 PUSH2 0x440 DUP3 PUSH2 0x413 JUMP JUMPDEST SWAP1 POP SWAP2 SWAP1 POP JUMP JUMPDEST PUSH1 0x0 PUSH2 0x452 DUP3 PUSH2 0x435 JUMP JUMPDEST SWAP1 POP SWAP2 SWAP1 POP JUMP JUMPDEST PUSH2 0x462 DUP2 PUSH2 0x447 JUMP JUMPDEST DUP3 MSTORE POP POP JUMP JUMPDEST PUSH1 0x0 PUSH1 0x20 DUP3 ADD SWAP1 POP PUSH2 0x47D PUSH1 0x0 DUP4 ADD DUP5 PUSH2 0x459 JUMP JUMPDEST SWAP3 SWAP2 POP POP JUMP JUMPDEST PUSH1 0x0 PUSH32 0xFFFFFFFF00000000000000000000000000000000000000000000000000000000 DUP3 AND SWAP1 POP SWAP2 SWAP1 POP JUMP JUMPDEST PUSH2 0x4B8 DUP2 PUSH2 0x483 JUMP JUMPDEST DUP3 MSTORE POP POP JUMP JUMPDEST PUSH1 0x0 PUSH1 0x20 DUP3 ADD SWAP1 POP PUSH2 0x4D3 PUSH1 0x0 DUP4 ADD DUP5 PUSH2 0x4AF JUMP JUMPDEST SWAP3 SWAP2 POP POP JUMP JUMPDEST PUSH1 0x0 DUP2 SWAP1 POP SWAP2 SWAP1 POP JUMP JUMPDEST PUSH2 0x4EC DUP2 PUSH2 0x4D9 JUMP JUMPDEST DUP3 MSTORE POP POP JUMP JUMPDEST PUSH1 0x0 PUSH2 0x4FD DUP3 PUSH2 0x3E9 JUMP JUMPDEST SWAP1 POP SWAP2 SWAP1 POP JUMP JUMPDEST PUSH2 0x50D DUP2 PUSH2 0x4F2 JUMP JUMPDEST DUP3 MSTORE POP POP JUMP JUMPDEST PUSH1 0x0 PUSH2 0x51E DUP3 PUSH2 0x3E9 JUMP JUMPDEST SWAP1 POP SWAP2 SWAP1 POP JUMP JUMPDEST PUSH2 0x52E DUP2 PUSH2 0x513 JUMP JUMPDEST DUP3 MSTORE POP POP JUMP JUMPDEST PUSH32 0x4E487B7100000000000000000000000000000000000000000000000000000000 PUSH1 0x0 MSTORE PUSH1 0x21 PUSH1 0x4 MSTORE PUSH1 0x24 PUSH1 0x0 REVERT JUMPDEST PUSH1 0x2 DUP2 LT PUSH2 0x574 JUMPI PUSH2 0x573 PUSH2 0x534 JUMP JUMPDEST JUMPDEST POP JUMP JUMPDEST PUSH1 0x0 DUP2 SWAP1 POP PUSH2 0x585 DUP3 PUSH2 0x563 JUMP JUMPDEST SWAP2 SWAP1 POP JUMP JUMPDEST PUSH1 0x0 PUSH2 0x595 DUP3 PUSH2 0x577 JUMP JUMPDEST SWAP1 POP SWAP2 SWAP1 POP JUMP JUMPDEST PUSH2 0x5A5 DUP2 PUSH2 0x58A JUMP JUMPDEST DUP3 MSTORE POP POP JUMP JUMPDEST PUSH1 0x0 PUSH1 0xE0 DUP3 ADD SWAP1 POP PUSH2 0x5C0 PUSH1 0x0 DUP4 ADD DUP11 PUSH2 0x4E3 JUMP JUMPDEST PUSH2 0x5CD PUSH1 0x20 DUP4 ADD DUP10 PUSH2 0x504 JUMP JUMPDEST PUSH2 0x5DA PUSH1 0x40 DUP4 ADD DUP9 PUSH2 0x4E3 JUMP JUMPDEST PUSH2 0x5E7 PUSH1 0x60 DUP4 ADD DUP8 PUSH2 0x525 JUMP JUMPDEST PUSH2 0x5F4 PUSH1 0x80 DUP4 ADD DUP7 PUSH2 0x525 JUMP JUMPDEST PUSH2 0x601 PUSH1 0xA0 DUP4 ADD DUP6 PUSH2 0x4E3 JUMP JUMPDEST PUSH2 0x60E PUSH1 0xC0 DUP4 ADD DUP5 PUSH2 0x59C JUMP JUMPDEST SWAP9 SWAP8 POP POP POP POP POP POP POP POP JUMP JUMPDEST PUSH1 0x0 DUP1 REVERT JUMPDEST PUSH2 0x628 DUP2 PUSH2 0x4F2 JUMP JUMPDEST DUP2 EQ PUSH2 0x633 JUMPI PUSH1 0x0 DUP1 REVERT JUMPDEST POP JUMP JUMPDEST PUSH1 0x0 DUP2 CALLDATALOAD SWAP1 POP PUSH2 0x645 DUP2 PUSH2 0x61F JUMP JUMPDEST SWAP3 SWAP2 POP POP JUMP JUMPDEST PUSH2 0x654 DUP2 PUSH2 0x4D9 JUMP JUMPDEST DUP2 EQ PUSH2 0x65F JUMPI PUSH1 0x0 DUP1 REVERT JUMPDEST POP JUMP JUMPDEST PUSH1 0x0 DUP2 CALLDATALOAD SWAP1 POP PUSH2 0x671 DUP2 PUSH2 0x64B JUMP JUMPDEST SWAP3 SWAP2 POP POP JUMP JUMPDEST PUSH1 0x0 DUP1 PUSH1 0x40 DUP4 DUP6 SUB SLT ISZERO PUSH2 0x68E JUMPI PUSH2 0x68D PUSH2 0x61A JUMP JUMPDEST JUMPDEST PUSH1 0x0 PUSH2 0x69C DUP6 DUP3 DUP7 ADD PUSH2 0x636 JUMP JUMPDEST SWAP3 POP POP PUSH1 0x20 PUSH2 0x6AD DUP6 DUP3 DUP7 ADD PUSH2 0x662 JUMP JUMPDEST SWAP2 POP POP SWAP3 POP SWAP3 SWAP1 POP JUMP JUMPDEST PUSH1 0x0 PUSH1 0xFF DUP3 AND SWAP1 POP SWAP2 SWAP1 POP JUMP JUMPDEST PUSH2 0x6CD DUP2 PUSH2 0x6B7 JUMP JUMPDEST DUP3 MSTORE POP POP JUMP JUMPDEST PUSH1 0x0 PUSH1 0x20 DUP3 ADD SWAP1 POP PUSH2 0x6E8 PUSH1 0x0 DUP4 ADD DUP5 PUSH2 0x6C4 JUMP JUMPDEST SWAP3 SWAP2 POP POP JUMP JUMPDEST PUSH1 0x0 PUSH1 0x20 DUP3 DUP5 SUB SLT ISZERO PUSH2 0x704 JUMPI PUSH2 0x703 PUSH2 0x61A JUMP JUMPDEST JUMPDEST PUSH1 0x0 PUSH2 0x712 DUP5 DUP3 DUP6 ADD PUSH2 0x662 JUMP JUMPDEST SWAP2 POP POP SWAP3 SWAP2 POP POP JUMP INVALID LOG2 PUSH5 0x6970667358 0x22 SLT KECCAK256 SWAP7 SWAP16 0xE3 DUP4 EXTCODEHASH PUSH31 0x3988EF724E598F12EE035A3FC708EBC637996D9FA8FDC03BE6C864736F6C63 NUMBER STOP ADDMOD 0xD STOP CALLER "
				},
				"gasEstimates": {
					"creation": {
						"codeDepositCost": "374600",
						"executionCost": "411",
						"totalCost": "375011"
					},
					"external": {
						"ERC721_Interface()": "364",
						"allItems(uint256)": "infinite",
						"allMarketItems()": "infinite",
						"antaFeePercent()": "2565",
						"bnbFeePercent()": "2543",
						"items(address,uint256)": "infinite",
						"sqfToken()": "infinite"
					}
				},
				"methodIdentifiers": {
					"ERC721_Interface()": "2b4c32be",
					"allItems(uint256)": "ff68fa6e",
					"allMarketItems()": "517bd451",
					"antaFeePercent()": "b7a60c7e",
					"bnbFeePercent()": "85a8b36c",
					"items(address,uint256)": "5c80a435",
					"sqfToken()": "15b81dc3"
				}
			},
			"storageLayout": {
				"storage": [
					{
						"astId": 491,
						"contract": "contracts/Marketplace2/Marketplace.sol:MarketplaceStorage",
						"label": "allMarketItems",
						"offset": 0,
						"slot": "0",
						"type": "t_struct(MarketItem)488_storage"
					},
					{
						"astId": 502,
						"contract": "contracts/Marketplace2/Marketplace.sol:MarketplaceStorage",
						"label": "allItems",
						"offset": 0,
						"slot": "7",
						"type": "t_mapping(t_uint256,t_struct(MarketItem)488_storage)"
					},
					{
						"astId": 509,
						"contract": "contracts/Marketplace2/Marketplace.sol:MarketplaceStorage",
						"label": "items",
						"offset": 0,
						"slot": "8",
						"type": "t_mapping(t_address,t_mapping(t_uint256,t_struct(MarketItem)488_storage))"
					},
					{
						"astId": 512,
						"contract": "contracts/Marketplace2/Marketplace.sol:MarketplaceStorage",
						"label": "sqfToken",
						"offset": 0,
						"slot": "9",
						"type": "t_contract(IERC20)201"
					},
					{
						"astId": 514,
						"contract": "contracts/Marketplace2/Marketplace.sol:MarketplaceStorage",
						"label": "bnbFeePercent",
						"offset": 20,
						"slot": "9",
						"type": "t_uint8"
					},
					{
						"astId": 516,
						"contract": "contracts/Marketplace2/Marketplace.sol:MarketplaceStorage",
						"label": "antaFeePercent",
						"offset": 21,
						"slot": "9",
						"type": "t_uint8"
					}
				],
				"types": {
					"t_address": {
						"encoding": "inplace",
						"label": "address",
						"numberOfBytes": "20"
					},
					"t_address_payable": {
						"encoding": "inplace",
						"label": "address payable",
						"numberOfBytes": "20"
					},
					"t_contract(IERC20)201": {
						"encoding": "inplace",
						"label": "contract IERC20",
						"numberOfBytes": "20"
					},
					"t_enum(ItemStatus)472": {
						"encoding": "inplace",
						"label": "enum MarketplaceStorage.ItemStatus",
						"numberOfBytes": "1"
					},
					"t_mapping(t_address,t_mapping(t_uint256,t_struct(MarketItem)488_storage))": {
						"encoding": "mapping",
						"key": "t_address",
						"label": "mapping(address => mapping(uint256 => struct MarketplaceStorage.MarketItem))",
						"numberOfBytes": "32",
						"value": "t_mapping(t_uint256,t_struct(MarketItem)488_storage)"
					},
					"t_mapping(t_uint256,t_struct(MarketItem)488_storage)": {
						"encoding": "mapping",
						"key": "t_uint256",
						"label": "mapping(uint256 => struct MarketplaceStorage.MarketItem)",
						"numberOfBytes": "32",
						"value": "t_struct(MarketItem)488_storage"
					},
					"t_struct(MarketItem)488_storage": {
						"encoding": "inplace",
						"label": "struct MarketplaceStorage.MarketItem",
						"members": [
							{
								"astId": 474,
								"contract": "contracts/Marketplace2/Marketplace.sol:MarketplaceStorage",
								"label": "itemId",
								"offset": 0,
								"slot": "0",
								"type": "t_uint256"
							},
							{
								"astId": 476,
								"contract": "contracts/Marketplace2/Marketplace.sol:MarketplaceStorage",
								"label": "nftContract",
								"offset": 0,
								"slot": "1",
								"type": "t_address"
							},
							{
								"astId": 478,
								"contract": "contracts/Marketplace2/Marketplace.sol:MarketplaceStorage",
								"label": "tokenId",
								"offset": 0,
								"slot": "2",
								"type": "t_uint256"
							},
							{
								"astId": 480,
								"contract": "contracts/Marketplace2/Marketplace.sol:MarketplaceStorage",
								"label": "seller",
								"offset": 0,
								"slot": "3",
								"type": "t_address_payable"
							},
							{
								"astId": 482,
								"contract": "contracts/Marketplace2/Marketplace.sol:MarketplaceStorage",
								"label": "owner",
								"offset": 0,
								"slot": "4",
								"type": "t_address_payable"
							},
							{
								"astId": 484,
								"contract": "contracts/Marketplace2/Marketplace.sol:MarketplaceStorage",
								"label": "price",
								"offset": 0,
								"slot": "5",
								"type": "t_uint256"
							},
							{
								"astId": 487,
								"contract": "contracts/Marketplace2/Marketplace.sol:MarketplaceStorage",
								"label": "status",
								"offset": 0,
								"slot": "6",
								"type": "t_enum(ItemStatus)472"
							}
						],
						"numberOfBytes": "224"
					},
					"t_uint256": {
						"encoding": "inplace",
						"label": "uint256",
						"numberOfBytes": "32"
					},
					"t_uint8": {
						"encoding": "inplace",
						"label": "uint8",
						"numberOfBytes": "1"
					}
				}
			},
			"userdoc": {
				"kind": "user",
				"methods": {},
				"version": 1
			}
		}
	}
}