{
	"contracts/Marketplace2/Marketplace.sol": {
		"NFTMarket": {
			"abi": [
				{
					"anonymous": false,
					"inputs": [
						{
							"indexed": false,
							"internalType": "bytes32",
							"name": "id",
							"type": "bytes32"
						},
						{
							"indexed": true,
							"internalType": "uint256",
							"name": "assetId",
							"type": "uint256"
						},
						{
							"indexed": true,
							"internalType": "address",
							"name": "seller",
							"type": "address"
						},
						{
							"indexed": false,
							"internalType": "address",
							"name": "nftAddress",
							"type": "address"
						},
						{
							"indexed": false,
							"internalType": "uint256",
							"name": "price",
							"type": "uint256"
						},
						{
							"indexed": false,
							"internalType": "uint8",
							"name": "feePercent",
							"type": "uint8"
						},
						{
							"indexed": false,
							"internalType": "uint256",
							"name": "fee",
							"type": "uint256"
						},
						{
							"indexed": true,
							"internalType": "address",
							"name": "buyer",
							"type": "address"
						},
						{
							"indexed": false,
							"internalType": "string",
							"name": "currency",
							"type": "string"
						},
						{
							"indexed": false,
							"internalType": "uint256",
							"name": "createdAt",
							"type": "uint256"
						}
					],
					"name": "BuyItemSuccessful",
					"type": "event"
				},
				{
					"anonymous": false,
					"inputs": [
						{
							"indexed": false,
							"internalType": "address",
							"name": "nftAddress",
							"type": "address"
						},
						{
							"indexed": false,
							"internalType": "uint256",
							"name": "id",
							"type": "uint256"
						},
						{
							"indexed": true,
							"internalType": "uint256",
							"name": "assetId",
							"type": "uint256"
						},
						{
							"indexed": true,
							"internalType": "address",
							"name": "delistBy",
							"type": "address"
						},
						{
							"indexed": false,
							"internalType": "uint256",
							"name": "createdAt",
							"type": "uint256"
						}
					],
					"name": "DelistItemSuccessful",
					"type": "event"
				},
				{
					"anonymous": false,
					"inputs": [
						{
							"indexed": true,
							"internalType": "uint256",
							"name": "itemId",
							"type": "uint256"
						},
						{
							"indexed": true,
							"internalType": "address",
							"name": "nftContract",
							"type": "address"
						},
						{
							"indexed": true,
							"internalType": "uint256",
							"name": "tokenId",
							"type": "uint256"
						},
						{
							"indexed": false,
							"internalType": "address",
							"name": "seller",
							"type": "address"
						},
						{
							"indexed": false,
							"internalType": "address",
							"name": "owner",
							"type": "address"
						},
						{
							"indexed": false,
							"internalType": "uint256",
							"name": "price",
							"type": "uint256"
						}
					],
					"name": "MarketItemCreated",
					"type": "event"
				},
				{
					"anonymous": false,
					"inputs": [
						{
							"indexed": true,
							"internalType": "address",
							"name": "previousOwner",
							"type": "address"
						},
						{
							"indexed": true,
							"internalType": "address",
							"name": "newOwner",
							"type": "address"
						}
					],
					"name": "OwnershipTransferred",
					"type": "event"
				},
				{
					"anonymous": false,
					"inputs": [
						{
							"indexed": false,
							"internalType": "address",
							"name": "nftAddress",
							"type": "address"
						},
						{
							"indexed": false,
							"internalType": "bytes32",
							"name": "id",
							"type": "bytes32"
						},
						{
							"indexed": true,
							"internalType": "uint256",
							"name": "assetId",
							"type": "uint256"
						},
						{
							"indexed": false,
							"internalType": "uint256",
							"name": "price",
							"type": "uint256"
						},
						{
							"indexed": true,
							"internalType": "address",
							"name": "seller",
							"type": "address"
						},
						{
							"indexed": false,
							"internalType": "string",
							"name": "currency",
							"type": "string"
						},
						{
							"indexed": false,
							"internalType": "uint256",
							"name": "createdAt",
							"type": "uint256"
						}
					],
					"name": "SellItemSuccessful",
					"type": "event"
				},
				{
					"inputs": [],
					"name": "ERC721_Interface",
					"outputs": [
						{
							"internalType": "bytes4",
							"name": "",
							"type": "bytes4"
						}
					],
					"stateMutability": "view",
					"type": "function"
				},
				{
					"inputs": [
						{
							"internalType": "uint256",
							"name": "",
							"type": "uint256"
						}
					],
					"name": "allItems",
					"outputs": [
						{
							"internalType": "uint256",
							"name": "itemId",
							"type": "uint256"
						},
						{
							"internalType": "address",
							"name": "nftContract",
							"type": "address"
						},
						{
							"internalType": "uint256",
							"name": "tokenId",
							"type": "uint256"
						},
						{
							"internalType": "address payable",
							"name": "seller",
							"type": "address"
						},
						{
							"internalType": "address payable",
							"name": "owner",
							"type": "address"
						},
						{
							"internalType": "uint256",
							"name": "price",
							"type": "uint256"
						},
						{
							"internalType": "enum MarketplaceStorage.ItemStatus",
							"name": "status",
							"type": "uint8"
						}
					],
					"stateMutability": "view",
					"type": "function"
				},
				{
					"inputs": [],
					"name": "allMarketItems",
					"outputs": [
						{
							"internalType": "uint256",
							"name": "itemId",
							"type": "uint256"
						},
						{
							"internalType": "address",
							"name": "nftContract",
							"type": "address"
						},
						{
							"internalType": "uint256",
							"name": "tokenId",
							"type": "uint256"
						},
						{
							"internalType": "address payable",
							"name": "seller",
							"type": "address"
						},
						{
							"internalType": "address payable",
							"name": "owner",
							"type": "address"
						},
						{
							"internalType": "uint256",
							"name": "price",
							"type": "uint256"
						},
						{
							"internalType": "enum MarketplaceStorage.ItemStatus",
							"name": "status",
							"type": "uint8"
						}
					],
					"stateMutability": "view",
					"type": "function"
				},
				{
					"inputs": [],
					"name": "antaFeePercent",
					"outputs": [
						{
							"internalType": "uint8",
							"name": "",
							"type": "uint8"
						}
					],
					"stateMutability": "view",
					"type": "function"
				},
				{
					"inputs": [],
					"name": "bnbFeePercent",
					"outputs": [
						{
							"internalType": "uint8",
							"name": "",
							"type": "uint8"
						}
					],
					"stateMutability": "view",
					"type": "function"
				},
				{
					"inputs": [
						{
							"internalType": "address",
							"name": "nftContract",
							"type": "address"
						},
						{
							"internalType": "uint256",
							"name": "tokenId",
							"type": "uint256"
						},
						{
							"internalType": "uint256",
							"name": "price",
							"type": "uint256"
						}
					],
					"name": "createMarketItem",
					"outputs": [],
					"stateMutability": "payable",
					"type": "function"
				},
				{
					"inputs": [
						{
							"internalType": "address",
							"name": "nftContract",
							"type": "address"
						},
						{
							"internalType": "uint256",
							"name": "itemId",
							"type": "uint256"
						},
						{
							"internalType": "uint256",
							"name": "amount",
							"type": "uint256"
						}
					],
					"name": "createMarketSale",
					"outputs": [],
					"stateMutability": "nonpayable",
					"type": "function"
				},
				{
					"inputs": [
						{
							"internalType": "address",
							"name": "nftAddress",
							"type": "address"
						},
						{
							"internalType": "uint256",
							"name": "itemId",
							"type": "uint256"
						}
					],
					"name": "delistItem",
					"outputs": [],
					"stateMutability": "nonpayable",
					"type": "function"
				},
				{
					"inputs": [
						{
							"internalType": "uint256",
							"name": "itemId",
							"type": "uint256"
						}
					],
					"name": "fetchMarketItem",
					"outputs": [
						{
							"components": [
								{
									"internalType": "uint256",
									"name": "itemId",
									"type": "uint256"
								},
								{
									"internalType": "address",
									"name": "nftContract",
									"type": "address"
								},
								{
									"internalType": "uint256",
									"name": "tokenId",
									"type": "uint256"
								},
								{
									"internalType": "address payable",
									"name": "seller",
									"type": "address"
								},
								{
									"internalType": "address payable",
									"name": "owner",
									"type": "address"
								},
								{
									"internalType": "uint256",
									"name": "price",
									"type": "uint256"
								},
								{
									"internalType": "enum MarketplaceStorage.ItemStatus",
									"name": "status",
									"type": "uint8"
								}
							],
							"internalType": "struct MarketplaceStorage.MarketItem",
							"name": "",
							"type": "tuple"
						}
					],
					"stateMutability": "view",
					"type": "function"
				},
				{
					"inputs": [],
					"name": "fetchMarketItems",
					"outputs": [
						{
							"components": [
								{
									"internalType": "uint256",
									"name": "itemId",
									"type": "uint256"
								},
								{
									"internalType": "address",
									"name": "nftContract",
									"type": "address"
								},
								{
									"internalType": "uint256",
									"name": "tokenId",
									"type": "uint256"
								},
								{
									"internalType": "address payable",
									"name": "seller",
									"type": "address"
								},
								{
									"internalType": "address payable",
									"name": "owner",
									"type": "address"
								},
								{
									"internalType": "uint256",
									"name": "price",
									"type": "uint256"
								},
								{
									"internalType": "enum MarketplaceStorage.ItemStatus",
									"name": "status",
									"type": "uint8"
								}
							],
							"internalType": "struct MarketplaceStorage.MarketItem",
							"name": "",
							"type": "tuple"
						}
					],
					"stateMutability": "view",
					"type": "function"
				},
				{
					"inputs": [],
					"name": "fetchMyNFTs",
					"outputs": [
						{
							"components": [
								{
									"internalType": "uint256",
									"name": "itemId",
									"type": "uint256"
								},
								{
									"internalType": "address",
									"name": "nftContract",
									"type": "address"
								},
								{
									"internalType": "uint256",
									"name": "tokenId",
									"type": "uint256"
								},
								{
									"internalType": "address payable",
									"name": "seller",
									"type": "address"
								},
								{
									"internalType": "address payable",
									"name": "owner",
									"type": "address"
								},
								{
									"internalType": "uint256",
									"name": "price",
									"type": "uint256"
								},
								{
									"internalType": "enum MarketplaceStorage.ItemStatus",
									"name": "status",
									"type": "uint8"
								}
							],
							"internalType": "struct MarketplaceStorage.MarketItem[]",
							"name": "",
							"type": "tuple[]"
						}
					],
					"stateMutability": "view",
					"type": "function"
				},
				{
					"inputs": [
						{
							"internalType": "uint256",
							"name": "marketItemId",
							"type": "uint256"
						}
					],
					"name": "getMarketItem",
					"outputs": [
						{
							"components": [
								{
									"internalType": "uint256",
									"name": "itemId",
									"type": "uint256"
								},
								{
									"internalType": "address",
									"name": "nftContract",
									"type": "address"
								},
								{
									"internalType": "uint256",
									"name": "tokenId",
									"type": "uint256"
								},
								{
									"internalType": "address payable",
									"name": "seller",
									"type": "address"
								},
								{
									"internalType": "address payable",
									"name": "owner",
									"type": "address"
								},
								{
									"internalType": "uint256",
									"name": "price",
									"type": "uint256"
								},
								{
									"internalType": "enum MarketplaceStorage.ItemStatus",
									"name": "status",
									"type": "uint8"
								}
							],
							"internalType": "struct MarketplaceStorage.MarketItem",
							"name": "",
							"type": "tuple"
						}
					],
					"stateMutability": "view",
					"type": "function"
				},
				{
					"inputs": [
						{
							"internalType": "address",
							"name": "",
							"type": "address"
						},
						{
							"internalType": "uint256",
							"name": "",
							"type": "uint256"
						}
					],
					"name": "items",
					"outputs": [
						{
							"internalType": "uint256",
							"name": "itemId",
							"type": "uint256"
						},
						{
							"internalType": "address",
							"name": "nftContract",
							"type": "address"
						},
						{
							"internalType": "uint256",
							"name": "tokenId",
							"type": "uint256"
						},
						{
							"internalType": "address payable",
							"name": "seller",
							"type": "address"
						},
						{
							"internalType": "address payable",
							"name": "owner",
							"type": "address"
						},
						{
							"internalType": "uint256",
							"name": "price",
							"type": "uint256"
						},
						{
							"internalType": "enum MarketplaceStorage.ItemStatus",
							"name": "status",
							"type": "uint8"
						}
					],
					"stateMutability": "view",
					"type": "function"
				},
				{
					"inputs": [],
					"name": "owner",
					"outputs": [
						{
							"internalType": "address",
							"name": "",
							"type": "address"
						}
					],
					"stateMutability": "view",
					"type": "function"
				},
				{
					"inputs": [],
					"name": "renounceOwnership",
					"outputs": [],
					"stateMutability": "nonpayable",
					"type": "function"
				},
				{
					"inputs": [
						{
							"internalType": "address",
							"name": "_address",
							"type": "address"
						}
					],
					"name": "setSQFToken",
					"outputs": [],
					"stateMutability": "nonpayable",
					"type": "function"
				},
				{
					"inputs": [],
					"name": "sqfToken",
					"outputs": [
						{
							"internalType": "contract IERC20",
							"name": "",
							"type": "address"
						}
					],
					"stateMutability": "view",
					"type": "function"
				},
				{
					"inputs": [
						{
							"internalType": "address",
							"name": "newOwner",
							"type": "address"
						}
					],
					"name": "transferOwnership",
					"outputs": [],
					"stateMutability": "nonpayable",
					"type": "function"
				}
			],
			"devdoc": {
				"kind": "dev",
				"methods": {
					"owner()": {
						"details": "Returns the address of the current owner."
					},
					"renounceOwnership()": {
						"details": "Leaves the contract without owner. It will not be possible to call `onlyOwner` functions anymore. Can only be called by the current owner. NOTE: Renouncing ownership will leave the contract without an owner, thereby removing any functionality that is only available to the owner."
					},
					"transferOwnership(address)": {
						"details": "Transfers ownership of the contract to a new account (`newOwner`). Can only be called by the current owner."
					}
				},
				"version": 1
			},
			"evm": {
				"assembly": "    /* \"contracts/Marketplace2/Marketplace.sol\":17133:23474  contract NFTMarket is ReentrancyGuard,MarketplaceStorage, Ownable {... */\n  mstore(0x40, 0x80)\n  callvalue\n  dup1\n  iszero\n  tag_1\n  jumpi\n  0x00\n  dup1\n  revert\ntag_1:\n  pop\n    /* \"contracts/Marketplace2/Marketplace.sol\":14122:14123  1 */\n  0x01\n    /* \"contracts/Marketplace2/Marketplace.sol\":14227:14234  _status */\n  0x00\n    /* \"contracts/Marketplace2/Marketplace.sol\":14227:14249  _status = _NOT_ENTERED */\n  dup2\n  swap1\n  sstore\n  pop\n    /* \"contracts/Marketplace2/Marketplace.sol\":1561:1593  _transferOwnership(_msgSender()) */\n  tag_6\n    /* \"contracts/Marketplace2/Marketplace.sol\":1580:1592  _msgSender() */\n  tag_7\n    /* \"contracts/Marketplace2/Marketplace.sol\":1580:1590  _msgSender */\n  shl(0x20, tag_8)\n    /* \"contracts/Marketplace2/Marketplace.sol\":1580:1592  _msgSender() */\n  0x20\n  shr\n  jump\t// in\ntag_7:\n    /* \"contracts/Marketplace2/Marketplace.sol\":1561:1579  _transferOwnership */\n  shl(0x20, tag_9)\n    /* \"contracts/Marketplace2/Marketplace.sol\":1561:1593  _transferOwnership(_msgSender()) */\n  0x20\n  shr\n  jump\t// in\ntag_6:\n    /* \"contracts/Marketplace2/Marketplace.sol\":17133:23474  contract NFTMarket is ReentrancyGuard,MarketplaceStorage, Ownable {... */\n  jump(tag_10)\n    /* \"contracts/Marketplace2/Marketplace.sol\":554:650  function _msgSender() internal view virtual returns (address) {... */\ntag_8:\n    /* \"contracts/Marketplace2/Marketplace.sol\":607:614  address */\n  0x00\n    /* \"contracts/Marketplace2/Marketplace.sol\":633:643  msg.sender */\n  caller\n    /* \"contracts/Marketplace2/Marketplace.sol\":626:643  return msg.sender */\n  swap1\n  pop\n    /* \"contracts/Marketplace2/Marketplace.sol\":554:650  function _msgSender() internal view virtual returns (address) {... */\n  swap1\n  jump\t// out\n    /* \"contracts/Marketplace2/Marketplace.sol\":2910:3097  function _transferOwnership(address newOwner) internal virtual {... */\ntag_9:\n    /* \"contracts/Marketplace2/Marketplace.sol\":2983:2999  address oldOwner */\n  0x00\n    /* \"contracts/Marketplace2/Marketplace.sol\":3002:3008  _owner */\n  0x0b\n  0x00\n  swap1\n  sload\n  swap1\n  0x0100\n  exp\n  swap1\n  div\n  0xffffffffffffffffffffffffffffffffffffffff\n  and\n    /* \"contracts/Marketplace2/Marketplace.sol\":2983:3008  address oldOwner = _owner */\n  swap1\n  pop\n    /* \"contracts/Marketplace2/Marketplace.sol\":3027:3035  newOwner */\n  dup2\n    /* \"contracts/Marketplace2/Marketplace.sol\":3018:3024  _owner */\n  0x0b\n  0x00\n    /* \"contracts/Marketplace2/Marketplace.sol\":3018:3035  _owner = newOwner */\n  0x0100\n  exp\n  dup2\n  sload\n  dup2\n  0xffffffffffffffffffffffffffffffffffffffff\n  mul\n  not\n  and\n  swap1\n  dup4\n  0xffffffffffffffffffffffffffffffffffffffff\n  and\n  mul\n  or\n  swap1\n  sstore\n  pop\n    /* \"contracts/Marketplace2/Marketplace.sol\":3081:3089  newOwner */\n  dup2\n    /* \"contracts/Marketplace2/Marketplace.sol\":3050:3090  OwnershipTransferred(oldOwner, newOwner) */\n  0xffffffffffffffffffffffffffffffffffffffff\n  and\n    /* \"contracts/Marketplace2/Marketplace.sol\":3071:3079  oldOwner */\n  dup2\n    /* \"contracts/Marketplace2/Marketplace.sol\":3050:3090  OwnershipTransferred(oldOwner, newOwner) */\n  0xffffffffffffffffffffffffffffffffffffffff\n  and\n  0x8be0079c531659141344cd1fd0a4f28419497f9722a3daafe3b4186f6b6457e0\n  mload(0x40)\n  mload(0x40)\n  dup1\n  swap2\n  sub\n  swap1\n  log3\n    /* \"contracts/Marketplace2/Marketplace.sol\":2973:3097  {... */\n  pop\n    /* \"contracts/Marketplace2/Marketplace.sol\":2910:3097  function _transferOwnership(address newOwner) internal virtual {... */\n  pop\n  jump\t// out\n    /* \"contracts/Marketplace2/Marketplace.sol\":17133:23474  contract NFTMarket is ReentrancyGuard,MarketplaceStorage, Ownable {... */\ntag_10:\n  dataSize(sub_0)\n  dup1\n  dataOffset(sub_0)\n  0x00\n  codecopy\n  0x00\n  return\nstop\n\nsub_0: assembly {\n        /* \"contracts/Marketplace2/Marketplace.sol\":17133:23474  contract NFTMarket is ReentrancyGuard,MarketplaceStorage, Ownable {... */\n      mstore(0x40, 0x80)\n      jumpi(tag_1, lt(calldatasize, 0x04))\n      shr(0xe0, calldataload(0x00))\n      dup1\n      0x715018a6\n      gt\n      tag_20\n      jumpi\n      dup1\n      0xad9a0369\n      gt\n      tag_21\n      jumpi\n      dup1\n      0xad9a0369\n      eq\n      tag_15\n      jumpi\n      dup1\n      0xb7a60c7e\n      eq\n      tag_16\n      jumpi\n      dup1\n      0xc7be7a49\n      eq\n      tag_17\n      jumpi\n      dup1\n      0xf2fde38b\n      eq\n      tag_18\n      jumpi\n      dup1\n      0xff68fa6e\n      eq\n      tag_19\n      jumpi\n      jump(tag_1)\n    tag_21:\n      dup1\n      0x715018a6\n      eq\n      tag_11\n      jumpi\n      dup1\n      0x85a8b36c\n      eq\n      tag_12\n      jumpi\n      dup1\n      0x8da5cb5b\n      eq\n      tag_13\n      jumpi\n      dup1\n      0x92bf77dd\n      eq\n      tag_14\n      jumpi\n      jump(tag_1)\n    tag_20:\n      dup1\n      0x2a45b250\n      gt\n      tag_22\n      jumpi\n      dup1\n      0x2a45b250\n      eq\n      tag_6\n      jumpi\n      dup1\n      0x2b4c32be\n      eq\n      tag_7\n      jumpi\n      dup1\n      0x517bd451\n      eq\n      tag_8\n      jumpi\n      dup1\n      0x58eb2df5\n      eq\n      tag_9\n      jumpi\n      dup1\n      0x5c80a435\n      eq\n      tag_10\n      jumpi\n      jump(tag_1)\n    tag_22:\n      dup1\n      0x0f08efe0\n      eq\n      tag_2\n      jumpi\n      dup1\n      0x15b81dc3\n      eq\n      tag_3\n      jumpi\n      dup1\n      0x202e3740\n      eq\n      tag_4\n      jumpi\n      dup1\n      0x21cf91ac\n      eq\n      tag_5\n      jumpi\n    tag_1:\n      0x00\n      dup1\n      revert\n        /* \"contracts/Marketplace2/Marketplace.sol\":19099:19199  function fetchMarketItems() public view returns (MarketItem memory) {... */\n    tag_2:\n      callvalue\n      dup1\n      iszero\n      tag_23\n      jumpi\n      0x00\n      dup1\n      revert\n    tag_23:\n      pop\n      tag_24\n      tag_25\n      jump\t// in\n    tag_24:\n      mload(0x40)\n      tag_26\n      swap2\n      swap1\n      tag_27\n      jump\t// in\n    tag_26:\n      mload(0x40)\n      dup1\n      swap2\n      sub\n      swap1\n      return\n        /* \"contracts/Marketplace2/Marketplace.sol\":16122:16144  IERC20 public sqfToken */\n    tag_3:\n      callvalue\n      dup1\n      iszero\n      tag_28\n      jumpi\n      0x00\n      dup1\n      revert\n    tag_28:\n      pop\n      tag_29\n      tag_30\n      jump\t// in\n    tag_29:\n      mload(0x40)\n      tag_31\n      swap2\n      swap1\n      tag_32\n      jump\t// in\n    tag_31:\n      mload(0x40)\n      dup1\n      swap2\n      sub\n      swap1\n      return\n        /* \"contracts/Marketplace2/Marketplace.sol\":19203:19906  function fetchMyNFTs() public view returns (MarketItem[] memory) {... */\n    tag_4:\n      callvalue\n      dup1\n      iszero\n      tag_33\n      jumpi\n      0x00\n      dup1\n      revert\n    tag_33:\n      pop\n      tag_34\n      tag_35\n      jump\t// in\n    tag_34:\n      mload(0x40)\n      tag_36\n      swap2\n      swap1\n      tag_37\n      jump\t// in\n    tag_36:\n      mload(0x40)\n      dup1\n      swap2\n      sub\n      swap1\n      return\n        /* \"contracts/Marketplace2/Marketplace.sol\":18267:18938  function createMarketSale(... */\n    tag_5:\n      callvalue\n      dup1\n      iszero\n      tag_38\n      jumpi\n      0x00\n      dup1\n      revert\n    tag_38:\n      pop\n      tag_39\n      0x04\n      dup1\n      calldatasize\n      sub\n      dup2\n      add\n      swap1\n      tag_40\n      swap2\n      swap1\n      tag_41\n      jump\t// in\n    tag_40:\n      tag_42\n      jump\t// in\n    tag_39:\n      stop\n        /* \"contracts/Marketplace2/Marketplace.sol\":18942:19095  function fetchMarketItem(uint itemId) public view returns (MarketItem memory) {... */\n    tag_6:\n      callvalue\n      dup1\n      iszero\n      tag_43\n      jumpi\n      0x00\n      dup1\n      revert\n    tag_43:\n      pop\n      tag_44\n      0x04\n      dup1\n      calldatasize\n      sub\n      dup2\n      add\n      swap1\n      tag_45\n      swap2\n      swap1\n      tag_46\n      jump\t// in\n    tag_45:\n      tag_47\n      jump\t// in\n    tag_44:\n      mload(0x40)\n      tag_48\n      swap2\n      swap1\n      tag_27\n      jump\t// in\n    tag_48:\n      mload(0x40)\n      dup1\n      swap2\n      sub\n      swap1\n      return\n        /* \"contracts/Marketplace2/Marketplace.sol\":15861:15921  bytes4 public constant ERC721_Interface = bytes4(0x80ac58cd) */\n    tag_7:\n      callvalue\n      dup1\n      iszero\n      tag_49\n      jumpi\n      0x00\n      dup1\n      revert\n    tag_49:\n      pop\n      tag_50\n      tag_51\n      jump\t// in\n    tag_50:\n      mload(0x40)\n      tag_52\n      swap2\n      swap1\n      tag_53\n      jump\t// in\n    tag_52:\n      mload(0x40)\n      dup1\n      swap2\n      sub\n      swap1\n      return\n        /* \"contracts/Marketplace2/Marketplace.sol\":15822:15854  MarketItem public allMarketItems */\n    tag_8:\n      callvalue\n      dup1\n      iszero\n      tag_54\n      jumpi\n      0x00\n      dup1\n      revert\n    tag_54:\n      pop\n      tag_55\n      tag_56\n      jump\t// in\n    tag_55:\n      mload(0x40)\n      tag_57\n      swap8\n      swap7\n      swap6\n      swap5\n      swap4\n      swap3\n      swap2\n      swap1\n      tag_58\n      jump\t// in\n    tag_57:\n      mload(0x40)\n      dup1\n      swap2\n      sub\n      swap1\n      return\n        /* \"contracts/Marketplace2/Marketplace.sol\":17612:18263  function createMarketItem(... */\n    tag_9:\n      tag_59\n      0x04\n      dup1\n      calldatasize\n      sub\n      dup2\n      add\n      swap1\n      tag_60\n      swap2\n      swap1\n      tag_41\n      jump\t// in\n    tag_60:\n      tag_61\n      jump\t// in\n    tag_59:\n      stop\n        /* \"contracts/Marketplace2/Marketplace.sol\":16052:16115  mapping(address => mapping(uint256 => MarketItem)) public items */\n    tag_10:\n      callvalue\n      dup1\n      iszero\n      tag_62\n      jumpi\n      0x00\n      dup1\n      revert\n    tag_62:\n      pop\n      tag_63\n      0x04\n      dup1\n      calldatasize\n      sub\n      dup2\n      add\n      swap1\n      tag_64\n      swap2\n      swap1\n      tag_65\n      jump\t// in\n    tag_64:\n      tag_66\n      jump\t// in\n    tag_63:\n      mload(0x40)\n      tag_67\n      swap8\n      swap7\n      swap6\n      swap5\n      swap4\n      swap3\n      swap2\n      swap1\n      tag_58\n      jump\t// in\n    tag_67:\n      mload(0x40)\n      dup1\n      swap2\n      sub\n      swap1\n      return\n        /* \"contracts/Marketplace2/Marketplace.sol\":2308:2409  function renounceOwnership() public virtual onlyOwner {... */\n    tag_11:\n      callvalue\n      dup1\n      iszero\n      tag_68\n      jumpi\n      0x00\n      dup1\n      revert\n    tag_68:\n      pop\n      tag_69\n      tag_70\n      jump\t// in\n    tag_69:\n      stop\n        /* \"contracts/Marketplace2/Marketplace.sol\":16151:16177  uint8 public bnbFeePercent */\n    tag_12:\n      callvalue\n      dup1\n      iszero\n      tag_71\n      jumpi\n      0x00\n      dup1\n      revert\n    tag_71:\n      pop\n      tag_72\n      tag_73\n      jump\t// in\n    tag_72:\n      mload(0x40)\n      tag_74\n      swap2\n      swap1\n      tag_75\n      jump\t// in\n    tag_74:\n      mload(0x40)\n      dup1\n      swap2\n      sub\n      swap1\n      return\n        /* \"contracts/Marketplace2/Marketplace.sol\":1676:1761  function owner() public view virtual returns (address) {... */\n    tag_13:\n      callvalue\n      dup1\n      iszero\n      tag_76\n      jumpi\n      0x00\n      dup1\n      revert\n    tag_76:\n      pop\n      tag_77\n      tag_78\n      jump\t// in\n    tag_77:\n      mload(0x40)\n      tag_79\n      swap2\n      swap1\n      tag_80\n      jump\t// in\n    tag_79:\n      mload(0x40)\n      dup1\n      swap2\n      sub\n      swap1\n      return\n        /* \"contracts/Marketplace2/Marketplace.sol\":17510:17608  function setSQFToken(address _address) external onlyOwner {... */\n    tag_14:\n      callvalue\n      dup1\n      iszero\n      tag_81\n      jumpi\n      0x00\n      dup1\n      revert\n    tag_81:\n      pop\n      tag_82\n      0x04\n      dup1\n      calldatasize\n      sub\n      dup2\n      add\n      swap1\n      tag_83\n      swap2\n      swap1\n      tag_84\n      jump\t// in\n    tag_83:\n      tag_85\n      jump\t// in\n    tag_82:\n      stop\n        /* \"contracts/Marketplace2/Marketplace.sol\":19910:20802  function delistItem(address nftAddress, uint256 itemId) public {... */\n    tag_15:\n      callvalue\n      dup1\n      iszero\n      tag_86\n      jumpi\n      0x00\n      dup1\n      revert\n    tag_86:\n      pop\n      tag_87\n      0x04\n      dup1\n      calldatasize\n      sub\n      dup2\n      add\n      swap1\n      tag_88\n      swap2\n      swap1\n      tag_65\n      jump\t// in\n    tag_88:\n      tag_89\n      jump\t// in\n    tag_87:\n      stop\n        /* \"contracts/Marketplace2/Marketplace.sol\":16183:16210  uint8 public antaFeePercent */\n    tag_16:\n      callvalue\n      dup1\n      iszero\n      tag_90\n      jumpi\n      0x00\n      dup1\n      revert\n    tag_90:\n      pop\n      tag_91\n      tag_92\n      jump\t// in\n    tag_91:\n      mload(0x40)\n      tag_93\n      swap2\n      swap1\n      tag_75\n      jump\t// in\n    tag_93:\n      mload(0x40)\n      dup1\n      swap2\n      sub\n      swap1\n      return\n        /* \"contracts/Marketplace2/Marketplace.sol\":17377:17508  function getMarketItem(uint256 marketItemId) public view returns (MarketItem memory) {... */\n    tag_17:\n      callvalue\n      dup1\n      iszero\n      tag_94\n      jumpi\n      0x00\n      dup1\n      revert\n    tag_94:\n      pop\n      tag_95\n      0x04\n      dup1\n      calldatasize\n      sub\n      dup2\n      add\n      swap1\n      tag_96\n      swap2\n      swap1\n      tag_46\n      jump\t// in\n    tag_96:\n      tag_97\n      jump\t// in\n    tag_95:\n      mload(0x40)\n      tag_98\n      swap2\n      swap1\n      tag_27\n      jump\t// in\n    tag_98:\n      mload(0x40)\n      dup1\n      swap2\n      sub\n      swap1\n      return\n        /* \"contracts/Marketplace2/Marketplace.sol\":2558:2756  function transferOwnership(address newOwner) public virtual onlyOwner {... */\n    tag_18:\n      callvalue\n      dup1\n      iszero\n      tag_99\n      jumpi\n      0x00\n      dup1\n      revert\n    tag_99:\n      pop\n      tag_100\n      0x04\n      dup1\n      calldatasize\n      sub\n      dup2\n      add\n      swap1\n      tag_101\n      swap2\n      swap1\n      tag_84\n      jump\t// in\n    tag_101:\n      tag_102\n      jump\t// in\n    tag_100:\n      stop\n        /* \"contracts/Marketplace2/Marketplace.sol\":15928:15975  mapping (uint256 => MarketItem) public allItems */\n    tag_19:\n      callvalue\n      dup1\n      iszero\n      tag_103\n      jumpi\n      0x00\n      dup1\n      revert\n    tag_103:\n      pop\n      tag_104\n      0x04\n      dup1\n      calldatasize\n      sub\n      dup2\n      add\n      swap1\n      tag_105\n      swap2\n      swap1\n      tag_46\n      jump\t// in\n    tag_105:\n      tag_106\n      jump\t// in\n    tag_104:\n      mload(0x40)\n      tag_107\n      swap8\n      swap7\n      swap6\n      swap5\n      swap4\n      swap3\n      swap2\n      swap1\n      tag_58\n      jump\t// in\n    tag_107:\n      mload(0x40)\n      dup1\n      swap2\n      sub\n      swap1\n      return\n        /* \"contracts/Marketplace2/Marketplace.sol\":19099:19199  function fetchMarketItems() public view returns (MarketItem memory) {... */\n    tag_25:\n        /* \"contracts/Marketplace2/Marketplace.sol\":19148:19165  MarketItem memory */\n      tag_108\n      tag_109\n      jump\t// in\n    tag_108:\n        /* \"contracts/Marketplace2/Marketplace.sol\":19180:19194  allMarketItems */\n      0x01\n        /* \"contracts/Marketplace2/Marketplace.sol\":19173:19194  return allMarketItems */\n      mload(0x40)\n      dup1\n      0xe0\n      add\n      0x40\n      mstore\n      swap1\n      dup2\n      0x00\n      dup3\n      add\n      sload\n      dup2\n      mstore\n      0x20\n      add\n      0x01\n      dup3\n      add\n      0x00\n      swap1\n      sload\n      swap1\n      0x0100\n      exp\n      swap1\n      div\n      0xffffffffffffffffffffffffffffffffffffffff\n      and\n      0xffffffffffffffffffffffffffffffffffffffff\n      and\n      0xffffffffffffffffffffffffffffffffffffffff\n      and\n      dup2\n      mstore\n      0x20\n      add\n      0x02\n      dup3\n      add\n      sload\n      dup2\n      mstore\n      0x20\n      add\n      0x03\n      dup3\n      add\n      0x00\n      swap1\n      sload\n      swap1\n      0x0100\n      exp\n      swap1\n      div\n      0xffffffffffffffffffffffffffffffffffffffff\n      and\n      0xffffffffffffffffffffffffffffffffffffffff\n      and\n      0xffffffffffffffffffffffffffffffffffffffff\n      and\n      dup2\n      mstore\n      0x20\n      add\n      0x04\n      dup3\n      add\n      0x00\n      swap1\n      sload\n      swap1\n      0x0100\n      exp\n      swap1\n      div\n      0xffffffffffffffffffffffffffffffffffffffff\n      and\n      0xffffffffffffffffffffffffffffffffffffffff\n      and\n      0xffffffffffffffffffffffffffffffffffffffff\n      and\n      dup2\n      mstore\n      0x20\n      add\n      0x05\n      dup3\n      add\n      sload\n      dup2\n      mstore\n      0x20\n      add\n      0x06\n      dup3\n      add\n      0x00\n      swap1\n      sload\n      swap1\n      0x0100\n      exp\n      swap1\n      div\n      0xff\n      and\n      0x01\n      dup2\n      gt\n      iszero\n      tag_111\n      jumpi\n      tag_112\n      tag_113\n      jump\t// in\n    tag_112:\n    tag_111:\n      0x01\n      dup2\n      gt\n      iszero\n      tag_114\n      jumpi\n      tag_115\n      tag_113\n      jump\t// in\n    tag_115:\n    tag_114:\n      dup2\n      mstore\n      pop\n      pop\n      swap1\n      pop\n        /* \"contracts/Marketplace2/Marketplace.sol\":19099:19199  function fetchMarketItems() public view returns (MarketItem memory) {... */\n      swap1\n      jump\t// out\n        /* \"contracts/Marketplace2/Marketplace.sol\":16122:16144  IERC20 public sqfToken */\n    tag_30:\n      0x0a\n      0x00\n      swap1\n      sload\n      swap1\n      0x0100\n      exp\n      swap1\n      div\n      0xffffffffffffffffffffffffffffffffffffffff\n      and\n      dup2\n      jump\t// out\n        /* \"contracts/Marketplace2/Marketplace.sol\":19203:19906  function fetchMyNFTs() public view returns (MarketItem[] memory) {... */\n    tag_35:\n        /* \"contracts/Marketplace2/Marketplace.sol\":19247:19266  MarketItem[] memory */\n      0x60\n        /* \"contracts/Marketplace2/Marketplace.sol\":19274:19293  uint totalItemCount */\n      0x00\n        /* \"contracts/Marketplace2/Marketplace.sol\":19296:19314  _itemIds.current() */\n      tag_117\n        /* \"contracts/Marketplace2/Marketplace.sol\":19296:19304  _itemIds */\n      0x0c\n        /* \"contracts/Marketplace2/Marketplace.sol\":19296:19312  _itemIds.current */\n      tag_118\n        /* \"contracts/Marketplace2/Marketplace.sol\":19296:19314  _itemIds.current() */\n      jump\t// in\n    tag_117:\n        /* \"contracts/Marketplace2/Marketplace.sol\":19274:19314  uint totalItemCount = _itemIds.current() */\n      swap1\n      pop\n        /* \"contracts/Marketplace2/Marketplace.sol\":19320:19334  uint itemCount */\n      0x00\n        /* \"contracts/Marketplace2/Marketplace.sol\":19344:19361  uint currentIndex */\n      dup1\n        /* \"contracts/Marketplace2/Marketplace.sol\":19377:19383  uint i */\n      0x00\n        /* \"contracts/Marketplace2/Marketplace.sol\":19372:19508  for (uint i = 0; i < totalItemCount; i++) {... */\n    tag_119:\n        /* \"contracts/Marketplace2/Marketplace.sol\":19393:19407  totalItemCount */\n      dup4\n        /* \"contracts/Marketplace2/Marketplace.sol\":19389:19390  i */\n      dup2\n        /* \"contracts/Marketplace2/Marketplace.sol\":19389:19407  i < totalItemCount */\n      lt\n        /* \"contracts/Marketplace2/Marketplace.sol\":19372:19508  for (uint i = 0; i < totalItemCount; i++) {... */\n      iszero\n      tag_120\n      jumpi\n        /* \"contracts/Marketplace2/Marketplace.sol\":19457:19467  msg.sender */\n      caller\n        /* \"contracts/Marketplace2/Marketplace.sol\":19426:19467  idToMarketItem[i + 1].owner == msg.sender */\n      0xffffffffffffffffffffffffffffffffffffffff\n      and\n        /* \"contracts/Marketplace2/Marketplace.sol\":19426:19440  idToMarketItem */\n      0x0e\n        /* \"contracts/Marketplace2/Marketplace.sol\":19426:19447  idToMarketItem[i + 1] */\n      0x00\n        /* \"contracts/Marketplace2/Marketplace.sol\":19445:19446  1 */\n      0x01\n        /* \"contracts/Marketplace2/Marketplace.sol\":19441:19442  i */\n      dup5\n        /* \"contracts/Marketplace2/Marketplace.sol\":19441:19446  i + 1 */\n      tag_122\n      swap2\n      swap1\n      tag_123\n      jump\t// in\n    tag_122:\n        /* \"contracts/Marketplace2/Marketplace.sol\":19426:19447  idToMarketItem[i + 1] */\n      dup2\n      mstore\n      0x20\n      add\n      swap1\n      dup2\n      mstore\n      0x20\n      add\n      0x00\n      keccak256\n        /* \"contracts/Marketplace2/Marketplace.sol\":19426:19453  idToMarketItem[i + 1].owner */\n      0x04\n      add\n      0x00\n      swap1\n      sload\n      swap1\n      0x0100\n      exp\n      swap1\n      div\n      0xffffffffffffffffffffffffffffffffffffffff\n      and\n        /* \"contracts/Marketplace2/Marketplace.sol\":19426:19467  idToMarketItem[i + 1].owner == msg.sender */\n      0xffffffffffffffffffffffffffffffffffffffff\n      and\n      sub\n        /* \"contracts/Marketplace2/Marketplace.sol\":19422:19502  if (idToMarketItem[i + 1].owner == msg.sender) {... */\n      tag_124\n      jumpi\n        /* \"contracts/Marketplace2/Marketplace.sol\":19492:19493  1 */\n      0x01\n        /* \"contracts/Marketplace2/Marketplace.sol\":19479:19493  itemCount += 1 */\n      dup4\n      tag_125\n      swap2\n      swap1\n      tag_123\n      jump\t// in\n    tag_125:\n      swap3\n      pop\n        /* \"contracts/Marketplace2/Marketplace.sol\":19422:19502  if (idToMarketItem[i + 1].owner == msg.sender) {... */\n    tag_124:\n        /* \"contracts/Marketplace2/Marketplace.sol\":19409:19412  i++ */\n      dup1\n      dup1\n      tag_126\n      swap1\n      tag_127\n      jump\t// in\n    tag_126:\n      swap2\n      pop\n      pop\n        /* \"contracts/Marketplace2/Marketplace.sol\":19372:19508  for (uint i = 0; i < totalItemCount; i++) {... */\n      jump(tag_119)\n    tag_120:\n      pop\n        /* \"contracts/Marketplace2/Marketplace.sol\":19514:19539  MarketItem[] memory items */\n      0x00\n        /* \"contracts/Marketplace2/Marketplace.sol\":19559:19568  itemCount */\n      dup3\n        /* \"contracts/Marketplace2/Marketplace.sol\":19542:19569  new MarketItem[](itemCount) */\n      0xffffffffffffffff\n      dup2\n      gt\n      iszero\n      tag_128\n      jumpi\n      tag_129\n      tag_130\n      jump\t// in\n    tag_129:\n    tag_128:\n      mload(0x40)\n      swap1\n      dup1\n      dup3\n      mstore\n      dup1\n      0x20\n      mul\n      0x20\n      add\n      dup3\n      add\n      0x40\n      mstore\n      dup1\n      iszero\n      tag_131\n      jumpi\n      dup2\n      0x20\n      add\n    tag_132:\n      tag_133\n      tag_109\n      jump\t// in\n    tag_133:\n      dup2\n      mstore\n      0x20\n      add\n      swap1\n      0x01\n      swap1\n      sub\n      swap1\n      dup2\n      tag_132\n      jumpi\n      swap1\n      pop\n    tag_131:\n      pop\n        /* \"contracts/Marketplace2/Marketplace.sol\":19514:19569  MarketItem[] memory items = new MarketItem[](itemCount) */\n      swap1\n      pop\n        /* \"contracts/Marketplace2/Marketplace.sol\":19580:19586  uint i */\n      0x00\n        /* \"contracts/Marketplace2/Marketplace.sol\":19575:19880  for (uint i = 0; i < totalItemCount; i++) {... */\n    tag_134:\n        /* \"contracts/Marketplace2/Marketplace.sol\":19596:19610  totalItemCount */\n      dup5\n        /* \"contracts/Marketplace2/Marketplace.sol\":19592:19593  i */\n      dup2\n        /* \"contracts/Marketplace2/Marketplace.sol\":19592:19610  i < totalItemCount */\n      lt\n        /* \"contracts/Marketplace2/Marketplace.sol\":19575:19880  for (uint i = 0; i < totalItemCount; i++) {... */\n      iszero\n      tag_135\n      jumpi\n        /* \"contracts/Marketplace2/Marketplace.sol\":19660:19670  msg.sender */\n      caller\n        /* \"contracts/Marketplace2/Marketplace.sol\":19629:19670  idToMarketItem[i + 1].owner == msg.sender */\n      0xffffffffffffffffffffffffffffffffffffffff\n      and\n        /* \"contracts/Marketplace2/Marketplace.sol\":19629:19643  idToMarketItem */\n      0x0e\n        /* \"contracts/Marketplace2/Marketplace.sol\":19629:19650  idToMarketItem[i + 1] */\n      0x00\n        /* \"contracts/Marketplace2/Marketplace.sol\":19648:19649  1 */\n      0x01\n        /* \"contracts/Marketplace2/Marketplace.sol\":19644:19645  i */\n      dup5\n        /* \"contracts/Marketplace2/Marketplace.sol\":19644:19649  i + 1 */\n      tag_137\n      swap2\n      swap1\n      tag_123\n      jump\t// in\n    tag_137:\n        /* \"contracts/Marketplace2/Marketplace.sol\":19629:19650  idToMarketItem[i + 1] */\n      dup2\n      mstore\n      0x20\n      add\n      swap1\n      dup2\n      mstore\n      0x20\n      add\n      0x00\n      keccak256\n        /* \"contracts/Marketplace2/Marketplace.sol\":19629:19656  idToMarketItem[i + 1].owner */\n      0x04\n      add\n      0x00\n      swap1\n      sload\n      swap1\n      0x0100\n      exp\n      swap1\n      div\n      0xffffffffffffffffffffffffffffffffffffffff\n      and\n        /* \"contracts/Marketplace2/Marketplace.sol\":19629:19670  idToMarketItem[i + 1].owner == msg.sender */\n      0xffffffffffffffffffffffffffffffffffffffff\n      and\n      sub\n        /* \"contracts/Marketplace2/Marketplace.sol\":19625:19874  if (idToMarketItem[i + 1].owner == msg.sender) {... */\n      tag_138\n      jumpi\n        /* \"contracts/Marketplace2/Marketplace.sol\":19682:19696  uint currentId */\n      0x00\n        /* \"contracts/Marketplace2/Marketplace.sol\":19699:19713  idToMarketItem */\n      0x0e\n        /* \"contracts/Marketplace2/Marketplace.sol\":19699:19720  idToMarketItem[i + 1] */\n      0x00\n        /* \"contracts/Marketplace2/Marketplace.sol\":19718:19719  1 */\n      0x01\n        /* \"contracts/Marketplace2/Marketplace.sol\":19714:19715  i */\n      dup5\n        /* \"contracts/Marketplace2/Marketplace.sol\":19714:19719  i + 1 */\n      tag_139\n      swap2\n      swap1\n      tag_123\n      jump\t// in\n    tag_139:\n        /* \"contracts/Marketplace2/Marketplace.sol\":19699:19720  idToMarketItem[i + 1] */\n      dup2\n      mstore\n      0x20\n      add\n      swap1\n      dup2\n      mstore\n      0x20\n      add\n      0x00\n      keccak256\n        /* \"contracts/Marketplace2/Marketplace.sol\":19699:19727  idToMarketItem[i + 1].itemId */\n      0x00\n      add\n      sload\n        /* \"contracts/Marketplace2/Marketplace.sol\":19682:19727  uint currentId = idToMarketItem[i + 1].itemId */\n      swap1\n      pop\n        /* \"contracts/Marketplace2/Marketplace.sol\":19737:19767  MarketItem storage currentItem */\n      0x00\n        /* \"contracts/Marketplace2/Marketplace.sol\":19770:19784  idToMarketItem */\n      0x0e\n        /* \"contracts/Marketplace2/Marketplace.sol\":19770:19795  idToMarketItem[currentId] */\n      0x00\n        /* \"contracts/Marketplace2/Marketplace.sol\":19785:19794  currentId */\n      dup4\n        /* \"contracts/Marketplace2/Marketplace.sol\":19770:19795  idToMarketItem[currentId] */\n      dup2\n      mstore\n      0x20\n      add\n      swap1\n      dup2\n      mstore\n      0x20\n      add\n      0x00\n      keccak256\n        /* \"contracts/Marketplace2/Marketplace.sol\":19737:19795  MarketItem storage currentItem = idToMarketItem[currentId] */\n      swap1\n      pop\n        /* \"contracts/Marketplace2/Marketplace.sol\":19827:19838  currentItem */\n      dup1\n        /* \"contracts/Marketplace2/Marketplace.sol\":19805:19838  items[currentIndex] = currentItem */\n      mload(0x40)\n      dup1\n      0xe0\n      add\n      0x40\n      mstore\n      swap1\n      dup2\n      0x00\n      dup3\n      add\n      sload\n      dup2\n      mstore\n      0x20\n      add\n      0x01\n      dup3\n      add\n      0x00\n      swap1\n      sload\n      swap1\n      0x0100\n      exp\n      swap1\n      div\n      0xffffffffffffffffffffffffffffffffffffffff\n      and\n      0xffffffffffffffffffffffffffffffffffffffff\n      and\n      0xffffffffffffffffffffffffffffffffffffffff\n      and\n      dup2\n      mstore\n      0x20\n      add\n      0x02\n      dup3\n      add\n      sload\n      dup2\n      mstore\n      0x20\n      add\n      0x03\n      dup3\n      add\n      0x00\n      swap1\n      sload\n      swap1\n      0x0100\n      exp\n      swap1\n      div\n      0xffffffffffffffffffffffffffffffffffffffff\n      and\n      0xffffffffffffffffffffffffffffffffffffffff\n      and\n      0xffffffffffffffffffffffffffffffffffffffff\n      and\n      dup2\n      mstore\n      0x20\n      add\n      0x04\n      dup3\n      add\n      0x00\n      swap1\n      sload\n      swap1\n      0x0100\n      exp\n      swap1\n      div\n      0xffffffffffffffffffffffffffffffffffffffff\n      and\n      0xffffffffffffffffffffffffffffffffffffffff\n      and\n      0xffffffffffffffffffffffffffffffffffffffff\n      and\n      dup2\n      mstore\n      0x20\n      add\n      0x05\n      dup3\n      add\n      sload\n      dup2\n      mstore\n      0x20\n      add\n      0x06\n      dup3\n      add\n      0x00\n      swap1\n      sload\n      swap1\n      0x0100\n      exp\n      swap1\n      div\n      0xff\n      and\n      0x01\n      dup2\n      gt\n      iszero\n      tag_140\n      jumpi\n      tag_141\n      tag_113\n      jump\t// in\n    tag_141:\n    tag_140:\n      0x01\n      dup2\n      gt\n      iszero\n      tag_142\n      jumpi\n      tag_143\n      tag_113\n      jump\t// in\n    tag_143:\n    tag_142:\n      dup2\n      mstore\n      pop\n      pop\n        /* \"contracts/Marketplace2/Marketplace.sol\":19805:19810  items */\n      dup5\n        /* \"contracts/Marketplace2/Marketplace.sol\":19811:19823  currentIndex */\n      dup7\n        /* \"contracts/Marketplace2/Marketplace.sol\":19805:19824  items[currentIndex] */\n      dup2\n      mload\n      dup2\n      lt\n      tag_144\n      jumpi\n      tag_145\n      tag_146\n      jump\t// in\n    tag_145:\n    tag_144:\n      0x20\n      mul\n      0x20\n      add\n      add\n        /* \"contracts/Marketplace2/Marketplace.sol\":19805:19838  items[currentIndex] = currentItem */\n      dup2\n      swap1\n      mstore\n      pop\n        /* \"contracts/Marketplace2/Marketplace.sol\":19864:19865  1 */\n      0x01\n        /* \"contracts/Marketplace2/Marketplace.sol\":19848:19865  currentIndex += 1 */\n      dup6\n      tag_147\n      swap2\n      swap1\n      tag_123\n      jump\t// in\n    tag_147:\n      swap5\n      pop\n        /* \"contracts/Marketplace2/Marketplace.sol\":19672:19874  {... */\n      pop\n      pop\n        /* \"contracts/Marketplace2/Marketplace.sol\":19625:19874  if (idToMarketItem[i + 1].owner == msg.sender) {... */\n    tag_138:\n        /* \"contracts/Marketplace2/Marketplace.sol\":19612:19615  i++ */\n      dup1\n      dup1\n      tag_148\n      swap1\n      tag_127\n      jump\t// in\n    tag_148:\n      swap2\n      pop\n      pop\n        /* \"contracts/Marketplace2/Marketplace.sol\":19575:19880  for (uint i = 0; i < totalItemCount; i++) {... */\n      jump(tag_134)\n    tag_135:\n      pop\n        /* \"contracts/Marketplace2/Marketplace.sol\":19896:19901  items */\n      dup1\n        /* \"contracts/Marketplace2/Marketplace.sol\":19889:19901  return items */\n      swap5\n      pop\n      pop\n      pop\n      pop\n      pop\n        /* \"contracts/Marketplace2/Marketplace.sol\":19203:19906  function fetchMyNFTs() public view returns (MarketItem[] memory) {... */\n      swap1\n      jump\t// out\n        /* \"contracts/Marketplace2/Marketplace.sol\":18267:18938  function createMarketSale(... */\n    tag_42:\n        /* \"contracts/Marketplace2/Marketplace.sol\":14165:14166  2 */\n      0x02\n        /* \"contracts/Marketplace2/Marketplace.sol\":14746:14753  _status */\n      sload(0x00)\n        /* \"contracts/Marketplace2/Marketplace.sol\":14746:14765  _status != _ENTERED */\n      sub\n        /* \"contracts/Marketplace2/Marketplace.sol\":14738:14801  require(_status != _ENTERED, \"ReentrancyGuard: reentrant call\") */\n      tag_150\n      jumpi\n      mload(0x40)\n      0x08c379a000000000000000000000000000000000000000000000000000000000\n      dup2\n      mstore\n      0x04\n      add\n      tag_151\n      swap1\n      tag_152\n      jump\t// in\n    tag_151:\n      mload(0x40)\n      dup1\n      swap2\n      sub\n      swap1\n      revert\n    tag_150:\n        /* \"contracts/Marketplace2/Marketplace.sol\":14165:14166  2 */\n      0x02\n        /* \"contracts/Marketplace2/Marketplace.sol\":14876:14883  _status */\n      0x00\n        /* \"contracts/Marketplace2/Marketplace.sol\":14876:14894  _status = _ENTERED */\n      dup2\n      swap1\n      sstore\n      pop\n        /* \"contracts/Marketplace2/Marketplace.sol\":18390:18400  uint price */\n      0x00\n        /* \"contracts/Marketplace2/Marketplace.sol\":18403:18417  idToMarketItem */\n      0x0e\n        /* \"contracts/Marketplace2/Marketplace.sol\":18403:18425  idToMarketItem[itemId] */\n      0x00\n        /* \"contracts/Marketplace2/Marketplace.sol\":18418:18424  itemId */\n      dup5\n        /* \"contracts/Marketplace2/Marketplace.sol\":18403:18425  idToMarketItem[itemId] */\n      dup2\n      mstore\n      0x20\n      add\n      swap1\n      dup2\n      mstore\n      0x20\n      add\n      0x00\n      keccak256\n        /* \"contracts/Marketplace2/Marketplace.sol\":18403:18431  idToMarketItem[itemId].price */\n      0x05\n      add\n      sload\n        /* \"contracts/Marketplace2/Marketplace.sol\":18390:18431  uint price = idToMarketItem[itemId].price */\n      swap1\n      pop\n        /* \"contracts/Marketplace2/Marketplace.sol\":18437:18449  uint tokenId */\n      0x00\n        /* \"contracts/Marketplace2/Marketplace.sol\":18452:18466  idToMarketItem */\n      0x0e\n        /* \"contracts/Marketplace2/Marketplace.sol\":18452:18474  idToMarketItem[itemId] */\n      0x00\n        /* \"contracts/Marketplace2/Marketplace.sol\":18467:18473  itemId */\n      dup6\n        /* \"contracts/Marketplace2/Marketplace.sol\":18452:18474  idToMarketItem[itemId] */\n      dup2\n      mstore\n      0x20\n      add\n      swap1\n      dup2\n      mstore\n      0x20\n      add\n      0x00\n      keccak256\n        /* \"contracts/Marketplace2/Marketplace.sol\":18452:18482  idToMarketItem[itemId].tokenId */\n      0x02\n      add\n      sload\n        /* \"contracts/Marketplace2/Marketplace.sol\":18437:18482  uint tokenId = idToMarketItem[itemId].tokenId */\n      swap1\n      pop\n        /* \"contracts/Marketplace2/Marketplace.sol\":18506:18511  price */\n      dup2\n        /* \"contracts/Marketplace2/Marketplace.sol\":18496:18502  amount */\n      dup4\n        /* \"contracts/Marketplace2/Marketplace.sol\":18496:18511  amount == price */\n      eq\n        /* \"contracts/Marketplace2/Marketplace.sol\":18488:18580  require(amount == price, \"Please submit the asking price in order to complete the purchase\") */\n      tag_154\n      jumpi\n      mload(0x40)\n      0x08c379a000000000000000000000000000000000000000000000000000000000\n      dup2\n      mstore\n      0x04\n      add\n      tag_155\n      swap1\n      tag_156\n      jump\t// in\n    tag_155:\n      mload(0x40)\n      dup1\n      swap2\n      sub\n      swap1\n      revert\n    tag_154:\n        /* \"contracts/Marketplace2/Marketplace.sol\":18645:18653  sqfToken */\n      0x0a\n      0x00\n      swap1\n      sload\n      swap1\n      0x0100\n      exp\n      swap1\n      div\n      0xffffffffffffffffffffffffffffffffffffffff\n      and\n        /* \"contracts/Marketplace2/Marketplace.sol\":18645:18666  sqfToken.transferFrom */\n      0xffffffffffffffffffffffffffffffffffffffff\n      and\n      0x23b872dd\n        /* \"contracts/Marketplace2/Marketplace.sol\":18667:18677  msg.sender */\n      caller\n        /* \"contracts/Marketplace2/Marketplace.sol\":18679:18693  idToMarketItem */\n      0x0e\n        /* \"contracts/Marketplace2/Marketplace.sol\":18679:18701  idToMarketItem[itemId] */\n      0x00\n        /* \"contracts/Marketplace2/Marketplace.sol\":18694:18700  itemId */\n      dup9\n        /* \"contracts/Marketplace2/Marketplace.sol\":18679:18701  idToMarketItem[itemId] */\n      dup2\n      mstore\n      0x20\n      add\n      swap1\n      dup2\n      mstore\n      0x20\n      add\n      0x00\n      keccak256\n        /* \"contracts/Marketplace2/Marketplace.sol\":18679:18708  idToMarketItem[itemId].seller */\n      0x03\n      add\n      0x00\n      swap1\n      sload\n      swap1\n      0x0100\n      exp\n      swap1\n      div\n      0xffffffffffffffffffffffffffffffffffffffff\n      and\n        /* \"contracts/Marketplace2/Marketplace.sol\":18711:18717  amount */\n      dup7\n        /* \"contracts/Marketplace2/Marketplace.sol\":18645:18718  sqfToken.transferFrom(msg.sender, idToMarketItem[itemId].seller , amount) */\n      mload(0x40)\n      dup5\n      0xffffffff\n      and\n      0xe0\n      shl\n      dup2\n      mstore\n      0x04\n      add\n      tag_157\n      swap4\n      swap3\n      swap2\n      swap1\n      tag_158\n      jump\t// in\n    tag_157:\n      0x20\n      mload(0x40)\n      dup1\n      dup4\n      sub\n      dup2\n      0x00\n      dup8\n      gas\n      call\n      iszero\n      dup1\n      iszero\n      tag_160\n      jumpi\n      returndatasize\n      0x00\n      dup1\n      returndatacopy\n      revert(0x00, returndatasize)\n    tag_160:\n      pop\n      pop\n      pop\n      pop\n      mload(0x40)\n      returndatasize\n      not(0x1f)\n      0x1f\n      dup3\n      add\n      and\n      dup3\n      add\n      dup1\n      0x40\n      mstore\n      pop\n      dup2\n      add\n      swap1\n      tag_161\n      swap2\n      swap1\n      tag_162\n      jump\t// in\n    tag_161:\n      pop\n        /* \"contracts/Marketplace2/Marketplace.sol\":18732:18743  nftContract */\n      dup5\n        /* \"contracts/Marketplace2/Marketplace.sol\":18724:18757  IERC721(nftContract).transferFrom */\n      0xffffffffffffffffffffffffffffffffffffffff\n      and\n      0x23b872dd\n        /* \"contracts/Marketplace2/Marketplace.sol\":18766:18770  this */\n      address\n        /* \"contracts/Marketplace2/Marketplace.sol\":18773:18783  msg.sender */\n      caller\n        /* \"contracts/Marketplace2/Marketplace.sol\":18785:18792  tokenId */\n      dup5\n        /* \"contracts/Marketplace2/Marketplace.sol\":18724:18793  IERC721(nftContract).transferFrom(address(this), msg.sender, tokenId) */\n      mload(0x40)\n      dup5\n      0xffffffff\n      and\n      0xe0\n      shl\n      dup2\n      mstore\n      0x04\n      add\n      tag_163\n      swap4\n      swap3\n      swap2\n      swap1\n      tag_164\n      jump\t// in\n    tag_163:\n      0x00\n      mload(0x40)\n      dup1\n      dup4\n      sub\n      dup2\n      0x00\n      dup8\n      dup1\n      extcodesize\n      iszero\n      dup1\n      iszero\n      tag_165\n      jumpi\n      0x00\n      dup1\n      revert\n    tag_165:\n      pop\n      gas\n      call\n      iszero\n      dup1\n      iszero\n      tag_167\n      jumpi\n      returndatasize\n      0x00\n      dup1\n      returndatacopy\n      revert(0x00, returndatasize)\n    tag_167:\n      pop\n      pop\n      pop\n      pop\n        /* \"contracts/Marketplace2/Marketplace.sol\":18838:18848  msg.sender */\n      caller\n        /* \"contracts/Marketplace2/Marketplace.sol\":18799:18813  idToMarketItem */\n      0x0e\n        /* \"contracts/Marketplace2/Marketplace.sol\":18799:18821  idToMarketItem[itemId] */\n      0x00\n        /* \"contracts/Marketplace2/Marketplace.sol\":18814:18820  itemId */\n      dup7\n        /* \"contracts/Marketplace2/Marketplace.sol\":18799:18821  idToMarketItem[itemId] */\n      dup2\n      mstore\n      0x20\n      add\n      swap1\n      dup2\n      mstore\n      0x20\n      add\n      0x00\n      keccak256\n        /* \"contracts/Marketplace2/Marketplace.sol\":18799:18827  idToMarketItem[itemId].owner */\n      0x04\n      add\n      0x00\n        /* \"contracts/Marketplace2/Marketplace.sol\":18799:18849  idToMarketItem[itemId].owner = payable(msg.sender) */\n      0x0100\n      exp\n      dup2\n      sload\n      dup2\n      0xffffffffffffffffffffffffffffffffffffffff\n      mul\n      not\n      and\n      swap1\n      dup4\n      0xffffffffffffffffffffffffffffffffffffffff\n      and\n      mul\n      or\n      swap1\n      sstore\n      pop\n        /* \"contracts/Marketplace2/Marketplace.sol\":18887:18904  ItemStatus.MINTED */\n      0x00\n        /* \"contracts/Marketplace2/Marketplace.sol\":18855:18869  idToMarketItem */\n      0x0e\n        /* \"contracts/Marketplace2/Marketplace.sol\":18855:18877  idToMarketItem[itemId] */\n      0x00\n        /* \"contracts/Marketplace2/Marketplace.sol\":18870:18876  itemId */\n      dup7\n        /* \"contracts/Marketplace2/Marketplace.sol\":18855:18877  idToMarketItem[itemId] */\n      dup2\n      mstore\n      0x20\n      add\n      swap1\n      dup2\n      mstore\n      0x20\n      add\n      0x00\n      keccak256\n        /* \"contracts/Marketplace2/Marketplace.sol\":18855:18884  idToMarketItem[itemId].status */\n      0x06\n      add\n      0x00\n        /* \"contracts/Marketplace2/Marketplace.sol\":18855:18904  idToMarketItem[itemId].status = ItemStatus.MINTED */\n      0x0100\n      exp\n      dup2\n      sload\n      dup2\n      0xff\n      mul\n      not\n      and\n      swap1\n      dup4\n      0x01\n      dup2\n      gt\n      iszero\n      tag_168\n      jumpi\n      tag_169\n      tag_113\n      jump\t// in\n    tag_169:\n    tag_168:\n      mul\n      or\n      swap1\n      sstore\n      pop\n        /* \"contracts/Marketplace2/Marketplace.sol\":18911:18933  _itemsSold.increment() */\n      tag_170\n        /* \"contracts/Marketplace2/Marketplace.sol\":18911:18921  _itemsSold */\n      0x0d\n        /* \"contracts/Marketplace2/Marketplace.sol\":18911:18931  _itemsSold.increment */\n      tag_171\n        /* \"contracts/Marketplace2/Marketplace.sol\":18911:18933  _itemsSold.increment() */\n      jump\t// in\n    tag_170:\n        /* \"contracts/Marketplace2/Marketplace.sol\":18384:18938  {... */\n      pop\n      pop\n        /* \"contracts/Marketplace2/Marketplace.sol\":14122:14123  1 */\n      0x01\n        /* \"contracts/Marketplace2/Marketplace.sol\":15049:15056  _status */\n      0x00\n        /* \"contracts/Marketplace2/Marketplace.sol\":15049:15071  _status = _NOT_ENTERED */\n      dup2\n      swap1\n      sstore\n      pop\n        /* \"contracts/Marketplace2/Marketplace.sol\":18267:18938  function createMarketSale(... */\n      pop\n      pop\n      pop\n      jump\t// out\n        /* \"contracts/Marketplace2/Marketplace.sol\":18942:19095  function fetchMarketItem(uint itemId) public view returns (MarketItem memory) {... */\n    tag_47:\n        /* \"contracts/Marketplace2/Marketplace.sol\":19001:19018  MarketItem memory */\n      tag_172\n      tag_109\n      jump\t// in\n    tag_172:\n        /* \"contracts/Marketplace2/Marketplace.sol\":19026:19048  MarketItem memory item */\n      0x00\n        /* \"contracts/Marketplace2/Marketplace.sol\":19051:19065  idToMarketItem */\n      0x0e\n        /* \"contracts/Marketplace2/Marketplace.sol\":19051:19073  idToMarketItem[itemId] */\n      0x00\n        /* \"contracts/Marketplace2/Marketplace.sol\":19066:19072  itemId */\n      dup5\n        /* \"contracts/Marketplace2/Marketplace.sol\":19051:19073  idToMarketItem[itemId] */\n      dup2\n      mstore\n      0x20\n      add\n      swap1\n      dup2\n      mstore\n      0x20\n      add\n      0x00\n      keccak256\n        /* \"contracts/Marketplace2/Marketplace.sol\":19026:19073  MarketItem memory item = idToMarketItem[itemId] */\n      mload(0x40)\n      dup1\n      0xe0\n      add\n      0x40\n      mstore\n      swap1\n      dup2\n      0x00\n      dup3\n      add\n      sload\n      dup2\n      mstore\n      0x20\n      add\n      0x01\n      dup3\n      add\n      0x00\n      swap1\n      sload\n      swap1\n      0x0100\n      exp\n      swap1\n      div\n      0xffffffffffffffffffffffffffffffffffffffff\n      and\n      0xffffffffffffffffffffffffffffffffffffffff\n      and\n      0xffffffffffffffffffffffffffffffffffffffff\n      and\n      dup2\n      mstore\n      0x20\n      add\n      0x02\n      dup3\n      add\n      sload\n      dup2\n      mstore\n      0x20\n      add\n      0x03\n      dup3\n      add\n      0x00\n      swap1\n      sload\n      swap1\n      0x0100\n      exp\n      swap1\n      div\n      0xffffffffffffffffffffffffffffffffffffffff\n      and\n      0xffffffffffffffffffffffffffffffffffffffff\n      and\n      0xffffffffffffffffffffffffffffffffffffffff\n      and\n      dup2\n      mstore\n      0x20\n      add\n      0x04\n      dup3\n      add\n      0x00\n      swap1\n      sload\n      swap1\n      0x0100\n      exp\n      swap1\n      div\n      0xffffffffffffffffffffffffffffffffffffffff\n      and\n      0xffffffffffffffffffffffffffffffffffffffff\n      and\n      0xffffffffffffffffffffffffffffffffffffffff\n      and\n      dup2\n      mstore\n      0x20\n      add\n      0x05\n      dup3\n      add\n      sload\n      dup2\n      mstore\n      0x20\n      add\n      0x06\n      dup3\n      add\n      0x00\n      swap1\n      sload\n      swap1\n      0x0100\n      exp\n      swap1\n      div\n      0xff\n      and\n      0x01\n      dup2\n      gt\n      iszero\n      tag_174\n      jumpi\n      tag_175\n      tag_113\n      jump\t// in\n    tag_175:\n    tag_174:\n      0x01\n      dup2\n      gt\n      iszero\n      tag_176\n      jumpi\n      tag_177\n      tag_113\n      jump\t// in\n    tag_177:\n    tag_176:\n      dup2\n      mstore\n      pop\n      pop\n      swap1\n      pop\n        /* \"contracts/Marketplace2/Marketplace.sol\":19086:19090  item */\n      dup1\n        /* \"contracts/Marketplace2/Marketplace.sol\":19079:19090  return item */\n      swap2\n      pop\n      pop\n        /* \"contracts/Marketplace2/Marketplace.sol\":18942:19095  function fetchMarketItem(uint itemId) public view returns (MarketItem memory) {... */\n      swap2\n      swap1\n      pop\n      jump\t// out\n        /* \"contracts/Marketplace2/Marketplace.sol\":15861:15921  bytes4 public constant ERC721_Interface = bytes4(0x80ac58cd) */\n    tag_51:\n        /* \"contracts/Marketplace2/Marketplace.sol\":15910:15920  0x80ac58cd */\n      0x80ac58cd\n        /* \"contracts/Marketplace2/Marketplace.sol\":15903:15921  bytes4(0x80ac58cd) */\n      0xe0\n      shl\n        /* \"contracts/Marketplace2/Marketplace.sol\":15861:15921  bytes4 public constant ERC721_Interface = bytes4(0x80ac58cd) */\n      dup2\n      jump\t// out\n        /* \"contracts/Marketplace2/Marketplace.sol\":15822:15854  MarketItem public allMarketItems */\n    tag_56:\n      0x01\n      dup1\n      0x00\n      add\n      sload\n      swap1\n      dup1\n      0x01\n      add\n      0x00\n      swap1\n      sload\n      swap1\n      0x0100\n      exp\n      swap1\n      div\n      0xffffffffffffffffffffffffffffffffffffffff\n      and\n      swap1\n      dup1\n      0x02\n      add\n      sload\n      swap1\n      dup1\n      0x03\n      add\n      0x00\n      swap1\n      sload\n      swap1\n      0x0100\n      exp\n      swap1\n      div\n      0xffffffffffffffffffffffffffffffffffffffff\n      and\n      swap1\n      dup1\n      0x04\n      add\n      0x00\n      swap1\n      sload\n      swap1\n      0x0100\n      exp\n      swap1\n      div\n      0xffffffffffffffffffffffffffffffffffffffff\n      and\n      swap1\n      dup1\n      0x05\n      add\n      sload\n      swap1\n      dup1\n      0x06\n      add\n      0x00\n      swap1\n      sload\n      swap1\n      0x0100\n      exp\n      swap1\n      div\n      0xff\n      and\n      swap1\n      pop\n      dup8\n      jump\t// out\n        /* \"contracts/Marketplace2/Marketplace.sol\":17612:18263  function createMarketItem(... */\n    tag_61:\n        /* \"contracts/Marketplace2/Marketplace.sol\":14165:14166  2 */\n      0x02\n        /* \"contracts/Marketplace2/Marketplace.sol\":14746:14753  _status */\n      sload(0x00)\n        /* \"contracts/Marketplace2/Marketplace.sol\":14746:14765  _status != _ENTERED */\n      sub\n        /* \"contracts/Marketplace2/Marketplace.sol\":14738:14801  require(_status != _ENTERED, \"ReentrancyGuard: reentrant call\") */\n      tag_179\n      jumpi\n      mload(0x40)\n      0x08c379a000000000000000000000000000000000000000000000000000000000\n      dup2\n      mstore\n      0x04\n      add\n      tag_180\n      swap1\n      tag_152\n      jump\t// in\n    tag_180:\n      mload(0x40)\n      dup1\n      swap2\n      sub\n      swap1\n      revert\n    tag_179:\n        /* \"contracts/Marketplace2/Marketplace.sol\":14165:14166  2 */\n      0x02\n        /* \"contracts/Marketplace2/Marketplace.sol\":14876:14883  _status */\n      0x00\n        /* \"contracts/Marketplace2/Marketplace.sol\":14876:14894  _status = _ENTERED */\n      dup2\n      swap1\n      sstore\n      pop\n        /* \"contracts/Marketplace2/Marketplace.sol\":17757:17758  0 */\n      0x00\n        /* \"contracts/Marketplace2/Marketplace.sol\":17749:17754  price */\n      dup2\n        /* \"contracts/Marketplace2/Marketplace.sol\":17749:17758  price > 0 */\n      gt\n        /* \"contracts/Marketplace2/Marketplace.sol\":17741:17791  require(price > 0, \"Price must be at least 1 wei\") */\n      tag_182\n      jumpi\n      mload(0x40)\n      0x08c379a000000000000000000000000000000000000000000000000000000000\n      dup2\n      mstore\n      0x04\n      add\n      tag_183\n      swap1\n      tag_184\n      jump\t// in\n    tag_183:\n      mload(0x40)\n      dup1\n      swap2\n      sub\n      swap1\n      revert\n    tag_182:\n        /* \"contracts/Marketplace2/Marketplace.sol\":17798:17818  _itemIds.increment() */\n      tag_185\n        /* \"contracts/Marketplace2/Marketplace.sol\":17798:17806  _itemIds */\n      0x0c\n        /* \"contracts/Marketplace2/Marketplace.sol\":17798:17816  _itemIds.increment */\n      tag_171\n        /* \"contracts/Marketplace2/Marketplace.sol\":17798:17818  _itemIds.increment() */\n      jump\t// in\n    tag_185:\n        /* \"contracts/Marketplace2/Marketplace.sol\":17824:17838  uint256 itemId */\n      0x00\n        /* \"contracts/Marketplace2/Marketplace.sol\":17841:17859  _itemIds.current() */\n      tag_186\n        /* \"contracts/Marketplace2/Marketplace.sol\":17841:17849  _itemIds */\n      0x0c\n        /* \"contracts/Marketplace2/Marketplace.sol\":17841:17857  _itemIds.current */\n      tag_118\n        /* \"contracts/Marketplace2/Marketplace.sol\":17841:17859  _itemIds.current() */\n      jump\t// in\n    tag_186:\n        /* \"contracts/Marketplace2/Marketplace.sol\":17824:17859  uint256 itemId = _itemIds.current() */\n      swap1\n      pop\n        /* \"contracts/Marketplace2/Marketplace.sol\":17896:18050  MarketItem(... */\n      mload(0x40)\n      dup1\n      0xe0\n      add\n      0x40\n      mstore\n      dup1\n        /* \"contracts/Marketplace2/Marketplace.sol\":17914:17920  itemId */\n      dup3\n        /* \"contracts/Marketplace2/Marketplace.sol\":17896:18050  MarketItem(... */\n      dup2\n      mstore\n      0x20\n      add\n        /* \"contracts/Marketplace2/Marketplace.sol\":17928:17939  nftContract */\n      dup6\n        /* \"contracts/Marketplace2/Marketplace.sol\":17896:18050  MarketItem(... */\n      0xffffffffffffffffffffffffffffffffffffffff\n      and\n      dup2\n      mstore\n      0x20\n      add\n        /* \"contracts/Marketplace2/Marketplace.sol\":17947:17954  tokenId */\n      dup5\n        /* \"contracts/Marketplace2/Marketplace.sol\":17896:18050  MarketItem(... */\n      dup2\n      mstore\n      0x20\n      add\n        /* \"contracts/Marketplace2/Marketplace.sol\":17970:17980  msg.sender */\n      caller\n        /* \"contracts/Marketplace2/Marketplace.sol\":17896:18050  MarketItem(... */\n      0xffffffffffffffffffffffffffffffffffffffff\n      and\n      dup2\n      mstore\n      0x20\n      add\n        /* \"contracts/Marketplace2/Marketplace.sol\":18005:18006  0 */\n      0x00\n        /* \"contracts/Marketplace2/Marketplace.sol\":17896:18050  MarketItem(... */\n      0xffffffffffffffffffffffffffffffffffffffff\n      and\n      dup2\n      mstore\n      0x20\n      add\n        /* \"contracts/Marketplace2/Marketplace.sol\":18016:18021  price */\n      dup4\n        /* \"contracts/Marketplace2/Marketplace.sol\":17896:18050  MarketItem(... */\n      dup2\n      mstore\n      0x20\n      add\n        /* \"contracts/Marketplace2/Marketplace.sol\":18029:18044  ItemStatus.LIST */\n      0x01\n        /* \"contracts/Marketplace2/Marketplace.sol\":17896:18050  MarketItem(... */\n      dup1\n      dup2\n      gt\n      iszero\n      tag_187\n      jumpi\n      tag_188\n      tag_113\n      jump\t// in\n    tag_188:\n    tag_187:\n      dup2\n      mstore\n      pop\n        /* \"contracts/Marketplace2/Marketplace.sol\":17870:17884  idToMarketItem */\n      0x0e\n        /* \"contracts/Marketplace2/Marketplace.sol\":17870:17892  idToMarketItem[itemId] */\n      0x00\n        /* \"contracts/Marketplace2/Marketplace.sol\":17885:17891  itemId */\n      dup4\n        /* \"contracts/Marketplace2/Marketplace.sol\":17870:17892  idToMarketItem[itemId] */\n      dup2\n      mstore\n      0x20\n      add\n      swap1\n      dup2\n      mstore\n      0x20\n      add\n      0x00\n      keccak256\n        /* \"contracts/Marketplace2/Marketplace.sol\":17870:18050  idToMarketItem[itemId] =  MarketItem(... */\n      0x00\n      dup3\n      add\n      mload\n      dup2\n      0x00\n      add\n      sstore\n      0x20\n      dup3\n      add\n      mload\n      dup2\n      0x01\n      add\n      exp(0x0100, 0x00)\n      dup2\n      sload\n      dup2\n      0xffffffffffffffffffffffffffffffffffffffff\n      mul\n      not\n      and\n      swap1\n      dup4\n      0xffffffffffffffffffffffffffffffffffffffff\n      and\n      mul\n      or\n      swap1\n      sstore\n      pop\n      0x40\n      dup3\n      add\n      mload\n      dup2\n      0x02\n      add\n      sstore\n      0x60\n      dup3\n      add\n      mload\n      dup2\n      0x03\n      add\n      exp(0x0100, 0x00)\n      dup2\n      sload\n      dup2\n      0xffffffffffffffffffffffffffffffffffffffff\n      mul\n      not\n      and\n      swap1\n      dup4\n      0xffffffffffffffffffffffffffffffffffffffff\n      and\n      mul\n      or\n      swap1\n      sstore\n      pop\n      0x80\n      dup3\n      add\n      mload\n      dup2\n      0x04\n      add\n      exp(0x0100, 0x00)\n      dup2\n      sload\n      dup2\n      0xffffffffffffffffffffffffffffffffffffffff\n      mul\n      not\n      and\n      swap1\n      dup4\n      0xffffffffffffffffffffffffffffffffffffffff\n      and\n      mul\n      or\n      swap1\n      sstore\n      pop\n      0xa0\n      dup3\n      add\n      mload\n      dup2\n      0x05\n      add\n      sstore\n      0xc0\n      dup3\n      add\n      mload\n      dup2\n      0x06\n      add\n      exp(0x0100, 0x00)\n      dup2\n      sload\n      dup2\n      0xff\n      mul\n      not\n      and\n      swap1\n      dup4\n      0x01\n      dup2\n      gt\n      iszero\n      tag_189\n      jumpi\n      tag_190\n      tag_113\n      jump\t// in\n    tag_190:\n    tag_189:\n      mul\n      or\n      swap1\n      sstore\n      pop\n      swap1\n      pop\n      pop\n        /* \"contracts/Marketplace2/Marketplace.sol\":18065:18076  nftContract */\n      dup4\n        /* \"contracts/Marketplace2/Marketplace.sol\":18057:18090  IERC721(nftContract).transferFrom */\n      0xffffffffffffffffffffffffffffffffffffffff\n      and\n      0x23b872dd\n        /* \"contracts/Marketplace2/Marketplace.sol\":18091:18101  msg.sender */\n      caller\n        /* \"contracts/Marketplace2/Marketplace.sol\":18111:18115  this */\n      address\n        /* \"contracts/Marketplace2/Marketplace.sol\":18118:18125  tokenId */\n      dup7\n        /* \"contracts/Marketplace2/Marketplace.sol\":18057:18126  IERC721(nftContract).transferFrom(msg.sender, address(this), tokenId) */\n      mload(0x40)\n      dup5\n      0xffffffff\n      and\n      0xe0\n      shl\n      dup2\n      mstore\n      0x04\n      add\n      tag_191\n      swap4\n      swap3\n      swap2\n      swap1\n      tag_164\n      jump\t// in\n    tag_191:\n      0x00\n      mload(0x40)\n      dup1\n      dup4\n      sub\n      dup2\n      0x00\n      dup8\n      dup1\n      extcodesize\n      iszero\n      dup1\n      iszero\n      tag_192\n      jumpi\n      0x00\n      dup1\n      revert\n    tag_192:\n      pop\n      gas\n      call\n      iszero\n      dup1\n      iszero\n      tag_194\n      jumpi\n      returndatasize\n      0x00\n      dup1\n      returndatacopy\n      revert(0x00, returndatasize)\n    tag_194:\n      pop\n      pop\n      pop\n      pop\n        /* \"contracts/Marketplace2/Marketplace.sol\":18196:18203  tokenId */\n      dup3\n        /* \"contracts/Marketplace2/Marketplace.sol\":18177:18188  nftContract */\n      dup5\n        /* \"contracts/Marketplace2/Marketplace.sol\":18138:18258  MarketItemCreated(... */\n      0xffffffffffffffffffffffffffffffffffffffff\n      and\n        /* \"contracts/Marketplace2/Marketplace.sol\":18163:18169  itemId */\n      dup3\n        /* \"contracts/Marketplace2/Marketplace.sol\":18138:18258  MarketItemCreated(... */\n      0x2ad024d53a0dc50c130967f8d4941927ee087ea31394cebb2b9599d3706c9c00\n        /* \"contracts/Marketplace2/Marketplace.sol\":18211:18221  msg.sender */\n      caller\n        /* \"contracts/Marketplace2/Marketplace.sol\":18237:18238  0 */\n      0x00\n        /* \"contracts/Marketplace2/Marketplace.sol\":18247:18252  price */\n      dup8\n        /* \"contracts/Marketplace2/Marketplace.sol\":18138:18258  MarketItemCreated(... */\n      mload(0x40)\n      tag_195\n      swap4\n      swap3\n      swap2\n      swap1\n      tag_164\n      jump\t// in\n    tag_195:\n      mload(0x40)\n      dup1\n      swap2\n      sub\n      swap1\n      log4\n        /* \"contracts/Marketplace2/Marketplace.sol\":17735:18263  {... */\n      pop\n        /* \"contracts/Marketplace2/Marketplace.sol\":14122:14123  1 */\n      0x01\n        /* \"contracts/Marketplace2/Marketplace.sol\":15049:15056  _status */\n      0x00\n        /* \"contracts/Marketplace2/Marketplace.sol\":15049:15071  _status = _NOT_ENTERED */\n      dup2\n      swap1\n      sstore\n      pop\n        /* \"contracts/Marketplace2/Marketplace.sol\":17612:18263  function createMarketItem(... */\n      pop\n      pop\n      pop\n      jump\t// out\n        /* \"contracts/Marketplace2/Marketplace.sol\":16052:16115  mapping(address => mapping(uint256 => MarketItem)) public items */\n    tag_66:\n      mstore(0x20, 0x09)\n      dup2\n      0x00\n      mstore\n      mstore(0x20, keccak256(0x00, 0x40))\n      dup1\n      0x00\n      mstore\n      keccak256(0x00, 0x40)\n      0x00\n      swap2\n      pop\n      swap2\n      pop\n      pop\n      dup1\n      0x00\n      add\n      sload\n      swap1\n      dup1\n      0x01\n      add\n      0x00\n      swap1\n      sload\n      swap1\n      0x0100\n      exp\n      swap1\n      div\n      0xffffffffffffffffffffffffffffffffffffffff\n      and\n      swap1\n      dup1\n      0x02\n      add\n      sload\n      swap1\n      dup1\n      0x03\n      add\n      0x00\n      swap1\n      sload\n      swap1\n      0x0100\n      exp\n      swap1\n      div\n      0xffffffffffffffffffffffffffffffffffffffff\n      and\n      swap1\n      dup1\n      0x04\n      add\n      0x00\n      swap1\n      sload\n      swap1\n      0x0100\n      exp\n      swap1\n      div\n      0xffffffffffffffffffffffffffffffffffffffff\n      and\n      swap1\n      dup1\n      0x05\n      add\n      sload\n      swap1\n      dup1\n      0x06\n      add\n      0x00\n      swap1\n      sload\n      swap1\n      0x0100\n      exp\n      swap1\n      div\n      0xff\n      and\n      swap1\n      pop\n      dup8\n      jump\t// out\n        /* \"contracts/Marketplace2/Marketplace.sol\":2308:2409  function renounceOwnership() public virtual onlyOwner {... */\n    tag_70:\n        /* \"contracts/Marketplace2/Marketplace.sol\":1899:1911  _msgSender() */\n      tag_197\n        /* \"contracts/Marketplace2/Marketplace.sol\":1899:1909  _msgSender */\n      tag_198\n        /* \"contracts/Marketplace2/Marketplace.sol\":1899:1911  _msgSender() */\n      jump\t// in\n    tag_197:\n        /* \"contracts/Marketplace2/Marketplace.sol\":1888:1911  owner() == _msgSender() */\n      0xffffffffffffffffffffffffffffffffffffffff\n      and\n        /* \"contracts/Marketplace2/Marketplace.sol\":1888:1895  owner() */\n      tag_199\n        /* \"contracts/Marketplace2/Marketplace.sol\":1888:1893  owner */\n      tag_78\n        /* \"contracts/Marketplace2/Marketplace.sol\":1888:1895  owner() */\n      jump\t// in\n    tag_199:\n        /* \"contracts/Marketplace2/Marketplace.sol\":1888:1911  owner() == _msgSender() */\n      0xffffffffffffffffffffffffffffffffffffffff\n      and\n      eq\n        /* \"contracts/Marketplace2/Marketplace.sol\":1880:1948  require(owner() == _msgSender(), \"Ownable: caller is not the owner\") */\n      tag_200\n      jumpi\n      mload(0x40)\n      0x08c379a000000000000000000000000000000000000000000000000000000000\n      dup2\n      mstore\n      0x04\n      add\n      tag_201\n      swap1\n      tag_202\n      jump\t// in\n    tag_201:\n      mload(0x40)\n      dup1\n      swap2\n      sub\n      swap1\n      revert\n    tag_200:\n        /* \"contracts/Marketplace2/Marketplace.sol\":2372:2402  _transferOwnership(address(0)) */\n      tag_204\n        /* \"contracts/Marketplace2/Marketplace.sol\":2399:2400  0 */\n      0x00\n        /* \"contracts/Marketplace2/Marketplace.sol\":2372:2390  _transferOwnership */\n      tag_205\n        /* \"contracts/Marketplace2/Marketplace.sol\":2372:2402  _transferOwnership(address(0)) */\n      jump\t// in\n    tag_204:\n        /* \"contracts/Marketplace2/Marketplace.sol\":2308:2409  function renounceOwnership() public virtual onlyOwner {... */\n      jump\t// out\n        /* \"contracts/Marketplace2/Marketplace.sol\":16151:16177  uint8 public bnbFeePercent */\n    tag_73:\n      0x0a\n      0x14\n      swap1\n      sload\n      swap1\n      0x0100\n      exp\n      swap1\n      div\n      0xff\n      and\n      dup2\n      jump\t// out\n        /* \"contracts/Marketplace2/Marketplace.sol\":1676:1761  function owner() public view virtual returns (address) {... */\n    tag_78:\n        /* \"contracts/Marketplace2/Marketplace.sol\":1722:1729  address */\n      0x00\n        /* \"contracts/Marketplace2/Marketplace.sol\":1748:1754  _owner */\n      0x0b\n      0x00\n      swap1\n      sload\n      swap1\n      0x0100\n      exp\n      swap1\n      div\n      0xffffffffffffffffffffffffffffffffffffffff\n      and\n        /* \"contracts/Marketplace2/Marketplace.sol\":1741:1754  return _owner */\n      swap1\n      pop\n        /* \"contracts/Marketplace2/Marketplace.sol\":1676:1761  function owner() public view virtual returns (address) {... */\n      swap1\n      jump\t// out\n        /* \"contracts/Marketplace2/Marketplace.sol\":17510:17608  function setSQFToken(address _address) external onlyOwner {... */\n    tag_85:\n        /* \"contracts/Marketplace2/Marketplace.sol\":1899:1911  _msgSender() */\n      tag_208\n        /* \"contracts/Marketplace2/Marketplace.sol\":1899:1909  _msgSender */\n      tag_198\n        /* \"contracts/Marketplace2/Marketplace.sol\":1899:1911  _msgSender() */\n      jump\t// in\n    tag_208:\n        /* \"contracts/Marketplace2/Marketplace.sol\":1888:1911  owner() == _msgSender() */\n      0xffffffffffffffffffffffffffffffffffffffff\n      and\n        /* \"contracts/Marketplace2/Marketplace.sol\":1888:1895  owner() */\n      tag_209\n        /* \"contracts/Marketplace2/Marketplace.sol\":1888:1893  owner */\n      tag_78\n        /* \"contracts/Marketplace2/Marketplace.sol\":1888:1895  owner() */\n      jump\t// in\n    tag_209:\n        /* \"contracts/Marketplace2/Marketplace.sol\":1888:1911  owner() == _msgSender() */\n      0xffffffffffffffffffffffffffffffffffffffff\n      and\n      eq\n        /* \"contracts/Marketplace2/Marketplace.sol\":1880:1948  require(owner() == _msgSender(), \"Ownable: caller is not the owner\") */\n      tag_210\n      jumpi\n      mload(0x40)\n      0x08c379a000000000000000000000000000000000000000000000000000000000\n      dup2\n      mstore\n      0x04\n      add\n      tag_211\n      swap1\n      tag_202\n      jump\t// in\n    tag_211:\n      mload(0x40)\n      dup1\n      swap2\n      sub\n      swap1\n      revert\n    tag_210:\n        /* \"contracts/Marketplace2/Marketplace.sol\":17596:17604  _address */\n      dup1\n        /* \"contracts/Marketplace2/Marketplace.sol\":17578:17586  sqfToken */\n      0x0a\n      0x00\n        /* \"contracts/Marketplace2/Marketplace.sol\":17578:17605  sqfToken = IERC20(_address) */\n      0x0100\n      exp\n      dup2\n      sload\n      dup2\n      0xffffffffffffffffffffffffffffffffffffffff\n      mul\n      not\n      and\n      swap1\n      dup4\n      0xffffffffffffffffffffffffffffffffffffffff\n      and\n      mul\n      or\n      swap1\n      sstore\n      pop\n        /* \"contracts/Marketplace2/Marketplace.sol\":17510:17608  function setSQFToken(address _address) external onlyOwner {... */\n      pop\n      jump\t// out\n        /* \"contracts/Marketplace2/Marketplace.sol\":19910:20802  function delistItem(address nftAddress, uint256 itemId) public {... */\n    tag_89:\n        /* \"contracts/Marketplace2/Marketplace.sol\":19983:20009  _requireERC721(nftAddress) */\n      tag_214\n        /* \"contracts/Marketplace2/Marketplace.sol\":19998:20008  nftAddress */\n      dup3\n        /* \"contracts/Marketplace2/Marketplace.sol\":19983:19997  _requireERC721 */\n      tag_215\n        /* \"contracts/Marketplace2/Marketplace.sol\":19983:20009  _requireERC721(nftAddress) */\n      jump\t// in\n    tag_214:\n        /* \"contracts/Marketplace2/Marketplace.sol\":20020:20036  address deleteBy */\n      0x00\n        /* \"contracts/Marketplace2/Marketplace.sol\":20039:20049  msg.sender */\n      caller\n        /* \"contracts/Marketplace2/Marketplace.sol\":20020:20049  address deleteBy = msg.sender */\n      swap1\n      pop\n        /* \"contracts/Marketplace2/Marketplace.sol\":20059:20081  MarketItem memory item */\n      0x00\n        /* \"contracts/Marketplace2/Marketplace.sol\":20084:20098  idToMarketItem */\n      0x0e\n        /* \"contracts/Marketplace2/Marketplace.sol\":20084:20106  idToMarketItem[itemId] */\n      0x00\n        /* \"contracts/Marketplace2/Marketplace.sol\":20099:20105  itemId */\n      dup5\n        /* \"contracts/Marketplace2/Marketplace.sol\":20084:20106  idToMarketItem[itemId] */\n      dup2\n      mstore\n      0x20\n      add\n      swap1\n      dup2\n      mstore\n      0x20\n      add\n      0x00\n      keccak256\n        /* \"contracts/Marketplace2/Marketplace.sol\":20059:20106  MarketItem memory item = idToMarketItem[itemId] */\n      mload(0x40)\n      dup1\n      0xe0\n      add\n      0x40\n      mstore\n      swap1\n      dup2\n      0x00\n      dup3\n      add\n      sload\n      dup2\n      mstore\n      0x20\n      add\n      0x01\n      dup3\n      add\n      0x00\n      swap1\n      sload\n      swap1\n      0x0100\n      exp\n      swap1\n      div\n      0xffffffffffffffffffffffffffffffffffffffff\n      and\n      0xffffffffffffffffffffffffffffffffffffffff\n      and\n      0xffffffffffffffffffffffffffffffffffffffff\n      and\n      dup2\n      mstore\n      0x20\n      add\n      0x02\n      dup3\n      add\n      sload\n      dup2\n      mstore\n      0x20\n      add\n      0x03\n      dup3\n      add\n      0x00\n      swap1\n      sload\n      swap1\n      0x0100\n      exp\n      swap1\n      div\n      0xffffffffffffffffffffffffffffffffffffffff\n      and\n      0xffffffffffffffffffffffffffffffffffffffff\n      and\n      0xffffffffffffffffffffffffffffffffffffffff\n      and\n      dup2\n      mstore\n      0x20\n      add\n      0x04\n      dup3\n      add\n      0x00\n      swap1\n      sload\n      swap1\n      0x0100\n      exp\n      swap1\n      div\n      0xffffffffffffffffffffffffffffffffffffffff\n      and\n      0xffffffffffffffffffffffffffffffffffffffff\n      and\n      0xffffffffffffffffffffffffffffffffffffffff\n      and\n      dup2\n      mstore\n      0x20\n      add\n      0x05\n      dup3\n      add\n      sload\n      dup2\n      mstore\n      0x20\n      add\n      0x06\n      dup3\n      add\n      0x00\n      swap1\n      sload\n      swap1\n      0x0100\n      exp\n      swap1\n      div\n      0xff\n      and\n      0x01\n      dup2\n      gt\n      iszero\n      tag_216\n      jumpi\n      tag_217\n      tag_113\n      jump\t// in\n    tag_217:\n    tag_216:\n      0x01\n      dup2\n      gt\n      iszero\n      tag_218\n      jumpi\n      tag_219\n      tag_113\n      jump\t// in\n    tag_219:\n    tag_218:\n      dup2\n      mstore\n      pop\n      pop\n      swap1\n      pop\n        /* \"contracts/Marketplace2/Marketplace.sol\":20140:20141  0 */\n      0x00\n        /* \"contracts/Marketplace2/Marketplace.sol\":20125:20129  item */\n      dup2\n        /* \"contracts/Marketplace2/Marketplace.sol\":20125:20136  item.itemId */\n      0x00\n      add\n      mload\n        /* \"contracts/Marketplace2/Marketplace.sol\":20125:20141  item.itemId != 0 */\n      sub\n        /* \"contracts/Marketplace2/Marketplace.sol\":20117:20165  require(item.itemId != 0, \"Asset not published\") */\n      tag_220\n      jumpi\n      mload(0x40)\n      0x08c379a000000000000000000000000000000000000000000000000000000000\n      dup2\n      mstore\n      0x04\n      add\n      tag_221\n      swap1\n      tag_222\n      jump\t// in\n    tag_221:\n      mload(0x40)\n      dup1\n      swap2\n      sub\n      swap1\n      revert\n    tag_220:\n        /* \"contracts/Marketplace2/Marketplace.sol\":20198:20215  ItemStatus.MINTED */\n      0x00\n        /* \"contracts/Marketplace2/Marketplace.sol\":20183:20215  item.status != ItemStatus.MINTED */\n      0x01\n      dup2\n      gt\n      iszero\n      tag_223\n      jumpi\n      tag_224\n      tag_113\n      jump\t// in\n    tag_224:\n    tag_223:\n        /* \"contracts/Marketplace2/Marketplace.sol\":20183:20187  item */\n      dup2\n        /* \"contracts/Marketplace2/Marketplace.sol\":20183:20194  item.status */\n      0xc0\n      add\n      mload\n        /* \"contracts/Marketplace2/Marketplace.sol\":20183:20215  item.status != ItemStatus.MINTED */\n      0x01\n      dup2\n      gt\n      iszero\n      tag_225\n      jumpi\n      tag_226\n      tag_113\n      jump\t// in\n    tag_226:\n    tag_225:\n      sub\n        /* \"contracts/Marketplace2/Marketplace.sol\":20175:20234  require(item.status != ItemStatus.MINTED, \"Asset delisted\") */\n      tag_227\n      jumpi\n      mload(0x40)\n      0x08c379a000000000000000000000000000000000000000000000000000000000\n      dup2\n      mstore\n      0x04\n      add\n      tag_228\n      swap1\n      tag_229\n      jump\t// in\n    tag_228:\n      mload(0x40)\n      dup1\n      swap2\n      sub\n      swap1\n      revert\n    tag_227:\n        /* \"contracts/Marketplace2/Marketplace.sol\":20245:20259  address seller */\n      0x00\n        /* \"contracts/Marketplace2/Marketplace.sol\":20262:20266  item */\n      dup2\n        /* \"contracts/Marketplace2/Marketplace.sol\":20262:20273  item.seller */\n      0x60\n      add\n      mload\n        /* \"contracts/Marketplace2/Marketplace.sol\":20245:20273  address seller = item.seller */\n      swap1\n      pop\n        /* \"contracts/Marketplace2/Marketplace.sol\":20309:20310  0 */\n      0x00\n        /* \"contracts/Marketplace2/Marketplace.sol\":20291:20311  seller != address(0) */\n      0xffffffffffffffffffffffffffffffffffffffff\n      and\n        /* \"contracts/Marketplace2/Marketplace.sol\":20291:20297  seller */\n      dup2\n        /* \"contracts/Marketplace2/Marketplace.sol\":20291:20311  seller != address(0) */\n      0xffffffffffffffffffffffffffffffffffffffff\n      and\n      sub\n        /* \"contracts/Marketplace2/Marketplace.sol\":20283:20331  require(seller != address(0), \"Invalid address\") */\n      tag_230\n      jumpi\n      mload(0x40)\n      0x08c379a000000000000000000000000000000000000000000000000000000000\n      dup2\n      mstore\n      0x04\n      add\n      tag_231\n      swap1\n      tag_232\n      jump\t// in\n    tag_231:\n      mload(0x40)\n      dup1\n      swap2\n      sub\n      swap1\n      revert\n    tag_230:\n        /* \"contracts/Marketplace2/Marketplace.sol\":20372:20382  msg.sender */\n      caller\n        /* \"contracts/Marketplace2/Marketplace.sol\":20362:20382  seller == msg.sender */\n      0xffffffffffffffffffffffffffffffffffffffff\n      and\n        /* \"contracts/Marketplace2/Marketplace.sol\":20362:20368  seller */\n      dup2\n        /* \"contracts/Marketplace2/Marketplace.sol\":20362:20382  seller == msg.sender */\n      0xffffffffffffffffffffffffffffffffffffffff\n      and\n      eq\n        /* \"contracts/Marketplace2/Marketplace.sol\":20341:20430  require(... */\n      tag_233\n      jumpi\n      mload(0x40)\n      0x08c379a000000000000000000000000000000000000000000000000000000000\n      dup2\n      mstore\n      0x04\n      add\n      tag_234\n      swap1\n      tag_235\n      jump\t// in\n    tag_234:\n      mload(0x40)\n      dup1\n      swap2\n      sub\n      swap1\n      revert\n    tag_233:\n        /* \"contracts/Marketplace2/Marketplace.sol\":20440:20459  IERC721 nftRegistry */\n      0x00\n        /* \"contracts/Marketplace2/Marketplace.sol\":20470:20480  nftAddress */\n      dup6\n        /* \"contracts/Marketplace2/Marketplace.sol\":20440:20481  IERC721 nftRegistry = IERC721(nftAddress) */\n      swap1\n      pop\n        /* \"contracts/Marketplace2/Marketplace.sol\":20491:20502  nftRegistry */\n      dup1\n        /* \"contracts/Marketplace2/Marketplace.sol\":20491:20519  nftRegistry.safeTransferFrom */\n      0xffffffffffffffffffffffffffffffffffffffff\n      and\n      0x42842e0e\n        /* \"contracts/Marketplace2/Marketplace.sol\":20528:20532  this */\n      address\n        /* \"contracts/Marketplace2/Marketplace.sol\":20535:20541  seller */\n      dup5\n        /* \"contracts/Marketplace2/Marketplace.sol\":20543:20549  itemId */\n      dup9\n        /* \"contracts/Marketplace2/Marketplace.sol\":20491:20550  nftRegistry.safeTransferFrom(address(this), seller, itemId) */\n      mload(0x40)\n      dup5\n      0xffffffff\n      and\n      0xe0\n      shl\n      dup2\n      mstore\n      0x04\n      add\n      tag_236\n      swap4\n      swap3\n      swap2\n      swap1\n      tag_164\n      jump\t// in\n    tag_236:\n      0x00\n      mload(0x40)\n      dup1\n      dup4\n      sub\n      dup2\n      0x00\n      dup8\n      dup1\n      extcodesize\n      iszero\n      dup1\n      iszero\n      tag_237\n      jumpi\n      0x00\n      dup1\n      revert\n    tag_237:\n      pop\n      gas\n      call\n      iszero\n      dup1\n      iszero\n      tag_239\n      jumpi\n      returndatasize\n      0x00\n      dup1\n      returndatacopy\n      revert(0x00, returndatasize)\n    tag_239:\n      pop\n      pop\n      pop\n      pop\n        /* \"contracts/Marketplace2/Marketplace.sol\":20574:20591  ItemStatus.MINTED */\n      0x00\n        /* \"contracts/Marketplace2/Marketplace.sol\":20560:20564  item */\n      dup4\n        /* \"contracts/Marketplace2/Marketplace.sol\":20560:20571  item.status */\n      0xc0\n      add\n        /* \"contracts/Marketplace2/Marketplace.sol\":20560:20591  item.status = ItemStatus.MINTED */\n      swap1\n      0x01\n      dup2\n      gt\n      iszero\n      tag_240\n      jumpi\n      tag_241\n      tag_113\n      jump\t// in\n    tag_241:\n    tag_240:\n      swap1\n      dup2\n      0x01\n      dup2\n      gt\n      iszero\n      tag_242\n      jumpi\n      tag_243\n      tag_113\n      jump\t// in\n    tag_243:\n    tag_242:\n      dup2\n      mstore\n      pop\n      pop\n        /* \"contracts/Marketplace2/Marketplace.sol\":20608:20622  idToMarketItem */\n      0x0e\n        /* \"contracts/Marketplace2/Marketplace.sol\":20608:20630  idToMarketItem[itemId] */\n      0x00\n        /* \"contracts/Marketplace2/Marketplace.sol\":20623:20629  itemId */\n      dup7\n        /* \"contracts/Marketplace2/Marketplace.sol\":20608:20630  idToMarketItem[itemId] */\n      dup2\n      mstore\n      0x20\n      add\n      swap1\n      dup2\n      mstore\n      0x20\n      add\n      0x00\n      keccak256\n      0x00\n        /* \"contracts/Marketplace2/Marketplace.sol\":20601:20630  delete idToMarketItem[itemId] */\n      dup1\n      dup3\n      add\n      0x00\n      swap1\n      sstore\n      0x01\n      dup3\n      add\n      exp(0x0100, 0x00)\n      dup2\n      sload\n      swap1\n      0xffffffffffffffffffffffffffffffffffffffff\n      mul\n      not\n      and\n      swap1\n      sstore\n      0x02\n      dup3\n      add\n      0x00\n      swap1\n      sstore\n      0x03\n      dup3\n      add\n      exp(0x0100, 0x00)\n      dup2\n      sload\n      swap1\n      0xffffffffffffffffffffffffffffffffffffffff\n      mul\n      not\n      and\n      swap1\n      sstore\n      0x04\n      dup3\n      add\n      exp(0x0100, 0x00)\n      dup2\n      sload\n      swap1\n      0xffffffffffffffffffffffffffffffffffffffff\n      mul\n      not\n      and\n      swap1\n      sstore\n      0x05\n      dup3\n      add\n      0x00\n      swap1\n      sstore\n      0x06\n      dup3\n      add\n      exp(0x0100, 0x00)\n      dup2\n      sload\n      swap1\n      0xff\n      mul\n      not\n      and\n      swap1\n      sstore\n      pop\n      pop\n        /* \"contracts/Marketplace2/Marketplace.sol\":20748:20756  deleteBy */\n      dup4\n        /* \"contracts/Marketplace2/Marketplace.sol\":20645:20795  DelistItemSuccessful(... */\n      0xffffffffffffffffffffffffffffffffffffffff\n      and\n        /* \"contracts/Marketplace2/Marketplace.sol\":20728:20734  itemId */\n      dup6\n        /* \"contracts/Marketplace2/Marketplace.sol\":20645:20795  DelistItemSuccessful(... */\n      0xc141ecc59e1a451ee7d3128743c8ca3174955ce97262896269482d5f84b39a85\n        /* \"contracts/Marketplace2/Marketplace.sol\":20679:20689  nftAddress */\n      dup9\n        /* \"contracts/Marketplace2/Marketplace.sol\":20703:20707  item */\n      dup7\n        /* \"contracts/Marketplace2/Marketplace.sol\":20703:20714  item.itemId */\n      0x00\n      add\n      mload\n        /* \"contracts/Marketplace2/Marketplace.sol\":20770:20785  block.timestamp */\n      timestamp\n        /* \"contracts/Marketplace2/Marketplace.sol\":20645:20795  DelistItemSuccessful(... */\n      mload(0x40)\n      tag_244\n      swap4\n      swap3\n      swap2\n      swap1\n      tag_245\n      jump\t// in\n    tag_244:\n      mload(0x40)\n      dup1\n      swap2\n      sub\n      swap1\n      log3\n        /* \"contracts/Marketplace2/Marketplace.sol\":19973:20802  {... */\n      pop\n      pop\n      pop\n      pop\n        /* \"contracts/Marketplace2/Marketplace.sol\":19910:20802  function delistItem(address nftAddress, uint256 itemId) public {... */\n      pop\n      pop\n      jump\t// out\n        /* \"contracts/Marketplace2/Marketplace.sol\":16183:16210  uint8 public antaFeePercent */\n    tag_92:\n      0x0a\n      0x15\n      swap1\n      sload\n      swap1\n      0x0100\n      exp\n      swap1\n      div\n      0xff\n      and\n      dup2\n      jump\t// out\n        /* \"contracts/Marketplace2/Marketplace.sol\":17377:17508  function getMarketItem(uint256 marketItemId) public view returns (MarketItem memory) {... */\n    tag_97:\n        /* \"contracts/Marketplace2/Marketplace.sol\":17443:17460  MarketItem memory */\n      tag_246\n      tag_109\n      jump\t// in\n    tag_246:\n        /* \"contracts/Marketplace2/Marketplace.sol\":17475:17489  idToMarketItem */\n      0x0e\n        /* \"contracts/Marketplace2/Marketplace.sol\":17475:17503  idToMarketItem[marketItemId] */\n      0x00\n        /* \"contracts/Marketplace2/Marketplace.sol\":17490:17502  marketItemId */\n      dup4\n        /* \"contracts/Marketplace2/Marketplace.sol\":17475:17503  idToMarketItem[marketItemId] */\n      dup2\n      mstore\n      0x20\n      add\n      swap1\n      dup2\n      mstore\n      0x20\n      add\n      0x00\n      keccak256\n        /* \"contracts/Marketplace2/Marketplace.sol\":17468:17503  return idToMarketItem[marketItemId] */\n      mload(0x40)\n      dup1\n      0xe0\n      add\n      0x40\n      mstore\n      swap1\n      dup2\n      0x00\n      dup3\n      add\n      sload\n      dup2\n      mstore\n      0x20\n      add\n      0x01\n      dup3\n      add\n      0x00\n      swap1\n      sload\n      swap1\n      0x0100\n      exp\n      swap1\n      div\n      0xffffffffffffffffffffffffffffffffffffffff\n      and\n      0xffffffffffffffffffffffffffffffffffffffff\n      and\n      0xffffffffffffffffffffffffffffffffffffffff\n      and\n      dup2\n      mstore\n      0x20\n      add\n      0x02\n      dup3\n      add\n      sload\n      dup2\n      mstore\n      0x20\n      add\n      0x03\n      dup3\n      add\n      0x00\n      swap1\n      sload\n      swap1\n      0x0100\n      exp\n      swap1\n      div\n      0xffffffffffffffffffffffffffffffffffffffff\n      and\n      0xffffffffffffffffffffffffffffffffffffffff\n      and\n      0xffffffffffffffffffffffffffffffffffffffff\n      and\n      dup2\n      mstore\n      0x20\n      add\n      0x04\n      dup3\n      add\n      0x00\n      swap1\n      sload\n      swap1\n      0x0100\n      exp\n      swap1\n      div\n      0xffffffffffffffffffffffffffffffffffffffff\n      and\n      0xffffffffffffffffffffffffffffffffffffffff\n      and\n      0xffffffffffffffffffffffffffffffffffffffff\n      and\n      dup2\n      mstore\n      0x20\n      add\n      0x05\n      dup3\n      add\n      sload\n      dup2\n      mstore\n      0x20\n      add\n      0x06\n      dup3\n      add\n      0x00\n      swap1\n      sload\n      swap1\n      0x0100\n      exp\n      swap1\n      div\n      0xff\n      and\n      0x01\n      dup2\n      gt\n      iszero\n      tag_248\n      jumpi\n      tag_249\n      tag_113\n      jump\t// in\n    tag_249:\n    tag_248:\n      0x01\n      dup2\n      gt\n      iszero\n      tag_250\n      jumpi\n      tag_251\n      tag_113\n      jump\t// in\n    tag_251:\n    tag_250:\n      dup2\n      mstore\n      pop\n      pop\n      swap1\n      pop\n        /* \"contracts/Marketplace2/Marketplace.sol\":17377:17508  function getMarketItem(uint256 marketItemId) public view returns (MarketItem memory) {... */\n      swap2\n      swap1\n      pop\n      jump\t// out\n        /* \"contracts/Marketplace2/Marketplace.sol\":2558:2756  function transferOwnership(address newOwner) public virtual onlyOwner {... */\n    tag_102:\n        /* \"contracts/Marketplace2/Marketplace.sol\":1899:1911  _msgSender() */\n      tag_253\n        /* \"contracts/Marketplace2/Marketplace.sol\":1899:1909  _msgSender */\n      tag_198\n        /* \"contracts/Marketplace2/Marketplace.sol\":1899:1911  _msgSender() */\n      jump\t// in\n    tag_253:\n        /* \"contracts/Marketplace2/Marketplace.sol\":1888:1911  owner() == _msgSender() */\n      0xffffffffffffffffffffffffffffffffffffffff\n      and\n        /* \"contracts/Marketplace2/Marketplace.sol\":1888:1895  owner() */\n      tag_254\n        /* \"contracts/Marketplace2/Marketplace.sol\":1888:1893  owner */\n      tag_78\n        /* \"contracts/Marketplace2/Marketplace.sol\":1888:1895  owner() */\n      jump\t// in\n    tag_254:\n        /* \"contracts/Marketplace2/Marketplace.sol\":1888:1911  owner() == _msgSender() */\n      0xffffffffffffffffffffffffffffffffffffffff\n      and\n      eq\n        /* \"contracts/Marketplace2/Marketplace.sol\":1880:1948  require(owner() == _msgSender(), \"Ownable: caller is not the owner\") */\n      tag_255\n      jumpi\n      mload(0x40)\n      0x08c379a000000000000000000000000000000000000000000000000000000000\n      dup2\n      mstore\n      0x04\n      add\n      tag_256\n      swap1\n      tag_202\n      jump\t// in\n    tag_256:\n      mload(0x40)\n      dup1\n      swap2\n      sub\n      swap1\n      revert\n    tag_255:\n        /* \"contracts/Marketplace2/Marketplace.sol\":2666:2667  0 */\n      0x00\n        /* \"contracts/Marketplace2/Marketplace.sol\":2646:2668  newOwner != address(0) */\n      0xffffffffffffffffffffffffffffffffffffffff\n      and\n        /* \"contracts/Marketplace2/Marketplace.sol\":2646:2654  newOwner */\n      dup2\n        /* \"contracts/Marketplace2/Marketplace.sol\":2646:2668  newOwner != address(0) */\n      0xffffffffffffffffffffffffffffffffffffffff\n      and\n      sub\n        /* \"contracts/Marketplace2/Marketplace.sol\":2638:2711  require(newOwner != address(0), \"Ownable: new owner is the zero address\") */\n      tag_258\n      jumpi\n      mload(0x40)\n      0x08c379a000000000000000000000000000000000000000000000000000000000\n      dup2\n      mstore\n      0x04\n      add\n      tag_259\n      swap1\n      tag_260\n      jump\t// in\n    tag_259:\n      mload(0x40)\n      dup1\n      swap2\n      sub\n      swap1\n      revert\n    tag_258:\n        /* \"contracts/Marketplace2/Marketplace.sol\":2721:2749  _transferOwnership(newOwner) */\n      tag_261\n        /* \"contracts/Marketplace2/Marketplace.sol\":2740:2748  newOwner */\n      dup2\n        /* \"contracts/Marketplace2/Marketplace.sol\":2721:2739  _transferOwnership */\n      tag_205\n        /* \"contracts/Marketplace2/Marketplace.sol\":2721:2749  _transferOwnership(newOwner) */\n      jump\t// in\n    tag_261:\n        /* \"contracts/Marketplace2/Marketplace.sol\":2558:2756  function transferOwnership(address newOwner) public virtual onlyOwner {... */\n      pop\n      jump\t// out\n        /* \"contracts/Marketplace2/Marketplace.sol\":15928:15975  mapping (uint256 => MarketItem) public allItems */\n    tag_106:\n      mstore(0x20, 0x08)\n      dup1\n      0x00\n      mstore\n      keccak256(0x00, 0x40)\n      0x00\n      swap2\n      pop\n      swap1\n      pop\n      dup1\n      0x00\n      add\n      sload\n      swap1\n      dup1\n      0x01\n      add\n      0x00\n      swap1\n      sload\n      swap1\n      0x0100\n      exp\n      swap1\n      div\n      0xffffffffffffffffffffffffffffffffffffffff\n      and\n      swap1\n      dup1\n      0x02\n      add\n      sload\n      swap1\n      dup1\n      0x03\n      add\n      0x00\n      swap1\n      sload\n      swap1\n      0x0100\n      exp\n      swap1\n      div\n      0xffffffffffffffffffffffffffffffffffffffff\n      and\n      swap1\n      dup1\n      0x04\n      add\n      0x00\n      swap1\n      sload\n      swap1\n      0x0100\n      exp\n      swap1\n      div\n      0xffffffffffffffffffffffffffffffffffffffff\n      and\n      swap1\n      dup1\n      0x05\n      add\n      sload\n      swap1\n      dup1\n      0x06\n      add\n      0x00\n      swap1\n      sload\n      swap1\n      0x0100\n      exp\n      swap1\n      div\n      0xff\n      and\n      swap1\n      pop\n      dup8\n      jump\t// out\n        /* \"contracts/Marketplace2/Marketplace.sol\":11851:11963  function current(Counter storage counter) internal view returns (uint256) {... */\n    tag_118:\n        /* \"contracts/Marketplace2/Marketplace.sol\":11916:11923  uint256 */\n      0x00\n        /* \"contracts/Marketplace2/Marketplace.sol\":11942:11949  counter */\n      dup2\n        /* \"contracts/Marketplace2/Marketplace.sol\":11942:11956  counter._value */\n      0x00\n      add\n      sload\n        /* \"contracts/Marketplace2/Marketplace.sol\":11935:11956  return counter._value */\n      swap1\n      pop\n        /* \"contracts/Marketplace2/Marketplace.sol\":11851:11963  function current(Counter storage counter) internal view returns (uint256) {... */\n      swap2\n      swap1\n      pop\n      jump\t// out\n        /* \"contracts/Marketplace2/Marketplace.sol\":11969:12092  function increment(Counter storage counter) internal {... */\n    tag_171:\n        /* \"contracts/Marketplace2/Marketplace.sol\":12074:12075  1 */\n      0x01\n        /* \"contracts/Marketplace2/Marketplace.sol\":12056:12063  counter */\n      dup2\n        /* \"contracts/Marketplace2/Marketplace.sol\":12056:12070  counter._value */\n      0x00\n      add\n      0x00\n        /* \"contracts/Marketplace2/Marketplace.sol\":12056:12075  counter._value += 1 */\n      dup3\n      dup3\n      sload\n      add\n      swap3\n      pop\n      pop\n      dup2\n      swap1\n      sstore\n      pop\n        /* \"contracts/Marketplace2/Marketplace.sol\":11969:12092  function increment(Counter storage counter) internal {... */\n      pop\n      jump\t// out\n        /* \"contracts/Marketplace2/Marketplace.sol\":554:650  function _msgSender() internal view virtual returns (address) {... */\n    tag_198:\n        /* \"contracts/Marketplace2/Marketplace.sol\":607:614  address */\n      0x00\n        /* \"contracts/Marketplace2/Marketplace.sol\":633:643  msg.sender */\n      caller\n        /* \"contracts/Marketplace2/Marketplace.sol\":626:643  return msg.sender */\n      swap1\n      pop\n        /* \"contracts/Marketplace2/Marketplace.sol\":554:650  function _msgSender() internal view virtual returns (address) {... */\n      swap1\n      jump\t// out\n        /* \"contracts/Marketplace2/Marketplace.sol\":2910:3097  function _transferOwnership(address newOwner) internal virtual {... */\n    tag_205:\n        /* \"contracts/Marketplace2/Marketplace.sol\":2983:2999  address oldOwner */\n      0x00\n        /* \"contracts/Marketplace2/Marketplace.sol\":3002:3008  _owner */\n      0x0b\n      0x00\n      swap1\n      sload\n      swap1\n      0x0100\n      exp\n      swap1\n      div\n      0xffffffffffffffffffffffffffffffffffffffff\n      and\n        /* \"contracts/Marketplace2/Marketplace.sol\":2983:3008  address oldOwner = _owner */\n      swap1\n      pop\n        /* \"contracts/Marketplace2/Marketplace.sol\":3027:3035  newOwner */\n      dup2\n        /* \"contracts/Marketplace2/Marketplace.sol\":3018:3024  _owner */\n      0x0b\n      0x00\n        /* \"contracts/Marketplace2/Marketplace.sol\":3018:3035  _owner = newOwner */\n      0x0100\n      exp\n      dup2\n      sload\n      dup2\n      0xffffffffffffffffffffffffffffffffffffffff\n      mul\n      not\n      and\n      swap1\n      dup4\n      0xffffffffffffffffffffffffffffffffffffffff\n      and\n      mul\n      or\n      swap1\n      sstore\n      pop\n        /* \"contracts/Marketplace2/Marketplace.sol\":3081:3089  newOwner */\n      dup2\n        /* \"contracts/Marketplace2/Marketplace.sol\":3050:3090  OwnershipTransferred(oldOwner, newOwner) */\n      0xffffffffffffffffffffffffffffffffffffffff\n      and\n        /* \"contracts/Marketplace2/Marketplace.sol\":3071:3079  oldOwner */\n      dup2\n        /* \"contracts/Marketplace2/Marketplace.sol\":3050:3090  OwnershipTransferred(oldOwner, newOwner) */\n      0xffffffffffffffffffffffffffffffffffffffff\n      and\n      0x8be0079c531659141344cd1fd0a4f28419497f9722a3daafe3b4186f6b6457e0\n      mload(0x40)\n      mload(0x40)\n      dup1\n      swap2\n      sub\n      swap1\n      log3\n        /* \"contracts/Marketplace2/Marketplace.sol\":2973:3097  {... */\n      pop\n        /* \"contracts/Marketplace2/Marketplace.sol\":2910:3097  function _transferOwnership(address newOwner) internal virtual {... */\n      pop\n      jump\t// out\n        /* \"contracts/Marketplace2/Marketplace.sol\":22208:22597  function _requireERC721(address nftAddress) internal view {... */\n    tag_215:\n        /* \"contracts/Marketplace2/Marketplace.sol\":22297:22319  isContract(nftAddress) */\n      tag_267\n        /* \"contracts/Marketplace2/Marketplace.sol\":22308:22318  nftAddress */\n      dup2\n        /* \"contracts/Marketplace2/Marketplace.sol\":22297:22307  isContract */\n      tag_268\n        /* \"contracts/Marketplace2/Marketplace.sol\":22297:22319  isContract(nftAddress) */\n      jump\t// in\n    tag_267:\n        /* \"contracts/Marketplace2/Marketplace.sol\":22276:22381  require(... */\n      tag_269\n      jumpi\n      mload(0x40)\n      0x08c379a000000000000000000000000000000000000000000000000000000000\n      dup2\n      mstore\n      0x04\n      add\n      tag_270\n      swap1\n      tag_271\n      jump\t// in\n    tag_270:\n      mload(0x40)\n      dup1\n      swap2\n      sub\n      swap1\n      revert\n    tag_269:\n        /* \"contracts/Marketplace2/Marketplace.sol\":22392:22411  IERC721 nftRegistry */\n      0x00\n        /* \"contracts/Marketplace2/Marketplace.sol\":22422:22432  nftAddress */\n      dup2\n        /* \"contracts/Marketplace2/Marketplace.sol\":22392:22433  IERC721 nftRegistry = IERC721(nftAddress) */\n      swap1\n      pop\n        /* \"contracts/Marketplace2/Marketplace.sol\":22464:22475  nftRegistry */\n      dup1\n        /* \"contracts/Marketplace2/Marketplace.sol\":22464:22493  nftRegistry.supportsInterface */\n      0xffffffffffffffffffffffffffffffffffffffff\n      and\n      0x01ffc9a7\n        /* \"contracts/Marketplace2/Marketplace.sol\":15910:15920  0x80ac58cd */\n      0x80ac58cd\n        /* \"contracts/Marketplace2/Marketplace.sol\":15903:15921  bytes4(0x80ac58cd) */\n      0xe0\n      shl\n        /* \"contracts/Marketplace2/Marketplace.sol\":22464:22511  nftRegistry.supportsInterface(ERC721_Interface) */\n      mload(0x40)\n      dup3\n      0xffffffff\n      and\n      0xe0\n      shl\n      dup2\n      mstore\n      0x04\n      add\n      tag_272\n      swap2\n      swap1\n      tag_53\n      jump\t// in\n    tag_272:\n      0x20\n      mload(0x40)\n      dup1\n      dup4\n      sub\n      dup2\n      dup7\n      gas\n      staticcall\n      iszero\n      dup1\n      iszero\n      tag_274\n      jumpi\n      returndatasize\n      0x00\n      dup1\n      returndatacopy\n      revert(0x00, returndatasize)\n    tag_274:\n      pop\n      pop\n      pop\n      pop\n      mload(0x40)\n      returndatasize\n      not(0x1f)\n      0x1f\n      dup3\n      add\n      and\n      dup3\n      add\n      dup1\n      0x40\n      mstore\n      pop\n      dup2\n      add\n      swap1\n      tag_275\n      swap2\n      swap1\n      tag_162\n      jump\t// in\n    tag_275:\n        /* \"contracts/Marketplace2/Marketplace.sol\":22443:22590  require(... */\n      tag_276\n      jumpi\n      mload(0x40)\n      0x08c379a000000000000000000000000000000000000000000000000000000000\n      dup2\n      mstore\n      0x04\n      add\n      tag_277\n      swap1\n      tag_278\n      jump\t// in\n    tag_277:\n      mload(0x40)\n      dup1\n      swap2\n      sub\n      swap1\n      revert\n    tag_276:\n        /* \"contracts/Marketplace2/Marketplace.sol\":22266:22597  {... */\n      pop\n        /* \"contracts/Marketplace2/Marketplace.sol\":22208:22597  function _requireERC721(address nftAddress) internal view {... */\n      pop\n      jump\t// out\n        /* \"contracts/Marketplace2/Marketplace.sol\":22603:22760  function isContract(address _addr) private view returns (bool){... */\n    tag_268:\n        /* \"contracts/Marketplace2/Marketplace.sol\":22660:22664  bool */\n      0x00\n        /* \"contracts/Marketplace2/Marketplace.sol\":22671:22682  uint32 size */\n      dup1\n        /* \"contracts/Marketplace2/Marketplace.sol\":22723:22728  _addr */\n      dup3\n        /* \"contracts/Marketplace2/Marketplace.sol\":22711:22729  extcodesize(_addr) */\n      extcodesize\n        /* \"contracts/Marketplace2/Marketplace.sol\":22703:22729  size := extcodesize(_addr) */\n      swap1\n      pop\n        /* \"contracts/Marketplace2/Marketplace.sol\":22755:22756  0 */\n      0x00\n        /* \"contracts/Marketplace2/Marketplace.sol\":22748:22752  size */\n      dup2\n        /* \"contracts/Marketplace2/Marketplace.sol\":22748:22756  size > 0 */\n      0xffffffff\n      and\n      gt\n        /* \"contracts/Marketplace2/Marketplace.sol\":22740:22757  return (size > 0) */\n      swap2\n      pop\n      pop\n        /* \"contracts/Marketplace2/Marketplace.sol\":22603:22760  function isContract(address _addr) private view returns (bool){... */\n      swap2\n      swap1\n      pop\n      jump\t// out\n    tag_109:\n      mload(0x40)\n      dup1\n      0xe0\n      add\n      0x40\n      mstore\n      dup1\n      0x00\n      dup2\n      mstore\n      0x20\n      add\n      and(0xffffffffffffffffffffffffffffffffffffffff, 0x00)\n      dup2\n      mstore\n      0x20\n      add\n      0x00\n      dup2\n      mstore\n      0x20\n      add\n      and(0xffffffffffffffffffffffffffffffffffffffff, 0x00)\n      dup2\n      mstore\n      0x20\n      add\n      and(0xffffffffffffffffffffffffffffffffffffffff, 0x00)\n      dup2\n      mstore\n      0x20\n      add\n      0x00\n      dup2\n      mstore\n      0x20\n      add\n      0x00\n      0x01\n      dup2\n      gt\n      iszero\n      tag_280\n      jumpi\n      tag_281\n      tag_113\n      jump\t// in\n    tag_281:\n    tag_280:\n      dup2\n      mstore\n      pop\n      swap1\n      jump\t// out\n        /* \"#utility.yul\":7:84   */\n    tag_282:\n        /* \"#utility.yul\":44:51   */\n      0x00\n        /* \"#utility.yul\":73:78   */\n      dup2\n        /* \"#utility.yul\":62:78   */\n      swap1\n      pop\n        /* \"#utility.yul\":7:84   */\n      swap2\n      swap1\n      pop\n      jump\t// out\n        /* \"#utility.yul\":90:198   */\n    tag_283:\n        /* \"#utility.yul\":167:191   */\n      tag_353\n        /* \"#utility.yul\":185:190   */\n      dup2\n        /* \"#utility.yul\":167:191   */\n      tag_282\n      jump\t// in\n    tag_353:\n        /* \"#utility.yul\":162:165   */\n      dup3\n        /* \"#utility.yul\":155:192   */\n      mstore\n        /* \"#utility.yul\":90:198   */\n      pop\n      pop\n      jump\t// out\n        /* \"#utility.yul\":204:330   */\n    tag_284:\n        /* \"#utility.yul\":241:248   */\n      0x00\n        /* \"#utility.yul\":281:323   */\n      0xffffffffffffffffffffffffffffffffffffffff\n        /* \"#utility.yul\":274:279   */\n      dup3\n        /* \"#utility.yul\":270:324   */\n      and\n        /* \"#utility.yul\":259:324   */\n      swap1\n      pop\n        /* \"#utility.yul\":204:330   */\n      swap2\n      swap1\n      pop\n      jump\t// out\n        /* \"#utility.yul\":336:432   */\n    tag_285:\n        /* \"#utility.yul\":373:380   */\n      0x00\n        /* \"#utility.yul\":402:426   */\n      tag_356\n        /* \"#utility.yul\":420:425   */\n      dup3\n        /* \"#utility.yul\":402:426   */\n      tag_284\n      jump\t// in\n    tag_356:\n        /* \"#utility.yul\":391:426   */\n      swap1\n      pop\n        /* \"#utility.yul\":336:432   */\n      swap2\n      swap1\n      pop\n      jump\t// out\n        /* \"#utility.yul\":438:546   */\n    tag_286:\n        /* \"#utility.yul\":515:539   */\n      tag_358\n        /* \"#utility.yul\":533:538   */\n      dup2\n        /* \"#utility.yul\":515:539   */\n      tag_285\n      jump\t// in\n    tag_358:\n        /* \"#utility.yul\":510:513   */\n      dup3\n        /* \"#utility.yul\":503:540   */\n      mstore\n        /* \"#utility.yul\":438:546   */\n      pop\n      pop\n      jump\t// out\n        /* \"#utility.yul\":552:656   */\n    tag_287:\n        /* \"#utility.yul\":597:604   */\n      0x00\n        /* \"#utility.yul\":626:650   */\n      tag_360\n        /* \"#utility.yul\":644:649   */\n      dup3\n        /* \"#utility.yul\":626:650   */\n      tag_284\n      jump\t// in\n    tag_360:\n        /* \"#utility.yul\":615:650   */\n      swap1\n      pop\n        /* \"#utility.yul\":552:656   */\n      swap2\n      swap1\n      pop\n      jump\t// out\n        /* \"#utility.yul\":662:794   */\n    tag_288:\n        /* \"#utility.yul\":755:787   */\n      tag_362\n        /* \"#utility.yul\":781:786   */\n      dup2\n        /* \"#utility.yul\":755:787   */\n      tag_287\n      jump\t// in\n    tag_362:\n        /* \"#utility.yul\":750:753   */\n      dup3\n        /* \"#utility.yul\":743:788   */\n      mstore\n        /* \"#utility.yul\":662:794   */\n      pop\n      pop\n      jump\t// out\n        /* \"#utility.yul\":800:980   */\n    tag_113:\n        /* \"#utility.yul\":848:925   */\n      0x4e487b7100000000000000000000000000000000000000000000000000000000\n        /* \"#utility.yul\":845:846   */\n      0x00\n        /* \"#utility.yul\":838:926   */\n      mstore\n        /* \"#utility.yul\":945:949   */\n      0x21\n        /* \"#utility.yul\":942:943   */\n      0x04\n        /* \"#utility.yul\":935:950   */\n      mstore\n        /* \"#utility.yul\":969:973   */\n      0x24\n        /* \"#utility.yul\":966:967   */\n      0x00\n        /* \"#utility.yul\":959:974   */\n      revert\n        /* \"#utility.yul\":986:1105   */\n    tag_289:\n        /* \"#utility.yul\":1073:1074   */\n      0x02\n        /* \"#utility.yul\":1066:1071   */\n      dup2\n        /* \"#utility.yul\":1063:1075   */\n      lt\n        /* \"#utility.yul\":1053:1099   */\n      tag_365\n      jumpi\n        /* \"#utility.yul\":1079:1097   */\n      tag_366\n      tag_113\n      jump\t// in\n    tag_366:\n        /* \"#utility.yul\":1053:1099   */\n    tag_365:\n        /* \"#utility.yul\":986:1105   */\n      pop\n      jump\t// out\n        /* \"#utility.yul\":1111:1250   */\n    tag_290:\n        /* \"#utility.yul\":1162:1169   */\n      0x00\n        /* \"#utility.yul\":1191:1196   */\n      dup2\n        /* \"#utility.yul\":1180:1196   */\n      swap1\n      pop\n        /* \"#utility.yul\":1197:1244   */\n      tag_368\n        /* \"#utility.yul\":1238:1243   */\n      dup3\n        /* \"#utility.yul\":1197:1244   */\n      tag_289\n      jump\t// in\n    tag_368:\n        /* \"#utility.yul\":1111:1250   */\n      swap2\n      swap1\n      pop\n      jump\t// out\n        /* \"#utility.yul\":1256:1395   */\n    tag_291:\n        /* \"#utility.yul\":1318:1327   */\n      0x00\n        /* \"#utility.yul\":1351:1389   */\n      tag_370\n        /* \"#utility.yul\":1383:1388   */\n      dup3\n        /* \"#utility.yul\":1351:1389   */\n      tag_290\n      jump\t// in\n    tag_370:\n        /* \"#utility.yul\":1338:1389   */\n      swap1\n      pop\n        /* \"#utility.yul\":1256:1395   */\n      swap2\n      swap1\n      pop\n      jump\t// out\n        /* \"#utility.yul\":1401:1546   */\n    tag_292:\n        /* \"#utility.yul\":1490:1539   */\n      tag_372\n        /* \"#utility.yul\":1533:1538   */\n      dup2\n        /* \"#utility.yul\":1490:1539   */\n      tag_291\n      jump\t// in\n    tag_372:\n        /* \"#utility.yul\":1485:1488   */\n      dup3\n        /* \"#utility.yul\":1478:1540   */\n      mstore\n        /* \"#utility.yul\":1401:1546   */\n      pop\n      pop\n      jump\t// out\n        /* \"#utility.yul\":1636:3079   */\n    tag_293:\n        /* \"#utility.yul\":1787:1791   */\n      0xe0\n        /* \"#utility.yul\":1782:1785   */\n      dup3\n        /* \"#utility.yul\":1778:1792   */\n      add\n        /* \"#utility.yul\":1876:1880   */\n      0x00\n        /* \"#utility.yul\":1869:1874   */\n      dup3\n        /* \"#utility.yul\":1865:1881   */\n      add\n        /* \"#utility.yul\":1859:1882   */\n      mload\n        /* \"#utility.yul\":1895:1958   */\n      tag_374\n        /* \"#utility.yul\":1952:1956   */\n      0x00\n        /* \"#utility.yul\":1947:1950   */\n      dup6\n        /* \"#utility.yul\":1943:1957   */\n      add\n        /* \"#utility.yul\":1929:1941   */\n      dup3\n        /* \"#utility.yul\":1895:1958   */\n      tag_283\n      jump\t// in\n    tag_374:\n        /* \"#utility.yul\":1802:1968   */\n      pop\n        /* \"#utility.yul\":2057:2061   */\n      0x20\n        /* \"#utility.yul\":2050:2055   */\n      dup3\n        /* \"#utility.yul\":2046:2062   */\n      add\n        /* \"#utility.yul\":2040:2063   */\n      mload\n        /* \"#utility.yul\":2076:2139   */\n      tag_375\n        /* \"#utility.yul\":2133:2137   */\n      0x20\n        /* \"#utility.yul\":2128:2131   */\n      dup6\n        /* \"#utility.yul\":2124:2138   */\n      add\n        /* \"#utility.yul\":2110:2122   */\n      dup3\n        /* \"#utility.yul\":2076:2139   */\n      tag_286\n      jump\t// in\n    tag_375:\n        /* \"#utility.yul\":1978:2149   */\n      pop\n        /* \"#utility.yul\":2234:2238   */\n      0x40\n        /* \"#utility.yul\":2227:2232   */\n      dup3\n        /* \"#utility.yul\":2223:2239   */\n      add\n        /* \"#utility.yul\":2217:2240   */\n      mload\n        /* \"#utility.yul\":2253:2316   */\n      tag_376\n        /* \"#utility.yul\":2310:2314   */\n      0x40\n        /* \"#utility.yul\":2305:2308   */\n      dup6\n        /* \"#utility.yul\":2301:2315   */\n      add\n        /* \"#utility.yul\":2287:2299   */\n      dup3\n        /* \"#utility.yul\":2253:2316   */\n      tag_283\n      jump\t// in\n    tag_376:\n        /* \"#utility.yul\":2159:2326   */\n      pop\n        /* \"#utility.yul\":2410:2414   */\n      0x60\n        /* \"#utility.yul\":2403:2408   */\n      dup3\n        /* \"#utility.yul\":2399:2415   */\n      add\n        /* \"#utility.yul\":2393:2416   */\n      mload\n        /* \"#utility.yul\":2429:2508   */\n      tag_377\n        /* \"#utility.yul\":2502:2506   */\n      0x60\n        /* \"#utility.yul\":2497:2500   */\n      dup6\n        /* \"#utility.yul\":2493:2507   */\n      add\n        /* \"#utility.yul\":2479:2491   */\n      dup3\n        /* \"#utility.yul\":2429:2508   */\n      tag_288\n      jump\t// in\n    tag_377:\n        /* \"#utility.yul\":2336:2518   */\n      pop\n        /* \"#utility.yul\":2601:2605   */\n      0x80\n        /* \"#utility.yul\":2594:2599   */\n      dup3\n        /* \"#utility.yul\":2590:2606   */\n      add\n        /* \"#utility.yul\":2584:2607   */\n      mload\n        /* \"#utility.yul\":2620:2699   */\n      tag_378\n        /* \"#utility.yul\":2693:2697   */\n      0x80\n        /* \"#utility.yul\":2688:2691   */\n      dup6\n        /* \"#utility.yul\":2684:2698   */\n      add\n        /* \"#utility.yul\":2670:2682   */\n      dup3\n        /* \"#utility.yul\":2620:2699   */\n      tag_288\n      jump\t// in\n    tag_378:\n        /* \"#utility.yul\":2528:2709   */\n      pop\n        /* \"#utility.yul\":2792:2796   */\n      0xa0\n        /* \"#utility.yul\":2785:2790   */\n      dup3\n        /* \"#utility.yul\":2781:2797   */\n      add\n        /* \"#utility.yul\":2775:2798   */\n      mload\n        /* \"#utility.yul\":2811:2874   */\n      tag_379\n        /* \"#utility.yul\":2868:2872   */\n      0xa0\n        /* \"#utility.yul\":2863:2866   */\n      dup6\n        /* \"#utility.yul\":2859:2873   */\n      add\n        /* \"#utility.yul\":2845:2857   */\n      dup3\n        /* \"#utility.yul\":2811:2874   */\n      tag_283\n      jump\t// in\n    tag_379:\n        /* \"#utility.yul\":2719:2884   */\n      pop\n        /* \"#utility.yul\":2968:2972   */\n      0xc0\n        /* \"#utility.yul\":2961:2966   */\n      dup3\n        /* \"#utility.yul\":2957:2973   */\n      add\n        /* \"#utility.yul\":2951:2974   */\n      mload\n        /* \"#utility.yul\":2987:3062   */\n      tag_380\n        /* \"#utility.yul\":3056:3060   */\n      0xc0\n        /* \"#utility.yul\":3051:3054   */\n      dup6\n        /* \"#utility.yul\":3047:3061   */\n      add\n        /* \"#utility.yul\":3033:3045   */\n      dup3\n        /* \"#utility.yul\":2987:3062   */\n      tag_292\n      jump\t// in\n    tag_380:\n        /* \"#utility.yul\":2894:3072   */\n      pop\n        /* \"#utility.yul\":1756:3079   */\n      pop\n        /* \"#utility.yul\":1636:3079   */\n      pop\n      pop\n      jump\t// out\n        /* \"#utility.yul\":3085:3416   */\n    tag_27:\n        /* \"#utility.yul\":3232:3236   */\n      0x00\n        /* \"#utility.yul\":3270:3273   */\n      0xe0\n        /* \"#utility.yul\":3259:3268   */\n      dup3\n        /* \"#utility.yul\":3255:3274   */\n      add\n        /* \"#utility.yul\":3247:3274   */\n      swap1\n      pop\n        /* \"#utility.yul\":3284:3409   */\n      tag_382\n        /* \"#utility.yul\":3406:3407   */\n      0x00\n        /* \"#utility.yul\":3395:3404   */\n      dup4\n        /* \"#utility.yul\":3391:3408   */\n      add\n        /* \"#utility.yul\":3382:3388   */\n      dup5\n        /* \"#utility.yul\":3284:3409   */\n      tag_293\n      jump\t// in\n    tag_382:\n        /* \"#utility.yul\":3085:3416   */\n      swap3\n      swap2\n      pop\n      pop\n      jump\t// out\n        /* \"#utility.yul\":3422:3482   */\n    tag_294:\n        /* \"#utility.yul\":3450:3453   */\n      0x00\n        /* \"#utility.yul\":3471:3476   */\n      dup2\n        /* \"#utility.yul\":3464:3476   */\n      swap1\n      pop\n        /* \"#utility.yul\":3422:3482   */\n      swap2\n      swap1\n      pop\n      jump\t// out\n        /* \"#utility.yul\":3488:3630   */\n    tag_295:\n        /* \"#utility.yul\":3538:3547   */\n      0x00\n        /* \"#utility.yul\":3571:3624   */\n      tag_385\n        /* \"#utility.yul\":3589:3623   */\n      tag_386\n        /* \"#utility.yul\":3598:3622   */\n      tag_387\n        /* \"#utility.yul\":3616:3621   */\n      dup5\n        /* \"#utility.yul\":3598:3622   */\n      tag_284\n      jump\t// in\n    tag_387:\n        /* \"#utility.yul\":3589:3623   */\n      tag_294\n      jump\t// in\n    tag_386:\n        /* \"#utility.yul\":3571:3624   */\n      tag_284\n      jump\t// in\n    tag_385:\n        /* \"#utility.yul\":3558:3624   */\n      swap1\n      pop\n        /* \"#utility.yul\":3488:3630   */\n      swap2\n      swap1\n      pop\n      jump\t// out\n        /* \"#utility.yul\":3636:3762   */\n    tag_296:\n        /* \"#utility.yul\":3686:3695   */\n      0x00\n        /* \"#utility.yul\":3719:3756   */\n      tag_389\n        /* \"#utility.yul\":3750:3755   */\n      dup3\n        /* \"#utility.yul\":3719:3756   */\n      tag_295\n      jump\t// in\n    tag_389:\n        /* \"#utility.yul\":3706:3756   */\n      swap1\n      pop\n        /* \"#utility.yul\":3636:3762   */\n      swap2\n      swap1\n      pop\n      jump\t// out\n        /* \"#utility.yul\":3768:3908   */\n    tag_297:\n        /* \"#utility.yul\":3832:3841   */\n      0x00\n        /* \"#utility.yul\":3865:3902   */\n      tag_391\n        /* \"#utility.yul\":3896:3901   */\n      dup3\n        /* \"#utility.yul\":3865:3902   */\n      tag_296\n      jump\t// in\n    tag_391:\n        /* \"#utility.yul\":3852:3902   */\n      swap1\n      pop\n        /* \"#utility.yul\":3768:3908   */\n      swap2\n      swap1\n      pop\n      jump\t// out\n        /* \"#utility.yul\":3914:4073   */\n    tag_298:\n        /* \"#utility.yul\":4015:4066   */\n      tag_393\n        /* \"#utility.yul\":4060:4065   */\n      dup2\n        /* \"#utility.yul\":4015:4066   */\n      tag_297\n      jump\t// in\n    tag_393:\n        /* \"#utility.yul\":4010:4013   */\n      dup3\n        /* \"#utility.yul\":4003:4067   */\n      mstore\n        /* \"#utility.yul\":3914:4073   */\n      pop\n      pop\n      jump\t// out\n        /* \"#utility.yul\":4079:4329   */\n    tag_32:\n        /* \"#utility.yul\":4186:4190   */\n      0x00\n        /* \"#utility.yul\":4224:4226   */\n      0x20\n        /* \"#utility.yul\":4213:4222   */\n      dup3\n        /* \"#utility.yul\":4209:4227   */\n      add\n        /* \"#utility.yul\":4201:4227   */\n      swap1\n      pop\n        /* \"#utility.yul\":4237:4322   */\n      tag_395\n        /* \"#utility.yul\":4319:4320   */\n      0x00\n        /* \"#utility.yul\":4308:4317   */\n      dup4\n        /* \"#utility.yul\":4304:4321   */\n      add\n        /* \"#utility.yul\":4295:4301   */\n      dup5\n        /* \"#utility.yul\":4237:4322   */\n      tag_298\n      jump\t// in\n    tag_395:\n        /* \"#utility.yul\":4079:4329   */\n      swap3\n      swap2\n      pop\n      pop\n      jump\t// out\n        /* \"#utility.yul\":4335:4476   */\n    tag_299:\n        /* \"#utility.yul\":4429:4435   */\n      0x00\n        /* \"#utility.yul\":4463:4468   */\n      dup2\n        /* \"#utility.yul\":4457:4469   */\n      mload\n        /* \"#utility.yul\":4447:4469   */\n      swap1\n      pop\n        /* \"#utility.yul\":4335:4476   */\n      swap2\n      swap1\n      pop\n      jump\t// out\n        /* \"#utility.yul\":4482:4693   */\n    tag_300:\n        /* \"#utility.yul\":4608:4619   */\n      0x00\n        /* \"#utility.yul\":4642:4648   */\n      dup3\n        /* \"#utility.yul\":4637:4640   */\n      dup3\n        /* \"#utility.yul\":4630:4649   */\n      mstore\n        /* \"#utility.yul\":4682:4686   */\n      0x20\n        /* \"#utility.yul\":4677:4680   */\n      dup3\n        /* \"#utility.yul\":4673:4687   */\n      add\n        /* \"#utility.yul\":4658:4687   */\n      swap1\n      pop\n        /* \"#utility.yul\":4482:4693   */\n      swap3\n      swap2\n      pop\n      pop\n      jump\t// out\n        /* \"#utility.yul\":4699:4858   */\n    tag_301:\n        /* \"#utility.yul\":4793:4797   */\n      0x00\n        /* \"#utility.yul\":4816:4819   */\n      dup2\n        /* \"#utility.yul\":4808:4819   */\n      swap1\n      pop\n        /* \"#utility.yul\":4846:4850   */\n      0x20\n        /* \"#utility.yul\":4841:4844   */\n      dup3\n        /* \"#utility.yul\":4837:4851   */\n      add\n        /* \"#utility.yul\":4829:4851   */\n      swap1\n      pop\n        /* \"#utility.yul\":4699:4858   */\n      swap2\n      swap1\n      pop\n      jump\t// out\n        /* \"#utility.yul\":4948:6381   */\n    tag_302:\n        /* \"#utility.yul\":5089:5093   */\n      0xe0\n        /* \"#utility.yul\":5084:5087   */\n      dup3\n        /* \"#utility.yul\":5080:5094   */\n      add\n        /* \"#utility.yul\":5178:5182   */\n      0x00\n        /* \"#utility.yul\":5171:5176   */\n      dup3\n        /* \"#utility.yul\":5167:5183   */\n      add\n        /* \"#utility.yul\":5161:5184   */\n      mload\n        /* \"#utility.yul\":5197:5260   */\n      tag_400\n        /* \"#utility.yul\":5254:5258   */\n      0x00\n        /* \"#utility.yul\":5249:5252   */\n      dup6\n        /* \"#utility.yul\":5245:5259   */\n      add\n        /* \"#utility.yul\":5231:5243   */\n      dup3\n        /* \"#utility.yul\":5197:5260   */\n      tag_283\n      jump\t// in\n    tag_400:\n        /* \"#utility.yul\":5104:5270   */\n      pop\n        /* \"#utility.yul\":5359:5363   */\n      0x20\n        /* \"#utility.yul\":5352:5357   */\n      dup3\n        /* \"#utility.yul\":5348:5364   */\n      add\n        /* \"#utility.yul\":5342:5365   */\n      mload\n        /* \"#utility.yul\":5378:5441   */\n      tag_401\n        /* \"#utility.yul\":5435:5439   */\n      0x20\n        /* \"#utility.yul\":5430:5433   */\n      dup6\n        /* \"#utility.yul\":5426:5440   */\n      add\n        /* \"#utility.yul\":5412:5424   */\n      dup3\n        /* \"#utility.yul\":5378:5441   */\n      tag_286\n      jump\t// in\n    tag_401:\n        /* \"#utility.yul\":5280:5451   */\n      pop\n        /* \"#utility.yul\":5536:5540   */\n      0x40\n        /* \"#utility.yul\":5529:5534   */\n      dup3\n        /* \"#utility.yul\":5525:5541   */\n      add\n        /* \"#utility.yul\":5519:5542   */\n      mload\n        /* \"#utility.yul\":5555:5618   */\n      tag_402\n        /* \"#utility.yul\":5612:5616   */\n      0x40\n        /* \"#utility.yul\":5607:5610   */\n      dup6\n        /* \"#utility.yul\":5603:5617   */\n      add\n        /* \"#utility.yul\":5589:5601   */\n      dup3\n        /* \"#utility.yul\":5555:5618   */\n      tag_283\n      jump\t// in\n    tag_402:\n        /* \"#utility.yul\":5461:5628   */\n      pop\n        /* \"#utility.yul\":5712:5716   */\n      0x60\n        /* \"#utility.yul\":5705:5710   */\n      dup3\n        /* \"#utility.yul\":5701:5717   */\n      add\n        /* \"#utility.yul\":5695:5718   */\n      mload\n        /* \"#utility.yul\":5731:5810   */\n      tag_403\n        /* \"#utility.yul\":5804:5808   */\n      0x60\n        /* \"#utility.yul\":5799:5802   */\n      dup6\n        /* \"#utility.yul\":5795:5809   */\n      add\n        /* \"#utility.yul\":5781:5793   */\n      dup3\n        /* \"#utility.yul\":5731:5810   */\n      tag_288\n      jump\t// in\n    tag_403:\n        /* \"#utility.yul\":5638:5820   */\n      pop\n        /* \"#utility.yul\":5903:5907   */\n      0x80\n        /* \"#utility.yul\":5896:5901   */\n      dup3\n        /* \"#utility.yul\":5892:5908   */\n      add\n        /* \"#utility.yul\":5886:5909   */\n      mload\n        /* \"#utility.yul\":5922:6001   */\n      tag_404\n        /* \"#utility.yul\":5995:5999   */\n      0x80\n        /* \"#utility.yul\":5990:5993   */\n      dup6\n        /* \"#utility.yul\":5986:6000   */\n      add\n        /* \"#utility.yul\":5972:5984   */\n      dup3\n        /* \"#utility.yul\":5922:6001   */\n      tag_288\n      jump\t// in\n    tag_404:\n        /* \"#utility.yul\":5830:6011   */\n      pop\n        /* \"#utility.yul\":6094:6098   */\n      0xa0\n        /* \"#utility.yul\":6087:6092   */\n      dup3\n        /* \"#utility.yul\":6083:6099   */\n      add\n        /* \"#utility.yul\":6077:6100   */\n      mload\n        /* \"#utility.yul\":6113:6176   */\n      tag_405\n        /* \"#utility.yul\":6170:6174   */\n      0xa0\n        /* \"#utility.yul\":6165:6168   */\n      dup6\n        /* \"#utility.yul\":6161:6175   */\n      add\n        /* \"#utility.yul\":6147:6159   */\n      dup3\n        /* \"#utility.yul\":6113:6176   */\n      tag_283\n      jump\t// in\n    tag_405:\n        /* \"#utility.yul\":6021:6186   */\n      pop\n        /* \"#utility.yul\":6270:6274   */\n      0xc0\n        /* \"#utility.yul\":6263:6268   */\n      dup3\n        /* \"#utility.yul\":6259:6275   */\n      add\n        /* \"#utility.yul\":6253:6276   */\n      mload\n        /* \"#utility.yul\":6289:6364   */\n      tag_406\n        /* \"#utility.yul\":6358:6362   */\n      0xc0\n        /* \"#utility.yul\":6353:6356   */\n      dup6\n        /* \"#utility.yul\":6349:6363   */\n      add\n        /* \"#utility.yul\":6335:6347   */\n      dup3\n        /* \"#utility.yul\":6289:6364   */\n      tag_292\n      jump\t// in\n    tag_406:\n        /* \"#utility.yul\":6196:6374   */\n      pop\n        /* \"#utility.yul\":5058:6381   */\n      pop\n        /* \"#utility.yul\":4948:6381   */\n      pop\n      pop\n      jump\t// out\n        /* \"#utility.yul\":6387:6674   */\n    tag_303:\n        /* \"#utility.yul\":6510:6520   */\n      0x00\n        /* \"#utility.yul\":6531:6631   */\n      tag_408\n        /* \"#utility.yul\":6627:6630   */\n      dup4\n        /* \"#utility.yul\":6619:6625   */\n      dup4\n        /* \"#utility.yul\":6531:6631   */\n      tag_302\n      jump\t// in\n    tag_408:\n        /* \"#utility.yul\":6663:6667   */\n      0xe0\n        /* \"#utility.yul\":6658:6661   */\n      dup4\n        /* \"#utility.yul\":6654:6668   */\n      add\n        /* \"#utility.yul\":6640:6668   */\n      swap1\n      pop\n        /* \"#utility.yul\":6387:6674   */\n      swap3\n      swap2\n      pop\n      pop\n      jump\t// out\n        /* \"#utility.yul\":6680:6820   */\n    tag_304:\n        /* \"#utility.yul\":6777:6781   */\n      0x00\n        /* \"#utility.yul\":6809:6813   */\n      0x20\n        /* \"#utility.yul\":6804:6807   */\n      dup3\n        /* \"#utility.yul\":6800:6814   */\n      add\n        /* \"#utility.yul\":6792:6814   */\n      swap1\n      pop\n        /* \"#utility.yul\":6680:6820   */\n      swap2\n      swap1\n      pop\n      jump\t// out\n        /* \"#utility.yul\":6914:7862   */\n    tag_305:\n        /* \"#utility.yul\":7087:7090   */\n      0x00\n        /* \"#utility.yul\":7116:7197   */\n      tag_411\n        /* \"#utility.yul\":7191:7196   */\n      dup3\n        /* \"#utility.yul\":7116:7197   */\n      tag_299\n      jump\t// in\n    tag_411:\n        /* \"#utility.yul\":7213:7326   */\n      tag_412\n        /* \"#utility.yul\":7319:7325   */\n      dup2\n        /* \"#utility.yul\":7314:7317   */\n      dup6\n        /* \"#utility.yul\":7213:7326   */\n      tag_300\n      jump\t// in\n    tag_412:\n        /* \"#utility.yul\":7206:7326   */\n      swap4\n      pop\n        /* \"#utility.yul\":7350:7433   */\n      tag_413\n        /* \"#utility.yul\":7427:7432   */\n      dup4\n        /* \"#utility.yul\":7350:7433   */\n      tag_301\n      jump\t// in\n    tag_413:\n        /* \"#utility.yul\":7456:7463   */\n      dup1\n        /* \"#utility.yul\":7487:7488   */\n      0x00\n        /* \"#utility.yul\":7472:7837   */\n    tag_414:\n        /* \"#utility.yul\":7497:7503   */\n      dup4\n        /* \"#utility.yul\":7494:7495   */\n      dup2\n        /* \"#utility.yul\":7491:7504   */\n      lt\n        /* \"#utility.yul\":7472:7837   */\n      iszero\n      tag_416\n      jumpi\n        /* \"#utility.yul\":7573:7579   */\n      dup2\n        /* \"#utility.yul\":7567:7580   */\n      mload\n        /* \"#utility.yul\":7600:7717   */\n      tag_417\n        /* \"#utility.yul\":7713:7716   */\n      dup9\n        /* \"#utility.yul\":7698:7711   */\n      dup3\n        /* \"#utility.yul\":7600:7717   */\n      tag_303\n      jump\t// in\n    tag_417:\n        /* \"#utility.yul\":7593:7717   */\n      swap8\n      pop\n        /* \"#utility.yul\":7740:7827   */\n      tag_418\n        /* \"#utility.yul\":7820:7826   */\n      dup4\n        /* \"#utility.yul\":7740:7827   */\n      tag_304\n      jump\t// in\n    tag_418:\n        /* \"#utility.yul\":7730:7827   */\n      swap3\n      pop\n        /* \"#utility.yul\":7532:7837   */\n      pop\n        /* \"#utility.yul\":7519:7520   */\n      0x01\n        /* \"#utility.yul\":7516:7517   */\n      dup2\n        /* \"#utility.yul\":7512:7521   */\n      add\n        /* \"#utility.yul\":7507:7521   */\n      swap1\n      pop\n        /* \"#utility.yul\":7472:7837   */\n      jump(tag_414)\n    tag_416:\n        /* \"#utility.yul\":7476:7490   */\n      pop\n        /* \"#utility.yul\":7853:7856   */\n      dup6\n        /* \"#utility.yul\":7846:7856   */\n      swap4\n      pop\n        /* \"#utility.yul\":7092:7862   */\n      pop\n      pop\n      pop\n        /* \"#utility.yul\":6914:7862   */\n      swap3\n      swap2\n      pop\n      pop\n      jump\t// out\n        /* \"#utility.yul\":7868:8349   */\n    tag_37:\n        /* \"#utility.yul\":8065:8069   */\n      0x00\n        /* \"#utility.yul\":8103:8105   */\n      0x20\n        /* \"#utility.yul\":8092:8101   */\n      dup3\n        /* \"#utility.yul\":8088:8106   */\n      add\n        /* \"#utility.yul\":8080:8106   */\n      swap1\n      pop\n        /* \"#utility.yul\":8152:8161   */\n      dup2\n        /* \"#utility.yul\":8146:8150   */\n      dup2\n        /* \"#utility.yul\":8142:8162   */\n      sub\n        /* \"#utility.yul\":8138:8139   */\n      0x00\n        /* \"#utility.yul\":8127:8136   */\n      dup4\n        /* \"#utility.yul\":8123:8140   */\n      add\n        /* \"#utility.yul\":8116:8163   */\n      mstore\n        /* \"#utility.yul\":8180:8342   */\n      tag_420\n        /* \"#utility.yul\":8337:8341   */\n      dup2\n        /* \"#utility.yul\":8328:8334   */\n      dup5\n        /* \"#utility.yul\":8180:8342   */\n      tag_305\n      jump\t// in\n    tag_420:\n        /* \"#utility.yul\":8172:8342   */\n      swap1\n      pop\n        /* \"#utility.yul\":7868:8349   */\n      swap3\n      swap2\n      pop\n      pop\n      jump\t// out\n        /* \"#utility.yul\":8436:8553   */\n    tag_307:\n        /* \"#utility.yul\":8545:8546   */\n      0x00\n        /* \"#utility.yul\":8542:8543   */\n      dup1\n        /* \"#utility.yul\":8535:8547   */\n      revert\n        /* \"#utility.yul\":8682:8804   */\n    tag_309:\n        /* \"#utility.yul\":8755:8779   */\n      tag_425\n        /* \"#utility.yul\":8773:8778   */\n      dup2\n        /* \"#utility.yul\":8755:8779   */\n      tag_285\n      jump\t// in\n    tag_425:\n        /* \"#utility.yul\":8748:8753   */\n      dup2\n        /* \"#utility.yul\":8745:8780   */\n      eq\n        /* \"#utility.yul\":8735:8798   */\n      tag_426\n      jumpi\n        /* \"#utility.yul\":8794:8795   */\n      0x00\n        /* \"#utility.yul\":8791:8792   */\n      dup1\n        /* \"#utility.yul\":8784:8796   */\n      revert\n        /* \"#utility.yul\":8735:8798   */\n    tag_426:\n        /* \"#utility.yul\":8682:8804   */\n      pop\n      jump\t// out\n        /* \"#utility.yul\":8810:8949   */\n    tag_310:\n        /* \"#utility.yul\":8856:8861   */\n      0x00\n        /* \"#utility.yul\":8894:8900   */\n      dup2\n        /* \"#utility.yul\":8881:8901   */\n      calldataload\n        /* \"#utility.yul\":8872:8901   */\n      swap1\n      pop\n        /* \"#utility.yul\":8910:8943   */\n      tag_428\n        /* \"#utility.yul\":8937:8942   */\n      dup2\n        /* \"#utility.yul\":8910:8943   */\n      tag_309\n      jump\t// in\n    tag_428:\n        /* \"#utility.yul\":8810:8949   */\n      swap3\n      swap2\n      pop\n      pop\n      jump\t// out\n        /* \"#utility.yul\":8955:9077   */\n    tag_311:\n        /* \"#utility.yul\":9028:9052   */\n      tag_430\n        /* \"#utility.yul\":9046:9051   */\n      dup2\n        /* \"#utility.yul\":9028:9052   */\n      tag_282\n      jump\t// in\n    tag_430:\n        /* \"#utility.yul\":9021:9026   */\n      dup2\n        /* \"#utility.yul\":9018:9053   */\n      eq\n        /* \"#utility.yul\":9008:9071   */\n      tag_431\n      jumpi\n        /* \"#utility.yul\":9067:9068   */\n      0x00\n        /* \"#utility.yul\":9064:9065   */\n      dup1\n        /* \"#utility.yul\":9057:9069   */\n      revert\n        /* \"#utility.yul\":9008:9071   */\n    tag_431:\n        /* \"#utility.yul\":8955:9077   */\n      pop\n      jump\t// out\n        /* \"#utility.yul\":9083:9222   */\n    tag_312:\n        /* \"#utility.yul\":9129:9134   */\n      0x00\n        /* \"#utility.yul\":9167:9173   */\n      dup2\n        /* \"#utility.yul\":9154:9174   */\n      calldataload\n        /* \"#utility.yul\":9145:9174   */\n      swap1\n      pop\n        /* \"#utility.yul\":9183:9216   */\n      tag_433\n        /* \"#utility.yul\":9210:9215   */\n      dup2\n        /* \"#utility.yul\":9183:9216   */\n      tag_311\n      jump\t// in\n    tag_433:\n        /* \"#utility.yul\":9083:9222   */\n      swap3\n      swap2\n      pop\n      pop\n      jump\t// out\n        /* \"#utility.yul\":9228:9847   */\n    tag_41:\n        /* \"#utility.yul\":9305:9311   */\n      0x00\n        /* \"#utility.yul\":9313:9319   */\n      dup1\n        /* \"#utility.yul\":9321:9327   */\n      0x00\n        /* \"#utility.yul\":9370:9372   */\n      0x60\n        /* \"#utility.yul\":9358:9367   */\n      dup5\n        /* \"#utility.yul\":9349:9356   */\n      dup7\n        /* \"#utility.yul\":9345:9368   */\n      sub\n        /* \"#utility.yul\":9341:9373   */\n      slt\n        /* \"#utility.yul\":9338:9457   */\n      iszero\n      tag_435\n      jumpi\n        /* \"#utility.yul\":9376:9455   */\n      tag_436\n      tag_307\n      jump\t// in\n    tag_436:\n        /* \"#utility.yul\":9338:9457   */\n    tag_435:\n        /* \"#utility.yul\":9496:9497   */\n      0x00\n        /* \"#utility.yul\":9521:9574   */\n      tag_437\n        /* \"#utility.yul\":9566:9573   */\n      dup7\n        /* \"#utility.yul\":9557:9563   */\n      dup3\n        /* \"#utility.yul\":9546:9555   */\n      dup8\n        /* \"#utility.yul\":9542:9564   */\n      add\n        /* \"#utility.yul\":9521:9574   */\n      tag_310\n      jump\t// in\n    tag_437:\n        /* \"#utility.yul\":9511:9574   */\n      swap4\n      pop\n        /* \"#utility.yul\":9467:9584   */\n      pop\n        /* \"#utility.yul\":9623:9625   */\n      0x20\n        /* \"#utility.yul\":9649:9702   */\n      tag_438\n        /* \"#utility.yul\":9694:9701   */\n      dup7\n        /* \"#utility.yul\":9685:9691   */\n      dup3\n        /* \"#utility.yul\":9674:9683   */\n      dup8\n        /* \"#utility.yul\":9670:9692   */\n      add\n        /* \"#utility.yul\":9649:9702   */\n      tag_312\n      jump\t// in\n    tag_438:\n        /* \"#utility.yul\":9639:9702   */\n      swap3\n      pop\n        /* \"#utility.yul\":9594:9712   */\n      pop\n        /* \"#utility.yul\":9751:9753   */\n      0x40\n        /* \"#utility.yul\":9777:9830   */\n      tag_439\n        /* \"#utility.yul\":9822:9829   */\n      dup7\n        /* \"#utility.yul\":9813:9819   */\n      dup3\n        /* \"#utility.yul\":9802:9811   */\n      dup8\n        /* \"#utility.yul\":9798:9820   */\n      add\n        /* \"#utility.yul\":9777:9830   */\n      tag_312\n      jump\t// in\n    tag_439:\n        /* \"#utility.yul\":9767:9830   */\n      swap2\n      pop\n        /* \"#utility.yul\":9722:9840   */\n      pop\n        /* \"#utility.yul\":9228:9847   */\n      swap3\n      pop\n      swap3\n      pop\n      swap3\n      jump\t// out\n        /* \"#utility.yul\":9853:10182   */\n    tag_46:\n        /* \"#utility.yul\":9912:9918   */\n      0x00\n        /* \"#utility.yul\":9961:9963   */\n      0x20\n        /* \"#utility.yul\":9949:9958   */\n      dup3\n        /* \"#utility.yul\":9940:9947   */\n      dup5\n        /* \"#utility.yul\":9936:9959   */\n      sub\n        /* \"#utility.yul\":9932:9964   */\n      slt\n        /* \"#utility.yul\":9929:10048   */\n      iszero\n      tag_441\n      jumpi\n        /* \"#utility.yul\":9967:10046   */\n      tag_442\n      tag_307\n      jump\t// in\n    tag_442:\n        /* \"#utility.yul\":9929:10048   */\n    tag_441:\n        /* \"#utility.yul\":10087:10088   */\n      0x00\n        /* \"#utility.yul\":10112:10165   */\n      tag_443\n        /* \"#utility.yul\":10157:10164   */\n      dup5\n        /* \"#utility.yul\":10148:10154   */\n      dup3\n        /* \"#utility.yul\":10137:10146   */\n      dup6\n        /* \"#utility.yul\":10133:10155   */\n      add\n        /* \"#utility.yul\":10112:10165   */\n      tag_312\n      jump\t// in\n    tag_443:\n        /* \"#utility.yul\":10102:10165   */\n      swap2\n      pop\n        /* \"#utility.yul\":10058:10175   */\n      pop\n        /* \"#utility.yul\":9853:10182   */\n      swap3\n      swap2\n      pop\n      pop\n      jump\t// out\n        /* \"#utility.yul\":10188:10337   */\n    tag_313:\n        /* \"#utility.yul\":10224:10231   */\n      0x00\n        /* \"#utility.yul\":10264:10330   */\n      0xffffffff00000000000000000000000000000000000000000000000000000000\n        /* \"#utility.yul\":10257:10262   */\n      dup3\n        /* \"#utility.yul\":10253:10331   */\n      and\n        /* \"#utility.yul\":10242:10331   */\n      swap1\n      pop\n        /* \"#utility.yul\":10188:10337   */\n      swap2\n      swap1\n      pop\n      jump\t// out\n        /* \"#utility.yul\":10343:10458   */\n    tag_314:\n        /* \"#utility.yul\":10428:10451   */\n      tag_446\n        /* \"#utility.yul\":10445:10450   */\n      dup2\n        /* \"#utility.yul\":10428:10451   */\n      tag_313\n      jump\t// in\n    tag_446:\n        /* \"#utility.yul\":10423:10426   */\n      dup3\n        /* \"#utility.yul\":10416:10452   */\n      mstore\n        /* \"#utility.yul\":10343:10458   */\n      pop\n      pop\n      jump\t// out\n        /* \"#utility.yul\":10464:10682   */\n    tag_53:\n        /* \"#utility.yul\":10555:10559   */\n      0x00\n        /* \"#utility.yul\":10593:10595   */\n      0x20\n        /* \"#utility.yul\":10582:10591   */\n      dup3\n        /* \"#utility.yul\":10578:10596   */\n      add\n        /* \"#utility.yul\":10570:10596   */\n      swap1\n      pop\n        /* \"#utility.yul\":10606:10675   */\n      tag_448\n        /* \"#utility.yul\":10672:10673   */\n      0x00\n        /* \"#utility.yul\":10661:10670   */\n      dup4\n        /* \"#utility.yul\":10657:10674   */\n      add\n        /* \"#utility.yul\":10648:10654   */\n      dup5\n        /* \"#utility.yul\":10606:10675   */\n      tag_314\n      jump\t// in\n    tag_448:\n        /* \"#utility.yul\":10464:10682   */\n      swap3\n      swap2\n      pop\n      pop\n      jump\t// out\n        /* \"#utility.yul\":10688:10806   */\n    tag_315:\n        /* \"#utility.yul\":10775:10799   */\n      tag_450\n        /* \"#utility.yul\":10793:10798   */\n      dup2\n        /* \"#utility.yul\":10775:10799   */\n      tag_282\n      jump\t// in\n    tag_450:\n        /* \"#utility.yul\":10770:10773   */\n      dup3\n        /* \"#utility.yul\":10763:10800   */\n      mstore\n        /* \"#utility.yul\":10688:10806   */\n      pop\n      pop\n      jump\t// out\n        /* \"#utility.yul\":10812:10930   */\n    tag_316:\n        /* \"#utility.yul\":10899:10923   */\n      tag_452\n        /* \"#utility.yul\":10917:10922   */\n      dup2\n        /* \"#utility.yul\":10899:10923   */\n      tag_285\n      jump\t// in\n    tag_452:\n        /* \"#utility.yul\":10894:10897   */\n      dup3\n        /* \"#utility.yul\":10887:10924   */\n      mstore\n        /* \"#utility.yul\":10812:10930   */\n      pop\n      pop\n      jump\t// out\n        /* \"#utility.yul\":10936:11078   */\n    tag_317:\n        /* \"#utility.yul\":11039:11071   */\n      tag_454\n        /* \"#utility.yul\":11065:11070   */\n      dup2\n        /* \"#utility.yul\":11039:11071   */\n      tag_287\n      jump\t// in\n    tag_454:\n        /* \"#utility.yul\":11034:11037   */\n      dup3\n        /* \"#utility.yul\":11027:11072   */\n      mstore\n        /* \"#utility.yul\":10936:11078   */\n      pop\n      pop\n      jump\t// out\n        /* \"#utility.yul\":11084:11239   */\n    tag_318:\n        /* \"#utility.yul\":11183:11232   */\n      tag_456\n        /* \"#utility.yul\":11226:11231   */\n      dup2\n        /* \"#utility.yul\":11183:11232   */\n      tag_291\n      jump\t// in\n    tag_456:\n        /* \"#utility.yul\":11178:11181   */\n      dup3\n        /* \"#utility.yul\":11171:11233   */\n      mstore\n        /* \"#utility.yul\":11084:11239   */\n      pop\n      pop\n      jump\t// out\n        /* \"#utility.yul\":11245:12219   */\n    tag_58:\n        /* \"#utility.yul\":11550:11554   */\n      0x00\n        /* \"#utility.yul\":11588:11591   */\n      0xe0\n        /* \"#utility.yul\":11577:11586   */\n      dup3\n        /* \"#utility.yul\":11573:11592   */\n      add\n        /* \"#utility.yul\":11565:11592   */\n      swap1\n      pop\n        /* \"#utility.yul\":11602:11673   */\n      tag_458\n        /* \"#utility.yul\":11670:11671   */\n      0x00\n        /* \"#utility.yul\":11659:11668   */\n      dup4\n        /* \"#utility.yul\":11655:11672   */\n      add\n        /* \"#utility.yul\":11646:11652   */\n      dup11\n        /* \"#utility.yul\":11602:11673   */\n      tag_315\n      jump\t// in\n    tag_458:\n        /* \"#utility.yul\":11683:11755   */\n      tag_459\n        /* \"#utility.yul\":11751:11753   */\n      0x20\n        /* \"#utility.yul\":11740:11749   */\n      dup4\n        /* \"#utility.yul\":11736:11754   */\n      add\n        /* \"#utility.yul\":11727:11733   */\n      dup10\n        /* \"#utility.yul\":11683:11755   */\n      tag_316\n      jump\t// in\n    tag_459:\n        /* \"#utility.yul\":11765:11837   */\n      tag_460\n        /* \"#utility.yul\":11833:11835   */\n      0x40\n        /* \"#utility.yul\":11822:11831   */\n      dup4\n        /* \"#utility.yul\":11818:11836   */\n      add\n        /* \"#utility.yul\":11809:11815   */\n      dup9\n        /* \"#utility.yul\":11765:11837   */\n      tag_315\n      jump\t// in\n    tag_460:\n        /* \"#utility.yul\":11847:11935   */\n      tag_461\n        /* \"#utility.yul\":11931:11933   */\n      0x60\n        /* \"#utility.yul\":11920:11929   */\n      dup4\n        /* \"#utility.yul\":11916:11934   */\n      add\n        /* \"#utility.yul\":11907:11913   */\n      dup8\n        /* \"#utility.yul\":11847:11935   */\n      tag_317\n      jump\t// in\n    tag_461:\n        /* \"#utility.yul\":11945:12034   */\n      tag_462\n        /* \"#utility.yul\":12029:12032   */\n      0x80\n        /* \"#utility.yul\":12018:12027   */\n      dup4\n        /* \"#utility.yul\":12014:12033   */\n      add\n        /* \"#utility.yul\":12005:12011   */\n      dup7\n        /* \"#utility.yul\":11945:12034   */\n      tag_317\n      jump\t// in\n    tag_462:\n        /* \"#utility.yul\":12044:12117   */\n      tag_463\n        /* \"#utility.yul\":12112:12115   */\n      0xa0\n        /* \"#utility.yul\":12101:12110   */\n      dup4\n        /* \"#utility.yul\":12097:12116   */\n      add\n        /* \"#utility.yul\":12088:12094   */\n      dup6\n        /* \"#utility.yul\":12044:12117   */\n      tag_315\n      jump\t// in\n    tag_463:\n        /* \"#utility.yul\":12127:12212   */\n      tag_464\n        /* \"#utility.yul\":12207:12210   */\n      0xc0\n        /* \"#utility.yul\":12196:12205   */\n      dup4\n        /* \"#utility.yul\":12192:12211   */\n      add\n        /* \"#utility.yul\":12183:12189   */\n      dup5\n        /* \"#utility.yul\":12127:12212   */\n      tag_318\n      jump\t// in\n    tag_464:\n        /* \"#utility.yul\":11245:12219   */\n      swap9\n      swap8\n      pop\n      pop\n      pop\n      pop\n      pop\n      pop\n      pop\n      pop\n      jump\t// out\n        /* \"#utility.yul\":12225:12699   */\n    tag_65:\n        /* \"#utility.yul\":12293:12299   */\n      0x00\n        /* \"#utility.yul\":12301:12307   */\n      dup1\n        /* \"#utility.yul\":12350:12352   */\n      0x40\n        /* \"#utility.yul\":12338:12347   */\n      dup4\n        /* \"#utility.yul\":12329:12336   */\n      dup6\n        /* \"#utility.yul\":12325:12348   */\n      sub\n        /* \"#utility.yul\":12321:12353   */\n      slt\n        /* \"#utility.yul\":12318:12437   */\n      iszero\n      tag_466\n      jumpi\n        /* \"#utility.yul\":12356:12435   */\n      tag_467\n      tag_307\n      jump\t// in\n    tag_467:\n        /* \"#utility.yul\":12318:12437   */\n    tag_466:\n        /* \"#utility.yul\":12476:12477   */\n      0x00\n        /* \"#utility.yul\":12501:12554   */\n      tag_468\n        /* \"#utility.yul\":12546:12553   */\n      dup6\n        /* \"#utility.yul\":12537:12543   */\n      dup3\n        /* \"#utility.yul\":12526:12535   */\n      dup7\n        /* \"#utility.yul\":12522:12544   */\n      add\n        /* \"#utility.yul\":12501:12554   */\n      tag_310\n      jump\t// in\n    tag_468:\n        /* \"#utility.yul\":12491:12554   */\n      swap3\n      pop\n        /* \"#utility.yul\":12447:12564   */\n      pop\n        /* \"#utility.yul\":12603:12605   */\n      0x20\n        /* \"#utility.yul\":12629:12682   */\n      tag_469\n        /* \"#utility.yul\":12674:12681   */\n      dup6\n        /* \"#utility.yul\":12665:12671   */\n      dup3\n        /* \"#utility.yul\":12654:12663   */\n      dup7\n        /* \"#utility.yul\":12650:12672   */\n      add\n        /* \"#utility.yul\":12629:12682   */\n      tag_312\n      jump\t// in\n    tag_469:\n        /* \"#utility.yul\":12619:12682   */\n      swap2\n      pop\n        /* \"#utility.yul\":12574:12692   */\n      pop\n        /* \"#utility.yul\":12225:12699   */\n      swap3\n      pop\n      swap3\n      swap1\n      pop\n      jump\t// out\n        /* \"#utility.yul\":12705:12791   */\n    tag_319:\n        /* \"#utility.yul\":12740:12747   */\n      0x00\n        /* \"#utility.yul\":12780:12784   */\n      0xff\n        /* \"#utility.yul\":12773:12778   */\n      dup3\n        /* \"#utility.yul\":12769:12785   */\n      and\n        /* \"#utility.yul\":12758:12785   */\n      swap1\n      pop\n        /* \"#utility.yul\":12705:12791   */\n      swap2\n      swap1\n      pop\n      jump\t// out\n        /* \"#utility.yul\":12797:12909   */\n    tag_320:\n        /* \"#utility.yul\":12880:12902   */\n      tag_472\n        /* \"#utility.yul\":12896:12901   */\n      dup2\n        /* \"#utility.yul\":12880:12902   */\n      tag_319\n      jump\t// in\n    tag_472:\n        /* \"#utility.yul\":12875:12878   */\n      dup3\n        /* \"#utility.yul\":12868:12903   */\n      mstore\n        /* \"#utility.yul\":12797:12909   */\n      pop\n      pop\n      jump\t// out\n        /* \"#utility.yul\":12915:13129   */\n    tag_75:\n        /* \"#utility.yul\":13004:13008   */\n      0x00\n        /* \"#utility.yul\":13042:13044   */\n      0x20\n        /* \"#utility.yul\":13031:13040   */\n      dup3\n        /* \"#utility.yul\":13027:13045   */\n      add\n        /* \"#utility.yul\":13019:13045   */\n      swap1\n      pop\n        /* \"#utility.yul\":13055:13122   */\n      tag_474\n        /* \"#utility.yul\":13119:13120   */\n      0x00\n        /* \"#utility.yul\":13108:13117   */\n      dup4\n        /* \"#utility.yul\":13104:13121   */\n      add\n        /* \"#utility.yul\":13095:13101   */\n      dup5\n        /* \"#utility.yul\":13055:13122   */\n      tag_320\n      jump\t// in\n    tag_474:\n        /* \"#utility.yul\":12915:13129   */\n      swap3\n      swap2\n      pop\n      pop\n      jump\t// out\n        /* \"#utility.yul\":13135:13357   */\n    tag_80:\n        /* \"#utility.yul\":13228:13232   */\n      0x00\n        /* \"#utility.yul\":13266:13268   */\n      0x20\n        /* \"#utility.yul\":13255:13264   */\n      dup3\n        /* \"#utility.yul\":13251:13269   */\n      add\n        /* \"#utility.yul\":13243:13269   */\n      swap1\n      pop\n        /* \"#utility.yul\":13279:13350   */\n      tag_476\n        /* \"#utility.yul\":13347:13348   */\n      0x00\n        /* \"#utility.yul\":13336:13345   */\n      dup4\n        /* \"#utility.yul\":13332:13349   */\n      add\n        /* \"#utility.yul\":13323:13329   */\n      dup5\n        /* \"#utility.yul\":13279:13350   */\n      tag_316\n      jump\t// in\n    tag_476:\n        /* \"#utility.yul\":13135:13357   */\n      swap3\n      swap2\n      pop\n      pop\n      jump\t// out\n        /* \"#utility.yul\":13363:13692   */\n    tag_84:\n        /* \"#utility.yul\":13422:13428   */\n      0x00\n        /* \"#utility.yul\":13471:13473   */\n      0x20\n        /* \"#utility.yul\":13459:13468   */\n      dup3\n        /* \"#utility.yul\":13450:13457   */\n      dup5\n        /* \"#utility.yul\":13446:13469   */\n      sub\n        /* \"#utility.yul\":13442:13474   */\n      slt\n        /* \"#utility.yul\":13439:13558   */\n      iszero\n      tag_478\n      jumpi\n        /* \"#utility.yul\":13477:13556   */\n      tag_479\n      tag_307\n      jump\t// in\n    tag_479:\n        /* \"#utility.yul\":13439:13558   */\n    tag_478:\n        /* \"#utility.yul\":13597:13598   */\n      0x00\n        /* \"#utility.yul\":13622:13675   */\n      tag_480\n        /* \"#utility.yul\":13667:13674   */\n      dup5\n        /* \"#utility.yul\":13658:13664   */\n      dup3\n        /* \"#utility.yul\":13647:13656   */\n      dup6\n        /* \"#utility.yul\":13643:13665   */\n      add\n        /* \"#utility.yul\":13622:13675   */\n      tag_310\n      jump\t// in\n    tag_480:\n        /* \"#utility.yul\":13612:13675   */\n      swap2\n      pop\n        /* \"#utility.yul\":13568:13685   */\n      pop\n        /* \"#utility.yul\":13363:13692   */\n      swap3\n      swap2\n      pop\n      pop\n      jump\t// out\n        /* \"#utility.yul\":13698:13878   */\n    tag_321:\n        /* \"#utility.yul\":13746:13823   */\n      0x4e487b7100000000000000000000000000000000000000000000000000000000\n        /* \"#utility.yul\":13743:13744   */\n      0x00\n        /* \"#utility.yul\":13736:13824   */\n      mstore\n        /* \"#utility.yul\":13843:13847   */\n      0x11\n        /* \"#utility.yul\":13840:13841   */\n      0x04\n        /* \"#utility.yul\":13833:13848   */\n      mstore\n        /* \"#utility.yul\":13867:13871   */\n      0x24\n        /* \"#utility.yul\":13864:13865   */\n      0x00\n        /* \"#utility.yul\":13857:13872   */\n      revert\n        /* \"#utility.yul\":13884:14189   */\n    tag_123:\n        /* \"#utility.yul\":13924:13927   */\n      0x00\n        /* \"#utility.yul\":13943:13963   */\n      tag_483\n        /* \"#utility.yul\":13961:13962   */\n      dup3\n        /* \"#utility.yul\":13943:13963   */\n      tag_282\n      jump\t// in\n    tag_483:\n        /* \"#utility.yul\":13938:13963   */\n      swap2\n      pop\n        /* \"#utility.yul\":13977:13997   */\n      tag_484\n        /* \"#utility.yul\":13995:13996   */\n      dup4\n        /* \"#utility.yul\":13977:13997   */\n      tag_282\n      jump\t// in\n    tag_484:\n        /* \"#utility.yul\":13972:13997   */\n      swap3\n      pop\n        /* \"#utility.yul\":14131:14132   */\n      dup3\n        /* \"#utility.yul\":14063:14129   */\n      0xffffffffffffffffffffffffffffffffffffffffffffffffffffffffffffffff\n        /* \"#utility.yul\":14059:14133   */\n      sub\n        /* \"#utility.yul\":14056:14057   */\n      dup3\n        /* \"#utility.yul\":14053:14134   */\n      gt\n        /* \"#utility.yul\":14050:14157   */\n      iszero\n      tag_485\n      jumpi\n        /* \"#utility.yul\":14137:14155   */\n      tag_486\n      tag_321\n      jump\t// in\n    tag_486:\n        /* \"#utility.yul\":14050:14157   */\n    tag_485:\n        /* \"#utility.yul\":14181:14182   */\n      dup3\n        /* \"#utility.yul\":14178:14179   */\n      dup3\n        /* \"#utility.yul\":14174:14183   */\n      add\n        /* \"#utility.yul\":14167:14183   */\n      swap1\n      pop\n        /* \"#utility.yul\":13884:14189   */\n      swap3\n      swap2\n      pop\n      pop\n      jump\t// out\n        /* \"#utility.yul\":14195:14428   */\n    tag_127:\n        /* \"#utility.yul\":14234:14237   */\n      0x00\n        /* \"#utility.yul\":14257:14281   */\n      tag_488\n        /* \"#utility.yul\":14275:14280   */\n      dup3\n        /* \"#utility.yul\":14257:14281   */\n      tag_282\n      jump\t// in\n    tag_488:\n        /* \"#utility.yul\":14248:14281   */\n      swap2\n      pop\n        /* \"#utility.yul\":14303:14369   */\n      0xffffffffffffffffffffffffffffffffffffffffffffffffffffffffffffffff\n        /* \"#utility.yul\":14296:14301   */\n      dup3\n        /* \"#utility.yul\":14293:14370   */\n      sub\n        /* \"#utility.yul\":14290:14393   */\n      tag_489\n      jumpi\n        /* \"#utility.yul\":14373:14391   */\n      tag_490\n      tag_321\n      jump\t// in\n    tag_490:\n        /* \"#utility.yul\":14290:14393   */\n    tag_489:\n        /* \"#utility.yul\":14420:14421   */\n      0x01\n        /* \"#utility.yul\":14413:14418   */\n      dup3\n        /* \"#utility.yul\":14409:14422   */\n      add\n        /* \"#utility.yul\":14402:14422   */\n      swap1\n      pop\n        /* \"#utility.yul\":14195:14428   */\n      swap2\n      swap1\n      pop\n      jump\t// out\n        /* \"#utility.yul\":14434:14614   */\n    tag_130:\n        /* \"#utility.yul\":14482:14559   */\n      0x4e487b7100000000000000000000000000000000000000000000000000000000\n        /* \"#utility.yul\":14479:14480   */\n      0x00\n        /* \"#utility.yul\":14472:14560   */\n      mstore\n        /* \"#utility.yul\":14579:14583   */\n      0x41\n        /* \"#utility.yul\":14576:14577   */\n      0x04\n        /* \"#utility.yul\":14569:14584   */\n      mstore\n        /* \"#utility.yul\":14603:14607   */\n      0x24\n        /* \"#utility.yul\":14600:14601   */\n      0x00\n        /* \"#utility.yul\":14593:14608   */\n      revert\n        /* \"#utility.yul\":14620:14800   */\n    tag_146:\n        /* \"#utility.yul\":14668:14745   */\n      0x4e487b7100000000000000000000000000000000000000000000000000000000\n        /* \"#utility.yul\":14665:14666   */\n      0x00\n        /* \"#utility.yul\":14658:14746   */\n      mstore\n        /* \"#utility.yul\":14765:14769   */\n      0x32\n        /* \"#utility.yul\":14762:14763   */\n      0x04\n        /* \"#utility.yul\":14755:14770   */\n      mstore\n        /* \"#utility.yul\":14789:14793   */\n      0x24\n        /* \"#utility.yul\":14786:14787   */\n      0x00\n        /* \"#utility.yul\":14779:14794   */\n      revert\n        /* \"#utility.yul\":14806:14975   */\n    tag_322:\n        /* \"#utility.yul\":14890:14901   */\n      0x00\n        /* \"#utility.yul\":14924:14930   */\n      dup3\n        /* \"#utility.yul\":14919:14922   */\n      dup3\n        /* \"#utility.yul\":14912:14931   */\n      mstore\n        /* \"#utility.yul\":14964:14968   */\n      0x20\n        /* \"#utility.yul\":14959:14962   */\n      dup3\n        /* \"#utility.yul\":14955:14969   */\n      add\n        /* \"#utility.yul\":14940:14969   */\n      swap1\n      pop\n        /* \"#utility.yul\":14806:14975   */\n      swap3\n      swap2\n      pop\n      pop\n      jump\t// out\n        /* \"#utility.yul\":14981:15162   */\n    tag_323:\n        /* \"#utility.yul\":15121:15154   */\n      0x5265656e7472616e637947756172643a207265656e7472616e742063616c6c00\n        /* \"#utility.yul\":15117:15118   */\n      0x00\n        /* \"#utility.yul\":15109:15115   */\n      dup3\n        /* \"#utility.yul\":15105:15119   */\n      add\n        /* \"#utility.yul\":15098:15155   */\n      mstore\n        /* \"#utility.yul\":14981:15162   */\n      pop\n      jump\t// out\n        /* \"#utility.yul\":15168:15534   */\n    tag_324:\n        /* \"#utility.yul\":15310:15313   */\n      0x00\n        /* \"#utility.yul\":15331:15398   */\n      tag_496\n        /* \"#utility.yul\":15395:15397   */\n      0x1f\n        /* \"#utility.yul\":15390:15393   */\n      dup4\n        /* \"#utility.yul\":15331:15398   */\n      tag_322\n      jump\t// in\n    tag_496:\n        /* \"#utility.yul\":15324:15398   */\n      swap2\n      pop\n        /* \"#utility.yul\":15407:15500   */\n      tag_497\n        /* \"#utility.yul\":15496:15499   */\n      dup3\n        /* \"#utility.yul\":15407:15500   */\n      tag_323\n      jump\t// in\n    tag_497:\n        /* \"#utility.yul\":15525:15527   */\n      0x20\n        /* \"#utility.yul\":15520:15523   */\n      dup3\n        /* \"#utility.yul\":15516:15528   */\n      add\n        /* \"#utility.yul\":15509:15528   */\n      swap1\n      pop\n        /* \"#utility.yul\":15168:15534   */\n      swap2\n      swap1\n      pop\n      jump\t// out\n        /* \"#utility.yul\":15540:15959   */\n    tag_152:\n        /* \"#utility.yul\":15706:15710   */\n      0x00\n        /* \"#utility.yul\":15744:15746   */\n      0x20\n        /* \"#utility.yul\":15733:15742   */\n      dup3\n        /* \"#utility.yul\":15729:15747   */\n      add\n        /* \"#utility.yul\":15721:15747   */\n      swap1\n      pop\n        /* \"#utility.yul\":15793:15802   */\n      dup2\n        /* \"#utility.yul\":15787:15791   */\n      dup2\n        /* \"#utility.yul\":15783:15803   */\n      sub\n        /* \"#utility.yul\":15779:15780   */\n      0x00\n        /* \"#utility.yul\":15768:15777   */\n      dup4\n        /* \"#utility.yul\":15764:15781   */\n      add\n        /* \"#utility.yul\":15757:15804   */\n      mstore\n        /* \"#utility.yul\":15821:15952   */\n      tag_499\n        /* \"#utility.yul\":15947:15951   */\n      dup2\n        /* \"#utility.yul\":15821:15952   */\n      tag_324\n      jump\t// in\n    tag_499:\n        /* \"#utility.yul\":15813:15952   */\n      swap1\n      pop\n        /* \"#utility.yul\":15540:15959   */\n      swap2\n      swap1\n      pop\n      jump\t// out\n        /* \"#utility.yul\":15965:16216   */\n    tag_325:\n        /* \"#utility.yul\":16105:16139   */\n      0x506c65617365207375626d6974207468652061736b696e672070726963652069\n        /* \"#utility.yul\":16101:16102   */\n      0x00\n        /* \"#utility.yul\":16093:16099   */\n      dup3\n        /* \"#utility.yul\":16089:16103   */\n      add\n        /* \"#utility.yul\":16082:16140   */\n      mstore\n        /* \"#utility.yul\":16174:16208   */\n      0x6e206f7264657220746f20636f6d706c65746520746865207075726368617365\n        /* \"#utility.yul\":16169:16171   */\n      0x20\n        /* \"#utility.yul\":16161:16167   */\n      dup3\n        /* \"#utility.yul\":16157:16172   */\n      add\n        /* \"#utility.yul\":16150:16209   */\n      mstore\n        /* \"#utility.yul\":15965:16216   */\n      pop\n      jump\t// out\n        /* \"#utility.yul\":16222:16588   */\n    tag_326:\n        /* \"#utility.yul\":16364:16367   */\n      0x00\n        /* \"#utility.yul\":16385:16452   */\n      tag_502\n        /* \"#utility.yul\":16449:16451   */\n      0x40\n        /* \"#utility.yul\":16444:16447   */\n      dup4\n        /* \"#utility.yul\":16385:16452   */\n      tag_322\n      jump\t// in\n    tag_502:\n        /* \"#utility.yul\":16378:16452   */\n      swap2\n      pop\n        /* \"#utility.yul\":16461:16554   */\n      tag_503\n        /* \"#utility.yul\":16550:16553   */\n      dup3\n        /* \"#utility.yul\":16461:16554   */\n      tag_325\n      jump\t// in\n    tag_503:\n        /* \"#utility.yul\":16579:16581   */\n      0x40\n        /* \"#utility.yul\":16574:16577   */\n      dup3\n        /* \"#utility.yul\":16570:16582   */\n      add\n        /* \"#utility.yul\":16563:16582   */\n      swap1\n      pop\n        /* \"#utility.yul\":16222:16588   */\n      swap2\n      swap1\n      pop\n      jump\t// out\n        /* \"#utility.yul\":16594:17013   */\n    tag_156:\n        /* \"#utility.yul\":16760:16764   */\n      0x00\n        /* \"#utility.yul\":16798:16800   */\n      0x20\n        /* \"#utility.yul\":16787:16796   */\n      dup3\n        /* \"#utility.yul\":16783:16801   */\n      add\n        /* \"#utility.yul\":16775:16801   */\n      swap1\n      pop\n        /* \"#utility.yul\":16847:16856   */\n      dup2\n        /* \"#utility.yul\":16841:16845   */\n      dup2\n        /* \"#utility.yul\":16837:16857   */\n      sub\n        /* \"#utility.yul\":16833:16834   */\n      0x00\n        /* \"#utility.yul\":16822:16831   */\n      dup4\n        /* \"#utility.yul\":16818:16835   */\n      add\n        /* \"#utility.yul\":16811:16858   */\n      mstore\n        /* \"#utility.yul\":16875:17006   */\n      tag_505\n        /* \"#utility.yul\":17001:17005   */\n      dup2\n        /* \"#utility.yul\":16875:17006   */\n      tag_326\n      jump\t// in\n    tag_505:\n        /* \"#utility.yul\":16867:17006   */\n      swap1\n      pop\n        /* \"#utility.yul\":16594:17013   */\n      swap2\n      swap1\n      pop\n      jump\t// out\n        /* \"#utility.yul\":17019:17153   */\n    tag_327:\n        /* \"#utility.yul\":17077:17086   */\n      0x00\n        /* \"#utility.yul\":17110:17147   */\n      tag_507\n        /* \"#utility.yul\":17141:17146   */\n      dup3\n        /* \"#utility.yul\":17110:17147   */\n      tag_296\n      jump\t// in\n    tag_507:\n        /* \"#utility.yul\":17097:17147   */\n      swap1\n      pop\n        /* \"#utility.yul\":17019:17153   */\n      swap2\n      swap1\n      pop\n      jump\t// out\n        /* \"#utility.yul\":17159:17306   */\n    tag_328:\n        /* \"#utility.yul\":17254:17299   */\n      tag_509\n        /* \"#utility.yul\":17293:17298   */\n      dup2\n        /* \"#utility.yul\":17254:17299   */\n      tag_327\n      jump\t// in\n    tag_509:\n        /* \"#utility.yul\":17249:17252   */\n      dup3\n        /* \"#utility.yul\":17242:17300   */\n      mstore\n        /* \"#utility.yul\":17159:17306   */\n      pop\n      pop\n      jump\t// out\n        /* \"#utility.yul\":17312:17770   */\n    tag_158:\n        /* \"#utility.yul\":17469:17473   */\n      0x00\n        /* \"#utility.yul\":17507:17509   */\n      0x60\n        /* \"#utility.yul\":17496:17505   */\n      dup3\n        /* \"#utility.yul\":17492:17510   */\n      add\n        /* \"#utility.yul\":17484:17510   */\n      swap1\n      pop\n        /* \"#utility.yul\":17520:17591   */\n      tag_511\n        /* \"#utility.yul\":17588:17589   */\n      0x00\n        /* \"#utility.yul\":17577:17586   */\n      dup4\n        /* \"#utility.yul\":17573:17590   */\n      add\n        /* \"#utility.yul\":17564:17570   */\n      dup7\n        /* \"#utility.yul\":17520:17591   */\n      tag_316\n      jump\t// in\n    tag_511:\n        /* \"#utility.yul\":17601:17681   */\n      tag_512\n        /* \"#utility.yul\":17677:17679   */\n      0x20\n        /* \"#utility.yul\":17666:17675   */\n      dup4\n        /* \"#utility.yul\":17662:17680   */\n      add\n        /* \"#utility.yul\":17653:17659   */\n      dup6\n        /* \"#utility.yul\":17601:17681   */\n      tag_328\n      jump\t// in\n    tag_512:\n        /* \"#utility.yul\":17691:17763   */\n      tag_513\n        /* \"#utility.yul\":17759:17761   */\n      0x40\n        /* \"#utility.yul\":17748:17757   */\n      dup4\n        /* \"#utility.yul\":17744:17762   */\n      add\n        /* \"#utility.yul\":17735:17741   */\n      dup5\n        /* \"#utility.yul\":17691:17763   */\n      tag_315\n      jump\t// in\n    tag_513:\n        /* \"#utility.yul\":17312:17770   */\n      swap5\n      swap4\n      pop\n      pop\n      pop\n      pop\n      jump\t// out\n        /* \"#utility.yul\":17776:17866   */\n    tag_329:\n        /* \"#utility.yul\":17810:17817   */\n      0x00\n        /* \"#utility.yul\":17853:17858   */\n      dup2\n        /* \"#utility.yul\":17846:17859   */\n      iszero\n        /* \"#utility.yul\":17839:17860   */\n      iszero\n        /* \"#utility.yul\":17828:17860   */\n      swap1\n      pop\n        /* \"#utility.yul\":17776:17866   */\n      swap2\n      swap1\n      pop\n      jump\t// out\n        /* \"#utility.yul\":17872:17988   */\n    tag_330:\n        /* \"#utility.yul\":17942:17963   */\n      tag_516\n        /* \"#utility.yul\":17957:17962   */\n      dup2\n        /* \"#utility.yul\":17942:17963   */\n      tag_329\n      jump\t// in\n    tag_516:\n        /* \"#utility.yul\":17935:17940   */\n      dup2\n        /* \"#utility.yul\":17932:17964   */\n      eq\n        /* \"#utility.yul\":17922:17982   */\n      tag_517\n      jumpi\n        /* \"#utility.yul\":17978:17979   */\n      0x00\n        /* \"#utility.yul\":17975:17976   */\n      dup1\n        /* \"#utility.yul\":17968:17980   */\n      revert\n        /* \"#utility.yul\":17922:17982   */\n    tag_517:\n        /* \"#utility.yul\":17872:17988   */\n      pop\n      jump\t// out\n        /* \"#utility.yul\":17994:18131   */\n    tag_331:\n        /* \"#utility.yul\":18048:18053   */\n      0x00\n        /* \"#utility.yul\":18079:18085   */\n      dup2\n        /* \"#utility.yul\":18073:18086   */\n      mload\n        /* \"#utility.yul\":18064:18086   */\n      swap1\n      pop\n        /* \"#utility.yul\":18095:18125   */\n      tag_519\n        /* \"#utility.yul\":18119:18124   */\n      dup2\n        /* \"#utility.yul\":18095:18125   */\n      tag_330\n      jump\t// in\n    tag_519:\n        /* \"#utility.yul\":17994:18131   */\n      swap3\n      swap2\n      pop\n      pop\n      jump\t// out\n        /* \"#utility.yul\":18137:18482   */\n    tag_162:\n        /* \"#utility.yul\":18204:18210   */\n      0x00\n        /* \"#utility.yul\":18253:18255   */\n      0x20\n        /* \"#utility.yul\":18241:18250   */\n      dup3\n        /* \"#utility.yul\":18232:18239   */\n      dup5\n        /* \"#utility.yul\":18228:18251   */\n      sub\n        /* \"#utility.yul\":18224:18256   */\n      slt\n        /* \"#utility.yul\":18221:18340   */\n      iszero\n      tag_521\n      jumpi\n        /* \"#utility.yul\":18259:18338   */\n      tag_522\n      tag_307\n      jump\t// in\n    tag_522:\n        /* \"#utility.yul\":18221:18340   */\n    tag_521:\n        /* \"#utility.yul\":18379:18380   */\n      0x00\n        /* \"#utility.yul\":18404:18465   */\n      tag_523\n        /* \"#utility.yul\":18457:18464   */\n      dup5\n        /* \"#utility.yul\":18448:18454   */\n      dup3\n        /* \"#utility.yul\":18437:18446   */\n      dup6\n        /* \"#utility.yul\":18433:18455   */\n      add\n        /* \"#utility.yul\":18404:18465   */\n      tag_331\n      jump\t// in\n    tag_523:\n        /* \"#utility.yul\":18394:18465   */\n      swap2\n      pop\n        /* \"#utility.yul\":18350:18475   */\n      pop\n        /* \"#utility.yul\":18137:18482   */\n      swap3\n      swap2\n      pop\n      pop\n      jump\t// out\n        /* \"#utility.yul\":18488:18930   */\n    tag_164:\n        /* \"#utility.yul\":18637:18641   */\n      0x00\n        /* \"#utility.yul\":18675:18677   */\n      0x60\n        /* \"#utility.yul\":18664:18673   */\n      dup3\n        /* \"#utility.yul\":18660:18678   */\n      add\n        /* \"#utility.yul\":18652:18678   */\n      swap1\n      pop\n        /* \"#utility.yul\":18688:18759   */\n      tag_525\n        /* \"#utility.yul\":18756:18757   */\n      0x00\n        /* \"#utility.yul\":18745:18754   */\n      dup4\n        /* \"#utility.yul\":18741:18758   */\n      add\n        /* \"#utility.yul\":18732:18738   */\n      dup7\n        /* \"#utility.yul\":18688:18759   */\n      tag_316\n      jump\t// in\n    tag_525:\n        /* \"#utility.yul\":18769:18841   */\n      tag_526\n        /* \"#utility.yul\":18837:18839   */\n      0x20\n        /* \"#utility.yul\":18826:18835   */\n      dup4\n        /* \"#utility.yul\":18822:18840   */\n      add\n        /* \"#utility.yul\":18813:18819   */\n      dup6\n        /* \"#utility.yul\":18769:18841   */\n      tag_316\n      jump\t// in\n    tag_526:\n        /* \"#utility.yul\":18851:18923   */\n      tag_527\n        /* \"#utility.yul\":18919:18921   */\n      0x40\n        /* \"#utility.yul\":18908:18917   */\n      dup4\n        /* \"#utility.yul\":18904:18922   */\n      add\n        /* \"#utility.yul\":18895:18901   */\n      dup5\n        /* \"#utility.yul\":18851:18923   */\n      tag_315\n      jump\t// in\n    tag_527:\n        /* \"#utility.yul\":18488:18930   */\n      swap5\n      swap4\n      pop\n      pop\n      pop\n      pop\n      jump\t// out\n        /* \"#utility.yul\":18936:19114   */\n    tag_332:\n        /* \"#utility.yul\":19076:19106   */\n      0x5072696365206d757374206265206174206c6561737420312077656900000000\n        /* \"#utility.yul\":19072:19073   */\n      0x00\n        /* \"#utility.yul\":19064:19070   */\n      dup3\n        /* \"#utility.yul\":19060:19074   */\n      add\n        /* \"#utility.yul\":19053:19107   */\n      mstore\n        /* \"#utility.yul\":18936:19114   */\n      pop\n      jump\t// out\n        /* \"#utility.yul\":19120:19486   */\n    tag_333:\n        /* \"#utility.yul\":19262:19265   */\n      0x00\n        /* \"#utility.yul\":19283:19350   */\n      tag_530\n        /* \"#utility.yul\":19347:19349   */\n      0x1c\n        /* \"#utility.yul\":19342:19345   */\n      dup4\n        /* \"#utility.yul\":19283:19350   */\n      tag_322\n      jump\t// in\n    tag_530:\n        /* \"#utility.yul\":19276:19350   */\n      swap2\n      pop\n        /* \"#utility.yul\":19359:19452   */\n      tag_531\n        /* \"#utility.yul\":19448:19451   */\n      dup3\n        /* \"#utility.yul\":19359:19452   */\n      tag_332\n      jump\t// in\n    tag_531:\n        /* \"#utility.yul\":19477:19479   */\n      0x20\n        /* \"#utility.yul\":19472:19475   */\n      dup3\n        /* \"#utility.yul\":19468:19480   */\n      add\n        /* \"#utility.yul\":19461:19480   */\n      swap1\n      pop\n        /* \"#utility.yul\":19120:19486   */\n      swap2\n      swap1\n      pop\n      jump\t// out\n        /* \"#utility.yul\":19492:19911   */\n    tag_184:\n        /* \"#utility.yul\":19658:19662   */\n      0x00\n        /* \"#utility.yul\":19696:19698   */\n      0x20\n        /* \"#utility.yul\":19685:19694   */\n      dup3\n        /* \"#utility.yul\":19681:19699   */\n      add\n        /* \"#utility.yul\":19673:19699   */\n      swap1\n      pop\n        /* \"#utility.yul\":19745:19754   */\n      dup2\n        /* \"#utility.yul\":19739:19743   */\n      dup2\n        /* \"#utility.yul\":19735:19755   */\n      sub\n        /* \"#utility.yul\":19731:19732   */\n      0x00\n        /* \"#utility.yul\":19720:19729   */\n      dup4\n        /* \"#utility.yul\":19716:19733   */\n      add\n        /* \"#utility.yul\":19709:19756   */\n      mstore\n        /* \"#utility.yul\":19773:19904   */\n      tag_533\n        /* \"#utility.yul\":19899:19903   */\n      dup2\n        /* \"#utility.yul\":19773:19904   */\n      tag_333\n      jump\t// in\n    tag_533:\n        /* \"#utility.yul\":19765:19904   */\n      swap1\n      pop\n        /* \"#utility.yul\":19492:19911   */\n      swap2\n      swap1\n      pop\n      jump\t// out\n        /* \"#utility.yul\":19917:20099   */\n    tag_334:\n        /* \"#utility.yul\":20057:20091   */\n      0x4f776e61626c653a2063616c6c6572206973206e6f7420746865206f776e6572\n        /* \"#utility.yul\":20053:20054   */\n      0x00\n        /* \"#utility.yul\":20045:20051   */\n      dup3\n        /* \"#utility.yul\":20041:20055   */\n      add\n        /* \"#utility.yul\":20034:20092   */\n      mstore\n        /* \"#utility.yul\":19917:20099   */\n      pop\n      jump\t// out\n        /* \"#utility.yul\":20105:20471   */\n    tag_335:\n        /* \"#utility.yul\":20247:20250   */\n      0x00\n        /* \"#utility.yul\":20268:20335   */\n      tag_536\n        /* \"#utility.yul\":20332:20334   */\n      0x20\n        /* \"#utility.yul\":20327:20330   */\n      dup4\n        /* \"#utility.yul\":20268:20335   */\n      tag_322\n      jump\t// in\n    tag_536:\n        /* \"#utility.yul\":20261:20335   */\n      swap2\n      pop\n        /* \"#utility.yul\":20344:20437   */\n      tag_537\n        /* \"#utility.yul\":20433:20436   */\n      dup3\n        /* \"#utility.yul\":20344:20437   */\n      tag_334\n      jump\t// in\n    tag_537:\n        /* \"#utility.yul\":20462:20464   */\n      0x20\n        /* \"#utility.yul\":20457:20460   */\n      dup3\n        /* \"#utility.yul\":20453:20465   */\n      add\n        /* \"#utility.yul\":20446:20465   */\n      swap1\n      pop\n        /* \"#utility.yul\":20105:20471   */\n      swap2\n      swap1\n      pop\n      jump\t// out\n        /* \"#utility.yul\":20477:20896   */\n    tag_202:\n        /* \"#utility.yul\":20643:20647   */\n      0x00\n        /* \"#utility.yul\":20681:20683   */\n      0x20\n        /* \"#utility.yul\":20670:20679   */\n      dup3\n        /* \"#utility.yul\":20666:20684   */\n      add\n        /* \"#utility.yul\":20658:20684   */\n      swap1\n      pop\n        /* \"#utility.yul\":20730:20739   */\n      dup2\n        /* \"#utility.yul\":20724:20728   */\n      dup2\n        /* \"#utility.yul\":20720:20740   */\n      sub\n        /* \"#utility.yul\":20716:20717   */\n      0x00\n        /* \"#utility.yul\":20705:20714   */\n      dup4\n        /* \"#utility.yul\":20701:20718   */\n      add\n        /* \"#utility.yul\":20694:20741   */\n      mstore\n        /* \"#utility.yul\":20758:20889   */\n      tag_539\n        /* \"#utility.yul\":20884:20888   */\n      dup2\n        /* \"#utility.yul\":20758:20889   */\n      tag_335\n      jump\t// in\n    tag_539:\n        /* \"#utility.yul\":20750:20889   */\n      swap1\n      pop\n        /* \"#utility.yul\":20477:20896   */\n      swap2\n      swap1\n      pop\n      jump\t// out\n        /* \"#utility.yul\":20902:21071   */\n    tag_336:\n        /* \"#utility.yul\":21042:21063   */\n      0x4173736574206e6f74207075626c697368656400000000000000000000000000\n        /* \"#utility.yul\":21038:21039   */\n      0x00\n        /* \"#utility.yul\":21030:21036   */\n      dup3\n        /* \"#utility.yul\":21026:21040   */\n      add\n        /* \"#utility.yul\":21019:21064   */\n      mstore\n        /* \"#utility.yul\":20902:21071   */\n      pop\n      jump\t// out\n        /* \"#utility.yul\":21077:21443   */\n    tag_337:\n        /* \"#utility.yul\":21219:21222   */\n      0x00\n        /* \"#utility.yul\":21240:21307   */\n      tag_542\n        /* \"#utility.yul\":21304:21306   */\n      0x13\n        /* \"#utility.yul\":21299:21302   */\n      dup4\n        /* \"#utility.yul\":21240:21307   */\n      tag_322\n      jump\t// in\n    tag_542:\n        /* \"#utility.yul\":21233:21307   */\n      swap2\n      pop\n        /* \"#utility.yul\":21316:21409   */\n      tag_543\n        /* \"#utility.yul\":21405:21408   */\n      dup3\n        /* \"#utility.yul\":21316:21409   */\n      tag_336\n      jump\t// in\n    tag_543:\n        /* \"#utility.yul\":21434:21436   */\n      0x20\n        /* \"#utility.yul\":21429:21432   */\n      dup3\n        /* \"#utility.yul\":21425:21437   */\n      add\n        /* \"#utility.yul\":21418:21437   */\n      swap1\n      pop\n        /* \"#utility.yul\":21077:21443   */\n      swap2\n      swap1\n      pop\n      jump\t// out\n        /* \"#utility.yul\":21449:21868   */\n    tag_222:\n        /* \"#utility.yul\":21615:21619   */\n      0x00\n        /* \"#utility.yul\":21653:21655   */\n      0x20\n        /* \"#utility.yul\":21642:21651   */\n      dup3\n        /* \"#utility.yul\":21638:21656   */\n      add\n        /* \"#utility.yul\":21630:21656   */\n      swap1\n      pop\n        /* \"#utility.yul\":21702:21711   */\n      dup2\n        /* \"#utility.yul\":21696:21700   */\n      dup2\n        /* \"#utility.yul\":21692:21712   */\n      sub\n        /* \"#utility.yul\":21688:21689   */\n      0x00\n        /* \"#utility.yul\":21677:21686   */\n      dup4\n        /* \"#utility.yul\":21673:21690   */\n      add\n        /* \"#utility.yul\":21666:21713   */\n      mstore\n        /* \"#utility.yul\":21730:21861   */\n      tag_545\n        /* \"#utility.yul\":21856:21860   */\n      dup2\n        /* \"#utility.yul\":21730:21861   */\n      tag_337\n      jump\t// in\n    tag_545:\n        /* \"#utility.yul\":21722:21861   */\n      swap1\n      pop\n        /* \"#utility.yul\":21449:21868   */\n      swap2\n      swap1\n      pop\n      jump\t// out\n        /* \"#utility.yul\":21874:22038   */\n    tag_338:\n        /* \"#utility.yul\":22014:22030   */\n      0x41737365742064656c6973746564000000000000000000000000000000000000\n        /* \"#utility.yul\":22010:22011   */\n      0x00\n        /* \"#utility.yul\":22002:22008   */\n      dup3\n        /* \"#utility.yul\":21998:22012   */\n      add\n        /* \"#utility.yul\":21991:22031   */\n      mstore\n        /* \"#utility.yul\":21874:22038   */\n      pop\n      jump\t// out\n        /* \"#utility.yul\":22044:22410   */\n    tag_339:\n        /* \"#utility.yul\":22186:22189   */\n      0x00\n        /* \"#utility.yul\":22207:22274   */\n      tag_548\n        /* \"#utility.yul\":22271:22273   */\n      0x0e\n        /* \"#utility.yul\":22266:22269   */\n      dup4\n        /* \"#utility.yul\":22207:22274   */\n      tag_322\n      jump\t// in\n    tag_548:\n        /* \"#utility.yul\":22200:22274   */\n      swap2\n      pop\n        /* \"#utility.yul\":22283:22376   */\n      tag_549\n        /* \"#utility.yul\":22372:22375   */\n      dup3\n        /* \"#utility.yul\":22283:22376   */\n      tag_338\n      jump\t// in\n    tag_549:\n        /* \"#utility.yul\":22401:22403   */\n      0x20\n        /* \"#utility.yul\":22396:22399   */\n      dup3\n        /* \"#utility.yul\":22392:22404   */\n      add\n        /* \"#utility.yul\":22385:22404   */\n      swap1\n      pop\n        /* \"#utility.yul\":22044:22410   */\n      swap2\n      swap1\n      pop\n      jump\t// out\n        /* \"#utility.yul\":22416:22835   */\n    tag_229:\n        /* \"#utility.yul\":22582:22586   */\n      0x00\n        /* \"#utility.yul\":22620:22622   */\n      0x20\n        /* \"#utility.yul\":22609:22618   */\n      dup3\n        /* \"#utility.yul\":22605:22623   */\n      add\n        /* \"#utility.yul\":22597:22623   */\n      swap1\n      pop\n        /* \"#utility.yul\":22669:22678   */\n      dup2\n        /* \"#utility.yul\":22663:22667   */\n      dup2\n        /* \"#utility.yul\":22659:22679   */\n      sub\n        /* \"#utility.yul\":22655:22656   */\n      0x00\n        /* \"#utility.yul\":22644:22653   */\n      dup4\n        /* \"#utility.yul\":22640:22657   */\n      add\n        /* \"#utility.yul\":22633:22680   */\n      mstore\n        /* \"#utility.yul\":22697:22828   */\n      tag_551\n        /* \"#utility.yul\":22823:22827   */\n      dup2\n        /* \"#utility.yul\":22697:22828   */\n      tag_339\n      jump\t// in\n    tag_551:\n        /* \"#utility.yul\":22689:22828   */\n      swap1\n      pop\n        /* \"#utility.yul\":22416:22835   */\n      swap2\n      swap1\n      pop\n      jump\t// out\n        /* \"#utility.yul\":22841:23006   */\n    tag_340:\n        /* \"#utility.yul\":22981:22998   */\n      0x496e76616c696420616464726573730000000000000000000000000000000000\n        /* \"#utility.yul\":22977:22978   */\n      0x00\n        /* \"#utility.yul\":22969:22975   */\n      dup3\n        /* \"#utility.yul\":22965:22979   */\n      add\n        /* \"#utility.yul\":22958:22999   */\n      mstore\n        /* \"#utility.yul\":22841:23006   */\n      pop\n      jump\t// out\n        /* \"#utility.yul\":23012:23378   */\n    tag_341:\n        /* \"#utility.yul\":23154:23157   */\n      0x00\n        /* \"#utility.yul\":23175:23242   */\n      tag_554\n        /* \"#utility.yul\":23239:23241   */\n      0x0f\n        /* \"#utility.yul\":23234:23237   */\n      dup4\n        /* \"#utility.yul\":23175:23242   */\n      tag_322\n      jump\t// in\n    tag_554:\n        /* \"#utility.yul\":23168:23242   */\n      swap2\n      pop\n        /* \"#utility.yul\":23251:23344   */\n      tag_555\n        /* \"#utility.yul\":23340:23343   */\n      dup3\n        /* \"#utility.yul\":23251:23344   */\n      tag_340\n      jump\t// in\n    tag_555:\n        /* \"#utility.yul\":23369:23371   */\n      0x20\n        /* \"#utility.yul\":23364:23367   */\n      dup3\n        /* \"#utility.yul\":23360:23372   */\n      add\n        /* \"#utility.yul\":23353:23372   */\n      swap1\n      pop\n        /* \"#utility.yul\":23012:23378   */\n      swap2\n      swap1\n      pop\n      jump\t// out\n        /* \"#utility.yul\":23384:23803   */\n    tag_232:\n        /* \"#utility.yul\":23550:23554   */\n      0x00\n        /* \"#utility.yul\":23588:23590   */\n      0x20\n        /* \"#utility.yul\":23577:23586   */\n      dup3\n        /* \"#utility.yul\":23573:23591   */\n      add\n        /* \"#utility.yul\":23565:23591   */\n      swap1\n      pop\n        /* \"#utility.yul\":23637:23646   */\n      dup2\n        /* \"#utility.yul\":23631:23635   */\n      dup2\n        /* \"#utility.yul\":23627:23647   */\n      sub\n        /* \"#utility.yul\":23623:23624   */\n      0x00\n        /* \"#utility.yul\":23612:23621   */\n      dup4\n        /* \"#utility.yul\":23608:23625   */\n      add\n        /* \"#utility.yul\":23601:23648   */\n      mstore\n        /* \"#utility.yul\":23665:23796   */\n      tag_557\n        /* \"#utility.yul\":23791:23795   */\n      dup2\n        /* \"#utility.yul\":23665:23796   */\n      tag_341\n      jump\t// in\n    tag_557:\n        /* \"#utility.yul\":23657:23796   */\n      swap1\n      pop\n        /* \"#utility.yul\":23384:23803   */\n      swap2\n      swap1\n      pop\n      jump\t// out\n        /* \"#utility.yul\":23809:23981   */\n    tag_342:\n        /* \"#utility.yul\":23949:23973   */\n      0x4f6e6c792073656c6c65722063616e2064656c69737400000000000000000000\n        /* \"#utility.yul\":23945:23946   */\n      0x00\n        /* \"#utility.yul\":23937:23943   */\n      dup3\n        /* \"#utility.yul\":23933:23947   */\n      add\n        /* \"#utility.yul\":23926:23974   */\n      mstore\n        /* \"#utility.yul\":23809:23981   */\n      pop\n      jump\t// out\n        /* \"#utility.yul\":23987:24353   */\n    tag_343:\n        /* \"#utility.yul\":24129:24132   */\n      0x00\n        /* \"#utility.yul\":24150:24217   */\n      tag_560\n        /* \"#utility.yul\":24214:24216   */\n      0x16\n        /* \"#utility.yul\":24209:24212   */\n      dup4\n        /* \"#utility.yul\":24150:24217   */\n      tag_322\n      jump\t// in\n    tag_560:\n        /* \"#utility.yul\":24143:24217   */\n      swap2\n      pop\n        /* \"#utility.yul\":24226:24319   */\n      tag_561\n        /* \"#utility.yul\":24315:24318   */\n      dup3\n        /* \"#utility.yul\":24226:24319   */\n      tag_342\n      jump\t// in\n    tag_561:\n        /* \"#utility.yul\":24344:24346   */\n      0x20\n        /* \"#utility.yul\":24339:24342   */\n      dup3\n        /* \"#utility.yul\":24335:24347   */\n      add\n        /* \"#utility.yul\":24328:24347   */\n      swap1\n      pop\n        /* \"#utility.yul\":23987:24353   */\n      swap2\n      swap1\n      pop\n      jump\t// out\n        /* \"#utility.yul\":24359:24778   */\n    tag_235:\n        /* \"#utility.yul\":24525:24529   */\n      0x00\n        /* \"#utility.yul\":24563:24565   */\n      0x20\n        /* \"#utility.yul\":24552:24561   */\n      dup3\n        /* \"#utility.yul\":24548:24566   */\n      add\n        /* \"#utility.yul\":24540:24566   */\n      swap1\n      pop\n        /* \"#utility.yul\":24612:24621   */\n      dup2\n        /* \"#utility.yul\":24606:24610   */\n      dup2\n        /* \"#utility.yul\":24602:24622   */\n      sub\n        /* \"#utility.yul\":24598:24599   */\n      0x00\n        /* \"#utility.yul\":24587:24596   */\n      dup4\n        /* \"#utility.yul\":24583:24600   */\n      add\n        /* \"#utility.yul\":24576:24623   */\n      mstore\n        /* \"#utility.yul\":24640:24771   */\n      tag_563\n        /* \"#utility.yul\":24766:24770   */\n      dup2\n        /* \"#utility.yul\":24640:24771   */\n      tag_343\n      jump\t// in\n    tag_563:\n        /* \"#utility.yul\":24632:24771   */\n      swap1\n      pop\n        /* \"#utility.yul\":24359:24778   */\n      swap2\n      swap1\n      pop\n      jump\t// out\n        /* \"#utility.yul\":24784:25226   */\n    tag_245:\n        /* \"#utility.yul\":24933:24937   */\n      0x00\n        /* \"#utility.yul\":24971:24973   */\n      0x60\n        /* \"#utility.yul\":24960:24969   */\n      dup3\n        /* \"#utility.yul\":24956:24974   */\n      add\n        /* \"#utility.yul\":24948:24974   */\n      swap1\n      pop\n        /* \"#utility.yul\":24984:25055   */\n      tag_565\n        /* \"#utility.yul\":25052:25053   */\n      0x00\n        /* \"#utility.yul\":25041:25050   */\n      dup4\n        /* \"#utility.yul\":25037:25054   */\n      add\n        /* \"#utility.yul\":25028:25034   */\n      dup7\n        /* \"#utility.yul\":24984:25055   */\n      tag_316\n      jump\t// in\n    tag_565:\n        /* \"#utility.yul\":25065:25137   */\n      tag_566\n        /* \"#utility.yul\":25133:25135   */\n      0x20\n        /* \"#utility.yul\":25122:25131   */\n      dup4\n        /* \"#utility.yul\":25118:25136   */\n      add\n        /* \"#utility.yul\":25109:25115   */\n      dup6\n        /* \"#utility.yul\":25065:25137   */\n      tag_315\n      jump\t// in\n    tag_566:\n        /* \"#utility.yul\":25147:25219   */\n      tag_567\n        /* \"#utility.yul\":25215:25217   */\n      0x40\n        /* \"#utility.yul\":25204:25213   */\n      dup4\n        /* \"#utility.yul\":25200:25218   */\n      add\n        /* \"#utility.yul\":25191:25197   */\n      dup5\n        /* \"#utility.yul\":25147:25219   */\n      tag_315\n      jump\t// in\n    tag_567:\n        /* \"#utility.yul\":24784:25226   */\n      swap5\n      swap4\n      pop\n      pop\n      pop\n      pop\n      jump\t// out\n        /* \"#utility.yul\":25232:25457   */\n    tag_344:\n        /* \"#utility.yul\":25372:25406   */\n      0x4f776e61626c653a206e6577206f776e657220697320746865207a65726f2061\n        /* \"#utility.yul\":25368:25369   */\n      0x00\n        /* \"#utility.yul\":25360:25366   */\n      dup3\n        /* \"#utility.yul\":25356:25370   */\n      add\n        /* \"#utility.yul\":25349:25407   */\n      mstore\n        /* \"#utility.yul\":25441:25449   */\n      0x6464726573730000000000000000000000000000000000000000000000000000\n        /* \"#utility.yul\":25436:25438   */\n      0x20\n        /* \"#utility.yul\":25428:25434   */\n      dup3\n        /* \"#utility.yul\":25424:25439   */\n      add\n        /* \"#utility.yul\":25417:25450   */\n      mstore\n        /* \"#utility.yul\":25232:25457   */\n      pop\n      jump\t// out\n        /* \"#utility.yul\":25463:25829   */\n    tag_345:\n        /* \"#utility.yul\":25605:25608   */\n      0x00\n        /* \"#utility.yul\":25626:25693   */\n      tag_570\n        /* \"#utility.yul\":25690:25692   */\n      0x26\n        /* \"#utility.yul\":25685:25688   */\n      dup4\n        /* \"#utility.yul\":25626:25693   */\n      tag_322\n      jump\t// in\n    tag_570:\n        /* \"#utility.yul\":25619:25693   */\n      swap2\n      pop\n        /* \"#utility.yul\":25702:25795   */\n      tag_571\n        /* \"#utility.yul\":25791:25794   */\n      dup3\n        /* \"#utility.yul\":25702:25795   */\n      tag_344\n      jump\t// in\n    tag_571:\n        /* \"#utility.yul\":25820:25822   */\n      0x40\n        /* \"#utility.yul\":25815:25818   */\n      dup3\n        /* \"#utility.yul\":25811:25823   */\n      add\n        /* \"#utility.yul\":25804:25823   */\n      swap1\n      pop\n        /* \"#utility.yul\":25463:25829   */\n      swap2\n      swap1\n      pop\n      jump\t// out\n        /* \"#utility.yul\":25835:26254   */\n    tag_260:\n        /* \"#utility.yul\":26001:26005   */\n      0x00\n        /* \"#utility.yul\":26039:26041   */\n      0x20\n        /* \"#utility.yul\":26028:26037   */\n      dup3\n        /* \"#utility.yul\":26024:26042   */\n      add\n        /* \"#utility.yul\":26016:26042   */\n      swap1\n      pop\n        /* \"#utility.yul\":26088:26097   */\n      dup2\n        /* \"#utility.yul\":26082:26086   */\n      dup2\n        /* \"#utility.yul\":26078:26098   */\n      sub\n        /* \"#utility.yul\":26074:26075   */\n      0x00\n        /* \"#utility.yul\":26063:26072   */\n      dup4\n        /* \"#utility.yul\":26059:26076   */\n      add\n        /* \"#utility.yul\":26052:26099   */\n      mstore\n        /* \"#utility.yul\":26116:26247   */\n      tag_573\n        /* \"#utility.yul\":26242:26246   */\n      dup2\n        /* \"#utility.yul\":26116:26247   */\n      tag_345\n      jump\t// in\n    tag_573:\n        /* \"#utility.yul\":26108:26247   */\n      swap1\n      pop\n        /* \"#utility.yul\":25835:26254   */\n      swap2\n      swap1\n      pop\n      jump\t// out\n        /* \"#utility.yul\":26260:26483   */\n    tag_346:\n        /* \"#utility.yul\":26400:26434   */\n      0x546865204e465420416464726573732073686f756c64206265206120636f6e74\n        /* \"#utility.yul\":26396:26397   */\n      0x00\n        /* \"#utility.yul\":26388:26394   */\n      dup3\n        /* \"#utility.yul\":26384:26398   */\n      add\n        /* \"#utility.yul\":26377:26435   */\n      mstore\n        /* \"#utility.yul\":26469:26475   */\n      0x7261637400000000000000000000000000000000000000000000000000000000\n        /* \"#utility.yul\":26464:26466   */\n      0x20\n        /* \"#utility.yul\":26456:26462   */\n      dup3\n        /* \"#utility.yul\":26452:26467   */\n      add\n        /* \"#utility.yul\":26445:26476   */\n      mstore\n        /* \"#utility.yul\":26260:26483   */\n      pop\n      jump\t// out\n        /* \"#utility.yul\":26489:26855   */\n    tag_347:\n        /* \"#utility.yul\":26631:26634   */\n      0x00\n        /* \"#utility.yul\":26652:26719   */\n      tag_576\n        /* \"#utility.yul\":26716:26718   */\n      0x24\n        /* \"#utility.yul\":26711:26714   */\n      dup4\n        /* \"#utility.yul\":26652:26719   */\n      tag_322\n      jump\t// in\n    tag_576:\n        /* \"#utility.yul\":26645:26719   */\n      swap2\n      pop\n        /* \"#utility.yul\":26728:26821   */\n      tag_577\n        /* \"#utility.yul\":26817:26820   */\n      dup3\n        /* \"#utility.yul\":26728:26821   */\n      tag_346\n      jump\t// in\n    tag_577:\n        /* \"#utility.yul\":26846:26848   */\n      0x40\n        /* \"#utility.yul\":26841:26844   */\n      dup3\n        /* \"#utility.yul\":26837:26849   */\n      add\n        /* \"#utility.yul\":26830:26849   */\n      swap1\n      pop\n        /* \"#utility.yul\":26489:26855   */\n      swap2\n      swap1\n      pop\n      jump\t// out\n        /* \"#utility.yul\":26861:27280   */\n    tag_271:\n        /* \"#utility.yul\":27027:27031   */\n      0x00\n        /* \"#utility.yul\":27065:27067   */\n      0x20\n        /* \"#utility.yul\":27054:27063   */\n      dup3\n        /* \"#utility.yul\":27050:27068   */\n      add\n        /* \"#utility.yul\":27042:27068   */\n      swap1\n      pop\n        /* \"#utility.yul\":27114:27123   */\n      dup2\n        /* \"#utility.yul\":27108:27112   */\n      dup2\n        /* \"#utility.yul\":27104:27124   */\n      sub\n        /* \"#utility.yul\":27100:27101   */\n      0x00\n        /* \"#utility.yul\":27089:27098   */\n      dup4\n        /* \"#utility.yul\":27085:27102   */\n      add\n        /* \"#utility.yul\":27078:27125   */\n      mstore\n        /* \"#utility.yul\":27142:27273   */\n      tag_579\n        /* \"#utility.yul\":27268:27272   */\n      dup2\n        /* \"#utility.yul\":27142:27273   */\n      tag_347\n      jump\t// in\n    tag_579:\n        /* \"#utility.yul\":27134:27273   */\n      swap1\n      pop\n        /* \"#utility.yul\":26861:27280   */\n      swap2\n      swap1\n      pop\n      jump\t// out\n        /* \"#utility.yul\":27286:27526   */\n    tag_348:\n        /* \"#utility.yul\":27426:27460   */\n      0x546865204e465420636f6e74726163742068617320616e20696e76616c696420\n        /* \"#utility.yul\":27422:27423   */\n      0x00\n        /* \"#utility.yul\":27414:27420   */\n      dup3\n        /* \"#utility.yul\":27410:27424   */\n      add\n        /* \"#utility.yul\":27403:27461   */\n      mstore\n        /* \"#utility.yul\":27495:27518   */\n      0x45524337323120696d706c656d656e746174696f6e0000000000000000000000\n        /* \"#utility.yul\":27490:27492   */\n      0x20\n        /* \"#utility.yul\":27482:27488   */\n      dup3\n        /* \"#utility.yul\":27478:27493   */\n      add\n        /* \"#utility.yul\":27471:27519   */\n      mstore\n        /* \"#utility.yul\":27286:27526   */\n      pop\n      jump\t// out\n        /* \"#utility.yul\":27532:27898   */\n    tag_349:\n        /* \"#utility.yul\":27674:27677   */\n      0x00\n        /* \"#utility.yul\":27695:27762   */\n      tag_582\n        /* \"#utility.yul\":27759:27761   */\n      0x35\n        /* \"#utility.yul\":27754:27757   */\n      dup4\n        /* \"#utility.yul\":27695:27762   */\n      tag_322\n      jump\t// in\n    tag_582:\n        /* \"#utility.yul\":27688:27762   */\n      swap2\n      pop\n        /* \"#utility.yul\":27771:27864   */\n      tag_583\n        /* \"#utility.yul\":27860:27863   */\n      dup3\n        /* \"#utility.yul\":27771:27864   */\n      tag_348\n      jump\t// in\n    tag_583:\n        /* \"#utility.yul\":27889:27891   */\n      0x40\n        /* \"#utility.yul\":27884:27887   */\n      dup3\n        /* \"#utility.yul\":27880:27892   */\n      add\n        /* \"#utility.yul\":27873:27892   */\n      swap1\n      pop\n        /* \"#utility.yul\":27532:27898   */\n      swap2\n      swap1\n      pop\n      jump\t// out\n        /* \"#utility.yul\":27904:28323   */\n    tag_278:\n        /* \"#utility.yul\":28070:28074   */\n      0x00\n        /* \"#utility.yul\":28108:28110   */\n      0x20\n        /* \"#utility.yul\":28097:28106   */\n      dup3\n        /* \"#utility.yul\":28093:28111   */\n      add\n        /* \"#utility.yul\":28085:28111   */\n      swap1\n      pop\n        /* \"#utility.yul\":28157:28166   */\n      dup2\n        /* \"#utility.yul\":28151:28155   */\n      dup2\n        /* \"#utility.yul\":28147:28167   */\n      sub\n        /* \"#utility.yul\":28143:28144   */\n      0x00\n        /* \"#utility.yul\":28132:28141   */\n      dup4\n        /* \"#utility.yul\":28128:28145   */\n      add\n        /* \"#utility.yul\":28121:28168   */\n      mstore\n        /* \"#utility.yul\":28185:28316   */\n      tag_585\n        /* \"#utility.yul\":28311:28315   */\n      dup2\n        /* \"#utility.yul\":28185:28316   */\n      tag_349\n      jump\t// in\n    tag_585:\n        /* \"#utility.yul\":28177:28316   */\n      swap1\n      pop\n        /* \"#utility.yul\":27904:28323   */\n      swap2\n      swap1\n      pop\n      jump\t// out\n\n    auxdata: 0xa26469706673582212206cf7cb70be597c70601005637e50fa8827d4186138899612f53979006892d9bd64736f6c634300080d0033\n}\n",
				"bytecode": {
					"linkReferences": {},
					"object": "60806040523480156200001157600080fd5b5060016000819055506200003a6200002e6200004060201b60201c565b6200004860201b60201c565b6200010e565b600033905090565b6000600b60009054906101000a900473ffffffffffffffffffffffffffffffffffffffff16905081600b60006101000a81548173ffffffffffffffffffffffffffffffffffffffff021916908373ffffffffffffffffffffffffffffffffffffffff1602179055508173ffffffffffffffffffffffffffffffffffffffff168173ffffffffffffffffffffffffffffffffffffffff167f8be0079c531659141344cd1fd0a4f28419497f9722a3daafe3b4186f6b6457e060405160405180910390a35050565b612c82806200011e6000396000f3fe6080604052600436106101095760003560e01c8063715018a611610095578063ad9a036911610064578063ad9a036914610346578063b7a60c7e1461036f578063c7be7a491461039a578063f2fde38b146103d7578063ff68fa6e1461040057610109565b8063715018a6146102b057806385a8b36c146102c75780638da5cb5b146102f257806392bf77dd1461031d57610109565b80632a45b250116100dc5780632a45b250146101b85780632b4c32be146101f5578063517bd4511461022057806358eb2df5146102515780635c80a4351461026d57610109565b80630f08efe01461010e57806315b81dc314610139578063202e37401461016457806321cf91ac1461018f575b600080fd5b34801561011a57600080fd5b50610123610443565b6040516101309190612018565b60405180910390f35b34801561014557600080fd5b5061014e6105b8565b60405161015b9190612092565b60405180910390f35b34801561017057600080fd5b506101796105de565b60405161018691906121ea565b60405180910390f35b34801561019b57600080fd5b506101b660048036038101906101b19190612269565b610960565b005b3480156101c457600080fd5b506101df60048036038101906101da91906122bc565b610c1a565b6040516101ec9190612018565b60405180910390f35b34801561020157600080fd5b5061020a610da8565b6040516102179190612324565b60405180910390f35b34801561022c57600080fd5b50610235610db3565b604051610248979695949392919061237b565b60405180910390f35b61026b60048036038101906102669190612269565b610e50565b005b34801561027957600080fd5b50610294600480360381019061028f91906123ea565b61118b565b6040516102a7979695949392919061237b565b60405180910390f35b3480156102bc57600080fd5b506102c5611247565b005b3480156102d357600080fd5b506102dc6112cf565b6040516102e99190612446565b60405180910390f35b3480156102fe57600080fd5b506103076112e2565b6040516103149190612461565b60405180910390f35b34801561032957600080fd5b50610344600480360381019061033f919061247c565b61130c565b005b34801561035257600080fd5b5061036d600480360381019061036891906123ea565b6113cc565b005b34801561037b57600080fd5b506103846118aa565b6040516103919190612446565b60405180910390f35b3480156103a657600080fd5b506103c160048036038101906103bc91906122bc565b6118bd565b6040516103ce9190612018565b60405180910390f35b3480156103e357600080fd5b506103fe60048036038101906103f9919061247c565b611a45565b005b34801561040c57600080fd5b50610427600480360381019061042291906122bc565b611b3c565b60405161043a979695949392919061237b565b60405180910390f35b61044b611e07565b60016040518060e0016040529081600082015481526020016001820160009054906101000a900473ffffffffffffffffffffffffffffffffffffffff1673ffffffffffffffffffffffffffffffffffffffff1673ffffffffffffffffffffffffffffffffffffffff168152602001600282015481526020016003820160009054906101000a900473ffffffffffffffffffffffffffffffffffffffff1673ffffffffffffffffffffffffffffffffffffffff1673ffffffffffffffffffffffffffffffffffffffff1681526020016004820160009054906101000a900473ffffffffffffffffffffffffffffffffffffffff1673ffffffffffffffffffffffffffffffffffffffff1673ffffffffffffffffffffffffffffffffffffffff168152602001600582015481526020016006820160009054906101000a900460ff16600181111561059d5761059c611f13565b5b60018111156105af576105ae611f13565b5b81525050905090565b600a60009054906101000a900473ffffffffffffffffffffffffffffffffffffffff1681565b606060006105ec600c611beb565b905060008060005b83811015610694573373ffffffffffffffffffffffffffffffffffffffff16600e600060018461062491906124d8565b815260200190815260200160002060040160009054906101000a900473ffffffffffffffffffffffffffffffffffffffff1673ffffffffffffffffffffffffffffffffffffffff16036106815760018361067e91906124d8565b92505b808061068c9061252e565b9150506105f4565b5060008267ffffffffffffffff8111156106b1576106b0612576565b5b6040519080825280602002602001820160405280156106ea57816020015b6106d7611e07565b8152602001906001900390816106cf5790505b50905060005b84811015610955573373ffffffffffffffffffffffffffffffffffffffff16600e600060018461072091906124d8565b815260200190815260200160002060040160009054906101000a900473ffffffffffffffffffffffffffffffffffffffff1673ffffffffffffffffffffffffffffffffffffffff1603610942576000600e600060018461078091906124d8565b81526020019081526020016000206000015490506000600e60008381526020019081526020016000209050806040518060e0016040529081600082015481526020016001820160009054906101000a900473ffffffffffffffffffffffffffffffffffffffff1673ffffffffffffffffffffffffffffffffffffffff1673ffffffffffffffffffffffffffffffffffffffff168152602001600282015481526020016003820160009054906101000a900473ffffffffffffffffffffffffffffffffffffffff1673ffffffffffffffffffffffffffffffffffffffff1673ffffffffffffffffffffffffffffffffffffffff1681526020016004820160009054906101000a900473ffffffffffffffffffffffffffffffffffffffff1673ffffffffffffffffffffffffffffffffffffffff1673ffffffffffffffffffffffffffffffffffffffff168152602001600582015481526020016006820160009054906101000a900460ff1660018111156108fc576108fb611f13565b5b600181111561090e5761090d611f13565b5b81525050848681518110610925576109246125a5565b5b602002602001018190525060018561093d91906124d8565b945050505b808061094d9061252e565b9150506106f0565b508094505050505090565b6002600054036109a5576040517f08c379a000000000000000000000000000000000000000000000000000000000815260040161099c90612631565b60405180910390fd5b60026000819055506000600e60008481526020019081526020016000206005015490506000600e6000858152602001908152602001600020600201549050818314610a25576040517f08c379a0000000000000000000000000000000000000000000000000000000008152600401610a1c906126c3565b60405180910390fd5b600a60009054906101000a900473ffffffffffffffffffffffffffffffffffffffff1673ffffffffffffffffffffffffffffffffffffffff166323b872dd33600e600088815260200190815260200160002060030160009054906101000a900473ffffffffffffffffffffffffffffffffffffffff16866040518463ffffffff1660e01b8152600401610aba93929190612704565b6020604051808303816000875af1158015610ad9573d6000803e3d6000fd5b505050506040513d601f19601f82011682018060405250810190610afd9190612773565b508473ffffffffffffffffffffffffffffffffffffffff166323b872dd3033846040518463ffffffff1660e01b8152600401610b3b939291906127a0565b600060405180830381600087803b158015610b5557600080fd5b505af1158015610b69573d6000803e3d6000fd5b5050505033600e600086815260200190815260200160002060040160006101000a81548173ffffffffffffffffffffffffffffffffffffffff021916908373ffffffffffffffffffffffffffffffffffffffff1602179055506000600e600086815260200190815260200160002060060160006101000a81548160ff02191690836001811115610bfc57610bfb611f13565b5b0217905550610c0b600d611bf9565b50506001600081905550505050565b610c22611e07565b6000600e60008481526020019081526020016000206040518060e0016040529081600082015481526020016001820160009054906101000a900473ffffffffffffffffffffffffffffffffffffffff1673ffffffffffffffffffffffffffffffffffffffff1673ffffffffffffffffffffffffffffffffffffffff168152602001600282015481526020016003820160009054906101000a900473ffffffffffffffffffffffffffffffffffffffff1673ffffffffffffffffffffffffffffffffffffffff1673ffffffffffffffffffffffffffffffffffffffff1681526020016004820160009054906101000a900473ffffffffffffffffffffffffffffffffffffffff1673ffffffffffffffffffffffffffffffffffffffff1673ffffffffffffffffffffffffffffffffffffffff168152602001600582015481526020016006820160009054906101000a900460ff166001811115610d8757610d86611f13565b5b6001811115610d9957610d98611f13565b5b81525050905080915050919050565b6380ac58cd60e01b81565b60018060000154908060010160009054906101000a900473ffffffffffffffffffffffffffffffffffffffff16908060020154908060030160009054906101000a900473ffffffffffffffffffffffffffffffffffffffff16908060040160009054906101000a900473ffffffffffffffffffffffffffffffffffffffff16908060050154908060060160009054906101000a900460ff16905087565b600260005403610e95576040517f08c379a0000000000000000000000000000000000000000000000000000000008152600401610e8c90612631565b60405180910390fd5b600260008190555060008111610ee0576040517f08c379a0000000000000000000000000000000000000000000000000000000008152600401610ed790612823565b60405180910390fd5b610eea600c611bf9565b6000610ef6600c611beb565b90506040518060e001604052808281526020018573ffffffffffffffffffffffffffffffffffffffff1681526020018481526020013373ffffffffffffffffffffffffffffffffffffffff168152602001600073ffffffffffffffffffffffffffffffffffffffff168152602001838152602001600180811115610f7d57610f7c611f13565b5b815250600e60008381526020019081526020016000206000820151816000015560208201518160010160006101000a81548173ffffffffffffffffffffffffffffffffffffffff021916908373ffffffffffffffffffffffffffffffffffffffff1602179055506040820151816002015560608201518160030160006101000a81548173ffffffffffffffffffffffffffffffffffffffff021916908373ffffffffffffffffffffffffffffffffffffffff16021790555060808201518160040160006101000a81548173ffffffffffffffffffffffffffffffffffffffff021916908373ffffffffffffffffffffffffffffffffffffffff16021790555060a0820151816005015560c08201518160060160006101000a81548160ff021916908360018111156110b1576110b0611f13565b5b02179055509050508373ffffffffffffffffffffffffffffffffffffffff166323b872dd3330866040518463ffffffff1660e01b81526004016110f6939291906127a0565b600060405180830381600087803b15801561111057600080fd5b505af1158015611124573d6000803e3d6000fd5b50505050828473ffffffffffffffffffffffffffffffffffffffff16827f2ad024d53a0dc50c130967f8d4941927ee087ea31394cebb2b9599d3706c9c0033600087604051611175939291906127a0565b60405180910390a4506001600081905550505050565b6009602052816000526040600020602052806000526040600020600091509150508060000154908060010160009054906101000a900473ffffffffffffffffffffffffffffffffffffffff16908060020154908060030160009054906101000a900473ffffffffffffffffffffffffffffffffffffffff16908060040160009054906101000a900473ffffffffffffffffffffffffffffffffffffffff16908060050154908060060160009054906101000a900460ff16905087565b61124f611c0f565b73ffffffffffffffffffffffffffffffffffffffff1661126d6112e2565b73ffffffffffffffffffffffffffffffffffffffff16146112c3576040517f08c379a00000000000000000000000000000000000000000000000000000000081526004016112ba9061288f565b60405180910390fd5b6112cd6000611c17565b565b600a60149054906101000a900460ff1681565b6000600b60009054906101000a900473ffffffffffffffffffffffffffffffffffffffff16905090565b611314611c0f565b73ffffffffffffffffffffffffffffffffffffffff166113326112e2565b73ffffffffffffffffffffffffffffffffffffffff1614611388576040517f08c379a000000000000000000000000000000000000000000000000000000000815260040161137f9061288f565b60405180910390fd5b80600a60006101000a81548173ffffffffffffffffffffffffffffffffffffffff021916908373ffffffffffffffffffffffffffffffffffffffff16021790555050565b6113d582611cdd565b60003390506000600e60008481526020019081526020016000206040518060e0016040529081600082015481526020016001820160009054906101000a900473ffffffffffffffffffffffffffffffffffffffff1673ffffffffffffffffffffffffffffffffffffffff1673ffffffffffffffffffffffffffffffffffffffff168152602001600282015481526020016003820160009054906101000a900473ffffffffffffffffffffffffffffffffffffffff1673ffffffffffffffffffffffffffffffffffffffff1673ffffffffffffffffffffffffffffffffffffffff1681526020016004820160009054906101000a900473ffffffffffffffffffffffffffffffffffffffff1673ffffffffffffffffffffffffffffffffffffffff1673ffffffffffffffffffffffffffffffffffffffff168152602001600582015481526020016006820160009054906101000a900460ff16600181111561153f5761153e611f13565b5b600181111561155157611550611f13565b5b815250509050600081600001510361159e576040517f08c379a0000000000000000000000000000000000000000000000000000000008152600401611595906128fb565b60405180910390fd5b600060018111156115b2576115b1611f13565b5b8160c0015160018111156115c9576115c8611f13565b5b03611609576040517f08c379a000000000000000000000000000000000000000000000000000000000815260040161160090612967565b60405180910390fd5b600081606001519050600073ffffffffffffffffffffffffffffffffffffffff168173ffffffffffffffffffffffffffffffffffffffff1603611681576040517f08c379a0000000000000000000000000000000000000000000000000000000008152600401611678906129d3565b60405180910390fd5b3373ffffffffffffffffffffffffffffffffffffffff168173ffffffffffffffffffffffffffffffffffffffff16146116ef576040517f08c379a00000000000000000000000000000000000000000000000000000000081526004016116e690612a3f565b60405180910390fd5b60008590508073ffffffffffffffffffffffffffffffffffffffff166342842e0e3084886040518463ffffffff1660e01b8152600401611731939291906127a0565b600060405180830381600087803b15801561174b57600080fd5b505af115801561175f573d6000803e3d6000fd5b5050505060008360c00190600181111561177c5761177b611f13565b5b908160018111156117905761178f611f13565b5b81525050600e60008681526020019081526020016000206000808201600090556001820160006101000a81549073ffffffffffffffffffffffffffffffffffffffff021916905560028201600090556003820160006101000a81549073ffffffffffffffffffffffffffffffffffffffff02191690556004820160006101000a81549073ffffffffffffffffffffffffffffffffffffffff021916905560058201600090556006820160006101000a81549060ff021916905550508373ffffffffffffffffffffffffffffffffffffffff16857fc141ecc59e1a451ee7d3128743c8ca3174955ce97262896269482d5f84b39a858886600001514260405161189a93929190612a5f565b60405180910390a3505050505050565b600a60159054906101000a900460ff1681565b6118c5611e07565b600e60008381526020019081526020016000206040518060e0016040529081600082015481526020016001820160009054906101000a900473ffffffffffffffffffffffffffffffffffffffff1673ffffffffffffffffffffffffffffffffffffffff1673ffffffffffffffffffffffffffffffffffffffff168152602001600282015481526020016003820160009054906101000a900473ffffffffffffffffffffffffffffffffffffffff1673ffffffffffffffffffffffffffffffffffffffff1673ffffffffffffffffffffffffffffffffffffffff1681526020016004820160009054906101000a900473ffffffffffffffffffffffffffffffffffffffff1673ffffffffffffffffffffffffffffffffffffffff1673ffffffffffffffffffffffffffffffffffffffff168152602001600582015481526020016006820160009054906101000a900460ff166001811115611a2857611a27611f13565b5b6001811115611a3a57611a39611f13565b5b815250509050919050565b611a4d611c0f565b73ffffffffffffffffffffffffffffffffffffffff16611a6b6112e2565b73ffffffffffffffffffffffffffffffffffffffff1614611ac1576040517f08c379a0000000000000000000000000000000000000000000000000000000008152600401611ab89061288f565b60405180910390fd5b600073ffffffffffffffffffffffffffffffffffffffff168173ffffffffffffffffffffffffffffffffffffffff1603611b30576040517f08c379a0000000000000000000000000000000000000000000000000000000008152600401611b2790612b08565b60405180910390fd5b611b3981611c17565b50565b60086020528060005260406000206000915090508060000154908060010160009054906101000a900473ffffffffffffffffffffffffffffffffffffffff16908060020154908060030160009054906101000a900473ffffffffffffffffffffffffffffffffffffffff16908060040160009054906101000a900473ffffffffffffffffffffffffffffffffffffffff16908060050154908060060160009054906101000a900460ff16905087565b600081600001549050919050565b6001816000016000828254019250508190555050565b600033905090565b6000600b60009054906101000a900473ffffffffffffffffffffffffffffffffffffffff16905081600b60006101000a81548173ffffffffffffffffffffffffffffffffffffffff021916908373ffffffffffffffffffffffffffffffffffffffff1602179055508173ffffffffffffffffffffffffffffffffffffffff168173ffffffffffffffffffffffffffffffffffffffff167f8be0079c531659141344cd1fd0a4f28419497f9722a3daafe3b4186f6b6457e060405160405180910390a35050565b611ce681611dee565b611d25576040517f08c379a0000000000000000000000000000000000000000000000000000000008152600401611d1c90612b9a565b60405180910390fd5b60008190508073ffffffffffffffffffffffffffffffffffffffff166301ffc9a76380ac58cd60e01b6040518263ffffffff1660e01b8152600401611d6a9190612324565b602060405180830381865afa158015611d87573d6000803e3d6000fd5b505050506040513d601f19601f82011682018060405250810190611dab9190612773565b611dea576040517f08c379a0000000000000000000000000000000000000000000000000000000008152600401611de190612c2c565b60405180910390fd5b5050565b600080823b905060008163ffffffff1611915050919050565b6040518060e0016040528060008152602001600073ffffffffffffffffffffffffffffffffffffffff16815260200160008152602001600073ffffffffffffffffffffffffffffffffffffffff168152602001600073ffffffffffffffffffffffffffffffffffffffff1681526020016000815260200160006001811115611e9257611e91611f13565b5b81525090565b6000819050919050565b611eab81611e98565b82525050565b600073ffffffffffffffffffffffffffffffffffffffff82169050919050565b6000611edc82611eb1565b9050919050565b611eec81611ed1565b82525050565b6000611efd82611eb1565b9050919050565b611f0d81611ef2565b82525050565b7f4e487b7100000000000000000000000000000000000000000000000000000000600052602160045260246000fd5b60028110611f5357611f52611f13565b5b50565b6000819050611f6482611f42565b919050565b6000611f7482611f56565b9050919050565b611f8481611f69565b82525050565b60e082016000820151611fa06000850182611ea2565b506020820151611fb36020850182611ee3565b506040820151611fc66040850182611ea2565b506060820151611fd96060850182611f04565b506080820151611fec6080850182611f04565b5060a0820151611fff60a0850182611ea2565b5060c082015161201260c0850182611f7b565b50505050565b600060e08201905061202d6000830184611f8a565b92915050565b6000819050919050565b600061205861205361204e84611eb1565b612033565b611eb1565b9050919050565b600061206a8261203d565b9050919050565b600061207c8261205f565b9050919050565b61208c81612071565b82525050565b60006020820190506120a76000830184612083565b92915050565b600081519050919050565b600082825260208201905092915050565b6000819050602082019050919050565b60e0820160008201516120ef6000850182611ea2565b5060208201516121026020850182611ee3565b5060408201516121156040850182611ea2565b5060608201516121286060850182611f04565b50608082015161213b6080850182611f04565b5060a082015161214e60a0850182611ea2565b5060c082015161216160c0850182611f7b565b50505050565b600061217383836120d9565b60e08301905092915050565b6000602082019050919050565b6000612197826120ad565b6121a181856120b8565b93506121ac836120c9565b8060005b838110156121dd5781516121c48882612167565b97506121cf8361217f565b9250506001810190506121b0565b5085935050505092915050565b60006020820190508181036000830152612204818461218c565b905092915050565b600080fd5b61221a81611ed1565b811461222557600080fd5b50565b60008135905061223781612211565b92915050565b61224681611e98565b811461225157600080fd5b50565b6000813590506122638161223d565b92915050565b6000806000606084860312156122825761228161220c565b5b600061229086828701612228565b93505060206122a186828701612254565b92505060406122b286828701612254565b9150509250925092565b6000602082840312156122d2576122d161220c565b5b60006122e084828501612254565b91505092915050565b60007fffffffff0000000000000000000000000000000000000000000000000000000082169050919050565b61231e816122e9565b82525050565b60006020820190506123396000830184612315565b92915050565b61234881611e98565b82525050565b61235781611ed1565b82525050565b61236681611ef2565b82525050565b61237581611f69565b82525050565b600060e082019050612390600083018a61233f565b61239d602083018961234e565b6123aa604083018861233f565b6123b7606083018761235d565b6123c4608083018661235d565b6123d160a083018561233f565b6123de60c083018461236c565b98975050505050505050565b600080604083850312156124015761240061220c565b5b600061240f85828601612228565b925050602061242085828601612254565b9150509250929050565b600060ff82169050919050565b6124408161242a565b82525050565b600060208201905061245b6000830184612437565b92915050565b6000602082019050612476600083018461234e565b92915050565b6000602082840312156124925761249161220c565b5b60006124a084828501612228565b91505092915050565b7f4e487b7100000000000000000000000000000000000000000000000000000000600052601160045260246000fd5b60006124e382611e98565b91506124ee83611e98565b9250827fffffffffffffffffffffffffffffffffffffffffffffffffffffffffffffffff03821115612523576125226124a9565b5b828201905092915050565b600061253982611e98565b91507fffffffffffffffffffffffffffffffffffffffffffffffffffffffffffffffff820361256b5761256a6124a9565b5b600182019050919050565b7f4e487b7100000000000000000000000000000000000000000000000000000000600052604160045260246000fd5b7f4e487b7100000000000000000000000000000000000000000000000000000000600052603260045260246000fd5b600082825260208201905092915050565b7f5265656e7472616e637947756172643a207265656e7472616e742063616c6c00600082015250565b600061261b601f836125d4565b9150612626826125e5565b602082019050919050565b6000602082019050818103600083015261264a8161260e565b9050919050565b7f506c65617365207375626d6974207468652061736b696e67207072696365206960008201527f6e206f7264657220746f20636f6d706c65746520746865207075726368617365602082015250565b60006126ad6040836125d4565b91506126b882612651565b604082019050919050565b600060208201905081810360008301526126dc816126a0565b9050919050565b60006126ee8261205f565b9050919050565b6126fe816126e3565b82525050565b6000606082019050612719600083018661234e565b61272660208301856126f5565b612733604083018461233f565b949350505050565b60008115159050919050565b6127508161273b565b811461275b57600080fd5b50565b60008151905061276d81612747565b92915050565b6000602082840312156127895761278861220c565b5b60006127978482850161275e565b91505092915050565b60006060820190506127b5600083018661234e565b6127c2602083018561234e565b6127cf604083018461233f565b949350505050565b7f5072696365206d757374206265206174206c6561737420312077656900000000600082015250565b600061280d601c836125d4565b9150612818826127d7565b602082019050919050565b6000602082019050818103600083015261283c81612800565b9050919050565b7f4f776e61626c653a2063616c6c6572206973206e6f7420746865206f776e6572600082015250565b60006128796020836125d4565b915061288482612843565b602082019050919050565b600060208201905081810360008301526128a88161286c565b9050919050565b7f4173736574206e6f74207075626c697368656400000000000000000000000000600082015250565b60006128e56013836125d4565b91506128f0826128af565b602082019050919050565b60006020820190508181036000830152612914816128d8565b9050919050565b7f41737365742064656c6973746564000000000000000000000000000000000000600082015250565b6000612951600e836125d4565b915061295c8261291b565b602082019050919050565b6000602082019050818103600083015261298081612944565b9050919050565b7f496e76616c696420616464726573730000000000000000000000000000000000600082015250565b60006129bd600f836125d4565b91506129c882612987565b602082019050919050565b600060208201905081810360008301526129ec816129b0565b9050919050565b7f4f6e6c792073656c6c65722063616e2064656c69737400000000000000000000600082015250565b6000612a296016836125d4565b9150612a34826129f3565b602082019050919050565b60006020820190508181036000830152612a5881612a1c565b9050919050565b6000606082019050612a74600083018661234e565b612a81602083018561233f565b612a8e604083018461233f565b949350505050565b7f4f776e61626c653a206e6577206f776e657220697320746865207a65726f206160008201527f6464726573730000000000000000000000000000000000000000000000000000602082015250565b6000612af26026836125d4565b9150612afd82612a96565b604082019050919050565b60006020820190508181036000830152612b2181612ae5565b9050919050565b7f546865204e465420416464726573732073686f756c64206265206120636f6e7460008201527f7261637400000000000000000000000000000000000000000000000000000000602082015250565b6000612b846024836125d4565b9150612b8f82612b28565b604082019050919050565b60006020820190508181036000830152612bb381612b77565b9050919050565b7f546865204e465420636f6e74726163742068617320616e20696e76616c69642060008201527f45524337323120696d706c656d656e746174696f6e0000000000000000000000602082015250565b6000612c166035836125d4565b9150612c2182612bba565b604082019050919050565b60006020820190508181036000830152612c4581612c09565b905091905056fea26469706673582212206cf7cb70be597c70601005637e50fa8827d4186138899612f53979006892d9bd64736f6c634300080d0033",
					"opcodes": "PUSH1 0x80 PUSH1 0x40 MSTORE CALLVALUE DUP1 ISZERO PUSH3 0x11 JUMPI PUSH1 0x0 DUP1 REVERT JUMPDEST POP PUSH1 0x1 PUSH1 0x0 DUP2 SWAP1 SSTORE POP PUSH3 0x3A PUSH3 0x2E PUSH3 0x40 PUSH1 0x20 SHL PUSH1 0x20 SHR JUMP JUMPDEST PUSH3 0x48 PUSH1 0x20 SHL PUSH1 0x20 SHR JUMP JUMPDEST PUSH3 0x10E JUMP JUMPDEST PUSH1 0x0 CALLER SWAP1 POP SWAP1 JUMP JUMPDEST PUSH1 0x0 PUSH1 0xB PUSH1 0x0 SWAP1 SLOAD SWAP1 PUSH2 0x100 EXP SWAP1 DIV PUSH20 0xFFFFFFFFFFFFFFFFFFFFFFFFFFFFFFFFFFFFFFFF AND SWAP1 POP DUP2 PUSH1 0xB PUSH1 0x0 PUSH2 0x100 EXP DUP2 SLOAD DUP2 PUSH20 0xFFFFFFFFFFFFFFFFFFFFFFFFFFFFFFFFFFFFFFFF MUL NOT AND SWAP1 DUP4 PUSH20 0xFFFFFFFFFFFFFFFFFFFFFFFFFFFFFFFFFFFFFFFF AND MUL OR SWAP1 SSTORE POP DUP2 PUSH20 0xFFFFFFFFFFFFFFFFFFFFFFFFFFFFFFFFFFFFFFFF AND DUP2 PUSH20 0xFFFFFFFFFFFFFFFFFFFFFFFFFFFFFFFFFFFFFFFF AND PUSH32 0x8BE0079C531659141344CD1FD0A4F28419497F9722A3DAAFE3B4186F6B6457E0 PUSH1 0x40 MLOAD PUSH1 0x40 MLOAD DUP1 SWAP2 SUB SWAP1 LOG3 POP POP JUMP JUMPDEST PUSH2 0x2C82 DUP1 PUSH3 0x11E PUSH1 0x0 CODECOPY PUSH1 0x0 RETURN INVALID PUSH1 0x80 PUSH1 0x40 MSTORE PUSH1 0x4 CALLDATASIZE LT PUSH2 0x109 JUMPI PUSH1 0x0 CALLDATALOAD PUSH1 0xE0 SHR DUP1 PUSH4 0x715018A6 GT PUSH2 0x95 JUMPI DUP1 PUSH4 0xAD9A0369 GT PUSH2 0x64 JUMPI DUP1 PUSH4 0xAD9A0369 EQ PUSH2 0x346 JUMPI DUP1 PUSH4 0xB7A60C7E EQ PUSH2 0x36F JUMPI DUP1 PUSH4 0xC7BE7A49 EQ PUSH2 0x39A JUMPI DUP1 PUSH4 0xF2FDE38B EQ PUSH2 0x3D7 JUMPI DUP1 PUSH4 0xFF68FA6E EQ PUSH2 0x400 JUMPI PUSH2 0x109 JUMP JUMPDEST DUP1 PUSH4 0x715018A6 EQ PUSH2 0x2B0 JUMPI DUP1 PUSH4 0x85A8B36C EQ PUSH2 0x2C7 JUMPI DUP1 PUSH4 0x8DA5CB5B EQ PUSH2 0x2F2 JUMPI DUP1 PUSH4 0x92BF77DD EQ PUSH2 0x31D JUMPI PUSH2 0x109 JUMP JUMPDEST DUP1 PUSH4 0x2A45B250 GT PUSH2 0xDC JUMPI DUP1 PUSH4 0x2A45B250 EQ PUSH2 0x1B8 JUMPI DUP1 PUSH4 0x2B4C32BE EQ PUSH2 0x1F5 JUMPI DUP1 PUSH4 0x517BD451 EQ PUSH2 0x220 JUMPI DUP1 PUSH4 0x58EB2DF5 EQ PUSH2 0x251 JUMPI DUP1 PUSH4 0x5C80A435 EQ PUSH2 0x26D JUMPI PUSH2 0x109 JUMP JUMPDEST DUP1 PUSH4 0xF08EFE0 EQ PUSH2 0x10E JUMPI DUP1 PUSH4 0x15B81DC3 EQ PUSH2 0x139 JUMPI DUP1 PUSH4 0x202E3740 EQ PUSH2 0x164 JUMPI DUP1 PUSH4 0x21CF91AC EQ PUSH2 0x18F JUMPI JUMPDEST PUSH1 0x0 DUP1 REVERT JUMPDEST CALLVALUE DUP1 ISZERO PUSH2 0x11A JUMPI PUSH1 0x0 DUP1 REVERT JUMPDEST POP PUSH2 0x123 PUSH2 0x443 JUMP JUMPDEST PUSH1 0x40 MLOAD PUSH2 0x130 SWAP2 SWAP1 PUSH2 0x2018 JUMP JUMPDEST PUSH1 0x40 MLOAD DUP1 SWAP2 SUB SWAP1 RETURN JUMPDEST CALLVALUE DUP1 ISZERO PUSH2 0x145 JUMPI PUSH1 0x0 DUP1 REVERT JUMPDEST POP PUSH2 0x14E PUSH2 0x5B8 JUMP JUMPDEST PUSH1 0x40 MLOAD PUSH2 0x15B SWAP2 SWAP1 PUSH2 0x2092 JUMP JUMPDEST PUSH1 0x40 MLOAD DUP1 SWAP2 SUB SWAP1 RETURN JUMPDEST CALLVALUE DUP1 ISZERO PUSH2 0x170 JUMPI PUSH1 0x0 DUP1 REVERT JUMPDEST POP PUSH2 0x179 PUSH2 0x5DE JUMP JUMPDEST PUSH1 0x40 MLOAD PUSH2 0x186 SWAP2 SWAP1 PUSH2 0x21EA JUMP JUMPDEST PUSH1 0x40 MLOAD DUP1 SWAP2 SUB SWAP1 RETURN JUMPDEST CALLVALUE DUP1 ISZERO PUSH2 0x19B JUMPI PUSH1 0x0 DUP1 REVERT JUMPDEST POP PUSH2 0x1B6 PUSH1 0x4 DUP1 CALLDATASIZE SUB DUP2 ADD SWAP1 PUSH2 0x1B1 SWAP2 SWAP1 PUSH2 0x2269 JUMP JUMPDEST PUSH2 0x960 JUMP JUMPDEST STOP JUMPDEST CALLVALUE DUP1 ISZERO PUSH2 0x1C4 JUMPI PUSH1 0x0 DUP1 REVERT JUMPDEST POP PUSH2 0x1DF PUSH1 0x4 DUP1 CALLDATASIZE SUB DUP2 ADD SWAP1 PUSH2 0x1DA SWAP2 SWAP1 PUSH2 0x22BC JUMP JUMPDEST PUSH2 0xC1A JUMP JUMPDEST PUSH1 0x40 MLOAD PUSH2 0x1EC SWAP2 SWAP1 PUSH2 0x2018 JUMP JUMPDEST PUSH1 0x40 MLOAD DUP1 SWAP2 SUB SWAP1 RETURN JUMPDEST CALLVALUE DUP1 ISZERO PUSH2 0x201 JUMPI PUSH1 0x0 DUP1 REVERT JUMPDEST POP PUSH2 0x20A PUSH2 0xDA8 JUMP JUMPDEST PUSH1 0x40 MLOAD PUSH2 0x217 SWAP2 SWAP1 PUSH2 0x2324 JUMP JUMPDEST PUSH1 0x40 MLOAD DUP1 SWAP2 SUB SWAP1 RETURN JUMPDEST CALLVALUE DUP1 ISZERO PUSH2 0x22C JUMPI PUSH1 0x0 DUP1 REVERT JUMPDEST POP PUSH2 0x235 PUSH2 0xDB3 JUMP JUMPDEST PUSH1 0x40 MLOAD PUSH2 0x248 SWAP8 SWAP7 SWAP6 SWAP5 SWAP4 SWAP3 SWAP2 SWAP1 PUSH2 0x237B JUMP JUMPDEST PUSH1 0x40 MLOAD DUP1 SWAP2 SUB SWAP1 RETURN JUMPDEST PUSH2 0x26B PUSH1 0x4 DUP1 CALLDATASIZE SUB DUP2 ADD SWAP1 PUSH2 0x266 SWAP2 SWAP1 PUSH2 0x2269 JUMP JUMPDEST PUSH2 0xE50 JUMP JUMPDEST STOP JUMPDEST CALLVALUE DUP1 ISZERO PUSH2 0x279 JUMPI PUSH1 0x0 DUP1 REVERT JUMPDEST POP PUSH2 0x294 PUSH1 0x4 DUP1 CALLDATASIZE SUB DUP2 ADD SWAP1 PUSH2 0x28F SWAP2 SWAP1 PUSH2 0x23EA JUMP JUMPDEST PUSH2 0x118B JUMP JUMPDEST PUSH1 0x40 MLOAD PUSH2 0x2A7 SWAP8 SWAP7 SWAP6 SWAP5 SWAP4 SWAP3 SWAP2 SWAP1 PUSH2 0x237B JUMP JUMPDEST PUSH1 0x40 MLOAD DUP1 SWAP2 SUB SWAP1 RETURN JUMPDEST CALLVALUE DUP1 ISZERO PUSH2 0x2BC JUMPI PUSH1 0x0 DUP1 REVERT JUMPDEST POP PUSH2 0x2C5 PUSH2 0x1247 JUMP JUMPDEST STOP JUMPDEST CALLVALUE DUP1 ISZERO PUSH2 0x2D3 JUMPI PUSH1 0x0 DUP1 REVERT JUMPDEST POP PUSH2 0x2DC PUSH2 0x12CF JUMP JUMPDEST PUSH1 0x40 MLOAD PUSH2 0x2E9 SWAP2 SWAP1 PUSH2 0x2446 JUMP JUMPDEST PUSH1 0x40 MLOAD DUP1 SWAP2 SUB SWAP1 RETURN JUMPDEST CALLVALUE DUP1 ISZERO PUSH2 0x2FE JUMPI PUSH1 0x0 DUP1 REVERT JUMPDEST POP PUSH2 0x307 PUSH2 0x12E2 JUMP JUMPDEST PUSH1 0x40 MLOAD PUSH2 0x314 SWAP2 SWAP1 PUSH2 0x2461 JUMP JUMPDEST PUSH1 0x40 MLOAD DUP1 SWAP2 SUB SWAP1 RETURN JUMPDEST CALLVALUE DUP1 ISZERO PUSH2 0x329 JUMPI PUSH1 0x0 DUP1 REVERT JUMPDEST POP PUSH2 0x344 PUSH1 0x4 DUP1 CALLDATASIZE SUB DUP2 ADD SWAP1 PUSH2 0x33F SWAP2 SWAP1 PUSH2 0x247C JUMP JUMPDEST PUSH2 0x130C JUMP JUMPDEST STOP JUMPDEST CALLVALUE DUP1 ISZERO PUSH2 0x352 JUMPI PUSH1 0x0 DUP1 REVERT JUMPDEST POP PUSH2 0x36D PUSH1 0x4 DUP1 CALLDATASIZE SUB DUP2 ADD SWAP1 PUSH2 0x368 SWAP2 SWAP1 PUSH2 0x23EA JUMP JUMPDEST PUSH2 0x13CC JUMP JUMPDEST STOP JUMPDEST CALLVALUE DUP1 ISZERO PUSH2 0x37B JUMPI PUSH1 0x0 DUP1 REVERT JUMPDEST POP PUSH2 0x384 PUSH2 0x18AA JUMP JUMPDEST PUSH1 0x40 MLOAD PUSH2 0x391 SWAP2 SWAP1 PUSH2 0x2446 JUMP JUMPDEST PUSH1 0x40 MLOAD DUP1 SWAP2 SUB SWAP1 RETURN JUMPDEST CALLVALUE DUP1 ISZERO PUSH2 0x3A6 JUMPI PUSH1 0x0 DUP1 REVERT JUMPDEST POP PUSH2 0x3C1 PUSH1 0x4 DUP1 CALLDATASIZE SUB DUP2 ADD SWAP1 PUSH2 0x3BC SWAP2 SWAP1 PUSH2 0x22BC JUMP JUMPDEST PUSH2 0x18BD JUMP JUMPDEST PUSH1 0x40 MLOAD PUSH2 0x3CE SWAP2 SWAP1 PUSH2 0x2018 JUMP JUMPDEST PUSH1 0x40 MLOAD DUP1 SWAP2 SUB SWAP1 RETURN JUMPDEST CALLVALUE DUP1 ISZERO PUSH2 0x3E3 JUMPI PUSH1 0x0 DUP1 REVERT JUMPDEST POP PUSH2 0x3FE PUSH1 0x4 DUP1 CALLDATASIZE SUB DUP2 ADD SWAP1 PUSH2 0x3F9 SWAP2 SWAP1 PUSH2 0x247C JUMP JUMPDEST PUSH2 0x1A45 JUMP JUMPDEST STOP JUMPDEST CALLVALUE DUP1 ISZERO PUSH2 0x40C JUMPI PUSH1 0x0 DUP1 REVERT JUMPDEST POP PUSH2 0x427 PUSH1 0x4 DUP1 CALLDATASIZE SUB DUP2 ADD SWAP1 PUSH2 0x422 SWAP2 SWAP1 PUSH2 0x22BC JUMP JUMPDEST PUSH2 0x1B3C JUMP JUMPDEST PUSH1 0x40 MLOAD PUSH2 0x43A SWAP8 SWAP7 SWAP6 SWAP5 SWAP4 SWAP3 SWAP2 SWAP1 PUSH2 0x237B JUMP JUMPDEST PUSH1 0x40 MLOAD DUP1 SWAP2 SUB SWAP1 RETURN JUMPDEST PUSH2 0x44B PUSH2 0x1E07 JUMP JUMPDEST PUSH1 0x1 PUSH1 0x40 MLOAD DUP1 PUSH1 0xE0 ADD PUSH1 0x40 MSTORE SWAP1 DUP2 PUSH1 0x0 DUP3 ADD SLOAD DUP2 MSTORE PUSH1 0x20 ADD PUSH1 0x1 DUP3 ADD PUSH1 0x0 SWAP1 SLOAD SWAP1 PUSH2 0x100 EXP SWAP1 DIV PUSH20 0xFFFFFFFFFFFFFFFFFFFFFFFFFFFFFFFFFFFFFFFF AND PUSH20 0xFFFFFFFFFFFFFFFFFFFFFFFFFFFFFFFFFFFFFFFF AND PUSH20 0xFFFFFFFFFFFFFFFFFFFFFFFFFFFFFFFFFFFFFFFF AND DUP2 MSTORE PUSH1 0x20 ADD PUSH1 0x2 DUP3 ADD SLOAD DUP2 MSTORE PUSH1 0x20 ADD PUSH1 0x3 DUP3 ADD PUSH1 0x0 SWAP1 SLOAD SWAP1 PUSH2 0x100 EXP SWAP1 DIV PUSH20 0xFFFFFFFFFFFFFFFFFFFFFFFFFFFFFFFFFFFFFFFF AND PUSH20 0xFFFFFFFFFFFFFFFFFFFFFFFFFFFFFFFFFFFFFFFF AND PUSH20 0xFFFFFFFFFFFFFFFFFFFFFFFFFFFFFFFFFFFFFFFF AND DUP2 MSTORE PUSH1 0x20 ADD PUSH1 0x4 DUP3 ADD PUSH1 0x0 SWAP1 SLOAD SWAP1 PUSH2 0x100 EXP SWAP1 DIV PUSH20 0xFFFFFFFFFFFFFFFFFFFFFFFFFFFFFFFFFFFFFFFF AND PUSH20 0xFFFFFFFFFFFFFFFFFFFFFFFFFFFFFFFFFFFFFFFF AND PUSH20 0xFFFFFFFFFFFFFFFFFFFFFFFFFFFFFFFFFFFFFFFF AND DUP2 MSTORE PUSH1 0x20 ADD PUSH1 0x5 DUP3 ADD SLOAD DUP2 MSTORE PUSH1 0x20 ADD PUSH1 0x6 DUP3 ADD PUSH1 0x0 SWAP1 SLOAD SWAP1 PUSH2 0x100 EXP SWAP1 DIV PUSH1 0xFF AND PUSH1 0x1 DUP2 GT ISZERO PUSH2 0x59D JUMPI PUSH2 0x59C PUSH2 0x1F13 JUMP JUMPDEST JUMPDEST PUSH1 0x1 DUP2 GT ISZERO PUSH2 0x5AF JUMPI PUSH2 0x5AE PUSH2 0x1F13 JUMP JUMPDEST JUMPDEST DUP2 MSTORE POP POP SWAP1 POP SWAP1 JUMP JUMPDEST PUSH1 0xA PUSH1 0x0 SWAP1 SLOAD SWAP1 PUSH2 0x100 EXP SWAP1 DIV PUSH20 0xFFFFFFFFFFFFFFFFFFFFFFFFFFFFFFFFFFFFFFFF AND DUP2 JUMP JUMPDEST PUSH1 0x60 PUSH1 0x0 PUSH2 0x5EC PUSH1 0xC PUSH2 0x1BEB JUMP JUMPDEST SWAP1 POP PUSH1 0x0 DUP1 PUSH1 0x0 JUMPDEST DUP4 DUP2 LT ISZERO PUSH2 0x694 JUMPI CALLER PUSH20 0xFFFFFFFFFFFFFFFFFFFFFFFFFFFFFFFFFFFFFFFF AND PUSH1 0xE PUSH1 0x0 PUSH1 0x1 DUP5 PUSH2 0x624 SWAP2 SWAP1 PUSH2 0x24D8 JUMP JUMPDEST DUP2 MSTORE PUSH1 0x20 ADD SWAP1 DUP2 MSTORE PUSH1 0x20 ADD PUSH1 0x0 KECCAK256 PUSH1 0x4 ADD PUSH1 0x0 SWAP1 SLOAD SWAP1 PUSH2 0x100 EXP SWAP1 DIV PUSH20 0xFFFFFFFFFFFFFFFFFFFFFFFFFFFFFFFFFFFFFFFF AND PUSH20 0xFFFFFFFFFFFFFFFFFFFFFFFFFFFFFFFFFFFFFFFF AND SUB PUSH2 0x681 JUMPI PUSH1 0x1 DUP4 PUSH2 0x67E SWAP2 SWAP1 PUSH2 0x24D8 JUMP JUMPDEST SWAP3 POP JUMPDEST DUP1 DUP1 PUSH2 0x68C SWAP1 PUSH2 0x252E JUMP JUMPDEST SWAP2 POP POP PUSH2 0x5F4 JUMP JUMPDEST POP PUSH1 0x0 DUP3 PUSH8 0xFFFFFFFFFFFFFFFF DUP2 GT ISZERO PUSH2 0x6B1 JUMPI PUSH2 0x6B0 PUSH2 0x2576 JUMP JUMPDEST JUMPDEST PUSH1 0x40 MLOAD SWAP1 DUP1 DUP3 MSTORE DUP1 PUSH1 0x20 MUL PUSH1 0x20 ADD DUP3 ADD PUSH1 0x40 MSTORE DUP1 ISZERO PUSH2 0x6EA JUMPI DUP2 PUSH1 0x20 ADD JUMPDEST PUSH2 0x6D7 PUSH2 0x1E07 JUMP JUMPDEST DUP2 MSTORE PUSH1 0x20 ADD SWAP1 PUSH1 0x1 SWAP1 SUB SWAP1 DUP2 PUSH2 0x6CF JUMPI SWAP1 POP JUMPDEST POP SWAP1 POP PUSH1 0x0 JUMPDEST DUP5 DUP2 LT ISZERO PUSH2 0x955 JUMPI CALLER PUSH20 0xFFFFFFFFFFFFFFFFFFFFFFFFFFFFFFFFFFFFFFFF AND PUSH1 0xE PUSH1 0x0 PUSH1 0x1 DUP5 PUSH2 0x720 SWAP2 SWAP1 PUSH2 0x24D8 JUMP JUMPDEST DUP2 MSTORE PUSH1 0x20 ADD SWAP1 DUP2 MSTORE PUSH1 0x20 ADD PUSH1 0x0 KECCAK256 PUSH1 0x4 ADD PUSH1 0x0 SWAP1 SLOAD SWAP1 PUSH2 0x100 EXP SWAP1 DIV PUSH20 0xFFFFFFFFFFFFFFFFFFFFFFFFFFFFFFFFFFFFFFFF AND PUSH20 0xFFFFFFFFFFFFFFFFFFFFFFFFFFFFFFFFFFFFFFFF AND SUB PUSH2 0x942 JUMPI PUSH1 0x0 PUSH1 0xE PUSH1 0x0 PUSH1 0x1 DUP5 PUSH2 0x780 SWAP2 SWAP1 PUSH2 0x24D8 JUMP JUMPDEST DUP2 MSTORE PUSH1 0x20 ADD SWAP1 DUP2 MSTORE PUSH1 0x20 ADD PUSH1 0x0 KECCAK256 PUSH1 0x0 ADD SLOAD SWAP1 POP PUSH1 0x0 PUSH1 0xE PUSH1 0x0 DUP4 DUP2 MSTORE PUSH1 0x20 ADD SWAP1 DUP2 MSTORE PUSH1 0x20 ADD PUSH1 0x0 KECCAK256 SWAP1 POP DUP1 PUSH1 0x40 MLOAD DUP1 PUSH1 0xE0 ADD PUSH1 0x40 MSTORE SWAP1 DUP2 PUSH1 0x0 DUP3 ADD SLOAD DUP2 MSTORE PUSH1 0x20 ADD PUSH1 0x1 DUP3 ADD PUSH1 0x0 SWAP1 SLOAD SWAP1 PUSH2 0x100 EXP SWAP1 DIV PUSH20 0xFFFFFFFFFFFFFFFFFFFFFFFFFFFFFFFFFFFFFFFF AND PUSH20 0xFFFFFFFFFFFFFFFFFFFFFFFFFFFFFFFFFFFFFFFF AND PUSH20 0xFFFFFFFFFFFFFFFFFFFFFFFFFFFFFFFFFFFFFFFF AND DUP2 MSTORE PUSH1 0x20 ADD PUSH1 0x2 DUP3 ADD SLOAD DUP2 MSTORE PUSH1 0x20 ADD PUSH1 0x3 DUP3 ADD PUSH1 0x0 SWAP1 SLOAD SWAP1 PUSH2 0x100 EXP SWAP1 DIV PUSH20 0xFFFFFFFFFFFFFFFFFFFFFFFFFFFFFFFFFFFFFFFF AND PUSH20 0xFFFFFFFFFFFFFFFFFFFFFFFFFFFFFFFFFFFFFFFF AND PUSH20 0xFFFFFFFFFFFFFFFFFFFFFFFFFFFFFFFFFFFFFFFF AND DUP2 MSTORE PUSH1 0x20 ADD PUSH1 0x4 DUP3 ADD PUSH1 0x0 SWAP1 SLOAD SWAP1 PUSH2 0x100 EXP SWAP1 DIV PUSH20 0xFFFFFFFFFFFFFFFFFFFFFFFFFFFFFFFFFFFFFFFF AND PUSH20 0xFFFFFFFFFFFFFFFFFFFFFFFFFFFFFFFFFFFFFFFF AND PUSH20 0xFFFFFFFFFFFFFFFFFFFFFFFFFFFFFFFFFFFFFFFF AND DUP2 MSTORE PUSH1 0x20 ADD PUSH1 0x5 DUP3 ADD SLOAD DUP2 MSTORE PUSH1 0x20 ADD PUSH1 0x6 DUP3 ADD PUSH1 0x0 SWAP1 SLOAD SWAP1 PUSH2 0x100 EXP SWAP1 DIV PUSH1 0xFF AND PUSH1 0x1 DUP2 GT ISZERO PUSH2 0x8FC JUMPI PUSH2 0x8FB PUSH2 0x1F13 JUMP JUMPDEST JUMPDEST PUSH1 0x1 DUP2 GT ISZERO PUSH2 0x90E JUMPI PUSH2 0x90D PUSH2 0x1F13 JUMP JUMPDEST JUMPDEST DUP2 MSTORE POP POP DUP5 DUP7 DUP2 MLOAD DUP2 LT PUSH2 0x925 JUMPI PUSH2 0x924 PUSH2 0x25A5 JUMP JUMPDEST JUMPDEST PUSH1 0x20 MUL PUSH1 0x20 ADD ADD DUP2 SWAP1 MSTORE POP PUSH1 0x1 DUP6 PUSH2 0x93D SWAP2 SWAP1 PUSH2 0x24D8 JUMP JUMPDEST SWAP5 POP POP POP JUMPDEST DUP1 DUP1 PUSH2 0x94D SWAP1 PUSH2 0x252E JUMP JUMPDEST SWAP2 POP POP PUSH2 0x6F0 JUMP JUMPDEST POP DUP1 SWAP5 POP POP POP POP POP SWAP1 JUMP JUMPDEST PUSH1 0x2 PUSH1 0x0 SLOAD SUB PUSH2 0x9A5 JUMPI PUSH1 0x40 MLOAD PUSH32 0x8C379A000000000000000000000000000000000000000000000000000000000 DUP2 MSTORE PUSH1 0x4 ADD PUSH2 0x99C SWAP1 PUSH2 0x2631 JUMP JUMPDEST PUSH1 0x40 MLOAD DUP1 SWAP2 SUB SWAP1 REVERT JUMPDEST PUSH1 0x2 PUSH1 0x0 DUP2 SWAP1 SSTORE POP PUSH1 0x0 PUSH1 0xE PUSH1 0x0 DUP5 DUP2 MSTORE PUSH1 0x20 ADD SWAP1 DUP2 MSTORE PUSH1 0x20 ADD PUSH1 0x0 KECCAK256 PUSH1 0x5 ADD SLOAD SWAP1 POP PUSH1 0x0 PUSH1 0xE PUSH1 0x0 DUP6 DUP2 MSTORE PUSH1 0x20 ADD SWAP1 DUP2 MSTORE PUSH1 0x20 ADD PUSH1 0x0 KECCAK256 PUSH1 0x2 ADD SLOAD SWAP1 POP DUP2 DUP4 EQ PUSH2 0xA25 JUMPI PUSH1 0x40 MLOAD PUSH32 0x8C379A000000000000000000000000000000000000000000000000000000000 DUP2 MSTORE PUSH1 0x4 ADD PUSH2 0xA1C SWAP1 PUSH2 0x26C3 JUMP JUMPDEST PUSH1 0x40 MLOAD DUP1 SWAP2 SUB SWAP1 REVERT JUMPDEST PUSH1 0xA PUSH1 0x0 SWAP1 SLOAD SWAP1 PUSH2 0x100 EXP SWAP1 DIV PUSH20 0xFFFFFFFFFFFFFFFFFFFFFFFFFFFFFFFFFFFFFFFF AND PUSH20 0xFFFFFFFFFFFFFFFFFFFFFFFFFFFFFFFFFFFFFFFF AND PUSH4 0x23B872DD CALLER PUSH1 0xE PUSH1 0x0 DUP9 DUP2 MSTORE PUSH1 0x20 ADD SWAP1 DUP2 MSTORE PUSH1 0x20 ADD PUSH1 0x0 KECCAK256 PUSH1 0x3 ADD PUSH1 0x0 SWAP1 SLOAD SWAP1 PUSH2 0x100 EXP SWAP1 DIV PUSH20 0xFFFFFFFFFFFFFFFFFFFFFFFFFFFFFFFFFFFFFFFF AND DUP7 PUSH1 0x40 MLOAD DUP5 PUSH4 0xFFFFFFFF AND PUSH1 0xE0 SHL DUP2 MSTORE PUSH1 0x4 ADD PUSH2 0xABA SWAP4 SWAP3 SWAP2 SWAP1 PUSH2 0x2704 JUMP JUMPDEST PUSH1 0x20 PUSH1 0x40 MLOAD DUP1 DUP4 SUB DUP2 PUSH1 0x0 DUP8 GAS CALL ISZERO DUP1 ISZERO PUSH2 0xAD9 JUMPI RETURNDATASIZE PUSH1 0x0 DUP1 RETURNDATACOPY RETURNDATASIZE PUSH1 0x0 REVERT JUMPDEST POP POP POP POP PUSH1 0x40 MLOAD RETURNDATASIZE PUSH1 0x1F NOT PUSH1 0x1F DUP3 ADD AND DUP3 ADD DUP1 PUSH1 0x40 MSTORE POP DUP2 ADD SWAP1 PUSH2 0xAFD SWAP2 SWAP1 PUSH2 0x2773 JUMP JUMPDEST POP DUP5 PUSH20 0xFFFFFFFFFFFFFFFFFFFFFFFFFFFFFFFFFFFFFFFF AND PUSH4 0x23B872DD ADDRESS CALLER DUP5 PUSH1 0x40 MLOAD DUP5 PUSH4 0xFFFFFFFF AND PUSH1 0xE0 SHL DUP2 MSTORE PUSH1 0x4 ADD PUSH2 0xB3B SWAP4 SWAP3 SWAP2 SWAP1 PUSH2 0x27A0 JUMP JUMPDEST PUSH1 0x0 PUSH1 0x40 MLOAD DUP1 DUP4 SUB DUP2 PUSH1 0x0 DUP8 DUP1 EXTCODESIZE ISZERO DUP1 ISZERO PUSH2 0xB55 JUMPI PUSH1 0x0 DUP1 REVERT JUMPDEST POP GAS CALL ISZERO DUP1 ISZERO PUSH2 0xB69 JUMPI RETURNDATASIZE PUSH1 0x0 DUP1 RETURNDATACOPY RETURNDATASIZE PUSH1 0x0 REVERT JUMPDEST POP POP POP POP CALLER PUSH1 0xE PUSH1 0x0 DUP7 DUP2 MSTORE PUSH1 0x20 ADD SWAP1 DUP2 MSTORE PUSH1 0x20 ADD PUSH1 0x0 KECCAK256 PUSH1 0x4 ADD PUSH1 0x0 PUSH2 0x100 EXP DUP2 SLOAD DUP2 PUSH20 0xFFFFFFFFFFFFFFFFFFFFFFFFFFFFFFFFFFFFFFFF MUL NOT AND SWAP1 DUP4 PUSH20 0xFFFFFFFFFFFFFFFFFFFFFFFFFFFFFFFFFFFFFFFF AND MUL OR SWAP1 SSTORE POP PUSH1 0x0 PUSH1 0xE PUSH1 0x0 DUP7 DUP2 MSTORE PUSH1 0x20 ADD SWAP1 DUP2 MSTORE PUSH1 0x20 ADD PUSH1 0x0 KECCAK256 PUSH1 0x6 ADD PUSH1 0x0 PUSH2 0x100 EXP DUP2 SLOAD DUP2 PUSH1 0xFF MUL NOT AND SWAP1 DUP4 PUSH1 0x1 DUP2 GT ISZERO PUSH2 0xBFC JUMPI PUSH2 0xBFB PUSH2 0x1F13 JUMP JUMPDEST JUMPDEST MUL OR SWAP1 SSTORE POP PUSH2 0xC0B PUSH1 0xD PUSH2 0x1BF9 JUMP JUMPDEST POP POP PUSH1 0x1 PUSH1 0x0 DUP2 SWAP1 SSTORE POP POP POP POP JUMP JUMPDEST PUSH2 0xC22 PUSH2 0x1E07 JUMP JUMPDEST PUSH1 0x0 PUSH1 0xE PUSH1 0x0 DUP5 DUP2 MSTORE PUSH1 0x20 ADD SWAP1 DUP2 MSTORE PUSH1 0x20 ADD PUSH1 0x0 KECCAK256 PUSH1 0x40 MLOAD DUP1 PUSH1 0xE0 ADD PUSH1 0x40 MSTORE SWAP1 DUP2 PUSH1 0x0 DUP3 ADD SLOAD DUP2 MSTORE PUSH1 0x20 ADD PUSH1 0x1 DUP3 ADD PUSH1 0x0 SWAP1 SLOAD SWAP1 PUSH2 0x100 EXP SWAP1 DIV PUSH20 0xFFFFFFFFFFFFFFFFFFFFFFFFFFFFFFFFFFFFFFFF AND PUSH20 0xFFFFFFFFFFFFFFFFFFFFFFFFFFFFFFFFFFFFFFFF AND PUSH20 0xFFFFFFFFFFFFFFFFFFFFFFFFFFFFFFFFFFFFFFFF AND DUP2 MSTORE PUSH1 0x20 ADD PUSH1 0x2 DUP3 ADD SLOAD DUP2 MSTORE PUSH1 0x20 ADD PUSH1 0x3 DUP3 ADD PUSH1 0x0 SWAP1 SLOAD SWAP1 PUSH2 0x100 EXP SWAP1 DIV PUSH20 0xFFFFFFFFFFFFFFFFFFFFFFFFFFFFFFFFFFFFFFFF AND PUSH20 0xFFFFFFFFFFFFFFFFFFFFFFFFFFFFFFFFFFFFFFFF AND PUSH20 0xFFFFFFFFFFFFFFFFFFFFFFFFFFFFFFFFFFFFFFFF AND DUP2 MSTORE PUSH1 0x20 ADD PUSH1 0x4 DUP3 ADD PUSH1 0x0 SWAP1 SLOAD SWAP1 PUSH2 0x100 EXP SWAP1 DIV PUSH20 0xFFFFFFFFFFFFFFFFFFFFFFFFFFFFFFFFFFFFFFFF AND PUSH20 0xFFFFFFFFFFFFFFFFFFFFFFFFFFFFFFFFFFFFFFFF AND PUSH20 0xFFFFFFFFFFFFFFFFFFFFFFFFFFFFFFFFFFFFFFFF AND DUP2 MSTORE PUSH1 0x20 ADD PUSH1 0x5 DUP3 ADD SLOAD DUP2 MSTORE PUSH1 0x20 ADD PUSH1 0x6 DUP3 ADD PUSH1 0x0 SWAP1 SLOAD SWAP1 PUSH2 0x100 EXP SWAP1 DIV PUSH1 0xFF AND PUSH1 0x1 DUP2 GT ISZERO PUSH2 0xD87 JUMPI PUSH2 0xD86 PUSH2 0x1F13 JUMP JUMPDEST JUMPDEST PUSH1 0x1 DUP2 GT ISZERO PUSH2 0xD99 JUMPI PUSH2 0xD98 PUSH2 0x1F13 JUMP JUMPDEST JUMPDEST DUP2 MSTORE POP POP SWAP1 POP DUP1 SWAP2 POP POP SWAP2 SWAP1 POP JUMP JUMPDEST PUSH4 0x80AC58CD PUSH1 0xE0 SHL DUP2 JUMP JUMPDEST PUSH1 0x1 DUP1 PUSH1 0x0 ADD SLOAD SWAP1 DUP1 PUSH1 0x1 ADD PUSH1 0x0 SWAP1 SLOAD SWAP1 PUSH2 0x100 EXP SWAP1 DIV PUSH20 0xFFFFFFFFFFFFFFFFFFFFFFFFFFFFFFFFFFFFFFFF AND SWAP1 DUP1 PUSH1 0x2 ADD SLOAD SWAP1 DUP1 PUSH1 0x3 ADD PUSH1 0x0 SWAP1 SLOAD SWAP1 PUSH2 0x100 EXP SWAP1 DIV PUSH20 0xFFFFFFFFFFFFFFFFFFFFFFFFFFFFFFFFFFFFFFFF AND SWAP1 DUP1 PUSH1 0x4 ADD PUSH1 0x0 SWAP1 SLOAD SWAP1 PUSH2 0x100 EXP SWAP1 DIV PUSH20 0xFFFFFFFFFFFFFFFFFFFFFFFFFFFFFFFFFFFFFFFF AND SWAP1 DUP1 PUSH1 0x5 ADD SLOAD SWAP1 DUP1 PUSH1 0x6 ADD PUSH1 0x0 SWAP1 SLOAD SWAP1 PUSH2 0x100 EXP SWAP1 DIV PUSH1 0xFF AND SWAP1 POP DUP8 JUMP JUMPDEST PUSH1 0x2 PUSH1 0x0 SLOAD SUB PUSH2 0xE95 JUMPI PUSH1 0x40 MLOAD PUSH32 0x8C379A000000000000000000000000000000000000000000000000000000000 DUP2 MSTORE PUSH1 0x4 ADD PUSH2 0xE8C SWAP1 PUSH2 0x2631 JUMP JUMPDEST PUSH1 0x40 MLOAD DUP1 SWAP2 SUB SWAP1 REVERT JUMPDEST PUSH1 0x2 PUSH1 0x0 DUP2 SWAP1 SSTORE POP PUSH1 0x0 DUP2 GT PUSH2 0xEE0 JUMPI PUSH1 0x40 MLOAD PUSH32 0x8C379A000000000000000000000000000000000000000000000000000000000 DUP2 MSTORE PUSH1 0x4 ADD PUSH2 0xED7 SWAP1 PUSH2 0x2823 JUMP JUMPDEST PUSH1 0x40 MLOAD DUP1 SWAP2 SUB SWAP1 REVERT JUMPDEST PUSH2 0xEEA PUSH1 0xC PUSH2 0x1BF9 JUMP JUMPDEST PUSH1 0x0 PUSH2 0xEF6 PUSH1 0xC PUSH2 0x1BEB JUMP JUMPDEST SWAP1 POP PUSH1 0x40 MLOAD DUP1 PUSH1 0xE0 ADD PUSH1 0x40 MSTORE DUP1 DUP3 DUP2 MSTORE PUSH1 0x20 ADD DUP6 PUSH20 0xFFFFFFFFFFFFFFFFFFFFFFFFFFFFFFFFFFFFFFFF AND DUP2 MSTORE PUSH1 0x20 ADD DUP5 DUP2 MSTORE PUSH1 0x20 ADD CALLER PUSH20 0xFFFFFFFFFFFFFFFFFFFFFFFFFFFFFFFFFFFFFFFF AND DUP2 MSTORE PUSH1 0x20 ADD PUSH1 0x0 PUSH20 0xFFFFFFFFFFFFFFFFFFFFFFFFFFFFFFFFFFFFFFFF AND DUP2 MSTORE PUSH1 0x20 ADD DUP4 DUP2 MSTORE PUSH1 0x20 ADD PUSH1 0x1 DUP1 DUP2 GT ISZERO PUSH2 0xF7D JUMPI PUSH2 0xF7C PUSH2 0x1F13 JUMP JUMPDEST JUMPDEST DUP2 MSTORE POP PUSH1 0xE PUSH1 0x0 DUP4 DUP2 MSTORE PUSH1 0x20 ADD SWAP1 DUP2 MSTORE PUSH1 0x20 ADD PUSH1 0x0 KECCAK256 PUSH1 0x0 DUP3 ADD MLOAD DUP2 PUSH1 0x0 ADD SSTORE PUSH1 0x20 DUP3 ADD MLOAD DUP2 PUSH1 0x1 ADD PUSH1 0x0 PUSH2 0x100 EXP DUP2 SLOAD DUP2 PUSH20 0xFFFFFFFFFFFFFFFFFFFFFFFFFFFFFFFFFFFFFFFF MUL NOT AND SWAP1 DUP4 PUSH20 0xFFFFFFFFFFFFFFFFFFFFFFFFFFFFFFFFFFFFFFFF AND MUL OR SWAP1 SSTORE POP PUSH1 0x40 DUP3 ADD MLOAD DUP2 PUSH1 0x2 ADD SSTORE PUSH1 0x60 DUP3 ADD MLOAD DUP2 PUSH1 0x3 ADD PUSH1 0x0 PUSH2 0x100 EXP DUP2 SLOAD DUP2 PUSH20 0xFFFFFFFFFFFFFFFFFFFFFFFFFFFFFFFFFFFFFFFF MUL NOT AND SWAP1 DUP4 PUSH20 0xFFFFFFFFFFFFFFFFFFFFFFFFFFFFFFFFFFFFFFFF AND MUL OR SWAP1 SSTORE POP PUSH1 0x80 DUP3 ADD MLOAD DUP2 PUSH1 0x4 ADD PUSH1 0x0 PUSH2 0x100 EXP DUP2 SLOAD DUP2 PUSH20 0xFFFFFFFFFFFFFFFFFFFFFFFFFFFFFFFFFFFFFFFF MUL NOT AND SWAP1 DUP4 PUSH20 0xFFFFFFFFFFFFFFFFFFFFFFFFFFFFFFFFFFFFFFFF AND MUL OR SWAP1 SSTORE POP PUSH1 0xA0 DUP3 ADD MLOAD DUP2 PUSH1 0x5 ADD SSTORE PUSH1 0xC0 DUP3 ADD MLOAD DUP2 PUSH1 0x6 ADD PUSH1 0x0 PUSH2 0x100 EXP DUP2 SLOAD DUP2 PUSH1 0xFF MUL NOT AND SWAP1 DUP4 PUSH1 0x1 DUP2 GT ISZERO PUSH2 0x10B1 JUMPI PUSH2 0x10B0 PUSH2 0x1F13 JUMP JUMPDEST JUMPDEST MUL OR SWAP1 SSTORE POP SWAP1 POP POP DUP4 PUSH20 0xFFFFFFFFFFFFFFFFFFFFFFFFFFFFFFFFFFFFFFFF AND PUSH4 0x23B872DD CALLER ADDRESS DUP7 PUSH1 0x40 MLOAD DUP5 PUSH4 0xFFFFFFFF AND PUSH1 0xE0 SHL DUP2 MSTORE PUSH1 0x4 ADD PUSH2 0x10F6 SWAP4 SWAP3 SWAP2 SWAP1 PUSH2 0x27A0 JUMP JUMPDEST PUSH1 0x0 PUSH1 0x40 MLOAD DUP1 DUP4 SUB DUP2 PUSH1 0x0 DUP8 DUP1 EXTCODESIZE ISZERO DUP1 ISZERO PUSH2 0x1110 JUMPI PUSH1 0x0 DUP1 REVERT JUMPDEST POP GAS CALL ISZERO DUP1 ISZERO PUSH2 0x1124 JUMPI RETURNDATASIZE PUSH1 0x0 DUP1 RETURNDATACOPY RETURNDATASIZE PUSH1 0x0 REVERT JUMPDEST POP POP POP POP DUP3 DUP5 PUSH20 0xFFFFFFFFFFFFFFFFFFFFFFFFFFFFFFFFFFFFFFFF AND DUP3 PUSH32 0x2AD024D53A0DC50C130967F8D4941927EE087EA31394CEBB2B9599D3706C9C00 CALLER PUSH1 0x0 DUP8 PUSH1 0x40 MLOAD PUSH2 0x1175 SWAP4 SWAP3 SWAP2 SWAP1 PUSH2 0x27A0 JUMP JUMPDEST PUSH1 0x40 MLOAD DUP1 SWAP2 SUB SWAP1 LOG4 POP PUSH1 0x1 PUSH1 0x0 DUP2 SWAP1 SSTORE POP POP POP POP JUMP JUMPDEST PUSH1 0x9 PUSH1 0x20 MSTORE DUP2 PUSH1 0x0 MSTORE PUSH1 0x40 PUSH1 0x0 KECCAK256 PUSH1 0x20 MSTORE DUP1 PUSH1 0x0 MSTORE PUSH1 0x40 PUSH1 0x0 KECCAK256 PUSH1 0x0 SWAP2 POP SWAP2 POP POP DUP1 PUSH1 0x0 ADD SLOAD SWAP1 DUP1 PUSH1 0x1 ADD PUSH1 0x0 SWAP1 SLOAD SWAP1 PUSH2 0x100 EXP SWAP1 DIV PUSH20 0xFFFFFFFFFFFFFFFFFFFFFFFFFFFFFFFFFFFFFFFF AND SWAP1 DUP1 PUSH1 0x2 ADD SLOAD SWAP1 DUP1 PUSH1 0x3 ADD PUSH1 0x0 SWAP1 SLOAD SWAP1 PUSH2 0x100 EXP SWAP1 DIV PUSH20 0xFFFFFFFFFFFFFFFFFFFFFFFFFFFFFFFFFFFFFFFF AND SWAP1 DUP1 PUSH1 0x4 ADD PUSH1 0x0 SWAP1 SLOAD SWAP1 PUSH2 0x100 EXP SWAP1 DIV PUSH20 0xFFFFFFFFFFFFFFFFFFFFFFFFFFFFFFFFFFFFFFFF AND SWAP1 DUP1 PUSH1 0x5 ADD SLOAD SWAP1 DUP1 PUSH1 0x6 ADD PUSH1 0x0 SWAP1 SLOAD SWAP1 PUSH2 0x100 EXP SWAP1 DIV PUSH1 0xFF AND SWAP1 POP DUP8 JUMP JUMPDEST PUSH2 0x124F PUSH2 0x1C0F JUMP JUMPDEST PUSH20 0xFFFFFFFFFFFFFFFFFFFFFFFFFFFFFFFFFFFFFFFF AND PUSH2 0x126D PUSH2 0x12E2 JUMP JUMPDEST PUSH20 0xFFFFFFFFFFFFFFFFFFFFFFFFFFFFFFFFFFFFFFFF AND EQ PUSH2 0x12C3 JUMPI PUSH1 0x40 MLOAD PUSH32 0x8C379A000000000000000000000000000000000000000000000000000000000 DUP2 MSTORE PUSH1 0x4 ADD PUSH2 0x12BA SWAP1 PUSH2 0x288F JUMP JUMPDEST PUSH1 0x40 MLOAD DUP1 SWAP2 SUB SWAP1 REVERT JUMPDEST PUSH2 0x12CD PUSH1 0x0 PUSH2 0x1C17 JUMP JUMPDEST JUMP JUMPDEST PUSH1 0xA PUSH1 0x14 SWAP1 SLOAD SWAP1 PUSH2 0x100 EXP SWAP1 DIV PUSH1 0xFF AND DUP2 JUMP JUMPDEST PUSH1 0x0 PUSH1 0xB PUSH1 0x0 SWAP1 SLOAD SWAP1 PUSH2 0x100 EXP SWAP1 DIV PUSH20 0xFFFFFFFFFFFFFFFFFFFFFFFFFFFFFFFFFFFFFFFF AND SWAP1 POP SWAP1 JUMP JUMPDEST PUSH2 0x1314 PUSH2 0x1C0F JUMP JUMPDEST PUSH20 0xFFFFFFFFFFFFFFFFFFFFFFFFFFFFFFFFFFFFFFFF AND PUSH2 0x1332 PUSH2 0x12E2 JUMP JUMPDEST PUSH20 0xFFFFFFFFFFFFFFFFFFFFFFFFFFFFFFFFFFFFFFFF AND EQ PUSH2 0x1388 JUMPI PUSH1 0x40 MLOAD PUSH32 0x8C379A000000000000000000000000000000000000000000000000000000000 DUP2 MSTORE PUSH1 0x4 ADD PUSH2 0x137F SWAP1 PUSH2 0x288F JUMP JUMPDEST PUSH1 0x40 MLOAD DUP1 SWAP2 SUB SWAP1 REVERT JUMPDEST DUP1 PUSH1 0xA PUSH1 0x0 PUSH2 0x100 EXP DUP2 SLOAD DUP2 PUSH20 0xFFFFFFFFFFFFFFFFFFFFFFFFFFFFFFFFFFFFFFFF MUL NOT AND SWAP1 DUP4 PUSH20 0xFFFFFFFFFFFFFFFFFFFFFFFFFFFFFFFFFFFFFFFF AND MUL OR SWAP1 SSTORE POP POP JUMP JUMPDEST PUSH2 0x13D5 DUP3 PUSH2 0x1CDD JUMP JUMPDEST PUSH1 0x0 CALLER SWAP1 POP PUSH1 0x0 PUSH1 0xE PUSH1 0x0 DUP5 DUP2 MSTORE PUSH1 0x20 ADD SWAP1 DUP2 MSTORE PUSH1 0x20 ADD PUSH1 0x0 KECCAK256 PUSH1 0x40 MLOAD DUP1 PUSH1 0xE0 ADD PUSH1 0x40 MSTORE SWAP1 DUP2 PUSH1 0x0 DUP3 ADD SLOAD DUP2 MSTORE PUSH1 0x20 ADD PUSH1 0x1 DUP3 ADD PUSH1 0x0 SWAP1 SLOAD SWAP1 PUSH2 0x100 EXP SWAP1 DIV PUSH20 0xFFFFFFFFFFFFFFFFFFFFFFFFFFFFFFFFFFFFFFFF AND PUSH20 0xFFFFFFFFFFFFFFFFFFFFFFFFFFFFFFFFFFFFFFFF AND PUSH20 0xFFFFFFFFFFFFFFFFFFFFFFFFFFFFFFFFFFFFFFFF AND DUP2 MSTORE PUSH1 0x20 ADD PUSH1 0x2 DUP3 ADD SLOAD DUP2 MSTORE PUSH1 0x20 ADD PUSH1 0x3 DUP3 ADD PUSH1 0x0 SWAP1 SLOAD SWAP1 PUSH2 0x100 EXP SWAP1 DIV PUSH20 0xFFFFFFFFFFFFFFFFFFFFFFFFFFFFFFFFFFFFFFFF AND PUSH20 0xFFFFFFFFFFFFFFFFFFFFFFFFFFFFFFFFFFFFFFFF AND PUSH20 0xFFFFFFFFFFFFFFFFFFFFFFFFFFFFFFFFFFFFFFFF AND DUP2 MSTORE PUSH1 0x20 ADD PUSH1 0x4 DUP3 ADD PUSH1 0x0 SWAP1 SLOAD SWAP1 PUSH2 0x100 EXP SWAP1 DIV PUSH20 0xFFFFFFFFFFFFFFFFFFFFFFFFFFFFFFFFFFFFFFFF AND PUSH20 0xFFFFFFFFFFFFFFFFFFFFFFFFFFFFFFFFFFFFFFFF AND PUSH20 0xFFFFFFFFFFFFFFFFFFFFFFFFFFFFFFFFFFFFFFFF AND DUP2 MSTORE PUSH1 0x20 ADD PUSH1 0x5 DUP3 ADD SLOAD DUP2 MSTORE PUSH1 0x20 ADD PUSH1 0x6 DUP3 ADD PUSH1 0x0 SWAP1 SLOAD SWAP1 PUSH2 0x100 EXP SWAP1 DIV PUSH1 0xFF AND PUSH1 0x1 DUP2 GT ISZERO PUSH2 0x153F JUMPI PUSH2 0x153E PUSH2 0x1F13 JUMP JUMPDEST JUMPDEST PUSH1 0x1 DUP2 GT ISZERO PUSH2 0x1551 JUMPI PUSH2 0x1550 PUSH2 0x1F13 JUMP JUMPDEST JUMPDEST DUP2 MSTORE POP POP SWAP1 POP PUSH1 0x0 DUP2 PUSH1 0x0 ADD MLOAD SUB PUSH2 0x159E JUMPI PUSH1 0x40 MLOAD PUSH32 0x8C379A000000000000000000000000000000000000000000000000000000000 DUP2 MSTORE PUSH1 0x4 ADD PUSH2 0x1595 SWAP1 PUSH2 0x28FB JUMP JUMPDEST PUSH1 0x40 MLOAD DUP1 SWAP2 SUB SWAP1 REVERT JUMPDEST PUSH1 0x0 PUSH1 0x1 DUP2 GT ISZERO PUSH2 0x15B2 JUMPI PUSH2 0x15B1 PUSH2 0x1F13 JUMP JUMPDEST JUMPDEST DUP2 PUSH1 0xC0 ADD MLOAD PUSH1 0x1 DUP2 GT ISZERO PUSH2 0x15C9 JUMPI PUSH2 0x15C8 PUSH2 0x1F13 JUMP JUMPDEST JUMPDEST SUB PUSH2 0x1609 JUMPI PUSH1 0x40 MLOAD PUSH32 0x8C379A000000000000000000000000000000000000000000000000000000000 DUP2 MSTORE PUSH1 0x4 ADD PUSH2 0x1600 SWAP1 PUSH2 0x2967 JUMP JUMPDEST PUSH1 0x40 MLOAD DUP1 SWAP2 SUB SWAP1 REVERT JUMPDEST PUSH1 0x0 DUP2 PUSH1 0x60 ADD MLOAD SWAP1 POP PUSH1 0x0 PUSH20 0xFFFFFFFFFFFFFFFFFFFFFFFFFFFFFFFFFFFFFFFF AND DUP2 PUSH20 0xFFFFFFFFFFFFFFFFFFFFFFFFFFFFFFFFFFFFFFFF AND SUB PUSH2 0x1681 JUMPI PUSH1 0x40 MLOAD PUSH32 0x8C379A000000000000000000000000000000000000000000000000000000000 DUP2 MSTORE PUSH1 0x4 ADD PUSH2 0x1678 SWAP1 PUSH2 0x29D3 JUMP JUMPDEST PUSH1 0x40 MLOAD DUP1 SWAP2 SUB SWAP1 REVERT JUMPDEST CALLER PUSH20 0xFFFFFFFFFFFFFFFFFFFFFFFFFFFFFFFFFFFFFFFF AND DUP2 PUSH20 0xFFFFFFFFFFFFFFFFFFFFFFFFFFFFFFFFFFFFFFFF AND EQ PUSH2 0x16EF JUMPI PUSH1 0x40 MLOAD PUSH32 0x8C379A000000000000000000000000000000000000000000000000000000000 DUP2 MSTORE PUSH1 0x4 ADD PUSH2 0x16E6 SWAP1 PUSH2 0x2A3F JUMP JUMPDEST PUSH1 0x40 MLOAD DUP1 SWAP2 SUB SWAP1 REVERT JUMPDEST PUSH1 0x0 DUP6 SWAP1 POP DUP1 PUSH20 0xFFFFFFFFFFFFFFFFFFFFFFFFFFFFFFFFFFFFFFFF AND PUSH4 0x42842E0E ADDRESS DUP5 DUP9 PUSH1 0x40 MLOAD DUP5 PUSH4 0xFFFFFFFF AND PUSH1 0xE0 SHL DUP2 MSTORE PUSH1 0x4 ADD PUSH2 0x1731 SWAP4 SWAP3 SWAP2 SWAP1 PUSH2 0x27A0 JUMP JUMPDEST PUSH1 0x0 PUSH1 0x40 MLOAD DUP1 DUP4 SUB DUP2 PUSH1 0x0 DUP8 DUP1 EXTCODESIZE ISZERO DUP1 ISZERO PUSH2 0x174B JUMPI PUSH1 0x0 DUP1 REVERT JUMPDEST POP GAS CALL ISZERO DUP1 ISZERO PUSH2 0x175F JUMPI RETURNDATASIZE PUSH1 0x0 DUP1 RETURNDATACOPY RETURNDATASIZE PUSH1 0x0 REVERT JUMPDEST POP POP POP POP PUSH1 0x0 DUP4 PUSH1 0xC0 ADD SWAP1 PUSH1 0x1 DUP2 GT ISZERO PUSH2 0x177C JUMPI PUSH2 0x177B PUSH2 0x1F13 JUMP JUMPDEST JUMPDEST SWAP1 DUP2 PUSH1 0x1 DUP2 GT ISZERO PUSH2 0x1790 JUMPI PUSH2 0x178F PUSH2 0x1F13 JUMP JUMPDEST JUMPDEST DUP2 MSTORE POP POP PUSH1 0xE PUSH1 0x0 DUP7 DUP2 MSTORE PUSH1 0x20 ADD SWAP1 DUP2 MSTORE PUSH1 0x20 ADD PUSH1 0x0 KECCAK256 PUSH1 0x0 DUP1 DUP3 ADD PUSH1 0x0 SWAP1 SSTORE PUSH1 0x1 DUP3 ADD PUSH1 0x0 PUSH2 0x100 EXP DUP2 SLOAD SWAP1 PUSH20 0xFFFFFFFFFFFFFFFFFFFFFFFFFFFFFFFFFFFFFFFF MUL NOT AND SWAP1 SSTORE PUSH1 0x2 DUP3 ADD PUSH1 0x0 SWAP1 SSTORE PUSH1 0x3 DUP3 ADD PUSH1 0x0 PUSH2 0x100 EXP DUP2 SLOAD SWAP1 PUSH20 0xFFFFFFFFFFFFFFFFFFFFFFFFFFFFFFFFFFFFFFFF MUL NOT AND SWAP1 SSTORE PUSH1 0x4 DUP3 ADD PUSH1 0x0 PUSH2 0x100 EXP DUP2 SLOAD SWAP1 PUSH20 0xFFFFFFFFFFFFFFFFFFFFFFFFFFFFFFFFFFFFFFFF MUL NOT AND SWAP1 SSTORE PUSH1 0x5 DUP3 ADD PUSH1 0x0 SWAP1 SSTORE PUSH1 0x6 DUP3 ADD PUSH1 0x0 PUSH2 0x100 EXP DUP2 SLOAD SWAP1 PUSH1 0xFF MUL NOT AND SWAP1 SSTORE POP POP DUP4 PUSH20 0xFFFFFFFFFFFFFFFFFFFFFFFFFFFFFFFFFFFFFFFF AND DUP6 PUSH32 0xC141ECC59E1A451EE7D3128743C8CA3174955CE97262896269482D5F84B39A85 DUP9 DUP7 PUSH1 0x0 ADD MLOAD TIMESTAMP PUSH1 0x40 MLOAD PUSH2 0x189A SWAP4 SWAP3 SWAP2 SWAP1 PUSH2 0x2A5F JUMP JUMPDEST PUSH1 0x40 MLOAD DUP1 SWAP2 SUB SWAP1 LOG3 POP POP POP POP POP POP JUMP JUMPDEST PUSH1 0xA PUSH1 0x15 SWAP1 SLOAD SWAP1 PUSH2 0x100 EXP SWAP1 DIV PUSH1 0xFF AND DUP2 JUMP JUMPDEST PUSH2 0x18C5 PUSH2 0x1E07 JUMP JUMPDEST PUSH1 0xE PUSH1 0x0 DUP4 DUP2 MSTORE PUSH1 0x20 ADD SWAP1 DUP2 MSTORE PUSH1 0x20 ADD PUSH1 0x0 KECCAK256 PUSH1 0x40 MLOAD DUP1 PUSH1 0xE0 ADD PUSH1 0x40 MSTORE SWAP1 DUP2 PUSH1 0x0 DUP3 ADD SLOAD DUP2 MSTORE PUSH1 0x20 ADD PUSH1 0x1 DUP3 ADD PUSH1 0x0 SWAP1 SLOAD SWAP1 PUSH2 0x100 EXP SWAP1 DIV PUSH20 0xFFFFFFFFFFFFFFFFFFFFFFFFFFFFFFFFFFFFFFFF AND PUSH20 0xFFFFFFFFFFFFFFFFFFFFFFFFFFFFFFFFFFFFFFFF AND PUSH20 0xFFFFFFFFFFFFFFFFFFFFFFFFFFFFFFFFFFFFFFFF AND DUP2 MSTORE PUSH1 0x20 ADD PUSH1 0x2 DUP3 ADD SLOAD DUP2 MSTORE PUSH1 0x20 ADD PUSH1 0x3 DUP3 ADD PUSH1 0x0 SWAP1 SLOAD SWAP1 PUSH2 0x100 EXP SWAP1 DIV PUSH20 0xFFFFFFFFFFFFFFFFFFFFFFFFFFFFFFFFFFFFFFFF AND PUSH20 0xFFFFFFFFFFFFFFFFFFFFFFFFFFFFFFFFFFFFFFFF AND PUSH20 0xFFFFFFFFFFFFFFFFFFFFFFFFFFFFFFFFFFFFFFFF AND DUP2 MSTORE PUSH1 0x20 ADD PUSH1 0x4 DUP3 ADD PUSH1 0x0 SWAP1 SLOAD SWAP1 PUSH2 0x100 EXP SWAP1 DIV PUSH20 0xFFFFFFFFFFFFFFFFFFFFFFFFFFFFFFFFFFFFFFFF AND PUSH20 0xFFFFFFFFFFFFFFFFFFFFFFFFFFFFFFFFFFFFFFFF AND PUSH20 0xFFFFFFFFFFFFFFFFFFFFFFFFFFFFFFFFFFFFFFFF AND DUP2 MSTORE PUSH1 0x20 ADD PUSH1 0x5 DUP3 ADD SLOAD DUP2 MSTORE PUSH1 0x20 ADD PUSH1 0x6 DUP3 ADD PUSH1 0x0 SWAP1 SLOAD SWAP1 PUSH2 0x100 EXP SWAP1 DIV PUSH1 0xFF AND PUSH1 0x1 DUP2 GT ISZERO PUSH2 0x1A28 JUMPI PUSH2 0x1A27 PUSH2 0x1F13 JUMP JUMPDEST JUMPDEST PUSH1 0x1 DUP2 GT ISZERO PUSH2 0x1A3A JUMPI PUSH2 0x1A39 PUSH2 0x1F13 JUMP JUMPDEST JUMPDEST DUP2 MSTORE POP POP SWAP1 POP SWAP2 SWAP1 POP JUMP JUMPDEST PUSH2 0x1A4D PUSH2 0x1C0F JUMP JUMPDEST PUSH20 0xFFFFFFFFFFFFFFFFFFFFFFFFFFFFFFFFFFFFFFFF AND PUSH2 0x1A6B PUSH2 0x12E2 JUMP JUMPDEST PUSH20 0xFFFFFFFFFFFFFFFFFFFFFFFFFFFFFFFFFFFFFFFF AND EQ PUSH2 0x1AC1 JUMPI PUSH1 0x40 MLOAD PUSH32 0x8C379A000000000000000000000000000000000000000000000000000000000 DUP2 MSTORE PUSH1 0x4 ADD PUSH2 0x1AB8 SWAP1 PUSH2 0x288F JUMP JUMPDEST PUSH1 0x40 MLOAD DUP1 SWAP2 SUB SWAP1 REVERT JUMPDEST PUSH1 0x0 PUSH20 0xFFFFFFFFFFFFFFFFFFFFFFFFFFFFFFFFFFFFFFFF AND DUP2 PUSH20 0xFFFFFFFFFFFFFFFFFFFFFFFFFFFFFFFFFFFFFFFF AND SUB PUSH2 0x1B30 JUMPI PUSH1 0x40 MLOAD PUSH32 0x8C379A000000000000000000000000000000000000000000000000000000000 DUP2 MSTORE PUSH1 0x4 ADD PUSH2 0x1B27 SWAP1 PUSH2 0x2B08 JUMP JUMPDEST PUSH1 0x40 MLOAD DUP1 SWAP2 SUB SWAP1 REVERT JUMPDEST PUSH2 0x1B39 DUP2 PUSH2 0x1C17 JUMP JUMPDEST POP JUMP JUMPDEST PUSH1 0x8 PUSH1 0x20 MSTORE DUP1 PUSH1 0x0 MSTORE PUSH1 0x40 PUSH1 0x0 KECCAK256 PUSH1 0x0 SWAP2 POP SWAP1 POP DUP1 PUSH1 0x0 ADD SLOAD SWAP1 DUP1 PUSH1 0x1 ADD PUSH1 0x0 SWAP1 SLOAD SWAP1 PUSH2 0x100 EXP SWAP1 DIV PUSH20 0xFFFFFFFFFFFFFFFFFFFFFFFFFFFFFFFFFFFFFFFF AND SWAP1 DUP1 PUSH1 0x2 ADD SLOAD SWAP1 DUP1 PUSH1 0x3 ADD PUSH1 0x0 SWAP1 SLOAD SWAP1 PUSH2 0x100 EXP SWAP1 DIV PUSH20 0xFFFFFFFFFFFFFFFFFFFFFFFFFFFFFFFFFFFFFFFF AND SWAP1 DUP1 PUSH1 0x4 ADD PUSH1 0x0 SWAP1 SLOAD SWAP1 PUSH2 0x100 EXP SWAP1 DIV PUSH20 0xFFFFFFFFFFFFFFFFFFFFFFFFFFFFFFFFFFFFFFFF AND SWAP1 DUP1 PUSH1 0x5 ADD SLOAD SWAP1 DUP1 PUSH1 0x6 ADD PUSH1 0x0 SWAP1 SLOAD SWAP1 PUSH2 0x100 EXP SWAP1 DIV PUSH1 0xFF AND SWAP1 POP DUP8 JUMP JUMPDEST PUSH1 0x0 DUP2 PUSH1 0x0 ADD SLOAD SWAP1 POP SWAP2 SWAP1 POP JUMP JUMPDEST PUSH1 0x1 DUP2 PUSH1 0x0 ADD PUSH1 0x0 DUP3 DUP3 SLOAD ADD SWAP3 POP POP DUP2 SWAP1 SSTORE POP POP JUMP JUMPDEST PUSH1 0x0 CALLER SWAP1 POP SWAP1 JUMP JUMPDEST PUSH1 0x0 PUSH1 0xB PUSH1 0x0 SWAP1 SLOAD SWAP1 PUSH2 0x100 EXP SWAP1 DIV PUSH20 0xFFFFFFFFFFFFFFFFFFFFFFFFFFFFFFFFFFFFFFFF AND SWAP1 POP DUP2 PUSH1 0xB PUSH1 0x0 PUSH2 0x100 EXP DUP2 SLOAD DUP2 PUSH20 0xFFFFFFFFFFFFFFFFFFFFFFFFFFFFFFFFFFFFFFFF MUL NOT AND SWAP1 DUP4 PUSH20 0xFFFFFFFFFFFFFFFFFFFFFFFFFFFFFFFFFFFFFFFF AND MUL OR SWAP1 SSTORE POP DUP2 PUSH20 0xFFFFFFFFFFFFFFFFFFFFFFFFFFFFFFFFFFFFFFFF AND DUP2 PUSH20 0xFFFFFFFFFFFFFFFFFFFFFFFFFFFFFFFFFFFFFFFF AND PUSH32 0x8BE0079C531659141344CD1FD0A4F28419497F9722A3DAAFE3B4186F6B6457E0 PUSH1 0x40 MLOAD PUSH1 0x40 MLOAD DUP1 SWAP2 SUB SWAP1 LOG3 POP POP JUMP JUMPDEST PUSH2 0x1CE6 DUP2 PUSH2 0x1DEE JUMP JUMPDEST PUSH2 0x1D25 JUMPI PUSH1 0x40 MLOAD PUSH32 0x8C379A000000000000000000000000000000000000000000000000000000000 DUP2 MSTORE PUSH1 0x4 ADD PUSH2 0x1D1C SWAP1 PUSH2 0x2B9A JUMP JUMPDEST PUSH1 0x40 MLOAD DUP1 SWAP2 SUB SWAP1 REVERT JUMPDEST PUSH1 0x0 DUP2 SWAP1 POP DUP1 PUSH20 0xFFFFFFFFFFFFFFFFFFFFFFFFFFFFFFFFFFFFFFFF AND PUSH4 0x1FFC9A7 PUSH4 0x80AC58CD PUSH1 0xE0 SHL PUSH1 0x40 MLOAD DUP3 PUSH4 0xFFFFFFFF AND PUSH1 0xE0 SHL DUP2 MSTORE PUSH1 0x4 ADD PUSH2 0x1D6A SWAP2 SWAP1 PUSH2 0x2324 JUMP JUMPDEST PUSH1 0x20 PUSH1 0x40 MLOAD DUP1 DUP4 SUB DUP2 DUP7 GAS STATICCALL ISZERO DUP1 ISZERO PUSH2 0x1D87 JUMPI RETURNDATASIZE PUSH1 0x0 DUP1 RETURNDATACOPY RETURNDATASIZE PUSH1 0x0 REVERT JUMPDEST POP POP POP POP PUSH1 0x40 MLOAD RETURNDATASIZE PUSH1 0x1F NOT PUSH1 0x1F DUP3 ADD AND DUP3 ADD DUP1 PUSH1 0x40 MSTORE POP DUP2 ADD SWAP1 PUSH2 0x1DAB SWAP2 SWAP1 PUSH2 0x2773 JUMP JUMPDEST PUSH2 0x1DEA JUMPI PUSH1 0x40 MLOAD PUSH32 0x8C379A000000000000000000000000000000000000000000000000000000000 DUP2 MSTORE PUSH1 0x4 ADD PUSH2 0x1DE1 SWAP1 PUSH2 0x2C2C JUMP JUMPDEST PUSH1 0x40 MLOAD DUP1 SWAP2 SUB SWAP1 REVERT JUMPDEST POP POP JUMP JUMPDEST PUSH1 0x0 DUP1 DUP3 EXTCODESIZE SWAP1 POP PUSH1 0x0 DUP2 PUSH4 0xFFFFFFFF AND GT SWAP2 POP POP SWAP2 SWAP1 POP JUMP JUMPDEST PUSH1 0x40 MLOAD DUP1 PUSH1 0xE0 ADD PUSH1 0x40 MSTORE DUP1 PUSH1 0x0 DUP2 MSTORE PUSH1 0x20 ADD PUSH1 0x0 PUSH20 0xFFFFFFFFFFFFFFFFFFFFFFFFFFFFFFFFFFFFFFFF AND DUP2 MSTORE PUSH1 0x20 ADD PUSH1 0x0 DUP2 MSTORE PUSH1 0x20 ADD PUSH1 0x0 PUSH20 0xFFFFFFFFFFFFFFFFFFFFFFFFFFFFFFFFFFFFFFFF AND DUP2 MSTORE PUSH1 0x20 ADD PUSH1 0x0 PUSH20 0xFFFFFFFFFFFFFFFFFFFFFFFFFFFFFFFFFFFFFFFF AND DUP2 MSTORE PUSH1 0x20 ADD PUSH1 0x0 DUP2 MSTORE PUSH1 0x20 ADD PUSH1 0x0 PUSH1 0x1 DUP2 GT ISZERO PUSH2 0x1E92 JUMPI PUSH2 0x1E91 PUSH2 0x1F13 JUMP JUMPDEST JUMPDEST DUP2 MSTORE POP SWAP1 JUMP JUMPDEST PUSH1 0x0 DUP2 SWAP1 POP SWAP2 SWAP1 POP JUMP JUMPDEST PUSH2 0x1EAB DUP2 PUSH2 0x1E98 JUMP JUMPDEST DUP3 MSTORE POP POP JUMP JUMPDEST PUSH1 0x0 PUSH20 0xFFFFFFFFFFFFFFFFFFFFFFFFFFFFFFFFFFFFFFFF DUP3 AND SWAP1 POP SWAP2 SWAP1 POP JUMP JUMPDEST PUSH1 0x0 PUSH2 0x1EDC DUP3 PUSH2 0x1EB1 JUMP JUMPDEST SWAP1 POP SWAP2 SWAP1 POP JUMP JUMPDEST PUSH2 0x1EEC DUP2 PUSH2 0x1ED1 JUMP JUMPDEST DUP3 MSTORE POP POP JUMP JUMPDEST PUSH1 0x0 PUSH2 0x1EFD DUP3 PUSH2 0x1EB1 JUMP JUMPDEST SWAP1 POP SWAP2 SWAP1 POP JUMP JUMPDEST PUSH2 0x1F0D DUP2 PUSH2 0x1EF2 JUMP JUMPDEST DUP3 MSTORE POP POP JUMP JUMPDEST PUSH32 0x4E487B7100000000000000000000000000000000000000000000000000000000 PUSH1 0x0 MSTORE PUSH1 0x21 PUSH1 0x4 MSTORE PUSH1 0x24 PUSH1 0x0 REVERT JUMPDEST PUSH1 0x2 DUP2 LT PUSH2 0x1F53 JUMPI PUSH2 0x1F52 PUSH2 0x1F13 JUMP JUMPDEST JUMPDEST POP JUMP JUMPDEST PUSH1 0x0 DUP2 SWAP1 POP PUSH2 0x1F64 DUP3 PUSH2 0x1F42 JUMP JUMPDEST SWAP2 SWAP1 POP JUMP JUMPDEST PUSH1 0x0 PUSH2 0x1F74 DUP3 PUSH2 0x1F56 JUMP JUMPDEST SWAP1 POP SWAP2 SWAP1 POP JUMP JUMPDEST PUSH2 0x1F84 DUP2 PUSH2 0x1F69 JUMP JUMPDEST DUP3 MSTORE POP POP JUMP JUMPDEST PUSH1 0xE0 DUP3 ADD PUSH1 0x0 DUP3 ADD MLOAD PUSH2 0x1FA0 PUSH1 0x0 DUP6 ADD DUP3 PUSH2 0x1EA2 JUMP JUMPDEST POP PUSH1 0x20 DUP3 ADD MLOAD PUSH2 0x1FB3 PUSH1 0x20 DUP6 ADD DUP3 PUSH2 0x1EE3 JUMP JUMPDEST POP PUSH1 0x40 DUP3 ADD MLOAD PUSH2 0x1FC6 PUSH1 0x40 DUP6 ADD DUP3 PUSH2 0x1EA2 JUMP JUMPDEST POP PUSH1 0x60 DUP3 ADD MLOAD PUSH2 0x1FD9 PUSH1 0x60 DUP6 ADD DUP3 PUSH2 0x1F04 JUMP JUMPDEST POP PUSH1 0x80 DUP3 ADD MLOAD PUSH2 0x1FEC PUSH1 0x80 DUP6 ADD DUP3 PUSH2 0x1F04 JUMP JUMPDEST POP PUSH1 0xA0 DUP3 ADD MLOAD PUSH2 0x1FFF PUSH1 0xA0 DUP6 ADD DUP3 PUSH2 0x1EA2 JUMP JUMPDEST POP PUSH1 0xC0 DUP3 ADD MLOAD PUSH2 0x2012 PUSH1 0xC0 DUP6 ADD DUP3 PUSH2 0x1F7B JUMP JUMPDEST POP POP POP POP JUMP JUMPDEST PUSH1 0x0 PUSH1 0xE0 DUP3 ADD SWAP1 POP PUSH2 0x202D PUSH1 0x0 DUP4 ADD DUP5 PUSH2 0x1F8A JUMP JUMPDEST SWAP3 SWAP2 POP POP JUMP JUMPDEST PUSH1 0x0 DUP2 SWAP1 POP SWAP2 SWAP1 POP JUMP JUMPDEST PUSH1 0x0 PUSH2 0x2058 PUSH2 0x2053 PUSH2 0x204E DUP5 PUSH2 0x1EB1 JUMP JUMPDEST PUSH2 0x2033 JUMP JUMPDEST PUSH2 0x1EB1 JUMP JUMPDEST SWAP1 POP SWAP2 SWAP1 POP JUMP JUMPDEST PUSH1 0x0 PUSH2 0x206A DUP3 PUSH2 0x203D JUMP JUMPDEST SWAP1 POP SWAP2 SWAP1 POP JUMP JUMPDEST PUSH1 0x0 PUSH2 0x207C DUP3 PUSH2 0x205F JUMP JUMPDEST SWAP1 POP SWAP2 SWAP1 POP JUMP JUMPDEST PUSH2 0x208C DUP2 PUSH2 0x2071 JUMP JUMPDEST DUP3 MSTORE POP POP JUMP JUMPDEST PUSH1 0x0 PUSH1 0x20 DUP3 ADD SWAP1 POP PUSH2 0x20A7 PUSH1 0x0 DUP4 ADD DUP5 PUSH2 0x2083 JUMP JUMPDEST SWAP3 SWAP2 POP POP JUMP JUMPDEST PUSH1 0x0 DUP2 MLOAD SWAP1 POP SWAP2 SWAP1 POP JUMP JUMPDEST PUSH1 0x0 DUP3 DUP3 MSTORE PUSH1 0x20 DUP3 ADD SWAP1 POP SWAP3 SWAP2 POP POP JUMP JUMPDEST PUSH1 0x0 DUP2 SWAP1 POP PUSH1 0x20 DUP3 ADD SWAP1 POP SWAP2 SWAP1 POP JUMP JUMPDEST PUSH1 0xE0 DUP3 ADD PUSH1 0x0 DUP3 ADD MLOAD PUSH2 0x20EF PUSH1 0x0 DUP6 ADD DUP3 PUSH2 0x1EA2 JUMP JUMPDEST POP PUSH1 0x20 DUP3 ADD MLOAD PUSH2 0x2102 PUSH1 0x20 DUP6 ADD DUP3 PUSH2 0x1EE3 JUMP JUMPDEST POP PUSH1 0x40 DUP3 ADD MLOAD PUSH2 0x2115 PUSH1 0x40 DUP6 ADD DUP3 PUSH2 0x1EA2 JUMP JUMPDEST POP PUSH1 0x60 DUP3 ADD MLOAD PUSH2 0x2128 PUSH1 0x60 DUP6 ADD DUP3 PUSH2 0x1F04 JUMP JUMPDEST POP PUSH1 0x80 DUP3 ADD MLOAD PUSH2 0x213B PUSH1 0x80 DUP6 ADD DUP3 PUSH2 0x1F04 JUMP JUMPDEST POP PUSH1 0xA0 DUP3 ADD MLOAD PUSH2 0x214E PUSH1 0xA0 DUP6 ADD DUP3 PUSH2 0x1EA2 JUMP JUMPDEST POP PUSH1 0xC0 DUP3 ADD MLOAD PUSH2 0x2161 PUSH1 0xC0 DUP6 ADD DUP3 PUSH2 0x1F7B JUMP JUMPDEST POP POP POP POP JUMP JUMPDEST PUSH1 0x0 PUSH2 0x2173 DUP4 DUP4 PUSH2 0x20D9 JUMP JUMPDEST PUSH1 0xE0 DUP4 ADD SWAP1 POP SWAP3 SWAP2 POP POP JUMP JUMPDEST PUSH1 0x0 PUSH1 0x20 DUP3 ADD SWAP1 POP SWAP2 SWAP1 POP JUMP JUMPDEST PUSH1 0x0 PUSH2 0x2197 DUP3 PUSH2 0x20AD JUMP JUMPDEST PUSH2 0x21A1 DUP2 DUP6 PUSH2 0x20B8 JUMP JUMPDEST SWAP4 POP PUSH2 0x21AC DUP4 PUSH2 0x20C9 JUMP JUMPDEST DUP1 PUSH1 0x0 JUMPDEST DUP4 DUP2 LT ISZERO PUSH2 0x21DD JUMPI DUP2 MLOAD PUSH2 0x21C4 DUP9 DUP3 PUSH2 0x2167 JUMP JUMPDEST SWAP8 POP PUSH2 0x21CF DUP4 PUSH2 0x217F JUMP JUMPDEST SWAP3 POP POP PUSH1 0x1 DUP2 ADD SWAP1 POP PUSH2 0x21B0 JUMP JUMPDEST POP DUP6 SWAP4 POP POP POP POP SWAP3 SWAP2 POP POP JUMP JUMPDEST PUSH1 0x0 PUSH1 0x20 DUP3 ADD SWAP1 POP DUP2 DUP2 SUB PUSH1 0x0 DUP4 ADD MSTORE PUSH2 0x2204 DUP2 DUP5 PUSH2 0x218C JUMP JUMPDEST SWAP1 POP SWAP3 SWAP2 POP POP JUMP JUMPDEST PUSH1 0x0 DUP1 REVERT JUMPDEST PUSH2 0x221A DUP2 PUSH2 0x1ED1 JUMP JUMPDEST DUP2 EQ PUSH2 0x2225 JUMPI PUSH1 0x0 DUP1 REVERT JUMPDEST POP JUMP JUMPDEST PUSH1 0x0 DUP2 CALLDATALOAD SWAP1 POP PUSH2 0x2237 DUP2 PUSH2 0x2211 JUMP JUMPDEST SWAP3 SWAP2 POP POP JUMP JUMPDEST PUSH2 0x2246 DUP2 PUSH2 0x1E98 JUMP JUMPDEST DUP2 EQ PUSH2 0x2251 JUMPI PUSH1 0x0 DUP1 REVERT JUMPDEST POP JUMP JUMPDEST PUSH1 0x0 DUP2 CALLDATALOAD SWAP1 POP PUSH2 0x2263 DUP2 PUSH2 0x223D JUMP JUMPDEST SWAP3 SWAP2 POP POP JUMP JUMPDEST PUSH1 0x0 DUP1 PUSH1 0x0 PUSH1 0x60 DUP5 DUP7 SUB SLT ISZERO PUSH2 0x2282 JUMPI PUSH2 0x2281 PUSH2 0x220C JUMP JUMPDEST JUMPDEST PUSH1 0x0 PUSH2 0x2290 DUP7 DUP3 DUP8 ADD PUSH2 0x2228 JUMP JUMPDEST SWAP4 POP POP PUSH1 0x20 PUSH2 0x22A1 DUP7 DUP3 DUP8 ADD PUSH2 0x2254 JUMP JUMPDEST SWAP3 POP POP PUSH1 0x40 PUSH2 0x22B2 DUP7 DUP3 DUP8 ADD PUSH2 0x2254 JUMP JUMPDEST SWAP2 POP POP SWAP3 POP SWAP3 POP SWAP3 JUMP JUMPDEST PUSH1 0x0 PUSH1 0x20 DUP3 DUP5 SUB SLT ISZERO PUSH2 0x22D2 JUMPI PUSH2 0x22D1 PUSH2 0x220C JUMP JUMPDEST JUMPDEST PUSH1 0x0 PUSH2 0x22E0 DUP5 DUP3 DUP6 ADD PUSH2 0x2254 JUMP JUMPDEST SWAP2 POP POP SWAP3 SWAP2 POP POP JUMP JUMPDEST PUSH1 0x0 PUSH32 0xFFFFFFFF00000000000000000000000000000000000000000000000000000000 DUP3 AND SWAP1 POP SWAP2 SWAP1 POP JUMP JUMPDEST PUSH2 0x231E DUP2 PUSH2 0x22E9 JUMP JUMPDEST DUP3 MSTORE POP POP JUMP JUMPDEST PUSH1 0x0 PUSH1 0x20 DUP3 ADD SWAP1 POP PUSH2 0x2339 PUSH1 0x0 DUP4 ADD DUP5 PUSH2 0x2315 JUMP JUMPDEST SWAP3 SWAP2 POP POP JUMP JUMPDEST PUSH2 0x2348 DUP2 PUSH2 0x1E98 JUMP JUMPDEST DUP3 MSTORE POP POP JUMP JUMPDEST PUSH2 0x2357 DUP2 PUSH2 0x1ED1 JUMP JUMPDEST DUP3 MSTORE POP POP JUMP JUMPDEST PUSH2 0x2366 DUP2 PUSH2 0x1EF2 JUMP JUMPDEST DUP3 MSTORE POP POP JUMP JUMPDEST PUSH2 0x2375 DUP2 PUSH2 0x1F69 JUMP JUMPDEST DUP3 MSTORE POP POP JUMP JUMPDEST PUSH1 0x0 PUSH1 0xE0 DUP3 ADD SWAP1 POP PUSH2 0x2390 PUSH1 0x0 DUP4 ADD DUP11 PUSH2 0x233F JUMP JUMPDEST PUSH2 0x239D PUSH1 0x20 DUP4 ADD DUP10 PUSH2 0x234E JUMP JUMPDEST PUSH2 0x23AA PUSH1 0x40 DUP4 ADD DUP9 PUSH2 0x233F JUMP JUMPDEST PUSH2 0x23B7 PUSH1 0x60 DUP4 ADD DUP8 PUSH2 0x235D JUMP JUMPDEST PUSH2 0x23C4 PUSH1 0x80 DUP4 ADD DUP7 PUSH2 0x235D JUMP JUMPDEST PUSH2 0x23D1 PUSH1 0xA0 DUP4 ADD DUP6 PUSH2 0x233F JUMP JUMPDEST PUSH2 0x23DE PUSH1 0xC0 DUP4 ADD DUP5 PUSH2 0x236C JUMP JUMPDEST SWAP9 SWAP8 POP POP POP POP POP POP POP POP JUMP JUMPDEST PUSH1 0x0 DUP1 PUSH1 0x40 DUP4 DUP6 SUB SLT ISZERO PUSH2 0x2401 JUMPI PUSH2 0x2400 PUSH2 0x220C JUMP JUMPDEST JUMPDEST PUSH1 0x0 PUSH2 0x240F DUP6 DUP3 DUP7 ADD PUSH2 0x2228 JUMP JUMPDEST SWAP3 POP POP PUSH1 0x20 PUSH2 0x2420 DUP6 DUP3 DUP7 ADD PUSH2 0x2254 JUMP JUMPDEST SWAP2 POP POP SWAP3 POP SWAP3 SWAP1 POP JUMP JUMPDEST PUSH1 0x0 PUSH1 0xFF DUP3 AND SWAP1 POP SWAP2 SWAP1 POP JUMP JUMPDEST PUSH2 0x2440 DUP2 PUSH2 0x242A JUMP JUMPDEST DUP3 MSTORE POP POP JUMP JUMPDEST PUSH1 0x0 PUSH1 0x20 DUP3 ADD SWAP1 POP PUSH2 0x245B PUSH1 0x0 DUP4 ADD DUP5 PUSH2 0x2437 JUMP JUMPDEST SWAP3 SWAP2 POP POP JUMP JUMPDEST PUSH1 0x0 PUSH1 0x20 DUP3 ADD SWAP1 POP PUSH2 0x2476 PUSH1 0x0 DUP4 ADD DUP5 PUSH2 0x234E JUMP JUMPDEST SWAP3 SWAP2 POP POP JUMP JUMPDEST PUSH1 0x0 PUSH1 0x20 DUP3 DUP5 SUB SLT ISZERO PUSH2 0x2492 JUMPI PUSH2 0x2491 PUSH2 0x220C JUMP JUMPDEST JUMPDEST PUSH1 0x0 PUSH2 0x24A0 DUP5 DUP3 DUP6 ADD PUSH2 0x2228 JUMP JUMPDEST SWAP2 POP POP SWAP3 SWAP2 POP POP JUMP JUMPDEST PUSH32 0x4E487B7100000000000000000000000000000000000000000000000000000000 PUSH1 0x0 MSTORE PUSH1 0x11 PUSH1 0x4 MSTORE PUSH1 0x24 PUSH1 0x0 REVERT JUMPDEST PUSH1 0x0 PUSH2 0x24E3 DUP3 PUSH2 0x1E98 JUMP JUMPDEST SWAP2 POP PUSH2 0x24EE DUP4 PUSH2 0x1E98 JUMP JUMPDEST SWAP3 POP DUP3 PUSH32 0xFFFFFFFFFFFFFFFFFFFFFFFFFFFFFFFFFFFFFFFFFFFFFFFFFFFFFFFFFFFFFFFF SUB DUP3 GT ISZERO PUSH2 0x2523 JUMPI PUSH2 0x2522 PUSH2 0x24A9 JUMP JUMPDEST JUMPDEST DUP3 DUP3 ADD SWAP1 POP SWAP3 SWAP2 POP POP JUMP JUMPDEST PUSH1 0x0 PUSH2 0x2539 DUP3 PUSH2 0x1E98 JUMP JUMPDEST SWAP2 POP PUSH32 0xFFFFFFFFFFFFFFFFFFFFFFFFFFFFFFFFFFFFFFFFFFFFFFFFFFFFFFFFFFFFFFFF DUP3 SUB PUSH2 0x256B JUMPI PUSH2 0x256A PUSH2 0x24A9 JUMP JUMPDEST JUMPDEST PUSH1 0x1 DUP3 ADD SWAP1 POP SWAP2 SWAP1 POP JUMP JUMPDEST PUSH32 0x4E487B7100000000000000000000000000000000000000000000000000000000 PUSH1 0x0 MSTORE PUSH1 0x41 PUSH1 0x4 MSTORE PUSH1 0x24 PUSH1 0x0 REVERT JUMPDEST PUSH32 0x4E487B7100000000000000000000000000000000000000000000000000000000 PUSH1 0x0 MSTORE PUSH1 0x32 PUSH1 0x4 MSTORE PUSH1 0x24 PUSH1 0x0 REVERT JUMPDEST PUSH1 0x0 DUP3 DUP3 MSTORE PUSH1 0x20 DUP3 ADD SWAP1 POP SWAP3 SWAP2 POP POP JUMP JUMPDEST PUSH32 0x5265656E7472616E637947756172643A207265656E7472616E742063616C6C00 PUSH1 0x0 DUP3 ADD MSTORE POP JUMP JUMPDEST PUSH1 0x0 PUSH2 0x261B PUSH1 0x1F DUP4 PUSH2 0x25D4 JUMP JUMPDEST SWAP2 POP PUSH2 0x2626 DUP3 PUSH2 0x25E5 JUMP JUMPDEST PUSH1 0x20 DUP3 ADD SWAP1 POP SWAP2 SWAP1 POP JUMP JUMPDEST PUSH1 0x0 PUSH1 0x20 DUP3 ADD SWAP1 POP DUP2 DUP2 SUB PUSH1 0x0 DUP4 ADD MSTORE PUSH2 0x264A DUP2 PUSH2 0x260E JUMP JUMPDEST SWAP1 POP SWAP2 SWAP1 POP JUMP JUMPDEST PUSH32 0x506C65617365207375626D6974207468652061736B696E672070726963652069 PUSH1 0x0 DUP3 ADD MSTORE PUSH32 0x6E206F7264657220746F20636F6D706C65746520746865207075726368617365 PUSH1 0x20 DUP3 ADD MSTORE POP JUMP JUMPDEST PUSH1 0x0 PUSH2 0x26AD PUSH1 0x40 DUP4 PUSH2 0x25D4 JUMP JUMPDEST SWAP2 POP PUSH2 0x26B8 DUP3 PUSH2 0x2651 JUMP JUMPDEST PUSH1 0x40 DUP3 ADD SWAP1 POP SWAP2 SWAP1 POP JUMP JUMPDEST PUSH1 0x0 PUSH1 0x20 DUP3 ADD SWAP1 POP DUP2 DUP2 SUB PUSH1 0x0 DUP4 ADD MSTORE PUSH2 0x26DC DUP2 PUSH2 0x26A0 JUMP JUMPDEST SWAP1 POP SWAP2 SWAP1 POP JUMP JUMPDEST PUSH1 0x0 PUSH2 0x26EE DUP3 PUSH2 0x205F JUMP JUMPDEST SWAP1 POP SWAP2 SWAP1 POP JUMP JUMPDEST PUSH2 0x26FE DUP2 PUSH2 0x26E3 JUMP JUMPDEST DUP3 MSTORE POP POP JUMP JUMPDEST PUSH1 0x0 PUSH1 0x60 DUP3 ADD SWAP1 POP PUSH2 0x2719 PUSH1 0x0 DUP4 ADD DUP7 PUSH2 0x234E JUMP JUMPDEST PUSH2 0x2726 PUSH1 0x20 DUP4 ADD DUP6 PUSH2 0x26F5 JUMP JUMPDEST PUSH2 0x2733 PUSH1 0x40 DUP4 ADD DUP5 PUSH2 0x233F JUMP JUMPDEST SWAP5 SWAP4 POP POP POP POP JUMP JUMPDEST PUSH1 0x0 DUP2 ISZERO ISZERO SWAP1 POP SWAP2 SWAP1 POP JUMP JUMPDEST PUSH2 0x2750 DUP2 PUSH2 0x273B JUMP JUMPDEST DUP2 EQ PUSH2 0x275B JUMPI PUSH1 0x0 DUP1 REVERT JUMPDEST POP JUMP JUMPDEST PUSH1 0x0 DUP2 MLOAD SWAP1 POP PUSH2 0x276D DUP2 PUSH2 0x2747 JUMP JUMPDEST SWAP3 SWAP2 POP POP JUMP JUMPDEST PUSH1 0x0 PUSH1 0x20 DUP3 DUP5 SUB SLT ISZERO PUSH2 0x2789 JUMPI PUSH2 0x2788 PUSH2 0x220C JUMP JUMPDEST JUMPDEST PUSH1 0x0 PUSH2 0x2797 DUP5 DUP3 DUP6 ADD PUSH2 0x275E JUMP JUMPDEST SWAP2 POP POP SWAP3 SWAP2 POP POP JUMP JUMPDEST PUSH1 0x0 PUSH1 0x60 DUP3 ADD SWAP1 POP PUSH2 0x27B5 PUSH1 0x0 DUP4 ADD DUP7 PUSH2 0x234E JUMP JUMPDEST PUSH2 0x27C2 PUSH1 0x20 DUP4 ADD DUP6 PUSH2 0x234E JUMP JUMPDEST PUSH2 0x27CF PUSH1 0x40 DUP4 ADD DUP5 PUSH2 0x233F JUMP JUMPDEST SWAP5 SWAP4 POP POP POP POP JUMP JUMPDEST PUSH32 0x5072696365206D757374206265206174206C6561737420312077656900000000 PUSH1 0x0 DUP3 ADD MSTORE POP JUMP JUMPDEST PUSH1 0x0 PUSH2 0x280D PUSH1 0x1C DUP4 PUSH2 0x25D4 JUMP JUMPDEST SWAP2 POP PUSH2 0x2818 DUP3 PUSH2 0x27D7 JUMP JUMPDEST PUSH1 0x20 DUP3 ADD SWAP1 POP SWAP2 SWAP1 POP JUMP JUMPDEST PUSH1 0x0 PUSH1 0x20 DUP3 ADD SWAP1 POP DUP2 DUP2 SUB PUSH1 0x0 DUP4 ADD MSTORE PUSH2 0x283C DUP2 PUSH2 0x2800 JUMP JUMPDEST SWAP1 POP SWAP2 SWAP1 POP JUMP JUMPDEST PUSH32 0x4F776E61626C653A2063616C6C6572206973206E6F7420746865206F776E6572 PUSH1 0x0 DUP3 ADD MSTORE POP JUMP JUMPDEST PUSH1 0x0 PUSH2 0x2879 PUSH1 0x20 DUP4 PUSH2 0x25D4 JUMP JUMPDEST SWAP2 POP PUSH2 0x2884 DUP3 PUSH2 0x2843 JUMP JUMPDEST PUSH1 0x20 DUP3 ADD SWAP1 POP SWAP2 SWAP1 POP JUMP JUMPDEST PUSH1 0x0 PUSH1 0x20 DUP3 ADD SWAP1 POP DUP2 DUP2 SUB PUSH1 0x0 DUP4 ADD MSTORE PUSH2 0x28A8 DUP2 PUSH2 0x286C JUMP JUMPDEST SWAP1 POP SWAP2 SWAP1 POP JUMP JUMPDEST PUSH32 0x4173736574206E6F74207075626C697368656400000000000000000000000000 PUSH1 0x0 DUP3 ADD MSTORE POP JUMP JUMPDEST PUSH1 0x0 PUSH2 0x28E5 PUSH1 0x13 DUP4 PUSH2 0x25D4 JUMP JUMPDEST SWAP2 POP PUSH2 0x28F0 DUP3 PUSH2 0x28AF JUMP JUMPDEST PUSH1 0x20 DUP3 ADD SWAP1 POP SWAP2 SWAP1 POP JUMP JUMPDEST PUSH1 0x0 PUSH1 0x20 DUP3 ADD SWAP1 POP DUP2 DUP2 SUB PUSH1 0x0 DUP4 ADD MSTORE PUSH2 0x2914 DUP2 PUSH2 0x28D8 JUMP JUMPDEST SWAP1 POP SWAP2 SWAP1 POP JUMP JUMPDEST PUSH32 0x41737365742064656C6973746564000000000000000000000000000000000000 PUSH1 0x0 DUP3 ADD MSTORE POP JUMP JUMPDEST PUSH1 0x0 PUSH2 0x2951 PUSH1 0xE DUP4 PUSH2 0x25D4 JUMP JUMPDEST SWAP2 POP PUSH2 0x295C DUP3 PUSH2 0x291B JUMP JUMPDEST PUSH1 0x20 DUP3 ADD SWAP1 POP SWAP2 SWAP1 POP JUMP JUMPDEST PUSH1 0x0 PUSH1 0x20 DUP3 ADD SWAP1 POP DUP2 DUP2 SUB PUSH1 0x0 DUP4 ADD MSTORE PUSH2 0x2980 DUP2 PUSH2 0x2944 JUMP JUMPDEST SWAP1 POP SWAP2 SWAP1 POP JUMP JUMPDEST PUSH32 0x496E76616C696420616464726573730000000000000000000000000000000000 PUSH1 0x0 DUP3 ADD MSTORE POP JUMP JUMPDEST PUSH1 0x0 PUSH2 0x29BD PUSH1 0xF DUP4 PUSH2 0x25D4 JUMP JUMPDEST SWAP2 POP PUSH2 0x29C8 DUP3 PUSH2 0x2987 JUMP JUMPDEST PUSH1 0x20 DUP3 ADD SWAP1 POP SWAP2 SWAP1 POP JUMP JUMPDEST PUSH1 0x0 PUSH1 0x20 DUP3 ADD SWAP1 POP DUP2 DUP2 SUB PUSH1 0x0 DUP4 ADD MSTORE PUSH2 0x29EC DUP2 PUSH2 0x29B0 JUMP JUMPDEST SWAP1 POP SWAP2 SWAP1 POP JUMP JUMPDEST PUSH32 0x4F6E6C792073656C6C65722063616E2064656C69737400000000000000000000 PUSH1 0x0 DUP3 ADD MSTORE POP JUMP JUMPDEST PUSH1 0x0 PUSH2 0x2A29 PUSH1 0x16 DUP4 PUSH2 0x25D4 JUMP JUMPDEST SWAP2 POP PUSH2 0x2A34 DUP3 PUSH2 0x29F3 JUMP JUMPDEST PUSH1 0x20 DUP3 ADD SWAP1 POP SWAP2 SWAP1 POP JUMP JUMPDEST PUSH1 0x0 PUSH1 0x20 DUP3 ADD SWAP1 POP DUP2 DUP2 SUB PUSH1 0x0 DUP4 ADD MSTORE PUSH2 0x2A58 DUP2 PUSH2 0x2A1C JUMP JUMPDEST SWAP1 POP SWAP2 SWAP1 POP JUMP JUMPDEST PUSH1 0x0 PUSH1 0x60 DUP3 ADD SWAP1 POP PUSH2 0x2A74 PUSH1 0x0 DUP4 ADD DUP7 PUSH2 0x234E JUMP JUMPDEST PUSH2 0x2A81 PUSH1 0x20 DUP4 ADD DUP6 PUSH2 0x233F JUMP JUMPDEST PUSH2 0x2A8E PUSH1 0x40 DUP4 ADD DUP5 PUSH2 0x233F JUMP JUMPDEST SWAP5 SWAP4 POP POP POP POP JUMP JUMPDEST PUSH32 0x4F776E61626C653A206E6577206F776E657220697320746865207A65726F2061 PUSH1 0x0 DUP3 ADD MSTORE PUSH32 0x6464726573730000000000000000000000000000000000000000000000000000 PUSH1 0x20 DUP3 ADD MSTORE POP JUMP JUMPDEST PUSH1 0x0 PUSH2 0x2AF2 PUSH1 0x26 DUP4 PUSH2 0x25D4 JUMP JUMPDEST SWAP2 POP PUSH2 0x2AFD DUP3 PUSH2 0x2A96 JUMP JUMPDEST PUSH1 0x40 DUP3 ADD SWAP1 POP SWAP2 SWAP1 POP JUMP JUMPDEST PUSH1 0x0 PUSH1 0x20 DUP3 ADD SWAP1 POP DUP2 DUP2 SUB PUSH1 0x0 DUP4 ADD MSTORE PUSH2 0x2B21 DUP2 PUSH2 0x2AE5 JUMP JUMPDEST SWAP1 POP SWAP2 SWAP1 POP JUMP JUMPDEST PUSH32 0x546865204E465420416464726573732073686F756C64206265206120636F6E74 PUSH1 0x0 DUP3 ADD MSTORE PUSH32 0x7261637400000000000000000000000000000000000000000000000000000000 PUSH1 0x20 DUP3 ADD MSTORE POP JUMP JUMPDEST PUSH1 0x0 PUSH2 0x2B84 PUSH1 0x24 DUP4 PUSH2 0x25D4 JUMP JUMPDEST SWAP2 POP PUSH2 0x2B8F DUP3 PUSH2 0x2B28 JUMP JUMPDEST PUSH1 0x40 DUP3 ADD SWAP1 POP SWAP2 SWAP1 POP JUMP JUMPDEST PUSH1 0x0 PUSH1 0x20 DUP3 ADD SWAP1 POP DUP2 DUP2 SUB PUSH1 0x0 DUP4 ADD MSTORE PUSH2 0x2BB3 DUP2 PUSH2 0x2B77 JUMP JUMPDEST SWAP1 POP SWAP2 SWAP1 POP JUMP JUMPDEST PUSH32 0x546865204E465420636F6E74726163742068617320616E20696E76616C696420 PUSH1 0x0 DUP3 ADD MSTORE PUSH32 0x45524337323120696D706C656D656E746174696F6E0000000000000000000000 PUSH1 0x20 DUP3 ADD MSTORE POP JUMP JUMPDEST PUSH1 0x0 PUSH2 0x2C16 PUSH1 0x35 DUP4 PUSH2 0x25D4 JUMP JUMPDEST SWAP2 POP PUSH2 0x2C21 DUP3 PUSH2 0x2BBA JUMP JUMPDEST PUSH1 0x40 DUP3 ADD SWAP1 POP SWAP2 SWAP1 POP JUMP JUMPDEST PUSH1 0x0 PUSH1 0x20 DUP3 ADD SWAP1 POP DUP2 DUP2 SUB PUSH1 0x0 DUP4 ADD MSTORE PUSH2 0x2C45 DUP2 PUSH2 0x2C09 JUMP JUMPDEST SWAP1 POP SWAP2 SWAP1 POP JUMP INVALID LOG2 PUSH5 0x6970667358 0x22 SLT KECCAK256 PUSH13 0xF7CB70BE597C70601005637E50 STATICCALL DUP9 0x27 0xD4 XOR PUSH2 0x3889 SWAP7 SLT CREATE2 CODECOPY PUSH26 0x6892D9BD64736F6C634300080D003300000000000000000000 "
				},
				"gasEstimates": {
					"creation": {
						"codeDepositCost": "2278800",
						"executionCost": "infinite",
						"totalCost": "infinite"
					},
					"external": {
						"ERC721_Interface()": "386",
						"allItems(uint256)": "infinite",
						"allMarketItems()": "infinite",
						"antaFeePercent()": "2565",
						"bnbFeePercent()": "2566",
						"createMarketItem(address,uint256,uint256)": "infinite",
						"createMarketSale(address,uint256,uint256)": "infinite",
						"delistItem(address,uint256)": "infinite",
						"fetchMarketItem(uint256)": "infinite",
						"fetchMarketItems()": "infinite",
						"fetchMyNFTs()": "infinite",
						"getMarketItem(uint256)": "infinite",
						"items(address,uint256)": "infinite",
						"owner()": "2589",
						"renounceOwnership()": "30397",
						"setSQFToken(address)": "27051",
						"sqfToken()": "infinite",
						"transferOwnership(address)": "30808"
					},
					"internal": {
						"_requireERC721(address)": "infinite",
						"isContract(address)": "2653"
					}
				},
				"methodIdentifiers": {
					"ERC721_Interface()": "2b4c32be",
					"allItems(uint256)": "ff68fa6e",
					"allMarketItems()": "517bd451",
					"antaFeePercent()": "b7a60c7e",
					"bnbFeePercent()": "85a8b36c",
					"createMarketItem(address,uint256,uint256)": "58eb2df5",
					"createMarketSale(address,uint256,uint256)": "21cf91ac",
					"delistItem(address,uint256)": "ad9a0369",
					"fetchMarketItem(uint256)": "2a45b250",
					"fetchMarketItems()": "0f08efe0",
					"fetchMyNFTs()": "202e3740",
					"getMarketItem(uint256)": "c7be7a49",
					"items(address,uint256)": "5c80a435",
					"owner()": "8da5cb5b",
					"renounceOwnership()": "715018a6",
					"setSQFToken(address)": "92bf77dd",
					"sqfToken()": "15b81dc3",
					"transferOwnership(address)": "f2fde38b"
				}
			},
			"storageLayout": {
				"storage": [
					{
						"astId": 409,
						"contract": "contracts/Marketplace2/Marketplace.sol:NFTMarket",
						"label": "_status",
						"offset": 0,
						"slot": "0",
						"type": "t_uint256"
					},
					{
						"astId": 491,
						"contract": "contracts/Marketplace2/Marketplace.sol:NFTMarket",
						"label": "allMarketItems",
						"offset": 0,
						"slot": "1",
						"type": "t_struct(MarketItem)488_storage"
					},
					{
						"astId": 502,
						"contract": "contracts/Marketplace2/Marketplace.sol:NFTMarket",
						"label": "allItems",
						"offset": 0,
						"slot": "8",
						"type": "t_mapping(t_uint256,t_struct(MarketItem)488_storage)"
					},
					{
						"astId": 509,
						"contract": "contracts/Marketplace2/Marketplace.sol:NFTMarket",
						"label": "items",
						"offset": 0,
						"slot": "9",
						"type": "t_mapping(t_address,t_mapping(t_uint256,t_struct(MarketItem)488_storage))"
					},
					{
						"astId": 512,
						"contract": "contracts/Marketplace2/Marketplace.sol:NFTMarket",
						"label": "sqfToken",
						"offset": 0,
						"slot": "10",
						"type": "t_contract(IERC20)201"
					},
					{
						"astId": 514,
						"contract": "contracts/Marketplace2/Marketplace.sol:NFTMarket",
						"label": "bnbFeePercent",
						"offset": 20,
						"slot": "10",
						"type": "t_uint8"
					},
					{
						"astId": 516,
						"contract": "contracts/Marketplace2/Marketplace.sol:NFTMarket",
						"label": "antaFeePercent",
						"offset": 21,
						"slot": "10",
						"type": "t_uint8"
					},
					{
						"astId": 27,
						"contract": "contracts/Marketplace2/Marketplace.sol:NFTMarket",
						"label": "_owner",
						"offset": 0,
						"slot": "11",
						"type": "t_address"
					},
					{
						"astId": 594,
						"contract": "contracts/Marketplace2/Marketplace.sol:NFTMarket",
						"label": "_itemIds",
						"offset": 0,
						"slot": "12",
						"type": "t_struct(Counter)331_storage"
					},
					{
						"astId": 597,
						"contract": "contracts/Marketplace2/Marketplace.sol:NFTMarket",
						"label": "_itemsSold",
						"offset": 0,
						"slot": "13",
						"type": "t_struct(Counter)331_storage"
					},
					{
						"astId": 602,
						"contract": "contracts/Marketplace2/Marketplace.sol:NFTMarket",
						"label": "idToMarketItem",
						"offset": 0,
						"slot": "14",
						"type": "t_mapping(t_uint256,t_struct(MarketItem)488_storage)"
					}
				],
				"types": {
					"t_address": {
						"encoding": "inplace",
						"label": "address",
						"numberOfBytes": "20"
					},
					"t_address_payable": {
						"encoding": "inplace",
						"label": "address payable",
						"numberOfBytes": "20"
					},
					"t_contract(IERC20)201": {
						"encoding": "inplace",
						"label": "contract IERC20",
						"numberOfBytes": "20"
					},
					"t_enum(ItemStatus)472": {
						"encoding": "inplace",
						"label": "enum MarketplaceStorage.ItemStatus",
						"numberOfBytes": "1"
					},
					"t_mapping(t_address,t_mapping(t_uint256,t_struct(MarketItem)488_storage))": {
						"encoding": "mapping",
						"key": "t_address",
						"label": "mapping(address => mapping(uint256 => struct MarketplaceStorage.MarketItem))",
						"numberOfBytes": "32",
						"value": "t_mapping(t_uint256,t_struct(MarketItem)488_storage)"
					},
					"t_mapping(t_uint256,t_struct(MarketItem)488_storage)": {
						"encoding": "mapping",
						"key": "t_uint256",
						"label": "mapping(uint256 => struct MarketplaceStorage.MarketItem)",
						"numberOfBytes": "32",
						"value": "t_struct(MarketItem)488_storage"
					},
					"t_struct(Counter)331_storage": {
						"encoding": "inplace",
						"label": "struct Counters.Counter",
						"members": [
							{
								"astId": 330,
								"contract": "contracts/Marketplace2/Marketplace.sol:NFTMarket",
								"label": "_value",
								"offset": 0,
								"slot": "0",
								"type": "t_uint256"
							}
						],
						"numberOfBytes": "32"
					},
					"t_struct(MarketItem)488_storage": {
						"encoding": "inplace",
						"label": "struct MarketplaceStorage.MarketItem",
						"members": [
							{
								"astId": 474,
								"contract": "contracts/Marketplace2/Marketplace.sol:NFTMarket",
								"label": "itemId",
								"offset": 0,
								"slot": "0",
								"type": "t_uint256"
							},
							{
								"astId": 476,
								"contract": "contracts/Marketplace2/Marketplace.sol:NFTMarket",
								"label": "nftContract",
								"offset": 0,
								"slot": "1",
								"type": "t_address"
							},
							{
								"astId": 478,
								"contract": "contracts/Marketplace2/Marketplace.sol:NFTMarket",
								"label": "tokenId",
								"offset": 0,
								"slot": "2",
								"type": "t_uint256"
							},
							{
								"astId": 480,
								"contract": "contracts/Marketplace2/Marketplace.sol:NFTMarket",
								"label": "seller",
								"offset": 0,
								"slot": "3",
								"type": "t_address_payable"
							},
							{
								"astId": 482,
								"contract": "contracts/Marketplace2/Marketplace.sol:NFTMarket",
								"label": "owner",
								"offset": 0,
								"slot": "4",
								"type": "t_address_payable"
							},
							{
								"astId": 484,
								"contract": "contracts/Marketplace2/Marketplace.sol:NFTMarket",
								"label": "price",
								"offset": 0,
								"slot": "5",
								"type": "t_uint256"
							},
							{
								"astId": 487,
								"contract": "contracts/Marketplace2/Marketplace.sol:NFTMarket",
								"label": "status",
								"offset": 0,
								"slot": "6",
								"type": "t_enum(ItemStatus)472"
							}
						],
						"numberOfBytes": "224"
					},
					"t_uint256": {
						"encoding": "inplace",
						"label": "uint256",
						"numberOfBytes": "32"
					},
					"t_uint8": {
						"encoding": "inplace",
						"label": "uint8",
						"numberOfBytes": "1"
					}
				}
			},
			"userdoc": {
				"kind": "user",
				"methods": {},
				"version": 1
			}
		}
	}
}