{
	"contracts/Marketplace2/Marketplace.sol": {
		"NFTMarket": {
			"abi": [
				{
					"anonymous": false,
					"inputs": [
						{
							"indexed": false,
							"internalType": "bytes32",
							"name": "id",
							"type": "bytes32"
						},
						{
							"indexed": true,
							"internalType": "uint256",
							"name": "assetId",
							"type": "uint256"
						},
						{
							"indexed": true,
							"internalType": "address",
							"name": "seller",
							"type": "address"
						},
						{
							"indexed": false,
							"internalType": "address",
							"name": "nftAddress",
							"type": "address"
						},
						{
							"indexed": false,
							"internalType": "uint256",
							"name": "price",
							"type": "uint256"
						},
						{
							"indexed": false,
							"internalType": "uint8",
							"name": "feePercent",
							"type": "uint8"
						},
						{
							"indexed": false,
							"internalType": "uint256",
							"name": "fee",
							"type": "uint256"
						},
						{
							"indexed": true,
							"internalType": "address",
							"name": "buyer",
							"type": "address"
						},
						{
							"indexed": false,
							"internalType": "string",
							"name": "currency",
							"type": "string"
						},
						{
							"indexed": false,
							"internalType": "uint256",
							"name": "createdAt",
							"type": "uint256"
						}
					],
					"name": "BuyItemSuccessful",
					"type": "event"
				},
				{
					"anonymous": false,
					"inputs": [
						{
							"indexed": true,
							"internalType": "address",
							"name": "receiver",
							"type": "address"
						},
						{
							"indexed": false,
							"internalType": "uint256",
							"name": "value",
							"type": "uint256"
						}
					],
					"name": "Claim",
					"type": "event"
				},
				{
					"anonymous": false,
					"inputs": [
						{
							"indexed": false,
							"internalType": "address",
							"name": "nftAddress",
							"type": "address"
						},
						{
							"indexed": false,
							"internalType": "bytes32",
							"name": "id",
							"type": "bytes32"
						},
						{
							"indexed": true,
							"internalType": "uint256",
							"name": "assetId",
							"type": "uint256"
						},
						{
							"indexed": true,
							"internalType": "address",
							"name": "delistBy",
							"type": "address"
						},
						{
							"indexed": false,
							"internalType": "uint256",
							"name": "createdAt",
							"type": "uint256"
						}
					],
					"name": "DelistItemSuccessful",
					"type": "event"
				},
				{
					"anonymous": false,
					"inputs": [
						{
							"indexed": true,
							"internalType": "uint256",
							"name": "itemId",
							"type": "uint256"
						},
						{
							"indexed": true,
							"internalType": "address",
							"name": "nftContract",
							"type": "address"
						},
						{
							"indexed": true,
							"internalType": "uint256",
							"name": "tokenId",
							"type": "uint256"
						},
						{
							"indexed": false,
							"internalType": "address",
							"name": "seller",
							"type": "address"
						},
						{
							"indexed": false,
							"internalType": "address",
							"name": "owner",
							"type": "address"
						},
						{
							"indexed": false,
							"internalType": "uint256",
							"name": "price",
							"type": "uint256"
						}
					],
					"name": "MarketItemCreated",
					"type": "event"
				},
				{
					"anonymous": false,
					"inputs": [
						{
							"indexed": true,
							"internalType": "address",
							"name": "previousOwner",
							"type": "address"
						},
						{
							"indexed": true,
							"internalType": "address",
							"name": "newOwner",
							"type": "address"
						}
					],
					"name": "OwnershipTransferred",
					"type": "event"
				},
				{
					"anonymous": false,
					"inputs": [
						{
							"indexed": false,
							"internalType": "address",
							"name": "nftAddress",
							"type": "address"
						},
						{
							"indexed": false,
							"internalType": "bytes32",
							"name": "id",
							"type": "bytes32"
						},
						{
							"indexed": true,
							"internalType": "uint256",
							"name": "assetId",
							"type": "uint256"
						},
						{
							"indexed": false,
							"internalType": "uint256",
							"name": "price",
							"type": "uint256"
						},
						{
							"indexed": true,
							"internalType": "address",
							"name": "seller",
							"type": "address"
						},
						{
							"indexed": false,
							"internalType": "string",
							"name": "currency",
							"type": "string"
						},
						{
							"indexed": false,
							"internalType": "uint256",
							"name": "createdAt",
							"type": "uint256"
						}
					],
					"name": "SellItemSuccessful",
					"type": "event"
				},
				{
					"inputs": [],
					"name": "ERC721_Interface",
					"outputs": [
						{
							"internalType": "bytes4",
							"name": "",
							"type": "bytes4"
						}
					],
					"stateMutability": "view",
					"type": "function"
				},
				{
					"inputs": [],
					"name": "antaFeePercent",
					"outputs": [
						{
							"internalType": "uint8",
							"name": "",
							"type": "uint8"
						}
					],
					"stateMutability": "view",
					"type": "function"
				},
				{
					"inputs": [],
					"name": "antaToken",
					"outputs": [
						{
							"internalType": "contract IERC20",
							"name": "",
							"type": "address"
						}
					],
					"stateMutability": "view",
					"type": "function"
				},
				{
					"inputs": [],
					"name": "bnbFeePercent",
					"outputs": [
						{
							"internalType": "uint8",
							"name": "",
							"type": "uint8"
						}
					],
					"stateMutability": "view",
					"type": "function"
				},
				{
					"inputs": [
						{
							"internalType": "address",
							"name": "nftAddress",
							"type": "address"
						},
						{
							"internalType": "uint256",
							"name": "assetId",
							"type": "uint256"
						},
						{
							"internalType": "uint256",
							"name": "priceAnta",
							"type": "uint256"
						}
					],
					"name": "buyItemBySQF",
					"outputs": [],
					"stateMutability": "nonpayable",
					"type": "function"
				},
				{
					"inputs": [
						{
							"internalType": "address",
							"name": "nftContract",
							"type": "address"
						},
						{
							"internalType": "uint256",
							"name": "tokenId",
							"type": "uint256"
						},
						{
							"internalType": "uint256",
							"name": "price",
							"type": "uint256"
						}
					],
					"name": "createMarketItem",
					"outputs": [],
					"stateMutability": "payable",
					"type": "function"
				},
				{
					"inputs": [
						{
							"internalType": "address",
							"name": "nftContract",
							"type": "address"
						},
						{
							"internalType": "uint256",
							"name": "itemId",
							"type": "uint256"
						}
					],
					"name": "createMarketSale",
					"outputs": [],
					"stateMutability": "payable",
					"type": "function"
				},
				{
					"inputs": [
						{
							"internalType": "uint256",
							"name": "itemId",
							"type": "uint256"
						}
					],
					"name": "fetchMarketItem",
					"outputs": [
						{
							"components": [
								{
									"internalType": "uint256",
									"name": "itemId",
									"type": "uint256"
								},
								{
									"internalType": "address",
									"name": "nftContract",
									"type": "address"
								},
								{
									"internalType": "uint256",
									"name": "tokenId",
									"type": "uint256"
								},
								{
									"internalType": "address payable",
									"name": "seller",
									"type": "address"
								},
								{
									"internalType": "address payable",
									"name": "owner",
									"type": "address"
								},
								{
									"internalType": "uint256",
									"name": "price",
									"type": "uint256"
								}
							],
							"internalType": "struct NFTMarket.MarketItem",
							"name": "",
							"type": "tuple"
						}
					],
					"stateMutability": "view",
					"type": "function"
				},
				{
					"inputs": [],
					"name": "fetchMarketItems",
					"outputs": [
						{
							"components": [
								{
									"internalType": "uint256",
									"name": "itemId",
									"type": "uint256"
								},
								{
									"internalType": "address",
									"name": "nftContract",
									"type": "address"
								},
								{
									"internalType": "uint256",
									"name": "tokenId",
									"type": "uint256"
								},
								{
									"internalType": "address payable",
									"name": "seller",
									"type": "address"
								},
								{
									"internalType": "address payable",
									"name": "owner",
									"type": "address"
								},
								{
									"internalType": "uint256",
									"name": "price",
									"type": "uint256"
								}
							],
							"internalType": "struct NFTMarket.MarketItem[]",
							"name": "",
							"type": "tuple[]"
						}
					],
					"stateMutability": "view",
					"type": "function"
				},
				{
					"inputs": [],
					"name": "fetchMyNFTs",
					"outputs": [
						{
							"components": [
								{
									"internalType": "uint256",
									"name": "itemId",
									"type": "uint256"
								},
								{
									"internalType": "address",
									"name": "nftContract",
									"type": "address"
								},
								{
									"internalType": "uint256",
									"name": "tokenId",
									"type": "uint256"
								},
								{
									"internalType": "address payable",
									"name": "seller",
									"type": "address"
								},
								{
									"internalType": "address payable",
									"name": "owner",
									"type": "address"
								},
								{
									"internalType": "uint256",
									"name": "price",
									"type": "uint256"
								}
							],
							"internalType": "struct NFTMarket.MarketItem[]",
							"name": "",
							"type": "tuple[]"
						}
					],
					"stateMutability": "view",
					"type": "function"
				},
				{
					"inputs": [
						{
							"internalType": "uint256",
							"name": "marketItemId",
							"type": "uint256"
						}
					],
					"name": "getMarketItem",
					"outputs": [
						{
							"components": [
								{
									"internalType": "uint256",
									"name": "itemId",
									"type": "uint256"
								},
								{
									"internalType": "address",
									"name": "nftContract",
									"type": "address"
								},
								{
									"internalType": "uint256",
									"name": "tokenId",
									"type": "uint256"
								},
								{
									"internalType": "address payable",
									"name": "seller",
									"type": "address"
								},
								{
									"internalType": "address payable",
									"name": "owner",
									"type": "address"
								},
								{
									"internalType": "uint256",
									"name": "price",
									"type": "uint256"
								}
							],
							"internalType": "struct NFTMarket.MarketItem",
							"name": "",
							"type": "tuple"
						}
					],
					"stateMutability": "view",
					"type": "function"
				},
				{
					"inputs": [
						{
							"internalType": "address",
							"name": "",
							"type": "address"
						},
						{
							"internalType": "uint256",
							"name": "",
							"type": "uint256"
						},
						{
							"internalType": "address",
							"name": "",
							"type": "address"
						}
					],
					"name": "itemOffers",
					"outputs": [
						{
							"internalType": "bytes32",
							"name": "id",
							"type": "bytes32"
						},
						{
							"internalType": "uint256",
							"name": "offerPrice",
							"type": "uint256"
						}
					],
					"stateMutability": "view",
					"type": "function"
				},
				{
					"inputs": [
						{
							"internalType": "address",
							"name": "",
							"type": "address"
						},
						{
							"internalType": "uint256",
							"name": "",
							"type": "uint256"
						}
					],
					"name": "items",
					"outputs": [
						{
							"internalType": "bytes32",
							"name": "id",
							"type": "bytes32"
						},
						{
							"internalType": "address",
							"name": "seller",
							"type": "address"
						},
						{
							"internalType": "address",
							"name": "nftAddress",
							"type": "address"
						},
						{
							"internalType": "uint256",
							"name": "price",
							"type": "uint256"
						},
						{
							"internalType": "uint256",
							"name": "priceAnta",
							"type": "uint256"
						},
						{
							"internalType": "enum MarketplaceStorage.ItemStatus",
							"name": "status",
							"type": "uint8"
						}
					],
					"stateMutability": "view",
					"type": "function"
				},
				{
					"inputs": [],
					"name": "owner",
					"outputs": [
						{
							"internalType": "address",
							"name": "",
							"type": "address"
						}
					],
					"stateMutability": "view",
					"type": "function"
				},
				{
					"inputs": [],
					"name": "renounceOwnership",
					"outputs": [],
					"stateMutability": "nonpayable",
					"type": "function"
				},
				{
					"inputs": [
						{
							"internalType": "address",
							"name": "_address",
							"type": "address"
						}
					],
					"name": "setSQFTOken",
					"outputs": [],
					"stateMutability": "nonpayable",
					"type": "function"
				},
				{
					"inputs": [
						{
							"internalType": "address",
							"name": "newOwner",
							"type": "address"
						}
					],
					"name": "transferOwnership",
					"outputs": [],
					"stateMutability": "nonpayable",
					"type": "function"
				}
			],
			"devdoc": {
				"kind": "dev",
				"methods": {
					"owner()": {
						"details": "Returns the address of the current owner."
					},
					"renounceOwnership()": {
						"details": "Leaves the contract without owner. It will not be possible to call `onlyOwner` functions anymore. Can only be called by the current owner. NOTE: Renouncing ownership will leave the contract without an owner, thereby removing any functionality that is only available to the owner."
					},
					"transferOwnership(address)": {
						"details": "Transfers ownership of the contract to a new account (`newOwner`). Can only be called by the current owner."
					}
				},
				"version": 1
			},
			"evm": {
				"assembly": "    /* \"contracts/Marketplace2/Marketplace.sol\":17005:22324  contract NFTMarket is ReentrancyGuard, MarketplaceStorage, Ownable {... */\n  mstore(0x40, 0x80)\n  callvalue\n  dup1\n  iszero\n  tag_1\n  jumpi\n  0x00\n  dup1\n  revert\ntag_1:\n  pop\n    /* \"contracts/Marketplace2/Marketplace.sol\":14124:14125  1 */\n  0x01\n    /* \"contracts/Marketplace2/Marketplace.sol\":14229:14236  _status */\n  0x00\n    /* \"contracts/Marketplace2/Marketplace.sol\":14229:14251  _status = _NOT_ENTERED */\n  sstore\n    /* \"contracts/Marketplace2/Marketplace.sol\":1563:1595  _transferOwnership(_msgSender()) */\n  tag_6\n    /* \"contracts/Marketplace2/Marketplace.sol\":635:645  msg.sender */\n  caller\n    /* \"contracts/Marketplace2/Marketplace.sol\":1563:1581  _transferOwnership */\n  tag_9\n    /* \"contracts/Marketplace2/Marketplace.sol\":1563:1595  _transferOwnership(_msgSender()) */\n  jump\t// in\ntag_6:\n    /* \"contracts/Marketplace2/Marketplace.sol\":17005:22324  contract NFTMarket is ReentrancyGuard, MarketplaceStorage, Ownable {... */\n  jump(tag_10)\n    /* \"contracts/Marketplace2/Marketplace.sol\":2912:3099  function _transferOwnership(address newOwner) internal virtual {... */\ntag_9:\n    /* \"contracts/Marketplace2/Marketplace.sol\":3004:3010  _owner */\n  0x04\n  dup1\n  sload\n  sub(shl(0xa0, 0x01), 0x01)\n    /* \"contracts/Marketplace2/Marketplace.sol\":3020:3037  _owner = newOwner */\n  dup4\n  dup2\n  and\n  not(sub(shl(0xa0, 0x01), 0x01))\n  dup4\n  and\n  dup2\n  or\n  swap1\n  swap4\n  sstore\n    /* \"contracts/Marketplace2/Marketplace.sol\":3052:3092  OwnershipTransferred(oldOwner, newOwner) */\n  mload(0x40)\n    /* \"contracts/Marketplace2/Marketplace.sol\":3004:3010  _owner */\n  swap2\n  and\n  swap2\n    /* \"contracts/Marketplace2/Marketplace.sol\":3020:3037  _owner = newOwner */\n  swap1\n    /* \"contracts/Marketplace2/Marketplace.sol\":3004:3010  _owner */\n  dup3\n  swap1\n    /* \"contracts/Marketplace2/Marketplace.sol\":3052:3092  OwnershipTransferred(oldOwner, newOwner) */\n  0x8be0079c531659141344cd1fd0a4f28419497f9722a3daafe3b4186f6b6457e0\n  swap1\n    /* \"contracts/Marketplace2/Marketplace.sol\":2985:3001  address oldOwner */\n  0x00\n  swap1\n    /* \"contracts/Marketplace2/Marketplace.sol\":3052:3092  OwnershipTransferred(oldOwner, newOwner) */\n  log3\n    /* \"contracts/Marketplace2/Marketplace.sol\":2975:3099  {... */\n  pop\n    /* \"contracts/Marketplace2/Marketplace.sol\":2912:3099  function _transferOwnership(address newOwner) internal virtual {... */\n  pop\n  jump\t// out\n    /* \"contracts/Marketplace2/Marketplace.sol\":17005:22324  contract NFTMarket is ReentrancyGuard, MarketplaceStorage, Ownable {... */\ntag_10:\n  dataSize(sub_0)\n  dup1\n  dataOffset(sub_0)\n  0x00\n  codecopy\n  0x00\n  return\nstop\n\nsub_0: assembly {\n        /* \"contracts/Marketplace2/Marketplace.sol\":17005:22324  contract NFTMarket is ReentrancyGuard, MarketplaceStorage, Ownable {... */\n      mstore(0x40, 0x80)\n      jumpi(tag_1, lt(calldatasize, 0x04))\n      shr(0xe0, calldataload(0x00))\n      dup1\n      0x715018a6\n      gt\n      tag_19\n      jumpi\n      dup1\n      0xb7a60c7e\n      gt\n      tag_20\n      jumpi\n      dup1\n      0xb7a60c7e\n      eq\n      tag_14\n      jumpi\n      dup1\n      0xc23b139e\n      eq\n      tag_15\n      jumpi\n      dup1\n      0xc7be7a49\n      eq\n      tag_5\n      jumpi\n      dup1\n      0xf01b52dc\n      eq\n      tag_17\n      jumpi\n      dup1\n      0xf2fde38b\n      eq\n      tag_18\n      jumpi\n      0x00\n      dup1\n      revert\n    tag_20:\n      dup1\n      0x715018a6\n      eq\n      tag_10\n      jumpi\n      dup1\n      0x85a8b36c\n      eq\n      tag_11\n      jumpi\n      dup1\n      0x8da5cb5b\n      eq\n      tag_12\n      jumpi\n      dup1\n      0x92fc79fa\n      eq\n      tag_13\n      jumpi\n      0x00\n      dup1\n      revert\n    tag_19:\n      dup1\n      0x2b4c32be\n      gt\n      tag_21\n      jumpi\n      dup1\n      0x2b4c32be\n      eq\n      tag_6\n      jumpi\n      dup1\n      0x49739678\n      eq\n      tag_7\n      jumpi\n      dup1\n      0x58eb2df5\n      eq\n      tag_8\n      jumpi\n      dup1\n      0x5c80a435\n      eq\n      tag_9\n      jumpi\n      0x00\n      dup1\n      revert\n    tag_21:\n      dup1\n      0x0b5f1ab1\n      eq\n      tag_2\n      jumpi\n      dup1\n      0x0f08efe0\n      eq\n      tag_3\n      jumpi\n      dup1\n      0x202e3740\n      eq\n      tag_4\n      jumpi\n      dup1\n      0x2a45b250\n      eq\n      tag_5\n      jumpi\n    tag_1:\n      0x00\n      dup1\n      revert\n        /* \"contracts/Marketplace2/Marketplace.sol\":17728:17827  function setSQFTOken(address _address) external onlyOwner {... */\n    tag_2:\n      callvalue\n      dup1\n      iszero\n      tag_22\n      jumpi\n      0x00\n      dup1\n      revert\n    tag_22:\n      pop\n      tag_23\n      tag_24\n      calldatasize\n      0x04\n      tag_25\n      jump\t// in\n    tag_24:\n      tag_26\n      jump\t// in\n    tag_23:\n      stop\n        /* \"contracts/Marketplace2/Marketplace.sol\":19146:19754  function fetchMarketItems() public view returns (MarketItem[] memory) {... */\n    tag_3:\n      callvalue\n      dup1\n      iszero\n      tag_27\n      jumpi\n      0x00\n      dup1\n      revert\n    tag_27:\n      pop\n      tag_28\n      tag_29\n      jump\t// in\n    tag_28:\n      mload(0x40)\n      tag_30\n      swap2\n      swap1\n      tag_31\n      jump\t// in\n    tag_30:\n      mload(0x40)\n      dup1\n      swap2\n      sub\n      swap1\n      return\n        /* \"contracts/Marketplace2/Marketplace.sol\":19758:20461  function fetchMyNFTs() public view returns (MarketItem[] memory) {... */\n    tag_4:\n      callvalue\n      dup1\n      iszero\n      tag_32\n      jumpi\n      0x00\n      dup1\n      revert\n    tag_32:\n      pop\n      tag_28\n      tag_34\n      jump\t// in\n        /* \"contracts/Marketplace2/Marketplace.sol\":18989:19142  function fetchMarketItem(uint itemId) public view returns (MarketItem memory) {... */\n    tag_5:\n      callvalue\n      dup1\n      iszero\n      tag_36\n      jumpi\n      0x00\n      dup1\n      revert\n    tag_36:\n      pop\n      tag_37\n      tag_38\n      calldatasize\n      0x04\n      tag_39\n      jump\t// in\n    tag_38:\n      tag_40\n      jump\t// in\n    tag_37:\n      mload(0x40)\n      tag_30\n      swap2\n      swap1\n      tag_42\n      jump\t// in\n        /* \"contracts/Marketplace2/Marketplace.sol\":15771:15831  bytes4 public constant ERC721_Interface = bytes4(0x80ac58cd) */\n    tag_6:\n      callvalue\n      dup1\n      iszero\n      tag_43\n      jumpi\n      0x00\n      dup1\n      revert\n    tag_43:\n      pop\n      tag_44\n      shl(0xe0, 0x80ac58cd)\n      dup2\n      jump\n    tag_44:\n      mload(0x40)\n      not(sub(shl(0xe0, 0x01), 0x01))\n        /* \"#utility.yul\":2190:2223   */\n      swap1\n      swap2\n      and\n        /* \"#utility.yul\":2172:2224   */\n      dup2\n      mstore\n        /* \"#utility.yul\":2160:2162   */\n      0x20\n        /* \"#utility.yul\":2145:2163   */\n      add\n        /* \"contracts/Marketplace2/Marketplace.sol\":15771:15831  bytes4 public constant ERC721_Interface = bytes4(0x80ac58cd) */\n      tag_30\n        /* \"#utility.yul\":2028:2230   */\n      jump\n        /* \"contracts/Marketplace2/Marketplace.sol\":16045:16140  mapping(address => mapping(uint256 => mapping(address => ItemOffer)))... */\n    tag_7:\n      callvalue\n      dup1\n      iszero\n      tag_48\n      jumpi\n      0x00\n      dup1\n      revert\n    tag_48:\n      pop\n      tag_49\n      tag_50\n      calldatasize\n      0x04\n      tag_51\n      jump\t// in\n    tag_50:\n      0x02\n      0x20\n      swap1\n      dup2\n      mstore\n      0x00\n      swap4\n      dup5\n      mstore\n      0x40\n      dup1\n      dup6\n      keccak256\n      dup3\n      mstore\n      swap3\n      dup5\n      mstore\n      dup3\n      dup5\n      keccak256\n      swap1\n      mstore\n      dup3\n      mstore\n      swap1\n      keccak256\n      dup1\n      sload\n      0x01\n      swap1\n      swap2\n      add\n      sload\n      dup3\n      jump\n    tag_49:\n      0x40\n      dup1\n      mload\n        /* \"#utility.yul\":2742:2767   */\n      swap3\n      dup4\n      mstore\n        /* \"#utility.yul\":2798:2800   */\n      0x20\n        /* \"#utility.yul\":2783:2801   */\n      dup4\n      add\n        /* \"#utility.yul\":2776:2810   */\n      swap2\n      swap1\n      swap2\n      mstore\n        /* \"#utility.yul\":2715:2733   */\n      add\n        /* \"contracts/Marketplace2/Marketplace.sol\":16045:16140  mapping(address => mapping(uint256 => mapping(address => ItemOffer)))... */\n      tag_30\n        /* \"#utility.yul\":2568:2816   */\n      jump\n        /* \"contracts/Marketplace2/Marketplace.sol\":17831:18457  function createMarketItem(... */\n    tag_8:\n      tag_23\n      tag_56\n      calldatasize\n      0x04\n      tag_57\n      jump\t// in\n    tag_56:\n      tag_58\n      jump\t// in\n        /* \"contracts/Marketplace2/Marketplace.sol\":15909:15966  mapping(address => mapping(uint256 => Item)) public items */\n    tag_9:\n      callvalue\n      dup1\n      iszero\n      tag_59\n      jumpi\n      0x00\n      dup1\n      revert\n    tag_59:\n      pop\n      tag_60\n      tag_61\n      calldatasize\n      0x04\n      tag_62\n      jump\t// in\n    tag_61:\n      0x01\n      0x20\n      dup2\n      dup2\n      mstore\n      0x00\n      swap4\n      dup5\n      mstore\n      0x40\n      dup1\n      dup6\n      keccak256\n      swap1\n      swap2\n      mstore\n      swap2\n      dup4\n      mstore\n      swap2\n      keccak256\n      dup1\n      sload\n      swap2\n      dup2\n      add\n      sload\n      0x02\n      dup3\n      add\n      sload\n      0x03\n      dup4\n      add\n      sload\n      0x04\n      dup5\n      add\n      sload\n      0x05\n      swap1\n      swap5\n      add\n      sload\n      sub(shl(0xa0, 0x01), 0x01)\n      swap4\n      dup5\n      and\n      swap5\n      swap4\n      swap1\n      swap3\n      and\n      swap3\n      swap1\n      swap2\n      0xff\n      and\n      dup7\n      jump\n    tag_60:\n      mload(0x40)\n      tag_30\n      swap7\n      swap6\n      swap5\n      swap4\n      swap3\n      swap2\n      swap1\n      tag_65\n      jump\t// in\n        /* \"contracts/Marketplace2/Marketplace.sol\":2310:2411  function renounceOwnership() public virtual onlyOwner {... */\n    tag_10:\n      callvalue\n      dup1\n      iszero\n      tag_66\n      jumpi\n      0x00\n      dup1\n      revert\n    tag_66:\n      pop\n      tag_23\n      tag_68\n      jump\t// in\n        /* \"contracts/Marketplace2/Marketplace.sol\":16176:16202  uint8 public bnbFeePercent */\n    tag_11:\n      callvalue\n      dup1\n      iszero\n      tag_69\n      jumpi\n      0x00\n      dup1\n      revert\n    tag_69:\n      pop\n      sload(0x03)\n      tag_70\n      swap1\n      shl(0xa0, 0x01)\n      swap1\n      div\n      0xff\n      and\n      dup2\n      jump\n    tag_70:\n      mload(0x40)\n        /* \"#utility.yul\":4472:4476   */\n      0xff\n        /* \"#utility.yul\":4460:4477   */\n      swap1\n      swap2\n      and\n        /* \"#utility.yul\":4442:4478   */\n      dup2\n      mstore\n        /* \"#utility.yul\":4430:4432   */\n      0x20\n        /* \"#utility.yul\":4415:4433   */\n      add\n        /* \"contracts/Marketplace2/Marketplace.sol\":16176:16202  uint8 public bnbFeePercent */\n      tag_30\n        /* \"#utility.yul\":4300:4484   */\n      jump\n        /* \"contracts/Marketplace2/Marketplace.sol\":1678:1763  function owner() public view virtual returns (address) {... */\n    tag_12:\n      callvalue\n      dup1\n      iszero\n      tag_74\n      jumpi\n      0x00\n      dup1\n      revert\n    tag_74:\n      pop\n        /* \"contracts/Marketplace2/Marketplace.sol\":1750:1756  _owner */\n      and(sub(shl(0xa0, 0x01), 0x01), sload(0x04))\n        /* \"contracts/Marketplace2/Marketplace.sol\":1678:1763  function owner() public view virtual returns (address) {... */\n    tag_75:\n      mload(0x40)\n      sub(shl(0xa0, 0x01), 0x01)\n        /* \"#utility.yul\":4653:4685   */\n      swap1\n      swap2\n      and\n        /* \"#utility.yul\":4635:4686   */\n      dup2\n      mstore\n        /* \"#utility.yul\":4623:4625   */\n      0x20\n        /* \"#utility.yul\":4608:4626   */\n      add\n        /* \"contracts/Marketplace2/Marketplace.sol\":1678:1763  function owner() public view virtual returns (address) {... */\n      tag_30\n        /* \"#utility.yul\":4489:4692   */\n      jump\n        /* \"contracts/Marketplace2/Marketplace.sol\":16146:16169  IERC20 public antaToken */\n    tag_13:\n      callvalue\n      dup1\n      iszero\n      tag_79\n      jumpi\n      0x00\n      dup1\n      revert\n    tag_79:\n      pop\n      sload(0x03)\n      tag_75\n      swap1\n      sub(shl(0xa0, 0x01), 0x01)\n      and\n      dup2\n      jump\n        /* \"contracts/Marketplace2/Marketplace.sol\":16208:16235  uint8 public antaFeePercent */\n    tag_14:\n      callvalue\n      dup1\n      iszero\n      tag_84\n      jumpi\n      0x00\n      dup1\n      revert\n    tag_84:\n      pop\n      sload(0x03)\n      tag_70\n      swap1\n      shl(0xa8, 0x01)\n      swap1\n      div\n      0xff\n      and\n      dup2\n      jump\n        /* \"contracts/Marketplace2/Marketplace.sol\":18461:18985  function createMarketSale(... */\n    tag_15:\n      tag_23\n      tag_89\n      calldatasize\n      0x04\n      tag_62\n      jump\t// in\n    tag_89:\n      tag_90\n      jump\t// in\n        /* \"contracts/Marketplace2/Marketplace.sol\":20466:21764  function buyItemBySQF(... */\n    tag_17:\n      callvalue\n      dup1\n      iszero\n      tag_96\n      jumpi\n      0x00\n      dup1\n      revert\n    tag_96:\n      pop\n      tag_23\n      tag_98\n      calldatasize\n      0x04\n      tag_57\n      jump\t// in\n    tag_98:\n      tag_99\n      jump\t// in\n        /* \"contracts/Marketplace2/Marketplace.sol\":2560:2758  function transferOwnership(address newOwner) public virtual onlyOwner {... */\n    tag_18:\n      callvalue\n      dup1\n      iszero\n      tag_100\n      jumpi\n      0x00\n      dup1\n      revert\n    tag_100:\n      pop\n      tag_23\n      tag_102\n      calldatasize\n      0x04\n      tag_25\n      jump\t// in\n    tag_102:\n      tag_103\n      jump\t// in\n        /* \"contracts/Marketplace2/Marketplace.sol\":17728:17827  function setSQFTOken(address _address) external onlyOwner {... */\n    tag_26:\n        /* \"contracts/Marketplace2/Marketplace.sol\":1750:1756  _owner */\n      and(sub(shl(0xa0, 0x01), 0x01), sload(0x04))\n        /* \"contracts/Marketplace2/Marketplace.sol\":635:645  msg.sender */\n      caller\n        /* \"contracts/Marketplace2/Marketplace.sol\":1890:1913  owner() == _msgSender() */\n      eq\n        /* \"contracts/Marketplace2/Marketplace.sol\":1882:1950  require(owner() == _msgSender(), \"Ownable: caller is not the owner\") */\n      tag_108\n      jumpi\n      mload(0x40)\n      shl(0xe5, 0x461bcd)\n      dup2\n      mstore\n      0x04\n      add\n      tag_109\n      swap1\n      tag_110\n      jump\t// in\n    tag_109:\n      mload(0x40)\n      dup1\n      swap2\n      sub\n      swap1\n      revert\n    tag_108:\n        /* \"contracts/Marketplace2/Marketplace.sol\":17796:17805  antaToken */\n      0x03\n        /* \"contracts/Marketplace2/Marketplace.sol\":17796:17824  antaToken = IERC20(_address) */\n      dup1\n      sload\n      not(sub(shl(0xa0, 0x01), 0x01))\n      and\n      sub(shl(0xa0, 0x01), 0x01)\n      swap3\n      swap1\n      swap3\n      and\n      swap2\n      swap1\n      swap2\n      or\n      swap1\n      sstore\n        /* \"contracts/Marketplace2/Marketplace.sol\":17728:17827  function setSQFTOken(address _address) external onlyOwner {... */\n      jump\t// out\n        /* \"contracts/Marketplace2/Marketplace.sol\":19146:19754  function fetchMarketItems() public view returns (MarketItem[] memory) {... */\n    tag_29:\n        /* \"contracts/Marketplace2/Marketplace.sol\":19195:19214  MarketItem[] memory */\n      0x60\n        /* \"contracts/Marketplace2/Marketplace.sol\":19222:19236  uint itemCount */\n      0x00\n        /* \"contracts/Marketplace2/Marketplace.sol\":19239:19257  _itemIds.current() */\n      tag_113\n        /* \"contracts/Marketplace2/Marketplace.sol\":19239:19247  _itemIds */\n      0x05\n        /* \"contracts/Marketplace2/Marketplace.sol\":11944:11958  counter._value */\n      sload\n      swap1\n        /* \"contracts/Marketplace2/Marketplace.sol\":11853:11965  function current(Counter storage counter) internal view returns (uint256) {... */\n      jump\n        /* \"contracts/Marketplace2/Marketplace.sol\":19239:19257  _itemIds.current() */\n    tag_113:\n        /* \"contracts/Marketplace2/Marketplace.sol\":19222:19257  uint itemCount = _itemIds.current() */\n      swap1\n      pop\n        /* \"contracts/Marketplace2/Marketplace.sol\":19263:19283  uint unsoldItemCount */\n      0x00\n        /* \"contracts/Marketplace2/Marketplace.sol\":19307:19327  _itemsSold.current() */\n      tag_115\n        /* \"contracts/Marketplace2/Marketplace.sol\":19307:19317  _itemsSold */\n      0x06\n        /* \"contracts/Marketplace2/Marketplace.sol\":11944:11958  counter._value */\n      sload\n      swap1\n        /* \"contracts/Marketplace2/Marketplace.sol\":11853:11965  function current(Counter storage counter) internal view returns (uint256) {... */\n      jump\n        /* \"contracts/Marketplace2/Marketplace.sol\":19307:19327  _itemsSold.current() */\n    tag_115:\n        /* \"contracts/Marketplace2/Marketplace.sol\":19286:19294  _itemIds */\n      0x05\n        /* \"contracts/Marketplace2/Marketplace.sol\":11944:11958  counter._value */\n      sload\n        /* \"contracts/Marketplace2/Marketplace.sol\":19286:19327  _itemIds.current() - _itemsSold.current() */\n      tag_117\n      swap2\n      swap1\n      tag_118\n      jump\t// in\n    tag_117:\n        /* \"contracts/Marketplace2/Marketplace.sol\":19263:19327  uint unsoldItemCount = _itemIds.current() - _itemsSold.current() */\n      swap1\n      pop\n        /* \"contracts/Marketplace2/Marketplace.sol\":19333:19350  uint currentIndex */\n      0x00\n        /* \"contracts/Marketplace2/Marketplace.sol\":19361:19386  MarketItem[] memory items */\n      dup1\n        /* \"contracts/Marketplace2/Marketplace.sol\":19406:19421  unsoldItemCount */\n      dup3\n        /* \"contracts/Marketplace2/Marketplace.sol\":19389:19422  new MarketItem[](unsoldItemCount) */\n      0xffffffffffffffff\n      dup2\n      gt\n      iszero\n      tag_120\n      jumpi\n      tag_120\n      tag_121\n      jump\t// in\n    tag_120:\n      mload(0x40)\n      swap1\n      dup1\n      dup3\n      mstore\n      dup1\n      0x20\n      mul\n      0x20\n      add\n      dup3\n      add\n      0x40\n      mstore\n      dup1\n      iszero\n      tag_122\n      jumpi\n      dup2\n      0x20\n      add\n    tag_123:\n      tag_124\n      tag_125\n      jump\t// in\n    tag_124:\n      dup2\n      mstore\n      0x20\n      add\n      swap1\n      0x01\n      swap1\n      sub\n      swap1\n      dup2\n      tag_123\n      jumpi\n      swap1\n      pop\n    tag_122:\n      pop\n        /* \"contracts/Marketplace2/Marketplace.sol\":19361:19422  MarketItem[] memory items = new MarketItem[](unsoldItemCount) */\n      swap1\n      pop\n        /* \"contracts/Marketplace2/Marketplace.sol\":19433:19439  uint i */\n      0x00\n        /* \"contracts/Marketplace2/Marketplace.sol\":19428:19728  for (uint i = 0; i < itemCount; i++) {... */\n    tag_126:\n        /* \"contracts/Marketplace2/Marketplace.sol\":19449:19458  itemCount */\n      dup5\n        /* \"contracts/Marketplace2/Marketplace.sol\":19445:19446  i */\n      dup2\n        /* \"contracts/Marketplace2/Marketplace.sol\":19445:19458  i < itemCount */\n      lt\n        /* \"contracts/Marketplace2/Marketplace.sol\":19428:19728  for (uint i = 0; i < itemCount; i++) {... */\n      iszero\n      tag_127\n      jumpi\n        /* \"contracts/Marketplace2/Marketplace.sol\":19516:19517  0 */\n      0x00\n        /* \"contracts/Marketplace2/Marketplace.sol\":19477:19491  idToMarketItem */\n      0x07\n        /* \"contracts/Marketplace2/Marketplace.sol\":19516:19517  0 */\n      dup2\n        /* \"contracts/Marketplace2/Marketplace.sol\":19492:19497  i + 1 */\n      tag_129\n        /* \"contracts/Marketplace2/Marketplace.sol\":19492:19493  i */\n      dup5\n        /* \"contracts/Marketplace2/Marketplace.sol\":19496:19497  1 */\n      0x01\n        /* \"contracts/Marketplace2/Marketplace.sol\":19492:19497  i + 1 */\n      tag_130\n      jump\t// in\n    tag_129:\n        /* \"contracts/Marketplace2/Marketplace.sol\":19477:19498  idToMarketItem[i + 1] */\n      dup2\n      mstore\n      0x20\n      dup2\n      add\n      swap2\n      swap1\n      swap2\n      mstore\n      0x40\n      add\n      0x00\n      keccak256\n        /* \"contracts/Marketplace2/Marketplace.sol\":19477:19504  idToMarketItem[i + 1].owner */\n      0x04\n      add\n      sload\n      sub(shl(0xa0, 0x01), 0x01)\n      and\n        /* \"contracts/Marketplace2/Marketplace.sol\":19477:19518  idToMarketItem[i + 1].owner == address(0) */\n      sub\n        /* \"contracts/Marketplace2/Marketplace.sol\":19473:19722  if (idToMarketItem[i + 1].owner == address(0)) {... */\n      tag_131\n      jumpi\n        /* \"contracts/Marketplace2/Marketplace.sol\":19530:19544  uint currentId */\n      0x00\n        /* \"contracts/Marketplace2/Marketplace.sol\":19547:19561  idToMarketItem */\n      0x07\n        /* \"contracts/Marketplace2/Marketplace.sol\":19530:19544  uint currentId */\n      dup2\n        /* \"contracts/Marketplace2/Marketplace.sol\":19562:19567  i + 1 */\n      tag_132\n        /* \"contracts/Marketplace2/Marketplace.sol\":19562:19563  i */\n      dup5\n        /* \"contracts/Marketplace2/Marketplace.sol\":19566:19567  1 */\n      0x01\n        /* \"contracts/Marketplace2/Marketplace.sol\":19562:19567  i + 1 */\n      tag_130\n      jump\t// in\n    tag_132:\n        /* \"contracts/Marketplace2/Marketplace.sol\":19547:19568  idToMarketItem[i + 1] */\n      dup2\n      mstore\n      0x20\n      dup1\n      dup3\n      add\n      swap3\n      swap1\n      swap3\n      mstore\n      0x40\n      swap1\n      dup2\n      add\n      0x00\n      swap1\n      dup2\n      keccak256\n        /* \"contracts/Marketplace2/Marketplace.sol\":19547:19575  idToMarketItem[i + 1].itemId */\n      sload\n        /* \"contracts/Marketplace2/Marketplace.sol\":19618:19643  idToMarketItem[currentId] */\n      dup1\n      dup3\n      mstore\n        /* \"contracts/Marketplace2/Marketplace.sol\":19618:19632  idToMarketItem */\n      0x07\n        /* \"contracts/Marketplace2/Marketplace.sol\":19618:19643  idToMarketItem[currentId] */\n      dup5\n      mstore\n      swap1\n      dup3\n      swap1\n      keccak256\n        /* \"contracts/Marketplace2/Marketplace.sol\":19653:19686  items[currentIndex] = currentItem */\n      dup3\n      mload\n      0xc0\n      dup2\n      add\n      dup5\n      mstore\n      dup2\n      sload\n      dup2\n      mstore\n      0x01\n      dup3\n      add\n      sload\n      sub(shl(0xa0, 0x01), 0x01)\n      swap1\n      dup2\n      and\n      swap6\n      dup3\n      add\n      swap6\n      swap1\n      swap6\n      mstore\n      0x02\n      dup3\n      add\n      sload\n      swap4\n      dup2\n      add\n      swap4\n      swap1\n      swap4\n      mstore\n      0x03\n      dup2\n      add\n      sload\n      dup5\n      and\n      0x60\n      dup5\n      add\n      mstore\n      0x04\n      dup2\n      add\n      sload\n      swap1\n      swap4\n      and\n      0x80\n      dup4\n      add\n      mstore\n      0x05\n      dup4\n      add\n      sload\n      0xa0\n      dup4\n      add\n      mstore\n        /* \"contracts/Marketplace2/Marketplace.sol\":19653:19672  items[currentIndex] */\n      dup6\n      mload\n        /* \"contracts/Marketplace2/Marketplace.sol\":19547:19575  idToMarketItem[i + 1].itemId */\n      swap1\n      swap4\n      pop\n        /* \"contracts/Marketplace2/Marketplace.sol\":19653:19658  items */\n      dup6\n      swap1\n        /* \"contracts/Marketplace2/Marketplace.sol\":19659:19671  currentIndex */\n      dup8\n      swap1\n        /* \"contracts/Marketplace2/Marketplace.sol\":19653:19672  items[currentIndex] */\n      dup2\n      lt\n      tag_134\n      jumpi\n      tag_134\n      tag_135\n      jump\t// in\n    tag_134:\n      0x20\n      swap1\n      dup2\n      mul\n      swap2\n      swap1\n      swap2\n      add\n      add\n        /* \"contracts/Marketplace2/Marketplace.sol\":19653:19686  items[currentIndex] = currentItem */\n      mstore\n        /* \"contracts/Marketplace2/Marketplace.sol\":19696:19713  currentIndex += 1 */\n      tag_136\n        /* \"contracts/Marketplace2/Marketplace.sol\":19712:19713  1 */\n      0x01\n        /* \"contracts/Marketplace2/Marketplace.sol\":19696:19713  currentIndex += 1 */\n      dup7\n      tag_130\n      jump\t// in\n    tag_136:\n      swap5\n      pop\n        /* \"contracts/Marketplace2/Marketplace.sol\":19520:19722  {... */\n      pop\n      pop\n        /* \"contracts/Marketplace2/Marketplace.sol\":19473:19722  if (idToMarketItem[i + 1].owner == address(0)) {... */\n    tag_131:\n        /* \"contracts/Marketplace2/Marketplace.sol\":19460:19463  i++ */\n      dup1\n      tag_137\n      dup2\n      tag_138\n      jump\t// in\n    tag_137:\n      swap2\n      pop\n      pop\n        /* \"contracts/Marketplace2/Marketplace.sol\":19428:19728  for (uint i = 0; i < itemCount; i++) {... */\n      jump(tag_126)\n    tag_127:\n      pop\n        /* \"contracts/Marketplace2/Marketplace.sol\":19744:19749  items */\n      swap5\n        /* \"contracts/Marketplace2/Marketplace.sol\":19146:19754  function fetchMarketItems() public view returns (MarketItem[] memory) {... */\n      swap4\n      pop\n      pop\n      pop\n      pop\n      jump\t// out\n        /* \"contracts/Marketplace2/Marketplace.sol\":19758:20461  function fetchMyNFTs() public view returns (MarketItem[] memory) {... */\n    tag_34:\n        /* \"contracts/Marketplace2/Marketplace.sol\":19802:19821  MarketItem[] memory */\n      0x60\n        /* \"contracts/Marketplace2/Marketplace.sol\":19829:19848  uint totalItemCount */\n      0x00\n        /* \"contracts/Marketplace2/Marketplace.sol\":19851:19869  _itemIds.current() */\n      tag_140\n        /* \"contracts/Marketplace2/Marketplace.sol\":19851:19859  _itemIds */\n      0x05\n        /* \"contracts/Marketplace2/Marketplace.sol\":11944:11958  counter._value */\n      sload\n      swap1\n        /* \"contracts/Marketplace2/Marketplace.sol\":11853:11965  function current(Counter storage counter) internal view returns (uint256) {... */\n      jump\n        /* \"contracts/Marketplace2/Marketplace.sol\":19851:19869  _itemIds.current() */\n    tag_140:\n        /* \"contracts/Marketplace2/Marketplace.sol\":19829:19869  uint totalItemCount = _itemIds.current() */\n      swap1\n      pop\n        /* \"contracts/Marketplace2/Marketplace.sol\":19875:19889  uint itemCount */\n      0x00\n        /* \"contracts/Marketplace2/Marketplace.sol\":19899:19916  uint currentIndex */\n      dup1\n        /* \"contracts/Marketplace2/Marketplace.sol\":19932:19938  uint i */\n      0x00\n        /* \"contracts/Marketplace2/Marketplace.sol\":19927:20063  for (uint i = 0; i < totalItemCount; i++) {... */\n    tag_141:\n        /* \"contracts/Marketplace2/Marketplace.sol\":19948:19962  totalItemCount */\n      dup4\n        /* \"contracts/Marketplace2/Marketplace.sol\":19944:19945  i */\n      dup2\n        /* \"contracts/Marketplace2/Marketplace.sol\":19944:19962  i < totalItemCount */\n      lt\n        /* \"contracts/Marketplace2/Marketplace.sol\":19927:20063  for (uint i = 0; i < totalItemCount; i++) {... */\n      iszero\n      tag_142\n      jumpi\n        /* \"contracts/Marketplace2/Marketplace.sol\":20012:20022  msg.sender */\n      caller\n        /* \"contracts/Marketplace2/Marketplace.sol\":19981:19995  idToMarketItem */\n      0x07\n        /* \"contracts/Marketplace2/Marketplace.sol\":19981:20002  idToMarketItem[i + 1] */\n      0x00\n        /* \"contracts/Marketplace2/Marketplace.sol\":19996:20001  i + 1 */\n      tag_144\n        /* \"contracts/Marketplace2/Marketplace.sol\":19996:19997  i */\n      dup5\n        /* \"contracts/Marketplace2/Marketplace.sol\":20000:20001  1 */\n      0x01\n        /* \"contracts/Marketplace2/Marketplace.sol\":19996:20001  i + 1 */\n      tag_130\n      jump\t// in\n    tag_144:\n        /* \"contracts/Marketplace2/Marketplace.sol\":19981:20002  idToMarketItem[i + 1] */\n      dup2\n      mstore\n      0x20\n      dup2\n      add\n      swap2\n      swap1\n      swap2\n      mstore\n      0x40\n      add\n      0x00\n      keccak256\n        /* \"contracts/Marketplace2/Marketplace.sol\":19981:20008  idToMarketItem[i + 1].owner */\n      0x04\n      add\n      sload\n      sub(shl(0xa0, 0x01), 0x01)\n      and\n        /* \"contracts/Marketplace2/Marketplace.sol\":19981:20022  idToMarketItem[i + 1].owner == msg.sender */\n      sub\n        /* \"contracts/Marketplace2/Marketplace.sol\":19977:20057  if (idToMarketItem[i + 1].owner == msg.sender) {... */\n      tag_145\n      jumpi\n        /* \"contracts/Marketplace2/Marketplace.sol\":20034:20048  itemCount += 1 */\n      tag_146\n        /* \"contracts/Marketplace2/Marketplace.sol\":20047:20048  1 */\n      0x01\n        /* \"contracts/Marketplace2/Marketplace.sol\":20034:20048  itemCount += 1 */\n      dup5\n      tag_130\n      jump\t// in\n    tag_146:\n      swap3\n      pop\n        /* \"contracts/Marketplace2/Marketplace.sol\":19977:20057  if (idToMarketItem[i + 1].owner == msg.sender) {... */\n    tag_145:\n        /* \"contracts/Marketplace2/Marketplace.sol\":19964:19967  i++ */\n      dup1\n      tag_147\n      dup2\n      tag_138\n      jump\t// in\n    tag_147:\n      swap2\n      pop\n      pop\n        /* \"contracts/Marketplace2/Marketplace.sol\":19927:20063  for (uint i = 0; i < totalItemCount; i++) {... */\n      jump(tag_141)\n    tag_142:\n      pop\n        /* \"contracts/Marketplace2/Marketplace.sol\":20069:20094  MarketItem[] memory items */\n      0x00\n        /* \"contracts/Marketplace2/Marketplace.sol\":20114:20123  itemCount */\n      dup3\n        /* \"contracts/Marketplace2/Marketplace.sol\":20097:20124  new MarketItem[](itemCount) */\n      0xffffffffffffffff\n      dup2\n      gt\n      iszero\n      tag_149\n      jumpi\n      tag_149\n      tag_121\n      jump\t// in\n    tag_149:\n      mload(0x40)\n      swap1\n      dup1\n      dup3\n      mstore\n      dup1\n      0x20\n      mul\n      0x20\n      add\n      dup3\n      add\n      0x40\n      mstore\n      dup1\n      iszero\n      tag_150\n      jumpi\n      dup2\n      0x20\n      add\n    tag_151:\n      tag_152\n      tag_125\n      jump\t// in\n    tag_152:\n      dup2\n      mstore\n      0x20\n      add\n      swap1\n      0x01\n      swap1\n      sub\n      swap1\n      dup2\n      tag_151\n      jumpi\n      swap1\n      pop\n    tag_150:\n      pop\n        /* \"contracts/Marketplace2/Marketplace.sol\":20069:20124  MarketItem[] memory items = new MarketItem[](itemCount) */\n      swap1\n      pop\n        /* \"contracts/Marketplace2/Marketplace.sol\":20135:20141  uint i */\n      0x00\n        /* \"contracts/Marketplace2/Marketplace.sol\":20130:20435  for (uint i = 0; i < totalItemCount; i++) {... */\n    tag_153:\n        /* \"contracts/Marketplace2/Marketplace.sol\":20151:20165  totalItemCount */\n      dup5\n        /* \"contracts/Marketplace2/Marketplace.sol\":20147:20148  i */\n      dup2\n        /* \"contracts/Marketplace2/Marketplace.sol\":20147:20165  i < totalItemCount */\n      lt\n        /* \"contracts/Marketplace2/Marketplace.sol\":20130:20435  for (uint i = 0; i < totalItemCount; i++) {... */\n      iszero\n      tag_127\n      jumpi\n        /* \"contracts/Marketplace2/Marketplace.sol\":20215:20225  msg.sender */\n      caller\n        /* \"contracts/Marketplace2/Marketplace.sol\":20184:20198  idToMarketItem */\n      0x07\n        /* \"contracts/Marketplace2/Marketplace.sol\":20184:20205  idToMarketItem[i + 1] */\n      0x00\n        /* \"contracts/Marketplace2/Marketplace.sol\":20199:20204  i + 1 */\n      tag_156\n        /* \"contracts/Marketplace2/Marketplace.sol\":20199:20200  i */\n      dup5\n        /* \"contracts/Marketplace2/Marketplace.sol\":20203:20204  1 */\n      0x01\n        /* \"contracts/Marketplace2/Marketplace.sol\":20199:20204  i + 1 */\n      tag_130\n      jump\t// in\n    tag_156:\n        /* \"contracts/Marketplace2/Marketplace.sol\":20184:20205  idToMarketItem[i + 1] */\n      dup2\n      mstore\n      0x20\n      dup2\n      add\n      swap2\n      swap1\n      swap2\n      mstore\n      0x40\n      add\n      0x00\n      keccak256\n        /* \"contracts/Marketplace2/Marketplace.sol\":20184:20211  idToMarketItem[i + 1].owner */\n      0x04\n      add\n      sload\n      sub(shl(0xa0, 0x01), 0x01)\n      and\n        /* \"contracts/Marketplace2/Marketplace.sol\":20184:20225  idToMarketItem[i + 1].owner == msg.sender */\n      sub\n        /* \"contracts/Marketplace2/Marketplace.sol\":20180:20429  if (idToMarketItem[i + 1].owner == msg.sender) {... */\n      tag_157\n      jumpi\n        /* \"contracts/Marketplace2/Marketplace.sol\":20237:20251  uint currentId */\n      0x00\n        /* \"contracts/Marketplace2/Marketplace.sol\":20254:20268  idToMarketItem */\n      0x07\n        /* \"contracts/Marketplace2/Marketplace.sol\":20237:20251  uint currentId */\n      dup2\n        /* \"contracts/Marketplace2/Marketplace.sol\":20269:20274  i + 1 */\n      tag_158\n        /* \"contracts/Marketplace2/Marketplace.sol\":20269:20270  i */\n      dup5\n        /* \"contracts/Marketplace2/Marketplace.sol\":20273:20274  1 */\n      0x01\n        /* \"contracts/Marketplace2/Marketplace.sol\":20269:20274  i + 1 */\n      tag_130\n      jump\t// in\n    tag_158:\n        /* \"contracts/Marketplace2/Marketplace.sol\":20254:20275  idToMarketItem[i + 1] */\n      dup2\n      mstore\n      0x20\n      dup1\n      dup3\n      add\n      swap3\n      swap1\n      swap3\n      mstore\n      0x40\n      swap1\n      dup2\n      add\n      0x00\n      swap1\n      dup2\n      keccak256\n        /* \"contracts/Marketplace2/Marketplace.sol\":20254:20282  idToMarketItem[i + 1].itemId */\n      sload\n        /* \"contracts/Marketplace2/Marketplace.sol\":20325:20350  idToMarketItem[currentId] */\n      dup1\n      dup3\n      mstore\n        /* \"contracts/Marketplace2/Marketplace.sol\":20325:20339  idToMarketItem */\n      0x07\n        /* \"contracts/Marketplace2/Marketplace.sol\":20325:20350  idToMarketItem[currentId] */\n      dup5\n      mstore\n      swap1\n      dup3\n      swap1\n      keccak256\n        /* \"contracts/Marketplace2/Marketplace.sol\":20360:20393  items[currentIndex] = currentItem */\n      dup3\n      mload\n      0xc0\n      dup2\n      add\n      dup5\n      mstore\n      dup2\n      sload\n      dup2\n      mstore\n      0x01\n      dup3\n      add\n      sload\n      sub(shl(0xa0, 0x01), 0x01)\n      swap1\n      dup2\n      and\n      swap6\n      dup3\n      add\n      swap6\n      swap1\n      swap6\n      mstore\n      0x02\n      dup3\n      add\n      sload\n      swap4\n      dup2\n      add\n      swap4\n      swap1\n      swap4\n      mstore\n      0x03\n      dup2\n      add\n      sload\n      dup5\n      and\n      0x60\n      dup5\n      add\n      mstore\n      0x04\n      dup2\n      add\n      sload\n      swap1\n      swap4\n      and\n      0x80\n      dup4\n      add\n      mstore\n      0x05\n      dup4\n      add\n      sload\n      0xa0\n      dup4\n      add\n      mstore\n        /* \"contracts/Marketplace2/Marketplace.sol\":20360:20379  items[currentIndex] */\n      dup6\n      mload\n        /* \"contracts/Marketplace2/Marketplace.sol\":20254:20282  idToMarketItem[i + 1].itemId */\n      swap1\n      swap4\n      pop\n        /* \"contracts/Marketplace2/Marketplace.sol\":20360:20365  items */\n      dup6\n      swap1\n        /* \"contracts/Marketplace2/Marketplace.sol\":20366:20378  currentIndex */\n      dup8\n      swap1\n        /* \"contracts/Marketplace2/Marketplace.sol\":20360:20379  items[currentIndex] */\n      dup2\n      lt\n      tag_160\n      jumpi\n      tag_160\n      tag_135\n      jump\t// in\n    tag_160:\n      0x20\n      swap1\n      dup2\n      mul\n      swap2\n      swap1\n      swap2\n      add\n      add\n        /* \"contracts/Marketplace2/Marketplace.sol\":20360:20393  items[currentIndex] = currentItem */\n      mstore\n        /* \"contracts/Marketplace2/Marketplace.sol\":20403:20420  currentIndex += 1 */\n      tag_161\n        /* \"contracts/Marketplace2/Marketplace.sol\":20419:20420  1 */\n      0x01\n        /* \"contracts/Marketplace2/Marketplace.sol\":20403:20420  currentIndex += 1 */\n      dup7\n      tag_130\n      jump\t// in\n    tag_161:\n      swap5\n      pop\n        /* \"contracts/Marketplace2/Marketplace.sol\":20227:20429  {... */\n      pop\n      pop\n        /* \"contracts/Marketplace2/Marketplace.sol\":20180:20429  if (idToMarketItem[i + 1].owner == msg.sender) {... */\n    tag_157:\n        /* \"contracts/Marketplace2/Marketplace.sol\":20167:20170  i++ */\n      dup1\n      tag_162\n      dup2\n      tag_138\n      jump\t// in\n    tag_162:\n      swap2\n      pop\n      pop\n        /* \"contracts/Marketplace2/Marketplace.sol\":20130:20435  for (uint i = 0; i < totalItemCount; i++) {... */\n      jump(tag_153)\n        /* \"contracts/Marketplace2/Marketplace.sol\":18989:19142  function fetchMarketItem(uint itemId) public view returns (MarketItem memory) {... */\n    tag_40:\n        /* \"contracts/Marketplace2/Marketplace.sol\":19048:19065  MarketItem memory */\n      tag_163\n      tag_125\n      jump\t// in\n    tag_163:\n      pop\n        /* \"contracts/Marketplace2/Marketplace.sol\":19073:19095  MarketItem memory item */\n      0x00\n        /* \"contracts/Marketplace2/Marketplace.sol\":19098:19120  idToMarketItem[itemId] */\n      swap1\n      dup2\n      mstore\n        /* \"contracts/Marketplace2/Marketplace.sol\":19098:19112  idToMarketItem */\n      0x07\n        /* \"contracts/Marketplace2/Marketplace.sol\":19098:19120  idToMarketItem[itemId] */\n      0x20\n      swap1\n      dup2\n      mstore\n      0x40\n      swap2\n      dup3\n      swap1\n      keccak256\n        /* \"contracts/Marketplace2/Marketplace.sol\":19073:19120  MarketItem memory item = idToMarketItem[itemId] */\n      dup3\n      mload\n      0xc0\n      dup2\n      add\n      dup5\n      mstore\n      dup2\n      sload\n      dup2\n      mstore\n      0x01\n      dup3\n      add\n      sload\n      sub(shl(0xa0, 0x01), 0x01)\n      swap1\n      dup2\n      and\n      swap4\n      dup3\n      add\n      swap4\n      swap1\n      swap4\n      mstore\n      0x02\n      dup3\n      add\n      sload\n      swap4\n      dup2\n      add\n      swap4\n      swap1\n      swap4\n      mstore\n      0x03\n      dup2\n      add\n      sload\n      dup3\n      and\n      0x60\n      dup5\n      add\n      mstore\n      0x04\n      dup2\n      add\n      sload\n      swap1\n      swap2\n      and\n      0x80\n      dup4\n      add\n      mstore\n      0x05\n      add\n      sload\n      0xa0\n      dup3\n      add\n      mstore\n      swap1\n        /* \"contracts/Marketplace2/Marketplace.sol\":18989:19142  function fetchMarketItem(uint itemId) public view returns (MarketItem memory) {... */\n      jump\t// out\n        /* \"contracts/Marketplace2/Marketplace.sol\":17831:18457  function createMarketItem(... */\n    tag_58:\n        /* \"contracts/Marketplace2/Marketplace.sol\":14167:14168  2 */\n      0x02\n        /* \"contracts/Marketplace2/Marketplace.sol\":14748:14755  _status */\n      sload(0x00)\n        /* \"contracts/Marketplace2/Marketplace.sol\":14748:14767  _status != _ENTERED */\n      sub\n        /* \"contracts/Marketplace2/Marketplace.sol\":14740:14803  require(_status != _ENTERED, \"ReentrancyGuard: reentrant call\") */\n      tag_166\n      jumpi\n      mload(0x40)\n      shl(0xe5, 0x461bcd)\n      dup2\n      mstore\n        /* \"#utility.yul\":6281:6283   */\n      0x20\n        /* \"contracts/Marketplace2/Marketplace.sol\":14740:14803  require(_status != _ENTERED, \"ReentrancyGuard: reentrant call\") */\n      0x04\n      dup3\n      add\n        /* \"#utility.yul\":6263:6284   */\n      mstore\n        /* \"#utility.yul\":6320:6322   */\n      0x1f\n        /* \"#utility.yul\":6300:6318   */\n      0x24\n      dup3\n      add\n        /* \"#utility.yul\":6293:6323   */\n      mstore\n        /* \"#utility.yul\":6359:6392   */\n      0x5265656e7472616e637947756172643a207265656e7472616e742063616c6c00\n        /* \"#utility.yul\":6339:6357   */\n      0x44\n      dup3\n      add\n        /* \"#utility.yul\":6332:6393   */\n      mstore\n        /* \"#utility.yul\":6410:6428   */\n      0x64\n      add\n        /* \"contracts/Marketplace2/Marketplace.sol\":14740:14803  require(_status != _ENTERED, \"ReentrancyGuard: reentrant call\") */\n      tag_109\n        /* \"#utility.yul\":6079:6434   */\n      jump\n        /* \"contracts/Marketplace2/Marketplace.sol\":14740:14803  require(_status != _ENTERED, \"ReentrancyGuard: reentrant call\") */\n    tag_166:\n        /* \"contracts/Marketplace2/Marketplace.sol\":14167:14168  2 */\n      0x02\n        /* \"contracts/Marketplace2/Marketplace.sol\":14878:14885  _status */\n      0x00\n        /* \"contracts/Marketplace2/Marketplace.sol\":14878:14896  _status = _ENTERED */\n      sstore\n        /* \"contracts/Marketplace2/Marketplace.sol\":17968:17977  price > 0 */\n      dup1\n        /* \"contracts/Marketplace2/Marketplace.sol\":17960:18010  require(price > 0, \"Price must be at least 1 wei\") */\n      tag_170\n      jumpi\n      mload(0x40)\n      shl(0xe5, 0x461bcd)\n      dup2\n      mstore\n        /* \"#utility.yul\":6641:6643   */\n      0x20\n        /* \"contracts/Marketplace2/Marketplace.sol\":17960:18010  require(price > 0, \"Price must be at least 1 wei\") */\n      0x04\n      dup3\n      add\n        /* \"#utility.yul\":6623:6644   */\n      mstore\n        /* \"#utility.yul\":6680:6682   */\n      0x1c\n        /* \"#utility.yul\":6660:6678   */\n      0x24\n      dup3\n      add\n        /* \"#utility.yul\":6653:6683   */\n      mstore\n        /* \"#utility.yul\":6719:6749   */\n      0x5072696365206d757374206265206174206c6561737420312077656900000000\n        /* \"#utility.yul\":6699:6717   */\n      0x44\n      dup3\n      add\n        /* \"#utility.yul\":6692:6750   */\n      mstore\n        /* \"#utility.yul\":6767:6785   */\n      0x64\n      add\n        /* \"contracts/Marketplace2/Marketplace.sol\":17960:18010  require(price > 0, \"Price must be at least 1 wei\") */\n      tag_109\n        /* \"#utility.yul\":6439:6791   */\n      jump\n        /* \"contracts/Marketplace2/Marketplace.sol\":17960:18010  require(price > 0, \"Price must be at least 1 wei\") */\n    tag_170:\n        /* \"contracts/Marketplace2/Marketplace.sol\":18017:18037  _itemIds.increment() */\n      tag_173\n        /* \"contracts/Marketplace2/Marketplace.sol\":18017:18025  _itemIds */\n      0x05\n        /* \"contracts/Marketplace2/Marketplace.sol\":12058:12077  counter._value += 1 */\n      dup1\n      sload\n        /* \"contracts/Marketplace2/Marketplace.sol\":12076:12077  1 */\n      0x01\n        /* \"contracts/Marketplace2/Marketplace.sol\":12058:12077  counter._value += 1 */\n      add\n      swap1\n      sstore\n        /* \"contracts/Marketplace2/Marketplace.sol\":11971:12094  function increment(Counter storage counter) internal {... */\n      jump\n        /* \"contracts/Marketplace2/Marketplace.sol\":18017:18037  _itemIds.increment() */\n    tag_173:\n        /* \"contracts/Marketplace2/Marketplace.sol\":18043:18057  uint256 itemId */\n      0x00\n        /* \"contracts/Marketplace2/Marketplace.sol\":18060:18078  _itemIds.current() */\n      tag_175\n        /* \"contracts/Marketplace2/Marketplace.sol\":18060:18068  _itemIds */\n      0x05\n        /* \"contracts/Marketplace2/Marketplace.sol\":11944:11958  counter._value */\n      sload\n      swap1\n        /* \"contracts/Marketplace2/Marketplace.sol\":11853:11965  function current(Counter storage counter) internal view returns (uint256) {... */\n      jump\n        /* \"contracts/Marketplace2/Marketplace.sol\":18060:18078  _itemIds.current() */\n    tag_175:\n        /* \"contracts/Marketplace2/Marketplace.sol\":18113:18244  MarketItem(... */\n      0x40\n      dup1\n      mload\n      0xc0\n      dup2\n      add\n      dup3\n      mstore\n      dup3\n      dup2\n      mstore\n      sub(shl(0xa0, 0x01), 0x01)\n      dup1\n      dup9\n      and\n      0x20\n      dup1\n      dup5\n      add\n      dup3\n      dup2\n      mstore\n      dup5\n      dup7\n      add\n      dup11\n      dup2\n      mstore\n        /* \"contracts/Marketplace2/Marketplace.sol\":18187:18197  msg.sender */\n      caller\n        /* \"contracts/Marketplace2/Marketplace.sol\":18113:18244  MarketItem(... */\n      0x60\n      dup8\n      add\n      dup2\n      dup2\n      mstore\n      0x00\n      0x80\n      dup10\n      add\n      dup2\n      dup2\n      mstore\n      0xa0\n      dup11\n      add\n      dup15\n      dup2\n      mstore\n        /* \"contracts/Marketplace2/Marketplace.sol\":18087:18109  idToMarketItem[itemId] */\n      dup13\n      dup4\n      mstore\n        /* \"contracts/Marketplace2/Marketplace.sol\":18087:18101  idToMarketItem */\n      0x07\n        /* \"contracts/Marketplace2/Marketplace.sol\":18087:18109  idToMarketItem[itemId] */\n      swap1\n      swap8\n      mstore\n      swap1\n      dup11\n      swap1\n      keccak256\n        /* \"contracts/Marketplace2/Marketplace.sol\":18087:18244  idToMarketItem[itemId] =  MarketItem(... */\n      swap9\n      mload\n      dup10\n      sstore\n      swap4\n      mload\n      0x01\n      dup10\n      add\n      dup1\n      sload\n      swap2\n      dup10\n      and\n      not(sub(shl(0xa0, 0x01), 0x01))\n      swap3\n      dup4\n      and\n      or\n      swap1\n      sstore\n      swap3\n      mload\n      0x02\n      dup10\n      add\n      sstore\n      mload\n      0x03\n      dup9\n      add\n      dup1\n      sload\n      swap2\n      dup9\n      and\n      swap2\n      dup5\n      and\n      swap2\n      swap1\n      swap2\n      or\n      swap1\n      sstore\n      swap2\n      mload\n      0x04\n      dup1\n      dup9\n      add\n      dup1\n      sload\n      swap3\n      swap1\n      swap8\n      and\n      swap2\n      swap1\n      swap3\n      and\n      or\n      swap1\n      swap5\n      sstore\n      swap1\n      mload\n      0x05\n      swap1\n      swap5\n      add\n      swap4\n      swap1\n      swap4\n      sstore\n        /* \"contracts/Marketplace2/Marketplace.sol\":18251:18320  IERC721(nftContract).transferFrom(msg.sender, address(this), tokenId) */\n      swap3\n      mload\n      shl(0xe0, 0x23b872dd)\n      dup2\n      mstore\n        /* \"contracts/Marketplace2/Marketplace.sol\":18043:18078  uint256 itemId = _itemIds.current() */\n      swap4\n      swap5\n      pop\n        /* \"contracts/Marketplace2/Marketplace.sol\":18113:18244  MarketItem(... */\n      swap2\n      swap3\n        /* \"contracts/Marketplace2/Marketplace.sol\":18251:18284  IERC721(nftContract).transferFrom */\n      0x23b872dd\n      swap3\n        /* \"contracts/Marketplace2/Marketplace.sol\":18251:18320  IERC721(nftContract).transferFrom(msg.sender, address(this), tokenId) */\n      tag_176\n      swap3\n        /* \"contracts/Marketplace2/Marketplace.sol\":18187:18197  msg.sender */\n      swap2\n        /* \"contracts/Marketplace2/Marketplace.sol\":18305:18309  this */\n      address\n      swap2\n        /* \"contracts/Marketplace2/Marketplace.sol\":18164:18171  tokenId */\n      dup10\n      swap2\n        /* \"contracts/Marketplace2/Marketplace.sol\":18251:18320  IERC721(nftContract).transferFrom(msg.sender, address(this), tokenId) */\n      add\n      tag_177\n      jump\t// in\n    tag_176:\n      0x00\n      mload(0x40)\n      dup1\n      dup4\n      sub\n      dup2\n      0x00\n      dup8\n      dup1\n      extcodesize\n      iszero\n      dup1\n      iszero\n      tag_178\n      jumpi\n      0x00\n      dup1\n      revert\n    tag_178:\n      pop\n      gas\n      call\n      iszero\n      dup1\n      iszero\n      tag_180\n      jumpi\n      returndatasize\n      0x00\n      dup1\n      returndatacopy\n      revert(0x00, returndatasize)\n    tag_180:\n      pop\n      pop\n      pop\n      pop\n        /* \"contracts/Marketplace2/Marketplace.sol\":18390:18397  tokenId */\n      dup3\n        /* \"contracts/Marketplace2/Marketplace.sol\":18371:18382  nftContract */\n      dup5\n      sub(shl(0xa0, 0x01), 0x01)\n        /* \"contracts/Marketplace2/Marketplace.sol\":18332:18452  MarketItemCreated(... */\n      and\n        /* \"contracts/Marketplace2/Marketplace.sol\":18357:18363  itemId */\n      dup3\n        /* \"contracts/Marketplace2/Marketplace.sol\":18332:18452  MarketItemCreated(... */\n      0x2ad024d53a0dc50c130967f8d4941927ee087ea31394cebb2b9599d3706c9c00\n        /* \"contracts/Marketplace2/Marketplace.sol\":18405:18415  msg.sender */\n      caller\n        /* \"contracts/Marketplace2/Marketplace.sol\":18431:18432  0 */\n      0x00\n        /* \"contracts/Marketplace2/Marketplace.sol\":18441:18446  price */\n      dup8\n        /* \"contracts/Marketplace2/Marketplace.sol\":18332:18452  MarketItemCreated(... */\n      mload(0x40)\n      tag_181\n      swap4\n      swap3\n      swap2\n      swap1\n      tag_177\n      jump\t// in\n    tag_181:\n      mload(0x40)\n      dup1\n      swap2\n      sub\n      swap1\n      log4\n      pop\n      pop\n        /* \"contracts/Marketplace2/Marketplace.sol\":14124:14125  1 */\n      0x01\n        /* \"contracts/Marketplace2/Marketplace.sol\":15051:15058  _status */\n      0x00\n        /* \"contracts/Marketplace2/Marketplace.sol\":15051:15073  _status = _NOT_ENTERED */\n      sstore\n      pop\n      pop\n        /* \"contracts/Marketplace2/Marketplace.sol\":17831:18457  function createMarketItem(... */\n      jump\t// out\n        /* \"contracts/Marketplace2/Marketplace.sol\":2310:2411  function renounceOwnership() public virtual onlyOwner {... */\n    tag_68:\n        /* \"contracts/Marketplace2/Marketplace.sol\":1750:1756  _owner */\n      and(sub(shl(0xa0, 0x01), 0x01), sload(0x04))\n        /* \"contracts/Marketplace2/Marketplace.sol\":635:645  msg.sender */\n      caller\n        /* \"contracts/Marketplace2/Marketplace.sol\":1890:1913  owner() == _msgSender() */\n      eq\n        /* \"contracts/Marketplace2/Marketplace.sol\":1882:1950  require(owner() == _msgSender(), \"Ownable: caller is not the owner\") */\n      tag_185\n      jumpi\n      mload(0x40)\n      shl(0xe5, 0x461bcd)\n      dup2\n      mstore\n      0x04\n      add\n      tag_109\n      swap1\n      tag_110\n      jump\t// in\n    tag_185:\n        /* \"contracts/Marketplace2/Marketplace.sol\":2374:2404  _transferOwnership(address(0)) */\n      tag_188\n        /* \"contracts/Marketplace2/Marketplace.sol\":2401:2402  0 */\n      0x00\n        /* \"contracts/Marketplace2/Marketplace.sol\":2374:2392  _transferOwnership */\n      tag_189\n        /* \"contracts/Marketplace2/Marketplace.sol\":2374:2404  _transferOwnership(address(0)) */\n      jump\t// in\n    tag_188:\n        /* \"contracts/Marketplace2/Marketplace.sol\":2310:2411  function renounceOwnership() public virtual onlyOwner {... */\n      jump\t// out\n        /* \"contracts/Marketplace2/Marketplace.sol\":18461:18985  function createMarketSale(... */\n    tag_90:\n        /* \"contracts/Marketplace2/Marketplace.sol\":14167:14168  2 */\n      0x02\n        /* \"contracts/Marketplace2/Marketplace.sol\":14748:14755  _status */\n      sload(0x00)\n        /* \"contracts/Marketplace2/Marketplace.sol\":14748:14767  _status != _ENTERED */\n      sub\n        /* \"contracts/Marketplace2/Marketplace.sol\":14740:14803  require(_status != _ENTERED, \"ReentrancyGuard: reentrant call\") */\n      tag_192\n      jumpi\n      mload(0x40)\n      shl(0xe5, 0x461bcd)\n      dup2\n      mstore\n        /* \"#utility.yul\":6281:6283   */\n      0x20\n        /* \"contracts/Marketplace2/Marketplace.sol\":14740:14803  require(_status != _ENTERED, \"ReentrancyGuard: reentrant call\") */\n      0x04\n      dup3\n      add\n        /* \"#utility.yul\":6263:6284   */\n      mstore\n        /* \"#utility.yul\":6320:6322   */\n      0x1f\n        /* \"#utility.yul\":6300:6318   */\n      0x24\n      dup3\n      add\n        /* \"#utility.yul\":6293:6323   */\n      mstore\n        /* \"#utility.yul\":6359:6392   */\n      0x5265656e7472616e637947756172643a207265656e7472616e742063616c6c00\n        /* \"#utility.yul\":6339:6357   */\n      0x44\n      dup3\n      add\n        /* \"#utility.yul\":6332:6393   */\n      mstore\n        /* \"#utility.yul\":6410:6428   */\n      0x64\n      add\n        /* \"contracts/Marketplace2/Marketplace.sol\":14740:14803  require(_status != _ENTERED, \"ReentrancyGuard: reentrant call\") */\n      tag_109\n        /* \"#utility.yul\":6079:6434   */\n      jump\n        /* \"contracts/Marketplace2/Marketplace.sol\":14740:14803  require(_status != _ENTERED, \"ReentrancyGuard: reentrant call\") */\n    tag_192:\n        /* \"contracts/Marketplace2/Marketplace.sol\":14167:14168  2 */\n      0x02\n        /* \"contracts/Marketplace2/Marketplace.sol\":14878:14885  _status */\n      0x00\n        /* \"contracts/Marketplace2/Marketplace.sol\":14878:14896  _status = _ENTERED */\n      dup2\n      dup2\n      sstore\n        /* \"contracts/Marketplace2/Marketplace.sol\":18585:18607  idToMarketItem[itemId] */\n      dup3\n      dup2\n      mstore\n        /* \"contracts/Marketplace2/Marketplace.sol\":18585:18599  idToMarketItem */\n      0x07\n        /* \"contracts/Marketplace2/Marketplace.sol\":18585:18607  idToMarketItem[itemId] */\n      0x20\n      mstore\n      0x40\n      swap1\n      keccak256\n        /* \"contracts/Marketplace2/Marketplace.sol\":18585:18613  idToMarketItem[itemId].price */\n      0x05\n      dup2\n      add\n      sload\n        /* \"contracts/Marketplace2/Marketplace.sol\":18634:18664  idToMarketItem[itemId].tokenId */\n      swap2\n      add\n      sload\n        /* \"contracts/Marketplace2/Marketplace.sol\":18678:18687  msg.value */\n      callvalue\n        /* \"contracts/Marketplace2/Marketplace.sol\":18678:18696  msg.value == price */\n      dup3\n      eq\n        /* \"contracts/Marketplace2/Marketplace.sol\":18670:18765  require(msg.value == price, \"Please submit the asking price in order to complete the purchase\") */\n      tag_195\n      jumpi\n      0x40\n      dup1\n      mload\n      shl(0xe5, 0x461bcd)\n      dup2\n      mstore\n        /* \"#utility.yul\":7378:7380   */\n      0x20\n        /* \"contracts/Marketplace2/Marketplace.sol\":18670:18765  require(msg.value == price, \"Please submit the asking price in order to complete the purchase\") */\n      0x04\n      dup3\n      add\n        /* \"#utility.yul\":7360:7381   */\n      mstore\n        /* \"#utility.yul\":7397:7415   */\n      0x24\n      dup2\n      add\n        /* \"#utility.yul\":7390:7420   */\n      swap2\n      swap1\n      swap2\n      mstore\n        /* \"#utility.yul\":7456:7490   */\n      0x506c65617365207375626d6974207468652061736b696e672070726963652069\n        /* \"#utility.yul\":7436:7454   */\n      0x44\n      dup3\n      add\n        /* \"#utility.yul\":7429:7491   */\n      mstore\n        /* \"#utility.yul\":7527:7561   */\n      0x6e206f7264657220746f20636f6d706c65746520746865207075726368617365\n        /* \"#utility.yul\":7507:7525   */\n      0x64\n      dup3\n      add\n        /* \"#utility.yul\":7500:7562   */\n      mstore\n        /* \"#utility.yul\":7579:7598   */\n      0x84\n      add\n        /* \"contracts/Marketplace2/Marketplace.sol\":18670:18765  require(msg.value == price, \"Please submit the asking price in order to complete the purchase\") */\n      tag_109\n        /* \"#utility.yul\":7176:7604   */\n      jump\n        /* \"contracts/Marketplace2/Marketplace.sol\":18670:18765  require(msg.value == price, \"Please submit the asking price in order to complete the purchase\") */\n    tag_195:\n        /* \"contracts/Marketplace2/Marketplace.sol\":18772:18794  idToMarketItem[itemId] */\n      0x00\n      dup4\n      dup2\n      mstore\n        /* \"contracts/Marketplace2/Marketplace.sol\":18772:18786  idToMarketItem */\n      0x07\n        /* \"contracts/Marketplace2/Marketplace.sol\":18772:18794  idToMarketItem[itemId] */\n      0x20\n      mstore\n      0x40\n      dup1\n      dup3\n      keccak256\n        /* \"contracts/Marketplace2/Marketplace.sol\":18772:18801  idToMarketItem[itemId].seller */\n      0x03\n      add\n      sload\n        /* \"contracts/Marketplace2/Marketplace.sol\":18772:18821  idToMarketItem[itemId].seller.transfer(msg.value) */\n      swap1\n      mload\n      sub(shl(0xa0, 0x01), 0x01)\n        /* \"contracts/Marketplace2/Marketplace.sol\":18772:18801  idToMarketItem[itemId].seller */\n      swap1\n      swap2\n      and\n      swap2\n        /* \"contracts/Marketplace2/Marketplace.sol\":18811:18820  msg.value */\n      callvalue\n        /* \"contracts/Marketplace2/Marketplace.sol\":18772:18821  idToMarketItem[itemId].seller.transfer(msg.value) */\n      dup1\n      iszero\n      0x08fc\n      mul\n      swap3\n        /* \"contracts/Marketplace2/Marketplace.sol\":18811:18820  msg.value */\n      swap1\n      swap2\n        /* \"contracts/Marketplace2/Marketplace.sol\":18772:18821  idToMarketItem[itemId].seller.transfer(msg.value) */\n      dup2\n        /* \"contracts/Marketplace2/Marketplace.sol\":18772:18794  idToMarketItem[itemId] */\n      dup2\n        /* \"contracts/Marketplace2/Marketplace.sol\":18772:18821  idToMarketItem[itemId].seller.transfer(msg.value) */\n      dup2\n        /* \"contracts/Marketplace2/Marketplace.sol\":18811:18820  msg.value */\n      dup6\n        /* \"contracts/Marketplace2/Marketplace.sol\":18772:18801  idToMarketItem[itemId].seller */\n      dup9\n        /* \"contracts/Marketplace2/Marketplace.sol\":18772:18821  idToMarketItem[itemId].seller.transfer(msg.value) */\n      dup9\n      call\n      swap4\n      pop\n      pop\n      pop\n      pop\n      iszero\n      dup1\n      iszero\n      tag_199\n      jumpi\n      returndatasize\n      0x00\n      dup1\n      returndatacopy\n      revert(0x00, returndatasize)\n    tag_199:\n      pop\n        /* \"contracts/Marketplace2/Marketplace.sol\":18827:18896  IERC721(nftContract).transferFrom(address(this), msg.sender, tokenId) */\n      mload(0x40)\n      shl(0xe0, 0x23b872dd)\n      dup2\n      mstore\n      sub(shl(0xa0, 0x01), 0x01)\n        /* \"contracts/Marketplace2/Marketplace.sol\":18827:18860  IERC721(nftContract).transferFrom */\n      dup6\n      and\n      swap1\n      0x23b872dd\n      swap1\n        /* \"contracts/Marketplace2/Marketplace.sol\":18827:18896  IERC721(nftContract).transferFrom(address(this), msg.sender, tokenId) */\n      tag_200\n      swap1\n        /* \"contracts/Marketplace2/Marketplace.sol\":18869:18873  this */\n      address\n      swap1\n        /* \"contracts/Marketplace2/Marketplace.sol\":18876:18886  msg.sender */\n      caller\n      swap1\n        /* \"contracts/Marketplace2/Marketplace.sol\":18888:18895  tokenId */\n      dup7\n      swap1\n        /* \"contracts/Marketplace2/Marketplace.sol\":18827:18896  IERC721(nftContract).transferFrom(address(this), msg.sender, tokenId) */\n      0x04\n      add\n      tag_177\n      jump\t// in\n    tag_200:\n      0x00\n      mload(0x40)\n      dup1\n      dup4\n      sub\n      dup2\n      0x00\n      dup8\n      dup1\n      extcodesize\n      iszero\n      dup1\n      iszero\n      tag_201\n      jumpi\n      0x00\n      dup1\n      revert\n    tag_201:\n      pop\n      gas\n      call\n      iszero\n      dup1\n      iszero\n      tag_203\n      jumpi\n      returndatasize\n      0x00\n      dup1\n      returndatacopy\n      revert(0x00, returndatasize)\n    tag_203:\n      pop\n      pop\n      pop\n        /* \"contracts/Marketplace2/Marketplace.sol\":18902:18924  idToMarketItem[itemId] */\n      0x00\n      dup5\n      dup2\n      mstore\n        /* \"contracts/Marketplace2/Marketplace.sol\":18902:18916  idToMarketItem */\n      0x07\n        /* \"contracts/Marketplace2/Marketplace.sol\":18902:18924  idToMarketItem[itemId] */\n      0x20\n      mstore\n      0x40\n      swap1\n      keccak256\n        /* \"contracts/Marketplace2/Marketplace.sol\":18902:18930  idToMarketItem[itemId].owner */\n      0x04\n      add\n        /* \"contracts/Marketplace2/Marketplace.sol\":18902:18952  idToMarketItem[itemId].owner = payable(msg.sender) */\n      dup1\n      sload\n      not(sub(shl(0xa0, 0x01), 0x01))\n      and\n        /* \"contracts/Marketplace2/Marketplace.sol\":18941:18951  msg.sender */\n      caller\n        /* \"contracts/Marketplace2/Marketplace.sol\":18902:18952  idToMarketItem[itemId].owner = payable(msg.sender) */\n      or\n      swap1\n      sstore\n      pop\n        /* \"contracts/Marketplace2/Marketplace.sol\":18958:18980  _itemsSold.increment() */\n      tag_204\n        /* \"contracts/Marketplace2/Marketplace.sol\":18958:18968  _itemsSold */\n      0x06\n        /* \"contracts/Marketplace2/Marketplace.sol\":12058:12077  counter._value += 1 */\n      dup1\n      sload\n        /* \"contracts/Marketplace2/Marketplace.sol\":12076:12077  1 */\n      0x01\n        /* \"contracts/Marketplace2/Marketplace.sol\":12058:12077  counter._value += 1 */\n      add\n      swap1\n      sstore\n        /* \"contracts/Marketplace2/Marketplace.sol\":11971:12094  function increment(Counter storage counter) internal {... */\n      jump\n        /* \"contracts/Marketplace2/Marketplace.sol\":18958:18980  _itemsSold.increment() */\n    tag_204:\n      pop\n      pop\n        /* \"contracts/Marketplace2/Marketplace.sol\":14124:14125  1 */\n      0x01\n        /* \"contracts/Marketplace2/Marketplace.sol\":15051:15058  _status */\n      0x00\n        /* \"contracts/Marketplace2/Marketplace.sol\":15051:15073  _status = _NOT_ENTERED */\n      sstore\n      pop\n      pop\n        /* \"contracts/Marketplace2/Marketplace.sol\":18461:18985  function createMarketSale(... */\n      jump\t// out\n        /* \"contracts/Marketplace2/Marketplace.sol\":20466:21764  function buyItemBySQF(... */\n    tag_99:\n        /* \"contracts/Marketplace2/Marketplace.sol\":20591:20617  _requireERC721(nftAddress) */\n      tag_208\n        /* \"contracts/Marketplace2/Marketplace.sol\":20606:20616  nftAddress */\n      dup4\n        /* \"contracts/Marketplace2/Marketplace.sol\":20591:20605  _requireERC721 */\n      tag_209\n        /* \"contracts/Marketplace2/Marketplace.sol\":20591:20617  _requireERC721(nftAddress) */\n      jump\t// in\n    tag_208:\n      sub(shl(0xa0, 0x01), 0x01)\n        /* \"contracts/Marketplace2/Marketplace.sol\":20735:20752  items[nftAddress] */\n      dup1\n      dup5\n      and\n        /* \"contracts/Marketplace2/Marketplace.sol\":20628:20642  address sender */\n      0x00\n        /* \"contracts/Marketplace2/Marketplace.sol\":20735:20752  items[nftAddress] */\n      swap1\n      dup2\n      mstore\n        /* \"contracts/Marketplace2/Marketplace.sol\":20735:20740  items */\n      0x01\n        /* \"contracts/Marketplace2/Marketplace.sol\":20735:20752  items[nftAddress] */\n      0x20\n      dup2\n      dup2\n      mstore\n      0x40\n      dup1\n      dup5\n      keccak256\n        /* \"contracts/Marketplace2/Marketplace.sol\":20735:20761  items[nftAddress][assetId] */\n      dup8\n      dup6\n      mstore\n      dup3\n      mstore\n      dup1\n      dup5\n      keccak256\n        /* \"contracts/Marketplace2/Marketplace.sol\":20716:20761  Item memory item = items[nftAddress][assetId] */\n      dup2\n      mload\n      0xc0\n      dup2\n      add\n      dup4\n      mstore\n      dup2\n      sload\n      dup2\n      mstore\n      swap4\n      dup2\n      add\n      sload\n      dup7\n      and\n      swap3\n      dup5\n      add\n      swap3\n      swap1\n      swap3\n      mstore\n      0x02\n      dup3\n      add\n      sload\n      swap1\n      swap5\n      and\n      swap4\n      dup3\n      add\n      swap4\n      swap1\n      swap4\n      mstore\n      0x03\n      dup4\n      add\n      sload\n      0x60\n      dup3\n      add\n      mstore\n      0x04\n      dup1\n      dup5\n      add\n      sload\n      0x80\n      dup4\n      add\n      mstore\n      0x05\n      dup5\n      add\n      sload\n        /* \"contracts/Marketplace2/Marketplace.sol\":20645:20655  msg.sender */\n      caller\n      swap5\n        /* \"contracts/Marketplace2/Marketplace.sol\":20695:20705  nftAddress */\n      dup9\n      swap5\n        /* \"contracts/Marketplace2/Marketplace.sol\":20628:20642  address sender */\n      swap4\n        /* \"contracts/Marketplace2/Marketplace.sol\":20716:20761  Item memory item = items[nftAddress][assetId] */\n      swap3\n        /* \"contracts/Marketplace2/Marketplace.sol\":20735:20761  items[nftAddress][assetId] */\n      swap1\n      swap2\n        /* \"contracts/Marketplace2/Marketplace.sol\":20716:20761  Item memory item = items[nftAddress][assetId] */\n      0xa0\n      dup5\n      add\n      swap2\n      0xff\n      swap1\n      swap2\n      and\n      swap1\n      dup2\n      gt\n      iszero\n      tag_211\n      jumpi\n      tag_211\n      tag_212\n      jump\t// in\n    tag_211:\n      0x04\n      dup2\n      gt\n      iszero\n      tag_214\n      jumpi\n      tag_214\n      tag_212\n      jump\t// in\n    tag_214:\n      swap1\n      mstore\n      pop\n        /* \"contracts/Marketplace2/Marketplace.sol\":20780:20787  item.id */\n      dup1\n      mload\n        /* \"contracts/Marketplace2/Marketplace.sol\":20716:20761  Item memory item = items[nftAddress][assetId] */\n      swap1\n      swap2\n      pop\n        /* \"contracts/Marketplace2/Marketplace.sol\":20780:20787  item.id */\n      0x00\n        /* \"contracts/Marketplace2/Marketplace.sol\":20780:20792  item.id != 0 */\n      sub\n        /* \"contracts/Marketplace2/Marketplace.sol\":20772:20816  require(item.id != 0, \"Asset not published\") */\n      tag_215\n      jumpi\n      mload(0x40)\n      shl(0xe5, 0x461bcd)\n      dup2\n      mstore\n        /* \"#utility.yul\":7811:7813   */\n      0x20\n        /* \"contracts/Marketplace2/Marketplace.sol\":20772:20816  require(item.id != 0, \"Asset not published\") */\n      0x04\n      dup3\n      add\n        /* \"#utility.yul\":7793:7814   */\n      mstore\n        /* \"#utility.yul\":7850:7852   */\n      0x13\n        /* \"#utility.yul\":7830:7848   */\n      0x24\n      dup3\n      add\n        /* \"#utility.yul\":7823:7853   */\n      mstore\n      shl(0x6a, 0x105cdcd95d081b9bdd081c1d589b1a5cda1959)\n        /* \"#utility.yul\":7869:7887   */\n      0x44\n      dup3\n      add\n        /* \"#utility.yul\":7862:7911   */\n      mstore\n        /* \"#utility.yul\":7928:7946   */\n      0x64\n      add\n        /* \"contracts/Marketplace2/Marketplace.sol\":20772:20816  require(item.id != 0, \"Asset not published\") */\n      tag_109\n        /* \"#utility.yul\":7609:7952   */\n      jump\n        /* \"contracts/Marketplace2/Marketplace.sol\":20772:20816  require(item.id != 0, \"Asset not published\") */\n    tag_215:\n        /* \"contracts/Marketplace2/Marketplace.sol\":20849:20864  ItemStatus.LIST */\n      0x01\n        /* \"contracts/Marketplace2/Marketplace.sol\":20834:20838  item */\n      dup2\n        /* \"contracts/Marketplace2/Marketplace.sol\":20834:20845  item.status */\n      0xa0\n      add\n      mload\n        /* \"contracts/Marketplace2/Marketplace.sol\":20834:20864  item.status == ItemStatus.LIST */\n      0x04\n      dup2\n      gt\n      iszero\n      tag_221\n      jumpi\n      tag_221\n      tag_212\n      jump\t// in\n    tag_221:\n      eq\n        /* \"contracts/Marketplace2/Marketplace.sol\":20826:20893  require(item.status == ItemStatus.LIST, \"Asset is not list to buy\") */\n      tag_222\n      jumpi\n      mload(0x40)\n      shl(0xe5, 0x461bcd)\n      dup2\n      mstore\n        /* \"#utility.yul\":8159:8161   */\n      0x20\n        /* \"contracts/Marketplace2/Marketplace.sol\":20826:20893  require(item.status == ItemStatus.LIST, \"Asset is not list to buy\") */\n      0x04\n      dup3\n      add\n        /* \"#utility.yul\":8141:8162   */\n      mstore\n        /* \"#utility.yul\":8198:8200   */\n      0x18\n        /* \"#utility.yul\":8178:8196   */\n      0x24\n      dup3\n      add\n        /* \"#utility.yul\":8171:8201   */\n      mstore\n        /* \"#utility.yul\":8237:8263   */\n      0x4173736574206973206e6f74206c69737420746f206275790000000000000000\n        /* \"#utility.yul\":8217:8235   */\n      0x44\n      dup3\n      add\n        /* \"#utility.yul\":8210:8264   */\n      mstore\n        /* \"#utility.yul\":8281:8299   */\n      0x64\n      add\n        /* \"contracts/Marketplace2/Marketplace.sol\":20826:20893  require(item.status == ItemStatus.LIST, \"Asset is not list to buy\") */\n      tag_109\n        /* \"#utility.yul\":7957:8305   */\n      jump\n        /* \"contracts/Marketplace2/Marketplace.sol\":20826:20893  require(item.status == ItemStatus.LIST, \"Asset is not list to buy\") */\n    tag_222:\n        /* \"contracts/Marketplace2/Marketplace.sol\":20921:20932  item.seller */\n      0x20\n      dup2\n      add\n      mload\n      sub(shl(0xa0, 0x01), 0x01)\n        /* \"contracts/Marketplace2/Marketplace.sol\":20951:20971  seller != address(0) */\n      dup2\n      and\n        /* \"contracts/Marketplace2/Marketplace.sol\":20943:20991  require(seller != address(0), \"Invalid address\") */\n      tag_225\n      jumpi\n      mload(0x40)\n      shl(0xe5, 0x461bcd)\n      dup2\n      mstore\n        /* \"#utility.yul\":8512:8514   */\n      0x20\n        /* \"contracts/Marketplace2/Marketplace.sol\":20943:20991  require(seller != address(0), \"Invalid address\") */\n      0x04\n      dup3\n      add\n        /* \"#utility.yul\":8494:8515   */\n      mstore\n        /* \"#utility.yul\":8551:8553   */\n      0x0f\n        /* \"#utility.yul\":8531:8549   */\n      0x24\n      dup3\n      add\n        /* \"#utility.yul\":8524:8554   */\n      mstore\n      shl(0x88, 0x496e76616c69642061646472657373)\n        /* \"#utility.yul\":8570:8588   */\n      0x44\n      dup3\n      add\n        /* \"#utility.yul\":8563:8608   */\n      mstore\n        /* \"#utility.yul\":8625:8643   */\n      0x64\n      add\n        /* \"contracts/Marketplace2/Marketplace.sol\":20943:20991  require(seller != address(0), \"Invalid address\") */\n      tag_109\n        /* \"#utility.yul\":8310:8649   */\n      jump\n        /* \"contracts/Marketplace2/Marketplace.sol\":20943:20991  require(seller != address(0), \"Invalid address\") */\n    tag_225:\n        /* \"contracts/Marketplace2/Marketplace.sol\":21022:21026  item */\n      dup2\n        /* \"contracts/Marketplace2/Marketplace.sol\":21022:21036  item.priceAnta */\n      0x80\n      add\n      mload\n        /* \"contracts/Marketplace2/Marketplace.sol\":21009:21018  priceAnta */\n      dup6\n        /* \"contracts/Marketplace2/Marketplace.sol\":21009:21036  priceAnta >= item.priceAnta */\n      lt\n      iszero\n        /* \"contracts/Marketplace2/Marketplace.sol\":21001:21071  require(priceAnta >= item.priceAnta, \"price need equal listing price\") */\n      tag_228\n      jumpi\n      mload(0x40)\n      shl(0xe5, 0x461bcd)\n      dup2\n      mstore\n        /* \"#utility.yul\":8856:8858   */\n      0x20\n        /* \"contracts/Marketplace2/Marketplace.sol\":21001:21071  require(priceAnta >= item.priceAnta, \"price need equal listing price\") */\n      0x04\n      dup3\n      add\n        /* \"#utility.yul\":8838:8859   */\n      mstore\n        /* \"#utility.yul\":8895:8897   */\n      0x1e\n        /* \"#utility.yul\":8875:8893   */\n      0x24\n      dup3\n      add\n        /* \"#utility.yul\":8868:8898   */\n      mstore\n        /* \"#utility.yul\":8934:8966   */\n      0x7072696365206e65656420657175616c206c697374696e672070726963650000\n        /* \"#utility.yul\":8914:8932   */\n      0x44\n      dup3\n      add\n        /* \"#utility.yul\":8907:8967   */\n      mstore\n        /* \"#utility.yul\":8984:9002   */\n      0x64\n      add\n        /* \"contracts/Marketplace2/Marketplace.sol\":21001:21071  require(priceAnta >= item.priceAnta, \"price need equal listing price\") */\n      tag_109\n        /* \"#utility.yul\":8654:9008   */\n      jump\n        /* \"contracts/Marketplace2/Marketplace.sol\":21001:21071  require(priceAnta >= item.priceAnta, \"price need equal listing price\") */\n    tag_228:\n        /* \"contracts/Marketplace2/Marketplace.sol\":21097:21111  antaFeePercent */\n      sload(0x03)\n        /* \"contracts/Marketplace2/Marketplace.sol\":21082:21093  uint256 fee */\n      0x00\n      swap1\n        /* \"contracts/Marketplace2/Marketplace.sol\":21127:21130  100 */\n      0x64\n      swap1\n        /* \"contracts/Marketplace2/Marketplace.sol\":21097:21123  antaFeePercent * priceAnta */\n      tag_231\n      swap1\n        /* \"contracts/Marketplace2/Marketplace.sol\":21114:21123  priceAnta */\n      dup9\n      swap1\n      shl(0xa8, 0x01)\n        /* \"contracts/Marketplace2/Marketplace.sol\":21097:21111  antaFeePercent */\n      swap1\n      div\n      0xff\n      and\n        /* \"contracts/Marketplace2/Marketplace.sol\":21097:21123  antaFeePercent * priceAnta */\n      tag_232\n      jump\t// in\n    tag_231:\n        /* \"contracts/Marketplace2/Marketplace.sol\":21096:21130  (antaFeePercent * priceAnta) / 100 */\n      tag_233\n      swap2\n      swap1\n      tag_234\n      jump\t// in\n    tag_233:\n        /* \"contracts/Marketplace2/Marketplace.sol\":21082:21130  uint256 fee = (antaFeePercent * priceAnta) / 100 */\n      swap1\n      pop\n        /* \"contracts/Marketplace2/Marketplace.sol\":21140:21160  uint256 remainAmount */\n      0x00\n        /* \"contracts/Marketplace2/Marketplace.sol\":21163:21178  priceAnta - fee */\n      tag_235\n        /* \"contracts/Marketplace2/Marketplace.sol\":21082:21130  uint256 fee = (antaFeePercent * priceAnta) / 100 */\n      dup3\n        /* \"contracts/Marketplace2/Marketplace.sol\":21163:21172  priceAnta */\n      dup9\n        /* \"contracts/Marketplace2/Marketplace.sol\":21163:21178  priceAnta - fee */\n      tag_118\n      jump\t// in\n    tag_235:\n        /* \"contracts/Marketplace2/Marketplace.sol\":21188:21197  antaToken */\n      sload(0x03)\n        /* \"contracts/Marketplace2/Marketplace.sol\":21188:21238  antaToken.transferFrom(sender, address(this), fee) */\n      mload(0x40)\n      shl(0xe0, 0x23b872dd)\n      dup2\n      mstore\n        /* \"contracts/Marketplace2/Marketplace.sol\":21140:21178  uint256 remainAmount = priceAnta - fee */\n      swap2\n      swap3\n      pop\n      sub(shl(0xa0, 0x01), 0x01)\n        /* \"contracts/Marketplace2/Marketplace.sol\":21188:21197  antaToken */\n      and\n      swap1\n        /* \"contracts/Marketplace2/Marketplace.sol\":21188:21210  antaToken.transferFrom */\n      0x23b872dd\n      swap1\n        /* \"contracts/Marketplace2/Marketplace.sol\":21188:21238  antaToken.transferFrom(sender, address(this), fee) */\n      tag_236\n      swap1\n        /* \"contracts/Marketplace2/Marketplace.sol\":21211:21217  sender */\n      dup10\n      swap1\n        /* \"contracts/Marketplace2/Marketplace.sol\":21227:21231  this */\n      address\n      swap1\n        /* \"contracts/Marketplace2/Marketplace.sol\":21234:21237  fee */\n      dup8\n      swap1\n        /* \"contracts/Marketplace2/Marketplace.sol\":21188:21238  antaToken.transferFrom(sender, address(this), fee) */\n      0x04\n      add\n      tag_177\n      jump\t// in\n    tag_236:\n      0x20\n      mload(0x40)\n      dup1\n      dup4\n      sub\n      dup2\n      0x00\n      dup8\n      gas\n      call\n      iszero\n      dup1\n      iszero\n      tag_238\n      jumpi\n      returndatasize\n      0x00\n      dup1\n      returndatacopy\n      revert(0x00, returndatasize)\n    tag_238:\n      pop\n      pop\n      pop\n      pop\n      mload(0x40)\n      returndatasize\n      not(0x1f)\n      0x1f\n      dup3\n      add\n      and\n      dup3\n      add\n      dup1\n      0x40\n      mstore\n      pop\n      dup2\n      add\n      swap1\n      tag_239\n      swap2\n      swap1\n      tag_240\n      jump\t// in\n    tag_239:\n      pop\n        /* \"contracts/Marketplace2/Marketplace.sol\":21248:21257  antaToken */\n      sload(0x03)\n        /* \"contracts/Marketplace2/Marketplace.sol\":21248:21300  antaToken.transferFrom(sender, seller, remainAmount) */\n      mload(0x40)\n      shl(0xe0, 0x23b872dd)\n      dup2\n      mstore\n      sub(shl(0xa0, 0x01), 0x01)\n        /* \"contracts/Marketplace2/Marketplace.sol\":21248:21257  antaToken */\n      swap1\n      swap2\n      and\n      swap1\n        /* \"contracts/Marketplace2/Marketplace.sol\":21248:21270  antaToken.transferFrom */\n      0x23b872dd\n      swap1\n        /* \"contracts/Marketplace2/Marketplace.sol\":21248:21300  antaToken.transferFrom(sender, seller, remainAmount) */\n      tag_241\n      swap1\n        /* \"contracts/Marketplace2/Marketplace.sol\":21271:21277  sender */\n      dup10\n      swap1\n        /* \"contracts/Marketplace2/Marketplace.sol\":21279:21285  seller */\n      dup8\n      swap1\n        /* \"contracts/Marketplace2/Marketplace.sol\":21287:21299  remainAmount */\n      dup7\n      swap1\n        /* \"contracts/Marketplace2/Marketplace.sol\":21248:21300  antaToken.transferFrom(sender, seller, remainAmount) */\n      0x04\n      add\n      tag_177\n      jump\t// in\n    tag_241:\n      0x20\n      mload(0x40)\n      dup1\n      dup4\n      sub\n      dup2\n      0x00\n      dup8\n      gas\n      call\n      iszero\n      dup1\n      iszero\n      tag_243\n      jumpi\n      returndatasize\n      0x00\n      dup1\n      returndatacopy\n      revert(0x00, returndatasize)\n    tag_243:\n      pop\n      pop\n      pop\n      pop\n      mload(0x40)\n      returndatasize\n      not(0x1f)\n      0x1f\n      dup3\n      add\n      and\n      dup3\n      add\n      dup1\n      0x40\n      mstore\n      pop\n      dup2\n      add\n      swap1\n      tag_244\n      swap2\n      swap1\n      tag_240\n      jump\t// in\n    tag_244:\n      pop\n        /* \"contracts/Marketplace2/Marketplace.sol\":21310:21370  nftRegistry.safeTransferFrom(address(this), sender, assetId) */\n      mload(0x40)\n      shl(0xe1, 0x21421707)\n      dup2\n      mstore\n      sub(shl(0xa0, 0x01), 0x01)\n        /* \"contracts/Marketplace2/Marketplace.sol\":21310:21338  nftRegistry.safeTransferFrom */\n      dup7\n      and\n      swap1\n      0x42842e0e\n      swap1\n        /* \"contracts/Marketplace2/Marketplace.sol\":21310:21370  nftRegistry.safeTransferFrom(address(this), sender, assetId) */\n      tag_245\n      swap1\n        /* \"contracts/Marketplace2/Marketplace.sol\":21347:21351  this */\n      address\n      swap1\n        /* \"contracts/Marketplace2/Marketplace.sol\":21354:21360  sender */\n      dup11\n      swap1\n        /* \"contracts/Marketplace2/Marketplace.sol\":21362:21369  assetId */\n      dup14\n      swap1\n        /* \"contracts/Marketplace2/Marketplace.sol\":21310:21370  nftRegistry.safeTransferFrom(address(this), sender, assetId) */\n      0x04\n      add\n      tag_177\n      jump\t// in\n    tag_245:\n      0x00\n      mload(0x40)\n      dup1\n      dup4\n      sub\n      dup2\n      0x00\n      dup8\n      dup1\n      extcodesize\n      iszero\n      dup1\n      iszero\n      tag_246\n      jumpi\n      0x00\n      dup1\n      revert\n    tag_246:\n      pop\n      gas\n      call\n      iszero\n      dup1\n      iszero\n      tag_248\n      jumpi\n      returndatasize\n      0x00\n      dup1\n      returndatacopy\n      revert(0x00, returndatasize)\n    tag_248:\n      pop\n      pop\n      pop\n      pop\n      sub(shl(0xa0, 0x01), 0x01)\n        /* \"contracts/Marketplace2/Marketplace.sol\":21381:21398  items[nftAddress] */\n      dup10\n      dup2\n      and\n      0x00\n      dup2\n      dup2\n      mstore\n        /* \"contracts/Marketplace2/Marketplace.sol\":21381:21386  items */\n      0x01\n        /* \"contracts/Marketplace2/Marketplace.sol\":21381:21398  items[nftAddress] */\n      0x20\n      dup2\n      dup2\n      mstore\n      0x40\n      dup1\n      dup5\n      keccak256\n        /* \"contracts/Marketplace2/Marketplace.sol\":21381:21407  items[nftAddress][assetId] */\n      dup15\n      dup6\n      mstore\n      dup3\n      mstore\n      swap3\n      dup4\n      swap1\n      keccak256\n        /* \"contracts/Marketplace2/Marketplace.sol\":21381:21414  items[nftAddress][assetId].seller */\n      swap2\n      dup3\n      add\n        /* \"contracts/Marketplace2/Marketplace.sol\":21381:21423  items[nftAddress][assetId].seller = sender */\n      dup1\n      sload\n      dup13\n      dup8\n      and\n      not(sub(shl(0xa0, 0x01), 0x01))\n      swap1\n      swap2\n      and\n      dup2\n      or\n      swap1\n      swap2\n      sstore\n        /* \"contracts/Marketplace2/Marketplace.sol\":21433:21466  items[nftAddress][assetId].status */\n      0x05\n      swap1\n      swap3\n      add\n        /* \"contracts/Marketplace2/Marketplace.sol\":21433:21486  items[nftAddress][assetId].status = ItemStatus.BOUGHT */\n      dup1\n      sload\n      not(0xff)\n      and\n        /* \"contracts/Marketplace2/Marketplace.sol\":21469:21486  ItemStatus.BOUGHT */\n      0x02\n        /* \"contracts/Marketplace2/Marketplace.sol\":21433:21486  items[nftAddress][assetId].status = ItemStatus.BOUGHT */\n      or\n      swap1\n      sstore\n        /* \"contracts/Marketplace2/Marketplace.sol\":21533:21540  item.id */\n      dup9\n      mload\n        /* \"contracts/Marketplace2/Marketplace.sol\":21619:21633  item.priceAnta */\n      0x80\n      dup1\n      dup12\n      add\n      mload\n        /* \"contracts/Marketplace2/Marketplace.sol\":21647:21661  antaFeePercent */\n      sload(0x03)\n        /* \"contracts/Marketplace2/Marketplace.sol\":21502:21757  BuyItemSuccessful(... */\n      dup7\n      mload\n        /* \"#utility.yul\":10038:10063   */\n      swap4\n      dup5\n      mstore\n        /* \"#utility.yul\":10079:10097   */\n      swap4\n      dup4\n      add\n        /* \"#utility.yul\":10072:10132   */\n      swap7\n      swap1\n      swap7\n      mstore\n        /* \"#utility.yul\":10148:10166   */\n      swap4\n      dup2\n      add\n        /* \"#utility.yul\":10141:10175   */\n      swap5\n      swap1\n      swap5\n      mstore\n      shl(0xa8, 0x01)\n        /* \"contracts/Marketplace2/Marketplace.sol\":21647:21661  antaFeePercent */\n      swap1\n      div\n      0xff\n      and\n        /* \"#utility.yul\":10206:10208   */\n      0x60\n        /* \"#utility.yul\":10191:10209   */\n      dup5\n      add\n        /* \"#utility.yul\":10184:10229   */\n      mstore\n        /* \"#utility.yul\":10245:10264   */\n      swap1\n      dup3\n      add\n        /* \"#utility.yul\":10238:10273   */\n      dup6\n      swap1\n      mstore\n        /* \"#utility.yul\":10310:10313   */\n      0xe0\n        /* \"#utility.yul\":10119:10122   */\n      0xa0\n        /* \"#utility.yul\":10289:10308   */\n      dup4\n      add\n        /* \"#utility.yul\":10282:10314   */\n      dup2\n      swap1\n      mstore\n        /* \"#utility.yul\":10351:10352   */\n      0x04\n        /* \"#utility.yul\":10330:10349   */\n      swap1\n      dup4\n      add\n        /* \"#utility.yul\":10323:10353   */\n      mstore\n      shl(0xe0, 0x414e5441)\n        /* \"contracts/Marketplace2/Marketplace.sol\":21647:21661  antaFeePercent */\n      0x0100\n        /* \"#utility.yul\":10369:10388   */\n      dup4\n      add\n        /* \"#utility.yul\":10362:10397   */\n      mstore\n        /* \"contracts/Marketplace2/Marketplace.sol\":21732:21747  block.timestamp */\n      timestamp\n        /* \"#utility.yul\":10464:10467   */\n      0xc0\n        /* \"#utility.yul\":10449:10468   */\n      dup4\n      add\n        /* \"#utility.yul\":10442:10477   */\n      mstore\n        /* \"contracts/Marketplace2/Marketplace.sol\":21381:21423  items[nftAddress][assetId].seller = sender */\n      swap2\n        /* \"contracts/Marketplace2/Marketplace.sol\":21502:21757  BuyItemSuccessful(... */\n      dup6\n      and\n      swap1\n        /* \"contracts/Marketplace2/Marketplace.sol\":21381:21407  items[nftAddress][assetId] */\n      dup11\n      swap1\n        /* \"contracts/Marketplace2/Marketplace.sol\":21502:21757  BuyItemSuccessful(... */\n      0x30247e11bbb597dfefd2a3124026f1ef8987a4d6ba46e3629f80bac1b0c9faee\n      swap1\n        /* \"#utility.yul\":10429:10432   */\n      0x0120\n        /* \"#utility.yul\":10414:10433   */\n      add\n        /* \"contracts/Marketplace2/Marketplace.sol\":21502:21757  BuyItemSuccessful(... */\n      mload(0x40)\n      dup1\n      swap2\n      sub\n      swap1\n      log4\n        /* \"contracts/Marketplace2/Marketplace.sol\":20581:21764  {... */\n      pop\n      pop\n      pop\n      pop\n      pop\n      pop\n        /* \"contracts/Marketplace2/Marketplace.sol\":20466:21764  function buyItemBySQF(... */\n      pop\n      pop\n      pop\n      jump\t// out\n        /* \"contracts/Marketplace2/Marketplace.sol\":2560:2758  function transferOwnership(address newOwner) public virtual onlyOwner {... */\n    tag_103:\n        /* \"contracts/Marketplace2/Marketplace.sol\":1750:1756  _owner */\n      and(sub(shl(0xa0, 0x01), 0x01), sload(0x04))\n        /* \"contracts/Marketplace2/Marketplace.sol\":635:645  msg.sender */\n      caller\n        /* \"contracts/Marketplace2/Marketplace.sol\":1890:1913  owner() == _msgSender() */\n      eq\n        /* \"contracts/Marketplace2/Marketplace.sol\":1882:1950  require(owner() == _msgSender(), \"Ownable: caller is not the owner\") */\n      tag_256\n      jumpi\n      mload(0x40)\n      shl(0xe5, 0x461bcd)\n      dup2\n      mstore\n      0x04\n      add\n      tag_109\n      swap1\n      tag_110\n      jump\t// in\n    tag_256:\n      sub(shl(0xa0, 0x01), 0x01)\n        /* \"contracts/Marketplace2/Marketplace.sol\":2648:2670  newOwner != address(0) */\n      dup2\n      and\n        /* \"contracts/Marketplace2/Marketplace.sol\":2640:2713  require(newOwner != address(0), \"Ownable: new owner is the zero address\") */\n      tag_259\n      jumpi\n      mload(0x40)\n      shl(0xe5, 0x461bcd)\n      dup2\n      mstore\n        /* \"#utility.yul\":10690:10692   */\n      0x20\n        /* \"contracts/Marketplace2/Marketplace.sol\":2640:2713  require(newOwner != address(0), \"Ownable: new owner is the zero address\") */\n      0x04\n      dup3\n      add\n        /* \"#utility.yul\":10672:10693   */\n      mstore\n        /* \"#utility.yul\":10729:10731   */\n      0x26\n        /* \"#utility.yul\":10709:10727   */\n      0x24\n      dup3\n      add\n        /* \"#utility.yul\":10702:10732   */\n      mstore\n        /* \"#utility.yul\":10768:10802   */\n      0x4f776e61626c653a206e6577206f776e657220697320746865207a65726f2061\n        /* \"#utility.yul\":10748:10766   */\n      0x44\n      dup3\n      add\n        /* \"#utility.yul\":10741:10803   */\n      mstore\n      shl(0xd0, 0x646472657373)\n        /* \"#utility.yul\":10819:10837   */\n      0x64\n      dup3\n      add\n        /* \"#utility.yul\":10812:10848   */\n      mstore\n        /* \"#utility.yul\":10865:10884   */\n      0x84\n      add\n        /* \"contracts/Marketplace2/Marketplace.sol\":2640:2713  require(newOwner != address(0), \"Ownable: new owner is the zero address\") */\n      tag_109\n        /* \"#utility.yul\":10488:10890   */\n      jump\n        /* \"contracts/Marketplace2/Marketplace.sol\":2640:2713  require(newOwner != address(0), \"Ownable: new owner is the zero address\") */\n    tag_259:\n        /* \"contracts/Marketplace2/Marketplace.sol\":2723:2751  _transferOwnership(newOwner) */\n      tag_262\n        /* \"contracts/Marketplace2/Marketplace.sol\":2742:2750  newOwner */\n      dup2\n        /* \"contracts/Marketplace2/Marketplace.sol\":2723:2741  _transferOwnership */\n      tag_189\n        /* \"contracts/Marketplace2/Marketplace.sol\":2723:2751  _transferOwnership(newOwner) */\n      jump\t// in\n    tag_262:\n        /* \"contracts/Marketplace2/Marketplace.sol\":2560:2758  function transferOwnership(address newOwner) public virtual onlyOwner {... */\n      pop\n      jump\t// out\n        /* \"contracts/Marketplace2/Marketplace.sol\":2912:3099  function _transferOwnership(address newOwner) internal virtual {... */\n    tag_189:\n        /* \"contracts/Marketplace2/Marketplace.sol\":3004:3010  _owner */\n      0x04\n      dup1\n      sload\n      sub(shl(0xa0, 0x01), 0x01)\n        /* \"contracts/Marketplace2/Marketplace.sol\":3020:3037  _owner = newOwner */\n      dup4\n      dup2\n      and\n      not(sub(shl(0xa0, 0x01), 0x01))\n      dup4\n      and\n      dup2\n      or\n      swap1\n      swap4\n      sstore\n        /* \"contracts/Marketplace2/Marketplace.sol\":3052:3092  OwnershipTransferred(oldOwner, newOwner) */\n      mload(0x40)\n        /* \"contracts/Marketplace2/Marketplace.sol\":3004:3010  _owner */\n      swap2\n      and\n      swap2\n        /* \"contracts/Marketplace2/Marketplace.sol\":3020:3037  _owner = newOwner */\n      swap1\n        /* \"contracts/Marketplace2/Marketplace.sol\":3004:3010  _owner */\n      dup3\n      swap1\n        /* \"contracts/Marketplace2/Marketplace.sol\":3052:3092  OwnershipTransferred(oldOwner, newOwner) */\n      0x8be0079c531659141344cd1fd0a4f28419497f9722a3daafe3b4186f6b6457e0\n      swap1\n        /* \"contracts/Marketplace2/Marketplace.sol\":2985:3001  address oldOwner */\n      0x00\n      swap1\n        /* \"contracts/Marketplace2/Marketplace.sol\":3052:3092  OwnershipTransferred(oldOwner, newOwner) */\n      log3\n        /* \"contracts/Marketplace2/Marketplace.sol\":2975:3099  {... */\n      pop\n        /* \"contracts/Marketplace2/Marketplace.sol\":2912:3099  function _transferOwnership(address newOwner) internal virtual {... */\n      pop\n      jump\t// out\n        /* \"contracts/Marketplace2/Marketplace.sol\":21770:22159  function _requireERC721(address nftAddress) internal view {... */\n    tag_209:\n        /* \"contracts/Marketplace2/Marketplace.sol\":22273:22291  extcodesize(_addr) */\n      dup1\n      extcodesize\n        /* \"contracts/Marketplace2/Marketplace.sol\":22310:22318  size > 0 */\n      0xffffffff\n      and\n        /* \"contracts/Marketplace2/Marketplace.sol\":21838:21943  require(... */\n      tag_270\n      jumpi\n      mload(0x40)\n      shl(0xe5, 0x461bcd)\n      dup2\n      mstore\n        /* \"#utility.yul\":11097:11099   */\n      0x20\n        /* \"contracts/Marketplace2/Marketplace.sol\":21838:21943  require(... */\n      0x04\n      dup3\n      add\n        /* \"#utility.yul\":11079:11100   */\n      mstore\n        /* \"#utility.yul\":11136:11138   */\n      0x24\n        /* \"#utility.yul\":11116:11134   */\n      dup1\n      dup3\n      add\n        /* \"#utility.yul\":11109:11139   */\n      mstore\n        /* \"#utility.yul\":11175:11209   */\n      0x546865204e465420416464726573732073686f756c64206265206120636f6e74\n        /* \"#utility.yul\":11155:11173   */\n      0x44\n      dup3\n      add\n        /* \"#utility.yul\":11148:11210   */\n      mstore\n      shl(0xe2, 0x1c9858dd)\n        /* \"#utility.yul\":11226:11244   */\n      0x64\n      dup3\n      add\n        /* \"#utility.yul\":11219:11253   */\n      mstore\n        /* \"#utility.yul\":11270:11289   */\n      0x84\n      add\n        /* \"contracts/Marketplace2/Marketplace.sol\":21838:21943  require(... */\n      tag_109\n        /* \"#utility.yul\":10895:11295   */\n      jump\n        /* \"contracts/Marketplace2/Marketplace.sol\":21838:21943  require(... */\n    tag_270:\n        /* \"contracts/Marketplace2/Marketplace.sol\":22026:22073  nftRegistry.supportsInterface(ERC721_Interface) */\n      mload(0x40)\n      shl(0xe0, 0x01ffc9a7)\n      dup2\n      mstore\n      shl(0xe0, 0x80ac58cd)\n      0x04\n      dup3\n      add\n        /* \"#utility.yul\":2172:2224   */\n      mstore\n        /* \"contracts/Marketplace2/Marketplace.sol\":21984:21994  nftAddress */\n      dup2\n      swap1\n      sub(shl(0xa0, 0x01), 0x01)\n        /* \"contracts/Marketplace2/Marketplace.sol\":22026:22055  nftRegistry.supportsInterface */\n      dup3\n      and\n      swap1\n      0x01ffc9a7\n      swap1\n        /* \"#utility.yul\":2145:2163   */\n      0x24\n      add\n        /* \"contracts/Marketplace2/Marketplace.sol\":22026:22073  nftRegistry.supportsInterface(ERC721_Interface) */\n      0x20\n      mload(0x40)\n      dup1\n      dup4\n      sub\n      dup2\n      dup7\n      gas\n      staticcall\n      iszero\n      dup1\n      iszero\n      tag_275\n      jumpi\n      returndatasize\n      0x00\n      dup1\n      returndatacopy\n      revert(0x00, returndatasize)\n    tag_275:\n      pop\n      pop\n      pop\n      pop\n      mload(0x40)\n      returndatasize\n      not(0x1f)\n      0x1f\n      dup3\n      add\n      and\n      dup3\n      add\n      dup1\n      0x40\n      mstore\n      pop\n      dup2\n      add\n      swap1\n      tag_276\n      swap2\n      swap1\n      tag_240\n      jump\t// in\n    tag_276:\n        /* \"contracts/Marketplace2/Marketplace.sol\":22005:22152  require(... */\n      tag_277\n      jumpi\n      mload(0x40)\n      shl(0xe5, 0x461bcd)\n      dup2\n      mstore\n        /* \"#utility.yul\":11502:11504   */\n      0x20\n        /* \"contracts/Marketplace2/Marketplace.sol\":22005:22152  require(... */\n      0x04\n      dup3\n      add\n        /* \"#utility.yul\":11484:11505   */\n      mstore\n        /* \"#utility.yul\":11541:11543   */\n      0x35\n        /* \"#utility.yul\":11521:11539   */\n      0x24\n      dup3\n      add\n        /* \"#utility.yul\":11514:11544   */\n      mstore\n        /* \"#utility.yul\":11580:11614   */\n      0x546865204e465420636f6e74726163742068617320616e20696e76616c696420\n        /* \"#utility.yul\":11560:11578   */\n      0x44\n      dup3\n      add\n        /* \"#utility.yul\":11553:11615   */\n      mstore\n      shl(0x59, 0x22a9219b99189034b6b83632b6b2b73a30ba34b7b7)\n        /* \"#utility.yul\":11631:11649   */\n      0x64\n      dup3\n      add\n        /* \"#utility.yul\":11624:11675   */\n      mstore\n        /* \"#utility.yul\":11692:11711   */\n      0x84\n      add\n        /* \"contracts/Marketplace2/Marketplace.sol\":22005:22152  require(... */\n      tag_109\n        /* \"#utility.yul\":11300:11717   */\n      jump\n        /* \"contracts/Marketplace2/Marketplace.sol\":22005:22152  require(... */\n    tag_277:\n        /* \"contracts/Marketplace2/Marketplace.sol\":21828:22159  {... */\n      pop\n        /* \"contracts/Marketplace2/Marketplace.sol\":21770:22159  function _requireERC721(address nftAddress) internal view {... */\n      pop\n      jump\t// out\n    tag_125:\n      mload(0x40)\n      dup1\n      0xc0\n      add\n      0x40\n      mstore\n      dup1\n      0x00\n      dup2\n      mstore\n      0x20\n      add\n      and(sub(shl(0xa0, 0x01), 0x01), 0x00)\n      dup2\n      mstore\n      0x20\n      add\n      0x00\n      dup2\n      mstore\n      0x20\n      add\n      and(sub(shl(0xa0, 0x01), 0x01), 0x00)\n      dup2\n      mstore\n      0x20\n      add\n      and(sub(shl(0xa0, 0x01), 0x01), 0x00)\n      dup2\n      mstore\n      0x20\n      add\n      0x00\n      dup2\n      mstore\n      pop\n      swap1\n      jump\t// out\n        /* \"#utility.yul\":14:187   */\n    tag_281:\n        /* \"#utility.yul\":82:102   */\n      dup1\n      calldataload\n      sub(shl(0xa0, 0x01), 0x01)\n        /* \"#utility.yul\":131:162   */\n      dup2\n      and\n        /* \"#utility.yul\":121:163   */\n      dup2\n      eq\n        /* \"#utility.yul\":111:181   */\n      tag_286\n      jumpi\n        /* \"#utility.yul\":177:178   */\n      0x00\n        /* \"#utility.yul\":174:175   */\n      dup1\n        /* \"#utility.yul\":167:179   */\n      revert\n        /* \"#utility.yul\":111:181   */\n    tag_286:\n        /* \"#utility.yul\":14:187   */\n      swap2\n      swap1\n      pop\n      jump\t// out\n        /* \"#utility.yul\":192:378   */\n    tag_25:\n        /* \"#utility.yul\":251:257   */\n      0x00\n        /* \"#utility.yul\":304:306   */\n      0x20\n        /* \"#utility.yul\":292:301   */\n      dup3\n        /* \"#utility.yul\":283:290   */\n      dup5\n        /* \"#utility.yul\":279:302   */\n      sub\n        /* \"#utility.yul\":275:307   */\n      slt\n        /* \"#utility.yul\":272:324   */\n      iszero\n      tag_288\n      jumpi\n        /* \"#utility.yul\":320:321   */\n      0x00\n        /* \"#utility.yul\":317:318   */\n      dup1\n        /* \"#utility.yul\":310:322   */\n      revert\n        /* \"#utility.yul\":272:324   */\n    tag_288:\n        /* \"#utility.yul\":343:372   */\n      tag_289\n        /* \"#utility.yul\":362:371   */\n      dup3\n        /* \"#utility.yul\":343:372   */\n      tag_281\n      jump\t// in\n    tag_289:\n        /* \"#utility.yul\":333:372   */\n      swap4\n        /* \"#utility.yul\":192:378   */\n      swap3\n      pop\n      pop\n      pop\n      jump\t// out\n        /* \"#utility.yul\":383:864   */\n    tag_282:\n        /* \"#utility.yul\":465:470   */\n      dup1\n        /* \"#utility.yul\":459:471   */\n      mload\n        /* \"#utility.yul\":454:457   */\n      dup3\n        /* \"#utility.yul\":447:472   */\n      mstore\n        /* \"#utility.yul\":518:522   */\n      0x20\n        /* \"#utility.yul\":511:516   */\n      dup2\n        /* \"#utility.yul\":507:523   */\n      add\n        /* \"#utility.yul\":501:524   */\n      mload\n        /* \"#utility.yul\":560:561   */\n      0x01\n        /* \"#utility.yul\":556:557   */\n      dup1\n        /* \"#utility.yul\":551:554   */\n      0xa0\n        /* \"#utility.yul\":547:558   */\n      shl\n        /* \"#utility.yul\":543:562   */\n      sub\n        /* \"#utility.yul\":612:614   */\n      dup1\n        /* \"#utility.yul\":598:610   */\n      dup3\n        /* \"#utility.yul\":594:615   */\n      and\n        /* \"#utility.yul\":587:591   */\n      0x20\n        /* \"#utility.yul\":582:585   */\n      dup6\n        /* \"#utility.yul\":578:592   */\n      add\n        /* \"#utility.yul\":571:616   */\n      mstore\n        /* \"#utility.yul\":665:669   */\n      0x40\n        /* \"#utility.yul\":658:663   */\n      dup4\n        /* \"#utility.yul\":654:670   */\n      add\n        /* \"#utility.yul\":648:671   */\n      mload\n        /* \"#utility.yul\":641:645   */\n      0x40\n        /* \"#utility.yul\":636:639   */\n      dup6\n        /* \"#utility.yul\":632:646   */\n      add\n        /* \"#utility.yul\":625:672   */\n      mstore\n        /* \"#utility.yul\":733:735   */\n      dup1\n        /* \"#utility.yul\":725:729   */\n      0x60\n        /* \"#utility.yul\":718:723   */\n      dup5\n        /* \"#utility.yul\":714:730   */\n      add\n        /* \"#utility.yul\":708:731   */\n      mload\n        /* \"#utility.yul\":704:736   */\n      and\n        /* \"#utility.yul\":697:701   */\n      0x60\n        /* \"#utility.yul\":692:695   */\n      dup6\n        /* \"#utility.yul\":688:702   */\n      add\n        /* \"#utility.yul\":681:737   */\n      mstore\n        /* \"#utility.yul\":798:800   */\n      dup1\n        /* \"#utility.yul\":790:794   */\n      0x80\n        /* \"#utility.yul\":783:788   */\n      dup5\n        /* \"#utility.yul\":779:795   */\n      add\n        /* \"#utility.yul\":773:796   */\n      mload\n        /* \"#utility.yul\":769:801   */\n      and\n        /* \"#utility.yul\":762:766   */\n      0x80\n        /* \"#utility.yul\":757:760   */\n      dup6\n        /* \"#utility.yul\":753:767   */\n      add\n        /* \"#utility.yul\":746:802   */\n      mstore\n      pop\n      pop\n        /* \"#utility.yul\":851:855   */\n      0xa0\n        /* \"#utility.yul\":844:849   */\n      dup2\n        /* \"#utility.yul\":840:856   */\n      add\n        /* \"#utility.yul\":834:857   */\n      mload\n        /* \"#utility.yul\":827:831   */\n      0xa0\n        /* \"#utility.yul\":822:825   */\n      dup4\n        /* \"#utility.yul\":818:832   */\n      add\n        /* \"#utility.yul\":811:858   */\n      mstore\n        /* \"#utility.yul\":383:864   */\n      pop\n      pop\n      jump\t// out\n        /* \"#utility.yul\":869:1579   */\n    tag_31:\n        /* \"#utility.yul\":1094:1096   */\n      0x20\n        /* \"#utility.yul\":1146:1167   */\n      dup1\n      dup3\n      mstore\n        /* \"#utility.yul\":1216:1229   */\n      dup3\n      mload\n        /* \"#utility.yul\":1119:1137   */\n      dup3\n      dup3\n      add\n        /* \"#utility.yul\":1238:1260   */\n      dup2\n      swap1\n      mstore\n        /* \"#utility.yul\":1065:1069   */\n      0x00\n      swap2\n        /* \"#utility.yul\":1094:1096   */\n      swap1\n        /* \"#utility.yul\":1317:1332   */\n      dup5\n      dup3\n      add\n      swap1\n        /* \"#utility.yul\":1291:1293   */\n      0x40\n        /* \"#utility.yul\":1276:1294   */\n      dup6\n      add\n      swap1\n        /* \"#utility.yul\":1065:1069   */\n      dup5\n        /* \"#utility.yul\":1360:1553   */\n    tag_292:\n        /* \"#utility.yul\":1374:1380   */\n      dup2\n        /* \"#utility.yul\":1371:1372   */\n      dup2\n        /* \"#utility.yul\":1368:1381   */\n      lt\n        /* \"#utility.yul\":1360:1553   */\n      iszero\n      tag_294\n      jumpi\n        /* \"#utility.yul\":1423:1471   */\n      tag_295\n        /* \"#utility.yul\":1467:1470   */\n      dup4\n        /* \"#utility.yul\":1458:1464   */\n      dup6\n        /* \"#utility.yul\":1452:1465   */\n      mload\n        /* \"#utility.yul\":1423:1471   */\n      tag_282\n      jump\t// in\n    tag_295:\n        /* \"#utility.yul\":1528:1543   */\n      swap3\n      dup5\n      add\n      swap3\n        /* \"#utility.yul\":1500:1504   */\n      0xc0\n        /* \"#utility.yul\":1491:1505   */\n      swap3\n      swap1\n      swap3\n      add\n      swap2\n        /* \"#utility.yul\":1396:1397   */\n      0x01\n        /* \"#utility.yul\":1389:1398   */\n      add\n        /* \"#utility.yul\":1360:1553   */\n      jump(tag_292)\n    tag_294:\n      pop\n        /* \"#utility.yul\":1570:1573   */\n      swap1\n      swap7\n        /* \"#utility.yul\":869:1579   */\n      swap6\n      pop\n      pop\n      pop\n      pop\n      pop\n      pop\n      jump\t// out\n        /* \"#utility.yul\":1584:1764   */\n    tag_39:\n        /* \"#utility.yul\":1643:1649   */\n      0x00\n        /* \"#utility.yul\":1696:1698   */\n      0x20\n        /* \"#utility.yul\":1684:1693   */\n      dup3\n        /* \"#utility.yul\":1675:1682   */\n      dup5\n        /* \"#utility.yul\":1671:1694   */\n      sub\n        /* \"#utility.yul\":1667:1699   */\n      slt\n        /* \"#utility.yul\":1664:1716   */\n      iszero\n      tag_297\n      jumpi\n        /* \"#utility.yul\":1712:1713   */\n      0x00\n        /* \"#utility.yul\":1709:1710   */\n      dup1\n        /* \"#utility.yul\":1702:1714   */\n      revert\n        /* \"#utility.yul\":1664:1716   */\n    tag_297:\n      pop\n        /* \"#utility.yul\":1735:1758   */\n      calldataload\n      swap2\n        /* \"#utility.yul\":1584:1764   */\n      swap1\n      pop\n      jump\t// out\n        /* \"#utility.yul\":1769:2023   */\n    tag_42:\n        /* \"#utility.yul\":1957:1960   */\n      0xc0\n        /* \"#utility.yul\":1942:1961   */\n      dup2\n      add\n        /* \"#utility.yul\":1970:2017   */\n      tag_299\n        /* \"#utility.yul\":1946:1955   */\n      dup3\n        /* \"#utility.yul\":1999:2005   */\n      dup5\n        /* \"#utility.yul\":1970:2017   */\n      tag_282\n      jump\t// in\n    tag_299:\n        /* \"#utility.yul\":1769:2023   */\n      swap3\n      swap2\n      pop\n      pop\n      jump\t// out\n        /* \"#utility.yul\":2235:2563   */\n    tag_51:\n        /* \"#utility.yul\":2312:2318   */\n      0x00\n        /* \"#utility.yul\":2320:2326   */\n      dup1\n        /* \"#utility.yul\":2328:2334   */\n      0x00\n        /* \"#utility.yul\":2381:2383   */\n      0x60\n        /* \"#utility.yul\":2369:2378   */\n      dup5\n        /* \"#utility.yul\":2360:2367   */\n      dup7\n        /* \"#utility.yul\":2356:2379   */\n      sub\n        /* \"#utility.yul\":2352:2384   */\n      slt\n        /* \"#utility.yul\":2349:2401   */\n      iszero\n      tag_302\n      jumpi\n        /* \"#utility.yul\":2397:2398   */\n      0x00\n        /* \"#utility.yul\":2394:2395   */\n      dup1\n        /* \"#utility.yul\":2387:2399   */\n      revert\n        /* \"#utility.yul\":2349:2401   */\n    tag_302:\n        /* \"#utility.yul\":2420:2449   */\n      tag_303\n        /* \"#utility.yul\":2439:2448   */\n      dup5\n        /* \"#utility.yul\":2420:2449   */\n      tag_281\n      jump\t// in\n    tag_303:\n        /* \"#utility.yul\":2410:2449   */\n      swap3\n      pop\n        /* \"#utility.yul\":2496:2498   */\n      0x20\n        /* \"#utility.yul\":2485:2494   */\n      dup5\n        /* \"#utility.yul\":2481:2499   */\n      add\n        /* \"#utility.yul\":2468:2500   */\n      calldataload\n        /* \"#utility.yul\":2458:2500   */\n      swap2\n      pop\n        /* \"#utility.yul\":2519:2557   */\n      tag_304\n        /* \"#utility.yul\":2553:2555   */\n      0x40\n        /* \"#utility.yul\":2542:2551   */\n      dup6\n        /* \"#utility.yul\":2538:2556   */\n      add\n        /* \"#utility.yul\":2519:2557   */\n      tag_281\n      jump\t// in\n    tag_304:\n        /* \"#utility.yul\":2509:2557   */\n      swap1\n      pop\n        /* \"#utility.yul\":2235:2563   */\n      swap3\n      pop\n      swap3\n      pop\n      swap3\n      jump\t// out\n        /* \"#utility.yul\":2821:3143   */\n    tag_57:\n        /* \"#utility.yul\":2898:2904   */\n      0x00\n        /* \"#utility.yul\":2906:2912   */\n      dup1\n        /* \"#utility.yul\":2914:2920   */\n      0x00\n        /* \"#utility.yul\":2967:2969   */\n      0x60\n        /* \"#utility.yul\":2955:2964   */\n      dup5\n        /* \"#utility.yul\":2946:2953   */\n      dup7\n        /* \"#utility.yul\":2942:2965   */\n      sub\n        /* \"#utility.yul\":2938:2970   */\n      slt\n        /* \"#utility.yul\":2935:2987   */\n      iszero\n      tag_307\n      jumpi\n        /* \"#utility.yul\":2983:2984   */\n      0x00\n        /* \"#utility.yul\":2980:2981   */\n      dup1\n        /* \"#utility.yul\":2973:2985   */\n      revert\n        /* \"#utility.yul\":2935:2987   */\n    tag_307:\n        /* \"#utility.yul\":3006:3035   */\n      tag_308\n        /* \"#utility.yul\":3025:3034   */\n      dup5\n        /* \"#utility.yul\":3006:3035   */\n      tag_281\n      jump\t// in\n    tag_308:\n        /* \"#utility.yul\":2996:3035   */\n      swap6\n        /* \"#utility.yul\":3082:3084   */\n      0x20\n        /* \"#utility.yul\":3067:3085   */\n      dup6\n      add\n        /* \"#utility.yul\":3054:3086   */\n      calldataload\n      swap6\n      pop\n        /* \"#utility.yul\":3133:3135   */\n      0x40\n        /* \"#utility.yul\":3118:3136   */\n      swap1\n      swap5\n      add\n        /* \"#utility.yul\":3105:3137   */\n      calldataload\n      swap4\n        /* \"#utility.yul\":2821:3143   */\n      swap3\n      pop\n      pop\n      pop\n      jump\t// out\n        /* \"#utility.yul\":3148:3402   */\n    tag_62:\n        /* \"#utility.yul\":3216:3222   */\n      0x00\n        /* \"#utility.yul\":3224:3230   */\n      dup1\n        /* \"#utility.yul\":3277:3279   */\n      0x40\n        /* \"#utility.yul\":3265:3274   */\n      dup4\n        /* \"#utility.yul\":3256:3263   */\n      dup6\n        /* \"#utility.yul\":3252:3275   */\n      sub\n        /* \"#utility.yul\":3248:3280   */\n      slt\n        /* \"#utility.yul\":3245:3297   */\n      iszero\n      tag_310\n      jumpi\n        /* \"#utility.yul\":3293:3294   */\n      0x00\n        /* \"#utility.yul\":3290:3291   */\n      dup1\n        /* \"#utility.yul\":3283:3295   */\n      revert\n        /* \"#utility.yul\":3245:3297   */\n    tag_310:\n        /* \"#utility.yul\":3316:3345   */\n      tag_311\n        /* \"#utility.yul\":3335:3344   */\n      dup4\n        /* \"#utility.yul\":3316:3345   */\n      tag_281\n      jump\t// in\n    tag_311:\n        /* \"#utility.yul\":3306:3345   */\n      swap5\n        /* \"#utility.yul\":3392:3394   */\n      0x20\n        /* \"#utility.yul\":3377:3395   */\n      swap4\n      swap1\n      swap4\n      add\n        /* \"#utility.yul\":3364:3396   */\n      calldataload\n      swap4\n      pop\n      pop\n      pop\n        /* \"#utility.yul\":3148:3402   */\n      jump\t// out\n        /* \"#utility.yul\":3407:3534   */\n    tag_212:\n        /* \"#utility.yul\":3468:3478   */\n      0x4e487b71\n        /* \"#utility.yul\":3463:3466   */\n      0xe0\n        /* \"#utility.yul\":3459:3479   */\n      shl\n        /* \"#utility.yul\":3456:3457   */\n      0x00\n        /* \"#utility.yul\":3449:3480   */\n      mstore\n        /* \"#utility.yul\":3499:3503   */\n      0x21\n        /* \"#utility.yul\":3496:3497   */\n      0x04\n        /* \"#utility.yul\":3489:3504   */\n      mstore\n        /* \"#utility.yul\":3523:3527   */\n      0x24\n        /* \"#utility.yul\":3520:3521   */\n      0x00\n        /* \"#utility.yul\":3513:3528   */\n      revert\n        /* \"#utility.yul\":3539:4295   */\n    tag_65:\n        /* \"#utility.yul\":3838:3863   */\n      dup7\n      dup2\n      mstore\n      sub(shl(0xa0, 0x01), 0x01)\n        /* \"#utility.yul\":3937:3952   */\n      dup7\n      dup2\n      and\n        /* \"#utility.yul\":3932:3934   */\n      0x20\n        /* \"#utility.yul\":3917:3935   */\n      dup4\n      add\n        /* \"#utility.yul\":3910:3953   */\n      mstore\n        /* \"#utility.yul\":3989:4004   */\n      dup6\n      and\n        /* \"#utility.yul\":3984:3986   */\n      0x40\n        /* \"#utility.yul\":3969:3987   */\n      dup3\n      add\n        /* \"#utility.yul\":3962:4005   */\n      mstore\n        /* \"#utility.yul\":4036:4038   */\n      0x60\n        /* \"#utility.yul\":4021:4039   */\n      dup2\n      add\n        /* \"#utility.yul\":4014:4048   */\n      dup5\n      swap1\n      mstore\n        /* \"#utility.yul\":4079:4082   */\n      0x80\n        /* \"#utility.yul\":4064:4083   */\n      dup2\n      add\n        /* \"#utility.yul\":4057:4092   */\n      dup4\n      swap1\n      mstore\n        /* \"#utility.yul\":3825:3828   */\n      0xc0\n        /* \"#utility.yul\":3810:3829   */\n      dup2\n      add\n        /* \"#utility.yul\":4122:4123   */\n      0x05\n        /* \"#utility.yul\":4111:4124   */\n      dup4\n      lt\n        /* \"#utility.yul\":4101:4245   */\n      tag_314\n      jumpi\n        /* \"#utility.yul\":4167:4177   */\n      0x4e487b71\n        /* \"#utility.yul\":4162:4165   */\n      0xe0\n        /* \"#utility.yul\":4158:4178   */\n      shl\n        /* \"#utility.yul\":4155:4156   */\n      0x00\n        /* \"#utility.yul\":4148:4179   */\n      mstore\n        /* \"#utility.yul\":4202:4206   */\n      0x21\n        /* \"#utility.yul\":4199:4200   */\n      0x04\n        /* \"#utility.yul\":4192:4207   */\n      mstore\n        /* \"#utility.yul\":4230:4234   */\n      0x24\n        /* \"#utility.yul\":4227:4228   */\n      0x00\n        /* \"#utility.yul\":4220:4235   */\n      revert\n        /* \"#utility.yul\":4101:4245   */\n    tag_314:\n        /* \"#utility.yul\":4282:4288   */\n      dup3\n        /* \"#utility.yul\":4276:4279   */\n      0xa0\n        /* \"#utility.yul\":4265:4274   */\n      dup4\n        /* \"#utility.yul\":4261:4280   */\n      add\n        /* \"#utility.yul\":4254:4289   */\n      mstore\n        /* \"#utility.yul\":3539:4295   */\n      swap8\n      swap7\n      pop\n      pop\n      pop\n      pop\n      pop\n      pop\n      pop\n      jump\t// out\n        /* \"#utility.yul\":4919:5275   */\n    tag_110:\n        /* \"#utility.yul\":5121:5123   */\n      0x20\n        /* \"#utility.yul\":5103:5124   */\n      dup1\n      dup3\n      mstore\n        /* \"#utility.yul\":5140:5158   */\n      dup2\n      dup2\n      add\n        /* \"#utility.yul\":5133:5163   */\n      mstore\n        /* \"#utility.yul\":5199:5233   */\n      0x4f776e61626c653a2063616c6c6572206973206e6f7420746865206f776e6572\n        /* \"#utility.yul\":5194:5196   */\n      0x40\n        /* \"#utility.yul\":5179:5197   */\n      dup3\n      add\n        /* \"#utility.yul\":5172:5234   */\n      mstore\n        /* \"#utility.yul\":5266:5268   */\n      0x60\n        /* \"#utility.yul\":5251:5269   */\n      add\n      swap1\n        /* \"#utility.yul\":4919:5275   */\n      jump\t// out\n        /* \"#utility.yul\":5280:5407   */\n    tag_283:\n        /* \"#utility.yul\":5341:5351   */\n      0x4e487b71\n        /* \"#utility.yul\":5336:5339   */\n      0xe0\n        /* \"#utility.yul\":5332:5352   */\n      shl\n        /* \"#utility.yul\":5329:5330   */\n      0x00\n        /* \"#utility.yul\":5322:5353   */\n      mstore\n        /* \"#utility.yul\":5372:5376   */\n      0x11\n        /* \"#utility.yul\":5369:5370   */\n      0x04\n        /* \"#utility.yul\":5362:5377   */\n      mstore\n        /* \"#utility.yul\":5396:5400   */\n      0x24\n        /* \"#utility.yul\":5393:5394   */\n      0x00\n        /* \"#utility.yul\":5386:5401   */\n      revert\n        /* \"#utility.yul\":5412:5537   */\n    tag_118:\n        /* \"#utility.yul\":5452:5456   */\n      0x00\n        /* \"#utility.yul\":5480:5481   */\n      dup3\n        /* \"#utility.yul\":5477:5478   */\n      dup3\n        /* \"#utility.yul\":5474:5482   */\n      lt\n        /* \"#utility.yul\":5471:5505   */\n      iszero\n      tag_322\n      jumpi\n        /* \"#utility.yul\":5485:5503   */\n      tag_322\n      tag_283\n      jump\t// in\n    tag_322:\n      pop\n        /* \"#utility.yul\":5522:5531   */\n      sub\n      swap1\n        /* \"#utility.yul\":5412:5537   */\n      jump\t// out\n        /* \"#utility.yul\":5542:5669   */\n    tag_121:\n        /* \"#utility.yul\":5603:5613   */\n      0x4e487b71\n        /* \"#utility.yul\":5598:5601   */\n      0xe0\n        /* \"#utility.yul\":5594:5614   */\n      shl\n        /* \"#utility.yul\":5591:5592   */\n      0x00\n        /* \"#utility.yul\":5584:5615   */\n      mstore\n        /* \"#utility.yul\":5634:5638   */\n      0x41\n        /* \"#utility.yul\":5631:5632   */\n      0x04\n        /* \"#utility.yul\":5624:5639   */\n      mstore\n        /* \"#utility.yul\":5658:5662   */\n      0x24\n        /* \"#utility.yul\":5655:5656   */\n      0x00\n        /* \"#utility.yul\":5648:5663   */\n      revert\n        /* \"#utility.yul\":5674:5802   */\n    tag_130:\n        /* \"#utility.yul\":5714:5717   */\n      0x00\n        /* \"#utility.yul\":5745:5746   */\n      dup3\n        /* \"#utility.yul\":5741:5747   */\n      not\n        /* \"#utility.yul\":5738:5739   */\n      dup3\n        /* \"#utility.yul\":5735:5748   */\n      gt\n        /* \"#utility.yul\":5732:5771   */\n      iszero\n      tag_326\n      jumpi\n        /* \"#utility.yul\":5751:5769   */\n      tag_326\n      tag_283\n      jump\t// in\n    tag_326:\n      pop\n        /* \"#utility.yul\":5787:5796   */\n      add\n      swap1\n        /* \"#utility.yul\":5674:5802   */\n      jump\t// out\n        /* \"#utility.yul\":5807:5934   */\n    tag_135:\n        /* \"#utility.yul\":5868:5878   */\n      0x4e487b71\n        /* \"#utility.yul\":5863:5866   */\n      0xe0\n        /* \"#utility.yul\":5859:5879   */\n      shl\n        /* \"#utility.yul\":5856:5857   */\n      0x00\n        /* \"#utility.yul\":5849:5880   */\n      mstore\n        /* \"#utility.yul\":5899:5903   */\n      0x32\n        /* \"#utility.yul\":5896:5897   */\n      0x04\n        /* \"#utility.yul\":5889:5904   */\n      mstore\n        /* \"#utility.yul\":5923:5927   */\n      0x24\n        /* \"#utility.yul\":5920:5921   */\n      0x00\n        /* \"#utility.yul\":5913:5928   */\n      revert\n        /* \"#utility.yul\":5939:6074   */\n    tag_138:\n        /* \"#utility.yul\":5978:5981   */\n      0x00\n        /* \"#utility.yul\":5999:6016   */\n      0x01\n      dup3\n      add\n        /* \"#utility.yul\":5996:6039   */\n      tag_330\n      jumpi\n        /* \"#utility.yul\":6019:6037   */\n      tag_330\n      tag_283\n      jump\t// in\n    tag_330:\n      pop\n        /* \"#utility.yul\":6066:6067   */\n      0x01\n        /* \"#utility.yul\":6055:6068   */\n      add\n      swap1\n        /* \"#utility.yul\":5939:6074   */\n      jump\t// out\n        /* \"#utility.yul\":6796:7171   */\n    tag_177:\n      sub(shl(0xa0, 0x01), 0x01)\n        /* \"#utility.yul\":7054:7069   */\n      swap4\n      dup5\n      and\n        /* \"#utility.yul\":7036:7070   */\n      dup2\n      mstore\n        /* \"#utility.yul\":7106:7121   */\n      swap2\n      swap1\n      swap3\n      and\n        /* \"#utility.yul\":7101:7103   */\n      0x20\n        /* \"#utility.yul\":7086:7104   */\n      dup3\n      add\n        /* \"#utility.yul\":7079:7122   */\n      mstore\n        /* \"#utility.yul\":7153:7155   */\n      0x40\n        /* \"#utility.yul\":7138:7156   */\n      dup2\n      add\n        /* \"#utility.yul\":7131:7165   */\n      swap2\n      swap1\n      swap2\n      mstore\n        /* \"#utility.yul\":6986:6988   */\n      0x60\n        /* \"#utility.yul\":6971:6989   */\n      add\n      swap1\n        /* \"#utility.yul\":6796:7171   */\n      jump\t// out\n        /* \"#utility.yul\":9013:9181   */\n    tag_232:\n        /* \"#utility.yul\":9053:9060   */\n      0x00\n        /* \"#utility.yul\":9119:9120   */\n      dup2\n        /* \"#utility.yul\":9115:9116   */\n      0x00\n        /* \"#utility.yul\":9111:9117   */\n      not\n        /* \"#utility.yul\":9107:9121   */\n      div\n        /* \"#utility.yul\":9104:9105   */\n      dup4\n        /* \"#utility.yul\":9101:9122   */\n      gt\n        /* \"#utility.yul\":9096:9097   */\n      dup3\n        /* \"#utility.yul\":9089:9098   */\n      iszero\n        /* \"#utility.yul\":9082:9099   */\n      iszero\n        /* \"#utility.yul\":9078:9123   */\n      and\n        /* \"#utility.yul\":9075:9146   */\n      iszero\n      tag_341\n      jumpi\n        /* \"#utility.yul\":9126:9144   */\n      tag_341\n      tag_283\n      jump\t// in\n    tag_341:\n      pop\n        /* \"#utility.yul\":9166:9175   */\n      mul\n      swap1\n        /* \"#utility.yul\":9013:9181   */\n      jump\t// out\n        /* \"#utility.yul\":9186:9403   */\n    tag_234:\n        /* \"#utility.yul\":9226:9227   */\n      0x00\n        /* \"#utility.yul\":9252:9253   */\n      dup3\n        /* \"#utility.yul\":9242:9374   */\n      tag_343\n      jumpi\n        /* \"#utility.yul\":9296:9306   */\n      0x4e487b71\n        /* \"#utility.yul\":9291:9294   */\n      0xe0\n        /* \"#utility.yul\":9287:9307   */\n      shl\n        /* \"#utility.yul\":9284:9285   */\n      0x00\n        /* \"#utility.yul\":9277:9308   */\n      mstore\n        /* \"#utility.yul\":9331:9335   */\n      0x12\n        /* \"#utility.yul\":9328:9329   */\n      0x04\n        /* \"#utility.yul\":9321:9336   */\n      mstore\n        /* \"#utility.yul\":9359:9363   */\n      0x24\n        /* \"#utility.yul\":9356:9357   */\n      0x00\n        /* \"#utility.yul\":9349:9364   */\n      revert\n        /* \"#utility.yul\":9242:9374   */\n    tag_343:\n      pop\n        /* \"#utility.yul\":9388:9397   */\n      div\n      swap1\n        /* \"#utility.yul\":9186:9403   */\n      jump\t// out\n        /* \"#utility.yul\":9408:9685   */\n    tag_240:\n        /* \"#utility.yul\":9475:9481   */\n      0x00\n        /* \"#utility.yul\":9528:9530   */\n      0x20\n        /* \"#utility.yul\":9516:9525   */\n      dup3\n        /* \"#utility.yul\":9507:9514   */\n      dup5\n        /* \"#utility.yul\":9503:9526   */\n      sub\n        /* \"#utility.yul\":9499:9531   */\n      slt\n        /* \"#utility.yul\":9496:9548   */\n      iszero\n      tag_345\n      jumpi\n        /* \"#utility.yul\":9544:9545   */\n      0x00\n        /* \"#utility.yul\":9541:9542   */\n      dup1\n        /* \"#utility.yul\":9534:9546   */\n      revert\n        /* \"#utility.yul\":9496:9548   */\n    tag_345:\n        /* \"#utility.yul\":9576:9585   */\n      dup2\n        /* \"#utility.yul\":9570:9586   */\n      mload\n        /* \"#utility.yul\":9629:9634   */\n      dup1\n        /* \"#utility.yul\":9622:9635   */\n      iszero\n        /* \"#utility.yul\":9615:9636   */\n      iszero\n        /* \"#utility.yul\":9608:9613   */\n      dup2\n        /* \"#utility.yul\":9605:9637   */\n      eq\n        /* \"#utility.yul\":9595:9655   */\n      tag_289\n      jumpi\n        /* \"#utility.yul\":9651:9652   */\n      0x00\n        /* \"#utility.yul\":9648:9649   */\n      dup1\n        /* \"#utility.yul\":9641:9653   */\n      revert\n\n    auxdata: 0xa264697066735822122074674d0ac4d818d00088599e83d7b46b5d2bd4343b266174675110cc4765b91964736f6c634300080d0033\n}\n",
				"bytecode": {
					"linkReferences": {},
					"object": "608060405234801561001057600080fd5b50600160005561001f33610024565b610076565b600480546001600160a01b038381166001600160a01b0319831681179093556040519116919082907f8be0079c531659141344cd1fd0a4f28419497f9722a3daafe3b4186f6b6457e090600090a35050565b611648806100856000396000f3fe6080604052600436106100fe5760003560e01c8063715018a611610095578063b7a60c7e11610064578063b7a60c7e14610347578063c23b139e14610368578063c7be7a4914610165578063f01b52dc1461037b578063f2fde38b1461039b57600080fd5b8063715018a6146102ad57806385a8b36c146102c25780638da5cb5b146102f557806392fc79fa1461032757600080fd5b80632b4c32be116100d15780632b4c32be1461019257806349739678146101c657806358eb2df5146102205780635c80a4351461023357600080fd5b80630b5f1ab1146101035780630f08efe014610125578063202e3740146101505780632a45b25014610165575b600080fd5b34801561010f57600080fd5b5061012361011e3660046112db565b6103bb565b005b34801561013157600080fd5b5061013a610410565b6040516101479190611347565b60405180910390f35b34801561015c57600080fd5b5061013a61059e565b34801561017157600080fd5b50610185610180366004611395565b610769565b60405161014791906113ae565b34801561019e57600080fd5b506101ad6380ac58cd60e01b81565b6040516001600160e01b03199091168152602001610147565b3480156101d257600080fd5b5061020b6101e13660046113c2565b60026020908152600093845260408085208252928452828420905282529020805460019091015482565b60408051928352602083019190915201610147565b61012361022e3660046113fe565b6107d8565b34801561023f57600080fd5b5061029b61024e366004611431565b600160208181526000938452604080852090915291835291208054918101546002820154600383015460048401546005909401546001600160a01b03938416949390921692909160ff1686565b60405161014796959493929190611471565b3480156102b957600080fd5b506101236109e2565b3480156102ce57600080fd5b506003546102e390600160a01b900460ff1681565b60405160ff9091168152602001610147565b34801561030157600080fd5b506004546001600160a01b03165b6040516001600160a01b039091168152602001610147565b34801561033357600080fd5b5060035461030f906001600160a01b031681565b34801561035357600080fd5b506003546102e390600160a81b900460ff1681565b610123610376366004611431565b610a18565b34801561038757600080fd5b506101236103963660046113fe565b610be1565b3480156103a757600080fd5b506101236103b63660046112db565b611042565b6004546001600160a01b031633146103ee5760405162461bcd60e51b81526004016103e5906114cc565b60405180910390fd5b600380546001600160a01b0319166001600160a01b0392909216919091179055565b6060600061041d60055490565b9050600061042a60065490565b6005546104379190611517565b90506000808267ffffffffffffffff8111156104555761045561152e565b60405190808252806020026020018201604052801561048e57816020015b61047b61126e565b8152602001906001900390816104735790505b50905060005b848110156105955760006007816104ac846001611544565b81526020810191909152604001600020600401546001600160a01b0316036105835760006007816104de846001611544565b815260208082019290925260409081016000908120548082526007845290829020825160c0810184528154815260018201546001600160a01b039081169582019590955260028201549381019390935260038101548416606084015260048101549093166080830152600583015460a083015285519093508590879081106105685761056861155c565b602090810291909101015261057e600186611544565b945050505b8061058d81611572565b915050610494565b50949350505050565b606060006105ab60055490565b905060008060005b8381101561060d5733600760006105cb846001611544565b81526020810191909152604001600020600401546001600160a01b0316036105fb576105f8600184611544565b92505b8061060581611572565b9150506105b3565b5060008267ffffffffffffffff8111156106295761062961152e565b60405190808252806020026020018201604052801561066257816020015b61064f61126e565b8152602001906001900390816106475790505b50905060005b84811015610595573360076000610680846001611544565b81526020810191909152604001600020600401546001600160a01b0316036107575760006007816106b2846001611544565b815260208082019290925260409081016000908120548082526007845290829020825160c0810184528154815260018201546001600160a01b039081169582019590955260028201549381019390935260038101548416606084015260048101549093166080830152600583015460a0830152855190935085908790811061073c5761073c61155c565b6020908102919091010152610752600186611544565b945050505b8061076181611572565b915050610668565b61077161126e565b50600090815260076020908152604091829020825160c0810184528154815260018201546001600160a01b0390811693820193909352600282015493810193909352600381015482166060840152600481015490911660808301526005015460a082015290565b60026000540361082a5760405162461bcd60e51b815260206004820152601f60248201527f5265656e7472616e637947756172643a207265656e7472616e742063616c6c0060448201526064016103e5565b60026000558061087c5760405162461bcd60e51b815260206004820152601c60248201527f5072696365206d757374206265206174206c656173742031207765690000000060448201526064016103e5565b61088a600580546001019055565b600061089560055490565b6040805160c0810182528281526001600160a01b0380881660208084018281528486018a8152336060870181815260006080890181815260a08a018e81528c83526007909752908a90209851895593516001890180549189166001600160a01b03199283161790559251600289015551600388018054918816918416919091179055915160048088018054929097169190921617909455905160059094019390935592516323b872dd60e01b815293945091926323b872dd9261095d9291309189910161158b565b600060405180830381600087803b15801561097757600080fd5b505af115801561098b573d6000803e3d6000fd5b5050505082846001600160a01b0316827f2ad024d53a0dc50c130967f8d4941927ee087ea31394cebb2b9599d3706c9c00336000876040516109cf9392919061158b565b60405180910390a4505060016000555050565b6004546001600160a01b03163314610a0c5760405162461bcd60e51b81526004016103e5906114cc565b610a1660006110dd565b565b600260005403610a6a5760405162461bcd60e51b815260206004820152601f60248201527f5265656e7472616e637947756172643a207265656e7472616e742063616c6c0060448201526064016103e5565b600260008181558281526007602052604090206005810154910154348214610afc576040805162461bcd60e51b81526020600482015260248101919091527f506c65617365207375626d6974207468652061736b696e67207072696365206960448201527f6e206f7264657220746f20636f6d706c6574652074686520707572636861736560648201526084016103e5565b6000838152600760205260408082206003015490516001600160a01b03909116913480156108fc02929091818181858888f19350505050158015610b44573d6000803e3d6000fd5b506040516323b872dd60e01b81526001600160a01b038516906323b872dd90610b759030903390869060040161158b565b600060405180830381600087803b158015610b8f57600080fd5b505af1158015610ba3573d6000803e3d6000fd5b505050600084815260076020526040902060040180546001600160a01b0319163317905550610bd6600680546001019055565b505060016000555050565b610bea8361112f565b6001600160a01b0380841660009081526001602081815260408084208785528252808420815160c08101835281548152938101548616928401929092526002820154909416938201939093526003830154606082015260048084015460808301526005840154339488949392909160a084019160ff90911690811115610c7257610c7261145b565b6004811115610c8357610c8361145b565b9052508051909150600003610cd05760405162461bcd60e51b8152602060048201526013602482015272105cdcd95d081b9bdd081c1d589b1a5cda1959606a1b60448201526064016103e5565b60018160a001516004811115610ce857610ce861145b565b14610d355760405162461bcd60e51b815260206004820152601860248201527f4173736574206973206e6f74206c69737420746f20627579000000000000000060448201526064016103e5565b60208101516001600160a01b038116610d825760405162461bcd60e51b815260206004820152600f60248201526e496e76616c6964206164647265737360881b60448201526064016103e5565b8160800151851015610dd65760405162461bcd60e51b815260206004820152601e60248201527f7072696365206e65656420657175616c206c697374696e67207072696365000060448201526064016103e5565b600354600090606490610df4908890600160a81b900460ff166115af565b610dfe91906115ce565b90506000610e0c8288611517565b6003546040516323b872dd60e01b81529192506001600160a01b0316906323b872dd90610e419089903090879060040161158b565b6020604051808303816000875af1158015610e60573d6000803e3d6000fd5b505050506040513d601f19601f82011682018060405250810190610e8491906115f0565b506003546040516323b872dd60e01b81526001600160a01b03909116906323b872dd90610eb99089908790869060040161158b565b6020604051808303816000875af1158015610ed8573d6000803e3d6000fd5b505050506040513d601f19601f82011682018060405250810190610efc91906115f0565b50604051632142170760e11b81526001600160a01b038616906342842e0e90610f2d9030908a908d9060040161158b565b600060405180830381600087803b158015610f4757600080fd5b505af1158015610f5b573d6000803e3d6000fd5b505050506001600160a01b0389811660008181526001602081815260408084208e855282529283902091820180548c87166001600160a01b031990911681179091556005909201805460ff1916600217905588516080808b015160035486519384529383019690965293810194909452600160a81b900460ff16606084015290820185905260e060a0830181905260049083015263414e544160e01b6101008301524260c0830152918516908a907f30247e11bbb597dfefd2a3124026f1ef8987a4d6ba46e3629f80bac1b0c9faee906101200160405180910390a4505050505050505050565b6004546001600160a01b0316331461106c5760405162461bcd60e51b81526004016103e5906114cc565b6001600160a01b0381166110d15760405162461bcd60e51b815260206004820152602660248201527f4f776e61626c653a206e6577206f776e657220697320746865207a65726f206160448201526564647265737360d01b60648201526084016103e5565b6110da816110dd565b50565b600480546001600160a01b038381166001600160a01b0319831681179093556040519116919082907f8be0079c531659141344cd1fd0a4f28419497f9722a3daafe3b4186f6b6457e090600090a35050565b803b63ffffffff1661118f5760405162461bcd60e51b8152602060048201526024808201527f546865204e465420416464726573732073686f756c64206265206120636f6e746044820152631c9858dd60e21b60648201526084016103e5565b6040516301ffc9a760e01b81526380ac58cd60e01b600482015281906001600160a01b038216906301ffc9a790602401602060405180830381865afa1580156111dc573d6000803e3d6000fd5b505050506040513d601f19601f8201168201806040525081019061120091906115f0565b61126a5760405162461bcd60e51b815260206004820152603560248201527f546865204e465420636f6e74726163742068617320616e20696e76616c69642060448201527422a9219b99189034b6b83632b6b2b73a30ba34b7b760591b60648201526084016103e5565b5050565b6040518060c001604052806000815260200160006001600160a01b031681526020016000815260200160006001600160a01b0316815260200160006001600160a01b03168152602001600081525090565b80356001600160a01b03811681146112d657600080fd5b919050565b6000602082840312156112ed57600080fd5b6112f6826112bf565b9392505050565b80518252602081015160018060a01b03808216602085015260408301516040850152806060840151166060850152806080840151166080850152505060a081015160a08301525050565b6020808252825182820181905260009190848201906040850190845b81811015611389576113768385516112fd565b9284019260c09290920191600101611363565b50909695505050505050565b6000602082840312156113a757600080fd5b5035919050565b60c081016113bc82846112fd565b92915050565b6000806000606084860312156113d757600080fd5b6113e0846112bf565b9250602084013591506113f5604085016112bf565b90509250925092565b60008060006060848603121561141357600080fd5b61141c846112bf565b95602085013595506040909401359392505050565b6000806040838503121561144457600080fd5b61144d836112bf565b946020939093013593505050565b634e487b7160e01b600052602160045260246000fd5b8681526001600160a01b03868116602083015285166040820152606081018490526080810183905260c08101600583106114bb57634e487b7160e01b600052602160045260246000fd5b8260a0830152979650505050505050565b6020808252818101527f4f776e61626c653a2063616c6c6572206973206e6f7420746865206f776e6572604082015260600190565b634e487b7160e01b600052601160045260246000fd5b60008282101561152957611529611501565b500390565b634e487b7160e01b600052604160045260246000fd5b6000821982111561155757611557611501565b500190565b634e487b7160e01b600052603260045260246000fd5b60006001820161158457611584611501565b5060010190565b6001600160a01b039384168152919092166020820152604081019190915260600190565b60008160001904831182151516156115c9576115c9611501565b500290565b6000826115eb57634e487b7160e01b600052601260045260246000fd5b500490565b60006020828403121561160257600080fd5b815180151581146112f657600080fdfea264697066735822122074674d0ac4d818d00088599e83d7b46b5d2bd4343b266174675110cc4765b91964736f6c634300080d0033",
					"opcodes": "PUSH1 0x80 PUSH1 0x40 MSTORE CALLVALUE DUP1 ISZERO PUSH2 0x10 JUMPI PUSH1 0x0 DUP1 REVERT JUMPDEST POP PUSH1 0x1 PUSH1 0x0 SSTORE PUSH2 0x1F CALLER PUSH2 0x24 JUMP JUMPDEST PUSH2 0x76 JUMP JUMPDEST PUSH1 0x4 DUP1 SLOAD PUSH1 0x1 PUSH1 0x1 PUSH1 0xA0 SHL SUB DUP4 DUP2 AND PUSH1 0x1 PUSH1 0x1 PUSH1 0xA0 SHL SUB NOT DUP4 AND DUP2 OR SWAP1 SWAP4 SSTORE PUSH1 0x40 MLOAD SWAP2 AND SWAP2 SWAP1 DUP3 SWAP1 PUSH32 0x8BE0079C531659141344CD1FD0A4F28419497F9722A3DAAFE3B4186F6B6457E0 SWAP1 PUSH1 0x0 SWAP1 LOG3 POP POP JUMP JUMPDEST PUSH2 0x1648 DUP1 PUSH2 0x85 PUSH1 0x0 CODECOPY PUSH1 0x0 RETURN INVALID PUSH1 0x80 PUSH1 0x40 MSTORE PUSH1 0x4 CALLDATASIZE LT PUSH2 0xFE JUMPI PUSH1 0x0 CALLDATALOAD PUSH1 0xE0 SHR DUP1 PUSH4 0x715018A6 GT PUSH2 0x95 JUMPI DUP1 PUSH4 0xB7A60C7E GT PUSH2 0x64 JUMPI DUP1 PUSH4 0xB7A60C7E EQ PUSH2 0x347 JUMPI DUP1 PUSH4 0xC23B139E EQ PUSH2 0x368 JUMPI DUP1 PUSH4 0xC7BE7A49 EQ PUSH2 0x165 JUMPI DUP1 PUSH4 0xF01B52DC EQ PUSH2 0x37B JUMPI DUP1 PUSH4 0xF2FDE38B EQ PUSH2 0x39B JUMPI PUSH1 0x0 DUP1 REVERT JUMPDEST DUP1 PUSH4 0x715018A6 EQ PUSH2 0x2AD JUMPI DUP1 PUSH4 0x85A8B36C EQ PUSH2 0x2C2 JUMPI DUP1 PUSH4 0x8DA5CB5B EQ PUSH2 0x2F5 JUMPI DUP1 PUSH4 0x92FC79FA EQ PUSH2 0x327 JUMPI PUSH1 0x0 DUP1 REVERT JUMPDEST DUP1 PUSH4 0x2B4C32BE GT PUSH2 0xD1 JUMPI DUP1 PUSH4 0x2B4C32BE EQ PUSH2 0x192 JUMPI DUP1 PUSH4 0x49739678 EQ PUSH2 0x1C6 JUMPI DUP1 PUSH4 0x58EB2DF5 EQ PUSH2 0x220 JUMPI DUP1 PUSH4 0x5C80A435 EQ PUSH2 0x233 JUMPI PUSH1 0x0 DUP1 REVERT JUMPDEST DUP1 PUSH4 0xB5F1AB1 EQ PUSH2 0x103 JUMPI DUP1 PUSH4 0xF08EFE0 EQ PUSH2 0x125 JUMPI DUP1 PUSH4 0x202E3740 EQ PUSH2 0x150 JUMPI DUP1 PUSH4 0x2A45B250 EQ PUSH2 0x165 JUMPI JUMPDEST PUSH1 0x0 DUP1 REVERT JUMPDEST CALLVALUE DUP1 ISZERO PUSH2 0x10F JUMPI PUSH1 0x0 DUP1 REVERT JUMPDEST POP PUSH2 0x123 PUSH2 0x11E CALLDATASIZE PUSH1 0x4 PUSH2 0x12DB JUMP JUMPDEST PUSH2 0x3BB JUMP JUMPDEST STOP JUMPDEST CALLVALUE DUP1 ISZERO PUSH2 0x131 JUMPI PUSH1 0x0 DUP1 REVERT JUMPDEST POP PUSH2 0x13A PUSH2 0x410 JUMP JUMPDEST PUSH1 0x40 MLOAD PUSH2 0x147 SWAP2 SWAP1 PUSH2 0x1347 JUMP JUMPDEST PUSH1 0x40 MLOAD DUP1 SWAP2 SUB SWAP1 RETURN JUMPDEST CALLVALUE DUP1 ISZERO PUSH2 0x15C JUMPI PUSH1 0x0 DUP1 REVERT JUMPDEST POP PUSH2 0x13A PUSH2 0x59E JUMP JUMPDEST CALLVALUE DUP1 ISZERO PUSH2 0x171 JUMPI PUSH1 0x0 DUP1 REVERT JUMPDEST POP PUSH2 0x185 PUSH2 0x180 CALLDATASIZE PUSH1 0x4 PUSH2 0x1395 JUMP JUMPDEST PUSH2 0x769 JUMP JUMPDEST PUSH1 0x40 MLOAD PUSH2 0x147 SWAP2 SWAP1 PUSH2 0x13AE JUMP JUMPDEST CALLVALUE DUP1 ISZERO PUSH2 0x19E JUMPI PUSH1 0x0 DUP1 REVERT JUMPDEST POP PUSH2 0x1AD PUSH4 0x80AC58CD PUSH1 0xE0 SHL DUP2 JUMP JUMPDEST PUSH1 0x40 MLOAD PUSH1 0x1 PUSH1 0x1 PUSH1 0xE0 SHL SUB NOT SWAP1 SWAP2 AND DUP2 MSTORE PUSH1 0x20 ADD PUSH2 0x147 JUMP JUMPDEST CALLVALUE DUP1 ISZERO PUSH2 0x1D2 JUMPI PUSH1 0x0 DUP1 REVERT JUMPDEST POP PUSH2 0x20B PUSH2 0x1E1 CALLDATASIZE PUSH1 0x4 PUSH2 0x13C2 JUMP JUMPDEST PUSH1 0x2 PUSH1 0x20 SWAP1 DUP2 MSTORE PUSH1 0x0 SWAP4 DUP5 MSTORE PUSH1 0x40 DUP1 DUP6 KECCAK256 DUP3 MSTORE SWAP3 DUP5 MSTORE DUP3 DUP5 KECCAK256 SWAP1 MSTORE DUP3 MSTORE SWAP1 KECCAK256 DUP1 SLOAD PUSH1 0x1 SWAP1 SWAP2 ADD SLOAD DUP3 JUMP JUMPDEST PUSH1 0x40 DUP1 MLOAD SWAP3 DUP4 MSTORE PUSH1 0x20 DUP4 ADD SWAP2 SWAP1 SWAP2 MSTORE ADD PUSH2 0x147 JUMP JUMPDEST PUSH2 0x123 PUSH2 0x22E CALLDATASIZE PUSH1 0x4 PUSH2 0x13FE JUMP JUMPDEST PUSH2 0x7D8 JUMP JUMPDEST CALLVALUE DUP1 ISZERO PUSH2 0x23F JUMPI PUSH1 0x0 DUP1 REVERT JUMPDEST POP PUSH2 0x29B PUSH2 0x24E CALLDATASIZE PUSH1 0x4 PUSH2 0x1431 JUMP JUMPDEST PUSH1 0x1 PUSH1 0x20 DUP2 DUP2 MSTORE PUSH1 0x0 SWAP4 DUP5 MSTORE PUSH1 0x40 DUP1 DUP6 KECCAK256 SWAP1 SWAP2 MSTORE SWAP2 DUP4 MSTORE SWAP2 KECCAK256 DUP1 SLOAD SWAP2 DUP2 ADD SLOAD PUSH1 0x2 DUP3 ADD SLOAD PUSH1 0x3 DUP4 ADD SLOAD PUSH1 0x4 DUP5 ADD SLOAD PUSH1 0x5 SWAP1 SWAP5 ADD SLOAD PUSH1 0x1 PUSH1 0x1 PUSH1 0xA0 SHL SUB SWAP4 DUP5 AND SWAP5 SWAP4 SWAP1 SWAP3 AND SWAP3 SWAP1 SWAP2 PUSH1 0xFF AND DUP7 JUMP JUMPDEST PUSH1 0x40 MLOAD PUSH2 0x147 SWAP7 SWAP6 SWAP5 SWAP4 SWAP3 SWAP2 SWAP1 PUSH2 0x1471 JUMP JUMPDEST CALLVALUE DUP1 ISZERO PUSH2 0x2B9 JUMPI PUSH1 0x0 DUP1 REVERT JUMPDEST POP PUSH2 0x123 PUSH2 0x9E2 JUMP JUMPDEST CALLVALUE DUP1 ISZERO PUSH2 0x2CE JUMPI PUSH1 0x0 DUP1 REVERT JUMPDEST POP PUSH1 0x3 SLOAD PUSH2 0x2E3 SWAP1 PUSH1 0x1 PUSH1 0xA0 SHL SWAP1 DIV PUSH1 0xFF AND DUP2 JUMP JUMPDEST PUSH1 0x40 MLOAD PUSH1 0xFF SWAP1 SWAP2 AND DUP2 MSTORE PUSH1 0x20 ADD PUSH2 0x147 JUMP JUMPDEST CALLVALUE DUP1 ISZERO PUSH2 0x301 JUMPI PUSH1 0x0 DUP1 REVERT JUMPDEST POP PUSH1 0x4 SLOAD PUSH1 0x1 PUSH1 0x1 PUSH1 0xA0 SHL SUB AND JUMPDEST PUSH1 0x40 MLOAD PUSH1 0x1 PUSH1 0x1 PUSH1 0xA0 SHL SUB SWAP1 SWAP2 AND DUP2 MSTORE PUSH1 0x20 ADD PUSH2 0x147 JUMP JUMPDEST CALLVALUE DUP1 ISZERO PUSH2 0x333 JUMPI PUSH1 0x0 DUP1 REVERT JUMPDEST POP PUSH1 0x3 SLOAD PUSH2 0x30F SWAP1 PUSH1 0x1 PUSH1 0x1 PUSH1 0xA0 SHL SUB AND DUP2 JUMP JUMPDEST CALLVALUE DUP1 ISZERO PUSH2 0x353 JUMPI PUSH1 0x0 DUP1 REVERT JUMPDEST POP PUSH1 0x3 SLOAD PUSH2 0x2E3 SWAP1 PUSH1 0x1 PUSH1 0xA8 SHL SWAP1 DIV PUSH1 0xFF AND DUP2 JUMP JUMPDEST PUSH2 0x123 PUSH2 0x376 CALLDATASIZE PUSH1 0x4 PUSH2 0x1431 JUMP JUMPDEST PUSH2 0xA18 JUMP JUMPDEST CALLVALUE DUP1 ISZERO PUSH2 0x387 JUMPI PUSH1 0x0 DUP1 REVERT JUMPDEST POP PUSH2 0x123 PUSH2 0x396 CALLDATASIZE PUSH1 0x4 PUSH2 0x13FE JUMP JUMPDEST PUSH2 0xBE1 JUMP JUMPDEST CALLVALUE DUP1 ISZERO PUSH2 0x3A7 JUMPI PUSH1 0x0 DUP1 REVERT JUMPDEST POP PUSH2 0x123 PUSH2 0x3B6 CALLDATASIZE PUSH1 0x4 PUSH2 0x12DB JUMP JUMPDEST PUSH2 0x1042 JUMP JUMPDEST PUSH1 0x4 SLOAD PUSH1 0x1 PUSH1 0x1 PUSH1 0xA0 SHL SUB AND CALLER EQ PUSH2 0x3EE JUMPI PUSH1 0x40 MLOAD PUSH3 0x461BCD PUSH1 0xE5 SHL DUP2 MSTORE PUSH1 0x4 ADD PUSH2 0x3E5 SWAP1 PUSH2 0x14CC JUMP JUMPDEST PUSH1 0x40 MLOAD DUP1 SWAP2 SUB SWAP1 REVERT JUMPDEST PUSH1 0x3 DUP1 SLOAD PUSH1 0x1 PUSH1 0x1 PUSH1 0xA0 SHL SUB NOT AND PUSH1 0x1 PUSH1 0x1 PUSH1 0xA0 SHL SUB SWAP3 SWAP1 SWAP3 AND SWAP2 SWAP1 SWAP2 OR SWAP1 SSTORE JUMP JUMPDEST PUSH1 0x60 PUSH1 0x0 PUSH2 0x41D PUSH1 0x5 SLOAD SWAP1 JUMP JUMPDEST SWAP1 POP PUSH1 0x0 PUSH2 0x42A PUSH1 0x6 SLOAD SWAP1 JUMP JUMPDEST PUSH1 0x5 SLOAD PUSH2 0x437 SWAP2 SWAP1 PUSH2 0x1517 JUMP JUMPDEST SWAP1 POP PUSH1 0x0 DUP1 DUP3 PUSH8 0xFFFFFFFFFFFFFFFF DUP2 GT ISZERO PUSH2 0x455 JUMPI PUSH2 0x455 PUSH2 0x152E JUMP JUMPDEST PUSH1 0x40 MLOAD SWAP1 DUP1 DUP3 MSTORE DUP1 PUSH1 0x20 MUL PUSH1 0x20 ADD DUP3 ADD PUSH1 0x40 MSTORE DUP1 ISZERO PUSH2 0x48E JUMPI DUP2 PUSH1 0x20 ADD JUMPDEST PUSH2 0x47B PUSH2 0x126E JUMP JUMPDEST DUP2 MSTORE PUSH1 0x20 ADD SWAP1 PUSH1 0x1 SWAP1 SUB SWAP1 DUP2 PUSH2 0x473 JUMPI SWAP1 POP JUMPDEST POP SWAP1 POP PUSH1 0x0 JUMPDEST DUP5 DUP2 LT ISZERO PUSH2 0x595 JUMPI PUSH1 0x0 PUSH1 0x7 DUP2 PUSH2 0x4AC DUP5 PUSH1 0x1 PUSH2 0x1544 JUMP JUMPDEST DUP2 MSTORE PUSH1 0x20 DUP2 ADD SWAP2 SWAP1 SWAP2 MSTORE PUSH1 0x40 ADD PUSH1 0x0 KECCAK256 PUSH1 0x4 ADD SLOAD PUSH1 0x1 PUSH1 0x1 PUSH1 0xA0 SHL SUB AND SUB PUSH2 0x583 JUMPI PUSH1 0x0 PUSH1 0x7 DUP2 PUSH2 0x4DE DUP5 PUSH1 0x1 PUSH2 0x1544 JUMP JUMPDEST DUP2 MSTORE PUSH1 0x20 DUP1 DUP3 ADD SWAP3 SWAP1 SWAP3 MSTORE PUSH1 0x40 SWAP1 DUP2 ADD PUSH1 0x0 SWAP1 DUP2 KECCAK256 SLOAD DUP1 DUP3 MSTORE PUSH1 0x7 DUP5 MSTORE SWAP1 DUP3 SWAP1 KECCAK256 DUP3 MLOAD PUSH1 0xC0 DUP2 ADD DUP5 MSTORE DUP2 SLOAD DUP2 MSTORE PUSH1 0x1 DUP3 ADD SLOAD PUSH1 0x1 PUSH1 0x1 PUSH1 0xA0 SHL SUB SWAP1 DUP2 AND SWAP6 DUP3 ADD SWAP6 SWAP1 SWAP6 MSTORE PUSH1 0x2 DUP3 ADD SLOAD SWAP4 DUP2 ADD SWAP4 SWAP1 SWAP4 MSTORE PUSH1 0x3 DUP2 ADD SLOAD DUP5 AND PUSH1 0x60 DUP5 ADD MSTORE PUSH1 0x4 DUP2 ADD SLOAD SWAP1 SWAP4 AND PUSH1 0x80 DUP4 ADD MSTORE PUSH1 0x5 DUP4 ADD SLOAD PUSH1 0xA0 DUP4 ADD MSTORE DUP6 MLOAD SWAP1 SWAP4 POP DUP6 SWAP1 DUP8 SWAP1 DUP2 LT PUSH2 0x568 JUMPI PUSH2 0x568 PUSH2 0x155C JUMP JUMPDEST PUSH1 0x20 SWAP1 DUP2 MUL SWAP2 SWAP1 SWAP2 ADD ADD MSTORE PUSH2 0x57E PUSH1 0x1 DUP7 PUSH2 0x1544 JUMP JUMPDEST SWAP5 POP POP POP JUMPDEST DUP1 PUSH2 0x58D DUP2 PUSH2 0x1572 JUMP JUMPDEST SWAP2 POP POP PUSH2 0x494 JUMP JUMPDEST POP SWAP5 SWAP4 POP POP POP POP JUMP JUMPDEST PUSH1 0x60 PUSH1 0x0 PUSH2 0x5AB PUSH1 0x5 SLOAD SWAP1 JUMP JUMPDEST SWAP1 POP PUSH1 0x0 DUP1 PUSH1 0x0 JUMPDEST DUP4 DUP2 LT ISZERO PUSH2 0x60D JUMPI CALLER PUSH1 0x7 PUSH1 0x0 PUSH2 0x5CB DUP5 PUSH1 0x1 PUSH2 0x1544 JUMP JUMPDEST DUP2 MSTORE PUSH1 0x20 DUP2 ADD SWAP2 SWAP1 SWAP2 MSTORE PUSH1 0x40 ADD PUSH1 0x0 KECCAK256 PUSH1 0x4 ADD SLOAD PUSH1 0x1 PUSH1 0x1 PUSH1 0xA0 SHL SUB AND SUB PUSH2 0x5FB JUMPI PUSH2 0x5F8 PUSH1 0x1 DUP5 PUSH2 0x1544 JUMP JUMPDEST SWAP3 POP JUMPDEST DUP1 PUSH2 0x605 DUP2 PUSH2 0x1572 JUMP JUMPDEST SWAP2 POP POP PUSH2 0x5B3 JUMP JUMPDEST POP PUSH1 0x0 DUP3 PUSH8 0xFFFFFFFFFFFFFFFF DUP2 GT ISZERO PUSH2 0x629 JUMPI PUSH2 0x629 PUSH2 0x152E JUMP JUMPDEST PUSH1 0x40 MLOAD SWAP1 DUP1 DUP3 MSTORE DUP1 PUSH1 0x20 MUL PUSH1 0x20 ADD DUP3 ADD PUSH1 0x40 MSTORE DUP1 ISZERO PUSH2 0x662 JUMPI DUP2 PUSH1 0x20 ADD JUMPDEST PUSH2 0x64F PUSH2 0x126E JUMP JUMPDEST DUP2 MSTORE PUSH1 0x20 ADD SWAP1 PUSH1 0x1 SWAP1 SUB SWAP1 DUP2 PUSH2 0x647 JUMPI SWAP1 POP JUMPDEST POP SWAP1 POP PUSH1 0x0 JUMPDEST DUP5 DUP2 LT ISZERO PUSH2 0x595 JUMPI CALLER PUSH1 0x7 PUSH1 0x0 PUSH2 0x680 DUP5 PUSH1 0x1 PUSH2 0x1544 JUMP JUMPDEST DUP2 MSTORE PUSH1 0x20 DUP2 ADD SWAP2 SWAP1 SWAP2 MSTORE PUSH1 0x40 ADD PUSH1 0x0 KECCAK256 PUSH1 0x4 ADD SLOAD PUSH1 0x1 PUSH1 0x1 PUSH1 0xA0 SHL SUB AND SUB PUSH2 0x757 JUMPI PUSH1 0x0 PUSH1 0x7 DUP2 PUSH2 0x6B2 DUP5 PUSH1 0x1 PUSH2 0x1544 JUMP JUMPDEST DUP2 MSTORE PUSH1 0x20 DUP1 DUP3 ADD SWAP3 SWAP1 SWAP3 MSTORE PUSH1 0x40 SWAP1 DUP2 ADD PUSH1 0x0 SWAP1 DUP2 KECCAK256 SLOAD DUP1 DUP3 MSTORE PUSH1 0x7 DUP5 MSTORE SWAP1 DUP3 SWAP1 KECCAK256 DUP3 MLOAD PUSH1 0xC0 DUP2 ADD DUP5 MSTORE DUP2 SLOAD DUP2 MSTORE PUSH1 0x1 DUP3 ADD SLOAD PUSH1 0x1 PUSH1 0x1 PUSH1 0xA0 SHL SUB SWAP1 DUP2 AND SWAP6 DUP3 ADD SWAP6 SWAP1 SWAP6 MSTORE PUSH1 0x2 DUP3 ADD SLOAD SWAP4 DUP2 ADD SWAP4 SWAP1 SWAP4 MSTORE PUSH1 0x3 DUP2 ADD SLOAD DUP5 AND PUSH1 0x60 DUP5 ADD MSTORE PUSH1 0x4 DUP2 ADD SLOAD SWAP1 SWAP4 AND PUSH1 0x80 DUP4 ADD MSTORE PUSH1 0x5 DUP4 ADD SLOAD PUSH1 0xA0 DUP4 ADD MSTORE DUP6 MLOAD SWAP1 SWAP4 POP DUP6 SWAP1 DUP8 SWAP1 DUP2 LT PUSH2 0x73C JUMPI PUSH2 0x73C PUSH2 0x155C JUMP JUMPDEST PUSH1 0x20 SWAP1 DUP2 MUL SWAP2 SWAP1 SWAP2 ADD ADD MSTORE PUSH2 0x752 PUSH1 0x1 DUP7 PUSH2 0x1544 JUMP JUMPDEST SWAP5 POP POP POP JUMPDEST DUP1 PUSH2 0x761 DUP2 PUSH2 0x1572 JUMP JUMPDEST SWAP2 POP POP PUSH2 0x668 JUMP JUMPDEST PUSH2 0x771 PUSH2 0x126E JUMP JUMPDEST POP PUSH1 0x0 SWAP1 DUP2 MSTORE PUSH1 0x7 PUSH1 0x20 SWAP1 DUP2 MSTORE PUSH1 0x40 SWAP2 DUP3 SWAP1 KECCAK256 DUP3 MLOAD PUSH1 0xC0 DUP2 ADD DUP5 MSTORE DUP2 SLOAD DUP2 MSTORE PUSH1 0x1 DUP3 ADD SLOAD PUSH1 0x1 PUSH1 0x1 PUSH1 0xA0 SHL SUB SWAP1 DUP2 AND SWAP4 DUP3 ADD SWAP4 SWAP1 SWAP4 MSTORE PUSH1 0x2 DUP3 ADD SLOAD SWAP4 DUP2 ADD SWAP4 SWAP1 SWAP4 MSTORE PUSH1 0x3 DUP2 ADD SLOAD DUP3 AND PUSH1 0x60 DUP5 ADD MSTORE PUSH1 0x4 DUP2 ADD SLOAD SWAP1 SWAP2 AND PUSH1 0x80 DUP4 ADD MSTORE PUSH1 0x5 ADD SLOAD PUSH1 0xA0 DUP3 ADD MSTORE SWAP1 JUMP JUMPDEST PUSH1 0x2 PUSH1 0x0 SLOAD SUB PUSH2 0x82A JUMPI PUSH1 0x40 MLOAD PUSH3 0x461BCD PUSH1 0xE5 SHL DUP2 MSTORE PUSH1 0x20 PUSH1 0x4 DUP3 ADD MSTORE PUSH1 0x1F PUSH1 0x24 DUP3 ADD MSTORE PUSH32 0x5265656E7472616E637947756172643A207265656E7472616E742063616C6C00 PUSH1 0x44 DUP3 ADD MSTORE PUSH1 0x64 ADD PUSH2 0x3E5 JUMP JUMPDEST PUSH1 0x2 PUSH1 0x0 SSTORE DUP1 PUSH2 0x87C JUMPI PUSH1 0x40 MLOAD PUSH3 0x461BCD PUSH1 0xE5 SHL DUP2 MSTORE PUSH1 0x20 PUSH1 0x4 DUP3 ADD MSTORE PUSH1 0x1C PUSH1 0x24 DUP3 ADD MSTORE PUSH32 0x5072696365206D757374206265206174206C6561737420312077656900000000 PUSH1 0x44 DUP3 ADD MSTORE PUSH1 0x64 ADD PUSH2 0x3E5 JUMP JUMPDEST PUSH2 0x88A PUSH1 0x5 DUP1 SLOAD PUSH1 0x1 ADD SWAP1 SSTORE JUMP JUMPDEST PUSH1 0x0 PUSH2 0x895 PUSH1 0x5 SLOAD SWAP1 JUMP JUMPDEST PUSH1 0x40 DUP1 MLOAD PUSH1 0xC0 DUP2 ADD DUP3 MSTORE DUP3 DUP2 MSTORE PUSH1 0x1 PUSH1 0x1 PUSH1 0xA0 SHL SUB DUP1 DUP9 AND PUSH1 0x20 DUP1 DUP5 ADD DUP3 DUP2 MSTORE DUP5 DUP7 ADD DUP11 DUP2 MSTORE CALLER PUSH1 0x60 DUP8 ADD DUP2 DUP2 MSTORE PUSH1 0x0 PUSH1 0x80 DUP10 ADD DUP2 DUP2 MSTORE PUSH1 0xA0 DUP11 ADD DUP15 DUP2 MSTORE DUP13 DUP4 MSTORE PUSH1 0x7 SWAP1 SWAP8 MSTORE SWAP1 DUP11 SWAP1 KECCAK256 SWAP9 MLOAD DUP10 SSTORE SWAP4 MLOAD PUSH1 0x1 DUP10 ADD DUP1 SLOAD SWAP2 DUP10 AND PUSH1 0x1 PUSH1 0x1 PUSH1 0xA0 SHL SUB NOT SWAP3 DUP4 AND OR SWAP1 SSTORE SWAP3 MLOAD PUSH1 0x2 DUP10 ADD SSTORE MLOAD PUSH1 0x3 DUP9 ADD DUP1 SLOAD SWAP2 DUP9 AND SWAP2 DUP5 AND SWAP2 SWAP1 SWAP2 OR SWAP1 SSTORE SWAP2 MLOAD PUSH1 0x4 DUP1 DUP9 ADD DUP1 SLOAD SWAP3 SWAP1 SWAP8 AND SWAP2 SWAP1 SWAP3 AND OR SWAP1 SWAP5 SSTORE SWAP1 MLOAD PUSH1 0x5 SWAP1 SWAP5 ADD SWAP4 SWAP1 SWAP4 SSTORE SWAP3 MLOAD PUSH4 0x23B872DD PUSH1 0xE0 SHL DUP2 MSTORE SWAP4 SWAP5 POP SWAP2 SWAP3 PUSH4 0x23B872DD SWAP3 PUSH2 0x95D SWAP3 SWAP2 ADDRESS SWAP2 DUP10 SWAP2 ADD PUSH2 0x158B JUMP JUMPDEST PUSH1 0x0 PUSH1 0x40 MLOAD DUP1 DUP4 SUB DUP2 PUSH1 0x0 DUP8 DUP1 EXTCODESIZE ISZERO DUP1 ISZERO PUSH2 0x977 JUMPI PUSH1 0x0 DUP1 REVERT JUMPDEST POP GAS CALL ISZERO DUP1 ISZERO PUSH2 0x98B JUMPI RETURNDATASIZE PUSH1 0x0 DUP1 RETURNDATACOPY RETURNDATASIZE PUSH1 0x0 REVERT JUMPDEST POP POP POP POP DUP3 DUP5 PUSH1 0x1 PUSH1 0x1 PUSH1 0xA0 SHL SUB AND DUP3 PUSH32 0x2AD024D53A0DC50C130967F8D4941927EE087EA31394CEBB2B9599D3706C9C00 CALLER PUSH1 0x0 DUP8 PUSH1 0x40 MLOAD PUSH2 0x9CF SWAP4 SWAP3 SWAP2 SWAP1 PUSH2 0x158B JUMP JUMPDEST PUSH1 0x40 MLOAD DUP1 SWAP2 SUB SWAP1 LOG4 POP POP PUSH1 0x1 PUSH1 0x0 SSTORE POP POP JUMP JUMPDEST PUSH1 0x4 SLOAD PUSH1 0x1 PUSH1 0x1 PUSH1 0xA0 SHL SUB AND CALLER EQ PUSH2 0xA0C JUMPI PUSH1 0x40 MLOAD PUSH3 0x461BCD PUSH1 0xE5 SHL DUP2 MSTORE PUSH1 0x4 ADD PUSH2 0x3E5 SWAP1 PUSH2 0x14CC JUMP JUMPDEST PUSH2 0xA16 PUSH1 0x0 PUSH2 0x10DD JUMP JUMPDEST JUMP JUMPDEST PUSH1 0x2 PUSH1 0x0 SLOAD SUB PUSH2 0xA6A JUMPI PUSH1 0x40 MLOAD PUSH3 0x461BCD PUSH1 0xE5 SHL DUP2 MSTORE PUSH1 0x20 PUSH1 0x4 DUP3 ADD MSTORE PUSH1 0x1F PUSH1 0x24 DUP3 ADD MSTORE PUSH32 0x5265656E7472616E637947756172643A207265656E7472616E742063616C6C00 PUSH1 0x44 DUP3 ADD MSTORE PUSH1 0x64 ADD PUSH2 0x3E5 JUMP JUMPDEST PUSH1 0x2 PUSH1 0x0 DUP2 DUP2 SSTORE DUP3 DUP2 MSTORE PUSH1 0x7 PUSH1 0x20 MSTORE PUSH1 0x40 SWAP1 KECCAK256 PUSH1 0x5 DUP2 ADD SLOAD SWAP2 ADD SLOAD CALLVALUE DUP3 EQ PUSH2 0xAFC JUMPI PUSH1 0x40 DUP1 MLOAD PUSH3 0x461BCD PUSH1 0xE5 SHL DUP2 MSTORE PUSH1 0x20 PUSH1 0x4 DUP3 ADD MSTORE PUSH1 0x24 DUP2 ADD SWAP2 SWAP1 SWAP2 MSTORE PUSH32 0x506C65617365207375626D6974207468652061736B696E672070726963652069 PUSH1 0x44 DUP3 ADD MSTORE PUSH32 0x6E206F7264657220746F20636F6D706C65746520746865207075726368617365 PUSH1 0x64 DUP3 ADD MSTORE PUSH1 0x84 ADD PUSH2 0x3E5 JUMP JUMPDEST PUSH1 0x0 DUP4 DUP2 MSTORE PUSH1 0x7 PUSH1 0x20 MSTORE PUSH1 0x40 DUP1 DUP3 KECCAK256 PUSH1 0x3 ADD SLOAD SWAP1 MLOAD PUSH1 0x1 PUSH1 0x1 PUSH1 0xA0 SHL SUB SWAP1 SWAP2 AND SWAP2 CALLVALUE DUP1 ISZERO PUSH2 0x8FC MUL SWAP3 SWAP1 SWAP2 DUP2 DUP2 DUP2 DUP6 DUP9 DUP9 CALL SWAP4 POP POP POP POP ISZERO DUP1 ISZERO PUSH2 0xB44 JUMPI RETURNDATASIZE PUSH1 0x0 DUP1 RETURNDATACOPY RETURNDATASIZE PUSH1 0x0 REVERT JUMPDEST POP PUSH1 0x40 MLOAD PUSH4 0x23B872DD PUSH1 0xE0 SHL DUP2 MSTORE PUSH1 0x1 PUSH1 0x1 PUSH1 0xA0 SHL SUB DUP6 AND SWAP1 PUSH4 0x23B872DD SWAP1 PUSH2 0xB75 SWAP1 ADDRESS SWAP1 CALLER SWAP1 DUP7 SWAP1 PUSH1 0x4 ADD PUSH2 0x158B JUMP JUMPDEST PUSH1 0x0 PUSH1 0x40 MLOAD DUP1 DUP4 SUB DUP2 PUSH1 0x0 DUP8 DUP1 EXTCODESIZE ISZERO DUP1 ISZERO PUSH2 0xB8F JUMPI PUSH1 0x0 DUP1 REVERT JUMPDEST POP GAS CALL ISZERO DUP1 ISZERO PUSH2 0xBA3 JUMPI RETURNDATASIZE PUSH1 0x0 DUP1 RETURNDATACOPY RETURNDATASIZE PUSH1 0x0 REVERT JUMPDEST POP POP POP PUSH1 0x0 DUP5 DUP2 MSTORE PUSH1 0x7 PUSH1 0x20 MSTORE PUSH1 0x40 SWAP1 KECCAK256 PUSH1 0x4 ADD DUP1 SLOAD PUSH1 0x1 PUSH1 0x1 PUSH1 0xA0 SHL SUB NOT AND CALLER OR SWAP1 SSTORE POP PUSH2 0xBD6 PUSH1 0x6 DUP1 SLOAD PUSH1 0x1 ADD SWAP1 SSTORE JUMP JUMPDEST POP POP PUSH1 0x1 PUSH1 0x0 SSTORE POP POP JUMP JUMPDEST PUSH2 0xBEA DUP4 PUSH2 0x112F JUMP JUMPDEST PUSH1 0x1 PUSH1 0x1 PUSH1 0xA0 SHL SUB DUP1 DUP5 AND PUSH1 0x0 SWAP1 DUP2 MSTORE PUSH1 0x1 PUSH1 0x20 DUP2 DUP2 MSTORE PUSH1 0x40 DUP1 DUP5 KECCAK256 DUP8 DUP6 MSTORE DUP3 MSTORE DUP1 DUP5 KECCAK256 DUP2 MLOAD PUSH1 0xC0 DUP2 ADD DUP4 MSTORE DUP2 SLOAD DUP2 MSTORE SWAP4 DUP2 ADD SLOAD DUP7 AND SWAP3 DUP5 ADD SWAP3 SWAP1 SWAP3 MSTORE PUSH1 0x2 DUP3 ADD SLOAD SWAP1 SWAP5 AND SWAP4 DUP3 ADD SWAP4 SWAP1 SWAP4 MSTORE PUSH1 0x3 DUP4 ADD SLOAD PUSH1 0x60 DUP3 ADD MSTORE PUSH1 0x4 DUP1 DUP5 ADD SLOAD PUSH1 0x80 DUP4 ADD MSTORE PUSH1 0x5 DUP5 ADD SLOAD CALLER SWAP5 DUP9 SWAP5 SWAP4 SWAP3 SWAP1 SWAP2 PUSH1 0xA0 DUP5 ADD SWAP2 PUSH1 0xFF SWAP1 SWAP2 AND SWAP1 DUP2 GT ISZERO PUSH2 0xC72 JUMPI PUSH2 0xC72 PUSH2 0x145B JUMP JUMPDEST PUSH1 0x4 DUP2 GT ISZERO PUSH2 0xC83 JUMPI PUSH2 0xC83 PUSH2 0x145B JUMP JUMPDEST SWAP1 MSTORE POP DUP1 MLOAD SWAP1 SWAP2 POP PUSH1 0x0 SUB PUSH2 0xCD0 JUMPI PUSH1 0x40 MLOAD PUSH3 0x461BCD PUSH1 0xE5 SHL DUP2 MSTORE PUSH1 0x20 PUSH1 0x4 DUP3 ADD MSTORE PUSH1 0x13 PUSH1 0x24 DUP3 ADD MSTORE PUSH19 0x105CDCD95D081B9BDD081C1D589B1A5CDA1959 PUSH1 0x6A SHL PUSH1 0x44 DUP3 ADD MSTORE PUSH1 0x64 ADD PUSH2 0x3E5 JUMP JUMPDEST PUSH1 0x1 DUP2 PUSH1 0xA0 ADD MLOAD PUSH1 0x4 DUP2 GT ISZERO PUSH2 0xCE8 JUMPI PUSH2 0xCE8 PUSH2 0x145B JUMP JUMPDEST EQ PUSH2 0xD35 JUMPI PUSH1 0x40 MLOAD PUSH3 0x461BCD PUSH1 0xE5 SHL DUP2 MSTORE PUSH1 0x20 PUSH1 0x4 DUP3 ADD MSTORE PUSH1 0x18 PUSH1 0x24 DUP3 ADD MSTORE PUSH32 0x4173736574206973206E6F74206C69737420746F206275790000000000000000 PUSH1 0x44 DUP3 ADD MSTORE PUSH1 0x64 ADD PUSH2 0x3E5 JUMP JUMPDEST PUSH1 0x20 DUP2 ADD MLOAD PUSH1 0x1 PUSH1 0x1 PUSH1 0xA0 SHL SUB DUP2 AND PUSH2 0xD82 JUMPI PUSH1 0x40 MLOAD PUSH3 0x461BCD PUSH1 0xE5 SHL DUP2 MSTORE PUSH1 0x20 PUSH1 0x4 DUP3 ADD MSTORE PUSH1 0xF PUSH1 0x24 DUP3 ADD MSTORE PUSH15 0x496E76616C69642061646472657373 PUSH1 0x88 SHL PUSH1 0x44 DUP3 ADD MSTORE PUSH1 0x64 ADD PUSH2 0x3E5 JUMP JUMPDEST DUP2 PUSH1 0x80 ADD MLOAD DUP6 LT ISZERO PUSH2 0xDD6 JUMPI PUSH1 0x40 MLOAD PUSH3 0x461BCD PUSH1 0xE5 SHL DUP2 MSTORE PUSH1 0x20 PUSH1 0x4 DUP3 ADD MSTORE PUSH1 0x1E PUSH1 0x24 DUP3 ADD MSTORE PUSH32 0x7072696365206E65656420657175616C206C697374696E672070726963650000 PUSH1 0x44 DUP3 ADD MSTORE PUSH1 0x64 ADD PUSH2 0x3E5 JUMP JUMPDEST PUSH1 0x3 SLOAD PUSH1 0x0 SWAP1 PUSH1 0x64 SWAP1 PUSH2 0xDF4 SWAP1 DUP9 SWAP1 PUSH1 0x1 PUSH1 0xA8 SHL SWAP1 DIV PUSH1 0xFF AND PUSH2 0x15AF JUMP JUMPDEST PUSH2 0xDFE SWAP2 SWAP1 PUSH2 0x15CE JUMP JUMPDEST SWAP1 POP PUSH1 0x0 PUSH2 0xE0C DUP3 DUP9 PUSH2 0x1517 JUMP JUMPDEST PUSH1 0x3 SLOAD PUSH1 0x40 MLOAD PUSH4 0x23B872DD PUSH1 0xE0 SHL DUP2 MSTORE SWAP2 SWAP3 POP PUSH1 0x1 PUSH1 0x1 PUSH1 0xA0 SHL SUB AND SWAP1 PUSH4 0x23B872DD SWAP1 PUSH2 0xE41 SWAP1 DUP10 SWAP1 ADDRESS SWAP1 DUP8 SWAP1 PUSH1 0x4 ADD PUSH2 0x158B JUMP JUMPDEST PUSH1 0x20 PUSH1 0x40 MLOAD DUP1 DUP4 SUB DUP2 PUSH1 0x0 DUP8 GAS CALL ISZERO DUP1 ISZERO PUSH2 0xE60 JUMPI RETURNDATASIZE PUSH1 0x0 DUP1 RETURNDATACOPY RETURNDATASIZE PUSH1 0x0 REVERT JUMPDEST POP POP POP POP PUSH1 0x40 MLOAD RETURNDATASIZE PUSH1 0x1F NOT PUSH1 0x1F DUP3 ADD AND DUP3 ADD DUP1 PUSH1 0x40 MSTORE POP DUP2 ADD SWAP1 PUSH2 0xE84 SWAP2 SWAP1 PUSH2 0x15F0 JUMP JUMPDEST POP PUSH1 0x3 SLOAD PUSH1 0x40 MLOAD PUSH4 0x23B872DD PUSH1 0xE0 SHL DUP2 MSTORE PUSH1 0x1 PUSH1 0x1 PUSH1 0xA0 SHL SUB SWAP1 SWAP2 AND SWAP1 PUSH4 0x23B872DD SWAP1 PUSH2 0xEB9 SWAP1 DUP10 SWAP1 DUP8 SWAP1 DUP7 SWAP1 PUSH1 0x4 ADD PUSH2 0x158B JUMP JUMPDEST PUSH1 0x20 PUSH1 0x40 MLOAD DUP1 DUP4 SUB DUP2 PUSH1 0x0 DUP8 GAS CALL ISZERO DUP1 ISZERO PUSH2 0xED8 JUMPI RETURNDATASIZE PUSH1 0x0 DUP1 RETURNDATACOPY RETURNDATASIZE PUSH1 0x0 REVERT JUMPDEST POP POP POP POP PUSH1 0x40 MLOAD RETURNDATASIZE PUSH1 0x1F NOT PUSH1 0x1F DUP3 ADD AND DUP3 ADD DUP1 PUSH1 0x40 MSTORE POP DUP2 ADD SWAP1 PUSH2 0xEFC SWAP2 SWAP1 PUSH2 0x15F0 JUMP JUMPDEST POP PUSH1 0x40 MLOAD PUSH4 0x21421707 PUSH1 0xE1 SHL DUP2 MSTORE PUSH1 0x1 PUSH1 0x1 PUSH1 0xA0 SHL SUB DUP7 AND SWAP1 PUSH4 0x42842E0E SWAP1 PUSH2 0xF2D SWAP1 ADDRESS SWAP1 DUP11 SWAP1 DUP14 SWAP1 PUSH1 0x4 ADD PUSH2 0x158B JUMP JUMPDEST PUSH1 0x0 PUSH1 0x40 MLOAD DUP1 DUP4 SUB DUP2 PUSH1 0x0 DUP8 DUP1 EXTCODESIZE ISZERO DUP1 ISZERO PUSH2 0xF47 JUMPI PUSH1 0x0 DUP1 REVERT JUMPDEST POP GAS CALL ISZERO DUP1 ISZERO PUSH2 0xF5B JUMPI RETURNDATASIZE PUSH1 0x0 DUP1 RETURNDATACOPY RETURNDATASIZE PUSH1 0x0 REVERT JUMPDEST POP POP POP POP PUSH1 0x1 PUSH1 0x1 PUSH1 0xA0 SHL SUB DUP10 DUP2 AND PUSH1 0x0 DUP2 DUP2 MSTORE PUSH1 0x1 PUSH1 0x20 DUP2 DUP2 MSTORE PUSH1 0x40 DUP1 DUP5 KECCAK256 DUP15 DUP6 MSTORE DUP3 MSTORE SWAP3 DUP4 SWAP1 KECCAK256 SWAP2 DUP3 ADD DUP1 SLOAD DUP13 DUP8 AND PUSH1 0x1 PUSH1 0x1 PUSH1 0xA0 SHL SUB NOT SWAP1 SWAP2 AND DUP2 OR SWAP1 SWAP2 SSTORE PUSH1 0x5 SWAP1 SWAP3 ADD DUP1 SLOAD PUSH1 0xFF NOT AND PUSH1 0x2 OR SWAP1 SSTORE DUP9 MLOAD PUSH1 0x80 DUP1 DUP12 ADD MLOAD PUSH1 0x3 SLOAD DUP7 MLOAD SWAP4 DUP5 MSTORE SWAP4 DUP4 ADD SWAP7 SWAP1 SWAP7 MSTORE SWAP4 DUP2 ADD SWAP5 SWAP1 SWAP5 MSTORE PUSH1 0x1 PUSH1 0xA8 SHL SWAP1 DIV PUSH1 0xFF AND PUSH1 0x60 DUP5 ADD MSTORE SWAP1 DUP3 ADD DUP6 SWAP1 MSTORE PUSH1 0xE0 PUSH1 0xA0 DUP4 ADD DUP2 SWAP1 MSTORE PUSH1 0x4 SWAP1 DUP4 ADD MSTORE PUSH4 0x414E5441 PUSH1 0xE0 SHL PUSH2 0x100 DUP4 ADD MSTORE TIMESTAMP PUSH1 0xC0 DUP4 ADD MSTORE SWAP2 DUP6 AND SWAP1 DUP11 SWAP1 PUSH32 0x30247E11BBB597DFEFD2A3124026F1EF8987A4D6BA46E3629F80BAC1B0C9FAEE SWAP1 PUSH2 0x120 ADD PUSH1 0x40 MLOAD DUP1 SWAP2 SUB SWAP1 LOG4 POP POP POP POP POP POP POP POP POP JUMP JUMPDEST PUSH1 0x4 SLOAD PUSH1 0x1 PUSH1 0x1 PUSH1 0xA0 SHL SUB AND CALLER EQ PUSH2 0x106C JUMPI PUSH1 0x40 MLOAD PUSH3 0x461BCD PUSH1 0xE5 SHL DUP2 MSTORE PUSH1 0x4 ADD PUSH2 0x3E5 SWAP1 PUSH2 0x14CC JUMP JUMPDEST PUSH1 0x1 PUSH1 0x1 PUSH1 0xA0 SHL SUB DUP2 AND PUSH2 0x10D1 JUMPI PUSH1 0x40 MLOAD PUSH3 0x461BCD PUSH1 0xE5 SHL DUP2 MSTORE PUSH1 0x20 PUSH1 0x4 DUP3 ADD MSTORE PUSH1 0x26 PUSH1 0x24 DUP3 ADD MSTORE PUSH32 0x4F776E61626C653A206E6577206F776E657220697320746865207A65726F2061 PUSH1 0x44 DUP3 ADD MSTORE PUSH6 0x646472657373 PUSH1 0xD0 SHL PUSH1 0x64 DUP3 ADD MSTORE PUSH1 0x84 ADD PUSH2 0x3E5 JUMP JUMPDEST PUSH2 0x10DA DUP2 PUSH2 0x10DD JUMP JUMPDEST POP JUMP JUMPDEST PUSH1 0x4 DUP1 SLOAD PUSH1 0x1 PUSH1 0x1 PUSH1 0xA0 SHL SUB DUP4 DUP2 AND PUSH1 0x1 PUSH1 0x1 PUSH1 0xA0 SHL SUB NOT DUP4 AND DUP2 OR SWAP1 SWAP4 SSTORE PUSH1 0x40 MLOAD SWAP2 AND SWAP2 SWAP1 DUP3 SWAP1 PUSH32 0x8BE0079C531659141344CD1FD0A4F28419497F9722A3DAAFE3B4186F6B6457E0 SWAP1 PUSH1 0x0 SWAP1 LOG3 POP POP JUMP JUMPDEST DUP1 EXTCODESIZE PUSH4 0xFFFFFFFF AND PUSH2 0x118F JUMPI PUSH1 0x40 MLOAD PUSH3 0x461BCD PUSH1 0xE5 SHL DUP2 MSTORE PUSH1 0x20 PUSH1 0x4 DUP3 ADD MSTORE PUSH1 0x24 DUP1 DUP3 ADD MSTORE PUSH32 0x546865204E465420416464726573732073686F756C64206265206120636F6E74 PUSH1 0x44 DUP3 ADD MSTORE PUSH4 0x1C9858DD PUSH1 0xE2 SHL PUSH1 0x64 DUP3 ADD MSTORE PUSH1 0x84 ADD PUSH2 0x3E5 JUMP JUMPDEST PUSH1 0x40 MLOAD PUSH4 0x1FFC9A7 PUSH1 0xE0 SHL DUP2 MSTORE PUSH4 0x80AC58CD PUSH1 0xE0 SHL PUSH1 0x4 DUP3 ADD MSTORE DUP2 SWAP1 PUSH1 0x1 PUSH1 0x1 PUSH1 0xA0 SHL SUB DUP3 AND SWAP1 PUSH4 0x1FFC9A7 SWAP1 PUSH1 0x24 ADD PUSH1 0x20 PUSH1 0x40 MLOAD DUP1 DUP4 SUB DUP2 DUP7 GAS STATICCALL ISZERO DUP1 ISZERO PUSH2 0x11DC JUMPI RETURNDATASIZE PUSH1 0x0 DUP1 RETURNDATACOPY RETURNDATASIZE PUSH1 0x0 REVERT JUMPDEST POP POP POP POP PUSH1 0x40 MLOAD RETURNDATASIZE PUSH1 0x1F NOT PUSH1 0x1F DUP3 ADD AND DUP3 ADD DUP1 PUSH1 0x40 MSTORE POP DUP2 ADD SWAP1 PUSH2 0x1200 SWAP2 SWAP1 PUSH2 0x15F0 JUMP JUMPDEST PUSH2 0x126A JUMPI PUSH1 0x40 MLOAD PUSH3 0x461BCD PUSH1 0xE5 SHL DUP2 MSTORE PUSH1 0x20 PUSH1 0x4 DUP3 ADD MSTORE PUSH1 0x35 PUSH1 0x24 DUP3 ADD MSTORE PUSH32 0x546865204E465420636F6E74726163742068617320616E20696E76616C696420 PUSH1 0x44 DUP3 ADD MSTORE PUSH21 0x22A9219B99189034B6B83632B6B2B73A30BA34B7B7 PUSH1 0x59 SHL PUSH1 0x64 DUP3 ADD MSTORE PUSH1 0x84 ADD PUSH2 0x3E5 JUMP JUMPDEST POP POP JUMP JUMPDEST PUSH1 0x40 MLOAD DUP1 PUSH1 0xC0 ADD PUSH1 0x40 MSTORE DUP1 PUSH1 0x0 DUP2 MSTORE PUSH1 0x20 ADD PUSH1 0x0 PUSH1 0x1 PUSH1 0x1 PUSH1 0xA0 SHL SUB AND DUP2 MSTORE PUSH1 0x20 ADD PUSH1 0x0 DUP2 MSTORE PUSH1 0x20 ADD PUSH1 0x0 PUSH1 0x1 PUSH1 0x1 PUSH1 0xA0 SHL SUB AND DUP2 MSTORE PUSH1 0x20 ADD PUSH1 0x0 PUSH1 0x1 PUSH1 0x1 PUSH1 0xA0 SHL SUB AND DUP2 MSTORE PUSH1 0x20 ADD PUSH1 0x0 DUP2 MSTORE POP SWAP1 JUMP JUMPDEST DUP1 CALLDATALOAD PUSH1 0x1 PUSH1 0x1 PUSH1 0xA0 SHL SUB DUP2 AND DUP2 EQ PUSH2 0x12D6 JUMPI PUSH1 0x0 DUP1 REVERT JUMPDEST SWAP2 SWAP1 POP JUMP JUMPDEST PUSH1 0x0 PUSH1 0x20 DUP3 DUP5 SUB SLT ISZERO PUSH2 0x12ED JUMPI PUSH1 0x0 DUP1 REVERT JUMPDEST PUSH2 0x12F6 DUP3 PUSH2 0x12BF JUMP JUMPDEST SWAP4 SWAP3 POP POP POP JUMP JUMPDEST DUP1 MLOAD DUP3 MSTORE PUSH1 0x20 DUP2 ADD MLOAD PUSH1 0x1 DUP1 PUSH1 0xA0 SHL SUB DUP1 DUP3 AND PUSH1 0x20 DUP6 ADD MSTORE PUSH1 0x40 DUP4 ADD MLOAD PUSH1 0x40 DUP6 ADD MSTORE DUP1 PUSH1 0x60 DUP5 ADD MLOAD AND PUSH1 0x60 DUP6 ADD MSTORE DUP1 PUSH1 0x80 DUP5 ADD MLOAD AND PUSH1 0x80 DUP6 ADD MSTORE POP POP PUSH1 0xA0 DUP2 ADD MLOAD PUSH1 0xA0 DUP4 ADD MSTORE POP POP JUMP JUMPDEST PUSH1 0x20 DUP1 DUP3 MSTORE DUP3 MLOAD DUP3 DUP3 ADD DUP2 SWAP1 MSTORE PUSH1 0x0 SWAP2 SWAP1 DUP5 DUP3 ADD SWAP1 PUSH1 0x40 DUP6 ADD SWAP1 DUP5 JUMPDEST DUP2 DUP2 LT ISZERO PUSH2 0x1389 JUMPI PUSH2 0x1376 DUP4 DUP6 MLOAD PUSH2 0x12FD JUMP JUMPDEST SWAP3 DUP5 ADD SWAP3 PUSH1 0xC0 SWAP3 SWAP1 SWAP3 ADD SWAP2 PUSH1 0x1 ADD PUSH2 0x1363 JUMP JUMPDEST POP SWAP1 SWAP7 SWAP6 POP POP POP POP POP POP JUMP JUMPDEST PUSH1 0x0 PUSH1 0x20 DUP3 DUP5 SUB SLT ISZERO PUSH2 0x13A7 JUMPI PUSH1 0x0 DUP1 REVERT JUMPDEST POP CALLDATALOAD SWAP2 SWAP1 POP JUMP JUMPDEST PUSH1 0xC0 DUP2 ADD PUSH2 0x13BC DUP3 DUP5 PUSH2 0x12FD JUMP JUMPDEST SWAP3 SWAP2 POP POP JUMP JUMPDEST PUSH1 0x0 DUP1 PUSH1 0x0 PUSH1 0x60 DUP5 DUP7 SUB SLT ISZERO PUSH2 0x13D7 JUMPI PUSH1 0x0 DUP1 REVERT JUMPDEST PUSH2 0x13E0 DUP5 PUSH2 0x12BF JUMP JUMPDEST SWAP3 POP PUSH1 0x20 DUP5 ADD CALLDATALOAD SWAP2 POP PUSH2 0x13F5 PUSH1 0x40 DUP6 ADD PUSH2 0x12BF JUMP JUMPDEST SWAP1 POP SWAP3 POP SWAP3 POP SWAP3 JUMP JUMPDEST PUSH1 0x0 DUP1 PUSH1 0x0 PUSH1 0x60 DUP5 DUP7 SUB SLT ISZERO PUSH2 0x1413 JUMPI PUSH1 0x0 DUP1 REVERT JUMPDEST PUSH2 0x141C DUP5 PUSH2 0x12BF JUMP JUMPDEST SWAP6 PUSH1 0x20 DUP6 ADD CALLDATALOAD SWAP6 POP PUSH1 0x40 SWAP1 SWAP5 ADD CALLDATALOAD SWAP4 SWAP3 POP POP POP JUMP JUMPDEST PUSH1 0x0 DUP1 PUSH1 0x40 DUP4 DUP6 SUB SLT ISZERO PUSH2 0x1444 JUMPI PUSH1 0x0 DUP1 REVERT JUMPDEST PUSH2 0x144D DUP4 PUSH2 0x12BF JUMP JUMPDEST SWAP5 PUSH1 0x20 SWAP4 SWAP1 SWAP4 ADD CALLDATALOAD SWAP4 POP POP POP JUMP JUMPDEST PUSH4 0x4E487B71 PUSH1 0xE0 SHL PUSH1 0x0 MSTORE PUSH1 0x21 PUSH1 0x4 MSTORE PUSH1 0x24 PUSH1 0x0 REVERT JUMPDEST DUP7 DUP2 MSTORE PUSH1 0x1 PUSH1 0x1 PUSH1 0xA0 SHL SUB DUP7 DUP2 AND PUSH1 0x20 DUP4 ADD MSTORE DUP6 AND PUSH1 0x40 DUP3 ADD MSTORE PUSH1 0x60 DUP2 ADD DUP5 SWAP1 MSTORE PUSH1 0x80 DUP2 ADD DUP4 SWAP1 MSTORE PUSH1 0xC0 DUP2 ADD PUSH1 0x5 DUP4 LT PUSH2 0x14BB JUMPI PUSH4 0x4E487B71 PUSH1 0xE0 SHL PUSH1 0x0 MSTORE PUSH1 0x21 PUSH1 0x4 MSTORE PUSH1 0x24 PUSH1 0x0 REVERT JUMPDEST DUP3 PUSH1 0xA0 DUP4 ADD MSTORE SWAP8 SWAP7 POP POP POP POP POP POP POP JUMP JUMPDEST PUSH1 0x20 DUP1 DUP3 MSTORE DUP2 DUP2 ADD MSTORE PUSH32 0x4F776E61626C653A2063616C6C6572206973206E6F7420746865206F776E6572 PUSH1 0x40 DUP3 ADD MSTORE PUSH1 0x60 ADD SWAP1 JUMP JUMPDEST PUSH4 0x4E487B71 PUSH1 0xE0 SHL PUSH1 0x0 MSTORE PUSH1 0x11 PUSH1 0x4 MSTORE PUSH1 0x24 PUSH1 0x0 REVERT JUMPDEST PUSH1 0x0 DUP3 DUP3 LT ISZERO PUSH2 0x1529 JUMPI PUSH2 0x1529 PUSH2 0x1501 JUMP JUMPDEST POP SUB SWAP1 JUMP JUMPDEST PUSH4 0x4E487B71 PUSH1 0xE0 SHL PUSH1 0x0 MSTORE PUSH1 0x41 PUSH1 0x4 MSTORE PUSH1 0x24 PUSH1 0x0 REVERT JUMPDEST PUSH1 0x0 DUP3 NOT DUP3 GT ISZERO PUSH2 0x1557 JUMPI PUSH2 0x1557 PUSH2 0x1501 JUMP JUMPDEST POP ADD SWAP1 JUMP JUMPDEST PUSH4 0x4E487B71 PUSH1 0xE0 SHL PUSH1 0x0 MSTORE PUSH1 0x32 PUSH1 0x4 MSTORE PUSH1 0x24 PUSH1 0x0 REVERT JUMPDEST PUSH1 0x0 PUSH1 0x1 DUP3 ADD PUSH2 0x1584 JUMPI PUSH2 0x1584 PUSH2 0x1501 JUMP JUMPDEST POP PUSH1 0x1 ADD SWAP1 JUMP JUMPDEST PUSH1 0x1 PUSH1 0x1 PUSH1 0xA0 SHL SUB SWAP4 DUP5 AND DUP2 MSTORE SWAP2 SWAP1 SWAP3 AND PUSH1 0x20 DUP3 ADD MSTORE PUSH1 0x40 DUP2 ADD SWAP2 SWAP1 SWAP2 MSTORE PUSH1 0x60 ADD SWAP1 JUMP JUMPDEST PUSH1 0x0 DUP2 PUSH1 0x0 NOT DIV DUP4 GT DUP3 ISZERO ISZERO AND ISZERO PUSH2 0x15C9 JUMPI PUSH2 0x15C9 PUSH2 0x1501 JUMP JUMPDEST POP MUL SWAP1 JUMP JUMPDEST PUSH1 0x0 DUP3 PUSH2 0x15EB JUMPI PUSH4 0x4E487B71 PUSH1 0xE0 SHL PUSH1 0x0 MSTORE PUSH1 0x12 PUSH1 0x4 MSTORE PUSH1 0x24 PUSH1 0x0 REVERT JUMPDEST POP DIV SWAP1 JUMP JUMPDEST PUSH1 0x0 PUSH1 0x20 DUP3 DUP5 SUB SLT ISZERO PUSH2 0x1602 JUMPI PUSH1 0x0 DUP1 REVERT JUMPDEST DUP2 MLOAD DUP1 ISZERO ISZERO DUP2 EQ PUSH2 0x12F6 JUMPI PUSH1 0x0 DUP1 REVERT INVALID LOG2 PUSH5 0x6970667358 0x22 SLT KECCAK256 PUSH21 0x674D0AC4D818D00088599E83D7B46B5D2BD4343B26 PUSH2 0x7467 MLOAD LT 0xCC SELFBALANCE PUSH6 0xB91964736F6C PUSH4 0x4300080D STOP CALLER "
				},
				"gasEstimates": {
					"creation": {
						"codeDepositCost": "1140800",
						"executionCost": "49137",
						"totalCost": "1189937"
					},
					"external": {
						"ERC721_Interface()": "248",
						"antaFeePercent()": "2352",
						"antaToken()": "2426",
						"bnbFeePercent()": "2375",
						"buyItemBySQF(address,uint256,uint256)": "infinite",
						"createMarketItem(address,uint256,uint256)": "infinite",
						"createMarketSale(address,uint256)": "infinite",
						"fetchMarketItem(uint256)": "13713",
						"fetchMarketItems()": "infinite",
						"fetchMyNFTs()": "infinite",
						"getMarketItem(uint256)": "13689",
						"itemOffers(address,uint256,address)": "infinite",
						"items(address,uint256)": "13505",
						"owner()": "2387",
						"renounceOwnership()": "28140",
						"setSQFTOken(address)": "26735",
						"transferOwnership(address)": "28422"
					},
					"internal": {
						"_requireERC721(address)": "infinite",
						"isContract(address)": "infinite"
					}
				},
				"methodIdentifiers": {
					"ERC721_Interface()": "2b4c32be",
					"antaFeePercent()": "b7a60c7e",
					"antaToken()": "92fc79fa",
					"bnbFeePercent()": "85a8b36c",
					"buyItemBySQF(address,uint256,uint256)": "f01b52dc",
					"createMarketItem(address,uint256,uint256)": "58eb2df5",
					"createMarketSale(address,uint256)": "c23b139e",
					"fetchMarketItem(uint256)": "2a45b250",
					"fetchMarketItems()": "0f08efe0",
					"fetchMyNFTs()": "202e3740",
					"getMarketItem(uint256)": "c7be7a49",
					"itemOffers(address,uint256,address)": "49739678",
					"items(address,uint256)": "5c80a435",
					"owner()": "8da5cb5b",
					"renounceOwnership()": "715018a6",
					"setSQFTOken(address)": "0b5f1ab1",
					"transferOwnership(address)": "f2fde38b"
				}
			},
			"storageLayout": {
				"storage": [
					{
						"astId": 409,
						"contract": "contracts/Marketplace2/Marketplace.sol:NFTMarket",
						"label": "_status",
						"offset": 0,
						"slot": "0",
						"type": "t_uint256"
					},
					{
						"astId": 477,
						"contract": "contracts/Marketplace2/Marketplace.sol:NFTMarket",
						"label": "items",
						"offset": 0,
						"slot": "1",
						"type": "t_mapping(t_address,t_mapping(t_uint256,t_struct(Item)459_storage))"
					},
					{
						"astId": 486,
						"contract": "contracts/Marketplace2/Marketplace.sol:NFTMarket",
						"label": "itemOffers",
						"offset": 0,
						"slot": "2",
						"type": "t_mapping(t_address,t_mapping(t_uint256,t_mapping(t_address,t_struct(ItemOffer)464_storage)))"
					},
					{
						"astId": 489,
						"contract": "contracts/Marketplace2/Marketplace.sol:NFTMarket",
						"label": "antaToken",
						"offset": 0,
						"slot": "3",
						"type": "t_contract(IERC20)201"
					},
					{
						"astId": 491,
						"contract": "contracts/Marketplace2/Marketplace.sol:NFTMarket",
						"label": "bnbFeePercent",
						"offset": 20,
						"slot": "3",
						"type": "t_uint8"
					},
					{
						"astId": 493,
						"contract": "contracts/Marketplace2/Marketplace.sol:NFTMarket",
						"label": "antaFeePercent",
						"offset": 21,
						"slot": "3",
						"type": "t_uint8"
					},
					{
						"astId": 27,
						"contract": "contracts/Marketplace2/Marketplace.sol:NFTMarket",
						"label": "_owner",
						"offset": 0,
						"slot": "4",
						"type": "t_address"
					},
					{
						"astId": 563,
						"contract": "contracts/Marketplace2/Marketplace.sol:NFTMarket",
						"label": "_itemIds",
						"offset": 0,
						"slot": "5",
						"type": "t_struct(Counter)331_storage"
					},
					{
						"astId": 566,
						"contract": "contracts/Marketplace2/Marketplace.sol:NFTMarket",
						"label": "_itemsSold",
						"offset": 0,
						"slot": "6",
						"type": "t_struct(Counter)331_storage"
					},
					{
						"astId": 584,
						"contract": "contracts/Marketplace2/Marketplace.sol:NFTMarket",
						"label": "idToMarketItem",
						"offset": 0,
						"slot": "7",
						"type": "t_mapping(t_uint256,t_struct(MarketItem)579_storage)"
					}
				],
				"types": {
					"t_address": {
						"encoding": "inplace",
						"label": "address",
						"numberOfBytes": "20"
					},
					"t_address_payable": {
						"encoding": "inplace",
						"label": "address payable",
						"numberOfBytes": "20"
					},
					"t_bytes32": {
						"encoding": "inplace",
						"label": "bytes32",
						"numberOfBytes": "32"
					},
					"t_contract(IERC20)201": {
						"encoding": "inplace",
						"label": "contract IERC20",
						"numberOfBytes": "20"
					},
					"t_enum(ItemStatus)445": {
						"encoding": "inplace",
						"label": "enum MarketplaceStorage.ItemStatus",
						"numberOfBytes": "1"
					},
					"t_mapping(t_address,t_mapping(t_uint256,t_mapping(t_address,t_struct(ItemOffer)464_storage)))": {
						"encoding": "mapping",
						"key": "t_address",
						"label": "mapping(address => mapping(uint256 => mapping(address => struct MarketplaceStorage.ItemOffer)))",
						"numberOfBytes": "32",
						"value": "t_mapping(t_uint256,t_mapping(t_address,t_struct(ItemOffer)464_storage))"
					},
					"t_mapping(t_address,t_mapping(t_uint256,t_struct(Item)459_storage))": {
						"encoding": "mapping",
						"key": "t_address",
						"label": "mapping(address => mapping(uint256 => struct MarketplaceStorage.Item))",
						"numberOfBytes": "32",
						"value": "t_mapping(t_uint256,t_struct(Item)459_storage)"
					},
					"t_mapping(t_address,t_struct(ItemOffer)464_storage)": {
						"encoding": "mapping",
						"key": "t_address",
						"label": "mapping(address => struct MarketplaceStorage.ItemOffer)",
						"numberOfBytes": "32",
						"value": "t_struct(ItemOffer)464_storage"
					},
					"t_mapping(t_uint256,t_mapping(t_address,t_struct(ItemOffer)464_storage))": {
						"encoding": "mapping",
						"key": "t_uint256",
						"label": "mapping(uint256 => mapping(address => struct MarketplaceStorage.ItemOffer))",
						"numberOfBytes": "32",
						"value": "t_mapping(t_address,t_struct(ItemOffer)464_storage)"
					},
					"t_mapping(t_uint256,t_struct(Item)459_storage)": {
						"encoding": "mapping",
						"key": "t_uint256",
						"label": "mapping(uint256 => struct MarketplaceStorage.Item)",
						"numberOfBytes": "32",
						"value": "t_struct(Item)459_storage"
					},
					"t_mapping(t_uint256,t_struct(MarketItem)579_storage)": {
						"encoding": "mapping",
						"key": "t_uint256",
						"label": "mapping(uint256 => struct NFTMarket.MarketItem)",
						"numberOfBytes": "32",
						"value": "t_struct(MarketItem)579_storage"
					},
					"t_struct(Counter)331_storage": {
						"encoding": "inplace",
						"label": "struct Counters.Counter",
						"members": [
							{
								"astId": 330,
								"contract": "contracts/Marketplace2/Marketplace.sol:NFTMarket",
								"label": "_value",
								"offset": 0,
								"slot": "0",
								"type": "t_uint256"
							}
						],
						"numberOfBytes": "32"
					},
					"t_struct(Item)459_storage": {
						"encoding": "inplace",
						"label": "struct MarketplaceStorage.Item",
						"members": [
							{
								"astId": 447,
								"contract": "contracts/Marketplace2/Marketplace.sol:NFTMarket",
								"label": "id",
								"offset": 0,
								"slot": "0",
								"type": "t_bytes32"
							},
							{
								"astId": 449,
								"contract": "contracts/Marketplace2/Marketplace.sol:NFTMarket",
								"label": "seller",
								"offset": 0,
								"slot": "1",
								"type": "t_address"
							},
							{
								"astId": 451,
								"contract": "contracts/Marketplace2/Marketplace.sol:NFTMarket",
								"label": "nftAddress",
								"offset": 0,
								"slot": "2",
								"type": "t_address"
							},
							{
								"astId": 453,
								"contract": "contracts/Marketplace2/Marketplace.sol:NFTMarket",
								"label": "price",
								"offset": 0,
								"slot": "3",
								"type": "t_uint256"
							},
							{
								"astId": 455,
								"contract": "contracts/Marketplace2/Marketplace.sol:NFTMarket",
								"label": "priceAnta",
								"offset": 0,
								"slot": "4",
								"type": "t_uint256"
							},
							{
								"astId": 458,
								"contract": "contracts/Marketplace2/Marketplace.sol:NFTMarket",
								"label": "status",
								"offset": 0,
								"slot": "5",
								"type": "t_enum(ItemStatus)445"
							}
						],
						"numberOfBytes": "192"
					},
					"t_struct(ItemOffer)464_storage": {
						"encoding": "inplace",
						"label": "struct MarketplaceStorage.ItemOffer",
						"members": [
							{
								"astId": 461,
								"contract": "contracts/Marketplace2/Marketplace.sol:NFTMarket",
								"label": "id",
								"offset": 0,
								"slot": "0",
								"type": "t_bytes32"
							},
							{
								"astId": 463,
								"contract": "contracts/Marketplace2/Marketplace.sol:NFTMarket",
								"label": "offerPrice",
								"offset": 0,
								"slot": "1",
								"type": "t_uint256"
							}
						],
						"numberOfBytes": "64"
					},
					"t_struct(MarketItem)579_storage": {
						"encoding": "inplace",
						"label": "struct NFTMarket.MarketItem",
						"members": [
							{
								"astId": 568,
								"contract": "contracts/Marketplace2/Marketplace.sol:NFTMarket",
								"label": "itemId",
								"offset": 0,
								"slot": "0",
								"type": "t_uint256"
							},
							{
								"astId": 570,
								"contract": "contracts/Marketplace2/Marketplace.sol:NFTMarket",
								"label": "nftContract",
								"offset": 0,
								"slot": "1",
								"type": "t_address"
							},
							{
								"astId": 572,
								"contract": "contracts/Marketplace2/Marketplace.sol:NFTMarket",
								"label": "tokenId",
								"offset": 0,
								"slot": "2",
								"type": "t_uint256"
							},
							{
								"astId": 574,
								"contract": "contracts/Marketplace2/Marketplace.sol:NFTMarket",
								"label": "seller",
								"offset": 0,
								"slot": "3",
								"type": "t_address_payable"
							},
							{
								"astId": 576,
								"contract": "contracts/Marketplace2/Marketplace.sol:NFTMarket",
								"label": "owner",
								"offset": 0,
								"slot": "4",
								"type": "t_address_payable"
							},
							{
								"astId": 578,
								"contract": "contracts/Marketplace2/Marketplace.sol:NFTMarket",
								"label": "price",
								"offset": 0,
								"slot": "5",
								"type": "t_uint256"
							}
						],
						"numberOfBytes": "192"
					},
					"t_uint256": {
						"encoding": "inplace",
						"label": "uint256",
						"numberOfBytes": "32"
					},
					"t_uint8": {
						"encoding": "inplace",
						"label": "uint8",
						"numberOfBytes": "1"
					}
				}
			},
			"userdoc": {
				"kind": "user",
				"methods": {},
				"version": 1
			}
		}
	}
}