{
	"contracts/Marketplace2/Marketplace.sol": {
		"NFTMarket": {
			"abi": [
				{
					"inputs": [
						{
							"internalType": "address",
							"name": "_mainToken",
							"type": "address"
						},
						{
							"internalType": "address",
							"name": "_mainNFT",
							"type": "address"
						},
						{
							"internalType": "address",
							"name": "_mainFactory",
							"type": "address"
						}
					],
					"stateMutability": "nonpayable",
					"type": "constructor"
				},
				{
					"anonymous": false,
					"inputs": [
						{
							"indexed": false,
							"internalType": "bytes32",
							"name": "id",
							"type": "bytes32"
						},
						{
							"indexed": true,
							"internalType": "uint256",
							"name": "assetId",
							"type": "uint256"
						},
						{
							"indexed": true,
							"internalType": "address",
							"name": "seller",
							"type": "address"
						},
						{
							"indexed": false,
							"internalType": "address",
							"name": "nftAddress",
							"type": "address"
						},
						{
							"indexed": false,
							"internalType": "uint256",
							"name": "price",
							"type": "uint256"
						},
						{
							"indexed": false,
							"internalType": "uint8",
							"name": "feePercent",
							"type": "uint8"
						},
						{
							"indexed": false,
							"internalType": "uint256",
							"name": "fee",
							"type": "uint256"
						},
						{
							"indexed": true,
							"internalType": "address",
							"name": "buyer",
							"type": "address"
						},
						{
							"indexed": false,
							"internalType": "string",
							"name": "currency",
							"type": "string"
						},
						{
							"indexed": false,
							"internalType": "uint256",
							"name": "createdAt",
							"type": "uint256"
						}
					],
					"name": "BuyItemSuccessful",
					"type": "event"
				},
				{
					"anonymous": false,
					"inputs": [
						{
							"indexed": false,
							"internalType": "address",
							"name": "nftAddress",
							"type": "address"
						},
						{
							"indexed": false,
							"internalType": "uint256",
							"name": "id",
							"type": "uint256"
						},
						{
							"indexed": true,
							"internalType": "uint256",
							"name": "assetId",
							"type": "uint256"
						},
						{
							"indexed": true,
							"internalType": "address",
							"name": "delistBy",
							"type": "address"
						},
						{
							"indexed": false,
							"internalType": "uint256",
							"name": "createdAt",
							"type": "uint256"
						}
					],
					"name": "DelistItemSuccessful",
					"type": "event"
				},
				{
					"anonymous": false,
					"inputs": [
						{
							"indexed": true,
							"internalType": "uint256",
							"name": "itemId",
							"type": "uint256"
						},
						{
							"indexed": true,
							"internalType": "address",
							"name": "nftContract",
							"type": "address"
						},
						{
							"indexed": true,
							"internalType": "uint256",
							"name": "tokenId",
							"type": "uint256"
						},
						{
							"indexed": false,
							"internalType": "address",
							"name": "seller",
							"type": "address"
						},
						{
							"indexed": false,
							"internalType": "address",
							"name": "owner",
							"type": "address"
						},
						{
							"indexed": false,
							"internalType": "uint256",
							"name": "price",
							"type": "uint256"
						}
					],
					"name": "MarketItemCreated",
					"type": "event"
				},
				{
					"anonymous": false,
					"inputs": [
						{
							"indexed": true,
							"internalType": "address",
							"name": "previousOwner",
							"type": "address"
						},
						{
							"indexed": true,
							"internalType": "address",
							"name": "newOwner",
							"type": "address"
						}
					],
					"name": "OwnershipTransferred",
					"type": "event"
				},
				{
					"anonymous": false,
					"inputs": [
						{
							"indexed": false,
							"internalType": "address",
							"name": "nftAddress",
							"type": "address"
						},
						{
							"indexed": false,
							"internalType": "bytes32",
							"name": "id",
							"type": "bytes32"
						},
						{
							"indexed": true,
							"internalType": "uint256",
							"name": "assetId",
							"type": "uint256"
						},
						{
							"indexed": false,
							"internalType": "uint256",
							"name": "price",
							"type": "uint256"
						},
						{
							"indexed": true,
							"internalType": "address",
							"name": "seller",
							"type": "address"
						},
						{
							"indexed": false,
							"internalType": "string",
							"name": "currency",
							"type": "string"
						},
						{
							"indexed": false,
							"internalType": "uint256",
							"name": "createdAt",
							"type": "uint256"
						}
					],
					"name": "SellItemSuccessful",
					"type": "event"
				},
				{
					"inputs": [],
					"name": "ERC721_Interface",
					"outputs": [
						{
							"internalType": "bytes4",
							"name": "",
							"type": "bytes4"
						}
					],
					"stateMutability": "view",
					"type": "function"
				},
				{
					"inputs": [
						{
							"internalType": "uint256",
							"name": "",
							"type": "uint256"
						}
					],
					"name": "allItems",
					"outputs": [
						{
							"internalType": "uint256",
							"name": "itemId",
							"type": "uint256"
						},
						{
							"internalType": "address",
							"name": "nftContract",
							"type": "address"
						},
						{
							"internalType": "uint256",
							"name": "tokenId",
							"type": "uint256"
						},
						{
							"internalType": "address payable",
							"name": "seller",
							"type": "address"
						},
						{
							"internalType": "address payable",
							"name": "owner",
							"type": "address"
						},
						{
							"internalType": "uint256",
							"name": "price",
							"type": "uint256"
						},
						{
							"internalType": "enum MarketplaceStorage.ItemStatus",
							"name": "status",
							"type": "uint8"
						}
					],
					"stateMutability": "view",
					"type": "function"
				},
				{
					"inputs": [],
					"name": "allMarketItems",
					"outputs": [
						{
							"internalType": "uint256",
							"name": "itemId",
							"type": "uint256"
						},
						{
							"internalType": "address",
							"name": "nftContract",
							"type": "address"
						},
						{
							"internalType": "uint256",
							"name": "tokenId",
							"type": "uint256"
						},
						{
							"internalType": "address payable",
							"name": "seller",
							"type": "address"
						},
						{
							"internalType": "address payable",
							"name": "owner",
							"type": "address"
						},
						{
							"internalType": "uint256",
							"name": "price",
							"type": "uint256"
						},
						{
							"internalType": "enum MarketplaceStorage.ItemStatus",
							"name": "status",
							"type": "uint8"
						}
					],
					"stateMutability": "view",
					"type": "function"
				},
				{
					"inputs": [],
					"name": "antaFeePercent",
					"outputs": [
						{
							"internalType": "uint8",
							"name": "",
							"type": "uint8"
						}
					],
					"stateMutability": "view",
					"type": "function"
				},
				{
					"inputs": [],
					"name": "bnbFeePercent",
					"outputs": [
						{
							"internalType": "uint8",
							"name": "",
							"type": "uint8"
						}
					],
					"stateMutability": "view",
					"type": "function"
				},
				{
					"inputs": [
						{
							"internalType": "address",
							"name": "nftContract",
							"type": "address"
						},
						{
							"internalType": "uint256",
							"name": "tokenId",
							"type": "uint256"
						},
						{
							"internalType": "uint256",
							"name": "price",
							"type": "uint256"
						}
					],
					"name": "createMarketItem",
					"outputs": [],
					"stateMutability": "payable",
					"type": "function"
				},
				{
					"inputs": [
						{
							"internalType": "uint256",
							"name": "itemId",
							"type": "uint256"
						},
						{
							"internalType": "uint256",
							"name": "amount",
							"type": "uint256"
						}
					],
					"name": "createMarketSale",
					"outputs": [],
					"stateMutability": "nonpayable",
					"type": "function"
				},
				{
					"inputs": [
						{
							"internalType": "address",
							"name": "nftAddress",
							"type": "address"
						},
						{
							"internalType": "uint256",
							"name": "itemId",
							"type": "uint256"
						}
					],
					"name": "delistItem",
					"outputs": [],
					"stateMutability": "nonpayable",
					"type": "function"
				},
				{
					"inputs": [],
					"name": "factory",
					"outputs": [
						{
							"internalType": "contract IFactory",
							"name": "",
							"type": "address"
						}
					],
					"stateMutability": "view",
					"type": "function"
				},
				{
					"inputs": [
						{
							"internalType": "uint256",
							"name": "itemId",
							"type": "uint256"
						}
					],
					"name": "fetchMarketItem",
					"outputs": [
						{
							"components": [
								{
									"internalType": "uint256",
									"name": "itemId",
									"type": "uint256"
								},
								{
									"internalType": "address",
									"name": "nftContract",
									"type": "address"
								},
								{
									"internalType": "uint256",
									"name": "tokenId",
									"type": "uint256"
								},
								{
									"internalType": "address payable",
									"name": "seller",
									"type": "address"
								},
								{
									"internalType": "address payable",
									"name": "owner",
									"type": "address"
								},
								{
									"internalType": "uint256",
									"name": "price",
									"type": "uint256"
								},
								{
									"internalType": "enum MarketplaceStorage.ItemStatus",
									"name": "status",
									"type": "uint8"
								}
							],
							"internalType": "struct MarketplaceStorage.MarketItem",
							"name": "",
							"type": "tuple"
						}
					],
					"stateMutability": "view",
					"type": "function"
				},
				{
					"inputs": [],
					"name": "fetchMarketItems",
					"outputs": [
						{
							"components": [
								{
									"internalType": "uint256",
									"name": "itemId",
									"type": "uint256"
								},
								{
									"internalType": "address",
									"name": "nftContract",
									"type": "address"
								},
								{
									"internalType": "uint256",
									"name": "tokenId",
									"type": "uint256"
								},
								{
									"internalType": "address payable",
									"name": "seller",
									"type": "address"
								},
								{
									"internalType": "address payable",
									"name": "owner",
									"type": "address"
								},
								{
									"internalType": "uint256",
									"name": "price",
									"type": "uint256"
								},
								{
									"internalType": "enum MarketplaceStorage.ItemStatus",
									"name": "status",
									"type": "uint8"
								}
							],
							"internalType": "struct MarketplaceStorage.MarketItem",
							"name": "",
							"type": "tuple"
						}
					],
					"stateMutability": "view",
					"type": "function"
				},
				{
					"inputs": [],
					"name": "fetchMyNFTs",
					"outputs": [
						{
							"components": [
								{
									"internalType": "uint256",
									"name": "itemId",
									"type": "uint256"
								},
								{
									"internalType": "address",
									"name": "nftContract",
									"type": "address"
								},
								{
									"internalType": "uint256",
									"name": "tokenId",
									"type": "uint256"
								},
								{
									"internalType": "address payable",
									"name": "seller",
									"type": "address"
								},
								{
									"internalType": "address payable",
									"name": "owner",
									"type": "address"
								},
								{
									"internalType": "uint256",
									"name": "price",
									"type": "uint256"
								},
								{
									"internalType": "enum MarketplaceStorage.ItemStatus",
									"name": "status",
									"type": "uint8"
								}
							],
							"internalType": "struct MarketplaceStorage.MarketItem[]",
							"name": "",
							"type": "tuple[]"
						}
					],
					"stateMutability": "view",
					"type": "function"
				},
				{
					"inputs": [
						{
							"internalType": "uint256",
							"name": "marketItemId",
							"type": "uint256"
						}
					],
					"name": "getMarketItem",
					"outputs": [
						{
							"components": [
								{
									"internalType": "uint256",
									"name": "itemId",
									"type": "uint256"
								},
								{
									"internalType": "address",
									"name": "nftContract",
									"type": "address"
								},
								{
									"internalType": "uint256",
									"name": "tokenId",
									"type": "uint256"
								},
								{
									"internalType": "address payable",
									"name": "seller",
									"type": "address"
								},
								{
									"internalType": "address payable",
									"name": "owner",
									"type": "address"
								},
								{
									"internalType": "uint256",
									"name": "price",
									"type": "uint256"
								},
								{
									"internalType": "enum MarketplaceStorage.ItemStatus",
									"name": "status",
									"type": "uint8"
								}
							],
							"internalType": "struct MarketplaceStorage.MarketItem",
							"name": "",
							"type": "tuple"
						}
					],
					"stateMutability": "view",
					"type": "function"
				},
				{
					"inputs": [
						{
							"internalType": "address",
							"name": "",
							"type": "address"
						},
						{
							"internalType": "uint256",
							"name": "",
							"type": "uint256"
						}
					],
					"name": "items",
					"outputs": [
						{
							"internalType": "uint256",
							"name": "itemId",
							"type": "uint256"
						},
						{
							"internalType": "address",
							"name": "nftContract",
							"type": "address"
						},
						{
							"internalType": "uint256",
							"name": "tokenId",
							"type": "uint256"
						},
						{
							"internalType": "address payable",
							"name": "seller",
							"type": "address"
						},
						{
							"internalType": "address payable",
							"name": "owner",
							"type": "address"
						},
						{
							"internalType": "uint256",
							"name": "price",
							"type": "uint256"
						},
						{
							"internalType": "enum MarketplaceStorage.ItemStatus",
							"name": "status",
							"type": "uint8"
						}
					],
					"stateMutability": "view",
					"type": "function"
				},
				{
					"inputs": [],
					"name": "mainNFTs",
					"outputs": [
						{
							"internalType": "contract IERC721",
							"name": "",
							"type": "address"
						}
					],
					"stateMutability": "view",
					"type": "function"
				},
				{
					"inputs": [],
					"name": "mainToken",
					"outputs": [
						{
							"internalType": "contract IERC20",
							"name": "",
							"type": "address"
						}
					],
					"stateMutability": "view",
					"type": "function"
				},
				{
					"inputs": [],
					"name": "owner",
					"outputs": [
						{
							"internalType": "address",
							"name": "",
							"type": "address"
						}
					],
					"stateMutability": "view",
					"type": "function"
				},
				{
					"inputs": [],
					"name": "renounceOwnership",
					"outputs": [],
					"stateMutability": "nonpayable",
					"type": "function"
				},
				{
					"inputs": [
						{
							"internalType": "address",
							"name": "_address",
							"type": "address"
						}
					],
					"name": "setFactory",
					"outputs": [],
					"stateMutability": "nonpayable",
					"type": "function"
				},
				{
					"inputs": [
						{
							"internalType": "address",
							"name": "_address",
							"type": "address"
						}
					],
					"name": "setMainNFT",
					"outputs": [],
					"stateMutability": "nonpayable",
					"type": "function"
				},
				{
					"inputs": [
						{
							"internalType": "address",
							"name": "_address",
							"type": "address"
						}
					],
					"name": "setMainToken",
					"outputs": [],
					"stateMutability": "nonpayable",
					"type": "function"
				},
				{
					"inputs": [
						{
							"internalType": "address",
							"name": "newOwner",
							"type": "address"
						}
					],
					"name": "transferOwnership",
					"outputs": [],
					"stateMutability": "nonpayable",
					"type": "function"
				}
			],
			"devdoc": {
				"kind": "dev",
				"methods": {
					"owner()": {
						"details": "Returns the address of the current owner."
					},
					"renounceOwnership()": {
						"details": "Leaves the contract without owner. It will not be possible to call `onlyOwner` functions anymore. Can only be called by the current owner. NOTE: Renouncing ownership will leave the contract without an owner, thereby removing any functionality that is only available to the owner."
					},
					"transferOwnership(address)": {
						"details": "Transfers ownership of the contract to a new account (`newOwner`). Can only be called by the current owner."
					}
				},
				"version": 1
			},
			"evm": {
				"assembly": "    /* \"contracts/Marketplace2/Marketplace.sol\":17192:23986  contract NFTMarket is ReentrancyGuard,MarketplaceStorage, Ownable {... */\n  mstore(0x40, 0x80)\n    /* \"contracts/Marketplace2/Marketplace.sol\":17438:17632  constructor(address _mainToken, address _mainNFT, address _mainFactory ) {... */\n  callvalue\n  dup1\n  iszero\n  tag_1\n  jumpi\n  0x00\n  dup1\n  revert\ntag_1:\n  pop\n  mload(0x40)\n  sub(codesize, bytecodeSize)\n  dup1\n  bytecodeSize\n  dup4\n  codecopy\n  dup2\n  dup2\n  add\n  0x40\n  mstore\n  dup2\n  add\n  swap1\n  tag_2\n  swap2\n  swap1\n  tag_3\n  jump\t// in\ntag_2:\n    /* \"contracts/Marketplace2/Marketplace.sol\":14122:14123  1 */\n  0x01\n    /* \"contracts/Marketplace2/Marketplace.sol\":14227:14234  _status */\n  0x00\n    /* \"contracts/Marketplace2/Marketplace.sol\":14227:14249  _status = _NOT_ENTERED */\n  dup2\n  swap1\n  sstore\n  pop\n    /* \"contracts/Marketplace2/Marketplace.sol\":1561:1593  _transferOwnership(_msgSender()) */\n  tag_9\n    /* \"contracts/Marketplace2/Marketplace.sol\":1580:1592  _msgSender() */\n  tag_10\n    /* \"contracts/Marketplace2/Marketplace.sol\":1580:1590  _msgSender */\n  shl(0x20, tag_11)\n    /* \"contracts/Marketplace2/Marketplace.sol\":1580:1592  _msgSender() */\n  0x20\n  shr\n  jump\t// in\ntag_10:\n    /* \"contracts/Marketplace2/Marketplace.sol\":1561:1579  _transferOwnership */\n  shl(0x20, tag_12)\n    /* \"contracts/Marketplace2/Marketplace.sol\":1561:1593  _transferOwnership(_msgSender()) */\n  0x20\n  shr\n  jump\t// in\ntag_9:\n    /* \"contracts/Marketplace2/Marketplace.sol\":17538:17548  _mainToken */\n  dup3\n    /* \"contracts/Marketplace2/Marketplace.sol\":17519:17528  mainToken */\n  0x0a\n  0x00\n    /* \"contracts/Marketplace2/Marketplace.sol\":17519:17549  mainToken = IERC20(_mainToken) */\n  0x0100\n  exp\n  dup2\n  sload\n  dup2\n  0xffffffffffffffffffffffffffffffffffffffff\n  mul\n  not\n  and\n  swap1\n  dup4\n  0xffffffffffffffffffffffffffffffffffffffff\n  and\n  mul\n  or\n  swap1\n  sstore\n  pop\n    /* \"contracts/Marketplace2/Marketplace.sol\":17576:17584  _mainNFT */\n  dup2\n    /* \"contracts/Marketplace2/Marketplace.sol\":17557:17565  mainNFTs */\n  0x0c\n  0x00\n    /* \"contracts/Marketplace2/Marketplace.sol\":17557:17585  mainNFTs = IERC721(_mainNFT) */\n  0x0100\n  exp\n  dup2\n  sload\n  dup2\n  0xffffffffffffffffffffffffffffffffffffffff\n  mul\n  not\n  and\n  swap1\n  dup4\n  0xffffffffffffffffffffffffffffffffffffffff\n  and\n  mul\n  or\n  swap1\n  sstore\n  pop\n    /* \"contracts/Marketplace2/Marketplace.sol\":17612:17624  _mainFactory */\n  dup1\n    /* \"contracts/Marketplace2/Marketplace.sol\":17593:17600  factory */\n  0x0b\n  0x00\n    /* \"contracts/Marketplace2/Marketplace.sol\":17593:17625  factory = IFactory(_mainFactory) */\n  0x0100\n  exp\n  dup2\n  sload\n  dup2\n  0xffffffffffffffffffffffffffffffffffffffff\n  mul\n  not\n  and\n  swap1\n  dup4\n  0xffffffffffffffffffffffffffffffffffffffff\n  and\n  mul\n  or\n  swap1\n  sstore\n  pop\n    /* \"contracts/Marketplace2/Marketplace.sol\":17438:17632  constructor(address _mainToken, address _mainNFT, address _mainFactory ) {... */\n  pop\n  pop\n  pop\n    /* \"contracts/Marketplace2/Marketplace.sol\":17192:23986  contract NFTMarket is ReentrancyGuard,MarketplaceStorage, Ownable {... */\n  jump(tag_14)\n    /* \"contracts/Marketplace2/Marketplace.sol\":554:650  function _msgSender() internal view virtual returns (address) {... */\ntag_11:\n    /* \"contracts/Marketplace2/Marketplace.sol\":607:614  address */\n  0x00\n    /* \"contracts/Marketplace2/Marketplace.sol\":633:643  msg.sender */\n  caller\n    /* \"contracts/Marketplace2/Marketplace.sol\":626:643  return msg.sender */\n  swap1\n  pop\n    /* \"contracts/Marketplace2/Marketplace.sol\":554:650  function _msgSender() internal view virtual returns (address) {... */\n  swap1\n  jump\t// out\n    /* \"contracts/Marketplace2/Marketplace.sol\":2910:3097  function _transferOwnership(address newOwner) internal virtual {... */\ntag_12:\n    /* \"contracts/Marketplace2/Marketplace.sol\":2983:2999  address oldOwner */\n  0x00\n    /* \"contracts/Marketplace2/Marketplace.sol\":3002:3008  _owner */\n  0x0d\n  0x00\n  swap1\n  sload\n  swap1\n  0x0100\n  exp\n  swap1\n  div\n  0xffffffffffffffffffffffffffffffffffffffff\n  and\n    /* \"contracts/Marketplace2/Marketplace.sol\":2983:3008  address oldOwner = _owner */\n  swap1\n  pop\n    /* \"contracts/Marketplace2/Marketplace.sol\":3027:3035  newOwner */\n  dup2\n    /* \"contracts/Marketplace2/Marketplace.sol\":3018:3024  _owner */\n  0x0d\n  0x00\n    /* \"contracts/Marketplace2/Marketplace.sol\":3018:3035  _owner = newOwner */\n  0x0100\n  exp\n  dup2\n  sload\n  dup2\n  0xffffffffffffffffffffffffffffffffffffffff\n  mul\n  not\n  and\n  swap1\n  dup4\n  0xffffffffffffffffffffffffffffffffffffffff\n  and\n  mul\n  or\n  swap1\n  sstore\n  pop\n    /* \"contracts/Marketplace2/Marketplace.sol\":3081:3089  newOwner */\n  dup2\n    /* \"contracts/Marketplace2/Marketplace.sol\":3050:3090  OwnershipTransferred(oldOwner, newOwner) */\n  0xffffffffffffffffffffffffffffffffffffffff\n  and\n    /* \"contracts/Marketplace2/Marketplace.sol\":3071:3079  oldOwner */\n  dup2\n    /* \"contracts/Marketplace2/Marketplace.sol\":3050:3090  OwnershipTransferred(oldOwner, newOwner) */\n  0xffffffffffffffffffffffffffffffffffffffff\n  and\n  0x8be0079c531659141344cd1fd0a4f28419497f9722a3daafe3b4186f6b6457e0\n  mload(0x40)\n  mload(0x40)\n  dup1\n  swap2\n  sub\n  swap1\n  log3\n    /* \"contracts/Marketplace2/Marketplace.sol\":2973:3097  {... */\n  pop\n    /* \"contracts/Marketplace2/Marketplace.sol\":2910:3097  function _transferOwnership(address newOwner) internal virtual {... */\n  pop\n  jump\t// out\n    /* \"#utility.yul\":88:205   */\ntag_18:\n    /* \"#utility.yul\":197:198   */\n  0x00\n    /* \"#utility.yul\":194:195   */\n  dup1\n    /* \"#utility.yul\":187:199   */\n  revert\n    /* \"#utility.yul\":334:460   */\ntag_20:\n    /* \"#utility.yul\":371:378   */\n  0x00\n    /* \"#utility.yul\":411:453   */\n  0xffffffffffffffffffffffffffffffffffffffff\n    /* \"#utility.yul\":404:409   */\n  dup3\n    /* \"#utility.yul\":400:454   */\n  and\n    /* \"#utility.yul\":389:454   */\n  swap1\n  pop\n    /* \"#utility.yul\":334:460   */\n  swap2\n  swap1\n  pop\n  jump\t// out\n    /* \"#utility.yul\":466:562   */\ntag_21:\n    /* \"#utility.yul\":503:510   */\n  0x00\n    /* \"#utility.yul\":532:556   */\n  tag_30\n    /* \"#utility.yul\":550:555   */\n  dup3\n    /* \"#utility.yul\":532:556   */\n  tag_20\n  jump\t// in\ntag_30:\n    /* \"#utility.yul\":521:556   */\n  swap1\n  pop\n    /* \"#utility.yul\":466:562   */\n  swap2\n  swap1\n  pop\n  jump\t// out\n    /* \"#utility.yul\":568:690   */\ntag_22:\n    /* \"#utility.yul\":641:665   */\n  tag_32\n    /* \"#utility.yul\":659:664   */\n  dup2\n    /* \"#utility.yul\":641:665   */\n  tag_21\n  jump\t// in\ntag_32:\n    /* \"#utility.yul\":634:639   */\n  dup2\n    /* \"#utility.yul\":631:666   */\n  eq\n    /* \"#utility.yul\":621:684   */\n  tag_33\n  jumpi\n    /* \"#utility.yul\":680:681   */\n  0x00\n    /* \"#utility.yul\":677:678   */\n  dup1\n    /* \"#utility.yul\":670:682   */\n  revert\n    /* \"#utility.yul\":621:684   */\ntag_33:\n    /* \"#utility.yul\":568:690   */\n  pop\n  jump\t// out\n    /* \"#utility.yul\":696:839   */\ntag_23:\n    /* \"#utility.yul\":753:758   */\n  0x00\n    /* \"#utility.yul\":784:790   */\n  dup2\n    /* \"#utility.yul\":778:791   */\n  mload\n    /* \"#utility.yul\":769:791   */\n  swap1\n  pop\n    /* \"#utility.yul\":800:833   */\n  tag_35\n    /* \"#utility.yul\":827:832   */\n  dup2\n    /* \"#utility.yul\":800:833   */\n  tag_22\n  jump\t// in\ntag_35:\n    /* \"#utility.yul\":696:839   */\n  swap3\n  swap2\n  pop\n  pop\n  jump\t// out\n    /* \"#utility.yul\":845:1508   */\ntag_3:\n    /* \"#utility.yul\":933:939   */\n  0x00\n    /* \"#utility.yul\":941:947   */\n  dup1\n    /* \"#utility.yul\":949:955   */\n  0x00\n    /* \"#utility.yul\":998:1000   */\n  0x60\n    /* \"#utility.yul\":986:995   */\n  dup5\n    /* \"#utility.yul\":977:984   */\n  dup7\n    /* \"#utility.yul\":973:996   */\n  sub\n    /* \"#utility.yul\":969:1001   */\n  slt\n    /* \"#utility.yul\":966:1085   */\n  iszero\n  tag_37\n  jumpi\n    /* \"#utility.yul\":1004:1083   */\n  tag_38\n  tag_18\n  jump\t// in\ntag_38:\n    /* \"#utility.yul\":966:1085   */\ntag_37:\n    /* \"#utility.yul\":1124:1125   */\n  0x00\n    /* \"#utility.yul\":1149:1213   */\n  tag_39\n    /* \"#utility.yul\":1205:1212   */\n  dup7\n    /* \"#utility.yul\":1196:1202   */\n  dup3\n    /* \"#utility.yul\":1185:1194   */\n  dup8\n    /* \"#utility.yul\":1181:1203   */\n  add\n    /* \"#utility.yul\":1149:1213   */\n  tag_23\n  jump\t// in\ntag_39:\n    /* \"#utility.yul\":1139:1213   */\n  swap4\n  pop\n    /* \"#utility.yul\":1095:1223   */\n  pop\n    /* \"#utility.yul\":1262:1264   */\n  0x20\n    /* \"#utility.yul\":1288:1352   */\n  tag_40\n    /* \"#utility.yul\":1344:1351   */\n  dup7\n    /* \"#utility.yul\":1335:1341   */\n  dup3\n    /* \"#utility.yul\":1324:1333   */\n  dup8\n    /* \"#utility.yul\":1320:1342   */\n  add\n    /* \"#utility.yul\":1288:1352   */\n  tag_23\n  jump\t// in\ntag_40:\n    /* \"#utility.yul\":1278:1352   */\n  swap3\n  pop\n    /* \"#utility.yul\":1233:1362   */\n  pop\n    /* \"#utility.yul\":1401:1403   */\n  0x40\n    /* \"#utility.yul\":1427:1491   */\n  tag_41\n    /* \"#utility.yul\":1483:1490   */\n  dup7\n    /* \"#utility.yul\":1474:1480   */\n  dup3\n    /* \"#utility.yul\":1463:1472   */\n  dup8\n    /* \"#utility.yul\":1459:1481   */\n  add\n    /* \"#utility.yul\":1427:1491   */\n  tag_23\n  jump\t// in\ntag_41:\n    /* \"#utility.yul\":1417:1491   */\n  swap2\n  pop\n    /* \"#utility.yul\":1372:1501   */\n  pop\n    /* \"#utility.yul\":845:1508   */\n  swap3\n  pop\n  swap3\n  pop\n  swap3\n  jump\t// out\n    /* \"contracts/Marketplace2/Marketplace.sol\":17192:23986  contract NFTMarket is ReentrancyGuard,MarketplaceStorage, Ownable {... */\ntag_14:\n  dataSize(sub_0)\n  dup1\n  dataOffset(sub_0)\n  0x00\n  codecopy\n  0x00\n  return\nstop\n\nsub_0: assembly {\n        /* \"contracts/Marketplace2/Marketplace.sol\":17192:23986  contract NFTMarket is ReentrancyGuard,MarketplaceStorage, Ownable {... */\n      mstore(0x40, 0x80)\n      jumpi(tag_1, lt(calldatasize, 0x04))\n      shr(0xe0, calldataload(0x00))\n      dup1\n      0x715018a6\n      gt\n      tag_24\n      jumpi\n      dup1\n      0xb7a60c7e\n      gt\n      tag_25\n      jumpi\n      dup1\n      0xb7a60c7e\n      eq\n      tag_18\n      jumpi\n      dup1\n      0xc45a0155\n      eq\n      tag_19\n      jumpi\n      dup1\n      0xc7be7a49\n      eq\n      tag_20\n      jumpi\n      dup1\n      0xf2fde38b\n      eq\n      tag_21\n      jumpi\n      dup1\n      0xf55de0c7\n      eq\n      tag_22\n      jumpi\n      dup1\n      0xff68fa6e\n      eq\n      tag_23\n      jumpi\n      jump(tag_1)\n    tag_25:\n      dup1\n      0x715018a6\n      eq\n      tag_13\n      jumpi\n      dup1\n      0x85a8b36c\n      eq\n      tag_14\n      jumpi\n      dup1\n      0x8da5cb5b\n      eq\n      tag_15\n      jumpi\n      dup1\n      0xa1c11ca8\n      eq\n      tag_16\n      jumpi\n      dup1\n      0xad9a0369\n      eq\n      tag_17\n      jumpi\n      jump(tag_1)\n    tag_24:\n      dup1\n      0x2b4c32be\n      gt\n      tag_26\n      jumpi\n      dup1\n      0x2b4c32be\n      eq\n      tag_7\n      jumpi\n      dup1\n      0x3fc15f15\n      eq\n      tag_8\n      jumpi\n      dup1\n      0x517bd451\n      eq\n      tag_9\n      jumpi\n      dup1\n      0x58eb2df5\n      eq\n      tag_10\n      jumpi\n      dup1\n      0x5bb47808\n      eq\n      tag_11\n      jumpi\n      dup1\n      0x5c80a435\n      eq\n      tag_12\n      jumpi\n      jump(tag_1)\n    tag_26:\n      dup1\n      0x0f08efe0\n      eq\n      tag_2\n      jumpi\n      dup1\n      0x15b12494\n      eq\n      tag_3\n      jumpi\n      dup1\n      0x202e3740\n      eq\n      tag_4\n      jumpi\n      dup1\n      0x27ce464e\n      eq\n      tag_5\n      jumpi\n      dup1\n      0x2a45b250\n      eq\n      tag_6\n      jumpi\n    tag_1:\n      0x00\n      dup1\n      revert\n        /* \"contracts/Marketplace2/Marketplace.sol\":19611:19711  function fetchMarketItems() public view returns (MarketItem memory) {... */\n    tag_2:\n      callvalue\n      dup1\n      iszero\n      tag_27\n      jumpi\n      0x00\n      dup1\n      revert\n    tag_27:\n      pop\n      tag_28\n      tag_29\n      jump\t// in\n    tag_28:\n      mload(0x40)\n      tag_30\n      swap2\n      swap1\n      tag_31\n      jump\t// in\n    tag_30:\n      mload(0x40)\n      dup1\n      swap2\n      sub\n      swap1\n      return\n        /* \"contracts/Marketplace2/Marketplace.sol\":17890:17992  function setMainNFT(address _address) external onlyOwner {... */\n    tag_3:\n      callvalue\n      dup1\n      iszero\n      tag_32\n      jumpi\n      0x00\n      dup1\n      revert\n    tag_32:\n      pop\n      tag_33\n      0x04\n      dup1\n      calldatasize\n      sub\n      dup2\n      add\n      swap1\n      tag_34\n      swap2\n      swap1\n      tag_35\n      jump\t// in\n    tag_34:\n      tag_36\n      jump\t// in\n    tag_33:\n      stop\n        /* \"contracts/Marketplace2/Marketplace.sol\":19715:20418  function fetchMyNFTs() public view returns (MarketItem[] memory) {... */\n    tag_4:\n      callvalue\n      dup1\n      iszero\n      tag_37\n      jumpi\n      0x00\n      dup1\n      revert\n    tag_37:\n      pop\n      tag_38\n      tag_39\n      jump\t// in\n    tag_38:\n      mload(0x40)\n      tag_40\n      swap2\n      swap1\n      tag_41\n      jump\t// in\n    tag_40:\n      mload(0x40)\n      dup1\n      swap2\n      sub\n      swap1\n      return\n        /* \"contracts/Marketplace2/Marketplace.sol\":17781:17885  function setMainToken(address _address) external onlyOwner {... */\n    tag_5:\n      callvalue\n      dup1\n      iszero\n      tag_42\n      jumpi\n      0x00\n      dup1\n      revert\n    tag_42:\n      pop\n      tag_43\n      0x04\n      dup1\n      calldatasize\n      sub\n      dup2\n      add\n      swap1\n      tag_44\n      swap2\n      swap1\n      tag_35\n      jump\t// in\n    tag_44:\n      tag_45\n      jump\t// in\n    tag_43:\n      stop\n        /* \"contracts/Marketplace2/Marketplace.sol\":19454:19607  function fetchMarketItem(uint itemId) public view returns (MarketItem memory) {... */\n    tag_6:\n      callvalue\n      dup1\n      iszero\n      tag_46\n      jumpi\n      0x00\n      dup1\n      revert\n    tag_46:\n      pop\n      tag_47\n      0x04\n      dup1\n      calldatasize\n      sub\n      dup2\n      add\n      swap1\n      tag_48\n      swap2\n      swap1\n      tag_49\n      jump\t// in\n    tag_48:\n      tag_50\n      jump\t// in\n    tag_47:\n      mload(0x40)\n      tag_51\n      swap2\n      swap1\n      tag_31\n      jump\t// in\n    tag_51:\n      mload(0x40)\n      dup1\n      swap2\n      sub\n      swap1\n      return\n        /* \"contracts/Marketplace2/Marketplace.sol\":15861:15921  bytes4 public constant ERC721_Interface = bytes4(0x80ac58cd) */\n    tag_7:\n      callvalue\n      dup1\n      iszero\n      tag_52\n      jumpi\n      0x00\n      dup1\n      revert\n    tag_52:\n      pop\n      tag_53\n      tag_54\n      jump\t// in\n    tag_53:\n      mload(0x40)\n      tag_55\n      swap2\n      swap1\n      tag_56\n      jump\t// in\n    tag_55:\n      mload(0x40)\n      dup1\n      swap2\n      sub\n      swap1\n      return\n        /* \"contracts/Marketplace2/Marketplace.sol\":16122:16145  IERC20 public mainToken */\n    tag_8:\n      callvalue\n      dup1\n      iszero\n      tag_57\n      jumpi\n      0x00\n      dup1\n      revert\n    tag_57:\n      pop\n      tag_58\n      tag_59\n      jump\t// in\n    tag_58:\n      mload(0x40)\n      tag_60\n      swap2\n      swap1\n      tag_61\n      jump\t// in\n    tag_60:\n      mload(0x40)\n      dup1\n      swap2\n      sub\n      swap1\n      return\n        /* \"contracts/Marketplace2/Marketplace.sol\":15822:15854  MarketItem public allMarketItems */\n    tag_9:\n      callvalue\n      dup1\n      iszero\n      tag_62\n      jumpi\n      0x00\n      dup1\n      revert\n    tag_62:\n      pop\n      tag_63\n      tag_64\n      jump\t// in\n    tag_63:\n      mload(0x40)\n      tag_65\n      swap8\n      swap7\n      swap6\n      swap5\n      swap4\n      swap3\n      swap2\n      swap1\n      tag_66\n      jump\t// in\n    tag_65:\n      mload(0x40)\n      dup1\n      swap2\n      sub\n      swap1\n      return\n        /* \"contracts/Marketplace2/Marketplace.sol\":18103:18811  function createMarketItem(... */\n    tag_10:\n      tag_67\n      0x04\n      dup1\n      calldatasize\n      sub\n      dup2\n      add\n      swap1\n      tag_68\n      swap2\n      swap1\n      tag_69\n      jump\t// in\n    tag_68:\n      tag_70\n      jump\t// in\n    tag_67:\n      stop\n        /* \"contracts/Marketplace2/Marketplace.sol\":17997:18099  function setFactory(address _address) external onlyOwner {... */\n    tag_11:\n      callvalue\n      dup1\n      iszero\n      tag_71\n      jumpi\n      0x00\n      dup1\n      revert\n    tag_71:\n      pop\n      tag_72\n      0x04\n      dup1\n      calldatasize\n      sub\n      dup2\n      add\n      swap1\n      tag_73\n      swap2\n      swap1\n      tag_35\n      jump\t// in\n    tag_73:\n      tag_74\n      jump\t// in\n    tag_72:\n      stop\n        /* \"contracts/Marketplace2/Marketplace.sol\":16052:16115  mapping(address => mapping(uint256 => MarketItem)) public items */\n    tag_12:\n      callvalue\n      dup1\n      iszero\n      tag_75\n      jumpi\n      0x00\n      dup1\n      revert\n    tag_75:\n      pop\n      tag_76\n      0x04\n      dup1\n      calldatasize\n      sub\n      dup2\n      add\n      swap1\n      tag_77\n      swap2\n      swap1\n      tag_78\n      jump\t// in\n    tag_77:\n      tag_79\n      jump\t// in\n    tag_76:\n      mload(0x40)\n      tag_80\n      swap8\n      swap7\n      swap6\n      swap5\n      swap4\n      swap3\n      swap2\n      swap1\n      tag_66\n      jump\t// in\n    tag_80:\n      mload(0x40)\n      dup1\n      swap2\n      sub\n      swap1\n      return\n        /* \"contracts/Marketplace2/Marketplace.sol\":2308:2409  function renounceOwnership() public virtual onlyOwner {... */\n    tag_13:\n      callvalue\n      dup1\n      iszero\n      tag_81\n      jumpi\n      0x00\n      dup1\n      revert\n    tag_81:\n      pop\n      tag_82\n      tag_83\n      jump\t// in\n    tag_82:\n      stop\n        /* \"contracts/Marketplace2/Marketplace.sol\":16210:16236  uint8 public bnbFeePercent */\n    tag_14:\n      callvalue\n      dup1\n      iszero\n      tag_84\n      jumpi\n      0x00\n      dup1\n      revert\n    tag_84:\n      pop\n      tag_85\n      tag_86\n      jump\t// in\n    tag_85:\n      mload(0x40)\n      tag_87\n      swap2\n      swap1\n      tag_88\n      jump\t// in\n    tag_87:\n      mload(0x40)\n      dup1\n      swap2\n      sub\n      swap1\n      return\n        /* \"contracts/Marketplace2/Marketplace.sol\":1676:1761  function owner() public view virtual returns (address) {... */\n    tag_15:\n      callvalue\n      dup1\n      iszero\n      tag_89\n      jumpi\n      0x00\n      dup1\n      revert\n    tag_89:\n      pop\n      tag_90\n      tag_91\n      jump\t// in\n    tag_90:\n      mload(0x40)\n      tag_92\n      swap2\n      swap1\n      tag_93\n      jump\t// in\n    tag_92:\n      mload(0x40)\n      dup1\n      swap2\n      sub\n      swap1\n      return\n        /* \"contracts/Marketplace2/Marketplace.sol\":18815:19450  function createMarketSale(... */\n    tag_16:\n      callvalue\n      dup1\n      iszero\n      tag_94\n      jumpi\n      0x00\n      dup1\n      revert\n    tag_94:\n      pop\n      tag_95\n      0x04\n      dup1\n      calldatasize\n      sub\n      dup2\n      add\n      swap1\n      tag_96\n      swap2\n      swap1\n      tag_97\n      jump\t// in\n    tag_96:\n      tag_98\n      jump\t// in\n    tag_95:\n      stop\n        /* \"contracts/Marketplace2/Marketplace.sol\":20422:21314  function delistItem(address nftAddress, uint256 itemId) public {... */\n    tag_17:\n      callvalue\n      dup1\n      iszero\n      tag_99\n      jumpi\n      0x00\n      dup1\n      revert\n    tag_99:\n      pop\n      tag_100\n      0x04\n      dup1\n      calldatasize\n      sub\n      dup2\n      add\n      swap1\n      tag_101\n      swap2\n      swap1\n      tag_78\n      jump\t// in\n    tag_101:\n      tag_102\n      jump\t// in\n    tag_100:\n      stop\n        /* \"contracts/Marketplace2/Marketplace.sol\":16242:16269  uint8 public antaFeePercent */\n    tag_18:\n      callvalue\n      dup1\n      iszero\n      tag_103\n      jumpi\n      0x00\n      dup1\n      revert\n    tag_103:\n      pop\n      tag_104\n      tag_105\n      jump\t// in\n    tag_104:\n      mload(0x40)\n      tag_106\n      swap2\n      swap1\n      tag_88\n      jump\t// in\n    tag_106:\n      mload(0x40)\n      dup1\n      swap2\n      sub\n      swap1\n      return\n        /* \"contracts/Marketplace2/Marketplace.sol\":16151:16174  IFactory public factory */\n    tag_19:\n      callvalue\n      dup1\n      iszero\n      tag_107\n      jumpi\n      0x00\n      dup1\n      revert\n    tag_107:\n      pop\n      tag_108\n      tag_109\n      jump\t// in\n    tag_108:\n      mload(0x40)\n      tag_110\n      swap2\n      swap1\n      tag_111\n      jump\t// in\n    tag_110:\n      mload(0x40)\n      dup1\n      swap2\n      sub\n      swap1\n      return\n        /* \"contracts/Marketplace2/Marketplace.sol\":17638:17775  function getMarketItem(uint256 marketItemId) public view returns (MarketItem memory) {... */\n    tag_20:\n      callvalue\n      dup1\n      iszero\n      tag_112\n      jumpi\n      0x00\n      dup1\n      revert\n    tag_112:\n      pop\n      tag_113\n      0x04\n      dup1\n      calldatasize\n      sub\n      dup2\n      add\n      swap1\n      tag_114\n      swap2\n      swap1\n      tag_49\n      jump\t// in\n    tag_114:\n      tag_115\n      jump\t// in\n    tag_113:\n      mload(0x40)\n      tag_116\n      swap2\n      swap1\n      tag_31\n      jump\t// in\n    tag_116:\n      mload(0x40)\n      dup1\n      swap2\n      sub\n      swap1\n      return\n        /* \"contracts/Marketplace2/Marketplace.sol\":2558:2756  function transferOwnership(address newOwner) public virtual onlyOwner {... */\n    tag_21:\n      callvalue\n      dup1\n      iszero\n      tag_117\n      jumpi\n      0x00\n      dup1\n      revert\n    tag_117:\n      pop\n      tag_118\n      0x04\n      dup1\n      calldatasize\n      sub\n      dup2\n      add\n      swap1\n      tag_119\n      swap2\n      swap1\n      tag_35\n      jump\t// in\n    tag_119:\n      tag_120\n      jump\t// in\n    tag_118:\n      stop\n        /* \"contracts/Marketplace2/Marketplace.sol\":16180:16203  IERC721 public mainNFTs */\n    tag_22:\n      callvalue\n      dup1\n      iszero\n      tag_121\n      jumpi\n      0x00\n      dup1\n      revert\n    tag_121:\n      pop\n      tag_122\n      tag_123\n      jump\t// in\n    tag_122:\n      mload(0x40)\n      tag_124\n      swap2\n      swap1\n      tag_125\n      jump\t// in\n    tag_124:\n      mload(0x40)\n      dup1\n      swap2\n      sub\n      swap1\n      return\n        /* \"contracts/Marketplace2/Marketplace.sol\":15928:15975  mapping (uint256 => MarketItem) public allItems */\n    tag_23:\n      callvalue\n      dup1\n      iszero\n      tag_126\n      jumpi\n      0x00\n      dup1\n      revert\n    tag_126:\n      pop\n      tag_127\n      0x04\n      dup1\n      calldatasize\n      sub\n      dup2\n      add\n      swap1\n      tag_128\n      swap2\n      swap1\n      tag_49\n      jump\t// in\n    tag_128:\n      tag_129\n      jump\t// in\n    tag_127:\n      mload(0x40)\n      tag_130\n      swap8\n      swap7\n      swap6\n      swap5\n      swap4\n      swap3\n      swap2\n      swap1\n      tag_66\n      jump\t// in\n    tag_130:\n      mload(0x40)\n      dup1\n      swap2\n      sub\n      swap1\n      return\n        /* \"contracts/Marketplace2/Marketplace.sol\":19611:19711  function fetchMarketItems() public view returns (MarketItem memory) {... */\n    tag_29:\n        /* \"contracts/Marketplace2/Marketplace.sol\":19660:19677  MarketItem memory */\n      tag_131\n      tag_132\n      jump\t// in\n    tag_131:\n        /* \"contracts/Marketplace2/Marketplace.sol\":19692:19706  allMarketItems */\n      0x01\n        /* \"contracts/Marketplace2/Marketplace.sol\":19685:19706  return allMarketItems */\n      mload(0x40)\n      dup1\n      0xe0\n      add\n      0x40\n      mstore\n      swap1\n      dup2\n      0x00\n      dup3\n      add\n      sload\n      dup2\n      mstore\n      0x20\n      add\n      0x01\n      dup3\n      add\n      0x00\n      swap1\n      sload\n      swap1\n      0x0100\n      exp\n      swap1\n      div\n      0xffffffffffffffffffffffffffffffffffffffff\n      and\n      0xffffffffffffffffffffffffffffffffffffffff\n      and\n      0xffffffffffffffffffffffffffffffffffffffff\n      and\n      dup2\n      mstore\n      0x20\n      add\n      0x02\n      dup3\n      add\n      sload\n      dup2\n      mstore\n      0x20\n      add\n      0x03\n      dup3\n      add\n      0x00\n      swap1\n      sload\n      swap1\n      0x0100\n      exp\n      swap1\n      div\n      0xffffffffffffffffffffffffffffffffffffffff\n      and\n      0xffffffffffffffffffffffffffffffffffffffff\n      and\n      0xffffffffffffffffffffffffffffffffffffffff\n      and\n      dup2\n      mstore\n      0x20\n      add\n      0x04\n      dup3\n      add\n      0x00\n      swap1\n      sload\n      swap1\n      0x0100\n      exp\n      swap1\n      div\n      0xffffffffffffffffffffffffffffffffffffffff\n      and\n      0xffffffffffffffffffffffffffffffffffffffff\n      and\n      0xffffffffffffffffffffffffffffffffffffffff\n      and\n      dup2\n      mstore\n      0x20\n      add\n      0x05\n      dup3\n      add\n      sload\n      dup2\n      mstore\n      0x20\n      add\n      0x06\n      dup3\n      add\n      0x00\n      swap1\n      sload\n      swap1\n      0x0100\n      exp\n      swap1\n      div\n      0xff\n      and\n      0x01\n      dup2\n      gt\n      iszero\n      tag_134\n      jumpi\n      tag_135\n      tag_136\n      jump\t// in\n    tag_135:\n    tag_134:\n      0x01\n      dup2\n      gt\n      iszero\n      tag_137\n      jumpi\n      tag_138\n      tag_136\n      jump\t// in\n    tag_138:\n    tag_137:\n      dup2\n      mstore\n      pop\n      pop\n      swap1\n      pop\n        /* \"contracts/Marketplace2/Marketplace.sol\":19611:19711  function fetchMarketItems() public view returns (MarketItem memory) {... */\n      swap1\n      jump\t// out\n        /* \"contracts/Marketplace2/Marketplace.sol\":17890:17992  function setMainNFT(address _address) external onlyOwner {... */\n    tag_36:\n        /* \"contracts/Marketplace2/Marketplace.sol\":1899:1911  _msgSender() */\n      tag_140\n        /* \"contracts/Marketplace2/Marketplace.sol\":1899:1909  _msgSender */\n      tag_141\n        /* \"contracts/Marketplace2/Marketplace.sol\":1899:1911  _msgSender() */\n      jump\t// in\n    tag_140:\n        /* \"contracts/Marketplace2/Marketplace.sol\":1888:1911  owner() == _msgSender() */\n      0xffffffffffffffffffffffffffffffffffffffff\n      and\n        /* \"contracts/Marketplace2/Marketplace.sol\":1888:1895  owner() */\n      tag_142\n        /* \"contracts/Marketplace2/Marketplace.sol\":1888:1893  owner */\n      tag_91\n        /* \"contracts/Marketplace2/Marketplace.sol\":1888:1895  owner() */\n      jump\t// in\n    tag_142:\n        /* \"contracts/Marketplace2/Marketplace.sol\":1888:1911  owner() == _msgSender() */\n      0xffffffffffffffffffffffffffffffffffffffff\n      and\n      eq\n        /* \"contracts/Marketplace2/Marketplace.sol\":1880:1948  require(owner() == _msgSender(), \"Ownable: caller is not the owner\") */\n      tag_143\n      jumpi\n      mload(0x40)\n      0x08c379a000000000000000000000000000000000000000000000000000000000\n      dup2\n      mstore\n      0x04\n      add\n      tag_144\n      swap1\n      tag_145\n      jump\t// in\n    tag_144:\n      mload(0x40)\n      dup1\n      swap2\n      sub\n      swap1\n      revert\n    tag_143:\n        /* \"contracts/Marketplace2/Marketplace.sol\":17976:17984  _address */\n      dup1\n        /* \"contracts/Marketplace2/Marketplace.sol\":17957:17965  mainNFTs */\n      0x0c\n      0x00\n        /* \"contracts/Marketplace2/Marketplace.sol\":17957:17985  mainNFTs = IERC721(_address) */\n      0x0100\n      exp\n      dup2\n      sload\n      dup2\n      0xffffffffffffffffffffffffffffffffffffffff\n      mul\n      not\n      and\n      swap1\n      dup4\n      0xffffffffffffffffffffffffffffffffffffffff\n      and\n      mul\n      or\n      swap1\n      sstore\n      pop\n        /* \"contracts/Marketplace2/Marketplace.sol\":17890:17992  function setMainNFT(address _address) external onlyOwner {... */\n      pop\n      jump\t// out\n        /* \"contracts/Marketplace2/Marketplace.sol\":19715:20418  function fetchMyNFTs() public view returns (MarketItem[] memory) {... */\n    tag_39:\n        /* \"contracts/Marketplace2/Marketplace.sol\":19759:19778  MarketItem[] memory */\n      0x60\n        /* \"contracts/Marketplace2/Marketplace.sol\":19786:19805  uint totalItemCount */\n      0x00\n        /* \"contracts/Marketplace2/Marketplace.sol\":19808:19826  _itemIds.current() */\n      tag_148\n        /* \"contracts/Marketplace2/Marketplace.sol\":19808:19816  _itemIds */\n      0x0e\n        /* \"contracts/Marketplace2/Marketplace.sol\":19808:19824  _itemIds.current */\n      tag_149\n        /* \"contracts/Marketplace2/Marketplace.sol\":19808:19826  _itemIds.current() */\n      jump\t// in\n    tag_148:\n        /* \"contracts/Marketplace2/Marketplace.sol\":19786:19826  uint totalItemCount = _itemIds.current() */\n      swap1\n      pop\n        /* \"contracts/Marketplace2/Marketplace.sol\":19832:19846  uint itemCount */\n      0x00\n        /* \"contracts/Marketplace2/Marketplace.sol\":19856:19873  uint currentIndex */\n      dup1\n        /* \"contracts/Marketplace2/Marketplace.sol\":19889:19895  uint i */\n      0x00\n        /* \"contracts/Marketplace2/Marketplace.sol\":19884:20020  for (uint i = 0; i < totalItemCount; i++) {... */\n    tag_150:\n        /* \"contracts/Marketplace2/Marketplace.sol\":19905:19919  totalItemCount */\n      dup4\n        /* \"contracts/Marketplace2/Marketplace.sol\":19901:19902  i */\n      dup2\n        /* \"contracts/Marketplace2/Marketplace.sol\":19901:19919  i < totalItemCount */\n      lt\n        /* \"contracts/Marketplace2/Marketplace.sol\":19884:20020  for (uint i = 0; i < totalItemCount; i++) {... */\n      iszero\n      tag_151\n      jumpi\n        /* \"contracts/Marketplace2/Marketplace.sol\":19969:19979  msg.sender */\n      caller\n        /* \"contracts/Marketplace2/Marketplace.sol\":19938:19979  idToMarketItem[i + 1].owner == msg.sender */\n      0xffffffffffffffffffffffffffffffffffffffff\n      and\n        /* \"contracts/Marketplace2/Marketplace.sol\":19938:19952  idToMarketItem */\n      0x10\n        /* \"contracts/Marketplace2/Marketplace.sol\":19938:19959  idToMarketItem[i + 1] */\n      0x00\n        /* \"contracts/Marketplace2/Marketplace.sol\":19957:19958  1 */\n      0x01\n        /* \"contracts/Marketplace2/Marketplace.sol\":19953:19954  i */\n      dup5\n        /* \"contracts/Marketplace2/Marketplace.sol\":19953:19958  i + 1 */\n      tag_153\n      swap2\n      swap1\n      tag_154\n      jump\t// in\n    tag_153:\n        /* \"contracts/Marketplace2/Marketplace.sol\":19938:19959  idToMarketItem[i + 1] */\n      dup2\n      mstore\n      0x20\n      add\n      swap1\n      dup2\n      mstore\n      0x20\n      add\n      0x00\n      keccak256\n        /* \"contracts/Marketplace2/Marketplace.sol\":19938:19965  idToMarketItem[i + 1].owner */\n      0x04\n      add\n      0x00\n      swap1\n      sload\n      swap1\n      0x0100\n      exp\n      swap1\n      div\n      0xffffffffffffffffffffffffffffffffffffffff\n      and\n        /* \"contracts/Marketplace2/Marketplace.sol\":19938:19979  idToMarketItem[i + 1].owner == msg.sender */\n      0xffffffffffffffffffffffffffffffffffffffff\n      and\n      sub\n        /* \"contracts/Marketplace2/Marketplace.sol\":19934:20014  if (idToMarketItem[i + 1].owner == msg.sender) {... */\n      tag_155\n      jumpi\n        /* \"contracts/Marketplace2/Marketplace.sol\":20004:20005  1 */\n      0x01\n        /* \"contracts/Marketplace2/Marketplace.sol\":19991:20005  itemCount += 1 */\n      dup4\n      tag_156\n      swap2\n      swap1\n      tag_154\n      jump\t// in\n    tag_156:\n      swap3\n      pop\n        /* \"contracts/Marketplace2/Marketplace.sol\":19934:20014  if (idToMarketItem[i + 1].owner == msg.sender) {... */\n    tag_155:\n        /* \"contracts/Marketplace2/Marketplace.sol\":19921:19924  i++ */\n      dup1\n      dup1\n      tag_157\n      swap1\n      tag_158\n      jump\t// in\n    tag_157:\n      swap2\n      pop\n      pop\n        /* \"contracts/Marketplace2/Marketplace.sol\":19884:20020  for (uint i = 0; i < totalItemCount; i++) {... */\n      jump(tag_150)\n    tag_151:\n      pop\n        /* \"contracts/Marketplace2/Marketplace.sol\":20026:20051  MarketItem[] memory items */\n      0x00\n        /* \"contracts/Marketplace2/Marketplace.sol\":20071:20080  itemCount */\n      dup3\n        /* \"contracts/Marketplace2/Marketplace.sol\":20054:20081  new MarketItem[](itemCount) */\n      0xffffffffffffffff\n      dup2\n      gt\n      iszero\n      tag_159\n      jumpi\n      tag_160\n      tag_161\n      jump\t// in\n    tag_160:\n    tag_159:\n      mload(0x40)\n      swap1\n      dup1\n      dup3\n      mstore\n      dup1\n      0x20\n      mul\n      0x20\n      add\n      dup3\n      add\n      0x40\n      mstore\n      dup1\n      iszero\n      tag_162\n      jumpi\n      dup2\n      0x20\n      add\n    tag_163:\n      tag_164\n      tag_132\n      jump\t// in\n    tag_164:\n      dup2\n      mstore\n      0x20\n      add\n      swap1\n      0x01\n      swap1\n      sub\n      swap1\n      dup2\n      tag_163\n      jumpi\n      swap1\n      pop\n    tag_162:\n      pop\n        /* \"contracts/Marketplace2/Marketplace.sol\":20026:20081  MarketItem[] memory items = new MarketItem[](itemCount) */\n      swap1\n      pop\n        /* \"contracts/Marketplace2/Marketplace.sol\":20092:20098  uint i */\n      0x00\n        /* \"contracts/Marketplace2/Marketplace.sol\":20087:20392  for (uint i = 0; i < totalItemCount; i++) {... */\n    tag_165:\n        /* \"contracts/Marketplace2/Marketplace.sol\":20108:20122  totalItemCount */\n      dup5\n        /* \"contracts/Marketplace2/Marketplace.sol\":20104:20105  i */\n      dup2\n        /* \"contracts/Marketplace2/Marketplace.sol\":20104:20122  i < totalItemCount */\n      lt\n        /* \"contracts/Marketplace2/Marketplace.sol\":20087:20392  for (uint i = 0; i < totalItemCount; i++) {... */\n      iszero\n      tag_166\n      jumpi\n        /* \"contracts/Marketplace2/Marketplace.sol\":20172:20182  msg.sender */\n      caller\n        /* \"contracts/Marketplace2/Marketplace.sol\":20141:20182  idToMarketItem[i + 1].owner == msg.sender */\n      0xffffffffffffffffffffffffffffffffffffffff\n      and\n        /* \"contracts/Marketplace2/Marketplace.sol\":20141:20155  idToMarketItem */\n      0x10\n        /* \"contracts/Marketplace2/Marketplace.sol\":20141:20162  idToMarketItem[i + 1] */\n      0x00\n        /* \"contracts/Marketplace2/Marketplace.sol\":20160:20161  1 */\n      0x01\n        /* \"contracts/Marketplace2/Marketplace.sol\":20156:20157  i */\n      dup5\n        /* \"contracts/Marketplace2/Marketplace.sol\":20156:20161  i + 1 */\n      tag_168\n      swap2\n      swap1\n      tag_154\n      jump\t// in\n    tag_168:\n        /* \"contracts/Marketplace2/Marketplace.sol\":20141:20162  idToMarketItem[i + 1] */\n      dup2\n      mstore\n      0x20\n      add\n      swap1\n      dup2\n      mstore\n      0x20\n      add\n      0x00\n      keccak256\n        /* \"contracts/Marketplace2/Marketplace.sol\":20141:20168  idToMarketItem[i + 1].owner */\n      0x04\n      add\n      0x00\n      swap1\n      sload\n      swap1\n      0x0100\n      exp\n      swap1\n      div\n      0xffffffffffffffffffffffffffffffffffffffff\n      and\n        /* \"contracts/Marketplace2/Marketplace.sol\":20141:20182  idToMarketItem[i + 1].owner == msg.sender */\n      0xffffffffffffffffffffffffffffffffffffffff\n      and\n      sub\n        /* \"contracts/Marketplace2/Marketplace.sol\":20137:20386  if (idToMarketItem[i + 1].owner == msg.sender) {... */\n      tag_169\n      jumpi\n        /* \"contracts/Marketplace2/Marketplace.sol\":20194:20208  uint currentId */\n      0x00\n        /* \"contracts/Marketplace2/Marketplace.sol\":20211:20225  idToMarketItem */\n      0x10\n        /* \"contracts/Marketplace2/Marketplace.sol\":20211:20232  idToMarketItem[i + 1] */\n      0x00\n        /* \"contracts/Marketplace2/Marketplace.sol\":20230:20231  1 */\n      0x01\n        /* \"contracts/Marketplace2/Marketplace.sol\":20226:20227  i */\n      dup5\n        /* \"contracts/Marketplace2/Marketplace.sol\":20226:20231  i + 1 */\n      tag_170\n      swap2\n      swap1\n      tag_154\n      jump\t// in\n    tag_170:\n        /* \"contracts/Marketplace2/Marketplace.sol\":20211:20232  idToMarketItem[i + 1] */\n      dup2\n      mstore\n      0x20\n      add\n      swap1\n      dup2\n      mstore\n      0x20\n      add\n      0x00\n      keccak256\n        /* \"contracts/Marketplace2/Marketplace.sol\":20211:20239  idToMarketItem[i + 1].itemId */\n      0x00\n      add\n      sload\n        /* \"contracts/Marketplace2/Marketplace.sol\":20194:20239  uint currentId = idToMarketItem[i + 1].itemId */\n      swap1\n      pop\n        /* \"contracts/Marketplace2/Marketplace.sol\":20249:20279  MarketItem storage currentItem */\n      0x00\n        /* \"contracts/Marketplace2/Marketplace.sol\":20282:20296  idToMarketItem */\n      0x10\n        /* \"contracts/Marketplace2/Marketplace.sol\":20282:20307  idToMarketItem[currentId] */\n      0x00\n        /* \"contracts/Marketplace2/Marketplace.sol\":20297:20306  currentId */\n      dup4\n        /* \"contracts/Marketplace2/Marketplace.sol\":20282:20307  idToMarketItem[currentId] */\n      dup2\n      mstore\n      0x20\n      add\n      swap1\n      dup2\n      mstore\n      0x20\n      add\n      0x00\n      keccak256\n        /* \"contracts/Marketplace2/Marketplace.sol\":20249:20307  MarketItem storage currentItem = idToMarketItem[currentId] */\n      swap1\n      pop\n        /* \"contracts/Marketplace2/Marketplace.sol\":20339:20350  currentItem */\n      dup1\n        /* \"contracts/Marketplace2/Marketplace.sol\":20317:20350  items[currentIndex] = currentItem */\n      mload(0x40)\n      dup1\n      0xe0\n      add\n      0x40\n      mstore\n      swap1\n      dup2\n      0x00\n      dup3\n      add\n      sload\n      dup2\n      mstore\n      0x20\n      add\n      0x01\n      dup3\n      add\n      0x00\n      swap1\n      sload\n      swap1\n      0x0100\n      exp\n      swap1\n      div\n      0xffffffffffffffffffffffffffffffffffffffff\n      and\n      0xffffffffffffffffffffffffffffffffffffffff\n      and\n      0xffffffffffffffffffffffffffffffffffffffff\n      and\n      dup2\n      mstore\n      0x20\n      add\n      0x02\n      dup3\n      add\n      sload\n      dup2\n      mstore\n      0x20\n      add\n      0x03\n      dup3\n      add\n      0x00\n      swap1\n      sload\n      swap1\n      0x0100\n      exp\n      swap1\n      div\n      0xffffffffffffffffffffffffffffffffffffffff\n      and\n      0xffffffffffffffffffffffffffffffffffffffff\n      and\n      0xffffffffffffffffffffffffffffffffffffffff\n      and\n      dup2\n      mstore\n      0x20\n      add\n      0x04\n      dup3\n      add\n      0x00\n      swap1\n      sload\n      swap1\n      0x0100\n      exp\n      swap1\n      div\n      0xffffffffffffffffffffffffffffffffffffffff\n      and\n      0xffffffffffffffffffffffffffffffffffffffff\n      and\n      0xffffffffffffffffffffffffffffffffffffffff\n      and\n      dup2\n      mstore\n      0x20\n      add\n      0x05\n      dup3\n      add\n      sload\n      dup2\n      mstore\n      0x20\n      add\n      0x06\n      dup3\n      add\n      0x00\n      swap1\n      sload\n      swap1\n      0x0100\n      exp\n      swap1\n      div\n      0xff\n      and\n      0x01\n      dup2\n      gt\n      iszero\n      tag_171\n      jumpi\n      tag_172\n      tag_136\n      jump\t// in\n    tag_172:\n    tag_171:\n      0x01\n      dup2\n      gt\n      iszero\n      tag_173\n      jumpi\n      tag_174\n      tag_136\n      jump\t// in\n    tag_174:\n    tag_173:\n      dup2\n      mstore\n      pop\n      pop\n        /* \"contracts/Marketplace2/Marketplace.sol\":20317:20322  items */\n      dup5\n        /* \"contracts/Marketplace2/Marketplace.sol\":20323:20335  currentIndex */\n      dup7\n        /* \"contracts/Marketplace2/Marketplace.sol\":20317:20336  items[currentIndex] */\n      dup2\n      mload\n      dup2\n      lt\n      tag_175\n      jumpi\n      tag_176\n      tag_177\n      jump\t// in\n    tag_176:\n    tag_175:\n      0x20\n      mul\n      0x20\n      add\n      add\n        /* \"contracts/Marketplace2/Marketplace.sol\":20317:20350  items[currentIndex] = currentItem */\n      dup2\n      swap1\n      mstore\n      pop\n        /* \"contracts/Marketplace2/Marketplace.sol\":20376:20377  1 */\n      0x01\n        /* \"contracts/Marketplace2/Marketplace.sol\":20360:20377  currentIndex += 1 */\n      dup6\n      tag_178\n      swap2\n      swap1\n      tag_154\n      jump\t// in\n    tag_178:\n      swap5\n      pop\n        /* \"contracts/Marketplace2/Marketplace.sol\":20184:20386  {... */\n      pop\n      pop\n        /* \"contracts/Marketplace2/Marketplace.sol\":20137:20386  if (idToMarketItem[i + 1].owner == msg.sender) {... */\n    tag_169:\n        /* \"contracts/Marketplace2/Marketplace.sol\":20124:20127  i++ */\n      dup1\n      dup1\n      tag_179\n      swap1\n      tag_158\n      jump\t// in\n    tag_179:\n      swap2\n      pop\n      pop\n        /* \"contracts/Marketplace2/Marketplace.sol\":20087:20392  for (uint i = 0; i < totalItemCount; i++) {... */\n      jump(tag_165)\n    tag_166:\n      pop\n        /* \"contracts/Marketplace2/Marketplace.sol\":20408:20413  items */\n      dup1\n        /* \"contracts/Marketplace2/Marketplace.sol\":20401:20413  return items */\n      swap5\n      pop\n      pop\n      pop\n      pop\n      pop\n        /* \"contracts/Marketplace2/Marketplace.sol\":19715:20418  function fetchMyNFTs() public view returns (MarketItem[] memory) {... */\n      swap1\n      jump\t// out\n        /* \"contracts/Marketplace2/Marketplace.sol\":17781:17885  function setMainToken(address _address) external onlyOwner {... */\n    tag_45:\n        /* \"contracts/Marketplace2/Marketplace.sol\":1899:1911  _msgSender() */\n      tag_181\n        /* \"contracts/Marketplace2/Marketplace.sol\":1899:1909  _msgSender */\n      tag_141\n        /* \"contracts/Marketplace2/Marketplace.sol\":1899:1911  _msgSender() */\n      jump\t// in\n    tag_181:\n        /* \"contracts/Marketplace2/Marketplace.sol\":1888:1911  owner() == _msgSender() */\n      0xffffffffffffffffffffffffffffffffffffffff\n      and\n        /* \"contracts/Marketplace2/Marketplace.sol\":1888:1895  owner() */\n      tag_182\n        /* \"contracts/Marketplace2/Marketplace.sol\":1888:1893  owner */\n      tag_91\n        /* \"contracts/Marketplace2/Marketplace.sol\":1888:1895  owner() */\n      jump\t// in\n    tag_182:\n        /* \"contracts/Marketplace2/Marketplace.sol\":1888:1911  owner() == _msgSender() */\n      0xffffffffffffffffffffffffffffffffffffffff\n      and\n      eq\n        /* \"contracts/Marketplace2/Marketplace.sol\":1880:1948  require(owner() == _msgSender(), \"Ownable: caller is not the owner\") */\n      tag_183\n      jumpi\n      mload(0x40)\n      0x08c379a000000000000000000000000000000000000000000000000000000000\n      dup2\n      mstore\n      0x04\n      add\n      tag_184\n      swap1\n      tag_145\n      jump\t// in\n    tag_184:\n      mload(0x40)\n      dup1\n      swap2\n      sub\n      swap1\n      revert\n    tag_183:\n        /* \"contracts/Marketplace2/Marketplace.sol\":17869:17877  _address */\n      dup1\n        /* \"contracts/Marketplace2/Marketplace.sol\":17850:17859  mainToken */\n      0x0a\n      0x00\n        /* \"contracts/Marketplace2/Marketplace.sol\":17850:17878  mainToken = IERC20(_address) */\n      0x0100\n      exp\n      dup2\n      sload\n      dup2\n      0xffffffffffffffffffffffffffffffffffffffff\n      mul\n      not\n      and\n      swap1\n      dup4\n      0xffffffffffffffffffffffffffffffffffffffff\n      and\n      mul\n      or\n      swap1\n      sstore\n      pop\n        /* \"contracts/Marketplace2/Marketplace.sol\":17781:17885  function setMainToken(address _address) external onlyOwner {... */\n      pop\n      jump\t// out\n        /* \"contracts/Marketplace2/Marketplace.sol\":19454:19607  function fetchMarketItem(uint itemId) public view returns (MarketItem memory) {... */\n    tag_50:\n        /* \"contracts/Marketplace2/Marketplace.sol\":19513:19530  MarketItem memory */\n      tag_186\n      tag_132\n      jump\t// in\n    tag_186:\n        /* \"contracts/Marketplace2/Marketplace.sol\":19538:19560  MarketItem memory item */\n      0x00\n        /* \"contracts/Marketplace2/Marketplace.sol\":19563:19577  idToMarketItem */\n      0x10\n        /* \"contracts/Marketplace2/Marketplace.sol\":19563:19585  idToMarketItem[itemId] */\n      0x00\n        /* \"contracts/Marketplace2/Marketplace.sol\":19578:19584  itemId */\n      dup5\n        /* \"contracts/Marketplace2/Marketplace.sol\":19563:19585  idToMarketItem[itemId] */\n      dup2\n      mstore\n      0x20\n      add\n      swap1\n      dup2\n      mstore\n      0x20\n      add\n      0x00\n      keccak256\n        /* \"contracts/Marketplace2/Marketplace.sol\":19538:19585  MarketItem memory item = idToMarketItem[itemId] */\n      mload(0x40)\n      dup1\n      0xe0\n      add\n      0x40\n      mstore\n      swap1\n      dup2\n      0x00\n      dup3\n      add\n      sload\n      dup2\n      mstore\n      0x20\n      add\n      0x01\n      dup3\n      add\n      0x00\n      swap1\n      sload\n      swap1\n      0x0100\n      exp\n      swap1\n      div\n      0xffffffffffffffffffffffffffffffffffffffff\n      and\n      0xffffffffffffffffffffffffffffffffffffffff\n      and\n      0xffffffffffffffffffffffffffffffffffffffff\n      and\n      dup2\n      mstore\n      0x20\n      add\n      0x02\n      dup3\n      add\n      sload\n      dup2\n      mstore\n      0x20\n      add\n      0x03\n      dup3\n      add\n      0x00\n      swap1\n      sload\n      swap1\n      0x0100\n      exp\n      swap1\n      div\n      0xffffffffffffffffffffffffffffffffffffffff\n      and\n      0xffffffffffffffffffffffffffffffffffffffff\n      and\n      0xffffffffffffffffffffffffffffffffffffffff\n      and\n      dup2\n      mstore\n      0x20\n      add\n      0x04\n      dup3\n      add\n      0x00\n      swap1\n      sload\n      swap1\n      0x0100\n      exp\n      swap1\n      div\n      0xffffffffffffffffffffffffffffffffffffffff\n      and\n      0xffffffffffffffffffffffffffffffffffffffff\n      and\n      0xffffffffffffffffffffffffffffffffffffffff\n      and\n      dup2\n      mstore\n      0x20\n      add\n      0x05\n      dup3\n      add\n      sload\n      dup2\n      mstore\n      0x20\n      add\n      0x06\n      dup3\n      add\n      0x00\n      swap1\n      sload\n      swap1\n      0x0100\n      exp\n      swap1\n      div\n      0xff\n      and\n      0x01\n      dup2\n      gt\n      iszero\n      tag_188\n      jumpi\n      tag_189\n      tag_136\n      jump\t// in\n    tag_189:\n    tag_188:\n      0x01\n      dup2\n      gt\n      iszero\n      tag_190\n      jumpi\n      tag_191\n      tag_136\n      jump\t// in\n    tag_191:\n    tag_190:\n      dup2\n      mstore\n      pop\n      pop\n      swap1\n      pop\n        /* \"contracts/Marketplace2/Marketplace.sol\":19598:19602  item */\n      dup1\n        /* \"contracts/Marketplace2/Marketplace.sol\":19591:19602  return item */\n      swap2\n      pop\n      pop\n        /* \"contracts/Marketplace2/Marketplace.sol\":19454:19607  function fetchMarketItem(uint itemId) public view returns (MarketItem memory) {... */\n      swap2\n      swap1\n      pop\n      jump\t// out\n        /* \"contracts/Marketplace2/Marketplace.sol\":15861:15921  bytes4 public constant ERC721_Interface = bytes4(0x80ac58cd) */\n    tag_54:\n        /* \"contracts/Marketplace2/Marketplace.sol\":15910:15920  0x80ac58cd */\n      0x80ac58cd\n        /* \"contracts/Marketplace2/Marketplace.sol\":15903:15921  bytes4(0x80ac58cd) */\n      0xe0\n      shl\n        /* \"contracts/Marketplace2/Marketplace.sol\":15861:15921  bytes4 public constant ERC721_Interface = bytes4(0x80ac58cd) */\n      dup2\n      jump\t// out\n        /* \"contracts/Marketplace2/Marketplace.sol\":16122:16145  IERC20 public mainToken */\n    tag_59:\n      0x0a\n      0x00\n      swap1\n      sload\n      swap1\n      0x0100\n      exp\n      swap1\n      div\n      0xffffffffffffffffffffffffffffffffffffffff\n      and\n      dup2\n      jump\t// out\n        /* \"contracts/Marketplace2/Marketplace.sol\":15822:15854  MarketItem public allMarketItems */\n    tag_64:\n      0x01\n      dup1\n      0x00\n      add\n      sload\n      swap1\n      dup1\n      0x01\n      add\n      0x00\n      swap1\n      sload\n      swap1\n      0x0100\n      exp\n      swap1\n      div\n      0xffffffffffffffffffffffffffffffffffffffff\n      and\n      swap1\n      dup1\n      0x02\n      add\n      sload\n      swap1\n      dup1\n      0x03\n      add\n      0x00\n      swap1\n      sload\n      swap1\n      0x0100\n      exp\n      swap1\n      div\n      0xffffffffffffffffffffffffffffffffffffffff\n      and\n      swap1\n      dup1\n      0x04\n      add\n      0x00\n      swap1\n      sload\n      swap1\n      0x0100\n      exp\n      swap1\n      div\n      0xffffffffffffffffffffffffffffffffffffffff\n      and\n      swap1\n      dup1\n      0x05\n      add\n      sload\n      swap1\n      dup1\n      0x06\n      add\n      0x00\n      swap1\n      sload\n      swap1\n      0x0100\n      exp\n      swap1\n      div\n      0xff\n      and\n      swap1\n      pop\n      dup8\n      jump\t// out\n        /* \"contracts/Marketplace2/Marketplace.sol\":18103:18811  function createMarketItem(... */\n    tag_70:\n        /* \"contracts/Marketplace2/Marketplace.sol\":14165:14166  2 */\n      0x02\n        /* \"contracts/Marketplace2/Marketplace.sol\":14746:14753  _status */\n      sload(0x00)\n        /* \"contracts/Marketplace2/Marketplace.sol\":14746:14765  _status != _ENTERED */\n      sub\n        /* \"contracts/Marketplace2/Marketplace.sol\":14738:14801  require(_status != _ENTERED, \"ReentrancyGuard: reentrant call\") */\n      tag_193\n      jumpi\n      mload(0x40)\n      0x08c379a000000000000000000000000000000000000000000000000000000000\n      dup2\n      mstore\n      0x04\n      add\n      tag_194\n      swap1\n      tag_195\n      jump\t// in\n    tag_194:\n      mload(0x40)\n      dup1\n      swap2\n      sub\n      swap1\n      revert\n    tag_193:\n        /* \"contracts/Marketplace2/Marketplace.sol\":14165:14166  2 */\n      0x02\n        /* \"contracts/Marketplace2/Marketplace.sol\":14876:14883  _status */\n      0x00\n        /* \"contracts/Marketplace2/Marketplace.sol\":14876:14894  _status = _ENTERED */\n      dup2\n      swap1\n      sstore\n      pop\n        /* \"contracts/Marketplace2/Marketplace.sol\":18248:18249  0 */\n      0x00\n        /* \"contracts/Marketplace2/Marketplace.sol\":18240:18245  price */\n      dup2\n        /* \"contracts/Marketplace2/Marketplace.sol\":18240:18249  price > 0 */\n      gt\n        /* \"contracts/Marketplace2/Marketplace.sol\":18232:18282  require(price > 0, \"Price must be at least 1 wei\") */\n      tag_197\n      jumpi\n      mload(0x40)\n      0x08c379a000000000000000000000000000000000000000000000000000000000\n      dup2\n      mstore\n      0x04\n      add\n      tag_198\n      swap1\n      tag_199\n      jump\t// in\n    tag_198:\n      mload(0x40)\n      dup1\n      swap2\n      sub\n      swap1\n      revert\n    tag_197:\n        /* \"contracts/Marketplace2/Marketplace.sol\":18289:18321  IFactory.ingameItems memory item */\n      0x00\n        /* \"contracts/Marketplace2/Marketplace.sol\":18324:18331  factory */\n      0x0b\n      0x00\n      swap1\n      sload\n      swap1\n      0x0100\n      exp\n      swap1\n      div\n      0xffffffffffffffffffffffffffffffffffffffff\n      and\n        /* \"contracts/Marketplace2/Marketplace.sol\":18324:18342  factory.ingameItem */\n      0xffffffffffffffffffffffffffffffffffffffff\n      and\n      0xd30bdac9\n        /* \"contracts/Marketplace2/Marketplace.sol\":18343:18350  tokenId */\n      dup5\n        /* \"contracts/Marketplace2/Marketplace.sol\":18324:18351  factory.ingameItem(tokenId) */\n      mload(0x40)\n      dup3\n      0xffffffff\n      and\n      0xe0\n      shl\n      dup2\n      mstore\n      0x04\n      add\n      tag_200\n      swap2\n      swap1\n      tag_201\n      jump\t// in\n    tag_200:\n      0x00\n      mload(0x40)\n      dup1\n      dup4\n      sub\n      dup2\n      dup7\n      gas\n      staticcall\n      iszero\n      dup1\n      iszero\n      tag_203\n      jumpi\n      returndatasize\n      0x00\n      dup1\n      returndatacopy\n      revert(0x00, returndatasize)\n    tag_203:\n      pop\n      pop\n      pop\n      pop\n      mload(0x40)\n      returndatasize\n      0x00\n      dup3\n      returndatacopy\n      returndatasize\n      not(0x1f)\n      0x1f\n      dup3\n      add\n      and\n      dup3\n      add\n      dup1\n      0x40\n      mstore\n      pop\n      dup2\n      add\n      swap1\n      tag_204\n      swap2\n      swap1\n      tag_205\n      jump\t// in\n    tag_204:\n        /* \"contracts/Marketplace2/Marketplace.sol\":18289:18351  IFactory.ingameItems memory item = factory.ingameItem(tokenId) */\n      swap1\n      pop\n        /* \"contracts/Marketplace2/Marketplace.sol\":18358:18378  _itemIds.increment() */\n      tag_206\n        /* \"contracts/Marketplace2/Marketplace.sol\":18358:18366  _itemIds */\n      0x0e\n        /* \"contracts/Marketplace2/Marketplace.sol\":18358:18376  _itemIds.increment */\n      tag_207\n        /* \"contracts/Marketplace2/Marketplace.sol\":18358:18378  _itemIds.increment() */\n      jump\t// in\n    tag_206:\n        /* \"contracts/Marketplace2/Marketplace.sol\":18384:18398  uint256 itemId */\n      0x00\n        /* \"contracts/Marketplace2/Marketplace.sol\":18401:18419  _itemIds.current() */\n      tag_208\n        /* \"contracts/Marketplace2/Marketplace.sol\":18401:18409  _itemIds */\n      0x0e\n        /* \"contracts/Marketplace2/Marketplace.sol\":18401:18417  _itemIds.current */\n      tag_149\n        /* \"contracts/Marketplace2/Marketplace.sol\":18401:18419  _itemIds.current() */\n      jump\t// in\n    tag_208:\n        /* \"contracts/Marketplace2/Marketplace.sol\":18384:18419  uint256 itemId = _itemIds.current() */\n      swap1\n      pop\n        /* \"contracts/Marketplace2/Marketplace.sol\":18456:18610  MarketItem(... */\n      mload(0x40)\n      dup1\n      0xe0\n      add\n      0x40\n      mstore\n      dup1\n        /* \"contracts/Marketplace2/Marketplace.sol\":18474:18480  itemId */\n      dup3\n        /* \"contracts/Marketplace2/Marketplace.sol\":18456:18610  MarketItem(... */\n      dup2\n      mstore\n      0x20\n      add\n        /* \"contracts/Marketplace2/Marketplace.sol\":18488:18499  nftContract */\n      dup7\n        /* \"contracts/Marketplace2/Marketplace.sol\":18456:18610  MarketItem(... */\n      0xffffffffffffffffffffffffffffffffffffffff\n      and\n      dup2\n      mstore\n      0x20\n      add\n        /* \"contracts/Marketplace2/Marketplace.sol\":18507:18514  tokenId */\n      dup6\n        /* \"contracts/Marketplace2/Marketplace.sol\":18456:18610  MarketItem(... */\n      dup2\n      mstore\n      0x20\n      add\n        /* \"contracts/Marketplace2/Marketplace.sol\":18530:18540  msg.sender */\n      caller\n        /* \"contracts/Marketplace2/Marketplace.sol\":18456:18610  MarketItem(... */\n      0xffffffffffffffffffffffffffffffffffffffff\n      and\n      dup2\n      mstore\n      0x20\n      add\n        /* \"contracts/Marketplace2/Marketplace.sol\":18565:18566  0 */\n      0x00\n        /* \"contracts/Marketplace2/Marketplace.sol\":18456:18610  MarketItem(... */\n      0xffffffffffffffffffffffffffffffffffffffff\n      and\n      dup2\n      mstore\n      0x20\n      add\n        /* \"contracts/Marketplace2/Marketplace.sol\":18576:18581  price */\n      dup5\n        /* \"contracts/Marketplace2/Marketplace.sol\":18456:18610  MarketItem(... */\n      dup2\n      mstore\n      0x20\n      add\n        /* \"contracts/Marketplace2/Marketplace.sol\":18589:18604  ItemStatus.LIST */\n      0x01\n        /* \"contracts/Marketplace2/Marketplace.sol\":18456:18610  MarketItem(... */\n      dup1\n      dup2\n      gt\n      iszero\n      tag_209\n      jumpi\n      tag_210\n      tag_136\n      jump\t// in\n    tag_210:\n    tag_209:\n      dup2\n      mstore\n      pop\n        /* \"contracts/Marketplace2/Marketplace.sol\":18430:18444  idToMarketItem */\n      0x10\n        /* \"contracts/Marketplace2/Marketplace.sol\":18430:18452  idToMarketItem[itemId] */\n      0x00\n        /* \"contracts/Marketplace2/Marketplace.sol\":18445:18451  itemId */\n      dup4\n        /* \"contracts/Marketplace2/Marketplace.sol\":18430:18452  idToMarketItem[itemId] */\n      dup2\n      mstore\n      0x20\n      add\n      swap1\n      dup2\n      mstore\n      0x20\n      add\n      0x00\n      keccak256\n        /* \"contracts/Marketplace2/Marketplace.sol\":18430:18610  idToMarketItem[itemId] =  MarketItem(... */\n      0x00\n      dup3\n      add\n      mload\n      dup2\n      0x00\n      add\n      sstore\n      0x20\n      dup3\n      add\n      mload\n      dup2\n      0x01\n      add\n      exp(0x0100, 0x00)\n      dup2\n      sload\n      dup2\n      0xffffffffffffffffffffffffffffffffffffffff\n      mul\n      not\n      and\n      swap1\n      dup4\n      0xffffffffffffffffffffffffffffffffffffffff\n      and\n      mul\n      or\n      swap1\n      sstore\n      pop\n      0x40\n      dup3\n      add\n      mload\n      dup2\n      0x02\n      add\n      sstore\n      0x60\n      dup3\n      add\n      mload\n      dup2\n      0x03\n      add\n      exp(0x0100, 0x00)\n      dup2\n      sload\n      dup2\n      0xffffffffffffffffffffffffffffffffffffffff\n      mul\n      not\n      and\n      swap1\n      dup4\n      0xffffffffffffffffffffffffffffffffffffffff\n      and\n      mul\n      or\n      swap1\n      sstore\n      pop\n      0x80\n      dup3\n      add\n      mload\n      dup2\n      0x04\n      add\n      exp(0x0100, 0x00)\n      dup2\n      sload\n      dup2\n      0xffffffffffffffffffffffffffffffffffffffff\n      mul\n      not\n      and\n      swap1\n      dup4\n      0xffffffffffffffffffffffffffffffffffffffff\n      and\n      mul\n      or\n      swap1\n      sstore\n      pop\n      0xa0\n      dup3\n      add\n      mload\n      dup2\n      0x05\n      add\n      sstore\n      0xc0\n      dup3\n      add\n      mload\n      dup2\n      0x06\n      add\n      exp(0x0100, 0x00)\n      dup2\n      sload\n      dup2\n      0xff\n      mul\n      not\n      and\n      swap1\n      dup4\n      0x01\n      dup2\n      gt\n      iszero\n      tag_211\n      jumpi\n      tag_212\n      tag_136\n      jump\t// in\n    tag_212:\n    tag_211:\n      mul\n      or\n      swap1\n      sstore\n      pop\n      swap1\n      pop\n      pop\n        /* \"contracts/Marketplace2/Marketplace.sol\":18617:18625  mainNFTs */\n      0x0c\n      0x00\n      swap1\n      sload\n      swap1\n      0x0100\n      exp\n      swap1\n      div\n      0xffffffffffffffffffffffffffffffffffffffff\n      and\n        /* \"contracts/Marketplace2/Marketplace.sol\":18617:18638  mainNFTs.transferFrom */\n      0xffffffffffffffffffffffffffffffffffffffff\n      and\n      0x23b872dd\n        /* \"contracts/Marketplace2/Marketplace.sol\":18639:18649  msg.sender */\n      caller\n        /* \"contracts/Marketplace2/Marketplace.sol\":18659:18663  this */\n      address\n        /* \"contracts/Marketplace2/Marketplace.sol\":18666:18673  tokenId */\n      dup8\n        /* \"contracts/Marketplace2/Marketplace.sol\":18617:18674  mainNFTs.transferFrom(msg.sender, address(this), tokenId) */\n      mload(0x40)\n      dup5\n      0xffffffff\n      and\n      0xe0\n      shl\n      dup2\n      mstore\n      0x04\n      add\n      tag_213\n      swap4\n      swap3\n      swap2\n      swap1\n      tag_214\n      jump\t// in\n    tag_213:\n      0x00\n      mload(0x40)\n      dup1\n      dup4\n      sub\n      dup2\n      0x00\n      dup8\n      dup1\n      extcodesize\n      iszero\n      dup1\n      iszero\n      tag_215\n      jumpi\n      0x00\n      dup1\n      revert\n    tag_215:\n      pop\n      gas\n      call\n      iszero\n      dup1\n      iszero\n      tag_217\n      jumpi\n      returndatasize\n      0x00\n      dup1\n      returndatacopy\n      revert(0x00, returndatasize)\n    tag_217:\n      pop\n      pop\n      pop\n      pop\n        /* \"contracts/Marketplace2/Marketplace.sol\":18744:18751  tokenId */\n      dup4\n        /* \"contracts/Marketplace2/Marketplace.sol\":18725:18736  nftContract */\n      dup6\n        /* \"contracts/Marketplace2/Marketplace.sol\":18686:18806  MarketItemCreated(... */\n      0xffffffffffffffffffffffffffffffffffffffff\n      and\n        /* \"contracts/Marketplace2/Marketplace.sol\":18711:18717  itemId */\n      dup3\n        /* \"contracts/Marketplace2/Marketplace.sol\":18686:18806  MarketItemCreated(... */\n      0x2ad024d53a0dc50c130967f8d4941927ee087ea31394cebb2b9599d3706c9c00\n        /* \"contracts/Marketplace2/Marketplace.sol\":18759:18769  msg.sender */\n      caller\n        /* \"contracts/Marketplace2/Marketplace.sol\":18785:18786  0 */\n      0x00\n        /* \"contracts/Marketplace2/Marketplace.sol\":18795:18800  price */\n      dup9\n        /* \"contracts/Marketplace2/Marketplace.sol\":18686:18806  MarketItemCreated(... */\n      mload(0x40)\n      tag_218\n      swap4\n      swap3\n      swap2\n      swap1\n      tag_214\n      jump\t// in\n    tag_218:\n      mload(0x40)\n      dup1\n      swap2\n      sub\n      swap1\n      log4\n        /* \"contracts/Marketplace2/Marketplace.sol\":18226:18811  {... */\n      pop\n      pop\n        /* \"contracts/Marketplace2/Marketplace.sol\":14122:14123  1 */\n      0x01\n        /* \"contracts/Marketplace2/Marketplace.sol\":15049:15056  _status */\n      0x00\n        /* \"contracts/Marketplace2/Marketplace.sol\":15049:15071  _status = _NOT_ENTERED */\n      dup2\n      swap1\n      sstore\n      pop\n        /* \"contracts/Marketplace2/Marketplace.sol\":18103:18811  function createMarketItem(... */\n      pop\n      pop\n      pop\n      jump\t// out\n        /* \"contracts/Marketplace2/Marketplace.sol\":17997:18099  function setFactory(address _address) external onlyOwner {... */\n    tag_74:\n        /* \"contracts/Marketplace2/Marketplace.sol\":1899:1911  _msgSender() */\n      tag_220\n        /* \"contracts/Marketplace2/Marketplace.sol\":1899:1909  _msgSender */\n      tag_141\n        /* \"contracts/Marketplace2/Marketplace.sol\":1899:1911  _msgSender() */\n      jump\t// in\n    tag_220:\n        /* \"contracts/Marketplace2/Marketplace.sol\":1888:1911  owner() == _msgSender() */\n      0xffffffffffffffffffffffffffffffffffffffff\n      and\n        /* \"contracts/Marketplace2/Marketplace.sol\":1888:1895  owner() */\n      tag_221\n        /* \"contracts/Marketplace2/Marketplace.sol\":1888:1893  owner */\n      tag_91\n        /* \"contracts/Marketplace2/Marketplace.sol\":1888:1895  owner() */\n      jump\t// in\n    tag_221:\n        /* \"contracts/Marketplace2/Marketplace.sol\":1888:1911  owner() == _msgSender() */\n      0xffffffffffffffffffffffffffffffffffffffff\n      and\n      eq\n        /* \"contracts/Marketplace2/Marketplace.sol\":1880:1948  require(owner() == _msgSender(), \"Ownable: caller is not the owner\") */\n      tag_222\n      jumpi\n      mload(0x40)\n      0x08c379a000000000000000000000000000000000000000000000000000000000\n      dup2\n      mstore\n      0x04\n      add\n      tag_223\n      swap1\n      tag_145\n      jump\t// in\n    tag_223:\n      mload(0x40)\n      dup1\n      swap2\n      sub\n      swap1\n      revert\n    tag_222:\n        /* \"contracts/Marketplace2/Marketplace.sol\":18083:18091  _address */\n      dup1\n        /* \"contracts/Marketplace2/Marketplace.sol\":18064:18071  factory */\n      0x0b\n      0x00\n        /* \"contracts/Marketplace2/Marketplace.sol\":18064:18092  factory = IFactory(_address) */\n      0x0100\n      exp\n      dup2\n      sload\n      dup2\n      0xffffffffffffffffffffffffffffffffffffffff\n      mul\n      not\n      and\n      swap1\n      dup4\n      0xffffffffffffffffffffffffffffffffffffffff\n      and\n      mul\n      or\n      swap1\n      sstore\n      pop\n        /* \"contracts/Marketplace2/Marketplace.sol\":17997:18099  function setFactory(address _address) external onlyOwner {... */\n      pop\n      jump\t// out\n        /* \"contracts/Marketplace2/Marketplace.sol\":16052:16115  mapping(address => mapping(uint256 => MarketItem)) public items */\n    tag_79:\n      mstore(0x20, 0x09)\n      dup2\n      0x00\n      mstore\n      mstore(0x20, keccak256(0x00, 0x40))\n      dup1\n      0x00\n      mstore\n      keccak256(0x00, 0x40)\n      0x00\n      swap2\n      pop\n      swap2\n      pop\n      pop\n      dup1\n      0x00\n      add\n      sload\n      swap1\n      dup1\n      0x01\n      add\n      0x00\n      swap1\n      sload\n      swap1\n      0x0100\n      exp\n      swap1\n      div\n      0xffffffffffffffffffffffffffffffffffffffff\n      and\n      swap1\n      dup1\n      0x02\n      add\n      sload\n      swap1\n      dup1\n      0x03\n      add\n      0x00\n      swap1\n      sload\n      swap1\n      0x0100\n      exp\n      swap1\n      div\n      0xffffffffffffffffffffffffffffffffffffffff\n      and\n      swap1\n      dup1\n      0x04\n      add\n      0x00\n      swap1\n      sload\n      swap1\n      0x0100\n      exp\n      swap1\n      div\n      0xffffffffffffffffffffffffffffffffffffffff\n      and\n      swap1\n      dup1\n      0x05\n      add\n      sload\n      swap1\n      dup1\n      0x06\n      add\n      0x00\n      swap1\n      sload\n      swap1\n      0x0100\n      exp\n      swap1\n      div\n      0xff\n      and\n      swap1\n      pop\n      dup8\n      jump\t// out\n        /* \"contracts/Marketplace2/Marketplace.sol\":2308:2409  function renounceOwnership() public virtual onlyOwner {... */\n    tag_83:\n        /* \"contracts/Marketplace2/Marketplace.sol\":1899:1911  _msgSender() */\n      tag_226\n        /* \"contracts/Marketplace2/Marketplace.sol\":1899:1909  _msgSender */\n      tag_141\n        /* \"contracts/Marketplace2/Marketplace.sol\":1899:1911  _msgSender() */\n      jump\t// in\n    tag_226:\n        /* \"contracts/Marketplace2/Marketplace.sol\":1888:1911  owner() == _msgSender() */\n      0xffffffffffffffffffffffffffffffffffffffff\n      and\n        /* \"contracts/Marketplace2/Marketplace.sol\":1888:1895  owner() */\n      tag_227\n        /* \"contracts/Marketplace2/Marketplace.sol\":1888:1893  owner */\n      tag_91\n        /* \"contracts/Marketplace2/Marketplace.sol\":1888:1895  owner() */\n      jump\t// in\n    tag_227:\n        /* \"contracts/Marketplace2/Marketplace.sol\":1888:1911  owner() == _msgSender() */\n      0xffffffffffffffffffffffffffffffffffffffff\n      and\n      eq\n        /* \"contracts/Marketplace2/Marketplace.sol\":1880:1948  require(owner() == _msgSender(), \"Ownable: caller is not the owner\") */\n      tag_228\n      jumpi\n      mload(0x40)\n      0x08c379a000000000000000000000000000000000000000000000000000000000\n      dup2\n      mstore\n      0x04\n      add\n      tag_229\n      swap1\n      tag_145\n      jump\t// in\n    tag_229:\n      mload(0x40)\n      dup1\n      swap2\n      sub\n      swap1\n      revert\n    tag_228:\n        /* \"contracts/Marketplace2/Marketplace.sol\":2372:2402  _transferOwnership(address(0)) */\n      tag_231\n        /* \"contracts/Marketplace2/Marketplace.sol\":2399:2400  0 */\n      0x00\n        /* \"contracts/Marketplace2/Marketplace.sol\":2372:2390  _transferOwnership */\n      tag_232\n        /* \"contracts/Marketplace2/Marketplace.sol\":2372:2402  _transferOwnership(address(0)) */\n      jump\t// in\n    tag_231:\n        /* \"contracts/Marketplace2/Marketplace.sol\":2308:2409  function renounceOwnership() public virtual onlyOwner {... */\n      jump\t// out\n        /* \"contracts/Marketplace2/Marketplace.sol\":16210:16236  uint8 public bnbFeePercent */\n    tag_86:\n      0x0c\n      0x14\n      swap1\n      sload\n      swap1\n      0x0100\n      exp\n      swap1\n      div\n      0xff\n      and\n      dup2\n      jump\t// out\n        /* \"contracts/Marketplace2/Marketplace.sol\":1676:1761  function owner() public view virtual returns (address) {... */\n    tag_91:\n        /* \"contracts/Marketplace2/Marketplace.sol\":1722:1729  address */\n      0x00\n        /* \"contracts/Marketplace2/Marketplace.sol\":1748:1754  _owner */\n      0x0d\n      0x00\n      swap1\n      sload\n      swap1\n      0x0100\n      exp\n      swap1\n      div\n      0xffffffffffffffffffffffffffffffffffffffff\n      and\n        /* \"contracts/Marketplace2/Marketplace.sol\":1741:1754  return _owner */\n      swap1\n      pop\n        /* \"contracts/Marketplace2/Marketplace.sol\":1676:1761  function owner() public view virtual returns (address) {... */\n      swap1\n      jump\t// out\n        /* \"contracts/Marketplace2/Marketplace.sol\":18815:19450  function createMarketSale(... */\n    tag_98:\n        /* \"contracts/Marketplace2/Marketplace.sol\":14165:14166  2 */\n      0x02\n        /* \"contracts/Marketplace2/Marketplace.sol\":14746:14753  _status */\n      sload(0x00)\n        /* \"contracts/Marketplace2/Marketplace.sol\":14746:14765  _status != _ENTERED */\n      sub\n        /* \"contracts/Marketplace2/Marketplace.sol\":14738:14801  require(_status != _ENTERED, \"ReentrancyGuard: reentrant call\") */\n      tag_235\n      jumpi\n      mload(0x40)\n      0x08c379a000000000000000000000000000000000000000000000000000000000\n      dup2\n      mstore\n      0x04\n      add\n      tag_236\n      swap1\n      tag_195\n      jump\t// in\n    tag_236:\n      mload(0x40)\n      dup1\n      swap2\n      sub\n      swap1\n      revert\n    tag_235:\n        /* \"contracts/Marketplace2/Marketplace.sol\":14165:14166  2 */\n      0x02\n        /* \"contracts/Marketplace2/Marketplace.sol\":14876:14883  _status */\n      0x00\n        /* \"contracts/Marketplace2/Marketplace.sol\":14876:14894  _status = _ENTERED */\n      dup2\n      swap1\n      sstore\n      pop\n        /* \"contracts/Marketplace2/Marketplace.sol\":18913:18923  uint price */\n      0x00\n        /* \"contracts/Marketplace2/Marketplace.sol\":18926:18940  idToMarketItem */\n      0x10\n        /* \"contracts/Marketplace2/Marketplace.sol\":18926:18948  idToMarketItem[itemId] */\n      0x00\n        /* \"contracts/Marketplace2/Marketplace.sol\":18941:18947  itemId */\n      dup5\n        /* \"contracts/Marketplace2/Marketplace.sol\":18926:18948  idToMarketItem[itemId] */\n      dup2\n      mstore\n      0x20\n      add\n      swap1\n      dup2\n      mstore\n      0x20\n      add\n      0x00\n      keccak256\n        /* \"contracts/Marketplace2/Marketplace.sol\":18926:18954  idToMarketItem[itemId].price */\n      0x05\n      add\n      sload\n        /* \"contracts/Marketplace2/Marketplace.sol\":18913:18954  uint price = idToMarketItem[itemId].price */\n      swap1\n      pop\n        /* \"contracts/Marketplace2/Marketplace.sol\":18960:18972  uint tokenId */\n      0x00\n        /* \"contracts/Marketplace2/Marketplace.sol\":18975:18989  idToMarketItem */\n      0x10\n        /* \"contracts/Marketplace2/Marketplace.sol\":18975:18997  idToMarketItem[itemId] */\n      0x00\n        /* \"contracts/Marketplace2/Marketplace.sol\":18990:18996  itemId */\n      dup6\n        /* \"contracts/Marketplace2/Marketplace.sol\":18975:18997  idToMarketItem[itemId] */\n      dup2\n      mstore\n      0x20\n      add\n      swap1\n      dup2\n      mstore\n      0x20\n      add\n      0x00\n      keccak256\n        /* \"contracts/Marketplace2/Marketplace.sol\":18975:19005  idToMarketItem[itemId].tokenId */\n      0x02\n      add\n      sload\n        /* \"contracts/Marketplace2/Marketplace.sol\":18960:19005  uint tokenId = idToMarketItem[itemId].tokenId */\n      swap1\n      pop\n        /* \"contracts/Marketplace2/Marketplace.sol\":19029:19034  price */\n      dup2\n        /* \"contracts/Marketplace2/Marketplace.sol\":19019:19025  amount */\n      dup4\n        /* \"contracts/Marketplace2/Marketplace.sol\":19019:19034  amount == price */\n      eq\n        /* \"contracts/Marketplace2/Marketplace.sol\":19011:19103  require(amount == price, \"Please submit the asking price in order to complete the purchase\") */\n      tag_238\n      jumpi\n      mload(0x40)\n      0x08c379a000000000000000000000000000000000000000000000000000000000\n      dup2\n      mstore\n      0x04\n      add\n      tag_239\n      swap1\n      tag_240\n      jump\t// in\n    tag_239:\n      mload(0x40)\n      dup1\n      swap2\n      sub\n      swap1\n      revert\n    tag_238:\n        /* \"contracts/Marketplace2/Marketplace.sol\":19168:19177  mainToken */\n      0x0a\n      0x00\n      swap1\n      sload\n      swap1\n      0x0100\n      exp\n      swap1\n      div\n      0xffffffffffffffffffffffffffffffffffffffff\n      and\n        /* \"contracts/Marketplace2/Marketplace.sol\":19168:19190  mainToken.transferFrom */\n      0xffffffffffffffffffffffffffffffffffffffff\n      and\n      0x23b872dd\n        /* \"contracts/Marketplace2/Marketplace.sol\":19191:19201  msg.sender */\n      caller\n        /* \"contracts/Marketplace2/Marketplace.sol\":19203:19217  idToMarketItem */\n      0x10\n        /* \"contracts/Marketplace2/Marketplace.sol\":19203:19225  idToMarketItem[itemId] */\n      0x00\n        /* \"contracts/Marketplace2/Marketplace.sol\":19218:19224  itemId */\n      dup9\n        /* \"contracts/Marketplace2/Marketplace.sol\":19203:19225  idToMarketItem[itemId] */\n      dup2\n      mstore\n      0x20\n      add\n      swap1\n      dup2\n      mstore\n      0x20\n      add\n      0x00\n      keccak256\n        /* \"contracts/Marketplace2/Marketplace.sol\":19203:19232  idToMarketItem[itemId].seller */\n      0x03\n      add\n      0x00\n      swap1\n      sload\n      swap1\n      0x0100\n      exp\n      swap1\n      div\n      0xffffffffffffffffffffffffffffffffffffffff\n      and\n        /* \"contracts/Marketplace2/Marketplace.sol\":19235:19241  amount */\n      dup7\n        /* \"contracts/Marketplace2/Marketplace.sol\":19168:19242  mainToken.transferFrom(msg.sender, idToMarketItem[itemId].seller , amount) */\n      mload(0x40)\n      dup5\n      0xffffffff\n      and\n      0xe0\n      shl\n      dup2\n      mstore\n      0x04\n      add\n      tag_241\n      swap4\n      swap3\n      swap2\n      swap1\n      tag_242\n      jump\t// in\n    tag_241:\n      0x20\n      mload(0x40)\n      dup1\n      dup4\n      sub\n      dup2\n      0x00\n      dup8\n      gas\n      call\n      iszero\n      dup1\n      iszero\n      tag_244\n      jumpi\n      returndatasize\n      0x00\n      dup1\n      returndatacopy\n      revert(0x00, returndatasize)\n    tag_244:\n      pop\n      pop\n      pop\n      pop\n      mload(0x40)\n      returndatasize\n      not(0x1f)\n      0x1f\n      dup3\n      add\n      and\n      dup3\n      add\n      dup1\n      0x40\n      mstore\n      pop\n      dup2\n      add\n      swap1\n      tag_245\n      swap2\n      swap1\n      tag_246\n      jump\t// in\n    tag_245:\n      pop\n        /* \"contracts/Marketplace2/Marketplace.sol\":19248:19256  mainNFTs */\n      0x0c\n      0x00\n      swap1\n      sload\n      swap1\n      0x0100\n      exp\n      swap1\n      div\n      0xffffffffffffffffffffffffffffffffffffffff\n      and\n        /* \"contracts/Marketplace2/Marketplace.sol\":19248:19269  mainNFTs.transferFrom */\n      0xffffffffffffffffffffffffffffffffffffffff\n      and\n      0x23b872dd\n        /* \"contracts/Marketplace2/Marketplace.sol\":19278:19282  this */\n      address\n        /* \"contracts/Marketplace2/Marketplace.sol\":19285:19295  msg.sender */\n      caller\n        /* \"contracts/Marketplace2/Marketplace.sol\":19297:19304  tokenId */\n      dup5\n        /* \"contracts/Marketplace2/Marketplace.sol\":19248:19305  mainNFTs.transferFrom(address(this), msg.sender, tokenId) */\n      mload(0x40)\n      dup5\n      0xffffffff\n      and\n      0xe0\n      shl\n      dup2\n      mstore\n      0x04\n      add\n      tag_247\n      swap4\n      swap3\n      swap2\n      swap1\n      tag_214\n      jump\t// in\n    tag_247:\n      0x00\n      mload(0x40)\n      dup1\n      dup4\n      sub\n      dup2\n      0x00\n      dup8\n      dup1\n      extcodesize\n      iszero\n      dup1\n      iszero\n      tag_248\n      jumpi\n      0x00\n      dup1\n      revert\n    tag_248:\n      pop\n      gas\n      call\n      iszero\n      dup1\n      iszero\n      tag_250\n      jumpi\n      returndatasize\n      0x00\n      dup1\n      returndatacopy\n      revert(0x00, returndatasize)\n    tag_250:\n      pop\n      pop\n      pop\n      pop\n        /* \"contracts/Marketplace2/Marketplace.sol\":19350:19360  msg.sender */\n      caller\n        /* \"contracts/Marketplace2/Marketplace.sol\":19311:19325  idToMarketItem */\n      0x10\n        /* \"contracts/Marketplace2/Marketplace.sol\":19311:19333  idToMarketItem[itemId] */\n      0x00\n        /* \"contracts/Marketplace2/Marketplace.sol\":19326:19332  itemId */\n      dup7\n        /* \"contracts/Marketplace2/Marketplace.sol\":19311:19333  idToMarketItem[itemId] */\n      dup2\n      mstore\n      0x20\n      add\n      swap1\n      dup2\n      mstore\n      0x20\n      add\n      0x00\n      keccak256\n        /* \"contracts/Marketplace2/Marketplace.sol\":19311:19339  idToMarketItem[itemId].owner */\n      0x04\n      add\n      0x00\n        /* \"contracts/Marketplace2/Marketplace.sol\":19311:19361  idToMarketItem[itemId].owner = payable(msg.sender) */\n      0x0100\n      exp\n      dup2\n      sload\n      dup2\n      0xffffffffffffffffffffffffffffffffffffffff\n      mul\n      not\n      and\n      swap1\n      dup4\n      0xffffffffffffffffffffffffffffffffffffffff\n      and\n      mul\n      or\n      swap1\n      sstore\n      pop\n        /* \"contracts/Marketplace2/Marketplace.sol\":19399:19416  ItemStatus.MINTED */\n      0x00\n        /* \"contracts/Marketplace2/Marketplace.sol\":19367:19381  idToMarketItem */\n      0x10\n        /* \"contracts/Marketplace2/Marketplace.sol\":19367:19389  idToMarketItem[itemId] */\n      0x00\n        /* \"contracts/Marketplace2/Marketplace.sol\":19382:19388  itemId */\n      dup7\n        /* \"contracts/Marketplace2/Marketplace.sol\":19367:19389  idToMarketItem[itemId] */\n      dup2\n      mstore\n      0x20\n      add\n      swap1\n      dup2\n      mstore\n      0x20\n      add\n      0x00\n      keccak256\n        /* \"contracts/Marketplace2/Marketplace.sol\":19367:19396  idToMarketItem[itemId].status */\n      0x06\n      add\n      0x00\n        /* \"contracts/Marketplace2/Marketplace.sol\":19367:19416  idToMarketItem[itemId].status = ItemStatus.MINTED */\n      0x0100\n      exp\n      dup2\n      sload\n      dup2\n      0xff\n      mul\n      not\n      and\n      swap1\n      dup4\n      0x01\n      dup2\n      gt\n      iszero\n      tag_251\n      jumpi\n      tag_252\n      tag_136\n      jump\t// in\n    tag_252:\n    tag_251:\n      mul\n      or\n      swap1\n      sstore\n      pop\n        /* \"contracts/Marketplace2/Marketplace.sol\":19423:19445  _itemsSold.increment() */\n      tag_253\n        /* \"contracts/Marketplace2/Marketplace.sol\":19423:19433  _itemsSold */\n      0x0f\n        /* \"contracts/Marketplace2/Marketplace.sol\":19423:19443  _itemsSold.increment */\n      tag_207\n        /* \"contracts/Marketplace2/Marketplace.sol\":19423:19445  _itemsSold.increment() */\n      jump\t// in\n    tag_253:\n        /* \"contracts/Marketplace2/Marketplace.sol\":18907:19450  {... */\n      pop\n      pop\n        /* \"contracts/Marketplace2/Marketplace.sol\":14122:14123  1 */\n      0x01\n        /* \"contracts/Marketplace2/Marketplace.sol\":15049:15056  _status */\n      0x00\n        /* \"contracts/Marketplace2/Marketplace.sol\":15049:15071  _status = _NOT_ENTERED */\n      dup2\n      swap1\n      sstore\n      pop\n        /* \"contracts/Marketplace2/Marketplace.sol\":18815:19450  function createMarketSale(... */\n      pop\n      pop\n      jump\t// out\n        /* \"contracts/Marketplace2/Marketplace.sol\":20422:21314  function delistItem(address nftAddress, uint256 itemId) public {... */\n    tag_102:\n        /* \"contracts/Marketplace2/Marketplace.sol\":20495:20521  _requireERC721(nftAddress) */\n      tag_255\n        /* \"contracts/Marketplace2/Marketplace.sol\":20510:20520  nftAddress */\n      dup3\n        /* \"contracts/Marketplace2/Marketplace.sol\":20495:20509  _requireERC721 */\n      tag_256\n        /* \"contracts/Marketplace2/Marketplace.sol\":20495:20521  _requireERC721(nftAddress) */\n      jump\t// in\n    tag_255:\n        /* \"contracts/Marketplace2/Marketplace.sol\":20532:20548  address deleteBy */\n      0x00\n        /* \"contracts/Marketplace2/Marketplace.sol\":20551:20561  msg.sender */\n      caller\n        /* \"contracts/Marketplace2/Marketplace.sol\":20532:20561  address deleteBy = msg.sender */\n      swap1\n      pop\n        /* \"contracts/Marketplace2/Marketplace.sol\":20571:20593  MarketItem memory item */\n      0x00\n        /* \"contracts/Marketplace2/Marketplace.sol\":20596:20610  idToMarketItem */\n      0x10\n        /* \"contracts/Marketplace2/Marketplace.sol\":20596:20618  idToMarketItem[itemId] */\n      0x00\n        /* \"contracts/Marketplace2/Marketplace.sol\":20611:20617  itemId */\n      dup5\n        /* \"contracts/Marketplace2/Marketplace.sol\":20596:20618  idToMarketItem[itemId] */\n      dup2\n      mstore\n      0x20\n      add\n      swap1\n      dup2\n      mstore\n      0x20\n      add\n      0x00\n      keccak256\n        /* \"contracts/Marketplace2/Marketplace.sol\":20571:20618  MarketItem memory item = idToMarketItem[itemId] */\n      mload(0x40)\n      dup1\n      0xe0\n      add\n      0x40\n      mstore\n      swap1\n      dup2\n      0x00\n      dup3\n      add\n      sload\n      dup2\n      mstore\n      0x20\n      add\n      0x01\n      dup3\n      add\n      0x00\n      swap1\n      sload\n      swap1\n      0x0100\n      exp\n      swap1\n      div\n      0xffffffffffffffffffffffffffffffffffffffff\n      and\n      0xffffffffffffffffffffffffffffffffffffffff\n      and\n      0xffffffffffffffffffffffffffffffffffffffff\n      and\n      dup2\n      mstore\n      0x20\n      add\n      0x02\n      dup3\n      add\n      sload\n      dup2\n      mstore\n      0x20\n      add\n      0x03\n      dup3\n      add\n      0x00\n      swap1\n      sload\n      swap1\n      0x0100\n      exp\n      swap1\n      div\n      0xffffffffffffffffffffffffffffffffffffffff\n      and\n      0xffffffffffffffffffffffffffffffffffffffff\n      and\n      0xffffffffffffffffffffffffffffffffffffffff\n      and\n      dup2\n      mstore\n      0x20\n      add\n      0x04\n      dup3\n      add\n      0x00\n      swap1\n      sload\n      swap1\n      0x0100\n      exp\n      swap1\n      div\n      0xffffffffffffffffffffffffffffffffffffffff\n      and\n      0xffffffffffffffffffffffffffffffffffffffff\n      and\n      0xffffffffffffffffffffffffffffffffffffffff\n      and\n      dup2\n      mstore\n      0x20\n      add\n      0x05\n      dup3\n      add\n      sload\n      dup2\n      mstore\n      0x20\n      add\n      0x06\n      dup3\n      add\n      0x00\n      swap1\n      sload\n      swap1\n      0x0100\n      exp\n      swap1\n      div\n      0xff\n      and\n      0x01\n      dup2\n      gt\n      iszero\n      tag_257\n      jumpi\n      tag_258\n      tag_136\n      jump\t// in\n    tag_258:\n    tag_257:\n      0x01\n      dup2\n      gt\n      iszero\n      tag_259\n      jumpi\n      tag_260\n      tag_136\n      jump\t// in\n    tag_260:\n    tag_259:\n      dup2\n      mstore\n      pop\n      pop\n      swap1\n      pop\n        /* \"contracts/Marketplace2/Marketplace.sol\":20652:20653  0 */\n      0x00\n        /* \"contracts/Marketplace2/Marketplace.sol\":20637:20641  item */\n      dup2\n        /* \"contracts/Marketplace2/Marketplace.sol\":20637:20648  item.itemId */\n      0x00\n      add\n      mload\n        /* \"contracts/Marketplace2/Marketplace.sol\":20637:20653  item.itemId != 0 */\n      sub\n        /* \"contracts/Marketplace2/Marketplace.sol\":20629:20677  require(item.itemId != 0, \"Asset not published\") */\n      tag_261\n      jumpi\n      mload(0x40)\n      0x08c379a000000000000000000000000000000000000000000000000000000000\n      dup2\n      mstore\n      0x04\n      add\n      tag_262\n      swap1\n      tag_263\n      jump\t// in\n    tag_262:\n      mload(0x40)\n      dup1\n      swap2\n      sub\n      swap1\n      revert\n    tag_261:\n        /* \"contracts/Marketplace2/Marketplace.sol\":20710:20727  ItemStatus.MINTED */\n      0x00\n        /* \"contracts/Marketplace2/Marketplace.sol\":20695:20727  item.status != ItemStatus.MINTED */\n      0x01\n      dup2\n      gt\n      iszero\n      tag_264\n      jumpi\n      tag_265\n      tag_136\n      jump\t// in\n    tag_265:\n    tag_264:\n        /* \"contracts/Marketplace2/Marketplace.sol\":20695:20699  item */\n      dup2\n        /* \"contracts/Marketplace2/Marketplace.sol\":20695:20706  item.status */\n      0xc0\n      add\n      mload\n        /* \"contracts/Marketplace2/Marketplace.sol\":20695:20727  item.status != ItemStatus.MINTED */\n      0x01\n      dup2\n      gt\n      iszero\n      tag_266\n      jumpi\n      tag_267\n      tag_136\n      jump\t// in\n    tag_267:\n    tag_266:\n      sub\n        /* \"contracts/Marketplace2/Marketplace.sol\":20687:20746  require(item.status != ItemStatus.MINTED, \"Asset delisted\") */\n      tag_268\n      jumpi\n      mload(0x40)\n      0x08c379a000000000000000000000000000000000000000000000000000000000\n      dup2\n      mstore\n      0x04\n      add\n      tag_269\n      swap1\n      tag_270\n      jump\t// in\n    tag_269:\n      mload(0x40)\n      dup1\n      swap2\n      sub\n      swap1\n      revert\n    tag_268:\n        /* \"contracts/Marketplace2/Marketplace.sol\":20757:20771  address seller */\n      0x00\n        /* \"contracts/Marketplace2/Marketplace.sol\":20774:20778  item */\n      dup2\n        /* \"contracts/Marketplace2/Marketplace.sol\":20774:20785  item.seller */\n      0x60\n      add\n      mload\n        /* \"contracts/Marketplace2/Marketplace.sol\":20757:20785  address seller = item.seller */\n      swap1\n      pop\n        /* \"contracts/Marketplace2/Marketplace.sol\":20821:20822  0 */\n      0x00\n        /* \"contracts/Marketplace2/Marketplace.sol\":20803:20823  seller != address(0) */\n      0xffffffffffffffffffffffffffffffffffffffff\n      and\n        /* \"contracts/Marketplace2/Marketplace.sol\":20803:20809  seller */\n      dup2\n        /* \"contracts/Marketplace2/Marketplace.sol\":20803:20823  seller != address(0) */\n      0xffffffffffffffffffffffffffffffffffffffff\n      and\n      sub\n        /* \"contracts/Marketplace2/Marketplace.sol\":20795:20843  require(seller != address(0), \"Invalid address\") */\n      tag_271\n      jumpi\n      mload(0x40)\n      0x08c379a000000000000000000000000000000000000000000000000000000000\n      dup2\n      mstore\n      0x04\n      add\n      tag_272\n      swap1\n      tag_273\n      jump\t// in\n    tag_272:\n      mload(0x40)\n      dup1\n      swap2\n      sub\n      swap1\n      revert\n    tag_271:\n        /* \"contracts/Marketplace2/Marketplace.sol\":20884:20894  msg.sender */\n      caller\n        /* \"contracts/Marketplace2/Marketplace.sol\":20874:20894  seller == msg.sender */\n      0xffffffffffffffffffffffffffffffffffffffff\n      and\n        /* \"contracts/Marketplace2/Marketplace.sol\":20874:20880  seller */\n      dup2\n        /* \"contracts/Marketplace2/Marketplace.sol\":20874:20894  seller == msg.sender */\n      0xffffffffffffffffffffffffffffffffffffffff\n      and\n      eq\n        /* \"contracts/Marketplace2/Marketplace.sol\":20853:20942  require(... */\n      tag_274\n      jumpi\n      mload(0x40)\n      0x08c379a000000000000000000000000000000000000000000000000000000000\n      dup2\n      mstore\n      0x04\n      add\n      tag_275\n      swap1\n      tag_276\n      jump\t// in\n    tag_275:\n      mload(0x40)\n      dup1\n      swap2\n      sub\n      swap1\n      revert\n    tag_274:\n        /* \"contracts/Marketplace2/Marketplace.sol\":20952:20971  IERC721 nftRegistry */\n      0x00\n        /* \"contracts/Marketplace2/Marketplace.sol\":20982:20992  nftAddress */\n      dup6\n        /* \"contracts/Marketplace2/Marketplace.sol\":20952:20993  IERC721 nftRegistry = IERC721(nftAddress) */\n      swap1\n      pop\n        /* \"contracts/Marketplace2/Marketplace.sol\":21003:21014  nftRegistry */\n      dup1\n        /* \"contracts/Marketplace2/Marketplace.sol\":21003:21031  nftRegistry.safeTransferFrom */\n      0xffffffffffffffffffffffffffffffffffffffff\n      and\n      0x42842e0e\n        /* \"contracts/Marketplace2/Marketplace.sol\":21040:21044  this */\n      address\n        /* \"contracts/Marketplace2/Marketplace.sol\":21047:21053  seller */\n      dup5\n        /* \"contracts/Marketplace2/Marketplace.sol\":21055:21061  itemId */\n      dup9\n        /* \"contracts/Marketplace2/Marketplace.sol\":21003:21062  nftRegistry.safeTransferFrom(address(this), seller, itemId) */\n      mload(0x40)\n      dup5\n      0xffffffff\n      and\n      0xe0\n      shl\n      dup2\n      mstore\n      0x04\n      add\n      tag_277\n      swap4\n      swap3\n      swap2\n      swap1\n      tag_214\n      jump\t// in\n    tag_277:\n      0x00\n      mload(0x40)\n      dup1\n      dup4\n      sub\n      dup2\n      0x00\n      dup8\n      dup1\n      extcodesize\n      iszero\n      dup1\n      iszero\n      tag_278\n      jumpi\n      0x00\n      dup1\n      revert\n    tag_278:\n      pop\n      gas\n      call\n      iszero\n      dup1\n      iszero\n      tag_280\n      jumpi\n      returndatasize\n      0x00\n      dup1\n      returndatacopy\n      revert(0x00, returndatasize)\n    tag_280:\n      pop\n      pop\n      pop\n      pop\n        /* \"contracts/Marketplace2/Marketplace.sol\":21086:21103  ItemStatus.MINTED */\n      0x00\n        /* \"contracts/Marketplace2/Marketplace.sol\":21072:21076  item */\n      dup4\n        /* \"contracts/Marketplace2/Marketplace.sol\":21072:21083  item.status */\n      0xc0\n      add\n        /* \"contracts/Marketplace2/Marketplace.sol\":21072:21103  item.status = ItemStatus.MINTED */\n      swap1\n      0x01\n      dup2\n      gt\n      iszero\n      tag_281\n      jumpi\n      tag_282\n      tag_136\n      jump\t// in\n    tag_282:\n    tag_281:\n      swap1\n      dup2\n      0x01\n      dup2\n      gt\n      iszero\n      tag_283\n      jumpi\n      tag_284\n      tag_136\n      jump\t// in\n    tag_284:\n    tag_283:\n      dup2\n      mstore\n      pop\n      pop\n        /* \"contracts/Marketplace2/Marketplace.sol\":21120:21134  idToMarketItem */\n      0x10\n        /* \"contracts/Marketplace2/Marketplace.sol\":21120:21142  idToMarketItem[itemId] */\n      0x00\n        /* \"contracts/Marketplace2/Marketplace.sol\":21135:21141  itemId */\n      dup7\n        /* \"contracts/Marketplace2/Marketplace.sol\":21120:21142  idToMarketItem[itemId] */\n      dup2\n      mstore\n      0x20\n      add\n      swap1\n      dup2\n      mstore\n      0x20\n      add\n      0x00\n      keccak256\n      0x00\n        /* \"contracts/Marketplace2/Marketplace.sol\":21113:21142  delete idToMarketItem[itemId] */\n      dup1\n      dup3\n      add\n      0x00\n      swap1\n      sstore\n      0x01\n      dup3\n      add\n      exp(0x0100, 0x00)\n      dup2\n      sload\n      swap1\n      0xffffffffffffffffffffffffffffffffffffffff\n      mul\n      not\n      and\n      swap1\n      sstore\n      0x02\n      dup3\n      add\n      0x00\n      swap1\n      sstore\n      0x03\n      dup3\n      add\n      exp(0x0100, 0x00)\n      dup2\n      sload\n      swap1\n      0xffffffffffffffffffffffffffffffffffffffff\n      mul\n      not\n      and\n      swap1\n      sstore\n      0x04\n      dup3\n      add\n      exp(0x0100, 0x00)\n      dup2\n      sload\n      swap1\n      0xffffffffffffffffffffffffffffffffffffffff\n      mul\n      not\n      and\n      swap1\n      sstore\n      0x05\n      dup3\n      add\n      0x00\n      swap1\n      sstore\n      0x06\n      dup3\n      add\n      exp(0x0100, 0x00)\n      dup2\n      sload\n      swap1\n      0xff\n      mul\n      not\n      and\n      swap1\n      sstore\n      pop\n      pop\n        /* \"contracts/Marketplace2/Marketplace.sol\":21260:21268  deleteBy */\n      dup4\n        /* \"contracts/Marketplace2/Marketplace.sol\":21157:21307  DelistItemSuccessful(... */\n      0xffffffffffffffffffffffffffffffffffffffff\n      and\n        /* \"contracts/Marketplace2/Marketplace.sol\":21240:21246  itemId */\n      dup6\n        /* \"contracts/Marketplace2/Marketplace.sol\":21157:21307  DelistItemSuccessful(... */\n      0xc141ecc59e1a451ee7d3128743c8ca3174955ce97262896269482d5f84b39a85\n        /* \"contracts/Marketplace2/Marketplace.sol\":21191:21201  nftAddress */\n      dup9\n        /* \"contracts/Marketplace2/Marketplace.sol\":21215:21219  item */\n      dup7\n        /* \"contracts/Marketplace2/Marketplace.sol\":21215:21226  item.itemId */\n      0x00\n      add\n      mload\n        /* \"contracts/Marketplace2/Marketplace.sol\":21282:21297  block.timestamp */\n      timestamp\n        /* \"contracts/Marketplace2/Marketplace.sol\":21157:21307  DelistItemSuccessful(... */\n      mload(0x40)\n      tag_285\n      swap4\n      swap3\n      swap2\n      swap1\n      tag_286\n      jump\t// in\n    tag_285:\n      mload(0x40)\n      dup1\n      swap2\n      sub\n      swap1\n      log3\n        /* \"contracts/Marketplace2/Marketplace.sol\":20485:21314  {... */\n      pop\n      pop\n      pop\n      pop\n        /* \"contracts/Marketplace2/Marketplace.sol\":20422:21314  function delistItem(address nftAddress, uint256 itemId) public {... */\n      pop\n      pop\n      jump\t// out\n        /* \"contracts/Marketplace2/Marketplace.sol\":16242:16269  uint8 public antaFeePercent */\n    tag_105:\n      0x0c\n      0x15\n      swap1\n      sload\n      swap1\n      0x0100\n      exp\n      swap1\n      div\n      0xff\n      and\n      dup2\n      jump\t// out\n        /* \"contracts/Marketplace2/Marketplace.sol\":16151:16174  IFactory public factory */\n    tag_109:\n      0x0b\n      0x00\n      swap1\n      sload\n      swap1\n      0x0100\n      exp\n      swap1\n      div\n      0xffffffffffffffffffffffffffffffffffffffff\n      and\n      dup2\n      jump\t// out\n        /* \"contracts/Marketplace2/Marketplace.sol\":17638:17775  function getMarketItem(uint256 marketItemId) public view returns (MarketItem memory) {... */\n    tag_115:\n        /* \"contracts/Marketplace2/Marketplace.sol\":17704:17721  MarketItem memory */\n      tag_287\n      tag_132\n      jump\t// in\n    tag_287:\n        /* \"contracts/Marketplace2/Marketplace.sol\":17740:17754  idToMarketItem */\n      0x10\n        /* \"contracts/Marketplace2/Marketplace.sol\":17740:17768  idToMarketItem[marketItemId] */\n      0x00\n        /* \"contracts/Marketplace2/Marketplace.sol\":17755:17767  marketItemId */\n      dup4\n        /* \"contracts/Marketplace2/Marketplace.sol\":17740:17768  idToMarketItem[marketItemId] */\n      dup2\n      mstore\n      0x20\n      add\n      swap1\n      dup2\n      mstore\n      0x20\n      add\n      0x00\n      keccak256\n        /* \"contracts/Marketplace2/Marketplace.sol\":17733:17768  return idToMarketItem[marketItemId] */\n      mload(0x40)\n      dup1\n      0xe0\n      add\n      0x40\n      mstore\n      swap1\n      dup2\n      0x00\n      dup3\n      add\n      sload\n      dup2\n      mstore\n      0x20\n      add\n      0x01\n      dup3\n      add\n      0x00\n      swap1\n      sload\n      swap1\n      0x0100\n      exp\n      swap1\n      div\n      0xffffffffffffffffffffffffffffffffffffffff\n      and\n      0xffffffffffffffffffffffffffffffffffffffff\n      and\n      0xffffffffffffffffffffffffffffffffffffffff\n      and\n      dup2\n      mstore\n      0x20\n      add\n      0x02\n      dup3\n      add\n      sload\n      dup2\n      mstore\n      0x20\n      add\n      0x03\n      dup3\n      add\n      0x00\n      swap1\n      sload\n      swap1\n      0x0100\n      exp\n      swap1\n      div\n      0xffffffffffffffffffffffffffffffffffffffff\n      and\n      0xffffffffffffffffffffffffffffffffffffffff\n      and\n      0xffffffffffffffffffffffffffffffffffffffff\n      and\n      dup2\n      mstore\n      0x20\n      add\n      0x04\n      dup3\n      add\n      0x00\n      swap1\n      sload\n      swap1\n      0x0100\n      exp\n      swap1\n      div\n      0xffffffffffffffffffffffffffffffffffffffff\n      and\n      0xffffffffffffffffffffffffffffffffffffffff\n      and\n      0xffffffffffffffffffffffffffffffffffffffff\n      and\n      dup2\n      mstore\n      0x20\n      add\n      0x05\n      dup3\n      add\n      sload\n      dup2\n      mstore\n      0x20\n      add\n      0x06\n      dup3\n      add\n      0x00\n      swap1\n      sload\n      swap1\n      0x0100\n      exp\n      swap1\n      div\n      0xff\n      and\n      0x01\n      dup2\n      gt\n      iszero\n      tag_289\n      jumpi\n      tag_290\n      tag_136\n      jump\t// in\n    tag_290:\n    tag_289:\n      0x01\n      dup2\n      gt\n      iszero\n      tag_291\n      jumpi\n      tag_292\n      tag_136\n      jump\t// in\n    tag_292:\n    tag_291:\n      dup2\n      mstore\n      pop\n      pop\n      swap1\n      pop\n        /* \"contracts/Marketplace2/Marketplace.sol\":17638:17775  function getMarketItem(uint256 marketItemId) public view returns (MarketItem memory) {... */\n      swap2\n      swap1\n      pop\n      jump\t// out\n        /* \"contracts/Marketplace2/Marketplace.sol\":2558:2756  function transferOwnership(address newOwner) public virtual onlyOwner {... */\n    tag_120:\n        /* \"contracts/Marketplace2/Marketplace.sol\":1899:1911  _msgSender() */\n      tag_294\n        /* \"contracts/Marketplace2/Marketplace.sol\":1899:1909  _msgSender */\n      tag_141\n        /* \"contracts/Marketplace2/Marketplace.sol\":1899:1911  _msgSender() */\n      jump\t// in\n    tag_294:\n        /* \"contracts/Marketplace2/Marketplace.sol\":1888:1911  owner() == _msgSender() */\n      0xffffffffffffffffffffffffffffffffffffffff\n      and\n        /* \"contracts/Marketplace2/Marketplace.sol\":1888:1895  owner() */\n      tag_295\n        /* \"contracts/Marketplace2/Marketplace.sol\":1888:1893  owner */\n      tag_91\n        /* \"contracts/Marketplace2/Marketplace.sol\":1888:1895  owner() */\n      jump\t// in\n    tag_295:\n        /* \"contracts/Marketplace2/Marketplace.sol\":1888:1911  owner() == _msgSender() */\n      0xffffffffffffffffffffffffffffffffffffffff\n      and\n      eq\n        /* \"contracts/Marketplace2/Marketplace.sol\":1880:1948  require(owner() == _msgSender(), \"Ownable: caller is not the owner\") */\n      tag_296\n      jumpi\n      mload(0x40)\n      0x08c379a000000000000000000000000000000000000000000000000000000000\n      dup2\n      mstore\n      0x04\n      add\n      tag_297\n      swap1\n      tag_145\n      jump\t// in\n    tag_297:\n      mload(0x40)\n      dup1\n      swap2\n      sub\n      swap1\n      revert\n    tag_296:\n        /* \"contracts/Marketplace2/Marketplace.sol\":2666:2667  0 */\n      0x00\n        /* \"contracts/Marketplace2/Marketplace.sol\":2646:2668  newOwner != address(0) */\n      0xffffffffffffffffffffffffffffffffffffffff\n      and\n        /* \"contracts/Marketplace2/Marketplace.sol\":2646:2654  newOwner */\n      dup2\n        /* \"contracts/Marketplace2/Marketplace.sol\":2646:2668  newOwner != address(0) */\n      0xffffffffffffffffffffffffffffffffffffffff\n      and\n      sub\n        /* \"contracts/Marketplace2/Marketplace.sol\":2638:2711  require(newOwner != address(0), \"Ownable: new owner is the zero address\") */\n      tag_299\n      jumpi\n      mload(0x40)\n      0x08c379a000000000000000000000000000000000000000000000000000000000\n      dup2\n      mstore\n      0x04\n      add\n      tag_300\n      swap1\n      tag_301\n      jump\t// in\n    tag_300:\n      mload(0x40)\n      dup1\n      swap2\n      sub\n      swap1\n      revert\n    tag_299:\n        /* \"contracts/Marketplace2/Marketplace.sol\":2721:2749  _transferOwnership(newOwner) */\n      tag_302\n        /* \"contracts/Marketplace2/Marketplace.sol\":2740:2748  newOwner */\n      dup2\n        /* \"contracts/Marketplace2/Marketplace.sol\":2721:2739  _transferOwnership */\n      tag_232\n        /* \"contracts/Marketplace2/Marketplace.sol\":2721:2749  _transferOwnership(newOwner) */\n      jump\t// in\n    tag_302:\n        /* \"contracts/Marketplace2/Marketplace.sol\":2558:2756  function transferOwnership(address newOwner) public virtual onlyOwner {... */\n      pop\n      jump\t// out\n        /* \"contracts/Marketplace2/Marketplace.sol\":16180:16203  IERC721 public mainNFTs */\n    tag_123:\n      0x0c\n      0x00\n      swap1\n      sload\n      swap1\n      0x0100\n      exp\n      swap1\n      div\n      0xffffffffffffffffffffffffffffffffffffffff\n      and\n      dup2\n      jump\t// out\n        /* \"contracts/Marketplace2/Marketplace.sol\":15928:15975  mapping (uint256 => MarketItem) public allItems */\n    tag_129:\n      mstore(0x20, 0x08)\n      dup1\n      0x00\n      mstore\n      keccak256(0x00, 0x40)\n      0x00\n      swap2\n      pop\n      swap1\n      pop\n      dup1\n      0x00\n      add\n      sload\n      swap1\n      dup1\n      0x01\n      add\n      0x00\n      swap1\n      sload\n      swap1\n      0x0100\n      exp\n      swap1\n      div\n      0xffffffffffffffffffffffffffffffffffffffff\n      and\n      swap1\n      dup1\n      0x02\n      add\n      sload\n      swap1\n      dup1\n      0x03\n      add\n      0x00\n      swap1\n      sload\n      swap1\n      0x0100\n      exp\n      swap1\n      div\n      0xffffffffffffffffffffffffffffffffffffffff\n      and\n      swap1\n      dup1\n      0x04\n      add\n      0x00\n      swap1\n      sload\n      swap1\n      0x0100\n      exp\n      swap1\n      div\n      0xffffffffffffffffffffffffffffffffffffffff\n      and\n      swap1\n      dup1\n      0x05\n      add\n      sload\n      swap1\n      dup1\n      0x06\n      add\n      0x00\n      swap1\n      sload\n      swap1\n      0x0100\n      exp\n      swap1\n      div\n      0xff\n      and\n      swap1\n      pop\n      dup8\n      jump\t// out\n        /* \"contracts/Marketplace2/Marketplace.sol\":554:650  function _msgSender() internal view virtual returns (address) {... */\n    tag_141:\n        /* \"contracts/Marketplace2/Marketplace.sol\":607:614  address */\n      0x00\n        /* \"contracts/Marketplace2/Marketplace.sol\":633:643  msg.sender */\n      caller\n        /* \"contracts/Marketplace2/Marketplace.sol\":626:643  return msg.sender */\n      swap1\n      pop\n        /* \"contracts/Marketplace2/Marketplace.sol\":554:650  function _msgSender() internal view virtual returns (address) {... */\n      swap1\n      jump\t// out\n        /* \"contracts/Marketplace2/Marketplace.sol\":11851:11963  function current(Counter storage counter) internal view returns (uint256) {... */\n    tag_149:\n        /* \"contracts/Marketplace2/Marketplace.sol\":11916:11923  uint256 */\n      0x00\n        /* \"contracts/Marketplace2/Marketplace.sol\":11942:11949  counter */\n      dup2\n        /* \"contracts/Marketplace2/Marketplace.sol\":11942:11956  counter._value */\n      0x00\n      add\n      sload\n        /* \"contracts/Marketplace2/Marketplace.sol\":11935:11956  return counter._value */\n      swap1\n      pop\n        /* \"contracts/Marketplace2/Marketplace.sol\":11851:11963  function current(Counter storage counter) internal view returns (uint256) {... */\n      swap2\n      swap1\n      pop\n      jump\t// out\n        /* \"contracts/Marketplace2/Marketplace.sol\":11969:12092  function increment(Counter storage counter) internal {... */\n    tag_207:\n        /* \"contracts/Marketplace2/Marketplace.sol\":12074:12075  1 */\n      0x01\n        /* \"contracts/Marketplace2/Marketplace.sol\":12056:12063  counter */\n      dup2\n        /* \"contracts/Marketplace2/Marketplace.sol\":12056:12070  counter._value */\n      0x00\n      add\n      0x00\n        /* \"contracts/Marketplace2/Marketplace.sol\":12056:12075  counter._value += 1 */\n      dup3\n      dup3\n      sload\n      add\n      swap3\n      pop\n      pop\n      dup2\n      swap1\n      sstore\n      pop\n        /* \"contracts/Marketplace2/Marketplace.sol\":11969:12092  function increment(Counter storage counter) internal {... */\n      pop\n      jump\t// out\n        /* \"contracts/Marketplace2/Marketplace.sol\":2910:3097  function _transferOwnership(address newOwner) internal virtual {... */\n    tag_232:\n        /* \"contracts/Marketplace2/Marketplace.sol\":2983:2999  address oldOwner */\n      0x00\n        /* \"contracts/Marketplace2/Marketplace.sol\":3002:3008  _owner */\n      0x0d\n      0x00\n      swap1\n      sload\n      swap1\n      0x0100\n      exp\n      swap1\n      div\n      0xffffffffffffffffffffffffffffffffffffffff\n      and\n        /* \"contracts/Marketplace2/Marketplace.sol\":2983:3008  address oldOwner = _owner */\n      swap1\n      pop\n        /* \"contracts/Marketplace2/Marketplace.sol\":3027:3035  newOwner */\n      dup2\n        /* \"contracts/Marketplace2/Marketplace.sol\":3018:3024  _owner */\n      0x0d\n      0x00\n        /* \"contracts/Marketplace2/Marketplace.sol\":3018:3035  _owner = newOwner */\n      0x0100\n      exp\n      dup2\n      sload\n      dup2\n      0xffffffffffffffffffffffffffffffffffffffff\n      mul\n      not\n      and\n      swap1\n      dup4\n      0xffffffffffffffffffffffffffffffffffffffff\n      and\n      mul\n      or\n      swap1\n      sstore\n      pop\n        /* \"contracts/Marketplace2/Marketplace.sol\":3081:3089  newOwner */\n      dup2\n        /* \"contracts/Marketplace2/Marketplace.sol\":3050:3090  OwnershipTransferred(oldOwner, newOwner) */\n      0xffffffffffffffffffffffffffffffffffffffff\n      and\n        /* \"contracts/Marketplace2/Marketplace.sol\":3071:3079  oldOwner */\n      dup2\n        /* \"contracts/Marketplace2/Marketplace.sol\":3050:3090  OwnershipTransferred(oldOwner, newOwner) */\n      0xffffffffffffffffffffffffffffffffffffffff\n      and\n      0x8be0079c531659141344cd1fd0a4f28419497f9722a3daafe3b4186f6b6457e0\n      mload(0x40)\n      mload(0x40)\n      dup1\n      swap2\n      sub\n      swap1\n      log3\n        /* \"contracts/Marketplace2/Marketplace.sol\":2973:3097  {... */\n      pop\n        /* \"contracts/Marketplace2/Marketplace.sol\":2910:3097  function _transferOwnership(address newOwner) internal virtual {... */\n      pop\n      jump\t// out\n        /* \"contracts/Marketplace2/Marketplace.sol\":22720:23109  function _requireERC721(address nftAddress) internal view {... */\n    tag_256:\n        /* \"contracts/Marketplace2/Marketplace.sol\":22809:22831  isContract(nftAddress) */\n      tag_308\n        /* \"contracts/Marketplace2/Marketplace.sol\":22820:22830  nftAddress */\n      dup2\n        /* \"contracts/Marketplace2/Marketplace.sol\":22809:22819  isContract */\n      tag_309\n        /* \"contracts/Marketplace2/Marketplace.sol\":22809:22831  isContract(nftAddress) */\n      jump\t// in\n    tag_308:\n        /* \"contracts/Marketplace2/Marketplace.sol\":22788:22893  require(... */\n      tag_310\n      jumpi\n      mload(0x40)\n      0x08c379a000000000000000000000000000000000000000000000000000000000\n      dup2\n      mstore\n      0x04\n      add\n      tag_311\n      swap1\n      tag_312\n      jump\t// in\n    tag_311:\n      mload(0x40)\n      dup1\n      swap2\n      sub\n      swap1\n      revert\n    tag_310:\n        /* \"contracts/Marketplace2/Marketplace.sol\":22904:22923  IERC721 nftRegistry */\n      0x00\n        /* \"contracts/Marketplace2/Marketplace.sol\":22934:22944  nftAddress */\n      dup2\n        /* \"contracts/Marketplace2/Marketplace.sol\":22904:22945  IERC721 nftRegistry = IERC721(nftAddress) */\n      swap1\n      pop\n        /* \"contracts/Marketplace2/Marketplace.sol\":22976:22987  nftRegistry */\n      dup1\n        /* \"contracts/Marketplace2/Marketplace.sol\":22976:23005  nftRegistry.supportsInterface */\n      0xffffffffffffffffffffffffffffffffffffffff\n      and\n      0x01ffc9a7\n        /* \"contracts/Marketplace2/Marketplace.sol\":15910:15920  0x80ac58cd */\n      0x80ac58cd\n        /* \"contracts/Marketplace2/Marketplace.sol\":15903:15921  bytes4(0x80ac58cd) */\n      0xe0\n      shl\n        /* \"contracts/Marketplace2/Marketplace.sol\":22976:23023  nftRegistry.supportsInterface(ERC721_Interface) */\n      mload(0x40)\n      dup3\n      0xffffffff\n      and\n      0xe0\n      shl\n      dup2\n      mstore\n      0x04\n      add\n      tag_313\n      swap2\n      swap1\n      tag_56\n      jump\t// in\n    tag_313:\n      0x20\n      mload(0x40)\n      dup1\n      dup4\n      sub\n      dup2\n      dup7\n      gas\n      staticcall\n      iszero\n      dup1\n      iszero\n      tag_315\n      jumpi\n      returndatasize\n      0x00\n      dup1\n      returndatacopy\n      revert(0x00, returndatasize)\n    tag_315:\n      pop\n      pop\n      pop\n      pop\n      mload(0x40)\n      returndatasize\n      not(0x1f)\n      0x1f\n      dup3\n      add\n      and\n      dup3\n      add\n      dup1\n      0x40\n      mstore\n      pop\n      dup2\n      add\n      swap1\n      tag_316\n      swap2\n      swap1\n      tag_246\n      jump\t// in\n    tag_316:\n        /* \"contracts/Marketplace2/Marketplace.sol\":22955:23102  require(... */\n      tag_317\n      jumpi\n      mload(0x40)\n      0x08c379a000000000000000000000000000000000000000000000000000000000\n      dup2\n      mstore\n      0x04\n      add\n      tag_318\n      swap1\n      tag_319\n      jump\t// in\n    tag_318:\n      mload(0x40)\n      dup1\n      swap2\n      sub\n      swap1\n      revert\n    tag_317:\n        /* \"contracts/Marketplace2/Marketplace.sol\":22778:23109  {... */\n      pop\n        /* \"contracts/Marketplace2/Marketplace.sol\":22720:23109  function _requireERC721(address nftAddress) internal view {... */\n      pop\n      jump\t// out\n        /* \"contracts/Marketplace2/Marketplace.sol\":23115:23272  function isContract(address _addr) private view returns (bool){... */\n    tag_309:\n        /* \"contracts/Marketplace2/Marketplace.sol\":23172:23176  bool */\n      0x00\n        /* \"contracts/Marketplace2/Marketplace.sol\":23183:23194  uint32 size */\n      dup1\n        /* \"contracts/Marketplace2/Marketplace.sol\":23235:23240  _addr */\n      dup3\n        /* \"contracts/Marketplace2/Marketplace.sol\":23223:23241  extcodesize(_addr) */\n      extcodesize\n        /* \"contracts/Marketplace2/Marketplace.sol\":23215:23241  size := extcodesize(_addr) */\n      swap1\n      pop\n        /* \"contracts/Marketplace2/Marketplace.sol\":23267:23268  0 */\n      0x00\n        /* \"contracts/Marketplace2/Marketplace.sol\":23260:23264  size */\n      dup2\n        /* \"contracts/Marketplace2/Marketplace.sol\":23260:23268  size > 0 */\n      0xffffffff\n      and\n      gt\n        /* \"contracts/Marketplace2/Marketplace.sol\":23252:23269  return (size > 0) */\n      swap2\n      pop\n      pop\n        /* \"contracts/Marketplace2/Marketplace.sol\":23115:23272  function isContract(address _addr) private view returns (bool){... */\n      swap2\n      swap1\n      pop\n      jump\t// out\n    tag_132:\n      mload(0x40)\n      dup1\n      0xe0\n      add\n      0x40\n      mstore\n      dup1\n      0x00\n      dup2\n      mstore\n      0x20\n      add\n      and(0xffffffffffffffffffffffffffffffffffffffff, 0x00)\n      dup2\n      mstore\n      0x20\n      add\n      0x00\n      dup2\n      mstore\n      0x20\n      add\n      and(0xffffffffffffffffffffffffffffffffffffffff, 0x00)\n      dup2\n      mstore\n      0x20\n      add\n      and(0xffffffffffffffffffffffffffffffffffffffff, 0x00)\n      dup2\n      mstore\n      0x20\n      add\n      0x00\n      dup2\n      mstore\n      0x20\n      add\n      0x00\n      0x01\n      dup2\n      gt\n      iszero\n      tag_321\n      jumpi\n      tag_322\n      tag_136\n      jump\t// in\n    tag_322:\n    tag_321:\n      dup2\n      mstore\n      pop\n      swap1\n      jump\t// out\n        /* \"#utility.yul\":7:84   */\n    tag_323:\n        /* \"#utility.yul\":44:51   */\n      0x00\n        /* \"#utility.yul\":73:78   */\n      dup2\n        /* \"#utility.yul\":62:78   */\n      swap1\n      pop\n        /* \"#utility.yul\":7:84   */\n      swap2\n      swap1\n      pop\n      jump\t// out\n        /* \"#utility.yul\":90:198   */\n    tag_324:\n        /* \"#utility.yul\":167:191   */\n      tag_412\n        /* \"#utility.yul\":185:190   */\n      dup2\n        /* \"#utility.yul\":167:191   */\n      tag_323\n      jump\t// in\n    tag_412:\n        /* \"#utility.yul\":162:165   */\n      dup3\n        /* \"#utility.yul\":155:192   */\n      mstore\n        /* \"#utility.yul\":90:198   */\n      pop\n      pop\n      jump\t// out\n        /* \"#utility.yul\":204:330   */\n    tag_325:\n        /* \"#utility.yul\":241:248   */\n      0x00\n        /* \"#utility.yul\":281:323   */\n      0xffffffffffffffffffffffffffffffffffffffff\n        /* \"#utility.yul\":274:279   */\n      dup3\n        /* \"#utility.yul\":270:324   */\n      and\n        /* \"#utility.yul\":259:324   */\n      swap1\n      pop\n        /* \"#utility.yul\":204:330   */\n      swap2\n      swap1\n      pop\n      jump\t// out\n        /* \"#utility.yul\":336:432   */\n    tag_326:\n        /* \"#utility.yul\":373:380   */\n      0x00\n        /* \"#utility.yul\":402:426   */\n      tag_415\n        /* \"#utility.yul\":420:425   */\n      dup3\n        /* \"#utility.yul\":402:426   */\n      tag_325\n      jump\t// in\n    tag_415:\n        /* \"#utility.yul\":391:426   */\n      swap1\n      pop\n        /* \"#utility.yul\":336:432   */\n      swap2\n      swap1\n      pop\n      jump\t// out\n        /* \"#utility.yul\":438:546   */\n    tag_327:\n        /* \"#utility.yul\":515:539   */\n      tag_417\n        /* \"#utility.yul\":533:538   */\n      dup2\n        /* \"#utility.yul\":515:539   */\n      tag_326\n      jump\t// in\n    tag_417:\n        /* \"#utility.yul\":510:513   */\n      dup3\n        /* \"#utility.yul\":503:540   */\n      mstore\n        /* \"#utility.yul\":438:546   */\n      pop\n      pop\n      jump\t// out\n        /* \"#utility.yul\":552:656   */\n    tag_328:\n        /* \"#utility.yul\":597:604   */\n      0x00\n        /* \"#utility.yul\":626:650   */\n      tag_419\n        /* \"#utility.yul\":644:649   */\n      dup3\n        /* \"#utility.yul\":626:650   */\n      tag_325\n      jump\t// in\n    tag_419:\n        /* \"#utility.yul\":615:650   */\n      swap1\n      pop\n        /* \"#utility.yul\":552:656   */\n      swap2\n      swap1\n      pop\n      jump\t// out\n        /* \"#utility.yul\":662:794   */\n    tag_329:\n        /* \"#utility.yul\":755:787   */\n      tag_421\n        /* \"#utility.yul\":781:786   */\n      dup2\n        /* \"#utility.yul\":755:787   */\n      tag_328\n      jump\t// in\n    tag_421:\n        /* \"#utility.yul\":750:753   */\n      dup3\n        /* \"#utility.yul\":743:788   */\n      mstore\n        /* \"#utility.yul\":662:794   */\n      pop\n      pop\n      jump\t// out\n        /* \"#utility.yul\":800:980   */\n    tag_136:\n        /* \"#utility.yul\":848:925   */\n      0x4e487b7100000000000000000000000000000000000000000000000000000000\n        /* \"#utility.yul\":845:846   */\n      0x00\n        /* \"#utility.yul\":838:926   */\n      mstore\n        /* \"#utility.yul\":945:949   */\n      0x21\n        /* \"#utility.yul\":942:943   */\n      0x04\n        /* \"#utility.yul\":935:950   */\n      mstore\n        /* \"#utility.yul\":969:973   */\n      0x24\n        /* \"#utility.yul\":966:967   */\n      0x00\n        /* \"#utility.yul\":959:974   */\n      revert\n        /* \"#utility.yul\":986:1105   */\n    tag_330:\n        /* \"#utility.yul\":1073:1074   */\n      0x02\n        /* \"#utility.yul\":1066:1071   */\n      dup2\n        /* \"#utility.yul\":1063:1075   */\n      lt\n        /* \"#utility.yul\":1053:1099   */\n      tag_424\n      jumpi\n        /* \"#utility.yul\":1079:1097   */\n      tag_425\n      tag_136\n      jump\t// in\n    tag_425:\n        /* \"#utility.yul\":1053:1099   */\n    tag_424:\n        /* \"#utility.yul\":986:1105   */\n      pop\n      jump\t// out\n        /* \"#utility.yul\":1111:1250   */\n    tag_331:\n        /* \"#utility.yul\":1162:1169   */\n      0x00\n        /* \"#utility.yul\":1191:1196   */\n      dup2\n        /* \"#utility.yul\":1180:1196   */\n      swap1\n      pop\n        /* \"#utility.yul\":1197:1244   */\n      tag_427\n        /* \"#utility.yul\":1238:1243   */\n      dup3\n        /* \"#utility.yul\":1197:1244   */\n      tag_330\n      jump\t// in\n    tag_427:\n        /* \"#utility.yul\":1111:1250   */\n      swap2\n      swap1\n      pop\n      jump\t// out\n        /* \"#utility.yul\":1256:1395   */\n    tag_332:\n        /* \"#utility.yul\":1318:1327   */\n      0x00\n        /* \"#utility.yul\":1351:1389   */\n      tag_429\n        /* \"#utility.yul\":1383:1388   */\n      dup3\n        /* \"#utility.yul\":1351:1389   */\n      tag_331\n      jump\t// in\n    tag_429:\n        /* \"#utility.yul\":1338:1389   */\n      swap1\n      pop\n        /* \"#utility.yul\":1256:1395   */\n      swap2\n      swap1\n      pop\n      jump\t// out\n        /* \"#utility.yul\":1401:1546   */\n    tag_333:\n        /* \"#utility.yul\":1490:1539   */\n      tag_431\n        /* \"#utility.yul\":1533:1538   */\n      dup2\n        /* \"#utility.yul\":1490:1539   */\n      tag_332\n      jump\t// in\n    tag_431:\n        /* \"#utility.yul\":1485:1488   */\n      dup3\n        /* \"#utility.yul\":1478:1540   */\n      mstore\n        /* \"#utility.yul\":1401:1546   */\n      pop\n      pop\n      jump\t// out\n        /* \"#utility.yul\":1636:3079   */\n    tag_334:\n        /* \"#utility.yul\":1787:1791   */\n      0xe0\n        /* \"#utility.yul\":1782:1785   */\n      dup3\n        /* \"#utility.yul\":1778:1792   */\n      add\n        /* \"#utility.yul\":1876:1880   */\n      0x00\n        /* \"#utility.yul\":1869:1874   */\n      dup3\n        /* \"#utility.yul\":1865:1881   */\n      add\n        /* \"#utility.yul\":1859:1882   */\n      mload\n        /* \"#utility.yul\":1895:1958   */\n      tag_433\n        /* \"#utility.yul\":1952:1956   */\n      0x00\n        /* \"#utility.yul\":1947:1950   */\n      dup6\n        /* \"#utility.yul\":1943:1957   */\n      add\n        /* \"#utility.yul\":1929:1941   */\n      dup3\n        /* \"#utility.yul\":1895:1958   */\n      tag_324\n      jump\t// in\n    tag_433:\n        /* \"#utility.yul\":1802:1968   */\n      pop\n        /* \"#utility.yul\":2057:2061   */\n      0x20\n        /* \"#utility.yul\":2050:2055   */\n      dup3\n        /* \"#utility.yul\":2046:2062   */\n      add\n        /* \"#utility.yul\":2040:2063   */\n      mload\n        /* \"#utility.yul\":2076:2139   */\n      tag_434\n        /* \"#utility.yul\":2133:2137   */\n      0x20\n        /* \"#utility.yul\":2128:2131   */\n      dup6\n        /* \"#utility.yul\":2124:2138   */\n      add\n        /* \"#utility.yul\":2110:2122   */\n      dup3\n        /* \"#utility.yul\":2076:2139   */\n      tag_327\n      jump\t// in\n    tag_434:\n        /* \"#utility.yul\":1978:2149   */\n      pop\n        /* \"#utility.yul\":2234:2238   */\n      0x40\n        /* \"#utility.yul\":2227:2232   */\n      dup3\n        /* \"#utility.yul\":2223:2239   */\n      add\n        /* \"#utility.yul\":2217:2240   */\n      mload\n        /* \"#utility.yul\":2253:2316   */\n      tag_435\n        /* \"#utility.yul\":2310:2314   */\n      0x40\n        /* \"#utility.yul\":2305:2308   */\n      dup6\n        /* \"#utility.yul\":2301:2315   */\n      add\n        /* \"#utility.yul\":2287:2299   */\n      dup3\n        /* \"#utility.yul\":2253:2316   */\n      tag_324\n      jump\t// in\n    tag_435:\n        /* \"#utility.yul\":2159:2326   */\n      pop\n        /* \"#utility.yul\":2410:2414   */\n      0x60\n        /* \"#utility.yul\":2403:2408   */\n      dup3\n        /* \"#utility.yul\":2399:2415   */\n      add\n        /* \"#utility.yul\":2393:2416   */\n      mload\n        /* \"#utility.yul\":2429:2508   */\n      tag_436\n        /* \"#utility.yul\":2502:2506   */\n      0x60\n        /* \"#utility.yul\":2497:2500   */\n      dup6\n        /* \"#utility.yul\":2493:2507   */\n      add\n        /* \"#utility.yul\":2479:2491   */\n      dup3\n        /* \"#utility.yul\":2429:2508   */\n      tag_329\n      jump\t// in\n    tag_436:\n        /* \"#utility.yul\":2336:2518   */\n      pop\n        /* \"#utility.yul\":2601:2605   */\n      0x80\n        /* \"#utility.yul\":2594:2599   */\n      dup3\n        /* \"#utility.yul\":2590:2606   */\n      add\n        /* \"#utility.yul\":2584:2607   */\n      mload\n        /* \"#utility.yul\":2620:2699   */\n      tag_437\n        /* \"#utility.yul\":2693:2697   */\n      0x80\n        /* \"#utility.yul\":2688:2691   */\n      dup6\n        /* \"#utility.yul\":2684:2698   */\n      add\n        /* \"#utility.yul\":2670:2682   */\n      dup3\n        /* \"#utility.yul\":2620:2699   */\n      tag_329\n      jump\t// in\n    tag_437:\n        /* \"#utility.yul\":2528:2709   */\n      pop\n        /* \"#utility.yul\":2792:2796   */\n      0xa0\n        /* \"#utility.yul\":2785:2790   */\n      dup3\n        /* \"#utility.yul\":2781:2797   */\n      add\n        /* \"#utility.yul\":2775:2798   */\n      mload\n        /* \"#utility.yul\":2811:2874   */\n      tag_438\n        /* \"#utility.yul\":2868:2872   */\n      0xa0\n        /* \"#utility.yul\":2863:2866   */\n      dup6\n        /* \"#utility.yul\":2859:2873   */\n      add\n        /* \"#utility.yul\":2845:2857   */\n      dup3\n        /* \"#utility.yul\":2811:2874   */\n      tag_324\n      jump\t// in\n    tag_438:\n        /* \"#utility.yul\":2719:2884   */\n      pop\n        /* \"#utility.yul\":2968:2972   */\n      0xc0\n        /* \"#utility.yul\":2961:2966   */\n      dup3\n        /* \"#utility.yul\":2957:2973   */\n      add\n        /* \"#utility.yul\":2951:2974   */\n      mload\n        /* \"#utility.yul\":2987:3062   */\n      tag_439\n        /* \"#utility.yul\":3056:3060   */\n      0xc0\n        /* \"#utility.yul\":3051:3054   */\n      dup6\n        /* \"#utility.yul\":3047:3061   */\n      add\n        /* \"#utility.yul\":3033:3045   */\n      dup3\n        /* \"#utility.yul\":2987:3062   */\n      tag_333\n      jump\t// in\n    tag_439:\n        /* \"#utility.yul\":2894:3072   */\n      pop\n        /* \"#utility.yul\":1756:3079   */\n      pop\n        /* \"#utility.yul\":1636:3079   */\n      pop\n      pop\n      jump\t// out\n        /* \"#utility.yul\":3085:3416   */\n    tag_31:\n        /* \"#utility.yul\":3232:3236   */\n      0x00\n        /* \"#utility.yul\":3270:3273   */\n      0xe0\n        /* \"#utility.yul\":3259:3268   */\n      dup3\n        /* \"#utility.yul\":3255:3274   */\n      add\n        /* \"#utility.yul\":3247:3274   */\n      swap1\n      pop\n        /* \"#utility.yul\":3284:3409   */\n      tag_441\n        /* \"#utility.yul\":3406:3407   */\n      0x00\n        /* \"#utility.yul\":3395:3404   */\n      dup4\n        /* \"#utility.yul\":3391:3408   */\n      add\n        /* \"#utility.yul\":3382:3388   */\n      dup5\n        /* \"#utility.yul\":3284:3409   */\n      tag_334\n      jump\t// in\n    tag_441:\n        /* \"#utility.yul\":3085:3416   */\n      swap3\n      swap2\n      pop\n      pop\n      jump\t// out\n        /* \"#utility.yul\":3422:3497   */\n    tag_335:\n        /* \"#utility.yul\":3455:3461   */\n      0x00\n        /* \"#utility.yul\":3488:3490   */\n      0x40\n        /* \"#utility.yul\":3482:3491   */\n      mload\n        /* \"#utility.yul\":3472:3491   */\n      swap1\n      pop\n        /* \"#utility.yul\":3422:3497   */\n      swap1\n      jump\t// out\n        /* \"#utility.yul\":3503:3620   */\n    tag_336:\n        /* \"#utility.yul\":3612:3613   */\n      0x00\n        /* \"#utility.yul\":3609:3610   */\n      dup1\n        /* \"#utility.yul\":3602:3614   */\n      revert\n        /* \"#utility.yul\":3626:3743   */\n    tag_337:\n        /* \"#utility.yul\":3735:3736   */\n      0x00\n        /* \"#utility.yul\":3732:3733   */\n      dup1\n        /* \"#utility.yul\":3725:3737   */\n      revert\n        /* \"#utility.yul\":3749:3871   */\n    tag_338:\n        /* \"#utility.yul\":3822:3846   */\n      tag_446\n        /* \"#utility.yul\":3840:3845   */\n      dup2\n        /* \"#utility.yul\":3822:3846   */\n      tag_326\n      jump\t// in\n    tag_446:\n        /* \"#utility.yul\":3815:3820   */\n      dup2\n        /* \"#utility.yul\":3812:3847   */\n      eq\n        /* \"#utility.yul\":3802:3865   */\n      tag_447\n      jumpi\n        /* \"#utility.yul\":3861:3862   */\n      0x00\n        /* \"#utility.yul\":3858:3859   */\n      dup1\n        /* \"#utility.yul\":3851:3863   */\n      revert\n        /* \"#utility.yul\":3802:3865   */\n    tag_447:\n        /* \"#utility.yul\":3749:3871   */\n      pop\n      jump\t// out\n        /* \"#utility.yul\":3877:4016   */\n    tag_339:\n        /* \"#utility.yul\":3923:3928   */\n      0x00\n        /* \"#utility.yul\":3961:3967   */\n      dup2\n        /* \"#utility.yul\":3948:3968   */\n      calldataload\n        /* \"#utility.yul\":3939:3968   */\n      swap1\n      pop\n        /* \"#utility.yul\":3977:4010   */\n      tag_449\n        /* \"#utility.yul\":4004:4009   */\n      dup2\n        /* \"#utility.yul\":3977:4010   */\n      tag_338\n      jump\t// in\n    tag_449:\n        /* \"#utility.yul\":3877:4016   */\n      swap3\n      swap2\n      pop\n      pop\n      jump\t// out\n        /* \"#utility.yul\":4022:4351   */\n    tag_35:\n        /* \"#utility.yul\":4081:4087   */\n      0x00\n        /* \"#utility.yul\":4130:4132   */\n      0x20\n        /* \"#utility.yul\":4118:4127   */\n      dup3\n        /* \"#utility.yul\":4109:4116   */\n      dup5\n        /* \"#utility.yul\":4105:4128   */\n      sub\n        /* \"#utility.yul\":4101:4133   */\n      slt\n        /* \"#utility.yul\":4098:4217   */\n      iszero\n      tag_451\n      jumpi\n        /* \"#utility.yul\":4136:4215   */\n      tag_452\n      tag_336\n      jump\t// in\n    tag_452:\n        /* \"#utility.yul\":4098:4217   */\n    tag_451:\n        /* \"#utility.yul\":4256:4257   */\n      0x00\n        /* \"#utility.yul\":4281:4334   */\n      tag_453\n        /* \"#utility.yul\":4326:4333   */\n      dup5\n        /* \"#utility.yul\":4317:4323   */\n      dup3\n        /* \"#utility.yul\":4306:4315   */\n      dup6\n        /* \"#utility.yul\":4302:4324   */\n      add\n        /* \"#utility.yul\":4281:4334   */\n      tag_339\n      jump\t// in\n    tag_453:\n        /* \"#utility.yul\":4271:4334   */\n      swap2\n      pop\n        /* \"#utility.yul\":4227:4344   */\n      pop\n        /* \"#utility.yul\":4022:4351   */\n      swap3\n      swap2\n      pop\n      pop\n      jump\t// out\n        /* \"#utility.yul\":4357:4498   */\n    tag_340:\n        /* \"#utility.yul\":4451:4457   */\n      0x00\n        /* \"#utility.yul\":4485:4490   */\n      dup2\n        /* \"#utility.yul\":4479:4491   */\n      mload\n        /* \"#utility.yul\":4469:4491   */\n      swap1\n      pop\n        /* \"#utility.yul\":4357:4498   */\n      swap2\n      swap1\n      pop\n      jump\t// out\n        /* \"#utility.yul\":4504:4715   */\n    tag_341:\n        /* \"#utility.yul\":4630:4641   */\n      0x00\n        /* \"#utility.yul\":4664:4670   */\n      dup3\n        /* \"#utility.yul\":4659:4662   */\n      dup3\n        /* \"#utility.yul\":4652:4671   */\n      mstore\n        /* \"#utility.yul\":4704:4708   */\n      0x20\n        /* \"#utility.yul\":4699:4702   */\n      dup3\n        /* \"#utility.yul\":4695:4709   */\n      add\n        /* \"#utility.yul\":4680:4709   */\n      swap1\n      pop\n        /* \"#utility.yul\":4504:4715   */\n      swap3\n      swap2\n      pop\n      pop\n      jump\t// out\n        /* \"#utility.yul\":4721:4880   */\n    tag_342:\n        /* \"#utility.yul\":4815:4819   */\n      0x00\n        /* \"#utility.yul\":4838:4841   */\n      dup2\n        /* \"#utility.yul\":4830:4841   */\n      swap1\n      pop\n        /* \"#utility.yul\":4868:4872   */\n      0x20\n        /* \"#utility.yul\":4863:4866   */\n      dup3\n        /* \"#utility.yul\":4859:4873   */\n      add\n        /* \"#utility.yul\":4851:4873   */\n      swap1\n      pop\n        /* \"#utility.yul\":4721:4880   */\n      swap2\n      swap1\n      pop\n      jump\t// out\n        /* \"#utility.yul\":4970:6403   */\n    tag_343:\n        /* \"#utility.yul\":5111:5115   */\n      0xe0\n        /* \"#utility.yul\":5106:5109   */\n      dup3\n        /* \"#utility.yul\":5102:5116   */\n      add\n        /* \"#utility.yul\":5200:5204   */\n      0x00\n        /* \"#utility.yul\":5193:5198   */\n      dup3\n        /* \"#utility.yul\":5189:5205   */\n      add\n        /* \"#utility.yul\":5183:5206   */\n      mload\n        /* \"#utility.yul\":5219:5282   */\n      tag_458\n        /* \"#utility.yul\":5276:5280   */\n      0x00\n        /* \"#utility.yul\":5271:5274   */\n      dup6\n        /* \"#utility.yul\":5267:5281   */\n      add\n        /* \"#utility.yul\":5253:5265   */\n      dup3\n        /* \"#utility.yul\":5219:5282   */\n      tag_324\n      jump\t// in\n    tag_458:\n        /* \"#utility.yul\":5126:5292   */\n      pop\n        /* \"#utility.yul\":5381:5385   */\n      0x20\n        /* \"#utility.yul\":5374:5379   */\n      dup3\n        /* \"#utility.yul\":5370:5386   */\n      add\n        /* \"#utility.yul\":5364:5387   */\n      mload\n        /* \"#utility.yul\":5400:5463   */\n      tag_459\n        /* \"#utility.yul\":5457:5461   */\n      0x20\n        /* \"#utility.yul\":5452:5455   */\n      dup6\n        /* \"#utility.yul\":5448:5462   */\n      add\n        /* \"#utility.yul\":5434:5446   */\n      dup3\n        /* \"#utility.yul\":5400:5463   */\n      tag_327\n      jump\t// in\n    tag_459:\n        /* \"#utility.yul\":5302:5473   */\n      pop\n        /* \"#utility.yul\":5558:5562   */\n      0x40\n        /* \"#utility.yul\":5551:5556   */\n      dup3\n        /* \"#utility.yul\":5547:5563   */\n      add\n        /* \"#utility.yul\":5541:5564   */\n      mload\n        /* \"#utility.yul\":5577:5640   */\n      tag_460\n        /* \"#utility.yul\":5634:5638   */\n      0x40\n        /* \"#utility.yul\":5629:5632   */\n      dup6\n        /* \"#utility.yul\":5625:5639   */\n      add\n        /* \"#utility.yul\":5611:5623   */\n      dup3\n        /* \"#utility.yul\":5577:5640   */\n      tag_324\n      jump\t// in\n    tag_460:\n        /* \"#utility.yul\":5483:5650   */\n      pop\n        /* \"#utility.yul\":5734:5738   */\n      0x60\n        /* \"#utility.yul\":5727:5732   */\n      dup3\n        /* \"#utility.yul\":5723:5739   */\n      add\n        /* \"#utility.yul\":5717:5740   */\n      mload\n        /* \"#utility.yul\":5753:5832   */\n      tag_461\n        /* \"#utility.yul\":5826:5830   */\n      0x60\n        /* \"#utility.yul\":5821:5824   */\n      dup6\n        /* \"#utility.yul\":5817:5831   */\n      add\n        /* \"#utility.yul\":5803:5815   */\n      dup3\n        /* \"#utility.yul\":5753:5832   */\n      tag_329\n      jump\t// in\n    tag_461:\n        /* \"#utility.yul\":5660:5842   */\n      pop\n        /* \"#utility.yul\":5925:5929   */\n      0x80\n        /* \"#utility.yul\":5918:5923   */\n      dup3\n        /* \"#utility.yul\":5914:5930   */\n      add\n        /* \"#utility.yul\":5908:5931   */\n      mload\n        /* \"#utility.yul\":5944:6023   */\n      tag_462\n        /* \"#utility.yul\":6017:6021   */\n      0x80\n        /* \"#utility.yul\":6012:6015   */\n      dup6\n        /* \"#utility.yul\":6008:6022   */\n      add\n        /* \"#utility.yul\":5994:6006   */\n      dup3\n        /* \"#utility.yul\":5944:6023   */\n      tag_329\n      jump\t// in\n    tag_462:\n        /* \"#utility.yul\":5852:6033   */\n      pop\n        /* \"#utility.yul\":6116:6120   */\n      0xa0\n        /* \"#utility.yul\":6109:6114   */\n      dup3\n        /* \"#utility.yul\":6105:6121   */\n      add\n        /* \"#utility.yul\":6099:6122   */\n      mload\n        /* \"#utility.yul\":6135:6198   */\n      tag_463\n        /* \"#utility.yul\":6192:6196   */\n      0xa0\n        /* \"#utility.yul\":6187:6190   */\n      dup6\n        /* \"#utility.yul\":6183:6197   */\n      add\n        /* \"#utility.yul\":6169:6181   */\n      dup3\n        /* \"#utility.yul\":6135:6198   */\n      tag_324\n      jump\t// in\n    tag_463:\n        /* \"#utility.yul\":6043:6208   */\n      pop\n        /* \"#utility.yul\":6292:6296   */\n      0xc0\n        /* \"#utility.yul\":6285:6290   */\n      dup3\n        /* \"#utility.yul\":6281:6297   */\n      add\n        /* \"#utility.yul\":6275:6298   */\n      mload\n        /* \"#utility.yul\":6311:6386   */\n      tag_464\n        /* \"#utility.yul\":6380:6384   */\n      0xc0\n        /* \"#utility.yul\":6375:6378   */\n      dup6\n        /* \"#utility.yul\":6371:6385   */\n      add\n        /* \"#utility.yul\":6357:6369   */\n      dup3\n        /* \"#utility.yul\":6311:6386   */\n      tag_333\n      jump\t// in\n    tag_464:\n        /* \"#utility.yul\":6218:6396   */\n      pop\n        /* \"#utility.yul\":5080:6403   */\n      pop\n        /* \"#utility.yul\":4970:6403   */\n      pop\n      pop\n      jump\t// out\n        /* \"#utility.yul\":6409:6696   */\n    tag_344:\n        /* \"#utility.yul\":6532:6542   */\n      0x00\n        /* \"#utility.yul\":6553:6653   */\n      tag_466\n        /* \"#utility.yul\":6649:6652   */\n      dup4\n        /* \"#utility.yul\":6641:6647   */\n      dup4\n        /* \"#utility.yul\":6553:6653   */\n      tag_343\n      jump\t// in\n    tag_466:\n        /* \"#utility.yul\":6685:6689   */\n      0xe0\n        /* \"#utility.yul\":6680:6683   */\n      dup4\n        /* \"#utility.yul\":6676:6690   */\n      add\n        /* \"#utility.yul\":6662:6690   */\n      swap1\n      pop\n        /* \"#utility.yul\":6409:6696   */\n      swap3\n      swap2\n      pop\n      pop\n      jump\t// out\n        /* \"#utility.yul\":6702:6842   */\n    tag_345:\n        /* \"#utility.yul\":6799:6803   */\n      0x00\n        /* \"#utility.yul\":6831:6835   */\n      0x20\n        /* \"#utility.yul\":6826:6829   */\n      dup3\n        /* \"#utility.yul\":6822:6836   */\n      add\n        /* \"#utility.yul\":6814:6836   */\n      swap1\n      pop\n        /* \"#utility.yul\":6702:6842   */\n      swap2\n      swap1\n      pop\n      jump\t// out\n        /* \"#utility.yul\":6936:7884   */\n    tag_346:\n        /* \"#utility.yul\":7109:7112   */\n      0x00\n        /* \"#utility.yul\":7138:7219   */\n      tag_469\n        /* \"#utility.yul\":7213:7218   */\n      dup3\n        /* \"#utility.yul\":7138:7219   */\n      tag_340\n      jump\t// in\n    tag_469:\n        /* \"#utility.yul\":7235:7348   */\n      tag_470\n        /* \"#utility.yul\":7341:7347   */\n      dup2\n        /* \"#utility.yul\":7336:7339   */\n      dup6\n        /* \"#utility.yul\":7235:7348   */\n      tag_341\n      jump\t// in\n    tag_470:\n        /* \"#utility.yul\":7228:7348   */\n      swap4\n      pop\n        /* \"#utility.yul\":7372:7455   */\n      tag_471\n        /* \"#utility.yul\":7449:7454   */\n      dup4\n        /* \"#utility.yul\":7372:7455   */\n      tag_342\n      jump\t// in\n    tag_471:\n        /* \"#utility.yul\":7478:7485   */\n      dup1\n        /* \"#utility.yul\":7509:7510   */\n      0x00\n        /* \"#utility.yul\":7494:7859   */\n    tag_472:\n        /* \"#utility.yul\":7519:7525   */\n      dup4\n        /* \"#utility.yul\":7516:7517   */\n      dup2\n        /* \"#utility.yul\":7513:7526   */\n      lt\n        /* \"#utility.yul\":7494:7859   */\n      iszero\n      tag_474\n      jumpi\n        /* \"#utility.yul\":7595:7601   */\n      dup2\n        /* \"#utility.yul\":7589:7602   */\n      mload\n        /* \"#utility.yul\":7622:7739   */\n      tag_475\n        /* \"#utility.yul\":7735:7738   */\n      dup9\n        /* \"#utility.yul\":7720:7733   */\n      dup3\n        /* \"#utility.yul\":7622:7739   */\n      tag_344\n      jump\t// in\n    tag_475:\n        /* \"#utility.yul\":7615:7739   */\n      swap8\n      pop\n        /* \"#utility.yul\":7762:7849   */\n      tag_476\n        /* \"#utility.yul\":7842:7848   */\n      dup4\n        /* \"#utility.yul\":7762:7849   */\n      tag_345\n      jump\t// in\n    tag_476:\n        /* \"#utility.yul\":7752:7849   */\n      swap3\n      pop\n        /* \"#utility.yul\":7554:7859   */\n      pop\n        /* \"#utility.yul\":7541:7542   */\n      0x01\n        /* \"#utility.yul\":7538:7539   */\n      dup2\n        /* \"#utility.yul\":7534:7543   */\n      add\n        /* \"#utility.yul\":7529:7543   */\n      swap1\n      pop\n        /* \"#utility.yul\":7494:7859   */\n      jump(tag_472)\n    tag_474:\n        /* \"#utility.yul\":7498:7512   */\n      pop\n        /* \"#utility.yul\":7875:7878   */\n      dup6\n        /* \"#utility.yul\":7868:7878   */\n      swap4\n      pop\n        /* \"#utility.yul\":7114:7884   */\n      pop\n      pop\n      pop\n        /* \"#utility.yul\":6936:7884   */\n      swap3\n      swap2\n      pop\n      pop\n      jump\t// out\n        /* \"#utility.yul\":7890:8371   */\n    tag_41:\n        /* \"#utility.yul\":8087:8091   */\n      0x00\n        /* \"#utility.yul\":8125:8127   */\n      0x20\n        /* \"#utility.yul\":8114:8123   */\n      dup3\n        /* \"#utility.yul\":8110:8128   */\n      add\n        /* \"#utility.yul\":8102:8128   */\n      swap1\n      pop\n        /* \"#utility.yul\":8174:8183   */\n      dup2\n        /* \"#utility.yul\":8168:8172   */\n      dup2\n        /* \"#utility.yul\":8164:8184   */\n      sub\n        /* \"#utility.yul\":8160:8161   */\n      0x00\n        /* \"#utility.yul\":8149:8158   */\n      dup4\n        /* \"#utility.yul\":8145:8162   */\n      add\n        /* \"#utility.yul\":8138:8185   */\n      mstore\n        /* \"#utility.yul\":8202:8364   */\n      tag_478\n        /* \"#utility.yul\":8359:8363   */\n      dup2\n        /* \"#utility.yul\":8350:8356   */\n      dup5\n        /* \"#utility.yul\":8202:8364   */\n      tag_346\n      jump\t// in\n    tag_478:\n        /* \"#utility.yul\":8194:8364   */\n      swap1\n      pop\n        /* \"#utility.yul\":7890:8371   */\n      swap3\n      swap2\n      pop\n      pop\n      jump\t// out\n        /* \"#utility.yul\":8377:8499   */\n    tag_347:\n        /* \"#utility.yul\":8450:8474   */\n      tag_480\n        /* \"#utility.yul\":8468:8473   */\n      dup2\n        /* \"#utility.yul\":8450:8474   */\n      tag_323\n      jump\t// in\n    tag_480:\n        /* \"#utility.yul\":8443:8448   */\n      dup2\n        /* \"#utility.yul\":8440:8475   */\n      eq\n        /* \"#utility.yul\":8430:8493   */\n      tag_481\n      jumpi\n        /* \"#utility.yul\":8489:8490   */\n      0x00\n        /* \"#utility.yul\":8486:8487   */\n      dup1\n        /* \"#utility.yul\":8479:8491   */\n      revert\n        /* \"#utility.yul\":8430:8493   */\n    tag_481:\n        /* \"#utility.yul\":8377:8499   */\n      pop\n      jump\t// out\n        /* \"#utility.yul\":8505:8644   */\n    tag_348:\n        /* \"#utility.yul\":8551:8556   */\n      0x00\n        /* \"#utility.yul\":8589:8595   */\n      dup2\n        /* \"#utility.yul\":8576:8596   */\n      calldataload\n        /* \"#utility.yul\":8567:8596   */\n      swap1\n      pop\n        /* \"#utility.yul\":8605:8638   */\n      tag_483\n        /* \"#utility.yul\":8632:8637   */\n      dup2\n        /* \"#utility.yul\":8605:8638   */\n      tag_347\n      jump\t// in\n    tag_483:\n        /* \"#utility.yul\":8505:8644   */\n      swap3\n      swap2\n      pop\n      pop\n      jump\t// out\n        /* \"#utility.yul\":8650:8979   */\n    tag_49:\n        /* \"#utility.yul\":8709:8715   */\n      0x00\n        /* \"#utility.yul\":8758:8760   */\n      0x20\n        /* \"#utility.yul\":8746:8755   */\n      dup3\n        /* \"#utility.yul\":8737:8744   */\n      dup5\n        /* \"#utility.yul\":8733:8756   */\n      sub\n        /* \"#utility.yul\":8729:8761   */\n      slt\n        /* \"#utility.yul\":8726:8845   */\n      iszero\n      tag_485\n      jumpi\n        /* \"#utility.yul\":8764:8843   */\n      tag_486\n      tag_336\n      jump\t// in\n    tag_486:\n        /* \"#utility.yul\":8726:8845   */\n    tag_485:\n        /* \"#utility.yul\":8884:8885   */\n      0x00\n        /* \"#utility.yul\":8909:8962   */\n      tag_487\n        /* \"#utility.yul\":8954:8961   */\n      dup5\n        /* \"#utility.yul\":8945:8951   */\n      dup3\n        /* \"#utility.yul\":8934:8943   */\n      dup6\n        /* \"#utility.yul\":8930:8952   */\n      add\n        /* \"#utility.yul\":8909:8962   */\n      tag_348\n      jump\t// in\n    tag_487:\n        /* \"#utility.yul\":8899:8962   */\n      swap2\n      pop\n        /* \"#utility.yul\":8855:8972   */\n      pop\n        /* \"#utility.yul\":8650:8979   */\n      swap3\n      swap2\n      pop\n      pop\n      jump\t// out\n        /* \"#utility.yul\":8985:9134   */\n    tag_349:\n        /* \"#utility.yul\":9021:9028   */\n      0x00\n        /* \"#utility.yul\":9061:9127   */\n      0xffffffff00000000000000000000000000000000000000000000000000000000\n        /* \"#utility.yul\":9054:9059   */\n      dup3\n        /* \"#utility.yul\":9050:9128   */\n      and\n        /* \"#utility.yul\":9039:9128   */\n      swap1\n      pop\n        /* \"#utility.yul\":8985:9134   */\n      swap2\n      swap1\n      pop\n      jump\t// out\n        /* \"#utility.yul\":9140:9255   */\n    tag_350:\n        /* \"#utility.yul\":9225:9248   */\n      tag_490\n        /* \"#utility.yul\":9242:9247   */\n      dup2\n        /* \"#utility.yul\":9225:9248   */\n      tag_349\n      jump\t// in\n    tag_490:\n        /* \"#utility.yul\":9220:9223   */\n      dup3\n        /* \"#utility.yul\":9213:9249   */\n      mstore\n        /* \"#utility.yul\":9140:9255   */\n      pop\n      pop\n      jump\t// out\n        /* \"#utility.yul\":9261:9479   */\n    tag_56:\n        /* \"#utility.yul\":9352:9356   */\n      0x00\n        /* \"#utility.yul\":9390:9392   */\n      0x20\n        /* \"#utility.yul\":9379:9388   */\n      dup3\n        /* \"#utility.yul\":9375:9393   */\n      add\n        /* \"#utility.yul\":9367:9393   */\n      swap1\n      pop\n        /* \"#utility.yul\":9403:9472   */\n      tag_492\n        /* \"#utility.yul\":9469:9470   */\n      0x00\n        /* \"#utility.yul\":9458:9467   */\n      dup4\n        /* \"#utility.yul\":9454:9471   */\n      add\n        /* \"#utility.yul\":9445:9451   */\n      dup5\n        /* \"#utility.yul\":9403:9472   */\n      tag_350\n      jump\t// in\n    tag_492:\n        /* \"#utility.yul\":9261:9479   */\n      swap3\n      swap2\n      pop\n      pop\n      jump\t// out\n        /* \"#utility.yul\":9485:9545   */\n    tag_351:\n        /* \"#utility.yul\":9513:9516   */\n      0x00\n        /* \"#utility.yul\":9534:9539   */\n      dup2\n        /* \"#utility.yul\":9527:9539   */\n      swap1\n      pop\n        /* \"#utility.yul\":9485:9545   */\n      swap2\n      swap1\n      pop\n      jump\t// out\n        /* \"#utility.yul\":9551:9693   */\n    tag_352:\n        /* \"#utility.yul\":9601:9610   */\n      0x00\n        /* \"#utility.yul\":9634:9687   */\n      tag_495\n        /* \"#utility.yul\":9652:9686   */\n      tag_496\n        /* \"#utility.yul\":9661:9685   */\n      tag_497\n        /* \"#utility.yul\":9679:9684   */\n      dup5\n        /* \"#utility.yul\":9661:9685   */\n      tag_325\n      jump\t// in\n    tag_497:\n        /* \"#utility.yul\":9652:9686   */\n      tag_351\n      jump\t// in\n    tag_496:\n        /* \"#utility.yul\":9634:9687   */\n      tag_325\n      jump\t// in\n    tag_495:\n        /* \"#utility.yul\":9621:9687   */\n      swap1\n      pop\n        /* \"#utility.yul\":9551:9693   */\n      swap2\n      swap1\n      pop\n      jump\t// out\n        /* \"#utility.yul\":9699:9825   */\n    tag_353:\n        /* \"#utility.yul\":9749:9758   */\n      0x00\n        /* \"#utility.yul\":9782:9819   */\n      tag_499\n        /* \"#utility.yul\":9813:9818   */\n      dup3\n        /* \"#utility.yul\":9782:9819   */\n      tag_352\n      jump\t// in\n    tag_499:\n        /* \"#utility.yul\":9769:9819   */\n      swap1\n      pop\n        /* \"#utility.yul\":9699:9825   */\n      swap2\n      swap1\n      pop\n      jump\t// out\n        /* \"#utility.yul\":9831:9971   */\n    tag_354:\n        /* \"#utility.yul\":9895:9904   */\n      0x00\n        /* \"#utility.yul\":9928:9965   */\n      tag_501\n        /* \"#utility.yul\":9959:9964   */\n      dup3\n        /* \"#utility.yul\":9928:9965   */\n      tag_353\n      jump\t// in\n    tag_501:\n        /* \"#utility.yul\":9915:9965   */\n      swap1\n      pop\n        /* \"#utility.yul\":9831:9971   */\n      swap2\n      swap1\n      pop\n      jump\t// out\n        /* \"#utility.yul\":9977:10136   */\n    tag_355:\n        /* \"#utility.yul\":10078:10129   */\n      tag_503\n        /* \"#utility.yul\":10123:10128   */\n      dup2\n        /* \"#utility.yul\":10078:10129   */\n      tag_354\n      jump\t// in\n    tag_503:\n        /* \"#utility.yul\":10073:10076   */\n      dup3\n        /* \"#utility.yul\":10066:10130   */\n      mstore\n        /* \"#utility.yul\":9977:10136   */\n      pop\n      pop\n      jump\t// out\n        /* \"#utility.yul\":10142:10392   */\n    tag_61:\n        /* \"#utility.yul\":10249:10253   */\n      0x00\n        /* \"#utility.yul\":10287:10289   */\n      0x20\n        /* \"#utility.yul\":10276:10285   */\n      dup3\n        /* \"#utility.yul\":10272:10290   */\n      add\n        /* \"#utility.yul\":10264:10290   */\n      swap1\n      pop\n        /* \"#utility.yul\":10300:10385   */\n      tag_505\n        /* \"#utility.yul\":10382:10383   */\n      0x00\n        /* \"#utility.yul\":10371:10380   */\n      dup4\n        /* \"#utility.yul\":10367:10384   */\n      add\n        /* \"#utility.yul\":10358:10364   */\n      dup5\n        /* \"#utility.yul\":10300:10385   */\n      tag_355\n      jump\t// in\n    tag_505:\n        /* \"#utility.yul\":10142:10392   */\n      swap3\n      swap2\n      pop\n      pop\n      jump\t// out\n        /* \"#utility.yul\":10398:10516   */\n    tag_356:\n        /* \"#utility.yul\":10485:10509   */\n      tag_507\n        /* \"#utility.yul\":10503:10508   */\n      dup2\n        /* \"#utility.yul\":10485:10509   */\n      tag_323\n      jump\t// in\n    tag_507:\n        /* \"#utility.yul\":10480:10483   */\n      dup3\n        /* \"#utility.yul\":10473:10510   */\n      mstore\n        /* \"#utility.yul\":10398:10516   */\n      pop\n      pop\n      jump\t// out\n        /* \"#utility.yul\":10522:10640   */\n    tag_357:\n        /* \"#utility.yul\":10609:10633   */\n      tag_509\n        /* \"#utility.yul\":10627:10632   */\n      dup2\n        /* \"#utility.yul\":10609:10633   */\n      tag_326\n      jump\t// in\n    tag_509:\n        /* \"#utility.yul\":10604:10607   */\n      dup3\n        /* \"#utility.yul\":10597:10634   */\n      mstore\n        /* \"#utility.yul\":10522:10640   */\n      pop\n      pop\n      jump\t// out\n        /* \"#utility.yul\":10646:10788   */\n    tag_358:\n        /* \"#utility.yul\":10749:10781   */\n      tag_511\n        /* \"#utility.yul\":10775:10780   */\n      dup2\n        /* \"#utility.yul\":10749:10781   */\n      tag_328\n      jump\t// in\n    tag_511:\n        /* \"#utility.yul\":10744:10747   */\n      dup3\n        /* \"#utility.yul\":10737:10782   */\n      mstore\n        /* \"#utility.yul\":10646:10788   */\n      pop\n      pop\n      jump\t// out\n        /* \"#utility.yul\":10794:10949   */\n    tag_359:\n        /* \"#utility.yul\":10893:10942   */\n      tag_513\n        /* \"#utility.yul\":10936:10941   */\n      dup2\n        /* \"#utility.yul\":10893:10942   */\n      tag_332\n      jump\t// in\n    tag_513:\n        /* \"#utility.yul\":10888:10891   */\n      dup3\n        /* \"#utility.yul\":10881:10943   */\n      mstore\n        /* \"#utility.yul\":10794:10949   */\n      pop\n      pop\n      jump\t// out\n        /* \"#utility.yul\":10955:11929   */\n    tag_66:\n        /* \"#utility.yul\":11260:11264   */\n      0x00\n        /* \"#utility.yul\":11298:11301   */\n      0xe0\n        /* \"#utility.yul\":11287:11296   */\n      dup3\n        /* \"#utility.yul\":11283:11302   */\n      add\n        /* \"#utility.yul\":11275:11302   */\n      swap1\n      pop\n        /* \"#utility.yul\":11312:11383   */\n      tag_515\n        /* \"#utility.yul\":11380:11381   */\n      0x00\n        /* \"#utility.yul\":11369:11378   */\n      dup4\n        /* \"#utility.yul\":11365:11382   */\n      add\n        /* \"#utility.yul\":11356:11362   */\n      dup11\n        /* \"#utility.yul\":11312:11383   */\n      tag_356\n      jump\t// in\n    tag_515:\n        /* \"#utility.yul\":11393:11465   */\n      tag_516\n        /* \"#utility.yul\":11461:11463   */\n      0x20\n        /* \"#utility.yul\":11450:11459   */\n      dup4\n        /* \"#utility.yul\":11446:11464   */\n      add\n        /* \"#utility.yul\":11437:11443   */\n      dup10\n        /* \"#utility.yul\":11393:11465   */\n      tag_357\n      jump\t// in\n    tag_516:\n        /* \"#utility.yul\":11475:11547   */\n      tag_517\n        /* \"#utility.yul\":11543:11545   */\n      0x40\n        /* \"#utility.yul\":11532:11541   */\n      dup4\n        /* \"#utility.yul\":11528:11546   */\n      add\n        /* \"#utility.yul\":11519:11525   */\n      dup9\n        /* \"#utility.yul\":11475:11547   */\n      tag_356\n      jump\t// in\n    tag_517:\n        /* \"#utility.yul\":11557:11645   */\n      tag_518\n        /* \"#utility.yul\":11641:11643   */\n      0x60\n        /* \"#utility.yul\":11630:11639   */\n      dup4\n        /* \"#utility.yul\":11626:11644   */\n      add\n        /* \"#utility.yul\":11617:11623   */\n      dup8\n        /* \"#utility.yul\":11557:11645   */\n      tag_358\n      jump\t// in\n    tag_518:\n        /* \"#utility.yul\":11655:11744   */\n      tag_519\n        /* \"#utility.yul\":11739:11742   */\n      0x80\n        /* \"#utility.yul\":11728:11737   */\n      dup4\n        /* \"#utility.yul\":11724:11743   */\n      add\n        /* \"#utility.yul\":11715:11721   */\n      dup7\n        /* \"#utility.yul\":11655:11744   */\n      tag_358\n      jump\t// in\n    tag_519:\n        /* \"#utility.yul\":11754:11827   */\n      tag_520\n        /* \"#utility.yul\":11822:11825   */\n      0xa0\n        /* \"#utility.yul\":11811:11820   */\n      dup4\n        /* \"#utility.yul\":11807:11826   */\n      add\n        /* \"#utility.yul\":11798:11804   */\n      dup6\n        /* \"#utility.yul\":11754:11827   */\n      tag_356\n      jump\t// in\n    tag_520:\n        /* \"#utility.yul\":11837:11922   */\n      tag_521\n        /* \"#utility.yul\":11917:11920   */\n      0xc0\n        /* \"#utility.yul\":11906:11915   */\n      dup4\n        /* \"#utility.yul\":11902:11921   */\n      add\n        /* \"#utility.yul\":11893:11899   */\n      dup5\n        /* \"#utility.yul\":11837:11922   */\n      tag_359\n      jump\t// in\n    tag_521:\n        /* \"#utility.yul\":10955:11929   */\n      swap9\n      swap8\n      pop\n      pop\n      pop\n      pop\n      pop\n      pop\n      pop\n      pop\n      jump\t// out\n        /* \"#utility.yul\":11935:12554   */\n    tag_69:\n        /* \"#utility.yul\":12012:12018   */\n      0x00\n        /* \"#utility.yul\":12020:12026   */\n      dup1\n        /* \"#utility.yul\":12028:12034   */\n      0x00\n        /* \"#utility.yul\":12077:12079   */\n      0x60\n        /* \"#utility.yul\":12065:12074   */\n      dup5\n        /* \"#utility.yul\":12056:12063   */\n      dup7\n        /* \"#utility.yul\":12052:12075   */\n      sub\n        /* \"#utility.yul\":12048:12080   */\n      slt\n        /* \"#utility.yul\":12045:12164   */\n      iszero\n      tag_523\n      jumpi\n        /* \"#utility.yul\":12083:12162   */\n      tag_524\n      tag_336\n      jump\t// in\n    tag_524:\n        /* \"#utility.yul\":12045:12164   */\n    tag_523:\n        /* \"#utility.yul\":12203:12204   */\n      0x00\n        /* \"#utility.yul\":12228:12281   */\n      tag_525\n        /* \"#utility.yul\":12273:12280   */\n      dup7\n        /* \"#utility.yul\":12264:12270   */\n      dup3\n        /* \"#utility.yul\":12253:12262   */\n      dup8\n        /* \"#utility.yul\":12249:12271   */\n      add\n        /* \"#utility.yul\":12228:12281   */\n      tag_339\n      jump\t// in\n    tag_525:\n        /* \"#utility.yul\":12218:12281   */\n      swap4\n      pop\n        /* \"#utility.yul\":12174:12291   */\n      pop\n        /* \"#utility.yul\":12330:12332   */\n      0x20\n        /* \"#utility.yul\":12356:12409   */\n      tag_526\n        /* \"#utility.yul\":12401:12408   */\n      dup7\n        /* \"#utility.yul\":12392:12398   */\n      dup3\n        /* \"#utility.yul\":12381:12390   */\n      dup8\n        /* \"#utility.yul\":12377:12399   */\n      add\n        /* \"#utility.yul\":12356:12409   */\n      tag_348\n      jump\t// in\n    tag_526:\n        /* \"#utility.yul\":12346:12409   */\n      swap3\n      pop\n        /* \"#utility.yul\":12301:12419   */\n      pop\n        /* \"#utility.yul\":12458:12460   */\n      0x40\n        /* \"#utility.yul\":12484:12537   */\n      tag_527\n        /* \"#utility.yul\":12529:12536   */\n      dup7\n        /* \"#utility.yul\":12520:12526   */\n      dup3\n        /* \"#utility.yul\":12509:12518   */\n      dup8\n        /* \"#utility.yul\":12505:12527   */\n      add\n        /* \"#utility.yul\":12484:12537   */\n      tag_348\n      jump\t// in\n    tag_527:\n        /* \"#utility.yul\":12474:12537   */\n      swap2\n      pop\n        /* \"#utility.yul\":12429:12547   */\n      pop\n        /* \"#utility.yul\":11935:12554   */\n      swap3\n      pop\n      swap3\n      pop\n      swap3\n      jump\t// out\n        /* \"#utility.yul\":12560:13034   */\n    tag_78:\n        /* \"#utility.yul\":12628:12634   */\n      0x00\n        /* \"#utility.yul\":12636:12642   */\n      dup1\n        /* \"#utility.yul\":12685:12687   */\n      0x40\n        /* \"#utility.yul\":12673:12682   */\n      dup4\n        /* \"#utility.yul\":12664:12671   */\n      dup6\n        /* \"#utility.yul\":12660:12683   */\n      sub\n        /* \"#utility.yul\":12656:12688   */\n      slt\n        /* \"#utility.yul\":12653:12772   */\n      iszero\n      tag_529\n      jumpi\n        /* \"#utility.yul\":12691:12770   */\n      tag_530\n      tag_336\n      jump\t// in\n    tag_530:\n        /* \"#utility.yul\":12653:12772   */\n    tag_529:\n        /* \"#utility.yul\":12811:12812   */\n      0x00\n        /* \"#utility.yul\":12836:12889   */\n      tag_531\n        /* \"#utility.yul\":12881:12888   */\n      dup6\n        /* \"#utility.yul\":12872:12878   */\n      dup3\n        /* \"#utility.yul\":12861:12870   */\n      dup7\n        /* \"#utility.yul\":12857:12879   */\n      add\n        /* \"#utility.yul\":12836:12889   */\n      tag_339\n      jump\t// in\n    tag_531:\n        /* \"#utility.yul\":12826:12889   */\n      swap3\n      pop\n        /* \"#utility.yul\":12782:12899   */\n      pop\n        /* \"#utility.yul\":12938:12940   */\n      0x20\n        /* \"#utility.yul\":12964:13017   */\n      tag_532\n        /* \"#utility.yul\":13009:13016   */\n      dup6\n        /* \"#utility.yul\":13000:13006   */\n      dup3\n        /* \"#utility.yul\":12989:12998   */\n      dup7\n        /* \"#utility.yul\":12985:13007   */\n      add\n        /* \"#utility.yul\":12964:13017   */\n      tag_348\n      jump\t// in\n    tag_532:\n        /* \"#utility.yul\":12954:13017   */\n      swap2\n      pop\n        /* \"#utility.yul\":12909:13027   */\n      pop\n        /* \"#utility.yul\":12560:13034   */\n      swap3\n      pop\n      swap3\n      swap1\n      pop\n      jump\t// out\n        /* \"#utility.yul\":13040:13126   */\n    tag_360:\n        /* \"#utility.yul\":13075:13082   */\n      0x00\n        /* \"#utility.yul\":13115:13119   */\n      0xff\n        /* \"#utility.yul\":13108:13113   */\n      dup3\n        /* \"#utility.yul\":13104:13120   */\n      and\n        /* \"#utility.yul\":13093:13120   */\n      swap1\n      pop\n        /* \"#utility.yul\":13040:13126   */\n      swap2\n      swap1\n      pop\n      jump\t// out\n        /* \"#utility.yul\":13132:13244   */\n    tag_361:\n        /* \"#utility.yul\":13215:13237   */\n      tag_535\n        /* \"#utility.yul\":13231:13236   */\n      dup2\n        /* \"#utility.yul\":13215:13237   */\n      tag_360\n      jump\t// in\n    tag_535:\n        /* \"#utility.yul\":13210:13213   */\n      dup3\n        /* \"#utility.yul\":13203:13238   */\n      mstore\n        /* \"#utility.yul\":13132:13244   */\n      pop\n      pop\n      jump\t// out\n        /* \"#utility.yul\":13250:13464   */\n    tag_88:\n        /* \"#utility.yul\":13339:13343   */\n      0x00\n        /* \"#utility.yul\":13377:13379   */\n      0x20\n        /* \"#utility.yul\":13366:13375   */\n      dup3\n        /* \"#utility.yul\":13362:13380   */\n      add\n        /* \"#utility.yul\":13354:13380   */\n      swap1\n      pop\n        /* \"#utility.yul\":13390:13457   */\n      tag_537\n        /* \"#utility.yul\":13454:13455   */\n      0x00\n        /* \"#utility.yul\":13443:13452   */\n      dup4\n        /* \"#utility.yul\":13439:13456   */\n      add\n        /* \"#utility.yul\":13430:13436   */\n      dup5\n        /* \"#utility.yul\":13390:13457   */\n      tag_361\n      jump\t// in\n    tag_537:\n        /* \"#utility.yul\":13250:13464   */\n      swap3\n      swap2\n      pop\n      pop\n      jump\t// out\n        /* \"#utility.yul\":13470:13692   */\n    tag_93:\n        /* \"#utility.yul\":13563:13567   */\n      0x00\n        /* \"#utility.yul\":13601:13603   */\n      0x20\n        /* \"#utility.yul\":13590:13599   */\n      dup3\n        /* \"#utility.yul\":13586:13604   */\n      add\n        /* \"#utility.yul\":13578:13604   */\n      swap1\n      pop\n        /* \"#utility.yul\":13614:13685   */\n      tag_539\n        /* \"#utility.yul\":13682:13683   */\n      0x00\n        /* \"#utility.yul\":13671:13680   */\n      dup4\n        /* \"#utility.yul\":13667:13684   */\n      add\n        /* \"#utility.yul\":13658:13664   */\n      dup5\n        /* \"#utility.yul\":13614:13685   */\n      tag_357\n      jump\t// in\n    tag_539:\n        /* \"#utility.yul\":13470:13692   */\n      swap3\n      swap2\n      pop\n      pop\n      jump\t// out\n        /* \"#utility.yul\":13698:14172   */\n    tag_97:\n        /* \"#utility.yul\":13766:13772   */\n      0x00\n        /* \"#utility.yul\":13774:13780   */\n      dup1\n        /* \"#utility.yul\":13823:13825   */\n      0x40\n        /* \"#utility.yul\":13811:13820   */\n      dup4\n        /* \"#utility.yul\":13802:13809   */\n      dup6\n        /* \"#utility.yul\":13798:13821   */\n      sub\n        /* \"#utility.yul\":13794:13826   */\n      slt\n        /* \"#utility.yul\":13791:13910   */\n      iszero\n      tag_541\n      jumpi\n        /* \"#utility.yul\":13829:13908   */\n      tag_542\n      tag_336\n      jump\t// in\n    tag_542:\n        /* \"#utility.yul\":13791:13910   */\n    tag_541:\n        /* \"#utility.yul\":13949:13950   */\n      0x00\n        /* \"#utility.yul\":13974:14027   */\n      tag_543\n        /* \"#utility.yul\":14019:14026   */\n      dup6\n        /* \"#utility.yul\":14010:14016   */\n      dup3\n        /* \"#utility.yul\":13999:14008   */\n      dup7\n        /* \"#utility.yul\":13995:14017   */\n      add\n        /* \"#utility.yul\":13974:14027   */\n      tag_348\n      jump\t// in\n    tag_543:\n        /* \"#utility.yul\":13964:14027   */\n      swap3\n      pop\n        /* \"#utility.yul\":13920:14037   */\n      pop\n        /* \"#utility.yul\":14076:14078   */\n      0x20\n        /* \"#utility.yul\":14102:14155   */\n      tag_544\n        /* \"#utility.yul\":14147:14154   */\n      dup6\n        /* \"#utility.yul\":14138:14144   */\n      dup3\n        /* \"#utility.yul\":14127:14136   */\n      dup7\n        /* \"#utility.yul\":14123:14145   */\n      add\n        /* \"#utility.yul\":14102:14155   */\n      tag_348\n      jump\t// in\n    tag_544:\n        /* \"#utility.yul\":14092:14155   */\n      swap2\n      pop\n        /* \"#utility.yul\":14047:14165   */\n      pop\n        /* \"#utility.yul\":13698:14172   */\n      swap3\n      pop\n      swap3\n      swap1\n      pop\n      jump\t// out\n        /* \"#utility.yul\":14178:14320   */\n    tag_362:\n        /* \"#utility.yul\":14244:14253   */\n      0x00\n        /* \"#utility.yul\":14277:14314   */\n      tag_546\n        /* \"#utility.yul\":14308:14313   */\n      dup3\n        /* \"#utility.yul\":14277:14314   */\n      tag_353\n      jump\t// in\n    tag_546:\n        /* \"#utility.yul\":14264:14314   */\n      swap1\n      pop\n        /* \"#utility.yul\":14178:14320   */\n      swap2\n      swap1\n      pop\n      jump\t// out\n        /* \"#utility.yul\":14326:14489   */\n    tag_363:\n        /* \"#utility.yul\":14429:14482   */\n      tag_548\n        /* \"#utility.yul\":14476:14481   */\n      dup2\n        /* \"#utility.yul\":14429:14482   */\n      tag_362\n      jump\t// in\n    tag_548:\n        /* \"#utility.yul\":14424:14427   */\n      dup3\n        /* \"#utility.yul\":14417:14483   */\n      mstore\n        /* \"#utility.yul\":14326:14489   */\n      pop\n      pop\n      jump\t// out\n        /* \"#utility.yul\":14495:14749   */\n    tag_111:\n        /* \"#utility.yul\":14604:14608   */\n      0x00\n        /* \"#utility.yul\":14642:14644   */\n      0x20\n        /* \"#utility.yul\":14631:14640   */\n      dup3\n        /* \"#utility.yul\":14627:14645   */\n      add\n        /* \"#utility.yul\":14619:14645   */\n      swap1\n      pop\n        /* \"#utility.yul\":14655:14742   */\n      tag_550\n        /* \"#utility.yul\":14739:14740   */\n      0x00\n        /* \"#utility.yul\":14728:14737   */\n      dup4\n        /* \"#utility.yul\":14724:14741   */\n      add\n        /* \"#utility.yul\":14715:14721   */\n      dup5\n        /* \"#utility.yul\":14655:14742   */\n      tag_363\n      jump\t// in\n    tag_550:\n        /* \"#utility.yul\":14495:14749   */\n      swap3\n      swap2\n      pop\n      pop\n      jump\t// out\n        /* \"#utility.yul\":14755:14896   */\n    tag_364:\n        /* \"#utility.yul\":14820:14829   */\n      0x00\n        /* \"#utility.yul\":14853:14890   */\n      tag_552\n        /* \"#utility.yul\":14884:14889   */\n      dup3\n        /* \"#utility.yul\":14853:14890   */\n      tag_353\n      jump\t// in\n    tag_552:\n        /* \"#utility.yul\":14840:14890   */\n      swap1\n      pop\n        /* \"#utility.yul\":14755:14896   */\n      swap2\n      swap1\n      pop\n      jump\t// out\n        /* \"#utility.yul\":14902:15063   */\n    tag_365:\n        /* \"#utility.yul\":15004:15056   */\n      tag_554\n        /* \"#utility.yul\":15050:15055   */\n      dup2\n        /* \"#utility.yul\":15004:15056   */\n      tag_364\n      jump\t// in\n    tag_554:\n        /* \"#utility.yul\":14999:15002   */\n      dup3\n        /* \"#utility.yul\":14992:15057   */\n      mstore\n        /* \"#utility.yul\":14902:15063   */\n      pop\n      pop\n      jump\t// out\n        /* \"#utility.yul\":15069:15321   */\n    tag_125:\n        /* \"#utility.yul\":15177:15181   */\n      0x00\n        /* \"#utility.yul\":15215:15217   */\n      0x20\n        /* \"#utility.yul\":15204:15213   */\n      dup3\n        /* \"#utility.yul\":15200:15218   */\n      add\n        /* \"#utility.yul\":15192:15218   */\n      swap1\n      pop\n        /* \"#utility.yul\":15228:15314   */\n      tag_556\n        /* \"#utility.yul\":15311:15312   */\n      0x00\n        /* \"#utility.yul\":15300:15309   */\n      dup4\n        /* \"#utility.yul\":15296:15313   */\n      add\n        /* \"#utility.yul\":15287:15293   */\n      dup5\n        /* \"#utility.yul\":15228:15314   */\n      tag_365\n      jump\t// in\n    tag_556:\n        /* \"#utility.yul\":15069:15321   */\n      swap3\n      swap2\n      pop\n      pop\n      jump\t// out\n        /* \"#utility.yul\":15327:15496   */\n    tag_366:\n        /* \"#utility.yul\":15411:15422   */\n      0x00\n        /* \"#utility.yul\":15445:15451   */\n      dup3\n        /* \"#utility.yul\":15440:15443   */\n      dup3\n        /* \"#utility.yul\":15433:15452   */\n      mstore\n        /* \"#utility.yul\":15485:15489   */\n      0x20\n        /* \"#utility.yul\":15480:15483   */\n      dup3\n        /* \"#utility.yul\":15476:15490   */\n      add\n        /* \"#utility.yul\":15461:15490   */\n      swap1\n      pop\n        /* \"#utility.yul\":15327:15496   */\n      swap3\n      swap2\n      pop\n      pop\n      jump\t// out\n        /* \"#utility.yul\":15502:15684   */\n    tag_367:\n        /* \"#utility.yul\":15642:15676   */\n      0x4f776e61626c653a2063616c6c6572206973206e6f7420746865206f776e6572\n        /* \"#utility.yul\":15638:15639   */\n      0x00\n        /* \"#utility.yul\":15630:15636   */\n      dup3\n        /* \"#utility.yul\":15626:15640   */\n      add\n        /* \"#utility.yul\":15619:15677   */\n      mstore\n        /* \"#utility.yul\":15502:15684   */\n      pop\n      jump\t// out\n        /* \"#utility.yul\":15690:16056   */\n    tag_368:\n        /* \"#utility.yul\":15832:15835   */\n      0x00\n        /* \"#utility.yul\":15853:15920   */\n      tag_560\n        /* \"#utility.yul\":15917:15919   */\n      0x20\n        /* \"#utility.yul\":15912:15915   */\n      dup4\n        /* \"#utility.yul\":15853:15920   */\n      tag_366\n      jump\t// in\n    tag_560:\n        /* \"#utility.yul\":15846:15920   */\n      swap2\n      pop\n        /* \"#utility.yul\":15929:16022   */\n      tag_561\n        /* \"#utility.yul\":16018:16021   */\n      dup3\n        /* \"#utility.yul\":15929:16022   */\n      tag_367\n      jump\t// in\n    tag_561:\n        /* \"#utility.yul\":16047:16049   */\n      0x20\n        /* \"#utility.yul\":16042:16045   */\n      dup3\n        /* \"#utility.yul\":16038:16050   */\n      add\n        /* \"#utility.yul\":16031:16050   */\n      swap1\n      pop\n        /* \"#utility.yul\":15690:16056   */\n      swap2\n      swap1\n      pop\n      jump\t// out\n        /* \"#utility.yul\":16062:16481   */\n    tag_145:\n        /* \"#utility.yul\":16228:16232   */\n      0x00\n        /* \"#utility.yul\":16266:16268   */\n      0x20\n        /* \"#utility.yul\":16255:16264   */\n      dup3\n        /* \"#utility.yul\":16251:16269   */\n      add\n        /* \"#utility.yul\":16243:16269   */\n      swap1\n      pop\n        /* \"#utility.yul\":16315:16324   */\n      dup2\n        /* \"#utility.yul\":16309:16313   */\n      dup2\n        /* \"#utility.yul\":16305:16325   */\n      sub\n        /* \"#utility.yul\":16301:16302   */\n      0x00\n        /* \"#utility.yul\":16290:16299   */\n      dup4\n        /* \"#utility.yul\":16286:16303   */\n      add\n        /* \"#utility.yul\":16279:16326   */\n      mstore\n        /* \"#utility.yul\":16343:16474   */\n      tag_563\n        /* \"#utility.yul\":16469:16473   */\n      dup2\n        /* \"#utility.yul\":16343:16474   */\n      tag_368\n      jump\t// in\n    tag_563:\n        /* \"#utility.yul\":16335:16474   */\n      swap1\n      pop\n        /* \"#utility.yul\":16062:16481   */\n      swap2\n      swap1\n      pop\n      jump\t// out\n        /* \"#utility.yul\":16487:16667   */\n    tag_369:\n        /* \"#utility.yul\":16535:16612   */\n      0x4e487b7100000000000000000000000000000000000000000000000000000000\n        /* \"#utility.yul\":16532:16533   */\n      0x00\n        /* \"#utility.yul\":16525:16613   */\n      mstore\n        /* \"#utility.yul\":16632:16636   */\n      0x11\n        /* \"#utility.yul\":16629:16630   */\n      0x04\n        /* \"#utility.yul\":16622:16637   */\n      mstore\n        /* \"#utility.yul\":16656:16660   */\n      0x24\n        /* \"#utility.yul\":16653:16654   */\n      0x00\n        /* \"#utility.yul\":16646:16661   */\n      revert\n        /* \"#utility.yul\":16673:16978   */\n    tag_154:\n        /* \"#utility.yul\":16713:16716   */\n      0x00\n        /* \"#utility.yul\":16732:16752   */\n      tag_566\n        /* \"#utility.yul\":16750:16751   */\n      dup3\n        /* \"#utility.yul\":16732:16752   */\n      tag_323\n      jump\t// in\n    tag_566:\n        /* \"#utility.yul\":16727:16752   */\n      swap2\n      pop\n        /* \"#utility.yul\":16766:16786   */\n      tag_567\n        /* \"#utility.yul\":16784:16785   */\n      dup4\n        /* \"#utility.yul\":16766:16786   */\n      tag_323\n      jump\t// in\n    tag_567:\n        /* \"#utility.yul\":16761:16786   */\n      swap3\n      pop\n        /* \"#utility.yul\":16920:16921   */\n      dup3\n        /* \"#utility.yul\":16852:16918   */\n      0xffffffffffffffffffffffffffffffffffffffffffffffffffffffffffffffff\n        /* \"#utility.yul\":16848:16922   */\n      sub\n        /* \"#utility.yul\":16845:16846   */\n      dup3\n        /* \"#utility.yul\":16842:16923   */\n      gt\n        /* \"#utility.yul\":16839:16946   */\n      iszero\n      tag_568\n      jumpi\n        /* \"#utility.yul\":16926:16944   */\n      tag_569\n      tag_369\n      jump\t// in\n    tag_569:\n        /* \"#utility.yul\":16839:16946   */\n    tag_568:\n        /* \"#utility.yul\":16970:16971   */\n      dup3\n        /* \"#utility.yul\":16967:16968   */\n      dup3\n        /* \"#utility.yul\":16963:16972   */\n      add\n        /* \"#utility.yul\":16956:16972   */\n      swap1\n      pop\n        /* \"#utility.yul\":16673:16978   */\n      swap3\n      swap2\n      pop\n      pop\n      jump\t// out\n        /* \"#utility.yul\":16984:17217   */\n    tag_158:\n        /* \"#utility.yul\":17023:17026   */\n      0x00\n        /* \"#utility.yul\":17046:17070   */\n      tag_571\n        /* \"#utility.yul\":17064:17069   */\n      dup3\n        /* \"#utility.yul\":17046:17070   */\n      tag_323\n      jump\t// in\n    tag_571:\n        /* \"#utility.yul\":17037:17070   */\n      swap2\n      pop\n        /* \"#utility.yul\":17092:17158   */\n      0xffffffffffffffffffffffffffffffffffffffffffffffffffffffffffffffff\n        /* \"#utility.yul\":17085:17090   */\n      dup3\n        /* \"#utility.yul\":17082:17159   */\n      sub\n        /* \"#utility.yul\":17079:17182   */\n      tag_572\n      jumpi\n        /* \"#utility.yul\":17162:17180   */\n      tag_573\n      tag_369\n      jump\t// in\n    tag_573:\n        /* \"#utility.yul\":17079:17182   */\n    tag_572:\n        /* \"#utility.yul\":17209:17210   */\n      0x01\n        /* \"#utility.yul\":17202:17207   */\n      dup3\n        /* \"#utility.yul\":17198:17211   */\n      add\n        /* \"#utility.yul\":17191:17211   */\n      swap1\n      pop\n        /* \"#utility.yul\":16984:17217   */\n      swap2\n      swap1\n      pop\n      jump\t// out\n        /* \"#utility.yul\":17223:17403   */\n    tag_161:\n        /* \"#utility.yul\":17271:17348   */\n      0x4e487b7100000000000000000000000000000000000000000000000000000000\n        /* \"#utility.yul\":17268:17269   */\n      0x00\n        /* \"#utility.yul\":17261:17349   */\n      mstore\n        /* \"#utility.yul\":17368:17372   */\n      0x41\n        /* \"#utility.yul\":17365:17366   */\n      0x04\n        /* \"#utility.yul\":17358:17373   */\n      mstore\n        /* \"#utility.yul\":17392:17396   */\n      0x24\n        /* \"#utility.yul\":17389:17390   */\n      0x00\n        /* \"#utility.yul\":17382:17397   */\n      revert\n        /* \"#utility.yul\":17409:17589   */\n    tag_177:\n        /* \"#utility.yul\":17457:17534   */\n      0x4e487b7100000000000000000000000000000000000000000000000000000000\n        /* \"#utility.yul\":17454:17455   */\n      0x00\n        /* \"#utility.yul\":17447:17535   */\n      mstore\n        /* \"#utility.yul\":17554:17558   */\n      0x32\n        /* \"#utility.yul\":17551:17552   */\n      0x04\n        /* \"#utility.yul\":17544:17559   */\n      mstore\n        /* \"#utility.yul\":17578:17582   */\n      0x24\n        /* \"#utility.yul\":17575:17576   */\n      0x00\n        /* \"#utility.yul\":17568:17583   */\n      revert\n        /* \"#utility.yul\":17595:17776   */\n    tag_370:\n        /* \"#utility.yul\":17735:17768   */\n      0x5265656e7472616e637947756172643a207265656e7472616e742063616c6c00\n        /* \"#utility.yul\":17731:17732   */\n      0x00\n        /* \"#utility.yul\":17723:17729   */\n      dup3\n        /* \"#utility.yul\":17719:17733   */\n      add\n        /* \"#utility.yul\":17712:17769   */\n      mstore\n        /* \"#utility.yul\":17595:17776   */\n      pop\n      jump\t// out\n        /* \"#utility.yul\":17782:18148   */\n    tag_371:\n        /* \"#utility.yul\":17924:17927   */\n      0x00\n        /* \"#utility.yul\":17945:18012   */\n      tag_578\n        /* \"#utility.yul\":18009:18011   */\n      0x1f\n        /* \"#utility.yul\":18004:18007   */\n      dup4\n        /* \"#utility.yul\":17945:18012   */\n      tag_366\n      jump\t// in\n    tag_578:\n        /* \"#utility.yul\":17938:18012   */\n      swap2\n      pop\n        /* \"#utility.yul\":18021:18114   */\n      tag_579\n        /* \"#utility.yul\":18110:18113   */\n      dup3\n        /* \"#utility.yul\":18021:18114   */\n      tag_370\n      jump\t// in\n    tag_579:\n        /* \"#utility.yul\":18139:18141   */\n      0x20\n        /* \"#utility.yul\":18134:18137   */\n      dup3\n        /* \"#utility.yul\":18130:18142   */\n      add\n        /* \"#utility.yul\":18123:18142   */\n      swap1\n      pop\n        /* \"#utility.yul\":17782:18148   */\n      swap2\n      swap1\n      pop\n      jump\t// out\n        /* \"#utility.yul\":18154:18573   */\n    tag_195:\n        /* \"#utility.yul\":18320:18324   */\n      0x00\n        /* \"#utility.yul\":18358:18360   */\n      0x20\n        /* \"#utility.yul\":18347:18356   */\n      dup3\n        /* \"#utility.yul\":18343:18361   */\n      add\n        /* \"#utility.yul\":18335:18361   */\n      swap1\n      pop\n        /* \"#utility.yul\":18407:18416   */\n      dup2\n        /* \"#utility.yul\":18401:18405   */\n      dup2\n        /* \"#utility.yul\":18397:18417   */\n      sub\n        /* \"#utility.yul\":18393:18394   */\n      0x00\n        /* \"#utility.yul\":18382:18391   */\n      dup4\n        /* \"#utility.yul\":18378:18395   */\n      add\n        /* \"#utility.yul\":18371:18418   */\n      mstore\n        /* \"#utility.yul\":18435:18566   */\n      tag_581\n        /* \"#utility.yul\":18561:18565   */\n      dup2\n        /* \"#utility.yul\":18435:18566   */\n      tag_371\n      jump\t// in\n    tag_581:\n        /* \"#utility.yul\":18427:18566   */\n      swap1\n      pop\n        /* \"#utility.yul\":18154:18573   */\n      swap2\n      swap1\n      pop\n      jump\t// out\n        /* \"#utility.yul\":18579:18757   */\n    tag_372:\n        /* \"#utility.yul\":18719:18749   */\n      0x5072696365206d757374206265206174206c6561737420312077656900000000\n        /* \"#utility.yul\":18715:18716   */\n      0x00\n        /* \"#utility.yul\":18707:18713   */\n      dup3\n        /* \"#utility.yul\":18703:18717   */\n      add\n        /* \"#utility.yul\":18696:18750   */\n      mstore\n        /* \"#utility.yul\":18579:18757   */\n      pop\n      jump\t// out\n        /* \"#utility.yul\":18763:19129   */\n    tag_373:\n        /* \"#utility.yul\":18905:18908   */\n      0x00\n        /* \"#utility.yul\":18926:18993   */\n      tag_584\n        /* \"#utility.yul\":18990:18992   */\n      0x1c\n        /* \"#utility.yul\":18985:18988   */\n      dup4\n        /* \"#utility.yul\":18926:18993   */\n      tag_366\n      jump\t// in\n    tag_584:\n        /* \"#utility.yul\":18919:18993   */\n      swap2\n      pop\n        /* \"#utility.yul\":19002:19095   */\n      tag_585\n        /* \"#utility.yul\":19091:19094   */\n      dup3\n        /* \"#utility.yul\":19002:19095   */\n      tag_372\n      jump\t// in\n    tag_585:\n        /* \"#utility.yul\":19120:19122   */\n      0x20\n        /* \"#utility.yul\":19115:19118   */\n      dup3\n        /* \"#utility.yul\":19111:19123   */\n      add\n        /* \"#utility.yul\":19104:19123   */\n      swap1\n      pop\n        /* \"#utility.yul\":18763:19129   */\n      swap2\n      swap1\n      pop\n      jump\t// out\n        /* \"#utility.yul\":19135:19554   */\n    tag_199:\n        /* \"#utility.yul\":19301:19305   */\n      0x00\n        /* \"#utility.yul\":19339:19341   */\n      0x20\n        /* \"#utility.yul\":19328:19337   */\n      dup3\n        /* \"#utility.yul\":19324:19342   */\n      add\n        /* \"#utility.yul\":19316:19342   */\n      swap1\n      pop\n        /* \"#utility.yul\":19388:19397   */\n      dup2\n        /* \"#utility.yul\":19382:19386   */\n      dup2\n        /* \"#utility.yul\":19378:19398   */\n      sub\n        /* \"#utility.yul\":19374:19375   */\n      0x00\n        /* \"#utility.yul\":19363:19372   */\n      dup4\n        /* \"#utility.yul\":19359:19376   */\n      add\n        /* \"#utility.yul\":19352:19399   */\n      mstore\n        /* \"#utility.yul\":19416:19547   */\n      tag_587\n        /* \"#utility.yul\":19542:19546   */\n      dup2\n        /* \"#utility.yul\":19416:19547   */\n      tag_373\n      jump\t// in\n    tag_587:\n        /* \"#utility.yul\":19408:19547   */\n      swap1\n      pop\n        /* \"#utility.yul\":19135:19554   */\n      swap2\n      swap1\n      pop\n      jump\t// out\n        /* \"#utility.yul\":19560:19782   */\n    tag_201:\n        /* \"#utility.yul\":19653:19657   */\n      0x00\n        /* \"#utility.yul\":19691:19693   */\n      0x20\n        /* \"#utility.yul\":19680:19689   */\n      dup3\n        /* \"#utility.yul\":19676:19694   */\n      add\n        /* \"#utility.yul\":19668:19694   */\n      swap1\n      pop\n        /* \"#utility.yul\":19704:19775   */\n      tag_589\n        /* \"#utility.yul\":19772:19773   */\n      0x00\n        /* \"#utility.yul\":19761:19770   */\n      dup4\n        /* \"#utility.yul\":19757:19774   */\n      add\n        /* \"#utility.yul\":19748:19754   */\n      dup5\n        /* \"#utility.yul\":19704:19775   */\n      tag_356\n      jump\t// in\n    tag_589:\n        /* \"#utility.yul\":19560:19782   */\n      swap3\n      swap2\n      pop\n      pop\n      jump\t// out\n        /* \"#utility.yul\":19788:19905   */\n    tag_374:\n        /* \"#utility.yul\":19897:19898   */\n      0x00\n        /* \"#utility.yul\":19894:19895   */\n      dup1\n        /* \"#utility.yul\":19887:19899   */\n      revert\n        /* \"#utility.yul\":19911:20013   */\n    tag_375:\n        /* \"#utility.yul\":19952:19958   */\n      0x00\n        /* \"#utility.yul\":20003:20005   */\n      0x1f\n        /* \"#utility.yul\":19999:20006   */\n      not\n        /* \"#utility.yul\":19994:19996   */\n      0x1f\n        /* \"#utility.yul\":19987:19992   */\n      dup4\n        /* \"#utility.yul\":19983:19997   */\n      add\n        /* \"#utility.yul\":19979:20007   */\n      and\n        /* \"#utility.yul\":19969:20007   */\n      swap1\n      pop\n        /* \"#utility.yul\":19911:20013   */\n      swap2\n      swap1\n      pop\n      jump\t// out\n        /* \"#utility.yul\":20019:20300   */\n    tag_376:\n        /* \"#utility.yul\":20102:20129   */\n      tag_593\n        /* \"#utility.yul\":20124:20128   */\n      dup3\n        /* \"#utility.yul\":20102:20129   */\n      tag_375\n      jump\t// in\n    tag_593:\n        /* \"#utility.yul\":20094:20100   */\n      dup2\n        /* \"#utility.yul\":20090:20130   */\n      add\n        /* \"#utility.yul\":20232:20238   */\n      dup2\n        /* \"#utility.yul\":20220:20230   */\n      dup2\n        /* \"#utility.yul\":20217:20239   */\n      lt\n        /* \"#utility.yul\":20196:20214   */\n      0xffffffffffffffff\n        /* \"#utility.yul\":20184:20194   */\n      dup3\n        /* \"#utility.yul\":20181:20215   */\n      gt\n        /* \"#utility.yul\":20178:20240   */\n      or\n        /* \"#utility.yul\":20175:20263   */\n      iszero\n      tag_594\n      jumpi\n        /* \"#utility.yul\":20243:20261   */\n      tag_595\n      tag_161\n      jump\t// in\n    tag_595:\n        /* \"#utility.yul\":20175:20263   */\n    tag_594:\n        /* \"#utility.yul\":20283:20293   */\n      dup1\n        /* \"#utility.yul\":20279:20281   */\n      0x40\n        /* \"#utility.yul\":20272:20294   */\n      mstore\n        /* \"#utility.yul\":20062:20300   */\n      pop\n        /* \"#utility.yul\":20019:20300   */\n      pop\n      pop\n      jump\t// out\n        /* \"#utility.yul\":20306:20435   */\n    tag_377:\n        /* \"#utility.yul\":20340:20346   */\n      0x00\n        /* \"#utility.yul\":20367:20387   */\n      tag_597\n      tag_335\n      jump\t// in\n    tag_597:\n        /* \"#utility.yul\":20357:20387   */\n      swap1\n      pop\n        /* \"#utility.yul\":20396:20429   */\n      tag_598\n        /* \"#utility.yul\":20424:20428   */\n      dup3\n        /* \"#utility.yul\":20416:20422   */\n      dup3\n        /* \"#utility.yul\":20396:20429   */\n      tag_376\n      jump\t// in\n    tag_598:\n        /* \"#utility.yul\":20306:20435   */\n      swap2\n      swap1\n      pop\n      jump\t// out\n        /* \"#utility.yul\":20441:20558   */\n    tag_378:\n        /* \"#utility.yul\":20550:20551   */\n      0x00\n        /* \"#utility.yul\":20547:20548   */\n      dup1\n        /* \"#utility.yul\":20540:20552   */\n      revert\n        /* \"#utility.yul\":20564:20707   */\n    tag_379:\n        /* \"#utility.yul\":20621:20626   */\n      0x00\n        /* \"#utility.yul\":20652:20658   */\n      dup2\n        /* \"#utility.yul\":20646:20659   */\n      mload\n        /* \"#utility.yul\":20637:20659   */\n      swap1\n      pop\n        /* \"#utility.yul\":20668:20701   */\n      tag_601\n        /* \"#utility.yul\":20695:20700   */\n      dup2\n        /* \"#utility.yul\":20668:20701   */\n      tag_347\n      jump\t// in\n    tag_601:\n        /* \"#utility.yul\":20564:20707   */\n      swap3\n      swap2\n      pop\n      pop\n      jump\t// out\n        /* \"#utility.yul\":20713:20856   */\n    tag_380:\n        /* \"#utility.yul\":20770:20775   */\n      0x00\n        /* \"#utility.yul\":20801:20807   */\n      dup2\n        /* \"#utility.yul\":20795:20808   */\n      mload\n        /* \"#utility.yul\":20786:20808   */\n      swap1\n      pop\n        /* \"#utility.yul\":20817:20850   */\n      tag_603\n        /* \"#utility.yul\":20844:20849   */\n      dup2\n        /* \"#utility.yul\":20817:20850   */\n      tag_338\n      jump\t// in\n    tag_603:\n        /* \"#utility.yul\":20713:20856   */\n      swap3\n      swap2\n      pop\n      pop\n      jump\t// out\n        /* \"#utility.yul\":20862:20979   */\n    tag_381:\n        /* \"#utility.yul\":20971:20972   */\n      0x00\n        /* \"#utility.yul\":20968:20969   */\n      dup1\n        /* \"#utility.yul\":20961:20973   */\n      revert\n        /* \"#utility.yul\":20985:21102   */\n    tag_382:\n        /* \"#utility.yul\":21094:21095   */\n      0x00\n        /* \"#utility.yul\":21091:21092   */\n      dup1\n        /* \"#utility.yul\":21084:21096   */\n      revert\n        /* \"#utility.yul\":21108:21416   */\n    tag_383:\n        /* \"#utility.yul\":21170:21174   */\n      0x00\n        /* \"#utility.yul\":21260:21278   */\n      0xffffffffffffffff\n        /* \"#utility.yul\":21252:21258   */\n      dup3\n        /* \"#utility.yul\":21249:21279   */\n      gt\n        /* \"#utility.yul\":21246:21302   */\n      iszero\n      tag_607\n      jumpi\n        /* \"#utility.yul\":21282:21300   */\n      tag_608\n      tag_161\n      jump\t// in\n    tag_608:\n        /* \"#utility.yul\":21246:21302   */\n    tag_607:\n        /* \"#utility.yul\":21320:21349   */\n      tag_609\n        /* \"#utility.yul\":21342:21348   */\n      dup3\n        /* \"#utility.yul\":21320:21349   */\n      tag_375\n      jump\t// in\n    tag_609:\n        /* \"#utility.yul\":21312:21349   */\n      swap1\n      pop\n        /* \"#utility.yul\":21404:21408   */\n      0x20\n        /* \"#utility.yul\":21398:21402   */\n      dup2\n        /* \"#utility.yul\":21394:21409   */\n      add\n        /* \"#utility.yul\":21386:21409   */\n      swap1\n      pop\n        /* \"#utility.yul\":21108:21416   */\n      swap2\n      swap1\n      pop\n      jump\t// out\n        /* \"#utility.yul\":21422:21729   */\n    tag_384:\n        /* \"#utility.yul\":21490:21491   */\n      0x00\n        /* \"#utility.yul\":21500:21613   */\n    tag_611:\n        /* \"#utility.yul\":21514:21520   */\n      dup4\n        /* \"#utility.yul\":21511:21512   */\n      dup2\n        /* \"#utility.yul\":21508:21521   */\n      lt\n        /* \"#utility.yul\":21500:21613   */\n      iszero\n      tag_613\n      jumpi\n        /* \"#utility.yul\":21599:21600   */\n      dup1\n        /* \"#utility.yul\":21594:21597   */\n      dup3\n        /* \"#utility.yul\":21590:21601   */\n      add\n        /* \"#utility.yul\":21584:21602   */\n      mload\n        /* \"#utility.yul\":21580:21581   */\n      dup2\n        /* \"#utility.yul\":21575:21578   */\n      dup5\n        /* \"#utility.yul\":21571:21582   */\n      add\n        /* \"#utility.yul\":21564:21603   */\n      mstore\n        /* \"#utility.yul\":21536:21538   */\n      0x20\n        /* \"#utility.yul\":21533:21534   */\n      dup2\n        /* \"#utility.yul\":21529:21539   */\n      add\n        /* \"#utility.yul\":21524:21539   */\n      swap1\n      pop\n        /* \"#utility.yul\":21500:21613   */\n      jump(tag_611)\n    tag_613:\n        /* \"#utility.yul\":21631:21637   */\n      dup4\n        /* \"#utility.yul\":21628:21629   */\n      dup2\n        /* \"#utility.yul\":21625:21638   */\n      gt\n        /* \"#utility.yul\":21622:21723   */\n      iszero\n      tag_614\n      jumpi\n        /* \"#utility.yul\":21711:21712   */\n      0x00\n        /* \"#utility.yul\":21702:21708   */\n      dup5\n        /* \"#utility.yul\":21697:21700   */\n      dup5\n        /* \"#utility.yul\":21693:21709   */\n      add\n        /* \"#utility.yul\":21686:21713   */\n      mstore\n        /* \"#utility.yul\":21622:21723   */\n    tag_614:\n        /* \"#utility.yul\":21471:21729   */\n      pop\n        /* \"#utility.yul\":21422:21729   */\n      pop\n      pop\n      pop\n      jump\t// out\n        /* \"#utility.yul\":21735:22156   */\n    tag_385:\n        /* \"#utility.yul\":21824:21829   */\n      0x00\n        /* \"#utility.yul\":21849:21915   */\n      tag_616\n        /* \"#utility.yul\":21865:21914   */\n      tag_617\n        /* \"#utility.yul\":21907:21913   */\n      dup5\n        /* \"#utility.yul\":21865:21914   */\n      tag_383\n      jump\t// in\n    tag_617:\n        /* \"#utility.yul\":21849:21915   */\n      tag_377\n      jump\t// in\n    tag_616:\n        /* \"#utility.yul\":21840:21915   */\n      swap1\n      pop\n        /* \"#utility.yul\":21938:21944   */\n      dup3\n        /* \"#utility.yul\":21931:21936   */\n      dup2\n        /* \"#utility.yul\":21924:21945   */\n      mstore\n        /* \"#utility.yul\":21976:21980   */\n      0x20\n        /* \"#utility.yul\":21969:21974   */\n      dup2\n        /* \"#utility.yul\":21965:21981   */\n      add\n        /* \"#utility.yul\":22014:22017   */\n      dup5\n        /* \"#utility.yul\":22005:22011   */\n      dup5\n        /* \"#utility.yul\":22000:22003   */\n      dup5\n        /* \"#utility.yul\":21996:22012   */\n      add\n        /* \"#utility.yul\":21993:22018   */\n      gt\n        /* \"#utility.yul\":21990:22102   */\n      iszero\n      tag_618\n      jumpi\n        /* \"#utility.yul\":22021:22100   */\n      tag_619\n      tag_382\n      jump\t// in\n    tag_619:\n        /* \"#utility.yul\":21990:22102   */\n    tag_618:\n        /* \"#utility.yul\":22111:22150   */\n      tag_620\n        /* \"#utility.yul\":22143:22149   */\n      dup5\n        /* \"#utility.yul\":22138:22141   */\n      dup3\n        /* \"#utility.yul\":22133:22136   */\n      dup6\n        /* \"#utility.yul\":22111:22150   */\n      tag_384\n      jump\t// in\n    tag_620:\n        /* \"#utility.yul\":21830:22156   */\n      pop\n        /* \"#utility.yul\":21735:22156   */\n      swap4\n      swap3\n      pop\n      pop\n      pop\n      jump\t// out\n        /* \"#utility.yul\":22176:22531   */\n    tag_386:\n        /* \"#utility.yul\":22243:22248   */\n      0x00\n        /* \"#utility.yul\":22292:22295   */\n      dup3\n        /* \"#utility.yul\":22285:22289   */\n      0x1f\n        /* \"#utility.yul\":22277:22283   */\n      dup4\n        /* \"#utility.yul\":22273:22290   */\n      add\n        /* \"#utility.yul\":22269:22296   */\n      slt\n        /* \"#utility.yul\":22259:22381   */\n      tag_622\n      jumpi\n        /* \"#utility.yul\":22300:22379   */\n      tag_623\n      tag_381\n      jump\t// in\n    tag_623:\n        /* \"#utility.yul\":22259:22381   */\n    tag_622:\n        /* \"#utility.yul\":22410:22416   */\n      dup2\n        /* \"#utility.yul\":22404:22417   */\n      mload\n        /* \"#utility.yul\":22435:22525   */\n      tag_624\n        /* \"#utility.yul\":22521:22524   */\n      dup5\n        /* \"#utility.yul\":22513:22519   */\n      dup3\n        /* \"#utility.yul\":22506:22510   */\n      0x20\n        /* \"#utility.yul\":22498:22504   */\n      dup7\n        /* \"#utility.yul\":22494:22511   */\n      add\n        /* \"#utility.yul\":22435:22525   */\n      tag_385\n      jump\t// in\n    tag_624:\n        /* \"#utility.yul\":22426:22525   */\n      swap2\n      pop\n        /* \"#utility.yul\":22249:22531   */\n      pop\n        /* \"#utility.yul\":22176:22531   */\n      swap3\n      swap2\n      pop\n      pop\n      jump\t// out\n        /* \"#utility.yul\":22537:22627   */\n    tag_387:\n        /* \"#utility.yul\":22571:22578   */\n      0x00\n        /* \"#utility.yul\":22614:22619   */\n      dup2\n        /* \"#utility.yul\":22607:22620   */\n      iszero\n        /* \"#utility.yul\":22600:22621   */\n      iszero\n        /* \"#utility.yul\":22589:22621   */\n      swap1\n      pop\n        /* \"#utility.yul\":22537:22627   */\n      swap2\n      swap1\n      pop\n      jump\t// out\n        /* \"#utility.yul\":22633:22749   */\n    tag_388:\n        /* \"#utility.yul\":22703:22724   */\n      tag_627\n        /* \"#utility.yul\":22718:22723   */\n      dup2\n        /* \"#utility.yul\":22703:22724   */\n      tag_387\n      jump\t// in\n    tag_627:\n        /* \"#utility.yul\":22696:22701   */\n      dup2\n        /* \"#utility.yul\":22693:22725   */\n      eq\n        /* \"#utility.yul\":22683:22743   */\n      tag_628\n      jumpi\n        /* \"#utility.yul\":22739:22740   */\n      0x00\n        /* \"#utility.yul\":22736:22737   */\n      dup1\n        /* \"#utility.yul\":22729:22741   */\n      revert\n        /* \"#utility.yul\":22683:22743   */\n    tag_628:\n        /* \"#utility.yul\":22633:22749   */\n      pop\n      jump\t// out\n        /* \"#utility.yul\":22755:22892   */\n    tag_389:\n        /* \"#utility.yul\":22809:22814   */\n      0x00\n        /* \"#utility.yul\":22840:22846   */\n      dup2\n        /* \"#utility.yul\":22834:22847   */\n      mload\n        /* \"#utility.yul\":22825:22847   */\n      swap1\n      pop\n        /* \"#utility.yul\":22856:22886   */\n      tag_630\n        /* \"#utility.yul\":22880:22885   */\n      dup2\n        /* \"#utility.yul\":22856:22886   */\n      tag_388\n      jump\t// in\n    tag_630:\n        /* \"#utility.yul\":22755:22892   */\n      swap3\n      swap2\n      pop\n      pop\n      jump\t// out\n        /* \"#utility.yul\":22933:24392   */\n    tag_390:\n        /* \"#utility.yul\":23021:23026   */\n      0x00\n        /* \"#utility.yul\":23065:23069   */\n      0xa0\n        /* \"#utility.yul\":23053:23062   */\n      dup3\n        /* \"#utility.yul\":23048:23051   */\n      dup5\n        /* \"#utility.yul\":23044:23063   */\n      sub\n        /* \"#utility.yul\":23040:23070   */\n      slt\n        /* \"#utility.yul\":23037:23154   */\n      iszero\n      tag_632\n      jumpi\n        /* \"#utility.yul\":23073:23152   */\n      tag_633\n      tag_374\n      jump\t// in\n    tag_633:\n        /* \"#utility.yul\":23037:23154   */\n    tag_632:\n        /* \"#utility.yul\":23172:23193   */\n      tag_634\n        /* \"#utility.yul\":23188:23192   */\n      0xa0\n        /* \"#utility.yul\":23172:23193   */\n      tag_377\n      jump\t// in\n    tag_634:\n        /* \"#utility.yul\":23163:23193   */\n      swap1\n      pop\n        /* \"#utility.yul\":23250:23251   */\n      0x00\n        /* \"#utility.yul\":23290:23350   */\n      tag_635\n        /* \"#utility.yul\":23346:23349   */\n      dup5\n        /* \"#utility.yul\":23337:23343   */\n      dup3\n        /* \"#utility.yul\":23326:23335   */\n      dup6\n        /* \"#utility.yul\":23322:23344   */\n      add\n        /* \"#utility.yul\":23290:23350   */\n      tag_379\n      jump\t// in\n    tag_635:\n        /* \"#utility.yul\":23283:23287   */\n      0x00\n        /* \"#utility.yul\":23276:23281   */\n      dup4\n        /* \"#utility.yul\":23272:23288   */\n      add\n        /* \"#utility.yul\":23265:23351   */\n      mstore\n        /* \"#utility.yul\":23203:23362   */\n      pop\n        /* \"#utility.yul\":23422:23424   */\n      0x20\n        /* \"#utility.yul\":23463:23523   */\n      tag_636\n        /* \"#utility.yul\":23519:23522   */\n      dup5\n        /* \"#utility.yul\":23510:23516   */\n      dup3\n        /* \"#utility.yul\":23499:23508   */\n      dup6\n        /* \"#utility.yul\":23495:23517   */\n      add\n        /* \"#utility.yul\":23463:23523   */\n      tag_380\n      jump\t// in\n    tag_636:\n        /* \"#utility.yul\":23456:23460   */\n      0x20\n        /* \"#utility.yul\":23449:23454   */\n      dup4\n        /* \"#utility.yul\":23445:23461   */\n      add\n        /* \"#utility.yul\":23438:23524   */\n      mstore\n        /* \"#utility.yul\":23372:23535   */\n      pop\n        /* \"#utility.yul\":23617:23619   */\n      0x40\n        /* \"#utility.yul\":23606:23615   */\n      dup3\n        /* \"#utility.yul\":23602:23620   */\n      add\n        /* \"#utility.yul\":23596:23621   */\n      mload\n        /* \"#utility.yul\":23648:23666   */\n      0xffffffffffffffff\n        /* \"#utility.yul\":23640:23646   */\n      dup2\n        /* \"#utility.yul\":23637:23667   */\n      gt\n        /* \"#utility.yul\":23634:23751   */\n      iszero\n      tag_637\n      jumpi\n        /* \"#utility.yul\":23670:23749   */\n      tag_638\n      tag_378\n      jump\t// in\n    tag_638:\n        /* \"#utility.yul\":23634:23751   */\n    tag_637:\n        /* \"#utility.yul\":23790:23860   */\n      tag_639\n        /* \"#utility.yul\":23856:23859   */\n      dup5\n        /* \"#utility.yul\":23847:23853   */\n      dup3\n        /* \"#utility.yul\":23836:23845   */\n      dup6\n        /* \"#utility.yul\":23832:23854   */\n      add\n        /* \"#utility.yul\":23790:23860   */\n      tag_386\n      jump\t// in\n    tag_639:\n        /* \"#utility.yul\":23783:23787   */\n      0x40\n        /* \"#utility.yul\":23776:23781   */\n      dup4\n        /* \"#utility.yul\":23772:23788   */\n      add\n        /* \"#utility.yul\":23765:23861   */\n      mstore\n        /* \"#utility.yul\":23545:23872   */\n      pop\n        /* \"#utility.yul\":23958:23960   */\n      0x60\n        /* \"#utility.yul\":23947:23956   */\n      dup3\n        /* \"#utility.yul\":23943:23961   */\n      add\n        /* \"#utility.yul\":23937:23962   */\n      mload\n        /* \"#utility.yul\":23989:24007   */\n      0xffffffffffffffff\n        /* \"#utility.yul\":23981:23987   */\n      dup2\n        /* \"#utility.yul\":23978:24008   */\n      gt\n        /* \"#utility.yul\":23975:24092   */\n      iszero\n      tag_640\n      jumpi\n        /* \"#utility.yul\":24011:24090   */\n      tag_641\n      tag_378\n      jump\t// in\n    tag_641:\n        /* \"#utility.yul\":23975:24092   */\n    tag_640:\n        /* \"#utility.yul\":24131:24201   */\n      tag_642\n        /* \"#utility.yul\":24197:24200   */\n      dup5\n        /* \"#utility.yul\":24188:24194   */\n      dup3\n        /* \"#utility.yul\":24177:24186   */\n      dup6\n        /* \"#utility.yul\":24173:24195   */\n      add\n        /* \"#utility.yul\":24131:24201   */\n      tag_386\n      jump\t// in\n    tag_642:\n        /* \"#utility.yul\":24124:24128   */\n      0x60\n        /* \"#utility.yul\":24117:24122   */\n      dup4\n        /* \"#utility.yul\":24113:24129   */\n      add\n        /* \"#utility.yul\":24106:24202   */\n      mstore\n        /* \"#utility.yul\":23882:24213   */\n      pop\n        /* \"#utility.yul\":24274:24277   */\n      0x80\n        /* \"#utility.yul\":24316:24373   */\n      tag_643\n        /* \"#utility.yul\":24369:24372   */\n      dup5\n        /* \"#utility.yul\":24360:24366   */\n      dup3\n        /* \"#utility.yul\":24349:24358   */\n      dup6\n        /* \"#utility.yul\":24345:24367   */\n      add\n        /* \"#utility.yul\":24316:24373   */\n      tag_389\n      jump\t// in\n    tag_643:\n        /* \"#utility.yul\":24309:24313   */\n      0x80\n        /* \"#utility.yul\":24302:24307   */\n      dup4\n        /* \"#utility.yul\":24298:24314   */\n      add\n        /* \"#utility.yul\":24291:24374   */\n      mstore\n        /* \"#utility.yul\":24223:24385   */\n      pop\n        /* \"#utility.yul\":22933:24392   */\n      swap3\n      swap2\n      pop\n      pop\n      jump\t// out\n        /* \"#utility.yul\":24398:24958   */\n    tag_205:\n        /* \"#utility.yul\":24496:24502   */\n      0x00\n        /* \"#utility.yul\":24545:24547   */\n      0x20\n        /* \"#utility.yul\":24533:24542   */\n      dup3\n        /* \"#utility.yul\":24524:24531   */\n      dup5\n        /* \"#utility.yul\":24520:24543   */\n      sub\n        /* \"#utility.yul\":24516:24548   */\n      slt\n        /* \"#utility.yul\":24513:24632   */\n      iszero\n      tag_645\n      jumpi\n        /* \"#utility.yul\":24551:24630   */\n      tag_646\n      tag_336\n      jump\t// in\n    tag_646:\n        /* \"#utility.yul\":24513:24632   */\n    tag_645:\n        /* \"#utility.yul\":24692:24693   */\n      0x00\n        /* \"#utility.yul\":24681:24690   */\n      dup3\n        /* \"#utility.yul\":24677:24694   */\n      add\n        /* \"#utility.yul\":24671:24695   */\n      mload\n        /* \"#utility.yul\":24722:24740   */\n      0xffffffffffffffff\n        /* \"#utility.yul\":24714:24720   */\n      dup2\n        /* \"#utility.yul\":24711:24741   */\n      gt\n        /* \"#utility.yul\":24708:24825   */\n      iszero\n      tag_647\n      jumpi\n        /* \"#utility.yul\":24744:24823   */\n      tag_648\n      tag_337\n      jump\t// in\n    tag_648:\n        /* \"#utility.yul\":24708:24825   */\n    tag_647:\n        /* \"#utility.yul\":24849:24941   */\n      tag_649\n        /* \"#utility.yul\":24933:24940   */\n      dup5\n        /* \"#utility.yul\":24924:24930   */\n      dup3\n        /* \"#utility.yul\":24913:24922   */\n      dup6\n        /* \"#utility.yul\":24909:24931   */\n      add\n        /* \"#utility.yul\":24849:24941   */\n      tag_390\n      jump\t// in\n    tag_649:\n        /* \"#utility.yul\":24839:24941   */\n      swap2\n      pop\n        /* \"#utility.yul\":24642:24951   */\n      pop\n        /* \"#utility.yul\":24398:24958   */\n      swap3\n      swap2\n      pop\n      pop\n      jump\t// out\n        /* \"#utility.yul\":24964:25406   */\n    tag_214:\n        /* \"#utility.yul\":25113:25117   */\n      0x00\n        /* \"#utility.yul\":25151:25153   */\n      0x60\n        /* \"#utility.yul\":25140:25149   */\n      dup3\n        /* \"#utility.yul\":25136:25154   */\n      add\n        /* \"#utility.yul\":25128:25154   */\n      swap1\n      pop\n        /* \"#utility.yul\":25164:25235   */\n      tag_651\n        /* \"#utility.yul\":25232:25233   */\n      0x00\n        /* \"#utility.yul\":25221:25230   */\n      dup4\n        /* \"#utility.yul\":25217:25234   */\n      add\n        /* \"#utility.yul\":25208:25214   */\n      dup7\n        /* \"#utility.yul\":25164:25235   */\n      tag_357\n      jump\t// in\n    tag_651:\n        /* \"#utility.yul\":25245:25317   */\n      tag_652\n        /* \"#utility.yul\":25313:25315   */\n      0x20\n        /* \"#utility.yul\":25302:25311   */\n      dup4\n        /* \"#utility.yul\":25298:25316   */\n      add\n        /* \"#utility.yul\":25289:25295   */\n      dup6\n        /* \"#utility.yul\":25245:25317   */\n      tag_357\n      jump\t// in\n    tag_652:\n        /* \"#utility.yul\":25327:25399   */\n      tag_653\n        /* \"#utility.yul\":25395:25397   */\n      0x40\n        /* \"#utility.yul\":25384:25393   */\n      dup4\n        /* \"#utility.yul\":25380:25398   */\n      add\n        /* \"#utility.yul\":25371:25377   */\n      dup5\n        /* \"#utility.yul\":25327:25399   */\n      tag_356\n      jump\t// in\n    tag_653:\n        /* \"#utility.yul\":24964:25406   */\n      swap5\n      swap4\n      pop\n      pop\n      pop\n      pop\n      jump\t// out\n        /* \"#utility.yul\":25412:25663   */\n    tag_391:\n        /* \"#utility.yul\":25552:25586   */\n      0x506c65617365207375626d6974207468652061736b696e672070726963652069\n        /* \"#utility.yul\":25548:25549   */\n      0x00\n        /* \"#utility.yul\":25540:25546   */\n      dup3\n        /* \"#utility.yul\":25536:25550   */\n      add\n        /* \"#utility.yul\":25529:25587   */\n      mstore\n        /* \"#utility.yul\":25621:25655   */\n      0x6e206f7264657220746f20636f6d706c65746520746865207075726368617365\n        /* \"#utility.yul\":25616:25618   */\n      0x20\n        /* \"#utility.yul\":25608:25614   */\n      dup3\n        /* \"#utility.yul\":25604:25619   */\n      add\n        /* \"#utility.yul\":25597:25656   */\n      mstore\n        /* \"#utility.yul\":25412:25663   */\n      pop\n      jump\t// out\n        /* \"#utility.yul\":25669:26035   */\n    tag_392:\n        /* \"#utility.yul\":25811:25814   */\n      0x00\n        /* \"#utility.yul\":25832:25899   */\n      tag_656\n        /* \"#utility.yul\":25896:25898   */\n      0x40\n        /* \"#utility.yul\":25891:25894   */\n      dup4\n        /* \"#utility.yul\":25832:25899   */\n      tag_366\n      jump\t// in\n    tag_656:\n        /* \"#utility.yul\":25825:25899   */\n      swap2\n      pop\n        /* \"#utility.yul\":25908:26001   */\n      tag_657\n        /* \"#utility.yul\":25997:26000   */\n      dup3\n        /* \"#utility.yul\":25908:26001   */\n      tag_391\n      jump\t// in\n    tag_657:\n        /* \"#utility.yul\":26026:26028   */\n      0x40\n        /* \"#utility.yul\":26021:26024   */\n      dup3\n        /* \"#utility.yul\":26017:26029   */\n      add\n        /* \"#utility.yul\":26010:26029   */\n      swap1\n      pop\n        /* \"#utility.yul\":25669:26035   */\n      swap2\n      swap1\n      pop\n      jump\t// out\n        /* \"#utility.yul\":26041:26460   */\n    tag_240:\n        /* \"#utility.yul\":26207:26211   */\n      0x00\n        /* \"#utility.yul\":26245:26247   */\n      0x20\n        /* \"#utility.yul\":26234:26243   */\n      dup3\n        /* \"#utility.yul\":26230:26248   */\n      add\n        /* \"#utility.yul\":26222:26248   */\n      swap1\n      pop\n        /* \"#utility.yul\":26294:26303   */\n      dup2\n        /* \"#utility.yul\":26288:26292   */\n      dup2\n        /* \"#utility.yul\":26284:26304   */\n      sub\n        /* \"#utility.yul\":26280:26281   */\n      0x00\n        /* \"#utility.yul\":26269:26278   */\n      dup4\n        /* \"#utility.yul\":26265:26282   */\n      add\n        /* \"#utility.yul\":26258:26305   */\n      mstore\n        /* \"#utility.yul\":26322:26453   */\n      tag_659\n        /* \"#utility.yul\":26448:26452   */\n      dup2\n        /* \"#utility.yul\":26322:26453   */\n      tag_392\n      jump\t// in\n    tag_659:\n        /* \"#utility.yul\":26314:26453   */\n      swap1\n      pop\n        /* \"#utility.yul\":26041:26460   */\n      swap2\n      swap1\n      pop\n      jump\t// out\n        /* \"#utility.yul\":26466:26600   */\n    tag_393:\n        /* \"#utility.yul\":26524:26533   */\n      0x00\n        /* \"#utility.yul\":26557:26594   */\n      tag_661\n        /* \"#utility.yul\":26588:26593   */\n      dup3\n        /* \"#utility.yul\":26557:26594   */\n      tag_353\n      jump\t// in\n    tag_661:\n        /* \"#utility.yul\":26544:26594   */\n      swap1\n      pop\n        /* \"#utility.yul\":26466:26600   */\n      swap2\n      swap1\n      pop\n      jump\t// out\n        /* \"#utility.yul\":26606:26753   */\n    tag_394:\n        /* \"#utility.yul\":26701:26746   */\n      tag_663\n        /* \"#utility.yul\":26740:26745   */\n      dup2\n        /* \"#utility.yul\":26701:26746   */\n      tag_393\n      jump\t// in\n    tag_663:\n        /* \"#utility.yul\":26696:26699   */\n      dup3\n        /* \"#utility.yul\":26689:26747   */\n      mstore\n        /* \"#utility.yul\":26606:26753   */\n      pop\n      pop\n      jump\t// out\n        /* \"#utility.yul\":26759:27217   */\n    tag_242:\n        /* \"#utility.yul\":26916:26920   */\n      0x00\n        /* \"#utility.yul\":26954:26956   */\n      0x60\n        /* \"#utility.yul\":26943:26952   */\n      dup3\n        /* \"#utility.yul\":26939:26957   */\n      add\n        /* \"#utility.yul\":26931:26957   */\n      swap1\n      pop\n        /* \"#utility.yul\":26967:27038   */\n      tag_665\n        /* \"#utility.yul\":27035:27036   */\n      0x00\n        /* \"#utility.yul\":27024:27033   */\n      dup4\n        /* \"#utility.yul\":27020:27037   */\n      add\n        /* \"#utility.yul\":27011:27017   */\n      dup7\n        /* \"#utility.yul\":26967:27038   */\n      tag_357\n      jump\t// in\n    tag_665:\n        /* \"#utility.yul\":27048:27128   */\n      tag_666\n        /* \"#utility.yul\":27124:27126   */\n      0x20\n        /* \"#utility.yul\":27113:27122   */\n      dup4\n        /* \"#utility.yul\":27109:27127   */\n      add\n        /* \"#utility.yul\":27100:27106   */\n      dup6\n        /* \"#utility.yul\":27048:27128   */\n      tag_394\n      jump\t// in\n    tag_666:\n        /* \"#utility.yul\":27138:27210   */\n      tag_667\n        /* \"#utility.yul\":27206:27208   */\n      0x40\n        /* \"#utility.yul\":27195:27204   */\n      dup4\n        /* \"#utility.yul\":27191:27209   */\n      add\n        /* \"#utility.yul\":27182:27188   */\n      dup5\n        /* \"#utility.yul\":27138:27210   */\n      tag_356\n      jump\t// in\n    tag_667:\n        /* \"#utility.yul\":26759:27217   */\n      swap5\n      swap4\n      pop\n      pop\n      pop\n      pop\n      jump\t// out\n        /* \"#utility.yul\":27223:27568   */\n    tag_246:\n        /* \"#utility.yul\":27290:27296   */\n      0x00\n        /* \"#utility.yul\":27339:27341   */\n      0x20\n        /* \"#utility.yul\":27327:27336   */\n      dup3\n        /* \"#utility.yul\":27318:27325   */\n      dup5\n        /* \"#utility.yul\":27314:27337   */\n      sub\n        /* \"#utility.yul\":27310:27342   */\n      slt\n        /* \"#utility.yul\":27307:27426   */\n      iszero\n      tag_669\n      jumpi\n        /* \"#utility.yul\":27345:27424   */\n      tag_670\n      tag_336\n      jump\t// in\n    tag_670:\n        /* \"#utility.yul\":27307:27426   */\n    tag_669:\n        /* \"#utility.yul\":27465:27466   */\n      0x00\n        /* \"#utility.yul\":27490:27551   */\n      tag_671\n        /* \"#utility.yul\":27543:27550   */\n      dup5\n        /* \"#utility.yul\":27534:27540   */\n      dup3\n        /* \"#utility.yul\":27523:27532   */\n      dup6\n        /* \"#utility.yul\":27519:27541   */\n      add\n        /* \"#utility.yul\":27490:27551   */\n      tag_389\n      jump\t// in\n    tag_671:\n        /* \"#utility.yul\":27480:27551   */\n      swap2\n      pop\n        /* \"#utility.yul\":27436:27561   */\n      pop\n        /* \"#utility.yul\":27223:27568   */\n      swap3\n      swap2\n      pop\n      pop\n      jump\t// out\n        /* \"#utility.yul\":27574:27743   */\n    tag_395:\n        /* \"#utility.yul\":27714:27735   */\n      0x4173736574206e6f74207075626c697368656400000000000000000000000000\n        /* \"#utility.yul\":27710:27711   */\n      0x00\n        /* \"#utility.yul\":27702:27708   */\n      dup3\n        /* \"#utility.yul\":27698:27712   */\n      add\n        /* \"#utility.yul\":27691:27736   */\n      mstore\n        /* \"#utility.yul\":27574:27743   */\n      pop\n      jump\t// out\n        /* \"#utility.yul\":27749:28115   */\n    tag_396:\n        /* \"#utility.yul\":27891:27894   */\n      0x00\n        /* \"#utility.yul\":27912:27979   */\n      tag_674\n        /* \"#utility.yul\":27976:27978   */\n      0x13\n        /* \"#utility.yul\":27971:27974   */\n      dup4\n        /* \"#utility.yul\":27912:27979   */\n      tag_366\n      jump\t// in\n    tag_674:\n        /* \"#utility.yul\":27905:27979   */\n      swap2\n      pop\n        /* \"#utility.yul\":27988:28081   */\n      tag_675\n        /* \"#utility.yul\":28077:28080   */\n      dup3\n        /* \"#utility.yul\":27988:28081   */\n      tag_395\n      jump\t// in\n    tag_675:\n        /* \"#utility.yul\":28106:28108   */\n      0x20\n        /* \"#utility.yul\":28101:28104   */\n      dup3\n        /* \"#utility.yul\":28097:28109   */\n      add\n        /* \"#utility.yul\":28090:28109   */\n      swap1\n      pop\n        /* \"#utility.yul\":27749:28115   */\n      swap2\n      swap1\n      pop\n      jump\t// out\n        /* \"#utility.yul\":28121:28540   */\n    tag_263:\n        /* \"#utility.yul\":28287:28291   */\n      0x00\n        /* \"#utility.yul\":28325:28327   */\n      0x20\n        /* \"#utility.yul\":28314:28323   */\n      dup3\n        /* \"#utility.yul\":28310:28328   */\n      add\n        /* \"#utility.yul\":28302:28328   */\n      swap1\n      pop\n        /* \"#utility.yul\":28374:28383   */\n      dup2\n        /* \"#utility.yul\":28368:28372   */\n      dup2\n        /* \"#utility.yul\":28364:28384   */\n      sub\n        /* \"#utility.yul\":28360:28361   */\n      0x00\n        /* \"#utility.yul\":28349:28358   */\n      dup4\n        /* \"#utility.yul\":28345:28362   */\n      add\n        /* \"#utility.yul\":28338:28385   */\n      mstore\n        /* \"#utility.yul\":28402:28533   */\n      tag_677\n        /* \"#utility.yul\":28528:28532   */\n      dup2\n        /* \"#utility.yul\":28402:28533   */\n      tag_396\n      jump\t// in\n    tag_677:\n        /* \"#utility.yul\":28394:28533   */\n      swap1\n      pop\n        /* \"#utility.yul\":28121:28540   */\n      swap2\n      swap1\n      pop\n      jump\t// out\n        /* \"#utility.yul\":28546:28710   */\n    tag_397:\n        /* \"#utility.yul\":28686:28702   */\n      0x41737365742064656c6973746564000000000000000000000000000000000000\n        /* \"#utility.yul\":28682:28683   */\n      0x00\n        /* \"#utility.yul\":28674:28680   */\n      dup3\n        /* \"#utility.yul\":28670:28684   */\n      add\n        /* \"#utility.yul\":28663:28703   */\n      mstore\n        /* \"#utility.yul\":28546:28710   */\n      pop\n      jump\t// out\n        /* \"#utility.yul\":28716:29082   */\n    tag_398:\n        /* \"#utility.yul\":28858:28861   */\n      0x00\n        /* \"#utility.yul\":28879:28946   */\n      tag_680\n        /* \"#utility.yul\":28943:28945   */\n      0x0e\n        /* \"#utility.yul\":28938:28941   */\n      dup4\n        /* \"#utility.yul\":28879:28946   */\n      tag_366\n      jump\t// in\n    tag_680:\n        /* \"#utility.yul\":28872:28946   */\n      swap2\n      pop\n        /* \"#utility.yul\":28955:29048   */\n      tag_681\n        /* \"#utility.yul\":29044:29047   */\n      dup3\n        /* \"#utility.yul\":28955:29048   */\n      tag_397\n      jump\t// in\n    tag_681:\n        /* \"#utility.yul\":29073:29075   */\n      0x20\n        /* \"#utility.yul\":29068:29071   */\n      dup3\n        /* \"#utility.yul\":29064:29076   */\n      add\n        /* \"#utility.yul\":29057:29076   */\n      swap1\n      pop\n        /* \"#utility.yul\":28716:29082   */\n      swap2\n      swap1\n      pop\n      jump\t// out\n        /* \"#utility.yul\":29088:29507   */\n    tag_270:\n        /* \"#utility.yul\":29254:29258   */\n      0x00\n        /* \"#utility.yul\":29292:29294   */\n      0x20\n        /* \"#utility.yul\":29281:29290   */\n      dup3\n        /* \"#utility.yul\":29277:29295   */\n      add\n        /* \"#utility.yul\":29269:29295   */\n      swap1\n      pop\n        /* \"#utility.yul\":29341:29350   */\n      dup2\n        /* \"#utility.yul\":29335:29339   */\n      dup2\n        /* \"#utility.yul\":29331:29351   */\n      sub\n        /* \"#utility.yul\":29327:29328   */\n      0x00\n        /* \"#utility.yul\":29316:29325   */\n      dup4\n        /* \"#utility.yul\":29312:29329   */\n      add\n        /* \"#utility.yul\":29305:29352   */\n      mstore\n        /* \"#utility.yul\":29369:29500   */\n      tag_683\n        /* \"#utility.yul\":29495:29499   */\n      dup2\n        /* \"#utility.yul\":29369:29500   */\n      tag_398\n      jump\t// in\n    tag_683:\n        /* \"#utility.yul\":29361:29500   */\n      swap1\n      pop\n        /* \"#utility.yul\":29088:29507   */\n      swap2\n      swap1\n      pop\n      jump\t// out\n        /* \"#utility.yul\":29513:29678   */\n    tag_399:\n        /* \"#utility.yul\":29653:29670   */\n      0x496e76616c696420616464726573730000000000000000000000000000000000\n        /* \"#utility.yul\":29649:29650   */\n      0x00\n        /* \"#utility.yul\":29641:29647   */\n      dup3\n        /* \"#utility.yul\":29637:29651   */\n      add\n        /* \"#utility.yul\":29630:29671   */\n      mstore\n        /* \"#utility.yul\":29513:29678   */\n      pop\n      jump\t// out\n        /* \"#utility.yul\":29684:30050   */\n    tag_400:\n        /* \"#utility.yul\":29826:29829   */\n      0x00\n        /* \"#utility.yul\":29847:29914   */\n      tag_686\n        /* \"#utility.yul\":29911:29913   */\n      0x0f\n        /* \"#utility.yul\":29906:29909   */\n      dup4\n        /* \"#utility.yul\":29847:29914   */\n      tag_366\n      jump\t// in\n    tag_686:\n        /* \"#utility.yul\":29840:29914   */\n      swap2\n      pop\n        /* \"#utility.yul\":29923:30016   */\n      tag_687\n        /* \"#utility.yul\":30012:30015   */\n      dup3\n        /* \"#utility.yul\":29923:30016   */\n      tag_399\n      jump\t// in\n    tag_687:\n        /* \"#utility.yul\":30041:30043   */\n      0x20\n        /* \"#utility.yul\":30036:30039   */\n      dup3\n        /* \"#utility.yul\":30032:30044   */\n      add\n        /* \"#utility.yul\":30025:30044   */\n      swap1\n      pop\n        /* \"#utility.yul\":29684:30050   */\n      swap2\n      swap1\n      pop\n      jump\t// out\n        /* \"#utility.yul\":30056:30475   */\n    tag_273:\n        /* \"#utility.yul\":30222:30226   */\n      0x00\n        /* \"#utility.yul\":30260:30262   */\n      0x20\n        /* \"#utility.yul\":30249:30258   */\n      dup3\n        /* \"#utility.yul\":30245:30263   */\n      add\n        /* \"#utility.yul\":30237:30263   */\n      swap1\n      pop\n        /* \"#utility.yul\":30309:30318   */\n      dup2\n        /* \"#utility.yul\":30303:30307   */\n      dup2\n        /* \"#utility.yul\":30299:30319   */\n      sub\n        /* \"#utility.yul\":30295:30296   */\n      0x00\n        /* \"#utility.yul\":30284:30293   */\n      dup4\n        /* \"#utility.yul\":30280:30297   */\n      add\n        /* \"#utility.yul\":30273:30320   */\n      mstore\n        /* \"#utility.yul\":30337:30468   */\n      tag_689\n        /* \"#utility.yul\":30463:30467   */\n      dup2\n        /* \"#utility.yul\":30337:30468   */\n      tag_400\n      jump\t// in\n    tag_689:\n        /* \"#utility.yul\":30329:30468   */\n      swap1\n      pop\n        /* \"#utility.yul\":30056:30475   */\n      swap2\n      swap1\n      pop\n      jump\t// out\n        /* \"#utility.yul\":30481:30653   */\n    tag_401:\n        /* \"#utility.yul\":30621:30645   */\n      0x4f6e6c792073656c6c65722063616e2064656c69737400000000000000000000\n        /* \"#utility.yul\":30617:30618   */\n      0x00\n        /* \"#utility.yul\":30609:30615   */\n      dup3\n        /* \"#utility.yul\":30605:30619   */\n      add\n        /* \"#utility.yul\":30598:30646   */\n      mstore\n        /* \"#utility.yul\":30481:30653   */\n      pop\n      jump\t// out\n        /* \"#utility.yul\":30659:31025   */\n    tag_402:\n        /* \"#utility.yul\":30801:30804   */\n      0x00\n        /* \"#utility.yul\":30822:30889   */\n      tag_692\n        /* \"#utility.yul\":30886:30888   */\n      0x16\n        /* \"#utility.yul\":30881:30884   */\n      dup4\n        /* \"#utility.yul\":30822:30889   */\n      tag_366\n      jump\t// in\n    tag_692:\n        /* \"#utility.yul\":30815:30889   */\n      swap2\n      pop\n        /* \"#utility.yul\":30898:30991   */\n      tag_693\n        /* \"#utility.yul\":30987:30990   */\n      dup3\n        /* \"#utility.yul\":30898:30991   */\n      tag_401\n      jump\t// in\n    tag_693:\n        /* \"#utility.yul\":31016:31018   */\n      0x20\n        /* \"#utility.yul\":31011:31014   */\n      dup3\n        /* \"#utility.yul\":31007:31019   */\n      add\n        /* \"#utility.yul\":31000:31019   */\n      swap1\n      pop\n        /* \"#utility.yul\":30659:31025   */\n      swap2\n      swap1\n      pop\n      jump\t// out\n        /* \"#utility.yul\":31031:31450   */\n    tag_276:\n        /* \"#utility.yul\":31197:31201   */\n      0x00\n        /* \"#utility.yul\":31235:31237   */\n      0x20\n        /* \"#utility.yul\":31224:31233   */\n      dup3\n        /* \"#utility.yul\":31220:31238   */\n      add\n        /* \"#utility.yul\":31212:31238   */\n      swap1\n      pop\n        /* \"#utility.yul\":31284:31293   */\n      dup2\n        /* \"#utility.yul\":31278:31282   */\n      dup2\n        /* \"#utility.yul\":31274:31294   */\n      sub\n        /* \"#utility.yul\":31270:31271   */\n      0x00\n        /* \"#utility.yul\":31259:31268   */\n      dup4\n        /* \"#utility.yul\":31255:31272   */\n      add\n        /* \"#utility.yul\":31248:31295   */\n      mstore\n        /* \"#utility.yul\":31312:31443   */\n      tag_695\n        /* \"#utility.yul\":31438:31442   */\n      dup2\n        /* \"#utility.yul\":31312:31443   */\n      tag_402\n      jump\t// in\n    tag_695:\n        /* \"#utility.yul\":31304:31443   */\n      swap1\n      pop\n        /* \"#utility.yul\":31031:31450   */\n      swap2\n      swap1\n      pop\n      jump\t// out\n        /* \"#utility.yul\":31456:31898   */\n    tag_286:\n        /* \"#utility.yul\":31605:31609   */\n      0x00\n        /* \"#utility.yul\":31643:31645   */\n      0x60\n        /* \"#utility.yul\":31632:31641   */\n      dup3\n        /* \"#utility.yul\":31628:31646   */\n      add\n        /* \"#utility.yul\":31620:31646   */\n      swap1\n      pop\n        /* \"#utility.yul\":31656:31727   */\n      tag_697\n        /* \"#utility.yul\":31724:31725   */\n      0x00\n        /* \"#utility.yul\":31713:31722   */\n      dup4\n        /* \"#utility.yul\":31709:31726   */\n      add\n        /* \"#utility.yul\":31700:31706   */\n      dup7\n        /* \"#utility.yul\":31656:31727   */\n      tag_357\n      jump\t// in\n    tag_697:\n        /* \"#utility.yul\":31737:31809   */\n      tag_698\n        /* \"#utility.yul\":31805:31807   */\n      0x20\n        /* \"#utility.yul\":31794:31803   */\n      dup4\n        /* \"#utility.yul\":31790:31808   */\n      add\n        /* \"#utility.yul\":31781:31787   */\n      dup6\n        /* \"#utility.yul\":31737:31809   */\n      tag_356\n      jump\t// in\n    tag_698:\n        /* \"#utility.yul\":31819:31891   */\n      tag_699\n        /* \"#utility.yul\":31887:31889   */\n      0x40\n        /* \"#utility.yul\":31876:31885   */\n      dup4\n        /* \"#utility.yul\":31872:31890   */\n      add\n        /* \"#utility.yul\":31863:31869   */\n      dup5\n        /* \"#utility.yul\":31819:31891   */\n      tag_356\n      jump\t// in\n    tag_699:\n        /* \"#utility.yul\":31456:31898   */\n      swap5\n      swap4\n      pop\n      pop\n      pop\n      pop\n      jump\t// out\n        /* \"#utility.yul\":31904:32129   */\n    tag_403:\n        /* \"#utility.yul\":32044:32078   */\n      0x4f776e61626c653a206e6577206f776e657220697320746865207a65726f2061\n        /* \"#utility.yul\":32040:32041   */\n      0x00\n        /* \"#utility.yul\":32032:32038   */\n      dup3\n        /* \"#utility.yul\":32028:32042   */\n      add\n        /* \"#utility.yul\":32021:32079   */\n      mstore\n        /* \"#utility.yul\":32113:32121   */\n      0x6464726573730000000000000000000000000000000000000000000000000000\n        /* \"#utility.yul\":32108:32110   */\n      0x20\n        /* \"#utility.yul\":32100:32106   */\n      dup3\n        /* \"#utility.yul\":32096:32111   */\n      add\n        /* \"#utility.yul\":32089:32122   */\n      mstore\n        /* \"#utility.yul\":31904:32129   */\n      pop\n      jump\t// out\n        /* \"#utility.yul\":32135:32501   */\n    tag_404:\n        /* \"#utility.yul\":32277:32280   */\n      0x00\n        /* \"#utility.yul\":32298:32365   */\n      tag_702\n        /* \"#utility.yul\":32362:32364   */\n      0x26\n        /* \"#utility.yul\":32357:32360   */\n      dup4\n        /* \"#utility.yul\":32298:32365   */\n      tag_366\n      jump\t// in\n    tag_702:\n        /* \"#utility.yul\":32291:32365   */\n      swap2\n      pop\n        /* \"#utility.yul\":32374:32467   */\n      tag_703\n        /* \"#utility.yul\":32463:32466   */\n      dup3\n        /* \"#utility.yul\":32374:32467   */\n      tag_403\n      jump\t// in\n    tag_703:\n        /* \"#utility.yul\":32492:32494   */\n      0x40\n        /* \"#utility.yul\":32487:32490   */\n      dup3\n        /* \"#utility.yul\":32483:32495   */\n      add\n        /* \"#utility.yul\":32476:32495   */\n      swap1\n      pop\n        /* \"#utility.yul\":32135:32501   */\n      swap2\n      swap1\n      pop\n      jump\t// out\n        /* \"#utility.yul\":32507:32926   */\n    tag_301:\n        /* \"#utility.yul\":32673:32677   */\n      0x00\n        /* \"#utility.yul\":32711:32713   */\n      0x20\n        /* \"#utility.yul\":32700:32709   */\n      dup3\n        /* \"#utility.yul\":32696:32714   */\n      add\n        /* \"#utility.yul\":32688:32714   */\n      swap1\n      pop\n        /* \"#utility.yul\":32760:32769   */\n      dup2\n        /* \"#utility.yul\":32754:32758   */\n      dup2\n        /* \"#utility.yul\":32750:32770   */\n      sub\n        /* \"#utility.yul\":32746:32747   */\n      0x00\n        /* \"#utility.yul\":32735:32744   */\n      dup4\n        /* \"#utility.yul\":32731:32748   */\n      add\n        /* \"#utility.yul\":32724:32771   */\n      mstore\n        /* \"#utility.yul\":32788:32919   */\n      tag_705\n        /* \"#utility.yul\":32914:32918   */\n      dup2\n        /* \"#utility.yul\":32788:32919   */\n      tag_404\n      jump\t// in\n    tag_705:\n        /* \"#utility.yul\":32780:32919   */\n      swap1\n      pop\n        /* \"#utility.yul\":32507:32926   */\n      swap2\n      swap1\n      pop\n      jump\t// out\n        /* \"#utility.yul\":32932:33155   */\n    tag_405:\n        /* \"#utility.yul\":33072:33106   */\n      0x546865204e465420416464726573732073686f756c64206265206120636f6e74\n        /* \"#utility.yul\":33068:33069   */\n      0x00\n        /* \"#utility.yul\":33060:33066   */\n      dup3\n        /* \"#utility.yul\":33056:33070   */\n      add\n        /* \"#utility.yul\":33049:33107   */\n      mstore\n        /* \"#utility.yul\":33141:33147   */\n      0x7261637400000000000000000000000000000000000000000000000000000000\n        /* \"#utility.yul\":33136:33138   */\n      0x20\n        /* \"#utility.yul\":33128:33134   */\n      dup3\n        /* \"#utility.yul\":33124:33139   */\n      add\n        /* \"#utility.yul\":33117:33148   */\n      mstore\n        /* \"#utility.yul\":32932:33155   */\n      pop\n      jump\t// out\n        /* \"#utility.yul\":33161:33527   */\n    tag_406:\n        /* \"#utility.yul\":33303:33306   */\n      0x00\n        /* \"#utility.yul\":33324:33391   */\n      tag_708\n        /* \"#utility.yul\":33388:33390   */\n      0x24\n        /* \"#utility.yul\":33383:33386   */\n      dup4\n        /* \"#utility.yul\":33324:33391   */\n      tag_366\n      jump\t// in\n    tag_708:\n        /* \"#utility.yul\":33317:33391   */\n      swap2\n      pop\n        /* \"#utility.yul\":33400:33493   */\n      tag_709\n        /* \"#utility.yul\":33489:33492   */\n      dup3\n        /* \"#utility.yul\":33400:33493   */\n      tag_405\n      jump\t// in\n    tag_709:\n        /* \"#utility.yul\":33518:33520   */\n      0x40\n        /* \"#utility.yul\":33513:33516   */\n      dup3\n        /* \"#utility.yul\":33509:33521   */\n      add\n        /* \"#utility.yul\":33502:33521   */\n      swap1\n      pop\n        /* \"#utility.yul\":33161:33527   */\n      swap2\n      swap1\n      pop\n      jump\t// out\n        /* \"#utility.yul\":33533:33952   */\n    tag_312:\n        /* \"#utility.yul\":33699:33703   */\n      0x00\n        /* \"#utility.yul\":33737:33739   */\n      0x20\n        /* \"#utility.yul\":33726:33735   */\n      dup3\n        /* \"#utility.yul\":33722:33740   */\n      add\n        /* \"#utility.yul\":33714:33740   */\n      swap1\n      pop\n        /* \"#utility.yul\":33786:33795   */\n      dup2\n        /* \"#utility.yul\":33780:33784   */\n      dup2\n        /* \"#utility.yul\":33776:33796   */\n      sub\n        /* \"#utility.yul\":33772:33773   */\n      0x00\n        /* \"#utility.yul\":33761:33770   */\n      dup4\n        /* \"#utility.yul\":33757:33774   */\n      add\n        /* \"#utility.yul\":33750:33797   */\n      mstore\n        /* \"#utility.yul\":33814:33945   */\n      tag_711\n        /* \"#utility.yul\":33940:33944   */\n      dup2\n        /* \"#utility.yul\":33814:33945   */\n      tag_406\n      jump\t// in\n    tag_711:\n        /* \"#utility.yul\":33806:33945   */\n      swap1\n      pop\n        /* \"#utility.yul\":33533:33952   */\n      swap2\n      swap1\n      pop\n      jump\t// out\n        /* \"#utility.yul\":33958:34198   */\n    tag_407:\n        /* \"#utility.yul\":34098:34132   */\n      0x546865204e465420636f6e74726163742068617320616e20696e76616c696420\n        /* \"#utility.yul\":34094:34095   */\n      0x00\n        /* \"#utility.yul\":34086:34092   */\n      dup3\n        /* \"#utility.yul\":34082:34096   */\n      add\n        /* \"#utility.yul\":34075:34133   */\n      mstore\n        /* \"#utility.yul\":34167:34190   */\n      0x45524337323120696d706c656d656e746174696f6e0000000000000000000000\n        /* \"#utility.yul\":34162:34164   */\n      0x20\n        /* \"#utility.yul\":34154:34160   */\n      dup3\n        /* \"#utility.yul\":34150:34165   */\n      add\n        /* \"#utility.yul\":34143:34191   */\n      mstore\n        /* \"#utility.yul\":33958:34198   */\n      pop\n      jump\t// out\n        /* \"#utility.yul\":34204:34570   */\n    tag_408:\n        /* \"#utility.yul\":34346:34349   */\n      0x00\n        /* \"#utility.yul\":34367:34434   */\n      tag_714\n        /* \"#utility.yul\":34431:34433   */\n      0x35\n        /* \"#utility.yul\":34426:34429   */\n      dup4\n        /* \"#utility.yul\":34367:34434   */\n      tag_366\n      jump\t// in\n    tag_714:\n        /* \"#utility.yul\":34360:34434   */\n      swap2\n      pop\n        /* \"#utility.yul\":34443:34536   */\n      tag_715\n        /* \"#utility.yul\":34532:34535   */\n      dup3\n        /* \"#utility.yul\":34443:34536   */\n      tag_407\n      jump\t// in\n    tag_715:\n        /* \"#utility.yul\":34561:34563   */\n      0x40\n        /* \"#utility.yul\":34556:34559   */\n      dup3\n        /* \"#utility.yul\":34552:34564   */\n      add\n        /* \"#utility.yul\":34545:34564   */\n      swap1\n      pop\n        /* \"#utility.yul\":34204:34570   */\n      swap2\n      swap1\n      pop\n      jump\t// out\n        /* \"#utility.yul\":34576:34995   */\n    tag_319:\n        /* \"#utility.yul\":34742:34746   */\n      0x00\n        /* \"#utility.yul\":34780:34782   */\n      0x20\n        /* \"#utility.yul\":34769:34778   */\n      dup3\n        /* \"#utility.yul\":34765:34783   */\n      add\n        /* \"#utility.yul\":34757:34783   */\n      swap1\n      pop\n        /* \"#utility.yul\":34829:34838   */\n      dup2\n        /* \"#utility.yul\":34823:34827   */\n      dup2\n        /* \"#utility.yul\":34819:34839   */\n      sub\n        /* \"#utility.yul\":34815:34816   */\n      0x00\n        /* \"#utility.yul\":34804:34813   */\n      dup4\n        /* \"#utility.yul\":34800:34817   */\n      add\n        /* \"#utility.yul\":34793:34840   */\n      mstore\n        /* \"#utility.yul\":34857:34988   */\n      tag_717\n        /* \"#utility.yul\":34983:34987   */\n      dup2\n        /* \"#utility.yul\":34857:34988   */\n      tag_408\n      jump\t// in\n    tag_717:\n        /* \"#utility.yul\":34849:34988   */\n      swap1\n      pop\n        /* \"#utility.yul\":34576:34995   */\n      swap2\n      swap1\n      pop\n      jump\t// out\n\n    auxdata: 0xa264697066735822122095e32d8d696552c323fac369520f649f21b367c1e1935deaf0b5805469335c9e64736f6c634300080d0033\n}\n",
				"bytecode": {
					"linkReferences": {},
					"object": "60806040523480156200001157600080fd5b506040516200363838038062003638833981810160405281019062000037919062000263565b60016000819055506200005f620000536200012b60201b60201c565b6200013360201b60201c565b82600a60006101000a81548173ffffffffffffffffffffffffffffffffffffffff021916908373ffffffffffffffffffffffffffffffffffffffff16021790555081600c60006101000a81548173ffffffffffffffffffffffffffffffffffffffff021916908373ffffffffffffffffffffffffffffffffffffffff16021790555080600b60006101000a81548173ffffffffffffffffffffffffffffffffffffffff021916908373ffffffffffffffffffffffffffffffffffffffff160217905550505050620002bf565b600033905090565b6000600d60009054906101000a900473ffffffffffffffffffffffffffffffffffffffff16905081600d60006101000a81548173ffffffffffffffffffffffffffffffffffffffff021916908373ffffffffffffffffffffffffffffffffffffffff1602179055508173ffffffffffffffffffffffffffffffffffffffff168173ffffffffffffffffffffffffffffffffffffffff167f8be0079c531659141344cd1fd0a4f28419497f9722a3daafe3b4186f6b6457e060405160405180910390a35050565b600080fd5b600073ffffffffffffffffffffffffffffffffffffffff82169050919050565b60006200022b82620001fe565b9050919050565b6200023d816200021e565b81146200024957600080fd5b50565b6000815190506200025d8162000232565b92915050565b6000806000606084860312156200027f576200027e620001f9565b5b60006200028f868287016200024c565b9350506020620002a2868287016200024c565b9250506040620002b5868287016200024c565b9150509250925092565b61336980620002cf6000396000f3fe6080604052600436106101355760003560e01c8063715018a6116100ab578063b7a60c7e1161006f578063b7a60c7e146103ed578063c45a015514610418578063c7be7a4914610443578063f2fde38b14610480578063f55de0c7146104a9578063ff68fa6e146104d457610135565b8063715018a61461032e57806385a8b36c146103455780638da5cb5b14610370578063a1c11ca81461039b578063ad9a0369146103c457610135565b80632b4c32be116100fd5780632b4c32be1461021f5780633fc15f151461024a578063517bd4511461027557806358eb2df5146102a65780635bb47808146102c25780635c80a435146102eb57610135565b80630f08efe01461013a57806315b1249414610165578063202e37401461018e57806327ce464e146101b95780632a45b250146101e2575b600080fd5b34801561014657600080fd5b5061014f610517565b60405161015c91906123a1565b60405180910390f35b34801561017157600080fd5b5061018c600480360381019061018791906123fc565b61068c565b005b34801561019a57600080fd5b506101a361074c565b6040516101b09190612566565b60405180910390f35b3480156101c557600080fd5b506101e060048036038101906101db91906123fc565b610ace565b005b3480156101ee57600080fd5b50610209600480360381019061020491906125b4565b610b8e565b60405161021691906123a1565b60405180910390f35b34801561022b57600080fd5b50610234610d1c565b604051610241919061261c565b60405180910390f35b34801561025657600080fd5b5061025f610d27565b60405161026c9190612696565b60405180910390f35b34801561028157600080fd5b5061028a610d4d565b60405161029d97969594939291906126ed565b60405180910390f35b6102c060048036038101906102bb919061275c565b610dea565b005b3480156102ce57600080fd5b506102e960048036038101906102e491906123fc565b6111ed565b005b3480156102f757600080fd5b50610312600480360381019061030d91906127af565b6112ad565b60405161032597969594939291906126ed565b60405180910390f35b34801561033a57600080fd5b50610343611369565b005b34801561035157600080fd5b5061035a6113f1565b604051610367919061280b565b60405180910390f35b34801561037c57600080fd5b50610385611404565b6040516103929190612826565b60405180910390f35b3480156103a757600080fd5b506103c260048036038101906103bd9190612841565b61142e565b005b3480156103d057600080fd5b506103eb60048036038101906103e691906127af565b611709565b005b3480156103f957600080fd5b50610402611be7565b60405161040f919061280b565b60405180910390f35b34801561042457600080fd5b5061042d611bfa565b60405161043a91906128a2565b60405180910390f35b34801561044f57600080fd5b5061046a600480360381019061046591906125b4565b611c20565b60405161047791906123a1565b60405180910390f35b34801561048c57600080fd5b506104a760048036038101906104a291906123fc565b611da8565b005b3480156104b557600080fd5b506104be611e9f565b6040516104cb91906128de565b60405180910390f35b3480156104e057600080fd5b506104fb60048036038101906104f691906125b4565b611ec5565b60405161050e97969594939291906126ed565b60405180910390f35b61051f612190565b60016040518060e0016040529081600082015481526020016001820160009054906101000a900473ffffffffffffffffffffffffffffffffffffffff1673ffffffffffffffffffffffffffffffffffffffff1673ffffffffffffffffffffffffffffffffffffffff168152602001600282015481526020016003820160009054906101000a900473ffffffffffffffffffffffffffffffffffffffff1673ffffffffffffffffffffffffffffffffffffffff1673ffffffffffffffffffffffffffffffffffffffff1681526020016004820160009054906101000a900473ffffffffffffffffffffffffffffffffffffffff1673ffffffffffffffffffffffffffffffffffffffff1673ffffffffffffffffffffffffffffffffffffffff168152602001600582015481526020016006820160009054906101000a900460ff1660018111156106715761067061229c565b5b60018111156106835761068261229c565b5b81525050905090565b610694611f74565b73ffffffffffffffffffffffffffffffffffffffff166106b2611404565b73ffffffffffffffffffffffffffffffffffffffff1614610708576040517f08c379a00000000000000000000000000000000000000000000000000000000081526004016106ff90612956565b60405180910390fd5b80600c60006101000a81548173ffffffffffffffffffffffffffffffffffffffff021916908373ffffffffffffffffffffffffffffffffffffffff16021790555050565b6060600061075a600e611f7c565b905060008060005b83811015610802573373ffffffffffffffffffffffffffffffffffffffff166010600060018461079291906129a5565b815260200190815260200160002060040160009054906101000a900473ffffffffffffffffffffffffffffffffffffffff1673ffffffffffffffffffffffffffffffffffffffff16036107ef576001836107ec91906129a5565b92505b80806107fa906129fb565b915050610762565b5060008267ffffffffffffffff81111561081f5761081e612a43565b5b60405190808252806020026020018201604052801561085857816020015b610845612190565b81526020019060019003908161083d5790505b50905060005b84811015610ac3573373ffffffffffffffffffffffffffffffffffffffff166010600060018461088e91906129a5565b815260200190815260200160002060040160009054906101000a900473ffffffffffffffffffffffffffffffffffffffff1673ffffffffffffffffffffffffffffffffffffffff1603610ab0576000601060006001846108ee91906129a5565b81526020019081526020016000206000015490506000601060008381526020019081526020016000209050806040518060e0016040529081600082015481526020016001820160009054906101000a900473ffffffffffffffffffffffffffffffffffffffff1673ffffffffffffffffffffffffffffffffffffffff1673ffffffffffffffffffffffffffffffffffffffff168152602001600282015481526020016003820160009054906101000a900473ffffffffffffffffffffffffffffffffffffffff1673ffffffffffffffffffffffffffffffffffffffff1673ffffffffffffffffffffffffffffffffffffffff1681526020016004820160009054906101000a900473ffffffffffffffffffffffffffffffffffffffff1673ffffffffffffffffffffffffffffffffffffffff1673ffffffffffffffffffffffffffffffffffffffff168152602001600582015481526020016006820160009054906101000a900460ff166001811115610a6a57610a6961229c565b5b6001811115610a7c57610a7b61229c565b5b81525050848681518110610a9357610a92612a72565b5b6020026020010181905250600185610aab91906129a5565b945050505b8080610abb906129fb565b91505061085e565b508094505050505090565b610ad6611f74565b73ffffffffffffffffffffffffffffffffffffffff16610af4611404565b73ffffffffffffffffffffffffffffffffffffffff1614610b4a576040517f08c379a0000000000000000000000000000000000000000000000000000000008152600401610b4190612956565b60405180910390fd5b80600a60006101000a81548173ffffffffffffffffffffffffffffffffffffffff021916908373ffffffffffffffffffffffffffffffffffffffff16021790555050565b610b96612190565b6000601060008481526020019081526020016000206040518060e0016040529081600082015481526020016001820160009054906101000a900473ffffffffffffffffffffffffffffffffffffffff1673ffffffffffffffffffffffffffffffffffffffff1673ffffffffffffffffffffffffffffffffffffffff168152602001600282015481526020016003820160009054906101000a900473ffffffffffffffffffffffffffffffffffffffff1673ffffffffffffffffffffffffffffffffffffffff1673ffffffffffffffffffffffffffffffffffffffff1681526020016004820160009054906101000a900473ffffffffffffffffffffffffffffffffffffffff1673ffffffffffffffffffffffffffffffffffffffff1673ffffffffffffffffffffffffffffffffffffffff168152602001600582015481526020016006820160009054906101000a900460ff166001811115610cfb57610cfa61229c565b5b6001811115610d0d57610d0c61229c565b5b81525050905080915050919050565b6380ac58cd60e01b81565b600a60009054906101000a900473ffffffffffffffffffffffffffffffffffffffff1681565b60018060000154908060010160009054906101000a900473ffffffffffffffffffffffffffffffffffffffff16908060020154908060030160009054906101000a900473ffffffffffffffffffffffffffffffffffffffff16908060040160009054906101000a900473ffffffffffffffffffffffffffffffffffffffff16908060050154908060060160009054906101000a900460ff16905087565b600260005403610e2f576040517f08c379a0000000000000000000000000000000000000000000000000000000008152600401610e2690612aed565b60405180910390fd5b600260008190555060008111610e7a576040517f08c379a0000000000000000000000000000000000000000000000000000000008152600401610e7190612b59565b60405180910390fd5b6000600b60009054906101000a900473ffffffffffffffffffffffffffffffffffffffff1673ffffffffffffffffffffffffffffffffffffffff1663d30bdac9846040518263ffffffff1660e01b8152600401610ed79190612b79565b600060405180830381865afa158015610ef4573d6000803e3d6000fd5b505050506040513d6000823e3d601f19601f82011682018060405250810190610f1d9190612dff565b9050610f29600e611f8a565b6000610f35600e611f7c565b90506040518060e001604052808281526020018673ffffffffffffffffffffffffffffffffffffffff1681526020018581526020013373ffffffffffffffffffffffffffffffffffffffff168152602001600073ffffffffffffffffffffffffffffffffffffffff168152602001848152602001600180811115610fbc57610fbb61229c565b5b815250601060008381526020019081526020016000206000820151816000015560208201518160010160006101000a81548173ffffffffffffffffffffffffffffffffffffffff021916908373ffffffffffffffffffffffffffffffffffffffff1602179055506040820151816002015560608201518160030160006101000a81548173ffffffffffffffffffffffffffffffffffffffff021916908373ffffffffffffffffffffffffffffffffffffffff16021790555060808201518160040160006101000a81548173ffffffffffffffffffffffffffffffffffffffff021916908373ffffffffffffffffffffffffffffffffffffffff16021790555060a0820151816005015560c08201518160060160006101000a81548160ff021916908360018111156110f0576110ef61229c565b5b0217905550905050600c60009054906101000a900473ffffffffffffffffffffffffffffffffffffffff1673ffffffffffffffffffffffffffffffffffffffff166323b872dd3330876040518463ffffffff1660e01b815260040161115793929190612e48565b600060405180830381600087803b15801561117157600080fd5b505af1158015611185573d6000803e3d6000fd5b50505050838573ffffffffffffffffffffffffffffffffffffffff16827f2ad024d53a0dc50c130967f8d4941927ee087ea31394cebb2b9599d3706c9c00336000886040516111d693929190612e48565b60405180910390a450506001600081905550505050565b6111f5611f74565b73ffffffffffffffffffffffffffffffffffffffff16611213611404565b73ffffffffffffffffffffffffffffffffffffffff1614611269576040517f08c379a000000000000000000000000000000000000000000000000000000000815260040161126090612956565b60405180910390fd5b80600b60006101000a81548173ffffffffffffffffffffffffffffffffffffffff021916908373ffffffffffffffffffffffffffffffffffffffff16021790555050565b6009602052816000526040600020602052806000526040600020600091509150508060000154908060010160009054906101000a900473ffffffffffffffffffffffffffffffffffffffff16908060020154908060030160009054906101000a900473ffffffffffffffffffffffffffffffffffffffff16908060040160009054906101000a900473ffffffffffffffffffffffffffffffffffffffff16908060050154908060060160009054906101000a900460ff16905087565b611371611f74565b73ffffffffffffffffffffffffffffffffffffffff1661138f611404565b73ffffffffffffffffffffffffffffffffffffffff16146113e5576040517f08c379a00000000000000000000000000000000000000000000000000000000081526004016113dc90612956565b60405180910390fd5b6113ef6000611fa0565b565b600c60149054906101000a900460ff1681565b6000600d60009054906101000a900473ffffffffffffffffffffffffffffffffffffffff16905090565b600260005403611473576040517f08c379a000000000000000000000000000000000000000000000000000000000815260040161146a90612aed565b60405180910390fd5b60026000819055506000601060008481526020019081526020016000206005015490506000601060008581526020019081526020016000206002015490508183146114f3576040517f08c379a00000000000000000000000000000000000000000000000000000000081526004016114ea90612ef1565b60405180910390fd5b600a60009054906101000a900473ffffffffffffffffffffffffffffffffffffffff1673ffffffffffffffffffffffffffffffffffffffff166323b872dd336010600088815260200190815260200160002060030160009054906101000a900473ffffffffffffffffffffffffffffffffffffffff16866040518463ffffffff1660e01b815260040161158893929190612f32565b6020604051808303816000875af11580156115a7573d6000803e3d6000fd5b505050506040513d601f19601f820116820180604052508101906115cb9190612f69565b50600c60009054906101000a900473ffffffffffffffffffffffffffffffffffffffff1673ffffffffffffffffffffffffffffffffffffffff166323b872dd3033846040518463ffffffff1660e01b815260040161162b93929190612e48565b600060405180830381600087803b15801561164557600080fd5b505af1158015611659573d6000803e3d6000fd5b50505050336010600086815260200190815260200160002060040160006101000a81548173ffffffffffffffffffffffffffffffffffffffff021916908373ffffffffffffffffffffffffffffffffffffffff16021790555060006010600086815260200190815260200160002060060160006101000a81548160ff021916908360018111156116ec576116eb61229c565b5b02179055506116fb600f611f8a565b505060016000819055505050565b61171282612066565b60003390506000601060008481526020019081526020016000206040518060e0016040529081600082015481526020016001820160009054906101000a900473ffffffffffffffffffffffffffffffffffffffff1673ffffffffffffffffffffffffffffffffffffffff1673ffffffffffffffffffffffffffffffffffffffff168152602001600282015481526020016003820160009054906101000a900473ffffffffffffffffffffffffffffffffffffffff1673ffffffffffffffffffffffffffffffffffffffff1673ffffffffffffffffffffffffffffffffffffffff1681526020016004820160009054906101000a900473ffffffffffffffffffffffffffffffffffffffff1673ffffffffffffffffffffffffffffffffffffffff1673ffffffffffffffffffffffffffffffffffffffff168152602001600582015481526020016006820160009054906101000a900460ff16600181111561187c5761187b61229c565b5b600181111561188e5761188d61229c565b5b81525050905060008160000151036118db576040517f08c379a00000000000000000000000000000000000000000000000000000000081526004016118d290612fe2565b60405180910390fd5b600060018111156118ef576118ee61229c565b5b8160c0015160018111156119065761190561229c565b5b03611946576040517f08c379a000000000000000000000000000000000000000000000000000000000815260040161193d9061304e565b60405180910390fd5b600081606001519050600073ffffffffffffffffffffffffffffffffffffffff168173ffffffffffffffffffffffffffffffffffffffff16036119be576040517f08c379a00000000000000000000000000000000000000000000000000000000081526004016119b5906130ba565b60405180910390fd5b3373ffffffffffffffffffffffffffffffffffffffff168173ffffffffffffffffffffffffffffffffffffffff1614611a2c576040517f08c379a0000000000000000000000000000000000000000000000000000000008152600401611a2390613126565b60405180910390fd5b60008590508073ffffffffffffffffffffffffffffffffffffffff166342842e0e3084886040518463ffffffff1660e01b8152600401611a6e93929190612e48565b600060405180830381600087803b158015611a8857600080fd5b505af1158015611a9c573d6000803e3d6000fd5b5050505060008360c001906001811115611ab957611ab861229c565b5b90816001811115611acd57611acc61229c565b5b81525050601060008681526020019081526020016000206000808201600090556001820160006101000a81549073ffffffffffffffffffffffffffffffffffffffff021916905560028201600090556003820160006101000a81549073ffffffffffffffffffffffffffffffffffffffff02191690556004820160006101000a81549073ffffffffffffffffffffffffffffffffffffffff021916905560058201600090556006820160006101000a81549060ff021916905550508373ffffffffffffffffffffffffffffffffffffffff16857fc141ecc59e1a451ee7d3128743c8ca3174955ce97262896269482d5f84b39a8588866000015142604051611bd793929190613146565b60405180910390a3505050505050565b600c60159054906101000a900460ff1681565b600b60009054906101000a900473ffffffffffffffffffffffffffffffffffffffff1681565b611c28612190565b601060008381526020019081526020016000206040518060e0016040529081600082015481526020016001820160009054906101000a900473ffffffffffffffffffffffffffffffffffffffff1673ffffffffffffffffffffffffffffffffffffffff1673ffffffffffffffffffffffffffffffffffffffff168152602001600282015481526020016003820160009054906101000a900473ffffffffffffffffffffffffffffffffffffffff1673ffffffffffffffffffffffffffffffffffffffff1673ffffffffffffffffffffffffffffffffffffffff1681526020016004820160009054906101000a900473ffffffffffffffffffffffffffffffffffffffff1673ffffffffffffffffffffffffffffffffffffffff1673ffffffffffffffffffffffffffffffffffffffff168152602001600582015481526020016006820160009054906101000a900460ff166001811115611d8b57611d8a61229c565b5b6001811115611d9d57611d9c61229c565b5b815250509050919050565b611db0611f74565b73ffffffffffffffffffffffffffffffffffffffff16611dce611404565b73ffffffffffffffffffffffffffffffffffffffff1614611e24576040517f08c379a0000000000000000000000000000000000000000000000000000000008152600401611e1b90612956565b60405180910390fd5b600073ffffffffffffffffffffffffffffffffffffffff168173ffffffffffffffffffffffffffffffffffffffff1603611e93576040517f08c379a0000000000000000000000000000000000000000000000000000000008152600401611e8a906131ef565b60405180910390fd5b611e9c81611fa0565b50565b600c60009054906101000a900473ffffffffffffffffffffffffffffffffffffffff1681565b60086020528060005260406000206000915090508060000154908060010160009054906101000a900473ffffffffffffffffffffffffffffffffffffffff16908060020154908060030160009054906101000a900473ffffffffffffffffffffffffffffffffffffffff16908060040160009054906101000a900473ffffffffffffffffffffffffffffffffffffffff16908060050154908060060160009054906101000a900460ff16905087565b600033905090565b600081600001549050919050565b6001816000016000828254019250508190555050565b6000600d60009054906101000a900473ffffffffffffffffffffffffffffffffffffffff16905081600d60006101000a81548173ffffffffffffffffffffffffffffffffffffffff021916908373ffffffffffffffffffffffffffffffffffffffff1602179055508173ffffffffffffffffffffffffffffffffffffffff168173ffffffffffffffffffffffffffffffffffffffff167f8be0079c531659141344cd1fd0a4f28419497f9722a3daafe3b4186f6b6457e060405160405180910390a35050565b61206f81612177565b6120ae576040517f08c379a00000000000000000000000000000000000000000000000000000000081526004016120a590613281565b60405180910390fd5b60008190508073ffffffffffffffffffffffffffffffffffffffff166301ffc9a76380ac58cd60e01b6040518263ffffffff1660e01b81526004016120f3919061261c565b602060405180830381865afa158015612110573d6000803e3d6000fd5b505050506040513d601f19601f820116820180604052508101906121349190612f69565b612173576040517f08c379a000000000000000000000000000000000000000000000000000000000815260040161216a90613313565b60405180910390fd5b5050565b600080823b905060008163ffffffff1611915050919050565b6040518060e0016040528060008152602001600073ffffffffffffffffffffffffffffffffffffffff16815260200160008152602001600073ffffffffffffffffffffffffffffffffffffffff168152602001600073ffffffffffffffffffffffffffffffffffffffff168152602001600081526020016000600181111561221b5761221a61229c565b5b81525090565b6000819050919050565b61223481612221565b82525050565b600073ffffffffffffffffffffffffffffffffffffffff82169050919050565b60006122658261223a565b9050919050565b6122758161225a565b82525050565b60006122868261223a565b9050919050565b6122968161227b565b82525050565b7f4e487b7100000000000000000000000000000000000000000000000000000000600052602160045260246000fd5b600281106122dc576122db61229c565b5b50565b60008190506122ed826122cb565b919050565b60006122fd826122df565b9050919050565b61230d816122f2565b82525050565b60e082016000820151612329600085018261222b565b50602082015161233c602085018261226c565b50604082015161234f604085018261222b565b506060820151612362606085018261228d565b506080820151612375608085018261228d565b5060a082015161238860a085018261222b565b5060c082015161239b60c0850182612304565b50505050565b600060e0820190506123b66000830184612313565b92915050565b6000604051905090565b600080fd5b600080fd5b6123d98161225a565b81146123e457600080fd5b50565b6000813590506123f6816123d0565b92915050565b600060208284031215612412576124116123c6565b5b6000612420848285016123e7565b91505092915050565b600081519050919050565b600082825260208201905092915050565b6000819050602082019050919050565b60e08201600082015161246b600085018261222b565b50602082015161247e602085018261226c565b506040820151612491604085018261222b565b5060608201516124a4606085018261228d565b5060808201516124b7608085018261228d565b5060a08201516124ca60a085018261222b565b5060c08201516124dd60c0850182612304565b50505050565b60006124ef8383612455565b60e08301905092915050565b6000602082019050919050565b600061251382612429565b61251d8185612434565b935061252883612445565b8060005b8381101561255957815161254088826124e3565b975061254b836124fb565b92505060018101905061252c565b5085935050505092915050565b600060208201905081810360008301526125808184612508565b905092915050565b61259181612221565b811461259c57600080fd5b50565b6000813590506125ae81612588565b92915050565b6000602082840312156125ca576125c96123c6565b5b60006125d88482850161259f565b91505092915050565b60007fffffffff0000000000000000000000000000000000000000000000000000000082169050919050565b612616816125e1565b82525050565b6000602082019050612631600083018461260d565b92915050565b6000819050919050565b600061265c6126576126528461223a565b612637565b61223a565b9050919050565b600061266e82612641565b9050919050565b600061268082612663565b9050919050565b61269081612675565b82525050565b60006020820190506126ab6000830184612687565b92915050565b6126ba81612221565b82525050565b6126c98161225a565b82525050565b6126d88161227b565b82525050565b6126e7816122f2565b82525050565b600060e082019050612702600083018a6126b1565b61270f60208301896126c0565b61271c60408301886126b1565b61272960608301876126cf565b61273660808301866126cf565b61274360a08301856126b1565b61275060c08301846126de565b98975050505050505050565b600080600060608486031215612775576127746123c6565b5b6000612783868287016123e7565b93505060206127948682870161259f565b92505060406127a58682870161259f565b9150509250925092565b600080604083850312156127c6576127c56123c6565b5b60006127d4858286016123e7565b92505060206127e58582860161259f565b9150509250929050565b600060ff82169050919050565b612805816127ef565b82525050565b600060208201905061282060008301846127fc565b92915050565b600060208201905061283b60008301846126c0565b92915050565b60008060408385031215612858576128576123c6565b5b60006128668582860161259f565b92505060206128778582860161259f565b9150509250929050565b600061288c82612663565b9050919050565b61289c81612881565b82525050565b60006020820190506128b76000830184612893565b92915050565b60006128c882612663565b9050919050565b6128d8816128bd565b82525050565b60006020820190506128f360008301846128cf565b92915050565b600082825260208201905092915050565b7f4f776e61626c653a2063616c6c6572206973206e6f7420746865206f776e6572600082015250565b60006129406020836128f9565b915061294b8261290a565b602082019050919050565b6000602082019050818103600083015261296f81612933565b9050919050565b7f4e487b7100000000000000000000000000000000000000000000000000000000600052601160045260246000fd5b60006129b082612221565b91506129bb83612221565b9250827fffffffffffffffffffffffffffffffffffffffffffffffffffffffffffffffff038211156129f0576129ef612976565b5b828201905092915050565b6000612a0682612221565b91507fffffffffffffffffffffffffffffffffffffffffffffffffffffffffffffffff8203612a3857612a37612976565b5b600182019050919050565b7f4e487b7100000000000000000000000000000000000000000000000000000000600052604160045260246000fd5b7f4e487b7100000000000000000000000000000000000000000000000000000000600052603260045260246000fd5b7f5265656e7472616e637947756172643a207265656e7472616e742063616c6c00600082015250565b6000612ad7601f836128f9565b9150612ae282612aa1565b602082019050919050565b60006020820190508181036000830152612b0681612aca565b9050919050565b7f5072696365206d757374206265206174206c6561737420312077656900000000600082015250565b6000612b43601c836128f9565b9150612b4e82612b0d565b602082019050919050565b60006020820190508181036000830152612b7281612b36565b9050919050565b6000602082019050612b8e60008301846126b1565b92915050565b600080fd5b6000601f19601f8301169050919050565b612bb382612b99565b810181811067ffffffffffffffff82111715612bd257612bd1612a43565b5b80604052505050565b6000612be56123bc565b9050612bf18282612baa565b919050565b600080fd5b600081519050612c0a81612588565b92915050565b600081519050612c1f816123d0565b92915050565b600080fd5b600080fd5b600067ffffffffffffffff821115612c4a57612c49612a43565b5b612c5382612b99565b9050602081019050919050565b60005b83811015612c7e578082015181840152602081019050612c63565b83811115612c8d576000848401525b50505050565b6000612ca6612ca184612c2f565b612bdb565b905082815260208101848484011115612cc257612cc1612c2a565b5b612ccd848285612c60565b509392505050565b600082601f830112612cea57612ce9612c25565b5b8151612cfa848260208601612c93565b91505092915050565b60008115159050919050565b612d1881612d03565b8114612d2357600080fd5b50565b600081519050612d3581612d0f565b92915050565b600060a08284031215612d5157612d50612b94565b5b612d5b60a0612bdb565b90506000612d6b84828501612bfb565b6000830152506020612d7f84828501612c10565b602083015250604082015167ffffffffffffffff811115612da357612da2612bf6565b5b612daf84828501612cd5565b604083015250606082015167ffffffffffffffff811115612dd357612dd2612bf6565b5b612ddf84828501612cd5565b6060830152506080612df384828501612d26565b60808301525092915050565b600060208284031215612e1557612e146123c6565b5b600082015167ffffffffffffffff811115612e3357612e326123cb565b5b612e3f84828501612d3b565b91505092915050565b6000606082019050612e5d60008301866126c0565b612e6a60208301856126c0565b612e7760408301846126b1565b949350505050565b7f506c65617365207375626d6974207468652061736b696e67207072696365206960008201527f6e206f7264657220746f20636f6d706c65746520746865207075726368617365602082015250565b6000612edb6040836128f9565b9150612ee682612e7f565b604082019050919050565b60006020820190508181036000830152612f0a81612ece565b9050919050565b6000612f1c82612663565b9050919050565b612f2c81612f11565b82525050565b6000606082019050612f4760008301866126c0565b612f546020830185612f23565b612f6160408301846126b1565b949350505050565b600060208284031215612f7f57612f7e6123c6565b5b6000612f8d84828501612d26565b91505092915050565b7f4173736574206e6f74207075626c697368656400000000000000000000000000600082015250565b6000612fcc6013836128f9565b9150612fd782612f96565b602082019050919050565b60006020820190508181036000830152612ffb81612fbf565b9050919050565b7f41737365742064656c6973746564000000000000000000000000000000000000600082015250565b6000613038600e836128f9565b915061304382613002565b602082019050919050565b600060208201905081810360008301526130678161302b565b9050919050565b7f496e76616c696420616464726573730000000000000000000000000000000000600082015250565b60006130a4600f836128f9565b91506130af8261306e565b602082019050919050565b600060208201905081810360008301526130d381613097565b9050919050565b7f4f6e6c792073656c6c65722063616e2064656c69737400000000000000000000600082015250565b60006131106016836128f9565b915061311b826130da565b602082019050919050565b6000602082019050818103600083015261313f81613103565b9050919050565b600060608201905061315b60008301866126c0565b61316860208301856126b1565b61317560408301846126b1565b949350505050565b7f4f776e61626c653a206e6577206f776e657220697320746865207a65726f206160008201527f6464726573730000000000000000000000000000000000000000000000000000602082015250565b60006131d96026836128f9565b91506131e48261317d565b604082019050919050565b60006020820190508181036000830152613208816131cc565b9050919050565b7f546865204e465420416464726573732073686f756c64206265206120636f6e7460008201527f7261637400000000000000000000000000000000000000000000000000000000602082015250565b600061326b6024836128f9565b91506132768261320f565b604082019050919050565b6000602082019050818103600083015261329a8161325e565b9050919050565b7f546865204e465420636f6e74726163742068617320616e20696e76616c69642060008201527f45524337323120696d706c656d656e746174696f6e0000000000000000000000602082015250565b60006132fd6035836128f9565b9150613308826132a1565b604082019050919050565b6000602082019050818103600083015261332c816132f0565b905091905056fea264697066735822122095e32d8d696552c323fac369520f649f21b367c1e1935deaf0b5805469335c9e64736f6c634300080d0033",
					"opcodes": "PUSH1 0x80 PUSH1 0x40 MSTORE CALLVALUE DUP1 ISZERO PUSH3 0x11 JUMPI PUSH1 0x0 DUP1 REVERT JUMPDEST POP PUSH1 0x40 MLOAD PUSH3 0x3638 CODESIZE SUB DUP1 PUSH3 0x3638 DUP4 CODECOPY DUP2 DUP2 ADD PUSH1 0x40 MSTORE DUP2 ADD SWAP1 PUSH3 0x37 SWAP2 SWAP1 PUSH3 0x263 JUMP JUMPDEST PUSH1 0x1 PUSH1 0x0 DUP2 SWAP1 SSTORE POP PUSH3 0x5F PUSH3 0x53 PUSH3 0x12B PUSH1 0x20 SHL PUSH1 0x20 SHR JUMP JUMPDEST PUSH3 0x133 PUSH1 0x20 SHL PUSH1 0x20 SHR JUMP JUMPDEST DUP3 PUSH1 0xA PUSH1 0x0 PUSH2 0x100 EXP DUP2 SLOAD DUP2 PUSH20 0xFFFFFFFFFFFFFFFFFFFFFFFFFFFFFFFFFFFFFFFF MUL NOT AND SWAP1 DUP4 PUSH20 0xFFFFFFFFFFFFFFFFFFFFFFFFFFFFFFFFFFFFFFFF AND MUL OR SWAP1 SSTORE POP DUP2 PUSH1 0xC PUSH1 0x0 PUSH2 0x100 EXP DUP2 SLOAD DUP2 PUSH20 0xFFFFFFFFFFFFFFFFFFFFFFFFFFFFFFFFFFFFFFFF MUL NOT AND SWAP1 DUP4 PUSH20 0xFFFFFFFFFFFFFFFFFFFFFFFFFFFFFFFFFFFFFFFF AND MUL OR SWAP1 SSTORE POP DUP1 PUSH1 0xB PUSH1 0x0 PUSH2 0x100 EXP DUP2 SLOAD DUP2 PUSH20 0xFFFFFFFFFFFFFFFFFFFFFFFFFFFFFFFFFFFFFFFF MUL NOT AND SWAP1 DUP4 PUSH20 0xFFFFFFFFFFFFFFFFFFFFFFFFFFFFFFFFFFFFFFFF AND MUL OR SWAP1 SSTORE POP POP POP POP PUSH3 0x2BF JUMP JUMPDEST PUSH1 0x0 CALLER SWAP1 POP SWAP1 JUMP JUMPDEST PUSH1 0x0 PUSH1 0xD PUSH1 0x0 SWAP1 SLOAD SWAP1 PUSH2 0x100 EXP SWAP1 DIV PUSH20 0xFFFFFFFFFFFFFFFFFFFFFFFFFFFFFFFFFFFFFFFF AND SWAP1 POP DUP2 PUSH1 0xD PUSH1 0x0 PUSH2 0x100 EXP DUP2 SLOAD DUP2 PUSH20 0xFFFFFFFFFFFFFFFFFFFFFFFFFFFFFFFFFFFFFFFF MUL NOT AND SWAP1 DUP4 PUSH20 0xFFFFFFFFFFFFFFFFFFFFFFFFFFFFFFFFFFFFFFFF AND MUL OR SWAP1 SSTORE POP DUP2 PUSH20 0xFFFFFFFFFFFFFFFFFFFFFFFFFFFFFFFFFFFFFFFF AND DUP2 PUSH20 0xFFFFFFFFFFFFFFFFFFFFFFFFFFFFFFFFFFFFFFFF AND PUSH32 0x8BE0079C531659141344CD1FD0A4F28419497F9722A3DAAFE3B4186F6B6457E0 PUSH1 0x40 MLOAD PUSH1 0x40 MLOAD DUP1 SWAP2 SUB SWAP1 LOG3 POP POP JUMP JUMPDEST PUSH1 0x0 DUP1 REVERT JUMPDEST PUSH1 0x0 PUSH20 0xFFFFFFFFFFFFFFFFFFFFFFFFFFFFFFFFFFFFFFFF DUP3 AND SWAP1 POP SWAP2 SWAP1 POP JUMP JUMPDEST PUSH1 0x0 PUSH3 0x22B DUP3 PUSH3 0x1FE JUMP JUMPDEST SWAP1 POP SWAP2 SWAP1 POP JUMP JUMPDEST PUSH3 0x23D DUP2 PUSH3 0x21E JUMP JUMPDEST DUP2 EQ PUSH3 0x249 JUMPI PUSH1 0x0 DUP1 REVERT JUMPDEST POP JUMP JUMPDEST PUSH1 0x0 DUP2 MLOAD SWAP1 POP PUSH3 0x25D DUP2 PUSH3 0x232 JUMP JUMPDEST SWAP3 SWAP2 POP POP JUMP JUMPDEST PUSH1 0x0 DUP1 PUSH1 0x0 PUSH1 0x60 DUP5 DUP7 SUB SLT ISZERO PUSH3 0x27F JUMPI PUSH3 0x27E PUSH3 0x1F9 JUMP JUMPDEST JUMPDEST PUSH1 0x0 PUSH3 0x28F DUP7 DUP3 DUP8 ADD PUSH3 0x24C JUMP JUMPDEST SWAP4 POP POP PUSH1 0x20 PUSH3 0x2A2 DUP7 DUP3 DUP8 ADD PUSH3 0x24C JUMP JUMPDEST SWAP3 POP POP PUSH1 0x40 PUSH3 0x2B5 DUP7 DUP3 DUP8 ADD PUSH3 0x24C JUMP JUMPDEST SWAP2 POP POP SWAP3 POP SWAP3 POP SWAP3 JUMP JUMPDEST PUSH2 0x3369 DUP1 PUSH3 0x2CF PUSH1 0x0 CODECOPY PUSH1 0x0 RETURN INVALID PUSH1 0x80 PUSH1 0x40 MSTORE PUSH1 0x4 CALLDATASIZE LT PUSH2 0x135 JUMPI PUSH1 0x0 CALLDATALOAD PUSH1 0xE0 SHR DUP1 PUSH4 0x715018A6 GT PUSH2 0xAB JUMPI DUP1 PUSH4 0xB7A60C7E GT PUSH2 0x6F JUMPI DUP1 PUSH4 0xB7A60C7E EQ PUSH2 0x3ED JUMPI DUP1 PUSH4 0xC45A0155 EQ PUSH2 0x418 JUMPI DUP1 PUSH4 0xC7BE7A49 EQ PUSH2 0x443 JUMPI DUP1 PUSH4 0xF2FDE38B EQ PUSH2 0x480 JUMPI DUP1 PUSH4 0xF55DE0C7 EQ PUSH2 0x4A9 JUMPI DUP1 PUSH4 0xFF68FA6E EQ PUSH2 0x4D4 JUMPI PUSH2 0x135 JUMP JUMPDEST DUP1 PUSH4 0x715018A6 EQ PUSH2 0x32E JUMPI DUP1 PUSH4 0x85A8B36C EQ PUSH2 0x345 JUMPI DUP1 PUSH4 0x8DA5CB5B EQ PUSH2 0x370 JUMPI DUP1 PUSH4 0xA1C11CA8 EQ PUSH2 0x39B JUMPI DUP1 PUSH4 0xAD9A0369 EQ PUSH2 0x3C4 JUMPI PUSH2 0x135 JUMP JUMPDEST DUP1 PUSH4 0x2B4C32BE GT PUSH2 0xFD JUMPI DUP1 PUSH4 0x2B4C32BE EQ PUSH2 0x21F JUMPI DUP1 PUSH4 0x3FC15F15 EQ PUSH2 0x24A JUMPI DUP1 PUSH4 0x517BD451 EQ PUSH2 0x275 JUMPI DUP1 PUSH4 0x58EB2DF5 EQ PUSH2 0x2A6 JUMPI DUP1 PUSH4 0x5BB47808 EQ PUSH2 0x2C2 JUMPI DUP1 PUSH4 0x5C80A435 EQ PUSH2 0x2EB JUMPI PUSH2 0x135 JUMP JUMPDEST DUP1 PUSH4 0xF08EFE0 EQ PUSH2 0x13A JUMPI DUP1 PUSH4 0x15B12494 EQ PUSH2 0x165 JUMPI DUP1 PUSH4 0x202E3740 EQ PUSH2 0x18E JUMPI DUP1 PUSH4 0x27CE464E EQ PUSH2 0x1B9 JUMPI DUP1 PUSH4 0x2A45B250 EQ PUSH2 0x1E2 JUMPI JUMPDEST PUSH1 0x0 DUP1 REVERT JUMPDEST CALLVALUE DUP1 ISZERO PUSH2 0x146 JUMPI PUSH1 0x0 DUP1 REVERT JUMPDEST POP PUSH2 0x14F PUSH2 0x517 JUMP JUMPDEST PUSH1 0x40 MLOAD PUSH2 0x15C SWAP2 SWAP1 PUSH2 0x23A1 JUMP JUMPDEST PUSH1 0x40 MLOAD DUP1 SWAP2 SUB SWAP1 RETURN JUMPDEST CALLVALUE DUP1 ISZERO PUSH2 0x171 JUMPI PUSH1 0x0 DUP1 REVERT JUMPDEST POP PUSH2 0x18C PUSH1 0x4 DUP1 CALLDATASIZE SUB DUP2 ADD SWAP1 PUSH2 0x187 SWAP2 SWAP1 PUSH2 0x23FC JUMP JUMPDEST PUSH2 0x68C JUMP JUMPDEST STOP JUMPDEST CALLVALUE DUP1 ISZERO PUSH2 0x19A JUMPI PUSH1 0x0 DUP1 REVERT JUMPDEST POP PUSH2 0x1A3 PUSH2 0x74C JUMP JUMPDEST PUSH1 0x40 MLOAD PUSH2 0x1B0 SWAP2 SWAP1 PUSH2 0x2566 JUMP JUMPDEST PUSH1 0x40 MLOAD DUP1 SWAP2 SUB SWAP1 RETURN JUMPDEST CALLVALUE DUP1 ISZERO PUSH2 0x1C5 JUMPI PUSH1 0x0 DUP1 REVERT JUMPDEST POP PUSH2 0x1E0 PUSH1 0x4 DUP1 CALLDATASIZE SUB DUP2 ADD SWAP1 PUSH2 0x1DB SWAP2 SWAP1 PUSH2 0x23FC JUMP JUMPDEST PUSH2 0xACE JUMP JUMPDEST STOP JUMPDEST CALLVALUE DUP1 ISZERO PUSH2 0x1EE JUMPI PUSH1 0x0 DUP1 REVERT JUMPDEST POP PUSH2 0x209 PUSH1 0x4 DUP1 CALLDATASIZE SUB DUP2 ADD SWAP1 PUSH2 0x204 SWAP2 SWAP1 PUSH2 0x25B4 JUMP JUMPDEST PUSH2 0xB8E JUMP JUMPDEST PUSH1 0x40 MLOAD PUSH2 0x216 SWAP2 SWAP1 PUSH2 0x23A1 JUMP JUMPDEST PUSH1 0x40 MLOAD DUP1 SWAP2 SUB SWAP1 RETURN JUMPDEST CALLVALUE DUP1 ISZERO PUSH2 0x22B JUMPI PUSH1 0x0 DUP1 REVERT JUMPDEST POP PUSH2 0x234 PUSH2 0xD1C JUMP JUMPDEST PUSH1 0x40 MLOAD PUSH2 0x241 SWAP2 SWAP1 PUSH2 0x261C JUMP JUMPDEST PUSH1 0x40 MLOAD DUP1 SWAP2 SUB SWAP1 RETURN JUMPDEST CALLVALUE DUP1 ISZERO PUSH2 0x256 JUMPI PUSH1 0x0 DUP1 REVERT JUMPDEST POP PUSH2 0x25F PUSH2 0xD27 JUMP JUMPDEST PUSH1 0x40 MLOAD PUSH2 0x26C SWAP2 SWAP1 PUSH2 0x2696 JUMP JUMPDEST PUSH1 0x40 MLOAD DUP1 SWAP2 SUB SWAP1 RETURN JUMPDEST CALLVALUE DUP1 ISZERO PUSH2 0x281 JUMPI PUSH1 0x0 DUP1 REVERT JUMPDEST POP PUSH2 0x28A PUSH2 0xD4D JUMP JUMPDEST PUSH1 0x40 MLOAD PUSH2 0x29D SWAP8 SWAP7 SWAP6 SWAP5 SWAP4 SWAP3 SWAP2 SWAP1 PUSH2 0x26ED JUMP JUMPDEST PUSH1 0x40 MLOAD DUP1 SWAP2 SUB SWAP1 RETURN JUMPDEST PUSH2 0x2C0 PUSH1 0x4 DUP1 CALLDATASIZE SUB DUP2 ADD SWAP1 PUSH2 0x2BB SWAP2 SWAP1 PUSH2 0x275C JUMP JUMPDEST PUSH2 0xDEA JUMP JUMPDEST STOP JUMPDEST CALLVALUE DUP1 ISZERO PUSH2 0x2CE JUMPI PUSH1 0x0 DUP1 REVERT JUMPDEST POP PUSH2 0x2E9 PUSH1 0x4 DUP1 CALLDATASIZE SUB DUP2 ADD SWAP1 PUSH2 0x2E4 SWAP2 SWAP1 PUSH2 0x23FC JUMP JUMPDEST PUSH2 0x11ED JUMP JUMPDEST STOP JUMPDEST CALLVALUE DUP1 ISZERO PUSH2 0x2F7 JUMPI PUSH1 0x0 DUP1 REVERT JUMPDEST POP PUSH2 0x312 PUSH1 0x4 DUP1 CALLDATASIZE SUB DUP2 ADD SWAP1 PUSH2 0x30D SWAP2 SWAP1 PUSH2 0x27AF JUMP JUMPDEST PUSH2 0x12AD JUMP JUMPDEST PUSH1 0x40 MLOAD PUSH2 0x325 SWAP8 SWAP7 SWAP6 SWAP5 SWAP4 SWAP3 SWAP2 SWAP1 PUSH2 0x26ED JUMP JUMPDEST PUSH1 0x40 MLOAD DUP1 SWAP2 SUB SWAP1 RETURN JUMPDEST CALLVALUE DUP1 ISZERO PUSH2 0x33A JUMPI PUSH1 0x0 DUP1 REVERT JUMPDEST POP PUSH2 0x343 PUSH2 0x1369 JUMP JUMPDEST STOP JUMPDEST CALLVALUE DUP1 ISZERO PUSH2 0x351 JUMPI PUSH1 0x0 DUP1 REVERT JUMPDEST POP PUSH2 0x35A PUSH2 0x13F1 JUMP JUMPDEST PUSH1 0x40 MLOAD PUSH2 0x367 SWAP2 SWAP1 PUSH2 0x280B JUMP JUMPDEST PUSH1 0x40 MLOAD DUP1 SWAP2 SUB SWAP1 RETURN JUMPDEST CALLVALUE DUP1 ISZERO PUSH2 0x37C JUMPI PUSH1 0x0 DUP1 REVERT JUMPDEST POP PUSH2 0x385 PUSH2 0x1404 JUMP JUMPDEST PUSH1 0x40 MLOAD PUSH2 0x392 SWAP2 SWAP1 PUSH2 0x2826 JUMP JUMPDEST PUSH1 0x40 MLOAD DUP1 SWAP2 SUB SWAP1 RETURN JUMPDEST CALLVALUE DUP1 ISZERO PUSH2 0x3A7 JUMPI PUSH1 0x0 DUP1 REVERT JUMPDEST POP PUSH2 0x3C2 PUSH1 0x4 DUP1 CALLDATASIZE SUB DUP2 ADD SWAP1 PUSH2 0x3BD SWAP2 SWAP1 PUSH2 0x2841 JUMP JUMPDEST PUSH2 0x142E JUMP JUMPDEST STOP JUMPDEST CALLVALUE DUP1 ISZERO PUSH2 0x3D0 JUMPI PUSH1 0x0 DUP1 REVERT JUMPDEST POP PUSH2 0x3EB PUSH1 0x4 DUP1 CALLDATASIZE SUB DUP2 ADD SWAP1 PUSH2 0x3E6 SWAP2 SWAP1 PUSH2 0x27AF JUMP JUMPDEST PUSH2 0x1709 JUMP JUMPDEST STOP JUMPDEST CALLVALUE DUP1 ISZERO PUSH2 0x3F9 JUMPI PUSH1 0x0 DUP1 REVERT JUMPDEST POP PUSH2 0x402 PUSH2 0x1BE7 JUMP JUMPDEST PUSH1 0x40 MLOAD PUSH2 0x40F SWAP2 SWAP1 PUSH2 0x280B JUMP JUMPDEST PUSH1 0x40 MLOAD DUP1 SWAP2 SUB SWAP1 RETURN JUMPDEST CALLVALUE DUP1 ISZERO PUSH2 0x424 JUMPI PUSH1 0x0 DUP1 REVERT JUMPDEST POP PUSH2 0x42D PUSH2 0x1BFA JUMP JUMPDEST PUSH1 0x40 MLOAD PUSH2 0x43A SWAP2 SWAP1 PUSH2 0x28A2 JUMP JUMPDEST PUSH1 0x40 MLOAD DUP1 SWAP2 SUB SWAP1 RETURN JUMPDEST CALLVALUE DUP1 ISZERO PUSH2 0x44F JUMPI PUSH1 0x0 DUP1 REVERT JUMPDEST POP PUSH2 0x46A PUSH1 0x4 DUP1 CALLDATASIZE SUB DUP2 ADD SWAP1 PUSH2 0x465 SWAP2 SWAP1 PUSH2 0x25B4 JUMP JUMPDEST PUSH2 0x1C20 JUMP JUMPDEST PUSH1 0x40 MLOAD PUSH2 0x477 SWAP2 SWAP1 PUSH2 0x23A1 JUMP JUMPDEST PUSH1 0x40 MLOAD DUP1 SWAP2 SUB SWAP1 RETURN JUMPDEST CALLVALUE DUP1 ISZERO PUSH2 0x48C JUMPI PUSH1 0x0 DUP1 REVERT JUMPDEST POP PUSH2 0x4A7 PUSH1 0x4 DUP1 CALLDATASIZE SUB DUP2 ADD SWAP1 PUSH2 0x4A2 SWAP2 SWAP1 PUSH2 0x23FC JUMP JUMPDEST PUSH2 0x1DA8 JUMP JUMPDEST STOP JUMPDEST CALLVALUE DUP1 ISZERO PUSH2 0x4B5 JUMPI PUSH1 0x0 DUP1 REVERT JUMPDEST POP PUSH2 0x4BE PUSH2 0x1E9F JUMP JUMPDEST PUSH1 0x40 MLOAD PUSH2 0x4CB SWAP2 SWAP1 PUSH2 0x28DE JUMP JUMPDEST PUSH1 0x40 MLOAD DUP1 SWAP2 SUB SWAP1 RETURN JUMPDEST CALLVALUE DUP1 ISZERO PUSH2 0x4E0 JUMPI PUSH1 0x0 DUP1 REVERT JUMPDEST POP PUSH2 0x4FB PUSH1 0x4 DUP1 CALLDATASIZE SUB DUP2 ADD SWAP1 PUSH2 0x4F6 SWAP2 SWAP1 PUSH2 0x25B4 JUMP JUMPDEST PUSH2 0x1EC5 JUMP JUMPDEST PUSH1 0x40 MLOAD PUSH2 0x50E SWAP8 SWAP7 SWAP6 SWAP5 SWAP4 SWAP3 SWAP2 SWAP1 PUSH2 0x26ED JUMP JUMPDEST PUSH1 0x40 MLOAD DUP1 SWAP2 SUB SWAP1 RETURN JUMPDEST PUSH2 0x51F PUSH2 0x2190 JUMP JUMPDEST PUSH1 0x1 PUSH1 0x40 MLOAD DUP1 PUSH1 0xE0 ADD PUSH1 0x40 MSTORE SWAP1 DUP2 PUSH1 0x0 DUP3 ADD SLOAD DUP2 MSTORE PUSH1 0x20 ADD PUSH1 0x1 DUP3 ADD PUSH1 0x0 SWAP1 SLOAD SWAP1 PUSH2 0x100 EXP SWAP1 DIV PUSH20 0xFFFFFFFFFFFFFFFFFFFFFFFFFFFFFFFFFFFFFFFF AND PUSH20 0xFFFFFFFFFFFFFFFFFFFFFFFFFFFFFFFFFFFFFFFF AND PUSH20 0xFFFFFFFFFFFFFFFFFFFFFFFFFFFFFFFFFFFFFFFF AND DUP2 MSTORE PUSH1 0x20 ADD PUSH1 0x2 DUP3 ADD SLOAD DUP2 MSTORE PUSH1 0x20 ADD PUSH1 0x3 DUP3 ADD PUSH1 0x0 SWAP1 SLOAD SWAP1 PUSH2 0x100 EXP SWAP1 DIV PUSH20 0xFFFFFFFFFFFFFFFFFFFFFFFFFFFFFFFFFFFFFFFF AND PUSH20 0xFFFFFFFFFFFFFFFFFFFFFFFFFFFFFFFFFFFFFFFF AND PUSH20 0xFFFFFFFFFFFFFFFFFFFFFFFFFFFFFFFFFFFFFFFF AND DUP2 MSTORE PUSH1 0x20 ADD PUSH1 0x4 DUP3 ADD PUSH1 0x0 SWAP1 SLOAD SWAP1 PUSH2 0x100 EXP SWAP1 DIV PUSH20 0xFFFFFFFFFFFFFFFFFFFFFFFFFFFFFFFFFFFFFFFF AND PUSH20 0xFFFFFFFFFFFFFFFFFFFFFFFFFFFFFFFFFFFFFFFF AND PUSH20 0xFFFFFFFFFFFFFFFFFFFFFFFFFFFFFFFFFFFFFFFF AND DUP2 MSTORE PUSH1 0x20 ADD PUSH1 0x5 DUP3 ADD SLOAD DUP2 MSTORE PUSH1 0x20 ADD PUSH1 0x6 DUP3 ADD PUSH1 0x0 SWAP1 SLOAD SWAP1 PUSH2 0x100 EXP SWAP1 DIV PUSH1 0xFF AND PUSH1 0x1 DUP2 GT ISZERO PUSH2 0x671 JUMPI PUSH2 0x670 PUSH2 0x229C JUMP JUMPDEST JUMPDEST PUSH1 0x1 DUP2 GT ISZERO PUSH2 0x683 JUMPI PUSH2 0x682 PUSH2 0x229C JUMP JUMPDEST JUMPDEST DUP2 MSTORE POP POP SWAP1 POP SWAP1 JUMP JUMPDEST PUSH2 0x694 PUSH2 0x1F74 JUMP JUMPDEST PUSH20 0xFFFFFFFFFFFFFFFFFFFFFFFFFFFFFFFFFFFFFFFF AND PUSH2 0x6B2 PUSH2 0x1404 JUMP JUMPDEST PUSH20 0xFFFFFFFFFFFFFFFFFFFFFFFFFFFFFFFFFFFFFFFF AND EQ PUSH2 0x708 JUMPI PUSH1 0x40 MLOAD PUSH32 0x8C379A000000000000000000000000000000000000000000000000000000000 DUP2 MSTORE PUSH1 0x4 ADD PUSH2 0x6FF SWAP1 PUSH2 0x2956 JUMP JUMPDEST PUSH1 0x40 MLOAD DUP1 SWAP2 SUB SWAP1 REVERT JUMPDEST DUP1 PUSH1 0xC PUSH1 0x0 PUSH2 0x100 EXP DUP2 SLOAD DUP2 PUSH20 0xFFFFFFFFFFFFFFFFFFFFFFFFFFFFFFFFFFFFFFFF MUL NOT AND SWAP1 DUP4 PUSH20 0xFFFFFFFFFFFFFFFFFFFFFFFFFFFFFFFFFFFFFFFF AND MUL OR SWAP1 SSTORE POP POP JUMP JUMPDEST PUSH1 0x60 PUSH1 0x0 PUSH2 0x75A PUSH1 0xE PUSH2 0x1F7C JUMP JUMPDEST SWAP1 POP PUSH1 0x0 DUP1 PUSH1 0x0 JUMPDEST DUP4 DUP2 LT ISZERO PUSH2 0x802 JUMPI CALLER PUSH20 0xFFFFFFFFFFFFFFFFFFFFFFFFFFFFFFFFFFFFFFFF AND PUSH1 0x10 PUSH1 0x0 PUSH1 0x1 DUP5 PUSH2 0x792 SWAP2 SWAP1 PUSH2 0x29A5 JUMP JUMPDEST DUP2 MSTORE PUSH1 0x20 ADD SWAP1 DUP2 MSTORE PUSH1 0x20 ADD PUSH1 0x0 KECCAK256 PUSH1 0x4 ADD PUSH1 0x0 SWAP1 SLOAD SWAP1 PUSH2 0x100 EXP SWAP1 DIV PUSH20 0xFFFFFFFFFFFFFFFFFFFFFFFFFFFFFFFFFFFFFFFF AND PUSH20 0xFFFFFFFFFFFFFFFFFFFFFFFFFFFFFFFFFFFFFFFF AND SUB PUSH2 0x7EF JUMPI PUSH1 0x1 DUP4 PUSH2 0x7EC SWAP2 SWAP1 PUSH2 0x29A5 JUMP JUMPDEST SWAP3 POP JUMPDEST DUP1 DUP1 PUSH2 0x7FA SWAP1 PUSH2 0x29FB JUMP JUMPDEST SWAP2 POP POP PUSH2 0x762 JUMP JUMPDEST POP PUSH1 0x0 DUP3 PUSH8 0xFFFFFFFFFFFFFFFF DUP2 GT ISZERO PUSH2 0x81F JUMPI PUSH2 0x81E PUSH2 0x2A43 JUMP JUMPDEST JUMPDEST PUSH1 0x40 MLOAD SWAP1 DUP1 DUP3 MSTORE DUP1 PUSH1 0x20 MUL PUSH1 0x20 ADD DUP3 ADD PUSH1 0x40 MSTORE DUP1 ISZERO PUSH2 0x858 JUMPI DUP2 PUSH1 0x20 ADD JUMPDEST PUSH2 0x845 PUSH2 0x2190 JUMP JUMPDEST DUP2 MSTORE PUSH1 0x20 ADD SWAP1 PUSH1 0x1 SWAP1 SUB SWAP1 DUP2 PUSH2 0x83D JUMPI SWAP1 POP JUMPDEST POP SWAP1 POP PUSH1 0x0 JUMPDEST DUP5 DUP2 LT ISZERO PUSH2 0xAC3 JUMPI CALLER PUSH20 0xFFFFFFFFFFFFFFFFFFFFFFFFFFFFFFFFFFFFFFFF AND PUSH1 0x10 PUSH1 0x0 PUSH1 0x1 DUP5 PUSH2 0x88E SWAP2 SWAP1 PUSH2 0x29A5 JUMP JUMPDEST DUP2 MSTORE PUSH1 0x20 ADD SWAP1 DUP2 MSTORE PUSH1 0x20 ADD PUSH1 0x0 KECCAK256 PUSH1 0x4 ADD PUSH1 0x0 SWAP1 SLOAD SWAP1 PUSH2 0x100 EXP SWAP1 DIV PUSH20 0xFFFFFFFFFFFFFFFFFFFFFFFFFFFFFFFFFFFFFFFF AND PUSH20 0xFFFFFFFFFFFFFFFFFFFFFFFFFFFFFFFFFFFFFFFF AND SUB PUSH2 0xAB0 JUMPI PUSH1 0x0 PUSH1 0x10 PUSH1 0x0 PUSH1 0x1 DUP5 PUSH2 0x8EE SWAP2 SWAP1 PUSH2 0x29A5 JUMP JUMPDEST DUP2 MSTORE PUSH1 0x20 ADD SWAP1 DUP2 MSTORE PUSH1 0x20 ADD PUSH1 0x0 KECCAK256 PUSH1 0x0 ADD SLOAD SWAP1 POP PUSH1 0x0 PUSH1 0x10 PUSH1 0x0 DUP4 DUP2 MSTORE PUSH1 0x20 ADD SWAP1 DUP2 MSTORE PUSH1 0x20 ADD PUSH1 0x0 KECCAK256 SWAP1 POP DUP1 PUSH1 0x40 MLOAD DUP1 PUSH1 0xE0 ADD PUSH1 0x40 MSTORE SWAP1 DUP2 PUSH1 0x0 DUP3 ADD SLOAD DUP2 MSTORE PUSH1 0x20 ADD PUSH1 0x1 DUP3 ADD PUSH1 0x0 SWAP1 SLOAD SWAP1 PUSH2 0x100 EXP SWAP1 DIV PUSH20 0xFFFFFFFFFFFFFFFFFFFFFFFFFFFFFFFFFFFFFFFF AND PUSH20 0xFFFFFFFFFFFFFFFFFFFFFFFFFFFFFFFFFFFFFFFF AND PUSH20 0xFFFFFFFFFFFFFFFFFFFFFFFFFFFFFFFFFFFFFFFF AND DUP2 MSTORE PUSH1 0x20 ADD PUSH1 0x2 DUP3 ADD SLOAD DUP2 MSTORE PUSH1 0x20 ADD PUSH1 0x3 DUP3 ADD PUSH1 0x0 SWAP1 SLOAD SWAP1 PUSH2 0x100 EXP SWAP1 DIV PUSH20 0xFFFFFFFFFFFFFFFFFFFFFFFFFFFFFFFFFFFFFFFF AND PUSH20 0xFFFFFFFFFFFFFFFFFFFFFFFFFFFFFFFFFFFFFFFF AND PUSH20 0xFFFFFFFFFFFFFFFFFFFFFFFFFFFFFFFFFFFFFFFF AND DUP2 MSTORE PUSH1 0x20 ADD PUSH1 0x4 DUP3 ADD PUSH1 0x0 SWAP1 SLOAD SWAP1 PUSH2 0x100 EXP SWAP1 DIV PUSH20 0xFFFFFFFFFFFFFFFFFFFFFFFFFFFFFFFFFFFFFFFF AND PUSH20 0xFFFFFFFFFFFFFFFFFFFFFFFFFFFFFFFFFFFFFFFF AND PUSH20 0xFFFFFFFFFFFFFFFFFFFFFFFFFFFFFFFFFFFFFFFF AND DUP2 MSTORE PUSH1 0x20 ADD PUSH1 0x5 DUP3 ADD SLOAD DUP2 MSTORE PUSH1 0x20 ADD PUSH1 0x6 DUP3 ADD PUSH1 0x0 SWAP1 SLOAD SWAP1 PUSH2 0x100 EXP SWAP1 DIV PUSH1 0xFF AND PUSH1 0x1 DUP2 GT ISZERO PUSH2 0xA6A JUMPI PUSH2 0xA69 PUSH2 0x229C JUMP JUMPDEST JUMPDEST PUSH1 0x1 DUP2 GT ISZERO PUSH2 0xA7C JUMPI PUSH2 0xA7B PUSH2 0x229C JUMP JUMPDEST JUMPDEST DUP2 MSTORE POP POP DUP5 DUP7 DUP2 MLOAD DUP2 LT PUSH2 0xA93 JUMPI PUSH2 0xA92 PUSH2 0x2A72 JUMP JUMPDEST JUMPDEST PUSH1 0x20 MUL PUSH1 0x20 ADD ADD DUP2 SWAP1 MSTORE POP PUSH1 0x1 DUP6 PUSH2 0xAAB SWAP2 SWAP1 PUSH2 0x29A5 JUMP JUMPDEST SWAP5 POP POP POP JUMPDEST DUP1 DUP1 PUSH2 0xABB SWAP1 PUSH2 0x29FB JUMP JUMPDEST SWAP2 POP POP PUSH2 0x85E JUMP JUMPDEST POP DUP1 SWAP5 POP POP POP POP POP SWAP1 JUMP JUMPDEST PUSH2 0xAD6 PUSH2 0x1F74 JUMP JUMPDEST PUSH20 0xFFFFFFFFFFFFFFFFFFFFFFFFFFFFFFFFFFFFFFFF AND PUSH2 0xAF4 PUSH2 0x1404 JUMP JUMPDEST PUSH20 0xFFFFFFFFFFFFFFFFFFFFFFFFFFFFFFFFFFFFFFFF AND EQ PUSH2 0xB4A JUMPI PUSH1 0x40 MLOAD PUSH32 0x8C379A000000000000000000000000000000000000000000000000000000000 DUP2 MSTORE PUSH1 0x4 ADD PUSH2 0xB41 SWAP1 PUSH2 0x2956 JUMP JUMPDEST PUSH1 0x40 MLOAD DUP1 SWAP2 SUB SWAP1 REVERT JUMPDEST DUP1 PUSH1 0xA PUSH1 0x0 PUSH2 0x100 EXP DUP2 SLOAD DUP2 PUSH20 0xFFFFFFFFFFFFFFFFFFFFFFFFFFFFFFFFFFFFFFFF MUL NOT AND SWAP1 DUP4 PUSH20 0xFFFFFFFFFFFFFFFFFFFFFFFFFFFFFFFFFFFFFFFF AND MUL OR SWAP1 SSTORE POP POP JUMP JUMPDEST PUSH2 0xB96 PUSH2 0x2190 JUMP JUMPDEST PUSH1 0x0 PUSH1 0x10 PUSH1 0x0 DUP5 DUP2 MSTORE PUSH1 0x20 ADD SWAP1 DUP2 MSTORE PUSH1 0x20 ADD PUSH1 0x0 KECCAK256 PUSH1 0x40 MLOAD DUP1 PUSH1 0xE0 ADD PUSH1 0x40 MSTORE SWAP1 DUP2 PUSH1 0x0 DUP3 ADD SLOAD DUP2 MSTORE PUSH1 0x20 ADD PUSH1 0x1 DUP3 ADD PUSH1 0x0 SWAP1 SLOAD SWAP1 PUSH2 0x100 EXP SWAP1 DIV PUSH20 0xFFFFFFFFFFFFFFFFFFFFFFFFFFFFFFFFFFFFFFFF AND PUSH20 0xFFFFFFFFFFFFFFFFFFFFFFFFFFFFFFFFFFFFFFFF AND PUSH20 0xFFFFFFFFFFFFFFFFFFFFFFFFFFFFFFFFFFFFFFFF AND DUP2 MSTORE PUSH1 0x20 ADD PUSH1 0x2 DUP3 ADD SLOAD DUP2 MSTORE PUSH1 0x20 ADD PUSH1 0x3 DUP3 ADD PUSH1 0x0 SWAP1 SLOAD SWAP1 PUSH2 0x100 EXP SWAP1 DIV PUSH20 0xFFFFFFFFFFFFFFFFFFFFFFFFFFFFFFFFFFFFFFFF AND PUSH20 0xFFFFFFFFFFFFFFFFFFFFFFFFFFFFFFFFFFFFFFFF AND PUSH20 0xFFFFFFFFFFFFFFFFFFFFFFFFFFFFFFFFFFFFFFFF AND DUP2 MSTORE PUSH1 0x20 ADD PUSH1 0x4 DUP3 ADD PUSH1 0x0 SWAP1 SLOAD SWAP1 PUSH2 0x100 EXP SWAP1 DIV PUSH20 0xFFFFFFFFFFFFFFFFFFFFFFFFFFFFFFFFFFFFFFFF AND PUSH20 0xFFFFFFFFFFFFFFFFFFFFFFFFFFFFFFFFFFFFFFFF AND PUSH20 0xFFFFFFFFFFFFFFFFFFFFFFFFFFFFFFFFFFFFFFFF AND DUP2 MSTORE PUSH1 0x20 ADD PUSH1 0x5 DUP3 ADD SLOAD DUP2 MSTORE PUSH1 0x20 ADD PUSH1 0x6 DUP3 ADD PUSH1 0x0 SWAP1 SLOAD SWAP1 PUSH2 0x100 EXP SWAP1 DIV PUSH1 0xFF AND PUSH1 0x1 DUP2 GT ISZERO PUSH2 0xCFB JUMPI PUSH2 0xCFA PUSH2 0x229C JUMP JUMPDEST JUMPDEST PUSH1 0x1 DUP2 GT ISZERO PUSH2 0xD0D JUMPI PUSH2 0xD0C PUSH2 0x229C JUMP JUMPDEST JUMPDEST DUP2 MSTORE POP POP SWAP1 POP DUP1 SWAP2 POP POP SWAP2 SWAP1 POP JUMP JUMPDEST PUSH4 0x80AC58CD PUSH1 0xE0 SHL DUP2 JUMP JUMPDEST PUSH1 0xA PUSH1 0x0 SWAP1 SLOAD SWAP1 PUSH2 0x100 EXP SWAP1 DIV PUSH20 0xFFFFFFFFFFFFFFFFFFFFFFFFFFFFFFFFFFFFFFFF AND DUP2 JUMP JUMPDEST PUSH1 0x1 DUP1 PUSH1 0x0 ADD SLOAD SWAP1 DUP1 PUSH1 0x1 ADD PUSH1 0x0 SWAP1 SLOAD SWAP1 PUSH2 0x100 EXP SWAP1 DIV PUSH20 0xFFFFFFFFFFFFFFFFFFFFFFFFFFFFFFFFFFFFFFFF AND SWAP1 DUP1 PUSH1 0x2 ADD SLOAD SWAP1 DUP1 PUSH1 0x3 ADD PUSH1 0x0 SWAP1 SLOAD SWAP1 PUSH2 0x100 EXP SWAP1 DIV PUSH20 0xFFFFFFFFFFFFFFFFFFFFFFFFFFFFFFFFFFFFFFFF AND SWAP1 DUP1 PUSH1 0x4 ADD PUSH1 0x0 SWAP1 SLOAD SWAP1 PUSH2 0x100 EXP SWAP1 DIV PUSH20 0xFFFFFFFFFFFFFFFFFFFFFFFFFFFFFFFFFFFFFFFF AND SWAP1 DUP1 PUSH1 0x5 ADD SLOAD SWAP1 DUP1 PUSH1 0x6 ADD PUSH1 0x0 SWAP1 SLOAD SWAP1 PUSH2 0x100 EXP SWAP1 DIV PUSH1 0xFF AND SWAP1 POP DUP8 JUMP JUMPDEST PUSH1 0x2 PUSH1 0x0 SLOAD SUB PUSH2 0xE2F JUMPI PUSH1 0x40 MLOAD PUSH32 0x8C379A000000000000000000000000000000000000000000000000000000000 DUP2 MSTORE PUSH1 0x4 ADD PUSH2 0xE26 SWAP1 PUSH2 0x2AED JUMP JUMPDEST PUSH1 0x40 MLOAD DUP1 SWAP2 SUB SWAP1 REVERT JUMPDEST PUSH1 0x2 PUSH1 0x0 DUP2 SWAP1 SSTORE POP PUSH1 0x0 DUP2 GT PUSH2 0xE7A JUMPI PUSH1 0x40 MLOAD PUSH32 0x8C379A000000000000000000000000000000000000000000000000000000000 DUP2 MSTORE PUSH1 0x4 ADD PUSH2 0xE71 SWAP1 PUSH2 0x2B59 JUMP JUMPDEST PUSH1 0x40 MLOAD DUP1 SWAP2 SUB SWAP1 REVERT JUMPDEST PUSH1 0x0 PUSH1 0xB PUSH1 0x0 SWAP1 SLOAD SWAP1 PUSH2 0x100 EXP SWAP1 DIV PUSH20 0xFFFFFFFFFFFFFFFFFFFFFFFFFFFFFFFFFFFFFFFF AND PUSH20 0xFFFFFFFFFFFFFFFFFFFFFFFFFFFFFFFFFFFFFFFF AND PUSH4 0xD30BDAC9 DUP5 PUSH1 0x40 MLOAD DUP3 PUSH4 0xFFFFFFFF AND PUSH1 0xE0 SHL DUP2 MSTORE PUSH1 0x4 ADD PUSH2 0xED7 SWAP2 SWAP1 PUSH2 0x2B79 JUMP JUMPDEST PUSH1 0x0 PUSH1 0x40 MLOAD DUP1 DUP4 SUB DUP2 DUP7 GAS STATICCALL ISZERO DUP1 ISZERO PUSH2 0xEF4 JUMPI RETURNDATASIZE PUSH1 0x0 DUP1 RETURNDATACOPY RETURNDATASIZE PUSH1 0x0 REVERT JUMPDEST POP POP POP POP PUSH1 0x40 MLOAD RETURNDATASIZE PUSH1 0x0 DUP3 RETURNDATACOPY RETURNDATASIZE PUSH1 0x1F NOT PUSH1 0x1F DUP3 ADD AND DUP3 ADD DUP1 PUSH1 0x40 MSTORE POP DUP2 ADD SWAP1 PUSH2 0xF1D SWAP2 SWAP1 PUSH2 0x2DFF JUMP JUMPDEST SWAP1 POP PUSH2 0xF29 PUSH1 0xE PUSH2 0x1F8A JUMP JUMPDEST PUSH1 0x0 PUSH2 0xF35 PUSH1 0xE PUSH2 0x1F7C JUMP JUMPDEST SWAP1 POP PUSH1 0x40 MLOAD DUP1 PUSH1 0xE0 ADD PUSH1 0x40 MSTORE DUP1 DUP3 DUP2 MSTORE PUSH1 0x20 ADD DUP7 PUSH20 0xFFFFFFFFFFFFFFFFFFFFFFFFFFFFFFFFFFFFFFFF AND DUP2 MSTORE PUSH1 0x20 ADD DUP6 DUP2 MSTORE PUSH1 0x20 ADD CALLER PUSH20 0xFFFFFFFFFFFFFFFFFFFFFFFFFFFFFFFFFFFFFFFF AND DUP2 MSTORE PUSH1 0x20 ADD PUSH1 0x0 PUSH20 0xFFFFFFFFFFFFFFFFFFFFFFFFFFFFFFFFFFFFFFFF AND DUP2 MSTORE PUSH1 0x20 ADD DUP5 DUP2 MSTORE PUSH1 0x20 ADD PUSH1 0x1 DUP1 DUP2 GT ISZERO PUSH2 0xFBC JUMPI PUSH2 0xFBB PUSH2 0x229C JUMP JUMPDEST JUMPDEST DUP2 MSTORE POP PUSH1 0x10 PUSH1 0x0 DUP4 DUP2 MSTORE PUSH1 0x20 ADD SWAP1 DUP2 MSTORE PUSH1 0x20 ADD PUSH1 0x0 KECCAK256 PUSH1 0x0 DUP3 ADD MLOAD DUP2 PUSH1 0x0 ADD SSTORE PUSH1 0x20 DUP3 ADD MLOAD DUP2 PUSH1 0x1 ADD PUSH1 0x0 PUSH2 0x100 EXP DUP2 SLOAD DUP2 PUSH20 0xFFFFFFFFFFFFFFFFFFFFFFFFFFFFFFFFFFFFFFFF MUL NOT AND SWAP1 DUP4 PUSH20 0xFFFFFFFFFFFFFFFFFFFFFFFFFFFFFFFFFFFFFFFF AND MUL OR SWAP1 SSTORE POP PUSH1 0x40 DUP3 ADD MLOAD DUP2 PUSH1 0x2 ADD SSTORE PUSH1 0x60 DUP3 ADD MLOAD DUP2 PUSH1 0x3 ADD PUSH1 0x0 PUSH2 0x100 EXP DUP2 SLOAD DUP2 PUSH20 0xFFFFFFFFFFFFFFFFFFFFFFFFFFFFFFFFFFFFFFFF MUL NOT AND SWAP1 DUP4 PUSH20 0xFFFFFFFFFFFFFFFFFFFFFFFFFFFFFFFFFFFFFFFF AND MUL OR SWAP1 SSTORE POP PUSH1 0x80 DUP3 ADD MLOAD DUP2 PUSH1 0x4 ADD PUSH1 0x0 PUSH2 0x100 EXP DUP2 SLOAD DUP2 PUSH20 0xFFFFFFFFFFFFFFFFFFFFFFFFFFFFFFFFFFFFFFFF MUL NOT AND SWAP1 DUP4 PUSH20 0xFFFFFFFFFFFFFFFFFFFFFFFFFFFFFFFFFFFFFFFF AND MUL OR SWAP1 SSTORE POP PUSH1 0xA0 DUP3 ADD MLOAD DUP2 PUSH1 0x5 ADD SSTORE PUSH1 0xC0 DUP3 ADD MLOAD DUP2 PUSH1 0x6 ADD PUSH1 0x0 PUSH2 0x100 EXP DUP2 SLOAD DUP2 PUSH1 0xFF MUL NOT AND SWAP1 DUP4 PUSH1 0x1 DUP2 GT ISZERO PUSH2 0x10F0 JUMPI PUSH2 0x10EF PUSH2 0x229C JUMP JUMPDEST JUMPDEST MUL OR SWAP1 SSTORE POP SWAP1 POP POP PUSH1 0xC PUSH1 0x0 SWAP1 SLOAD SWAP1 PUSH2 0x100 EXP SWAP1 DIV PUSH20 0xFFFFFFFFFFFFFFFFFFFFFFFFFFFFFFFFFFFFFFFF AND PUSH20 0xFFFFFFFFFFFFFFFFFFFFFFFFFFFFFFFFFFFFFFFF AND PUSH4 0x23B872DD CALLER ADDRESS DUP8 PUSH1 0x40 MLOAD DUP5 PUSH4 0xFFFFFFFF AND PUSH1 0xE0 SHL DUP2 MSTORE PUSH1 0x4 ADD PUSH2 0x1157 SWAP4 SWAP3 SWAP2 SWAP1 PUSH2 0x2E48 JUMP JUMPDEST PUSH1 0x0 PUSH1 0x40 MLOAD DUP1 DUP4 SUB DUP2 PUSH1 0x0 DUP8 DUP1 EXTCODESIZE ISZERO DUP1 ISZERO PUSH2 0x1171 JUMPI PUSH1 0x0 DUP1 REVERT JUMPDEST POP GAS CALL ISZERO DUP1 ISZERO PUSH2 0x1185 JUMPI RETURNDATASIZE PUSH1 0x0 DUP1 RETURNDATACOPY RETURNDATASIZE PUSH1 0x0 REVERT JUMPDEST POP POP POP POP DUP4 DUP6 PUSH20 0xFFFFFFFFFFFFFFFFFFFFFFFFFFFFFFFFFFFFFFFF AND DUP3 PUSH32 0x2AD024D53A0DC50C130967F8D4941927EE087EA31394CEBB2B9599D3706C9C00 CALLER PUSH1 0x0 DUP9 PUSH1 0x40 MLOAD PUSH2 0x11D6 SWAP4 SWAP3 SWAP2 SWAP1 PUSH2 0x2E48 JUMP JUMPDEST PUSH1 0x40 MLOAD DUP1 SWAP2 SUB SWAP1 LOG4 POP POP PUSH1 0x1 PUSH1 0x0 DUP2 SWAP1 SSTORE POP POP POP POP JUMP JUMPDEST PUSH2 0x11F5 PUSH2 0x1F74 JUMP JUMPDEST PUSH20 0xFFFFFFFFFFFFFFFFFFFFFFFFFFFFFFFFFFFFFFFF AND PUSH2 0x1213 PUSH2 0x1404 JUMP JUMPDEST PUSH20 0xFFFFFFFFFFFFFFFFFFFFFFFFFFFFFFFFFFFFFFFF AND EQ PUSH2 0x1269 JUMPI PUSH1 0x40 MLOAD PUSH32 0x8C379A000000000000000000000000000000000000000000000000000000000 DUP2 MSTORE PUSH1 0x4 ADD PUSH2 0x1260 SWAP1 PUSH2 0x2956 JUMP JUMPDEST PUSH1 0x40 MLOAD DUP1 SWAP2 SUB SWAP1 REVERT JUMPDEST DUP1 PUSH1 0xB PUSH1 0x0 PUSH2 0x100 EXP DUP2 SLOAD DUP2 PUSH20 0xFFFFFFFFFFFFFFFFFFFFFFFFFFFFFFFFFFFFFFFF MUL NOT AND SWAP1 DUP4 PUSH20 0xFFFFFFFFFFFFFFFFFFFFFFFFFFFFFFFFFFFFFFFF AND MUL OR SWAP1 SSTORE POP POP JUMP JUMPDEST PUSH1 0x9 PUSH1 0x20 MSTORE DUP2 PUSH1 0x0 MSTORE PUSH1 0x40 PUSH1 0x0 KECCAK256 PUSH1 0x20 MSTORE DUP1 PUSH1 0x0 MSTORE PUSH1 0x40 PUSH1 0x0 KECCAK256 PUSH1 0x0 SWAP2 POP SWAP2 POP POP DUP1 PUSH1 0x0 ADD SLOAD SWAP1 DUP1 PUSH1 0x1 ADD PUSH1 0x0 SWAP1 SLOAD SWAP1 PUSH2 0x100 EXP SWAP1 DIV PUSH20 0xFFFFFFFFFFFFFFFFFFFFFFFFFFFFFFFFFFFFFFFF AND SWAP1 DUP1 PUSH1 0x2 ADD SLOAD SWAP1 DUP1 PUSH1 0x3 ADD PUSH1 0x0 SWAP1 SLOAD SWAP1 PUSH2 0x100 EXP SWAP1 DIV PUSH20 0xFFFFFFFFFFFFFFFFFFFFFFFFFFFFFFFFFFFFFFFF AND SWAP1 DUP1 PUSH1 0x4 ADD PUSH1 0x0 SWAP1 SLOAD SWAP1 PUSH2 0x100 EXP SWAP1 DIV PUSH20 0xFFFFFFFFFFFFFFFFFFFFFFFFFFFFFFFFFFFFFFFF AND SWAP1 DUP1 PUSH1 0x5 ADD SLOAD SWAP1 DUP1 PUSH1 0x6 ADD PUSH1 0x0 SWAP1 SLOAD SWAP1 PUSH2 0x100 EXP SWAP1 DIV PUSH1 0xFF AND SWAP1 POP DUP8 JUMP JUMPDEST PUSH2 0x1371 PUSH2 0x1F74 JUMP JUMPDEST PUSH20 0xFFFFFFFFFFFFFFFFFFFFFFFFFFFFFFFFFFFFFFFF AND PUSH2 0x138F PUSH2 0x1404 JUMP JUMPDEST PUSH20 0xFFFFFFFFFFFFFFFFFFFFFFFFFFFFFFFFFFFFFFFF AND EQ PUSH2 0x13E5 JUMPI PUSH1 0x40 MLOAD PUSH32 0x8C379A000000000000000000000000000000000000000000000000000000000 DUP2 MSTORE PUSH1 0x4 ADD PUSH2 0x13DC SWAP1 PUSH2 0x2956 JUMP JUMPDEST PUSH1 0x40 MLOAD DUP1 SWAP2 SUB SWAP1 REVERT JUMPDEST PUSH2 0x13EF PUSH1 0x0 PUSH2 0x1FA0 JUMP JUMPDEST JUMP JUMPDEST PUSH1 0xC PUSH1 0x14 SWAP1 SLOAD SWAP1 PUSH2 0x100 EXP SWAP1 DIV PUSH1 0xFF AND DUP2 JUMP JUMPDEST PUSH1 0x0 PUSH1 0xD PUSH1 0x0 SWAP1 SLOAD SWAP1 PUSH2 0x100 EXP SWAP1 DIV PUSH20 0xFFFFFFFFFFFFFFFFFFFFFFFFFFFFFFFFFFFFFFFF AND SWAP1 POP SWAP1 JUMP JUMPDEST PUSH1 0x2 PUSH1 0x0 SLOAD SUB PUSH2 0x1473 JUMPI PUSH1 0x40 MLOAD PUSH32 0x8C379A000000000000000000000000000000000000000000000000000000000 DUP2 MSTORE PUSH1 0x4 ADD PUSH2 0x146A SWAP1 PUSH2 0x2AED JUMP JUMPDEST PUSH1 0x40 MLOAD DUP1 SWAP2 SUB SWAP1 REVERT JUMPDEST PUSH1 0x2 PUSH1 0x0 DUP2 SWAP1 SSTORE POP PUSH1 0x0 PUSH1 0x10 PUSH1 0x0 DUP5 DUP2 MSTORE PUSH1 0x20 ADD SWAP1 DUP2 MSTORE PUSH1 0x20 ADD PUSH1 0x0 KECCAK256 PUSH1 0x5 ADD SLOAD SWAP1 POP PUSH1 0x0 PUSH1 0x10 PUSH1 0x0 DUP6 DUP2 MSTORE PUSH1 0x20 ADD SWAP1 DUP2 MSTORE PUSH1 0x20 ADD PUSH1 0x0 KECCAK256 PUSH1 0x2 ADD SLOAD SWAP1 POP DUP2 DUP4 EQ PUSH2 0x14F3 JUMPI PUSH1 0x40 MLOAD PUSH32 0x8C379A000000000000000000000000000000000000000000000000000000000 DUP2 MSTORE PUSH1 0x4 ADD PUSH2 0x14EA SWAP1 PUSH2 0x2EF1 JUMP JUMPDEST PUSH1 0x40 MLOAD DUP1 SWAP2 SUB SWAP1 REVERT JUMPDEST PUSH1 0xA PUSH1 0x0 SWAP1 SLOAD SWAP1 PUSH2 0x100 EXP SWAP1 DIV PUSH20 0xFFFFFFFFFFFFFFFFFFFFFFFFFFFFFFFFFFFFFFFF AND PUSH20 0xFFFFFFFFFFFFFFFFFFFFFFFFFFFFFFFFFFFFFFFF AND PUSH4 0x23B872DD CALLER PUSH1 0x10 PUSH1 0x0 DUP9 DUP2 MSTORE PUSH1 0x20 ADD SWAP1 DUP2 MSTORE PUSH1 0x20 ADD PUSH1 0x0 KECCAK256 PUSH1 0x3 ADD PUSH1 0x0 SWAP1 SLOAD SWAP1 PUSH2 0x100 EXP SWAP1 DIV PUSH20 0xFFFFFFFFFFFFFFFFFFFFFFFFFFFFFFFFFFFFFFFF AND DUP7 PUSH1 0x40 MLOAD DUP5 PUSH4 0xFFFFFFFF AND PUSH1 0xE0 SHL DUP2 MSTORE PUSH1 0x4 ADD PUSH2 0x1588 SWAP4 SWAP3 SWAP2 SWAP1 PUSH2 0x2F32 JUMP JUMPDEST PUSH1 0x20 PUSH1 0x40 MLOAD DUP1 DUP4 SUB DUP2 PUSH1 0x0 DUP8 GAS CALL ISZERO DUP1 ISZERO PUSH2 0x15A7 JUMPI RETURNDATASIZE PUSH1 0x0 DUP1 RETURNDATACOPY RETURNDATASIZE PUSH1 0x0 REVERT JUMPDEST POP POP POP POP PUSH1 0x40 MLOAD RETURNDATASIZE PUSH1 0x1F NOT PUSH1 0x1F DUP3 ADD AND DUP3 ADD DUP1 PUSH1 0x40 MSTORE POP DUP2 ADD SWAP1 PUSH2 0x15CB SWAP2 SWAP1 PUSH2 0x2F69 JUMP JUMPDEST POP PUSH1 0xC PUSH1 0x0 SWAP1 SLOAD SWAP1 PUSH2 0x100 EXP SWAP1 DIV PUSH20 0xFFFFFFFFFFFFFFFFFFFFFFFFFFFFFFFFFFFFFFFF AND PUSH20 0xFFFFFFFFFFFFFFFFFFFFFFFFFFFFFFFFFFFFFFFF AND PUSH4 0x23B872DD ADDRESS CALLER DUP5 PUSH1 0x40 MLOAD DUP5 PUSH4 0xFFFFFFFF AND PUSH1 0xE0 SHL DUP2 MSTORE PUSH1 0x4 ADD PUSH2 0x162B SWAP4 SWAP3 SWAP2 SWAP1 PUSH2 0x2E48 JUMP JUMPDEST PUSH1 0x0 PUSH1 0x40 MLOAD DUP1 DUP4 SUB DUP2 PUSH1 0x0 DUP8 DUP1 EXTCODESIZE ISZERO DUP1 ISZERO PUSH2 0x1645 JUMPI PUSH1 0x0 DUP1 REVERT JUMPDEST POP GAS CALL ISZERO DUP1 ISZERO PUSH2 0x1659 JUMPI RETURNDATASIZE PUSH1 0x0 DUP1 RETURNDATACOPY RETURNDATASIZE PUSH1 0x0 REVERT JUMPDEST POP POP POP POP CALLER PUSH1 0x10 PUSH1 0x0 DUP7 DUP2 MSTORE PUSH1 0x20 ADD SWAP1 DUP2 MSTORE PUSH1 0x20 ADD PUSH1 0x0 KECCAK256 PUSH1 0x4 ADD PUSH1 0x0 PUSH2 0x100 EXP DUP2 SLOAD DUP2 PUSH20 0xFFFFFFFFFFFFFFFFFFFFFFFFFFFFFFFFFFFFFFFF MUL NOT AND SWAP1 DUP4 PUSH20 0xFFFFFFFFFFFFFFFFFFFFFFFFFFFFFFFFFFFFFFFF AND MUL OR SWAP1 SSTORE POP PUSH1 0x0 PUSH1 0x10 PUSH1 0x0 DUP7 DUP2 MSTORE PUSH1 0x20 ADD SWAP1 DUP2 MSTORE PUSH1 0x20 ADD PUSH1 0x0 KECCAK256 PUSH1 0x6 ADD PUSH1 0x0 PUSH2 0x100 EXP DUP2 SLOAD DUP2 PUSH1 0xFF MUL NOT AND SWAP1 DUP4 PUSH1 0x1 DUP2 GT ISZERO PUSH2 0x16EC JUMPI PUSH2 0x16EB PUSH2 0x229C JUMP JUMPDEST JUMPDEST MUL OR SWAP1 SSTORE POP PUSH2 0x16FB PUSH1 0xF PUSH2 0x1F8A JUMP JUMPDEST POP POP PUSH1 0x1 PUSH1 0x0 DUP2 SWAP1 SSTORE POP POP POP JUMP JUMPDEST PUSH2 0x1712 DUP3 PUSH2 0x2066 JUMP JUMPDEST PUSH1 0x0 CALLER SWAP1 POP PUSH1 0x0 PUSH1 0x10 PUSH1 0x0 DUP5 DUP2 MSTORE PUSH1 0x20 ADD SWAP1 DUP2 MSTORE PUSH1 0x20 ADD PUSH1 0x0 KECCAK256 PUSH1 0x40 MLOAD DUP1 PUSH1 0xE0 ADD PUSH1 0x40 MSTORE SWAP1 DUP2 PUSH1 0x0 DUP3 ADD SLOAD DUP2 MSTORE PUSH1 0x20 ADD PUSH1 0x1 DUP3 ADD PUSH1 0x0 SWAP1 SLOAD SWAP1 PUSH2 0x100 EXP SWAP1 DIV PUSH20 0xFFFFFFFFFFFFFFFFFFFFFFFFFFFFFFFFFFFFFFFF AND PUSH20 0xFFFFFFFFFFFFFFFFFFFFFFFFFFFFFFFFFFFFFFFF AND PUSH20 0xFFFFFFFFFFFFFFFFFFFFFFFFFFFFFFFFFFFFFFFF AND DUP2 MSTORE PUSH1 0x20 ADD PUSH1 0x2 DUP3 ADD SLOAD DUP2 MSTORE PUSH1 0x20 ADD PUSH1 0x3 DUP3 ADD PUSH1 0x0 SWAP1 SLOAD SWAP1 PUSH2 0x100 EXP SWAP1 DIV PUSH20 0xFFFFFFFFFFFFFFFFFFFFFFFFFFFFFFFFFFFFFFFF AND PUSH20 0xFFFFFFFFFFFFFFFFFFFFFFFFFFFFFFFFFFFFFFFF AND PUSH20 0xFFFFFFFFFFFFFFFFFFFFFFFFFFFFFFFFFFFFFFFF AND DUP2 MSTORE PUSH1 0x20 ADD PUSH1 0x4 DUP3 ADD PUSH1 0x0 SWAP1 SLOAD SWAP1 PUSH2 0x100 EXP SWAP1 DIV PUSH20 0xFFFFFFFFFFFFFFFFFFFFFFFFFFFFFFFFFFFFFFFF AND PUSH20 0xFFFFFFFFFFFFFFFFFFFFFFFFFFFFFFFFFFFFFFFF AND PUSH20 0xFFFFFFFFFFFFFFFFFFFFFFFFFFFFFFFFFFFFFFFF AND DUP2 MSTORE PUSH1 0x20 ADD PUSH1 0x5 DUP3 ADD SLOAD DUP2 MSTORE PUSH1 0x20 ADD PUSH1 0x6 DUP3 ADD PUSH1 0x0 SWAP1 SLOAD SWAP1 PUSH2 0x100 EXP SWAP1 DIV PUSH1 0xFF AND PUSH1 0x1 DUP2 GT ISZERO PUSH2 0x187C JUMPI PUSH2 0x187B PUSH2 0x229C JUMP JUMPDEST JUMPDEST PUSH1 0x1 DUP2 GT ISZERO PUSH2 0x188E JUMPI PUSH2 0x188D PUSH2 0x229C JUMP JUMPDEST JUMPDEST DUP2 MSTORE POP POP SWAP1 POP PUSH1 0x0 DUP2 PUSH1 0x0 ADD MLOAD SUB PUSH2 0x18DB JUMPI PUSH1 0x40 MLOAD PUSH32 0x8C379A000000000000000000000000000000000000000000000000000000000 DUP2 MSTORE PUSH1 0x4 ADD PUSH2 0x18D2 SWAP1 PUSH2 0x2FE2 JUMP JUMPDEST PUSH1 0x40 MLOAD DUP1 SWAP2 SUB SWAP1 REVERT JUMPDEST PUSH1 0x0 PUSH1 0x1 DUP2 GT ISZERO PUSH2 0x18EF JUMPI PUSH2 0x18EE PUSH2 0x229C JUMP JUMPDEST JUMPDEST DUP2 PUSH1 0xC0 ADD MLOAD PUSH1 0x1 DUP2 GT ISZERO PUSH2 0x1906 JUMPI PUSH2 0x1905 PUSH2 0x229C JUMP JUMPDEST JUMPDEST SUB PUSH2 0x1946 JUMPI PUSH1 0x40 MLOAD PUSH32 0x8C379A000000000000000000000000000000000000000000000000000000000 DUP2 MSTORE PUSH1 0x4 ADD PUSH2 0x193D SWAP1 PUSH2 0x304E JUMP JUMPDEST PUSH1 0x40 MLOAD DUP1 SWAP2 SUB SWAP1 REVERT JUMPDEST PUSH1 0x0 DUP2 PUSH1 0x60 ADD MLOAD SWAP1 POP PUSH1 0x0 PUSH20 0xFFFFFFFFFFFFFFFFFFFFFFFFFFFFFFFFFFFFFFFF AND DUP2 PUSH20 0xFFFFFFFFFFFFFFFFFFFFFFFFFFFFFFFFFFFFFFFF AND SUB PUSH2 0x19BE JUMPI PUSH1 0x40 MLOAD PUSH32 0x8C379A000000000000000000000000000000000000000000000000000000000 DUP2 MSTORE PUSH1 0x4 ADD PUSH2 0x19B5 SWAP1 PUSH2 0x30BA JUMP JUMPDEST PUSH1 0x40 MLOAD DUP1 SWAP2 SUB SWAP1 REVERT JUMPDEST CALLER PUSH20 0xFFFFFFFFFFFFFFFFFFFFFFFFFFFFFFFFFFFFFFFF AND DUP2 PUSH20 0xFFFFFFFFFFFFFFFFFFFFFFFFFFFFFFFFFFFFFFFF AND EQ PUSH2 0x1A2C JUMPI PUSH1 0x40 MLOAD PUSH32 0x8C379A000000000000000000000000000000000000000000000000000000000 DUP2 MSTORE PUSH1 0x4 ADD PUSH2 0x1A23 SWAP1 PUSH2 0x3126 JUMP JUMPDEST PUSH1 0x40 MLOAD DUP1 SWAP2 SUB SWAP1 REVERT JUMPDEST PUSH1 0x0 DUP6 SWAP1 POP DUP1 PUSH20 0xFFFFFFFFFFFFFFFFFFFFFFFFFFFFFFFFFFFFFFFF AND PUSH4 0x42842E0E ADDRESS DUP5 DUP9 PUSH1 0x40 MLOAD DUP5 PUSH4 0xFFFFFFFF AND PUSH1 0xE0 SHL DUP2 MSTORE PUSH1 0x4 ADD PUSH2 0x1A6E SWAP4 SWAP3 SWAP2 SWAP1 PUSH2 0x2E48 JUMP JUMPDEST PUSH1 0x0 PUSH1 0x40 MLOAD DUP1 DUP4 SUB DUP2 PUSH1 0x0 DUP8 DUP1 EXTCODESIZE ISZERO DUP1 ISZERO PUSH2 0x1A88 JUMPI PUSH1 0x0 DUP1 REVERT JUMPDEST POP GAS CALL ISZERO DUP1 ISZERO PUSH2 0x1A9C JUMPI RETURNDATASIZE PUSH1 0x0 DUP1 RETURNDATACOPY RETURNDATASIZE PUSH1 0x0 REVERT JUMPDEST POP POP POP POP PUSH1 0x0 DUP4 PUSH1 0xC0 ADD SWAP1 PUSH1 0x1 DUP2 GT ISZERO PUSH2 0x1AB9 JUMPI PUSH2 0x1AB8 PUSH2 0x229C JUMP JUMPDEST JUMPDEST SWAP1 DUP2 PUSH1 0x1 DUP2 GT ISZERO PUSH2 0x1ACD JUMPI PUSH2 0x1ACC PUSH2 0x229C JUMP JUMPDEST JUMPDEST DUP2 MSTORE POP POP PUSH1 0x10 PUSH1 0x0 DUP7 DUP2 MSTORE PUSH1 0x20 ADD SWAP1 DUP2 MSTORE PUSH1 0x20 ADD PUSH1 0x0 KECCAK256 PUSH1 0x0 DUP1 DUP3 ADD PUSH1 0x0 SWAP1 SSTORE PUSH1 0x1 DUP3 ADD PUSH1 0x0 PUSH2 0x100 EXP DUP2 SLOAD SWAP1 PUSH20 0xFFFFFFFFFFFFFFFFFFFFFFFFFFFFFFFFFFFFFFFF MUL NOT AND SWAP1 SSTORE PUSH1 0x2 DUP3 ADD PUSH1 0x0 SWAP1 SSTORE PUSH1 0x3 DUP3 ADD PUSH1 0x0 PUSH2 0x100 EXP DUP2 SLOAD SWAP1 PUSH20 0xFFFFFFFFFFFFFFFFFFFFFFFFFFFFFFFFFFFFFFFF MUL NOT AND SWAP1 SSTORE PUSH1 0x4 DUP3 ADD PUSH1 0x0 PUSH2 0x100 EXP DUP2 SLOAD SWAP1 PUSH20 0xFFFFFFFFFFFFFFFFFFFFFFFFFFFFFFFFFFFFFFFF MUL NOT AND SWAP1 SSTORE PUSH1 0x5 DUP3 ADD PUSH1 0x0 SWAP1 SSTORE PUSH1 0x6 DUP3 ADD PUSH1 0x0 PUSH2 0x100 EXP DUP2 SLOAD SWAP1 PUSH1 0xFF MUL NOT AND SWAP1 SSTORE POP POP DUP4 PUSH20 0xFFFFFFFFFFFFFFFFFFFFFFFFFFFFFFFFFFFFFFFF AND DUP6 PUSH32 0xC141ECC59E1A451EE7D3128743C8CA3174955CE97262896269482D5F84B39A85 DUP9 DUP7 PUSH1 0x0 ADD MLOAD TIMESTAMP PUSH1 0x40 MLOAD PUSH2 0x1BD7 SWAP4 SWAP3 SWAP2 SWAP1 PUSH2 0x3146 JUMP JUMPDEST PUSH1 0x40 MLOAD DUP1 SWAP2 SUB SWAP1 LOG3 POP POP POP POP POP POP JUMP JUMPDEST PUSH1 0xC PUSH1 0x15 SWAP1 SLOAD SWAP1 PUSH2 0x100 EXP SWAP1 DIV PUSH1 0xFF AND DUP2 JUMP JUMPDEST PUSH1 0xB PUSH1 0x0 SWAP1 SLOAD SWAP1 PUSH2 0x100 EXP SWAP1 DIV PUSH20 0xFFFFFFFFFFFFFFFFFFFFFFFFFFFFFFFFFFFFFFFF AND DUP2 JUMP JUMPDEST PUSH2 0x1C28 PUSH2 0x2190 JUMP JUMPDEST PUSH1 0x10 PUSH1 0x0 DUP4 DUP2 MSTORE PUSH1 0x20 ADD SWAP1 DUP2 MSTORE PUSH1 0x20 ADD PUSH1 0x0 KECCAK256 PUSH1 0x40 MLOAD DUP1 PUSH1 0xE0 ADD PUSH1 0x40 MSTORE SWAP1 DUP2 PUSH1 0x0 DUP3 ADD SLOAD DUP2 MSTORE PUSH1 0x20 ADD PUSH1 0x1 DUP3 ADD PUSH1 0x0 SWAP1 SLOAD SWAP1 PUSH2 0x100 EXP SWAP1 DIV PUSH20 0xFFFFFFFFFFFFFFFFFFFFFFFFFFFFFFFFFFFFFFFF AND PUSH20 0xFFFFFFFFFFFFFFFFFFFFFFFFFFFFFFFFFFFFFFFF AND PUSH20 0xFFFFFFFFFFFFFFFFFFFFFFFFFFFFFFFFFFFFFFFF AND DUP2 MSTORE PUSH1 0x20 ADD PUSH1 0x2 DUP3 ADD SLOAD DUP2 MSTORE PUSH1 0x20 ADD PUSH1 0x3 DUP3 ADD PUSH1 0x0 SWAP1 SLOAD SWAP1 PUSH2 0x100 EXP SWAP1 DIV PUSH20 0xFFFFFFFFFFFFFFFFFFFFFFFFFFFFFFFFFFFFFFFF AND PUSH20 0xFFFFFFFFFFFFFFFFFFFFFFFFFFFFFFFFFFFFFFFF AND PUSH20 0xFFFFFFFFFFFFFFFFFFFFFFFFFFFFFFFFFFFFFFFF AND DUP2 MSTORE PUSH1 0x20 ADD PUSH1 0x4 DUP3 ADD PUSH1 0x0 SWAP1 SLOAD SWAP1 PUSH2 0x100 EXP SWAP1 DIV PUSH20 0xFFFFFFFFFFFFFFFFFFFFFFFFFFFFFFFFFFFFFFFF AND PUSH20 0xFFFFFFFFFFFFFFFFFFFFFFFFFFFFFFFFFFFFFFFF AND PUSH20 0xFFFFFFFFFFFFFFFFFFFFFFFFFFFFFFFFFFFFFFFF AND DUP2 MSTORE PUSH1 0x20 ADD PUSH1 0x5 DUP3 ADD SLOAD DUP2 MSTORE PUSH1 0x20 ADD PUSH1 0x6 DUP3 ADD PUSH1 0x0 SWAP1 SLOAD SWAP1 PUSH2 0x100 EXP SWAP1 DIV PUSH1 0xFF AND PUSH1 0x1 DUP2 GT ISZERO PUSH2 0x1D8B JUMPI PUSH2 0x1D8A PUSH2 0x229C JUMP JUMPDEST JUMPDEST PUSH1 0x1 DUP2 GT ISZERO PUSH2 0x1D9D JUMPI PUSH2 0x1D9C PUSH2 0x229C JUMP JUMPDEST JUMPDEST DUP2 MSTORE POP POP SWAP1 POP SWAP2 SWAP1 POP JUMP JUMPDEST PUSH2 0x1DB0 PUSH2 0x1F74 JUMP JUMPDEST PUSH20 0xFFFFFFFFFFFFFFFFFFFFFFFFFFFFFFFFFFFFFFFF AND PUSH2 0x1DCE PUSH2 0x1404 JUMP JUMPDEST PUSH20 0xFFFFFFFFFFFFFFFFFFFFFFFFFFFFFFFFFFFFFFFF AND EQ PUSH2 0x1E24 JUMPI PUSH1 0x40 MLOAD PUSH32 0x8C379A000000000000000000000000000000000000000000000000000000000 DUP2 MSTORE PUSH1 0x4 ADD PUSH2 0x1E1B SWAP1 PUSH2 0x2956 JUMP JUMPDEST PUSH1 0x40 MLOAD DUP1 SWAP2 SUB SWAP1 REVERT JUMPDEST PUSH1 0x0 PUSH20 0xFFFFFFFFFFFFFFFFFFFFFFFFFFFFFFFFFFFFFFFF AND DUP2 PUSH20 0xFFFFFFFFFFFFFFFFFFFFFFFFFFFFFFFFFFFFFFFF AND SUB PUSH2 0x1E93 JUMPI PUSH1 0x40 MLOAD PUSH32 0x8C379A000000000000000000000000000000000000000000000000000000000 DUP2 MSTORE PUSH1 0x4 ADD PUSH2 0x1E8A SWAP1 PUSH2 0x31EF JUMP JUMPDEST PUSH1 0x40 MLOAD DUP1 SWAP2 SUB SWAP1 REVERT JUMPDEST PUSH2 0x1E9C DUP2 PUSH2 0x1FA0 JUMP JUMPDEST POP JUMP JUMPDEST PUSH1 0xC PUSH1 0x0 SWAP1 SLOAD SWAP1 PUSH2 0x100 EXP SWAP1 DIV PUSH20 0xFFFFFFFFFFFFFFFFFFFFFFFFFFFFFFFFFFFFFFFF AND DUP2 JUMP JUMPDEST PUSH1 0x8 PUSH1 0x20 MSTORE DUP1 PUSH1 0x0 MSTORE PUSH1 0x40 PUSH1 0x0 KECCAK256 PUSH1 0x0 SWAP2 POP SWAP1 POP DUP1 PUSH1 0x0 ADD SLOAD SWAP1 DUP1 PUSH1 0x1 ADD PUSH1 0x0 SWAP1 SLOAD SWAP1 PUSH2 0x100 EXP SWAP1 DIV PUSH20 0xFFFFFFFFFFFFFFFFFFFFFFFFFFFFFFFFFFFFFFFF AND SWAP1 DUP1 PUSH1 0x2 ADD SLOAD SWAP1 DUP1 PUSH1 0x3 ADD PUSH1 0x0 SWAP1 SLOAD SWAP1 PUSH2 0x100 EXP SWAP1 DIV PUSH20 0xFFFFFFFFFFFFFFFFFFFFFFFFFFFFFFFFFFFFFFFF AND SWAP1 DUP1 PUSH1 0x4 ADD PUSH1 0x0 SWAP1 SLOAD SWAP1 PUSH2 0x100 EXP SWAP1 DIV PUSH20 0xFFFFFFFFFFFFFFFFFFFFFFFFFFFFFFFFFFFFFFFF AND SWAP1 DUP1 PUSH1 0x5 ADD SLOAD SWAP1 DUP1 PUSH1 0x6 ADD PUSH1 0x0 SWAP1 SLOAD SWAP1 PUSH2 0x100 EXP SWAP1 DIV PUSH1 0xFF AND SWAP1 POP DUP8 JUMP JUMPDEST PUSH1 0x0 CALLER SWAP1 POP SWAP1 JUMP JUMPDEST PUSH1 0x0 DUP2 PUSH1 0x0 ADD SLOAD SWAP1 POP SWAP2 SWAP1 POP JUMP JUMPDEST PUSH1 0x1 DUP2 PUSH1 0x0 ADD PUSH1 0x0 DUP3 DUP3 SLOAD ADD SWAP3 POP POP DUP2 SWAP1 SSTORE POP POP JUMP JUMPDEST PUSH1 0x0 PUSH1 0xD PUSH1 0x0 SWAP1 SLOAD SWAP1 PUSH2 0x100 EXP SWAP1 DIV PUSH20 0xFFFFFFFFFFFFFFFFFFFFFFFFFFFFFFFFFFFFFFFF AND SWAP1 POP DUP2 PUSH1 0xD PUSH1 0x0 PUSH2 0x100 EXP DUP2 SLOAD DUP2 PUSH20 0xFFFFFFFFFFFFFFFFFFFFFFFFFFFFFFFFFFFFFFFF MUL NOT AND SWAP1 DUP4 PUSH20 0xFFFFFFFFFFFFFFFFFFFFFFFFFFFFFFFFFFFFFFFF AND MUL OR SWAP1 SSTORE POP DUP2 PUSH20 0xFFFFFFFFFFFFFFFFFFFFFFFFFFFFFFFFFFFFFFFF AND DUP2 PUSH20 0xFFFFFFFFFFFFFFFFFFFFFFFFFFFFFFFFFFFFFFFF AND PUSH32 0x8BE0079C531659141344CD1FD0A4F28419497F9722A3DAAFE3B4186F6B6457E0 PUSH1 0x40 MLOAD PUSH1 0x40 MLOAD DUP1 SWAP2 SUB SWAP1 LOG3 POP POP JUMP JUMPDEST PUSH2 0x206F DUP2 PUSH2 0x2177 JUMP JUMPDEST PUSH2 0x20AE JUMPI PUSH1 0x40 MLOAD PUSH32 0x8C379A000000000000000000000000000000000000000000000000000000000 DUP2 MSTORE PUSH1 0x4 ADD PUSH2 0x20A5 SWAP1 PUSH2 0x3281 JUMP JUMPDEST PUSH1 0x40 MLOAD DUP1 SWAP2 SUB SWAP1 REVERT JUMPDEST PUSH1 0x0 DUP2 SWAP1 POP DUP1 PUSH20 0xFFFFFFFFFFFFFFFFFFFFFFFFFFFFFFFFFFFFFFFF AND PUSH4 0x1FFC9A7 PUSH4 0x80AC58CD PUSH1 0xE0 SHL PUSH1 0x40 MLOAD DUP3 PUSH4 0xFFFFFFFF AND PUSH1 0xE0 SHL DUP2 MSTORE PUSH1 0x4 ADD PUSH2 0x20F3 SWAP2 SWAP1 PUSH2 0x261C JUMP JUMPDEST PUSH1 0x20 PUSH1 0x40 MLOAD DUP1 DUP4 SUB DUP2 DUP7 GAS STATICCALL ISZERO DUP1 ISZERO PUSH2 0x2110 JUMPI RETURNDATASIZE PUSH1 0x0 DUP1 RETURNDATACOPY RETURNDATASIZE PUSH1 0x0 REVERT JUMPDEST POP POP POP POP PUSH1 0x40 MLOAD RETURNDATASIZE PUSH1 0x1F NOT PUSH1 0x1F DUP3 ADD AND DUP3 ADD DUP1 PUSH1 0x40 MSTORE POP DUP2 ADD SWAP1 PUSH2 0x2134 SWAP2 SWAP1 PUSH2 0x2F69 JUMP JUMPDEST PUSH2 0x2173 JUMPI PUSH1 0x40 MLOAD PUSH32 0x8C379A000000000000000000000000000000000000000000000000000000000 DUP2 MSTORE PUSH1 0x4 ADD PUSH2 0x216A SWAP1 PUSH2 0x3313 JUMP JUMPDEST PUSH1 0x40 MLOAD DUP1 SWAP2 SUB SWAP1 REVERT JUMPDEST POP POP JUMP JUMPDEST PUSH1 0x0 DUP1 DUP3 EXTCODESIZE SWAP1 POP PUSH1 0x0 DUP2 PUSH4 0xFFFFFFFF AND GT SWAP2 POP POP SWAP2 SWAP1 POP JUMP JUMPDEST PUSH1 0x40 MLOAD DUP1 PUSH1 0xE0 ADD PUSH1 0x40 MSTORE DUP1 PUSH1 0x0 DUP2 MSTORE PUSH1 0x20 ADD PUSH1 0x0 PUSH20 0xFFFFFFFFFFFFFFFFFFFFFFFFFFFFFFFFFFFFFFFF AND DUP2 MSTORE PUSH1 0x20 ADD PUSH1 0x0 DUP2 MSTORE PUSH1 0x20 ADD PUSH1 0x0 PUSH20 0xFFFFFFFFFFFFFFFFFFFFFFFFFFFFFFFFFFFFFFFF AND DUP2 MSTORE PUSH1 0x20 ADD PUSH1 0x0 PUSH20 0xFFFFFFFFFFFFFFFFFFFFFFFFFFFFFFFFFFFFFFFF AND DUP2 MSTORE PUSH1 0x20 ADD PUSH1 0x0 DUP2 MSTORE PUSH1 0x20 ADD PUSH1 0x0 PUSH1 0x1 DUP2 GT ISZERO PUSH2 0x221B JUMPI PUSH2 0x221A PUSH2 0x229C JUMP JUMPDEST JUMPDEST DUP2 MSTORE POP SWAP1 JUMP JUMPDEST PUSH1 0x0 DUP2 SWAP1 POP SWAP2 SWAP1 POP JUMP JUMPDEST PUSH2 0x2234 DUP2 PUSH2 0x2221 JUMP JUMPDEST DUP3 MSTORE POP POP JUMP JUMPDEST PUSH1 0x0 PUSH20 0xFFFFFFFFFFFFFFFFFFFFFFFFFFFFFFFFFFFFFFFF DUP3 AND SWAP1 POP SWAP2 SWAP1 POP JUMP JUMPDEST PUSH1 0x0 PUSH2 0x2265 DUP3 PUSH2 0x223A JUMP JUMPDEST SWAP1 POP SWAP2 SWAP1 POP JUMP JUMPDEST PUSH2 0x2275 DUP2 PUSH2 0x225A JUMP JUMPDEST DUP3 MSTORE POP POP JUMP JUMPDEST PUSH1 0x0 PUSH2 0x2286 DUP3 PUSH2 0x223A JUMP JUMPDEST SWAP1 POP SWAP2 SWAP1 POP JUMP JUMPDEST PUSH2 0x2296 DUP2 PUSH2 0x227B JUMP JUMPDEST DUP3 MSTORE POP POP JUMP JUMPDEST PUSH32 0x4E487B7100000000000000000000000000000000000000000000000000000000 PUSH1 0x0 MSTORE PUSH1 0x21 PUSH1 0x4 MSTORE PUSH1 0x24 PUSH1 0x0 REVERT JUMPDEST PUSH1 0x2 DUP2 LT PUSH2 0x22DC JUMPI PUSH2 0x22DB PUSH2 0x229C JUMP JUMPDEST JUMPDEST POP JUMP JUMPDEST PUSH1 0x0 DUP2 SWAP1 POP PUSH2 0x22ED DUP3 PUSH2 0x22CB JUMP JUMPDEST SWAP2 SWAP1 POP JUMP JUMPDEST PUSH1 0x0 PUSH2 0x22FD DUP3 PUSH2 0x22DF JUMP JUMPDEST SWAP1 POP SWAP2 SWAP1 POP JUMP JUMPDEST PUSH2 0x230D DUP2 PUSH2 0x22F2 JUMP JUMPDEST DUP3 MSTORE POP POP JUMP JUMPDEST PUSH1 0xE0 DUP3 ADD PUSH1 0x0 DUP3 ADD MLOAD PUSH2 0x2329 PUSH1 0x0 DUP6 ADD DUP3 PUSH2 0x222B JUMP JUMPDEST POP PUSH1 0x20 DUP3 ADD MLOAD PUSH2 0x233C PUSH1 0x20 DUP6 ADD DUP3 PUSH2 0x226C JUMP JUMPDEST POP PUSH1 0x40 DUP3 ADD MLOAD PUSH2 0x234F PUSH1 0x40 DUP6 ADD DUP3 PUSH2 0x222B JUMP JUMPDEST POP PUSH1 0x60 DUP3 ADD MLOAD PUSH2 0x2362 PUSH1 0x60 DUP6 ADD DUP3 PUSH2 0x228D JUMP JUMPDEST POP PUSH1 0x80 DUP3 ADD MLOAD PUSH2 0x2375 PUSH1 0x80 DUP6 ADD DUP3 PUSH2 0x228D JUMP JUMPDEST POP PUSH1 0xA0 DUP3 ADD MLOAD PUSH2 0x2388 PUSH1 0xA0 DUP6 ADD DUP3 PUSH2 0x222B JUMP JUMPDEST POP PUSH1 0xC0 DUP3 ADD MLOAD PUSH2 0x239B PUSH1 0xC0 DUP6 ADD DUP3 PUSH2 0x2304 JUMP JUMPDEST POP POP POP POP JUMP JUMPDEST PUSH1 0x0 PUSH1 0xE0 DUP3 ADD SWAP1 POP PUSH2 0x23B6 PUSH1 0x0 DUP4 ADD DUP5 PUSH2 0x2313 JUMP JUMPDEST SWAP3 SWAP2 POP POP JUMP JUMPDEST PUSH1 0x0 PUSH1 0x40 MLOAD SWAP1 POP SWAP1 JUMP JUMPDEST PUSH1 0x0 DUP1 REVERT JUMPDEST PUSH1 0x0 DUP1 REVERT JUMPDEST PUSH2 0x23D9 DUP2 PUSH2 0x225A JUMP JUMPDEST DUP2 EQ PUSH2 0x23E4 JUMPI PUSH1 0x0 DUP1 REVERT JUMPDEST POP JUMP JUMPDEST PUSH1 0x0 DUP2 CALLDATALOAD SWAP1 POP PUSH2 0x23F6 DUP2 PUSH2 0x23D0 JUMP JUMPDEST SWAP3 SWAP2 POP POP JUMP JUMPDEST PUSH1 0x0 PUSH1 0x20 DUP3 DUP5 SUB SLT ISZERO PUSH2 0x2412 JUMPI PUSH2 0x2411 PUSH2 0x23C6 JUMP JUMPDEST JUMPDEST PUSH1 0x0 PUSH2 0x2420 DUP5 DUP3 DUP6 ADD PUSH2 0x23E7 JUMP JUMPDEST SWAP2 POP POP SWAP3 SWAP2 POP POP JUMP JUMPDEST PUSH1 0x0 DUP2 MLOAD SWAP1 POP SWAP2 SWAP1 POP JUMP JUMPDEST PUSH1 0x0 DUP3 DUP3 MSTORE PUSH1 0x20 DUP3 ADD SWAP1 POP SWAP3 SWAP2 POP POP JUMP JUMPDEST PUSH1 0x0 DUP2 SWAP1 POP PUSH1 0x20 DUP3 ADD SWAP1 POP SWAP2 SWAP1 POP JUMP JUMPDEST PUSH1 0xE0 DUP3 ADD PUSH1 0x0 DUP3 ADD MLOAD PUSH2 0x246B PUSH1 0x0 DUP6 ADD DUP3 PUSH2 0x222B JUMP JUMPDEST POP PUSH1 0x20 DUP3 ADD MLOAD PUSH2 0x247E PUSH1 0x20 DUP6 ADD DUP3 PUSH2 0x226C JUMP JUMPDEST POP PUSH1 0x40 DUP3 ADD MLOAD PUSH2 0x2491 PUSH1 0x40 DUP6 ADD DUP3 PUSH2 0x222B JUMP JUMPDEST POP PUSH1 0x60 DUP3 ADD MLOAD PUSH2 0x24A4 PUSH1 0x60 DUP6 ADD DUP3 PUSH2 0x228D JUMP JUMPDEST POP PUSH1 0x80 DUP3 ADD MLOAD PUSH2 0x24B7 PUSH1 0x80 DUP6 ADD DUP3 PUSH2 0x228D JUMP JUMPDEST POP PUSH1 0xA0 DUP3 ADD MLOAD PUSH2 0x24CA PUSH1 0xA0 DUP6 ADD DUP3 PUSH2 0x222B JUMP JUMPDEST POP PUSH1 0xC0 DUP3 ADD MLOAD PUSH2 0x24DD PUSH1 0xC0 DUP6 ADD DUP3 PUSH2 0x2304 JUMP JUMPDEST POP POP POP POP JUMP JUMPDEST PUSH1 0x0 PUSH2 0x24EF DUP4 DUP4 PUSH2 0x2455 JUMP JUMPDEST PUSH1 0xE0 DUP4 ADD SWAP1 POP SWAP3 SWAP2 POP POP JUMP JUMPDEST PUSH1 0x0 PUSH1 0x20 DUP3 ADD SWAP1 POP SWAP2 SWAP1 POP JUMP JUMPDEST PUSH1 0x0 PUSH2 0x2513 DUP3 PUSH2 0x2429 JUMP JUMPDEST PUSH2 0x251D DUP2 DUP6 PUSH2 0x2434 JUMP JUMPDEST SWAP4 POP PUSH2 0x2528 DUP4 PUSH2 0x2445 JUMP JUMPDEST DUP1 PUSH1 0x0 JUMPDEST DUP4 DUP2 LT ISZERO PUSH2 0x2559 JUMPI DUP2 MLOAD PUSH2 0x2540 DUP9 DUP3 PUSH2 0x24E3 JUMP JUMPDEST SWAP8 POP PUSH2 0x254B DUP4 PUSH2 0x24FB JUMP JUMPDEST SWAP3 POP POP PUSH1 0x1 DUP2 ADD SWAP1 POP PUSH2 0x252C JUMP JUMPDEST POP DUP6 SWAP4 POP POP POP POP SWAP3 SWAP2 POP POP JUMP JUMPDEST PUSH1 0x0 PUSH1 0x20 DUP3 ADD SWAP1 POP DUP2 DUP2 SUB PUSH1 0x0 DUP4 ADD MSTORE PUSH2 0x2580 DUP2 DUP5 PUSH2 0x2508 JUMP JUMPDEST SWAP1 POP SWAP3 SWAP2 POP POP JUMP JUMPDEST PUSH2 0x2591 DUP2 PUSH2 0x2221 JUMP JUMPDEST DUP2 EQ PUSH2 0x259C JUMPI PUSH1 0x0 DUP1 REVERT JUMPDEST POP JUMP JUMPDEST PUSH1 0x0 DUP2 CALLDATALOAD SWAP1 POP PUSH2 0x25AE DUP2 PUSH2 0x2588 JUMP JUMPDEST SWAP3 SWAP2 POP POP JUMP JUMPDEST PUSH1 0x0 PUSH1 0x20 DUP3 DUP5 SUB SLT ISZERO PUSH2 0x25CA JUMPI PUSH2 0x25C9 PUSH2 0x23C6 JUMP JUMPDEST JUMPDEST PUSH1 0x0 PUSH2 0x25D8 DUP5 DUP3 DUP6 ADD PUSH2 0x259F JUMP JUMPDEST SWAP2 POP POP SWAP3 SWAP2 POP POP JUMP JUMPDEST PUSH1 0x0 PUSH32 0xFFFFFFFF00000000000000000000000000000000000000000000000000000000 DUP3 AND SWAP1 POP SWAP2 SWAP1 POP JUMP JUMPDEST PUSH2 0x2616 DUP2 PUSH2 0x25E1 JUMP JUMPDEST DUP3 MSTORE POP POP JUMP JUMPDEST PUSH1 0x0 PUSH1 0x20 DUP3 ADD SWAP1 POP PUSH2 0x2631 PUSH1 0x0 DUP4 ADD DUP5 PUSH2 0x260D JUMP JUMPDEST SWAP3 SWAP2 POP POP JUMP JUMPDEST PUSH1 0x0 DUP2 SWAP1 POP SWAP2 SWAP1 POP JUMP JUMPDEST PUSH1 0x0 PUSH2 0x265C PUSH2 0x2657 PUSH2 0x2652 DUP5 PUSH2 0x223A JUMP JUMPDEST PUSH2 0x2637 JUMP JUMPDEST PUSH2 0x223A JUMP JUMPDEST SWAP1 POP SWAP2 SWAP1 POP JUMP JUMPDEST PUSH1 0x0 PUSH2 0x266E DUP3 PUSH2 0x2641 JUMP JUMPDEST SWAP1 POP SWAP2 SWAP1 POP JUMP JUMPDEST PUSH1 0x0 PUSH2 0x2680 DUP3 PUSH2 0x2663 JUMP JUMPDEST SWAP1 POP SWAP2 SWAP1 POP JUMP JUMPDEST PUSH2 0x2690 DUP2 PUSH2 0x2675 JUMP JUMPDEST DUP3 MSTORE POP POP JUMP JUMPDEST PUSH1 0x0 PUSH1 0x20 DUP3 ADD SWAP1 POP PUSH2 0x26AB PUSH1 0x0 DUP4 ADD DUP5 PUSH2 0x2687 JUMP JUMPDEST SWAP3 SWAP2 POP POP JUMP JUMPDEST PUSH2 0x26BA DUP2 PUSH2 0x2221 JUMP JUMPDEST DUP3 MSTORE POP POP JUMP JUMPDEST PUSH2 0x26C9 DUP2 PUSH2 0x225A JUMP JUMPDEST DUP3 MSTORE POP POP JUMP JUMPDEST PUSH2 0x26D8 DUP2 PUSH2 0x227B JUMP JUMPDEST DUP3 MSTORE POP POP JUMP JUMPDEST PUSH2 0x26E7 DUP2 PUSH2 0x22F2 JUMP JUMPDEST DUP3 MSTORE POP POP JUMP JUMPDEST PUSH1 0x0 PUSH1 0xE0 DUP3 ADD SWAP1 POP PUSH2 0x2702 PUSH1 0x0 DUP4 ADD DUP11 PUSH2 0x26B1 JUMP JUMPDEST PUSH2 0x270F PUSH1 0x20 DUP4 ADD DUP10 PUSH2 0x26C0 JUMP JUMPDEST PUSH2 0x271C PUSH1 0x40 DUP4 ADD DUP9 PUSH2 0x26B1 JUMP JUMPDEST PUSH2 0x2729 PUSH1 0x60 DUP4 ADD DUP8 PUSH2 0x26CF JUMP JUMPDEST PUSH2 0x2736 PUSH1 0x80 DUP4 ADD DUP7 PUSH2 0x26CF JUMP JUMPDEST PUSH2 0x2743 PUSH1 0xA0 DUP4 ADD DUP6 PUSH2 0x26B1 JUMP JUMPDEST PUSH2 0x2750 PUSH1 0xC0 DUP4 ADD DUP5 PUSH2 0x26DE JUMP JUMPDEST SWAP9 SWAP8 POP POP POP POP POP POP POP POP JUMP JUMPDEST PUSH1 0x0 DUP1 PUSH1 0x0 PUSH1 0x60 DUP5 DUP7 SUB SLT ISZERO PUSH2 0x2775 JUMPI PUSH2 0x2774 PUSH2 0x23C6 JUMP JUMPDEST JUMPDEST PUSH1 0x0 PUSH2 0x2783 DUP7 DUP3 DUP8 ADD PUSH2 0x23E7 JUMP JUMPDEST SWAP4 POP POP PUSH1 0x20 PUSH2 0x2794 DUP7 DUP3 DUP8 ADD PUSH2 0x259F JUMP JUMPDEST SWAP3 POP POP PUSH1 0x40 PUSH2 0x27A5 DUP7 DUP3 DUP8 ADD PUSH2 0x259F JUMP JUMPDEST SWAP2 POP POP SWAP3 POP SWAP3 POP SWAP3 JUMP JUMPDEST PUSH1 0x0 DUP1 PUSH1 0x40 DUP4 DUP6 SUB SLT ISZERO PUSH2 0x27C6 JUMPI PUSH2 0x27C5 PUSH2 0x23C6 JUMP JUMPDEST JUMPDEST PUSH1 0x0 PUSH2 0x27D4 DUP6 DUP3 DUP7 ADD PUSH2 0x23E7 JUMP JUMPDEST SWAP3 POP POP PUSH1 0x20 PUSH2 0x27E5 DUP6 DUP3 DUP7 ADD PUSH2 0x259F JUMP JUMPDEST SWAP2 POP POP SWAP3 POP SWAP3 SWAP1 POP JUMP JUMPDEST PUSH1 0x0 PUSH1 0xFF DUP3 AND SWAP1 POP SWAP2 SWAP1 POP JUMP JUMPDEST PUSH2 0x2805 DUP2 PUSH2 0x27EF JUMP JUMPDEST DUP3 MSTORE POP POP JUMP JUMPDEST PUSH1 0x0 PUSH1 0x20 DUP3 ADD SWAP1 POP PUSH2 0x2820 PUSH1 0x0 DUP4 ADD DUP5 PUSH2 0x27FC JUMP JUMPDEST SWAP3 SWAP2 POP POP JUMP JUMPDEST PUSH1 0x0 PUSH1 0x20 DUP3 ADD SWAP1 POP PUSH2 0x283B PUSH1 0x0 DUP4 ADD DUP5 PUSH2 0x26C0 JUMP JUMPDEST SWAP3 SWAP2 POP POP JUMP JUMPDEST PUSH1 0x0 DUP1 PUSH1 0x40 DUP4 DUP6 SUB SLT ISZERO PUSH2 0x2858 JUMPI PUSH2 0x2857 PUSH2 0x23C6 JUMP JUMPDEST JUMPDEST PUSH1 0x0 PUSH2 0x2866 DUP6 DUP3 DUP7 ADD PUSH2 0x259F JUMP JUMPDEST SWAP3 POP POP PUSH1 0x20 PUSH2 0x2877 DUP6 DUP3 DUP7 ADD PUSH2 0x259F JUMP JUMPDEST SWAP2 POP POP SWAP3 POP SWAP3 SWAP1 POP JUMP JUMPDEST PUSH1 0x0 PUSH2 0x288C DUP3 PUSH2 0x2663 JUMP JUMPDEST SWAP1 POP SWAP2 SWAP1 POP JUMP JUMPDEST PUSH2 0x289C DUP2 PUSH2 0x2881 JUMP JUMPDEST DUP3 MSTORE POP POP JUMP JUMPDEST PUSH1 0x0 PUSH1 0x20 DUP3 ADD SWAP1 POP PUSH2 0x28B7 PUSH1 0x0 DUP4 ADD DUP5 PUSH2 0x2893 JUMP JUMPDEST SWAP3 SWAP2 POP POP JUMP JUMPDEST PUSH1 0x0 PUSH2 0x28C8 DUP3 PUSH2 0x2663 JUMP JUMPDEST SWAP1 POP SWAP2 SWAP1 POP JUMP JUMPDEST PUSH2 0x28D8 DUP2 PUSH2 0x28BD JUMP JUMPDEST DUP3 MSTORE POP POP JUMP JUMPDEST PUSH1 0x0 PUSH1 0x20 DUP3 ADD SWAP1 POP PUSH2 0x28F3 PUSH1 0x0 DUP4 ADD DUP5 PUSH2 0x28CF JUMP JUMPDEST SWAP3 SWAP2 POP POP JUMP JUMPDEST PUSH1 0x0 DUP3 DUP3 MSTORE PUSH1 0x20 DUP3 ADD SWAP1 POP SWAP3 SWAP2 POP POP JUMP JUMPDEST PUSH32 0x4F776E61626C653A2063616C6C6572206973206E6F7420746865206F776E6572 PUSH1 0x0 DUP3 ADD MSTORE POP JUMP JUMPDEST PUSH1 0x0 PUSH2 0x2940 PUSH1 0x20 DUP4 PUSH2 0x28F9 JUMP JUMPDEST SWAP2 POP PUSH2 0x294B DUP3 PUSH2 0x290A JUMP JUMPDEST PUSH1 0x20 DUP3 ADD SWAP1 POP SWAP2 SWAP1 POP JUMP JUMPDEST PUSH1 0x0 PUSH1 0x20 DUP3 ADD SWAP1 POP DUP2 DUP2 SUB PUSH1 0x0 DUP4 ADD MSTORE PUSH2 0x296F DUP2 PUSH2 0x2933 JUMP JUMPDEST SWAP1 POP SWAP2 SWAP1 POP JUMP JUMPDEST PUSH32 0x4E487B7100000000000000000000000000000000000000000000000000000000 PUSH1 0x0 MSTORE PUSH1 0x11 PUSH1 0x4 MSTORE PUSH1 0x24 PUSH1 0x0 REVERT JUMPDEST PUSH1 0x0 PUSH2 0x29B0 DUP3 PUSH2 0x2221 JUMP JUMPDEST SWAP2 POP PUSH2 0x29BB DUP4 PUSH2 0x2221 JUMP JUMPDEST SWAP3 POP DUP3 PUSH32 0xFFFFFFFFFFFFFFFFFFFFFFFFFFFFFFFFFFFFFFFFFFFFFFFFFFFFFFFFFFFFFFFF SUB DUP3 GT ISZERO PUSH2 0x29F0 JUMPI PUSH2 0x29EF PUSH2 0x2976 JUMP JUMPDEST JUMPDEST DUP3 DUP3 ADD SWAP1 POP SWAP3 SWAP2 POP POP JUMP JUMPDEST PUSH1 0x0 PUSH2 0x2A06 DUP3 PUSH2 0x2221 JUMP JUMPDEST SWAP2 POP PUSH32 0xFFFFFFFFFFFFFFFFFFFFFFFFFFFFFFFFFFFFFFFFFFFFFFFFFFFFFFFFFFFFFFFF DUP3 SUB PUSH2 0x2A38 JUMPI PUSH2 0x2A37 PUSH2 0x2976 JUMP JUMPDEST JUMPDEST PUSH1 0x1 DUP3 ADD SWAP1 POP SWAP2 SWAP1 POP JUMP JUMPDEST PUSH32 0x4E487B7100000000000000000000000000000000000000000000000000000000 PUSH1 0x0 MSTORE PUSH1 0x41 PUSH1 0x4 MSTORE PUSH1 0x24 PUSH1 0x0 REVERT JUMPDEST PUSH32 0x4E487B7100000000000000000000000000000000000000000000000000000000 PUSH1 0x0 MSTORE PUSH1 0x32 PUSH1 0x4 MSTORE PUSH1 0x24 PUSH1 0x0 REVERT JUMPDEST PUSH32 0x5265656E7472616E637947756172643A207265656E7472616E742063616C6C00 PUSH1 0x0 DUP3 ADD MSTORE POP JUMP JUMPDEST PUSH1 0x0 PUSH2 0x2AD7 PUSH1 0x1F DUP4 PUSH2 0x28F9 JUMP JUMPDEST SWAP2 POP PUSH2 0x2AE2 DUP3 PUSH2 0x2AA1 JUMP JUMPDEST PUSH1 0x20 DUP3 ADD SWAP1 POP SWAP2 SWAP1 POP JUMP JUMPDEST PUSH1 0x0 PUSH1 0x20 DUP3 ADD SWAP1 POP DUP2 DUP2 SUB PUSH1 0x0 DUP4 ADD MSTORE PUSH2 0x2B06 DUP2 PUSH2 0x2ACA JUMP JUMPDEST SWAP1 POP SWAP2 SWAP1 POP JUMP JUMPDEST PUSH32 0x5072696365206D757374206265206174206C6561737420312077656900000000 PUSH1 0x0 DUP3 ADD MSTORE POP JUMP JUMPDEST PUSH1 0x0 PUSH2 0x2B43 PUSH1 0x1C DUP4 PUSH2 0x28F9 JUMP JUMPDEST SWAP2 POP PUSH2 0x2B4E DUP3 PUSH2 0x2B0D JUMP JUMPDEST PUSH1 0x20 DUP3 ADD SWAP1 POP SWAP2 SWAP1 POP JUMP JUMPDEST PUSH1 0x0 PUSH1 0x20 DUP3 ADD SWAP1 POP DUP2 DUP2 SUB PUSH1 0x0 DUP4 ADD MSTORE PUSH2 0x2B72 DUP2 PUSH2 0x2B36 JUMP JUMPDEST SWAP1 POP SWAP2 SWAP1 POP JUMP JUMPDEST PUSH1 0x0 PUSH1 0x20 DUP3 ADD SWAP1 POP PUSH2 0x2B8E PUSH1 0x0 DUP4 ADD DUP5 PUSH2 0x26B1 JUMP JUMPDEST SWAP3 SWAP2 POP POP JUMP JUMPDEST PUSH1 0x0 DUP1 REVERT JUMPDEST PUSH1 0x0 PUSH1 0x1F NOT PUSH1 0x1F DUP4 ADD AND SWAP1 POP SWAP2 SWAP1 POP JUMP JUMPDEST PUSH2 0x2BB3 DUP3 PUSH2 0x2B99 JUMP JUMPDEST DUP2 ADD DUP2 DUP2 LT PUSH8 0xFFFFFFFFFFFFFFFF DUP3 GT OR ISZERO PUSH2 0x2BD2 JUMPI PUSH2 0x2BD1 PUSH2 0x2A43 JUMP JUMPDEST JUMPDEST DUP1 PUSH1 0x40 MSTORE POP POP POP JUMP JUMPDEST PUSH1 0x0 PUSH2 0x2BE5 PUSH2 0x23BC JUMP JUMPDEST SWAP1 POP PUSH2 0x2BF1 DUP3 DUP3 PUSH2 0x2BAA JUMP JUMPDEST SWAP2 SWAP1 POP JUMP JUMPDEST PUSH1 0x0 DUP1 REVERT JUMPDEST PUSH1 0x0 DUP2 MLOAD SWAP1 POP PUSH2 0x2C0A DUP2 PUSH2 0x2588 JUMP JUMPDEST SWAP3 SWAP2 POP POP JUMP JUMPDEST PUSH1 0x0 DUP2 MLOAD SWAP1 POP PUSH2 0x2C1F DUP2 PUSH2 0x23D0 JUMP JUMPDEST SWAP3 SWAP2 POP POP JUMP JUMPDEST PUSH1 0x0 DUP1 REVERT JUMPDEST PUSH1 0x0 DUP1 REVERT JUMPDEST PUSH1 0x0 PUSH8 0xFFFFFFFFFFFFFFFF DUP3 GT ISZERO PUSH2 0x2C4A JUMPI PUSH2 0x2C49 PUSH2 0x2A43 JUMP JUMPDEST JUMPDEST PUSH2 0x2C53 DUP3 PUSH2 0x2B99 JUMP JUMPDEST SWAP1 POP PUSH1 0x20 DUP2 ADD SWAP1 POP SWAP2 SWAP1 POP JUMP JUMPDEST PUSH1 0x0 JUMPDEST DUP4 DUP2 LT ISZERO PUSH2 0x2C7E JUMPI DUP1 DUP3 ADD MLOAD DUP2 DUP5 ADD MSTORE PUSH1 0x20 DUP2 ADD SWAP1 POP PUSH2 0x2C63 JUMP JUMPDEST DUP4 DUP2 GT ISZERO PUSH2 0x2C8D JUMPI PUSH1 0x0 DUP5 DUP5 ADD MSTORE JUMPDEST POP POP POP POP JUMP JUMPDEST PUSH1 0x0 PUSH2 0x2CA6 PUSH2 0x2CA1 DUP5 PUSH2 0x2C2F JUMP JUMPDEST PUSH2 0x2BDB JUMP JUMPDEST SWAP1 POP DUP3 DUP2 MSTORE PUSH1 0x20 DUP2 ADD DUP5 DUP5 DUP5 ADD GT ISZERO PUSH2 0x2CC2 JUMPI PUSH2 0x2CC1 PUSH2 0x2C2A JUMP JUMPDEST JUMPDEST PUSH2 0x2CCD DUP5 DUP3 DUP6 PUSH2 0x2C60 JUMP JUMPDEST POP SWAP4 SWAP3 POP POP POP JUMP JUMPDEST PUSH1 0x0 DUP3 PUSH1 0x1F DUP4 ADD SLT PUSH2 0x2CEA JUMPI PUSH2 0x2CE9 PUSH2 0x2C25 JUMP JUMPDEST JUMPDEST DUP2 MLOAD PUSH2 0x2CFA DUP5 DUP3 PUSH1 0x20 DUP7 ADD PUSH2 0x2C93 JUMP JUMPDEST SWAP2 POP POP SWAP3 SWAP2 POP POP JUMP JUMPDEST PUSH1 0x0 DUP2 ISZERO ISZERO SWAP1 POP SWAP2 SWAP1 POP JUMP JUMPDEST PUSH2 0x2D18 DUP2 PUSH2 0x2D03 JUMP JUMPDEST DUP2 EQ PUSH2 0x2D23 JUMPI PUSH1 0x0 DUP1 REVERT JUMPDEST POP JUMP JUMPDEST PUSH1 0x0 DUP2 MLOAD SWAP1 POP PUSH2 0x2D35 DUP2 PUSH2 0x2D0F JUMP JUMPDEST SWAP3 SWAP2 POP POP JUMP JUMPDEST PUSH1 0x0 PUSH1 0xA0 DUP3 DUP5 SUB SLT ISZERO PUSH2 0x2D51 JUMPI PUSH2 0x2D50 PUSH2 0x2B94 JUMP JUMPDEST JUMPDEST PUSH2 0x2D5B PUSH1 0xA0 PUSH2 0x2BDB JUMP JUMPDEST SWAP1 POP PUSH1 0x0 PUSH2 0x2D6B DUP5 DUP3 DUP6 ADD PUSH2 0x2BFB JUMP JUMPDEST PUSH1 0x0 DUP4 ADD MSTORE POP PUSH1 0x20 PUSH2 0x2D7F DUP5 DUP3 DUP6 ADD PUSH2 0x2C10 JUMP JUMPDEST PUSH1 0x20 DUP4 ADD MSTORE POP PUSH1 0x40 DUP3 ADD MLOAD PUSH8 0xFFFFFFFFFFFFFFFF DUP2 GT ISZERO PUSH2 0x2DA3 JUMPI PUSH2 0x2DA2 PUSH2 0x2BF6 JUMP JUMPDEST JUMPDEST PUSH2 0x2DAF DUP5 DUP3 DUP6 ADD PUSH2 0x2CD5 JUMP JUMPDEST PUSH1 0x40 DUP4 ADD MSTORE POP PUSH1 0x60 DUP3 ADD MLOAD PUSH8 0xFFFFFFFFFFFFFFFF DUP2 GT ISZERO PUSH2 0x2DD3 JUMPI PUSH2 0x2DD2 PUSH2 0x2BF6 JUMP JUMPDEST JUMPDEST PUSH2 0x2DDF DUP5 DUP3 DUP6 ADD PUSH2 0x2CD5 JUMP JUMPDEST PUSH1 0x60 DUP4 ADD MSTORE POP PUSH1 0x80 PUSH2 0x2DF3 DUP5 DUP3 DUP6 ADD PUSH2 0x2D26 JUMP JUMPDEST PUSH1 0x80 DUP4 ADD MSTORE POP SWAP3 SWAP2 POP POP JUMP JUMPDEST PUSH1 0x0 PUSH1 0x20 DUP3 DUP5 SUB SLT ISZERO PUSH2 0x2E15 JUMPI PUSH2 0x2E14 PUSH2 0x23C6 JUMP JUMPDEST JUMPDEST PUSH1 0x0 DUP3 ADD MLOAD PUSH8 0xFFFFFFFFFFFFFFFF DUP2 GT ISZERO PUSH2 0x2E33 JUMPI PUSH2 0x2E32 PUSH2 0x23CB JUMP JUMPDEST JUMPDEST PUSH2 0x2E3F DUP5 DUP3 DUP6 ADD PUSH2 0x2D3B JUMP JUMPDEST SWAP2 POP POP SWAP3 SWAP2 POP POP JUMP JUMPDEST PUSH1 0x0 PUSH1 0x60 DUP3 ADD SWAP1 POP PUSH2 0x2E5D PUSH1 0x0 DUP4 ADD DUP7 PUSH2 0x26C0 JUMP JUMPDEST PUSH2 0x2E6A PUSH1 0x20 DUP4 ADD DUP6 PUSH2 0x26C0 JUMP JUMPDEST PUSH2 0x2E77 PUSH1 0x40 DUP4 ADD DUP5 PUSH2 0x26B1 JUMP JUMPDEST SWAP5 SWAP4 POP POP POP POP JUMP JUMPDEST PUSH32 0x506C65617365207375626D6974207468652061736B696E672070726963652069 PUSH1 0x0 DUP3 ADD MSTORE PUSH32 0x6E206F7264657220746F20636F6D706C65746520746865207075726368617365 PUSH1 0x20 DUP3 ADD MSTORE POP JUMP JUMPDEST PUSH1 0x0 PUSH2 0x2EDB PUSH1 0x40 DUP4 PUSH2 0x28F9 JUMP JUMPDEST SWAP2 POP PUSH2 0x2EE6 DUP3 PUSH2 0x2E7F JUMP JUMPDEST PUSH1 0x40 DUP3 ADD SWAP1 POP SWAP2 SWAP1 POP JUMP JUMPDEST PUSH1 0x0 PUSH1 0x20 DUP3 ADD SWAP1 POP DUP2 DUP2 SUB PUSH1 0x0 DUP4 ADD MSTORE PUSH2 0x2F0A DUP2 PUSH2 0x2ECE JUMP JUMPDEST SWAP1 POP SWAP2 SWAP1 POP JUMP JUMPDEST PUSH1 0x0 PUSH2 0x2F1C DUP3 PUSH2 0x2663 JUMP JUMPDEST SWAP1 POP SWAP2 SWAP1 POP JUMP JUMPDEST PUSH2 0x2F2C DUP2 PUSH2 0x2F11 JUMP JUMPDEST DUP3 MSTORE POP POP JUMP JUMPDEST PUSH1 0x0 PUSH1 0x60 DUP3 ADD SWAP1 POP PUSH2 0x2F47 PUSH1 0x0 DUP4 ADD DUP7 PUSH2 0x26C0 JUMP JUMPDEST PUSH2 0x2F54 PUSH1 0x20 DUP4 ADD DUP6 PUSH2 0x2F23 JUMP JUMPDEST PUSH2 0x2F61 PUSH1 0x40 DUP4 ADD DUP5 PUSH2 0x26B1 JUMP JUMPDEST SWAP5 SWAP4 POP POP POP POP JUMP JUMPDEST PUSH1 0x0 PUSH1 0x20 DUP3 DUP5 SUB SLT ISZERO PUSH2 0x2F7F JUMPI PUSH2 0x2F7E PUSH2 0x23C6 JUMP JUMPDEST JUMPDEST PUSH1 0x0 PUSH2 0x2F8D DUP5 DUP3 DUP6 ADD PUSH2 0x2D26 JUMP JUMPDEST SWAP2 POP POP SWAP3 SWAP2 POP POP JUMP JUMPDEST PUSH32 0x4173736574206E6F74207075626C697368656400000000000000000000000000 PUSH1 0x0 DUP3 ADD MSTORE POP JUMP JUMPDEST PUSH1 0x0 PUSH2 0x2FCC PUSH1 0x13 DUP4 PUSH2 0x28F9 JUMP JUMPDEST SWAP2 POP PUSH2 0x2FD7 DUP3 PUSH2 0x2F96 JUMP JUMPDEST PUSH1 0x20 DUP3 ADD SWAP1 POP SWAP2 SWAP1 POP JUMP JUMPDEST PUSH1 0x0 PUSH1 0x20 DUP3 ADD SWAP1 POP DUP2 DUP2 SUB PUSH1 0x0 DUP4 ADD MSTORE PUSH2 0x2FFB DUP2 PUSH2 0x2FBF JUMP JUMPDEST SWAP1 POP SWAP2 SWAP1 POP JUMP JUMPDEST PUSH32 0x41737365742064656C6973746564000000000000000000000000000000000000 PUSH1 0x0 DUP3 ADD MSTORE POP JUMP JUMPDEST PUSH1 0x0 PUSH2 0x3038 PUSH1 0xE DUP4 PUSH2 0x28F9 JUMP JUMPDEST SWAP2 POP PUSH2 0x3043 DUP3 PUSH2 0x3002 JUMP JUMPDEST PUSH1 0x20 DUP3 ADD SWAP1 POP SWAP2 SWAP1 POP JUMP JUMPDEST PUSH1 0x0 PUSH1 0x20 DUP3 ADD SWAP1 POP DUP2 DUP2 SUB PUSH1 0x0 DUP4 ADD MSTORE PUSH2 0x3067 DUP2 PUSH2 0x302B JUMP JUMPDEST SWAP1 POP SWAP2 SWAP1 POP JUMP JUMPDEST PUSH32 0x496E76616C696420616464726573730000000000000000000000000000000000 PUSH1 0x0 DUP3 ADD MSTORE POP JUMP JUMPDEST PUSH1 0x0 PUSH2 0x30A4 PUSH1 0xF DUP4 PUSH2 0x28F9 JUMP JUMPDEST SWAP2 POP PUSH2 0x30AF DUP3 PUSH2 0x306E JUMP JUMPDEST PUSH1 0x20 DUP3 ADD SWAP1 POP SWAP2 SWAP1 POP JUMP JUMPDEST PUSH1 0x0 PUSH1 0x20 DUP3 ADD SWAP1 POP DUP2 DUP2 SUB PUSH1 0x0 DUP4 ADD MSTORE PUSH2 0x30D3 DUP2 PUSH2 0x3097 JUMP JUMPDEST SWAP1 POP SWAP2 SWAP1 POP JUMP JUMPDEST PUSH32 0x4F6E6C792073656C6C65722063616E2064656C69737400000000000000000000 PUSH1 0x0 DUP3 ADD MSTORE POP JUMP JUMPDEST PUSH1 0x0 PUSH2 0x3110 PUSH1 0x16 DUP4 PUSH2 0x28F9 JUMP JUMPDEST SWAP2 POP PUSH2 0x311B DUP3 PUSH2 0x30DA JUMP JUMPDEST PUSH1 0x20 DUP3 ADD SWAP1 POP SWAP2 SWAP1 POP JUMP JUMPDEST PUSH1 0x0 PUSH1 0x20 DUP3 ADD SWAP1 POP DUP2 DUP2 SUB PUSH1 0x0 DUP4 ADD MSTORE PUSH2 0x313F DUP2 PUSH2 0x3103 JUMP JUMPDEST SWAP1 POP SWAP2 SWAP1 POP JUMP JUMPDEST PUSH1 0x0 PUSH1 0x60 DUP3 ADD SWAP1 POP PUSH2 0x315B PUSH1 0x0 DUP4 ADD DUP7 PUSH2 0x26C0 JUMP JUMPDEST PUSH2 0x3168 PUSH1 0x20 DUP4 ADD DUP6 PUSH2 0x26B1 JUMP JUMPDEST PUSH2 0x3175 PUSH1 0x40 DUP4 ADD DUP5 PUSH2 0x26B1 JUMP JUMPDEST SWAP5 SWAP4 POP POP POP POP JUMP JUMPDEST PUSH32 0x4F776E61626C653A206E6577206F776E657220697320746865207A65726F2061 PUSH1 0x0 DUP3 ADD MSTORE PUSH32 0x6464726573730000000000000000000000000000000000000000000000000000 PUSH1 0x20 DUP3 ADD MSTORE POP JUMP JUMPDEST PUSH1 0x0 PUSH2 0x31D9 PUSH1 0x26 DUP4 PUSH2 0x28F9 JUMP JUMPDEST SWAP2 POP PUSH2 0x31E4 DUP3 PUSH2 0x317D JUMP JUMPDEST PUSH1 0x40 DUP3 ADD SWAP1 POP SWAP2 SWAP1 POP JUMP JUMPDEST PUSH1 0x0 PUSH1 0x20 DUP3 ADD SWAP1 POP DUP2 DUP2 SUB PUSH1 0x0 DUP4 ADD MSTORE PUSH2 0x3208 DUP2 PUSH2 0x31CC JUMP JUMPDEST SWAP1 POP SWAP2 SWAP1 POP JUMP JUMPDEST PUSH32 0x546865204E465420416464726573732073686F756C64206265206120636F6E74 PUSH1 0x0 DUP3 ADD MSTORE PUSH32 0x7261637400000000000000000000000000000000000000000000000000000000 PUSH1 0x20 DUP3 ADD MSTORE POP JUMP JUMPDEST PUSH1 0x0 PUSH2 0x326B PUSH1 0x24 DUP4 PUSH2 0x28F9 JUMP JUMPDEST SWAP2 POP PUSH2 0x3276 DUP3 PUSH2 0x320F JUMP JUMPDEST PUSH1 0x40 DUP3 ADD SWAP1 POP SWAP2 SWAP1 POP JUMP JUMPDEST PUSH1 0x0 PUSH1 0x20 DUP3 ADD SWAP1 POP DUP2 DUP2 SUB PUSH1 0x0 DUP4 ADD MSTORE PUSH2 0x329A DUP2 PUSH2 0x325E JUMP JUMPDEST SWAP1 POP SWAP2 SWAP1 POP JUMP JUMPDEST PUSH32 0x546865204E465420636F6E74726163742068617320616E20696E76616C696420 PUSH1 0x0 DUP3 ADD MSTORE PUSH32 0x45524337323120696D706C656D656E746174696F6E0000000000000000000000 PUSH1 0x20 DUP3 ADD MSTORE POP JUMP JUMPDEST PUSH1 0x0 PUSH2 0x32FD PUSH1 0x35 DUP4 PUSH2 0x28F9 JUMP JUMPDEST SWAP2 POP PUSH2 0x3308 DUP3 PUSH2 0x32A1 JUMP JUMPDEST PUSH1 0x40 DUP3 ADD SWAP1 POP SWAP2 SWAP1 POP JUMP JUMPDEST PUSH1 0x0 PUSH1 0x20 DUP3 ADD SWAP1 POP DUP2 DUP2 SUB PUSH1 0x0 DUP4 ADD MSTORE PUSH2 0x332C DUP2 PUSH2 0x32F0 JUMP JUMPDEST SWAP1 POP SWAP2 SWAP1 POP JUMP INVALID LOG2 PUSH5 0x6970667358 0x22 SLT KECCAK256 SWAP6 0xE3 0x2D DUP14 PUSH10 0x6552C323FAC369520F64 SWAP16 0x21 0xB3 PUSH8 0xC1E1935DEAF0B580 SLOAD PUSH10 0x335C9E64736F6C634300 ADDMOD 0xD STOP CALLER "
				},
				"gasEstimates": {
					"creation": {
						"codeDepositCost": "2632200",
						"executionCost": "infinite",
						"totalCost": "infinite"
					},
					"external": {
						"ERC721_Interface()": "364",
						"allItems(uint256)": "infinite",
						"allMarketItems()": "infinite",
						"antaFeePercent()": "2543",
						"bnbFeePercent()": "2566",
						"createMarketItem(address,uint256,uint256)": "infinite",
						"createMarketSale(uint256,uint256)": "infinite",
						"delistItem(address,uint256)": "infinite",
						"factory()": "infinite",
						"fetchMarketItem(uint256)": "infinite",
						"fetchMarketItems()": "infinite",
						"fetchMyNFTs()": "infinite",
						"getMarketItem(uint256)": "infinite",
						"items(address,uint256)": "infinite",
						"mainNFTs()": "infinite",
						"mainToken()": "infinite",
						"owner()": "2589",
						"renounceOwnership()": "30397",
						"setFactory(address)": "27073",
						"setMainNFT(address)": "27008",
						"setMainToken(address)": "27052",
						"transferOwnership(address)": "30808"
					},
					"internal": {
						"_requireERC721(address)": "infinite",
						"isContract(address)": "2653"
					}
				},
				"methodIdentifiers": {
					"ERC721_Interface()": "2b4c32be",
					"allItems(uint256)": "ff68fa6e",
					"allMarketItems()": "517bd451",
					"antaFeePercent()": "b7a60c7e",
					"bnbFeePercent()": "85a8b36c",
					"createMarketItem(address,uint256,uint256)": "58eb2df5",
					"createMarketSale(uint256,uint256)": "a1c11ca8",
					"delistItem(address,uint256)": "ad9a0369",
					"factory()": "c45a0155",
					"fetchMarketItem(uint256)": "2a45b250",
					"fetchMarketItems()": "0f08efe0",
					"fetchMyNFTs()": "202e3740",
					"getMarketItem(uint256)": "c7be7a49",
					"items(address,uint256)": "5c80a435",
					"mainNFTs()": "f55de0c7",
					"mainToken()": "3fc15f15",
					"owner()": "8da5cb5b",
					"renounceOwnership()": "715018a6",
					"setFactory(address)": "5bb47808",
					"setMainNFT(address)": "15b12494",
					"setMainToken(address)": "27ce464e",
					"transferOwnership(address)": "f2fde38b"
				}
			},
			"storageLayout": {
				"storage": [
					{
						"astId": 409,
						"contract": "contracts/Marketplace2/Marketplace.sol:NFTMarket",
						"label": "_status",
						"offset": 0,
						"slot": "0",
						"type": "t_uint256"
					},
					{
						"astId": 491,
						"contract": "contracts/Marketplace2/Marketplace.sol:NFTMarket",
						"label": "allMarketItems",
						"offset": 0,
						"slot": "1",
						"type": "t_struct(MarketItem)488_storage"
					},
					{
						"astId": 502,
						"contract": "contracts/Marketplace2/Marketplace.sol:NFTMarket",
						"label": "allItems",
						"offset": 0,
						"slot": "8",
						"type": "t_mapping(t_uint256,t_struct(MarketItem)488_storage)"
					},
					{
						"astId": 509,
						"contract": "contracts/Marketplace2/Marketplace.sol:NFTMarket",
						"label": "items",
						"offset": 0,
						"slot": "9",
						"type": "t_mapping(t_address,t_mapping(t_uint256,t_struct(MarketItem)488_storage))"
					},
					{
						"astId": 512,
						"contract": "contracts/Marketplace2/Marketplace.sol:NFTMarket",
						"label": "mainToken",
						"offset": 0,
						"slot": "10",
						"type": "t_contract(IERC20)201"
					},
					{
						"astId": 515,
						"contract": "contracts/Marketplace2/Marketplace.sol:NFTMarket",
						"label": "factory",
						"offset": 0,
						"slot": "11",
						"type": "t_contract(IFactory)468"
					},
					{
						"astId": 518,
						"contract": "contracts/Marketplace2/Marketplace.sol:NFTMarket",
						"label": "mainNFTs",
						"offset": 0,
						"slot": "12",
						"type": "t_contract(IERC721)326"
					},
					{
						"astId": 520,
						"contract": "contracts/Marketplace2/Marketplace.sol:NFTMarket",
						"label": "bnbFeePercent",
						"offset": 20,
						"slot": "12",
						"type": "t_uint8"
					},
					{
						"astId": 522,
						"contract": "contracts/Marketplace2/Marketplace.sol:NFTMarket",
						"label": "antaFeePercent",
						"offset": 21,
						"slot": "12",
						"type": "t_uint8"
					},
					{
						"astId": 27,
						"contract": "contracts/Marketplace2/Marketplace.sol:NFTMarket",
						"label": "_owner",
						"offset": 0,
						"slot": "13",
						"type": "t_address"
					},
					{
						"astId": 600,
						"contract": "contracts/Marketplace2/Marketplace.sol:NFTMarket",
						"label": "_itemIds",
						"offset": 0,
						"slot": "14",
						"type": "t_struct(Counter)331_storage"
					},
					{
						"astId": 603,
						"contract": "contracts/Marketplace2/Marketplace.sol:NFTMarket",
						"label": "_itemsSold",
						"offset": 0,
						"slot": "15",
						"type": "t_struct(Counter)331_storage"
					},
					{
						"astId": 608,
						"contract": "contracts/Marketplace2/Marketplace.sol:NFTMarket",
						"label": "idToMarketItem",
						"offset": 0,
						"slot": "16",
						"type": "t_mapping(t_uint256,t_struct(MarketItem)488_storage)"
					}
				],
				"types": {
					"t_address": {
						"encoding": "inplace",
						"label": "address",
						"numberOfBytes": "20"
					},
					"t_address_payable": {
						"encoding": "inplace",
						"label": "address payable",
						"numberOfBytes": "20"
					},
					"t_contract(IERC20)201": {
						"encoding": "inplace",
						"label": "contract IERC20",
						"numberOfBytes": "20"
					},
					"t_contract(IERC721)326": {
						"encoding": "inplace",
						"label": "contract IERC721",
						"numberOfBytes": "20"
					},
					"t_contract(IFactory)468": {
						"encoding": "inplace",
						"label": "contract IFactory",
						"numberOfBytes": "20"
					},
					"t_enum(ItemStatus)472": {
						"encoding": "inplace",
						"label": "enum MarketplaceStorage.ItemStatus",
						"numberOfBytes": "1"
					},
					"t_mapping(t_address,t_mapping(t_uint256,t_struct(MarketItem)488_storage))": {
						"encoding": "mapping",
						"key": "t_address",
						"label": "mapping(address => mapping(uint256 => struct MarketplaceStorage.MarketItem))",
						"numberOfBytes": "32",
						"value": "t_mapping(t_uint256,t_struct(MarketItem)488_storage)"
					},
					"t_mapping(t_uint256,t_struct(MarketItem)488_storage)": {
						"encoding": "mapping",
						"key": "t_uint256",
						"label": "mapping(uint256 => struct MarketplaceStorage.MarketItem)",
						"numberOfBytes": "32",
						"value": "t_struct(MarketItem)488_storage"
					},
					"t_struct(Counter)331_storage": {
						"encoding": "inplace",
						"label": "struct Counters.Counter",
						"members": [
							{
								"astId": 330,
								"contract": "contracts/Marketplace2/Marketplace.sol:NFTMarket",
								"label": "_value",
								"offset": 0,
								"slot": "0",
								"type": "t_uint256"
							}
						],
						"numberOfBytes": "32"
					},
					"t_struct(MarketItem)488_storage": {
						"encoding": "inplace",
						"label": "struct MarketplaceStorage.MarketItem",
						"members": [
							{
								"astId": 474,
								"contract": "contracts/Marketplace2/Marketplace.sol:NFTMarket",
								"label": "itemId",
								"offset": 0,
								"slot": "0",
								"type": "t_uint256"
							},
							{
								"astId": 476,
								"contract": "contracts/Marketplace2/Marketplace.sol:NFTMarket",
								"label": "nftContract",
								"offset": 0,
								"slot": "1",
								"type": "t_address"
							},
							{
								"astId": 478,
								"contract": "contracts/Marketplace2/Marketplace.sol:NFTMarket",
								"label": "tokenId",
								"offset": 0,
								"slot": "2",
								"type": "t_uint256"
							},
							{
								"astId": 480,
								"contract": "contracts/Marketplace2/Marketplace.sol:NFTMarket",
								"label": "seller",
								"offset": 0,
								"slot": "3",
								"type": "t_address_payable"
							},
							{
								"astId": 482,
								"contract": "contracts/Marketplace2/Marketplace.sol:NFTMarket",
								"label": "owner",
								"offset": 0,
								"slot": "4",
								"type": "t_address_payable"
							},
							{
								"astId": 484,
								"contract": "contracts/Marketplace2/Marketplace.sol:NFTMarket",
								"label": "price",
								"offset": 0,
								"slot": "5",
								"type": "t_uint256"
							},
							{
								"astId": 487,
								"contract": "contracts/Marketplace2/Marketplace.sol:NFTMarket",
								"label": "status",
								"offset": 0,
								"slot": "6",
								"type": "t_enum(ItemStatus)472"
							}
						],
						"numberOfBytes": "224"
					},
					"t_uint256": {
						"encoding": "inplace",
						"label": "uint256",
						"numberOfBytes": "32"
					},
					"t_uint8": {
						"encoding": "inplace",
						"label": "uint8",
						"numberOfBytes": "1"
					}
				}
			},
			"userdoc": {
				"kind": "user",
				"methods": {},
				"version": 1
			}
		}
	}
}