{
	"contracts/Marketplace2/Marketplace.sol": {
		"NFTMarket": {
			"abi": [
				{
					"inputs": [
						{
							"internalType": "address",
							"name": "_mainToken",
							"type": "address"
						},
						{
							"internalType": "address",
							"name": "_mainNFT",
							"type": "address"
						},
						{
							"internalType": "address",
							"name": "_mainFactory",
							"type": "address"
						}
					],
					"stateMutability": "payable",
					"type": "constructor"
				},
				{
					"anonymous": false,
					"inputs": [
						{
							"indexed": false,
							"internalType": "uint256",
							"name": "itemId",
							"type": "uint256"
						},
						{
							"indexed": true,
							"internalType": "uint256",
							"name": "tokenId",
							"type": "uint256"
						},
						{
							"indexed": true,
							"internalType": "address",
							"name": "seller",
							"type": "address"
						},
						{
							"indexed": false,
							"internalType": "uint256",
							"name": "price",
							"type": "uint256"
						},
						{
							"indexed": true,
							"internalType": "address",
							"name": "buyer",
							"type": "address"
						},
						{
							"indexed": false,
							"internalType": "string",
							"name": "currency",
							"type": "string"
						},
						{
							"indexed": false,
							"internalType": "uint256",
							"name": "createdAt",
							"type": "uint256"
						}
					],
					"name": "BuyItemSuccessful",
					"type": "event"
				},
				{
					"anonymous": false,
					"inputs": [
						{
							"indexed": false,
							"internalType": "uint256",
							"name": "id",
							"type": "uint256"
						},
						{
							"indexed": true,
							"internalType": "uint256",
							"name": "assetId",
							"type": "uint256"
						},
						{
							"indexed": true,
							"internalType": "address",
							"name": "delistBy",
							"type": "address"
						},
						{
							"indexed": false,
							"internalType": "uint256",
							"name": "createdAt",
							"type": "uint256"
						}
					],
					"name": "DelistItemSuccessful",
					"type": "event"
				},
				{
					"anonymous": false,
					"inputs": [
						{
							"indexed": true,
							"internalType": "uint256",
							"name": "itemId",
							"type": "uint256"
						},
						{
							"indexed": true,
							"internalType": "uint256",
							"name": "tokenId",
							"type": "uint256"
						},
						{
							"indexed": false,
							"internalType": "address",
							"name": "seller",
							"type": "address"
						},
						{
							"indexed": false,
							"internalType": "address",
							"name": "owner",
							"type": "address"
						},
						{
							"indexed": false,
							"internalType": "uint256",
							"name": "price",
							"type": "uint256"
						}
					],
					"name": "MarketItemCreated",
					"type": "event"
				},
				{
					"anonymous": false,
					"inputs": [
						{
							"indexed": true,
							"internalType": "address",
							"name": "previousOwner",
							"type": "address"
						},
						{
							"indexed": true,
							"internalType": "address",
							"name": "newOwner",
							"type": "address"
						}
					],
					"name": "OwnershipTransferred",
					"type": "event"
				},
				{
					"anonymous": false,
					"inputs": [
						{
							"indexed": false,
							"internalType": "address",
							"name": "nftAddress",
							"type": "address"
						},
						{
							"indexed": false,
							"internalType": "bytes32",
							"name": "id",
							"type": "bytes32"
						},
						{
							"indexed": true,
							"internalType": "uint256",
							"name": "assetId",
							"type": "uint256"
						},
						{
							"indexed": false,
							"internalType": "uint256",
							"name": "price",
							"type": "uint256"
						},
						{
							"indexed": true,
							"internalType": "address",
							"name": "seller",
							"type": "address"
						},
						{
							"indexed": false,
							"internalType": "string",
							"name": "currency",
							"type": "string"
						},
						{
							"indexed": false,
							"internalType": "uint256",
							"name": "createdAt",
							"type": "uint256"
						}
					],
					"name": "SellItemSuccessful",
					"type": "event"
				},
				{
					"inputs": [],
					"name": "ERC721_Interface",
					"outputs": [
						{
							"internalType": "bytes4",
							"name": "",
							"type": "bytes4"
						}
					],
					"stateMutability": "view",
					"type": "function"
				},
				{
					"inputs": [
						{
							"internalType": "uint256",
							"name": "itemId",
							"type": "uint256"
						},
						{
							"internalType": "uint256",
							"name": "amount",
							"type": "uint256"
						},
						{
							"internalType": "uint256",
							"name": "tokenId",
							"type": "uint256"
						}
					],
					"name": "_safeBuyItem",
					"outputs": [],
					"stateMutability": "nonpayable",
					"type": "function"
				},
				{
					"inputs": [
						{
							"internalType": "uint256",
							"name": "tokenId",
							"type": "uint256"
						}
					],
					"name": "_safeTransferToMarket",
					"outputs": [],
					"stateMutability": "nonpayable",
					"type": "function"
				},
				{
					"inputs": [
						{
							"internalType": "uint256",
							"name": "",
							"type": "uint256"
						}
					],
					"name": "allItems",
					"outputs": [
						{
							"internalType": "uint256",
							"name": "itemId",
							"type": "uint256"
						},
						{
							"internalType": "uint256",
							"name": "tokenId",
							"type": "uint256"
						},
						{
							"internalType": "address",
							"name": "seller",
							"type": "address"
						},
						{
							"internalType": "address",
							"name": "owner",
							"type": "address"
						},
						{
							"internalType": "uint256",
							"name": "price",
							"type": "uint256"
						},
						{
							"internalType": "enum MarketplaceStorage.ItemStatus",
							"name": "status",
							"type": "uint8"
						}
					],
					"stateMutability": "view",
					"type": "function"
				},
				{
					"inputs": [],
					"name": "antaFeePercent",
					"outputs": [
						{
							"internalType": "uint8",
							"name": "",
							"type": "uint8"
						}
					],
					"stateMutability": "view",
					"type": "function"
				},
				{
					"inputs": [],
					"name": "bnbFeePercent",
					"outputs": [
						{
							"internalType": "uint8",
							"name": "",
							"type": "uint8"
						}
					],
					"stateMutability": "view",
					"type": "function"
				},
				{
					"inputs": [
						{
							"internalType": "uint256",
							"name": "tokenId",
							"type": "uint256"
						},
						{
							"internalType": "uint256",
							"name": "price",
							"type": "uint256"
						}
					],
					"name": "createMarketItem",
					"outputs": [],
					"stateMutability": "nonpayable",
					"type": "function"
				},
				{
					"inputs": [
						{
							"internalType": "uint256",
							"name": "itemId",
							"type": "uint256"
						},
						{
							"internalType": "uint256",
							"name": "amount",
							"type": "uint256"
						}
					],
					"name": "createMarketSale",
					"outputs": [],
					"stateMutability": "nonpayable",
					"type": "function"
				},
				{
					"inputs": [
						{
							"internalType": "uint256",
							"name": "itemId",
							"type": "uint256"
						}
					],
					"name": "delistItem",
					"outputs": [],
					"stateMutability": "nonpayable",
					"type": "function"
				},
				{
					"inputs": [],
					"name": "factory",
					"outputs": [
						{
							"internalType": "contract IFactory",
							"name": "",
							"type": "address"
						}
					],
					"stateMutability": "view",
					"type": "function"
				},
				{
					"inputs": [],
					"name": "getMarketItem",
					"outputs": [
						{
							"components": [
								{
									"internalType": "uint256",
									"name": "itemId",
									"type": "uint256"
								},
								{
									"internalType": "uint256",
									"name": "tokenId",
									"type": "uint256"
								},
								{
									"internalType": "address",
									"name": "seller",
									"type": "address"
								},
								{
									"internalType": "address",
									"name": "owner",
									"type": "address"
								},
								{
									"internalType": "uint256",
									"name": "price",
									"type": "uint256"
								},
								{
									"internalType": "enum MarketplaceStorage.ItemStatus",
									"name": "status",
									"type": "uint8"
								}
							],
							"internalType": "struct MarketplaceStorage.MarketItem[]",
							"name": "",
							"type": "tuple[]"
						}
					],
					"stateMutability": "view",
					"type": "function"
				},
				{
					"inputs": [
						{
							"internalType": "uint256",
							"name": "marketItemId",
							"type": "uint256"
						}
					],
					"name": "getMarketItem",
					"outputs": [
						{
							"components": [
								{
									"internalType": "uint256",
									"name": "itemId",
									"type": "uint256"
								},
								{
									"internalType": "uint256",
									"name": "tokenId",
									"type": "uint256"
								},
								{
									"internalType": "address",
									"name": "seller",
									"type": "address"
								},
								{
									"internalType": "address",
									"name": "owner",
									"type": "address"
								},
								{
									"internalType": "uint256",
									"name": "price",
									"type": "uint256"
								},
								{
									"internalType": "enum MarketplaceStorage.ItemStatus",
									"name": "status",
									"type": "uint8"
								}
							],
							"internalType": "struct MarketplaceStorage.MarketItem",
							"name": "",
							"type": "tuple"
						}
					],
					"stateMutability": "view",
					"type": "function"
				},
				{
					"inputs": [
						{
							"internalType": "uint256",
							"name": "",
							"type": "uint256"
						}
					],
					"name": "items",
					"outputs": [
						{
							"internalType": "uint256",
							"name": "itemId",
							"type": "uint256"
						},
						{
							"internalType": "uint256",
							"name": "tokenId",
							"type": "uint256"
						},
						{
							"internalType": "address",
							"name": "seller",
							"type": "address"
						},
						{
							"internalType": "address",
							"name": "owner",
							"type": "address"
						},
						{
							"internalType": "uint256",
							"name": "price",
							"type": "uint256"
						},
						{
							"internalType": "enum MarketplaceStorage.ItemStatus",
							"name": "status",
							"type": "uint8"
						}
					],
					"stateMutability": "view",
					"type": "function"
				},
				{
					"inputs": [],
					"name": "mainNFTs",
					"outputs": [
						{
							"internalType": "contract IERC721",
							"name": "",
							"type": "address"
						}
					],
					"stateMutability": "view",
					"type": "function"
				},
				{
					"inputs": [],
					"name": "mainToken",
					"outputs": [
						{
							"internalType": "contract IERC20",
							"name": "",
							"type": "address"
						}
					],
					"stateMutability": "view",
					"type": "function"
				},
				{
					"inputs": [],
					"name": "owner",
					"outputs": [
						{
							"internalType": "address",
							"name": "",
							"type": "address"
						}
					],
					"stateMutability": "view",
					"type": "function"
				},
				{
					"inputs": [],
					"name": "renounceOwnership",
					"outputs": [],
					"stateMutability": "nonpayable",
					"type": "function"
				},
				{
					"inputs": [
						{
							"internalType": "uint256",
							"name": "tokenId",
							"type": "uint256"
						},
						{
							"internalType": "uint256",
							"name": "price",
							"type": "uint256"
						}
					],
					"name": "sellItemNeee",
					"outputs": [
						{
							"components": [
								{
									"internalType": "uint256",
									"name": "id",
									"type": "uint256"
								},
								{
									"internalType": "address",
									"name": "owner",
									"type": "address"
								},
								{
									"internalType": "string",
									"name": "itemId",
									"type": "string"
								},
								{
									"internalType": "string",
									"name": "externalId",
									"type": "string"
								},
								{
									"internalType": "bool",
									"name": "ingame",
									"type": "bool"
								}
							],
							"internalType": "struct StructLib.ingameItems",
							"name": "",
							"type": "tuple"
						}
					],
					"stateMutability": "view",
					"type": "function"
				},
				{
					"inputs": [
						{
							"internalType": "address",
							"name": "_address",
							"type": "address"
						}
					],
					"name": "setFactory",
					"outputs": [],
					"stateMutability": "nonpayable",
					"type": "function"
				},
				{
					"inputs": [
						{
							"internalType": "address",
							"name": "_address",
							"type": "address"
						}
					],
					"name": "setMainNFT",
					"outputs": [],
					"stateMutability": "nonpayable",
					"type": "function"
				},
				{
					"inputs": [
						{
							"internalType": "address",
							"name": "_address",
							"type": "address"
						}
					],
					"name": "setMainToken",
					"outputs": [],
					"stateMutability": "nonpayable",
					"type": "function"
				},
				{
					"inputs": [
						{
							"internalType": "address",
							"name": "newOwner",
							"type": "address"
						}
					],
					"name": "transferOwnership",
					"outputs": [],
					"stateMutability": "nonpayable",
					"type": "function"
				}
			],
			"devdoc": {
				"kind": "dev",
				"methods": {
					"owner()": {
						"details": "Returns the address of the current owner."
					},
					"renounceOwnership()": {
						"details": "Leaves the contract without owner. It will not be possible to call `onlyOwner` functions anymore. Can only be called by the current owner. NOTE: Renouncing ownership will leave the contract without an owner, thereby removing any functionality that is only available to the owner."
					},
					"transferOwnership(address)": {
						"details": "Transfers ownership of the contract to a new account (`newOwner`). Can only be called by the current owner."
					}
				},
				"version": 1
			},
			"evm": {
				"assembly": "    /* \"contracts/Marketplace2/Marketplace.sol\":17144:22687  contract NFTMarket is ReentrancyGuard,MarketplaceStorage, Ownable {... */\n  mstore(0x40, 0x80)\n    /* \"contracts/Marketplace2/Marketplace.sol\":17390:17592  constructor(address _mainToken, address _mainNFT, address _mainFactory ) payable {... */\n  mload(0x40)\n  sub(codesize, bytecodeSize)\n  dup1\n  bytecodeSize\n  dup4\n  codecopy\n  dup2\n  dup2\n  add\n  0x40\n  mstore\n  dup2\n  add\n  swap1\n  tag_1\n  swap2\n  swap1\n  tag_2\n  jump\t// in\ntag_1:\n    /* \"contracts/Marketplace2/Marketplace.sol\":14124:14125  1 */\n  0x01\n    /* \"contracts/Marketplace2/Marketplace.sol\":14229:14236  _status */\n  0x00\n    /* \"contracts/Marketplace2/Marketplace.sol\":14229:14251  _status = _NOT_ENTERED */\n  dup2\n  swap1\n  sstore\n  pop\n    /* \"contracts/Marketplace2/Marketplace.sol\":1561:1593  _transferOwnership(_msgSender()) */\n  tag_8\n    /* \"contracts/Marketplace2/Marketplace.sol\":1580:1592  _msgSender() */\n  tag_9\n    /* \"contracts/Marketplace2/Marketplace.sol\":1580:1590  _msgSender */\n  shl(0x20, tag_10)\n    /* \"contracts/Marketplace2/Marketplace.sol\":1580:1592  _msgSender() */\n  0x20\n  shr\n  jump\t// in\ntag_9:\n    /* \"contracts/Marketplace2/Marketplace.sol\":1561:1579  _transferOwnership */\n  shl(0x20, tag_11)\n    /* \"contracts/Marketplace2/Marketplace.sol\":1561:1593  _transferOwnership(_msgSender()) */\n  0x20\n  shr\n  jump\t// in\ntag_8:\n    /* \"contracts/Marketplace2/Marketplace.sol\":17498:17508  _mainToken */\n  dup3\n    /* \"contracts/Marketplace2/Marketplace.sol\":17479:17488  mainToken */\n  0x03\n  0x00\n    /* \"contracts/Marketplace2/Marketplace.sol\":17479:17509  mainToken = IERC20(_mainToken) */\n  0x0100\n  exp\n  dup2\n  sload\n  dup2\n  0xffffffffffffffffffffffffffffffffffffffff\n  mul\n  not\n  and\n  swap1\n  dup4\n  0xffffffffffffffffffffffffffffffffffffffff\n  and\n  mul\n  or\n  swap1\n  sstore\n  pop\n    /* \"contracts/Marketplace2/Marketplace.sol\":17536:17544  _mainNFT */\n  dup2\n    /* \"contracts/Marketplace2/Marketplace.sol\":17517:17525  mainNFTs */\n  0x05\n  0x00\n    /* \"contracts/Marketplace2/Marketplace.sol\":17517:17545  mainNFTs = IERC721(_mainNFT) */\n  0x0100\n  exp\n  dup2\n  sload\n  dup2\n  0xffffffffffffffffffffffffffffffffffffffff\n  mul\n  not\n  and\n  swap1\n  dup4\n  0xffffffffffffffffffffffffffffffffffffffff\n  and\n  mul\n  or\n  swap1\n  sstore\n  pop\n    /* \"contracts/Marketplace2/Marketplace.sol\":17572:17584  _mainFactory */\n  dup1\n    /* \"contracts/Marketplace2/Marketplace.sol\":17553:17560  factory */\n  0x04\n  0x00\n    /* \"contracts/Marketplace2/Marketplace.sol\":17553:17585  factory = IFactory(_mainFactory) */\n  0x0100\n  exp\n  dup2\n  sload\n  dup2\n  0xffffffffffffffffffffffffffffffffffffffff\n  mul\n  not\n  and\n  swap1\n  dup4\n  0xffffffffffffffffffffffffffffffffffffffff\n  and\n  mul\n  or\n  swap1\n  sstore\n  pop\n    /* \"contracts/Marketplace2/Marketplace.sol\":17390:17592  constructor(address _mainToken, address _mainNFT, address _mainFactory ) payable {... */\n  pop\n  pop\n  pop\n    /* \"contracts/Marketplace2/Marketplace.sol\":17144:22687  contract NFTMarket is ReentrancyGuard,MarketplaceStorage, Ownable {... */\n  jump(tag_13)\n    /* \"contracts/Marketplace2/Marketplace.sol\":554:650  function _msgSender() internal view virtual returns (address) {... */\ntag_10:\n    /* \"contracts/Marketplace2/Marketplace.sol\":607:614  address */\n  0x00\n    /* \"contracts/Marketplace2/Marketplace.sol\":633:643  msg.sender */\n  caller\n    /* \"contracts/Marketplace2/Marketplace.sol\":626:643  return msg.sender */\n  swap1\n  pop\n    /* \"contracts/Marketplace2/Marketplace.sol\":554:650  function _msgSender() internal view virtual returns (address) {... */\n  swap1\n  jump\t// out\n    /* \"contracts/Marketplace2/Marketplace.sol\":2910:3097  function _transferOwnership(address newOwner) internal virtual {... */\ntag_11:\n    /* \"contracts/Marketplace2/Marketplace.sol\":2983:2999  address oldOwner */\n  0x00\n    /* \"contracts/Marketplace2/Marketplace.sol\":3002:3008  _owner */\n  0x06\n  0x00\n  swap1\n  sload\n  swap1\n  0x0100\n  exp\n  swap1\n  div\n  0xffffffffffffffffffffffffffffffffffffffff\n  and\n    /* \"contracts/Marketplace2/Marketplace.sol\":2983:3008  address oldOwner = _owner */\n  swap1\n  pop\n    /* \"contracts/Marketplace2/Marketplace.sol\":3027:3035  newOwner */\n  dup2\n    /* \"contracts/Marketplace2/Marketplace.sol\":3018:3024  _owner */\n  0x06\n  0x00\n    /* \"contracts/Marketplace2/Marketplace.sol\":3018:3035  _owner = newOwner */\n  0x0100\n  exp\n  dup2\n  sload\n  dup2\n  0xffffffffffffffffffffffffffffffffffffffff\n  mul\n  not\n  and\n  swap1\n  dup4\n  0xffffffffffffffffffffffffffffffffffffffff\n  and\n  mul\n  or\n  swap1\n  sstore\n  pop\n    /* \"contracts/Marketplace2/Marketplace.sol\":3081:3089  newOwner */\n  dup2\n    /* \"contracts/Marketplace2/Marketplace.sol\":3050:3090  OwnershipTransferred(oldOwner, newOwner) */\n  0xffffffffffffffffffffffffffffffffffffffff\n  and\n    /* \"contracts/Marketplace2/Marketplace.sol\":3071:3079  oldOwner */\n  dup2\n    /* \"contracts/Marketplace2/Marketplace.sol\":3050:3090  OwnershipTransferred(oldOwner, newOwner) */\n  0xffffffffffffffffffffffffffffffffffffffff\n  and\n  0x8be0079c531659141344cd1fd0a4f28419497f9722a3daafe3b4186f6b6457e0\n  mload(0x40)\n  mload(0x40)\n  dup1\n  swap2\n  sub\n  swap1\n  log3\n    /* \"contracts/Marketplace2/Marketplace.sol\":2973:3097  {... */\n  pop\n    /* \"contracts/Marketplace2/Marketplace.sol\":2910:3097  function _transferOwnership(address newOwner) internal virtual {... */\n  pop\n  jump\t// out\n    /* \"#utility.yul\":88:205   */\ntag_17:\n    /* \"#utility.yul\":197:198   */\n  0x00\n    /* \"#utility.yul\":194:195   */\n  dup1\n    /* \"#utility.yul\":187:199   */\n  revert\n    /* \"#utility.yul\":334:460   */\ntag_19:\n    /* \"#utility.yul\":371:378   */\n  0x00\n    /* \"#utility.yul\":411:453   */\n  0xffffffffffffffffffffffffffffffffffffffff\n    /* \"#utility.yul\":404:409   */\n  dup3\n    /* \"#utility.yul\":400:454   */\n  and\n    /* \"#utility.yul\":389:454   */\n  swap1\n  pop\n    /* \"#utility.yul\":334:460   */\n  swap2\n  swap1\n  pop\n  jump\t// out\n    /* \"#utility.yul\":466:562   */\ntag_20:\n    /* \"#utility.yul\":503:510   */\n  0x00\n    /* \"#utility.yul\":532:556   */\n  tag_29\n    /* \"#utility.yul\":550:555   */\n  dup3\n    /* \"#utility.yul\":532:556   */\n  tag_19\n  jump\t// in\ntag_29:\n    /* \"#utility.yul\":521:556   */\n  swap1\n  pop\n    /* \"#utility.yul\":466:562   */\n  swap2\n  swap1\n  pop\n  jump\t// out\n    /* \"#utility.yul\":568:690   */\ntag_21:\n    /* \"#utility.yul\":641:665   */\n  tag_31\n    /* \"#utility.yul\":659:664   */\n  dup2\n    /* \"#utility.yul\":641:665   */\n  tag_20\n  jump\t// in\ntag_31:\n    /* \"#utility.yul\":634:639   */\n  dup2\n    /* \"#utility.yul\":631:666   */\n  eq\n    /* \"#utility.yul\":621:684   */\n  tag_32\n  jumpi\n    /* \"#utility.yul\":680:681   */\n  0x00\n    /* \"#utility.yul\":677:678   */\n  dup1\n    /* \"#utility.yul\":670:682   */\n  revert\n    /* \"#utility.yul\":621:684   */\ntag_32:\n    /* \"#utility.yul\":568:690   */\n  pop\n  jump\t// out\n    /* \"#utility.yul\":696:839   */\ntag_22:\n    /* \"#utility.yul\":753:758   */\n  0x00\n    /* \"#utility.yul\":784:790   */\n  dup2\n    /* \"#utility.yul\":778:791   */\n  mload\n    /* \"#utility.yul\":769:791   */\n  swap1\n  pop\n    /* \"#utility.yul\":800:833   */\n  tag_34\n    /* \"#utility.yul\":827:832   */\n  dup2\n    /* \"#utility.yul\":800:833   */\n  tag_21\n  jump\t// in\ntag_34:\n    /* \"#utility.yul\":696:839   */\n  swap3\n  swap2\n  pop\n  pop\n  jump\t// out\n    /* \"#utility.yul\":845:1508   */\ntag_2:\n    /* \"#utility.yul\":933:939   */\n  0x00\n    /* \"#utility.yul\":941:947   */\n  dup1\n    /* \"#utility.yul\":949:955   */\n  0x00\n    /* \"#utility.yul\":998:1000   */\n  0x60\n    /* \"#utility.yul\":986:995   */\n  dup5\n    /* \"#utility.yul\":977:984   */\n  dup7\n    /* \"#utility.yul\":973:996   */\n  sub\n    /* \"#utility.yul\":969:1001   */\n  slt\n    /* \"#utility.yul\":966:1085   */\n  iszero\n  tag_36\n  jumpi\n    /* \"#utility.yul\":1004:1083   */\n  tag_37\n  tag_17\n  jump\t// in\ntag_37:\n    /* \"#utility.yul\":966:1085   */\ntag_36:\n    /* \"#utility.yul\":1124:1125   */\n  0x00\n    /* \"#utility.yul\":1149:1213   */\n  tag_38\n    /* \"#utility.yul\":1205:1212   */\n  dup7\n    /* \"#utility.yul\":1196:1202   */\n  dup3\n    /* \"#utility.yul\":1185:1194   */\n  dup8\n    /* \"#utility.yul\":1181:1203   */\n  add\n    /* \"#utility.yul\":1149:1213   */\n  tag_22\n  jump\t// in\ntag_38:\n    /* \"#utility.yul\":1139:1213   */\n  swap4\n  pop\n    /* \"#utility.yul\":1095:1223   */\n  pop\n    /* \"#utility.yul\":1262:1264   */\n  0x20\n    /* \"#utility.yul\":1288:1352   */\n  tag_39\n    /* \"#utility.yul\":1344:1351   */\n  dup7\n    /* \"#utility.yul\":1335:1341   */\n  dup3\n    /* \"#utility.yul\":1324:1333   */\n  dup8\n    /* \"#utility.yul\":1320:1342   */\n  add\n    /* \"#utility.yul\":1288:1352   */\n  tag_22\n  jump\t// in\ntag_39:\n    /* \"#utility.yul\":1278:1352   */\n  swap3\n  pop\n    /* \"#utility.yul\":1233:1362   */\n  pop\n    /* \"#utility.yul\":1401:1403   */\n  0x40\n    /* \"#utility.yul\":1427:1491   */\n  tag_40\n    /* \"#utility.yul\":1483:1490   */\n  dup7\n    /* \"#utility.yul\":1474:1480   */\n  dup3\n    /* \"#utility.yul\":1463:1472   */\n  dup8\n    /* \"#utility.yul\":1459:1481   */\n  add\n    /* \"#utility.yul\":1427:1491   */\n  tag_22\n  jump\t// in\ntag_40:\n    /* \"#utility.yul\":1417:1491   */\n  swap2\n  pop\n    /* \"#utility.yul\":1372:1501   */\n  pop\n    /* \"#utility.yul\":845:1508   */\n  swap3\n  pop\n  swap3\n  pop\n  swap3\n  jump\t// out\n    /* \"contracts/Marketplace2/Marketplace.sol\":17144:22687  contract NFTMarket is ReentrancyGuard,MarketplaceStorage, Ownable {... */\ntag_13:\n  dataSize(sub_0)\n  dup1\n  dataOffset(sub_0)\n  0x00\n  codecopy\n  0x00\n  return\nstop\n\nsub_0: assembly {\n        /* \"contracts/Marketplace2/Marketplace.sol\":17144:22687  contract NFTMarket is ReentrancyGuard,MarketplaceStorage, Ownable {... */\n      mstore(0x40, 0x80)\n      callvalue\n      dup1\n      iszero\n      tag_1\n      jumpi\n      0x00\n      dup1\n      revert\n    tag_1:\n      pop\n      jumpi(tag_2, lt(calldatasize, 0x04))\n      shr(0xe0, calldataload(0x00))\n      dup1\n      0x8da5cb5b\n      gt\n      tag_25\n      jumpi\n      dup1\n      0xc45a0155\n      gt\n      tag_26\n      jumpi\n      dup1\n      0xc45a0155\n      eq\n      tag_19\n      jumpi\n      dup1\n      0xc7be7a49\n      eq\n      tag_20\n      jumpi\n      dup1\n      0xe78e717d\n      eq\n      tag_21\n      jumpi\n      dup1\n      0xf2fde38b\n      eq\n      tag_22\n      jumpi\n      dup1\n      0xf55de0c7\n      eq\n      tag_23\n      jumpi\n      dup1\n      0xff68fa6e\n      eq\n      tag_24\n      jumpi\n      jump(tag_2)\n    tag_26:\n      dup1\n      0x8da5cb5b\n      eq\n      tag_14\n      jumpi\n      dup1\n      0xa1c11ca8\n      eq\n      tag_15\n      jumpi\n      dup1\n      0xaeaf8cc2\n      eq\n      tag_16\n      jumpi\n      dup1\n      0xb7a60c7e\n      eq\n      tag_17\n      jumpi\n      dup1\n      0xbfb231d2\n      eq\n      tag_18\n      jumpi\n      jump(tag_2)\n    tag_25:\n      dup1\n      0x3fc15f15\n      gt\n      tag_27\n      jumpi\n      dup1\n      0x3fc15f15\n      eq\n      tag_8\n      jumpi\n      dup1\n      0x42199f88\n      eq\n      tag_9\n      jumpi\n      dup1\n      0x5bb47808\n      eq\n      tag_10\n      jumpi\n      dup1\n      0x715018a6\n      eq\n      tag_11\n      jumpi\n      dup1\n      0x85a8b36c\n      eq\n      tag_12\n      jumpi\n      dup1\n      0x8c0fb1c3\n      eq\n      tag_13\n      jumpi\n      jump(tag_2)\n    tag_27:\n      dup1\n      0x10061631\n      eq\n      tag_3\n      jumpi\n      dup1\n      0x15b12494\n      eq\n      tag_4\n      jumpi\n      dup1\n      0x27ce464e\n      eq\n      tag_5\n      jumpi\n      dup1\n      0x2b4c32be\n      eq\n      tag_6\n      jumpi\n      dup1\n      0x361c1995\n      eq\n      tag_7\n      jumpi\n    tag_2:\n      0x00\n      dup1\n      revert\n        /* \"contracts/Marketplace2/Marketplace.sol\":20804:21562  function delistItem(uint256 itemId) public {... */\n    tag_3:\n      tag_28\n      0x04\n      dup1\n      calldatasize\n      sub\n      dup2\n      add\n      swap1\n      tag_29\n      swap2\n      swap1\n      tag_30\n      jump\t// in\n    tag_29:\n      tag_31\n      jump\t// in\n    tag_28:\n      stop\n        /* \"contracts/Marketplace2/Marketplace.sol\":18712:18814  function setMainNFT(address _address) external onlyOwner {... */\n    tag_4:\n      tag_32\n      0x04\n      dup1\n      calldatasize\n      sub\n      dup2\n      add\n      swap1\n      tag_33\n      swap2\n      swap1\n      tag_34\n      jump\t// in\n    tag_33:\n      tag_35\n      jump\t// in\n    tag_32:\n      stop\n        /* \"contracts/Marketplace2/Marketplace.sol\":18603:18707  function setMainToken(address _address) external onlyOwner {... */\n    tag_5:\n      tag_36\n      0x04\n      dup1\n      calldatasize\n      sub\n      dup2\n      add\n      swap1\n      tag_37\n      swap2\n      swap1\n      tag_34\n      jump\t// in\n    tag_37:\n      tag_38\n      jump\t// in\n    tag_36:\n      stop\n        /* \"contracts/Marketplace2/Marketplace.sol\":15944:16004  bytes4 public constant ERC721_Interface = bytes4(0x80ac58cd) */\n    tag_6:\n      tag_39\n      tag_40\n      jump\t// in\n    tag_39:\n      mload(0x40)\n      tag_41\n      swap2\n      swap1\n      tag_42\n      jump\t// in\n    tag_41:\n      mload(0x40)\n      dup1\n      swap2\n      sub\n      swap1\n      return\n        /* \"contracts/Marketplace2/Marketplace.sol\":19224:19980  function createMarketItem(... */\n    tag_7:\n      tag_43\n      0x04\n      dup1\n      calldatasize\n      sub\n      dup2\n      add\n      swap1\n      tag_44\n      swap2\n      swap1\n      tag_45\n      jump\t// in\n    tag_44:\n      tag_46\n      jump\t// in\n    tag_43:\n      stop\n        /* \"contracts/Marketplace2/Marketplace.sol\":16208:16231  IERC20 public mainToken */\n    tag_8:\n      tag_47\n      tag_48\n      jump\t// in\n    tag_47:\n      mload(0x40)\n      tag_49\n      swap2\n      swap1\n      tag_50\n      jump\t// in\n    tag_49:\n      mload(0x40)\n      dup1\n      swap2\n      sub\n      swap1\n      return\n        /* \"contracts/Marketplace2/Marketplace.sol\":17598:18454  function getMarketItem() public view returns(MarketItem[] memory) { ... */\n    tag_9:\n      tag_51\n      tag_52\n      jump\t// in\n    tag_51:\n      mload(0x40)\n      tag_53\n      swap2\n      swap1\n      tag_54\n      jump\t// in\n    tag_53:\n      mload(0x40)\n      dup1\n      swap2\n      sub\n      swap1\n      return\n        /* \"contracts/Marketplace2/Marketplace.sol\":18819:18921  function setFactory(address _address) external onlyOwner {... */\n    tag_10:\n      tag_55\n      0x04\n      dup1\n      calldatasize\n      sub\n      dup2\n      add\n      swap1\n      tag_56\n      swap2\n      swap1\n      tag_34\n      jump\t// in\n    tag_56:\n      tag_57\n      jump\t// in\n    tag_55:\n      stop\n        /* \"contracts/Marketplace2/Marketplace.sol\":2308:2409  function renounceOwnership() public virtual onlyOwner {... */\n    tag_11:\n      tag_58\n      tag_59\n      jump\t// in\n    tag_58:\n      stop\n        /* \"contracts/Marketplace2/Marketplace.sol\":16296:16322  uint8 public bnbFeePercent */\n    tag_12:\n      tag_60\n      tag_61\n      jump\t// in\n    tag_60:\n      mload(0x40)\n      tag_62\n      swap2\n      swap1\n      tag_63\n      jump\t// in\n    tag_62:\n      mload(0x40)\n      dup1\n      swap2\n      sub\n      swap1\n      return\n        /* \"contracts/Marketplace2/Marketplace.sol\":21800:22126  function _safeBuyItem(uint256 itemId,uint256 amount, uint256 tokenId ) public { ... */\n    tag_13:\n      tag_64\n      0x04\n      dup1\n      calldatasize\n      sub\n      dup2\n      add\n      swap1\n      tag_65\n      swap2\n      swap1\n      tag_66\n      jump\t// in\n    tag_65:\n      tag_67\n      jump\t// in\n    tag_64:\n      stop\n        /* \"contracts/Marketplace2/Marketplace.sol\":1676:1761  function owner() public view virtual returns (address) {... */\n    tag_14:\n      tag_68\n      tag_69\n      jump\t// in\n    tag_68:\n      mload(0x40)\n      tag_70\n      swap2\n      swap1\n      tag_71\n      jump\t// in\n    tag_70:\n      mload(0x40)\n      dup1\n      swap2\n      sub\n      swap1\n      return\n        /* \"contracts/Marketplace2/Marketplace.sol\":19983:20800  function createMarketSale(... */\n    tag_15:\n      tag_72\n      0x04\n      dup1\n      calldatasize\n      sub\n      dup2\n      add\n      swap1\n      tag_73\n      swap2\n      swap1\n      tag_45\n      jump\t// in\n    tag_73:\n      tag_74\n      jump\t// in\n    tag_72:\n      stop\n        /* \"contracts/Marketplace2/Marketplace.sol\":18927:19220  function sellItemNeee(... */\n    tag_16:\n      tag_75\n      0x04\n      dup1\n      calldatasize\n      sub\n      dup2\n      add\n      swap1\n      tag_76\n      swap2\n      swap1\n      tag_45\n      jump\t// in\n    tag_76:\n      tag_77\n      jump\t// in\n    tag_75:\n      mload(0x40)\n      tag_78\n      swap2\n      swap1\n      tag_79\n      jump\t// in\n    tag_78:\n      mload(0x40)\n      dup1\n      swap2\n      sub\n      swap1\n      return\n        /* \"contracts/Marketplace2/Marketplace.sol\":16328:16355  uint8 public antaFeePercent */\n    tag_17:\n      tag_80\n      tag_81\n      jump\t// in\n    tag_80:\n      mload(0x40)\n      tag_82\n      swap2\n      swap1\n      tag_63\n      jump\t// in\n    tag_82:\n      mload(0x40)\n      dup1\n      swap2\n      sub\n      swap1\n      return\n        /* \"contracts/Marketplace2/Marketplace.sol\":15913:15938  MarketItem[] public items */\n    tag_18:\n      tag_83\n      0x04\n      dup1\n      calldatasize\n      sub\n      dup2\n      add\n      swap1\n      tag_84\n      swap2\n      swap1\n      tag_30\n      jump\t// in\n    tag_84:\n      tag_85\n      jump\t// in\n    tag_83:\n      mload(0x40)\n      tag_86\n      swap7\n      swap6\n      swap5\n      swap4\n      swap3\n      swap2\n      swap1\n      tag_87\n      jump\t// in\n    tag_86:\n      mload(0x40)\n      dup1\n      swap2\n      sub\n      swap1\n      return\n        /* \"contracts/Marketplace2/Marketplace.sol\":16237:16260  IFactory public factory */\n    tag_19:\n      tag_88\n      tag_89\n      jump\t// in\n    tag_88:\n      mload(0x40)\n      tag_90\n      swap2\n      swap1\n      tag_91\n      jump\t// in\n    tag_90:\n      mload(0x40)\n      dup1\n      swap2\n      sub\n      swap1\n      return\n        /* \"contracts/Marketplace2/Marketplace.sol\":18460:18597  function getMarketItem(uint256 marketItemId) public view returns (MarketItem memory) {... */\n    tag_20:\n      tag_92\n      0x04\n      dup1\n      calldatasize\n      sub\n      dup2\n      add\n      swap1\n      tag_93\n      swap2\n      swap1\n      tag_30\n      jump\t// in\n    tag_93:\n      tag_94\n      jump\t// in\n    tag_92:\n      mload(0x40)\n      tag_95\n      swap2\n      swap1\n      tag_96\n      jump\t// in\n    tag_95:\n      mload(0x40)\n      dup1\n      swap2\n      sub\n      swap1\n      return\n        /* \"contracts/Marketplace2/Marketplace.sol\":21576:21793  function _safeTransferToMarket(uint256 tokenId) public {... */\n    tag_21:\n      tag_97\n      0x04\n      dup1\n      calldatasize\n      sub\n      dup2\n      add\n      swap1\n      tag_98\n      swap2\n      swap1\n      tag_30\n      jump\t// in\n    tag_98:\n      tag_99\n      jump\t// in\n    tag_97:\n      stop\n        /* \"contracts/Marketplace2/Marketplace.sol\":2558:2756  function transferOwnership(address newOwner) public virtual onlyOwner {... */\n    tag_22:\n      tag_100\n      0x04\n      dup1\n      calldatasize\n      sub\n      dup2\n      add\n      swap1\n      tag_101\n      swap2\n      swap1\n      tag_34\n      jump\t// in\n    tag_101:\n      tag_102\n      jump\t// in\n    tag_100:\n      stop\n        /* \"contracts/Marketplace2/Marketplace.sol\":16266:16289  IERC721 public mainNFTs */\n    tag_23:\n      tag_103\n      tag_104\n      jump\t// in\n    tag_103:\n      mload(0x40)\n      tag_105\n      swap2\n      swap1\n      tag_106\n      jump\t// in\n    tag_105:\n      mload(0x40)\n      dup1\n      swap2\n      sub\n      swap1\n      return\n        /* \"contracts/Marketplace2/Marketplace.sol\":16011:16058  mapping (uint256 => MarketItem) public allItems */\n    tag_24:\n      tag_107\n      0x04\n      dup1\n      calldatasize\n      sub\n      dup2\n      add\n      swap1\n      tag_108\n      swap2\n      swap1\n      tag_30\n      jump\t// in\n    tag_108:\n      tag_109\n      jump\t// in\n    tag_107:\n      mload(0x40)\n      tag_110\n      swap7\n      swap6\n      swap5\n      swap4\n      swap3\n      swap2\n      swap1\n      tag_87\n      jump\t// in\n    tag_110:\n      mload(0x40)\n      dup1\n      swap2\n      sub\n      swap1\n      return\n        /* \"contracts/Marketplace2/Marketplace.sol\":20804:21562  function delistItem(uint256 itemId) public {... */\n    tag_31:\n        /* \"contracts/Marketplace2/Marketplace.sol\":20857:20873  address deleteBy */\n      0x00\n        /* \"contracts/Marketplace2/Marketplace.sol\":20876:20886  msg.sender */\n      caller\n        /* \"contracts/Marketplace2/Marketplace.sol\":20857:20886  address deleteBy = msg.sender */\n      swap1\n      pop\n        /* \"contracts/Marketplace2/Marketplace.sol\":20896:20918  MarketItem memory item */\n      0x00\n        /* \"contracts/Marketplace2/Marketplace.sol\":20921:20935  idToMarketItem */\n      0x09\n        /* \"contracts/Marketplace2/Marketplace.sol\":20921:20943  idToMarketItem[itemId] */\n      0x00\n        /* \"contracts/Marketplace2/Marketplace.sol\":20936:20942  itemId */\n      dup5\n        /* \"contracts/Marketplace2/Marketplace.sol\":20921:20943  idToMarketItem[itemId] */\n      dup2\n      mstore\n      0x20\n      add\n      swap1\n      dup2\n      mstore\n      0x20\n      add\n      0x00\n      keccak256\n        /* \"contracts/Marketplace2/Marketplace.sol\":20896:20943  MarketItem memory item = idToMarketItem[itemId] */\n      mload(0x40)\n      dup1\n      0xc0\n      add\n      0x40\n      mstore\n      swap1\n      dup2\n      0x00\n      dup3\n      add\n      sload\n      dup2\n      mstore\n      0x20\n      add\n      0x01\n      dup3\n      add\n      sload\n      dup2\n      mstore\n      0x20\n      add\n      0x02\n      dup3\n      add\n      0x00\n      swap1\n      sload\n      swap1\n      0x0100\n      exp\n      swap1\n      div\n      0xffffffffffffffffffffffffffffffffffffffff\n      and\n      0xffffffffffffffffffffffffffffffffffffffff\n      and\n      0xffffffffffffffffffffffffffffffffffffffff\n      and\n      dup2\n      mstore\n      0x20\n      add\n      0x03\n      dup3\n      add\n      0x00\n      swap1\n      sload\n      swap1\n      0x0100\n      exp\n      swap1\n      div\n      0xffffffffffffffffffffffffffffffffffffffff\n      and\n      0xffffffffffffffffffffffffffffffffffffffff\n      and\n      0xffffffffffffffffffffffffffffffffffffffff\n      and\n      dup2\n      mstore\n      0x20\n      add\n      0x04\n      dup3\n      add\n      sload\n      dup2\n      mstore\n      0x20\n      add\n      0x05\n      dup3\n      add\n      0x00\n      swap1\n      sload\n      swap1\n      0x0100\n      exp\n      swap1\n      div\n      0xff\n      and\n      0x01\n      dup2\n      gt\n      iszero\n      tag_112\n      jumpi\n      tag_113\n      tag_114\n      jump\t// in\n    tag_113:\n    tag_112:\n      0x01\n      dup2\n      gt\n      iszero\n      tag_115\n      jumpi\n      tag_116\n      tag_114\n      jump\t// in\n    tag_116:\n    tag_115:\n      dup2\n      mstore\n      pop\n      pop\n      swap1\n      pop\n        /* \"contracts/Marketplace2/Marketplace.sol\":20978:20979  0 */\n      0x00\n        /* \"contracts/Marketplace2/Marketplace.sol\":20963:20967  item */\n      dup2\n        /* \"contracts/Marketplace2/Marketplace.sol\":20963:20974  item.itemId */\n      0x00\n      add\n      mload\n        /* \"contracts/Marketplace2/Marketplace.sol\":20963:20979  item.itemId != 0 */\n      sub\n        /* \"contracts/Marketplace2/Marketplace.sol\":20955:21003  require(item.itemId != 0, \"Asset not published\") */\n      tag_117\n      jumpi\n      mload(0x40)\n      0x08c379a000000000000000000000000000000000000000000000000000000000\n      dup2\n      mstore\n      0x04\n      add\n      tag_118\n      swap1\n      tag_119\n      jump\t// in\n    tag_118:\n      mload(0x40)\n      dup1\n      swap2\n      sub\n      swap1\n      revert\n    tag_117:\n        /* \"contracts/Marketplace2/Marketplace.sol\":21036:21054  ItemStatus.SELLING */\n      0x01\n        /* \"contracts/Marketplace2/Marketplace.sol\":21021:21054  item.status == ItemStatus.SELLING */\n      dup1\n      dup2\n      gt\n      iszero\n      tag_120\n      jumpi\n      tag_121\n      tag_114\n      jump\t// in\n    tag_121:\n    tag_120:\n        /* \"contracts/Marketplace2/Marketplace.sol\":21021:21025  item */\n      dup2\n        /* \"contracts/Marketplace2/Marketplace.sol\":21021:21032  item.status */\n      0xa0\n      add\n      mload\n        /* \"contracts/Marketplace2/Marketplace.sol\":21021:21054  item.status == ItemStatus.SELLING */\n      0x01\n      dup2\n      gt\n      iszero\n      tag_122\n      jumpi\n      tag_123\n      tag_114\n      jump\t// in\n    tag_123:\n    tag_122:\n      eq\n        /* \"contracts/Marketplace2/Marketplace.sol\":21013:21073  require(item.status == ItemStatus.SELLING, \"Asset delisted\") */\n      tag_124\n      jumpi\n      mload(0x40)\n      0x08c379a000000000000000000000000000000000000000000000000000000000\n      dup2\n      mstore\n      0x04\n      add\n      tag_125\n      swap1\n      tag_126\n      jump\t// in\n    tag_125:\n      mload(0x40)\n      dup1\n      swap2\n      sub\n      swap1\n      revert\n    tag_124:\n        /* \"contracts/Marketplace2/Marketplace.sol\":21084:21098  address seller */\n      0x00\n        /* \"contracts/Marketplace2/Marketplace.sol\":21101:21105  item */\n      dup2\n        /* \"contracts/Marketplace2/Marketplace.sol\":21101:21112  item.seller */\n      0x40\n      add\n      mload\n        /* \"contracts/Marketplace2/Marketplace.sol\":21084:21112  address seller = item.seller */\n      swap1\n      pop\n        /* \"contracts/Marketplace2/Marketplace.sol\":21148:21149  0 */\n      0x00\n        /* \"contracts/Marketplace2/Marketplace.sol\":21130:21150  seller != address(0) */\n      0xffffffffffffffffffffffffffffffffffffffff\n      and\n        /* \"contracts/Marketplace2/Marketplace.sol\":21130:21136  seller */\n      dup2\n        /* \"contracts/Marketplace2/Marketplace.sol\":21130:21150  seller != address(0) */\n      0xffffffffffffffffffffffffffffffffffffffff\n      and\n      sub\n        /* \"contracts/Marketplace2/Marketplace.sol\":21122:21170  require(seller != address(0), \"Invalid address\") */\n      tag_127\n      jumpi\n      mload(0x40)\n      0x08c379a000000000000000000000000000000000000000000000000000000000\n      dup2\n      mstore\n      0x04\n      add\n      tag_128\n      swap1\n      tag_129\n      jump\t// in\n    tag_128:\n      mload(0x40)\n      dup1\n      swap2\n      sub\n      swap1\n      revert\n    tag_127:\n        /* \"contracts/Marketplace2/Marketplace.sol\":21211:21221  msg.sender */\n      caller\n        /* \"contracts/Marketplace2/Marketplace.sol\":21201:21221  seller == msg.sender */\n      0xffffffffffffffffffffffffffffffffffffffff\n      and\n        /* \"contracts/Marketplace2/Marketplace.sol\":21201:21207  seller */\n      dup2\n        /* \"contracts/Marketplace2/Marketplace.sol\":21201:21221  seller == msg.sender */\n      0xffffffffffffffffffffffffffffffffffffffff\n      and\n      eq\n        /* \"contracts/Marketplace2/Marketplace.sol\":21180:21269  require(... */\n      tag_130\n      jumpi\n      mload(0x40)\n      0x08c379a000000000000000000000000000000000000000000000000000000000\n      dup2\n      mstore\n      0x04\n      add\n      tag_131\n      swap1\n      tag_132\n      jump\t// in\n    tag_131:\n      mload(0x40)\n      dup1\n      swap2\n      sub\n      swap1\n      revert\n    tag_130:\n        /* \"contracts/Marketplace2/Marketplace.sol\":21279:21287  mainNFTs */\n      0x05\n      0x00\n      swap1\n      sload\n      swap1\n      0x0100\n      exp\n      swap1\n      div\n      0xffffffffffffffffffffffffffffffffffffffff\n      and\n        /* \"contracts/Marketplace2/Marketplace.sol\":21279:21304  mainNFTs.safeTransferFrom */\n      0xffffffffffffffffffffffffffffffffffffffff\n      and\n      0x42842e0e\n        /* \"contracts/Marketplace2/Marketplace.sol\":21313:21317  this */\n      address\n        /* \"contracts/Marketplace2/Marketplace.sol\":21320:21326  seller */\n      dup4\n        /* \"contracts/Marketplace2/Marketplace.sol\":21328:21334  itemId */\n      dup8\n        /* \"contracts/Marketplace2/Marketplace.sol\":21279:21335  mainNFTs.safeTransferFrom(address(this), seller, itemId) */\n      mload(0x40)\n      dup5\n      0xffffffff\n      and\n      0xe0\n      shl\n      dup2\n      mstore\n      0x04\n      add\n      tag_133\n      swap4\n      swap3\n      swap2\n      swap1\n      tag_134\n      jump\t// in\n    tag_133:\n      0x00\n      mload(0x40)\n      dup1\n      dup4\n      sub\n      dup2\n      0x00\n      dup8\n      dup1\n      extcodesize\n      iszero\n      dup1\n      iszero\n      tag_135\n      jumpi\n      0x00\n      dup1\n      revert\n    tag_135:\n      pop\n      gas\n      call\n      iszero\n      dup1\n      iszero\n      tag_137\n      jumpi\n      returndatasize\n      0x00\n      dup1\n      returndatacopy\n      revert(0x00, returndatasize)\n    tag_137:\n      pop\n      pop\n      pop\n      pop\n        /* \"contracts/Marketplace2/Marketplace.sol\":21359:21375  ItemStatus.AVAIL */\n      0x00\n        /* \"contracts/Marketplace2/Marketplace.sol\":21345:21349  item */\n      dup3\n        /* \"contracts/Marketplace2/Marketplace.sol\":21345:21356  item.status */\n      0xa0\n      add\n        /* \"contracts/Marketplace2/Marketplace.sol\":21345:21375  item.status = ItemStatus.AVAIL */\n      swap1\n      0x01\n      dup2\n      gt\n      iszero\n      tag_138\n      jumpi\n      tag_139\n      tag_114\n      jump\t// in\n    tag_139:\n    tag_138:\n      swap1\n      dup2\n      0x01\n      dup2\n      gt\n      iszero\n      tag_140\n      jumpi\n      tag_141\n      tag_114\n      jump\t// in\n    tag_141:\n    tag_140:\n      dup2\n      mstore\n      pop\n      pop\n        /* \"contracts/Marketplace2/Marketplace.sol\":21392:21406  idToMarketItem */\n      0x09\n        /* \"contracts/Marketplace2/Marketplace.sol\":21392:21414  idToMarketItem[itemId] */\n      0x00\n        /* \"contracts/Marketplace2/Marketplace.sol\":21407:21413  itemId */\n      dup6\n        /* \"contracts/Marketplace2/Marketplace.sol\":21392:21414  idToMarketItem[itemId] */\n      dup2\n      mstore\n      0x20\n      add\n      swap1\n      dup2\n      mstore\n      0x20\n      add\n      0x00\n      keccak256\n      0x00\n        /* \"contracts/Marketplace2/Marketplace.sol\":21385:21414  delete idToMarketItem[itemId] */\n      dup1\n      dup3\n      add\n      0x00\n      swap1\n      sstore\n      0x01\n      dup3\n      add\n      0x00\n      swap1\n      sstore\n      0x02\n      dup3\n      add\n      exp(0x0100, 0x00)\n      dup2\n      sload\n      swap1\n      0xffffffffffffffffffffffffffffffffffffffff\n      mul\n      not\n      and\n      swap1\n      sstore\n      0x03\n      dup3\n      add\n      exp(0x0100, 0x00)\n      dup2\n      sload\n      swap1\n      0xffffffffffffffffffffffffffffffffffffffff\n      mul\n      not\n      and\n      swap1\n      sstore\n      0x04\n      dup3\n      add\n      0x00\n      swap1\n      sstore\n      0x05\n      dup3\n      add\n      exp(0x0100, 0x00)\n      dup2\n      sload\n      swap1\n      0xff\n      mul\n      not\n      and\n      swap1\n      sstore\n      pop\n      pop\n        /* \"contracts/Marketplace2/Marketplace.sol\":21508:21516  deleteBy */\n      dup3\n        /* \"contracts/Marketplace2/Marketplace.sol\":21429:21555  DelistItemSuccessful(... */\n      0xffffffffffffffffffffffffffffffffffffffff\n      and\n        /* \"contracts/Marketplace2/Marketplace.sol\":21488:21494  itemId */\n      dup5\n        /* \"contracts/Marketplace2/Marketplace.sol\":21429:21555  DelistItemSuccessful(... */\n      0x72ffc2a266acba5f77e2b49400103cb61b428f37a97057ebe671e83fddd71e67\n        /* \"contracts/Marketplace2/Marketplace.sol\":21463:21467  item */\n      dup5\n        /* \"contracts/Marketplace2/Marketplace.sol\":21463:21474  item.itemId */\n      0x00\n      add\n      mload\n        /* \"contracts/Marketplace2/Marketplace.sol\":21530:21545  block.timestamp */\n      timestamp\n        /* \"contracts/Marketplace2/Marketplace.sol\":21429:21555  DelistItemSuccessful(... */\n      mload(0x40)\n      tag_142\n      swap3\n      swap2\n      swap1\n      tag_143\n      jump\t// in\n    tag_142:\n      mload(0x40)\n      dup1\n      swap2\n      sub\n      swap1\n      log3\n        /* \"contracts/Marketplace2/Marketplace.sol\":20847:21562  {... */\n      pop\n      pop\n      pop\n        /* \"contracts/Marketplace2/Marketplace.sol\":20804:21562  function delistItem(uint256 itemId) public {... */\n      pop\n      jump\t// out\n        /* \"contracts/Marketplace2/Marketplace.sol\":18712:18814  function setMainNFT(address _address) external onlyOwner {... */\n    tag_35:\n        /* \"contracts/Marketplace2/Marketplace.sol\":1899:1911  _msgSender() */\n      tag_145\n        /* \"contracts/Marketplace2/Marketplace.sol\":1899:1909  _msgSender */\n      tag_146\n        /* \"contracts/Marketplace2/Marketplace.sol\":1899:1911  _msgSender() */\n      jump\t// in\n    tag_145:\n        /* \"contracts/Marketplace2/Marketplace.sol\":1888:1911  owner() == _msgSender() */\n      0xffffffffffffffffffffffffffffffffffffffff\n      and\n        /* \"contracts/Marketplace2/Marketplace.sol\":1888:1895  owner() */\n      tag_147\n        /* \"contracts/Marketplace2/Marketplace.sol\":1888:1893  owner */\n      tag_69\n        /* \"contracts/Marketplace2/Marketplace.sol\":1888:1895  owner() */\n      jump\t// in\n    tag_147:\n        /* \"contracts/Marketplace2/Marketplace.sol\":1888:1911  owner() == _msgSender() */\n      0xffffffffffffffffffffffffffffffffffffffff\n      and\n      eq\n        /* \"contracts/Marketplace2/Marketplace.sol\":1880:1948  require(owner() == _msgSender(), \"Ownable: caller is not the owner\") */\n      tag_148\n      jumpi\n      mload(0x40)\n      0x08c379a000000000000000000000000000000000000000000000000000000000\n      dup2\n      mstore\n      0x04\n      add\n      tag_149\n      swap1\n      tag_150\n      jump\t// in\n    tag_149:\n      mload(0x40)\n      dup1\n      swap2\n      sub\n      swap1\n      revert\n    tag_148:\n        /* \"contracts/Marketplace2/Marketplace.sol\":18798:18806  _address */\n      dup1\n        /* \"contracts/Marketplace2/Marketplace.sol\":18779:18787  mainNFTs */\n      0x05\n      0x00\n        /* \"contracts/Marketplace2/Marketplace.sol\":18779:18807  mainNFTs = IERC721(_address) */\n      0x0100\n      exp\n      dup2\n      sload\n      dup2\n      0xffffffffffffffffffffffffffffffffffffffff\n      mul\n      not\n      and\n      swap1\n      dup4\n      0xffffffffffffffffffffffffffffffffffffffff\n      and\n      mul\n      or\n      swap1\n      sstore\n      pop\n        /* \"contracts/Marketplace2/Marketplace.sol\":18712:18814  function setMainNFT(address _address) external onlyOwner {... */\n      pop\n      jump\t// out\n        /* \"contracts/Marketplace2/Marketplace.sol\":18603:18707  function setMainToken(address _address) external onlyOwner {... */\n    tag_38:\n        /* \"contracts/Marketplace2/Marketplace.sol\":1899:1911  _msgSender() */\n      tag_153\n        /* \"contracts/Marketplace2/Marketplace.sol\":1899:1909  _msgSender */\n      tag_146\n        /* \"contracts/Marketplace2/Marketplace.sol\":1899:1911  _msgSender() */\n      jump\t// in\n    tag_153:\n        /* \"contracts/Marketplace2/Marketplace.sol\":1888:1911  owner() == _msgSender() */\n      0xffffffffffffffffffffffffffffffffffffffff\n      and\n        /* \"contracts/Marketplace2/Marketplace.sol\":1888:1895  owner() */\n      tag_154\n        /* \"contracts/Marketplace2/Marketplace.sol\":1888:1893  owner */\n      tag_69\n        /* \"contracts/Marketplace2/Marketplace.sol\":1888:1895  owner() */\n      jump\t// in\n    tag_154:\n        /* \"contracts/Marketplace2/Marketplace.sol\":1888:1911  owner() == _msgSender() */\n      0xffffffffffffffffffffffffffffffffffffffff\n      and\n      eq\n        /* \"contracts/Marketplace2/Marketplace.sol\":1880:1948  require(owner() == _msgSender(), \"Ownable: caller is not the owner\") */\n      tag_155\n      jumpi\n      mload(0x40)\n      0x08c379a000000000000000000000000000000000000000000000000000000000\n      dup2\n      mstore\n      0x04\n      add\n      tag_156\n      swap1\n      tag_150\n      jump\t// in\n    tag_156:\n      mload(0x40)\n      dup1\n      swap2\n      sub\n      swap1\n      revert\n    tag_155:\n        /* \"contracts/Marketplace2/Marketplace.sol\":18691:18699  _address */\n      dup1\n        /* \"contracts/Marketplace2/Marketplace.sol\":18672:18681  mainToken */\n      0x03\n      0x00\n        /* \"contracts/Marketplace2/Marketplace.sol\":18672:18700  mainToken = IERC20(_address) */\n      0x0100\n      exp\n      dup2\n      sload\n      dup2\n      0xffffffffffffffffffffffffffffffffffffffff\n      mul\n      not\n      and\n      swap1\n      dup4\n      0xffffffffffffffffffffffffffffffffffffffff\n      and\n      mul\n      or\n      swap1\n      sstore\n      pop\n        /* \"contracts/Marketplace2/Marketplace.sol\":18603:18707  function setMainToken(address _address) external onlyOwner {... */\n      pop\n      jump\t// out\n        /* \"contracts/Marketplace2/Marketplace.sol\":15944:16004  bytes4 public constant ERC721_Interface = bytes4(0x80ac58cd) */\n    tag_40:\n        /* \"contracts/Marketplace2/Marketplace.sol\":15993:16003  0x80ac58cd */\n      0x80ac58cd\n        /* \"contracts/Marketplace2/Marketplace.sol\":15986:16004  bytes4(0x80ac58cd) */\n      0xe0\n      shl\n        /* \"contracts/Marketplace2/Marketplace.sol\":15944:16004  bytes4 public constant ERC721_Interface = bytes4(0x80ac58cd) */\n      dup2\n      jump\t// out\n        /* \"contracts/Marketplace2/Marketplace.sol\":19224:19980  function createMarketItem(... */\n    tag_46:\n        /* \"contracts/Marketplace2/Marketplace.sol\":19323:19324  0 */\n      0x00\n        /* \"contracts/Marketplace2/Marketplace.sol\":19315:19320  price */\n      dup2\n        /* \"contracts/Marketplace2/Marketplace.sol\":19315:19324  price > 0 */\n      gt\n        /* \"contracts/Marketplace2/Marketplace.sol\":19307:19357  require(price > 0, \"Price must be at least 1 wei\") */\n      tag_159\n      jumpi\n      mload(0x40)\n      0x08c379a000000000000000000000000000000000000000000000000000000000\n      dup2\n      mstore\n      0x04\n      add\n      tag_160\n      swap1\n      tag_161\n      jump\t// in\n    tag_160:\n      mload(0x40)\n      dup1\n      swap2\n      sub\n      swap1\n      revert\n    tag_159:\n        /* \"contracts/Marketplace2/Marketplace.sol\":19363:19397  StructLib.ingameItems memory _item */\n      0x00\n        /* \"contracts/Marketplace2/Marketplace.sol\":19400:19407  factory */\n      0x04\n      0x00\n      swap1\n      sload\n      swap1\n      0x0100\n      exp\n      swap1\n      div\n      0xffffffffffffffffffffffffffffffffffffffff\n      and\n        /* \"contracts/Marketplace2/Marketplace.sol\":19400:19421  factory.getIngameItem */\n      0xffffffffffffffffffffffffffffffffffffffff\n      and\n      0x03ce1cb5\n        /* \"contracts/Marketplace2/Marketplace.sol\":19422:19429  tokenId */\n      dup5\n        /* \"contracts/Marketplace2/Marketplace.sol\":19400:19430  factory.getIngameItem(tokenId) */\n      mload(0x40)\n      dup3\n      0xffffffff\n      and\n      0xe0\n      shl\n      dup2\n      mstore\n      0x04\n      add\n      tag_162\n      swap2\n      swap1\n      tag_163\n      jump\t// in\n    tag_162:\n      0x00\n      mload(0x40)\n      dup1\n      dup4\n      sub\n      dup2\n      dup7\n      gas\n      staticcall\n      iszero\n      dup1\n      iszero\n      tag_165\n      jumpi\n      returndatasize\n      0x00\n      dup1\n      returndatacopy\n      revert(0x00, returndatasize)\n    tag_165:\n      pop\n      pop\n      pop\n      pop\n      mload(0x40)\n      returndatasize\n      0x00\n      dup3\n      returndatacopy\n      returndatasize\n      not(0x1f)\n      0x1f\n      dup3\n      add\n      and\n      dup3\n      add\n      dup1\n      0x40\n      mstore\n      pop\n      dup2\n      add\n      swap1\n      tag_166\n      swap2\n      swap1\n      tag_167\n      jump\t// in\n    tag_166:\n        /* \"contracts/Marketplace2/Marketplace.sol\":19363:19430  StructLib.ingameItems memory _item = factory.getIngameItem(tokenId) */\n      swap1\n      pop\n        /* \"contracts/Marketplace2/Marketplace.sol\":19460:19465  false */\n      0x00\n        /* \"contracts/Marketplace2/Marketplace.sol\":19444:19465  _item.ingame == false */\n      iszero\n      iszero\n        /* \"contracts/Marketplace2/Marketplace.sol\":19444:19449  _item */\n      dup2\n        /* \"contracts/Marketplace2/Marketplace.sol\":19444:19456  _item.ingame */\n      0x80\n      add\n      mload\n        /* \"contracts/Marketplace2/Marketplace.sol\":19444:19465  _item.ingame == false */\n      iszero\n      iszero\n      eq\n        /* \"contracts/Marketplace2/Marketplace.sol\":19436:19498  require(_item.ingame == false, \"Item is not available now !\" ) */\n      tag_168\n      jumpi\n      mload(0x40)\n      0x08c379a000000000000000000000000000000000000000000000000000000000\n      dup2\n      mstore\n      0x04\n      add\n      tag_169\n      swap1\n      tag_170\n      jump\t// in\n    tag_169:\n      mload(0x40)\n      dup1\n      swap2\n      sub\n      swap1\n      revert\n    tag_168:\n        /* \"contracts/Marketplace2/Marketplace.sol\":19504:19518  uint256 itemId */\n      0x00\n        /* \"contracts/Marketplace2/Marketplace.sol\":19521:19539  _itemIds.current() */\n      tag_171\n        /* \"contracts/Marketplace2/Marketplace.sol\":19521:19529  _itemIds */\n      0x07\n        /* \"contracts/Marketplace2/Marketplace.sol\":19521:19537  _itemIds.current */\n      tag_172\n        /* \"contracts/Marketplace2/Marketplace.sol\":19521:19539  _itemIds.current() */\n      jump\t// in\n    tag_171:\n        /* \"contracts/Marketplace2/Marketplace.sol\":19504:19539  uint256 itemId = _itemIds.current() */\n      swap1\n      pop\n        /* \"contracts/Marketplace2/Marketplace.sol\":19545:19552  factory */\n      0x04\n      0x00\n      swap1\n      sload\n      swap1\n      0x0100\n      exp\n      swap1\n      div\n      0xffffffffffffffffffffffffffffffffffffffff\n      and\n        /* \"contracts/Marketplace2/Marketplace.sol\":19545:19571  factory.setOwnerIngameItem */\n      0xffffffffffffffffffffffffffffffffffffffff\n      and\n      0xc1e9518a\n        /* \"contracts/Marketplace2/Marketplace.sol\":19580:19590  msg.sender */\n      caller\n        /* \"contracts/Marketplace2/Marketplace.sol\":19600:19604  this */\n      address\n        /* \"contracts/Marketplace2/Marketplace.sol\":19607:19614  tokenId */\n      dup8\n        /* \"contracts/Marketplace2/Marketplace.sol\":19545:19615  factory.setOwnerIngameItem(payable(msg.sender),address(this), tokenId) */\n      mload(0x40)\n      dup5\n      0xffffffff\n      and\n      0xe0\n      shl\n      dup2\n      mstore\n      0x04\n      add\n      tag_173\n      swap4\n      swap3\n      swap2\n      swap1\n      tag_174\n      jump\t// in\n    tag_173:\n      0x00\n      mload(0x40)\n      dup1\n      dup4\n      sub\n      dup2\n      0x00\n      dup8\n      dup1\n      extcodesize\n      iszero\n      dup1\n      iszero\n      tag_175\n      jumpi\n      0x00\n      dup1\n      revert\n    tag_175:\n      pop\n      gas\n      call\n      iszero\n      dup1\n      iszero\n      tag_177\n      jumpi\n      returndatasize\n      0x00\n      dup1\n      returndatacopy\n      revert(0x00, returndatasize)\n    tag_177:\n      pop\n      pop\n      pop\n      pop\n        /* \"contracts/Marketplace2/Marketplace.sol\":19621:19629  mainNFTs */\n      0x05\n      0x00\n      swap1\n      sload\n      swap1\n      0x0100\n      exp\n      swap1\n      div\n      0xffffffffffffffffffffffffffffffffffffffff\n      and\n        /* \"contracts/Marketplace2/Marketplace.sol\":19621:19642  mainNFTs.transferFrom */\n      0xffffffffffffffffffffffffffffffffffffffff\n      and\n      0x23b872dd\n        /* \"contracts/Marketplace2/Marketplace.sol\":19643:19653  msg.sender */\n      caller\n        /* \"contracts/Marketplace2/Marketplace.sol\":19663:19667  this */\n      address\n        /* \"contracts/Marketplace2/Marketplace.sol\":19670:19677  tokenId */\n      dup8\n        /* \"contracts/Marketplace2/Marketplace.sol\":19621:19678  mainNFTs.transferFrom(msg.sender, address(this), tokenId) */\n      mload(0x40)\n      dup5\n      0xffffffff\n      and\n      0xe0\n      shl\n      dup2\n      mstore\n      0x04\n      add\n      tag_178\n      swap4\n      swap3\n      swap2\n      swap1\n      tag_134\n      jump\t// in\n    tag_178:\n      0x00\n      mload(0x40)\n      dup1\n      dup4\n      sub\n      dup2\n      0x00\n      dup8\n      dup1\n      extcodesize\n      iszero\n      dup1\n      iszero\n      tag_179\n      jumpi\n      0x00\n      dup1\n      revert\n    tag_179:\n      pop\n      gas\n      call\n      iszero\n      dup1\n      iszero\n      tag_181\n      jumpi\n      returndatasize\n      0x00\n      dup1\n      returndatacopy\n      revert(0x00, returndatasize)\n    tag_181:\n      pop\n      pop\n      pop\n      pop\n        /* \"contracts/Marketplace2/Marketplace.sol\":19710:19833  MarketItem(... */\n      mload(0x40)\n      dup1\n      0xc0\n      add\n      0x40\n      mstore\n      dup1\n        /* \"contracts/Marketplace2/Marketplace.sol\":19728:19734  itemId */\n      dup3\n        /* \"contracts/Marketplace2/Marketplace.sol\":19710:19833  MarketItem(... */\n      dup2\n      mstore\n      0x20\n      add\n        /* \"contracts/Marketplace2/Marketplace.sol\":19742:19749  tokenId */\n      dup6\n        /* \"contracts/Marketplace2/Marketplace.sol\":19710:19833  MarketItem(... */\n      dup2\n      mstore\n      0x20\n      add\n        /* \"contracts/Marketplace2/Marketplace.sol\":19757:19767  msg.sender */\n      caller\n        /* \"contracts/Marketplace2/Marketplace.sol\":19710:19833  MarketItem(... */\n      0xffffffffffffffffffffffffffffffffffffffff\n      and\n      dup2\n      mstore\n      0x20\n      add\n        /* \"contracts/Marketplace2/Marketplace.sol\":19783:19787  this */\n      address\n        /* \"contracts/Marketplace2/Marketplace.sol\":19710:19833  MarketItem(... */\n      0xffffffffffffffffffffffffffffffffffffffff\n      and\n      dup2\n      mstore\n      0x20\n      add\n        /* \"contracts/Marketplace2/Marketplace.sol\":19796:19801  price */\n      dup5\n        /* \"contracts/Marketplace2/Marketplace.sol\":19710:19833  MarketItem(... */\n      dup2\n      mstore\n      0x20\n      add\n        /* \"contracts/Marketplace2/Marketplace.sol\":19809:19827  ItemStatus.SELLING */\n      0x01\n        /* \"contracts/Marketplace2/Marketplace.sol\":19710:19833  MarketItem(... */\n      dup1\n      dup2\n      gt\n      iszero\n      tag_182\n      jumpi\n      tag_183\n      tag_114\n      jump\t// in\n    tag_183:\n    tag_182:\n      dup2\n      mstore\n      pop\n        /* \"contracts/Marketplace2/Marketplace.sol\":19684:19698  idToMarketItem */\n      0x09\n        /* \"contracts/Marketplace2/Marketplace.sol\":19684:19706  idToMarketItem[itemId] */\n      0x00\n        /* \"contracts/Marketplace2/Marketplace.sol\":19699:19705  itemId */\n      dup4\n        /* \"contracts/Marketplace2/Marketplace.sol\":19684:19706  idToMarketItem[itemId] */\n      dup2\n      mstore\n      0x20\n      add\n      swap1\n      dup2\n      mstore\n      0x20\n      add\n      0x00\n      keccak256\n        /* \"contracts/Marketplace2/Marketplace.sol\":19684:19833  idToMarketItem[itemId] =  MarketItem(... */\n      0x00\n      dup3\n      add\n      mload\n      dup2\n      0x00\n      add\n      sstore\n      0x20\n      dup3\n      add\n      mload\n      dup2\n      0x01\n      add\n      sstore\n      0x40\n      dup3\n      add\n      mload\n      dup2\n      0x02\n      add\n      exp(0x0100, 0x00)\n      dup2\n      sload\n      dup2\n      0xffffffffffffffffffffffffffffffffffffffff\n      mul\n      not\n      and\n      swap1\n      dup4\n      0xffffffffffffffffffffffffffffffffffffffff\n      and\n      mul\n      or\n      swap1\n      sstore\n      pop\n      0x60\n      dup3\n      add\n      mload\n      dup2\n      0x03\n      add\n      exp(0x0100, 0x00)\n      dup2\n      sload\n      dup2\n      0xffffffffffffffffffffffffffffffffffffffff\n      mul\n      not\n      and\n      swap1\n      dup4\n      0xffffffffffffffffffffffffffffffffffffffff\n      and\n      mul\n      or\n      swap1\n      sstore\n      pop\n      0x80\n      dup3\n      add\n      mload\n      dup2\n      0x04\n      add\n      sstore\n      0xa0\n      dup3\n      add\n      mload\n      dup2\n      0x05\n      add\n      exp(0x0100, 0x00)\n      dup2\n      sload\n      dup2\n      0xff\n      mul\n      not\n      and\n      swap1\n      dup4\n      0x01\n      dup2\n      gt\n      iszero\n      tag_184\n      jumpi\n      tag_185\n      tag_114\n      jump\t// in\n    tag_185:\n    tag_184:\n      mul\n      or\n      swap1\n      sstore\n      pop\n      swap1\n      pop\n      pop\n        /* \"contracts/Marketplace2/Marketplace.sol\":19839:19859  _itemIds.increment() */\n      tag_186\n        /* \"contracts/Marketplace2/Marketplace.sol\":19839:19847  _itemIds */\n      0x07\n        /* \"contracts/Marketplace2/Marketplace.sol\":19839:19857  _itemIds.increment */\n      tag_187\n        /* \"contracts/Marketplace2/Marketplace.sol\":19839:19859  _itemIds.increment() */\n      jump\t// in\n    tag_186:\n        /* \"contracts/Marketplace2/Marketplace.sol\":19910:19917  tokenId */\n      dup4\n        /* \"contracts/Marketplace2/Marketplace.sol\":19896:19902  itemId */\n      dup2\n        /* \"contracts/Marketplace2/Marketplace.sol\":19871:19975  MarketItemCreated(... */\n      0x38690a554ffbc44eb6a75016e47d517d0db8e6c37494adc68d6d0b2c66f0ab21\n        /* \"contracts/Marketplace2/Marketplace.sol\":19925:19935  msg.sender */\n      caller\n        /* \"contracts/Marketplace2/Marketplace.sol\":19951:19955  this */\n      address\n        /* \"contracts/Marketplace2/Marketplace.sol\":19964:19969  price */\n      dup8\n        /* \"contracts/Marketplace2/Marketplace.sol\":19871:19975  MarketItemCreated(... */\n      mload(0x40)\n      tag_188\n      swap4\n      swap3\n      swap2\n      swap1\n      tag_134\n      jump\t// in\n    tag_188:\n      mload(0x40)\n      dup1\n      swap2\n      sub\n      swap1\n      log3\n        /* \"contracts/Marketplace2/Marketplace.sol\":19301:19980  {... */\n      pop\n      pop\n        /* \"contracts/Marketplace2/Marketplace.sol\":19224:19980  function createMarketItem(... */\n      pop\n      pop\n      jump\t// out\n        /* \"contracts/Marketplace2/Marketplace.sol\":16208:16231  IERC20 public mainToken */\n    tag_48:\n      0x03\n      0x00\n      swap1\n      sload\n      swap1\n      0x0100\n      exp\n      swap1\n      div\n      0xffffffffffffffffffffffffffffffffffffffff\n      and\n      dup2\n      jump\t// out\n        /* \"contracts/Marketplace2/Marketplace.sol\":17598:18454  function getMarketItem() public view returns(MarketItem[] memory) { ... */\n    tag_52:\n        /* \"contracts/Marketplace2/Marketplace.sol\":17643:17662  MarketItem[] memory */\n      0x60\n        /* \"contracts/Marketplace2/Marketplace.sol\":17679:17698  uint totalItemCount */\n      0x00\n        /* \"contracts/Marketplace2/Marketplace.sol\":17701:17719  _itemIds.current() */\n      tag_190\n        /* \"contracts/Marketplace2/Marketplace.sol\":17701:17709  _itemIds */\n      0x07\n        /* \"contracts/Marketplace2/Marketplace.sol\":17701:17717  _itemIds.current */\n      tag_172\n        /* \"contracts/Marketplace2/Marketplace.sol\":17701:17719  _itemIds.current() */\n      jump\t// in\n    tag_190:\n        /* \"contracts/Marketplace2/Marketplace.sol\":17679:17719  uint totalItemCount = _itemIds.current() */\n      swap1\n      pop\n        /* \"contracts/Marketplace2/Marketplace.sol\":17733:17747  uint itemCount */\n      0x00\n        /* \"contracts/Marketplace2/Marketplace.sol\":17765:17782  uint currentIndex */\n      dup1\n        /* \"contracts/Marketplace2/Marketplace.sol\":17816:17822  uint i */\n      0x00\n        /* \"contracts/Marketplace2/Marketplace.sol\":17811:17988  for (uint i = 0; i < totalItemCount; i++) {... */\n    tag_191:\n        /* \"contracts/Marketplace2/Marketplace.sol\":17832:17846  totalItemCount */\n      dup4\n        /* \"contracts/Marketplace2/Marketplace.sol\":17828:17829  i */\n      dup2\n        /* \"contracts/Marketplace2/Marketplace.sol\":17828:17846  i < totalItemCount */\n      lt\n        /* \"contracts/Marketplace2/Marketplace.sol\":17811:17988  for (uint i = 0; i < totalItemCount; i++) {... */\n      iszero\n      tag_192\n      jumpi\n        /* \"contracts/Marketplace2/Marketplace.sol\":17903:17921  ItemStatus.SELLING */\n      0x01\n        /* \"contracts/Marketplace2/Marketplace.sol\":17875:17921  idToMarketItem[i].status == ItemStatus.SELLING */\n      dup1\n      dup2\n      gt\n      iszero\n      tag_194\n      jumpi\n      tag_195\n      tag_114\n      jump\t// in\n    tag_195:\n    tag_194:\n        /* \"contracts/Marketplace2/Marketplace.sol\":17875:17889  idToMarketItem */\n      0x09\n        /* \"contracts/Marketplace2/Marketplace.sol\":17875:17892  idToMarketItem[i] */\n      0x00\n        /* \"contracts/Marketplace2/Marketplace.sol\":17890:17891  i */\n      dup4\n        /* \"contracts/Marketplace2/Marketplace.sol\":17875:17892  idToMarketItem[i] */\n      dup2\n      mstore\n      0x20\n      add\n      swap1\n      dup2\n      mstore\n      0x20\n      add\n      0x00\n      keccak256\n        /* \"contracts/Marketplace2/Marketplace.sol\":17875:17899  idToMarketItem[i].status */\n      0x05\n      add\n      0x00\n      swap1\n      sload\n      swap1\n      0x0100\n      exp\n      swap1\n      div\n      0xff\n      and\n        /* \"contracts/Marketplace2/Marketplace.sol\":17875:17921  idToMarketItem[i].status == ItemStatus.SELLING */\n      0x01\n      dup2\n      gt\n      iszero\n      tag_196\n      jumpi\n      tag_197\n      tag_114\n      jump\t// in\n    tag_197:\n    tag_196:\n      sub\n        /* \"contracts/Marketplace2/Marketplace.sol\":17871:17974  if (idToMarketItem[i].status == ItemStatus.SELLING) {... */\n      tag_198\n      jumpi\n        /* \"contracts/Marketplace2/Marketplace.sol\":17954:17955  1 */\n      0x01\n        /* \"contracts/Marketplace2/Marketplace.sol\":17941:17955  itemCount += 1 */\n      dup4\n      tag_199\n      swap2\n      swap1\n      tag_200\n      jump\t// in\n    tag_199:\n      swap3\n      pop\n        /* \"contracts/Marketplace2/Marketplace.sol\":17871:17974  if (idToMarketItem[i].status == ItemStatus.SELLING) {... */\n    tag_198:\n        /* \"contracts/Marketplace2/Marketplace.sol\":17848:17851  i++ */\n      dup1\n      dup1\n      tag_201\n      swap1\n      tag_202\n      jump\t// in\n    tag_201:\n      swap2\n      pop\n      pop\n        /* \"contracts/Marketplace2/Marketplace.sol\":17811:17988  for (uint i = 0; i < totalItemCount; i++) {... */\n      jump(tag_191)\n    tag_192:\n      pop\n        /* \"contracts/Marketplace2/Marketplace.sol\":18001:18026  MarketItem[] memory items */\n      0x00\n        /* \"contracts/Marketplace2/Marketplace.sol\":18046:18055  itemCount */\n      dup3\n        /* \"contracts/Marketplace2/Marketplace.sol\":18029:18056  new MarketItem[](itemCount) */\n      0xffffffffffffffff\n      dup2\n      gt\n      iszero\n      tag_203\n      jumpi\n      tag_204\n      tag_205\n      jump\t// in\n    tag_204:\n    tag_203:\n      mload(0x40)\n      swap1\n      dup1\n      dup3\n      mstore\n      dup1\n      0x20\n      mul\n      0x20\n      add\n      dup3\n      add\n      0x40\n      mstore\n      dup1\n      iszero\n      tag_206\n      jumpi\n      dup2\n      0x20\n      add\n    tag_207:\n      tag_208\n      tag_209\n      jump\t// in\n    tag_208:\n      dup2\n      mstore\n      0x20\n      add\n      swap1\n      0x01\n      swap1\n      sub\n      swap1\n      dup2\n      tag_207\n      jumpi\n      swap1\n      pop\n    tag_206:\n      pop\n        /* \"contracts/Marketplace2/Marketplace.sol\":18001:18056  MarketItem[] memory items = new MarketItem[](itemCount) */\n      swap1\n      pop\n        /* \"contracts/Marketplace2/Marketplace.sol\":18075:18081  uint i */\n      0x00\n        /* \"contracts/Marketplace2/Marketplace.sol\":18070:18426  for (uint i = 0; i < totalItemCount; i++) {... */\n    tag_210:\n        /* \"contracts/Marketplace2/Marketplace.sol\":18091:18105  totalItemCount */\n      dup5\n        /* \"contracts/Marketplace2/Marketplace.sol\":18087:18088  i */\n      dup2\n        /* \"contracts/Marketplace2/Marketplace.sol\":18087:18105  i < totalItemCount */\n      lt\n        /* \"contracts/Marketplace2/Marketplace.sol\":18070:18426  for (uint i = 0; i < totalItemCount; i++) {... */\n      iszero\n      tag_211\n      jumpi\n        /* \"contracts/Marketplace2/Marketplace.sol\":18159:18177  ItemStatus.SELLING */\n      0x01\n        /* \"contracts/Marketplace2/Marketplace.sol\":18131:18177  idToMarketItem[i].status == ItemStatus.SELLING */\n      dup1\n      dup2\n      gt\n      iszero\n      tag_213\n      jumpi\n      tag_214\n      tag_114\n      jump\t// in\n    tag_214:\n    tag_213:\n        /* \"contracts/Marketplace2/Marketplace.sol\":18131:18145  idToMarketItem */\n      0x09\n        /* \"contracts/Marketplace2/Marketplace.sol\":18131:18148  idToMarketItem[i] */\n      0x00\n        /* \"contracts/Marketplace2/Marketplace.sol\":18146:18147  i */\n      dup4\n        /* \"contracts/Marketplace2/Marketplace.sol\":18131:18148  idToMarketItem[i] */\n      dup2\n      mstore\n      0x20\n      add\n      swap1\n      dup2\n      mstore\n      0x20\n      add\n      0x00\n      keccak256\n        /* \"contracts/Marketplace2/Marketplace.sol\":18131:18155  idToMarketItem[i].status */\n      0x05\n      add\n      0x00\n      swap1\n      sload\n      swap1\n      0x0100\n      exp\n      swap1\n      div\n      0xff\n      and\n        /* \"contracts/Marketplace2/Marketplace.sol\":18131:18177  idToMarketItem[i].status == ItemStatus.SELLING */\n      0x01\n      dup2\n      gt\n      iszero\n      tag_215\n      jumpi\n      tag_216\n      tag_114\n      jump\t// in\n    tag_216:\n    tag_215:\n      sub\n        /* \"contracts/Marketplace2/Marketplace.sol\":18126:18416  if ( idToMarketItem[i].status == ItemStatus.SELLING) {... */\n      tag_217\n      jumpi\n        /* \"contracts/Marketplace2/Marketplace.sol\":18198:18212  uint currentId */\n      0x00\n        /* \"contracts/Marketplace2/Marketplace.sol\":18215:18229  idToMarketItem */\n      0x09\n        /* \"contracts/Marketplace2/Marketplace.sol\":18215:18232  idToMarketItem[i] */\n      0x00\n        /* \"contracts/Marketplace2/Marketplace.sol\":18230:18231  i */\n      dup4\n        /* \"contracts/Marketplace2/Marketplace.sol\":18215:18232  idToMarketItem[i] */\n      dup2\n      mstore\n      0x20\n      add\n      swap1\n      dup2\n      mstore\n      0x20\n      add\n      0x00\n      keccak256\n        /* \"contracts/Marketplace2/Marketplace.sol\":18215:18239  idToMarketItem[i].itemId */\n      0x00\n      add\n      sload\n        /* \"contracts/Marketplace2/Marketplace.sol\":18198:18239  uint currentId = idToMarketItem[i].itemId */\n      swap1\n      pop\n        /* \"contracts/Marketplace2/Marketplace.sol\":18257:18287  MarketItem storage currentItem */\n      0x00\n        /* \"contracts/Marketplace2/Marketplace.sol\":18290:18304  idToMarketItem */\n      0x09\n        /* \"contracts/Marketplace2/Marketplace.sol\":18290:18315  idToMarketItem[currentId] */\n      0x00\n        /* \"contracts/Marketplace2/Marketplace.sol\":18305:18314  currentId */\n      dup4\n        /* \"contracts/Marketplace2/Marketplace.sol\":18290:18315  idToMarketItem[currentId] */\n      dup2\n      mstore\n      0x20\n      add\n      swap1\n      dup2\n      mstore\n      0x20\n      add\n      0x00\n      keccak256\n        /* \"contracts/Marketplace2/Marketplace.sol\":18257:18315  MarketItem storage currentItem = idToMarketItem[currentId] */\n      swap1\n      pop\n        /* \"contracts/Marketplace2/Marketplace.sol\":18355:18366  currentItem */\n      dup1\n        /* \"contracts/Marketplace2/Marketplace.sol\":18333:18366  items[currentIndex] = currentItem */\n      mload(0x40)\n      dup1\n      0xc0\n      add\n      0x40\n      mstore\n      swap1\n      dup2\n      0x00\n      dup3\n      add\n      sload\n      dup2\n      mstore\n      0x20\n      add\n      0x01\n      dup3\n      add\n      sload\n      dup2\n      mstore\n      0x20\n      add\n      0x02\n      dup3\n      add\n      0x00\n      swap1\n      sload\n      swap1\n      0x0100\n      exp\n      swap1\n      div\n      0xffffffffffffffffffffffffffffffffffffffff\n      and\n      0xffffffffffffffffffffffffffffffffffffffff\n      and\n      0xffffffffffffffffffffffffffffffffffffffff\n      and\n      dup2\n      mstore\n      0x20\n      add\n      0x03\n      dup3\n      add\n      0x00\n      swap1\n      sload\n      swap1\n      0x0100\n      exp\n      swap1\n      div\n      0xffffffffffffffffffffffffffffffffffffffff\n      and\n      0xffffffffffffffffffffffffffffffffffffffff\n      and\n      0xffffffffffffffffffffffffffffffffffffffff\n      and\n      dup2\n      mstore\n      0x20\n      add\n      0x04\n      dup3\n      add\n      sload\n      dup2\n      mstore\n      0x20\n      add\n      0x05\n      dup3\n      add\n      0x00\n      swap1\n      sload\n      swap1\n      0x0100\n      exp\n      swap1\n      div\n      0xff\n      and\n      0x01\n      dup2\n      gt\n      iszero\n      tag_218\n      jumpi\n      tag_219\n      tag_114\n      jump\t// in\n    tag_219:\n    tag_218:\n      0x01\n      dup2\n      gt\n      iszero\n      tag_220\n      jumpi\n      tag_221\n      tag_114\n      jump\t// in\n    tag_221:\n    tag_220:\n      dup2\n      mstore\n      pop\n      pop\n        /* \"contracts/Marketplace2/Marketplace.sol\":18333:18338  items */\n      dup5\n        /* \"contracts/Marketplace2/Marketplace.sol\":18339:18351  currentIndex */\n      dup7\n        /* \"contracts/Marketplace2/Marketplace.sol\":18333:18352  items[currentIndex] */\n      dup2\n      mload\n      dup2\n      lt\n      tag_222\n      jumpi\n      tag_223\n      tag_224\n      jump\t// in\n    tag_223:\n    tag_222:\n      0x20\n      mul\n      0x20\n      add\n      add\n        /* \"contracts/Marketplace2/Marketplace.sol\":18333:18366  items[currentIndex] = currentItem */\n      dup2\n      swap1\n      mstore\n      pop\n        /* \"contracts/Marketplace2/Marketplace.sol\":18400:18401  1 */\n      0x01\n        /* \"contracts/Marketplace2/Marketplace.sol\":18384:18401  currentIndex += 1 */\n      dup6\n      tag_225\n      swap2\n      swap1\n      tag_200\n      jump\t// in\n    tag_225:\n      swap5\n      pop\n        /* \"contracts/Marketplace2/Marketplace.sol\":18179:18416  {... */\n      pop\n      pop\n        /* \"contracts/Marketplace2/Marketplace.sol\":18126:18416  if ( idToMarketItem[i].status == ItemStatus.SELLING) {... */\n    tag_217:\n        /* \"contracts/Marketplace2/Marketplace.sol\":18107:18110  i++ */\n      dup1\n      dup1\n      tag_226\n      swap1\n      tag_202\n      jump\t// in\n    tag_226:\n      swap2\n      pop\n      pop\n        /* \"contracts/Marketplace2/Marketplace.sol\":18070:18426  for (uint i = 0; i < totalItemCount; i++) {... */\n      jump(tag_210)\n    tag_211:\n      pop\n        /* \"contracts/Marketplace2/Marketplace.sol\":18442:18447  items */\n      dup1\n        /* \"contracts/Marketplace2/Marketplace.sol\":18435:18447  return items */\n      swap5\n      pop\n      pop\n      pop\n      pop\n      pop\n        /* \"contracts/Marketplace2/Marketplace.sol\":17598:18454  function getMarketItem() public view returns(MarketItem[] memory) { ... */\n      swap1\n      jump\t// out\n        /* \"contracts/Marketplace2/Marketplace.sol\":18819:18921  function setFactory(address _address) external onlyOwner {... */\n    tag_57:\n        /* \"contracts/Marketplace2/Marketplace.sol\":1899:1911  _msgSender() */\n      tag_228\n        /* \"contracts/Marketplace2/Marketplace.sol\":1899:1909  _msgSender */\n      tag_146\n        /* \"contracts/Marketplace2/Marketplace.sol\":1899:1911  _msgSender() */\n      jump\t// in\n    tag_228:\n        /* \"contracts/Marketplace2/Marketplace.sol\":1888:1911  owner() == _msgSender() */\n      0xffffffffffffffffffffffffffffffffffffffff\n      and\n        /* \"contracts/Marketplace2/Marketplace.sol\":1888:1895  owner() */\n      tag_229\n        /* \"contracts/Marketplace2/Marketplace.sol\":1888:1893  owner */\n      tag_69\n        /* \"contracts/Marketplace2/Marketplace.sol\":1888:1895  owner() */\n      jump\t// in\n    tag_229:\n        /* \"contracts/Marketplace2/Marketplace.sol\":1888:1911  owner() == _msgSender() */\n      0xffffffffffffffffffffffffffffffffffffffff\n      and\n      eq\n        /* \"contracts/Marketplace2/Marketplace.sol\":1880:1948  require(owner() == _msgSender(), \"Ownable: caller is not the owner\") */\n      tag_230\n      jumpi\n      mload(0x40)\n      0x08c379a000000000000000000000000000000000000000000000000000000000\n      dup2\n      mstore\n      0x04\n      add\n      tag_231\n      swap1\n      tag_150\n      jump\t// in\n    tag_231:\n      mload(0x40)\n      dup1\n      swap2\n      sub\n      swap1\n      revert\n    tag_230:\n        /* \"contracts/Marketplace2/Marketplace.sol\":18905:18913  _address */\n      dup1\n        /* \"contracts/Marketplace2/Marketplace.sol\":18886:18893  factory */\n      0x04\n      0x00\n        /* \"contracts/Marketplace2/Marketplace.sol\":18886:18914  factory = IFactory(_address) */\n      0x0100\n      exp\n      dup2\n      sload\n      dup2\n      0xffffffffffffffffffffffffffffffffffffffff\n      mul\n      not\n      and\n      swap1\n      dup4\n      0xffffffffffffffffffffffffffffffffffffffff\n      and\n      mul\n      or\n      swap1\n      sstore\n      pop\n        /* \"contracts/Marketplace2/Marketplace.sol\":18819:18921  function setFactory(address _address) external onlyOwner {... */\n      pop\n      jump\t// out\n        /* \"contracts/Marketplace2/Marketplace.sol\":2308:2409  function renounceOwnership() public virtual onlyOwner {... */\n    tag_59:\n        /* \"contracts/Marketplace2/Marketplace.sol\":1899:1911  _msgSender() */\n      tag_234\n        /* \"contracts/Marketplace2/Marketplace.sol\":1899:1909  _msgSender */\n      tag_146\n        /* \"contracts/Marketplace2/Marketplace.sol\":1899:1911  _msgSender() */\n      jump\t// in\n    tag_234:\n        /* \"contracts/Marketplace2/Marketplace.sol\":1888:1911  owner() == _msgSender() */\n      0xffffffffffffffffffffffffffffffffffffffff\n      and\n        /* \"contracts/Marketplace2/Marketplace.sol\":1888:1895  owner() */\n      tag_235\n        /* \"contracts/Marketplace2/Marketplace.sol\":1888:1893  owner */\n      tag_69\n        /* \"contracts/Marketplace2/Marketplace.sol\":1888:1895  owner() */\n      jump\t// in\n    tag_235:\n        /* \"contracts/Marketplace2/Marketplace.sol\":1888:1911  owner() == _msgSender() */\n      0xffffffffffffffffffffffffffffffffffffffff\n      and\n      eq\n        /* \"contracts/Marketplace2/Marketplace.sol\":1880:1948  require(owner() == _msgSender(), \"Ownable: caller is not the owner\") */\n      tag_236\n      jumpi\n      mload(0x40)\n      0x08c379a000000000000000000000000000000000000000000000000000000000\n      dup2\n      mstore\n      0x04\n      add\n      tag_237\n      swap1\n      tag_150\n      jump\t// in\n    tag_237:\n      mload(0x40)\n      dup1\n      swap2\n      sub\n      swap1\n      revert\n    tag_236:\n        /* \"contracts/Marketplace2/Marketplace.sol\":2372:2402  _transferOwnership(address(0)) */\n      tag_239\n        /* \"contracts/Marketplace2/Marketplace.sol\":2399:2400  0 */\n      0x00\n        /* \"contracts/Marketplace2/Marketplace.sol\":2372:2390  _transferOwnership */\n      tag_240\n        /* \"contracts/Marketplace2/Marketplace.sol\":2372:2402  _transferOwnership(address(0)) */\n      jump\t// in\n    tag_239:\n        /* \"contracts/Marketplace2/Marketplace.sol\":2308:2409  function renounceOwnership() public virtual onlyOwner {... */\n      jump\t// out\n        /* \"contracts/Marketplace2/Marketplace.sol\":16296:16322  uint8 public bnbFeePercent */\n    tag_61:\n      0x05\n      0x14\n      swap1\n      sload\n      swap1\n      0x0100\n      exp\n      swap1\n      div\n      0xff\n      and\n      dup2\n      jump\t// out\n        /* \"contracts/Marketplace2/Marketplace.sol\":21800:22126  function _safeBuyItem(uint256 itemId,uint256 amount, uint256 tokenId ) public { ... */\n    tag_67:\n        /* \"contracts/Marketplace2/Marketplace.sol\":21889:21898  mainToken */\n      0x03\n      0x00\n      swap1\n      sload\n      swap1\n      0x0100\n      exp\n      swap1\n      div\n      0xffffffffffffffffffffffffffffffffffffffff\n      and\n        /* \"contracts/Marketplace2/Marketplace.sol\":21889:21911  mainToken.transferFrom */\n      0xffffffffffffffffffffffffffffffffffffffff\n      and\n      0x23b872dd\n        /* \"contracts/Marketplace2/Marketplace.sol\":21912:21922  msg.sender */\n      caller\n        /* \"contracts/Marketplace2/Marketplace.sol\":21924:21938  idToMarketItem */\n      0x09\n        /* \"contracts/Marketplace2/Marketplace.sol\":21924:21946  idToMarketItem[itemId] */\n      0x00\n        /* \"contracts/Marketplace2/Marketplace.sol\":21939:21945  itemId */\n      dup8\n        /* \"contracts/Marketplace2/Marketplace.sol\":21924:21946  idToMarketItem[itemId] */\n      dup2\n      mstore\n      0x20\n      add\n      swap1\n      dup2\n      mstore\n      0x20\n      add\n      0x00\n      keccak256\n        /* \"contracts/Marketplace2/Marketplace.sol\":21924:21953  idToMarketItem[itemId].seller */\n      0x02\n      add\n      0x00\n      swap1\n      sload\n      swap1\n      0x0100\n      exp\n      swap1\n      div\n      0xffffffffffffffffffffffffffffffffffffffff\n      and\n        /* \"contracts/Marketplace2/Marketplace.sol\":21956:21962  amount */\n      dup6\n        /* \"contracts/Marketplace2/Marketplace.sol\":21889:21963  mainToken.transferFrom(msg.sender, idToMarketItem[itemId].seller , amount) */\n      mload(0x40)\n      dup5\n      0xffffffff\n      and\n      0xe0\n      shl\n      dup2\n      mstore\n      0x04\n      add\n      tag_242\n      swap4\n      swap3\n      swap2\n      swap1\n      tag_134\n      jump\t// in\n    tag_242:\n      0x20\n      mload(0x40)\n      dup1\n      dup4\n      sub\n      dup2\n      0x00\n      dup8\n      gas\n      call\n      iszero\n      dup1\n      iszero\n      tag_244\n      jumpi\n      returndatasize\n      0x00\n      dup1\n      returndatacopy\n      revert(0x00, returndatasize)\n    tag_244:\n      pop\n      pop\n      pop\n      pop\n      mload(0x40)\n      returndatasize\n      not(0x1f)\n      0x1f\n      dup3\n      add\n      and\n      dup3\n      add\n      dup1\n      0x40\n      mstore\n      pop\n      dup2\n      add\n      swap1\n      tag_245\n      swap2\n      swap1\n      tag_246\n      jump\t// in\n    tag_245:\n      pop\n        /* \"contracts/Marketplace2/Marketplace.sol\":21973:21980  factory */\n      0x04\n      0x00\n      swap1\n      sload\n      swap1\n      0x0100\n      exp\n      swap1\n      div\n      0xffffffffffffffffffffffffffffffffffffffff\n      and\n        /* \"contracts/Marketplace2/Marketplace.sol\":21973:21999  factory.setOwnerIngameItem */\n      0xffffffffffffffffffffffffffffffffffffffff\n      and\n      0xc1e9518a\n        /* \"contracts/Marketplace2/Marketplace.sol\":22008:22018  msg.sender */\n      caller\n        /* \"contracts/Marketplace2/Marketplace.sol\":22028:22032  this */\n      address\n        /* \"contracts/Marketplace2/Marketplace.sol\":22035:22042  tokenId */\n      dup5\n        /* \"contracts/Marketplace2/Marketplace.sol\":21973:22043  factory.setOwnerIngameItem(payable(msg.sender),address(this), tokenId) */\n      mload(0x40)\n      dup5\n      0xffffffff\n      and\n      0xe0\n      shl\n      dup2\n      mstore\n      0x04\n      add\n      tag_247\n      swap4\n      swap3\n      swap2\n      swap1\n      tag_174\n      jump\t// in\n    tag_247:\n      0x00\n      mload(0x40)\n      dup1\n      dup4\n      sub\n      dup2\n      0x00\n      dup8\n      dup1\n      extcodesize\n      iszero\n      dup1\n      iszero\n      tag_248\n      jumpi\n      0x00\n      dup1\n      revert\n    tag_248:\n      pop\n      gas\n      call\n      iszero\n      dup1\n      iszero\n      tag_250\n      jumpi\n      returndatasize\n      0x00\n      dup1\n      returndatacopy\n      revert(0x00, returndatasize)\n    tag_250:\n      pop\n      pop\n      pop\n      pop\n        /* \"contracts/Marketplace2/Marketplace.sol\":22053:22061  mainNFTs */\n      0x05\n      0x00\n      swap1\n      sload\n      swap1\n      0x0100\n      exp\n      swap1\n      div\n      0xffffffffffffffffffffffffffffffffffffffff\n      and\n        /* \"contracts/Marketplace2/Marketplace.sol\":22053:22074  mainNFTs.transferFrom */\n      0xffffffffffffffffffffffffffffffffffffffff\n      and\n      0x23b872dd\n        /* \"contracts/Marketplace2/Marketplace.sol\":22083:22087  this */\n      address\n        /* \"contracts/Marketplace2/Marketplace.sol\":22098:22108  msg.sender */\n      caller\n        /* \"contracts/Marketplace2/Marketplace.sol\":22111:22118  tokenId */\n      dup5\n        /* \"contracts/Marketplace2/Marketplace.sol\":22053:22119  mainNFTs.transferFrom(address(this), address(msg.sender), tokenId) */\n      mload(0x40)\n      dup5\n      0xffffffff\n      and\n      0xe0\n      shl\n      dup2\n      mstore\n      0x04\n      add\n      tag_251\n      swap4\n      swap3\n      swap2\n      swap1\n      tag_134\n      jump\t// in\n    tag_251:\n      0x00\n      mload(0x40)\n      dup1\n      dup4\n      sub\n      dup2\n      0x00\n      dup8\n      dup1\n      extcodesize\n      iszero\n      dup1\n      iszero\n      tag_252\n      jumpi\n      0x00\n      dup1\n      revert\n    tag_252:\n      pop\n      gas\n      call\n      iszero\n      dup1\n      iszero\n      tag_254\n      jumpi\n      returndatasize\n      0x00\n      dup1\n      returndatacopy\n      revert(0x00, returndatasize)\n    tag_254:\n      pop\n      pop\n      pop\n      pop\n        /* \"contracts/Marketplace2/Marketplace.sol\":21800:22126  function _safeBuyItem(uint256 itemId,uint256 amount, uint256 tokenId ) public { ... */\n      pop\n      pop\n      pop\n      jump\t// out\n        /* \"contracts/Marketplace2/Marketplace.sol\":1676:1761  function owner() public view virtual returns (address) {... */\n    tag_69:\n        /* \"contracts/Marketplace2/Marketplace.sol\":1722:1729  address */\n      0x00\n        /* \"contracts/Marketplace2/Marketplace.sol\":1748:1754  _owner */\n      0x06\n      0x00\n      swap1\n      sload\n      swap1\n      0x0100\n      exp\n      swap1\n      div\n      0xffffffffffffffffffffffffffffffffffffffff\n      and\n        /* \"contracts/Marketplace2/Marketplace.sol\":1741:1754  return _owner */\n      swap1\n      pop\n        /* \"contracts/Marketplace2/Marketplace.sol\":1676:1761  function owner() public view virtual returns (address) {... */\n      swap1\n      jump\t// out\n        /* \"contracts/Marketplace2/Marketplace.sol\":19983:20800  function createMarketSale(... */\n    tag_74:\n        /* \"contracts/Marketplace2/Marketplace.sol\":20068:20078  uint price */\n      0x00\n        /* \"contracts/Marketplace2/Marketplace.sol\":20081:20095  idToMarketItem */\n      0x09\n        /* \"contracts/Marketplace2/Marketplace.sol\":20081:20103  idToMarketItem[itemId] */\n      0x00\n        /* \"contracts/Marketplace2/Marketplace.sol\":20096:20102  itemId */\n      dup5\n        /* \"contracts/Marketplace2/Marketplace.sol\":20081:20103  idToMarketItem[itemId] */\n      dup2\n      mstore\n      0x20\n      add\n      swap1\n      dup2\n      mstore\n      0x20\n      add\n      0x00\n      keccak256\n        /* \"contracts/Marketplace2/Marketplace.sol\":20081:20109  idToMarketItem[itemId].price */\n      0x04\n      add\n      sload\n        /* \"contracts/Marketplace2/Marketplace.sol\":20068:20109  uint price = idToMarketItem[itemId].price */\n      swap1\n      pop\n        /* \"contracts/Marketplace2/Marketplace.sol\":20115:20127  uint tokenId */\n      0x00\n        /* \"contracts/Marketplace2/Marketplace.sol\":20130:20144  idToMarketItem */\n      0x09\n        /* \"contracts/Marketplace2/Marketplace.sol\":20130:20152  idToMarketItem[itemId] */\n      0x00\n        /* \"contracts/Marketplace2/Marketplace.sol\":20145:20151  itemId */\n      dup6\n        /* \"contracts/Marketplace2/Marketplace.sol\":20130:20152  idToMarketItem[itemId] */\n      dup2\n      mstore\n      0x20\n      add\n      swap1\n      dup2\n      mstore\n      0x20\n      add\n      0x00\n      keccak256\n        /* \"contracts/Marketplace2/Marketplace.sol\":20130:20160  idToMarketItem[itemId].tokenId */\n      0x01\n      add\n      sload\n        /* \"contracts/Marketplace2/Marketplace.sol\":20115:20160  uint tokenId = idToMarketItem[itemId].tokenId */\n      swap1\n      pop\n        /* \"contracts/Marketplace2/Marketplace.sol\":20166:20180  address seller */\n      0x00\n        /* \"contracts/Marketplace2/Marketplace.sol\":20184:20198  idToMarketItem */\n      0x09\n        /* \"contracts/Marketplace2/Marketplace.sol\":20184:20206  idToMarketItem[itemId] */\n      0x00\n        /* \"contracts/Marketplace2/Marketplace.sol\":20199:20205  itemId */\n      dup7\n        /* \"contracts/Marketplace2/Marketplace.sol\":20184:20206  idToMarketItem[itemId] */\n      dup2\n      mstore\n      0x20\n      add\n      swap1\n      dup2\n      mstore\n      0x20\n      add\n      0x00\n      keccak256\n        /* \"contracts/Marketplace2/Marketplace.sol\":20184:20213  idToMarketItem[itemId].seller */\n      0x02\n      add\n      0x00\n      swap1\n      sload\n      swap1\n      0x0100\n      exp\n      swap1\n      div\n      0xffffffffffffffffffffffffffffffffffffffff\n      and\n        /* \"contracts/Marketplace2/Marketplace.sol\":20166:20213  address seller =  idToMarketItem[itemId].seller */\n      swap1\n      pop\n        /* \"contracts/Marketplace2/Marketplace.sol\":20219:20252  StructLib.ingameItems memory item */\n      0x00\n        /* \"contracts/Marketplace2/Marketplace.sol\":20255:20262  factory */\n      0x04\n      0x00\n      swap1\n      sload\n      swap1\n      0x0100\n      exp\n      swap1\n      div\n      0xffffffffffffffffffffffffffffffffffffffff\n      and\n        /* \"contracts/Marketplace2/Marketplace.sol\":20255:20276  factory.getIngameItem */\n      0xffffffffffffffffffffffffffffffffffffffff\n      and\n      0x03ce1cb5\n        /* \"contracts/Marketplace2/Marketplace.sol\":20277:20284  tokenId */\n      dup5\n        /* \"contracts/Marketplace2/Marketplace.sol\":20255:20285  factory.getIngameItem(tokenId) */\n      mload(0x40)\n      dup3\n      0xffffffff\n      and\n      0xe0\n      shl\n      dup2\n      mstore\n      0x04\n      add\n      tag_257\n      swap2\n      swap1\n      tag_163\n      jump\t// in\n    tag_257:\n      0x00\n      mload(0x40)\n      dup1\n      dup4\n      sub\n      dup2\n      dup7\n      gas\n      staticcall\n      iszero\n      dup1\n      iszero\n      tag_259\n      jumpi\n      returndatasize\n      0x00\n      dup1\n      returndatacopy\n      revert(0x00, returndatasize)\n    tag_259:\n      pop\n      pop\n      pop\n      pop\n      mload(0x40)\n      returndatasize\n      0x00\n      dup3\n      returndatacopy\n      returndatasize\n      not(0x1f)\n      0x1f\n      dup3\n      add\n      and\n      dup3\n      add\n      dup1\n      0x40\n      mstore\n      pop\n      dup2\n      add\n      swap1\n      tag_260\n      swap2\n      swap1\n      tag_167\n      jump\t// in\n    tag_260:\n        /* \"contracts/Marketplace2/Marketplace.sol\":20219:20285  StructLib.ingameItems memory item = factory.getIngameItem(tokenId) */\n      swap1\n      pop\n        /* \"contracts/Marketplace2/Marketplace.sol\":20309:20314  price */\n      dup4\n        /* \"contracts/Marketplace2/Marketplace.sol\":20299:20305  amount */\n      dup6\n        /* \"contracts/Marketplace2/Marketplace.sol\":20299:20314  amount == price */\n      eq\n        /* \"contracts/Marketplace2/Marketplace.sol\":20291:20383  require(amount == price, \"Please submit the asking price in order to complete the purchase\") */\n      tag_261\n      jumpi\n      mload(0x40)\n      0x08c379a000000000000000000000000000000000000000000000000000000000\n      dup2\n      mstore\n      0x04\n      add\n      tag_262\n      swap1\n      tag_263\n      jump\t// in\n    tag_262:\n      mload(0x40)\n      dup1\n      swap2\n      sub\n      swap1\n      revert\n    tag_261:\n        /* \"contracts/Marketplace2/Marketplace.sol\":20412:20417  false */\n      0x00\n        /* \"contracts/Marketplace2/Marketplace.sol\":20397:20417  item.ingame == false */\n      iszero\n      iszero\n        /* \"contracts/Marketplace2/Marketplace.sol\":20397:20401  item */\n      dup2\n        /* \"contracts/Marketplace2/Marketplace.sol\":20397:20408  item.ingame */\n      0x80\n      add\n      mload\n        /* \"contracts/Marketplace2/Marketplace.sol\":20397:20417  item.ingame == false */\n      iszero\n      iszero\n      eq\n        /* \"contracts/Marketplace2/Marketplace.sol\":20389:20449  require(item.ingame == false, \"Item is not available now !\") */\n      tag_264\n      jumpi\n      mload(0x40)\n      0x08c379a000000000000000000000000000000000000000000000000000000000\n      dup2\n      mstore\n      0x04\n      add\n      tag_265\n      swap1\n      tag_170\n      jump\t// in\n    tag_265:\n      mload(0x40)\n      dup1\n      swap2\n      sub\n      swap1\n      revert\n    tag_264:\n        /* \"contracts/Marketplace2/Marketplace.sol\":20455:20490  _safeBuyItem(itemId,amount,tokenId) */\n      tag_266\n        /* \"contracts/Marketplace2/Marketplace.sol\":20468:20474  itemId */\n      dup7\n        /* \"contracts/Marketplace2/Marketplace.sol\":20475:20481  amount */\n      dup7\n        /* \"contracts/Marketplace2/Marketplace.sol\":20482:20489  tokenId */\n      dup6\n        /* \"contracts/Marketplace2/Marketplace.sol\":20455:20467  _safeBuyItem */\n      tag_67\n        /* \"contracts/Marketplace2/Marketplace.sol\":20455:20490  _safeBuyItem(itemId,amount,tokenId) */\n      jump\t// in\n    tag_266:\n        /* \"contracts/Marketplace2/Marketplace.sol\":20535:20545  msg.sender */\n      caller\n        /* \"contracts/Marketplace2/Marketplace.sol\":20496:20510  idToMarketItem */\n      0x09\n        /* \"contracts/Marketplace2/Marketplace.sol\":20496:20518  idToMarketItem[itemId] */\n      0x00\n        /* \"contracts/Marketplace2/Marketplace.sol\":20511:20517  itemId */\n      dup9\n        /* \"contracts/Marketplace2/Marketplace.sol\":20496:20518  idToMarketItem[itemId] */\n      dup2\n      mstore\n      0x20\n      add\n      swap1\n      dup2\n      mstore\n      0x20\n      add\n      0x00\n      keccak256\n        /* \"contracts/Marketplace2/Marketplace.sol\":20496:20524  idToMarketItem[itemId].owner */\n      0x03\n      add\n      0x00\n        /* \"contracts/Marketplace2/Marketplace.sol\":20496:20546  idToMarketItem[itemId].owner = address(msg.sender) */\n      0x0100\n      exp\n      dup2\n      sload\n      dup2\n      0xffffffffffffffffffffffffffffffffffffffff\n      mul\n      not\n      and\n      swap1\n      dup4\n      0xffffffffffffffffffffffffffffffffffffffff\n      and\n      mul\n      or\n      swap1\n      sstore\n      pop\n        /* \"contracts/Marketplace2/Marketplace.sol\":20584:20600  ItemStatus.AVAIL */\n      0x00\n        /* \"contracts/Marketplace2/Marketplace.sol\":20552:20566  idToMarketItem */\n      0x09\n        /* \"contracts/Marketplace2/Marketplace.sol\":20552:20574  idToMarketItem[itemId] */\n      0x00\n        /* \"contracts/Marketplace2/Marketplace.sol\":20567:20573  itemId */\n      dup9\n        /* \"contracts/Marketplace2/Marketplace.sol\":20552:20574  idToMarketItem[itemId] */\n      dup2\n      mstore\n      0x20\n      add\n      swap1\n      dup2\n      mstore\n      0x20\n      add\n      0x00\n      keccak256\n        /* \"contracts/Marketplace2/Marketplace.sol\":20552:20581  idToMarketItem[itemId].status */\n      0x05\n      add\n      0x00\n        /* \"contracts/Marketplace2/Marketplace.sol\":20552:20600  idToMarketItem[itemId].status = ItemStatus.AVAIL */\n      0x0100\n      exp\n      dup2\n      sload\n      dup2\n      0xff\n      mul\n      not\n      and\n      swap1\n      dup4\n      0x01\n      dup2\n      gt\n      iszero\n      tag_267\n      jumpi\n      tag_268\n      tag_114\n      jump\t// in\n    tag_268:\n    tag_267:\n      mul\n      or\n      swap1\n      sstore\n      pop\n        /* \"contracts/Marketplace2/Marketplace.sol\":20606:20628  _itemsSold.increment() */\n      tag_269\n        /* \"contracts/Marketplace2/Marketplace.sol\":20606:20616  _itemsSold */\n      0x08\n        /* \"contracts/Marketplace2/Marketplace.sol\":20606:20626  _itemsSold.increment */\n      tag_187\n        /* \"contracts/Marketplace2/Marketplace.sol\":20606:20628  _itemsSold.increment() */\n      jump\t// in\n    tag_269:\n        /* \"contracts/Marketplace2/Marketplace.sol\":20738:20748  msg.sender */\n      caller\n        /* \"contracts/Marketplace2/Marketplace.sol\":20639:20795  BuyItemSuccessful(... */\n      0xffffffffffffffffffffffffffffffffffffffff\n      and\n        /* \"contracts/Marketplace2/Marketplace.sol\":20699:20705  seller */\n      dup3\n        /* \"contracts/Marketplace2/Marketplace.sol\":20639:20795  BuyItemSuccessful(... */\n      0xffffffffffffffffffffffffffffffffffffffff\n      and\n        /* \"contracts/Marketplace2/Marketplace.sol\":20682:20689  tokenId */\n      dup5\n        /* \"contracts/Marketplace2/Marketplace.sol\":20639:20795  BuyItemSuccessful(... */\n      0x551327aee12d0a8b3ede8d0e3182a40a5ff3ed9f1811dd622915db30b609b7df\n        /* \"contracts/Marketplace2/Marketplace.sol\":20666:20672  itemId */\n      dup10\n        /* \"contracts/Marketplace2/Marketplace.sol\":20715:20720  price */\n      dup9\n        /* \"contracts/Marketplace2/Marketplace.sol\":20774:20789  block.timestamp */\n      timestamp\n        /* \"contracts/Marketplace2/Marketplace.sol\":20639:20795  BuyItemSuccessful(... */\n      mload(0x40)\n      tag_270\n      swap4\n      swap3\n      swap2\n      swap1\n      tag_271\n      jump\t// in\n    tag_270:\n      mload(0x40)\n      dup1\n      swap2\n      sub\n      swap1\n      log4\n        /* \"contracts/Marketplace2/Marketplace.sol\":20062:20800  {... */\n      pop\n      pop\n      pop\n      pop\n        /* \"contracts/Marketplace2/Marketplace.sol\":19983:20800  function createMarketSale(... */\n      pop\n      pop\n      jump\t// out\n        /* \"contracts/Marketplace2/Marketplace.sol\":18927:19220  function sellItemNeee(... */\n    tag_77:\n        /* \"contracts/Marketplace2/Marketplace.sol\":19023:19051  StructLib.ingameItems memory */\n      tag_272\n      tag_273\n      jump\t// in\n    tag_272:\n        /* \"contracts/Marketplace2/Marketplace.sol\":19079:19080  0 */\n      0x00\n        /* \"contracts/Marketplace2/Marketplace.sol\":19071:19076  price */\n      dup3\n        /* \"contracts/Marketplace2/Marketplace.sol\":19071:19080  price > 0 */\n      gt\n        /* \"contracts/Marketplace2/Marketplace.sol\":19063:19114  require(price > 0 , \"Price must be at least 1 wei\") */\n      tag_275\n      jumpi\n      mload(0x40)\n      0x08c379a000000000000000000000000000000000000000000000000000000000\n      dup2\n      mstore\n      0x04\n      add\n      tag_276\n      swap1\n      tag_161\n      jump\t// in\n    tag_276:\n      mload(0x40)\n      dup1\n      swap2\n      sub\n      swap1\n      revert\n    tag_275:\n        /* \"contracts/Marketplace2/Marketplace.sol\":19124:19158  StructLib.ingameItems memory _item */\n      0x00\n        /* \"contracts/Marketplace2/Marketplace.sol\":19161:19168  factory */\n      0x04\n      0x00\n      swap1\n      sload\n      swap1\n      0x0100\n      exp\n      swap1\n      div\n      0xffffffffffffffffffffffffffffffffffffffff\n      and\n        /* \"contracts/Marketplace2/Marketplace.sol\":19161:19182  factory.getIngameItem */\n      0xffffffffffffffffffffffffffffffffffffffff\n      and\n      0x03ce1cb5\n        /* \"contracts/Marketplace2/Marketplace.sol\":19183:19190  tokenId */\n      dup6\n        /* \"contracts/Marketplace2/Marketplace.sol\":19161:19191  factory.getIngameItem(tokenId) */\n      mload(0x40)\n      dup3\n      0xffffffff\n      and\n      0xe0\n      shl\n      dup2\n      mstore\n      0x04\n      add\n      tag_277\n      swap2\n      swap1\n      tag_163\n      jump\t// in\n    tag_277:\n      0x00\n      mload(0x40)\n      dup1\n      dup4\n      sub\n      dup2\n      dup7\n      gas\n      staticcall\n      iszero\n      dup1\n      iszero\n      tag_279\n      jumpi\n      returndatasize\n      0x00\n      dup1\n      returndatacopy\n      revert(0x00, returndatasize)\n    tag_279:\n      pop\n      pop\n      pop\n      pop\n      mload(0x40)\n      returndatasize\n      0x00\n      dup3\n      returndatacopy\n      returndatasize\n      not(0x1f)\n      0x1f\n      dup3\n      add\n      and\n      dup3\n      add\n      dup1\n      0x40\n      mstore\n      pop\n      dup2\n      add\n      swap1\n      tag_280\n      swap2\n      swap1\n      tag_167\n      jump\t// in\n    tag_280:\n        /* \"contracts/Marketplace2/Marketplace.sol\":19124:19191  StructLib.ingameItems memory _item = factory.getIngameItem(tokenId) */\n      swap1\n      pop\n        /* \"contracts/Marketplace2/Marketplace.sol\":19208:19213  _item */\n      dup1\n        /* \"contracts/Marketplace2/Marketplace.sol\":19201:19213  return _item */\n      swap2\n      pop\n      pop\n        /* \"contracts/Marketplace2/Marketplace.sol\":18927:19220  function sellItemNeee(... */\n      swap3\n      swap2\n      pop\n      pop\n      jump\t// out\n        /* \"contracts/Marketplace2/Marketplace.sol\":16328:16355  uint8 public antaFeePercent */\n    tag_81:\n      0x05\n      0x15\n      swap1\n      sload\n      swap1\n      0x0100\n      exp\n      swap1\n      div\n      0xff\n      and\n      dup2\n      jump\t// out\n        /* \"contracts/Marketplace2/Marketplace.sol\":15913:15938  MarketItem[] public items */\n    tag_85:\n      0x01\n      dup2\n      dup2\n      sload\n      dup2\n      lt\n      tag_281\n      jumpi\n      0x00\n      dup1\n      revert\n    tag_281:\n      swap1\n      0x00\n      mstore\n      keccak256(0x00, 0x20)\n      swap1\n      0x06\n      mul\n      add\n      0x00\n      swap2\n      pop\n      swap1\n      pop\n      dup1\n      0x00\n      add\n      sload\n      swap1\n      dup1\n      0x01\n      add\n      sload\n      swap1\n      dup1\n      0x02\n      add\n      0x00\n      swap1\n      sload\n      swap1\n      0x0100\n      exp\n      swap1\n      div\n      0xffffffffffffffffffffffffffffffffffffffff\n      and\n      swap1\n      dup1\n      0x03\n      add\n      0x00\n      swap1\n      sload\n      swap1\n      0x0100\n      exp\n      swap1\n      div\n      0xffffffffffffffffffffffffffffffffffffffff\n      and\n      swap1\n      dup1\n      0x04\n      add\n      sload\n      swap1\n      dup1\n      0x05\n      add\n      0x00\n      swap1\n      sload\n      swap1\n      0x0100\n      exp\n      swap1\n      div\n      0xff\n      and\n      swap1\n      pop\n      dup7\n      jump\t// out\n        /* \"contracts/Marketplace2/Marketplace.sol\":16237:16260  IFactory public factory */\n    tag_89:\n      0x04\n      0x00\n      swap1\n      sload\n      swap1\n      0x0100\n      exp\n      swap1\n      div\n      0xffffffffffffffffffffffffffffffffffffffff\n      and\n      dup2\n      jump\t// out\n        /* \"contracts/Marketplace2/Marketplace.sol\":18460:18597  function getMarketItem(uint256 marketItemId) public view returns (MarketItem memory) {... */\n    tag_94:\n        /* \"contracts/Marketplace2/Marketplace.sol\":18526:18543  MarketItem memory */\n      tag_283\n      tag_209\n      jump\t// in\n    tag_283:\n        /* \"contracts/Marketplace2/Marketplace.sol\":18562:18576  idToMarketItem */\n      0x09\n        /* \"contracts/Marketplace2/Marketplace.sol\":18562:18590  idToMarketItem[marketItemId] */\n      0x00\n        /* \"contracts/Marketplace2/Marketplace.sol\":18577:18589  marketItemId */\n      dup4\n        /* \"contracts/Marketplace2/Marketplace.sol\":18562:18590  idToMarketItem[marketItemId] */\n      dup2\n      mstore\n      0x20\n      add\n      swap1\n      dup2\n      mstore\n      0x20\n      add\n      0x00\n      keccak256\n        /* \"contracts/Marketplace2/Marketplace.sol\":18555:18590  return idToMarketItem[marketItemId] */\n      mload(0x40)\n      dup1\n      0xc0\n      add\n      0x40\n      mstore\n      swap1\n      dup2\n      0x00\n      dup3\n      add\n      sload\n      dup2\n      mstore\n      0x20\n      add\n      0x01\n      dup3\n      add\n      sload\n      dup2\n      mstore\n      0x20\n      add\n      0x02\n      dup3\n      add\n      0x00\n      swap1\n      sload\n      swap1\n      0x0100\n      exp\n      swap1\n      div\n      0xffffffffffffffffffffffffffffffffffffffff\n      and\n      0xffffffffffffffffffffffffffffffffffffffff\n      and\n      0xffffffffffffffffffffffffffffffffffffffff\n      and\n      dup2\n      mstore\n      0x20\n      add\n      0x03\n      dup3\n      add\n      0x00\n      swap1\n      sload\n      swap1\n      0x0100\n      exp\n      swap1\n      div\n      0xffffffffffffffffffffffffffffffffffffffff\n      and\n      0xffffffffffffffffffffffffffffffffffffffff\n      and\n      0xffffffffffffffffffffffffffffffffffffffff\n      and\n      dup2\n      mstore\n      0x20\n      add\n      0x04\n      dup3\n      add\n      sload\n      dup2\n      mstore\n      0x20\n      add\n      0x05\n      dup3\n      add\n      0x00\n      swap1\n      sload\n      swap1\n      0x0100\n      exp\n      swap1\n      div\n      0xff\n      and\n      0x01\n      dup2\n      gt\n      iszero\n      tag_285\n      jumpi\n      tag_286\n      tag_114\n      jump\t// in\n    tag_286:\n    tag_285:\n      0x01\n      dup2\n      gt\n      iszero\n      tag_287\n      jumpi\n      tag_288\n      tag_114\n      jump\t// in\n    tag_288:\n    tag_287:\n      dup2\n      mstore\n      pop\n      pop\n      swap1\n      pop\n        /* \"contracts/Marketplace2/Marketplace.sol\":18460:18597  function getMarketItem(uint256 marketItemId) public view returns (MarketItem memory) {... */\n      swap2\n      swap1\n      pop\n      jump\t// out\n        /* \"contracts/Marketplace2/Marketplace.sol\":21576:21793  function _safeTransferToMarket(uint256 tokenId) public {... */\n    tag_99:\n        /* \"contracts/Marketplace2/Marketplace.sol\":21645:21652  factory */\n      0x04\n      0x00\n      swap1\n      sload\n      swap1\n      0x0100\n      exp\n      swap1\n      div\n      0xffffffffffffffffffffffffffffffffffffffff\n      and\n        /* \"contracts/Marketplace2/Marketplace.sol\":21645:21671  factory.setOwnerIngameItem */\n      0xffffffffffffffffffffffffffffffffffffffff\n      and\n      0xc1e9518a\n        /* \"contracts/Marketplace2/Marketplace.sol\":21680:21690  msg.sender */\n      caller\n        /* \"contracts/Marketplace2/Marketplace.sol\":21700:21704  this */\n      address\n        /* \"contracts/Marketplace2/Marketplace.sol\":21707:21714  tokenId */\n      dup5\n        /* \"contracts/Marketplace2/Marketplace.sol\":21645:21715  factory.setOwnerIngameItem(payable(msg.sender),address(this), tokenId) */\n      mload(0x40)\n      dup5\n      0xffffffff\n      and\n      0xe0\n      shl\n      dup2\n      mstore\n      0x04\n      add\n      tag_290\n      swap4\n      swap3\n      swap2\n      swap1\n      tag_174\n      jump\t// in\n    tag_290:\n      0x00\n      mload(0x40)\n      dup1\n      dup4\n      sub\n      dup2\n      0x00\n      dup8\n      dup1\n      extcodesize\n      iszero\n      dup1\n      iszero\n      tag_291\n      jumpi\n      0x00\n      dup1\n      revert\n    tag_291:\n      pop\n      gas\n      call\n      iszero\n      dup1\n      iszero\n      tag_293\n      jumpi\n      returndatasize\n      0x00\n      dup1\n      returndatacopy\n      revert(0x00, returndatasize)\n    tag_293:\n      pop\n      pop\n      pop\n      pop\n        /* \"contracts/Marketplace2/Marketplace.sol\":21729:21737  mainNFTs */\n      0x05\n      0x00\n      swap1\n      sload\n      swap1\n      0x0100\n      exp\n      swap1\n      div\n      0xffffffffffffffffffffffffffffffffffffffff\n      and\n        /* \"contracts/Marketplace2/Marketplace.sol\":21729:21750  mainNFTs.transferFrom */\n      0xffffffffffffffffffffffffffffffffffffffff\n      and\n      0x23b872dd\n        /* \"contracts/Marketplace2/Marketplace.sol\":21751:21761  msg.sender */\n      caller\n        /* \"contracts/Marketplace2/Marketplace.sol\":21771:21775  this */\n      address\n        /* \"contracts/Marketplace2/Marketplace.sol\":21778:21785  tokenId */\n      dup5\n        /* \"contracts/Marketplace2/Marketplace.sol\":21729:21786  mainNFTs.transferFrom(msg.sender, address(this), tokenId) */\n      mload(0x40)\n      dup5\n      0xffffffff\n      and\n      0xe0\n      shl\n      dup2\n      mstore\n      0x04\n      add\n      tag_294\n      swap4\n      swap3\n      swap2\n      swap1\n      tag_134\n      jump\t// in\n    tag_294:\n      0x00\n      mload(0x40)\n      dup1\n      dup4\n      sub\n      dup2\n      0x00\n      dup8\n      dup1\n      extcodesize\n      iszero\n      dup1\n      iszero\n      tag_295\n      jumpi\n      0x00\n      dup1\n      revert\n    tag_295:\n      pop\n      gas\n      call\n      iszero\n      dup1\n      iszero\n      tag_297\n      jumpi\n      returndatasize\n      0x00\n      dup1\n      returndatacopy\n      revert(0x00, returndatasize)\n    tag_297:\n      pop\n      pop\n      pop\n      pop\n        /* \"contracts/Marketplace2/Marketplace.sol\":21576:21793  function _safeTransferToMarket(uint256 tokenId) public {... */\n      pop\n      jump\t// out\n        /* \"contracts/Marketplace2/Marketplace.sol\":2558:2756  function transferOwnership(address newOwner) public virtual onlyOwner {... */\n    tag_102:\n        /* \"contracts/Marketplace2/Marketplace.sol\":1899:1911  _msgSender() */\n      tag_299\n        /* \"contracts/Marketplace2/Marketplace.sol\":1899:1909  _msgSender */\n      tag_146\n        /* \"contracts/Marketplace2/Marketplace.sol\":1899:1911  _msgSender() */\n      jump\t// in\n    tag_299:\n        /* \"contracts/Marketplace2/Marketplace.sol\":1888:1911  owner() == _msgSender() */\n      0xffffffffffffffffffffffffffffffffffffffff\n      and\n        /* \"contracts/Marketplace2/Marketplace.sol\":1888:1895  owner() */\n      tag_300\n        /* \"contracts/Marketplace2/Marketplace.sol\":1888:1893  owner */\n      tag_69\n        /* \"contracts/Marketplace2/Marketplace.sol\":1888:1895  owner() */\n      jump\t// in\n    tag_300:\n        /* \"contracts/Marketplace2/Marketplace.sol\":1888:1911  owner() == _msgSender() */\n      0xffffffffffffffffffffffffffffffffffffffff\n      and\n      eq\n        /* \"contracts/Marketplace2/Marketplace.sol\":1880:1948  require(owner() == _msgSender(), \"Ownable: caller is not the owner\") */\n      tag_301\n      jumpi\n      mload(0x40)\n      0x08c379a000000000000000000000000000000000000000000000000000000000\n      dup2\n      mstore\n      0x04\n      add\n      tag_302\n      swap1\n      tag_150\n      jump\t// in\n    tag_302:\n      mload(0x40)\n      dup1\n      swap2\n      sub\n      swap1\n      revert\n    tag_301:\n        /* \"contracts/Marketplace2/Marketplace.sol\":2666:2667  0 */\n      0x00\n        /* \"contracts/Marketplace2/Marketplace.sol\":2646:2668  newOwner != address(0) */\n      0xffffffffffffffffffffffffffffffffffffffff\n      and\n        /* \"contracts/Marketplace2/Marketplace.sol\":2646:2654  newOwner */\n      dup2\n        /* \"contracts/Marketplace2/Marketplace.sol\":2646:2668  newOwner != address(0) */\n      0xffffffffffffffffffffffffffffffffffffffff\n      and\n      sub\n        /* \"contracts/Marketplace2/Marketplace.sol\":2638:2711  require(newOwner != address(0), \"Ownable: new owner is the zero address\") */\n      tag_304\n      jumpi\n      mload(0x40)\n      0x08c379a000000000000000000000000000000000000000000000000000000000\n      dup2\n      mstore\n      0x04\n      add\n      tag_305\n      swap1\n      tag_306\n      jump\t// in\n    tag_305:\n      mload(0x40)\n      dup1\n      swap2\n      sub\n      swap1\n      revert\n    tag_304:\n        /* \"contracts/Marketplace2/Marketplace.sol\":2721:2749  _transferOwnership(newOwner) */\n      tag_307\n        /* \"contracts/Marketplace2/Marketplace.sol\":2740:2748  newOwner */\n      dup2\n        /* \"contracts/Marketplace2/Marketplace.sol\":2721:2739  _transferOwnership */\n      tag_240\n        /* \"contracts/Marketplace2/Marketplace.sol\":2721:2749  _transferOwnership(newOwner) */\n      jump\t// in\n    tag_307:\n        /* \"contracts/Marketplace2/Marketplace.sol\":2558:2756  function transferOwnership(address newOwner) public virtual onlyOwner {... */\n      pop\n      jump\t// out\n        /* \"contracts/Marketplace2/Marketplace.sol\":16266:16289  IERC721 public mainNFTs */\n    tag_104:\n      0x05\n      0x00\n      swap1\n      sload\n      swap1\n      0x0100\n      exp\n      swap1\n      div\n      0xffffffffffffffffffffffffffffffffffffffff\n      and\n      dup2\n      jump\t// out\n        /* \"contracts/Marketplace2/Marketplace.sol\":16011:16058  mapping (uint256 => MarketItem) public allItems */\n    tag_109:\n      mstore(0x20, 0x02)\n      dup1\n      0x00\n      mstore\n      keccak256(0x00, 0x40)\n      0x00\n      swap2\n      pop\n      swap1\n      pop\n      dup1\n      0x00\n      add\n      sload\n      swap1\n      dup1\n      0x01\n      add\n      sload\n      swap1\n      dup1\n      0x02\n      add\n      0x00\n      swap1\n      sload\n      swap1\n      0x0100\n      exp\n      swap1\n      div\n      0xffffffffffffffffffffffffffffffffffffffff\n      and\n      swap1\n      dup1\n      0x03\n      add\n      0x00\n      swap1\n      sload\n      swap1\n      0x0100\n      exp\n      swap1\n      div\n      0xffffffffffffffffffffffffffffffffffffffff\n      and\n      swap1\n      dup1\n      0x04\n      add\n      sload\n      swap1\n      dup1\n      0x05\n      add\n      0x00\n      swap1\n      sload\n      swap1\n      0x0100\n      exp\n      swap1\n      div\n      0xff\n      and\n      swap1\n      pop\n      dup7\n      jump\t// out\n        /* \"contracts/Marketplace2/Marketplace.sol\":554:650  function _msgSender() internal view virtual returns (address) {... */\n    tag_146:\n        /* \"contracts/Marketplace2/Marketplace.sol\":607:614  address */\n      0x00\n        /* \"contracts/Marketplace2/Marketplace.sol\":633:643  msg.sender */\n      caller\n        /* \"contracts/Marketplace2/Marketplace.sol\":626:643  return msg.sender */\n      swap1\n      pop\n        /* \"contracts/Marketplace2/Marketplace.sol\":554:650  function _msgSender() internal view virtual returns (address) {... */\n      swap1\n      jump\t// out\n        /* \"contracts/Marketplace2/Marketplace.sol\":11853:11965  function current(Counter storage counter) internal view returns (uint256) {... */\n    tag_172:\n        /* \"contracts/Marketplace2/Marketplace.sol\":11918:11925  uint256 */\n      0x00\n        /* \"contracts/Marketplace2/Marketplace.sol\":11944:11951  counter */\n      dup2\n        /* \"contracts/Marketplace2/Marketplace.sol\":11944:11958  counter._value */\n      0x00\n      add\n      sload\n        /* \"contracts/Marketplace2/Marketplace.sol\":11937:11958  return counter._value */\n      swap1\n      pop\n        /* \"contracts/Marketplace2/Marketplace.sol\":11853:11965  function current(Counter storage counter) internal view returns (uint256) {... */\n      swap2\n      swap1\n      pop\n      jump\t// out\n        /* \"contracts/Marketplace2/Marketplace.sol\":11971:12094  function increment(Counter storage counter) internal {... */\n    tag_187:\n        /* \"contracts/Marketplace2/Marketplace.sol\":12076:12077  1 */\n      0x01\n        /* \"contracts/Marketplace2/Marketplace.sol\":12058:12065  counter */\n      dup2\n        /* \"contracts/Marketplace2/Marketplace.sol\":12058:12072  counter._value */\n      0x00\n      add\n      0x00\n        /* \"contracts/Marketplace2/Marketplace.sol\":12058:12077  counter._value += 1 */\n      dup3\n      dup3\n      sload\n      add\n      swap3\n      pop\n      pop\n      dup2\n      swap1\n      sstore\n      pop\n        /* \"contracts/Marketplace2/Marketplace.sol\":11971:12094  function increment(Counter storage counter) internal {... */\n      pop\n      jump\t// out\n        /* \"contracts/Marketplace2/Marketplace.sol\":2910:3097  function _transferOwnership(address newOwner) internal virtual {... */\n    tag_240:\n        /* \"contracts/Marketplace2/Marketplace.sol\":2983:2999  address oldOwner */\n      0x00\n        /* \"contracts/Marketplace2/Marketplace.sol\":3002:3008  _owner */\n      0x06\n      0x00\n      swap1\n      sload\n      swap1\n      0x0100\n      exp\n      swap1\n      div\n      0xffffffffffffffffffffffffffffffffffffffff\n      and\n        /* \"contracts/Marketplace2/Marketplace.sol\":2983:3008  address oldOwner = _owner */\n      swap1\n      pop\n        /* \"contracts/Marketplace2/Marketplace.sol\":3027:3035  newOwner */\n      dup2\n        /* \"contracts/Marketplace2/Marketplace.sol\":3018:3024  _owner */\n      0x06\n      0x00\n        /* \"contracts/Marketplace2/Marketplace.sol\":3018:3035  _owner = newOwner */\n      0x0100\n      exp\n      dup2\n      sload\n      dup2\n      0xffffffffffffffffffffffffffffffffffffffff\n      mul\n      not\n      and\n      swap1\n      dup4\n      0xffffffffffffffffffffffffffffffffffffffff\n      and\n      mul\n      or\n      swap1\n      sstore\n      pop\n        /* \"contracts/Marketplace2/Marketplace.sol\":3081:3089  newOwner */\n      dup2\n        /* \"contracts/Marketplace2/Marketplace.sol\":3050:3090  OwnershipTransferred(oldOwner, newOwner) */\n      0xffffffffffffffffffffffffffffffffffffffff\n      and\n        /* \"contracts/Marketplace2/Marketplace.sol\":3071:3079  oldOwner */\n      dup2\n        /* \"contracts/Marketplace2/Marketplace.sol\":3050:3090  OwnershipTransferred(oldOwner, newOwner) */\n      0xffffffffffffffffffffffffffffffffffffffff\n      and\n      0x8be0079c531659141344cd1fd0a4f28419497f9722a3daafe3b4186f6b6457e0\n      mload(0x40)\n      mload(0x40)\n      dup1\n      swap2\n      sub\n      swap1\n      log3\n        /* \"contracts/Marketplace2/Marketplace.sol\":2973:3097  {... */\n      pop\n        /* \"contracts/Marketplace2/Marketplace.sol\":2910:3097  function _transferOwnership(address newOwner) internal virtual {... */\n      pop\n      jump\t// out\n    tag_209:\n      mload(0x40)\n      dup1\n      0xc0\n      add\n      0x40\n      mstore\n      dup1\n      0x00\n      dup2\n      mstore\n      0x20\n      add\n      0x00\n      dup2\n      mstore\n      0x20\n      add\n      and(0xffffffffffffffffffffffffffffffffffffffff, 0x00)\n      dup2\n      mstore\n      0x20\n      add\n      and(0xffffffffffffffffffffffffffffffffffffffff, 0x00)\n      dup2\n      mstore\n      0x20\n      add\n      0x00\n      dup2\n      mstore\n      0x20\n      add\n      0x00\n      0x01\n      dup2\n      gt\n      iszero\n      tag_312\n      jumpi\n      tag_313\n      tag_114\n      jump\t// in\n    tag_313:\n    tag_312:\n      dup2\n      mstore\n      pop\n      swap1\n      jump\t// out\n    tag_273:\n      mload(0x40)\n      dup1\n      0xa0\n      add\n      0x40\n      mstore\n      dup1\n      0x00\n      dup2\n      mstore\n      0x20\n      add\n      and(0xffffffffffffffffffffffffffffffffffffffff, 0x00)\n      dup2\n      mstore\n      0x20\n      add\n      0x60\n      dup2\n      mstore\n      0x20\n      add\n      0x60\n      dup2\n      mstore\n      0x20\n      add\n      iszero(iszero(0x00))\n      dup2\n      mstore\n      pop\n      swap1\n      jump\t// out\n        /* \"#utility.yul\":7:82   */\n    tag_314:\n        /* \"#utility.yul\":40:46   */\n      0x00\n        /* \"#utility.yul\":73:75   */\n      0x40\n        /* \"#utility.yul\":67:76   */\n      mload\n        /* \"#utility.yul\":57:76   */\n      swap1\n      pop\n        /* \"#utility.yul\":7:82   */\n      swap1\n      jump\t// out\n        /* \"#utility.yul\":88:205   */\n    tag_315:\n        /* \"#utility.yul\":197:198   */\n      0x00\n        /* \"#utility.yul\":194:195   */\n      dup1\n        /* \"#utility.yul\":187:199   */\n      revert\n        /* \"#utility.yul\":211:328   */\n    tag_316:\n        /* \"#utility.yul\":320:321   */\n      0x00\n        /* \"#utility.yul\":317:318   */\n      dup1\n        /* \"#utility.yul\":310:322   */\n      revert\n        /* \"#utility.yul\":334:411   */\n    tag_317:\n        /* \"#utility.yul\":371:378   */\n      0x00\n        /* \"#utility.yul\":400:405   */\n      dup2\n        /* \"#utility.yul\":389:405   */\n      swap1\n      pop\n        /* \"#utility.yul\":334:411   */\n      swap2\n      swap1\n      pop\n      jump\t// out\n        /* \"#utility.yul\":417:539   */\n    tag_318:\n        /* \"#utility.yul\":490:514   */\n      tag_406\n        /* \"#utility.yul\":508:513   */\n      dup2\n        /* \"#utility.yul\":490:514   */\n      tag_317\n      jump\t// in\n    tag_406:\n        /* \"#utility.yul\":483:488   */\n      dup2\n        /* \"#utility.yul\":480:515   */\n      eq\n        /* \"#utility.yul\":470:533   */\n      tag_407\n      jumpi\n        /* \"#utility.yul\":529:530   */\n      0x00\n        /* \"#utility.yul\":526:527   */\n      dup1\n        /* \"#utility.yul\":519:531   */\n      revert\n        /* \"#utility.yul\":470:533   */\n    tag_407:\n        /* \"#utility.yul\":417:539   */\n      pop\n      jump\t// out\n        /* \"#utility.yul\":545:684   */\n    tag_319:\n        /* \"#utility.yul\":591:596   */\n      0x00\n        /* \"#utility.yul\":629:635   */\n      dup2\n        /* \"#utility.yul\":616:636   */\n      calldataload\n        /* \"#utility.yul\":607:636   */\n      swap1\n      pop\n        /* \"#utility.yul\":645:678   */\n      tag_409\n        /* \"#utility.yul\":672:677   */\n      dup2\n        /* \"#utility.yul\":645:678   */\n      tag_318\n      jump\t// in\n    tag_409:\n        /* \"#utility.yul\":545:684   */\n      swap3\n      swap2\n      pop\n      pop\n      jump\t// out\n        /* \"#utility.yul\":690:1019   */\n    tag_30:\n        /* \"#utility.yul\":749:755   */\n      0x00\n        /* \"#utility.yul\":798:800   */\n      0x20\n        /* \"#utility.yul\":786:795   */\n      dup3\n        /* \"#utility.yul\":777:784   */\n      dup5\n        /* \"#utility.yul\":773:796   */\n      sub\n        /* \"#utility.yul\":769:801   */\n      slt\n        /* \"#utility.yul\":766:885   */\n      iszero\n      tag_411\n      jumpi\n        /* \"#utility.yul\":804:883   */\n      tag_412\n      tag_315\n      jump\t// in\n    tag_412:\n        /* \"#utility.yul\":766:885   */\n    tag_411:\n        /* \"#utility.yul\":924:925   */\n      0x00\n        /* \"#utility.yul\":949:1002   */\n      tag_413\n        /* \"#utility.yul\":994:1001   */\n      dup5\n        /* \"#utility.yul\":985:991   */\n      dup3\n        /* \"#utility.yul\":974:983   */\n      dup6\n        /* \"#utility.yul\":970:992   */\n      add\n        /* \"#utility.yul\":949:1002   */\n      tag_319\n      jump\t// in\n    tag_413:\n        /* \"#utility.yul\":939:1002   */\n      swap2\n      pop\n        /* \"#utility.yul\":895:1012   */\n      pop\n        /* \"#utility.yul\":690:1019   */\n      swap3\n      swap2\n      pop\n      pop\n      jump\t// out\n        /* \"#utility.yul\":1025:1151   */\n    tag_320:\n        /* \"#utility.yul\":1062:1069   */\n      0x00\n        /* \"#utility.yul\":1102:1144   */\n      0xffffffffffffffffffffffffffffffffffffffff\n        /* \"#utility.yul\":1095:1100   */\n      dup3\n        /* \"#utility.yul\":1091:1145   */\n      and\n        /* \"#utility.yul\":1080:1145   */\n      swap1\n      pop\n        /* \"#utility.yul\":1025:1151   */\n      swap2\n      swap1\n      pop\n      jump\t// out\n        /* \"#utility.yul\":1157:1253   */\n    tag_321:\n        /* \"#utility.yul\":1194:1201   */\n      0x00\n        /* \"#utility.yul\":1223:1247   */\n      tag_416\n        /* \"#utility.yul\":1241:1246   */\n      dup3\n        /* \"#utility.yul\":1223:1247   */\n      tag_320\n      jump\t// in\n    tag_416:\n        /* \"#utility.yul\":1212:1247   */\n      swap1\n      pop\n        /* \"#utility.yul\":1157:1253   */\n      swap2\n      swap1\n      pop\n      jump\t// out\n        /* \"#utility.yul\":1259:1381   */\n    tag_322:\n        /* \"#utility.yul\":1332:1356   */\n      tag_418\n        /* \"#utility.yul\":1350:1355   */\n      dup2\n        /* \"#utility.yul\":1332:1356   */\n      tag_321\n      jump\t// in\n    tag_418:\n        /* \"#utility.yul\":1325:1330   */\n      dup2\n        /* \"#utility.yul\":1322:1357   */\n      eq\n        /* \"#utility.yul\":1312:1375   */\n      tag_419\n      jumpi\n        /* \"#utility.yul\":1371:1372   */\n      0x00\n        /* \"#utility.yul\":1368:1369   */\n      dup1\n        /* \"#utility.yul\":1361:1373   */\n      revert\n        /* \"#utility.yul\":1312:1375   */\n    tag_419:\n        /* \"#utility.yul\":1259:1381   */\n      pop\n      jump\t// out\n        /* \"#utility.yul\":1387:1526   */\n    tag_323:\n        /* \"#utility.yul\":1433:1438   */\n      0x00\n        /* \"#utility.yul\":1471:1477   */\n      dup2\n        /* \"#utility.yul\":1458:1478   */\n      calldataload\n        /* \"#utility.yul\":1449:1478   */\n      swap1\n      pop\n        /* \"#utility.yul\":1487:1520   */\n      tag_421\n        /* \"#utility.yul\":1514:1519   */\n      dup2\n        /* \"#utility.yul\":1487:1520   */\n      tag_322\n      jump\t// in\n    tag_421:\n        /* \"#utility.yul\":1387:1526   */\n      swap3\n      swap2\n      pop\n      pop\n      jump\t// out\n        /* \"#utility.yul\":1532:1861   */\n    tag_34:\n        /* \"#utility.yul\":1591:1597   */\n      0x00\n        /* \"#utility.yul\":1640:1642   */\n      0x20\n        /* \"#utility.yul\":1628:1637   */\n      dup3\n        /* \"#utility.yul\":1619:1626   */\n      dup5\n        /* \"#utility.yul\":1615:1638   */\n      sub\n        /* \"#utility.yul\":1611:1643   */\n      slt\n        /* \"#utility.yul\":1608:1727   */\n      iszero\n      tag_423\n      jumpi\n        /* \"#utility.yul\":1646:1725   */\n      tag_424\n      tag_315\n      jump\t// in\n    tag_424:\n        /* \"#utility.yul\":1608:1727   */\n    tag_423:\n        /* \"#utility.yul\":1766:1767   */\n      0x00\n        /* \"#utility.yul\":1791:1844   */\n      tag_425\n        /* \"#utility.yul\":1836:1843   */\n      dup5\n        /* \"#utility.yul\":1827:1833   */\n      dup3\n        /* \"#utility.yul\":1816:1825   */\n      dup6\n        /* \"#utility.yul\":1812:1834   */\n      add\n        /* \"#utility.yul\":1791:1844   */\n      tag_323\n      jump\t// in\n    tag_425:\n        /* \"#utility.yul\":1781:1844   */\n      swap2\n      pop\n        /* \"#utility.yul\":1737:1854   */\n      pop\n        /* \"#utility.yul\":1532:1861   */\n      swap3\n      swap2\n      pop\n      pop\n      jump\t// out\n        /* \"#utility.yul\":1867:2016   */\n    tag_324:\n        /* \"#utility.yul\":1903:1910   */\n      0x00\n        /* \"#utility.yul\":1943:2009   */\n      0xffffffff00000000000000000000000000000000000000000000000000000000\n        /* \"#utility.yul\":1936:1941   */\n      dup3\n        /* \"#utility.yul\":1932:2010   */\n      and\n        /* \"#utility.yul\":1921:2010   */\n      swap1\n      pop\n        /* \"#utility.yul\":1867:2016   */\n      swap2\n      swap1\n      pop\n      jump\t// out\n        /* \"#utility.yul\":2022:2137   */\n    tag_325:\n        /* \"#utility.yul\":2107:2130   */\n      tag_428\n        /* \"#utility.yul\":2124:2129   */\n      dup2\n        /* \"#utility.yul\":2107:2130   */\n      tag_324\n      jump\t// in\n    tag_428:\n        /* \"#utility.yul\":2102:2105   */\n      dup3\n        /* \"#utility.yul\":2095:2131   */\n      mstore\n        /* \"#utility.yul\":2022:2137   */\n      pop\n      pop\n      jump\t// out\n        /* \"#utility.yul\":2143:2361   */\n    tag_42:\n        /* \"#utility.yul\":2234:2238   */\n      0x00\n        /* \"#utility.yul\":2272:2274   */\n      0x20\n        /* \"#utility.yul\":2261:2270   */\n      dup3\n        /* \"#utility.yul\":2257:2275   */\n      add\n        /* \"#utility.yul\":2249:2275   */\n      swap1\n      pop\n        /* \"#utility.yul\":2285:2354   */\n      tag_430\n        /* \"#utility.yul\":2351:2352   */\n      0x00\n        /* \"#utility.yul\":2340:2349   */\n      dup4\n        /* \"#utility.yul\":2336:2353   */\n      add\n        /* \"#utility.yul\":2327:2333   */\n      dup5\n        /* \"#utility.yul\":2285:2354   */\n      tag_325\n      jump\t// in\n    tag_430:\n        /* \"#utility.yul\":2143:2361   */\n      swap3\n      swap2\n      pop\n      pop\n      jump\t// out\n        /* \"#utility.yul\":2367:2841   */\n    tag_45:\n        /* \"#utility.yul\":2435:2441   */\n      0x00\n        /* \"#utility.yul\":2443:2449   */\n      dup1\n        /* \"#utility.yul\":2492:2494   */\n      0x40\n        /* \"#utility.yul\":2480:2489   */\n      dup4\n        /* \"#utility.yul\":2471:2478   */\n      dup6\n        /* \"#utility.yul\":2467:2490   */\n      sub\n        /* \"#utility.yul\":2463:2495   */\n      slt\n        /* \"#utility.yul\":2460:2579   */\n      iszero\n      tag_432\n      jumpi\n        /* \"#utility.yul\":2498:2577   */\n      tag_433\n      tag_315\n      jump\t// in\n    tag_433:\n        /* \"#utility.yul\":2460:2579   */\n    tag_432:\n        /* \"#utility.yul\":2618:2619   */\n      0x00\n        /* \"#utility.yul\":2643:2696   */\n      tag_434\n        /* \"#utility.yul\":2688:2695   */\n      dup6\n        /* \"#utility.yul\":2679:2685   */\n      dup3\n        /* \"#utility.yul\":2668:2677   */\n      dup7\n        /* \"#utility.yul\":2664:2686   */\n      add\n        /* \"#utility.yul\":2643:2696   */\n      tag_319\n      jump\t// in\n    tag_434:\n        /* \"#utility.yul\":2633:2696   */\n      swap3\n      pop\n        /* \"#utility.yul\":2589:2706   */\n      pop\n        /* \"#utility.yul\":2745:2747   */\n      0x20\n        /* \"#utility.yul\":2771:2824   */\n      tag_435\n        /* \"#utility.yul\":2816:2823   */\n      dup6\n        /* \"#utility.yul\":2807:2813   */\n      dup3\n        /* \"#utility.yul\":2796:2805   */\n      dup7\n        /* \"#utility.yul\":2792:2814   */\n      add\n        /* \"#utility.yul\":2771:2824   */\n      tag_319\n      jump\t// in\n    tag_435:\n        /* \"#utility.yul\":2761:2824   */\n      swap2\n      pop\n        /* \"#utility.yul\":2716:2834   */\n      pop\n        /* \"#utility.yul\":2367:2841   */\n      swap3\n      pop\n      swap3\n      swap1\n      pop\n      jump\t// out\n        /* \"#utility.yul\":2847:2907   */\n    tag_326:\n        /* \"#utility.yul\":2875:2878   */\n      0x00\n        /* \"#utility.yul\":2896:2901   */\n      dup2\n        /* \"#utility.yul\":2889:2901   */\n      swap1\n      pop\n        /* \"#utility.yul\":2847:2907   */\n      swap2\n      swap1\n      pop\n      jump\t// out\n        /* \"#utility.yul\":2913:3055   */\n    tag_327:\n        /* \"#utility.yul\":2963:2972   */\n      0x00\n        /* \"#utility.yul\":2996:3049   */\n      tag_438\n        /* \"#utility.yul\":3014:3048   */\n      tag_439\n        /* \"#utility.yul\":3023:3047   */\n      tag_440\n        /* \"#utility.yul\":3041:3046   */\n      dup5\n        /* \"#utility.yul\":3023:3047   */\n      tag_320\n      jump\t// in\n    tag_440:\n        /* \"#utility.yul\":3014:3048   */\n      tag_326\n      jump\t// in\n    tag_439:\n        /* \"#utility.yul\":2996:3049   */\n      tag_320\n      jump\t// in\n    tag_438:\n        /* \"#utility.yul\":2983:3049   */\n      swap1\n      pop\n        /* \"#utility.yul\":2913:3055   */\n      swap2\n      swap1\n      pop\n      jump\t// out\n        /* \"#utility.yul\":3061:3187   */\n    tag_328:\n        /* \"#utility.yul\":3111:3120   */\n      0x00\n        /* \"#utility.yul\":3144:3181   */\n      tag_442\n        /* \"#utility.yul\":3175:3180   */\n      dup3\n        /* \"#utility.yul\":3144:3181   */\n      tag_327\n      jump\t// in\n    tag_442:\n        /* \"#utility.yul\":3131:3181   */\n      swap1\n      pop\n        /* \"#utility.yul\":3061:3187   */\n      swap2\n      swap1\n      pop\n      jump\t// out\n        /* \"#utility.yul\":3193:3333   */\n    tag_329:\n        /* \"#utility.yul\":3257:3266   */\n      0x00\n        /* \"#utility.yul\":3290:3327   */\n      tag_444\n        /* \"#utility.yul\":3321:3326   */\n      dup3\n        /* \"#utility.yul\":3290:3327   */\n      tag_328\n      jump\t// in\n    tag_444:\n        /* \"#utility.yul\":3277:3327   */\n      swap1\n      pop\n        /* \"#utility.yul\":3193:3333   */\n      swap2\n      swap1\n      pop\n      jump\t// out\n        /* \"#utility.yul\":3339:3498   */\n    tag_330:\n        /* \"#utility.yul\":3440:3491   */\n      tag_446\n        /* \"#utility.yul\":3485:3490   */\n      dup2\n        /* \"#utility.yul\":3440:3491   */\n      tag_329\n      jump\t// in\n    tag_446:\n        /* \"#utility.yul\":3435:3438   */\n      dup3\n        /* \"#utility.yul\":3428:3492   */\n      mstore\n        /* \"#utility.yul\":3339:3498   */\n      pop\n      pop\n      jump\t// out\n        /* \"#utility.yul\":3504:3754   */\n    tag_50:\n        /* \"#utility.yul\":3611:3615   */\n      0x00\n        /* \"#utility.yul\":3649:3651   */\n      0x20\n        /* \"#utility.yul\":3638:3647   */\n      dup3\n        /* \"#utility.yul\":3634:3652   */\n      add\n        /* \"#utility.yul\":3626:3652   */\n      swap1\n      pop\n        /* \"#utility.yul\":3662:3747   */\n      tag_448\n        /* \"#utility.yul\":3744:3745   */\n      0x00\n        /* \"#utility.yul\":3733:3742   */\n      dup4\n        /* \"#utility.yul\":3729:3746   */\n      add\n        /* \"#utility.yul\":3720:3726   */\n      dup5\n        /* \"#utility.yul\":3662:3747   */\n      tag_330\n      jump\t// in\n    tag_448:\n        /* \"#utility.yul\":3504:3754   */\n      swap3\n      swap2\n      pop\n      pop\n      jump\t// out\n        /* \"#utility.yul\":3760:3901   */\n    tag_331:\n        /* \"#utility.yul\":3854:3860   */\n      0x00\n        /* \"#utility.yul\":3888:3893   */\n      dup2\n        /* \"#utility.yul\":3882:3894   */\n      mload\n        /* \"#utility.yul\":3872:3894   */\n      swap1\n      pop\n        /* \"#utility.yul\":3760:3901   */\n      swap2\n      swap1\n      pop\n      jump\t// out\n        /* \"#utility.yul\":3907:4118   */\n    tag_332:\n        /* \"#utility.yul\":4033:4044   */\n      0x00\n        /* \"#utility.yul\":4067:4073   */\n      dup3\n        /* \"#utility.yul\":4062:4065   */\n      dup3\n        /* \"#utility.yul\":4055:4074   */\n      mstore\n        /* \"#utility.yul\":4107:4111   */\n      0x20\n        /* \"#utility.yul\":4102:4105   */\n      dup3\n        /* \"#utility.yul\":4098:4112   */\n      add\n        /* \"#utility.yul\":4083:4112   */\n      swap1\n      pop\n        /* \"#utility.yul\":3907:4118   */\n      swap3\n      swap2\n      pop\n      pop\n      jump\t// out\n        /* \"#utility.yul\":4124:4283   */\n    tag_333:\n        /* \"#utility.yul\":4218:4222   */\n      0x00\n        /* \"#utility.yul\":4241:4244   */\n      dup2\n        /* \"#utility.yul\":4233:4244   */\n      swap1\n      pop\n        /* \"#utility.yul\":4271:4275   */\n      0x20\n        /* \"#utility.yul\":4266:4269   */\n      dup3\n        /* \"#utility.yul\":4262:4276   */\n      add\n        /* \"#utility.yul\":4254:4276   */\n      swap1\n      pop\n        /* \"#utility.yul\":4124:4283   */\n      swap2\n      swap1\n      pop\n      jump\t// out\n        /* \"#utility.yul\":4289:4397   */\n    tag_334:\n        /* \"#utility.yul\":4366:4390   */\n      tag_453\n        /* \"#utility.yul\":4384:4389   */\n      dup2\n        /* \"#utility.yul\":4366:4390   */\n      tag_317\n      jump\t// in\n    tag_453:\n        /* \"#utility.yul\":4361:4364   */\n      dup3\n        /* \"#utility.yul\":4354:4391   */\n      mstore\n        /* \"#utility.yul\":4289:4397   */\n      pop\n      pop\n      jump\t// out\n        /* \"#utility.yul\":4403:4511   */\n    tag_335:\n        /* \"#utility.yul\":4480:4504   */\n      tag_455\n        /* \"#utility.yul\":4498:4503   */\n      dup2\n        /* \"#utility.yul\":4480:4504   */\n      tag_321\n      jump\t// in\n    tag_455:\n        /* \"#utility.yul\":4475:4478   */\n      dup3\n        /* \"#utility.yul\":4468:4505   */\n      mstore\n        /* \"#utility.yul\":4403:4511   */\n      pop\n      pop\n      jump\t// out\n        /* \"#utility.yul\":4517:4697   */\n    tag_114:\n        /* \"#utility.yul\":4565:4642   */\n      0x4e487b7100000000000000000000000000000000000000000000000000000000\n        /* \"#utility.yul\":4562:4563   */\n      0x00\n        /* \"#utility.yul\":4555:4643   */\n      mstore\n        /* \"#utility.yul\":4662:4666   */\n      0x21\n        /* \"#utility.yul\":4659:4660   */\n      0x04\n        /* \"#utility.yul\":4652:4667   */\n      mstore\n        /* \"#utility.yul\":4686:4690   */\n      0x24\n        /* \"#utility.yul\":4683:4684   */\n      0x00\n        /* \"#utility.yul\":4676:4691   */\n      revert\n        /* \"#utility.yul\":4703:4822   */\n    tag_336:\n        /* \"#utility.yul\":4790:4791   */\n      0x02\n        /* \"#utility.yul\":4783:4788   */\n      dup2\n        /* \"#utility.yul\":4780:4792   */\n      lt\n        /* \"#utility.yul\":4770:4816   */\n      tag_458\n      jumpi\n        /* \"#utility.yul\":4796:4814   */\n      tag_459\n      tag_114\n      jump\t// in\n    tag_459:\n        /* \"#utility.yul\":4770:4816   */\n    tag_458:\n        /* \"#utility.yul\":4703:4822   */\n      pop\n      jump\t// out\n        /* \"#utility.yul\":4828:4967   */\n    tag_337:\n        /* \"#utility.yul\":4879:4886   */\n      0x00\n        /* \"#utility.yul\":4908:4913   */\n      dup2\n        /* \"#utility.yul\":4897:4913   */\n      swap1\n      pop\n        /* \"#utility.yul\":4914:4961   */\n      tag_461\n        /* \"#utility.yul\":4955:4960   */\n      dup3\n        /* \"#utility.yul\":4914:4961   */\n      tag_336\n      jump\t// in\n    tag_461:\n        /* \"#utility.yul\":4828:4967   */\n      swap2\n      swap1\n      pop\n      jump\t// out\n        /* \"#utility.yul\":4973:5112   */\n    tag_338:\n        /* \"#utility.yul\":5035:5044   */\n      0x00\n        /* \"#utility.yul\":5068:5106   */\n      tag_463\n        /* \"#utility.yul\":5100:5105   */\n      dup3\n        /* \"#utility.yul\":5068:5106   */\n      tag_337\n      jump\t// in\n    tag_463:\n        /* \"#utility.yul\":5055:5106   */\n      swap1\n      pop\n        /* \"#utility.yul\":4973:5112   */\n      swap2\n      swap1\n      pop\n      jump\t// out\n        /* \"#utility.yul\":5118:5263   */\n    tag_339:\n        /* \"#utility.yul\":5207:5256   */\n      tag_465\n        /* \"#utility.yul\":5250:5255   */\n      dup2\n        /* \"#utility.yul\":5207:5256   */\n      tag_338\n      jump\t// in\n    tag_465:\n        /* \"#utility.yul\":5202:5205   */\n      dup3\n        /* \"#utility.yul\":5195:5257   */\n      mstore\n        /* \"#utility.yul\":5118:5263   */\n      pop\n      pop\n      jump\t// out\n        /* \"#utility.yul\":5353:6573   */\n    tag_340:\n        /* \"#utility.yul\":5494:5498   */\n      0xc0\n        /* \"#utility.yul\":5489:5492   */\n      dup3\n        /* \"#utility.yul\":5485:5499   */\n      add\n        /* \"#utility.yul\":5583:5587   */\n      0x00\n        /* \"#utility.yul\":5576:5581   */\n      dup3\n        /* \"#utility.yul\":5572:5588   */\n      add\n        /* \"#utility.yul\":5566:5589   */\n      mload\n        /* \"#utility.yul\":5602:5665   */\n      tag_467\n        /* \"#utility.yul\":5659:5663   */\n      0x00\n        /* \"#utility.yul\":5654:5657   */\n      dup6\n        /* \"#utility.yul\":5650:5664   */\n      add\n        /* \"#utility.yul\":5636:5648   */\n      dup3\n        /* \"#utility.yul\":5602:5665   */\n      tag_334\n      jump\t// in\n    tag_467:\n        /* \"#utility.yul\":5509:5675   */\n      pop\n        /* \"#utility.yul\":5760:5764   */\n      0x20\n        /* \"#utility.yul\":5753:5758   */\n      dup3\n        /* \"#utility.yul\":5749:5765   */\n      add\n        /* \"#utility.yul\":5743:5766   */\n      mload\n        /* \"#utility.yul\":5779:5842   */\n      tag_468\n        /* \"#utility.yul\":5836:5840   */\n      0x20\n        /* \"#utility.yul\":5831:5834   */\n      dup6\n        /* \"#utility.yul\":5827:5841   */\n      add\n        /* \"#utility.yul\":5813:5825   */\n      dup3\n        /* \"#utility.yul\":5779:5842   */\n      tag_334\n      jump\t// in\n    tag_468:\n        /* \"#utility.yul\":5685:5852   */\n      pop\n        /* \"#utility.yul\":5936:5940   */\n      0x40\n        /* \"#utility.yul\":5929:5934   */\n      dup3\n        /* \"#utility.yul\":5925:5941   */\n      add\n        /* \"#utility.yul\":5919:5942   */\n      mload\n        /* \"#utility.yul\":5955:6018   */\n      tag_469\n        /* \"#utility.yul\":6012:6016   */\n      0x40\n        /* \"#utility.yul\":6007:6010   */\n      dup6\n        /* \"#utility.yul\":6003:6017   */\n      add\n        /* \"#utility.yul\":5989:6001   */\n      dup3\n        /* \"#utility.yul\":5955:6018   */\n      tag_335\n      jump\t// in\n    tag_469:\n        /* \"#utility.yul\":5862:6028   */\n      pop\n        /* \"#utility.yul\":6111:6115   */\n      0x60\n        /* \"#utility.yul\":6104:6109   */\n      dup3\n        /* \"#utility.yul\":6100:6116   */\n      add\n        /* \"#utility.yul\":6094:6117   */\n      mload\n        /* \"#utility.yul\":6130:6193   */\n      tag_470\n        /* \"#utility.yul\":6187:6191   */\n      0x60\n        /* \"#utility.yul\":6182:6185   */\n      dup6\n        /* \"#utility.yul\":6178:6192   */\n      add\n        /* \"#utility.yul\":6164:6176   */\n      dup3\n        /* \"#utility.yul\":6130:6193   */\n      tag_335\n      jump\t// in\n    tag_470:\n        /* \"#utility.yul\":6038:6203   */\n      pop\n        /* \"#utility.yul\":6286:6290   */\n      0x80\n        /* \"#utility.yul\":6279:6284   */\n      dup3\n        /* \"#utility.yul\":6275:6291   */\n      add\n        /* \"#utility.yul\":6269:6292   */\n      mload\n        /* \"#utility.yul\":6305:6368   */\n      tag_471\n        /* \"#utility.yul\":6362:6366   */\n      0x80\n        /* \"#utility.yul\":6357:6360   */\n      dup6\n        /* \"#utility.yul\":6353:6367   */\n      add\n        /* \"#utility.yul\":6339:6351   */\n      dup3\n        /* \"#utility.yul\":6305:6368   */\n      tag_334\n      jump\t// in\n    tag_471:\n        /* \"#utility.yul\":6213:6378   */\n      pop\n        /* \"#utility.yul\":6462:6466   */\n      0xa0\n        /* \"#utility.yul\":6455:6460   */\n      dup3\n        /* \"#utility.yul\":6451:6467   */\n      add\n        /* \"#utility.yul\":6445:6468   */\n      mload\n        /* \"#utility.yul\":6481:6556   */\n      tag_472\n        /* \"#utility.yul\":6550:6554   */\n      0xa0\n        /* \"#utility.yul\":6545:6548   */\n      dup6\n        /* \"#utility.yul\":6541:6555   */\n      add\n        /* \"#utility.yul\":6527:6539   */\n      dup3\n        /* \"#utility.yul\":6481:6556   */\n      tag_339\n      jump\t// in\n    tag_472:\n        /* \"#utility.yul\":6388:6566   */\n      pop\n        /* \"#utility.yul\":5463:6573   */\n      pop\n        /* \"#utility.yul\":5353:6573   */\n      pop\n      pop\n      jump\t// out\n        /* \"#utility.yul\":6579:6866   */\n    tag_341:\n        /* \"#utility.yul\":6702:6712   */\n      0x00\n        /* \"#utility.yul\":6723:6823   */\n      tag_474\n        /* \"#utility.yul\":6819:6822   */\n      dup4\n        /* \"#utility.yul\":6811:6817   */\n      dup4\n        /* \"#utility.yul\":6723:6823   */\n      tag_340\n      jump\t// in\n    tag_474:\n        /* \"#utility.yul\":6855:6859   */\n      0xc0\n        /* \"#utility.yul\":6850:6853   */\n      dup4\n        /* \"#utility.yul\":6846:6860   */\n      add\n        /* \"#utility.yul\":6832:6860   */\n      swap1\n      pop\n        /* \"#utility.yul\":6579:6866   */\n      swap3\n      swap2\n      pop\n      pop\n      jump\t// out\n        /* \"#utility.yul\":6872:7012   */\n    tag_342:\n        /* \"#utility.yul\":6969:6973   */\n      0x00\n        /* \"#utility.yul\":7001:7005   */\n      0x20\n        /* \"#utility.yul\":6996:6999   */\n      dup3\n        /* \"#utility.yul\":6992:7006   */\n      add\n        /* \"#utility.yul\":6984:7006   */\n      swap1\n      pop\n        /* \"#utility.yul\":6872:7012   */\n      swap2\n      swap1\n      pop\n      jump\t// out\n        /* \"#utility.yul\":7106:8054   */\n    tag_343:\n        /* \"#utility.yul\":7279:7282   */\n      0x00\n        /* \"#utility.yul\":7308:7389   */\n      tag_477\n        /* \"#utility.yul\":7383:7388   */\n      dup3\n        /* \"#utility.yul\":7308:7389   */\n      tag_331\n      jump\t// in\n    tag_477:\n        /* \"#utility.yul\":7405:7518   */\n      tag_478\n        /* \"#utility.yul\":7511:7517   */\n      dup2\n        /* \"#utility.yul\":7506:7509   */\n      dup6\n        /* \"#utility.yul\":7405:7518   */\n      tag_332\n      jump\t// in\n    tag_478:\n        /* \"#utility.yul\":7398:7518   */\n      swap4\n      pop\n        /* \"#utility.yul\":7542:7625   */\n      tag_479\n        /* \"#utility.yul\":7619:7624   */\n      dup4\n        /* \"#utility.yul\":7542:7625   */\n      tag_333\n      jump\t// in\n    tag_479:\n        /* \"#utility.yul\":7648:7655   */\n      dup1\n        /* \"#utility.yul\":7679:7680   */\n      0x00\n        /* \"#utility.yul\":7664:8029   */\n    tag_480:\n        /* \"#utility.yul\":7689:7695   */\n      dup4\n        /* \"#utility.yul\":7686:7687   */\n      dup2\n        /* \"#utility.yul\":7683:7696   */\n      lt\n        /* \"#utility.yul\":7664:8029   */\n      iszero\n      tag_482\n      jumpi\n        /* \"#utility.yul\":7765:7771   */\n      dup2\n        /* \"#utility.yul\":7759:7772   */\n      mload\n        /* \"#utility.yul\":7792:7909   */\n      tag_483\n        /* \"#utility.yul\":7905:7908   */\n      dup9\n        /* \"#utility.yul\":7890:7903   */\n      dup3\n        /* \"#utility.yul\":7792:7909   */\n      tag_341\n      jump\t// in\n    tag_483:\n        /* \"#utility.yul\":7785:7909   */\n      swap8\n      pop\n        /* \"#utility.yul\":7932:8019   */\n      tag_484\n        /* \"#utility.yul\":8012:8018   */\n      dup4\n        /* \"#utility.yul\":7932:8019   */\n      tag_342\n      jump\t// in\n    tag_484:\n        /* \"#utility.yul\":7922:8019   */\n      swap3\n      pop\n        /* \"#utility.yul\":7724:8029   */\n      pop\n        /* \"#utility.yul\":7711:7712   */\n      0x01\n        /* \"#utility.yul\":7708:7709   */\n      dup2\n        /* \"#utility.yul\":7704:7713   */\n      add\n        /* \"#utility.yul\":7699:7713   */\n      swap1\n      pop\n        /* \"#utility.yul\":7664:8029   */\n      jump(tag_480)\n    tag_482:\n        /* \"#utility.yul\":7668:7682   */\n      pop\n        /* \"#utility.yul\":8045:8048   */\n      dup6\n        /* \"#utility.yul\":8038:8048   */\n      swap4\n      pop\n        /* \"#utility.yul\":7284:8054   */\n      pop\n      pop\n      pop\n        /* \"#utility.yul\":7106:8054   */\n      swap3\n      swap2\n      pop\n      pop\n      jump\t// out\n        /* \"#utility.yul\":8060:8541   */\n    tag_54:\n        /* \"#utility.yul\":8257:8261   */\n      0x00\n        /* \"#utility.yul\":8295:8297   */\n      0x20\n        /* \"#utility.yul\":8284:8293   */\n      dup3\n        /* \"#utility.yul\":8280:8298   */\n      add\n        /* \"#utility.yul\":8272:8298   */\n      swap1\n      pop\n        /* \"#utility.yul\":8344:8353   */\n      dup2\n        /* \"#utility.yul\":8338:8342   */\n      dup2\n        /* \"#utility.yul\":8334:8354   */\n      sub\n        /* \"#utility.yul\":8330:8331   */\n      0x00\n        /* \"#utility.yul\":8319:8328   */\n      dup4\n        /* \"#utility.yul\":8315:8332   */\n      add\n        /* \"#utility.yul\":8308:8355   */\n      mstore\n        /* \"#utility.yul\":8372:8534   */\n      tag_486\n        /* \"#utility.yul\":8529:8533   */\n      dup2\n        /* \"#utility.yul\":8520:8526   */\n      dup5\n        /* \"#utility.yul\":8372:8534   */\n      tag_343\n      jump\t// in\n    tag_486:\n        /* \"#utility.yul\":8364:8534   */\n      swap1\n      pop\n        /* \"#utility.yul\":8060:8541   */\n      swap3\n      swap2\n      pop\n      pop\n      jump\t// out\n        /* \"#utility.yul\":8547:8633   */\n    tag_344:\n        /* \"#utility.yul\":8582:8589   */\n      0x00\n        /* \"#utility.yul\":8622:8626   */\n      0xff\n        /* \"#utility.yul\":8615:8620   */\n      dup3\n        /* \"#utility.yul\":8611:8627   */\n      and\n        /* \"#utility.yul\":8600:8627   */\n      swap1\n      pop\n        /* \"#utility.yul\":8547:8633   */\n      swap2\n      swap1\n      pop\n      jump\t// out\n        /* \"#utility.yul\":8639:8751   */\n    tag_345:\n        /* \"#utility.yul\":8722:8744   */\n      tag_489\n        /* \"#utility.yul\":8738:8743   */\n      dup2\n        /* \"#utility.yul\":8722:8744   */\n      tag_344\n      jump\t// in\n    tag_489:\n        /* \"#utility.yul\":8717:8720   */\n      dup3\n        /* \"#utility.yul\":8710:8745   */\n      mstore\n        /* \"#utility.yul\":8639:8751   */\n      pop\n      pop\n      jump\t// out\n        /* \"#utility.yul\":8757:8971   */\n    tag_63:\n        /* \"#utility.yul\":8846:8850   */\n      0x00\n        /* \"#utility.yul\":8884:8886   */\n      0x20\n        /* \"#utility.yul\":8873:8882   */\n      dup3\n        /* \"#utility.yul\":8869:8887   */\n      add\n        /* \"#utility.yul\":8861:8887   */\n      swap1\n      pop\n        /* \"#utility.yul\":8897:8964   */\n      tag_491\n        /* \"#utility.yul\":8961:8962   */\n      0x00\n        /* \"#utility.yul\":8950:8959   */\n      dup4\n        /* \"#utility.yul\":8946:8963   */\n      add\n        /* \"#utility.yul\":8937:8943   */\n      dup5\n        /* \"#utility.yul\":8897:8964   */\n      tag_345\n      jump\t// in\n    tag_491:\n        /* \"#utility.yul\":8757:8971   */\n      swap3\n      swap2\n      pop\n      pop\n      jump\t// out\n        /* \"#utility.yul\":8977:9596   */\n    tag_66:\n        /* \"#utility.yul\":9054:9060   */\n      0x00\n        /* \"#utility.yul\":9062:9068   */\n      dup1\n        /* \"#utility.yul\":9070:9076   */\n      0x00\n        /* \"#utility.yul\":9119:9121   */\n      0x60\n        /* \"#utility.yul\":9107:9116   */\n      dup5\n        /* \"#utility.yul\":9098:9105   */\n      dup7\n        /* \"#utility.yul\":9094:9117   */\n      sub\n        /* \"#utility.yul\":9090:9122   */\n      slt\n        /* \"#utility.yul\":9087:9206   */\n      iszero\n      tag_493\n      jumpi\n        /* \"#utility.yul\":9125:9204   */\n      tag_494\n      tag_315\n      jump\t// in\n    tag_494:\n        /* \"#utility.yul\":9087:9206   */\n    tag_493:\n        /* \"#utility.yul\":9245:9246   */\n      0x00\n        /* \"#utility.yul\":9270:9323   */\n      tag_495\n        /* \"#utility.yul\":9315:9322   */\n      dup7\n        /* \"#utility.yul\":9306:9312   */\n      dup3\n        /* \"#utility.yul\":9295:9304   */\n      dup8\n        /* \"#utility.yul\":9291:9313   */\n      add\n        /* \"#utility.yul\":9270:9323   */\n      tag_319\n      jump\t// in\n    tag_495:\n        /* \"#utility.yul\":9260:9323   */\n      swap4\n      pop\n        /* \"#utility.yul\":9216:9333   */\n      pop\n        /* \"#utility.yul\":9372:9374   */\n      0x20\n        /* \"#utility.yul\":9398:9451   */\n      tag_496\n        /* \"#utility.yul\":9443:9450   */\n      dup7\n        /* \"#utility.yul\":9434:9440   */\n      dup3\n        /* \"#utility.yul\":9423:9432   */\n      dup8\n        /* \"#utility.yul\":9419:9441   */\n      add\n        /* \"#utility.yul\":9398:9451   */\n      tag_319\n      jump\t// in\n    tag_496:\n        /* \"#utility.yul\":9388:9451   */\n      swap3\n      pop\n        /* \"#utility.yul\":9343:9461   */\n      pop\n        /* \"#utility.yul\":9500:9502   */\n      0x40\n        /* \"#utility.yul\":9526:9579   */\n      tag_497\n        /* \"#utility.yul\":9571:9578   */\n      dup7\n        /* \"#utility.yul\":9562:9568   */\n      dup3\n        /* \"#utility.yul\":9551:9560   */\n      dup8\n        /* \"#utility.yul\":9547:9569   */\n      add\n        /* \"#utility.yul\":9526:9579   */\n      tag_319\n      jump\t// in\n    tag_497:\n        /* \"#utility.yul\":9516:9579   */\n      swap2\n      pop\n        /* \"#utility.yul\":9471:9589   */\n      pop\n        /* \"#utility.yul\":8977:9596   */\n      swap3\n      pop\n      swap3\n      pop\n      swap3\n      jump\t// out\n        /* \"#utility.yul\":9602:9720   */\n    tag_346:\n        /* \"#utility.yul\":9689:9713   */\n      tag_499\n        /* \"#utility.yul\":9707:9712   */\n      dup2\n        /* \"#utility.yul\":9689:9713   */\n      tag_321\n      jump\t// in\n    tag_499:\n        /* \"#utility.yul\":9684:9687   */\n      dup3\n        /* \"#utility.yul\":9677:9714   */\n      mstore\n        /* \"#utility.yul\":9602:9720   */\n      pop\n      pop\n      jump\t// out\n        /* \"#utility.yul\":9726:9948   */\n    tag_71:\n        /* \"#utility.yul\":9819:9823   */\n      0x00\n        /* \"#utility.yul\":9857:9859   */\n      0x20\n        /* \"#utility.yul\":9846:9855   */\n      dup3\n        /* \"#utility.yul\":9842:9860   */\n      add\n        /* \"#utility.yul\":9834:9860   */\n      swap1\n      pop\n        /* \"#utility.yul\":9870:9941   */\n      tag_501\n        /* \"#utility.yul\":9938:9939   */\n      0x00\n        /* \"#utility.yul\":9927:9936   */\n      dup4\n        /* \"#utility.yul\":9923:9940   */\n      add\n        /* \"#utility.yul\":9914:9920   */\n      dup5\n        /* \"#utility.yul\":9870:9941   */\n      tag_346\n      jump\t// in\n    tag_501:\n        /* \"#utility.yul\":9726:9948   */\n      swap3\n      swap2\n      pop\n      pop\n      jump\t// out\n        /* \"#utility.yul\":9954:10053   */\n    tag_347:\n        /* \"#utility.yul\":10006:10012   */\n      0x00\n        /* \"#utility.yul\":10040:10045   */\n      dup2\n        /* \"#utility.yul\":10034:10046   */\n      mload\n        /* \"#utility.yul\":10024:10046   */\n      swap1\n      pop\n        /* \"#utility.yul\":9954:10053   */\n      swap2\n      swap1\n      pop\n      jump\t// out\n        /* \"#utility.yul\":10059:10218   */\n    tag_348:\n        /* \"#utility.yul\":10133:10144   */\n      0x00\n        /* \"#utility.yul\":10167:10173   */\n      dup3\n        /* \"#utility.yul\":10162:10165   */\n      dup3\n        /* \"#utility.yul\":10155:10174   */\n      mstore\n        /* \"#utility.yul\":10207:10211   */\n      0x20\n        /* \"#utility.yul\":10202:10205   */\n      dup3\n        /* \"#utility.yul\":10198:10212   */\n      add\n        /* \"#utility.yul\":10183:10212   */\n      swap1\n      pop\n        /* \"#utility.yul\":10059:10218   */\n      swap3\n      swap2\n      pop\n      pop\n      jump\t// out\n        /* \"#utility.yul\":10224:10531   */\n    tag_349:\n        /* \"#utility.yul\":10292:10293   */\n      0x00\n        /* \"#utility.yul\":10302:10415   */\n    tag_505:\n        /* \"#utility.yul\":10316:10322   */\n      dup4\n        /* \"#utility.yul\":10313:10314   */\n      dup2\n        /* \"#utility.yul\":10310:10323   */\n      lt\n        /* \"#utility.yul\":10302:10415   */\n      iszero\n      tag_507\n      jumpi\n        /* \"#utility.yul\":10401:10402   */\n      dup1\n        /* \"#utility.yul\":10396:10399   */\n      dup3\n        /* \"#utility.yul\":10392:10403   */\n      add\n        /* \"#utility.yul\":10386:10404   */\n      mload\n        /* \"#utility.yul\":10382:10383   */\n      dup2\n        /* \"#utility.yul\":10377:10380   */\n      dup5\n        /* \"#utility.yul\":10373:10384   */\n      add\n        /* \"#utility.yul\":10366:10405   */\n      mstore\n        /* \"#utility.yul\":10338:10340   */\n      0x20\n        /* \"#utility.yul\":10335:10336   */\n      dup2\n        /* \"#utility.yul\":10331:10341   */\n      add\n        /* \"#utility.yul\":10326:10341   */\n      swap1\n      pop\n        /* \"#utility.yul\":10302:10415   */\n      jump(tag_505)\n    tag_507:\n        /* \"#utility.yul\":10433:10439   */\n      dup4\n        /* \"#utility.yul\":10430:10431   */\n      dup2\n        /* \"#utility.yul\":10427:10440   */\n      gt\n        /* \"#utility.yul\":10424:10525   */\n      iszero\n      tag_508\n      jumpi\n        /* \"#utility.yul\":10513:10514   */\n      0x00\n        /* \"#utility.yul\":10504:10510   */\n      dup5\n        /* \"#utility.yul\":10499:10502   */\n      dup5\n        /* \"#utility.yul\":10495:10511   */\n      add\n        /* \"#utility.yul\":10488:10515   */\n      mstore\n        /* \"#utility.yul\":10424:10525   */\n    tag_508:\n        /* \"#utility.yul\":10273:10531   */\n      pop\n        /* \"#utility.yul\":10224:10531   */\n      pop\n      pop\n      pop\n      jump\t// out\n        /* \"#utility.yul\":10537:10639   */\n    tag_350:\n        /* \"#utility.yul\":10578:10584   */\n      0x00\n        /* \"#utility.yul\":10629:10631   */\n      0x1f\n        /* \"#utility.yul\":10625:10632   */\n      not\n        /* \"#utility.yul\":10620:10622   */\n      0x1f\n        /* \"#utility.yul\":10613:10618   */\n      dup4\n        /* \"#utility.yul\":10609:10623   */\n      add\n        /* \"#utility.yul\":10605:10633   */\n      and\n        /* \"#utility.yul\":10595:10633   */\n      swap1\n      pop\n        /* \"#utility.yul\":10537:10639   */\n      swap2\n      swap1\n      pop\n      jump\t// out\n        /* \"#utility.yul\":10645:10989   */\n    tag_351:\n        /* \"#utility.yul\":10723:10726   */\n      0x00\n        /* \"#utility.yul\":10751:10790   */\n      tag_511\n        /* \"#utility.yul\":10784:10789   */\n      dup3\n        /* \"#utility.yul\":10751:10790   */\n      tag_347\n      jump\t// in\n    tag_511:\n        /* \"#utility.yul\":10806:10867   */\n      tag_512\n        /* \"#utility.yul\":10860:10866   */\n      dup2\n        /* \"#utility.yul\":10855:10858   */\n      dup6\n        /* \"#utility.yul\":10806:10867   */\n      tag_348\n      jump\t// in\n    tag_512:\n        /* \"#utility.yul\":10799:10867   */\n      swap4\n      pop\n        /* \"#utility.yul\":10876:10928   */\n      tag_513\n        /* \"#utility.yul\":10921:10927   */\n      dup2\n        /* \"#utility.yul\":10916:10919   */\n      dup6\n        /* \"#utility.yul\":10909:10913   */\n      0x20\n        /* \"#utility.yul\":10902:10907   */\n      dup7\n        /* \"#utility.yul\":10898:10914   */\n      add\n        /* \"#utility.yul\":10876:10928   */\n      tag_349\n      jump\t// in\n    tag_513:\n        /* \"#utility.yul\":10953:10982   */\n      tag_514\n        /* \"#utility.yul\":10975:10981   */\n      dup2\n        /* \"#utility.yul\":10953:10982   */\n      tag_350\n      jump\t// in\n    tag_514:\n        /* \"#utility.yul\":10948:10951   */\n      dup5\n        /* \"#utility.yul\":10944:10983   */\n      add\n        /* \"#utility.yul\":10937:10983   */\n      swap2\n      pop\n        /* \"#utility.yul\":10727:10989   */\n      pop\n        /* \"#utility.yul\":10645:10989   */\n      swap3\n      swap2\n      pop\n      pop\n      jump\t// out\n        /* \"#utility.yul\":10995:11085   */\n    tag_352:\n        /* \"#utility.yul\":11029:11036   */\n      0x00\n        /* \"#utility.yul\":11072:11077   */\n      dup2\n        /* \"#utility.yul\":11065:11078   */\n      iszero\n        /* \"#utility.yul\":11058:11079   */\n      iszero\n        /* \"#utility.yul\":11047:11079   */\n      swap1\n      pop\n        /* \"#utility.yul\":10995:11085   */\n      swap2\n      swap1\n      pop\n      jump\t// out\n        /* \"#utility.yul\":11091:11190   */\n    tag_353:\n        /* \"#utility.yul\":11162:11183   */\n      tag_517\n        /* \"#utility.yul\":11177:11182   */\n      dup2\n        /* \"#utility.yul\":11162:11183   */\n      tag_352\n      jump\t// in\n    tag_517:\n        /* \"#utility.yul\":11157:11160   */\n      dup3\n        /* \"#utility.yul\":11150:11184   */\n      mstore\n        /* \"#utility.yul\":11091:11190   */\n      pop\n      pop\n      jump\t// out\n        /* \"#utility.yul\":11264:12472   */\n    tag_354:\n        /* \"#utility.yul\":11389:11392   */\n      0x00\n        /* \"#utility.yul\":11425:11429   */\n      0xa0\n        /* \"#utility.yul\":11420:11423   */\n      dup4\n        /* \"#utility.yul\":11416:11430   */\n      add\n        /* \"#utility.yul\":11510:11514   */\n      0x00\n        /* \"#utility.yul\":11503:11508   */\n      dup4\n        /* \"#utility.yul\":11499:11515   */\n      add\n        /* \"#utility.yul\":11493:11516   */\n      mload\n        /* \"#utility.yul\":11529:11592   */\n      tag_519\n        /* \"#utility.yul\":11586:11590   */\n      0x00\n        /* \"#utility.yul\":11581:11584   */\n      dup7\n        /* \"#utility.yul\":11577:11591   */\n      add\n        /* \"#utility.yul\":11563:11575   */\n      dup3\n        /* \"#utility.yul\":11529:11592   */\n      tag_334\n      jump\t// in\n    tag_519:\n        /* \"#utility.yul\":11440:11602   */\n      pop\n        /* \"#utility.yul\":11685:11689   */\n      0x20\n        /* \"#utility.yul\":11678:11683   */\n      dup4\n        /* \"#utility.yul\":11674:11690   */\n      add\n        /* \"#utility.yul\":11668:11691   */\n      mload\n        /* \"#utility.yul\":11704:11767   */\n      tag_520\n        /* \"#utility.yul\":11761:11765   */\n      0x20\n        /* \"#utility.yul\":11756:11759   */\n      dup7\n        /* \"#utility.yul\":11752:11766   */\n      add\n        /* \"#utility.yul\":11738:11750   */\n      dup3\n        /* \"#utility.yul\":11704:11767   */\n      tag_335\n      jump\t// in\n    tag_520:\n        /* \"#utility.yul\":11612:11777   */\n      pop\n        /* \"#utility.yul\":11861:11865   */\n      0x40\n        /* \"#utility.yul\":11854:11859   */\n      dup4\n        /* \"#utility.yul\":11850:11866   */\n      add\n        /* \"#utility.yul\":11844:11867   */\n      mload\n        /* \"#utility.yul\":11914:11917   */\n      dup5\n        /* \"#utility.yul\":11908:11912   */\n      dup3\n        /* \"#utility.yul\":11904:11918   */\n      sub\n        /* \"#utility.yul\":11897:11901   */\n      0x40\n        /* \"#utility.yul\":11892:11895   */\n      dup7\n        /* \"#utility.yul\":11888:11902   */\n      add\n        /* \"#utility.yul\":11881:11919   */\n      mstore\n        /* \"#utility.yul\":11940:12013   */\n      tag_521\n        /* \"#utility.yul\":12008:12012   */\n      dup3\n        /* \"#utility.yul\":11994:12006   */\n      dup3\n        /* \"#utility.yul\":11940:12013   */\n      tag_351\n      jump\t// in\n    tag_521:\n        /* \"#utility.yul\":11932:12013   */\n      swap2\n      pop\n        /* \"#utility.yul\":11787:12024   */\n      pop\n        /* \"#utility.yul\":12112:12116   */\n      0x60\n        /* \"#utility.yul\":12105:12110   */\n      dup4\n        /* \"#utility.yul\":12101:12117   */\n      add\n        /* \"#utility.yul\":12095:12118   */\n      mload\n        /* \"#utility.yul\":12165:12168   */\n      dup5\n        /* \"#utility.yul\":12159:12163   */\n      dup3\n        /* \"#utility.yul\":12155:12169   */\n      sub\n        /* \"#utility.yul\":12148:12152   */\n      0x60\n        /* \"#utility.yul\":12143:12146   */\n      dup7\n        /* \"#utility.yul\":12139:12153   */\n      add\n        /* \"#utility.yul\":12132:12170   */\n      mstore\n        /* \"#utility.yul\":12191:12264   */\n      tag_522\n        /* \"#utility.yul\":12259:12263   */\n      dup3\n        /* \"#utility.yul\":12245:12257   */\n      dup3\n        /* \"#utility.yul\":12191:12264   */\n      tag_351\n      jump\t// in\n    tag_522:\n        /* \"#utility.yul\":12183:12264   */\n      swap2\n      pop\n        /* \"#utility.yul\":12034:12275   */\n      pop\n        /* \"#utility.yul\":12359:12363   */\n      0x80\n        /* \"#utility.yul\":12352:12357   */\n      dup4\n        /* \"#utility.yul\":12348:12364   */\n      add\n        /* \"#utility.yul\":12342:12365   */\n      mload\n        /* \"#utility.yul\":12378:12435   */\n      tag_523\n        /* \"#utility.yul\":12429:12433   */\n      0x80\n        /* \"#utility.yul\":12424:12427   */\n      dup7\n        /* \"#utility.yul\":12420:12434   */\n      add\n        /* \"#utility.yul\":12406:12418   */\n      dup3\n        /* \"#utility.yul\":12378:12435   */\n      tag_353\n      jump\t// in\n    tag_523:\n        /* \"#utility.yul\":12285:12445   */\n      pop\n        /* \"#utility.yul\":12462:12466   */\n      dup1\n        /* \"#utility.yul\":12455:12466   */\n      swap2\n      pop\n        /* \"#utility.yul\":11394:12472   */\n      pop\n        /* \"#utility.yul\":11264:12472   */\n      swap3\n      swap2\n      pop\n      pop\n      jump\t// out\n        /* \"#utility.yul\":12478:12863   */\n    tag_79:\n        /* \"#utility.yul\":12627:12631   */\n      0x00\n        /* \"#utility.yul\":12665:12667   */\n      0x20\n        /* \"#utility.yul\":12654:12663   */\n      dup3\n        /* \"#utility.yul\":12650:12668   */\n      add\n        /* \"#utility.yul\":12642:12668   */\n      swap1\n      pop\n        /* \"#utility.yul\":12714:12723   */\n      dup2\n        /* \"#utility.yul\":12708:12712   */\n      dup2\n        /* \"#utility.yul\":12704:12724   */\n      sub\n        /* \"#utility.yul\":12700:12701   */\n      0x00\n        /* \"#utility.yul\":12689:12698   */\n      dup4\n        /* \"#utility.yul\":12685:12702   */\n      add\n        /* \"#utility.yul\":12678:12725   */\n      mstore\n        /* \"#utility.yul\":12742:12856   */\n      tag_525\n        /* \"#utility.yul\":12851:12855   */\n      dup2\n        /* \"#utility.yul\":12842:12848   */\n      dup5\n        /* \"#utility.yul\":12742:12856   */\n      tag_354\n      jump\t// in\n    tag_525:\n        /* \"#utility.yul\":12734:12856   */\n      swap1\n      pop\n        /* \"#utility.yul\":12478:12863   */\n      swap3\n      swap2\n      pop\n      pop\n      jump\t// out\n        /* \"#utility.yul\":12869:12987   */\n    tag_355:\n        /* \"#utility.yul\":12956:12980   */\n      tag_527\n        /* \"#utility.yul\":12974:12979   */\n      dup2\n        /* \"#utility.yul\":12956:12980   */\n      tag_317\n      jump\t// in\n    tag_527:\n        /* \"#utility.yul\":12951:12954   */\n      dup3\n        /* \"#utility.yul\":12944:12981   */\n      mstore\n        /* \"#utility.yul\":12869:12987   */\n      pop\n      pop\n      jump\t// out\n        /* \"#utility.yul\":12993:13148   */\n    tag_356:\n        /* \"#utility.yul\":13092:13141   */\n      tag_529\n        /* \"#utility.yul\":13135:13140   */\n      dup2\n        /* \"#utility.yul\":13092:13141   */\n      tag_338\n      jump\t// in\n    tag_529:\n        /* \"#utility.yul\":13087:13090   */\n      dup3\n        /* \"#utility.yul\":13080:13142   */\n      mstore\n        /* \"#utility.yul\":12993:13148   */\n      pop\n      pop\n      jump\t// out\n        /* \"#utility.yul\":13154:13953   */\n    tag_87:\n        /* \"#utility.yul\":13399:13403   */\n      0x00\n        /* \"#utility.yul\":13437:13440   */\n      0xc0\n        /* \"#utility.yul\":13426:13435   */\n      dup3\n        /* \"#utility.yul\":13422:13441   */\n      add\n        /* \"#utility.yul\":13414:13441   */\n      swap1\n      pop\n        /* \"#utility.yul\":13451:13522   */\n      tag_531\n        /* \"#utility.yul\":13519:13520   */\n      0x00\n        /* \"#utility.yul\":13508:13517   */\n      dup4\n        /* \"#utility.yul\":13504:13521   */\n      add\n        /* \"#utility.yul\":13495:13501   */\n      dup10\n        /* \"#utility.yul\":13451:13522   */\n      tag_355\n      jump\t// in\n    tag_531:\n        /* \"#utility.yul\":13532:13604   */\n      tag_532\n        /* \"#utility.yul\":13600:13602   */\n      0x20\n        /* \"#utility.yul\":13589:13598   */\n      dup4\n        /* \"#utility.yul\":13585:13603   */\n      add\n        /* \"#utility.yul\":13576:13582   */\n      dup9\n        /* \"#utility.yul\":13532:13604   */\n      tag_355\n      jump\t// in\n    tag_532:\n        /* \"#utility.yul\":13614:13686   */\n      tag_533\n        /* \"#utility.yul\":13682:13684   */\n      0x40\n        /* \"#utility.yul\":13671:13680   */\n      dup4\n        /* \"#utility.yul\":13667:13685   */\n      add\n        /* \"#utility.yul\":13658:13664   */\n      dup8\n        /* \"#utility.yul\":13614:13686   */\n      tag_346\n      jump\t// in\n    tag_533:\n        /* \"#utility.yul\":13696:13768   */\n      tag_534\n        /* \"#utility.yul\":13764:13766   */\n      0x60\n        /* \"#utility.yul\":13753:13762   */\n      dup4\n        /* \"#utility.yul\":13749:13767   */\n      add\n        /* \"#utility.yul\":13740:13746   */\n      dup7\n        /* \"#utility.yul\":13696:13768   */\n      tag_346\n      jump\t// in\n    tag_534:\n        /* \"#utility.yul\":13778:13851   */\n      tag_535\n        /* \"#utility.yul\":13846:13849   */\n      0x80\n        /* \"#utility.yul\":13835:13844   */\n      dup4\n        /* \"#utility.yul\":13831:13850   */\n      add\n        /* \"#utility.yul\":13822:13828   */\n      dup6\n        /* \"#utility.yul\":13778:13851   */\n      tag_355\n      jump\t// in\n    tag_535:\n        /* \"#utility.yul\":13861:13946   */\n      tag_536\n        /* \"#utility.yul\":13941:13944   */\n      0xa0\n        /* \"#utility.yul\":13930:13939   */\n      dup4\n        /* \"#utility.yul\":13926:13945   */\n      add\n        /* \"#utility.yul\":13917:13923   */\n      dup5\n        /* \"#utility.yul\":13861:13946   */\n      tag_356\n      jump\t// in\n    tag_536:\n        /* \"#utility.yul\":13154:13953   */\n      swap8\n      swap7\n      pop\n      pop\n      pop\n      pop\n      pop\n      pop\n      pop\n      jump\t// out\n        /* \"#utility.yul\":13959:14101   */\n    tag_357:\n        /* \"#utility.yul\":14025:14034   */\n      0x00\n        /* \"#utility.yul\":14058:14095   */\n      tag_538\n        /* \"#utility.yul\":14089:14094   */\n      dup3\n        /* \"#utility.yul\":14058:14095   */\n      tag_328\n      jump\t// in\n    tag_538:\n        /* \"#utility.yul\":14045:14095   */\n      swap1\n      pop\n        /* \"#utility.yul\":13959:14101   */\n      swap2\n      swap1\n      pop\n      jump\t// out\n        /* \"#utility.yul\":14107:14270   */\n    tag_358:\n        /* \"#utility.yul\":14210:14263   */\n      tag_540\n        /* \"#utility.yul\":14257:14262   */\n      dup2\n        /* \"#utility.yul\":14210:14263   */\n      tag_357\n      jump\t// in\n    tag_540:\n        /* \"#utility.yul\":14205:14208   */\n      dup3\n        /* \"#utility.yul\":14198:14264   */\n      mstore\n        /* \"#utility.yul\":14107:14270   */\n      pop\n      pop\n      jump\t// out\n        /* \"#utility.yul\":14276:14530   */\n    tag_91:\n        /* \"#utility.yul\":14385:14389   */\n      0x00\n        /* \"#utility.yul\":14423:14425   */\n      0x20\n        /* \"#utility.yul\":14412:14421   */\n      dup3\n        /* \"#utility.yul\":14408:14426   */\n      add\n        /* \"#utility.yul\":14400:14426   */\n      swap1\n      pop\n        /* \"#utility.yul\":14436:14523   */\n      tag_542\n        /* \"#utility.yul\":14520:14521   */\n      0x00\n        /* \"#utility.yul\":14509:14518   */\n      dup4\n        /* \"#utility.yul\":14505:14522   */\n      add\n        /* \"#utility.yul\":14496:14502   */\n      dup5\n        /* \"#utility.yul\":14436:14523   */\n      tag_358\n      jump\t// in\n    tag_542:\n        /* \"#utility.yul\":14276:14530   */\n      swap3\n      swap2\n      pop\n      pop\n      jump\t// out\n        /* \"#utility.yul\":14620:15850   */\n    tag_359:\n        /* \"#utility.yul\":14771:14775   */\n      0xc0\n        /* \"#utility.yul\":14766:14769   */\n      dup3\n        /* \"#utility.yul\":14762:14776   */\n      add\n        /* \"#utility.yul\":14860:14864   */\n      0x00\n        /* \"#utility.yul\":14853:14858   */\n      dup3\n        /* \"#utility.yul\":14849:14865   */\n      add\n        /* \"#utility.yul\":14843:14866   */\n      mload\n        /* \"#utility.yul\":14879:14942   */\n      tag_544\n        /* \"#utility.yul\":14936:14940   */\n      0x00\n        /* \"#utility.yul\":14931:14934   */\n      dup6\n        /* \"#utility.yul\":14927:14941   */\n      add\n        /* \"#utility.yul\":14913:14925   */\n      dup3\n        /* \"#utility.yul\":14879:14942   */\n      tag_334\n      jump\t// in\n    tag_544:\n        /* \"#utility.yul\":14786:14952   */\n      pop\n        /* \"#utility.yul\":15037:15041   */\n      0x20\n        /* \"#utility.yul\":15030:15035   */\n      dup3\n        /* \"#utility.yul\":15026:15042   */\n      add\n        /* \"#utility.yul\":15020:15043   */\n      mload\n        /* \"#utility.yul\":15056:15119   */\n      tag_545\n        /* \"#utility.yul\":15113:15117   */\n      0x20\n        /* \"#utility.yul\":15108:15111   */\n      dup6\n        /* \"#utility.yul\":15104:15118   */\n      add\n        /* \"#utility.yul\":15090:15102   */\n      dup3\n        /* \"#utility.yul\":15056:15119   */\n      tag_334\n      jump\t// in\n    tag_545:\n        /* \"#utility.yul\":14962:15129   */\n      pop\n        /* \"#utility.yul\":15213:15217   */\n      0x40\n        /* \"#utility.yul\":15206:15211   */\n      dup3\n        /* \"#utility.yul\":15202:15218   */\n      add\n        /* \"#utility.yul\":15196:15219   */\n      mload\n        /* \"#utility.yul\":15232:15295   */\n      tag_546\n        /* \"#utility.yul\":15289:15293   */\n      0x40\n        /* \"#utility.yul\":15284:15287   */\n      dup6\n        /* \"#utility.yul\":15280:15294   */\n      add\n        /* \"#utility.yul\":15266:15278   */\n      dup3\n        /* \"#utility.yul\":15232:15295   */\n      tag_335\n      jump\t// in\n    tag_546:\n        /* \"#utility.yul\":15139:15305   */\n      pop\n        /* \"#utility.yul\":15388:15392   */\n      0x60\n        /* \"#utility.yul\":15381:15386   */\n      dup3\n        /* \"#utility.yul\":15377:15393   */\n      add\n        /* \"#utility.yul\":15371:15394   */\n      mload\n        /* \"#utility.yul\":15407:15470   */\n      tag_547\n        /* \"#utility.yul\":15464:15468   */\n      0x60\n        /* \"#utility.yul\":15459:15462   */\n      dup6\n        /* \"#utility.yul\":15455:15469   */\n      add\n        /* \"#utility.yul\":15441:15453   */\n      dup3\n        /* \"#utility.yul\":15407:15470   */\n      tag_335\n      jump\t// in\n    tag_547:\n        /* \"#utility.yul\":15315:15480   */\n      pop\n        /* \"#utility.yul\":15563:15567   */\n      0x80\n        /* \"#utility.yul\":15556:15561   */\n      dup3\n        /* \"#utility.yul\":15552:15568   */\n      add\n        /* \"#utility.yul\":15546:15569   */\n      mload\n        /* \"#utility.yul\":15582:15645   */\n      tag_548\n        /* \"#utility.yul\":15639:15643   */\n      0x80\n        /* \"#utility.yul\":15634:15637   */\n      dup6\n        /* \"#utility.yul\":15630:15644   */\n      add\n        /* \"#utility.yul\":15616:15628   */\n      dup3\n        /* \"#utility.yul\":15582:15645   */\n      tag_334\n      jump\t// in\n    tag_548:\n        /* \"#utility.yul\":15490:15655   */\n      pop\n        /* \"#utility.yul\":15739:15743   */\n      0xa0\n        /* \"#utility.yul\":15732:15737   */\n      dup3\n        /* \"#utility.yul\":15728:15744   */\n      add\n        /* \"#utility.yul\":15722:15745   */\n      mload\n        /* \"#utility.yul\":15758:15833   */\n      tag_549\n        /* \"#utility.yul\":15827:15831   */\n      0xa0\n        /* \"#utility.yul\":15822:15825   */\n      dup6\n        /* \"#utility.yul\":15818:15832   */\n      add\n        /* \"#utility.yul\":15804:15816   */\n      dup3\n        /* \"#utility.yul\":15758:15833   */\n      tag_339\n      jump\t// in\n    tag_549:\n        /* \"#utility.yul\":15665:15843   */\n      pop\n        /* \"#utility.yul\":14740:15850   */\n      pop\n        /* \"#utility.yul\":14620:15850   */\n      pop\n      pop\n      jump\t// out\n        /* \"#utility.yul\":15856:16187   */\n    tag_96:\n        /* \"#utility.yul\":16003:16007   */\n      0x00\n        /* \"#utility.yul\":16041:16044   */\n      0xc0\n        /* \"#utility.yul\":16030:16039   */\n      dup3\n        /* \"#utility.yul\":16026:16045   */\n      add\n        /* \"#utility.yul\":16018:16045   */\n      swap1\n      pop\n        /* \"#utility.yul\":16055:16180   */\n      tag_551\n        /* \"#utility.yul\":16177:16178   */\n      0x00\n        /* \"#utility.yul\":16166:16175   */\n      dup4\n        /* \"#utility.yul\":16162:16179   */\n      add\n        /* \"#utility.yul\":16153:16159   */\n      dup5\n        /* \"#utility.yul\":16055:16180   */\n      tag_359\n      jump\t// in\n    tag_551:\n        /* \"#utility.yul\":15856:16187   */\n      swap3\n      swap2\n      pop\n      pop\n      jump\t// out\n        /* \"#utility.yul\":16193:16334   */\n    tag_360:\n        /* \"#utility.yul\":16258:16267   */\n      0x00\n        /* \"#utility.yul\":16291:16328   */\n      tag_553\n        /* \"#utility.yul\":16322:16327   */\n      dup3\n        /* \"#utility.yul\":16291:16328   */\n      tag_328\n      jump\t// in\n    tag_553:\n        /* \"#utility.yul\":16278:16328   */\n      swap1\n      pop\n        /* \"#utility.yul\":16193:16334   */\n      swap2\n      swap1\n      pop\n      jump\t// out\n        /* \"#utility.yul\":16340:16501   */\n    tag_361:\n        /* \"#utility.yul\":16442:16494   */\n      tag_555\n        /* \"#utility.yul\":16488:16493   */\n      dup2\n        /* \"#utility.yul\":16442:16494   */\n      tag_360\n      jump\t// in\n    tag_555:\n        /* \"#utility.yul\":16437:16440   */\n      dup3\n        /* \"#utility.yul\":16430:16495   */\n      mstore\n        /* \"#utility.yul\":16340:16501   */\n      pop\n      pop\n      jump\t// out\n        /* \"#utility.yul\":16507:16759   */\n    tag_106:\n        /* \"#utility.yul\":16615:16619   */\n      0x00\n        /* \"#utility.yul\":16653:16655   */\n      0x20\n        /* \"#utility.yul\":16642:16651   */\n      dup3\n        /* \"#utility.yul\":16638:16656   */\n      add\n        /* \"#utility.yul\":16630:16656   */\n      swap1\n      pop\n        /* \"#utility.yul\":16666:16752   */\n      tag_557\n        /* \"#utility.yul\":16749:16750   */\n      0x00\n        /* \"#utility.yul\":16738:16747   */\n      dup4\n        /* \"#utility.yul\":16734:16751   */\n      add\n        /* \"#utility.yul\":16725:16731   */\n      dup5\n        /* \"#utility.yul\":16666:16752   */\n      tag_361\n      jump\t// in\n    tag_557:\n        /* \"#utility.yul\":16507:16759   */\n      swap3\n      swap2\n      pop\n      pop\n      jump\t// out\n        /* \"#utility.yul\":16765:16934   */\n    tag_362:\n        /* \"#utility.yul\":16849:16860   */\n      0x00\n        /* \"#utility.yul\":16883:16889   */\n      dup3\n        /* \"#utility.yul\":16878:16881   */\n      dup3\n        /* \"#utility.yul\":16871:16890   */\n      mstore\n        /* \"#utility.yul\":16923:16927   */\n      0x20\n        /* \"#utility.yul\":16918:16921   */\n      dup3\n        /* \"#utility.yul\":16914:16928   */\n      add\n        /* \"#utility.yul\":16899:16928   */\n      swap1\n      pop\n        /* \"#utility.yul\":16765:16934   */\n      swap3\n      swap2\n      pop\n      pop\n      jump\t// out\n        /* \"#utility.yul\":16940:17109   */\n    tag_363:\n        /* \"#utility.yul\":17080:17101   */\n      0x4173736574206e6f74207075626c697368656400000000000000000000000000\n        /* \"#utility.yul\":17076:17077   */\n      0x00\n        /* \"#utility.yul\":17068:17074   */\n      dup3\n        /* \"#utility.yul\":17064:17078   */\n      add\n        /* \"#utility.yul\":17057:17102   */\n      mstore\n        /* \"#utility.yul\":16940:17109   */\n      pop\n      jump\t// out\n        /* \"#utility.yul\":17115:17481   */\n    tag_364:\n        /* \"#utility.yul\":17257:17260   */\n      0x00\n        /* \"#utility.yul\":17278:17345   */\n      tag_561\n        /* \"#utility.yul\":17342:17344   */\n      0x13\n        /* \"#utility.yul\":17337:17340   */\n      dup4\n        /* \"#utility.yul\":17278:17345   */\n      tag_362\n      jump\t// in\n    tag_561:\n        /* \"#utility.yul\":17271:17345   */\n      swap2\n      pop\n        /* \"#utility.yul\":17354:17447   */\n      tag_562\n        /* \"#utility.yul\":17443:17446   */\n      dup3\n        /* \"#utility.yul\":17354:17447   */\n      tag_363\n      jump\t// in\n    tag_562:\n        /* \"#utility.yul\":17472:17474   */\n      0x20\n        /* \"#utility.yul\":17467:17470   */\n      dup3\n        /* \"#utility.yul\":17463:17475   */\n      add\n        /* \"#utility.yul\":17456:17475   */\n      swap1\n      pop\n        /* \"#utility.yul\":17115:17481   */\n      swap2\n      swap1\n      pop\n      jump\t// out\n        /* \"#utility.yul\":17487:17906   */\n    tag_119:\n        /* \"#utility.yul\":17653:17657   */\n      0x00\n        /* \"#utility.yul\":17691:17693   */\n      0x20\n        /* \"#utility.yul\":17680:17689   */\n      dup3\n        /* \"#utility.yul\":17676:17694   */\n      add\n        /* \"#utility.yul\":17668:17694   */\n      swap1\n      pop\n        /* \"#utility.yul\":17740:17749   */\n      dup2\n        /* \"#utility.yul\":17734:17738   */\n      dup2\n        /* \"#utility.yul\":17730:17750   */\n      sub\n        /* \"#utility.yul\":17726:17727   */\n      0x00\n        /* \"#utility.yul\":17715:17724   */\n      dup4\n        /* \"#utility.yul\":17711:17728   */\n      add\n        /* \"#utility.yul\":17704:17751   */\n      mstore\n        /* \"#utility.yul\":17768:17899   */\n      tag_564\n        /* \"#utility.yul\":17894:17898   */\n      dup2\n        /* \"#utility.yul\":17768:17899   */\n      tag_364\n      jump\t// in\n    tag_564:\n        /* \"#utility.yul\":17760:17899   */\n      swap1\n      pop\n        /* \"#utility.yul\":17487:17906   */\n      swap2\n      swap1\n      pop\n      jump\t// out\n        /* \"#utility.yul\":17912:18076   */\n    tag_365:\n        /* \"#utility.yul\":18052:18068   */\n      0x41737365742064656c6973746564000000000000000000000000000000000000\n        /* \"#utility.yul\":18048:18049   */\n      0x00\n        /* \"#utility.yul\":18040:18046   */\n      dup3\n        /* \"#utility.yul\":18036:18050   */\n      add\n        /* \"#utility.yul\":18029:18069   */\n      mstore\n        /* \"#utility.yul\":17912:18076   */\n      pop\n      jump\t// out\n        /* \"#utility.yul\":18082:18448   */\n    tag_366:\n        /* \"#utility.yul\":18224:18227   */\n      0x00\n        /* \"#utility.yul\":18245:18312   */\n      tag_567\n        /* \"#utility.yul\":18309:18311   */\n      0x0e\n        /* \"#utility.yul\":18304:18307   */\n      dup4\n        /* \"#utility.yul\":18245:18312   */\n      tag_362\n      jump\t// in\n    tag_567:\n        /* \"#utility.yul\":18238:18312   */\n      swap2\n      pop\n        /* \"#utility.yul\":18321:18414   */\n      tag_568\n        /* \"#utility.yul\":18410:18413   */\n      dup3\n        /* \"#utility.yul\":18321:18414   */\n      tag_365\n      jump\t// in\n    tag_568:\n        /* \"#utility.yul\":18439:18441   */\n      0x20\n        /* \"#utility.yul\":18434:18437   */\n      dup3\n        /* \"#utility.yul\":18430:18442   */\n      add\n        /* \"#utility.yul\":18423:18442   */\n      swap1\n      pop\n        /* \"#utility.yul\":18082:18448   */\n      swap2\n      swap1\n      pop\n      jump\t// out\n        /* \"#utility.yul\":18454:18873   */\n    tag_126:\n        /* \"#utility.yul\":18620:18624   */\n      0x00\n        /* \"#utility.yul\":18658:18660   */\n      0x20\n        /* \"#utility.yul\":18647:18656   */\n      dup3\n        /* \"#utility.yul\":18643:18661   */\n      add\n        /* \"#utility.yul\":18635:18661   */\n      swap1\n      pop\n        /* \"#utility.yul\":18707:18716   */\n      dup2\n        /* \"#utility.yul\":18701:18705   */\n      dup2\n        /* \"#utility.yul\":18697:18717   */\n      sub\n        /* \"#utility.yul\":18693:18694   */\n      0x00\n        /* \"#utility.yul\":18682:18691   */\n      dup4\n        /* \"#utility.yul\":18678:18695   */\n      add\n        /* \"#utility.yul\":18671:18718   */\n      mstore\n        /* \"#utility.yul\":18735:18866   */\n      tag_570\n        /* \"#utility.yul\":18861:18865   */\n      dup2\n        /* \"#utility.yul\":18735:18866   */\n      tag_366\n      jump\t// in\n    tag_570:\n        /* \"#utility.yul\":18727:18866   */\n      swap1\n      pop\n        /* \"#utility.yul\":18454:18873   */\n      swap2\n      swap1\n      pop\n      jump\t// out\n        /* \"#utility.yul\":18879:19044   */\n    tag_367:\n        /* \"#utility.yul\":19019:19036   */\n      0x496e76616c696420616464726573730000000000000000000000000000000000\n        /* \"#utility.yul\":19015:19016   */\n      0x00\n        /* \"#utility.yul\":19007:19013   */\n      dup3\n        /* \"#utility.yul\":19003:19017   */\n      add\n        /* \"#utility.yul\":18996:19037   */\n      mstore\n        /* \"#utility.yul\":18879:19044   */\n      pop\n      jump\t// out\n        /* \"#utility.yul\":19050:19416   */\n    tag_368:\n        /* \"#utility.yul\":19192:19195   */\n      0x00\n        /* \"#utility.yul\":19213:19280   */\n      tag_573\n        /* \"#utility.yul\":19277:19279   */\n      0x0f\n        /* \"#utility.yul\":19272:19275   */\n      dup4\n        /* \"#utility.yul\":19213:19280   */\n      tag_362\n      jump\t// in\n    tag_573:\n        /* \"#utility.yul\":19206:19280   */\n      swap2\n      pop\n        /* \"#utility.yul\":19289:19382   */\n      tag_574\n        /* \"#utility.yul\":19378:19381   */\n      dup3\n        /* \"#utility.yul\":19289:19382   */\n      tag_367\n      jump\t// in\n    tag_574:\n        /* \"#utility.yul\":19407:19409   */\n      0x20\n        /* \"#utility.yul\":19402:19405   */\n      dup3\n        /* \"#utility.yul\":19398:19410   */\n      add\n        /* \"#utility.yul\":19391:19410   */\n      swap1\n      pop\n        /* \"#utility.yul\":19050:19416   */\n      swap2\n      swap1\n      pop\n      jump\t// out\n        /* \"#utility.yul\":19422:19841   */\n    tag_129:\n        /* \"#utility.yul\":19588:19592   */\n      0x00\n        /* \"#utility.yul\":19626:19628   */\n      0x20\n        /* \"#utility.yul\":19615:19624   */\n      dup3\n        /* \"#utility.yul\":19611:19629   */\n      add\n        /* \"#utility.yul\":19603:19629   */\n      swap1\n      pop\n        /* \"#utility.yul\":19675:19684   */\n      dup2\n        /* \"#utility.yul\":19669:19673   */\n      dup2\n        /* \"#utility.yul\":19665:19685   */\n      sub\n        /* \"#utility.yul\":19661:19662   */\n      0x00\n        /* \"#utility.yul\":19650:19659   */\n      dup4\n        /* \"#utility.yul\":19646:19663   */\n      add\n        /* \"#utility.yul\":19639:19686   */\n      mstore\n        /* \"#utility.yul\":19703:19834   */\n      tag_576\n        /* \"#utility.yul\":19829:19833   */\n      dup2\n        /* \"#utility.yul\":19703:19834   */\n      tag_368\n      jump\t// in\n    tag_576:\n        /* \"#utility.yul\":19695:19834   */\n      swap1\n      pop\n        /* \"#utility.yul\":19422:19841   */\n      swap2\n      swap1\n      pop\n      jump\t// out\n        /* \"#utility.yul\":19847:20019   */\n    tag_369:\n        /* \"#utility.yul\":19987:20011   */\n      0x4f6e6c792073656c6c65722063616e2064656c69737400000000000000000000\n        /* \"#utility.yul\":19983:19984   */\n      0x00\n        /* \"#utility.yul\":19975:19981   */\n      dup3\n        /* \"#utility.yul\":19971:19985   */\n      add\n        /* \"#utility.yul\":19964:20012   */\n      mstore\n        /* \"#utility.yul\":19847:20019   */\n      pop\n      jump\t// out\n        /* \"#utility.yul\":20025:20391   */\n    tag_370:\n        /* \"#utility.yul\":20167:20170   */\n      0x00\n        /* \"#utility.yul\":20188:20255   */\n      tag_579\n        /* \"#utility.yul\":20252:20254   */\n      0x16\n        /* \"#utility.yul\":20247:20250   */\n      dup4\n        /* \"#utility.yul\":20188:20255   */\n      tag_362\n      jump\t// in\n    tag_579:\n        /* \"#utility.yul\":20181:20255   */\n      swap2\n      pop\n        /* \"#utility.yul\":20264:20357   */\n      tag_580\n        /* \"#utility.yul\":20353:20356   */\n      dup3\n        /* \"#utility.yul\":20264:20357   */\n      tag_369\n      jump\t// in\n    tag_580:\n        /* \"#utility.yul\":20382:20384   */\n      0x20\n        /* \"#utility.yul\":20377:20380   */\n      dup3\n        /* \"#utility.yul\":20373:20385   */\n      add\n        /* \"#utility.yul\":20366:20385   */\n      swap1\n      pop\n        /* \"#utility.yul\":20025:20391   */\n      swap2\n      swap1\n      pop\n      jump\t// out\n        /* \"#utility.yul\":20397:20816   */\n    tag_132:\n        /* \"#utility.yul\":20563:20567   */\n      0x00\n        /* \"#utility.yul\":20601:20603   */\n      0x20\n        /* \"#utility.yul\":20590:20599   */\n      dup3\n        /* \"#utility.yul\":20586:20604   */\n      add\n        /* \"#utility.yul\":20578:20604   */\n      swap1\n      pop\n        /* \"#utility.yul\":20650:20659   */\n      dup2\n        /* \"#utility.yul\":20644:20648   */\n      dup2\n        /* \"#utility.yul\":20640:20660   */\n      sub\n        /* \"#utility.yul\":20636:20637   */\n      0x00\n        /* \"#utility.yul\":20625:20634   */\n      dup4\n        /* \"#utility.yul\":20621:20638   */\n      add\n        /* \"#utility.yul\":20614:20661   */\n      mstore\n        /* \"#utility.yul\":20678:20809   */\n      tag_582\n        /* \"#utility.yul\":20804:20808   */\n      dup2\n        /* \"#utility.yul\":20678:20809   */\n      tag_370\n      jump\t// in\n    tag_582:\n        /* \"#utility.yul\":20670:20809   */\n      swap1\n      pop\n        /* \"#utility.yul\":20397:20816   */\n      swap2\n      swap1\n      pop\n      jump\t// out\n        /* \"#utility.yul\":20822:21264   */\n    tag_134:\n        /* \"#utility.yul\":20971:20975   */\n      0x00\n        /* \"#utility.yul\":21009:21011   */\n      0x60\n        /* \"#utility.yul\":20998:21007   */\n      dup3\n        /* \"#utility.yul\":20994:21012   */\n      add\n        /* \"#utility.yul\":20986:21012   */\n      swap1\n      pop\n        /* \"#utility.yul\":21022:21093   */\n      tag_584\n        /* \"#utility.yul\":21090:21091   */\n      0x00\n        /* \"#utility.yul\":21079:21088   */\n      dup4\n        /* \"#utility.yul\":21075:21092   */\n      add\n        /* \"#utility.yul\":21066:21072   */\n      dup7\n        /* \"#utility.yul\":21022:21093   */\n      tag_346\n      jump\t// in\n    tag_584:\n        /* \"#utility.yul\":21103:21175   */\n      tag_585\n        /* \"#utility.yul\":21171:21173   */\n      0x20\n        /* \"#utility.yul\":21160:21169   */\n      dup4\n        /* \"#utility.yul\":21156:21174   */\n      add\n        /* \"#utility.yul\":21147:21153   */\n      dup6\n        /* \"#utility.yul\":21103:21175   */\n      tag_346\n      jump\t// in\n    tag_585:\n        /* \"#utility.yul\":21185:21257   */\n      tag_586\n        /* \"#utility.yul\":21253:21255   */\n      0x40\n        /* \"#utility.yul\":21242:21251   */\n      dup4\n        /* \"#utility.yul\":21238:21256   */\n      add\n        /* \"#utility.yul\":21229:21235   */\n      dup5\n        /* \"#utility.yul\":21185:21257   */\n      tag_355\n      jump\t// in\n    tag_586:\n        /* \"#utility.yul\":20822:21264   */\n      swap5\n      swap4\n      pop\n      pop\n      pop\n      pop\n      jump\t// out\n        /* \"#utility.yul\":21270:21602   */\n    tag_143:\n        /* \"#utility.yul\":21391:21395   */\n      0x00\n        /* \"#utility.yul\":21429:21431   */\n      0x40\n        /* \"#utility.yul\":21418:21427   */\n      dup3\n        /* \"#utility.yul\":21414:21432   */\n      add\n        /* \"#utility.yul\":21406:21432   */\n      swap1\n      pop\n        /* \"#utility.yul\":21442:21513   */\n      tag_588\n        /* \"#utility.yul\":21510:21511   */\n      0x00\n        /* \"#utility.yul\":21499:21508   */\n      dup4\n        /* \"#utility.yul\":21495:21512   */\n      add\n        /* \"#utility.yul\":21486:21492   */\n      dup6\n        /* \"#utility.yul\":21442:21513   */\n      tag_355\n      jump\t// in\n    tag_588:\n        /* \"#utility.yul\":21523:21595   */\n      tag_589\n        /* \"#utility.yul\":21591:21593   */\n      0x20\n        /* \"#utility.yul\":21580:21589   */\n      dup4\n        /* \"#utility.yul\":21576:21594   */\n      add\n        /* \"#utility.yul\":21567:21573   */\n      dup5\n        /* \"#utility.yul\":21523:21595   */\n      tag_355\n      jump\t// in\n    tag_589:\n        /* \"#utility.yul\":21270:21602   */\n      swap4\n      swap3\n      pop\n      pop\n      pop\n      jump\t// out\n        /* \"#utility.yul\":21608:21790   */\n    tag_371:\n        /* \"#utility.yul\":21748:21782   */\n      0x4f776e61626c653a2063616c6c6572206973206e6f7420746865206f776e6572\n        /* \"#utility.yul\":21744:21745   */\n      0x00\n        /* \"#utility.yul\":21736:21742   */\n      dup3\n        /* \"#utility.yul\":21732:21746   */\n      add\n        /* \"#utility.yul\":21725:21783   */\n      mstore\n        /* \"#utility.yul\":21608:21790   */\n      pop\n      jump\t// out\n        /* \"#utility.yul\":21796:22162   */\n    tag_372:\n        /* \"#utility.yul\":21938:21941   */\n      0x00\n        /* \"#utility.yul\":21959:22026   */\n      tag_592\n        /* \"#utility.yul\":22023:22025   */\n      0x20\n        /* \"#utility.yul\":22018:22021   */\n      dup4\n        /* \"#utility.yul\":21959:22026   */\n      tag_362\n      jump\t// in\n    tag_592:\n        /* \"#utility.yul\":21952:22026   */\n      swap2\n      pop\n        /* \"#utility.yul\":22035:22128   */\n      tag_593\n        /* \"#utility.yul\":22124:22127   */\n      dup3\n        /* \"#utility.yul\":22035:22128   */\n      tag_371\n      jump\t// in\n    tag_593:\n        /* \"#utility.yul\":22153:22155   */\n      0x20\n        /* \"#utility.yul\":22148:22151   */\n      dup3\n        /* \"#utility.yul\":22144:22156   */\n      add\n        /* \"#utility.yul\":22137:22156   */\n      swap1\n      pop\n        /* \"#utility.yul\":21796:22162   */\n      swap2\n      swap1\n      pop\n      jump\t// out\n        /* \"#utility.yul\":22168:22587   */\n    tag_150:\n        /* \"#utility.yul\":22334:22338   */\n      0x00\n        /* \"#utility.yul\":22372:22374   */\n      0x20\n        /* \"#utility.yul\":22361:22370   */\n      dup3\n        /* \"#utility.yul\":22357:22375   */\n      add\n        /* \"#utility.yul\":22349:22375   */\n      swap1\n      pop\n        /* \"#utility.yul\":22421:22430   */\n      dup2\n        /* \"#utility.yul\":22415:22419   */\n      dup2\n        /* \"#utility.yul\":22411:22431   */\n      sub\n        /* \"#utility.yul\":22407:22408   */\n      0x00\n        /* \"#utility.yul\":22396:22405   */\n      dup4\n        /* \"#utility.yul\":22392:22409   */\n      add\n        /* \"#utility.yul\":22385:22432   */\n      mstore\n        /* \"#utility.yul\":22449:22580   */\n      tag_595\n        /* \"#utility.yul\":22575:22579   */\n      dup2\n        /* \"#utility.yul\":22449:22580   */\n      tag_372\n      jump\t// in\n    tag_595:\n        /* \"#utility.yul\":22441:22580   */\n      swap1\n      pop\n        /* \"#utility.yul\":22168:22587   */\n      swap2\n      swap1\n      pop\n      jump\t// out\n        /* \"#utility.yul\":22593:22771   */\n    tag_373:\n        /* \"#utility.yul\":22733:22763   */\n      0x5072696365206d757374206265206174206c6561737420312077656900000000\n        /* \"#utility.yul\":22729:22730   */\n      0x00\n        /* \"#utility.yul\":22721:22727   */\n      dup3\n        /* \"#utility.yul\":22717:22731   */\n      add\n        /* \"#utility.yul\":22710:22764   */\n      mstore\n        /* \"#utility.yul\":22593:22771   */\n      pop\n      jump\t// out\n        /* \"#utility.yul\":22777:23143   */\n    tag_374:\n        /* \"#utility.yul\":22919:22922   */\n      0x00\n        /* \"#utility.yul\":22940:23007   */\n      tag_598\n        /* \"#utility.yul\":23004:23006   */\n      0x1c\n        /* \"#utility.yul\":22999:23002   */\n      dup4\n        /* \"#utility.yul\":22940:23007   */\n      tag_362\n      jump\t// in\n    tag_598:\n        /* \"#utility.yul\":22933:23007   */\n      swap2\n      pop\n        /* \"#utility.yul\":23016:23109   */\n      tag_599\n        /* \"#utility.yul\":23105:23108   */\n      dup3\n        /* \"#utility.yul\":23016:23109   */\n      tag_373\n      jump\t// in\n    tag_599:\n        /* \"#utility.yul\":23134:23136   */\n      0x20\n        /* \"#utility.yul\":23129:23132   */\n      dup3\n        /* \"#utility.yul\":23125:23137   */\n      add\n        /* \"#utility.yul\":23118:23137   */\n      swap1\n      pop\n        /* \"#utility.yul\":22777:23143   */\n      swap2\n      swap1\n      pop\n      jump\t// out\n        /* \"#utility.yul\":23149:23568   */\n    tag_161:\n        /* \"#utility.yul\":23315:23319   */\n      0x00\n        /* \"#utility.yul\":23353:23355   */\n      0x20\n        /* \"#utility.yul\":23342:23351   */\n      dup3\n        /* \"#utility.yul\":23338:23356   */\n      add\n        /* \"#utility.yul\":23330:23356   */\n      swap1\n      pop\n        /* \"#utility.yul\":23402:23411   */\n      dup2\n        /* \"#utility.yul\":23396:23400   */\n      dup2\n        /* \"#utility.yul\":23392:23412   */\n      sub\n        /* \"#utility.yul\":23388:23389   */\n      0x00\n        /* \"#utility.yul\":23377:23386   */\n      dup4\n        /* \"#utility.yul\":23373:23390   */\n      add\n        /* \"#utility.yul\":23366:23413   */\n      mstore\n        /* \"#utility.yul\":23430:23561   */\n      tag_601\n        /* \"#utility.yul\":23556:23560   */\n      dup2\n        /* \"#utility.yul\":23430:23561   */\n      tag_374\n      jump\t// in\n    tag_601:\n        /* \"#utility.yul\":23422:23561   */\n      swap1\n      pop\n        /* \"#utility.yul\":23149:23568   */\n      swap2\n      swap1\n      pop\n      jump\t// out\n        /* \"#utility.yul\":23574:23796   */\n    tag_163:\n        /* \"#utility.yul\":23667:23671   */\n      0x00\n        /* \"#utility.yul\":23705:23707   */\n      0x20\n        /* \"#utility.yul\":23694:23703   */\n      dup3\n        /* \"#utility.yul\":23690:23708   */\n      add\n        /* \"#utility.yul\":23682:23708   */\n      swap1\n      pop\n        /* \"#utility.yul\":23718:23789   */\n      tag_603\n        /* \"#utility.yul\":23786:23787   */\n      0x00\n        /* \"#utility.yul\":23775:23784   */\n      dup4\n        /* \"#utility.yul\":23771:23788   */\n      add\n        /* \"#utility.yul\":23762:23768   */\n      dup5\n        /* \"#utility.yul\":23718:23789   */\n      tag_355\n      jump\t// in\n    tag_603:\n        /* \"#utility.yul\":23574:23796   */\n      swap3\n      swap2\n      pop\n      pop\n      jump\t// out\n        /* \"#utility.yul\":23802:23919   */\n    tag_375:\n        /* \"#utility.yul\":23911:23912   */\n      0x00\n        /* \"#utility.yul\":23908:23909   */\n      dup1\n        /* \"#utility.yul\":23901:23913   */\n      revert\n        /* \"#utility.yul\":23925:24105   */\n    tag_205:\n        /* \"#utility.yul\":23973:24050   */\n      0x4e487b7100000000000000000000000000000000000000000000000000000000\n        /* \"#utility.yul\":23970:23971   */\n      0x00\n        /* \"#utility.yul\":23963:24051   */\n      mstore\n        /* \"#utility.yul\":24070:24074   */\n      0x41\n        /* \"#utility.yul\":24067:24068   */\n      0x04\n        /* \"#utility.yul\":24060:24075   */\n      mstore\n        /* \"#utility.yul\":24094:24098   */\n      0x24\n        /* \"#utility.yul\":24091:24092   */\n      0x00\n        /* \"#utility.yul\":24084:24099   */\n      revert\n        /* \"#utility.yul\":24111:24392   */\n    tag_376:\n        /* \"#utility.yul\":24194:24221   */\n      tag_607\n        /* \"#utility.yul\":24216:24220   */\n      dup3\n        /* \"#utility.yul\":24194:24221   */\n      tag_350\n      jump\t// in\n    tag_607:\n        /* \"#utility.yul\":24186:24192   */\n      dup2\n        /* \"#utility.yul\":24182:24222   */\n      add\n        /* \"#utility.yul\":24324:24330   */\n      dup2\n        /* \"#utility.yul\":24312:24322   */\n      dup2\n        /* \"#utility.yul\":24309:24331   */\n      lt\n        /* \"#utility.yul\":24288:24306   */\n      0xffffffffffffffff\n        /* \"#utility.yul\":24276:24286   */\n      dup3\n        /* \"#utility.yul\":24273:24307   */\n      gt\n        /* \"#utility.yul\":24270:24332   */\n      or\n        /* \"#utility.yul\":24267:24355   */\n      iszero\n      tag_608\n      jumpi\n        /* \"#utility.yul\":24335:24353   */\n      tag_609\n      tag_205\n      jump\t// in\n    tag_609:\n        /* \"#utility.yul\":24267:24355   */\n    tag_608:\n        /* \"#utility.yul\":24375:24385   */\n      dup1\n        /* \"#utility.yul\":24371:24373   */\n      0x40\n        /* \"#utility.yul\":24364:24386   */\n      mstore\n        /* \"#utility.yul\":24154:24392   */\n      pop\n        /* \"#utility.yul\":24111:24392   */\n      pop\n      pop\n      jump\t// out\n        /* \"#utility.yul\":24398:24527   */\n    tag_377:\n        /* \"#utility.yul\":24432:24438   */\n      0x00\n        /* \"#utility.yul\":24459:24479   */\n      tag_611\n      tag_314\n      jump\t// in\n    tag_611:\n        /* \"#utility.yul\":24449:24479   */\n      swap1\n      pop\n        /* \"#utility.yul\":24488:24521   */\n      tag_612\n        /* \"#utility.yul\":24516:24520   */\n      dup3\n        /* \"#utility.yul\":24508:24514   */\n      dup3\n        /* \"#utility.yul\":24488:24521   */\n      tag_376\n      jump\t// in\n    tag_612:\n        /* \"#utility.yul\":24398:24527   */\n      swap2\n      swap1\n      pop\n      jump\t// out\n        /* \"#utility.yul\":24533:24650   */\n    tag_378:\n        /* \"#utility.yul\":24642:24643   */\n      0x00\n        /* \"#utility.yul\":24639:24640   */\n      dup1\n        /* \"#utility.yul\":24632:24644   */\n      revert\n        /* \"#utility.yul\":24656:24799   */\n    tag_379:\n        /* \"#utility.yul\":24713:24718   */\n      0x00\n        /* \"#utility.yul\":24744:24750   */\n      dup2\n        /* \"#utility.yul\":24738:24751   */\n      mload\n        /* \"#utility.yul\":24729:24751   */\n      swap1\n      pop\n        /* \"#utility.yul\":24760:24793   */\n      tag_615\n        /* \"#utility.yul\":24787:24792   */\n      dup2\n        /* \"#utility.yul\":24760:24793   */\n      tag_318\n      jump\t// in\n    tag_615:\n        /* \"#utility.yul\":24656:24799   */\n      swap3\n      swap2\n      pop\n      pop\n      jump\t// out\n        /* \"#utility.yul\":24805:24948   */\n    tag_380:\n        /* \"#utility.yul\":24862:24867   */\n      0x00\n        /* \"#utility.yul\":24893:24899   */\n      dup2\n        /* \"#utility.yul\":24887:24900   */\n      mload\n        /* \"#utility.yul\":24878:24900   */\n      swap1\n      pop\n        /* \"#utility.yul\":24909:24942   */\n      tag_617\n        /* \"#utility.yul\":24936:24941   */\n      dup2\n        /* \"#utility.yul\":24909:24942   */\n      tag_322\n      jump\t// in\n    tag_617:\n        /* \"#utility.yul\":24805:24948   */\n      swap3\n      swap2\n      pop\n      pop\n      jump\t// out\n        /* \"#utility.yul\":24954:25071   */\n    tag_381:\n        /* \"#utility.yul\":25063:25064   */\n      0x00\n        /* \"#utility.yul\":25060:25061   */\n      dup1\n        /* \"#utility.yul\":25053:25065   */\n      revert\n        /* \"#utility.yul\":25077:25194   */\n    tag_382:\n        /* \"#utility.yul\":25186:25187   */\n      0x00\n        /* \"#utility.yul\":25183:25184   */\n      dup1\n        /* \"#utility.yul\":25176:25188   */\n      revert\n        /* \"#utility.yul\":25200:25508   */\n    tag_383:\n        /* \"#utility.yul\":25262:25266   */\n      0x00\n        /* \"#utility.yul\":25352:25370   */\n      0xffffffffffffffff\n        /* \"#utility.yul\":25344:25350   */\n      dup3\n        /* \"#utility.yul\":25341:25371   */\n      gt\n        /* \"#utility.yul\":25338:25394   */\n      iszero\n      tag_621\n      jumpi\n        /* \"#utility.yul\":25374:25392   */\n      tag_622\n      tag_205\n      jump\t// in\n    tag_622:\n        /* \"#utility.yul\":25338:25394   */\n    tag_621:\n        /* \"#utility.yul\":25412:25441   */\n      tag_623\n        /* \"#utility.yul\":25434:25440   */\n      dup3\n        /* \"#utility.yul\":25412:25441   */\n      tag_350\n      jump\t// in\n    tag_623:\n        /* \"#utility.yul\":25404:25441   */\n      swap1\n      pop\n        /* \"#utility.yul\":25496:25500   */\n      0x20\n        /* \"#utility.yul\":25490:25494   */\n      dup2\n        /* \"#utility.yul\":25486:25501   */\n      add\n        /* \"#utility.yul\":25478:25501   */\n      swap1\n      pop\n        /* \"#utility.yul\":25200:25508   */\n      swap2\n      swap1\n      pop\n      jump\t// out\n        /* \"#utility.yul\":25514:25935   */\n    tag_384:\n        /* \"#utility.yul\":25603:25608   */\n      0x00\n        /* \"#utility.yul\":25628:25694   */\n      tag_625\n        /* \"#utility.yul\":25644:25693   */\n      tag_626\n        /* \"#utility.yul\":25686:25692   */\n      dup5\n        /* \"#utility.yul\":25644:25693   */\n      tag_383\n      jump\t// in\n    tag_626:\n        /* \"#utility.yul\":25628:25694   */\n      tag_377\n      jump\t// in\n    tag_625:\n        /* \"#utility.yul\":25619:25694   */\n      swap1\n      pop\n        /* \"#utility.yul\":25717:25723   */\n      dup3\n        /* \"#utility.yul\":25710:25715   */\n      dup2\n        /* \"#utility.yul\":25703:25724   */\n      mstore\n        /* \"#utility.yul\":25755:25759   */\n      0x20\n        /* \"#utility.yul\":25748:25753   */\n      dup2\n        /* \"#utility.yul\":25744:25760   */\n      add\n        /* \"#utility.yul\":25793:25796   */\n      dup5\n        /* \"#utility.yul\":25784:25790   */\n      dup5\n        /* \"#utility.yul\":25779:25782   */\n      dup5\n        /* \"#utility.yul\":25775:25791   */\n      add\n        /* \"#utility.yul\":25772:25797   */\n      gt\n        /* \"#utility.yul\":25769:25881   */\n      iszero\n      tag_627\n      jumpi\n        /* \"#utility.yul\":25800:25879   */\n      tag_628\n      tag_382\n      jump\t// in\n    tag_628:\n        /* \"#utility.yul\":25769:25881   */\n    tag_627:\n        /* \"#utility.yul\":25890:25929   */\n      tag_629\n        /* \"#utility.yul\":25922:25928   */\n      dup5\n        /* \"#utility.yul\":25917:25920   */\n      dup3\n        /* \"#utility.yul\":25912:25915   */\n      dup6\n        /* \"#utility.yul\":25890:25929   */\n      tag_349\n      jump\t// in\n    tag_629:\n        /* \"#utility.yul\":25609:25935   */\n      pop\n        /* \"#utility.yul\":25514:25935   */\n      swap4\n      swap3\n      pop\n      pop\n      pop\n      jump\t// out\n        /* \"#utility.yul\":25955:26310   */\n    tag_385:\n        /* \"#utility.yul\":26022:26027   */\n      0x00\n        /* \"#utility.yul\":26071:26074   */\n      dup3\n        /* \"#utility.yul\":26064:26068   */\n      0x1f\n        /* \"#utility.yul\":26056:26062   */\n      dup4\n        /* \"#utility.yul\":26052:26069   */\n      add\n        /* \"#utility.yul\":26048:26075   */\n      slt\n        /* \"#utility.yul\":26038:26160   */\n      tag_631\n      jumpi\n        /* \"#utility.yul\":26079:26158   */\n      tag_632\n      tag_381\n      jump\t// in\n    tag_632:\n        /* \"#utility.yul\":26038:26160   */\n    tag_631:\n        /* \"#utility.yul\":26189:26195   */\n      dup2\n        /* \"#utility.yul\":26183:26196   */\n      mload\n        /* \"#utility.yul\":26214:26304   */\n      tag_633\n        /* \"#utility.yul\":26300:26303   */\n      dup5\n        /* \"#utility.yul\":26292:26298   */\n      dup3\n        /* \"#utility.yul\":26285:26289   */\n      0x20\n        /* \"#utility.yul\":26277:26283   */\n      dup7\n        /* \"#utility.yul\":26273:26290   */\n      add\n        /* \"#utility.yul\":26214:26304   */\n      tag_384\n      jump\t// in\n    tag_633:\n        /* \"#utility.yul\":26205:26304   */\n      swap2\n      pop\n        /* \"#utility.yul\":26028:26310   */\n      pop\n        /* \"#utility.yul\":25955:26310   */\n      swap3\n      swap2\n      pop\n      pop\n      jump\t// out\n        /* \"#utility.yul\":26316:26432   */\n    tag_386:\n        /* \"#utility.yul\":26386:26407   */\n      tag_635\n        /* \"#utility.yul\":26401:26406   */\n      dup2\n        /* \"#utility.yul\":26386:26407   */\n      tag_352\n      jump\t// in\n    tag_635:\n        /* \"#utility.yul\":26379:26384   */\n      dup2\n        /* \"#utility.yul\":26376:26408   */\n      eq\n        /* \"#utility.yul\":26366:26426   */\n      tag_636\n      jumpi\n        /* \"#utility.yul\":26422:26423   */\n      0x00\n        /* \"#utility.yul\":26419:26420   */\n      dup1\n        /* \"#utility.yul\":26412:26424   */\n      revert\n        /* \"#utility.yul\":26366:26426   */\n    tag_636:\n        /* \"#utility.yul\":26316:26432   */\n      pop\n      jump\t// out\n        /* \"#utility.yul\":26438:26575   */\n    tag_387:\n        /* \"#utility.yul\":26492:26497   */\n      0x00\n        /* \"#utility.yul\":26523:26529   */\n      dup2\n        /* \"#utility.yul\":26517:26530   */\n      mload\n        /* \"#utility.yul\":26508:26530   */\n      swap1\n      pop\n        /* \"#utility.yul\":26539:26569   */\n      tag_638\n        /* \"#utility.yul\":26563:26568   */\n      dup2\n        /* \"#utility.yul\":26539:26569   */\n      tag_386\n      jump\t// in\n    tag_638:\n        /* \"#utility.yul\":26438:26575   */\n      swap3\n      swap2\n      pop\n      pop\n      jump\t// out\n        /* \"#utility.yul\":26617:28076   */\n    tag_388:\n        /* \"#utility.yul\":26705:26710   */\n      0x00\n        /* \"#utility.yul\":26749:26753   */\n      0xa0\n        /* \"#utility.yul\":26737:26746   */\n      dup3\n        /* \"#utility.yul\":26732:26735   */\n      dup5\n        /* \"#utility.yul\":26728:26747   */\n      sub\n        /* \"#utility.yul\":26724:26754   */\n      slt\n        /* \"#utility.yul\":26721:26838   */\n      iszero\n      tag_640\n      jumpi\n        /* \"#utility.yul\":26757:26836   */\n      tag_641\n      tag_375\n      jump\t// in\n    tag_641:\n        /* \"#utility.yul\":26721:26838   */\n    tag_640:\n        /* \"#utility.yul\":26856:26877   */\n      tag_642\n        /* \"#utility.yul\":26872:26876   */\n      0xa0\n        /* \"#utility.yul\":26856:26877   */\n      tag_377\n      jump\t// in\n    tag_642:\n        /* \"#utility.yul\":26847:26877   */\n      swap1\n      pop\n        /* \"#utility.yul\":26934:26935   */\n      0x00\n        /* \"#utility.yul\":26974:27034   */\n      tag_643\n        /* \"#utility.yul\":27030:27033   */\n      dup5\n        /* \"#utility.yul\":27021:27027   */\n      dup3\n        /* \"#utility.yul\":27010:27019   */\n      dup6\n        /* \"#utility.yul\":27006:27028   */\n      add\n        /* \"#utility.yul\":26974:27034   */\n      tag_379\n      jump\t// in\n    tag_643:\n        /* \"#utility.yul\":26967:26971   */\n      0x00\n        /* \"#utility.yul\":26960:26965   */\n      dup4\n        /* \"#utility.yul\":26956:26972   */\n      add\n        /* \"#utility.yul\":26949:27035   */\n      mstore\n        /* \"#utility.yul\":26887:27046   */\n      pop\n        /* \"#utility.yul\":27106:27108   */\n      0x20\n        /* \"#utility.yul\":27147:27207   */\n      tag_644\n        /* \"#utility.yul\":27203:27206   */\n      dup5\n        /* \"#utility.yul\":27194:27200   */\n      dup3\n        /* \"#utility.yul\":27183:27192   */\n      dup6\n        /* \"#utility.yul\":27179:27201   */\n      add\n        /* \"#utility.yul\":27147:27207   */\n      tag_380\n      jump\t// in\n    tag_644:\n        /* \"#utility.yul\":27140:27144   */\n      0x20\n        /* \"#utility.yul\":27133:27138   */\n      dup4\n        /* \"#utility.yul\":27129:27145   */\n      add\n        /* \"#utility.yul\":27122:27208   */\n      mstore\n        /* \"#utility.yul\":27056:27219   */\n      pop\n        /* \"#utility.yul\":27301:27303   */\n      0x40\n        /* \"#utility.yul\":27290:27299   */\n      dup3\n        /* \"#utility.yul\":27286:27304   */\n      add\n        /* \"#utility.yul\":27280:27305   */\n      mload\n        /* \"#utility.yul\":27332:27350   */\n      0xffffffffffffffff\n        /* \"#utility.yul\":27324:27330   */\n      dup2\n        /* \"#utility.yul\":27321:27351   */\n      gt\n        /* \"#utility.yul\":27318:27435   */\n      iszero\n      tag_645\n      jumpi\n        /* \"#utility.yul\":27354:27433   */\n      tag_646\n      tag_378\n      jump\t// in\n    tag_646:\n        /* \"#utility.yul\":27318:27435   */\n    tag_645:\n        /* \"#utility.yul\":27474:27544   */\n      tag_647\n        /* \"#utility.yul\":27540:27543   */\n      dup5\n        /* \"#utility.yul\":27531:27537   */\n      dup3\n        /* \"#utility.yul\":27520:27529   */\n      dup6\n        /* \"#utility.yul\":27516:27538   */\n      add\n        /* \"#utility.yul\":27474:27544   */\n      tag_385\n      jump\t// in\n    tag_647:\n        /* \"#utility.yul\":27467:27471   */\n      0x40\n        /* \"#utility.yul\":27460:27465   */\n      dup4\n        /* \"#utility.yul\":27456:27472   */\n      add\n        /* \"#utility.yul\":27449:27545   */\n      mstore\n        /* \"#utility.yul\":27229:27556   */\n      pop\n        /* \"#utility.yul\":27642:27644   */\n      0x60\n        /* \"#utility.yul\":27631:27640   */\n      dup3\n        /* \"#utility.yul\":27627:27645   */\n      add\n        /* \"#utility.yul\":27621:27646   */\n      mload\n        /* \"#utility.yul\":27673:27691   */\n      0xffffffffffffffff\n        /* \"#utility.yul\":27665:27671   */\n      dup2\n        /* \"#utility.yul\":27662:27692   */\n      gt\n        /* \"#utility.yul\":27659:27776   */\n      iszero\n      tag_648\n      jumpi\n        /* \"#utility.yul\":27695:27774   */\n      tag_649\n      tag_378\n      jump\t// in\n    tag_649:\n        /* \"#utility.yul\":27659:27776   */\n    tag_648:\n        /* \"#utility.yul\":27815:27885   */\n      tag_650\n        /* \"#utility.yul\":27881:27884   */\n      dup5\n        /* \"#utility.yul\":27872:27878   */\n      dup3\n        /* \"#utility.yul\":27861:27870   */\n      dup6\n        /* \"#utility.yul\":27857:27879   */\n      add\n        /* \"#utility.yul\":27815:27885   */\n      tag_385\n      jump\t// in\n    tag_650:\n        /* \"#utility.yul\":27808:27812   */\n      0x60\n        /* \"#utility.yul\":27801:27806   */\n      dup4\n        /* \"#utility.yul\":27797:27813   */\n      add\n        /* \"#utility.yul\":27790:27886   */\n      mstore\n        /* \"#utility.yul\":27566:27897   */\n      pop\n        /* \"#utility.yul\":27958:27961   */\n      0x80\n        /* \"#utility.yul\":28000:28057   */\n      tag_651\n        /* \"#utility.yul\":28053:28056   */\n      dup5\n        /* \"#utility.yul\":28044:28050   */\n      dup3\n        /* \"#utility.yul\":28033:28042   */\n      dup6\n        /* \"#utility.yul\":28029:28051   */\n      add\n        /* \"#utility.yul\":28000:28057   */\n      tag_387\n      jump\t// in\n    tag_651:\n        /* \"#utility.yul\":27993:27997   */\n      0x80\n        /* \"#utility.yul\":27986:27991   */\n      dup4\n        /* \"#utility.yul\":27982:27998   */\n      add\n        /* \"#utility.yul\":27975:28058   */\n      mstore\n        /* \"#utility.yul\":27907:28069   */\n      pop\n        /* \"#utility.yul\":26617:28076   */\n      swap3\n      swap2\n      pop\n      pop\n      jump\t// out\n        /* \"#utility.yul\":28082:28642   */\n    tag_167:\n        /* \"#utility.yul\":28180:28186   */\n      0x00\n        /* \"#utility.yul\":28229:28231   */\n      0x20\n        /* \"#utility.yul\":28217:28226   */\n      dup3\n        /* \"#utility.yul\":28208:28215   */\n      dup5\n        /* \"#utility.yul\":28204:28227   */\n      sub\n        /* \"#utility.yul\":28200:28232   */\n      slt\n        /* \"#utility.yul\":28197:28316   */\n      iszero\n      tag_653\n      jumpi\n        /* \"#utility.yul\":28235:28314   */\n      tag_654\n      tag_315\n      jump\t// in\n    tag_654:\n        /* \"#utility.yul\":28197:28316   */\n    tag_653:\n        /* \"#utility.yul\":28376:28377   */\n      0x00\n        /* \"#utility.yul\":28365:28374   */\n      dup3\n        /* \"#utility.yul\":28361:28378   */\n      add\n        /* \"#utility.yul\":28355:28379   */\n      mload\n        /* \"#utility.yul\":28406:28424   */\n      0xffffffffffffffff\n        /* \"#utility.yul\":28398:28404   */\n      dup2\n        /* \"#utility.yul\":28395:28425   */\n      gt\n        /* \"#utility.yul\":28392:28509   */\n      iszero\n      tag_655\n      jumpi\n        /* \"#utility.yul\":28428:28507   */\n      tag_656\n      tag_316\n      jump\t// in\n    tag_656:\n        /* \"#utility.yul\":28392:28509   */\n    tag_655:\n        /* \"#utility.yul\":28533:28625   */\n      tag_657\n        /* \"#utility.yul\":28617:28624   */\n      dup5\n        /* \"#utility.yul\":28608:28614   */\n      dup3\n        /* \"#utility.yul\":28597:28606   */\n      dup6\n        /* \"#utility.yul\":28593:28615   */\n      add\n        /* \"#utility.yul\":28533:28625   */\n      tag_388\n      jump\t// in\n    tag_657:\n        /* \"#utility.yul\":28523:28625   */\n      swap2\n      pop\n        /* \"#utility.yul\":28326:28635   */\n      pop\n        /* \"#utility.yul\":28082:28642   */\n      swap3\n      swap2\n      pop\n      pop\n      jump\t// out\n        /* \"#utility.yul\":28648:28825   */\n    tag_389:\n        /* \"#utility.yul\":28788:28817   */\n      0x4974656d206973206e6f7420617661696c61626c65206e6f7720210000000000\n        /* \"#utility.yul\":28784:28785   */\n      0x00\n        /* \"#utility.yul\":28776:28782   */\n      dup3\n        /* \"#utility.yul\":28772:28786   */\n      add\n        /* \"#utility.yul\":28765:28818   */\n      mstore\n        /* \"#utility.yul\":28648:28825   */\n      pop\n      jump\t// out\n        /* \"#utility.yul\":28831:29197   */\n    tag_390:\n        /* \"#utility.yul\":28973:28976   */\n      0x00\n        /* \"#utility.yul\":28994:29061   */\n      tag_660\n        /* \"#utility.yul\":29058:29060   */\n      0x1b\n        /* \"#utility.yul\":29053:29056   */\n      dup4\n        /* \"#utility.yul\":28994:29061   */\n      tag_362\n      jump\t// in\n    tag_660:\n        /* \"#utility.yul\":28987:29061   */\n      swap2\n      pop\n        /* \"#utility.yul\":29070:29163   */\n      tag_661\n        /* \"#utility.yul\":29159:29162   */\n      dup3\n        /* \"#utility.yul\":29070:29163   */\n      tag_389\n      jump\t// in\n    tag_661:\n        /* \"#utility.yul\":29188:29190   */\n      0x20\n        /* \"#utility.yul\":29183:29186   */\n      dup3\n        /* \"#utility.yul\":29179:29191   */\n      add\n        /* \"#utility.yul\":29172:29191   */\n      swap1\n      pop\n        /* \"#utility.yul\":28831:29197   */\n      swap2\n      swap1\n      pop\n      jump\t// out\n        /* \"#utility.yul\":29203:29622   */\n    tag_170:\n        /* \"#utility.yul\":29369:29373   */\n      0x00\n        /* \"#utility.yul\":29407:29409   */\n      0x20\n        /* \"#utility.yul\":29396:29405   */\n      dup3\n        /* \"#utility.yul\":29392:29410   */\n      add\n        /* \"#utility.yul\":29384:29410   */\n      swap1\n      pop\n        /* \"#utility.yul\":29456:29465   */\n      dup2\n        /* \"#utility.yul\":29450:29454   */\n      dup2\n        /* \"#utility.yul\":29446:29466   */\n      sub\n        /* \"#utility.yul\":29442:29443   */\n      0x00\n        /* \"#utility.yul\":29431:29440   */\n      dup4\n        /* \"#utility.yul\":29427:29444   */\n      add\n        /* \"#utility.yul\":29420:29467   */\n      mstore\n        /* \"#utility.yul\":29484:29615   */\n      tag_663\n        /* \"#utility.yul\":29610:29614   */\n      dup2\n        /* \"#utility.yul\":29484:29615   */\n      tag_390\n      jump\t// in\n    tag_663:\n        /* \"#utility.yul\":29476:29615   */\n      swap1\n      pop\n        /* \"#utility.yul\":29203:29622   */\n      swap2\n      swap1\n      pop\n      jump\t// out\n        /* \"#utility.yul\":29628:29762   */\n    tag_391:\n        /* \"#utility.yul\":29686:29695   */\n      0x00\n        /* \"#utility.yul\":29719:29756   */\n      tag_665\n        /* \"#utility.yul\":29750:29755   */\n      dup3\n        /* \"#utility.yul\":29719:29756   */\n      tag_328\n      jump\t// in\n    tag_665:\n        /* \"#utility.yul\":29706:29756   */\n      swap1\n      pop\n        /* \"#utility.yul\":29628:29762   */\n      swap2\n      swap1\n      pop\n      jump\t// out\n        /* \"#utility.yul\":29768:29915   */\n    tag_392:\n        /* \"#utility.yul\":29863:29908   */\n      tag_667\n        /* \"#utility.yul\":29902:29907   */\n      dup2\n        /* \"#utility.yul\":29863:29908   */\n      tag_391\n      jump\t// in\n    tag_667:\n        /* \"#utility.yul\":29858:29861   */\n      dup3\n        /* \"#utility.yul\":29851:29909   */\n      mstore\n        /* \"#utility.yul\":29768:29915   */\n      pop\n      pop\n      jump\t// out\n        /* \"#utility.yul\":29921:30379   */\n    tag_174:\n        /* \"#utility.yul\":30078:30082   */\n      0x00\n        /* \"#utility.yul\":30116:30118   */\n      0x60\n        /* \"#utility.yul\":30105:30114   */\n      dup3\n        /* \"#utility.yul\":30101:30119   */\n      add\n        /* \"#utility.yul\":30093:30119   */\n      swap1\n      pop\n        /* \"#utility.yul\":30129:30208   */\n      tag_669\n        /* \"#utility.yul\":30205:30206   */\n      0x00\n        /* \"#utility.yul\":30194:30203   */\n      dup4\n        /* \"#utility.yul\":30190:30207   */\n      add\n        /* \"#utility.yul\":30181:30187   */\n      dup7\n        /* \"#utility.yul\":30129:30208   */\n      tag_392\n      jump\t// in\n    tag_669:\n        /* \"#utility.yul\":30218:30290   */\n      tag_670\n        /* \"#utility.yul\":30286:30288   */\n      0x20\n        /* \"#utility.yul\":30275:30284   */\n      dup4\n        /* \"#utility.yul\":30271:30289   */\n      add\n        /* \"#utility.yul\":30262:30268   */\n      dup6\n        /* \"#utility.yul\":30218:30290   */\n      tag_346\n      jump\t// in\n    tag_670:\n        /* \"#utility.yul\":30300:30372   */\n      tag_671\n        /* \"#utility.yul\":30368:30370   */\n      0x40\n        /* \"#utility.yul\":30357:30366   */\n      dup4\n        /* \"#utility.yul\":30353:30371   */\n      add\n        /* \"#utility.yul\":30344:30350   */\n      dup5\n        /* \"#utility.yul\":30300:30372   */\n      tag_355\n      jump\t// in\n    tag_671:\n        /* \"#utility.yul\":29921:30379   */\n      swap5\n      swap4\n      pop\n      pop\n      pop\n      pop\n      jump\t// out\n        /* \"#utility.yul\":30385:30565   */\n    tag_393:\n        /* \"#utility.yul\":30433:30510   */\n      0x4e487b7100000000000000000000000000000000000000000000000000000000\n        /* \"#utility.yul\":30430:30431   */\n      0x00\n        /* \"#utility.yul\":30423:30511   */\n      mstore\n        /* \"#utility.yul\":30530:30534   */\n      0x11\n        /* \"#utility.yul\":30527:30528   */\n      0x04\n        /* \"#utility.yul\":30520:30535   */\n      mstore\n        /* \"#utility.yul\":30554:30558   */\n      0x24\n        /* \"#utility.yul\":30551:30552   */\n      0x00\n        /* \"#utility.yul\":30544:30559   */\n      revert\n        /* \"#utility.yul\":30571:30876   */\n    tag_200:\n        /* \"#utility.yul\":30611:30614   */\n      0x00\n        /* \"#utility.yul\":30630:30650   */\n      tag_674\n        /* \"#utility.yul\":30648:30649   */\n      dup3\n        /* \"#utility.yul\":30630:30650   */\n      tag_317\n      jump\t// in\n    tag_674:\n        /* \"#utility.yul\":30625:30650   */\n      swap2\n      pop\n        /* \"#utility.yul\":30664:30684   */\n      tag_675\n        /* \"#utility.yul\":30682:30683   */\n      dup4\n        /* \"#utility.yul\":30664:30684   */\n      tag_317\n      jump\t// in\n    tag_675:\n        /* \"#utility.yul\":30659:30684   */\n      swap3\n      pop\n        /* \"#utility.yul\":30818:30819   */\n      dup3\n        /* \"#utility.yul\":30750:30816   */\n      0xffffffffffffffffffffffffffffffffffffffffffffffffffffffffffffffff\n        /* \"#utility.yul\":30746:30820   */\n      sub\n        /* \"#utility.yul\":30743:30744   */\n      dup3\n        /* \"#utility.yul\":30740:30821   */\n      gt\n        /* \"#utility.yul\":30737:30844   */\n      iszero\n      tag_676\n      jumpi\n        /* \"#utility.yul\":30824:30842   */\n      tag_677\n      tag_393\n      jump\t// in\n    tag_677:\n        /* \"#utility.yul\":30737:30844   */\n    tag_676:\n        /* \"#utility.yul\":30868:30869   */\n      dup3\n        /* \"#utility.yul\":30865:30866   */\n      dup3\n        /* \"#utility.yul\":30861:30870   */\n      add\n        /* \"#utility.yul\":30854:30870   */\n      swap1\n      pop\n        /* \"#utility.yul\":30571:30876   */\n      swap3\n      swap2\n      pop\n      pop\n      jump\t// out\n        /* \"#utility.yul\":30882:31115   */\n    tag_202:\n        /* \"#utility.yul\":30921:30924   */\n      0x00\n        /* \"#utility.yul\":30944:30968   */\n      tag_679\n        /* \"#utility.yul\":30962:30967   */\n      dup3\n        /* \"#utility.yul\":30944:30968   */\n      tag_317\n      jump\t// in\n    tag_679:\n        /* \"#utility.yul\":30935:30968   */\n      swap2\n      pop\n        /* \"#utility.yul\":30990:31056   */\n      0xffffffffffffffffffffffffffffffffffffffffffffffffffffffffffffffff\n        /* \"#utility.yul\":30983:30988   */\n      dup3\n        /* \"#utility.yul\":30980:31057   */\n      sub\n        /* \"#utility.yul\":30977:31080   */\n      tag_680\n      jumpi\n        /* \"#utility.yul\":31060:31078   */\n      tag_681\n      tag_393\n      jump\t// in\n    tag_681:\n        /* \"#utility.yul\":30977:31080   */\n    tag_680:\n        /* \"#utility.yul\":31107:31108   */\n      0x01\n        /* \"#utility.yul\":31100:31105   */\n      dup3\n        /* \"#utility.yul\":31096:31109   */\n      add\n        /* \"#utility.yul\":31089:31109   */\n      swap1\n      pop\n        /* \"#utility.yul\":30882:31115   */\n      swap2\n      swap1\n      pop\n      jump\t// out\n        /* \"#utility.yul\":31121:31301   */\n    tag_224:\n        /* \"#utility.yul\":31169:31246   */\n      0x4e487b7100000000000000000000000000000000000000000000000000000000\n        /* \"#utility.yul\":31166:31167   */\n      0x00\n        /* \"#utility.yul\":31159:31247   */\n      mstore\n        /* \"#utility.yul\":31266:31270   */\n      0x32\n        /* \"#utility.yul\":31263:31264   */\n      0x04\n        /* \"#utility.yul\":31256:31271   */\n      mstore\n        /* \"#utility.yul\":31290:31294   */\n      0x24\n        /* \"#utility.yul\":31287:31288   */\n      0x00\n        /* \"#utility.yul\":31280:31295   */\n      revert\n        /* \"#utility.yul\":31307:31652   */\n    tag_246:\n        /* \"#utility.yul\":31374:31380   */\n      0x00\n        /* \"#utility.yul\":31423:31425   */\n      0x20\n        /* \"#utility.yul\":31411:31420   */\n      dup3\n        /* \"#utility.yul\":31402:31409   */\n      dup5\n        /* \"#utility.yul\":31398:31421   */\n      sub\n        /* \"#utility.yul\":31394:31426   */\n      slt\n        /* \"#utility.yul\":31391:31510   */\n      iszero\n      tag_684\n      jumpi\n        /* \"#utility.yul\":31429:31508   */\n      tag_685\n      tag_315\n      jump\t// in\n    tag_685:\n        /* \"#utility.yul\":31391:31510   */\n    tag_684:\n        /* \"#utility.yul\":31549:31550   */\n      0x00\n        /* \"#utility.yul\":31574:31635   */\n      tag_686\n        /* \"#utility.yul\":31627:31634   */\n      dup5\n        /* \"#utility.yul\":31618:31624   */\n      dup3\n        /* \"#utility.yul\":31607:31616   */\n      dup6\n        /* \"#utility.yul\":31603:31625   */\n      add\n        /* \"#utility.yul\":31574:31635   */\n      tag_387\n      jump\t// in\n    tag_686:\n        /* \"#utility.yul\":31564:31635   */\n      swap2\n      pop\n        /* \"#utility.yul\":31520:31645   */\n      pop\n        /* \"#utility.yul\":31307:31652   */\n      swap3\n      swap2\n      pop\n      pop\n      jump\t// out\n        /* \"#utility.yul\":31658:31909   */\n    tag_394:\n        /* \"#utility.yul\":31798:31832   */\n      0x506c65617365207375626d6974207468652061736b696e672070726963652069\n        /* \"#utility.yul\":31794:31795   */\n      0x00\n        /* \"#utility.yul\":31786:31792   */\n      dup3\n        /* \"#utility.yul\":31782:31796   */\n      add\n        /* \"#utility.yul\":31775:31833   */\n      mstore\n        /* \"#utility.yul\":31867:31901   */\n      0x6e206f7264657220746f20636f6d706c65746520746865207075726368617365\n        /* \"#utility.yul\":31862:31864   */\n      0x20\n        /* \"#utility.yul\":31854:31860   */\n      dup3\n        /* \"#utility.yul\":31850:31865   */\n      add\n        /* \"#utility.yul\":31843:31902   */\n      mstore\n        /* \"#utility.yul\":31658:31909   */\n      pop\n      jump\t// out\n        /* \"#utility.yul\":31915:32281   */\n    tag_395:\n        /* \"#utility.yul\":32057:32060   */\n      0x00\n        /* \"#utility.yul\":32078:32145   */\n      tag_689\n        /* \"#utility.yul\":32142:32144   */\n      0x40\n        /* \"#utility.yul\":32137:32140   */\n      dup4\n        /* \"#utility.yul\":32078:32145   */\n      tag_362\n      jump\t// in\n    tag_689:\n        /* \"#utility.yul\":32071:32145   */\n      swap2\n      pop\n        /* \"#utility.yul\":32154:32247   */\n      tag_690\n        /* \"#utility.yul\":32243:32246   */\n      dup3\n        /* \"#utility.yul\":32154:32247   */\n      tag_394\n      jump\t// in\n    tag_690:\n        /* \"#utility.yul\":32272:32274   */\n      0x40\n        /* \"#utility.yul\":32267:32270   */\n      dup3\n        /* \"#utility.yul\":32263:32275   */\n      add\n        /* \"#utility.yul\":32256:32275   */\n      swap1\n      pop\n        /* \"#utility.yul\":31915:32281   */\n      swap2\n      swap1\n      pop\n      jump\t// out\n        /* \"#utility.yul\":32287:32706   */\n    tag_263:\n        /* \"#utility.yul\":32453:32457   */\n      0x00\n        /* \"#utility.yul\":32491:32493   */\n      0x20\n        /* \"#utility.yul\":32480:32489   */\n      dup3\n        /* \"#utility.yul\":32476:32494   */\n      add\n        /* \"#utility.yul\":32468:32494   */\n      swap1\n      pop\n        /* \"#utility.yul\":32540:32549   */\n      dup2\n        /* \"#utility.yul\":32534:32538   */\n      dup2\n        /* \"#utility.yul\":32530:32550   */\n      sub\n        /* \"#utility.yul\":32526:32527   */\n      0x00\n        /* \"#utility.yul\":32515:32524   */\n      dup4\n        /* \"#utility.yul\":32511:32528   */\n      add\n        /* \"#utility.yul\":32504:32551   */\n      mstore\n        /* \"#utility.yul\":32568:32699   */\n      tag_692\n        /* \"#utility.yul\":32694:32698   */\n      dup2\n        /* \"#utility.yul\":32568:32699   */\n      tag_395\n      jump\t// in\n    tag_692:\n        /* \"#utility.yul\":32560:32699   */\n      swap1\n      pop\n        /* \"#utility.yul\":32287:32706   */\n      swap2\n      swap1\n      pop\n      jump\t// out\n        /* \"#utility.yul\":32712:32865   */\n    tag_396:\n        /* \"#utility.yul\":32852:32857   */\n      0x5351460000000000000000000000000000000000000000000000000000000000\n        /* \"#utility.yul\":32848:32849   */\n      0x00\n        /* \"#utility.yul\":32840:32846   */\n      dup3\n        /* \"#utility.yul\":32836:32850   */\n      add\n        /* \"#utility.yul\":32829:32858   */\n      mstore\n        /* \"#utility.yul\":32712:32865   */\n      pop\n      jump\t// out\n        /* \"#utility.yul\":32871:33236   */\n    tag_397:\n        /* \"#utility.yul\":33013:33016   */\n      0x00\n        /* \"#utility.yul\":33034:33100   */\n      tag_695\n        /* \"#utility.yul\":33098:33099   */\n      0x03\n        /* \"#utility.yul\":33093:33096   */\n      dup4\n        /* \"#utility.yul\":33034:33100   */\n      tag_362\n      jump\t// in\n    tag_695:\n        /* \"#utility.yul\":33027:33100   */\n      swap2\n      pop\n        /* \"#utility.yul\":33109:33202   */\n      tag_696\n        /* \"#utility.yul\":33198:33201   */\n      dup3\n        /* \"#utility.yul\":33109:33202   */\n      tag_396\n      jump\t// in\n    tag_696:\n        /* \"#utility.yul\":33227:33229   */\n      0x20\n        /* \"#utility.yul\":33222:33225   */\n      dup3\n        /* \"#utility.yul\":33218:33230   */\n      add\n        /* \"#utility.yul\":33211:33230   */\n      swap1\n      pop\n        /* \"#utility.yul\":32871:33236   */\n      swap2\n      swap1\n      pop\n      jump\t// out\n        /* \"#utility.yul\":33242:33992   */\n    tag_271:\n        /* \"#utility.yul\":33492:33496   */\n      0x00\n        /* \"#utility.yul\":33530:33533   */\n      0x80\n        /* \"#utility.yul\":33519:33528   */\n      dup3\n        /* \"#utility.yul\":33515:33534   */\n      add\n        /* \"#utility.yul\":33507:33534   */\n      swap1\n      pop\n        /* \"#utility.yul\":33544:33615   */\n      tag_698\n        /* \"#utility.yul\":33612:33613   */\n      0x00\n        /* \"#utility.yul\":33601:33610   */\n      dup4\n        /* \"#utility.yul\":33597:33614   */\n      add\n        /* \"#utility.yul\":33588:33594   */\n      dup7\n        /* \"#utility.yul\":33544:33615   */\n      tag_355\n      jump\t// in\n    tag_698:\n        /* \"#utility.yul\":33625:33697   */\n      tag_699\n        /* \"#utility.yul\":33693:33695   */\n      0x20\n        /* \"#utility.yul\":33682:33691   */\n      dup4\n        /* \"#utility.yul\":33678:33696   */\n      add\n        /* \"#utility.yul\":33669:33675   */\n      dup6\n        /* \"#utility.yul\":33625:33697   */\n      tag_355\n      jump\t// in\n    tag_699:\n        /* \"#utility.yul\":33744:33753   */\n      dup2\n        /* \"#utility.yul\":33738:33742   */\n      dup2\n        /* \"#utility.yul\":33734:33754   */\n      sub\n        /* \"#utility.yul\":33729:33731   */\n      0x40\n        /* \"#utility.yul\":33718:33727   */\n      dup4\n        /* \"#utility.yul\":33714:33732   */\n      add\n        /* \"#utility.yul\":33707:33755   */\n      mstore\n        /* \"#utility.yul\":33772:33903   */\n      tag_700\n        /* \"#utility.yul\":33898:33902   */\n      dup2\n        /* \"#utility.yul\":33772:33903   */\n      tag_397\n      jump\t// in\n    tag_700:\n        /* \"#utility.yul\":33764:33903   */\n      swap1\n      pop\n        /* \"#utility.yul\":33913:33985   */\n      tag_701\n        /* \"#utility.yul\":33981:33983   */\n      0x60\n        /* \"#utility.yul\":33970:33979   */\n      dup4\n        /* \"#utility.yul\":33966:33984   */\n      add\n        /* \"#utility.yul\":33957:33963   */\n      dup5\n        /* \"#utility.yul\":33913:33985   */\n      tag_355\n      jump\t// in\n    tag_701:\n        /* \"#utility.yul\":33242:33992   */\n      swap5\n      swap4\n      pop\n      pop\n      pop\n      pop\n      jump\t// out\n        /* \"#utility.yul\":33998:34223   */\n    tag_398:\n        /* \"#utility.yul\":34138:34172   */\n      0x4f776e61626c653a206e6577206f776e657220697320746865207a65726f2061\n        /* \"#utility.yul\":34134:34135   */\n      0x00\n        /* \"#utility.yul\":34126:34132   */\n      dup3\n        /* \"#utility.yul\":34122:34136   */\n      add\n        /* \"#utility.yul\":34115:34173   */\n      mstore\n        /* \"#utility.yul\":34207:34215   */\n      0x6464726573730000000000000000000000000000000000000000000000000000\n        /* \"#utility.yul\":34202:34204   */\n      0x20\n        /* \"#utility.yul\":34194:34200   */\n      dup3\n        /* \"#utility.yul\":34190:34205   */\n      add\n        /* \"#utility.yul\":34183:34216   */\n      mstore\n        /* \"#utility.yul\":33998:34223   */\n      pop\n      jump\t// out\n        /* \"#utility.yul\":34229:34595   */\n    tag_399:\n        /* \"#utility.yul\":34371:34374   */\n      0x00\n        /* \"#utility.yul\":34392:34459   */\n      tag_704\n        /* \"#utility.yul\":34456:34458   */\n      0x26\n        /* \"#utility.yul\":34451:34454   */\n      dup4\n        /* \"#utility.yul\":34392:34459   */\n      tag_362\n      jump\t// in\n    tag_704:\n        /* \"#utility.yul\":34385:34459   */\n      swap2\n      pop\n        /* \"#utility.yul\":34468:34561   */\n      tag_705\n        /* \"#utility.yul\":34557:34560   */\n      dup3\n        /* \"#utility.yul\":34468:34561   */\n      tag_398\n      jump\t// in\n    tag_705:\n        /* \"#utility.yul\":34586:34588   */\n      0x40\n        /* \"#utility.yul\":34581:34584   */\n      dup3\n        /* \"#utility.yul\":34577:34589   */\n      add\n        /* \"#utility.yul\":34570:34589   */\n      swap1\n      pop\n        /* \"#utility.yul\":34229:34595   */\n      swap2\n      swap1\n      pop\n      jump\t// out\n        /* \"#utility.yul\":34601:35020   */\n    tag_306:\n        /* \"#utility.yul\":34767:34771   */\n      0x00\n        /* \"#utility.yul\":34805:34807   */\n      0x20\n        /* \"#utility.yul\":34794:34803   */\n      dup3\n        /* \"#utility.yul\":34790:34808   */\n      add\n        /* \"#utility.yul\":34782:34808   */\n      swap1\n      pop\n        /* \"#utility.yul\":34854:34863   */\n      dup2\n        /* \"#utility.yul\":34848:34852   */\n      dup2\n        /* \"#utility.yul\":34844:34864   */\n      sub\n        /* \"#utility.yul\":34840:34841   */\n      0x00\n        /* \"#utility.yul\":34829:34838   */\n      dup4\n        /* \"#utility.yul\":34825:34842   */\n      add\n        /* \"#utility.yul\":34818:34865   */\n      mstore\n        /* \"#utility.yul\":34882:35013   */\n      tag_707\n        /* \"#utility.yul\":35008:35012   */\n      dup2\n        /* \"#utility.yul\":34882:35013   */\n      tag_399\n      jump\t// in\n    tag_707:\n        /* \"#utility.yul\":34874:35013   */\n      swap1\n      pop\n        /* \"#utility.yul\":34601:35020   */\n      swap2\n      swap1\n      pop\n      jump\t// out\n\n    auxdata: 0xa2646970667358221220816dd4273b7767f6e848c7f3e10d9dd1f4b2479df99959a3b21495a8f37ede4a64736f6c634300080d0033\n}\n",
				"bytecode": {
					"linkReferences": {},
					"object": "60806040526040516200328c3803806200328c833981810160405281019062000029919062000255565b600160008190555062000051620000456200011d60201b60201c565b6200012560201b60201c565b82600360006101000a81548173ffffffffffffffffffffffffffffffffffffffff021916908373ffffffffffffffffffffffffffffffffffffffff16021790555081600560006101000a81548173ffffffffffffffffffffffffffffffffffffffff021916908373ffffffffffffffffffffffffffffffffffffffff16021790555080600460006101000a81548173ffffffffffffffffffffffffffffffffffffffff021916908373ffffffffffffffffffffffffffffffffffffffff160217905550505050620002b1565b600033905090565b6000600660009054906101000a900473ffffffffffffffffffffffffffffffffffffffff16905081600660006101000a81548173ffffffffffffffffffffffffffffffffffffffff021916908373ffffffffffffffffffffffffffffffffffffffff1602179055508173ffffffffffffffffffffffffffffffffffffffff168173ffffffffffffffffffffffffffffffffffffffff167f8be0079c531659141344cd1fd0a4f28419497f9722a3daafe3b4186f6b6457e060405160405180910390a35050565b600080fd5b600073ffffffffffffffffffffffffffffffffffffffff82169050919050565b60006200021d82620001f0565b9050919050565b6200022f8162000210565b81146200023b57600080fd5b50565b6000815190506200024f8162000224565b92915050565b600080600060608486031215620002715762000270620001eb565b5b600062000281868287016200023e565b935050602062000294868287016200023e565b9250506040620002a7868287016200023e565b9150509250925092565b612fcb80620002c16000396000f3fe608060405234801561001057600080fd5b50600436106101425760003560e01c80638da5cb5b116100b8578063c45a01551161007c578063c45a01551461032e578063c7be7a491461034c578063e78e717d1461037c578063f2fde38b14610398578063f55de0c7146103b4578063ff68fa6e146103d257610142565b80638da5cb5b14610271578063a1c11ca81461028f578063aeaf8cc2146102ab578063b7a60c7e146102db578063bfb231d2146102f957610142565b80633fc15f151161010a5780633fc15f15146101d557806342199f88146101f35780635bb4780814610211578063715018a61461022d57806385a8b36c146102375780638c0fb1c31461025557610142565b8063100616311461014757806315b124941461016357806327ce464e1461017f5780632b4c32be1461019b578063361c1995146101b9575b600080fd5b610161600480360381019061015c9190611f0a565b610407565b005b61017d60048036038101906101789190611f95565b610877565b005b61019960048036038101906101949190611f95565b610937565b005b6101a36109f7565b6040516101b09190611ffd565b60405180910390f35b6101d360048036038101906101ce9190612018565b610a02565b005b6101dd610e0f565b6040516101ea91906120b7565b60405180910390f35b6101fb610e35565b6040516102089190612291565b60405180910390f35b61022b60048036038101906102269190611f95565b611107565b005b6102356111c7565b005b61023f61124f565b60405161024c91906122cf565b60405180910390f35b61026f600480360381019061026a91906122ea565b611262565b005b610279611462565b604051610286919061234c565b60405180910390f35b6102a960048036038101906102a49190612018565b61148c565b005b6102c560048036038101906102c09190612018565b61174a565b6040516102d29190612498565b60405180910390f35b6102e3611844565b6040516102f091906122cf565b60405180910390f35b610313600480360381019061030e9190611f0a565b611857565b604051610325969594939291906124d8565b60405180910390f35b6103366118f0565b604051610343919061255a565b60405180910390f35b61036660048036038101906103619190611f0a565b611916565b60405161037391906125f0565b60405180910390f35b61039660048036038101906103919190611f0a565b611a48565b005b6103b260048036038101906103ad9190611f95565b611b6d565b005b6103bc611c64565b6040516103c9919061262c565b60405180910390f35b6103ec60048036038101906103e79190611f0a565b611c8a565b6040516103fe969594939291906124d8565b60405180910390f35b60003390506000600960008481526020019081526020016000206040518060c001604052908160008201548152602001600182015481526020016002820160009054906101000a900473ffffffffffffffffffffffffffffffffffffffff1673ffffffffffffffffffffffffffffffffffffffff1673ffffffffffffffffffffffffffffffffffffffff1681526020016003820160009054906101000a900473ffffffffffffffffffffffffffffffffffffffff1673ffffffffffffffffffffffffffffffffffffffff1673ffffffffffffffffffffffffffffffffffffffff168152602001600482015481526020016005820160009054906101000a900460ff16600181111561051b5761051a61211c565b5b600181111561052d5761052c61211c565b5b815250509050600081600001510361057a576040517f08c379a0000000000000000000000000000000000000000000000000000000008152600401610571906126a4565b60405180910390fd5b60018081111561058d5761058c61211c565b5b8160a0015160018111156105a4576105a361211c565b5b146105e4576040517f08c379a00000000000000000000000000000000000000000000000000000000081526004016105db90612710565b60405180910390fd5b600081604001519050600073ffffffffffffffffffffffffffffffffffffffff168173ffffffffffffffffffffffffffffffffffffffff160361065c576040517f08c379a00000000000000000000000000000000000000000000000000000000081526004016106539061277c565b60405180910390fd5b3373ffffffffffffffffffffffffffffffffffffffff168173ffffffffffffffffffffffffffffffffffffffff16146106ca576040517f08c379a00000000000000000000000000000000000000000000000000000000081526004016106c1906127e8565b60405180910390fd5b600560009054906101000a900473ffffffffffffffffffffffffffffffffffffffff1673ffffffffffffffffffffffffffffffffffffffff166342842e0e3083876040518463ffffffff1660e01b815260040161072993929190612808565b600060405180830381600087803b15801561074357600080fd5b505af1158015610757573d6000803e3d6000fd5b5050505060008260a0019060018111156107745761077361211c565b5b908160018111156107885761078761211c565b5b815250506009600085815260200190815260200160002060008082016000905560018201600090556002820160006101000a81549073ffffffffffffffffffffffffffffffffffffffff02191690556003820160006101000a81549073ffffffffffffffffffffffffffffffffffffffff021916905560048201600090556005820160006101000a81549060ff021916905550508273ffffffffffffffffffffffffffffffffffffffff16847f72ffc2a266acba5f77e2b49400103cb61b428f37a97057ebe671e83fddd71e6784600001514260405161086992919061283f565b60405180910390a350505050565b61087f611d13565b73ffffffffffffffffffffffffffffffffffffffff1661089d611462565b73ffffffffffffffffffffffffffffffffffffffff16146108f3576040517f08c379a00000000000000000000000000000000000000000000000000000000081526004016108ea906128b4565b60405180910390fd5b80600560006101000a81548173ffffffffffffffffffffffffffffffffffffffff021916908373ffffffffffffffffffffffffffffffffffffffff16021790555050565b61093f611d13565b73ffffffffffffffffffffffffffffffffffffffff1661095d611462565b73ffffffffffffffffffffffffffffffffffffffff16146109b3576040517f08c379a00000000000000000000000000000000000000000000000000000000081526004016109aa906128b4565b60405180910390fd5b80600360006101000a81548173ffffffffffffffffffffffffffffffffffffffff021916908373ffffffffffffffffffffffffffffffffffffffff16021790555050565b6380ac58cd60e01b81565b60008111610a45576040517f08c379a0000000000000000000000000000000000000000000000000000000008152600401610a3c90612920565b60405180910390fd5b6000600460009054906101000a900473ffffffffffffffffffffffffffffffffffffffff1673ffffffffffffffffffffffffffffffffffffffff166303ce1cb5846040518263ffffffff1660e01b8152600401610aa29190612940565b600060405180830381865afa158015610abf573d6000803e3d6000fd5b505050506040513d6000823e3d601f19601f82011682018060405250810190610ae89190612ba5565b9050600015158160800151151514610b35576040517f08c379a0000000000000000000000000000000000000000000000000000000008152600401610b2c90612c3a565b60405180910390fd5b6000610b416007611d1b565b9050600460009054906101000a900473ffffffffffffffffffffffffffffffffffffffff1673ffffffffffffffffffffffffffffffffffffffff1663c1e9518a3330876040518463ffffffff1660e01b8152600401610ba293929190612c7b565b600060405180830381600087803b158015610bbc57600080fd5b505af1158015610bd0573d6000803e3d6000fd5b50505050600560009054906101000a900473ffffffffffffffffffffffffffffffffffffffff1673ffffffffffffffffffffffffffffffffffffffff166323b872dd3330876040518463ffffffff1660e01b8152600401610c3393929190612808565b600060405180830381600087803b158015610c4d57600080fd5b505af1158015610c61573d6000803e3d6000fd5b505050506040518060c001604052808281526020018581526020013373ffffffffffffffffffffffffffffffffffffffff1681526020013073ffffffffffffffffffffffffffffffffffffffff168152602001848152602001600180811115610ccd57610ccc61211c565b5b81525060096000838152602001908152602001600020600082015181600001556020820151816001015560408201518160020160006101000a81548173ffffffffffffffffffffffffffffffffffffffff021916908373ffffffffffffffffffffffffffffffffffffffff16021790555060608201518160030160006101000a81548173ffffffffffffffffffffffffffffffffffffffff021916908373ffffffffffffffffffffffffffffffffffffffff1602179055506080820151816004015560a08201518160050160006101000a81548160ff02191690836001811115610dba57610db961211c565b5b0217905550905050610dcc6007611d29565b83817f38690a554ffbc44eb6a75016e47d517d0db8e6c37494adc68d6d0b2c66f0ab21333087604051610e0193929190612808565b60405180910390a350505050565b600360009054906101000a900473ffffffffffffffffffffffffffffffffffffffff1681565b60606000610e436007611d1b565b905060008060005b83811015610ec457600180811115610e6657610e6561211c565b5b6009600083815260200190815260200160002060050160009054906101000a900460ff166001811115610e9c57610e9b61211c565b5b03610eb157600183610eae9190612ce1565b92505b8080610ebc90612d37565b915050610e4b565b5060008267ffffffffffffffff811115610ee157610ee0612960565b5b604051908082528060200260200182016040528015610f1a57816020015b610f07611e05565b815260200190600190039081610eff5790505b50905060005b848110156110fc57600180811115610f3b57610f3a61211c565b5b6009600083815260200190815260200160002060050160009054906101000a900460ff166001811115610f7157610f7061211c565b5b036110e9576000600960008381526020019081526020016000206000015490506000600960008381526020019081526020016000209050806040518060c001604052908160008201548152602001600182015481526020016002820160009054906101000a900473ffffffffffffffffffffffffffffffffffffffff1673ffffffffffffffffffffffffffffffffffffffff1673ffffffffffffffffffffffffffffffffffffffff1681526020016003820160009054906101000a900473ffffffffffffffffffffffffffffffffffffffff1673ffffffffffffffffffffffffffffffffffffffff1673ffffffffffffffffffffffffffffffffffffffff168152602001600482015481526020016005820160009054906101000a900460ff1660018111156110a3576110a261211c565b5b60018111156110b5576110b461211c565b5b815250508486815181106110cc576110cb612d7f565b5b60200260200101819052506001856110e49190612ce1565b945050505b80806110f490612d37565b915050610f20565b508094505050505090565b61110f611d13565b73ffffffffffffffffffffffffffffffffffffffff1661112d611462565b73ffffffffffffffffffffffffffffffffffffffff1614611183576040517f08c379a000000000000000000000000000000000000000000000000000000000815260040161117a906128b4565b60405180910390fd5b80600460006101000a81548173ffffffffffffffffffffffffffffffffffffffff021916908373ffffffffffffffffffffffffffffffffffffffff16021790555050565b6111cf611d13565b73ffffffffffffffffffffffffffffffffffffffff166111ed611462565b73ffffffffffffffffffffffffffffffffffffffff1614611243576040517f08c379a000000000000000000000000000000000000000000000000000000000815260040161123a906128b4565b60405180910390fd5b61124d6000611d3f565b565b600560149054906101000a900460ff1681565b600360009054906101000a900473ffffffffffffffffffffffffffffffffffffffff1673ffffffffffffffffffffffffffffffffffffffff166323b872dd336009600087815260200190815260200160002060020160009054906101000a900473ffffffffffffffffffffffffffffffffffffffff16856040518463ffffffff1660e01b81526004016112f793929190612808565b6020604051808303816000875af1158015611316573d6000803e3d6000fd5b505050506040513d601f19601f8201168201806040525081019061133a9190612dae565b50600460009054906101000a900473ffffffffffffffffffffffffffffffffffffffff1673ffffffffffffffffffffffffffffffffffffffff1663c1e9518a3330846040518463ffffffff1660e01b815260040161139a93929190612c7b565b600060405180830381600087803b1580156113b457600080fd5b505af11580156113c8573d6000803e3d6000fd5b50505050600560009054906101000a900473ffffffffffffffffffffffffffffffffffffffff1673ffffffffffffffffffffffffffffffffffffffff166323b872dd3033846040518463ffffffff1660e01b815260040161142b93929190612808565b600060405180830381600087803b15801561144557600080fd5b505af1158015611459573d6000803e3d6000fd5b50505050505050565b6000600660009054906101000a900473ffffffffffffffffffffffffffffffffffffffff16905090565b60006009600084815260200190815260200160002060040154905060006009600085815260200190815260200160002060010154905060006009600086815260200190815260200160002060020160009054906101000a900473ffffffffffffffffffffffffffffffffffffffff1690506000600460009054906101000a900473ffffffffffffffffffffffffffffffffffffffff1673ffffffffffffffffffffffffffffffffffffffff166303ce1cb5846040518263ffffffff1660e01b815260040161155a9190612940565b600060405180830381865afa158015611577573d6000803e3d6000fd5b505050506040513d6000823e3d601f19601f820116820180604052508101906115a09190612ba5565b90508385146115e4576040517f08c379a00000000000000000000000000000000000000000000000000000000081526004016115db90612e4d565b60405180910390fd5b60001515816080015115151461162f576040517f08c379a000000000000000000000000000000000000000000000000000000000815260040161162690612c3a565b60405180910390fd5b61163a868685611262565b336009600088815260200190815260200160002060030160006101000a81548173ffffffffffffffffffffffffffffffffffffffff021916908373ffffffffffffffffffffffffffffffffffffffff16021790555060006009600088815260200190815260200160002060050160006101000a81548160ff021916908360018111156116c9576116c861211c565b5b02179055506116d86008611d29565b3373ffffffffffffffffffffffffffffffffffffffff168273ffffffffffffffffffffffffffffffffffffffff16847f551327aee12d0a8b3ede8d0e3182a40a5ff3ed9f1811dd622915db30b609b7df89884260405161173a93929190612eb9565b60405180910390a4505050505050565b611752611e79565b60008211611795576040517f08c379a000000000000000000000000000000000000000000000000000000000815260040161178c90612920565b60405180910390fd5b6000600460009054906101000a900473ffffffffffffffffffffffffffffffffffffffff1673ffffffffffffffffffffffffffffffffffffffff166303ce1cb5856040518263ffffffff1660e01b81526004016117f29190612940565b600060405180830381865afa15801561180f573d6000803e3d6000fd5b505050506040513d6000823e3d601f19601f820116820180604052508101906118389190612ba5565b90508091505092915050565b600560159054906101000a900460ff1681565b6001818154811061186757600080fd5b90600052602060002090600602016000915090508060000154908060010154908060020160009054906101000a900473ffffffffffffffffffffffffffffffffffffffff16908060030160009054906101000a900473ffffffffffffffffffffffffffffffffffffffff16908060040154908060050160009054906101000a900460ff16905086565b600460009054906101000a900473ffffffffffffffffffffffffffffffffffffffff1681565b61191e611e05565b600960008381526020019081526020016000206040518060c001604052908160008201548152602001600182015481526020016002820160009054906101000a900473ffffffffffffffffffffffffffffffffffffffff1673ffffffffffffffffffffffffffffffffffffffff1673ffffffffffffffffffffffffffffffffffffffff1681526020016003820160009054906101000a900473ffffffffffffffffffffffffffffffffffffffff1673ffffffffffffffffffffffffffffffffffffffff1673ffffffffffffffffffffffffffffffffffffffff168152602001600482015481526020016005820160009054906101000a900460ff166001811115611a2b57611a2a61211c565b5b6001811115611a3d57611a3c61211c565b5b815250509050919050565b600460009054906101000a900473ffffffffffffffffffffffffffffffffffffffff1673ffffffffffffffffffffffffffffffffffffffff1663c1e9518a3330846040518463ffffffff1660e01b8152600401611aa793929190612c7b565b600060405180830381600087803b158015611ac157600080fd5b505af1158015611ad5573d6000803e3d6000fd5b50505050600560009054906101000a900473ffffffffffffffffffffffffffffffffffffffff1673ffffffffffffffffffffffffffffffffffffffff166323b872dd3330846040518463ffffffff1660e01b8152600401611b3893929190612808565b600060405180830381600087803b158015611b5257600080fd5b505af1158015611b66573d6000803e3d6000fd5b5050505050565b611b75611d13565b73ffffffffffffffffffffffffffffffffffffffff16611b93611462565b73ffffffffffffffffffffffffffffffffffffffff1614611be9576040517f08c379a0000000000000000000000000000000000000000000000000000000008152600401611be0906128b4565b60405180910390fd5b600073ffffffffffffffffffffffffffffffffffffffff168173ffffffffffffffffffffffffffffffffffffffff1603611c58576040517f08c379a0000000000000000000000000000000000000000000000000000000008152600401611c4f90612f75565b60405180910390fd5b611c6181611d3f565b50565b600560009054906101000a900473ffffffffffffffffffffffffffffffffffffffff1681565b60026020528060005260406000206000915090508060000154908060010154908060020160009054906101000a900473ffffffffffffffffffffffffffffffffffffffff16908060030160009054906101000a900473ffffffffffffffffffffffffffffffffffffffff16908060040154908060050160009054906101000a900460ff16905086565b600033905090565b600081600001549050919050565b6001816000016000828254019250508190555050565b6000600660009054906101000a900473ffffffffffffffffffffffffffffffffffffffff16905081600660006101000a81548173ffffffffffffffffffffffffffffffffffffffff021916908373ffffffffffffffffffffffffffffffffffffffff1602179055508173ffffffffffffffffffffffffffffffffffffffff168173ffffffffffffffffffffffffffffffffffffffff167f8be0079c531659141344cd1fd0a4f28419497f9722a3daafe3b4186f6b6457e060405160405180910390a35050565b6040518060c001604052806000815260200160008152602001600073ffffffffffffffffffffffffffffffffffffffff168152602001600073ffffffffffffffffffffffffffffffffffffffff1681526020016000815260200160006001811115611e7357611e7261211c565b5b81525090565b6040518060a0016040528060008152602001600073ffffffffffffffffffffffffffffffffffffffff16815260200160608152602001606081526020016000151581525090565b6000604051905090565b600080fd5b600080fd5b6000819050919050565b611ee781611ed4565b8114611ef257600080fd5b50565b600081359050611f0481611ede565b92915050565b600060208284031215611f2057611f1f611eca565b5b6000611f2e84828501611ef5565b91505092915050565b600073ffffffffffffffffffffffffffffffffffffffff82169050919050565b6000611f6282611f37565b9050919050565b611f7281611f57565b8114611f7d57600080fd5b50565b600081359050611f8f81611f69565b92915050565b600060208284031215611fab57611faa611eca565b5b6000611fb984828501611f80565b91505092915050565b60007fffffffff0000000000000000000000000000000000000000000000000000000082169050919050565b611ff781611fc2565b82525050565b60006020820190506120126000830184611fee565b92915050565b6000806040838503121561202f5761202e611eca565b5b600061203d85828601611ef5565b925050602061204e85828601611ef5565b9150509250929050565b6000819050919050565b600061207d61207861207384611f37565b612058565b611f37565b9050919050565b600061208f82612062565b9050919050565b60006120a182612084565b9050919050565b6120b181612096565b82525050565b60006020820190506120cc60008301846120a8565b92915050565b600081519050919050565b600082825260208201905092915050565b6000819050602082019050919050565b61210781611ed4565b82525050565b61211681611f57565b82525050565b7f4e487b7100000000000000000000000000000000000000000000000000000000600052602160045260246000fd5b6002811061215c5761215b61211c565b5b50565b600081905061216d8261214b565b919050565b600061217d8261215f565b9050919050565b61218d81612172565b82525050565b60c0820160008201516121a960008501826120fe565b5060208201516121bc60208501826120fe565b5060408201516121cf604085018261210d565b5060608201516121e2606085018261210d565b5060808201516121f560808501826120fe565b5060a082015161220860a0850182612184565b50505050565b600061221a8383612193565b60c08301905092915050565b6000602082019050919050565b600061223e826120d2565b61224881856120dd565b9350612253836120ee565b8060005b8381101561228457815161226b888261220e565b975061227683612226565b925050600181019050612257565b5085935050505092915050565b600060208201905081810360008301526122ab8184612233565b905092915050565b600060ff82169050919050565b6122c9816122b3565b82525050565b60006020820190506122e460008301846122c0565b92915050565b60008060006060848603121561230357612302611eca565b5b600061231186828701611ef5565b935050602061232286828701611ef5565b925050604061233386828701611ef5565b9150509250925092565b61234681611f57565b82525050565b6000602082019050612361600083018461233d565b92915050565b600081519050919050565b600082825260208201905092915050565b60005b838110156123a1578082015181840152602081019050612386565b838111156123b0576000848401525b50505050565b6000601f19601f8301169050919050565b60006123d282612367565b6123dc8185612372565b93506123ec818560208601612383565b6123f5816123b6565b840191505092915050565b60008115159050919050565b61241581612400565b82525050565b600060a08301600083015161243360008601826120fe565b506020830151612446602086018261210d565b506040830151848203604086015261245e82826123c7565b9150506060830151848203606086015261247882826123c7565b915050608083015161248d608086018261240c565b508091505092915050565b600060208201905081810360008301526124b2818461241b565b905092915050565b6124c381611ed4565b82525050565b6124d281612172565b82525050565b600060c0820190506124ed60008301896124ba565b6124fa60208301886124ba565b612507604083018761233d565b612514606083018661233d565b61252160808301856124ba565b61252e60a08301846124c9565b979650505050505050565b600061254482612084565b9050919050565b61255481612539565b82525050565b600060208201905061256f600083018461254b565b92915050565b60c08201600082015161258b60008501826120fe565b50602082015161259e60208501826120fe565b5060408201516125b1604085018261210d565b5060608201516125c4606085018261210d565b5060808201516125d760808501826120fe565b5060a08201516125ea60a0850182612184565b50505050565b600060c0820190506126056000830184612575565b92915050565b600061261682612084565b9050919050565b6126268161260b565b82525050565b6000602082019050612641600083018461261d565b92915050565b600082825260208201905092915050565b7f4173736574206e6f74207075626c697368656400000000000000000000000000600082015250565b600061268e601383612647565b915061269982612658565b602082019050919050565b600060208201905081810360008301526126bd81612681565b9050919050565b7f41737365742064656c6973746564000000000000000000000000000000000000600082015250565b60006126fa600e83612647565b9150612705826126c4565b602082019050919050565b60006020820190508181036000830152612729816126ed565b9050919050565b7f496e76616c696420616464726573730000000000000000000000000000000000600082015250565b6000612766600f83612647565b915061277182612730565b602082019050919050565b6000602082019050818103600083015261279581612759565b9050919050565b7f4f6e6c792073656c6c65722063616e2064656c69737400000000000000000000600082015250565b60006127d2601683612647565b91506127dd8261279c565b602082019050919050565b60006020820190508181036000830152612801816127c5565b9050919050565b600060608201905061281d600083018661233d565b61282a602083018561233d565b61283760408301846124ba565b949350505050565b600060408201905061285460008301856124ba565b61286160208301846124ba565b9392505050565b7f4f776e61626c653a2063616c6c6572206973206e6f7420746865206f776e6572600082015250565b600061289e602083612647565b91506128a982612868565b602082019050919050565b600060208201905081810360008301526128cd81612891565b9050919050565b7f5072696365206d757374206265206174206c6561737420312077656900000000600082015250565b600061290a601c83612647565b9150612915826128d4565b602082019050919050565b60006020820190508181036000830152612939816128fd565b9050919050565b600060208201905061295560008301846124ba565b92915050565b600080fd5b7f4e487b7100000000000000000000000000000000000000000000000000000000600052604160045260246000fd5b612998826123b6565b810181811067ffffffffffffffff821117156129b7576129b6612960565b5b80604052505050565b60006129ca611ec0565b90506129d6828261298f565b919050565b600080fd5b6000815190506129ef81611ede565b92915050565b600081519050612a0481611f69565b92915050565b600080fd5b600080fd5b600067ffffffffffffffff821115612a2f57612a2e612960565b5b612a38826123b6565b9050602081019050919050565b6000612a58612a5384612a14565b6129c0565b905082815260208101848484011115612a7457612a73612a0f565b5b612a7f848285612383565b509392505050565b600082601f830112612a9c57612a9b612a0a565b5b8151612aac848260208601612a45565b91505092915050565b612abe81612400565b8114612ac957600080fd5b50565b600081519050612adb81612ab5565b92915050565b600060a08284031215612af757612af661295b565b5b612b0160a06129c0565b90506000612b11848285016129e0565b6000830152506020612b25848285016129f5565b602083015250604082015167ffffffffffffffff811115612b4957612b486129db565b5b612b5584828501612a87565b604083015250606082015167ffffffffffffffff811115612b7957612b786129db565b5b612b8584828501612a87565b6060830152506080612b9984828501612acc565b60808301525092915050565b600060208284031215612bbb57612bba611eca565b5b600082015167ffffffffffffffff811115612bd957612bd8611ecf565b5b612be584828501612ae1565b91505092915050565b7f4974656d206973206e6f7420617661696c61626c65206e6f7720210000000000600082015250565b6000612c24601b83612647565b9150612c2f82612bee565b602082019050919050565b60006020820190508181036000830152612c5381612c17565b9050919050565b6000612c6582612084565b9050919050565b612c7581612c5a565b82525050565b6000606082019050612c906000830186612c6c565b612c9d602083018561233d565b612caa60408301846124ba565b949350505050565b7f4e487b7100000000000000000000000000000000000000000000000000000000600052601160045260246000fd5b6000612cec82611ed4565b9150612cf783611ed4565b9250827fffffffffffffffffffffffffffffffffffffffffffffffffffffffffffffffff03821115612d2c57612d2b612cb2565b5b828201905092915050565b6000612d4282611ed4565b91507fffffffffffffffffffffffffffffffffffffffffffffffffffffffffffffffff8203612d7457612d73612cb2565b5b600182019050919050565b7f4e487b7100000000000000000000000000000000000000000000000000000000600052603260045260246000fd5b600060208284031215612dc457612dc3611eca565b5b6000612dd284828501612acc565b91505092915050565b7f506c65617365207375626d6974207468652061736b696e67207072696365206960008201527f6e206f7264657220746f20636f6d706c65746520746865207075726368617365602082015250565b6000612e37604083612647565b9150612e4282612ddb565b604082019050919050565b60006020820190508181036000830152612e6681612e2a565b9050919050565b7f5351460000000000000000000000000000000000000000000000000000000000600082015250565b6000612ea3600383612647565b9150612eae82612e6d565b602082019050919050565b6000608082019050612ece60008301866124ba565b612edb60208301856124ba565b8181036040830152612eec81612e96565b9050612efb60608301846124ba565b949350505050565b7f4f776e61626c653a206e6577206f776e657220697320746865207a65726f206160008201527f6464726573730000000000000000000000000000000000000000000000000000602082015250565b6000612f5f602683612647565b9150612f6a82612f03565b604082019050919050565b60006020820190508181036000830152612f8e81612f52565b905091905056fea2646970667358221220816dd4273b7767f6e848c7f3e10d9dd1f4b2479df99959a3b21495a8f37ede4a64736f6c634300080d0033",
					"opcodes": "PUSH1 0x80 PUSH1 0x40 MSTORE PUSH1 0x40 MLOAD PUSH3 0x328C CODESIZE SUB DUP1 PUSH3 0x328C DUP4 CODECOPY DUP2 DUP2 ADD PUSH1 0x40 MSTORE DUP2 ADD SWAP1 PUSH3 0x29 SWAP2 SWAP1 PUSH3 0x255 JUMP JUMPDEST PUSH1 0x1 PUSH1 0x0 DUP2 SWAP1 SSTORE POP PUSH3 0x51 PUSH3 0x45 PUSH3 0x11D PUSH1 0x20 SHL PUSH1 0x20 SHR JUMP JUMPDEST PUSH3 0x125 PUSH1 0x20 SHL PUSH1 0x20 SHR JUMP JUMPDEST DUP3 PUSH1 0x3 PUSH1 0x0 PUSH2 0x100 EXP DUP2 SLOAD DUP2 PUSH20 0xFFFFFFFFFFFFFFFFFFFFFFFFFFFFFFFFFFFFFFFF MUL NOT AND SWAP1 DUP4 PUSH20 0xFFFFFFFFFFFFFFFFFFFFFFFFFFFFFFFFFFFFFFFF AND MUL OR SWAP1 SSTORE POP DUP2 PUSH1 0x5 PUSH1 0x0 PUSH2 0x100 EXP DUP2 SLOAD DUP2 PUSH20 0xFFFFFFFFFFFFFFFFFFFFFFFFFFFFFFFFFFFFFFFF MUL NOT AND SWAP1 DUP4 PUSH20 0xFFFFFFFFFFFFFFFFFFFFFFFFFFFFFFFFFFFFFFFF AND MUL OR SWAP1 SSTORE POP DUP1 PUSH1 0x4 PUSH1 0x0 PUSH2 0x100 EXP DUP2 SLOAD DUP2 PUSH20 0xFFFFFFFFFFFFFFFFFFFFFFFFFFFFFFFFFFFFFFFF MUL NOT AND SWAP1 DUP4 PUSH20 0xFFFFFFFFFFFFFFFFFFFFFFFFFFFFFFFFFFFFFFFF AND MUL OR SWAP1 SSTORE POP POP POP POP PUSH3 0x2B1 JUMP JUMPDEST PUSH1 0x0 CALLER SWAP1 POP SWAP1 JUMP JUMPDEST PUSH1 0x0 PUSH1 0x6 PUSH1 0x0 SWAP1 SLOAD SWAP1 PUSH2 0x100 EXP SWAP1 DIV PUSH20 0xFFFFFFFFFFFFFFFFFFFFFFFFFFFFFFFFFFFFFFFF AND SWAP1 POP DUP2 PUSH1 0x6 PUSH1 0x0 PUSH2 0x100 EXP DUP2 SLOAD DUP2 PUSH20 0xFFFFFFFFFFFFFFFFFFFFFFFFFFFFFFFFFFFFFFFF MUL NOT AND SWAP1 DUP4 PUSH20 0xFFFFFFFFFFFFFFFFFFFFFFFFFFFFFFFFFFFFFFFF AND MUL OR SWAP1 SSTORE POP DUP2 PUSH20 0xFFFFFFFFFFFFFFFFFFFFFFFFFFFFFFFFFFFFFFFF AND DUP2 PUSH20 0xFFFFFFFFFFFFFFFFFFFFFFFFFFFFFFFFFFFFFFFF AND PUSH32 0x8BE0079C531659141344CD1FD0A4F28419497F9722A3DAAFE3B4186F6B6457E0 PUSH1 0x40 MLOAD PUSH1 0x40 MLOAD DUP1 SWAP2 SUB SWAP1 LOG3 POP POP JUMP JUMPDEST PUSH1 0x0 DUP1 REVERT JUMPDEST PUSH1 0x0 PUSH20 0xFFFFFFFFFFFFFFFFFFFFFFFFFFFFFFFFFFFFFFFF DUP3 AND SWAP1 POP SWAP2 SWAP1 POP JUMP JUMPDEST PUSH1 0x0 PUSH3 0x21D DUP3 PUSH3 0x1F0 JUMP JUMPDEST SWAP1 POP SWAP2 SWAP1 POP JUMP JUMPDEST PUSH3 0x22F DUP2 PUSH3 0x210 JUMP JUMPDEST DUP2 EQ PUSH3 0x23B JUMPI PUSH1 0x0 DUP1 REVERT JUMPDEST POP JUMP JUMPDEST PUSH1 0x0 DUP2 MLOAD SWAP1 POP PUSH3 0x24F DUP2 PUSH3 0x224 JUMP JUMPDEST SWAP3 SWAP2 POP POP JUMP JUMPDEST PUSH1 0x0 DUP1 PUSH1 0x0 PUSH1 0x60 DUP5 DUP7 SUB SLT ISZERO PUSH3 0x271 JUMPI PUSH3 0x270 PUSH3 0x1EB JUMP JUMPDEST JUMPDEST PUSH1 0x0 PUSH3 0x281 DUP7 DUP3 DUP8 ADD PUSH3 0x23E JUMP JUMPDEST SWAP4 POP POP PUSH1 0x20 PUSH3 0x294 DUP7 DUP3 DUP8 ADD PUSH3 0x23E JUMP JUMPDEST SWAP3 POP POP PUSH1 0x40 PUSH3 0x2A7 DUP7 DUP3 DUP8 ADD PUSH3 0x23E JUMP JUMPDEST SWAP2 POP POP SWAP3 POP SWAP3 POP SWAP3 JUMP JUMPDEST PUSH2 0x2FCB DUP1 PUSH3 0x2C1 PUSH1 0x0 CODECOPY PUSH1 0x0 RETURN INVALID PUSH1 0x80 PUSH1 0x40 MSTORE CALLVALUE DUP1 ISZERO PUSH2 0x10 JUMPI PUSH1 0x0 DUP1 REVERT JUMPDEST POP PUSH1 0x4 CALLDATASIZE LT PUSH2 0x142 JUMPI PUSH1 0x0 CALLDATALOAD PUSH1 0xE0 SHR DUP1 PUSH4 0x8DA5CB5B GT PUSH2 0xB8 JUMPI DUP1 PUSH4 0xC45A0155 GT PUSH2 0x7C JUMPI DUP1 PUSH4 0xC45A0155 EQ PUSH2 0x32E JUMPI DUP1 PUSH4 0xC7BE7A49 EQ PUSH2 0x34C JUMPI DUP1 PUSH4 0xE78E717D EQ PUSH2 0x37C JUMPI DUP1 PUSH4 0xF2FDE38B EQ PUSH2 0x398 JUMPI DUP1 PUSH4 0xF55DE0C7 EQ PUSH2 0x3B4 JUMPI DUP1 PUSH4 0xFF68FA6E EQ PUSH2 0x3D2 JUMPI PUSH2 0x142 JUMP JUMPDEST DUP1 PUSH4 0x8DA5CB5B EQ PUSH2 0x271 JUMPI DUP1 PUSH4 0xA1C11CA8 EQ PUSH2 0x28F JUMPI DUP1 PUSH4 0xAEAF8CC2 EQ PUSH2 0x2AB JUMPI DUP1 PUSH4 0xB7A60C7E EQ PUSH2 0x2DB JUMPI DUP1 PUSH4 0xBFB231D2 EQ PUSH2 0x2F9 JUMPI PUSH2 0x142 JUMP JUMPDEST DUP1 PUSH4 0x3FC15F15 GT PUSH2 0x10A JUMPI DUP1 PUSH4 0x3FC15F15 EQ PUSH2 0x1D5 JUMPI DUP1 PUSH4 0x42199F88 EQ PUSH2 0x1F3 JUMPI DUP1 PUSH4 0x5BB47808 EQ PUSH2 0x211 JUMPI DUP1 PUSH4 0x715018A6 EQ PUSH2 0x22D JUMPI DUP1 PUSH4 0x85A8B36C EQ PUSH2 0x237 JUMPI DUP1 PUSH4 0x8C0FB1C3 EQ PUSH2 0x255 JUMPI PUSH2 0x142 JUMP JUMPDEST DUP1 PUSH4 0x10061631 EQ PUSH2 0x147 JUMPI DUP1 PUSH4 0x15B12494 EQ PUSH2 0x163 JUMPI DUP1 PUSH4 0x27CE464E EQ PUSH2 0x17F JUMPI DUP1 PUSH4 0x2B4C32BE EQ PUSH2 0x19B JUMPI DUP1 PUSH4 0x361C1995 EQ PUSH2 0x1B9 JUMPI JUMPDEST PUSH1 0x0 DUP1 REVERT JUMPDEST PUSH2 0x161 PUSH1 0x4 DUP1 CALLDATASIZE SUB DUP2 ADD SWAP1 PUSH2 0x15C SWAP2 SWAP1 PUSH2 0x1F0A JUMP JUMPDEST PUSH2 0x407 JUMP JUMPDEST STOP JUMPDEST PUSH2 0x17D PUSH1 0x4 DUP1 CALLDATASIZE SUB DUP2 ADD SWAP1 PUSH2 0x178 SWAP2 SWAP1 PUSH2 0x1F95 JUMP JUMPDEST PUSH2 0x877 JUMP JUMPDEST STOP JUMPDEST PUSH2 0x199 PUSH1 0x4 DUP1 CALLDATASIZE SUB DUP2 ADD SWAP1 PUSH2 0x194 SWAP2 SWAP1 PUSH2 0x1F95 JUMP JUMPDEST PUSH2 0x937 JUMP JUMPDEST STOP JUMPDEST PUSH2 0x1A3 PUSH2 0x9F7 JUMP JUMPDEST PUSH1 0x40 MLOAD PUSH2 0x1B0 SWAP2 SWAP1 PUSH2 0x1FFD JUMP JUMPDEST PUSH1 0x40 MLOAD DUP1 SWAP2 SUB SWAP1 RETURN JUMPDEST PUSH2 0x1D3 PUSH1 0x4 DUP1 CALLDATASIZE SUB DUP2 ADD SWAP1 PUSH2 0x1CE SWAP2 SWAP1 PUSH2 0x2018 JUMP JUMPDEST PUSH2 0xA02 JUMP JUMPDEST STOP JUMPDEST PUSH2 0x1DD PUSH2 0xE0F JUMP JUMPDEST PUSH1 0x40 MLOAD PUSH2 0x1EA SWAP2 SWAP1 PUSH2 0x20B7 JUMP JUMPDEST PUSH1 0x40 MLOAD DUP1 SWAP2 SUB SWAP1 RETURN JUMPDEST PUSH2 0x1FB PUSH2 0xE35 JUMP JUMPDEST PUSH1 0x40 MLOAD PUSH2 0x208 SWAP2 SWAP1 PUSH2 0x2291 JUMP JUMPDEST PUSH1 0x40 MLOAD DUP1 SWAP2 SUB SWAP1 RETURN JUMPDEST PUSH2 0x22B PUSH1 0x4 DUP1 CALLDATASIZE SUB DUP2 ADD SWAP1 PUSH2 0x226 SWAP2 SWAP1 PUSH2 0x1F95 JUMP JUMPDEST PUSH2 0x1107 JUMP JUMPDEST STOP JUMPDEST PUSH2 0x235 PUSH2 0x11C7 JUMP JUMPDEST STOP JUMPDEST PUSH2 0x23F PUSH2 0x124F JUMP JUMPDEST PUSH1 0x40 MLOAD PUSH2 0x24C SWAP2 SWAP1 PUSH2 0x22CF JUMP JUMPDEST PUSH1 0x40 MLOAD DUP1 SWAP2 SUB SWAP1 RETURN JUMPDEST PUSH2 0x26F PUSH1 0x4 DUP1 CALLDATASIZE SUB DUP2 ADD SWAP1 PUSH2 0x26A SWAP2 SWAP1 PUSH2 0x22EA JUMP JUMPDEST PUSH2 0x1262 JUMP JUMPDEST STOP JUMPDEST PUSH2 0x279 PUSH2 0x1462 JUMP JUMPDEST PUSH1 0x40 MLOAD PUSH2 0x286 SWAP2 SWAP1 PUSH2 0x234C JUMP JUMPDEST PUSH1 0x40 MLOAD DUP1 SWAP2 SUB SWAP1 RETURN JUMPDEST PUSH2 0x2A9 PUSH1 0x4 DUP1 CALLDATASIZE SUB DUP2 ADD SWAP1 PUSH2 0x2A4 SWAP2 SWAP1 PUSH2 0x2018 JUMP JUMPDEST PUSH2 0x148C JUMP JUMPDEST STOP JUMPDEST PUSH2 0x2C5 PUSH1 0x4 DUP1 CALLDATASIZE SUB DUP2 ADD SWAP1 PUSH2 0x2C0 SWAP2 SWAP1 PUSH2 0x2018 JUMP JUMPDEST PUSH2 0x174A JUMP JUMPDEST PUSH1 0x40 MLOAD PUSH2 0x2D2 SWAP2 SWAP1 PUSH2 0x2498 JUMP JUMPDEST PUSH1 0x40 MLOAD DUP1 SWAP2 SUB SWAP1 RETURN JUMPDEST PUSH2 0x2E3 PUSH2 0x1844 JUMP JUMPDEST PUSH1 0x40 MLOAD PUSH2 0x2F0 SWAP2 SWAP1 PUSH2 0x22CF JUMP JUMPDEST PUSH1 0x40 MLOAD DUP1 SWAP2 SUB SWAP1 RETURN JUMPDEST PUSH2 0x313 PUSH1 0x4 DUP1 CALLDATASIZE SUB DUP2 ADD SWAP1 PUSH2 0x30E SWAP2 SWAP1 PUSH2 0x1F0A JUMP JUMPDEST PUSH2 0x1857 JUMP JUMPDEST PUSH1 0x40 MLOAD PUSH2 0x325 SWAP7 SWAP6 SWAP5 SWAP4 SWAP3 SWAP2 SWAP1 PUSH2 0x24D8 JUMP JUMPDEST PUSH1 0x40 MLOAD DUP1 SWAP2 SUB SWAP1 RETURN JUMPDEST PUSH2 0x336 PUSH2 0x18F0 JUMP JUMPDEST PUSH1 0x40 MLOAD PUSH2 0x343 SWAP2 SWAP1 PUSH2 0x255A JUMP JUMPDEST PUSH1 0x40 MLOAD DUP1 SWAP2 SUB SWAP1 RETURN JUMPDEST PUSH2 0x366 PUSH1 0x4 DUP1 CALLDATASIZE SUB DUP2 ADD SWAP1 PUSH2 0x361 SWAP2 SWAP1 PUSH2 0x1F0A JUMP JUMPDEST PUSH2 0x1916 JUMP JUMPDEST PUSH1 0x40 MLOAD PUSH2 0x373 SWAP2 SWAP1 PUSH2 0x25F0 JUMP JUMPDEST PUSH1 0x40 MLOAD DUP1 SWAP2 SUB SWAP1 RETURN JUMPDEST PUSH2 0x396 PUSH1 0x4 DUP1 CALLDATASIZE SUB DUP2 ADD SWAP1 PUSH2 0x391 SWAP2 SWAP1 PUSH2 0x1F0A JUMP JUMPDEST PUSH2 0x1A48 JUMP JUMPDEST STOP JUMPDEST PUSH2 0x3B2 PUSH1 0x4 DUP1 CALLDATASIZE SUB DUP2 ADD SWAP1 PUSH2 0x3AD SWAP2 SWAP1 PUSH2 0x1F95 JUMP JUMPDEST PUSH2 0x1B6D JUMP JUMPDEST STOP JUMPDEST PUSH2 0x3BC PUSH2 0x1C64 JUMP JUMPDEST PUSH1 0x40 MLOAD PUSH2 0x3C9 SWAP2 SWAP1 PUSH2 0x262C JUMP JUMPDEST PUSH1 0x40 MLOAD DUP1 SWAP2 SUB SWAP1 RETURN JUMPDEST PUSH2 0x3EC PUSH1 0x4 DUP1 CALLDATASIZE SUB DUP2 ADD SWAP1 PUSH2 0x3E7 SWAP2 SWAP1 PUSH2 0x1F0A JUMP JUMPDEST PUSH2 0x1C8A JUMP JUMPDEST PUSH1 0x40 MLOAD PUSH2 0x3FE SWAP7 SWAP6 SWAP5 SWAP4 SWAP3 SWAP2 SWAP1 PUSH2 0x24D8 JUMP JUMPDEST PUSH1 0x40 MLOAD DUP1 SWAP2 SUB SWAP1 RETURN JUMPDEST PUSH1 0x0 CALLER SWAP1 POP PUSH1 0x0 PUSH1 0x9 PUSH1 0x0 DUP5 DUP2 MSTORE PUSH1 0x20 ADD SWAP1 DUP2 MSTORE PUSH1 0x20 ADD PUSH1 0x0 KECCAK256 PUSH1 0x40 MLOAD DUP1 PUSH1 0xC0 ADD PUSH1 0x40 MSTORE SWAP1 DUP2 PUSH1 0x0 DUP3 ADD SLOAD DUP2 MSTORE PUSH1 0x20 ADD PUSH1 0x1 DUP3 ADD SLOAD DUP2 MSTORE PUSH1 0x20 ADD PUSH1 0x2 DUP3 ADD PUSH1 0x0 SWAP1 SLOAD SWAP1 PUSH2 0x100 EXP SWAP1 DIV PUSH20 0xFFFFFFFFFFFFFFFFFFFFFFFFFFFFFFFFFFFFFFFF AND PUSH20 0xFFFFFFFFFFFFFFFFFFFFFFFFFFFFFFFFFFFFFFFF AND PUSH20 0xFFFFFFFFFFFFFFFFFFFFFFFFFFFFFFFFFFFFFFFF AND DUP2 MSTORE PUSH1 0x20 ADD PUSH1 0x3 DUP3 ADD PUSH1 0x0 SWAP1 SLOAD SWAP1 PUSH2 0x100 EXP SWAP1 DIV PUSH20 0xFFFFFFFFFFFFFFFFFFFFFFFFFFFFFFFFFFFFFFFF AND PUSH20 0xFFFFFFFFFFFFFFFFFFFFFFFFFFFFFFFFFFFFFFFF AND PUSH20 0xFFFFFFFFFFFFFFFFFFFFFFFFFFFFFFFFFFFFFFFF AND DUP2 MSTORE PUSH1 0x20 ADD PUSH1 0x4 DUP3 ADD SLOAD DUP2 MSTORE PUSH1 0x20 ADD PUSH1 0x5 DUP3 ADD PUSH1 0x0 SWAP1 SLOAD SWAP1 PUSH2 0x100 EXP SWAP1 DIV PUSH1 0xFF AND PUSH1 0x1 DUP2 GT ISZERO PUSH2 0x51B JUMPI PUSH2 0x51A PUSH2 0x211C JUMP JUMPDEST JUMPDEST PUSH1 0x1 DUP2 GT ISZERO PUSH2 0x52D JUMPI PUSH2 0x52C PUSH2 0x211C JUMP JUMPDEST JUMPDEST DUP2 MSTORE POP POP SWAP1 POP PUSH1 0x0 DUP2 PUSH1 0x0 ADD MLOAD SUB PUSH2 0x57A JUMPI PUSH1 0x40 MLOAD PUSH32 0x8C379A000000000000000000000000000000000000000000000000000000000 DUP2 MSTORE PUSH1 0x4 ADD PUSH2 0x571 SWAP1 PUSH2 0x26A4 JUMP JUMPDEST PUSH1 0x40 MLOAD DUP1 SWAP2 SUB SWAP1 REVERT JUMPDEST PUSH1 0x1 DUP1 DUP2 GT ISZERO PUSH2 0x58D JUMPI PUSH2 0x58C PUSH2 0x211C JUMP JUMPDEST JUMPDEST DUP2 PUSH1 0xA0 ADD MLOAD PUSH1 0x1 DUP2 GT ISZERO PUSH2 0x5A4 JUMPI PUSH2 0x5A3 PUSH2 0x211C JUMP JUMPDEST JUMPDEST EQ PUSH2 0x5E4 JUMPI PUSH1 0x40 MLOAD PUSH32 0x8C379A000000000000000000000000000000000000000000000000000000000 DUP2 MSTORE PUSH1 0x4 ADD PUSH2 0x5DB SWAP1 PUSH2 0x2710 JUMP JUMPDEST PUSH1 0x40 MLOAD DUP1 SWAP2 SUB SWAP1 REVERT JUMPDEST PUSH1 0x0 DUP2 PUSH1 0x40 ADD MLOAD SWAP1 POP PUSH1 0x0 PUSH20 0xFFFFFFFFFFFFFFFFFFFFFFFFFFFFFFFFFFFFFFFF AND DUP2 PUSH20 0xFFFFFFFFFFFFFFFFFFFFFFFFFFFFFFFFFFFFFFFF AND SUB PUSH2 0x65C JUMPI PUSH1 0x40 MLOAD PUSH32 0x8C379A000000000000000000000000000000000000000000000000000000000 DUP2 MSTORE PUSH1 0x4 ADD PUSH2 0x653 SWAP1 PUSH2 0x277C JUMP JUMPDEST PUSH1 0x40 MLOAD DUP1 SWAP2 SUB SWAP1 REVERT JUMPDEST CALLER PUSH20 0xFFFFFFFFFFFFFFFFFFFFFFFFFFFFFFFFFFFFFFFF AND DUP2 PUSH20 0xFFFFFFFFFFFFFFFFFFFFFFFFFFFFFFFFFFFFFFFF AND EQ PUSH2 0x6CA JUMPI PUSH1 0x40 MLOAD PUSH32 0x8C379A000000000000000000000000000000000000000000000000000000000 DUP2 MSTORE PUSH1 0x4 ADD PUSH2 0x6C1 SWAP1 PUSH2 0x27E8 JUMP JUMPDEST PUSH1 0x40 MLOAD DUP1 SWAP2 SUB SWAP1 REVERT JUMPDEST PUSH1 0x5 PUSH1 0x0 SWAP1 SLOAD SWAP1 PUSH2 0x100 EXP SWAP1 DIV PUSH20 0xFFFFFFFFFFFFFFFFFFFFFFFFFFFFFFFFFFFFFFFF AND PUSH20 0xFFFFFFFFFFFFFFFFFFFFFFFFFFFFFFFFFFFFFFFF AND PUSH4 0x42842E0E ADDRESS DUP4 DUP8 PUSH1 0x40 MLOAD DUP5 PUSH4 0xFFFFFFFF AND PUSH1 0xE0 SHL DUP2 MSTORE PUSH1 0x4 ADD PUSH2 0x729 SWAP4 SWAP3 SWAP2 SWAP1 PUSH2 0x2808 JUMP JUMPDEST PUSH1 0x0 PUSH1 0x40 MLOAD DUP1 DUP4 SUB DUP2 PUSH1 0x0 DUP8 DUP1 EXTCODESIZE ISZERO DUP1 ISZERO PUSH2 0x743 JUMPI PUSH1 0x0 DUP1 REVERT JUMPDEST POP GAS CALL ISZERO DUP1 ISZERO PUSH2 0x757 JUMPI RETURNDATASIZE PUSH1 0x0 DUP1 RETURNDATACOPY RETURNDATASIZE PUSH1 0x0 REVERT JUMPDEST POP POP POP POP PUSH1 0x0 DUP3 PUSH1 0xA0 ADD SWAP1 PUSH1 0x1 DUP2 GT ISZERO PUSH2 0x774 JUMPI PUSH2 0x773 PUSH2 0x211C JUMP JUMPDEST JUMPDEST SWAP1 DUP2 PUSH1 0x1 DUP2 GT ISZERO PUSH2 0x788 JUMPI PUSH2 0x787 PUSH2 0x211C JUMP JUMPDEST JUMPDEST DUP2 MSTORE POP POP PUSH1 0x9 PUSH1 0x0 DUP6 DUP2 MSTORE PUSH1 0x20 ADD SWAP1 DUP2 MSTORE PUSH1 0x20 ADD PUSH1 0x0 KECCAK256 PUSH1 0x0 DUP1 DUP3 ADD PUSH1 0x0 SWAP1 SSTORE PUSH1 0x1 DUP3 ADD PUSH1 0x0 SWAP1 SSTORE PUSH1 0x2 DUP3 ADD PUSH1 0x0 PUSH2 0x100 EXP DUP2 SLOAD SWAP1 PUSH20 0xFFFFFFFFFFFFFFFFFFFFFFFFFFFFFFFFFFFFFFFF MUL NOT AND SWAP1 SSTORE PUSH1 0x3 DUP3 ADD PUSH1 0x0 PUSH2 0x100 EXP DUP2 SLOAD SWAP1 PUSH20 0xFFFFFFFFFFFFFFFFFFFFFFFFFFFFFFFFFFFFFFFF MUL NOT AND SWAP1 SSTORE PUSH1 0x4 DUP3 ADD PUSH1 0x0 SWAP1 SSTORE PUSH1 0x5 DUP3 ADD PUSH1 0x0 PUSH2 0x100 EXP DUP2 SLOAD SWAP1 PUSH1 0xFF MUL NOT AND SWAP1 SSTORE POP POP DUP3 PUSH20 0xFFFFFFFFFFFFFFFFFFFFFFFFFFFFFFFFFFFFFFFF AND DUP5 PUSH32 0x72FFC2A266ACBA5F77E2B49400103CB61B428F37A97057EBE671E83FDDD71E67 DUP5 PUSH1 0x0 ADD MLOAD TIMESTAMP PUSH1 0x40 MLOAD PUSH2 0x869 SWAP3 SWAP2 SWAP1 PUSH2 0x283F JUMP JUMPDEST PUSH1 0x40 MLOAD DUP1 SWAP2 SUB SWAP1 LOG3 POP POP POP POP JUMP JUMPDEST PUSH2 0x87F PUSH2 0x1D13 JUMP JUMPDEST PUSH20 0xFFFFFFFFFFFFFFFFFFFFFFFFFFFFFFFFFFFFFFFF AND PUSH2 0x89D PUSH2 0x1462 JUMP JUMPDEST PUSH20 0xFFFFFFFFFFFFFFFFFFFFFFFFFFFFFFFFFFFFFFFF AND EQ PUSH2 0x8F3 JUMPI PUSH1 0x40 MLOAD PUSH32 0x8C379A000000000000000000000000000000000000000000000000000000000 DUP2 MSTORE PUSH1 0x4 ADD PUSH2 0x8EA SWAP1 PUSH2 0x28B4 JUMP JUMPDEST PUSH1 0x40 MLOAD DUP1 SWAP2 SUB SWAP1 REVERT JUMPDEST DUP1 PUSH1 0x5 PUSH1 0x0 PUSH2 0x100 EXP DUP2 SLOAD DUP2 PUSH20 0xFFFFFFFFFFFFFFFFFFFFFFFFFFFFFFFFFFFFFFFF MUL NOT AND SWAP1 DUP4 PUSH20 0xFFFFFFFFFFFFFFFFFFFFFFFFFFFFFFFFFFFFFFFF AND MUL OR SWAP1 SSTORE POP POP JUMP JUMPDEST PUSH2 0x93F PUSH2 0x1D13 JUMP JUMPDEST PUSH20 0xFFFFFFFFFFFFFFFFFFFFFFFFFFFFFFFFFFFFFFFF AND PUSH2 0x95D PUSH2 0x1462 JUMP JUMPDEST PUSH20 0xFFFFFFFFFFFFFFFFFFFFFFFFFFFFFFFFFFFFFFFF AND EQ PUSH2 0x9B3 JUMPI PUSH1 0x40 MLOAD PUSH32 0x8C379A000000000000000000000000000000000000000000000000000000000 DUP2 MSTORE PUSH1 0x4 ADD PUSH2 0x9AA SWAP1 PUSH2 0x28B4 JUMP JUMPDEST PUSH1 0x40 MLOAD DUP1 SWAP2 SUB SWAP1 REVERT JUMPDEST DUP1 PUSH1 0x3 PUSH1 0x0 PUSH2 0x100 EXP DUP2 SLOAD DUP2 PUSH20 0xFFFFFFFFFFFFFFFFFFFFFFFFFFFFFFFFFFFFFFFF MUL NOT AND SWAP1 DUP4 PUSH20 0xFFFFFFFFFFFFFFFFFFFFFFFFFFFFFFFFFFFFFFFF AND MUL OR SWAP1 SSTORE POP POP JUMP JUMPDEST PUSH4 0x80AC58CD PUSH1 0xE0 SHL DUP2 JUMP JUMPDEST PUSH1 0x0 DUP2 GT PUSH2 0xA45 JUMPI PUSH1 0x40 MLOAD PUSH32 0x8C379A000000000000000000000000000000000000000000000000000000000 DUP2 MSTORE PUSH1 0x4 ADD PUSH2 0xA3C SWAP1 PUSH2 0x2920 JUMP JUMPDEST PUSH1 0x40 MLOAD DUP1 SWAP2 SUB SWAP1 REVERT JUMPDEST PUSH1 0x0 PUSH1 0x4 PUSH1 0x0 SWAP1 SLOAD SWAP1 PUSH2 0x100 EXP SWAP1 DIV PUSH20 0xFFFFFFFFFFFFFFFFFFFFFFFFFFFFFFFFFFFFFFFF AND PUSH20 0xFFFFFFFFFFFFFFFFFFFFFFFFFFFFFFFFFFFFFFFF AND PUSH4 0x3CE1CB5 DUP5 PUSH1 0x40 MLOAD DUP3 PUSH4 0xFFFFFFFF AND PUSH1 0xE0 SHL DUP2 MSTORE PUSH1 0x4 ADD PUSH2 0xAA2 SWAP2 SWAP1 PUSH2 0x2940 JUMP JUMPDEST PUSH1 0x0 PUSH1 0x40 MLOAD DUP1 DUP4 SUB DUP2 DUP7 GAS STATICCALL ISZERO DUP1 ISZERO PUSH2 0xABF JUMPI RETURNDATASIZE PUSH1 0x0 DUP1 RETURNDATACOPY RETURNDATASIZE PUSH1 0x0 REVERT JUMPDEST POP POP POP POP PUSH1 0x40 MLOAD RETURNDATASIZE PUSH1 0x0 DUP3 RETURNDATACOPY RETURNDATASIZE PUSH1 0x1F NOT PUSH1 0x1F DUP3 ADD AND DUP3 ADD DUP1 PUSH1 0x40 MSTORE POP DUP2 ADD SWAP1 PUSH2 0xAE8 SWAP2 SWAP1 PUSH2 0x2BA5 JUMP JUMPDEST SWAP1 POP PUSH1 0x0 ISZERO ISZERO DUP2 PUSH1 0x80 ADD MLOAD ISZERO ISZERO EQ PUSH2 0xB35 JUMPI PUSH1 0x40 MLOAD PUSH32 0x8C379A000000000000000000000000000000000000000000000000000000000 DUP2 MSTORE PUSH1 0x4 ADD PUSH2 0xB2C SWAP1 PUSH2 0x2C3A JUMP JUMPDEST PUSH1 0x40 MLOAD DUP1 SWAP2 SUB SWAP1 REVERT JUMPDEST PUSH1 0x0 PUSH2 0xB41 PUSH1 0x7 PUSH2 0x1D1B JUMP JUMPDEST SWAP1 POP PUSH1 0x4 PUSH1 0x0 SWAP1 SLOAD SWAP1 PUSH2 0x100 EXP SWAP1 DIV PUSH20 0xFFFFFFFFFFFFFFFFFFFFFFFFFFFFFFFFFFFFFFFF AND PUSH20 0xFFFFFFFFFFFFFFFFFFFFFFFFFFFFFFFFFFFFFFFF AND PUSH4 0xC1E9518A CALLER ADDRESS DUP8 PUSH1 0x40 MLOAD DUP5 PUSH4 0xFFFFFFFF AND PUSH1 0xE0 SHL DUP2 MSTORE PUSH1 0x4 ADD PUSH2 0xBA2 SWAP4 SWAP3 SWAP2 SWAP1 PUSH2 0x2C7B JUMP JUMPDEST PUSH1 0x0 PUSH1 0x40 MLOAD DUP1 DUP4 SUB DUP2 PUSH1 0x0 DUP8 DUP1 EXTCODESIZE ISZERO DUP1 ISZERO PUSH2 0xBBC JUMPI PUSH1 0x0 DUP1 REVERT JUMPDEST POP GAS CALL ISZERO DUP1 ISZERO PUSH2 0xBD0 JUMPI RETURNDATASIZE PUSH1 0x0 DUP1 RETURNDATACOPY RETURNDATASIZE PUSH1 0x0 REVERT JUMPDEST POP POP POP POP PUSH1 0x5 PUSH1 0x0 SWAP1 SLOAD SWAP1 PUSH2 0x100 EXP SWAP1 DIV PUSH20 0xFFFFFFFFFFFFFFFFFFFFFFFFFFFFFFFFFFFFFFFF AND PUSH20 0xFFFFFFFFFFFFFFFFFFFFFFFFFFFFFFFFFFFFFFFF AND PUSH4 0x23B872DD CALLER ADDRESS DUP8 PUSH1 0x40 MLOAD DUP5 PUSH4 0xFFFFFFFF AND PUSH1 0xE0 SHL DUP2 MSTORE PUSH1 0x4 ADD PUSH2 0xC33 SWAP4 SWAP3 SWAP2 SWAP1 PUSH2 0x2808 JUMP JUMPDEST PUSH1 0x0 PUSH1 0x40 MLOAD DUP1 DUP4 SUB DUP2 PUSH1 0x0 DUP8 DUP1 EXTCODESIZE ISZERO DUP1 ISZERO PUSH2 0xC4D JUMPI PUSH1 0x0 DUP1 REVERT JUMPDEST POP GAS CALL ISZERO DUP1 ISZERO PUSH2 0xC61 JUMPI RETURNDATASIZE PUSH1 0x0 DUP1 RETURNDATACOPY RETURNDATASIZE PUSH1 0x0 REVERT JUMPDEST POP POP POP POP PUSH1 0x40 MLOAD DUP1 PUSH1 0xC0 ADD PUSH1 0x40 MSTORE DUP1 DUP3 DUP2 MSTORE PUSH1 0x20 ADD DUP6 DUP2 MSTORE PUSH1 0x20 ADD CALLER PUSH20 0xFFFFFFFFFFFFFFFFFFFFFFFFFFFFFFFFFFFFFFFF AND DUP2 MSTORE PUSH1 0x20 ADD ADDRESS PUSH20 0xFFFFFFFFFFFFFFFFFFFFFFFFFFFFFFFFFFFFFFFF AND DUP2 MSTORE PUSH1 0x20 ADD DUP5 DUP2 MSTORE PUSH1 0x20 ADD PUSH1 0x1 DUP1 DUP2 GT ISZERO PUSH2 0xCCD JUMPI PUSH2 0xCCC PUSH2 0x211C JUMP JUMPDEST JUMPDEST DUP2 MSTORE POP PUSH1 0x9 PUSH1 0x0 DUP4 DUP2 MSTORE PUSH1 0x20 ADD SWAP1 DUP2 MSTORE PUSH1 0x20 ADD PUSH1 0x0 KECCAK256 PUSH1 0x0 DUP3 ADD MLOAD DUP2 PUSH1 0x0 ADD SSTORE PUSH1 0x20 DUP3 ADD MLOAD DUP2 PUSH1 0x1 ADD SSTORE PUSH1 0x40 DUP3 ADD MLOAD DUP2 PUSH1 0x2 ADD PUSH1 0x0 PUSH2 0x100 EXP DUP2 SLOAD DUP2 PUSH20 0xFFFFFFFFFFFFFFFFFFFFFFFFFFFFFFFFFFFFFFFF MUL NOT AND SWAP1 DUP4 PUSH20 0xFFFFFFFFFFFFFFFFFFFFFFFFFFFFFFFFFFFFFFFF AND MUL OR SWAP1 SSTORE POP PUSH1 0x60 DUP3 ADD MLOAD DUP2 PUSH1 0x3 ADD PUSH1 0x0 PUSH2 0x100 EXP DUP2 SLOAD DUP2 PUSH20 0xFFFFFFFFFFFFFFFFFFFFFFFFFFFFFFFFFFFFFFFF MUL NOT AND SWAP1 DUP4 PUSH20 0xFFFFFFFFFFFFFFFFFFFFFFFFFFFFFFFFFFFFFFFF AND MUL OR SWAP1 SSTORE POP PUSH1 0x80 DUP3 ADD MLOAD DUP2 PUSH1 0x4 ADD SSTORE PUSH1 0xA0 DUP3 ADD MLOAD DUP2 PUSH1 0x5 ADD PUSH1 0x0 PUSH2 0x100 EXP DUP2 SLOAD DUP2 PUSH1 0xFF MUL NOT AND SWAP1 DUP4 PUSH1 0x1 DUP2 GT ISZERO PUSH2 0xDBA JUMPI PUSH2 0xDB9 PUSH2 0x211C JUMP JUMPDEST JUMPDEST MUL OR SWAP1 SSTORE POP SWAP1 POP POP PUSH2 0xDCC PUSH1 0x7 PUSH2 0x1D29 JUMP JUMPDEST DUP4 DUP2 PUSH32 0x38690A554FFBC44EB6A75016E47D517D0DB8E6C37494ADC68D6D0B2C66F0AB21 CALLER ADDRESS DUP8 PUSH1 0x40 MLOAD PUSH2 0xE01 SWAP4 SWAP3 SWAP2 SWAP1 PUSH2 0x2808 JUMP JUMPDEST PUSH1 0x40 MLOAD DUP1 SWAP2 SUB SWAP1 LOG3 POP POP POP POP JUMP JUMPDEST PUSH1 0x3 PUSH1 0x0 SWAP1 SLOAD SWAP1 PUSH2 0x100 EXP SWAP1 DIV PUSH20 0xFFFFFFFFFFFFFFFFFFFFFFFFFFFFFFFFFFFFFFFF AND DUP2 JUMP JUMPDEST PUSH1 0x60 PUSH1 0x0 PUSH2 0xE43 PUSH1 0x7 PUSH2 0x1D1B JUMP JUMPDEST SWAP1 POP PUSH1 0x0 DUP1 PUSH1 0x0 JUMPDEST DUP4 DUP2 LT ISZERO PUSH2 0xEC4 JUMPI PUSH1 0x1 DUP1 DUP2 GT ISZERO PUSH2 0xE66 JUMPI PUSH2 0xE65 PUSH2 0x211C JUMP JUMPDEST JUMPDEST PUSH1 0x9 PUSH1 0x0 DUP4 DUP2 MSTORE PUSH1 0x20 ADD SWAP1 DUP2 MSTORE PUSH1 0x20 ADD PUSH1 0x0 KECCAK256 PUSH1 0x5 ADD PUSH1 0x0 SWAP1 SLOAD SWAP1 PUSH2 0x100 EXP SWAP1 DIV PUSH1 0xFF AND PUSH1 0x1 DUP2 GT ISZERO PUSH2 0xE9C JUMPI PUSH2 0xE9B PUSH2 0x211C JUMP JUMPDEST JUMPDEST SUB PUSH2 0xEB1 JUMPI PUSH1 0x1 DUP4 PUSH2 0xEAE SWAP2 SWAP1 PUSH2 0x2CE1 JUMP JUMPDEST SWAP3 POP JUMPDEST DUP1 DUP1 PUSH2 0xEBC SWAP1 PUSH2 0x2D37 JUMP JUMPDEST SWAP2 POP POP PUSH2 0xE4B JUMP JUMPDEST POP PUSH1 0x0 DUP3 PUSH8 0xFFFFFFFFFFFFFFFF DUP2 GT ISZERO PUSH2 0xEE1 JUMPI PUSH2 0xEE0 PUSH2 0x2960 JUMP JUMPDEST JUMPDEST PUSH1 0x40 MLOAD SWAP1 DUP1 DUP3 MSTORE DUP1 PUSH1 0x20 MUL PUSH1 0x20 ADD DUP3 ADD PUSH1 0x40 MSTORE DUP1 ISZERO PUSH2 0xF1A JUMPI DUP2 PUSH1 0x20 ADD JUMPDEST PUSH2 0xF07 PUSH2 0x1E05 JUMP JUMPDEST DUP2 MSTORE PUSH1 0x20 ADD SWAP1 PUSH1 0x1 SWAP1 SUB SWAP1 DUP2 PUSH2 0xEFF JUMPI SWAP1 POP JUMPDEST POP SWAP1 POP PUSH1 0x0 JUMPDEST DUP5 DUP2 LT ISZERO PUSH2 0x10FC JUMPI PUSH1 0x1 DUP1 DUP2 GT ISZERO PUSH2 0xF3B JUMPI PUSH2 0xF3A PUSH2 0x211C JUMP JUMPDEST JUMPDEST PUSH1 0x9 PUSH1 0x0 DUP4 DUP2 MSTORE PUSH1 0x20 ADD SWAP1 DUP2 MSTORE PUSH1 0x20 ADD PUSH1 0x0 KECCAK256 PUSH1 0x5 ADD PUSH1 0x0 SWAP1 SLOAD SWAP1 PUSH2 0x100 EXP SWAP1 DIV PUSH1 0xFF AND PUSH1 0x1 DUP2 GT ISZERO PUSH2 0xF71 JUMPI PUSH2 0xF70 PUSH2 0x211C JUMP JUMPDEST JUMPDEST SUB PUSH2 0x10E9 JUMPI PUSH1 0x0 PUSH1 0x9 PUSH1 0x0 DUP4 DUP2 MSTORE PUSH1 0x20 ADD SWAP1 DUP2 MSTORE PUSH1 0x20 ADD PUSH1 0x0 KECCAK256 PUSH1 0x0 ADD SLOAD SWAP1 POP PUSH1 0x0 PUSH1 0x9 PUSH1 0x0 DUP4 DUP2 MSTORE PUSH1 0x20 ADD SWAP1 DUP2 MSTORE PUSH1 0x20 ADD PUSH1 0x0 KECCAK256 SWAP1 POP DUP1 PUSH1 0x40 MLOAD DUP1 PUSH1 0xC0 ADD PUSH1 0x40 MSTORE SWAP1 DUP2 PUSH1 0x0 DUP3 ADD SLOAD DUP2 MSTORE PUSH1 0x20 ADD PUSH1 0x1 DUP3 ADD SLOAD DUP2 MSTORE PUSH1 0x20 ADD PUSH1 0x2 DUP3 ADD PUSH1 0x0 SWAP1 SLOAD SWAP1 PUSH2 0x100 EXP SWAP1 DIV PUSH20 0xFFFFFFFFFFFFFFFFFFFFFFFFFFFFFFFFFFFFFFFF AND PUSH20 0xFFFFFFFFFFFFFFFFFFFFFFFFFFFFFFFFFFFFFFFF AND PUSH20 0xFFFFFFFFFFFFFFFFFFFFFFFFFFFFFFFFFFFFFFFF AND DUP2 MSTORE PUSH1 0x20 ADD PUSH1 0x3 DUP3 ADD PUSH1 0x0 SWAP1 SLOAD SWAP1 PUSH2 0x100 EXP SWAP1 DIV PUSH20 0xFFFFFFFFFFFFFFFFFFFFFFFFFFFFFFFFFFFFFFFF AND PUSH20 0xFFFFFFFFFFFFFFFFFFFFFFFFFFFFFFFFFFFFFFFF AND PUSH20 0xFFFFFFFFFFFFFFFFFFFFFFFFFFFFFFFFFFFFFFFF AND DUP2 MSTORE PUSH1 0x20 ADD PUSH1 0x4 DUP3 ADD SLOAD DUP2 MSTORE PUSH1 0x20 ADD PUSH1 0x5 DUP3 ADD PUSH1 0x0 SWAP1 SLOAD SWAP1 PUSH2 0x100 EXP SWAP1 DIV PUSH1 0xFF AND PUSH1 0x1 DUP2 GT ISZERO PUSH2 0x10A3 JUMPI PUSH2 0x10A2 PUSH2 0x211C JUMP JUMPDEST JUMPDEST PUSH1 0x1 DUP2 GT ISZERO PUSH2 0x10B5 JUMPI PUSH2 0x10B4 PUSH2 0x211C JUMP JUMPDEST JUMPDEST DUP2 MSTORE POP POP DUP5 DUP7 DUP2 MLOAD DUP2 LT PUSH2 0x10CC JUMPI PUSH2 0x10CB PUSH2 0x2D7F JUMP JUMPDEST JUMPDEST PUSH1 0x20 MUL PUSH1 0x20 ADD ADD DUP2 SWAP1 MSTORE POP PUSH1 0x1 DUP6 PUSH2 0x10E4 SWAP2 SWAP1 PUSH2 0x2CE1 JUMP JUMPDEST SWAP5 POP POP POP JUMPDEST DUP1 DUP1 PUSH2 0x10F4 SWAP1 PUSH2 0x2D37 JUMP JUMPDEST SWAP2 POP POP PUSH2 0xF20 JUMP JUMPDEST POP DUP1 SWAP5 POP POP POP POP POP SWAP1 JUMP JUMPDEST PUSH2 0x110F PUSH2 0x1D13 JUMP JUMPDEST PUSH20 0xFFFFFFFFFFFFFFFFFFFFFFFFFFFFFFFFFFFFFFFF AND PUSH2 0x112D PUSH2 0x1462 JUMP JUMPDEST PUSH20 0xFFFFFFFFFFFFFFFFFFFFFFFFFFFFFFFFFFFFFFFF AND EQ PUSH2 0x1183 JUMPI PUSH1 0x40 MLOAD PUSH32 0x8C379A000000000000000000000000000000000000000000000000000000000 DUP2 MSTORE PUSH1 0x4 ADD PUSH2 0x117A SWAP1 PUSH2 0x28B4 JUMP JUMPDEST PUSH1 0x40 MLOAD DUP1 SWAP2 SUB SWAP1 REVERT JUMPDEST DUP1 PUSH1 0x4 PUSH1 0x0 PUSH2 0x100 EXP DUP2 SLOAD DUP2 PUSH20 0xFFFFFFFFFFFFFFFFFFFFFFFFFFFFFFFFFFFFFFFF MUL NOT AND SWAP1 DUP4 PUSH20 0xFFFFFFFFFFFFFFFFFFFFFFFFFFFFFFFFFFFFFFFF AND MUL OR SWAP1 SSTORE POP POP JUMP JUMPDEST PUSH2 0x11CF PUSH2 0x1D13 JUMP JUMPDEST PUSH20 0xFFFFFFFFFFFFFFFFFFFFFFFFFFFFFFFFFFFFFFFF AND PUSH2 0x11ED PUSH2 0x1462 JUMP JUMPDEST PUSH20 0xFFFFFFFFFFFFFFFFFFFFFFFFFFFFFFFFFFFFFFFF AND EQ PUSH2 0x1243 JUMPI PUSH1 0x40 MLOAD PUSH32 0x8C379A000000000000000000000000000000000000000000000000000000000 DUP2 MSTORE PUSH1 0x4 ADD PUSH2 0x123A SWAP1 PUSH2 0x28B4 JUMP JUMPDEST PUSH1 0x40 MLOAD DUP1 SWAP2 SUB SWAP1 REVERT JUMPDEST PUSH2 0x124D PUSH1 0x0 PUSH2 0x1D3F JUMP JUMPDEST JUMP JUMPDEST PUSH1 0x5 PUSH1 0x14 SWAP1 SLOAD SWAP1 PUSH2 0x100 EXP SWAP1 DIV PUSH1 0xFF AND DUP2 JUMP JUMPDEST PUSH1 0x3 PUSH1 0x0 SWAP1 SLOAD SWAP1 PUSH2 0x100 EXP SWAP1 DIV PUSH20 0xFFFFFFFFFFFFFFFFFFFFFFFFFFFFFFFFFFFFFFFF AND PUSH20 0xFFFFFFFFFFFFFFFFFFFFFFFFFFFFFFFFFFFFFFFF AND PUSH4 0x23B872DD CALLER PUSH1 0x9 PUSH1 0x0 DUP8 DUP2 MSTORE PUSH1 0x20 ADD SWAP1 DUP2 MSTORE PUSH1 0x20 ADD PUSH1 0x0 KECCAK256 PUSH1 0x2 ADD PUSH1 0x0 SWAP1 SLOAD SWAP1 PUSH2 0x100 EXP SWAP1 DIV PUSH20 0xFFFFFFFFFFFFFFFFFFFFFFFFFFFFFFFFFFFFFFFF AND DUP6 PUSH1 0x40 MLOAD DUP5 PUSH4 0xFFFFFFFF AND PUSH1 0xE0 SHL DUP2 MSTORE PUSH1 0x4 ADD PUSH2 0x12F7 SWAP4 SWAP3 SWAP2 SWAP1 PUSH2 0x2808 JUMP JUMPDEST PUSH1 0x20 PUSH1 0x40 MLOAD DUP1 DUP4 SUB DUP2 PUSH1 0x0 DUP8 GAS CALL ISZERO DUP1 ISZERO PUSH2 0x1316 JUMPI RETURNDATASIZE PUSH1 0x0 DUP1 RETURNDATACOPY RETURNDATASIZE PUSH1 0x0 REVERT JUMPDEST POP POP POP POP PUSH1 0x40 MLOAD RETURNDATASIZE PUSH1 0x1F NOT PUSH1 0x1F DUP3 ADD AND DUP3 ADD DUP1 PUSH1 0x40 MSTORE POP DUP2 ADD SWAP1 PUSH2 0x133A SWAP2 SWAP1 PUSH2 0x2DAE JUMP JUMPDEST POP PUSH1 0x4 PUSH1 0x0 SWAP1 SLOAD SWAP1 PUSH2 0x100 EXP SWAP1 DIV PUSH20 0xFFFFFFFFFFFFFFFFFFFFFFFFFFFFFFFFFFFFFFFF AND PUSH20 0xFFFFFFFFFFFFFFFFFFFFFFFFFFFFFFFFFFFFFFFF AND PUSH4 0xC1E9518A CALLER ADDRESS DUP5 PUSH1 0x40 MLOAD DUP5 PUSH4 0xFFFFFFFF AND PUSH1 0xE0 SHL DUP2 MSTORE PUSH1 0x4 ADD PUSH2 0x139A SWAP4 SWAP3 SWAP2 SWAP1 PUSH2 0x2C7B JUMP JUMPDEST PUSH1 0x0 PUSH1 0x40 MLOAD DUP1 DUP4 SUB DUP2 PUSH1 0x0 DUP8 DUP1 EXTCODESIZE ISZERO DUP1 ISZERO PUSH2 0x13B4 JUMPI PUSH1 0x0 DUP1 REVERT JUMPDEST POP GAS CALL ISZERO DUP1 ISZERO PUSH2 0x13C8 JUMPI RETURNDATASIZE PUSH1 0x0 DUP1 RETURNDATACOPY RETURNDATASIZE PUSH1 0x0 REVERT JUMPDEST POP POP POP POP PUSH1 0x5 PUSH1 0x0 SWAP1 SLOAD SWAP1 PUSH2 0x100 EXP SWAP1 DIV PUSH20 0xFFFFFFFFFFFFFFFFFFFFFFFFFFFFFFFFFFFFFFFF AND PUSH20 0xFFFFFFFFFFFFFFFFFFFFFFFFFFFFFFFFFFFFFFFF AND PUSH4 0x23B872DD ADDRESS CALLER DUP5 PUSH1 0x40 MLOAD DUP5 PUSH4 0xFFFFFFFF AND PUSH1 0xE0 SHL DUP2 MSTORE PUSH1 0x4 ADD PUSH2 0x142B SWAP4 SWAP3 SWAP2 SWAP1 PUSH2 0x2808 JUMP JUMPDEST PUSH1 0x0 PUSH1 0x40 MLOAD DUP1 DUP4 SUB DUP2 PUSH1 0x0 DUP8 DUP1 EXTCODESIZE ISZERO DUP1 ISZERO PUSH2 0x1445 JUMPI PUSH1 0x0 DUP1 REVERT JUMPDEST POP GAS CALL ISZERO DUP1 ISZERO PUSH2 0x1459 JUMPI RETURNDATASIZE PUSH1 0x0 DUP1 RETURNDATACOPY RETURNDATASIZE PUSH1 0x0 REVERT JUMPDEST POP POP POP POP POP POP POP JUMP JUMPDEST PUSH1 0x0 PUSH1 0x6 PUSH1 0x0 SWAP1 SLOAD SWAP1 PUSH2 0x100 EXP SWAP1 DIV PUSH20 0xFFFFFFFFFFFFFFFFFFFFFFFFFFFFFFFFFFFFFFFF AND SWAP1 POP SWAP1 JUMP JUMPDEST PUSH1 0x0 PUSH1 0x9 PUSH1 0x0 DUP5 DUP2 MSTORE PUSH1 0x20 ADD SWAP1 DUP2 MSTORE PUSH1 0x20 ADD PUSH1 0x0 KECCAK256 PUSH1 0x4 ADD SLOAD SWAP1 POP PUSH1 0x0 PUSH1 0x9 PUSH1 0x0 DUP6 DUP2 MSTORE PUSH1 0x20 ADD SWAP1 DUP2 MSTORE PUSH1 0x20 ADD PUSH1 0x0 KECCAK256 PUSH1 0x1 ADD SLOAD SWAP1 POP PUSH1 0x0 PUSH1 0x9 PUSH1 0x0 DUP7 DUP2 MSTORE PUSH1 0x20 ADD SWAP1 DUP2 MSTORE PUSH1 0x20 ADD PUSH1 0x0 KECCAK256 PUSH1 0x2 ADD PUSH1 0x0 SWAP1 SLOAD SWAP1 PUSH2 0x100 EXP SWAP1 DIV PUSH20 0xFFFFFFFFFFFFFFFFFFFFFFFFFFFFFFFFFFFFFFFF AND SWAP1 POP PUSH1 0x0 PUSH1 0x4 PUSH1 0x0 SWAP1 SLOAD SWAP1 PUSH2 0x100 EXP SWAP1 DIV PUSH20 0xFFFFFFFFFFFFFFFFFFFFFFFFFFFFFFFFFFFFFFFF AND PUSH20 0xFFFFFFFFFFFFFFFFFFFFFFFFFFFFFFFFFFFFFFFF AND PUSH4 0x3CE1CB5 DUP5 PUSH1 0x40 MLOAD DUP3 PUSH4 0xFFFFFFFF AND PUSH1 0xE0 SHL DUP2 MSTORE PUSH1 0x4 ADD PUSH2 0x155A SWAP2 SWAP1 PUSH2 0x2940 JUMP JUMPDEST PUSH1 0x0 PUSH1 0x40 MLOAD DUP1 DUP4 SUB DUP2 DUP7 GAS STATICCALL ISZERO DUP1 ISZERO PUSH2 0x1577 JUMPI RETURNDATASIZE PUSH1 0x0 DUP1 RETURNDATACOPY RETURNDATASIZE PUSH1 0x0 REVERT JUMPDEST POP POP POP POP PUSH1 0x40 MLOAD RETURNDATASIZE PUSH1 0x0 DUP3 RETURNDATACOPY RETURNDATASIZE PUSH1 0x1F NOT PUSH1 0x1F DUP3 ADD AND DUP3 ADD DUP1 PUSH1 0x40 MSTORE POP DUP2 ADD SWAP1 PUSH2 0x15A0 SWAP2 SWAP1 PUSH2 0x2BA5 JUMP JUMPDEST SWAP1 POP DUP4 DUP6 EQ PUSH2 0x15E4 JUMPI PUSH1 0x40 MLOAD PUSH32 0x8C379A000000000000000000000000000000000000000000000000000000000 DUP2 MSTORE PUSH1 0x4 ADD PUSH2 0x15DB SWAP1 PUSH2 0x2E4D JUMP JUMPDEST PUSH1 0x40 MLOAD DUP1 SWAP2 SUB SWAP1 REVERT JUMPDEST PUSH1 0x0 ISZERO ISZERO DUP2 PUSH1 0x80 ADD MLOAD ISZERO ISZERO EQ PUSH2 0x162F JUMPI PUSH1 0x40 MLOAD PUSH32 0x8C379A000000000000000000000000000000000000000000000000000000000 DUP2 MSTORE PUSH1 0x4 ADD PUSH2 0x1626 SWAP1 PUSH2 0x2C3A JUMP JUMPDEST PUSH1 0x40 MLOAD DUP1 SWAP2 SUB SWAP1 REVERT JUMPDEST PUSH2 0x163A DUP7 DUP7 DUP6 PUSH2 0x1262 JUMP JUMPDEST CALLER PUSH1 0x9 PUSH1 0x0 DUP9 DUP2 MSTORE PUSH1 0x20 ADD SWAP1 DUP2 MSTORE PUSH1 0x20 ADD PUSH1 0x0 KECCAK256 PUSH1 0x3 ADD PUSH1 0x0 PUSH2 0x100 EXP DUP2 SLOAD DUP2 PUSH20 0xFFFFFFFFFFFFFFFFFFFFFFFFFFFFFFFFFFFFFFFF MUL NOT AND SWAP1 DUP4 PUSH20 0xFFFFFFFFFFFFFFFFFFFFFFFFFFFFFFFFFFFFFFFF AND MUL OR SWAP1 SSTORE POP PUSH1 0x0 PUSH1 0x9 PUSH1 0x0 DUP9 DUP2 MSTORE PUSH1 0x20 ADD SWAP1 DUP2 MSTORE PUSH1 0x20 ADD PUSH1 0x0 KECCAK256 PUSH1 0x5 ADD PUSH1 0x0 PUSH2 0x100 EXP DUP2 SLOAD DUP2 PUSH1 0xFF MUL NOT AND SWAP1 DUP4 PUSH1 0x1 DUP2 GT ISZERO PUSH2 0x16C9 JUMPI PUSH2 0x16C8 PUSH2 0x211C JUMP JUMPDEST JUMPDEST MUL OR SWAP1 SSTORE POP PUSH2 0x16D8 PUSH1 0x8 PUSH2 0x1D29 JUMP JUMPDEST CALLER PUSH20 0xFFFFFFFFFFFFFFFFFFFFFFFFFFFFFFFFFFFFFFFF AND DUP3 PUSH20 0xFFFFFFFFFFFFFFFFFFFFFFFFFFFFFFFFFFFFFFFF AND DUP5 PUSH32 0x551327AEE12D0A8B3EDE8D0E3182A40A5FF3ED9F1811DD622915DB30B609B7DF DUP10 DUP9 TIMESTAMP PUSH1 0x40 MLOAD PUSH2 0x173A SWAP4 SWAP3 SWAP2 SWAP1 PUSH2 0x2EB9 JUMP JUMPDEST PUSH1 0x40 MLOAD DUP1 SWAP2 SUB SWAP1 LOG4 POP POP POP POP POP POP JUMP JUMPDEST PUSH2 0x1752 PUSH2 0x1E79 JUMP JUMPDEST PUSH1 0x0 DUP3 GT PUSH2 0x1795 JUMPI PUSH1 0x40 MLOAD PUSH32 0x8C379A000000000000000000000000000000000000000000000000000000000 DUP2 MSTORE PUSH1 0x4 ADD PUSH2 0x178C SWAP1 PUSH2 0x2920 JUMP JUMPDEST PUSH1 0x40 MLOAD DUP1 SWAP2 SUB SWAP1 REVERT JUMPDEST PUSH1 0x0 PUSH1 0x4 PUSH1 0x0 SWAP1 SLOAD SWAP1 PUSH2 0x100 EXP SWAP1 DIV PUSH20 0xFFFFFFFFFFFFFFFFFFFFFFFFFFFFFFFFFFFFFFFF AND PUSH20 0xFFFFFFFFFFFFFFFFFFFFFFFFFFFFFFFFFFFFFFFF AND PUSH4 0x3CE1CB5 DUP6 PUSH1 0x40 MLOAD DUP3 PUSH4 0xFFFFFFFF AND PUSH1 0xE0 SHL DUP2 MSTORE PUSH1 0x4 ADD PUSH2 0x17F2 SWAP2 SWAP1 PUSH2 0x2940 JUMP JUMPDEST PUSH1 0x0 PUSH1 0x40 MLOAD DUP1 DUP4 SUB DUP2 DUP7 GAS STATICCALL ISZERO DUP1 ISZERO PUSH2 0x180F JUMPI RETURNDATASIZE PUSH1 0x0 DUP1 RETURNDATACOPY RETURNDATASIZE PUSH1 0x0 REVERT JUMPDEST POP POP POP POP PUSH1 0x40 MLOAD RETURNDATASIZE PUSH1 0x0 DUP3 RETURNDATACOPY RETURNDATASIZE PUSH1 0x1F NOT PUSH1 0x1F DUP3 ADD AND DUP3 ADD DUP1 PUSH1 0x40 MSTORE POP DUP2 ADD SWAP1 PUSH2 0x1838 SWAP2 SWAP1 PUSH2 0x2BA5 JUMP JUMPDEST SWAP1 POP DUP1 SWAP2 POP POP SWAP3 SWAP2 POP POP JUMP JUMPDEST PUSH1 0x5 PUSH1 0x15 SWAP1 SLOAD SWAP1 PUSH2 0x100 EXP SWAP1 DIV PUSH1 0xFF AND DUP2 JUMP JUMPDEST PUSH1 0x1 DUP2 DUP2 SLOAD DUP2 LT PUSH2 0x1867 JUMPI PUSH1 0x0 DUP1 REVERT JUMPDEST SWAP1 PUSH1 0x0 MSTORE PUSH1 0x20 PUSH1 0x0 KECCAK256 SWAP1 PUSH1 0x6 MUL ADD PUSH1 0x0 SWAP2 POP SWAP1 POP DUP1 PUSH1 0x0 ADD SLOAD SWAP1 DUP1 PUSH1 0x1 ADD SLOAD SWAP1 DUP1 PUSH1 0x2 ADD PUSH1 0x0 SWAP1 SLOAD SWAP1 PUSH2 0x100 EXP SWAP1 DIV PUSH20 0xFFFFFFFFFFFFFFFFFFFFFFFFFFFFFFFFFFFFFFFF AND SWAP1 DUP1 PUSH1 0x3 ADD PUSH1 0x0 SWAP1 SLOAD SWAP1 PUSH2 0x100 EXP SWAP1 DIV PUSH20 0xFFFFFFFFFFFFFFFFFFFFFFFFFFFFFFFFFFFFFFFF AND SWAP1 DUP1 PUSH1 0x4 ADD SLOAD SWAP1 DUP1 PUSH1 0x5 ADD PUSH1 0x0 SWAP1 SLOAD SWAP1 PUSH2 0x100 EXP SWAP1 DIV PUSH1 0xFF AND SWAP1 POP DUP7 JUMP JUMPDEST PUSH1 0x4 PUSH1 0x0 SWAP1 SLOAD SWAP1 PUSH2 0x100 EXP SWAP1 DIV PUSH20 0xFFFFFFFFFFFFFFFFFFFFFFFFFFFFFFFFFFFFFFFF AND DUP2 JUMP JUMPDEST PUSH2 0x191E PUSH2 0x1E05 JUMP JUMPDEST PUSH1 0x9 PUSH1 0x0 DUP4 DUP2 MSTORE PUSH1 0x20 ADD SWAP1 DUP2 MSTORE PUSH1 0x20 ADD PUSH1 0x0 KECCAK256 PUSH1 0x40 MLOAD DUP1 PUSH1 0xC0 ADD PUSH1 0x40 MSTORE SWAP1 DUP2 PUSH1 0x0 DUP3 ADD SLOAD DUP2 MSTORE PUSH1 0x20 ADD PUSH1 0x1 DUP3 ADD SLOAD DUP2 MSTORE PUSH1 0x20 ADD PUSH1 0x2 DUP3 ADD PUSH1 0x0 SWAP1 SLOAD SWAP1 PUSH2 0x100 EXP SWAP1 DIV PUSH20 0xFFFFFFFFFFFFFFFFFFFFFFFFFFFFFFFFFFFFFFFF AND PUSH20 0xFFFFFFFFFFFFFFFFFFFFFFFFFFFFFFFFFFFFFFFF AND PUSH20 0xFFFFFFFFFFFFFFFFFFFFFFFFFFFFFFFFFFFFFFFF AND DUP2 MSTORE PUSH1 0x20 ADD PUSH1 0x3 DUP3 ADD PUSH1 0x0 SWAP1 SLOAD SWAP1 PUSH2 0x100 EXP SWAP1 DIV PUSH20 0xFFFFFFFFFFFFFFFFFFFFFFFFFFFFFFFFFFFFFFFF AND PUSH20 0xFFFFFFFFFFFFFFFFFFFFFFFFFFFFFFFFFFFFFFFF AND PUSH20 0xFFFFFFFFFFFFFFFFFFFFFFFFFFFFFFFFFFFFFFFF AND DUP2 MSTORE PUSH1 0x20 ADD PUSH1 0x4 DUP3 ADD SLOAD DUP2 MSTORE PUSH1 0x20 ADD PUSH1 0x5 DUP3 ADD PUSH1 0x0 SWAP1 SLOAD SWAP1 PUSH2 0x100 EXP SWAP1 DIV PUSH1 0xFF AND PUSH1 0x1 DUP2 GT ISZERO PUSH2 0x1A2B JUMPI PUSH2 0x1A2A PUSH2 0x211C JUMP JUMPDEST JUMPDEST PUSH1 0x1 DUP2 GT ISZERO PUSH2 0x1A3D JUMPI PUSH2 0x1A3C PUSH2 0x211C JUMP JUMPDEST JUMPDEST DUP2 MSTORE POP POP SWAP1 POP SWAP2 SWAP1 POP JUMP JUMPDEST PUSH1 0x4 PUSH1 0x0 SWAP1 SLOAD SWAP1 PUSH2 0x100 EXP SWAP1 DIV PUSH20 0xFFFFFFFFFFFFFFFFFFFFFFFFFFFFFFFFFFFFFFFF AND PUSH20 0xFFFFFFFFFFFFFFFFFFFFFFFFFFFFFFFFFFFFFFFF AND PUSH4 0xC1E9518A CALLER ADDRESS DUP5 PUSH1 0x40 MLOAD DUP5 PUSH4 0xFFFFFFFF AND PUSH1 0xE0 SHL DUP2 MSTORE PUSH1 0x4 ADD PUSH2 0x1AA7 SWAP4 SWAP3 SWAP2 SWAP1 PUSH2 0x2C7B JUMP JUMPDEST PUSH1 0x0 PUSH1 0x40 MLOAD DUP1 DUP4 SUB DUP2 PUSH1 0x0 DUP8 DUP1 EXTCODESIZE ISZERO DUP1 ISZERO PUSH2 0x1AC1 JUMPI PUSH1 0x0 DUP1 REVERT JUMPDEST POP GAS CALL ISZERO DUP1 ISZERO PUSH2 0x1AD5 JUMPI RETURNDATASIZE PUSH1 0x0 DUP1 RETURNDATACOPY RETURNDATASIZE PUSH1 0x0 REVERT JUMPDEST POP POP POP POP PUSH1 0x5 PUSH1 0x0 SWAP1 SLOAD SWAP1 PUSH2 0x100 EXP SWAP1 DIV PUSH20 0xFFFFFFFFFFFFFFFFFFFFFFFFFFFFFFFFFFFFFFFF AND PUSH20 0xFFFFFFFFFFFFFFFFFFFFFFFFFFFFFFFFFFFFFFFF AND PUSH4 0x23B872DD CALLER ADDRESS DUP5 PUSH1 0x40 MLOAD DUP5 PUSH4 0xFFFFFFFF AND PUSH1 0xE0 SHL DUP2 MSTORE PUSH1 0x4 ADD PUSH2 0x1B38 SWAP4 SWAP3 SWAP2 SWAP1 PUSH2 0x2808 JUMP JUMPDEST PUSH1 0x0 PUSH1 0x40 MLOAD DUP1 DUP4 SUB DUP2 PUSH1 0x0 DUP8 DUP1 EXTCODESIZE ISZERO DUP1 ISZERO PUSH2 0x1B52 JUMPI PUSH1 0x0 DUP1 REVERT JUMPDEST POP GAS CALL ISZERO DUP1 ISZERO PUSH2 0x1B66 JUMPI RETURNDATASIZE PUSH1 0x0 DUP1 RETURNDATACOPY RETURNDATASIZE PUSH1 0x0 REVERT JUMPDEST POP POP POP POP POP JUMP JUMPDEST PUSH2 0x1B75 PUSH2 0x1D13 JUMP JUMPDEST PUSH20 0xFFFFFFFFFFFFFFFFFFFFFFFFFFFFFFFFFFFFFFFF AND PUSH2 0x1B93 PUSH2 0x1462 JUMP JUMPDEST PUSH20 0xFFFFFFFFFFFFFFFFFFFFFFFFFFFFFFFFFFFFFFFF AND EQ PUSH2 0x1BE9 JUMPI PUSH1 0x40 MLOAD PUSH32 0x8C379A000000000000000000000000000000000000000000000000000000000 DUP2 MSTORE PUSH1 0x4 ADD PUSH2 0x1BE0 SWAP1 PUSH2 0x28B4 JUMP JUMPDEST PUSH1 0x40 MLOAD DUP1 SWAP2 SUB SWAP1 REVERT JUMPDEST PUSH1 0x0 PUSH20 0xFFFFFFFFFFFFFFFFFFFFFFFFFFFFFFFFFFFFFFFF AND DUP2 PUSH20 0xFFFFFFFFFFFFFFFFFFFFFFFFFFFFFFFFFFFFFFFF AND SUB PUSH2 0x1C58 JUMPI PUSH1 0x40 MLOAD PUSH32 0x8C379A000000000000000000000000000000000000000000000000000000000 DUP2 MSTORE PUSH1 0x4 ADD PUSH2 0x1C4F SWAP1 PUSH2 0x2F75 JUMP JUMPDEST PUSH1 0x40 MLOAD DUP1 SWAP2 SUB SWAP1 REVERT JUMPDEST PUSH2 0x1C61 DUP2 PUSH2 0x1D3F JUMP JUMPDEST POP JUMP JUMPDEST PUSH1 0x5 PUSH1 0x0 SWAP1 SLOAD SWAP1 PUSH2 0x100 EXP SWAP1 DIV PUSH20 0xFFFFFFFFFFFFFFFFFFFFFFFFFFFFFFFFFFFFFFFF AND DUP2 JUMP JUMPDEST PUSH1 0x2 PUSH1 0x20 MSTORE DUP1 PUSH1 0x0 MSTORE PUSH1 0x40 PUSH1 0x0 KECCAK256 PUSH1 0x0 SWAP2 POP SWAP1 POP DUP1 PUSH1 0x0 ADD SLOAD SWAP1 DUP1 PUSH1 0x1 ADD SLOAD SWAP1 DUP1 PUSH1 0x2 ADD PUSH1 0x0 SWAP1 SLOAD SWAP1 PUSH2 0x100 EXP SWAP1 DIV PUSH20 0xFFFFFFFFFFFFFFFFFFFFFFFFFFFFFFFFFFFFFFFF AND SWAP1 DUP1 PUSH1 0x3 ADD PUSH1 0x0 SWAP1 SLOAD SWAP1 PUSH2 0x100 EXP SWAP1 DIV PUSH20 0xFFFFFFFFFFFFFFFFFFFFFFFFFFFFFFFFFFFFFFFF AND SWAP1 DUP1 PUSH1 0x4 ADD SLOAD SWAP1 DUP1 PUSH1 0x5 ADD PUSH1 0x0 SWAP1 SLOAD SWAP1 PUSH2 0x100 EXP SWAP1 DIV PUSH1 0xFF AND SWAP1 POP DUP7 JUMP JUMPDEST PUSH1 0x0 CALLER SWAP1 POP SWAP1 JUMP JUMPDEST PUSH1 0x0 DUP2 PUSH1 0x0 ADD SLOAD SWAP1 POP SWAP2 SWAP1 POP JUMP JUMPDEST PUSH1 0x1 DUP2 PUSH1 0x0 ADD PUSH1 0x0 DUP3 DUP3 SLOAD ADD SWAP3 POP POP DUP2 SWAP1 SSTORE POP POP JUMP JUMPDEST PUSH1 0x0 PUSH1 0x6 PUSH1 0x0 SWAP1 SLOAD SWAP1 PUSH2 0x100 EXP SWAP1 DIV PUSH20 0xFFFFFFFFFFFFFFFFFFFFFFFFFFFFFFFFFFFFFFFF AND SWAP1 POP DUP2 PUSH1 0x6 PUSH1 0x0 PUSH2 0x100 EXP DUP2 SLOAD DUP2 PUSH20 0xFFFFFFFFFFFFFFFFFFFFFFFFFFFFFFFFFFFFFFFF MUL NOT AND SWAP1 DUP4 PUSH20 0xFFFFFFFFFFFFFFFFFFFFFFFFFFFFFFFFFFFFFFFF AND MUL OR SWAP1 SSTORE POP DUP2 PUSH20 0xFFFFFFFFFFFFFFFFFFFFFFFFFFFFFFFFFFFFFFFF AND DUP2 PUSH20 0xFFFFFFFFFFFFFFFFFFFFFFFFFFFFFFFFFFFFFFFF AND PUSH32 0x8BE0079C531659141344CD1FD0A4F28419497F9722A3DAAFE3B4186F6B6457E0 PUSH1 0x40 MLOAD PUSH1 0x40 MLOAD DUP1 SWAP2 SUB SWAP1 LOG3 POP POP JUMP JUMPDEST PUSH1 0x40 MLOAD DUP1 PUSH1 0xC0 ADD PUSH1 0x40 MSTORE DUP1 PUSH1 0x0 DUP2 MSTORE PUSH1 0x20 ADD PUSH1 0x0 DUP2 MSTORE PUSH1 0x20 ADD PUSH1 0x0 PUSH20 0xFFFFFFFFFFFFFFFFFFFFFFFFFFFFFFFFFFFFFFFF AND DUP2 MSTORE PUSH1 0x20 ADD PUSH1 0x0 PUSH20 0xFFFFFFFFFFFFFFFFFFFFFFFFFFFFFFFFFFFFFFFF AND DUP2 MSTORE PUSH1 0x20 ADD PUSH1 0x0 DUP2 MSTORE PUSH1 0x20 ADD PUSH1 0x0 PUSH1 0x1 DUP2 GT ISZERO PUSH2 0x1E73 JUMPI PUSH2 0x1E72 PUSH2 0x211C JUMP JUMPDEST JUMPDEST DUP2 MSTORE POP SWAP1 JUMP JUMPDEST PUSH1 0x40 MLOAD DUP1 PUSH1 0xA0 ADD PUSH1 0x40 MSTORE DUP1 PUSH1 0x0 DUP2 MSTORE PUSH1 0x20 ADD PUSH1 0x0 PUSH20 0xFFFFFFFFFFFFFFFFFFFFFFFFFFFFFFFFFFFFFFFF AND DUP2 MSTORE PUSH1 0x20 ADD PUSH1 0x60 DUP2 MSTORE PUSH1 0x20 ADD PUSH1 0x60 DUP2 MSTORE PUSH1 0x20 ADD PUSH1 0x0 ISZERO ISZERO DUP2 MSTORE POP SWAP1 JUMP JUMPDEST PUSH1 0x0 PUSH1 0x40 MLOAD SWAP1 POP SWAP1 JUMP JUMPDEST PUSH1 0x0 DUP1 REVERT JUMPDEST PUSH1 0x0 DUP1 REVERT JUMPDEST PUSH1 0x0 DUP2 SWAP1 POP SWAP2 SWAP1 POP JUMP JUMPDEST PUSH2 0x1EE7 DUP2 PUSH2 0x1ED4 JUMP JUMPDEST DUP2 EQ PUSH2 0x1EF2 JUMPI PUSH1 0x0 DUP1 REVERT JUMPDEST POP JUMP JUMPDEST PUSH1 0x0 DUP2 CALLDATALOAD SWAP1 POP PUSH2 0x1F04 DUP2 PUSH2 0x1EDE JUMP JUMPDEST SWAP3 SWAP2 POP POP JUMP JUMPDEST PUSH1 0x0 PUSH1 0x20 DUP3 DUP5 SUB SLT ISZERO PUSH2 0x1F20 JUMPI PUSH2 0x1F1F PUSH2 0x1ECA JUMP JUMPDEST JUMPDEST PUSH1 0x0 PUSH2 0x1F2E DUP5 DUP3 DUP6 ADD PUSH2 0x1EF5 JUMP JUMPDEST SWAP2 POP POP SWAP3 SWAP2 POP POP JUMP JUMPDEST PUSH1 0x0 PUSH20 0xFFFFFFFFFFFFFFFFFFFFFFFFFFFFFFFFFFFFFFFF DUP3 AND SWAP1 POP SWAP2 SWAP1 POP JUMP JUMPDEST PUSH1 0x0 PUSH2 0x1F62 DUP3 PUSH2 0x1F37 JUMP JUMPDEST SWAP1 POP SWAP2 SWAP1 POP JUMP JUMPDEST PUSH2 0x1F72 DUP2 PUSH2 0x1F57 JUMP JUMPDEST DUP2 EQ PUSH2 0x1F7D JUMPI PUSH1 0x0 DUP1 REVERT JUMPDEST POP JUMP JUMPDEST PUSH1 0x0 DUP2 CALLDATALOAD SWAP1 POP PUSH2 0x1F8F DUP2 PUSH2 0x1F69 JUMP JUMPDEST SWAP3 SWAP2 POP POP JUMP JUMPDEST PUSH1 0x0 PUSH1 0x20 DUP3 DUP5 SUB SLT ISZERO PUSH2 0x1FAB JUMPI PUSH2 0x1FAA PUSH2 0x1ECA JUMP JUMPDEST JUMPDEST PUSH1 0x0 PUSH2 0x1FB9 DUP5 DUP3 DUP6 ADD PUSH2 0x1F80 JUMP JUMPDEST SWAP2 POP POP SWAP3 SWAP2 POP POP JUMP JUMPDEST PUSH1 0x0 PUSH32 0xFFFFFFFF00000000000000000000000000000000000000000000000000000000 DUP3 AND SWAP1 POP SWAP2 SWAP1 POP JUMP JUMPDEST PUSH2 0x1FF7 DUP2 PUSH2 0x1FC2 JUMP JUMPDEST DUP3 MSTORE POP POP JUMP JUMPDEST PUSH1 0x0 PUSH1 0x20 DUP3 ADD SWAP1 POP PUSH2 0x2012 PUSH1 0x0 DUP4 ADD DUP5 PUSH2 0x1FEE JUMP JUMPDEST SWAP3 SWAP2 POP POP JUMP JUMPDEST PUSH1 0x0 DUP1 PUSH1 0x40 DUP4 DUP6 SUB SLT ISZERO PUSH2 0x202F JUMPI PUSH2 0x202E PUSH2 0x1ECA JUMP JUMPDEST JUMPDEST PUSH1 0x0 PUSH2 0x203D DUP6 DUP3 DUP7 ADD PUSH2 0x1EF5 JUMP JUMPDEST SWAP3 POP POP PUSH1 0x20 PUSH2 0x204E DUP6 DUP3 DUP7 ADD PUSH2 0x1EF5 JUMP JUMPDEST SWAP2 POP POP SWAP3 POP SWAP3 SWAP1 POP JUMP JUMPDEST PUSH1 0x0 DUP2 SWAP1 POP SWAP2 SWAP1 POP JUMP JUMPDEST PUSH1 0x0 PUSH2 0x207D PUSH2 0x2078 PUSH2 0x2073 DUP5 PUSH2 0x1F37 JUMP JUMPDEST PUSH2 0x2058 JUMP JUMPDEST PUSH2 0x1F37 JUMP JUMPDEST SWAP1 POP SWAP2 SWAP1 POP JUMP JUMPDEST PUSH1 0x0 PUSH2 0x208F DUP3 PUSH2 0x2062 JUMP JUMPDEST SWAP1 POP SWAP2 SWAP1 POP JUMP JUMPDEST PUSH1 0x0 PUSH2 0x20A1 DUP3 PUSH2 0x2084 JUMP JUMPDEST SWAP1 POP SWAP2 SWAP1 POP JUMP JUMPDEST PUSH2 0x20B1 DUP2 PUSH2 0x2096 JUMP JUMPDEST DUP3 MSTORE POP POP JUMP JUMPDEST PUSH1 0x0 PUSH1 0x20 DUP3 ADD SWAP1 POP PUSH2 0x20CC PUSH1 0x0 DUP4 ADD DUP5 PUSH2 0x20A8 JUMP JUMPDEST SWAP3 SWAP2 POP POP JUMP JUMPDEST PUSH1 0x0 DUP2 MLOAD SWAP1 POP SWAP2 SWAP1 POP JUMP JUMPDEST PUSH1 0x0 DUP3 DUP3 MSTORE PUSH1 0x20 DUP3 ADD SWAP1 POP SWAP3 SWAP2 POP POP JUMP JUMPDEST PUSH1 0x0 DUP2 SWAP1 POP PUSH1 0x20 DUP3 ADD SWAP1 POP SWAP2 SWAP1 POP JUMP JUMPDEST PUSH2 0x2107 DUP2 PUSH2 0x1ED4 JUMP JUMPDEST DUP3 MSTORE POP POP JUMP JUMPDEST PUSH2 0x2116 DUP2 PUSH2 0x1F57 JUMP JUMPDEST DUP3 MSTORE POP POP JUMP JUMPDEST PUSH32 0x4E487B7100000000000000000000000000000000000000000000000000000000 PUSH1 0x0 MSTORE PUSH1 0x21 PUSH1 0x4 MSTORE PUSH1 0x24 PUSH1 0x0 REVERT JUMPDEST PUSH1 0x2 DUP2 LT PUSH2 0x215C JUMPI PUSH2 0x215B PUSH2 0x211C JUMP JUMPDEST JUMPDEST POP JUMP JUMPDEST PUSH1 0x0 DUP2 SWAP1 POP PUSH2 0x216D DUP3 PUSH2 0x214B JUMP JUMPDEST SWAP2 SWAP1 POP JUMP JUMPDEST PUSH1 0x0 PUSH2 0x217D DUP3 PUSH2 0x215F JUMP JUMPDEST SWAP1 POP SWAP2 SWAP1 POP JUMP JUMPDEST PUSH2 0x218D DUP2 PUSH2 0x2172 JUMP JUMPDEST DUP3 MSTORE POP POP JUMP JUMPDEST PUSH1 0xC0 DUP3 ADD PUSH1 0x0 DUP3 ADD MLOAD PUSH2 0x21A9 PUSH1 0x0 DUP6 ADD DUP3 PUSH2 0x20FE JUMP JUMPDEST POP PUSH1 0x20 DUP3 ADD MLOAD PUSH2 0x21BC PUSH1 0x20 DUP6 ADD DUP3 PUSH2 0x20FE JUMP JUMPDEST POP PUSH1 0x40 DUP3 ADD MLOAD PUSH2 0x21CF PUSH1 0x40 DUP6 ADD DUP3 PUSH2 0x210D JUMP JUMPDEST POP PUSH1 0x60 DUP3 ADD MLOAD PUSH2 0x21E2 PUSH1 0x60 DUP6 ADD DUP3 PUSH2 0x210D JUMP JUMPDEST POP PUSH1 0x80 DUP3 ADD MLOAD PUSH2 0x21F5 PUSH1 0x80 DUP6 ADD DUP3 PUSH2 0x20FE JUMP JUMPDEST POP PUSH1 0xA0 DUP3 ADD MLOAD PUSH2 0x2208 PUSH1 0xA0 DUP6 ADD DUP3 PUSH2 0x2184 JUMP JUMPDEST POP POP POP POP JUMP JUMPDEST PUSH1 0x0 PUSH2 0x221A DUP4 DUP4 PUSH2 0x2193 JUMP JUMPDEST PUSH1 0xC0 DUP4 ADD SWAP1 POP SWAP3 SWAP2 POP POP JUMP JUMPDEST PUSH1 0x0 PUSH1 0x20 DUP3 ADD SWAP1 POP SWAP2 SWAP1 POP JUMP JUMPDEST PUSH1 0x0 PUSH2 0x223E DUP3 PUSH2 0x20D2 JUMP JUMPDEST PUSH2 0x2248 DUP2 DUP6 PUSH2 0x20DD JUMP JUMPDEST SWAP4 POP PUSH2 0x2253 DUP4 PUSH2 0x20EE JUMP JUMPDEST DUP1 PUSH1 0x0 JUMPDEST DUP4 DUP2 LT ISZERO PUSH2 0x2284 JUMPI DUP2 MLOAD PUSH2 0x226B DUP9 DUP3 PUSH2 0x220E JUMP JUMPDEST SWAP8 POP PUSH2 0x2276 DUP4 PUSH2 0x2226 JUMP JUMPDEST SWAP3 POP POP PUSH1 0x1 DUP2 ADD SWAP1 POP PUSH2 0x2257 JUMP JUMPDEST POP DUP6 SWAP4 POP POP POP POP SWAP3 SWAP2 POP POP JUMP JUMPDEST PUSH1 0x0 PUSH1 0x20 DUP3 ADD SWAP1 POP DUP2 DUP2 SUB PUSH1 0x0 DUP4 ADD MSTORE PUSH2 0x22AB DUP2 DUP5 PUSH2 0x2233 JUMP JUMPDEST SWAP1 POP SWAP3 SWAP2 POP POP JUMP JUMPDEST PUSH1 0x0 PUSH1 0xFF DUP3 AND SWAP1 POP SWAP2 SWAP1 POP JUMP JUMPDEST PUSH2 0x22C9 DUP2 PUSH2 0x22B3 JUMP JUMPDEST DUP3 MSTORE POP POP JUMP JUMPDEST PUSH1 0x0 PUSH1 0x20 DUP3 ADD SWAP1 POP PUSH2 0x22E4 PUSH1 0x0 DUP4 ADD DUP5 PUSH2 0x22C0 JUMP JUMPDEST SWAP3 SWAP2 POP POP JUMP JUMPDEST PUSH1 0x0 DUP1 PUSH1 0x0 PUSH1 0x60 DUP5 DUP7 SUB SLT ISZERO PUSH2 0x2303 JUMPI PUSH2 0x2302 PUSH2 0x1ECA JUMP JUMPDEST JUMPDEST PUSH1 0x0 PUSH2 0x2311 DUP7 DUP3 DUP8 ADD PUSH2 0x1EF5 JUMP JUMPDEST SWAP4 POP POP PUSH1 0x20 PUSH2 0x2322 DUP7 DUP3 DUP8 ADD PUSH2 0x1EF5 JUMP JUMPDEST SWAP3 POP POP PUSH1 0x40 PUSH2 0x2333 DUP7 DUP3 DUP8 ADD PUSH2 0x1EF5 JUMP JUMPDEST SWAP2 POP POP SWAP3 POP SWAP3 POP SWAP3 JUMP JUMPDEST PUSH2 0x2346 DUP2 PUSH2 0x1F57 JUMP JUMPDEST DUP3 MSTORE POP POP JUMP JUMPDEST PUSH1 0x0 PUSH1 0x20 DUP3 ADD SWAP1 POP PUSH2 0x2361 PUSH1 0x0 DUP4 ADD DUP5 PUSH2 0x233D JUMP JUMPDEST SWAP3 SWAP2 POP POP JUMP JUMPDEST PUSH1 0x0 DUP2 MLOAD SWAP1 POP SWAP2 SWAP1 POP JUMP JUMPDEST PUSH1 0x0 DUP3 DUP3 MSTORE PUSH1 0x20 DUP3 ADD SWAP1 POP SWAP3 SWAP2 POP POP JUMP JUMPDEST PUSH1 0x0 JUMPDEST DUP4 DUP2 LT ISZERO PUSH2 0x23A1 JUMPI DUP1 DUP3 ADD MLOAD DUP2 DUP5 ADD MSTORE PUSH1 0x20 DUP2 ADD SWAP1 POP PUSH2 0x2386 JUMP JUMPDEST DUP4 DUP2 GT ISZERO PUSH2 0x23B0 JUMPI PUSH1 0x0 DUP5 DUP5 ADD MSTORE JUMPDEST POP POP POP POP JUMP JUMPDEST PUSH1 0x0 PUSH1 0x1F NOT PUSH1 0x1F DUP4 ADD AND SWAP1 POP SWAP2 SWAP1 POP JUMP JUMPDEST PUSH1 0x0 PUSH2 0x23D2 DUP3 PUSH2 0x2367 JUMP JUMPDEST PUSH2 0x23DC DUP2 DUP6 PUSH2 0x2372 JUMP JUMPDEST SWAP4 POP PUSH2 0x23EC DUP2 DUP6 PUSH1 0x20 DUP7 ADD PUSH2 0x2383 JUMP JUMPDEST PUSH2 0x23F5 DUP2 PUSH2 0x23B6 JUMP JUMPDEST DUP5 ADD SWAP2 POP POP SWAP3 SWAP2 POP POP JUMP JUMPDEST PUSH1 0x0 DUP2 ISZERO ISZERO SWAP1 POP SWAP2 SWAP1 POP JUMP JUMPDEST PUSH2 0x2415 DUP2 PUSH2 0x2400 JUMP JUMPDEST DUP3 MSTORE POP POP JUMP JUMPDEST PUSH1 0x0 PUSH1 0xA0 DUP4 ADD PUSH1 0x0 DUP4 ADD MLOAD PUSH2 0x2433 PUSH1 0x0 DUP7 ADD DUP3 PUSH2 0x20FE JUMP JUMPDEST POP PUSH1 0x20 DUP4 ADD MLOAD PUSH2 0x2446 PUSH1 0x20 DUP7 ADD DUP3 PUSH2 0x210D JUMP JUMPDEST POP PUSH1 0x40 DUP4 ADD MLOAD DUP5 DUP3 SUB PUSH1 0x40 DUP7 ADD MSTORE PUSH2 0x245E DUP3 DUP3 PUSH2 0x23C7 JUMP JUMPDEST SWAP2 POP POP PUSH1 0x60 DUP4 ADD MLOAD DUP5 DUP3 SUB PUSH1 0x60 DUP7 ADD MSTORE PUSH2 0x2478 DUP3 DUP3 PUSH2 0x23C7 JUMP JUMPDEST SWAP2 POP POP PUSH1 0x80 DUP4 ADD MLOAD PUSH2 0x248D PUSH1 0x80 DUP7 ADD DUP3 PUSH2 0x240C JUMP JUMPDEST POP DUP1 SWAP2 POP POP SWAP3 SWAP2 POP POP JUMP JUMPDEST PUSH1 0x0 PUSH1 0x20 DUP3 ADD SWAP1 POP DUP2 DUP2 SUB PUSH1 0x0 DUP4 ADD MSTORE PUSH2 0x24B2 DUP2 DUP5 PUSH2 0x241B JUMP JUMPDEST SWAP1 POP SWAP3 SWAP2 POP POP JUMP JUMPDEST PUSH2 0x24C3 DUP2 PUSH2 0x1ED4 JUMP JUMPDEST DUP3 MSTORE POP POP JUMP JUMPDEST PUSH2 0x24D2 DUP2 PUSH2 0x2172 JUMP JUMPDEST DUP3 MSTORE POP POP JUMP JUMPDEST PUSH1 0x0 PUSH1 0xC0 DUP3 ADD SWAP1 POP PUSH2 0x24ED PUSH1 0x0 DUP4 ADD DUP10 PUSH2 0x24BA JUMP JUMPDEST PUSH2 0x24FA PUSH1 0x20 DUP4 ADD DUP9 PUSH2 0x24BA JUMP JUMPDEST PUSH2 0x2507 PUSH1 0x40 DUP4 ADD DUP8 PUSH2 0x233D JUMP JUMPDEST PUSH2 0x2514 PUSH1 0x60 DUP4 ADD DUP7 PUSH2 0x233D JUMP JUMPDEST PUSH2 0x2521 PUSH1 0x80 DUP4 ADD DUP6 PUSH2 0x24BA JUMP JUMPDEST PUSH2 0x252E PUSH1 0xA0 DUP4 ADD DUP5 PUSH2 0x24C9 JUMP JUMPDEST SWAP8 SWAP7 POP POP POP POP POP POP POP JUMP JUMPDEST PUSH1 0x0 PUSH2 0x2544 DUP3 PUSH2 0x2084 JUMP JUMPDEST SWAP1 POP SWAP2 SWAP1 POP JUMP JUMPDEST PUSH2 0x2554 DUP2 PUSH2 0x2539 JUMP JUMPDEST DUP3 MSTORE POP POP JUMP JUMPDEST PUSH1 0x0 PUSH1 0x20 DUP3 ADD SWAP1 POP PUSH2 0x256F PUSH1 0x0 DUP4 ADD DUP5 PUSH2 0x254B JUMP JUMPDEST SWAP3 SWAP2 POP POP JUMP JUMPDEST PUSH1 0xC0 DUP3 ADD PUSH1 0x0 DUP3 ADD MLOAD PUSH2 0x258B PUSH1 0x0 DUP6 ADD DUP3 PUSH2 0x20FE JUMP JUMPDEST POP PUSH1 0x20 DUP3 ADD MLOAD PUSH2 0x259E PUSH1 0x20 DUP6 ADD DUP3 PUSH2 0x20FE JUMP JUMPDEST POP PUSH1 0x40 DUP3 ADD MLOAD PUSH2 0x25B1 PUSH1 0x40 DUP6 ADD DUP3 PUSH2 0x210D JUMP JUMPDEST POP PUSH1 0x60 DUP3 ADD MLOAD PUSH2 0x25C4 PUSH1 0x60 DUP6 ADD DUP3 PUSH2 0x210D JUMP JUMPDEST POP PUSH1 0x80 DUP3 ADD MLOAD PUSH2 0x25D7 PUSH1 0x80 DUP6 ADD DUP3 PUSH2 0x20FE JUMP JUMPDEST POP PUSH1 0xA0 DUP3 ADD MLOAD PUSH2 0x25EA PUSH1 0xA0 DUP6 ADD DUP3 PUSH2 0x2184 JUMP JUMPDEST POP POP POP POP JUMP JUMPDEST PUSH1 0x0 PUSH1 0xC0 DUP3 ADD SWAP1 POP PUSH2 0x2605 PUSH1 0x0 DUP4 ADD DUP5 PUSH2 0x2575 JUMP JUMPDEST SWAP3 SWAP2 POP POP JUMP JUMPDEST PUSH1 0x0 PUSH2 0x2616 DUP3 PUSH2 0x2084 JUMP JUMPDEST SWAP1 POP SWAP2 SWAP1 POP JUMP JUMPDEST PUSH2 0x2626 DUP2 PUSH2 0x260B JUMP JUMPDEST DUP3 MSTORE POP POP JUMP JUMPDEST PUSH1 0x0 PUSH1 0x20 DUP3 ADD SWAP1 POP PUSH2 0x2641 PUSH1 0x0 DUP4 ADD DUP5 PUSH2 0x261D JUMP JUMPDEST SWAP3 SWAP2 POP POP JUMP JUMPDEST PUSH1 0x0 DUP3 DUP3 MSTORE PUSH1 0x20 DUP3 ADD SWAP1 POP SWAP3 SWAP2 POP POP JUMP JUMPDEST PUSH32 0x4173736574206E6F74207075626C697368656400000000000000000000000000 PUSH1 0x0 DUP3 ADD MSTORE POP JUMP JUMPDEST PUSH1 0x0 PUSH2 0x268E PUSH1 0x13 DUP4 PUSH2 0x2647 JUMP JUMPDEST SWAP2 POP PUSH2 0x2699 DUP3 PUSH2 0x2658 JUMP JUMPDEST PUSH1 0x20 DUP3 ADD SWAP1 POP SWAP2 SWAP1 POP JUMP JUMPDEST PUSH1 0x0 PUSH1 0x20 DUP3 ADD SWAP1 POP DUP2 DUP2 SUB PUSH1 0x0 DUP4 ADD MSTORE PUSH2 0x26BD DUP2 PUSH2 0x2681 JUMP JUMPDEST SWAP1 POP SWAP2 SWAP1 POP JUMP JUMPDEST PUSH32 0x41737365742064656C6973746564000000000000000000000000000000000000 PUSH1 0x0 DUP3 ADD MSTORE POP JUMP JUMPDEST PUSH1 0x0 PUSH2 0x26FA PUSH1 0xE DUP4 PUSH2 0x2647 JUMP JUMPDEST SWAP2 POP PUSH2 0x2705 DUP3 PUSH2 0x26C4 JUMP JUMPDEST PUSH1 0x20 DUP3 ADD SWAP1 POP SWAP2 SWAP1 POP JUMP JUMPDEST PUSH1 0x0 PUSH1 0x20 DUP3 ADD SWAP1 POP DUP2 DUP2 SUB PUSH1 0x0 DUP4 ADD MSTORE PUSH2 0x2729 DUP2 PUSH2 0x26ED JUMP JUMPDEST SWAP1 POP SWAP2 SWAP1 POP JUMP JUMPDEST PUSH32 0x496E76616C696420616464726573730000000000000000000000000000000000 PUSH1 0x0 DUP3 ADD MSTORE POP JUMP JUMPDEST PUSH1 0x0 PUSH2 0x2766 PUSH1 0xF DUP4 PUSH2 0x2647 JUMP JUMPDEST SWAP2 POP PUSH2 0x2771 DUP3 PUSH2 0x2730 JUMP JUMPDEST PUSH1 0x20 DUP3 ADD SWAP1 POP SWAP2 SWAP1 POP JUMP JUMPDEST PUSH1 0x0 PUSH1 0x20 DUP3 ADD SWAP1 POP DUP2 DUP2 SUB PUSH1 0x0 DUP4 ADD MSTORE PUSH2 0x2795 DUP2 PUSH2 0x2759 JUMP JUMPDEST SWAP1 POP SWAP2 SWAP1 POP JUMP JUMPDEST PUSH32 0x4F6E6C792073656C6C65722063616E2064656C69737400000000000000000000 PUSH1 0x0 DUP3 ADD MSTORE POP JUMP JUMPDEST PUSH1 0x0 PUSH2 0x27D2 PUSH1 0x16 DUP4 PUSH2 0x2647 JUMP JUMPDEST SWAP2 POP PUSH2 0x27DD DUP3 PUSH2 0x279C JUMP JUMPDEST PUSH1 0x20 DUP3 ADD SWAP1 POP SWAP2 SWAP1 POP JUMP JUMPDEST PUSH1 0x0 PUSH1 0x20 DUP3 ADD SWAP1 POP DUP2 DUP2 SUB PUSH1 0x0 DUP4 ADD MSTORE PUSH2 0x2801 DUP2 PUSH2 0x27C5 JUMP JUMPDEST SWAP1 POP SWAP2 SWAP1 POP JUMP JUMPDEST PUSH1 0x0 PUSH1 0x60 DUP3 ADD SWAP1 POP PUSH2 0x281D PUSH1 0x0 DUP4 ADD DUP7 PUSH2 0x233D JUMP JUMPDEST PUSH2 0x282A PUSH1 0x20 DUP4 ADD DUP6 PUSH2 0x233D JUMP JUMPDEST PUSH2 0x2837 PUSH1 0x40 DUP4 ADD DUP5 PUSH2 0x24BA JUMP JUMPDEST SWAP5 SWAP4 POP POP POP POP JUMP JUMPDEST PUSH1 0x0 PUSH1 0x40 DUP3 ADD SWAP1 POP PUSH2 0x2854 PUSH1 0x0 DUP4 ADD DUP6 PUSH2 0x24BA JUMP JUMPDEST PUSH2 0x2861 PUSH1 0x20 DUP4 ADD DUP5 PUSH2 0x24BA JUMP JUMPDEST SWAP4 SWAP3 POP POP POP JUMP JUMPDEST PUSH32 0x4F776E61626C653A2063616C6C6572206973206E6F7420746865206F776E6572 PUSH1 0x0 DUP3 ADD MSTORE POP JUMP JUMPDEST PUSH1 0x0 PUSH2 0x289E PUSH1 0x20 DUP4 PUSH2 0x2647 JUMP JUMPDEST SWAP2 POP PUSH2 0x28A9 DUP3 PUSH2 0x2868 JUMP JUMPDEST PUSH1 0x20 DUP3 ADD SWAP1 POP SWAP2 SWAP1 POP JUMP JUMPDEST PUSH1 0x0 PUSH1 0x20 DUP3 ADD SWAP1 POP DUP2 DUP2 SUB PUSH1 0x0 DUP4 ADD MSTORE PUSH2 0x28CD DUP2 PUSH2 0x2891 JUMP JUMPDEST SWAP1 POP SWAP2 SWAP1 POP JUMP JUMPDEST PUSH32 0x5072696365206D757374206265206174206C6561737420312077656900000000 PUSH1 0x0 DUP3 ADD MSTORE POP JUMP JUMPDEST PUSH1 0x0 PUSH2 0x290A PUSH1 0x1C DUP4 PUSH2 0x2647 JUMP JUMPDEST SWAP2 POP PUSH2 0x2915 DUP3 PUSH2 0x28D4 JUMP JUMPDEST PUSH1 0x20 DUP3 ADD SWAP1 POP SWAP2 SWAP1 POP JUMP JUMPDEST PUSH1 0x0 PUSH1 0x20 DUP3 ADD SWAP1 POP DUP2 DUP2 SUB PUSH1 0x0 DUP4 ADD MSTORE PUSH2 0x2939 DUP2 PUSH2 0x28FD JUMP JUMPDEST SWAP1 POP SWAP2 SWAP1 POP JUMP JUMPDEST PUSH1 0x0 PUSH1 0x20 DUP3 ADD SWAP1 POP PUSH2 0x2955 PUSH1 0x0 DUP4 ADD DUP5 PUSH2 0x24BA JUMP JUMPDEST SWAP3 SWAP2 POP POP JUMP JUMPDEST PUSH1 0x0 DUP1 REVERT JUMPDEST PUSH32 0x4E487B7100000000000000000000000000000000000000000000000000000000 PUSH1 0x0 MSTORE PUSH1 0x41 PUSH1 0x4 MSTORE PUSH1 0x24 PUSH1 0x0 REVERT JUMPDEST PUSH2 0x2998 DUP3 PUSH2 0x23B6 JUMP JUMPDEST DUP2 ADD DUP2 DUP2 LT PUSH8 0xFFFFFFFFFFFFFFFF DUP3 GT OR ISZERO PUSH2 0x29B7 JUMPI PUSH2 0x29B6 PUSH2 0x2960 JUMP JUMPDEST JUMPDEST DUP1 PUSH1 0x40 MSTORE POP POP POP JUMP JUMPDEST PUSH1 0x0 PUSH2 0x29CA PUSH2 0x1EC0 JUMP JUMPDEST SWAP1 POP PUSH2 0x29D6 DUP3 DUP3 PUSH2 0x298F JUMP JUMPDEST SWAP2 SWAP1 POP JUMP JUMPDEST PUSH1 0x0 DUP1 REVERT JUMPDEST PUSH1 0x0 DUP2 MLOAD SWAP1 POP PUSH2 0x29EF DUP2 PUSH2 0x1EDE JUMP JUMPDEST SWAP3 SWAP2 POP POP JUMP JUMPDEST PUSH1 0x0 DUP2 MLOAD SWAP1 POP PUSH2 0x2A04 DUP2 PUSH2 0x1F69 JUMP JUMPDEST SWAP3 SWAP2 POP POP JUMP JUMPDEST PUSH1 0x0 DUP1 REVERT JUMPDEST PUSH1 0x0 DUP1 REVERT JUMPDEST PUSH1 0x0 PUSH8 0xFFFFFFFFFFFFFFFF DUP3 GT ISZERO PUSH2 0x2A2F JUMPI PUSH2 0x2A2E PUSH2 0x2960 JUMP JUMPDEST JUMPDEST PUSH2 0x2A38 DUP3 PUSH2 0x23B6 JUMP JUMPDEST SWAP1 POP PUSH1 0x20 DUP2 ADD SWAP1 POP SWAP2 SWAP1 POP JUMP JUMPDEST PUSH1 0x0 PUSH2 0x2A58 PUSH2 0x2A53 DUP5 PUSH2 0x2A14 JUMP JUMPDEST PUSH2 0x29C0 JUMP JUMPDEST SWAP1 POP DUP3 DUP2 MSTORE PUSH1 0x20 DUP2 ADD DUP5 DUP5 DUP5 ADD GT ISZERO PUSH2 0x2A74 JUMPI PUSH2 0x2A73 PUSH2 0x2A0F JUMP JUMPDEST JUMPDEST PUSH2 0x2A7F DUP5 DUP3 DUP6 PUSH2 0x2383 JUMP JUMPDEST POP SWAP4 SWAP3 POP POP POP JUMP JUMPDEST PUSH1 0x0 DUP3 PUSH1 0x1F DUP4 ADD SLT PUSH2 0x2A9C JUMPI PUSH2 0x2A9B PUSH2 0x2A0A JUMP JUMPDEST JUMPDEST DUP2 MLOAD PUSH2 0x2AAC DUP5 DUP3 PUSH1 0x20 DUP7 ADD PUSH2 0x2A45 JUMP JUMPDEST SWAP2 POP POP SWAP3 SWAP2 POP POP JUMP JUMPDEST PUSH2 0x2ABE DUP2 PUSH2 0x2400 JUMP JUMPDEST DUP2 EQ PUSH2 0x2AC9 JUMPI PUSH1 0x0 DUP1 REVERT JUMPDEST POP JUMP JUMPDEST PUSH1 0x0 DUP2 MLOAD SWAP1 POP PUSH2 0x2ADB DUP2 PUSH2 0x2AB5 JUMP JUMPDEST SWAP3 SWAP2 POP POP JUMP JUMPDEST PUSH1 0x0 PUSH1 0xA0 DUP3 DUP5 SUB SLT ISZERO PUSH2 0x2AF7 JUMPI PUSH2 0x2AF6 PUSH2 0x295B JUMP JUMPDEST JUMPDEST PUSH2 0x2B01 PUSH1 0xA0 PUSH2 0x29C0 JUMP JUMPDEST SWAP1 POP PUSH1 0x0 PUSH2 0x2B11 DUP5 DUP3 DUP6 ADD PUSH2 0x29E0 JUMP JUMPDEST PUSH1 0x0 DUP4 ADD MSTORE POP PUSH1 0x20 PUSH2 0x2B25 DUP5 DUP3 DUP6 ADD PUSH2 0x29F5 JUMP JUMPDEST PUSH1 0x20 DUP4 ADD MSTORE POP PUSH1 0x40 DUP3 ADD MLOAD PUSH8 0xFFFFFFFFFFFFFFFF DUP2 GT ISZERO PUSH2 0x2B49 JUMPI PUSH2 0x2B48 PUSH2 0x29DB JUMP JUMPDEST JUMPDEST PUSH2 0x2B55 DUP5 DUP3 DUP6 ADD PUSH2 0x2A87 JUMP JUMPDEST PUSH1 0x40 DUP4 ADD MSTORE POP PUSH1 0x60 DUP3 ADD MLOAD PUSH8 0xFFFFFFFFFFFFFFFF DUP2 GT ISZERO PUSH2 0x2B79 JUMPI PUSH2 0x2B78 PUSH2 0x29DB JUMP JUMPDEST JUMPDEST PUSH2 0x2B85 DUP5 DUP3 DUP6 ADD PUSH2 0x2A87 JUMP JUMPDEST PUSH1 0x60 DUP4 ADD MSTORE POP PUSH1 0x80 PUSH2 0x2B99 DUP5 DUP3 DUP6 ADD PUSH2 0x2ACC JUMP JUMPDEST PUSH1 0x80 DUP4 ADD MSTORE POP SWAP3 SWAP2 POP POP JUMP JUMPDEST PUSH1 0x0 PUSH1 0x20 DUP3 DUP5 SUB SLT ISZERO PUSH2 0x2BBB JUMPI PUSH2 0x2BBA PUSH2 0x1ECA JUMP JUMPDEST JUMPDEST PUSH1 0x0 DUP3 ADD MLOAD PUSH8 0xFFFFFFFFFFFFFFFF DUP2 GT ISZERO PUSH2 0x2BD9 JUMPI PUSH2 0x2BD8 PUSH2 0x1ECF JUMP JUMPDEST JUMPDEST PUSH2 0x2BE5 DUP5 DUP3 DUP6 ADD PUSH2 0x2AE1 JUMP JUMPDEST SWAP2 POP POP SWAP3 SWAP2 POP POP JUMP JUMPDEST PUSH32 0x4974656D206973206E6F7420617661696C61626C65206E6F7720210000000000 PUSH1 0x0 DUP3 ADD MSTORE POP JUMP JUMPDEST PUSH1 0x0 PUSH2 0x2C24 PUSH1 0x1B DUP4 PUSH2 0x2647 JUMP JUMPDEST SWAP2 POP PUSH2 0x2C2F DUP3 PUSH2 0x2BEE JUMP JUMPDEST PUSH1 0x20 DUP3 ADD SWAP1 POP SWAP2 SWAP1 POP JUMP JUMPDEST PUSH1 0x0 PUSH1 0x20 DUP3 ADD SWAP1 POP DUP2 DUP2 SUB PUSH1 0x0 DUP4 ADD MSTORE PUSH2 0x2C53 DUP2 PUSH2 0x2C17 JUMP JUMPDEST SWAP1 POP SWAP2 SWAP1 POP JUMP JUMPDEST PUSH1 0x0 PUSH2 0x2C65 DUP3 PUSH2 0x2084 JUMP JUMPDEST SWAP1 POP SWAP2 SWAP1 POP JUMP JUMPDEST PUSH2 0x2C75 DUP2 PUSH2 0x2C5A JUMP JUMPDEST DUP3 MSTORE POP POP JUMP JUMPDEST PUSH1 0x0 PUSH1 0x60 DUP3 ADD SWAP1 POP PUSH2 0x2C90 PUSH1 0x0 DUP4 ADD DUP7 PUSH2 0x2C6C JUMP JUMPDEST PUSH2 0x2C9D PUSH1 0x20 DUP4 ADD DUP6 PUSH2 0x233D JUMP JUMPDEST PUSH2 0x2CAA PUSH1 0x40 DUP4 ADD DUP5 PUSH2 0x24BA JUMP JUMPDEST SWAP5 SWAP4 POP POP POP POP JUMP JUMPDEST PUSH32 0x4E487B7100000000000000000000000000000000000000000000000000000000 PUSH1 0x0 MSTORE PUSH1 0x11 PUSH1 0x4 MSTORE PUSH1 0x24 PUSH1 0x0 REVERT JUMPDEST PUSH1 0x0 PUSH2 0x2CEC DUP3 PUSH2 0x1ED4 JUMP JUMPDEST SWAP2 POP PUSH2 0x2CF7 DUP4 PUSH2 0x1ED4 JUMP JUMPDEST SWAP3 POP DUP3 PUSH32 0xFFFFFFFFFFFFFFFFFFFFFFFFFFFFFFFFFFFFFFFFFFFFFFFFFFFFFFFFFFFFFFFF SUB DUP3 GT ISZERO PUSH2 0x2D2C JUMPI PUSH2 0x2D2B PUSH2 0x2CB2 JUMP JUMPDEST JUMPDEST DUP3 DUP3 ADD SWAP1 POP SWAP3 SWAP2 POP POP JUMP JUMPDEST PUSH1 0x0 PUSH2 0x2D42 DUP3 PUSH2 0x1ED4 JUMP JUMPDEST SWAP2 POP PUSH32 0xFFFFFFFFFFFFFFFFFFFFFFFFFFFFFFFFFFFFFFFFFFFFFFFFFFFFFFFFFFFFFFFF DUP3 SUB PUSH2 0x2D74 JUMPI PUSH2 0x2D73 PUSH2 0x2CB2 JUMP JUMPDEST JUMPDEST PUSH1 0x1 DUP3 ADD SWAP1 POP SWAP2 SWAP1 POP JUMP JUMPDEST PUSH32 0x4E487B7100000000000000000000000000000000000000000000000000000000 PUSH1 0x0 MSTORE PUSH1 0x32 PUSH1 0x4 MSTORE PUSH1 0x24 PUSH1 0x0 REVERT JUMPDEST PUSH1 0x0 PUSH1 0x20 DUP3 DUP5 SUB SLT ISZERO PUSH2 0x2DC4 JUMPI PUSH2 0x2DC3 PUSH2 0x1ECA JUMP JUMPDEST JUMPDEST PUSH1 0x0 PUSH2 0x2DD2 DUP5 DUP3 DUP6 ADD PUSH2 0x2ACC JUMP JUMPDEST SWAP2 POP POP SWAP3 SWAP2 POP POP JUMP JUMPDEST PUSH32 0x506C65617365207375626D6974207468652061736B696E672070726963652069 PUSH1 0x0 DUP3 ADD MSTORE PUSH32 0x6E206F7264657220746F20636F6D706C65746520746865207075726368617365 PUSH1 0x20 DUP3 ADD MSTORE POP JUMP JUMPDEST PUSH1 0x0 PUSH2 0x2E37 PUSH1 0x40 DUP4 PUSH2 0x2647 JUMP JUMPDEST SWAP2 POP PUSH2 0x2E42 DUP3 PUSH2 0x2DDB JUMP JUMPDEST PUSH1 0x40 DUP3 ADD SWAP1 POP SWAP2 SWAP1 POP JUMP JUMPDEST PUSH1 0x0 PUSH1 0x20 DUP3 ADD SWAP1 POP DUP2 DUP2 SUB PUSH1 0x0 DUP4 ADD MSTORE PUSH2 0x2E66 DUP2 PUSH2 0x2E2A JUMP JUMPDEST SWAP1 POP SWAP2 SWAP1 POP JUMP JUMPDEST PUSH32 0x5351460000000000000000000000000000000000000000000000000000000000 PUSH1 0x0 DUP3 ADD MSTORE POP JUMP JUMPDEST PUSH1 0x0 PUSH2 0x2EA3 PUSH1 0x3 DUP4 PUSH2 0x2647 JUMP JUMPDEST SWAP2 POP PUSH2 0x2EAE DUP3 PUSH2 0x2E6D JUMP JUMPDEST PUSH1 0x20 DUP3 ADD SWAP1 POP SWAP2 SWAP1 POP JUMP JUMPDEST PUSH1 0x0 PUSH1 0x80 DUP3 ADD SWAP1 POP PUSH2 0x2ECE PUSH1 0x0 DUP4 ADD DUP7 PUSH2 0x24BA JUMP JUMPDEST PUSH2 0x2EDB PUSH1 0x20 DUP4 ADD DUP6 PUSH2 0x24BA JUMP JUMPDEST DUP2 DUP2 SUB PUSH1 0x40 DUP4 ADD MSTORE PUSH2 0x2EEC DUP2 PUSH2 0x2E96 JUMP JUMPDEST SWAP1 POP PUSH2 0x2EFB PUSH1 0x60 DUP4 ADD DUP5 PUSH2 0x24BA JUMP JUMPDEST SWAP5 SWAP4 POP POP POP POP JUMP JUMPDEST PUSH32 0x4F776E61626C653A206E6577206F776E657220697320746865207A65726F2061 PUSH1 0x0 DUP3 ADD MSTORE PUSH32 0x6464726573730000000000000000000000000000000000000000000000000000 PUSH1 0x20 DUP3 ADD MSTORE POP JUMP JUMPDEST PUSH1 0x0 PUSH2 0x2F5F PUSH1 0x26 DUP4 PUSH2 0x2647 JUMP JUMPDEST SWAP2 POP PUSH2 0x2F6A DUP3 PUSH2 0x2F03 JUMP JUMPDEST PUSH1 0x40 DUP3 ADD SWAP1 POP SWAP2 SWAP1 POP JUMP JUMPDEST PUSH1 0x0 PUSH1 0x20 DUP3 ADD SWAP1 POP DUP2 DUP2 SUB PUSH1 0x0 DUP4 ADD MSTORE PUSH2 0x2F8E DUP2 PUSH2 0x2F52 JUMP JUMPDEST SWAP1 POP SWAP2 SWAP1 POP JUMP INVALID LOG2 PUSH5 0x6970667358 0x22 SLT KECCAK256 DUP2 PUSH14 0xD4273B7767F6E848C7F3E10D9DD1 DELEGATECALL 0xB2 SELFBALANCE SWAP14 0xF9 SWAP10 MSIZE LOG3 0xB2 EQ SWAP6 0xA8 RETURN PUSH31 0xDE4A64736F6C634300080D0033000000000000000000000000000000000000 "
				},
				"gasEstimates": {
					"creation": {
						"codeDepositCost": "2447000",
						"executionCost": "infinite",
						"totalCost": "infinite"
					},
					"external": {
						"ERC721_Interface()": "431",
						"_safeBuyItem(uint256,uint256,uint256)": "infinite",
						"_safeTransferToMarket(uint256)": "infinite",
						"allItems(uint256)": "infinite",
						"antaFeePercent()": "2610",
						"bnbFeePercent()": "2632",
						"createMarketItem(uint256,uint256)": "infinite",
						"createMarketSale(uint256,uint256)": "infinite",
						"delistItem(uint256)": "infinite",
						"factory()": "infinite",
						"getMarketItem()": "infinite",
						"getMarketItem(uint256)": "infinite",
						"items(uint256)": "infinite",
						"mainNFTs()": "infinite",
						"mainToken()": "infinite",
						"owner()": "2545",
						"renounceOwnership()": "30463",
						"sellItemNeee(uint256,uint256)": "infinite",
						"setFactory(address)": "27029",
						"setMainNFT(address)": "27008",
						"setMainToken(address)": "27030",
						"transferOwnership(address)": "30808"
					},
					"internal": {
						"_requireERC721(address)": "infinite",
						"isContract(address)": "infinite"
					}
				},
				"methodIdentifiers": {
					"ERC721_Interface()": "2b4c32be",
					"_safeBuyItem(uint256,uint256,uint256)": "8c0fb1c3",
					"_safeTransferToMarket(uint256)": "e78e717d",
					"allItems(uint256)": "ff68fa6e",
					"antaFeePercent()": "b7a60c7e",
					"bnbFeePercent()": "85a8b36c",
					"createMarketItem(uint256,uint256)": "361c1995",
					"createMarketSale(uint256,uint256)": "a1c11ca8",
					"delistItem(uint256)": "10061631",
					"factory()": "c45a0155",
					"getMarketItem()": "42199f88",
					"getMarketItem(uint256)": "c7be7a49",
					"items(uint256)": "bfb231d2",
					"mainNFTs()": "f55de0c7",
					"mainToken()": "3fc15f15",
					"owner()": "8da5cb5b",
					"renounceOwnership()": "715018a6",
					"sellItemNeee(uint256,uint256)": "aeaf8cc2",
					"setFactory(address)": "5bb47808",
					"setMainNFT(address)": "15b12494",
					"setMainToken(address)": "27ce464e",
					"transferOwnership(address)": "f2fde38b"
				}
			},
			"storageLayout": {
				"storage": [
					{
						"astId": 409,
						"contract": "contracts/Marketplace2/Marketplace.sol:NFTMarket",
						"label": "_status",
						"offset": 0,
						"slot": "0",
						"type": "t_uint256"
					},
					{
						"astId": 500,
						"contract": "contracts/Marketplace2/Marketplace.sol:NFTMarket",
						"label": "items",
						"offset": 0,
						"slot": "1",
						"type": "t_array(t_struct(MarketItem)496_storage)dyn_storage"
					},
					{
						"astId": 511,
						"contract": "contracts/Marketplace2/Marketplace.sol:NFTMarket",
						"label": "allItems",
						"offset": 0,
						"slot": "2",
						"type": "t_mapping(t_uint256,t_struct(MarketItem)496_storage)"
					},
					{
						"astId": 514,
						"contract": "contracts/Marketplace2/Marketplace.sol:NFTMarket",
						"label": "mainToken",
						"offset": 0,
						"slot": "3",
						"type": "t_contract(IERC20)201"
					},
					{
						"astId": 517,
						"contract": "contracts/Marketplace2/Marketplace.sol:NFTMarket",
						"label": "factory",
						"offset": 0,
						"slot": "4",
						"type": "t_contract(IFactory)478"
					},
					{
						"astId": 520,
						"contract": "contracts/Marketplace2/Marketplace.sol:NFTMarket",
						"label": "mainNFTs",
						"offset": 0,
						"slot": "5",
						"type": "t_contract(IERC721)326"
					},
					{
						"astId": 522,
						"contract": "contracts/Marketplace2/Marketplace.sol:NFTMarket",
						"label": "bnbFeePercent",
						"offset": 20,
						"slot": "5",
						"type": "t_uint8"
					},
					{
						"astId": 524,
						"contract": "contracts/Marketplace2/Marketplace.sol:NFTMarket",
						"label": "antaFeePercent",
						"offset": 21,
						"slot": "5",
						"type": "t_uint8"
					},
					{
						"astId": 27,
						"contract": "contracts/Marketplace2/Marketplace.sol:NFTMarket",
						"label": "_owner",
						"offset": 0,
						"slot": "6",
						"type": "t_address"
					},
					{
						"astId": 592,
						"contract": "contracts/Marketplace2/Marketplace.sol:NFTMarket",
						"label": "_itemIds",
						"offset": 0,
						"slot": "7",
						"type": "t_struct(Counter)331_storage"
					},
					{
						"astId": 595,
						"contract": "contracts/Marketplace2/Marketplace.sol:NFTMarket",
						"label": "_itemsSold",
						"offset": 0,
						"slot": "8",
						"type": "t_struct(Counter)331_storage"
					},
					{
						"astId": 600,
						"contract": "contracts/Marketplace2/Marketplace.sol:NFTMarket",
						"label": "idToMarketItem",
						"offset": 0,
						"slot": "9",
						"type": "t_mapping(t_uint256,t_struct(MarketItem)496_storage)"
					}
				],
				"types": {
					"t_address": {
						"encoding": "inplace",
						"label": "address",
						"numberOfBytes": "20"
					},
					"t_array(t_struct(MarketItem)496_storage)dyn_storage": {
						"base": "t_struct(MarketItem)496_storage",
						"encoding": "dynamic_array",
						"label": "struct MarketplaceStorage.MarketItem[]",
						"numberOfBytes": "32"
					},
					"t_contract(IERC20)201": {
						"encoding": "inplace",
						"label": "contract IERC20",
						"numberOfBytes": "20"
					},
					"t_contract(IERC721)326": {
						"encoding": "inplace",
						"label": "contract IERC721",
						"numberOfBytes": "20"
					},
					"t_contract(IFactory)478": {
						"encoding": "inplace",
						"label": "contract IFactory",
						"numberOfBytes": "20"
					},
					"t_enum(ItemStatus)482": {
						"encoding": "inplace",
						"label": "enum MarketplaceStorage.ItemStatus",
						"numberOfBytes": "1"
					},
					"t_mapping(t_uint256,t_struct(MarketItem)496_storage)": {
						"encoding": "mapping",
						"key": "t_uint256",
						"label": "mapping(uint256 => struct MarketplaceStorage.MarketItem)",
						"numberOfBytes": "32",
						"value": "t_struct(MarketItem)496_storage"
					},
					"t_struct(Counter)331_storage": {
						"encoding": "inplace",
						"label": "struct Counters.Counter",
						"members": [
							{
								"astId": 330,
								"contract": "contracts/Marketplace2/Marketplace.sol:NFTMarket",
								"label": "_value",
								"offset": 0,
								"slot": "0",
								"type": "t_uint256"
							}
						],
						"numberOfBytes": "32"
					},
					"t_struct(MarketItem)496_storage": {
						"encoding": "inplace",
						"label": "struct MarketplaceStorage.MarketItem",
						"members": [
							{
								"astId": 484,
								"contract": "contracts/Marketplace2/Marketplace.sol:NFTMarket",
								"label": "itemId",
								"offset": 0,
								"slot": "0",
								"type": "t_uint256"
							},
							{
								"astId": 486,
								"contract": "contracts/Marketplace2/Marketplace.sol:NFTMarket",
								"label": "tokenId",
								"offset": 0,
								"slot": "1",
								"type": "t_uint256"
							},
							{
								"astId": 488,
								"contract": "contracts/Marketplace2/Marketplace.sol:NFTMarket",
								"label": "seller",
								"offset": 0,
								"slot": "2",
								"type": "t_address"
							},
							{
								"astId": 490,
								"contract": "contracts/Marketplace2/Marketplace.sol:NFTMarket",
								"label": "owner",
								"offset": 0,
								"slot": "3",
								"type": "t_address"
							},
							{
								"astId": 492,
								"contract": "contracts/Marketplace2/Marketplace.sol:NFTMarket",
								"label": "price",
								"offset": 0,
								"slot": "4",
								"type": "t_uint256"
							},
							{
								"astId": 495,
								"contract": "contracts/Marketplace2/Marketplace.sol:NFTMarket",
								"label": "status",
								"offset": 0,
								"slot": "5",
								"type": "t_enum(ItemStatus)482"
							}
						],
						"numberOfBytes": "192"
					},
					"t_uint256": {
						"encoding": "inplace",
						"label": "uint256",
						"numberOfBytes": "32"
					},
					"t_uint8": {
						"encoding": "inplace",
						"label": "uint8",
						"numberOfBytes": "1"
					}
				}
			},
			"userdoc": {
				"kind": "user",
				"methods": {},
				"version": 1
			}
		}
	}
}