{
	"contracts/Marketplace2/Marketplace.sol": {
		"MarketplaceStorage": {
			"abi": [
				{
					"anonymous": false,
					"inputs": [
						{
							"indexed": false,
							"internalType": "uint256",
							"name": "itemId",
							"type": "uint256"
						},
						{
							"indexed": true,
							"internalType": "uint256",
							"name": "tokenId",
							"type": "uint256"
						},
						{
							"indexed": true,
							"internalType": "address",
							"name": "seller",
							"type": "address"
						},
						{
							"indexed": false,
							"internalType": "uint256",
							"name": "price",
							"type": "uint256"
						},
						{
							"indexed": true,
							"internalType": "address",
							"name": "buyer",
							"type": "address"
						},
						{
							"indexed": false,
							"internalType": "string",
							"name": "currency",
							"type": "string"
						},
						{
							"indexed": false,
							"internalType": "uint256",
							"name": "createdAt",
							"type": "uint256"
						}
					],
					"name": "BuyItemSuccessful",
					"type": "event"
				},
				{
					"anonymous": false,
					"inputs": [
						{
							"indexed": false,
							"internalType": "uint256",
							"name": "id",
							"type": "uint256"
						},
						{
							"indexed": true,
							"internalType": "uint256",
							"name": "assetId",
							"type": "uint256"
						},
						{
							"indexed": true,
							"internalType": "address",
							"name": "delistBy",
							"type": "address"
						},
						{
							"indexed": false,
							"internalType": "uint256",
							"name": "createdAt",
							"type": "uint256"
						}
					],
					"name": "DelistItemSuccessful",
					"type": "event"
				},
				{
					"anonymous": false,
					"inputs": [
						{
							"indexed": true,
							"internalType": "uint256",
							"name": "itemId",
							"type": "uint256"
						},
						{
							"indexed": true,
							"internalType": "uint256",
							"name": "tokenId",
							"type": "uint256"
						},
						{
							"indexed": false,
							"internalType": "address",
							"name": "seller",
							"type": "address"
						},
						{
							"indexed": false,
							"internalType": "address",
							"name": "owner",
							"type": "address"
						},
						{
							"indexed": false,
							"internalType": "uint256",
							"name": "price",
							"type": "uint256"
						}
					],
					"name": "MarketItemCreated",
					"type": "event"
				},
				{
					"anonymous": false,
					"inputs": [
						{
							"indexed": false,
							"internalType": "address",
							"name": "nftAddress",
							"type": "address"
						},
						{
							"indexed": false,
							"internalType": "bytes32",
							"name": "id",
							"type": "bytes32"
						},
						{
							"indexed": true,
							"internalType": "uint256",
							"name": "assetId",
							"type": "uint256"
						},
						{
							"indexed": false,
							"internalType": "uint256",
							"name": "price",
							"type": "uint256"
						},
						{
							"indexed": true,
							"internalType": "address",
							"name": "seller",
							"type": "address"
						},
						{
							"indexed": false,
							"internalType": "string",
							"name": "currency",
							"type": "string"
						},
						{
							"indexed": false,
							"internalType": "uint256",
							"name": "createdAt",
							"type": "uint256"
						}
					],
					"name": "SellItemSuccessful",
					"type": "event"
				},
				{
					"inputs": [],
					"name": "ERC721_Interface",
					"outputs": [
						{
							"internalType": "bytes4",
							"name": "",
							"type": "bytes4"
						}
					],
					"stateMutability": "view",
					"type": "function"
				},
				{
					"inputs": [
						{
							"internalType": "uint256",
							"name": "",
							"type": "uint256"
						}
					],
					"name": "allItems",
					"outputs": [
						{
							"internalType": "uint256",
							"name": "itemId",
							"type": "uint256"
						},
						{
							"internalType": "uint256",
							"name": "tokenId",
							"type": "uint256"
						},
						{
							"internalType": "address",
							"name": "seller",
							"type": "address"
						},
						{
							"internalType": "address",
							"name": "owner",
							"type": "address"
						},
						{
							"internalType": "uint256",
							"name": "price",
							"type": "uint256"
						},
						{
							"internalType": "enum MarketplaceStorage.ItemStatus",
							"name": "status",
							"type": "uint8"
						}
					],
					"stateMutability": "view",
					"type": "function"
				},
				{
					"inputs": [],
					"name": "antaFeePercent",
					"outputs": [
						{
							"internalType": "uint8",
							"name": "",
							"type": "uint8"
						}
					],
					"stateMutability": "view",
					"type": "function"
				},
				{
					"inputs": [],
					"name": "bnbFeePercent",
					"outputs": [
						{
							"internalType": "uint8",
							"name": "",
							"type": "uint8"
						}
					],
					"stateMutability": "view",
					"type": "function"
				},
				{
					"inputs": [],
					"name": "factory",
					"outputs": [
						{
							"internalType": "contract IFactory",
							"name": "",
							"type": "address"
						}
					],
					"stateMutability": "view",
					"type": "function"
				},
				{
					"inputs": [
						{
							"internalType": "uint256",
							"name": "",
							"type": "uint256"
						}
					],
					"name": "items",
					"outputs": [
						{
							"internalType": "uint256",
							"name": "itemId",
							"type": "uint256"
						},
						{
							"internalType": "uint256",
							"name": "tokenId",
							"type": "uint256"
						},
						{
							"internalType": "address",
							"name": "seller",
							"type": "address"
						},
						{
							"internalType": "address",
							"name": "owner",
							"type": "address"
						},
						{
							"internalType": "uint256",
							"name": "price",
							"type": "uint256"
						},
						{
							"internalType": "enum MarketplaceStorage.ItemStatus",
							"name": "status",
							"type": "uint8"
						}
					],
					"stateMutability": "view",
					"type": "function"
				},
				{
					"inputs": [],
					"name": "mainNFTs",
					"outputs": [
						{
							"internalType": "contract IERC721",
							"name": "",
							"type": "address"
						}
					],
					"stateMutability": "view",
					"type": "function"
				},
				{
					"inputs": [],
					"name": "mainToken",
					"outputs": [
						{
							"internalType": "contract IERC20",
							"name": "",
							"type": "address"
						}
					],
					"stateMutability": "view",
					"type": "function"
				}
			],
			"devdoc": {
				"kind": "dev",
				"methods": {},
				"version": 1
			},
			"evm": {
				"assembly": "    /* \"contracts/Marketplace2/Marketplace.sol\":15669:17142  contract MarketplaceStorage {... */\n  mstore(0x40, 0x80)\n  callvalue\n  dup1\n  iszero\n  tag_1\n  jumpi\n  0x00\n  dup1\n  revert\ntag_1:\n  pop\n  dataSize(sub_0)\n  dup1\n  dataOffset(sub_0)\n  0x00\n  codecopy\n  0x00\n  return\nstop\n\nsub_0: assembly {\n        /* \"contracts/Marketplace2/Marketplace.sol\":15669:17142  contract MarketplaceStorage {... */\n      mstore(0x40, 0x80)\n      callvalue\n      dup1\n      iszero\n      tag_1\n      jumpi\n      0x00\n      dup1\n      revert\n    tag_1:\n      pop\n      jumpi(tag_2, lt(calldatasize, 0x04))\n      shr(0xe0, calldataload(0x00))\n      dup1\n      0xbfb231d2\n      gt\n      tag_11\n      jumpi\n      dup1\n      0xbfb231d2\n      eq\n      tag_7\n      jumpi\n      dup1\n      0xc45a0155\n      eq\n      tag_8\n      jumpi\n      dup1\n      0xf55de0c7\n      eq\n      tag_9\n      jumpi\n      dup1\n      0xff68fa6e\n      eq\n      tag_10\n      jumpi\n      jump(tag_2)\n    tag_11:\n      dup1\n      0x2b4c32be\n      eq\n      tag_3\n      jumpi\n      dup1\n      0x3fc15f15\n      eq\n      tag_4\n      jumpi\n      dup1\n      0x85a8b36c\n      eq\n      tag_5\n      jumpi\n      dup1\n      0xb7a60c7e\n      eq\n      tag_6\n      jumpi\n    tag_2:\n      0x00\n      dup1\n      revert\n        /* \"contracts/Marketplace2/Marketplace.sol\":15944:16004  bytes4 public constant ERC721_Interface = bytes4(0x80ac58cd) */\n    tag_3:\n      tag_12\n      tag_13\n      jump\t// in\n    tag_12:\n      mload(0x40)\n      tag_14\n      swap2\n      swap1\n      tag_15\n      jump\t// in\n    tag_14:\n      mload(0x40)\n      dup1\n      swap2\n      sub\n      swap1\n      return\n        /* \"contracts/Marketplace2/Marketplace.sol\":16208:16231  IERC20 public mainToken */\n    tag_4:\n      tag_16\n      tag_17\n      jump\t// in\n    tag_16:\n      mload(0x40)\n      tag_18\n      swap2\n      swap1\n      tag_19\n      jump\t// in\n    tag_18:\n      mload(0x40)\n      dup1\n      swap2\n      sub\n      swap1\n      return\n        /* \"contracts/Marketplace2/Marketplace.sol\":16296:16322  uint8 public bnbFeePercent */\n    tag_5:\n      tag_20\n      tag_21\n      jump\t// in\n    tag_20:\n      mload(0x40)\n      tag_22\n      swap2\n      swap1\n      tag_23\n      jump\t// in\n    tag_22:\n      mload(0x40)\n      dup1\n      swap2\n      sub\n      swap1\n      return\n        /* \"contracts/Marketplace2/Marketplace.sol\":16328:16355  uint8 public antaFeePercent */\n    tag_6:\n      tag_24\n      tag_25\n      jump\t// in\n    tag_24:\n      mload(0x40)\n      tag_26\n      swap2\n      swap1\n      tag_23\n      jump\t// in\n    tag_26:\n      mload(0x40)\n      dup1\n      swap2\n      sub\n      swap1\n      return\n        /* \"contracts/Marketplace2/Marketplace.sol\":15913:15938  MarketItem[] public items */\n    tag_7:\n      tag_27\n      0x04\n      dup1\n      calldatasize\n      sub\n      dup2\n      add\n      swap1\n      tag_28\n      swap2\n      swap1\n      tag_29\n      jump\t// in\n    tag_28:\n      tag_30\n      jump\t// in\n    tag_27:\n      mload(0x40)\n      tag_31\n      swap7\n      swap6\n      swap5\n      swap4\n      swap3\n      swap2\n      swap1\n      tag_32\n      jump\t// in\n    tag_31:\n      mload(0x40)\n      dup1\n      swap2\n      sub\n      swap1\n      return\n        /* \"contracts/Marketplace2/Marketplace.sol\":16237:16260  IFactory public factory */\n    tag_8:\n      tag_33\n      tag_34\n      jump\t// in\n    tag_33:\n      mload(0x40)\n      tag_35\n      swap2\n      swap1\n      tag_36\n      jump\t// in\n    tag_35:\n      mload(0x40)\n      dup1\n      swap2\n      sub\n      swap1\n      return\n        /* \"contracts/Marketplace2/Marketplace.sol\":16266:16289  IERC721 public mainNFTs */\n    tag_9:\n      tag_37\n      tag_38\n      jump\t// in\n    tag_37:\n      mload(0x40)\n      tag_39\n      swap2\n      swap1\n      tag_40\n      jump\t// in\n    tag_39:\n      mload(0x40)\n      dup1\n      swap2\n      sub\n      swap1\n      return\n        /* \"contracts/Marketplace2/Marketplace.sol\":16011:16058  mapping (uint256 => MarketItem) public allItems */\n    tag_10:\n      tag_41\n      0x04\n      dup1\n      calldatasize\n      sub\n      dup2\n      add\n      swap1\n      tag_42\n      swap2\n      swap1\n      tag_29\n      jump\t// in\n    tag_42:\n      tag_43\n      jump\t// in\n    tag_41:\n      mload(0x40)\n      tag_44\n      swap7\n      swap6\n      swap5\n      swap4\n      swap3\n      swap2\n      swap1\n      tag_32\n      jump\t// in\n    tag_44:\n      mload(0x40)\n      dup1\n      swap2\n      sub\n      swap1\n      return\n        /* \"contracts/Marketplace2/Marketplace.sol\":15944:16004  bytes4 public constant ERC721_Interface = bytes4(0x80ac58cd) */\n    tag_13:\n        /* \"contracts/Marketplace2/Marketplace.sol\":15993:16003  0x80ac58cd */\n      0x80ac58cd\n        /* \"contracts/Marketplace2/Marketplace.sol\":15986:16004  bytes4(0x80ac58cd) */\n      0xe0\n      shl\n        /* \"contracts/Marketplace2/Marketplace.sol\":15944:16004  bytes4 public constant ERC721_Interface = bytes4(0x80ac58cd) */\n      dup2\n      jump\t// out\n        /* \"contracts/Marketplace2/Marketplace.sol\":16208:16231  IERC20 public mainToken */\n    tag_17:\n      0x02\n      0x00\n      swap1\n      sload\n      swap1\n      0x0100\n      exp\n      swap1\n      div\n      0xffffffffffffffffffffffffffffffffffffffff\n      and\n      dup2\n      jump\t// out\n        /* \"contracts/Marketplace2/Marketplace.sol\":16296:16322  uint8 public bnbFeePercent */\n    tag_21:\n      0x04\n      0x14\n      swap1\n      sload\n      swap1\n      0x0100\n      exp\n      swap1\n      div\n      0xff\n      and\n      dup2\n      jump\t// out\n        /* \"contracts/Marketplace2/Marketplace.sol\":16328:16355  uint8 public antaFeePercent */\n    tag_25:\n      0x04\n      0x15\n      swap1\n      sload\n      swap1\n      0x0100\n      exp\n      swap1\n      div\n      0xff\n      and\n      dup2\n      jump\t// out\n        /* \"contracts/Marketplace2/Marketplace.sol\":15913:15938  MarketItem[] public items */\n    tag_30:\n      0x00\n      dup2\n      dup2\n      sload\n      dup2\n      lt\n      tag_45\n      jumpi\n      0x00\n      dup1\n      revert\n    tag_45:\n      swap1\n      0x00\n      mstore\n      keccak256(0x00, 0x20)\n      swap1\n      0x06\n      mul\n      add\n      0x00\n      swap2\n      pop\n      swap1\n      pop\n      dup1\n      0x00\n      add\n      sload\n      swap1\n      dup1\n      0x01\n      add\n      sload\n      swap1\n      dup1\n      0x02\n      add\n      0x00\n      swap1\n      sload\n      swap1\n      0x0100\n      exp\n      swap1\n      div\n      0xffffffffffffffffffffffffffffffffffffffff\n      and\n      swap1\n      dup1\n      0x03\n      add\n      0x00\n      swap1\n      sload\n      swap1\n      0x0100\n      exp\n      swap1\n      div\n      0xffffffffffffffffffffffffffffffffffffffff\n      and\n      swap1\n      dup1\n      0x04\n      add\n      sload\n      swap1\n      dup1\n      0x05\n      add\n      0x00\n      swap1\n      sload\n      swap1\n      0x0100\n      exp\n      swap1\n      div\n      0xff\n      and\n      swap1\n      pop\n      dup7\n      jump\t// out\n        /* \"contracts/Marketplace2/Marketplace.sol\":16237:16260  IFactory public factory */\n    tag_34:\n      0x03\n      0x00\n      swap1\n      sload\n      swap1\n      0x0100\n      exp\n      swap1\n      div\n      0xffffffffffffffffffffffffffffffffffffffff\n      and\n      dup2\n      jump\t// out\n        /* \"contracts/Marketplace2/Marketplace.sol\":16266:16289  IERC721 public mainNFTs */\n    tag_38:\n      0x04\n      0x00\n      swap1\n      sload\n      swap1\n      0x0100\n      exp\n      swap1\n      div\n      0xffffffffffffffffffffffffffffffffffffffff\n      and\n      dup2\n      jump\t// out\n        /* \"contracts/Marketplace2/Marketplace.sol\":16011:16058  mapping (uint256 => MarketItem) public allItems */\n    tag_43:\n      mstore(0x20, 0x01)\n      dup1\n      0x00\n      mstore\n      keccak256(0x00, 0x40)\n      0x00\n      swap2\n      pop\n      swap1\n      pop\n      dup1\n      0x00\n      add\n      sload\n      swap1\n      dup1\n      0x01\n      add\n      sload\n      swap1\n      dup1\n      0x02\n      add\n      0x00\n      swap1\n      sload\n      swap1\n      0x0100\n      exp\n      swap1\n      div\n      0xffffffffffffffffffffffffffffffffffffffff\n      and\n      swap1\n      dup1\n      0x03\n      add\n      0x00\n      swap1\n      sload\n      swap1\n      0x0100\n      exp\n      swap1\n      div\n      0xffffffffffffffffffffffffffffffffffffffff\n      and\n      swap1\n      dup1\n      0x04\n      add\n      sload\n      swap1\n      dup1\n      0x05\n      add\n      0x00\n      swap1\n      sload\n      swap1\n      0x0100\n      exp\n      swap1\n      div\n      0xff\n      and\n      swap1\n      pop\n      dup7\n      jump\t// out\n        /* \"#utility.yul\":7:156   */\n    tag_47:\n        /* \"#utility.yul\":43:50   */\n      0x00\n        /* \"#utility.yul\":83:149   */\n      0xffffffff00000000000000000000000000000000000000000000000000000000\n        /* \"#utility.yul\":76:81   */\n      dup3\n        /* \"#utility.yul\":72:150   */\n      and\n        /* \"#utility.yul\":61:150   */\n      swap1\n      pop\n        /* \"#utility.yul\":7:156   */\n      swap2\n      swap1\n      pop\n      jump\t// out\n        /* \"#utility.yul\":162:277   */\n    tag_48:\n        /* \"#utility.yul\":247:270   */\n      tag_78\n        /* \"#utility.yul\":264:269   */\n      dup2\n        /* \"#utility.yul\":247:270   */\n      tag_47\n      jump\t// in\n    tag_78:\n        /* \"#utility.yul\":242:245   */\n      dup3\n        /* \"#utility.yul\":235:271   */\n      mstore\n        /* \"#utility.yul\":162:277   */\n      pop\n      pop\n      jump\t// out\n        /* \"#utility.yul\":283:501   */\n    tag_15:\n        /* \"#utility.yul\":374:378   */\n      0x00\n        /* \"#utility.yul\":412:414   */\n      0x20\n        /* \"#utility.yul\":401:410   */\n      dup3\n        /* \"#utility.yul\":397:415   */\n      add\n        /* \"#utility.yul\":389:415   */\n      swap1\n      pop\n        /* \"#utility.yul\":425:494   */\n      tag_80\n        /* \"#utility.yul\":491:492   */\n      0x00\n        /* \"#utility.yul\":480:489   */\n      dup4\n        /* \"#utility.yul\":476:493   */\n      add\n        /* \"#utility.yul\":467:473   */\n      dup5\n        /* \"#utility.yul\":425:494   */\n      tag_48\n      jump\t// in\n    tag_80:\n        /* \"#utility.yul\":283:501   */\n      swap3\n      swap2\n      pop\n      pop\n      jump\t// out\n        /* \"#utility.yul\":507:633   */\n    tag_49:\n        /* \"#utility.yul\":544:551   */\n      0x00\n        /* \"#utility.yul\":584:626   */\n      0xffffffffffffffffffffffffffffffffffffffff\n        /* \"#utility.yul\":577:582   */\n      dup3\n        /* \"#utility.yul\":573:627   */\n      and\n        /* \"#utility.yul\":562:627   */\n      swap1\n      pop\n        /* \"#utility.yul\":507:633   */\n      swap2\n      swap1\n      pop\n      jump\t// out\n        /* \"#utility.yul\":639:699   */\n    tag_50:\n        /* \"#utility.yul\":667:670   */\n      0x00\n        /* \"#utility.yul\":688:693   */\n      dup2\n        /* \"#utility.yul\":681:693   */\n      swap1\n      pop\n        /* \"#utility.yul\":639:699   */\n      swap2\n      swap1\n      pop\n      jump\t// out\n        /* \"#utility.yul\":705:847   */\n    tag_51:\n        /* \"#utility.yul\":755:764   */\n      0x00\n        /* \"#utility.yul\":788:841   */\n      tag_84\n        /* \"#utility.yul\":806:840   */\n      tag_85\n        /* \"#utility.yul\":815:839   */\n      tag_86\n        /* \"#utility.yul\":833:838   */\n      dup5\n        /* \"#utility.yul\":815:839   */\n      tag_49\n      jump\t// in\n    tag_86:\n        /* \"#utility.yul\":806:840   */\n      tag_50\n      jump\t// in\n    tag_85:\n        /* \"#utility.yul\":788:841   */\n      tag_49\n      jump\t// in\n    tag_84:\n        /* \"#utility.yul\":775:841   */\n      swap1\n      pop\n        /* \"#utility.yul\":705:847   */\n      swap2\n      swap1\n      pop\n      jump\t// out\n        /* \"#utility.yul\":853:979   */\n    tag_52:\n        /* \"#utility.yul\":903:912   */\n      0x00\n        /* \"#utility.yul\":936:973   */\n      tag_88\n        /* \"#utility.yul\":967:972   */\n      dup3\n        /* \"#utility.yul\":936:973   */\n      tag_51\n      jump\t// in\n    tag_88:\n        /* \"#utility.yul\":923:973   */\n      swap1\n      pop\n        /* \"#utility.yul\":853:979   */\n      swap2\n      swap1\n      pop\n      jump\t// out\n        /* \"#utility.yul\":985:1125   */\n    tag_53:\n        /* \"#utility.yul\":1049:1058   */\n      0x00\n        /* \"#utility.yul\":1082:1119   */\n      tag_90\n        /* \"#utility.yul\":1113:1118   */\n      dup3\n        /* \"#utility.yul\":1082:1119   */\n      tag_52\n      jump\t// in\n    tag_90:\n        /* \"#utility.yul\":1069:1119   */\n      swap1\n      pop\n        /* \"#utility.yul\":985:1125   */\n      swap2\n      swap1\n      pop\n      jump\t// out\n        /* \"#utility.yul\":1131:1290   */\n    tag_54:\n        /* \"#utility.yul\":1232:1283   */\n      tag_92\n        /* \"#utility.yul\":1277:1282   */\n      dup2\n        /* \"#utility.yul\":1232:1283   */\n      tag_53\n      jump\t// in\n    tag_92:\n        /* \"#utility.yul\":1227:1230   */\n      dup3\n        /* \"#utility.yul\":1220:1284   */\n      mstore\n        /* \"#utility.yul\":1131:1290   */\n      pop\n      pop\n      jump\t// out\n        /* \"#utility.yul\":1296:1546   */\n    tag_19:\n        /* \"#utility.yul\":1403:1407   */\n      0x00\n        /* \"#utility.yul\":1441:1443   */\n      0x20\n        /* \"#utility.yul\":1430:1439   */\n      dup3\n        /* \"#utility.yul\":1426:1444   */\n      add\n        /* \"#utility.yul\":1418:1444   */\n      swap1\n      pop\n        /* \"#utility.yul\":1454:1539   */\n      tag_94\n        /* \"#utility.yul\":1536:1537   */\n      0x00\n        /* \"#utility.yul\":1525:1534   */\n      dup4\n        /* \"#utility.yul\":1521:1538   */\n      add\n        /* \"#utility.yul\":1512:1518   */\n      dup5\n        /* \"#utility.yul\":1454:1539   */\n      tag_54\n      jump\t// in\n    tag_94:\n        /* \"#utility.yul\":1296:1546   */\n      swap3\n      swap2\n      pop\n      pop\n      jump\t// out\n        /* \"#utility.yul\":1552:1638   */\n    tag_55:\n        /* \"#utility.yul\":1587:1594   */\n      0x00\n        /* \"#utility.yul\":1627:1631   */\n      0xff\n        /* \"#utility.yul\":1620:1625   */\n      dup3\n        /* \"#utility.yul\":1616:1632   */\n      and\n        /* \"#utility.yul\":1605:1632   */\n      swap1\n      pop\n        /* \"#utility.yul\":1552:1638   */\n      swap2\n      swap1\n      pop\n      jump\t// out\n        /* \"#utility.yul\":1644:1756   */\n    tag_56:\n        /* \"#utility.yul\":1727:1749   */\n      tag_97\n        /* \"#utility.yul\":1743:1748   */\n      dup2\n        /* \"#utility.yul\":1727:1749   */\n      tag_55\n      jump\t// in\n    tag_97:\n        /* \"#utility.yul\":1722:1725   */\n      dup3\n        /* \"#utility.yul\":1715:1750   */\n      mstore\n        /* \"#utility.yul\":1644:1756   */\n      pop\n      pop\n      jump\t// out\n        /* \"#utility.yul\":1762:1976   */\n    tag_23:\n        /* \"#utility.yul\":1851:1855   */\n      0x00\n        /* \"#utility.yul\":1889:1891   */\n      0x20\n        /* \"#utility.yul\":1878:1887   */\n      dup3\n        /* \"#utility.yul\":1874:1892   */\n      add\n        /* \"#utility.yul\":1866:1892   */\n      swap1\n      pop\n        /* \"#utility.yul\":1902:1969   */\n      tag_99\n        /* \"#utility.yul\":1966:1967   */\n      0x00\n        /* \"#utility.yul\":1955:1964   */\n      dup4\n        /* \"#utility.yul\":1951:1968   */\n      add\n        /* \"#utility.yul\":1942:1948   */\n      dup5\n        /* \"#utility.yul\":1902:1969   */\n      tag_56\n      jump\t// in\n    tag_99:\n        /* \"#utility.yul\":1762:1976   */\n      swap3\n      swap2\n      pop\n      pop\n      jump\t// out\n        /* \"#utility.yul\":2063:2180   */\n    tag_58:\n        /* \"#utility.yul\":2172:2173   */\n      0x00\n        /* \"#utility.yul\":2169:2170   */\n      dup1\n        /* \"#utility.yul\":2162:2174   */\n      revert\n        /* \"#utility.yul\":2309:2386   */\n    tag_60:\n        /* \"#utility.yul\":2346:2353   */\n      0x00\n        /* \"#utility.yul\":2375:2380   */\n      dup2\n        /* \"#utility.yul\":2364:2380   */\n      swap1\n      pop\n        /* \"#utility.yul\":2309:2386   */\n      swap2\n      swap1\n      pop\n      jump\t// out\n        /* \"#utility.yul\":2392:2514   */\n    tag_61:\n        /* \"#utility.yul\":2465:2489   */\n      tag_105\n        /* \"#utility.yul\":2483:2488   */\n      dup2\n        /* \"#utility.yul\":2465:2489   */\n      tag_60\n      jump\t// in\n    tag_105:\n        /* \"#utility.yul\":2458:2463   */\n      dup2\n        /* \"#utility.yul\":2455:2490   */\n      eq\n        /* \"#utility.yul\":2445:2508   */\n      tag_106\n      jumpi\n        /* \"#utility.yul\":2504:2505   */\n      0x00\n        /* \"#utility.yul\":2501:2502   */\n      dup1\n        /* \"#utility.yul\":2494:2506   */\n      revert\n        /* \"#utility.yul\":2445:2508   */\n    tag_106:\n        /* \"#utility.yul\":2392:2514   */\n      pop\n      jump\t// out\n        /* \"#utility.yul\":2520:2659   */\n    tag_62:\n        /* \"#utility.yul\":2566:2571   */\n      0x00\n        /* \"#utility.yul\":2604:2610   */\n      dup2\n        /* \"#utility.yul\":2591:2611   */\n      calldataload\n        /* \"#utility.yul\":2582:2611   */\n      swap1\n      pop\n        /* \"#utility.yul\":2620:2653   */\n      tag_108\n        /* \"#utility.yul\":2647:2652   */\n      dup2\n        /* \"#utility.yul\":2620:2653   */\n      tag_61\n      jump\t// in\n    tag_108:\n        /* \"#utility.yul\":2520:2659   */\n      swap3\n      swap2\n      pop\n      pop\n      jump\t// out\n        /* \"#utility.yul\":2665:2994   */\n    tag_29:\n        /* \"#utility.yul\":2724:2730   */\n      0x00\n        /* \"#utility.yul\":2773:2775   */\n      0x20\n        /* \"#utility.yul\":2761:2770   */\n      dup3\n        /* \"#utility.yul\":2752:2759   */\n      dup5\n        /* \"#utility.yul\":2748:2771   */\n      sub\n        /* \"#utility.yul\":2744:2776   */\n      slt\n        /* \"#utility.yul\":2741:2860   */\n      iszero\n      tag_110\n      jumpi\n        /* \"#utility.yul\":2779:2858   */\n      tag_111\n      tag_58\n      jump\t// in\n    tag_111:\n        /* \"#utility.yul\":2741:2860   */\n    tag_110:\n        /* \"#utility.yul\":2899:2900   */\n      0x00\n        /* \"#utility.yul\":2924:2977   */\n      tag_112\n        /* \"#utility.yul\":2969:2976   */\n      dup5\n        /* \"#utility.yul\":2960:2966   */\n      dup3\n        /* \"#utility.yul\":2949:2958   */\n      dup6\n        /* \"#utility.yul\":2945:2967   */\n      add\n        /* \"#utility.yul\":2924:2977   */\n      tag_62\n      jump\t// in\n    tag_112:\n        /* \"#utility.yul\":2914:2977   */\n      swap2\n      pop\n        /* \"#utility.yul\":2870:2987   */\n      pop\n        /* \"#utility.yul\":2665:2994   */\n      swap3\n      swap2\n      pop\n      pop\n      jump\t// out\n        /* \"#utility.yul\":3000:3118   */\n    tag_63:\n        /* \"#utility.yul\":3087:3111   */\n      tag_114\n        /* \"#utility.yul\":3105:3110   */\n      dup2\n        /* \"#utility.yul\":3087:3111   */\n      tag_60\n      jump\t// in\n    tag_114:\n        /* \"#utility.yul\":3082:3085   */\n      dup3\n        /* \"#utility.yul\":3075:3112   */\n      mstore\n        /* \"#utility.yul\":3000:3118   */\n      pop\n      pop\n      jump\t// out\n        /* \"#utility.yul\":3124:3220   */\n    tag_64:\n        /* \"#utility.yul\":3161:3168   */\n      0x00\n        /* \"#utility.yul\":3190:3214   */\n      tag_116\n        /* \"#utility.yul\":3208:3213   */\n      dup3\n        /* \"#utility.yul\":3190:3214   */\n      tag_49\n      jump\t// in\n    tag_116:\n        /* \"#utility.yul\":3179:3214   */\n      swap1\n      pop\n        /* \"#utility.yul\":3124:3220   */\n      swap2\n      swap1\n      pop\n      jump\t// out\n        /* \"#utility.yul\":3226:3344   */\n    tag_65:\n        /* \"#utility.yul\":3313:3337   */\n      tag_118\n        /* \"#utility.yul\":3331:3336   */\n      dup2\n        /* \"#utility.yul\":3313:3337   */\n      tag_64\n      jump\t// in\n    tag_118:\n        /* \"#utility.yul\":3308:3311   */\n      dup3\n        /* \"#utility.yul\":3301:3338   */\n      mstore\n        /* \"#utility.yul\":3226:3344   */\n      pop\n      pop\n      jump\t// out\n        /* \"#utility.yul\":3350:3530   */\n    tag_66:\n        /* \"#utility.yul\":3398:3475   */\n      0x4e487b7100000000000000000000000000000000000000000000000000000000\n        /* \"#utility.yul\":3395:3396   */\n      0x00\n        /* \"#utility.yul\":3388:3476   */\n      mstore\n        /* \"#utility.yul\":3495:3499   */\n      0x21\n        /* \"#utility.yul\":3492:3493   */\n      0x04\n        /* \"#utility.yul\":3485:3500   */\n      mstore\n        /* \"#utility.yul\":3519:3523   */\n      0x24\n        /* \"#utility.yul\":3516:3517   */\n      0x00\n        /* \"#utility.yul\":3509:3524   */\n      revert\n        /* \"#utility.yul\":3536:3655   */\n    tag_67:\n        /* \"#utility.yul\":3623:3624   */\n      0x02\n        /* \"#utility.yul\":3616:3621   */\n      dup2\n        /* \"#utility.yul\":3613:3625   */\n      lt\n        /* \"#utility.yul\":3603:3649   */\n      tag_121\n      jumpi\n        /* \"#utility.yul\":3629:3647   */\n      tag_122\n      tag_66\n      jump\t// in\n    tag_122:\n        /* \"#utility.yul\":3603:3649   */\n    tag_121:\n        /* \"#utility.yul\":3536:3655   */\n      pop\n      jump\t// out\n        /* \"#utility.yul\":3661:3800   */\n    tag_68:\n        /* \"#utility.yul\":3712:3719   */\n      0x00\n        /* \"#utility.yul\":3741:3746   */\n      dup2\n        /* \"#utility.yul\":3730:3746   */\n      swap1\n      pop\n        /* \"#utility.yul\":3747:3794   */\n      tag_124\n        /* \"#utility.yul\":3788:3793   */\n      dup3\n        /* \"#utility.yul\":3747:3794   */\n      tag_67\n      jump\t// in\n    tag_124:\n        /* \"#utility.yul\":3661:3800   */\n      swap2\n      swap1\n      pop\n      jump\t// out\n        /* \"#utility.yul\":3806:3945   */\n    tag_69:\n        /* \"#utility.yul\":3868:3877   */\n      0x00\n        /* \"#utility.yul\":3901:3939   */\n      tag_126\n        /* \"#utility.yul\":3933:3938   */\n      dup3\n        /* \"#utility.yul\":3901:3939   */\n      tag_68\n      jump\t// in\n    tag_126:\n        /* \"#utility.yul\":3888:3939   */\n      swap1\n      pop\n        /* \"#utility.yul\":3806:3945   */\n      swap2\n      swap1\n      pop\n      jump\t// out\n        /* \"#utility.yul\":3951:4106   */\n    tag_70:\n        /* \"#utility.yul\":4050:4099   */\n      tag_128\n        /* \"#utility.yul\":4093:4098   */\n      dup2\n        /* \"#utility.yul\":4050:4099   */\n      tag_69\n      jump\t// in\n    tag_128:\n        /* \"#utility.yul\":4045:4048   */\n      dup3\n        /* \"#utility.yul\":4038:4100   */\n      mstore\n        /* \"#utility.yul\":3951:4106   */\n      pop\n      pop\n      jump\t// out\n        /* \"#utility.yul\":4112:4911   */\n    tag_32:\n        /* \"#utility.yul\":4357:4361   */\n      0x00\n        /* \"#utility.yul\":4395:4398   */\n      0xc0\n        /* \"#utility.yul\":4384:4393   */\n      dup3\n        /* \"#utility.yul\":4380:4399   */\n      add\n        /* \"#utility.yul\":4372:4399   */\n      swap1\n      pop\n        /* \"#utility.yul\":4409:4480   */\n      tag_130\n        /* \"#utility.yul\":4477:4478   */\n      0x00\n        /* \"#utility.yul\":4466:4475   */\n      dup4\n        /* \"#utility.yul\":4462:4479   */\n      add\n        /* \"#utility.yul\":4453:4459   */\n      dup10\n        /* \"#utility.yul\":4409:4480   */\n      tag_63\n      jump\t// in\n    tag_130:\n        /* \"#utility.yul\":4490:4562   */\n      tag_131\n        /* \"#utility.yul\":4558:4560   */\n      0x20\n        /* \"#utility.yul\":4547:4556   */\n      dup4\n        /* \"#utility.yul\":4543:4561   */\n      add\n        /* \"#utility.yul\":4534:4540   */\n      dup9\n        /* \"#utility.yul\":4490:4562   */\n      tag_63\n      jump\t// in\n    tag_131:\n        /* \"#utility.yul\":4572:4644   */\n      tag_132\n        /* \"#utility.yul\":4640:4642   */\n      0x40\n        /* \"#utility.yul\":4629:4638   */\n      dup4\n        /* \"#utility.yul\":4625:4643   */\n      add\n        /* \"#utility.yul\":4616:4622   */\n      dup8\n        /* \"#utility.yul\":4572:4644   */\n      tag_65\n      jump\t// in\n    tag_132:\n        /* \"#utility.yul\":4654:4726   */\n      tag_133\n        /* \"#utility.yul\":4722:4724   */\n      0x60\n        /* \"#utility.yul\":4711:4720   */\n      dup4\n        /* \"#utility.yul\":4707:4725   */\n      add\n        /* \"#utility.yul\":4698:4704   */\n      dup7\n        /* \"#utility.yul\":4654:4726   */\n      tag_65\n      jump\t// in\n    tag_133:\n        /* \"#utility.yul\":4736:4809   */\n      tag_134\n        /* \"#utility.yul\":4804:4807   */\n      0x80\n        /* \"#utility.yul\":4793:4802   */\n      dup4\n        /* \"#utility.yul\":4789:4808   */\n      add\n        /* \"#utility.yul\":4780:4786   */\n      dup6\n        /* \"#utility.yul\":4736:4809   */\n      tag_63\n      jump\t// in\n    tag_134:\n        /* \"#utility.yul\":4819:4904   */\n      tag_135\n        /* \"#utility.yul\":4899:4902   */\n      0xa0\n        /* \"#utility.yul\":4888:4897   */\n      dup4\n        /* \"#utility.yul\":4884:4903   */\n      add\n        /* \"#utility.yul\":4875:4881   */\n      dup5\n        /* \"#utility.yul\":4819:4904   */\n      tag_70\n      jump\t// in\n    tag_135:\n        /* \"#utility.yul\":4112:4911   */\n      swap8\n      swap7\n      pop\n      pop\n      pop\n      pop\n      pop\n      pop\n      pop\n      jump\t// out\n        /* \"#utility.yul\":4917:5059   */\n    tag_71:\n        /* \"#utility.yul\":4983:4992   */\n      0x00\n        /* \"#utility.yul\":5016:5053   */\n      tag_137\n        /* \"#utility.yul\":5047:5052   */\n      dup3\n        /* \"#utility.yul\":5016:5053   */\n      tag_52\n      jump\t// in\n    tag_137:\n        /* \"#utility.yul\":5003:5053   */\n      swap1\n      pop\n        /* \"#utility.yul\":4917:5059   */\n      swap2\n      swap1\n      pop\n      jump\t// out\n        /* \"#utility.yul\":5065:5228   */\n    tag_72:\n        /* \"#utility.yul\":5168:5221   */\n      tag_139\n        /* \"#utility.yul\":5215:5220   */\n      dup2\n        /* \"#utility.yul\":5168:5221   */\n      tag_71\n      jump\t// in\n    tag_139:\n        /* \"#utility.yul\":5163:5166   */\n      dup3\n        /* \"#utility.yul\":5156:5222   */\n      mstore\n        /* \"#utility.yul\":5065:5228   */\n      pop\n      pop\n      jump\t// out\n        /* \"#utility.yul\":5234:5488   */\n    tag_36:\n        /* \"#utility.yul\":5343:5347   */\n      0x00\n        /* \"#utility.yul\":5381:5383   */\n      0x20\n        /* \"#utility.yul\":5370:5379   */\n      dup3\n        /* \"#utility.yul\":5366:5384   */\n      add\n        /* \"#utility.yul\":5358:5384   */\n      swap1\n      pop\n        /* \"#utility.yul\":5394:5481   */\n      tag_141\n        /* \"#utility.yul\":5478:5479   */\n      0x00\n        /* \"#utility.yul\":5467:5476   */\n      dup4\n        /* \"#utility.yul\":5463:5480   */\n      add\n        /* \"#utility.yul\":5454:5460   */\n      dup5\n        /* \"#utility.yul\":5394:5481   */\n      tag_72\n      jump\t// in\n    tag_141:\n        /* \"#utility.yul\":5234:5488   */\n      swap3\n      swap2\n      pop\n      pop\n      jump\t// out\n        /* \"#utility.yul\":5494:5635   */\n    tag_73:\n        /* \"#utility.yul\":5559:5568   */\n      0x00\n        /* \"#utility.yul\":5592:5629   */\n      tag_143\n        /* \"#utility.yul\":5623:5628   */\n      dup3\n        /* \"#utility.yul\":5592:5629   */\n      tag_52\n      jump\t// in\n    tag_143:\n        /* \"#utility.yul\":5579:5629   */\n      swap1\n      pop\n        /* \"#utility.yul\":5494:5635   */\n      swap2\n      swap1\n      pop\n      jump\t// out\n        /* \"#utility.yul\":5641:5802   */\n    tag_74:\n        /* \"#utility.yul\":5743:5795   */\n      tag_145\n        /* \"#utility.yul\":5789:5794   */\n      dup2\n        /* \"#utility.yul\":5743:5795   */\n      tag_73\n      jump\t// in\n    tag_145:\n        /* \"#utility.yul\":5738:5741   */\n      dup3\n        /* \"#utility.yul\":5731:5796   */\n      mstore\n        /* \"#utility.yul\":5641:5802   */\n      pop\n      pop\n      jump\t// out\n        /* \"#utility.yul\":5808:6060   */\n    tag_40:\n        /* \"#utility.yul\":5916:5920   */\n      0x00\n        /* \"#utility.yul\":5954:5956   */\n      0x20\n        /* \"#utility.yul\":5943:5952   */\n      dup3\n        /* \"#utility.yul\":5939:5957   */\n      add\n        /* \"#utility.yul\":5931:5957   */\n      swap1\n      pop\n        /* \"#utility.yul\":5967:6053   */\n      tag_147\n        /* \"#utility.yul\":6050:6051   */\n      0x00\n        /* \"#utility.yul\":6039:6048   */\n      dup4\n        /* \"#utility.yul\":6035:6052   */\n      add\n        /* \"#utility.yul\":6026:6032   */\n      dup5\n        /* \"#utility.yul\":5967:6053   */\n      tag_74\n      jump\t// in\n    tag_147:\n        /* \"#utility.yul\":5808:6060   */\n      swap3\n      swap2\n      pop\n      pop\n      jump\t// out\n\n    auxdata: 0xa264697066735822122075ce1fe6946757d1f44e273e6192a3a6f4853219c65cf3bc394acf750b72578b64736f6c634300080d0033\n}\n",
				"bytecode": {
					"linkReferences": {},
					"object": "608060405234801561001057600080fd5b506106b5806100206000396000f3fe608060405234801561001057600080fd5b50600436106100885760003560e01c8063bfb231d21161005b578063bfb231d214610105578063c45a01551461013a578063f55de0c714610158578063ff68fa6e1461017657610088565b80632b4c32be1461008d5780633fc15f15146100ab57806385a8b36c146100c9578063b7a60c7e146100e7575b600080fd5b6100956101ab565b6040516100a291906103ab565b60405180910390f35b6100b36101b6565b6040516100c09190610445565b60405180910390f35b6100d16101dc565b6040516100de919061047c565b60405180910390f35b6100ef6101ef565b6040516100fc919061047c565b60405180910390f35b61011f600480360381019061011a91906104d2565b610202565b604051610131969594939291906105a6565b60405180910390f35b61014261029b565b60405161014f9190610628565b60405180910390f35b6101606102c1565b60405161016d9190610664565b60405180910390f35b610190600480360381019061018b91906104d2565b6102e7565b6040516101a2969594939291906105a6565b60405180910390f35b6380ac58cd60e01b81565b600260009054906101000a900473ffffffffffffffffffffffffffffffffffffffff1681565b600460149054906101000a900460ff1681565b600460159054906101000a900460ff1681565b6000818154811061021257600080fd5b90600052602060002090600602016000915090508060000154908060010154908060020160009054906101000a900473ffffffffffffffffffffffffffffffffffffffff16908060030160009054906101000a900473ffffffffffffffffffffffffffffffffffffffff16908060040154908060050160009054906101000a900460ff16905086565b600360009054906101000a900473ffffffffffffffffffffffffffffffffffffffff1681565b600460009054906101000a900473ffffffffffffffffffffffffffffffffffffffff1681565b60016020528060005260406000206000915090508060000154908060010154908060020160009054906101000a900473ffffffffffffffffffffffffffffffffffffffff16908060030160009054906101000a900473ffffffffffffffffffffffffffffffffffffffff16908060040154908060050160009054906101000a900460ff16905086565b60007fffffffff0000000000000000000000000000000000000000000000000000000082169050919050565b6103a581610370565b82525050565b60006020820190506103c0600083018461039c565b92915050565b600073ffffffffffffffffffffffffffffffffffffffff82169050919050565b6000819050919050565b600061040b610406610401846103c6565b6103e6565b6103c6565b9050919050565b600061041d826103f0565b9050919050565b600061042f82610412565b9050919050565b61043f81610424565b82525050565b600060208201905061045a6000830184610436565b92915050565b600060ff82169050919050565b61047681610460565b82525050565b6000602082019050610491600083018461046d565b92915050565b600080fd5b6000819050919050565b6104af8161049c565b81146104ba57600080fd5b50565b6000813590506104cc816104a6565b92915050565b6000602082840312156104e8576104e7610497565b5b60006104f6848285016104bd565b91505092915050565b6105088161049c565b82525050565b6000610519826103c6565b9050919050565b6105298161050e565b82525050565b7f4e487b7100000000000000000000000000000000000000000000000000000000600052602160045260246000fd5b6002811061056f5761056e61052f565b5b50565b60008190506105808261055e565b919050565b600061059082610572565b9050919050565b6105a081610585565b82525050565b600060c0820190506105bb60008301896104ff565b6105c860208301886104ff565b6105d56040830187610520565b6105e26060830186610520565b6105ef60808301856104ff565b6105fc60a0830184610597565b979650505050505050565b600061061282610412565b9050919050565b61062281610607565b82525050565b600060208201905061063d6000830184610619565b92915050565b600061064e82610412565b9050919050565b61065e81610643565b82525050565b60006020820190506106796000830184610655565b9291505056fea264697066735822122075ce1fe6946757d1f44e273e6192a3a6f4853219c65cf3bc394acf750b72578b64736f6c634300080d0033",
					"opcodes": "PUSH1 0x80 PUSH1 0x40 MSTORE CALLVALUE DUP1 ISZERO PUSH2 0x10 JUMPI PUSH1 0x0 DUP1 REVERT JUMPDEST POP PUSH2 0x6B5 DUP1 PUSH2 0x20 PUSH1 0x0 CODECOPY PUSH1 0x0 RETURN INVALID PUSH1 0x80 PUSH1 0x40 MSTORE CALLVALUE DUP1 ISZERO PUSH2 0x10 JUMPI PUSH1 0x0 DUP1 REVERT JUMPDEST POP PUSH1 0x4 CALLDATASIZE LT PUSH2 0x88 JUMPI PUSH1 0x0 CALLDATALOAD PUSH1 0xE0 SHR DUP1 PUSH4 0xBFB231D2 GT PUSH2 0x5B JUMPI DUP1 PUSH4 0xBFB231D2 EQ PUSH2 0x105 JUMPI DUP1 PUSH4 0xC45A0155 EQ PUSH2 0x13A JUMPI DUP1 PUSH4 0xF55DE0C7 EQ PUSH2 0x158 JUMPI DUP1 PUSH4 0xFF68FA6E EQ PUSH2 0x176 JUMPI PUSH2 0x88 JUMP JUMPDEST DUP1 PUSH4 0x2B4C32BE EQ PUSH2 0x8D JUMPI DUP1 PUSH4 0x3FC15F15 EQ PUSH2 0xAB JUMPI DUP1 PUSH4 0x85A8B36C EQ PUSH2 0xC9 JUMPI DUP1 PUSH4 0xB7A60C7E EQ PUSH2 0xE7 JUMPI JUMPDEST PUSH1 0x0 DUP1 REVERT JUMPDEST PUSH2 0x95 PUSH2 0x1AB JUMP JUMPDEST PUSH1 0x40 MLOAD PUSH2 0xA2 SWAP2 SWAP1 PUSH2 0x3AB JUMP JUMPDEST PUSH1 0x40 MLOAD DUP1 SWAP2 SUB SWAP1 RETURN JUMPDEST PUSH2 0xB3 PUSH2 0x1B6 JUMP JUMPDEST PUSH1 0x40 MLOAD PUSH2 0xC0 SWAP2 SWAP1 PUSH2 0x445 JUMP JUMPDEST PUSH1 0x40 MLOAD DUP1 SWAP2 SUB SWAP1 RETURN JUMPDEST PUSH2 0xD1 PUSH2 0x1DC JUMP JUMPDEST PUSH1 0x40 MLOAD PUSH2 0xDE SWAP2 SWAP1 PUSH2 0x47C JUMP JUMPDEST PUSH1 0x40 MLOAD DUP1 SWAP2 SUB SWAP1 RETURN JUMPDEST PUSH2 0xEF PUSH2 0x1EF JUMP JUMPDEST PUSH1 0x40 MLOAD PUSH2 0xFC SWAP2 SWAP1 PUSH2 0x47C JUMP JUMPDEST PUSH1 0x40 MLOAD DUP1 SWAP2 SUB SWAP1 RETURN JUMPDEST PUSH2 0x11F PUSH1 0x4 DUP1 CALLDATASIZE SUB DUP2 ADD SWAP1 PUSH2 0x11A SWAP2 SWAP1 PUSH2 0x4D2 JUMP JUMPDEST PUSH2 0x202 JUMP JUMPDEST PUSH1 0x40 MLOAD PUSH2 0x131 SWAP7 SWAP6 SWAP5 SWAP4 SWAP3 SWAP2 SWAP1 PUSH2 0x5A6 JUMP JUMPDEST PUSH1 0x40 MLOAD DUP1 SWAP2 SUB SWAP1 RETURN JUMPDEST PUSH2 0x142 PUSH2 0x29B JUMP JUMPDEST PUSH1 0x40 MLOAD PUSH2 0x14F SWAP2 SWAP1 PUSH2 0x628 JUMP JUMPDEST PUSH1 0x40 MLOAD DUP1 SWAP2 SUB SWAP1 RETURN JUMPDEST PUSH2 0x160 PUSH2 0x2C1 JUMP JUMPDEST PUSH1 0x40 MLOAD PUSH2 0x16D SWAP2 SWAP1 PUSH2 0x664 JUMP JUMPDEST PUSH1 0x40 MLOAD DUP1 SWAP2 SUB SWAP1 RETURN JUMPDEST PUSH2 0x190 PUSH1 0x4 DUP1 CALLDATASIZE SUB DUP2 ADD SWAP1 PUSH2 0x18B SWAP2 SWAP1 PUSH2 0x4D2 JUMP JUMPDEST PUSH2 0x2E7 JUMP JUMPDEST PUSH1 0x40 MLOAD PUSH2 0x1A2 SWAP7 SWAP6 SWAP5 SWAP4 SWAP3 SWAP2 SWAP1 PUSH2 0x5A6 JUMP JUMPDEST PUSH1 0x40 MLOAD DUP1 SWAP2 SUB SWAP1 RETURN JUMPDEST PUSH4 0x80AC58CD PUSH1 0xE0 SHL DUP2 JUMP JUMPDEST PUSH1 0x2 PUSH1 0x0 SWAP1 SLOAD SWAP1 PUSH2 0x100 EXP SWAP1 DIV PUSH20 0xFFFFFFFFFFFFFFFFFFFFFFFFFFFFFFFFFFFFFFFF AND DUP2 JUMP JUMPDEST PUSH1 0x4 PUSH1 0x14 SWAP1 SLOAD SWAP1 PUSH2 0x100 EXP SWAP1 DIV PUSH1 0xFF AND DUP2 JUMP JUMPDEST PUSH1 0x4 PUSH1 0x15 SWAP1 SLOAD SWAP1 PUSH2 0x100 EXP SWAP1 DIV PUSH1 0xFF AND DUP2 JUMP JUMPDEST PUSH1 0x0 DUP2 DUP2 SLOAD DUP2 LT PUSH2 0x212 JUMPI PUSH1 0x0 DUP1 REVERT JUMPDEST SWAP1 PUSH1 0x0 MSTORE PUSH1 0x20 PUSH1 0x0 KECCAK256 SWAP1 PUSH1 0x6 MUL ADD PUSH1 0x0 SWAP2 POP SWAP1 POP DUP1 PUSH1 0x0 ADD SLOAD SWAP1 DUP1 PUSH1 0x1 ADD SLOAD SWAP1 DUP1 PUSH1 0x2 ADD PUSH1 0x0 SWAP1 SLOAD SWAP1 PUSH2 0x100 EXP SWAP1 DIV PUSH20 0xFFFFFFFFFFFFFFFFFFFFFFFFFFFFFFFFFFFFFFFF AND SWAP1 DUP1 PUSH1 0x3 ADD PUSH1 0x0 SWAP1 SLOAD SWAP1 PUSH2 0x100 EXP SWAP1 DIV PUSH20 0xFFFFFFFFFFFFFFFFFFFFFFFFFFFFFFFFFFFFFFFF AND SWAP1 DUP1 PUSH1 0x4 ADD SLOAD SWAP1 DUP1 PUSH1 0x5 ADD PUSH1 0x0 SWAP1 SLOAD SWAP1 PUSH2 0x100 EXP SWAP1 DIV PUSH1 0xFF AND SWAP1 POP DUP7 JUMP JUMPDEST PUSH1 0x3 PUSH1 0x0 SWAP1 SLOAD SWAP1 PUSH2 0x100 EXP SWAP1 DIV PUSH20 0xFFFFFFFFFFFFFFFFFFFFFFFFFFFFFFFFFFFFFFFF AND DUP2 JUMP JUMPDEST PUSH1 0x4 PUSH1 0x0 SWAP1 SLOAD SWAP1 PUSH2 0x100 EXP SWAP1 DIV PUSH20 0xFFFFFFFFFFFFFFFFFFFFFFFFFFFFFFFFFFFFFFFF AND DUP2 JUMP JUMPDEST PUSH1 0x1 PUSH1 0x20 MSTORE DUP1 PUSH1 0x0 MSTORE PUSH1 0x40 PUSH1 0x0 KECCAK256 PUSH1 0x0 SWAP2 POP SWAP1 POP DUP1 PUSH1 0x0 ADD SLOAD SWAP1 DUP1 PUSH1 0x1 ADD SLOAD SWAP1 DUP1 PUSH1 0x2 ADD PUSH1 0x0 SWAP1 SLOAD SWAP1 PUSH2 0x100 EXP SWAP1 DIV PUSH20 0xFFFFFFFFFFFFFFFFFFFFFFFFFFFFFFFFFFFFFFFF AND SWAP1 DUP1 PUSH1 0x3 ADD PUSH1 0x0 SWAP1 SLOAD SWAP1 PUSH2 0x100 EXP SWAP1 DIV PUSH20 0xFFFFFFFFFFFFFFFFFFFFFFFFFFFFFFFFFFFFFFFF AND SWAP1 DUP1 PUSH1 0x4 ADD SLOAD SWAP1 DUP1 PUSH1 0x5 ADD PUSH1 0x0 SWAP1 SLOAD SWAP1 PUSH2 0x100 EXP SWAP1 DIV PUSH1 0xFF AND SWAP1 POP DUP7 JUMP JUMPDEST PUSH1 0x0 PUSH32 0xFFFFFFFF00000000000000000000000000000000000000000000000000000000 DUP3 AND SWAP1 POP SWAP2 SWAP1 POP JUMP JUMPDEST PUSH2 0x3A5 DUP2 PUSH2 0x370 JUMP JUMPDEST DUP3 MSTORE POP POP JUMP JUMPDEST PUSH1 0x0 PUSH1 0x20 DUP3 ADD SWAP1 POP PUSH2 0x3C0 PUSH1 0x0 DUP4 ADD DUP5 PUSH2 0x39C JUMP JUMPDEST SWAP3 SWAP2 POP POP JUMP JUMPDEST PUSH1 0x0 PUSH20 0xFFFFFFFFFFFFFFFFFFFFFFFFFFFFFFFFFFFFFFFF DUP3 AND SWAP1 POP SWAP2 SWAP1 POP JUMP JUMPDEST PUSH1 0x0 DUP2 SWAP1 POP SWAP2 SWAP1 POP JUMP JUMPDEST PUSH1 0x0 PUSH2 0x40B PUSH2 0x406 PUSH2 0x401 DUP5 PUSH2 0x3C6 JUMP JUMPDEST PUSH2 0x3E6 JUMP JUMPDEST PUSH2 0x3C6 JUMP JUMPDEST SWAP1 POP SWAP2 SWAP1 POP JUMP JUMPDEST PUSH1 0x0 PUSH2 0x41D DUP3 PUSH2 0x3F0 JUMP JUMPDEST SWAP1 POP SWAP2 SWAP1 POP JUMP JUMPDEST PUSH1 0x0 PUSH2 0x42F DUP3 PUSH2 0x412 JUMP JUMPDEST SWAP1 POP SWAP2 SWAP1 POP JUMP JUMPDEST PUSH2 0x43F DUP2 PUSH2 0x424 JUMP JUMPDEST DUP3 MSTORE POP POP JUMP JUMPDEST PUSH1 0x0 PUSH1 0x20 DUP3 ADD SWAP1 POP PUSH2 0x45A PUSH1 0x0 DUP4 ADD DUP5 PUSH2 0x436 JUMP JUMPDEST SWAP3 SWAP2 POP POP JUMP JUMPDEST PUSH1 0x0 PUSH1 0xFF DUP3 AND SWAP1 POP SWAP2 SWAP1 POP JUMP JUMPDEST PUSH2 0x476 DUP2 PUSH2 0x460 JUMP JUMPDEST DUP3 MSTORE POP POP JUMP JUMPDEST PUSH1 0x0 PUSH1 0x20 DUP3 ADD SWAP1 POP PUSH2 0x491 PUSH1 0x0 DUP4 ADD DUP5 PUSH2 0x46D JUMP JUMPDEST SWAP3 SWAP2 POP POP JUMP JUMPDEST PUSH1 0x0 DUP1 REVERT JUMPDEST PUSH1 0x0 DUP2 SWAP1 POP SWAP2 SWAP1 POP JUMP JUMPDEST PUSH2 0x4AF DUP2 PUSH2 0x49C JUMP JUMPDEST DUP2 EQ PUSH2 0x4BA JUMPI PUSH1 0x0 DUP1 REVERT JUMPDEST POP JUMP JUMPDEST PUSH1 0x0 DUP2 CALLDATALOAD SWAP1 POP PUSH2 0x4CC DUP2 PUSH2 0x4A6 JUMP JUMPDEST SWAP3 SWAP2 POP POP JUMP JUMPDEST PUSH1 0x0 PUSH1 0x20 DUP3 DUP5 SUB SLT ISZERO PUSH2 0x4E8 JUMPI PUSH2 0x4E7 PUSH2 0x497 JUMP JUMPDEST JUMPDEST PUSH1 0x0 PUSH2 0x4F6 DUP5 DUP3 DUP6 ADD PUSH2 0x4BD JUMP JUMPDEST SWAP2 POP POP SWAP3 SWAP2 POP POP JUMP JUMPDEST PUSH2 0x508 DUP2 PUSH2 0x49C JUMP JUMPDEST DUP3 MSTORE POP POP JUMP JUMPDEST PUSH1 0x0 PUSH2 0x519 DUP3 PUSH2 0x3C6 JUMP JUMPDEST SWAP1 POP SWAP2 SWAP1 POP JUMP JUMPDEST PUSH2 0x529 DUP2 PUSH2 0x50E JUMP JUMPDEST DUP3 MSTORE POP POP JUMP JUMPDEST PUSH32 0x4E487B7100000000000000000000000000000000000000000000000000000000 PUSH1 0x0 MSTORE PUSH1 0x21 PUSH1 0x4 MSTORE PUSH1 0x24 PUSH1 0x0 REVERT JUMPDEST PUSH1 0x2 DUP2 LT PUSH2 0x56F JUMPI PUSH2 0x56E PUSH2 0x52F JUMP JUMPDEST JUMPDEST POP JUMP JUMPDEST PUSH1 0x0 DUP2 SWAP1 POP PUSH2 0x580 DUP3 PUSH2 0x55E JUMP JUMPDEST SWAP2 SWAP1 POP JUMP JUMPDEST PUSH1 0x0 PUSH2 0x590 DUP3 PUSH2 0x572 JUMP JUMPDEST SWAP1 POP SWAP2 SWAP1 POP JUMP JUMPDEST PUSH2 0x5A0 DUP2 PUSH2 0x585 JUMP JUMPDEST DUP3 MSTORE POP POP JUMP JUMPDEST PUSH1 0x0 PUSH1 0xC0 DUP3 ADD SWAP1 POP PUSH2 0x5BB PUSH1 0x0 DUP4 ADD DUP10 PUSH2 0x4FF JUMP JUMPDEST PUSH2 0x5C8 PUSH1 0x20 DUP4 ADD DUP9 PUSH2 0x4FF JUMP JUMPDEST PUSH2 0x5D5 PUSH1 0x40 DUP4 ADD DUP8 PUSH2 0x520 JUMP JUMPDEST PUSH2 0x5E2 PUSH1 0x60 DUP4 ADD DUP7 PUSH2 0x520 JUMP JUMPDEST PUSH2 0x5EF PUSH1 0x80 DUP4 ADD DUP6 PUSH2 0x4FF JUMP JUMPDEST PUSH2 0x5FC PUSH1 0xA0 DUP4 ADD DUP5 PUSH2 0x597 JUMP JUMPDEST SWAP8 SWAP7 POP POP POP POP POP POP POP JUMP JUMPDEST PUSH1 0x0 PUSH2 0x612 DUP3 PUSH2 0x412 JUMP JUMPDEST SWAP1 POP SWAP2 SWAP1 POP JUMP JUMPDEST PUSH2 0x622 DUP2 PUSH2 0x607 JUMP JUMPDEST DUP3 MSTORE POP POP JUMP JUMPDEST PUSH1 0x0 PUSH1 0x20 DUP3 ADD SWAP1 POP PUSH2 0x63D PUSH1 0x0 DUP4 ADD DUP5 PUSH2 0x619 JUMP JUMPDEST SWAP3 SWAP2 POP POP JUMP JUMPDEST PUSH1 0x0 PUSH2 0x64E DUP3 PUSH2 0x412 JUMP JUMPDEST SWAP1 POP SWAP2 SWAP1 POP JUMP JUMPDEST PUSH2 0x65E DUP2 PUSH2 0x643 JUMP JUMPDEST DUP3 MSTORE POP POP JUMP JUMPDEST PUSH1 0x0 PUSH1 0x20 DUP3 ADD SWAP1 POP PUSH2 0x679 PUSH1 0x0 DUP4 ADD DUP5 PUSH2 0x655 JUMP JUMPDEST SWAP3 SWAP2 POP POP JUMP INVALID LOG2 PUSH5 0x6970667358 0x22 SLT KECCAK256 PUSH22 0xCE1FE6946757D1F44E273E6192A3A6F4853219C65CF3 0xBC CODECOPY 0x4A 0xCF PUSH22 0xB72578B64736F6C634300080D003300000000000000 "
				},
				"gasEstimates": {
					"creation": {
						"codeDepositCost": "343400",
						"executionCost": "380",
						"totalCost": "343780"
					},
					"external": {
						"ERC721_Interface()": "342",
						"allItems(uint256)": "infinite",
						"antaFeePercent()": "2588",
						"bnbFeePercent()": "2566",
						"factory()": "infinite",
						"items(uint256)": "infinite",
						"mainNFTs()": "infinite",
						"mainToken()": "infinite"
					}
				},
				"methodIdentifiers": {
					"ERC721_Interface()": "2b4c32be",
					"allItems(uint256)": "ff68fa6e",
					"antaFeePercent()": "b7a60c7e",
					"bnbFeePercent()": "85a8b36c",
					"factory()": "c45a0155",
					"items(uint256)": "bfb231d2",
					"mainNFTs()": "f55de0c7",
					"mainToken()": "3fc15f15"
				}
			},
			"storageLayout": {
				"storage": [
					{
						"astId": 500,
						"contract": "contracts/Marketplace2/Marketplace.sol:MarketplaceStorage",
						"label": "items",
						"offset": 0,
						"slot": "0",
						"type": "t_array(t_struct(MarketItem)496_storage)dyn_storage"
					},
					{
						"astId": 511,
						"contract": "contracts/Marketplace2/Marketplace.sol:MarketplaceStorage",
						"label": "allItems",
						"offset": 0,
						"slot": "1",
						"type": "t_mapping(t_uint256,t_struct(MarketItem)496_storage)"
					},
					{
						"astId": 514,
						"contract": "contracts/Marketplace2/Marketplace.sol:MarketplaceStorage",
						"label": "mainToken",
						"offset": 0,
						"slot": "2",
						"type": "t_contract(IERC20)201"
					},
					{
						"astId": 517,
						"contract": "contracts/Marketplace2/Marketplace.sol:MarketplaceStorage",
						"label": "factory",
						"offset": 0,
						"slot": "3",
						"type": "t_contract(IFactory)478"
					},
					{
						"astId": 520,
						"contract": "contracts/Marketplace2/Marketplace.sol:MarketplaceStorage",
						"label": "mainNFTs",
						"offset": 0,
						"slot": "4",
						"type": "t_contract(IERC721)326"
					},
					{
						"astId": 522,
						"contract": "contracts/Marketplace2/Marketplace.sol:MarketplaceStorage",
						"label": "bnbFeePercent",
						"offset": 20,
						"slot": "4",
						"type": "t_uint8"
					},
					{
						"astId": 524,
						"contract": "contracts/Marketplace2/Marketplace.sol:MarketplaceStorage",
						"label": "antaFeePercent",
						"offset": 21,
						"slot": "4",
						"type": "t_uint8"
					}
				],
				"types": {
					"t_address": {
						"encoding": "inplace",
						"label": "address",
						"numberOfBytes": "20"
					},
					"t_array(t_struct(MarketItem)496_storage)dyn_storage": {
						"base": "t_struct(MarketItem)496_storage",
						"encoding": "dynamic_array",
						"label": "struct MarketplaceStorage.MarketItem[]",
						"numberOfBytes": "32"
					},
					"t_contract(IERC20)201": {
						"encoding": "inplace",
						"label": "contract IERC20",
						"numberOfBytes": "20"
					},
					"t_contract(IERC721)326": {
						"encoding": "inplace",
						"label": "contract IERC721",
						"numberOfBytes": "20"
					},
					"t_contract(IFactory)478": {
						"encoding": "inplace",
						"label": "contract IFactory",
						"numberOfBytes": "20"
					},
					"t_enum(ItemStatus)482": {
						"encoding": "inplace",
						"label": "enum MarketplaceStorage.ItemStatus",
						"numberOfBytes": "1"
					},
					"t_mapping(t_uint256,t_struct(MarketItem)496_storage)": {
						"encoding": "mapping",
						"key": "t_uint256",
						"label": "mapping(uint256 => struct MarketplaceStorage.MarketItem)",
						"numberOfBytes": "32",
						"value": "t_struct(MarketItem)496_storage"
					},
					"t_struct(MarketItem)496_storage": {
						"encoding": "inplace",
						"label": "struct MarketplaceStorage.MarketItem",
						"members": [
							{
								"astId": 484,
								"contract": "contracts/Marketplace2/Marketplace.sol:MarketplaceStorage",
								"label": "itemId",
								"offset": 0,
								"slot": "0",
								"type": "t_uint256"
							},
							{
								"astId": 486,
								"contract": "contracts/Marketplace2/Marketplace.sol:MarketplaceStorage",
								"label": "tokenId",
								"offset": 0,
								"slot": "1",
								"type": "t_uint256"
							},
							{
								"astId": 488,
								"contract": "contracts/Marketplace2/Marketplace.sol:MarketplaceStorage",
								"label": "seller",
								"offset": 0,
								"slot": "2",
								"type": "t_address"
							},
							{
								"astId": 490,
								"contract": "contracts/Marketplace2/Marketplace.sol:MarketplaceStorage",
								"label": "owner",
								"offset": 0,
								"slot": "3",
								"type": "t_address"
							},
							{
								"astId": 492,
								"contract": "contracts/Marketplace2/Marketplace.sol:MarketplaceStorage",
								"label": "price",
								"offset": 0,
								"slot": "4",
								"type": "t_uint256"
							},
							{
								"astId": 495,
								"contract": "contracts/Marketplace2/Marketplace.sol:MarketplaceStorage",
								"label": "status",
								"offset": 0,
								"slot": "5",
								"type": "t_enum(ItemStatus)482"
							}
						],
						"numberOfBytes": "192"
					},
					"t_uint256": {
						"encoding": "inplace",
						"label": "uint256",
						"numberOfBytes": "32"
					},
					"t_uint8": {
						"encoding": "inplace",
						"label": "uint8",
						"numberOfBytes": "1"
					}
				}
			},
			"userdoc": {
				"kind": "user",
				"methods": {},
				"version": 1
			}
		}
	}
}