{
	"contracts/Marketplace2/Marketplace.sol": {
		"NFTMarket": {
			"abi": [
				{
					"inputs": [
						{
							"internalType": "address payable",
							"name": "_mainToken",
							"type": "address"
						},
						{
							"internalType": "address payable",
							"name": "_mainNFT",
							"type": "address"
						},
						{
							"internalType": "address payable",
							"name": "_mainFactory",
							"type": "address"
						}
					],
					"stateMutability": "payable",
					"type": "constructor"
				},
				{
					"anonymous": false,
					"inputs": [
						{
							"indexed": false,
							"internalType": "uint256",
							"name": "itemId",
							"type": "uint256"
						},
						{
							"indexed": true,
							"internalType": "uint256",
							"name": "tokenId",
							"type": "uint256"
						},
						{
							"indexed": true,
							"internalType": "address",
							"name": "seller",
							"type": "address"
						},
						{
							"indexed": false,
							"internalType": "uint256",
							"name": "price",
							"type": "uint256"
						},
						{
							"indexed": true,
							"internalType": "address",
							"name": "buyer",
							"type": "address"
						},
						{
							"indexed": false,
							"internalType": "string",
							"name": "currency",
							"type": "string"
						},
						{
							"indexed": false,
							"internalType": "uint256",
							"name": "createdAt",
							"type": "uint256"
						}
					],
					"name": "BuyItemSuccessful",
					"type": "event"
				},
				{
					"anonymous": false,
					"inputs": [
						{
							"indexed": false,
							"internalType": "uint256",
							"name": "id",
							"type": "uint256"
						},
						{
							"indexed": true,
							"internalType": "uint256",
							"name": "assetId",
							"type": "uint256"
						},
						{
							"indexed": true,
							"internalType": "address",
							"name": "delistBy",
							"type": "address"
						},
						{
							"indexed": false,
							"internalType": "uint256",
							"name": "createdAt",
							"type": "uint256"
						}
					],
					"name": "DelistItemSuccessful",
					"type": "event"
				},
				{
					"anonymous": false,
					"inputs": [
						{
							"indexed": true,
							"internalType": "uint256",
							"name": "itemId",
							"type": "uint256"
						},
						{
							"indexed": true,
							"internalType": "uint256",
							"name": "tokenId",
							"type": "uint256"
						},
						{
							"indexed": false,
							"internalType": "address",
							"name": "seller",
							"type": "address"
						},
						{
							"indexed": false,
							"internalType": "address",
							"name": "owner",
							"type": "address"
						},
						{
							"indexed": false,
							"internalType": "uint256",
							"name": "price",
							"type": "uint256"
						}
					],
					"name": "MarketItemCreated",
					"type": "event"
				},
				{
					"anonymous": false,
					"inputs": [
						{
							"indexed": true,
							"internalType": "address",
							"name": "previousOwner",
							"type": "address"
						},
						{
							"indexed": true,
							"internalType": "address",
							"name": "newOwner",
							"type": "address"
						}
					],
					"name": "OwnershipTransferred",
					"type": "event"
				},
				{
					"anonymous": false,
					"inputs": [
						{
							"indexed": false,
							"internalType": "address",
							"name": "nftAddress",
							"type": "address"
						},
						{
							"indexed": false,
							"internalType": "bytes32",
							"name": "id",
							"type": "bytes32"
						},
						{
							"indexed": true,
							"internalType": "uint256",
							"name": "assetId",
							"type": "uint256"
						},
						{
							"indexed": false,
							"internalType": "uint256",
							"name": "price",
							"type": "uint256"
						},
						{
							"indexed": true,
							"internalType": "address",
							"name": "seller",
							"type": "address"
						},
						{
							"indexed": false,
							"internalType": "string",
							"name": "currency",
							"type": "string"
						},
						{
							"indexed": false,
							"internalType": "uint256",
							"name": "createdAt",
							"type": "uint256"
						}
					],
					"name": "SellItemSuccessful",
					"type": "event"
				},
				{
					"inputs": [],
					"name": "ERC721_Interface",
					"outputs": [
						{
							"internalType": "bytes4",
							"name": "",
							"type": "bytes4"
						}
					],
					"stateMutability": "view",
					"type": "function"
				},
				{
					"inputs": [
						{
							"internalType": "uint256",
							"name": "tokenId",
							"type": "uint256"
						}
					],
					"name": "_safeTransferToMarket",
					"outputs": [],
					"stateMutability": "nonpayable",
					"type": "function"
				},
				{
					"inputs": [
						{
							"internalType": "uint256",
							"name": "",
							"type": "uint256"
						}
					],
					"name": "allItems",
					"outputs": [
						{
							"internalType": "uint256",
							"name": "itemId",
							"type": "uint256"
						},
						{
							"internalType": "uint256",
							"name": "tokenId",
							"type": "uint256"
						},
						{
							"internalType": "address",
							"name": "seller",
							"type": "address"
						},
						{
							"internalType": "address",
							"name": "owner",
							"type": "address"
						},
						{
							"internalType": "uint256",
							"name": "price",
							"type": "uint256"
						},
						{
							"internalType": "enum MarketplaceStorage.ItemStatus",
							"name": "status",
							"type": "uint8"
						}
					],
					"stateMutability": "view",
					"type": "function"
				},
				{
					"inputs": [],
					"name": "antaFeePercent",
					"outputs": [
						{
							"internalType": "uint8",
							"name": "",
							"type": "uint8"
						}
					],
					"stateMutability": "view",
					"type": "function"
				},
				{
					"inputs": [],
					"name": "bnbFeePercent",
					"outputs": [
						{
							"internalType": "uint8",
							"name": "",
							"type": "uint8"
						}
					],
					"stateMutability": "view",
					"type": "function"
				},
				{
					"inputs": [
						{
							"internalType": "uint256",
							"name": "tokenId",
							"type": "uint256"
						},
						{
							"internalType": "uint256",
							"name": "price",
							"type": "uint256"
						}
					],
					"name": "createMarketItem",
					"outputs": [],
					"stateMutability": "nonpayable",
					"type": "function"
				},
				{
					"inputs": [
						{
							"internalType": "uint256",
							"name": "itemId",
							"type": "uint256"
						},
						{
							"internalType": "uint256",
							"name": "amount",
							"type": "uint256"
						}
					],
					"name": "createMarketSale",
					"outputs": [],
					"stateMutability": "nonpayable",
					"type": "function"
				},
				{
					"inputs": [
						{
							"internalType": "uint256",
							"name": "itemId",
							"type": "uint256"
						}
					],
					"name": "delistItem",
					"outputs": [],
					"stateMutability": "nonpayable",
					"type": "function"
				},
				{
					"inputs": [],
					"name": "factory",
					"outputs": [
						{
							"internalType": "contract IFactory",
							"name": "",
							"type": "address"
						}
					],
					"stateMutability": "view",
					"type": "function"
				},
				{
					"inputs": [],
					"name": "getMarketItem",
					"outputs": [
						{
							"components": [
								{
									"internalType": "uint256",
									"name": "itemId",
									"type": "uint256"
								},
								{
									"internalType": "uint256",
									"name": "tokenId",
									"type": "uint256"
								},
								{
									"internalType": "address",
									"name": "seller",
									"type": "address"
								},
								{
									"internalType": "address",
									"name": "owner",
									"type": "address"
								},
								{
									"internalType": "uint256",
									"name": "price",
									"type": "uint256"
								},
								{
									"internalType": "enum MarketplaceStorage.ItemStatus",
									"name": "status",
									"type": "uint8"
								}
							],
							"internalType": "struct MarketplaceStorage.MarketItem[]",
							"name": "",
							"type": "tuple[]"
						}
					],
					"stateMutability": "view",
					"type": "function"
				},
				{
					"inputs": [
						{
							"internalType": "uint256",
							"name": "marketItemId",
							"type": "uint256"
						}
					],
					"name": "getMarketItem",
					"outputs": [
						{
							"components": [
								{
									"internalType": "uint256",
									"name": "itemId",
									"type": "uint256"
								},
								{
									"internalType": "uint256",
									"name": "tokenId",
									"type": "uint256"
								},
								{
									"internalType": "address",
									"name": "seller",
									"type": "address"
								},
								{
									"internalType": "address",
									"name": "owner",
									"type": "address"
								},
								{
									"internalType": "uint256",
									"name": "price",
									"type": "uint256"
								},
								{
									"internalType": "enum MarketplaceStorage.ItemStatus",
									"name": "status",
									"type": "uint8"
								}
							],
							"internalType": "struct MarketplaceStorage.MarketItem",
							"name": "",
							"type": "tuple"
						}
					],
					"stateMutability": "view",
					"type": "function"
				},
				{
					"inputs": [
						{
							"internalType": "uint256",
							"name": "",
							"type": "uint256"
						}
					],
					"name": "items",
					"outputs": [
						{
							"internalType": "uint256",
							"name": "itemId",
							"type": "uint256"
						},
						{
							"internalType": "uint256",
							"name": "tokenId",
							"type": "uint256"
						},
						{
							"internalType": "address",
							"name": "seller",
							"type": "address"
						},
						{
							"internalType": "address",
							"name": "owner",
							"type": "address"
						},
						{
							"internalType": "uint256",
							"name": "price",
							"type": "uint256"
						},
						{
							"internalType": "enum MarketplaceStorage.ItemStatus",
							"name": "status",
							"type": "uint8"
						}
					],
					"stateMutability": "view",
					"type": "function"
				},
				{
					"inputs": [],
					"name": "mainNFTs",
					"outputs": [
						{
							"internalType": "contract IERC721",
							"name": "",
							"type": "address"
						}
					],
					"stateMutability": "view",
					"type": "function"
				},
				{
					"inputs": [],
					"name": "mainToken",
					"outputs": [
						{
							"internalType": "contract IERC20",
							"name": "",
							"type": "address"
						}
					],
					"stateMutability": "view",
					"type": "function"
				},
				{
					"inputs": [],
					"name": "owner",
					"outputs": [
						{
							"internalType": "address",
							"name": "",
							"type": "address"
						}
					],
					"stateMutability": "view",
					"type": "function"
				},
				{
					"inputs": [],
					"name": "renounceOwnership",
					"outputs": [],
					"stateMutability": "nonpayable",
					"type": "function"
				},
				{
					"inputs": [
						{
							"internalType": "address",
							"name": "_address",
							"type": "address"
						}
					],
					"name": "setFactory",
					"outputs": [],
					"stateMutability": "nonpayable",
					"type": "function"
				},
				{
					"inputs": [
						{
							"internalType": "address",
							"name": "_address",
							"type": "address"
						}
					],
					"name": "setMainNFT",
					"outputs": [],
					"stateMutability": "nonpayable",
					"type": "function"
				},
				{
					"inputs": [
						{
							"internalType": "address",
							"name": "_address",
							"type": "address"
						}
					],
					"name": "setMainToken",
					"outputs": [],
					"stateMutability": "nonpayable",
					"type": "function"
				},
				{
					"inputs": [
						{
							"internalType": "address",
							"name": "newOwner",
							"type": "address"
						}
					],
					"name": "transferOwnership",
					"outputs": [],
					"stateMutability": "nonpayable",
					"type": "function"
				}
			],
			"devdoc": {
				"kind": "dev",
				"methods": {
					"owner()": {
						"details": "Returns the address of the current owner."
					},
					"renounceOwnership()": {
						"details": "Leaves the contract without owner. It will not be possible to call `onlyOwner` functions anymore. Can only be called by the current owner. NOTE: Renouncing ownership will leave the contract without an owner, thereby removing any functionality that is only available to the owner."
					},
					"transferOwnership(address)": {
						"details": "Transfers ownership of the contract to a new account (`newOwner`). Can only be called by the current owner."
					}
				},
				"version": 1
			},
			"evm": {
				"assembly": "    /* \"contracts/Marketplace2/Marketplace.sol\":17144:22265  contract NFTMarket is ReentrancyGuard,MarketplaceStorage, Ownable {... */\n  mstore(0x40, 0x80)\n    /* \"contracts/Marketplace2/Marketplace.sol\":17390:17616  constructor(address payable _mainToken, address payable _mainNFT, address payable _mainFactory ) payable {... */\n  mload(0x40)\n  sub(codesize, bytecodeSize)\n  dup1\n  bytecodeSize\n  dup4\n  codecopy\n  dup2\n  dup2\n  add\n  0x40\n  mstore\n  dup2\n  add\n  swap1\n  tag_1\n  swap2\n  swap1\n  tag_2\n  jump\t// in\ntag_1:\n    /* \"contracts/Marketplace2/Marketplace.sol\":14124:14125  1 */\n  0x01\n    /* \"contracts/Marketplace2/Marketplace.sol\":14229:14236  _status */\n  0x00\n    /* \"contracts/Marketplace2/Marketplace.sol\":14229:14251  _status = _NOT_ENTERED */\n  dup2\n  swap1\n  sstore\n  pop\n    /* \"contracts/Marketplace2/Marketplace.sol\":1561:1593  _transferOwnership(_msgSender()) */\n  tag_8\n    /* \"contracts/Marketplace2/Marketplace.sol\":1580:1592  _msgSender() */\n  tag_9\n    /* \"contracts/Marketplace2/Marketplace.sol\":1580:1590  _msgSender */\n  shl(0x20, tag_10)\n    /* \"contracts/Marketplace2/Marketplace.sol\":1580:1592  _msgSender() */\n  0x20\n  shr\n  jump\t// in\ntag_9:\n    /* \"contracts/Marketplace2/Marketplace.sol\":1561:1579  _transferOwnership */\n  shl(0x20, tag_11)\n    /* \"contracts/Marketplace2/Marketplace.sol\":1561:1593  _transferOwnership(_msgSender()) */\n  0x20\n  shr\n  jump\t// in\ntag_8:\n    /* \"contracts/Marketplace2/Marketplace.sol\":17522:17532  _mainToken */\n  dup3\n    /* \"contracts/Marketplace2/Marketplace.sol\":17503:17512  mainToken */\n  0x03\n  0x00\n    /* \"contracts/Marketplace2/Marketplace.sol\":17503:17533  mainToken = IERC20(_mainToken) */\n  0x0100\n  exp\n  dup2\n  sload\n  dup2\n  0xffffffffffffffffffffffffffffffffffffffff\n  mul\n  not\n  and\n  swap1\n  dup4\n  0xffffffffffffffffffffffffffffffffffffffff\n  and\n  mul\n  or\n  swap1\n  sstore\n  pop\n    /* \"contracts/Marketplace2/Marketplace.sol\":17560:17568  _mainNFT */\n  dup2\n    /* \"contracts/Marketplace2/Marketplace.sol\":17541:17549  mainNFTs */\n  0x05\n  0x00\n    /* \"contracts/Marketplace2/Marketplace.sol\":17541:17569  mainNFTs = IERC721(_mainNFT) */\n  0x0100\n  exp\n  dup2\n  sload\n  dup2\n  0xffffffffffffffffffffffffffffffffffffffff\n  mul\n  not\n  and\n  swap1\n  dup4\n  0xffffffffffffffffffffffffffffffffffffffff\n  and\n  mul\n  or\n  swap1\n  sstore\n  pop\n    /* \"contracts/Marketplace2/Marketplace.sol\":17596:17608  _mainFactory */\n  dup1\n    /* \"contracts/Marketplace2/Marketplace.sol\":17577:17584  factory */\n  0x04\n  0x00\n    /* \"contracts/Marketplace2/Marketplace.sol\":17577:17609  factory = IFactory(_mainFactory) */\n  0x0100\n  exp\n  dup2\n  sload\n  dup2\n  0xffffffffffffffffffffffffffffffffffffffff\n  mul\n  not\n  and\n  swap1\n  dup4\n  0xffffffffffffffffffffffffffffffffffffffff\n  and\n  mul\n  or\n  swap1\n  sstore\n  pop\n    /* \"contracts/Marketplace2/Marketplace.sol\":17390:17616  constructor(address payable _mainToken, address payable _mainNFT, address payable _mainFactory ) payable {... */\n  pop\n  pop\n  pop\n    /* \"contracts/Marketplace2/Marketplace.sol\":17144:22265  contract NFTMarket is ReentrancyGuard,MarketplaceStorage, Ownable {... */\n  jump(tag_13)\n    /* \"contracts/Marketplace2/Marketplace.sol\":554:650  function _msgSender() internal view virtual returns (address) {... */\ntag_10:\n    /* \"contracts/Marketplace2/Marketplace.sol\":607:614  address */\n  0x00\n    /* \"contracts/Marketplace2/Marketplace.sol\":633:643  msg.sender */\n  caller\n    /* \"contracts/Marketplace2/Marketplace.sol\":626:643  return msg.sender */\n  swap1\n  pop\n    /* \"contracts/Marketplace2/Marketplace.sol\":554:650  function _msgSender() internal view virtual returns (address) {... */\n  swap1\n  jump\t// out\n    /* \"contracts/Marketplace2/Marketplace.sol\":2910:3097  function _transferOwnership(address newOwner) internal virtual {... */\ntag_11:\n    /* \"contracts/Marketplace2/Marketplace.sol\":2983:2999  address oldOwner */\n  0x00\n    /* \"contracts/Marketplace2/Marketplace.sol\":3002:3008  _owner */\n  0x06\n  0x00\n  swap1\n  sload\n  swap1\n  0x0100\n  exp\n  swap1\n  div\n  0xffffffffffffffffffffffffffffffffffffffff\n  and\n    /* \"contracts/Marketplace2/Marketplace.sol\":2983:3008  address oldOwner = _owner */\n  swap1\n  pop\n    /* \"contracts/Marketplace2/Marketplace.sol\":3027:3035  newOwner */\n  dup2\n    /* \"contracts/Marketplace2/Marketplace.sol\":3018:3024  _owner */\n  0x06\n  0x00\n    /* \"contracts/Marketplace2/Marketplace.sol\":3018:3035  _owner = newOwner */\n  0x0100\n  exp\n  dup2\n  sload\n  dup2\n  0xffffffffffffffffffffffffffffffffffffffff\n  mul\n  not\n  and\n  swap1\n  dup4\n  0xffffffffffffffffffffffffffffffffffffffff\n  and\n  mul\n  or\n  swap1\n  sstore\n  pop\n    /* \"contracts/Marketplace2/Marketplace.sol\":3081:3089  newOwner */\n  dup2\n    /* \"contracts/Marketplace2/Marketplace.sol\":3050:3090  OwnershipTransferred(oldOwner, newOwner) */\n  0xffffffffffffffffffffffffffffffffffffffff\n  and\n    /* \"contracts/Marketplace2/Marketplace.sol\":3071:3079  oldOwner */\n  dup2\n    /* \"contracts/Marketplace2/Marketplace.sol\":3050:3090  OwnershipTransferred(oldOwner, newOwner) */\n  0xffffffffffffffffffffffffffffffffffffffff\n  and\n  0x8be0079c531659141344cd1fd0a4f28419497f9722a3daafe3b4186f6b6457e0\n  mload(0x40)\n  mload(0x40)\n  dup1\n  swap2\n  sub\n  swap1\n  log3\n    /* \"contracts/Marketplace2/Marketplace.sol\":2973:3097  {... */\n  pop\n    /* \"contracts/Marketplace2/Marketplace.sol\":2910:3097  function _transferOwnership(address newOwner) internal virtual {... */\n  pop\n  jump\t// out\n    /* \"#utility.yul\":88:205   */\ntag_17:\n    /* \"#utility.yul\":197:198   */\n  0x00\n    /* \"#utility.yul\":194:195   */\n  dup1\n    /* \"#utility.yul\":187:199   */\n  revert\n    /* \"#utility.yul\":334:460   */\ntag_19:\n    /* \"#utility.yul\":371:378   */\n  0x00\n    /* \"#utility.yul\":411:453   */\n  0xffffffffffffffffffffffffffffffffffffffff\n    /* \"#utility.yul\":404:409   */\n  dup3\n    /* \"#utility.yul\":400:454   */\n  and\n    /* \"#utility.yul\":389:454   */\n  swap1\n  pop\n    /* \"#utility.yul\":334:460   */\n  swap2\n  swap1\n  pop\n  jump\t// out\n    /* \"#utility.yul\":466:570   */\ntag_20:\n    /* \"#utility.yul\":511:518   */\n  0x00\n    /* \"#utility.yul\":540:564   */\n  tag_29\n    /* \"#utility.yul\":558:563   */\n  dup3\n    /* \"#utility.yul\":540:564   */\n  tag_19\n  jump\t// in\ntag_29:\n    /* \"#utility.yul\":529:564   */\n  swap1\n  pop\n    /* \"#utility.yul\":466:570   */\n  swap2\n  swap1\n  pop\n  jump\t// out\n    /* \"#utility.yul\":576:714   */\ntag_21:\n    /* \"#utility.yul\":657:689   */\n  tag_31\n    /* \"#utility.yul\":683:688   */\n  dup2\n    /* \"#utility.yul\":657:689   */\n  tag_20\n  jump\t// in\ntag_31:\n    /* \"#utility.yul\":650:655   */\n  dup2\n    /* \"#utility.yul\":647:690   */\n  eq\n    /* \"#utility.yul\":637:708   */\n  tag_32\n  jumpi\n    /* \"#utility.yul\":704:705   */\n  0x00\n    /* \"#utility.yul\":701:702   */\n  dup1\n    /* \"#utility.yul\":694:706   */\n  revert\n    /* \"#utility.yul\":637:708   */\ntag_32:\n    /* \"#utility.yul\":576:714   */\n  pop\n  jump\t// out\n    /* \"#utility.yul\":720:879   */\ntag_22:\n    /* \"#utility.yul\":785:790   */\n  0x00\n    /* \"#utility.yul\":816:822   */\n  dup2\n    /* \"#utility.yul\":810:823   */\n  mload\n    /* \"#utility.yul\":801:823   */\n  swap1\n  pop\n    /* \"#utility.yul\":832:873   */\n  tag_34\n    /* \"#utility.yul\":867:872   */\n  dup2\n    /* \"#utility.yul\":832:873   */\n  tag_21\n  jump\t// in\ntag_34:\n    /* \"#utility.yul\":720:879   */\n  swap3\n  swap2\n  pop\n  pop\n  jump\t// out\n    /* \"#utility.yul\":885:1596   */\ntag_2:\n    /* \"#utility.yul\":997:1003   */\n  0x00\n    /* \"#utility.yul\":1005:1011   */\n  dup1\n    /* \"#utility.yul\":1013:1019   */\n  0x00\n    /* \"#utility.yul\":1062:1064   */\n  0x60\n    /* \"#utility.yul\":1050:1059   */\n  dup5\n    /* \"#utility.yul\":1041:1048   */\n  dup7\n    /* \"#utility.yul\":1037:1060   */\n  sub\n    /* \"#utility.yul\":1033:1065   */\n  slt\n    /* \"#utility.yul\":1030:1149   */\n  iszero\n  tag_36\n  jumpi\n    /* \"#utility.yul\":1068:1147   */\n  tag_37\n  tag_17\n  jump\t// in\ntag_37:\n    /* \"#utility.yul\":1030:1149   */\ntag_36:\n    /* \"#utility.yul\":1188:1189   */\n  0x00\n    /* \"#utility.yul\":1213:1285   */\n  tag_38\n    /* \"#utility.yul\":1277:1284   */\n  dup7\n    /* \"#utility.yul\":1268:1274   */\n  dup3\n    /* \"#utility.yul\":1257:1266   */\n  dup8\n    /* \"#utility.yul\":1253:1275   */\n  add\n    /* \"#utility.yul\":1213:1285   */\n  tag_22\n  jump\t// in\ntag_38:\n    /* \"#utility.yul\":1203:1285   */\n  swap4\n  pop\n    /* \"#utility.yul\":1159:1295   */\n  pop\n    /* \"#utility.yul\":1334:1336   */\n  0x20\n    /* \"#utility.yul\":1360:1432   */\n  tag_39\n    /* \"#utility.yul\":1424:1431   */\n  dup7\n    /* \"#utility.yul\":1415:1421   */\n  dup3\n    /* \"#utility.yul\":1404:1413   */\n  dup8\n    /* \"#utility.yul\":1400:1422   */\n  add\n    /* \"#utility.yul\":1360:1432   */\n  tag_22\n  jump\t// in\ntag_39:\n    /* \"#utility.yul\":1350:1432   */\n  swap3\n  pop\n    /* \"#utility.yul\":1305:1442   */\n  pop\n    /* \"#utility.yul\":1481:1483   */\n  0x40\n    /* \"#utility.yul\":1507:1579   */\n  tag_40\n    /* \"#utility.yul\":1571:1578   */\n  dup7\n    /* \"#utility.yul\":1562:1568   */\n  dup3\n    /* \"#utility.yul\":1551:1560   */\n  dup8\n    /* \"#utility.yul\":1547:1569   */\n  add\n    /* \"#utility.yul\":1507:1579   */\n  tag_22\n  jump\t// in\ntag_40:\n    /* \"#utility.yul\":1497:1579   */\n  swap2\n  pop\n    /* \"#utility.yul\":1452:1589   */\n  pop\n    /* \"#utility.yul\":885:1596   */\n  swap3\n  pop\n  swap3\n  pop\n  swap3\n  jump\t// out\n    /* \"contracts/Marketplace2/Marketplace.sol\":17144:22265  contract NFTMarket is ReentrancyGuard,MarketplaceStorage, Ownable {... */\ntag_13:\n  dataSize(sub_0)\n  dup1\n  dataOffset(sub_0)\n  0x00\n  codecopy\n  0x00\n  return\nstop\n\nsub_0: assembly {\n        /* \"contracts/Marketplace2/Marketplace.sol\":17144:22265  contract NFTMarket is ReentrancyGuard,MarketplaceStorage, Ownable {... */\n      mstore(0x40, 0x80)\n      callvalue\n      dup1\n      iszero\n      tag_1\n      jumpi\n      0x00\n      dup1\n      revert\n    tag_1:\n      pop\n      jumpi(tag_2, lt(calldatasize, 0x04))\n      shr(0xe0, calldataload(0x00))\n      dup1\n      0x8da5cb5b\n      gt\n      tag_23\n      jumpi\n      dup1\n      0xc7be7a49\n      gt\n      tag_24\n      jumpi\n      dup1\n      0xc7be7a49\n      eq\n      tag_18\n      jumpi\n      dup1\n      0xe78e717d\n      eq\n      tag_19\n      jumpi\n      dup1\n      0xf2fde38b\n      eq\n      tag_20\n      jumpi\n      dup1\n      0xf55de0c7\n      eq\n      tag_21\n      jumpi\n      dup1\n      0xff68fa6e\n      eq\n      tag_22\n      jumpi\n      jump(tag_2)\n    tag_24:\n      dup1\n      0x8da5cb5b\n      eq\n      tag_13\n      jumpi\n      dup1\n      0xa1c11ca8\n      eq\n      tag_14\n      jumpi\n      dup1\n      0xb7a60c7e\n      eq\n      tag_15\n      jumpi\n      dup1\n      0xbfb231d2\n      eq\n      tag_16\n      jumpi\n      dup1\n      0xc45a0155\n      eq\n      tag_17\n      jumpi\n      jump(tag_2)\n    tag_23:\n      dup1\n      0x3fc15f15\n      gt\n      tag_25\n      jumpi\n      dup1\n      0x3fc15f15\n      eq\n      tag_8\n      jumpi\n      dup1\n      0x42199f88\n      eq\n      tag_9\n      jumpi\n      dup1\n      0x5bb47808\n      eq\n      tag_10\n      jumpi\n      dup1\n      0x715018a6\n      eq\n      tag_11\n      jumpi\n      dup1\n      0x85a8b36c\n      eq\n      tag_12\n      jumpi\n      jump(tag_2)\n    tag_25:\n      dup1\n      0x10061631\n      eq\n      tag_3\n      jumpi\n      dup1\n      0x15b12494\n      eq\n      tag_4\n      jumpi\n      dup1\n      0x27ce464e\n      eq\n      tag_5\n      jumpi\n      dup1\n      0x2b4c32be\n      eq\n      tag_6\n      jumpi\n      dup1\n      0x361c1995\n      eq\n      tag_7\n      jumpi\n    tag_2:\n      0x00\n      dup1\n      revert\n        /* \"contracts/Marketplace2/Marketplace.sol\":20390:21148  function delistItem(uint256 itemId) public {... */\n    tag_3:\n      tag_26\n      0x04\n      dup1\n      calldatasize\n      sub\n      dup2\n      add\n      swap1\n      tag_27\n      swap2\n      swap1\n      tag_28\n      jump\t// in\n    tag_27:\n      tag_29\n      jump\t// in\n    tag_26:\n      stop\n        /* \"contracts/Marketplace2/Marketplace.sol\":18736:18838  function setMainNFT(address _address) external onlyOwner {... */\n    tag_4:\n      tag_30\n      0x04\n      dup1\n      calldatasize\n      sub\n      dup2\n      add\n      swap1\n      tag_31\n      swap2\n      swap1\n      tag_32\n      jump\t// in\n    tag_31:\n      tag_33\n      jump\t// in\n    tag_30:\n      stop\n        /* \"contracts/Marketplace2/Marketplace.sol\":18627:18731  function setMainToken(address _address) external onlyOwner {... */\n    tag_5:\n      tag_34\n      0x04\n      dup1\n      calldatasize\n      sub\n      dup2\n      add\n      swap1\n      tag_35\n      swap2\n      swap1\n      tag_32\n      jump\t// in\n    tag_35:\n      tag_36\n      jump\t// in\n    tag_34:\n      stop\n        /* \"contracts/Marketplace2/Marketplace.sol\":15944:16004  bytes4 public constant ERC721_Interface = bytes4(0x80ac58cd) */\n    tag_6:\n      tag_37\n      tag_38\n      jump\t// in\n    tag_37:\n      mload(0x40)\n      tag_39\n      swap2\n      swap1\n      tag_40\n      jump\t// in\n    tag_39:\n      mload(0x40)\n      dup1\n      swap2\n      sub\n      swap1\n      return\n        /* \"contracts/Marketplace2/Marketplace.sol\":18949:19566  function createMarketItem(... */\n    tag_7:\n      tag_41\n      0x04\n      dup1\n      calldatasize\n      sub\n      dup2\n      add\n      swap1\n      tag_42\n      swap2\n      swap1\n      tag_43\n      jump\t// in\n    tag_42:\n      tag_44\n      jump\t// in\n    tag_41:\n      stop\n        /* \"contracts/Marketplace2/Marketplace.sol\":16208:16231  IERC20 public mainToken */\n    tag_8:\n      tag_45\n      tag_46\n      jump\t// in\n    tag_45:\n      mload(0x40)\n      tag_47\n      swap2\n      swap1\n      tag_48\n      jump\t// in\n    tag_47:\n      mload(0x40)\n      dup1\n      swap2\n      sub\n      swap1\n      return\n        /* \"contracts/Marketplace2/Marketplace.sol\":17622:18478  function getMarketItem() public view returns(MarketItem[] memory) { ... */\n    tag_9:\n      tag_49\n      tag_50\n      jump\t// in\n    tag_49:\n      mload(0x40)\n      tag_51\n      swap2\n      swap1\n      tag_52\n      jump\t// in\n    tag_51:\n      mload(0x40)\n      dup1\n      swap2\n      sub\n      swap1\n      return\n        /* \"contracts/Marketplace2/Marketplace.sol\":18843:18945  function setFactory(address _address) external onlyOwner {... */\n    tag_10:\n      tag_53\n      0x04\n      dup1\n      calldatasize\n      sub\n      dup2\n      add\n      swap1\n      tag_54\n      swap2\n      swap1\n      tag_32\n      jump\t// in\n    tag_54:\n      tag_55\n      jump\t// in\n    tag_53:\n      stop\n        /* \"contracts/Marketplace2/Marketplace.sol\":2308:2409  function renounceOwnership() public virtual onlyOwner {... */\n    tag_11:\n      tag_56\n      tag_57\n      jump\t// in\n    tag_56:\n      stop\n        /* \"contracts/Marketplace2/Marketplace.sol\":16296:16322  uint8 public bnbFeePercent */\n    tag_12:\n      tag_58\n      tag_59\n      jump\t// in\n    tag_58:\n      mload(0x40)\n      tag_60\n      swap2\n      swap1\n      tag_61\n      jump\t// in\n    tag_60:\n      mload(0x40)\n      dup1\n      swap2\n      sub\n      swap1\n      return\n        /* \"contracts/Marketplace2/Marketplace.sol\":1676:1761  function owner() public view virtual returns (address) {... */\n    tag_13:\n      tag_62\n      tag_63\n      jump\t// in\n    tag_62:\n      mload(0x40)\n      tag_64\n      swap2\n      swap1\n      tag_65\n      jump\t// in\n    tag_64:\n      mload(0x40)\n      dup1\n      swap2\n      sub\n      swap1\n      return\n        /* \"contracts/Marketplace2/Marketplace.sol\":19569:20386  function createMarketSale(... */\n    tag_14:\n      tag_66\n      0x04\n      dup1\n      calldatasize\n      sub\n      dup2\n      add\n      swap1\n      tag_67\n      swap2\n      swap1\n      tag_43\n      jump\t// in\n    tag_67:\n      tag_68\n      jump\t// in\n    tag_66:\n      stop\n        /* \"contracts/Marketplace2/Marketplace.sol\":16328:16355  uint8 public antaFeePercent */\n    tag_15:\n      tag_69\n      tag_70\n      jump\t// in\n    tag_69:\n      mload(0x40)\n      tag_71\n      swap2\n      swap1\n      tag_61\n      jump\t// in\n    tag_71:\n      mload(0x40)\n      dup1\n      swap2\n      sub\n      swap1\n      return\n        /* \"contracts/Marketplace2/Marketplace.sol\":15913:15938  MarketItem[] public items */\n    tag_16:\n      tag_72\n      0x04\n      dup1\n      calldatasize\n      sub\n      dup2\n      add\n      swap1\n      tag_73\n      swap2\n      swap1\n      tag_28\n      jump\t// in\n    tag_73:\n      tag_74\n      jump\t// in\n    tag_72:\n      mload(0x40)\n      tag_75\n      swap7\n      swap6\n      swap5\n      swap4\n      swap3\n      swap2\n      swap1\n      tag_76\n      jump\t// in\n    tag_75:\n      mload(0x40)\n      dup1\n      swap2\n      sub\n      swap1\n      return\n        /* \"contracts/Marketplace2/Marketplace.sol\":16237:16260  IFactory public factory */\n    tag_17:\n      tag_77\n      tag_78\n      jump\t// in\n    tag_77:\n      mload(0x40)\n      tag_79\n      swap2\n      swap1\n      tag_80\n      jump\t// in\n    tag_79:\n      mload(0x40)\n      dup1\n      swap2\n      sub\n      swap1\n      return\n        /* \"contracts/Marketplace2/Marketplace.sol\":18484:18621  function getMarketItem(uint256 marketItemId) public view returns (MarketItem memory) {... */\n    tag_18:\n      tag_81\n      0x04\n      dup1\n      calldatasize\n      sub\n      dup2\n      add\n      swap1\n      tag_82\n      swap2\n      swap1\n      tag_28\n      jump\t// in\n    tag_82:\n      tag_83\n      jump\t// in\n    tag_81:\n      mload(0x40)\n      tag_84\n      swap2\n      swap1\n      tag_85\n      jump\t// in\n    tag_84:\n      mload(0x40)\n      dup1\n      swap2\n      sub\n      swap1\n      return\n        /* \"contracts/Marketplace2/Marketplace.sol\":21162:21379  function _safeTransferToMarket(uint256 tokenId) public {... */\n    tag_19:\n      tag_86\n      0x04\n      dup1\n      calldatasize\n      sub\n      dup2\n      add\n      swap1\n      tag_87\n      swap2\n      swap1\n      tag_28\n      jump\t// in\n    tag_87:\n      tag_88\n      jump\t// in\n    tag_86:\n      stop\n        /* \"contracts/Marketplace2/Marketplace.sol\":2558:2756  function transferOwnership(address newOwner) public virtual onlyOwner {... */\n    tag_20:\n      tag_89\n      0x04\n      dup1\n      calldatasize\n      sub\n      dup2\n      add\n      swap1\n      tag_90\n      swap2\n      swap1\n      tag_32\n      jump\t// in\n    tag_90:\n      tag_91\n      jump\t// in\n    tag_89:\n      stop\n        /* \"contracts/Marketplace2/Marketplace.sol\":16266:16289  IERC721 public mainNFTs */\n    tag_21:\n      tag_92\n      tag_93\n      jump\t// in\n    tag_92:\n      mload(0x40)\n      tag_94\n      swap2\n      swap1\n      tag_95\n      jump\t// in\n    tag_94:\n      mload(0x40)\n      dup1\n      swap2\n      sub\n      swap1\n      return\n        /* \"contracts/Marketplace2/Marketplace.sol\":16011:16058  mapping (uint256 => MarketItem) public allItems */\n    tag_22:\n      tag_96\n      0x04\n      dup1\n      calldatasize\n      sub\n      dup2\n      add\n      swap1\n      tag_97\n      swap2\n      swap1\n      tag_28\n      jump\t// in\n    tag_97:\n      tag_98\n      jump\t// in\n    tag_96:\n      mload(0x40)\n      tag_99\n      swap7\n      swap6\n      swap5\n      swap4\n      swap3\n      swap2\n      swap1\n      tag_76\n      jump\t// in\n    tag_99:\n      mload(0x40)\n      dup1\n      swap2\n      sub\n      swap1\n      return\n        /* \"contracts/Marketplace2/Marketplace.sol\":20390:21148  function delistItem(uint256 itemId) public {... */\n    tag_29:\n        /* \"contracts/Marketplace2/Marketplace.sol\":20443:20459  address deleteBy */\n      0x00\n        /* \"contracts/Marketplace2/Marketplace.sol\":20462:20472  msg.sender */\n      caller\n        /* \"contracts/Marketplace2/Marketplace.sol\":20443:20472  address deleteBy = msg.sender */\n      swap1\n      pop\n        /* \"contracts/Marketplace2/Marketplace.sol\":20482:20504  MarketItem memory item */\n      0x00\n        /* \"contracts/Marketplace2/Marketplace.sol\":20507:20521  idToMarketItem */\n      0x09\n        /* \"contracts/Marketplace2/Marketplace.sol\":20507:20529  idToMarketItem[itemId] */\n      0x00\n        /* \"contracts/Marketplace2/Marketplace.sol\":20522:20528  itemId */\n      dup5\n        /* \"contracts/Marketplace2/Marketplace.sol\":20507:20529  idToMarketItem[itemId] */\n      dup2\n      mstore\n      0x20\n      add\n      swap1\n      dup2\n      mstore\n      0x20\n      add\n      0x00\n      keccak256\n        /* \"contracts/Marketplace2/Marketplace.sol\":20482:20529  MarketItem memory item = idToMarketItem[itemId] */\n      mload(0x40)\n      dup1\n      0xc0\n      add\n      0x40\n      mstore\n      swap1\n      dup2\n      0x00\n      dup3\n      add\n      sload\n      dup2\n      mstore\n      0x20\n      add\n      0x01\n      dup3\n      add\n      sload\n      dup2\n      mstore\n      0x20\n      add\n      0x02\n      dup3\n      add\n      0x00\n      swap1\n      sload\n      swap1\n      0x0100\n      exp\n      swap1\n      div\n      0xffffffffffffffffffffffffffffffffffffffff\n      and\n      0xffffffffffffffffffffffffffffffffffffffff\n      and\n      0xffffffffffffffffffffffffffffffffffffffff\n      and\n      dup2\n      mstore\n      0x20\n      add\n      0x03\n      dup3\n      add\n      0x00\n      swap1\n      sload\n      swap1\n      0x0100\n      exp\n      swap1\n      div\n      0xffffffffffffffffffffffffffffffffffffffff\n      and\n      0xffffffffffffffffffffffffffffffffffffffff\n      and\n      0xffffffffffffffffffffffffffffffffffffffff\n      and\n      dup2\n      mstore\n      0x20\n      add\n      0x04\n      dup3\n      add\n      sload\n      dup2\n      mstore\n      0x20\n      add\n      0x05\n      dup3\n      add\n      0x00\n      swap1\n      sload\n      swap1\n      0x0100\n      exp\n      swap1\n      div\n      0xff\n      and\n      0x01\n      dup2\n      gt\n      iszero\n      tag_101\n      jumpi\n      tag_102\n      tag_103\n      jump\t// in\n    tag_102:\n    tag_101:\n      0x01\n      dup2\n      gt\n      iszero\n      tag_104\n      jumpi\n      tag_105\n      tag_103\n      jump\t// in\n    tag_105:\n    tag_104:\n      dup2\n      mstore\n      pop\n      pop\n      swap1\n      pop\n        /* \"contracts/Marketplace2/Marketplace.sol\":20564:20565  0 */\n      0x00\n        /* \"contracts/Marketplace2/Marketplace.sol\":20549:20553  item */\n      dup2\n        /* \"contracts/Marketplace2/Marketplace.sol\":20549:20560  item.itemId */\n      0x00\n      add\n      mload\n        /* \"contracts/Marketplace2/Marketplace.sol\":20549:20565  item.itemId != 0 */\n      sub\n        /* \"contracts/Marketplace2/Marketplace.sol\":20541:20589  require(item.itemId != 0, \"Asset not published\") */\n      tag_106\n      jumpi\n      mload(0x40)\n      0x08c379a000000000000000000000000000000000000000000000000000000000\n      dup2\n      mstore\n      0x04\n      add\n      tag_107\n      swap1\n      tag_108\n      jump\t// in\n    tag_107:\n      mload(0x40)\n      dup1\n      swap2\n      sub\n      swap1\n      revert\n    tag_106:\n        /* \"contracts/Marketplace2/Marketplace.sol\":20622:20640  ItemStatus.SELLING */\n      0x01\n        /* \"contracts/Marketplace2/Marketplace.sol\":20607:20640  item.status == ItemStatus.SELLING */\n      dup1\n      dup2\n      gt\n      iszero\n      tag_109\n      jumpi\n      tag_110\n      tag_103\n      jump\t// in\n    tag_110:\n    tag_109:\n        /* \"contracts/Marketplace2/Marketplace.sol\":20607:20611  item */\n      dup2\n        /* \"contracts/Marketplace2/Marketplace.sol\":20607:20618  item.status */\n      0xa0\n      add\n      mload\n        /* \"contracts/Marketplace2/Marketplace.sol\":20607:20640  item.status == ItemStatus.SELLING */\n      0x01\n      dup2\n      gt\n      iszero\n      tag_111\n      jumpi\n      tag_112\n      tag_103\n      jump\t// in\n    tag_112:\n    tag_111:\n      eq\n        /* \"contracts/Marketplace2/Marketplace.sol\":20599:20659  require(item.status == ItemStatus.SELLING, \"Asset delisted\") */\n      tag_113\n      jumpi\n      mload(0x40)\n      0x08c379a000000000000000000000000000000000000000000000000000000000\n      dup2\n      mstore\n      0x04\n      add\n      tag_114\n      swap1\n      tag_115\n      jump\t// in\n    tag_114:\n      mload(0x40)\n      dup1\n      swap2\n      sub\n      swap1\n      revert\n    tag_113:\n        /* \"contracts/Marketplace2/Marketplace.sol\":20670:20684  address seller */\n      0x00\n        /* \"contracts/Marketplace2/Marketplace.sol\":20687:20691  item */\n      dup2\n        /* \"contracts/Marketplace2/Marketplace.sol\":20687:20698  item.seller */\n      0x40\n      add\n      mload\n        /* \"contracts/Marketplace2/Marketplace.sol\":20670:20698  address seller = item.seller */\n      swap1\n      pop\n        /* \"contracts/Marketplace2/Marketplace.sol\":20734:20735  0 */\n      0x00\n        /* \"contracts/Marketplace2/Marketplace.sol\":20716:20736  seller != address(0) */\n      0xffffffffffffffffffffffffffffffffffffffff\n      and\n        /* \"contracts/Marketplace2/Marketplace.sol\":20716:20722  seller */\n      dup2\n        /* \"contracts/Marketplace2/Marketplace.sol\":20716:20736  seller != address(0) */\n      0xffffffffffffffffffffffffffffffffffffffff\n      and\n      sub\n        /* \"contracts/Marketplace2/Marketplace.sol\":20708:20756  require(seller != address(0), \"Invalid address\") */\n      tag_116\n      jumpi\n      mload(0x40)\n      0x08c379a000000000000000000000000000000000000000000000000000000000\n      dup2\n      mstore\n      0x04\n      add\n      tag_117\n      swap1\n      tag_118\n      jump\t// in\n    tag_117:\n      mload(0x40)\n      dup1\n      swap2\n      sub\n      swap1\n      revert\n    tag_116:\n        /* \"contracts/Marketplace2/Marketplace.sol\":20797:20807  msg.sender */\n      caller\n        /* \"contracts/Marketplace2/Marketplace.sol\":20787:20807  seller == msg.sender */\n      0xffffffffffffffffffffffffffffffffffffffff\n      and\n        /* \"contracts/Marketplace2/Marketplace.sol\":20787:20793  seller */\n      dup2\n        /* \"contracts/Marketplace2/Marketplace.sol\":20787:20807  seller == msg.sender */\n      0xffffffffffffffffffffffffffffffffffffffff\n      and\n      eq\n        /* \"contracts/Marketplace2/Marketplace.sol\":20766:20855  require(... */\n      tag_119\n      jumpi\n      mload(0x40)\n      0x08c379a000000000000000000000000000000000000000000000000000000000\n      dup2\n      mstore\n      0x04\n      add\n      tag_120\n      swap1\n      tag_121\n      jump\t// in\n    tag_120:\n      mload(0x40)\n      dup1\n      swap2\n      sub\n      swap1\n      revert\n    tag_119:\n        /* \"contracts/Marketplace2/Marketplace.sol\":20865:20873  mainNFTs */\n      0x05\n      0x00\n      swap1\n      sload\n      swap1\n      0x0100\n      exp\n      swap1\n      div\n      0xffffffffffffffffffffffffffffffffffffffff\n      and\n        /* \"contracts/Marketplace2/Marketplace.sol\":20865:20890  mainNFTs.safeTransferFrom */\n      0xffffffffffffffffffffffffffffffffffffffff\n      and\n      0x42842e0e\n        /* \"contracts/Marketplace2/Marketplace.sol\":20899:20903  this */\n      address\n        /* \"contracts/Marketplace2/Marketplace.sol\":20906:20912  seller */\n      dup4\n        /* \"contracts/Marketplace2/Marketplace.sol\":20914:20920  itemId */\n      dup8\n        /* \"contracts/Marketplace2/Marketplace.sol\":20865:20921  mainNFTs.safeTransferFrom(address(this), seller, itemId) */\n      mload(0x40)\n      dup5\n      0xffffffff\n      and\n      0xe0\n      shl\n      dup2\n      mstore\n      0x04\n      add\n      tag_122\n      swap4\n      swap3\n      swap2\n      swap1\n      tag_123\n      jump\t// in\n    tag_122:\n      0x00\n      mload(0x40)\n      dup1\n      dup4\n      sub\n      dup2\n      0x00\n      dup8\n      dup1\n      extcodesize\n      iszero\n      dup1\n      iszero\n      tag_124\n      jumpi\n      0x00\n      dup1\n      revert\n    tag_124:\n      pop\n      gas\n      call\n      iszero\n      dup1\n      iszero\n      tag_126\n      jumpi\n      returndatasize\n      0x00\n      dup1\n      returndatacopy\n      revert(0x00, returndatasize)\n    tag_126:\n      pop\n      pop\n      pop\n      pop\n        /* \"contracts/Marketplace2/Marketplace.sol\":20945:20961  ItemStatus.AVAIL */\n      0x00\n        /* \"contracts/Marketplace2/Marketplace.sol\":20931:20935  item */\n      dup3\n        /* \"contracts/Marketplace2/Marketplace.sol\":20931:20942  item.status */\n      0xa0\n      add\n        /* \"contracts/Marketplace2/Marketplace.sol\":20931:20961  item.status = ItemStatus.AVAIL */\n      swap1\n      0x01\n      dup2\n      gt\n      iszero\n      tag_127\n      jumpi\n      tag_128\n      tag_103\n      jump\t// in\n    tag_128:\n    tag_127:\n      swap1\n      dup2\n      0x01\n      dup2\n      gt\n      iszero\n      tag_129\n      jumpi\n      tag_130\n      tag_103\n      jump\t// in\n    tag_130:\n    tag_129:\n      dup2\n      mstore\n      pop\n      pop\n        /* \"contracts/Marketplace2/Marketplace.sol\":20978:20992  idToMarketItem */\n      0x09\n        /* \"contracts/Marketplace2/Marketplace.sol\":20978:21000  idToMarketItem[itemId] */\n      0x00\n        /* \"contracts/Marketplace2/Marketplace.sol\":20993:20999  itemId */\n      dup6\n        /* \"contracts/Marketplace2/Marketplace.sol\":20978:21000  idToMarketItem[itemId] */\n      dup2\n      mstore\n      0x20\n      add\n      swap1\n      dup2\n      mstore\n      0x20\n      add\n      0x00\n      keccak256\n      0x00\n        /* \"contracts/Marketplace2/Marketplace.sol\":20971:21000  delete idToMarketItem[itemId] */\n      dup1\n      dup3\n      add\n      0x00\n      swap1\n      sstore\n      0x01\n      dup3\n      add\n      0x00\n      swap1\n      sstore\n      0x02\n      dup3\n      add\n      exp(0x0100, 0x00)\n      dup2\n      sload\n      swap1\n      0xffffffffffffffffffffffffffffffffffffffff\n      mul\n      not\n      and\n      swap1\n      sstore\n      0x03\n      dup3\n      add\n      exp(0x0100, 0x00)\n      dup2\n      sload\n      swap1\n      0xffffffffffffffffffffffffffffffffffffffff\n      mul\n      not\n      and\n      swap1\n      sstore\n      0x04\n      dup3\n      add\n      0x00\n      swap1\n      sstore\n      0x05\n      dup3\n      add\n      exp(0x0100, 0x00)\n      dup2\n      sload\n      swap1\n      0xff\n      mul\n      not\n      and\n      swap1\n      sstore\n      pop\n      pop\n        /* \"contracts/Marketplace2/Marketplace.sol\":21094:21102  deleteBy */\n      dup3\n        /* \"contracts/Marketplace2/Marketplace.sol\":21015:21141  DelistItemSuccessful(... */\n      0xffffffffffffffffffffffffffffffffffffffff\n      and\n        /* \"contracts/Marketplace2/Marketplace.sol\":21074:21080  itemId */\n      dup5\n        /* \"contracts/Marketplace2/Marketplace.sol\":21015:21141  DelistItemSuccessful(... */\n      0x72ffc2a266acba5f77e2b49400103cb61b428f37a97057ebe671e83fddd71e67\n        /* \"contracts/Marketplace2/Marketplace.sol\":21049:21053  item */\n      dup5\n        /* \"contracts/Marketplace2/Marketplace.sol\":21049:21060  item.itemId */\n      0x00\n      add\n      mload\n        /* \"contracts/Marketplace2/Marketplace.sol\":21116:21131  block.timestamp */\n      timestamp\n        /* \"contracts/Marketplace2/Marketplace.sol\":21015:21141  DelistItemSuccessful(... */\n      mload(0x40)\n      tag_131\n      swap3\n      swap2\n      swap1\n      tag_132\n      jump\t// in\n    tag_131:\n      mload(0x40)\n      dup1\n      swap2\n      sub\n      swap1\n      log3\n        /* \"contracts/Marketplace2/Marketplace.sol\":20433:21148  {... */\n      pop\n      pop\n      pop\n        /* \"contracts/Marketplace2/Marketplace.sol\":20390:21148  function delistItem(uint256 itemId) public {... */\n      pop\n      jump\t// out\n        /* \"contracts/Marketplace2/Marketplace.sol\":18736:18838  function setMainNFT(address _address) external onlyOwner {... */\n    tag_33:\n        /* \"contracts/Marketplace2/Marketplace.sol\":1899:1911  _msgSender() */\n      tag_134\n        /* \"contracts/Marketplace2/Marketplace.sol\":1899:1909  _msgSender */\n      tag_135\n        /* \"contracts/Marketplace2/Marketplace.sol\":1899:1911  _msgSender() */\n      jump\t// in\n    tag_134:\n        /* \"contracts/Marketplace2/Marketplace.sol\":1888:1911  owner() == _msgSender() */\n      0xffffffffffffffffffffffffffffffffffffffff\n      and\n        /* \"contracts/Marketplace2/Marketplace.sol\":1888:1895  owner() */\n      tag_136\n        /* \"contracts/Marketplace2/Marketplace.sol\":1888:1893  owner */\n      tag_63\n        /* \"contracts/Marketplace2/Marketplace.sol\":1888:1895  owner() */\n      jump\t// in\n    tag_136:\n        /* \"contracts/Marketplace2/Marketplace.sol\":1888:1911  owner() == _msgSender() */\n      0xffffffffffffffffffffffffffffffffffffffff\n      and\n      eq\n        /* \"contracts/Marketplace2/Marketplace.sol\":1880:1948  require(owner() == _msgSender(), \"Ownable: caller is not the owner\") */\n      tag_137\n      jumpi\n      mload(0x40)\n      0x08c379a000000000000000000000000000000000000000000000000000000000\n      dup2\n      mstore\n      0x04\n      add\n      tag_138\n      swap1\n      tag_139\n      jump\t// in\n    tag_138:\n      mload(0x40)\n      dup1\n      swap2\n      sub\n      swap1\n      revert\n    tag_137:\n        /* \"contracts/Marketplace2/Marketplace.sol\":18822:18830  _address */\n      dup1\n        /* \"contracts/Marketplace2/Marketplace.sol\":18803:18811  mainNFTs */\n      0x05\n      0x00\n        /* \"contracts/Marketplace2/Marketplace.sol\":18803:18831  mainNFTs = IERC721(_address) */\n      0x0100\n      exp\n      dup2\n      sload\n      dup2\n      0xffffffffffffffffffffffffffffffffffffffff\n      mul\n      not\n      and\n      swap1\n      dup4\n      0xffffffffffffffffffffffffffffffffffffffff\n      and\n      mul\n      or\n      swap1\n      sstore\n      pop\n        /* \"contracts/Marketplace2/Marketplace.sol\":18736:18838  function setMainNFT(address _address) external onlyOwner {... */\n      pop\n      jump\t// out\n        /* \"contracts/Marketplace2/Marketplace.sol\":18627:18731  function setMainToken(address _address) external onlyOwner {... */\n    tag_36:\n        /* \"contracts/Marketplace2/Marketplace.sol\":1899:1911  _msgSender() */\n      tag_142\n        /* \"contracts/Marketplace2/Marketplace.sol\":1899:1909  _msgSender */\n      tag_135\n        /* \"contracts/Marketplace2/Marketplace.sol\":1899:1911  _msgSender() */\n      jump\t// in\n    tag_142:\n        /* \"contracts/Marketplace2/Marketplace.sol\":1888:1911  owner() == _msgSender() */\n      0xffffffffffffffffffffffffffffffffffffffff\n      and\n        /* \"contracts/Marketplace2/Marketplace.sol\":1888:1895  owner() */\n      tag_143\n        /* \"contracts/Marketplace2/Marketplace.sol\":1888:1893  owner */\n      tag_63\n        /* \"contracts/Marketplace2/Marketplace.sol\":1888:1895  owner() */\n      jump\t// in\n    tag_143:\n        /* \"contracts/Marketplace2/Marketplace.sol\":1888:1911  owner() == _msgSender() */\n      0xffffffffffffffffffffffffffffffffffffffff\n      and\n      eq\n        /* \"contracts/Marketplace2/Marketplace.sol\":1880:1948  require(owner() == _msgSender(), \"Ownable: caller is not the owner\") */\n      tag_144\n      jumpi\n      mload(0x40)\n      0x08c379a000000000000000000000000000000000000000000000000000000000\n      dup2\n      mstore\n      0x04\n      add\n      tag_145\n      swap1\n      tag_139\n      jump\t// in\n    tag_145:\n      mload(0x40)\n      dup1\n      swap2\n      sub\n      swap1\n      revert\n    tag_144:\n        /* \"contracts/Marketplace2/Marketplace.sol\":18715:18723  _address */\n      dup1\n        /* \"contracts/Marketplace2/Marketplace.sol\":18696:18705  mainToken */\n      0x03\n      0x00\n        /* \"contracts/Marketplace2/Marketplace.sol\":18696:18724  mainToken = IERC20(_address) */\n      0x0100\n      exp\n      dup2\n      sload\n      dup2\n      0xffffffffffffffffffffffffffffffffffffffff\n      mul\n      not\n      and\n      swap1\n      dup4\n      0xffffffffffffffffffffffffffffffffffffffff\n      and\n      mul\n      or\n      swap1\n      sstore\n      pop\n        /* \"contracts/Marketplace2/Marketplace.sol\":18627:18731  function setMainToken(address _address) external onlyOwner {... */\n      pop\n      jump\t// out\n        /* \"contracts/Marketplace2/Marketplace.sol\":15944:16004  bytes4 public constant ERC721_Interface = bytes4(0x80ac58cd) */\n    tag_38:\n        /* \"contracts/Marketplace2/Marketplace.sol\":15993:16003  0x80ac58cd */\n      0x80ac58cd\n        /* \"contracts/Marketplace2/Marketplace.sol\":15986:16004  bytes4(0x80ac58cd) */\n      0xe0\n      shl\n        /* \"contracts/Marketplace2/Marketplace.sol\":15944:16004  bytes4 public constant ERC721_Interface = bytes4(0x80ac58cd) */\n      dup2\n      jump\t// out\n        /* \"contracts/Marketplace2/Marketplace.sol\":18949:19566  function createMarketItem(... */\n    tag_44:\n        /* \"contracts/Marketplace2/Marketplace.sol\":19048:19049  0 */\n      0x00\n        /* \"contracts/Marketplace2/Marketplace.sol\":19040:19045  price */\n      dup2\n        /* \"contracts/Marketplace2/Marketplace.sol\":19040:19049  price > 0 */\n      gt\n        /* \"contracts/Marketplace2/Marketplace.sol\":19032:19082  require(price > 0, \"Price must be at least 1 wei\") */\n      tag_148\n      jumpi\n      mload(0x40)\n      0x08c379a000000000000000000000000000000000000000000000000000000000\n      dup2\n      mstore\n      0x04\n      add\n      tag_149\n      swap1\n      tag_150\n      jump\t// in\n    tag_149:\n      mload(0x40)\n      dup1\n      swap2\n      sub\n      swap1\n      revert\n    tag_148:\n        /* \"contracts/Marketplace2/Marketplace.sol\":19088:19122  StructLib.ingameItems memory _item */\n      0x00\n        /* \"contracts/Marketplace2/Marketplace.sol\":19125:19132  factory */\n      0x04\n      0x00\n      swap1\n      sload\n      swap1\n      0x0100\n      exp\n      swap1\n      div\n      0xffffffffffffffffffffffffffffffffffffffff\n      and\n        /* \"contracts/Marketplace2/Marketplace.sol\":19125:19146  factory.getIngameItem */\n      0xffffffffffffffffffffffffffffffffffffffff\n      and\n      0x03ce1cb5\n        /* \"contracts/Marketplace2/Marketplace.sol\":19147:19154  tokenId */\n      dup5\n        /* \"contracts/Marketplace2/Marketplace.sol\":19125:19155  factory.getIngameItem(tokenId) */\n      mload(0x40)\n      dup3\n      0xffffffff\n      and\n      0xe0\n      shl\n      dup2\n      mstore\n      0x04\n      add\n      tag_151\n      swap2\n      swap1\n      tag_152\n      jump\t// in\n    tag_151:\n      0x00\n      mload(0x40)\n      dup1\n      dup4\n      sub\n      dup2\n      dup7\n      gas\n      staticcall\n      iszero\n      dup1\n      iszero\n      tag_154\n      jumpi\n      returndatasize\n      0x00\n      dup1\n      returndatacopy\n      revert(0x00, returndatasize)\n    tag_154:\n      pop\n      pop\n      pop\n      pop\n      mload(0x40)\n      returndatasize\n      0x00\n      dup3\n      returndatacopy\n      returndatasize\n      not(0x1f)\n      0x1f\n      dup3\n      add\n      and\n      dup3\n      add\n      dup1\n      0x40\n      mstore\n      pop\n      dup2\n      add\n      swap1\n      tag_155\n      swap2\n      swap1\n      tag_156\n      jump\t// in\n    tag_155:\n        /* \"contracts/Marketplace2/Marketplace.sol\":19088:19155  StructLib.ingameItems memory _item = factory.getIngameItem(tokenId) */\n      swap1\n      pop\n        /* \"contracts/Marketplace2/Marketplace.sol\":19185:19190  false */\n      0x00\n        /* \"contracts/Marketplace2/Marketplace.sol\":19169:19190  _item.ingame == false */\n      iszero\n      iszero\n        /* \"contracts/Marketplace2/Marketplace.sol\":19169:19174  _item */\n      dup2\n        /* \"contracts/Marketplace2/Marketplace.sol\":19169:19181  _item.ingame */\n      0x80\n      add\n      mload\n        /* \"contracts/Marketplace2/Marketplace.sol\":19169:19190  _item.ingame == false */\n      iszero\n      iszero\n      eq\n        /* \"contracts/Marketplace2/Marketplace.sol\":19161:19223  require(_item.ingame == false, \"Item is not available now !\" ) */\n      tag_157\n      jumpi\n      mload(0x40)\n      0x08c379a000000000000000000000000000000000000000000000000000000000\n      dup2\n      mstore\n      0x04\n      add\n      tag_158\n      swap1\n      tag_159\n      jump\t// in\n    tag_158:\n      mload(0x40)\n      dup1\n      swap2\n      sub\n      swap1\n      revert\n    tag_157:\n        /* \"contracts/Marketplace2/Marketplace.sol\":19229:19243  uint256 itemId */\n      0x00\n        /* \"contracts/Marketplace2/Marketplace.sol\":19246:19264  _itemIds.current() */\n      tag_160\n        /* \"contracts/Marketplace2/Marketplace.sol\":19246:19254  _itemIds */\n      0x07\n        /* \"contracts/Marketplace2/Marketplace.sol\":19246:19262  _itemIds.current */\n      tag_161\n        /* \"contracts/Marketplace2/Marketplace.sol\":19246:19264  _itemIds.current() */\n      jump\t// in\n    tag_160:\n        /* \"contracts/Marketplace2/Marketplace.sol\":19229:19264  uint256 itemId = _itemIds.current() */\n      swap1\n      pop\n        /* \"contracts/Marketplace2/Marketplace.sol\":19296:19419  MarketItem(... */\n      mload(0x40)\n      dup1\n      0xc0\n      add\n      0x40\n      mstore\n      dup1\n        /* \"contracts/Marketplace2/Marketplace.sol\":19314:19320  itemId */\n      dup3\n        /* \"contracts/Marketplace2/Marketplace.sol\":19296:19419  MarketItem(... */\n      dup2\n      mstore\n      0x20\n      add\n        /* \"contracts/Marketplace2/Marketplace.sol\":19328:19335  tokenId */\n      dup6\n        /* \"contracts/Marketplace2/Marketplace.sol\":19296:19419  MarketItem(... */\n      dup2\n      mstore\n      0x20\n      add\n        /* \"contracts/Marketplace2/Marketplace.sol\":19343:19353  msg.sender */\n      caller\n        /* \"contracts/Marketplace2/Marketplace.sol\":19296:19419  MarketItem(... */\n      0xffffffffffffffffffffffffffffffffffffffff\n      and\n      dup2\n      mstore\n      0x20\n      add\n        /* \"contracts/Marketplace2/Marketplace.sol\":19369:19373  this */\n      address\n        /* \"contracts/Marketplace2/Marketplace.sol\":19296:19419  MarketItem(... */\n      0xffffffffffffffffffffffffffffffffffffffff\n      and\n      dup2\n      mstore\n      0x20\n      add\n        /* \"contracts/Marketplace2/Marketplace.sol\":19382:19387  price */\n      dup5\n        /* \"contracts/Marketplace2/Marketplace.sol\":19296:19419  MarketItem(... */\n      dup2\n      mstore\n      0x20\n      add\n        /* \"contracts/Marketplace2/Marketplace.sol\":19395:19413  ItemStatus.SELLING */\n      0x01\n        /* \"contracts/Marketplace2/Marketplace.sol\":19296:19419  MarketItem(... */\n      dup1\n      dup2\n      gt\n      iszero\n      tag_162\n      jumpi\n      tag_163\n      tag_103\n      jump\t// in\n    tag_163:\n    tag_162:\n      dup2\n      mstore\n      pop\n        /* \"contracts/Marketplace2/Marketplace.sol\":19270:19284  idToMarketItem */\n      0x09\n        /* \"contracts/Marketplace2/Marketplace.sol\":19270:19292  idToMarketItem[itemId] */\n      0x00\n        /* \"contracts/Marketplace2/Marketplace.sol\":19285:19291  itemId */\n      dup4\n        /* \"contracts/Marketplace2/Marketplace.sol\":19270:19292  idToMarketItem[itemId] */\n      dup2\n      mstore\n      0x20\n      add\n      swap1\n      dup2\n      mstore\n      0x20\n      add\n      0x00\n      keccak256\n        /* \"contracts/Marketplace2/Marketplace.sol\":19270:19419  idToMarketItem[itemId] =  MarketItem(... */\n      0x00\n      dup3\n      add\n      mload\n      dup2\n      0x00\n      add\n      sstore\n      0x20\n      dup3\n      add\n      mload\n      dup2\n      0x01\n      add\n      sstore\n      0x40\n      dup3\n      add\n      mload\n      dup2\n      0x02\n      add\n      exp(0x0100, 0x00)\n      dup2\n      sload\n      dup2\n      0xffffffffffffffffffffffffffffffffffffffff\n      mul\n      not\n      and\n      swap1\n      dup4\n      0xffffffffffffffffffffffffffffffffffffffff\n      and\n      mul\n      or\n      swap1\n      sstore\n      pop\n      0x60\n      dup3\n      add\n      mload\n      dup2\n      0x03\n      add\n      exp(0x0100, 0x00)\n      dup2\n      sload\n      dup2\n      0xffffffffffffffffffffffffffffffffffffffff\n      mul\n      not\n      and\n      swap1\n      dup4\n      0xffffffffffffffffffffffffffffffffffffffff\n      and\n      mul\n      or\n      swap1\n      sstore\n      pop\n      0x80\n      dup3\n      add\n      mload\n      dup2\n      0x04\n      add\n      sstore\n      0xa0\n      dup3\n      add\n      mload\n      dup2\n      0x05\n      add\n      exp(0x0100, 0x00)\n      dup2\n      sload\n      dup2\n      0xff\n      mul\n      not\n      and\n      swap1\n      dup4\n      0x01\n      dup2\n      gt\n      iszero\n      tag_164\n      jumpi\n      tag_165\n      tag_103\n      jump\t// in\n    tag_165:\n    tag_164:\n      mul\n      or\n      swap1\n      sstore\n      pop\n      swap1\n      pop\n      pop\n        /* \"contracts/Marketplace2/Marketplace.sol\":19425:19445  _itemIds.increment() */\n      tag_166\n        /* \"contracts/Marketplace2/Marketplace.sol\":19425:19433  _itemIds */\n      0x07\n        /* \"contracts/Marketplace2/Marketplace.sol\":19425:19443  _itemIds.increment */\n      tag_167\n        /* \"contracts/Marketplace2/Marketplace.sol\":19425:19445  _itemIds.increment() */\n      jump\t// in\n    tag_166:\n        /* \"contracts/Marketplace2/Marketplace.sol\":19496:19503  tokenId */\n      dup4\n        /* \"contracts/Marketplace2/Marketplace.sol\":19482:19488  itemId */\n      dup2\n        /* \"contracts/Marketplace2/Marketplace.sol\":19457:19561  MarketItemCreated(... */\n      0x38690a554ffbc44eb6a75016e47d517d0db8e6c37494adc68d6d0b2c66f0ab21\n        /* \"contracts/Marketplace2/Marketplace.sol\":19511:19521  msg.sender */\n      caller\n        /* \"contracts/Marketplace2/Marketplace.sol\":19537:19541  this */\n      address\n        /* \"contracts/Marketplace2/Marketplace.sol\":19550:19555  price */\n      dup8\n        /* \"contracts/Marketplace2/Marketplace.sol\":19457:19561  MarketItemCreated(... */\n      mload(0x40)\n      tag_168\n      swap4\n      swap3\n      swap2\n      swap1\n      tag_123\n      jump\t// in\n    tag_168:\n      mload(0x40)\n      dup1\n      swap2\n      sub\n      swap1\n      log3\n        /* \"contracts/Marketplace2/Marketplace.sol\":19026:19566  {... */\n      pop\n      pop\n        /* \"contracts/Marketplace2/Marketplace.sol\":18949:19566  function createMarketItem(... */\n      pop\n      pop\n      jump\t// out\n        /* \"contracts/Marketplace2/Marketplace.sol\":16208:16231  IERC20 public mainToken */\n    tag_46:\n      0x03\n      0x00\n      swap1\n      sload\n      swap1\n      0x0100\n      exp\n      swap1\n      div\n      0xffffffffffffffffffffffffffffffffffffffff\n      and\n      dup2\n      jump\t// out\n        /* \"contracts/Marketplace2/Marketplace.sol\":17622:18478  function getMarketItem() public view returns(MarketItem[] memory) { ... */\n    tag_50:\n        /* \"contracts/Marketplace2/Marketplace.sol\":17667:17686  MarketItem[] memory */\n      0x60\n        /* \"contracts/Marketplace2/Marketplace.sol\":17703:17722  uint totalItemCount */\n      0x00\n        /* \"contracts/Marketplace2/Marketplace.sol\":17725:17743  _itemIds.current() */\n      tag_170\n        /* \"contracts/Marketplace2/Marketplace.sol\":17725:17733  _itemIds */\n      0x07\n        /* \"contracts/Marketplace2/Marketplace.sol\":17725:17741  _itemIds.current */\n      tag_161\n        /* \"contracts/Marketplace2/Marketplace.sol\":17725:17743  _itemIds.current() */\n      jump\t// in\n    tag_170:\n        /* \"contracts/Marketplace2/Marketplace.sol\":17703:17743  uint totalItemCount = _itemIds.current() */\n      swap1\n      pop\n        /* \"contracts/Marketplace2/Marketplace.sol\":17757:17771  uint itemCount */\n      0x00\n        /* \"contracts/Marketplace2/Marketplace.sol\":17789:17806  uint currentIndex */\n      dup1\n        /* \"contracts/Marketplace2/Marketplace.sol\":17840:17846  uint i */\n      0x00\n        /* \"contracts/Marketplace2/Marketplace.sol\":17835:18012  for (uint i = 0; i < totalItemCount; i++) {... */\n    tag_171:\n        /* \"contracts/Marketplace2/Marketplace.sol\":17856:17870  totalItemCount */\n      dup4\n        /* \"contracts/Marketplace2/Marketplace.sol\":17852:17853  i */\n      dup2\n        /* \"contracts/Marketplace2/Marketplace.sol\":17852:17870  i < totalItemCount */\n      lt\n        /* \"contracts/Marketplace2/Marketplace.sol\":17835:18012  for (uint i = 0; i < totalItemCount; i++) {... */\n      iszero\n      tag_172\n      jumpi\n        /* \"contracts/Marketplace2/Marketplace.sol\":17927:17945  ItemStatus.SELLING */\n      0x01\n        /* \"contracts/Marketplace2/Marketplace.sol\":17899:17945  idToMarketItem[i].status == ItemStatus.SELLING */\n      dup1\n      dup2\n      gt\n      iszero\n      tag_174\n      jumpi\n      tag_175\n      tag_103\n      jump\t// in\n    tag_175:\n    tag_174:\n        /* \"contracts/Marketplace2/Marketplace.sol\":17899:17913  idToMarketItem */\n      0x09\n        /* \"contracts/Marketplace2/Marketplace.sol\":17899:17916  idToMarketItem[i] */\n      0x00\n        /* \"contracts/Marketplace2/Marketplace.sol\":17914:17915  i */\n      dup4\n        /* \"contracts/Marketplace2/Marketplace.sol\":17899:17916  idToMarketItem[i] */\n      dup2\n      mstore\n      0x20\n      add\n      swap1\n      dup2\n      mstore\n      0x20\n      add\n      0x00\n      keccak256\n        /* \"contracts/Marketplace2/Marketplace.sol\":17899:17923  idToMarketItem[i].status */\n      0x05\n      add\n      0x00\n      swap1\n      sload\n      swap1\n      0x0100\n      exp\n      swap1\n      div\n      0xff\n      and\n        /* \"contracts/Marketplace2/Marketplace.sol\":17899:17945  idToMarketItem[i].status == ItemStatus.SELLING */\n      0x01\n      dup2\n      gt\n      iszero\n      tag_176\n      jumpi\n      tag_177\n      tag_103\n      jump\t// in\n    tag_177:\n    tag_176:\n      sub\n        /* \"contracts/Marketplace2/Marketplace.sol\":17895:17998  if (idToMarketItem[i].status == ItemStatus.SELLING) {... */\n      tag_178\n      jumpi\n        /* \"contracts/Marketplace2/Marketplace.sol\":17978:17979  1 */\n      0x01\n        /* \"contracts/Marketplace2/Marketplace.sol\":17965:17979  itemCount += 1 */\n      dup4\n      tag_179\n      swap2\n      swap1\n      tag_180\n      jump\t// in\n    tag_179:\n      swap3\n      pop\n        /* \"contracts/Marketplace2/Marketplace.sol\":17895:17998  if (idToMarketItem[i].status == ItemStatus.SELLING) {... */\n    tag_178:\n        /* \"contracts/Marketplace2/Marketplace.sol\":17872:17875  i++ */\n      dup1\n      dup1\n      tag_181\n      swap1\n      tag_182\n      jump\t// in\n    tag_181:\n      swap2\n      pop\n      pop\n        /* \"contracts/Marketplace2/Marketplace.sol\":17835:18012  for (uint i = 0; i < totalItemCount; i++) {... */\n      jump(tag_171)\n    tag_172:\n      pop\n        /* \"contracts/Marketplace2/Marketplace.sol\":18025:18050  MarketItem[] memory items */\n      0x00\n        /* \"contracts/Marketplace2/Marketplace.sol\":18070:18079  itemCount */\n      dup3\n        /* \"contracts/Marketplace2/Marketplace.sol\":18053:18080  new MarketItem[](itemCount) */\n      0xffffffffffffffff\n      dup2\n      gt\n      iszero\n      tag_183\n      jumpi\n      tag_184\n      tag_185\n      jump\t// in\n    tag_184:\n    tag_183:\n      mload(0x40)\n      swap1\n      dup1\n      dup3\n      mstore\n      dup1\n      0x20\n      mul\n      0x20\n      add\n      dup3\n      add\n      0x40\n      mstore\n      dup1\n      iszero\n      tag_186\n      jumpi\n      dup2\n      0x20\n      add\n    tag_187:\n      tag_188\n      tag_189\n      jump\t// in\n    tag_188:\n      dup2\n      mstore\n      0x20\n      add\n      swap1\n      0x01\n      swap1\n      sub\n      swap1\n      dup2\n      tag_187\n      jumpi\n      swap1\n      pop\n    tag_186:\n      pop\n        /* \"contracts/Marketplace2/Marketplace.sol\":18025:18080  MarketItem[] memory items = new MarketItem[](itemCount) */\n      swap1\n      pop\n        /* \"contracts/Marketplace2/Marketplace.sol\":18099:18105  uint i */\n      0x00\n        /* \"contracts/Marketplace2/Marketplace.sol\":18094:18450  for (uint i = 0; i < totalItemCount; i++) {... */\n    tag_190:\n        /* \"contracts/Marketplace2/Marketplace.sol\":18115:18129  totalItemCount */\n      dup5\n        /* \"contracts/Marketplace2/Marketplace.sol\":18111:18112  i */\n      dup2\n        /* \"contracts/Marketplace2/Marketplace.sol\":18111:18129  i < totalItemCount */\n      lt\n        /* \"contracts/Marketplace2/Marketplace.sol\":18094:18450  for (uint i = 0; i < totalItemCount; i++) {... */\n      iszero\n      tag_191\n      jumpi\n        /* \"contracts/Marketplace2/Marketplace.sol\":18183:18201  ItemStatus.SELLING */\n      0x01\n        /* \"contracts/Marketplace2/Marketplace.sol\":18155:18201  idToMarketItem[i].status == ItemStatus.SELLING */\n      dup1\n      dup2\n      gt\n      iszero\n      tag_193\n      jumpi\n      tag_194\n      tag_103\n      jump\t// in\n    tag_194:\n    tag_193:\n        /* \"contracts/Marketplace2/Marketplace.sol\":18155:18169  idToMarketItem */\n      0x09\n        /* \"contracts/Marketplace2/Marketplace.sol\":18155:18172  idToMarketItem[i] */\n      0x00\n        /* \"contracts/Marketplace2/Marketplace.sol\":18170:18171  i */\n      dup4\n        /* \"contracts/Marketplace2/Marketplace.sol\":18155:18172  idToMarketItem[i] */\n      dup2\n      mstore\n      0x20\n      add\n      swap1\n      dup2\n      mstore\n      0x20\n      add\n      0x00\n      keccak256\n        /* \"contracts/Marketplace2/Marketplace.sol\":18155:18179  idToMarketItem[i].status */\n      0x05\n      add\n      0x00\n      swap1\n      sload\n      swap1\n      0x0100\n      exp\n      swap1\n      div\n      0xff\n      and\n        /* \"contracts/Marketplace2/Marketplace.sol\":18155:18201  idToMarketItem[i].status == ItemStatus.SELLING */\n      0x01\n      dup2\n      gt\n      iszero\n      tag_195\n      jumpi\n      tag_196\n      tag_103\n      jump\t// in\n    tag_196:\n    tag_195:\n      sub\n        /* \"contracts/Marketplace2/Marketplace.sol\":18150:18440  if ( idToMarketItem[i].status == ItemStatus.SELLING) {... */\n      tag_197\n      jumpi\n        /* \"contracts/Marketplace2/Marketplace.sol\":18222:18236  uint currentId */\n      0x00\n        /* \"contracts/Marketplace2/Marketplace.sol\":18239:18253  idToMarketItem */\n      0x09\n        /* \"contracts/Marketplace2/Marketplace.sol\":18239:18256  idToMarketItem[i] */\n      0x00\n        /* \"contracts/Marketplace2/Marketplace.sol\":18254:18255  i */\n      dup4\n        /* \"contracts/Marketplace2/Marketplace.sol\":18239:18256  idToMarketItem[i] */\n      dup2\n      mstore\n      0x20\n      add\n      swap1\n      dup2\n      mstore\n      0x20\n      add\n      0x00\n      keccak256\n        /* \"contracts/Marketplace2/Marketplace.sol\":18239:18263  idToMarketItem[i].itemId */\n      0x00\n      add\n      sload\n        /* \"contracts/Marketplace2/Marketplace.sol\":18222:18263  uint currentId = idToMarketItem[i].itemId */\n      swap1\n      pop\n        /* \"contracts/Marketplace2/Marketplace.sol\":18281:18311  MarketItem storage currentItem */\n      0x00\n        /* \"contracts/Marketplace2/Marketplace.sol\":18314:18328  idToMarketItem */\n      0x09\n        /* \"contracts/Marketplace2/Marketplace.sol\":18314:18339  idToMarketItem[currentId] */\n      0x00\n        /* \"contracts/Marketplace2/Marketplace.sol\":18329:18338  currentId */\n      dup4\n        /* \"contracts/Marketplace2/Marketplace.sol\":18314:18339  idToMarketItem[currentId] */\n      dup2\n      mstore\n      0x20\n      add\n      swap1\n      dup2\n      mstore\n      0x20\n      add\n      0x00\n      keccak256\n        /* \"contracts/Marketplace2/Marketplace.sol\":18281:18339  MarketItem storage currentItem = idToMarketItem[currentId] */\n      swap1\n      pop\n        /* \"contracts/Marketplace2/Marketplace.sol\":18379:18390  currentItem */\n      dup1\n        /* \"contracts/Marketplace2/Marketplace.sol\":18357:18390  items[currentIndex] = currentItem */\n      mload(0x40)\n      dup1\n      0xc0\n      add\n      0x40\n      mstore\n      swap1\n      dup2\n      0x00\n      dup3\n      add\n      sload\n      dup2\n      mstore\n      0x20\n      add\n      0x01\n      dup3\n      add\n      sload\n      dup2\n      mstore\n      0x20\n      add\n      0x02\n      dup3\n      add\n      0x00\n      swap1\n      sload\n      swap1\n      0x0100\n      exp\n      swap1\n      div\n      0xffffffffffffffffffffffffffffffffffffffff\n      and\n      0xffffffffffffffffffffffffffffffffffffffff\n      and\n      0xffffffffffffffffffffffffffffffffffffffff\n      and\n      dup2\n      mstore\n      0x20\n      add\n      0x03\n      dup3\n      add\n      0x00\n      swap1\n      sload\n      swap1\n      0x0100\n      exp\n      swap1\n      div\n      0xffffffffffffffffffffffffffffffffffffffff\n      and\n      0xffffffffffffffffffffffffffffffffffffffff\n      and\n      0xffffffffffffffffffffffffffffffffffffffff\n      and\n      dup2\n      mstore\n      0x20\n      add\n      0x04\n      dup3\n      add\n      sload\n      dup2\n      mstore\n      0x20\n      add\n      0x05\n      dup3\n      add\n      0x00\n      swap1\n      sload\n      swap1\n      0x0100\n      exp\n      swap1\n      div\n      0xff\n      and\n      0x01\n      dup2\n      gt\n      iszero\n      tag_198\n      jumpi\n      tag_199\n      tag_103\n      jump\t// in\n    tag_199:\n    tag_198:\n      0x01\n      dup2\n      gt\n      iszero\n      tag_200\n      jumpi\n      tag_201\n      tag_103\n      jump\t// in\n    tag_201:\n    tag_200:\n      dup2\n      mstore\n      pop\n      pop\n        /* \"contracts/Marketplace2/Marketplace.sol\":18357:18362  items */\n      dup5\n        /* \"contracts/Marketplace2/Marketplace.sol\":18363:18375  currentIndex */\n      dup7\n        /* \"contracts/Marketplace2/Marketplace.sol\":18357:18376  items[currentIndex] */\n      dup2\n      mload\n      dup2\n      lt\n      tag_202\n      jumpi\n      tag_203\n      tag_204\n      jump\t// in\n    tag_203:\n    tag_202:\n      0x20\n      mul\n      0x20\n      add\n      add\n        /* \"contracts/Marketplace2/Marketplace.sol\":18357:18390  items[currentIndex] = currentItem */\n      dup2\n      swap1\n      mstore\n      pop\n        /* \"contracts/Marketplace2/Marketplace.sol\":18424:18425  1 */\n      0x01\n        /* \"contracts/Marketplace2/Marketplace.sol\":18408:18425  currentIndex += 1 */\n      dup6\n      tag_205\n      swap2\n      swap1\n      tag_180\n      jump\t// in\n    tag_205:\n      swap5\n      pop\n        /* \"contracts/Marketplace2/Marketplace.sol\":18203:18440  {... */\n      pop\n      pop\n        /* \"contracts/Marketplace2/Marketplace.sol\":18150:18440  if ( idToMarketItem[i].status == ItemStatus.SELLING) {... */\n    tag_197:\n        /* \"contracts/Marketplace2/Marketplace.sol\":18131:18134  i++ */\n      dup1\n      dup1\n      tag_206\n      swap1\n      tag_182\n      jump\t// in\n    tag_206:\n      swap2\n      pop\n      pop\n        /* \"contracts/Marketplace2/Marketplace.sol\":18094:18450  for (uint i = 0; i < totalItemCount; i++) {... */\n      jump(tag_190)\n    tag_191:\n      pop\n        /* \"contracts/Marketplace2/Marketplace.sol\":18466:18471  items */\n      dup1\n        /* \"contracts/Marketplace2/Marketplace.sol\":18459:18471  return items */\n      swap5\n      pop\n      pop\n      pop\n      pop\n      pop\n        /* \"contracts/Marketplace2/Marketplace.sol\":17622:18478  function getMarketItem() public view returns(MarketItem[] memory) { ... */\n      swap1\n      jump\t// out\n        /* \"contracts/Marketplace2/Marketplace.sol\":18843:18945  function setFactory(address _address) external onlyOwner {... */\n    tag_55:\n        /* \"contracts/Marketplace2/Marketplace.sol\":1899:1911  _msgSender() */\n      tag_208\n        /* \"contracts/Marketplace2/Marketplace.sol\":1899:1909  _msgSender */\n      tag_135\n        /* \"contracts/Marketplace2/Marketplace.sol\":1899:1911  _msgSender() */\n      jump\t// in\n    tag_208:\n        /* \"contracts/Marketplace2/Marketplace.sol\":1888:1911  owner() == _msgSender() */\n      0xffffffffffffffffffffffffffffffffffffffff\n      and\n        /* \"contracts/Marketplace2/Marketplace.sol\":1888:1895  owner() */\n      tag_209\n        /* \"contracts/Marketplace2/Marketplace.sol\":1888:1893  owner */\n      tag_63\n        /* \"contracts/Marketplace2/Marketplace.sol\":1888:1895  owner() */\n      jump\t// in\n    tag_209:\n        /* \"contracts/Marketplace2/Marketplace.sol\":1888:1911  owner() == _msgSender() */\n      0xffffffffffffffffffffffffffffffffffffffff\n      and\n      eq\n        /* \"contracts/Marketplace2/Marketplace.sol\":1880:1948  require(owner() == _msgSender(), \"Ownable: caller is not the owner\") */\n      tag_210\n      jumpi\n      mload(0x40)\n      0x08c379a000000000000000000000000000000000000000000000000000000000\n      dup2\n      mstore\n      0x04\n      add\n      tag_211\n      swap1\n      tag_139\n      jump\t// in\n    tag_211:\n      mload(0x40)\n      dup1\n      swap2\n      sub\n      swap1\n      revert\n    tag_210:\n        /* \"contracts/Marketplace2/Marketplace.sol\":18929:18937  _address */\n      dup1\n        /* \"contracts/Marketplace2/Marketplace.sol\":18910:18917  factory */\n      0x04\n      0x00\n        /* \"contracts/Marketplace2/Marketplace.sol\":18910:18938  factory = IFactory(_address) */\n      0x0100\n      exp\n      dup2\n      sload\n      dup2\n      0xffffffffffffffffffffffffffffffffffffffff\n      mul\n      not\n      and\n      swap1\n      dup4\n      0xffffffffffffffffffffffffffffffffffffffff\n      and\n      mul\n      or\n      swap1\n      sstore\n      pop\n        /* \"contracts/Marketplace2/Marketplace.sol\":18843:18945  function setFactory(address _address) external onlyOwner {... */\n      pop\n      jump\t// out\n        /* \"contracts/Marketplace2/Marketplace.sol\":2308:2409  function renounceOwnership() public virtual onlyOwner {... */\n    tag_57:\n        /* \"contracts/Marketplace2/Marketplace.sol\":1899:1911  _msgSender() */\n      tag_214\n        /* \"contracts/Marketplace2/Marketplace.sol\":1899:1909  _msgSender */\n      tag_135\n        /* \"contracts/Marketplace2/Marketplace.sol\":1899:1911  _msgSender() */\n      jump\t// in\n    tag_214:\n        /* \"contracts/Marketplace2/Marketplace.sol\":1888:1911  owner() == _msgSender() */\n      0xffffffffffffffffffffffffffffffffffffffff\n      and\n        /* \"contracts/Marketplace2/Marketplace.sol\":1888:1895  owner() */\n      tag_215\n        /* \"contracts/Marketplace2/Marketplace.sol\":1888:1893  owner */\n      tag_63\n        /* \"contracts/Marketplace2/Marketplace.sol\":1888:1895  owner() */\n      jump\t// in\n    tag_215:\n        /* \"contracts/Marketplace2/Marketplace.sol\":1888:1911  owner() == _msgSender() */\n      0xffffffffffffffffffffffffffffffffffffffff\n      and\n      eq\n        /* \"contracts/Marketplace2/Marketplace.sol\":1880:1948  require(owner() == _msgSender(), \"Ownable: caller is not the owner\") */\n      tag_216\n      jumpi\n      mload(0x40)\n      0x08c379a000000000000000000000000000000000000000000000000000000000\n      dup2\n      mstore\n      0x04\n      add\n      tag_217\n      swap1\n      tag_139\n      jump\t// in\n    tag_217:\n      mload(0x40)\n      dup1\n      swap2\n      sub\n      swap1\n      revert\n    tag_216:\n        /* \"contracts/Marketplace2/Marketplace.sol\":2372:2402  _transferOwnership(address(0)) */\n      tag_219\n        /* \"contracts/Marketplace2/Marketplace.sol\":2399:2400  0 */\n      0x00\n        /* \"contracts/Marketplace2/Marketplace.sol\":2372:2390  _transferOwnership */\n      tag_220\n        /* \"contracts/Marketplace2/Marketplace.sol\":2372:2402  _transferOwnership(address(0)) */\n      jump\t// in\n    tag_219:\n        /* \"contracts/Marketplace2/Marketplace.sol\":2308:2409  function renounceOwnership() public virtual onlyOwner {... */\n      jump\t// out\n        /* \"contracts/Marketplace2/Marketplace.sol\":16296:16322  uint8 public bnbFeePercent */\n    tag_59:\n      0x05\n      0x14\n      swap1\n      sload\n      swap1\n      0x0100\n      exp\n      swap1\n      div\n      0xff\n      and\n      dup2\n      jump\t// out\n        /* \"contracts/Marketplace2/Marketplace.sol\":1676:1761  function owner() public view virtual returns (address) {... */\n    tag_63:\n        /* \"contracts/Marketplace2/Marketplace.sol\":1722:1729  address */\n      0x00\n        /* \"contracts/Marketplace2/Marketplace.sol\":1748:1754  _owner */\n      0x06\n      0x00\n      swap1\n      sload\n      swap1\n      0x0100\n      exp\n      swap1\n      div\n      0xffffffffffffffffffffffffffffffffffffffff\n      and\n        /* \"contracts/Marketplace2/Marketplace.sol\":1741:1754  return _owner */\n      swap1\n      pop\n        /* \"contracts/Marketplace2/Marketplace.sol\":1676:1761  function owner() public view virtual returns (address) {... */\n      swap1\n      jump\t// out\n        /* \"contracts/Marketplace2/Marketplace.sol\":19569:20386  function createMarketSale(... */\n    tag_68:\n        /* \"contracts/Marketplace2/Marketplace.sol\":19654:19664  uint price */\n      0x00\n        /* \"contracts/Marketplace2/Marketplace.sol\":19667:19681  idToMarketItem */\n      0x09\n        /* \"contracts/Marketplace2/Marketplace.sol\":19667:19689  idToMarketItem[itemId] */\n      0x00\n        /* \"contracts/Marketplace2/Marketplace.sol\":19682:19688  itemId */\n      dup5\n        /* \"contracts/Marketplace2/Marketplace.sol\":19667:19689  idToMarketItem[itemId] */\n      dup2\n      mstore\n      0x20\n      add\n      swap1\n      dup2\n      mstore\n      0x20\n      add\n      0x00\n      keccak256\n        /* \"contracts/Marketplace2/Marketplace.sol\":19667:19695  idToMarketItem[itemId].price */\n      0x04\n      add\n      sload\n        /* \"contracts/Marketplace2/Marketplace.sol\":19654:19695  uint price = idToMarketItem[itemId].price */\n      swap1\n      pop\n        /* \"contracts/Marketplace2/Marketplace.sol\":19701:19713  uint tokenId */\n      0x00\n        /* \"contracts/Marketplace2/Marketplace.sol\":19716:19730  idToMarketItem */\n      0x09\n        /* \"contracts/Marketplace2/Marketplace.sol\":19716:19738  idToMarketItem[itemId] */\n      0x00\n        /* \"contracts/Marketplace2/Marketplace.sol\":19731:19737  itemId */\n      dup6\n        /* \"contracts/Marketplace2/Marketplace.sol\":19716:19738  idToMarketItem[itemId] */\n      dup2\n      mstore\n      0x20\n      add\n      swap1\n      dup2\n      mstore\n      0x20\n      add\n      0x00\n      keccak256\n        /* \"contracts/Marketplace2/Marketplace.sol\":19716:19746  idToMarketItem[itemId].tokenId */\n      0x01\n      add\n      sload\n        /* \"contracts/Marketplace2/Marketplace.sol\":19701:19746  uint tokenId = idToMarketItem[itemId].tokenId */\n      swap1\n      pop\n        /* \"contracts/Marketplace2/Marketplace.sol\":19752:19766  address seller */\n      0x00\n        /* \"contracts/Marketplace2/Marketplace.sol\":19770:19784  idToMarketItem */\n      0x09\n        /* \"contracts/Marketplace2/Marketplace.sol\":19770:19792  idToMarketItem[itemId] */\n      0x00\n        /* \"contracts/Marketplace2/Marketplace.sol\":19785:19791  itemId */\n      dup7\n        /* \"contracts/Marketplace2/Marketplace.sol\":19770:19792  idToMarketItem[itemId] */\n      dup2\n      mstore\n      0x20\n      add\n      swap1\n      dup2\n      mstore\n      0x20\n      add\n      0x00\n      keccak256\n        /* \"contracts/Marketplace2/Marketplace.sol\":19770:19799  idToMarketItem[itemId].seller */\n      0x02\n      add\n      0x00\n      swap1\n      sload\n      swap1\n      0x0100\n      exp\n      swap1\n      div\n      0xffffffffffffffffffffffffffffffffffffffff\n      and\n        /* \"contracts/Marketplace2/Marketplace.sol\":19752:19799  address seller =  idToMarketItem[itemId].seller */\n      swap1\n      pop\n        /* \"contracts/Marketplace2/Marketplace.sol\":19805:19838  StructLib.ingameItems memory item */\n      0x00\n        /* \"contracts/Marketplace2/Marketplace.sol\":19841:19848  factory */\n      0x04\n      0x00\n      swap1\n      sload\n      swap1\n      0x0100\n      exp\n      swap1\n      div\n      0xffffffffffffffffffffffffffffffffffffffff\n      and\n        /* \"contracts/Marketplace2/Marketplace.sol\":19841:19862  factory.getIngameItem */\n      0xffffffffffffffffffffffffffffffffffffffff\n      and\n      0x03ce1cb5\n        /* \"contracts/Marketplace2/Marketplace.sol\":19863:19870  tokenId */\n      dup5\n        /* \"contracts/Marketplace2/Marketplace.sol\":19841:19871  factory.getIngameItem(tokenId) */\n      mload(0x40)\n      dup3\n      0xffffffff\n      and\n      0xe0\n      shl\n      dup2\n      mstore\n      0x04\n      add\n      tag_223\n      swap2\n      swap1\n      tag_152\n      jump\t// in\n    tag_223:\n      0x00\n      mload(0x40)\n      dup1\n      dup4\n      sub\n      dup2\n      dup7\n      gas\n      staticcall\n      iszero\n      dup1\n      iszero\n      tag_225\n      jumpi\n      returndatasize\n      0x00\n      dup1\n      returndatacopy\n      revert(0x00, returndatasize)\n    tag_225:\n      pop\n      pop\n      pop\n      pop\n      mload(0x40)\n      returndatasize\n      0x00\n      dup3\n      returndatacopy\n      returndatasize\n      not(0x1f)\n      0x1f\n      dup3\n      add\n      and\n      dup3\n      add\n      dup1\n      0x40\n      mstore\n      pop\n      dup2\n      add\n      swap1\n      tag_226\n      swap2\n      swap1\n      tag_156\n      jump\t// in\n    tag_226:\n        /* \"contracts/Marketplace2/Marketplace.sol\":19805:19871  StructLib.ingameItems memory item = factory.getIngameItem(tokenId) */\n      swap1\n      pop\n        /* \"contracts/Marketplace2/Marketplace.sol\":19895:19900  price */\n      dup4\n        /* \"contracts/Marketplace2/Marketplace.sol\":19885:19891  amount */\n      dup6\n        /* \"contracts/Marketplace2/Marketplace.sol\":19885:19900  amount == price */\n      eq\n        /* \"contracts/Marketplace2/Marketplace.sol\":19877:19969  require(amount == price, \"Please submit the asking price in order to complete the purchase\") */\n      tag_227\n      jumpi\n      mload(0x40)\n      0x08c379a000000000000000000000000000000000000000000000000000000000\n      dup2\n      mstore\n      0x04\n      add\n      tag_228\n      swap1\n      tag_229\n      jump\t// in\n    tag_228:\n      mload(0x40)\n      dup1\n      swap2\n      sub\n      swap1\n      revert\n    tag_227:\n        /* \"contracts/Marketplace2/Marketplace.sol\":19998:20003  false */\n      0x00\n        /* \"contracts/Marketplace2/Marketplace.sol\":19983:20003  item.ingame == false */\n      iszero\n      iszero\n        /* \"contracts/Marketplace2/Marketplace.sol\":19983:19987  item */\n      dup2\n        /* \"contracts/Marketplace2/Marketplace.sol\":19983:19994  item.ingame */\n      0x80\n      add\n      mload\n        /* \"contracts/Marketplace2/Marketplace.sol\":19983:20003  item.ingame == false */\n      iszero\n      iszero\n      eq\n        /* \"contracts/Marketplace2/Marketplace.sol\":19975:20035  require(item.ingame == false, \"Item is not available now !\") */\n      tag_230\n      jumpi\n      mload(0x40)\n      0x08c379a000000000000000000000000000000000000000000000000000000000\n      dup2\n      mstore\n      0x04\n      add\n      tag_231\n      swap1\n      tag_159\n      jump\t// in\n    tag_231:\n      mload(0x40)\n      dup1\n      swap2\n      sub\n      swap1\n      revert\n    tag_230:\n        /* \"contracts/Marketplace2/Marketplace.sol\":20041:20076  _safeBuyItem(itemId,amount,tokenId) */\n      tag_232\n        /* \"contracts/Marketplace2/Marketplace.sol\":20054:20060  itemId */\n      dup7\n        /* \"contracts/Marketplace2/Marketplace.sol\":20061:20067  amount */\n      dup7\n        /* \"contracts/Marketplace2/Marketplace.sol\":20068:20075  tokenId */\n      dup6\n        /* \"contracts/Marketplace2/Marketplace.sol\":20041:20053  _safeBuyItem */\n      tag_233\n        /* \"contracts/Marketplace2/Marketplace.sol\":20041:20076  _safeBuyItem(itemId,amount,tokenId) */\n      jump\t// in\n    tag_232:\n        /* \"contracts/Marketplace2/Marketplace.sol\":20121:20131  msg.sender */\n      caller\n        /* \"contracts/Marketplace2/Marketplace.sol\":20082:20096  idToMarketItem */\n      0x09\n        /* \"contracts/Marketplace2/Marketplace.sol\":20082:20104  idToMarketItem[itemId] */\n      0x00\n        /* \"contracts/Marketplace2/Marketplace.sol\":20097:20103  itemId */\n      dup9\n        /* \"contracts/Marketplace2/Marketplace.sol\":20082:20104  idToMarketItem[itemId] */\n      dup2\n      mstore\n      0x20\n      add\n      swap1\n      dup2\n      mstore\n      0x20\n      add\n      0x00\n      keccak256\n        /* \"contracts/Marketplace2/Marketplace.sol\":20082:20110  idToMarketItem[itemId].owner */\n      0x03\n      add\n      0x00\n        /* \"contracts/Marketplace2/Marketplace.sol\":20082:20132  idToMarketItem[itemId].owner = address(msg.sender) */\n      0x0100\n      exp\n      dup2\n      sload\n      dup2\n      0xffffffffffffffffffffffffffffffffffffffff\n      mul\n      not\n      and\n      swap1\n      dup4\n      0xffffffffffffffffffffffffffffffffffffffff\n      and\n      mul\n      or\n      swap1\n      sstore\n      pop\n        /* \"contracts/Marketplace2/Marketplace.sol\":20170:20186  ItemStatus.AVAIL */\n      0x00\n        /* \"contracts/Marketplace2/Marketplace.sol\":20138:20152  idToMarketItem */\n      0x09\n        /* \"contracts/Marketplace2/Marketplace.sol\":20138:20160  idToMarketItem[itemId] */\n      0x00\n        /* \"contracts/Marketplace2/Marketplace.sol\":20153:20159  itemId */\n      dup9\n        /* \"contracts/Marketplace2/Marketplace.sol\":20138:20160  idToMarketItem[itemId] */\n      dup2\n      mstore\n      0x20\n      add\n      swap1\n      dup2\n      mstore\n      0x20\n      add\n      0x00\n      keccak256\n        /* \"contracts/Marketplace2/Marketplace.sol\":20138:20167  idToMarketItem[itemId].status */\n      0x05\n      add\n      0x00\n        /* \"contracts/Marketplace2/Marketplace.sol\":20138:20186  idToMarketItem[itemId].status = ItemStatus.AVAIL */\n      0x0100\n      exp\n      dup2\n      sload\n      dup2\n      0xff\n      mul\n      not\n      and\n      swap1\n      dup4\n      0x01\n      dup2\n      gt\n      iszero\n      tag_234\n      jumpi\n      tag_235\n      tag_103\n      jump\t// in\n    tag_235:\n    tag_234:\n      mul\n      or\n      swap1\n      sstore\n      pop\n        /* \"contracts/Marketplace2/Marketplace.sol\":20192:20214  _itemsSold.increment() */\n      tag_236\n        /* \"contracts/Marketplace2/Marketplace.sol\":20192:20202  _itemsSold */\n      0x08\n        /* \"contracts/Marketplace2/Marketplace.sol\":20192:20212  _itemsSold.increment */\n      tag_167\n        /* \"contracts/Marketplace2/Marketplace.sol\":20192:20214  _itemsSold.increment() */\n      jump\t// in\n    tag_236:\n        /* \"contracts/Marketplace2/Marketplace.sol\":20324:20334  msg.sender */\n      caller\n        /* \"contracts/Marketplace2/Marketplace.sol\":20225:20381  BuyItemSuccessful(... */\n      0xffffffffffffffffffffffffffffffffffffffff\n      and\n        /* \"contracts/Marketplace2/Marketplace.sol\":20285:20291  seller */\n      dup3\n        /* \"contracts/Marketplace2/Marketplace.sol\":20225:20381  BuyItemSuccessful(... */\n      0xffffffffffffffffffffffffffffffffffffffff\n      and\n        /* \"contracts/Marketplace2/Marketplace.sol\":20268:20275  tokenId */\n      dup5\n        /* \"contracts/Marketplace2/Marketplace.sol\":20225:20381  BuyItemSuccessful(... */\n      0x551327aee12d0a8b3ede8d0e3182a40a5ff3ed9f1811dd622915db30b609b7df\n        /* \"contracts/Marketplace2/Marketplace.sol\":20252:20258  itemId */\n      dup10\n        /* \"contracts/Marketplace2/Marketplace.sol\":20301:20306  price */\n      dup9\n        /* \"contracts/Marketplace2/Marketplace.sol\":20360:20375  block.timestamp */\n      timestamp\n        /* \"contracts/Marketplace2/Marketplace.sol\":20225:20381  BuyItemSuccessful(... */\n      mload(0x40)\n      tag_237\n      swap4\n      swap3\n      swap2\n      swap1\n      tag_238\n      jump\t// in\n    tag_237:\n      mload(0x40)\n      dup1\n      swap2\n      sub\n      swap1\n      log4\n        /* \"contracts/Marketplace2/Marketplace.sol\":19648:20386  {... */\n      pop\n      pop\n      pop\n      pop\n        /* \"contracts/Marketplace2/Marketplace.sol\":19569:20386  function createMarketSale(... */\n      pop\n      pop\n      jump\t// out\n        /* \"contracts/Marketplace2/Marketplace.sol\":16328:16355  uint8 public antaFeePercent */\n    tag_70:\n      0x05\n      0x15\n      swap1\n      sload\n      swap1\n      0x0100\n      exp\n      swap1\n      div\n      0xff\n      and\n      dup2\n      jump\t// out\n        /* \"contracts/Marketplace2/Marketplace.sol\":15913:15938  MarketItem[] public items */\n    tag_74:\n      0x01\n      dup2\n      dup2\n      sload\n      dup2\n      lt\n      tag_239\n      jumpi\n      0x00\n      dup1\n      revert\n    tag_239:\n      swap1\n      0x00\n      mstore\n      keccak256(0x00, 0x20)\n      swap1\n      0x06\n      mul\n      add\n      0x00\n      swap2\n      pop\n      swap1\n      pop\n      dup1\n      0x00\n      add\n      sload\n      swap1\n      dup1\n      0x01\n      add\n      sload\n      swap1\n      dup1\n      0x02\n      add\n      0x00\n      swap1\n      sload\n      swap1\n      0x0100\n      exp\n      swap1\n      div\n      0xffffffffffffffffffffffffffffffffffffffff\n      and\n      swap1\n      dup1\n      0x03\n      add\n      0x00\n      swap1\n      sload\n      swap1\n      0x0100\n      exp\n      swap1\n      div\n      0xffffffffffffffffffffffffffffffffffffffff\n      and\n      swap1\n      dup1\n      0x04\n      add\n      sload\n      swap1\n      dup1\n      0x05\n      add\n      0x00\n      swap1\n      sload\n      swap1\n      0x0100\n      exp\n      swap1\n      div\n      0xff\n      and\n      swap1\n      pop\n      dup7\n      jump\t// out\n        /* \"contracts/Marketplace2/Marketplace.sol\":16237:16260  IFactory public factory */\n    tag_78:\n      0x04\n      0x00\n      swap1\n      sload\n      swap1\n      0x0100\n      exp\n      swap1\n      div\n      0xffffffffffffffffffffffffffffffffffffffff\n      and\n      dup2\n      jump\t// out\n        /* \"contracts/Marketplace2/Marketplace.sol\":18484:18621  function getMarketItem(uint256 marketItemId) public view returns (MarketItem memory) {... */\n    tag_83:\n        /* \"contracts/Marketplace2/Marketplace.sol\":18550:18567  MarketItem memory */\n      tag_241\n      tag_189\n      jump\t// in\n    tag_241:\n        /* \"contracts/Marketplace2/Marketplace.sol\":18586:18600  idToMarketItem */\n      0x09\n        /* \"contracts/Marketplace2/Marketplace.sol\":18586:18614  idToMarketItem[marketItemId] */\n      0x00\n        /* \"contracts/Marketplace2/Marketplace.sol\":18601:18613  marketItemId */\n      dup4\n        /* \"contracts/Marketplace2/Marketplace.sol\":18586:18614  idToMarketItem[marketItemId] */\n      dup2\n      mstore\n      0x20\n      add\n      swap1\n      dup2\n      mstore\n      0x20\n      add\n      0x00\n      keccak256\n        /* \"contracts/Marketplace2/Marketplace.sol\":18579:18614  return idToMarketItem[marketItemId] */\n      mload(0x40)\n      dup1\n      0xc0\n      add\n      0x40\n      mstore\n      swap1\n      dup2\n      0x00\n      dup3\n      add\n      sload\n      dup2\n      mstore\n      0x20\n      add\n      0x01\n      dup3\n      add\n      sload\n      dup2\n      mstore\n      0x20\n      add\n      0x02\n      dup3\n      add\n      0x00\n      swap1\n      sload\n      swap1\n      0x0100\n      exp\n      swap1\n      div\n      0xffffffffffffffffffffffffffffffffffffffff\n      and\n      0xffffffffffffffffffffffffffffffffffffffff\n      and\n      0xffffffffffffffffffffffffffffffffffffffff\n      and\n      dup2\n      mstore\n      0x20\n      add\n      0x03\n      dup3\n      add\n      0x00\n      swap1\n      sload\n      swap1\n      0x0100\n      exp\n      swap1\n      div\n      0xffffffffffffffffffffffffffffffffffffffff\n      and\n      0xffffffffffffffffffffffffffffffffffffffff\n      and\n      0xffffffffffffffffffffffffffffffffffffffff\n      and\n      dup2\n      mstore\n      0x20\n      add\n      0x04\n      dup3\n      add\n      sload\n      dup2\n      mstore\n      0x20\n      add\n      0x05\n      dup3\n      add\n      0x00\n      swap1\n      sload\n      swap1\n      0x0100\n      exp\n      swap1\n      div\n      0xff\n      and\n      0x01\n      dup2\n      gt\n      iszero\n      tag_243\n      jumpi\n      tag_244\n      tag_103\n      jump\t// in\n    tag_244:\n    tag_243:\n      0x01\n      dup2\n      gt\n      iszero\n      tag_245\n      jumpi\n      tag_246\n      tag_103\n      jump\t// in\n    tag_246:\n    tag_245:\n      dup2\n      mstore\n      pop\n      pop\n      swap1\n      pop\n        /* \"contracts/Marketplace2/Marketplace.sol\":18484:18621  function getMarketItem(uint256 marketItemId) public view returns (MarketItem memory) {... */\n      swap2\n      swap1\n      pop\n      jump\t// out\n        /* \"contracts/Marketplace2/Marketplace.sol\":21162:21379  function _safeTransferToMarket(uint256 tokenId) public {... */\n    tag_88:\n        /* \"contracts/Marketplace2/Marketplace.sol\":21231:21238  factory */\n      0x04\n      0x00\n      swap1\n      sload\n      swap1\n      0x0100\n      exp\n      swap1\n      div\n      0xffffffffffffffffffffffffffffffffffffffff\n      and\n        /* \"contracts/Marketplace2/Marketplace.sol\":21231:21257  factory.setOwnerIngameItem */\n      0xffffffffffffffffffffffffffffffffffffffff\n      and\n      0xc1e9518a\n        /* \"contracts/Marketplace2/Marketplace.sol\":21266:21276  msg.sender */\n      caller\n        /* \"contracts/Marketplace2/Marketplace.sol\":21286:21290  this */\n      address\n        /* \"contracts/Marketplace2/Marketplace.sol\":21293:21300  tokenId */\n      dup5\n        /* \"contracts/Marketplace2/Marketplace.sol\":21231:21301  factory.setOwnerIngameItem(payable(msg.sender),address(this), tokenId) */\n      mload(0x40)\n      dup5\n      0xffffffff\n      and\n      0xe0\n      shl\n      dup2\n      mstore\n      0x04\n      add\n      tag_248\n      swap4\n      swap3\n      swap2\n      swap1\n      tag_249\n      jump\t// in\n    tag_248:\n      0x00\n      mload(0x40)\n      dup1\n      dup4\n      sub\n      dup2\n      0x00\n      dup8\n      dup1\n      extcodesize\n      iszero\n      dup1\n      iszero\n      tag_250\n      jumpi\n      0x00\n      dup1\n      revert\n    tag_250:\n      pop\n      gas\n      call\n      iszero\n      dup1\n      iszero\n      tag_252\n      jumpi\n      returndatasize\n      0x00\n      dup1\n      returndatacopy\n      revert(0x00, returndatasize)\n    tag_252:\n      pop\n      pop\n      pop\n      pop\n        /* \"contracts/Marketplace2/Marketplace.sol\":21315:21323  mainNFTs */\n      0x05\n      0x00\n      swap1\n      sload\n      swap1\n      0x0100\n      exp\n      swap1\n      div\n      0xffffffffffffffffffffffffffffffffffffffff\n      and\n        /* \"contracts/Marketplace2/Marketplace.sol\":21315:21336  mainNFTs.transferFrom */\n      0xffffffffffffffffffffffffffffffffffffffff\n      and\n      0x23b872dd\n        /* \"contracts/Marketplace2/Marketplace.sol\":21337:21347  msg.sender */\n      caller\n        /* \"contracts/Marketplace2/Marketplace.sol\":21357:21361  this */\n      address\n        /* \"contracts/Marketplace2/Marketplace.sol\":21364:21371  tokenId */\n      dup5\n        /* \"contracts/Marketplace2/Marketplace.sol\":21315:21372  mainNFTs.transferFrom(msg.sender, address(this), tokenId) */\n      mload(0x40)\n      dup5\n      0xffffffff\n      and\n      0xe0\n      shl\n      dup2\n      mstore\n      0x04\n      add\n      tag_253\n      swap4\n      swap3\n      swap2\n      swap1\n      tag_123\n      jump\t// in\n    tag_253:\n      0x00\n      mload(0x40)\n      dup1\n      dup4\n      sub\n      dup2\n      0x00\n      dup8\n      dup1\n      extcodesize\n      iszero\n      dup1\n      iszero\n      tag_254\n      jumpi\n      0x00\n      dup1\n      revert\n    tag_254:\n      pop\n      gas\n      call\n      iszero\n      dup1\n      iszero\n      tag_256\n      jumpi\n      returndatasize\n      0x00\n      dup1\n      returndatacopy\n      revert(0x00, returndatasize)\n    tag_256:\n      pop\n      pop\n      pop\n      pop\n        /* \"contracts/Marketplace2/Marketplace.sol\":21162:21379  function _safeTransferToMarket(uint256 tokenId) public {... */\n      pop\n      jump\t// out\n        /* \"contracts/Marketplace2/Marketplace.sol\":2558:2756  function transferOwnership(address newOwner) public virtual onlyOwner {... */\n    tag_91:\n        /* \"contracts/Marketplace2/Marketplace.sol\":1899:1911  _msgSender() */\n      tag_258\n        /* \"contracts/Marketplace2/Marketplace.sol\":1899:1909  _msgSender */\n      tag_135\n        /* \"contracts/Marketplace2/Marketplace.sol\":1899:1911  _msgSender() */\n      jump\t// in\n    tag_258:\n        /* \"contracts/Marketplace2/Marketplace.sol\":1888:1911  owner() == _msgSender() */\n      0xffffffffffffffffffffffffffffffffffffffff\n      and\n        /* \"contracts/Marketplace2/Marketplace.sol\":1888:1895  owner() */\n      tag_259\n        /* \"contracts/Marketplace2/Marketplace.sol\":1888:1893  owner */\n      tag_63\n        /* \"contracts/Marketplace2/Marketplace.sol\":1888:1895  owner() */\n      jump\t// in\n    tag_259:\n        /* \"contracts/Marketplace2/Marketplace.sol\":1888:1911  owner() == _msgSender() */\n      0xffffffffffffffffffffffffffffffffffffffff\n      and\n      eq\n        /* \"contracts/Marketplace2/Marketplace.sol\":1880:1948  require(owner() == _msgSender(), \"Ownable: caller is not the owner\") */\n      tag_260\n      jumpi\n      mload(0x40)\n      0x08c379a000000000000000000000000000000000000000000000000000000000\n      dup2\n      mstore\n      0x04\n      add\n      tag_261\n      swap1\n      tag_139\n      jump\t// in\n    tag_261:\n      mload(0x40)\n      dup1\n      swap2\n      sub\n      swap1\n      revert\n    tag_260:\n        /* \"contracts/Marketplace2/Marketplace.sol\":2666:2667  0 */\n      0x00\n        /* \"contracts/Marketplace2/Marketplace.sol\":2646:2668  newOwner != address(0) */\n      0xffffffffffffffffffffffffffffffffffffffff\n      and\n        /* \"contracts/Marketplace2/Marketplace.sol\":2646:2654  newOwner */\n      dup2\n        /* \"contracts/Marketplace2/Marketplace.sol\":2646:2668  newOwner != address(0) */\n      0xffffffffffffffffffffffffffffffffffffffff\n      and\n      sub\n        /* \"contracts/Marketplace2/Marketplace.sol\":2638:2711  require(newOwner != address(0), \"Ownable: new owner is the zero address\") */\n      tag_263\n      jumpi\n      mload(0x40)\n      0x08c379a000000000000000000000000000000000000000000000000000000000\n      dup2\n      mstore\n      0x04\n      add\n      tag_264\n      swap1\n      tag_265\n      jump\t// in\n    tag_264:\n      mload(0x40)\n      dup1\n      swap2\n      sub\n      swap1\n      revert\n    tag_263:\n        /* \"contracts/Marketplace2/Marketplace.sol\":2721:2749  _transferOwnership(newOwner) */\n      tag_266\n        /* \"contracts/Marketplace2/Marketplace.sol\":2740:2748  newOwner */\n      dup2\n        /* \"contracts/Marketplace2/Marketplace.sol\":2721:2739  _transferOwnership */\n      tag_220\n        /* \"contracts/Marketplace2/Marketplace.sol\":2721:2749  _transferOwnership(newOwner) */\n      jump\t// in\n    tag_266:\n        /* \"contracts/Marketplace2/Marketplace.sol\":2558:2756  function transferOwnership(address newOwner) public virtual onlyOwner {... */\n      pop\n      jump\t// out\n        /* \"contracts/Marketplace2/Marketplace.sol\":16266:16289  IERC721 public mainNFTs */\n    tag_93:\n      0x05\n      0x00\n      swap1\n      sload\n      swap1\n      0x0100\n      exp\n      swap1\n      div\n      0xffffffffffffffffffffffffffffffffffffffff\n      and\n      dup2\n      jump\t// out\n        /* \"contracts/Marketplace2/Marketplace.sol\":16011:16058  mapping (uint256 => MarketItem) public allItems */\n    tag_98:\n      mstore(0x20, 0x02)\n      dup1\n      0x00\n      mstore\n      keccak256(0x00, 0x40)\n      0x00\n      swap2\n      pop\n      swap1\n      pop\n      dup1\n      0x00\n      add\n      sload\n      swap1\n      dup1\n      0x01\n      add\n      sload\n      swap1\n      dup1\n      0x02\n      add\n      0x00\n      swap1\n      sload\n      swap1\n      0x0100\n      exp\n      swap1\n      div\n      0xffffffffffffffffffffffffffffffffffffffff\n      and\n      swap1\n      dup1\n      0x03\n      add\n      0x00\n      swap1\n      sload\n      swap1\n      0x0100\n      exp\n      swap1\n      div\n      0xffffffffffffffffffffffffffffffffffffffff\n      and\n      swap1\n      dup1\n      0x04\n      add\n      sload\n      swap1\n      dup1\n      0x05\n      add\n      0x00\n      swap1\n      sload\n      swap1\n      0x0100\n      exp\n      swap1\n      div\n      0xff\n      and\n      swap1\n      pop\n      dup7\n      jump\t// out\n        /* \"contracts/Marketplace2/Marketplace.sol\":554:650  function _msgSender() internal view virtual returns (address) {... */\n    tag_135:\n        /* \"contracts/Marketplace2/Marketplace.sol\":607:614  address */\n      0x00\n        /* \"contracts/Marketplace2/Marketplace.sol\":633:643  msg.sender */\n      caller\n        /* \"contracts/Marketplace2/Marketplace.sol\":626:643  return msg.sender */\n      swap1\n      pop\n        /* \"contracts/Marketplace2/Marketplace.sol\":554:650  function _msgSender() internal view virtual returns (address) {... */\n      swap1\n      jump\t// out\n        /* \"contracts/Marketplace2/Marketplace.sol\":11853:11965  function current(Counter storage counter) internal view returns (uint256) {... */\n    tag_161:\n        /* \"contracts/Marketplace2/Marketplace.sol\":11918:11925  uint256 */\n      0x00\n        /* \"contracts/Marketplace2/Marketplace.sol\":11944:11951  counter */\n      dup2\n        /* \"contracts/Marketplace2/Marketplace.sol\":11944:11958  counter._value */\n      0x00\n      add\n      sload\n        /* \"contracts/Marketplace2/Marketplace.sol\":11937:11958  return counter._value */\n      swap1\n      pop\n        /* \"contracts/Marketplace2/Marketplace.sol\":11853:11965  function current(Counter storage counter) internal view returns (uint256) {... */\n      swap2\n      swap1\n      pop\n      jump\t// out\n        /* \"contracts/Marketplace2/Marketplace.sol\":11971:12094  function increment(Counter storage counter) internal {... */\n    tag_167:\n        /* \"contracts/Marketplace2/Marketplace.sol\":12076:12077  1 */\n      0x01\n        /* \"contracts/Marketplace2/Marketplace.sol\":12058:12065  counter */\n      dup2\n        /* \"contracts/Marketplace2/Marketplace.sol\":12058:12072  counter._value */\n      0x00\n      add\n      0x00\n        /* \"contracts/Marketplace2/Marketplace.sol\":12058:12077  counter._value += 1 */\n      dup3\n      dup3\n      sload\n      add\n      swap3\n      pop\n      pop\n      dup2\n      swap1\n      sstore\n      pop\n        /* \"contracts/Marketplace2/Marketplace.sol\":11971:12094  function increment(Counter storage counter) internal {... */\n      pop\n      jump\t// out\n        /* \"contracts/Marketplace2/Marketplace.sol\":2910:3097  function _transferOwnership(address newOwner) internal virtual {... */\n    tag_220:\n        /* \"contracts/Marketplace2/Marketplace.sol\":2983:2999  address oldOwner */\n      0x00\n        /* \"contracts/Marketplace2/Marketplace.sol\":3002:3008  _owner */\n      0x06\n      0x00\n      swap1\n      sload\n      swap1\n      0x0100\n      exp\n      swap1\n      div\n      0xffffffffffffffffffffffffffffffffffffffff\n      and\n        /* \"contracts/Marketplace2/Marketplace.sol\":2983:3008  address oldOwner = _owner */\n      swap1\n      pop\n        /* \"contracts/Marketplace2/Marketplace.sol\":3027:3035  newOwner */\n      dup2\n        /* \"contracts/Marketplace2/Marketplace.sol\":3018:3024  _owner */\n      0x06\n      0x00\n        /* \"contracts/Marketplace2/Marketplace.sol\":3018:3035  _owner = newOwner */\n      0x0100\n      exp\n      dup2\n      sload\n      dup2\n      0xffffffffffffffffffffffffffffffffffffffff\n      mul\n      not\n      and\n      swap1\n      dup4\n      0xffffffffffffffffffffffffffffffffffffffff\n      and\n      mul\n      or\n      swap1\n      sstore\n      pop\n        /* \"contracts/Marketplace2/Marketplace.sol\":3081:3089  newOwner */\n      dup2\n        /* \"contracts/Marketplace2/Marketplace.sol\":3050:3090  OwnershipTransferred(oldOwner, newOwner) */\n      0xffffffffffffffffffffffffffffffffffffffff\n      and\n        /* \"contracts/Marketplace2/Marketplace.sol\":3071:3079  oldOwner */\n      dup2\n        /* \"contracts/Marketplace2/Marketplace.sol\":3050:3090  OwnershipTransferred(oldOwner, newOwner) */\n      0xffffffffffffffffffffffffffffffffffffffff\n      and\n      0x8be0079c531659141344cd1fd0a4f28419497f9722a3daafe3b4186f6b6457e0\n      mload(0x40)\n      mload(0x40)\n      dup1\n      swap2\n      sub\n      swap1\n      log3\n        /* \"contracts/Marketplace2/Marketplace.sol\":2973:3097  {... */\n      pop\n        /* \"contracts/Marketplace2/Marketplace.sol\":2910:3097  function _transferOwnership(address newOwner) internal virtual {... */\n      pop\n      jump\t// out\n        /* \"contracts/Marketplace2/Marketplace.sol\":21386:21704  function _safeBuyItem(uint256 itemId,uint256 amount, uint256 tokenId ) private { ... */\n    tag_233:\n        /* \"contracts/Marketplace2/Marketplace.sol\":21476:21485  mainToken */\n      0x03\n      0x00\n      swap1\n      sload\n      swap1\n      0x0100\n      exp\n      swap1\n      div\n      0xffffffffffffffffffffffffffffffffffffffff\n      and\n        /* \"contracts/Marketplace2/Marketplace.sol\":21476:21498  mainToken.transferFrom */\n      0xffffffffffffffffffffffffffffffffffffffff\n      and\n      0x23b872dd\n        /* \"contracts/Marketplace2/Marketplace.sol\":21499:21509  msg.sender */\n      caller\n        /* \"contracts/Marketplace2/Marketplace.sol\":21511:21525  idToMarketItem */\n      0x09\n        /* \"contracts/Marketplace2/Marketplace.sol\":21511:21533  idToMarketItem[itemId] */\n      0x00\n        /* \"contracts/Marketplace2/Marketplace.sol\":21526:21532  itemId */\n      dup8\n        /* \"contracts/Marketplace2/Marketplace.sol\":21511:21533  idToMarketItem[itemId] */\n      dup2\n      mstore\n      0x20\n      add\n      swap1\n      dup2\n      mstore\n      0x20\n      add\n      0x00\n      keccak256\n        /* \"contracts/Marketplace2/Marketplace.sol\":21511:21540  idToMarketItem[itemId].seller */\n      0x02\n      add\n      0x00\n      swap1\n      sload\n      swap1\n      0x0100\n      exp\n      swap1\n      div\n      0xffffffffffffffffffffffffffffffffffffffff\n      and\n        /* \"contracts/Marketplace2/Marketplace.sol\":21543:21549  amount */\n      dup6\n        /* \"contracts/Marketplace2/Marketplace.sol\":21476:21550  mainToken.transferFrom(msg.sender, idToMarketItem[itemId].seller , amount) */\n      mload(0x40)\n      dup5\n      0xffffffff\n      and\n      0xe0\n      shl\n      dup2\n      mstore\n      0x04\n      add\n      tag_272\n      swap4\n      swap3\n      swap2\n      swap1\n      tag_123\n      jump\t// in\n    tag_272:\n      0x20\n      mload(0x40)\n      dup1\n      dup4\n      sub\n      dup2\n      0x00\n      dup8\n      gas\n      call\n      iszero\n      dup1\n      iszero\n      tag_274\n      jumpi\n      returndatasize\n      0x00\n      dup1\n      returndatacopy\n      revert(0x00, returndatasize)\n    tag_274:\n      pop\n      pop\n      pop\n      pop\n      mload(0x40)\n      returndatasize\n      not(0x1f)\n      0x1f\n      dup3\n      add\n      and\n      dup3\n      add\n      dup1\n      0x40\n      mstore\n      pop\n      dup2\n      add\n      swap1\n      tag_275\n      swap2\n      swap1\n      tag_276\n      jump\t// in\n    tag_275:\n      pop\n        /* \"contracts/Marketplace2/Marketplace.sol\":21560:21567  factory */\n      0x04\n      0x00\n      swap1\n      sload\n      swap1\n      0x0100\n      exp\n      swap1\n      div\n      0xffffffffffffffffffffffffffffffffffffffff\n      and\n        /* \"contracts/Marketplace2/Marketplace.sol\":21560:21586  factory.setOwnerIngameItem */\n      0xffffffffffffffffffffffffffffffffffffffff\n      and\n      0xc1e9518a\n        /* \"contracts/Marketplace2/Marketplace.sol\":21587:21597  msg.sender */\n      caller\n        /* \"contracts/Marketplace2/Marketplace.sol\":21606:21610  this */\n      address\n        /* \"contracts/Marketplace2/Marketplace.sol\":21613:21620  tokenId */\n      dup5\n        /* \"contracts/Marketplace2/Marketplace.sol\":21560:21621  factory.setOwnerIngameItem(msg.sender,address(this), tokenId) */\n      mload(0x40)\n      dup5\n      0xffffffff\n      and\n      0xe0\n      shl\n      dup2\n      mstore\n      0x04\n      add\n      tag_277\n      swap4\n      swap3\n      swap2\n      swap1\n      tag_123\n      jump\t// in\n    tag_277:\n      0x00\n      mload(0x40)\n      dup1\n      dup4\n      sub\n      dup2\n      0x00\n      dup8\n      dup1\n      extcodesize\n      iszero\n      dup1\n      iszero\n      tag_278\n      jumpi\n      0x00\n      dup1\n      revert\n    tag_278:\n      pop\n      gas\n      call\n      iszero\n      dup1\n      iszero\n      tag_280\n      jumpi\n      returndatasize\n      0x00\n      dup1\n      returndatacopy\n      revert(0x00, returndatasize)\n    tag_280:\n      pop\n      pop\n      pop\n      pop\n        /* \"contracts/Marketplace2/Marketplace.sol\":21631:21639  mainNFTs */\n      0x05\n      0x00\n      swap1\n      sload\n      swap1\n      0x0100\n      exp\n      swap1\n      div\n      0xffffffffffffffffffffffffffffffffffffffff\n      and\n        /* \"contracts/Marketplace2/Marketplace.sol\":21631:21652  mainNFTs.transferFrom */\n      0xffffffffffffffffffffffffffffffffffffffff\n      and\n      0x23b872dd\n        /* \"contracts/Marketplace2/Marketplace.sol\":21661:21665  this */\n      address\n        /* \"contracts/Marketplace2/Marketplace.sol\":21676:21686  msg.sender */\n      caller\n        /* \"contracts/Marketplace2/Marketplace.sol\":21689:21696  tokenId */\n      dup5\n        /* \"contracts/Marketplace2/Marketplace.sol\":21631:21697  mainNFTs.transferFrom(address(this), address(msg.sender), tokenId) */\n      mload(0x40)\n      dup5\n      0xffffffff\n      and\n      0xe0\n      shl\n      dup2\n      mstore\n      0x04\n      add\n      tag_281\n      swap4\n      swap3\n      swap2\n      swap1\n      tag_123\n      jump\t// in\n    tag_281:\n      0x00\n      mload(0x40)\n      dup1\n      dup4\n      sub\n      dup2\n      0x00\n      dup8\n      dup1\n      extcodesize\n      iszero\n      dup1\n      iszero\n      tag_282\n      jumpi\n      0x00\n      dup1\n      revert\n    tag_282:\n      pop\n      gas\n      call\n      iszero\n      dup1\n      iszero\n      tag_284\n      jumpi\n      returndatasize\n      0x00\n      dup1\n      returndatacopy\n      revert(0x00, returndatasize)\n    tag_284:\n      pop\n      pop\n      pop\n      pop\n        /* \"contracts/Marketplace2/Marketplace.sol\":21386:21704  function _safeBuyItem(uint256 itemId,uint256 amount, uint256 tokenId ) private { ... */\n      pop\n      pop\n      pop\n      jump\t// out\n    tag_189:\n      mload(0x40)\n      dup1\n      0xc0\n      add\n      0x40\n      mstore\n      dup1\n      0x00\n      dup2\n      mstore\n      0x20\n      add\n      0x00\n      dup2\n      mstore\n      0x20\n      add\n      and(0xffffffffffffffffffffffffffffffffffffffff, 0x00)\n      dup2\n      mstore\n      0x20\n      add\n      and(0xffffffffffffffffffffffffffffffffffffffff, 0x00)\n      dup2\n      mstore\n      0x20\n      add\n      0x00\n      dup2\n      mstore\n      0x20\n      add\n      0x00\n      0x01\n      dup2\n      gt\n      iszero\n      tag_285\n      jumpi\n      tag_286\n      tag_103\n      jump\t// in\n    tag_286:\n    tag_285:\n      dup2\n      mstore\n      pop\n      swap1\n      jump\t// out\n        /* \"#utility.yul\":7:82   */\n    tag_287:\n        /* \"#utility.yul\":40:46   */\n      0x00\n        /* \"#utility.yul\":73:75   */\n      0x40\n        /* \"#utility.yul\":67:76   */\n      mload\n        /* \"#utility.yul\":57:76   */\n      swap1\n      pop\n        /* \"#utility.yul\":7:82   */\n      swap1\n      jump\t// out\n        /* \"#utility.yul\":88:205   */\n    tag_288:\n        /* \"#utility.yul\":197:198   */\n      0x00\n        /* \"#utility.yul\":194:195   */\n      dup1\n        /* \"#utility.yul\":187:199   */\n      revert\n        /* \"#utility.yul\":211:328   */\n    tag_289:\n        /* \"#utility.yul\":320:321   */\n      0x00\n        /* \"#utility.yul\":317:318   */\n      dup1\n        /* \"#utility.yul\":310:322   */\n      revert\n        /* \"#utility.yul\":334:411   */\n    tag_290:\n        /* \"#utility.yul\":371:378   */\n      0x00\n        /* \"#utility.yul\":400:405   */\n      dup2\n        /* \"#utility.yul\":389:405   */\n      swap1\n      pop\n        /* \"#utility.yul\":334:411   */\n      swap2\n      swap1\n      pop\n      jump\t// out\n        /* \"#utility.yul\":417:539   */\n    tag_291:\n        /* \"#utility.yul\":490:514   */\n      tag_374\n        /* \"#utility.yul\":508:513   */\n      dup2\n        /* \"#utility.yul\":490:514   */\n      tag_290\n      jump\t// in\n    tag_374:\n        /* \"#utility.yul\":483:488   */\n      dup2\n        /* \"#utility.yul\":480:515   */\n      eq\n        /* \"#utility.yul\":470:533   */\n      tag_375\n      jumpi\n        /* \"#utility.yul\":529:530   */\n      0x00\n        /* \"#utility.yul\":526:527   */\n      dup1\n        /* \"#utility.yul\":519:531   */\n      revert\n        /* \"#utility.yul\":470:533   */\n    tag_375:\n        /* \"#utility.yul\":417:539   */\n      pop\n      jump\t// out\n        /* \"#utility.yul\":545:684   */\n    tag_292:\n        /* \"#utility.yul\":591:596   */\n      0x00\n        /* \"#utility.yul\":629:635   */\n      dup2\n        /* \"#utility.yul\":616:636   */\n      calldataload\n        /* \"#utility.yul\":607:636   */\n      swap1\n      pop\n        /* \"#utility.yul\":645:678   */\n      tag_377\n        /* \"#utility.yul\":672:677   */\n      dup2\n        /* \"#utility.yul\":645:678   */\n      tag_291\n      jump\t// in\n    tag_377:\n        /* \"#utility.yul\":545:684   */\n      swap3\n      swap2\n      pop\n      pop\n      jump\t// out\n        /* \"#utility.yul\":690:1019   */\n    tag_28:\n        /* \"#utility.yul\":749:755   */\n      0x00\n        /* \"#utility.yul\":798:800   */\n      0x20\n        /* \"#utility.yul\":786:795   */\n      dup3\n        /* \"#utility.yul\":777:784   */\n      dup5\n        /* \"#utility.yul\":773:796   */\n      sub\n        /* \"#utility.yul\":769:801   */\n      slt\n        /* \"#utility.yul\":766:885   */\n      iszero\n      tag_379\n      jumpi\n        /* \"#utility.yul\":804:883   */\n      tag_380\n      tag_288\n      jump\t// in\n    tag_380:\n        /* \"#utility.yul\":766:885   */\n    tag_379:\n        /* \"#utility.yul\":924:925   */\n      0x00\n        /* \"#utility.yul\":949:1002   */\n      tag_381\n        /* \"#utility.yul\":994:1001   */\n      dup5\n        /* \"#utility.yul\":985:991   */\n      dup3\n        /* \"#utility.yul\":974:983   */\n      dup6\n        /* \"#utility.yul\":970:992   */\n      add\n        /* \"#utility.yul\":949:1002   */\n      tag_292\n      jump\t// in\n    tag_381:\n        /* \"#utility.yul\":939:1002   */\n      swap2\n      pop\n        /* \"#utility.yul\":895:1012   */\n      pop\n        /* \"#utility.yul\":690:1019   */\n      swap3\n      swap2\n      pop\n      pop\n      jump\t// out\n        /* \"#utility.yul\":1025:1151   */\n    tag_293:\n        /* \"#utility.yul\":1062:1069   */\n      0x00\n        /* \"#utility.yul\":1102:1144   */\n      0xffffffffffffffffffffffffffffffffffffffff\n        /* \"#utility.yul\":1095:1100   */\n      dup3\n        /* \"#utility.yul\":1091:1145   */\n      and\n        /* \"#utility.yul\":1080:1145   */\n      swap1\n      pop\n        /* \"#utility.yul\":1025:1151   */\n      swap2\n      swap1\n      pop\n      jump\t// out\n        /* \"#utility.yul\":1157:1253   */\n    tag_294:\n        /* \"#utility.yul\":1194:1201   */\n      0x00\n        /* \"#utility.yul\":1223:1247   */\n      tag_384\n        /* \"#utility.yul\":1241:1246   */\n      dup3\n        /* \"#utility.yul\":1223:1247   */\n      tag_293\n      jump\t// in\n    tag_384:\n        /* \"#utility.yul\":1212:1247   */\n      swap1\n      pop\n        /* \"#utility.yul\":1157:1253   */\n      swap2\n      swap1\n      pop\n      jump\t// out\n        /* \"#utility.yul\":1259:1381   */\n    tag_295:\n        /* \"#utility.yul\":1332:1356   */\n      tag_386\n        /* \"#utility.yul\":1350:1355   */\n      dup2\n        /* \"#utility.yul\":1332:1356   */\n      tag_294\n      jump\t// in\n    tag_386:\n        /* \"#utility.yul\":1325:1330   */\n      dup2\n        /* \"#utility.yul\":1322:1357   */\n      eq\n        /* \"#utility.yul\":1312:1375   */\n      tag_387\n      jumpi\n        /* \"#utility.yul\":1371:1372   */\n      0x00\n        /* \"#utility.yul\":1368:1369   */\n      dup1\n        /* \"#utility.yul\":1361:1373   */\n      revert\n        /* \"#utility.yul\":1312:1375   */\n    tag_387:\n        /* \"#utility.yul\":1259:1381   */\n      pop\n      jump\t// out\n        /* \"#utility.yul\":1387:1526   */\n    tag_296:\n        /* \"#utility.yul\":1433:1438   */\n      0x00\n        /* \"#utility.yul\":1471:1477   */\n      dup2\n        /* \"#utility.yul\":1458:1478   */\n      calldataload\n        /* \"#utility.yul\":1449:1478   */\n      swap1\n      pop\n        /* \"#utility.yul\":1487:1520   */\n      tag_389\n        /* \"#utility.yul\":1514:1519   */\n      dup2\n        /* \"#utility.yul\":1487:1520   */\n      tag_295\n      jump\t// in\n    tag_389:\n        /* \"#utility.yul\":1387:1526   */\n      swap3\n      swap2\n      pop\n      pop\n      jump\t// out\n        /* \"#utility.yul\":1532:1861   */\n    tag_32:\n        /* \"#utility.yul\":1591:1597   */\n      0x00\n        /* \"#utility.yul\":1640:1642   */\n      0x20\n        /* \"#utility.yul\":1628:1637   */\n      dup3\n        /* \"#utility.yul\":1619:1626   */\n      dup5\n        /* \"#utility.yul\":1615:1638   */\n      sub\n        /* \"#utility.yul\":1611:1643   */\n      slt\n        /* \"#utility.yul\":1608:1727   */\n      iszero\n      tag_391\n      jumpi\n        /* \"#utility.yul\":1646:1725   */\n      tag_392\n      tag_288\n      jump\t// in\n    tag_392:\n        /* \"#utility.yul\":1608:1727   */\n    tag_391:\n        /* \"#utility.yul\":1766:1767   */\n      0x00\n        /* \"#utility.yul\":1791:1844   */\n      tag_393\n        /* \"#utility.yul\":1836:1843   */\n      dup5\n        /* \"#utility.yul\":1827:1833   */\n      dup3\n        /* \"#utility.yul\":1816:1825   */\n      dup6\n        /* \"#utility.yul\":1812:1834   */\n      add\n        /* \"#utility.yul\":1791:1844   */\n      tag_296\n      jump\t// in\n    tag_393:\n        /* \"#utility.yul\":1781:1844   */\n      swap2\n      pop\n        /* \"#utility.yul\":1737:1854   */\n      pop\n        /* \"#utility.yul\":1532:1861   */\n      swap3\n      swap2\n      pop\n      pop\n      jump\t// out\n        /* \"#utility.yul\":1867:2016   */\n    tag_297:\n        /* \"#utility.yul\":1903:1910   */\n      0x00\n        /* \"#utility.yul\":1943:2009   */\n      0xffffffff00000000000000000000000000000000000000000000000000000000\n        /* \"#utility.yul\":1936:1941   */\n      dup3\n        /* \"#utility.yul\":1932:2010   */\n      and\n        /* \"#utility.yul\":1921:2010   */\n      swap1\n      pop\n        /* \"#utility.yul\":1867:2016   */\n      swap2\n      swap1\n      pop\n      jump\t// out\n        /* \"#utility.yul\":2022:2137   */\n    tag_298:\n        /* \"#utility.yul\":2107:2130   */\n      tag_396\n        /* \"#utility.yul\":2124:2129   */\n      dup2\n        /* \"#utility.yul\":2107:2130   */\n      tag_297\n      jump\t// in\n    tag_396:\n        /* \"#utility.yul\":2102:2105   */\n      dup3\n        /* \"#utility.yul\":2095:2131   */\n      mstore\n        /* \"#utility.yul\":2022:2137   */\n      pop\n      pop\n      jump\t// out\n        /* \"#utility.yul\":2143:2361   */\n    tag_40:\n        /* \"#utility.yul\":2234:2238   */\n      0x00\n        /* \"#utility.yul\":2272:2274   */\n      0x20\n        /* \"#utility.yul\":2261:2270   */\n      dup3\n        /* \"#utility.yul\":2257:2275   */\n      add\n        /* \"#utility.yul\":2249:2275   */\n      swap1\n      pop\n        /* \"#utility.yul\":2285:2354   */\n      tag_398\n        /* \"#utility.yul\":2351:2352   */\n      0x00\n        /* \"#utility.yul\":2340:2349   */\n      dup4\n        /* \"#utility.yul\":2336:2353   */\n      add\n        /* \"#utility.yul\":2327:2333   */\n      dup5\n        /* \"#utility.yul\":2285:2354   */\n      tag_298\n      jump\t// in\n    tag_398:\n        /* \"#utility.yul\":2143:2361   */\n      swap3\n      swap2\n      pop\n      pop\n      jump\t// out\n        /* \"#utility.yul\":2367:2841   */\n    tag_43:\n        /* \"#utility.yul\":2435:2441   */\n      0x00\n        /* \"#utility.yul\":2443:2449   */\n      dup1\n        /* \"#utility.yul\":2492:2494   */\n      0x40\n        /* \"#utility.yul\":2480:2489   */\n      dup4\n        /* \"#utility.yul\":2471:2478   */\n      dup6\n        /* \"#utility.yul\":2467:2490   */\n      sub\n        /* \"#utility.yul\":2463:2495   */\n      slt\n        /* \"#utility.yul\":2460:2579   */\n      iszero\n      tag_400\n      jumpi\n        /* \"#utility.yul\":2498:2577   */\n      tag_401\n      tag_288\n      jump\t// in\n    tag_401:\n        /* \"#utility.yul\":2460:2579   */\n    tag_400:\n        /* \"#utility.yul\":2618:2619   */\n      0x00\n        /* \"#utility.yul\":2643:2696   */\n      tag_402\n        /* \"#utility.yul\":2688:2695   */\n      dup6\n        /* \"#utility.yul\":2679:2685   */\n      dup3\n        /* \"#utility.yul\":2668:2677   */\n      dup7\n        /* \"#utility.yul\":2664:2686   */\n      add\n        /* \"#utility.yul\":2643:2696   */\n      tag_292\n      jump\t// in\n    tag_402:\n        /* \"#utility.yul\":2633:2696   */\n      swap3\n      pop\n        /* \"#utility.yul\":2589:2706   */\n      pop\n        /* \"#utility.yul\":2745:2747   */\n      0x20\n        /* \"#utility.yul\":2771:2824   */\n      tag_403\n        /* \"#utility.yul\":2816:2823   */\n      dup6\n        /* \"#utility.yul\":2807:2813   */\n      dup3\n        /* \"#utility.yul\":2796:2805   */\n      dup7\n        /* \"#utility.yul\":2792:2814   */\n      add\n        /* \"#utility.yul\":2771:2824   */\n      tag_292\n      jump\t// in\n    tag_403:\n        /* \"#utility.yul\":2761:2824   */\n      swap2\n      pop\n        /* \"#utility.yul\":2716:2834   */\n      pop\n        /* \"#utility.yul\":2367:2841   */\n      swap3\n      pop\n      swap3\n      swap1\n      pop\n      jump\t// out\n        /* \"#utility.yul\":2847:2907   */\n    tag_299:\n        /* \"#utility.yul\":2875:2878   */\n      0x00\n        /* \"#utility.yul\":2896:2901   */\n      dup2\n        /* \"#utility.yul\":2889:2901   */\n      swap1\n      pop\n        /* \"#utility.yul\":2847:2907   */\n      swap2\n      swap1\n      pop\n      jump\t// out\n        /* \"#utility.yul\":2913:3055   */\n    tag_300:\n        /* \"#utility.yul\":2963:2972   */\n      0x00\n        /* \"#utility.yul\":2996:3049   */\n      tag_406\n        /* \"#utility.yul\":3014:3048   */\n      tag_407\n        /* \"#utility.yul\":3023:3047   */\n      tag_408\n        /* \"#utility.yul\":3041:3046   */\n      dup5\n        /* \"#utility.yul\":3023:3047   */\n      tag_293\n      jump\t// in\n    tag_408:\n        /* \"#utility.yul\":3014:3048   */\n      tag_299\n      jump\t// in\n    tag_407:\n        /* \"#utility.yul\":2996:3049   */\n      tag_293\n      jump\t// in\n    tag_406:\n        /* \"#utility.yul\":2983:3049   */\n      swap1\n      pop\n        /* \"#utility.yul\":2913:3055   */\n      swap2\n      swap1\n      pop\n      jump\t// out\n        /* \"#utility.yul\":3061:3187   */\n    tag_301:\n        /* \"#utility.yul\":3111:3120   */\n      0x00\n        /* \"#utility.yul\":3144:3181   */\n      tag_410\n        /* \"#utility.yul\":3175:3180   */\n      dup3\n        /* \"#utility.yul\":3144:3181   */\n      tag_300\n      jump\t// in\n    tag_410:\n        /* \"#utility.yul\":3131:3181   */\n      swap1\n      pop\n        /* \"#utility.yul\":3061:3187   */\n      swap2\n      swap1\n      pop\n      jump\t// out\n        /* \"#utility.yul\":3193:3333   */\n    tag_302:\n        /* \"#utility.yul\":3257:3266   */\n      0x00\n        /* \"#utility.yul\":3290:3327   */\n      tag_412\n        /* \"#utility.yul\":3321:3326   */\n      dup3\n        /* \"#utility.yul\":3290:3327   */\n      tag_301\n      jump\t// in\n    tag_412:\n        /* \"#utility.yul\":3277:3327   */\n      swap1\n      pop\n        /* \"#utility.yul\":3193:3333   */\n      swap2\n      swap1\n      pop\n      jump\t// out\n        /* \"#utility.yul\":3339:3498   */\n    tag_303:\n        /* \"#utility.yul\":3440:3491   */\n      tag_414\n        /* \"#utility.yul\":3485:3490   */\n      dup2\n        /* \"#utility.yul\":3440:3491   */\n      tag_302\n      jump\t// in\n    tag_414:\n        /* \"#utility.yul\":3435:3438   */\n      dup3\n        /* \"#utility.yul\":3428:3492   */\n      mstore\n        /* \"#utility.yul\":3339:3498   */\n      pop\n      pop\n      jump\t// out\n        /* \"#utility.yul\":3504:3754   */\n    tag_48:\n        /* \"#utility.yul\":3611:3615   */\n      0x00\n        /* \"#utility.yul\":3649:3651   */\n      0x20\n        /* \"#utility.yul\":3638:3647   */\n      dup3\n        /* \"#utility.yul\":3634:3652   */\n      add\n        /* \"#utility.yul\":3626:3652   */\n      swap1\n      pop\n        /* \"#utility.yul\":3662:3747   */\n      tag_416\n        /* \"#utility.yul\":3744:3745   */\n      0x00\n        /* \"#utility.yul\":3733:3742   */\n      dup4\n        /* \"#utility.yul\":3729:3746   */\n      add\n        /* \"#utility.yul\":3720:3726   */\n      dup5\n        /* \"#utility.yul\":3662:3747   */\n      tag_303\n      jump\t// in\n    tag_416:\n        /* \"#utility.yul\":3504:3754   */\n      swap3\n      swap2\n      pop\n      pop\n      jump\t// out\n        /* \"#utility.yul\":3760:3901   */\n    tag_304:\n        /* \"#utility.yul\":3854:3860   */\n      0x00\n        /* \"#utility.yul\":3888:3893   */\n      dup2\n        /* \"#utility.yul\":3882:3894   */\n      mload\n        /* \"#utility.yul\":3872:3894   */\n      swap1\n      pop\n        /* \"#utility.yul\":3760:3901   */\n      swap2\n      swap1\n      pop\n      jump\t// out\n        /* \"#utility.yul\":3907:4118   */\n    tag_305:\n        /* \"#utility.yul\":4033:4044   */\n      0x00\n        /* \"#utility.yul\":4067:4073   */\n      dup3\n        /* \"#utility.yul\":4062:4065   */\n      dup3\n        /* \"#utility.yul\":4055:4074   */\n      mstore\n        /* \"#utility.yul\":4107:4111   */\n      0x20\n        /* \"#utility.yul\":4102:4105   */\n      dup3\n        /* \"#utility.yul\":4098:4112   */\n      add\n        /* \"#utility.yul\":4083:4112   */\n      swap1\n      pop\n        /* \"#utility.yul\":3907:4118   */\n      swap3\n      swap2\n      pop\n      pop\n      jump\t// out\n        /* \"#utility.yul\":4124:4283   */\n    tag_306:\n        /* \"#utility.yul\":4218:4222   */\n      0x00\n        /* \"#utility.yul\":4241:4244   */\n      dup2\n        /* \"#utility.yul\":4233:4244   */\n      swap1\n      pop\n        /* \"#utility.yul\":4271:4275   */\n      0x20\n        /* \"#utility.yul\":4266:4269   */\n      dup3\n        /* \"#utility.yul\":4262:4276   */\n      add\n        /* \"#utility.yul\":4254:4276   */\n      swap1\n      pop\n        /* \"#utility.yul\":4124:4283   */\n      swap2\n      swap1\n      pop\n      jump\t// out\n        /* \"#utility.yul\":4289:4397   */\n    tag_307:\n        /* \"#utility.yul\":4366:4390   */\n      tag_421\n        /* \"#utility.yul\":4384:4389   */\n      dup2\n        /* \"#utility.yul\":4366:4390   */\n      tag_290\n      jump\t// in\n    tag_421:\n        /* \"#utility.yul\":4361:4364   */\n      dup3\n        /* \"#utility.yul\":4354:4391   */\n      mstore\n        /* \"#utility.yul\":4289:4397   */\n      pop\n      pop\n      jump\t// out\n        /* \"#utility.yul\":4403:4511   */\n    tag_308:\n        /* \"#utility.yul\":4480:4504   */\n      tag_423\n        /* \"#utility.yul\":4498:4503   */\n      dup2\n        /* \"#utility.yul\":4480:4504   */\n      tag_294\n      jump\t// in\n    tag_423:\n        /* \"#utility.yul\":4475:4478   */\n      dup3\n        /* \"#utility.yul\":4468:4505   */\n      mstore\n        /* \"#utility.yul\":4403:4511   */\n      pop\n      pop\n      jump\t// out\n        /* \"#utility.yul\":4517:4697   */\n    tag_103:\n        /* \"#utility.yul\":4565:4642   */\n      0x4e487b7100000000000000000000000000000000000000000000000000000000\n        /* \"#utility.yul\":4562:4563   */\n      0x00\n        /* \"#utility.yul\":4555:4643   */\n      mstore\n        /* \"#utility.yul\":4662:4666   */\n      0x21\n        /* \"#utility.yul\":4659:4660   */\n      0x04\n        /* \"#utility.yul\":4652:4667   */\n      mstore\n        /* \"#utility.yul\":4686:4690   */\n      0x24\n        /* \"#utility.yul\":4683:4684   */\n      0x00\n        /* \"#utility.yul\":4676:4691   */\n      revert\n        /* \"#utility.yul\":4703:4822   */\n    tag_309:\n        /* \"#utility.yul\":4790:4791   */\n      0x02\n        /* \"#utility.yul\":4783:4788   */\n      dup2\n        /* \"#utility.yul\":4780:4792   */\n      lt\n        /* \"#utility.yul\":4770:4816   */\n      tag_426\n      jumpi\n        /* \"#utility.yul\":4796:4814   */\n      tag_427\n      tag_103\n      jump\t// in\n    tag_427:\n        /* \"#utility.yul\":4770:4816   */\n    tag_426:\n        /* \"#utility.yul\":4703:4822   */\n      pop\n      jump\t// out\n        /* \"#utility.yul\":4828:4967   */\n    tag_310:\n        /* \"#utility.yul\":4879:4886   */\n      0x00\n        /* \"#utility.yul\":4908:4913   */\n      dup2\n        /* \"#utility.yul\":4897:4913   */\n      swap1\n      pop\n        /* \"#utility.yul\":4914:4961   */\n      tag_429\n        /* \"#utility.yul\":4955:4960   */\n      dup3\n        /* \"#utility.yul\":4914:4961   */\n      tag_309\n      jump\t// in\n    tag_429:\n        /* \"#utility.yul\":4828:4967   */\n      swap2\n      swap1\n      pop\n      jump\t// out\n        /* \"#utility.yul\":4973:5112   */\n    tag_311:\n        /* \"#utility.yul\":5035:5044   */\n      0x00\n        /* \"#utility.yul\":5068:5106   */\n      tag_431\n        /* \"#utility.yul\":5100:5105   */\n      dup3\n        /* \"#utility.yul\":5068:5106   */\n      tag_310\n      jump\t// in\n    tag_431:\n        /* \"#utility.yul\":5055:5106   */\n      swap1\n      pop\n        /* \"#utility.yul\":4973:5112   */\n      swap2\n      swap1\n      pop\n      jump\t// out\n        /* \"#utility.yul\":5118:5263   */\n    tag_312:\n        /* \"#utility.yul\":5207:5256   */\n      tag_433\n        /* \"#utility.yul\":5250:5255   */\n      dup2\n        /* \"#utility.yul\":5207:5256   */\n      tag_311\n      jump\t// in\n    tag_433:\n        /* \"#utility.yul\":5202:5205   */\n      dup3\n        /* \"#utility.yul\":5195:5257   */\n      mstore\n        /* \"#utility.yul\":5118:5263   */\n      pop\n      pop\n      jump\t// out\n        /* \"#utility.yul\":5353:6573   */\n    tag_313:\n        /* \"#utility.yul\":5494:5498   */\n      0xc0\n        /* \"#utility.yul\":5489:5492   */\n      dup3\n        /* \"#utility.yul\":5485:5499   */\n      add\n        /* \"#utility.yul\":5583:5587   */\n      0x00\n        /* \"#utility.yul\":5576:5581   */\n      dup3\n        /* \"#utility.yul\":5572:5588   */\n      add\n        /* \"#utility.yul\":5566:5589   */\n      mload\n        /* \"#utility.yul\":5602:5665   */\n      tag_435\n        /* \"#utility.yul\":5659:5663   */\n      0x00\n        /* \"#utility.yul\":5654:5657   */\n      dup6\n        /* \"#utility.yul\":5650:5664   */\n      add\n        /* \"#utility.yul\":5636:5648   */\n      dup3\n        /* \"#utility.yul\":5602:5665   */\n      tag_307\n      jump\t// in\n    tag_435:\n        /* \"#utility.yul\":5509:5675   */\n      pop\n        /* \"#utility.yul\":5760:5764   */\n      0x20\n        /* \"#utility.yul\":5753:5758   */\n      dup3\n        /* \"#utility.yul\":5749:5765   */\n      add\n        /* \"#utility.yul\":5743:5766   */\n      mload\n        /* \"#utility.yul\":5779:5842   */\n      tag_436\n        /* \"#utility.yul\":5836:5840   */\n      0x20\n        /* \"#utility.yul\":5831:5834   */\n      dup6\n        /* \"#utility.yul\":5827:5841   */\n      add\n        /* \"#utility.yul\":5813:5825   */\n      dup3\n        /* \"#utility.yul\":5779:5842   */\n      tag_307\n      jump\t// in\n    tag_436:\n        /* \"#utility.yul\":5685:5852   */\n      pop\n        /* \"#utility.yul\":5936:5940   */\n      0x40\n        /* \"#utility.yul\":5929:5934   */\n      dup3\n        /* \"#utility.yul\":5925:5941   */\n      add\n        /* \"#utility.yul\":5919:5942   */\n      mload\n        /* \"#utility.yul\":5955:6018   */\n      tag_437\n        /* \"#utility.yul\":6012:6016   */\n      0x40\n        /* \"#utility.yul\":6007:6010   */\n      dup6\n        /* \"#utility.yul\":6003:6017   */\n      add\n        /* \"#utility.yul\":5989:6001   */\n      dup3\n        /* \"#utility.yul\":5955:6018   */\n      tag_308\n      jump\t// in\n    tag_437:\n        /* \"#utility.yul\":5862:6028   */\n      pop\n        /* \"#utility.yul\":6111:6115   */\n      0x60\n        /* \"#utility.yul\":6104:6109   */\n      dup3\n        /* \"#utility.yul\":6100:6116   */\n      add\n        /* \"#utility.yul\":6094:6117   */\n      mload\n        /* \"#utility.yul\":6130:6193   */\n      tag_438\n        /* \"#utility.yul\":6187:6191   */\n      0x60\n        /* \"#utility.yul\":6182:6185   */\n      dup6\n        /* \"#utility.yul\":6178:6192   */\n      add\n        /* \"#utility.yul\":6164:6176   */\n      dup3\n        /* \"#utility.yul\":6130:6193   */\n      tag_308\n      jump\t// in\n    tag_438:\n        /* \"#utility.yul\":6038:6203   */\n      pop\n        /* \"#utility.yul\":6286:6290   */\n      0x80\n        /* \"#utility.yul\":6279:6284   */\n      dup3\n        /* \"#utility.yul\":6275:6291   */\n      add\n        /* \"#utility.yul\":6269:6292   */\n      mload\n        /* \"#utility.yul\":6305:6368   */\n      tag_439\n        /* \"#utility.yul\":6362:6366   */\n      0x80\n        /* \"#utility.yul\":6357:6360   */\n      dup6\n        /* \"#utility.yul\":6353:6367   */\n      add\n        /* \"#utility.yul\":6339:6351   */\n      dup3\n        /* \"#utility.yul\":6305:6368   */\n      tag_307\n      jump\t// in\n    tag_439:\n        /* \"#utility.yul\":6213:6378   */\n      pop\n        /* \"#utility.yul\":6462:6466   */\n      0xa0\n        /* \"#utility.yul\":6455:6460   */\n      dup3\n        /* \"#utility.yul\":6451:6467   */\n      add\n        /* \"#utility.yul\":6445:6468   */\n      mload\n        /* \"#utility.yul\":6481:6556   */\n      tag_440\n        /* \"#utility.yul\":6550:6554   */\n      0xa0\n        /* \"#utility.yul\":6545:6548   */\n      dup6\n        /* \"#utility.yul\":6541:6555   */\n      add\n        /* \"#utility.yul\":6527:6539   */\n      dup3\n        /* \"#utility.yul\":6481:6556   */\n      tag_312\n      jump\t// in\n    tag_440:\n        /* \"#utility.yul\":6388:6566   */\n      pop\n        /* \"#utility.yul\":5463:6573   */\n      pop\n        /* \"#utility.yul\":5353:6573   */\n      pop\n      pop\n      jump\t// out\n        /* \"#utility.yul\":6579:6866   */\n    tag_314:\n        /* \"#utility.yul\":6702:6712   */\n      0x00\n        /* \"#utility.yul\":6723:6823   */\n      tag_442\n        /* \"#utility.yul\":6819:6822   */\n      dup4\n        /* \"#utility.yul\":6811:6817   */\n      dup4\n        /* \"#utility.yul\":6723:6823   */\n      tag_313\n      jump\t// in\n    tag_442:\n        /* \"#utility.yul\":6855:6859   */\n      0xc0\n        /* \"#utility.yul\":6850:6853   */\n      dup4\n        /* \"#utility.yul\":6846:6860   */\n      add\n        /* \"#utility.yul\":6832:6860   */\n      swap1\n      pop\n        /* \"#utility.yul\":6579:6866   */\n      swap3\n      swap2\n      pop\n      pop\n      jump\t// out\n        /* \"#utility.yul\":6872:7012   */\n    tag_315:\n        /* \"#utility.yul\":6969:6973   */\n      0x00\n        /* \"#utility.yul\":7001:7005   */\n      0x20\n        /* \"#utility.yul\":6996:6999   */\n      dup3\n        /* \"#utility.yul\":6992:7006   */\n      add\n        /* \"#utility.yul\":6984:7006   */\n      swap1\n      pop\n        /* \"#utility.yul\":6872:7012   */\n      swap2\n      swap1\n      pop\n      jump\t// out\n        /* \"#utility.yul\":7106:8054   */\n    tag_316:\n        /* \"#utility.yul\":7279:7282   */\n      0x00\n        /* \"#utility.yul\":7308:7389   */\n      tag_445\n        /* \"#utility.yul\":7383:7388   */\n      dup3\n        /* \"#utility.yul\":7308:7389   */\n      tag_304\n      jump\t// in\n    tag_445:\n        /* \"#utility.yul\":7405:7518   */\n      tag_446\n        /* \"#utility.yul\":7511:7517   */\n      dup2\n        /* \"#utility.yul\":7506:7509   */\n      dup6\n        /* \"#utility.yul\":7405:7518   */\n      tag_305\n      jump\t// in\n    tag_446:\n        /* \"#utility.yul\":7398:7518   */\n      swap4\n      pop\n        /* \"#utility.yul\":7542:7625   */\n      tag_447\n        /* \"#utility.yul\":7619:7624   */\n      dup4\n        /* \"#utility.yul\":7542:7625   */\n      tag_306\n      jump\t// in\n    tag_447:\n        /* \"#utility.yul\":7648:7655   */\n      dup1\n        /* \"#utility.yul\":7679:7680   */\n      0x00\n        /* \"#utility.yul\":7664:8029   */\n    tag_448:\n        /* \"#utility.yul\":7689:7695   */\n      dup4\n        /* \"#utility.yul\":7686:7687   */\n      dup2\n        /* \"#utility.yul\":7683:7696   */\n      lt\n        /* \"#utility.yul\":7664:8029   */\n      iszero\n      tag_450\n      jumpi\n        /* \"#utility.yul\":7765:7771   */\n      dup2\n        /* \"#utility.yul\":7759:7772   */\n      mload\n        /* \"#utility.yul\":7792:7909   */\n      tag_451\n        /* \"#utility.yul\":7905:7908   */\n      dup9\n        /* \"#utility.yul\":7890:7903   */\n      dup3\n        /* \"#utility.yul\":7792:7909   */\n      tag_314\n      jump\t// in\n    tag_451:\n        /* \"#utility.yul\":7785:7909   */\n      swap8\n      pop\n        /* \"#utility.yul\":7932:8019   */\n      tag_452\n        /* \"#utility.yul\":8012:8018   */\n      dup4\n        /* \"#utility.yul\":7932:8019   */\n      tag_315\n      jump\t// in\n    tag_452:\n        /* \"#utility.yul\":7922:8019   */\n      swap3\n      pop\n        /* \"#utility.yul\":7724:8029   */\n      pop\n        /* \"#utility.yul\":7711:7712   */\n      0x01\n        /* \"#utility.yul\":7708:7709   */\n      dup2\n        /* \"#utility.yul\":7704:7713   */\n      add\n        /* \"#utility.yul\":7699:7713   */\n      swap1\n      pop\n        /* \"#utility.yul\":7664:8029   */\n      jump(tag_448)\n    tag_450:\n        /* \"#utility.yul\":7668:7682   */\n      pop\n        /* \"#utility.yul\":8045:8048   */\n      dup6\n        /* \"#utility.yul\":8038:8048   */\n      swap4\n      pop\n        /* \"#utility.yul\":7284:8054   */\n      pop\n      pop\n      pop\n        /* \"#utility.yul\":7106:8054   */\n      swap3\n      swap2\n      pop\n      pop\n      jump\t// out\n        /* \"#utility.yul\":8060:8541   */\n    tag_52:\n        /* \"#utility.yul\":8257:8261   */\n      0x00\n        /* \"#utility.yul\":8295:8297   */\n      0x20\n        /* \"#utility.yul\":8284:8293   */\n      dup3\n        /* \"#utility.yul\":8280:8298   */\n      add\n        /* \"#utility.yul\":8272:8298   */\n      swap1\n      pop\n        /* \"#utility.yul\":8344:8353   */\n      dup2\n        /* \"#utility.yul\":8338:8342   */\n      dup2\n        /* \"#utility.yul\":8334:8354   */\n      sub\n        /* \"#utility.yul\":8330:8331   */\n      0x00\n        /* \"#utility.yul\":8319:8328   */\n      dup4\n        /* \"#utility.yul\":8315:8332   */\n      add\n        /* \"#utility.yul\":8308:8355   */\n      mstore\n        /* \"#utility.yul\":8372:8534   */\n      tag_454\n        /* \"#utility.yul\":8529:8533   */\n      dup2\n        /* \"#utility.yul\":8520:8526   */\n      dup5\n        /* \"#utility.yul\":8372:8534   */\n      tag_316\n      jump\t// in\n    tag_454:\n        /* \"#utility.yul\":8364:8534   */\n      swap1\n      pop\n        /* \"#utility.yul\":8060:8541   */\n      swap3\n      swap2\n      pop\n      pop\n      jump\t// out\n        /* \"#utility.yul\":8547:8633   */\n    tag_317:\n        /* \"#utility.yul\":8582:8589   */\n      0x00\n        /* \"#utility.yul\":8622:8626   */\n      0xff\n        /* \"#utility.yul\":8615:8620   */\n      dup3\n        /* \"#utility.yul\":8611:8627   */\n      and\n        /* \"#utility.yul\":8600:8627   */\n      swap1\n      pop\n        /* \"#utility.yul\":8547:8633   */\n      swap2\n      swap1\n      pop\n      jump\t// out\n        /* \"#utility.yul\":8639:8751   */\n    tag_318:\n        /* \"#utility.yul\":8722:8744   */\n      tag_457\n        /* \"#utility.yul\":8738:8743   */\n      dup2\n        /* \"#utility.yul\":8722:8744   */\n      tag_317\n      jump\t// in\n    tag_457:\n        /* \"#utility.yul\":8717:8720   */\n      dup3\n        /* \"#utility.yul\":8710:8745   */\n      mstore\n        /* \"#utility.yul\":8639:8751   */\n      pop\n      pop\n      jump\t// out\n        /* \"#utility.yul\":8757:8971   */\n    tag_61:\n        /* \"#utility.yul\":8846:8850   */\n      0x00\n        /* \"#utility.yul\":8884:8886   */\n      0x20\n        /* \"#utility.yul\":8873:8882   */\n      dup3\n        /* \"#utility.yul\":8869:8887   */\n      add\n        /* \"#utility.yul\":8861:8887   */\n      swap1\n      pop\n        /* \"#utility.yul\":8897:8964   */\n      tag_459\n        /* \"#utility.yul\":8961:8962   */\n      0x00\n        /* \"#utility.yul\":8950:8959   */\n      dup4\n        /* \"#utility.yul\":8946:8963   */\n      add\n        /* \"#utility.yul\":8937:8943   */\n      dup5\n        /* \"#utility.yul\":8897:8964   */\n      tag_318\n      jump\t// in\n    tag_459:\n        /* \"#utility.yul\":8757:8971   */\n      swap3\n      swap2\n      pop\n      pop\n      jump\t// out\n        /* \"#utility.yul\":8977:9095   */\n    tag_319:\n        /* \"#utility.yul\":9064:9088   */\n      tag_461\n        /* \"#utility.yul\":9082:9087   */\n      dup2\n        /* \"#utility.yul\":9064:9088   */\n      tag_294\n      jump\t// in\n    tag_461:\n        /* \"#utility.yul\":9059:9062   */\n      dup3\n        /* \"#utility.yul\":9052:9089   */\n      mstore\n        /* \"#utility.yul\":8977:9095   */\n      pop\n      pop\n      jump\t// out\n        /* \"#utility.yul\":9101:9323   */\n    tag_65:\n        /* \"#utility.yul\":9194:9198   */\n      0x00\n        /* \"#utility.yul\":9232:9234   */\n      0x20\n        /* \"#utility.yul\":9221:9230   */\n      dup3\n        /* \"#utility.yul\":9217:9235   */\n      add\n        /* \"#utility.yul\":9209:9235   */\n      swap1\n      pop\n        /* \"#utility.yul\":9245:9316   */\n      tag_463\n        /* \"#utility.yul\":9313:9314   */\n      0x00\n        /* \"#utility.yul\":9302:9311   */\n      dup4\n        /* \"#utility.yul\":9298:9315   */\n      add\n        /* \"#utility.yul\":9289:9295   */\n      dup5\n        /* \"#utility.yul\":9245:9316   */\n      tag_319\n      jump\t// in\n    tag_463:\n        /* \"#utility.yul\":9101:9323   */\n      swap3\n      swap2\n      pop\n      pop\n      jump\t// out\n        /* \"#utility.yul\":9329:9447   */\n    tag_320:\n        /* \"#utility.yul\":9416:9440   */\n      tag_465\n        /* \"#utility.yul\":9434:9439   */\n      dup2\n        /* \"#utility.yul\":9416:9440   */\n      tag_290\n      jump\t// in\n    tag_465:\n        /* \"#utility.yul\":9411:9414   */\n      dup3\n        /* \"#utility.yul\":9404:9441   */\n      mstore\n        /* \"#utility.yul\":9329:9447   */\n      pop\n      pop\n      jump\t// out\n        /* \"#utility.yul\":9453:9608   */\n    tag_321:\n        /* \"#utility.yul\":9552:9601   */\n      tag_467\n        /* \"#utility.yul\":9595:9600   */\n      dup2\n        /* \"#utility.yul\":9552:9601   */\n      tag_311\n      jump\t// in\n    tag_467:\n        /* \"#utility.yul\":9547:9550   */\n      dup3\n        /* \"#utility.yul\":9540:9602   */\n      mstore\n        /* \"#utility.yul\":9453:9608   */\n      pop\n      pop\n      jump\t// out\n        /* \"#utility.yul\":9614:10413   */\n    tag_76:\n        /* \"#utility.yul\":9859:9863   */\n      0x00\n        /* \"#utility.yul\":9897:9900   */\n      0xc0\n        /* \"#utility.yul\":9886:9895   */\n      dup3\n        /* \"#utility.yul\":9882:9901   */\n      add\n        /* \"#utility.yul\":9874:9901   */\n      swap1\n      pop\n        /* \"#utility.yul\":9911:9982   */\n      tag_469\n        /* \"#utility.yul\":9979:9980   */\n      0x00\n        /* \"#utility.yul\":9968:9977   */\n      dup4\n        /* \"#utility.yul\":9964:9981   */\n      add\n        /* \"#utility.yul\":9955:9961   */\n      dup10\n        /* \"#utility.yul\":9911:9982   */\n      tag_320\n      jump\t// in\n    tag_469:\n        /* \"#utility.yul\":9992:10064   */\n      tag_470\n        /* \"#utility.yul\":10060:10062   */\n      0x20\n        /* \"#utility.yul\":10049:10058   */\n      dup4\n        /* \"#utility.yul\":10045:10063   */\n      add\n        /* \"#utility.yul\":10036:10042   */\n      dup9\n        /* \"#utility.yul\":9992:10064   */\n      tag_320\n      jump\t// in\n    tag_470:\n        /* \"#utility.yul\":10074:10146   */\n      tag_471\n        /* \"#utility.yul\":10142:10144   */\n      0x40\n        /* \"#utility.yul\":10131:10140   */\n      dup4\n        /* \"#utility.yul\":10127:10145   */\n      add\n        /* \"#utility.yul\":10118:10124   */\n      dup8\n        /* \"#utility.yul\":10074:10146   */\n      tag_319\n      jump\t// in\n    tag_471:\n        /* \"#utility.yul\":10156:10228   */\n      tag_472\n        /* \"#utility.yul\":10224:10226   */\n      0x60\n        /* \"#utility.yul\":10213:10222   */\n      dup4\n        /* \"#utility.yul\":10209:10227   */\n      add\n        /* \"#utility.yul\":10200:10206   */\n      dup7\n        /* \"#utility.yul\":10156:10228   */\n      tag_319\n      jump\t// in\n    tag_472:\n        /* \"#utility.yul\":10238:10311   */\n      tag_473\n        /* \"#utility.yul\":10306:10309   */\n      0x80\n        /* \"#utility.yul\":10295:10304   */\n      dup4\n        /* \"#utility.yul\":10291:10310   */\n      add\n        /* \"#utility.yul\":10282:10288   */\n      dup6\n        /* \"#utility.yul\":10238:10311   */\n      tag_320\n      jump\t// in\n    tag_473:\n        /* \"#utility.yul\":10321:10406   */\n      tag_474\n        /* \"#utility.yul\":10401:10404   */\n      0xa0\n        /* \"#utility.yul\":10390:10399   */\n      dup4\n        /* \"#utility.yul\":10386:10405   */\n      add\n        /* \"#utility.yul\":10377:10383   */\n      dup5\n        /* \"#utility.yul\":10321:10406   */\n      tag_321\n      jump\t// in\n    tag_474:\n        /* \"#utility.yul\":9614:10413   */\n      swap8\n      swap7\n      pop\n      pop\n      pop\n      pop\n      pop\n      pop\n      pop\n      jump\t// out\n        /* \"#utility.yul\":10419:10561   */\n    tag_322:\n        /* \"#utility.yul\":10485:10494   */\n      0x00\n        /* \"#utility.yul\":10518:10555   */\n      tag_476\n        /* \"#utility.yul\":10549:10554   */\n      dup3\n        /* \"#utility.yul\":10518:10555   */\n      tag_301\n      jump\t// in\n    tag_476:\n        /* \"#utility.yul\":10505:10555   */\n      swap1\n      pop\n        /* \"#utility.yul\":10419:10561   */\n      swap2\n      swap1\n      pop\n      jump\t// out\n        /* \"#utility.yul\":10567:10730   */\n    tag_323:\n        /* \"#utility.yul\":10670:10723   */\n      tag_478\n        /* \"#utility.yul\":10717:10722   */\n      dup2\n        /* \"#utility.yul\":10670:10723   */\n      tag_322\n      jump\t// in\n    tag_478:\n        /* \"#utility.yul\":10665:10668   */\n      dup3\n        /* \"#utility.yul\":10658:10724   */\n      mstore\n        /* \"#utility.yul\":10567:10730   */\n      pop\n      pop\n      jump\t// out\n        /* \"#utility.yul\":10736:10990   */\n    tag_80:\n        /* \"#utility.yul\":10845:10849   */\n      0x00\n        /* \"#utility.yul\":10883:10885   */\n      0x20\n        /* \"#utility.yul\":10872:10881   */\n      dup3\n        /* \"#utility.yul\":10868:10886   */\n      add\n        /* \"#utility.yul\":10860:10886   */\n      swap1\n      pop\n        /* \"#utility.yul\":10896:10983   */\n      tag_480\n        /* \"#utility.yul\":10980:10981   */\n      0x00\n        /* \"#utility.yul\":10969:10978   */\n      dup4\n        /* \"#utility.yul\":10965:10982   */\n      add\n        /* \"#utility.yul\":10956:10962   */\n      dup5\n        /* \"#utility.yul\":10896:10983   */\n      tag_323\n      jump\t// in\n    tag_480:\n        /* \"#utility.yul\":10736:10990   */\n      swap3\n      swap2\n      pop\n      pop\n      jump\t// out\n        /* \"#utility.yul\":11080:12310   */\n    tag_324:\n        /* \"#utility.yul\":11231:11235   */\n      0xc0\n        /* \"#utility.yul\":11226:11229   */\n      dup3\n        /* \"#utility.yul\":11222:11236   */\n      add\n        /* \"#utility.yul\":11320:11324   */\n      0x00\n        /* \"#utility.yul\":11313:11318   */\n      dup3\n        /* \"#utility.yul\":11309:11325   */\n      add\n        /* \"#utility.yul\":11303:11326   */\n      mload\n        /* \"#utility.yul\":11339:11402   */\n      tag_482\n        /* \"#utility.yul\":11396:11400   */\n      0x00\n        /* \"#utility.yul\":11391:11394   */\n      dup6\n        /* \"#utility.yul\":11387:11401   */\n      add\n        /* \"#utility.yul\":11373:11385   */\n      dup3\n        /* \"#utility.yul\":11339:11402   */\n      tag_307\n      jump\t// in\n    tag_482:\n        /* \"#utility.yul\":11246:11412   */\n      pop\n        /* \"#utility.yul\":11497:11501   */\n      0x20\n        /* \"#utility.yul\":11490:11495   */\n      dup3\n        /* \"#utility.yul\":11486:11502   */\n      add\n        /* \"#utility.yul\":11480:11503   */\n      mload\n        /* \"#utility.yul\":11516:11579   */\n      tag_483\n        /* \"#utility.yul\":11573:11577   */\n      0x20\n        /* \"#utility.yul\":11568:11571   */\n      dup6\n        /* \"#utility.yul\":11564:11578   */\n      add\n        /* \"#utility.yul\":11550:11562   */\n      dup3\n        /* \"#utility.yul\":11516:11579   */\n      tag_307\n      jump\t// in\n    tag_483:\n        /* \"#utility.yul\":11422:11589   */\n      pop\n        /* \"#utility.yul\":11673:11677   */\n      0x40\n        /* \"#utility.yul\":11666:11671   */\n      dup3\n        /* \"#utility.yul\":11662:11678   */\n      add\n        /* \"#utility.yul\":11656:11679   */\n      mload\n        /* \"#utility.yul\":11692:11755   */\n      tag_484\n        /* \"#utility.yul\":11749:11753   */\n      0x40\n        /* \"#utility.yul\":11744:11747   */\n      dup6\n        /* \"#utility.yul\":11740:11754   */\n      add\n        /* \"#utility.yul\":11726:11738   */\n      dup3\n        /* \"#utility.yul\":11692:11755   */\n      tag_308\n      jump\t// in\n    tag_484:\n        /* \"#utility.yul\":11599:11765   */\n      pop\n        /* \"#utility.yul\":11848:11852   */\n      0x60\n        /* \"#utility.yul\":11841:11846   */\n      dup3\n        /* \"#utility.yul\":11837:11853   */\n      add\n        /* \"#utility.yul\":11831:11854   */\n      mload\n        /* \"#utility.yul\":11867:11930   */\n      tag_485\n        /* \"#utility.yul\":11924:11928   */\n      0x60\n        /* \"#utility.yul\":11919:11922   */\n      dup6\n        /* \"#utility.yul\":11915:11929   */\n      add\n        /* \"#utility.yul\":11901:11913   */\n      dup3\n        /* \"#utility.yul\":11867:11930   */\n      tag_308\n      jump\t// in\n    tag_485:\n        /* \"#utility.yul\":11775:11940   */\n      pop\n        /* \"#utility.yul\":12023:12027   */\n      0x80\n        /* \"#utility.yul\":12016:12021   */\n      dup3\n        /* \"#utility.yul\":12012:12028   */\n      add\n        /* \"#utility.yul\":12006:12029   */\n      mload\n        /* \"#utility.yul\":12042:12105   */\n      tag_486\n        /* \"#utility.yul\":12099:12103   */\n      0x80\n        /* \"#utility.yul\":12094:12097   */\n      dup6\n        /* \"#utility.yul\":12090:12104   */\n      add\n        /* \"#utility.yul\":12076:12088   */\n      dup3\n        /* \"#utility.yul\":12042:12105   */\n      tag_307\n      jump\t// in\n    tag_486:\n        /* \"#utility.yul\":11950:12115   */\n      pop\n        /* \"#utility.yul\":12199:12203   */\n      0xa0\n        /* \"#utility.yul\":12192:12197   */\n      dup3\n        /* \"#utility.yul\":12188:12204   */\n      add\n        /* \"#utility.yul\":12182:12205   */\n      mload\n        /* \"#utility.yul\":12218:12293   */\n      tag_487\n        /* \"#utility.yul\":12287:12291   */\n      0xa0\n        /* \"#utility.yul\":12282:12285   */\n      dup6\n        /* \"#utility.yul\":12278:12292   */\n      add\n        /* \"#utility.yul\":12264:12276   */\n      dup3\n        /* \"#utility.yul\":12218:12293   */\n      tag_312\n      jump\t// in\n    tag_487:\n        /* \"#utility.yul\":12125:12303   */\n      pop\n        /* \"#utility.yul\":11200:12310   */\n      pop\n        /* \"#utility.yul\":11080:12310   */\n      pop\n      pop\n      jump\t// out\n        /* \"#utility.yul\":12316:12647   */\n    tag_85:\n        /* \"#utility.yul\":12463:12467   */\n      0x00\n        /* \"#utility.yul\":12501:12504   */\n      0xc0\n        /* \"#utility.yul\":12490:12499   */\n      dup3\n        /* \"#utility.yul\":12486:12505   */\n      add\n        /* \"#utility.yul\":12478:12505   */\n      swap1\n      pop\n        /* \"#utility.yul\":12515:12640   */\n      tag_489\n        /* \"#utility.yul\":12637:12638   */\n      0x00\n        /* \"#utility.yul\":12626:12635   */\n      dup4\n        /* \"#utility.yul\":12622:12639   */\n      add\n        /* \"#utility.yul\":12613:12619   */\n      dup5\n        /* \"#utility.yul\":12515:12640   */\n      tag_324\n      jump\t// in\n    tag_489:\n        /* \"#utility.yul\":12316:12647   */\n      swap3\n      swap2\n      pop\n      pop\n      jump\t// out\n        /* \"#utility.yul\":12653:12794   */\n    tag_325:\n        /* \"#utility.yul\":12718:12727   */\n      0x00\n        /* \"#utility.yul\":12751:12788   */\n      tag_491\n        /* \"#utility.yul\":12782:12787   */\n      dup3\n        /* \"#utility.yul\":12751:12788   */\n      tag_301\n      jump\t// in\n    tag_491:\n        /* \"#utility.yul\":12738:12788   */\n      swap1\n      pop\n        /* \"#utility.yul\":12653:12794   */\n      swap2\n      swap1\n      pop\n      jump\t// out\n        /* \"#utility.yul\":12800:12961   */\n    tag_326:\n        /* \"#utility.yul\":12902:12954   */\n      tag_493\n        /* \"#utility.yul\":12948:12953   */\n      dup2\n        /* \"#utility.yul\":12902:12954   */\n      tag_325\n      jump\t// in\n    tag_493:\n        /* \"#utility.yul\":12897:12900   */\n      dup3\n        /* \"#utility.yul\":12890:12955   */\n      mstore\n        /* \"#utility.yul\":12800:12961   */\n      pop\n      pop\n      jump\t// out\n        /* \"#utility.yul\":12967:13219   */\n    tag_95:\n        /* \"#utility.yul\":13075:13079   */\n      0x00\n        /* \"#utility.yul\":13113:13115   */\n      0x20\n        /* \"#utility.yul\":13102:13111   */\n      dup3\n        /* \"#utility.yul\":13098:13116   */\n      add\n        /* \"#utility.yul\":13090:13116   */\n      swap1\n      pop\n        /* \"#utility.yul\":13126:13212   */\n      tag_495\n        /* \"#utility.yul\":13209:13210   */\n      0x00\n        /* \"#utility.yul\":13198:13207   */\n      dup4\n        /* \"#utility.yul\":13194:13211   */\n      add\n        /* \"#utility.yul\":13185:13191   */\n      dup5\n        /* \"#utility.yul\":13126:13212   */\n      tag_326\n      jump\t// in\n    tag_495:\n        /* \"#utility.yul\":12967:13219   */\n      swap3\n      swap2\n      pop\n      pop\n      jump\t// out\n        /* \"#utility.yul\":13225:13394   */\n    tag_327:\n        /* \"#utility.yul\":13309:13320   */\n      0x00\n        /* \"#utility.yul\":13343:13349   */\n      dup3\n        /* \"#utility.yul\":13338:13341   */\n      dup3\n        /* \"#utility.yul\":13331:13350   */\n      mstore\n        /* \"#utility.yul\":13383:13387   */\n      0x20\n        /* \"#utility.yul\":13378:13381   */\n      dup3\n        /* \"#utility.yul\":13374:13388   */\n      add\n        /* \"#utility.yul\":13359:13388   */\n      swap1\n      pop\n        /* \"#utility.yul\":13225:13394   */\n      swap3\n      swap2\n      pop\n      pop\n      jump\t// out\n        /* \"#utility.yul\":13400:13569   */\n    tag_328:\n        /* \"#utility.yul\":13540:13561   */\n      0x4173736574206e6f74207075626c697368656400000000000000000000000000\n        /* \"#utility.yul\":13536:13537   */\n      0x00\n        /* \"#utility.yul\":13528:13534   */\n      dup3\n        /* \"#utility.yul\":13524:13538   */\n      add\n        /* \"#utility.yul\":13517:13562   */\n      mstore\n        /* \"#utility.yul\":13400:13569   */\n      pop\n      jump\t// out\n        /* \"#utility.yul\":13575:13941   */\n    tag_329:\n        /* \"#utility.yul\":13717:13720   */\n      0x00\n        /* \"#utility.yul\":13738:13805   */\n      tag_499\n        /* \"#utility.yul\":13802:13804   */\n      0x13\n        /* \"#utility.yul\":13797:13800   */\n      dup4\n        /* \"#utility.yul\":13738:13805   */\n      tag_327\n      jump\t// in\n    tag_499:\n        /* \"#utility.yul\":13731:13805   */\n      swap2\n      pop\n        /* \"#utility.yul\":13814:13907   */\n      tag_500\n        /* \"#utility.yul\":13903:13906   */\n      dup3\n        /* \"#utility.yul\":13814:13907   */\n      tag_328\n      jump\t// in\n    tag_500:\n        /* \"#utility.yul\":13932:13934   */\n      0x20\n        /* \"#utility.yul\":13927:13930   */\n      dup3\n        /* \"#utility.yul\":13923:13935   */\n      add\n        /* \"#utility.yul\":13916:13935   */\n      swap1\n      pop\n        /* \"#utility.yul\":13575:13941   */\n      swap2\n      swap1\n      pop\n      jump\t// out\n        /* \"#utility.yul\":13947:14366   */\n    tag_108:\n        /* \"#utility.yul\":14113:14117   */\n      0x00\n        /* \"#utility.yul\":14151:14153   */\n      0x20\n        /* \"#utility.yul\":14140:14149   */\n      dup3\n        /* \"#utility.yul\":14136:14154   */\n      add\n        /* \"#utility.yul\":14128:14154   */\n      swap1\n      pop\n        /* \"#utility.yul\":14200:14209   */\n      dup2\n        /* \"#utility.yul\":14194:14198   */\n      dup2\n        /* \"#utility.yul\":14190:14210   */\n      sub\n        /* \"#utility.yul\":14186:14187   */\n      0x00\n        /* \"#utility.yul\":14175:14184   */\n      dup4\n        /* \"#utility.yul\":14171:14188   */\n      add\n        /* \"#utility.yul\":14164:14211   */\n      mstore\n        /* \"#utility.yul\":14228:14359   */\n      tag_502\n        /* \"#utility.yul\":14354:14358   */\n      dup2\n        /* \"#utility.yul\":14228:14359   */\n      tag_329\n      jump\t// in\n    tag_502:\n        /* \"#utility.yul\":14220:14359   */\n      swap1\n      pop\n        /* \"#utility.yul\":13947:14366   */\n      swap2\n      swap1\n      pop\n      jump\t// out\n        /* \"#utility.yul\":14372:14536   */\n    tag_330:\n        /* \"#utility.yul\":14512:14528   */\n      0x41737365742064656c6973746564000000000000000000000000000000000000\n        /* \"#utility.yul\":14508:14509   */\n      0x00\n        /* \"#utility.yul\":14500:14506   */\n      dup3\n        /* \"#utility.yul\":14496:14510   */\n      add\n        /* \"#utility.yul\":14489:14529   */\n      mstore\n        /* \"#utility.yul\":14372:14536   */\n      pop\n      jump\t// out\n        /* \"#utility.yul\":14542:14908   */\n    tag_331:\n        /* \"#utility.yul\":14684:14687   */\n      0x00\n        /* \"#utility.yul\":14705:14772   */\n      tag_505\n        /* \"#utility.yul\":14769:14771   */\n      0x0e\n        /* \"#utility.yul\":14764:14767   */\n      dup4\n        /* \"#utility.yul\":14705:14772   */\n      tag_327\n      jump\t// in\n    tag_505:\n        /* \"#utility.yul\":14698:14772   */\n      swap2\n      pop\n        /* \"#utility.yul\":14781:14874   */\n      tag_506\n        /* \"#utility.yul\":14870:14873   */\n      dup3\n        /* \"#utility.yul\":14781:14874   */\n      tag_330\n      jump\t// in\n    tag_506:\n        /* \"#utility.yul\":14899:14901   */\n      0x20\n        /* \"#utility.yul\":14894:14897   */\n      dup3\n        /* \"#utility.yul\":14890:14902   */\n      add\n        /* \"#utility.yul\":14883:14902   */\n      swap1\n      pop\n        /* \"#utility.yul\":14542:14908   */\n      swap2\n      swap1\n      pop\n      jump\t// out\n        /* \"#utility.yul\":14914:15333   */\n    tag_115:\n        /* \"#utility.yul\":15080:15084   */\n      0x00\n        /* \"#utility.yul\":15118:15120   */\n      0x20\n        /* \"#utility.yul\":15107:15116   */\n      dup3\n        /* \"#utility.yul\":15103:15121   */\n      add\n        /* \"#utility.yul\":15095:15121   */\n      swap1\n      pop\n        /* \"#utility.yul\":15167:15176   */\n      dup2\n        /* \"#utility.yul\":15161:15165   */\n      dup2\n        /* \"#utility.yul\":15157:15177   */\n      sub\n        /* \"#utility.yul\":15153:15154   */\n      0x00\n        /* \"#utility.yul\":15142:15151   */\n      dup4\n        /* \"#utility.yul\":15138:15155   */\n      add\n        /* \"#utility.yul\":15131:15178   */\n      mstore\n        /* \"#utility.yul\":15195:15326   */\n      tag_508\n        /* \"#utility.yul\":15321:15325   */\n      dup2\n        /* \"#utility.yul\":15195:15326   */\n      tag_331\n      jump\t// in\n    tag_508:\n        /* \"#utility.yul\":15187:15326   */\n      swap1\n      pop\n        /* \"#utility.yul\":14914:15333   */\n      swap2\n      swap1\n      pop\n      jump\t// out\n        /* \"#utility.yul\":15339:15504   */\n    tag_332:\n        /* \"#utility.yul\":15479:15496   */\n      0x496e76616c696420616464726573730000000000000000000000000000000000\n        /* \"#utility.yul\":15475:15476   */\n      0x00\n        /* \"#utility.yul\":15467:15473   */\n      dup3\n        /* \"#utility.yul\":15463:15477   */\n      add\n        /* \"#utility.yul\":15456:15497   */\n      mstore\n        /* \"#utility.yul\":15339:15504   */\n      pop\n      jump\t// out\n        /* \"#utility.yul\":15510:15876   */\n    tag_333:\n        /* \"#utility.yul\":15652:15655   */\n      0x00\n        /* \"#utility.yul\":15673:15740   */\n      tag_511\n        /* \"#utility.yul\":15737:15739   */\n      0x0f\n        /* \"#utility.yul\":15732:15735   */\n      dup4\n        /* \"#utility.yul\":15673:15740   */\n      tag_327\n      jump\t// in\n    tag_511:\n        /* \"#utility.yul\":15666:15740   */\n      swap2\n      pop\n        /* \"#utility.yul\":15749:15842   */\n      tag_512\n        /* \"#utility.yul\":15838:15841   */\n      dup3\n        /* \"#utility.yul\":15749:15842   */\n      tag_332\n      jump\t// in\n    tag_512:\n        /* \"#utility.yul\":15867:15869   */\n      0x20\n        /* \"#utility.yul\":15862:15865   */\n      dup3\n        /* \"#utility.yul\":15858:15870   */\n      add\n        /* \"#utility.yul\":15851:15870   */\n      swap1\n      pop\n        /* \"#utility.yul\":15510:15876   */\n      swap2\n      swap1\n      pop\n      jump\t// out\n        /* \"#utility.yul\":15882:16301   */\n    tag_118:\n        /* \"#utility.yul\":16048:16052   */\n      0x00\n        /* \"#utility.yul\":16086:16088   */\n      0x20\n        /* \"#utility.yul\":16075:16084   */\n      dup3\n        /* \"#utility.yul\":16071:16089   */\n      add\n        /* \"#utility.yul\":16063:16089   */\n      swap1\n      pop\n        /* \"#utility.yul\":16135:16144   */\n      dup2\n        /* \"#utility.yul\":16129:16133   */\n      dup2\n        /* \"#utility.yul\":16125:16145   */\n      sub\n        /* \"#utility.yul\":16121:16122   */\n      0x00\n        /* \"#utility.yul\":16110:16119   */\n      dup4\n        /* \"#utility.yul\":16106:16123   */\n      add\n        /* \"#utility.yul\":16099:16146   */\n      mstore\n        /* \"#utility.yul\":16163:16294   */\n      tag_514\n        /* \"#utility.yul\":16289:16293   */\n      dup2\n        /* \"#utility.yul\":16163:16294   */\n      tag_333\n      jump\t// in\n    tag_514:\n        /* \"#utility.yul\":16155:16294   */\n      swap1\n      pop\n        /* \"#utility.yul\":15882:16301   */\n      swap2\n      swap1\n      pop\n      jump\t// out\n        /* \"#utility.yul\":16307:16479   */\n    tag_334:\n        /* \"#utility.yul\":16447:16471   */\n      0x4f6e6c792073656c6c65722063616e2064656c69737400000000000000000000\n        /* \"#utility.yul\":16443:16444   */\n      0x00\n        /* \"#utility.yul\":16435:16441   */\n      dup3\n        /* \"#utility.yul\":16431:16445   */\n      add\n        /* \"#utility.yul\":16424:16472   */\n      mstore\n        /* \"#utility.yul\":16307:16479   */\n      pop\n      jump\t// out\n        /* \"#utility.yul\":16485:16851   */\n    tag_335:\n        /* \"#utility.yul\":16627:16630   */\n      0x00\n        /* \"#utility.yul\":16648:16715   */\n      tag_517\n        /* \"#utility.yul\":16712:16714   */\n      0x16\n        /* \"#utility.yul\":16707:16710   */\n      dup4\n        /* \"#utility.yul\":16648:16715   */\n      tag_327\n      jump\t// in\n    tag_517:\n        /* \"#utility.yul\":16641:16715   */\n      swap2\n      pop\n        /* \"#utility.yul\":16724:16817   */\n      tag_518\n        /* \"#utility.yul\":16813:16816   */\n      dup3\n        /* \"#utility.yul\":16724:16817   */\n      tag_334\n      jump\t// in\n    tag_518:\n        /* \"#utility.yul\":16842:16844   */\n      0x20\n        /* \"#utility.yul\":16837:16840   */\n      dup3\n        /* \"#utility.yul\":16833:16845   */\n      add\n        /* \"#utility.yul\":16826:16845   */\n      swap1\n      pop\n        /* \"#utility.yul\":16485:16851   */\n      swap2\n      swap1\n      pop\n      jump\t// out\n        /* \"#utility.yul\":16857:17276   */\n    tag_121:\n        /* \"#utility.yul\":17023:17027   */\n      0x00\n        /* \"#utility.yul\":17061:17063   */\n      0x20\n        /* \"#utility.yul\":17050:17059   */\n      dup3\n        /* \"#utility.yul\":17046:17064   */\n      add\n        /* \"#utility.yul\":17038:17064   */\n      swap1\n      pop\n        /* \"#utility.yul\":17110:17119   */\n      dup2\n        /* \"#utility.yul\":17104:17108   */\n      dup2\n        /* \"#utility.yul\":17100:17120   */\n      sub\n        /* \"#utility.yul\":17096:17097   */\n      0x00\n        /* \"#utility.yul\":17085:17094   */\n      dup4\n        /* \"#utility.yul\":17081:17098   */\n      add\n        /* \"#utility.yul\":17074:17121   */\n      mstore\n        /* \"#utility.yul\":17138:17269   */\n      tag_520\n        /* \"#utility.yul\":17264:17268   */\n      dup2\n        /* \"#utility.yul\":17138:17269   */\n      tag_335\n      jump\t// in\n    tag_520:\n        /* \"#utility.yul\":17130:17269   */\n      swap1\n      pop\n        /* \"#utility.yul\":16857:17276   */\n      swap2\n      swap1\n      pop\n      jump\t// out\n        /* \"#utility.yul\":17282:17724   */\n    tag_123:\n        /* \"#utility.yul\":17431:17435   */\n      0x00\n        /* \"#utility.yul\":17469:17471   */\n      0x60\n        /* \"#utility.yul\":17458:17467   */\n      dup3\n        /* \"#utility.yul\":17454:17472   */\n      add\n        /* \"#utility.yul\":17446:17472   */\n      swap1\n      pop\n        /* \"#utility.yul\":17482:17553   */\n      tag_522\n        /* \"#utility.yul\":17550:17551   */\n      0x00\n        /* \"#utility.yul\":17539:17548   */\n      dup4\n        /* \"#utility.yul\":17535:17552   */\n      add\n        /* \"#utility.yul\":17526:17532   */\n      dup7\n        /* \"#utility.yul\":17482:17553   */\n      tag_319\n      jump\t// in\n    tag_522:\n        /* \"#utility.yul\":17563:17635   */\n      tag_523\n        /* \"#utility.yul\":17631:17633   */\n      0x20\n        /* \"#utility.yul\":17620:17629   */\n      dup4\n        /* \"#utility.yul\":17616:17634   */\n      add\n        /* \"#utility.yul\":17607:17613   */\n      dup6\n        /* \"#utility.yul\":17563:17635   */\n      tag_319\n      jump\t// in\n    tag_523:\n        /* \"#utility.yul\":17645:17717   */\n      tag_524\n        /* \"#utility.yul\":17713:17715   */\n      0x40\n        /* \"#utility.yul\":17702:17711   */\n      dup4\n        /* \"#utility.yul\":17698:17716   */\n      add\n        /* \"#utility.yul\":17689:17695   */\n      dup5\n        /* \"#utility.yul\":17645:17717   */\n      tag_320\n      jump\t// in\n    tag_524:\n        /* \"#utility.yul\":17282:17724   */\n      swap5\n      swap4\n      pop\n      pop\n      pop\n      pop\n      jump\t// out\n        /* \"#utility.yul\":17730:18062   */\n    tag_132:\n        /* \"#utility.yul\":17851:17855   */\n      0x00\n        /* \"#utility.yul\":17889:17891   */\n      0x40\n        /* \"#utility.yul\":17878:17887   */\n      dup3\n        /* \"#utility.yul\":17874:17892   */\n      add\n        /* \"#utility.yul\":17866:17892   */\n      swap1\n      pop\n        /* \"#utility.yul\":17902:17973   */\n      tag_526\n        /* \"#utility.yul\":17970:17971   */\n      0x00\n        /* \"#utility.yul\":17959:17968   */\n      dup4\n        /* \"#utility.yul\":17955:17972   */\n      add\n        /* \"#utility.yul\":17946:17952   */\n      dup6\n        /* \"#utility.yul\":17902:17973   */\n      tag_320\n      jump\t// in\n    tag_526:\n        /* \"#utility.yul\":17983:18055   */\n      tag_527\n        /* \"#utility.yul\":18051:18053   */\n      0x20\n        /* \"#utility.yul\":18040:18049   */\n      dup4\n        /* \"#utility.yul\":18036:18054   */\n      add\n        /* \"#utility.yul\":18027:18033   */\n      dup5\n        /* \"#utility.yul\":17983:18055   */\n      tag_320\n      jump\t// in\n    tag_527:\n        /* \"#utility.yul\":17730:18062   */\n      swap4\n      swap3\n      pop\n      pop\n      pop\n      jump\t// out\n        /* \"#utility.yul\":18068:18250   */\n    tag_336:\n        /* \"#utility.yul\":18208:18242   */\n      0x4f776e61626c653a2063616c6c6572206973206e6f7420746865206f776e6572\n        /* \"#utility.yul\":18204:18205   */\n      0x00\n        /* \"#utility.yul\":18196:18202   */\n      dup3\n        /* \"#utility.yul\":18192:18206   */\n      add\n        /* \"#utility.yul\":18185:18243   */\n      mstore\n        /* \"#utility.yul\":18068:18250   */\n      pop\n      jump\t// out\n        /* \"#utility.yul\":18256:18622   */\n    tag_337:\n        /* \"#utility.yul\":18398:18401   */\n      0x00\n        /* \"#utility.yul\":18419:18486   */\n      tag_530\n        /* \"#utility.yul\":18483:18485   */\n      0x20\n        /* \"#utility.yul\":18478:18481   */\n      dup4\n        /* \"#utility.yul\":18419:18486   */\n      tag_327\n      jump\t// in\n    tag_530:\n        /* \"#utility.yul\":18412:18486   */\n      swap2\n      pop\n        /* \"#utility.yul\":18495:18588   */\n      tag_531\n        /* \"#utility.yul\":18584:18587   */\n      dup3\n        /* \"#utility.yul\":18495:18588   */\n      tag_336\n      jump\t// in\n    tag_531:\n        /* \"#utility.yul\":18613:18615   */\n      0x20\n        /* \"#utility.yul\":18608:18611   */\n      dup3\n        /* \"#utility.yul\":18604:18616   */\n      add\n        /* \"#utility.yul\":18597:18616   */\n      swap1\n      pop\n        /* \"#utility.yul\":18256:18622   */\n      swap2\n      swap1\n      pop\n      jump\t// out\n        /* \"#utility.yul\":18628:19047   */\n    tag_139:\n        /* \"#utility.yul\":18794:18798   */\n      0x00\n        /* \"#utility.yul\":18832:18834   */\n      0x20\n        /* \"#utility.yul\":18821:18830   */\n      dup3\n        /* \"#utility.yul\":18817:18835   */\n      add\n        /* \"#utility.yul\":18809:18835   */\n      swap1\n      pop\n        /* \"#utility.yul\":18881:18890   */\n      dup2\n        /* \"#utility.yul\":18875:18879   */\n      dup2\n        /* \"#utility.yul\":18871:18891   */\n      sub\n        /* \"#utility.yul\":18867:18868   */\n      0x00\n        /* \"#utility.yul\":18856:18865   */\n      dup4\n        /* \"#utility.yul\":18852:18869   */\n      add\n        /* \"#utility.yul\":18845:18892   */\n      mstore\n        /* \"#utility.yul\":18909:19040   */\n      tag_533\n        /* \"#utility.yul\":19035:19039   */\n      dup2\n        /* \"#utility.yul\":18909:19040   */\n      tag_337\n      jump\t// in\n    tag_533:\n        /* \"#utility.yul\":18901:19040   */\n      swap1\n      pop\n        /* \"#utility.yul\":18628:19047   */\n      swap2\n      swap1\n      pop\n      jump\t// out\n        /* \"#utility.yul\":19053:19231   */\n    tag_338:\n        /* \"#utility.yul\":19193:19223   */\n      0x5072696365206d757374206265206174206c6561737420312077656900000000\n        /* \"#utility.yul\":19189:19190   */\n      0x00\n        /* \"#utility.yul\":19181:19187   */\n      dup3\n        /* \"#utility.yul\":19177:19191   */\n      add\n        /* \"#utility.yul\":19170:19224   */\n      mstore\n        /* \"#utility.yul\":19053:19231   */\n      pop\n      jump\t// out\n        /* \"#utility.yul\":19237:19603   */\n    tag_339:\n        /* \"#utility.yul\":19379:19382   */\n      0x00\n        /* \"#utility.yul\":19400:19467   */\n      tag_536\n        /* \"#utility.yul\":19464:19466   */\n      0x1c\n        /* \"#utility.yul\":19459:19462   */\n      dup4\n        /* \"#utility.yul\":19400:19467   */\n      tag_327\n      jump\t// in\n    tag_536:\n        /* \"#utility.yul\":19393:19467   */\n      swap2\n      pop\n        /* \"#utility.yul\":19476:19569   */\n      tag_537\n        /* \"#utility.yul\":19565:19568   */\n      dup3\n        /* \"#utility.yul\":19476:19569   */\n      tag_338\n      jump\t// in\n    tag_537:\n        /* \"#utility.yul\":19594:19596   */\n      0x20\n        /* \"#utility.yul\":19589:19592   */\n      dup3\n        /* \"#utility.yul\":19585:19597   */\n      add\n        /* \"#utility.yul\":19578:19597   */\n      swap1\n      pop\n        /* \"#utility.yul\":19237:19603   */\n      swap2\n      swap1\n      pop\n      jump\t// out\n        /* \"#utility.yul\":19609:20028   */\n    tag_150:\n        /* \"#utility.yul\":19775:19779   */\n      0x00\n        /* \"#utility.yul\":19813:19815   */\n      0x20\n        /* \"#utility.yul\":19802:19811   */\n      dup3\n        /* \"#utility.yul\":19798:19816   */\n      add\n        /* \"#utility.yul\":19790:19816   */\n      swap1\n      pop\n        /* \"#utility.yul\":19862:19871   */\n      dup2\n        /* \"#utility.yul\":19856:19860   */\n      dup2\n        /* \"#utility.yul\":19852:19872   */\n      sub\n        /* \"#utility.yul\":19848:19849   */\n      0x00\n        /* \"#utility.yul\":19837:19846   */\n      dup4\n        /* \"#utility.yul\":19833:19850   */\n      add\n        /* \"#utility.yul\":19826:19873   */\n      mstore\n        /* \"#utility.yul\":19890:20021   */\n      tag_539\n        /* \"#utility.yul\":20016:20020   */\n      dup2\n        /* \"#utility.yul\":19890:20021   */\n      tag_339\n      jump\t// in\n    tag_539:\n        /* \"#utility.yul\":19882:20021   */\n      swap1\n      pop\n        /* \"#utility.yul\":19609:20028   */\n      swap2\n      swap1\n      pop\n      jump\t// out\n        /* \"#utility.yul\":20034:20256   */\n    tag_152:\n        /* \"#utility.yul\":20127:20131   */\n      0x00\n        /* \"#utility.yul\":20165:20167   */\n      0x20\n        /* \"#utility.yul\":20154:20163   */\n      dup3\n        /* \"#utility.yul\":20150:20168   */\n      add\n        /* \"#utility.yul\":20142:20168   */\n      swap1\n      pop\n        /* \"#utility.yul\":20178:20249   */\n      tag_541\n        /* \"#utility.yul\":20246:20247   */\n      0x00\n        /* \"#utility.yul\":20235:20244   */\n      dup4\n        /* \"#utility.yul\":20231:20248   */\n      add\n        /* \"#utility.yul\":20222:20228   */\n      dup5\n        /* \"#utility.yul\":20178:20249   */\n      tag_320\n      jump\t// in\n    tag_541:\n        /* \"#utility.yul\":20034:20256   */\n      swap3\n      swap2\n      pop\n      pop\n      jump\t// out\n        /* \"#utility.yul\":20262:20379   */\n    tag_340:\n        /* \"#utility.yul\":20371:20372   */\n      0x00\n        /* \"#utility.yul\":20368:20369   */\n      dup1\n        /* \"#utility.yul\":20361:20373   */\n      revert\n        /* \"#utility.yul\":20385:20487   */\n    tag_341:\n        /* \"#utility.yul\":20426:20432   */\n      0x00\n        /* \"#utility.yul\":20477:20479   */\n      0x1f\n        /* \"#utility.yul\":20473:20480   */\n      not\n        /* \"#utility.yul\":20468:20470   */\n      0x1f\n        /* \"#utility.yul\":20461:20466   */\n      dup4\n        /* \"#utility.yul\":20457:20471   */\n      add\n        /* \"#utility.yul\":20453:20481   */\n      and\n        /* \"#utility.yul\":20443:20481   */\n      swap1\n      pop\n        /* \"#utility.yul\":20385:20487   */\n      swap2\n      swap1\n      pop\n      jump\t// out\n        /* \"#utility.yul\":20493:20673   */\n    tag_185:\n        /* \"#utility.yul\":20541:20618   */\n      0x4e487b7100000000000000000000000000000000000000000000000000000000\n        /* \"#utility.yul\":20538:20539   */\n      0x00\n        /* \"#utility.yul\":20531:20619   */\n      mstore\n        /* \"#utility.yul\":20638:20642   */\n      0x41\n        /* \"#utility.yul\":20635:20636   */\n      0x04\n        /* \"#utility.yul\":20628:20643   */\n      mstore\n        /* \"#utility.yul\":20662:20666   */\n      0x24\n        /* \"#utility.yul\":20659:20660   */\n      0x00\n        /* \"#utility.yul\":20652:20667   */\n      revert\n        /* \"#utility.yul\":20679:20960   */\n    tag_342:\n        /* \"#utility.yul\":20762:20789   */\n      tag_546\n        /* \"#utility.yul\":20784:20788   */\n      dup3\n        /* \"#utility.yul\":20762:20789   */\n      tag_341\n      jump\t// in\n    tag_546:\n        /* \"#utility.yul\":20754:20760   */\n      dup2\n        /* \"#utility.yul\":20750:20790   */\n      add\n        /* \"#utility.yul\":20892:20898   */\n      dup2\n        /* \"#utility.yul\":20880:20890   */\n      dup2\n        /* \"#utility.yul\":20877:20899   */\n      lt\n        /* \"#utility.yul\":20856:20874   */\n      0xffffffffffffffff\n        /* \"#utility.yul\":20844:20854   */\n      dup3\n        /* \"#utility.yul\":20841:20875   */\n      gt\n        /* \"#utility.yul\":20838:20900   */\n      or\n        /* \"#utility.yul\":20835:20923   */\n      iszero\n      tag_547\n      jumpi\n        /* \"#utility.yul\":20903:20921   */\n      tag_548\n      tag_185\n      jump\t// in\n    tag_548:\n        /* \"#utility.yul\":20835:20923   */\n    tag_547:\n        /* \"#utility.yul\":20943:20953   */\n      dup1\n        /* \"#utility.yul\":20939:20941   */\n      0x40\n        /* \"#utility.yul\":20932:20954   */\n      mstore\n        /* \"#utility.yul\":20722:20960   */\n      pop\n        /* \"#utility.yul\":20679:20960   */\n      pop\n      pop\n      jump\t// out\n        /* \"#utility.yul\":20966:21095   */\n    tag_343:\n        /* \"#utility.yul\":21000:21006   */\n      0x00\n        /* \"#utility.yul\":21027:21047   */\n      tag_550\n      tag_287\n      jump\t// in\n    tag_550:\n        /* \"#utility.yul\":21017:21047   */\n      swap1\n      pop\n        /* \"#utility.yul\":21056:21089   */\n      tag_551\n        /* \"#utility.yul\":21084:21088   */\n      dup3\n        /* \"#utility.yul\":21076:21082   */\n      dup3\n        /* \"#utility.yul\":21056:21089   */\n      tag_342\n      jump\t// in\n    tag_551:\n        /* \"#utility.yul\":20966:21095   */\n      swap2\n      swap1\n      pop\n      jump\t// out\n        /* \"#utility.yul\":21101:21218   */\n    tag_344:\n        /* \"#utility.yul\":21210:21211   */\n      0x00\n        /* \"#utility.yul\":21207:21208   */\n      dup1\n        /* \"#utility.yul\":21200:21212   */\n      revert\n        /* \"#utility.yul\":21224:21367   */\n    tag_345:\n        /* \"#utility.yul\":21281:21286   */\n      0x00\n        /* \"#utility.yul\":21312:21318   */\n      dup2\n        /* \"#utility.yul\":21306:21319   */\n      mload\n        /* \"#utility.yul\":21297:21319   */\n      swap1\n      pop\n        /* \"#utility.yul\":21328:21361   */\n      tag_554\n        /* \"#utility.yul\":21355:21360   */\n      dup2\n        /* \"#utility.yul\":21328:21361   */\n      tag_291\n      jump\t// in\n    tag_554:\n        /* \"#utility.yul\":21224:21367   */\n      swap3\n      swap2\n      pop\n      pop\n      jump\t// out\n        /* \"#utility.yul\":21373:21516   */\n    tag_346:\n        /* \"#utility.yul\":21430:21435   */\n      0x00\n        /* \"#utility.yul\":21461:21467   */\n      dup2\n        /* \"#utility.yul\":21455:21468   */\n      mload\n        /* \"#utility.yul\":21446:21468   */\n      swap1\n      pop\n        /* \"#utility.yul\":21477:21510   */\n      tag_556\n        /* \"#utility.yul\":21504:21509   */\n      dup2\n        /* \"#utility.yul\":21477:21510   */\n      tag_295\n      jump\t// in\n    tag_556:\n        /* \"#utility.yul\":21373:21516   */\n      swap3\n      swap2\n      pop\n      pop\n      jump\t// out\n        /* \"#utility.yul\":21522:21639   */\n    tag_347:\n        /* \"#utility.yul\":21631:21632   */\n      0x00\n        /* \"#utility.yul\":21628:21629   */\n      dup1\n        /* \"#utility.yul\":21621:21633   */\n      revert\n        /* \"#utility.yul\":21645:21762   */\n    tag_348:\n        /* \"#utility.yul\":21754:21755   */\n      0x00\n        /* \"#utility.yul\":21751:21752   */\n      dup1\n        /* \"#utility.yul\":21744:21756   */\n      revert\n        /* \"#utility.yul\":21768:22076   */\n    tag_349:\n        /* \"#utility.yul\":21830:21834   */\n      0x00\n        /* \"#utility.yul\":21920:21938   */\n      0xffffffffffffffff\n        /* \"#utility.yul\":21912:21918   */\n      dup3\n        /* \"#utility.yul\":21909:21939   */\n      gt\n        /* \"#utility.yul\":21906:21962   */\n      iszero\n      tag_560\n      jumpi\n        /* \"#utility.yul\":21942:21960   */\n      tag_561\n      tag_185\n      jump\t// in\n    tag_561:\n        /* \"#utility.yul\":21906:21962   */\n    tag_560:\n        /* \"#utility.yul\":21980:22009   */\n      tag_562\n        /* \"#utility.yul\":22002:22008   */\n      dup3\n        /* \"#utility.yul\":21980:22009   */\n      tag_341\n      jump\t// in\n    tag_562:\n        /* \"#utility.yul\":21972:22009   */\n      swap1\n      pop\n        /* \"#utility.yul\":22064:22068   */\n      0x20\n        /* \"#utility.yul\":22058:22062   */\n      dup2\n        /* \"#utility.yul\":22054:22069   */\n      add\n        /* \"#utility.yul\":22046:22069   */\n      swap1\n      pop\n        /* \"#utility.yul\":21768:22076   */\n      swap2\n      swap1\n      pop\n      jump\t// out\n        /* \"#utility.yul\":22082:22389   */\n    tag_350:\n        /* \"#utility.yul\":22150:22151   */\n      0x00\n        /* \"#utility.yul\":22160:22273   */\n    tag_564:\n        /* \"#utility.yul\":22174:22180   */\n      dup4\n        /* \"#utility.yul\":22171:22172   */\n      dup2\n        /* \"#utility.yul\":22168:22181   */\n      lt\n        /* \"#utility.yul\":22160:22273   */\n      iszero\n      tag_566\n      jumpi\n        /* \"#utility.yul\":22259:22260   */\n      dup1\n        /* \"#utility.yul\":22254:22257   */\n      dup3\n        /* \"#utility.yul\":22250:22261   */\n      add\n        /* \"#utility.yul\":22244:22262   */\n      mload\n        /* \"#utility.yul\":22240:22241   */\n      dup2\n        /* \"#utility.yul\":22235:22238   */\n      dup5\n        /* \"#utility.yul\":22231:22242   */\n      add\n        /* \"#utility.yul\":22224:22263   */\n      mstore\n        /* \"#utility.yul\":22196:22198   */\n      0x20\n        /* \"#utility.yul\":22193:22194   */\n      dup2\n        /* \"#utility.yul\":22189:22199   */\n      add\n        /* \"#utility.yul\":22184:22199   */\n      swap1\n      pop\n        /* \"#utility.yul\":22160:22273   */\n      jump(tag_564)\n    tag_566:\n        /* \"#utility.yul\":22291:22297   */\n      dup4\n        /* \"#utility.yul\":22288:22289   */\n      dup2\n        /* \"#utility.yul\":22285:22298   */\n      gt\n        /* \"#utility.yul\":22282:22383   */\n      iszero\n      tag_567\n      jumpi\n        /* \"#utility.yul\":22371:22372   */\n      0x00\n        /* \"#utility.yul\":22362:22368   */\n      dup5\n        /* \"#utility.yul\":22357:22360   */\n      dup5\n        /* \"#utility.yul\":22353:22369   */\n      add\n        /* \"#utility.yul\":22346:22373   */\n      mstore\n        /* \"#utility.yul\":22282:22383   */\n    tag_567:\n        /* \"#utility.yul\":22131:22389   */\n      pop\n        /* \"#utility.yul\":22082:22389   */\n      pop\n      pop\n      pop\n      jump\t// out\n        /* \"#utility.yul\":22395:22816   */\n    tag_351:\n        /* \"#utility.yul\":22484:22489   */\n      0x00\n        /* \"#utility.yul\":22509:22575   */\n      tag_569\n        /* \"#utility.yul\":22525:22574   */\n      tag_570\n        /* \"#utility.yul\":22567:22573   */\n      dup5\n        /* \"#utility.yul\":22525:22574   */\n      tag_349\n      jump\t// in\n    tag_570:\n        /* \"#utility.yul\":22509:22575   */\n      tag_343\n      jump\t// in\n    tag_569:\n        /* \"#utility.yul\":22500:22575   */\n      swap1\n      pop\n        /* \"#utility.yul\":22598:22604   */\n      dup3\n        /* \"#utility.yul\":22591:22596   */\n      dup2\n        /* \"#utility.yul\":22584:22605   */\n      mstore\n        /* \"#utility.yul\":22636:22640   */\n      0x20\n        /* \"#utility.yul\":22629:22634   */\n      dup2\n        /* \"#utility.yul\":22625:22641   */\n      add\n        /* \"#utility.yul\":22674:22677   */\n      dup5\n        /* \"#utility.yul\":22665:22671   */\n      dup5\n        /* \"#utility.yul\":22660:22663   */\n      dup5\n        /* \"#utility.yul\":22656:22672   */\n      add\n        /* \"#utility.yul\":22653:22678   */\n      gt\n        /* \"#utility.yul\":22650:22762   */\n      iszero\n      tag_571\n      jumpi\n        /* \"#utility.yul\":22681:22760   */\n      tag_572\n      tag_348\n      jump\t// in\n    tag_572:\n        /* \"#utility.yul\":22650:22762   */\n    tag_571:\n        /* \"#utility.yul\":22771:22810   */\n      tag_573\n        /* \"#utility.yul\":22803:22809   */\n      dup5\n        /* \"#utility.yul\":22798:22801   */\n      dup3\n        /* \"#utility.yul\":22793:22796   */\n      dup6\n        /* \"#utility.yul\":22771:22810   */\n      tag_350\n      jump\t// in\n    tag_573:\n        /* \"#utility.yul\":22490:22816   */\n      pop\n        /* \"#utility.yul\":22395:22816   */\n      swap4\n      swap3\n      pop\n      pop\n      pop\n      jump\t// out\n        /* \"#utility.yul\":22836:23191   */\n    tag_352:\n        /* \"#utility.yul\":22903:22908   */\n      0x00\n        /* \"#utility.yul\":22952:22955   */\n      dup3\n        /* \"#utility.yul\":22945:22949   */\n      0x1f\n        /* \"#utility.yul\":22937:22943   */\n      dup4\n        /* \"#utility.yul\":22933:22950   */\n      add\n        /* \"#utility.yul\":22929:22956   */\n      slt\n        /* \"#utility.yul\":22919:23041   */\n      tag_575\n      jumpi\n        /* \"#utility.yul\":22960:23039   */\n      tag_576\n      tag_347\n      jump\t// in\n    tag_576:\n        /* \"#utility.yul\":22919:23041   */\n    tag_575:\n        /* \"#utility.yul\":23070:23076   */\n      dup2\n        /* \"#utility.yul\":23064:23077   */\n      mload\n        /* \"#utility.yul\":23095:23185   */\n      tag_577\n        /* \"#utility.yul\":23181:23184   */\n      dup5\n        /* \"#utility.yul\":23173:23179   */\n      dup3\n        /* \"#utility.yul\":23166:23170   */\n      0x20\n        /* \"#utility.yul\":23158:23164   */\n      dup7\n        /* \"#utility.yul\":23154:23171   */\n      add\n        /* \"#utility.yul\":23095:23185   */\n      tag_351\n      jump\t// in\n    tag_577:\n        /* \"#utility.yul\":23086:23185   */\n      swap2\n      pop\n        /* \"#utility.yul\":22909:23191   */\n      pop\n        /* \"#utility.yul\":22836:23191   */\n      swap3\n      swap2\n      pop\n      pop\n      jump\t// out\n        /* \"#utility.yul\":23197:23287   */\n    tag_353:\n        /* \"#utility.yul\":23231:23238   */\n      0x00\n        /* \"#utility.yul\":23274:23279   */\n      dup2\n        /* \"#utility.yul\":23267:23280   */\n      iszero\n        /* \"#utility.yul\":23260:23281   */\n      iszero\n        /* \"#utility.yul\":23249:23281   */\n      swap1\n      pop\n        /* \"#utility.yul\":23197:23287   */\n      swap2\n      swap1\n      pop\n      jump\t// out\n        /* \"#utility.yul\":23293:23409   */\n    tag_354:\n        /* \"#utility.yul\":23363:23384   */\n      tag_580\n        /* \"#utility.yul\":23378:23383   */\n      dup2\n        /* \"#utility.yul\":23363:23384   */\n      tag_353\n      jump\t// in\n    tag_580:\n        /* \"#utility.yul\":23356:23361   */\n      dup2\n        /* \"#utility.yul\":23353:23385   */\n      eq\n        /* \"#utility.yul\":23343:23403   */\n      tag_581\n      jumpi\n        /* \"#utility.yul\":23399:23400   */\n      0x00\n        /* \"#utility.yul\":23396:23397   */\n      dup1\n        /* \"#utility.yul\":23389:23401   */\n      revert\n        /* \"#utility.yul\":23343:23403   */\n    tag_581:\n        /* \"#utility.yul\":23293:23409   */\n      pop\n      jump\t// out\n        /* \"#utility.yul\":23415:23552   */\n    tag_355:\n        /* \"#utility.yul\":23469:23474   */\n      0x00\n        /* \"#utility.yul\":23500:23506   */\n      dup2\n        /* \"#utility.yul\":23494:23507   */\n      mload\n        /* \"#utility.yul\":23485:23507   */\n      swap1\n      pop\n        /* \"#utility.yul\":23516:23546   */\n      tag_583\n        /* \"#utility.yul\":23540:23545   */\n      dup2\n        /* \"#utility.yul\":23516:23546   */\n      tag_354\n      jump\t// in\n    tag_583:\n        /* \"#utility.yul\":23415:23552   */\n      swap3\n      swap2\n      pop\n      pop\n      jump\t// out\n        /* \"#utility.yul\":23594:25053   */\n    tag_356:\n        /* \"#utility.yul\":23682:23687   */\n      0x00\n        /* \"#utility.yul\":23726:23730   */\n      0xa0\n        /* \"#utility.yul\":23714:23723   */\n      dup3\n        /* \"#utility.yul\":23709:23712   */\n      dup5\n        /* \"#utility.yul\":23705:23724   */\n      sub\n        /* \"#utility.yul\":23701:23731   */\n      slt\n        /* \"#utility.yul\":23698:23815   */\n      iszero\n      tag_585\n      jumpi\n        /* \"#utility.yul\":23734:23813   */\n      tag_586\n      tag_340\n      jump\t// in\n    tag_586:\n        /* \"#utility.yul\":23698:23815   */\n    tag_585:\n        /* \"#utility.yul\":23833:23854   */\n      tag_587\n        /* \"#utility.yul\":23849:23853   */\n      0xa0\n        /* \"#utility.yul\":23833:23854   */\n      tag_343\n      jump\t// in\n    tag_587:\n        /* \"#utility.yul\":23824:23854   */\n      swap1\n      pop\n        /* \"#utility.yul\":23911:23912   */\n      0x00\n        /* \"#utility.yul\":23951:24011   */\n      tag_588\n        /* \"#utility.yul\":24007:24010   */\n      dup5\n        /* \"#utility.yul\":23998:24004   */\n      dup3\n        /* \"#utility.yul\":23987:23996   */\n      dup6\n        /* \"#utility.yul\":23983:24005   */\n      add\n        /* \"#utility.yul\":23951:24011   */\n      tag_345\n      jump\t// in\n    tag_588:\n        /* \"#utility.yul\":23944:23948   */\n      0x00\n        /* \"#utility.yul\":23937:23942   */\n      dup4\n        /* \"#utility.yul\":23933:23949   */\n      add\n        /* \"#utility.yul\":23926:24012   */\n      mstore\n        /* \"#utility.yul\":23864:24023   */\n      pop\n        /* \"#utility.yul\":24083:24085   */\n      0x20\n        /* \"#utility.yul\":24124:24184   */\n      tag_589\n        /* \"#utility.yul\":24180:24183   */\n      dup5\n        /* \"#utility.yul\":24171:24177   */\n      dup3\n        /* \"#utility.yul\":24160:24169   */\n      dup6\n        /* \"#utility.yul\":24156:24178   */\n      add\n        /* \"#utility.yul\":24124:24184   */\n      tag_346\n      jump\t// in\n    tag_589:\n        /* \"#utility.yul\":24117:24121   */\n      0x20\n        /* \"#utility.yul\":24110:24115   */\n      dup4\n        /* \"#utility.yul\":24106:24122   */\n      add\n        /* \"#utility.yul\":24099:24185   */\n      mstore\n        /* \"#utility.yul\":24033:24196   */\n      pop\n        /* \"#utility.yul\":24278:24280   */\n      0x40\n        /* \"#utility.yul\":24267:24276   */\n      dup3\n        /* \"#utility.yul\":24263:24281   */\n      add\n        /* \"#utility.yul\":24257:24282   */\n      mload\n        /* \"#utility.yul\":24309:24327   */\n      0xffffffffffffffff\n        /* \"#utility.yul\":24301:24307   */\n      dup2\n        /* \"#utility.yul\":24298:24328   */\n      gt\n        /* \"#utility.yul\":24295:24412   */\n      iszero\n      tag_590\n      jumpi\n        /* \"#utility.yul\":24331:24410   */\n      tag_591\n      tag_344\n      jump\t// in\n    tag_591:\n        /* \"#utility.yul\":24295:24412   */\n    tag_590:\n        /* \"#utility.yul\":24451:24521   */\n      tag_592\n        /* \"#utility.yul\":24517:24520   */\n      dup5\n        /* \"#utility.yul\":24508:24514   */\n      dup3\n        /* \"#utility.yul\":24497:24506   */\n      dup6\n        /* \"#utility.yul\":24493:24515   */\n      add\n        /* \"#utility.yul\":24451:24521   */\n      tag_352\n      jump\t// in\n    tag_592:\n        /* \"#utility.yul\":24444:24448   */\n      0x40\n        /* \"#utility.yul\":24437:24442   */\n      dup4\n        /* \"#utility.yul\":24433:24449   */\n      add\n        /* \"#utility.yul\":24426:24522   */\n      mstore\n        /* \"#utility.yul\":24206:24533   */\n      pop\n        /* \"#utility.yul\":24619:24621   */\n      0x60\n        /* \"#utility.yul\":24608:24617   */\n      dup3\n        /* \"#utility.yul\":24604:24622   */\n      add\n        /* \"#utility.yul\":24598:24623   */\n      mload\n        /* \"#utility.yul\":24650:24668   */\n      0xffffffffffffffff\n        /* \"#utility.yul\":24642:24648   */\n      dup2\n        /* \"#utility.yul\":24639:24669   */\n      gt\n        /* \"#utility.yul\":24636:24753   */\n      iszero\n      tag_593\n      jumpi\n        /* \"#utility.yul\":24672:24751   */\n      tag_594\n      tag_344\n      jump\t// in\n    tag_594:\n        /* \"#utility.yul\":24636:24753   */\n    tag_593:\n        /* \"#utility.yul\":24792:24862   */\n      tag_595\n        /* \"#utility.yul\":24858:24861   */\n      dup5\n        /* \"#utility.yul\":24849:24855   */\n      dup3\n        /* \"#utility.yul\":24838:24847   */\n      dup6\n        /* \"#utility.yul\":24834:24856   */\n      add\n        /* \"#utility.yul\":24792:24862   */\n      tag_352\n      jump\t// in\n    tag_595:\n        /* \"#utility.yul\":24785:24789   */\n      0x60\n        /* \"#utility.yul\":24778:24783   */\n      dup4\n        /* \"#utility.yul\":24774:24790   */\n      add\n        /* \"#utility.yul\":24767:24863   */\n      mstore\n        /* \"#utility.yul\":24543:24874   */\n      pop\n        /* \"#utility.yul\":24935:24938   */\n      0x80\n        /* \"#utility.yul\":24977:25034   */\n      tag_596\n        /* \"#utility.yul\":25030:25033   */\n      dup5\n        /* \"#utility.yul\":25021:25027   */\n      dup3\n        /* \"#utility.yul\":25010:25019   */\n      dup6\n        /* \"#utility.yul\":25006:25028   */\n      add\n        /* \"#utility.yul\":24977:25034   */\n      tag_355\n      jump\t// in\n    tag_596:\n        /* \"#utility.yul\":24970:24974   */\n      0x80\n        /* \"#utility.yul\":24963:24968   */\n      dup4\n        /* \"#utility.yul\":24959:24975   */\n      add\n        /* \"#utility.yul\":24952:25035   */\n      mstore\n        /* \"#utility.yul\":24884:25046   */\n      pop\n        /* \"#utility.yul\":23594:25053   */\n      swap3\n      swap2\n      pop\n      pop\n      jump\t// out\n        /* \"#utility.yul\":25059:25619   */\n    tag_156:\n        /* \"#utility.yul\":25157:25163   */\n      0x00\n        /* \"#utility.yul\":25206:25208   */\n      0x20\n        /* \"#utility.yul\":25194:25203   */\n      dup3\n        /* \"#utility.yul\":25185:25192   */\n      dup5\n        /* \"#utility.yul\":25181:25204   */\n      sub\n        /* \"#utility.yul\":25177:25209   */\n      slt\n        /* \"#utility.yul\":25174:25293   */\n      iszero\n      tag_598\n      jumpi\n        /* \"#utility.yul\":25212:25291   */\n      tag_599\n      tag_288\n      jump\t// in\n    tag_599:\n        /* \"#utility.yul\":25174:25293   */\n    tag_598:\n        /* \"#utility.yul\":25353:25354   */\n      0x00\n        /* \"#utility.yul\":25342:25351   */\n      dup3\n        /* \"#utility.yul\":25338:25355   */\n      add\n        /* \"#utility.yul\":25332:25356   */\n      mload\n        /* \"#utility.yul\":25383:25401   */\n      0xffffffffffffffff\n        /* \"#utility.yul\":25375:25381   */\n      dup2\n        /* \"#utility.yul\":25372:25402   */\n      gt\n        /* \"#utility.yul\":25369:25486   */\n      iszero\n      tag_600\n      jumpi\n        /* \"#utility.yul\":25405:25484   */\n      tag_601\n      tag_289\n      jump\t// in\n    tag_601:\n        /* \"#utility.yul\":25369:25486   */\n    tag_600:\n        /* \"#utility.yul\":25510:25602   */\n      tag_602\n        /* \"#utility.yul\":25594:25601   */\n      dup5\n        /* \"#utility.yul\":25585:25591   */\n      dup3\n        /* \"#utility.yul\":25574:25583   */\n      dup6\n        /* \"#utility.yul\":25570:25592   */\n      add\n        /* \"#utility.yul\":25510:25602   */\n      tag_356\n      jump\t// in\n    tag_602:\n        /* \"#utility.yul\":25500:25602   */\n      swap2\n      pop\n        /* \"#utility.yul\":25303:25612   */\n      pop\n        /* \"#utility.yul\":25059:25619   */\n      swap3\n      swap2\n      pop\n      pop\n      jump\t// out\n        /* \"#utility.yul\":25625:25802   */\n    tag_357:\n        /* \"#utility.yul\":25765:25794   */\n      0x4974656d206973206e6f7420617661696c61626c65206e6f7720210000000000\n        /* \"#utility.yul\":25761:25762   */\n      0x00\n        /* \"#utility.yul\":25753:25759   */\n      dup3\n        /* \"#utility.yul\":25749:25763   */\n      add\n        /* \"#utility.yul\":25742:25795   */\n      mstore\n        /* \"#utility.yul\":25625:25802   */\n      pop\n      jump\t// out\n        /* \"#utility.yul\":25808:26174   */\n    tag_358:\n        /* \"#utility.yul\":25950:25953   */\n      0x00\n        /* \"#utility.yul\":25971:26038   */\n      tag_605\n        /* \"#utility.yul\":26035:26037   */\n      0x1b\n        /* \"#utility.yul\":26030:26033   */\n      dup4\n        /* \"#utility.yul\":25971:26038   */\n      tag_327\n      jump\t// in\n    tag_605:\n        /* \"#utility.yul\":25964:26038   */\n      swap2\n      pop\n        /* \"#utility.yul\":26047:26140   */\n      tag_606\n        /* \"#utility.yul\":26136:26139   */\n      dup3\n        /* \"#utility.yul\":26047:26140   */\n      tag_357\n      jump\t// in\n    tag_606:\n        /* \"#utility.yul\":26165:26167   */\n      0x20\n        /* \"#utility.yul\":26160:26163   */\n      dup3\n        /* \"#utility.yul\":26156:26168   */\n      add\n        /* \"#utility.yul\":26149:26168   */\n      swap1\n      pop\n        /* \"#utility.yul\":25808:26174   */\n      swap2\n      swap1\n      pop\n      jump\t// out\n        /* \"#utility.yul\":26180:26599   */\n    tag_159:\n        /* \"#utility.yul\":26346:26350   */\n      0x00\n        /* \"#utility.yul\":26384:26386   */\n      0x20\n        /* \"#utility.yul\":26373:26382   */\n      dup3\n        /* \"#utility.yul\":26369:26387   */\n      add\n        /* \"#utility.yul\":26361:26387   */\n      swap1\n      pop\n        /* \"#utility.yul\":26433:26442   */\n      dup2\n        /* \"#utility.yul\":26427:26431   */\n      dup2\n        /* \"#utility.yul\":26423:26443   */\n      sub\n        /* \"#utility.yul\":26419:26420   */\n      0x00\n        /* \"#utility.yul\":26408:26417   */\n      dup4\n        /* \"#utility.yul\":26404:26421   */\n      add\n        /* \"#utility.yul\":26397:26444   */\n      mstore\n        /* \"#utility.yul\":26461:26592   */\n      tag_608\n        /* \"#utility.yul\":26587:26591   */\n      dup2\n        /* \"#utility.yul\":26461:26592   */\n      tag_358\n      jump\t// in\n    tag_608:\n        /* \"#utility.yul\":26453:26592   */\n      swap1\n      pop\n        /* \"#utility.yul\":26180:26599   */\n      swap2\n      swap1\n      pop\n      jump\t// out\n        /* \"#utility.yul\":26605:26785   */\n    tag_359:\n        /* \"#utility.yul\":26653:26730   */\n      0x4e487b7100000000000000000000000000000000000000000000000000000000\n        /* \"#utility.yul\":26650:26651   */\n      0x00\n        /* \"#utility.yul\":26643:26731   */\n      mstore\n        /* \"#utility.yul\":26750:26754   */\n      0x11\n        /* \"#utility.yul\":26747:26748   */\n      0x04\n        /* \"#utility.yul\":26740:26755   */\n      mstore\n        /* \"#utility.yul\":26774:26778   */\n      0x24\n        /* \"#utility.yul\":26771:26772   */\n      0x00\n        /* \"#utility.yul\":26764:26779   */\n      revert\n        /* \"#utility.yul\":26791:27096   */\n    tag_180:\n        /* \"#utility.yul\":26831:26834   */\n      0x00\n        /* \"#utility.yul\":26850:26870   */\n      tag_611\n        /* \"#utility.yul\":26868:26869   */\n      dup3\n        /* \"#utility.yul\":26850:26870   */\n      tag_290\n      jump\t// in\n    tag_611:\n        /* \"#utility.yul\":26845:26870   */\n      swap2\n      pop\n        /* \"#utility.yul\":26884:26904   */\n      tag_612\n        /* \"#utility.yul\":26902:26903   */\n      dup4\n        /* \"#utility.yul\":26884:26904   */\n      tag_290\n      jump\t// in\n    tag_612:\n        /* \"#utility.yul\":26879:26904   */\n      swap3\n      pop\n        /* \"#utility.yul\":27038:27039   */\n      dup3\n        /* \"#utility.yul\":26970:27036   */\n      0xffffffffffffffffffffffffffffffffffffffffffffffffffffffffffffffff\n        /* \"#utility.yul\":26966:27040   */\n      sub\n        /* \"#utility.yul\":26963:26964   */\n      dup3\n        /* \"#utility.yul\":26960:27041   */\n      gt\n        /* \"#utility.yul\":26957:27064   */\n      iszero\n      tag_613\n      jumpi\n        /* \"#utility.yul\":27044:27062   */\n      tag_614\n      tag_359\n      jump\t// in\n    tag_614:\n        /* \"#utility.yul\":26957:27064   */\n    tag_613:\n        /* \"#utility.yul\":27088:27089   */\n      dup3\n        /* \"#utility.yul\":27085:27086   */\n      dup3\n        /* \"#utility.yul\":27081:27090   */\n      add\n        /* \"#utility.yul\":27074:27090   */\n      swap1\n      pop\n        /* \"#utility.yul\":26791:27096   */\n      swap3\n      swap2\n      pop\n      pop\n      jump\t// out\n        /* \"#utility.yul\":27102:27335   */\n    tag_182:\n        /* \"#utility.yul\":27141:27144   */\n      0x00\n        /* \"#utility.yul\":27164:27188   */\n      tag_616\n        /* \"#utility.yul\":27182:27187   */\n      dup3\n        /* \"#utility.yul\":27164:27188   */\n      tag_290\n      jump\t// in\n    tag_616:\n        /* \"#utility.yul\":27155:27188   */\n      swap2\n      pop\n        /* \"#utility.yul\":27210:27276   */\n      0xffffffffffffffffffffffffffffffffffffffffffffffffffffffffffffffff\n        /* \"#utility.yul\":27203:27208   */\n      dup3\n        /* \"#utility.yul\":27200:27277   */\n      sub\n        /* \"#utility.yul\":27197:27300   */\n      tag_617\n      jumpi\n        /* \"#utility.yul\":27280:27298   */\n      tag_618\n      tag_359\n      jump\t// in\n    tag_618:\n        /* \"#utility.yul\":27197:27300   */\n    tag_617:\n        /* \"#utility.yul\":27327:27328   */\n      0x01\n        /* \"#utility.yul\":27320:27325   */\n      dup3\n        /* \"#utility.yul\":27316:27329   */\n      add\n        /* \"#utility.yul\":27309:27329   */\n      swap1\n      pop\n        /* \"#utility.yul\":27102:27335   */\n      swap2\n      swap1\n      pop\n      jump\t// out\n        /* \"#utility.yul\":27341:27521   */\n    tag_204:\n        /* \"#utility.yul\":27389:27466   */\n      0x4e487b7100000000000000000000000000000000000000000000000000000000\n        /* \"#utility.yul\":27386:27387   */\n      0x00\n        /* \"#utility.yul\":27379:27467   */\n      mstore\n        /* \"#utility.yul\":27486:27490   */\n      0x32\n        /* \"#utility.yul\":27483:27484   */\n      0x04\n        /* \"#utility.yul\":27476:27491   */\n      mstore\n        /* \"#utility.yul\":27510:27514   */\n      0x24\n        /* \"#utility.yul\":27507:27508   */\n      0x00\n        /* \"#utility.yul\":27500:27515   */\n      revert\n        /* \"#utility.yul\":27527:27778   */\n    tag_360:\n        /* \"#utility.yul\":27667:27701   */\n      0x506c65617365207375626d6974207468652061736b696e672070726963652069\n        /* \"#utility.yul\":27663:27664   */\n      0x00\n        /* \"#utility.yul\":27655:27661   */\n      dup3\n        /* \"#utility.yul\":27651:27665   */\n      add\n        /* \"#utility.yul\":27644:27702   */\n      mstore\n        /* \"#utility.yul\":27736:27770   */\n      0x6e206f7264657220746f20636f6d706c65746520746865207075726368617365\n        /* \"#utility.yul\":27731:27733   */\n      0x20\n        /* \"#utility.yul\":27723:27729   */\n      dup3\n        /* \"#utility.yul\":27719:27734   */\n      add\n        /* \"#utility.yul\":27712:27771   */\n      mstore\n        /* \"#utility.yul\":27527:27778   */\n      pop\n      jump\t// out\n        /* \"#utility.yul\":27784:28150   */\n    tag_361:\n        /* \"#utility.yul\":27926:27929   */\n      0x00\n        /* \"#utility.yul\":27947:28014   */\n      tag_622\n        /* \"#utility.yul\":28011:28013   */\n      0x40\n        /* \"#utility.yul\":28006:28009   */\n      dup4\n        /* \"#utility.yul\":27947:28014   */\n      tag_327\n      jump\t// in\n    tag_622:\n        /* \"#utility.yul\":27940:28014   */\n      swap2\n      pop\n        /* \"#utility.yul\":28023:28116   */\n      tag_623\n        /* \"#utility.yul\":28112:28115   */\n      dup3\n        /* \"#utility.yul\":28023:28116   */\n      tag_360\n      jump\t// in\n    tag_623:\n        /* \"#utility.yul\":28141:28143   */\n      0x40\n        /* \"#utility.yul\":28136:28139   */\n      dup3\n        /* \"#utility.yul\":28132:28144   */\n      add\n        /* \"#utility.yul\":28125:28144   */\n      swap1\n      pop\n        /* \"#utility.yul\":27784:28150   */\n      swap2\n      swap1\n      pop\n      jump\t// out\n        /* \"#utility.yul\":28156:28575   */\n    tag_229:\n        /* \"#utility.yul\":28322:28326   */\n      0x00\n        /* \"#utility.yul\":28360:28362   */\n      0x20\n        /* \"#utility.yul\":28349:28358   */\n      dup3\n        /* \"#utility.yul\":28345:28363   */\n      add\n        /* \"#utility.yul\":28337:28363   */\n      swap1\n      pop\n        /* \"#utility.yul\":28409:28418   */\n      dup2\n        /* \"#utility.yul\":28403:28407   */\n      dup2\n        /* \"#utility.yul\":28399:28419   */\n      sub\n        /* \"#utility.yul\":28395:28396   */\n      0x00\n        /* \"#utility.yul\":28384:28393   */\n      dup4\n        /* \"#utility.yul\":28380:28397   */\n      add\n        /* \"#utility.yul\":28373:28420   */\n      mstore\n        /* \"#utility.yul\":28437:28568   */\n      tag_625\n        /* \"#utility.yul\":28563:28567   */\n      dup2\n        /* \"#utility.yul\":28437:28568   */\n      tag_361\n      jump\t// in\n    tag_625:\n        /* \"#utility.yul\":28429:28568   */\n      swap1\n      pop\n        /* \"#utility.yul\":28156:28575   */\n      swap2\n      swap1\n      pop\n      jump\t// out\n        /* \"#utility.yul\":28581:28734   */\n    tag_362:\n        /* \"#utility.yul\":28721:28726   */\n      0x5351460000000000000000000000000000000000000000000000000000000000\n        /* \"#utility.yul\":28717:28718   */\n      0x00\n        /* \"#utility.yul\":28709:28715   */\n      dup3\n        /* \"#utility.yul\":28705:28719   */\n      add\n        /* \"#utility.yul\":28698:28727   */\n      mstore\n        /* \"#utility.yul\":28581:28734   */\n      pop\n      jump\t// out\n        /* \"#utility.yul\":28740:29105   */\n    tag_363:\n        /* \"#utility.yul\":28882:28885   */\n      0x00\n        /* \"#utility.yul\":28903:28969   */\n      tag_628\n        /* \"#utility.yul\":28967:28968   */\n      0x03\n        /* \"#utility.yul\":28962:28965   */\n      dup4\n        /* \"#utility.yul\":28903:28969   */\n      tag_327\n      jump\t// in\n    tag_628:\n        /* \"#utility.yul\":28896:28969   */\n      swap2\n      pop\n        /* \"#utility.yul\":28978:29071   */\n      tag_629\n        /* \"#utility.yul\":29067:29070   */\n      dup3\n        /* \"#utility.yul\":28978:29071   */\n      tag_362\n      jump\t// in\n    tag_629:\n        /* \"#utility.yul\":29096:29098   */\n      0x20\n        /* \"#utility.yul\":29091:29094   */\n      dup3\n        /* \"#utility.yul\":29087:29099   */\n      add\n        /* \"#utility.yul\":29080:29099   */\n      swap1\n      pop\n        /* \"#utility.yul\":28740:29105   */\n      swap2\n      swap1\n      pop\n      jump\t// out\n        /* \"#utility.yul\":29111:29861   */\n    tag_238:\n        /* \"#utility.yul\":29361:29365   */\n      0x00\n        /* \"#utility.yul\":29399:29402   */\n      0x80\n        /* \"#utility.yul\":29388:29397   */\n      dup3\n        /* \"#utility.yul\":29384:29403   */\n      add\n        /* \"#utility.yul\":29376:29403   */\n      swap1\n      pop\n        /* \"#utility.yul\":29413:29484   */\n      tag_631\n        /* \"#utility.yul\":29481:29482   */\n      0x00\n        /* \"#utility.yul\":29470:29479   */\n      dup4\n        /* \"#utility.yul\":29466:29483   */\n      add\n        /* \"#utility.yul\":29457:29463   */\n      dup7\n        /* \"#utility.yul\":29413:29484   */\n      tag_320\n      jump\t// in\n    tag_631:\n        /* \"#utility.yul\":29494:29566   */\n      tag_632\n        /* \"#utility.yul\":29562:29564   */\n      0x20\n        /* \"#utility.yul\":29551:29560   */\n      dup4\n        /* \"#utility.yul\":29547:29565   */\n      add\n        /* \"#utility.yul\":29538:29544   */\n      dup6\n        /* \"#utility.yul\":29494:29566   */\n      tag_320\n      jump\t// in\n    tag_632:\n        /* \"#utility.yul\":29613:29622   */\n      dup2\n        /* \"#utility.yul\":29607:29611   */\n      dup2\n        /* \"#utility.yul\":29603:29623   */\n      sub\n        /* \"#utility.yul\":29598:29600   */\n      0x40\n        /* \"#utility.yul\":29587:29596   */\n      dup4\n        /* \"#utility.yul\":29583:29601   */\n      add\n        /* \"#utility.yul\":29576:29624   */\n      mstore\n        /* \"#utility.yul\":29641:29772   */\n      tag_633\n        /* \"#utility.yul\":29767:29771   */\n      dup2\n        /* \"#utility.yul\":29641:29772   */\n      tag_363\n      jump\t// in\n    tag_633:\n        /* \"#utility.yul\":29633:29772   */\n      swap1\n      pop\n        /* \"#utility.yul\":29782:29854   */\n      tag_634\n        /* \"#utility.yul\":29850:29852   */\n      0x60\n        /* \"#utility.yul\":29839:29848   */\n      dup4\n        /* \"#utility.yul\":29835:29853   */\n      add\n        /* \"#utility.yul\":29826:29832   */\n      dup5\n        /* \"#utility.yul\":29782:29854   */\n      tag_320\n      jump\t// in\n    tag_634:\n        /* \"#utility.yul\":29111:29861   */\n      swap5\n      swap4\n      pop\n      pop\n      pop\n      pop\n      jump\t// out\n        /* \"#utility.yul\":29867:30001   */\n    tag_364:\n        /* \"#utility.yul\":29925:29934   */\n      0x00\n        /* \"#utility.yul\":29958:29995   */\n      tag_636\n        /* \"#utility.yul\":29989:29994   */\n      dup3\n        /* \"#utility.yul\":29958:29995   */\n      tag_301\n      jump\t// in\n    tag_636:\n        /* \"#utility.yul\":29945:29995   */\n      swap1\n      pop\n        /* \"#utility.yul\":29867:30001   */\n      swap2\n      swap1\n      pop\n      jump\t// out\n        /* \"#utility.yul\":30007:30154   */\n    tag_365:\n        /* \"#utility.yul\":30102:30147   */\n      tag_638\n        /* \"#utility.yul\":30141:30146   */\n      dup2\n        /* \"#utility.yul\":30102:30147   */\n      tag_364\n      jump\t// in\n    tag_638:\n        /* \"#utility.yul\":30097:30100   */\n      dup3\n        /* \"#utility.yul\":30090:30148   */\n      mstore\n        /* \"#utility.yul\":30007:30154   */\n      pop\n      pop\n      jump\t// out\n        /* \"#utility.yul\":30160:30618   */\n    tag_249:\n        /* \"#utility.yul\":30317:30321   */\n      0x00\n        /* \"#utility.yul\":30355:30357   */\n      0x60\n        /* \"#utility.yul\":30344:30353   */\n      dup3\n        /* \"#utility.yul\":30340:30358   */\n      add\n        /* \"#utility.yul\":30332:30358   */\n      swap1\n      pop\n        /* \"#utility.yul\":30368:30447   */\n      tag_640\n        /* \"#utility.yul\":30444:30445   */\n      0x00\n        /* \"#utility.yul\":30433:30442   */\n      dup4\n        /* \"#utility.yul\":30429:30446   */\n      add\n        /* \"#utility.yul\":30420:30426   */\n      dup7\n        /* \"#utility.yul\":30368:30447   */\n      tag_365\n      jump\t// in\n    tag_640:\n        /* \"#utility.yul\":30457:30529   */\n      tag_641\n        /* \"#utility.yul\":30525:30527   */\n      0x20\n        /* \"#utility.yul\":30514:30523   */\n      dup4\n        /* \"#utility.yul\":30510:30528   */\n      add\n        /* \"#utility.yul\":30501:30507   */\n      dup6\n        /* \"#utility.yul\":30457:30529   */\n      tag_319\n      jump\t// in\n    tag_641:\n        /* \"#utility.yul\":30539:30611   */\n      tag_642\n        /* \"#utility.yul\":30607:30609   */\n      0x40\n        /* \"#utility.yul\":30596:30605   */\n      dup4\n        /* \"#utility.yul\":30592:30610   */\n      add\n        /* \"#utility.yul\":30583:30589   */\n      dup5\n        /* \"#utility.yul\":30539:30611   */\n      tag_320\n      jump\t// in\n    tag_642:\n        /* \"#utility.yul\":30160:30618   */\n      swap5\n      swap4\n      pop\n      pop\n      pop\n      pop\n      jump\t// out\n        /* \"#utility.yul\":30624:30849   */\n    tag_366:\n        /* \"#utility.yul\":30764:30798   */\n      0x4f776e61626c653a206e6577206f776e657220697320746865207a65726f2061\n        /* \"#utility.yul\":30760:30761   */\n      0x00\n        /* \"#utility.yul\":30752:30758   */\n      dup3\n        /* \"#utility.yul\":30748:30762   */\n      add\n        /* \"#utility.yul\":30741:30799   */\n      mstore\n        /* \"#utility.yul\":30833:30841   */\n      0x6464726573730000000000000000000000000000000000000000000000000000\n        /* \"#utility.yul\":30828:30830   */\n      0x20\n        /* \"#utility.yul\":30820:30826   */\n      dup3\n        /* \"#utility.yul\":30816:30831   */\n      add\n        /* \"#utility.yul\":30809:30842   */\n      mstore\n        /* \"#utility.yul\":30624:30849   */\n      pop\n      jump\t// out\n        /* \"#utility.yul\":30855:31221   */\n    tag_367:\n        /* \"#utility.yul\":30997:31000   */\n      0x00\n        /* \"#utility.yul\":31018:31085   */\n      tag_645\n        /* \"#utility.yul\":31082:31084   */\n      0x26\n        /* \"#utility.yul\":31077:31080   */\n      dup4\n        /* \"#utility.yul\":31018:31085   */\n      tag_327\n      jump\t// in\n    tag_645:\n        /* \"#utility.yul\":31011:31085   */\n      swap2\n      pop\n        /* \"#utility.yul\":31094:31187   */\n      tag_646\n        /* \"#utility.yul\":31183:31186   */\n      dup3\n        /* \"#utility.yul\":31094:31187   */\n      tag_366\n      jump\t// in\n    tag_646:\n        /* \"#utility.yul\":31212:31214   */\n      0x40\n        /* \"#utility.yul\":31207:31210   */\n      dup3\n        /* \"#utility.yul\":31203:31215   */\n      add\n        /* \"#utility.yul\":31196:31215   */\n      swap1\n      pop\n        /* \"#utility.yul\":30855:31221   */\n      swap2\n      swap1\n      pop\n      jump\t// out\n        /* \"#utility.yul\":31227:31646   */\n    tag_265:\n        /* \"#utility.yul\":31393:31397   */\n      0x00\n        /* \"#utility.yul\":31431:31433   */\n      0x20\n        /* \"#utility.yul\":31420:31429   */\n      dup3\n        /* \"#utility.yul\":31416:31434   */\n      add\n        /* \"#utility.yul\":31408:31434   */\n      swap1\n      pop\n        /* \"#utility.yul\":31480:31489   */\n      dup2\n        /* \"#utility.yul\":31474:31478   */\n      dup2\n        /* \"#utility.yul\":31470:31490   */\n      sub\n        /* \"#utility.yul\":31466:31467   */\n      0x00\n        /* \"#utility.yul\":31455:31464   */\n      dup4\n        /* \"#utility.yul\":31451:31468   */\n      add\n        /* \"#utility.yul\":31444:31491   */\n      mstore\n        /* \"#utility.yul\":31508:31639   */\n      tag_648\n        /* \"#utility.yul\":31634:31638   */\n      dup2\n        /* \"#utility.yul\":31508:31639   */\n      tag_367\n      jump\t// in\n    tag_648:\n        /* \"#utility.yul\":31500:31639   */\n      swap1\n      pop\n        /* \"#utility.yul\":31227:31646   */\n      swap2\n      swap1\n      pop\n      jump\t// out\n        /* \"#utility.yul\":31652:31997   */\n    tag_276:\n        /* \"#utility.yul\":31719:31725   */\n      0x00\n        /* \"#utility.yul\":31768:31770   */\n      0x20\n        /* \"#utility.yul\":31756:31765   */\n      dup3\n        /* \"#utility.yul\":31747:31754   */\n      dup5\n        /* \"#utility.yul\":31743:31766   */\n      sub\n        /* \"#utility.yul\":31739:31771   */\n      slt\n        /* \"#utility.yul\":31736:31855   */\n      iszero\n      tag_650\n      jumpi\n        /* \"#utility.yul\":31774:31853   */\n      tag_651\n      tag_288\n      jump\t// in\n    tag_651:\n        /* \"#utility.yul\":31736:31855   */\n    tag_650:\n        /* \"#utility.yul\":31894:31895   */\n      0x00\n        /* \"#utility.yul\":31919:31980   */\n      tag_652\n        /* \"#utility.yul\":31972:31979   */\n      dup5\n        /* \"#utility.yul\":31963:31969   */\n      dup3\n        /* \"#utility.yul\":31952:31961   */\n      dup6\n        /* \"#utility.yul\":31948:31970   */\n      add\n        /* \"#utility.yul\":31919:31980   */\n      tag_355\n      jump\t// in\n    tag_652:\n        /* \"#utility.yul\":31909:31980   */\n      swap2\n      pop\n        /* \"#utility.yul\":31865:31990   */\n      pop\n        /* \"#utility.yul\":31652:31997   */\n      swap3\n      swap2\n      pop\n      pop\n      jump\t// out\n\n    auxdata: 0xa2646970667358221220094f101840153b42d7cf8f9a9134fc3554be1761802e3e1d6130f22774f4857264736f6c634300080d0033\n}\n",
				"bytecode": {
					"linkReferences": {},
					"object": "608060405260405162002e7138038062002e71833981810160405281019062000029919062000255565b600160008190555062000051620000456200011d60201b60201c565b6200012560201b60201c565b82600360006101000a81548173ffffffffffffffffffffffffffffffffffffffff021916908373ffffffffffffffffffffffffffffffffffffffff16021790555081600560006101000a81548173ffffffffffffffffffffffffffffffffffffffff021916908373ffffffffffffffffffffffffffffffffffffffff16021790555080600460006101000a81548173ffffffffffffffffffffffffffffffffffffffff021916908373ffffffffffffffffffffffffffffffffffffffff160217905550505050620002b1565b600033905090565b6000600660009054906101000a900473ffffffffffffffffffffffffffffffffffffffff16905081600660006101000a81548173ffffffffffffffffffffffffffffffffffffffff021916908373ffffffffffffffffffffffffffffffffffffffff1602179055508173ffffffffffffffffffffffffffffffffffffffff168173ffffffffffffffffffffffffffffffffffffffff167f8be0079c531659141344cd1fd0a4f28419497f9722a3daafe3b4186f6b6457e060405160405180910390a35050565b600080fd5b600073ffffffffffffffffffffffffffffffffffffffff82169050919050565b60006200021d82620001f0565b9050919050565b6200022f8162000210565b81146200023b57600080fd5b50565b6000815190506200024f8162000224565b92915050565b600080600060608486031215620002715762000270620001eb565b5b600062000281868287016200023e565b935050602062000294868287016200023e565b9250506040620002a7868287016200023e565b9150509250925092565b612bb080620002c16000396000f3fe608060405234801561001057600080fd5b506004361061012c5760003560e01c80638da5cb5b116100ad578063c7be7a4911610071578063c7be7a49146102ea578063e78e717d1461031a578063f2fde38b14610336578063f55de0c714610352578063ff68fa6e146103705761012c565b80638da5cb5b1461023f578063a1c11ca81461025d578063b7a60c7e14610279578063bfb231d214610297578063c45a0155146102cc5761012c565b80633fc15f15116100f45780633fc15f15146101bf57806342199f88146101dd5780635bb47808146101fb578063715018a61461021757806385a8b36c146102215761012c565b8063100616311461013157806315b124941461014d57806327ce464e146101695780632b4c32be14610185578063361c1995146101a3575b600080fd5b61014b60048036038101906101469190611c45565b6103a5565b005b61016760048036038101906101629190611cd0565b610815565b005b610183600480360381019061017e9190611cd0565b6108d5565b005b61018d610995565b60405161019a9190611d38565b60405180910390f35b6101bd60048036038101906101b89190611d53565b6109a0565b005b6101c7610c8b565b6040516101d49190611df2565b60405180910390f35b6101e5610cb1565b6040516101f29190611fcc565b60405180910390f35b61021560048036038101906102109190611cd0565b610f83565b005b61021f611043565b005b6102296110cb565b604051610236919061200a565b60405180910390f35b6102476110de565b6040516102549190612034565b60405180910390f35b61027760048036038101906102729190611d53565b611108565b005b6102816113c6565b60405161028e919061200a565b60405180910390f35b6102b160048036038101906102ac9190611c45565b6113d9565b6040516102c39695949392919061206d565b60405180910390f35b6102d4611472565b6040516102e191906120ef565b60405180910390f35b61030460048036038101906102ff9190611c45565b611498565b6040516103119190612185565b60405180910390f35b610334600480360381019061032f9190611c45565b6115ca565b005b610350600480360381019061034b9190611cd0565b6116ef565b005b61035a6117e6565b60405161036791906121c1565b60405180910390f35b61038a60048036038101906103859190611c45565b61180c565b60405161039c9695949392919061206d565b60405180910390f35b60003390506000600960008481526020019081526020016000206040518060c001604052908160008201548152602001600182015481526020016002820160009054906101000a900473ffffffffffffffffffffffffffffffffffffffff1673ffffffffffffffffffffffffffffffffffffffff1673ffffffffffffffffffffffffffffffffffffffff1681526020016003820160009054906101000a900473ffffffffffffffffffffffffffffffffffffffff1673ffffffffffffffffffffffffffffffffffffffff1673ffffffffffffffffffffffffffffffffffffffff168152602001600482015481526020016005820160009054906101000a900460ff1660018111156104b9576104b8611e57565b5b60018111156104cb576104ca611e57565b5b8152505090506000816000015103610518576040517f08c379a000000000000000000000000000000000000000000000000000000000815260040161050f90612239565b60405180910390fd5b60018081111561052b5761052a611e57565b5b8160a00151600181111561054257610541611e57565b5b14610582576040517f08c379a0000000000000000000000000000000000000000000000000000000008152600401610579906122a5565b60405180910390fd5b600081604001519050600073ffffffffffffffffffffffffffffffffffffffff168173ffffffffffffffffffffffffffffffffffffffff16036105fa576040517f08c379a00000000000000000000000000000000000000000000000000000000081526004016105f190612311565b60405180910390fd5b3373ffffffffffffffffffffffffffffffffffffffff168173ffffffffffffffffffffffffffffffffffffffff1614610668576040517f08c379a000000000000000000000000000000000000000000000000000000000815260040161065f9061237d565b60405180910390fd5b600560009054906101000a900473ffffffffffffffffffffffffffffffffffffffff1673ffffffffffffffffffffffffffffffffffffffff166342842e0e3083876040518463ffffffff1660e01b81526004016106c79392919061239d565b600060405180830381600087803b1580156106e157600080fd5b505af11580156106f5573d6000803e3d6000fd5b5050505060008260a00190600181111561071257610711611e57565b5b9081600181111561072657610725611e57565b5b815250506009600085815260200190815260200160002060008082016000905560018201600090556002820160006101000a81549073ffffffffffffffffffffffffffffffffffffffff02191690556003820160006101000a81549073ffffffffffffffffffffffffffffffffffffffff021916905560048201600090556005820160006101000a81549060ff021916905550508273ffffffffffffffffffffffffffffffffffffffff16847f72ffc2a266acba5f77e2b49400103cb61b428f37a97057ebe671e83fddd71e678460000151426040516108079291906123d4565b60405180910390a350505050565b61081d611895565b73ffffffffffffffffffffffffffffffffffffffff1661083b6110de565b73ffffffffffffffffffffffffffffffffffffffff1614610891576040517f08c379a000000000000000000000000000000000000000000000000000000000815260040161088890612449565b60405180910390fd5b80600560006101000a81548173ffffffffffffffffffffffffffffffffffffffff021916908373ffffffffffffffffffffffffffffffffffffffff16021790555050565b6108dd611895565b73ffffffffffffffffffffffffffffffffffffffff166108fb6110de565b73ffffffffffffffffffffffffffffffffffffffff1614610951576040517f08c379a000000000000000000000000000000000000000000000000000000000815260040161094890612449565b60405180910390fd5b80600360006101000a81548173ffffffffffffffffffffffffffffffffffffffff021916908373ffffffffffffffffffffffffffffffffffffffff16021790555050565b6380ac58cd60e01b81565b600081116109e3576040517f08c379a00000000000000000000000000000000000000000000000000000000081526004016109da906124b5565b60405180910390fd5b6000600460009054906101000a900473ffffffffffffffffffffffffffffffffffffffff1673ffffffffffffffffffffffffffffffffffffffff166303ce1cb5846040518263ffffffff1660e01b8152600401610a4091906124d5565b600060405180830381865afa158015610a5d573d6000803e3d6000fd5b505050506040513d6000823e3d601f19601f82011682018060405250810190610a86919061278a565b9050600015158160800151151514610ad3576040517f08c379a0000000000000000000000000000000000000000000000000000000008152600401610aca9061281f565b60405180910390fd5b6000610adf600761189d565b90506040518060c001604052808281526020018581526020013373ffffffffffffffffffffffffffffffffffffffff1681526020013073ffffffffffffffffffffffffffffffffffffffff168152602001848152602001600180811115610b4957610b48611e57565b5b81525060096000838152602001908152602001600020600082015181600001556020820151816001015560408201518160020160006101000a81548173ffffffffffffffffffffffffffffffffffffffff021916908373ffffffffffffffffffffffffffffffffffffffff16021790555060608201518160030160006101000a81548173ffffffffffffffffffffffffffffffffffffffff021916908373ffffffffffffffffffffffffffffffffffffffff1602179055506080820151816004015560a08201518160050160006101000a81548160ff02191690836001811115610c3657610c35611e57565b5b0217905550905050610c4860076118ab565b83817f38690a554ffbc44eb6a75016e47d517d0db8e6c37494adc68d6d0b2c66f0ab21333087604051610c7d9392919061239d565b60405180910390a350505050565b600360009054906101000a900473ffffffffffffffffffffffffffffffffffffffff1681565b60606000610cbf600761189d565b905060008060005b83811015610d4057600180811115610ce257610ce1611e57565b5b6009600083815260200190815260200160002060050160009054906101000a900460ff166001811115610d1857610d17611e57565b5b03610d2d57600183610d2a919061286e565b92505b8080610d38906128c4565b915050610cc7565b5060008267ffffffffffffffff811115610d5d57610d5c612506565b5b604051908082528060200260200182016040528015610d9657816020015b610d83611b87565b815260200190600190039081610d7b5790505b50905060005b84811015610f7857600180811115610db757610db6611e57565b5b6009600083815260200190815260200160002060050160009054906101000a900460ff166001811115610ded57610dec611e57565b5b03610f65576000600960008381526020019081526020016000206000015490506000600960008381526020019081526020016000209050806040518060c001604052908160008201548152602001600182015481526020016002820160009054906101000a900473ffffffffffffffffffffffffffffffffffffffff1673ffffffffffffffffffffffffffffffffffffffff1673ffffffffffffffffffffffffffffffffffffffff1681526020016003820160009054906101000a900473ffffffffffffffffffffffffffffffffffffffff1673ffffffffffffffffffffffffffffffffffffffff1673ffffffffffffffffffffffffffffffffffffffff168152602001600482015481526020016005820160009054906101000a900460ff166001811115610f1f57610f1e611e57565b5b6001811115610f3157610f30611e57565b5b81525050848681518110610f4857610f4761290c565b5b6020026020010181905250600185610f60919061286e565b945050505b8080610f70906128c4565b915050610d9c565b508094505050505090565b610f8b611895565b73ffffffffffffffffffffffffffffffffffffffff16610fa96110de565b73ffffffffffffffffffffffffffffffffffffffff1614610fff576040517f08c379a0000000000000000000000000000000000000000000000000000000008152600401610ff690612449565b60405180910390fd5b80600460006101000a81548173ffffffffffffffffffffffffffffffffffffffff021916908373ffffffffffffffffffffffffffffffffffffffff16021790555050565b61104b611895565b73ffffffffffffffffffffffffffffffffffffffff166110696110de565b73ffffffffffffffffffffffffffffffffffffffff16146110bf576040517f08c379a00000000000000000000000000000000000000000000000000000000081526004016110b690612449565b60405180910390fd5b6110c960006118c1565b565b600560149054906101000a900460ff1681565b6000600660009054906101000a900473ffffffffffffffffffffffffffffffffffffffff16905090565b60006009600084815260200190815260200160002060040154905060006009600085815260200190815260200160002060010154905060006009600086815260200190815260200160002060020160009054906101000a900473ffffffffffffffffffffffffffffffffffffffff1690506000600460009054906101000a900473ffffffffffffffffffffffffffffffffffffffff1673ffffffffffffffffffffffffffffffffffffffff166303ce1cb5846040518263ffffffff1660e01b81526004016111d691906124d5565b600060405180830381865afa1580156111f3573d6000803e3d6000fd5b505050506040513d6000823e3d601f19601f8201168201806040525081019061121c919061278a565b9050838514611260576040517f08c379a0000000000000000000000000000000000000000000000000000000008152600401611257906129ad565b60405180910390fd5b6000151581608001511515146112ab576040517f08c379a00000000000000000000000000000000000000000000000000000000081526004016112a29061281f565b60405180910390fd5b6112b6868685611987565b336009600088815260200190815260200160002060030160006101000a81548173ffffffffffffffffffffffffffffffffffffffff021916908373ffffffffffffffffffffffffffffffffffffffff16021790555060006009600088815260200190815260200160002060050160006101000a81548160ff0219169083600181111561134557611344611e57565b5b021790555061135460086118ab565b3373ffffffffffffffffffffffffffffffffffffffff168273ffffffffffffffffffffffffffffffffffffffff16847f551327aee12d0a8b3ede8d0e3182a40a5ff3ed9f1811dd622915db30b609b7df8988426040516113b693929190612a19565b60405180910390a4505050505050565b600560159054906101000a900460ff1681565b600181815481106113e957600080fd5b90600052602060002090600602016000915090508060000154908060010154908060020160009054906101000a900473ffffffffffffffffffffffffffffffffffffffff16908060030160009054906101000a900473ffffffffffffffffffffffffffffffffffffffff16908060040154908060050160009054906101000a900460ff16905086565b600460009054906101000a900473ffffffffffffffffffffffffffffffffffffffff1681565b6114a0611b87565b600960008381526020019081526020016000206040518060c001604052908160008201548152602001600182015481526020016002820160009054906101000a900473ffffffffffffffffffffffffffffffffffffffff1673ffffffffffffffffffffffffffffffffffffffff1673ffffffffffffffffffffffffffffffffffffffff1681526020016003820160009054906101000a900473ffffffffffffffffffffffffffffffffffffffff1673ffffffffffffffffffffffffffffffffffffffff1673ffffffffffffffffffffffffffffffffffffffff168152602001600482015481526020016005820160009054906101000a900460ff1660018111156115ad576115ac611e57565b5b60018111156115bf576115be611e57565b5b815250509050919050565b600460009054906101000a900473ffffffffffffffffffffffffffffffffffffffff1673ffffffffffffffffffffffffffffffffffffffff1663c1e9518a3330846040518463ffffffff1660e01b815260040161162993929190612a84565b600060405180830381600087803b15801561164357600080fd5b505af1158015611657573d6000803e3d6000fd5b50505050600560009054906101000a900473ffffffffffffffffffffffffffffffffffffffff1673ffffffffffffffffffffffffffffffffffffffff166323b872dd3330846040518463ffffffff1660e01b81526004016116ba9392919061239d565b600060405180830381600087803b1580156116d457600080fd5b505af11580156116e8573d6000803e3d6000fd5b5050505050565b6116f7611895565b73ffffffffffffffffffffffffffffffffffffffff166117156110de565b73ffffffffffffffffffffffffffffffffffffffff161461176b576040517f08c379a000000000000000000000000000000000000000000000000000000000815260040161176290612449565b60405180910390fd5b600073ffffffffffffffffffffffffffffffffffffffff168173ffffffffffffffffffffffffffffffffffffffff16036117da576040517f08c379a00000000000000000000000000000000000000000000000000000000081526004016117d190612b2d565b60405180910390fd5b6117e3816118c1565b50565b600560009054906101000a900473ffffffffffffffffffffffffffffffffffffffff1681565b60026020528060005260406000206000915090508060000154908060010154908060020160009054906101000a900473ffffffffffffffffffffffffffffffffffffffff16908060030160009054906101000a900473ffffffffffffffffffffffffffffffffffffffff16908060040154908060050160009054906101000a900460ff16905086565b600033905090565b600081600001549050919050565b6001816000016000828254019250508190555050565b6000600660009054906101000a900473ffffffffffffffffffffffffffffffffffffffff16905081600660006101000a81548173ffffffffffffffffffffffffffffffffffffffff021916908373ffffffffffffffffffffffffffffffffffffffff1602179055508173ffffffffffffffffffffffffffffffffffffffff168173ffffffffffffffffffffffffffffffffffffffff167f8be0079c531659141344cd1fd0a4f28419497f9722a3daafe3b4186f6b6457e060405160405180910390a35050565b600360009054906101000a900473ffffffffffffffffffffffffffffffffffffffff1673ffffffffffffffffffffffffffffffffffffffff166323b872dd336009600087815260200190815260200160002060020160009054906101000a900473ffffffffffffffffffffffffffffffffffffffff16856040518463ffffffff1660e01b8152600401611a1c9392919061239d565b6020604051808303816000875af1158015611a3b573d6000803e3d6000fd5b505050506040513d601f19601f82011682018060405250810190611a5f9190612b4d565b50600460009054906101000a900473ffffffffffffffffffffffffffffffffffffffff1673ffffffffffffffffffffffffffffffffffffffff1663c1e9518a3330846040518463ffffffff1660e01b8152600401611abf9392919061239d565b600060405180830381600087803b158015611ad957600080fd5b505af1158015611aed573d6000803e3d6000fd5b50505050600560009054906101000a900473ffffffffffffffffffffffffffffffffffffffff1673ffffffffffffffffffffffffffffffffffffffff166323b872dd3033846040518463ffffffff1660e01b8152600401611b509392919061239d565b600060405180830381600087803b158015611b6a57600080fd5b505af1158015611b7e573d6000803e3d6000fd5b50505050505050565b6040518060c001604052806000815260200160008152602001600073ffffffffffffffffffffffffffffffffffffffff168152602001600073ffffffffffffffffffffffffffffffffffffffff1681526020016000815260200160006001811115611bf557611bf4611e57565b5b81525090565b6000604051905090565b600080fd5b600080fd5b6000819050919050565b611c2281611c0f565b8114611c2d57600080fd5b50565b600081359050611c3f81611c19565b92915050565b600060208284031215611c5b57611c5a611c05565b5b6000611c6984828501611c30565b91505092915050565b600073ffffffffffffffffffffffffffffffffffffffff82169050919050565b6000611c9d82611c72565b9050919050565b611cad81611c92565b8114611cb857600080fd5b50565b600081359050611cca81611ca4565b92915050565b600060208284031215611ce657611ce5611c05565b5b6000611cf484828501611cbb565b91505092915050565b60007fffffffff0000000000000000000000000000000000000000000000000000000082169050919050565b611d3281611cfd565b82525050565b6000602082019050611d4d6000830184611d29565b92915050565b60008060408385031215611d6a57611d69611c05565b5b6000611d7885828601611c30565b9250506020611d8985828601611c30565b9150509250929050565b6000819050919050565b6000611db8611db3611dae84611c72565b611d93565b611c72565b9050919050565b6000611dca82611d9d565b9050919050565b6000611ddc82611dbf565b9050919050565b611dec81611dd1565b82525050565b6000602082019050611e076000830184611de3565b92915050565b600081519050919050565b600082825260208201905092915050565b6000819050602082019050919050565b611e4281611c0f565b82525050565b611e5181611c92565b82525050565b7f4e487b7100000000000000000000000000000000000000000000000000000000600052602160045260246000fd5b60028110611e9757611e96611e57565b5b50565b6000819050611ea882611e86565b919050565b6000611eb882611e9a565b9050919050565b611ec881611ead565b82525050565b60c082016000820151611ee46000850182611e39565b506020820151611ef76020850182611e39565b506040820151611f0a6040850182611e48565b506060820151611f1d6060850182611e48565b506080820151611f306080850182611e39565b5060a0820151611f4360a0850182611ebf565b50505050565b6000611f558383611ece565b60c08301905092915050565b6000602082019050919050565b6000611f7982611e0d565b611f838185611e18565b9350611f8e83611e29565b8060005b83811015611fbf578151611fa68882611f49565b9750611fb183611f61565b925050600181019050611f92565b5085935050505092915050565b60006020820190508181036000830152611fe68184611f6e565b905092915050565b600060ff82169050919050565b61200481611fee565b82525050565b600060208201905061201f6000830184611ffb565b92915050565b61202e81611c92565b82525050565b60006020820190506120496000830184612025565b92915050565b61205881611c0f565b82525050565b61206781611ead565b82525050565b600060c082019050612082600083018961204f565b61208f602083018861204f565b61209c6040830187612025565b6120a96060830186612025565b6120b6608083018561204f565b6120c360a083018461205e565b979650505050505050565b60006120d982611dbf565b9050919050565b6120e9816120ce565b82525050565b600060208201905061210460008301846120e0565b92915050565b60c0820160008201516121206000850182611e39565b5060208201516121336020850182611e39565b5060408201516121466040850182611e48565b5060608201516121596060850182611e48565b50608082015161216c6080850182611e39565b5060a082015161217f60a0850182611ebf565b50505050565b600060c08201905061219a600083018461210a565b92915050565b60006121ab82611dbf565b9050919050565b6121bb816121a0565b82525050565b60006020820190506121d660008301846121b2565b92915050565b600082825260208201905092915050565b7f4173736574206e6f74207075626c697368656400000000000000000000000000600082015250565b60006122236013836121dc565b915061222e826121ed565b602082019050919050565b6000602082019050818103600083015261225281612216565b9050919050565b7f41737365742064656c6973746564000000000000000000000000000000000000600082015250565b600061228f600e836121dc565b915061229a82612259565b602082019050919050565b600060208201905081810360008301526122be81612282565b9050919050565b7f496e76616c696420616464726573730000000000000000000000000000000000600082015250565b60006122fb600f836121dc565b9150612306826122c5565b602082019050919050565b6000602082019050818103600083015261232a816122ee565b9050919050565b7f4f6e6c792073656c6c65722063616e2064656c69737400000000000000000000600082015250565b60006123676016836121dc565b915061237282612331565b602082019050919050565b600060208201905081810360008301526123968161235a565b9050919050565b60006060820190506123b26000830186612025565b6123bf6020830185612025565b6123cc604083018461204f565b949350505050565b60006040820190506123e9600083018561204f565b6123f6602083018461204f565b9392505050565b7f4f776e61626c653a2063616c6c6572206973206e6f7420746865206f776e6572600082015250565b60006124336020836121dc565b915061243e826123fd565b602082019050919050565b6000602082019050818103600083015261246281612426565b9050919050565b7f5072696365206d757374206265206174206c6561737420312077656900000000600082015250565b600061249f601c836121dc565b91506124aa82612469565b602082019050919050565b600060208201905081810360008301526124ce81612492565b9050919050565b60006020820190506124ea600083018461204f565b92915050565b600080fd5b6000601f19601f8301169050919050565b7f4e487b7100000000000000000000000000000000000000000000000000000000600052604160045260246000fd5b61253e826124f5565b810181811067ffffffffffffffff8211171561255d5761255c612506565b5b80604052505050565b6000612570611bfb565b905061257c8282612535565b919050565b600080fd5b60008151905061259581611c19565b92915050565b6000815190506125aa81611ca4565b92915050565b600080fd5b600080fd5b600067ffffffffffffffff8211156125d5576125d4612506565b5b6125de826124f5565b9050602081019050919050565b60005b838110156126095780820151818401526020810190506125ee565b83811115612618576000848401525b50505050565b600061263161262c846125ba565b612566565b90508281526020810184848401111561264d5761264c6125b5565b5b6126588482856125eb565b509392505050565b600082601f830112612675576126746125b0565b5b815161268584826020860161261e565b91505092915050565b60008115159050919050565b6126a38161268e565b81146126ae57600080fd5b50565b6000815190506126c08161269a565b92915050565b600060a082840312156126dc576126db6124f0565b5b6126e660a0612566565b905060006126f684828501612586565b600083015250602061270a8482850161259b565b602083015250604082015167ffffffffffffffff81111561272e5761272d612581565b5b61273a84828501612660565b604083015250606082015167ffffffffffffffff81111561275e5761275d612581565b5b61276a84828501612660565b606083015250608061277e848285016126b1565b60808301525092915050565b6000602082840312156127a05761279f611c05565b5b600082015167ffffffffffffffff8111156127be576127bd611c0a565b5b6127ca848285016126c6565b91505092915050565b7f4974656d206973206e6f7420617661696c61626c65206e6f7720210000000000600082015250565b6000612809601b836121dc565b9150612814826127d3565b602082019050919050565b60006020820190508181036000830152612838816127fc565b9050919050565b7f4e487b7100000000000000000000000000000000000000000000000000000000600052601160045260246000fd5b600061287982611c0f565b915061288483611c0f565b9250827fffffffffffffffffffffffffffffffffffffffffffffffffffffffffffffffff038211156128b9576128b861283f565b5b828201905092915050565b60006128cf82611c0f565b91507fffffffffffffffffffffffffffffffffffffffffffffffffffffffffffffffff82036129015761290061283f565b5b600182019050919050565b7f4e487b7100000000000000000000000000000000000000000000000000000000600052603260045260246000fd5b7f506c65617365207375626d6974207468652061736b696e67207072696365206960008201527f6e206f7264657220746f20636f6d706c65746520746865207075726368617365602082015250565b60006129976040836121dc565b91506129a28261293b565b604082019050919050565b600060208201905081810360008301526129c68161298a565b9050919050565b7f5351460000000000000000000000000000000000000000000000000000000000600082015250565b6000612a036003836121dc565b9150612a0e826129cd565b602082019050919050565b6000608082019050612a2e600083018661204f565b612a3b602083018561204f565b8181036040830152612a4c816129f6565b9050612a5b606083018461204f565b949350505050565b6000612a6e82611dbf565b9050919050565b612a7e81612a63565b82525050565b6000606082019050612a996000830186612a75565b612aa66020830185612025565b612ab3604083018461204f565b949350505050565b7f4f776e61626c653a206e6577206f776e657220697320746865207a65726f206160008201527f6464726573730000000000000000000000000000000000000000000000000000602082015250565b6000612b176026836121dc565b9150612b2282612abb565b604082019050919050565b60006020820190508181036000830152612b4681612b0a565b9050919050565b600060208284031215612b6357612b62611c05565b5b6000612b71848285016126b1565b9150509291505056fea2646970667358221220094f101840153b42d7cf8f9a9134fc3554be1761802e3e1d6130f22774f4857264736f6c634300080d0033",
					"opcodes": "PUSH1 0x80 PUSH1 0x40 MSTORE PUSH1 0x40 MLOAD PUSH3 0x2E71 CODESIZE SUB DUP1 PUSH3 0x2E71 DUP4 CODECOPY DUP2 DUP2 ADD PUSH1 0x40 MSTORE DUP2 ADD SWAP1 PUSH3 0x29 SWAP2 SWAP1 PUSH3 0x255 JUMP JUMPDEST PUSH1 0x1 PUSH1 0x0 DUP2 SWAP1 SSTORE POP PUSH3 0x51 PUSH3 0x45 PUSH3 0x11D PUSH1 0x20 SHL PUSH1 0x20 SHR JUMP JUMPDEST PUSH3 0x125 PUSH1 0x20 SHL PUSH1 0x20 SHR JUMP JUMPDEST DUP3 PUSH1 0x3 PUSH1 0x0 PUSH2 0x100 EXP DUP2 SLOAD DUP2 PUSH20 0xFFFFFFFFFFFFFFFFFFFFFFFFFFFFFFFFFFFFFFFF MUL NOT AND SWAP1 DUP4 PUSH20 0xFFFFFFFFFFFFFFFFFFFFFFFFFFFFFFFFFFFFFFFF AND MUL OR SWAP1 SSTORE POP DUP2 PUSH1 0x5 PUSH1 0x0 PUSH2 0x100 EXP DUP2 SLOAD DUP2 PUSH20 0xFFFFFFFFFFFFFFFFFFFFFFFFFFFFFFFFFFFFFFFF MUL NOT AND SWAP1 DUP4 PUSH20 0xFFFFFFFFFFFFFFFFFFFFFFFFFFFFFFFFFFFFFFFF AND MUL OR SWAP1 SSTORE POP DUP1 PUSH1 0x4 PUSH1 0x0 PUSH2 0x100 EXP DUP2 SLOAD DUP2 PUSH20 0xFFFFFFFFFFFFFFFFFFFFFFFFFFFFFFFFFFFFFFFF MUL NOT AND SWAP1 DUP4 PUSH20 0xFFFFFFFFFFFFFFFFFFFFFFFFFFFFFFFFFFFFFFFF AND MUL OR SWAP1 SSTORE POP POP POP POP PUSH3 0x2B1 JUMP JUMPDEST PUSH1 0x0 CALLER SWAP1 POP SWAP1 JUMP JUMPDEST PUSH1 0x0 PUSH1 0x6 PUSH1 0x0 SWAP1 SLOAD SWAP1 PUSH2 0x100 EXP SWAP1 DIV PUSH20 0xFFFFFFFFFFFFFFFFFFFFFFFFFFFFFFFFFFFFFFFF AND SWAP1 POP DUP2 PUSH1 0x6 PUSH1 0x0 PUSH2 0x100 EXP DUP2 SLOAD DUP2 PUSH20 0xFFFFFFFFFFFFFFFFFFFFFFFFFFFFFFFFFFFFFFFF MUL NOT AND SWAP1 DUP4 PUSH20 0xFFFFFFFFFFFFFFFFFFFFFFFFFFFFFFFFFFFFFFFF AND MUL OR SWAP1 SSTORE POP DUP2 PUSH20 0xFFFFFFFFFFFFFFFFFFFFFFFFFFFFFFFFFFFFFFFF AND DUP2 PUSH20 0xFFFFFFFFFFFFFFFFFFFFFFFFFFFFFFFFFFFFFFFF AND PUSH32 0x8BE0079C531659141344CD1FD0A4F28419497F9722A3DAAFE3B4186F6B6457E0 PUSH1 0x40 MLOAD PUSH1 0x40 MLOAD DUP1 SWAP2 SUB SWAP1 LOG3 POP POP JUMP JUMPDEST PUSH1 0x0 DUP1 REVERT JUMPDEST PUSH1 0x0 PUSH20 0xFFFFFFFFFFFFFFFFFFFFFFFFFFFFFFFFFFFFFFFF DUP3 AND SWAP1 POP SWAP2 SWAP1 POP JUMP JUMPDEST PUSH1 0x0 PUSH3 0x21D DUP3 PUSH3 0x1F0 JUMP JUMPDEST SWAP1 POP SWAP2 SWAP1 POP JUMP JUMPDEST PUSH3 0x22F DUP2 PUSH3 0x210 JUMP JUMPDEST DUP2 EQ PUSH3 0x23B JUMPI PUSH1 0x0 DUP1 REVERT JUMPDEST POP JUMP JUMPDEST PUSH1 0x0 DUP2 MLOAD SWAP1 POP PUSH3 0x24F DUP2 PUSH3 0x224 JUMP JUMPDEST SWAP3 SWAP2 POP POP JUMP JUMPDEST PUSH1 0x0 DUP1 PUSH1 0x0 PUSH1 0x60 DUP5 DUP7 SUB SLT ISZERO PUSH3 0x271 JUMPI PUSH3 0x270 PUSH3 0x1EB JUMP JUMPDEST JUMPDEST PUSH1 0x0 PUSH3 0x281 DUP7 DUP3 DUP8 ADD PUSH3 0x23E JUMP JUMPDEST SWAP4 POP POP PUSH1 0x20 PUSH3 0x294 DUP7 DUP3 DUP8 ADD PUSH3 0x23E JUMP JUMPDEST SWAP3 POP POP PUSH1 0x40 PUSH3 0x2A7 DUP7 DUP3 DUP8 ADD PUSH3 0x23E JUMP JUMPDEST SWAP2 POP POP SWAP3 POP SWAP3 POP SWAP3 JUMP JUMPDEST PUSH2 0x2BB0 DUP1 PUSH3 0x2C1 PUSH1 0x0 CODECOPY PUSH1 0x0 RETURN INVALID PUSH1 0x80 PUSH1 0x40 MSTORE CALLVALUE DUP1 ISZERO PUSH2 0x10 JUMPI PUSH1 0x0 DUP1 REVERT JUMPDEST POP PUSH1 0x4 CALLDATASIZE LT PUSH2 0x12C JUMPI PUSH1 0x0 CALLDATALOAD PUSH1 0xE0 SHR DUP1 PUSH4 0x8DA5CB5B GT PUSH2 0xAD JUMPI DUP1 PUSH4 0xC7BE7A49 GT PUSH2 0x71 JUMPI DUP1 PUSH4 0xC7BE7A49 EQ PUSH2 0x2EA JUMPI DUP1 PUSH4 0xE78E717D EQ PUSH2 0x31A JUMPI DUP1 PUSH4 0xF2FDE38B EQ PUSH2 0x336 JUMPI DUP1 PUSH4 0xF55DE0C7 EQ PUSH2 0x352 JUMPI DUP1 PUSH4 0xFF68FA6E EQ PUSH2 0x370 JUMPI PUSH2 0x12C JUMP JUMPDEST DUP1 PUSH4 0x8DA5CB5B EQ PUSH2 0x23F JUMPI DUP1 PUSH4 0xA1C11CA8 EQ PUSH2 0x25D JUMPI DUP1 PUSH4 0xB7A60C7E EQ PUSH2 0x279 JUMPI DUP1 PUSH4 0xBFB231D2 EQ PUSH2 0x297 JUMPI DUP1 PUSH4 0xC45A0155 EQ PUSH2 0x2CC JUMPI PUSH2 0x12C JUMP JUMPDEST DUP1 PUSH4 0x3FC15F15 GT PUSH2 0xF4 JUMPI DUP1 PUSH4 0x3FC15F15 EQ PUSH2 0x1BF JUMPI DUP1 PUSH4 0x42199F88 EQ PUSH2 0x1DD JUMPI DUP1 PUSH4 0x5BB47808 EQ PUSH2 0x1FB JUMPI DUP1 PUSH4 0x715018A6 EQ PUSH2 0x217 JUMPI DUP1 PUSH4 0x85A8B36C EQ PUSH2 0x221 JUMPI PUSH2 0x12C JUMP JUMPDEST DUP1 PUSH4 0x10061631 EQ PUSH2 0x131 JUMPI DUP1 PUSH4 0x15B12494 EQ PUSH2 0x14D JUMPI DUP1 PUSH4 0x27CE464E EQ PUSH2 0x169 JUMPI DUP1 PUSH4 0x2B4C32BE EQ PUSH2 0x185 JUMPI DUP1 PUSH4 0x361C1995 EQ PUSH2 0x1A3 JUMPI JUMPDEST PUSH1 0x0 DUP1 REVERT JUMPDEST PUSH2 0x14B PUSH1 0x4 DUP1 CALLDATASIZE SUB DUP2 ADD SWAP1 PUSH2 0x146 SWAP2 SWAP1 PUSH2 0x1C45 JUMP JUMPDEST PUSH2 0x3A5 JUMP JUMPDEST STOP JUMPDEST PUSH2 0x167 PUSH1 0x4 DUP1 CALLDATASIZE SUB DUP2 ADD SWAP1 PUSH2 0x162 SWAP2 SWAP1 PUSH2 0x1CD0 JUMP JUMPDEST PUSH2 0x815 JUMP JUMPDEST STOP JUMPDEST PUSH2 0x183 PUSH1 0x4 DUP1 CALLDATASIZE SUB DUP2 ADD SWAP1 PUSH2 0x17E SWAP2 SWAP1 PUSH2 0x1CD0 JUMP JUMPDEST PUSH2 0x8D5 JUMP JUMPDEST STOP JUMPDEST PUSH2 0x18D PUSH2 0x995 JUMP JUMPDEST PUSH1 0x40 MLOAD PUSH2 0x19A SWAP2 SWAP1 PUSH2 0x1D38 JUMP JUMPDEST PUSH1 0x40 MLOAD DUP1 SWAP2 SUB SWAP1 RETURN JUMPDEST PUSH2 0x1BD PUSH1 0x4 DUP1 CALLDATASIZE SUB DUP2 ADD SWAP1 PUSH2 0x1B8 SWAP2 SWAP1 PUSH2 0x1D53 JUMP JUMPDEST PUSH2 0x9A0 JUMP JUMPDEST STOP JUMPDEST PUSH2 0x1C7 PUSH2 0xC8B JUMP JUMPDEST PUSH1 0x40 MLOAD PUSH2 0x1D4 SWAP2 SWAP1 PUSH2 0x1DF2 JUMP JUMPDEST PUSH1 0x40 MLOAD DUP1 SWAP2 SUB SWAP1 RETURN JUMPDEST PUSH2 0x1E5 PUSH2 0xCB1 JUMP JUMPDEST PUSH1 0x40 MLOAD PUSH2 0x1F2 SWAP2 SWAP1 PUSH2 0x1FCC JUMP JUMPDEST PUSH1 0x40 MLOAD DUP1 SWAP2 SUB SWAP1 RETURN JUMPDEST PUSH2 0x215 PUSH1 0x4 DUP1 CALLDATASIZE SUB DUP2 ADD SWAP1 PUSH2 0x210 SWAP2 SWAP1 PUSH2 0x1CD0 JUMP JUMPDEST PUSH2 0xF83 JUMP JUMPDEST STOP JUMPDEST PUSH2 0x21F PUSH2 0x1043 JUMP JUMPDEST STOP JUMPDEST PUSH2 0x229 PUSH2 0x10CB JUMP JUMPDEST PUSH1 0x40 MLOAD PUSH2 0x236 SWAP2 SWAP1 PUSH2 0x200A JUMP JUMPDEST PUSH1 0x40 MLOAD DUP1 SWAP2 SUB SWAP1 RETURN JUMPDEST PUSH2 0x247 PUSH2 0x10DE JUMP JUMPDEST PUSH1 0x40 MLOAD PUSH2 0x254 SWAP2 SWAP1 PUSH2 0x2034 JUMP JUMPDEST PUSH1 0x40 MLOAD DUP1 SWAP2 SUB SWAP1 RETURN JUMPDEST PUSH2 0x277 PUSH1 0x4 DUP1 CALLDATASIZE SUB DUP2 ADD SWAP1 PUSH2 0x272 SWAP2 SWAP1 PUSH2 0x1D53 JUMP JUMPDEST PUSH2 0x1108 JUMP JUMPDEST STOP JUMPDEST PUSH2 0x281 PUSH2 0x13C6 JUMP JUMPDEST PUSH1 0x40 MLOAD PUSH2 0x28E SWAP2 SWAP1 PUSH2 0x200A JUMP JUMPDEST PUSH1 0x40 MLOAD DUP1 SWAP2 SUB SWAP1 RETURN JUMPDEST PUSH2 0x2B1 PUSH1 0x4 DUP1 CALLDATASIZE SUB DUP2 ADD SWAP1 PUSH2 0x2AC SWAP2 SWAP1 PUSH2 0x1C45 JUMP JUMPDEST PUSH2 0x13D9 JUMP JUMPDEST PUSH1 0x40 MLOAD PUSH2 0x2C3 SWAP7 SWAP6 SWAP5 SWAP4 SWAP3 SWAP2 SWAP1 PUSH2 0x206D JUMP JUMPDEST PUSH1 0x40 MLOAD DUP1 SWAP2 SUB SWAP1 RETURN JUMPDEST PUSH2 0x2D4 PUSH2 0x1472 JUMP JUMPDEST PUSH1 0x40 MLOAD PUSH2 0x2E1 SWAP2 SWAP1 PUSH2 0x20EF JUMP JUMPDEST PUSH1 0x40 MLOAD DUP1 SWAP2 SUB SWAP1 RETURN JUMPDEST PUSH2 0x304 PUSH1 0x4 DUP1 CALLDATASIZE SUB DUP2 ADD SWAP1 PUSH2 0x2FF SWAP2 SWAP1 PUSH2 0x1C45 JUMP JUMPDEST PUSH2 0x1498 JUMP JUMPDEST PUSH1 0x40 MLOAD PUSH2 0x311 SWAP2 SWAP1 PUSH2 0x2185 JUMP JUMPDEST PUSH1 0x40 MLOAD DUP1 SWAP2 SUB SWAP1 RETURN JUMPDEST PUSH2 0x334 PUSH1 0x4 DUP1 CALLDATASIZE SUB DUP2 ADD SWAP1 PUSH2 0x32F SWAP2 SWAP1 PUSH2 0x1C45 JUMP JUMPDEST PUSH2 0x15CA JUMP JUMPDEST STOP JUMPDEST PUSH2 0x350 PUSH1 0x4 DUP1 CALLDATASIZE SUB DUP2 ADD SWAP1 PUSH2 0x34B SWAP2 SWAP1 PUSH2 0x1CD0 JUMP JUMPDEST PUSH2 0x16EF JUMP JUMPDEST STOP JUMPDEST PUSH2 0x35A PUSH2 0x17E6 JUMP JUMPDEST PUSH1 0x40 MLOAD PUSH2 0x367 SWAP2 SWAP1 PUSH2 0x21C1 JUMP JUMPDEST PUSH1 0x40 MLOAD DUP1 SWAP2 SUB SWAP1 RETURN JUMPDEST PUSH2 0x38A PUSH1 0x4 DUP1 CALLDATASIZE SUB DUP2 ADD SWAP1 PUSH2 0x385 SWAP2 SWAP1 PUSH2 0x1C45 JUMP JUMPDEST PUSH2 0x180C JUMP JUMPDEST PUSH1 0x40 MLOAD PUSH2 0x39C SWAP7 SWAP6 SWAP5 SWAP4 SWAP3 SWAP2 SWAP1 PUSH2 0x206D JUMP JUMPDEST PUSH1 0x40 MLOAD DUP1 SWAP2 SUB SWAP1 RETURN JUMPDEST PUSH1 0x0 CALLER SWAP1 POP PUSH1 0x0 PUSH1 0x9 PUSH1 0x0 DUP5 DUP2 MSTORE PUSH1 0x20 ADD SWAP1 DUP2 MSTORE PUSH1 0x20 ADD PUSH1 0x0 KECCAK256 PUSH1 0x40 MLOAD DUP1 PUSH1 0xC0 ADD PUSH1 0x40 MSTORE SWAP1 DUP2 PUSH1 0x0 DUP3 ADD SLOAD DUP2 MSTORE PUSH1 0x20 ADD PUSH1 0x1 DUP3 ADD SLOAD DUP2 MSTORE PUSH1 0x20 ADD PUSH1 0x2 DUP3 ADD PUSH1 0x0 SWAP1 SLOAD SWAP1 PUSH2 0x100 EXP SWAP1 DIV PUSH20 0xFFFFFFFFFFFFFFFFFFFFFFFFFFFFFFFFFFFFFFFF AND PUSH20 0xFFFFFFFFFFFFFFFFFFFFFFFFFFFFFFFFFFFFFFFF AND PUSH20 0xFFFFFFFFFFFFFFFFFFFFFFFFFFFFFFFFFFFFFFFF AND DUP2 MSTORE PUSH1 0x20 ADD PUSH1 0x3 DUP3 ADD PUSH1 0x0 SWAP1 SLOAD SWAP1 PUSH2 0x100 EXP SWAP1 DIV PUSH20 0xFFFFFFFFFFFFFFFFFFFFFFFFFFFFFFFFFFFFFFFF AND PUSH20 0xFFFFFFFFFFFFFFFFFFFFFFFFFFFFFFFFFFFFFFFF AND PUSH20 0xFFFFFFFFFFFFFFFFFFFFFFFFFFFFFFFFFFFFFFFF AND DUP2 MSTORE PUSH1 0x20 ADD PUSH1 0x4 DUP3 ADD SLOAD DUP2 MSTORE PUSH1 0x20 ADD PUSH1 0x5 DUP3 ADD PUSH1 0x0 SWAP1 SLOAD SWAP1 PUSH2 0x100 EXP SWAP1 DIV PUSH1 0xFF AND PUSH1 0x1 DUP2 GT ISZERO PUSH2 0x4B9 JUMPI PUSH2 0x4B8 PUSH2 0x1E57 JUMP JUMPDEST JUMPDEST PUSH1 0x1 DUP2 GT ISZERO PUSH2 0x4CB JUMPI PUSH2 0x4CA PUSH2 0x1E57 JUMP JUMPDEST JUMPDEST DUP2 MSTORE POP POP SWAP1 POP PUSH1 0x0 DUP2 PUSH1 0x0 ADD MLOAD SUB PUSH2 0x518 JUMPI PUSH1 0x40 MLOAD PUSH32 0x8C379A000000000000000000000000000000000000000000000000000000000 DUP2 MSTORE PUSH1 0x4 ADD PUSH2 0x50F SWAP1 PUSH2 0x2239 JUMP JUMPDEST PUSH1 0x40 MLOAD DUP1 SWAP2 SUB SWAP1 REVERT JUMPDEST PUSH1 0x1 DUP1 DUP2 GT ISZERO PUSH2 0x52B JUMPI PUSH2 0x52A PUSH2 0x1E57 JUMP JUMPDEST JUMPDEST DUP2 PUSH1 0xA0 ADD MLOAD PUSH1 0x1 DUP2 GT ISZERO PUSH2 0x542 JUMPI PUSH2 0x541 PUSH2 0x1E57 JUMP JUMPDEST JUMPDEST EQ PUSH2 0x582 JUMPI PUSH1 0x40 MLOAD PUSH32 0x8C379A000000000000000000000000000000000000000000000000000000000 DUP2 MSTORE PUSH1 0x4 ADD PUSH2 0x579 SWAP1 PUSH2 0x22A5 JUMP JUMPDEST PUSH1 0x40 MLOAD DUP1 SWAP2 SUB SWAP1 REVERT JUMPDEST PUSH1 0x0 DUP2 PUSH1 0x40 ADD MLOAD SWAP1 POP PUSH1 0x0 PUSH20 0xFFFFFFFFFFFFFFFFFFFFFFFFFFFFFFFFFFFFFFFF AND DUP2 PUSH20 0xFFFFFFFFFFFFFFFFFFFFFFFFFFFFFFFFFFFFFFFF AND SUB PUSH2 0x5FA JUMPI PUSH1 0x40 MLOAD PUSH32 0x8C379A000000000000000000000000000000000000000000000000000000000 DUP2 MSTORE PUSH1 0x4 ADD PUSH2 0x5F1 SWAP1 PUSH2 0x2311 JUMP JUMPDEST PUSH1 0x40 MLOAD DUP1 SWAP2 SUB SWAP1 REVERT JUMPDEST CALLER PUSH20 0xFFFFFFFFFFFFFFFFFFFFFFFFFFFFFFFFFFFFFFFF AND DUP2 PUSH20 0xFFFFFFFFFFFFFFFFFFFFFFFFFFFFFFFFFFFFFFFF AND EQ PUSH2 0x668 JUMPI PUSH1 0x40 MLOAD PUSH32 0x8C379A000000000000000000000000000000000000000000000000000000000 DUP2 MSTORE PUSH1 0x4 ADD PUSH2 0x65F SWAP1 PUSH2 0x237D JUMP JUMPDEST PUSH1 0x40 MLOAD DUP1 SWAP2 SUB SWAP1 REVERT JUMPDEST PUSH1 0x5 PUSH1 0x0 SWAP1 SLOAD SWAP1 PUSH2 0x100 EXP SWAP1 DIV PUSH20 0xFFFFFFFFFFFFFFFFFFFFFFFFFFFFFFFFFFFFFFFF AND PUSH20 0xFFFFFFFFFFFFFFFFFFFFFFFFFFFFFFFFFFFFFFFF AND PUSH4 0x42842E0E ADDRESS DUP4 DUP8 PUSH1 0x40 MLOAD DUP5 PUSH4 0xFFFFFFFF AND PUSH1 0xE0 SHL DUP2 MSTORE PUSH1 0x4 ADD PUSH2 0x6C7 SWAP4 SWAP3 SWAP2 SWAP1 PUSH2 0x239D JUMP JUMPDEST PUSH1 0x0 PUSH1 0x40 MLOAD DUP1 DUP4 SUB DUP2 PUSH1 0x0 DUP8 DUP1 EXTCODESIZE ISZERO DUP1 ISZERO PUSH2 0x6E1 JUMPI PUSH1 0x0 DUP1 REVERT JUMPDEST POP GAS CALL ISZERO DUP1 ISZERO PUSH2 0x6F5 JUMPI RETURNDATASIZE PUSH1 0x0 DUP1 RETURNDATACOPY RETURNDATASIZE PUSH1 0x0 REVERT JUMPDEST POP POP POP POP PUSH1 0x0 DUP3 PUSH1 0xA0 ADD SWAP1 PUSH1 0x1 DUP2 GT ISZERO PUSH2 0x712 JUMPI PUSH2 0x711 PUSH2 0x1E57 JUMP JUMPDEST JUMPDEST SWAP1 DUP2 PUSH1 0x1 DUP2 GT ISZERO PUSH2 0x726 JUMPI PUSH2 0x725 PUSH2 0x1E57 JUMP JUMPDEST JUMPDEST DUP2 MSTORE POP POP PUSH1 0x9 PUSH1 0x0 DUP6 DUP2 MSTORE PUSH1 0x20 ADD SWAP1 DUP2 MSTORE PUSH1 0x20 ADD PUSH1 0x0 KECCAK256 PUSH1 0x0 DUP1 DUP3 ADD PUSH1 0x0 SWAP1 SSTORE PUSH1 0x1 DUP3 ADD PUSH1 0x0 SWAP1 SSTORE PUSH1 0x2 DUP3 ADD PUSH1 0x0 PUSH2 0x100 EXP DUP2 SLOAD SWAP1 PUSH20 0xFFFFFFFFFFFFFFFFFFFFFFFFFFFFFFFFFFFFFFFF MUL NOT AND SWAP1 SSTORE PUSH1 0x3 DUP3 ADD PUSH1 0x0 PUSH2 0x100 EXP DUP2 SLOAD SWAP1 PUSH20 0xFFFFFFFFFFFFFFFFFFFFFFFFFFFFFFFFFFFFFFFF MUL NOT AND SWAP1 SSTORE PUSH1 0x4 DUP3 ADD PUSH1 0x0 SWAP1 SSTORE PUSH1 0x5 DUP3 ADD PUSH1 0x0 PUSH2 0x100 EXP DUP2 SLOAD SWAP1 PUSH1 0xFF MUL NOT AND SWAP1 SSTORE POP POP DUP3 PUSH20 0xFFFFFFFFFFFFFFFFFFFFFFFFFFFFFFFFFFFFFFFF AND DUP5 PUSH32 0x72FFC2A266ACBA5F77E2B49400103CB61B428F37A97057EBE671E83FDDD71E67 DUP5 PUSH1 0x0 ADD MLOAD TIMESTAMP PUSH1 0x40 MLOAD PUSH2 0x807 SWAP3 SWAP2 SWAP1 PUSH2 0x23D4 JUMP JUMPDEST PUSH1 0x40 MLOAD DUP1 SWAP2 SUB SWAP1 LOG3 POP POP POP POP JUMP JUMPDEST PUSH2 0x81D PUSH2 0x1895 JUMP JUMPDEST PUSH20 0xFFFFFFFFFFFFFFFFFFFFFFFFFFFFFFFFFFFFFFFF AND PUSH2 0x83B PUSH2 0x10DE JUMP JUMPDEST PUSH20 0xFFFFFFFFFFFFFFFFFFFFFFFFFFFFFFFFFFFFFFFF AND EQ PUSH2 0x891 JUMPI PUSH1 0x40 MLOAD PUSH32 0x8C379A000000000000000000000000000000000000000000000000000000000 DUP2 MSTORE PUSH1 0x4 ADD PUSH2 0x888 SWAP1 PUSH2 0x2449 JUMP JUMPDEST PUSH1 0x40 MLOAD DUP1 SWAP2 SUB SWAP1 REVERT JUMPDEST DUP1 PUSH1 0x5 PUSH1 0x0 PUSH2 0x100 EXP DUP2 SLOAD DUP2 PUSH20 0xFFFFFFFFFFFFFFFFFFFFFFFFFFFFFFFFFFFFFFFF MUL NOT AND SWAP1 DUP4 PUSH20 0xFFFFFFFFFFFFFFFFFFFFFFFFFFFFFFFFFFFFFFFF AND MUL OR SWAP1 SSTORE POP POP JUMP JUMPDEST PUSH2 0x8DD PUSH2 0x1895 JUMP JUMPDEST PUSH20 0xFFFFFFFFFFFFFFFFFFFFFFFFFFFFFFFFFFFFFFFF AND PUSH2 0x8FB PUSH2 0x10DE JUMP JUMPDEST PUSH20 0xFFFFFFFFFFFFFFFFFFFFFFFFFFFFFFFFFFFFFFFF AND EQ PUSH2 0x951 JUMPI PUSH1 0x40 MLOAD PUSH32 0x8C379A000000000000000000000000000000000000000000000000000000000 DUP2 MSTORE PUSH1 0x4 ADD PUSH2 0x948 SWAP1 PUSH2 0x2449 JUMP JUMPDEST PUSH1 0x40 MLOAD DUP1 SWAP2 SUB SWAP1 REVERT JUMPDEST DUP1 PUSH1 0x3 PUSH1 0x0 PUSH2 0x100 EXP DUP2 SLOAD DUP2 PUSH20 0xFFFFFFFFFFFFFFFFFFFFFFFFFFFFFFFFFFFFFFFF MUL NOT AND SWAP1 DUP4 PUSH20 0xFFFFFFFFFFFFFFFFFFFFFFFFFFFFFFFFFFFFFFFF AND MUL OR SWAP1 SSTORE POP POP JUMP JUMPDEST PUSH4 0x80AC58CD PUSH1 0xE0 SHL DUP2 JUMP JUMPDEST PUSH1 0x0 DUP2 GT PUSH2 0x9E3 JUMPI PUSH1 0x40 MLOAD PUSH32 0x8C379A000000000000000000000000000000000000000000000000000000000 DUP2 MSTORE PUSH1 0x4 ADD PUSH2 0x9DA SWAP1 PUSH2 0x24B5 JUMP JUMPDEST PUSH1 0x40 MLOAD DUP1 SWAP2 SUB SWAP1 REVERT JUMPDEST PUSH1 0x0 PUSH1 0x4 PUSH1 0x0 SWAP1 SLOAD SWAP1 PUSH2 0x100 EXP SWAP1 DIV PUSH20 0xFFFFFFFFFFFFFFFFFFFFFFFFFFFFFFFFFFFFFFFF AND PUSH20 0xFFFFFFFFFFFFFFFFFFFFFFFFFFFFFFFFFFFFFFFF AND PUSH4 0x3CE1CB5 DUP5 PUSH1 0x40 MLOAD DUP3 PUSH4 0xFFFFFFFF AND PUSH1 0xE0 SHL DUP2 MSTORE PUSH1 0x4 ADD PUSH2 0xA40 SWAP2 SWAP1 PUSH2 0x24D5 JUMP JUMPDEST PUSH1 0x0 PUSH1 0x40 MLOAD DUP1 DUP4 SUB DUP2 DUP7 GAS STATICCALL ISZERO DUP1 ISZERO PUSH2 0xA5D JUMPI RETURNDATASIZE PUSH1 0x0 DUP1 RETURNDATACOPY RETURNDATASIZE PUSH1 0x0 REVERT JUMPDEST POP POP POP POP PUSH1 0x40 MLOAD RETURNDATASIZE PUSH1 0x0 DUP3 RETURNDATACOPY RETURNDATASIZE PUSH1 0x1F NOT PUSH1 0x1F DUP3 ADD AND DUP3 ADD DUP1 PUSH1 0x40 MSTORE POP DUP2 ADD SWAP1 PUSH2 0xA86 SWAP2 SWAP1 PUSH2 0x278A JUMP JUMPDEST SWAP1 POP PUSH1 0x0 ISZERO ISZERO DUP2 PUSH1 0x80 ADD MLOAD ISZERO ISZERO EQ PUSH2 0xAD3 JUMPI PUSH1 0x40 MLOAD PUSH32 0x8C379A000000000000000000000000000000000000000000000000000000000 DUP2 MSTORE PUSH1 0x4 ADD PUSH2 0xACA SWAP1 PUSH2 0x281F JUMP JUMPDEST PUSH1 0x40 MLOAD DUP1 SWAP2 SUB SWAP1 REVERT JUMPDEST PUSH1 0x0 PUSH2 0xADF PUSH1 0x7 PUSH2 0x189D JUMP JUMPDEST SWAP1 POP PUSH1 0x40 MLOAD DUP1 PUSH1 0xC0 ADD PUSH1 0x40 MSTORE DUP1 DUP3 DUP2 MSTORE PUSH1 0x20 ADD DUP6 DUP2 MSTORE PUSH1 0x20 ADD CALLER PUSH20 0xFFFFFFFFFFFFFFFFFFFFFFFFFFFFFFFFFFFFFFFF AND DUP2 MSTORE PUSH1 0x20 ADD ADDRESS PUSH20 0xFFFFFFFFFFFFFFFFFFFFFFFFFFFFFFFFFFFFFFFF AND DUP2 MSTORE PUSH1 0x20 ADD DUP5 DUP2 MSTORE PUSH1 0x20 ADD PUSH1 0x1 DUP1 DUP2 GT ISZERO PUSH2 0xB49 JUMPI PUSH2 0xB48 PUSH2 0x1E57 JUMP JUMPDEST JUMPDEST DUP2 MSTORE POP PUSH1 0x9 PUSH1 0x0 DUP4 DUP2 MSTORE PUSH1 0x20 ADD SWAP1 DUP2 MSTORE PUSH1 0x20 ADD PUSH1 0x0 KECCAK256 PUSH1 0x0 DUP3 ADD MLOAD DUP2 PUSH1 0x0 ADD SSTORE PUSH1 0x20 DUP3 ADD MLOAD DUP2 PUSH1 0x1 ADD SSTORE PUSH1 0x40 DUP3 ADD MLOAD DUP2 PUSH1 0x2 ADD PUSH1 0x0 PUSH2 0x100 EXP DUP2 SLOAD DUP2 PUSH20 0xFFFFFFFFFFFFFFFFFFFFFFFFFFFFFFFFFFFFFFFF MUL NOT AND SWAP1 DUP4 PUSH20 0xFFFFFFFFFFFFFFFFFFFFFFFFFFFFFFFFFFFFFFFF AND MUL OR SWAP1 SSTORE POP PUSH1 0x60 DUP3 ADD MLOAD DUP2 PUSH1 0x3 ADD PUSH1 0x0 PUSH2 0x100 EXP DUP2 SLOAD DUP2 PUSH20 0xFFFFFFFFFFFFFFFFFFFFFFFFFFFFFFFFFFFFFFFF MUL NOT AND SWAP1 DUP4 PUSH20 0xFFFFFFFFFFFFFFFFFFFFFFFFFFFFFFFFFFFFFFFF AND MUL OR SWAP1 SSTORE POP PUSH1 0x80 DUP3 ADD MLOAD DUP2 PUSH1 0x4 ADD SSTORE PUSH1 0xA0 DUP3 ADD MLOAD DUP2 PUSH1 0x5 ADD PUSH1 0x0 PUSH2 0x100 EXP DUP2 SLOAD DUP2 PUSH1 0xFF MUL NOT AND SWAP1 DUP4 PUSH1 0x1 DUP2 GT ISZERO PUSH2 0xC36 JUMPI PUSH2 0xC35 PUSH2 0x1E57 JUMP JUMPDEST JUMPDEST MUL OR SWAP1 SSTORE POP SWAP1 POP POP PUSH2 0xC48 PUSH1 0x7 PUSH2 0x18AB JUMP JUMPDEST DUP4 DUP2 PUSH32 0x38690A554FFBC44EB6A75016E47D517D0DB8E6C37494ADC68D6D0B2C66F0AB21 CALLER ADDRESS DUP8 PUSH1 0x40 MLOAD PUSH2 0xC7D SWAP4 SWAP3 SWAP2 SWAP1 PUSH2 0x239D JUMP JUMPDEST PUSH1 0x40 MLOAD DUP1 SWAP2 SUB SWAP1 LOG3 POP POP POP POP JUMP JUMPDEST PUSH1 0x3 PUSH1 0x0 SWAP1 SLOAD SWAP1 PUSH2 0x100 EXP SWAP1 DIV PUSH20 0xFFFFFFFFFFFFFFFFFFFFFFFFFFFFFFFFFFFFFFFF AND DUP2 JUMP JUMPDEST PUSH1 0x60 PUSH1 0x0 PUSH2 0xCBF PUSH1 0x7 PUSH2 0x189D JUMP JUMPDEST SWAP1 POP PUSH1 0x0 DUP1 PUSH1 0x0 JUMPDEST DUP4 DUP2 LT ISZERO PUSH2 0xD40 JUMPI PUSH1 0x1 DUP1 DUP2 GT ISZERO PUSH2 0xCE2 JUMPI PUSH2 0xCE1 PUSH2 0x1E57 JUMP JUMPDEST JUMPDEST PUSH1 0x9 PUSH1 0x0 DUP4 DUP2 MSTORE PUSH1 0x20 ADD SWAP1 DUP2 MSTORE PUSH1 0x20 ADD PUSH1 0x0 KECCAK256 PUSH1 0x5 ADD PUSH1 0x0 SWAP1 SLOAD SWAP1 PUSH2 0x100 EXP SWAP1 DIV PUSH1 0xFF AND PUSH1 0x1 DUP2 GT ISZERO PUSH2 0xD18 JUMPI PUSH2 0xD17 PUSH2 0x1E57 JUMP JUMPDEST JUMPDEST SUB PUSH2 0xD2D JUMPI PUSH1 0x1 DUP4 PUSH2 0xD2A SWAP2 SWAP1 PUSH2 0x286E JUMP JUMPDEST SWAP3 POP JUMPDEST DUP1 DUP1 PUSH2 0xD38 SWAP1 PUSH2 0x28C4 JUMP JUMPDEST SWAP2 POP POP PUSH2 0xCC7 JUMP JUMPDEST POP PUSH1 0x0 DUP3 PUSH8 0xFFFFFFFFFFFFFFFF DUP2 GT ISZERO PUSH2 0xD5D JUMPI PUSH2 0xD5C PUSH2 0x2506 JUMP JUMPDEST JUMPDEST PUSH1 0x40 MLOAD SWAP1 DUP1 DUP3 MSTORE DUP1 PUSH1 0x20 MUL PUSH1 0x20 ADD DUP3 ADD PUSH1 0x40 MSTORE DUP1 ISZERO PUSH2 0xD96 JUMPI DUP2 PUSH1 0x20 ADD JUMPDEST PUSH2 0xD83 PUSH2 0x1B87 JUMP JUMPDEST DUP2 MSTORE PUSH1 0x20 ADD SWAP1 PUSH1 0x1 SWAP1 SUB SWAP1 DUP2 PUSH2 0xD7B JUMPI SWAP1 POP JUMPDEST POP SWAP1 POP PUSH1 0x0 JUMPDEST DUP5 DUP2 LT ISZERO PUSH2 0xF78 JUMPI PUSH1 0x1 DUP1 DUP2 GT ISZERO PUSH2 0xDB7 JUMPI PUSH2 0xDB6 PUSH2 0x1E57 JUMP JUMPDEST JUMPDEST PUSH1 0x9 PUSH1 0x0 DUP4 DUP2 MSTORE PUSH1 0x20 ADD SWAP1 DUP2 MSTORE PUSH1 0x20 ADD PUSH1 0x0 KECCAK256 PUSH1 0x5 ADD PUSH1 0x0 SWAP1 SLOAD SWAP1 PUSH2 0x100 EXP SWAP1 DIV PUSH1 0xFF AND PUSH1 0x1 DUP2 GT ISZERO PUSH2 0xDED JUMPI PUSH2 0xDEC PUSH2 0x1E57 JUMP JUMPDEST JUMPDEST SUB PUSH2 0xF65 JUMPI PUSH1 0x0 PUSH1 0x9 PUSH1 0x0 DUP4 DUP2 MSTORE PUSH1 0x20 ADD SWAP1 DUP2 MSTORE PUSH1 0x20 ADD PUSH1 0x0 KECCAK256 PUSH1 0x0 ADD SLOAD SWAP1 POP PUSH1 0x0 PUSH1 0x9 PUSH1 0x0 DUP4 DUP2 MSTORE PUSH1 0x20 ADD SWAP1 DUP2 MSTORE PUSH1 0x20 ADD PUSH1 0x0 KECCAK256 SWAP1 POP DUP1 PUSH1 0x40 MLOAD DUP1 PUSH1 0xC0 ADD PUSH1 0x40 MSTORE SWAP1 DUP2 PUSH1 0x0 DUP3 ADD SLOAD DUP2 MSTORE PUSH1 0x20 ADD PUSH1 0x1 DUP3 ADD SLOAD DUP2 MSTORE PUSH1 0x20 ADD PUSH1 0x2 DUP3 ADD PUSH1 0x0 SWAP1 SLOAD SWAP1 PUSH2 0x100 EXP SWAP1 DIV PUSH20 0xFFFFFFFFFFFFFFFFFFFFFFFFFFFFFFFFFFFFFFFF AND PUSH20 0xFFFFFFFFFFFFFFFFFFFFFFFFFFFFFFFFFFFFFFFF AND PUSH20 0xFFFFFFFFFFFFFFFFFFFFFFFFFFFFFFFFFFFFFFFF AND DUP2 MSTORE PUSH1 0x20 ADD PUSH1 0x3 DUP3 ADD PUSH1 0x0 SWAP1 SLOAD SWAP1 PUSH2 0x100 EXP SWAP1 DIV PUSH20 0xFFFFFFFFFFFFFFFFFFFFFFFFFFFFFFFFFFFFFFFF AND PUSH20 0xFFFFFFFFFFFFFFFFFFFFFFFFFFFFFFFFFFFFFFFF AND PUSH20 0xFFFFFFFFFFFFFFFFFFFFFFFFFFFFFFFFFFFFFFFF AND DUP2 MSTORE PUSH1 0x20 ADD PUSH1 0x4 DUP3 ADD SLOAD DUP2 MSTORE PUSH1 0x20 ADD PUSH1 0x5 DUP3 ADD PUSH1 0x0 SWAP1 SLOAD SWAP1 PUSH2 0x100 EXP SWAP1 DIV PUSH1 0xFF AND PUSH1 0x1 DUP2 GT ISZERO PUSH2 0xF1F JUMPI PUSH2 0xF1E PUSH2 0x1E57 JUMP JUMPDEST JUMPDEST PUSH1 0x1 DUP2 GT ISZERO PUSH2 0xF31 JUMPI PUSH2 0xF30 PUSH2 0x1E57 JUMP JUMPDEST JUMPDEST DUP2 MSTORE POP POP DUP5 DUP7 DUP2 MLOAD DUP2 LT PUSH2 0xF48 JUMPI PUSH2 0xF47 PUSH2 0x290C JUMP JUMPDEST JUMPDEST PUSH1 0x20 MUL PUSH1 0x20 ADD ADD DUP2 SWAP1 MSTORE POP PUSH1 0x1 DUP6 PUSH2 0xF60 SWAP2 SWAP1 PUSH2 0x286E JUMP JUMPDEST SWAP5 POP POP POP JUMPDEST DUP1 DUP1 PUSH2 0xF70 SWAP1 PUSH2 0x28C4 JUMP JUMPDEST SWAP2 POP POP PUSH2 0xD9C JUMP JUMPDEST POP DUP1 SWAP5 POP POP POP POP POP SWAP1 JUMP JUMPDEST PUSH2 0xF8B PUSH2 0x1895 JUMP JUMPDEST PUSH20 0xFFFFFFFFFFFFFFFFFFFFFFFFFFFFFFFFFFFFFFFF AND PUSH2 0xFA9 PUSH2 0x10DE JUMP JUMPDEST PUSH20 0xFFFFFFFFFFFFFFFFFFFFFFFFFFFFFFFFFFFFFFFF AND EQ PUSH2 0xFFF JUMPI PUSH1 0x40 MLOAD PUSH32 0x8C379A000000000000000000000000000000000000000000000000000000000 DUP2 MSTORE PUSH1 0x4 ADD PUSH2 0xFF6 SWAP1 PUSH2 0x2449 JUMP JUMPDEST PUSH1 0x40 MLOAD DUP1 SWAP2 SUB SWAP1 REVERT JUMPDEST DUP1 PUSH1 0x4 PUSH1 0x0 PUSH2 0x100 EXP DUP2 SLOAD DUP2 PUSH20 0xFFFFFFFFFFFFFFFFFFFFFFFFFFFFFFFFFFFFFFFF MUL NOT AND SWAP1 DUP4 PUSH20 0xFFFFFFFFFFFFFFFFFFFFFFFFFFFFFFFFFFFFFFFF AND MUL OR SWAP1 SSTORE POP POP JUMP JUMPDEST PUSH2 0x104B PUSH2 0x1895 JUMP JUMPDEST PUSH20 0xFFFFFFFFFFFFFFFFFFFFFFFFFFFFFFFFFFFFFFFF AND PUSH2 0x1069 PUSH2 0x10DE JUMP JUMPDEST PUSH20 0xFFFFFFFFFFFFFFFFFFFFFFFFFFFFFFFFFFFFFFFF AND EQ PUSH2 0x10BF JUMPI PUSH1 0x40 MLOAD PUSH32 0x8C379A000000000000000000000000000000000000000000000000000000000 DUP2 MSTORE PUSH1 0x4 ADD PUSH2 0x10B6 SWAP1 PUSH2 0x2449 JUMP JUMPDEST PUSH1 0x40 MLOAD DUP1 SWAP2 SUB SWAP1 REVERT JUMPDEST PUSH2 0x10C9 PUSH1 0x0 PUSH2 0x18C1 JUMP JUMPDEST JUMP JUMPDEST PUSH1 0x5 PUSH1 0x14 SWAP1 SLOAD SWAP1 PUSH2 0x100 EXP SWAP1 DIV PUSH1 0xFF AND DUP2 JUMP JUMPDEST PUSH1 0x0 PUSH1 0x6 PUSH1 0x0 SWAP1 SLOAD SWAP1 PUSH2 0x100 EXP SWAP1 DIV PUSH20 0xFFFFFFFFFFFFFFFFFFFFFFFFFFFFFFFFFFFFFFFF AND SWAP1 POP SWAP1 JUMP JUMPDEST PUSH1 0x0 PUSH1 0x9 PUSH1 0x0 DUP5 DUP2 MSTORE PUSH1 0x20 ADD SWAP1 DUP2 MSTORE PUSH1 0x20 ADD PUSH1 0x0 KECCAK256 PUSH1 0x4 ADD SLOAD SWAP1 POP PUSH1 0x0 PUSH1 0x9 PUSH1 0x0 DUP6 DUP2 MSTORE PUSH1 0x20 ADD SWAP1 DUP2 MSTORE PUSH1 0x20 ADD PUSH1 0x0 KECCAK256 PUSH1 0x1 ADD SLOAD SWAP1 POP PUSH1 0x0 PUSH1 0x9 PUSH1 0x0 DUP7 DUP2 MSTORE PUSH1 0x20 ADD SWAP1 DUP2 MSTORE PUSH1 0x20 ADD PUSH1 0x0 KECCAK256 PUSH1 0x2 ADD PUSH1 0x0 SWAP1 SLOAD SWAP1 PUSH2 0x100 EXP SWAP1 DIV PUSH20 0xFFFFFFFFFFFFFFFFFFFFFFFFFFFFFFFFFFFFFFFF AND SWAP1 POP PUSH1 0x0 PUSH1 0x4 PUSH1 0x0 SWAP1 SLOAD SWAP1 PUSH2 0x100 EXP SWAP1 DIV PUSH20 0xFFFFFFFFFFFFFFFFFFFFFFFFFFFFFFFFFFFFFFFF AND PUSH20 0xFFFFFFFFFFFFFFFFFFFFFFFFFFFFFFFFFFFFFFFF AND PUSH4 0x3CE1CB5 DUP5 PUSH1 0x40 MLOAD DUP3 PUSH4 0xFFFFFFFF AND PUSH1 0xE0 SHL DUP2 MSTORE PUSH1 0x4 ADD PUSH2 0x11D6 SWAP2 SWAP1 PUSH2 0x24D5 JUMP JUMPDEST PUSH1 0x0 PUSH1 0x40 MLOAD DUP1 DUP4 SUB DUP2 DUP7 GAS STATICCALL ISZERO DUP1 ISZERO PUSH2 0x11F3 JUMPI RETURNDATASIZE PUSH1 0x0 DUP1 RETURNDATACOPY RETURNDATASIZE PUSH1 0x0 REVERT JUMPDEST POP POP POP POP PUSH1 0x40 MLOAD RETURNDATASIZE PUSH1 0x0 DUP3 RETURNDATACOPY RETURNDATASIZE PUSH1 0x1F NOT PUSH1 0x1F DUP3 ADD AND DUP3 ADD DUP1 PUSH1 0x40 MSTORE POP DUP2 ADD SWAP1 PUSH2 0x121C SWAP2 SWAP1 PUSH2 0x278A JUMP JUMPDEST SWAP1 POP DUP4 DUP6 EQ PUSH2 0x1260 JUMPI PUSH1 0x40 MLOAD PUSH32 0x8C379A000000000000000000000000000000000000000000000000000000000 DUP2 MSTORE PUSH1 0x4 ADD PUSH2 0x1257 SWAP1 PUSH2 0x29AD JUMP JUMPDEST PUSH1 0x40 MLOAD DUP1 SWAP2 SUB SWAP1 REVERT JUMPDEST PUSH1 0x0 ISZERO ISZERO DUP2 PUSH1 0x80 ADD MLOAD ISZERO ISZERO EQ PUSH2 0x12AB JUMPI PUSH1 0x40 MLOAD PUSH32 0x8C379A000000000000000000000000000000000000000000000000000000000 DUP2 MSTORE PUSH1 0x4 ADD PUSH2 0x12A2 SWAP1 PUSH2 0x281F JUMP JUMPDEST PUSH1 0x40 MLOAD DUP1 SWAP2 SUB SWAP1 REVERT JUMPDEST PUSH2 0x12B6 DUP7 DUP7 DUP6 PUSH2 0x1987 JUMP JUMPDEST CALLER PUSH1 0x9 PUSH1 0x0 DUP9 DUP2 MSTORE PUSH1 0x20 ADD SWAP1 DUP2 MSTORE PUSH1 0x20 ADD PUSH1 0x0 KECCAK256 PUSH1 0x3 ADD PUSH1 0x0 PUSH2 0x100 EXP DUP2 SLOAD DUP2 PUSH20 0xFFFFFFFFFFFFFFFFFFFFFFFFFFFFFFFFFFFFFFFF MUL NOT AND SWAP1 DUP4 PUSH20 0xFFFFFFFFFFFFFFFFFFFFFFFFFFFFFFFFFFFFFFFF AND MUL OR SWAP1 SSTORE POP PUSH1 0x0 PUSH1 0x9 PUSH1 0x0 DUP9 DUP2 MSTORE PUSH1 0x20 ADD SWAP1 DUP2 MSTORE PUSH1 0x20 ADD PUSH1 0x0 KECCAK256 PUSH1 0x5 ADD PUSH1 0x0 PUSH2 0x100 EXP DUP2 SLOAD DUP2 PUSH1 0xFF MUL NOT AND SWAP1 DUP4 PUSH1 0x1 DUP2 GT ISZERO PUSH2 0x1345 JUMPI PUSH2 0x1344 PUSH2 0x1E57 JUMP JUMPDEST JUMPDEST MUL OR SWAP1 SSTORE POP PUSH2 0x1354 PUSH1 0x8 PUSH2 0x18AB JUMP JUMPDEST CALLER PUSH20 0xFFFFFFFFFFFFFFFFFFFFFFFFFFFFFFFFFFFFFFFF AND DUP3 PUSH20 0xFFFFFFFFFFFFFFFFFFFFFFFFFFFFFFFFFFFFFFFF AND DUP5 PUSH32 0x551327AEE12D0A8B3EDE8D0E3182A40A5FF3ED9F1811DD622915DB30B609B7DF DUP10 DUP9 TIMESTAMP PUSH1 0x40 MLOAD PUSH2 0x13B6 SWAP4 SWAP3 SWAP2 SWAP1 PUSH2 0x2A19 JUMP JUMPDEST PUSH1 0x40 MLOAD DUP1 SWAP2 SUB SWAP1 LOG4 POP POP POP POP POP POP JUMP JUMPDEST PUSH1 0x5 PUSH1 0x15 SWAP1 SLOAD SWAP1 PUSH2 0x100 EXP SWAP1 DIV PUSH1 0xFF AND DUP2 JUMP JUMPDEST PUSH1 0x1 DUP2 DUP2 SLOAD DUP2 LT PUSH2 0x13E9 JUMPI PUSH1 0x0 DUP1 REVERT JUMPDEST SWAP1 PUSH1 0x0 MSTORE PUSH1 0x20 PUSH1 0x0 KECCAK256 SWAP1 PUSH1 0x6 MUL ADD PUSH1 0x0 SWAP2 POP SWAP1 POP DUP1 PUSH1 0x0 ADD SLOAD SWAP1 DUP1 PUSH1 0x1 ADD SLOAD SWAP1 DUP1 PUSH1 0x2 ADD PUSH1 0x0 SWAP1 SLOAD SWAP1 PUSH2 0x100 EXP SWAP1 DIV PUSH20 0xFFFFFFFFFFFFFFFFFFFFFFFFFFFFFFFFFFFFFFFF AND SWAP1 DUP1 PUSH1 0x3 ADD PUSH1 0x0 SWAP1 SLOAD SWAP1 PUSH2 0x100 EXP SWAP1 DIV PUSH20 0xFFFFFFFFFFFFFFFFFFFFFFFFFFFFFFFFFFFFFFFF AND SWAP1 DUP1 PUSH1 0x4 ADD SLOAD SWAP1 DUP1 PUSH1 0x5 ADD PUSH1 0x0 SWAP1 SLOAD SWAP1 PUSH2 0x100 EXP SWAP1 DIV PUSH1 0xFF AND SWAP1 POP DUP7 JUMP JUMPDEST PUSH1 0x4 PUSH1 0x0 SWAP1 SLOAD SWAP1 PUSH2 0x100 EXP SWAP1 DIV PUSH20 0xFFFFFFFFFFFFFFFFFFFFFFFFFFFFFFFFFFFFFFFF AND DUP2 JUMP JUMPDEST PUSH2 0x14A0 PUSH2 0x1B87 JUMP JUMPDEST PUSH1 0x9 PUSH1 0x0 DUP4 DUP2 MSTORE PUSH1 0x20 ADD SWAP1 DUP2 MSTORE PUSH1 0x20 ADD PUSH1 0x0 KECCAK256 PUSH1 0x40 MLOAD DUP1 PUSH1 0xC0 ADD PUSH1 0x40 MSTORE SWAP1 DUP2 PUSH1 0x0 DUP3 ADD SLOAD DUP2 MSTORE PUSH1 0x20 ADD PUSH1 0x1 DUP3 ADD SLOAD DUP2 MSTORE PUSH1 0x20 ADD PUSH1 0x2 DUP3 ADD PUSH1 0x0 SWAP1 SLOAD SWAP1 PUSH2 0x100 EXP SWAP1 DIV PUSH20 0xFFFFFFFFFFFFFFFFFFFFFFFFFFFFFFFFFFFFFFFF AND PUSH20 0xFFFFFFFFFFFFFFFFFFFFFFFFFFFFFFFFFFFFFFFF AND PUSH20 0xFFFFFFFFFFFFFFFFFFFFFFFFFFFFFFFFFFFFFFFF AND DUP2 MSTORE PUSH1 0x20 ADD PUSH1 0x3 DUP3 ADD PUSH1 0x0 SWAP1 SLOAD SWAP1 PUSH2 0x100 EXP SWAP1 DIV PUSH20 0xFFFFFFFFFFFFFFFFFFFFFFFFFFFFFFFFFFFFFFFF AND PUSH20 0xFFFFFFFFFFFFFFFFFFFFFFFFFFFFFFFFFFFFFFFF AND PUSH20 0xFFFFFFFFFFFFFFFFFFFFFFFFFFFFFFFFFFFFFFFF AND DUP2 MSTORE PUSH1 0x20 ADD PUSH1 0x4 DUP3 ADD SLOAD DUP2 MSTORE PUSH1 0x20 ADD PUSH1 0x5 DUP3 ADD PUSH1 0x0 SWAP1 SLOAD SWAP1 PUSH2 0x100 EXP SWAP1 DIV PUSH1 0xFF AND PUSH1 0x1 DUP2 GT ISZERO PUSH2 0x15AD JUMPI PUSH2 0x15AC PUSH2 0x1E57 JUMP JUMPDEST JUMPDEST PUSH1 0x1 DUP2 GT ISZERO PUSH2 0x15BF JUMPI PUSH2 0x15BE PUSH2 0x1E57 JUMP JUMPDEST JUMPDEST DUP2 MSTORE POP POP SWAP1 POP SWAP2 SWAP1 POP JUMP JUMPDEST PUSH1 0x4 PUSH1 0x0 SWAP1 SLOAD SWAP1 PUSH2 0x100 EXP SWAP1 DIV PUSH20 0xFFFFFFFFFFFFFFFFFFFFFFFFFFFFFFFFFFFFFFFF AND PUSH20 0xFFFFFFFFFFFFFFFFFFFFFFFFFFFFFFFFFFFFFFFF AND PUSH4 0xC1E9518A CALLER ADDRESS DUP5 PUSH1 0x40 MLOAD DUP5 PUSH4 0xFFFFFFFF AND PUSH1 0xE0 SHL DUP2 MSTORE PUSH1 0x4 ADD PUSH2 0x1629 SWAP4 SWAP3 SWAP2 SWAP1 PUSH2 0x2A84 JUMP JUMPDEST PUSH1 0x0 PUSH1 0x40 MLOAD DUP1 DUP4 SUB DUP2 PUSH1 0x0 DUP8 DUP1 EXTCODESIZE ISZERO DUP1 ISZERO PUSH2 0x1643 JUMPI PUSH1 0x0 DUP1 REVERT JUMPDEST POP GAS CALL ISZERO DUP1 ISZERO PUSH2 0x1657 JUMPI RETURNDATASIZE PUSH1 0x0 DUP1 RETURNDATACOPY RETURNDATASIZE PUSH1 0x0 REVERT JUMPDEST POP POP POP POP PUSH1 0x5 PUSH1 0x0 SWAP1 SLOAD SWAP1 PUSH2 0x100 EXP SWAP1 DIV PUSH20 0xFFFFFFFFFFFFFFFFFFFFFFFFFFFFFFFFFFFFFFFF AND PUSH20 0xFFFFFFFFFFFFFFFFFFFFFFFFFFFFFFFFFFFFFFFF AND PUSH4 0x23B872DD CALLER ADDRESS DUP5 PUSH1 0x40 MLOAD DUP5 PUSH4 0xFFFFFFFF AND PUSH1 0xE0 SHL DUP2 MSTORE PUSH1 0x4 ADD PUSH2 0x16BA SWAP4 SWAP3 SWAP2 SWAP1 PUSH2 0x239D JUMP JUMPDEST PUSH1 0x0 PUSH1 0x40 MLOAD DUP1 DUP4 SUB DUP2 PUSH1 0x0 DUP8 DUP1 EXTCODESIZE ISZERO DUP1 ISZERO PUSH2 0x16D4 JUMPI PUSH1 0x0 DUP1 REVERT JUMPDEST POP GAS CALL ISZERO DUP1 ISZERO PUSH2 0x16E8 JUMPI RETURNDATASIZE PUSH1 0x0 DUP1 RETURNDATACOPY RETURNDATASIZE PUSH1 0x0 REVERT JUMPDEST POP POP POP POP POP JUMP JUMPDEST PUSH2 0x16F7 PUSH2 0x1895 JUMP JUMPDEST PUSH20 0xFFFFFFFFFFFFFFFFFFFFFFFFFFFFFFFFFFFFFFFF AND PUSH2 0x1715 PUSH2 0x10DE JUMP JUMPDEST PUSH20 0xFFFFFFFFFFFFFFFFFFFFFFFFFFFFFFFFFFFFFFFF AND EQ PUSH2 0x176B JUMPI PUSH1 0x40 MLOAD PUSH32 0x8C379A000000000000000000000000000000000000000000000000000000000 DUP2 MSTORE PUSH1 0x4 ADD PUSH2 0x1762 SWAP1 PUSH2 0x2449 JUMP JUMPDEST PUSH1 0x40 MLOAD DUP1 SWAP2 SUB SWAP1 REVERT JUMPDEST PUSH1 0x0 PUSH20 0xFFFFFFFFFFFFFFFFFFFFFFFFFFFFFFFFFFFFFFFF AND DUP2 PUSH20 0xFFFFFFFFFFFFFFFFFFFFFFFFFFFFFFFFFFFFFFFF AND SUB PUSH2 0x17DA JUMPI PUSH1 0x40 MLOAD PUSH32 0x8C379A000000000000000000000000000000000000000000000000000000000 DUP2 MSTORE PUSH1 0x4 ADD PUSH2 0x17D1 SWAP1 PUSH2 0x2B2D JUMP JUMPDEST PUSH1 0x40 MLOAD DUP1 SWAP2 SUB SWAP1 REVERT JUMPDEST PUSH2 0x17E3 DUP2 PUSH2 0x18C1 JUMP JUMPDEST POP JUMP JUMPDEST PUSH1 0x5 PUSH1 0x0 SWAP1 SLOAD SWAP1 PUSH2 0x100 EXP SWAP1 DIV PUSH20 0xFFFFFFFFFFFFFFFFFFFFFFFFFFFFFFFFFFFFFFFF AND DUP2 JUMP JUMPDEST PUSH1 0x2 PUSH1 0x20 MSTORE DUP1 PUSH1 0x0 MSTORE PUSH1 0x40 PUSH1 0x0 KECCAK256 PUSH1 0x0 SWAP2 POP SWAP1 POP DUP1 PUSH1 0x0 ADD SLOAD SWAP1 DUP1 PUSH1 0x1 ADD SLOAD SWAP1 DUP1 PUSH1 0x2 ADD PUSH1 0x0 SWAP1 SLOAD SWAP1 PUSH2 0x100 EXP SWAP1 DIV PUSH20 0xFFFFFFFFFFFFFFFFFFFFFFFFFFFFFFFFFFFFFFFF AND SWAP1 DUP1 PUSH1 0x3 ADD PUSH1 0x0 SWAP1 SLOAD SWAP1 PUSH2 0x100 EXP SWAP1 DIV PUSH20 0xFFFFFFFFFFFFFFFFFFFFFFFFFFFFFFFFFFFFFFFF AND SWAP1 DUP1 PUSH1 0x4 ADD SLOAD SWAP1 DUP1 PUSH1 0x5 ADD PUSH1 0x0 SWAP1 SLOAD SWAP1 PUSH2 0x100 EXP SWAP1 DIV PUSH1 0xFF AND SWAP1 POP DUP7 JUMP JUMPDEST PUSH1 0x0 CALLER SWAP1 POP SWAP1 JUMP JUMPDEST PUSH1 0x0 DUP2 PUSH1 0x0 ADD SLOAD SWAP1 POP SWAP2 SWAP1 POP JUMP JUMPDEST PUSH1 0x1 DUP2 PUSH1 0x0 ADD PUSH1 0x0 DUP3 DUP3 SLOAD ADD SWAP3 POP POP DUP2 SWAP1 SSTORE POP POP JUMP JUMPDEST PUSH1 0x0 PUSH1 0x6 PUSH1 0x0 SWAP1 SLOAD SWAP1 PUSH2 0x100 EXP SWAP1 DIV PUSH20 0xFFFFFFFFFFFFFFFFFFFFFFFFFFFFFFFFFFFFFFFF AND SWAP1 POP DUP2 PUSH1 0x6 PUSH1 0x0 PUSH2 0x100 EXP DUP2 SLOAD DUP2 PUSH20 0xFFFFFFFFFFFFFFFFFFFFFFFFFFFFFFFFFFFFFFFF MUL NOT AND SWAP1 DUP4 PUSH20 0xFFFFFFFFFFFFFFFFFFFFFFFFFFFFFFFFFFFFFFFF AND MUL OR SWAP1 SSTORE POP DUP2 PUSH20 0xFFFFFFFFFFFFFFFFFFFFFFFFFFFFFFFFFFFFFFFF AND DUP2 PUSH20 0xFFFFFFFFFFFFFFFFFFFFFFFFFFFFFFFFFFFFFFFF AND PUSH32 0x8BE0079C531659141344CD1FD0A4F28419497F9722A3DAAFE3B4186F6B6457E0 PUSH1 0x40 MLOAD PUSH1 0x40 MLOAD DUP1 SWAP2 SUB SWAP1 LOG3 POP POP JUMP JUMPDEST PUSH1 0x3 PUSH1 0x0 SWAP1 SLOAD SWAP1 PUSH2 0x100 EXP SWAP1 DIV PUSH20 0xFFFFFFFFFFFFFFFFFFFFFFFFFFFFFFFFFFFFFFFF AND PUSH20 0xFFFFFFFFFFFFFFFFFFFFFFFFFFFFFFFFFFFFFFFF AND PUSH4 0x23B872DD CALLER PUSH1 0x9 PUSH1 0x0 DUP8 DUP2 MSTORE PUSH1 0x20 ADD SWAP1 DUP2 MSTORE PUSH1 0x20 ADD PUSH1 0x0 KECCAK256 PUSH1 0x2 ADD PUSH1 0x0 SWAP1 SLOAD SWAP1 PUSH2 0x100 EXP SWAP1 DIV PUSH20 0xFFFFFFFFFFFFFFFFFFFFFFFFFFFFFFFFFFFFFFFF AND DUP6 PUSH1 0x40 MLOAD DUP5 PUSH4 0xFFFFFFFF AND PUSH1 0xE0 SHL DUP2 MSTORE PUSH1 0x4 ADD PUSH2 0x1A1C SWAP4 SWAP3 SWAP2 SWAP1 PUSH2 0x239D JUMP JUMPDEST PUSH1 0x20 PUSH1 0x40 MLOAD DUP1 DUP4 SUB DUP2 PUSH1 0x0 DUP8 GAS CALL ISZERO DUP1 ISZERO PUSH2 0x1A3B JUMPI RETURNDATASIZE PUSH1 0x0 DUP1 RETURNDATACOPY RETURNDATASIZE PUSH1 0x0 REVERT JUMPDEST POP POP POP POP PUSH1 0x40 MLOAD RETURNDATASIZE PUSH1 0x1F NOT PUSH1 0x1F DUP3 ADD AND DUP3 ADD DUP1 PUSH1 0x40 MSTORE POP DUP2 ADD SWAP1 PUSH2 0x1A5F SWAP2 SWAP1 PUSH2 0x2B4D JUMP JUMPDEST POP PUSH1 0x4 PUSH1 0x0 SWAP1 SLOAD SWAP1 PUSH2 0x100 EXP SWAP1 DIV PUSH20 0xFFFFFFFFFFFFFFFFFFFFFFFFFFFFFFFFFFFFFFFF AND PUSH20 0xFFFFFFFFFFFFFFFFFFFFFFFFFFFFFFFFFFFFFFFF AND PUSH4 0xC1E9518A CALLER ADDRESS DUP5 PUSH1 0x40 MLOAD DUP5 PUSH4 0xFFFFFFFF AND PUSH1 0xE0 SHL DUP2 MSTORE PUSH1 0x4 ADD PUSH2 0x1ABF SWAP4 SWAP3 SWAP2 SWAP1 PUSH2 0x239D JUMP JUMPDEST PUSH1 0x0 PUSH1 0x40 MLOAD DUP1 DUP4 SUB DUP2 PUSH1 0x0 DUP8 DUP1 EXTCODESIZE ISZERO DUP1 ISZERO PUSH2 0x1AD9 JUMPI PUSH1 0x0 DUP1 REVERT JUMPDEST POP GAS CALL ISZERO DUP1 ISZERO PUSH2 0x1AED JUMPI RETURNDATASIZE PUSH1 0x0 DUP1 RETURNDATACOPY RETURNDATASIZE PUSH1 0x0 REVERT JUMPDEST POP POP POP POP PUSH1 0x5 PUSH1 0x0 SWAP1 SLOAD SWAP1 PUSH2 0x100 EXP SWAP1 DIV PUSH20 0xFFFFFFFFFFFFFFFFFFFFFFFFFFFFFFFFFFFFFFFF AND PUSH20 0xFFFFFFFFFFFFFFFFFFFFFFFFFFFFFFFFFFFFFFFF AND PUSH4 0x23B872DD ADDRESS CALLER DUP5 PUSH1 0x40 MLOAD DUP5 PUSH4 0xFFFFFFFF AND PUSH1 0xE0 SHL DUP2 MSTORE PUSH1 0x4 ADD PUSH2 0x1B50 SWAP4 SWAP3 SWAP2 SWAP1 PUSH2 0x239D JUMP JUMPDEST PUSH1 0x0 PUSH1 0x40 MLOAD DUP1 DUP4 SUB DUP2 PUSH1 0x0 DUP8 DUP1 EXTCODESIZE ISZERO DUP1 ISZERO PUSH2 0x1B6A JUMPI PUSH1 0x0 DUP1 REVERT JUMPDEST POP GAS CALL ISZERO DUP1 ISZERO PUSH2 0x1B7E JUMPI RETURNDATASIZE PUSH1 0x0 DUP1 RETURNDATACOPY RETURNDATASIZE PUSH1 0x0 REVERT JUMPDEST POP POP POP POP POP POP POP JUMP JUMPDEST PUSH1 0x40 MLOAD DUP1 PUSH1 0xC0 ADD PUSH1 0x40 MSTORE DUP1 PUSH1 0x0 DUP2 MSTORE PUSH1 0x20 ADD PUSH1 0x0 DUP2 MSTORE PUSH1 0x20 ADD PUSH1 0x0 PUSH20 0xFFFFFFFFFFFFFFFFFFFFFFFFFFFFFFFFFFFFFFFF AND DUP2 MSTORE PUSH1 0x20 ADD PUSH1 0x0 PUSH20 0xFFFFFFFFFFFFFFFFFFFFFFFFFFFFFFFFFFFFFFFF AND DUP2 MSTORE PUSH1 0x20 ADD PUSH1 0x0 DUP2 MSTORE PUSH1 0x20 ADD PUSH1 0x0 PUSH1 0x1 DUP2 GT ISZERO PUSH2 0x1BF5 JUMPI PUSH2 0x1BF4 PUSH2 0x1E57 JUMP JUMPDEST JUMPDEST DUP2 MSTORE POP SWAP1 JUMP JUMPDEST PUSH1 0x0 PUSH1 0x40 MLOAD SWAP1 POP SWAP1 JUMP JUMPDEST PUSH1 0x0 DUP1 REVERT JUMPDEST PUSH1 0x0 DUP1 REVERT JUMPDEST PUSH1 0x0 DUP2 SWAP1 POP SWAP2 SWAP1 POP JUMP JUMPDEST PUSH2 0x1C22 DUP2 PUSH2 0x1C0F JUMP JUMPDEST DUP2 EQ PUSH2 0x1C2D JUMPI PUSH1 0x0 DUP1 REVERT JUMPDEST POP JUMP JUMPDEST PUSH1 0x0 DUP2 CALLDATALOAD SWAP1 POP PUSH2 0x1C3F DUP2 PUSH2 0x1C19 JUMP JUMPDEST SWAP3 SWAP2 POP POP JUMP JUMPDEST PUSH1 0x0 PUSH1 0x20 DUP3 DUP5 SUB SLT ISZERO PUSH2 0x1C5B JUMPI PUSH2 0x1C5A PUSH2 0x1C05 JUMP JUMPDEST JUMPDEST PUSH1 0x0 PUSH2 0x1C69 DUP5 DUP3 DUP6 ADD PUSH2 0x1C30 JUMP JUMPDEST SWAP2 POP POP SWAP3 SWAP2 POP POP JUMP JUMPDEST PUSH1 0x0 PUSH20 0xFFFFFFFFFFFFFFFFFFFFFFFFFFFFFFFFFFFFFFFF DUP3 AND SWAP1 POP SWAP2 SWAP1 POP JUMP JUMPDEST PUSH1 0x0 PUSH2 0x1C9D DUP3 PUSH2 0x1C72 JUMP JUMPDEST SWAP1 POP SWAP2 SWAP1 POP JUMP JUMPDEST PUSH2 0x1CAD DUP2 PUSH2 0x1C92 JUMP JUMPDEST DUP2 EQ PUSH2 0x1CB8 JUMPI PUSH1 0x0 DUP1 REVERT JUMPDEST POP JUMP JUMPDEST PUSH1 0x0 DUP2 CALLDATALOAD SWAP1 POP PUSH2 0x1CCA DUP2 PUSH2 0x1CA4 JUMP JUMPDEST SWAP3 SWAP2 POP POP JUMP JUMPDEST PUSH1 0x0 PUSH1 0x20 DUP3 DUP5 SUB SLT ISZERO PUSH2 0x1CE6 JUMPI PUSH2 0x1CE5 PUSH2 0x1C05 JUMP JUMPDEST JUMPDEST PUSH1 0x0 PUSH2 0x1CF4 DUP5 DUP3 DUP6 ADD PUSH2 0x1CBB JUMP JUMPDEST SWAP2 POP POP SWAP3 SWAP2 POP POP JUMP JUMPDEST PUSH1 0x0 PUSH32 0xFFFFFFFF00000000000000000000000000000000000000000000000000000000 DUP3 AND SWAP1 POP SWAP2 SWAP1 POP JUMP JUMPDEST PUSH2 0x1D32 DUP2 PUSH2 0x1CFD JUMP JUMPDEST DUP3 MSTORE POP POP JUMP JUMPDEST PUSH1 0x0 PUSH1 0x20 DUP3 ADD SWAP1 POP PUSH2 0x1D4D PUSH1 0x0 DUP4 ADD DUP5 PUSH2 0x1D29 JUMP JUMPDEST SWAP3 SWAP2 POP POP JUMP JUMPDEST PUSH1 0x0 DUP1 PUSH1 0x40 DUP4 DUP6 SUB SLT ISZERO PUSH2 0x1D6A JUMPI PUSH2 0x1D69 PUSH2 0x1C05 JUMP JUMPDEST JUMPDEST PUSH1 0x0 PUSH2 0x1D78 DUP6 DUP3 DUP7 ADD PUSH2 0x1C30 JUMP JUMPDEST SWAP3 POP POP PUSH1 0x20 PUSH2 0x1D89 DUP6 DUP3 DUP7 ADD PUSH2 0x1C30 JUMP JUMPDEST SWAP2 POP POP SWAP3 POP SWAP3 SWAP1 POP JUMP JUMPDEST PUSH1 0x0 DUP2 SWAP1 POP SWAP2 SWAP1 POP JUMP JUMPDEST PUSH1 0x0 PUSH2 0x1DB8 PUSH2 0x1DB3 PUSH2 0x1DAE DUP5 PUSH2 0x1C72 JUMP JUMPDEST PUSH2 0x1D93 JUMP JUMPDEST PUSH2 0x1C72 JUMP JUMPDEST SWAP1 POP SWAP2 SWAP1 POP JUMP JUMPDEST PUSH1 0x0 PUSH2 0x1DCA DUP3 PUSH2 0x1D9D JUMP JUMPDEST SWAP1 POP SWAP2 SWAP1 POP JUMP JUMPDEST PUSH1 0x0 PUSH2 0x1DDC DUP3 PUSH2 0x1DBF JUMP JUMPDEST SWAP1 POP SWAP2 SWAP1 POP JUMP JUMPDEST PUSH2 0x1DEC DUP2 PUSH2 0x1DD1 JUMP JUMPDEST DUP3 MSTORE POP POP JUMP JUMPDEST PUSH1 0x0 PUSH1 0x20 DUP3 ADD SWAP1 POP PUSH2 0x1E07 PUSH1 0x0 DUP4 ADD DUP5 PUSH2 0x1DE3 JUMP JUMPDEST SWAP3 SWAP2 POP POP JUMP JUMPDEST PUSH1 0x0 DUP2 MLOAD SWAP1 POP SWAP2 SWAP1 POP JUMP JUMPDEST PUSH1 0x0 DUP3 DUP3 MSTORE PUSH1 0x20 DUP3 ADD SWAP1 POP SWAP3 SWAP2 POP POP JUMP JUMPDEST PUSH1 0x0 DUP2 SWAP1 POP PUSH1 0x20 DUP3 ADD SWAP1 POP SWAP2 SWAP1 POP JUMP JUMPDEST PUSH2 0x1E42 DUP2 PUSH2 0x1C0F JUMP JUMPDEST DUP3 MSTORE POP POP JUMP JUMPDEST PUSH2 0x1E51 DUP2 PUSH2 0x1C92 JUMP JUMPDEST DUP3 MSTORE POP POP JUMP JUMPDEST PUSH32 0x4E487B7100000000000000000000000000000000000000000000000000000000 PUSH1 0x0 MSTORE PUSH1 0x21 PUSH1 0x4 MSTORE PUSH1 0x24 PUSH1 0x0 REVERT JUMPDEST PUSH1 0x2 DUP2 LT PUSH2 0x1E97 JUMPI PUSH2 0x1E96 PUSH2 0x1E57 JUMP JUMPDEST JUMPDEST POP JUMP JUMPDEST PUSH1 0x0 DUP2 SWAP1 POP PUSH2 0x1EA8 DUP3 PUSH2 0x1E86 JUMP JUMPDEST SWAP2 SWAP1 POP JUMP JUMPDEST PUSH1 0x0 PUSH2 0x1EB8 DUP3 PUSH2 0x1E9A JUMP JUMPDEST SWAP1 POP SWAP2 SWAP1 POP JUMP JUMPDEST PUSH2 0x1EC8 DUP2 PUSH2 0x1EAD JUMP JUMPDEST DUP3 MSTORE POP POP JUMP JUMPDEST PUSH1 0xC0 DUP3 ADD PUSH1 0x0 DUP3 ADD MLOAD PUSH2 0x1EE4 PUSH1 0x0 DUP6 ADD DUP3 PUSH2 0x1E39 JUMP JUMPDEST POP PUSH1 0x20 DUP3 ADD MLOAD PUSH2 0x1EF7 PUSH1 0x20 DUP6 ADD DUP3 PUSH2 0x1E39 JUMP JUMPDEST POP PUSH1 0x40 DUP3 ADD MLOAD PUSH2 0x1F0A PUSH1 0x40 DUP6 ADD DUP3 PUSH2 0x1E48 JUMP JUMPDEST POP PUSH1 0x60 DUP3 ADD MLOAD PUSH2 0x1F1D PUSH1 0x60 DUP6 ADD DUP3 PUSH2 0x1E48 JUMP JUMPDEST POP PUSH1 0x80 DUP3 ADD MLOAD PUSH2 0x1F30 PUSH1 0x80 DUP6 ADD DUP3 PUSH2 0x1E39 JUMP JUMPDEST POP PUSH1 0xA0 DUP3 ADD MLOAD PUSH2 0x1F43 PUSH1 0xA0 DUP6 ADD DUP3 PUSH2 0x1EBF JUMP JUMPDEST POP POP POP POP JUMP JUMPDEST PUSH1 0x0 PUSH2 0x1F55 DUP4 DUP4 PUSH2 0x1ECE JUMP JUMPDEST PUSH1 0xC0 DUP4 ADD SWAP1 POP SWAP3 SWAP2 POP POP JUMP JUMPDEST PUSH1 0x0 PUSH1 0x20 DUP3 ADD SWAP1 POP SWAP2 SWAP1 POP JUMP JUMPDEST PUSH1 0x0 PUSH2 0x1F79 DUP3 PUSH2 0x1E0D JUMP JUMPDEST PUSH2 0x1F83 DUP2 DUP6 PUSH2 0x1E18 JUMP JUMPDEST SWAP4 POP PUSH2 0x1F8E DUP4 PUSH2 0x1E29 JUMP JUMPDEST DUP1 PUSH1 0x0 JUMPDEST DUP4 DUP2 LT ISZERO PUSH2 0x1FBF JUMPI DUP2 MLOAD PUSH2 0x1FA6 DUP9 DUP3 PUSH2 0x1F49 JUMP JUMPDEST SWAP8 POP PUSH2 0x1FB1 DUP4 PUSH2 0x1F61 JUMP JUMPDEST SWAP3 POP POP PUSH1 0x1 DUP2 ADD SWAP1 POP PUSH2 0x1F92 JUMP JUMPDEST POP DUP6 SWAP4 POP POP POP POP SWAP3 SWAP2 POP POP JUMP JUMPDEST PUSH1 0x0 PUSH1 0x20 DUP3 ADD SWAP1 POP DUP2 DUP2 SUB PUSH1 0x0 DUP4 ADD MSTORE PUSH2 0x1FE6 DUP2 DUP5 PUSH2 0x1F6E JUMP JUMPDEST SWAP1 POP SWAP3 SWAP2 POP POP JUMP JUMPDEST PUSH1 0x0 PUSH1 0xFF DUP3 AND SWAP1 POP SWAP2 SWAP1 POP JUMP JUMPDEST PUSH2 0x2004 DUP2 PUSH2 0x1FEE JUMP JUMPDEST DUP3 MSTORE POP POP JUMP JUMPDEST PUSH1 0x0 PUSH1 0x20 DUP3 ADD SWAP1 POP PUSH2 0x201F PUSH1 0x0 DUP4 ADD DUP5 PUSH2 0x1FFB JUMP JUMPDEST SWAP3 SWAP2 POP POP JUMP JUMPDEST PUSH2 0x202E DUP2 PUSH2 0x1C92 JUMP JUMPDEST DUP3 MSTORE POP POP JUMP JUMPDEST PUSH1 0x0 PUSH1 0x20 DUP3 ADD SWAP1 POP PUSH2 0x2049 PUSH1 0x0 DUP4 ADD DUP5 PUSH2 0x2025 JUMP JUMPDEST SWAP3 SWAP2 POP POP JUMP JUMPDEST PUSH2 0x2058 DUP2 PUSH2 0x1C0F JUMP JUMPDEST DUP3 MSTORE POP POP JUMP JUMPDEST PUSH2 0x2067 DUP2 PUSH2 0x1EAD JUMP JUMPDEST DUP3 MSTORE POP POP JUMP JUMPDEST PUSH1 0x0 PUSH1 0xC0 DUP3 ADD SWAP1 POP PUSH2 0x2082 PUSH1 0x0 DUP4 ADD DUP10 PUSH2 0x204F JUMP JUMPDEST PUSH2 0x208F PUSH1 0x20 DUP4 ADD DUP9 PUSH2 0x204F JUMP JUMPDEST PUSH2 0x209C PUSH1 0x40 DUP4 ADD DUP8 PUSH2 0x2025 JUMP JUMPDEST PUSH2 0x20A9 PUSH1 0x60 DUP4 ADD DUP7 PUSH2 0x2025 JUMP JUMPDEST PUSH2 0x20B6 PUSH1 0x80 DUP4 ADD DUP6 PUSH2 0x204F JUMP JUMPDEST PUSH2 0x20C3 PUSH1 0xA0 DUP4 ADD DUP5 PUSH2 0x205E JUMP JUMPDEST SWAP8 SWAP7 POP POP POP POP POP POP POP JUMP JUMPDEST PUSH1 0x0 PUSH2 0x20D9 DUP3 PUSH2 0x1DBF JUMP JUMPDEST SWAP1 POP SWAP2 SWAP1 POP JUMP JUMPDEST PUSH2 0x20E9 DUP2 PUSH2 0x20CE JUMP JUMPDEST DUP3 MSTORE POP POP JUMP JUMPDEST PUSH1 0x0 PUSH1 0x20 DUP3 ADD SWAP1 POP PUSH2 0x2104 PUSH1 0x0 DUP4 ADD DUP5 PUSH2 0x20E0 JUMP JUMPDEST SWAP3 SWAP2 POP POP JUMP JUMPDEST PUSH1 0xC0 DUP3 ADD PUSH1 0x0 DUP3 ADD MLOAD PUSH2 0x2120 PUSH1 0x0 DUP6 ADD DUP3 PUSH2 0x1E39 JUMP JUMPDEST POP PUSH1 0x20 DUP3 ADD MLOAD PUSH2 0x2133 PUSH1 0x20 DUP6 ADD DUP3 PUSH2 0x1E39 JUMP JUMPDEST POP PUSH1 0x40 DUP3 ADD MLOAD PUSH2 0x2146 PUSH1 0x40 DUP6 ADD DUP3 PUSH2 0x1E48 JUMP JUMPDEST POP PUSH1 0x60 DUP3 ADD MLOAD PUSH2 0x2159 PUSH1 0x60 DUP6 ADD DUP3 PUSH2 0x1E48 JUMP JUMPDEST POP PUSH1 0x80 DUP3 ADD MLOAD PUSH2 0x216C PUSH1 0x80 DUP6 ADD DUP3 PUSH2 0x1E39 JUMP JUMPDEST POP PUSH1 0xA0 DUP3 ADD MLOAD PUSH2 0x217F PUSH1 0xA0 DUP6 ADD DUP3 PUSH2 0x1EBF JUMP JUMPDEST POP POP POP POP JUMP JUMPDEST PUSH1 0x0 PUSH1 0xC0 DUP3 ADD SWAP1 POP PUSH2 0x219A PUSH1 0x0 DUP4 ADD DUP5 PUSH2 0x210A JUMP JUMPDEST SWAP3 SWAP2 POP POP JUMP JUMPDEST PUSH1 0x0 PUSH2 0x21AB DUP3 PUSH2 0x1DBF JUMP JUMPDEST SWAP1 POP SWAP2 SWAP1 POP JUMP JUMPDEST PUSH2 0x21BB DUP2 PUSH2 0x21A0 JUMP JUMPDEST DUP3 MSTORE POP POP JUMP JUMPDEST PUSH1 0x0 PUSH1 0x20 DUP3 ADD SWAP1 POP PUSH2 0x21D6 PUSH1 0x0 DUP4 ADD DUP5 PUSH2 0x21B2 JUMP JUMPDEST SWAP3 SWAP2 POP POP JUMP JUMPDEST PUSH1 0x0 DUP3 DUP3 MSTORE PUSH1 0x20 DUP3 ADD SWAP1 POP SWAP3 SWAP2 POP POP JUMP JUMPDEST PUSH32 0x4173736574206E6F74207075626C697368656400000000000000000000000000 PUSH1 0x0 DUP3 ADD MSTORE POP JUMP JUMPDEST PUSH1 0x0 PUSH2 0x2223 PUSH1 0x13 DUP4 PUSH2 0x21DC JUMP JUMPDEST SWAP2 POP PUSH2 0x222E DUP3 PUSH2 0x21ED JUMP JUMPDEST PUSH1 0x20 DUP3 ADD SWAP1 POP SWAP2 SWAP1 POP JUMP JUMPDEST PUSH1 0x0 PUSH1 0x20 DUP3 ADD SWAP1 POP DUP2 DUP2 SUB PUSH1 0x0 DUP4 ADD MSTORE PUSH2 0x2252 DUP2 PUSH2 0x2216 JUMP JUMPDEST SWAP1 POP SWAP2 SWAP1 POP JUMP JUMPDEST PUSH32 0x41737365742064656C6973746564000000000000000000000000000000000000 PUSH1 0x0 DUP3 ADD MSTORE POP JUMP JUMPDEST PUSH1 0x0 PUSH2 0x228F PUSH1 0xE DUP4 PUSH2 0x21DC JUMP JUMPDEST SWAP2 POP PUSH2 0x229A DUP3 PUSH2 0x2259 JUMP JUMPDEST PUSH1 0x20 DUP3 ADD SWAP1 POP SWAP2 SWAP1 POP JUMP JUMPDEST PUSH1 0x0 PUSH1 0x20 DUP3 ADD SWAP1 POP DUP2 DUP2 SUB PUSH1 0x0 DUP4 ADD MSTORE PUSH2 0x22BE DUP2 PUSH2 0x2282 JUMP JUMPDEST SWAP1 POP SWAP2 SWAP1 POP JUMP JUMPDEST PUSH32 0x496E76616C696420616464726573730000000000000000000000000000000000 PUSH1 0x0 DUP3 ADD MSTORE POP JUMP JUMPDEST PUSH1 0x0 PUSH2 0x22FB PUSH1 0xF DUP4 PUSH2 0x21DC JUMP JUMPDEST SWAP2 POP PUSH2 0x2306 DUP3 PUSH2 0x22C5 JUMP JUMPDEST PUSH1 0x20 DUP3 ADD SWAP1 POP SWAP2 SWAP1 POP JUMP JUMPDEST PUSH1 0x0 PUSH1 0x20 DUP3 ADD SWAP1 POP DUP2 DUP2 SUB PUSH1 0x0 DUP4 ADD MSTORE PUSH2 0x232A DUP2 PUSH2 0x22EE JUMP JUMPDEST SWAP1 POP SWAP2 SWAP1 POP JUMP JUMPDEST PUSH32 0x4F6E6C792073656C6C65722063616E2064656C69737400000000000000000000 PUSH1 0x0 DUP3 ADD MSTORE POP JUMP JUMPDEST PUSH1 0x0 PUSH2 0x2367 PUSH1 0x16 DUP4 PUSH2 0x21DC JUMP JUMPDEST SWAP2 POP PUSH2 0x2372 DUP3 PUSH2 0x2331 JUMP JUMPDEST PUSH1 0x20 DUP3 ADD SWAP1 POP SWAP2 SWAP1 POP JUMP JUMPDEST PUSH1 0x0 PUSH1 0x20 DUP3 ADD SWAP1 POP DUP2 DUP2 SUB PUSH1 0x0 DUP4 ADD MSTORE PUSH2 0x2396 DUP2 PUSH2 0x235A JUMP JUMPDEST SWAP1 POP SWAP2 SWAP1 POP JUMP JUMPDEST PUSH1 0x0 PUSH1 0x60 DUP3 ADD SWAP1 POP PUSH2 0x23B2 PUSH1 0x0 DUP4 ADD DUP7 PUSH2 0x2025 JUMP JUMPDEST PUSH2 0x23BF PUSH1 0x20 DUP4 ADD DUP6 PUSH2 0x2025 JUMP JUMPDEST PUSH2 0x23CC PUSH1 0x40 DUP4 ADD DUP5 PUSH2 0x204F JUMP JUMPDEST SWAP5 SWAP4 POP POP POP POP JUMP JUMPDEST PUSH1 0x0 PUSH1 0x40 DUP3 ADD SWAP1 POP PUSH2 0x23E9 PUSH1 0x0 DUP4 ADD DUP6 PUSH2 0x204F JUMP JUMPDEST PUSH2 0x23F6 PUSH1 0x20 DUP4 ADD DUP5 PUSH2 0x204F JUMP JUMPDEST SWAP4 SWAP3 POP POP POP JUMP JUMPDEST PUSH32 0x4F776E61626C653A2063616C6C6572206973206E6F7420746865206F776E6572 PUSH1 0x0 DUP3 ADD MSTORE POP JUMP JUMPDEST PUSH1 0x0 PUSH2 0x2433 PUSH1 0x20 DUP4 PUSH2 0x21DC JUMP JUMPDEST SWAP2 POP PUSH2 0x243E DUP3 PUSH2 0x23FD JUMP JUMPDEST PUSH1 0x20 DUP3 ADD SWAP1 POP SWAP2 SWAP1 POP JUMP JUMPDEST PUSH1 0x0 PUSH1 0x20 DUP3 ADD SWAP1 POP DUP2 DUP2 SUB PUSH1 0x0 DUP4 ADD MSTORE PUSH2 0x2462 DUP2 PUSH2 0x2426 JUMP JUMPDEST SWAP1 POP SWAP2 SWAP1 POP JUMP JUMPDEST PUSH32 0x5072696365206D757374206265206174206C6561737420312077656900000000 PUSH1 0x0 DUP3 ADD MSTORE POP JUMP JUMPDEST PUSH1 0x0 PUSH2 0x249F PUSH1 0x1C DUP4 PUSH2 0x21DC JUMP JUMPDEST SWAP2 POP PUSH2 0x24AA DUP3 PUSH2 0x2469 JUMP JUMPDEST PUSH1 0x20 DUP3 ADD SWAP1 POP SWAP2 SWAP1 POP JUMP JUMPDEST PUSH1 0x0 PUSH1 0x20 DUP3 ADD SWAP1 POP DUP2 DUP2 SUB PUSH1 0x0 DUP4 ADD MSTORE PUSH2 0x24CE DUP2 PUSH2 0x2492 JUMP JUMPDEST SWAP1 POP SWAP2 SWAP1 POP JUMP JUMPDEST PUSH1 0x0 PUSH1 0x20 DUP3 ADD SWAP1 POP PUSH2 0x24EA PUSH1 0x0 DUP4 ADD DUP5 PUSH2 0x204F JUMP JUMPDEST SWAP3 SWAP2 POP POP JUMP JUMPDEST PUSH1 0x0 DUP1 REVERT JUMPDEST PUSH1 0x0 PUSH1 0x1F NOT PUSH1 0x1F DUP4 ADD AND SWAP1 POP SWAP2 SWAP1 POP JUMP JUMPDEST PUSH32 0x4E487B7100000000000000000000000000000000000000000000000000000000 PUSH1 0x0 MSTORE PUSH1 0x41 PUSH1 0x4 MSTORE PUSH1 0x24 PUSH1 0x0 REVERT JUMPDEST PUSH2 0x253E DUP3 PUSH2 0x24F5 JUMP JUMPDEST DUP2 ADD DUP2 DUP2 LT PUSH8 0xFFFFFFFFFFFFFFFF DUP3 GT OR ISZERO PUSH2 0x255D JUMPI PUSH2 0x255C PUSH2 0x2506 JUMP JUMPDEST JUMPDEST DUP1 PUSH1 0x40 MSTORE POP POP POP JUMP JUMPDEST PUSH1 0x0 PUSH2 0x2570 PUSH2 0x1BFB JUMP JUMPDEST SWAP1 POP PUSH2 0x257C DUP3 DUP3 PUSH2 0x2535 JUMP JUMPDEST SWAP2 SWAP1 POP JUMP JUMPDEST PUSH1 0x0 DUP1 REVERT JUMPDEST PUSH1 0x0 DUP2 MLOAD SWAP1 POP PUSH2 0x2595 DUP2 PUSH2 0x1C19 JUMP JUMPDEST SWAP3 SWAP2 POP POP JUMP JUMPDEST PUSH1 0x0 DUP2 MLOAD SWAP1 POP PUSH2 0x25AA DUP2 PUSH2 0x1CA4 JUMP JUMPDEST SWAP3 SWAP2 POP POP JUMP JUMPDEST PUSH1 0x0 DUP1 REVERT JUMPDEST PUSH1 0x0 DUP1 REVERT JUMPDEST PUSH1 0x0 PUSH8 0xFFFFFFFFFFFFFFFF DUP3 GT ISZERO PUSH2 0x25D5 JUMPI PUSH2 0x25D4 PUSH2 0x2506 JUMP JUMPDEST JUMPDEST PUSH2 0x25DE DUP3 PUSH2 0x24F5 JUMP JUMPDEST SWAP1 POP PUSH1 0x20 DUP2 ADD SWAP1 POP SWAP2 SWAP1 POP JUMP JUMPDEST PUSH1 0x0 JUMPDEST DUP4 DUP2 LT ISZERO PUSH2 0x2609 JUMPI DUP1 DUP3 ADD MLOAD DUP2 DUP5 ADD MSTORE PUSH1 0x20 DUP2 ADD SWAP1 POP PUSH2 0x25EE JUMP JUMPDEST DUP4 DUP2 GT ISZERO PUSH2 0x2618 JUMPI PUSH1 0x0 DUP5 DUP5 ADD MSTORE JUMPDEST POP POP POP POP JUMP JUMPDEST PUSH1 0x0 PUSH2 0x2631 PUSH2 0x262C DUP5 PUSH2 0x25BA JUMP JUMPDEST PUSH2 0x2566 JUMP JUMPDEST SWAP1 POP DUP3 DUP2 MSTORE PUSH1 0x20 DUP2 ADD DUP5 DUP5 DUP5 ADD GT ISZERO PUSH2 0x264D JUMPI PUSH2 0x264C PUSH2 0x25B5 JUMP JUMPDEST JUMPDEST PUSH2 0x2658 DUP5 DUP3 DUP6 PUSH2 0x25EB JUMP JUMPDEST POP SWAP4 SWAP3 POP POP POP JUMP JUMPDEST PUSH1 0x0 DUP3 PUSH1 0x1F DUP4 ADD SLT PUSH2 0x2675 JUMPI PUSH2 0x2674 PUSH2 0x25B0 JUMP JUMPDEST JUMPDEST DUP2 MLOAD PUSH2 0x2685 DUP5 DUP3 PUSH1 0x20 DUP7 ADD PUSH2 0x261E JUMP JUMPDEST SWAP2 POP POP SWAP3 SWAP2 POP POP JUMP JUMPDEST PUSH1 0x0 DUP2 ISZERO ISZERO SWAP1 POP SWAP2 SWAP1 POP JUMP JUMPDEST PUSH2 0x26A3 DUP2 PUSH2 0x268E JUMP JUMPDEST DUP2 EQ PUSH2 0x26AE JUMPI PUSH1 0x0 DUP1 REVERT JUMPDEST POP JUMP JUMPDEST PUSH1 0x0 DUP2 MLOAD SWAP1 POP PUSH2 0x26C0 DUP2 PUSH2 0x269A JUMP JUMPDEST SWAP3 SWAP2 POP POP JUMP JUMPDEST PUSH1 0x0 PUSH1 0xA0 DUP3 DUP5 SUB SLT ISZERO PUSH2 0x26DC JUMPI PUSH2 0x26DB PUSH2 0x24F0 JUMP JUMPDEST JUMPDEST PUSH2 0x26E6 PUSH1 0xA0 PUSH2 0x2566 JUMP JUMPDEST SWAP1 POP PUSH1 0x0 PUSH2 0x26F6 DUP5 DUP3 DUP6 ADD PUSH2 0x2586 JUMP JUMPDEST PUSH1 0x0 DUP4 ADD MSTORE POP PUSH1 0x20 PUSH2 0x270A DUP5 DUP3 DUP6 ADD PUSH2 0x259B JUMP JUMPDEST PUSH1 0x20 DUP4 ADD MSTORE POP PUSH1 0x40 DUP3 ADD MLOAD PUSH8 0xFFFFFFFFFFFFFFFF DUP2 GT ISZERO PUSH2 0x272E JUMPI PUSH2 0x272D PUSH2 0x2581 JUMP JUMPDEST JUMPDEST PUSH2 0x273A DUP5 DUP3 DUP6 ADD PUSH2 0x2660 JUMP JUMPDEST PUSH1 0x40 DUP4 ADD MSTORE POP PUSH1 0x60 DUP3 ADD MLOAD PUSH8 0xFFFFFFFFFFFFFFFF DUP2 GT ISZERO PUSH2 0x275E JUMPI PUSH2 0x275D PUSH2 0x2581 JUMP JUMPDEST JUMPDEST PUSH2 0x276A DUP5 DUP3 DUP6 ADD PUSH2 0x2660 JUMP JUMPDEST PUSH1 0x60 DUP4 ADD MSTORE POP PUSH1 0x80 PUSH2 0x277E DUP5 DUP3 DUP6 ADD PUSH2 0x26B1 JUMP JUMPDEST PUSH1 0x80 DUP4 ADD MSTORE POP SWAP3 SWAP2 POP POP JUMP JUMPDEST PUSH1 0x0 PUSH1 0x20 DUP3 DUP5 SUB SLT ISZERO PUSH2 0x27A0 JUMPI PUSH2 0x279F PUSH2 0x1C05 JUMP JUMPDEST JUMPDEST PUSH1 0x0 DUP3 ADD MLOAD PUSH8 0xFFFFFFFFFFFFFFFF DUP2 GT ISZERO PUSH2 0x27BE JUMPI PUSH2 0x27BD PUSH2 0x1C0A JUMP JUMPDEST JUMPDEST PUSH2 0x27CA DUP5 DUP3 DUP6 ADD PUSH2 0x26C6 JUMP JUMPDEST SWAP2 POP POP SWAP3 SWAP2 POP POP JUMP JUMPDEST PUSH32 0x4974656D206973206E6F7420617661696C61626C65206E6F7720210000000000 PUSH1 0x0 DUP3 ADD MSTORE POP JUMP JUMPDEST PUSH1 0x0 PUSH2 0x2809 PUSH1 0x1B DUP4 PUSH2 0x21DC JUMP JUMPDEST SWAP2 POP PUSH2 0x2814 DUP3 PUSH2 0x27D3 JUMP JUMPDEST PUSH1 0x20 DUP3 ADD SWAP1 POP SWAP2 SWAP1 POP JUMP JUMPDEST PUSH1 0x0 PUSH1 0x20 DUP3 ADD SWAP1 POP DUP2 DUP2 SUB PUSH1 0x0 DUP4 ADD MSTORE PUSH2 0x2838 DUP2 PUSH2 0x27FC JUMP JUMPDEST SWAP1 POP SWAP2 SWAP1 POP JUMP JUMPDEST PUSH32 0x4E487B7100000000000000000000000000000000000000000000000000000000 PUSH1 0x0 MSTORE PUSH1 0x11 PUSH1 0x4 MSTORE PUSH1 0x24 PUSH1 0x0 REVERT JUMPDEST PUSH1 0x0 PUSH2 0x2879 DUP3 PUSH2 0x1C0F JUMP JUMPDEST SWAP2 POP PUSH2 0x2884 DUP4 PUSH2 0x1C0F JUMP JUMPDEST SWAP3 POP DUP3 PUSH32 0xFFFFFFFFFFFFFFFFFFFFFFFFFFFFFFFFFFFFFFFFFFFFFFFFFFFFFFFFFFFFFFFF SUB DUP3 GT ISZERO PUSH2 0x28B9 JUMPI PUSH2 0x28B8 PUSH2 0x283F JUMP JUMPDEST JUMPDEST DUP3 DUP3 ADD SWAP1 POP SWAP3 SWAP2 POP POP JUMP JUMPDEST PUSH1 0x0 PUSH2 0x28CF DUP3 PUSH2 0x1C0F JUMP JUMPDEST SWAP2 POP PUSH32 0xFFFFFFFFFFFFFFFFFFFFFFFFFFFFFFFFFFFFFFFFFFFFFFFFFFFFFFFFFFFFFFFF DUP3 SUB PUSH2 0x2901 JUMPI PUSH2 0x2900 PUSH2 0x283F JUMP JUMPDEST JUMPDEST PUSH1 0x1 DUP3 ADD SWAP1 POP SWAP2 SWAP1 POP JUMP JUMPDEST PUSH32 0x4E487B7100000000000000000000000000000000000000000000000000000000 PUSH1 0x0 MSTORE PUSH1 0x32 PUSH1 0x4 MSTORE PUSH1 0x24 PUSH1 0x0 REVERT JUMPDEST PUSH32 0x506C65617365207375626D6974207468652061736B696E672070726963652069 PUSH1 0x0 DUP3 ADD MSTORE PUSH32 0x6E206F7264657220746F20636F6D706C65746520746865207075726368617365 PUSH1 0x20 DUP3 ADD MSTORE POP JUMP JUMPDEST PUSH1 0x0 PUSH2 0x2997 PUSH1 0x40 DUP4 PUSH2 0x21DC JUMP JUMPDEST SWAP2 POP PUSH2 0x29A2 DUP3 PUSH2 0x293B JUMP JUMPDEST PUSH1 0x40 DUP3 ADD SWAP1 POP SWAP2 SWAP1 POP JUMP JUMPDEST PUSH1 0x0 PUSH1 0x20 DUP3 ADD SWAP1 POP DUP2 DUP2 SUB PUSH1 0x0 DUP4 ADD MSTORE PUSH2 0x29C6 DUP2 PUSH2 0x298A JUMP JUMPDEST SWAP1 POP SWAP2 SWAP1 POP JUMP JUMPDEST PUSH32 0x5351460000000000000000000000000000000000000000000000000000000000 PUSH1 0x0 DUP3 ADD MSTORE POP JUMP JUMPDEST PUSH1 0x0 PUSH2 0x2A03 PUSH1 0x3 DUP4 PUSH2 0x21DC JUMP JUMPDEST SWAP2 POP PUSH2 0x2A0E DUP3 PUSH2 0x29CD JUMP JUMPDEST PUSH1 0x20 DUP3 ADD SWAP1 POP SWAP2 SWAP1 POP JUMP JUMPDEST PUSH1 0x0 PUSH1 0x80 DUP3 ADD SWAP1 POP PUSH2 0x2A2E PUSH1 0x0 DUP4 ADD DUP7 PUSH2 0x204F JUMP JUMPDEST PUSH2 0x2A3B PUSH1 0x20 DUP4 ADD DUP6 PUSH2 0x204F JUMP JUMPDEST DUP2 DUP2 SUB PUSH1 0x40 DUP4 ADD MSTORE PUSH2 0x2A4C DUP2 PUSH2 0x29F6 JUMP JUMPDEST SWAP1 POP PUSH2 0x2A5B PUSH1 0x60 DUP4 ADD DUP5 PUSH2 0x204F JUMP JUMPDEST SWAP5 SWAP4 POP POP POP POP JUMP JUMPDEST PUSH1 0x0 PUSH2 0x2A6E DUP3 PUSH2 0x1DBF JUMP JUMPDEST SWAP1 POP SWAP2 SWAP1 POP JUMP JUMPDEST PUSH2 0x2A7E DUP2 PUSH2 0x2A63 JUMP JUMPDEST DUP3 MSTORE POP POP JUMP JUMPDEST PUSH1 0x0 PUSH1 0x60 DUP3 ADD SWAP1 POP PUSH2 0x2A99 PUSH1 0x0 DUP4 ADD DUP7 PUSH2 0x2A75 JUMP JUMPDEST PUSH2 0x2AA6 PUSH1 0x20 DUP4 ADD DUP6 PUSH2 0x2025 JUMP JUMPDEST PUSH2 0x2AB3 PUSH1 0x40 DUP4 ADD DUP5 PUSH2 0x204F JUMP JUMPDEST SWAP5 SWAP4 POP POP POP POP JUMP JUMPDEST PUSH32 0x4F776E61626C653A206E6577206F776E657220697320746865207A65726F2061 PUSH1 0x0 DUP3 ADD MSTORE PUSH32 0x6464726573730000000000000000000000000000000000000000000000000000 PUSH1 0x20 DUP3 ADD MSTORE POP JUMP JUMPDEST PUSH1 0x0 PUSH2 0x2B17 PUSH1 0x26 DUP4 PUSH2 0x21DC JUMP JUMPDEST SWAP2 POP PUSH2 0x2B22 DUP3 PUSH2 0x2ABB JUMP JUMPDEST PUSH1 0x40 DUP3 ADD SWAP1 POP SWAP2 SWAP1 POP JUMP JUMPDEST PUSH1 0x0 PUSH1 0x20 DUP3 ADD SWAP1 POP DUP2 DUP2 SUB PUSH1 0x0 DUP4 ADD MSTORE PUSH2 0x2B46 DUP2 PUSH2 0x2B0A JUMP JUMPDEST SWAP1 POP SWAP2 SWAP1 POP JUMP JUMPDEST PUSH1 0x0 PUSH1 0x20 DUP3 DUP5 SUB SLT ISZERO PUSH2 0x2B63 JUMPI PUSH2 0x2B62 PUSH2 0x1C05 JUMP JUMPDEST JUMPDEST PUSH1 0x0 PUSH2 0x2B71 DUP5 DUP3 DUP6 ADD PUSH2 0x26B1 JUMP JUMPDEST SWAP2 POP POP SWAP3 SWAP2 POP POP JUMP INVALID LOG2 PUSH5 0x6970667358 0x22 SLT KECCAK256 MULMOD 0x4F LT XOR BLOCKHASH ISZERO EXTCODESIZE TIMESTAMP 0xD7 0xCF DUP16 SWAP11 SWAP2 CALLVALUE 0xFC CALLDATALOAD SLOAD 0xBE OR PUSH2 0x802E RETURNDATACOPY SAR PUSH2 0x30F2 0x27 PUSH21 0xF4857264736F6C634300080D003300000000000000 "
				},
				"gasEstimates": {
					"creation": {
						"codeDepositCost": "2236800",
						"executionCost": "infinite",
						"totalCost": "infinite"
					},
					"external": {
						"ERC721_Interface()": "431",
						"_safeTransferToMarket(uint256)": "infinite",
						"allItems(uint256)": "infinite",
						"antaFeePercent()": "2588",
						"bnbFeePercent()": "2632",
						"createMarketItem(uint256,uint256)": "infinite",
						"createMarketSale(uint256,uint256)": "infinite",
						"delistItem(uint256)": "infinite",
						"factory()": "infinite",
						"getMarketItem()": "infinite",
						"getMarketItem(uint256)": "infinite",
						"items(uint256)": "infinite",
						"mainNFTs()": "infinite",
						"mainToken()": "infinite",
						"owner()": "2545",
						"renounceOwnership()": "30463",
						"setFactory(address)": "27029",
						"setMainNFT(address)": "27008",
						"setMainToken(address)": "27030",
						"transferOwnership(address)": "30786"
					},
					"internal": {
						"_requireERC721(address)": "infinite",
						"_safeBuyItem(uint256,uint256,uint256)": "infinite",
						"isContract(address)": "infinite"
					}
				},
				"methodIdentifiers": {
					"ERC721_Interface()": "2b4c32be",
					"_safeTransferToMarket(uint256)": "e78e717d",
					"allItems(uint256)": "ff68fa6e",
					"antaFeePercent()": "b7a60c7e",
					"bnbFeePercent()": "85a8b36c",
					"createMarketItem(uint256,uint256)": "361c1995",
					"createMarketSale(uint256,uint256)": "a1c11ca8",
					"delistItem(uint256)": "10061631",
					"factory()": "c45a0155",
					"getMarketItem()": "42199f88",
					"getMarketItem(uint256)": "c7be7a49",
					"items(uint256)": "bfb231d2",
					"mainNFTs()": "f55de0c7",
					"mainToken()": "3fc15f15",
					"owner()": "8da5cb5b",
					"renounceOwnership()": "715018a6",
					"setFactory(address)": "5bb47808",
					"setMainNFT(address)": "15b12494",
					"setMainToken(address)": "27ce464e",
					"transferOwnership(address)": "f2fde38b"
				}
			},
			"storageLayout": {
				"storage": [
					{
						"astId": 409,
						"contract": "contracts/Marketplace2/Marketplace.sol:NFTMarket",
						"label": "_status",
						"offset": 0,
						"slot": "0",
						"type": "t_uint256"
					},
					{
						"astId": 500,
						"contract": "contracts/Marketplace2/Marketplace.sol:NFTMarket",
						"label": "items",
						"offset": 0,
						"slot": "1",
						"type": "t_array(t_struct(MarketItem)496_storage)dyn_storage"
					},
					{
						"astId": 511,
						"contract": "contracts/Marketplace2/Marketplace.sol:NFTMarket",
						"label": "allItems",
						"offset": 0,
						"slot": "2",
						"type": "t_mapping(t_uint256,t_struct(MarketItem)496_storage)"
					},
					{
						"astId": 514,
						"contract": "contracts/Marketplace2/Marketplace.sol:NFTMarket",
						"label": "mainToken",
						"offset": 0,
						"slot": "3",
						"type": "t_contract(IERC20)201"
					},
					{
						"astId": 517,
						"contract": "contracts/Marketplace2/Marketplace.sol:NFTMarket",
						"label": "factory",
						"offset": 0,
						"slot": "4",
						"type": "t_contract(IFactory)478"
					},
					{
						"astId": 520,
						"contract": "contracts/Marketplace2/Marketplace.sol:NFTMarket",
						"label": "mainNFTs",
						"offset": 0,
						"slot": "5",
						"type": "t_contract(IERC721)326"
					},
					{
						"astId": 522,
						"contract": "contracts/Marketplace2/Marketplace.sol:NFTMarket",
						"label": "bnbFeePercent",
						"offset": 20,
						"slot": "5",
						"type": "t_uint8"
					},
					{
						"astId": 524,
						"contract": "contracts/Marketplace2/Marketplace.sol:NFTMarket",
						"label": "antaFeePercent",
						"offset": 21,
						"slot": "5",
						"type": "t_uint8"
					},
					{
						"astId": 27,
						"contract": "contracts/Marketplace2/Marketplace.sol:NFTMarket",
						"label": "_owner",
						"offset": 0,
						"slot": "6",
						"type": "t_address"
					},
					{
						"astId": 592,
						"contract": "contracts/Marketplace2/Marketplace.sol:NFTMarket",
						"label": "_itemIds",
						"offset": 0,
						"slot": "7",
						"type": "t_struct(Counter)331_storage"
					},
					{
						"astId": 595,
						"contract": "contracts/Marketplace2/Marketplace.sol:NFTMarket",
						"label": "_itemsSold",
						"offset": 0,
						"slot": "8",
						"type": "t_struct(Counter)331_storage"
					},
					{
						"astId": 600,
						"contract": "contracts/Marketplace2/Marketplace.sol:NFTMarket",
						"label": "idToMarketItem",
						"offset": 0,
						"slot": "9",
						"type": "t_mapping(t_uint256,t_struct(MarketItem)496_storage)"
					}
				],
				"types": {
					"t_address": {
						"encoding": "inplace",
						"label": "address",
						"numberOfBytes": "20"
					},
					"t_array(t_struct(MarketItem)496_storage)dyn_storage": {
						"base": "t_struct(MarketItem)496_storage",
						"encoding": "dynamic_array",
						"label": "struct MarketplaceStorage.MarketItem[]",
						"numberOfBytes": "32"
					},
					"t_contract(IERC20)201": {
						"encoding": "inplace",
						"label": "contract IERC20",
						"numberOfBytes": "20"
					},
					"t_contract(IERC721)326": {
						"encoding": "inplace",
						"label": "contract IERC721",
						"numberOfBytes": "20"
					},
					"t_contract(IFactory)478": {
						"encoding": "inplace",
						"label": "contract IFactory",
						"numberOfBytes": "20"
					},
					"t_enum(ItemStatus)482": {
						"encoding": "inplace",
						"label": "enum MarketplaceStorage.ItemStatus",
						"numberOfBytes": "1"
					},
					"t_mapping(t_uint256,t_struct(MarketItem)496_storage)": {
						"encoding": "mapping",
						"key": "t_uint256",
						"label": "mapping(uint256 => struct MarketplaceStorage.MarketItem)",
						"numberOfBytes": "32",
						"value": "t_struct(MarketItem)496_storage"
					},
					"t_struct(Counter)331_storage": {
						"encoding": "inplace",
						"label": "struct Counters.Counter",
						"members": [
							{
								"astId": 330,
								"contract": "contracts/Marketplace2/Marketplace.sol:NFTMarket",
								"label": "_value",
								"offset": 0,
								"slot": "0",
								"type": "t_uint256"
							}
						],
						"numberOfBytes": "32"
					},
					"t_struct(MarketItem)496_storage": {
						"encoding": "inplace",
						"label": "struct MarketplaceStorage.MarketItem",
						"members": [
							{
								"astId": 484,
								"contract": "contracts/Marketplace2/Marketplace.sol:NFTMarket",
								"label": "itemId",
								"offset": 0,
								"slot": "0",
								"type": "t_uint256"
							},
							{
								"astId": 486,
								"contract": "contracts/Marketplace2/Marketplace.sol:NFTMarket",
								"label": "tokenId",
								"offset": 0,
								"slot": "1",
								"type": "t_uint256"
							},
							{
								"astId": 488,
								"contract": "contracts/Marketplace2/Marketplace.sol:NFTMarket",
								"label": "seller",
								"offset": 0,
								"slot": "2",
								"type": "t_address"
							},
							{
								"astId": 490,
								"contract": "contracts/Marketplace2/Marketplace.sol:NFTMarket",
								"label": "owner",
								"offset": 0,
								"slot": "3",
								"type": "t_address"
							},
							{
								"astId": 492,
								"contract": "contracts/Marketplace2/Marketplace.sol:NFTMarket",
								"label": "price",
								"offset": 0,
								"slot": "4",
								"type": "t_uint256"
							},
							{
								"astId": 495,
								"contract": "contracts/Marketplace2/Marketplace.sol:NFTMarket",
								"label": "status",
								"offset": 0,
								"slot": "5",
								"type": "t_enum(ItemStatus)482"
							}
						],
						"numberOfBytes": "192"
					},
					"t_uint256": {
						"encoding": "inplace",
						"label": "uint256",
						"numberOfBytes": "32"
					},
					"t_uint8": {
						"encoding": "inplace",
						"label": "uint8",
						"numberOfBytes": "1"
					}
				}
			},
			"userdoc": {
				"kind": "user",
				"methods": {},
				"version": 1
			}
		}
	}
}