{
	"contracts/Marketplace2/Marketplace.sol": {
		"NFTMarket": {
			"abi": [
				{
					"inputs": [
						{
							"internalType": "address",
							"name": "_mainToken",
							"type": "address"
						},
						{
							"internalType": "address",
							"name": "_mainNFT",
							"type": "address"
						},
						{
							"internalType": "address",
							"name": "_mainFactory",
							"type": "address"
						}
					],
					"stateMutability": "payable",
					"type": "constructor"
				},
				{
					"anonymous": false,
					"inputs": [
						{
							"indexed": false,
							"internalType": "uint256",
							"name": "itemId",
							"type": "uint256"
						},
						{
							"indexed": true,
							"internalType": "uint256",
							"name": "tokenId",
							"type": "uint256"
						},
						{
							"indexed": true,
							"internalType": "address",
							"name": "seller",
							"type": "address"
						},
						{
							"indexed": false,
							"internalType": "uint256",
							"name": "price",
							"type": "uint256"
						},
						{
							"indexed": true,
							"internalType": "address",
							"name": "buyer",
							"type": "address"
						},
						{
							"indexed": false,
							"internalType": "string",
							"name": "currency",
							"type": "string"
						},
						{
							"indexed": false,
							"internalType": "uint256",
							"name": "createdAt",
							"type": "uint256"
						}
					],
					"name": "BuyItemSuccessful",
					"type": "event"
				},
				{
					"anonymous": false,
					"inputs": [
						{
							"indexed": false,
							"internalType": "uint256",
							"name": "id",
							"type": "uint256"
						},
						{
							"indexed": true,
							"internalType": "uint256",
							"name": "assetId",
							"type": "uint256"
						},
						{
							"indexed": true,
							"internalType": "address",
							"name": "delistBy",
							"type": "address"
						},
						{
							"indexed": false,
							"internalType": "uint256",
							"name": "createdAt",
							"type": "uint256"
						}
					],
					"name": "DelistItemSuccessful",
					"type": "event"
				},
				{
					"anonymous": false,
					"inputs": [
						{
							"indexed": true,
							"internalType": "uint256",
							"name": "itemId",
							"type": "uint256"
						},
						{
							"indexed": true,
							"internalType": "uint256",
							"name": "tokenId",
							"type": "uint256"
						},
						{
							"indexed": false,
							"internalType": "address",
							"name": "seller",
							"type": "address"
						},
						{
							"indexed": false,
							"internalType": "address",
							"name": "owner",
							"type": "address"
						},
						{
							"indexed": false,
							"internalType": "uint256",
							"name": "price",
							"type": "uint256"
						}
					],
					"name": "MarketItemCreated",
					"type": "event"
				},
				{
					"anonymous": false,
					"inputs": [
						{
							"indexed": true,
							"internalType": "address",
							"name": "previousOwner",
							"type": "address"
						},
						{
							"indexed": true,
							"internalType": "address",
							"name": "newOwner",
							"type": "address"
						}
					],
					"name": "OwnershipTransferred",
					"type": "event"
				},
				{
					"anonymous": false,
					"inputs": [
						{
							"indexed": false,
							"internalType": "address",
							"name": "nftAddress",
							"type": "address"
						},
						{
							"indexed": false,
							"internalType": "bytes32",
							"name": "id",
							"type": "bytes32"
						},
						{
							"indexed": true,
							"internalType": "uint256",
							"name": "assetId",
							"type": "uint256"
						},
						{
							"indexed": false,
							"internalType": "uint256",
							"name": "price",
							"type": "uint256"
						},
						{
							"indexed": true,
							"internalType": "address",
							"name": "seller",
							"type": "address"
						},
						{
							"indexed": false,
							"internalType": "string",
							"name": "currency",
							"type": "string"
						},
						{
							"indexed": false,
							"internalType": "uint256",
							"name": "createdAt",
							"type": "uint256"
						}
					],
					"name": "SellItemSuccessful",
					"type": "event"
				},
				{
					"inputs": [],
					"name": "ERC721_Interface",
					"outputs": [
						{
							"internalType": "bytes4",
							"name": "",
							"type": "bytes4"
						}
					],
					"stateMutability": "view",
					"type": "function"
				},
				{
					"inputs": [
						{
							"internalType": "uint256",
							"name": "",
							"type": "uint256"
						}
					],
					"name": "allItems",
					"outputs": [
						{
							"internalType": "uint256",
							"name": "itemId",
							"type": "uint256"
						},
						{
							"internalType": "uint256",
							"name": "tokenId",
							"type": "uint256"
						},
						{
							"internalType": "address",
							"name": "seller",
							"type": "address"
						},
						{
							"internalType": "address",
							"name": "owner",
							"type": "address"
						},
						{
							"internalType": "uint256",
							"name": "price",
							"type": "uint256"
						},
						{
							"internalType": "enum MarketplaceStorage.ItemStatus",
							"name": "status",
							"type": "uint8"
						}
					],
					"stateMutability": "view",
					"type": "function"
				},
				{
					"inputs": [],
					"name": "allMarketItems",
					"outputs": [
						{
							"internalType": "uint256",
							"name": "itemId",
							"type": "uint256"
						},
						{
							"internalType": "uint256",
							"name": "tokenId",
							"type": "uint256"
						},
						{
							"internalType": "address",
							"name": "seller",
							"type": "address"
						},
						{
							"internalType": "address",
							"name": "owner",
							"type": "address"
						},
						{
							"internalType": "uint256",
							"name": "price",
							"type": "uint256"
						},
						{
							"internalType": "enum MarketplaceStorage.ItemStatus",
							"name": "status",
							"type": "uint8"
						}
					],
					"stateMutability": "view",
					"type": "function"
				},
				{
					"inputs": [],
					"name": "antaFeePercent",
					"outputs": [
						{
							"internalType": "uint8",
							"name": "",
							"type": "uint8"
						}
					],
					"stateMutability": "view",
					"type": "function"
				},
				{
					"inputs": [],
					"name": "bnbFeePercent",
					"outputs": [
						{
							"internalType": "uint8",
							"name": "",
							"type": "uint8"
						}
					],
					"stateMutability": "view",
					"type": "function"
				},
				{
					"inputs": [
						{
							"internalType": "uint256",
							"name": "tokenId",
							"type": "uint256"
						},
						{
							"internalType": "uint256",
							"name": "price",
							"type": "uint256"
						}
					],
					"name": "createMarketItem",
					"outputs": [],
					"stateMutability": "payable",
					"type": "function"
				},
				{
					"inputs": [
						{
							"internalType": "uint256",
							"name": "itemId",
							"type": "uint256"
						},
						{
							"internalType": "uint256",
							"name": "amount",
							"type": "uint256"
						}
					],
					"name": "createMarketSale",
					"outputs": [],
					"stateMutability": "nonpayable",
					"type": "function"
				},
				{
					"inputs": [],
					"name": "currentId",
					"outputs": [
						{
							"internalType": "uint256",
							"name": "",
							"type": "uint256"
						}
					],
					"stateMutability": "view",
					"type": "function"
				},
				{
					"inputs": [
						{
							"internalType": "uint256",
							"name": "itemId",
							"type": "uint256"
						}
					],
					"name": "delistItem",
					"outputs": [],
					"stateMutability": "nonpayable",
					"type": "function"
				},
				{
					"inputs": [],
					"name": "factory",
					"outputs": [
						{
							"internalType": "contract IFactory",
							"name": "",
							"type": "address"
						}
					],
					"stateMutability": "view",
					"type": "function"
				},
				{
					"inputs": [
						{
							"internalType": "uint256",
							"name": "marketItemId",
							"type": "uint256"
						}
					],
					"name": "getMarketItem",
					"outputs": [
						{
							"components": [
								{
									"internalType": "uint256",
									"name": "itemId",
									"type": "uint256"
								},
								{
									"internalType": "uint256",
									"name": "tokenId",
									"type": "uint256"
								},
								{
									"internalType": "address",
									"name": "seller",
									"type": "address"
								},
								{
									"internalType": "address",
									"name": "owner",
									"type": "address"
								},
								{
									"internalType": "uint256",
									"name": "price",
									"type": "uint256"
								},
								{
									"internalType": "enum MarketplaceStorage.ItemStatus",
									"name": "status",
									"type": "uint8"
								}
							],
							"internalType": "struct MarketplaceStorage.MarketItem",
							"name": "",
							"type": "tuple"
						}
					],
					"stateMutability": "view",
					"type": "function"
				},
				{
					"inputs": [
						{
							"internalType": "address",
							"name": "",
							"type": "address"
						},
						{
							"internalType": "uint256",
							"name": "",
							"type": "uint256"
						}
					],
					"name": "items",
					"outputs": [
						{
							"internalType": "uint256",
							"name": "itemId",
							"type": "uint256"
						},
						{
							"internalType": "uint256",
							"name": "tokenId",
							"type": "uint256"
						},
						{
							"internalType": "address",
							"name": "seller",
							"type": "address"
						},
						{
							"internalType": "address",
							"name": "owner",
							"type": "address"
						},
						{
							"internalType": "uint256",
							"name": "price",
							"type": "uint256"
						},
						{
							"internalType": "enum MarketplaceStorage.ItemStatus",
							"name": "status",
							"type": "uint8"
						}
					],
					"stateMutability": "view",
					"type": "function"
				},
				{
					"inputs": [],
					"name": "mainNFTs",
					"outputs": [
						{
							"internalType": "contract IERC721",
							"name": "",
							"type": "address"
						}
					],
					"stateMutability": "view",
					"type": "function"
				},
				{
					"inputs": [],
					"name": "mainToken",
					"outputs": [
						{
							"internalType": "contract IERC20",
							"name": "",
							"type": "address"
						}
					],
					"stateMutability": "view",
					"type": "function"
				},
				{
					"inputs": [],
					"name": "owner",
					"outputs": [
						{
							"internalType": "address",
							"name": "",
							"type": "address"
						}
					],
					"stateMutability": "view",
					"type": "function"
				},
				{
					"inputs": [],
					"name": "renounceOwnership",
					"outputs": [],
					"stateMutability": "nonpayable",
					"type": "function"
				},
				{
					"inputs": [
						{
							"internalType": "address",
							"name": "_address",
							"type": "address"
						}
					],
					"name": "setFactory",
					"outputs": [],
					"stateMutability": "nonpayable",
					"type": "function"
				},
				{
					"inputs": [
						{
							"internalType": "address",
							"name": "_address",
							"type": "address"
						}
					],
					"name": "setMainNFT",
					"outputs": [],
					"stateMutability": "nonpayable",
					"type": "function"
				},
				{
					"inputs": [
						{
							"internalType": "address",
							"name": "_address",
							"type": "address"
						}
					],
					"name": "setMainToken",
					"outputs": [],
					"stateMutability": "nonpayable",
					"type": "function"
				},
				{
					"inputs": [
						{
							"internalType": "address",
							"name": "newOwner",
							"type": "address"
						}
					],
					"name": "transferOwnership",
					"outputs": [],
					"stateMutability": "nonpayable",
					"type": "function"
				}
			],
			"devdoc": {
				"kind": "dev",
				"methods": {
					"owner()": {
						"details": "Returns the address of the current owner."
					},
					"renounceOwnership()": {
						"details": "Leaves the contract without owner. It will not be possible to call `onlyOwner` functions anymore. Can only be called by the current owner. NOTE: Renouncing ownership will leave the contract without an owner, thereby removing any functionality that is only available to the owner."
					},
					"transferOwnership(address)": {
						"details": "Transfers ownership of the contract to a new account (`newOwner`). Can only be called by the current owner."
					}
				},
				"version": 1
			},
			"evm": {
				"assembly": "    /* \"contracts/Marketplace2/Marketplace.sol\":17321:23912  contract NFTMarket is ReentrancyGuard,MarketplaceStorage, Ownable {... */\n  mstore(0x40, 0x80)\n    /* \"contracts/Marketplace2/Marketplace.sol\":17567:17769  constructor(address _mainToken, address _mainNFT, address _mainFactory ) payable {... */\n  mload(0x40)\n  sub(codesize, bytecodeSize)\n  dup1\n  bytecodeSize\n  dup4\n  codecopy\n  dup2\n  dup2\n  add\n  0x40\n  mstore\n  dup2\n  add\n  swap1\n  tag_1\n  swap2\n  swap1\n  tag_2\n  jump\t// in\ntag_1:\n    /* \"contracts/Marketplace2/Marketplace.sol\":14122:14123  1 */\n  0x01\n    /* \"contracts/Marketplace2/Marketplace.sol\":14227:14234  _status */\n  0x00\n    /* \"contracts/Marketplace2/Marketplace.sol\":14227:14249  _status = _NOT_ENTERED */\n  dup2\n  swap1\n  sstore\n  pop\n    /* \"contracts/Marketplace2/Marketplace.sol\":1561:1593  _transferOwnership(_msgSender()) */\n  tag_8\n    /* \"contracts/Marketplace2/Marketplace.sol\":1580:1592  _msgSender() */\n  tag_9\n    /* \"contracts/Marketplace2/Marketplace.sol\":1580:1590  _msgSender */\n  shl(0x20, tag_10)\n    /* \"contracts/Marketplace2/Marketplace.sol\":1580:1592  _msgSender() */\n  0x20\n  shr\n  jump\t// in\ntag_9:\n    /* \"contracts/Marketplace2/Marketplace.sol\":1561:1579  _transferOwnership */\n  shl(0x20, tag_11)\n    /* \"contracts/Marketplace2/Marketplace.sol\":1561:1593  _transferOwnership(_msgSender()) */\n  0x20\n  shr\n  jump\t// in\ntag_8:\n    /* \"contracts/Marketplace2/Marketplace.sol\":17675:17685  _mainToken */\n  dup3\n    /* \"contracts/Marketplace2/Marketplace.sol\":17656:17665  mainToken */\n  0x09\n  0x00\n    /* \"contracts/Marketplace2/Marketplace.sol\":17656:17686  mainToken = IERC20(_mainToken) */\n  0x0100\n  exp\n  dup2\n  sload\n  dup2\n  0xffffffffffffffffffffffffffffffffffffffff\n  mul\n  not\n  and\n  swap1\n  dup4\n  0xffffffffffffffffffffffffffffffffffffffff\n  and\n  mul\n  or\n  swap1\n  sstore\n  pop\n    /* \"contracts/Marketplace2/Marketplace.sol\":17713:17721  _mainNFT */\n  dup2\n    /* \"contracts/Marketplace2/Marketplace.sol\":17694:17702  mainNFTs */\n  0x0b\n  0x00\n    /* \"contracts/Marketplace2/Marketplace.sol\":17694:17722  mainNFTs = IERC721(_mainNFT) */\n  0x0100\n  exp\n  dup2\n  sload\n  dup2\n  0xffffffffffffffffffffffffffffffffffffffff\n  mul\n  not\n  and\n  swap1\n  dup4\n  0xffffffffffffffffffffffffffffffffffffffff\n  and\n  mul\n  or\n  swap1\n  sstore\n  pop\n    /* \"contracts/Marketplace2/Marketplace.sol\":17749:17761  _mainFactory */\n  dup1\n    /* \"contracts/Marketplace2/Marketplace.sol\":17730:17737  factory */\n  0x0a\n  0x00\n    /* \"contracts/Marketplace2/Marketplace.sol\":17730:17762  factory = IFactory(_mainFactory) */\n  0x0100\n  exp\n  dup2\n  sload\n  dup2\n  0xffffffffffffffffffffffffffffffffffffffff\n  mul\n  not\n  and\n  swap1\n  dup4\n  0xffffffffffffffffffffffffffffffffffffffff\n  and\n  mul\n  or\n  swap1\n  sstore\n  pop\n    /* \"contracts/Marketplace2/Marketplace.sol\":17567:17769  constructor(address _mainToken, address _mainNFT, address _mainFactory ) payable {... */\n  pop\n  pop\n  pop\n    /* \"contracts/Marketplace2/Marketplace.sol\":17321:23912  contract NFTMarket is ReentrancyGuard,MarketplaceStorage, Ownable {... */\n  jump(tag_13)\n    /* \"contracts/Marketplace2/Marketplace.sol\":554:650  function _msgSender() internal view virtual returns (address) {... */\ntag_10:\n    /* \"contracts/Marketplace2/Marketplace.sol\":607:614  address */\n  0x00\n    /* \"contracts/Marketplace2/Marketplace.sol\":633:643  msg.sender */\n  caller\n    /* \"contracts/Marketplace2/Marketplace.sol\":626:643  return msg.sender */\n  swap1\n  pop\n    /* \"contracts/Marketplace2/Marketplace.sol\":554:650  function _msgSender() internal view virtual returns (address) {... */\n  swap1\n  jump\t// out\n    /* \"contracts/Marketplace2/Marketplace.sol\":2910:3097  function _transferOwnership(address newOwner) internal virtual {... */\ntag_11:\n    /* \"contracts/Marketplace2/Marketplace.sol\":2983:2999  address oldOwner */\n  0x00\n    /* \"contracts/Marketplace2/Marketplace.sol\":3002:3008  _owner */\n  0x0c\n  0x00\n  swap1\n  sload\n  swap1\n  0x0100\n  exp\n  swap1\n  div\n  0xffffffffffffffffffffffffffffffffffffffff\n  and\n    /* \"contracts/Marketplace2/Marketplace.sol\":2983:3008  address oldOwner = _owner */\n  swap1\n  pop\n    /* \"contracts/Marketplace2/Marketplace.sol\":3027:3035  newOwner */\n  dup2\n    /* \"contracts/Marketplace2/Marketplace.sol\":3018:3024  _owner */\n  0x0c\n  0x00\n    /* \"contracts/Marketplace2/Marketplace.sol\":3018:3035  _owner = newOwner */\n  0x0100\n  exp\n  dup2\n  sload\n  dup2\n  0xffffffffffffffffffffffffffffffffffffffff\n  mul\n  not\n  and\n  swap1\n  dup4\n  0xffffffffffffffffffffffffffffffffffffffff\n  and\n  mul\n  or\n  swap1\n  sstore\n  pop\n    /* \"contracts/Marketplace2/Marketplace.sol\":3081:3089  newOwner */\n  dup2\n    /* \"contracts/Marketplace2/Marketplace.sol\":3050:3090  OwnershipTransferred(oldOwner, newOwner) */\n  0xffffffffffffffffffffffffffffffffffffffff\n  and\n    /* \"contracts/Marketplace2/Marketplace.sol\":3071:3079  oldOwner */\n  dup2\n    /* \"contracts/Marketplace2/Marketplace.sol\":3050:3090  OwnershipTransferred(oldOwner, newOwner) */\n  0xffffffffffffffffffffffffffffffffffffffff\n  and\n  0x8be0079c531659141344cd1fd0a4f28419497f9722a3daafe3b4186f6b6457e0\n  mload(0x40)\n  mload(0x40)\n  dup1\n  swap2\n  sub\n  swap1\n  log3\n    /* \"contracts/Marketplace2/Marketplace.sol\":2973:3097  {... */\n  pop\n    /* \"contracts/Marketplace2/Marketplace.sol\":2910:3097  function _transferOwnership(address newOwner) internal virtual {... */\n  pop\n  jump\t// out\n    /* \"#utility.yul\":88:205   */\ntag_17:\n    /* \"#utility.yul\":197:198   */\n  0x00\n    /* \"#utility.yul\":194:195   */\n  dup1\n    /* \"#utility.yul\":187:199   */\n  revert\n    /* \"#utility.yul\":334:460   */\ntag_19:\n    /* \"#utility.yul\":371:378   */\n  0x00\n    /* \"#utility.yul\":411:453   */\n  0xffffffffffffffffffffffffffffffffffffffff\n    /* \"#utility.yul\":404:409   */\n  dup3\n    /* \"#utility.yul\":400:454   */\n  and\n    /* \"#utility.yul\":389:454   */\n  swap1\n  pop\n    /* \"#utility.yul\":334:460   */\n  swap2\n  swap1\n  pop\n  jump\t// out\n    /* \"#utility.yul\":466:562   */\ntag_20:\n    /* \"#utility.yul\":503:510   */\n  0x00\n    /* \"#utility.yul\":532:556   */\n  tag_29\n    /* \"#utility.yul\":550:555   */\n  dup3\n    /* \"#utility.yul\":532:556   */\n  tag_19\n  jump\t// in\ntag_29:\n    /* \"#utility.yul\":521:556   */\n  swap1\n  pop\n    /* \"#utility.yul\":466:562   */\n  swap2\n  swap1\n  pop\n  jump\t// out\n    /* \"#utility.yul\":568:690   */\ntag_21:\n    /* \"#utility.yul\":641:665   */\n  tag_31\n    /* \"#utility.yul\":659:664   */\n  dup2\n    /* \"#utility.yul\":641:665   */\n  tag_20\n  jump\t// in\ntag_31:\n    /* \"#utility.yul\":634:639   */\n  dup2\n    /* \"#utility.yul\":631:666   */\n  eq\n    /* \"#utility.yul\":621:684   */\n  tag_32\n  jumpi\n    /* \"#utility.yul\":680:681   */\n  0x00\n    /* \"#utility.yul\":677:678   */\n  dup1\n    /* \"#utility.yul\":670:682   */\n  revert\n    /* \"#utility.yul\":621:684   */\ntag_32:\n    /* \"#utility.yul\":568:690   */\n  pop\n  jump\t// out\n    /* \"#utility.yul\":696:839   */\ntag_22:\n    /* \"#utility.yul\":753:758   */\n  0x00\n    /* \"#utility.yul\":784:790   */\n  dup2\n    /* \"#utility.yul\":778:791   */\n  mload\n    /* \"#utility.yul\":769:791   */\n  swap1\n  pop\n    /* \"#utility.yul\":800:833   */\n  tag_34\n    /* \"#utility.yul\":827:832   */\n  dup2\n    /* \"#utility.yul\":800:833   */\n  tag_21\n  jump\t// in\ntag_34:\n    /* \"#utility.yul\":696:839   */\n  swap3\n  swap2\n  pop\n  pop\n  jump\t// out\n    /* \"#utility.yul\":845:1508   */\ntag_2:\n    /* \"#utility.yul\":933:939   */\n  0x00\n    /* \"#utility.yul\":941:947   */\n  dup1\n    /* \"#utility.yul\":949:955   */\n  0x00\n    /* \"#utility.yul\":998:1000   */\n  0x60\n    /* \"#utility.yul\":986:995   */\n  dup5\n    /* \"#utility.yul\":977:984   */\n  dup7\n    /* \"#utility.yul\":973:996   */\n  sub\n    /* \"#utility.yul\":969:1001   */\n  slt\n    /* \"#utility.yul\":966:1085   */\n  iszero\n  tag_36\n  jumpi\n    /* \"#utility.yul\":1004:1083   */\n  tag_37\n  tag_17\n  jump\t// in\ntag_37:\n    /* \"#utility.yul\":966:1085   */\ntag_36:\n    /* \"#utility.yul\":1124:1125   */\n  0x00\n    /* \"#utility.yul\":1149:1213   */\n  tag_38\n    /* \"#utility.yul\":1205:1212   */\n  dup7\n    /* \"#utility.yul\":1196:1202   */\n  dup3\n    /* \"#utility.yul\":1185:1194   */\n  dup8\n    /* \"#utility.yul\":1181:1203   */\n  add\n    /* \"#utility.yul\":1149:1213   */\n  tag_22\n  jump\t// in\ntag_38:\n    /* \"#utility.yul\":1139:1213   */\n  swap4\n  pop\n    /* \"#utility.yul\":1095:1223   */\n  pop\n    /* \"#utility.yul\":1262:1264   */\n  0x20\n    /* \"#utility.yul\":1288:1352   */\n  tag_39\n    /* \"#utility.yul\":1344:1351   */\n  dup7\n    /* \"#utility.yul\":1335:1341   */\n  dup3\n    /* \"#utility.yul\":1324:1333   */\n  dup8\n    /* \"#utility.yul\":1320:1342   */\n  add\n    /* \"#utility.yul\":1288:1352   */\n  tag_22\n  jump\t// in\ntag_39:\n    /* \"#utility.yul\":1278:1352   */\n  swap3\n  pop\n    /* \"#utility.yul\":1233:1362   */\n  pop\n    /* \"#utility.yul\":1401:1403   */\n  0x40\n    /* \"#utility.yul\":1427:1491   */\n  tag_40\n    /* \"#utility.yul\":1483:1490   */\n  dup7\n    /* \"#utility.yul\":1474:1480   */\n  dup3\n    /* \"#utility.yul\":1463:1472   */\n  dup8\n    /* \"#utility.yul\":1459:1481   */\n  add\n    /* \"#utility.yul\":1427:1491   */\n  tag_22\n  jump\t// in\ntag_40:\n    /* \"#utility.yul\":1417:1491   */\n  swap2\n  pop\n    /* \"#utility.yul\":1372:1501   */\n  pop\n    /* \"#utility.yul\":845:1508   */\n  swap3\n  pop\n  swap3\n  pop\n  swap3\n  jump\t// out\n    /* \"contracts/Marketplace2/Marketplace.sol\":17321:23912  contract NFTMarket is ReentrancyGuard,MarketplaceStorage, Ownable {... */\ntag_13:\n  dataSize(sub_0)\n  dup1\n  dataOffset(sub_0)\n  0x00\n  codecopy\n  0x00\n  return\nstop\n\nsub_0: assembly {\n        /* \"contracts/Marketplace2/Marketplace.sol\":17321:23912  contract NFTMarket is ReentrancyGuard,MarketplaceStorage, Ownable {... */\n      mstore(0x40, 0x80)\n      jumpi(tag_1, lt(calldatasize, 0x04))\n      shr(0xe0, calldataload(0x00))\n      dup1\n      0x85a8b36c\n      gt\n      tag_22\n      jumpi\n      dup1\n      0xc7be7a49\n      gt\n      tag_23\n      jumpi\n      dup1\n      0xc7be7a49\n      eq\n      tag_17\n      jumpi\n      dup1\n      0xe00dd161\n      eq\n      tag_18\n      jumpi\n      dup1\n      0xf2fde38b\n      eq\n      tag_19\n      jumpi\n      dup1\n      0xf55de0c7\n      eq\n      tag_20\n      jumpi\n      dup1\n      0xff68fa6e\n      eq\n      tag_21\n      jumpi\n      jump(tag_1)\n    tag_23:\n      dup1\n      0x85a8b36c\n      eq\n      tag_12\n      jumpi\n      dup1\n      0x8da5cb5b\n      eq\n      tag_13\n      jumpi\n      dup1\n      0xa1c11ca8\n      eq\n      tag_14\n      jumpi\n      dup1\n      0xb7a60c7e\n      eq\n      tag_15\n      jumpi\n      dup1\n      0xc45a0155\n      eq\n      tag_16\n      jumpi\n      jump(tag_1)\n    tag_22:\n      dup1\n      0x3fc15f15\n      gt\n      tag_24\n      jumpi\n      dup1\n      0x3fc15f15\n      eq\n      tag_7\n      jumpi\n      dup1\n      0x517bd451\n      eq\n      tag_8\n      jumpi\n      dup1\n      0x5bb47808\n      eq\n      tag_9\n      jumpi\n      dup1\n      0x5c80a435\n      eq\n      tag_10\n      jumpi\n      dup1\n      0x715018a6\n      eq\n      tag_11\n      jumpi\n      jump(tag_1)\n    tag_24:\n      dup1\n      0x10061631\n      eq\n      tag_2\n      jumpi\n      dup1\n      0x15b12494\n      eq\n      tag_3\n      jumpi\n      dup1\n      0x27ce464e\n      eq\n      tag_4\n      jumpi\n      dup1\n      0x2b4c32be\n      eq\n      tag_5\n      jumpi\n      dup1\n      0x361c1995\n      eq\n      tag_6\n      jumpi\n    tag_1:\n      0x00\n      dup1\n      revert\n        /* \"contracts/Marketplace2/Marketplace.sol\":19941:20699  function delistItem(uint256 itemId) public {... */\n    tag_2:\n      callvalue\n      dup1\n      iszero\n      tag_25\n      jumpi\n      0x00\n      dup1\n      revert\n    tag_25:\n      pop\n      tag_26\n      0x04\n      dup1\n      calldatasize\n      sub\n      dup2\n      add\n      swap1\n      tag_27\n      swap2\n      swap1\n      tag_28\n      jump\t// in\n    tag_27:\n      tag_29\n      jump\t// in\n    tag_26:\n      stop\n        /* \"contracts/Marketplace2/Marketplace.sol\":18027:18129  function setMainNFT(address _address) external onlyOwner {... */\n    tag_3:\n      callvalue\n      dup1\n      iszero\n      tag_30\n      jumpi\n      0x00\n      dup1\n      revert\n    tag_30:\n      pop\n      tag_31\n      0x04\n      dup1\n      calldatasize\n      sub\n      dup2\n      add\n      swap1\n      tag_32\n      swap2\n      swap1\n      tag_33\n      jump\t// in\n    tag_32:\n      tag_34\n      jump\t// in\n    tag_31:\n      stop\n        /* \"contracts/Marketplace2/Marketplace.sol\":17918:18022  function setMainToken(address _address) external onlyOwner {... */\n    tag_4:\n      callvalue\n      dup1\n      iszero\n      tag_35\n      jumpi\n      0x00\n      dup1\n      revert\n    tag_35:\n      pop\n      tag_36\n      0x04\n      dup1\n      calldatasize\n      sub\n      dup2\n      add\n      swap1\n      tag_37\n      swap2\n      swap1\n      tag_33\n      jump\t// in\n    tag_37:\n      tag_38\n      jump\t// in\n    tag_36:\n      stop\n        /* \"contracts/Marketplace2/Marketplace.sol\":16124:16184  bytes4 public constant ERC721_Interface = bytes4(0x80ac58cd) */\n    tag_5:\n      callvalue\n      dup1\n      iszero\n      tag_39\n      jumpi\n      0x00\n      dup1\n      revert\n    tag_39:\n      pop\n      tag_40\n      tag_41\n      jump\t// in\n    tag_40:\n      mload(0x40)\n      tag_42\n      swap2\n      swap1\n      tag_43\n      jump\t// in\n    tag_42:\n      mload(0x40)\n      dup1\n      swap2\n      sub\n      swap1\n      return\n        /* \"contracts/Marketplace2/Marketplace.sol\":18339:19116  function createMarketItem(... */\n    tag_6:\n      tag_44\n      0x04\n      dup1\n      calldatasize\n      sub\n      dup2\n      add\n      swap1\n      tag_45\n      swap2\n      swap1\n      tag_46\n      jump\t// in\n    tag_45:\n      tag_47\n      jump\t// in\n    tag_44:\n      stop\n        /* \"contracts/Marketplace2/Marketplace.sol\":16385:16408  IERC20 public mainToken */\n    tag_7:\n      callvalue\n      dup1\n      iszero\n      tag_48\n      jumpi\n      0x00\n      dup1\n      revert\n    tag_48:\n      pop\n      tag_49\n      tag_50\n      jump\t// in\n    tag_49:\n      mload(0x40)\n      tag_51\n      swap2\n      swap1\n      tag_52\n      jump\t// in\n    tag_51:\n      mload(0x40)\n      dup1\n      swap2\n      sub\n      swap1\n      return\n        /* \"contracts/Marketplace2/Marketplace.sol\":16085:16117  MarketItem public allMarketItems */\n    tag_8:\n      callvalue\n      dup1\n      iszero\n      tag_53\n      jumpi\n      0x00\n      dup1\n      revert\n    tag_53:\n      pop\n      tag_54\n      tag_55\n      jump\t// in\n    tag_54:\n      mload(0x40)\n      tag_56\n      swap7\n      swap6\n      swap5\n      swap4\n      swap3\n      swap2\n      swap1\n      tag_57\n      jump\t// in\n    tag_56:\n      mload(0x40)\n      dup1\n      swap2\n      sub\n      swap1\n      return\n        /* \"contracts/Marketplace2/Marketplace.sol\":18134:18236  function setFactory(address _address) external onlyOwner {... */\n    tag_9:\n      callvalue\n      dup1\n      iszero\n      tag_58\n      jumpi\n      0x00\n      dup1\n      revert\n    tag_58:\n      pop\n      tag_59\n      0x04\n      dup1\n      calldatasize\n      sub\n      dup2\n      add\n      swap1\n      tag_60\n      swap2\n      swap1\n      tag_33\n      jump\t// in\n    tag_60:\n      tag_61\n      jump\t// in\n    tag_59:\n      stop\n        /* \"contracts/Marketplace2/Marketplace.sol\":16315:16378  mapping(address => mapping(uint256 => MarketItem)) public items */\n    tag_10:\n      callvalue\n      dup1\n      iszero\n      tag_62\n      jumpi\n      0x00\n      dup1\n      revert\n    tag_62:\n      pop\n      tag_63\n      0x04\n      dup1\n      calldatasize\n      sub\n      dup2\n      add\n      swap1\n      tag_64\n      swap2\n      swap1\n      tag_65\n      jump\t// in\n    tag_64:\n      tag_66\n      jump\t// in\n    tag_63:\n      mload(0x40)\n      tag_67\n      swap7\n      swap6\n      swap5\n      swap4\n      swap3\n      swap2\n      swap1\n      tag_57\n      jump\t// in\n    tag_67:\n      mload(0x40)\n      dup1\n      swap2\n      sub\n      swap1\n      return\n        /* \"contracts/Marketplace2/Marketplace.sol\":2308:2409  function renounceOwnership() public virtual onlyOwner {... */\n    tag_11:\n      callvalue\n      dup1\n      iszero\n      tag_68\n      jumpi\n      0x00\n      dup1\n      revert\n    tag_68:\n      pop\n      tag_69\n      tag_70\n      jump\t// in\n    tag_69:\n      stop\n        /* \"contracts/Marketplace2/Marketplace.sol\":16473:16499  uint8 public bnbFeePercent */\n    tag_12:\n      callvalue\n      dup1\n      iszero\n      tag_71\n      jumpi\n      0x00\n      dup1\n      revert\n    tag_71:\n      pop\n      tag_72\n      tag_73\n      jump\t// in\n    tag_72:\n      mload(0x40)\n      tag_74\n      swap2\n      swap1\n      tag_75\n      jump\t// in\n    tag_74:\n      mload(0x40)\n      dup1\n      swap2\n      sub\n      swap1\n      return\n        /* \"contracts/Marketplace2/Marketplace.sol\":1676:1761  function owner() public view virtual returns (address) {... */\n    tag_13:\n      callvalue\n      dup1\n      iszero\n      tag_76\n      jumpi\n      0x00\n      dup1\n      revert\n    tag_76:\n      pop\n      tag_77\n      tag_78\n      jump\t// in\n    tag_77:\n      mload(0x40)\n      tag_79\n      swap2\n      swap1\n      tag_80\n      jump\t// in\n    tag_79:\n      mload(0x40)\n      dup1\n      swap2\n      sub\n      swap1\n      return\n        /* \"contracts/Marketplace2/Marketplace.sol\":19119:19937  function createMarketSale(... */\n    tag_14:\n      callvalue\n      dup1\n      iszero\n      tag_81\n      jumpi\n      0x00\n      dup1\n      revert\n    tag_81:\n      pop\n      tag_82\n      0x04\n      dup1\n      calldatasize\n      sub\n      dup2\n      add\n      swap1\n      tag_83\n      swap2\n      swap1\n      tag_46\n      jump\t// in\n    tag_83:\n      tag_84\n      jump\t// in\n    tag_82:\n      stop\n        /* \"contracts/Marketplace2/Marketplace.sol\":16505:16532  uint8 public antaFeePercent */\n    tag_15:\n      callvalue\n      dup1\n      iszero\n      tag_85\n      jumpi\n      0x00\n      dup1\n      revert\n    tag_85:\n      pop\n      tag_86\n      tag_87\n      jump\t// in\n    tag_86:\n      mload(0x40)\n      tag_88\n      swap2\n      swap1\n      tag_75\n      jump\t// in\n    tag_88:\n      mload(0x40)\n      dup1\n      swap2\n      sub\n      swap1\n      return\n        /* \"contracts/Marketplace2/Marketplace.sol\":16414:16437  IFactory public factory */\n    tag_16:\n      callvalue\n      dup1\n      iszero\n      tag_89\n      jumpi\n      0x00\n      dup1\n      revert\n    tag_89:\n      pop\n      tag_90\n      tag_91\n      jump\t// in\n    tag_90:\n      mload(0x40)\n      tag_92\n      swap2\n      swap1\n      tag_93\n      jump\t// in\n    tag_92:\n      mload(0x40)\n      dup1\n      swap2\n      sub\n      swap1\n      return\n        /* \"contracts/Marketplace2/Marketplace.sol\":17775:17912  function getMarketItem(uint256 marketItemId) public view returns (MarketItem memory) {... */\n    tag_17:\n      callvalue\n      dup1\n      iszero\n      tag_94\n      jumpi\n      0x00\n      dup1\n      revert\n    tag_94:\n      pop\n      tag_95\n      0x04\n      dup1\n      calldatasize\n      sub\n      dup2\n      add\n      swap1\n      tag_96\n      swap2\n      swap1\n      tag_28\n      jump\t// in\n    tag_96:\n      tag_97\n      jump\t// in\n    tag_95:\n      mload(0x40)\n      tag_98\n      swap2\n      swap1\n      tag_99\n      jump\t// in\n    tag_98:\n      mload(0x40)\n      dup1\n      swap2\n      sub\n      swap1\n      return\n        /* \"contracts/Marketplace2/Marketplace.sol\":18242:18335  function currentId() public view returns(uint256) { ... */\n    tag_18:\n      callvalue\n      dup1\n      iszero\n      tag_100\n      jumpi\n      0x00\n      dup1\n      revert\n    tag_100:\n      pop\n      tag_101\n      tag_102\n      jump\t// in\n    tag_101:\n      mload(0x40)\n      tag_103\n      swap2\n      swap1\n      tag_104\n      jump\t// in\n    tag_103:\n      mload(0x40)\n      dup1\n      swap2\n      sub\n      swap1\n      return\n        /* \"contracts/Marketplace2/Marketplace.sol\":2558:2756  function transferOwnership(address newOwner) public virtual onlyOwner {... */\n    tag_19:\n      callvalue\n      dup1\n      iszero\n      tag_105\n      jumpi\n      0x00\n      dup1\n      revert\n    tag_105:\n      pop\n      tag_106\n      0x04\n      dup1\n      calldatasize\n      sub\n      dup2\n      add\n      swap1\n      tag_107\n      swap2\n      swap1\n      tag_33\n      jump\t// in\n    tag_107:\n      tag_108\n      jump\t// in\n    tag_106:\n      stop\n        /* \"contracts/Marketplace2/Marketplace.sol\":16443:16466  IERC721 public mainNFTs */\n    tag_20:\n      callvalue\n      dup1\n      iszero\n      tag_109\n      jumpi\n      0x00\n      dup1\n      revert\n    tag_109:\n      pop\n      tag_110\n      tag_111\n      jump\t// in\n    tag_110:\n      mload(0x40)\n      tag_112\n      swap2\n      swap1\n      tag_113\n      jump\t// in\n    tag_112:\n      mload(0x40)\n      dup1\n      swap2\n      sub\n      swap1\n      return\n        /* \"contracts/Marketplace2/Marketplace.sol\":16191:16238  mapping (uint256 => MarketItem) public allItems */\n    tag_21:\n      callvalue\n      dup1\n      iszero\n      tag_114\n      jumpi\n      0x00\n      dup1\n      revert\n    tag_114:\n      pop\n      tag_115\n      0x04\n      dup1\n      calldatasize\n      sub\n      dup2\n      add\n      swap1\n      tag_116\n      swap2\n      swap1\n      tag_28\n      jump\t// in\n    tag_116:\n      tag_117\n      jump\t// in\n    tag_115:\n      mload(0x40)\n      tag_118\n      swap7\n      swap6\n      swap5\n      swap4\n      swap3\n      swap2\n      swap1\n      tag_57\n      jump\t// in\n    tag_118:\n      mload(0x40)\n      dup1\n      swap2\n      sub\n      swap1\n      return\n        /* \"contracts/Marketplace2/Marketplace.sol\":19941:20699  function delistItem(uint256 itemId) public {... */\n    tag_29:\n        /* \"contracts/Marketplace2/Marketplace.sol\":19994:20010  address deleteBy */\n      0x00\n        /* \"contracts/Marketplace2/Marketplace.sol\":20013:20023  msg.sender */\n      caller\n        /* \"contracts/Marketplace2/Marketplace.sol\":19994:20023  address deleteBy = msg.sender */\n      swap1\n      pop\n        /* \"contracts/Marketplace2/Marketplace.sol\":20033:20055  MarketItem memory item */\n      0x00\n        /* \"contracts/Marketplace2/Marketplace.sol\":20058:20072  idToMarketItem */\n      0x0f\n        /* \"contracts/Marketplace2/Marketplace.sol\":20058:20080  idToMarketItem[itemId] */\n      0x00\n        /* \"contracts/Marketplace2/Marketplace.sol\":20073:20079  itemId */\n      dup5\n        /* \"contracts/Marketplace2/Marketplace.sol\":20058:20080  idToMarketItem[itemId] */\n      dup2\n      mstore\n      0x20\n      add\n      swap1\n      dup2\n      mstore\n      0x20\n      add\n      0x00\n      keccak256\n        /* \"contracts/Marketplace2/Marketplace.sol\":20033:20080  MarketItem memory item = idToMarketItem[itemId] */\n      mload(0x40)\n      dup1\n      0xc0\n      add\n      0x40\n      mstore\n      swap1\n      dup2\n      0x00\n      dup3\n      add\n      sload\n      dup2\n      mstore\n      0x20\n      add\n      0x01\n      dup3\n      add\n      sload\n      dup2\n      mstore\n      0x20\n      add\n      0x02\n      dup3\n      add\n      0x00\n      swap1\n      sload\n      swap1\n      0x0100\n      exp\n      swap1\n      div\n      0xffffffffffffffffffffffffffffffffffffffff\n      and\n      0xffffffffffffffffffffffffffffffffffffffff\n      and\n      0xffffffffffffffffffffffffffffffffffffffff\n      and\n      dup2\n      mstore\n      0x20\n      add\n      0x03\n      dup3\n      add\n      0x00\n      swap1\n      sload\n      swap1\n      0x0100\n      exp\n      swap1\n      div\n      0xffffffffffffffffffffffffffffffffffffffff\n      and\n      0xffffffffffffffffffffffffffffffffffffffff\n      and\n      0xffffffffffffffffffffffffffffffffffffffff\n      and\n      dup2\n      mstore\n      0x20\n      add\n      0x04\n      dup3\n      add\n      sload\n      dup2\n      mstore\n      0x20\n      add\n      0x05\n      dup3\n      add\n      0x00\n      swap1\n      sload\n      swap1\n      0x0100\n      exp\n      swap1\n      div\n      0xff\n      and\n      0x01\n      dup2\n      gt\n      iszero\n      tag_120\n      jumpi\n      tag_121\n      tag_122\n      jump\t// in\n    tag_121:\n    tag_120:\n      0x01\n      dup2\n      gt\n      iszero\n      tag_123\n      jumpi\n      tag_124\n      tag_122\n      jump\t// in\n    tag_124:\n    tag_123:\n      dup2\n      mstore\n      pop\n      pop\n      swap1\n      pop\n        /* \"contracts/Marketplace2/Marketplace.sol\":20115:20116  0 */\n      0x00\n        /* \"contracts/Marketplace2/Marketplace.sol\":20100:20104  item */\n      dup2\n        /* \"contracts/Marketplace2/Marketplace.sol\":20100:20111  item.itemId */\n      0x00\n      add\n      mload\n        /* \"contracts/Marketplace2/Marketplace.sol\":20100:20116  item.itemId != 0 */\n      sub\n        /* \"contracts/Marketplace2/Marketplace.sol\":20092:20140  require(item.itemId != 0, \"Asset not published\") */\n      tag_125\n      jumpi\n      mload(0x40)\n      0x08c379a000000000000000000000000000000000000000000000000000000000\n      dup2\n      mstore\n      0x04\n      add\n      tag_126\n      swap1\n      tag_127\n      jump\t// in\n    tag_126:\n      mload(0x40)\n      dup1\n      swap2\n      sub\n      swap1\n      revert\n    tag_125:\n        /* \"contracts/Marketplace2/Marketplace.sol\":20173:20191  ItemStatus.SELLING */\n      0x01\n        /* \"contracts/Marketplace2/Marketplace.sol\":20158:20191  item.status == ItemStatus.SELLING */\n      dup1\n      dup2\n      gt\n      iszero\n      tag_128\n      jumpi\n      tag_129\n      tag_122\n      jump\t// in\n    tag_129:\n    tag_128:\n        /* \"contracts/Marketplace2/Marketplace.sol\":20158:20162  item */\n      dup2\n        /* \"contracts/Marketplace2/Marketplace.sol\":20158:20169  item.status */\n      0xa0\n      add\n      mload\n        /* \"contracts/Marketplace2/Marketplace.sol\":20158:20191  item.status == ItemStatus.SELLING */\n      0x01\n      dup2\n      gt\n      iszero\n      tag_130\n      jumpi\n      tag_131\n      tag_122\n      jump\t// in\n    tag_131:\n    tag_130:\n      eq\n        /* \"contracts/Marketplace2/Marketplace.sol\":20150:20210  require(item.status == ItemStatus.SELLING, \"Asset delisted\") */\n      tag_132\n      jumpi\n      mload(0x40)\n      0x08c379a000000000000000000000000000000000000000000000000000000000\n      dup2\n      mstore\n      0x04\n      add\n      tag_133\n      swap1\n      tag_134\n      jump\t// in\n    tag_133:\n      mload(0x40)\n      dup1\n      swap2\n      sub\n      swap1\n      revert\n    tag_132:\n        /* \"contracts/Marketplace2/Marketplace.sol\":20221:20235  address seller */\n      0x00\n        /* \"contracts/Marketplace2/Marketplace.sol\":20238:20242  item */\n      dup2\n        /* \"contracts/Marketplace2/Marketplace.sol\":20238:20249  item.seller */\n      0x40\n      add\n      mload\n        /* \"contracts/Marketplace2/Marketplace.sol\":20221:20249  address seller = item.seller */\n      swap1\n      pop\n        /* \"contracts/Marketplace2/Marketplace.sol\":20285:20286  0 */\n      0x00\n        /* \"contracts/Marketplace2/Marketplace.sol\":20267:20287  seller != address(0) */\n      0xffffffffffffffffffffffffffffffffffffffff\n      and\n        /* \"contracts/Marketplace2/Marketplace.sol\":20267:20273  seller */\n      dup2\n        /* \"contracts/Marketplace2/Marketplace.sol\":20267:20287  seller != address(0) */\n      0xffffffffffffffffffffffffffffffffffffffff\n      and\n      sub\n        /* \"contracts/Marketplace2/Marketplace.sol\":20259:20307  require(seller != address(0), \"Invalid address\") */\n      tag_135\n      jumpi\n      mload(0x40)\n      0x08c379a000000000000000000000000000000000000000000000000000000000\n      dup2\n      mstore\n      0x04\n      add\n      tag_136\n      swap1\n      tag_137\n      jump\t// in\n    tag_136:\n      mload(0x40)\n      dup1\n      swap2\n      sub\n      swap1\n      revert\n    tag_135:\n        /* \"contracts/Marketplace2/Marketplace.sol\":20348:20358  msg.sender */\n      caller\n        /* \"contracts/Marketplace2/Marketplace.sol\":20338:20358  seller == msg.sender */\n      0xffffffffffffffffffffffffffffffffffffffff\n      and\n        /* \"contracts/Marketplace2/Marketplace.sol\":20338:20344  seller */\n      dup2\n        /* \"contracts/Marketplace2/Marketplace.sol\":20338:20358  seller == msg.sender */\n      0xffffffffffffffffffffffffffffffffffffffff\n      and\n      eq\n        /* \"contracts/Marketplace2/Marketplace.sol\":20317:20406  require(... */\n      tag_138\n      jumpi\n      mload(0x40)\n      0x08c379a000000000000000000000000000000000000000000000000000000000\n      dup2\n      mstore\n      0x04\n      add\n      tag_139\n      swap1\n      tag_140\n      jump\t// in\n    tag_139:\n      mload(0x40)\n      dup1\n      swap2\n      sub\n      swap1\n      revert\n    tag_138:\n        /* \"contracts/Marketplace2/Marketplace.sol\":20416:20424  mainNFTs */\n      0x0b\n      0x00\n      swap1\n      sload\n      swap1\n      0x0100\n      exp\n      swap1\n      div\n      0xffffffffffffffffffffffffffffffffffffffff\n      and\n        /* \"contracts/Marketplace2/Marketplace.sol\":20416:20441  mainNFTs.safeTransferFrom */\n      0xffffffffffffffffffffffffffffffffffffffff\n      and\n      0x42842e0e\n        /* \"contracts/Marketplace2/Marketplace.sol\":20450:20454  this */\n      address\n        /* \"contracts/Marketplace2/Marketplace.sol\":20457:20463  seller */\n      dup4\n        /* \"contracts/Marketplace2/Marketplace.sol\":20465:20471  itemId */\n      dup8\n        /* \"contracts/Marketplace2/Marketplace.sol\":20416:20472  mainNFTs.safeTransferFrom(address(this), seller, itemId) */\n      mload(0x40)\n      dup5\n      0xffffffff\n      and\n      0xe0\n      shl\n      dup2\n      mstore\n      0x04\n      add\n      tag_141\n      swap4\n      swap3\n      swap2\n      swap1\n      tag_142\n      jump\t// in\n    tag_141:\n      0x00\n      mload(0x40)\n      dup1\n      dup4\n      sub\n      dup2\n      0x00\n      dup8\n      dup1\n      extcodesize\n      iszero\n      dup1\n      iszero\n      tag_143\n      jumpi\n      0x00\n      dup1\n      revert\n    tag_143:\n      pop\n      gas\n      call\n      iszero\n      dup1\n      iszero\n      tag_145\n      jumpi\n      returndatasize\n      0x00\n      dup1\n      returndatacopy\n      revert(0x00, returndatasize)\n    tag_145:\n      pop\n      pop\n      pop\n      pop\n        /* \"contracts/Marketplace2/Marketplace.sol\":20496:20512  ItemStatus.AVAIL */\n      0x00\n        /* \"contracts/Marketplace2/Marketplace.sol\":20482:20486  item */\n      dup3\n        /* \"contracts/Marketplace2/Marketplace.sol\":20482:20493  item.status */\n      0xa0\n      add\n        /* \"contracts/Marketplace2/Marketplace.sol\":20482:20512  item.status = ItemStatus.AVAIL */\n      swap1\n      0x01\n      dup2\n      gt\n      iszero\n      tag_146\n      jumpi\n      tag_147\n      tag_122\n      jump\t// in\n    tag_147:\n    tag_146:\n      swap1\n      dup2\n      0x01\n      dup2\n      gt\n      iszero\n      tag_148\n      jumpi\n      tag_149\n      tag_122\n      jump\t// in\n    tag_149:\n    tag_148:\n      dup2\n      mstore\n      pop\n      pop\n        /* \"contracts/Marketplace2/Marketplace.sol\":20529:20543  idToMarketItem */\n      0x0f\n        /* \"contracts/Marketplace2/Marketplace.sol\":20529:20551  idToMarketItem[itemId] */\n      0x00\n        /* \"contracts/Marketplace2/Marketplace.sol\":20544:20550  itemId */\n      dup6\n        /* \"contracts/Marketplace2/Marketplace.sol\":20529:20551  idToMarketItem[itemId] */\n      dup2\n      mstore\n      0x20\n      add\n      swap1\n      dup2\n      mstore\n      0x20\n      add\n      0x00\n      keccak256\n      0x00\n        /* \"contracts/Marketplace2/Marketplace.sol\":20522:20551  delete idToMarketItem[itemId] */\n      dup1\n      dup3\n      add\n      0x00\n      swap1\n      sstore\n      0x01\n      dup3\n      add\n      0x00\n      swap1\n      sstore\n      0x02\n      dup3\n      add\n      exp(0x0100, 0x00)\n      dup2\n      sload\n      swap1\n      0xffffffffffffffffffffffffffffffffffffffff\n      mul\n      not\n      and\n      swap1\n      sstore\n      0x03\n      dup3\n      add\n      exp(0x0100, 0x00)\n      dup2\n      sload\n      swap1\n      0xffffffffffffffffffffffffffffffffffffffff\n      mul\n      not\n      and\n      swap1\n      sstore\n      0x04\n      dup3\n      add\n      0x00\n      swap1\n      sstore\n      0x05\n      dup3\n      add\n      exp(0x0100, 0x00)\n      dup2\n      sload\n      swap1\n      0xff\n      mul\n      not\n      and\n      swap1\n      sstore\n      pop\n      pop\n        /* \"contracts/Marketplace2/Marketplace.sol\":20645:20653  deleteBy */\n      dup3\n        /* \"contracts/Marketplace2/Marketplace.sol\":20566:20692  DelistItemSuccessful(... */\n      0xffffffffffffffffffffffffffffffffffffffff\n      and\n        /* \"contracts/Marketplace2/Marketplace.sol\":20625:20631  itemId */\n      dup5\n        /* \"contracts/Marketplace2/Marketplace.sol\":20566:20692  DelistItemSuccessful(... */\n      0x72ffc2a266acba5f77e2b49400103cb61b428f37a97057ebe671e83fddd71e67\n        /* \"contracts/Marketplace2/Marketplace.sol\":20600:20604  item */\n      dup5\n        /* \"contracts/Marketplace2/Marketplace.sol\":20600:20611  item.itemId */\n      0x00\n      add\n      mload\n        /* \"contracts/Marketplace2/Marketplace.sol\":20667:20682  block.timestamp */\n      timestamp\n        /* \"contracts/Marketplace2/Marketplace.sol\":20566:20692  DelistItemSuccessful(... */\n      mload(0x40)\n      tag_150\n      swap3\n      swap2\n      swap1\n      tag_151\n      jump\t// in\n    tag_150:\n      mload(0x40)\n      dup1\n      swap2\n      sub\n      swap1\n      log3\n        /* \"contracts/Marketplace2/Marketplace.sol\":19984:20699  {... */\n      pop\n      pop\n      pop\n        /* \"contracts/Marketplace2/Marketplace.sol\":19941:20699  function delistItem(uint256 itemId) public {... */\n      pop\n      jump\t// out\n        /* \"contracts/Marketplace2/Marketplace.sol\":18027:18129  function setMainNFT(address _address) external onlyOwner {... */\n    tag_34:\n        /* \"contracts/Marketplace2/Marketplace.sol\":1899:1911  _msgSender() */\n      tag_153\n        /* \"contracts/Marketplace2/Marketplace.sol\":1899:1909  _msgSender */\n      tag_154\n        /* \"contracts/Marketplace2/Marketplace.sol\":1899:1911  _msgSender() */\n      jump\t// in\n    tag_153:\n        /* \"contracts/Marketplace2/Marketplace.sol\":1888:1911  owner() == _msgSender() */\n      0xffffffffffffffffffffffffffffffffffffffff\n      and\n        /* \"contracts/Marketplace2/Marketplace.sol\":1888:1895  owner() */\n      tag_155\n        /* \"contracts/Marketplace2/Marketplace.sol\":1888:1893  owner */\n      tag_78\n        /* \"contracts/Marketplace2/Marketplace.sol\":1888:1895  owner() */\n      jump\t// in\n    tag_155:\n        /* \"contracts/Marketplace2/Marketplace.sol\":1888:1911  owner() == _msgSender() */\n      0xffffffffffffffffffffffffffffffffffffffff\n      and\n      eq\n        /* \"contracts/Marketplace2/Marketplace.sol\":1880:1948  require(owner() == _msgSender(), \"Ownable: caller is not the owner\") */\n      tag_156\n      jumpi\n      mload(0x40)\n      0x08c379a000000000000000000000000000000000000000000000000000000000\n      dup2\n      mstore\n      0x04\n      add\n      tag_157\n      swap1\n      tag_158\n      jump\t// in\n    tag_157:\n      mload(0x40)\n      dup1\n      swap2\n      sub\n      swap1\n      revert\n    tag_156:\n        /* \"contracts/Marketplace2/Marketplace.sol\":18113:18121  _address */\n      dup1\n        /* \"contracts/Marketplace2/Marketplace.sol\":18094:18102  mainNFTs */\n      0x0b\n      0x00\n        /* \"contracts/Marketplace2/Marketplace.sol\":18094:18122  mainNFTs = IERC721(_address) */\n      0x0100\n      exp\n      dup2\n      sload\n      dup2\n      0xffffffffffffffffffffffffffffffffffffffff\n      mul\n      not\n      and\n      swap1\n      dup4\n      0xffffffffffffffffffffffffffffffffffffffff\n      and\n      mul\n      or\n      swap1\n      sstore\n      pop\n        /* \"contracts/Marketplace2/Marketplace.sol\":18027:18129  function setMainNFT(address _address) external onlyOwner {... */\n      pop\n      jump\t// out\n        /* \"contracts/Marketplace2/Marketplace.sol\":17918:18022  function setMainToken(address _address) external onlyOwner {... */\n    tag_38:\n        /* \"contracts/Marketplace2/Marketplace.sol\":1899:1911  _msgSender() */\n      tag_161\n        /* \"contracts/Marketplace2/Marketplace.sol\":1899:1909  _msgSender */\n      tag_154\n        /* \"contracts/Marketplace2/Marketplace.sol\":1899:1911  _msgSender() */\n      jump\t// in\n    tag_161:\n        /* \"contracts/Marketplace2/Marketplace.sol\":1888:1911  owner() == _msgSender() */\n      0xffffffffffffffffffffffffffffffffffffffff\n      and\n        /* \"contracts/Marketplace2/Marketplace.sol\":1888:1895  owner() */\n      tag_162\n        /* \"contracts/Marketplace2/Marketplace.sol\":1888:1893  owner */\n      tag_78\n        /* \"contracts/Marketplace2/Marketplace.sol\":1888:1895  owner() */\n      jump\t// in\n    tag_162:\n        /* \"contracts/Marketplace2/Marketplace.sol\":1888:1911  owner() == _msgSender() */\n      0xffffffffffffffffffffffffffffffffffffffff\n      and\n      eq\n        /* \"contracts/Marketplace2/Marketplace.sol\":1880:1948  require(owner() == _msgSender(), \"Ownable: caller is not the owner\") */\n      tag_163\n      jumpi\n      mload(0x40)\n      0x08c379a000000000000000000000000000000000000000000000000000000000\n      dup2\n      mstore\n      0x04\n      add\n      tag_164\n      swap1\n      tag_158\n      jump\t// in\n    tag_164:\n      mload(0x40)\n      dup1\n      swap2\n      sub\n      swap1\n      revert\n    tag_163:\n        /* \"contracts/Marketplace2/Marketplace.sol\":18006:18014  _address */\n      dup1\n        /* \"contracts/Marketplace2/Marketplace.sol\":17987:17996  mainToken */\n      0x09\n      0x00\n        /* \"contracts/Marketplace2/Marketplace.sol\":17987:18015  mainToken = IERC20(_address) */\n      0x0100\n      exp\n      dup2\n      sload\n      dup2\n      0xffffffffffffffffffffffffffffffffffffffff\n      mul\n      not\n      and\n      swap1\n      dup4\n      0xffffffffffffffffffffffffffffffffffffffff\n      and\n      mul\n      or\n      swap1\n      sstore\n      pop\n        /* \"contracts/Marketplace2/Marketplace.sol\":17918:18022  function setMainToken(address _address) external onlyOwner {... */\n      pop\n      jump\t// out\n        /* \"contracts/Marketplace2/Marketplace.sol\":16124:16184  bytes4 public constant ERC721_Interface = bytes4(0x80ac58cd) */\n    tag_41:\n        /* \"contracts/Marketplace2/Marketplace.sol\":16173:16183  0x80ac58cd */\n      0x80ac58cd\n        /* \"contracts/Marketplace2/Marketplace.sol\":16166:16184  bytes4(0x80ac58cd) */\n      0xe0\n      shl\n        /* \"contracts/Marketplace2/Marketplace.sol\":16124:16184  bytes4 public constant ERC721_Interface = bytes4(0x80ac58cd) */\n      dup2\n      jump\t// out\n        /* \"contracts/Marketplace2/Marketplace.sol\":18339:19116  function createMarketItem(... */\n    tag_47:\n        /* \"contracts/Marketplace2/Marketplace.sol\":14165:14166  2 */\n      0x02\n        /* \"contracts/Marketplace2/Marketplace.sol\":14746:14753  _status */\n      sload(0x00)\n        /* \"contracts/Marketplace2/Marketplace.sol\":14746:14765  _status != _ENTERED */\n      sub\n        /* \"contracts/Marketplace2/Marketplace.sol\":14738:14801  require(_status != _ENTERED, \"ReentrancyGuard: reentrant call\") */\n      tag_167\n      jumpi\n      mload(0x40)\n      0x08c379a000000000000000000000000000000000000000000000000000000000\n      dup2\n      mstore\n      0x04\n      add\n      tag_168\n      swap1\n      tag_169\n      jump\t// in\n    tag_168:\n      mload(0x40)\n      dup1\n      swap2\n      sub\n      swap1\n      revert\n    tag_167:\n        /* \"contracts/Marketplace2/Marketplace.sol\":14165:14166  2 */\n      0x02\n        /* \"contracts/Marketplace2/Marketplace.sol\":14876:14883  _status */\n      0x00\n        /* \"contracts/Marketplace2/Marketplace.sol\":14876:14894  _status = _ENTERED */\n      dup2\n      swap1\n      sstore\n      pop\n        /* \"contracts/Marketplace2/Marketplace.sol\":18459:18460  0 */\n      0x00\n        /* \"contracts/Marketplace2/Marketplace.sol\":18451:18456  price */\n      dup2\n        /* \"contracts/Marketplace2/Marketplace.sol\":18451:18460  price > 0 */\n      gt\n        /* \"contracts/Marketplace2/Marketplace.sol\":18443:18493  require(price > 0, \"Price must be at least 1 wei\") */\n      tag_171\n      jumpi\n      mload(0x40)\n      0x08c379a000000000000000000000000000000000000000000000000000000000\n      dup2\n      mstore\n      0x04\n      add\n      tag_172\n      swap1\n      tag_173\n      jump\t// in\n    tag_172:\n      mload(0x40)\n      dup1\n      swap2\n      sub\n      swap1\n      revert\n    tag_171:\n        /* \"contracts/Marketplace2/Marketplace.sol\":18499:18533  StructLib.ingameItems memory _item */\n      0x00\n        /* \"contracts/Marketplace2/Marketplace.sol\":18536:18543  factory */\n      0x0a\n      0x00\n      swap1\n      sload\n      swap1\n      0x0100\n      exp\n      swap1\n      div\n      0xffffffffffffffffffffffffffffffffffffffff\n      and\n        /* \"contracts/Marketplace2/Marketplace.sol\":18536:18557  factory.getIngameItem */\n      0xffffffffffffffffffffffffffffffffffffffff\n      and\n      0x03ce1cb5\n        /* \"contracts/Marketplace2/Marketplace.sol\":18558:18565  tokenId */\n      dup5\n        /* \"contracts/Marketplace2/Marketplace.sol\":18536:18566  factory.getIngameItem(tokenId) */\n      mload(0x40)\n      dup3\n      0xffffffff\n      and\n      0xe0\n      shl\n      dup2\n      mstore\n      0x04\n      add\n      tag_174\n      swap2\n      swap1\n      tag_104\n      jump\t// in\n    tag_174:\n      0x00\n      mload(0x40)\n      dup1\n      dup4\n      sub\n      dup2\n      dup7\n      gas\n      staticcall\n      iszero\n      dup1\n      iszero\n      tag_176\n      jumpi\n      returndatasize\n      0x00\n      dup1\n      returndatacopy\n      revert(0x00, returndatasize)\n    tag_176:\n      pop\n      pop\n      pop\n      pop\n      mload(0x40)\n      returndatasize\n      0x00\n      dup3\n      returndatacopy\n      returndatasize\n      not(0x1f)\n      0x1f\n      dup3\n      add\n      and\n      dup3\n      add\n      dup1\n      0x40\n      mstore\n      pop\n      dup2\n      add\n      swap1\n      tag_177\n      swap2\n      swap1\n      tag_178\n      jump\t// in\n    tag_177:\n        /* \"contracts/Marketplace2/Marketplace.sol\":18499:18566  StructLib.ingameItems memory _item = factory.getIngameItem(tokenId) */\n      swap1\n      pop\n        /* \"contracts/Marketplace2/Marketplace.sol\":18596:18601  false */\n      0x00\n        /* \"contracts/Marketplace2/Marketplace.sol\":18580:18601  _item.ingame == false */\n      iszero\n      iszero\n        /* \"contracts/Marketplace2/Marketplace.sol\":18580:18585  _item */\n      dup2\n        /* \"contracts/Marketplace2/Marketplace.sol\":18580:18592  _item.ingame */\n      0x80\n      add\n      mload\n        /* \"contracts/Marketplace2/Marketplace.sol\":18580:18601  _item.ingame == false */\n      iszero\n      iszero\n      eq\n        /* \"contracts/Marketplace2/Marketplace.sol\":18572:18634  require(_item.ingame == false, \"Item is not available now !\" ) */\n      tag_179\n      jumpi\n      mload(0x40)\n      0x08c379a000000000000000000000000000000000000000000000000000000000\n      dup2\n      mstore\n      0x04\n      add\n      tag_180\n      swap1\n      tag_181\n      jump\t// in\n    tag_180:\n      mload(0x40)\n      dup1\n      swap2\n      sub\n      swap1\n      revert\n    tag_179:\n        /* \"contracts/Marketplace2/Marketplace.sol\":18640:18647  factory */\n      0x0a\n      0x00\n      swap1\n      sload\n      swap1\n      0x0100\n      exp\n      swap1\n      div\n      0xffffffffffffffffffffffffffffffffffffffff\n      and\n        /* \"contracts/Marketplace2/Marketplace.sol\":18640:18666  factory.setOwnerIngameItem */\n      0xffffffffffffffffffffffffffffffffffffffff\n      and\n      0xc1e9518a\n        /* \"contracts/Marketplace2/Marketplace.sol\":18675:18685  msg.sender */\n      caller\n        /* \"contracts/Marketplace2/Marketplace.sol\":18695:18699  this */\n      address\n        /* \"contracts/Marketplace2/Marketplace.sol\":18702:18709  tokenId */\n      dup7\n        /* \"contracts/Marketplace2/Marketplace.sol\":18640:18710  factory.setOwnerIngameItem(payable(msg.sender),address(this), tokenId) */\n      mload(0x40)\n      dup5\n      0xffffffff\n      and\n      0xe0\n      shl\n      dup2\n      mstore\n      0x04\n      add\n      tag_182\n      swap4\n      swap3\n      swap2\n      swap1\n      tag_183\n      jump\t// in\n    tag_182:\n      0x00\n      mload(0x40)\n      dup1\n      dup4\n      sub\n      dup2\n      0x00\n      dup8\n      dup1\n      extcodesize\n      iszero\n      dup1\n      iszero\n      tag_184\n      jumpi\n      0x00\n      dup1\n      revert\n    tag_184:\n      pop\n      gas\n      call\n      iszero\n      dup1\n      iszero\n      tag_186\n      jumpi\n      returndatasize\n      0x00\n      dup1\n      returndatacopy\n      revert(0x00, returndatasize)\n    tag_186:\n      pop\n      pop\n      pop\n      pop\n        /* \"contracts/Marketplace2/Marketplace.sol\":18716:18724  mainNFTs */\n      0x0b\n      0x00\n      swap1\n      sload\n      swap1\n      0x0100\n      exp\n      swap1\n      div\n      0xffffffffffffffffffffffffffffffffffffffff\n      and\n        /* \"contracts/Marketplace2/Marketplace.sol\":18716:18737  mainNFTs.transferFrom */\n      0xffffffffffffffffffffffffffffffffffffffff\n      and\n      0x23b872dd\n        /* \"contracts/Marketplace2/Marketplace.sol\":18738:18748  msg.sender */\n      caller\n        /* \"contracts/Marketplace2/Marketplace.sol\":18758:18762  this */\n      address\n        /* \"contracts/Marketplace2/Marketplace.sol\":18765:18772  tokenId */\n      dup7\n        /* \"contracts/Marketplace2/Marketplace.sol\":18716:18773  mainNFTs.transferFrom(msg.sender, address(this), tokenId) */\n      mload(0x40)\n      dup5\n      0xffffffff\n      and\n      0xe0\n      shl\n      dup2\n      mstore\n      0x04\n      add\n      tag_187\n      swap4\n      swap3\n      swap2\n      swap1\n      tag_142\n      jump\t// in\n    tag_187:\n      0x00\n      mload(0x40)\n      dup1\n      dup4\n      sub\n      dup2\n      0x00\n      dup8\n      dup1\n      extcodesize\n      iszero\n      dup1\n      iszero\n      tag_188\n      jumpi\n      0x00\n      dup1\n      revert\n    tag_188:\n      pop\n      gas\n      call\n      iszero\n      dup1\n      iszero\n      tag_190\n      jumpi\n      returndatasize\n      0x00\n      dup1\n      returndatacopy\n      revert(0x00, returndatasize)\n    tag_190:\n      pop\n      pop\n      pop\n      pop\n        /* \"contracts/Marketplace2/Marketplace.sol\":18779:18793  uint256 itemId */\n      0x00\n        /* \"contracts/Marketplace2/Marketplace.sol\":18796:18814  _itemIds.current() */\n      tag_191\n        /* \"contracts/Marketplace2/Marketplace.sol\":18796:18804  _itemIds */\n      0x0d\n        /* \"contracts/Marketplace2/Marketplace.sol\":18796:18812  _itemIds.current */\n      tag_192\n        /* \"contracts/Marketplace2/Marketplace.sol\":18796:18814  _itemIds.current() */\n      jump\t// in\n    tag_191:\n        /* \"contracts/Marketplace2/Marketplace.sol\":18779:18814  uint256 itemId = _itemIds.current() */\n      swap1\n      pop\n        /* \"contracts/Marketplace2/Marketplace.sol\":18846:18969  MarketItem(... */\n      mload(0x40)\n      dup1\n      0xc0\n      add\n      0x40\n      mstore\n      dup1\n        /* \"contracts/Marketplace2/Marketplace.sol\":18864:18870  itemId */\n      dup3\n        /* \"contracts/Marketplace2/Marketplace.sol\":18846:18969  MarketItem(... */\n      dup2\n      mstore\n      0x20\n      add\n        /* \"contracts/Marketplace2/Marketplace.sol\":18878:18885  tokenId */\n      dup6\n        /* \"contracts/Marketplace2/Marketplace.sol\":18846:18969  MarketItem(... */\n      dup2\n      mstore\n      0x20\n      add\n        /* \"contracts/Marketplace2/Marketplace.sol\":18893:18903  msg.sender */\n      caller\n        /* \"contracts/Marketplace2/Marketplace.sol\":18846:18969  MarketItem(... */\n      0xffffffffffffffffffffffffffffffffffffffff\n      and\n      dup2\n      mstore\n      0x20\n      add\n        /* \"contracts/Marketplace2/Marketplace.sol\":18919:18923  this */\n      address\n        /* \"contracts/Marketplace2/Marketplace.sol\":18846:18969  MarketItem(... */\n      0xffffffffffffffffffffffffffffffffffffffff\n      and\n      dup2\n      mstore\n      0x20\n      add\n        /* \"contracts/Marketplace2/Marketplace.sol\":18932:18937  price */\n      dup5\n        /* \"contracts/Marketplace2/Marketplace.sol\":18846:18969  MarketItem(... */\n      dup2\n      mstore\n      0x20\n      add\n        /* \"contracts/Marketplace2/Marketplace.sol\":18945:18963  ItemStatus.SELLING */\n      0x01\n        /* \"contracts/Marketplace2/Marketplace.sol\":18846:18969  MarketItem(... */\n      dup1\n      dup2\n      gt\n      iszero\n      tag_193\n      jumpi\n      tag_194\n      tag_122\n      jump\t// in\n    tag_194:\n    tag_193:\n      dup2\n      mstore\n      pop\n        /* \"contracts/Marketplace2/Marketplace.sol\":18820:18834  idToMarketItem */\n      0x0f\n        /* \"contracts/Marketplace2/Marketplace.sol\":18820:18842  idToMarketItem[itemId] */\n      0x00\n        /* \"contracts/Marketplace2/Marketplace.sol\":18835:18841  itemId */\n      dup4\n        /* \"contracts/Marketplace2/Marketplace.sol\":18820:18842  idToMarketItem[itemId] */\n      dup2\n      mstore\n      0x20\n      add\n      swap1\n      dup2\n      mstore\n      0x20\n      add\n      0x00\n      keccak256\n        /* \"contracts/Marketplace2/Marketplace.sol\":18820:18969  idToMarketItem[itemId] =  MarketItem(... */\n      0x00\n      dup3\n      add\n      mload\n      dup2\n      0x00\n      add\n      sstore\n      0x20\n      dup3\n      add\n      mload\n      dup2\n      0x01\n      add\n      sstore\n      0x40\n      dup3\n      add\n      mload\n      dup2\n      0x02\n      add\n      exp(0x0100, 0x00)\n      dup2\n      sload\n      dup2\n      0xffffffffffffffffffffffffffffffffffffffff\n      mul\n      not\n      and\n      swap1\n      dup4\n      0xffffffffffffffffffffffffffffffffffffffff\n      and\n      mul\n      or\n      swap1\n      sstore\n      pop\n      0x60\n      dup3\n      add\n      mload\n      dup2\n      0x03\n      add\n      exp(0x0100, 0x00)\n      dup2\n      sload\n      dup2\n      0xffffffffffffffffffffffffffffffffffffffff\n      mul\n      not\n      and\n      swap1\n      dup4\n      0xffffffffffffffffffffffffffffffffffffffff\n      and\n      mul\n      or\n      swap1\n      sstore\n      pop\n      0x80\n      dup3\n      add\n      mload\n      dup2\n      0x04\n      add\n      sstore\n      0xa0\n      dup3\n      add\n      mload\n      dup2\n      0x05\n      add\n      exp(0x0100, 0x00)\n      dup2\n      sload\n      dup2\n      0xff\n      mul\n      not\n      and\n      swap1\n      dup4\n      0x01\n      dup2\n      gt\n      iszero\n      tag_195\n      jumpi\n      tag_196\n      tag_122\n      jump\t// in\n    tag_196:\n    tag_195:\n      mul\n      or\n      swap1\n      sstore\n      pop\n      swap1\n      pop\n      pop\n        /* \"contracts/Marketplace2/Marketplace.sol\":18975:18995  _itemIds.increment() */\n      tag_197\n        /* \"contracts/Marketplace2/Marketplace.sol\":18975:18983  _itemIds */\n      0x0d\n        /* \"contracts/Marketplace2/Marketplace.sol\":18975:18993  _itemIds.increment */\n      tag_198\n        /* \"contracts/Marketplace2/Marketplace.sol\":18975:18995  _itemIds.increment() */\n      jump\t// in\n    tag_197:\n        /* \"contracts/Marketplace2/Marketplace.sol\":19046:19053  tokenId */\n      dup4\n        /* \"contracts/Marketplace2/Marketplace.sol\":19032:19038  itemId */\n      dup2\n        /* \"contracts/Marketplace2/Marketplace.sol\":19007:19111  MarketItemCreated(... */\n      0x38690a554ffbc44eb6a75016e47d517d0db8e6c37494adc68d6d0b2c66f0ab21\n        /* \"contracts/Marketplace2/Marketplace.sol\":19061:19071  msg.sender */\n      caller\n        /* \"contracts/Marketplace2/Marketplace.sol\":19087:19091  this */\n      address\n        /* \"contracts/Marketplace2/Marketplace.sol\":19100:19105  price */\n      dup8\n        /* \"contracts/Marketplace2/Marketplace.sol\":19007:19111  MarketItemCreated(... */\n      mload(0x40)\n      tag_199\n      swap4\n      swap3\n      swap2\n      swap1\n      tag_142\n      jump\t// in\n    tag_199:\n      mload(0x40)\n      dup1\n      swap2\n      sub\n      swap1\n      log3\n        /* \"contracts/Marketplace2/Marketplace.sol\":18437:19116  {... */\n      pop\n      pop\n        /* \"contracts/Marketplace2/Marketplace.sol\":14122:14123  1 */\n      0x01\n        /* \"contracts/Marketplace2/Marketplace.sol\":15049:15056  _status */\n      0x00\n        /* \"contracts/Marketplace2/Marketplace.sol\":15049:15071  _status = _NOT_ENTERED */\n      dup2\n      swap1\n      sstore\n      pop\n        /* \"contracts/Marketplace2/Marketplace.sol\":18339:19116  function createMarketItem(... */\n      pop\n      pop\n      jump\t// out\n        /* \"contracts/Marketplace2/Marketplace.sol\":16385:16408  IERC20 public mainToken */\n    tag_50:\n      0x09\n      0x00\n      swap1\n      sload\n      swap1\n      0x0100\n      exp\n      swap1\n      div\n      0xffffffffffffffffffffffffffffffffffffffff\n      and\n      dup2\n      jump\t// out\n        /* \"contracts/Marketplace2/Marketplace.sol\":16085:16117  MarketItem public allMarketItems */\n    tag_55:\n      0x01\n      dup1\n      0x00\n      add\n      sload\n      swap1\n      dup1\n      0x01\n      add\n      sload\n      swap1\n      dup1\n      0x02\n      add\n      0x00\n      swap1\n      sload\n      swap1\n      0x0100\n      exp\n      swap1\n      div\n      0xffffffffffffffffffffffffffffffffffffffff\n      and\n      swap1\n      dup1\n      0x03\n      add\n      0x00\n      swap1\n      sload\n      swap1\n      0x0100\n      exp\n      swap1\n      div\n      0xffffffffffffffffffffffffffffffffffffffff\n      and\n      swap1\n      dup1\n      0x04\n      add\n      sload\n      swap1\n      dup1\n      0x05\n      add\n      0x00\n      swap1\n      sload\n      swap1\n      0x0100\n      exp\n      swap1\n      div\n      0xff\n      and\n      swap1\n      pop\n      dup7\n      jump\t// out\n        /* \"contracts/Marketplace2/Marketplace.sol\":18134:18236  function setFactory(address _address) external onlyOwner {... */\n    tag_61:\n        /* \"contracts/Marketplace2/Marketplace.sol\":1899:1911  _msgSender() */\n      tag_201\n        /* \"contracts/Marketplace2/Marketplace.sol\":1899:1909  _msgSender */\n      tag_154\n        /* \"contracts/Marketplace2/Marketplace.sol\":1899:1911  _msgSender() */\n      jump\t// in\n    tag_201:\n        /* \"contracts/Marketplace2/Marketplace.sol\":1888:1911  owner() == _msgSender() */\n      0xffffffffffffffffffffffffffffffffffffffff\n      and\n        /* \"contracts/Marketplace2/Marketplace.sol\":1888:1895  owner() */\n      tag_202\n        /* \"contracts/Marketplace2/Marketplace.sol\":1888:1893  owner */\n      tag_78\n        /* \"contracts/Marketplace2/Marketplace.sol\":1888:1895  owner() */\n      jump\t// in\n    tag_202:\n        /* \"contracts/Marketplace2/Marketplace.sol\":1888:1911  owner() == _msgSender() */\n      0xffffffffffffffffffffffffffffffffffffffff\n      and\n      eq\n        /* \"contracts/Marketplace2/Marketplace.sol\":1880:1948  require(owner() == _msgSender(), \"Ownable: caller is not the owner\") */\n      tag_203\n      jumpi\n      mload(0x40)\n      0x08c379a000000000000000000000000000000000000000000000000000000000\n      dup2\n      mstore\n      0x04\n      add\n      tag_204\n      swap1\n      tag_158\n      jump\t// in\n    tag_204:\n      mload(0x40)\n      dup1\n      swap2\n      sub\n      swap1\n      revert\n    tag_203:\n        /* \"contracts/Marketplace2/Marketplace.sol\":18220:18228  _address */\n      dup1\n        /* \"contracts/Marketplace2/Marketplace.sol\":18201:18208  factory */\n      0x0a\n      0x00\n        /* \"contracts/Marketplace2/Marketplace.sol\":18201:18229  factory = IFactory(_address) */\n      0x0100\n      exp\n      dup2\n      sload\n      dup2\n      0xffffffffffffffffffffffffffffffffffffffff\n      mul\n      not\n      and\n      swap1\n      dup4\n      0xffffffffffffffffffffffffffffffffffffffff\n      and\n      mul\n      or\n      swap1\n      sstore\n      pop\n        /* \"contracts/Marketplace2/Marketplace.sol\":18134:18236  function setFactory(address _address) external onlyOwner {... */\n      pop\n      jump\t// out\n        /* \"contracts/Marketplace2/Marketplace.sol\":16315:16378  mapping(address => mapping(uint256 => MarketItem)) public items */\n    tag_66:\n      mstore(0x20, 0x08)\n      dup2\n      0x00\n      mstore\n      mstore(0x20, keccak256(0x00, 0x40))\n      dup1\n      0x00\n      mstore\n      keccak256(0x00, 0x40)\n      0x00\n      swap2\n      pop\n      swap2\n      pop\n      pop\n      dup1\n      0x00\n      add\n      sload\n      swap1\n      dup1\n      0x01\n      add\n      sload\n      swap1\n      dup1\n      0x02\n      add\n      0x00\n      swap1\n      sload\n      swap1\n      0x0100\n      exp\n      swap1\n      div\n      0xffffffffffffffffffffffffffffffffffffffff\n      and\n      swap1\n      dup1\n      0x03\n      add\n      0x00\n      swap1\n      sload\n      swap1\n      0x0100\n      exp\n      swap1\n      div\n      0xffffffffffffffffffffffffffffffffffffffff\n      and\n      swap1\n      dup1\n      0x04\n      add\n      sload\n      swap1\n      dup1\n      0x05\n      add\n      0x00\n      swap1\n      sload\n      swap1\n      0x0100\n      exp\n      swap1\n      div\n      0xff\n      and\n      swap1\n      pop\n      dup7\n      jump\t// out\n        /* \"contracts/Marketplace2/Marketplace.sol\":2308:2409  function renounceOwnership() public virtual onlyOwner {... */\n    tag_70:\n        /* \"contracts/Marketplace2/Marketplace.sol\":1899:1911  _msgSender() */\n      tag_207\n        /* \"contracts/Marketplace2/Marketplace.sol\":1899:1909  _msgSender */\n      tag_154\n        /* \"contracts/Marketplace2/Marketplace.sol\":1899:1911  _msgSender() */\n      jump\t// in\n    tag_207:\n        /* \"contracts/Marketplace2/Marketplace.sol\":1888:1911  owner() == _msgSender() */\n      0xffffffffffffffffffffffffffffffffffffffff\n      and\n        /* \"contracts/Marketplace2/Marketplace.sol\":1888:1895  owner() */\n      tag_208\n        /* \"contracts/Marketplace2/Marketplace.sol\":1888:1893  owner */\n      tag_78\n        /* \"contracts/Marketplace2/Marketplace.sol\":1888:1895  owner() */\n      jump\t// in\n    tag_208:\n        /* \"contracts/Marketplace2/Marketplace.sol\":1888:1911  owner() == _msgSender() */\n      0xffffffffffffffffffffffffffffffffffffffff\n      and\n      eq\n        /* \"contracts/Marketplace2/Marketplace.sol\":1880:1948  require(owner() == _msgSender(), \"Ownable: caller is not the owner\") */\n      tag_209\n      jumpi\n      mload(0x40)\n      0x08c379a000000000000000000000000000000000000000000000000000000000\n      dup2\n      mstore\n      0x04\n      add\n      tag_210\n      swap1\n      tag_158\n      jump\t// in\n    tag_210:\n      mload(0x40)\n      dup1\n      swap2\n      sub\n      swap1\n      revert\n    tag_209:\n        /* \"contracts/Marketplace2/Marketplace.sol\":2372:2402  _transferOwnership(address(0)) */\n      tag_212\n        /* \"contracts/Marketplace2/Marketplace.sol\":2399:2400  0 */\n      0x00\n        /* \"contracts/Marketplace2/Marketplace.sol\":2372:2390  _transferOwnership */\n      tag_213\n        /* \"contracts/Marketplace2/Marketplace.sol\":2372:2402  _transferOwnership(address(0)) */\n      jump\t// in\n    tag_212:\n        /* \"contracts/Marketplace2/Marketplace.sol\":2308:2409  function renounceOwnership() public virtual onlyOwner {... */\n      jump\t// out\n        /* \"contracts/Marketplace2/Marketplace.sol\":16473:16499  uint8 public bnbFeePercent */\n    tag_73:\n      0x0b\n      0x14\n      swap1\n      sload\n      swap1\n      0x0100\n      exp\n      swap1\n      div\n      0xff\n      and\n      dup2\n      jump\t// out\n        /* \"contracts/Marketplace2/Marketplace.sol\":1676:1761  function owner() public view virtual returns (address) {... */\n    tag_78:\n        /* \"contracts/Marketplace2/Marketplace.sol\":1722:1729  address */\n      0x00\n        /* \"contracts/Marketplace2/Marketplace.sol\":1748:1754  _owner */\n      0x0c\n      0x00\n      swap1\n      sload\n      swap1\n      0x0100\n      exp\n      swap1\n      div\n      0xffffffffffffffffffffffffffffffffffffffff\n      and\n        /* \"contracts/Marketplace2/Marketplace.sol\":1741:1754  return _owner */\n      swap1\n      pop\n        /* \"contracts/Marketplace2/Marketplace.sol\":1676:1761  function owner() public view virtual returns (address) {... */\n      swap1\n      jump\t// out\n        /* \"contracts/Marketplace2/Marketplace.sol\":19119:19937  function createMarketSale(... */\n    tag_84:\n        /* \"contracts/Marketplace2/Marketplace.sol\":19204:19214  uint price */\n      0x00\n        /* \"contracts/Marketplace2/Marketplace.sol\":19217:19231  idToMarketItem */\n      0x0f\n        /* \"contracts/Marketplace2/Marketplace.sol\":19217:19239  idToMarketItem[itemId] */\n      0x00\n        /* \"contracts/Marketplace2/Marketplace.sol\":19232:19238  itemId */\n      dup5\n        /* \"contracts/Marketplace2/Marketplace.sol\":19217:19239  idToMarketItem[itemId] */\n      dup2\n      mstore\n      0x20\n      add\n      swap1\n      dup2\n      mstore\n      0x20\n      add\n      0x00\n      keccak256\n        /* \"contracts/Marketplace2/Marketplace.sol\":19217:19245  idToMarketItem[itemId].price */\n      0x04\n      add\n      sload\n        /* \"contracts/Marketplace2/Marketplace.sol\":19204:19245  uint price = idToMarketItem[itemId].price */\n      swap1\n      pop\n        /* \"contracts/Marketplace2/Marketplace.sol\":19251:19263  uint tokenId */\n      0x00\n        /* \"contracts/Marketplace2/Marketplace.sol\":19266:19280  idToMarketItem */\n      0x0f\n        /* \"contracts/Marketplace2/Marketplace.sol\":19266:19288  idToMarketItem[itemId] */\n      0x00\n        /* \"contracts/Marketplace2/Marketplace.sol\":19281:19287  itemId */\n      dup6\n        /* \"contracts/Marketplace2/Marketplace.sol\":19266:19288  idToMarketItem[itemId] */\n      dup2\n      mstore\n      0x20\n      add\n      swap1\n      dup2\n      mstore\n      0x20\n      add\n      0x00\n      keccak256\n        /* \"contracts/Marketplace2/Marketplace.sol\":19266:19296  idToMarketItem[itemId].tokenId */\n      0x01\n      add\n      sload\n        /* \"contracts/Marketplace2/Marketplace.sol\":19251:19296  uint tokenId = idToMarketItem[itemId].tokenId */\n      swap1\n      pop\n        /* \"contracts/Marketplace2/Marketplace.sol\":19302:19316  address seller */\n      0x00\n        /* \"contracts/Marketplace2/Marketplace.sol\":19320:19334  idToMarketItem */\n      0x0f\n        /* \"contracts/Marketplace2/Marketplace.sol\":19320:19342  idToMarketItem[itemId] */\n      0x00\n        /* \"contracts/Marketplace2/Marketplace.sol\":19335:19341  itemId */\n      dup7\n        /* \"contracts/Marketplace2/Marketplace.sol\":19320:19342  idToMarketItem[itemId] */\n      dup2\n      mstore\n      0x20\n      add\n      swap1\n      dup2\n      mstore\n      0x20\n      add\n      0x00\n      keccak256\n        /* \"contracts/Marketplace2/Marketplace.sol\":19320:19349  idToMarketItem[itemId].seller */\n      0x02\n      add\n      0x00\n      swap1\n      sload\n      swap1\n      0x0100\n      exp\n      swap1\n      div\n      0xffffffffffffffffffffffffffffffffffffffff\n      and\n        /* \"contracts/Marketplace2/Marketplace.sol\":19302:19349  address seller =  idToMarketItem[itemId].seller */\n      swap1\n      pop\n        /* \"contracts/Marketplace2/Marketplace.sol\":19355:19388  StructLib.ingameItems memory item */\n      0x00\n        /* \"contracts/Marketplace2/Marketplace.sol\":19391:19398  factory */\n      0x0a\n      0x00\n      swap1\n      sload\n      swap1\n      0x0100\n      exp\n      swap1\n      div\n      0xffffffffffffffffffffffffffffffffffffffff\n      and\n        /* \"contracts/Marketplace2/Marketplace.sol\":19391:19412  factory.getIngameItem */\n      0xffffffffffffffffffffffffffffffffffffffff\n      and\n      0x03ce1cb5\n        /* \"contracts/Marketplace2/Marketplace.sol\":19413:19420  tokenId */\n      dup5\n        /* \"contracts/Marketplace2/Marketplace.sol\":19391:19421  factory.getIngameItem(tokenId) */\n      mload(0x40)\n      dup3\n      0xffffffff\n      and\n      0xe0\n      shl\n      dup2\n      mstore\n      0x04\n      add\n      tag_216\n      swap2\n      swap1\n      tag_104\n      jump\t// in\n    tag_216:\n      0x00\n      mload(0x40)\n      dup1\n      dup4\n      sub\n      dup2\n      dup7\n      gas\n      staticcall\n      iszero\n      dup1\n      iszero\n      tag_218\n      jumpi\n      returndatasize\n      0x00\n      dup1\n      returndatacopy\n      revert(0x00, returndatasize)\n    tag_218:\n      pop\n      pop\n      pop\n      pop\n      mload(0x40)\n      returndatasize\n      0x00\n      dup3\n      returndatacopy\n      returndatasize\n      not(0x1f)\n      0x1f\n      dup3\n      add\n      and\n      dup3\n      add\n      dup1\n      0x40\n      mstore\n      pop\n      dup2\n      add\n      swap1\n      tag_219\n      swap2\n      swap1\n      tag_178\n      jump\t// in\n    tag_219:\n        /* \"contracts/Marketplace2/Marketplace.sol\":19355:19421  StructLib.ingameItems memory item = factory.getIngameItem(tokenId) */\n      swap1\n      pop\n        /* \"contracts/Marketplace2/Marketplace.sol\":19445:19450  price */\n      dup4\n        /* \"contracts/Marketplace2/Marketplace.sol\":19435:19441  amount */\n      dup6\n        /* \"contracts/Marketplace2/Marketplace.sol\":19435:19450  amount == price */\n      eq\n        /* \"contracts/Marketplace2/Marketplace.sol\":19427:19519  require(amount == price, \"Please submit the asking price in order to complete the purchase\") */\n      tag_220\n      jumpi\n      mload(0x40)\n      0x08c379a000000000000000000000000000000000000000000000000000000000\n      dup2\n      mstore\n      0x04\n      add\n      tag_221\n      swap1\n      tag_222\n      jump\t// in\n    tag_221:\n      mload(0x40)\n      dup1\n      swap2\n      sub\n      swap1\n      revert\n    tag_220:\n        /* \"contracts/Marketplace2/Marketplace.sol\":19548:19553  false */\n      0x00\n        /* \"contracts/Marketplace2/Marketplace.sol\":19533:19553  item.ingame == false */\n      iszero\n      iszero\n        /* \"contracts/Marketplace2/Marketplace.sol\":19533:19537  item */\n      dup2\n        /* \"contracts/Marketplace2/Marketplace.sol\":19533:19544  item.ingame */\n      0x80\n      add\n      mload\n        /* \"contracts/Marketplace2/Marketplace.sol\":19533:19553  item.ingame == false */\n      iszero\n      iszero\n      eq\n        /* \"contracts/Marketplace2/Marketplace.sol\":19525:19585  require(item.ingame == false, \"Item is not available now !\") */\n      tag_223\n      jumpi\n      mload(0x40)\n      0x08c379a000000000000000000000000000000000000000000000000000000000\n      dup2\n      mstore\n      0x04\n      add\n      tag_224\n      swap1\n      tag_181\n      jump\t// in\n    tag_224:\n      mload(0x40)\n      dup1\n      swap2\n      sub\n      swap1\n      revert\n    tag_223:\n        /* \"contracts/Marketplace2/Marketplace.sol\":19591:19626  _safeBuyItem(itemId,amount,tokenId) */\n      tag_225\n        /* \"contracts/Marketplace2/Marketplace.sol\":19604:19610  itemId */\n      dup7\n        /* \"contracts/Marketplace2/Marketplace.sol\":19611:19617  amount */\n      dup7\n        /* \"contracts/Marketplace2/Marketplace.sol\":19618:19625  tokenId */\n      dup6\n        /* \"contracts/Marketplace2/Marketplace.sol\":19591:19603  _safeBuyItem */\n      tag_226\n        /* \"contracts/Marketplace2/Marketplace.sol\":19591:19626  _safeBuyItem(itemId,amount,tokenId) */\n      jump\t// in\n    tag_225:\n        /* \"contracts/Marketplace2/Marketplace.sol\":19671:19681  msg.sender */\n      caller\n        /* \"contracts/Marketplace2/Marketplace.sol\":19632:19646  idToMarketItem */\n      0x0f\n        /* \"contracts/Marketplace2/Marketplace.sol\":19632:19654  idToMarketItem[itemId] */\n      0x00\n        /* \"contracts/Marketplace2/Marketplace.sol\":19647:19653  itemId */\n      dup9\n        /* \"contracts/Marketplace2/Marketplace.sol\":19632:19654  idToMarketItem[itemId] */\n      dup2\n      mstore\n      0x20\n      add\n      swap1\n      dup2\n      mstore\n      0x20\n      add\n      0x00\n      keccak256\n        /* \"contracts/Marketplace2/Marketplace.sol\":19632:19660  idToMarketItem[itemId].owner */\n      0x03\n      add\n      0x00\n        /* \"contracts/Marketplace2/Marketplace.sol\":19632:19682  idToMarketItem[itemId].owner = address(msg.sender) */\n      0x0100\n      exp\n      dup2\n      sload\n      dup2\n      0xffffffffffffffffffffffffffffffffffffffff\n      mul\n      not\n      and\n      swap1\n      dup4\n      0xffffffffffffffffffffffffffffffffffffffff\n      and\n      mul\n      or\n      swap1\n      sstore\n      pop\n        /* \"contracts/Marketplace2/Marketplace.sol\":19720:19736  ItemStatus.AVAIL */\n      0x00\n        /* \"contracts/Marketplace2/Marketplace.sol\":19688:19702  idToMarketItem */\n      0x0f\n        /* \"contracts/Marketplace2/Marketplace.sol\":19688:19710  idToMarketItem[itemId] */\n      0x00\n        /* \"contracts/Marketplace2/Marketplace.sol\":19703:19709  itemId */\n      dup9\n        /* \"contracts/Marketplace2/Marketplace.sol\":19688:19710  idToMarketItem[itemId] */\n      dup2\n      mstore\n      0x20\n      add\n      swap1\n      dup2\n      mstore\n      0x20\n      add\n      0x00\n      keccak256\n        /* \"contracts/Marketplace2/Marketplace.sol\":19688:19717  idToMarketItem[itemId].status */\n      0x05\n      add\n      0x00\n        /* \"contracts/Marketplace2/Marketplace.sol\":19688:19736  idToMarketItem[itemId].status = ItemStatus.AVAIL */\n      0x0100\n      exp\n      dup2\n      sload\n      dup2\n      0xff\n      mul\n      not\n      and\n      swap1\n      dup4\n      0x01\n      dup2\n      gt\n      iszero\n      tag_227\n      jumpi\n      tag_228\n      tag_122\n      jump\t// in\n    tag_228:\n    tag_227:\n      mul\n      or\n      swap1\n      sstore\n      pop\n        /* \"contracts/Marketplace2/Marketplace.sol\":19742:19764  _itemsSold.increment() */\n      tag_229\n        /* \"contracts/Marketplace2/Marketplace.sol\":19742:19752  _itemsSold */\n      0x0e\n        /* \"contracts/Marketplace2/Marketplace.sol\":19742:19762  _itemsSold.increment */\n      tag_198\n        /* \"contracts/Marketplace2/Marketplace.sol\":19742:19764  _itemsSold.increment() */\n      jump\t// in\n    tag_229:\n        /* \"contracts/Marketplace2/Marketplace.sol\":19875:19885  msg.sender */\n      caller\n        /* \"contracts/Marketplace2/Marketplace.sol\":19776:19932  BuyItemSuccessful(... */\n      0xffffffffffffffffffffffffffffffffffffffff\n      and\n        /* \"contracts/Marketplace2/Marketplace.sol\":19836:19842  seller */\n      dup3\n        /* \"contracts/Marketplace2/Marketplace.sol\":19776:19932  BuyItemSuccessful(... */\n      0xffffffffffffffffffffffffffffffffffffffff\n      and\n        /* \"contracts/Marketplace2/Marketplace.sol\":19819:19826  tokenId */\n      dup5\n        /* \"contracts/Marketplace2/Marketplace.sol\":19776:19932  BuyItemSuccessful(... */\n      0x551327aee12d0a8b3ede8d0e3182a40a5ff3ed9f1811dd622915db30b609b7df\n        /* \"contracts/Marketplace2/Marketplace.sol\":19803:19809  itemId */\n      dup10\n        /* \"contracts/Marketplace2/Marketplace.sol\":19852:19857  price */\n      dup9\n        /* \"contracts/Marketplace2/Marketplace.sol\":19911:19926  block.timestamp */\n      timestamp\n        /* \"contracts/Marketplace2/Marketplace.sol\":19776:19932  BuyItemSuccessful(... */\n      mload(0x40)\n      tag_230\n      swap4\n      swap3\n      swap2\n      swap1\n      tag_231\n      jump\t// in\n    tag_230:\n      mload(0x40)\n      dup1\n      swap2\n      sub\n      swap1\n      log4\n        /* \"contracts/Marketplace2/Marketplace.sol\":19198:19937  {... */\n      pop\n      pop\n      pop\n      pop\n        /* \"contracts/Marketplace2/Marketplace.sol\":19119:19937  function createMarketSale(... */\n      pop\n      pop\n      jump\t// out\n        /* \"contracts/Marketplace2/Marketplace.sol\":16505:16532  uint8 public antaFeePercent */\n    tag_87:\n      0x0b\n      0x15\n      swap1\n      sload\n      swap1\n      0x0100\n      exp\n      swap1\n      div\n      0xff\n      and\n      dup2\n      jump\t// out\n        /* \"contracts/Marketplace2/Marketplace.sol\":16414:16437  IFactory public factory */\n    tag_91:\n      0x0a\n      0x00\n      swap1\n      sload\n      swap1\n      0x0100\n      exp\n      swap1\n      div\n      0xffffffffffffffffffffffffffffffffffffffff\n      and\n      dup2\n      jump\t// out\n        /* \"contracts/Marketplace2/Marketplace.sol\":17775:17912  function getMarketItem(uint256 marketItemId) public view returns (MarketItem memory) {... */\n    tag_97:\n        /* \"contracts/Marketplace2/Marketplace.sol\":17841:17858  MarketItem memory */\n      tag_232\n      tag_233\n      jump\t// in\n    tag_232:\n        /* \"contracts/Marketplace2/Marketplace.sol\":17877:17891  idToMarketItem */\n      0x0f\n        /* \"contracts/Marketplace2/Marketplace.sol\":17877:17905  idToMarketItem[marketItemId] */\n      0x00\n        /* \"contracts/Marketplace2/Marketplace.sol\":17892:17904  marketItemId */\n      dup4\n        /* \"contracts/Marketplace2/Marketplace.sol\":17877:17905  idToMarketItem[marketItemId] */\n      dup2\n      mstore\n      0x20\n      add\n      swap1\n      dup2\n      mstore\n      0x20\n      add\n      0x00\n      keccak256\n        /* \"contracts/Marketplace2/Marketplace.sol\":17870:17905  return idToMarketItem[marketItemId] */\n      mload(0x40)\n      dup1\n      0xc0\n      add\n      0x40\n      mstore\n      swap1\n      dup2\n      0x00\n      dup3\n      add\n      sload\n      dup2\n      mstore\n      0x20\n      add\n      0x01\n      dup3\n      add\n      sload\n      dup2\n      mstore\n      0x20\n      add\n      0x02\n      dup3\n      add\n      0x00\n      swap1\n      sload\n      swap1\n      0x0100\n      exp\n      swap1\n      div\n      0xffffffffffffffffffffffffffffffffffffffff\n      and\n      0xffffffffffffffffffffffffffffffffffffffff\n      and\n      0xffffffffffffffffffffffffffffffffffffffff\n      and\n      dup2\n      mstore\n      0x20\n      add\n      0x03\n      dup3\n      add\n      0x00\n      swap1\n      sload\n      swap1\n      0x0100\n      exp\n      swap1\n      div\n      0xffffffffffffffffffffffffffffffffffffffff\n      and\n      0xffffffffffffffffffffffffffffffffffffffff\n      and\n      0xffffffffffffffffffffffffffffffffffffffff\n      and\n      dup2\n      mstore\n      0x20\n      add\n      0x04\n      dup3\n      add\n      sload\n      dup2\n      mstore\n      0x20\n      add\n      0x05\n      dup3\n      add\n      0x00\n      swap1\n      sload\n      swap1\n      0x0100\n      exp\n      swap1\n      div\n      0xff\n      and\n      0x01\n      dup2\n      gt\n      iszero\n      tag_235\n      jumpi\n      tag_236\n      tag_122\n      jump\t// in\n    tag_236:\n    tag_235:\n      0x01\n      dup2\n      gt\n      iszero\n      tag_237\n      jumpi\n      tag_238\n      tag_122\n      jump\t// in\n    tag_238:\n    tag_237:\n      dup2\n      mstore\n      pop\n      pop\n      swap1\n      pop\n        /* \"contracts/Marketplace2/Marketplace.sol\":17775:17912  function getMarketItem(uint256 marketItemId) public view returns (MarketItem memory) {... */\n      swap2\n      swap1\n      pop\n      jump\t// out\n        /* \"contracts/Marketplace2/Marketplace.sol\":18242:18335  function currentId() public view returns(uint256) { ... */\n    tag_102:\n        /* \"contracts/Marketplace2/Marketplace.sol\":18283:18290  uint256 */\n      0x00\n        /* \"contracts/Marketplace2/Marketplace.sol\":18310:18328  _itemIds.current() */\n      tag_240\n        /* \"contracts/Marketplace2/Marketplace.sol\":18310:18318  _itemIds */\n      0x0d\n        /* \"contracts/Marketplace2/Marketplace.sol\":18310:18326  _itemIds.current */\n      tag_192\n        /* \"contracts/Marketplace2/Marketplace.sol\":18310:18328  _itemIds.current() */\n      jump\t// in\n    tag_240:\n        /* \"contracts/Marketplace2/Marketplace.sol\":18303:18328  return _itemIds.current() */\n      swap1\n      pop\n        /* \"contracts/Marketplace2/Marketplace.sol\":18242:18335  function currentId() public view returns(uint256) { ... */\n      swap1\n      jump\t// out\n        /* \"contracts/Marketplace2/Marketplace.sol\":2558:2756  function transferOwnership(address newOwner) public virtual onlyOwner {... */\n    tag_108:\n        /* \"contracts/Marketplace2/Marketplace.sol\":1899:1911  _msgSender() */\n      tag_242\n        /* \"contracts/Marketplace2/Marketplace.sol\":1899:1909  _msgSender */\n      tag_154\n        /* \"contracts/Marketplace2/Marketplace.sol\":1899:1911  _msgSender() */\n      jump\t// in\n    tag_242:\n        /* \"contracts/Marketplace2/Marketplace.sol\":1888:1911  owner() == _msgSender() */\n      0xffffffffffffffffffffffffffffffffffffffff\n      and\n        /* \"contracts/Marketplace2/Marketplace.sol\":1888:1895  owner() */\n      tag_243\n        /* \"contracts/Marketplace2/Marketplace.sol\":1888:1893  owner */\n      tag_78\n        /* \"contracts/Marketplace2/Marketplace.sol\":1888:1895  owner() */\n      jump\t// in\n    tag_243:\n        /* \"contracts/Marketplace2/Marketplace.sol\":1888:1911  owner() == _msgSender() */\n      0xffffffffffffffffffffffffffffffffffffffff\n      and\n      eq\n        /* \"contracts/Marketplace2/Marketplace.sol\":1880:1948  require(owner() == _msgSender(), \"Ownable: caller is not the owner\") */\n      tag_244\n      jumpi\n      mload(0x40)\n      0x08c379a000000000000000000000000000000000000000000000000000000000\n      dup2\n      mstore\n      0x04\n      add\n      tag_245\n      swap1\n      tag_158\n      jump\t// in\n    tag_245:\n      mload(0x40)\n      dup1\n      swap2\n      sub\n      swap1\n      revert\n    tag_244:\n        /* \"contracts/Marketplace2/Marketplace.sol\":2666:2667  0 */\n      0x00\n        /* \"contracts/Marketplace2/Marketplace.sol\":2646:2668  newOwner != address(0) */\n      0xffffffffffffffffffffffffffffffffffffffff\n      and\n        /* \"contracts/Marketplace2/Marketplace.sol\":2646:2654  newOwner */\n      dup2\n        /* \"contracts/Marketplace2/Marketplace.sol\":2646:2668  newOwner != address(0) */\n      0xffffffffffffffffffffffffffffffffffffffff\n      and\n      sub\n        /* \"contracts/Marketplace2/Marketplace.sol\":2638:2711  require(newOwner != address(0), \"Ownable: new owner is the zero address\") */\n      tag_247\n      jumpi\n      mload(0x40)\n      0x08c379a000000000000000000000000000000000000000000000000000000000\n      dup2\n      mstore\n      0x04\n      add\n      tag_248\n      swap1\n      tag_249\n      jump\t// in\n    tag_248:\n      mload(0x40)\n      dup1\n      swap2\n      sub\n      swap1\n      revert\n    tag_247:\n        /* \"contracts/Marketplace2/Marketplace.sol\":2721:2749  _transferOwnership(newOwner) */\n      tag_250\n        /* \"contracts/Marketplace2/Marketplace.sol\":2740:2748  newOwner */\n      dup2\n        /* \"contracts/Marketplace2/Marketplace.sol\":2721:2739  _transferOwnership */\n      tag_213\n        /* \"contracts/Marketplace2/Marketplace.sol\":2721:2749  _transferOwnership(newOwner) */\n      jump\t// in\n    tag_250:\n        /* \"contracts/Marketplace2/Marketplace.sol\":2558:2756  function transferOwnership(address newOwner) public virtual onlyOwner {... */\n      pop\n      jump\t// out\n        /* \"contracts/Marketplace2/Marketplace.sol\":16443:16466  IERC721 public mainNFTs */\n    tag_111:\n      0x0b\n      0x00\n      swap1\n      sload\n      swap1\n      0x0100\n      exp\n      swap1\n      div\n      0xffffffffffffffffffffffffffffffffffffffff\n      and\n      dup2\n      jump\t// out\n        /* \"contracts/Marketplace2/Marketplace.sol\":16191:16238  mapping (uint256 => MarketItem) public allItems */\n    tag_117:\n      mstore(0x20, 0x07)\n      dup1\n      0x00\n      mstore\n      keccak256(0x00, 0x40)\n      0x00\n      swap2\n      pop\n      swap1\n      pop\n      dup1\n      0x00\n      add\n      sload\n      swap1\n      dup1\n      0x01\n      add\n      sload\n      swap1\n      dup1\n      0x02\n      add\n      0x00\n      swap1\n      sload\n      swap1\n      0x0100\n      exp\n      swap1\n      div\n      0xffffffffffffffffffffffffffffffffffffffff\n      and\n      swap1\n      dup1\n      0x03\n      add\n      0x00\n      swap1\n      sload\n      swap1\n      0x0100\n      exp\n      swap1\n      div\n      0xffffffffffffffffffffffffffffffffffffffff\n      and\n      swap1\n      dup1\n      0x04\n      add\n      sload\n      swap1\n      dup1\n      0x05\n      add\n      0x00\n      swap1\n      sload\n      swap1\n      0x0100\n      exp\n      swap1\n      div\n      0xff\n      and\n      swap1\n      pop\n      dup7\n      jump\t// out\n        /* \"contracts/Marketplace2/Marketplace.sol\":554:650  function _msgSender() internal view virtual returns (address) {... */\n    tag_154:\n        /* \"contracts/Marketplace2/Marketplace.sol\":607:614  address */\n      0x00\n        /* \"contracts/Marketplace2/Marketplace.sol\":633:643  msg.sender */\n      caller\n        /* \"contracts/Marketplace2/Marketplace.sol\":626:643  return msg.sender */\n      swap1\n      pop\n        /* \"contracts/Marketplace2/Marketplace.sol\":554:650  function _msgSender() internal view virtual returns (address) {... */\n      swap1\n      jump\t// out\n        /* \"contracts/Marketplace2/Marketplace.sol\":11851:11963  function current(Counter storage counter) internal view returns (uint256) {... */\n    tag_192:\n        /* \"contracts/Marketplace2/Marketplace.sol\":11916:11923  uint256 */\n      0x00\n        /* \"contracts/Marketplace2/Marketplace.sol\":11942:11949  counter */\n      dup2\n        /* \"contracts/Marketplace2/Marketplace.sol\":11942:11956  counter._value */\n      0x00\n      add\n      sload\n        /* \"contracts/Marketplace2/Marketplace.sol\":11935:11956  return counter._value */\n      swap1\n      pop\n        /* \"contracts/Marketplace2/Marketplace.sol\":11851:11963  function current(Counter storage counter) internal view returns (uint256) {... */\n      swap2\n      swap1\n      pop\n      jump\t// out\n        /* \"contracts/Marketplace2/Marketplace.sol\":11969:12092  function increment(Counter storage counter) internal {... */\n    tag_198:\n        /* \"contracts/Marketplace2/Marketplace.sol\":12074:12075  1 */\n      0x01\n        /* \"contracts/Marketplace2/Marketplace.sol\":12056:12063  counter */\n      dup2\n        /* \"contracts/Marketplace2/Marketplace.sol\":12056:12070  counter._value */\n      0x00\n      add\n      0x00\n        /* \"contracts/Marketplace2/Marketplace.sol\":12056:12075  counter._value += 1 */\n      dup3\n      dup3\n      sload\n      add\n      swap3\n      pop\n      pop\n      dup2\n      swap1\n      sstore\n      pop\n        /* \"contracts/Marketplace2/Marketplace.sol\":11969:12092  function increment(Counter storage counter) internal {... */\n      pop\n      jump\t// out\n        /* \"contracts/Marketplace2/Marketplace.sol\":2910:3097  function _transferOwnership(address newOwner) internal virtual {... */\n    tag_213:\n        /* \"contracts/Marketplace2/Marketplace.sol\":2983:2999  address oldOwner */\n      0x00\n        /* \"contracts/Marketplace2/Marketplace.sol\":3002:3008  _owner */\n      0x0c\n      0x00\n      swap1\n      sload\n      swap1\n      0x0100\n      exp\n      swap1\n      div\n      0xffffffffffffffffffffffffffffffffffffffff\n      and\n        /* \"contracts/Marketplace2/Marketplace.sol\":2983:3008  address oldOwner = _owner */\n      swap1\n      pop\n        /* \"contracts/Marketplace2/Marketplace.sol\":3027:3035  newOwner */\n      dup2\n        /* \"contracts/Marketplace2/Marketplace.sol\":3018:3024  _owner */\n      0x0c\n      0x00\n        /* \"contracts/Marketplace2/Marketplace.sol\":3018:3035  _owner = newOwner */\n      0x0100\n      exp\n      dup2\n      sload\n      dup2\n      0xffffffffffffffffffffffffffffffffffffffff\n      mul\n      not\n      and\n      swap1\n      dup4\n      0xffffffffffffffffffffffffffffffffffffffff\n      and\n      mul\n      or\n      swap1\n      sstore\n      pop\n        /* \"contracts/Marketplace2/Marketplace.sol\":3081:3089  newOwner */\n      dup2\n        /* \"contracts/Marketplace2/Marketplace.sol\":3050:3090  OwnershipTransferred(oldOwner, newOwner) */\n      0xffffffffffffffffffffffffffffffffffffffff\n      and\n        /* \"contracts/Marketplace2/Marketplace.sol\":3071:3079  oldOwner */\n      dup2\n        /* \"contracts/Marketplace2/Marketplace.sol\":3050:3090  OwnershipTransferred(oldOwner, newOwner) */\n      0xffffffffffffffffffffffffffffffffffffffff\n      and\n      0x8be0079c531659141344cd1fd0a4f28419497f9722a3daafe3b4186f6b6457e0\n      mload(0x40)\n      mload(0x40)\n      dup1\n      swap2\n      sub\n      swap1\n      log3\n        /* \"contracts/Marketplace2/Marketplace.sol\":2973:3097  {... */\n      pop\n        /* \"contracts/Marketplace2/Marketplace.sol\":2910:3097  function _transferOwnership(address newOwner) internal virtual {... */\n      pop\n      jump\t// out\n        /* \"contracts/Marketplace2/Marketplace.sol\":20922:21240  function _safeBuyItem(uint256 itemId,uint256 amount, uint256 tokenId ) private { ... */\n    tag_226:\n        /* \"contracts/Marketplace2/Marketplace.sol\":21012:21021  mainToken */\n      0x09\n      0x00\n      swap1\n      sload\n      swap1\n      0x0100\n      exp\n      swap1\n      div\n      0xffffffffffffffffffffffffffffffffffffffff\n      and\n        /* \"contracts/Marketplace2/Marketplace.sol\":21012:21034  mainToken.transferFrom */\n      0xffffffffffffffffffffffffffffffffffffffff\n      and\n      0x23b872dd\n        /* \"contracts/Marketplace2/Marketplace.sol\":21035:21045  msg.sender */\n      caller\n        /* \"contracts/Marketplace2/Marketplace.sol\":21047:21061  idToMarketItem */\n      0x0f\n        /* \"contracts/Marketplace2/Marketplace.sol\":21047:21069  idToMarketItem[itemId] */\n      0x00\n        /* \"contracts/Marketplace2/Marketplace.sol\":21062:21068  itemId */\n      dup8\n        /* \"contracts/Marketplace2/Marketplace.sol\":21047:21069  idToMarketItem[itemId] */\n      dup2\n      mstore\n      0x20\n      add\n      swap1\n      dup2\n      mstore\n      0x20\n      add\n      0x00\n      keccak256\n        /* \"contracts/Marketplace2/Marketplace.sol\":21047:21076  idToMarketItem[itemId].seller */\n      0x02\n      add\n      0x00\n      swap1\n      sload\n      swap1\n      0x0100\n      exp\n      swap1\n      div\n      0xffffffffffffffffffffffffffffffffffffffff\n      and\n        /* \"contracts/Marketplace2/Marketplace.sol\":21079:21085  amount */\n      dup6\n        /* \"contracts/Marketplace2/Marketplace.sol\":21012:21086  mainToken.transferFrom(msg.sender, idToMarketItem[itemId].seller , amount) */\n      mload(0x40)\n      dup5\n      0xffffffff\n      and\n      0xe0\n      shl\n      dup2\n      mstore\n      0x04\n      add\n      tag_256\n      swap4\n      swap3\n      swap2\n      swap1\n      tag_142\n      jump\t// in\n    tag_256:\n      0x20\n      mload(0x40)\n      dup1\n      dup4\n      sub\n      dup2\n      0x00\n      dup8\n      gas\n      call\n      iszero\n      dup1\n      iszero\n      tag_258\n      jumpi\n      returndatasize\n      0x00\n      dup1\n      returndatacopy\n      revert(0x00, returndatasize)\n    tag_258:\n      pop\n      pop\n      pop\n      pop\n      mload(0x40)\n      returndatasize\n      not(0x1f)\n      0x1f\n      dup3\n      add\n      and\n      dup3\n      add\n      dup1\n      0x40\n      mstore\n      pop\n      dup2\n      add\n      swap1\n      tag_259\n      swap2\n      swap1\n      tag_260\n      jump\t// in\n    tag_259:\n      pop\n        /* \"contracts/Marketplace2/Marketplace.sol\":21096:21103  factory */\n      0x0a\n      0x00\n      swap1\n      sload\n      swap1\n      0x0100\n      exp\n      swap1\n      div\n      0xffffffffffffffffffffffffffffffffffffffff\n      and\n        /* \"contracts/Marketplace2/Marketplace.sol\":21096:21122  factory.setOwnerIngameItem */\n      0xffffffffffffffffffffffffffffffffffffffff\n      and\n      0xc1e9518a\n        /* \"contracts/Marketplace2/Marketplace.sol\":21123:21133  msg.sender */\n      caller\n        /* \"contracts/Marketplace2/Marketplace.sol\":21142:21146  this */\n      address\n        /* \"contracts/Marketplace2/Marketplace.sol\":21149:21156  tokenId */\n      dup5\n        /* \"contracts/Marketplace2/Marketplace.sol\":21096:21157  factory.setOwnerIngameItem(msg.sender,address(this), tokenId) */\n      mload(0x40)\n      dup5\n      0xffffffff\n      and\n      0xe0\n      shl\n      dup2\n      mstore\n      0x04\n      add\n      tag_261\n      swap4\n      swap3\n      swap2\n      swap1\n      tag_142\n      jump\t// in\n    tag_261:\n      0x00\n      mload(0x40)\n      dup1\n      dup4\n      sub\n      dup2\n      0x00\n      dup8\n      dup1\n      extcodesize\n      iszero\n      dup1\n      iszero\n      tag_262\n      jumpi\n      0x00\n      dup1\n      revert\n    tag_262:\n      pop\n      gas\n      call\n      iszero\n      dup1\n      iszero\n      tag_264\n      jumpi\n      returndatasize\n      0x00\n      dup1\n      returndatacopy\n      revert(0x00, returndatasize)\n    tag_264:\n      pop\n      pop\n      pop\n      pop\n        /* \"contracts/Marketplace2/Marketplace.sol\":21167:21175  mainNFTs */\n      0x0b\n      0x00\n      swap1\n      sload\n      swap1\n      0x0100\n      exp\n      swap1\n      div\n      0xffffffffffffffffffffffffffffffffffffffff\n      and\n        /* \"contracts/Marketplace2/Marketplace.sol\":21167:21188  mainNFTs.transferFrom */\n      0xffffffffffffffffffffffffffffffffffffffff\n      and\n      0x23b872dd\n        /* \"contracts/Marketplace2/Marketplace.sol\":21197:21201  this */\n      address\n        /* \"contracts/Marketplace2/Marketplace.sol\":21212:21222  msg.sender */\n      caller\n        /* \"contracts/Marketplace2/Marketplace.sol\":21225:21232  tokenId */\n      dup5\n        /* \"contracts/Marketplace2/Marketplace.sol\":21167:21233  mainNFTs.transferFrom(address(this), address(msg.sender), tokenId) */\n      mload(0x40)\n      dup5\n      0xffffffff\n      and\n      0xe0\n      shl\n      dup2\n      mstore\n      0x04\n      add\n      tag_265\n      swap4\n      swap3\n      swap2\n      swap1\n      tag_142\n      jump\t// in\n    tag_265:\n      0x00\n      mload(0x40)\n      dup1\n      dup4\n      sub\n      dup2\n      0x00\n      dup8\n      dup1\n      extcodesize\n      iszero\n      dup1\n      iszero\n      tag_266\n      jumpi\n      0x00\n      dup1\n      revert\n    tag_266:\n      pop\n      gas\n      call\n      iszero\n      dup1\n      iszero\n      tag_268\n      jumpi\n      returndatasize\n      0x00\n      dup1\n      returndatacopy\n      revert(0x00, returndatasize)\n    tag_268:\n      pop\n      pop\n      pop\n      pop\n        /* \"contracts/Marketplace2/Marketplace.sol\":20922:21240  function _safeBuyItem(uint256 itemId,uint256 amount, uint256 tokenId ) private { ... */\n      pop\n      pop\n      pop\n      jump\t// out\n    tag_233:\n      mload(0x40)\n      dup1\n      0xc0\n      add\n      0x40\n      mstore\n      dup1\n      0x00\n      dup2\n      mstore\n      0x20\n      add\n      0x00\n      dup2\n      mstore\n      0x20\n      add\n      and(0xffffffffffffffffffffffffffffffffffffffff, 0x00)\n      dup2\n      mstore\n      0x20\n      add\n      and(0xffffffffffffffffffffffffffffffffffffffff, 0x00)\n      dup2\n      mstore\n      0x20\n      add\n      0x00\n      dup2\n      mstore\n      0x20\n      add\n      0x00\n      0x01\n      dup2\n      gt\n      iszero\n      tag_269\n      jumpi\n      tag_270\n      tag_122\n      jump\t// in\n    tag_270:\n    tag_269:\n      dup2\n      mstore\n      pop\n      swap1\n      jump\t// out\n        /* \"#utility.yul\":7:82   */\n    tag_271:\n        /* \"#utility.yul\":40:46   */\n      0x00\n        /* \"#utility.yul\":73:75   */\n      0x40\n        /* \"#utility.yul\":67:76   */\n      mload\n        /* \"#utility.yul\":57:76   */\n      swap1\n      pop\n        /* \"#utility.yul\":7:82   */\n      swap1\n      jump\t// out\n        /* \"#utility.yul\":88:205   */\n    tag_272:\n        /* \"#utility.yul\":197:198   */\n      0x00\n        /* \"#utility.yul\":194:195   */\n      dup1\n        /* \"#utility.yul\":187:199   */\n      revert\n        /* \"#utility.yul\":211:328   */\n    tag_273:\n        /* \"#utility.yul\":320:321   */\n      0x00\n        /* \"#utility.yul\":317:318   */\n      dup1\n        /* \"#utility.yul\":310:322   */\n      revert\n        /* \"#utility.yul\":334:411   */\n    tag_274:\n        /* \"#utility.yul\":371:378   */\n      0x00\n        /* \"#utility.yul\":400:405   */\n      dup2\n        /* \"#utility.yul\":389:405   */\n      swap1\n      pop\n        /* \"#utility.yul\":334:411   */\n      swap2\n      swap1\n      pop\n      jump\t// out\n        /* \"#utility.yul\":417:539   */\n    tag_275:\n        /* \"#utility.yul\":490:514   */\n      tag_353\n        /* \"#utility.yul\":508:513   */\n      dup2\n        /* \"#utility.yul\":490:514   */\n      tag_274\n      jump\t// in\n    tag_353:\n        /* \"#utility.yul\":483:488   */\n      dup2\n        /* \"#utility.yul\":480:515   */\n      eq\n        /* \"#utility.yul\":470:533   */\n      tag_354\n      jumpi\n        /* \"#utility.yul\":529:530   */\n      0x00\n        /* \"#utility.yul\":526:527   */\n      dup1\n        /* \"#utility.yul\":519:531   */\n      revert\n        /* \"#utility.yul\":470:533   */\n    tag_354:\n        /* \"#utility.yul\":417:539   */\n      pop\n      jump\t// out\n        /* \"#utility.yul\":545:684   */\n    tag_276:\n        /* \"#utility.yul\":591:596   */\n      0x00\n        /* \"#utility.yul\":629:635   */\n      dup2\n        /* \"#utility.yul\":616:636   */\n      calldataload\n        /* \"#utility.yul\":607:636   */\n      swap1\n      pop\n        /* \"#utility.yul\":645:678   */\n      tag_356\n        /* \"#utility.yul\":672:677   */\n      dup2\n        /* \"#utility.yul\":645:678   */\n      tag_275\n      jump\t// in\n    tag_356:\n        /* \"#utility.yul\":545:684   */\n      swap3\n      swap2\n      pop\n      pop\n      jump\t// out\n        /* \"#utility.yul\":690:1019   */\n    tag_28:\n        /* \"#utility.yul\":749:755   */\n      0x00\n        /* \"#utility.yul\":798:800   */\n      0x20\n        /* \"#utility.yul\":786:795   */\n      dup3\n        /* \"#utility.yul\":777:784   */\n      dup5\n        /* \"#utility.yul\":773:796   */\n      sub\n        /* \"#utility.yul\":769:801   */\n      slt\n        /* \"#utility.yul\":766:885   */\n      iszero\n      tag_358\n      jumpi\n        /* \"#utility.yul\":804:883   */\n      tag_359\n      tag_272\n      jump\t// in\n    tag_359:\n        /* \"#utility.yul\":766:885   */\n    tag_358:\n        /* \"#utility.yul\":924:925   */\n      0x00\n        /* \"#utility.yul\":949:1002   */\n      tag_360\n        /* \"#utility.yul\":994:1001   */\n      dup5\n        /* \"#utility.yul\":985:991   */\n      dup3\n        /* \"#utility.yul\":974:983   */\n      dup6\n        /* \"#utility.yul\":970:992   */\n      add\n        /* \"#utility.yul\":949:1002   */\n      tag_276\n      jump\t// in\n    tag_360:\n        /* \"#utility.yul\":939:1002   */\n      swap2\n      pop\n        /* \"#utility.yul\":895:1012   */\n      pop\n        /* \"#utility.yul\":690:1019   */\n      swap3\n      swap2\n      pop\n      pop\n      jump\t// out\n        /* \"#utility.yul\":1025:1151   */\n    tag_277:\n        /* \"#utility.yul\":1062:1069   */\n      0x00\n        /* \"#utility.yul\":1102:1144   */\n      0xffffffffffffffffffffffffffffffffffffffff\n        /* \"#utility.yul\":1095:1100   */\n      dup3\n        /* \"#utility.yul\":1091:1145   */\n      and\n        /* \"#utility.yul\":1080:1145   */\n      swap1\n      pop\n        /* \"#utility.yul\":1025:1151   */\n      swap2\n      swap1\n      pop\n      jump\t// out\n        /* \"#utility.yul\":1157:1253   */\n    tag_278:\n        /* \"#utility.yul\":1194:1201   */\n      0x00\n        /* \"#utility.yul\":1223:1247   */\n      tag_363\n        /* \"#utility.yul\":1241:1246   */\n      dup3\n        /* \"#utility.yul\":1223:1247   */\n      tag_277\n      jump\t// in\n    tag_363:\n        /* \"#utility.yul\":1212:1247   */\n      swap1\n      pop\n        /* \"#utility.yul\":1157:1253   */\n      swap2\n      swap1\n      pop\n      jump\t// out\n        /* \"#utility.yul\":1259:1381   */\n    tag_279:\n        /* \"#utility.yul\":1332:1356   */\n      tag_365\n        /* \"#utility.yul\":1350:1355   */\n      dup2\n        /* \"#utility.yul\":1332:1356   */\n      tag_278\n      jump\t// in\n    tag_365:\n        /* \"#utility.yul\":1325:1330   */\n      dup2\n        /* \"#utility.yul\":1322:1357   */\n      eq\n        /* \"#utility.yul\":1312:1375   */\n      tag_366\n      jumpi\n        /* \"#utility.yul\":1371:1372   */\n      0x00\n        /* \"#utility.yul\":1368:1369   */\n      dup1\n        /* \"#utility.yul\":1361:1373   */\n      revert\n        /* \"#utility.yul\":1312:1375   */\n    tag_366:\n        /* \"#utility.yul\":1259:1381   */\n      pop\n      jump\t// out\n        /* \"#utility.yul\":1387:1526   */\n    tag_280:\n        /* \"#utility.yul\":1433:1438   */\n      0x00\n        /* \"#utility.yul\":1471:1477   */\n      dup2\n        /* \"#utility.yul\":1458:1478   */\n      calldataload\n        /* \"#utility.yul\":1449:1478   */\n      swap1\n      pop\n        /* \"#utility.yul\":1487:1520   */\n      tag_368\n        /* \"#utility.yul\":1514:1519   */\n      dup2\n        /* \"#utility.yul\":1487:1520   */\n      tag_279\n      jump\t// in\n    tag_368:\n        /* \"#utility.yul\":1387:1526   */\n      swap3\n      swap2\n      pop\n      pop\n      jump\t// out\n        /* \"#utility.yul\":1532:1861   */\n    tag_33:\n        /* \"#utility.yul\":1591:1597   */\n      0x00\n        /* \"#utility.yul\":1640:1642   */\n      0x20\n        /* \"#utility.yul\":1628:1637   */\n      dup3\n        /* \"#utility.yul\":1619:1626   */\n      dup5\n        /* \"#utility.yul\":1615:1638   */\n      sub\n        /* \"#utility.yul\":1611:1643   */\n      slt\n        /* \"#utility.yul\":1608:1727   */\n      iszero\n      tag_370\n      jumpi\n        /* \"#utility.yul\":1646:1725   */\n      tag_371\n      tag_272\n      jump\t// in\n    tag_371:\n        /* \"#utility.yul\":1608:1727   */\n    tag_370:\n        /* \"#utility.yul\":1766:1767   */\n      0x00\n        /* \"#utility.yul\":1791:1844   */\n      tag_372\n        /* \"#utility.yul\":1836:1843   */\n      dup5\n        /* \"#utility.yul\":1827:1833   */\n      dup3\n        /* \"#utility.yul\":1816:1825   */\n      dup6\n        /* \"#utility.yul\":1812:1834   */\n      add\n        /* \"#utility.yul\":1791:1844   */\n      tag_280\n      jump\t// in\n    tag_372:\n        /* \"#utility.yul\":1781:1844   */\n      swap2\n      pop\n        /* \"#utility.yul\":1737:1854   */\n      pop\n        /* \"#utility.yul\":1532:1861   */\n      swap3\n      swap2\n      pop\n      pop\n      jump\t// out\n        /* \"#utility.yul\":1867:2016   */\n    tag_281:\n        /* \"#utility.yul\":1903:1910   */\n      0x00\n        /* \"#utility.yul\":1943:2009   */\n      0xffffffff00000000000000000000000000000000000000000000000000000000\n        /* \"#utility.yul\":1936:1941   */\n      dup3\n        /* \"#utility.yul\":1932:2010   */\n      and\n        /* \"#utility.yul\":1921:2010   */\n      swap1\n      pop\n        /* \"#utility.yul\":1867:2016   */\n      swap2\n      swap1\n      pop\n      jump\t// out\n        /* \"#utility.yul\":2022:2137   */\n    tag_282:\n        /* \"#utility.yul\":2107:2130   */\n      tag_375\n        /* \"#utility.yul\":2124:2129   */\n      dup2\n        /* \"#utility.yul\":2107:2130   */\n      tag_281\n      jump\t// in\n    tag_375:\n        /* \"#utility.yul\":2102:2105   */\n      dup3\n        /* \"#utility.yul\":2095:2131   */\n      mstore\n        /* \"#utility.yul\":2022:2137   */\n      pop\n      pop\n      jump\t// out\n        /* \"#utility.yul\":2143:2361   */\n    tag_43:\n        /* \"#utility.yul\":2234:2238   */\n      0x00\n        /* \"#utility.yul\":2272:2274   */\n      0x20\n        /* \"#utility.yul\":2261:2270   */\n      dup3\n        /* \"#utility.yul\":2257:2275   */\n      add\n        /* \"#utility.yul\":2249:2275   */\n      swap1\n      pop\n        /* \"#utility.yul\":2285:2354   */\n      tag_377\n        /* \"#utility.yul\":2351:2352   */\n      0x00\n        /* \"#utility.yul\":2340:2349   */\n      dup4\n        /* \"#utility.yul\":2336:2353   */\n      add\n        /* \"#utility.yul\":2327:2333   */\n      dup5\n        /* \"#utility.yul\":2285:2354   */\n      tag_282\n      jump\t// in\n    tag_377:\n        /* \"#utility.yul\":2143:2361   */\n      swap3\n      swap2\n      pop\n      pop\n      jump\t// out\n        /* \"#utility.yul\":2367:2841   */\n    tag_46:\n        /* \"#utility.yul\":2435:2441   */\n      0x00\n        /* \"#utility.yul\":2443:2449   */\n      dup1\n        /* \"#utility.yul\":2492:2494   */\n      0x40\n        /* \"#utility.yul\":2480:2489   */\n      dup4\n        /* \"#utility.yul\":2471:2478   */\n      dup6\n        /* \"#utility.yul\":2467:2490   */\n      sub\n        /* \"#utility.yul\":2463:2495   */\n      slt\n        /* \"#utility.yul\":2460:2579   */\n      iszero\n      tag_379\n      jumpi\n        /* \"#utility.yul\":2498:2577   */\n      tag_380\n      tag_272\n      jump\t// in\n    tag_380:\n        /* \"#utility.yul\":2460:2579   */\n    tag_379:\n        /* \"#utility.yul\":2618:2619   */\n      0x00\n        /* \"#utility.yul\":2643:2696   */\n      tag_381\n        /* \"#utility.yul\":2688:2695   */\n      dup6\n        /* \"#utility.yul\":2679:2685   */\n      dup3\n        /* \"#utility.yul\":2668:2677   */\n      dup7\n        /* \"#utility.yul\":2664:2686   */\n      add\n        /* \"#utility.yul\":2643:2696   */\n      tag_276\n      jump\t// in\n    tag_381:\n        /* \"#utility.yul\":2633:2696   */\n      swap3\n      pop\n        /* \"#utility.yul\":2589:2706   */\n      pop\n        /* \"#utility.yul\":2745:2747   */\n      0x20\n        /* \"#utility.yul\":2771:2824   */\n      tag_382\n        /* \"#utility.yul\":2816:2823   */\n      dup6\n        /* \"#utility.yul\":2807:2813   */\n      dup3\n        /* \"#utility.yul\":2796:2805   */\n      dup7\n        /* \"#utility.yul\":2792:2814   */\n      add\n        /* \"#utility.yul\":2771:2824   */\n      tag_276\n      jump\t// in\n    tag_382:\n        /* \"#utility.yul\":2761:2824   */\n      swap2\n      pop\n        /* \"#utility.yul\":2716:2834   */\n      pop\n        /* \"#utility.yul\":2367:2841   */\n      swap3\n      pop\n      swap3\n      swap1\n      pop\n      jump\t// out\n        /* \"#utility.yul\":2847:2907   */\n    tag_283:\n        /* \"#utility.yul\":2875:2878   */\n      0x00\n        /* \"#utility.yul\":2896:2901   */\n      dup2\n        /* \"#utility.yul\":2889:2901   */\n      swap1\n      pop\n        /* \"#utility.yul\":2847:2907   */\n      swap2\n      swap1\n      pop\n      jump\t// out\n        /* \"#utility.yul\":2913:3055   */\n    tag_284:\n        /* \"#utility.yul\":2963:2972   */\n      0x00\n        /* \"#utility.yul\":2996:3049   */\n      tag_385\n        /* \"#utility.yul\":3014:3048   */\n      tag_386\n        /* \"#utility.yul\":3023:3047   */\n      tag_387\n        /* \"#utility.yul\":3041:3046   */\n      dup5\n        /* \"#utility.yul\":3023:3047   */\n      tag_277\n      jump\t// in\n    tag_387:\n        /* \"#utility.yul\":3014:3048   */\n      tag_283\n      jump\t// in\n    tag_386:\n        /* \"#utility.yul\":2996:3049   */\n      tag_277\n      jump\t// in\n    tag_385:\n        /* \"#utility.yul\":2983:3049   */\n      swap1\n      pop\n        /* \"#utility.yul\":2913:3055   */\n      swap2\n      swap1\n      pop\n      jump\t// out\n        /* \"#utility.yul\":3061:3187   */\n    tag_285:\n        /* \"#utility.yul\":3111:3120   */\n      0x00\n        /* \"#utility.yul\":3144:3181   */\n      tag_389\n        /* \"#utility.yul\":3175:3180   */\n      dup3\n        /* \"#utility.yul\":3144:3181   */\n      tag_284\n      jump\t// in\n    tag_389:\n        /* \"#utility.yul\":3131:3181   */\n      swap1\n      pop\n        /* \"#utility.yul\":3061:3187   */\n      swap2\n      swap1\n      pop\n      jump\t// out\n        /* \"#utility.yul\":3193:3333   */\n    tag_286:\n        /* \"#utility.yul\":3257:3266   */\n      0x00\n        /* \"#utility.yul\":3290:3327   */\n      tag_391\n        /* \"#utility.yul\":3321:3326   */\n      dup3\n        /* \"#utility.yul\":3290:3327   */\n      tag_285\n      jump\t// in\n    tag_391:\n        /* \"#utility.yul\":3277:3327   */\n      swap1\n      pop\n        /* \"#utility.yul\":3193:3333   */\n      swap2\n      swap1\n      pop\n      jump\t// out\n        /* \"#utility.yul\":3339:3498   */\n    tag_287:\n        /* \"#utility.yul\":3440:3491   */\n      tag_393\n        /* \"#utility.yul\":3485:3490   */\n      dup2\n        /* \"#utility.yul\":3440:3491   */\n      tag_286\n      jump\t// in\n    tag_393:\n        /* \"#utility.yul\":3435:3438   */\n      dup3\n        /* \"#utility.yul\":3428:3492   */\n      mstore\n        /* \"#utility.yul\":3339:3498   */\n      pop\n      pop\n      jump\t// out\n        /* \"#utility.yul\":3504:3754   */\n    tag_52:\n        /* \"#utility.yul\":3611:3615   */\n      0x00\n        /* \"#utility.yul\":3649:3651   */\n      0x20\n        /* \"#utility.yul\":3638:3647   */\n      dup3\n        /* \"#utility.yul\":3634:3652   */\n      add\n        /* \"#utility.yul\":3626:3652   */\n      swap1\n      pop\n        /* \"#utility.yul\":3662:3747   */\n      tag_395\n        /* \"#utility.yul\":3744:3745   */\n      0x00\n        /* \"#utility.yul\":3733:3742   */\n      dup4\n        /* \"#utility.yul\":3729:3746   */\n      add\n        /* \"#utility.yul\":3720:3726   */\n      dup5\n        /* \"#utility.yul\":3662:3747   */\n      tag_287\n      jump\t// in\n    tag_395:\n        /* \"#utility.yul\":3504:3754   */\n      swap3\n      swap2\n      pop\n      pop\n      jump\t// out\n        /* \"#utility.yul\":3760:3878   */\n    tag_288:\n        /* \"#utility.yul\":3847:3871   */\n      tag_397\n        /* \"#utility.yul\":3865:3870   */\n      dup2\n        /* \"#utility.yul\":3847:3871   */\n      tag_274\n      jump\t// in\n    tag_397:\n        /* \"#utility.yul\":3842:3845   */\n      dup3\n        /* \"#utility.yul\":3835:3872   */\n      mstore\n        /* \"#utility.yul\":3760:3878   */\n      pop\n      pop\n      jump\t// out\n        /* \"#utility.yul\":3884:4002   */\n    tag_289:\n        /* \"#utility.yul\":3971:3995   */\n      tag_399\n        /* \"#utility.yul\":3989:3994   */\n      dup2\n        /* \"#utility.yul\":3971:3995   */\n      tag_278\n      jump\t// in\n    tag_399:\n        /* \"#utility.yul\":3966:3969   */\n      dup3\n        /* \"#utility.yul\":3959:3996   */\n      mstore\n        /* \"#utility.yul\":3884:4002   */\n      pop\n      pop\n      jump\t// out\n        /* \"#utility.yul\":4008:4188   */\n    tag_122:\n        /* \"#utility.yul\":4056:4133   */\n      0x4e487b7100000000000000000000000000000000000000000000000000000000\n        /* \"#utility.yul\":4053:4054   */\n      0x00\n        /* \"#utility.yul\":4046:4134   */\n      mstore\n        /* \"#utility.yul\":4153:4157   */\n      0x21\n        /* \"#utility.yul\":4150:4151   */\n      0x04\n        /* \"#utility.yul\":4143:4158   */\n      mstore\n        /* \"#utility.yul\":4177:4181   */\n      0x24\n        /* \"#utility.yul\":4174:4175   */\n      0x00\n        /* \"#utility.yul\":4167:4182   */\n      revert\n        /* \"#utility.yul\":4194:4313   */\n    tag_290:\n        /* \"#utility.yul\":4281:4282   */\n      0x02\n        /* \"#utility.yul\":4274:4279   */\n      dup2\n        /* \"#utility.yul\":4271:4283   */\n      lt\n        /* \"#utility.yul\":4261:4307   */\n      tag_402\n      jumpi\n        /* \"#utility.yul\":4287:4305   */\n      tag_403\n      tag_122\n      jump\t// in\n    tag_403:\n        /* \"#utility.yul\":4261:4307   */\n    tag_402:\n        /* \"#utility.yul\":4194:4313   */\n      pop\n      jump\t// out\n        /* \"#utility.yul\":4319:4458   */\n    tag_291:\n        /* \"#utility.yul\":4370:4377   */\n      0x00\n        /* \"#utility.yul\":4399:4404   */\n      dup2\n        /* \"#utility.yul\":4388:4404   */\n      swap1\n      pop\n        /* \"#utility.yul\":4405:4452   */\n      tag_405\n        /* \"#utility.yul\":4446:4451   */\n      dup3\n        /* \"#utility.yul\":4405:4452   */\n      tag_290\n      jump\t// in\n    tag_405:\n        /* \"#utility.yul\":4319:4458   */\n      swap2\n      swap1\n      pop\n      jump\t// out\n        /* \"#utility.yul\":4464:4603   */\n    tag_292:\n        /* \"#utility.yul\":4526:4535   */\n      0x00\n        /* \"#utility.yul\":4559:4597   */\n      tag_407\n        /* \"#utility.yul\":4591:4596   */\n      dup3\n        /* \"#utility.yul\":4559:4597   */\n      tag_291\n      jump\t// in\n    tag_407:\n        /* \"#utility.yul\":4546:4597   */\n      swap1\n      pop\n        /* \"#utility.yul\":4464:4603   */\n      swap2\n      swap1\n      pop\n      jump\t// out\n        /* \"#utility.yul\":4609:4764   */\n    tag_293:\n        /* \"#utility.yul\":4708:4757   */\n      tag_409\n        /* \"#utility.yul\":4751:4756   */\n      dup2\n        /* \"#utility.yul\":4708:4757   */\n      tag_292\n      jump\t// in\n    tag_409:\n        /* \"#utility.yul\":4703:4706   */\n      dup3\n        /* \"#utility.yul\":4696:4758   */\n      mstore\n        /* \"#utility.yul\":4609:4764   */\n      pop\n      pop\n      jump\t// out\n        /* \"#utility.yul\":4770:5569   */\n    tag_57:\n        /* \"#utility.yul\":5015:5019   */\n      0x00\n        /* \"#utility.yul\":5053:5056   */\n      0xc0\n        /* \"#utility.yul\":5042:5051   */\n      dup3\n        /* \"#utility.yul\":5038:5057   */\n      add\n        /* \"#utility.yul\":5030:5057   */\n      swap1\n      pop\n        /* \"#utility.yul\":5067:5138   */\n      tag_411\n        /* \"#utility.yul\":5135:5136   */\n      0x00\n        /* \"#utility.yul\":5124:5133   */\n      dup4\n        /* \"#utility.yul\":5120:5137   */\n      add\n        /* \"#utility.yul\":5111:5117   */\n      dup10\n        /* \"#utility.yul\":5067:5138   */\n      tag_288\n      jump\t// in\n    tag_411:\n        /* \"#utility.yul\":5148:5220   */\n      tag_412\n        /* \"#utility.yul\":5216:5218   */\n      0x20\n        /* \"#utility.yul\":5205:5214   */\n      dup4\n        /* \"#utility.yul\":5201:5219   */\n      add\n        /* \"#utility.yul\":5192:5198   */\n      dup9\n        /* \"#utility.yul\":5148:5220   */\n      tag_288\n      jump\t// in\n    tag_412:\n        /* \"#utility.yul\":5230:5302   */\n      tag_413\n        /* \"#utility.yul\":5298:5300   */\n      0x40\n        /* \"#utility.yul\":5287:5296   */\n      dup4\n        /* \"#utility.yul\":5283:5301   */\n      add\n        /* \"#utility.yul\":5274:5280   */\n      dup8\n        /* \"#utility.yul\":5230:5302   */\n      tag_289\n      jump\t// in\n    tag_413:\n        /* \"#utility.yul\":5312:5384   */\n      tag_414\n        /* \"#utility.yul\":5380:5382   */\n      0x60\n        /* \"#utility.yul\":5369:5378   */\n      dup4\n        /* \"#utility.yul\":5365:5383   */\n      add\n        /* \"#utility.yul\":5356:5362   */\n      dup7\n        /* \"#utility.yul\":5312:5384   */\n      tag_289\n      jump\t// in\n    tag_414:\n        /* \"#utility.yul\":5394:5467   */\n      tag_415\n        /* \"#utility.yul\":5462:5465   */\n      0x80\n        /* \"#utility.yul\":5451:5460   */\n      dup4\n        /* \"#utility.yul\":5447:5466   */\n      add\n        /* \"#utility.yul\":5438:5444   */\n      dup6\n        /* \"#utility.yul\":5394:5467   */\n      tag_288\n      jump\t// in\n    tag_415:\n        /* \"#utility.yul\":5477:5562   */\n      tag_416\n        /* \"#utility.yul\":5557:5560   */\n      0xa0\n        /* \"#utility.yul\":5546:5555   */\n      dup4\n        /* \"#utility.yul\":5542:5561   */\n      add\n        /* \"#utility.yul\":5533:5539   */\n      dup5\n        /* \"#utility.yul\":5477:5562   */\n      tag_293\n      jump\t// in\n    tag_416:\n        /* \"#utility.yul\":4770:5569   */\n      swap8\n      swap7\n      pop\n      pop\n      pop\n      pop\n      pop\n      pop\n      pop\n      jump\t// out\n        /* \"#utility.yul\":5575:6049   */\n    tag_65:\n        /* \"#utility.yul\":5643:5649   */\n      0x00\n        /* \"#utility.yul\":5651:5657   */\n      dup1\n        /* \"#utility.yul\":5700:5702   */\n      0x40\n        /* \"#utility.yul\":5688:5697   */\n      dup4\n        /* \"#utility.yul\":5679:5686   */\n      dup6\n        /* \"#utility.yul\":5675:5698   */\n      sub\n        /* \"#utility.yul\":5671:5703   */\n      slt\n        /* \"#utility.yul\":5668:5787   */\n      iszero\n      tag_418\n      jumpi\n        /* \"#utility.yul\":5706:5785   */\n      tag_419\n      tag_272\n      jump\t// in\n    tag_419:\n        /* \"#utility.yul\":5668:5787   */\n    tag_418:\n        /* \"#utility.yul\":5826:5827   */\n      0x00\n        /* \"#utility.yul\":5851:5904   */\n      tag_420\n        /* \"#utility.yul\":5896:5903   */\n      dup6\n        /* \"#utility.yul\":5887:5893   */\n      dup3\n        /* \"#utility.yul\":5876:5885   */\n      dup7\n        /* \"#utility.yul\":5872:5894   */\n      add\n        /* \"#utility.yul\":5851:5904   */\n      tag_280\n      jump\t// in\n    tag_420:\n        /* \"#utility.yul\":5841:5904   */\n      swap3\n      pop\n        /* \"#utility.yul\":5797:5914   */\n      pop\n        /* \"#utility.yul\":5953:5955   */\n      0x20\n        /* \"#utility.yul\":5979:6032   */\n      tag_421\n        /* \"#utility.yul\":6024:6031   */\n      dup6\n        /* \"#utility.yul\":6015:6021   */\n      dup3\n        /* \"#utility.yul\":6004:6013   */\n      dup7\n        /* \"#utility.yul\":6000:6022   */\n      add\n        /* \"#utility.yul\":5979:6032   */\n      tag_276\n      jump\t// in\n    tag_421:\n        /* \"#utility.yul\":5969:6032   */\n      swap2\n      pop\n        /* \"#utility.yul\":5924:6042   */\n      pop\n        /* \"#utility.yul\":5575:6049   */\n      swap3\n      pop\n      swap3\n      swap1\n      pop\n      jump\t// out\n        /* \"#utility.yul\":6055:6141   */\n    tag_294:\n        /* \"#utility.yul\":6090:6097   */\n      0x00\n        /* \"#utility.yul\":6130:6134   */\n      0xff\n        /* \"#utility.yul\":6123:6128   */\n      dup3\n        /* \"#utility.yul\":6119:6135   */\n      and\n        /* \"#utility.yul\":6108:6135   */\n      swap1\n      pop\n        /* \"#utility.yul\":6055:6141   */\n      swap2\n      swap1\n      pop\n      jump\t// out\n        /* \"#utility.yul\":6147:6259   */\n    tag_295:\n        /* \"#utility.yul\":6230:6252   */\n      tag_424\n        /* \"#utility.yul\":6246:6251   */\n      dup2\n        /* \"#utility.yul\":6230:6252   */\n      tag_294\n      jump\t// in\n    tag_424:\n        /* \"#utility.yul\":6225:6228   */\n      dup3\n        /* \"#utility.yul\":6218:6253   */\n      mstore\n        /* \"#utility.yul\":6147:6259   */\n      pop\n      pop\n      jump\t// out\n        /* \"#utility.yul\":6265:6479   */\n    tag_75:\n        /* \"#utility.yul\":6354:6358   */\n      0x00\n        /* \"#utility.yul\":6392:6394   */\n      0x20\n        /* \"#utility.yul\":6381:6390   */\n      dup3\n        /* \"#utility.yul\":6377:6395   */\n      add\n        /* \"#utility.yul\":6369:6395   */\n      swap1\n      pop\n        /* \"#utility.yul\":6405:6472   */\n      tag_426\n        /* \"#utility.yul\":6469:6470   */\n      0x00\n        /* \"#utility.yul\":6458:6467   */\n      dup4\n        /* \"#utility.yul\":6454:6471   */\n      add\n        /* \"#utility.yul\":6445:6451   */\n      dup5\n        /* \"#utility.yul\":6405:6472   */\n      tag_295\n      jump\t// in\n    tag_426:\n        /* \"#utility.yul\":6265:6479   */\n      swap3\n      swap2\n      pop\n      pop\n      jump\t// out\n        /* \"#utility.yul\":6485:6707   */\n    tag_80:\n        /* \"#utility.yul\":6578:6582   */\n      0x00\n        /* \"#utility.yul\":6616:6618   */\n      0x20\n        /* \"#utility.yul\":6605:6614   */\n      dup3\n        /* \"#utility.yul\":6601:6619   */\n      add\n        /* \"#utility.yul\":6593:6619   */\n      swap1\n      pop\n        /* \"#utility.yul\":6629:6700   */\n      tag_428\n        /* \"#utility.yul\":6697:6698   */\n      0x00\n        /* \"#utility.yul\":6686:6695   */\n      dup4\n        /* \"#utility.yul\":6682:6699   */\n      add\n        /* \"#utility.yul\":6673:6679   */\n      dup5\n        /* \"#utility.yul\":6629:6700   */\n      tag_289\n      jump\t// in\n    tag_428:\n        /* \"#utility.yul\":6485:6707   */\n      swap3\n      swap2\n      pop\n      pop\n      jump\t// out\n        /* \"#utility.yul\":6713:6855   */\n    tag_296:\n        /* \"#utility.yul\":6779:6788   */\n      0x00\n        /* \"#utility.yul\":6812:6849   */\n      tag_430\n        /* \"#utility.yul\":6843:6848   */\n      dup3\n        /* \"#utility.yul\":6812:6849   */\n      tag_285\n      jump\t// in\n    tag_430:\n        /* \"#utility.yul\":6799:6849   */\n      swap1\n      pop\n        /* \"#utility.yul\":6713:6855   */\n      swap2\n      swap1\n      pop\n      jump\t// out\n        /* \"#utility.yul\":6861:7024   */\n    tag_297:\n        /* \"#utility.yul\":6964:7017   */\n      tag_432\n        /* \"#utility.yul\":7011:7016   */\n      dup2\n        /* \"#utility.yul\":6964:7017   */\n      tag_296\n      jump\t// in\n    tag_432:\n        /* \"#utility.yul\":6959:6962   */\n      dup3\n        /* \"#utility.yul\":6952:7018   */\n      mstore\n        /* \"#utility.yul\":6861:7024   */\n      pop\n      pop\n      jump\t// out\n        /* \"#utility.yul\":7030:7284   */\n    tag_93:\n        /* \"#utility.yul\":7139:7143   */\n      0x00\n        /* \"#utility.yul\":7177:7179   */\n      0x20\n        /* \"#utility.yul\":7166:7175   */\n      dup3\n        /* \"#utility.yul\":7162:7180   */\n      add\n        /* \"#utility.yul\":7154:7180   */\n      swap1\n      pop\n        /* \"#utility.yul\":7190:7277   */\n      tag_434\n        /* \"#utility.yul\":7274:7275   */\n      0x00\n        /* \"#utility.yul\":7263:7272   */\n      dup4\n        /* \"#utility.yul\":7259:7276   */\n      add\n        /* \"#utility.yul\":7250:7256   */\n      dup5\n        /* \"#utility.yul\":7190:7277   */\n      tag_297\n      jump\t// in\n    tag_434:\n        /* \"#utility.yul\":7030:7284   */\n      swap3\n      swap2\n      pop\n      pop\n      jump\t// out\n        /* \"#utility.yul\":7290:7398   */\n    tag_298:\n        /* \"#utility.yul\":7367:7391   */\n      tag_436\n        /* \"#utility.yul\":7385:7390   */\n      dup2\n        /* \"#utility.yul\":7367:7391   */\n      tag_274\n      jump\t// in\n    tag_436:\n        /* \"#utility.yul\":7362:7365   */\n      dup3\n        /* \"#utility.yul\":7355:7392   */\n      mstore\n        /* \"#utility.yul\":7290:7398   */\n      pop\n      pop\n      jump\t// out\n        /* \"#utility.yul\":7404:7512   */\n    tag_299:\n        /* \"#utility.yul\":7481:7505   */\n      tag_438\n        /* \"#utility.yul\":7499:7504   */\n      dup2\n        /* \"#utility.yul\":7481:7505   */\n      tag_278\n      jump\t// in\n    tag_438:\n        /* \"#utility.yul\":7476:7479   */\n      dup3\n        /* \"#utility.yul\":7469:7506   */\n      mstore\n        /* \"#utility.yul\":7404:7512   */\n      pop\n      pop\n      jump\t// out\n        /* \"#utility.yul\":7518:7663   */\n    tag_300:\n        /* \"#utility.yul\":7607:7656   */\n      tag_440\n        /* \"#utility.yul\":7650:7655   */\n      dup2\n        /* \"#utility.yul\":7607:7656   */\n      tag_292\n      jump\t// in\n    tag_440:\n        /* \"#utility.yul\":7602:7605   */\n      dup3\n        /* \"#utility.yul\":7595:7657   */\n      mstore\n        /* \"#utility.yul\":7518:7663   */\n      pop\n      pop\n      jump\t// out\n        /* \"#utility.yul\":7753:8983   */\n    tag_301:\n        /* \"#utility.yul\":7904:7908   */\n      0xc0\n        /* \"#utility.yul\":7899:7902   */\n      dup3\n        /* \"#utility.yul\":7895:7909   */\n      add\n        /* \"#utility.yul\":7993:7997   */\n      0x00\n        /* \"#utility.yul\":7986:7991   */\n      dup3\n        /* \"#utility.yul\":7982:7998   */\n      add\n        /* \"#utility.yul\":7976:7999   */\n      mload\n        /* \"#utility.yul\":8012:8075   */\n      tag_442\n        /* \"#utility.yul\":8069:8073   */\n      0x00\n        /* \"#utility.yul\":8064:8067   */\n      dup6\n        /* \"#utility.yul\":8060:8074   */\n      add\n        /* \"#utility.yul\":8046:8058   */\n      dup3\n        /* \"#utility.yul\":8012:8075   */\n      tag_298\n      jump\t// in\n    tag_442:\n        /* \"#utility.yul\":7919:8085   */\n      pop\n        /* \"#utility.yul\":8170:8174   */\n      0x20\n        /* \"#utility.yul\":8163:8168   */\n      dup3\n        /* \"#utility.yul\":8159:8175   */\n      add\n        /* \"#utility.yul\":8153:8176   */\n      mload\n        /* \"#utility.yul\":8189:8252   */\n      tag_443\n        /* \"#utility.yul\":8246:8250   */\n      0x20\n        /* \"#utility.yul\":8241:8244   */\n      dup6\n        /* \"#utility.yul\":8237:8251   */\n      add\n        /* \"#utility.yul\":8223:8235   */\n      dup3\n        /* \"#utility.yul\":8189:8252   */\n      tag_298\n      jump\t// in\n    tag_443:\n        /* \"#utility.yul\":8095:8262   */\n      pop\n        /* \"#utility.yul\":8346:8350   */\n      0x40\n        /* \"#utility.yul\":8339:8344   */\n      dup3\n        /* \"#utility.yul\":8335:8351   */\n      add\n        /* \"#utility.yul\":8329:8352   */\n      mload\n        /* \"#utility.yul\":8365:8428   */\n      tag_444\n        /* \"#utility.yul\":8422:8426   */\n      0x40\n        /* \"#utility.yul\":8417:8420   */\n      dup6\n        /* \"#utility.yul\":8413:8427   */\n      add\n        /* \"#utility.yul\":8399:8411   */\n      dup3\n        /* \"#utility.yul\":8365:8428   */\n      tag_299\n      jump\t// in\n    tag_444:\n        /* \"#utility.yul\":8272:8438   */\n      pop\n        /* \"#utility.yul\":8521:8525   */\n      0x60\n        /* \"#utility.yul\":8514:8519   */\n      dup3\n        /* \"#utility.yul\":8510:8526   */\n      add\n        /* \"#utility.yul\":8504:8527   */\n      mload\n        /* \"#utility.yul\":8540:8603   */\n      tag_445\n        /* \"#utility.yul\":8597:8601   */\n      0x60\n        /* \"#utility.yul\":8592:8595   */\n      dup6\n        /* \"#utility.yul\":8588:8602   */\n      add\n        /* \"#utility.yul\":8574:8586   */\n      dup3\n        /* \"#utility.yul\":8540:8603   */\n      tag_299\n      jump\t// in\n    tag_445:\n        /* \"#utility.yul\":8448:8613   */\n      pop\n        /* \"#utility.yul\":8696:8700   */\n      0x80\n        /* \"#utility.yul\":8689:8694   */\n      dup3\n        /* \"#utility.yul\":8685:8701   */\n      add\n        /* \"#utility.yul\":8679:8702   */\n      mload\n        /* \"#utility.yul\":8715:8778   */\n      tag_446\n        /* \"#utility.yul\":8772:8776   */\n      0x80\n        /* \"#utility.yul\":8767:8770   */\n      dup6\n        /* \"#utility.yul\":8763:8777   */\n      add\n        /* \"#utility.yul\":8749:8761   */\n      dup3\n        /* \"#utility.yul\":8715:8778   */\n      tag_298\n      jump\t// in\n    tag_446:\n        /* \"#utility.yul\":8623:8788   */\n      pop\n        /* \"#utility.yul\":8872:8876   */\n      0xa0\n        /* \"#utility.yul\":8865:8870   */\n      dup3\n        /* \"#utility.yul\":8861:8877   */\n      add\n        /* \"#utility.yul\":8855:8878   */\n      mload\n        /* \"#utility.yul\":8891:8966   */\n      tag_447\n        /* \"#utility.yul\":8960:8964   */\n      0xa0\n        /* \"#utility.yul\":8955:8958   */\n      dup6\n        /* \"#utility.yul\":8951:8965   */\n      add\n        /* \"#utility.yul\":8937:8949   */\n      dup3\n        /* \"#utility.yul\":8891:8966   */\n      tag_300\n      jump\t// in\n    tag_447:\n        /* \"#utility.yul\":8798:8976   */\n      pop\n        /* \"#utility.yul\":7873:8983   */\n      pop\n        /* \"#utility.yul\":7753:8983   */\n      pop\n      pop\n      jump\t// out\n        /* \"#utility.yul\":8989:9320   */\n    tag_99:\n        /* \"#utility.yul\":9136:9140   */\n      0x00\n        /* \"#utility.yul\":9174:9177   */\n      0xc0\n        /* \"#utility.yul\":9163:9172   */\n      dup3\n        /* \"#utility.yul\":9159:9178   */\n      add\n        /* \"#utility.yul\":9151:9178   */\n      swap1\n      pop\n        /* \"#utility.yul\":9188:9313   */\n      tag_449\n        /* \"#utility.yul\":9310:9311   */\n      0x00\n        /* \"#utility.yul\":9299:9308   */\n      dup4\n        /* \"#utility.yul\":9295:9312   */\n      add\n        /* \"#utility.yul\":9286:9292   */\n      dup5\n        /* \"#utility.yul\":9188:9313   */\n      tag_301\n      jump\t// in\n    tag_449:\n        /* \"#utility.yul\":8989:9320   */\n      swap3\n      swap2\n      pop\n      pop\n      jump\t// out\n        /* \"#utility.yul\":9326:9548   */\n    tag_104:\n        /* \"#utility.yul\":9419:9423   */\n      0x00\n        /* \"#utility.yul\":9457:9459   */\n      0x20\n        /* \"#utility.yul\":9446:9455   */\n      dup3\n        /* \"#utility.yul\":9442:9460   */\n      add\n        /* \"#utility.yul\":9434:9460   */\n      swap1\n      pop\n        /* \"#utility.yul\":9470:9541   */\n      tag_451\n        /* \"#utility.yul\":9538:9539   */\n      0x00\n        /* \"#utility.yul\":9527:9536   */\n      dup4\n        /* \"#utility.yul\":9523:9540   */\n      add\n        /* \"#utility.yul\":9514:9520   */\n      dup5\n        /* \"#utility.yul\":9470:9541   */\n      tag_288\n      jump\t// in\n    tag_451:\n        /* \"#utility.yul\":9326:9548   */\n      swap3\n      swap2\n      pop\n      pop\n      jump\t// out\n        /* \"#utility.yul\":9554:9695   */\n    tag_302:\n        /* \"#utility.yul\":9619:9628   */\n      0x00\n        /* \"#utility.yul\":9652:9689   */\n      tag_453\n        /* \"#utility.yul\":9683:9688   */\n      dup3\n        /* \"#utility.yul\":9652:9689   */\n      tag_285\n      jump\t// in\n    tag_453:\n        /* \"#utility.yul\":9639:9689   */\n      swap1\n      pop\n        /* \"#utility.yul\":9554:9695   */\n      swap2\n      swap1\n      pop\n      jump\t// out\n        /* \"#utility.yul\":9701:9862   */\n    tag_303:\n        /* \"#utility.yul\":9803:9855   */\n      tag_455\n        /* \"#utility.yul\":9849:9854   */\n      dup2\n        /* \"#utility.yul\":9803:9855   */\n      tag_302\n      jump\t// in\n    tag_455:\n        /* \"#utility.yul\":9798:9801   */\n      dup3\n        /* \"#utility.yul\":9791:9856   */\n      mstore\n        /* \"#utility.yul\":9701:9862   */\n      pop\n      pop\n      jump\t// out\n        /* \"#utility.yul\":9868:10120   */\n    tag_113:\n        /* \"#utility.yul\":9976:9980   */\n      0x00\n        /* \"#utility.yul\":10014:10016   */\n      0x20\n        /* \"#utility.yul\":10003:10012   */\n      dup3\n        /* \"#utility.yul\":9999:10017   */\n      add\n        /* \"#utility.yul\":9991:10017   */\n      swap1\n      pop\n        /* \"#utility.yul\":10027:10113   */\n      tag_457\n        /* \"#utility.yul\":10110:10111   */\n      0x00\n        /* \"#utility.yul\":10099:10108   */\n      dup4\n        /* \"#utility.yul\":10095:10112   */\n      add\n        /* \"#utility.yul\":10086:10092   */\n      dup5\n        /* \"#utility.yul\":10027:10113   */\n      tag_303\n      jump\t// in\n    tag_457:\n        /* \"#utility.yul\":9868:10120   */\n      swap3\n      swap2\n      pop\n      pop\n      jump\t// out\n        /* \"#utility.yul\":10126:10295   */\n    tag_304:\n        /* \"#utility.yul\":10210:10221   */\n      0x00\n        /* \"#utility.yul\":10244:10250   */\n      dup3\n        /* \"#utility.yul\":10239:10242   */\n      dup3\n        /* \"#utility.yul\":10232:10251   */\n      mstore\n        /* \"#utility.yul\":10284:10288   */\n      0x20\n        /* \"#utility.yul\":10279:10282   */\n      dup3\n        /* \"#utility.yul\":10275:10289   */\n      add\n        /* \"#utility.yul\":10260:10289   */\n      swap1\n      pop\n        /* \"#utility.yul\":10126:10295   */\n      swap3\n      swap2\n      pop\n      pop\n      jump\t// out\n        /* \"#utility.yul\":10301:10470   */\n    tag_305:\n        /* \"#utility.yul\":10441:10462   */\n      0x4173736574206e6f74207075626c697368656400000000000000000000000000\n        /* \"#utility.yul\":10437:10438   */\n      0x00\n        /* \"#utility.yul\":10429:10435   */\n      dup3\n        /* \"#utility.yul\":10425:10439   */\n      add\n        /* \"#utility.yul\":10418:10463   */\n      mstore\n        /* \"#utility.yul\":10301:10470   */\n      pop\n      jump\t// out\n        /* \"#utility.yul\":10476:10842   */\n    tag_306:\n        /* \"#utility.yul\":10618:10621   */\n      0x00\n        /* \"#utility.yul\":10639:10706   */\n      tag_461\n        /* \"#utility.yul\":10703:10705   */\n      0x13\n        /* \"#utility.yul\":10698:10701   */\n      dup4\n        /* \"#utility.yul\":10639:10706   */\n      tag_304\n      jump\t// in\n    tag_461:\n        /* \"#utility.yul\":10632:10706   */\n      swap2\n      pop\n        /* \"#utility.yul\":10715:10808   */\n      tag_462\n        /* \"#utility.yul\":10804:10807   */\n      dup3\n        /* \"#utility.yul\":10715:10808   */\n      tag_305\n      jump\t// in\n    tag_462:\n        /* \"#utility.yul\":10833:10835   */\n      0x20\n        /* \"#utility.yul\":10828:10831   */\n      dup3\n        /* \"#utility.yul\":10824:10836   */\n      add\n        /* \"#utility.yul\":10817:10836   */\n      swap1\n      pop\n        /* \"#utility.yul\":10476:10842   */\n      swap2\n      swap1\n      pop\n      jump\t// out\n        /* \"#utility.yul\":10848:11267   */\n    tag_127:\n        /* \"#utility.yul\":11014:11018   */\n      0x00\n        /* \"#utility.yul\":11052:11054   */\n      0x20\n        /* \"#utility.yul\":11041:11050   */\n      dup3\n        /* \"#utility.yul\":11037:11055   */\n      add\n        /* \"#utility.yul\":11029:11055   */\n      swap1\n      pop\n        /* \"#utility.yul\":11101:11110   */\n      dup2\n        /* \"#utility.yul\":11095:11099   */\n      dup2\n        /* \"#utility.yul\":11091:11111   */\n      sub\n        /* \"#utility.yul\":11087:11088   */\n      0x00\n        /* \"#utility.yul\":11076:11085   */\n      dup4\n        /* \"#utility.yul\":11072:11089   */\n      add\n        /* \"#utility.yul\":11065:11112   */\n      mstore\n        /* \"#utility.yul\":11129:11260   */\n      tag_464\n        /* \"#utility.yul\":11255:11259   */\n      dup2\n        /* \"#utility.yul\":11129:11260   */\n      tag_306\n      jump\t// in\n    tag_464:\n        /* \"#utility.yul\":11121:11260   */\n      swap1\n      pop\n        /* \"#utility.yul\":10848:11267   */\n      swap2\n      swap1\n      pop\n      jump\t// out\n        /* \"#utility.yul\":11273:11437   */\n    tag_307:\n        /* \"#utility.yul\":11413:11429   */\n      0x41737365742064656c6973746564000000000000000000000000000000000000\n        /* \"#utility.yul\":11409:11410   */\n      0x00\n        /* \"#utility.yul\":11401:11407   */\n      dup3\n        /* \"#utility.yul\":11397:11411   */\n      add\n        /* \"#utility.yul\":11390:11430   */\n      mstore\n        /* \"#utility.yul\":11273:11437   */\n      pop\n      jump\t// out\n        /* \"#utility.yul\":11443:11809   */\n    tag_308:\n        /* \"#utility.yul\":11585:11588   */\n      0x00\n        /* \"#utility.yul\":11606:11673   */\n      tag_467\n        /* \"#utility.yul\":11670:11672   */\n      0x0e\n        /* \"#utility.yul\":11665:11668   */\n      dup4\n        /* \"#utility.yul\":11606:11673   */\n      tag_304\n      jump\t// in\n    tag_467:\n        /* \"#utility.yul\":11599:11673   */\n      swap2\n      pop\n        /* \"#utility.yul\":11682:11775   */\n      tag_468\n        /* \"#utility.yul\":11771:11774   */\n      dup3\n        /* \"#utility.yul\":11682:11775   */\n      tag_307\n      jump\t// in\n    tag_468:\n        /* \"#utility.yul\":11800:11802   */\n      0x20\n        /* \"#utility.yul\":11795:11798   */\n      dup3\n        /* \"#utility.yul\":11791:11803   */\n      add\n        /* \"#utility.yul\":11784:11803   */\n      swap1\n      pop\n        /* \"#utility.yul\":11443:11809   */\n      swap2\n      swap1\n      pop\n      jump\t// out\n        /* \"#utility.yul\":11815:12234   */\n    tag_134:\n        /* \"#utility.yul\":11981:11985   */\n      0x00\n        /* \"#utility.yul\":12019:12021   */\n      0x20\n        /* \"#utility.yul\":12008:12017   */\n      dup3\n        /* \"#utility.yul\":12004:12022   */\n      add\n        /* \"#utility.yul\":11996:12022   */\n      swap1\n      pop\n        /* \"#utility.yul\":12068:12077   */\n      dup2\n        /* \"#utility.yul\":12062:12066   */\n      dup2\n        /* \"#utility.yul\":12058:12078   */\n      sub\n        /* \"#utility.yul\":12054:12055   */\n      0x00\n        /* \"#utility.yul\":12043:12052   */\n      dup4\n        /* \"#utility.yul\":12039:12056   */\n      add\n        /* \"#utility.yul\":12032:12079   */\n      mstore\n        /* \"#utility.yul\":12096:12227   */\n      tag_470\n        /* \"#utility.yul\":12222:12226   */\n      dup2\n        /* \"#utility.yul\":12096:12227   */\n      tag_308\n      jump\t// in\n    tag_470:\n        /* \"#utility.yul\":12088:12227   */\n      swap1\n      pop\n        /* \"#utility.yul\":11815:12234   */\n      swap2\n      swap1\n      pop\n      jump\t// out\n        /* \"#utility.yul\":12240:12405   */\n    tag_309:\n        /* \"#utility.yul\":12380:12397   */\n      0x496e76616c696420616464726573730000000000000000000000000000000000\n        /* \"#utility.yul\":12376:12377   */\n      0x00\n        /* \"#utility.yul\":12368:12374   */\n      dup3\n        /* \"#utility.yul\":12364:12378   */\n      add\n        /* \"#utility.yul\":12357:12398   */\n      mstore\n        /* \"#utility.yul\":12240:12405   */\n      pop\n      jump\t// out\n        /* \"#utility.yul\":12411:12777   */\n    tag_310:\n        /* \"#utility.yul\":12553:12556   */\n      0x00\n        /* \"#utility.yul\":12574:12641   */\n      tag_473\n        /* \"#utility.yul\":12638:12640   */\n      0x0f\n        /* \"#utility.yul\":12633:12636   */\n      dup4\n        /* \"#utility.yul\":12574:12641   */\n      tag_304\n      jump\t// in\n    tag_473:\n        /* \"#utility.yul\":12567:12641   */\n      swap2\n      pop\n        /* \"#utility.yul\":12650:12743   */\n      tag_474\n        /* \"#utility.yul\":12739:12742   */\n      dup3\n        /* \"#utility.yul\":12650:12743   */\n      tag_309\n      jump\t// in\n    tag_474:\n        /* \"#utility.yul\":12768:12770   */\n      0x20\n        /* \"#utility.yul\":12763:12766   */\n      dup3\n        /* \"#utility.yul\":12759:12771   */\n      add\n        /* \"#utility.yul\":12752:12771   */\n      swap1\n      pop\n        /* \"#utility.yul\":12411:12777   */\n      swap2\n      swap1\n      pop\n      jump\t// out\n        /* \"#utility.yul\":12783:13202   */\n    tag_137:\n        /* \"#utility.yul\":12949:12953   */\n      0x00\n        /* \"#utility.yul\":12987:12989   */\n      0x20\n        /* \"#utility.yul\":12976:12985   */\n      dup3\n        /* \"#utility.yul\":12972:12990   */\n      add\n        /* \"#utility.yul\":12964:12990   */\n      swap1\n      pop\n        /* \"#utility.yul\":13036:13045   */\n      dup2\n        /* \"#utility.yul\":13030:13034   */\n      dup2\n        /* \"#utility.yul\":13026:13046   */\n      sub\n        /* \"#utility.yul\":13022:13023   */\n      0x00\n        /* \"#utility.yul\":13011:13020   */\n      dup4\n        /* \"#utility.yul\":13007:13024   */\n      add\n        /* \"#utility.yul\":13000:13047   */\n      mstore\n        /* \"#utility.yul\":13064:13195   */\n      tag_476\n        /* \"#utility.yul\":13190:13194   */\n      dup2\n        /* \"#utility.yul\":13064:13195   */\n      tag_310\n      jump\t// in\n    tag_476:\n        /* \"#utility.yul\":13056:13195   */\n      swap1\n      pop\n        /* \"#utility.yul\":12783:13202   */\n      swap2\n      swap1\n      pop\n      jump\t// out\n        /* \"#utility.yul\":13208:13380   */\n    tag_311:\n        /* \"#utility.yul\":13348:13372   */\n      0x4f6e6c792073656c6c65722063616e2064656c69737400000000000000000000\n        /* \"#utility.yul\":13344:13345   */\n      0x00\n        /* \"#utility.yul\":13336:13342   */\n      dup3\n        /* \"#utility.yul\":13332:13346   */\n      add\n        /* \"#utility.yul\":13325:13373   */\n      mstore\n        /* \"#utility.yul\":13208:13380   */\n      pop\n      jump\t// out\n        /* \"#utility.yul\":13386:13752   */\n    tag_312:\n        /* \"#utility.yul\":13528:13531   */\n      0x00\n        /* \"#utility.yul\":13549:13616   */\n      tag_479\n        /* \"#utility.yul\":13613:13615   */\n      0x16\n        /* \"#utility.yul\":13608:13611   */\n      dup4\n        /* \"#utility.yul\":13549:13616   */\n      tag_304\n      jump\t// in\n    tag_479:\n        /* \"#utility.yul\":13542:13616   */\n      swap2\n      pop\n        /* \"#utility.yul\":13625:13718   */\n      tag_480\n        /* \"#utility.yul\":13714:13717   */\n      dup3\n        /* \"#utility.yul\":13625:13718   */\n      tag_311\n      jump\t// in\n    tag_480:\n        /* \"#utility.yul\":13743:13745   */\n      0x20\n        /* \"#utility.yul\":13738:13741   */\n      dup3\n        /* \"#utility.yul\":13734:13746   */\n      add\n        /* \"#utility.yul\":13727:13746   */\n      swap1\n      pop\n        /* \"#utility.yul\":13386:13752   */\n      swap2\n      swap1\n      pop\n      jump\t// out\n        /* \"#utility.yul\":13758:14177   */\n    tag_140:\n        /* \"#utility.yul\":13924:13928   */\n      0x00\n        /* \"#utility.yul\":13962:13964   */\n      0x20\n        /* \"#utility.yul\":13951:13960   */\n      dup3\n        /* \"#utility.yul\":13947:13965   */\n      add\n        /* \"#utility.yul\":13939:13965   */\n      swap1\n      pop\n        /* \"#utility.yul\":14011:14020   */\n      dup2\n        /* \"#utility.yul\":14005:14009   */\n      dup2\n        /* \"#utility.yul\":14001:14021   */\n      sub\n        /* \"#utility.yul\":13997:13998   */\n      0x00\n        /* \"#utility.yul\":13986:13995   */\n      dup4\n        /* \"#utility.yul\":13982:13999   */\n      add\n        /* \"#utility.yul\":13975:14022   */\n      mstore\n        /* \"#utility.yul\":14039:14170   */\n      tag_482\n        /* \"#utility.yul\":14165:14169   */\n      dup2\n        /* \"#utility.yul\":14039:14170   */\n      tag_312\n      jump\t// in\n    tag_482:\n        /* \"#utility.yul\":14031:14170   */\n      swap1\n      pop\n        /* \"#utility.yul\":13758:14177   */\n      swap2\n      swap1\n      pop\n      jump\t// out\n        /* \"#utility.yul\":14183:14625   */\n    tag_142:\n        /* \"#utility.yul\":14332:14336   */\n      0x00\n        /* \"#utility.yul\":14370:14372   */\n      0x60\n        /* \"#utility.yul\":14359:14368   */\n      dup3\n        /* \"#utility.yul\":14355:14373   */\n      add\n        /* \"#utility.yul\":14347:14373   */\n      swap1\n      pop\n        /* \"#utility.yul\":14383:14454   */\n      tag_484\n        /* \"#utility.yul\":14451:14452   */\n      0x00\n        /* \"#utility.yul\":14440:14449   */\n      dup4\n        /* \"#utility.yul\":14436:14453   */\n      add\n        /* \"#utility.yul\":14427:14433   */\n      dup7\n        /* \"#utility.yul\":14383:14454   */\n      tag_289\n      jump\t// in\n    tag_484:\n        /* \"#utility.yul\":14464:14536   */\n      tag_485\n        /* \"#utility.yul\":14532:14534   */\n      0x20\n        /* \"#utility.yul\":14521:14530   */\n      dup4\n        /* \"#utility.yul\":14517:14535   */\n      add\n        /* \"#utility.yul\":14508:14514   */\n      dup6\n        /* \"#utility.yul\":14464:14536   */\n      tag_289\n      jump\t// in\n    tag_485:\n        /* \"#utility.yul\":14546:14618   */\n      tag_486\n        /* \"#utility.yul\":14614:14616   */\n      0x40\n        /* \"#utility.yul\":14603:14612   */\n      dup4\n        /* \"#utility.yul\":14599:14617   */\n      add\n        /* \"#utility.yul\":14590:14596   */\n      dup5\n        /* \"#utility.yul\":14546:14618   */\n      tag_288\n      jump\t// in\n    tag_486:\n        /* \"#utility.yul\":14183:14625   */\n      swap5\n      swap4\n      pop\n      pop\n      pop\n      pop\n      jump\t// out\n        /* \"#utility.yul\":14631:14963   */\n    tag_151:\n        /* \"#utility.yul\":14752:14756   */\n      0x00\n        /* \"#utility.yul\":14790:14792   */\n      0x40\n        /* \"#utility.yul\":14779:14788   */\n      dup3\n        /* \"#utility.yul\":14775:14793   */\n      add\n        /* \"#utility.yul\":14767:14793   */\n      swap1\n      pop\n        /* \"#utility.yul\":14803:14874   */\n      tag_488\n        /* \"#utility.yul\":14871:14872   */\n      0x00\n        /* \"#utility.yul\":14860:14869   */\n      dup4\n        /* \"#utility.yul\":14856:14873   */\n      add\n        /* \"#utility.yul\":14847:14853   */\n      dup6\n        /* \"#utility.yul\":14803:14874   */\n      tag_288\n      jump\t// in\n    tag_488:\n        /* \"#utility.yul\":14884:14956   */\n      tag_489\n        /* \"#utility.yul\":14952:14954   */\n      0x20\n        /* \"#utility.yul\":14941:14950   */\n      dup4\n        /* \"#utility.yul\":14937:14955   */\n      add\n        /* \"#utility.yul\":14928:14934   */\n      dup5\n        /* \"#utility.yul\":14884:14956   */\n      tag_288\n      jump\t// in\n    tag_489:\n        /* \"#utility.yul\":14631:14963   */\n      swap4\n      swap3\n      pop\n      pop\n      pop\n      jump\t// out\n        /* \"#utility.yul\":14969:15151   */\n    tag_313:\n        /* \"#utility.yul\":15109:15143   */\n      0x4f776e61626c653a2063616c6c6572206973206e6f7420746865206f776e6572\n        /* \"#utility.yul\":15105:15106   */\n      0x00\n        /* \"#utility.yul\":15097:15103   */\n      dup3\n        /* \"#utility.yul\":15093:15107   */\n      add\n        /* \"#utility.yul\":15086:15144   */\n      mstore\n        /* \"#utility.yul\":14969:15151   */\n      pop\n      jump\t// out\n        /* \"#utility.yul\":15157:15523   */\n    tag_314:\n        /* \"#utility.yul\":15299:15302   */\n      0x00\n        /* \"#utility.yul\":15320:15387   */\n      tag_492\n        /* \"#utility.yul\":15384:15386   */\n      0x20\n        /* \"#utility.yul\":15379:15382   */\n      dup4\n        /* \"#utility.yul\":15320:15387   */\n      tag_304\n      jump\t// in\n    tag_492:\n        /* \"#utility.yul\":15313:15387   */\n      swap2\n      pop\n        /* \"#utility.yul\":15396:15489   */\n      tag_493\n        /* \"#utility.yul\":15485:15488   */\n      dup3\n        /* \"#utility.yul\":15396:15489   */\n      tag_313\n      jump\t// in\n    tag_493:\n        /* \"#utility.yul\":15514:15516   */\n      0x20\n        /* \"#utility.yul\":15509:15512   */\n      dup3\n        /* \"#utility.yul\":15505:15517   */\n      add\n        /* \"#utility.yul\":15498:15517   */\n      swap1\n      pop\n        /* \"#utility.yul\":15157:15523   */\n      swap2\n      swap1\n      pop\n      jump\t// out\n        /* \"#utility.yul\":15529:15948   */\n    tag_158:\n        /* \"#utility.yul\":15695:15699   */\n      0x00\n        /* \"#utility.yul\":15733:15735   */\n      0x20\n        /* \"#utility.yul\":15722:15731   */\n      dup3\n        /* \"#utility.yul\":15718:15736   */\n      add\n        /* \"#utility.yul\":15710:15736   */\n      swap1\n      pop\n        /* \"#utility.yul\":15782:15791   */\n      dup2\n        /* \"#utility.yul\":15776:15780   */\n      dup2\n        /* \"#utility.yul\":15772:15792   */\n      sub\n        /* \"#utility.yul\":15768:15769   */\n      0x00\n        /* \"#utility.yul\":15757:15766   */\n      dup4\n        /* \"#utility.yul\":15753:15770   */\n      add\n        /* \"#utility.yul\":15746:15793   */\n      mstore\n        /* \"#utility.yul\":15810:15941   */\n      tag_495\n        /* \"#utility.yul\":15936:15940   */\n      dup2\n        /* \"#utility.yul\":15810:15941   */\n      tag_314\n      jump\t// in\n    tag_495:\n        /* \"#utility.yul\":15802:15941   */\n      swap1\n      pop\n        /* \"#utility.yul\":15529:15948   */\n      swap2\n      swap1\n      pop\n      jump\t// out\n        /* \"#utility.yul\":15954:16135   */\n    tag_315:\n        /* \"#utility.yul\":16094:16127   */\n      0x5265656e7472616e637947756172643a207265656e7472616e742063616c6c00\n        /* \"#utility.yul\":16090:16091   */\n      0x00\n        /* \"#utility.yul\":16082:16088   */\n      dup3\n        /* \"#utility.yul\":16078:16092   */\n      add\n        /* \"#utility.yul\":16071:16128   */\n      mstore\n        /* \"#utility.yul\":15954:16135   */\n      pop\n      jump\t// out\n        /* \"#utility.yul\":16141:16507   */\n    tag_316:\n        /* \"#utility.yul\":16283:16286   */\n      0x00\n        /* \"#utility.yul\":16304:16371   */\n      tag_498\n        /* \"#utility.yul\":16368:16370   */\n      0x1f\n        /* \"#utility.yul\":16363:16366   */\n      dup4\n        /* \"#utility.yul\":16304:16371   */\n      tag_304\n      jump\t// in\n    tag_498:\n        /* \"#utility.yul\":16297:16371   */\n      swap2\n      pop\n        /* \"#utility.yul\":16380:16473   */\n      tag_499\n        /* \"#utility.yul\":16469:16472   */\n      dup3\n        /* \"#utility.yul\":16380:16473   */\n      tag_315\n      jump\t// in\n    tag_499:\n        /* \"#utility.yul\":16498:16500   */\n      0x20\n        /* \"#utility.yul\":16493:16496   */\n      dup3\n        /* \"#utility.yul\":16489:16501   */\n      add\n        /* \"#utility.yul\":16482:16501   */\n      swap1\n      pop\n        /* \"#utility.yul\":16141:16507   */\n      swap2\n      swap1\n      pop\n      jump\t// out\n        /* \"#utility.yul\":16513:16932   */\n    tag_169:\n        /* \"#utility.yul\":16679:16683   */\n      0x00\n        /* \"#utility.yul\":16717:16719   */\n      0x20\n        /* \"#utility.yul\":16706:16715   */\n      dup3\n        /* \"#utility.yul\":16702:16720   */\n      add\n        /* \"#utility.yul\":16694:16720   */\n      swap1\n      pop\n        /* \"#utility.yul\":16766:16775   */\n      dup2\n        /* \"#utility.yul\":16760:16764   */\n      dup2\n        /* \"#utility.yul\":16756:16776   */\n      sub\n        /* \"#utility.yul\":16752:16753   */\n      0x00\n        /* \"#utility.yul\":16741:16750   */\n      dup4\n        /* \"#utility.yul\":16737:16754   */\n      add\n        /* \"#utility.yul\":16730:16777   */\n      mstore\n        /* \"#utility.yul\":16794:16925   */\n      tag_501\n        /* \"#utility.yul\":16920:16924   */\n      dup2\n        /* \"#utility.yul\":16794:16925   */\n      tag_316\n      jump\t// in\n    tag_501:\n        /* \"#utility.yul\":16786:16925   */\n      swap1\n      pop\n        /* \"#utility.yul\":16513:16932   */\n      swap2\n      swap1\n      pop\n      jump\t// out\n        /* \"#utility.yul\":16938:17116   */\n    tag_317:\n        /* \"#utility.yul\":17078:17108   */\n      0x5072696365206d757374206265206174206c6561737420312077656900000000\n        /* \"#utility.yul\":17074:17075   */\n      0x00\n        /* \"#utility.yul\":17066:17072   */\n      dup3\n        /* \"#utility.yul\":17062:17076   */\n      add\n        /* \"#utility.yul\":17055:17109   */\n      mstore\n        /* \"#utility.yul\":16938:17116   */\n      pop\n      jump\t// out\n        /* \"#utility.yul\":17122:17488   */\n    tag_318:\n        /* \"#utility.yul\":17264:17267   */\n      0x00\n        /* \"#utility.yul\":17285:17352   */\n      tag_504\n        /* \"#utility.yul\":17349:17351   */\n      0x1c\n        /* \"#utility.yul\":17344:17347   */\n      dup4\n        /* \"#utility.yul\":17285:17352   */\n      tag_304\n      jump\t// in\n    tag_504:\n        /* \"#utility.yul\":17278:17352   */\n      swap2\n      pop\n        /* \"#utility.yul\":17361:17454   */\n      tag_505\n        /* \"#utility.yul\":17450:17453   */\n      dup3\n        /* \"#utility.yul\":17361:17454   */\n      tag_317\n      jump\t// in\n    tag_505:\n        /* \"#utility.yul\":17479:17481   */\n      0x20\n        /* \"#utility.yul\":17474:17477   */\n      dup3\n        /* \"#utility.yul\":17470:17482   */\n      add\n        /* \"#utility.yul\":17463:17482   */\n      swap1\n      pop\n        /* \"#utility.yul\":17122:17488   */\n      swap2\n      swap1\n      pop\n      jump\t// out\n        /* \"#utility.yul\":17494:17913   */\n    tag_173:\n        /* \"#utility.yul\":17660:17664   */\n      0x00\n        /* \"#utility.yul\":17698:17700   */\n      0x20\n        /* \"#utility.yul\":17687:17696   */\n      dup3\n        /* \"#utility.yul\":17683:17701   */\n      add\n        /* \"#utility.yul\":17675:17701   */\n      swap1\n      pop\n        /* \"#utility.yul\":17747:17756   */\n      dup2\n        /* \"#utility.yul\":17741:17745   */\n      dup2\n        /* \"#utility.yul\":17737:17757   */\n      sub\n        /* \"#utility.yul\":17733:17734   */\n      0x00\n        /* \"#utility.yul\":17722:17731   */\n      dup4\n        /* \"#utility.yul\":17718:17735   */\n      add\n        /* \"#utility.yul\":17711:17758   */\n      mstore\n        /* \"#utility.yul\":17775:17906   */\n      tag_507\n        /* \"#utility.yul\":17901:17905   */\n      dup2\n        /* \"#utility.yul\":17775:17906   */\n      tag_318\n      jump\t// in\n    tag_507:\n        /* \"#utility.yul\":17767:17906   */\n      swap1\n      pop\n        /* \"#utility.yul\":17494:17913   */\n      swap2\n      swap1\n      pop\n      jump\t// out\n        /* \"#utility.yul\":17919:18036   */\n    tag_319:\n        /* \"#utility.yul\":18028:18029   */\n      0x00\n        /* \"#utility.yul\":18025:18026   */\n      dup1\n        /* \"#utility.yul\":18018:18030   */\n      revert\n        /* \"#utility.yul\":18042:18144   */\n    tag_320:\n        /* \"#utility.yul\":18083:18089   */\n      0x00\n        /* \"#utility.yul\":18134:18136   */\n      0x1f\n        /* \"#utility.yul\":18130:18137   */\n      not\n        /* \"#utility.yul\":18125:18127   */\n      0x1f\n        /* \"#utility.yul\":18118:18123   */\n      dup4\n        /* \"#utility.yul\":18114:18128   */\n      add\n        /* \"#utility.yul\":18110:18138   */\n      and\n        /* \"#utility.yul\":18100:18138   */\n      swap1\n      pop\n        /* \"#utility.yul\":18042:18144   */\n      swap2\n      swap1\n      pop\n      jump\t// out\n        /* \"#utility.yul\":18150:18330   */\n    tag_321:\n        /* \"#utility.yul\":18198:18275   */\n      0x4e487b7100000000000000000000000000000000000000000000000000000000\n        /* \"#utility.yul\":18195:18196   */\n      0x00\n        /* \"#utility.yul\":18188:18276   */\n      mstore\n        /* \"#utility.yul\":18295:18299   */\n      0x41\n        /* \"#utility.yul\":18292:18293   */\n      0x04\n        /* \"#utility.yul\":18285:18300   */\n      mstore\n        /* \"#utility.yul\":18319:18323   */\n      0x24\n        /* \"#utility.yul\":18316:18317   */\n      0x00\n        /* \"#utility.yul\":18309:18324   */\n      revert\n        /* \"#utility.yul\":18336:18617   */\n    tag_322:\n        /* \"#utility.yul\":18419:18446   */\n      tag_512\n        /* \"#utility.yul\":18441:18445   */\n      dup3\n        /* \"#utility.yul\":18419:18446   */\n      tag_320\n      jump\t// in\n    tag_512:\n        /* \"#utility.yul\":18411:18417   */\n      dup2\n        /* \"#utility.yul\":18407:18447   */\n      add\n        /* \"#utility.yul\":18549:18555   */\n      dup2\n        /* \"#utility.yul\":18537:18547   */\n      dup2\n        /* \"#utility.yul\":18534:18556   */\n      lt\n        /* \"#utility.yul\":18513:18531   */\n      0xffffffffffffffff\n        /* \"#utility.yul\":18501:18511   */\n      dup3\n        /* \"#utility.yul\":18498:18532   */\n      gt\n        /* \"#utility.yul\":18495:18557   */\n      or\n        /* \"#utility.yul\":18492:18580   */\n      iszero\n      tag_513\n      jumpi\n        /* \"#utility.yul\":18560:18578   */\n      tag_514\n      tag_321\n      jump\t// in\n    tag_514:\n        /* \"#utility.yul\":18492:18580   */\n    tag_513:\n        /* \"#utility.yul\":18600:18610   */\n      dup1\n        /* \"#utility.yul\":18596:18598   */\n      0x40\n        /* \"#utility.yul\":18589:18611   */\n      mstore\n        /* \"#utility.yul\":18379:18617   */\n      pop\n        /* \"#utility.yul\":18336:18617   */\n      pop\n      pop\n      jump\t// out\n        /* \"#utility.yul\":18623:18752   */\n    tag_323:\n        /* \"#utility.yul\":18657:18663   */\n      0x00\n        /* \"#utility.yul\":18684:18704   */\n      tag_516\n      tag_271\n      jump\t// in\n    tag_516:\n        /* \"#utility.yul\":18674:18704   */\n      swap1\n      pop\n        /* \"#utility.yul\":18713:18746   */\n      tag_517\n        /* \"#utility.yul\":18741:18745   */\n      dup3\n        /* \"#utility.yul\":18733:18739   */\n      dup3\n        /* \"#utility.yul\":18713:18746   */\n      tag_322\n      jump\t// in\n    tag_517:\n        /* \"#utility.yul\":18623:18752   */\n      swap2\n      swap1\n      pop\n      jump\t// out\n        /* \"#utility.yul\":18758:18875   */\n    tag_324:\n        /* \"#utility.yul\":18867:18868   */\n      0x00\n        /* \"#utility.yul\":18864:18865   */\n      dup1\n        /* \"#utility.yul\":18857:18869   */\n      revert\n        /* \"#utility.yul\":18881:19024   */\n    tag_325:\n        /* \"#utility.yul\":18938:18943   */\n      0x00\n        /* \"#utility.yul\":18969:18975   */\n      dup2\n        /* \"#utility.yul\":18963:18976   */\n      mload\n        /* \"#utility.yul\":18954:18976   */\n      swap1\n      pop\n        /* \"#utility.yul\":18985:19018   */\n      tag_520\n        /* \"#utility.yul\":19012:19017   */\n      dup2\n        /* \"#utility.yul\":18985:19018   */\n      tag_275\n      jump\t// in\n    tag_520:\n        /* \"#utility.yul\":18881:19024   */\n      swap3\n      swap2\n      pop\n      pop\n      jump\t// out\n        /* \"#utility.yul\":19030:19173   */\n    tag_326:\n        /* \"#utility.yul\":19087:19092   */\n      0x00\n        /* \"#utility.yul\":19118:19124   */\n      dup2\n        /* \"#utility.yul\":19112:19125   */\n      mload\n        /* \"#utility.yul\":19103:19125   */\n      swap1\n      pop\n        /* \"#utility.yul\":19134:19167   */\n      tag_522\n        /* \"#utility.yul\":19161:19166   */\n      dup2\n        /* \"#utility.yul\":19134:19167   */\n      tag_279\n      jump\t// in\n    tag_522:\n        /* \"#utility.yul\":19030:19173   */\n      swap3\n      swap2\n      pop\n      pop\n      jump\t// out\n        /* \"#utility.yul\":19179:19296   */\n    tag_327:\n        /* \"#utility.yul\":19288:19289   */\n      0x00\n        /* \"#utility.yul\":19285:19286   */\n      dup1\n        /* \"#utility.yul\":19278:19290   */\n      revert\n        /* \"#utility.yul\":19302:19419   */\n    tag_328:\n        /* \"#utility.yul\":19411:19412   */\n      0x00\n        /* \"#utility.yul\":19408:19409   */\n      dup1\n        /* \"#utility.yul\":19401:19413   */\n      revert\n        /* \"#utility.yul\":19425:19733   */\n    tag_329:\n        /* \"#utility.yul\":19487:19491   */\n      0x00\n        /* \"#utility.yul\":19577:19595   */\n      0xffffffffffffffff\n        /* \"#utility.yul\":19569:19575   */\n      dup3\n        /* \"#utility.yul\":19566:19596   */\n      gt\n        /* \"#utility.yul\":19563:19619   */\n      iszero\n      tag_526\n      jumpi\n        /* \"#utility.yul\":19599:19617   */\n      tag_527\n      tag_321\n      jump\t// in\n    tag_527:\n        /* \"#utility.yul\":19563:19619   */\n    tag_526:\n        /* \"#utility.yul\":19637:19666   */\n      tag_528\n        /* \"#utility.yul\":19659:19665   */\n      dup3\n        /* \"#utility.yul\":19637:19666   */\n      tag_320\n      jump\t// in\n    tag_528:\n        /* \"#utility.yul\":19629:19666   */\n      swap1\n      pop\n        /* \"#utility.yul\":19721:19725   */\n      0x20\n        /* \"#utility.yul\":19715:19719   */\n      dup2\n        /* \"#utility.yul\":19711:19726   */\n      add\n        /* \"#utility.yul\":19703:19726   */\n      swap1\n      pop\n        /* \"#utility.yul\":19425:19733   */\n      swap2\n      swap1\n      pop\n      jump\t// out\n        /* \"#utility.yul\":19739:20046   */\n    tag_330:\n        /* \"#utility.yul\":19807:19808   */\n      0x00\n        /* \"#utility.yul\":19817:19930   */\n    tag_530:\n        /* \"#utility.yul\":19831:19837   */\n      dup4\n        /* \"#utility.yul\":19828:19829   */\n      dup2\n        /* \"#utility.yul\":19825:19838   */\n      lt\n        /* \"#utility.yul\":19817:19930   */\n      iszero\n      tag_532\n      jumpi\n        /* \"#utility.yul\":19916:19917   */\n      dup1\n        /* \"#utility.yul\":19911:19914   */\n      dup3\n        /* \"#utility.yul\":19907:19918   */\n      add\n        /* \"#utility.yul\":19901:19919   */\n      mload\n        /* \"#utility.yul\":19897:19898   */\n      dup2\n        /* \"#utility.yul\":19892:19895   */\n      dup5\n        /* \"#utility.yul\":19888:19899   */\n      add\n        /* \"#utility.yul\":19881:19920   */\n      mstore\n        /* \"#utility.yul\":19853:19855   */\n      0x20\n        /* \"#utility.yul\":19850:19851   */\n      dup2\n        /* \"#utility.yul\":19846:19856   */\n      add\n        /* \"#utility.yul\":19841:19856   */\n      swap1\n      pop\n        /* \"#utility.yul\":19817:19930   */\n      jump(tag_530)\n    tag_532:\n        /* \"#utility.yul\":19948:19954   */\n      dup4\n        /* \"#utility.yul\":19945:19946   */\n      dup2\n        /* \"#utility.yul\":19942:19955   */\n      gt\n        /* \"#utility.yul\":19939:20040   */\n      iszero\n      tag_533\n      jumpi\n        /* \"#utility.yul\":20028:20029   */\n      0x00\n        /* \"#utility.yul\":20019:20025   */\n      dup5\n        /* \"#utility.yul\":20014:20017   */\n      dup5\n        /* \"#utility.yul\":20010:20026   */\n      add\n        /* \"#utility.yul\":20003:20030   */\n      mstore\n        /* \"#utility.yul\":19939:20040   */\n    tag_533:\n        /* \"#utility.yul\":19788:20046   */\n      pop\n        /* \"#utility.yul\":19739:20046   */\n      pop\n      pop\n      pop\n      jump\t// out\n        /* \"#utility.yul\":20052:20473   */\n    tag_331:\n        /* \"#utility.yul\":20141:20146   */\n      0x00\n        /* \"#utility.yul\":20166:20232   */\n      tag_535\n        /* \"#utility.yul\":20182:20231   */\n      tag_536\n        /* \"#utility.yul\":20224:20230   */\n      dup5\n        /* \"#utility.yul\":20182:20231   */\n      tag_329\n      jump\t// in\n    tag_536:\n        /* \"#utility.yul\":20166:20232   */\n      tag_323\n      jump\t// in\n    tag_535:\n        /* \"#utility.yul\":20157:20232   */\n      swap1\n      pop\n        /* \"#utility.yul\":20255:20261   */\n      dup3\n        /* \"#utility.yul\":20248:20253   */\n      dup2\n        /* \"#utility.yul\":20241:20262   */\n      mstore\n        /* \"#utility.yul\":20293:20297   */\n      0x20\n        /* \"#utility.yul\":20286:20291   */\n      dup2\n        /* \"#utility.yul\":20282:20298   */\n      add\n        /* \"#utility.yul\":20331:20334   */\n      dup5\n        /* \"#utility.yul\":20322:20328   */\n      dup5\n        /* \"#utility.yul\":20317:20320   */\n      dup5\n        /* \"#utility.yul\":20313:20329   */\n      add\n        /* \"#utility.yul\":20310:20335   */\n      gt\n        /* \"#utility.yul\":20307:20419   */\n      iszero\n      tag_537\n      jumpi\n        /* \"#utility.yul\":20338:20417   */\n      tag_538\n      tag_328\n      jump\t// in\n    tag_538:\n        /* \"#utility.yul\":20307:20419   */\n    tag_537:\n        /* \"#utility.yul\":20428:20467   */\n      tag_539\n        /* \"#utility.yul\":20460:20466   */\n      dup5\n        /* \"#utility.yul\":20455:20458   */\n      dup3\n        /* \"#utility.yul\":20450:20453   */\n      dup6\n        /* \"#utility.yul\":20428:20467   */\n      tag_330\n      jump\t// in\n    tag_539:\n        /* \"#utility.yul\":20147:20473   */\n      pop\n        /* \"#utility.yul\":20052:20473   */\n      swap4\n      swap3\n      pop\n      pop\n      pop\n      jump\t// out\n        /* \"#utility.yul\":20493:20848   */\n    tag_332:\n        /* \"#utility.yul\":20560:20565   */\n      0x00\n        /* \"#utility.yul\":20609:20612   */\n      dup3\n        /* \"#utility.yul\":20602:20606   */\n      0x1f\n        /* \"#utility.yul\":20594:20600   */\n      dup4\n        /* \"#utility.yul\":20590:20607   */\n      add\n        /* \"#utility.yul\":20586:20613   */\n      slt\n        /* \"#utility.yul\":20576:20698   */\n      tag_541\n      jumpi\n        /* \"#utility.yul\":20617:20696   */\n      tag_542\n      tag_327\n      jump\t// in\n    tag_542:\n        /* \"#utility.yul\":20576:20698   */\n    tag_541:\n        /* \"#utility.yul\":20727:20733   */\n      dup2\n        /* \"#utility.yul\":20721:20734   */\n      mload\n        /* \"#utility.yul\":20752:20842   */\n      tag_543\n        /* \"#utility.yul\":20838:20841   */\n      dup5\n        /* \"#utility.yul\":20830:20836   */\n      dup3\n        /* \"#utility.yul\":20823:20827   */\n      0x20\n        /* \"#utility.yul\":20815:20821   */\n      dup7\n        /* \"#utility.yul\":20811:20828   */\n      add\n        /* \"#utility.yul\":20752:20842   */\n      tag_331\n      jump\t// in\n    tag_543:\n        /* \"#utility.yul\":20743:20842   */\n      swap2\n      pop\n        /* \"#utility.yul\":20566:20848   */\n      pop\n        /* \"#utility.yul\":20493:20848   */\n      swap3\n      swap2\n      pop\n      pop\n      jump\t// out\n        /* \"#utility.yul\":20854:20944   */\n    tag_333:\n        /* \"#utility.yul\":20888:20895   */\n      0x00\n        /* \"#utility.yul\":20931:20936   */\n      dup2\n        /* \"#utility.yul\":20924:20937   */\n      iszero\n        /* \"#utility.yul\":20917:20938   */\n      iszero\n        /* \"#utility.yul\":20906:20938   */\n      swap1\n      pop\n        /* \"#utility.yul\":20854:20944   */\n      swap2\n      swap1\n      pop\n      jump\t// out\n        /* \"#utility.yul\":20950:21066   */\n    tag_334:\n        /* \"#utility.yul\":21020:21041   */\n      tag_546\n        /* \"#utility.yul\":21035:21040   */\n      dup2\n        /* \"#utility.yul\":21020:21041   */\n      tag_333\n      jump\t// in\n    tag_546:\n        /* \"#utility.yul\":21013:21018   */\n      dup2\n        /* \"#utility.yul\":21010:21042   */\n      eq\n        /* \"#utility.yul\":21000:21060   */\n      tag_547\n      jumpi\n        /* \"#utility.yul\":21056:21057   */\n      0x00\n        /* \"#utility.yul\":21053:21054   */\n      dup1\n        /* \"#utility.yul\":21046:21058   */\n      revert\n        /* \"#utility.yul\":21000:21060   */\n    tag_547:\n        /* \"#utility.yul\":20950:21066   */\n      pop\n      jump\t// out\n        /* \"#utility.yul\":21072:21209   */\n    tag_335:\n        /* \"#utility.yul\":21126:21131   */\n      0x00\n        /* \"#utility.yul\":21157:21163   */\n      dup2\n        /* \"#utility.yul\":21151:21164   */\n      mload\n        /* \"#utility.yul\":21142:21164   */\n      swap1\n      pop\n        /* \"#utility.yul\":21173:21203   */\n      tag_549\n        /* \"#utility.yul\":21197:21202   */\n      dup2\n        /* \"#utility.yul\":21173:21203   */\n      tag_334\n      jump\t// in\n    tag_549:\n        /* \"#utility.yul\":21072:21209   */\n      swap3\n      swap2\n      pop\n      pop\n      jump\t// out\n        /* \"#utility.yul\":21251:22710   */\n    tag_336:\n        /* \"#utility.yul\":21339:21344   */\n      0x00\n        /* \"#utility.yul\":21383:21387   */\n      0xa0\n        /* \"#utility.yul\":21371:21380   */\n      dup3\n        /* \"#utility.yul\":21366:21369   */\n      dup5\n        /* \"#utility.yul\":21362:21381   */\n      sub\n        /* \"#utility.yul\":21358:21388   */\n      slt\n        /* \"#utility.yul\":21355:21472   */\n      iszero\n      tag_551\n      jumpi\n        /* \"#utility.yul\":21391:21470   */\n      tag_552\n      tag_319\n      jump\t// in\n    tag_552:\n        /* \"#utility.yul\":21355:21472   */\n    tag_551:\n        /* \"#utility.yul\":21490:21511   */\n      tag_553\n        /* \"#utility.yul\":21506:21510   */\n      0xa0\n        /* \"#utility.yul\":21490:21511   */\n      tag_323\n      jump\t// in\n    tag_553:\n        /* \"#utility.yul\":21481:21511   */\n      swap1\n      pop\n        /* \"#utility.yul\":21568:21569   */\n      0x00\n        /* \"#utility.yul\":21608:21668   */\n      tag_554\n        /* \"#utility.yul\":21664:21667   */\n      dup5\n        /* \"#utility.yul\":21655:21661   */\n      dup3\n        /* \"#utility.yul\":21644:21653   */\n      dup6\n        /* \"#utility.yul\":21640:21662   */\n      add\n        /* \"#utility.yul\":21608:21668   */\n      tag_325\n      jump\t// in\n    tag_554:\n        /* \"#utility.yul\":21601:21605   */\n      0x00\n        /* \"#utility.yul\":21594:21599   */\n      dup4\n        /* \"#utility.yul\":21590:21606   */\n      add\n        /* \"#utility.yul\":21583:21669   */\n      mstore\n        /* \"#utility.yul\":21521:21680   */\n      pop\n        /* \"#utility.yul\":21740:21742   */\n      0x20\n        /* \"#utility.yul\":21781:21841   */\n      tag_555\n        /* \"#utility.yul\":21837:21840   */\n      dup5\n        /* \"#utility.yul\":21828:21834   */\n      dup3\n        /* \"#utility.yul\":21817:21826   */\n      dup6\n        /* \"#utility.yul\":21813:21835   */\n      add\n        /* \"#utility.yul\":21781:21841   */\n      tag_326\n      jump\t// in\n    tag_555:\n        /* \"#utility.yul\":21774:21778   */\n      0x20\n        /* \"#utility.yul\":21767:21772   */\n      dup4\n        /* \"#utility.yul\":21763:21779   */\n      add\n        /* \"#utility.yul\":21756:21842   */\n      mstore\n        /* \"#utility.yul\":21690:21853   */\n      pop\n        /* \"#utility.yul\":21935:21937   */\n      0x40\n        /* \"#utility.yul\":21924:21933   */\n      dup3\n        /* \"#utility.yul\":21920:21938   */\n      add\n        /* \"#utility.yul\":21914:21939   */\n      mload\n        /* \"#utility.yul\":21966:21984   */\n      0xffffffffffffffff\n        /* \"#utility.yul\":21958:21964   */\n      dup2\n        /* \"#utility.yul\":21955:21985   */\n      gt\n        /* \"#utility.yul\":21952:22069   */\n      iszero\n      tag_556\n      jumpi\n        /* \"#utility.yul\":21988:22067   */\n      tag_557\n      tag_324\n      jump\t// in\n    tag_557:\n        /* \"#utility.yul\":21952:22069   */\n    tag_556:\n        /* \"#utility.yul\":22108:22178   */\n      tag_558\n        /* \"#utility.yul\":22174:22177   */\n      dup5\n        /* \"#utility.yul\":22165:22171   */\n      dup3\n        /* \"#utility.yul\":22154:22163   */\n      dup6\n        /* \"#utility.yul\":22150:22172   */\n      add\n        /* \"#utility.yul\":22108:22178   */\n      tag_332\n      jump\t// in\n    tag_558:\n        /* \"#utility.yul\":22101:22105   */\n      0x40\n        /* \"#utility.yul\":22094:22099   */\n      dup4\n        /* \"#utility.yul\":22090:22106   */\n      add\n        /* \"#utility.yul\":22083:22179   */\n      mstore\n        /* \"#utility.yul\":21863:22190   */\n      pop\n        /* \"#utility.yul\":22276:22278   */\n      0x60\n        /* \"#utility.yul\":22265:22274   */\n      dup3\n        /* \"#utility.yul\":22261:22279   */\n      add\n        /* \"#utility.yul\":22255:22280   */\n      mload\n        /* \"#utility.yul\":22307:22325   */\n      0xffffffffffffffff\n        /* \"#utility.yul\":22299:22305   */\n      dup2\n        /* \"#utility.yul\":22296:22326   */\n      gt\n        /* \"#utility.yul\":22293:22410   */\n      iszero\n      tag_559\n      jumpi\n        /* \"#utility.yul\":22329:22408   */\n      tag_560\n      tag_324\n      jump\t// in\n    tag_560:\n        /* \"#utility.yul\":22293:22410   */\n    tag_559:\n        /* \"#utility.yul\":22449:22519   */\n      tag_561\n        /* \"#utility.yul\":22515:22518   */\n      dup5\n        /* \"#utility.yul\":22506:22512   */\n      dup3\n        /* \"#utility.yul\":22495:22504   */\n      dup6\n        /* \"#utility.yul\":22491:22513   */\n      add\n        /* \"#utility.yul\":22449:22519   */\n      tag_332\n      jump\t// in\n    tag_561:\n        /* \"#utility.yul\":22442:22446   */\n      0x60\n        /* \"#utility.yul\":22435:22440   */\n      dup4\n        /* \"#utility.yul\":22431:22447   */\n      add\n        /* \"#utility.yul\":22424:22520   */\n      mstore\n        /* \"#utility.yul\":22200:22531   */\n      pop\n        /* \"#utility.yul\":22592:22595   */\n      0x80\n        /* \"#utility.yul\":22634:22691   */\n      tag_562\n        /* \"#utility.yul\":22687:22690   */\n      dup5\n        /* \"#utility.yul\":22678:22684   */\n      dup3\n        /* \"#utility.yul\":22667:22676   */\n      dup6\n        /* \"#utility.yul\":22663:22685   */\n      add\n        /* \"#utility.yul\":22634:22691   */\n      tag_335\n      jump\t// in\n    tag_562:\n        /* \"#utility.yul\":22627:22631   */\n      0x80\n        /* \"#utility.yul\":22620:22625   */\n      dup4\n        /* \"#utility.yul\":22616:22632   */\n      add\n        /* \"#utility.yul\":22609:22692   */\n      mstore\n        /* \"#utility.yul\":22541:22703   */\n      pop\n        /* \"#utility.yul\":21251:22710   */\n      swap3\n      swap2\n      pop\n      pop\n      jump\t// out\n        /* \"#utility.yul\":22716:23276   */\n    tag_178:\n        /* \"#utility.yul\":22814:22820   */\n      0x00\n        /* \"#utility.yul\":22863:22865   */\n      0x20\n        /* \"#utility.yul\":22851:22860   */\n      dup3\n        /* \"#utility.yul\":22842:22849   */\n      dup5\n        /* \"#utility.yul\":22838:22861   */\n      sub\n        /* \"#utility.yul\":22834:22866   */\n      slt\n        /* \"#utility.yul\":22831:22950   */\n      iszero\n      tag_564\n      jumpi\n        /* \"#utility.yul\":22869:22948   */\n      tag_565\n      tag_272\n      jump\t// in\n    tag_565:\n        /* \"#utility.yul\":22831:22950   */\n    tag_564:\n        /* \"#utility.yul\":23010:23011   */\n      0x00\n        /* \"#utility.yul\":22999:23008   */\n      dup3\n        /* \"#utility.yul\":22995:23012   */\n      add\n        /* \"#utility.yul\":22989:23013   */\n      mload\n        /* \"#utility.yul\":23040:23058   */\n      0xffffffffffffffff\n        /* \"#utility.yul\":23032:23038   */\n      dup2\n        /* \"#utility.yul\":23029:23059   */\n      gt\n        /* \"#utility.yul\":23026:23143   */\n      iszero\n      tag_566\n      jumpi\n        /* \"#utility.yul\":23062:23141   */\n      tag_567\n      tag_273\n      jump\t// in\n    tag_567:\n        /* \"#utility.yul\":23026:23143   */\n    tag_566:\n        /* \"#utility.yul\":23167:23259   */\n      tag_568\n        /* \"#utility.yul\":23251:23258   */\n      dup5\n        /* \"#utility.yul\":23242:23248   */\n      dup3\n        /* \"#utility.yul\":23231:23240   */\n      dup6\n        /* \"#utility.yul\":23227:23249   */\n      add\n        /* \"#utility.yul\":23167:23259   */\n      tag_336\n      jump\t// in\n    tag_568:\n        /* \"#utility.yul\":23157:23259   */\n      swap2\n      pop\n        /* \"#utility.yul\":22960:23269   */\n      pop\n        /* \"#utility.yul\":22716:23276   */\n      swap3\n      swap2\n      pop\n      pop\n      jump\t// out\n        /* \"#utility.yul\":23282:23459   */\n    tag_337:\n        /* \"#utility.yul\":23422:23451   */\n      0x4974656d206973206e6f7420617661696c61626c65206e6f7720210000000000\n        /* \"#utility.yul\":23418:23419   */\n      0x00\n        /* \"#utility.yul\":23410:23416   */\n      dup3\n        /* \"#utility.yul\":23406:23420   */\n      add\n        /* \"#utility.yul\":23399:23452   */\n      mstore\n        /* \"#utility.yul\":23282:23459   */\n      pop\n      jump\t// out\n        /* \"#utility.yul\":23465:23831   */\n    tag_338:\n        /* \"#utility.yul\":23607:23610   */\n      0x00\n        /* \"#utility.yul\":23628:23695   */\n      tag_571\n        /* \"#utility.yul\":23692:23694   */\n      0x1b\n        /* \"#utility.yul\":23687:23690   */\n      dup4\n        /* \"#utility.yul\":23628:23695   */\n      tag_304\n      jump\t// in\n    tag_571:\n        /* \"#utility.yul\":23621:23695   */\n      swap2\n      pop\n        /* \"#utility.yul\":23704:23797   */\n      tag_572\n        /* \"#utility.yul\":23793:23796   */\n      dup3\n        /* \"#utility.yul\":23704:23797   */\n      tag_337\n      jump\t// in\n    tag_572:\n        /* \"#utility.yul\":23822:23824   */\n      0x20\n        /* \"#utility.yul\":23817:23820   */\n      dup3\n        /* \"#utility.yul\":23813:23825   */\n      add\n        /* \"#utility.yul\":23806:23825   */\n      swap1\n      pop\n        /* \"#utility.yul\":23465:23831   */\n      swap2\n      swap1\n      pop\n      jump\t// out\n        /* \"#utility.yul\":23837:24256   */\n    tag_181:\n        /* \"#utility.yul\":24003:24007   */\n      0x00\n        /* \"#utility.yul\":24041:24043   */\n      0x20\n        /* \"#utility.yul\":24030:24039   */\n      dup3\n        /* \"#utility.yul\":24026:24044   */\n      add\n        /* \"#utility.yul\":24018:24044   */\n      swap1\n      pop\n        /* \"#utility.yul\":24090:24099   */\n      dup2\n        /* \"#utility.yul\":24084:24088   */\n      dup2\n        /* \"#utility.yul\":24080:24100   */\n      sub\n        /* \"#utility.yul\":24076:24077   */\n      0x00\n        /* \"#utility.yul\":24065:24074   */\n      dup4\n        /* \"#utility.yul\":24061:24078   */\n      add\n        /* \"#utility.yul\":24054:24101   */\n      mstore\n        /* \"#utility.yul\":24118:24249   */\n      tag_574\n        /* \"#utility.yul\":24244:24248   */\n      dup2\n        /* \"#utility.yul\":24118:24249   */\n      tag_338\n      jump\t// in\n    tag_574:\n        /* \"#utility.yul\":24110:24249   */\n      swap1\n      pop\n        /* \"#utility.yul\":23837:24256   */\n      swap2\n      swap1\n      pop\n      jump\t// out\n        /* \"#utility.yul\":24262:24396   */\n    tag_339:\n        /* \"#utility.yul\":24320:24329   */\n      0x00\n        /* \"#utility.yul\":24353:24390   */\n      tag_576\n        /* \"#utility.yul\":24384:24389   */\n      dup3\n        /* \"#utility.yul\":24353:24390   */\n      tag_285\n      jump\t// in\n    tag_576:\n        /* \"#utility.yul\":24340:24390   */\n      swap1\n      pop\n        /* \"#utility.yul\":24262:24396   */\n      swap2\n      swap1\n      pop\n      jump\t// out\n        /* \"#utility.yul\":24402:24549   */\n    tag_340:\n        /* \"#utility.yul\":24497:24542   */\n      tag_578\n        /* \"#utility.yul\":24536:24541   */\n      dup2\n        /* \"#utility.yul\":24497:24542   */\n      tag_339\n      jump\t// in\n    tag_578:\n        /* \"#utility.yul\":24492:24495   */\n      dup3\n        /* \"#utility.yul\":24485:24543   */\n      mstore\n        /* \"#utility.yul\":24402:24549   */\n      pop\n      pop\n      jump\t// out\n        /* \"#utility.yul\":24555:25013   */\n    tag_183:\n        /* \"#utility.yul\":24712:24716   */\n      0x00\n        /* \"#utility.yul\":24750:24752   */\n      0x60\n        /* \"#utility.yul\":24739:24748   */\n      dup3\n        /* \"#utility.yul\":24735:24753   */\n      add\n        /* \"#utility.yul\":24727:24753   */\n      swap1\n      pop\n        /* \"#utility.yul\":24763:24842   */\n      tag_580\n        /* \"#utility.yul\":24839:24840   */\n      0x00\n        /* \"#utility.yul\":24828:24837   */\n      dup4\n        /* \"#utility.yul\":24824:24841   */\n      add\n        /* \"#utility.yul\":24815:24821   */\n      dup7\n        /* \"#utility.yul\":24763:24842   */\n      tag_340\n      jump\t// in\n    tag_580:\n        /* \"#utility.yul\":24852:24924   */\n      tag_581\n        /* \"#utility.yul\":24920:24922   */\n      0x20\n        /* \"#utility.yul\":24909:24918   */\n      dup4\n        /* \"#utility.yul\":24905:24923   */\n      add\n        /* \"#utility.yul\":24896:24902   */\n      dup6\n        /* \"#utility.yul\":24852:24924   */\n      tag_289\n      jump\t// in\n    tag_581:\n        /* \"#utility.yul\":24934:25006   */\n      tag_582\n        /* \"#utility.yul\":25002:25004   */\n      0x40\n        /* \"#utility.yul\":24991:25000   */\n      dup4\n        /* \"#utility.yul\":24987:25005   */\n      add\n        /* \"#utility.yul\":24978:24984   */\n      dup5\n        /* \"#utility.yul\":24934:25006   */\n      tag_288\n      jump\t// in\n    tag_582:\n        /* \"#utility.yul\":24555:25013   */\n      swap5\n      swap4\n      pop\n      pop\n      pop\n      pop\n      jump\t// out\n        /* \"#utility.yul\":25019:25270   */\n    tag_341:\n        /* \"#utility.yul\":25159:25193   */\n      0x506c65617365207375626d6974207468652061736b696e672070726963652069\n        /* \"#utility.yul\":25155:25156   */\n      0x00\n        /* \"#utility.yul\":25147:25153   */\n      dup3\n        /* \"#utility.yul\":25143:25157   */\n      add\n        /* \"#utility.yul\":25136:25194   */\n      mstore\n        /* \"#utility.yul\":25228:25262   */\n      0x6e206f7264657220746f20636f6d706c65746520746865207075726368617365\n        /* \"#utility.yul\":25223:25225   */\n      0x20\n        /* \"#utility.yul\":25215:25221   */\n      dup3\n        /* \"#utility.yul\":25211:25226   */\n      add\n        /* \"#utility.yul\":25204:25263   */\n      mstore\n        /* \"#utility.yul\":25019:25270   */\n      pop\n      jump\t// out\n        /* \"#utility.yul\":25276:25642   */\n    tag_342:\n        /* \"#utility.yul\":25418:25421   */\n      0x00\n        /* \"#utility.yul\":25439:25506   */\n      tag_585\n        /* \"#utility.yul\":25503:25505   */\n      0x40\n        /* \"#utility.yul\":25498:25501   */\n      dup4\n        /* \"#utility.yul\":25439:25506   */\n      tag_304\n      jump\t// in\n    tag_585:\n        /* \"#utility.yul\":25432:25506   */\n      swap2\n      pop\n        /* \"#utility.yul\":25515:25608   */\n      tag_586\n        /* \"#utility.yul\":25604:25607   */\n      dup3\n        /* \"#utility.yul\":25515:25608   */\n      tag_341\n      jump\t// in\n    tag_586:\n        /* \"#utility.yul\":25633:25635   */\n      0x40\n        /* \"#utility.yul\":25628:25631   */\n      dup3\n        /* \"#utility.yul\":25624:25636   */\n      add\n        /* \"#utility.yul\":25617:25636   */\n      swap1\n      pop\n        /* \"#utility.yul\":25276:25642   */\n      swap2\n      swap1\n      pop\n      jump\t// out\n        /* \"#utility.yul\":25648:26067   */\n    tag_222:\n        /* \"#utility.yul\":25814:25818   */\n      0x00\n        /* \"#utility.yul\":25852:25854   */\n      0x20\n        /* \"#utility.yul\":25841:25850   */\n      dup3\n        /* \"#utility.yul\":25837:25855   */\n      add\n        /* \"#utility.yul\":25829:25855   */\n      swap1\n      pop\n        /* \"#utility.yul\":25901:25910   */\n      dup2\n        /* \"#utility.yul\":25895:25899   */\n      dup2\n        /* \"#utility.yul\":25891:25911   */\n      sub\n        /* \"#utility.yul\":25887:25888   */\n      0x00\n        /* \"#utility.yul\":25876:25885   */\n      dup4\n        /* \"#utility.yul\":25872:25889   */\n      add\n        /* \"#utility.yul\":25865:25912   */\n      mstore\n        /* \"#utility.yul\":25929:26060   */\n      tag_588\n        /* \"#utility.yul\":26055:26059   */\n      dup2\n        /* \"#utility.yul\":25929:26060   */\n      tag_342\n      jump\t// in\n    tag_588:\n        /* \"#utility.yul\":25921:26060   */\n      swap1\n      pop\n        /* \"#utility.yul\":25648:26067   */\n      swap2\n      swap1\n      pop\n      jump\t// out\n        /* \"#utility.yul\":26073:26226   */\n    tag_343:\n        /* \"#utility.yul\":26213:26218   */\n      0x5351460000000000000000000000000000000000000000000000000000000000\n        /* \"#utility.yul\":26209:26210   */\n      0x00\n        /* \"#utility.yul\":26201:26207   */\n      dup3\n        /* \"#utility.yul\":26197:26211   */\n      add\n        /* \"#utility.yul\":26190:26219   */\n      mstore\n        /* \"#utility.yul\":26073:26226   */\n      pop\n      jump\t// out\n        /* \"#utility.yul\":26232:26597   */\n    tag_344:\n        /* \"#utility.yul\":26374:26377   */\n      0x00\n        /* \"#utility.yul\":26395:26461   */\n      tag_591\n        /* \"#utility.yul\":26459:26460   */\n      0x03\n        /* \"#utility.yul\":26454:26457   */\n      dup4\n        /* \"#utility.yul\":26395:26461   */\n      tag_304\n      jump\t// in\n    tag_591:\n        /* \"#utility.yul\":26388:26461   */\n      swap2\n      pop\n        /* \"#utility.yul\":26470:26563   */\n      tag_592\n        /* \"#utility.yul\":26559:26562   */\n      dup3\n        /* \"#utility.yul\":26470:26563   */\n      tag_343\n      jump\t// in\n    tag_592:\n        /* \"#utility.yul\":26588:26590   */\n      0x20\n        /* \"#utility.yul\":26583:26586   */\n      dup3\n        /* \"#utility.yul\":26579:26591   */\n      add\n        /* \"#utility.yul\":26572:26591   */\n      swap1\n      pop\n        /* \"#utility.yul\":26232:26597   */\n      swap2\n      swap1\n      pop\n      jump\t// out\n        /* \"#utility.yul\":26603:27353   */\n    tag_231:\n        /* \"#utility.yul\":26853:26857   */\n      0x00\n        /* \"#utility.yul\":26891:26894   */\n      0x80\n        /* \"#utility.yul\":26880:26889   */\n      dup3\n        /* \"#utility.yul\":26876:26895   */\n      add\n        /* \"#utility.yul\":26868:26895   */\n      swap1\n      pop\n        /* \"#utility.yul\":26905:26976   */\n      tag_594\n        /* \"#utility.yul\":26973:26974   */\n      0x00\n        /* \"#utility.yul\":26962:26971   */\n      dup4\n        /* \"#utility.yul\":26958:26975   */\n      add\n        /* \"#utility.yul\":26949:26955   */\n      dup7\n        /* \"#utility.yul\":26905:26976   */\n      tag_288\n      jump\t// in\n    tag_594:\n        /* \"#utility.yul\":26986:27058   */\n      tag_595\n        /* \"#utility.yul\":27054:27056   */\n      0x20\n        /* \"#utility.yul\":27043:27052   */\n      dup4\n        /* \"#utility.yul\":27039:27057   */\n      add\n        /* \"#utility.yul\":27030:27036   */\n      dup6\n        /* \"#utility.yul\":26986:27058   */\n      tag_288\n      jump\t// in\n    tag_595:\n        /* \"#utility.yul\":27105:27114   */\n      dup2\n        /* \"#utility.yul\":27099:27103   */\n      dup2\n        /* \"#utility.yul\":27095:27115   */\n      sub\n        /* \"#utility.yul\":27090:27092   */\n      0x40\n        /* \"#utility.yul\":27079:27088   */\n      dup4\n        /* \"#utility.yul\":27075:27093   */\n      add\n        /* \"#utility.yul\":27068:27116   */\n      mstore\n        /* \"#utility.yul\":27133:27264   */\n      tag_596\n        /* \"#utility.yul\":27259:27263   */\n      dup2\n        /* \"#utility.yul\":27133:27264   */\n      tag_344\n      jump\t// in\n    tag_596:\n        /* \"#utility.yul\":27125:27264   */\n      swap1\n      pop\n        /* \"#utility.yul\":27274:27346   */\n      tag_597\n        /* \"#utility.yul\":27342:27344   */\n      0x60\n        /* \"#utility.yul\":27331:27340   */\n      dup4\n        /* \"#utility.yul\":27327:27345   */\n      add\n        /* \"#utility.yul\":27318:27324   */\n      dup5\n        /* \"#utility.yul\":27274:27346   */\n      tag_288\n      jump\t// in\n    tag_597:\n        /* \"#utility.yul\":26603:27353   */\n      swap5\n      swap4\n      pop\n      pop\n      pop\n      pop\n      jump\t// out\n        /* \"#utility.yul\":27359:27584   */\n    tag_345:\n        /* \"#utility.yul\":27499:27533   */\n      0x4f776e61626c653a206e6577206f776e657220697320746865207a65726f2061\n        /* \"#utility.yul\":27495:27496   */\n      0x00\n        /* \"#utility.yul\":27487:27493   */\n      dup3\n        /* \"#utility.yul\":27483:27497   */\n      add\n        /* \"#utility.yul\":27476:27534   */\n      mstore\n        /* \"#utility.yul\":27568:27576   */\n      0x6464726573730000000000000000000000000000000000000000000000000000\n        /* \"#utility.yul\":27563:27565   */\n      0x20\n        /* \"#utility.yul\":27555:27561   */\n      dup3\n        /* \"#utility.yul\":27551:27566   */\n      add\n        /* \"#utility.yul\":27544:27577   */\n      mstore\n        /* \"#utility.yul\":27359:27584   */\n      pop\n      jump\t// out\n        /* \"#utility.yul\":27590:27956   */\n    tag_346:\n        /* \"#utility.yul\":27732:27735   */\n      0x00\n        /* \"#utility.yul\":27753:27820   */\n      tag_600\n        /* \"#utility.yul\":27817:27819   */\n      0x26\n        /* \"#utility.yul\":27812:27815   */\n      dup4\n        /* \"#utility.yul\":27753:27820   */\n      tag_304\n      jump\t// in\n    tag_600:\n        /* \"#utility.yul\":27746:27820   */\n      swap2\n      pop\n        /* \"#utility.yul\":27829:27922   */\n      tag_601\n        /* \"#utility.yul\":27918:27921   */\n      dup3\n        /* \"#utility.yul\":27829:27922   */\n      tag_345\n      jump\t// in\n    tag_601:\n        /* \"#utility.yul\":27947:27949   */\n      0x40\n        /* \"#utility.yul\":27942:27945   */\n      dup3\n        /* \"#utility.yul\":27938:27950   */\n      add\n        /* \"#utility.yul\":27931:27950   */\n      swap1\n      pop\n        /* \"#utility.yul\":27590:27956   */\n      swap2\n      swap1\n      pop\n      jump\t// out\n        /* \"#utility.yul\":27962:28381   */\n    tag_249:\n        /* \"#utility.yul\":28128:28132   */\n      0x00\n        /* \"#utility.yul\":28166:28168   */\n      0x20\n        /* \"#utility.yul\":28155:28164   */\n      dup3\n        /* \"#utility.yul\":28151:28169   */\n      add\n        /* \"#utility.yul\":28143:28169   */\n      swap1\n      pop\n        /* \"#utility.yul\":28215:28224   */\n      dup2\n        /* \"#utility.yul\":28209:28213   */\n      dup2\n        /* \"#utility.yul\":28205:28225   */\n      sub\n        /* \"#utility.yul\":28201:28202   */\n      0x00\n        /* \"#utility.yul\":28190:28199   */\n      dup4\n        /* \"#utility.yul\":28186:28203   */\n      add\n        /* \"#utility.yul\":28179:28226   */\n      mstore\n        /* \"#utility.yul\":28243:28374   */\n      tag_603\n        /* \"#utility.yul\":28369:28373   */\n      dup2\n        /* \"#utility.yul\":28243:28374   */\n      tag_346\n      jump\t// in\n    tag_603:\n        /* \"#utility.yul\":28235:28374   */\n      swap1\n      pop\n        /* \"#utility.yul\":27962:28381   */\n      swap2\n      swap1\n      pop\n      jump\t// out\n        /* \"#utility.yul\":28387:28732   */\n    tag_260:\n        /* \"#utility.yul\":28454:28460   */\n      0x00\n        /* \"#utility.yul\":28503:28505   */\n      0x20\n        /* \"#utility.yul\":28491:28500   */\n      dup3\n        /* \"#utility.yul\":28482:28489   */\n      dup5\n        /* \"#utility.yul\":28478:28501   */\n      sub\n        /* \"#utility.yul\":28474:28506   */\n      slt\n        /* \"#utility.yul\":28471:28590   */\n      iszero\n      tag_605\n      jumpi\n        /* \"#utility.yul\":28509:28588   */\n      tag_606\n      tag_272\n      jump\t// in\n    tag_606:\n        /* \"#utility.yul\":28471:28590   */\n    tag_605:\n        /* \"#utility.yul\":28629:28630   */\n      0x00\n        /* \"#utility.yul\":28654:28715   */\n      tag_607\n        /* \"#utility.yul\":28707:28714   */\n      dup5\n        /* \"#utility.yul\":28698:28704   */\n      dup3\n        /* \"#utility.yul\":28687:28696   */\n      dup6\n        /* \"#utility.yul\":28683:28705   */\n      add\n        /* \"#utility.yul\":28654:28715   */\n      tag_335\n      jump\t// in\n    tag_607:\n        /* \"#utility.yul\":28644:28715   */\n      swap2\n      pop\n        /* \"#utility.yul\":28600:28725   */\n      pop\n        /* \"#utility.yul\":28387:28732   */\n      swap3\n      swap2\n      pop\n      pop\n      jump\t// out\n\n    auxdata: 0xa264697066735822122017910e2af6e72c3475aabbcf2ab462725c7bd59791085a0302017c105dbf99bb64736f6c634300080d0033\n}\n",
				"bytecode": {
					"linkReferences": {},
					"object": "608060405260405162002bcb38038062002bcb833981810160405281019062000029919062000255565b600160008190555062000051620000456200011d60201b60201c565b6200012560201b60201c565b82600960006101000a81548173ffffffffffffffffffffffffffffffffffffffff021916908373ffffffffffffffffffffffffffffffffffffffff16021790555081600b60006101000a81548173ffffffffffffffffffffffffffffffffffffffff021916908373ffffffffffffffffffffffffffffffffffffffff16021790555080600a60006101000a81548173ffffffffffffffffffffffffffffffffffffffff021916908373ffffffffffffffffffffffffffffffffffffffff160217905550505050620002b1565b600033905090565b6000600c60009054906101000a900473ffffffffffffffffffffffffffffffffffffffff16905081600c60006101000a81548173ffffffffffffffffffffffffffffffffffffffff021916908373ffffffffffffffffffffffffffffffffffffffff1602179055508173ffffffffffffffffffffffffffffffffffffffff168173ffffffffffffffffffffffffffffffffffffffff167f8be0079c531659141344cd1fd0a4f28419497f9722a3daafe3b4186f6b6457e060405160405180910390a35050565b600080fd5b600073ffffffffffffffffffffffffffffffffffffffff82169050919050565b60006200021d82620001f0565b9050919050565b6200022f8162000210565b81146200023b57600080fd5b50565b6000815190506200024f8162000224565b92915050565b600080600060608486031215620002715762000270620001eb565b5b600062000281868287016200023e565b935050602062000294868287016200023e565b9250506040620002a7868287016200023e565b9150509250925092565b61290a80620002c16000396000f3fe60806040526004361061011f5760003560e01c806385a8b36c116100a0578063c7be7a4911610064578063c7be7a4914610398578063e00dd161146103d5578063f2fde38b14610400578063f55de0c714610429578063ff68fa6e146104545761011f565b806385a8b36c146102c35780638da5cb5b146102ee578063a1c11ca814610319578063b7a60c7e14610342578063c45a01551461036d5761011f565b80633fc15f15116100e75780633fc15f15146101e6578063517bd451146102115780635bb47808146102415780635c80a4351461026a578063715018a6146102ac5761011f565b8063100616311461012457806315b124941461014d57806327ce464e146101765780632b4c32be1461019f578063361c1995146101ca575b600080fd5b34801561013057600080fd5b5061014b60048036038101906101469190611b3b565b610496565b005b34801561015957600080fd5b50610174600480360381019061016f9190611bc6565b610906565b005b34801561018257600080fd5b5061019d60048036038101906101989190611bc6565b6109c6565b005b3480156101ab57600080fd5b506101b4610a86565b6040516101c19190611c2e565b60405180910390f35b6101e460048036038101906101df9190611c49565b610a91565b005b3480156101f257600080fd5b506101fb610ef3565b6040516102089190611ce8565b60405180910390f35b34801561021d57600080fd5b50610226610f19565b60405161023896959493929190611d98565b60405180910390f35b34801561024d57600080fd5b5061026860048036038101906102639190611bc6565b610f90565b005b34801561027657600080fd5b50610291600480360381019061028c9190611df9565b611050565b6040516102a396959493929190611d98565b60405180910390f35b3480156102b857600080fd5b506102c16110e6565b005b3480156102cf57600080fd5b506102d861116e565b6040516102e59190611e55565b60405180910390f35b3480156102fa57600080fd5b50610303611181565b6040516103109190611e70565b60405180910390f35b34801561032557600080fd5b50610340600480360381019061033b9190611c49565b6111ab565b005b34801561034e57600080fd5b50610357611469565b6040516103649190611e55565b60405180910390f35b34801561037957600080fd5b5061038261147c565b60405161038f9190611eac565b60405180910390f35b3480156103a457600080fd5b506103bf60048036038101906103ba9190611b3b565b6114a2565b6040516103cc9190611f6f565b60405180910390f35b3480156103e157600080fd5b506103ea6115d4565b6040516103f79190611f8a565b60405180910390f35b34801561040c57600080fd5b5061042760048036038101906104229190611bc6565b6115e5565b005b34801561043557600080fd5b5061043e6116dc565b60405161044b9190611fc6565b60405180910390f35b34801561046057600080fd5b5061047b60048036038101906104769190611b3b565b611702565b60405161048d96959493929190611d98565b60405180910390f35b60003390506000600f60008481526020019081526020016000206040518060c001604052908160008201548152602001600182015481526020016002820160009054906101000a900473ffffffffffffffffffffffffffffffffffffffff1673ffffffffffffffffffffffffffffffffffffffff1673ffffffffffffffffffffffffffffffffffffffff1681526020016003820160009054906101000a900473ffffffffffffffffffffffffffffffffffffffff1673ffffffffffffffffffffffffffffffffffffffff1673ffffffffffffffffffffffffffffffffffffffff168152602001600482015481526020016005820160009054906101000a900460ff1660018111156105aa576105a9611d21565b5b60018111156105bc576105bb611d21565b5b8152505090506000816000015103610609576040517f08c379a00000000000000000000000000000000000000000000000000000000081526004016106009061203e565b60405180910390fd5b60018081111561061c5761061b611d21565b5b8160a00151600181111561063357610632611d21565b5b14610673576040517f08c379a000000000000000000000000000000000000000000000000000000000815260040161066a906120aa565b60405180910390fd5b600081604001519050600073ffffffffffffffffffffffffffffffffffffffff168173ffffffffffffffffffffffffffffffffffffffff16036106eb576040517f08c379a00000000000000000000000000000000000000000000000000000000081526004016106e290612116565b60405180910390fd5b3373ffffffffffffffffffffffffffffffffffffffff168173ffffffffffffffffffffffffffffffffffffffff1614610759576040517f08c379a000000000000000000000000000000000000000000000000000000000815260040161075090612182565b60405180910390fd5b600b60009054906101000a900473ffffffffffffffffffffffffffffffffffffffff1673ffffffffffffffffffffffffffffffffffffffff166342842e0e3083876040518463ffffffff1660e01b81526004016107b8939291906121a2565b600060405180830381600087803b1580156107d257600080fd5b505af11580156107e6573d6000803e3d6000fd5b5050505060008260a00190600181111561080357610802611d21565b5b9081600181111561081757610816611d21565b5b81525050600f600085815260200190815260200160002060008082016000905560018201600090556002820160006101000a81549073ffffffffffffffffffffffffffffffffffffffff02191690556003820160006101000a81549073ffffffffffffffffffffffffffffffffffffffff021916905560048201600090556005820160006101000a81549060ff021916905550508273ffffffffffffffffffffffffffffffffffffffff16847f72ffc2a266acba5f77e2b49400103cb61b428f37a97057ebe671e83fddd71e678460000151426040516108f89291906121d9565b60405180910390a350505050565b61090e61178b565b73ffffffffffffffffffffffffffffffffffffffff1661092c611181565b73ffffffffffffffffffffffffffffffffffffffff1614610982576040517f08c379a00000000000000000000000000000000000000000000000000000000081526004016109799061224e565b60405180910390fd5b80600b60006101000a81548173ffffffffffffffffffffffffffffffffffffffff021916908373ffffffffffffffffffffffffffffffffffffffff16021790555050565b6109ce61178b565b73ffffffffffffffffffffffffffffffffffffffff166109ec611181565b73ffffffffffffffffffffffffffffffffffffffff1614610a42576040517f08c379a0000000000000000000000000000000000000000000000000000000008152600401610a399061224e565b60405180910390fd5b80600960006101000a81548173ffffffffffffffffffffffffffffffffffffffff021916908373ffffffffffffffffffffffffffffffffffffffff16021790555050565b6380ac58cd60e01b81565b600260005403610ad6576040517f08c379a0000000000000000000000000000000000000000000000000000000008152600401610acd906122ba565b60405180910390fd5b600260008190555060008111610b21576040517f08c379a0000000000000000000000000000000000000000000000000000000008152600401610b1890612326565b60405180910390fd5b6000600a60009054906101000a900473ffffffffffffffffffffffffffffffffffffffff1673ffffffffffffffffffffffffffffffffffffffff166303ce1cb5846040518263ffffffff1660e01b8152600401610b7e9190611f8a565b600060405180830381865afa158015610b9b573d6000803e3d6000fd5b505050506040513d6000823e3d601f19601f82011682018060405250810190610bc491906125e0565b9050600015158160800151151514610c11576040517f08c379a0000000000000000000000000000000000000000000000000000000008152600401610c0890612675565b60405180910390fd5b600a60009054906101000a900473ffffffffffffffffffffffffffffffffffffffff1673ffffffffffffffffffffffffffffffffffffffff1663c1e9518a3330866040518463ffffffff1660e01b8152600401610c70939291906126b6565b600060405180830381600087803b158015610c8a57600080fd5b505af1158015610c9e573d6000803e3d6000fd5b50505050600b60009054906101000a900473ffffffffffffffffffffffffffffffffffffffff1673ffffffffffffffffffffffffffffffffffffffff166323b872dd3330866040518463ffffffff1660e01b8152600401610d01939291906121a2565b600060405180830381600087803b158015610d1b57600080fd5b505af1158015610d2f573d6000803e3d6000fd5b505050506000610d3f600d611793565b90506040518060c001604052808281526020018581526020013373ffffffffffffffffffffffffffffffffffffffff1681526020013073ffffffffffffffffffffffffffffffffffffffff168152602001848152602001600180811115610da957610da8611d21565b5b815250600f6000838152602001908152602001600020600082015181600001556020820151816001015560408201518160020160006101000a81548173ffffffffffffffffffffffffffffffffffffffff021916908373ffffffffffffffffffffffffffffffffffffffff16021790555060608201518160030160006101000a81548173ffffffffffffffffffffffffffffffffffffffff021916908373ffffffffffffffffffffffffffffffffffffffff1602179055506080820151816004015560a08201518160050160006101000a81548160ff02191690836001811115610e9657610e95611d21565b5b0217905550905050610ea8600d6117a1565b83817f38690a554ffbc44eb6a75016e47d517d0db8e6c37494adc68d6d0b2c66f0ab21333087604051610edd939291906121a2565b60405180910390a3505060016000819055505050565b600960009054906101000a900473ffffffffffffffffffffffffffffffffffffffff1681565b60018060000154908060010154908060020160009054906101000a900473ffffffffffffffffffffffffffffffffffffffff16908060030160009054906101000a900473ffffffffffffffffffffffffffffffffffffffff16908060040154908060050160009054906101000a900460ff16905086565b610f9861178b565b73ffffffffffffffffffffffffffffffffffffffff16610fb6611181565b73ffffffffffffffffffffffffffffffffffffffff161461100c576040517f08c379a00000000000000000000000000000000000000000000000000000000081526004016110039061224e565b60405180910390fd5b80600a60006101000a81548173ffffffffffffffffffffffffffffffffffffffff021916908373ffffffffffffffffffffffffffffffffffffffff16021790555050565b6008602052816000526040600020602052806000526040600020600091509150508060000154908060010154908060020160009054906101000a900473ffffffffffffffffffffffffffffffffffffffff16908060030160009054906101000a900473ffffffffffffffffffffffffffffffffffffffff16908060040154908060050160009054906101000a900460ff16905086565b6110ee61178b565b73ffffffffffffffffffffffffffffffffffffffff1661110c611181565b73ffffffffffffffffffffffffffffffffffffffff1614611162576040517f08c379a00000000000000000000000000000000000000000000000000000000081526004016111599061224e565b60405180910390fd5b61116c60006117b7565b565b600b60149054906101000a900460ff1681565b6000600c60009054906101000a900473ffffffffffffffffffffffffffffffffffffffff16905090565b6000600f60008481526020019081526020016000206004015490506000600f60008581526020019081526020016000206001015490506000600f600086815260200190815260200160002060020160009054906101000a900473ffffffffffffffffffffffffffffffffffffffff1690506000600a60009054906101000a900473ffffffffffffffffffffffffffffffffffffffff1673ffffffffffffffffffffffffffffffffffffffff166303ce1cb5846040518263ffffffff1660e01b81526004016112799190611f8a565b600060405180830381865afa158015611296573d6000803e3d6000fd5b505050506040513d6000823e3d601f19601f820116820180604052508101906112bf91906125e0565b9050838514611303576040517f08c379a00000000000000000000000000000000000000000000000000000000081526004016112fa9061275f565b60405180910390fd5b60001515816080015115151461134e576040517f08c379a000000000000000000000000000000000000000000000000000000000815260040161134590612675565b60405180910390fd5b61135986868561187d565b33600f600088815260200190815260200160002060030160006101000a81548173ffffffffffffffffffffffffffffffffffffffff021916908373ffffffffffffffffffffffffffffffffffffffff1602179055506000600f600088815260200190815260200160002060050160006101000a81548160ff021916908360018111156113e8576113e7611d21565b5b02179055506113f7600e6117a1565b3373ffffffffffffffffffffffffffffffffffffffff168273ffffffffffffffffffffffffffffffffffffffff16847f551327aee12d0a8b3ede8d0e3182a40a5ff3ed9f1811dd622915db30b609b7df898842604051611459939291906127cb565b60405180910390a4505050505050565b600b60159054906101000a900460ff1681565b600a60009054906101000a900473ffffffffffffffffffffffffffffffffffffffff1681565b6114aa611a7d565b600f60008381526020019081526020016000206040518060c001604052908160008201548152602001600182015481526020016002820160009054906101000a900473ffffffffffffffffffffffffffffffffffffffff1673ffffffffffffffffffffffffffffffffffffffff1673ffffffffffffffffffffffffffffffffffffffff1681526020016003820160009054906101000a900473ffffffffffffffffffffffffffffffffffffffff1673ffffffffffffffffffffffffffffffffffffffff1673ffffffffffffffffffffffffffffffffffffffff168152602001600482015481526020016005820160009054906101000a900460ff1660018111156115b7576115b6611d21565b5b60018111156115c9576115c8611d21565b5b815250509050919050565b60006115e0600d611793565b905090565b6115ed61178b565b73ffffffffffffffffffffffffffffffffffffffff1661160b611181565b73ffffffffffffffffffffffffffffffffffffffff1614611661576040517f08c379a00000000000000000000000000000000000000000000000000000000081526004016116589061224e565b60405180910390fd5b600073ffffffffffffffffffffffffffffffffffffffff168173ffffffffffffffffffffffffffffffffffffffff16036116d0576040517f08c379a00000000000000000000000000000000000000000000000000000000081526004016116c790612887565b60405180910390fd5b6116d9816117b7565b50565b600b60009054906101000a900473ffffffffffffffffffffffffffffffffffffffff1681565b60076020528060005260406000206000915090508060000154908060010154908060020160009054906101000a900473ffffffffffffffffffffffffffffffffffffffff16908060030160009054906101000a900473ffffffffffffffffffffffffffffffffffffffff16908060040154908060050160009054906101000a900460ff16905086565b600033905090565b600081600001549050919050565b6001816000016000828254019250508190555050565b6000600c60009054906101000a900473ffffffffffffffffffffffffffffffffffffffff16905081600c60006101000a81548173ffffffffffffffffffffffffffffffffffffffff021916908373ffffffffffffffffffffffffffffffffffffffff1602179055508173ffffffffffffffffffffffffffffffffffffffff168173ffffffffffffffffffffffffffffffffffffffff167f8be0079c531659141344cd1fd0a4f28419497f9722a3daafe3b4186f6b6457e060405160405180910390a35050565b600960009054906101000a900473ffffffffffffffffffffffffffffffffffffffff1673ffffffffffffffffffffffffffffffffffffffff166323b872dd33600f600087815260200190815260200160002060020160009054906101000a900473ffffffffffffffffffffffffffffffffffffffff16856040518463ffffffff1660e01b8152600401611912939291906121a2565b6020604051808303816000875af1158015611931573d6000803e3d6000fd5b505050506040513d601f19601f8201168201806040525081019061195591906128a7565b50600a60009054906101000a900473ffffffffffffffffffffffffffffffffffffffff1673ffffffffffffffffffffffffffffffffffffffff1663c1e9518a3330846040518463ffffffff1660e01b81526004016119b5939291906121a2565b600060405180830381600087803b1580156119cf57600080fd5b505af11580156119e3573d6000803e3d6000fd5b50505050600b60009054906101000a900473ffffffffffffffffffffffffffffffffffffffff1673ffffffffffffffffffffffffffffffffffffffff166323b872dd3033846040518463ffffffff1660e01b8152600401611a46939291906121a2565b600060405180830381600087803b158015611a6057600080fd5b505af1158015611a74573d6000803e3d6000fd5b50505050505050565b6040518060c001604052806000815260200160008152602001600073ffffffffffffffffffffffffffffffffffffffff168152602001600073ffffffffffffffffffffffffffffffffffffffff1681526020016000815260200160006001811115611aeb57611aea611d21565b5b81525090565b6000604051905090565b600080fd5b600080fd5b6000819050919050565b611b1881611b05565b8114611b2357600080fd5b50565b600081359050611b3581611b0f565b92915050565b600060208284031215611b5157611b50611afb565b5b6000611b5f84828501611b26565b91505092915050565b600073ffffffffffffffffffffffffffffffffffffffff82169050919050565b6000611b9382611b68565b9050919050565b611ba381611b88565b8114611bae57600080fd5b50565b600081359050611bc081611b9a565b92915050565b600060208284031215611bdc57611bdb611afb565b5b6000611bea84828501611bb1565b91505092915050565b60007fffffffff0000000000000000000000000000000000000000000000000000000082169050919050565b611c2881611bf3565b82525050565b6000602082019050611c436000830184611c1f565b92915050565b60008060408385031215611c6057611c5f611afb565b5b6000611c6e85828601611b26565b9250506020611c7f85828601611b26565b9150509250929050565b6000819050919050565b6000611cae611ca9611ca484611b68565b611c89565b611b68565b9050919050565b6000611cc082611c93565b9050919050565b6000611cd282611cb5565b9050919050565b611ce281611cc7565b82525050565b6000602082019050611cfd6000830184611cd9565b92915050565b611d0c81611b05565b82525050565b611d1b81611b88565b82525050565b7f4e487b7100000000000000000000000000000000000000000000000000000000600052602160045260246000fd5b60028110611d6157611d60611d21565b5b50565b6000819050611d7282611d50565b919050565b6000611d8282611d64565b9050919050565b611d9281611d77565b82525050565b600060c082019050611dad6000830189611d03565b611dba6020830188611d03565b611dc76040830187611d12565b611dd46060830186611d12565b611de16080830185611d03565b611dee60a0830184611d89565b979650505050505050565b60008060408385031215611e1057611e0f611afb565b5b6000611e1e85828601611bb1565b9250506020611e2f85828601611b26565b9150509250929050565b600060ff82169050919050565b611e4f81611e39565b82525050565b6000602082019050611e6a6000830184611e46565b92915050565b6000602082019050611e856000830184611d12565b92915050565b6000611e9682611cb5565b9050919050565b611ea681611e8b565b82525050565b6000602082019050611ec16000830184611e9d565b92915050565b611ed081611b05565b82525050565b611edf81611b88565b82525050565b611eee81611d77565b82525050565b60c082016000820151611f0a6000850182611ec7565b506020820151611f1d6020850182611ec7565b506040820151611f306040850182611ed6565b506060820151611f436060850182611ed6565b506080820151611f566080850182611ec7565b5060a0820151611f6960a0850182611ee5565b50505050565b600060c082019050611f846000830184611ef4565b92915050565b6000602082019050611f9f6000830184611d03565b92915050565b6000611fb082611cb5565b9050919050565b611fc081611fa5565b82525050565b6000602082019050611fdb6000830184611fb7565b92915050565b600082825260208201905092915050565b7f4173736574206e6f74207075626c697368656400000000000000000000000000600082015250565b6000612028601383611fe1565b915061203382611ff2565b602082019050919050565b600060208201905081810360008301526120578161201b565b9050919050565b7f41737365742064656c6973746564000000000000000000000000000000000000600082015250565b6000612094600e83611fe1565b915061209f8261205e565b602082019050919050565b600060208201905081810360008301526120c381612087565b9050919050565b7f496e76616c696420616464726573730000000000000000000000000000000000600082015250565b6000612100600f83611fe1565b915061210b826120ca565b602082019050919050565b6000602082019050818103600083015261212f816120f3565b9050919050565b7f4f6e6c792073656c6c65722063616e2064656c69737400000000000000000000600082015250565b600061216c601683611fe1565b915061217782612136565b602082019050919050565b6000602082019050818103600083015261219b8161215f565b9050919050565b60006060820190506121b76000830186611d12565b6121c46020830185611d12565b6121d16040830184611d03565b949350505050565b60006040820190506121ee6000830185611d03565b6121fb6020830184611d03565b9392505050565b7f4f776e61626c653a2063616c6c6572206973206e6f7420746865206f776e6572600082015250565b6000612238602083611fe1565b915061224382612202565b602082019050919050565b600060208201905081810360008301526122678161222b565b9050919050565b7f5265656e7472616e637947756172643a207265656e7472616e742063616c6c00600082015250565b60006122a4601f83611fe1565b91506122af8261226e565b602082019050919050565b600060208201905081810360008301526122d381612297565b9050919050565b7f5072696365206d757374206265206174206c6561737420312077656900000000600082015250565b6000612310601c83611fe1565b915061231b826122da565b602082019050919050565b6000602082019050818103600083015261233f81612303565b9050919050565b600080fd5b6000601f19601f8301169050919050565b7f4e487b7100000000000000000000000000000000000000000000000000000000600052604160045260246000fd5b6123948261234b565b810181811067ffffffffffffffff821117156123b3576123b261235c565b5b80604052505050565b60006123c6611af1565b90506123d2828261238b565b919050565b600080fd5b6000815190506123eb81611b0f565b92915050565b60008151905061240081611b9a565b92915050565b600080fd5b600080fd5b600067ffffffffffffffff82111561242b5761242a61235c565b5b6124348261234b565b9050602081019050919050565b60005b8381101561245f578082015181840152602081019050612444565b8381111561246e576000848401525b50505050565b600061248761248284612410565b6123bc565b9050828152602081018484840111156124a3576124a261240b565b5b6124ae848285612441565b509392505050565b600082601f8301126124cb576124ca612406565b5b81516124db848260208601612474565b91505092915050565b60008115159050919050565b6124f9816124e4565b811461250457600080fd5b50565b600081519050612516816124f0565b92915050565b600060a0828403121561253257612531612346565b5b61253c60a06123bc565b9050600061254c848285016123dc565b6000830152506020612560848285016123f1565b602083015250604082015167ffffffffffffffff811115612584576125836123d7565b5b612590848285016124b6565b604083015250606082015167ffffffffffffffff8111156125b4576125b36123d7565b5b6125c0848285016124b6565b60608301525060806125d484828501612507565b60808301525092915050565b6000602082840312156125f6576125f5611afb565b5b600082015167ffffffffffffffff81111561261457612613611b00565b5b6126208482850161251c565b91505092915050565b7f4974656d206973206e6f7420617661696c61626c65206e6f7720210000000000600082015250565b600061265f601b83611fe1565b915061266a82612629565b602082019050919050565b6000602082019050818103600083015261268e81612652565b9050919050565b60006126a082611cb5565b9050919050565b6126b081612695565b82525050565b60006060820190506126cb60008301866126a7565b6126d86020830185611d12565b6126e56040830184611d03565b949350505050565b7f506c65617365207375626d6974207468652061736b696e67207072696365206960008201527f6e206f7264657220746f20636f6d706c65746520746865207075726368617365602082015250565b6000612749604083611fe1565b9150612754826126ed565b604082019050919050565b600060208201905081810360008301526127788161273c565b9050919050565b7f5351460000000000000000000000000000000000000000000000000000000000600082015250565b60006127b5600383611fe1565b91506127c08261277f565b602082019050919050565b60006080820190506127e06000830186611d03565b6127ed6020830185611d03565b81810360408301526127fe816127a8565b905061280d6060830184611d03565b949350505050565b7f4f776e61626c653a206e6577206f776e657220697320746865207a65726f206160008201527f6464726573730000000000000000000000000000000000000000000000000000602082015250565b6000612871602683611fe1565b915061287c82612815565b604082019050919050565b600060208201905081810360008301526128a081612864565b9050919050565b6000602082840312156128bd576128bc611afb565b5b60006128cb84828501612507565b9150509291505056fea264697066735822122017910e2af6e72c3475aabbcf2ab462725c7bd59791085a0302017c105dbf99bb64736f6c634300080d0033",
					"opcodes": "PUSH1 0x80 PUSH1 0x40 MSTORE PUSH1 0x40 MLOAD PUSH3 0x2BCB CODESIZE SUB DUP1 PUSH3 0x2BCB DUP4 CODECOPY DUP2 DUP2 ADD PUSH1 0x40 MSTORE DUP2 ADD SWAP1 PUSH3 0x29 SWAP2 SWAP1 PUSH3 0x255 JUMP JUMPDEST PUSH1 0x1 PUSH1 0x0 DUP2 SWAP1 SSTORE POP PUSH3 0x51 PUSH3 0x45 PUSH3 0x11D PUSH1 0x20 SHL PUSH1 0x20 SHR JUMP JUMPDEST PUSH3 0x125 PUSH1 0x20 SHL PUSH1 0x20 SHR JUMP JUMPDEST DUP3 PUSH1 0x9 PUSH1 0x0 PUSH2 0x100 EXP DUP2 SLOAD DUP2 PUSH20 0xFFFFFFFFFFFFFFFFFFFFFFFFFFFFFFFFFFFFFFFF MUL NOT AND SWAP1 DUP4 PUSH20 0xFFFFFFFFFFFFFFFFFFFFFFFFFFFFFFFFFFFFFFFF AND MUL OR SWAP1 SSTORE POP DUP2 PUSH1 0xB PUSH1 0x0 PUSH2 0x100 EXP DUP2 SLOAD DUP2 PUSH20 0xFFFFFFFFFFFFFFFFFFFFFFFFFFFFFFFFFFFFFFFF MUL NOT AND SWAP1 DUP4 PUSH20 0xFFFFFFFFFFFFFFFFFFFFFFFFFFFFFFFFFFFFFFFF AND MUL OR SWAP1 SSTORE POP DUP1 PUSH1 0xA PUSH1 0x0 PUSH2 0x100 EXP DUP2 SLOAD DUP2 PUSH20 0xFFFFFFFFFFFFFFFFFFFFFFFFFFFFFFFFFFFFFFFF MUL NOT AND SWAP1 DUP4 PUSH20 0xFFFFFFFFFFFFFFFFFFFFFFFFFFFFFFFFFFFFFFFF AND MUL OR SWAP1 SSTORE POP POP POP POP PUSH3 0x2B1 JUMP JUMPDEST PUSH1 0x0 CALLER SWAP1 POP SWAP1 JUMP JUMPDEST PUSH1 0x0 PUSH1 0xC PUSH1 0x0 SWAP1 SLOAD SWAP1 PUSH2 0x100 EXP SWAP1 DIV PUSH20 0xFFFFFFFFFFFFFFFFFFFFFFFFFFFFFFFFFFFFFFFF AND SWAP1 POP DUP2 PUSH1 0xC PUSH1 0x0 PUSH2 0x100 EXP DUP2 SLOAD DUP2 PUSH20 0xFFFFFFFFFFFFFFFFFFFFFFFFFFFFFFFFFFFFFFFF MUL NOT AND SWAP1 DUP4 PUSH20 0xFFFFFFFFFFFFFFFFFFFFFFFFFFFFFFFFFFFFFFFF AND MUL OR SWAP1 SSTORE POP DUP2 PUSH20 0xFFFFFFFFFFFFFFFFFFFFFFFFFFFFFFFFFFFFFFFF AND DUP2 PUSH20 0xFFFFFFFFFFFFFFFFFFFFFFFFFFFFFFFFFFFFFFFF AND PUSH32 0x8BE0079C531659141344CD1FD0A4F28419497F9722A3DAAFE3B4186F6B6457E0 PUSH1 0x40 MLOAD PUSH1 0x40 MLOAD DUP1 SWAP2 SUB SWAP1 LOG3 POP POP JUMP JUMPDEST PUSH1 0x0 DUP1 REVERT JUMPDEST PUSH1 0x0 PUSH20 0xFFFFFFFFFFFFFFFFFFFFFFFFFFFFFFFFFFFFFFFF DUP3 AND SWAP1 POP SWAP2 SWAP1 POP JUMP JUMPDEST PUSH1 0x0 PUSH3 0x21D DUP3 PUSH3 0x1F0 JUMP JUMPDEST SWAP1 POP SWAP2 SWAP1 POP JUMP JUMPDEST PUSH3 0x22F DUP2 PUSH3 0x210 JUMP JUMPDEST DUP2 EQ PUSH3 0x23B JUMPI PUSH1 0x0 DUP1 REVERT JUMPDEST POP JUMP JUMPDEST PUSH1 0x0 DUP2 MLOAD SWAP1 POP PUSH3 0x24F DUP2 PUSH3 0x224 JUMP JUMPDEST SWAP3 SWAP2 POP POP JUMP JUMPDEST PUSH1 0x0 DUP1 PUSH1 0x0 PUSH1 0x60 DUP5 DUP7 SUB SLT ISZERO PUSH3 0x271 JUMPI PUSH3 0x270 PUSH3 0x1EB JUMP JUMPDEST JUMPDEST PUSH1 0x0 PUSH3 0x281 DUP7 DUP3 DUP8 ADD PUSH3 0x23E JUMP JUMPDEST SWAP4 POP POP PUSH1 0x20 PUSH3 0x294 DUP7 DUP3 DUP8 ADD PUSH3 0x23E JUMP JUMPDEST SWAP3 POP POP PUSH1 0x40 PUSH3 0x2A7 DUP7 DUP3 DUP8 ADD PUSH3 0x23E JUMP JUMPDEST SWAP2 POP POP SWAP3 POP SWAP3 POP SWAP3 JUMP JUMPDEST PUSH2 0x290A DUP1 PUSH3 0x2C1 PUSH1 0x0 CODECOPY PUSH1 0x0 RETURN INVALID PUSH1 0x80 PUSH1 0x40 MSTORE PUSH1 0x4 CALLDATASIZE LT PUSH2 0x11F JUMPI PUSH1 0x0 CALLDATALOAD PUSH1 0xE0 SHR DUP1 PUSH4 0x85A8B36C GT PUSH2 0xA0 JUMPI DUP1 PUSH4 0xC7BE7A49 GT PUSH2 0x64 JUMPI DUP1 PUSH4 0xC7BE7A49 EQ PUSH2 0x398 JUMPI DUP1 PUSH4 0xE00DD161 EQ PUSH2 0x3D5 JUMPI DUP1 PUSH4 0xF2FDE38B EQ PUSH2 0x400 JUMPI DUP1 PUSH4 0xF55DE0C7 EQ PUSH2 0x429 JUMPI DUP1 PUSH4 0xFF68FA6E EQ PUSH2 0x454 JUMPI PUSH2 0x11F JUMP JUMPDEST DUP1 PUSH4 0x85A8B36C EQ PUSH2 0x2C3 JUMPI DUP1 PUSH4 0x8DA5CB5B EQ PUSH2 0x2EE JUMPI DUP1 PUSH4 0xA1C11CA8 EQ PUSH2 0x319 JUMPI DUP1 PUSH4 0xB7A60C7E EQ PUSH2 0x342 JUMPI DUP1 PUSH4 0xC45A0155 EQ PUSH2 0x36D JUMPI PUSH2 0x11F JUMP JUMPDEST DUP1 PUSH4 0x3FC15F15 GT PUSH2 0xE7 JUMPI DUP1 PUSH4 0x3FC15F15 EQ PUSH2 0x1E6 JUMPI DUP1 PUSH4 0x517BD451 EQ PUSH2 0x211 JUMPI DUP1 PUSH4 0x5BB47808 EQ PUSH2 0x241 JUMPI DUP1 PUSH4 0x5C80A435 EQ PUSH2 0x26A JUMPI DUP1 PUSH4 0x715018A6 EQ PUSH2 0x2AC JUMPI PUSH2 0x11F JUMP JUMPDEST DUP1 PUSH4 0x10061631 EQ PUSH2 0x124 JUMPI DUP1 PUSH4 0x15B12494 EQ PUSH2 0x14D JUMPI DUP1 PUSH4 0x27CE464E EQ PUSH2 0x176 JUMPI DUP1 PUSH4 0x2B4C32BE EQ PUSH2 0x19F JUMPI DUP1 PUSH4 0x361C1995 EQ PUSH2 0x1CA JUMPI JUMPDEST PUSH1 0x0 DUP1 REVERT JUMPDEST CALLVALUE DUP1 ISZERO PUSH2 0x130 JUMPI PUSH1 0x0 DUP1 REVERT JUMPDEST POP PUSH2 0x14B PUSH1 0x4 DUP1 CALLDATASIZE SUB DUP2 ADD SWAP1 PUSH2 0x146 SWAP2 SWAP1 PUSH2 0x1B3B JUMP JUMPDEST PUSH2 0x496 JUMP JUMPDEST STOP JUMPDEST CALLVALUE DUP1 ISZERO PUSH2 0x159 JUMPI PUSH1 0x0 DUP1 REVERT JUMPDEST POP PUSH2 0x174 PUSH1 0x4 DUP1 CALLDATASIZE SUB DUP2 ADD SWAP1 PUSH2 0x16F SWAP2 SWAP1 PUSH2 0x1BC6 JUMP JUMPDEST PUSH2 0x906 JUMP JUMPDEST STOP JUMPDEST CALLVALUE DUP1 ISZERO PUSH2 0x182 JUMPI PUSH1 0x0 DUP1 REVERT JUMPDEST POP PUSH2 0x19D PUSH1 0x4 DUP1 CALLDATASIZE SUB DUP2 ADD SWAP1 PUSH2 0x198 SWAP2 SWAP1 PUSH2 0x1BC6 JUMP JUMPDEST PUSH2 0x9C6 JUMP JUMPDEST STOP JUMPDEST CALLVALUE DUP1 ISZERO PUSH2 0x1AB JUMPI PUSH1 0x0 DUP1 REVERT JUMPDEST POP PUSH2 0x1B4 PUSH2 0xA86 JUMP JUMPDEST PUSH1 0x40 MLOAD PUSH2 0x1C1 SWAP2 SWAP1 PUSH2 0x1C2E JUMP JUMPDEST PUSH1 0x40 MLOAD DUP1 SWAP2 SUB SWAP1 RETURN JUMPDEST PUSH2 0x1E4 PUSH1 0x4 DUP1 CALLDATASIZE SUB DUP2 ADD SWAP1 PUSH2 0x1DF SWAP2 SWAP1 PUSH2 0x1C49 JUMP JUMPDEST PUSH2 0xA91 JUMP JUMPDEST STOP JUMPDEST CALLVALUE DUP1 ISZERO PUSH2 0x1F2 JUMPI PUSH1 0x0 DUP1 REVERT JUMPDEST POP PUSH2 0x1FB PUSH2 0xEF3 JUMP JUMPDEST PUSH1 0x40 MLOAD PUSH2 0x208 SWAP2 SWAP1 PUSH2 0x1CE8 JUMP JUMPDEST PUSH1 0x40 MLOAD DUP1 SWAP2 SUB SWAP1 RETURN JUMPDEST CALLVALUE DUP1 ISZERO PUSH2 0x21D JUMPI PUSH1 0x0 DUP1 REVERT JUMPDEST POP PUSH2 0x226 PUSH2 0xF19 JUMP JUMPDEST PUSH1 0x40 MLOAD PUSH2 0x238 SWAP7 SWAP6 SWAP5 SWAP4 SWAP3 SWAP2 SWAP1 PUSH2 0x1D98 JUMP JUMPDEST PUSH1 0x40 MLOAD DUP1 SWAP2 SUB SWAP1 RETURN JUMPDEST CALLVALUE DUP1 ISZERO PUSH2 0x24D JUMPI PUSH1 0x0 DUP1 REVERT JUMPDEST POP PUSH2 0x268 PUSH1 0x4 DUP1 CALLDATASIZE SUB DUP2 ADD SWAP1 PUSH2 0x263 SWAP2 SWAP1 PUSH2 0x1BC6 JUMP JUMPDEST PUSH2 0xF90 JUMP JUMPDEST STOP JUMPDEST CALLVALUE DUP1 ISZERO PUSH2 0x276 JUMPI PUSH1 0x0 DUP1 REVERT JUMPDEST POP PUSH2 0x291 PUSH1 0x4 DUP1 CALLDATASIZE SUB DUP2 ADD SWAP1 PUSH2 0x28C SWAP2 SWAP1 PUSH2 0x1DF9 JUMP JUMPDEST PUSH2 0x1050 JUMP JUMPDEST PUSH1 0x40 MLOAD PUSH2 0x2A3 SWAP7 SWAP6 SWAP5 SWAP4 SWAP3 SWAP2 SWAP1 PUSH2 0x1D98 JUMP JUMPDEST PUSH1 0x40 MLOAD DUP1 SWAP2 SUB SWAP1 RETURN JUMPDEST CALLVALUE DUP1 ISZERO PUSH2 0x2B8 JUMPI PUSH1 0x0 DUP1 REVERT JUMPDEST POP PUSH2 0x2C1 PUSH2 0x10E6 JUMP JUMPDEST STOP JUMPDEST CALLVALUE DUP1 ISZERO PUSH2 0x2CF JUMPI PUSH1 0x0 DUP1 REVERT JUMPDEST POP PUSH2 0x2D8 PUSH2 0x116E JUMP JUMPDEST PUSH1 0x40 MLOAD PUSH2 0x2E5 SWAP2 SWAP1 PUSH2 0x1E55 JUMP JUMPDEST PUSH1 0x40 MLOAD DUP1 SWAP2 SUB SWAP1 RETURN JUMPDEST CALLVALUE DUP1 ISZERO PUSH2 0x2FA JUMPI PUSH1 0x0 DUP1 REVERT JUMPDEST POP PUSH2 0x303 PUSH2 0x1181 JUMP JUMPDEST PUSH1 0x40 MLOAD PUSH2 0x310 SWAP2 SWAP1 PUSH2 0x1E70 JUMP JUMPDEST PUSH1 0x40 MLOAD DUP1 SWAP2 SUB SWAP1 RETURN JUMPDEST CALLVALUE DUP1 ISZERO PUSH2 0x325 JUMPI PUSH1 0x0 DUP1 REVERT JUMPDEST POP PUSH2 0x340 PUSH1 0x4 DUP1 CALLDATASIZE SUB DUP2 ADD SWAP1 PUSH2 0x33B SWAP2 SWAP1 PUSH2 0x1C49 JUMP JUMPDEST PUSH2 0x11AB JUMP JUMPDEST STOP JUMPDEST CALLVALUE DUP1 ISZERO PUSH2 0x34E JUMPI PUSH1 0x0 DUP1 REVERT JUMPDEST POP PUSH2 0x357 PUSH2 0x1469 JUMP JUMPDEST PUSH1 0x40 MLOAD PUSH2 0x364 SWAP2 SWAP1 PUSH2 0x1E55 JUMP JUMPDEST PUSH1 0x40 MLOAD DUP1 SWAP2 SUB SWAP1 RETURN JUMPDEST CALLVALUE DUP1 ISZERO PUSH2 0x379 JUMPI PUSH1 0x0 DUP1 REVERT JUMPDEST POP PUSH2 0x382 PUSH2 0x147C JUMP JUMPDEST PUSH1 0x40 MLOAD PUSH2 0x38F SWAP2 SWAP1 PUSH2 0x1EAC JUMP JUMPDEST PUSH1 0x40 MLOAD DUP1 SWAP2 SUB SWAP1 RETURN JUMPDEST CALLVALUE DUP1 ISZERO PUSH2 0x3A4 JUMPI PUSH1 0x0 DUP1 REVERT JUMPDEST POP PUSH2 0x3BF PUSH1 0x4 DUP1 CALLDATASIZE SUB DUP2 ADD SWAP1 PUSH2 0x3BA SWAP2 SWAP1 PUSH2 0x1B3B JUMP JUMPDEST PUSH2 0x14A2 JUMP JUMPDEST PUSH1 0x40 MLOAD PUSH2 0x3CC SWAP2 SWAP1 PUSH2 0x1F6F JUMP JUMPDEST PUSH1 0x40 MLOAD DUP1 SWAP2 SUB SWAP1 RETURN JUMPDEST CALLVALUE DUP1 ISZERO PUSH2 0x3E1 JUMPI PUSH1 0x0 DUP1 REVERT JUMPDEST POP PUSH2 0x3EA PUSH2 0x15D4 JUMP JUMPDEST PUSH1 0x40 MLOAD PUSH2 0x3F7 SWAP2 SWAP1 PUSH2 0x1F8A JUMP JUMPDEST PUSH1 0x40 MLOAD DUP1 SWAP2 SUB SWAP1 RETURN JUMPDEST CALLVALUE DUP1 ISZERO PUSH2 0x40C JUMPI PUSH1 0x0 DUP1 REVERT JUMPDEST POP PUSH2 0x427 PUSH1 0x4 DUP1 CALLDATASIZE SUB DUP2 ADD SWAP1 PUSH2 0x422 SWAP2 SWAP1 PUSH2 0x1BC6 JUMP JUMPDEST PUSH2 0x15E5 JUMP JUMPDEST STOP JUMPDEST CALLVALUE DUP1 ISZERO PUSH2 0x435 JUMPI PUSH1 0x0 DUP1 REVERT JUMPDEST POP PUSH2 0x43E PUSH2 0x16DC JUMP JUMPDEST PUSH1 0x40 MLOAD PUSH2 0x44B SWAP2 SWAP1 PUSH2 0x1FC6 JUMP JUMPDEST PUSH1 0x40 MLOAD DUP1 SWAP2 SUB SWAP1 RETURN JUMPDEST CALLVALUE DUP1 ISZERO PUSH2 0x460 JUMPI PUSH1 0x0 DUP1 REVERT JUMPDEST POP PUSH2 0x47B PUSH1 0x4 DUP1 CALLDATASIZE SUB DUP2 ADD SWAP1 PUSH2 0x476 SWAP2 SWAP1 PUSH2 0x1B3B JUMP JUMPDEST PUSH2 0x1702 JUMP JUMPDEST PUSH1 0x40 MLOAD PUSH2 0x48D SWAP7 SWAP6 SWAP5 SWAP4 SWAP3 SWAP2 SWAP1 PUSH2 0x1D98 JUMP JUMPDEST PUSH1 0x40 MLOAD DUP1 SWAP2 SUB SWAP1 RETURN JUMPDEST PUSH1 0x0 CALLER SWAP1 POP PUSH1 0x0 PUSH1 0xF PUSH1 0x0 DUP5 DUP2 MSTORE PUSH1 0x20 ADD SWAP1 DUP2 MSTORE PUSH1 0x20 ADD PUSH1 0x0 KECCAK256 PUSH1 0x40 MLOAD DUP1 PUSH1 0xC0 ADD PUSH1 0x40 MSTORE SWAP1 DUP2 PUSH1 0x0 DUP3 ADD SLOAD DUP2 MSTORE PUSH1 0x20 ADD PUSH1 0x1 DUP3 ADD SLOAD DUP2 MSTORE PUSH1 0x20 ADD PUSH1 0x2 DUP3 ADD PUSH1 0x0 SWAP1 SLOAD SWAP1 PUSH2 0x100 EXP SWAP1 DIV PUSH20 0xFFFFFFFFFFFFFFFFFFFFFFFFFFFFFFFFFFFFFFFF AND PUSH20 0xFFFFFFFFFFFFFFFFFFFFFFFFFFFFFFFFFFFFFFFF AND PUSH20 0xFFFFFFFFFFFFFFFFFFFFFFFFFFFFFFFFFFFFFFFF AND DUP2 MSTORE PUSH1 0x20 ADD PUSH1 0x3 DUP3 ADD PUSH1 0x0 SWAP1 SLOAD SWAP1 PUSH2 0x100 EXP SWAP1 DIV PUSH20 0xFFFFFFFFFFFFFFFFFFFFFFFFFFFFFFFFFFFFFFFF AND PUSH20 0xFFFFFFFFFFFFFFFFFFFFFFFFFFFFFFFFFFFFFFFF AND PUSH20 0xFFFFFFFFFFFFFFFFFFFFFFFFFFFFFFFFFFFFFFFF AND DUP2 MSTORE PUSH1 0x20 ADD PUSH1 0x4 DUP3 ADD SLOAD DUP2 MSTORE PUSH1 0x20 ADD PUSH1 0x5 DUP3 ADD PUSH1 0x0 SWAP1 SLOAD SWAP1 PUSH2 0x100 EXP SWAP1 DIV PUSH1 0xFF AND PUSH1 0x1 DUP2 GT ISZERO PUSH2 0x5AA JUMPI PUSH2 0x5A9 PUSH2 0x1D21 JUMP JUMPDEST JUMPDEST PUSH1 0x1 DUP2 GT ISZERO PUSH2 0x5BC JUMPI PUSH2 0x5BB PUSH2 0x1D21 JUMP JUMPDEST JUMPDEST DUP2 MSTORE POP POP SWAP1 POP PUSH1 0x0 DUP2 PUSH1 0x0 ADD MLOAD SUB PUSH2 0x609 JUMPI PUSH1 0x40 MLOAD PUSH32 0x8C379A000000000000000000000000000000000000000000000000000000000 DUP2 MSTORE PUSH1 0x4 ADD PUSH2 0x600 SWAP1 PUSH2 0x203E JUMP JUMPDEST PUSH1 0x40 MLOAD DUP1 SWAP2 SUB SWAP1 REVERT JUMPDEST PUSH1 0x1 DUP1 DUP2 GT ISZERO PUSH2 0x61C JUMPI PUSH2 0x61B PUSH2 0x1D21 JUMP JUMPDEST JUMPDEST DUP2 PUSH1 0xA0 ADD MLOAD PUSH1 0x1 DUP2 GT ISZERO PUSH2 0x633 JUMPI PUSH2 0x632 PUSH2 0x1D21 JUMP JUMPDEST JUMPDEST EQ PUSH2 0x673 JUMPI PUSH1 0x40 MLOAD PUSH32 0x8C379A000000000000000000000000000000000000000000000000000000000 DUP2 MSTORE PUSH1 0x4 ADD PUSH2 0x66A SWAP1 PUSH2 0x20AA JUMP JUMPDEST PUSH1 0x40 MLOAD DUP1 SWAP2 SUB SWAP1 REVERT JUMPDEST PUSH1 0x0 DUP2 PUSH1 0x40 ADD MLOAD SWAP1 POP PUSH1 0x0 PUSH20 0xFFFFFFFFFFFFFFFFFFFFFFFFFFFFFFFFFFFFFFFF AND DUP2 PUSH20 0xFFFFFFFFFFFFFFFFFFFFFFFFFFFFFFFFFFFFFFFF AND SUB PUSH2 0x6EB JUMPI PUSH1 0x40 MLOAD PUSH32 0x8C379A000000000000000000000000000000000000000000000000000000000 DUP2 MSTORE PUSH1 0x4 ADD PUSH2 0x6E2 SWAP1 PUSH2 0x2116 JUMP JUMPDEST PUSH1 0x40 MLOAD DUP1 SWAP2 SUB SWAP1 REVERT JUMPDEST CALLER PUSH20 0xFFFFFFFFFFFFFFFFFFFFFFFFFFFFFFFFFFFFFFFF AND DUP2 PUSH20 0xFFFFFFFFFFFFFFFFFFFFFFFFFFFFFFFFFFFFFFFF AND EQ PUSH2 0x759 JUMPI PUSH1 0x40 MLOAD PUSH32 0x8C379A000000000000000000000000000000000000000000000000000000000 DUP2 MSTORE PUSH1 0x4 ADD PUSH2 0x750 SWAP1 PUSH2 0x2182 JUMP JUMPDEST PUSH1 0x40 MLOAD DUP1 SWAP2 SUB SWAP1 REVERT JUMPDEST PUSH1 0xB PUSH1 0x0 SWAP1 SLOAD SWAP1 PUSH2 0x100 EXP SWAP1 DIV PUSH20 0xFFFFFFFFFFFFFFFFFFFFFFFFFFFFFFFFFFFFFFFF AND PUSH20 0xFFFFFFFFFFFFFFFFFFFFFFFFFFFFFFFFFFFFFFFF AND PUSH4 0x42842E0E ADDRESS DUP4 DUP8 PUSH1 0x40 MLOAD DUP5 PUSH4 0xFFFFFFFF AND PUSH1 0xE0 SHL DUP2 MSTORE PUSH1 0x4 ADD PUSH2 0x7B8 SWAP4 SWAP3 SWAP2 SWAP1 PUSH2 0x21A2 JUMP JUMPDEST PUSH1 0x0 PUSH1 0x40 MLOAD DUP1 DUP4 SUB DUP2 PUSH1 0x0 DUP8 DUP1 EXTCODESIZE ISZERO DUP1 ISZERO PUSH2 0x7D2 JUMPI PUSH1 0x0 DUP1 REVERT JUMPDEST POP GAS CALL ISZERO DUP1 ISZERO PUSH2 0x7E6 JUMPI RETURNDATASIZE PUSH1 0x0 DUP1 RETURNDATACOPY RETURNDATASIZE PUSH1 0x0 REVERT JUMPDEST POP POP POP POP PUSH1 0x0 DUP3 PUSH1 0xA0 ADD SWAP1 PUSH1 0x1 DUP2 GT ISZERO PUSH2 0x803 JUMPI PUSH2 0x802 PUSH2 0x1D21 JUMP JUMPDEST JUMPDEST SWAP1 DUP2 PUSH1 0x1 DUP2 GT ISZERO PUSH2 0x817 JUMPI PUSH2 0x816 PUSH2 0x1D21 JUMP JUMPDEST JUMPDEST DUP2 MSTORE POP POP PUSH1 0xF PUSH1 0x0 DUP6 DUP2 MSTORE PUSH1 0x20 ADD SWAP1 DUP2 MSTORE PUSH1 0x20 ADD PUSH1 0x0 KECCAK256 PUSH1 0x0 DUP1 DUP3 ADD PUSH1 0x0 SWAP1 SSTORE PUSH1 0x1 DUP3 ADD PUSH1 0x0 SWAP1 SSTORE PUSH1 0x2 DUP3 ADD PUSH1 0x0 PUSH2 0x100 EXP DUP2 SLOAD SWAP1 PUSH20 0xFFFFFFFFFFFFFFFFFFFFFFFFFFFFFFFFFFFFFFFF MUL NOT AND SWAP1 SSTORE PUSH1 0x3 DUP3 ADD PUSH1 0x0 PUSH2 0x100 EXP DUP2 SLOAD SWAP1 PUSH20 0xFFFFFFFFFFFFFFFFFFFFFFFFFFFFFFFFFFFFFFFF MUL NOT AND SWAP1 SSTORE PUSH1 0x4 DUP3 ADD PUSH1 0x0 SWAP1 SSTORE PUSH1 0x5 DUP3 ADD PUSH1 0x0 PUSH2 0x100 EXP DUP2 SLOAD SWAP1 PUSH1 0xFF MUL NOT AND SWAP1 SSTORE POP POP DUP3 PUSH20 0xFFFFFFFFFFFFFFFFFFFFFFFFFFFFFFFFFFFFFFFF AND DUP5 PUSH32 0x72FFC2A266ACBA5F77E2B49400103CB61B428F37A97057EBE671E83FDDD71E67 DUP5 PUSH1 0x0 ADD MLOAD TIMESTAMP PUSH1 0x40 MLOAD PUSH2 0x8F8 SWAP3 SWAP2 SWAP1 PUSH2 0x21D9 JUMP JUMPDEST PUSH1 0x40 MLOAD DUP1 SWAP2 SUB SWAP1 LOG3 POP POP POP POP JUMP JUMPDEST PUSH2 0x90E PUSH2 0x178B JUMP JUMPDEST PUSH20 0xFFFFFFFFFFFFFFFFFFFFFFFFFFFFFFFFFFFFFFFF AND PUSH2 0x92C PUSH2 0x1181 JUMP JUMPDEST PUSH20 0xFFFFFFFFFFFFFFFFFFFFFFFFFFFFFFFFFFFFFFFF AND EQ PUSH2 0x982 JUMPI PUSH1 0x40 MLOAD PUSH32 0x8C379A000000000000000000000000000000000000000000000000000000000 DUP2 MSTORE PUSH1 0x4 ADD PUSH2 0x979 SWAP1 PUSH2 0x224E JUMP JUMPDEST PUSH1 0x40 MLOAD DUP1 SWAP2 SUB SWAP1 REVERT JUMPDEST DUP1 PUSH1 0xB PUSH1 0x0 PUSH2 0x100 EXP DUP2 SLOAD DUP2 PUSH20 0xFFFFFFFFFFFFFFFFFFFFFFFFFFFFFFFFFFFFFFFF MUL NOT AND SWAP1 DUP4 PUSH20 0xFFFFFFFFFFFFFFFFFFFFFFFFFFFFFFFFFFFFFFFF AND MUL OR SWAP1 SSTORE POP POP JUMP JUMPDEST PUSH2 0x9CE PUSH2 0x178B JUMP JUMPDEST PUSH20 0xFFFFFFFFFFFFFFFFFFFFFFFFFFFFFFFFFFFFFFFF AND PUSH2 0x9EC PUSH2 0x1181 JUMP JUMPDEST PUSH20 0xFFFFFFFFFFFFFFFFFFFFFFFFFFFFFFFFFFFFFFFF AND EQ PUSH2 0xA42 JUMPI PUSH1 0x40 MLOAD PUSH32 0x8C379A000000000000000000000000000000000000000000000000000000000 DUP2 MSTORE PUSH1 0x4 ADD PUSH2 0xA39 SWAP1 PUSH2 0x224E JUMP JUMPDEST PUSH1 0x40 MLOAD DUP1 SWAP2 SUB SWAP1 REVERT JUMPDEST DUP1 PUSH1 0x9 PUSH1 0x0 PUSH2 0x100 EXP DUP2 SLOAD DUP2 PUSH20 0xFFFFFFFFFFFFFFFFFFFFFFFFFFFFFFFFFFFFFFFF MUL NOT AND SWAP1 DUP4 PUSH20 0xFFFFFFFFFFFFFFFFFFFFFFFFFFFFFFFFFFFFFFFF AND MUL OR SWAP1 SSTORE POP POP JUMP JUMPDEST PUSH4 0x80AC58CD PUSH1 0xE0 SHL DUP2 JUMP JUMPDEST PUSH1 0x2 PUSH1 0x0 SLOAD SUB PUSH2 0xAD6 JUMPI PUSH1 0x40 MLOAD PUSH32 0x8C379A000000000000000000000000000000000000000000000000000000000 DUP2 MSTORE PUSH1 0x4 ADD PUSH2 0xACD SWAP1 PUSH2 0x22BA JUMP JUMPDEST PUSH1 0x40 MLOAD DUP1 SWAP2 SUB SWAP1 REVERT JUMPDEST PUSH1 0x2 PUSH1 0x0 DUP2 SWAP1 SSTORE POP PUSH1 0x0 DUP2 GT PUSH2 0xB21 JUMPI PUSH1 0x40 MLOAD PUSH32 0x8C379A000000000000000000000000000000000000000000000000000000000 DUP2 MSTORE PUSH1 0x4 ADD PUSH2 0xB18 SWAP1 PUSH2 0x2326 JUMP JUMPDEST PUSH1 0x40 MLOAD DUP1 SWAP2 SUB SWAP1 REVERT JUMPDEST PUSH1 0x0 PUSH1 0xA PUSH1 0x0 SWAP1 SLOAD SWAP1 PUSH2 0x100 EXP SWAP1 DIV PUSH20 0xFFFFFFFFFFFFFFFFFFFFFFFFFFFFFFFFFFFFFFFF AND PUSH20 0xFFFFFFFFFFFFFFFFFFFFFFFFFFFFFFFFFFFFFFFF AND PUSH4 0x3CE1CB5 DUP5 PUSH1 0x40 MLOAD DUP3 PUSH4 0xFFFFFFFF AND PUSH1 0xE0 SHL DUP2 MSTORE PUSH1 0x4 ADD PUSH2 0xB7E SWAP2 SWAP1 PUSH2 0x1F8A JUMP JUMPDEST PUSH1 0x0 PUSH1 0x40 MLOAD DUP1 DUP4 SUB DUP2 DUP7 GAS STATICCALL ISZERO DUP1 ISZERO PUSH2 0xB9B JUMPI RETURNDATASIZE PUSH1 0x0 DUP1 RETURNDATACOPY RETURNDATASIZE PUSH1 0x0 REVERT JUMPDEST POP POP POP POP PUSH1 0x40 MLOAD RETURNDATASIZE PUSH1 0x0 DUP3 RETURNDATACOPY RETURNDATASIZE PUSH1 0x1F NOT PUSH1 0x1F DUP3 ADD AND DUP3 ADD DUP1 PUSH1 0x40 MSTORE POP DUP2 ADD SWAP1 PUSH2 0xBC4 SWAP2 SWAP1 PUSH2 0x25E0 JUMP JUMPDEST SWAP1 POP PUSH1 0x0 ISZERO ISZERO DUP2 PUSH1 0x80 ADD MLOAD ISZERO ISZERO EQ PUSH2 0xC11 JUMPI PUSH1 0x40 MLOAD PUSH32 0x8C379A000000000000000000000000000000000000000000000000000000000 DUP2 MSTORE PUSH1 0x4 ADD PUSH2 0xC08 SWAP1 PUSH2 0x2675 JUMP JUMPDEST PUSH1 0x40 MLOAD DUP1 SWAP2 SUB SWAP1 REVERT JUMPDEST PUSH1 0xA PUSH1 0x0 SWAP1 SLOAD SWAP1 PUSH2 0x100 EXP SWAP1 DIV PUSH20 0xFFFFFFFFFFFFFFFFFFFFFFFFFFFFFFFFFFFFFFFF AND PUSH20 0xFFFFFFFFFFFFFFFFFFFFFFFFFFFFFFFFFFFFFFFF AND PUSH4 0xC1E9518A CALLER ADDRESS DUP7 PUSH1 0x40 MLOAD DUP5 PUSH4 0xFFFFFFFF AND PUSH1 0xE0 SHL DUP2 MSTORE PUSH1 0x4 ADD PUSH2 0xC70 SWAP4 SWAP3 SWAP2 SWAP1 PUSH2 0x26B6 JUMP JUMPDEST PUSH1 0x0 PUSH1 0x40 MLOAD DUP1 DUP4 SUB DUP2 PUSH1 0x0 DUP8 DUP1 EXTCODESIZE ISZERO DUP1 ISZERO PUSH2 0xC8A JUMPI PUSH1 0x0 DUP1 REVERT JUMPDEST POP GAS CALL ISZERO DUP1 ISZERO PUSH2 0xC9E JUMPI RETURNDATASIZE PUSH1 0x0 DUP1 RETURNDATACOPY RETURNDATASIZE PUSH1 0x0 REVERT JUMPDEST POP POP POP POP PUSH1 0xB PUSH1 0x0 SWAP1 SLOAD SWAP1 PUSH2 0x100 EXP SWAP1 DIV PUSH20 0xFFFFFFFFFFFFFFFFFFFFFFFFFFFFFFFFFFFFFFFF AND PUSH20 0xFFFFFFFFFFFFFFFFFFFFFFFFFFFFFFFFFFFFFFFF AND PUSH4 0x23B872DD CALLER ADDRESS DUP7 PUSH1 0x40 MLOAD DUP5 PUSH4 0xFFFFFFFF AND PUSH1 0xE0 SHL DUP2 MSTORE PUSH1 0x4 ADD PUSH2 0xD01 SWAP4 SWAP3 SWAP2 SWAP1 PUSH2 0x21A2 JUMP JUMPDEST PUSH1 0x0 PUSH1 0x40 MLOAD DUP1 DUP4 SUB DUP2 PUSH1 0x0 DUP8 DUP1 EXTCODESIZE ISZERO DUP1 ISZERO PUSH2 0xD1B JUMPI PUSH1 0x0 DUP1 REVERT JUMPDEST POP GAS CALL ISZERO DUP1 ISZERO PUSH2 0xD2F JUMPI RETURNDATASIZE PUSH1 0x0 DUP1 RETURNDATACOPY RETURNDATASIZE PUSH1 0x0 REVERT JUMPDEST POP POP POP POP PUSH1 0x0 PUSH2 0xD3F PUSH1 0xD PUSH2 0x1793 JUMP JUMPDEST SWAP1 POP PUSH1 0x40 MLOAD DUP1 PUSH1 0xC0 ADD PUSH1 0x40 MSTORE DUP1 DUP3 DUP2 MSTORE PUSH1 0x20 ADD DUP6 DUP2 MSTORE PUSH1 0x20 ADD CALLER PUSH20 0xFFFFFFFFFFFFFFFFFFFFFFFFFFFFFFFFFFFFFFFF AND DUP2 MSTORE PUSH1 0x20 ADD ADDRESS PUSH20 0xFFFFFFFFFFFFFFFFFFFFFFFFFFFFFFFFFFFFFFFF AND DUP2 MSTORE PUSH1 0x20 ADD DUP5 DUP2 MSTORE PUSH1 0x20 ADD PUSH1 0x1 DUP1 DUP2 GT ISZERO PUSH2 0xDA9 JUMPI PUSH2 0xDA8 PUSH2 0x1D21 JUMP JUMPDEST JUMPDEST DUP2 MSTORE POP PUSH1 0xF PUSH1 0x0 DUP4 DUP2 MSTORE PUSH1 0x20 ADD SWAP1 DUP2 MSTORE PUSH1 0x20 ADD PUSH1 0x0 KECCAK256 PUSH1 0x0 DUP3 ADD MLOAD DUP2 PUSH1 0x0 ADD SSTORE PUSH1 0x20 DUP3 ADD MLOAD DUP2 PUSH1 0x1 ADD SSTORE PUSH1 0x40 DUP3 ADD MLOAD DUP2 PUSH1 0x2 ADD PUSH1 0x0 PUSH2 0x100 EXP DUP2 SLOAD DUP2 PUSH20 0xFFFFFFFFFFFFFFFFFFFFFFFFFFFFFFFFFFFFFFFF MUL NOT AND SWAP1 DUP4 PUSH20 0xFFFFFFFFFFFFFFFFFFFFFFFFFFFFFFFFFFFFFFFF AND MUL OR SWAP1 SSTORE POP PUSH1 0x60 DUP3 ADD MLOAD DUP2 PUSH1 0x3 ADD PUSH1 0x0 PUSH2 0x100 EXP DUP2 SLOAD DUP2 PUSH20 0xFFFFFFFFFFFFFFFFFFFFFFFFFFFFFFFFFFFFFFFF MUL NOT AND SWAP1 DUP4 PUSH20 0xFFFFFFFFFFFFFFFFFFFFFFFFFFFFFFFFFFFFFFFF AND MUL OR SWAP1 SSTORE POP PUSH1 0x80 DUP3 ADD MLOAD DUP2 PUSH1 0x4 ADD SSTORE PUSH1 0xA0 DUP3 ADD MLOAD DUP2 PUSH1 0x5 ADD PUSH1 0x0 PUSH2 0x100 EXP DUP2 SLOAD DUP2 PUSH1 0xFF MUL NOT AND SWAP1 DUP4 PUSH1 0x1 DUP2 GT ISZERO PUSH2 0xE96 JUMPI PUSH2 0xE95 PUSH2 0x1D21 JUMP JUMPDEST JUMPDEST MUL OR SWAP1 SSTORE POP SWAP1 POP POP PUSH2 0xEA8 PUSH1 0xD PUSH2 0x17A1 JUMP JUMPDEST DUP4 DUP2 PUSH32 0x38690A554FFBC44EB6A75016E47D517D0DB8E6C37494ADC68D6D0B2C66F0AB21 CALLER ADDRESS DUP8 PUSH1 0x40 MLOAD PUSH2 0xEDD SWAP4 SWAP3 SWAP2 SWAP1 PUSH2 0x21A2 JUMP JUMPDEST PUSH1 0x40 MLOAD DUP1 SWAP2 SUB SWAP1 LOG3 POP POP PUSH1 0x1 PUSH1 0x0 DUP2 SWAP1 SSTORE POP POP POP JUMP JUMPDEST PUSH1 0x9 PUSH1 0x0 SWAP1 SLOAD SWAP1 PUSH2 0x100 EXP SWAP1 DIV PUSH20 0xFFFFFFFFFFFFFFFFFFFFFFFFFFFFFFFFFFFFFFFF AND DUP2 JUMP JUMPDEST PUSH1 0x1 DUP1 PUSH1 0x0 ADD SLOAD SWAP1 DUP1 PUSH1 0x1 ADD SLOAD SWAP1 DUP1 PUSH1 0x2 ADD PUSH1 0x0 SWAP1 SLOAD SWAP1 PUSH2 0x100 EXP SWAP1 DIV PUSH20 0xFFFFFFFFFFFFFFFFFFFFFFFFFFFFFFFFFFFFFFFF AND SWAP1 DUP1 PUSH1 0x3 ADD PUSH1 0x0 SWAP1 SLOAD SWAP1 PUSH2 0x100 EXP SWAP1 DIV PUSH20 0xFFFFFFFFFFFFFFFFFFFFFFFFFFFFFFFFFFFFFFFF AND SWAP1 DUP1 PUSH1 0x4 ADD SLOAD SWAP1 DUP1 PUSH1 0x5 ADD PUSH1 0x0 SWAP1 SLOAD SWAP1 PUSH2 0x100 EXP SWAP1 DIV PUSH1 0xFF AND SWAP1 POP DUP7 JUMP JUMPDEST PUSH2 0xF98 PUSH2 0x178B JUMP JUMPDEST PUSH20 0xFFFFFFFFFFFFFFFFFFFFFFFFFFFFFFFFFFFFFFFF AND PUSH2 0xFB6 PUSH2 0x1181 JUMP JUMPDEST PUSH20 0xFFFFFFFFFFFFFFFFFFFFFFFFFFFFFFFFFFFFFFFF AND EQ PUSH2 0x100C JUMPI PUSH1 0x40 MLOAD PUSH32 0x8C379A000000000000000000000000000000000000000000000000000000000 DUP2 MSTORE PUSH1 0x4 ADD PUSH2 0x1003 SWAP1 PUSH2 0x224E JUMP JUMPDEST PUSH1 0x40 MLOAD DUP1 SWAP2 SUB SWAP1 REVERT JUMPDEST DUP1 PUSH1 0xA PUSH1 0x0 PUSH2 0x100 EXP DUP2 SLOAD DUP2 PUSH20 0xFFFFFFFFFFFFFFFFFFFFFFFFFFFFFFFFFFFFFFFF MUL NOT AND SWAP1 DUP4 PUSH20 0xFFFFFFFFFFFFFFFFFFFFFFFFFFFFFFFFFFFFFFFF AND MUL OR SWAP1 SSTORE POP POP JUMP JUMPDEST PUSH1 0x8 PUSH1 0x20 MSTORE DUP2 PUSH1 0x0 MSTORE PUSH1 0x40 PUSH1 0x0 KECCAK256 PUSH1 0x20 MSTORE DUP1 PUSH1 0x0 MSTORE PUSH1 0x40 PUSH1 0x0 KECCAK256 PUSH1 0x0 SWAP2 POP SWAP2 POP POP DUP1 PUSH1 0x0 ADD SLOAD SWAP1 DUP1 PUSH1 0x1 ADD SLOAD SWAP1 DUP1 PUSH1 0x2 ADD PUSH1 0x0 SWAP1 SLOAD SWAP1 PUSH2 0x100 EXP SWAP1 DIV PUSH20 0xFFFFFFFFFFFFFFFFFFFFFFFFFFFFFFFFFFFFFFFF AND SWAP1 DUP1 PUSH1 0x3 ADD PUSH1 0x0 SWAP1 SLOAD SWAP1 PUSH2 0x100 EXP SWAP1 DIV PUSH20 0xFFFFFFFFFFFFFFFFFFFFFFFFFFFFFFFFFFFFFFFF AND SWAP1 DUP1 PUSH1 0x4 ADD SLOAD SWAP1 DUP1 PUSH1 0x5 ADD PUSH1 0x0 SWAP1 SLOAD SWAP1 PUSH2 0x100 EXP SWAP1 DIV PUSH1 0xFF AND SWAP1 POP DUP7 JUMP JUMPDEST PUSH2 0x10EE PUSH2 0x178B JUMP JUMPDEST PUSH20 0xFFFFFFFFFFFFFFFFFFFFFFFFFFFFFFFFFFFFFFFF AND PUSH2 0x110C PUSH2 0x1181 JUMP JUMPDEST PUSH20 0xFFFFFFFFFFFFFFFFFFFFFFFFFFFFFFFFFFFFFFFF AND EQ PUSH2 0x1162 JUMPI PUSH1 0x40 MLOAD PUSH32 0x8C379A000000000000000000000000000000000000000000000000000000000 DUP2 MSTORE PUSH1 0x4 ADD PUSH2 0x1159 SWAP1 PUSH2 0x224E JUMP JUMPDEST PUSH1 0x40 MLOAD DUP1 SWAP2 SUB SWAP1 REVERT JUMPDEST PUSH2 0x116C PUSH1 0x0 PUSH2 0x17B7 JUMP JUMPDEST JUMP JUMPDEST PUSH1 0xB PUSH1 0x14 SWAP1 SLOAD SWAP1 PUSH2 0x100 EXP SWAP1 DIV PUSH1 0xFF AND DUP2 JUMP JUMPDEST PUSH1 0x0 PUSH1 0xC PUSH1 0x0 SWAP1 SLOAD SWAP1 PUSH2 0x100 EXP SWAP1 DIV PUSH20 0xFFFFFFFFFFFFFFFFFFFFFFFFFFFFFFFFFFFFFFFF AND SWAP1 POP SWAP1 JUMP JUMPDEST PUSH1 0x0 PUSH1 0xF PUSH1 0x0 DUP5 DUP2 MSTORE PUSH1 0x20 ADD SWAP1 DUP2 MSTORE PUSH1 0x20 ADD PUSH1 0x0 KECCAK256 PUSH1 0x4 ADD SLOAD SWAP1 POP PUSH1 0x0 PUSH1 0xF PUSH1 0x0 DUP6 DUP2 MSTORE PUSH1 0x20 ADD SWAP1 DUP2 MSTORE PUSH1 0x20 ADD PUSH1 0x0 KECCAK256 PUSH1 0x1 ADD SLOAD SWAP1 POP PUSH1 0x0 PUSH1 0xF PUSH1 0x0 DUP7 DUP2 MSTORE PUSH1 0x20 ADD SWAP1 DUP2 MSTORE PUSH1 0x20 ADD PUSH1 0x0 KECCAK256 PUSH1 0x2 ADD PUSH1 0x0 SWAP1 SLOAD SWAP1 PUSH2 0x100 EXP SWAP1 DIV PUSH20 0xFFFFFFFFFFFFFFFFFFFFFFFFFFFFFFFFFFFFFFFF AND SWAP1 POP PUSH1 0x0 PUSH1 0xA PUSH1 0x0 SWAP1 SLOAD SWAP1 PUSH2 0x100 EXP SWAP1 DIV PUSH20 0xFFFFFFFFFFFFFFFFFFFFFFFFFFFFFFFFFFFFFFFF AND PUSH20 0xFFFFFFFFFFFFFFFFFFFFFFFFFFFFFFFFFFFFFFFF AND PUSH4 0x3CE1CB5 DUP5 PUSH1 0x40 MLOAD DUP3 PUSH4 0xFFFFFFFF AND PUSH1 0xE0 SHL DUP2 MSTORE PUSH1 0x4 ADD PUSH2 0x1279 SWAP2 SWAP1 PUSH2 0x1F8A JUMP JUMPDEST PUSH1 0x0 PUSH1 0x40 MLOAD DUP1 DUP4 SUB DUP2 DUP7 GAS STATICCALL ISZERO DUP1 ISZERO PUSH2 0x1296 JUMPI RETURNDATASIZE PUSH1 0x0 DUP1 RETURNDATACOPY RETURNDATASIZE PUSH1 0x0 REVERT JUMPDEST POP POP POP POP PUSH1 0x40 MLOAD RETURNDATASIZE PUSH1 0x0 DUP3 RETURNDATACOPY RETURNDATASIZE PUSH1 0x1F NOT PUSH1 0x1F DUP3 ADD AND DUP3 ADD DUP1 PUSH1 0x40 MSTORE POP DUP2 ADD SWAP1 PUSH2 0x12BF SWAP2 SWAP1 PUSH2 0x25E0 JUMP JUMPDEST SWAP1 POP DUP4 DUP6 EQ PUSH2 0x1303 JUMPI PUSH1 0x40 MLOAD PUSH32 0x8C379A000000000000000000000000000000000000000000000000000000000 DUP2 MSTORE PUSH1 0x4 ADD PUSH2 0x12FA SWAP1 PUSH2 0x275F JUMP JUMPDEST PUSH1 0x40 MLOAD DUP1 SWAP2 SUB SWAP1 REVERT JUMPDEST PUSH1 0x0 ISZERO ISZERO DUP2 PUSH1 0x80 ADD MLOAD ISZERO ISZERO EQ PUSH2 0x134E JUMPI PUSH1 0x40 MLOAD PUSH32 0x8C379A000000000000000000000000000000000000000000000000000000000 DUP2 MSTORE PUSH1 0x4 ADD PUSH2 0x1345 SWAP1 PUSH2 0x2675 JUMP JUMPDEST PUSH1 0x40 MLOAD DUP1 SWAP2 SUB SWAP1 REVERT JUMPDEST PUSH2 0x1359 DUP7 DUP7 DUP6 PUSH2 0x187D JUMP JUMPDEST CALLER PUSH1 0xF PUSH1 0x0 DUP9 DUP2 MSTORE PUSH1 0x20 ADD SWAP1 DUP2 MSTORE PUSH1 0x20 ADD PUSH1 0x0 KECCAK256 PUSH1 0x3 ADD PUSH1 0x0 PUSH2 0x100 EXP DUP2 SLOAD DUP2 PUSH20 0xFFFFFFFFFFFFFFFFFFFFFFFFFFFFFFFFFFFFFFFF MUL NOT AND SWAP1 DUP4 PUSH20 0xFFFFFFFFFFFFFFFFFFFFFFFFFFFFFFFFFFFFFFFF AND MUL OR SWAP1 SSTORE POP PUSH1 0x0 PUSH1 0xF PUSH1 0x0 DUP9 DUP2 MSTORE PUSH1 0x20 ADD SWAP1 DUP2 MSTORE PUSH1 0x20 ADD PUSH1 0x0 KECCAK256 PUSH1 0x5 ADD PUSH1 0x0 PUSH2 0x100 EXP DUP2 SLOAD DUP2 PUSH1 0xFF MUL NOT AND SWAP1 DUP4 PUSH1 0x1 DUP2 GT ISZERO PUSH2 0x13E8 JUMPI PUSH2 0x13E7 PUSH2 0x1D21 JUMP JUMPDEST JUMPDEST MUL OR SWAP1 SSTORE POP PUSH2 0x13F7 PUSH1 0xE PUSH2 0x17A1 JUMP JUMPDEST CALLER PUSH20 0xFFFFFFFFFFFFFFFFFFFFFFFFFFFFFFFFFFFFFFFF AND DUP3 PUSH20 0xFFFFFFFFFFFFFFFFFFFFFFFFFFFFFFFFFFFFFFFF AND DUP5 PUSH32 0x551327AEE12D0A8B3EDE8D0E3182A40A5FF3ED9F1811DD622915DB30B609B7DF DUP10 DUP9 TIMESTAMP PUSH1 0x40 MLOAD PUSH2 0x1459 SWAP4 SWAP3 SWAP2 SWAP1 PUSH2 0x27CB JUMP JUMPDEST PUSH1 0x40 MLOAD DUP1 SWAP2 SUB SWAP1 LOG4 POP POP POP POP POP POP JUMP JUMPDEST PUSH1 0xB PUSH1 0x15 SWAP1 SLOAD SWAP1 PUSH2 0x100 EXP SWAP1 DIV PUSH1 0xFF AND DUP2 JUMP JUMPDEST PUSH1 0xA PUSH1 0x0 SWAP1 SLOAD SWAP1 PUSH2 0x100 EXP SWAP1 DIV PUSH20 0xFFFFFFFFFFFFFFFFFFFFFFFFFFFFFFFFFFFFFFFF AND DUP2 JUMP JUMPDEST PUSH2 0x14AA PUSH2 0x1A7D JUMP JUMPDEST PUSH1 0xF PUSH1 0x0 DUP4 DUP2 MSTORE PUSH1 0x20 ADD SWAP1 DUP2 MSTORE PUSH1 0x20 ADD PUSH1 0x0 KECCAK256 PUSH1 0x40 MLOAD DUP1 PUSH1 0xC0 ADD PUSH1 0x40 MSTORE SWAP1 DUP2 PUSH1 0x0 DUP3 ADD SLOAD DUP2 MSTORE PUSH1 0x20 ADD PUSH1 0x1 DUP3 ADD SLOAD DUP2 MSTORE PUSH1 0x20 ADD PUSH1 0x2 DUP3 ADD PUSH1 0x0 SWAP1 SLOAD SWAP1 PUSH2 0x100 EXP SWAP1 DIV PUSH20 0xFFFFFFFFFFFFFFFFFFFFFFFFFFFFFFFFFFFFFFFF AND PUSH20 0xFFFFFFFFFFFFFFFFFFFFFFFFFFFFFFFFFFFFFFFF AND PUSH20 0xFFFFFFFFFFFFFFFFFFFFFFFFFFFFFFFFFFFFFFFF AND DUP2 MSTORE PUSH1 0x20 ADD PUSH1 0x3 DUP3 ADD PUSH1 0x0 SWAP1 SLOAD SWAP1 PUSH2 0x100 EXP SWAP1 DIV PUSH20 0xFFFFFFFFFFFFFFFFFFFFFFFFFFFFFFFFFFFFFFFF AND PUSH20 0xFFFFFFFFFFFFFFFFFFFFFFFFFFFFFFFFFFFFFFFF AND PUSH20 0xFFFFFFFFFFFFFFFFFFFFFFFFFFFFFFFFFFFFFFFF AND DUP2 MSTORE PUSH1 0x20 ADD PUSH1 0x4 DUP3 ADD SLOAD DUP2 MSTORE PUSH1 0x20 ADD PUSH1 0x5 DUP3 ADD PUSH1 0x0 SWAP1 SLOAD SWAP1 PUSH2 0x100 EXP SWAP1 DIV PUSH1 0xFF AND PUSH1 0x1 DUP2 GT ISZERO PUSH2 0x15B7 JUMPI PUSH2 0x15B6 PUSH2 0x1D21 JUMP JUMPDEST JUMPDEST PUSH1 0x1 DUP2 GT ISZERO PUSH2 0x15C9 JUMPI PUSH2 0x15C8 PUSH2 0x1D21 JUMP JUMPDEST JUMPDEST DUP2 MSTORE POP POP SWAP1 POP SWAP2 SWAP1 POP JUMP JUMPDEST PUSH1 0x0 PUSH2 0x15E0 PUSH1 0xD PUSH2 0x1793 JUMP JUMPDEST SWAP1 POP SWAP1 JUMP JUMPDEST PUSH2 0x15ED PUSH2 0x178B JUMP JUMPDEST PUSH20 0xFFFFFFFFFFFFFFFFFFFFFFFFFFFFFFFFFFFFFFFF AND PUSH2 0x160B PUSH2 0x1181 JUMP JUMPDEST PUSH20 0xFFFFFFFFFFFFFFFFFFFFFFFFFFFFFFFFFFFFFFFF AND EQ PUSH2 0x1661 JUMPI PUSH1 0x40 MLOAD PUSH32 0x8C379A000000000000000000000000000000000000000000000000000000000 DUP2 MSTORE PUSH1 0x4 ADD PUSH2 0x1658 SWAP1 PUSH2 0x224E JUMP JUMPDEST PUSH1 0x40 MLOAD DUP1 SWAP2 SUB SWAP1 REVERT JUMPDEST PUSH1 0x0 PUSH20 0xFFFFFFFFFFFFFFFFFFFFFFFFFFFFFFFFFFFFFFFF AND DUP2 PUSH20 0xFFFFFFFFFFFFFFFFFFFFFFFFFFFFFFFFFFFFFFFF AND SUB PUSH2 0x16D0 JUMPI PUSH1 0x40 MLOAD PUSH32 0x8C379A000000000000000000000000000000000000000000000000000000000 DUP2 MSTORE PUSH1 0x4 ADD PUSH2 0x16C7 SWAP1 PUSH2 0x2887 JUMP JUMPDEST PUSH1 0x40 MLOAD DUP1 SWAP2 SUB SWAP1 REVERT JUMPDEST PUSH2 0x16D9 DUP2 PUSH2 0x17B7 JUMP JUMPDEST POP JUMP JUMPDEST PUSH1 0xB PUSH1 0x0 SWAP1 SLOAD SWAP1 PUSH2 0x100 EXP SWAP1 DIV PUSH20 0xFFFFFFFFFFFFFFFFFFFFFFFFFFFFFFFFFFFFFFFF AND DUP2 JUMP JUMPDEST PUSH1 0x7 PUSH1 0x20 MSTORE DUP1 PUSH1 0x0 MSTORE PUSH1 0x40 PUSH1 0x0 KECCAK256 PUSH1 0x0 SWAP2 POP SWAP1 POP DUP1 PUSH1 0x0 ADD SLOAD SWAP1 DUP1 PUSH1 0x1 ADD SLOAD SWAP1 DUP1 PUSH1 0x2 ADD PUSH1 0x0 SWAP1 SLOAD SWAP1 PUSH2 0x100 EXP SWAP1 DIV PUSH20 0xFFFFFFFFFFFFFFFFFFFFFFFFFFFFFFFFFFFFFFFF AND SWAP1 DUP1 PUSH1 0x3 ADD PUSH1 0x0 SWAP1 SLOAD SWAP1 PUSH2 0x100 EXP SWAP1 DIV PUSH20 0xFFFFFFFFFFFFFFFFFFFFFFFFFFFFFFFFFFFFFFFF AND SWAP1 DUP1 PUSH1 0x4 ADD SLOAD SWAP1 DUP1 PUSH1 0x5 ADD PUSH1 0x0 SWAP1 SLOAD SWAP1 PUSH2 0x100 EXP SWAP1 DIV PUSH1 0xFF AND SWAP1 POP DUP7 JUMP JUMPDEST PUSH1 0x0 CALLER SWAP1 POP SWAP1 JUMP JUMPDEST PUSH1 0x0 DUP2 PUSH1 0x0 ADD SLOAD SWAP1 POP SWAP2 SWAP1 POP JUMP JUMPDEST PUSH1 0x1 DUP2 PUSH1 0x0 ADD PUSH1 0x0 DUP3 DUP3 SLOAD ADD SWAP3 POP POP DUP2 SWAP1 SSTORE POP POP JUMP JUMPDEST PUSH1 0x0 PUSH1 0xC PUSH1 0x0 SWAP1 SLOAD SWAP1 PUSH2 0x100 EXP SWAP1 DIV PUSH20 0xFFFFFFFFFFFFFFFFFFFFFFFFFFFFFFFFFFFFFFFF AND SWAP1 POP DUP2 PUSH1 0xC PUSH1 0x0 PUSH2 0x100 EXP DUP2 SLOAD DUP2 PUSH20 0xFFFFFFFFFFFFFFFFFFFFFFFFFFFFFFFFFFFFFFFF MUL NOT AND SWAP1 DUP4 PUSH20 0xFFFFFFFFFFFFFFFFFFFFFFFFFFFFFFFFFFFFFFFF AND MUL OR SWAP1 SSTORE POP DUP2 PUSH20 0xFFFFFFFFFFFFFFFFFFFFFFFFFFFFFFFFFFFFFFFF AND DUP2 PUSH20 0xFFFFFFFFFFFFFFFFFFFFFFFFFFFFFFFFFFFFFFFF AND PUSH32 0x8BE0079C531659141344CD1FD0A4F28419497F9722A3DAAFE3B4186F6B6457E0 PUSH1 0x40 MLOAD PUSH1 0x40 MLOAD DUP1 SWAP2 SUB SWAP1 LOG3 POP POP JUMP JUMPDEST PUSH1 0x9 PUSH1 0x0 SWAP1 SLOAD SWAP1 PUSH2 0x100 EXP SWAP1 DIV PUSH20 0xFFFFFFFFFFFFFFFFFFFFFFFFFFFFFFFFFFFFFFFF AND PUSH20 0xFFFFFFFFFFFFFFFFFFFFFFFFFFFFFFFFFFFFFFFF AND PUSH4 0x23B872DD CALLER PUSH1 0xF PUSH1 0x0 DUP8 DUP2 MSTORE PUSH1 0x20 ADD SWAP1 DUP2 MSTORE PUSH1 0x20 ADD PUSH1 0x0 KECCAK256 PUSH1 0x2 ADD PUSH1 0x0 SWAP1 SLOAD SWAP1 PUSH2 0x100 EXP SWAP1 DIV PUSH20 0xFFFFFFFFFFFFFFFFFFFFFFFFFFFFFFFFFFFFFFFF AND DUP6 PUSH1 0x40 MLOAD DUP5 PUSH4 0xFFFFFFFF AND PUSH1 0xE0 SHL DUP2 MSTORE PUSH1 0x4 ADD PUSH2 0x1912 SWAP4 SWAP3 SWAP2 SWAP1 PUSH2 0x21A2 JUMP JUMPDEST PUSH1 0x20 PUSH1 0x40 MLOAD DUP1 DUP4 SUB DUP2 PUSH1 0x0 DUP8 GAS CALL ISZERO DUP1 ISZERO PUSH2 0x1931 JUMPI RETURNDATASIZE PUSH1 0x0 DUP1 RETURNDATACOPY RETURNDATASIZE PUSH1 0x0 REVERT JUMPDEST POP POP POP POP PUSH1 0x40 MLOAD RETURNDATASIZE PUSH1 0x1F NOT PUSH1 0x1F DUP3 ADD AND DUP3 ADD DUP1 PUSH1 0x40 MSTORE POP DUP2 ADD SWAP1 PUSH2 0x1955 SWAP2 SWAP1 PUSH2 0x28A7 JUMP JUMPDEST POP PUSH1 0xA PUSH1 0x0 SWAP1 SLOAD SWAP1 PUSH2 0x100 EXP SWAP1 DIV PUSH20 0xFFFFFFFFFFFFFFFFFFFFFFFFFFFFFFFFFFFFFFFF AND PUSH20 0xFFFFFFFFFFFFFFFFFFFFFFFFFFFFFFFFFFFFFFFF AND PUSH4 0xC1E9518A CALLER ADDRESS DUP5 PUSH1 0x40 MLOAD DUP5 PUSH4 0xFFFFFFFF AND PUSH1 0xE0 SHL DUP2 MSTORE PUSH1 0x4 ADD PUSH2 0x19B5 SWAP4 SWAP3 SWAP2 SWAP1 PUSH2 0x21A2 JUMP JUMPDEST PUSH1 0x0 PUSH1 0x40 MLOAD DUP1 DUP4 SUB DUP2 PUSH1 0x0 DUP8 DUP1 EXTCODESIZE ISZERO DUP1 ISZERO PUSH2 0x19CF JUMPI PUSH1 0x0 DUP1 REVERT JUMPDEST POP GAS CALL ISZERO DUP1 ISZERO PUSH2 0x19E3 JUMPI RETURNDATASIZE PUSH1 0x0 DUP1 RETURNDATACOPY RETURNDATASIZE PUSH1 0x0 REVERT JUMPDEST POP POP POP POP PUSH1 0xB PUSH1 0x0 SWAP1 SLOAD SWAP1 PUSH2 0x100 EXP SWAP1 DIV PUSH20 0xFFFFFFFFFFFFFFFFFFFFFFFFFFFFFFFFFFFFFFFF AND PUSH20 0xFFFFFFFFFFFFFFFFFFFFFFFFFFFFFFFFFFFFFFFF AND PUSH4 0x23B872DD ADDRESS CALLER DUP5 PUSH1 0x40 MLOAD DUP5 PUSH4 0xFFFFFFFF AND PUSH1 0xE0 SHL DUP2 MSTORE PUSH1 0x4 ADD PUSH2 0x1A46 SWAP4 SWAP3 SWAP2 SWAP1 PUSH2 0x21A2 JUMP JUMPDEST PUSH1 0x0 PUSH1 0x40 MLOAD DUP1 DUP4 SUB DUP2 PUSH1 0x0 DUP8 DUP1 EXTCODESIZE ISZERO DUP1 ISZERO PUSH2 0x1A60 JUMPI PUSH1 0x0 DUP1 REVERT JUMPDEST POP GAS CALL ISZERO DUP1 ISZERO PUSH2 0x1A74 JUMPI RETURNDATASIZE PUSH1 0x0 DUP1 RETURNDATACOPY RETURNDATASIZE PUSH1 0x0 REVERT JUMPDEST POP POP POP POP POP POP POP JUMP JUMPDEST PUSH1 0x40 MLOAD DUP1 PUSH1 0xC0 ADD PUSH1 0x40 MSTORE DUP1 PUSH1 0x0 DUP2 MSTORE PUSH1 0x20 ADD PUSH1 0x0 DUP2 MSTORE PUSH1 0x20 ADD PUSH1 0x0 PUSH20 0xFFFFFFFFFFFFFFFFFFFFFFFFFFFFFFFFFFFFFFFF AND DUP2 MSTORE PUSH1 0x20 ADD PUSH1 0x0 PUSH20 0xFFFFFFFFFFFFFFFFFFFFFFFFFFFFFFFFFFFFFFFF AND DUP2 MSTORE PUSH1 0x20 ADD PUSH1 0x0 DUP2 MSTORE PUSH1 0x20 ADD PUSH1 0x0 PUSH1 0x1 DUP2 GT ISZERO PUSH2 0x1AEB JUMPI PUSH2 0x1AEA PUSH2 0x1D21 JUMP JUMPDEST JUMPDEST DUP2 MSTORE POP SWAP1 JUMP JUMPDEST PUSH1 0x0 PUSH1 0x40 MLOAD SWAP1 POP SWAP1 JUMP JUMPDEST PUSH1 0x0 DUP1 REVERT JUMPDEST PUSH1 0x0 DUP1 REVERT JUMPDEST PUSH1 0x0 DUP2 SWAP1 POP SWAP2 SWAP1 POP JUMP JUMPDEST PUSH2 0x1B18 DUP2 PUSH2 0x1B05 JUMP JUMPDEST DUP2 EQ PUSH2 0x1B23 JUMPI PUSH1 0x0 DUP1 REVERT JUMPDEST POP JUMP JUMPDEST PUSH1 0x0 DUP2 CALLDATALOAD SWAP1 POP PUSH2 0x1B35 DUP2 PUSH2 0x1B0F JUMP JUMPDEST SWAP3 SWAP2 POP POP JUMP JUMPDEST PUSH1 0x0 PUSH1 0x20 DUP3 DUP5 SUB SLT ISZERO PUSH2 0x1B51 JUMPI PUSH2 0x1B50 PUSH2 0x1AFB JUMP JUMPDEST JUMPDEST PUSH1 0x0 PUSH2 0x1B5F DUP5 DUP3 DUP6 ADD PUSH2 0x1B26 JUMP JUMPDEST SWAP2 POP POP SWAP3 SWAP2 POP POP JUMP JUMPDEST PUSH1 0x0 PUSH20 0xFFFFFFFFFFFFFFFFFFFFFFFFFFFFFFFFFFFFFFFF DUP3 AND SWAP1 POP SWAP2 SWAP1 POP JUMP JUMPDEST PUSH1 0x0 PUSH2 0x1B93 DUP3 PUSH2 0x1B68 JUMP JUMPDEST SWAP1 POP SWAP2 SWAP1 POP JUMP JUMPDEST PUSH2 0x1BA3 DUP2 PUSH2 0x1B88 JUMP JUMPDEST DUP2 EQ PUSH2 0x1BAE JUMPI PUSH1 0x0 DUP1 REVERT JUMPDEST POP JUMP JUMPDEST PUSH1 0x0 DUP2 CALLDATALOAD SWAP1 POP PUSH2 0x1BC0 DUP2 PUSH2 0x1B9A JUMP JUMPDEST SWAP3 SWAP2 POP POP JUMP JUMPDEST PUSH1 0x0 PUSH1 0x20 DUP3 DUP5 SUB SLT ISZERO PUSH2 0x1BDC JUMPI PUSH2 0x1BDB PUSH2 0x1AFB JUMP JUMPDEST JUMPDEST PUSH1 0x0 PUSH2 0x1BEA DUP5 DUP3 DUP6 ADD PUSH2 0x1BB1 JUMP JUMPDEST SWAP2 POP POP SWAP3 SWAP2 POP POP JUMP JUMPDEST PUSH1 0x0 PUSH32 0xFFFFFFFF00000000000000000000000000000000000000000000000000000000 DUP3 AND SWAP1 POP SWAP2 SWAP1 POP JUMP JUMPDEST PUSH2 0x1C28 DUP2 PUSH2 0x1BF3 JUMP JUMPDEST DUP3 MSTORE POP POP JUMP JUMPDEST PUSH1 0x0 PUSH1 0x20 DUP3 ADD SWAP1 POP PUSH2 0x1C43 PUSH1 0x0 DUP4 ADD DUP5 PUSH2 0x1C1F JUMP JUMPDEST SWAP3 SWAP2 POP POP JUMP JUMPDEST PUSH1 0x0 DUP1 PUSH1 0x40 DUP4 DUP6 SUB SLT ISZERO PUSH2 0x1C60 JUMPI PUSH2 0x1C5F PUSH2 0x1AFB JUMP JUMPDEST JUMPDEST PUSH1 0x0 PUSH2 0x1C6E DUP6 DUP3 DUP7 ADD PUSH2 0x1B26 JUMP JUMPDEST SWAP3 POP POP PUSH1 0x20 PUSH2 0x1C7F DUP6 DUP3 DUP7 ADD PUSH2 0x1B26 JUMP JUMPDEST SWAP2 POP POP SWAP3 POP SWAP3 SWAP1 POP JUMP JUMPDEST PUSH1 0x0 DUP2 SWAP1 POP SWAP2 SWAP1 POP JUMP JUMPDEST PUSH1 0x0 PUSH2 0x1CAE PUSH2 0x1CA9 PUSH2 0x1CA4 DUP5 PUSH2 0x1B68 JUMP JUMPDEST PUSH2 0x1C89 JUMP JUMPDEST PUSH2 0x1B68 JUMP JUMPDEST SWAP1 POP SWAP2 SWAP1 POP JUMP JUMPDEST PUSH1 0x0 PUSH2 0x1CC0 DUP3 PUSH2 0x1C93 JUMP JUMPDEST SWAP1 POP SWAP2 SWAP1 POP JUMP JUMPDEST PUSH1 0x0 PUSH2 0x1CD2 DUP3 PUSH2 0x1CB5 JUMP JUMPDEST SWAP1 POP SWAP2 SWAP1 POP JUMP JUMPDEST PUSH2 0x1CE2 DUP2 PUSH2 0x1CC7 JUMP JUMPDEST DUP3 MSTORE POP POP JUMP JUMPDEST PUSH1 0x0 PUSH1 0x20 DUP3 ADD SWAP1 POP PUSH2 0x1CFD PUSH1 0x0 DUP4 ADD DUP5 PUSH2 0x1CD9 JUMP JUMPDEST SWAP3 SWAP2 POP POP JUMP JUMPDEST PUSH2 0x1D0C DUP2 PUSH2 0x1B05 JUMP JUMPDEST DUP3 MSTORE POP POP JUMP JUMPDEST PUSH2 0x1D1B DUP2 PUSH2 0x1B88 JUMP JUMPDEST DUP3 MSTORE POP POP JUMP JUMPDEST PUSH32 0x4E487B7100000000000000000000000000000000000000000000000000000000 PUSH1 0x0 MSTORE PUSH1 0x21 PUSH1 0x4 MSTORE PUSH1 0x24 PUSH1 0x0 REVERT JUMPDEST PUSH1 0x2 DUP2 LT PUSH2 0x1D61 JUMPI PUSH2 0x1D60 PUSH2 0x1D21 JUMP JUMPDEST JUMPDEST POP JUMP JUMPDEST PUSH1 0x0 DUP2 SWAP1 POP PUSH2 0x1D72 DUP3 PUSH2 0x1D50 JUMP JUMPDEST SWAP2 SWAP1 POP JUMP JUMPDEST PUSH1 0x0 PUSH2 0x1D82 DUP3 PUSH2 0x1D64 JUMP JUMPDEST SWAP1 POP SWAP2 SWAP1 POP JUMP JUMPDEST PUSH2 0x1D92 DUP2 PUSH2 0x1D77 JUMP JUMPDEST DUP3 MSTORE POP POP JUMP JUMPDEST PUSH1 0x0 PUSH1 0xC0 DUP3 ADD SWAP1 POP PUSH2 0x1DAD PUSH1 0x0 DUP4 ADD DUP10 PUSH2 0x1D03 JUMP JUMPDEST PUSH2 0x1DBA PUSH1 0x20 DUP4 ADD DUP9 PUSH2 0x1D03 JUMP JUMPDEST PUSH2 0x1DC7 PUSH1 0x40 DUP4 ADD DUP8 PUSH2 0x1D12 JUMP JUMPDEST PUSH2 0x1DD4 PUSH1 0x60 DUP4 ADD DUP7 PUSH2 0x1D12 JUMP JUMPDEST PUSH2 0x1DE1 PUSH1 0x80 DUP4 ADD DUP6 PUSH2 0x1D03 JUMP JUMPDEST PUSH2 0x1DEE PUSH1 0xA0 DUP4 ADD DUP5 PUSH2 0x1D89 JUMP JUMPDEST SWAP8 SWAP7 POP POP POP POP POP POP POP JUMP JUMPDEST PUSH1 0x0 DUP1 PUSH1 0x40 DUP4 DUP6 SUB SLT ISZERO PUSH2 0x1E10 JUMPI PUSH2 0x1E0F PUSH2 0x1AFB JUMP JUMPDEST JUMPDEST PUSH1 0x0 PUSH2 0x1E1E DUP6 DUP3 DUP7 ADD PUSH2 0x1BB1 JUMP JUMPDEST SWAP3 POP POP PUSH1 0x20 PUSH2 0x1E2F DUP6 DUP3 DUP7 ADD PUSH2 0x1B26 JUMP JUMPDEST SWAP2 POP POP SWAP3 POP SWAP3 SWAP1 POP JUMP JUMPDEST PUSH1 0x0 PUSH1 0xFF DUP3 AND SWAP1 POP SWAP2 SWAP1 POP JUMP JUMPDEST PUSH2 0x1E4F DUP2 PUSH2 0x1E39 JUMP JUMPDEST DUP3 MSTORE POP POP JUMP JUMPDEST PUSH1 0x0 PUSH1 0x20 DUP3 ADD SWAP1 POP PUSH2 0x1E6A PUSH1 0x0 DUP4 ADD DUP5 PUSH2 0x1E46 JUMP JUMPDEST SWAP3 SWAP2 POP POP JUMP JUMPDEST PUSH1 0x0 PUSH1 0x20 DUP3 ADD SWAP1 POP PUSH2 0x1E85 PUSH1 0x0 DUP4 ADD DUP5 PUSH2 0x1D12 JUMP JUMPDEST SWAP3 SWAP2 POP POP JUMP JUMPDEST PUSH1 0x0 PUSH2 0x1E96 DUP3 PUSH2 0x1CB5 JUMP JUMPDEST SWAP1 POP SWAP2 SWAP1 POP JUMP JUMPDEST PUSH2 0x1EA6 DUP2 PUSH2 0x1E8B JUMP JUMPDEST DUP3 MSTORE POP POP JUMP JUMPDEST PUSH1 0x0 PUSH1 0x20 DUP3 ADD SWAP1 POP PUSH2 0x1EC1 PUSH1 0x0 DUP4 ADD DUP5 PUSH2 0x1E9D JUMP JUMPDEST SWAP3 SWAP2 POP POP JUMP JUMPDEST PUSH2 0x1ED0 DUP2 PUSH2 0x1B05 JUMP JUMPDEST DUP3 MSTORE POP POP JUMP JUMPDEST PUSH2 0x1EDF DUP2 PUSH2 0x1B88 JUMP JUMPDEST DUP3 MSTORE POP POP JUMP JUMPDEST PUSH2 0x1EEE DUP2 PUSH2 0x1D77 JUMP JUMPDEST DUP3 MSTORE POP POP JUMP JUMPDEST PUSH1 0xC0 DUP3 ADD PUSH1 0x0 DUP3 ADD MLOAD PUSH2 0x1F0A PUSH1 0x0 DUP6 ADD DUP3 PUSH2 0x1EC7 JUMP JUMPDEST POP PUSH1 0x20 DUP3 ADD MLOAD PUSH2 0x1F1D PUSH1 0x20 DUP6 ADD DUP3 PUSH2 0x1EC7 JUMP JUMPDEST POP PUSH1 0x40 DUP3 ADD MLOAD PUSH2 0x1F30 PUSH1 0x40 DUP6 ADD DUP3 PUSH2 0x1ED6 JUMP JUMPDEST POP PUSH1 0x60 DUP3 ADD MLOAD PUSH2 0x1F43 PUSH1 0x60 DUP6 ADD DUP3 PUSH2 0x1ED6 JUMP JUMPDEST POP PUSH1 0x80 DUP3 ADD MLOAD PUSH2 0x1F56 PUSH1 0x80 DUP6 ADD DUP3 PUSH2 0x1EC7 JUMP JUMPDEST POP PUSH1 0xA0 DUP3 ADD MLOAD PUSH2 0x1F69 PUSH1 0xA0 DUP6 ADD DUP3 PUSH2 0x1EE5 JUMP JUMPDEST POP POP POP POP JUMP JUMPDEST PUSH1 0x0 PUSH1 0xC0 DUP3 ADD SWAP1 POP PUSH2 0x1F84 PUSH1 0x0 DUP4 ADD DUP5 PUSH2 0x1EF4 JUMP JUMPDEST SWAP3 SWAP2 POP POP JUMP JUMPDEST PUSH1 0x0 PUSH1 0x20 DUP3 ADD SWAP1 POP PUSH2 0x1F9F PUSH1 0x0 DUP4 ADD DUP5 PUSH2 0x1D03 JUMP JUMPDEST SWAP3 SWAP2 POP POP JUMP JUMPDEST PUSH1 0x0 PUSH2 0x1FB0 DUP3 PUSH2 0x1CB5 JUMP JUMPDEST SWAP1 POP SWAP2 SWAP1 POP JUMP JUMPDEST PUSH2 0x1FC0 DUP2 PUSH2 0x1FA5 JUMP JUMPDEST DUP3 MSTORE POP POP JUMP JUMPDEST PUSH1 0x0 PUSH1 0x20 DUP3 ADD SWAP1 POP PUSH2 0x1FDB PUSH1 0x0 DUP4 ADD DUP5 PUSH2 0x1FB7 JUMP JUMPDEST SWAP3 SWAP2 POP POP JUMP JUMPDEST PUSH1 0x0 DUP3 DUP3 MSTORE PUSH1 0x20 DUP3 ADD SWAP1 POP SWAP3 SWAP2 POP POP JUMP JUMPDEST PUSH32 0x4173736574206E6F74207075626C697368656400000000000000000000000000 PUSH1 0x0 DUP3 ADD MSTORE POP JUMP JUMPDEST PUSH1 0x0 PUSH2 0x2028 PUSH1 0x13 DUP4 PUSH2 0x1FE1 JUMP JUMPDEST SWAP2 POP PUSH2 0x2033 DUP3 PUSH2 0x1FF2 JUMP JUMPDEST PUSH1 0x20 DUP3 ADD SWAP1 POP SWAP2 SWAP1 POP JUMP JUMPDEST PUSH1 0x0 PUSH1 0x20 DUP3 ADD SWAP1 POP DUP2 DUP2 SUB PUSH1 0x0 DUP4 ADD MSTORE PUSH2 0x2057 DUP2 PUSH2 0x201B JUMP JUMPDEST SWAP1 POP SWAP2 SWAP1 POP JUMP JUMPDEST PUSH32 0x41737365742064656C6973746564000000000000000000000000000000000000 PUSH1 0x0 DUP3 ADD MSTORE POP JUMP JUMPDEST PUSH1 0x0 PUSH2 0x2094 PUSH1 0xE DUP4 PUSH2 0x1FE1 JUMP JUMPDEST SWAP2 POP PUSH2 0x209F DUP3 PUSH2 0x205E JUMP JUMPDEST PUSH1 0x20 DUP3 ADD SWAP1 POP SWAP2 SWAP1 POP JUMP JUMPDEST PUSH1 0x0 PUSH1 0x20 DUP3 ADD SWAP1 POP DUP2 DUP2 SUB PUSH1 0x0 DUP4 ADD MSTORE PUSH2 0x20C3 DUP2 PUSH2 0x2087 JUMP JUMPDEST SWAP1 POP SWAP2 SWAP1 POP JUMP JUMPDEST PUSH32 0x496E76616C696420616464726573730000000000000000000000000000000000 PUSH1 0x0 DUP3 ADD MSTORE POP JUMP JUMPDEST PUSH1 0x0 PUSH2 0x2100 PUSH1 0xF DUP4 PUSH2 0x1FE1 JUMP JUMPDEST SWAP2 POP PUSH2 0x210B DUP3 PUSH2 0x20CA JUMP JUMPDEST PUSH1 0x20 DUP3 ADD SWAP1 POP SWAP2 SWAP1 POP JUMP JUMPDEST PUSH1 0x0 PUSH1 0x20 DUP3 ADD SWAP1 POP DUP2 DUP2 SUB PUSH1 0x0 DUP4 ADD MSTORE PUSH2 0x212F DUP2 PUSH2 0x20F3 JUMP JUMPDEST SWAP1 POP SWAP2 SWAP1 POP JUMP JUMPDEST PUSH32 0x4F6E6C792073656C6C65722063616E2064656C69737400000000000000000000 PUSH1 0x0 DUP3 ADD MSTORE POP JUMP JUMPDEST PUSH1 0x0 PUSH2 0x216C PUSH1 0x16 DUP4 PUSH2 0x1FE1 JUMP JUMPDEST SWAP2 POP PUSH2 0x2177 DUP3 PUSH2 0x2136 JUMP JUMPDEST PUSH1 0x20 DUP3 ADD SWAP1 POP SWAP2 SWAP1 POP JUMP JUMPDEST PUSH1 0x0 PUSH1 0x20 DUP3 ADD SWAP1 POP DUP2 DUP2 SUB PUSH1 0x0 DUP4 ADD MSTORE PUSH2 0x219B DUP2 PUSH2 0x215F JUMP JUMPDEST SWAP1 POP SWAP2 SWAP1 POP JUMP JUMPDEST PUSH1 0x0 PUSH1 0x60 DUP3 ADD SWAP1 POP PUSH2 0x21B7 PUSH1 0x0 DUP4 ADD DUP7 PUSH2 0x1D12 JUMP JUMPDEST PUSH2 0x21C4 PUSH1 0x20 DUP4 ADD DUP6 PUSH2 0x1D12 JUMP JUMPDEST PUSH2 0x21D1 PUSH1 0x40 DUP4 ADD DUP5 PUSH2 0x1D03 JUMP JUMPDEST SWAP5 SWAP4 POP POP POP POP JUMP JUMPDEST PUSH1 0x0 PUSH1 0x40 DUP3 ADD SWAP1 POP PUSH2 0x21EE PUSH1 0x0 DUP4 ADD DUP6 PUSH2 0x1D03 JUMP JUMPDEST PUSH2 0x21FB PUSH1 0x20 DUP4 ADD DUP5 PUSH2 0x1D03 JUMP JUMPDEST SWAP4 SWAP3 POP POP POP JUMP JUMPDEST PUSH32 0x4F776E61626C653A2063616C6C6572206973206E6F7420746865206F776E6572 PUSH1 0x0 DUP3 ADD MSTORE POP JUMP JUMPDEST PUSH1 0x0 PUSH2 0x2238 PUSH1 0x20 DUP4 PUSH2 0x1FE1 JUMP JUMPDEST SWAP2 POP PUSH2 0x2243 DUP3 PUSH2 0x2202 JUMP JUMPDEST PUSH1 0x20 DUP3 ADD SWAP1 POP SWAP2 SWAP1 POP JUMP JUMPDEST PUSH1 0x0 PUSH1 0x20 DUP3 ADD SWAP1 POP DUP2 DUP2 SUB PUSH1 0x0 DUP4 ADD MSTORE PUSH2 0x2267 DUP2 PUSH2 0x222B JUMP JUMPDEST SWAP1 POP SWAP2 SWAP1 POP JUMP JUMPDEST PUSH32 0x5265656E7472616E637947756172643A207265656E7472616E742063616C6C00 PUSH1 0x0 DUP3 ADD MSTORE POP JUMP JUMPDEST PUSH1 0x0 PUSH2 0x22A4 PUSH1 0x1F DUP4 PUSH2 0x1FE1 JUMP JUMPDEST SWAP2 POP PUSH2 0x22AF DUP3 PUSH2 0x226E JUMP JUMPDEST PUSH1 0x20 DUP3 ADD SWAP1 POP SWAP2 SWAP1 POP JUMP JUMPDEST PUSH1 0x0 PUSH1 0x20 DUP3 ADD SWAP1 POP DUP2 DUP2 SUB PUSH1 0x0 DUP4 ADD MSTORE PUSH2 0x22D3 DUP2 PUSH2 0x2297 JUMP JUMPDEST SWAP1 POP SWAP2 SWAP1 POP JUMP JUMPDEST PUSH32 0x5072696365206D757374206265206174206C6561737420312077656900000000 PUSH1 0x0 DUP3 ADD MSTORE POP JUMP JUMPDEST PUSH1 0x0 PUSH2 0x2310 PUSH1 0x1C DUP4 PUSH2 0x1FE1 JUMP JUMPDEST SWAP2 POP PUSH2 0x231B DUP3 PUSH2 0x22DA JUMP JUMPDEST PUSH1 0x20 DUP3 ADD SWAP1 POP SWAP2 SWAP1 POP JUMP JUMPDEST PUSH1 0x0 PUSH1 0x20 DUP3 ADD SWAP1 POP DUP2 DUP2 SUB PUSH1 0x0 DUP4 ADD MSTORE PUSH2 0x233F DUP2 PUSH2 0x2303 JUMP JUMPDEST SWAP1 POP SWAP2 SWAP1 POP JUMP JUMPDEST PUSH1 0x0 DUP1 REVERT JUMPDEST PUSH1 0x0 PUSH1 0x1F NOT PUSH1 0x1F DUP4 ADD AND SWAP1 POP SWAP2 SWAP1 POP JUMP JUMPDEST PUSH32 0x4E487B7100000000000000000000000000000000000000000000000000000000 PUSH1 0x0 MSTORE PUSH1 0x41 PUSH1 0x4 MSTORE PUSH1 0x24 PUSH1 0x0 REVERT JUMPDEST PUSH2 0x2394 DUP3 PUSH2 0x234B JUMP JUMPDEST DUP2 ADD DUP2 DUP2 LT PUSH8 0xFFFFFFFFFFFFFFFF DUP3 GT OR ISZERO PUSH2 0x23B3 JUMPI PUSH2 0x23B2 PUSH2 0x235C JUMP JUMPDEST JUMPDEST DUP1 PUSH1 0x40 MSTORE POP POP POP JUMP JUMPDEST PUSH1 0x0 PUSH2 0x23C6 PUSH2 0x1AF1 JUMP JUMPDEST SWAP1 POP PUSH2 0x23D2 DUP3 DUP3 PUSH2 0x238B JUMP JUMPDEST SWAP2 SWAP1 POP JUMP JUMPDEST PUSH1 0x0 DUP1 REVERT JUMPDEST PUSH1 0x0 DUP2 MLOAD SWAP1 POP PUSH2 0x23EB DUP2 PUSH2 0x1B0F JUMP JUMPDEST SWAP3 SWAP2 POP POP JUMP JUMPDEST PUSH1 0x0 DUP2 MLOAD SWAP1 POP PUSH2 0x2400 DUP2 PUSH2 0x1B9A JUMP JUMPDEST SWAP3 SWAP2 POP POP JUMP JUMPDEST PUSH1 0x0 DUP1 REVERT JUMPDEST PUSH1 0x0 DUP1 REVERT JUMPDEST PUSH1 0x0 PUSH8 0xFFFFFFFFFFFFFFFF DUP3 GT ISZERO PUSH2 0x242B JUMPI PUSH2 0x242A PUSH2 0x235C JUMP JUMPDEST JUMPDEST PUSH2 0x2434 DUP3 PUSH2 0x234B JUMP JUMPDEST SWAP1 POP PUSH1 0x20 DUP2 ADD SWAP1 POP SWAP2 SWAP1 POP JUMP JUMPDEST PUSH1 0x0 JUMPDEST DUP4 DUP2 LT ISZERO PUSH2 0x245F JUMPI DUP1 DUP3 ADD MLOAD DUP2 DUP5 ADD MSTORE PUSH1 0x20 DUP2 ADD SWAP1 POP PUSH2 0x2444 JUMP JUMPDEST DUP4 DUP2 GT ISZERO PUSH2 0x246E JUMPI PUSH1 0x0 DUP5 DUP5 ADD MSTORE JUMPDEST POP POP POP POP JUMP JUMPDEST PUSH1 0x0 PUSH2 0x2487 PUSH2 0x2482 DUP5 PUSH2 0x2410 JUMP JUMPDEST PUSH2 0x23BC JUMP JUMPDEST SWAP1 POP DUP3 DUP2 MSTORE PUSH1 0x20 DUP2 ADD DUP5 DUP5 DUP5 ADD GT ISZERO PUSH2 0x24A3 JUMPI PUSH2 0x24A2 PUSH2 0x240B JUMP JUMPDEST JUMPDEST PUSH2 0x24AE DUP5 DUP3 DUP6 PUSH2 0x2441 JUMP JUMPDEST POP SWAP4 SWAP3 POP POP POP JUMP JUMPDEST PUSH1 0x0 DUP3 PUSH1 0x1F DUP4 ADD SLT PUSH2 0x24CB JUMPI PUSH2 0x24CA PUSH2 0x2406 JUMP JUMPDEST JUMPDEST DUP2 MLOAD PUSH2 0x24DB DUP5 DUP3 PUSH1 0x20 DUP7 ADD PUSH2 0x2474 JUMP JUMPDEST SWAP2 POP POP SWAP3 SWAP2 POP POP JUMP JUMPDEST PUSH1 0x0 DUP2 ISZERO ISZERO SWAP1 POP SWAP2 SWAP1 POP JUMP JUMPDEST PUSH2 0x24F9 DUP2 PUSH2 0x24E4 JUMP JUMPDEST DUP2 EQ PUSH2 0x2504 JUMPI PUSH1 0x0 DUP1 REVERT JUMPDEST POP JUMP JUMPDEST PUSH1 0x0 DUP2 MLOAD SWAP1 POP PUSH2 0x2516 DUP2 PUSH2 0x24F0 JUMP JUMPDEST SWAP3 SWAP2 POP POP JUMP JUMPDEST PUSH1 0x0 PUSH1 0xA0 DUP3 DUP5 SUB SLT ISZERO PUSH2 0x2532 JUMPI PUSH2 0x2531 PUSH2 0x2346 JUMP JUMPDEST JUMPDEST PUSH2 0x253C PUSH1 0xA0 PUSH2 0x23BC JUMP JUMPDEST SWAP1 POP PUSH1 0x0 PUSH2 0x254C DUP5 DUP3 DUP6 ADD PUSH2 0x23DC JUMP JUMPDEST PUSH1 0x0 DUP4 ADD MSTORE POP PUSH1 0x20 PUSH2 0x2560 DUP5 DUP3 DUP6 ADD PUSH2 0x23F1 JUMP JUMPDEST PUSH1 0x20 DUP4 ADD MSTORE POP PUSH1 0x40 DUP3 ADD MLOAD PUSH8 0xFFFFFFFFFFFFFFFF DUP2 GT ISZERO PUSH2 0x2584 JUMPI PUSH2 0x2583 PUSH2 0x23D7 JUMP JUMPDEST JUMPDEST PUSH2 0x2590 DUP5 DUP3 DUP6 ADD PUSH2 0x24B6 JUMP JUMPDEST PUSH1 0x40 DUP4 ADD MSTORE POP PUSH1 0x60 DUP3 ADD MLOAD PUSH8 0xFFFFFFFFFFFFFFFF DUP2 GT ISZERO PUSH2 0x25B4 JUMPI PUSH2 0x25B3 PUSH2 0x23D7 JUMP JUMPDEST JUMPDEST PUSH2 0x25C0 DUP5 DUP3 DUP6 ADD PUSH2 0x24B6 JUMP JUMPDEST PUSH1 0x60 DUP4 ADD MSTORE POP PUSH1 0x80 PUSH2 0x25D4 DUP5 DUP3 DUP6 ADD PUSH2 0x2507 JUMP JUMPDEST PUSH1 0x80 DUP4 ADD MSTORE POP SWAP3 SWAP2 POP POP JUMP JUMPDEST PUSH1 0x0 PUSH1 0x20 DUP3 DUP5 SUB SLT ISZERO PUSH2 0x25F6 JUMPI PUSH2 0x25F5 PUSH2 0x1AFB JUMP JUMPDEST JUMPDEST PUSH1 0x0 DUP3 ADD MLOAD PUSH8 0xFFFFFFFFFFFFFFFF DUP2 GT ISZERO PUSH2 0x2614 JUMPI PUSH2 0x2613 PUSH2 0x1B00 JUMP JUMPDEST JUMPDEST PUSH2 0x2620 DUP5 DUP3 DUP6 ADD PUSH2 0x251C JUMP JUMPDEST SWAP2 POP POP SWAP3 SWAP2 POP POP JUMP JUMPDEST PUSH32 0x4974656D206973206E6F7420617661696C61626C65206E6F7720210000000000 PUSH1 0x0 DUP3 ADD MSTORE POP JUMP JUMPDEST PUSH1 0x0 PUSH2 0x265F PUSH1 0x1B DUP4 PUSH2 0x1FE1 JUMP JUMPDEST SWAP2 POP PUSH2 0x266A DUP3 PUSH2 0x2629 JUMP JUMPDEST PUSH1 0x20 DUP3 ADD SWAP1 POP SWAP2 SWAP1 POP JUMP JUMPDEST PUSH1 0x0 PUSH1 0x20 DUP3 ADD SWAP1 POP DUP2 DUP2 SUB PUSH1 0x0 DUP4 ADD MSTORE PUSH2 0x268E DUP2 PUSH2 0x2652 JUMP JUMPDEST SWAP1 POP SWAP2 SWAP1 POP JUMP JUMPDEST PUSH1 0x0 PUSH2 0x26A0 DUP3 PUSH2 0x1CB5 JUMP JUMPDEST SWAP1 POP SWAP2 SWAP1 POP JUMP JUMPDEST PUSH2 0x26B0 DUP2 PUSH2 0x2695 JUMP JUMPDEST DUP3 MSTORE POP POP JUMP JUMPDEST PUSH1 0x0 PUSH1 0x60 DUP3 ADD SWAP1 POP PUSH2 0x26CB PUSH1 0x0 DUP4 ADD DUP7 PUSH2 0x26A7 JUMP JUMPDEST PUSH2 0x26D8 PUSH1 0x20 DUP4 ADD DUP6 PUSH2 0x1D12 JUMP JUMPDEST PUSH2 0x26E5 PUSH1 0x40 DUP4 ADD DUP5 PUSH2 0x1D03 JUMP JUMPDEST SWAP5 SWAP4 POP POP POP POP JUMP JUMPDEST PUSH32 0x506C65617365207375626D6974207468652061736B696E672070726963652069 PUSH1 0x0 DUP3 ADD MSTORE PUSH32 0x6E206F7264657220746F20636F6D706C65746520746865207075726368617365 PUSH1 0x20 DUP3 ADD MSTORE POP JUMP JUMPDEST PUSH1 0x0 PUSH2 0x2749 PUSH1 0x40 DUP4 PUSH2 0x1FE1 JUMP JUMPDEST SWAP2 POP PUSH2 0x2754 DUP3 PUSH2 0x26ED JUMP JUMPDEST PUSH1 0x40 DUP3 ADD SWAP1 POP SWAP2 SWAP1 POP JUMP JUMPDEST PUSH1 0x0 PUSH1 0x20 DUP3 ADD SWAP1 POP DUP2 DUP2 SUB PUSH1 0x0 DUP4 ADD MSTORE PUSH2 0x2778 DUP2 PUSH2 0x273C JUMP JUMPDEST SWAP1 POP SWAP2 SWAP1 POP JUMP JUMPDEST PUSH32 0x5351460000000000000000000000000000000000000000000000000000000000 PUSH1 0x0 DUP3 ADD MSTORE POP JUMP JUMPDEST PUSH1 0x0 PUSH2 0x27B5 PUSH1 0x3 DUP4 PUSH2 0x1FE1 JUMP JUMPDEST SWAP2 POP PUSH2 0x27C0 DUP3 PUSH2 0x277F JUMP JUMPDEST PUSH1 0x20 DUP3 ADD SWAP1 POP SWAP2 SWAP1 POP JUMP JUMPDEST PUSH1 0x0 PUSH1 0x80 DUP3 ADD SWAP1 POP PUSH2 0x27E0 PUSH1 0x0 DUP4 ADD DUP7 PUSH2 0x1D03 JUMP JUMPDEST PUSH2 0x27ED PUSH1 0x20 DUP4 ADD DUP6 PUSH2 0x1D03 JUMP JUMPDEST DUP2 DUP2 SUB PUSH1 0x40 DUP4 ADD MSTORE PUSH2 0x27FE DUP2 PUSH2 0x27A8 JUMP JUMPDEST SWAP1 POP PUSH2 0x280D PUSH1 0x60 DUP4 ADD DUP5 PUSH2 0x1D03 JUMP JUMPDEST SWAP5 SWAP4 POP POP POP POP JUMP JUMPDEST PUSH32 0x4F776E61626C653A206E6577206F776E657220697320746865207A65726F2061 PUSH1 0x0 DUP3 ADD MSTORE PUSH32 0x6464726573730000000000000000000000000000000000000000000000000000 PUSH1 0x20 DUP3 ADD MSTORE POP JUMP JUMPDEST PUSH1 0x0 PUSH2 0x2871 PUSH1 0x26 DUP4 PUSH2 0x1FE1 JUMP JUMPDEST SWAP2 POP PUSH2 0x287C DUP3 PUSH2 0x2815 JUMP JUMPDEST PUSH1 0x40 DUP3 ADD SWAP1 POP SWAP2 SWAP1 POP JUMP JUMPDEST PUSH1 0x0 PUSH1 0x20 DUP3 ADD SWAP1 POP DUP2 DUP2 SUB PUSH1 0x0 DUP4 ADD MSTORE PUSH2 0x28A0 DUP2 PUSH2 0x2864 JUMP JUMPDEST SWAP1 POP SWAP2 SWAP1 POP JUMP JUMPDEST PUSH1 0x0 PUSH1 0x20 DUP3 DUP5 SUB SLT ISZERO PUSH2 0x28BD JUMPI PUSH2 0x28BC PUSH2 0x1AFB JUMP JUMPDEST JUMPDEST PUSH1 0x0 PUSH2 0x28CB DUP5 DUP3 DUP6 ADD PUSH2 0x2507 JUMP JUMPDEST SWAP2 POP POP SWAP3 SWAP2 POP POP JUMP INVALID LOG2 PUSH5 0x6970667358 0x22 SLT KECCAK256 OR SWAP2 0xE 0x2A 0xF6 0xE7 0x2C CALLVALUE PUSH22 0xAABBCF2AB462725C7BD59791085A0302017C105DBF99 0xBB PUSH5 0x736F6C6343 STOP ADDMOD 0xD STOP CALLER "
				},
				"gasEstimates": {
					"creation": {
						"codeDepositCost": "2101200",
						"executionCost": "infinite",
						"totalCost": "infinite"
					},
					"external": {
						"ERC721_Interface()": "431",
						"allItems(uint256)": "infinite",
						"allMarketItems()": "infinite",
						"antaFeePercent()": "2610",
						"bnbFeePercent()": "2544",
						"createMarketItem(uint256,uint256)": "infinite",
						"createMarketSale(uint256,uint256)": "infinite",
						"currentId()": "2530",
						"delistItem(uint256)": "infinite",
						"factory()": "infinite",
						"getMarketItem(uint256)": "infinite",
						"items(address,uint256)": "infinite",
						"mainNFTs()": "infinite",
						"mainToken()": "infinite",
						"owner()": "2567",
						"renounceOwnership()": "30485",
						"setFactory(address)": "27029",
						"setMainNFT(address)": "27008",
						"setMainToken(address)": "27030",
						"transferOwnership(address)": "30786"
					},
					"internal": {
						"_requireERC721(address)": "infinite",
						"_safeBuyItem(uint256,uint256,uint256)": "infinite",
						"_safeTransferToMarket(uint256)": "infinite",
						"isContract(address)": "infinite"
					}
				},
				"methodIdentifiers": {
					"ERC721_Interface()": "2b4c32be",
					"allItems(uint256)": "ff68fa6e",
					"allMarketItems()": "517bd451",
					"antaFeePercent()": "b7a60c7e",
					"bnbFeePercent()": "85a8b36c",
					"createMarketItem(uint256,uint256)": "361c1995",
					"createMarketSale(uint256,uint256)": "a1c11ca8",
					"currentId()": "e00dd161",
					"delistItem(uint256)": "10061631",
					"factory()": "c45a0155",
					"getMarketItem(uint256)": "c7be7a49",
					"items(address,uint256)": "5c80a435",
					"mainNFTs()": "f55de0c7",
					"mainToken()": "3fc15f15",
					"owner()": "8da5cb5b",
					"renounceOwnership()": "715018a6",
					"setFactory(address)": "5bb47808",
					"setMainNFT(address)": "15b12494",
					"setMainToken(address)": "27ce464e",
					"transferOwnership(address)": "f2fde38b"
				}
			},
			"storageLayout": {
				"storage": [
					{
						"astId": 409,
						"contract": "contracts/Marketplace2/Marketplace.sol:NFTMarket",
						"label": "_status",
						"offset": 0,
						"slot": "0",
						"type": "t_uint256"
					},
					{
						"astId": 499,
						"contract": "contracts/Marketplace2/Marketplace.sol:NFTMarket",
						"label": "allMarketItems",
						"offset": 0,
						"slot": "1",
						"type": "t_struct(MarketItem)496_storage"
					},
					{
						"astId": 510,
						"contract": "contracts/Marketplace2/Marketplace.sol:NFTMarket",
						"label": "allItems",
						"offset": 0,
						"slot": "7",
						"type": "t_mapping(t_uint256,t_struct(MarketItem)496_storage)"
					},
					{
						"astId": 517,
						"contract": "contracts/Marketplace2/Marketplace.sol:NFTMarket",
						"label": "items",
						"offset": 0,
						"slot": "8",
						"type": "t_mapping(t_address,t_mapping(t_uint256,t_struct(MarketItem)496_storage))"
					},
					{
						"astId": 520,
						"contract": "contracts/Marketplace2/Marketplace.sol:NFTMarket",
						"label": "mainToken",
						"offset": 0,
						"slot": "9",
						"type": "t_contract(IERC20)201"
					},
					{
						"astId": 523,
						"contract": "contracts/Marketplace2/Marketplace.sol:NFTMarket",
						"label": "factory",
						"offset": 0,
						"slot": "10",
						"type": "t_contract(IFactory)478"
					},
					{
						"astId": 526,
						"contract": "contracts/Marketplace2/Marketplace.sol:NFTMarket",
						"label": "mainNFTs",
						"offset": 0,
						"slot": "11",
						"type": "t_contract(IERC721)326"
					},
					{
						"astId": 528,
						"contract": "contracts/Marketplace2/Marketplace.sol:NFTMarket",
						"label": "bnbFeePercent",
						"offset": 20,
						"slot": "11",
						"type": "t_uint8"
					},
					{
						"astId": 530,
						"contract": "contracts/Marketplace2/Marketplace.sol:NFTMarket",
						"label": "antaFeePercent",
						"offset": 21,
						"slot": "11",
						"type": "t_uint8"
					},
					{
						"astId": 27,
						"contract": "contracts/Marketplace2/Marketplace.sol:NFTMarket",
						"label": "_owner",
						"offset": 0,
						"slot": "12",
						"type": "t_address"
					},
					{
						"astId": 598,
						"contract": "contracts/Marketplace2/Marketplace.sol:NFTMarket",
						"label": "_itemIds",
						"offset": 0,
						"slot": "13",
						"type": "t_struct(Counter)331_storage"
					},
					{
						"astId": 601,
						"contract": "contracts/Marketplace2/Marketplace.sol:NFTMarket",
						"label": "_itemsSold",
						"offset": 0,
						"slot": "14",
						"type": "t_struct(Counter)331_storage"
					},
					{
						"astId": 606,
						"contract": "contracts/Marketplace2/Marketplace.sol:NFTMarket",
						"label": "idToMarketItem",
						"offset": 0,
						"slot": "15",
						"type": "t_mapping(t_uint256,t_struct(MarketItem)496_storage)"
					}
				],
				"types": {
					"t_address": {
						"encoding": "inplace",
						"label": "address",
						"numberOfBytes": "20"
					},
					"t_contract(IERC20)201": {
						"encoding": "inplace",
						"label": "contract IERC20",
						"numberOfBytes": "20"
					},
					"t_contract(IERC721)326": {
						"encoding": "inplace",
						"label": "contract IERC721",
						"numberOfBytes": "20"
					},
					"t_contract(IFactory)478": {
						"encoding": "inplace",
						"label": "contract IFactory",
						"numberOfBytes": "20"
					},
					"t_enum(ItemStatus)482": {
						"encoding": "inplace",
						"label": "enum MarketplaceStorage.ItemStatus",
						"numberOfBytes": "1"
					},
					"t_mapping(t_address,t_mapping(t_uint256,t_struct(MarketItem)496_storage))": {
						"encoding": "mapping",
						"key": "t_address",
						"label": "mapping(address => mapping(uint256 => struct MarketplaceStorage.MarketItem))",
						"numberOfBytes": "32",
						"value": "t_mapping(t_uint256,t_struct(MarketItem)496_storage)"
					},
					"t_mapping(t_uint256,t_struct(MarketItem)496_storage)": {
						"encoding": "mapping",
						"key": "t_uint256",
						"label": "mapping(uint256 => struct MarketplaceStorage.MarketItem)",
						"numberOfBytes": "32",
						"value": "t_struct(MarketItem)496_storage"
					},
					"t_struct(Counter)331_storage": {
						"encoding": "inplace",
						"label": "struct Counters.Counter",
						"members": [
							{
								"astId": 330,
								"contract": "contracts/Marketplace2/Marketplace.sol:NFTMarket",
								"label": "_value",
								"offset": 0,
								"slot": "0",
								"type": "t_uint256"
							}
						],
						"numberOfBytes": "32"
					},
					"t_struct(MarketItem)496_storage": {
						"encoding": "inplace",
						"label": "struct MarketplaceStorage.MarketItem",
						"members": [
							{
								"astId": 484,
								"contract": "contracts/Marketplace2/Marketplace.sol:NFTMarket",
								"label": "itemId",
								"offset": 0,
								"slot": "0",
								"type": "t_uint256"
							},
							{
								"astId": 486,
								"contract": "contracts/Marketplace2/Marketplace.sol:NFTMarket",
								"label": "tokenId",
								"offset": 0,
								"slot": "1",
								"type": "t_uint256"
							},
							{
								"astId": 488,
								"contract": "contracts/Marketplace2/Marketplace.sol:NFTMarket",
								"label": "seller",
								"offset": 0,
								"slot": "2",
								"type": "t_address"
							},
							{
								"astId": 490,
								"contract": "contracts/Marketplace2/Marketplace.sol:NFTMarket",
								"label": "owner",
								"offset": 0,
								"slot": "3",
								"type": "t_address"
							},
							{
								"astId": 492,
								"contract": "contracts/Marketplace2/Marketplace.sol:NFTMarket",
								"label": "price",
								"offset": 0,
								"slot": "4",
								"type": "t_uint256"
							},
							{
								"astId": 495,
								"contract": "contracts/Marketplace2/Marketplace.sol:NFTMarket",
								"label": "status",
								"offset": 0,
								"slot": "5",
								"type": "t_enum(ItemStatus)482"
							}
						],
						"numberOfBytes": "192"
					},
					"t_uint256": {
						"encoding": "inplace",
						"label": "uint256",
						"numberOfBytes": "32"
					},
					"t_uint8": {
						"encoding": "inplace",
						"label": "uint8",
						"numberOfBytes": "1"
					}
				}
			},
			"userdoc": {
				"kind": "user",
				"methods": {},
				"version": 1
			}
		}
	}
}