{
	"contracts/Marketplace2/Marketplace.sol": {
		"MarketplaceStorage": {
			"abi": [
				{
					"anonymous": false,
					"inputs": [
						{
							"indexed": false,
							"internalType": "bytes32",
							"name": "id",
							"type": "bytes32"
						},
						{
							"indexed": true,
							"internalType": "uint256",
							"name": "assetId",
							"type": "uint256"
						},
						{
							"indexed": true,
							"internalType": "address",
							"name": "seller",
							"type": "address"
						},
						{
							"indexed": false,
							"internalType": "address",
							"name": "nftAddress",
							"type": "address"
						},
						{
							"indexed": false,
							"internalType": "uint256",
							"name": "price",
							"type": "uint256"
						},
						{
							"indexed": false,
							"internalType": "uint8",
							"name": "feePercent",
							"type": "uint8"
						},
						{
							"indexed": false,
							"internalType": "uint256",
							"name": "fee",
							"type": "uint256"
						},
						{
							"indexed": true,
							"internalType": "address",
							"name": "buyer",
							"type": "address"
						},
						{
							"indexed": false,
							"internalType": "string",
							"name": "currency",
							"type": "string"
						},
						{
							"indexed": false,
							"internalType": "uint256",
							"name": "createdAt",
							"type": "uint256"
						}
					],
					"name": "BuyItemSuccessful",
					"type": "event"
				},
				{
					"anonymous": false,
					"inputs": [
						{
							"indexed": true,
							"internalType": "address",
							"name": "receiver",
							"type": "address"
						},
						{
							"indexed": false,
							"internalType": "uint256",
							"name": "value",
							"type": "uint256"
						}
					],
					"name": "Claim",
					"type": "event"
				},
				{
					"anonymous": false,
					"inputs": [
						{
							"indexed": false,
							"internalType": "address",
							"name": "nftAddress",
							"type": "address"
						},
						{
							"indexed": false,
							"internalType": "bytes32",
							"name": "id",
							"type": "bytes32"
						},
						{
							"indexed": true,
							"internalType": "uint256",
							"name": "assetId",
							"type": "uint256"
						},
						{
							"indexed": true,
							"internalType": "address",
							"name": "delistBy",
							"type": "address"
						},
						{
							"indexed": false,
							"internalType": "uint256",
							"name": "createdAt",
							"type": "uint256"
						}
					],
					"name": "DelistItemSuccessful",
					"type": "event"
				},
				{
					"anonymous": false,
					"inputs": [
						{
							"indexed": false,
							"internalType": "address",
							"name": "nftAddress",
							"type": "address"
						},
						{
							"indexed": false,
							"internalType": "bytes32",
							"name": "id",
							"type": "bytes32"
						},
						{
							"indexed": true,
							"internalType": "uint256",
							"name": "assetId",
							"type": "uint256"
						},
						{
							"indexed": false,
							"internalType": "uint256",
							"name": "price",
							"type": "uint256"
						},
						{
							"indexed": true,
							"internalType": "address",
							"name": "seller",
							"type": "address"
						},
						{
							"indexed": false,
							"internalType": "string",
							"name": "currency",
							"type": "string"
						},
						{
							"indexed": false,
							"internalType": "uint256",
							"name": "createdAt",
							"type": "uint256"
						}
					],
					"name": "SellItemSuccessful",
					"type": "event"
				},
				{
					"inputs": [],
					"name": "ERC721_Interface",
					"outputs": [
						{
							"internalType": "bytes4",
							"name": "",
							"type": "bytes4"
						}
					],
					"stateMutability": "view",
					"type": "function"
				},
				{
					"inputs": [],
					"name": "antaFeePercent",
					"outputs": [
						{
							"internalType": "uint8",
							"name": "",
							"type": "uint8"
						}
					],
					"stateMutability": "view",
					"type": "function"
				},
				{
					"inputs": [],
					"name": "antaToken",
					"outputs": [
						{
							"internalType": "contract IERC20",
							"name": "",
							"type": "address"
						}
					],
					"stateMutability": "view",
					"type": "function"
				},
				{
					"inputs": [],
					"name": "bnbFeePercent",
					"outputs": [
						{
							"internalType": "uint8",
							"name": "",
							"type": "uint8"
						}
					],
					"stateMutability": "view",
					"type": "function"
				},
				{
					"inputs": [
						{
							"internalType": "address",
							"name": "",
							"type": "address"
						},
						{
							"internalType": "uint256",
							"name": "",
							"type": "uint256"
						},
						{
							"internalType": "address",
							"name": "",
							"type": "address"
						}
					],
					"name": "itemOffers",
					"outputs": [
						{
							"internalType": "bytes32",
							"name": "id",
							"type": "bytes32"
						},
						{
							"internalType": "uint256",
							"name": "offerPrice",
							"type": "uint256"
						}
					],
					"stateMutability": "view",
					"type": "function"
				},
				{
					"inputs": [
						{
							"internalType": "address",
							"name": "",
							"type": "address"
						},
						{
							"internalType": "uint256",
							"name": "",
							"type": "uint256"
						}
					],
					"name": "items",
					"outputs": [
						{
							"internalType": "bytes32",
							"name": "id",
							"type": "bytes32"
						},
						{
							"internalType": "address",
							"name": "seller",
							"type": "address"
						},
						{
							"internalType": "address",
							"name": "nftAddress",
							"type": "address"
						},
						{
							"internalType": "uint256",
							"name": "price",
							"type": "uint256"
						},
						{
							"internalType": "uint256",
							"name": "priceAnta",
							"type": "uint256"
						},
						{
							"internalType": "enum MarketplaceStorage.ItemStatus",
							"name": "status",
							"type": "uint8"
						}
					],
					"stateMutability": "view",
					"type": "function"
				}
			],
			"devdoc": {
				"kind": "dev",
				"methods": {},
				"version": 1
			},
			"evm": {
				"assembly": "    /* \"contracts/Marketplace2/Marketplace.sol\":15109:17003  contract MarketplaceStorage {... */\n  mstore(0x40, 0x80)\n  callvalue\n  dup1\n  iszero\n  tag_1\n  jumpi\n  0x00\n  dup1\n  revert\ntag_1:\n  pop\n  dataSize(sub_0)\n  dup1\n  dataOffset(sub_0)\n  0x00\n  codecopy\n  0x00\n  return\nstop\n\nsub_0: assembly {\n        /* \"contracts/Marketplace2/Marketplace.sol\":15109:17003  contract MarketplaceStorage {... */\n      mstore(0x40, 0x80)\n      callvalue\n      dup1\n      iszero\n      tag_1\n      jumpi\n      0x00\n      dup1\n      revert\n    tag_1:\n      pop\n      jumpi(tag_2, lt(calldatasize, 0x04))\n      shr(0xe0, calldataload(0x00))\n      dup1\n      0x2b4c32be\n      eq\n      tag_3\n      jumpi\n      dup1\n      0x49739678\n      eq\n      tag_4\n      jumpi\n      dup1\n      0x5c80a435\n      eq\n      tag_5\n      jumpi\n      dup1\n      0x85a8b36c\n      eq\n      tag_6\n      jumpi\n      dup1\n      0x92fc79fa\n      eq\n      tag_7\n      jumpi\n      dup1\n      0xb7a60c7e\n      eq\n      tag_8\n      jumpi\n    tag_2:\n      0x00\n      dup1\n      revert\n        /* \"contracts/Marketplace2/Marketplace.sol\":15771:15831  bytes4 public constant ERC721_Interface = bytes4(0x80ac58cd) */\n    tag_3:\n      tag_9\n      shl(0xe0, 0x80ac58cd)\n      dup2\n      jump\n    tag_9:\n      mload(0x40)\n      not(sub(shl(0xe0, 0x01), 0x01))\n        /* \"#utility.yul\":176:209   */\n      swap1\n      swap2\n      and\n        /* \"#utility.yul\":158:210   */\n      dup2\n      mstore\n        /* \"#utility.yul\":146:148   */\n      0x20\n        /* \"#utility.yul\":131:149   */\n      add\n        /* \"contracts/Marketplace2/Marketplace.sol\":15771:15831  bytes4 public constant ERC721_Interface = bytes4(0x80ac58cd) */\n    tag_11:\n      mload(0x40)\n      dup1\n      swap2\n      sub\n      swap1\n      return\n        /* \"contracts/Marketplace2/Marketplace.sol\":16045:16140  mapping(address => mapping(uint256 => mapping(address => ItemOffer)))... */\n    tag_4:\n      tag_13\n      tag_14\n      calldatasize\n      0x04\n      tag_15\n      jump\t// in\n    tag_14:\n      0x01\n      0x20\n      dup2\n      dup2\n      mstore\n      0x00\n      swap5\n      dup6\n      mstore\n      0x40\n      dup1\n      dup7\n      keccak256\n      dup3\n      mstore\n      swap4\n      dup6\n      mstore\n      dup4\n      dup6\n      keccak256\n      swap1\n      mstore\n      swap1\n      dup4\n      mstore\n      swap2\n      keccak256\n      dup1\n      sload\n      swap2\n      add\n      sload\n      dup3\n      jump\n    tag_13:\n      0x40\n      dup1\n      mload\n        /* \"#utility.yul\":906:931   */\n      swap3\n      dup4\n      mstore\n        /* \"#utility.yul\":962:964   */\n      0x20\n        /* \"#utility.yul\":947:965   */\n      dup4\n      add\n        /* \"#utility.yul\":940:974   */\n      swap2\n      swap1\n      swap2\n      mstore\n        /* \"#utility.yul\":879:897   */\n      add\n        /* \"contracts/Marketplace2/Marketplace.sol\":16045:16140  mapping(address => mapping(uint256 => mapping(address => ItemOffer)))... */\n      tag_11\n        /* \"#utility.yul\":732:980   */\n      jump\n        /* \"contracts/Marketplace2/Marketplace.sol\":15909:15966  mapping(address => mapping(uint256 => Item)) public items */\n    tag_5:\n      tag_19\n      tag_20\n      calldatasize\n      0x04\n      tag_21\n      jump\t// in\n    tag_20:\n      0x00\n      0x20\n      dup2\n      dup2\n      mstore\n      swap3\n      dup2\n      mstore\n      0x40\n      dup1\n      dup3\n      keccak256\n      swap1\n      swap4\n      mstore\n      swap1\n      dup2\n      mstore\n      keccak256\n      dup1\n      sload\n      0x01\n      dup3\n      add\n      sload\n      0x02\n      dup4\n      add\n      sload\n      0x03\n      dup5\n      add\n      sload\n      0x04\n      dup6\n      add\n      sload\n      0x05\n      swap1\n      swap6\n      add\n      sload\n      swap4\n      swap5\n      sub(shl(0xa0, 0x01), 0x01)\n      swap4\n      dup5\n      and\n      swap5\n      swap3\n      swap1\n      swap4\n      and\n      swap3\n      swap1\n      swap2\n      0xff\n      and\n      dup7\n      jump\n    tag_19:\n      mload(0x40)\n      tag_11\n      swap7\n      swap6\n      swap5\n      swap4\n      swap3\n      swap2\n      swap1\n      tag_24\n      jump\t// in\n        /* \"contracts/Marketplace2/Marketplace.sol\":16176:16202  uint8 public bnbFeePercent */\n    tag_6:\n      sload(0x02)\n      tag_25\n      swap1\n      shl(0xa0, 0x01)\n      swap1\n      div\n      0xff\n      and\n      dup2\n      jump\n    tag_25:\n      mload(0x40)\n        /* \"#utility.yul\":2177:2181   */\n      0xff\n        /* \"#utility.yul\":2165:2182   */\n      swap1\n      swap2\n      and\n        /* \"#utility.yul\":2147:2183   */\n      dup2\n      mstore\n        /* \"#utility.yul\":2135:2137   */\n      0x20\n        /* \"#utility.yul\":2120:2138   */\n      add\n        /* \"contracts/Marketplace2/Marketplace.sol\":16176:16202  uint8 public bnbFeePercent */\n      tag_11\n        /* \"#utility.yul\":2005:2189   */\n      jump\n        /* \"contracts/Marketplace2/Marketplace.sol\":16146:16169  IERC20 public antaToken */\n    tag_7:\n      sload(0x02)\n      tag_29\n      swap1\n      sub(shl(0xa0, 0x01), 0x01)\n      and\n      dup2\n      jump\n    tag_29:\n      mload(0x40)\n      sub(shl(0xa0, 0x01), 0x01)\n        /* \"#utility.yul\":2372:2404   */\n      swap1\n      swap2\n      and\n        /* \"#utility.yul\":2354:2405   */\n      dup2\n      mstore\n        /* \"#utility.yul\":2342:2344   */\n      0x20\n        /* \"#utility.yul\":2327:2345   */\n      add\n        /* \"contracts/Marketplace2/Marketplace.sol\":16146:16169  IERC20 public antaToken */\n      tag_11\n        /* \"#utility.yul\":2194:2411   */\n      jump\n        /* \"contracts/Marketplace2/Marketplace.sol\":16208:16235  uint8 public antaFeePercent */\n    tag_8:\n      sload(0x02)\n      tag_25\n      swap1\n      shl(0xa8, 0x01)\n      swap1\n      div\n      0xff\n      and\n      dup2\n      jump\n        /* \"#utility.yul\":221:394   */\n    tag_36:\n        /* \"#utility.yul\":289:309   */\n      dup1\n      calldataload\n      sub(shl(0xa0, 0x01), 0x01)\n        /* \"#utility.yul\":338:369   */\n      dup2\n      and\n        /* \"#utility.yul\":328:370   */\n      dup2\n      eq\n        /* \"#utility.yul\":318:388   */\n      tag_40\n      jumpi\n        /* \"#utility.yul\":384:385   */\n      0x00\n        /* \"#utility.yul\":381:382   */\n      dup1\n        /* \"#utility.yul\":374:386   */\n      revert\n        /* \"#utility.yul\":318:388   */\n    tag_40:\n        /* \"#utility.yul\":221:394   */\n      swap2\n      swap1\n      pop\n      jump\t// out\n        /* \"#utility.yul\":399:727   */\n    tag_15:\n        /* \"#utility.yul\":476:482   */\n      0x00\n        /* \"#utility.yul\":484:490   */\n      dup1\n        /* \"#utility.yul\":492:498   */\n      0x00\n        /* \"#utility.yul\":545:547   */\n      0x60\n        /* \"#utility.yul\":533:542   */\n      dup5\n        /* \"#utility.yul\":524:531   */\n      dup7\n        /* \"#utility.yul\":520:543   */\n      sub\n        /* \"#utility.yul\":516:548   */\n      slt\n        /* \"#utility.yul\":513:565   */\n      iszero\n      tag_42\n      jumpi\n        /* \"#utility.yul\":561:562   */\n      0x00\n        /* \"#utility.yul\":558:559   */\n      dup1\n        /* \"#utility.yul\":551:563   */\n      revert\n        /* \"#utility.yul\":513:565   */\n    tag_42:\n        /* \"#utility.yul\":584:613   */\n      tag_43\n        /* \"#utility.yul\":603:612   */\n      dup5\n        /* \"#utility.yul\":584:613   */\n      tag_36\n      jump\t// in\n    tag_43:\n        /* \"#utility.yul\":574:613   */\n      swap3\n      pop\n        /* \"#utility.yul\":660:662   */\n      0x20\n        /* \"#utility.yul\":649:658   */\n      dup5\n        /* \"#utility.yul\":645:663   */\n      add\n        /* \"#utility.yul\":632:664   */\n      calldataload\n        /* \"#utility.yul\":622:664   */\n      swap2\n      pop\n        /* \"#utility.yul\":683:721   */\n      tag_44\n        /* \"#utility.yul\":717:719   */\n      0x40\n        /* \"#utility.yul\":706:715   */\n      dup6\n        /* \"#utility.yul\":702:720   */\n      add\n        /* \"#utility.yul\":683:721   */\n      tag_36\n      jump\t// in\n    tag_44:\n        /* \"#utility.yul\":673:721   */\n      swap1\n      pop\n        /* \"#utility.yul\":399:727   */\n      swap3\n      pop\n      swap3\n      pop\n      swap3\n      jump\t// out\n        /* \"#utility.yul\":985:1239   */\n    tag_21:\n        /* \"#utility.yul\":1053:1059   */\n      0x00\n        /* \"#utility.yul\":1061:1067   */\n      dup1\n        /* \"#utility.yul\":1114:1116   */\n      0x40\n        /* \"#utility.yul\":1102:1111   */\n      dup4\n        /* \"#utility.yul\":1093:1100   */\n      dup6\n        /* \"#utility.yul\":1089:1112   */\n      sub\n        /* \"#utility.yul\":1085:1117   */\n      slt\n        /* \"#utility.yul\":1082:1134   */\n      iszero\n      tag_47\n      jumpi\n        /* \"#utility.yul\":1130:1131   */\n      0x00\n        /* \"#utility.yul\":1127:1128   */\n      dup1\n        /* \"#utility.yul\":1120:1132   */\n      revert\n        /* \"#utility.yul\":1082:1134   */\n    tag_47:\n        /* \"#utility.yul\":1153:1182   */\n      tag_48\n        /* \"#utility.yul\":1172:1181   */\n      dup4\n        /* \"#utility.yul\":1153:1182   */\n      tag_36\n      jump\t// in\n    tag_48:\n        /* \"#utility.yul\":1143:1182   */\n      swap5\n        /* \"#utility.yul\":1229:1231   */\n      0x20\n        /* \"#utility.yul\":1214:1232   */\n      swap4\n      swap1\n      swap4\n      add\n        /* \"#utility.yul\":1201:1233   */\n      calldataload\n      swap4\n      pop\n      pop\n      pop\n        /* \"#utility.yul\":985:1239   */\n      jump\t// out\n        /* \"#utility.yul\":1244:2000   */\n    tag_24:\n        /* \"#utility.yul\":1543:1568   */\n      dup7\n      dup2\n      mstore\n      sub(shl(0xa0, 0x01), 0x01)\n        /* \"#utility.yul\":1642:1657   */\n      dup7\n      dup2\n      and\n        /* \"#utility.yul\":1637:1639   */\n      0x20\n        /* \"#utility.yul\":1622:1640   */\n      dup4\n      add\n        /* \"#utility.yul\":1615:1658   */\n      mstore\n        /* \"#utility.yul\":1694:1709   */\n      dup6\n      and\n        /* \"#utility.yul\":1689:1691   */\n      0x40\n        /* \"#utility.yul\":1674:1692   */\n      dup3\n      add\n        /* \"#utility.yul\":1667:1710   */\n      mstore\n        /* \"#utility.yul\":1741:1743   */\n      0x60\n        /* \"#utility.yul\":1726:1744   */\n      dup2\n      add\n        /* \"#utility.yul\":1719:1753   */\n      dup5\n      swap1\n      mstore\n        /* \"#utility.yul\":1784:1787   */\n      0x80\n        /* \"#utility.yul\":1769:1788   */\n      dup2\n      add\n        /* \"#utility.yul\":1762:1797   */\n      dup4\n      swap1\n      mstore\n        /* \"#utility.yul\":1530:1533   */\n      0xc0\n        /* \"#utility.yul\":1515:1534   */\n      dup2\n      add\n        /* \"#utility.yul\":1827:1828   */\n      0x05\n        /* \"#utility.yul\":1816:1829   */\n      dup4\n      lt\n        /* \"#utility.yul\":1806:1950   */\n      tag_50\n      jumpi\n        /* \"#utility.yul\":1872:1882   */\n      0x4e487b71\n        /* \"#utility.yul\":1867:1870   */\n      0xe0\n        /* \"#utility.yul\":1863:1883   */\n      shl\n        /* \"#utility.yul\":1860:1861   */\n      0x00\n        /* \"#utility.yul\":1853:1884   */\n      mstore\n        /* \"#utility.yul\":1907:1911   */\n      0x21\n        /* \"#utility.yul\":1904:1905   */\n      0x04\n        /* \"#utility.yul\":1897:1912   */\n      mstore\n        /* \"#utility.yul\":1935:1939   */\n      0x24\n        /* \"#utility.yul\":1932:1933   */\n      0x00\n        /* \"#utility.yul\":1925:1940   */\n      revert\n        /* \"#utility.yul\":1806:1950   */\n    tag_50:\n        /* \"#utility.yul\":1987:1993   */\n      dup3\n        /* \"#utility.yul\":1981:1984   */\n      0xa0\n        /* \"#utility.yul\":1970:1979   */\n      dup4\n        /* \"#utility.yul\":1966:1985   */\n      add\n        /* \"#utility.yul\":1959:1994   */\n      mstore\n        /* \"#utility.yul\":1244:2000   */\n      swap8\n      swap7\n      pop\n      pop\n      pop\n      pop\n      pop\n      pop\n      pop\n      jump\t// out\n\n    auxdata: 0xa2646970667358221220950cf83da0b691a7eef231dd1a392698cb6e82926954f76ef898c70ae4f3b9cf64736f6c634300080d0033\n}\n",
				"bytecode": {
					"linkReferences": {},
					"object": "608060405234801561001057600080fd5b506102c3806100206000396000f3fe608060405234801561001057600080fd5b50600436106100625760003560e01c80632b4c32be1461006757806349739678146100935780635c80a435146100de57806385a8b36c1461014b57806392fc79fa14610171578063b7a60c7e1461019c575b600080fd5b6100756380ac58cd60e01b81565b6040516001600160e01b031990911681526020015b60405180910390f35b6100c96100a13660046101cc565b6001602081815260009485526040808620825293855283852090529083529120805491015482565b6040805192835260208301919091520161008a565b6101396100ec366004610208565b600060208181529281526040808220909352908152208054600182015460028301546003840154600485015460059095015493946001600160a01b03938416949290931692909160ff1686565b60405161008a96959493929190610232565b60025461015f90600160a01b900460ff1681565b60405160ff909116815260200161008a565b600254610184906001600160a01b031681565b6040516001600160a01b03909116815260200161008a565b60025461015f90600160a81b900460ff1681565b80356001600160a01b03811681146101c757600080fd5b919050565b6000806000606084860312156101e157600080fd5b6101ea846101b0565b9250602084013591506101ff604085016101b0565b90509250925092565b6000806040838503121561021b57600080fd5b610224836101b0565b946020939093013593505050565b8681526001600160a01b03868116602083015285166040820152606081018490526080810183905260c081016005831061027c57634e487b7160e01b600052602160045260246000fd5b8260a083015297965050505050505056fea2646970667358221220950cf83da0b691a7eef231dd1a392698cb6e82926954f76ef898c70ae4f3b9cf64736f6c634300080d0033",
					"opcodes": "PUSH1 0x80 PUSH1 0x40 MSTORE CALLVALUE DUP1 ISZERO PUSH2 0x10 JUMPI PUSH1 0x0 DUP1 REVERT JUMPDEST POP PUSH2 0x2C3 DUP1 PUSH2 0x20 PUSH1 0x0 CODECOPY PUSH1 0x0 RETURN INVALID PUSH1 0x80 PUSH1 0x40 MSTORE CALLVALUE DUP1 ISZERO PUSH2 0x10 JUMPI PUSH1 0x0 DUP1 REVERT JUMPDEST POP PUSH1 0x4 CALLDATASIZE LT PUSH2 0x62 JUMPI PUSH1 0x0 CALLDATALOAD PUSH1 0xE0 SHR DUP1 PUSH4 0x2B4C32BE EQ PUSH2 0x67 JUMPI DUP1 PUSH4 0x49739678 EQ PUSH2 0x93 JUMPI DUP1 PUSH4 0x5C80A435 EQ PUSH2 0xDE JUMPI DUP1 PUSH4 0x85A8B36C EQ PUSH2 0x14B JUMPI DUP1 PUSH4 0x92FC79FA EQ PUSH2 0x171 JUMPI DUP1 PUSH4 0xB7A60C7E EQ PUSH2 0x19C JUMPI JUMPDEST PUSH1 0x0 DUP1 REVERT JUMPDEST PUSH2 0x75 PUSH4 0x80AC58CD PUSH1 0xE0 SHL DUP2 JUMP JUMPDEST PUSH1 0x40 MLOAD PUSH1 0x1 PUSH1 0x1 PUSH1 0xE0 SHL SUB NOT SWAP1 SWAP2 AND DUP2 MSTORE PUSH1 0x20 ADD JUMPDEST PUSH1 0x40 MLOAD DUP1 SWAP2 SUB SWAP1 RETURN JUMPDEST PUSH2 0xC9 PUSH2 0xA1 CALLDATASIZE PUSH1 0x4 PUSH2 0x1CC JUMP JUMPDEST PUSH1 0x1 PUSH1 0x20 DUP2 DUP2 MSTORE PUSH1 0x0 SWAP5 DUP6 MSTORE PUSH1 0x40 DUP1 DUP7 KECCAK256 DUP3 MSTORE SWAP4 DUP6 MSTORE DUP4 DUP6 KECCAK256 SWAP1 MSTORE SWAP1 DUP4 MSTORE SWAP2 KECCAK256 DUP1 SLOAD SWAP2 ADD SLOAD DUP3 JUMP JUMPDEST PUSH1 0x40 DUP1 MLOAD SWAP3 DUP4 MSTORE PUSH1 0x20 DUP4 ADD SWAP2 SWAP1 SWAP2 MSTORE ADD PUSH2 0x8A JUMP JUMPDEST PUSH2 0x139 PUSH2 0xEC CALLDATASIZE PUSH1 0x4 PUSH2 0x208 JUMP JUMPDEST PUSH1 0x0 PUSH1 0x20 DUP2 DUP2 MSTORE SWAP3 DUP2 MSTORE PUSH1 0x40 DUP1 DUP3 KECCAK256 SWAP1 SWAP4 MSTORE SWAP1 DUP2 MSTORE KECCAK256 DUP1 SLOAD PUSH1 0x1 DUP3 ADD SLOAD PUSH1 0x2 DUP4 ADD SLOAD PUSH1 0x3 DUP5 ADD SLOAD PUSH1 0x4 DUP6 ADD SLOAD PUSH1 0x5 SWAP1 SWAP6 ADD SLOAD SWAP4 SWAP5 PUSH1 0x1 PUSH1 0x1 PUSH1 0xA0 SHL SUB SWAP4 DUP5 AND SWAP5 SWAP3 SWAP1 SWAP4 AND SWAP3 SWAP1 SWAP2 PUSH1 0xFF AND DUP7 JUMP JUMPDEST PUSH1 0x40 MLOAD PUSH2 0x8A SWAP7 SWAP6 SWAP5 SWAP4 SWAP3 SWAP2 SWAP1 PUSH2 0x232 JUMP JUMPDEST PUSH1 0x2 SLOAD PUSH2 0x15F SWAP1 PUSH1 0x1 PUSH1 0xA0 SHL SWAP1 DIV PUSH1 0xFF AND DUP2 JUMP JUMPDEST PUSH1 0x40 MLOAD PUSH1 0xFF SWAP1 SWAP2 AND DUP2 MSTORE PUSH1 0x20 ADD PUSH2 0x8A JUMP JUMPDEST PUSH1 0x2 SLOAD PUSH2 0x184 SWAP1 PUSH1 0x1 PUSH1 0x1 PUSH1 0xA0 SHL SUB AND DUP2 JUMP JUMPDEST PUSH1 0x40 MLOAD PUSH1 0x1 PUSH1 0x1 PUSH1 0xA0 SHL SUB SWAP1 SWAP2 AND DUP2 MSTORE PUSH1 0x20 ADD PUSH2 0x8A JUMP JUMPDEST PUSH1 0x2 SLOAD PUSH2 0x15F SWAP1 PUSH1 0x1 PUSH1 0xA8 SHL SWAP1 DIV PUSH1 0xFF AND DUP2 JUMP JUMPDEST DUP1 CALLDATALOAD PUSH1 0x1 PUSH1 0x1 PUSH1 0xA0 SHL SUB DUP2 AND DUP2 EQ PUSH2 0x1C7 JUMPI PUSH1 0x0 DUP1 REVERT JUMPDEST SWAP2 SWAP1 POP JUMP JUMPDEST PUSH1 0x0 DUP1 PUSH1 0x0 PUSH1 0x60 DUP5 DUP7 SUB SLT ISZERO PUSH2 0x1E1 JUMPI PUSH1 0x0 DUP1 REVERT JUMPDEST PUSH2 0x1EA DUP5 PUSH2 0x1B0 JUMP JUMPDEST SWAP3 POP PUSH1 0x20 DUP5 ADD CALLDATALOAD SWAP2 POP PUSH2 0x1FF PUSH1 0x40 DUP6 ADD PUSH2 0x1B0 JUMP JUMPDEST SWAP1 POP SWAP3 POP SWAP3 POP SWAP3 JUMP JUMPDEST PUSH1 0x0 DUP1 PUSH1 0x40 DUP4 DUP6 SUB SLT ISZERO PUSH2 0x21B JUMPI PUSH1 0x0 DUP1 REVERT JUMPDEST PUSH2 0x224 DUP4 PUSH2 0x1B0 JUMP JUMPDEST SWAP5 PUSH1 0x20 SWAP4 SWAP1 SWAP4 ADD CALLDATALOAD SWAP4 POP POP POP JUMP JUMPDEST DUP7 DUP2 MSTORE PUSH1 0x1 PUSH1 0x1 PUSH1 0xA0 SHL SUB DUP7 DUP2 AND PUSH1 0x20 DUP4 ADD MSTORE DUP6 AND PUSH1 0x40 DUP3 ADD MSTORE PUSH1 0x60 DUP2 ADD DUP5 SWAP1 MSTORE PUSH1 0x80 DUP2 ADD DUP4 SWAP1 MSTORE PUSH1 0xC0 DUP2 ADD PUSH1 0x5 DUP4 LT PUSH2 0x27C JUMPI PUSH4 0x4E487B71 PUSH1 0xE0 SHL PUSH1 0x0 MSTORE PUSH1 0x21 PUSH1 0x4 MSTORE PUSH1 0x24 PUSH1 0x0 REVERT JUMPDEST DUP3 PUSH1 0xA0 DUP4 ADD MSTORE SWAP8 SWAP7 POP POP POP POP POP POP POP JUMP INVALID LOG2 PUSH5 0x6970667358 0x22 SLT KECCAK256 SWAP6 0xC 0xF8 RETURNDATASIZE LOG0 0xB6 SWAP2 0xA7 0xEE CALLCODE BALANCE 0xDD BYTE CODECOPY 0x26 SWAP9 0xCB PUSH15 0x82926954F76EF898C70AE4F3B9CF64 PUSH20 0x6F6C634300080D00330000000000000000000000 "
				},
				"gasEstimates": {
					"creation": {
						"codeDepositCost": "141400",
						"executionCost": "190",
						"totalCost": "141590"
					},
					"external": {
						"ERC721_Interface()": "192",
						"antaFeePercent()": "2418",
						"antaToken()": "2403",
						"bnbFeePercent()": "2374",
						"itemOffers(address,uint256,address)": "infinite",
						"items(address,uint256)": "13438"
					}
				},
				"methodIdentifiers": {
					"ERC721_Interface()": "2b4c32be",
					"antaFeePercent()": "b7a60c7e",
					"antaToken()": "92fc79fa",
					"bnbFeePercent()": "85a8b36c",
					"itemOffers(address,uint256,address)": "49739678",
					"items(address,uint256)": "5c80a435"
				}
			},
			"storageLayout": {
				"storage": [
					{
						"astId": 477,
						"contract": "contracts/Marketplace2/Marketplace.sol:MarketplaceStorage",
						"label": "items",
						"offset": 0,
						"slot": "0",
						"type": "t_mapping(t_address,t_mapping(t_uint256,t_struct(Item)459_storage))"
					},
					{
						"astId": 486,
						"contract": "contracts/Marketplace2/Marketplace.sol:MarketplaceStorage",
						"label": "itemOffers",
						"offset": 0,
						"slot": "1",
						"type": "t_mapping(t_address,t_mapping(t_uint256,t_mapping(t_address,t_struct(ItemOffer)464_storage)))"
					},
					{
						"astId": 489,
						"contract": "contracts/Marketplace2/Marketplace.sol:MarketplaceStorage",
						"label": "antaToken",
						"offset": 0,
						"slot": "2",
						"type": "t_contract(IERC20)201"
					},
					{
						"astId": 491,
						"contract": "contracts/Marketplace2/Marketplace.sol:MarketplaceStorage",
						"label": "bnbFeePercent",
						"offset": 20,
						"slot": "2",
						"type": "t_uint8"
					},
					{
						"astId": 493,
						"contract": "contracts/Marketplace2/Marketplace.sol:MarketplaceStorage",
						"label": "antaFeePercent",
						"offset": 21,
						"slot": "2",
						"type": "t_uint8"
					}
				],
				"types": {
					"t_address": {
						"encoding": "inplace",
						"label": "address",
						"numberOfBytes": "20"
					},
					"t_bytes32": {
						"encoding": "inplace",
						"label": "bytes32",
						"numberOfBytes": "32"
					},
					"t_contract(IERC20)201": {
						"encoding": "inplace",
						"label": "contract IERC20",
						"numberOfBytes": "20"
					},
					"t_enum(ItemStatus)445": {
						"encoding": "inplace",
						"label": "enum MarketplaceStorage.ItemStatus",
						"numberOfBytes": "1"
					},
					"t_mapping(t_address,t_mapping(t_uint256,t_mapping(t_address,t_struct(ItemOffer)464_storage)))": {
						"encoding": "mapping",
						"key": "t_address",
						"label": "mapping(address => mapping(uint256 => mapping(address => struct MarketplaceStorage.ItemOffer)))",
						"numberOfBytes": "32",
						"value": "t_mapping(t_uint256,t_mapping(t_address,t_struct(ItemOffer)464_storage))"
					},
					"t_mapping(t_address,t_mapping(t_uint256,t_struct(Item)459_storage))": {
						"encoding": "mapping",
						"key": "t_address",
						"label": "mapping(address => mapping(uint256 => struct MarketplaceStorage.Item))",
						"numberOfBytes": "32",
						"value": "t_mapping(t_uint256,t_struct(Item)459_storage)"
					},
					"t_mapping(t_address,t_struct(ItemOffer)464_storage)": {
						"encoding": "mapping",
						"key": "t_address",
						"label": "mapping(address => struct MarketplaceStorage.ItemOffer)",
						"numberOfBytes": "32",
						"value": "t_struct(ItemOffer)464_storage"
					},
					"t_mapping(t_uint256,t_mapping(t_address,t_struct(ItemOffer)464_storage))": {
						"encoding": "mapping",
						"key": "t_uint256",
						"label": "mapping(uint256 => mapping(address => struct MarketplaceStorage.ItemOffer))",
						"numberOfBytes": "32",
						"value": "t_mapping(t_address,t_struct(ItemOffer)464_storage)"
					},
					"t_mapping(t_uint256,t_struct(Item)459_storage)": {
						"encoding": "mapping",
						"key": "t_uint256",
						"label": "mapping(uint256 => struct MarketplaceStorage.Item)",
						"numberOfBytes": "32",
						"value": "t_struct(Item)459_storage"
					},
					"t_struct(Item)459_storage": {
						"encoding": "inplace",
						"label": "struct MarketplaceStorage.Item",
						"members": [
							{
								"astId": 447,
								"contract": "contracts/Marketplace2/Marketplace.sol:MarketplaceStorage",
								"label": "id",
								"offset": 0,
								"slot": "0",
								"type": "t_bytes32"
							},
							{
								"astId": 449,
								"contract": "contracts/Marketplace2/Marketplace.sol:MarketplaceStorage",
								"label": "seller",
								"offset": 0,
								"slot": "1",
								"type": "t_address"
							},
							{
								"astId": 451,
								"contract": "contracts/Marketplace2/Marketplace.sol:MarketplaceStorage",
								"label": "nftAddress",
								"offset": 0,
								"slot": "2",
								"type": "t_address"
							},
							{
								"astId": 453,
								"contract": "contracts/Marketplace2/Marketplace.sol:MarketplaceStorage",
								"label": "price",
								"offset": 0,
								"slot": "3",
								"type": "t_uint256"
							},
							{
								"astId": 455,
								"contract": "contracts/Marketplace2/Marketplace.sol:MarketplaceStorage",
								"label": "priceAnta",
								"offset": 0,
								"slot": "4",
								"type": "t_uint256"
							},
							{
								"astId": 458,
								"contract": "contracts/Marketplace2/Marketplace.sol:MarketplaceStorage",
								"label": "status",
								"offset": 0,
								"slot": "5",
								"type": "t_enum(ItemStatus)445"
							}
						],
						"numberOfBytes": "192"
					},
					"t_struct(ItemOffer)464_storage": {
						"encoding": "inplace",
						"label": "struct MarketplaceStorage.ItemOffer",
						"members": [
							{
								"astId": 461,
								"contract": "contracts/Marketplace2/Marketplace.sol:MarketplaceStorage",
								"label": "id",
								"offset": 0,
								"slot": "0",
								"type": "t_bytes32"
							},
							{
								"astId": 463,
								"contract": "contracts/Marketplace2/Marketplace.sol:MarketplaceStorage",
								"label": "offerPrice",
								"offset": 0,
								"slot": "1",
								"type": "t_uint256"
							}
						],
						"numberOfBytes": "64"
					},
					"t_uint256": {
						"encoding": "inplace",
						"label": "uint256",
						"numberOfBytes": "32"
					},
					"t_uint8": {
						"encoding": "inplace",
						"label": "uint8",
						"numberOfBytes": "1"
					}
				}
			},
			"userdoc": {
				"kind": "user",
				"methods": {},
				"version": 1
			}
		}
	}
}