{
	"contracts/Marketplace2/Marketplace.sol": {
		"NFTMarket": {
			"abi": [
				{
					"inputs": [
						{
							"internalType": "address",
							"name": "_mainToken",
							"type": "address"
						},
						{
							"internalType": "address",
							"name": "_mainNFT",
							"type": "address"
						},
						{
							"internalType": "address",
							"name": "_mainFactory",
							"type": "address"
						}
					],
					"stateMutability": "nonpayable",
					"type": "constructor"
				},
				{
					"anonymous": false,
					"inputs": [
						{
							"indexed": false,
							"internalType": "bytes32",
							"name": "id",
							"type": "bytes32"
						},
						{
							"indexed": true,
							"internalType": "uint256",
							"name": "assetId",
							"type": "uint256"
						},
						{
							"indexed": true,
							"internalType": "address",
							"name": "seller",
							"type": "address"
						},
						{
							"indexed": false,
							"internalType": "address",
							"name": "nftAddress",
							"type": "address"
						},
						{
							"indexed": false,
							"internalType": "uint256",
							"name": "price",
							"type": "uint256"
						},
						{
							"indexed": false,
							"internalType": "uint8",
							"name": "feePercent",
							"type": "uint8"
						},
						{
							"indexed": false,
							"internalType": "uint256",
							"name": "fee",
							"type": "uint256"
						},
						{
							"indexed": true,
							"internalType": "address",
							"name": "buyer",
							"type": "address"
						},
						{
							"indexed": false,
							"internalType": "string",
							"name": "currency",
							"type": "string"
						},
						{
							"indexed": false,
							"internalType": "uint256",
							"name": "createdAt",
							"type": "uint256"
						}
					],
					"name": "BuyItemSuccessful",
					"type": "event"
				},
				{
					"anonymous": false,
					"inputs": [
						{
							"indexed": false,
							"internalType": "address",
							"name": "nftAddress",
							"type": "address"
						},
						{
							"indexed": false,
							"internalType": "uint256",
							"name": "id",
							"type": "uint256"
						},
						{
							"indexed": true,
							"internalType": "uint256",
							"name": "assetId",
							"type": "uint256"
						},
						{
							"indexed": true,
							"internalType": "address",
							"name": "delistBy",
							"type": "address"
						},
						{
							"indexed": false,
							"internalType": "uint256",
							"name": "createdAt",
							"type": "uint256"
						}
					],
					"name": "DelistItemSuccessful",
					"type": "event"
				},
				{
					"anonymous": false,
					"inputs": [
						{
							"indexed": true,
							"internalType": "uint256",
							"name": "itemId",
							"type": "uint256"
						},
						{
							"indexed": true,
							"internalType": "uint256",
							"name": "tokenId",
							"type": "uint256"
						},
						{
							"indexed": false,
							"internalType": "address",
							"name": "seller",
							"type": "address"
						},
						{
							"indexed": false,
							"internalType": "address",
							"name": "owner",
							"type": "address"
						},
						{
							"indexed": false,
							"internalType": "uint256",
							"name": "price",
							"type": "uint256"
						}
					],
					"name": "MarketItemCreated",
					"type": "event"
				},
				{
					"anonymous": false,
					"inputs": [
						{
							"indexed": true,
							"internalType": "address",
							"name": "previousOwner",
							"type": "address"
						},
						{
							"indexed": true,
							"internalType": "address",
							"name": "newOwner",
							"type": "address"
						}
					],
					"name": "OwnershipTransferred",
					"type": "event"
				},
				{
					"anonymous": false,
					"inputs": [
						{
							"indexed": false,
							"internalType": "address",
							"name": "nftAddress",
							"type": "address"
						},
						{
							"indexed": false,
							"internalType": "bytes32",
							"name": "id",
							"type": "bytes32"
						},
						{
							"indexed": true,
							"internalType": "uint256",
							"name": "assetId",
							"type": "uint256"
						},
						{
							"indexed": false,
							"internalType": "uint256",
							"name": "price",
							"type": "uint256"
						},
						{
							"indexed": true,
							"internalType": "address",
							"name": "seller",
							"type": "address"
						},
						{
							"indexed": false,
							"internalType": "string",
							"name": "currency",
							"type": "string"
						},
						{
							"indexed": false,
							"internalType": "uint256",
							"name": "createdAt",
							"type": "uint256"
						}
					],
					"name": "SellItemSuccessful",
					"type": "event"
				},
				{
					"inputs": [],
					"name": "ERC721_Interface",
					"outputs": [
						{
							"internalType": "bytes4",
							"name": "",
							"type": "bytes4"
						}
					],
					"stateMutability": "view",
					"type": "function"
				},
				{
					"inputs": [
						{
							"internalType": "uint256",
							"name": "",
							"type": "uint256"
						}
					],
					"name": "allItems",
					"outputs": [
						{
							"internalType": "uint256",
							"name": "itemId",
							"type": "uint256"
						},
						{
							"internalType": "uint256",
							"name": "tokenId",
							"type": "uint256"
						},
						{
							"internalType": "address payable",
							"name": "seller",
							"type": "address"
						},
						{
							"internalType": "address payable",
							"name": "owner",
							"type": "address"
						},
						{
							"internalType": "uint256",
							"name": "price",
							"type": "uint256"
						},
						{
							"internalType": "enum MarketplaceStorage.ItemStatus",
							"name": "status",
							"type": "uint8"
						}
					],
					"stateMutability": "view",
					"type": "function"
				},
				{
					"inputs": [],
					"name": "allMarketItems",
					"outputs": [
						{
							"internalType": "uint256",
							"name": "itemId",
							"type": "uint256"
						},
						{
							"internalType": "uint256",
							"name": "tokenId",
							"type": "uint256"
						},
						{
							"internalType": "address payable",
							"name": "seller",
							"type": "address"
						},
						{
							"internalType": "address payable",
							"name": "owner",
							"type": "address"
						},
						{
							"internalType": "uint256",
							"name": "price",
							"type": "uint256"
						},
						{
							"internalType": "enum MarketplaceStorage.ItemStatus",
							"name": "status",
							"type": "uint8"
						}
					],
					"stateMutability": "view",
					"type": "function"
				},
				{
					"inputs": [],
					"name": "antaFeePercent",
					"outputs": [
						{
							"internalType": "uint8",
							"name": "",
							"type": "uint8"
						}
					],
					"stateMutability": "view",
					"type": "function"
				},
				{
					"inputs": [],
					"name": "bnbFeePercent",
					"outputs": [
						{
							"internalType": "uint8",
							"name": "",
							"type": "uint8"
						}
					],
					"stateMutability": "view",
					"type": "function"
				},
				{
					"inputs": [
						{
							"internalType": "uint256",
							"name": "tokenId",
							"type": "uint256"
						},
						{
							"internalType": "uint256",
							"name": "price",
							"type": "uint256"
						}
					],
					"name": "createMarketItem",
					"outputs": [],
					"stateMutability": "payable",
					"type": "function"
				},
				{
					"inputs": [
						{
							"internalType": "uint256",
							"name": "itemId",
							"type": "uint256"
						},
						{
							"internalType": "uint256",
							"name": "amount",
							"type": "uint256"
						}
					],
					"name": "createMarketSale",
					"outputs": [],
					"stateMutability": "nonpayable",
					"type": "function"
				},
				{
					"inputs": [
						{
							"internalType": "address",
							"name": "nftAddress",
							"type": "address"
						},
						{
							"internalType": "uint256",
							"name": "itemId",
							"type": "uint256"
						}
					],
					"name": "delistItem",
					"outputs": [],
					"stateMutability": "nonpayable",
					"type": "function"
				},
				{
					"inputs": [],
					"name": "factory",
					"outputs": [
						{
							"internalType": "contract IFactory",
							"name": "",
							"type": "address"
						}
					],
					"stateMutability": "view",
					"type": "function"
				},
				{
					"inputs": [
						{
							"internalType": "uint256",
							"name": "itemId",
							"type": "uint256"
						}
					],
					"name": "fetchMarketItem",
					"outputs": [
						{
							"components": [
								{
									"internalType": "uint256",
									"name": "itemId",
									"type": "uint256"
								},
								{
									"internalType": "uint256",
									"name": "tokenId",
									"type": "uint256"
								},
								{
									"internalType": "address payable",
									"name": "seller",
									"type": "address"
								},
								{
									"internalType": "address payable",
									"name": "owner",
									"type": "address"
								},
								{
									"internalType": "uint256",
									"name": "price",
									"type": "uint256"
								},
								{
									"internalType": "enum MarketplaceStorage.ItemStatus",
									"name": "status",
									"type": "uint8"
								}
							],
							"internalType": "struct MarketplaceStorage.MarketItem",
							"name": "",
							"type": "tuple"
						}
					],
					"stateMutability": "view",
					"type": "function"
				},
				{
					"inputs": [],
					"name": "fetchMarketItems",
					"outputs": [
						{
							"components": [
								{
									"internalType": "uint256",
									"name": "itemId",
									"type": "uint256"
								},
								{
									"internalType": "uint256",
									"name": "tokenId",
									"type": "uint256"
								},
								{
									"internalType": "address payable",
									"name": "seller",
									"type": "address"
								},
								{
									"internalType": "address payable",
									"name": "owner",
									"type": "address"
								},
								{
									"internalType": "uint256",
									"name": "price",
									"type": "uint256"
								},
								{
									"internalType": "enum MarketplaceStorage.ItemStatus",
									"name": "status",
									"type": "uint8"
								}
							],
							"internalType": "struct MarketplaceStorage.MarketItem",
							"name": "",
							"type": "tuple"
						}
					],
					"stateMutability": "view",
					"type": "function"
				},
				{
					"inputs": [],
					"name": "fetchMyNFTs",
					"outputs": [
						{
							"components": [
								{
									"internalType": "uint256",
									"name": "itemId",
									"type": "uint256"
								},
								{
									"internalType": "uint256",
									"name": "tokenId",
									"type": "uint256"
								},
								{
									"internalType": "address payable",
									"name": "seller",
									"type": "address"
								},
								{
									"internalType": "address payable",
									"name": "owner",
									"type": "address"
								},
								{
									"internalType": "uint256",
									"name": "price",
									"type": "uint256"
								},
								{
									"internalType": "enum MarketplaceStorage.ItemStatus",
									"name": "status",
									"type": "uint8"
								}
							],
							"internalType": "struct MarketplaceStorage.MarketItem[]",
							"name": "",
							"type": "tuple[]"
						}
					],
					"stateMutability": "view",
					"type": "function"
				},
				{
					"inputs": [
						{
							"internalType": "uint256",
							"name": "tokenId",
							"type": "uint256"
						}
					],
					"name": "getAlalalalala",
					"outputs": [
						{
							"internalType": "bool",
							"name": "",
							"type": "bool"
						}
					],
					"stateMutability": "view",
					"type": "function"
				},
				{
					"inputs": [
						{
							"internalType": "uint256",
							"name": "marketItemId",
							"type": "uint256"
						}
					],
					"name": "getMarketItem",
					"outputs": [
						{
							"components": [
								{
									"internalType": "uint256",
									"name": "itemId",
									"type": "uint256"
								},
								{
									"internalType": "uint256",
									"name": "tokenId",
									"type": "uint256"
								},
								{
									"internalType": "address payable",
									"name": "seller",
									"type": "address"
								},
								{
									"internalType": "address payable",
									"name": "owner",
									"type": "address"
								},
								{
									"internalType": "uint256",
									"name": "price",
									"type": "uint256"
								},
								{
									"internalType": "enum MarketplaceStorage.ItemStatus",
									"name": "status",
									"type": "uint8"
								}
							],
							"internalType": "struct MarketplaceStorage.MarketItem",
							"name": "",
							"type": "tuple"
						}
					],
					"stateMutability": "view",
					"type": "function"
				},
				{
					"inputs": [
						{
							"internalType": "address",
							"name": "",
							"type": "address"
						},
						{
							"internalType": "uint256",
							"name": "",
							"type": "uint256"
						}
					],
					"name": "items",
					"outputs": [
						{
							"internalType": "uint256",
							"name": "itemId",
							"type": "uint256"
						},
						{
							"internalType": "uint256",
							"name": "tokenId",
							"type": "uint256"
						},
						{
							"internalType": "address payable",
							"name": "seller",
							"type": "address"
						},
						{
							"internalType": "address payable",
							"name": "owner",
							"type": "address"
						},
						{
							"internalType": "uint256",
							"name": "price",
							"type": "uint256"
						},
						{
							"internalType": "enum MarketplaceStorage.ItemStatus",
							"name": "status",
							"type": "uint8"
						}
					],
					"stateMutability": "view",
					"type": "function"
				},
				{
					"inputs": [],
					"name": "mainNFTs",
					"outputs": [
						{
							"internalType": "contract IERC721",
							"name": "",
							"type": "address"
						}
					],
					"stateMutability": "view",
					"type": "function"
				},
				{
					"inputs": [],
					"name": "mainToken",
					"outputs": [
						{
							"internalType": "contract IERC20",
							"name": "",
							"type": "address"
						}
					],
					"stateMutability": "view",
					"type": "function"
				},
				{
					"inputs": [],
					"name": "owner",
					"outputs": [
						{
							"internalType": "address",
							"name": "",
							"type": "address"
						}
					],
					"stateMutability": "view",
					"type": "function"
				},
				{
					"inputs": [],
					"name": "renounceOwnership",
					"outputs": [],
					"stateMutability": "nonpayable",
					"type": "function"
				},
				{
					"inputs": [
						{
							"internalType": "address",
							"name": "_address",
							"type": "address"
						}
					],
					"name": "setFactory",
					"outputs": [],
					"stateMutability": "nonpayable",
					"type": "function"
				},
				{
					"inputs": [
						{
							"internalType": "address",
							"name": "_address",
							"type": "address"
						}
					],
					"name": "setMainNFT",
					"outputs": [],
					"stateMutability": "nonpayable",
					"type": "function"
				},
				{
					"inputs": [
						{
							"internalType": "address",
							"name": "_address",
							"type": "address"
						}
					],
					"name": "setMainToken",
					"outputs": [],
					"stateMutability": "nonpayable",
					"type": "function"
				},
				{
					"inputs": [
						{
							"internalType": "uint256",
							"name": "tokenId",
							"type": "uint256"
						}
					],
					"name": "testView",
					"outputs": [
						{
							"internalType": "address",
							"name": "",
							"type": "address"
						}
					],
					"stateMutability": "view",
					"type": "function"
				},
				{
					"inputs": [
						{
							"internalType": "address",
							"name": "newOwner",
							"type": "address"
						}
					],
					"name": "transferOwnership",
					"outputs": [],
					"stateMutability": "nonpayable",
					"type": "function"
				}
			],
			"devdoc": {
				"kind": "dev",
				"methods": {
					"owner()": {
						"details": "Returns the address of the current owner."
					},
					"renounceOwnership()": {
						"details": "Leaves the contract without owner. It will not be possible to call `onlyOwner` functions anymore. Can only be called by the current owner. NOTE: Renouncing ownership will leave the contract without an owner, thereby removing any functionality that is only available to the owner."
					},
					"transferOwnership(address)": {
						"details": "Transfers ownership of the contract to a new account (`newOwner`). Can only be called by the current owner."
					}
				},
				"version": 1
			},
			"evm": {
				"assembly": "    /* \"contracts/Marketplace2/Marketplace.sol\":17130:24486  contract NFTMarket is ReentrancyGuard,MarketplaceStorage, Ownable {... */\n  mstore(0x40, 0x80)\n    /* \"contracts/Marketplace2/Marketplace.sol\":17376:17570  constructor(address _mainToken, address _mainNFT, address _mainFactory ) {... */\n  callvalue\n  dup1\n  iszero\n  tag_1\n  jumpi\n  0x00\n  dup1\n  revert\ntag_1:\n  pop\n  mload(0x40)\n  sub(codesize, bytecodeSize)\n  dup1\n  bytecodeSize\n  dup4\n  codecopy\n  dup2\n  dup2\n  add\n  0x40\n  mstore\n  dup2\n  add\n  swap1\n  tag_2\n  swap2\n  swap1\n  tag_3\n  jump\t// in\ntag_2:\n    /* \"contracts/Marketplace2/Marketplace.sol\":14122:14123  1 */\n  0x01\n    /* \"contracts/Marketplace2/Marketplace.sol\":14227:14234  _status */\n  0x00\n    /* \"contracts/Marketplace2/Marketplace.sol\":14227:14249  _status = _NOT_ENTERED */\n  dup2\n  swap1\n  sstore\n  pop\n    /* \"contracts/Marketplace2/Marketplace.sol\":1561:1593  _transferOwnership(_msgSender()) */\n  tag_9\n    /* \"contracts/Marketplace2/Marketplace.sol\":1580:1592  _msgSender() */\n  tag_10\n    /* \"contracts/Marketplace2/Marketplace.sol\":1580:1590  _msgSender */\n  shl(0x20, tag_11)\n    /* \"contracts/Marketplace2/Marketplace.sol\":1580:1592  _msgSender() */\n  0x20\n  shr\n  jump\t// in\ntag_10:\n    /* \"contracts/Marketplace2/Marketplace.sol\":1561:1579  _transferOwnership */\n  shl(0x20, tag_12)\n    /* \"contracts/Marketplace2/Marketplace.sol\":1561:1593  _transferOwnership(_msgSender()) */\n  0x20\n  shr\n  jump\t// in\ntag_9:\n    /* \"contracts/Marketplace2/Marketplace.sol\":17476:17486  _mainToken */\n  dup3\n    /* \"contracts/Marketplace2/Marketplace.sol\":17457:17466  mainToken */\n  0x09\n  0x00\n    /* \"contracts/Marketplace2/Marketplace.sol\":17457:17487  mainToken = IERC20(_mainToken) */\n  0x0100\n  exp\n  dup2\n  sload\n  dup2\n  0xffffffffffffffffffffffffffffffffffffffff\n  mul\n  not\n  and\n  swap1\n  dup4\n  0xffffffffffffffffffffffffffffffffffffffff\n  and\n  mul\n  or\n  swap1\n  sstore\n  pop\n    /* \"contracts/Marketplace2/Marketplace.sol\":17514:17522  _mainNFT */\n  dup2\n    /* \"contracts/Marketplace2/Marketplace.sol\":17495:17503  mainNFTs */\n  0x0b\n  0x00\n    /* \"contracts/Marketplace2/Marketplace.sol\":17495:17523  mainNFTs = IERC721(_mainNFT) */\n  0x0100\n  exp\n  dup2\n  sload\n  dup2\n  0xffffffffffffffffffffffffffffffffffffffff\n  mul\n  not\n  and\n  swap1\n  dup4\n  0xffffffffffffffffffffffffffffffffffffffff\n  and\n  mul\n  or\n  swap1\n  sstore\n  pop\n    /* \"contracts/Marketplace2/Marketplace.sol\":17550:17562  _mainFactory */\n  dup1\n    /* \"contracts/Marketplace2/Marketplace.sol\":17531:17538  factory */\n  0x0a\n  0x00\n    /* \"contracts/Marketplace2/Marketplace.sol\":17531:17563  factory = IFactory(_mainFactory) */\n  0x0100\n  exp\n  dup2\n  sload\n  dup2\n  0xffffffffffffffffffffffffffffffffffffffff\n  mul\n  not\n  and\n  swap1\n  dup4\n  0xffffffffffffffffffffffffffffffffffffffff\n  and\n  mul\n  or\n  swap1\n  sstore\n  pop\n    /* \"contracts/Marketplace2/Marketplace.sol\":17376:17570  constructor(address _mainToken, address _mainNFT, address _mainFactory ) {... */\n  pop\n  pop\n  pop\n    /* \"contracts/Marketplace2/Marketplace.sol\":17130:24486  contract NFTMarket is ReentrancyGuard,MarketplaceStorage, Ownable {... */\n  jump(tag_14)\n    /* \"contracts/Marketplace2/Marketplace.sol\":554:650  function _msgSender() internal view virtual returns (address) {... */\ntag_11:\n    /* \"contracts/Marketplace2/Marketplace.sol\":607:614  address */\n  0x00\n    /* \"contracts/Marketplace2/Marketplace.sol\":633:643  msg.sender */\n  caller\n    /* \"contracts/Marketplace2/Marketplace.sol\":626:643  return msg.sender */\n  swap1\n  pop\n    /* \"contracts/Marketplace2/Marketplace.sol\":554:650  function _msgSender() internal view virtual returns (address) {... */\n  swap1\n  jump\t// out\n    /* \"contracts/Marketplace2/Marketplace.sol\":2910:3097  function _transferOwnership(address newOwner) internal virtual {... */\ntag_12:\n    /* \"contracts/Marketplace2/Marketplace.sol\":2983:2999  address oldOwner */\n  0x00\n    /* \"contracts/Marketplace2/Marketplace.sol\":3002:3008  _owner */\n  0x0c\n  0x00\n  swap1\n  sload\n  swap1\n  0x0100\n  exp\n  swap1\n  div\n  0xffffffffffffffffffffffffffffffffffffffff\n  and\n    /* \"contracts/Marketplace2/Marketplace.sol\":2983:3008  address oldOwner = _owner */\n  swap1\n  pop\n    /* \"contracts/Marketplace2/Marketplace.sol\":3027:3035  newOwner */\n  dup2\n    /* \"contracts/Marketplace2/Marketplace.sol\":3018:3024  _owner */\n  0x0c\n  0x00\n    /* \"contracts/Marketplace2/Marketplace.sol\":3018:3035  _owner = newOwner */\n  0x0100\n  exp\n  dup2\n  sload\n  dup2\n  0xffffffffffffffffffffffffffffffffffffffff\n  mul\n  not\n  and\n  swap1\n  dup4\n  0xffffffffffffffffffffffffffffffffffffffff\n  and\n  mul\n  or\n  swap1\n  sstore\n  pop\n    /* \"contracts/Marketplace2/Marketplace.sol\":3081:3089  newOwner */\n  dup2\n    /* \"contracts/Marketplace2/Marketplace.sol\":3050:3090  OwnershipTransferred(oldOwner, newOwner) */\n  0xffffffffffffffffffffffffffffffffffffffff\n  and\n    /* \"contracts/Marketplace2/Marketplace.sol\":3071:3079  oldOwner */\n  dup2\n    /* \"contracts/Marketplace2/Marketplace.sol\":3050:3090  OwnershipTransferred(oldOwner, newOwner) */\n  0xffffffffffffffffffffffffffffffffffffffff\n  and\n  0x8be0079c531659141344cd1fd0a4f28419497f9722a3daafe3b4186f6b6457e0\n  mload(0x40)\n  mload(0x40)\n  dup1\n  swap2\n  sub\n  swap1\n  log3\n    /* \"contracts/Marketplace2/Marketplace.sol\":2973:3097  {... */\n  pop\n    /* \"contracts/Marketplace2/Marketplace.sol\":2910:3097  function _transferOwnership(address newOwner) internal virtual {... */\n  pop\n  jump\t// out\n    /* \"#utility.yul\":88:205   */\ntag_18:\n    /* \"#utility.yul\":197:198   */\n  0x00\n    /* \"#utility.yul\":194:195   */\n  dup1\n    /* \"#utility.yul\":187:199   */\n  revert\n    /* \"#utility.yul\":334:460   */\ntag_20:\n    /* \"#utility.yul\":371:378   */\n  0x00\n    /* \"#utility.yul\":411:453   */\n  0xffffffffffffffffffffffffffffffffffffffff\n    /* \"#utility.yul\":404:409   */\n  dup3\n    /* \"#utility.yul\":400:454   */\n  and\n    /* \"#utility.yul\":389:454   */\n  swap1\n  pop\n    /* \"#utility.yul\":334:460   */\n  swap2\n  swap1\n  pop\n  jump\t// out\n    /* \"#utility.yul\":466:562   */\ntag_21:\n    /* \"#utility.yul\":503:510   */\n  0x00\n    /* \"#utility.yul\":532:556   */\n  tag_30\n    /* \"#utility.yul\":550:555   */\n  dup3\n    /* \"#utility.yul\":532:556   */\n  tag_20\n  jump\t// in\ntag_30:\n    /* \"#utility.yul\":521:556   */\n  swap1\n  pop\n    /* \"#utility.yul\":466:562   */\n  swap2\n  swap1\n  pop\n  jump\t// out\n    /* \"#utility.yul\":568:690   */\ntag_22:\n    /* \"#utility.yul\":641:665   */\n  tag_32\n    /* \"#utility.yul\":659:664   */\n  dup2\n    /* \"#utility.yul\":641:665   */\n  tag_21\n  jump\t// in\ntag_32:\n    /* \"#utility.yul\":634:639   */\n  dup2\n    /* \"#utility.yul\":631:666   */\n  eq\n    /* \"#utility.yul\":621:684   */\n  tag_33\n  jumpi\n    /* \"#utility.yul\":680:681   */\n  0x00\n    /* \"#utility.yul\":677:678   */\n  dup1\n    /* \"#utility.yul\":670:682   */\n  revert\n    /* \"#utility.yul\":621:684   */\ntag_33:\n    /* \"#utility.yul\":568:690   */\n  pop\n  jump\t// out\n    /* \"#utility.yul\":696:839   */\ntag_23:\n    /* \"#utility.yul\":753:758   */\n  0x00\n    /* \"#utility.yul\":784:790   */\n  dup2\n    /* \"#utility.yul\":778:791   */\n  mload\n    /* \"#utility.yul\":769:791   */\n  swap1\n  pop\n    /* \"#utility.yul\":800:833   */\n  tag_35\n    /* \"#utility.yul\":827:832   */\n  dup2\n    /* \"#utility.yul\":800:833   */\n  tag_22\n  jump\t// in\ntag_35:\n    /* \"#utility.yul\":696:839   */\n  swap3\n  swap2\n  pop\n  pop\n  jump\t// out\n    /* \"#utility.yul\":845:1508   */\ntag_3:\n    /* \"#utility.yul\":933:939   */\n  0x00\n    /* \"#utility.yul\":941:947   */\n  dup1\n    /* \"#utility.yul\":949:955   */\n  0x00\n    /* \"#utility.yul\":998:1000   */\n  0x60\n    /* \"#utility.yul\":986:995   */\n  dup5\n    /* \"#utility.yul\":977:984   */\n  dup7\n    /* \"#utility.yul\":973:996   */\n  sub\n    /* \"#utility.yul\":969:1001   */\n  slt\n    /* \"#utility.yul\":966:1085   */\n  iszero\n  tag_37\n  jumpi\n    /* \"#utility.yul\":1004:1083   */\n  tag_38\n  tag_18\n  jump\t// in\ntag_38:\n    /* \"#utility.yul\":966:1085   */\ntag_37:\n    /* \"#utility.yul\":1124:1125   */\n  0x00\n    /* \"#utility.yul\":1149:1213   */\n  tag_39\n    /* \"#utility.yul\":1205:1212   */\n  dup7\n    /* \"#utility.yul\":1196:1202   */\n  dup3\n    /* \"#utility.yul\":1185:1194   */\n  dup8\n    /* \"#utility.yul\":1181:1203   */\n  add\n    /* \"#utility.yul\":1149:1213   */\n  tag_23\n  jump\t// in\ntag_39:\n    /* \"#utility.yul\":1139:1213   */\n  swap4\n  pop\n    /* \"#utility.yul\":1095:1223   */\n  pop\n    /* \"#utility.yul\":1262:1264   */\n  0x20\n    /* \"#utility.yul\":1288:1352   */\n  tag_40\n    /* \"#utility.yul\":1344:1351   */\n  dup7\n    /* \"#utility.yul\":1335:1341   */\n  dup3\n    /* \"#utility.yul\":1324:1333   */\n  dup8\n    /* \"#utility.yul\":1320:1342   */\n  add\n    /* \"#utility.yul\":1288:1352   */\n  tag_23\n  jump\t// in\ntag_40:\n    /* \"#utility.yul\":1278:1352   */\n  swap3\n  pop\n    /* \"#utility.yul\":1233:1362   */\n  pop\n    /* \"#utility.yul\":1401:1403   */\n  0x40\n    /* \"#utility.yul\":1427:1491   */\n  tag_41\n    /* \"#utility.yul\":1483:1490   */\n  dup7\n    /* \"#utility.yul\":1474:1480   */\n  dup3\n    /* \"#utility.yul\":1463:1472   */\n  dup8\n    /* \"#utility.yul\":1459:1481   */\n  add\n    /* \"#utility.yul\":1427:1491   */\n  tag_23\n  jump\t// in\ntag_41:\n    /* \"#utility.yul\":1417:1491   */\n  swap2\n  pop\n    /* \"#utility.yul\":1372:1501   */\n  pop\n    /* \"#utility.yul\":845:1508   */\n  swap3\n  pop\n  swap3\n  pop\n  swap3\n  jump\t// out\n    /* \"contracts/Marketplace2/Marketplace.sol\":17130:24486  contract NFTMarket is ReentrancyGuard,MarketplaceStorage, Ownable {... */\ntag_14:\n  dataSize(sub_0)\n  dup1\n  dataOffset(sub_0)\n  0x00\n  codecopy\n  0x00\n  return\nstop\n\nsub_0: assembly {\n        /* \"contracts/Marketplace2/Marketplace.sol\":17130:24486  contract NFTMarket is ReentrancyGuard,MarketplaceStorage, Ownable {... */\n      mstore(0x40, 0x80)\n      jumpi(tag_1, lt(calldatasize, 0x04))\n      shr(0xe0, calldataload(0x00))\n      dup1\n      0x715018a6\n      gt\n      tag_26\n      jumpi\n      dup1\n      0xc45a0155\n      gt\n      tag_27\n      jumpi\n      dup1\n      0xc45a0155\n      eq\n      tag_20\n      jumpi\n      dup1\n      0xc7be7a49\n      eq\n      tag_21\n      jumpi\n      dup1\n      0xe0606dd8\n      eq\n      tag_22\n      jumpi\n      dup1\n      0xf2fde38b\n      eq\n      tag_23\n      jumpi\n      dup1\n      0xf55de0c7\n      eq\n      tag_24\n      jumpi\n      dup1\n      0xff68fa6e\n      eq\n      tag_25\n      jumpi\n      jump(tag_1)\n    tag_27:\n      dup1\n      0x715018a6\n      eq\n      tag_14\n      jumpi\n      dup1\n      0x85a8b36c\n      eq\n      tag_15\n      jumpi\n      dup1\n      0x8da5cb5b\n      eq\n      tag_16\n      jumpi\n      dup1\n      0xa1c11ca8\n      eq\n      tag_17\n      jumpi\n      dup1\n      0xad9a0369\n      eq\n      tag_18\n      jumpi\n      dup1\n      0xb7a60c7e\n      eq\n      tag_19\n      jumpi\n      jump(tag_1)\n    tag_26:\n      dup1\n      0x2b4c32be\n      gt\n      tag_28\n      jumpi\n      dup1\n      0x2b4c32be\n      eq\n      tag_8\n      jumpi\n      dup1\n      0x361c1995\n      eq\n      tag_9\n      jumpi\n      dup1\n      0x3fc15f15\n      eq\n      tag_10\n      jumpi\n      dup1\n      0x517bd451\n      eq\n      tag_11\n      jumpi\n      dup1\n      0x5bb47808\n      eq\n      tag_12\n      jumpi\n      dup1\n      0x5c80a435\n      eq\n      tag_13\n      jumpi\n      jump(tag_1)\n    tag_28:\n      dup1\n      0x0f08efe0\n      eq\n      tag_2\n      jumpi\n      dup1\n      0x15b12494\n      eq\n      tag_3\n      jumpi\n      dup1\n      0x16e7031a\n      eq\n      tag_4\n      jumpi\n      dup1\n      0x202e3740\n      eq\n      tag_5\n      jumpi\n      dup1\n      0x27ce464e\n      eq\n      tag_6\n      jumpi\n      dup1\n      0x2a45b250\n      eq\n      tag_7\n      jumpi\n    tag_1:\n      0x00\n      dup1\n      revert\n        /* \"contracts/Marketplace2/Marketplace.sol\":20110:20210  function fetchMarketItems() public view returns (MarketItem memory) {... */\n    tag_2:\n      callvalue\n      dup1\n      iszero\n      tag_29\n      jumpi\n      0x00\n      dup1\n      revert\n    tag_29:\n      pop\n      tag_30\n      tag_31\n      jump\t// in\n    tag_30:\n      mload(0x40)\n      tag_32\n      swap2\n      swap1\n      tag_33\n      jump\t// in\n    tag_32:\n      mload(0x40)\n      dup1\n      swap2\n      sub\n      swap1\n      return\n        /* \"contracts/Marketplace2/Marketplace.sol\":17828:17930  function setMainNFT(address _address) external onlyOwner {... */\n    tag_3:\n      callvalue\n      dup1\n      iszero\n      tag_34\n      jumpi\n      0x00\n      dup1\n      revert\n    tag_34:\n      pop\n      tag_35\n      0x04\n      dup1\n      calldatasize\n      sub\n      dup2\n      add\n      swap1\n      tag_36\n      swap2\n      swap1\n      tag_37\n      jump\t// in\n    tag_36:\n      tag_38\n      jump\t// in\n    tag_35:\n      stop\n        /* \"contracts/Marketplace2/Marketplace.sol\":18043:18216  function getAlalalalala(uint tokenId) public view returns (bool) { ... */\n    tag_4:\n      callvalue\n      dup1\n      iszero\n      tag_39\n      jumpi\n      0x00\n      dup1\n      revert\n    tag_39:\n      pop\n      tag_40\n      0x04\n      dup1\n      calldatasize\n      sub\n      dup2\n      add\n      swap1\n      tag_41\n      swap2\n      swap1\n      tag_42\n      jump\t// in\n    tag_41:\n      tag_43\n      jump\t// in\n    tag_40:\n      mload(0x40)\n      tag_44\n      swap2\n      swap1\n      tag_45\n      jump\t// in\n    tag_44:\n      mload(0x40)\n      dup1\n      swap2\n      sub\n      swap1\n      return\n        /* \"contracts/Marketplace2/Marketplace.sol\":20214:20917  function fetchMyNFTs() public view returns (MarketItem[] memory) {... */\n    tag_5:\n      callvalue\n      dup1\n      iszero\n      tag_46\n      jumpi\n      0x00\n      dup1\n      revert\n    tag_46:\n      pop\n      tag_47\n      tag_48\n      jump\t// in\n    tag_47:\n      mload(0x40)\n      tag_49\n      swap2\n      swap1\n      tag_50\n      jump\t// in\n    tag_49:\n      mload(0x40)\n      dup1\n      swap2\n      sub\n      swap1\n      return\n        /* \"contracts/Marketplace2/Marketplace.sol\":17719:17823  function setMainToken(address _address) external onlyOwner {... */\n    tag_6:\n      callvalue\n      dup1\n      iszero\n      tag_51\n      jumpi\n      0x00\n      dup1\n      revert\n    tag_51:\n      pop\n      tag_52\n      0x04\n      dup1\n      calldatasize\n      sub\n      dup2\n      add\n      swap1\n      tag_53\n      swap2\n      swap1\n      tag_37\n      jump\t// in\n    tag_53:\n      tag_54\n      jump\t// in\n    tag_52:\n      stop\n        /* \"contracts/Marketplace2/Marketplace.sol\":19953:20106  function fetchMarketItem(uint itemId) public view returns (MarketItem memory) {... */\n    tag_7:\n      callvalue\n      dup1\n      iszero\n      tag_55\n      jumpi\n      0x00\n      dup1\n      revert\n    tag_55:\n      pop\n      tag_56\n      0x04\n      dup1\n      calldatasize\n      sub\n      dup2\n      add\n      swap1\n      tag_57\n      swap2\n      swap1\n      tag_42\n      jump\t// in\n    tag_57:\n      tag_58\n      jump\t// in\n    tag_56:\n      mload(0x40)\n      tag_59\n      swap2\n      swap1\n      tag_33\n      jump\t// in\n    tag_59:\n      mload(0x40)\n      dup1\n      swap2\n      sub\n      swap1\n      return\n        /* \"contracts/Marketplace2/Marketplace.sol\":15836:15896  bytes4 public constant ERC721_Interface = bytes4(0x80ac58cd) */\n    tag_8:\n      callvalue\n      dup1\n      iszero\n      tag_60\n      jumpi\n      0x00\n      dup1\n      revert\n    tag_60:\n      pop\n      tag_61\n      tag_62\n      jump\t// in\n    tag_61:\n      mload(0x40)\n      tag_63\n      swap2\n      swap1\n      tag_64\n      jump\t// in\n    tag_63:\n      mload(0x40)\n      dup1\n      swap2\n      sub\n      swap1\n      return\n        /* \"contracts/Marketplace2/Marketplace.sol\":18220:18932  function createMarketItem(... */\n    tag_9:\n      tag_65\n      0x04\n      dup1\n      calldatasize\n      sub\n      dup2\n      add\n      swap1\n      tag_66\n      swap2\n      swap1\n      tag_67\n      jump\t// in\n    tag_66:\n      tag_68\n      jump\t// in\n    tag_65:\n      stop\n        /* \"contracts/Marketplace2/Marketplace.sol\":16097:16120  IERC20 public mainToken */\n    tag_10:\n      callvalue\n      dup1\n      iszero\n      tag_69\n      jumpi\n      0x00\n      dup1\n      revert\n    tag_69:\n      pop\n      tag_70\n      tag_71\n      jump\t// in\n    tag_70:\n      mload(0x40)\n      tag_72\n      swap2\n      swap1\n      tag_73\n      jump\t// in\n    tag_72:\n      mload(0x40)\n      dup1\n      swap2\n      sub\n      swap1\n      return\n        /* \"contracts/Marketplace2/Marketplace.sol\":15797:15829  MarketItem public allMarketItems */\n    tag_11:\n      callvalue\n      dup1\n      iszero\n      tag_74\n      jumpi\n      0x00\n      dup1\n      revert\n    tag_74:\n      pop\n      tag_75\n      tag_76\n      jump\t// in\n    tag_75:\n      mload(0x40)\n      tag_77\n      swap7\n      swap6\n      swap5\n      swap4\n      swap3\n      swap2\n      swap1\n      tag_78\n      jump\t// in\n    tag_77:\n      mload(0x40)\n      dup1\n      swap2\n      sub\n      swap1\n      return\n        /* \"contracts/Marketplace2/Marketplace.sol\":17935:18037  function setFactory(address _address) external onlyOwner {... */\n    tag_12:\n      callvalue\n      dup1\n      iszero\n      tag_79\n      jumpi\n      0x00\n      dup1\n      revert\n    tag_79:\n      pop\n      tag_80\n      0x04\n      dup1\n      calldatasize\n      sub\n      dup2\n      add\n      swap1\n      tag_81\n      swap2\n      swap1\n      tag_37\n      jump\t// in\n    tag_81:\n      tag_82\n      jump\t// in\n    tag_80:\n      stop\n        /* \"contracts/Marketplace2/Marketplace.sol\":16027:16090  mapping(address => mapping(uint256 => MarketItem)) public items */\n    tag_13:\n      callvalue\n      dup1\n      iszero\n      tag_83\n      jumpi\n      0x00\n      dup1\n      revert\n    tag_83:\n      pop\n      tag_84\n      0x04\n      dup1\n      calldatasize\n      sub\n      dup2\n      add\n      swap1\n      tag_85\n      swap2\n      swap1\n      tag_86\n      jump\t// in\n    tag_85:\n      tag_87\n      jump\t// in\n    tag_84:\n      mload(0x40)\n      tag_88\n      swap7\n      swap6\n      swap5\n      swap4\n      swap3\n      swap2\n      swap1\n      tag_78\n      jump\t// in\n    tag_88:\n      mload(0x40)\n      dup1\n      swap2\n      sub\n      swap1\n      return\n        /* \"contracts/Marketplace2/Marketplace.sol\":2308:2409  function renounceOwnership() public virtual onlyOwner {... */\n    tag_14:\n      callvalue\n      dup1\n      iszero\n      tag_89\n      jumpi\n      0x00\n      dup1\n      revert\n    tag_89:\n      pop\n      tag_90\n      tag_91\n      jump\t// in\n    tag_90:\n      stop\n        /* \"contracts/Marketplace2/Marketplace.sol\":16185:16211  uint8 public bnbFeePercent */\n    tag_15:\n      callvalue\n      dup1\n      iszero\n      tag_92\n      jumpi\n      0x00\n      dup1\n      revert\n    tag_92:\n      pop\n      tag_93\n      tag_94\n      jump\t// in\n    tag_93:\n      mload(0x40)\n      tag_95\n      swap2\n      swap1\n      tag_96\n      jump\t// in\n    tag_95:\n      mload(0x40)\n      dup1\n      swap2\n      sub\n      swap1\n      return\n        /* \"contracts/Marketplace2/Marketplace.sol\":1676:1761  function owner() public view virtual returns (address) {... */\n    tag_16:\n      callvalue\n      dup1\n      iszero\n      tag_97\n      jumpi\n      0x00\n      dup1\n      revert\n    tag_97:\n      pop\n      tag_98\n      tag_99\n      jump\t// in\n    tag_98:\n      mload(0x40)\n      tag_100\n      swap2\n      swap1\n      tag_101\n      jump\t// in\n    tag_100:\n      mload(0x40)\n      dup1\n      swap2\n      sub\n      swap1\n      return\n        /* \"contracts/Marketplace2/Marketplace.sol\":19147:19949  function createMarketSale(... */\n    tag_17:\n      callvalue\n      dup1\n      iszero\n      tag_102\n      jumpi\n      0x00\n      dup1\n      revert\n    tag_102:\n      pop\n      tag_103\n      0x04\n      dup1\n      calldatasize\n      sub\n      dup2\n      add\n      swap1\n      tag_104\n      swap2\n      swap1\n      tag_67\n      jump\t// in\n    tag_104:\n      tag_105\n      jump\t// in\n    tag_103:\n      stop\n        /* \"contracts/Marketplace2/Marketplace.sol\":20921:21814  function delistItem(address nftAddress, uint256 itemId) public {... */\n    tag_18:\n      callvalue\n      dup1\n      iszero\n      tag_106\n      jumpi\n      0x00\n      dup1\n      revert\n    tag_106:\n      pop\n      tag_107\n      0x04\n      dup1\n      calldatasize\n      sub\n      dup2\n      add\n      swap1\n      tag_108\n      swap2\n      swap1\n      tag_86\n      jump\t// in\n    tag_108:\n      tag_109\n      jump\t// in\n    tag_107:\n      stop\n        /* \"contracts/Marketplace2/Marketplace.sol\":16217:16244  uint8 public antaFeePercent */\n    tag_19:\n      callvalue\n      dup1\n      iszero\n      tag_110\n      jumpi\n      0x00\n      dup1\n      revert\n    tag_110:\n      pop\n      tag_111\n      tag_112\n      jump\t// in\n    tag_111:\n      mload(0x40)\n      tag_113\n      swap2\n      swap1\n      tag_96\n      jump\t// in\n    tag_113:\n      mload(0x40)\n      dup1\n      swap2\n      sub\n      swap1\n      return\n        /* \"contracts/Marketplace2/Marketplace.sol\":16126:16149  IFactory public factory */\n    tag_20:\n      callvalue\n      dup1\n      iszero\n      tag_114\n      jumpi\n      0x00\n      dup1\n      revert\n    tag_114:\n      pop\n      tag_115\n      tag_116\n      jump\t// in\n    tag_115:\n      mload(0x40)\n      tag_117\n      swap2\n      swap1\n      tag_118\n      jump\t// in\n    tag_117:\n      mload(0x40)\n      dup1\n      swap2\n      sub\n      swap1\n      return\n        /* \"contracts/Marketplace2/Marketplace.sol\":17576:17713  function getMarketItem(uint256 marketItemId) public view returns (MarketItem memory) {... */\n    tag_21:\n      callvalue\n      dup1\n      iszero\n      tag_119\n      jumpi\n      0x00\n      dup1\n      revert\n    tag_119:\n      pop\n      tag_120\n      0x04\n      dup1\n      calldatasize\n      sub\n      dup2\n      add\n      swap1\n      tag_121\n      swap2\n      swap1\n      tag_42\n      jump\t// in\n    tag_121:\n      tag_122\n      jump\t// in\n    tag_120:\n      mload(0x40)\n      tag_123\n      swap2\n      swap1\n      tag_33\n      jump\t// in\n    tag_123:\n      mload(0x40)\n      dup1\n      swap2\n      sub\n      swap1\n      return\n        /* \"contracts/Marketplace2/Marketplace.sol\":18938:19143  function testView(uint256 tokenId) public view returns (address) { ... */\n    tag_22:\n      callvalue\n      dup1\n      iszero\n      tag_124\n      jumpi\n      0x00\n      dup1\n      revert\n    tag_124:\n      pop\n      tag_125\n      0x04\n      dup1\n      calldatasize\n      sub\n      dup2\n      add\n      swap1\n      tag_126\n      swap2\n      swap1\n      tag_42\n      jump\t// in\n    tag_126:\n      tag_127\n      jump\t// in\n    tag_125:\n      mload(0x40)\n      tag_128\n      swap2\n      swap1\n      tag_101\n      jump\t// in\n    tag_128:\n      mload(0x40)\n      dup1\n      swap2\n      sub\n      swap1\n      return\n        /* \"contracts/Marketplace2/Marketplace.sol\":2558:2756  function transferOwnership(address newOwner) public virtual onlyOwner {... */\n    tag_23:\n      callvalue\n      dup1\n      iszero\n      tag_129\n      jumpi\n      0x00\n      dup1\n      revert\n    tag_129:\n      pop\n      tag_130\n      0x04\n      dup1\n      calldatasize\n      sub\n      dup2\n      add\n      swap1\n      tag_131\n      swap2\n      swap1\n      tag_37\n      jump\t// in\n    tag_131:\n      tag_132\n      jump\t// in\n    tag_130:\n      stop\n        /* \"contracts/Marketplace2/Marketplace.sol\":16155:16178  IERC721 public mainNFTs */\n    tag_24:\n      callvalue\n      dup1\n      iszero\n      tag_133\n      jumpi\n      0x00\n      dup1\n      revert\n    tag_133:\n      pop\n      tag_134\n      tag_135\n      jump\t// in\n    tag_134:\n      mload(0x40)\n      tag_136\n      swap2\n      swap1\n      tag_137\n      jump\t// in\n    tag_136:\n      mload(0x40)\n      dup1\n      swap2\n      sub\n      swap1\n      return\n        /* \"contracts/Marketplace2/Marketplace.sol\":15903:15950  mapping (uint256 => MarketItem) public allItems */\n    tag_25:\n      callvalue\n      dup1\n      iszero\n      tag_138\n      jumpi\n      0x00\n      dup1\n      revert\n    tag_138:\n      pop\n      tag_139\n      0x04\n      dup1\n      calldatasize\n      sub\n      dup2\n      add\n      swap1\n      tag_140\n      swap2\n      swap1\n      tag_42\n      jump\t// in\n    tag_140:\n      tag_141\n      jump\t// in\n    tag_139:\n      mload(0x40)\n      tag_142\n      swap7\n      swap6\n      swap5\n      swap4\n      swap3\n      swap2\n      swap1\n      tag_78\n      jump\t// in\n    tag_142:\n      mload(0x40)\n      dup1\n      swap2\n      sub\n      swap1\n      return\n        /* \"contracts/Marketplace2/Marketplace.sol\":20110:20210  function fetchMarketItems() public view returns (MarketItem memory) {... */\n    tag_31:\n        /* \"contracts/Marketplace2/Marketplace.sol\":20159:20176  MarketItem memory */\n      tag_143\n      tag_144\n      jump\t// in\n    tag_143:\n        /* \"contracts/Marketplace2/Marketplace.sol\":20191:20205  allMarketItems */\n      0x01\n        /* \"contracts/Marketplace2/Marketplace.sol\":20184:20205  return allMarketItems */\n      mload(0x40)\n      dup1\n      0xc0\n      add\n      0x40\n      mstore\n      swap1\n      dup2\n      0x00\n      dup3\n      add\n      sload\n      dup2\n      mstore\n      0x20\n      add\n      0x01\n      dup3\n      add\n      sload\n      dup2\n      mstore\n      0x20\n      add\n      0x02\n      dup3\n      add\n      0x00\n      swap1\n      sload\n      swap1\n      0x0100\n      exp\n      swap1\n      div\n      0xffffffffffffffffffffffffffffffffffffffff\n      and\n      0xffffffffffffffffffffffffffffffffffffffff\n      and\n      0xffffffffffffffffffffffffffffffffffffffff\n      and\n      dup2\n      mstore\n      0x20\n      add\n      0x03\n      dup3\n      add\n      0x00\n      swap1\n      sload\n      swap1\n      0x0100\n      exp\n      swap1\n      div\n      0xffffffffffffffffffffffffffffffffffffffff\n      and\n      0xffffffffffffffffffffffffffffffffffffffff\n      and\n      0xffffffffffffffffffffffffffffffffffffffff\n      and\n      dup2\n      mstore\n      0x20\n      add\n      0x04\n      dup3\n      add\n      sload\n      dup2\n      mstore\n      0x20\n      add\n      0x05\n      dup3\n      add\n      0x00\n      swap1\n      sload\n      swap1\n      0x0100\n      exp\n      swap1\n      div\n      0xff\n      and\n      0x01\n      dup2\n      gt\n      iszero\n      tag_146\n      jumpi\n      tag_147\n      tag_148\n      jump\t// in\n    tag_147:\n    tag_146:\n      0x01\n      dup2\n      gt\n      iszero\n      tag_149\n      jumpi\n      tag_150\n      tag_148\n      jump\t// in\n    tag_150:\n    tag_149:\n      dup2\n      mstore\n      pop\n      pop\n      swap1\n      pop\n        /* \"contracts/Marketplace2/Marketplace.sol\":20110:20210  function fetchMarketItems() public view returns (MarketItem memory) {... */\n      swap1\n      jump\t// out\n        /* \"contracts/Marketplace2/Marketplace.sol\":17828:17930  function setMainNFT(address _address) external onlyOwner {... */\n    tag_38:\n        /* \"contracts/Marketplace2/Marketplace.sol\":1899:1911  _msgSender() */\n      tag_152\n        /* \"contracts/Marketplace2/Marketplace.sol\":1899:1909  _msgSender */\n      tag_153\n        /* \"contracts/Marketplace2/Marketplace.sol\":1899:1911  _msgSender() */\n      jump\t// in\n    tag_152:\n        /* \"contracts/Marketplace2/Marketplace.sol\":1888:1911  owner() == _msgSender() */\n      0xffffffffffffffffffffffffffffffffffffffff\n      and\n        /* \"contracts/Marketplace2/Marketplace.sol\":1888:1895  owner() */\n      tag_154\n        /* \"contracts/Marketplace2/Marketplace.sol\":1888:1893  owner */\n      tag_99\n        /* \"contracts/Marketplace2/Marketplace.sol\":1888:1895  owner() */\n      jump\t// in\n    tag_154:\n        /* \"contracts/Marketplace2/Marketplace.sol\":1888:1911  owner() == _msgSender() */\n      0xffffffffffffffffffffffffffffffffffffffff\n      and\n      eq\n        /* \"contracts/Marketplace2/Marketplace.sol\":1880:1948  require(owner() == _msgSender(), \"Ownable: caller is not the owner\") */\n      tag_155\n      jumpi\n      mload(0x40)\n      0x08c379a000000000000000000000000000000000000000000000000000000000\n      dup2\n      mstore\n      0x04\n      add\n      tag_156\n      swap1\n      tag_157\n      jump\t// in\n    tag_156:\n      mload(0x40)\n      dup1\n      swap2\n      sub\n      swap1\n      revert\n    tag_155:\n        /* \"contracts/Marketplace2/Marketplace.sol\":17914:17922  _address */\n      dup1\n        /* \"contracts/Marketplace2/Marketplace.sol\":17895:17903  mainNFTs */\n      0x0b\n      0x00\n        /* \"contracts/Marketplace2/Marketplace.sol\":17895:17923  mainNFTs = IERC721(_address) */\n      0x0100\n      exp\n      dup2\n      sload\n      dup2\n      0xffffffffffffffffffffffffffffffffffffffff\n      mul\n      not\n      and\n      swap1\n      dup4\n      0xffffffffffffffffffffffffffffffffffffffff\n      and\n      mul\n      or\n      swap1\n      sstore\n      pop\n        /* \"contracts/Marketplace2/Marketplace.sol\":17828:17930  function setMainNFT(address _address) external onlyOwner {... */\n      pop\n      jump\t// out\n        /* \"contracts/Marketplace2/Marketplace.sol\":18043:18216  function getAlalalalala(uint tokenId) public view returns (bool) { ... */\n    tag_43:\n        /* \"contracts/Marketplace2/Marketplace.sol\":18102:18106  bool */\n      0x00\n        /* \"contracts/Marketplace2/Marketplace.sol\":18119:18151  IFactory.ingameItems memory item */\n      dup1\n        /* \"contracts/Marketplace2/Marketplace.sol\":18154:18161  factory */\n      0x0a\n      0x00\n      swap1\n      sload\n      swap1\n      0x0100\n      exp\n      swap1\n      div\n      0xffffffffffffffffffffffffffffffffffffffff\n      and\n        /* \"contracts/Marketplace2/Marketplace.sol\":18154:18172  factory.ingameItem */\n      0xffffffffffffffffffffffffffffffffffffffff\n      and\n      0xd30bdac9\n        /* \"contracts/Marketplace2/Marketplace.sol\":18173:18180  tokenId */\n      dup5\n        /* \"contracts/Marketplace2/Marketplace.sol\":18154:18181  factory.ingameItem(tokenId) */\n      mload(0x40)\n      dup3\n      0xffffffff\n      and\n      0xe0\n      shl\n      dup2\n      mstore\n      0x04\n      add\n      tag_160\n      swap2\n      swap1\n      tag_161\n      jump\t// in\n    tag_160:\n      0x00\n      mload(0x40)\n      dup1\n      dup4\n      sub\n      dup2\n      dup7\n      gas\n      staticcall\n      iszero\n      dup1\n      iszero\n      tag_163\n      jumpi\n      returndatasize\n      0x00\n      dup1\n      returndatacopy\n      revert(0x00, returndatasize)\n    tag_163:\n      pop\n      pop\n      pop\n      pop\n      mload(0x40)\n      returndatasize\n      0x00\n      dup3\n      returndatacopy\n      returndatasize\n      not(0x1f)\n      0x1f\n      dup3\n      add\n      and\n      dup3\n      add\n      dup1\n      0x40\n      mstore\n      pop\n      dup2\n      add\n      swap1\n      tag_164\n      swap2\n      swap1\n      tag_165\n      jump\t// in\n    tag_164:\n        /* \"contracts/Marketplace2/Marketplace.sol\":18119:18181  IFactory.ingameItems memory item = factory.ingameItem(tokenId) */\n      swap1\n      pop\n        /* \"contracts/Marketplace2/Marketplace.sol\":18198:18202  item */\n      dup1\n        /* \"contracts/Marketplace2/Marketplace.sol\":18198:18209  item.ingame */\n      0x80\n      add\n      mload\n        /* \"contracts/Marketplace2/Marketplace.sol\":18191:18209  return item.ingame */\n      swap2\n      pop\n      pop\n        /* \"contracts/Marketplace2/Marketplace.sol\":18043:18216  function getAlalalalala(uint tokenId) public view returns (bool) { ... */\n      swap2\n      swap1\n      pop\n      jump\t// out\n        /* \"contracts/Marketplace2/Marketplace.sol\":20214:20917  function fetchMyNFTs() public view returns (MarketItem[] memory) {... */\n    tag_48:\n        /* \"contracts/Marketplace2/Marketplace.sol\":20258:20277  MarketItem[] memory */\n      0x60\n        /* \"contracts/Marketplace2/Marketplace.sol\":20285:20304  uint totalItemCount */\n      0x00\n        /* \"contracts/Marketplace2/Marketplace.sol\":20307:20325  _itemIds.current() */\n      tag_167\n        /* \"contracts/Marketplace2/Marketplace.sol\":20307:20315  _itemIds */\n      0x0d\n        /* \"contracts/Marketplace2/Marketplace.sol\":20307:20323  _itemIds.current */\n      tag_168\n        /* \"contracts/Marketplace2/Marketplace.sol\":20307:20325  _itemIds.current() */\n      jump\t// in\n    tag_167:\n        /* \"contracts/Marketplace2/Marketplace.sol\":20285:20325  uint totalItemCount = _itemIds.current() */\n      swap1\n      pop\n        /* \"contracts/Marketplace2/Marketplace.sol\":20331:20345  uint itemCount */\n      0x00\n        /* \"contracts/Marketplace2/Marketplace.sol\":20355:20372  uint currentIndex */\n      dup1\n        /* \"contracts/Marketplace2/Marketplace.sol\":20388:20394  uint i */\n      0x00\n        /* \"contracts/Marketplace2/Marketplace.sol\":20383:20519  for (uint i = 0; i < totalItemCount; i++) {... */\n    tag_169:\n        /* \"contracts/Marketplace2/Marketplace.sol\":20404:20418  totalItemCount */\n      dup4\n        /* \"contracts/Marketplace2/Marketplace.sol\":20400:20401  i */\n      dup2\n        /* \"contracts/Marketplace2/Marketplace.sol\":20400:20418  i < totalItemCount */\n      lt\n        /* \"contracts/Marketplace2/Marketplace.sol\":20383:20519  for (uint i = 0; i < totalItemCount; i++) {... */\n      iszero\n      tag_170\n      jumpi\n        /* \"contracts/Marketplace2/Marketplace.sol\":20468:20478  msg.sender */\n      caller\n        /* \"contracts/Marketplace2/Marketplace.sol\":20437:20478  idToMarketItem[i + 1].owner == msg.sender */\n      0xffffffffffffffffffffffffffffffffffffffff\n      and\n        /* \"contracts/Marketplace2/Marketplace.sol\":20437:20451  idToMarketItem */\n      0x0f\n        /* \"contracts/Marketplace2/Marketplace.sol\":20437:20458  idToMarketItem[i + 1] */\n      0x00\n        /* \"contracts/Marketplace2/Marketplace.sol\":20456:20457  1 */\n      0x01\n        /* \"contracts/Marketplace2/Marketplace.sol\":20452:20453  i */\n      dup5\n        /* \"contracts/Marketplace2/Marketplace.sol\":20452:20457  i + 1 */\n      tag_172\n      swap2\n      swap1\n      tag_173\n      jump\t// in\n    tag_172:\n        /* \"contracts/Marketplace2/Marketplace.sol\":20437:20458  idToMarketItem[i + 1] */\n      dup2\n      mstore\n      0x20\n      add\n      swap1\n      dup2\n      mstore\n      0x20\n      add\n      0x00\n      keccak256\n        /* \"contracts/Marketplace2/Marketplace.sol\":20437:20464  idToMarketItem[i + 1].owner */\n      0x03\n      add\n      0x00\n      swap1\n      sload\n      swap1\n      0x0100\n      exp\n      swap1\n      div\n      0xffffffffffffffffffffffffffffffffffffffff\n      and\n        /* \"contracts/Marketplace2/Marketplace.sol\":20437:20478  idToMarketItem[i + 1].owner == msg.sender */\n      0xffffffffffffffffffffffffffffffffffffffff\n      and\n      sub\n        /* \"contracts/Marketplace2/Marketplace.sol\":20433:20513  if (idToMarketItem[i + 1].owner == msg.sender) {... */\n      tag_174\n      jumpi\n        /* \"contracts/Marketplace2/Marketplace.sol\":20503:20504  1 */\n      0x01\n        /* \"contracts/Marketplace2/Marketplace.sol\":20490:20504  itemCount += 1 */\n      dup4\n      tag_175\n      swap2\n      swap1\n      tag_173\n      jump\t// in\n    tag_175:\n      swap3\n      pop\n        /* \"contracts/Marketplace2/Marketplace.sol\":20433:20513  if (idToMarketItem[i + 1].owner == msg.sender) {... */\n    tag_174:\n        /* \"contracts/Marketplace2/Marketplace.sol\":20420:20423  i++ */\n      dup1\n      dup1\n      tag_176\n      swap1\n      tag_177\n      jump\t// in\n    tag_176:\n      swap2\n      pop\n      pop\n        /* \"contracts/Marketplace2/Marketplace.sol\":20383:20519  for (uint i = 0; i < totalItemCount; i++) {... */\n      jump(tag_169)\n    tag_170:\n      pop\n        /* \"contracts/Marketplace2/Marketplace.sol\":20525:20550  MarketItem[] memory items */\n      0x00\n        /* \"contracts/Marketplace2/Marketplace.sol\":20570:20579  itemCount */\n      dup3\n        /* \"contracts/Marketplace2/Marketplace.sol\":20553:20580  new MarketItem[](itemCount) */\n      0xffffffffffffffff\n      dup2\n      gt\n      iszero\n      tag_178\n      jumpi\n      tag_179\n      tag_180\n      jump\t// in\n    tag_179:\n    tag_178:\n      mload(0x40)\n      swap1\n      dup1\n      dup3\n      mstore\n      dup1\n      0x20\n      mul\n      0x20\n      add\n      dup3\n      add\n      0x40\n      mstore\n      dup1\n      iszero\n      tag_181\n      jumpi\n      dup2\n      0x20\n      add\n    tag_182:\n      tag_183\n      tag_144\n      jump\t// in\n    tag_183:\n      dup2\n      mstore\n      0x20\n      add\n      swap1\n      0x01\n      swap1\n      sub\n      swap1\n      dup2\n      tag_182\n      jumpi\n      swap1\n      pop\n    tag_181:\n      pop\n        /* \"contracts/Marketplace2/Marketplace.sol\":20525:20580  MarketItem[] memory items = new MarketItem[](itemCount) */\n      swap1\n      pop\n        /* \"contracts/Marketplace2/Marketplace.sol\":20591:20597  uint i */\n      0x00\n        /* \"contracts/Marketplace2/Marketplace.sol\":20586:20891  for (uint i = 0; i < totalItemCount; i++) {... */\n    tag_184:\n        /* \"contracts/Marketplace2/Marketplace.sol\":20607:20621  totalItemCount */\n      dup5\n        /* \"contracts/Marketplace2/Marketplace.sol\":20603:20604  i */\n      dup2\n        /* \"contracts/Marketplace2/Marketplace.sol\":20603:20621  i < totalItemCount */\n      lt\n        /* \"contracts/Marketplace2/Marketplace.sol\":20586:20891  for (uint i = 0; i < totalItemCount; i++) {... */\n      iszero\n      tag_185\n      jumpi\n        /* \"contracts/Marketplace2/Marketplace.sol\":20671:20681  msg.sender */\n      caller\n        /* \"contracts/Marketplace2/Marketplace.sol\":20640:20681  idToMarketItem[i + 1].owner == msg.sender */\n      0xffffffffffffffffffffffffffffffffffffffff\n      and\n        /* \"contracts/Marketplace2/Marketplace.sol\":20640:20654  idToMarketItem */\n      0x0f\n        /* \"contracts/Marketplace2/Marketplace.sol\":20640:20661  idToMarketItem[i + 1] */\n      0x00\n        /* \"contracts/Marketplace2/Marketplace.sol\":20659:20660  1 */\n      0x01\n        /* \"contracts/Marketplace2/Marketplace.sol\":20655:20656  i */\n      dup5\n        /* \"contracts/Marketplace2/Marketplace.sol\":20655:20660  i + 1 */\n      tag_187\n      swap2\n      swap1\n      tag_173\n      jump\t// in\n    tag_187:\n        /* \"contracts/Marketplace2/Marketplace.sol\":20640:20661  idToMarketItem[i + 1] */\n      dup2\n      mstore\n      0x20\n      add\n      swap1\n      dup2\n      mstore\n      0x20\n      add\n      0x00\n      keccak256\n        /* \"contracts/Marketplace2/Marketplace.sol\":20640:20667  idToMarketItem[i + 1].owner */\n      0x03\n      add\n      0x00\n      swap1\n      sload\n      swap1\n      0x0100\n      exp\n      swap1\n      div\n      0xffffffffffffffffffffffffffffffffffffffff\n      and\n        /* \"contracts/Marketplace2/Marketplace.sol\":20640:20681  idToMarketItem[i + 1].owner == msg.sender */\n      0xffffffffffffffffffffffffffffffffffffffff\n      and\n      sub\n        /* \"contracts/Marketplace2/Marketplace.sol\":20636:20885  if (idToMarketItem[i + 1].owner == msg.sender) {... */\n      tag_188\n      jumpi\n        /* \"contracts/Marketplace2/Marketplace.sol\":20693:20707  uint currentId */\n      0x00\n        /* \"contracts/Marketplace2/Marketplace.sol\":20710:20724  idToMarketItem */\n      0x0f\n        /* \"contracts/Marketplace2/Marketplace.sol\":20710:20731  idToMarketItem[i + 1] */\n      0x00\n        /* \"contracts/Marketplace2/Marketplace.sol\":20729:20730  1 */\n      0x01\n        /* \"contracts/Marketplace2/Marketplace.sol\":20725:20726  i */\n      dup5\n        /* \"contracts/Marketplace2/Marketplace.sol\":20725:20730  i + 1 */\n      tag_189\n      swap2\n      swap1\n      tag_173\n      jump\t// in\n    tag_189:\n        /* \"contracts/Marketplace2/Marketplace.sol\":20710:20731  idToMarketItem[i + 1] */\n      dup2\n      mstore\n      0x20\n      add\n      swap1\n      dup2\n      mstore\n      0x20\n      add\n      0x00\n      keccak256\n        /* \"contracts/Marketplace2/Marketplace.sol\":20710:20738  idToMarketItem[i + 1].itemId */\n      0x00\n      add\n      sload\n        /* \"contracts/Marketplace2/Marketplace.sol\":20693:20738  uint currentId = idToMarketItem[i + 1].itemId */\n      swap1\n      pop\n        /* \"contracts/Marketplace2/Marketplace.sol\":20748:20778  MarketItem storage currentItem */\n      0x00\n        /* \"contracts/Marketplace2/Marketplace.sol\":20781:20795  idToMarketItem */\n      0x0f\n        /* \"contracts/Marketplace2/Marketplace.sol\":20781:20806  idToMarketItem[currentId] */\n      0x00\n        /* \"contracts/Marketplace2/Marketplace.sol\":20796:20805  currentId */\n      dup4\n        /* \"contracts/Marketplace2/Marketplace.sol\":20781:20806  idToMarketItem[currentId] */\n      dup2\n      mstore\n      0x20\n      add\n      swap1\n      dup2\n      mstore\n      0x20\n      add\n      0x00\n      keccak256\n        /* \"contracts/Marketplace2/Marketplace.sol\":20748:20806  MarketItem storage currentItem = idToMarketItem[currentId] */\n      swap1\n      pop\n        /* \"contracts/Marketplace2/Marketplace.sol\":20838:20849  currentItem */\n      dup1\n        /* \"contracts/Marketplace2/Marketplace.sol\":20816:20849  items[currentIndex] = currentItem */\n      mload(0x40)\n      dup1\n      0xc0\n      add\n      0x40\n      mstore\n      swap1\n      dup2\n      0x00\n      dup3\n      add\n      sload\n      dup2\n      mstore\n      0x20\n      add\n      0x01\n      dup3\n      add\n      sload\n      dup2\n      mstore\n      0x20\n      add\n      0x02\n      dup3\n      add\n      0x00\n      swap1\n      sload\n      swap1\n      0x0100\n      exp\n      swap1\n      div\n      0xffffffffffffffffffffffffffffffffffffffff\n      and\n      0xffffffffffffffffffffffffffffffffffffffff\n      and\n      0xffffffffffffffffffffffffffffffffffffffff\n      and\n      dup2\n      mstore\n      0x20\n      add\n      0x03\n      dup3\n      add\n      0x00\n      swap1\n      sload\n      swap1\n      0x0100\n      exp\n      swap1\n      div\n      0xffffffffffffffffffffffffffffffffffffffff\n      and\n      0xffffffffffffffffffffffffffffffffffffffff\n      and\n      0xffffffffffffffffffffffffffffffffffffffff\n      and\n      dup2\n      mstore\n      0x20\n      add\n      0x04\n      dup3\n      add\n      sload\n      dup2\n      mstore\n      0x20\n      add\n      0x05\n      dup3\n      add\n      0x00\n      swap1\n      sload\n      swap1\n      0x0100\n      exp\n      swap1\n      div\n      0xff\n      and\n      0x01\n      dup2\n      gt\n      iszero\n      tag_190\n      jumpi\n      tag_191\n      tag_148\n      jump\t// in\n    tag_191:\n    tag_190:\n      0x01\n      dup2\n      gt\n      iszero\n      tag_192\n      jumpi\n      tag_193\n      tag_148\n      jump\t// in\n    tag_193:\n    tag_192:\n      dup2\n      mstore\n      pop\n      pop\n        /* \"contracts/Marketplace2/Marketplace.sol\":20816:20821  items */\n      dup5\n        /* \"contracts/Marketplace2/Marketplace.sol\":20822:20834  currentIndex */\n      dup7\n        /* \"contracts/Marketplace2/Marketplace.sol\":20816:20835  items[currentIndex] */\n      dup2\n      mload\n      dup2\n      lt\n      tag_194\n      jumpi\n      tag_195\n      tag_196\n      jump\t// in\n    tag_195:\n    tag_194:\n      0x20\n      mul\n      0x20\n      add\n      add\n        /* \"contracts/Marketplace2/Marketplace.sol\":20816:20849  items[currentIndex] = currentItem */\n      dup2\n      swap1\n      mstore\n      pop\n        /* \"contracts/Marketplace2/Marketplace.sol\":20875:20876  1 */\n      0x01\n        /* \"contracts/Marketplace2/Marketplace.sol\":20859:20876  currentIndex += 1 */\n      dup6\n      tag_197\n      swap2\n      swap1\n      tag_173\n      jump\t// in\n    tag_197:\n      swap5\n      pop\n        /* \"contracts/Marketplace2/Marketplace.sol\":20683:20885  {... */\n      pop\n      pop\n        /* \"contracts/Marketplace2/Marketplace.sol\":20636:20885  if (idToMarketItem[i + 1].owner == msg.sender) {... */\n    tag_188:\n        /* \"contracts/Marketplace2/Marketplace.sol\":20623:20626  i++ */\n      dup1\n      dup1\n      tag_198\n      swap1\n      tag_177\n      jump\t// in\n    tag_198:\n      swap2\n      pop\n      pop\n        /* \"contracts/Marketplace2/Marketplace.sol\":20586:20891  for (uint i = 0; i < totalItemCount; i++) {... */\n      jump(tag_184)\n    tag_185:\n      pop\n        /* \"contracts/Marketplace2/Marketplace.sol\":20907:20912  items */\n      dup1\n        /* \"contracts/Marketplace2/Marketplace.sol\":20900:20912  return items */\n      swap5\n      pop\n      pop\n      pop\n      pop\n      pop\n        /* \"contracts/Marketplace2/Marketplace.sol\":20214:20917  function fetchMyNFTs() public view returns (MarketItem[] memory) {... */\n      swap1\n      jump\t// out\n        /* \"contracts/Marketplace2/Marketplace.sol\":17719:17823  function setMainToken(address _address) external onlyOwner {... */\n    tag_54:\n        /* \"contracts/Marketplace2/Marketplace.sol\":1899:1911  _msgSender() */\n      tag_200\n        /* \"contracts/Marketplace2/Marketplace.sol\":1899:1909  _msgSender */\n      tag_153\n        /* \"contracts/Marketplace2/Marketplace.sol\":1899:1911  _msgSender() */\n      jump\t// in\n    tag_200:\n        /* \"contracts/Marketplace2/Marketplace.sol\":1888:1911  owner() == _msgSender() */\n      0xffffffffffffffffffffffffffffffffffffffff\n      and\n        /* \"contracts/Marketplace2/Marketplace.sol\":1888:1895  owner() */\n      tag_201\n        /* \"contracts/Marketplace2/Marketplace.sol\":1888:1893  owner */\n      tag_99\n        /* \"contracts/Marketplace2/Marketplace.sol\":1888:1895  owner() */\n      jump\t// in\n    tag_201:\n        /* \"contracts/Marketplace2/Marketplace.sol\":1888:1911  owner() == _msgSender() */\n      0xffffffffffffffffffffffffffffffffffffffff\n      and\n      eq\n        /* \"contracts/Marketplace2/Marketplace.sol\":1880:1948  require(owner() == _msgSender(), \"Ownable: caller is not the owner\") */\n      tag_202\n      jumpi\n      mload(0x40)\n      0x08c379a000000000000000000000000000000000000000000000000000000000\n      dup2\n      mstore\n      0x04\n      add\n      tag_203\n      swap1\n      tag_157\n      jump\t// in\n    tag_203:\n      mload(0x40)\n      dup1\n      swap2\n      sub\n      swap1\n      revert\n    tag_202:\n        /* \"contracts/Marketplace2/Marketplace.sol\":17807:17815  _address */\n      dup1\n        /* \"contracts/Marketplace2/Marketplace.sol\":17788:17797  mainToken */\n      0x09\n      0x00\n        /* \"contracts/Marketplace2/Marketplace.sol\":17788:17816  mainToken = IERC20(_address) */\n      0x0100\n      exp\n      dup2\n      sload\n      dup2\n      0xffffffffffffffffffffffffffffffffffffffff\n      mul\n      not\n      and\n      swap1\n      dup4\n      0xffffffffffffffffffffffffffffffffffffffff\n      and\n      mul\n      or\n      swap1\n      sstore\n      pop\n        /* \"contracts/Marketplace2/Marketplace.sol\":17719:17823  function setMainToken(address _address) external onlyOwner {... */\n      pop\n      jump\t// out\n        /* \"contracts/Marketplace2/Marketplace.sol\":19953:20106  function fetchMarketItem(uint itemId) public view returns (MarketItem memory) {... */\n    tag_58:\n        /* \"contracts/Marketplace2/Marketplace.sol\":20012:20029  MarketItem memory */\n      tag_205\n      tag_144\n      jump\t// in\n    tag_205:\n        /* \"contracts/Marketplace2/Marketplace.sol\":20037:20059  MarketItem memory item */\n      0x00\n        /* \"contracts/Marketplace2/Marketplace.sol\":20062:20076  idToMarketItem */\n      0x0f\n        /* \"contracts/Marketplace2/Marketplace.sol\":20062:20084  idToMarketItem[itemId] */\n      0x00\n        /* \"contracts/Marketplace2/Marketplace.sol\":20077:20083  itemId */\n      dup5\n        /* \"contracts/Marketplace2/Marketplace.sol\":20062:20084  idToMarketItem[itemId] */\n      dup2\n      mstore\n      0x20\n      add\n      swap1\n      dup2\n      mstore\n      0x20\n      add\n      0x00\n      keccak256\n        /* \"contracts/Marketplace2/Marketplace.sol\":20037:20084  MarketItem memory item = idToMarketItem[itemId] */\n      mload(0x40)\n      dup1\n      0xc0\n      add\n      0x40\n      mstore\n      swap1\n      dup2\n      0x00\n      dup3\n      add\n      sload\n      dup2\n      mstore\n      0x20\n      add\n      0x01\n      dup3\n      add\n      sload\n      dup2\n      mstore\n      0x20\n      add\n      0x02\n      dup3\n      add\n      0x00\n      swap1\n      sload\n      swap1\n      0x0100\n      exp\n      swap1\n      div\n      0xffffffffffffffffffffffffffffffffffffffff\n      and\n      0xffffffffffffffffffffffffffffffffffffffff\n      and\n      0xffffffffffffffffffffffffffffffffffffffff\n      and\n      dup2\n      mstore\n      0x20\n      add\n      0x03\n      dup3\n      add\n      0x00\n      swap1\n      sload\n      swap1\n      0x0100\n      exp\n      swap1\n      div\n      0xffffffffffffffffffffffffffffffffffffffff\n      and\n      0xffffffffffffffffffffffffffffffffffffffff\n      and\n      0xffffffffffffffffffffffffffffffffffffffff\n      and\n      dup2\n      mstore\n      0x20\n      add\n      0x04\n      dup3\n      add\n      sload\n      dup2\n      mstore\n      0x20\n      add\n      0x05\n      dup3\n      add\n      0x00\n      swap1\n      sload\n      swap1\n      0x0100\n      exp\n      swap1\n      div\n      0xff\n      and\n      0x01\n      dup2\n      gt\n      iszero\n      tag_207\n      jumpi\n      tag_208\n      tag_148\n      jump\t// in\n    tag_208:\n    tag_207:\n      0x01\n      dup2\n      gt\n      iszero\n      tag_209\n      jumpi\n      tag_210\n      tag_148\n      jump\t// in\n    tag_210:\n    tag_209:\n      dup2\n      mstore\n      pop\n      pop\n      swap1\n      pop\n        /* \"contracts/Marketplace2/Marketplace.sol\":20097:20101  item */\n      dup1\n        /* \"contracts/Marketplace2/Marketplace.sol\":20090:20101  return item */\n      swap2\n      pop\n      pop\n        /* \"contracts/Marketplace2/Marketplace.sol\":19953:20106  function fetchMarketItem(uint itemId) public view returns (MarketItem memory) {... */\n      swap2\n      swap1\n      pop\n      jump\t// out\n        /* \"contracts/Marketplace2/Marketplace.sol\":15836:15896  bytes4 public constant ERC721_Interface = bytes4(0x80ac58cd) */\n    tag_62:\n        /* \"contracts/Marketplace2/Marketplace.sol\":15885:15895  0x80ac58cd */\n      0x80ac58cd\n        /* \"contracts/Marketplace2/Marketplace.sol\":15878:15896  bytes4(0x80ac58cd) */\n      0xe0\n      shl\n        /* \"contracts/Marketplace2/Marketplace.sol\":15836:15896  bytes4 public constant ERC721_Interface = bytes4(0x80ac58cd) */\n      dup2\n      jump\t// out\n        /* \"contracts/Marketplace2/Marketplace.sol\":18220:18932  function createMarketItem(... */\n    tag_68:\n        /* \"contracts/Marketplace2/Marketplace.sol\":14165:14166  2 */\n      0x02\n        /* \"contracts/Marketplace2/Marketplace.sol\":14746:14753  _status */\n      sload(0x00)\n        /* \"contracts/Marketplace2/Marketplace.sol\":14746:14765  _status != _ENTERED */\n      sub\n        /* \"contracts/Marketplace2/Marketplace.sol\":14738:14801  require(_status != _ENTERED, \"ReentrancyGuard: reentrant call\") */\n      tag_212\n      jumpi\n      mload(0x40)\n      0x08c379a000000000000000000000000000000000000000000000000000000000\n      dup2\n      mstore\n      0x04\n      add\n      tag_213\n      swap1\n      tag_214\n      jump\t// in\n    tag_213:\n      mload(0x40)\n      dup1\n      swap2\n      sub\n      swap1\n      revert\n    tag_212:\n        /* \"contracts/Marketplace2/Marketplace.sol\":14165:14166  2 */\n      0x02\n        /* \"contracts/Marketplace2/Marketplace.sol\":14876:14883  _status */\n      0x00\n        /* \"contracts/Marketplace2/Marketplace.sol\":14876:14894  _status = _ENTERED */\n      dup2\n      swap1\n      sstore\n      pop\n        /* \"contracts/Marketplace2/Marketplace.sol\":18340:18341  0 */\n      0x00\n        /* \"contracts/Marketplace2/Marketplace.sol\":18332:18337  price */\n      dup2\n        /* \"contracts/Marketplace2/Marketplace.sol\":18332:18341  price > 0 */\n      gt\n        /* \"contracts/Marketplace2/Marketplace.sol\":18324:18374  require(price > 0, \"Price must be at least 1 wei\") */\n      tag_216\n      jumpi\n      mload(0x40)\n      0x08c379a000000000000000000000000000000000000000000000000000000000\n      dup2\n      mstore\n      0x04\n      add\n      tag_217\n      swap1\n      tag_218\n      jump\t// in\n    tag_217:\n      mload(0x40)\n      dup1\n      swap2\n      sub\n      swap1\n      revert\n    tag_216:\n        /* \"contracts/Marketplace2/Marketplace.sol\":18381:18413  IFactory.ingameItems memory item */\n      0x00\n        /* \"contracts/Marketplace2/Marketplace.sol\":18416:18423  factory */\n      0x0a\n      0x00\n      swap1\n      sload\n      swap1\n      0x0100\n      exp\n      swap1\n      div\n      0xffffffffffffffffffffffffffffffffffffffff\n      and\n        /* \"contracts/Marketplace2/Marketplace.sol\":18416:18434  factory.ingameItem */\n      0xffffffffffffffffffffffffffffffffffffffff\n      and\n      0xd30bdac9\n        /* \"contracts/Marketplace2/Marketplace.sol\":18435:18442  tokenId */\n      dup5\n        /* \"contracts/Marketplace2/Marketplace.sol\":18416:18443  factory.ingameItem(tokenId) */\n      mload(0x40)\n      dup3\n      0xffffffff\n      and\n      0xe0\n      shl\n      dup2\n      mstore\n      0x04\n      add\n      tag_219\n      swap2\n      swap1\n      tag_161\n      jump\t// in\n    tag_219:\n      0x00\n      mload(0x40)\n      dup1\n      dup4\n      sub\n      dup2\n      dup7\n      gas\n      staticcall\n      iszero\n      dup1\n      iszero\n      tag_221\n      jumpi\n      returndatasize\n      0x00\n      dup1\n      returndatacopy\n      revert(0x00, returndatasize)\n    tag_221:\n      pop\n      pop\n      pop\n      pop\n      mload(0x40)\n      returndatasize\n      0x00\n      dup3\n      returndatacopy\n      returndatasize\n      not(0x1f)\n      0x1f\n      dup3\n      add\n      and\n      dup3\n      add\n      dup1\n      0x40\n      mstore\n      pop\n      dup2\n      add\n      swap1\n      tag_222\n      swap2\n      swap1\n      tag_165\n      jump\t// in\n    tag_222:\n        /* \"contracts/Marketplace2/Marketplace.sol\":18381:18443  IFactory.ingameItems memory item = factory.ingameItem(tokenId) */\n      swap1\n      pop\n        /* \"contracts/Marketplace2/Marketplace.sol\":18472:18477  false */\n      0x00\n        /* \"contracts/Marketplace2/Marketplace.sol\":18457:18477  item.ingame == false */\n      iszero\n      iszero\n        /* \"contracts/Marketplace2/Marketplace.sol\":18457:18461  item */\n      dup2\n        /* \"contracts/Marketplace2/Marketplace.sol\":18457:18468  item.ingame */\n      0x80\n      add\n      mload\n        /* \"contracts/Marketplace2/Marketplace.sol\":18457:18477  item.ingame == false */\n      iszero\n      iszero\n      eq\n        /* \"contracts/Marketplace2/Marketplace.sol\":18449:18510  require(item.ingame == false, \"Item is not available now !\" ) */\n      tag_223\n      jumpi\n      mload(0x40)\n      0x08c379a000000000000000000000000000000000000000000000000000000000\n      dup2\n      mstore\n      0x04\n      add\n      tag_224\n      swap1\n      tag_225\n      jump\t// in\n    tag_224:\n      mload(0x40)\n      dup1\n      swap2\n      sub\n      swap1\n      revert\n    tag_223:\n        /* \"contracts/Marketplace2/Marketplace.sol\":18517:18537  _itemIds.increment() */\n      tag_226\n        /* \"contracts/Marketplace2/Marketplace.sol\":18517:18525  _itemIds */\n      0x0d\n        /* \"contracts/Marketplace2/Marketplace.sol\":18517:18535  _itemIds.increment */\n      tag_227\n        /* \"contracts/Marketplace2/Marketplace.sol\":18517:18537  _itemIds.increment() */\n      jump\t// in\n    tag_226:\n        /* \"contracts/Marketplace2/Marketplace.sol\":18543:18557  uint256 itemId */\n      0x00\n        /* \"contracts/Marketplace2/Marketplace.sol\":18560:18578  _itemIds.current() */\n      tag_228\n        /* \"contracts/Marketplace2/Marketplace.sol\":18560:18568  _itemIds */\n      0x0d\n        /* \"contracts/Marketplace2/Marketplace.sol\":18560:18576  _itemIds.current */\n      tag_168\n        /* \"contracts/Marketplace2/Marketplace.sol\":18560:18578  _itemIds.current() */\n      jump\t// in\n    tag_228:\n        /* \"contracts/Marketplace2/Marketplace.sol\":18543:18578  uint256 itemId = _itemIds.current() */\n      swap1\n      pop\n        /* \"contracts/Marketplace2/Marketplace.sol\":18615:18750  MarketItem(... */\n      mload(0x40)\n      dup1\n      0xc0\n      add\n      0x40\n      mstore\n      dup1\n        /* \"contracts/Marketplace2/Marketplace.sol\":18633:18639  itemId */\n      dup3\n        /* \"contracts/Marketplace2/Marketplace.sol\":18615:18750  MarketItem(... */\n      dup2\n      mstore\n      0x20\n      add\n        /* \"contracts/Marketplace2/Marketplace.sol\":18647:18654  tokenId */\n      dup6\n        /* \"contracts/Marketplace2/Marketplace.sol\":18615:18750  MarketItem(... */\n      dup2\n      mstore\n      0x20\n      add\n        /* \"contracts/Marketplace2/Marketplace.sol\":18670:18680  msg.sender */\n      caller\n        /* \"contracts/Marketplace2/Marketplace.sol\":18615:18750  MarketItem(... */\n      0xffffffffffffffffffffffffffffffffffffffff\n      and\n      dup2\n      mstore\n      0x20\n      add\n        /* \"contracts/Marketplace2/Marketplace.sol\":18705:18706  0 */\n      0x00\n        /* \"contracts/Marketplace2/Marketplace.sol\":18615:18750  MarketItem(... */\n      0xffffffffffffffffffffffffffffffffffffffff\n      and\n      dup2\n      mstore\n      0x20\n      add\n        /* \"contracts/Marketplace2/Marketplace.sol\":18716:18721  price */\n      dup5\n        /* \"contracts/Marketplace2/Marketplace.sol\":18615:18750  MarketItem(... */\n      dup2\n      mstore\n      0x20\n      add\n        /* \"contracts/Marketplace2/Marketplace.sol\":18729:18744  ItemStatus.LIST */\n      0x01\n        /* \"contracts/Marketplace2/Marketplace.sol\":18615:18750  MarketItem(... */\n      dup1\n      dup2\n      gt\n      iszero\n      tag_229\n      jumpi\n      tag_230\n      tag_148\n      jump\t// in\n    tag_230:\n    tag_229:\n      dup2\n      mstore\n      pop\n        /* \"contracts/Marketplace2/Marketplace.sol\":18589:18603  idToMarketItem */\n      0x0f\n        /* \"contracts/Marketplace2/Marketplace.sol\":18589:18611  idToMarketItem[itemId] */\n      0x00\n        /* \"contracts/Marketplace2/Marketplace.sol\":18604:18610  itemId */\n      dup4\n        /* \"contracts/Marketplace2/Marketplace.sol\":18589:18611  idToMarketItem[itemId] */\n      dup2\n      mstore\n      0x20\n      add\n      swap1\n      dup2\n      mstore\n      0x20\n      add\n      0x00\n      keccak256\n        /* \"contracts/Marketplace2/Marketplace.sol\":18589:18750  idToMarketItem[itemId] =  MarketItem(... */\n      0x00\n      dup3\n      add\n      mload\n      dup2\n      0x00\n      add\n      sstore\n      0x20\n      dup3\n      add\n      mload\n      dup2\n      0x01\n      add\n      sstore\n      0x40\n      dup3\n      add\n      mload\n      dup2\n      0x02\n      add\n      exp(0x0100, 0x00)\n      dup2\n      sload\n      dup2\n      0xffffffffffffffffffffffffffffffffffffffff\n      mul\n      not\n      and\n      swap1\n      dup4\n      0xffffffffffffffffffffffffffffffffffffffff\n      and\n      mul\n      or\n      swap1\n      sstore\n      pop\n      0x60\n      dup3\n      add\n      mload\n      dup2\n      0x03\n      add\n      exp(0x0100, 0x00)\n      dup2\n      sload\n      dup2\n      0xffffffffffffffffffffffffffffffffffffffff\n      mul\n      not\n      and\n      swap1\n      dup4\n      0xffffffffffffffffffffffffffffffffffffffff\n      and\n      mul\n      or\n      swap1\n      sstore\n      pop\n      0x80\n      dup3\n      add\n      mload\n      dup2\n      0x04\n      add\n      sstore\n      0xa0\n      dup3\n      add\n      mload\n      dup2\n      0x05\n      add\n      exp(0x0100, 0x00)\n      dup2\n      sload\n      dup2\n      0xff\n      mul\n      not\n      and\n      swap1\n      dup4\n      0x01\n      dup2\n      gt\n      iszero\n      tag_231\n      jumpi\n      tag_232\n      tag_148\n      jump\t// in\n    tag_232:\n    tag_231:\n      mul\n      or\n      swap1\n      sstore\n      pop\n      swap1\n      pop\n      pop\n        /* \"contracts/Marketplace2/Marketplace.sol\":18757:18765  mainNFTs */\n      0x0b\n      0x00\n      swap1\n      sload\n      swap1\n      0x0100\n      exp\n      swap1\n      div\n      0xffffffffffffffffffffffffffffffffffffffff\n      and\n        /* \"contracts/Marketplace2/Marketplace.sol\":18757:18778  mainNFTs.transferFrom */\n      0xffffffffffffffffffffffffffffffffffffffff\n      and\n      0x23b872dd\n        /* \"contracts/Marketplace2/Marketplace.sol\":18779:18789  msg.sender */\n      caller\n        /* \"contracts/Marketplace2/Marketplace.sol\":18799:18803  this */\n      address\n        /* \"contracts/Marketplace2/Marketplace.sol\":18806:18813  tokenId */\n      dup8\n        /* \"contracts/Marketplace2/Marketplace.sol\":18757:18814  mainNFTs.transferFrom(msg.sender, address(this), tokenId) */\n      mload(0x40)\n      dup5\n      0xffffffff\n      and\n      0xe0\n      shl\n      dup2\n      mstore\n      0x04\n      add\n      tag_233\n      swap4\n      swap3\n      swap2\n      swap1\n      tag_234\n      jump\t// in\n    tag_233:\n      0x00\n      mload(0x40)\n      dup1\n      dup4\n      sub\n      dup2\n      0x00\n      dup8\n      dup1\n      extcodesize\n      iszero\n      dup1\n      iszero\n      tag_235\n      jumpi\n      0x00\n      dup1\n      revert\n    tag_235:\n      pop\n      gas\n      call\n      iszero\n      dup1\n      iszero\n      tag_237\n      jumpi\n      returndatasize\n      0x00\n      dup1\n      returndatacopy\n      revert(0x00, returndatasize)\n    tag_237:\n      pop\n      pop\n      pop\n      pop\n        /* \"contracts/Marketplace2/Marketplace.sol\":18865:18872  tokenId */\n      dup4\n        /* \"contracts/Marketplace2/Marketplace.sol\":18851:18857  itemId */\n      dup2\n        /* \"contracts/Marketplace2/Marketplace.sol\":18826:18927  MarketItemCreated(... */\n      0x38690a554ffbc44eb6a75016e47d517d0db8e6c37494adc68d6d0b2c66f0ab21\n        /* \"contracts/Marketplace2/Marketplace.sol\":18880:18890  msg.sender */\n      caller\n        /* \"contracts/Marketplace2/Marketplace.sol\":18906:18907  0 */\n      0x00\n        /* \"contracts/Marketplace2/Marketplace.sol\":18916:18921  price */\n      dup8\n        /* \"contracts/Marketplace2/Marketplace.sol\":18826:18927  MarketItemCreated(... */\n      mload(0x40)\n      tag_238\n      swap4\n      swap3\n      swap2\n      swap1\n      tag_234\n      jump\t// in\n    tag_238:\n      mload(0x40)\n      dup1\n      swap2\n      sub\n      swap1\n      log3\n        /* \"contracts/Marketplace2/Marketplace.sol\":18318:18932  {... */\n      pop\n      pop\n        /* \"contracts/Marketplace2/Marketplace.sol\":14122:14123  1 */\n      0x01\n        /* \"contracts/Marketplace2/Marketplace.sol\":15049:15056  _status */\n      0x00\n        /* \"contracts/Marketplace2/Marketplace.sol\":15049:15071  _status = _NOT_ENTERED */\n      dup2\n      swap1\n      sstore\n      pop\n        /* \"contracts/Marketplace2/Marketplace.sol\":18220:18932  function createMarketItem(... */\n      pop\n      pop\n      jump\t// out\n        /* \"contracts/Marketplace2/Marketplace.sol\":16097:16120  IERC20 public mainToken */\n    tag_71:\n      0x09\n      0x00\n      swap1\n      sload\n      swap1\n      0x0100\n      exp\n      swap1\n      div\n      0xffffffffffffffffffffffffffffffffffffffff\n      and\n      dup2\n      jump\t// out\n        /* \"contracts/Marketplace2/Marketplace.sol\":15797:15829  MarketItem public allMarketItems */\n    tag_76:\n      0x01\n      dup1\n      0x00\n      add\n      sload\n      swap1\n      dup1\n      0x01\n      add\n      sload\n      swap1\n      dup1\n      0x02\n      add\n      0x00\n      swap1\n      sload\n      swap1\n      0x0100\n      exp\n      swap1\n      div\n      0xffffffffffffffffffffffffffffffffffffffff\n      and\n      swap1\n      dup1\n      0x03\n      add\n      0x00\n      swap1\n      sload\n      swap1\n      0x0100\n      exp\n      swap1\n      div\n      0xffffffffffffffffffffffffffffffffffffffff\n      and\n      swap1\n      dup1\n      0x04\n      add\n      sload\n      swap1\n      dup1\n      0x05\n      add\n      0x00\n      swap1\n      sload\n      swap1\n      0x0100\n      exp\n      swap1\n      div\n      0xff\n      and\n      swap1\n      pop\n      dup7\n      jump\t// out\n        /* \"contracts/Marketplace2/Marketplace.sol\":17935:18037  function setFactory(address _address) external onlyOwner {... */\n    tag_82:\n        /* \"contracts/Marketplace2/Marketplace.sol\":1899:1911  _msgSender() */\n      tag_240\n        /* \"contracts/Marketplace2/Marketplace.sol\":1899:1909  _msgSender */\n      tag_153\n        /* \"contracts/Marketplace2/Marketplace.sol\":1899:1911  _msgSender() */\n      jump\t// in\n    tag_240:\n        /* \"contracts/Marketplace2/Marketplace.sol\":1888:1911  owner() == _msgSender() */\n      0xffffffffffffffffffffffffffffffffffffffff\n      and\n        /* \"contracts/Marketplace2/Marketplace.sol\":1888:1895  owner() */\n      tag_241\n        /* \"contracts/Marketplace2/Marketplace.sol\":1888:1893  owner */\n      tag_99\n        /* \"contracts/Marketplace2/Marketplace.sol\":1888:1895  owner() */\n      jump\t// in\n    tag_241:\n        /* \"contracts/Marketplace2/Marketplace.sol\":1888:1911  owner() == _msgSender() */\n      0xffffffffffffffffffffffffffffffffffffffff\n      and\n      eq\n        /* \"contracts/Marketplace2/Marketplace.sol\":1880:1948  require(owner() == _msgSender(), \"Ownable: caller is not the owner\") */\n      tag_242\n      jumpi\n      mload(0x40)\n      0x08c379a000000000000000000000000000000000000000000000000000000000\n      dup2\n      mstore\n      0x04\n      add\n      tag_243\n      swap1\n      tag_157\n      jump\t// in\n    tag_243:\n      mload(0x40)\n      dup1\n      swap2\n      sub\n      swap1\n      revert\n    tag_242:\n        /* \"contracts/Marketplace2/Marketplace.sol\":18021:18029  _address */\n      dup1\n        /* \"contracts/Marketplace2/Marketplace.sol\":18002:18009  factory */\n      0x0a\n      0x00\n        /* \"contracts/Marketplace2/Marketplace.sol\":18002:18030  factory = IFactory(_address) */\n      0x0100\n      exp\n      dup2\n      sload\n      dup2\n      0xffffffffffffffffffffffffffffffffffffffff\n      mul\n      not\n      and\n      swap1\n      dup4\n      0xffffffffffffffffffffffffffffffffffffffff\n      and\n      mul\n      or\n      swap1\n      sstore\n      pop\n        /* \"contracts/Marketplace2/Marketplace.sol\":17935:18037  function setFactory(address _address) external onlyOwner {... */\n      pop\n      jump\t// out\n        /* \"contracts/Marketplace2/Marketplace.sol\":16027:16090  mapping(address => mapping(uint256 => MarketItem)) public items */\n    tag_87:\n      mstore(0x20, 0x08)\n      dup2\n      0x00\n      mstore\n      mstore(0x20, keccak256(0x00, 0x40))\n      dup1\n      0x00\n      mstore\n      keccak256(0x00, 0x40)\n      0x00\n      swap2\n      pop\n      swap2\n      pop\n      pop\n      dup1\n      0x00\n      add\n      sload\n      swap1\n      dup1\n      0x01\n      add\n      sload\n      swap1\n      dup1\n      0x02\n      add\n      0x00\n      swap1\n      sload\n      swap1\n      0x0100\n      exp\n      swap1\n      div\n      0xffffffffffffffffffffffffffffffffffffffff\n      and\n      swap1\n      dup1\n      0x03\n      add\n      0x00\n      swap1\n      sload\n      swap1\n      0x0100\n      exp\n      swap1\n      div\n      0xffffffffffffffffffffffffffffffffffffffff\n      and\n      swap1\n      dup1\n      0x04\n      add\n      sload\n      swap1\n      dup1\n      0x05\n      add\n      0x00\n      swap1\n      sload\n      swap1\n      0x0100\n      exp\n      swap1\n      div\n      0xff\n      and\n      swap1\n      pop\n      dup7\n      jump\t// out\n        /* \"contracts/Marketplace2/Marketplace.sol\":2308:2409  function renounceOwnership() public virtual onlyOwner {... */\n    tag_91:\n        /* \"contracts/Marketplace2/Marketplace.sol\":1899:1911  _msgSender() */\n      tag_246\n        /* \"contracts/Marketplace2/Marketplace.sol\":1899:1909  _msgSender */\n      tag_153\n        /* \"contracts/Marketplace2/Marketplace.sol\":1899:1911  _msgSender() */\n      jump\t// in\n    tag_246:\n        /* \"contracts/Marketplace2/Marketplace.sol\":1888:1911  owner() == _msgSender() */\n      0xffffffffffffffffffffffffffffffffffffffff\n      and\n        /* \"contracts/Marketplace2/Marketplace.sol\":1888:1895  owner() */\n      tag_247\n        /* \"contracts/Marketplace2/Marketplace.sol\":1888:1893  owner */\n      tag_99\n        /* \"contracts/Marketplace2/Marketplace.sol\":1888:1895  owner() */\n      jump\t// in\n    tag_247:\n        /* \"contracts/Marketplace2/Marketplace.sol\":1888:1911  owner() == _msgSender() */\n      0xffffffffffffffffffffffffffffffffffffffff\n      and\n      eq\n        /* \"contracts/Marketplace2/Marketplace.sol\":1880:1948  require(owner() == _msgSender(), \"Ownable: caller is not the owner\") */\n      tag_248\n      jumpi\n      mload(0x40)\n      0x08c379a000000000000000000000000000000000000000000000000000000000\n      dup2\n      mstore\n      0x04\n      add\n      tag_249\n      swap1\n      tag_157\n      jump\t// in\n    tag_249:\n      mload(0x40)\n      dup1\n      swap2\n      sub\n      swap1\n      revert\n    tag_248:\n        /* \"contracts/Marketplace2/Marketplace.sol\":2372:2402  _transferOwnership(address(0)) */\n      tag_251\n        /* \"contracts/Marketplace2/Marketplace.sol\":2399:2400  0 */\n      0x00\n        /* \"contracts/Marketplace2/Marketplace.sol\":2372:2390  _transferOwnership */\n      tag_252\n        /* \"contracts/Marketplace2/Marketplace.sol\":2372:2402  _transferOwnership(address(0)) */\n      jump\t// in\n    tag_251:\n        /* \"contracts/Marketplace2/Marketplace.sol\":2308:2409  function renounceOwnership() public virtual onlyOwner {... */\n      jump\t// out\n        /* \"contracts/Marketplace2/Marketplace.sol\":16185:16211  uint8 public bnbFeePercent */\n    tag_94:\n      0x0b\n      0x14\n      swap1\n      sload\n      swap1\n      0x0100\n      exp\n      swap1\n      div\n      0xff\n      and\n      dup2\n      jump\t// out\n        /* \"contracts/Marketplace2/Marketplace.sol\":1676:1761  function owner() public view virtual returns (address) {... */\n    tag_99:\n        /* \"contracts/Marketplace2/Marketplace.sol\":1722:1729  address */\n      0x00\n        /* \"contracts/Marketplace2/Marketplace.sol\":1748:1754  _owner */\n      0x0c\n      0x00\n      swap1\n      sload\n      swap1\n      0x0100\n      exp\n      swap1\n      div\n      0xffffffffffffffffffffffffffffffffffffffff\n      and\n        /* \"contracts/Marketplace2/Marketplace.sol\":1741:1754  return _owner */\n      swap1\n      pop\n        /* \"contracts/Marketplace2/Marketplace.sol\":1676:1761  function owner() public view virtual returns (address) {... */\n      swap1\n      jump\t// out\n        /* \"contracts/Marketplace2/Marketplace.sol\":19147:19949  function createMarketSale(... */\n    tag_105:\n        /* \"contracts/Marketplace2/Marketplace.sol\":14165:14166  2 */\n      0x02\n        /* \"contracts/Marketplace2/Marketplace.sol\":14746:14753  _status */\n      sload(0x00)\n        /* \"contracts/Marketplace2/Marketplace.sol\":14746:14765  _status != _ENTERED */\n      sub\n        /* \"contracts/Marketplace2/Marketplace.sol\":14738:14801  require(_status != _ENTERED, \"ReentrancyGuard: reentrant call\") */\n      tag_255\n      jumpi\n      mload(0x40)\n      0x08c379a000000000000000000000000000000000000000000000000000000000\n      dup2\n      mstore\n      0x04\n      add\n      tag_256\n      swap1\n      tag_214\n      jump\t// in\n    tag_256:\n      mload(0x40)\n      dup1\n      swap2\n      sub\n      swap1\n      revert\n    tag_255:\n        /* \"contracts/Marketplace2/Marketplace.sol\":14165:14166  2 */\n      0x02\n        /* \"contracts/Marketplace2/Marketplace.sol\":14876:14883  _status */\n      0x00\n        /* \"contracts/Marketplace2/Marketplace.sol\":14876:14894  _status = _ENTERED */\n      dup2\n      swap1\n      sstore\n      pop\n        /* \"contracts/Marketplace2/Marketplace.sol\":19245:19255  uint price */\n      0x00\n        /* \"contracts/Marketplace2/Marketplace.sol\":19258:19272  idToMarketItem */\n      0x0f\n        /* \"contracts/Marketplace2/Marketplace.sol\":19258:19280  idToMarketItem[itemId] */\n      0x00\n        /* \"contracts/Marketplace2/Marketplace.sol\":19273:19279  itemId */\n      dup5\n        /* \"contracts/Marketplace2/Marketplace.sol\":19258:19280  idToMarketItem[itemId] */\n      dup2\n      mstore\n      0x20\n      add\n      swap1\n      dup2\n      mstore\n      0x20\n      add\n      0x00\n      keccak256\n        /* \"contracts/Marketplace2/Marketplace.sol\":19258:19286  idToMarketItem[itemId].price */\n      0x04\n      add\n      sload\n        /* \"contracts/Marketplace2/Marketplace.sol\":19245:19286  uint price = idToMarketItem[itemId].price */\n      swap1\n      pop\n        /* \"contracts/Marketplace2/Marketplace.sol\":19292:19304  uint tokenId */\n      0x00\n        /* \"contracts/Marketplace2/Marketplace.sol\":19307:19321  idToMarketItem */\n      0x0f\n        /* \"contracts/Marketplace2/Marketplace.sol\":19307:19329  idToMarketItem[itemId] */\n      0x00\n        /* \"contracts/Marketplace2/Marketplace.sol\":19322:19328  itemId */\n      dup6\n        /* \"contracts/Marketplace2/Marketplace.sol\":19307:19329  idToMarketItem[itemId] */\n      dup2\n      mstore\n      0x20\n      add\n      swap1\n      dup2\n      mstore\n      0x20\n      add\n      0x00\n      keccak256\n        /* \"contracts/Marketplace2/Marketplace.sol\":19307:19337  idToMarketItem[itemId].tokenId */\n      0x01\n      add\n      sload\n        /* \"contracts/Marketplace2/Marketplace.sol\":19292:19337  uint tokenId = idToMarketItem[itemId].tokenId */\n      swap1\n      pop\n        /* \"contracts/Marketplace2/Marketplace.sol\":19361:19366  price */\n      dup2\n        /* \"contracts/Marketplace2/Marketplace.sol\":19351:19357  amount */\n      dup4\n        /* \"contracts/Marketplace2/Marketplace.sol\":19351:19366  amount == price */\n      eq\n        /* \"contracts/Marketplace2/Marketplace.sol\":19343:19435  require(amount == price, \"Please submit the asking price in order to complete the purchase\") */\n      tag_258\n      jumpi\n      mload(0x40)\n      0x08c379a000000000000000000000000000000000000000000000000000000000\n      dup2\n      mstore\n      0x04\n      add\n      tag_259\n      swap1\n      tag_260\n      jump\t// in\n    tag_259:\n      mload(0x40)\n      dup1\n      swap2\n      sub\n      swap1\n      revert\n    tag_258:\n        /* \"contracts/Marketplace2/Marketplace.sol\":19500:19509  mainToken */\n      0x09\n      0x00\n      swap1\n      sload\n      swap1\n      0x0100\n      exp\n      swap1\n      div\n      0xffffffffffffffffffffffffffffffffffffffff\n      and\n        /* \"contracts/Marketplace2/Marketplace.sol\":19500:19522  mainToken.transferFrom */\n      0xffffffffffffffffffffffffffffffffffffffff\n      and\n      0x23b872dd\n        /* \"contracts/Marketplace2/Marketplace.sol\":19523:19533  msg.sender */\n      caller\n        /* \"contracts/Marketplace2/Marketplace.sol\":19535:19549  idToMarketItem */\n      0x0f\n        /* \"contracts/Marketplace2/Marketplace.sol\":19535:19557  idToMarketItem[itemId] */\n      0x00\n        /* \"contracts/Marketplace2/Marketplace.sol\":19550:19556  itemId */\n      dup9\n        /* \"contracts/Marketplace2/Marketplace.sol\":19535:19557  idToMarketItem[itemId] */\n      dup2\n      mstore\n      0x20\n      add\n      swap1\n      dup2\n      mstore\n      0x20\n      add\n      0x00\n      keccak256\n        /* \"contracts/Marketplace2/Marketplace.sol\":19535:19564  idToMarketItem[itemId].seller */\n      0x02\n      add\n      0x00\n      swap1\n      sload\n      swap1\n      0x0100\n      exp\n      swap1\n      div\n      0xffffffffffffffffffffffffffffffffffffffff\n      and\n        /* \"contracts/Marketplace2/Marketplace.sol\":19567:19573  amount */\n      dup7\n        /* \"contracts/Marketplace2/Marketplace.sol\":19500:19574  mainToken.transferFrom(msg.sender, idToMarketItem[itemId].seller , amount) */\n      mload(0x40)\n      dup5\n      0xffffffff\n      and\n      0xe0\n      shl\n      dup2\n      mstore\n      0x04\n      add\n      tag_261\n      swap4\n      swap3\n      swap2\n      swap1\n      tag_262\n      jump\t// in\n    tag_261:\n      0x20\n      mload(0x40)\n      dup1\n      dup4\n      sub\n      dup2\n      0x00\n      dup8\n      gas\n      call\n      iszero\n      dup1\n      iszero\n      tag_264\n      jumpi\n      returndatasize\n      0x00\n      dup1\n      returndatacopy\n      revert(0x00, returndatasize)\n    tag_264:\n      pop\n      pop\n      pop\n      pop\n      mload(0x40)\n      returndatasize\n      not(0x1f)\n      0x1f\n      dup3\n      add\n      and\n      dup3\n      add\n      dup1\n      0x40\n      mstore\n      pop\n      dup2\n      add\n      swap1\n      tag_265\n      swap2\n      swap1\n      tag_266\n      jump\t// in\n    tag_265:\n      pop\n        /* \"contracts/Marketplace2/Marketplace.sol\":19580:19588  mainNFTs */\n      0x0b\n      0x00\n      swap1\n      sload\n      swap1\n      0x0100\n      exp\n      swap1\n      div\n      0xffffffffffffffffffffffffffffffffffffffff\n      and\n        /* \"contracts/Marketplace2/Marketplace.sol\":19580:19601  mainNFTs.transferFrom */\n      0xffffffffffffffffffffffffffffffffffffffff\n      and\n      0x23b872dd\n        /* \"contracts/Marketplace2/Marketplace.sol\":19610:19614  this */\n      address\n        /* \"contracts/Marketplace2/Marketplace.sol\":19617:19627  msg.sender */\n      caller\n        /* \"contracts/Marketplace2/Marketplace.sol\":19629:19636  tokenId */\n      dup5\n        /* \"contracts/Marketplace2/Marketplace.sol\":19580:19637  mainNFTs.transferFrom(address(this), msg.sender, tokenId) */\n      mload(0x40)\n      dup5\n      0xffffffff\n      and\n      0xe0\n      shl\n      dup2\n      mstore\n      0x04\n      add\n      tag_267\n      swap4\n      swap3\n      swap2\n      swap1\n      tag_234\n      jump\t// in\n    tag_267:\n      0x00\n      mload(0x40)\n      dup1\n      dup4\n      sub\n      dup2\n      0x00\n      dup8\n      dup1\n      extcodesize\n      iszero\n      dup1\n      iszero\n      tag_268\n      jumpi\n      0x00\n      dup1\n      revert\n    tag_268:\n      pop\n      gas\n      call\n      iszero\n      dup1\n      iszero\n      tag_270\n      jumpi\n      returndatasize\n      0x00\n      dup1\n      returndatacopy\n      revert(0x00, returndatasize)\n    tag_270:\n      pop\n      pop\n      pop\n      pop\n        /* \"contracts/Marketplace2/Marketplace.sol\":19682:19692  msg.sender */\n      caller\n        /* \"contracts/Marketplace2/Marketplace.sol\":19643:19657  idToMarketItem */\n      0x0f\n        /* \"contracts/Marketplace2/Marketplace.sol\":19643:19665  idToMarketItem[itemId] */\n      0x00\n        /* \"contracts/Marketplace2/Marketplace.sol\":19658:19664  itemId */\n      dup7\n        /* \"contracts/Marketplace2/Marketplace.sol\":19643:19665  idToMarketItem[itemId] */\n      dup2\n      mstore\n      0x20\n      add\n      swap1\n      dup2\n      mstore\n      0x20\n      add\n      0x00\n      keccak256\n        /* \"contracts/Marketplace2/Marketplace.sol\":19643:19671  idToMarketItem[itemId].owner */\n      0x03\n      add\n      0x00\n        /* \"contracts/Marketplace2/Marketplace.sol\":19643:19693  idToMarketItem[itemId].owner = payable(msg.sender) */\n      0x0100\n      exp\n      dup2\n      sload\n      dup2\n      0xffffffffffffffffffffffffffffffffffffffff\n      mul\n      not\n      and\n      swap1\n      dup4\n      0xffffffffffffffffffffffffffffffffffffffff\n      and\n      mul\n      or\n      swap1\n      sstore\n      pop\n        /* \"contracts/Marketplace2/Marketplace.sol\":19731:19748  ItemStatus.MINTED */\n      0x00\n        /* \"contracts/Marketplace2/Marketplace.sol\":19699:19713  idToMarketItem */\n      0x0f\n        /* \"contracts/Marketplace2/Marketplace.sol\":19699:19721  idToMarketItem[itemId] */\n      0x00\n        /* \"contracts/Marketplace2/Marketplace.sol\":19714:19720  itemId */\n      dup7\n        /* \"contracts/Marketplace2/Marketplace.sol\":19699:19721  idToMarketItem[itemId] */\n      dup2\n      mstore\n      0x20\n      add\n      swap1\n      dup2\n      mstore\n      0x20\n      add\n      0x00\n      keccak256\n        /* \"contracts/Marketplace2/Marketplace.sol\":19699:19728  idToMarketItem[itemId].status */\n      0x05\n      add\n      0x00\n        /* \"contracts/Marketplace2/Marketplace.sol\":19699:19748  idToMarketItem[itemId].status = ItemStatus.MINTED */\n      0x0100\n      exp\n      dup2\n      sload\n      dup2\n      0xff\n      mul\n      not\n      and\n      swap1\n      dup4\n      0x01\n      dup2\n      gt\n      iszero\n      tag_271\n      jumpi\n      tag_272\n      tag_148\n      jump\t// in\n    tag_272:\n    tag_271:\n      mul\n      or\n      swap1\n      sstore\n      pop\n        /* \"contracts/Marketplace2/Marketplace.sol\":19755:19787  IFactory.ingameItems memory item */\n      0x00\n        /* \"contracts/Marketplace2/Marketplace.sol\":19790:19797  factory */\n      0x0a\n      0x00\n      swap1\n      sload\n      swap1\n      0x0100\n      exp\n      swap1\n      div\n      0xffffffffffffffffffffffffffffffffffffffff\n      and\n        /* \"contracts/Marketplace2/Marketplace.sol\":19790:19808  factory.ingameItem */\n      0xffffffffffffffffffffffffffffffffffffffff\n      and\n      0xd30bdac9\n        /* \"contracts/Marketplace2/Marketplace.sol\":19809:19816  tokenId */\n      dup4\n        /* \"contracts/Marketplace2/Marketplace.sol\":19790:19817  factory.ingameItem(tokenId) */\n      mload(0x40)\n      dup3\n      0xffffffff\n      and\n      0xe0\n      shl\n      dup2\n      mstore\n      0x04\n      add\n      tag_273\n      swap2\n      swap1\n      tag_161\n      jump\t// in\n    tag_273:\n      0x00\n      mload(0x40)\n      dup1\n      dup4\n      sub\n      dup2\n      dup7\n      gas\n      staticcall\n      iszero\n      dup1\n      iszero\n      tag_275\n      jumpi\n      returndatasize\n      0x00\n      dup1\n      returndatacopy\n      revert(0x00, returndatasize)\n    tag_275:\n      pop\n      pop\n      pop\n      pop\n      mload(0x40)\n      returndatasize\n      0x00\n      dup3\n      returndatacopy\n      returndatasize\n      not(0x1f)\n      0x1f\n      dup3\n      add\n      and\n      dup3\n      add\n      dup1\n      0x40\n      mstore\n      pop\n      dup2\n      add\n      swap1\n      tag_276\n      swap2\n      swap1\n      tag_165\n      jump\t// in\n    tag_276:\n        /* \"contracts/Marketplace2/Marketplace.sol\":19755:19817  IFactory.ingameItems memory item = factory.ingameItem(tokenId) */\n      swap1\n      pop\n        /* \"contracts/Marketplace2/Marketplace.sol\":19836:19846  msg.sender */\n      caller\n        /* \"contracts/Marketplace2/Marketplace.sol\":19823:19827  item */\n      dup2\n        /* \"contracts/Marketplace2/Marketplace.sol\":19823:19833  item.owner */\n      0x20\n      add\n        /* \"contracts/Marketplace2/Marketplace.sol\":19823:19846  item.owner = msg.sender */\n      swap1\n      0xffffffffffffffffffffffffffffffffffffffff\n      and\n      swap1\n      dup2\n      0xffffffffffffffffffffffffffffffffffffffff\n      and\n      dup2\n      mstore\n      pop\n      pop\n        /* \"contracts/Marketplace2/Marketplace.sol\":19922:19944  _itemsSold.increment() */\n      tag_277\n        /* \"contracts/Marketplace2/Marketplace.sol\":19922:19932  _itemsSold */\n      0x0e\n        /* \"contracts/Marketplace2/Marketplace.sol\":19922:19942  _itemsSold.increment */\n      tag_227\n        /* \"contracts/Marketplace2/Marketplace.sol\":19922:19944  _itemsSold.increment() */\n      jump\t// in\n    tag_277:\n        /* \"contracts/Marketplace2/Marketplace.sol\":19239:19949  {... */\n      pop\n      pop\n      pop\n        /* \"contracts/Marketplace2/Marketplace.sol\":14122:14123  1 */\n      0x01\n        /* \"contracts/Marketplace2/Marketplace.sol\":15049:15056  _status */\n      0x00\n        /* \"contracts/Marketplace2/Marketplace.sol\":15049:15071  _status = _NOT_ENTERED */\n      dup2\n      swap1\n      sstore\n      pop\n        /* \"contracts/Marketplace2/Marketplace.sol\":19147:19949  function createMarketSale(... */\n      pop\n      pop\n      jump\t// out\n        /* \"contracts/Marketplace2/Marketplace.sol\":20921:21814  function delistItem(address nftAddress, uint256 itemId) public {... */\n    tag_109:\n        /* \"contracts/Marketplace2/Marketplace.sol\":20994:21020  _requireERC721(nftAddress) */\n      tag_279\n        /* \"contracts/Marketplace2/Marketplace.sol\":21009:21019  nftAddress */\n      dup3\n        /* \"contracts/Marketplace2/Marketplace.sol\":20994:21008  _requireERC721 */\n      tag_280\n        /* \"contracts/Marketplace2/Marketplace.sol\":20994:21020  _requireERC721(nftAddress) */\n      jump\t// in\n    tag_279:\n        /* \"contracts/Marketplace2/Marketplace.sol\":21031:21047  address deleteBy */\n      0x00\n        /* \"contracts/Marketplace2/Marketplace.sol\":21050:21060  msg.sender */\n      caller\n        /* \"contracts/Marketplace2/Marketplace.sol\":21031:21060  address deleteBy = msg.sender */\n      swap1\n      pop\n        /* \"contracts/Marketplace2/Marketplace.sol\":21070:21092  MarketItem memory item */\n      0x00\n        /* \"contracts/Marketplace2/Marketplace.sol\":21095:21109  idToMarketItem */\n      0x0f\n        /* \"contracts/Marketplace2/Marketplace.sol\":21095:21117  idToMarketItem[itemId] */\n      0x00\n        /* \"contracts/Marketplace2/Marketplace.sol\":21110:21116  itemId */\n      dup5\n        /* \"contracts/Marketplace2/Marketplace.sol\":21095:21117  idToMarketItem[itemId] */\n      dup2\n      mstore\n      0x20\n      add\n      swap1\n      dup2\n      mstore\n      0x20\n      add\n      0x00\n      keccak256\n        /* \"contracts/Marketplace2/Marketplace.sol\":21070:21117  MarketItem memory item = idToMarketItem[itemId] */\n      mload(0x40)\n      dup1\n      0xc0\n      add\n      0x40\n      mstore\n      swap1\n      dup2\n      0x00\n      dup3\n      add\n      sload\n      dup2\n      mstore\n      0x20\n      add\n      0x01\n      dup3\n      add\n      sload\n      dup2\n      mstore\n      0x20\n      add\n      0x02\n      dup3\n      add\n      0x00\n      swap1\n      sload\n      swap1\n      0x0100\n      exp\n      swap1\n      div\n      0xffffffffffffffffffffffffffffffffffffffff\n      and\n      0xffffffffffffffffffffffffffffffffffffffff\n      and\n      0xffffffffffffffffffffffffffffffffffffffff\n      and\n      dup2\n      mstore\n      0x20\n      add\n      0x03\n      dup3\n      add\n      0x00\n      swap1\n      sload\n      swap1\n      0x0100\n      exp\n      swap1\n      div\n      0xffffffffffffffffffffffffffffffffffffffff\n      and\n      0xffffffffffffffffffffffffffffffffffffffff\n      and\n      0xffffffffffffffffffffffffffffffffffffffff\n      and\n      dup2\n      mstore\n      0x20\n      add\n      0x04\n      dup3\n      add\n      sload\n      dup2\n      mstore\n      0x20\n      add\n      0x05\n      dup3\n      add\n      0x00\n      swap1\n      sload\n      swap1\n      0x0100\n      exp\n      swap1\n      div\n      0xff\n      and\n      0x01\n      dup2\n      gt\n      iszero\n      tag_281\n      jumpi\n      tag_282\n      tag_148\n      jump\t// in\n    tag_282:\n    tag_281:\n      0x01\n      dup2\n      gt\n      iszero\n      tag_283\n      jumpi\n      tag_284\n      tag_148\n      jump\t// in\n    tag_284:\n    tag_283:\n      dup2\n      mstore\n      pop\n      pop\n      swap1\n      pop\n        /* \"contracts/Marketplace2/Marketplace.sol\":21152:21153  0 */\n      0x00\n        /* \"contracts/Marketplace2/Marketplace.sol\":21137:21141  item */\n      dup2\n        /* \"contracts/Marketplace2/Marketplace.sol\":21137:21148  item.itemId */\n      0x00\n      add\n      mload\n        /* \"contracts/Marketplace2/Marketplace.sol\":21137:21153  item.itemId != 0 */\n      sub\n        /* \"contracts/Marketplace2/Marketplace.sol\":21129:21177  require(item.itemId != 0, \"Asset not published\") */\n      tag_285\n      jumpi\n      mload(0x40)\n      0x08c379a000000000000000000000000000000000000000000000000000000000\n      dup2\n      mstore\n      0x04\n      add\n      tag_286\n      swap1\n      tag_287\n      jump\t// in\n    tag_286:\n      mload(0x40)\n      dup1\n      swap2\n      sub\n      swap1\n      revert\n    tag_285:\n        /* \"contracts/Marketplace2/Marketplace.sol\":21210:21227  ItemStatus.MINTED */\n      0x00\n        /* \"contracts/Marketplace2/Marketplace.sol\":21195:21227  item.status != ItemStatus.MINTED */\n      0x01\n      dup2\n      gt\n      iszero\n      tag_288\n      jumpi\n      tag_289\n      tag_148\n      jump\t// in\n    tag_289:\n    tag_288:\n        /* \"contracts/Marketplace2/Marketplace.sol\":21195:21199  item */\n      dup2\n        /* \"contracts/Marketplace2/Marketplace.sol\":21195:21206  item.status */\n      0xa0\n      add\n      mload\n        /* \"contracts/Marketplace2/Marketplace.sol\":21195:21227  item.status != ItemStatus.MINTED */\n      0x01\n      dup2\n      gt\n      iszero\n      tag_290\n      jumpi\n      tag_291\n      tag_148\n      jump\t// in\n    tag_291:\n    tag_290:\n      sub\n        /* \"contracts/Marketplace2/Marketplace.sol\":21187:21246  require(item.status != ItemStatus.MINTED, \"Asset delisted\") */\n      tag_292\n      jumpi\n      mload(0x40)\n      0x08c379a000000000000000000000000000000000000000000000000000000000\n      dup2\n      mstore\n      0x04\n      add\n      tag_293\n      swap1\n      tag_294\n      jump\t// in\n    tag_293:\n      mload(0x40)\n      dup1\n      swap2\n      sub\n      swap1\n      revert\n    tag_292:\n        /* \"contracts/Marketplace2/Marketplace.sol\":21257:21271  address seller */\n      0x00\n        /* \"contracts/Marketplace2/Marketplace.sol\":21274:21278  item */\n      dup2\n        /* \"contracts/Marketplace2/Marketplace.sol\":21274:21285  item.seller */\n      0x40\n      add\n      mload\n        /* \"contracts/Marketplace2/Marketplace.sol\":21257:21285  address seller = item.seller */\n      swap1\n      pop\n        /* \"contracts/Marketplace2/Marketplace.sol\":21321:21322  0 */\n      0x00\n        /* \"contracts/Marketplace2/Marketplace.sol\":21303:21323  seller != address(0) */\n      0xffffffffffffffffffffffffffffffffffffffff\n      and\n        /* \"contracts/Marketplace2/Marketplace.sol\":21303:21309  seller */\n      dup2\n        /* \"contracts/Marketplace2/Marketplace.sol\":21303:21323  seller != address(0) */\n      0xffffffffffffffffffffffffffffffffffffffff\n      and\n      sub\n        /* \"contracts/Marketplace2/Marketplace.sol\":21295:21343  require(seller != address(0), \"Invalid address\") */\n      tag_295\n      jumpi\n      mload(0x40)\n      0x08c379a000000000000000000000000000000000000000000000000000000000\n      dup2\n      mstore\n      0x04\n      add\n      tag_296\n      swap1\n      tag_297\n      jump\t// in\n    tag_296:\n      mload(0x40)\n      dup1\n      swap2\n      sub\n      swap1\n      revert\n    tag_295:\n        /* \"contracts/Marketplace2/Marketplace.sol\":21384:21394  msg.sender */\n      caller\n        /* \"contracts/Marketplace2/Marketplace.sol\":21374:21394  seller == msg.sender */\n      0xffffffffffffffffffffffffffffffffffffffff\n      and\n        /* \"contracts/Marketplace2/Marketplace.sol\":21374:21380  seller */\n      dup2\n        /* \"contracts/Marketplace2/Marketplace.sol\":21374:21394  seller == msg.sender */\n      0xffffffffffffffffffffffffffffffffffffffff\n      and\n      eq\n        /* \"contracts/Marketplace2/Marketplace.sol\":21353:21442  require(... */\n      tag_298\n      jumpi\n      mload(0x40)\n      0x08c379a000000000000000000000000000000000000000000000000000000000\n      dup2\n      mstore\n      0x04\n      add\n      tag_299\n      swap1\n      tag_300\n      jump\t// in\n    tag_299:\n      mload(0x40)\n      dup1\n      swap2\n      sub\n      swap1\n      revert\n    tag_298:\n        /* \"contracts/Marketplace2/Marketplace.sol\":21452:21471  IERC721 nftRegistry */\n      0x00\n        /* \"contracts/Marketplace2/Marketplace.sol\":21482:21492  nftAddress */\n      dup6\n        /* \"contracts/Marketplace2/Marketplace.sol\":21452:21493  IERC721 nftRegistry = IERC721(nftAddress) */\n      swap1\n      pop\n        /* \"contracts/Marketplace2/Marketplace.sol\":21503:21514  nftRegistry */\n      dup1\n        /* \"contracts/Marketplace2/Marketplace.sol\":21503:21531  nftRegistry.safeTransferFrom */\n      0xffffffffffffffffffffffffffffffffffffffff\n      and\n      0x42842e0e\n        /* \"contracts/Marketplace2/Marketplace.sol\":21540:21544  this */\n      address\n        /* \"contracts/Marketplace2/Marketplace.sol\":21547:21553  seller */\n      dup5\n        /* \"contracts/Marketplace2/Marketplace.sol\":21555:21561  itemId */\n      dup9\n        /* \"contracts/Marketplace2/Marketplace.sol\":21503:21562  nftRegistry.safeTransferFrom(address(this), seller, itemId) */\n      mload(0x40)\n      dup5\n      0xffffffff\n      and\n      0xe0\n      shl\n      dup2\n      mstore\n      0x04\n      add\n      tag_301\n      swap4\n      swap3\n      swap2\n      swap1\n      tag_234\n      jump\t// in\n    tag_301:\n      0x00\n      mload(0x40)\n      dup1\n      dup4\n      sub\n      dup2\n      0x00\n      dup8\n      dup1\n      extcodesize\n      iszero\n      dup1\n      iszero\n      tag_302\n      jumpi\n      0x00\n      dup1\n      revert\n    tag_302:\n      pop\n      gas\n      call\n      iszero\n      dup1\n      iszero\n      tag_304\n      jumpi\n      returndatasize\n      0x00\n      dup1\n      returndatacopy\n      revert(0x00, returndatasize)\n    tag_304:\n      pop\n      pop\n      pop\n      pop\n        /* \"contracts/Marketplace2/Marketplace.sol\":21586:21603  ItemStatus.MINTED */\n      0x00\n        /* \"contracts/Marketplace2/Marketplace.sol\":21572:21576  item */\n      dup4\n        /* \"contracts/Marketplace2/Marketplace.sol\":21572:21583  item.status */\n      0xa0\n      add\n        /* \"contracts/Marketplace2/Marketplace.sol\":21572:21603  item.status = ItemStatus.MINTED */\n      swap1\n      0x01\n      dup2\n      gt\n      iszero\n      tag_305\n      jumpi\n      tag_306\n      tag_148\n      jump\t// in\n    tag_306:\n    tag_305:\n      swap1\n      dup2\n      0x01\n      dup2\n      gt\n      iszero\n      tag_307\n      jumpi\n      tag_308\n      tag_148\n      jump\t// in\n    tag_308:\n    tag_307:\n      dup2\n      mstore\n      pop\n      pop\n        /* \"contracts/Marketplace2/Marketplace.sol\":21620:21634  idToMarketItem */\n      0x0f\n        /* \"contracts/Marketplace2/Marketplace.sol\":21620:21642  idToMarketItem[itemId] */\n      0x00\n        /* \"contracts/Marketplace2/Marketplace.sol\":21635:21641  itemId */\n      dup7\n        /* \"contracts/Marketplace2/Marketplace.sol\":21620:21642  idToMarketItem[itemId] */\n      dup2\n      mstore\n      0x20\n      add\n      swap1\n      dup2\n      mstore\n      0x20\n      add\n      0x00\n      keccak256\n      0x00\n        /* \"contracts/Marketplace2/Marketplace.sol\":21613:21642  delete idToMarketItem[itemId] */\n      dup1\n      dup3\n      add\n      0x00\n      swap1\n      sstore\n      0x01\n      dup3\n      add\n      0x00\n      swap1\n      sstore\n      0x02\n      dup3\n      add\n      exp(0x0100, 0x00)\n      dup2\n      sload\n      swap1\n      0xffffffffffffffffffffffffffffffffffffffff\n      mul\n      not\n      and\n      swap1\n      sstore\n      0x03\n      dup3\n      add\n      exp(0x0100, 0x00)\n      dup2\n      sload\n      swap1\n      0xffffffffffffffffffffffffffffffffffffffff\n      mul\n      not\n      and\n      swap1\n      sstore\n      0x04\n      dup3\n      add\n      0x00\n      swap1\n      sstore\n      0x05\n      dup3\n      add\n      exp(0x0100, 0x00)\n      dup2\n      sload\n      swap1\n      0xff\n      mul\n      not\n      and\n      swap1\n      sstore\n      pop\n      pop\n        /* \"contracts/Marketplace2/Marketplace.sol\":21760:21768  deleteBy */\n      dup4\n        /* \"contracts/Marketplace2/Marketplace.sol\":21657:21807  DelistItemSuccessful(... */\n      0xffffffffffffffffffffffffffffffffffffffff\n      and\n        /* \"contracts/Marketplace2/Marketplace.sol\":21740:21746  itemId */\n      dup6\n        /* \"contracts/Marketplace2/Marketplace.sol\":21657:21807  DelistItemSuccessful(... */\n      0xc141ecc59e1a451ee7d3128743c8ca3174955ce97262896269482d5f84b39a85\n        /* \"contracts/Marketplace2/Marketplace.sol\":21691:21701  nftAddress */\n      dup9\n        /* \"contracts/Marketplace2/Marketplace.sol\":21715:21719  item */\n      dup7\n        /* \"contracts/Marketplace2/Marketplace.sol\":21715:21726  item.itemId */\n      0x00\n      add\n      mload\n        /* \"contracts/Marketplace2/Marketplace.sol\":21782:21797  block.timestamp */\n      timestamp\n        /* \"contracts/Marketplace2/Marketplace.sol\":21657:21807  DelistItemSuccessful(... */\n      mload(0x40)\n      tag_309\n      swap4\n      swap3\n      swap2\n      swap1\n      tag_310\n      jump\t// in\n    tag_309:\n      mload(0x40)\n      dup1\n      swap2\n      sub\n      swap1\n      log3\n        /* \"contracts/Marketplace2/Marketplace.sol\":20984:21814  {... */\n      pop\n      pop\n      pop\n      pop\n        /* \"contracts/Marketplace2/Marketplace.sol\":20921:21814  function delistItem(address nftAddress, uint256 itemId) public {... */\n      pop\n      pop\n      jump\t// out\n        /* \"contracts/Marketplace2/Marketplace.sol\":16217:16244  uint8 public antaFeePercent */\n    tag_112:\n      0x0b\n      0x15\n      swap1\n      sload\n      swap1\n      0x0100\n      exp\n      swap1\n      div\n      0xff\n      and\n      dup2\n      jump\t// out\n        /* \"contracts/Marketplace2/Marketplace.sol\":16126:16149  IFactory public factory */\n    tag_116:\n      0x0a\n      0x00\n      swap1\n      sload\n      swap1\n      0x0100\n      exp\n      swap1\n      div\n      0xffffffffffffffffffffffffffffffffffffffff\n      and\n      dup2\n      jump\t// out\n        /* \"contracts/Marketplace2/Marketplace.sol\":17576:17713  function getMarketItem(uint256 marketItemId) public view returns (MarketItem memory) {... */\n    tag_122:\n        /* \"contracts/Marketplace2/Marketplace.sol\":17642:17659  MarketItem memory */\n      tag_311\n      tag_144\n      jump\t// in\n    tag_311:\n        /* \"contracts/Marketplace2/Marketplace.sol\":17678:17692  idToMarketItem */\n      0x0f\n        /* \"contracts/Marketplace2/Marketplace.sol\":17678:17706  idToMarketItem[marketItemId] */\n      0x00\n        /* \"contracts/Marketplace2/Marketplace.sol\":17693:17705  marketItemId */\n      dup4\n        /* \"contracts/Marketplace2/Marketplace.sol\":17678:17706  idToMarketItem[marketItemId] */\n      dup2\n      mstore\n      0x20\n      add\n      swap1\n      dup2\n      mstore\n      0x20\n      add\n      0x00\n      keccak256\n        /* \"contracts/Marketplace2/Marketplace.sol\":17671:17706  return idToMarketItem[marketItemId] */\n      mload(0x40)\n      dup1\n      0xc0\n      add\n      0x40\n      mstore\n      swap1\n      dup2\n      0x00\n      dup3\n      add\n      sload\n      dup2\n      mstore\n      0x20\n      add\n      0x01\n      dup3\n      add\n      sload\n      dup2\n      mstore\n      0x20\n      add\n      0x02\n      dup3\n      add\n      0x00\n      swap1\n      sload\n      swap1\n      0x0100\n      exp\n      swap1\n      div\n      0xffffffffffffffffffffffffffffffffffffffff\n      and\n      0xffffffffffffffffffffffffffffffffffffffff\n      and\n      0xffffffffffffffffffffffffffffffffffffffff\n      and\n      dup2\n      mstore\n      0x20\n      add\n      0x03\n      dup3\n      add\n      0x00\n      swap1\n      sload\n      swap1\n      0x0100\n      exp\n      swap1\n      div\n      0xffffffffffffffffffffffffffffffffffffffff\n      and\n      0xffffffffffffffffffffffffffffffffffffffff\n      and\n      0xffffffffffffffffffffffffffffffffffffffff\n      and\n      dup2\n      mstore\n      0x20\n      add\n      0x04\n      dup3\n      add\n      sload\n      dup2\n      mstore\n      0x20\n      add\n      0x05\n      dup3\n      add\n      0x00\n      swap1\n      sload\n      swap1\n      0x0100\n      exp\n      swap1\n      div\n      0xff\n      and\n      0x01\n      dup2\n      gt\n      iszero\n      tag_313\n      jumpi\n      tag_314\n      tag_148\n      jump\t// in\n    tag_314:\n    tag_313:\n      0x01\n      dup2\n      gt\n      iszero\n      tag_315\n      jumpi\n      tag_316\n      tag_148\n      jump\t// in\n    tag_316:\n    tag_315:\n      dup2\n      mstore\n      pop\n      pop\n      swap1\n      pop\n        /* \"contracts/Marketplace2/Marketplace.sol\":17576:17713  function getMarketItem(uint256 marketItemId) public view returns (MarketItem memory) {... */\n      swap2\n      swap1\n      pop\n      jump\t// out\n        /* \"contracts/Marketplace2/Marketplace.sol\":18938:19143  function testView(uint256 tokenId) public view returns (address) { ... */\n    tag_127:\n        /* \"contracts/Marketplace2/Marketplace.sol\":18994:19001  address */\n      0x00\n        /* \"contracts/Marketplace2/Marketplace.sol\":19014:19046  IFactory.ingameItems memory item */\n      dup1\n        /* \"contracts/Marketplace2/Marketplace.sol\":19049:19056  factory */\n      0x0a\n      0x00\n      swap1\n      sload\n      swap1\n      0x0100\n      exp\n      swap1\n      div\n      0xffffffffffffffffffffffffffffffffffffffff\n      and\n        /* \"contracts/Marketplace2/Marketplace.sol\":19049:19067  factory.ingameItem */\n      0xffffffffffffffffffffffffffffffffffffffff\n      and\n      0xd30bdac9\n        /* \"contracts/Marketplace2/Marketplace.sol\":19068:19075  tokenId */\n      dup5\n        /* \"contracts/Marketplace2/Marketplace.sol\":19049:19076  factory.ingameItem(tokenId) */\n      mload(0x40)\n      dup3\n      0xffffffff\n      and\n      0xe0\n      shl\n      dup2\n      mstore\n      0x04\n      add\n      tag_318\n      swap2\n      swap1\n      tag_161\n      jump\t// in\n    tag_318:\n      0x00\n      mload(0x40)\n      dup1\n      dup4\n      sub\n      dup2\n      dup7\n      gas\n      staticcall\n      iszero\n      dup1\n      iszero\n      tag_320\n      jumpi\n      returndatasize\n      0x00\n      dup1\n      returndatacopy\n      revert(0x00, returndatasize)\n    tag_320:\n      pop\n      pop\n      pop\n      pop\n      mload(0x40)\n      returndatasize\n      0x00\n      dup3\n      returndatacopy\n      returndatasize\n      not(0x1f)\n      0x1f\n      dup3\n      add\n      and\n      dup3\n      add\n      dup1\n      0x40\n      mstore\n      pop\n      dup2\n      add\n      swap1\n      tag_321\n      swap2\n      swap1\n      tag_165\n      jump\t// in\n    tag_321:\n        /* \"contracts/Marketplace2/Marketplace.sol\":19014:19076  IFactory.ingameItems memory item = factory.ingameItem(tokenId) */\n      swap1\n      pop\n        /* \"contracts/Marketplace2/Marketplace.sol\":19099:19109  msg.sender */\n      caller\n        /* \"contracts/Marketplace2/Marketplace.sol\":19086:19090  item */\n      dup2\n        /* \"contracts/Marketplace2/Marketplace.sol\":19086:19096  item.owner */\n      0x20\n      add\n        /* \"contracts/Marketplace2/Marketplace.sol\":19086:19109  item.owner = msg.sender */\n      swap1\n      0xffffffffffffffffffffffffffffffffffffffff\n      and\n      swap1\n      dup2\n      0xffffffffffffffffffffffffffffffffffffffff\n      and\n      dup2\n      mstore\n      pop\n      pop\n        /* \"contracts/Marketplace2/Marketplace.sol\":19126:19130  item */\n      dup1\n        /* \"contracts/Marketplace2/Marketplace.sol\":19126:19136  item.owner */\n      0x20\n      add\n      mload\n        /* \"contracts/Marketplace2/Marketplace.sol\":19119:19136  return item.owner */\n      swap2\n      pop\n      pop\n        /* \"contracts/Marketplace2/Marketplace.sol\":18938:19143  function testView(uint256 tokenId) public view returns (address) { ... */\n      swap2\n      swap1\n      pop\n      jump\t// out\n        /* \"contracts/Marketplace2/Marketplace.sol\":2558:2756  function transferOwnership(address newOwner) public virtual onlyOwner {... */\n    tag_132:\n        /* \"contracts/Marketplace2/Marketplace.sol\":1899:1911  _msgSender() */\n      tag_323\n        /* \"contracts/Marketplace2/Marketplace.sol\":1899:1909  _msgSender */\n      tag_153\n        /* \"contracts/Marketplace2/Marketplace.sol\":1899:1911  _msgSender() */\n      jump\t// in\n    tag_323:\n        /* \"contracts/Marketplace2/Marketplace.sol\":1888:1911  owner() == _msgSender() */\n      0xffffffffffffffffffffffffffffffffffffffff\n      and\n        /* \"contracts/Marketplace2/Marketplace.sol\":1888:1895  owner() */\n      tag_324\n        /* \"contracts/Marketplace2/Marketplace.sol\":1888:1893  owner */\n      tag_99\n        /* \"contracts/Marketplace2/Marketplace.sol\":1888:1895  owner() */\n      jump\t// in\n    tag_324:\n        /* \"contracts/Marketplace2/Marketplace.sol\":1888:1911  owner() == _msgSender() */\n      0xffffffffffffffffffffffffffffffffffffffff\n      and\n      eq\n        /* \"contracts/Marketplace2/Marketplace.sol\":1880:1948  require(owner() == _msgSender(), \"Ownable: caller is not the owner\") */\n      tag_325\n      jumpi\n      mload(0x40)\n      0x08c379a000000000000000000000000000000000000000000000000000000000\n      dup2\n      mstore\n      0x04\n      add\n      tag_326\n      swap1\n      tag_157\n      jump\t// in\n    tag_326:\n      mload(0x40)\n      dup1\n      swap2\n      sub\n      swap1\n      revert\n    tag_325:\n        /* \"contracts/Marketplace2/Marketplace.sol\":2666:2667  0 */\n      0x00\n        /* \"contracts/Marketplace2/Marketplace.sol\":2646:2668  newOwner != address(0) */\n      0xffffffffffffffffffffffffffffffffffffffff\n      and\n        /* \"contracts/Marketplace2/Marketplace.sol\":2646:2654  newOwner */\n      dup2\n        /* \"contracts/Marketplace2/Marketplace.sol\":2646:2668  newOwner != address(0) */\n      0xffffffffffffffffffffffffffffffffffffffff\n      and\n      sub\n        /* \"contracts/Marketplace2/Marketplace.sol\":2638:2711  require(newOwner != address(0), \"Ownable: new owner is the zero address\") */\n      tag_328\n      jumpi\n      mload(0x40)\n      0x08c379a000000000000000000000000000000000000000000000000000000000\n      dup2\n      mstore\n      0x04\n      add\n      tag_329\n      swap1\n      tag_330\n      jump\t// in\n    tag_329:\n      mload(0x40)\n      dup1\n      swap2\n      sub\n      swap1\n      revert\n    tag_328:\n        /* \"contracts/Marketplace2/Marketplace.sol\":2721:2749  _transferOwnership(newOwner) */\n      tag_331\n        /* \"contracts/Marketplace2/Marketplace.sol\":2740:2748  newOwner */\n      dup2\n        /* \"contracts/Marketplace2/Marketplace.sol\":2721:2739  _transferOwnership */\n      tag_252\n        /* \"contracts/Marketplace2/Marketplace.sol\":2721:2749  _transferOwnership(newOwner) */\n      jump\t// in\n    tag_331:\n        /* \"contracts/Marketplace2/Marketplace.sol\":2558:2756  function transferOwnership(address newOwner) public virtual onlyOwner {... */\n      pop\n      jump\t// out\n        /* \"contracts/Marketplace2/Marketplace.sol\":16155:16178  IERC721 public mainNFTs */\n    tag_135:\n      0x0b\n      0x00\n      swap1\n      sload\n      swap1\n      0x0100\n      exp\n      swap1\n      div\n      0xffffffffffffffffffffffffffffffffffffffff\n      and\n      dup2\n      jump\t// out\n        /* \"contracts/Marketplace2/Marketplace.sol\":15903:15950  mapping (uint256 => MarketItem) public allItems */\n    tag_141:\n      mstore(0x20, 0x07)\n      dup1\n      0x00\n      mstore\n      keccak256(0x00, 0x40)\n      0x00\n      swap2\n      pop\n      swap1\n      pop\n      dup1\n      0x00\n      add\n      sload\n      swap1\n      dup1\n      0x01\n      add\n      sload\n      swap1\n      dup1\n      0x02\n      add\n      0x00\n      swap1\n      sload\n      swap1\n      0x0100\n      exp\n      swap1\n      div\n      0xffffffffffffffffffffffffffffffffffffffff\n      and\n      swap1\n      dup1\n      0x03\n      add\n      0x00\n      swap1\n      sload\n      swap1\n      0x0100\n      exp\n      swap1\n      div\n      0xffffffffffffffffffffffffffffffffffffffff\n      and\n      swap1\n      dup1\n      0x04\n      add\n      sload\n      swap1\n      dup1\n      0x05\n      add\n      0x00\n      swap1\n      sload\n      swap1\n      0x0100\n      exp\n      swap1\n      div\n      0xff\n      and\n      swap1\n      pop\n      dup7\n      jump\t// out\n        /* \"contracts/Marketplace2/Marketplace.sol\":554:650  function _msgSender() internal view virtual returns (address) {... */\n    tag_153:\n        /* \"contracts/Marketplace2/Marketplace.sol\":607:614  address */\n      0x00\n        /* \"contracts/Marketplace2/Marketplace.sol\":633:643  msg.sender */\n      caller\n        /* \"contracts/Marketplace2/Marketplace.sol\":626:643  return msg.sender */\n      swap1\n      pop\n        /* \"contracts/Marketplace2/Marketplace.sol\":554:650  function _msgSender() internal view virtual returns (address) {... */\n      swap1\n      jump\t// out\n        /* \"contracts/Marketplace2/Marketplace.sol\":11851:11963  function current(Counter storage counter) internal view returns (uint256) {... */\n    tag_168:\n        /* \"contracts/Marketplace2/Marketplace.sol\":11916:11923  uint256 */\n      0x00\n        /* \"contracts/Marketplace2/Marketplace.sol\":11942:11949  counter */\n      dup2\n        /* \"contracts/Marketplace2/Marketplace.sol\":11942:11956  counter._value */\n      0x00\n      add\n      sload\n        /* \"contracts/Marketplace2/Marketplace.sol\":11935:11956  return counter._value */\n      swap1\n      pop\n        /* \"contracts/Marketplace2/Marketplace.sol\":11851:11963  function current(Counter storage counter) internal view returns (uint256) {... */\n      swap2\n      swap1\n      pop\n      jump\t// out\n        /* \"contracts/Marketplace2/Marketplace.sol\":11969:12092  function increment(Counter storage counter) internal {... */\n    tag_227:\n        /* \"contracts/Marketplace2/Marketplace.sol\":12074:12075  1 */\n      0x01\n        /* \"contracts/Marketplace2/Marketplace.sol\":12056:12063  counter */\n      dup2\n        /* \"contracts/Marketplace2/Marketplace.sol\":12056:12070  counter._value */\n      0x00\n      add\n      0x00\n        /* \"contracts/Marketplace2/Marketplace.sol\":12056:12075  counter._value += 1 */\n      dup3\n      dup3\n      sload\n      add\n      swap3\n      pop\n      pop\n      dup2\n      swap1\n      sstore\n      pop\n        /* \"contracts/Marketplace2/Marketplace.sol\":11969:12092  function increment(Counter storage counter) internal {... */\n      pop\n      jump\t// out\n        /* \"contracts/Marketplace2/Marketplace.sol\":2910:3097  function _transferOwnership(address newOwner) internal virtual {... */\n    tag_252:\n        /* \"contracts/Marketplace2/Marketplace.sol\":2983:2999  address oldOwner */\n      0x00\n        /* \"contracts/Marketplace2/Marketplace.sol\":3002:3008  _owner */\n      0x0c\n      0x00\n      swap1\n      sload\n      swap1\n      0x0100\n      exp\n      swap1\n      div\n      0xffffffffffffffffffffffffffffffffffffffff\n      and\n        /* \"contracts/Marketplace2/Marketplace.sol\":2983:3008  address oldOwner = _owner */\n      swap1\n      pop\n        /* \"contracts/Marketplace2/Marketplace.sol\":3027:3035  newOwner */\n      dup2\n        /* \"contracts/Marketplace2/Marketplace.sol\":3018:3024  _owner */\n      0x0c\n      0x00\n        /* \"contracts/Marketplace2/Marketplace.sol\":3018:3035  _owner = newOwner */\n      0x0100\n      exp\n      dup2\n      sload\n      dup2\n      0xffffffffffffffffffffffffffffffffffffffff\n      mul\n      not\n      and\n      swap1\n      dup4\n      0xffffffffffffffffffffffffffffffffffffffff\n      and\n      mul\n      or\n      swap1\n      sstore\n      pop\n        /* \"contracts/Marketplace2/Marketplace.sol\":3081:3089  newOwner */\n      dup2\n        /* \"contracts/Marketplace2/Marketplace.sol\":3050:3090  OwnershipTransferred(oldOwner, newOwner) */\n      0xffffffffffffffffffffffffffffffffffffffff\n      and\n        /* \"contracts/Marketplace2/Marketplace.sol\":3071:3079  oldOwner */\n      dup2\n        /* \"contracts/Marketplace2/Marketplace.sol\":3050:3090  OwnershipTransferred(oldOwner, newOwner) */\n      0xffffffffffffffffffffffffffffffffffffffff\n      and\n      0x8be0079c531659141344cd1fd0a4f28419497f9722a3daafe3b4186f6b6457e0\n      mload(0x40)\n      mload(0x40)\n      dup1\n      swap2\n      sub\n      swap1\n      log3\n        /* \"contracts/Marketplace2/Marketplace.sol\":2973:3097  {... */\n      pop\n        /* \"contracts/Marketplace2/Marketplace.sol\":2910:3097  function _transferOwnership(address newOwner) internal virtual {... */\n      pop\n      jump\t// out\n        /* \"contracts/Marketplace2/Marketplace.sol\":23220:23609  function _requireERC721(address nftAddress) internal view {... */\n    tag_280:\n        /* \"contracts/Marketplace2/Marketplace.sol\":23309:23331  isContract(nftAddress) */\n      tag_337\n        /* \"contracts/Marketplace2/Marketplace.sol\":23320:23330  nftAddress */\n      dup2\n        /* \"contracts/Marketplace2/Marketplace.sol\":23309:23319  isContract */\n      tag_338\n        /* \"contracts/Marketplace2/Marketplace.sol\":23309:23331  isContract(nftAddress) */\n      jump\t// in\n    tag_337:\n        /* \"contracts/Marketplace2/Marketplace.sol\":23288:23393  require(... */\n      tag_339\n      jumpi\n      mload(0x40)\n      0x08c379a000000000000000000000000000000000000000000000000000000000\n      dup2\n      mstore\n      0x04\n      add\n      tag_340\n      swap1\n      tag_341\n      jump\t// in\n    tag_340:\n      mload(0x40)\n      dup1\n      swap2\n      sub\n      swap1\n      revert\n    tag_339:\n        /* \"contracts/Marketplace2/Marketplace.sol\":23404:23423  IERC721 nftRegistry */\n      0x00\n        /* \"contracts/Marketplace2/Marketplace.sol\":23434:23444  nftAddress */\n      dup2\n        /* \"contracts/Marketplace2/Marketplace.sol\":23404:23445  IERC721 nftRegistry = IERC721(nftAddress) */\n      swap1\n      pop\n        /* \"contracts/Marketplace2/Marketplace.sol\":23476:23487  nftRegistry */\n      dup1\n        /* \"contracts/Marketplace2/Marketplace.sol\":23476:23505  nftRegistry.supportsInterface */\n      0xffffffffffffffffffffffffffffffffffffffff\n      and\n      0x01ffc9a7\n        /* \"contracts/Marketplace2/Marketplace.sol\":15885:15895  0x80ac58cd */\n      0x80ac58cd\n        /* \"contracts/Marketplace2/Marketplace.sol\":15878:15896  bytes4(0x80ac58cd) */\n      0xe0\n      shl\n        /* \"contracts/Marketplace2/Marketplace.sol\":23476:23523  nftRegistry.supportsInterface(ERC721_Interface) */\n      mload(0x40)\n      dup3\n      0xffffffff\n      and\n      0xe0\n      shl\n      dup2\n      mstore\n      0x04\n      add\n      tag_342\n      swap2\n      swap1\n      tag_64\n      jump\t// in\n    tag_342:\n      0x20\n      mload(0x40)\n      dup1\n      dup4\n      sub\n      dup2\n      dup7\n      gas\n      staticcall\n      iszero\n      dup1\n      iszero\n      tag_344\n      jumpi\n      returndatasize\n      0x00\n      dup1\n      returndatacopy\n      revert(0x00, returndatasize)\n    tag_344:\n      pop\n      pop\n      pop\n      pop\n      mload(0x40)\n      returndatasize\n      not(0x1f)\n      0x1f\n      dup3\n      add\n      and\n      dup3\n      add\n      dup1\n      0x40\n      mstore\n      pop\n      dup2\n      add\n      swap1\n      tag_345\n      swap2\n      swap1\n      tag_266\n      jump\t// in\n    tag_345:\n        /* \"contracts/Marketplace2/Marketplace.sol\":23455:23602  require(... */\n      tag_346\n      jumpi\n      mload(0x40)\n      0x08c379a000000000000000000000000000000000000000000000000000000000\n      dup2\n      mstore\n      0x04\n      add\n      tag_347\n      swap1\n      tag_348\n      jump\t// in\n    tag_347:\n      mload(0x40)\n      dup1\n      swap2\n      sub\n      swap1\n      revert\n    tag_346:\n        /* \"contracts/Marketplace2/Marketplace.sol\":23278:23609  {... */\n      pop\n        /* \"contracts/Marketplace2/Marketplace.sol\":23220:23609  function _requireERC721(address nftAddress) internal view {... */\n      pop\n      jump\t// out\n        /* \"contracts/Marketplace2/Marketplace.sol\":23615:23772  function isContract(address _addr) private view returns (bool){... */\n    tag_338:\n        /* \"contracts/Marketplace2/Marketplace.sol\":23672:23676  bool */\n      0x00\n        /* \"contracts/Marketplace2/Marketplace.sol\":23683:23694  uint32 size */\n      dup1\n        /* \"contracts/Marketplace2/Marketplace.sol\":23735:23740  _addr */\n      dup3\n        /* \"contracts/Marketplace2/Marketplace.sol\":23723:23741  extcodesize(_addr) */\n      extcodesize\n        /* \"contracts/Marketplace2/Marketplace.sol\":23715:23741  size := extcodesize(_addr) */\n      swap1\n      pop\n        /* \"contracts/Marketplace2/Marketplace.sol\":23767:23768  0 */\n      0x00\n        /* \"contracts/Marketplace2/Marketplace.sol\":23760:23764  size */\n      dup2\n        /* \"contracts/Marketplace2/Marketplace.sol\":23760:23768  size > 0 */\n      0xffffffff\n      and\n      gt\n        /* \"contracts/Marketplace2/Marketplace.sol\":23752:23769  return (size > 0) */\n      swap2\n      pop\n      pop\n        /* \"contracts/Marketplace2/Marketplace.sol\":23615:23772  function isContract(address _addr) private view returns (bool){... */\n      swap2\n      swap1\n      pop\n      jump\t// out\n    tag_144:\n      mload(0x40)\n      dup1\n      0xc0\n      add\n      0x40\n      mstore\n      dup1\n      0x00\n      dup2\n      mstore\n      0x20\n      add\n      0x00\n      dup2\n      mstore\n      0x20\n      add\n      and(0xffffffffffffffffffffffffffffffffffffffff, 0x00)\n      dup2\n      mstore\n      0x20\n      add\n      and(0xffffffffffffffffffffffffffffffffffffffff, 0x00)\n      dup2\n      mstore\n      0x20\n      add\n      0x00\n      dup2\n      mstore\n      0x20\n      add\n      0x00\n      0x01\n      dup2\n      gt\n      iszero\n      tag_350\n      jumpi\n      tag_351\n      tag_148\n      jump\t// in\n    tag_351:\n    tag_350:\n      dup2\n      mstore\n      pop\n      swap1\n      jump\t// out\n        /* \"#utility.yul\":7:84   */\n    tag_352:\n        /* \"#utility.yul\":44:51   */\n      0x00\n        /* \"#utility.yul\":73:78   */\n      dup2\n        /* \"#utility.yul\":62:78   */\n      swap1\n      pop\n        /* \"#utility.yul\":7:84   */\n      swap2\n      swap1\n      pop\n      jump\t// out\n        /* \"#utility.yul\":90:198   */\n    tag_353:\n        /* \"#utility.yul\":167:191   */\n      tag_443\n        /* \"#utility.yul\":185:190   */\n      dup2\n        /* \"#utility.yul\":167:191   */\n      tag_352\n      jump\t// in\n    tag_443:\n        /* \"#utility.yul\":162:165   */\n      dup3\n        /* \"#utility.yul\":155:192   */\n      mstore\n        /* \"#utility.yul\":90:198   */\n      pop\n      pop\n      jump\t// out\n        /* \"#utility.yul\":204:330   */\n    tag_354:\n        /* \"#utility.yul\":241:248   */\n      0x00\n        /* \"#utility.yul\":281:323   */\n      0xffffffffffffffffffffffffffffffffffffffff\n        /* \"#utility.yul\":274:279   */\n      dup3\n        /* \"#utility.yul\":270:324   */\n      and\n        /* \"#utility.yul\":259:324   */\n      swap1\n      pop\n        /* \"#utility.yul\":204:330   */\n      swap2\n      swap1\n      pop\n      jump\t// out\n        /* \"#utility.yul\":336:440   */\n    tag_355:\n        /* \"#utility.yul\":381:388   */\n      0x00\n        /* \"#utility.yul\":410:434   */\n      tag_446\n        /* \"#utility.yul\":428:433   */\n      dup3\n        /* \"#utility.yul\":410:434   */\n      tag_354\n      jump\t// in\n    tag_446:\n        /* \"#utility.yul\":399:434   */\n      swap1\n      pop\n        /* \"#utility.yul\":336:440   */\n      swap2\n      swap1\n      pop\n      jump\t// out\n        /* \"#utility.yul\":446:578   */\n    tag_356:\n        /* \"#utility.yul\":539:571   */\n      tag_448\n        /* \"#utility.yul\":565:570   */\n      dup2\n        /* \"#utility.yul\":539:571   */\n      tag_355\n      jump\t// in\n    tag_448:\n        /* \"#utility.yul\":534:537   */\n      dup3\n        /* \"#utility.yul\":527:572   */\n      mstore\n        /* \"#utility.yul\":446:578   */\n      pop\n      pop\n      jump\t// out\n        /* \"#utility.yul\":584:764   */\n    tag_148:\n        /* \"#utility.yul\":632:709   */\n      0x4e487b7100000000000000000000000000000000000000000000000000000000\n        /* \"#utility.yul\":629:630   */\n      0x00\n        /* \"#utility.yul\":622:710   */\n      mstore\n        /* \"#utility.yul\":729:733   */\n      0x21\n        /* \"#utility.yul\":726:727   */\n      0x04\n        /* \"#utility.yul\":719:734   */\n      mstore\n        /* \"#utility.yul\":753:757   */\n      0x24\n        /* \"#utility.yul\":750:751   */\n      0x00\n        /* \"#utility.yul\":743:758   */\n      revert\n        /* \"#utility.yul\":770:889   */\n    tag_357:\n        /* \"#utility.yul\":857:858   */\n      0x02\n        /* \"#utility.yul\":850:855   */\n      dup2\n        /* \"#utility.yul\":847:859   */\n      lt\n        /* \"#utility.yul\":837:883   */\n      tag_451\n      jumpi\n        /* \"#utility.yul\":863:881   */\n      tag_452\n      tag_148\n      jump\t// in\n    tag_452:\n        /* \"#utility.yul\":837:883   */\n    tag_451:\n        /* \"#utility.yul\":770:889   */\n      pop\n      jump\t// out\n        /* \"#utility.yul\":895:1034   */\n    tag_358:\n        /* \"#utility.yul\":946:953   */\n      0x00\n        /* \"#utility.yul\":975:980   */\n      dup2\n        /* \"#utility.yul\":964:980   */\n      swap1\n      pop\n        /* \"#utility.yul\":981:1028   */\n      tag_454\n        /* \"#utility.yul\":1022:1027   */\n      dup3\n        /* \"#utility.yul\":981:1028   */\n      tag_357\n      jump\t// in\n    tag_454:\n        /* \"#utility.yul\":895:1034   */\n      swap2\n      swap1\n      pop\n      jump\t// out\n        /* \"#utility.yul\":1040:1179   */\n    tag_359:\n        /* \"#utility.yul\":1102:1111   */\n      0x00\n        /* \"#utility.yul\":1135:1173   */\n      tag_456\n        /* \"#utility.yul\":1167:1172   */\n      dup3\n        /* \"#utility.yul\":1135:1173   */\n      tag_358\n      jump\t// in\n    tag_456:\n        /* \"#utility.yul\":1122:1173   */\n      swap1\n      pop\n        /* \"#utility.yul\":1040:1179   */\n      swap2\n      swap1\n      pop\n      jump\t// out\n        /* \"#utility.yul\":1185:1330   */\n    tag_360:\n        /* \"#utility.yul\":1274:1323   */\n      tag_458\n        /* \"#utility.yul\":1317:1322   */\n      dup2\n        /* \"#utility.yul\":1274:1323   */\n      tag_359\n      jump\t// in\n    tag_458:\n        /* \"#utility.yul\":1269:1272   */\n      dup3\n        /* \"#utility.yul\":1262:1324   */\n      mstore\n        /* \"#utility.yul\":1185:1330   */\n      pop\n      pop\n      jump\t// out\n        /* \"#utility.yul\":1420:2682   */\n    tag_361:\n        /* \"#utility.yul\":1571:1575   */\n      0xc0\n        /* \"#utility.yul\":1566:1569   */\n      dup3\n        /* \"#utility.yul\":1562:1576   */\n      add\n        /* \"#utility.yul\":1660:1664   */\n      0x00\n        /* \"#utility.yul\":1653:1658   */\n      dup3\n        /* \"#utility.yul\":1649:1665   */\n      add\n        /* \"#utility.yul\":1643:1666   */\n      mload\n        /* \"#utility.yul\":1679:1742   */\n      tag_460\n        /* \"#utility.yul\":1736:1740   */\n      0x00\n        /* \"#utility.yul\":1731:1734   */\n      dup6\n        /* \"#utility.yul\":1727:1741   */\n      add\n        /* \"#utility.yul\":1713:1725   */\n      dup3\n        /* \"#utility.yul\":1679:1742   */\n      tag_353\n      jump\t// in\n    tag_460:\n        /* \"#utility.yul\":1586:1752   */\n      pop\n        /* \"#utility.yul\":1837:1841   */\n      0x20\n        /* \"#utility.yul\":1830:1835   */\n      dup3\n        /* \"#utility.yul\":1826:1842   */\n      add\n        /* \"#utility.yul\":1820:1843   */\n      mload\n        /* \"#utility.yul\":1856:1919   */\n      tag_461\n        /* \"#utility.yul\":1913:1917   */\n      0x20\n        /* \"#utility.yul\":1908:1911   */\n      dup6\n        /* \"#utility.yul\":1904:1918   */\n      add\n        /* \"#utility.yul\":1890:1902   */\n      dup3\n        /* \"#utility.yul\":1856:1919   */\n      tag_353\n      jump\t// in\n    tag_461:\n        /* \"#utility.yul\":1762:1929   */\n      pop\n        /* \"#utility.yul\":2013:2017   */\n      0x40\n        /* \"#utility.yul\":2006:2011   */\n      dup3\n        /* \"#utility.yul\":2002:2018   */\n      add\n        /* \"#utility.yul\":1996:2019   */\n      mload\n        /* \"#utility.yul\":2032:2111   */\n      tag_462\n        /* \"#utility.yul\":2105:2109   */\n      0x40\n        /* \"#utility.yul\":2100:2103   */\n      dup6\n        /* \"#utility.yul\":2096:2110   */\n      add\n        /* \"#utility.yul\":2082:2094   */\n      dup3\n        /* \"#utility.yul\":2032:2111   */\n      tag_356\n      jump\t// in\n    tag_462:\n        /* \"#utility.yul\":1939:2121   */\n      pop\n        /* \"#utility.yul\":2204:2208   */\n      0x60\n        /* \"#utility.yul\":2197:2202   */\n      dup3\n        /* \"#utility.yul\":2193:2209   */\n      add\n        /* \"#utility.yul\":2187:2210   */\n      mload\n        /* \"#utility.yul\":2223:2302   */\n      tag_463\n        /* \"#utility.yul\":2296:2300   */\n      0x60\n        /* \"#utility.yul\":2291:2294   */\n      dup6\n        /* \"#utility.yul\":2287:2301   */\n      add\n        /* \"#utility.yul\":2273:2285   */\n      dup3\n        /* \"#utility.yul\":2223:2302   */\n      tag_356\n      jump\t// in\n    tag_463:\n        /* \"#utility.yul\":2131:2312   */\n      pop\n        /* \"#utility.yul\":2395:2399   */\n      0x80\n        /* \"#utility.yul\":2388:2393   */\n      dup3\n        /* \"#utility.yul\":2384:2400   */\n      add\n        /* \"#utility.yul\":2378:2401   */\n      mload\n        /* \"#utility.yul\":2414:2477   */\n      tag_464\n        /* \"#utility.yul\":2471:2475   */\n      0x80\n        /* \"#utility.yul\":2466:2469   */\n      dup6\n        /* \"#utility.yul\":2462:2476   */\n      add\n        /* \"#utility.yul\":2448:2460   */\n      dup3\n        /* \"#utility.yul\":2414:2477   */\n      tag_353\n      jump\t// in\n    tag_464:\n        /* \"#utility.yul\":2322:2487   */\n      pop\n        /* \"#utility.yul\":2571:2575   */\n      0xa0\n        /* \"#utility.yul\":2564:2569   */\n      dup3\n        /* \"#utility.yul\":2560:2576   */\n      add\n        /* \"#utility.yul\":2554:2577   */\n      mload\n        /* \"#utility.yul\":2590:2665   */\n      tag_465\n        /* \"#utility.yul\":2659:2663   */\n      0xa0\n        /* \"#utility.yul\":2654:2657   */\n      dup6\n        /* \"#utility.yul\":2650:2664   */\n      add\n        /* \"#utility.yul\":2636:2648   */\n      dup3\n        /* \"#utility.yul\":2590:2665   */\n      tag_360\n      jump\t// in\n    tag_465:\n        /* \"#utility.yul\":2497:2675   */\n      pop\n        /* \"#utility.yul\":1540:2682   */\n      pop\n        /* \"#utility.yul\":1420:2682   */\n      pop\n      pop\n      jump\t// out\n        /* \"#utility.yul\":2688:3019   */\n    tag_33:\n        /* \"#utility.yul\":2835:2839   */\n      0x00\n        /* \"#utility.yul\":2873:2876   */\n      0xc0\n        /* \"#utility.yul\":2862:2871   */\n      dup3\n        /* \"#utility.yul\":2858:2877   */\n      add\n        /* \"#utility.yul\":2850:2877   */\n      swap1\n      pop\n        /* \"#utility.yul\":2887:3012   */\n      tag_467\n        /* \"#utility.yul\":3009:3010   */\n      0x00\n        /* \"#utility.yul\":2998:3007   */\n      dup4\n        /* \"#utility.yul\":2994:3011   */\n      add\n        /* \"#utility.yul\":2985:2991   */\n      dup5\n        /* \"#utility.yul\":2887:3012   */\n      tag_361\n      jump\t// in\n    tag_467:\n        /* \"#utility.yul\":2688:3019   */\n      swap3\n      swap2\n      pop\n      pop\n      jump\t// out\n        /* \"#utility.yul\":3025:3100   */\n    tag_362:\n        /* \"#utility.yul\":3058:3064   */\n      0x00\n        /* \"#utility.yul\":3091:3093   */\n      0x40\n        /* \"#utility.yul\":3085:3094   */\n      mload\n        /* \"#utility.yul\":3075:3094   */\n      swap1\n      pop\n        /* \"#utility.yul\":3025:3100   */\n      swap1\n      jump\t// out\n        /* \"#utility.yul\":3106:3223   */\n    tag_363:\n        /* \"#utility.yul\":3215:3216   */\n      0x00\n        /* \"#utility.yul\":3212:3213   */\n      dup1\n        /* \"#utility.yul\":3205:3217   */\n      revert\n        /* \"#utility.yul\":3229:3346   */\n    tag_364:\n        /* \"#utility.yul\":3338:3339   */\n      0x00\n        /* \"#utility.yul\":3335:3336   */\n      dup1\n        /* \"#utility.yul\":3328:3340   */\n      revert\n        /* \"#utility.yul\":3352:3448   */\n    tag_365:\n        /* \"#utility.yul\":3389:3396   */\n      0x00\n        /* \"#utility.yul\":3418:3442   */\n      tag_472\n        /* \"#utility.yul\":3436:3441   */\n      dup3\n        /* \"#utility.yul\":3418:3442   */\n      tag_354\n      jump\t// in\n    tag_472:\n        /* \"#utility.yul\":3407:3442   */\n      swap1\n      pop\n        /* \"#utility.yul\":3352:3448   */\n      swap2\n      swap1\n      pop\n      jump\t// out\n        /* \"#utility.yul\":3454:3576   */\n    tag_366:\n        /* \"#utility.yul\":3527:3551   */\n      tag_474\n        /* \"#utility.yul\":3545:3550   */\n      dup2\n        /* \"#utility.yul\":3527:3551   */\n      tag_365\n      jump\t// in\n    tag_474:\n        /* \"#utility.yul\":3520:3525   */\n      dup2\n        /* \"#utility.yul\":3517:3552   */\n      eq\n        /* \"#utility.yul\":3507:3570   */\n      tag_475\n      jumpi\n        /* \"#utility.yul\":3566:3567   */\n      0x00\n        /* \"#utility.yul\":3563:3564   */\n      dup1\n        /* \"#utility.yul\":3556:3568   */\n      revert\n        /* \"#utility.yul\":3507:3570   */\n    tag_475:\n        /* \"#utility.yul\":3454:3576   */\n      pop\n      jump\t// out\n        /* \"#utility.yul\":3582:3721   */\n    tag_367:\n        /* \"#utility.yul\":3628:3633   */\n      0x00\n        /* \"#utility.yul\":3666:3672   */\n      dup2\n        /* \"#utility.yul\":3653:3673   */\n      calldataload\n        /* \"#utility.yul\":3644:3673   */\n      swap1\n      pop\n        /* \"#utility.yul\":3682:3715   */\n      tag_477\n        /* \"#utility.yul\":3709:3714   */\n      dup2\n        /* \"#utility.yul\":3682:3715   */\n      tag_366\n      jump\t// in\n    tag_477:\n        /* \"#utility.yul\":3582:3721   */\n      swap3\n      swap2\n      pop\n      pop\n      jump\t// out\n        /* \"#utility.yul\":3727:4056   */\n    tag_37:\n        /* \"#utility.yul\":3786:3792   */\n      0x00\n        /* \"#utility.yul\":3835:3837   */\n      0x20\n        /* \"#utility.yul\":3823:3832   */\n      dup3\n        /* \"#utility.yul\":3814:3821   */\n      dup5\n        /* \"#utility.yul\":3810:3833   */\n      sub\n        /* \"#utility.yul\":3806:3838   */\n      slt\n        /* \"#utility.yul\":3803:3922   */\n      iszero\n      tag_479\n      jumpi\n        /* \"#utility.yul\":3841:3920   */\n      tag_480\n      tag_363\n      jump\t// in\n    tag_480:\n        /* \"#utility.yul\":3803:3922   */\n    tag_479:\n        /* \"#utility.yul\":3961:3962   */\n      0x00\n        /* \"#utility.yul\":3986:4039   */\n      tag_481\n        /* \"#utility.yul\":4031:4038   */\n      dup5\n        /* \"#utility.yul\":4022:4028   */\n      dup3\n        /* \"#utility.yul\":4011:4020   */\n      dup6\n        /* \"#utility.yul\":4007:4029   */\n      add\n        /* \"#utility.yul\":3986:4039   */\n      tag_367\n      jump\t// in\n    tag_481:\n        /* \"#utility.yul\":3976:4039   */\n      swap2\n      pop\n        /* \"#utility.yul\":3932:4049   */\n      pop\n        /* \"#utility.yul\":3727:4056   */\n      swap3\n      swap2\n      pop\n      pop\n      jump\t// out\n        /* \"#utility.yul\":4062:4184   */\n    tag_368:\n        /* \"#utility.yul\":4135:4159   */\n      tag_483\n        /* \"#utility.yul\":4153:4158   */\n      dup2\n        /* \"#utility.yul\":4135:4159   */\n      tag_352\n      jump\t// in\n    tag_483:\n        /* \"#utility.yul\":4128:4133   */\n      dup2\n        /* \"#utility.yul\":4125:4160   */\n      eq\n        /* \"#utility.yul\":4115:4178   */\n      tag_484\n      jumpi\n        /* \"#utility.yul\":4174:4175   */\n      0x00\n        /* \"#utility.yul\":4171:4172   */\n      dup1\n        /* \"#utility.yul\":4164:4176   */\n      revert\n        /* \"#utility.yul\":4115:4178   */\n    tag_484:\n        /* \"#utility.yul\":4062:4184   */\n      pop\n      jump\t// out\n        /* \"#utility.yul\":4190:4329   */\n    tag_369:\n        /* \"#utility.yul\":4236:4241   */\n      0x00\n        /* \"#utility.yul\":4274:4280   */\n      dup2\n        /* \"#utility.yul\":4261:4281   */\n      calldataload\n        /* \"#utility.yul\":4252:4281   */\n      swap1\n      pop\n        /* \"#utility.yul\":4290:4323   */\n      tag_486\n        /* \"#utility.yul\":4317:4322   */\n      dup2\n        /* \"#utility.yul\":4290:4323   */\n      tag_368\n      jump\t// in\n    tag_486:\n        /* \"#utility.yul\":4190:4329   */\n      swap3\n      swap2\n      pop\n      pop\n      jump\t// out\n        /* \"#utility.yul\":4335:4664   */\n    tag_42:\n        /* \"#utility.yul\":4394:4400   */\n      0x00\n        /* \"#utility.yul\":4443:4445   */\n      0x20\n        /* \"#utility.yul\":4431:4440   */\n      dup3\n        /* \"#utility.yul\":4422:4429   */\n      dup5\n        /* \"#utility.yul\":4418:4441   */\n      sub\n        /* \"#utility.yul\":4414:4446   */\n      slt\n        /* \"#utility.yul\":4411:4530   */\n      iszero\n      tag_488\n      jumpi\n        /* \"#utility.yul\":4449:4528   */\n      tag_489\n      tag_363\n      jump\t// in\n    tag_489:\n        /* \"#utility.yul\":4411:4530   */\n    tag_488:\n        /* \"#utility.yul\":4569:4570   */\n      0x00\n        /* \"#utility.yul\":4594:4647   */\n      tag_490\n        /* \"#utility.yul\":4639:4646   */\n      dup5\n        /* \"#utility.yul\":4630:4636   */\n      dup3\n        /* \"#utility.yul\":4619:4628   */\n      dup6\n        /* \"#utility.yul\":4615:4637   */\n      add\n        /* \"#utility.yul\":4594:4647   */\n      tag_369\n      jump\t// in\n    tag_490:\n        /* \"#utility.yul\":4584:4647   */\n      swap2\n      pop\n        /* \"#utility.yul\":4540:4657   */\n      pop\n        /* \"#utility.yul\":4335:4664   */\n      swap3\n      swap2\n      pop\n      pop\n      jump\t// out\n        /* \"#utility.yul\":4670:4760   */\n    tag_370:\n        /* \"#utility.yul\":4704:4711   */\n      0x00\n        /* \"#utility.yul\":4747:4752   */\n      dup2\n        /* \"#utility.yul\":4740:4753   */\n      iszero\n        /* \"#utility.yul\":4733:4754   */\n      iszero\n        /* \"#utility.yul\":4722:4754   */\n      swap1\n      pop\n        /* \"#utility.yul\":4670:4760   */\n      swap2\n      swap1\n      pop\n      jump\t// out\n        /* \"#utility.yul\":4766:4875   */\n    tag_371:\n        /* \"#utility.yul\":4847:4868   */\n      tag_493\n        /* \"#utility.yul\":4862:4867   */\n      dup2\n        /* \"#utility.yul\":4847:4868   */\n      tag_370\n      jump\t// in\n    tag_493:\n        /* \"#utility.yul\":4842:4845   */\n      dup3\n        /* \"#utility.yul\":4835:4869   */\n      mstore\n        /* \"#utility.yul\":4766:4875   */\n      pop\n      pop\n      jump\t// out\n        /* \"#utility.yul\":4881:5091   */\n    tag_45:\n        /* \"#utility.yul\":4968:4972   */\n      0x00\n        /* \"#utility.yul\":5006:5008   */\n      0x20\n        /* \"#utility.yul\":4995:5004   */\n      dup3\n        /* \"#utility.yul\":4991:5009   */\n      add\n        /* \"#utility.yul\":4983:5009   */\n      swap1\n      pop\n        /* \"#utility.yul\":5019:5084   */\n      tag_495\n        /* \"#utility.yul\":5081:5082   */\n      0x00\n        /* \"#utility.yul\":5070:5079   */\n      dup4\n        /* \"#utility.yul\":5066:5083   */\n      add\n        /* \"#utility.yul\":5057:5063   */\n      dup5\n        /* \"#utility.yul\":5019:5084   */\n      tag_371\n      jump\t// in\n    tag_495:\n        /* \"#utility.yul\":4881:5091   */\n      swap3\n      swap2\n      pop\n      pop\n      jump\t// out\n        /* \"#utility.yul\":5097:5238   */\n    tag_372:\n        /* \"#utility.yul\":5191:5197   */\n      0x00\n        /* \"#utility.yul\":5225:5230   */\n      dup2\n        /* \"#utility.yul\":5219:5231   */\n      mload\n        /* \"#utility.yul\":5209:5231   */\n      swap1\n      pop\n        /* \"#utility.yul\":5097:5238   */\n      swap2\n      swap1\n      pop\n      jump\t// out\n        /* \"#utility.yul\":5244:5455   */\n    tag_373:\n        /* \"#utility.yul\":5370:5381   */\n      0x00\n        /* \"#utility.yul\":5404:5410   */\n      dup3\n        /* \"#utility.yul\":5399:5402   */\n      dup3\n        /* \"#utility.yul\":5392:5411   */\n      mstore\n        /* \"#utility.yul\":5444:5448   */\n      0x20\n        /* \"#utility.yul\":5439:5442   */\n      dup3\n        /* \"#utility.yul\":5435:5449   */\n      add\n        /* \"#utility.yul\":5420:5449   */\n      swap1\n      pop\n        /* \"#utility.yul\":5244:5455   */\n      swap3\n      swap2\n      pop\n      pop\n      jump\t// out\n        /* \"#utility.yul\":5461:5620   */\n    tag_374:\n        /* \"#utility.yul\":5555:5559   */\n      0x00\n        /* \"#utility.yul\":5578:5581   */\n      dup2\n        /* \"#utility.yul\":5570:5581   */\n      swap1\n      pop\n        /* \"#utility.yul\":5608:5612   */\n      0x20\n        /* \"#utility.yul\":5603:5606   */\n      dup3\n        /* \"#utility.yul\":5599:5613   */\n      add\n        /* \"#utility.yul\":5591:5613   */\n      swap1\n      pop\n        /* \"#utility.yul\":5461:5620   */\n      swap2\n      swap1\n      pop\n      jump\t// out\n        /* \"#utility.yul\":5710:6962   */\n    tag_375:\n        /* \"#utility.yul\":5851:5855   */\n      0xc0\n        /* \"#utility.yul\":5846:5849   */\n      dup3\n        /* \"#utility.yul\":5842:5856   */\n      add\n        /* \"#utility.yul\":5940:5944   */\n      0x00\n        /* \"#utility.yul\":5933:5938   */\n      dup3\n        /* \"#utility.yul\":5929:5945   */\n      add\n        /* \"#utility.yul\":5923:5946   */\n      mload\n        /* \"#utility.yul\":5959:6022   */\n      tag_500\n        /* \"#utility.yul\":6016:6020   */\n      0x00\n        /* \"#utility.yul\":6011:6014   */\n      dup6\n        /* \"#utility.yul\":6007:6021   */\n      add\n        /* \"#utility.yul\":5993:6005   */\n      dup3\n        /* \"#utility.yul\":5959:6022   */\n      tag_353\n      jump\t// in\n    tag_500:\n        /* \"#utility.yul\":5866:6032   */\n      pop\n        /* \"#utility.yul\":6117:6121   */\n      0x20\n        /* \"#utility.yul\":6110:6115   */\n      dup3\n        /* \"#utility.yul\":6106:6122   */\n      add\n        /* \"#utility.yul\":6100:6123   */\n      mload\n        /* \"#utility.yul\":6136:6199   */\n      tag_501\n        /* \"#utility.yul\":6193:6197   */\n      0x20\n        /* \"#utility.yul\":6188:6191   */\n      dup6\n        /* \"#utility.yul\":6184:6198   */\n      add\n        /* \"#utility.yul\":6170:6182   */\n      dup3\n        /* \"#utility.yul\":6136:6199   */\n      tag_353\n      jump\t// in\n    tag_501:\n        /* \"#utility.yul\":6042:6209   */\n      pop\n        /* \"#utility.yul\":6293:6297   */\n      0x40\n        /* \"#utility.yul\":6286:6291   */\n      dup3\n        /* \"#utility.yul\":6282:6298   */\n      add\n        /* \"#utility.yul\":6276:6299   */\n      mload\n        /* \"#utility.yul\":6312:6391   */\n      tag_502\n        /* \"#utility.yul\":6385:6389   */\n      0x40\n        /* \"#utility.yul\":6380:6383   */\n      dup6\n        /* \"#utility.yul\":6376:6390   */\n      add\n        /* \"#utility.yul\":6362:6374   */\n      dup3\n        /* \"#utility.yul\":6312:6391   */\n      tag_356\n      jump\t// in\n    tag_502:\n        /* \"#utility.yul\":6219:6401   */\n      pop\n        /* \"#utility.yul\":6484:6488   */\n      0x60\n        /* \"#utility.yul\":6477:6482   */\n      dup3\n        /* \"#utility.yul\":6473:6489   */\n      add\n        /* \"#utility.yul\":6467:6490   */\n      mload\n        /* \"#utility.yul\":6503:6582   */\n      tag_503\n        /* \"#utility.yul\":6576:6580   */\n      0x60\n        /* \"#utility.yul\":6571:6574   */\n      dup6\n        /* \"#utility.yul\":6567:6581   */\n      add\n        /* \"#utility.yul\":6553:6565   */\n      dup3\n        /* \"#utility.yul\":6503:6582   */\n      tag_356\n      jump\t// in\n    tag_503:\n        /* \"#utility.yul\":6411:6592   */\n      pop\n        /* \"#utility.yul\":6675:6679   */\n      0x80\n        /* \"#utility.yul\":6668:6673   */\n      dup3\n        /* \"#utility.yul\":6664:6680   */\n      add\n        /* \"#utility.yul\":6658:6681   */\n      mload\n        /* \"#utility.yul\":6694:6757   */\n      tag_504\n        /* \"#utility.yul\":6751:6755   */\n      0x80\n        /* \"#utility.yul\":6746:6749   */\n      dup6\n        /* \"#utility.yul\":6742:6756   */\n      add\n        /* \"#utility.yul\":6728:6740   */\n      dup3\n        /* \"#utility.yul\":6694:6757   */\n      tag_353\n      jump\t// in\n    tag_504:\n        /* \"#utility.yul\":6602:6767   */\n      pop\n        /* \"#utility.yul\":6851:6855   */\n      0xa0\n        /* \"#utility.yul\":6844:6849   */\n      dup3\n        /* \"#utility.yul\":6840:6856   */\n      add\n        /* \"#utility.yul\":6834:6857   */\n      mload\n        /* \"#utility.yul\":6870:6945   */\n      tag_505\n        /* \"#utility.yul\":6939:6943   */\n      0xa0\n        /* \"#utility.yul\":6934:6937   */\n      dup6\n        /* \"#utility.yul\":6930:6944   */\n      add\n        /* \"#utility.yul\":6916:6928   */\n      dup3\n        /* \"#utility.yul\":6870:6945   */\n      tag_360\n      jump\t// in\n    tag_505:\n        /* \"#utility.yul\":6777:6955   */\n      pop\n        /* \"#utility.yul\":5820:6962   */\n      pop\n        /* \"#utility.yul\":5710:6962   */\n      pop\n      pop\n      jump\t// out\n        /* \"#utility.yul\":6968:7255   */\n    tag_376:\n        /* \"#utility.yul\":7091:7101   */\n      0x00\n        /* \"#utility.yul\":7112:7212   */\n      tag_507\n        /* \"#utility.yul\":7208:7211   */\n      dup4\n        /* \"#utility.yul\":7200:7206   */\n      dup4\n        /* \"#utility.yul\":7112:7212   */\n      tag_375\n      jump\t// in\n    tag_507:\n        /* \"#utility.yul\":7244:7248   */\n      0xc0\n        /* \"#utility.yul\":7239:7242   */\n      dup4\n        /* \"#utility.yul\":7235:7249   */\n      add\n        /* \"#utility.yul\":7221:7249   */\n      swap1\n      pop\n        /* \"#utility.yul\":6968:7255   */\n      swap3\n      swap2\n      pop\n      pop\n      jump\t// out\n        /* \"#utility.yul\":7261:7401   */\n    tag_377:\n        /* \"#utility.yul\":7358:7362   */\n      0x00\n        /* \"#utility.yul\":7390:7394   */\n      0x20\n        /* \"#utility.yul\":7385:7388   */\n      dup3\n        /* \"#utility.yul\":7381:7395   */\n      add\n        /* \"#utility.yul\":7373:7395   */\n      swap1\n      pop\n        /* \"#utility.yul\":7261:7401   */\n      swap2\n      swap1\n      pop\n      jump\t// out\n        /* \"#utility.yul\":7495:8443   */\n    tag_378:\n        /* \"#utility.yul\":7668:7671   */\n      0x00\n        /* \"#utility.yul\":7697:7778   */\n      tag_510\n        /* \"#utility.yul\":7772:7777   */\n      dup3\n        /* \"#utility.yul\":7697:7778   */\n      tag_372\n      jump\t// in\n    tag_510:\n        /* \"#utility.yul\":7794:7907   */\n      tag_511\n        /* \"#utility.yul\":7900:7906   */\n      dup2\n        /* \"#utility.yul\":7895:7898   */\n      dup6\n        /* \"#utility.yul\":7794:7907   */\n      tag_373\n      jump\t// in\n    tag_511:\n        /* \"#utility.yul\":7787:7907   */\n      swap4\n      pop\n        /* \"#utility.yul\":7931:8014   */\n      tag_512\n        /* \"#utility.yul\":8008:8013   */\n      dup4\n        /* \"#utility.yul\":7931:8014   */\n      tag_374\n      jump\t// in\n    tag_512:\n        /* \"#utility.yul\":8037:8044   */\n      dup1\n        /* \"#utility.yul\":8068:8069   */\n      0x00\n        /* \"#utility.yul\":8053:8418   */\n    tag_513:\n        /* \"#utility.yul\":8078:8084   */\n      dup4\n        /* \"#utility.yul\":8075:8076   */\n      dup2\n        /* \"#utility.yul\":8072:8085   */\n      lt\n        /* \"#utility.yul\":8053:8418   */\n      iszero\n      tag_515\n      jumpi\n        /* \"#utility.yul\":8154:8160   */\n      dup2\n        /* \"#utility.yul\":8148:8161   */\n      mload\n        /* \"#utility.yul\":8181:8298   */\n      tag_516\n        /* \"#utility.yul\":8294:8297   */\n      dup9\n        /* \"#utility.yul\":8279:8292   */\n      dup3\n        /* \"#utility.yul\":8181:8298   */\n      tag_376\n      jump\t// in\n    tag_516:\n        /* \"#utility.yul\":8174:8298   */\n      swap8\n      pop\n        /* \"#utility.yul\":8321:8408   */\n      tag_517\n        /* \"#utility.yul\":8401:8407   */\n      dup4\n        /* \"#utility.yul\":8321:8408   */\n      tag_377\n      jump\t// in\n    tag_517:\n        /* \"#utility.yul\":8311:8408   */\n      swap3\n      pop\n        /* \"#utility.yul\":8113:8418   */\n      pop\n        /* \"#utility.yul\":8100:8101   */\n      0x01\n        /* \"#utility.yul\":8097:8098   */\n      dup2\n        /* \"#utility.yul\":8093:8102   */\n      add\n        /* \"#utility.yul\":8088:8102   */\n      swap1\n      pop\n        /* \"#utility.yul\":8053:8418   */\n      jump(tag_513)\n    tag_515:\n        /* \"#utility.yul\":8057:8071   */\n      pop\n        /* \"#utility.yul\":8434:8437   */\n      dup6\n        /* \"#utility.yul\":8427:8437   */\n      swap4\n      pop\n        /* \"#utility.yul\":7673:8443   */\n      pop\n      pop\n      pop\n        /* \"#utility.yul\":7495:8443   */\n      swap3\n      swap2\n      pop\n      pop\n      jump\t// out\n        /* \"#utility.yul\":8449:8930   */\n    tag_50:\n        /* \"#utility.yul\":8646:8650   */\n      0x00\n        /* \"#utility.yul\":8684:8686   */\n      0x20\n        /* \"#utility.yul\":8673:8682   */\n      dup3\n        /* \"#utility.yul\":8669:8687   */\n      add\n        /* \"#utility.yul\":8661:8687   */\n      swap1\n      pop\n        /* \"#utility.yul\":8733:8742   */\n      dup2\n        /* \"#utility.yul\":8727:8731   */\n      dup2\n        /* \"#utility.yul\":8723:8743   */\n      sub\n        /* \"#utility.yul\":8719:8720   */\n      0x00\n        /* \"#utility.yul\":8708:8717   */\n      dup4\n        /* \"#utility.yul\":8704:8721   */\n      add\n        /* \"#utility.yul\":8697:8744   */\n      mstore\n        /* \"#utility.yul\":8761:8923   */\n      tag_519\n        /* \"#utility.yul\":8918:8922   */\n      dup2\n        /* \"#utility.yul\":8909:8915   */\n      dup5\n        /* \"#utility.yul\":8761:8923   */\n      tag_378\n      jump\t// in\n    tag_519:\n        /* \"#utility.yul\":8753:8923   */\n      swap1\n      pop\n        /* \"#utility.yul\":8449:8930   */\n      swap3\n      swap2\n      pop\n      pop\n      jump\t// out\n        /* \"#utility.yul\":8936:9085   */\n    tag_379:\n        /* \"#utility.yul\":8972:8979   */\n      0x00\n        /* \"#utility.yul\":9012:9078   */\n      0xffffffff00000000000000000000000000000000000000000000000000000000\n        /* \"#utility.yul\":9005:9010   */\n      dup3\n        /* \"#utility.yul\":9001:9079   */\n      and\n        /* \"#utility.yul\":8990:9079   */\n      swap1\n      pop\n        /* \"#utility.yul\":8936:9085   */\n      swap2\n      swap1\n      pop\n      jump\t// out\n        /* \"#utility.yul\":9091:9206   */\n    tag_380:\n        /* \"#utility.yul\":9176:9199   */\n      tag_522\n        /* \"#utility.yul\":9193:9198   */\n      dup2\n        /* \"#utility.yul\":9176:9199   */\n      tag_379\n      jump\t// in\n    tag_522:\n        /* \"#utility.yul\":9171:9174   */\n      dup3\n        /* \"#utility.yul\":9164:9200   */\n      mstore\n        /* \"#utility.yul\":9091:9206   */\n      pop\n      pop\n      jump\t// out\n        /* \"#utility.yul\":9212:9430   */\n    tag_64:\n        /* \"#utility.yul\":9303:9307   */\n      0x00\n        /* \"#utility.yul\":9341:9343   */\n      0x20\n        /* \"#utility.yul\":9330:9339   */\n      dup3\n        /* \"#utility.yul\":9326:9344   */\n      add\n        /* \"#utility.yul\":9318:9344   */\n      swap1\n      pop\n        /* \"#utility.yul\":9354:9423   */\n      tag_524\n        /* \"#utility.yul\":9420:9421   */\n      0x00\n        /* \"#utility.yul\":9409:9418   */\n      dup4\n        /* \"#utility.yul\":9405:9422   */\n      add\n        /* \"#utility.yul\":9396:9402   */\n      dup5\n        /* \"#utility.yul\":9354:9423   */\n      tag_380\n      jump\t// in\n    tag_524:\n        /* \"#utility.yul\":9212:9430   */\n      swap3\n      swap2\n      pop\n      pop\n      jump\t// out\n        /* \"#utility.yul\":9436:9910   */\n    tag_67:\n        /* \"#utility.yul\":9504:9510   */\n      0x00\n        /* \"#utility.yul\":9512:9518   */\n      dup1\n        /* \"#utility.yul\":9561:9563   */\n      0x40\n        /* \"#utility.yul\":9549:9558   */\n      dup4\n        /* \"#utility.yul\":9540:9547   */\n      dup6\n        /* \"#utility.yul\":9536:9559   */\n      sub\n        /* \"#utility.yul\":9532:9564   */\n      slt\n        /* \"#utility.yul\":9529:9648   */\n      iszero\n      tag_526\n      jumpi\n        /* \"#utility.yul\":9567:9646   */\n      tag_527\n      tag_363\n      jump\t// in\n    tag_527:\n        /* \"#utility.yul\":9529:9648   */\n    tag_526:\n        /* \"#utility.yul\":9687:9688   */\n      0x00\n        /* \"#utility.yul\":9712:9765   */\n      tag_528\n        /* \"#utility.yul\":9757:9764   */\n      dup6\n        /* \"#utility.yul\":9748:9754   */\n      dup3\n        /* \"#utility.yul\":9737:9746   */\n      dup7\n        /* \"#utility.yul\":9733:9755   */\n      add\n        /* \"#utility.yul\":9712:9765   */\n      tag_369\n      jump\t// in\n    tag_528:\n        /* \"#utility.yul\":9702:9765   */\n      swap3\n      pop\n        /* \"#utility.yul\":9658:9775   */\n      pop\n        /* \"#utility.yul\":9814:9816   */\n      0x20\n        /* \"#utility.yul\":9840:9893   */\n      tag_529\n        /* \"#utility.yul\":9885:9892   */\n      dup6\n        /* \"#utility.yul\":9876:9882   */\n      dup3\n        /* \"#utility.yul\":9865:9874   */\n      dup7\n        /* \"#utility.yul\":9861:9883   */\n      add\n        /* \"#utility.yul\":9840:9893   */\n      tag_369\n      jump\t// in\n    tag_529:\n        /* \"#utility.yul\":9830:9893   */\n      swap2\n      pop\n        /* \"#utility.yul\":9785:9903   */\n      pop\n        /* \"#utility.yul\":9436:9910   */\n      swap3\n      pop\n      swap3\n      swap1\n      pop\n      jump\t// out\n        /* \"#utility.yul\":9916:9976   */\n    tag_381:\n        /* \"#utility.yul\":9944:9947   */\n      0x00\n        /* \"#utility.yul\":9965:9970   */\n      dup2\n        /* \"#utility.yul\":9958:9970   */\n      swap1\n      pop\n        /* \"#utility.yul\":9916:9976   */\n      swap2\n      swap1\n      pop\n      jump\t// out\n        /* \"#utility.yul\":9982:10124   */\n    tag_382:\n        /* \"#utility.yul\":10032:10041   */\n      0x00\n        /* \"#utility.yul\":10065:10118   */\n      tag_532\n        /* \"#utility.yul\":10083:10117   */\n      tag_533\n        /* \"#utility.yul\":10092:10116   */\n      tag_534\n        /* \"#utility.yul\":10110:10115   */\n      dup5\n        /* \"#utility.yul\":10092:10116   */\n      tag_354\n      jump\t// in\n    tag_534:\n        /* \"#utility.yul\":10083:10117   */\n      tag_381\n      jump\t// in\n    tag_533:\n        /* \"#utility.yul\":10065:10118   */\n      tag_354\n      jump\t// in\n    tag_532:\n        /* \"#utility.yul\":10052:10118   */\n      swap1\n      pop\n        /* \"#utility.yul\":9982:10124   */\n      swap2\n      swap1\n      pop\n      jump\t// out\n        /* \"#utility.yul\":10130:10256   */\n    tag_383:\n        /* \"#utility.yul\":10180:10189   */\n      0x00\n        /* \"#utility.yul\":10213:10250   */\n      tag_536\n        /* \"#utility.yul\":10244:10249   */\n      dup3\n        /* \"#utility.yul\":10213:10250   */\n      tag_382\n      jump\t// in\n    tag_536:\n        /* \"#utility.yul\":10200:10250   */\n      swap1\n      pop\n        /* \"#utility.yul\":10130:10256   */\n      swap2\n      swap1\n      pop\n      jump\t// out\n        /* \"#utility.yul\":10262:10402   */\n    tag_384:\n        /* \"#utility.yul\":10326:10335   */\n      0x00\n        /* \"#utility.yul\":10359:10396   */\n      tag_538\n        /* \"#utility.yul\":10390:10395   */\n      dup3\n        /* \"#utility.yul\":10359:10396   */\n      tag_383\n      jump\t// in\n    tag_538:\n        /* \"#utility.yul\":10346:10396   */\n      swap1\n      pop\n        /* \"#utility.yul\":10262:10402   */\n      swap2\n      swap1\n      pop\n      jump\t// out\n        /* \"#utility.yul\":10408:10567   */\n    tag_385:\n        /* \"#utility.yul\":10509:10560   */\n      tag_540\n        /* \"#utility.yul\":10554:10559   */\n      dup2\n        /* \"#utility.yul\":10509:10560   */\n      tag_384\n      jump\t// in\n    tag_540:\n        /* \"#utility.yul\":10504:10507   */\n      dup3\n        /* \"#utility.yul\":10497:10561   */\n      mstore\n        /* \"#utility.yul\":10408:10567   */\n      pop\n      pop\n      jump\t// out\n        /* \"#utility.yul\":10573:10823   */\n    tag_73:\n        /* \"#utility.yul\":10680:10684   */\n      0x00\n        /* \"#utility.yul\":10718:10720   */\n      0x20\n        /* \"#utility.yul\":10707:10716   */\n      dup3\n        /* \"#utility.yul\":10703:10721   */\n      add\n        /* \"#utility.yul\":10695:10721   */\n      swap1\n      pop\n        /* \"#utility.yul\":10731:10816   */\n      tag_542\n        /* \"#utility.yul\":10813:10814   */\n      0x00\n        /* \"#utility.yul\":10802:10811   */\n      dup4\n        /* \"#utility.yul\":10798:10815   */\n      add\n        /* \"#utility.yul\":10789:10795   */\n      dup5\n        /* \"#utility.yul\":10731:10816   */\n      tag_385\n      jump\t// in\n    tag_542:\n        /* \"#utility.yul\":10573:10823   */\n      swap3\n      swap2\n      pop\n      pop\n      jump\t// out\n        /* \"#utility.yul\":10829:10947   */\n    tag_386:\n        /* \"#utility.yul\":10916:10940   */\n      tag_544\n        /* \"#utility.yul\":10934:10939   */\n      dup2\n        /* \"#utility.yul\":10916:10940   */\n      tag_352\n      jump\t// in\n    tag_544:\n        /* \"#utility.yul\":10911:10914   */\n      dup3\n        /* \"#utility.yul\":10904:10941   */\n      mstore\n        /* \"#utility.yul\":10829:10947   */\n      pop\n      pop\n      jump\t// out\n        /* \"#utility.yul\":10953:11095   */\n    tag_387:\n        /* \"#utility.yul\":11056:11088   */\n      tag_546\n        /* \"#utility.yul\":11082:11087   */\n      dup2\n        /* \"#utility.yul\":11056:11088   */\n      tag_355\n      jump\t// in\n    tag_546:\n        /* \"#utility.yul\":11051:11054   */\n      dup3\n        /* \"#utility.yul\":11044:11089   */\n      mstore\n        /* \"#utility.yul\":10953:11095   */\n      pop\n      pop\n      jump\t// out\n        /* \"#utility.yul\":11101:11256   */\n    tag_388:\n        /* \"#utility.yul\":11200:11249   */\n      tag_548\n        /* \"#utility.yul\":11243:11248   */\n      dup2\n        /* \"#utility.yul\":11200:11249   */\n      tag_359\n      jump\t// in\n    tag_548:\n        /* \"#utility.yul\":11195:11198   */\n      dup3\n        /* \"#utility.yul\":11188:11250   */\n      mstore\n        /* \"#utility.yul\":11101:11256   */\n      pop\n      pop\n      jump\t// out\n        /* \"#utility.yul\":11262:12125   */\n    tag_78:\n        /* \"#utility.yul\":11539:11543   */\n      0x00\n        /* \"#utility.yul\":11577:11580   */\n      0xc0\n        /* \"#utility.yul\":11566:11575   */\n      dup3\n        /* \"#utility.yul\":11562:11581   */\n      add\n        /* \"#utility.yul\":11554:11581   */\n      swap1\n      pop\n        /* \"#utility.yul\":11591:11662   */\n      tag_550\n        /* \"#utility.yul\":11659:11660   */\n      0x00\n        /* \"#utility.yul\":11648:11657   */\n      dup4\n        /* \"#utility.yul\":11644:11661   */\n      add\n        /* \"#utility.yul\":11635:11641   */\n      dup10\n        /* \"#utility.yul\":11591:11662   */\n      tag_386\n      jump\t// in\n    tag_550:\n        /* \"#utility.yul\":11672:11744   */\n      tag_551\n        /* \"#utility.yul\":11740:11742   */\n      0x20\n        /* \"#utility.yul\":11729:11738   */\n      dup4\n        /* \"#utility.yul\":11725:11743   */\n      add\n        /* \"#utility.yul\":11716:11722   */\n      dup9\n        /* \"#utility.yul\":11672:11744   */\n      tag_386\n      jump\t// in\n    tag_551:\n        /* \"#utility.yul\":11754:11842   */\n      tag_552\n        /* \"#utility.yul\":11838:11840   */\n      0x40\n        /* \"#utility.yul\":11827:11836   */\n      dup4\n        /* \"#utility.yul\":11823:11841   */\n      add\n        /* \"#utility.yul\":11814:11820   */\n      dup8\n        /* \"#utility.yul\":11754:11842   */\n      tag_387\n      jump\t// in\n    tag_552:\n        /* \"#utility.yul\":11852:11940   */\n      tag_553\n        /* \"#utility.yul\":11936:11938   */\n      0x60\n        /* \"#utility.yul\":11925:11934   */\n      dup4\n        /* \"#utility.yul\":11921:11939   */\n      add\n        /* \"#utility.yul\":11912:11918   */\n      dup7\n        /* \"#utility.yul\":11852:11940   */\n      tag_387\n      jump\t// in\n    tag_553:\n        /* \"#utility.yul\":11950:12023   */\n      tag_554\n        /* \"#utility.yul\":12018:12021   */\n      0x80\n        /* \"#utility.yul\":12007:12016   */\n      dup4\n        /* \"#utility.yul\":12003:12022   */\n      add\n        /* \"#utility.yul\":11994:12000   */\n      dup6\n        /* \"#utility.yul\":11950:12023   */\n      tag_386\n      jump\t// in\n    tag_554:\n        /* \"#utility.yul\":12033:12118   */\n      tag_555\n        /* \"#utility.yul\":12113:12116   */\n      0xa0\n        /* \"#utility.yul\":12102:12111   */\n      dup4\n        /* \"#utility.yul\":12098:12117   */\n      add\n        /* \"#utility.yul\":12089:12095   */\n      dup5\n        /* \"#utility.yul\":12033:12118   */\n      tag_388\n      jump\t// in\n    tag_555:\n        /* \"#utility.yul\":11262:12125   */\n      swap8\n      swap7\n      pop\n      pop\n      pop\n      pop\n      pop\n      pop\n      pop\n      jump\t// out\n        /* \"#utility.yul\":12131:12605   */\n    tag_86:\n        /* \"#utility.yul\":12199:12205   */\n      0x00\n        /* \"#utility.yul\":12207:12213   */\n      dup1\n        /* \"#utility.yul\":12256:12258   */\n      0x40\n        /* \"#utility.yul\":12244:12253   */\n      dup4\n        /* \"#utility.yul\":12235:12242   */\n      dup6\n        /* \"#utility.yul\":12231:12254   */\n      sub\n        /* \"#utility.yul\":12227:12259   */\n      slt\n        /* \"#utility.yul\":12224:12343   */\n      iszero\n      tag_557\n      jumpi\n        /* \"#utility.yul\":12262:12341   */\n      tag_558\n      tag_363\n      jump\t// in\n    tag_558:\n        /* \"#utility.yul\":12224:12343   */\n    tag_557:\n        /* \"#utility.yul\":12382:12383   */\n      0x00\n        /* \"#utility.yul\":12407:12460   */\n      tag_559\n        /* \"#utility.yul\":12452:12459   */\n      dup6\n        /* \"#utility.yul\":12443:12449   */\n      dup3\n        /* \"#utility.yul\":12432:12441   */\n      dup7\n        /* \"#utility.yul\":12428:12450   */\n      add\n        /* \"#utility.yul\":12407:12460   */\n      tag_367\n      jump\t// in\n    tag_559:\n        /* \"#utility.yul\":12397:12460   */\n      swap3\n      pop\n        /* \"#utility.yul\":12353:12470   */\n      pop\n        /* \"#utility.yul\":12509:12511   */\n      0x20\n        /* \"#utility.yul\":12535:12588   */\n      tag_560\n        /* \"#utility.yul\":12580:12587   */\n      dup6\n        /* \"#utility.yul\":12571:12577   */\n      dup3\n        /* \"#utility.yul\":12560:12569   */\n      dup7\n        /* \"#utility.yul\":12556:12578   */\n      add\n        /* \"#utility.yul\":12535:12588   */\n      tag_369\n      jump\t// in\n    tag_560:\n        /* \"#utility.yul\":12525:12588   */\n      swap2\n      pop\n        /* \"#utility.yul\":12480:12598   */\n      pop\n        /* \"#utility.yul\":12131:12605   */\n      swap3\n      pop\n      swap3\n      swap1\n      pop\n      jump\t// out\n        /* \"#utility.yul\":12611:12697   */\n    tag_389:\n        /* \"#utility.yul\":12646:12653   */\n      0x00\n        /* \"#utility.yul\":12686:12690   */\n      0xff\n        /* \"#utility.yul\":12679:12684   */\n      dup3\n        /* \"#utility.yul\":12675:12691   */\n      and\n        /* \"#utility.yul\":12664:12691   */\n      swap1\n      pop\n        /* \"#utility.yul\":12611:12697   */\n      swap2\n      swap1\n      pop\n      jump\t// out\n        /* \"#utility.yul\":12703:12815   */\n    tag_390:\n        /* \"#utility.yul\":12786:12808   */\n      tag_563\n        /* \"#utility.yul\":12802:12807   */\n      dup2\n        /* \"#utility.yul\":12786:12808   */\n      tag_389\n      jump\t// in\n    tag_563:\n        /* \"#utility.yul\":12781:12784   */\n      dup3\n        /* \"#utility.yul\":12774:12809   */\n      mstore\n        /* \"#utility.yul\":12703:12815   */\n      pop\n      pop\n      jump\t// out\n        /* \"#utility.yul\":12821:13035   */\n    tag_96:\n        /* \"#utility.yul\":12910:12914   */\n      0x00\n        /* \"#utility.yul\":12948:12950   */\n      0x20\n        /* \"#utility.yul\":12937:12946   */\n      dup3\n        /* \"#utility.yul\":12933:12951   */\n      add\n        /* \"#utility.yul\":12925:12951   */\n      swap1\n      pop\n        /* \"#utility.yul\":12961:13028   */\n      tag_565\n        /* \"#utility.yul\":13025:13026   */\n      0x00\n        /* \"#utility.yul\":13014:13023   */\n      dup4\n        /* \"#utility.yul\":13010:13027   */\n      add\n        /* \"#utility.yul\":13001:13007   */\n      dup5\n        /* \"#utility.yul\":12961:13028   */\n      tag_390\n      jump\t// in\n    tag_565:\n        /* \"#utility.yul\":12821:13035   */\n      swap3\n      swap2\n      pop\n      pop\n      jump\t// out\n        /* \"#utility.yul\":13041:13159   */\n    tag_391:\n        /* \"#utility.yul\":13128:13152   */\n      tag_567\n        /* \"#utility.yul\":13146:13151   */\n      dup2\n        /* \"#utility.yul\":13128:13152   */\n      tag_365\n      jump\t// in\n    tag_567:\n        /* \"#utility.yul\":13123:13126   */\n      dup3\n        /* \"#utility.yul\":13116:13153   */\n      mstore\n        /* \"#utility.yul\":13041:13159   */\n      pop\n      pop\n      jump\t// out\n        /* \"#utility.yul\":13165:13387   */\n    tag_101:\n        /* \"#utility.yul\":13258:13262   */\n      0x00\n        /* \"#utility.yul\":13296:13298   */\n      0x20\n        /* \"#utility.yul\":13285:13294   */\n      dup3\n        /* \"#utility.yul\":13281:13299   */\n      add\n        /* \"#utility.yul\":13273:13299   */\n      swap1\n      pop\n        /* \"#utility.yul\":13309:13380   */\n      tag_569\n        /* \"#utility.yul\":13377:13378   */\n      0x00\n        /* \"#utility.yul\":13366:13375   */\n      dup4\n        /* \"#utility.yul\":13362:13379   */\n      add\n        /* \"#utility.yul\":13353:13359   */\n      dup5\n        /* \"#utility.yul\":13309:13380   */\n      tag_391\n      jump\t// in\n    tag_569:\n        /* \"#utility.yul\":13165:13387   */\n      swap3\n      swap2\n      pop\n      pop\n      jump\t// out\n        /* \"#utility.yul\":13393:13535   */\n    tag_392:\n        /* \"#utility.yul\":13459:13468   */\n      0x00\n        /* \"#utility.yul\":13492:13529   */\n      tag_571\n        /* \"#utility.yul\":13523:13528   */\n      dup3\n        /* \"#utility.yul\":13492:13529   */\n      tag_383\n      jump\t// in\n    tag_571:\n        /* \"#utility.yul\":13479:13529   */\n      swap1\n      pop\n        /* \"#utility.yul\":13393:13535   */\n      swap2\n      swap1\n      pop\n      jump\t// out\n        /* \"#utility.yul\":13541:13704   */\n    tag_393:\n        /* \"#utility.yul\":13644:13697   */\n      tag_573\n        /* \"#utility.yul\":13691:13696   */\n      dup2\n        /* \"#utility.yul\":13644:13697   */\n      tag_392\n      jump\t// in\n    tag_573:\n        /* \"#utility.yul\":13639:13642   */\n      dup3\n        /* \"#utility.yul\":13632:13698   */\n      mstore\n        /* \"#utility.yul\":13541:13704   */\n      pop\n      pop\n      jump\t// out\n        /* \"#utility.yul\":13710:13964   */\n    tag_118:\n        /* \"#utility.yul\":13819:13823   */\n      0x00\n        /* \"#utility.yul\":13857:13859   */\n      0x20\n        /* \"#utility.yul\":13846:13855   */\n      dup3\n        /* \"#utility.yul\":13842:13860   */\n      add\n        /* \"#utility.yul\":13834:13860   */\n      swap1\n      pop\n        /* \"#utility.yul\":13870:13957   */\n      tag_575\n        /* \"#utility.yul\":13954:13955   */\n      0x00\n        /* \"#utility.yul\":13943:13952   */\n      dup4\n        /* \"#utility.yul\":13939:13956   */\n      add\n        /* \"#utility.yul\":13930:13936   */\n      dup5\n        /* \"#utility.yul\":13870:13957   */\n      tag_393\n      jump\t// in\n    tag_575:\n        /* \"#utility.yul\":13710:13964   */\n      swap3\n      swap2\n      pop\n      pop\n      jump\t// out\n        /* \"#utility.yul\":13970:14111   */\n    tag_394:\n        /* \"#utility.yul\":14035:14044   */\n      0x00\n        /* \"#utility.yul\":14068:14105   */\n      tag_577\n        /* \"#utility.yul\":14099:14104   */\n      dup3\n        /* \"#utility.yul\":14068:14105   */\n      tag_383\n      jump\t// in\n    tag_577:\n        /* \"#utility.yul\":14055:14105   */\n      swap1\n      pop\n        /* \"#utility.yul\":13970:14111   */\n      swap2\n      swap1\n      pop\n      jump\t// out\n        /* \"#utility.yul\":14117:14278   */\n    tag_395:\n        /* \"#utility.yul\":14219:14271   */\n      tag_579\n        /* \"#utility.yul\":14265:14270   */\n      dup2\n        /* \"#utility.yul\":14219:14271   */\n      tag_394\n      jump\t// in\n    tag_579:\n        /* \"#utility.yul\":14214:14217   */\n      dup3\n        /* \"#utility.yul\":14207:14272   */\n      mstore\n        /* \"#utility.yul\":14117:14278   */\n      pop\n      pop\n      jump\t// out\n        /* \"#utility.yul\":14284:14536   */\n    tag_137:\n        /* \"#utility.yul\":14392:14396   */\n      0x00\n        /* \"#utility.yul\":14430:14432   */\n      0x20\n        /* \"#utility.yul\":14419:14428   */\n      dup3\n        /* \"#utility.yul\":14415:14433   */\n      add\n        /* \"#utility.yul\":14407:14433   */\n      swap1\n      pop\n        /* \"#utility.yul\":14443:14529   */\n      tag_581\n        /* \"#utility.yul\":14526:14527   */\n      0x00\n        /* \"#utility.yul\":14515:14524   */\n      dup4\n        /* \"#utility.yul\":14511:14528   */\n      add\n        /* \"#utility.yul\":14502:14508   */\n      dup5\n        /* \"#utility.yul\":14443:14529   */\n      tag_395\n      jump\t// in\n    tag_581:\n        /* \"#utility.yul\":14284:14536   */\n      swap3\n      swap2\n      pop\n      pop\n      jump\t// out\n        /* \"#utility.yul\":14542:14711   */\n    tag_396:\n        /* \"#utility.yul\":14626:14637   */\n      0x00\n        /* \"#utility.yul\":14660:14666   */\n      dup3\n        /* \"#utility.yul\":14655:14658   */\n      dup3\n        /* \"#utility.yul\":14648:14667   */\n      mstore\n        /* \"#utility.yul\":14700:14704   */\n      0x20\n        /* \"#utility.yul\":14695:14698   */\n      dup3\n        /* \"#utility.yul\":14691:14705   */\n      add\n        /* \"#utility.yul\":14676:14705   */\n      swap1\n      pop\n        /* \"#utility.yul\":14542:14711   */\n      swap3\n      swap2\n      pop\n      pop\n      jump\t// out\n        /* \"#utility.yul\":14717:14899   */\n    tag_397:\n        /* \"#utility.yul\":14857:14891   */\n      0x4f776e61626c653a2063616c6c6572206973206e6f7420746865206f776e6572\n        /* \"#utility.yul\":14853:14854   */\n      0x00\n        /* \"#utility.yul\":14845:14851   */\n      dup3\n        /* \"#utility.yul\":14841:14855   */\n      add\n        /* \"#utility.yul\":14834:14892   */\n      mstore\n        /* \"#utility.yul\":14717:14899   */\n      pop\n      jump\t// out\n        /* \"#utility.yul\":14905:15271   */\n    tag_398:\n        /* \"#utility.yul\":15047:15050   */\n      0x00\n        /* \"#utility.yul\":15068:15135   */\n      tag_585\n        /* \"#utility.yul\":15132:15134   */\n      0x20\n        /* \"#utility.yul\":15127:15130   */\n      dup4\n        /* \"#utility.yul\":15068:15135   */\n      tag_396\n      jump\t// in\n    tag_585:\n        /* \"#utility.yul\":15061:15135   */\n      swap2\n      pop\n        /* \"#utility.yul\":15144:15237   */\n      tag_586\n        /* \"#utility.yul\":15233:15236   */\n      dup3\n        /* \"#utility.yul\":15144:15237   */\n      tag_397\n      jump\t// in\n    tag_586:\n        /* \"#utility.yul\":15262:15264   */\n      0x20\n        /* \"#utility.yul\":15257:15260   */\n      dup3\n        /* \"#utility.yul\":15253:15265   */\n      add\n        /* \"#utility.yul\":15246:15265   */\n      swap1\n      pop\n        /* \"#utility.yul\":14905:15271   */\n      swap2\n      swap1\n      pop\n      jump\t// out\n        /* \"#utility.yul\":15277:15696   */\n    tag_157:\n        /* \"#utility.yul\":15443:15447   */\n      0x00\n        /* \"#utility.yul\":15481:15483   */\n      0x20\n        /* \"#utility.yul\":15470:15479   */\n      dup3\n        /* \"#utility.yul\":15466:15484   */\n      add\n        /* \"#utility.yul\":15458:15484   */\n      swap1\n      pop\n        /* \"#utility.yul\":15530:15539   */\n      dup2\n        /* \"#utility.yul\":15524:15528   */\n      dup2\n        /* \"#utility.yul\":15520:15540   */\n      sub\n        /* \"#utility.yul\":15516:15517   */\n      0x00\n        /* \"#utility.yul\":15505:15514   */\n      dup4\n        /* \"#utility.yul\":15501:15518   */\n      add\n        /* \"#utility.yul\":15494:15541   */\n      mstore\n        /* \"#utility.yul\":15558:15689   */\n      tag_588\n        /* \"#utility.yul\":15684:15688   */\n      dup2\n        /* \"#utility.yul\":15558:15689   */\n      tag_398\n      jump\t// in\n    tag_588:\n        /* \"#utility.yul\":15550:15689   */\n      swap1\n      pop\n        /* \"#utility.yul\":15277:15696   */\n      swap2\n      swap1\n      pop\n      jump\t// out\n        /* \"#utility.yul\":15702:15924   */\n    tag_161:\n        /* \"#utility.yul\":15795:15799   */\n      0x00\n        /* \"#utility.yul\":15833:15835   */\n      0x20\n        /* \"#utility.yul\":15822:15831   */\n      dup3\n        /* \"#utility.yul\":15818:15836   */\n      add\n        /* \"#utility.yul\":15810:15836   */\n      swap1\n      pop\n        /* \"#utility.yul\":15846:15917   */\n      tag_590\n        /* \"#utility.yul\":15914:15915   */\n      0x00\n        /* \"#utility.yul\":15903:15912   */\n      dup4\n        /* \"#utility.yul\":15899:15916   */\n      add\n        /* \"#utility.yul\":15890:15896   */\n      dup5\n        /* \"#utility.yul\":15846:15917   */\n      tag_386\n      jump\t// in\n    tag_590:\n        /* \"#utility.yul\":15702:15924   */\n      swap3\n      swap2\n      pop\n      pop\n      jump\t// out\n        /* \"#utility.yul\":15930:16047   */\n    tag_399:\n        /* \"#utility.yul\":16039:16040   */\n      0x00\n        /* \"#utility.yul\":16036:16037   */\n      dup1\n        /* \"#utility.yul\":16029:16041   */\n      revert\n        /* \"#utility.yul\":16053:16155   */\n    tag_400:\n        /* \"#utility.yul\":16094:16100   */\n      0x00\n        /* \"#utility.yul\":16145:16147   */\n      0x1f\n        /* \"#utility.yul\":16141:16148   */\n      not\n        /* \"#utility.yul\":16136:16138   */\n      0x1f\n        /* \"#utility.yul\":16129:16134   */\n      dup4\n        /* \"#utility.yul\":16125:16139   */\n      add\n        /* \"#utility.yul\":16121:16149   */\n      and\n        /* \"#utility.yul\":16111:16149   */\n      swap1\n      pop\n        /* \"#utility.yul\":16053:16155   */\n      swap2\n      swap1\n      pop\n      jump\t// out\n        /* \"#utility.yul\":16161:16341   */\n    tag_180:\n        /* \"#utility.yul\":16209:16286   */\n      0x4e487b7100000000000000000000000000000000000000000000000000000000\n        /* \"#utility.yul\":16206:16207   */\n      0x00\n        /* \"#utility.yul\":16199:16287   */\n      mstore\n        /* \"#utility.yul\":16306:16310   */\n      0x41\n        /* \"#utility.yul\":16303:16304   */\n      0x04\n        /* \"#utility.yul\":16296:16311   */\n      mstore\n        /* \"#utility.yul\":16330:16334   */\n      0x24\n        /* \"#utility.yul\":16327:16328   */\n      0x00\n        /* \"#utility.yul\":16320:16335   */\n      revert\n        /* \"#utility.yul\":16347:16628   */\n    tag_401:\n        /* \"#utility.yul\":16430:16457   */\n      tag_595\n        /* \"#utility.yul\":16452:16456   */\n      dup3\n        /* \"#utility.yul\":16430:16457   */\n      tag_400\n      jump\t// in\n    tag_595:\n        /* \"#utility.yul\":16422:16428   */\n      dup2\n        /* \"#utility.yul\":16418:16458   */\n      add\n        /* \"#utility.yul\":16560:16566   */\n      dup2\n        /* \"#utility.yul\":16548:16558   */\n      dup2\n        /* \"#utility.yul\":16545:16567   */\n      lt\n        /* \"#utility.yul\":16524:16542   */\n      0xffffffffffffffff\n        /* \"#utility.yul\":16512:16522   */\n      dup3\n        /* \"#utility.yul\":16509:16543   */\n      gt\n        /* \"#utility.yul\":16506:16568   */\n      or\n        /* \"#utility.yul\":16503:16591   */\n      iszero\n      tag_596\n      jumpi\n        /* \"#utility.yul\":16571:16589   */\n      tag_597\n      tag_180\n      jump\t// in\n    tag_597:\n        /* \"#utility.yul\":16503:16591   */\n    tag_596:\n        /* \"#utility.yul\":16611:16621   */\n      dup1\n        /* \"#utility.yul\":16607:16609   */\n      0x40\n        /* \"#utility.yul\":16600:16622   */\n      mstore\n        /* \"#utility.yul\":16390:16628   */\n      pop\n        /* \"#utility.yul\":16347:16628   */\n      pop\n      pop\n      jump\t// out\n        /* \"#utility.yul\":16634:16763   */\n    tag_402:\n        /* \"#utility.yul\":16668:16674   */\n      0x00\n        /* \"#utility.yul\":16695:16715   */\n      tag_599\n      tag_362\n      jump\t// in\n    tag_599:\n        /* \"#utility.yul\":16685:16715   */\n      swap1\n      pop\n        /* \"#utility.yul\":16724:16757   */\n      tag_600\n        /* \"#utility.yul\":16752:16756   */\n      dup3\n        /* \"#utility.yul\":16744:16750   */\n      dup3\n        /* \"#utility.yul\":16724:16757   */\n      tag_401\n      jump\t// in\n    tag_600:\n        /* \"#utility.yul\":16634:16763   */\n      swap2\n      swap1\n      pop\n      jump\t// out\n        /* \"#utility.yul\":16769:16886   */\n    tag_403:\n        /* \"#utility.yul\":16878:16879   */\n      0x00\n        /* \"#utility.yul\":16875:16876   */\n      dup1\n        /* \"#utility.yul\":16868:16880   */\n      revert\n        /* \"#utility.yul\":16892:17035   */\n    tag_404:\n        /* \"#utility.yul\":16949:16954   */\n      0x00\n        /* \"#utility.yul\":16980:16986   */\n      dup2\n        /* \"#utility.yul\":16974:16987   */\n      mload\n        /* \"#utility.yul\":16965:16987   */\n      swap1\n      pop\n        /* \"#utility.yul\":16996:17029   */\n      tag_603\n        /* \"#utility.yul\":17023:17028   */\n      dup2\n        /* \"#utility.yul\":16996:17029   */\n      tag_368\n      jump\t// in\n    tag_603:\n        /* \"#utility.yul\":16892:17035   */\n      swap3\n      swap2\n      pop\n      pop\n      jump\t// out\n        /* \"#utility.yul\":17041:17184   */\n    tag_405:\n        /* \"#utility.yul\":17098:17103   */\n      0x00\n        /* \"#utility.yul\":17129:17135   */\n      dup2\n        /* \"#utility.yul\":17123:17136   */\n      mload\n        /* \"#utility.yul\":17114:17136   */\n      swap1\n      pop\n        /* \"#utility.yul\":17145:17178   */\n      tag_605\n        /* \"#utility.yul\":17172:17177   */\n      dup2\n        /* \"#utility.yul\":17145:17178   */\n      tag_366\n      jump\t// in\n    tag_605:\n        /* \"#utility.yul\":17041:17184   */\n      swap3\n      swap2\n      pop\n      pop\n      jump\t// out\n        /* \"#utility.yul\":17190:17307   */\n    tag_406:\n        /* \"#utility.yul\":17299:17300   */\n      0x00\n        /* \"#utility.yul\":17296:17297   */\n      dup1\n        /* \"#utility.yul\":17289:17301   */\n      revert\n        /* \"#utility.yul\":17313:17430   */\n    tag_407:\n        /* \"#utility.yul\":17422:17423   */\n      0x00\n        /* \"#utility.yul\":17419:17420   */\n      dup1\n        /* \"#utility.yul\":17412:17424   */\n      revert\n        /* \"#utility.yul\":17436:17744   */\n    tag_408:\n        /* \"#utility.yul\":17498:17502   */\n      0x00\n        /* \"#utility.yul\":17588:17606   */\n      0xffffffffffffffff\n        /* \"#utility.yul\":17580:17586   */\n      dup3\n        /* \"#utility.yul\":17577:17607   */\n      gt\n        /* \"#utility.yul\":17574:17630   */\n      iszero\n      tag_609\n      jumpi\n        /* \"#utility.yul\":17610:17628   */\n      tag_610\n      tag_180\n      jump\t// in\n    tag_610:\n        /* \"#utility.yul\":17574:17630   */\n    tag_609:\n        /* \"#utility.yul\":17648:17677   */\n      tag_611\n        /* \"#utility.yul\":17670:17676   */\n      dup3\n        /* \"#utility.yul\":17648:17677   */\n      tag_400\n      jump\t// in\n    tag_611:\n        /* \"#utility.yul\":17640:17677   */\n      swap1\n      pop\n        /* \"#utility.yul\":17732:17736   */\n      0x20\n        /* \"#utility.yul\":17726:17730   */\n      dup2\n        /* \"#utility.yul\":17722:17737   */\n      add\n        /* \"#utility.yul\":17714:17737   */\n      swap1\n      pop\n        /* \"#utility.yul\":17436:17744   */\n      swap2\n      swap1\n      pop\n      jump\t// out\n        /* \"#utility.yul\":17750:18057   */\n    tag_409:\n        /* \"#utility.yul\":17818:17819   */\n      0x00\n        /* \"#utility.yul\":17828:17941   */\n    tag_613:\n        /* \"#utility.yul\":17842:17848   */\n      dup4\n        /* \"#utility.yul\":17839:17840   */\n      dup2\n        /* \"#utility.yul\":17836:17849   */\n      lt\n        /* \"#utility.yul\":17828:17941   */\n      iszero\n      tag_615\n      jumpi\n        /* \"#utility.yul\":17927:17928   */\n      dup1\n        /* \"#utility.yul\":17922:17925   */\n      dup3\n        /* \"#utility.yul\":17918:17929   */\n      add\n        /* \"#utility.yul\":17912:17930   */\n      mload\n        /* \"#utility.yul\":17908:17909   */\n      dup2\n        /* \"#utility.yul\":17903:17906   */\n      dup5\n        /* \"#utility.yul\":17899:17910   */\n      add\n        /* \"#utility.yul\":17892:17931   */\n      mstore\n        /* \"#utility.yul\":17864:17866   */\n      0x20\n        /* \"#utility.yul\":17861:17862   */\n      dup2\n        /* \"#utility.yul\":17857:17867   */\n      add\n        /* \"#utility.yul\":17852:17867   */\n      swap1\n      pop\n        /* \"#utility.yul\":17828:17941   */\n      jump(tag_613)\n    tag_615:\n        /* \"#utility.yul\":17959:17965   */\n      dup4\n        /* \"#utility.yul\":17956:17957   */\n      dup2\n        /* \"#utility.yul\":17953:17966   */\n      gt\n        /* \"#utility.yul\":17950:18051   */\n      iszero\n      tag_616\n      jumpi\n        /* \"#utility.yul\":18039:18040   */\n      0x00\n        /* \"#utility.yul\":18030:18036   */\n      dup5\n        /* \"#utility.yul\":18025:18028   */\n      dup5\n        /* \"#utility.yul\":18021:18037   */\n      add\n        /* \"#utility.yul\":18014:18041   */\n      mstore\n        /* \"#utility.yul\":17950:18051   */\n    tag_616:\n        /* \"#utility.yul\":17799:18057   */\n      pop\n        /* \"#utility.yul\":17750:18057   */\n      pop\n      pop\n      pop\n      jump\t// out\n        /* \"#utility.yul\":18063:18484   */\n    tag_410:\n        /* \"#utility.yul\":18152:18157   */\n      0x00\n        /* \"#utility.yul\":18177:18243   */\n      tag_618\n        /* \"#utility.yul\":18193:18242   */\n      tag_619\n        /* \"#utility.yul\":18235:18241   */\n      dup5\n        /* \"#utility.yul\":18193:18242   */\n      tag_408\n      jump\t// in\n    tag_619:\n        /* \"#utility.yul\":18177:18243   */\n      tag_402\n      jump\t// in\n    tag_618:\n        /* \"#utility.yul\":18168:18243   */\n      swap1\n      pop\n        /* \"#utility.yul\":18266:18272   */\n      dup3\n        /* \"#utility.yul\":18259:18264   */\n      dup2\n        /* \"#utility.yul\":18252:18273   */\n      mstore\n        /* \"#utility.yul\":18304:18308   */\n      0x20\n        /* \"#utility.yul\":18297:18302   */\n      dup2\n        /* \"#utility.yul\":18293:18309   */\n      add\n        /* \"#utility.yul\":18342:18345   */\n      dup5\n        /* \"#utility.yul\":18333:18339   */\n      dup5\n        /* \"#utility.yul\":18328:18331   */\n      dup5\n        /* \"#utility.yul\":18324:18340   */\n      add\n        /* \"#utility.yul\":18321:18346   */\n      gt\n        /* \"#utility.yul\":18318:18430   */\n      iszero\n      tag_620\n      jumpi\n        /* \"#utility.yul\":18349:18428   */\n      tag_621\n      tag_407\n      jump\t// in\n    tag_621:\n        /* \"#utility.yul\":18318:18430   */\n    tag_620:\n        /* \"#utility.yul\":18439:18478   */\n      tag_622\n        /* \"#utility.yul\":18471:18477   */\n      dup5\n        /* \"#utility.yul\":18466:18469   */\n      dup3\n        /* \"#utility.yul\":18461:18464   */\n      dup6\n        /* \"#utility.yul\":18439:18478   */\n      tag_409\n      jump\t// in\n    tag_622:\n        /* \"#utility.yul\":18158:18484   */\n      pop\n        /* \"#utility.yul\":18063:18484   */\n      swap4\n      swap3\n      pop\n      pop\n      pop\n      jump\t// out\n        /* \"#utility.yul\":18504:18859   */\n    tag_411:\n        /* \"#utility.yul\":18571:18576   */\n      0x00\n        /* \"#utility.yul\":18620:18623   */\n      dup3\n        /* \"#utility.yul\":18613:18617   */\n      0x1f\n        /* \"#utility.yul\":18605:18611   */\n      dup4\n        /* \"#utility.yul\":18601:18618   */\n      add\n        /* \"#utility.yul\":18597:18624   */\n      slt\n        /* \"#utility.yul\":18587:18709   */\n      tag_624\n      jumpi\n        /* \"#utility.yul\":18628:18707   */\n      tag_625\n      tag_406\n      jump\t// in\n    tag_625:\n        /* \"#utility.yul\":18587:18709   */\n    tag_624:\n        /* \"#utility.yul\":18738:18744   */\n      dup2\n        /* \"#utility.yul\":18732:18745   */\n      mload\n        /* \"#utility.yul\":18763:18853   */\n      tag_626\n        /* \"#utility.yul\":18849:18852   */\n      dup5\n        /* \"#utility.yul\":18841:18847   */\n      dup3\n        /* \"#utility.yul\":18834:18838   */\n      0x20\n        /* \"#utility.yul\":18826:18832   */\n      dup7\n        /* \"#utility.yul\":18822:18839   */\n      add\n        /* \"#utility.yul\":18763:18853   */\n      tag_410\n      jump\t// in\n    tag_626:\n        /* \"#utility.yul\":18754:18853   */\n      swap2\n      pop\n        /* \"#utility.yul\":18577:18859   */\n      pop\n        /* \"#utility.yul\":18504:18859   */\n      swap3\n      swap2\n      pop\n      pop\n      jump\t// out\n        /* \"#utility.yul\":18865:18981   */\n    tag_412:\n        /* \"#utility.yul\":18935:18956   */\n      tag_628\n        /* \"#utility.yul\":18950:18955   */\n      dup2\n        /* \"#utility.yul\":18935:18956   */\n      tag_370\n      jump\t// in\n    tag_628:\n        /* \"#utility.yul\":18928:18933   */\n      dup2\n        /* \"#utility.yul\":18925:18957   */\n      eq\n        /* \"#utility.yul\":18915:18975   */\n      tag_629\n      jumpi\n        /* \"#utility.yul\":18971:18972   */\n      0x00\n        /* \"#utility.yul\":18968:18969   */\n      dup1\n        /* \"#utility.yul\":18961:18973   */\n      revert\n        /* \"#utility.yul\":18915:18975   */\n    tag_629:\n        /* \"#utility.yul\":18865:18981   */\n      pop\n      jump\t// out\n        /* \"#utility.yul\":18987:19124   */\n    tag_413:\n        /* \"#utility.yul\":19041:19046   */\n      0x00\n        /* \"#utility.yul\":19072:19078   */\n      dup2\n        /* \"#utility.yul\":19066:19079   */\n      mload\n        /* \"#utility.yul\":19057:19079   */\n      swap1\n      pop\n        /* \"#utility.yul\":19088:19118   */\n      tag_631\n        /* \"#utility.yul\":19112:19117   */\n      dup2\n        /* \"#utility.yul\":19088:19118   */\n      tag_412\n      jump\t// in\n    tag_631:\n        /* \"#utility.yul\":18987:19124   */\n      swap3\n      swap2\n      pop\n      pop\n      jump\t// out\n        /* \"#utility.yul\":19165:20624   */\n    tag_414:\n        /* \"#utility.yul\":19253:19258   */\n      0x00\n        /* \"#utility.yul\":19297:19301   */\n      0xa0\n        /* \"#utility.yul\":19285:19294   */\n      dup3\n        /* \"#utility.yul\":19280:19283   */\n      dup5\n        /* \"#utility.yul\":19276:19295   */\n      sub\n        /* \"#utility.yul\":19272:19302   */\n      slt\n        /* \"#utility.yul\":19269:19386   */\n      iszero\n      tag_633\n      jumpi\n        /* \"#utility.yul\":19305:19384   */\n      tag_634\n      tag_399\n      jump\t// in\n    tag_634:\n        /* \"#utility.yul\":19269:19386   */\n    tag_633:\n        /* \"#utility.yul\":19404:19425   */\n      tag_635\n        /* \"#utility.yul\":19420:19424   */\n      0xa0\n        /* \"#utility.yul\":19404:19425   */\n      tag_402\n      jump\t// in\n    tag_635:\n        /* \"#utility.yul\":19395:19425   */\n      swap1\n      pop\n        /* \"#utility.yul\":19482:19483   */\n      0x00\n        /* \"#utility.yul\":19522:19582   */\n      tag_636\n        /* \"#utility.yul\":19578:19581   */\n      dup5\n        /* \"#utility.yul\":19569:19575   */\n      dup3\n        /* \"#utility.yul\":19558:19567   */\n      dup6\n        /* \"#utility.yul\":19554:19576   */\n      add\n        /* \"#utility.yul\":19522:19582   */\n      tag_404\n      jump\t// in\n    tag_636:\n        /* \"#utility.yul\":19515:19519   */\n      0x00\n        /* \"#utility.yul\":19508:19513   */\n      dup4\n        /* \"#utility.yul\":19504:19520   */\n      add\n        /* \"#utility.yul\":19497:19583   */\n      mstore\n        /* \"#utility.yul\":19435:19594   */\n      pop\n        /* \"#utility.yul\":19654:19656   */\n      0x20\n        /* \"#utility.yul\":19695:19755   */\n      tag_637\n        /* \"#utility.yul\":19751:19754   */\n      dup5\n        /* \"#utility.yul\":19742:19748   */\n      dup3\n        /* \"#utility.yul\":19731:19740   */\n      dup6\n        /* \"#utility.yul\":19727:19749   */\n      add\n        /* \"#utility.yul\":19695:19755   */\n      tag_405\n      jump\t// in\n    tag_637:\n        /* \"#utility.yul\":19688:19692   */\n      0x20\n        /* \"#utility.yul\":19681:19686   */\n      dup4\n        /* \"#utility.yul\":19677:19693   */\n      add\n        /* \"#utility.yul\":19670:19756   */\n      mstore\n        /* \"#utility.yul\":19604:19767   */\n      pop\n        /* \"#utility.yul\":19849:19851   */\n      0x40\n        /* \"#utility.yul\":19838:19847   */\n      dup3\n        /* \"#utility.yul\":19834:19852   */\n      add\n        /* \"#utility.yul\":19828:19853   */\n      mload\n        /* \"#utility.yul\":19880:19898   */\n      0xffffffffffffffff\n        /* \"#utility.yul\":19872:19878   */\n      dup2\n        /* \"#utility.yul\":19869:19899   */\n      gt\n        /* \"#utility.yul\":19866:19983   */\n      iszero\n      tag_638\n      jumpi\n        /* \"#utility.yul\":19902:19981   */\n      tag_639\n      tag_403\n      jump\t// in\n    tag_639:\n        /* \"#utility.yul\":19866:19983   */\n    tag_638:\n        /* \"#utility.yul\":20022:20092   */\n      tag_640\n        /* \"#utility.yul\":20088:20091   */\n      dup5\n        /* \"#utility.yul\":20079:20085   */\n      dup3\n        /* \"#utility.yul\":20068:20077   */\n      dup6\n        /* \"#utility.yul\":20064:20086   */\n      add\n        /* \"#utility.yul\":20022:20092   */\n      tag_411\n      jump\t// in\n    tag_640:\n        /* \"#utility.yul\":20015:20019   */\n      0x40\n        /* \"#utility.yul\":20008:20013   */\n      dup4\n        /* \"#utility.yul\":20004:20020   */\n      add\n        /* \"#utility.yul\":19997:20093   */\n      mstore\n        /* \"#utility.yul\":19777:20104   */\n      pop\n        /* \"#utility.yul\":20190:20192   */\n      0x60\n        /* \"#utility.yul\":20179:20188   */\n      dup3\n        /* \"#utility.yul\":20175:20193   */\n      add\n        /* \"#utility.yul\":20169:20194   */\n      mload\n        /* \"#utility.yul\":20221:20239   */\n      0xffffffffffffffff\n        /* \"#utility.yul\":20213:20219   */\n      dup2\n        /* \"#utility.yul\":20210:20240   */\n      gt\n        /* \"#utility.yul\":20207:20324   */\n      iszero\n      tag_641\n      jumpi\n        /* \"#utility.yul\":20243:20322   */\n      tag_642\n      tag_403\n      jump\t// in\n    tag_642:\n        /* \"#utility.yul\":20207:20324   */\n    tag_641:\n        /* \"#utility.yul\":20363:20433   */\n      tag_643\n        /* \"#utility.yul\":20429:20432   */\n      dup5\n        /* \"#utility.yul\":20420:20426   */\n      dup3\n        /* \"#utility.yul\":20409:20418   */\n      dup6\n        /* \"#utility.yul\":20405:20427   */\n      add\n        /* \"#utility.yul\":20363:20433   */\n      tag_411\n      jump\t// in\n    tag_643:\n        /* \"#utility.yul\":20356:20360   */\n      0x60\n        /* \"#utility.yul\":20349:20354   */\n      dup4\n        /* \"#utility.yul\":20345:20361   */\n      add\n        /* \"#utility.yul\":20338:20434   */\n      mstore\n        /* \"#utility.yul\":20114:20445   */\n      pop\n        /* \"#utility.yul\":20506:20509   */\n      0x80\n        /* \"#utility.yul\":20548:20605   */\n      tag_644\n        /* \"#utility.yul\":20601:20604   */\n      dup5\n        /* \"#utility.yul\":20592:20598   */\n      dup3\n        /* \"#utility.yul\":20581:20590   */\n      dup6\n        /* \"#utility.yul\":20577:20599   */\n      add\n        /* \"#utility.yul\":20548:20605   */\n      tag_413\n      jump\t// in\n    tag_644:\n        /* \"#utility.yul\":20541:20545   */\n      0x80\n        /* \"#utility.yul\":20534:20539   */\n      dup4\n        /* \"#utility.yul\":20530:20546   */\n      add\n        /* \"#utility.yul\":20523:20606   */\n      mstore\n        /* \"#utility.yul\":20455:20617   */\n      pop\n        /* \"#utility.yul\":19165:20624   */\n      swap3\n      swap2\n      pop\n      pop\n      jump\t// out\n        /* \"#utility.yul\":20630:21190   */\n    tag_165:\n        /* \"#utility.yul\":20728:20734   */\n      0x00\n        /* \"#utility.yul\":20777:20779   */\n      0x20\n        /* \"#utility.yul\":20765:20774   */\n      dup3\n        /* \"#utility.yul\":20756:20763   */\n      dup5\n        /* \"#utility.yul\":20752:20775   */\n      sub\n        /* \"#utility.yul\":20748:20780   */\n      slt\n        /* \"#utility.yul\":20745:20864   */\n      iszero\n      tag_646\n      jumpi\n        /* \"#utility.yul\":20783:20862   */\n      tag_647\n      tag_363\n      jump\t// in\n    tag_647:\n        /* \"#utility.yul\":20745:20864   */\n    tag_646:\n        /* \"#utility.yul\":20924:20925   */\n      0x00\n        /* \"#utility.yul\":20913:20922   */\n      dup3\n        /* \"#utility.yul\":20909:20926   */\n      add\n        /* \"#utility.yul\":20903:20927   */\n      mload\n        /* \"#utility.yul\":20954:20972   */\n      0xffffffffffffffff\n        /* \"#utility.yul\":20946:20952   */\n      dup2\n        /* \"#utility.yul\":20943:20973   */\n      gt\n        /* \"#utility.yul\":20940:21057   */\n      iszero\n      tag_648\n      jumpi\n        /* \"#utility.yul\":20976:21055   */\n      tag_649\n      tag_364\n      jump\t// in\n    tag_649:\n        /* \"#utility.yul\":20940:21057   */\n    tag_648:\n        /* \"#utility.yul\":21081:21173   */\n      tag_650\n        /* \"#utility.yul\":21165:21172   */\n      dup5\n        /* \"#utility.yul\":21156:21162   */\n      dup3\n        /* \"#utility.yul\":21145:21154   */\n      dup6\n        /* \"#utility.yul\":21141:21163   */\n      add\n        /* \"#utility.yul\":21081:21173   */\n      tag_414\n      jump\t// in\n    tag_650:\n        /* \"#utility.yul\":21071:21173   */\n      swap2\n      pop\n        /* \"#utility.yul\":20874:21183   */\n      pop\n        /* \"#utility.yul\":20630:21190   */\n      swap3\n      swap2\n      pop\n      pop\n      jump\t// out\n        /* \"#utility.yul\":21196:21376   */\n    tag_415:\n        /* \"#utility.yul\":21244:21321   */\n      0x4e487b7100000000000000000000000000000000000000000000000000000000\n        /* \"#utility.yul\":21241:21242   */\n      0x00\n        /* \"#utility.yul\":21234:21322   */\n      mstore\n        /* \"#utility.yul\":21341:21345   */\n      0x11\n        /* \"#utility.yul\":21338:21339   */\n      0x04\n        /* \"#utility.yul\":21331:21346   */\n      mstore\n        /* \"#utility.yul\":21365:21369   */\n      0x24\n        /* \"#utility.yul\":21362:21363   */\n      0x00\n        /* \"#utility.yul\":21355:21370   */\n      revert\n        /* \"#utility.yul\":21382:21687   */\n    tag_173:\n        /* \"#utility.yul\":21422:21425   */\n      0x00\n        /* \"#utility.yul\":21441:21461   */\n      tag_653\n        /* \"#utility.yul\":21459:21460   */\n      dup3\n        /* \"#utility.yul\":21441:21461   */\n      tag_352\n      jump\t// in\n    tag_653:\n        /* \"#utility.yul\":21436:21461   */\n      swap2\n      pop\n        /* \"#utility.yul\":21475:21495   */\n      tag_654\n        /* \"#utility.yul\":21493:21494   */\n      dup4\n        /* \"#utility.yul\":21475:21495   */\n      tag_352\n      jump\t// in\n    tag_654:\n        /* \"#utility.yul\":21470:21495   */\n      swap3\n      pop\n        /* \"#utility.yul\":21629:21630   */\n      dup3\n        /* \"#utility.yul\":21561:21627   */\n      0xffffffffffffffffffffffffffffffffffffffffffffffffffffffffffffffff\n        /* \"#utility.yul\":21557:21631   */\n      sub\n        /* \"#utility.yul\":21554:21555   */\n      dup3\n        /* \"#utility.yul\":21551:21632   */\n      gt\n        /* \"#utility.yul\":21548:21655   */\n      iszero\n      tag_655\n      jumpi\n        /* \"#utility.yul\":21635:21653   */\n      tag_656\n      tag_415\n      jump\t// in\n    tag_656:\n        /* \"#utility.yul\":21548:21655   */\n    tag_655:\n        /* \"#utility.yul\":21679:21680   */\n      dup3\n        /* \"#utility.yul\":21676:21677   */\n      dup3\n        /* \"#utility.yul\":21672:21681   */\n      add\n        /* \"#utility.yul\":21665:21681   */\n      swap1\n      pop\n        /* \"#utility.yul\":21382:21687   */\n      swap3\n      swap2\n      pop\n      pop\n      jump\t// out\n        /* \"#utility.yul\":21693:21926   */\n    tag_177:\n        /* \"#utility.yul\":21732:21735   */\n      0x00\n        /* \"#utility.yul\":21755:21779   */\n      tag_658\n        /* \"#utility.yul\":21773:21778   */\n      dup3\n        /* \"#utility.yul\":21755:21779   */\n      tag_352\n      jump\t// in\n    tag_658:\n        /* \"#utility.yul\":21746:21779   */\n      swap2\n      pop\n        /* \"#utility.yul\":21801:21867   */\n      0xffffffffffffffffffffffffffffffffffffffffffffffffffffffffffffffff\n        /* \"#utility.yul\":21794:21799   */\n      dup3\n        /* \"#utility.yul\":21791:21868   */\n      sub\n        /* \"#utility.yul\":21788:21891   */\n      tag_659\n      jumpi\n        /* \"#utility.yul\":21871:21889   */\n      tag_660\n      tag_415\n      jump\t// in\n    tag_660:\n        /* \"#utility.yul\":21788:21891   */\n    tag_659:\n        /* \"#utility.yul\":21918:21919   */\n      0x01\n        /* \"#utility.yul\":21911:21916   */\n      dup3\n        /* \"#utility.yul\":21907:21920   */\n      add\n        /* \"#utility.yul\":21900:21920   */\n      swap1\n      pop\n        /* \"#utility.yul\":21693:21926   */\n      swap2\n      swap1\n      pop\n      jump\t// out\n        /* \"#utility.yul\":21932:22112   */\n    tag_196:\n        /* \"#utility.yul\":21980:22057   */\n      0x4e487b7100000000000000000000000000000000000000000000000000000000\n        /* \"#utility.yul\":21977:21978   */\n      0x00\n        /* \"#utility.yul\":21970:22058   */\n      mstore\n        /* \"#utility.yul\":22077:22081   */\n      0x32\n        /* \"#utility.yul\":22074:22075   */\n      0x04\n        /* \"#utility.yul\":22067:22082   */\n      mstore\n        /* \"#utility.yul\":22101:22105   */\n      0x24\n        /* \"#utility.yul\":22098:22099   */\n      0x00\n        /* \"#utility.yul\":22091:22106   */\n      revert\n        /* \"#utility.yul\":22118:22299   */\n    tag_416:\n        /* \"#utility.yul\":22258:22291   */\n      0x5265656e7472616e637947756172643a207265656e7472616e742063616c6c00\n        /* \"#utility.yul\":22254:22255   */\n      0x00\n        /* \"#utility.yul\":22246:22252   */\n      dup3\n        /* \"#utility.yul\":22242:22256   */\n      add\n        /* \"#utility.yul\":22235:22292   */\n      mstore\n        /* \"#utility.yul\":22118:22299   */\n      pop\n      jump\t// out\n        /* \"#utility.yul\":22305:22671   */\n    tag_417:\n        /* \"#utility.yul\":22447:22450   */\n      0x00\n        /* \"#utility.yul\":22468:22535   */\n      tag_664\n        /* \"#utility.yul\":22532:22534   */\n      0x1f\n        /* \"#utility.yul\":22527:22530   */\n      dup4\n        /* \"#utility.yul\":22468:22535   */\n      tag_396\n      jump\t// in\n    tag_664:\n        /* \"#utility.yul\":22461:22535   */\n      swap2\n      pop\n        /* \"#utility.yul\":22544:22637   */\n      tag_665\n        /* \"#utility.yul\":22633:22636   */\n      dup3\n        /* \"#utility.yul\":22544:22637   */\n      tag_416\n      jump\t// in\n    tag_665:\n        /* \"#utility.yul\":22662:22664   */\n      0x20\n        /* \"#utility.yul\":22657:22660   */\n      dup3\n        /* \"#utility.yul\":22653:22665   */\n      add\n        /* \"#utility.yul\":22646:22665   */\n      swap1\n      pop\n        /* \"#utility.yul\":22305:22671   */\n      swap2\n      swap1\n      pop\n      jump\t// out\n        /* \"#utility.yul\":22677:23096   */\n    tag_214:\n        /* \"#utility.yul\":22843:22847   */\n      0x00\n        /* \"#utility.yul\":22881:22883   */\n      0x20\n        /* \"#utility.yul\":22870:22879   */\n      dup3\n        /* \"#utility.yul\":22866:22884   */\n      add\n        /* \"#utility.yul\":22858:22884   */\n      swap1\n      pop\n        /* \"#utility.yul\":22930:22939   */\n      dup2\n        /* \"#utility.yul\":22924:22928   */\n      dup2\n        /* \"#utility.yul\":22920:22940   */\n      sub\n        /* \"#utility.yul\":22916:22917   */\n      0x00\n        /* \"#utility.yul\":22905:22914   */\n      dup4\n        /* \"#utility.yul\":22901:22918   */\n      add\n        /* \"#utility.yul\":22894:22941   */\n      mstore\n        /* \"#utility.yul\":22958:23089   */\n      tag_667\n        /* \"#utility.yul\":23084:23088   */\n      dup2\n        /* \"#utility.yul\":22958:23089   */\n      tag_417\n      jump\t// in\n    tag_667:\n        /* \"#utility.yul\":22950:23089   */\n      swap1\n      pop\n        /* \"#utility.yul\":22677:23096   */\n      swap2\n      swap1\n      pop\n      jump\t// out\n        /* \"#utility.yul\":23102:23280   */\n    tag_418:\n        /* \"#utility.yul\":23242:23272   */\n      0x5072696365206d757374206265206174206c6561737420312077656900000000\n        /* \"#utility.yul\":23238:23239   */\n      0x00\n        /* \"#utility.yul\":23230:23236   */\n      dup3\n        /* \"#utility.yul\":23226:23240   */\n      add\n        /* \"#utility.yul\":23219:23273   */\n      mstore\n        /* \"#utility.yul\":23102:23280   */\n      pop\n      jump\t// out\n        /* \"#utility.yul\":23286:23652   */\n    tag_419:\n        /* \"#utility.yul\":23428:23431   */\n      0x00\n        /* \"#utility.yul\":23449:23516   */\n      tag_670\n        /* \"#utility.yul\":23513:23515   */\n      0x1c\n        /* \"#utility.yul\":23508:23511   */\n      dup4\n        /* \"#utility.yul\":23449:23516   */\n      tag_396\n      jump\t// in\n    tag_670:\n        /* \"#utility.yul\":23442:23516   */\n      swap2\n      pop\n        /* \"#utility.yul\":23525:23618   */\n      tag_671\n        /* \"#utility.yul\":23614:23617   */\n      dup3\n        /* \"#utility.yul\":23525:23618   */\n      tag_418\n      jump\t// in\n    tag_671:\n        /* \"#utility.yul\":23643:23645   */\n      0x20\n        /* \"#utility.yul\":23638:23641   */\n      dup3\n        /* \"#utility.yul\":23634:23646   */\n      add\n        /* \"#utility.yul\":23627:23646   */\n      swap1\n      pop\n        /* \"#utility.yul\":23286:23652   */\n      swap2\n      swap1\n      pop\n      jump\t// out\n        /* \"#utility.yul\":23658:24077   */\n    tag_218:\n        /* \"#utility.yul\":23824:23828   */\n      0x00\n        /* \"#utility.yul\":23862:23864   */\n      0x20\n        /* \"#utility.yul\":23851:23860   */\n      dup3\n        /* \"#utility.yul\":23847:23865   */\n      add\n        /* \"#utility.yul\":23839:23865   */\n      swap1\n      pop\n        /* \"#utility.yul\":23911:23920   */\n      dup2\n        /* \"#utility.yul\":23905:23909   */\n      dup2\n        /* \"#utility.yul\":23901:23921   */\n      sub\n        /* \"#utility.yul\":23897:23898   */\n      0x00\n        /* \"#utility.yul\":23886:23895   */\n      dup4\n        /* \"#utility.yul\":23882:23899   */\n      add\n        /* \"#utility.yul\":23875:23922   */\n      mstore\n        /* \"#utility.yul\":23939:24070   */\n      tag_673\n        /* \"#utility.yul\":24065:24069   */\n      dup2\n        /* \"#utility.yul\":23939:24070   */\n      tag_419\n      jump\t// in\n    tag_673:\n        /* \"#utility.yul\":23931:24070   */\n      swap1\n      pop\n        /* \"#utility.yul\":23658:24077   */\n      swap2\n      swap1\n      pop\n      jump\t// out\n        /* \"#utility.yul\":24083:24260   */\n    tag_420:\n        /* \"#utility.yul\":24223:24252   */\n      0x4974656d206973206e6f7420617661696c61626c65206e6f7720210000000000\n        /* \"#utility.yul\":24219:24220   */\n      0x00\n        /* \"#utility.yul\":24211:24217   */\n      dup3\n        /* \"#utility.yul\":24207:24221   */\n      add\n        /* \"#utility.yul\":24200:24253   */\n      mstore\n        /* \"#utility.yul\":24083:24260   */\n      pop\n      jump\t// out\n        /* \"#utility.yul\":24266:24632   */\n    tag_421:\n        /* \"#utility.yul\":24408:24411   */\n      0x00\n        /* \"#utility.yul\":24429:24496   */\n      tag_676\n        /* \"#utility.yul\":24493:24495   */\n      0x1b\n        /* \"#utility.yul\":24488:24491   */\n      dup4\n        /* \"#utility.yul\":24429:24496   */\n      tag_396\n      jump\t// in\n    tag_676:\n        /* \"#utility.yul\":24422:24496   */\n      swap2\n      pop\n        /* \"#utility.yul\":24505:24598   */\n      tag_677\n        /* \"#utility.yul\":24594:24597   */\n      dup3\n        /* \"#utility.yul\":24505:24598   */\n      tag_420\n      jump\t// in\n    tag_677:\n        /* \"#utility.yul\":24623:24625   */\n      0x20\n        /* \"#utility.yul\":24618:24621   */\n      dup3\n        /* \"#utility.yul\":24614:24626   */\n      add\n        /* \"#utility.yul\":24607:24626   */\n      swap1\n      pop\n        /* \"#utility.yul\":24266:24632   */\n      swap2\n      swap1\n      pop\n      jump\t// out\n        /* \"#utility.yul\":24638:25057   */\n    tag_225:\n        /* \"#utility.yul\":24804:24808   */\n      0x00\n        /* \"#utility.yul\":24842:24844   */\n      0x20\n        /* \"#utility.yul\":24831:24840   */\n      dup3\n        /* \"#utility.yul\":24827:24845   */\n      add\n        /* \"#utility.yul\":24819:24845   */\n      swap1\n      pop\n        /* \"#utility.yul\":24891:24900   */\n      dup2\n        /* \"#utility.yul\":24885:24889   */\n      dup2\n        /* \"#utility.yul\":24881:24901   */\n      sub\n        /* \"#utility.yul\":24877:24878   */\n      0x00\n        /* \"#utility.yul\":24866:24875   */\n      dup4\n        /* \"#utility.yul\":24862:24879   */\n      add\n        /* \"#utility.yul\":24855:24902   */\n      mstore\n        /* \"#utility.yul\":24919:25050   */\n      tag_679\n        /* \"#utility.yul\":25045:25049   */\n      dup2\n        /* \"#utility.yul\":24919:25050   */\n      tag_421\n      jump\t// in\n    tag_679:\n        /* \"#utility.yul\":24911:25050   */\n      swap1\n      pop\n        /* \"#utility.yul\":24638:25057   */\n      swap2\n      swap1\n      pop\n      jump\t// out\n        /* \"#utility.yul\":25063:25505   */\n    tag_234:\n        /* \"#utility.yul\":25212:25216   */\n      0x00\n        /* \"#utility.yul\":25250:25252   */\n      0x60\n        /* \"#utility.yul\":25239:25248   */\n      dup3\n        /* \"#utility.yul\":25235:25253   */\n      add\n        /* \"#utility.yul\":25227:25253   */\n      swap1\n      pop\n        /* \"#utility.yul\":25263:25334   */\n      tag_681\n        /* \"#utility.yul\":25331:25332   */\n      0x00\n        /* \"#utility.yul\":25320:25329   */\n      dup4\n        /* \"#utility.yul\":25316:25333   */\n      add\n        /* \"#utility.yul\":25307:25313   */\n      dup7\n        /* \"#utility.yul\":25263:25334   */\n      tag_391\n      jump\t// in\n    tag_681:\n        /* \"#utility.yul\":25344:25416   */\n      tag_682\n        /* \"#utility.yul\":25412:25414   */\n      0x20\n        /* \"#utility.yul\":25401:25410   */\n      dup4\n        /* \"#utility.yul\":25397:25415   */\n      add\n        /* \"#utility.yul\":25388:25394   */\n      dup6\n        /* \"#utility.yul\":25344:25416   */\n      tag_391\n      jump\t// in\n    tag_682:\n        /* \"#utility.yul\":25426:25498   */\n      tag_683\n        /* \"#utility.yul\":25494:25496   */\n      0x40\n        /* \"#utility.yul\":25483:25492   */\n      dup4\n        /* \"#utility.yul\":25479:25497   */\n      add\n        /* \"#utility.yul\":25470:25476   */\n      dup5\n        /* \"#utility.yul\":25426:25498   */\n      tag_386\n      jump\t// in\n    tag_683:\n        /* \"#utility.yul\":25063:25505   */\n      swap5\n      swap4\n      pop\n      pop\n      pop\n      pop\n      jump\t// out\n        /* \"#utility.yul\":25511:25762   */\n    tag_422:\n        /* \"#utility.yul\":25651:25685   */\n      0x506c65617365207375626d6974207468652061736b696e672070726963652069\n        /* \"#utility.yul\":25647:25648   */\n      0x00\n        /* \"#utility.yul\":25639:25645   */\n      dup3\n        /* \"#utility.yul\":25635:25649   */\n      add\n        /* \"#utility.yul\":25628:25686   */\n      mstore\n        /* \"#utility.yul\":25720:25754   */\n      0x6e206f7264657220746f20636f6d706c65746520746865207075726368617365\n        /* \"#utility.yul\":25715:25717   */\n      0x20\n        /* \"#utility.yul\":25707:25713   */\n      dup3\n        /* \"#utility.yul\":25703:25718   */\n      add\n        /* \"#utility.yul\":25696:25755   */\n      mstore\n        /* \"#utility.yul\":25511:25762   */\n      pop\n      jump\t// out\n        /* \"#utility.yul\":25768:26134   */\n    tag_423:\n        /* \"#utility.yul\":25910:25913   */\n      0x00\n        /* \"#utility.yul\":25931:25998   */\n      tag_686\n        /* \"#utility.yul\":25995:25997   */\n      0x40\n        /* \"#utility.yul\":25990:25993   */\n      dup4\n        /* \"#utility.yul\":25931:25998   */\n      tag_396\n      jump\t// in\n    tag_686:\n        /* \"#utility.yul\":25924:25998   */\n      swap2\n      pop\n        /* \"#utility.yul\":26007:26100   */\n      tag_687\n        /* \"#utility.yul\":26096:26099   */\n      dup3\n        /* \"#utility.yul\":26007:26100   */\n      tag_422\n      jump\t// in\n    tag_687:\n        /* \"#utility.yul\":26125:26127   */\n      0x40\n        /* \"#utility.yul\":26120:26123   */\n      dup3\n        /* \"#utility.yul\":26116:26128   */\n      add\n        /* \"#utility.yul\":26109:26128   */\n      swap1\n      pop\n        /* \"#utility.yul\":25768:26134   */\n      swap2\n      swap1\n      pop\n      jump\t// out\n        /* \"#utility.yul\":26140:26559   */\n    tag_260:\n        /* \"#utility.yul\":26306:26310   */\n      0x00\n        /* \"#utility.yul\":26344:26346   */\n      0x20\n        /* \"#utility.yul\":26333:26342   */\n      dup3\n        /* \"#utility.yul\":26329:26347   */\n      add\n        /* \"#utility.yul\":26321:26347   */\n      swap1\n      pop\n        /* \"#utility.yul\":26393:26402   */\n      dup2\n        /* \"#utility.yul\":26387:26391   */\n      dup2\n        /* \"#utility.yul\":26383:26403   */\n      sub\n        /* \"#utility.yul\":26379:26380   */\n      0x00\n        /* \"#utility.yul\":26368:26377   */\n      dup4\n        /* \"#utility.yul\":26364:26381   */\n      add\n        /* \"#utility.yul\":26357:26404   */\n      mstore\n        /* \"#utility.yul\":26421:26552   */\n      tag_689\n        /* \"#utility.yul\":26547:26551   */\n      dup2\n        /* \"#utility.yul\":26421:26552   */\n      tag_423\n      jump\t// in\n    tag_689:\n        /* \"#utility.yul\":26413:26552   */\n      swap1\n      pop\n        /* \"#utility.yul\":26140:26559   */\n      swap2\n      swap1\n      pop\n      jump\t// out\n        /* \"#utility.yul\":26565:26699   */\n    tag_424:\n        /* \"#utility.yul\":26623:26632   */\n      0x00\n        /* \"#utility.yul\":26656:26693   */\n      tag_691\n        /* \"#utility.yul\":26687:26692   */\n      dup3\n        /* \"#utility.yul\":26656:26693   */\n      tag_383\n      jump\t// in\n    tag_691:\n        /* \"#utility.yul\":26643:26693   */\n      swap1\n      pop\n        /* \"#utility.yul\":26565:26699   */\n      swap2\n      swap1\n      pop\n      jump\t// out\n        /* \"#utility.yul\":26705:26852   */\n    tag_425:\n        /* \"#utility.yul\":26800:26845   */\n      tag_693\n        /* \"#utility.yul\":26839:26844   */\n      dup2\n        /* \"#utility.yul\":26800:26845   */\n      tag_424\n      jump\t// in\n    tag_693:\n        /* \"#utility.yul\":26795:26798   */\n      dup3\n        /* \"#utility.yul\":26788:26846   */\n      mstore\n        /* \"#utility.yul\":26705:26852   */\n      pop\n      pop\n      jump\t// out\n        /* \"#utility.yul\":26858:27316   */\n    tag_262:\n        /* \"#utility.yul\":27015:27019   */\n      0x00\n        /* \"#utility.yul\":27053:27055   */\n      0x60\n        /* \"#utility.yul\":27042:27051   */\n      dup3\n        /* \"#utility.yul\":27038:27056   */\n      add\n        /* \"#utility.yul\":27030:27056   */\n      swap1\n      pop\n        /* \"#utility.yul\":27066:27137   */\n      tag_695\n        /* \"#utility.yul\":27134:27135   */\n      0x00\n        /* \"#utility.yul\":27123:27132   */\n      dup4\n        /* \"#utility.yul\":27119:27136   */\n      add\n        /* \"#utility.yul\":27110:27116   */\n      dup7\n        /* \"#utility.yul\":27066:27137   */\n      tag_391\n      jump\t// in\n    tag_695:\n        /* \"#utility.yul\":27147:27227   */\n      tag_696\n        /* \"#utility.yul\":27223:27225   */\n      0x20\n        /* \"#utility.yul\":27212:27221   */\n      dup4\n        /* \"#utility.yul\":27208:27226   */\n      add\n        /* \"#utility.yul\":27199:27205   */\n      dup6\n        /* \"#utility.yul\":27147:27227   */\n      tag_425\n      jump\t// in\n    tag_696:\n        /* \"#utility.yul\":27237:27309   */\n      tag_697\n        /* \"#utility.yul\":27305:27307   */\n      0x40\n        /* \"#utility.yul\":27294:27303   */\n      dup4\n        /* \"#utility.yul\":27290:27308   */\n      add\n        /* \"#utility.yul\":27281:27287   */\n      dup5\n        /* \"#utility.yul\":27237:27309   */\n      tag_386\n      jump\t// in\n    tag_697:\n        /* \"#utility.yul\":26858:27316   */\n      swap5\n      swap4\n      pop\n      pop\n      pop\n      pop\n      jump\t// out\n        /* \"#utility.yul\":27322:27667   */\n    tag_266:\n        /* \"#utility.yul\":27389:27395   */\n      0x00\n        /* \"#utility.yul\":27438:27440   */\n      0x20\n        /* \"#utility.yul\":27426:27435   */\n      dup3\n        /* \"#utility.yul\":27417:27424   */\n      dup5\n        /* \"#utility.yul\":27413:27436   */\n      sub\n        /* \"#utility.yul\":27409:27441   */\n      slt\n        /* \"#utility.yul\":27406:27525   */\n      iszero\n      tag_699\n      jumpi\n        /* \"#utility.yul\":27444:27523   */\n      tag_700\n      tag_363\n      jump\t// in\n    tag_700:\n        /* \"#utility.yul\":27406:27525   */\n    tag_699:\n        /* \"#utility.yul\":27564:27565   */\n      0x00\n        /* \"#utility.yul\":27589:27650   */\n      tag_701\n        /* \"#utility.yul\":27642:27649   */\n      dup5\n        /* \"#utility.yul\":27633:27639   */\n      dup3\n        /* \"#utility.yul\":27622:27631   */\n      dup6\n        /* \"#utility.yul\":27618:27640   */\n      add\n        /* \"#utility.yul\":27589:27650   */\n      tag_413\n      jump\t// in\n    tag_701:\n        /* \"#utility.yul\":27579:27650   */\n      swap2\n      pop\n        /* \"#utility.yul\":27535:27660   */\n      pop\n        /* \"#utility.yul\":27322:27667   */\n      swap3\n      swap2\n      pop\n      pop\n      jump\t// out\n        /* \"#utility.yul\":27673:27842   */\n    tag_426:\n        /* \"#utility.yul\":27813:27834   */\n      0x4173736574206e6f74207075626c697368656400000000000000000000000000\n        /* \"#utility.yul\":27809:27810   */\n      0x00\n        /* \"#utility.yul\":27801:27807   */\n      dup3\n        /* \"#utility.yul\":27797:27811   */\n      add\n        /* \"#utility.yul\":27790:27835   */\n      mstore\n        /* \"#utility.yul\":27673:27842   */\n      pop\n      jump\t// out\n        /* \"#utility.yul\":27848:28214   */\n    tag_427:\n        /* \"#utility.yul\":27990:27993   */\n      0x00\n        /* \"#utility.yul\":28011:28078   */\n      tag_704\n        /* \"#utility.yul\":28075:28077   */\n      0x13\n        /* \"#utility.yul\":28070:28073   */\n      dup4\n        /* \"#utility.yul\":28011:28078   */\n      tag_396\n      jump\t// in\n    tag_704:\n        /* \"#utility.yul\":28004:28078   */\n      swap2\n      pop\n        /* \"#utility.yul\":28087:28180   */\n      tag_705\n        /* \"#utility.yul\":28176:28179   */\n      dup3\n        /* \"#utility.yul\":28087:28180   */\n      tag_426\n      jump\t// in\n    tag_705:\n        /* \"#utility.yul\":28205:28207   */\n      0x20\n        /* \"#utility.yul\":28200:28203   */\n      dup3\n        /* \"#utility.yul\":28196:28208   */\n      add\n        /* \"#utility.yul\":28189:28208   */\n      swap1\n      pop\n        /* \"#utility.yul\":27848:28214   */\n      swap2\n      swap1\n      pop\n      jump\t// out\n        /* \"#utility.yul\":28220:28639   */\n    tag_287:\n        /* \"#utility.yul\":28386:28390   */\n      0x00\n        /* \"#utility.yul\":28424:28426   */\n      0x20\n        /* \"#utility.yul\":28413:28422   */\n      dup3\n        /* \"#utility.yul\":28409:28427   */\n      add\n        /* \"#utility.yul\":28401:28427   */\n      swap1\n      pop\n        /* \"#utility.yul\":28473:28482   */\n      dup2\n        /* \"#utility.yul\":28467:28471   */\n      dup2\n        /* \"#utility.yul\":28463:28483   */\n      sub\n        /* \"#utility.yul\":28459:28460   */\n      0x00\n        /* \"#utility.yul\":28448:28457   */\n      dup4\n        /* \"#utility.yul\":28444:28461   */\n      add\n        /* \"#utility.yul\":28437:28484   */\n      mstore\n        /* \"#utility.yul\":28501:28632   */\n      tag_707\n        /* \"#utility.yul\":28627:28631   */\n      dup2\n        /* \"#utility.yul\":28501:28632   */\n      tag_427\n      jump\t// in\n    tag_707:\n        /* \"#utility.yul\":28493:28632   */\n      swap1\n      pop\n        /* \"#utility.yul\":28220:28639   */\n      swap2\n      swap1\n      pop\n      jump\t// out\n        /* \"#utility.yul\":28645:28809   */\n    tag_428:\n        /* \"#utility.yul\":28785:28801   */\n      0x41737365742064656c6973746564000000000000000000000000000000000000\n        /* \"#utility.yul\":28781:28782   */\n      0x00\n        /* \"#utility.yul\":28773:28779   */\n      dup3\n        /* \"#utility.yul\":28769:28783   */\n      add\n        /* \"#utility.yul\":28762:28802   */\n      mstore\n        /* \"#utility.yul\":28645:28809   */\n      pop\n      jump\t// out\n        /* \"#utility.yul\":28815:29181   */\n    tag_429:\n        /* \"#utility.yul\":28957:28960   */\n      0x00\n        /* \"#utility.yul\":28978:29045   */\n      tag_710\n        /* \"#utility.yul\":29042:29044   */\n      0x0e\n        /* \"#utility.yul\":29037:29040   */\n      dup4\n        /* \"#utility.yul\":28978:29045   */\n      tag_396\n      jump\t// in\n    tag_710:\n        /* \"#utility.yul\":28971:29045   */\n      swap2\n      pop\n        /* \"#utility.yul\":29054:29147   */\n      tag_711\n        /* \"#utility.yul\":29143:29146   */\n      dup3\n        /* \"#utility.yul\":29054:29147   */\n      tag_428\n      jump\t// in\n    tag_711:\n        /* \"#utility.yul\":29172:29174   */\n      0x20\n        /* \"#utility.yul\":29167:29170   */\n      dup3\n        /* \"#utility.yul\":29163:29175   */\n      add\n        /* \"#utility.yul\":29156:29175   */\n      swap1\n      pop\n        /* \"#utility.yul\":28815:29181   */\n      swap2\n      swap1\n      pop\n      jump\t// out\n        /* \"#utility.yul\":29187:29606   */\n    tag_294:\n        /* \"#utility.yul\":29353:29357   */\n      0x00\n        /* \"#utility.yul\":29391:29393   */\n      0x20\n        /* \"#utility.yul\":29380:29389   */\n      dup3\n        /* \"#utility.yul\":29376:29394   */\n      add\n        /* \"#utility.yul\":29368:29394   */\n      swap1\n      pop\n        /* \"#utility.yul\":29440:29449   */\n      dup2\n        /* \"#utility.yul\":29434:29438   */\n      dup2\n        /* \"#utility.yul\":29430:29450   */\n      sub\n        /* \"#utility.yul\":29426:29427   */\n      0x00\n        /* \"#utility.yul\":29415:29424   */\n      dup4\n        /* \"#utility.yul\":29411:29428   */\n      add\n        /* \"#utility.yul\":29404:29451   */\n      mstore\n        /* \"#utility.yul\":29468:29599   */\n      tag_713\n        /* \"#utility.yul\":29594:29598   */\n      dup2\n        /* \"#utility.yul\":29468:29599   */\n      tag_429\n      jump\t// in\n    tag_713:\n        /* \"#utility.yul\":29460:29599   */\n      swap1\n      pop\n        /* \"#utility.yul\":29187:29606   */\n      swap2\n      swap1\n      pop\n      jump\t// out\n        /* \"#utility.yul\":29612:29777   */\n    tag_430:\n        /* \"#utility.yul\":29752:29769   */\n      0x496e76616c696420616464726573730000000000000000000000000000000000\n        /* \"#utility.yul\":29748:29749   */\n      0x00\n        /* \"#utility.yul\":29740:29746   */\n      dup3\n        /* \"#utility.yul\":29736:29750   */\n      add\n        /* \"#utility.yul\":29729:29770   */\n      mstore\n        /* \"#utility.yul\":29612:29777   */\n      pop\n      jump\t// out\n        /* \"#utility.yul\":29783:30149   */\n    tag_431:\n        /* \"#utility.yul\":29925:29928   */\n      0x00\n        /* \"#utility.yul\":29946:30013   */\n      tag_716\n        /* \"#utility.yul\":30010:30012   */\n      0x0f\n        /* \"#utility.yul\":30005:30008   */\n      dup4\n        /* \"#utility.yul\":29946:30013   */\n      tag_396\n      jump\t// in\n    tag_716:\n        /* \"#utility.yul\":29939:30013   */\n      swap2\n      pop\n        /* \"#utility.yul\":30022:30115   */\n      tag_717\n        /* \"#utility.yul\":30111:30114   */\n      dup3\n        /* \"#utility.yul\":30022:30115   */\n      tag_430\n      jump\t// in\n    tag_717:\n        /* \"#utility.yul\":30140:30142   */\n      0x20\n        /* \"#utility.yul\":30135:30138   */\n      dup3\n        /* \"#utility.yul\":30131:30143   */\n      add\n        /* \"#utility.yul\":30124:30143   */\n      swap1\n      pop\n        /* \"#utility.yul\":29783:30149   */\n      swap2\n      swap1\n      pop\n      jump\t// out\n        /* \"#utility.yul\":30155:30574   */\n    tag_297:\n        /* \"#utility.yul\":30321:30325   */\n      0x00\n        /* \"#utility.yul\":30359:30361   */\n      0x20\n        /* \"#utility.yul\":30348:30357   */\n      dup3\n        /* \"#utility.yul\":30344:30362   */\n      add\n        /* \"#utility.yul\":30336:30362   */\n      swap1\n      pop\n        /* \"#utility.yul\":30408:30417   */\n      dup2\n        /* \"#utility.yul\":30402:30406   */\n      dup2\n        /* \"#utility.yul\":30398:30418   */\n      sub\n        /* \"#utility.yul\":30394:30395   */\n      0x00\n        /* \"#utility.yul\":30383:30392   */\n      dup4\n        /* \"#utility.yul\":30379:30396   */\n      add\n        /* \"#utility.yul\":30372:30419   */\n      mstore\n        /* \"#utility.yul\":30436:30567   */\n      tag_719\n        /* \"#utility.yul\":30562:30566   */\n      dup2\n        /* \"#utility.yul\":30436:30567   */\n      tag_431\n      jump\t// in\n    tag_719:\n        /* \"#utility.yul\":30428:30567   */\n      swap1\n      pop\n        /* \"#utility.yul\":30155:30574   */\n      swap2\n      swap1\n      pop\n      jump\t// out\n        /* \"#utility.yul\":30580:30752   */\n    tag_432:\n        /* \"#utility.yul\":30720:30744   */\n      0x4f6e6c792073656c6c65722063616e2064656c69737400000000000000000000\n        /* \"#utility.yul\":30716:30717   */\n      0x00\n        /* \"#utility.yul\":30708:30714   */\n      dup3\n        /* \"#utility.yul\":30704:30718   */\n      add\n        /* \"#utility.yul\":30697:30745   */\n      mstore\n        /* \"#utility.yul\":30580:30752   */\n      pop\n      jump\t// out\n        /* \"#utility.yul\":30758:31124   */\n    tag_433:\n        /* \"#utility.yul\":30900:30903   */\n      0x00\n        /* \"#utility.yul\":30921:30988   */\n      tag_722\n        /* \"#utility.yul\":30985:30987   */\n      0x16\n        /* \"#utility.yul\":30980:30983   */\n      dup4\n        /* \"#utility.yul\":30921:30988   */\n      tag_396\n      jump\t// in\n    tag_722:\n        /* \"#utility.yul\":30914:30988   */\n      swap2\n      pop\n        /* \"#utility.yul\":30997:31090   */\n      tag_723\n        /* \"#utility.yul\":31086:31089   */\n      dup3\n        /* \"#utility.yul\":30997:31090   */\n      tag_432\n      jump\t// in\n    tag_723:\n        /* \"#utility.yul\":31115:31117   */\n      0x20\n        /* \"#utility.yul\":31110:31113   */\n      dup3\n        /* \"#utility.yul\":31106:31118   */\n      add\n        /* \"#utility.yul\":31099:31118   */\n      swap1\n      pop\n        /* \"#utility.yul\":30758:31124   */\n      swap2\n      swap1\n      pop\n      jump\t// out\n        /* \"#utility.yul\":31130:31549   */\n    tag_300:\n        /* \"#utility.yul\":31296:31300   */\n      0x00\n        /* \"#utility.yul\":31334:31336   */\n      0x20\n        /* \"#utility.yul\":31323:31332   */\n      dup3\n        /* \"#utility.yul\":31319:31337   */\n      add\n        /* \"#utility.yul\":31311:31337   */\n      swap1\n      pop\n        /* \"#utility.yul\":31383:31392   */\n      dup2\n        /* \"#utility.yul\":31377:31381   */\n      dup2\n        /* \"#utility.yul\":31373:31393   */\n      sub\n        /* \"#utility.yul\":31369:31370   */\n      0x00\n        /* \"#utility.yul\":31358:31367   */\n      dup4\n        /* \"#utility.yul\":31354:31371   */\n      add\n        /* \"#utility.yul\":31347:31394   */\n      mstore\n        /* \"#utility.yul\":31411:31542   */\n      tag_725\n        /* \"#utility.yul\":31537:31541   */\n      dup2\n        /* \"#utility.yul\":31411:31542   */\n      tag_433\n      jump\t// in\n    tag_725:\n        /* \"#utility.yul\":31403:31542   */\n      swap1\n      pop\n        /* \"#utility.yul\":31130:31549   */\n      swap2\n      swap1\n      pop\n      jump\t// out\n        /* \"#utility.yul\":31555:31997   */\n    tag_310:\n        /* \"#utility.yul\":31704:31708   */\n      0x00\n        /* \"#utility.yul\":31742:31744   */\n      0x60\n        /* \"#utility.yul\":31731:31740   */\n      dup3\n        /* \"#utility.yul\":31727:31745   */\n      add\n        /* \"#utility.yul\":31719:31745   */\n      swap1\n      pop\n        /* \"#utility.yul\":31755:31826   */\n      tag_727\n        /* \"#utility.yul\":31823:31824   */\n      0x00\n        /* \"#utility.yul\":31812:31821   */\n      dup4\n        /* \"#utility.yul\":31808:31825   */\n      add\n        /* \"#utility.yul\":31799:31805   */\n      dup7\n        /* \"#utility.yul\":31755:31826   */\n      tag_391\n      jump\t// in\n    tag_727:\n        /* \"#utility.yul\":31836:31908   */\n      tag_728\n        /* \"#utility.yul\":31904:31906   */\n      0x20\n        /* \"#utility.yul\":31893:31902   */\n      dup4\n        /* \"#utility.yul\":31889:31907   */\n      add\n        /* \"#utility.yul\":31880:31886   */\n      dup6\n        /* \"#utility.yul\":31836:31908   */\n      tag_386\n      jump\t// in\n    tag_728:\n        /* \"#utility.yul\":31918:31990   */\n      tag_729\n        /* \"#utility.yul\":31986:31988   */\n      0x40\n        /* \"#utility.yul\":31975:31984   */\n      dup4\n        /* \"#utility.yul\":31971:31989   */\n      add\n        /* \"#utility.yul\":31962:31968   */\n      dup5\n        /* \"#utility.yul\":31918:31990   */\n      tag_386\n      jump\t// in\n    tag_729:\n        /* \"#utility.yul\":31555:31997   */\n      swap5\n      swap4\n      pop\n      pop\n      pop\n      pop\n      jump\t// out\n        /* \"#utility.yul\":32003:32228   */\n    tag_434:\n        /* \"#utility.yul\":32143:32177   */\n      0x4f776e61626c653a206e6577206f776e657220697320746865207a65726f2061\n        /* \"#utility.yul\":32139:32140   */\n      0x00\n        /* \"#utility.yul\":32131:32137   */\n      dup3\n        /* \"#utility.yul\":32127:32141   */\n      add\n        /* \"#utility.yul\":32120:32178   */\n      mstore\n        /* \"#utility.yul\":32212:32220   */\n      0x6464726573730000000000000000000000000000000000000000000000000000\n        /* \"#utility.yul\":32207:32209   */\n      0x20\n        /* \"#utility.yul\":32199:32205   */\n      dup3\n        /* \"#utility.yul\":32195:32210   */\n      add\n        /* \"#utility.yul\":32188:32221   */\n      mstore\n        /* \"#utility.yul\":32003:32228   */\n      pop\n      jump\t// out\n        /* \"#utility.yul\":32234:32600   */\n    tag_435:\n        /* \"#utility.yul\":32376:32379   */\n      0x00\n        /* \"#utility.yul\":32397:32464   */\n      tag_732\n        /* \"#utility.yul\":32461:32463   */\n      0x26\n        /* \"#utility.yul\":32456:32459   */\n      dup4\n        /* \"#utility.yul\":32397:32464   */\n      tag_396\n      jump\t// in\n    tag_732:\n        /* \"#utility.yul\":32390:32464   */\n      swap2\n      pop\n        /* \"#utility.yul\":32473:32566   */\n      tag_733\n        /* \"#utility.yul\":32562:32565   */\n      dup3\n        /* \"#utility.yul\":32473:32566   */\n      tag_434\n      jump\t// in\n    tag_733:\n        /* \"#utility.yul\":32591:32593   */\n      0x40\n        /* \"#utility.yul\":32586:32589   */\n      dup3\n        /* \"#utility.yul\":32582:32594   */\n      add\n        /* \"#utility.yul\":32575:32594   */\n      swap1\n      pop\n        /* \"#utility.yul\":32234:32600   */\n      swap2\n      swap1\n      pop\n      jump\t// out\n        /* \"#utility.yul\":32606:33025   */\n    tag_330:\n        /* \"#utility.yul\":32772:32776   */\n      0x00\n        /* \"#utility.yul\":32810:32812   */\n      0x20\n        /* \"#utility.yul\":32799:32808   */\n      dup3\n        /* \"#utility.yul\":32795:32813   */\n      add\n        /* \"#utility.yul\":32787:32813   */\n      swap1\n      pop\n        /* \"#utility.yul\":32859:32868   */\n      dup2\n        /* \"#utility.yul\":32853:32857   */\n      dup2\n        /* \"#utility.yul\":32849:32869   */\n      sub\n        /* \"#utility.yul\":32845:32846   */\n      0x00\n        /* \"#utility.yul\":32834:32843   */\n      dup4\n        /* \"#utility.yul\":32830:32847   */\n      add\n        /* \"#utility.yul\":32823:32870   */\n      mstore\n        /* \"#utility.yul\":32887:33018   */\n      tag_735\n        /* \"#utility.yul\":33013:33017   */\n      dup2\n        /* \"#utility.yul\":32887:33018   */\n      tag_435\n      jump\t// in\n    tag_735:\n        /* \"#utility.yul\":32879:33018   */\n      swap1\n      pop\n        /* \"#utility.yul\":32606:33025   */\n      swap2\n      swap1\n      pop\n      jump\t// out\n        /* \"#utility.yul\":33031:33254   */\n    tag_436:\n        /* \"#utility.yul\":33171:33205   */\n      0x546865204e465420416464726573732073686f756c64206265206120636f6e74\n        /* \"#utility.yul\":33167:33168   */\n      0x00\n        /* \"#utility.yul\":33159:33165   */\n      dup3\n        /* \"#utility.yul\":33155:33169   */\n      add\n        /* \"#utility.yul\":33148:33206   */\n      mstore\n        /* \"#utility.yul\":33240:33246   */\n      0x7261637400000000000000000000000000000000000000000000000000000000\n        /* \"#utility.yul\":33235:33237   */\n      0x20\n        /* \"#utility.yul\":33227:33233   */\n      dup3\n        /* \"#utility.yul\":33223:33238   */\n      add\n        /* \"#utility.yul\":33216:33247   */\n      mstore\n        /* \"#utility.yul\":33031:33254   */\n      pop\n      jump\t// out\n        /* \"#utility.yul\":33260:33626   */\n    tag_437:\n        /* \"#utility.yul\":33402:33405   */\n      0x00\n        /* \"#utility.yul\":33423:33490   */\n      tag_738\n        /* \"#utility.yul\":33487:33489   */\n      0x24\n        /* \"#utility.yul\":33482:33485   */\n      dup4\n        /* \"#utility.yul\":33423:33490   */\n      tag_396\n      jump\t// in\n    tag_738:\n        /* \"#utility.yul\":33416:33490   */\n      swap2\n      pop\n        /* \"#utility.yul\":33499:33592   */\n      tag_739\n        /* \"#utility.yul\":33588:33591   */\n      dup3\n        /* \"#utility.yul\":33499:33592   */\n      tag_436\n      jump\t// in\n    tag_739:\n        /* \"#utility.yul\":33617:33619   */\n      0x40\n        /* \"#utility.yul\":33612:33615   */\n      dup3\n        /* \"#utility.yul\":33608:33620   */\n      add\n        /* \"#utility.yul\":33601:33620   */\n      swap1\n      pop\n        /* \"#utility.yul\":33260:33626   */\n      swap2\n      swap1\n      pop\n      jump\t// out\n        /* \"#utility.yul\":33632:34051   */\n    tag_341:\n        /* \"#utility.yul\":33798:33802   */\n      0x00\n        /* \"#utility.yul\":33836:33838   */\n      0x20\n        /* \"#utility.yul\":33825:33834   */\n      dup3\n        /* \"#utility.yul\":33821:33839   */\n      add\n        /* \"#utility.yul\":33813:33839   */\n      swap1\n      pop\n        /* \"#utility.yul\":33885:33894   */\n      dup2\n        /* \"#utility.yul\":33879:33883   */\n      dup2\n        /* \"#utility.yul\":33875:33895   */\n      sub\n        /* \"#utility.yul\":33871:33872   */\n      0x00\n        /* \"#utility.yul\":33860:33869   */\n      dup4\n        /* \"#utility.yul\":33856:33873   */\n      add\n        /* \"#utility.yul\":33849:33896   */\n      mstore\n        /* \"#utility.yul\":33913:34044   */\n      tag_741\n        /* \"#utility.yul\":34039:34043   */\n      dup2\n        /* \"#utility.yul\":33913:34044   */\n      tag_437\n      jump\t// in\n    tag_741:\n        /* \"#utility.yul\":33905:34044   */\n      swap1\n      pop\n        /* \"#utility.yul\":33632:34051   */\n      swap2\n      swap1\n      pop\n      jump\t// out\n        /* \"#utility.yul\":34057:34297   */\n    tag_438:\n        /* \"#utility.yul\":34197:34231   */\n      0x546865204e465420636f6e74726163742068617320616e20696e76616c696420\n        /* \"#utility.yul\":34193:34194   */\n      0x00\n        /* \"#utility.yul\":34185:34191   */\n      dup3\n        /* \"#utility.yul\":34181:34195   */\n      add\n        /* \"#utility.yul\":34174:34232   */\n      mstore\n        /* \"#utility.yul\":34266:34289   */\n      0x45524337323120696d706c656d656e746174696f6e0000000000000000000000\n        /* \"#utility.yul\":34261:34263   */\n      0x20\n        /* \"#utility.yul\":34253:34259   */\n      dup3\n        /* \"#utility.yul\":34249:34264   */\n      add\n        /* \"#utility.yul\":34242:34290   */\n      mstore\n        /* \"#utility.yul\":34057:34297   */\n      pop\n      jump\t// out\n        /* \"#utility.yul\":34303:34669   */\n    tag_439:\n        /* \"#utility.yul\":34445:34448   */\n      0x00\n        /* \"#utility.yul\":34466:34533   */\n      tag_744\n        /* \"#utility.yul\":34530:34532   */\n      0x35\n        /* \"#utility.yul\":34525:34528   */\n      dup4\n        /* \"#utility.yul\":34466:34533   */\n      tag_396\n      jump\t// in\n    tag_744:\n        /* \"#utility.yul\":34459:34533   */\n      swap2\n      pop\n        /* \"#utility.yul\":34542:34635   */\n      tag_745\n        /* \"#utility.yul\":34631:34634   */\n      dup3\n        /* \"#utility.yul\":34542:34635   */\n      tag_438\n      jump\t// in\n    tag_745:\n        /* \"#utility.yul\":34660:34662   */\n      0x40\n        /* \"#utility.yul\":34655:34658   */\n      dup3\n        /* \"#utility.yul\":34651:34663   */\n      add\n        /* \"#utility.yul\":34644:34663   */\n      swap1\n      pop\n        /* \"#utility.yul\":34303:34669   */\n      swap2\n      swap1\n      pop\n      jump\t// out\n        /* \"#utility.yul\":34675:35094   */\n    tag_348:\n        /* \"#utility.yul\":34841:34845   */\n      0x00\n        /* \"#utility.yul\":34879:34881   */\n      0x20\n        /* \"#utility.yul\":34868:34877   */\n      dup3\n        /* \"#utility.yul\":34864:34882   */\n      add\n        /* \"#utility.yul\":34856:34882   */\n      swap1\n      pop\n        /* \"#utility.yul\":34928:34937   */\n      dup2\n        /* \"#utility.yul\":34922:34926   */\n      dup2\n        /* \"#utility.yul\":34918:34938   */\n      sub\n        /* \"#utility.yul\":34914:34915   */\n      0x00\n        /* \"#utility.yul\":34903:34912   */\n      dup4\n        /* \"#utility.yul\":34899:34916   */\n      add\n        /* \"#utility.yul\":34892:34939   */\n      mstore\n        /* \"#utility.yul\":34956:35087   */\n      tag_747\n        /* \"#utility.yul\":35082:35086   */\n      dup2\n        /* \"#utility.yul\":34956:35087   */\n      tag_439\n      jump\t// in\n    tag_747:\n        /* \"#utility.yul\":34948:35087   */\n      swap1\n      pop\n        /* \"#utility.yul\":34675:35094   */\n      swap2\n      swap1\n      pop\n      jump\t// out\n\n    auxdata: 0xa264697066735822122063cb032a3e27c38c68e580b09e851d247f2e03658dfaced1c87b570d7cd3a15e64736f6c634300080d0033\n}\n",
				"bytecode": {
					"linkReferences": {},
					"object": "60806040523480156200001157600080fd5b50604051620036ad380380620036ad833981810160405281019062000037919062000263565b60016000819055506200005f620000536200012b60201b60201c565b6200013360201b60201c565b82600960006101000a81548173ffffffffffffffffffffffffffffffffffffffff021916908373ffffffffffffffffffffffffffffffffffffffff16021790555081600b60006101000a81548173ffffffffffffffffffffffffffffffffffffffff021916908373ffffffffffffffffffffffffffffffffffffffff16021790555080600a60006101000a81548173ffffffffffffffffffffffffffffffffffffffff021916908373ffffffffffffffffffffffffffffffffffffffff160217905550505050620002bf565b600033905090565b6000600c60009054906101000a900473ffffffffffffffffffffffffffffffffffffffff16905081600c60006101000a81548173ffffffffffffffffffffffffffffffffffffffff021916908373ffffffffffffffffffffffffffffffffffffffff1602179055508173ffffffffffffffffffffffffffffffffffffffff168173ffffffffffffffffffffffffffffffffffffffff167f8be0079c531659141344cd1fd0a4f28419497f9722a3daafe3b4186f6b6457e060405160405180910390a35050565b600080fd5b600073ffffffffffffffffffffffffffffffffffffffff82169050919050565b60006200022b82620001fe565b9050919050565b6200023d816200021e565b81146200024957600080fd5b50565b6000815190506200025d8162000232565b92915050565b6000806000606084860312156200027f576200027e620001f9565b5b60006200028f868287016200024c565b9350506020620002a2868287016200024c565b9250506040620002b5868287016200024c565b9150509250925092565b6133de80620002cf6000396000f3fe60806040526004361061014b5760003560e01c8063715018a6116100b6578063c45a01551161006f578063c45a015514610469578063c7be7a4914610494578063e0606dd8146104d1578063f2fde38b1461050e578063f55de0c714610537578063ff68fa6e146105625761014b565b8063715018a61461037f57806385a8b36c146103965780638da5cb5b146103c1578063a1c11ca8146103ec578063ad9a036914610415578063b7a60c7e1461043e5761014b565b80632b4c32be116101085780632b4c32be14610272578063361c19951461029d5780633fc15f15146102b9578063517bd451146102e45780635bb47808146103145780635c80a4351461033d5761014b565b80630f08efe01461015057806315b124941461017b57806316e7031a146101a4578063202e3740146101e157806327ce464e1461020c5780632a45b25014610235575b600080fd5b34801561015c57600080fd5b506101656105a4565b60405161017291906123e2565b60405180910390f35b34801561018757600080fd5b506101a2600480360381019061019d919061244f565b6106c3565b005b3480156101b057600080fd5b506101cb60048036038101906101c691906124a8565b610783565b6040516101d891906124f0565b60405180910390f35b3480156101ed57600080fd5b506101f6610836565b6040516102039190612635565b60405180910390f35b34801561021857600080fd5b50610233600480360381019061022e919061244f565b610b62565b005b34801561024157600080fd5b5061025c600480360381019061025791906124a8565b610c22565b60405161026991906123e2565b60405180910390f35b34801561027e57600080fd5b50610287610d5a565b6040516102949190612692565b60405180910390f35b6102b760048036038101906102b291906126ad565b610d65565b005b3480156102c557600080fd5b506102ce611138565b6040516102db919061274c565b60405180910390f35b3480156102f057600080fd5b506102f961115e565b60405161030b96959493929190612794565b60405180910390f35b34801561032057600080fd5b5061033b6004803603810190610336919061244f565b6111d5565b005b34801561034957600080fd5b50610364600480360381019061035f91906127f5565b611295565b60405161037696959493929190612794565b60405180910390f35b34801561038b57600080fd5b5061039461132b565b005b3480156103a257600080fd5b506103ab6113b3565b6040516103b89190612851565b60405180910390f35b3480156103cd57600080fd5b506103d66113c6565b6040516103e3919061287b565b60405180910390f35b3480156103f857600080fd5b50610413600480360381019061040e91906126ad565b6113f0565b005b34801561042157600080fd5b5061043c600480360381019061043791906127f5565b6117a9565b005b34801561044a57600080fd5b50610453611c0a565b6040516104609190612851565b60405180910390f35b34801561047557600080fd5b5061047e611c1d565b60405161048b91906128b7565b60405180910390f35b3480156104a057600080fd5b506104bb60048036038101906104b691906124a8565b611c43565b6040516104c891906123e2565b60405180910390f35b3480156104dd57600080fd5b506104f860048036038101906104f391906124a8565b611d75565b604051610505919061287b565b60405180910390f35b34801561051a57600080fd5b506105356004803603810190610530919061244f565b611e60565b005b34801561054357600080fd5b5061054c611f57565b60405161055991906128f3565b60405180910390f35b34801561056e57600080fd5b50610589600480360381019061058491906124a8565b611f7d565b60405161059b96959493929190612794565b60405180910390f35b6105ac612222565b60016040518060c001604052908160008201548152602001600182015481526020016002820160009054906101000a900473ffffffffffffffffffffffffffffffffffffffff1673ffffffffffffffffffffffffffffffffffffffff1673ffffffffffffffffffffffffffffffffffffffff1681526020016003820160009054906101000a900473ffffffffffffffffffffffffffffffffffffffff1673ffffffffffffffffffffffffffffffffffffffff1673ffffffffffffffffffffffffffffffffffffffff168152602001600482015481526020016005820160009054906101000a900460ff1660018111156106a8576106a76122f0565b5b60018111156106ba576106b96122f0565b5b81525050905090565b6106cb612006565b73ffffffffffffffffffffffffffffffffffffffff166106e96113c6565b73ffffffffffffffffffffffffffffffffffffffff161461073f576040517f08c379a00000000000000000000000000000000000000000000000000000000081526004016107369061296b565b60405180910390fd5b80600b60006101000a81548173ffffffffffffffffffffffffffffffffffffffff021916908373ffffffffffffffffffffffffffffffffffffffff16021790555050565b600080600a60009054906101000a900473ffffffffffffffffffffffffffffffffffffffff1673ffffffffffffffffffffffffffffffffffffffff1663d30bdac9846040518263ffffffff1660e01b81526004016107e1919061298b565b600060405180830381865afa1580156107fe573d6000803e3d6000fd5b505050506040513d6000823e3d601f19601f820116820180604052508101906108279190612c34565b90508060800151915050919050565b60606000610844600d61200e565b905060008060005b838110156108ec573373ffffffffffffffffffffffffffffffffffffffff16600f600060018461087c9190612cac565b815260200190815260200160002060030160009054906101000a900473ffffffffffffffffffffffffffffffffffffffff1673ffffffffffffffffffffffffffffffffffffffff16036108d9576001836108d69190612cac565b92505b80806108e490612d02565b91505061084c565b5060008267ffffffffffffffff811115610909576109086129bc565b5b60405190808252806020026020018201604052801561094257816020015b61092f612222565b8152602001906001900390816109275790505b50905060005b84811015610b57573373ffffffffffffffffffffffffffffffffffffffff16600f60006001846109789190612cac565b815260200190815260200160002060030160009054906101000a900473ffffffffffffffffffffffffffffffffffffffff1673ffffffffffffffffffffffffffffffffffffffff1603610b44576000600f60006001846109d89190612cac565b81526020019081526020016000206000015490506000600f60008381526020019081526020016000209050806040518060c001604052908160008201548152602001600182015481526020016002820160009054906101000a900473ffffffffffffffffffffffffffffffffffffffff1673ffffffffffffffffffffffffffffffffffffffff1673ffffffffffffffffffffffffffffffffffffffff1681526020016003820160009054906101000a900473ffffffffffffffffffffffffffffffffffffffff1673ffffffffffffffffffffffffffffffffffffffff1673ffffffffffffffffffffffffffffffffffffffff168152602001600482015481526020016005820160009054906101000a900460ff166001811115610afe57610afd6122f0565b5b6001811115610b1057610b0f6122f0565b5b81525050848681518110610b2757610b26612d4a565b5b6020026020010181905250600185610b3f9190612cac565b945050505b8080610b4f90612d02565b915050610948565b508094505050505090565b610b6a612006565b73ffffffffffffffffffffffffffffffffffffffff16610b886113c6565b73ffffffffffffffffffffffffffffffffffffffff1614610bde576040517f08c379a0000000000000000000000000000000000000000000000000000000008152600401610bd59061296b565b60405180910390fd5b80600960006101000a81548173ffffffffffffffffffffffffffffffffffffffff021916908373ffffffffffffffffffffffffffffffffffffffff16021790555050565b610c2a612222565b6000600f60008481526020019081526020016000206040518060c001604052908160008201548152602001600182015481526020016002820160009054906101000a900473ffffffffffffffffffffffffffffffffffffffff1673ffffffffffffffffffffffffffffffffffffffff1673ffffffffffffffffffffffffffffffffffffffff1681526020016003820160009054906101000a900473ffffffffffffffffffffffffffffffffffffffff1673ffffffffffffffffffffffffffffffffffffffff1673ffffffffffffffffffffffffffffffffffffffff168152602001600482015481526020016005820160009054906101000a900460ff166001811115610d3957610d386122f0565b5b6001811115610d4b57610d4a6122f0565b5b81525050905080915050919050565b6380ac58cd60e01b81565b600260005403610daa576040517f08c379a0000000000000000000000000000000000000000000000000000000008152600401610da190612dc5565b60405180910390fd5b600260008190555060008111610df5576040517f08c379a0000000000000000000000000000000000000000000000000000000008152600401610dec90612e31565b60405180910390fd5b6000600a60009054906101000a900473ffffffffffffffffffffffffffffffffffffffff1673ffffffffffffffffffffffffffffffffffffffff1663d30bdac9846040518263ffffffff1660e01b8152600401610e52919061298b565b600060405180830381865afa158015610e6f573d6000803e3d6000fd5b505050506040513d6000823e3d601f19601f82011682018060405250810190610e989190612c34565b9050600015158160800151151514610ee5576040517f08c379a0000000000000000000000000000000000000000000000000000000008152600401610edc90612e9d565b60405180910390fd5b610eef600d61201c565b6000610efb600d61200e565b90506040518060c001604052808281526020018581526020013373ffffffffffffffffffffffffffffffffffffffff168152602001600073ffffffffffffffffffffffffffffffffffffffff168152602001848152602001600180811115610f6657610f656122f0565b5b815250600f6000838152602001908152602001600020600082015181600001556020820151816001015560408201518160020160006101000a81548173ffffffffffffffffffffffffffffffffffffffff021916908373ffffffffffffffffffffffffffffffffffffffff16021790555060608201518160030160006101000a81548173ffffffffffffffffffffffffffffffffffffffff021916908373ffffffffffffffffffffffffffffffffffffffff1602179055506080820151816004015560a08201518160050160006101000a81548160ff02191690836001811115611053576110526122f0565b5b0217905550905050600b60009054906101000a900473ffffffffffffffffffffffffffffffffffffffff1673ffffffffffffffffffffffffffffffffffffffff166323b872dd3330876040518463ffffffff1660e01b81526004016110ba93929190612ebd565b600060405180830381600087803b1580156110d457600080fd5b505af11580156110e8573d6000803e3d6000fd5b5050505083817f38690a554ffbc44eb6a75016e47d517d0db8e6c37494adc68d6d0b2c66f0ab213360008760405161112293929190612ebd565b60405180910390a3505060016000819055505050565b600960009054906101000a900473ffffffffffffffffffffffffffffffffffffffff1681565b60018060000154908060010154908060020160009054906101000a900473ffffffffffffffffffffffffffffffffffffffff16908060030160009054906101000a900473ffffffffffffffffffffffffffffffffffffffff16908060040154908060050160009054906101000a900460ff16905086565b6111dd612006565b73ffffffffffffffffffffffffffffffffffffffff166111fb6113c6565b73ffffffffffffffffffffffffffffffffffffffff1614611251576040517f08c379a00000000000000000000000000000000000000000000000000000000081526004016112489061296b565b60405180910390fd5b80600a60006101000a81548173ffffffffffffffffffffffffffffffffffffffff021916908373ffffffffffffffffffffffffffffffffffffffff16021790555050565b6008602052816000526040600020602052806000526040600020600091509150508060000154908060010154908060020160009054906101000a900473ffffffffffffffffffffffffffffffffffffffff16908060030160009054906101000a900473ffffffffffffffffffffffffffffffffffffffff16908060040154908060050160009054906101000a900460ff16905086565b611333612006565b73ffffffffffffffffffffffffffffffffffffffff166113516113c6565b73ffffffffffffffffffffffffffffffffffffffff16146113a7576040517f08c379a000000000000000000000000000000000000000000000000000000000815260040161139e9061296b565b60405180910390fd5b6113b16000612032565b565b600b60149054906101000a900460ff1681565b6000600c60009054906101000a900473ffffffffffffffffffffffffffffffffffffffff16905090565b600260005403611435576040517f08c379a000000000000000000000000000000000000000000000000000000000815260040161142c90612dc5565b60405180910390fd5b60026000819055506000600f60008481526020019081526020016000206004015490506000600f60008581526020019081526020016000206001015490508183146114b5576040517f08c379a00000000000000000000000000000000000000000000000000000000081526004016114ac90612f66565b60405180910390fd5b600960009054906101000a900473ffffffffffffffffffffffffffffffffffffffff1673ffffffffffffffffffffffffffffffffffffffff166323b872dd33600f600088815260200190815260200160002060020160009054906101000a900473ffffffffffffffffffffffffffffffffffffffff16866040518463ffffffff1660e01b815260040161154a93929190612fa7565b6020604051808303816000875af1158015611569573d6000803e3d6000fd5b505050506040513d601f19601f8201168201806040525081019061158d9190612fde565b50600b60009054906101000a900473ffffffffffffffffffffffffffffffffffffffff1673ffffffffffffffffffffffffffffffffffffffff166323b872dd3033846040518463ffffffff1660e01b81526004016115ed93929190612ebd565b600060405180830381600087803b15801561160757600080fd5b505af115801561161b573d6000803e3d6000fd5b5050505033600f600086815260200190815260200160002060030160006101000a81548173ffffffffffffffffffffffffffffffffffffffff021916908373ffffffffffffffffffffffffffffffffffffffff1602179055506000600f600086815260200190815260200160002060050160006101000a81548160ff021916908360018111156116ae576116ad6122f0565b5b02179055506000600a60009054906101000a900473ffffffffffffffffffffffffffffffffffffffff1673ffffffffffffffffffffffffffffffffffffffff1663d30bdac9836040518263ffffffff1660e01b8152600401611710919061298b565b600060405180830381865afa15801561172d573d6000803e3d6000fd5b505050506040513d6000823e3d601f19601f820116820180604052508101906117569190612c34565b905033816020019073ffffffffffffffffffffffffffffffffffffffff16908173ffffffffffffffffffffffffffffffffffffffff168152505061179a600e61201c565b50505060016000819055505050565b6117b2826120f8565b60003390506000600f60008481526020019081526020016000206040518060c001604052908160008201548152602001600182015481526020016002820160009054906101000a900473ffffffffffffffffffffffffffffffffffffffff1673ffffffffffffffffffffffffffffffffffffffff1673ffffffffffffffffffffffffffffffffffffffff1681526020016003820160009054906101000a900473ffffffffffffffffffffffffffffffffffffffff1673ffffffffffffffffffffffffffffffffffffffff1673ffffffffffffffffffffffffffffffffffffffff168152602001600482015481526020016005820160009054906101000a900460ff1660018111156118c6576118c56122f0565b5b60018111156118d8576118d76122f0565b5b8152505090506000816000015103611925576040517f08c379a000000000000000000000000000000000000000000000000000000000815260040161191c90613057565b60405180910390fd5b60006001811115611939576119386122f0565b5b8160a0015160018111156119505761194f6122f0565b5b03611990576040517f08c379a0000000000000000000000000000000000000000000000000000000008152600401611987906130c3565b60405180910390fd5b600081604001519050600073ffffffffffffffffffffffffffffffffffffffff168173ffffffffffffffffffffffffffffffffffffffff1603611a08576040517f08c379a00000000000000000000000000000000000000000000000000000000081526004016119ff9061312f565b60405180910390fd5b3373ffffffffffffffffffffffffffffffffffffffff168173ffffffffffffffffffffffffffffffffffffffff1614611a76576040517f08c379a0000000000000000000000000000000000000000000000000000000008152600401611a6d9061319b565b60405180910390fd5b60008590508073ffffffffffffffffffffffffffffffffffffffff166342842e0e3084886040518463ffffffff1660e01b8152600401611ab893929190612ebd565b600060405180830381600087803b158015611ad257600080fd5b505af1158015611ae6573d6000803e3d6000fd5b5050505060008360a001906001811115611b0357611b026122f0565b5b90816001811115611b1757611b166122f0565b5b81525050600f600086815260200190815260200160002060008082016000905560018201600090556002820160006101000a81549073ffffffffffffffffffffffffffffffffffffffff02191690556003820160006101000a81549073ffffffffffffffffffffffffffffffffffffffff021916905560048201600090556005820160006101000a81549060ff021916905550508373ffffffffffffffffffffffffffffffffffffffff16857fc141ecc59e1a451ee7d3128743c8ca3174955ce97262896269482d5f84b39a8588866000015142604051611bfa939291906131bb565b60405180910390a3505050505050565b600b60159054906101000a900460ff1681565b600a60009054906101000a900473ffffffffffffffffffffffffffffffffffffffff1681565b611c4b612222565b600f60008381526020019081526020016000206040518060c001604052908160008201548152602001600182015481526020016002820160009054906101000a900473ffffffffffffffffffffffffffffffffffffffff1673ffffffffffffffffffffffffffffffffffffffff1673ffffffffffffffffffffffffffffffffffffffff1681526020016003820160009054906101000a900473ffffffffffffffffffffffffffffffffffffffff1673ffffffffffffffffffffffffffffffffffffffff1673ffffffffffffffffffffffffffffffffffffffff168152602001600482015481526020016005820160009054906101000a900460ff166001811115611d5857611d576122f0565b5b6001811115611d6a57611d696122f0565b5b815250509050919050565b600080600a60009054906101000a900473ffffffffffffffffffffffffffffffffffffffff1673ffffffffffffffffffffffffffffffffffffffff1663d30bdac9846040518263ffffffff1660e01b8152600401611dd3919061298b565b600060405180830381865afa158015611df0573d6000803e3d6000fd5b505050506040513d6000823e3d601f19601f82011682018060405250810190611e199190612c34565b905033816020019073ffffffffffffffffffffffffffffffffffffffff16908173ffffffffffffffffffffffffffffffffffffffff16815250508060200151915050919050565b611e68612006565b73ffffffffffffffffffffffffffffffffffffffff16611e866113c6565b73ffffffffffffffffffffffffffffffffffffffff1614611edc576040517f08c379a0000000000000000000000000000000000000000000000000000000008152600401611ed39061296b565b60405180910390fd5b600073ffffffffffffffffffffffffffffffffffffffff168173ffffffffffffffffffffffffffffffffffffffff1603611f4b576040517f08c379a0000000000000000000000000000000000000000000000000000000008152600401611f4290613264565b60405180910390fd5b611f5481612032565b50565b600b60009054906101000a900473ffffffffffffffffffffffffffffffffffffffff1681565b60076020528060005260406000206000915090508060000154908060010154908060020160009054906101000a900473ffffffffffffffffffffffffffffffffffffffff16908060030160009054906101000a900473ffffffffffffffffffffffffffffffffffffffff16908060040154908060050160009054906101000a900460ff16905086565b600033905090565b600081600001549050919050565b6001816000016000828254019250508190555050565b6000600c60009054906101000a900473ffffffffffffffffffffffffffffffffffffffff16905081600c60006101000a81548173ffffffffffffffffffffffffffffffffffffffff021916908373ffffffffffffffffffffffffffffffffffffffff1602179055508173ffffffffffffffffffffffffffffffffffffffff168173ffffffffffffffffffffffffffffffffffffffff167f8be0079c531659141344cd1fd0a4f28419497f9722a3daafe3b4186f6b6457e060405160405180910390a35050565b61210181612209565b612140576040517f08c379a0000000000000000000000000000000000000000000000000000000008152600401612137906132f6565b60405180910390fd5b60008190508073ffffffffffffffffffffffffffffffffffffffff166301ffc9a76380ac58cd60e01b6040518263ffffffff1660e01b81526004016121859190612692565b602060405180830381865afa1580156121a2573d6000803e3d6000fd5b505050506040513d601f19601f820116820180604052508101906121c69190612fde565b612205576040517f08c379a00000000000000000000000000000000000000000000000000000000081526004016121fc90613388565b60405180910390fd5b5050565b600080823b905060008163ffffffff1611915050919050565b6040518060c001604052806000815260200160008152602001600073ffffffffffffffffffffffffffffffffffffffff168152602001600073ffffffffffffffffffffffffffffffffffffffff16815260200160008152602001600060018111156122905761228f6122f0565b5b81525090565b6000819050919050565b6122a981612296565b82525050565b600073ffffffffffffffffffffffffffffffffffffffff82169050919050565b60006122da826122af565b9050919050565b6122ea816122cf565b82525050565b7f4e487b7100000000000000000000000000000000000000000000000000000000600052602160045260246000fd5b600281106123305761232f6122f0565b5b50565b60008190506123418261231f565b919050565b600061235182612333565b9050919050565b61236181612346565b82525050565b60c08201600082015161237d60008501826122a0565b50602082015161239060208501826122a0565b5060408201516123a360408501826122e1565b5060608201516123b660608501826122e1565b5060808201516123c960808501826122a0565b5060a08201516123dc60a0850182612358565b50505050565b600060c0820190506123f76000830184612367565b92915050565b6000604051905090565b600080fd5b600080fd5b600061241c826122af565b9050919050565b61242c81612411565b811461243757600080fd5b50565b60008135905061244981612423565b92915050565b60006020828403121561246557612464612407565b5b60006124738482850161243a565b91505092915050565b61248581612296565b811461249057600080fd5b50565b6000813590506124a28161247c565b92915050565b6000602082840312156124be576124bd612407565b5b60006124cc84828501612493565b91505092915050565b60008115159050919050565b6124ea816124d5565b82525050565b600060208201905061250560008301846124e1565b92915050565b600081519050919050565b600082825260208201905092915050565b6000819050602082019050919050565b60c08201600082015161254d60008501826122a0565b50602082015161256060208501826122a0565b50604082015161257360408501826122e1565b50606082015161258660608501826122e1565b50608082015161259960808501826122a0565b5060a08201516125ac60a0850182612358565b50505050565b60006125be8383612537565b60c08301905092915050565b6000602082019050919050565b60006125e28261250b565b6125ec8185612516565b93506125f783612527565b8060005b8381101561262857815161260f88826125b2565b975061261a836125ca565b9250506001810190506125fb565b5085935050505092915050565b6000602082019050818103600083015261264f81846125d7565b905092915050565b60007fffffffff0000000000000000000000000000000000000000000000000000000082169050919050565b61268c81612657565b82525050565b60006020820190506126a76000830184612683565b92915050565b600080604083850312156126c4576126c3612407565b5b60006126d285828601612493565b92505060206126e385828601612493565b9150509250929050565b6000819050919050565b600061271261270d612708846122af565b6126ed565b6122af565b9050919050565b6000612724826126f7565b9050919050565b600061273682612719565b9050919050565b6127468161272b565b82525050565b6000602082019050612761600083018461273d565b92915050565b61277081612296565b82525050565b61277f816122cf565b82525050565b61278e81612346565b82525050565b600060c0820190506127a96000830189612767565b6127b66020830188612767565b6127c36040830187612776565b6127d06060830186612776565b6127dd6080830185612767565b6127ea60a0830184612785565b979650505050505050565b6000806040838503121561280c5761280b612407565b5b600061281a8582860161243a565b925050602061282b85828601612493565b9150509250929050565b600060ff82169050919050565b61284b81612835565b82525050565b60006020820190506128666000830184612842565b92915050565b61287581612411565b82525050565b6000602082019050612890600083018461286c565b92915050565b60006128a182612719565b9050919050565b6128b181612896565b82525050565b60006020820190506128cc60008301846128a8565b92915050565b60006128dd82612719565b9050919050565b6128ed816128d2565b82525050565b600060208201905061290860008301846128e4565b92915050565b600082825260208201905092915050565b7f4f776e61626c653a2063616c6c6572206973206e6f7420746865206f776e6572600082015250565b600061295560208361290e565b91506129608261291f565b602082019050919050565b6000602082019050818103600083015261298481612948565b9050919050565b60006020820190506129a06000830184612767565b92915050565b600080fd5b6000601f19601f8301169050919050565b7f4e487b7100000000000000000000000000000000000000000000000000000000600052604160045260246000fd5b6129f4826129ab565b810181811067ffffffffffffffff82111715612a1357612a126129bc565b5b80604052505050565b6000612a266123fd565b9050612a3282826129eb565b919050565b600080fd5b600081519050612a4b8161247c565b92915050565b600081519050612a6081612423565b92915050565b600080fd5b600080fd5b600067ffffffffffffffff821115612a8b57612a8a6129bc565b5b612a94826129ab565b9050602081019050919050565b60005b83811015612abf578082015181840152602081019050612aa4565b83811115612ace576000848401525b50505050565b6000612ae7612ae284612a70565b612a1c565b905082815260208101848484011115612b0357612b02612a6b565b5b612b0e848285612aa1565b509392505050565b600082601f830112612b2b57612b2a612a66565b5b8151612b3b848260208601612ad4565b91505092915050565b612b4d816124d5565b8114612b5857600080fd5b50565b600081519050612b6a81612b44565b92915050565b600060a08284031215612b8657612b856129a6565b5b612b9060a0612a1c565b90506000612ba084828501612a3c565b6000830152506020612bb484828501612a51565b602083015250604082015167ffffffffffffffff811115612bd857612bd7612a37565b5b612be484828501612b16565b604083015250606082015167ffffffffffffffff811115612c0857612c07612a37565b5b612c1484828501612b16565b6060830152506080612c2884828501612b5b565b60808301525092915050565b600060208284031215612c4a57612c49612407565b5b600082015167ffffffffffffffff811115612c6857612c6761240c565b5b612c7484828501612b70565b91505092915050565b7f4e487b7100000000000000000000000000000000000000000000000000000000600052601160045260246000fd5b6000612cb782612296565b9150612cc283612296565b9250827fffffffffffffffffffffffffffffffffffffffffffffffffffffffffffffffff03821115612cf757612cf6612c7d565b5b828201905092915050565b6000612d0d82612296565b91507fffffffffffffffffffffffffffffffffffffffffffffffffffffffffffffffff8203612d3f57612d3e612c7d565b5b600182019050919050565b7f4e487b7100000000000000000000000000000000000000000000000000000000600052603260045260246000fd5b7f5265656e7472616e637947756172643a207265656e7472616e742063616c6c00600082015250565b6000612daf601f8361290e565b9150612dba82612d79565b602082019050919050565b60006020820190508181036000830152612dde81612da2565b9050919050565b7f5072696365206d757374206265206174206c6561737420312077656900000000600082015250565b6000612e1b601c8361290e565b9150612e2682612de5565b602082019050919050565b60006020820190508181036000830152612e4a81612e0e565b9050919050565b7f4974656d206973206e6f7420617661696c61626c65206e6f7720210000000000600082015250565b6000612e87601b8361290e565b9150612e9282612e51565b602082019050919050565b60006020820190508181036000830152612eb681612e7a565b9050919050565b6000606082019050612ed2600083018661286c565b612edf602083018561286c565b612eec6040830184612767565b949350505050565b7f506c65617365207375626d6974207468652061736b696e67207072696365206960008201527f6e206f7264657220746f20636f6d706c65746520746865207075726368617365602082015250565b6000612f5060408361290e565b9150612f5b82612ef4565b604082019050919050565b60006020820190508181036000830152612f7f81612f43565b9050919050565b6000612f9182612719565b9050919050565b612fa181612f86565b82525050565b6000606082019050612fbc600083018661286c565b612fc96020830185612f98565b612fd66040830184612767565b949350505050565b600060208284031215612ff457612ff3612407565b5b600061300284828501612b5b565b91505092915050565b7f4173736574206e6f74207075626c697368656400000000000000000000000000600082015250565b600061304160138361290e565b915061304c8261300b565b602082019050919050565b6000602082019050818103600083015261307081613034565b9050919050565b7f41737365742064656c6973746564000000000000000000000000000000000000600082015250565b60006130ad600e8361290e565b91506130b882613077565b602082019050919050565b600060208201905081810360008301526130dc816130a0565b9050919050565b7f496e76616c696420616464726573730000000000000000000000000000000000600082015250565b6000613119600f8361290e565b9150613124826130e3565b602082019050919050565b600060208201905081810360008301526131488161310c565b9050919050565b7f4f6e6c792073656c6c65722063616e2064656c69737400000000000000000000600082015250565b600061318560168361290e565b91506131908261314f565b602082019050919050565b600060208201905081810360008301526131b481613178565b9050919050565b60006060820190506131d0600083018661286c565b6131dd6020830185612767565b6131ea6040830184612767565b949350505050565b7f4f776e61626c653a206e6577206f776e657220697320746865207a65726f206160008201527f6464726573730000000000000000000000000000000000000000000000000000602082015250565b600061324e60268361290e565b9150613259826131f2565b604082019050919050565b6000602082019050818103600083015261327d81613241565b9050919050565b7f546865204e465420416464726573732073686f756c64206265206120636f6e7460008201527f7261637400000000000000000000000000000000000000000000000000000000602082015250565b60006132e060248361290e565b91506132eb82613284565b604082019050919050565b6000602082019050818103600083015261330f816132d3565b9050919050565b7f546865204e465420636f6e74726163742068617320616e20696e76616c69642060008201527f45524337323120696d706c656d656e746174696f6e0000000000000000000000602082015250565b600061337260358361290e565b915061337d82613316565b604082019050919050565b600060208201905081810360008301526133a181613365565b905091905056fea264697066735822122063cb032a3e27c38c68e580b09e851d247f2e03658dfaced1c87b570d7cd3a15e64736f6c634300080d0033",
					"opcodes": "PUSH1 0x80 PUSH1 0x40 MSTORE CALLVALUE DUP1 ISZERO PUSH3 0x11 JUMPI PUSH1 0x0 DUP1 REVERT JUMPDEST POP PUSH1 0x40 MLOAD PUSH3 0x36AD CODESIZE SUB DUP1 PUSH3 0x36AD DUP4 CODECOPY DUP2 DUP2 ADD PUSH1 0x40 MSTORE DUP2 ADD SWAP1 PUSH3 0x37 SWAP2 SWAP1 PUSH3 0x263 JUMP JUMPDEST PUSH1 0x1 PUSH1 0x0 DUP2 SWAP1 SSTORE POP PUSH3 0x5F PUSH3 0x53 PUSH3 0x12B PUSH1 0x20 SHL PUSH1 0x20 SHR JUMP JUMPDEST PUSH3 0x133 PUSH1 0x20 SHL PUSH1 0x20 SHR JUMP JUMPDEST DUP3 PUSH1 0x9 PUSH1 0x0 PUSH2 0x100 EXP DUP2 SLOAD DUP2 PUSH20 0xFFFFFFFFFFFFFFFFFFFFFFFFFFFFFFFFFFFFFFFF MUL NOT AND SWAP1 DUP4 PUSH20 0xFFFFFFFFFFFFFFFFFFFFFFFFFFFFFFFFFFFFFFFF AND MUL OR SWAP1 SSTORE POP DUP2 PUSH1 0xB PUSH1 0x0 PUSH2 0x100 EXP DUP2 SLOAD DUP2 PUSH20 0xFFFFFFFFFFFFFFFFFFFFFFFFFFFFFFFFFFFFFFFF MUL NOT AND SWAP1 DUP4 PUSH20 0xFFFFFFFFFFFFFFFFFFFFFFFFFFFFFFFFFFFFFFFF AND MUL OR SWAP1 SSTORE POP DUP1 PUSH1 0xA PUSH1 0x0 PUSH2 0x100 EXP DUP2 SLOAD DUP2 PUSH20 0xFFFFFFFFFFFFFFFFFFFFFFFFFFFFFFFFFFFFFFFF MUL NOT AND SWAP1 DUP4 PUSH20 0xFFFFFFFFFFFFFFFFFFFFFFFFFFFFFFFFFFFFFFFF AND MUL OR SWAP1 SSTORE POP POP POP POP PUSH3 0x2BF JUMP JUMPDEST PUSH1 0x0 CALLER SWAP1 POP SWAP1 JUMP JUMPDEST PUSH1 0x0 PUSH1 0xC PUSH1 0x0 SWAP1 SLOAD SWAP1 PUSH2 0x100 EXP SWAP1 DIV PUSH20 0xFFFFFFFFFFFFFFFFFFFFFFFFFFFFFFFFFFFFFFFF AND SWAP1 POP DUP2 PUSH1 0xC PUSH1 0x0 PUSH2 0x100 EXP DUP2 SLOAD DUP2 PUSH20 0xFFFFFFFFFFFFFFFFFFFFFFFFFFFFFFFFFFFFFFFF MUL NOT AND SWAP1 DUP4 PUSH20 0xFFFFFFFFFFFFFFFFFFFFFFFFFFFFFFFFFFFFFFFF AND MUL OR SWAP1 SSTORE POP DUP2 PUSH20 0xFFFFFFFFFFFFFFFFFFFFFFFFFFFFFFFFFFFFFFFF AND DUP2 PUSH20 0xFFFFFFFFFFFFFFFFFFFFFFFFFFFFFFFFFFFFFFFF AND PUSH32 0x8BE0079C531659141344CD1FD0A4F28419497F9722A3DAAFE3B4186F6B6457E0 PUSH1 0x40 MLOAD PUSH1 0x40 MLOAD DUP1 SWAP2 SUB SWAP1 LOG3 POP POP JUMP JUMPDEST PUSH1 0x0 DUP1 REVERT JUMPDEST PUSH1 0x0 PUSH20 0xFFFFFFFFFFFFFFFFFFFFFFFFFFFFFFFFFFFFFFFF DUP3 AND SWAP1 POP SWAP2 SWAP1 POP JUMP JUMPDEST PUSH1 0x0 PUSH3 0x22B DUP3 PUSH3 0x1FE JUMP JUMPDEST SWAP1 POP SWAP2 SWAP1 POP JUMP JUMPDEST PUSH3 0x23D DUP2 PUSH3 0x21E JUMP JUMPDEST DUP2 EQ PUSH3 0x249 JUMPI PUSH1 0x0 DUP1 REVERT JUMPDEST POP JUMP JUMPDEST PUSH1 0x0 DUP2 MLOAD SWAP1 POP PUSH3 0x25D DUP2 PUSH3 0x232 JUMP JUMPDEST SWAP3 SWAP2 POP POP JUMP JUMPDEST PUSH1 0x0 DUP1 PUSH1 0x0 PUSH1 0x60 DUP5 DUP7 SUB SLT ISZERO PUSH3 0x27F JUMPI PUSH3 0x27E PUSH3 0x1F9 JUMP JUMPDEST JUMPDEST PUSH1 0x0 PUSH3 0x28F DUP7 DUP3 DUP8 ADD PUSH3 0x24C JUMP JUMPDEST SWAP4 POP POP PUSH1 0x20 PUSH3 0x2A2 DUP7 DUP3 DUP8 ADD PUSH3 0x24C JUMP JUMPDEST SWAP3 POP POP PUSH1 0x40 PUSH3 0x2B5 DUP7 DUP3 DUP8 ADD PUSH3 0x24C JUMP JUMPDEST SWAP2 POP POP SWAP3 POP SWAP3 POP SWAP3 JUMP JUMPDEST PUSH2 0x33DE DUP1 PUSH3 0x2CF PUSH1 0x0 CODECOPY PUSH1 0x0 RETURN INVALID PUSH1 0x80 PUSH1 0x40 MSTORE PUSH1 0x4 CALLDATASIZE LT PUSH2 0x14B JUMPI PUSH1 0x0 CALLDATALOAD PUSH1 0xE0 SHR DUP1 PUSH4 0x715018A6 GT PUSH2 0xB6 JUMPI DUP1 PUSH4 0xC45A0155 GT PUSH2 0x6F JUMPI DUP1 PUSH4 0xC45A0155 EQ PUSH2 0x469 JUMPI DUP1 PUSH4 0xC7BE7A49 EQ PUSH2 0x494 JUMPI DUP1 PUSH4 0xE0606DD8 EQ PUSH2 0x4D1 JUMPI DUP1 PUSH4 0xF2FDE38B EQ PUSH2 0x50E JUMPI DUP1 PUSH4 0xF55DE0C7 EQ PUSH2 0x537 JUMPI DUP1 PUSH4 0xFF68FA6E EQ PUSH2 0x562 JUMPI PUSH2 0x14B JUMP JUMPDEST DUP1 PUSH4 0x715018A6 EQ PUSH2 0x37F JUMPI DUP1 PUSH4 0x85A8B36C EQ PUSH2 0x396 JUMPI DUP1 PUSH4 0x8DA5CB5B EQ PUSH2 0x3C1 JUMPI DUP1 PUSH4 0xA1C11CA8 EQ PUSH2 0x3EC JUMPI DUP1 PUSH4 0xAD9A0369 EQ PUSH2 0x415 JUMPI DUP1 PUSH4 0xB7A60C7E EQ PUSH2 0x43E JUMPI PUSH2 0x14B JUMP JUMPDEST DUP1 PUSH4 0x2B4C32BE GT PUSH2 0x108 JUMPI DUP1 PUSH4 0x2B4C32BE EQ PUSH2 0x272 JUMPI DUP1 PUSH4 0x361C1995 EQ PUSH2 0x29D JUMPI DUP1 PUSH4 0x3FC15F15 EQ PUSH2 0x2B9 JUMPI DUP1 PUSH4 0x517BD451 EQ PUSH2 0x2E4 JUMPI DUP1 PUSH4 0x5BB47808 EQ PUSH2 0x314 JUMPI DUP1 PUSH4 0x5C80A435 EQ PUSH2 0x33D JUMPI PUSH2 0x14B JUMP JUMPDEST DUP1 PUSH4 0xF08EFE0 EQ PUSH2 0x150 JUMPI DUP1 PUSH4 0x15B12494 EQ PUSH2 0x17B JUMPI DUP1 PUSH4 0x16E7031A EQ PUSH2 0x1A4 JUMPI DUP1 PUSH4 0x202E3740 EQ PUSH2 0x1E1 JUMPI DUP1 PUSH4 0x27CE464E EQ PUSH2 0x20C JUMPI DUP1 PUSH4 0x2A45B250 EQ PUSH2 0x235 JUMPI JUMPDEST PUSH1 0x0 DUP1 REVERT JUMPDEST CALLVALUE DUP1 ISZERO PUSH2 0x15C JUMPI PUSH1 0x0 DUP1 REVERT JUMPDEST POP PUSH2 0x165 PUSH2 0x5A4 JUMP JUMPDEST PUSH1 0x40 MLOAD PUSH2 0x172 SWAP2 SWAP1 PUSH2 0x23E2 JUMP JUMPDEST PUSH1 0x40 MLOAD DUP1 SWAP2 SUB SWAP1 RETURN JUMPDEST CALLVALUE DUP1 ISZERO PUSH2 0x187 JUMPI PUSH1 0x0 DUP1 REVERT JUMPDEST POP PUSH2 0x1A2 PUSH1 0x4 DUP1 CALLDATASIZE SUB DUP2 ADD SWAP1 PUSH2 0x19D SWAP2 SWAP1 PUSH2 0x244F JUMP JUMPDEST PUSH2 0x6C3 JUMP JUMPDEST STOP JUMPDEST CALLVALUE DUP1 ISZERO PUSH2 0x1B0 JUMPI PUSH1 0x0 DUP1 REVERT JUMPDEST POP PUSH2 0x1CB PUSH1 0x4 DUP1 CALLDATASIZE SUB DUP2 ADD SWAP1 PUSH2 0x1C6 SWAP2 SWAP1 PUSH2 0x24A8 JUMP JUMPDEST PUSH2 0x783 JUMP JUMPDEST PUSH1 0x40 MLOAD PUSH2 0x1D8 SWAP2 SWAP1 PUSH2 0x24F0 JUMP JUMPDEST PUSH1 0x40 MLOAD DUP1 SWAP2 SUB SWAP1 RETURN JUMPDEST CALLVALUE DUP1 ISZERO PUSH2 0x1ED JUMPI PUSH1 0x0 DUP1 REVERT JUMPDEST POP PUSH2 0x1F6 PUSH2 0x836 JUMP JUMPDEST PUSH1 0x40 MLOAD PUSH2 0x203 SWAP2 SWAP1 PUSH2 0x2635 JUMP JUMPDEST PUSH1 0x40 MLOAD DUP1 SWAP2 SUB SWAP1 RETURN JUMPDEST CALLVALUE DUP1 ISZERO PUSH2 0x218 JUMPI PUSH1 0x0 DUP1 REVERT JUMPDEST POP PUSH2 0x233 PUSH1 0x4 DUP1 CALLDATASIZE SUB DUP2 ADD SWAP1 PUSH2 0x22E SWAP2 SWAP1 PUSH2 0x244F JUMP JUMPDEST PUSH2 0xB62 JUMP JUMPDEST STOP JUMPDEST CALLVALUE DUP1 ISZERO PUSH2 0x241 JUMPI PUSH1 0x0 DUP1 REVERT JUMPDEST POP PUSH2 0x25C PUSH1 0x4 DUP1 CALLDATASIZE SUB DUP2 ADD SWAP1 PUSH2 0x257 SWAP2 SWAP1 PUSH2 0x24A8 JUMP JUMPDEST PUSH2 0xC22 JUMP JUMPDEST PUSH1 0x40 MLOAD PUSH2 0x269 SWAP2 SWAP1 PUSH2 0x23E2 JUMP JUMPDEST PUSH1 0x40 MLOAD DUP1 SWAP2 SUB SWAP1 RETURN JUMPDEST CALLVALUE DUP1 ISZERO PUSH2 0x27E JUMPI PUSH1 0x0 DUP1 REVERT JUMPDEST POP PUSH2 0x287 PUSH2 0xD5A JUMP JUMPDEST PUSH1 0x40 MLOAD PUSH2 0x294 SWAP2 SWAP1 PUSH2 0x2692 JUMP JUMPDEST PUSH1 0x40 MLOAD DUP1 SWAP2 SUB SWAP1 RETURN JUMPDEST PUSH2 0x2B7 PUSH1 0x4 DUP1 CALLDATASIZE SUB DUP2 ADD SWAP1 PUSH2 0x2B2 SWAP2 SWAP1 PUSH2 0x26AD JUMP JUMPDEST PUSH2 0xD65 JUMP JUMPDEST STOP JUMPDEST CALLVALUE DUP1 ISZERO PUSH2 0x2C5 JUMPI PUSH1 0x0 DUP1 REVERT JUMPDEST POP PUSH2 0x2CE PUSH2 0x1138 JUMP JUMPDEST PUSH1 0x40 MLOAD PUSH2 0x2DB SWAP2 SWAP1 PUSH2 0x274C JUMP JUMPDEST PUSH1 0x40 MLOAD DUP1 SWAP2 SUB SWAP1 RETURN JUMPDEST CALLVALUE DUP1 ISZERO PUSH2 0x2F0 JUMPI PUSH1 0x0 DUP1 REVERT JUMPDEST POP PUSH2 0x2F9 PUSH2 0x115E JUMP JUMPDEST PUSH1 0x40 MLOAD PUSH2 0x30B SWAP7 SWAP6 SWAP5 SWAP4 SWAP3 SWAP2 SWAP1 PUSH2 0x2794 JUMP JUMPDEST PUSH1 0x40 MLOAD DUP1 SWAP2 SUB SWAP1 RETURN JUMPDEST CALLVALUE DUP1 ISZERO PUSH2 0x320 JUMPI PUSH1 0x0 DUP1 REVERT JUMPDEST POP PUSH2 0x33B PUSH1 0x4 DUP1 CALLDATASIZE SUB DUP2 ADD SWAP1 PUSH2 0x336 SWAP2 SWAP1 PUSH2 0x244F JUMP JUMPDEST PUSH2 0x11D5 JUMP JUMPDEST STOP JUMPDEST CALLVALUE DUP1 ISZERO PUSH2 0x349 JUMPI PUSH1 0x0 DUP1 REVERT JUMPDEST POP PUSH2 0x364 PUSH1 0x4 DUP1 CALLDATASIZE SUB DUP2 ADD SWAP1 PUSH2 0x35F SWAP2 SWAP1 PUSH2 0x27F5 JUMP JUMPDEST PUSH2 0x1295 JUMP JUMPDEST PUSH1 0x40 MLOAD PUSH2 0x376 SWAP7 SWAP6 SWAP5 SWAP4 SWAP3 SWAP2 SWAP1 PUSH2 0x2794 JUMP JUMPDEST PUSH1 0x40 MLOAD DUP1 SWAP2 SUB SWAP1 RETURN JUMPDEST CALLVALUE DUP1 ISZERO PUSH2 0x38B JUMPI PUSH1 0x0 DUP1 REVERT JUMPDEST POP PUSH2 0x394 PUSH2 0x132B JUMP JUMPDEST STOP JUMPDEST CALLVALUE DUP1 ISZERO PUSH2 0x3A2 JUMPI PUSH1 0x0 DUP1 REVERT JUMPDEST POP PUSH2 0x3AB PUSH2 0x13B3 JUMP JUMPDEST PUSH1 0x40 MLOAD PUSH2 0x3B8 SWAP2 SWAP1 PUSH2 0x2851 JUMP JUMPDEST PUSH1 0x40 MLOAD DUP1 SWAP2 SUB SWAP1 RETURN JUMPDEST CALLVALUE DUP1 ISZERO PUSH2 0x3CD JUMPI PUSH1 0x0 DUP1 REVERT JUMPDEST POP PUSH2 0x3D6 PUSH2 0x13C6 JUMP JUMPDEST PUSH1 0x40 MLOAD PUSH2 0x3E3 SWAP2 SWAP1 PUSH2 0x287B JUMP JUMPDEST PUSH1 0x40 MLOAD DUP1 SWAP2 SUB SWAP1 RETURN JUMPDEST CALLVALUE DUP1 ISZERO PUSH2 0x3F8 JUMPI PUSH1 0x0 DUP1 REVERT JUMPDEST POP PUSH2 0x413 PUSH1 0x4 DUP1 CALLDATASIZE SUB DUP2 ADD SWAP1 PUSH2 0x40E SWAP2 SWAP1 PUSH2 0x26AD JUMP JUMPDEST PUSH2 0x13F0 JUMP JUMPDEST STOP JUMPDEST CALLVALUE DUP1 ISZERO PUSH2 0x421 JUMPI PUSH1 0x0 DUP1 REVERT JUMPDEST POP PUSH2 0x43C PUSH1 0x4 DUP1 CALLDATASIZE SUB DUP2 ADD SWAP1 PUSH2 0x437 SWAP2 SWAP1 PUSH2 0x27F5 JUMP JUMPDEST PUSH2 0x17A9 JUMP JUMPDEST STOP JUMPDEST CALLVALUE DUP1 ISZERO PUSH2 0x44A JUMPI PUSH1 0x0 DUP1 REVERT JUMPDEST POP PUSH2 0x453 PUSH2 0x1C0A JUMP JUMPDEST PUSH1 0x40 MLOAD PUSH2 0x460 SWAP2 SWAP1 PUSH2 0x2851 JUMP JUMPDEST PUSH1 0x40 MLOAD DUP1 SWAP2 SUB SWAP1 RETURN JUMPDEST CALLVALUE DUP1 ISZERO PUSH2 0x475 JUMPI PUSH1 0x0 DUP1 REVERT JUMPDEST POP PUSH2 0x47E PUSH2 0x1C1D JUMP JUMPDEST PUSH1 0x40 MLOAD PUSH2 0x48B SWAP2 SWAP1 PUSH2 0x28B7 JUMP JUMPDEST PUSH1 0x40 MLOAD DUP1 SWAP2 SUB SWAP1 RETURN JUMPDEST CALLVALUE DUP1 ISZERO PUSH2 0x4A0 JUMPI PUSH1 0x0 DUP1 REVERT JUMPDEST POP PUSH2 0x4BB PUSH1 0x4 DUP1 CALLDATASIZE SUB DUP2 ADD SWAP1 PUSH2 0x4B6 SWAP2 SWAP1 PUSH2 0x24A8 JUMP JUMPDEST PUSH2 0x1C43 JUMP JUMPDEST PUSH1 0x40 MLOAD PUSH2 0x4C8 SWAP2 SWAP1 PUSH2 0x23E2 JUMP JUMPDEST PUSH1 0x40 MLOAD DUP1 SWAP2 SUB SWAP1 RETURN JUMPDEST CALLVALUE DUP1 ISZERO PUSH2 0x4DD JUMPI PUSH1 0x0 DUP1 REVERT JUMPDEST POP PUSH2 0x4F8 PUSH1 0x4 DUP1 CALLDATASIZE SUB DUP2 ADD SWAP1 PUSH2 0x4F3 SWAP2 SWAP1 PUSH2 0x24A8 JUMP JUMPDEST PUSH2 0x1D75 JUMP JUMPDEST PUSH1 0x40 MLOAD PUSH2 0x505 SWAP2 SWAP1 PUSH2 0x287B JUMP JUMPDEST PUSH1 0x40 MLOAD DUP1 SWAP2 SUB SWAP1 RETURN JUMPDEST CALLVALUE DUP1 ISZERO PUSH2 0x51A JUMPI PUSH1 0x0 DUP1 REVERT JUMPDEST POP PUSH2 0x535 PUSH1 0x4 DUP1 CALLDATASIZE SUB DUP2 ADD SWAP1 PUSH2 0x530 SWAP2 SWAP1 PUSH2 0x244F JUMP JUMPDEST PUSH2 0x1E60 JUMP JUMPDEST STOP JUMPDEST CALLVALUE DUP1 ISZERO PUSH2 0x543 JUMPI PUSH1 0x0 DUP1 REVERT JUMPDEST POP PUSH2 0x54C PUSH2 0x1F57 JUMP JUMPDEST PUSH1 0x40 MLOAD PUSH2 0x559 SWAP2 SWAP1 PUSH2 0x28F3 JUMP JUMPDEST PUSH1 0x40 MLOAD DUP1 SWAP2 SUB SWAP1 RETURN JUMPDEST CALLVALUE DUP1 ISZERO PUSH2 0x56E JUMPI PUSH1 0x0 DUP1 REVERT JUMPDEST POP PUSH2 0x589 PUSH1 0x4 DUP1 CALLDATASIZE SUB DUP2 ADD SWAP1 PUSH2 0x584 SWAP2 SWAP1 PUSH2 0x24A8 JUMP JUMPDEST PUSH2 0x1F7D JUMP JUMPDEST PUSH1 0x40 MLOAD PUSH2 0x59B SWAP7 SWAP6 SWAP5 SWAP4 SWAP3 SWAP2 SWAP1 PUSH2 0x2794 JUMP JUMPDEST PUSH1 0x40 MLOAD DUP1 SWAP2 SUB SWAP1 RETURN JUMPDEST PUSH2 0x5AC PUSH2 0x2222 JUMP JUMPDEST PUSH1 0x1 PUSH1 0x40 MLOAD DUP1 PUSH1 0xC0 ADD PUSH1 0x40 MSTORE SWAP1 DUP2 PUSH1 0x0 DUP3 ADD SLOAD DUP2 MSTORE PUSH1 0x20 ADD PUSH1 0x1 DUP3 ADD SLOAD DUP2 MSTORE PUSH1 0x20 ADD PUSH1 0x2 DUP3 ADD PUSH1 0x0 SWAP1 SLOAD SWAP1 PUSH2 0x100 EXP SWAP1 DIV PUSH20 0xFFFFFFFFFFFFFFFFFFFFFFFFFFFFFFFFFFFFFFFF AND PUSH20 0xFFFFFFFFFFFFFFFFFFFFFFFFFFFFFFFFFFFFFFFF AND PUSH20 0xFFFFFFFFFFFFFFFFFFFFFFFFFFFFFFFFFFFFFFFF AND DUP2 MSTORE PUSH1 0x20 ADD PUSH1 0x3 DUP3 ADD PUSH1 0x0 SWAP1 SLOAD SWAP1 PUSH2 0x100 EXP SWAP1 DIV PUSH20 0xFFFFFFFFFFFFFFFFFFFFFFFFFFFFFFFFFFFFFFFF AND PUSH20 0xFFFFFFFFFFFFFFFFFFFFFFFFFFFFFFFFFFFFFFFF AND PUSH20 0xFFFFFFFFFFFFFFFFFFFFFFFFFFFFFFFFFFFFFFFF AND DUP2 MSTORE PUSH1 0x20 ADD PUSH1 0x4 DUP3 ADD SLOAD DUP2 MSTORE PUSH1 0x20 ADD PUSH1 0x5 DUP3 ADD PUSH1 0x0 SWAP1 SLOAD SWAP1 PUSH2 0x100 EXP SWAP1 DIV PUSH1 0xFF AND PUSH1 0x1 DUP2 GT ISZERO PUSH2 0x6A8 JUMPI PUSH2 0x6A7 PUSH2 0x22F0 JUMP JUMPDEST JUMPDEST PUSH1 0x1 DUP2 GT ISZERO PUSH2 0x6BA JUMPI PUSH2 0x6B9 PUSH2 0x22F0 JUMP JUMPDEST JUMPDEST DUP2 MSTORE POP POP SWAP1 POP SWAP1 JUMP JUMPDEST PUSH2 0x6CB PUSH2 0x2006 JUMP JUMPDEST PUSH20 0xFFFFFFFFFFFFFFFFFFFFFFFFFFFFFFFFFFFFFFFF AND PUSH2 0x6E9 PUSH2 0x13C6 JUMP JUMPDEST PUSH20 0xFFFFFFFFFFFFFFFFFFFFFFFFFFFFFFFFFFFFFFFF AND EQ PUSH2 0x73F JUMPI PUSH1 0x40 MLOAD PUSH32 0x8C379A000000000000000000000000000000000000000000000000000000000 DUP2 MSTORE PUSH1 0x4 ADD PUSH2 0x736 SWAP1 PUSH2 0x296B JUMP JUMPDEST PUSH1 0x40 MLOAD DUP1 SWAP2 SUB SWAP1 REVERT JUMPDEST DUP1 PUSH1 0xB PUSH1 0x0 PUSH2 0x100 EXP DUP2 SLOAD DUP2 PUSH20 0xFFFFFFFFFFFFFFFFFFFFFFFFFFFFFFFFFFFFFFFF MUL NOT AND SWAP1 DUP4 PUSH20 0xFFFFFFFFFFFFFFFFFFFFFFFFFFFFFFFFFFFFFFFF AND MUL OR SWAP1 SSTORE POP POP JUMP JUMPDEST PUSH1 0x0 DUP1 PUSH1 0xA PUSH1 0x0 SWAP1 SLOAD SWAP1 PUSH2 0x100 EXP SWAP1 DIV PUSH20 0xFFFFFFFFFFFFFFFFFFFFFFFFFFFFFFFFFFFFFFFF AND PUSH20 0xFFFFFFFFFFFFFFFFFFFFFFFFFFFFFFFFFFFFFFFF AND PUSH4 0xD30BDAC9 DUP5 PUSH1 0x40 MLOAD DUP3 PUSH4 0xFFFFFFFF AND PUSH1 0xE0 SHL DUP2 MSTORE PUSH1 0x4 ADD PUSH2 0x7E1 SWAP2 SWAP1 PUSH2 0x298B JUMP JUMPDEST PUSH1 0x0 PUSH1 0x40 MLOAD DUP1 DUP4 SUB DUP2 DUP7 GAS STATICCALL ISZERO DUP1 ISZERO PUSH2 0x7FE JUMPI RETURNDATASIZE PUSH1 0x0 DUP1 RETURNDATACOPY RETURNDATASIZE PUSH1 0x0 REVERT JUMPDEST POP POP POP POP PUSH1 0x40 MLOAD RETURNDATASIZE PUSH1 0x0 DUP3 RETURNDATACOPY RETURNDATASIZE PUSH1 0x1F NOT PUSH1 0x1F DUP3 ADD AND DUP3 ADD DUP1 PUSH1 0x40 MSTORE POP DUP2 ADD SWAP1 PUSH2 0x827 SWAP2 SWAP1 PUSH2 0x2C34 JUMP JUMPDEST SWAP1 POP DUP1 PUSH1 0x80 ADD MLOAD SWAP2 POP POP SWAP2 SWAP1 POP JUMP JUMPDEST PUSH1 0x60 PUSH1 0x0 PUSH2 0x844 PUSH1 0xD PUSH2 0x200E JUMP JUMPDEST SWAP1 POP PUSH1 0x0 DUP1 PUSH1 0x0 JUMPDEST DUP4 DUP2 LT ISZERO PUSH2 0x8EC JUMPI CALLER PUSH20 0xFFFFFFFFFFFFFFFFFFFFFFFFFFFFFFFFFFFFFFFF AND PUSH1 0xF PUSH1 0x0 PUSH1 0x1 DUP5 PUSH2 0x87C SWAP2 SWAP1 PUSH2 0x2CAC JUMP JUMPDEST DUP2 MSTORE PUSH1 0x20 ADD SWAP1 DUP2 MSTORE PUSH1 0x20 ADD PUSH1 0x0 KECCAK256 PUSH1 0x3 ADD PUSH1 0x0 SWAP1 SLOAD SWAP1 PUSH2 0x100 EXP SWAP1 DIV PUSH20 0xFFFFFFFFFFFFFFFFFFFFFFFFFFFFFFFFFFFFFFFF AND PUSH20 0xFFFFFFFFFFFFFFFFFFFFFFFFFFFFFFFFFFFFFFFF AND SUB PUSH2 0x8D9 JUMPI PUSH1 0x1 DUP4 PUSH2 0x8D6 SWAP2 SWAP1 PUSH2 0x2CAC JUMP JUMPDEST SWAP3 POP JUMPDEST DUP1 DUP1 PUSH2 0x8E4 SWAP1 PUSH2 0x2D02 JUMP JUMPDEST SWAP2 POP POP PUSH2 0x84C JUMP JUMPDEST POP PUSH1 0x0 DUP3 PUSH8 0xFFFFFFFFFFFFFFFF DUP2 GT ISZERO PUSH2 0x909 JUMPI PUSH2 0x908 PUSH2 0x29BC JUMP JUMPDEST JUMPDEST PUSH1 0x40 MLOAD SWAP1 DUP1 DUP3 MSTORE DUP1 PUSH1 0x20 MUL PUSH1 0x20 ADD DUP3 ADD PUSH1 0x40 MSTORE DUP1 ISZERO PUSH2 0x942 JUMPI DUP2 PUSH1 0x20 ADD JUMPDEST PUSH2 0x92F PUSH2 0x2222 JUMP JUMPDEST DUP2 MSTORE PUSH1 0x20 ADD SWAP1 PUSH1 0x1 SWAP1 SUB SWAP1 DUP2 PUSH2 0x927 JUMPI SWAP1 POP JUMPDEST POP SWAP1 POP PUSH1 0x0 JUMPDEST DUP5 DUP2 LT ISZERO PUSH2 0xB57 JUMPI CALLER PUSH20 0xFFFFFFFFFFFFFFFFFFFFFFFFFFFFFFFFFFFFFFFF AND PUSH1 0xF PUSH1 0x0 PUSH1 0x1 DUP5 PUSH2 0x978 SWAP2 SWAP1 PUSH2 0x2CAC JUMP JUMPDEST DUP2 MSTORE PUSH1 0x20 ADD SWAP1 DUP2 MSTORE PUSH1 0x20 ADD PUSH1 0x0 KECCAK256 PUSH1 0x3 ADD PUSH1 0x0 SWAP1 SLOAD SWAP1 PUSH2 0x100 EXP SWAP1 DIV PUSH20 0xFFFFFFFFFFFFFFFFFFFFFFFFFFFFFFFFFFFFFFFF AND PUSH20 0xFFFFFFFFFFFFFFFFFFFFFFFFFFFFFFFFFFFFFFFF AND SUB PUSH2 0xB44 JUMPI PUSH1 0x0 PUSH1 0xF PUSH1 0x0 PUSH1 0x1 DUP5 PUSH2 0x9D8 SWAP2 SWAP1 PUSH2 0x2CAC JUMP JUMPDEST DUP2 MSTORE PUSH1 0x20 ADD SWAP1 DUP2 MSTORE PUSH1 0x20 ADD PUSH1 0x0 KECCAK256 PUSH1 0x0 ADD SLOAD SWAP1 POP PUSH1 0x0 PUSH1 0xF PUSH1 0x0 DUP4 DUP2 MSTORE PUSH1 0x20 ADD SWAP1 DUP2 MSTORE PUSH1 0x20 ADD PUSH1 0x0 KECCAK256 SWAP1 POP DUP1 PUSH1 0x40 MLOAD DUP1 PUSH1 0xC0 ADD PUSH1 0x40 MSTORE SWAP1 DUP2 PUSH1 0x0 DUP3 ADD SLOAD DUP2 MSTORE PUSH1 0x20 ADD PUSH1 0x1 DUP3 ADD SLOAD DUP2 MSTORE PUSH1 0x20 ADD PUSH1 0x2 DUP3 ADD PUSH1 0x0 SWAP1 SLOAD SWAP1 PUSH2 0x100 EXP SWAP1 DIV PUSH20 0xFFFFFFFFFFFFFFFFFFFFFFFFFFFFFFFFFFFFFFFF AND PUSH20 0xFFFFFFFFFFFFFFFFFFFFFFFFFFFFFFFFFFFFFFFF AND PUSH20 0xFFFFFFFFFFFFFFFFFFFFFFFFFFFFFFFFFFFFFFFF AND DUP2 MSTORE PUSH1 0x20 ADD PUSH1 0x3 DUP3 ADD PUSH1 0x0 SWAP1 SLOAD SWAP1 PUSH2 0x100 EXP SWAP1 DIV PUSH20 0xFFFFFFFFFFFFFFFFFFFFFFFFFFFFFFFFFFFFFFFF AND PUSH20 0xFFFFFFFFFFFFFFFFFFFFFFFFFFFFFFFFFFFFFFFF AND PUSH20 0xFFFFFFFFFFFFFFFFFFFFFFFFFFFFFFFFFFFFFFFF AND DUP2 MSTORE PUSH1 0x20 ADD PUSH1 0x4 DUP3 ADD SLOAD DUP2 MSTORE PUSH1 0x20 ADD PUSH1 0x5 DUP3 ADD PUSH1 0x0 SWAP1 SLOAD SWAP1 PUSH2 0x100 EXP SWAP1 DIV PUSH1 0xFF AND PUSH1 0x1 DUP2 GT ISZERO PUSH2 0xAFE JUMPI PUSH2 0xAFD PUSH2 0x22F0 JUMP JUMPDEST JUMPDEST PUSH1 0x1 DUP2 GT ISZERO PUSH2 0xB10 JUMPI PUSH2 0xB0F PUSH2 0x22F0 JUMP JUMPDEST JUMPDEST DUP2 MSTORE POP POP DUP5 DUP7 DUP2 MLOAD DUP2 LT PUSH2 0xB27 JUMPI PUSH2 0xB26 PUSH2 0x2D4A JUMP JUMPDEST JUMPDEST PUSH1 0x20 MUL PUSH1 0x20 ADD ADD DUP2 SWAP1 MSTORE POP PUSH1 0x1 DUP6 PUSH2 0xB3F SWAP2 SWAP1 PUSH2 0x2CAC JUMP JUMPDEST SWAP5 POP POP POP JUMPDEST DUP1 DUP1 PUSH2 0xB4F SWAP1 PUSH2 0x2D02 JUMP JUMPDEST SWAP2 POP POP PUSH2 0x948 JUMP JUMPDEST POP DUP1 SWAP5 POP POP POP POP POP SWAP1 JUMP JUMPDEST PUSH2 0xB6A PUSH2 0x2006 JUMP JUMPDEST PUSH20 0xFFFFFFFFFFFFFFFFFFFFFFFFFFFFFFFFFFFFFFFF AND PUSH2 0xB88 PUSH2 0x13C6 JUMP JUMPDEST PUSH20 0xFFFFFFFFFFFFFFFFFFFFFFFFFFFFFFFFFFFFFFFF AND EQ PUSH2 0xBDE JUMPI PUSH1 0x40 MLOAD PUSH32 0x8C379A000000000000000000000000000000000000000000000000000000000 DUP2 MSTORE PUSH1 0x4 ADD PUSH2 0xBD5 SWAP1 PUSH2 0x296B JUMP JUMPDEST PUSH1 0x40 MLOAD DUP1 SWAP2 SUB SWAP1 REVERT JUMPDEST DUP1 PUSH1 0x9 PUSH1 0x0 PUSH2 0x100 EXP DUP2 SLOAD DUP2 PUSH20 0xFFFFFFFFFFFFFFFFFFFFFFFFFFFFFFFFFFFFFFFF MUL NOT AND SWAP1 DUP4 PUSH20 0xFFFFFFFFFFFFFFFFFFFFFFFFFFFFFFFFFFFFFFFF AND MUL OR SWAP1 SSTORE POP POP JUMP JUMPDEST PUSH2 0xC2A PUSH2 0x2222 JUMP JUMPDEST PUSH1 0x0 PUSH1 0xF PUSH1 0x0 DUP5 DUP2 MSTORE PUSH1 0x20 ADD SWAP1 DUP2 MSTORE PUSH1 0x20 ADD PUSH1 0x0 KECCAK256 PUSH1 0x40 MLOAD DUP1 PUSH1 0xC0 ADD PUSH1 0x40 MSTORE SWAP1 DUP2 PUSH1 0x0 DUP3 ADD SLOAD DUP2 MSTORE PUSH1 0x20 ADD PUSH1 0x1 DUP3 ADD SLOAD DUP2 MSTORE PUSH1 0x20 ADD PUSH1 0x2 DUP3 ADD PUSH1 0x0 SWAP1 SLOAD SWAP1 PUSH2 0x100 EXP SWAP1 DIV PUSH20 0xFFFFFFFFFFFFFFFFFFFFFFFFFFFFFFFFFFFFFFFF AND PUSH20 0xFFFFFFFFFFFFFFFFFFFFFFFFFFFFFFFFFFFFFFFF AND PUSH20 0xFFFFFFFFFFFFFFFFFFFFFFFFFFFFFFFFFFFFFFFF AND DUP2 MSTORE PUSH1 0x20 ADD PUSH1 0x3 DUP3 ADD PUSH1 0x0 SWAP1 SLOAD SWAP1 PUSH2 0x100 EXP SWAP1 DIV PUSH20 0xFFFFFFFFFFFFFFFFFFFFFFFFFFFFFFFFFFFFFFFF AND PUSH20 0xFFFFFFFFFFFFFFFFFFFFFFFFFFFFFFFFFFFFFFFF AND PUSH20 0xFFFFFFFFFFFFFFFFFFFFFFFFFFFFFFFFFFFFFFFF AND DUP2 MSTORE PUSH1 0x20 ADD PUSH1 0x4 DUP3 ADD SLOAD DUP2 MSTORE PUSH1 0x20 ADD PUSH1 0x5 DUP3 ADD PUSH1 0x0 SWAP1 SLOAD SWAP1 PUSH2 0x100 EXP SWAP1 DIV PUSH1 0xFF AND PUSH1 0x1 DUP2 GT ISZERO PUSH2 0xD39 JUMPI PUSH2 0xD38 PUSH2 0x22F0 JUMP JUMPDEST JUMPDEST PUSH1 0x1 DUP2 GT ISZERO PUSH2 0xD4B JUMPI PUSH2 0xD4A PUSH2 0x22F0 JUMP JUMPDEST JUMPDEST DUP2 MSTORE POP POP SWAP1 POP DUP1 SWAP2 POP POP SWAP2 SWAP1 POP JUMP JUMPDEST PUSH4 0x80AC58CD PUSH1 0xE0 SHL DUP2 JUMP JUMPDEST PUSH1 0x2 PUSH1 0x0 SLOAD SUB PUSH2 0xDAA JUMPI PUSH1 0x40 MLOAD PUSH32 0x8C379A000000000000000000000000000000000000000000000000000000000 DUP2 MSTORE PUSH1 0x4 ADD PUSH2 0xDA1 SWAP1 PUSH2 0x2DC5 JUMP JUMPDEST PUSH1 0x40 MLOAD DUP1 SWAP2 SUB SWAP1 REVERT JUMPDEST PUSH1 0x2 PUSH1 0x0 DUP2 SWAP1 SSTORE POP PUSH1 0x0 DUP2 GT PUSH2 0xDF5 JUMPI PUSH1 0x40 MLOAD PUSH32 0x8C379A000000000000000000000000000000000000000000000000000000000 DUP2 MSTORE PUSH1 0x4 ADD PUSH2 0xDEC SWAP1 PUSH2 0x2E31 JUMP JUMPDEST PUSH1 0x40 MLOAD DUP1 SWAP2 SUB SWAP1 REVERT JUMPDEST PUSH1 0x0 PUSH1 0xA PUSH1 0x0 SWAP1 SLOAD SWAP1 PUSH2 0x100 EXP SWAP1 DIV PUSH20 0xFFFFFFFFFFFFFFFFFFFFFFFFFFFFFFFFFFFFFFFF AND PUSH20 0xFFFFFFFFFFFFFFFFFFFFFFFFFFFFFFFFFFFFFFFF AND PUSH4 0xD30BDAC9 DUP5 PUSH1 0x40 MLOAD DUP3 PUSH4 0xFFFFFFFF AND PUSH1 0xE0 SHL DUP2 MSTORE PUSH1 0x4 ADD PUSH2 0xE52 SWAP2 SWAP1 PUSH2 0x298B JUMP JUMPDEST PUSH1 0x0 PUSH1 0x40 MLOAD DUP1 DUP4 SUB DUP2 DUP7 GAS STATICCALL ISZERO DUP1 ISZERO PUSH2 0xE6F JUMPI RETURNDATASIZE PUSH1 0x0 DUP1 RETURNDATACOPY RETURNDATASIZE PUSH1 0x0 REVERT JUMPDEST POP POP POP POP PUSH1 0x40 MLOAD RETURNDATASIZE PUSH1 0x0 DUP3 RETURNDATACOPY RETURNDATASIZE PUSH1 0x1F NOT PUSH1 0x1F DUP3 ADD AND DUP3 ADD DUP1 PUSH1 0x40 MSTORE POP DUP2 ADD SWAP1 PUSH2 0xE98 SWAP2 SWAP1 PUSH2 0x2C34 JUMP JUMPDEST SWAP1 POP PUSH1 0x0 ISZERO ISZERO DUP2 PUSH1 0x80 ADD MLOAD ISZERO ISZERO EQ PUSH2 0xEE5 JUMPI PUSH1 0x40 MLOAD PUSH32 0x8C379A000000000000000000000000000000000000000000000000000000000 DUP2 MSTORE PUSH1 0x4 ADD PUSH2 0xEDC SWAP1 PUSH2 0x2E9D JUMP JUMPDEST PUSH1 0x40 MLOAD DUP1 SWAP2 SUB SWAP1 REVERT JUMPDEST PUSH2 0xEEF PUSH1 0xD PUSH2 0x201C JUMP JUMPDEST PUSH1 0x0 PUSH2 0xEFB PUSH1 0xD PUSH2 0x200E JUMP JUMPDEST SWAP1 POP PUSH1 0x40 MLOAD DUP1 PUSH1 0xC0 ADD PUSH1 0x40 MSTORE DUP1 DUP3 DUP2 MSTORE PUSH1 0x20 ADD DUP6 DUP2 MSTORE PUSH1 0x20 ADD CALLER PUSH20 0xFFFFFFFFFFFFFFFFFFFFFFFFFFFFFFFFFFFFFFFF AND DUP2 MSTORE PUSH1 0x20 ADD PUSH1 0x0 PUSH20 0xFFFFFFFFFFFFFFFFFFFFFFFFFFFFFFFFFFFFFFFF AND DUP2 MSTORE PUSH1 0x20 ADD DUP5 DUP2 MSTORE PUSH1 0x20 ADD PUSH1 0x1 DUP1 DUP2 GT ISZERO PUSH2 0xF66 JUMPI PUSH2 0xF65 PUSH2 0x22F0 JUMP JUMPDEST JUMPDEST DUP2 MSTORE POP PUSH1 0xF PUSH1 0x0 DUP4 DUP2 MSTORE PUSH1 0x20 ADD SWAP1 DUP2 MSTORE PUSH1 0x20 ADD PUSH1 0x0 KECCAK256 PUSH1 0x0 DUP3 ADD MLOAD DUP2 PUSH1 0x0 ADD SSTORE PUSH1 0x20 DUP3 ADD MLOAD DUP2 PUSH1 0x1 ADD SSTORE PUSH1 0x40 DUP3 ADD MLOAD DUP2 PUSH1 0x2 ADD PUSH1 0x0 PUSH2 0x100 EXP DUP2 SLOAD DUP2 PUSH20 0xFFFFFFFFFFFFFFFFFFFFFFFFFFFFFFFFFFFFFFFF MUL NOT AND SWAP1 DUP4 PUSH20 0xFFFFFFFFFFFFFFFFFFFFFFFFFFFFFFFFFFFFFFFF AND MUL OR SWAP1 SSTORE POP PUSH1 0x60 DUP3 ADD MLOAD DUP2 PUSH1 0x3 ADD PUSH1 0x0 PUSH2 0x100 EXP DUP2 SLOAD DUP2 PUSH20 0xFFFFFFFFFFFFFFFFFFFFFFFFFFFFFFFFFFFFFFFF MUL NOT AND SWAP1 DUP4 PUSH20 0xFFFFFFFFFFFFFFFFFFFFFFFFFFFFFFFFFFFFFFFF AND MUL OR SWAP1 SSTORE POP PUSH1 0x80 DUP3 ADD MLOAD DUP2 PUSH1 0x4 ADD SSTORE PUSH1 0xA0 DUP3 ADD MLOAD DUP2 PUSH1 0x5 ADD PUSH1 0x0 PUSH2 0x100 EXP DUP2 SLOAD DUP2 PUSH1 0xFF MUL NOT AND SWAP1 DUP4 PUSH1 0x1 DUP2 GT ISZERO PUSH2 0x1053 JUMPI PUSH2 0x1052 PUSH2 0x22F0 JUMP JUMPDEST JUMPDEST MUL OR SWAP1 SSTORE POP SWAP1 POP POP PUSH1 0xB PUSH1 0x0 SWAP1 SLOAD SWAP1 PUSH2 0x100 EXP SWAP1 DIV PUSH20 0xFFFFFFFFFFFFFFFFFFFFFFFFFFFFFFFFFFFFFFFF AND PUSH20 0xFFFFFFFFFFFFFFFFFFFFFFFFFFFFFFFFFFFFFFFF AND PUSH4 0x23B872DD CALLER ADDRESS DUP8 PUSH1 0x40 MLOAD DUP5 PUSH4 0xFFFFFFFF AND PUSH1 0xE0 SHL DUP2 MSTORE PUSH1 0x4 ADD PUSH2 0x10BA SWAP4 SWAP3 SWAP2 SWAP1 PUSH2 0x2EBD JUMP JUMPDEST PUSH1 0x0 PUSH1 0x40 MLOAD DUP1 DUP4 SUB DUP2 PUSH1 0x0 DUP8 DUP1 EXTCODESIZE ISZERO DUP1 ISZERO PUSH2 0x10D4 JUMPI PUSH1 0x0 DUP1 REVERT JUMPDEST POP GAS CALL ISZERO DUP1 ISZERO PUSH2 0x10E8 JUMPI RETURNDATASIZE PUSH1 0x0 DUP1 RETURNDATACOPY RETURNDATASIZE PUSH1 0x0 REVERT JUMPDEST POP POP POP POP DUP4 DUP2 PUSH32 0x38690A554FFBC44EB6A75016E47D517D0DB8E6C37494ADC68D6D0B2C66F0AB21 CALLER PUSH1 0x0 DUP8 PUSH1 0x40 MLOAD PUSH2 0x1122 SWAP4 SWAP3 SWAP2 SWAP1 PUSH2 0x2EBD JUMP JUMPDEST PUSH1 0x40 MLOAD DUP1 SWAP2 SUB SWAP1 LOG3 POP POP PUSH1 0x1 PUSH1 0x0 DUP2 SWAP1 SSTORE POP POP POP JUMP JUMPDEST PUSH1 0x9 PUSH1 0x0 SWAP1 SLOAD SWAP1 PUSH2 0x100 EXP SWAP1 DIV PUSH20 0xFFFFFFFFFFFFFFFFFFFFFFFFFFFFFFFFFFFFFFFF AND DUP2 JUMP JUMPDEST PUSH1 0x1 DUP1 PUSH1 0x0 ADD SLOAD SWAP1 DUP1 PUSH1 0x1 ADD SLOAD SWAP1 DUP1 PUSH1 0x2 ADD PUSH1 0x0 SWAP1 SLOAD SWAP1 PUSH2 0x100 EXP SWAP1 DIV PUSH20 0xFFFFFFFFFFFFFFFFFFFFFFFFFFFFFFFFFFFFFFFF AND SWAP1 DUP1 PUSH1 0x3 ADD PUSH1 0x0 SWAP1 SLOAD SWAP1 PUSH2 0x100 EXP SWAP1 DIV PUSH20 0xFFFFFFFFFFFFFFFFFFFFFFFFFFFFFFFFFFFFFFFF AND SWAP1 DUP1 PUSH1 0x4 ADD SLOAD SWAP1 DUP1 PUSH1 0x5 ADD PUSH1 0x0 SWAP1 SLOAD SWAP1 PUSH2 0x100 EXP SWAP1 DIV PUSH1 0xFF AND SWAP1 POP DUP7 JUMP JUMPDEST PUSH2 0x11DD PUSH2 0x2006 JUMP JUMPDEST PUSH20 0xFFFFFFFFFFFFFFFFFFFFFFFFFFFFFFFFFFFFFFFF AND PUSH2 0x11FB PUSH2 0x13C6 JUMP JUMPDEST PUSH20 0xFFFFFFFFFFFFFFFFFFFFFFFFFFFFFFFFFFFFFFFF AND EQ PUSH2 0x1251 JUMPI PUSH1 0x40 MLOAD PUSH32 0x8C379A000000000000000000000000000000000000000000000000000000000 DUP2 MSTORE PUSH1 0x4 ADD PUSH2 0x1248 SWAP1 PUSH2 0x296B JUMP JUMPDEST PUSH1 0x40 MLOAD DUP1 SWAP2 SUB SWAP1 REVERT JUMPDEST DUP1 PUSH1 0xA PUSH1 0x0 PUSH2 0x100 EXP DUP2 SLOAD DUP2 PUSH20 0xFFFFFFFFFFFFFFFFFFFFFFFFFFFFFFFFFFFFFFFF MUL NOT AND SWAP1 DUP4 PUSH20 0xFFFFFFFFFFFFFFFFFFFFFFFFFFFFFFFFFFFFFFFF AND MUL OR SWAP1 SSTORE POP POP JUMP JUMPDEST PUSH1 0x8 PUSH1 0x20 MSTORE DUP2 PUSH1 0x0 MSTORE PUSH1 0x40 PUSH1 0x0 KECCAK256 PUSH1 0x20 MSTORE DUP1 PUSH1 0x0 MSTORE PUSH1 0x40 PUSH1 0x0 KECCAK256 PUSH1 0x0 SWAP2 POP SWAP2 POP POP DUP1 PUSH1 0x0 ADD SLOAD SWAP1 DUP1 PUSH1 0x1 ADD SLOAD SWAP1 DUP1 PUSH1 0x2 ADD PUSH1 0x0 SWAP1 SLOAD SWAP1 PUSH2 0x100 EXP SWAP1 DIV PUSH20 0xFFFFFFFFFFFFFFFFFFFFFFFFFFFFFFFFFFFFFFFF AND SWAP1 DUP1 PUSH1 0x3 ADD PUSH1 0x0 SWAP1 SLOAD SWAP1 PUSH2 0x100 EXP SWAP1 DIV PUSH20 0xFFFFFFFFFFFFFFFFFFFFFFFFFFFFFFFFFFFFFFFF AND SWAP1 DUP1 PUSH1 0x4 ADD SLOAD SWAP1 DUP1 PUSH1 0x5 ADD PUSH1 0x0 SWAP1 SLOAD SWAP1 PUSH2 0x100 EXP SWAP1 DIV PUSH1 0xFF AND SWAP1 POP DUP7 JUMP JUMPDEST PUSH2 0x1333 PUSH2 0x2006 JUMP JUMPDEST PUSH20 0xFFFFFFFFFFFFFFFFFFFFFFFFFFFFFFFFFFFFFFFF AND PUSH2 0x1351 PUSH2 0x13C6 JUMP JUMPDEST PUSH20 0xFFFFFFFFFFFFFFFFFFFFFFFFFFFFFFFFFFFFFFFF AND EQ PUSH2 0x13A7 JUMPI PUSH1 0x40 MLOAD PUSH32 0x8C379A000000000000000000000000000000000000000000000000000000000 DUP2 MSTORE PUSH1 0x4 ADD PUSH2 0x139E SWAP1 PUSH2 0x296B JUMP JUMPDEST PUSH1 0x40 MLOAD DUP1 SWAP2 SUB SWAP1 REVERT JUMPDEST PUSH2 0x13B1 PUSH1 0x0 PUSH2 0x2032 JUMP JUMPDEST JUMP JUMPDEST PUSH1 0xB PUSH1 0x14 SWAP1 SLOAD SWAP1 PUSH2 0x100 EXP SWAP1 DIV PUSH1 0xFF AND DUP2 JUMP JUMPDEST PUSH1 0x0 PUSH1 0xC PUSH1 0x0 SWAP1 SLOAD SWAP1 PUSH2 0x100 EXP SWAP1 DIV PUSH20 0xFFFFFFFFFFFFFFFFFFFFFFFFFFFFFFFFFFFFFFFF AND SWAP1 POP SWAP1 JUMP JUMPDEST PUSH1 0x2 PUSH1 0x0 SLOAD SUB PUSH2 0x1435 JUMPI PUSH1 0x40 MLOAD PUSH32 0x8C379A000000000000000000000000000000000000000000000000000000000 DUP2 MSTORE PUSH1 0x4 ADD PUSH2 0x142C SWAP1 PUSH2 0x2DC5 JUMP JUMPDEST PUSH1 0x40 MLOAD DUP1 SWAP2 SUB SWAP1 REVERT JUMPDEST PUSH1 0x2 PUSH1 0x0 DUP2 SWAP1 SSTORE POP PUSH1 0x0 PUSH1 0xF PUSH1 0x0 DUP5 DUP2 MSTORE PUSH1 0x20 ADD SWAP1 DUP2 MSTORE PUSH1 0x20 ADD PUSH1 0x0 KECCAK256 PUSH1 0x4 ADD SLOAD SWAP1 POP PUSH1 0x0 PUSH1 0xF PUSH1 0x0 DUP6 DUP2 MSTORE PUSH1 0x20 ADD SWAP1 DUP2 MSTORE PUSH1 0x20 ADD PUSH1 0x0 KECCAK256 PUSH1 0x1 ADD SLOAD SWAP1 POP DUP2 DUP4 EQ PUSH2 0x14B5 JUMPI PUSH1 0x40 MLOAD PUSH32 0x8C379A000000000000000000000000000000000000000000000000000000000 DUP2 MSTORE PUSH1 0x4 ADD PUSH2 0x14AC SWAP1 PUSH2 0x2F66 JUMP JUMPDEST PUSH1 0x40 MLOAD DUP1 SWAP2 SUB SWAP1 REVERT JUMPDEST PUSH1 0x9 PUSH1 0x0 SWAP1 SLOAD SWAP1 PUSH2 0x100 EXP SWAP1 DIV PUSH20 0xFFFFFFFFFFFFFFFFFFFFFFFFFFFFFFFFFFFFFFFF AND PUSH20 0xFFFFFFFFFFFFFFFFFFFFFFFFFFFFFFFFFFFFFFFF AND PUSH4 0x23B872DD CALLER PUSH1 0xF PUSH1 0x0 DUP9 DUP2 MSTORE PUSH1 0x20 ADD SWAP1 DUP2 MSTORE PUSH1 0x20 ADD PUSH1 0x0 KECCAK256 PUSH1 0x2 ADD PUSH1 0x0 SWAP1 SLOAD SWAP1 PUSH2 0x100 EXP SWAP1 DIV PUSH20 0xFFFFFFFFFFFFFFFFFFFFFFFFFFFFFFFFFFFFFFFF AND DUP7 PUSH1 0x40 MLOAD DUP5 PUSH4 0xFFFFFFFF AND PUSH1 0xE0 SHL DUP2 MSTORE PUSH1 0x4 ADD PUSH2 0x154A SWAP4 SWAP3 SWAP2 SWAP1 PUSH2 0x2FA7 JUMP JUMPDEST PUSH1 0x20 PUSH1 0x40 MLOAD DUP1 DUP4 SUB DUP2 PUSH1 0x0 DUP8 GAS CALL ISZERO DUP1 ISZERO PUSH2 0x1569 JUMPI RETURNDATASIZE PUSH1 0x0 DUP1 RETURNDATACOPY RETURNDATASIZE PUSH1 0x0 REVERT JUMPDEST POP POP POP POP PUSH1 0x40 MLOAD RETURNDATASIZE PUSH1 0x1F NOT PUSH1 0x1F DUP3 ADD AND DUP3 ADD DUP1 PUSH1 0x40 MSTORE POP DUP2 ADD SWAP1 PUSH2 0x158D SWAP2 SWAP1 PUSH2 0x2FDE JUMP JUMPDEST POP PUSH1 0xB PUSH1 0x0 SWAP1 SLOAD SWAP1 PUSH2 0x100 EXP SWAP1 DIV PUSH20 0xFFFFFFFFFFFFFFFFFFFFFFFFFFFFFFFFFFFFFFFF AND PUSH20 0xFFFFFFFFFFFFFFFFFFFFFFFFFFFFFFFFFFFFFFFF AND PUSH4 0x23B872DD ADDRESS CALLER DUP5 PUSH1 0x40 MLOAD DUP5 PUSH4 0xFFFFFFFF AND PUSH1 0xE0 SHL DUP2 MSTORE PUSH1 0x4 ADD PUSH2 0x15ED SWAP4 SWAP3 SWAP2 SWAP1 PUSH2 0x2EBD JUMP JUMPDEST PUSH1 0x0 PUSH1 0x40 MLOAD DUP1 DUP4 SUB DUP2 PUSH1 0x0 DUP8 DUP1 EXTCODESIZE ISZERO DUP1 ISZERO PUSH2 0x1607 JUMPI PUSH1 0x0 DUP1 REVERT JUMPDEST POP GAS CALL ISZERO DUP1 ISZERO PUSH2 0x161B JUMPI RETURNDATASIZE PUSH1 0x0 DUP1 RETURNDATACOPY RETURNDATASIZE PUSH1 0x0 REVERT JUMPDEST POP POP POP POP CALLER PUSH1 0xF PUSH1 0x0 DUP7 DUP2 MSTORE PUSH1 0x20 ADD SWAP1 DUP2 MSTORE PUSH1 0x20 ADD PUSH1 0x0 KECCAK256 PUSH1 0x3 ADD PUSH1 0x0 PUSH2 0x100 EXP DUP2 SLOAD DUP2 PUSH20 0xFFFFFFFFFFFFFFFFFFFFFFFFFFFFFFFFFFFFFFFF MUL NOT AND SWAP1 DUP4 PUSH20 0xFFFFFFFFFFFFFFFFFFFFFFFFFFFFFFFFFFFFFFFF AND MUL OR SWAP1 SSTORE POP PUSH1 0x0 PUSH1 0xF PUSH1 0x0 DUP7 DUP2 MSTORE PUSH1 0x20 ADD SWAP1 DUP2 MSTORE PUSH1 0x20 ADD PUSH1 0x0 KECCAK256 PUSH1 0x5 ADD PUSH1 0x0 PUSH2 0x100 EXP DUP2 SLOAD DUP2 PUSH1 0xFF MUL NOT AND SWAP1 DUP4 PUSH1 0x1 DUP2 GT ISZERO PUSH2 0x16AE JUMPI PUSH2 0x16AD PUSH2 0x22F0 JUMP JUMPDEST JUMPDEST MUL OR SWAP1 SSTORE POP PUSH1 0x0 PUSH1 0xA PUSH1 0x0 SWAP1 SLOAD SWAP1 PUSH2 0x100 EXP SWAP1 DIV PUSH20 0xFFFFFFFFFFFFFFFFFFFFFFFFFFFFFFFFFFFFFFFF AND PUSH20 0xFFFFFFFFFFFFFFFFFFFFFFFFFFFFFFFFFFFFFFFF AND PUSH4 0xD30BDAC9 DUP4 PUSH1 0x40 MLOAD DUP3 PUSH4 0xFFFFFFFF AND PUSH1 0xE0 SHL DUP2 MSTORE PUSH1 0x4 ADD PUSH2 0x1710 SWAP2 SWAP1 PUSH2 0x298B JUMP JUMPDEST PUSH1 0x0 PUSH1 0x40 MLOAD DUP1 DUP4 SUB DUP2 DUP7 GAS STATICCALL ISZERO DUP1 ISZERO PUSH2 0x172D JUMPI RETURNDATASIZE PUSH1 0x0 DUP1 RETURNDATACOPY RETURNDATASIZE PUSH1 0x0 REVERT JUMPDEST POP POP POP POP PUSH1 0x40 MLOAD RETURNDATASIZE PUSH1 0x0 DUP3 RETURNDATACOPY RETURNDATASIZE PUSH1 0x1F NOT PUSH1 0x1F DUP3 ADD AND DUP3 ADD DUP1 PUSH1 0x40 MSTORE POP DUP2 ADD SWAP1 PUSH2 0x1756 SWAP2 SWAP1 PUSH2 0x2C34 JUMP JUMPDEST SWAP1 POP CALLER DUP2 PUSH1 0x20 ADD SWAP1 PUSH20 0xFFFFFFFFFFFFFFFFFFFFFFFFFFFFFFFFFFFFFFFF AND SWAP1 DUP2 PUSH20 0xFFFFFFFFFFFFFFFFFFFFFFFFFFFFFFFFFFFFFFFF AND DUP2 MSTORE POP POP PUSH2 0x179A PUSH1 0xE PUSH2 0x201C JUMP JUMPDEST POP POP POP PUSH1 0x1 PUSH1 0x0 DUP2 SWAP1 SSTORE POP POP POP JUMP JUMPDEST PUSH2 0x17B2 DUP3 PUSH2 0x20F8 JUMP JUMPDEST PUSH1 0x0 CALLER SWAP1 POP PUSH1 0x0 PUSH1 0xF PUSH1 0x0 DUP5 DUP2 MSTORE PUSH1 0x20 ADD SWAP1 DUP2 MSTORE PUSH1 0x20 ADD PUSH1 0x0 KECCAK256 PUSH1 0x40 MLOAD DUP1 PUSH1 0xC0 ADD PUSH1 0x40 MSTORE SWAP1 DUP2 PUSH1 0x0 DUP3 ADD SLOAD DUP2 MSTORE PUSH1 0x20 ADD PUSH1 0x1 DUP3 ADD SLOAD DUP2 MSTORE PUSH1 0x20 ADD PUSH1 0x2 DUP3 ADD PUSH1 0x0 SWAP1 SLOAD SWAP1 PUSH2 0x100 EXP SWAP1 DIV PUSH20 0xFFFFFFFFFFFFFFFFFFFFFFFFFFFFFFFFFFFFFFFF AND PUSH20 0xFFFFFFFFFFFFFFFFFFFFFFFFFFFFFFFFFFFFFFFF AND PUSH20 0xFFFFFFFFFFFFFFFFFFFFFFFFFFFFFFFFFFFFFFFF AND DUP2 MSTORE PUSH1 0x20 ADD PUSH1 0x3 DUP3 ADD PUSH1 0x0 SWAP1 SLOAD SWAP1 PUSH2 0x100 EXP SWAP1 DIV PUSH20 0xFFFFFFFFFFFFFFFFFFFFFFFFFFFFFFFFFFFFFFFF AND PUSH20 0xFFFFFFFFFFFFFFFFFFFFFFFFFFFFFFFFFFFFFFFF AND PUSH20 0xFFFFFFFFFFFFFFFFFFFFFFFFFFFFFFFFFFFFFFFF AND DUP2 MSTORE PUSH1 0x20 ADD PUSH1 0x4 DUP3 ADD SLOAD DUP2 MSTORE PUSH1 0x20 ADD PUSH1 0x5 DUP3 ADD PUSH1 0x0 SWAP1 SLOAD SWAP1 PUSH2 0x100 EXP SWAP1 DIV PUSH1 0xFF AND PUSH1 0x1 DUP2 GT ISZERO PUSH2 0x18C6 JUMPI PUSH2 0x18C5 PUSH2 0x22F0 JUMP JUMPDEST JUMPDEST PUSH1 0x1 DUP2 GT ISZERO PUSH2 0x18D8 JUMPI PUSH2 0x18D7 PUSH2 0x22F0 JUMP JUMPDEST JUMPDEST DUP2 MSTORE POP POP SWAP1 POP PUSH1 0x0 DUP2 PUSH1 0x0 ADD MLOAD SUB PUSH2 0x1925 JUMPI PUSH1 0x40 MLOAD PUSH32 0x8C379A000000000000000000000000000000000000000000000000000000000 DUP2 MSTORE PUSH1 0x4 ADD PUSH2 0x191C SWAP1 PUSH2 0x3057 JUMP JUMPDEST PUSH1 0x40 MLOAD DUP1 SWAP2 SUB SWAP1 REVERT JUMPDEST PUSH1 0x0 PUSH1 0x1 DUP2 GT ISZERO PUSH2 0x1939 JUMPI PUSH2 0x1938 PUSH2 0x22F0 JUMP JUMPDEST JUMPDEST DUP2 PUSH1 0xA0 ADD MLOAD PUSH1 0x1 DUP2 GT ISZERO PUSH2 0x1950 JUMPI PUSH2 0x194F PUSH2 0x22F0 JUMP JUMPDEST JUMPDEST SUB PUSH2 0x1990 JUMPI PUSH1 0x40 MLOAD PUSH32 0x8C379A000000000000000000000000000000000000000000000000000000000 DUP2 MSTORE PUSH1 0x4 ADD PUSH2 0x1987 SWAP1 PUSH2 0x30C3 JUMP JUMPDEST PUSH1 0x40 MLOAD DUP1 SWAP2 SUB SWAP1 REVERT JUMPDEST PUSH1 0x0 DUP2 PUSH1 0x40 ADD MLOAD SWAP1 POP PUSH1 0x0 PUSH20 0xFFFFFFFFFFFFFFFFFFFFFFFFFFFFFFFFFFFFFFFF AND DUP2 PUSH20 0xFFFFFFFFFFFFFFFFFFFFFFFFFFFFFFFFFFFFFFFF AND SUB PUSH2 0x1A08 JUMPI PUSH1 0x40 MLOAD PUSH32 0x8C379A000000000000000000000000000000000000000000000000000000000 DUP2 MSTORE PUSH1 0x4 ADD PUSH2 0x19FF SWAP1 PUSH2 0x312F JUMP JUMPDEST PUSH1 0x40 MLOAD DUP1 SWAP2 SUB SWAP1 REVERT JUMPDEST CALLER PUSH20 0xFFFFFFFFFFFFFFFFFFFFFFFFFFFFFFFFFFFFFFFF AND DUP2 PUSH20 0xFFFFFFFFFFFFFFFFFFFFFFFFFFFFFFFFFFFFFFFF AND EQ PUSH2 0x1A76 JUMPI PUSH1 0x40 MLOAD PUSH32 0x8C379A000000000000000000000000000000000000000000000000000000000 DUP2 MSTORE PUSH1 0x4 ADD PUSH2 0x1A6D SWAP1 PUSH2 0x319B JUMP JUMPDEST PUSH1 0x40 MLOAD DUP1 SWAP2 SUB SWAP1 REVERT JUMPDEST PUSH1 0x0 DUP6 SWAP1 POP DUP1 PUSH20 0xFFFFFFFFFFFFFFFFFFFFFFFFFFFFFFFFFFFFFFFF AND PUSH4 0x42842E0E ADDRESS DUP5 DUP9 PUSH1 0x40 MLOAD DUP5 PUSH4 0xFFFFFFFF AND PUSH1 0xE0 SHL DUP2 MSTORE PUSH1 0x4 ADD PUSH2 0x1AB8 SWAP4 SWAP3 SWAP2 SWAP1 PUSH2 0x2EBD JUMP JUMPDEST PUSH1 0x0 PUSH1 0x40 MLOAD DUP1 DUP4 SUB DUP2 PUSH1 0x0 DUP8 DUP1 EXTCODESIZE ISZERO DUP1 ISZERO PUSH2 0x1AD2 JUMPI PUSH1 0x0 DUP1 REVERT JUMPDEST POP GAS CALL ISZERO DUP1 ISZERO PUSH2 0x1AE6 JUMPI RETURNDATASIZE PUSH1 0x0 DUP1 RETURNDATACOPY RETURNDATASIZE PUSH1 0x0 REVERT JUMPDEST POP POP POP POP PUSH1 0x0 DUP4 PUSH1 0xA0 ADD SWAP1 PUSH1 0x1 DUP2 GT ISZERO PUSH2 0x1B03 JUMPI PUSH2 0x1B02 PUSH2 0x22F0 JUMP JUMPDEST JUMPDEST SWAP1 DUP2 PUSH1 0x1 DUP2 GT ISZERO PUSH2 0x1B17 JUMPI PUSH2 0x1B16 PUSH2 0x22F0 JUMP JUMPDEST JUMPDEST DUP2 MSTORE POP POP PUSH1 0xF PUSH1 0x0 DUP7 DUP2 MSTORE PUSH1 0x20 ADD SWAP1 DUP2 MSTORE PUSH1 0x20 ADD PUSH1 0x0 KECCAK256 PUSH1 0x0 DUP1 DUP3 ADD PUSH1 0x0 SWAP1 SSTORE PUSH1 0x1 DUP3 ADD PUSH1 0x0 SWAP1 SSTORE PUSH1 0x2 DUP3 ADD PUSH1 0x0 PUSH2 0x100 EXP DUP2 SLOAD SWAP1 PUSH20 0xFFFFFFFFFFFFFFFFFFFFFFFFFFFFFFFFFFFFFFFF MUL NOT AND SWAP1 SSTORE PUSH1 0x3 DUP3 ADD PUSH1 0x0 PUSH2 0x100 EXP DUP2 SLOAD SWAP1 PUSH20 0xFFFFFFFFFFFFFFFFFFFFFFFFFFFFFFFFFFFFFFFF MUL NOT AND SWAP1 SSTORE PUSH1 0x4 DUP3 ADD PUSH1 0x0 SWAP1 SSTORE PUSH1 0x5 DUP3 ADD PUSH1 0x0 PUSH2 0x100 EXP DUP2 SLOAD SWAP1 PUSH1 0xFF MUL NOT AND SWAP1 SSTORE POP POP DUP4 PUSH20 0xFFFFFFFFFFFFFFFFFFFFFFFFFFFFFFFFFFFFFFFF AND DUP6 PUSH32 0xC141ECC59E1A451EE7D3128743C8CA3174955CE97262896269482D5F84B39A85 DUP9 DUP7 PUSH1 0x0 ADD MLOAD TIMESTAMP PUSH1 0x40 MLOAD PUSH2 0x1BFA SWAP4 SWAP3 SWAP2 SWAP1 PUSH2 0x31BB JUMP JUMPDEST PUSH1 0x40 MLOAD DUP1 SWAP2 SUB SWAP1 LOG3 POP POP POP POP POP POP JUMP JUMPDEST PUSH1 0xB PUSH1 0x15 SWAP1 SLOAD SWAP1 PUSH2 0x100 EXP SWAP1 DIV PUSH1 0xFF AND DUP2 JUMP JUMPDEST PUSH1 0xA PUSH1 0x0 SWAP1 SLOAD SWAP1 PUSH2 0x100 EXP SWAP1 DIV PUSH20 0xFFFFFFFFFFFFFFFFFFFFFFFFFFFFFFFFFFFFFFFF AND DUP2 JUMP JUMPDEST PUSH2 0x1C4B PUSH2 0x2222 JUMP JUMPDEST PUSH1 0xF PUSH1 0x0 DUP4 DUP2 MSTORE PUSH1 0x20 ADD SWAP1 DUP2 MSTORE PUSH1 0x20 ADD PUSH1 0x0 KECCAK256 PUSH1 0x40 MLOAD DUP1 PUSH1 0xC0 ADD PUSH1 0x40 MSTORE SWAP1 DUP2 PUSH1 0x0 DUP3 ADD SLOAD DUP2 MSTORE PUSH1 0x20 ADD PUSH1 0x1 DUP3 ADD SLOAD DUP2 MSTORE PUSH1 0x20 ADD PUSH1 0x2 DUP3 ADD PUSH1 0x0 SWAP1 SLOAD SWAP1 PUSH2 0x100 EXP SWAP1 DIV PUSH20 0xFFFFFFFFFFFFFFFFFFFFFFFFFFFFFFFFFFFFFFFF AND PUSH20 0xFFFFFFFFFFFFFFFFFFFFFFFFFFFFFFFFFFFFFFFF AND PUSH20 0xFFFFFFFFFFFFFFFFFFFFFFFFFFFFFFFFFFFFFFFF AND DUP2 MSTORE PUSH1 0x20 ADD PUSH1 0x3 DUP3 ADD PUSH1 0x0 SWAP1 SLOAD SWAP1 PUSH2 0x100 EXP SWAP1 DIV PUSH20 0xFFFFFFFFFFFFFFFFFFFFFFFFFFFFFFFFFFFFFFFF AND PUSH20 0xFFFFFFFFFFFFFFFFFFFFFFFFFFFFFFFFFFFFFFFF AND PUSH20 0xFFFFFFFFFFFFFFFFFFFFFFFFFFFFFFFFFFFFFFFF AND DUP2 MSTORE PUSH1 0x20 ADD PUSH1 0x4 DUP3 ADD SLOAD DUP2 MSTORE PUSH1 0x20 ADD PUSH1 0x5 DUP3 ADD PUSH1 0x0 SWAP1 SLOAD SWAP1 PUSH2 0x100 EXP SWAP1 DIV PUSH1 0xFF AND PUSH1 0x1 DUP2 GT ISZERO PUSH2 0x1D58 JUMPI PUSH2 0x1D57 PUSH2 0x22F0 JUMP JUMPDEST JUMPDEST PUSH1 0x1 DUP2 GT ISZERO PUSH2 0x1D6A JUMPI PUSH2 0x1D69 PUSH2 0x22F0 JUMP JUMPDEST JUMPDEST DUP2 MSTORE POP POP SWAP1 POP SWAP2 SWAP1 POP JUMP JUMPDEST PUSH1 0x0 DUP1 PUSH1 0xA PUSH1 0x0 SWAP1 SLOAD SWAP1 PUSH2 0x100 EXP SWAP1 DIV PUSH20 0xFFFFFFFFFFFFFFFFFFFFFFFFFFFFFFFFFFFFFFFF AND PUSH20 0xFFFFFFFFFFFFFFFFFFFFFFFFFFFFFFFFFFFFFFFF AND PUSH4 0xD30BDAC9 DUP5 PUSH1 0x40 MLOAD DUP3 PUSH4 0xFFFFFFFF AND PUSH1 0xE0 SHL DUP2 MSTORE PUSH1 0x4 ADD PUSH2 0x1DD3 SWAP2 SWAP1 PUSH2 0x298B JUMP JUMPDEST PUSH1 0x0 PUSH1 0x40 MLOAD DUP1 DUP4 SUB DUP2 DUP7 GAS STATICCALL ISZERO DUP1 ISZERO PUSH2 0x1DF0 JUMPI RETURNDATASIZE PUSH1 0x0 DUP1 RETURNDATACOPY RETURNDATASIZE PUSH1 0x0 REVERT JUMPDEST POP POP POP POP PUSH1 0x40 MLOAD RETURNDATASIZE PUSH1 0x0 DUP3 RETURNDATACOPY RETURNDATASIZE PUSH1 0x1F NOT PUSH1 0x1F DUP3 ADD AND DUP3 ADD DUP1 PUSH1 0x40 MSTORE POP DUP2 ADD SWAP1 PUSH2 0x1E19 SWAP2 SWAP1 PUSH2 0x2C34 JUMP JUMPDEST SWAP1 POP CALLER DUP2 PUSH1 0x20 ADD SWAP1 PUSH20 0xFFFFFFFFFFFFFFFFFFFFFFFFFFFFFFFFFFFFFFFF AND SWAP1 DUP2 PUSH20 0xFFFFFFFFFFFFFFFFFFFFFFFFFFFFFFFFFFFFFFFF AND DUP2 MSTORE POP POP DUP1 PUSH1 0x20 ADD MLOAD SWAP2 POP POP SWAP2 SWAP1 POP JUMP JUMPDEST PUSH2 0x1E68 PUSH2 0x2006 JUMP JUMPDEST PUSH20 0xFFFFFFFFFFFFFFFFFFFFFFFFFFFFFFFFFFFFFFFF AND PUSH2 0x1E86 PUSH2 0x13C6 JUMP JUMPDEST PUSH20 0xFFFFFFFFFFFFFFFFFFFFFFFFFFFFFFFFFFFFFFFF AND EQ PUSH2 0x1EDC JUMPI PUSH1 0x40 MLOAD PUSH32 0x8C379A000000000000000000000000000000000000000000000000000000000 DUP2 MSTORE PUSH1 0x4 ADD PUSH2 0x1ED3 SWAP1 PUSH2 0x296B JUMP JUMPDEST PUSH1 0x40 MLOAD DUP1 SWAP2 SUB SWAP1 REVERT JUMPDEST PUSH1 0x0 PUSH20 0xFFFFFFFFFFFFFFFFFFFFFFFFFFFFFFFFFFFFFFFF AND DUP2 PUSH20 0xFFFFFFFFFFFFFFFFFFFFFFFFFFFFFFFFFFFFFFFF AND SUB PUSH2 0x1F4B JUMPI PUSH1 0x40 MLOAD PUSH32 0x8C379A000000000000000000000000000000000000000000000000000000000 DUP2 MSTORE PUSH1 0x4 ADD PUSH2 0x1F42 SWAP1 PUSH2 0x3264 JUMP JUMPDEST PUSH1 0x40 MLOAD DUP1 SWAP2 SUB SWAP1 REVERT JUMPDEST PUSH2 0x1F54 DUP2 PUSH2 0x2032 JUMP JUMPDEST POP JUMP JUMPDEST PUSH1 0xB PUSH1 0x0 SWAP1 SLOAD SWAP1 PUSH2 0x100 EXP SWAP1 DIV PUSH20 0xFFFFFFFFFFFFFFFFFFFFFFFFFFFFFFFFFFFFFFFF AND DUP2 JUMP JUMPDEST PUSH1 0x7 PUSH1 0x20 MSTORE DUP1 PUSH1 0x0 MSTORE PUSH1 0x40 PUSH1 0x0 KECCAK256 PUSH1 0x0 SWAP2 POP SWAP1 POP DUP1 PUSH1 0x0 ADD SLOAD SWAP1 DUP1 PUSH1 0x1 ADD SLOAD SWAP1 DUP1 PUSH1 0x2 ADD PUSH1 0x0 SWAP1 SLOAD SWAP1 PUSH2 0x100 EXP SWAP1 DIV PUSH20 0xFFFFFFFFFFFFFFFFFFFFFFFFFFFFFFFFFFFFFFFF AND SWAP1 DUP1 PUSH1 0x3 ADD PUSH1 0x0 SWAP1 SLOAD SWAP1 PUSH2 0x100 EXP SWAP1 DIV PUSH20 0xFFFFFFFFFFFFFFFFFFFFFFFFFFFFFFFFFFFFFFFF AND SWAP1 DUP1 PUSH1 0x4 ADD SLOAD SWAP1 DUP1 PUSH1 0x5 ADD PUSH1 0x0 SWAP1 SLOAD SWAP1 PUSH2 0x100 EXP SWAP1 DIV PUSH1 0xFF AND SWAP1 POP DUP7 JUMP JUMPDEST PUSH1 0x0 CALLER SWAP1 POP SWAP1 JUMP JUMPDEST PUSH1 0x0 DUP2 PUSH1 0x0 ADD SLOAD SWAP1 POP SWAP2 SWAP1 POP JUMP JUMPDEST PUSH1 0x1 DUP2 PUSH1 0x0 ADD PUSH1 0x0 DUP3 DUP3 SLOAD ADD SWAP3 POP POP DUP2 SWAP1 SSTORE POP POP JUMP JUMPDEST PUSH1 0x0 PUSH1 0xC PUSH1 0x0 SWAP1 SLOAD SWAP1 PUSH2 0x100 EXP SWAP1 DIV PUSH20 0xFFFFFFFFFFFFFFFFFFFFFFFFFFFFFFFFFFFFFFFF AND SWAP1 POP DUP2 PUSH1 0xC PUSH1 0x0 PUSH2 0x100 EXP DUP2 SLOAD DUP2 PUSH20 0xFFFFFFFFFFFFFFFFFFFFFFFFFFFFFFFFFFFFFFFF MUL NOT AND SWAP1 DUP4 PUSH20 0xFFFFFFFFFFFFFFFFFFFFFFFFFFFFFFFFFFFFFFFF AND MUL OR SWAP1 SSTORE POP DUP2 PUSH20 0xFFFFFFFFFFFFFFFFFFFFFFFFFFFFFFFFFFFFFFFF AND DUP2 PUSH20 0xFFFFFFFFFFFFFFFFFFFFFFFFFFFFFFFFFFFFFFFF AND PUSH32 0x8BE0079C531659141344CD1FD0A4F28419497F9722A3DAAFE3B4186F6B6457E0 PUSH1 0x40 MLOAD PUSH1 0x40 MLOAD DUP1 SWAP2 SUB SWAP1 LOG3 POP POP JUMP JUMPDEST PUSH2 0x2101 DUP2 PUSH2 0x2209 JUMP JUMPDEST PUSH2 0x2140 JUMPI PUSH1 0x40 MLOAD PUSH32 0x8C379A000000000000000000000000000000000000000000000000000000000 DUP2 MSTORE PUSH1 0x4 ADD PUSH2 0x2137 SWAP1 PUSH2 0x32F6 JUMP JUMPDEST PUSH1 0x40 MLOAD DUP1 SWAP2 SUB SWAP1 REVERT JUMPDEST PUSH1 0x0 DUP2 SWAP1 POP DUP1 PUSH20 0xFFFFFFFFFFFFFFFFFFFFFFFFFFFFFFFFFFFFFFFF AND PUSH4 0x1FFC9A7 PUSH4 0x80AC58CD PUSH1 0xE0 SHL PUSH1 0x40 MLOAD DUP3 PUSH4 0xFFFFFFFF AND PUSH1 0xE0 SHL DUP2 MSTORE PUSH1 0x4 ADD PUSH2 0x2185 SWAP2 SWAP1 PUSH2 0x2692 JUMP JUMPDEST PUSH1 0x20 PUSH1 0x40 MLOAD DUP1 DUP4 SUB DUP2 DUP7 GAS STATICCALL ISZERO DUP1 ISZERO PUSH2 0x21A2 JUMPI RETURNDATASIZE PUSH1 0x0 DUP1 RETURNDATACOPY RETURNDATASIZE PUSH1 0x0 REVERT JUMPDEST POP POP POP POP PUSH1 0x40 MLOAD RETURNDATASIZE PUSH1 0x1F NOT PUSH1 0x1F DUP3 ADD AND DUP3 ADD DUP1 PUSH1 0x40 MSTORE POP DUP2 ADD SWAP1 PUSH2 0x21C6 SWAP2 SWAP1 PUSH2 0x2FDE JUMP JUMPDEST PUSH2 0x2205 JUMPI PUSH1 0x40 MLOAD PUSH32 0x8C379A000000000000000000000000000000000000000000000000000000000 DUP2 MSTORE PUSH1 0x4 ADD PUSH2 0x21FC SWAP1 PUSH2 0x3388 JUMP JUMPDEST PUSH1 0x40 MLOAD DUP1 SWAP2 SUB SWAP1 REVERT JUMPDEST POP POP JUMP JUMPDEST PUSH1 0x0 DUP1 DUP3 EXTCODESIZE SWAP1 POP PUSH1 0x0 DUP2 PUSH4 0xFFFFFFFF AND GT SWAP2 POP POP SWAP2 SWAP1 POP JUMP JUMPDEST PUSH1 0x40 MLOAD DUP1 PUSH1 0xC0 ADD PUSH1 0x40 MSTORE DUP1 PUSH1 0x0 DUP2 MSTORE PUSH1 0x20 ADD PUSH1 0x0 DUP2 MSTORE PUSH1 0x20 ADD PUSH1 0x0 PUSH20 0xFFFFFFFFFFFFFFFFFFFFFFFFFFFFFFFFFFFFFFFF AND DUP2 MSTORE PUSH1 0x20 ADD PUSH1 0x0 PUSH20 0xFFFFFFFFFFFFFFFFFFFFFFFFFFFFFFFFFFFFFFFF AND DUP2 MSTORE PUSH1 0x20 ADD PUSH1 0x0 DUP2 MSTORE PUSH1 0x20 ADD PUSH1 0x0 PUSH1 0x1 DUP2 GT ISZERO PUSH2 0x2290 JUMPI PUSH2 0x228F PUSH2 0x22F0 JUMP JUMPDEST JUMPDEST DUP2 MSTORE POP SWAP1 JUMP JUMPDEST PUSH1 0x0 DUP2 SWAP1 POP SWAP2 SWAP1 POP JUMP JUMPDEST PUSH2 0x22A9 DUP2 PUSH2 0x2296 JUMP JUMPDEST DUP3 MSTORE POP POP JUMP JUMPDEST PUSH1 0x0 PUSH20 0xFFFFFFFFFFFFFFFFFFFFFFFFFFFFFFFFFFFFFFFF DUP3 AND SWAP1 POP SWAP2 SWAP1 POP JUMP JUMPDEST PUSH1 0x0 PUSH2 0x22DA DUP3 PUSH2 0x22AF JUMP JUMPDEST SWAP1 POP SWAP2 SWAP1 POP JUMP JUMPDEST PUSH2 0x22EA DUP2 PUSH2 0x22CF JUMP JUMPDEST DUP3 MSTORE POP POP JUMP JUMPDEST PUSH32 0x4E487B7100000000000000000000000000000000000000000000000000000000 PUSH1 0x0 MSTORE PUSH1 0x21 PUSH1 0x4 MSTORE PUSH1 0x24 PUSH1 0x0 REVERT JUMPDEST PUSH1 0x2 DUP2 LT PUSH2 0x2330 JUMPI PUSH2 0x232F PUSH2 0x22F0 JUMP JUMPDEST JUMPDEST POP JUMP JUMPDEST PUSH1 0x0 DUP2 SWAP1 POP PUSH2 0x2341 DUP3 PUSH2 0x231F JUMP JUMPDEST SWAP2 SWAP1 POP JUMP JUMPDEST PUSH1 0x0 PUSH2 0x2351 DUP3 PUSH2 0x2333 JUMP JUMPDEST SWAP1 POP SWAP2 SWAP1 POP JUMP JUMPDEST PUSH2 0x2361 DUP2 PUSH2 0x2346 JUMP JUMPDEST DUP3 MSTORE POP POP JUMP JUMPDEST PUSH1 0xC0 DUP3 ADD PUSH1 0x0 DUP3 ADD MLOAD PUSH2 0x237D PUSH1 0x0 DUP6 ADD DUP3 PUSH2 0x22A0 JUMP JUMPDEST POP PUSH1 0x20 DUP3 ADD MLOAD PUSH2 0x2390 PUSH1 0x20 DUP6 ADD DUP3 PUSH2 0x22A0 JUMP JUMPDEST POP PUSH1 0x40 DUP3 ADD MLOAD PUSH2 0x23A3 PUSH1 0x40 DUP6 ADD DUP3 PUSH2 0x22E1 JUMP JUMPDEST POP PUSH1 0x60 DUP3 ADD MLOAD PUSH2 0x23B6 PUSH1 0x60 DUP6 ADD DUP3 PUSH2 0x22E1 JUMP JUMPDEST POP PUSH1 0x80 DUP3 ADD MLOAD PUSH2 0x23C9 PUSH1 0x80 DUP6 ADD DUP3 PUSH2 0x22A0 JUMP JUMPDEST POP PUSH1 0xA0 DUP3 ADD MLOAD PUSH2 0x23DC PUSH1 0xA0 DUP6 ADD DUP3 PUSH2 0x2358 JUMP JUMPDEST POP POP POP POP JUMP JUMPDEST PUSH1 0x0 PUSH1 0xC0 DUP3 ADD SWAP1 POP PUSH2 0x23F7 PUSH1 0x0 DUP4 ADD DUP5 PUSH2 0x2367 JUMP JUMPDEST SWAP3 SWAP2 POP POP JUMP JUMPDEST PUSH1 0x0 PUSH1 0x40 MLOAD SWAP1 POP SWAP1 JUMP JUMPDEST PUSH1 0x0 DUP1 REVERT JUMPDEST PUSH1 0x0 DUP1 REVERT JUMPDEST PUSH1 0x0 PUSH2 0x241C DUP3 PUSH2 0x22AF JUMP JUMPDEST SWAP1 POP SWAP2 SWAP1 POP JUMP JUMPDEST PUSH2 0x242C DUP2 PUSH2 0x2411 JUMP JUMPDEST DUP2 EQ PUSH2 0x2437 JUMPI PUSH1 0x0 DUP1 REVERT JUMPDEST POP JUMP JUMPDEST PUSH1 0x0 DUP2 CALLDATALOAD SWAP1 POP PUSH2 0x2449 DUP2 PUSH2 0x2423 JUMP JUMPDEST SWAP3 SWAP2 POP POP JUMP JUMPDEST PUSH1 0x0 PUSH1 0x20 DUP3 DUP5 SUB SLT ISZERO PUSH2 0x2465 JUMPI PUSH2 0x2464 PUSH2 0x2407 JUMP JUMPDEST JUMPDEST PUSH1 0x0 PUSH2 0x2473 DUP5 DUP3 DUP6 ADD PUSH2 0x243A JUMP JUMPDEST SWAP2 POP POP SWAP3 SWAP2 POP POP JUMP JUMPDEST PUSH2 0x2485 DUP2 PUSH2 0x2296 JUMP JUMPDEST DUP2 EQ PUSH2 0x2490 JUMPI PUSH1 0x0 DUP1 REVERT JUMPDEST POP JUMP JUMPDEST PUSH1 0x0 DUP2 CALLDATALOAD SWAP1 POP PUSH2 0x24A2 DUP2 PUSH2 0x247C JUMP JUMPDEST SWAP3 SWAP2 POP POP JUMP JUMPDEST PUSH1 0x0 PUSH1 0x20 DUP3 DUP5 SUB SLT ISZERO PUSH2 0x24BE JUMPI PUSH2 0x24BD PUSH2 0x2407 JUMP JUMPDEST JUMPDEST PUSH1 0x0 PUSH2 0x24CC DUP5 DUP3 DUP6 ADD PUSH2 0x2493 JUMP JUMPDEST SWAP2 POP POP SWAP3 SWAP2 POP POP JUMP JUMPDEST PUSH1 0x0 DUP2 ISZERO ISZERO SWAP1 POP SWAP2 SWAP1 POP JUMP JUMPDEST PUSH2 0x24EA DUP2 PUSH2 0x24D5 JUMP JUMPDEST DUP3 MSTORE POP POP JUMP JUMPDEST PUSH1 0x0 PUSH1 0x20 DUP3 ADD SWAP1 POP PUSH2 0x2505 PUSH1 0x0 DUP4 ADD DUP5 PUSH2 0x24E1 JUMP JUMPDEST SWAP3 SWAP2 POP POP JUMP JUMPDEST PUSH1 0x0 DUP2 MLOAD SWAP1 POP SWAP2 SWAP1 POP JUMP JUMPDEST PUSH1 0x0 DUP3 DUP3 MSTORE PUSH1 0x20 DUP3 ADD SWAP1 POP SWAP3 SWAP2 POP POP JUMP JUMPDEST PUSH1 0x0 DUP2 SWAP1 POP PUSH1 0x20 DUP3 ADD SWAP1 POP SWAP2 SWAP1 POP JUMP JUMPDEST PUSH1 0xC0 DUP3 ADD PUSH1 0x0 DUP3 ADD MLOAD PUSH2 0x254D PUSH1 0x0 DUP6 ADD DUP3 PUSH2 0x22A0 JUMP JUMPDEST POP PUSH1 0x20 DUP3 ADD MLOAD PUSH2 0x2560 PUSH1 0x20 DUP6 ADD DUP3 PUSH2 0x22A0 JUMP JUMPDEST POP PUSH1 0x40 DUP3 ADD MLOAD PUSH2 0x2573 PUSH1 0x40 DUP6 ADD DUP3 PUSH2 0x22E1 JUMP JUMPDEST POP PUSH1 0x60 DUP3 ADD MLOAD PUSH2 0x2586 PUSH1 0x60 DUP6 ADD DUP3 PUSH2 0x22E1 JUMP JUMPDEST POP PUSH1 0x80 DUP3 ADD MLOAD PUSH2 0x2599 PUSH1 0x80 DUP6 ADD DUP3 PUSH2 0x22A0 JUMP JUMPDEST POP PUSH1 0xA0 DUP3 ADD MLOAD PUSH2 0x25AC PUSH1 0xA0 DUP6 ADD DUP3 PUSH2 0x2358 JUMP JUMPDEST POP POP POP POP JUMP JUMPDEST PUSH1 0x0 PUSH2 0x25BE DUP4 DUP4 PUSH2 0x2537 JUMP JUMPDEST PUSH1 0xC0 DUP4 ADD SWAP1 POP SWAP3 SWAP2 POP POP JUMP JUMPDEST PUSH1 0x0 PUSH1 0x20 DUP3 ADD SWAP1 POP SWAP2 SWAP1 POP JUMP JUMPDEST PUSH1 0x0 PUSH2 0x25E2 DUP3 PUSH2 0x250B JUMP JUMPDEST PUSH2 0x25EC DUP2 DUP6 PUSH2 0x2516 JUMP JUMPDEST SWAP4 POP PUSH2 0x25F7 DUP4 PUSH2 0x2527 JUMP JUMPDEST DUP1 PUSH1 0x0 JUMPDEST DUP4 DUP2 LT ISZERO PUSH2 0x2628 JUMPI DUP2 MLOAD PUSH2 0x260F DUP9 DUP3 PUSH2 0x25B2 JUMP JUMPDEST SWAP8 POP PUSH2 0x261A DUP4 PUSH2 0x25CA JUMP JUMPDEST SWAP3 POP POP PUSH1 0x1 DUP2 ADD SWAP1 POP PUSH2 0x25FB JUMP JUMPDEST POP DUP6 SWAP4 POP POP POP POP SWAP3 SWAP2 POP POP JUMP JUMPDEST PUSH1 0x0 PUSH1 0x20 DUP3 ADD SWAP1 POP DUP2 DUP2 SUB PUSH1 0x0 DUP4 ADD MSTORE PUSH2 0x264F DUP2 DUP5 PUSH2 0x25D7 JUMP JUMPDEST SWAP1 POP SWAP3 SWAP2 POP POP JUMP JUMPDEST PUSH1 0x0 PUSH32 0xFFFFFFFF00000000000000000000000000000000000000000000000000000000 DUP3 AND SWAP1 POP SWAP2 SWAP1 POP JUMP JUMPDEST PUSH2 0x268C DUP2 PUSH2 0x2657 JUMP JUMPDEST DUP3 MSTORE POP POP JUMP JUMPDEST PUSH1 0x0 PUSH1 0x20 DUP3 ADD SWAP1 POP PUSH2 0x26A7 PUSH1 0x0 DUP4 ADD DUP5 PUSH2 0x2683 JUMP JUMPDEST SWAP3 SWAP2 POP POP JUMP JUMPDEST PUSH1 0x0 DUP1 PUSH1 0x40 DUP4 DUP6 SUB SLT ISZERO PUSH2 0x26C4 JUMPI PUSH2 0x26C3 PUSH2 0x2407 JUMP JUMPDEST JUMPDEST PUSH1 0x0 PUSH2 0x26D2 DUP6 DUP3 DUP7 ADD PUSH2 0x2493 JUMP JUMPDEST SWAP3 POP POP PUSH1 0x20 PUSH2 0x26E3 DUP6 DUP3 DUP7 ADD PUSH2 0x2493 JUMP JUMPDEST SWAP2 POP POP SWAP3 POP SWAP3 SWAP1 POP JUMP JUMPDEST PUSH1 0x0 DUP2 SWAP1 POP SWAP2 SWAP1 POP JUMP JUMPDEST PUSH1 0x0 PUSH2 0x2712 PUSH2 0x270D PUSH2 0x2708 DUP5 PUSH2 0x22AF JUMP JUMPDEST PUSH2 0x26ED JUMP JUMPDEST PUSH2 0x22AF JUMP JUMPDEST SWAP1 POP SWAP2 SWAP1 POP JUMP JUMPDEST PUSH1 0x0 PUSH2 0x2724 DUP3 PUSH2 0x26F7 JUMP JUMPDEST SWAP1 POP SWAP2 SWAP1 POP JUMP JUMPDEST PUSH1 0x0 PUSH2 0x2736 DUP3 PUSH2 0x2719 JUMP JUMPDEST SWAP1 POP SWAP2 SWAP1 POP JUMP JUMPDEST PUSH2 0x2746 DUP2 PUSH2 0x272B JUMP JUMPDEST DUP3 MSTORE POP POP JUMP JUMPDEST PUSH1 0x0 PUSH1 0x20 DUP3 ADD SWAP1 POP PUSH2 0x2761 PUSH1 0x0 DUP4 ADD DUP5 PUSH2 0x273D JUMP JUMPDEST SWAP3 SWAP2 POP POP JUMP JUMPDEST PUSH2 0x2770 DUP2 PUSH2 0x2296 JUMP JUMPDEST DUP3 MSTORE POP POP JUMP JUMPDEST PUSH2 0x277F DUP2 PUSH2 0x22CF JUMP JUMPDEST DUP3 MSTORE POP POP JUMP JUMPDEST PUSH2 0x278E DUP2 PUSH2 0x2346 JUMP JUMPDEST DUP3 MSTORE POP POP JUMP JUMPDEST PUSH1 0x0 PUSH1 0xC0 DUP3 ADD SWAP1 POP PUSH2 0x27A9 PUSH1 0x0 DUP4 ADD DUP10 PUSH2 0x2767 JUMP JUMPDEST PUSH2 0x27B6 PUSH1 0x20 DUP4 ADD DUP9 PUSH2 0x2767 JUMP JUMPDEST PUSH2 0x27C3 PUSH1 0x40 DUP4 ADD DUP8 PUSH2 0x2776 JUMP JUMPDEST PUSH2 0x27D0 PUSH1 0x60 DUP4 ADD DUP7 PUSH2 0x2776 JUMP JUMPDEST PUSH2 0x27DD PUSH1 0x80 DUP4 ADD DUP6 PUSH2 0x2767 JUMP JUMPDEST PUSH2 0x27EA PUSH1 0xA0 DUP4 ADD DUP5 PUSH2 0x2785 JUMP JUMPDEST SWAP8 SWAP7 POP POP POP POP POP POP POP JUMP JUMPDEST PUSH1 0x0 DUP1 PUSH1 0x40 DUP4 DUP6 SUB SLT ISZERO PUSH2 0x280C JUMPI PUSH2 0x280B PUSH2 0x2407 JUMP JUMPDEST JUMPDEST PUSH1 0x0 PUSH2 0x281A DUP6 DUP3 DUP7 ADD PUSH2 0x243A JUMP JUMPDEST SWAP3 POP POP PUSH1 0x20 PUSH2 0x282B DUP6 DUP3 DUP7 ADD PUSH2 0x2493 JUMP JUMPDEST SWAP2 POP POP SWAP3 POP SWAP3 SWAP1 POP JUMP JUMPDEST PUSH1 0x0 PUSH1 0xFF DUP3 AND SWAP1 POP SWAP2 SWAP1 POP JUMP JUMPDEST PUSH2 0x284B DUP2 PUSH2 0x2835 JUMP JUMPDEST DUP3 MSTORE POP POP JUMP JUMPDEST PUSH1 0x0 PUSH1 0x20 DUP3 ADD SWAP1 POP PUSH2 0x2866 PUSH1 0x0 DUP4 ADD DUP5 PUSH2 0x2842 JUMP JUMPDEST SWAP3 SWAP2 POP POP JUMP JUMPDEST PUSH2 0x2875 DUP2 PUSH2 0x2411 JUMP JUMPDEST DUP3 MSTORE POP POP JUMP JUMPDEST PUSH1 0x0 PUSH1 0x20 DUP3 ADD SWAP1 POP PUSH2 0x2890 PUSH1 0x0 DUP4 ADD DUP5 PUSH2 0x286C JUMP JUMPDEST SWAP3 SWAP2 POP POP JUMP JUMPDEST PUSH1 0x0 PUSH2 0x28A1 DUP3 PUSH2 0x2719 JUMP JUMPDEST SWAP1 POP SWAP2 SWAP1 POP JUMP JUMPDEST PUSH2 0x28B1 DUP2 PUSH2 0x2896 JUMP JUMPDEST DUP3 MSTORE POP POP JUMP JUMPDEST PUSH1 0x0 PUSH1 0x20 DUP3 ADD SWAP1 POP PUSH2 0x28CC PUSH1 0x0 DUP4 ADD DUP5 PUSH2 0x28A8 JUMP JUMPDEST SWAP3 SWAP2 POP POP JUMP JUMPDEST PUSH1 0x0 PUSH2 0x28DD DUP3 PUSH2 0x2719 JUMP JUMPDEST SWAP1 POP SWAP2 SWAP1 POP JUMP JUMPDEST PUSH2 0x28ED DUP2 PUSH2 0x28D2 JUMP JUMPDEST DUP3 MSTORE POP POP JUMP JUMPDEST PUSH1 0x0 PUSH1 0x20 DUP3 ADD SWAP1 POP PUSH2 0x2908 PUSH1 0x0 DUP4 ADD DUP5 PUSH2 0x28E4 JUMP JUMPDEST SWAP3 SWAP2 POP POP JUMP JUMPDEST PUSH1 0x0 DUP3 DUP3 MSTORE PUSH1 0x20 DUP3 ADD SWAP1 POP SWAP3 SWAP2 POP POP JUMP JUMPDEST PUSH32 0x4F776E61626C653A2063616C6C6572206973206E6F7420746865206F776E6572 PUSH1 0x0 DUP3 ADD MSTORE POP JUMP JUMPDEST PUSH1 0x0 PUSH2 0x2955 PUSH1 0x20 DUP4 PUSH2 0x290E JUMP JUMPDEST SWAP2 POP PUSH2 0x2960 DUP3 PUSH2 0x291F JUMP JUMPDEST PUSH1 0x20 DUP3 ADD SWAP1 POP SWAP2 SWAP1 POP JUMP JUMPDEST PUSH1 0x0 PUSH1 0x20 DUP3 ADD SWAP1 POP DUP2 DUP2 SUB PUSH1 0x0 DUP4 ADD MSTORE PUSH2 0x2984 DUP2 PUSH2 0x2948 JUMP JUMPDEST SWAP1 POP SWAP2 SWAP1 POP JUMP JUMPDEST PUSH1 0x0 PUSH1 0x20 DUP3 ADD SWAP1 POP PUSH2 0x29A0 PUSH1 0x0 DUP4 ADD DUP5 PUSH2 0x2767 JUMP JUMPDEST SWAP3 SWAP2 POP POP JUMP JUMPDEST PUSH1 0x0 DUP1 REVERT JUMPDEST PUSH1 0x0 PUSH1 0x1F NOT PUSH1 0x1F DUP4 ADD AND SWAP1 POP SWAP2 SWAP1 POP JUMP JUMPDEST PUSH32 0x4E487B7100000000000000000000000000000000000000000000000000000000 PUSH1 0x0 MSTORE PUSH1 0x41 PUSH1 0x4 MSTORE PUSH1 0x24 PUSH1 0x0 REVERT JUMPDEST PUSH2 0x29F4 DUP3 PUSH2 0x29AB JUMP JUMPDEST DUP2 ADD DUP2 DUP2 LT PUSH8 0xFFFFFFFFFFFFFFFF DUP3 GT OR ISZERO PUSH2 0x2A13 JUMPI PUSH2 0x2A12 PUSH2 0x29BC JUMP JUMPDEST JUMPDEST DUP1 PUSH1 0x40 MSTORE POP POP POP JUMP JUMPDEST PUSH1 0x0 PUSH2 0x2A26 PUSH2 0x23FD JUMP JUMPDEST SWAP1 POP PUSH2 0x2A32 DUP3 DUP3 PUSH2 0x29EB JUMP JUMPDEST SWAP2 SWAP1 POP JUMP JUMPDEST PUSH1 0x0 DUP1 REVERT JUMPDEST PUSH1 0x0 DUP2 MLOAD SWAP1 POP PUSH2 0x2A4B DUP2 PUSH2 0x247C JUMP JUMPDEST SWAP3 SWAP2 POP POP JUMP JUMPDEST PUSH1 0x0 DUP2 MLOAD SWAP1 POP PUSH2 0x2A60 DUP2 PUSH2 0x2423 JUMP JUMPDEST SWAP3 SWAP2 POP POP JUMP JUMPDEST PUSH1 0x0 DUP1 REVERT JUMPDEST PUSH1 0x0 DUP1 REVERT JUMPDEST PUSH1 0x0 PUSH8 0xFFFFFFFFFFFFFFFF DUP3 GT ISZERO PUSH2 0x2A8B JUMPI PUSH2 0x2A8A PUSH2 0x29BC JUMP JUMPDEST JUMPDEST PUSH2 0x2A94 DUP3 PUSH2 0x29AB JUMP JUMPDEST SWAP1 POP PUSH1 0x20 DUP2 ADD SWAP1 POP SWAP2 SWAP1 POP JUMP JUMPDEST PUSH1 0x0 JUMPDEST DUP4 DUP2 LT ISZERO PUSH2 0x2ABF JUMPI DUP1 DUP3 ADD MLOAD DUP2 DUP5 ADD MSTORE PUSH1 0x20 DUP2 ADD SWAP1 POP PUSH2 0x2AA4 JUMP JUMPDEST DUP4 DUP2 GT ISZERO PUSH2 0x2ACE JUMPI PUSH1 0x0 DUP5 DUP5 ADD MSTORE JUMPDEST POP POP POP POP JUMP JUMPDEST PUSH1 0x0 PUSH2 0x2AE7 PUSH2 0x2AE2 DUP5 PUSH2 0x2A70 JUMP JUMPDEST PUSH2 0x2A1C JUMP JUMPDEST SWAP1 POP DUP3 DUP2 MSTORE PUSH1 0x20 DUP2 ADD DUP5 DUP5 DUP5 ADD GT ISZERO PUSH2 0x2B03 JUMPI PUSH2 0x2B02 PUSH2 0x2A6B JUMP JUMPDEST JUMPDEST PUSH2 0x2B0E DUP5 DUP3 DUP6 PUSH2 0x2AA1 JUMP JUMPDEST POP SWAP4 SWAP3 POP POP POP JUMP JUMPDEST PUSH1 0x0 DUP3 PUSH1 0x1F DUP4 ADD SLT PUSH2 0x2B2B JUMPI PUSH2 0x2B2A PUSH2 0x2A66 JUMP JUMPDEST JUMPDEST DUP2 MLOAD PUSH2 0x2B3B DUP5 DUP3 PUSH1 0x20 DUP7 ADD PUSH2 0x2AD4 JUMP JUMPDEST SWAP2 POP POP SWAP3 SWAP2 POP POP JUMP JUMPDEST PUSH2 0x2B4D DUP2 PUSH2 0x24D5 JUMP JUMPDEST DUP2 EQ PUSH2 0x2B58 JUMPI PUSH1 0x0 DUP1 REVERT JUMPDEST POP JUMP JUMPDEST PUSH1 0x0 DUP2 MLOAD SWAP1 POP PUSH2 0x2B6A DUP2 PUSH2 0x2B44 JUMP JUMPDEST SWAP3 SWAP2 POP POP JUMP JUMPDEST PUSH1 0x0 PUSH1 0xA0 DUP3 DUP5 SUB SLT ISZERO PUSH2 0x2B86 JUMPI PUSH2 0x2B85 PUSH2 0x29A6 JUMP JUMPDEST JUMPDEST PUSH2 0x2B90 PUSH1 0xA0 PUSH2 0x2A1C JUMP JUMPDEST SWAP1 POP PUSH1 0x0 PUSH2 0x2BA0 DUP5 DUP3 DUP6 ADD PUSH2 0x2A3C JUMP JUMPDEST PUSH1 0x0 DUP4 ADD MSTORE POP PUSH1 0x20 PUSH2 0x2BB4 DUP5 DUP3 DUP6 ADD PUSH2 0x2A51 JUMP JUMPDEST PUSH1 0x20 DUP4 ADD MSTORE POP PUSH1 0x40 DUP3 ADD MLOAD PUSH8 0xFFFFFFFFFFFFFFFF DUP2 GT ISZERO PUSH2 0x2BD8 JUMPI PUSH2 0x2BD7 PUSH2 0x2A37 JUMP JUMPDEST JUMPDEST PUSH2 0x2BE4 DUP5 DUP3 DUP6 ADD PUSH2 0x2B16 JUMP JUMPDEST PUSH1 0x40 DUP4 ADD MSTORE POP PUSH1 0x60 DUP3 ADD MLOAD PUSH8 0xFFFFFFFFFFFFFFFF DUP2 GT ISZERO PUSH2 0x2C08 JUMPI PUSH2 0x2C07 PUSH2 0x2A37 JUMP JUMPDEST JUMPDEST PUSH2 0x2C14 DUP5 DUP3 DUP6 ADD PUSH2 0x2B16 JUMP JUMPDEST PUSH1 0x60 DUP4 ADD MSTORE POP PUSH1 0x80 PUSH2 0x2C28 DUP5 DUP3 DUP6 ADD PUSH2 0x2B5B JUMP JUMPDEST PUSH1 0x80 DUP4 ADD MSTORE POP SWAP3 SWAP2 POP POP JUMP JUMPDEST PUSH1 0x0 PUSH1 0x20 DUP3 DUP5 SUB SLT ISZERO PUSH2 0x2C4A JUMPI PUSH2 0x2C49 PUSH2 0x2407 JUMP JUMPDEST JUMPDEST PUSH1 0x0 DUP3 ADD MLOAD PUSH8 0xFFFFFFFFFFFFFFFF DUP2 GT ISZERO PUSH2 0x2C68 JUMPI PUSH2 0x2C67 PUSH2 0x240C JUMP JUMPDEST JUMPDEST PUSH2 0x2C74 DUP5 DUP3 DUP6 ADD PUSH2 0x2B70 JUMP JUMPDEST SWAP2 POP POP SWAP3 SWAP2 POP POP JUMP JUMPDEST PUSH32 0x4E487B7100000000000000000000000000000000000000000000000000000000 PUSH1 0x0 MSTORE PUSH1 0x11 PUSH1 0x4 MSTORE PUSH1 0x24 PUSH1 0x0 REVERT JUMPDEST PUSH1 0x0 PUSH2 0x2CB7 DUP3 PUSH2 0x2296 JUMP JUMPDEST SWAP2 POP PUSH2 0x2CC2 DUP4 PUSH2 0x2296 JUMP JUMPDEST SWAP3 POP DUP3 PUSH32 0xFFFFFFFFFFFFFFFFFFFFFFFFFFFFFFFFFFFFFFFFFFFFFFFFFFFFFFFFFFFFFFFF SUB DUP3 GT ISZERO PUSH2 0x2CF7 JUMPI PUSH2 0x2CF6 PUSH2 0x2C7D JUMP JUMPDEST JUMPDEST DUP3 DUP3 ADD SWAP1 POP SWAP3 SWAP2 POP POP JUMP JUMPDEST PUSH1 0x0 PUSH2 0x2D0D DUP3 PUSH2 0x2296 JUMP JUMPDEST SWAP2 POP PUSH32 0xFFFFFFFFFFFFFFFFFFFFFFFFFFFFFFFFFFFFFFFFFFFFFFFFFFFFFFFFFFFFFFFF DUP3 SUB PUSH2 0x2D3F JUMPI PUSH2 0x2D3E PUSH2 0x2C7D JUMP JUMPDEST JUMPDEST PUSH1 0x1 DUP3 ADD SWAP1 POP SWAP2 SWAP1 POP JUMP JUMPDEST PUSH32 0x4E487B7100000000000000000000000000000000000000000000000000000000 PUSH1 0x0 MSTORE PUSH1 0x32 PUSH1 0x4 MSTORE PUSH1 0x24 PUSH1 0x0 REVERT JUMPDEST PUSH32 0x5265656E7472616E637947756172643A207265656E7472616E742063616C6C00 PUSH1 0x0 DUP3 ADD MSTORE POP JUMP JUMPDEST PUSH1 0x0 PUSH2 0x2DAF PUSH1 0x1F DUP4 PUSH2 0x290E JUMP JUMPDEST SWAP2 POP PUSH2 0x2DBA DUP3 PUSH2 0x2D79 JUMP JUMPDEST PUSH1 0x20 DUP3 ADD SWAP1 POP SWAP2 SWAP1 POP JUMP JUMPDEST PUSH1 0x0 PUSH1 0x20 DUP3 ADD SWAP1 POP DUP2 DUP2 SUB PUSH1 0x0 DUP4 ADD MSTORE PUSH2 0x2DDE DUP2 PUSH2 0x2DA2 JUMP JUMPDEST SWAP1 POP SWAP2 SWAP1 POP JUMP JUMPDEST PUSH32 0x5072696365206D757374206265206174206C6561737420312077656900000000 PUSH1 0x0 DUP3 ADD MSTORE POP JUMP JUMPDEST PUSH1 0x0 PUSH2 0x2E1B PUSH1 0x1C DUP4 PUSH2 0x290E JUMP JUMPDEST SWAP2 POP PUSH2 0x2E26 DUP3 PUSH2 0x2DE5 JUMP JUMPDEST PUSH1 0x20 DUP3 ADD SWAP1 POP SWAP2 SWAP1 POP JUMP JUMPDEST PUSH1 0x0 PUSH1 0x20 DUP3 ADD SWAP1 POP DUP2 DUP2 SUB PUSH1 0x0 DUP4 ADD MSTORE PUSH2 0x2E4A DUP2 PUSH2 0x2E0E JUMP JUMPDEST SWAP1 POP SWAP2 SWAP1 POP JUMP JUMPDEST PUSH32 0x4974656D206973206E6F7420617661696C61626C65206E6F7720210000000000 PUSH1 0x0 DUP3 ADD MSTORE POP JUMP JUMPDEST PUSH1 0x0 PUSH2 0x2E87 PUSH1 0x1B DUP4 PUSH2 0x290E JUMP JUMPDEST SWAP2 POP PUSH2 0x2E92 DUP3 PUSH2 0x2E51 JUMP JUMPDEST PUSH1 0x20 DUP3 ADD SWAP1 POP SWAP2 SWAP1 POP JUMP JUMPDEST PUSH1 0x0 PUSH1 0x20 DUP3 ADD SWAP1 POP DUP2 DUP2 SUB PUSH1 0x0 DUP4 ADD MSTORE PUSH2 0x2EB6 DUP2 PUSH2 0x2E7A JUMP JUMPDEST SWAP1 POP SWAP2 SWAP1 POP JUMP JUMPDEST PUSH1 0x0 PUSH1 0x60 DUP3 ADD SWAP1 POP PUSH2 0x2ED2 PUSH1 0x0 DUP4 ADD DUP7 PUSH2 0x286C JUMP JUMPDEST PUSH2 0x2EDF PUSH1 0x20 DUP4 ADD DUP6 PUSH2 0x286C JUMP JUMPDEST PUSH2 0x2EEC PUSH1 0x40 DUP4 ADD DUP5 PUSH2 0x2767 JUMP JUMPDEST SWAP5 SWAP4 POP POP POP POP JUMP JUMPDEST PUSH32 0x506C65617365207375626D6974207468652061736B696E672070726963652069 PUSH1 0x0 DUP3 ADD MSTORE PUSH32 0x6E206F7264657220746F20636F6D706C65746520746865207075726368617365 PUSH1 0x20 DUP3 ADD MSTORE POP JUMP JUMPDEST PUSH1 0x0 PUSH2 0x2F50 PUSH1 0x40 DUP4 PUSH2 0x290E JUMP JUMPDEST SWAP2 POP PUSH2 0x2F5B DUP3 PUSH2 0x2EF4 JUMP JUMPDEST PUSH1 0x40 DUP3 ADD SWAP1 POP SWAP2 SWAP1 POP JUMP JUMPDEST PUSH1 0x0 PUSH1 0x20 DUP3 ADD SWAP1 POP DUP2 DUP2 SUB PUSH1 0x0 DUP4 ADD MSTORE PUSH2 0x2F7F DUP2 PUSH2 0x2F43 JUMP JUMPDEST SWAP1 POP SWAP2 SWAP1 POP JUMP JUMPDEST PUSH1 0x0 PUSH2 0x2F91 DUP3 PUSH2 0x2719 JUMP JUMPDEST SWAP1 POP SWAP2 SWAP1 POP JUMP JUMPDEST PUSH2 0x2FA1 DUP2 PUSH2 0x2F86 JUMP JUMPDEST DUP3 MSTORE POP POP JUMP JUMPDEST PUSH1 0x0 PUSH1 0x60 DUP3 ADD SWAP1 POP PUSH2 0x2FBC PUSH1 0x0 DUP4 ADD DUP7 PUSH2 0x286C JUMP JUMPDEST PUSH2 0x2FC9 PUSH1 0x20 DUP4 ADD DUP6 PUSH2 0x2F98 JUMP JUMPDEST PUSH2 0x2FD6 PUSH1 0x40 DUP4 ADD DUP5 PUSH2 0x2767 JUMP JUMPDEST SWAP5 SWAP4 POP POP POP POP JUMP JUMPDEST PUSH1 0x0 PUSH1 0x20 DUP3 DUP5 SUB SLT ISZERO PUSH2 0x2FF4 JUMPI PUSH2 0x2FF3 PUSH2 0x2407 JUMP JUMPDEST JUMPDEST PUSH1 0x0 PUSH2 0x3002 DUP5 DUP3 DUP6 ADD PUSH2 0x2B5B JUMP JUMPDEST SWAP2 POP POP SWAP3 SWAP2 POP POP JUMP JUMPDEST PUSH32 0x4173736574206E6F74207075626C697368656400000000000000000000000000 PUSH1 0x0 DUP3 ADD MSTORE POP JUMP JUMPDEST PUSH1 0x0 PUSH2 0x3041 PUSH1 0x13 DUP4 PUSH2 0x290E JUMP JUMPDEST SWAP2 POP PUSH2 0x304C DUP3 PUSH2 0x300B JUMP JUMPDEST PUSH1 0x20 DUP3 ADD SWAP1 POP SWAP2 SWAP1 POP JUMP JUMPDEST PUSH1 0x0 PUSH1 0x20 DUP3 ADD SWAP1 POP DUP2 DUP2 SUB PUSH1 0x0 DUP4 ADD MSTORE PUSH2 0x3070 DUP2 PUSH2 0x3034 JUMP JUMPDEST SWAP1 POP SWAP2 SWAP1 POP JUMP JUMPDEST PUSH32 0x41737365742064656C6973746564000000000000000000000000000000000000 PUSH1 0x0 DUP3 ADD MSTORE POP JUMP JUMPDEST PUSH1 0x0 PUSH2 0x30AD PUSH1 0xE DUP4 PUSH2 0x290E JUMP JUMPDEST SWAP2 POP PUSH2 0x30B8 DUP3 PUSH2 0x3077 JUMP JUMPDEST PUSH1 0x20 DUP3 ADD SWAP1 POP SWAP2 SWAP1 POP JUMP JUMPDEST PUSH1 0x0 PUSH1 0x20 DUP3 ADD SWAP1 POP DUP2 DUP2 SUB PUSH1 0x0 DUP4 ADD MSTORE PUSH2 0x30DC DUP2 PUSH2 0x30A0 JUMP JUMPDEST SWAP1 POP SWAP2 SWAP1 POP JUMP JUMPDEST PUSH32 0x496E76616C696420616464726573730000000000000000000000000000000000 PUSH1 0x0 DUP3 ADD MSTORE POP JUMP JUMPDEST PUSH1 0x0 PUSH2 0x3119 PUSH1 0xF DUP4 PUSH2 0x290E JUMP JUMPDEST SWAP2 POP PUSH2 0x3124 DUP3 PUSH2 0x30E3 JUMP JUMPDEST PUSH1 0x20 DUP3 ADD SWAP1 POP SWAP2 SWAP1 POP JUMP JUMPDEST PUSH1 0x0 PUSH1 0x20 DUP3 ADD SWAP1 POP DUP2 DUP2 SUB PUSH1 0x0 DUP4 ADD MSTORE PUSH2 0x3148 DUP2 PUSH2 0x310C JUMP JUMPDEST SWAP1 POP SWAP2 SWAP1 POP JUMP JUMPDEST PUSH32 0x4F6E6C792073656C6C65722063616E2064656C69737400000000000000000000 PUSH1 0x0 DUP3 ADD MSTORE POP JUMP JUMPDEST PUSH1 0x0 PUSH2 0x3185 PUSH1 0x16 DUP4 PUSH2 0x290E JUMP JUMPDEST SWAP2 POP PUSH2 0x3190 DUP3 PUSH2 0x314F JUMP JUMPDEST PUSH1 0x20 DUP3 ADD SWAP1 POP SWAP2 SWAP1 POP JUMP JUMPDEST PUSH1 0x0 PUSH1 0x20 DUP3 ADD SWAP1 POP DUP2 DUP2 SUB PUSH1 0x0 DUP4 ADD MSTORE PUSH2 0x31B4 DUP2 PUSH2 0x3178 JUMP JUMPDEST SWAP1 POP SWAP2 SWAP1 POP JUMP JUMPDEST PUSH1 0x0 PUSH1 0x60 DUP3 ADD SWAP1 POP PUSH2 0x31D0 PUSH1 0x0 DUP4 ADD DUP7 PUSH2 0x286C JUMP JUMPDEST PUSH2 0x31DD PUSH1 0x20 DUP4 ADD DUP6 PUSH2 0x2767 JUMP JUMPDEST PUSH2 0x31EA PUSH1 0x40 DUP4 ADD DUP5 PUSH2 0x2767 JUMP JUMPDEST SWAP5 SWAP4 POP POP POP POP JUMP JUMPDEST PUSH32 0x4F776E61626C653A206E6577206F776E657220697320746865207A65726F2061 PUSH1 0x0 DUP3 ADD MSTORE PUSH32 0x6464726573730000000000000000000000000000000000000000000000000000 PUSH1 0x20 DUP3 ADD MSTORE POP JUMP JUMPDEST PUSH1 0x0 PUSH2 0x324E PUSH1 0x26 DUP4 PUSH2 0x290E JUMP JUMPDEST SWAP2 POP PUSH2 0x3259 DUP3 PUSH2 0x31F2 JUMP JUMPDEST PUSH1 0x40 DUP3 ADD SWAP1 POP SWAP2 SWAP1 POP JUMP JUMPDEST PUSH1 0x0 PUSH1 0x20 DUP3 ADD SWAP1 POP DUP2 DUP2 SUB PUSH1 0x0 DUP4 ADD MSTORE PUSH2 0x327D DUP2 PUSH2 0x3241 JUMP JUMPDEST SWAP1 POP SWAP2 SWAP1 POP JUMP JUMPDEST PUSH32 0x546865204E465420416464726573732073686F756C64206265206120636F6E74 PUSH1 0x0 DUP3 ADD MSTORE PUSH32 0x7261637400000000000000000000000000000000000000000000000000000000 PUSH1 0x20 DUP3 ADD MSTORE POP JUMP JUMPDEST PUSH1 0x0 PUSH2 0x32E0 PUSH1 0x24 DUP4 PUSH2 0x290E JUMP JUMPDEST SWAP2 POP PUSH2 0x32EB DUP3 PUSH2 0x3284 JUMP JUMPDEST PUSH1 0x40 DUP3 ADD SWAP1 POP SWAP2 SWAP1 POP JUMP JUMPDEST PUSH1 0x0 PUSH1 0x20 DUP3 ADD SWAP1 POP DUP2 DUP2 SUB PUSH1 0x0 DUP4 ADD MSTORE PUSH2 0x330F DUP2 PUSH2 0x32D3 JUMP JUMPDEST SWAP1 POP SWAP2 SWAP1 POP JUMP JUMPDEST PUSH32 0x546865204E465420636F6E74726163742068617320616E20696E76616C696420 PUSH1 0x0 DUP3 ADD MSTORE PUSH32 0x45524337323120696D706C656D656E746174696F6E0000000000000000000000 PUSH1 0x20 DUP3 ADD MSTORE POP JUMP JUMPDEST PUSH1 0x0 PUSH2 0x3372 PUSH1 0x35 DUP4 PUSH2 0x290E JUMP JUMPDEST SWAP2 POP PUSH2 0x337D DUP3 PUSH2 0x3316 JUMP JUMPDEST PUSH1 0x40 DUP3 ADD SWAP1 POP SWAP2 SWAP1 POP JUMP JUMPDEST PUSH1 0x0 PUSH1 0x20 DUP3 ADD SWAP1 POP DUP2 DUP2 SUB PUSH1 0x0 DUP4 ADD MSTORE PUSH2 0x33A1 DUP2 PUSH2 0x3365 JUMP JUMPDEST SWAP1 POP SWAP2 SWAP1 POP JUMP INVALID LOG2 PUSH5 0x6970667358 0x22 SLT KECCAK256 PUSH4 0xCB032A3E 0x27 0xC3 DUP13 PUSH9 0xE580B09E851D247F2E SUB PUSH6 0x8DFACED1C87B JUMPI 0xD PUSH29 0xD3A15E64736F6C634300080D0033000000000000000000000000000000 "
				},
				"gasEstimates": {
					"creation": {
						"codeDepositCost": "2655600",
						"executionCost": "infinite",
						"totalCost": "infinite"
					},
					"external": {
						"ERC721_Interface()": "364",
						"allItems(uint256)": "infinite",
						"allMarketItems()": "infinite",
						"antaFeePercent()": "2654",
						"bnbFeePercent()": "2566",
						"createMarketItem(uint256,uint256)": "infinite",
						"createMarketSale(uint256,uint256)": "infinite",
						"delistItem(address,uint256)": "infinite",
						"factory()": "infinite",
						"fetchMarketItem(uint256)": "infinite",
						"fetchMarketItems()": "infinite",
						"fetchMyNFTs()": "infinite",
						"getAlalalalala(uint256)": "infinite",
						"getMarketItem(uint256)": "infinite",
						"items(address,uint256)": "infinite",
						"mainNFTs()": "infinite",
						"mainToken()": "infinite",
						"owner()": "2589",
						"renounceOwnership()": "30397",
						"setFactory(address)": "27073",
						"setMainNFT(address)": "27008",
						"setMainToken(address)": "27074",
						"testView(uint256)": "infinite",
						"transferOwnership(address)": "30808"
					},
					"internal": {
						"_requireERC721(address)": "infinite",
						"isContract(address)": "2653"
					}
				},
				"methodIdentifiers": {
					"ERC721_Interface()": "2b4c32be",
					"allItems(uint256)": "ff68fa6e",
					"allMarketItems()": "517bd451",
					"antaFeePercent()": "b7a60c7e",
					"bnbFeePercent()": "85a8b36c",
					"createMarketItem(uint256,uint256)": "361c1995",
					"createMarketSale(uint256,uint256)": "a1c11ca8",
					"delistItem(address,uint256)": "ad9a0369",
					"factory()": "c45a0155",
					"fetchMarketItem(uint256)": "2a45b250",
					"fetchMarketItems()": "0f08efe0",
					"fetchMyNFTs()": "202e3740",
					"getAlalalalala(uint256)": "16e7031a",
					"getMarketItem(uint256)": "c7be7a49",
					"items(address,uint256)": "5c80a435",
					"mainNFTs()": "f55de0c7",
					"mainToken()": "3fc15f15",
					"owner()": "8da5cb5b",
					"renounceOwnership()": "715018a6",
					"setFactory(address)": "5bb47808",
					"setMainNFT(address)": "15b12494",
					"setMainToken(address)": "27ce464e",
					"testView(uint256)": "e0606dd8",
					"transferOwnership(address)": "f2fde38b"
				}
			},
			"storageLayout": {
				"storage": [
					{
						"astId": 409,
						"contract": "contracts/Marketplace2/Marketplace.sol:NFTMarket",
						"label": "_status",
						"offset": 0,
						"slot": "0",
						"type": "t_uint256"
					},
					{
						"astId": 489,
						"contract": "contracts/Marketplace2/Marketplace.sol:NFTMarket",
						"label": "allMarketItems",
						"offset": 0,
						"slot": "1",
						"type": "t_struct(MarketItem)486_storage"
					},
					{
						"astId": 500,
						"contract": "contracts/Marketplace2/Marketplace.sol:NFTMarket",
						"label": "allItems",
						"offset": 0,
						"slot": "7",
						"type": "t_mapping(t_uint256,t_struct(MarketItem)486_storage)"
					},
					{
						"astId": 507,
						"contract": "contracts/Marketplace2/Marketplace.sol:NFTMarket",
						"label": "items",
						"offset": 0,
						"slot": "8",
						"type": "t_mapping(t_address,t_mapping(t_uint256,t_struct(MarketItem)486_storage))"
					},
					{
						"astId": 510,
						"contract": "contracts/Marketplace2/Marketplace.sol:NFTMarket",
						"label": "mainToken",
						"offset": 0,
						"slot": "9",
						"type": "t_contract(IERC20)201"
					},
					{
						"astId": 513,
						"contract": "contracts/Marketplace2/Marketplace.sol:NFTMarket",
						"label": "factory",
						"offset": 0,
						"slot": "10",
						"type": "t_contract(IFactory)468"
					},
					{
						"astId": 516,
						"contract": "contracts/Marketplace2/Marketplace.sol:NFTMarket",
						"label": "mainNFTs",
						"offset": 0,
						"slot": "11",
						"type": "t_contract(IERC721)326"
					},
					{
						"astId": 518,
						"contract": "contracts/Marketplace2/Marketplace.sol:NFTMarket",
						"label": "bnbFeePercent",
						"offset": 20,
						"slot": "11",
						"type": "t_uint8"
					},
					{
						"astId": 520,
						"contract": "contracts/Marketplace2/Marketplace.sol:NFTMarket",
						"label": "antaFeePercent",
						"offset": 21,
						"slot": "11",
						"type": "t_uint8"
					},
					{
						"astId": 27,
						"contract": "contracts/Marketplace2/Marketplace.sol:NFTMarket",
						"label": "_owner",
						"offset": 0,
						"slot": "12",
						"type": "t_address"
					},
					{
						"astId": 596,
						"contract": "contracts/Marketplace2/Marketplace.sol:NFTMarket",
						"label": "_itemIds",
						"offset": 0,
						"slot": "13",
						"type": "t_struct(Counter)331_storage"
					},
					{
						"astId": 599,
						"contract": "contracts/Marketplace2/Marketplace.sol:NFTMarket",
						"label": "_itemsSold",
						"offset": 0,
						"slot": "14",
						"type": "t_struct(Counter)331_storage"
					},
					{
						"astId": 604,
						"contract": "contracts/Marketplace2/Marketplace.sol:NFTMarket",
						"label": "idToMarketItem",
						"offset": 0,
						"slot": "15",
						"type": "t_mapping(t_uint256,t_struct(MarketItem)486_storage)"
					}
				],
				"types": {
					"t_address": {
						"encoding": "inplace",
						"label": "address",
						"numberOfBytes": "20"
					},
					"t_address_payable": {
						"encoding": "inplace",
						"label": "address payable",
						"numberOfBytes": "20"
					},
					"t_contract(IERC20)201": {
						"encoding": "inplace",
						"label": "contract IERC20",
						"numberOfBytes": "20"
					},
					"t_contract(IERC721)326": {
						"encoding": "inplace",
						"label": "contract IERC721",
						"numberOfBytes": "20"
					},
					"t_contract(IFactory)468": {
						"encoding": "inplace",
						"label": "contract IFactory",
						"numberOfBytes": "20"
					},
					"t_enum(ItemStatus)472": {
						"encoding": "inplace",
						"label": "enum MarketplaceStorage.ItemStatus",
						"numberOfBytes": "1"
					},
					"t_mapping(t_address,t_mapping(t_uint256,t_struct(MarketItem)486_storage))": {
						"encoding": "mapping",
						"key": "t_address",
						"label": "mapping(address => mapping(uint256 => struct MarketplaceStorage.MarketItem))",
						"numberOfBytes": "32",
						"value": "t_mapping(t_uint256,t_struct(MarketItem)486_storage)"
					},
					"t_mapping(t_uint256,t_struct(MarketItem)486_storage)": {
						"encoding": "mapping",
						"key": "t_uint256",
						"label": "mapping(uint256 => struct MarketplaceStorage.MarketItem)",
						"numberOfBytes": "32",
						"value": "t_struct(MarketItem)486_storage"
					},
					"t_struct(Counter)331_storage": {
						"encoding": "inplace",
						"label": "struct Counters.Counter",
						"members": [
							{
								"astId": 330,
								"contract": "contracts/Marketplace2/Marketplace.sol:NFTMarket",
								"label": "_value",
								"offset": 0,
								"slot": "0",
								"type": "t_uint256"
							}
						],
						"numberOfBytes": "32"
					},
					"t_struct(MarketItem)486_storage": {
						"encoding": "inplace",
						"label": "struct MarketplaceStorage.MarketItem",
						"members": [
							{
								"astId": 474,
								"contract": "contracts/Marketplace2/Marketplace.sol:NFTMarket",
								"label": "itemId",
								"offset": 0,
								"slot": "0",
								"type": "t_uint256"
							},
							{
								"astId": 476,
								"contract": "contracts/Marketplace2/Marketplace.sol:NFTMarket",
								"label": "tokenId",
								"offset": 0,
								"slot": "1",
								"type": "t_uint256"
							},
							{
								"astId": 478,
								"contract": "contracts/Marketplace2/Marketplace.sol:NFTMarket",
								"label": "seller",
								"offset": 0,
								"slot": "2",
								"type": "t_address_payable"
							},
							{
								"astId": 480,
								"contract": "contracts/Marketplace2/Marketplace.sol:NFTMarket",
								"label": "owner",
								"offset": 0,
								"slot": "3",
								"type": "t_address_payable"
							},
							{
								"astId": 482,
								"contract": "contracts/Marketplace2/Marketplace.sol:NFTMarket",
								"label": "price",
								"offset": 0,
								"slot": "4",
								"type": "t_uint256"
							},
							{
								"astId": 485,
								"contract": "contracts/Marketplace2/Marketplace.sol:NFTMarket",
								"label": "status",
								"offset": 0,
								"slot": "5",
								"type": "t_enum(ItemStatus)472"
							}
						],
						"numberOfBytes": "192"
					},
					"t_uint256": {
						"encoding": "inplace",
						"label": "uint256",
						"numberOfBytes": "32"
					},
					"t_uint8": {
						"encoding": "inplace",
						"label": "uint8",
						"numberOfBytes": "1"
					}
				}
			},
			"userdoc": {
				"kind": "user",
				"methods": {},
				"version": 1
			}
		}
	}
}