{
	"contracts/Marketplace2/Marketplace.sol": {
		"NFTMarket": {
			"abi": [
				{
					"inputs": [
						{
							"internalType": "address",
							"name": "_mainToken",
							"type": "address"
						},
						{
							"internalType": "address",
							"name": "_mainNFT",
							"type": "address"
						},
						{
							"internalType": "address",
							"name": "_mainFactory",
							"type": "address"
						}
					],
					"stateMutability": "payable",
					"type": "constructor"
				},
				{
					"anonymous": false,
					"inputs": [
						{
							"indexed": false,
							"internalType": "uint256",
							"name": "itemId",
							"type": "uint256"
						},
						{
							"indexed": true,
							"internalType": "uint256",
							"name": "tokenId",
							"type": "uint256"
						},
						{
							"indexed": true,
							"internalType": "address",
							"name": "seller",
							"type": "address"
						},
						{
							"indexed": false,
							"internalType": "uint256",
							"name": "price",
							"type": "uint256"
						},
						{
							"indexed": true,
							"internalType": "address",
							"name": "buyer",
							"type": "address"
						},
						{
							"indexed": false,
							"internalType": "string",
							"name": "currency",
							"type": "string"
						},
						{
							"indexed": false,
							"internalType": "uint256",
							"name": "createdAt",
							"type": "uint256"
						}
					],
					"name": "BuyItemSuccessful",
					"type": "event"
				},
				{
					"anonymous": false,
					"inputs": [
						{
							"indexed": false,
							"internalType": "uint256",
							"name": "id",
							"type": "uint256"
						},
						{
							"indexed": true,
							"internalType": "uint256",
							"name": "assetId",
							"type": "uint256"
						},
						{
							"indexed": true,
							"internalType": "address",
							"name": "delistBy",
							"type": "address"
						},
						{
							"indexed": false,
							"internalType": "uint256",
							"name": "createdAt",
							"type": "uint256"
						}
					],
					"name": "DelistItemSuccessful",
					"type": "event"
				},
				{
					"anonymous": false,
					"inputs": [
						{
							"indexed": true,
							"internalType": "uint256",
							"name": "itemId",
							"type": "uint256"
						},
						{
							"indexed": true,
							"internalType": "uint256",
							"name": "tokenId",
							"type": "uint256"
						},
						{
							"indexed": false,
							"internalType": "address",
							"name": "seller",
							"type": "address"
						},
						{
							"indexed": false,
							"internalType": "address",
							"name": "owner",
							"type": "address"
						},
						{
							"indexed": false,
							"internalType": "uint256",
							"name": "price",
							"type": "uint256"
						}
					],
					"name": "MarketItemCreated",
					"type": "event"
				},
				{
					"anonymous": false,
					"inputs": [
						{
							"indexed": true,
							"internalType": "address",
							"name": "previousOwner",
							"type": "address"
						},
						{
							"indexed": true,
							"internalType": "address",
							"name": "newOwner",
							"type": "address"
						}
					],
					"name": "OwnershipTransferred",
					"type": "event"
				},
				{
					"anonymous": false,
					"inputs": [
						{
							"indexed": false,
							"internalType": "address",
							"name": "nftAddress",
							"type": "address"
						},
						{
							"indexed": false,
							"internalType": "bytes32",
							"name": "id",
							"type": "bytes32"
						},
						{
							"indexed": true,
							"internalType": "uint256",
							"name": "assetId",
							"type": "uint256"
						},
						{
							"indexed": false,
							"internalType": "uint256",
							"name": "price",
							"type": "uint256"
						},
						{
							"indexed": true,
							"internalType": "address",
							"name": "seller",
							"type": "address"
						},
						{
							"indexed": false,
							"internalType": "string",
							"name": "currency",
							"type": "string"
						},
						{
							"indexed": false,
							"internalType": "uint256",
							"name": "createdAt",
							"type": "uint256"
						}
					],
					"name": "SellItemSuccessful",
					"type": "event"
				},
				{
					"inputs": [],
					"name": "ERC721_Interface",
					"outputs": [
						{
							"internalType": "bytes4",
							"name": "",
							"type": "bytes4"
						}
					],
					"stateMutability": "view",
					"type": "function"
				},
				{
					"inputs": [
						{
							"internalType": "uint256",
							"name": "",
							"type": "uint256"
						}
					],
					"name": "allItems",
					"outputs": [
						{
							"internalType": "uint256",
							"name": "itemId",
							"type": "uint256"
						},
						{
							"internalType": "uint256",
							"name": "tokenId",
							"type": "uint256"
						},
						{
							"internalType": "address",
							"name": "seller",
							"type": "address"
						},
						{
							"internalType": "address",
							"name": "owner",
							"type": "address"
						},
						{
							"internalType": "uint256",
							"name": "price",
							"type": "uint256"
						},
						{
							"internalType": "enum MarketplaceStorage.ItemStatus",
							"name": "status",
							"type": "uint8"
						}
					],
					"stateMutability": "view",
					"type": "function"
				},
				{
					"inputs": [],
					"name": "antaFeePercent",
					"outputs": [
						{
							"internalType": "uint8",
							"name": "",
							"type": "uint8"
						}
					],
					"stateMutability": "view",
					"type": "function"
				},
				{
					"inputs": [],
					"name": "bnbFeePercent",
					"outputs": [
						{
							"internalType": "uint8",
							"name": "",
							"type": "uint8"
						}
					],
					"stateMutability": "view",
					"type": "function"
				},
				{
					"inputs": [
						{
							"internalType": "uint256",
							"name": "tokenId",
							"type": "uint256"
						},
						{
							"internalType": "uint256",
							"name": "price",
							"type": "uint256"
						}
					],
					"name": "createMarketItem",
					"outputs": [],
					"stateMutability": "payable",
					"type": "function"
				},
				{
					"inputs": [
						{
							"internalType": "uint256",
							"name": "itemId",
							"type": "uint256"
						},
						{
							"internalType": "uint256",
							"name": "amount",
							"type": "uint256"
						}
					],
					"name": "createMarketSale",
					"outputs": [],
					"stateMutability": "nonpayable",
					"type": "function"
				},
				{
					"inputs": [
						{
							"internalType": "uint256",
							"name": "itemId",
							"type": "uint256"
						}
					],
					"name": "delistItem",
					"outputs": [],
					"stateMutability": "nonpayable",
					"type": "function"
				},
				{
					"inputs": [],
					"name": "factory",
					"outputs": [
						{
							"internalType": "contract IFactory",
							"name": "",
							"type": "address"
						}
					],
					"stateMutability": "view",
					"type": "function"
				},
				{
					"inputs": [
						{
							"internalType": "uint256",
							"name": "marketItemId",
							"type": "uint256"
						}
					],
					"name": "getMarketItem",
					"outputs": [
						{
							"components": [
								{
									"internalType": "uint256",
									"name": "itemId",
									"type": "uint256"
								},
								{
									"internalType": "uint256",
									"name": "tokenId",
									"type": "uint256"
								},
								{
									"internalType": "address",
									"name": "seller",
									"type": "address"
								},
								{
									"internalType": "address",
									"name": "owner",
									"type": "address"
								},
								{
									"internalType": "uint256",
									"name": "price",
									"type": "uint256"
								},
								{
									"internalType": "enum MarketplaceStorage.ItemStatus",
									"name": "status",
									"type": "uint8"
								}
							],
							"internalType": "struct MarketplaceStorage.MarketItem",
							"name": "",
							"type": "tuple"
						}
					],
					"stateMutability": "view",
					"type": "function"
				},
				{
					"inputs": [
						{
							"internalType": "address",
							"name": "",
							"type": "address"
						},
						{
							"internalType": "uint256",
							"name": "",
							"type": "uint256"
						}
					],
					"name": "items",
					"outputs": [
						{
							"internalType": "uint256",
							"name": "itemId",
							"type": "uint256"
						},
						{
							"internalType": "uint256",
							"name": "tokenId",
							"type": "uint256"
						},
						{
							"internalType": "address",
							"name": "seller",
							"type": "address"
						},
						{
							"internalType": "address",
							"name": "owner",
							"type": "address"
						},
						{
							"internalType": "uint256",
							"name": "price",
							"type": "uint256"
						},
						{
							"internalType": "enum MarketplaceStorage.ItemStatus",
							"name": "status",
							"type": "uint8"
						}
					],
					"stateMutability": "view",
					"type": "function"
				},
				{
					"inputs": [],
					"name": "mainNFTs",
					"outputs": [
						{
							"internalType": "contract IERC721",
							"name": "",
							"type": "address"
						}
					],
					"stateMutability": "view",
					"type": "function"
				},
				{
					"inputs": [],
					"name": "mainToken",
					"outputs": [
						{
							"internalType": "contract IERC20",
							"name": "",
							"type": "address"
						}
					],
					"stateMutability": "view",
					"type": "function"
				},
				{
					"inputs": [],
					"name": "owner",
					"outputs": [
						{
							"internalType": "address",
							"name": "",
							"type": "address"
						}
					],
					"stateMutability": "view",
					"type": "function"
				},
				{
					"inputs": [],
					"name": "renounceOwnership",
					"outputs": [],
					"stateMutability": "nonpayable",
					"type": "function"
				},
				{
					"inputs": [
						{
							"internalType": "address",
							"name": "_address",
							"type": "address"
						}
					],
					"name": "setFactory",
					"outputs": [],
					"stateMutability": "nonpayable",
					"type": "function"
				},
				{
					"inputs": [
						{
							"internalType": "address",
							"name": "_address",
							"type": "address"
						}
					],
					"name": "setMainNFT",
					"outputs": [],
					"stateMutability": "nonpayable",
					"type": "function"
				},
				{
					"inputs": [
						{
							"internalType": "address",
							"name": "_address",
							"type": "address"
						}
					],
					"name": "setMainToken",
					"outputs": [],
					"stateMutability": "nonpayable",
					"type": "function"
				},
				{
					"inputs": [
						{
							"internalType": "address",
							"name": "newOwner",
							"type": "address"
						}
					],
					"name": "transferOwnership",
					"outputs": [],
					"stateMutability": "nonpayable",
					"type": "function"
				}
			],
			"devdoc": {
				"kind": "dev",
				"methods": {
					"owner()": {
						"details": "Returns the address of the current owner."
					},
					"renounceOwnership()": {
						"details": "Leaves the contract without owner. It will not be possible to call `onlyOwner` functions anymore. Can only be called by the current owner. NOTE: Renouncing ownership will leave the contract without an owner, thereby removing any functionality that is only available to the owner."
					},
					"transferOwnership(address)": {
						"details": "Transfers ownership of the contract to a new account (`newOwner`). Can only be called by the current owner."
					}
				},
				"version": 1
			},
			"evm": {
				"assembly": "    /* \"contracts/Marketplace2/Marketplace.sol\":17108:21401  contract NFTMarket is ReentrancyGuard,MarketplaceStorage, Ownable {... */\n  mstore(0x40, 0x80)\n    /* \"contracts/Marketplace2/Marketplace.sol\":17354:17556  constructor(address _mainToken, address _mainNFT, address _mainFactory ) payable {... */\n  mload(0x40)\n  sub(codesize, bytecodeSize)\n  dup1\n  bytecodeSize\n  dup4\n  codecopy\n  dup2\n  dup2\n  add\n  0x40\n  mstore\n  dup2\n  add\n  swap1\n  tag_1\n  swap2\n  swap1\n  tag_2\n  jump\t// in\ntag_1:\n    /* \"contracts/Marketplace2/Marketplace.sol\":14122:14123  1 */\n  0x01\n    /* \"contracts/Marketplace2/Marketplace.sol\":14227:14234  _status */\n  0x00\n    /* \"contracts/Marketplace2/Marketplace.sol\":14227:14249  _status = _NOT_ENTERED */\n  dup2\n  swap1\n  sstore\n  pop\n    /* \"contracts/Marketplace2/Marketplace.sol\":1561:1593  _transferOwnership(_msgSender()) */\n  tag_8\n    /* \"contracts/Marketplace2/Marketplace.sol\":1580:1592  _msgSender() */\n  tag_9\n    /* \"contracts/Marketplace2/Marketplace.sol\":1580:1590  _msgSender */\n  shl(0x20, tag_10)\n    /* \"contracts/Marketplace2/Marketplace.sol\":1580:1592  _msgSender() */\n  0x20\n  shr\n  jump\t// in\ntag_9:\n    /* \"contracts/Marketplace2/Marketplace.sol\":1561:1579  _transferOwnership */\n  shl(0x20, tag_11)\n    /* \"contracts/Marketplace2/Marketplace.sol\":1561:1593  _transferOwnership(_msgSender()) */\n  0x20\n  shr\n  jump\t// in\ntag_8:\n    /* \"contracts/Marketplace2/Marketplace.sol\":17462:17472  _mainToken */\n  dup3\n    /* \"contracts/Marketplace2/Marketplace.sol\":17443:17452  mainToken */\n  0x03\n  0x00\n    /* \"contracts/Marketplace2/Marketplace.sol\":17443:17473  mainToken = IERC20(_mainToken) */\n  0x0100\n  exp\n  dup2\n  sload\n  dup2\n  0xffffffffffffffffffffffffffffffffffffffff\n  mul\n  not\n  and\n  swap1\n  dup4\n  0xffffffffffffffffffffffffffffffffffffffff\n  and\n  mul\n  or\n  swap1\n  sstore\n  pop\n    /* \"contracts/Marketplace2/Marketplace.sol\":17500:17508  _mainNFT */\n  dup2\n    /* \"contracts/Marketplace2/Marketplace.sol\":17481:17489  mainNFTs */\n  0x05\n  0x00\n    /* \"contracts/Marketplace2/Marketplace.sol\":17481:17509  mainNFTs = IERC721(_mainNFT) */\n  0x0100\n  exp\n  dup2\n  sload\n  dup2\n  0xffffffffffffffffffffffffffffffffffffffff\n  mul\n  not\n  and\n  swap1\n  dup4\n  0xffffffffffffffffffffffffffffffffffffffff\n  and\n  mul\n  or\n  swap1\n  sstore\n  pop\n    /* \"contracts/Marketplace2/Marketplace.sol\":17536:17548  _mainFactory */\n  dup1\n    /* \"contracts/Marketplace2/Marketplace.sol\":17517:17524  factory */\n  0x04\n  0x00\n    /* \"contracts/Marketplace2/Marketplace.sol\":17517:17549  factory = IFactory(_mainFactory) */\n  0x0100\n  exp\n  dup2\n  sload\n  dup2\n  0xffffffffffffffffffffffffffffffffffffffff\n  mul\n  not\n  and\n  swap1\n  dup4\n  0xffffffffffffffffffffffffffffffffffffffff\n  and\n  mul\n  or\n  swap1\n  sstore\n  pop\n    /* \"contracts/Marketplace2/Marketplace.sol\":17354:17556  constructor(address _mainToken, address _mainNFT, address _mainFactory ) payable {... */\n  pop\n  pop\n  pop\n    /* \"contracts/Marketplace2/Marketplace.sol\":17108:21401  contract NFTMarket is ReentrancyGuard,MarketplaceStorage, Ownable {... */\n  jump(tag_13)\n    /* \"contracts/Marketplace2/Marketplace.sol\":554:650  function _msgSender() internal view virtual returns (address) {... */\ntag_10:\n    /* \"contracts/Marketplace2/Marketplace.sol\":607:614  address */\n  0x00\n    /* \"contracts/Marketplace2/Marketplace.sol\":633:643  msg.sender */\n  caller\n    /* \"contracts/Marketplace2/Marketplace.sol\":626:643  return msg.sender */\n  swap1\n  pop\n    /* \"contracts/Marketplace2/Marketplace.sol\":554:650  function _msgSender() internal view virtual returns (address) {... */\n  swap1\n  jump\t// out\n    /* \"contracts/Marketplace2/Marketplace.sol\":2910:3097  function _transferOwnership(address newOwner) internal virtual {... */\ntag_11:\n    /* \"contracts/Marketplace2/Marketplace.sol\":2983:2999  address oldOwner */\n  0x00\n    /* \"contracts/Marketplace2/Marketplace.sol\":3002:3008  _owner */\n  0x06\n  0x00\n  swap1\n  sload\n  swap1\n  0x0100\n  exp\n  swap1\n  div\n  0xffffffffffffffffffffffffffffffffffffffff\n  and\n    /* \"contracts/Marketplace2/Marketplace.sol\":2983:3008  address oldOwner = _owner */\n  swap1\n  pop\n    /* \"contracts/Marketplace2/Marketplace.sol\":3027:3035  newOwner */\n  dup2\n    /* \"contracts/Marketplace2/Marketplace.sol\":3018:3024  _owner */\n  0x06\n  0x00\n    /* \"contracts/Marketplace2/Marketplace.sol\":3018:3035  _owner = newOwner */\n  0x0100\n  exp\n  dup2\n  sload\n  dup2\n  0xffffffffffffffffffffffffffffffffffffffff\n  mul\n  not\n  and\n  swap1\n  dup4\n  0xffffffffffffffffffffffffffffffffffffffff\n  and\n  mul\n  or\n  swap1\n  sstore\n  pop\n    /* \"contracts/Marketplace2/Marketplace.sol\":3081:3089  newOwner */\n  dup2\n    /* \"contracts/Marketplace2/Marketplace.sol\":3050:3090  OwnershipTransferred(oldOwner, newOwner) */\n  0xffffffffffffffffffffffffffffffffffffffff\n  and\n    /* \"contracts/Marketplace2/Marketplace.sol\":3071:3079  oldOwner */\n  dup2\n    /* \"contracts/Marketplace2/Marketplace.sol\":3050:3090  OwnershipTransferred(oldOwner, newOwner) */\n  0xffffffffffffffffffffffffffffffffffffffff\n  and\n  0x8be0079c531659141344cd1fd0a4f28419497f9722a3daafe3b4186f6b6457e0\n  mload(0x40)\n  mload(0x40)\n  dup1\n  swap2\n  sub\n  swap1\n  log3\n    /* \"contracts/Marketplace2/Marketplace.sol\":2973:3097  {... */\n  pop\n    /* \"contracts/Marketplace2/Marketplace.sol\":2910:3097  function _transferOwnership(address newOwner) internal virtual {... */\n  pop\n  jump\t// out\n    /* \"#utility.yul\":88:205   */\ntag_17:\n    /* \"#utility.yul\":197:198   */\n  0x00\n    /* \"#utility.yul\":194:195   */\n  dup1\n    /* \"#utility.yul\":187:199   */\n  revert\n    /* \"#utility.yul\":334:460   */\ntag_19:\n    /* \"#utility.yul\":371:378   */\n  0x00\n    /* \"#utility.yul\":411:453   */\n  0xffffffffffffffffffffffffffffffffffffffff\n    /* \"#utility.yul\":404:409   */\n  dup3\n    /* \"#utility.yul\":400:454   */\n  and\n    /* \"#utility.yul\":389:454   */\n  swap1\n  pop\n    /* \"#utility.yul\":334:460   */\n  swap2\n  swap1\n  pop\n  jump\t// out\n    /* \"#utility.yul\":466:562   */\ntag_20:\n    /* \"#utility.yul\":503:510   */\n  0x00\n    /* \"#utility.yul\":532:556   */\n  tag_29\n    /* \"#utility.yul\":550:555   */\n  dup3\n    /* \"#utility.yul\":532:556   */\n  tag_19\n  jump\t// in\ntag_29:\n    /* \"#utility.yul\":521:556   */\n  swap1\n  pop\n    /* \"#utility.yul\":466:562   */\n  swap2\n  swap1\n  pop\n  jump\t// out\n    /* \"#utility.yul\":568:690   */\ntag_21:\n    /* \"#utility.yul\":641:665   */\n  tag_31\n    /* \"#utility.yul\":659:664   */\n  dup2\n    /* \"#utility.yul\":641:665   */\n  tag_20\n  jump\t// in\ntag_31:\n    /* \"#utility.yul\":634:639   */\n  dup2\n    /* \"#utility.yul\":631:666   */\n  eq\n    /* \"#utility.yul\":621:684   */\n  tag_32\n  jumpi\n    /* \"#utility.yul\":680:681   */\n  0x00\n    /* \"#utility.yul\":677:678   */\n  dup1\n    /* \"#utility.yul\":670:682   */\n  revert\n    /* \"#utility.yul\":621:684   */\ntag_32:\n    /* \"#utility.yul\":568:690   */\n  pop\n  jump\t// out\n    /* \"#utility.yul\":696:839   */\ntag_22:\n    /* \"#utility.yul\":753:758   */\n  0x00\n    /* \"#utility.yul\":784:790   */\n  dup2\n    /* \"#utility.yul\":778:791   */\n  mload\n    /* \"#utility.yul\":769:791   */\n  swap1\n  pop\n    /* \"#utility.yul\":800:833   */\n  tag_34\n    /* \"#utility.yul\":827:832   */\n  dup2\n    /* \"#utility.yul\":800:833   */\n  tag_21\n  jump\t// in\ntag_34:\n    /* \"#utility.yul\":696:839   */\n  swap3\n  swap2\n  pop\n  pop\n  jump\t// out\n    /* \"#utility.yul\":845:1508   */\ntag_2:\n    /* \"#utility.yul\":933:939   */\n  0x00\n    /* \"#utility.yul\":941:947   */\n  dup1\n    /* \"#utility.yul\":949:955   */\n  0x00\n    /* \"#utility.yul\":998:1000   */\n  0x60\n    /* \"#utility.yul\":986:995   */\n  dup5\n    /* \"#utility.yul\":977:984   */\n  dup7\n    /* \"#utility.yul\":973:996   */\n  sub\n    /* \"#utility.yul\":969:1001   */\n  slt\n    /* \"#utility.yul\":966:1085   */\n  iszero\n  tag_36\n  jumpi\n    /* \"#utility.yul\":1004:1083   */\n  tag_37\n  tag_17\n  jump\t// in\ntag_37:\n    /* \"#utility.yul\":966:1085   */\ntag_36:\n    /* \"#utility.yul\":1124:1125   */\n  0x00\n    /* \"#utility.yul\":1149:1213   */\n  tag_38\n    /* \"#utility.yul\":1205:1212   */\n  dup7\n    /* \"#utility.yul\":1196:1202   */\n  dup3\n    /* \"#utility.yul\":1185:1194   */\n  dup8\n    /* \"#utility.yul\":1181:1203   */\n  add\n    /* \"#utility.yul\":1149:1213   */\n  tag_22\n  jump\t// in\ntag_38:\n    /* \"#utility.yul\":1139:1213   */\n  swap4\n  pop\n    /* \"#utility.yul\":1095:1223   */\n  pop\n    /* \"#utility.yul\":1262:1264   */\n  0x20\n    /* \"#utility.yul\":1288:1352   */\n  tag_39\n    /* \"#utility.yul\":1344:1351   */\n  dup7\n    /* \"#utility.yul\":1335:1341   */\n  dup3\n    /* \"#utility.yul\":1324:1333   */\n  dup8\n    /* \"#utility.yul\":1320:1342   */\n  add\n    /* \"#utility.yul\":1288:1352   */\n  tag_22\n  jump\t// in\ntag_39:\n    /* \"#utility.yul\":1278:1352   */\n  swap3\n  pop\n    /* \"#utility.yul\":1233:1362   */\n  pop\n    /* \"#utility.yul\":1401:1403   */\n  0x40\n    /* \"#utility.yul\":1427:1491   */\n  tag_40\n    /* \"#utility.yul\":1483:1490   */\n  dup7\n    /* \"#utility.yul\":1474:1480   */\n  dup3\n    /* \"#utility.yul\":1463:1472   */\n  dup8\n    /* \"#utility.yul\":1459:1481   */\n  add\n    /* \"#utility.yul\":1427:1491   */\n  tag_22\n  jump\t// in\ntag_40:\n    /* \"#utility.yul\":1417:1491   */\n  swap2\n  pop\n    /* \"#utility.yul\":1372:1501   */\n  pop\n    /* \"#utility.yul\":845:1508   */\n  swap3\n  pop\n  swap3\n  pop\n  swap3\n  jump\t// out\n    /* \"contracts/Marketplace2/Marketplace.sol\":17108:21401  contract NFTMarket is ReentrancyGuard,MarketplaceStorage, Ownable {... */\ntag_13:\n  dataSize(sub_0)\n  dup1\n  dataOffset(sub_0)\n  0x00\n  codecopy\n  0x00\n  return\nstop\n\nsub_0: assembly {\n        /* \"contracts/Marketplace2/Marketplace.sol\":17108:21401  contract NFTMarket is ReentrancyGuard,MarketplaceStorage, Ownable {... */\n      mstore(0x40, 0x80)\n      jumpi(tag_1, lt(calldatasize, 0x04))\n      shr(0xe0, calldataload(0x00))\n      dup1\n      0x85a8b36c\n      gt\n      tag_20\n      jumpi\n      dup1\n      0xc45a0155\n      gt\n      tag_21\n      jumpi\n      dup1\n      0xc45a0155\n      eq\n      tag_15\n      jumpi\n      dup1\n      0xc7be7a49\n      eq\n      tag_16\n      jumpi\n      dup1\n      0xf2fde38b\n      eq\n      tag_17\n      jumpi\n      dup1\n      0xf55de0c7\n      eq\n      tag_18\n      jumpi\n      dup1\n      0xff68fa6e\n      eq\n      tag_19\n      jumpi\n      jump(tag_1)\n    tag_21:\n      dup1\n      0x85a8b36c\n      eq\n      tag_11\n      jumpi\n      dup1\n      0x8da5cb5b\n      eq\n      tag_12\n      jumpi\n      dup1\n      0xa1c11ca8\n      eq\n      tag_13\n      jumpi\n      dup1\n      0xb7a60c7e\n      eq\n      tag_14\n      jumpi\n      jump(tag_1)\n    tag_20:\n      dup1\n      0x361c1995\n      gt\n      tag_22\n      jumpi\n      dup1\n      0x361c1995\n      eq\n      tag_6\n      jumpi\n      dup1\n      0x3fc15f15\n      eq\n      tag_7\n      jumpi\n      dup1\n      0x5bb47808\n      eq\n      tag_8\n      jumpi\n      dup1\n      0x5c80a435\n      eq\n      tag_9\n      jumpi\n      dup1\n      0x715018a6\n      eq\n      tag_10\n      jumpi\n      jump(tag_1)\n    tag_22:\n      dup1\n      0x10061631\n      eq\n      tag_2\n      jumpi\n      dup1\n      0x15b12494\n      eq\n      tag_3\n      jumpi\n      dup1\n      0x27ce464e\n      eq\n      tag_4\n      jumpi\n      dup1\n      0x2b4c32be\n      eq\n      tag_5\n      jumpi\n    tag_1:\n      0x00\n      dup1\n      revert\n        /* \"contracts/Marketplace2/Marketplace.sol\":19525:20283  function delistItem(uint256 itemId) public {... */\n    tag_2:\n      callvalue\n      dup1\n      iszero\n      tag_23\n      jumpi\n      0x00\n      dup1\n      revert\n    tag_23:\n      pop\n      tag_24\n      0x04\n      dup1\n      calldatasize\n      sub\n      dup2\n      add\n      swap1\n      tag_25\n      swap2\n      swap1\n      tag_26\n      jump\t// in\n    tag_25:\n      tag_27\n      jump\t// in\n    tag_24:\n      stop\n        /* \"contracts/Marketplace2/Marketplace.sol\":17814:17916  function setMainNFT(address _address) external onlyOwner {... */\n    tag_3:\n      callvalue\n      dup1\n      iszero\n      tag_28\n      jumpi\n      0x00\n      dup1\n      revert\n    tag_28:\n      pop\n      tag_29\n      0x04\n      dup1\n      calldatasize\n      sub\n      dup2\n      add\n      swap1\n      tag_30\n      swap2\n      swap1\n      tag_31\n      jump\t// in\n    tag_30:\n      tag_32\n      jump\t// in\n    tag_29:\n      stop\n        /* \"contracts/Marketplace2/Marketplace.sol\":17705:17809  function setMainToken(address _address) external onlyOwner {... */\n    tag_4:\n      callvalue\n      dup1\n      iszero\n      tag_33\n      jumpi\n      0x00\n      dup1\n      revert\n    tag_33:\n      pop\n      tag_34\n      0x04\n      dup1\n      calldatasize\n      sub\n      dup2\n      add\n      swap1\n      tag_35\n      swap2\n      swap1\n      tag_31\n      jump\t// in\n    tag_35:\n      tag_36\n      jump\t// in\n    tag_34:\n      stop\n        /* \"contracts/Marketplace2/Marketplace.sol\":15911:15971  bytes4 public constant ERC721_Interface = bytes4(0x80ac58cd) */\n    tag_5:\n      callvalue\n      dup1\n      iszero\n      tag_37\n      jumpi\n      0x00\n      dup1\n      revert\n    tag_37:\n      pop\n      tag_38\n      tag_39\n      jump\t// in\n    tag_38:\n      mload(0x40)\n      tag_40\n      swap2\n      swap1\n      tag_41\n      jump\t// in\n    tag_40:\n      mload(0x40)\n      dup1\n      swap2\n      sub\n      swap1\n      return\n        /* \"contracts/Marketplace2/Marketplace.sol\":18027:18701  function createMarketItem(... */\n    tag_6:\n      tag_42\n      0x04\n      dup1\n      calldatasize\n      sub\n      dup2\n      add\n      swap1\n      tag_43\n      swap2\n      swap1\n      tag_44\n      jump\t// in\n    tag_43:\n      tag_45\n      jump\t// in\n    tag_42:\n      stop\n        /* \"contracts/Marketplace2/Marketplace.sol\":16172:16195  IERC20 public mainToken */\n    tag_7:\n      callvalue\n      dup1\n      iszero\n      tag_46\n      jumpi\n      0x00\n      dup1\n      revert\n    tag_46:\n      pop\n      tag_47\n      tag_48\n      jump\t// in\n    tag_47:\n      mload(0x40)\n      tag_49\n      swap2\n      swap1\n      tag_50\n      jump\t// in\n    tag_49:\n      mload(0x40)\n      dup1\n      swap2\n      sub\n      swap1\n      return\n        /* \"contracts/Marketplace2/Marketplace.sol\":17921:18023  function setFactory(address _address) external onlyOwner {... */\n    tag_8:\n      callvalue\n      dup1\n      iszero\n      tag_51\n      jumpi\n      0x00\n      dup1\n      revert\n    tag_51:\n      pop\n      tag_52\n      0x04\n      dup1\n      calldatasize\n      sub\n      dup2\n      add\n      swap1\n      tag_53\n      swap2\n      swap1\n      tag_31\n      jump\t// in\n    tag_53:\n      tag_54\n      jump\t// in\n    tag_52:\n      stop\n        /* \"contracts/Marketplace2/Marketplace.sol\":16102:16165  mapping(address => mapping(uint256 => MarketItem)) public items */\n    tag_9:\n      callvalue\n      dup1\n      iszero\n      tag_55\n      jumpi\n      0x00\n      dup1\n      revert\n    tag_55:\n      pop\n      tag_56\n      0x04\n      dup1\n      calldatasize\n      sub\n      dup2\n      add\n      swap1\n      tag_57\n      swap2\n      swap1\n      tag_58\n      jump\t// in\n    tag_57:\n      tag_59\n      jump\t// in\n    tag_56:\n      mload(0x40)\n      tag_60\n      swap7\n      swap6\n      swap5\n      swap4\n      swap3\n      swap2\n      swap1\n      tag_61\n      jump\t// in\n    tag_60:\n      mload(0x40)\n      dup1\n      swap2\n      sub\n      swap1\n      return\n        /* \"contracts/Marketplace2/Marketplace.sol\":2308:2409  function renounceOwnership() public virtual onlyOwner {... */\n    tag_10:\n      callvalue\n      dup1\n      iszero\n      tag_62\n      jumpi\n      0x00\n      dup1\n      revert\n    tag_62:\n      pop\n      tag_63\n      tag_64\n      jump\t// in\n    tag_63:\n      stop\n        /* \"contracts/Marketplace2/Marketplace.sol\":16260:16286  uint8 public bnbFeePercent */\n    tag_11:\n      callvalue\n      dup1\n      iszero\n      tag_65\n      jumpi\n      0x00\n      dup1\n      revert\n    tag_65:\n      pop\n      tag_66\n      tag_67\n      jump\t// in\n    tag_66:\n      mload(0x40)\n      tag_68\n      swap2\n      swap1\n      tag_69\n      jump\t// in\n    tag_68:\n      mload(0x40)\n      dup1\n      swap2\n      sub\n      swap1\n      return\n        /* \"contracts/Marketplace2/Marketplace.sol\":1676:1761  function owner() public view virtual returns (address) {... */\n    tag_12:\n      callvalue\n      dup1\n      iszero\n      tag_70\n      jumpi\n      0x00\n      dup1\n      revert\n    tag_70:\n      pop\n      tag_71\n      tag_72\n      jump\t// in\n    tag_71:\n      mload(0x40)\n      tag_73\n      swap2\n      swap1\n      tag_74\n      jump\t// in\n    tag_73:\n      mload(0x40)\n      dup1\n      swap2\n      sub\n      swap1\n      return\n        /* \"contracts/Marketplace2/Marketplace.sol\":18704:19521  function createMarketSale(... */\n    tag_13:\n      callvalue\n      dup1\n      iszero\n      tag_75\n      jumpi\n      0x00\n      dup1\n      revert\n    tag_75:\n      pop\n      tag_76\n      0x04\n      dup1\n      calldatasize\n      sub\n      dup2\n      add\n      swap1\n      tag_77\n      swap2\n      swap1\n      tag_44\n      jump\t// in\n    tag_77:\n      tag_78\n      jump\t// in\n    tag_76:\n      stop\n        /* \"contracts/Marketplace2/Marketplace.sol\":16292:16319  uint8 public antaFeePercent */\n    tag_14:\n      callvalue\n      dup1\n      iszero\n      tag_79\n      jumpi\n      0x00\n      dup1\n      revert\n    tag_79:\n      pop\n      tag_80\n      tag_81\n      jump\t// in\n    tag_80:\n      mload(0x40)\n      tag_82\n      swap2\n      swap1\n      tag_69\n      jump\t// in\n    tag_82:\n      mload(0x40)\n      dup1\n      swap2\n      sub\n      swap1\n      return\n        /* \"contracts/Marketplace2/Marketplace.sol\":16201:16224  IFactory public factory */\n    tag_15:\n      callvalue\n      dup1\n      iszero\n      tag_83\n      jumpi\n      0x00\n      dup1\n      revert\n    tag_83:\n      pop\n      tag_84\n      tag_85\n      jump\t// in\n    tag_84:\n      mload(0x40)\n      tag_86\n      swap2\n      swap1\n      tag_87\n      jump\t// in\n    tag_86:\n      mload(0x40)\n      dup1\n      swap2\n      sub\n      swap1\n      return\n        /* \"contracts/Marketplace2/Marketplace.sol\":17562:17699  function getMarketItem(uint256 marketItemId) public view returns (MarketItem memory) {... */\n    tag_16:\n      callvalue\n      dup1\n      iszero\n      tag_88\n      jumpi\n      0x00\n      dup1\n      revert\n    tag_88:\n      pop\n      tag_89\n      0x04\n      dup1\n      calldatasize\n      sub\n      dup2\n      add\n      swap1\n      tag_90\n      swap2\n      swap1\n      tag_26\n      jump\t// in\n    tag_90:\n      tag_91\n      jump\t// in\n    tag_89:\n      mload(0x40)\n      tag_92\n      swap2\n      swap1\n      tag_93\n      jump\t// in\n    tag_92:\n      mload(0x40)\n      dup1\n      swap2\n      sub\n      swap1\n      return\n        /* \"contracts/Marketplace2/Marketplace.sol\":2558:2756  function transferOwnership(address newOwner) public virtual onlyOwner {... */\n    tag_17:\n      callvalue\n      dup1\n      iszero\n      tag_94\n      jumpi\n      0x00\n      dup1\n      revert\n    tag_94:\n      pop\n      tag_95\n      0x04\n      dup1\n      calldatasize\n      sub\n      dup2\n      add\n      swap1\n      tag_96\n      swap2\n      swap1\n      tag_31\n      jump\t// in\n    tag_96:\n      tag_97\n      jump\t// in\n    tag_95:\n      stop\n        /* \"contracts/Marketplace2/Marketplace.sol\":16230:16253  IERC721 public mainNFTs */\n    tag_18:\n      callvalue\n      dup1\n      iszero\n      tag_98\n      jumpi\n      0x00\n      dup1\n      revert\n    tag_98:\n      pop\n      tag_99\n      tag_100\n      jump\t// in\n    tag_99:\n      mload(0x40)\n      tag_101\n      swap2\n      swap1\n      tag_102\n      jump\t// in\n    tag_101:\n      mload(0x40)\n      dup1\n      swap2\n      sub\n      swap1\n      return\n        /* \"contracts/Marketplace2/Marketplace.sol\":15978:16025  mapping (uint256 => MarketItem) public allItems */\n    tag_19:\n      callvalue\n      dup1\n      iszero\n      tag_103\n      jumpi\n      0x00\n      dup1\n      revert\n    tag_103:\n      pop\n      tag_104\n      0x04\n      dup1\n      calldatasize\n      sub\n      dup2\n      add\n      swap1\n      tag_105\n      swap2\n      swap1\n      tag_26\n      jump\t// in\n    tag_105:\n      tag_106\n      jump\t// in\n    tag_104:\n      mload(0x40)\n      tag_107\n      swap7\n      swap6\n      swap5\n      swap4\n      swap3\n      swap2\n      swap1\n      tag_61\n      jump\t// in\n    tag_107:\n      mload(0x40)\n      dup1\n      swap2\n      sub\n      swap1\n      return\n        /* \"contracts/Marketplace2/Marketplace.sol\":19525:20283  function delistItem(uint256 itemId) public {... */\n    tag_27:\n        /* \"contracts/Marketplace2/Marketplace.sol\":19578:19594  address deleteBy */\n      0x00\n        /* \"contracts/Marketplace2/Marketplace.sol\":19597:19607  msg.sender */\n      caller\n        /* \"contracts/Marketplace2/Marketplace.sol\":19578:19607  address deleteBy = msg.sender */\n      swap1\n      pop\n        /* \"contracts/Marketplace2/Marketplace.sol\":19617:19639  MarketItem memory item */\n      0x00\n        /* \"contracts/Marketplace2/Marketplace.sol\":19642:19656  idToMarketItem */\n      0x09\n        /* \"contracts/Marketplace2/Marketplace.sol\":19642:19664  idToMarketItem[itemId] */\n      0x00\n        /* \"contracts/Marketplace2/Marketplace.sol\":19657:19663  itemId */\n      dup5\n        /* \"contracts/Marketplace2/Marketplace.sol\":19642:19664  idToMarketItem[itemId] */\n      dup2\n      mstore\n      0x20\n      add\n      swap1\n      dup2\n      mstore\n      0x20\n      add\n      0x00\n      keccak256\n        /* \"contracts/Marketplace2/Marketplace.sol\":19617:19664  MarketItem memory item = idToMarketItem[itemId] */\n      mload(0x40)\n      dup1\n      0xc0\n      add\n      0x40\n      mstore\n      swap1\n      dup2\n      0x00\n      dup3\n      add\n      sload\n      dup2\n      mstore\n      0x20\n      add\n      0x01\n      dup3\n      add\n      sload\n      dup2\n      mstore\n      0x20\n      add\n      0x02\n      dup3\n      add\n      0x00\n      swap1\n      sload\n      swap1\n      0x0100\n      exp\n      swap1\n      div\n      0xffffffffffffffffffffffffffffffffffffffff\n      and\n      0xffffffffffffffffffffffffffffffffffffffff\n      and\n      0xffffffffffffffffffffffffffffffffffffffff\n      and\n      dup2\n      mstore\n      0x20\n      add\n      0x03\n      dup3\n      add\n      0x00\n      swap1\n      sload\n      swap1\n      0x0100\n      exp\n      swap1\n      div\n      0xffffffffffffffffffffffffffffffffffffffff\n      and\n      0xffffffffffffffffffffffffffffffffffffffff\n      and\n      0xffffffffffffffffffffffffffffffffffffffff\n      and\n      dup2\n      mstore\n      0x20\n      add\n      0x04\n      dup3\n      add\n      sload\n      dup2\n      mstore\n      0x20\n      add\n      0x05\n      dup3\n      add\n      0x00\n      swap1\n      sload\n      swap1\n      0x0100\n      exp\n      swap1\n      div\n      0xff\n      and\n      0x01\n      dup2\n      gt\n      iszero\n      tag_109\n      jumpi\n      tag_110\n      tag_111\n      jump\t// in\n    tag_110:\n    tag_109:\n      0x01\n      dup2\n      gt\n      iszero\n      tag_112\n      jumpi\n      tag_113\n      tag_111\n      jump\t// in\n    tag_113:\n    tag_112:\n      dup2\n      mstore\n      pop\n      pop\n      swap1\n      pop\n        /* \"contracts/Marketplace2/Marketplace.sol\":19699:19700  0 */\n      0x00\n        /* \"contracts/Marketplace2/Marketplace.sol\":19684:19688  item */\n      dup2\n        /* \"contracts/Marketplace2/Marketplace.sol\":19684:19695  item.itemId */\n      0x00\n      add\n      mload\n        /* \"contracts/Marketplace2/Marketplace.sol\":19684:19700  item.itemId != 0 */\n      sub\n        /* \"contracts/Marketplace2/Marketplace.sol\":19676:19724  require(item.itemId != 0, \"Asset not published\") */\n      tag_114\n      jumpi\n      mload(0x40)\n      0x08c379a000000000000000000000000000000000000000000000000000000000\n      dup2\n      mstore\n      0x04\n      add\n      tag_115\n      swap1\n      tag_116\n      jump\t// in\n    tag_115:\n      mload(0x40)\n      dup1\n      swap2\n      sub\n      swap1\n      revert\n    tag_114:\n        /* \"contracts/Marketplace2/Marketplace.sol\":19757:19775  ItemStatus.SELLING */\n      0x01\n        /* \"contracts/Marketplace2/Marketplace.sol\":19742:19775  item.status == ItemStatus.SELLING */\n      dup1\n      dup2\n      gt\n      iszero\n      tag_117\n      jumpi\n      tag_118\n      tag_111\n      jump\t// in\n    tag_118:\n    tag_117:\n        /* \"contracts/Marketplace2/Marketplace.sol\":19742:19746  item */\n      dup2\n        /* \"contracts/Marketplace2/Marketplace.sol\":19742:19753  item.status */\n      0xa0\n      add\n      mload\n        /* \"contracts/Marketplace2/Marketplace.sol\":19742:19775  item.status == ItemStatus.SELLING */\n      0x01\n      dup2\n      gt\n      iszero\n      tag_119\n      jumpi\n      tag_120\n      tag_111\n      jump\t// in\n    tag_120:\n    tag_119:\n      eq\n        /* \"contracts/Marketplace2/Marketplace.sol\":19734:19794  require(item.status == ItemStatus.SELLING, \"Asset delisted\") */\n      tag_121\n      jumpi\n      mload(0x40)\n      0x08c379a000000000000000000000000000000000000000000000000000000000\n      dup2\n      mstore\n      0x04\n      add\n      tag_122\n      swap1\n      tag_123\n      jump\t// in\n    tag_122:\n      mload(0x40)\n      dup1\n      swap2\n      sub\n      swap1\n      revert\n    tag_121:\n        /* \"contracts/Marketplace2/Marketplace.sol\":19805:19819  address seller */\n      0x00\n        /* \"contracts/Marketplace2/Marketplace.sol\":19822:19826  item */\n      dup2\n        /* \"contracts/Marketplace2/Marketplace.sol\":19822:19833  item.seller */\n      0x40\n      add\n      mload\n        /* \"contracts/Marketplace2/Marketplace.sol\":19805:19833  address seller = item.seller */\n      swap1\n      pop\n        /* \"contracts/Marketplace2/Marketplace.sol\":19869:19870  0 */\n      0x00\n        /* \"contracts/Marketplace2/Marketplace.sol\":19851:19871  seller != address(0) */\n      0xffffffffffffffffffffffffffffffffffffffff\n      and\n        /* \"contracts/Marketplace2/Marketplace.sol\":19851:19857  seller */\n      dup2\n        /* \"contracts/Marketplace2/Marketplace.sol\":19851:19871  seller != address(0) */\n      0xffffffffffffffffffffffffffffffffffffffff\n      and\n      sub\n        /* \"contracts/Marketplace2/Marketplace.sol\":19843:19891  require(seller != address(0), \"Invalid address\") */\n      tag_124\n      jumpi\n      mload(0x40)\n      0x08c379a000000000000000000000000000000000000000000000000000000000\n      dup2\n      mstore\n      0x04\n      add\n      tag_125\n      swap1\n      tag_126\n      jump\t// in\n    tag_125:\n      mload(0x40)\n      dup1\n      swap2\n      sub\n      swap1\n      revert\n    tag_124:\n        /* \"contracts/Marketplace2/Marketplace.sol\":19932:19942  msg.sender */\n      caller\n        /* \"contracts/Marketplace2/Marketplace.sol\":19922:19942  seller == msg.sender */\n      0xffffffffffffffffffffffffffffffffffffffff\n      and\n        /* \"contracts/Marketplace2/Marketplace.sol\":19922:19928  seller */\n      dup2\n        /* \"contracts/Marketplace2/Marketplace.sol\":19922:19942  seller == msg.sender */\n      0xffffffffffffffffffffffffffffffffffffffff\n      and\n      eq\n        /* \"contracts/Marketplace2/Marketplace.sol\":19901:19990  require(... */\n      tag_127\n      jumpi\n      mload(0x40)\n      0x08c379a000000000000000000000000000000000000000000000000000000000\n      dup2\n      mstore\n      0x04\n      add\n      tag_128\n      swap1\n      tag_129\n      jump\t// in\n    tag_128:\n      mload(0x40)\n      dup1\n      swap2\n      sub\n      swap1\n      revert\n    tag_127:\n        /* \"contracts/Marketplace2/Marketplace.sol\":20000:20008  mainNFTs */\n      0x05\n      0x00\n      swap1\n      sload\n      swap1\n      0x0100\n      exp\n      swap1\n      div\n      0xffffffffffffffffffffffffffffffffffffffff\n      and\n        /* \"contracts/Marketplace2/Marketplace.sol\":20000:20025  mainNFTs.safeTransferFrom */\n      0xffffffffffffffffffffffffffffffffffffffff\n      and\n      0x42842e0e\n        /* \"contracts/Marketplace2/Marketplace.sol\":20034:20038  this */\n      address\n        /* \"contracts/Marketplace2/Marketplace.sol\":20041:20047  seller */\n      dup4\n        /* \"contracts/Marketplace2/Marketplace.sol\":20049:20055  itemId */\n      dup8\n        /* \"contracts/Marketplace2/Marketplace.sol\":20000:20056  mainNFTs.safeTransferFrom(address(this), seller, itemId) */\n      mload(0x40)\n      dup5\n      0xffffffff\n      and\n      0xe0\n      shl\n      dup2\n      mstore\n      0x04\n      add\n      tag_130\n      swap4\n      swap3\n      swap2\n      swap1\n      tag_131\n      jump\t// in\n    tag_130:\n      0x00\n      mload(0x40)\n      dup1\n      dup4\n      sub\n      dup2\n      0x00\n      dup8\n      dup1\n      extcodesize\n      iszero\n      dup1\n      iszero\n      tag_132\n      jumpi\n      0x00\n      dup1\n      revert\n    tag_132:\n      pop\n      gas\n      call\n      iszero\n      dup1\n      iszero\n      tag_134\n      jumpi\n      returndatasize\n      0x00\n      dup1\n      returndatacopy\n      revert(0x00, returndatasize)\n    tag_134:\n      pop\n      pop\n      pop\n      pop\n        /* \"contracts/Marketplace2/Marketplace.sol\":20080:20096  ItemStatus.AVAIL */\n      0x00\n        /* \"contracts/Marketplace2/Marketplace.sol\":20066:20070  item */\n      dup3\n        /* \"contracts/Marketplace2/Marketplace.sol\":20066:20077  item.status */\n      0xa0\n      add\n        /* \"contracts/Marketplace2/Marketplace.sol\":20066:20096  item.status = ItemStatus.AVAIL */\n      swap1\n      0x01\n      dup2\n      gt\n      iszero\n      tag_135\n      jumpi\n      tag_136\n      tag_111\n      jump\t// in\n    tag_136:\n    tag_135:\n      swap1\n      dup2\n      0x01\n      dup2\n      gt\n      iszero\n      tag_137\n      jumpi\n      tag_138\n      tag_111\n      jump\t// in\n    tag_138:\n    tag_137:\n      dup2\n      mstore\n      pop\n      pop\n        /* \"contracts/Marketplace2/Marketplace.sol\":20113:20127  idToMarketItem */\n      0x09\n        /* \"contracts/Marketplace2/Marketplace.sol\":20113:20135  idToMarketItem[itemId] */\n      0x00\n        /* \"contracts/Marketplace2/Marketplace.sol\":20128:20134  itemId */\n      dup6\n        /* \"contracts/Marketplace2/Marketplace.sol\":20113:20135  idToMarketItem[itemId] */\n      dup2\n      mstore\n      0x20\n      add\n      swap1\n      dup2\n      mstore\n      0x20\n      add\n      0x00\n      keccak256\n      0x00\n        /* \"contracts/Marketplace2/Marketplace.sol\":20106:20135  delete idToMarketItem[itemId] */\n      dup1\n      dup3\n      add\n      0x00\n      swap1\n      sstore\n      0x01\n      dup3\n      add\n      0x00\n      swap1\n      sstore\n      0x02\n      dup3\n      add\n      exp(0x0100, 0x00)\n      dup2\n      sload\n      swap1\n      0xffffffffffffffffffffffffffffffffffffffff\n      mul\n      not\n      and\n      swap1\n      sstore\n      0x03\n      dup3\n      add\n      exp(0x0100, 0x00)\n      dup2\n      sload\n      swap1\n      0xffffffffffffffffffffffffffffffffffffffff\n      mul\n      not\n      and\n      swap1\n      sstore\n      0x04\n      dup3\n      add\n      0x00\n      swap1\n      sstore\n      0x05\n      dup3\n      add\n      exp(0x0100, 0x00)\n      dup2\n      sload\n      swap1\n      0xff\n      mul\n      not\n      and\n      swap1\n      sstore\n      pop\n      pop\n        /* \"contracts/Marketplace2/Marketplace.sol\":20229:20237  deleteBy */\n      dup3\n        /* \"contracts/Marketplace2/Marketplace.sol\":20150:20276  DelistItemSuccessful(... */\n      0xffffffffffffffffffffffffffffffffffffffff\n      and\n        /* \"contracts/Marketplace2/Marketplace.sol\":20209:20215  itemId */\n      dup5\n        /* \"contracts/Marketplace2/Marketplace.sol\":20150:20276  DelistItemSuccessful(... */\n      0x72ffc2a266acba5f77e2b49400103cb61b428f37a97057ebe671e83fddd71e67\n        /* \"contracts/Marketplace2/Marketplace.sol\":20184:20188  item */\n      dup5\n        /* \"contracts/Marketplace2/Marketplace.sol\":20184:20195  item.itemId */\n      0x00\n      add\n      mload\n        /* \"contracts/Marketplace2/Marketplace.sol\":20251:20266  block.timestamp */\n      timestamp\n        /* \"contracts/Marketplace2/Marketplace.sol\":20150:20276  DelistItemSuccessful(... */\n      mload(0x40)\n      tag_139\n      swap3\n      swap2\n      swap1\n      tag_140\n      jump\t// in\n    tag_139:\n      mload(0x40)\n      dup1\n      swap2\n      sub\n      swap1\n      log3\n        /* \"contracts/Marketplace2/Marketplace.sol\":19568:20283  {... */\n      pop\n      pop\n      pop\n        /* \"contracts/Marketplace2/Marketplace.sol\":19525:20283  function delistItem(uint256 itemId) public {... */\n      pop\n      jump\t// out\n        /* \"contracts/Marketplace2/Marketplace.sol\":17814:17916  function setMainNFT(address _address) external onlyOwner {... */\n    tag_32:\n        /* \"contracts/Marketplace2/Marketplace.sol\":1899:1911  _msgSender() */\n      tag_142\n        /* \"contracts/Marketplace2/Marketplace.sol\":1899:1909  _msgSender */\n      tag_143\n        /* \"contracts/Marketplace2/Marketplace.sol\":1899:1911  _msgSender() */\n      jump\t// in\n    tag_142:\n        /* \"contracts/Marketplace2/Marketplace.sol\":1888:1911  owner() == _msgSender() */\n      0xffffffffffffffffffffffffffffffffffffffff\n      and\n        /* \"contracts/Marketplace2/Marketplace.sol\":1888:1895  owner() */\n      tag_144\n        /* \"contracts/Marketplace2/Marketplace.sol\":1888:1893  owner */\n      tag_72\n        /* \"contracts/Marketplace2/Marketplace.sol\":1888:1895  owner() */\n      jump\t// in\n    tag_144:\n        /* \"contracts/Marketplace2/Marketplace.sol\":1888:1911  owner() == _msgSender() */\n      0xffffffffffffffffffffffffffffffffffffffff\n      and\n      eq\n        /* \"contracts/Marketplace2/Marketplace.sol\":1880:1948  require(owner() == _msgSender(), \"Ownable: caller is not the owner\") */\n      tag_145\n      jumpi\n      mload(0x40)\n      0x08c379a000000000000000000000000000000000000000000000000000000000\n      dup2\n      mstore\n      0x04\n      add\n      tag_146\n      swap1\n      tag_147\n      jump\t// in\n    tag_146:\n      mload(0x40)\n      dup1\n      swap2\n      sub\n      swap1\n      revert\n    tag_145:\n        /* \"contracts/Marketplace2/Marketplace.sol\":17900:17908  _address */\n      dup1\n        /* \"contracts/Marketplace2/Marketplace.sol\":17881:17889  mainNFTs */\n      0x05\n      0x00\n        /* \"contracts/Marketplace2/Marketplace.sol\":17881:17909  mainNFTs = IERC721(_address) */\n      0x0100\n      exp\n      dup2\n      sload\n      dup2\n      0xffffffffffffffffffffffffffffffffffffffff\n      mul\n      not\n      and\n      swap1\n      dup4\n      0xffffffffffffffffffffffffffffffffffffffff\n      and\n      mul\n      or\n      swap1\n      sstore\n      pop\n        /* \"contracts/Marketplace2/Marketplace.sol\":17814:17916  function setMainNFT(address _address) external onlyOwner {... */\n      pop\n      jump\t// out\n        /* \"contracts/Marketplace2/Marketplace.sol\":17705:17809  function setMainToken(address _address) external onlyOwner {... */\n    tag_36:\n        /* \"contracts/Marketplace2/Marketplace.sol\":1899:1911  _msgSender() */\n      tag_150\n        /* \"contracts/Marketplace2/Marketplace.sol\":1899:1909  _msgSender */\n      tag_143\n        /* \"contracts/Marketplace2/Marketplace.sol\":1899:1911  _msgSender() */\n      jump\t// in\n    tag_150:\n        /* \"contracts/Marketplace2/Marketplace.sol\":1888:1911  owner() == _msgSender() */\n      0xffffffffffffffffffffffffffffffffffffffff\n      and\n        /* \"contracts/Marketplace2/Marketplace.sol\":1888:1895  owner() */\n      tag_151\n        /* \"contracts/Marketplace2/Marketplace.sol\":1888:1893  owner */\n      tag_72\n        /* \"contracts/Marketplace2/Marketplace.sol\":1888:1895  owner() */\n      jump\t// in\n    tag_151:\n        /* \"contracts/Marketplace2/Marketplace.sol\":1888:1911  owner() == _msgSender() */\n      0xffffffffffffffffffffffffffffffffffffffff\n      and\n      eq\n        /* \"contracts/Marketplace2/Marketplace.sol\":1880:1948  require(owner() == _msgSender(), \"Ownable: caller is not the owner\") */\n      tag_152\n      jumpi\n      mload(0x40)\n      0x08c379a000000000000000000000000000000000000000000000000000000000\n      dup2\n      mstore\n      0x04\n      add\n      tag_153\n      swap1\n      tag_147\n      jump\t// in\n    tag_153:\n      mload(0x40)\n      dup1\n      swap2\n      sub\n      swap1\n      revert\n    tag_152:\n        /* \"contracts/Marketplace2/Marketplace.sol\":17793:17801  _address */\n      dup1\n        /* \"contracts/Marketplace2/Marketplace.sol\":17774:17783  mainToken */\n      0x03\n      0x00\n        /* \"contracts/Marketplace2/Marketplace.sol\":17774:17802  mainToken = IERC20(_address) */\n      0x0100\n      exp\n      dup2\n      sload\n      dup2\n      0xffffffffffffffffffffffffffffffffffffffff\n      mul\n      not\n      and\n      swap1\n      dup4\n      0xffffffffffffffffffffffffffffffffffffffff\n      and\n      mul\n      or\n      swap1\n      sstore\n      pop\n        /* \"contracts/Marketplace2/Marketplace.sol\":17705:17809  function setMainToken(address _address) external onlyOwner {... */\n      pop\n      jump\t// out\n        /* \"contracts/Marketplace2/Marketplace.sol\":15911:15971  bytes4 public constant ERC721_Interface = bytes4(0x80ac58cd) */\n    tag_39:\n        /* \"contracts/Marketplace2/Marketplace.sol\":15960:15970  0x80ac58cd */\n      0x80ac58cd\n        /* \"contracts/Marketplace2/Marketplace.sol\":15953:15971  bytes4(0x80ac58cd) */\n      0xe0\n      shl\n        /* \"contracts/Marketplace2/Marketplace.sol\":15911:15971  bytes4 public constant ERC721_Interface = bytes4(0x80ac58cd) */\n      dup2\n      jump\t// out\n        /* \"contracts/Marketplace2/Marketplace.sol\":18027:18701  function createMarketItem(... */\n    tag_45:\n        /* \"contracts/Marketplace2/Marketplace.sol\":14165:14166  2 */\n      0x02\n        /* \"contracts/Marketplace2/Marketplace.sol\":14746:14753  _status */\n      sload(0x00)\n        /* \"contracts/Marketplace2/Marketplace.sol\":14746:14765  _status != _ENTERED */\n      sub\n        /* \"contracts/Marketplace2/Marketplace.sol\":14738:14801  require(_status != _ENTERED, \"ReentrancyGuard: reentrant call\") */\n      tag_156\n      jumpi\n      mload(0x40)\n      0x08c379a000000000000000000000000000000000000000000000000000000000\n      dup2\n      mstore\n      0x04\n      add\n      tag_157\n      swap1\n      tag_158\n      jump\t// in\n    tag_157:\n      mload(0x40)\n      dup1\n      swap2\n      sub\n      swap1\n      revert\n    tag_156:\n        /* \"contracts/Marketplace2/Marketplace.sol\":14165:14166  2 */\n      0x02\n        /* \"contracts/Marketplace2/Marketplace.sol\":14876:14883  _status */\n      0x00\n        /* \"contracts/Marketplace2/Marketplace.sol\":14876:14894  _status = _ENTERED */\n      dup2\n      swap1\n      sstore\n      pop\n        /* \"contracts/Marketplace2/Marketplace.sol\":18147:18148  0 */\n      0x00\n        /* \"contracts/Marketplace2/Marketplace.sol\":18139:18144  price */\n      dup2\n        /* \"contracts/Marketplace2/Marketplace.sol\":18139:18148  price > 0 */\n      gt\n        /* \"contracts/Marketplace2/Marketplace.sol\":18131:18181  require(price > 0, \"Price must be at least 1 wei\") */\n      tag_160\n      jumpi\n      mload(0x40)\n      0x08c379a000000000000000000000000000000000000000000000000000000000\n      dup2\n      mstore\n      0x04\n      add\n      tag_161\n      swap1\n      tag_162\n      jump\t// in\n    tag_161:\n      mload(0x40)\n      dup1\n      swap2\n      sub\n      swap1\n      revert\n    tag_160:\n        /* \"contracts/Marketplace2/Marketplace.sol\":18187:18221  StructLib.ingameItems memory _item */\n      0x00\n        /* \"contracts/Marketplace2/Marketplace.sol\":18224:18231  factory */\n      0x04\n      0x00\n      swap1\n      sload\n      swap1\n      0x0100\n      exp\n      swap1\n      div\n      0xffffffffffffffffffffffffffffffffffffffff\n      and\n        /* \"contracts/Marketplace2/Marketplace.sol\":18224:18245  factory.getIngameItem */\n      0xffffffffffffffffffffffffffffffffffffffff\n      and\n      0x03ce1cb5\n        /* \"contracts/Marketplace2/Marketplace.sol\":18246:18253  tokenId */\n      dup5\n        /* \"contracts/Marketplace2/Marketplace.sol\":18224:18254  factory.getIngameItem(tokenId) */\n      mload(0x40)\n      dup3\n      0xffffffff\n      and\n      0xe0\n      shl\n      dup2\n      mstore\n      0x04\n      add\n      tag_163\n      swap2\n      swap1\n      tag_164\n      jump\t// in\n    tag_163:\n      0x00\n      mload(0x40)\n      dup1\n      dup4\n      sub\n      dup2\n      dup7\n      gas\n      staticcall\n      iszero\n      dup1\n      iszero\n      tag_166\n      jumpi\n      returndatasize\n      0x00\n      dup1\n      returndatacopy\n      revert(0x00, returndatasize)\n    tag_166:\n      pop\n      pop\n      pop\n      pop\n      mload(0x40)\n      returndatasize\n      0x00\n      dup3\n      returndatacopy\n      returndatasize\n      not(0x1f)\n      0x1f\n      dup3\n      add\n      and\n      dup3\n      add\n      dup1\n      0x40\n      mstore\n      pop\n      dup2\n      add\n      swap1\n      tag_167\n      swap2\n      swap1\n      tag_168\n      jump\t// in\n    tag_167:\n        /* \"contracts/Marketplace2/Marketplace.sol\":18187:18254  StructLib.ingameItems memory _item = factory.getIngameItem(tokenId) */\n      swap1\n      pop\n        /* \"contracts/Marketplace2/Marketplace.sol\":18284:18289  false */\n      0x00\n        /* \"contracts/Marketplace2/Marketplace.sol\":18268:18289  _item.ingame == false */\n      iszero\n      iszero\n        /* \"contracts/Marketplace2/Marketplace.sol\":18268:18273  _item */\n      dup2\n        /* \"contracts/Marketplace2/Marketplace.sol\":18268:18280  _item.ingame */\n      0x80\n      add\n      mload\n        /* \"contracts/Marketplace2/Marketplace.sol\":18268:18289  _item.ingame == false */\n      iszero\n      iszero\n      eq\n        /* \"contracts/Marketplace2/Marketplace.sol\":18260:18322  require(_item.ingame == false, \"Item is not available now !\" ) */\n      tag_169\n      jumpi\n      mload(0x40)\n      0x08c379a000000000000000000000000000000000000000000000000000000000\n      dup2\n      mstore\n      0x04\n      add\n      tag_170\n      swap1\n      tag_171\n      jump\t// in\n    tag_170:\n      mload(0x40)\n      dup1\n      swap2\n      sub\n      swap1\n      revert\n    tag_169:\n        /* \"contracts/Marketplace2/Marketplace.sol\":18328:18358  _safeTransferToMarket(tokenId) */\n      tag_172\n        /* \"contracts/Marketplace2/Marketplace.sol\":18350:18357  tokenId */\n      dup4\n        /* \"contracts/Marketplace2/Marketplace.sol\":18328:18349  _safeTransferToMarket */\n      tag_173\n        /* \"contracts/Marketplace2/Marketplace.sol\":18328:18358  _safeTransferToMarket(tokenId) */\n      jump\t// in\n    tag_172:\n        /* \"contracts/Marketplace2/Marketplace.sol\":18364:18378  uint256 itemId */\n      0x00\n        /* \"contracts/Marketplace2/Marketplace.sol\":18381:18399  _itemIds.current() */\n      tag_174\n        /* \"contracts/Marketplace2/Marketplace.sol\":18381:18389  _itemIds */\n      0x07\n        /* \"contracts/Marketplace2/Marketplace.sol\":18381:18397  _itemIds.current */\n      tag_175\n        /* \"contracts/Marketplace2/Marketplace.sol\":18381:18399  _itemIds.current() */\n      jump\t// in\n    tag_174:\n        /* \"contracts/Marketplace2/Marketplace.sol\":18364:18399  uint256 itemId = _itemIds.current() */\n      swap1\n      pop\n        /* \"contracts/Marketplace2/Marketplace.sol\":18431:18554  MarketItem(... */\n      mload(0x40)\n      dup1\n      0xc0\n      add\n      0x40\n      mstore\n      dup1\n        /* \"contracts/Marketplace2/Marketplace.sol\":18449:18455  itemId */\n      dup3\n        /* \"contracts/Marketplace2/Marketplace.sol\":18431:18554  MarketItem(... */\n      dup2\n      mstore\n      0x20\n      add\n        /* \"contracts/Marketplace2/Marketplace.sol\":18463:18470  tokenId */\n      dup6\n        /* \"contracts/Marketplace2/Marketplace.sol\":18431:18554  MarketItem(... */\n      dup2\n      mstore\n      0x20\n      add\n        /* \"contracts/Marketplace2/Marketplace.sol\":18478:18488  msg.sender */\n      caller\n        /* \"contracts/Marketplace2/Marketplace.sol\":18431:18554  MarketItem(... */\n      0xffffffffffffffffffffffffffffffffffffffff\n      and\n      dup2\n      mstore\n      0x20\n      add\n        /* \"contracts/Marketplace2/Marketplace.sol\":18504:18508  this */\n      address\n        /* \"contracts/Marketplace2/Marketplace.sol\":18431:18554  MarketItem(... */\n      0xffffffffffffffffffffffffffffffffffffffff\n      and\n      dup2\n      mstore\n      0x20\n      add\n        /* \"contracts/Marketplace2/Marketplace.sol\":18517:18522  price */\n      dup5\n        /* \"contracts/Marketplace2/Marketplace.sol\":18431:18554  MarketItem(... */\n      dup2\n      mstore\n      0x20\n      add\n        /* \"contracts/Marketplace2/Marketplace.sol\":18530:18548  ItemStatus.SELLING */\n      0x01\n        /* \"contracts/Marketplace2/Marketplace.sol\":18431:18554  MarketItem(... */\n      dup1\n      dup2\n      gt\n      iszero\n      tag_176\n      jumpi\n      tag_177\n      tag_111\n      jump\t// in\n    tag_177:\n    tag_176:\n      dup2\n      mstore\n      pop\n        /* \"contracts/Marketplace2/Marketplace.sol\":18405:18419  idToMarketItem */\n      0x09\n        /* \"contracts/Marketplace2/Marketplace.sol\":18405:18427  idToMarketItem[itemId] */\n      0x00\n        /* \"contracts/Marketplace2/Marketplace.sol\":18420:18426  itemId */\n      dup4\n        /* \"contracts/Marketplace2/Marketplace.sol\":18405:18427  idToMarketItem[itemId] */\n      dup2\n      mstore\n      0x20\n      add\n      swap1\n      dup2\n      mstore\n      0x20\n      add\n      0x00\n      keccak256\n        /* \"contracts/Marketplace2/Marketplace.sol\":18405:18554  idToMarketItem[itemId] =  MarketItem(... */\n      0x00\n      dup3\n      add\n      mload\n      dup2\n      0x00\n      add\n      sstore\n      0x20\n      dup3\n      add\n      mload\n      dup2\n      0x01\n      add\n      sstore\n      0x40\n      dup3\n      add\n      mload\n      dup2\n      0x02\n      add\n      exp(0x0100, 0x00)\n      dup2\n      sload\n      dup2\n      0xffffffffffffffffffffffffffffffffffffffff\n      mul\n      not\n      and\n      swap1\n      dup4\n      0xffffffffffffffffffffffffffffffffffffffff\n      and\n      mul\n      or\n      swap1\n      sstore\n      pop\n      0x60\n      dup3\n      add\n      mload\n      dup2\n      0x03\n      add\n      exp(0x0100, 0x00)\n      dup2\n      sload\n      dup2\n      0xffffffffffffffffffffffffffffffffffffffff\n      mul\n      not\n      and\n      swap1\n      dup4\n      0xffffffffffffffffffffffffffffffffffffffff\n      and\n      mul\n      or\n      swap1\n      sstore\n      pop\n      0x80\n      dup3\n      add\n      mload\n      dup2\n      0x04\n      add\n      sstore\n      0xa0\n      dup3\n      add\n      mload\n      dup2\n      0x05\n      add\n      exp(0x0100, 0x00)\n      dup2\n      sload\n      dup2\n      0xff\n      mul\n      not\n      and\n      swap1\n      dup4\n      0x01\n      dup2\n      gt\n      iszero\n      tag_178\n      jumpi\n      tag_179\n      tag_111\n      jump\t// in\n    tag_179:\n    tag_178:\n      mul\n      or\n      swap1\n      sstore\n      pop\n      swap1\n      pop\n      pop\n        /* \"contracts/Marketplace2/Marketplace.sol\":18560:18580  _itemIds.increment() */\n      tag_180\n        /* \"contracts/Marketplace2/Marketplace.sol\":18560:18568  _itemIds */\n      0x07\n        /* \"contracts/Marketplace2/Marketplace.sol\":18560:18578  _itemIds.increment */\n      tag_181\n        /* \"contracts/Marketplace2/Marketplace.sol\":18560:18580  _itemIds.increment() */\n      jump\t// in\n    tag_180:\n        /* \"contracts/Marketplace2/Marketplace.sol\":18631:18638  tokenId */\n      dup4\n        /* \"contracts/Marketplace2/Marketplace.sol\":18617:18623  itemId */\n      dup2\n        /* \"contracts/Marketplace2/Marketplace.sol\":18592:18696  MarketItemCreated(... */\n      0x38690a554ffbc44eb6a75016e47d517d0db8e6c37494adc68d6d0b2c66f0ab21\n        /* \"contracts/Marketplace2/Marketplace.sol\":18646:18656  msg.sender */\n      caller\n        /* \"contracts/Marketplace2/Marketplace.sol\":18672:18676  this */\n      address\n        /* \"contracts/Marketplace2/Marketplace.sol\":18685:18690  price */\n      dup8\n        /* \"contracts/Marketplace2/Marketplace.sol\":18592:18696  MarketItemCreated(... */\n      mload(0x40)\n      tag_182\n      swap4\n      swap3\n      swap2\n      swap1\n      tag_131\n      jump\t// in\n    tag_182:\n      mload(0x40)\n      dup1\n      swap2\n      sub\n      swap1\n      log3\n        /* \"contracts/Marketplace2/Marketplace.sol\":18125:18701  {... */\n      pop\n      pop\n        /* \"contracts/Marketplace2/Marketplace.sol\":14122:14123  1 */\n      0x01\n        /* \"contracts/Marketplace2/Marketplace.sol\":15049:15056  _status */\n      0x00\n        /* \"contracts/Marketplace2/Marketplace.sol\":15049:15071  _status = _NOT_ENTERED */\n      dup2\n      swap1\n      sstore\n      pop\n        /* \"contracts/Marketplace2/Marketplace.sol\":18027:18701  function createMarketItem(... */\n      pop\n      pop\n      jump\t// out\n        /* \"contracts/Marketplace2/Marketplace.sol\":16172:16195  IERC20 public mainToken */\n    tag_48:\n      0x03\n      0x00\n      swap1\n      sload\n      swap1\n      0x0100\n      exp\n      swap1\n      div\n      0xffffffffffffffffffffffffffffffffffffffff\n      and\n      dup2\n      jump\t// out\n        /* \"contracts/Marketplace2/Marketplace.sol\":17921:18023  function setFactory(address _address) external onlyOwner {... */\n    tag_54:\n        /* \"contracts/Marketplace2/Marketplace.sol\":1899:1911  _msgSender() */\n      tag_184\n        /* \"contracts/Marketplace2/Marketplace.sol\":1899:1909  _msgSender */\n      tag_143\n        /* \"contracts/Marketplace2/Marketplace.sol\":1899:1911  _msgSender() */\n      jump\t// in\n    tag_184:\n        /* \"contracts/Marketplace2/Marketplace.sol\":1888:1911  owner() == _msgSender() */\n      0xffffffffffffffffffffffffffffffffffffffff\n      and\n        /* \"contracts/Marketplace2/Marketplace.sol\":1888:1895  owner() */\n      tag_185\n        /* \"contracts/Marketplace2/Marketplace.sol\":1888:1893  owner */\n      tag_72\n        /* \"contracts/Marketplace2/Marketplace.sol\":1888:1895  owner() */\n      jump\t// in\n    tag_185:\n        /* \"contracts/Marketplace2/Marketplace.sol\":1888:1911  owner() == _msgSender() */\n      0xffffffffffffffffffffffffffffffffffffffff\n      and\n      eq\n        /* \"contracts/Marketplace2/Marketplace.sol\":1880:1948  require(owner() == _msgSender(), \"Ownable: caller is not the owner\") */\n      tag_186\n      jumpi\n      mload(0x40)\n      0x08c379a000000000000000000000000000000000000000000000000000000000\n      dup2\n      mstore\n      0x04\n      add\n      tag_187\n      swap1\n      tag_147\n      jump\t// in\n    tag_187:\n      mload(0x40)\n      dup1\n      swap2\n      sub\n      swap1\n      revert\n    tag_186:\n        /* \"contracts/Marketplace2/Marketplace.sol\":18007:18015  _address */\n      dup1\n        /* \"contracts/Marketplace2/Marketplace.sol\":17988:17995  factory */\n      0x04\n      0x00\n        /* \"contracts/Marketplace2/Marketplace.sol\":17988:18016  factory = IFactory(_address) */\n      0x0100\n      exp\n      dup2\n      sload\n      dup2\n      0xffffffffffffffffffffffffffffffffffffffff\n      mul\n      not\n      and\n      swap1\n      dup4\n      0xffffffffffffffffffffffffffffffffffffffff\n      and\n      mul\n      or\n      swap1\n      sstore\n      pop\n        /* \"contracts/Marketplace2/Marketplace.sol\":17921:18023  function setFactory(address _address) external onlyOwner {... */\n      pop\n      jump\t// out\n        /* \"contracts/Marketplace2/Marketplace.sol\":16102:16165  mapping(address => mapping(uint256 => MarketItem)) public items */\n    tag_59:\n      mstore(0x20, 0x02)\n      dup2\n      0x00\n      mstore\n      mstore(0x20, keccak256(0x00, 0x40))\n      dup1\n      0x00\n      mstore\n      keccak256(0x00, 0x40)\n      0x00\n      swap2\n      pop\n      swap2\n      pop\n      pop\n      dup1\n      0x00\n      add\n      sload\n      swap1\n      dup1\n      0x01\n      add\n      sload\n      swap1\n      dup1\n      0x02\n      add\n      0x00\n      swap1\n      sload\n      swap1\n      0x0100\n      exp\n      swap1\n      div\n      0xffffffffffffffffffffffffffffffffffffffff\n      and\n      swap1\n      dup1\n      0x03\n      add\n      0x00\n      swap1\n      sload\n      swap1\n      0x0100\n      exp\n      swap1\n      div\n      0xffffffffffffffffffffffffffffffffffffffff\n      and\n      swap1\n      dup1\n      0x04\n      add\n      sload\n      swap1\n      dup1\n      0x05\n      add\n      0x00\n      swap1\n      sload\n      swap1\n      0x0100\n      exp\n      swap1\n      div\n      0xff\n      and\n      swap1\n      pop\n      dup7\n      jump\t// out\n        /* \"contracts/Marketplace2/Marketplace.sol\":2308:2409  function renounceOwnership() public virtual onlyOwner {... */\n    tag_64:\n        /* \"contracts/Marketplace2/Marketplace.sol\":1899:1911  _msgSender() */\n      tag_190\n        /* \"contracts/Marketplace2/Marketplace.sol\":1899:1909  _msgSender */\n      tag_143\n        /* \"contracts/Marketplace2/Marketplace.sol\":1899:1911  _msgSender() */\n      jump\t// in\n    tag_190:\n        /* \"contracts/Marketplace2/Marketplace.sol\":1888:1911  owner() == _msgSender() */\n      0xffffffffffffffffffffffffffffffffffffffff\n      and\n        /* \"contracts/Marketplace2/Marketplace.sol\":1888:1895  owner() */\n      tag_191\n        /* \"contracts/Marketplace2/Marketplace.sol\":1888:1893  owner */\n      tag_72\n        /* \"contracts/Marketplace2/Marketplace.sol\":1888:1895  owner() */\n      jump\t// in\n    tag_191:\n        /* \"contracts/Marketplace2/Marketplace.sol\":1888:1911  owner() == _msgSender() */\n      0xffffffffffffffffffffffffffffffffffffffff\n      and\n      eq\n        /* \"contracts/Marketplace2/Marketplace.sol\":1880:1948  require(owner() == _msgSender(), \"Ownable: caller is not the owner\") */\n      tag_192\n      jumpi\n      mload(0x40)\n      0x08c379a000000000000000000000000000000000000000000000000000000000\n      dup2\n      mstore\n      0x04\n      add\n      tag_193\n      swap1\n      tag_147\n      jump\t// in\n    tag_193:\n      mload(0x40)\n      dup1\n      swap2\n      sub\n      swap1\n      revert\n    tag_192:\n        /* \"contracts/Marketplace2/Marketplace.sol\":2372:2402  _transferOwnership(address(0)) */\n      tag_195\n        /* \"contracts/Marketplace2/Marketplace.sol\":2399:2400  0 */\n      0x00\n        /* \"contracts/Marketplace2/Marketplace.sol\":2372:2390  _transferOwnership */\n      tag_196\n        /* \"contracts/Marketplace2/Marketplace.sol\":2372:2402  _transferOwnership(address(0)) */\n      jump\t// in\n    tag_195:\n        /* \"contracts/Marketplace2/Marketplace.sol\":2308:2409  function renounceOwnership() public virtual onlyOwner {... */\n      jump\t// out\n        /* \"contracts/Marketplace2/Marketplace.sol\":16260:16286  uint8 public bnbFeePercent */\n    tag_67:\n      0x05\n      0x14\n      swap1\n      sload\n      swap1\n      0x0100\n      exp\n      swap1\n      div\n      0xff\n      and\n      dup2\n      jump\t// out\n        /* \"contracts/Marketplace2/Marketplace.sol\":1676:1761  function owner() public view virtual returns (address) {... */\n    tag_72:\n        /* \"contracts/Marketplace2/Marketplace.sol\":1722:1729  address */\n      0x00\n        /* \"contracts/Marketplace2/Marketplace.sol\":1748:1754  _owner */\n      0x06\n      0x00\n      swap1\n      sload\n      swap1\n      0x0100\n      exp\n      swap1\n      div\n      0xffffffffffffffffffffffffffffffffffffffff\n      and\n        /* \"contracts/Marketplace2/Marketplace.sol\":1741:1754  return _owner */\n      swap1\n      pop\n        /* \"contracts/Marketplace2/Marketplace.sol\":1676:1761  function owner() public view virtual returns (address) {... */\n      swap1\n      jump\t// out\n        /* \"contracts/Marketplace2/Marketplace.sol\":18704:19521  function createMarketSale(... */\n    tag_78:\n        /* \"contracts/Marketplace2/Marketplace.sol\":18789:18799  uint price */\n      0x00\n        /* \"contracts/Marketplace2/Marketplace.sol\":18802:18816  idToMarketItem */\n      0x09\n        /* \"contracts/Marketplace2/Marketplace.sol\":18802:18824  idToMarketItem[itemId] */\n      0x00\n        /* \"contracts/Marketplace2/Marketplace.sol\":18817:18823  itemId */\n      dup5\n        /* \"contracts/Marketplace2/Marketplace.sol\":18802:18824  idToMarketItem[itemId] */\n      dup2\n      mstore\n      0x20\n      add\n      swap1\n      dup2\n      mstore\n      0x20\n      add\n      0x00\n      keccak256\n        /* \"contracts/Marketplace2/Marketplace.sol\":18802:18830  idToMarketItem[itemId].price */\n      0x04\n      add\n      sload\n        /* \"contracts/Marketplace2/Marketplace.sol\":18789:18830  uint price = idToMarketItem[itemId].price */\n      swap1\n      pop\n        /* \"contracts/Marketplace2/Marketplace.sol\":18836:18848  uint tokenId */\n      0x00\n        /* \"contracts/Marketplace2/Marketplace.sol\":18851:18865  idToMarketItem */\n      0x09\n        /* \"contracts/Marketplace2/Marketplace.sol\":18851:18873  idToMarketItem[itemId] */\n      0x00\n        /* \"contracts/Marketplace2/Marketplace.sol\":18866:18872  itemId */\n      dup6\n        /* \"contracts/Marketplace2/Marketplace.sol\":18851:18873  idToMarketItem[itemId] */\n      dup2\n      mstore\n      0x20\n      add\n      swap1\n      dup2\n      mstore\n      0x20\n      add\n      0x00\n      keccak256\n        /* \"contracts/Marketplace2/Marketplace.sol\":18851:18881  idToMarketItem[itemId].tokenId */\n      0x01\n      add\n      sload\n        /* \"contracts/Marketplace2/Marketplace.sol\":18836:18881  uint tokenId = idToMarketItem[itemId].tokenId */\n      swap1\n      pop\n        /* \"contracts/Marketplace2/Marketplace.sol\":18887:18901  address seller */\n      0x00\n        /* \"contracts/Marketplace2/Marketplace.sol\":18905:18919  idToMarketItem */\n      0x09\n        /* \"contracts/Marketplace2/Marketplace.sol\":18905:18927  idToMarketItem[itemId] */\n      0x00\n        /* \"contracts/Marketplace2/Marketplace.sol\":18920:18926  itemId */\n      dup7\n        /* \"contracts/Marketplace2/Marketplace.sol\":18905:18927  idToMarketItem[itemId] */\n      dup2\n      mstore\n      0x20\n      add\n      swap1\n      dup2\n      mstore\n      0x20\n      add\n      0x00\n      keccak256\n        /* \"contracts/Marketplace2/Marketplace.sol\":18905:18934  idToMarketItem[itemId].seller */\n      0x02\n      add\n      0x00\n      swap1\n      sload\n      swap1\n      0x0100\n      exp\n      swap1\n      div\n      0xffffffffffffffffffffffffffffffffffffffff\n      and\n        /* \"contracts/Marketplace2/Marketplace.sol\":18887:18934  address seller =  idToMarketItem[itemId].seller */\n      swap1\n      pop\n        /* \"contracts/Marketplace2/Marketplace.sol\":18940:18973  StructLib.ingameItems memory item */\n      0x00\n        /* \"contracts/Marketplace2/Marketplace.sol\":18976:18983  factory */\n      0x04\n      0x00\n      swap1\n      sload\n      swap1\n      0x0100\n      exp\n      swap1\n      div\n      0xffffffffffffffffffffffffffffffffffffffff\n      and\n        /* \"contracts/Marketplace2/Marketplace.sol\":18976:18997  factory.getIngameItem */\n      0xffffffffffffffffffffffffffffffffffffffff\n      and\n      0x03ce1cb5\n        /* \"contracts/Marketplace2/Marketplace.sol\":18998:19005  tokenId */\n      dup5\n        /* \"contracts/Marketplace2/Marketplace.sol\":18976:19006  factory.getIngameItem(tokenId) */\n      mload(0x40)\n      dup3\n      0xffffffff\n      and\n      0xe0\n      shl\n      dup2\n      mstore\n      0x04\n      add\n      tag_199\n      swap2\n      swap1\n      tag_164\n      jump\t// in\n    tag_199:\n      0x00\n      mload(0x40)\n      dup1\n      dup4\n      sub\n      dup2\n      dup7\n      gas\n      staticcall\n      iszero\n      dup1\n      iszero\n      tag_201\n      jumpi\n      returndatasize\n      0x00\n      dup1\n      returndatacopy\n      revert(0x00, returndatasize)\n    tag_201:\n      pop\n      pop\n      pop\n      pop\n      mload(0x40)\n      returndatasize\n      0x00\n      dup3\n      returndatacopy\n      returndatasize\n      not(0x1f)\n      0x1f\n      dup3\n      add\n      and\n      dup3\n      add\n      dup1\n      0x40\n      mstore\n      pop\n      dup2\n      add\n      swap1\n      tag_202\n      swap2\n      swap1\n      tag_168\n      jump\t// in\n    tag_202:\n        /* \"contracts/Marketplace2/Marketplace.sol\":18940:19006  StructLib.ingameItems memory item = factory.getIngameItem(tokenId) */\n      swap1\n      pop\n        /* \"contracts/Marketplace2/Marketplace.sol\":19030:19035  price */\n      dup4\n        /* \"contracts/Marketplace2/Marketplace.sol\":19020:19026  amount */\n      dup6\n        /* \"contracts/Marketplace2/Marketplace.sol\":19020:19035  amount == price */\n      eq\n        /* \"contracts/Marketplace2/Marketplace.sol\":19012:19104  require(amount == price, \"Please submit the asking price in order to complete the purchase\") */\n      tag_203\n      jumpi\n      mload(0x40)\n      0x08c379a000000000000000000000000000000000000000000000000000000000\n      dup2\n      mstore\n      0x04\n      add\n      tag_204\n      swap1\n      tag_205\n      jump\t// in\n    tag_204:\n      mload(0x40)\n      dup1\n      swap2\n      sub\n      swap1\n      revert\n    tag_203:\n        /* \"contracts/Marketplace2/Marketplace.sol\":19133:19138  false */\n      0x00\n        /* \"contracts/Marketplace2/Marketplace.sol\":19118:19138  item.ingame == false */\n      iszero\n      iszero\n        /* \"contracts/Marketplace2/Marketplace.sol\":19118:19122  item */\n      dup2\n        /* \"contracts/Marketplace2/Marketplace.sol\":19118:19129  item.ingame */\n      0x80\n      add\n      mload\n        /* \"contracts/Marketplace2/Marketplace.sol\":19118:19138  item.ingame == false */\n      iszero\n      iszero\n      eq\n        /* \"contracts/Marketplace2/Marketplace.sol\":19110:19170  require(item.ingame == false, \"Item is not available now !\") */\n      tag_206\n      jumpi\n      mload(0x40)\n      0x08c379a000000000000000000000000000000000000000000000000000000000\n      dup2\n      mstore\n      0x04\n      add\n      tag_207\n      swap1\n      tag_171\n      jump\t// in\n    tag_207:\n      mload(0x40)\n      dup1\n      swap2\n      sub\n      swap1\n      revert\n    tag_206:\n        /* \"contracts/Marketplace2/Marketplace.sol\":19176:19211  _safeBuyItem(itemId,amount,tokenId) */\n      tag_208\n        /* \"contracts/Marketplace2/Marketplace.sol\":19189:19195  itemId */\n      dup7\n        /* \"contracts/Marketplace2/Marketplace.sol\":19196:19202  amount */\n      dup7\n        /* \"contracts/Marketplace2/Marketplace.sol\":19203:19210  tokenId */\n      dup6\n        /* \"contracts/Marketplace2/Marketplace.sol\":19176:19188  _safeBuyItem */\n      tag_209\n        /* \"contracts/Marketplace2/Marketplace.sol\":19176:19211  _safeBuyItem(itemId,amount,tokenId) */\n      jump\t// in\n    tag_208:\n        /* \"contracts/Marketplace2/Marketplace.sol\":19256:19266  msg.sender */\n      caller\n        /* \"contracts/Marketplace2/Marketplace.sol\":19217:19231  idToMarketItem */\n      0x09\n        /* \"contracts/Marketplace2/Marketplace.sol\":19217:19239  idToMarketItem[itemId] */\n      0x00\n        /* \"contracts/Marketplace2/Marketplace.sol\":19232:19238  itemId */\n      dup9\n        /* \"contracts/Marketplace2/Marketplace.sol\":19217:19239  idToMarketItem[itemId] */\n      dup2\n      mstore\n      0x20\n      add\n      swap1\n      dup2\n      mstore\n      0x20\n      add\n      0x00\n      keccak256\n        /* \"contracts/Marketplace2/Marketplace.sol\":19217:19245  idToMarketItem[itemId].owner */\n      0x03\n      add\n      0x00\n        /* \"contracts/Marketplace2/Marketplace.sol\":19217:19267  idToMarketItem[itemId].owner = address(msg.sender) */\n      0x0100\n      exp\n      dup2\n      sload\n      dup2\n      0xffffffffffffffffffffffffffffffffffffffff\n      mul\n      not\n      and\n      swap1\n      dup4\n      0xffffffffffffffffffffffffffffffffffffffff\n      and\n      mul\n      or\n      swap1\n      sstore\n      pop\n        /* \"contracts/Marketplace2/Marketplace.sol\":19305:19321  ItemStatus.AVAIL */\n      0x00\n        /* \"contracts/Marketplace2/Marketplace.sol\":19273:19287  idToMarketItem */\n      0x09\n        /* \"contracts/Marketplace2/Marketplace.sol\":19273:19295  idToMarketItem[itemId] */\n      0x00\n        /* \"contracts/Marketplace2/Marketplace.sol\":19288:19294  itemId */\n      dup9\n        /* \"contracts/Marketplace2/Marketplace.sol\":19273:19295  idToMarketItem[itemId] */\n      dup2\n      mstore\n      0x20\n      add\n      swap1\n      dup2\n      mstore\n      0x20\n      add\n      0x00\n      keccak256\n        /* \"contracts/Marketplace2/Marketplace.sol\":19273:19302  idToMarketItem[itemId].status */\n      0x05\n      add\n      0x00\n        /* \"contracts/Marketplace2/Marketplace.sol\":19273:19321  idToMarketItem[itemId].status = ItemStatus.AVAIL */\n      0x0100\n      exp\n      dup2\n      sload\n      dup2\n      0xff\n      mul\n      not\n      and\n      swap1\n      dup4\n      0x01\n      dup2\n      gt\n      iszero\n      tag_210\n      jumpi\n      tag_211\n      tag_111\n      jump\t// in\n    tag_211:\n    tag_210:\n      mul\n      or\n      swap1\n      sstore\n      pop\n        /* \"contracts/Marketplace2/Marketplace.sol\":19327:19349  _itemsSold.increment() */\n      tag_212\n        /* \"contracts/Marketplace2/Marketplace.sol\":19327:19337  _itemsSold */\n      0x08\n        /* \"contracts/Marketplace2/Marketplace.sol\":19327:19347  _itemsSold.increment */\n      tag_181\n        /* \"contracts/Marketplace2/Marketplace.sol\":19327:19349  _itemsSold.increment() */\n      jump\t// in\n    tag_212:\n        /* \"contracts/Marketplace2/Marketplace.sol\":19459:19469  msg.sender */\n      caller\n        /* \"contracts/Marketplace2/Marketplace.sol\":19360:19516  BuyItemSuccessful(... */\n      0xffffffffffffffffffffffffffffffffffffffff\n      and\n        /* \"contracts/Marketplace2/Marketplace.sol\":19420:19426  seller */\n      dup3\n        /* \"contracts/Marketplace2/Marketplace.sol\":19360:19516  BuyItemSuccessful(... */\n      0xffffffffffffffffffffffffffffffffffffffff\n      and\n        /* \"contracts/Marketplace2/Marketplace.sol\":19403:19410  tokenId */\n      dup5\n        /* \"contracts/Marketplace2/Marketplace.sol\":19360:19516  BuyItemSuccessful(... */\n      0x551327aee12d0a8b3ede8d0e3182a40a5ff3ed9f1811dd622915db30b609b7df\n        /* \"contracts/Marketplace2/Marketplace.sol\":19387:19393  itemId */\n      dup10\n        /* \"contracts/Marketplace2/Marketplace.sol\":19436:19441  price */\n      dup9\n        /* \"contracts/Marketplace2/Marketplace.sol\":19495:19510  block.timestamp */\n      timestamp\n        /* \"contracts/Marketplace2/Marketplace.sol\":19360:19516  BuyItemSuccessful(... */\n      mload(0x40)\n      tag_213\n      swap4\n      swap3\n      swap2\n      swap1\n      tag_214\n      jump\t// in\n    tag_213:\n      mload(0x40)\n      dup1\n      swap2\n      sub\n      swap1\n      log4\n        /* \"contracts/Marketplace2/Marketplace.sol\":18783:19521  {... */\n      pop\n      pop\n      pop\n      pop\n        /* \"contracts/Marketplace2/Marketplace.sol\":18704:19521  function createMarketSale(... */\n      pop\n      pop\n      jump\t// out\n        /* \"contracts/Marketplace2/Marketplace.sol\":16292:16319  uint8 public antaFeePercent */\n    tag_81:\n      0x05\n      0x15\n      swap1\n      sload\n      swap1\n      0x0100\n      exp\n      swap1\n      div\n      0xff\n      and\n      dup2\n      jump\t// out\n        /* \"contracts/Marketplace2/Marketplace.sol\":16201:16224  IFactory public factory */\n    tag_85:\n      0x04\n      0x00\n      swap1\n      sload\n      swap1\n      0x0100\n      exp\n      swap1\n      div\n      0xffffffffffffffffffffffffffffffffffffffff\n      and\n      dup2\n      jump\t// out\n        /* \"contracts/Marketplace2/Marketplace.sol\":17562:17699  function getMarketItem(uint256 marketItemId) public view returns (MarketItem memory) {... */\n    tag_91:\n        /* \"contracts/Marketplace2/Marketplace.sol\":17628:17645  MarketItem memory */\n      tag_215\n      tag_216\n      jump\t// in\n    tag_215:\n        /* \"contracts/Marketplace2/Marketplace.sol\":17664:17678  idToMarketItem */\n      0x09\n        /* \"contracts/Marketplace2/Marketplace.sol\":17664:17692  idToMarketItem[marketItemId] */\n      0x00\n        /* \"contracts/Marketplace2/Marketplace.sol\":17679:17691  marketItemId */\n      dup4\n        /* \"contracts/Marketplace2/Marketplace.sol\":17664:17692  idToMarketItem[marketItemId] */\n      dup2\n      mstore\n      0x20\n      add\n      swap1\n      dup2\n      mstore\n      0x20\n      add\n      0x00\n      keccak256\n        /* \"contracts/Marketplace2/Marketplace.sol\":17657:17692  return idToMarketItem[marketItemId] */\n      mload(0x40)\n      dup1\n      0xc0\n      add\n      0x40\n      mstore\n      swap1\n      dup2\n      0x00\n      dup3\n      add\n      sload\n      dup2\n      mstore\n      0x20\n      add\n      0x01\n      dup3\n      add\n      sload\n      dup2\n      mstore\n      0x20\n      add\n      0x02\n      dup3\n      add\n      0x00\n      swap1\n      sload\n      swap1\n      0x0100\n      exp\n      swap1\n      div\n      0xffffffffffffffffffffffffffffffffffffffff\n      and\n      0xffffffffffffffffffffffffffffffffffffffff\n      and\n      0xffffffffffffffffffffffffffffffffffffffff\n      and\n      dup2\n      mstore\n      0x20\n      add\n      0x03\n      dup3\n      add\n      0x00\n      swap1\n      sload\n      swap1\n      0x0100\n      exp\n      swap1\n      div\n      0xffffffffffffffffffffffffffffffffffffffff\n      and\n      0xffffffffffffffffffffffffffffffffffffffff\n      and\n      0xffffffffffffffffffffffffffffffffffffffff\n      and\n      dup2\n      mstore\n      0x20\n      add\n      0x04\n      dup3\n      add\n      sload\n      dup2\n      mstore\n      0x20\n      add\n      0x05\n      dup3\n      add\n      0x00\n      swap1\n      sload\n      swap1\n      0x0100\n      exp\n      swap1\n      div\n      0xff\n      and\n      0x01\n      dup2\n      gt\n      iszero\n      tag_218\n      jumpi\n      tag_219\n      tag_111\n      jump\t// in\n    tag_219:\n    tag_218:\n      0x01\n      dup2\n      gt\n      iszero\n      tag_220\n      jumpi\n      tag_221\n      tag_111\n      jump\t// in\n    tag_221:\n    tag_220:\n      dup2\n      mstore\n      pop\n      pop\n      swap1\n      pop\n        /* \"contracts/Marketplace2/Marketplace.sol\":17562:17699  function getMarketItem(uint256 marketItemId) public view returns (MarketItem memory) {... */\n      swap2\n      swap1\n      pop\n      jump\t// out\n        /* \"contracts/Marketplace2/Marketplace.sol\":2558:2756  function transferOwnership(address newOwner) public virtual onlyOwner {... */\n    tag_97:\n        /* \"contracts/Marketplace2/Marketplace.sol\":1899:1911  _msgSender() */\n      tag_223\n        /* \"contracts/Marketplace2/Marketplace.sol\":1899:1909  _msgSender */\n      tag_143\n        /* \"contracts/Marketplace2/Marketplace.sol\":1899:1911  _msgSender() */\n      jump\t// in\n    tag_223:\n        /* \"contracts/Marketplace2/Marketplace.sol\":1888:1911  owner() == _msgSender() */\n      0xffffffffffffffffffffffffffffffffffffffff\n      and\n        /* \"contracts/Marketplace2/Marketplace.sol\":1888:1895  owner() */\n      tag_224\n        /* \"contracts/Marketplace2/Marketplace.sol\":1888:1893  owner */\n      tag_72\n        /* \"contracts/Marketplace2/Marketplace.sol\":1888:1895  owner() */\n      jump\t// in\n    tag_224:\n        /* \"contracts/Marketplace2/Marketplace.sol\":1888:1911  owner() == _msgSender() */\n      0xffffffffffffffffffffffffffffffffffffffff\n      and\n      eq\n        /* \"contracts/Marketplace2/Marketplace.sol\":1880:1948  require(owner() == _msgSender(), \"Ownable: caller is not the owner\") */\n      tag_225\n      jumpi\n      mload(0x40)\n      0x08c379a000000000000000000000000000000000000000000000000000000000\n      dup2\n      mstore\n      0x04\n      add\n      tag_226\n      swap1\n      tag_147\n      jump\t// in\n    tag_226:\n      mload(0x40)\n      dup1\n      swap2\n      sub\n      swap1\n      revert\n    tag_225:\n        /* \"contracts/Marketplace2/Marketplace.sol\":2666:2667  0 */\n      0x00\n        /* \"contracts/Marketplace2/Marketplace.sol\":2646:2668  newOwner != address(0) */\n      0xffffffffffffffffffffffffffffffffffffffff\n      and\n        /* \"contracts/Marketplace2/Marketplace.sol\":2646:2654  newOwner */\n      dup2\n        /* \"contracts/Marketplace2/Marketplace.sol\":2646:2668  newOwner != address(0) */\n      0xffffffffffffffffffffffffffffffffffffffff\n      and\n      sub\n        /* \"contracts/Marketplace2/Marketplace.sol\":2638:2711  require(newOwner != address(0), \"Ownable: new owner is the zero address\") */\n      tag_228\n      jumpi\n      mload(0x40)\n      0x08c379a000000000000000000000000000000000000000000000000000000000\n      dup2\n      mstore\n      0x04\n      add\n      tag_229\n      swap1\n      tag_230\n      jump\t// in\n    tag_229:\n      mload(0x40)\n      dup1\n      swap2\n      sub\n      swap1\n      revert\n    tag_228:\n        /* \"contracts/Marketplace2/Marketplace.sol\":2721:2749  _transferOwnership(newOwner) */\n      tag_231\n        /* \"contracts/Marketplace2/Marketplace.sol\":2740:2748  newOwner */\n      dup2\n        /* \"contracts/Marketplace2/Marketplace.sol\":2721:2739  _transferOwnership */\n      tag_196\n        /* \"contracts/Marketplace2/Marketplace.sol\":2721:2749  _transferOwnership(newOwner) */\n      jump\t// in\n    tag_231:\n        /* \"contracts/Marketplace2/Marketplace.sol\":2558:2756  function transferOwnership(address newOwner) public virtual onlyOwner {... */\n      pop\n      jump\t// out\n        /* \"contracts/Marketplace2/Marketplace.sol\":16230:16253  IERC721 public mainNFTs */\n    tag_100:\n      0x05\n      0x00\n      swap1\n      sload\n      swap1\n      0x0100\n      exp\n      swap1\n      div\n      0xffffffffffffffffffffffffffffffffffffffff\n      and\n      dup2\n      jump\t// out\n        /* \"contracts/Marketplace2/Marketplace.sol\":15978:16025  mapping (uint256 => MarketItem) public allItems */\n    tag_106:\n      mstore(0x20, 0x01)\n      dup1\n      0x00\n      mstore\n      keccak256(0x00, 0x40)\n      0x00\n      swap2\n      pop\n      swap1\n      pop\n      dup1\n      0x00\n      add\n      sload\n      swap1\n      dup1\n      0x01\n      add\n      sload\n      swap1\n      dup1\n      0x02\n      add\n      0x00\n      swap1\n      sload\n      swap1\n      0x0100\n      exp\n      swap1\n      div\n      0xffffffffffffffffffffffffffffffffffffffff\n      and\n      swap1\n      dup1\n      0x03\n      add\n      0x00\n      swap1\n      sload\n      swap1\n      0x0100\n      exp\n      swap1\n      div\n      0xffffffffffffffffffffffffffffffffffffffff\n      and\n      swap1\n      dup1\n      0x04\n      add\n      sload\n      swap1\n      dup1\n      0x05\n      add\n      0x00\n      swap1\n      sload\n      swap1\n      0x0100\n      exp\n      swap1\n      div\n      0xff\n      and\n      swap1\n      pop\n      dup7\n      jump\t// out\n        /* \"contracts/Marketplace2/Marketplace.sol\":554:650  function _msgSender() internal view virtual returns (address) {... */\n    tag_143:\n        /* \"contracts/Marketplace2/Marketplace.sol\":607:614  address */\n      0x00\n        /* \"contracts/Marketplace2/Marketplace.sol\":633:643  msg.sender */\n      caller\n        /* \"contracts/Marketplace2/Marketplace.sol\":626:643  return msg.sender */\n      swap1\n      pop\n        /* \"contracts/Marketplace2/Marketplace.sol\":554:650  function _msgSender() internal view virtual returns (address) {... */\n      swap1\n      jump\t// out\n        /* \"contracts/Marketplace2/Marketplace.sol\":20297:20515  function _safeTransferToMarket(uint256 tokenId) private {... */\n    tag_173:\n        /* \"contracts/Marketplace2/Marketplace.sol\":20367:20374  factory */\n      0x04\n      0x00\n      swap1\n      sload\n      swap1\n      0x0100\n      exp\n      swap1\n      div\n      0xffffffffffffffffffffffffffffffffffffffff\n      and\n        /* \"contracts/Marketplace2/Marketplace.sol\":20367:20393  factory.setOwnerIngameItem */\n      0xffffffffffffffffffffffffffffffffffffffff\n      and\n      0xc1e9518a\n        /* \"contracts/Marketplace2/Marketplace.sol\":20402:20412  msg.sender */\n      caller\n        /* \"contracts/Marketplace2/Marketplace.sol\":20422:20426  this */\n      address\n        /* \"contracts/Marketplace2/Marketplace.sol\":20429:20436  tokenId */\n      dup5\n        /* \"contracts/Marketplace2/Marketplace.sol\":20367:20437  factory.setOwnerIngameItem(payable(msg.sender),address(this), tokenId) */\n      mload(0x40)\n      dup5\n      0xffffffff\n      and\n      0xe0\n      shl\n      dup2\n      mstore\n      0x04\n      add\n      tag_234\n      swap4\n      swap3\n      swap2\n      swap1\n      tag_235\n      jump\t// in\n    tag_234:\n      0x00\n      mload(0x40)\n      dup1\n      dup4\n      sub\n      dup2\n      0x00\n      dup8\n      dup1\n      extcodesize\n      iszero\n      dup1\n      iszero\n      tag_236\n      jumpi\n      0x00\n      dup1\n      revert\n    tag_236:\n      pop\n      gas\n      call\n      iszero\n      dup1\n      iszero\n      tag_238\n      jumpi\n      returndatasize\n      0x00\n      dup1\n      returndatacopy\n      revert(0x00, returndatasize)\n    tag_238:\n      pop\n      pop\n      pop\n      pop\n        /* \"contracts/Marketplace2/Marketplace.sol\":20451:20459  mainNFTs */\n      0x05\n      0x00\n      swap1\n      sload\n      swap1\n      0x0100\n      exp\n      swap1\n      div\n      0xffffffffffffffffffffffffffffffffffffffff\n      and\n        /* \"contracts/Marketplace2/Marketplace.sol\":20451:20472  mainNFTs.transferFrom */\n      0xffffffffffffffffffffffffffffffffffffffff\n      and\n      0x23b872dd\n        /* \"contracts/Marketplace2/Marketplace.sol\":20473:20483  msg.sender */\n      caller\n        /* \"contracts/Marketplace2/Marketplace.sol\":20493:20497  this */\n      address\n        /* \"contracts/Marketplace2/Marketplace.sol\":20500:20507  tokenId */\n      dup5\n        /* \"contracts/Marketplace2/Marketplace.sol\":20451:20508  mainNFTs.transferFrom(msg.sender, address(this), tokenId) */\n      mload(0x40)\n      dup5\n      0xffffffff\n      and\n      0xe0\n      shl\n      dup2\n      mstore\n      0x04\n      add\n      tag_239\n      swap4\n      swap3\n      swap2\n      swap1\n      tag_131\n      jump\t// in\n    tag_239:\n      0x00\n      mload(0x40)\n      dup1\n      dup4\n      sub\n      dup2\n      0x00\n      dup8\n      dup1\n      extcodesize\n      iszero\n      dup1\n      iszero\n      tag_240\n      jumpi\n      0x00\n      dup1\n      revert\n    tag_240:\n      pop\n      gas\n      call\n      iszero\n      dup1\n      iszero\n      tag_242\n      jumpi\n      returndatasize\n      0x00\n      dup1\n      returndatacopy\n      revert(0x00, returndatasize)\n    tag_242:\n      pop\n      pop\n      pop\n      pop\n        /* \"contracts/Marketplace2/Marketplace.sol\":20297:20515  function _safeTransferToMarket(uint256 tokenId) private {... */\n      pop\n      jump\t// out\n        /* \"contracts/Marketplace2/Marketplace.sol\":11851:11963  function current(Counter storage counter) internal view returns (uint256) {... */\n    tag_175:\n        /* \"contracts/Marketplace2/Marketplace.sol\":11916:11923  uint256 */\n      0x00\n        /* \"contracts/Marketplace2/Marketplace.sol\":11942:11949  counter */\n      dup2\n        /* \"contracts/Marketplace2/Marketplace.sol\":11942:11956  counter._value */\n      0x00\n      add\n      sload\n        /* \"contracts/Marketplace2/Marketplace.sol\":11935:11956  return counter._value */\n      swap1\n      pop\n        /* \"contracts/Marketplace2/Marketplace.sol\":11851:11963  function current(Counter storage counter) internal view returns (uint256) {... */\n      swap2\n      swap1\n      pop\n      jump\t// out\n        /* \"contracts/Marketplace2/Marketplace.sol\":11969:12092  function increment(Counter storage counter) internal {... */\n    tag_181:\n        /* \"contracts/Marketplace2/Marketplace.sol\":12074:12075  1 */\n      0x01\n        /* \"contracts/Marketplace2/Marketplace.sol\":12056:12063  counter */\n      dup2\n        /* \"contracts/Marketplace2/Marketplace.sol\":12056:12070  counter._value */\n      0x00\n      add\n      0x00\n        /* \"contracts/Marketplace2/Marketplace.sol\":12056:12075  counter._value += 1 */\n      dup3\n      dup3\n      sload\n      add\n      swap3\n      pop\n      pop\n      dup2\n      swap1\n      sstore\n      pop\n        /* \"contracts/Marketplace2/Marketplace.sol\":11969:12092  function increment(Counter storage counter) internal {... */\n      pop\n      jump\t// out\n        /* \"contracts/Marketplace2/Marketplace.sol\":2910:3097  function _transferOwnership(address newOwner) internal virtual {... */\n    tag_196:\n        /* \"contracts/Marketplace2/Marketplace.sol\":2983:2999  address oldOwner */\n      0x00\n        /* \"contracts/Marketplace2/Marketplace.sol\":3002:3008  _owner */\n      0x06\n      0x00\n      swap1\n      sload\n      swap1\n      0x0100\n      exp\n      swap1\n      div\n      0xffffffffffffffffffffffffffffffffffffffff\n      and\n        /* \"contracts/Marketplace2/Marketplace.sol\":2983:3008  address oldOwner = _owner */\n      swap1\n      pop\n        /* \"contracts/Marketplace2/Marketplace.sol\":3027:3035  newOwner */\n      dup2\n        /* \"contracts/Marketplace2/Marketplace.sol\":3018:3024  _owner */\n      0x06\n      0x00\n        /* \"contracts/Marketplace2/Marketplace.sol\":3018:3035  _owner = newOwner */\n      0x0100\n      exp\n      dup2\n      sload\n      dup2\n      0xffffffffffffffffffffffffffffffffffffffff\n      mul\n      not\n      and\n      swap1\n      dup4\n      0xffffffffffffffffffffffffffffffffffffffff\n      and\n      mul\n      or\n      swap1\n      sstore\n      pop\n        /* \"contracts/Marketplace2/Marketplace.sol\":3081:3089  newOwner */\n      dup2\n        /* \"contracts/Marketplace2/Marketplace.sol\":3050:3090  OwnershipTransferred(oldOwner, newOwner) */\n      0xffffffffffffffffffffffffffffffffffffffff\n      and\n        /* \"contracts/Marketplace2/Marketplace.sol\":3071:3079  oldOwner */\n      dup2\n        /* \"contracts/Marketplace2/Marketplace.sol\":3050:3090  OwnershipTransferred(oldOwner, newOwner) */\n      0xffffffffffffffffffffffffffffffffffffffff\n      and\n      0x8be0079c531659141344cd1fd0a4f28419497f9722a3daafe3b4186f6b6457e0\n      mload(0x40)\n      mload(0x40)\n      dup1\n      swap2\n      sub\n      swap1\n      log3\n        /* \"contracts/Marketplace2/Marketplace.sol\":2973:3097  {... */\n      pop\n        /* \"contracts/Marketplace2/Marketplace.sol\":2910:3097  function _transferOwnership(address newOwner) internal virtual {... */\n      pop\n      jump\t// out\n        /* \"contracts/Marketplace2/Marketplace.sol\":20522:20840  function _safeBuyItem(uint256 itemId,uint256 amount, uint256 tokenId ) private { ... */\n    tag_209:\n        /* \"contracts/Marketplace2/Marketplace.sol\":20612:20621  mainToken */\n      0x03\n      0x00\n      swap1\n      sload\n      swap1\n      0x0100\n      exp\n      swap1\n      div\n      0xffffffffffffffffffffffffffffffffffffffff\n      and\n        /* \"contracts/Marketplace2/Marketplace.sol\":20612:20634  mainToken.transferFrom */\n      0xffffffffffffffffffffffffffffffffffffffff\n      and\n      0x23b872dd\n        /* \"contracts/Marketplace2/Marketplace.sol\":20635:20645  msg.sender */\n      caller\n        /* \"contracts/Marketplace2/Marketplace.sol\":20647:20661  idToMarketItem */\n      0x09\n        /* \"contracts/Marketplace2/Marketplace.sol\":20647:20669  idToMarketItem[itemId] */\n      0x00\n        /* \"contracts/Marketplace2/Marketplace.sol\":20662:20668  itemId */\n      dup8\n        /* \"contracts/Marketplace2/Marketplace.sol\":20647:20669  idToMarketItem[itemId] */\n      dup2\n      mstore\n      0x20\n      add\n      swap1\n      dup2\n      mstore\n      0x20\n      add\n      0x00\n      keccak256\n        /* \"contracts/Marketplace2/Marketplace.sol\":20647:20676  idToMarketItem[itemId].seller */\n      0x02\n      add\n      0x00\n      swap1\n      sload\n      swap1\n      0x0100\n      exp\n      swap1\n      div\n      0xffffffffffffffffffffffffffffffffffffffff\n      and\n        /* \"contracts/Marketplace2/Marketplace.sol\":20679:20685  amount */\n      dup6\n        /* \"contracts/Marketplace2/Marketplace.sol\":20612:20686  mainToken.transferFrom(msg.sender, idToMarketItem[itemId].seller , amount) */\n      mload(0x40)\n      dup5\n      0xffffffff\n      and\n      0xe0\n      shl\n      dup2\n      mstore\n      0x04\n      add\n      tag_247\n      swap4\n      swap3\n      swap2\n      swap1\n      tag_131\n      jump\t// in\n    tag_247:\n      0x20\n      mload(0x40)\n      dup1\n      dup4\n      sub\n      dup2\n      0x00\n      dup8\n      gas\n      call\n      iszero\n      dup1\n      iszero\n      tag_249\n      jumpi\n      returndatasize\n      0x00\n      dup1\n      returndatacopy\n      revert(0x00, returndatasize)\n    tag_249:\n      pop\n      pop\n      pop\n      pop\n      mload(0x40)\n      returndatasize\n      not(0x1f)\n      0x1f\n      dup3\n      add\n      and\n      dup3\n      add\n      dup1\n      0x40\n      mstore\n      pop\n      dup2\n      add\n      swap1\n      tag_250\n      swap2\n      swap1\n      tag_251\n      jump\t// in\n    tag_250:\n      pop\n        /* \"contracts/Marketplace2/Marketplace.sol\":20696:20703  factory */\n      0x04\n      0x00\n      swap1\n      sload\n      swap1\n      0x0100\n      exp\n      swap1\n      div\n      0xffffffffffffffffffffffffffffffffffffffff\n      and\n        /* \"contracts/Marketplace2/Marketplace.sol\":20696:20722  factory.setOwnerIngameItem */\n      0xffffffffffffffffffffffffffffffffffffffff\n      and\n      0xc1e9518a\n        /* \"contracts/Marketplace2/Marketplace.sol\":20723:20733  msg.sender */\n      caller\n        /* \"contracts/Marketplace2/Marketplace.sol\":20742:20746  this */\n      address\n        /* \"contracts/Marketplace2/Marketplace.sol\":20749:20756  tokenId */\n      dup5\n        /* \"contracts/Marketplace2/Marketplace.sol\":20696:20757  factory.setOwnerIngameItem(msg.sender,address(this), tokenId) */\n      mload(0x40)\n      dup5\n      0xffffffff\n      and\n      0xe0\n      shl\n      dup2\n      mstore\n      0x04\n      add\n      tag_252\n      swap4\n      swap3\n      swap2\n      swap1\n      tag_131\n      jump\t// in\n    tag_252:\n      0x00\n      mload(0x40)\n      dup1\n      dup4\n      sub\n      dup2\n      0x00\n      dup8\n      dup1\n      extcodesize\n      iszero\n      dup1\n      iszero\n      tag_253\n      jumpi\n      0x00\n      dup1\n      revert\n    tag_253:\n      pop\n      gas\n      call\n      iszero\n      dup1\n      iszero\n      tag_255\n      jumpi\n      returndatasize\n      0x00\n      dup1\n      returndatacopy\n      revert(0x00, returndatasize)\n    tag_255:\n      pop\n      pop\n      pop\n      pop\n        /* \"contracts/Marketplace2/Marketplace.sol\":20767:20775  mainNFTs */\n      0x05\n      0x00\n      swap1\n      sload\n      swap1\n      0x0100\n      exp\n      swap1\n      div\n      0xffffffffffffffffffffffffffffffffffffffff\n      and\n        /* \"contracts/Marketplace2/Marketplace.sol\":20767:20788  mainNFTs.transferFrom */\n      0xffffffffffffffffffffffffffffffffffffffff\n      and\n      0x23b872dd\n        /* \"contracts/Marketplace2/Marketplace.sol\":20797:20801  this */\n      address\n        /* \"contracts/Marketplace2/Marketplace.sol\":20812:20822  msg.sender */\n      caller\n        /* \"contracts/Marketplace2/Marketplace.sol\":20825:20832  tokenId */\n      dup5\n        /* \"contracts/Marketplace2/Marketplace.sol\":20767:20833  mainNFTs.transferFrom(address(this), address(msg.sender), tokenId) */\n      mload(0x40)\n      dup5\n      0xffffffff\n      and\n      0xe0\n      shl\n      dup2\n      mstore\n      0x04\n      add\n      tag_256\n      swap4\n      swap3\n      swap2\n      swap1\n      tag_131\n      jump\t// in\n    tag_256:\n      0x00\n      mload(0x40)\n      dup1\n      dup4\n      sub\n      dup2\n      0x00\n      dup8\n      dup1\n      extcodesize\n      iszero\n      dup1\n      iszero\n      tag_257\n      jumpi\n      0x00\n      dup1\n      revert\n    tag_257:\n      pop\n      gas\n      call\n      iszero\n      dup1\n      iszero\n      tag_259\n      jumpi\n      returndatasize\n      0x00\n      dup1\n      returndatacopy\n      revert(0x00, returndatasize)\n    tag_259:\n      pop\n      pop\n      pop\n      pop\n        /* \"contracts/Marketplace2/Marketplace.sol\":20522:20840  function _safeBuyItem(uint256 itemId,uint256 amount, uint256 tokenId ) private { ... */\n      pop\n      pop\n      pop\n      jump\t// out\n    tag_216:\n      mload(0x40)\n      dup1\n      0xc0\n      add\n      0x40\n      mstore\n      dup1\n      0x00\n      dup2\n      mstore\n      0x20\n      add\n      0x00\n      dup2\n      mstore\n      0x20\n      add\n      and(0xffffffffffffffffffffffffffffffffffffffff, 0x00)\n      dup2\n      mstore\n      0x20\n      add\n      and(0xffffffffffffffffffffffffffffffffffffffff, 0x00)\n      dup2\n      mstore\n      0x20\n      add\n      0x00\n      dup2\n      mstore\n      0x20\n      add\n      0x00\n      0x01\n      dup2\n      gt\n      iszero\n      tag_260\n      jumpi\n      tag_261\n      tag_111\n      jump\t// in\n    tag_261:\n    tag_260:\n      dup2\n      mstore\n      pop\n      swap1\n      jump\t// out\n        /* \"#utility.yul\":7:82   */\n    tag_262:\n        /* \"#utility.yul\":40:46   */\n      0x00\n        /* \"#utility.yul\":73:75   */\n      0x40\n        /* \"#utility.yul\":67:76   */\n      mload\n        /* \"#utility.yul\":57:76   */\n      swap1\n      pop\n        /* \"#utility.yul\":7:82   */\n      swap1\n      jump\t// out\n        /* \"#utility.yul\":88:205   */\n    tag_263:\n        /* \"#utility.yul\":197:198   */\n      0x00\n        /* \"#utility.yul\":194:195   */\n      dup1\n        /* \"#utility.yul\":187:199   */\n      revert\n        /* \"#utility.yul\":211:328   */\n    tag_264:\n        /* \"#utility.yul\":320:321   */\n      0x00\n        /* \"#utility.yul\":317:318   */\n      dup1\n        /* \"#utility.yul\":310:322   */\n      revert\n        /* \"#utility.yul\":334:411   */\n    tag_265:\n        /* \"#utility.yul\":371:378   */\n      0x00\n        /* \"#utility.yul\":400:405   */\n      dup2\n        /* \"#utility.yul\":389:405   */\n      swap1\n      pop\n        /* \"#utility.yul\":334:411   */\n      swap2\n      swap1\n      pop\n      jump\t// out\n        /* \"#utility.yul\":417:539   */\n    tag_266:\n        /* \"#utility.yul\":490:514   */\n      tag_344\n        /* \"#utility.yul\":508:513   */\n      dup2\n        /* \"#utility.yul\":490:514   */\n      tag_265\n      jump\t// in\n    tag_344:\n        /* \"#utility.yul\":483:488   */\n      dup2\n        /* \"#utility.yul\":480:515   */\n      eq\n        /* \"#utility.yul\":470:533   */\n      tag_345\n      jumpi\n        /* \"#utility.yul\":529:530   */\n      0x00\n        /* \"#utility.yul\":526:527   */\n      dup1\n        /* \"#utility.yul\":519:531   */\n      revert\n        /* \"#utility.yul\":470:533   */\n    tag_345:\n        /* \"#utility.yul\":417:539   */\n      pop\n      jump\t// out\n        /* \"#utility.yul\":545:684   */\n    tag_267:\n        /* \"#utility.yul\":591:596   */\n      0x00\n        /* \"#utility.yul\":629:635   */\n      dup2\n        /* \"#utility.yul\":616:636   */\n      calldataload\n        /* \"#utility.yul\":607:636   */\n      swap1\n      pop\n        /* \"#utility.yul\":645:678   */\n      tag_347\n        /* \"#utility.yul\":672:677   */\n      dup2\n        /* \"#utility.yul\":645:678   */\n      tag_266\n      jump\t// in\n    tag_347:\n        /* \"#utility.yul\":545:684   */\n      swap3\n      swap2\n      pop\n      pop\n      jump\t// out\n        /* \"#utility.yul\":690:1019   */\n    tag_26:\n        /* \"#utility.yul\":749:755   */\n      0x00\n        /* \"#utility.yul\":798:800   */\n      0x20\n        /* \"#utility.yul\":786:795   */\n      dup3\n        /* \"#utility.yul\":777:784   */\n      dup5\n        /* \"#utility.yul\":773:796   */\n      sub\n        /* \"#utility.yul\":769:801   */\n      slt\n        /* \"#utility.yul\":766:885   */\n      iszero\n      tag_349\n      jumpi\n        /* \"#utility.yul\":804:883   */\n      tag_350\n      tag_263\n      jump\t// in\n    tag_350:\n        /* \"#utility.yul\":766:885   */\n    tag_349:\n        /* \"#utility.yul\":924:925   */\n      0x00\n        /* \"#utility.yul\":949:1002   */\n      tag_351\n        /* \"#utility.yul\":994:1001   */\n      dup5\n        /* \"#utility.yul\":985:991   */\n      dup3\n        /* \"#utility.yul\":974:983   */\n      dup6\n        /* \"#utility.yul\":970:992   */\n      add\n        /* \"#utility.yul\":949:1002   */\n      tag_267\n      jump\t// in\n    tag_351:\n        /* \"#utility.yul\":939:1002   */\n      swap2\n      pop\n        /* \"#utility.yul\":895:1012   */\n      pop\n        /* \"#utility.yul\":690:1019   */\n      swap3\n      swap2\n      pop\n      pop\n      jump\t// out\n        /* \"#utility.yul\":1025:1151   */\n    tag_268:\n        /* \"#utility.yul\":1062:1069   */\n      0x00\n        /* \"#utility.yul\":1102:1144   */\n      0xffffffffffffffffffffffffffffffffffffffff\n        /* \"#utility.yul\":1095:1100   */\n      dup3\n        /* \"#utility.yul\":1091:1145   */\n      and\n        /* \"#utility.yul\":1080:1145   */\n      swap1\n      pop\n        /* \"#utility.yul\":1025:1151   */\n      swap2\n      swap1\n      pop\n      jump\t// out\n        /* \"#utility.yul\":1157:1253   */\n    tag_269:\n        /* \"#utility.yul\":1194:1201   */\n      0x00\n        /* \"#utility.yul\":1223:1247   */\n      tag_354\n        /* \"#utility.yul\":1241:1246   */\n      dup3\n        /* \"#utility.yul\":1223:1247   */\n      tag_268\n      jump\t// in\n    tag_354:\n        /* \"#utility.yul\":1212:1247   */\n      swap1\n      pop\n        /* \"#utility.yul\":1157:1253   */\n      swap2\n      swap1\n      pop\n      jump\t// out\n        /* \"#utility.yul\":1259:1381   */\n    tag_270:\n        /* \"#utility.yul\":1332:1356   */\n      tag_356\n        /* \"#utility.yul\":1350:1355   */\n      dup2\n        /* \"#utility.yul\":1332:1356   */\n      tag_269\n      jump\t// in\n    tag_356:\n        /* \"#utility.yul\":1325:1330   */\n      dup2\n        /* \"#utility.yul\":1322:1357   */\n      eq\n        /* \"#utility.yul\":1312:1375   */\n      tag_357\n      jumpi\n        /* \"#utility.yul\":1371:1372   */\n      0x00\n        /* \"#utility.yul\":1368:1369   */\n      dup1\n        /* \"#utility.yul\":1361:1373   */\n      revert\n        /* \"#utility.yul\":1312:1375   */\n    tag_357:\n        /* \"#utility.yul\":1259:1381   */\n      pop\n      jump\t// out\n        /* \"#utility.yul\":1387:1526   */\n    tag_271:\n        /* \"#utility.yul\":1433:1438   */\n      0x00\n        /* \"#utility.yul\":1471:1477   */\n      dup2\n        /* \"#utility.yul\":1458:1478   */\n      calldataload\n        /* \"#utility.yul\":1449:1478   */\n      swap1\n      pop\n        /* \"#utility.yul\":1487:1520   */\n      tag_359\n        /* \"#utility.yul\":1514:1519   */\n      dup2\n        /* \"#utility.yul\":1487:1520   */\n      tag_270\n      jump\t// in\n    tag_359:\n        /* \"#utility.yul\":1387:1526   */\n      swap3\n      swap2\n      pop\n      pop\n      jump\t// out\n        /* \"#utility.yul\":1532:1861   */\n    tag_31:\n        /* \"#utility.yul\":1591:1597   */\n      0x00\n        /* \"#utility.yul\":1640:1642   */\n      0x20\n        /* \"#utility.yul\":1628:1637   */\n      dup3\n        /* \"#utility.yul\":1619:1626   */\n      dup5\n        /* \"#utility.yul\":1615:1638   */\n      sub\n        /* \"#utility.yul\":1611:1643   */\n      slt\n        /* \"#utility.yul\":1608:1727   */\n      iszero\n      tag_361\n      jumpi\n        /* \"#utility.yul\":1646:1725   */\n      tag_362\n      tag_263\n      jump\t// in\n    tag_362:\n        /* \"#utility.yul\":1608:1727   */\n    tag_361:\n        /* \"#utility.yul\":1766:1767   */\n      0x00\n        /* \"#utility.yul\":1791:1844   */\n      tag_363\n        /* \"#utility.yul\":1836:1843   */\n      dup5\n        /* \"#utility.yul\":1827:1833   */\n      dup3\n        /* \"#utility.yul\":1816:1825   */\n      dup6\n        /* \"#utility.yul\":1812:1834   */\n      add\n        /* \"#utility.yul\":1791:1844   */\n      tag_271\n      jump\t// in\n    tag_363:\n        /* \"#utility.yul\":1781:1844   */\n      swap2\n      pop\n        /* \"#utility.yul\":1737:1854   */\n      pop\n        /* \"#utility.yul\":1532:1861   */\n      swap3\n      swap2\n      pop\n      pop\n      jump\t// out\n        /* \"#utility.yul\":1867:2016   */\n    tag_272:\n        /* \"#utility.yul\":1903:1910   */\n      0x00\n        /* \"#utility.yul\":1943:2009   */\n      0xffffffff00000000000000000000000000000000000000000000000000000000\n        /* \"#utility.yul\":1936:1941   */\n      dup3\n        /* \"#utility.yul\":1932:2010   */\n      and\n        /* \"#utility.yul\":1921:2010   */\n      swap1\n      pop\n        /* \"#utility.yul\":1867:2016   */\n      swap2\n      swap1\n      pop\n      jump\t// out\n        /* \"#utility.yul\":2022:2137   */\n    tag_273:\n        /* \"#utility.yul\":2107:2130   */\n      tag_366\n        /* \"#utility.yul\":2124:2129   */\n      dup2\n        /* \"#utility.yul\":2107:2130   */\n      tag_272\n      jump\t// in\n    tag_366:\n        /* \"#utility.yul\":2102:2105   */\n      dup3\n        /* \"#utility.yul\":2095:2131   */\n      mstore\n        /* \"#utility.yul\":2022:2137   */\n      pop\n      pop\n      jump\t// out\n        /* \"#utility.yul\":2143:2361   */\n    tag_41:\n        /* \"#utility.yul\":2234:2238   */\n      0x00\n        /* \"#utility.yul\":2272:2274   */\n      0x20\n        /* \"#utility.yul\":2261:2270   */\n      dup3\n        /* \"#utility.yul\":2257:2275   */\n      add\n        /* \"#utility.yul\":2249:2275   */\n      swap1\n      pop\n        /* \"#utility.yul\":2285:2354   */\n      tag_368\n        /* \"#utility.yul\":2351:2352   */\n      0x00\n        /* \"#utility.yul\":2340:2349   */\n      dup4\n        /* \"#utility.yul\":2336:2353   */\n      add\n        /* \"#utility.yul\":2327:2333   */\n      dup5\n        /* \"#utility.yul\":2285:2354   */\n      tag_273\n      jump\t// in\n    tag_368:\n        /* \"#utility.yul\":2143:2361   */\n      swap3\n      swap2\n      pop\n      pop\n      jump\t// out\n        /* \"#utility.yul\":2367:2841   */\n    tag_44:\n        /* \"#utility.yul\":2435:2441   */\n      0x00\n        /* \"#utility.yul\":2443:2449   */\n      dup1\n        /* \"#utility.yul\":2492:2494   */\n      0x40\n        /* \"#utility.yul\":2480:2489   */\n      dup4\n        /* \"#utility.yul\":2471:2478   */\n      dup6\n        /* \"#utility.yul\":2467:2490   */\n      sub\n        /* \"#utility.yul\":2463:2495   */\n      slt\n        /* \"#utility.yul\":2460:2579   */\n      iszero\n      tag_370\n      jumpi\n        /* \"#utility.yul\":2498:2577   */\n      tag_371\n      tag_263\n      jump\t// in\n    tag_371:\n        /* \"#utility.yul\":2460:2579   */\n    tag_370:\n        /* \"#utility.yul\":2618:2619   */\n      0x00\n        /* \"#utility.yul\":2643:2696   */\n      tag_372\n        /* \"#utility.yul\":2688:2695   */\n      dup6\n        /* \"#utility.yul\":2679:2685   */\n      dup3\n        /* \"#utility.yul\":2668:2677   */\n      dup7\n        /* \"#utility.yul\":2664:2686   */\n      add\n        /* \"#utility.yul\":2643:2696   */\n      tag_267\n      jump\t// in\n    tag_372:\n        /* \"#utility.yul\":2633:2696   */\n      swap3\n      pop\n        /* \"#utility.yul\":2589:2706   */\n      pop\n        /* \"#utility.yul\":2745:2747   */\n      0x20\n        /* \"#utility.yul\":2771:2824   */\n      tag_373\n        /* \"#utility.yul\":2816:2823   */\n      dup6\n        /* \"#utility.yul\":2807:2813   */\n      dup3\n        /* \"#utility.yul\":2796:2805   */\n      dup7\n        /* \"#utility.yul\":2792:2814   */\n      add\n        /* \"#utility.yul\":2771:2824   */\n      tag_267\n      jump\t// in\n    tag_373:\n        /* \"#utility.yul\":2761:2824   */\n      swap2\n      pop\n        /* \"#utility.yul\":2716:2834   */\n      pop\n        /* \"#utility.yul\":2367:2841   */\n      swap3\n      pop\n      swap3\n      swap1\n      pop\n      jump\t// out\n        /* \"#utility.yul\":2847:2907   */\n    tag_274:\n        /* \"#utility.yul\":2875:2878   */\n      0x00\n        /* \"#utility.yul\":2896:2901   */\n      dup2\n        /* \"#utility.yul\":2889:2901   */\n      swap1\n      pop\n        /* \"#utility.yul\":2847:2907   */\n      swap2\n      swap1\n      pop\n      jump\t// out\n        /* \"#utility.yul\":2913:3055   */\n    tag_275:\n        /* \"#utility.yul\":2963:2972   */\n      0x00\n        /* \"#utility.yul\":2996:3049   */\n      tag_376\n        /* \"#utility.yul\":3014:3048   */\n      tag_377\n        /* \"#utility.yul\":3023:3047   */\n      tag_378\n        /* \"#utility.yul\":3041:3046   */\n      dup5\n        /* \"#utility.yul\":3023:3047   */\n      tag_268\n      jump\t// in\n    tag_378:\n        /* \"#utility.yul\":3014:3048   */\n      tag_274\n      jump\t// in\n    tag_377:\n        /* \"#utility.yul\":2996:3049   */\n      tag_268\n      jump\t// in\n    tag_376:\n        /* \"#utility.yul\":2983:3049   */\n      swap1\n      pop\n        /* \"#utility.yul\":2913:3055   */\n      swap2\n      swap1\n      pop\n      jump\t// out\n        /* \"#utility.yul\":3061:3187   */\n    tag_276:\n        /* \"#utility.yul\":3111:3120   */\n      0x00\n        /* \"#utility.yul\":3144:3181   */\n      tag_380\n        /* \"#utility.yul\":3175:3180   */\n      dup3\n        /* \"#utility.yul\":3144:3181   */\n      tag_275\n      jump\t// in\n    tag_380:\n        /* \"#utility.yul\":3131:3181   */\n      swap1\n      pop\n        /* \"#utility.yul\":3061:3187   */\n      swap2\n      swap1\n      pop\n      jump\t// out\n        /* \"#utility.yul\":3193:3333   */\n    tag_277:\n        /* \"#utility.yul\":3257:3266   */\n      0x00\n        /* \"#utility.yul\":3290:3327   */\n      tag_382\n        /* \"#utility.yul\":3321:3326   */\n      dup3\n        /* \"#utility.yul\":3290:3327   */\n      tag_276\n      jump\t// in\n    tag_382:\n        /* \"#utility.yul\":3277:3327   */\n      swap1\n      pop\n        /* \"#utility.yul\":3193:3333   */\n      swap2\n      swap1\n      pop\n      jump\t// out\n        /* \"#utility.yul\":3339:3498   */\n    tag_278:\n        /* \"#utility.yul\":3440:3491   */\n      tag_384\n        /* \"#utility.yul\":3485:3490   */\n      dup2\n        /* \"#utility.yul\":3440:3491   */\n      tag_277\n      jump\t// in\n    tag_384:\n        /* \"#utility.yul\":3435:3438   */\n      dup3\n        /* \"#utility.yul\":3428:3492   */\n      mstore\n        /* \"#utility.yul\":3339:3498   */\n      pop\n      pop\n      jump\t// out\n        /* \"#utility.yul\":3504:3754   */\n    tag_50:\n        /* \"#utility.yul\":3611:3615   */\n      0x00\n        /* \"#utility.yul\":3649:3651   */\n      0x20\n        /* \"#utility.yul\":3638:3647   */\n      dup3\n        /* \"#utility.yul\":3634:3652   */\n      add\n        /* \"#utility.yul\":3626:3652   */\n      swap1\n      pop\n        /* \"#utility.yul\":3662:3747   */\n      tag_386\n        /* \"#utility.yul\":3744:3745   */\n      0x00\n        /* \"#utility.yul\":3733:3742   */\n      dup4\n        /* \"#utility.yul\":3729:3746   */\n      add\n        /* \"#utility.yul\":3720:3726   */\n      dup5\n        /* \"#utility.yul\":3662:3747   */\n      tag_278\n      jump\t// in\n    tag_386:\n        /* \"#utility.yul\":3504:3754   */\n      swap3\n      swap2\n      pop\n      pop\n      jump\t// out\n        /* \"#utility.yul\":3760:4234   */\n    tag_58:\n        /* \"#utility.yul\":3828:3834   */\n      0x00\n        /* \"#utility.yul\":3836:3842   */\n      dup1\n        /* \"#utility.yul\":3885:3887   */\n      0x40\n        /* \"#utility.yul\":3873:3882   */\n      dup4\n        /* \"#utility.yul\":3864:3871   */\n      dup6\n        /* \"#utility.yul\":3860:3883   */\n      sub\n        /* \"#utility.yul\":3856:3888   */\n      slt\n        /* \"#utility.yul\":3853:3972   */\n      iszero\n      tag_388\n      jumpi\n        /* \"#utility.yul\":3891:3970   */\n      tag_389\n      tag_263\n      jump\t// in\n    tag_389:\n        /* \"#utility.yul\":3853:3972   */\n    tag_388:\n        /* \"#utility.yul\":4011:4012   */\n      0x00\n        /* \"#utility.yul\":4036:4089   */\n      tag_390\n        /* \"#utility.yul\":4081:4088   */\n      dup6\n        /* \"#utility.yul\":4072:4078   */\n      dup3\n        /* \"#utility.yul\":4061:4070   */\n      dup7\n        /* \"#utility.yul\":4057:4079   */\n      add\n        /* \"#utility.yul\":4036:4089   */\n      tag_271\n      jump\t// in\n    tag_390:\n        /* \"#utility.yul\":4026:4089   */\n      swap3\n      pop\n        /* \"#utility.yul\":3982:4099   */\n      pop\n        /* \"#utility.yul\":4138:4140   */\n      0x20\n        /* \"#utility.yul\":4164:4217   */\n      tag_391\n        /* \"#utility.yul\":4209:4216   */\n      dup6\n        /* \"#utility.yul\":4200:4206   */\n      dup3\n        /* \"#utility.yul\":4189:4198   */\n      dup7\n        /* \"#utility.yul\":4185:4207   */\n      add\n        /* \"#utility.yul\":4164:4217   */\n      tag_267\n      jump\t// in\n    tag_391:\n        /* \"#utility.yul\":4154:4217   */\n      swap2\n      pop\n        /* \"#utility.yul\":4109:4227   */\n      pop\n        /* \"#utility.yul\":3760:4234   */\n      swap3\n      pop\n      swap3\n      swap1\n      pop\n      jump\t// out\n        /* \"#utility.yul\":4240:4358   */\n    tag_279:\n        /* \"#utility.yul\":4327:4351   */\n      tag_393\n        /* \"#utility.yul\":4345:4350   */\n      dup2\n        /* \"#utility.yul\":4327:4351   */\n      tag_265\n      jump\t// in\n    tag_393:\n        /* \"#utility.yul\":4322:4325   */\n      dup3\n        /* \"#utility.yul\":4315:4352   */\n      mstore\n        /* \"#utility.yul\":4240:4358   */\n      pop\n      pop\n      jump\t// out\n        /* \"#utility.yul\":4364:4482   */\n    tag_280:\n        /* \"#utility.yul\":4451:4475   */\n      tag_395\n        /* \"#utility.yul\":4469:4474   */\n      dup2\n        /* \"#utility.yul\":4451:4475   */\n      tag_269\n      jump\t// in\n    tag_395:\n        /* \"#utility.yul\":4446:4449   */\n      dup3\n        /* \"#utility.yul\":4439:4476   */\n      mstore\n        /* \"#utility.yul\":4364:4482   */\n      pop\n      pop\n      jump\t// out\n        /* \"#utility.yul\":4488:4668   */\n    tag_111:\n        /* \"#utility.yul\":4536:4613   */\n      0x4e487b7100000000000000000000000000000000000000000000000000000000\n        /* \"#utility.yul\":4533:4534   */\n      0x00\n        /* \"#utility.yul\":4526:4614   */\n      mstore\n        /* \"#utility.yul\":4633:4637   */\n      0x21\n        /* \"#utility.yul\":4630:4631   */\n      0x04\n        /* \"#utility.yul\":4623:4638   */\n      mstore\n        /* \"#utility.yul\":4657:4661   */\n      0x24\n        /* \"#utility.yul\":4654:4655   */\n      0x00\n        /* \"#utility.yul\":4647:4662   */\n      revert\n        /* \"#utility.yul\":4674:4793   */\n    tag_281:\n        /* \"#utility.yul\":4761:4762   */\n      0x02\n        /* \"#utility.yul\":4754:4759   */\n      dup2\n        /* \"#utility.yul\":4751:4763   */\n      lt\n        /* \"#utility.yul\":4741:4787   */\n      tag_398\n      jumpi\n        /* \"#utility.yul\":4767:4785   */\n      tag_399\n      tag_111\n      jump\t// in\n    tag_399:\n        /* \"#utility.yul\":4741:4787   */\n    tag_398:\n        /* \"#utility.yul\":4674:4793   */\n      pop\n      jump\t// out\n        /* \"#utility.yul\":4799:4938   */\n    tag_282:\n        /* \"#utility.yul\":4850:4857   */\n      0x00\n        /* \"#utility.yul\":4879:4884   */\n      dup2\n        /* \"#utility.yul\":4868:4884   */\n      swap1\n      pop\n        /* \"#utility.yul\":4885:4932   */\n      tag_401\n        /* \"#utility.yul\":4926:4931   */\n      dup3\n        /* \"#utility.yul\":4885:4932   */\n      tag_281\n      jump\t// in\n    tag_401:\n        /* \"#utility.yul\":4799:4938   */\n      swap2\n      swap1\n      pop\n      jump\t// out\n        /* \"#utility.yul\":4944:5083   */\n    tag_283:\n        /* \"#utility.yul\":5006:5015   */\n      0x00\n        /* \"#utility.yul\":5039:5077   */\n      tag_403\n        /* \"#utility.yul\":5071:5076   */\n      dup3\n        /* \"#utility.yul\":5039:5077   */\n      tag_282\n      jump\t// in\n    tag_403:\n        /* \"#utility.yul\":5026:5077   */\n      swap1\n      pop\n        /* \"#utility.yul\":4944:5083   */\n      swap2\n      swap1\n      pop\n      jump\t// out\n        /* \"#utility.yul\":5089:5244   */\n    tag_284:\n        /* \"#utility.yul\":5188:5237   */\n      tag_405\n        /* \"#utility.yul\":5231:5236   */\n      dup2\n        /* \"#utility.yul\":5188:5237   */\n      tag_283\n      jump\t// in\n    tag_405:\n        /* \"#utility.yul\":5183:5186   */\n      dup3\n        /* \"#utility.yul\":5176:5238   */\n      mstore\n        /* \"#utility.yul\":5089:5244   */\n      pop\n      pop\n      jump\t// out\n        /* \"#utility.yul\":5250:6049   */\n    tag_61:\n        /* \"#utility.yul\":5495:5499   */\n      0x00\n        /* \"#utility.yul\":5533:5536   */\n      0xc0\n        /* \"#utility.yul\":5522:5531   */\n      dup3\n        /* \"#utility.yul\":5518:5537   */\n      add\n        /* \"#utility.yul\":5510:5537   */\n      swap1\n      pop\n        /* \"#utility.yul\":5547:5618   */\n      tag_407\n        /* \"#utility.yul\":5615:5616   */\n      0x00\n        /* \"#utility.yul\":5604:5613   */\n      dup4\n        /* \"#utility.yul\":5600:5617   */\n      add\n        /* \"#utility.yul\":5591:5597   */\n      dup10\n        /* \"#utility.yul\":5547:5618   */\n      tag_279\n      jump\t// in\n    tag_407:\n        /* \"#utility.yul\":5628:5700   */\n      tag_408\n        /* \"#utility.yul\":5696:5698   */\n      0x20\n        /* \"#utility.yul\":5685:5694   */\n      dup4\n        /* \"#utility.yul\":5681:5699   */\n      add\n        /* \"#utility.yul\":5672:5678   */\n      dup9\n        /* \"#utility.yul\":5628:5700   */\n      tag_279\n      jump\t// in\n    tag_408:\n        /* \"#utility.yul\":5710:5782   */\n      tag_409\n        /* \"#utility.yul\":5778:5780   */\n      0x40\n        /* \"#utility.yul\":5767:5776   */\n      dup4\n        /* \"#utility.yul\":5763:5781   */\n      add\n        /* \"#utility.yul\":5754:5760   */\n      dup8\n        /* \"#utility.yul\":5710:5782   */\n      tag_280\n      jump\t// in\n    tag_409:\n        /* \"#utility.yul\":5792:5864   */\n      tag_410\n        /* \"#utility.yul\":5860:5862   */\n      0x60\n        /* \"#utility.yul\":5849:5858   */\n      dup4\n        /* \"#utility.yul\":5845:5863   */\n      add\n        /* \"#utility.yul\":5836:5842   */\n      dup7\n        /* \"#utility.yul\":5792:5864   */\n      tag_280\n      jump\t// in\n    tag_410:\n        /* \"#utility.yul\":5874:5947   */\n      tag_411\n        /* \"#utility.yul\":5942:5945   */\n      0x80\n        /* \"#utility.yul\":5931:5940   */\n      dup4\n        /* \"#utility.yul\":5927:5946   */\n      add\n        /* \"#utility.yul\":5918:5924   */\n      dup6\n        /* \"#utility.yul\":5874:5947   */\n      tag_279\n      jump\t// in\n    tag_411:\n        /* \"#utility.yul\":5957:6042   */\n      tag_412\n        /* \"#utility.yul\":6037:6040   */\n      0xa0\n        /* \"#utility.yul\":6026:6035   */\n      dup4\n        /* \"#utility.yul\":6022:6041   */\n      add\n        /* \"#utility.yul\":6013:6019   */\n      dup5\n        /* \"#utility.yul\":5957:6042   */\n      tag_284\n      jump\t// in\n    tag_412:\n        /* \"#utility.yul\":5250:6049   */\n      swap8\n      swap7\n      pop\n      pop\n      pop\n      pop\n      pop\n      pop\n      pop\n      jump\t// out\n        /* \"#utility.yul\":6055:6141   */\n    tag_285:\n        /* \"#utility.yul\":6090:6097   */\n      0x00\n        /* \"#utility.yul\":6130:6134   */\n      0xff\n        /* \"#utility.yul\":6123:6128   */\n      dup3\n        /* \"#utility.yul\":6119:6135   */\n      and\n        /* \"#utility.yul\":6108:6135   */\n      swap1\n      pop\n        /* \"#utility.yul\":6055:6141   */\n      swap2\n      swap1\n      pop\n      jump\t// out\n        /* \"#utility.yul\":6147:6259   */\n    tag_286:\n        /* \"#utility.yul\":6230:6252   */\n      tag_415\n        /* \"#utility.yul\":6246:6251   */\n      dup2\n        /* \"#utility.yul\":6230:6252   */\n      tag_285\n      jump\t// in\n    tag_415:\n        /* \"#utility.yul\":6225:6228   */\n      dup3\n        /* \"#utility.yul\":6218:6253   */\n      mstore\n        /* \"#utility.yul\":6147:6259   */\n      pop\n      pop\n      jump\t// out\n        /* \"#utility.yul\":6265:6479   */\n    tag_69:\n        /* \"#utility.yul\":6354:6358   */\n      0x00\n        /* \"#utility.yul\":6392:6394   */\n      0x20\n        /* \"#utility.yul\":6381:6390   */\n      dup3\n        /* \"#utility.yul\":6377:6395   */\n      add\n        /* \"#utility.yul\":6369:6395   */\n      swap1\n      pop\n        /* \"#utility.yul\":6405:6472   */\n      tag_417\n        /* \"#utility.yul\":6469:6470   */\n      0x00\n        /* \"#utility.yul\":6458:6467   */\n      dup4\n        /* \"#utility.yul\":6454:6471   */\n      add\n        /* \"#utility.yul\":6445:6451   */\n      dup5\n        /* \"#utility.yul\":6405:6472   */\n      tag_286\n      jump\t// in\n    tag_417:\n        /* \"#utility.yul\":6265:6479   */\n      swap3\n      swap2\n      pop\n      pop\n      jump\t// out\n        /* \"#utility.yul\":6485:6707   */\n    tag_74:\n        /* \"#utility.yul\":6578:6582   */\n      0x00\n        /* \"#utility.yul\":6616:6618   */\n      0x20\n        /* \"#utility.yul\":6605:6614   */\n      dup3\n        /* \"#utility.yul\":6601:6619   */\n      add\n        /* \"#utility.yul\":6593:6619   */\n      swap1\n      pop\n        /* \"#utility.yul\":6629:6700   */\n      tag_419\n        /* \"#utility.yul\":6697:6698   */\n      0x00\n        /* \"#utility.yul\":6686:6695   */\n      dup4\n        /* \"#utility.yul\":6682:6699   */\n      add\n        /* \"#utility.yul\":6673:6679   */\n      dup5\n        /* \"#utility.yul\":6629:6700   */\n      tag_280\n      jump\t// in\n    tag_419:\n        /* \"#utility.yul\":6485:6707   */\n      swap3\n      swap2\n      pop\n      pop\n      jump\t// out\n        /* \"#utility.yul\":6713:6855   */\n    tag_287:\n        /* \"#utility.yul\":6779:6788   */\n      0x00\n        /* \"#utility.yul\":6812:6849   */\n      tag_421\n        /* \"#utility.yul\":6843:6848   */\n      dup3\n        /* \"#utility.yul\":6812:6849   */\n      tag_276\n      jump\t// in\n    tag_421:\n        /* \"#utility.yul\":6799:6849   */\n      swap1\n      pop\n        /* \"#utility.yul\":6713:6855   */\n      swap2\n      swap1\n      pop\n      jump\t// out\n        /* \"#utility.yul\":6861:7024   */\n    tag_288:\n        /* \"#utility.yul\":6964:7017   */\n      tag_423\n        /* \"#utility.yul\":7011:7016   */\n      dup2\n        /* \"#utility.yul\":6964:7017   */\n      tag_287\n      jump\t// in\n    tag_423:\n        /* \"#utility.yul\":6959:6962   */\n      dup3\n        /* \"#utility.yul\":6952:7018   */\n      mstore\n        /* \"#utility.yul\":6861:7024   */\n      pop\n      pop\n      jump\t// out\n        /* \"#utility.yul\":7030:7284   */\n    tag_87:\n        /* \"#utility.yul\":7139:7143   */\n      0x00\n        /* \"#utility.yul\":7177:7179   */\n      0x20\n        /* \"#utility.yul\":7166:7175   */\n      dup3\n        /* \"#utility.yul\":7162:7180   */\n      add\n        /* \"#utility.yul\":7154:7180   */\n      swap1\n      pop\n        /* \"#utility.yul\":7190:7277   */\n      tag_425\n        /* \"#utility.yul\":7274:7275   */\n      0x00\n        /* \"#utility.yul\":7263:7272   */\n      dup4\n        /* \"#utility.yul\":7259:7276   */\n      add\n        /* \"#utility.yul\":7250:7256   */\n      dup5\n        /* \"#utility.yul\":7190:7277   */\n      tag_288\n      jump\t// in\n    tag_425:\n        /* \"#utility.yul\":7030:7284   */\n      swap3\n      swap2\n      pop\n      pop\n      jump\t// out\n        /* \"#utility.yul\":7290:7398   */\n    tag_289:\n        /* \"#utility.yul\":7367:7391   */\n      tag_427\n        /* \"#utility.yul\":7385:7390   */\n      dup2\n        /* \"#utility.yul\":7367:7391   */\n      tag_265\n      jump\t// in\n    tag_427:\n        /* \"#utility.yul\":7362:7365   */\n      dup3\n        /* \"#utility.yul\":7355:7392   */\n      mstore\n        /* \"#utility.yul\":7290:7398   */\n      pop\n      pop\n      jump\t// out\n        /* \"#utility.yul\":7404:7512   */\n    tag_290:\n        /* \"#utility.yul\":7481:7505   */\n      tag_429\n        /* \"#utility.yul\":7499:7504   */\n      dup2\n        /* \"#utility.yul\":7481:7505   */\n      tag_269\n      jump\t// in\n    tag_429:\n        /* \"#utility.yul\":7476:7479   */\n      dup3\n        /* \"#utility.yul\":7469:7506   */\n      mstore\n        /* \"#utility.yul\":7404:7512   */\n      pop\n      pop\n      jump\t// out\n        /* \"#utility.yul\":7518:7663   */\n    tag_291:\n        /* \"#utility.yul\":7607:7656   */\n      tag_431\n        /* \"#utility.yul\":7650:7655   */\n      dup2\n        /* \"#utility.yul\":7607:7656   */\n      tag_283\n      jump\t// in\n    tag_431:\n        /* \"#utility.yul\":7602:7605   */\n      dup3\n        /* \"#utility.yul\":7595:7657   */\n      mstore\n        /* \"#utility.yul\":7518:7663   */\n      pop\n      pop\n      jump\t// out\n        /* \"#utility.yul\":7753:8983   */\n    tag_292:\n        /* \"#utility.yul\":7904:7908   */\n      0xc0\n        /* \"#utility.yul\":7899:7902   */\n      dup3\n        /* \"#utility.yul\":7895:7909   */\n      add\n        /* \"#utility.yul\":7993:7997   */\n      0x00\n        /* \"#utility.yul\":7986:7991   */\n      dup3\n        /* \"#utility.yul\":7982:7998   */\n      add\n        /* \"#utility.yul\":7976:7999   */\n      mload\n        /* \"#utility.yul\":8012:8075   */\n      tag_433\n        /* \"#utility.yul\":8069:8073   */\n      0x00\n        /* \"#utility.yul\":8064:8067   */\n      dup6\n        /* \"#utility.yul\":8060:8074   */\n      add\n        /* \"#utility.yul\":8046:8058   */\n      dup3\n        /* \"#utility.yul\":8012:8075   */\n      tag_289\n      jump\t// in\n    tag_433:\n        /* \"#utility.yul\":7919:8085   */\n      pop\n        /* \"#utility.yul\":8170:8174   */\n      0x20\n        /* \"#utility.yul\":8163:8168   */\n      dup3\n        /* \"#utility.yul\":8159:8175   */\n      add\n        /* \"#utility.yul\":8153:8176   */\n      mload\n        /* \"#utility.yul\":8189:8252   */\n      tag_434\n        /* \"#utility.yul\":8246:8250   */\n      0x20\n        /* \"#utility.yul\":8241:8244   */\n      dup6\n        /* \"#utility.yul\":8237:8251   */\n      add\n        /* \"#utility.yul\":8223:8235   */\n      dup3\n        /* \"#utility.yul\":8189:8252   */\n      tag_289\n      jump\t// in\n    tag_434:\n        /* \"#utility.yul\":8095:8262   */\n      pop\n        /* \"#utility.yul\":8346:8350   */\n      0x40\n        /* \"#utility.yul\":8339:8344   */\n      dup3\n        /* \"#utility.yul\":8335:8351   */\n      add\n        /* \"#utility.yul\":8329:8352   */\n      mload\n        /* \"#utility.yul\":8365:8428   */\n      tag_435\n        /* \"#utility.yul\":8422:8426   */\n      0x40\n        /* \"#utility.yul\":8417:8420   */\n      dup6\n        /* \"#utility.yul\":8413:8427   */\n      add\n        /* \"#utility.yul\":8399:8411   */\n      dup3\n        /* \"#utility.yul\":8365:8428   */\n      tag_290\n      jump\t// in\n    tag_435:\n        /* \"#utility.yul\":8272:8438   */\n      pop\n        /* \"#utility.yul\":8521:8525   */\n      0x60\n        /* \"#utility.yul\":8514:8519   */\n      dup3\n        /* \"#utility.yul\":8510:8526   */\n      add\n        /* \"#utility.yul\":8504:8527   */\n      mload\n        /* \"#utility.yul\":8540:8603   */\n      tag_436\n        /* \"#utility.yul\":8597:8601   */\n      0x60\n        /* \"#utility.yul\":8592:8595   */\n      dup6\n        /* \"#utility.yul\":8588:8602   */\n      add\n        /* \"#utility.yul\":8574:8586   */\n      dup3\n        /* \"#utility.yul\":8540:8603   */\n      tag_290\n      jump\t// in\n    tag_436:\n        /* \"#utility.yul\":8448:8613   */\n      pop\n        /* \"#utility.yul\":8696:8700   */\n      0x80\n        /* \"#utility.yul\":8689:8694   */\n      dup3\n        /* \"#utility.yul\":8685:8701   */\n      add\n        /* \"#utility.yul\":8679:8702   */\n      mload\n        /* \"#utility.yul\":8715:8778   */\n      tag_437\n        /* \"#utility.yul\":8772:8776   */\n      0x80\n        /* \"#utility.yul\":8767:8770   */\n      dup6\n        /* \"#utility.yul\":8763:8777   */\n      add\n        /* \"#utility.yul\":8749:8761   */\n      dup3\n        /* \"#utility.yul\":8715:8778   */\n      tag_289\n      jump\t// in\n    tag_437:\n        /* \"#utility.yul\":8623:8788   */\n      pop\n        /* \"#utility.yul\":8872:8876   */\n      0xa0\n        /* \"#utility.yul\":8865:8870   */\n      dup3\n        /* \"#utility.yul\":8861:8877   */\n      add\n        /* \"#utility.yul\":8855:8878   */\n      mload\n        /* \"#utility.yul\":8891:8966   */\n      tag_438\n        /* \"#utility.yul\":8960:8964   */\n      0xa0\n        /* \"#utility.yul\":8955:8958   */\n      dup6\n        /* \"#utility.yul\":8951:8965   */\n      add\n        /* \"#utility.yul\":8937:8949   */\n      dup3\n        /* \"#utility.yul\":8891:8966   */\n      tag_291\n      jump\t// in\n    tag_438:\n        /* \"#utility.yul\":8798:8976   */\n      pop\n        /* \"#utility.yul\":7873:8983   */\n      pop\n        /* \"#utility.yul\":7753:8983   */\n      pop\n      pop\n      jump\t// out\n        /* \"#utility.yul\":8989:9320   */\n    tag_93:\n        /* \"#utility.yul\":9136:9140   */\n      0x00\n        /* \"#utility.yul\":9174:9177   */\n      0xc0\n        /* \"#utility.yul\":9163:9172   */\n      dup3\n        /* \"#utility.yul\":9159:9178   */\n      add\n        /* \"#utility.yul\":9151:9178   */\n      swap1\n      pop\n        /* \"#utility.yul\":9188:9313   */\n      tag_440\n        /* \"#utility.yul\":9310:9311   */\n      0x00\n        /* \"#utility.yul\":9299:9308   */\n      dup4\n        /* \"#utility.yul\":9295:9312   */\n      add\n        /* \"#utility.yul\":9286:9292   */\n      dup5\n        /* \"#utility.yul\":9188:9313   */\n      tag_292\n      jump\t// in\n    tag_440:\n        /* \"#utility.yul\":8989:9320   */\n      swap3\n      swap2\n      pop\n      pop\n      jump\t// out\n        /* \"#utility.yul\":9326:9467   */\n    tag_293:\n        /* \"#utility.yul\":9391:9400   */\n      0x00\n        /* \"#utility.yul\":9424:9461   */\n      tag_442\n        /* \"#utility.yul\":9455:9460   */\n      dup3\n        /* \"#utility.yul\":9424:9461   */\n      tag_276\n      jump\t// in\n    tag_442:\n        /* \"#utility.yul\":9411:9461   */\n      swap1\n      pop\n        /* \"#utility.yul\":9326:9467   */\n      swap2\n      swap1\n      pop\n      jump\t// out\n        /* \"#utility.yul\":9473:9634   */\n    tag_294:\n        /* \"#utility.yul\":9575:9627   */\n      tag_444\n        /* \"#utility.yul\":9621:9626   */\n      dup2\n        /* \"#utility.yul\":9575:9627   */\n      tag_293\n      jump\t// in\n    tag_444:\n        /* \"#utility.yul\":9570:9573   */\n      dup3\n        /* \"#utility.yul\":9563:9628   */\n      mstore\n        /* \"#utility.yul\":9473:9634   */\n      pop\n      pop\n      jump\t// out\n        /* \"#utility.yul\":9640:9892   */\n    tag_102:\n        /* \"#utility.yul\":9748:9752   */\n      0x00\n        /* \"#utility.yul\":9786:9788   */\n      0x20\n        /* \"#utility.yul\":9775:9784   */\n      dup3\n        /* \"#utility.yul\":9771:9789   */\n      add\n        /* \"#utility.yul\":9763:9789   */\n      swap1\n      pop\n        /* \"#utility.yul\":9799:9885   */\n      tag_446\n        /* \"#utility.yul\":9882:9883   */\n      0x00\n        /* \"#utility.yul\":9871:9880   */\n      dup4\n        /* \"#utility.yul\":9867:9884   */\n      add\n        /* \"#utility.yul\":9858:9864   */\n      dup5\n        /* \"#utility.yul\":9799:9885   */\n      tag_294\n      jump\t// in\n    tag_446:\n        /* \"#utility.yul\":9640:9892   */\n      swap3\n      swap2\n      pop\n      pop\n      jump\t// out\n        /* \"#utility.yul\":9898:10067   */\n    tag_295:\n        /* \"#utility.yul\":9982:9993   */\n      0x00\n        /* \"#utility.yul\":10016:10022   */\n      dup3\n        /* \"#utility.yul\":10011:10014   */\n      dup3\n        /* \"#utility.yul\":10004:10023   */\n      mstore\n        /* \"#utility.yul\":10056:10060   */\n      0x20\n        /* \"#utility.yul\":10051:10054   */\n      dup3\n        /* \"#utility.yul\":10047:10061   */\n      add\n        /* \"#utility.yul\":10032:10061   */\n      swap1\n      pop\n        /* \"#utility.yul\":9898:10067   */\n      swap3\n      swap2\n      pop\n      pop\n      jump\t// out\n        /* \"#utility.yul\":10073:10242   */\n    tag_296:\n        /* \"#utility.yul\":10213:10234   */\n      0x4173736574206e6f74207075626c697368656400000000000000000000000000\n        /* \"#utility.yul\":10209:10210   */\n      0x00\n        /* \"#utility.yul\":10201:10207   */\n      dup3\n        /* \"#utility.yul\":10197:10211   */\n      add\n        /* \"#utility.yul\":10190:10235   */\n      mstore\n        /* \"#utility.yul\":10073:10242   */\n      pop\n      jump\t// out\n        /* \"#utility.yul\":10248:10614   */\n    tag_297:\n        /* \"#utility.yul\":10390:10393   */\n      0x00\n        /* \"#utility.yul\":10411:10478   */\n      tag_450\n        /* \"#utility.yul\":10475:10477   */\n      0x13\n        /* \"#utility.yul\":10470:10473   */\n      dup4\n        /* \"#utility.yul\":10411:10478   */\n      tag_295\n      jump\t// in\n    tag_450:\n        /* \"#utility.yul\":10404:10478   */\n      swap2\n      pop\n        /* \"#utility.yul\":10487:10580   */\n      tag_451\n        /* \"#utility.yul\":10576:10579   */\n      dup3\n        /* \"#utility.yul\":10487:10580   */\n      tag_296\n      jump\t// in\n    tag_451:\n        /* \"#utility.yul\":10605:10607   */\n      0x20\n        /* \"#utility.yul\":10600:10603   */\n      dup3\n        /* \"#utility.yul\":10596:10608   */\n      add\n        /* \"#utility.yul\":10589:10608   */\n      swap1\n      pop\n        /* \"#utility.yul\":10248:10614   */\n      swap2\n      swap1\n      pop\n      jump\t// out\n        /* \"#utility.yul\":10620:11039   */\n    tag_116:\n        /* \"#utility.yul\":10786:10790   */\n      0x00\n        /* \"#utility.yul\":10824:10826   */\n      0x20\n        /* \"#utility.yul\":10813:10822   */\n      dup3\n        /* \"#utility.yul\":10809:10827   */\n      add\n        /* \"#utility.yul\":10801:10827   */\n      swap1\n      pop\n        /* \"#utility.yul\":10873:10882   */\n      dup2\n        /* \"#utility.yul\":10867:10871   */\n      dup2\n        /* \"#utility.yul\":10863:10883   */\n      sub\n        /* \"#utility.yul\":10859:10860   */\n      0x00\n        /* \"#utility.yul\":10848:10857   */\n      dup4\n        /* \"#utility.yul\":10844:10861   */\n      add\n        /* \"#utility.yul\":10837:10884   */\n      mstore\n        /* \"#utility.yul\":10901:11032   */\n      tag_453\n        /* \"#utility.yul\":11027:11031   */\n      dup2\n        /* \"#utility.yul\":10901:11032   */\n      tag_297\n      jump\t// in\n    tag_453:\n        /* \"#utility.yul\":10893:11032   */\n      swap1\n      pop\n        /* \"#utility.yul\":10620:11039   */\n      swap2\n      swap1\n      pop\n      jump\t// out\n        /* \"#utility.yul\":11045:11209   */\n    tag_298:\n        /* \"#utility.yul\":11185:11201   */\n      0x41737365742064656c6973746564000000000000000000000000000000000000\n        /* \"#utility.yul\":11181:11182   */\n      0x00\n        /* \"#utility.yul\":11173:11179   */\n      dup3\n        /* \"#utility.yul\":11169:11183   */\n      add\n        /* \"#utility.yul\":11162:11202   */\n      mstore\n        /* \"#utility.yul\":11045:11209   */\n      pop\n      jump\t// out\n        /* \"#utility.yul\":11215:11581   */\n    tag_299:\n        /* \"#utility.yul\":11357:11360   */\n      0x00\n        /* \"#utility.yul\":11378:11445   */\n      tag_456\n        /* \"#utility.yul\":11442:11444   */\n      0x0e\n        /* \"#utility.yul\":11437:11440   */\n      dup4\n        /* \"#utility.yul\":11378:11445   */\n      tag_295\n      jump\t// in\n    tag_456:\n        /* \"#utility.yul\":11371:11445   */\n      swap2\n      pop\n        /* \"#utility.yul\":11454:11547   */\n      tag_457\n        /* \"#utility.yul\":11543:11546   */\n      dup3\n        /* \"#utility.yul\":11454:11547   */\n      tag_298\n      jump\t// in\n    tag_457:\n        /* \"#utility.yul\":11572:11574   */\n      0x20\n        /* \"#utility.yul\":11567:11570   */\n      dup3\n        /* \"#utility.yul\":11563:11575   */\n      add\n        /* \"#utility.yul\":11556:11575   */\n      swap1\n      pop\n        /* \"#utility.yul\":11215:11581   */\n      swap2\n      swap1\n      pop\n      jump\t// out\n        /* \"#utility.yul\":11587:12006   */\n    tag_123:\n        /* \"#utility.yul\":11753:11757   */\n      0x00\n        /* \"#utility.yul\":11791:11793   */\n      0x20\n        /* \"#utility.yul\":11780:11789   */\n      dup3\n        /* \"#utility.yul\":11776:11794   */\n      add\n        /* \"#utility.yul\":11768:11794   */\n      swap1\n      pop\n        /* \"#utility.yul\":11840:11849   */\n      dup2\n        /* \"#utility.yul\":11834:11838   */\n      dup2\n        /* \"#utility.yul\":11830:11850   */\n      sub\n        /* \"#utility.yul\":11826:11827   */\n      0x00\n        /* \"#utility.yul\":11815:11824   */\n      dup4\n        /* \"#utility.yul\":11811:11828   */\n      add\n        /* \"#utility.yul\":11804:11851   */\n      mstore\n        /* \"#utility.yul\":11868:11999   */\n      tag_459\n        /* \"#utility.yul\":11994:11998   */\n      dup2\n        /* \"#utility.yul\":11868:11999   */\n      tag_299\n      jump\t// in\n    tag_459:\n        /* \"#utility.yul\":11860:11999   */\n      swap1\n      pop\n        /* \"#utility.yul\":11587:12006   */\n      swap2\n      swap1\n      pop\n      jump\t// out\n        /* \"#utility.yul\":12012:12177   */\n    tag_300:\n        /* \"#utility.yul\":12152:12169   */\n      0x496e76616c696420616464726573730000000000000000000000000000000000\n        /* \"#utility.yul\":12148:12149   */\n      0x00\n        /* \"#utility.yul\":12140:12146   */\n      dup3\n        /* \"#utility.yul\":12136:12150   */\n      add\n        /* \"#utility.yul\":12129:12170   */\n      mstore\n        /* \"#utility.yul\":12012:12177   */\n      pop\n      jump\t// out\n        /* \"#utility.yul\":12183:12549   */\n    tag_301:\n        /* \"#utility.yul\":12325:12328   */\n      0x00\n        /* \"#utility.yul\":12346:12413   */\n      tag_462\n        /* \"#utility.yul\":12410:12412   */\n      0x0f\n        /* \"#utility.yul\":12405:12408   */\n      dup4\n        /* \"#utility.yul\":12346:12413   */\n      tag_295\n      jump\t// in\n    tag_462:\n        /* \"#utility.yul\":12339:12413   */\n      swap2\n      pop\n        /* \"#utility.yul\":12422:12515   */\n      tag_463\n        /* \"#utility.yul\":12511:12514   */\n      dup3\n        /* \"#utility.yul\":12422:12515   */\n      tag_300\n      jump\t// in\n    tag_463:\n        /* \"#utility.yul\":12540:12542   */\n      0x20\n        /* \"#utility.yul\":12535:12538   */\n      dup3\n        /* \"#utility.yul\":12531:12543   */\n      add\n        /* \"#utility.yul\":12524:12543   */\n      swap1\n      pop\n        /* \"#utility.yul\":12183:12549   */\n      swap2\n      swap1\n      pop\n      jump\t// out\n        /* \"#utility.yul\":12555:12974   */\n    tag_126:\n        /* \"#utility.yul\":12721:12725   */\n      0x00\n        /* \"#utility.yul\":12759:12761   */\n      0x20\n        /* \"#utility.yul\":12748:12757   */\n      dup3\n        /* \"#utility.yul\":12744:12762   */\n      add\n        /* \"#utility.yul\":12736:12762   */\n      swap1\n      pop\n        /* \"#utility.yul\":12808:12817   */\n      dup2\n        /* \"#utility.yul\":12802:12806   */\n      dup2\n        /* \"#utility.yul\":12798:12818   */\n      sub\n        /* \"#utility.yul\":12794:12795   */\n      0x00\n        /* \"#utility.yul\":12783:12792   */\n      dup4\n        /* \"#utility.yul\":12779:12796   */\n      add\n        /* \"#utility.yul\":12772:12819   */\n      mstore\n        /* \"#utility.yul\":12836:12967   */\n      tag_465\n        /* \"#utility.yul\":12962:12966   */\n      dup2\n        /* \"#utility.yul\":12836:12967   */\n      tag_301\n      jump\t// in\n    tag_465:\n        /* \"#utility.yul\":12828:12967   */\n      swap1\n      pop\n        /* \"#utility.yul\":12555:12974   */\n      swap2\n      swap1\n      pop\n      jump\t// out\n        /* \"#utility.yul\":12980:13152   */\n    tag_302:\n        /* \"#utility.yul\":13120:13144   */\n      0x4f6e6c792073656c6c65722063616e2064656c69737400000000000000000000\n        /* \"#utility.yul\":13116:13117   */\n      0x00\n        /* \"#utility.yul\":13108:13114   */\n      dup3\n        /* \"#utility.yul\":13104:13118   */\n      add\n        /* \"#utility.yul\":13097:13145   */\n      mstore\n        /* \"#utility.yul\":12980:13152   */\n      pop\n      jump\t// out\n        /* \"#utility.yul\":13158:13524   */\n    tag_303:\n        /* \"#utility.yul\":13300:13303   */\n      0x00\n        /* \"#utility.yul\":13321:13388   */\n      tag_468\n        /* \"#utility.yul\":13385:13387   */\n      0x16\n        /* \"#utility.yul\":13380:13383   */\n      dup4\n        /* \"#utility.yul\":13321:13388   */\n      tag_295\n      jump\t// in\n    tag_468:\n        /* \"#utility.yul\":13314:13388   */\n      swap2\n      pop\n        /* \"#utility.yul\":13397:13490   */\n      tag_469\n        /* \"#utility.yul\":13486:13489   */\n      dup3\n        /* \"#utility.yul\":13397:13490   */\n      tag_302\n      jump\t// in\n    tag_469:\n        /* \"#utility.yul\":13515:13517   */\n      0x20\n        /* \"#utility.yul\":13510:13513   */\n      dup3\n        /* \"#utility.yul\":13506:13518   */\n      add\n        /* \"#utility.yul\":13499:13518   */\n      swap1\n      pop\n        /* \"#utility.yul\":13158:13524   */\n      swap2\n      swap1\n      pop\n      jump\t// out\n        /* \"#utility.yul\":13530:13949   */\n    tag_129:\n        /* \"#utility.yul\":13696:13700   */\n      0x00\n        /* \"#utility.yul\":13734:13736   */\n      0x20\n        /* \"#utility.yul\":13723:13732   */\n      dup3\n        /* \"#utility.yul\":13719:13737   */\n      add\n        /* \"#utility.yul\":13711:13737   */\n      swap1\n      pop\n        /* \"#utility.yul\":13783:13792   */\n      dup2\n        /* \"#utility.yul\":13777:13781   */\n      dup2\n        /* \"#utility.yul\":13773:13793   */\n      sub\n        /* \"#utility.yul\":13769:13770   */\n      0x00\n        /* \"#utility.yul\":13758:13767   */\n      dup4\n        /* \"#utility.yul\":13754:13771   */\n      add\n        /* \"#utility.yul\":13747:13794   */\n      mstore\n        /* \"#utility.yul\":13811:13942   */\n      tag_471\n        /* \"#utility.yul\":13937:13941   */\n      dup2\n        /* \"#utility.yul\":13811:13942   */\n      tag_303\n      jump\t// in\n    tag_471:\n        /* \"#utility.yul\":13803:13942   */\n      swap1\n      pop\n        /* \"#utility.yul\":13530:13949   */\n      swap2\n      swap1\n      pop\n      jump\t// out\n        /* \"#utility.yul\":13955:14397   */\n    tag_131:\n        /* \"#utility.yul\":14104:14108   */\n      0x00\n        /* \"#utility.yul\":14142:14144   */\n      0x60\n        /* \"#utility.yul\":14131:14140   */\n      dup3\n        /* \"#utility.yul\":14127:14145   */\n      add\n        /* \"#utility.yul\":14119:14145   */\n      swap1\n      pop\n        /* \"#utility.yul\":14155:14226   */\n      tag_473\n        /* \"#utility.yul\":14223:14224   */\n      0x00\n        /* \"#utility.yul\":14212:14221   */\n      dup4\n        /* \"#utility.yul\":14208:14225   */\n      add\n        /* \"#utility.yul\":14199:14205   */\n      dup7\n        /* \"#utility.yul\":14155:14226   */\n      tag_280\n      jump\t// in\n    tag_473:\n        /* \"#utility.yul\":14236:14308   */\n      tag_474\n        /* \"#utility.yul\":14304:14306   */\n      0x20\n        /* \"#utility.yul\":14293:14302   */\n      dup4\n        /* \"#utility.yul\":14289:14307   */\n      add\n        /* \"#utility.yul\":14280:14286   */\n      dup6\n        /* \"#utility.yul\":14236:14308   */\n      tag_280\n      jump\t// in\n    tag_474:\n        /* \"#utility.yul\":14318:14390   */\n      tag_475\n        /* \"#utility.yul\":14386:14388   */\n      0x40\n        /* \"#utility.yul\":14375:14384   */\n      dup4\n        /* \"#utility.yul\":14371:14389   */\n      add\n        /* \"#utility.yul\":14362:14368   */\n      dup5\n        /* \"#utility.yul\":14318:14390   */\n      tag_279\n      jump\t// in\n    tag_475:\n        /* \"#utility.yul\":13955:14397   */\n      swap5\n      swap4\n      pop\n      pop\n      pop\n      pop\n      jump\t// out\n        /* \"#utility.yul\":14403:14735   */\n    tag_140:\n        /* \"#utility.yul\":14524:14528   */\n      0x00\n        /* \"#utility.yul\":14562:14564   */\n      0x40\n        /* \"#utility.yul\":14551:14560   */\n      dup3\n        /* \"#utility.yul\":14547:14565   */\n      add\n        /* \"#utility.yul\":14539:14565   */\n      swap1\n      pop\n        /* \"#utility.yul\":14575:14646   */\n      tag_477\n        /* \"#utility.yul\":14643:14644   */\n      0x00\n        /* \"#utility.yul\":14632:14641   */\n      dup4\n        /* \"#utility.yul\":14628:14645   */\n      add\n        /* \"#utility.yul\":14619:14625   */\n      dup6\n        /* \"#utility.yul\":14575:14646   */\n      tag_279\n      jump\t// in\n    tag_477:\n        /* \"#utility.yul\":14656:14728   */\n      tag_478\n        /* \"#utility.yul\":14724:14726   */\n      0x20\n        /* \"#utility.yul\":14713:14722   */\n      dup4\n        /* \"#utility.yul\":14709:14727   */\n      add\n        /* \"#utility.yul\":14700:14706   */\n      dup5\n        /* \"#utility.yul\":14656:14728   */\n      tag_279\n      jump\t// in\n    tag_478:\n        /* \"#utility.yul\":14403:14735   */\n      swap4\n      swap3\n      pop\n      pop\n      pop\n      jump\t// out\n        /* \"#utility.yul\":14741:14923   */\n    tag_304:\n        /* \"#utility.yul\":14881:14915   */\n      0x4f776e61626c653a2063616c6c6572206973206e6f7420746865206f776e6572\n        /* \"#utility.yul\":14877:14878   */\n      0x00\n        /* \"#utility.yul\":14869:14875   */\n      dup3\n        /* \"#utility.yul\":14865:14879   */\n      add\n        /* \"#utility.yul\":14858:14916   */\n      mstore\n        /* \"#utility.yul\":14741:14923   */\n      pop\n      jump\t// out\n        /* \"#utility.yul\":14929:15295   */\n    tag_305:\n        /* \"#utility.yul\":15071:15074   */\n      0x00\n        /* \"#utility.yul\":15092:15159   */\n      tag_481\n        /* \"#utility.yul\":15156:15158   */\n      0x20\n        /* \"#utility.yul\":15151:15154   */\n      dup4\n        /* \"#utility.yul\":15092:15159   */\n      tag_295\n      jump\t// in\n    tag_481:\n        /* \"#utility.yul\":15085:15159   */\n      swap2\n      pop\n        /* \"#utility.yul\":15168:15261   */\n      tag_482\n        /* \"#utility.yul\":15257:15260   */\n      dup3\n        /* \"#utility.yul\":15168:15261   */\n      tag_304\n      jump\t// in\n    tag_482:\n        /* \"#utility.yul\":15286:15288   */\n      0x20\n        /* \"#utility.yul\":15281:15284   */\n      dup3\n        /* \"#utility.yul\":15277:15289   */\n      add\n        /* \"#utility.yul\":15270:15289   */\n      swap1\n      pop\n        /* \"#utility.yul\":14929:15295   */\n      swap2\n      swap1\n      pop\n      jump\t// out\n        /* \"#utility.yul\":15301:15720   */\n    tag_147:\n        /* \"#utility.yul\":15467:15471   */\n      0x00\n        /* \"#utility.yul\":15505:15507   */\n      0x20\n        /* \"#utility.yul\":15494:15503   */\n      dup3\n        /* \"#utility.yul\":15490:15508   */\n      add\n        /* \"#utility.yul\":15482:15508   */\n      swap1\n      pop\n        /* \"#utility.yul\":15554:15563   */\n      dup2\n        /* \"#utility.yul\":15548:15552   */\n      dup2\n        /* \"#utility.yul\":15544:15564   */\n      sub\n        /* \"#utility.yul\":15540:15541   */\n      0x00\n        /* \"#utility.yul\":15529:15538   */\n      dup4\n        /* \"#utility.yul\":15525:15542   */\n      add\n        /* \"#utility.yul\":15518:15565   */\n      mstore\n        /* \"#utility.yul\":15582:15713   */\n      tag_484\n        /* \"#utility.yul\":15708:15712   */\n      dup2\n        /* \"#utility.yul\":15582:15713   */\n      tag_305\n      jump\t// in\n    tag_484:\n        /* \"#utility.yul\":15574:15713   */\n      swap1\n      pop\n        /* \"#utility.yul\":15301:15720   */\n      swap2\n      swap1\n      pop\n      jump\t// out\n        /* \"#utility.yul\":15726:15907   */\n    tag_306:\n        /* \"#utility.yul\":15866:15899   */\n      0x5265656e7472616e637947756172643a207265656e7472616e742063616c6c00\n        /* \"#utility.yul\":15862:15863   */\n      0x00\n        /* \"#utility.yul\":15854:15860   */\n      dup3\n        /* \"#utility.yul\":15850:15864   */\n      add\n        /* \"#utility.yul\":15843:15900   */\n      mstore\n        /* \"#utility.yul\":15726:15907   */\n      pop\n      jump\t// out\n        /* \"#utility.yul\":15913:16279   */\n    tag_307:\n        /* \"#utility.yul\":16055:16058   */\n      0x00\n        /* \"#utility.yul\":16076:16143   */\n      tag_487\n        /* \"#utility.yul\":16140:16142   */\n      0x1f\n        /* \"#utility.yul\":16135:16138   */\n      dup4\n        /* \"#utility.yul\":16076:16143   */\n      tag_295\n      jump\t// in\n    tag_487:\n        /* \"#utility.yul\":16069:16143   */\n      swap2\n      pop\n        /* \"#utility.yul\":16152:16245   */\n      tag_488\n        /* \"#utility.yul\":16241:16244   */\n      dup3\n        /* \"#utility.yul\":16152:16245   */\n      tag_306\n      jump\t// in\n    tag_488:\n        /* \"#utility.yul\":16270:16272   */\n      0x20\n        /* \"#utility.yul\":16265:16268   */\n      dup3\n        /* \"#utility.yul\":16261:16273   */\n      add\n        /* \"#utility.yul\":16254:16273   */\n      swap1\n      pop\n        /* \"#utility.yul\":15913:16279   */\n      swap2\n      swap1\n      pop\n      jump\t// out\n        /* \"#utility.yul\":16285:16704   */\n    tag_158:\n        /* \"#utility.yul\":16451:16455   */\n      0x00\n        /* \"#utility.yul\":16489:16491   */\n      0x20\n        /* \"#utility.yul\":16478:16487   */\n      dup3\n        /* \"#utility.yul\":16474:16492   */\n      add\n        /* \"#utility.yul\":16466:16492   */\n      swap1\n      pop\n        /* \"#utility.yul\":16538:16547   */\n      dup2\n        /* \"#utility.yul\":16532:16536   */\n      dup2\n        /* \"#utility.yul\":16528:16548   */\n      sub\n        /* \"#utility.yul\":16524:16525   */\n      0x00\n        /* \"#utility.yul\":16513:16522   */\n      dup4\n        /* \"#utility.yul\":16509:16526   */\n      add\n        /* \"#utility.yul\":16502:16549   */\n      mstore\n        /* \"#utility.yul\":16566:16697   */\n      tag_490\n        /* \"#utility.yul\":16692:16696   */\n      dup2\n        /* \"#utility.yul\":16566:16697   */\n      tag_307\n      jump\t// in\n    tag_490:\n        /* \"#utility.yul\":16558:16697   */\n      swap1\n      pop\n        /* \"#utility.yul\":16285:16704   */\n      swap2\n      swap1\n      pop\n      jump\t// out\n        /* \"#utility.yul\":16710:16888   */\n    tag_308:\n        /* \"#utility.yul\":16850:16880   */\n      0x5072696365206d757374206265206174206c6561737420312077656900000000\n        /* \"#utility.yul\":16846:16847   */\n      0x00\n        /* \"#utility.yul\":16838:16844   */\n      dup3\n        /* \"#utility.yul\":16834:16848   */\n      add\n        /* \"#utility.yul\":16827:16881   */\n      mstore\n        /* \"#utility.yul\":16710:16888   */\n      pop\n      jump\t// out\n        /* \"#utility.yul\":16894:17260   */\n    tag_309:\n        /* \"#utility.yul\":17036:17039   */\n      0x00\n        /* \"#utility.yul\":17057:17124   */\n      tag_493\n        /* \"#utility.yul\":17121:17123   */\n      0x1c\n        /* \"#utility.yul\":17116:17119   */\n      dup4\n        /* \"#utility.yul\":17057:17124   */\n      tag_295\n      jump\t// in\n    tag_493:\n        /* \"#utility.yul\":17050:17124   */\n      swap2\n      pop\n        /* \"#utility.yul\":17133:17226   */\n      tag_494\n        /* \"#utility.yul\":17222:17225   */\n      dup3\n        /* \"#utility.yul\":17133:17226   */\n      tag_308\n      jump\t// in\n    tag_494:\n        /* \"#utility.yul\":17251:17253   */\n      0x20\n        /* \"#utility.yul\":17246:17249   */\n      dup3\n        /* \"#utility.yul\":17242:17254   */\n      add\n        /* \"#utility.yul\":17235:17254   */\n      swap1\n      pop\n        /* \"#utility.yul\":16894:17260   */\n      swap2\n      swap1\n      pop\n      jump\t// out\n        /* \"#utility.yul\":17266:17685   */\n    tag_162:\n        /* \"#utility.yul\":17432:17436   */\n      0x00\n        /* \"#utility.yul\":17470:17472   */\n      0x20\n        /* \"#utility.yul\":17459:17468   */\n      dup3\n        /* \"#utility.yul\":17455:17473   */\n      add\n        /* \"#utility.yul\":17447:17473   */\n      swap1\n      pop\n        /* \"#utility.yul\":17519:17528   */\n      dup2\n        /* \"#utility.yul\":17513:17517   */\n      dup2\n        /* \"#utility.yul\":17509:17529   */\n      sub\n        /* \"#utility.yul\":17505:17506   */\n      0x00\n        /* \"#utility.yul\":17494:17503   */\n      dup4\n        /* \"#utility.yul\":17490:17507   */\n      add\n        /* \"#utility.yul\":17483:17530   */\n      mstore\n        /* \"#utility.yul\":17547:17678   */\n      tag_496\n        /* \"#utility.yul\":17673:17677   */\n      dup2\n        /* \"#utility.yul\":17547:17678   */\n      tag_309\n      jump\t// in\n    tag_496:\n        /* \"#utility.yul\":17539:17678   */\n      swap1\n      pop\n        /* \"#utility.yul\":17266:17685   */\n      swap2\n      swap1\n      pop\n      jump\t// out\n        /* \"#utility.yul\":17691:17913   */\n    tag_164:\n        /* \"#utility.yul\":17784:17788   */\n      0x00\n        /* \"#utility.yul\":17822:17824   */\n      0x20\n        /* \"#utility.yul\":17811:17820   */\n      dup3\n        /* \"#utility.yul\":17807:17825   */\n      add\n        /* \"#utility.yul\":17799:17825   */\n      swap1\n      pop\n        /* \"#utility.yul\":17835:17906   */\n      tag_498\n        /* \"#utility.yul\":17903:17904   */\n      0x00\n        /* \"#utility.yul\":17892:17901   */\n      dup4\n        /* \"#utility.yul\":17888:17905   */\n      add\n        /* \"#utility.yul\":17879:17885   */\n      dup5\n        /* \"#utility.yul\":17835:17906   */\n      tag_279\n      jump\t// in\n    tag_498:\n        /* \"#utility.yul\":17691:17913   */\n      swap3\n      swap2\n      pop\n      pop\n      jump\t// out\n        /* \"#utility.yul\":17919:18036   */\n    tag_310:\n        /* \"#utility.yul\":18028:18029   */\n      0x00\n        /* \"#utility.yul\":18025:18026   */\n      dup1\n        /* \"#utility.yul\":18018:18030   */\n      revert\n        /* \"#utility.yul\":18042:18144   */\n    tag_311:\n        /* \"#utility.yul\":18083:18089   */\n      0x00\n        /* \"#utility.yul\":18134:18136   */\n      0x1f\n        /* \"#utility.yul\":18130:18137   */\n      not\n        /* \"#utility.yul\":18125:18127   */\n      0x1f\n        /* \"#utility.yul\":18118:18123   */\n      dup4\n        /* \"#utility.yul\":18114:18128   */\n      add\n        /* \"#utility.yul\":18110:18138   */\n      and\n        /* \"#utility.yul\":18100:18138   */\n      swap1\n      pop\n        /* \"#utility.yul\":18042:18144   */\n      swap2\n      swap1\n      pop\n      jump\t// out\n        /* \"#utility.yul\":18150:18330   */\n    tag_312:\n        /* \"#utility.yul\":18198:18275   */\n      0x4e487b7100000000000000000000000000000000000000000000000000000000\n        /* \"#utility.yul\":18195:18196   */\n      0x00\n        /* \"#utility.yul\":18188:18276   */\n      mstore\n        /* \"#utility.yul\":18295:18299   */\n      0x41\n        /* \"#utility.yul\":18292:18293   */\n      0x04\n        /* \"#utility.yul\":18285:18300   */\n      mstore\n        /* \"#utility.yul\":18319:18323   */\n      0x24\n        /* \"#utility.yul\":18316:18317   */\n      0x00\n        /* \"#utility.yul\":18309:18324   */\n      revert\n        /* \"#utility.yul\":18336:18617   */\n    tag_313:\n        /* \"#utility.yul\":18419:18446   */\n      tag_503\n        /* \"#utility.yul\":18441:18445   */\n      dup3\n        /* \"#utility.yul\":18419:18446   */\n      tag_311\n      jump\t// in\n    tag_503:\n        /* \"#utility.yul\":18411:18417   */\n      dup2\n        /* \"#utility.yul\":18407:18447   */\n      add\n        /* \"#utility.yul\":18549:18555   */\n      dup2\n        /* \"#utility.yul\":18537:18547   */\n      dup2\n        /* \"#utility.yul\":18534:18556   */\n      lt\n        /* \"#utility.yul\":18513:18531   */\n      0xffffffffffffffff\n        /* \"#utility.yul\":18501:18511   */\n      dup3\n        /* \"#utility.yul\":18498:18532   */\n      gt\n        /* \"#utility.yul\":18495:18557   */\n      or\n        /* \"#utility.yul\":18492:18580   */\n      iszero\n      tag_504\n      jumpi\n        /* \"#utility.yul\":18560:18578   */\n      tag_505\n      tag_312\n      jump\t// in\n    tag_505:\n        /* \"#utility.yul\":18492:18580   */\n    tag_504:\n        /* \"#utility.yul\":18600:18610   */\n      dup1\n        /* \"#utility.yul\":18596:18598   */\n      0x40\n        /* \"#utility.yul\":18589:18611   */\n      mstore\n        /* \"#utility.yul\":18379:18617   */\n      pop\n        /* \"#utility.yul\":18336:18617   */\n      pop\n      pop\n      jump\t// out\n        /* \"#utility.yul\":18623:18752   */\n    tag_314:\n        /* \"#utility.yul\":18657:18663   */\n      0x00\n        /* \"#utility.yul\":18684:18704   */\n      tag_507\n      tag_262\n      jump\t// in\n    tag_507:\n        /* \"#utility.yul\":18674:18704   */\n      swap1\n      pop\n        /* \"#utility.yul\":18713:18746   */\n      tag_508\n        /* \"#utility.yul\":18741:18745   */\n      dup3\n        /* \"#utility.yul\":18733:18739   */\n      dup3\n        /* \"#utility.yul\":18713:18746   */\n      tag_313\n      jump\t// in\n    tag_508:\n        /* \"#utility.yul\":18623:18752   */\n      swap2\n      swap1\n      pop\n      jump\t// out\n        /* \"#utility.yul\":18758:18875   */\n    tag_315:\n        /* \"#utility.yul\":18867:18868   */\n      0x00\n        /* \"#utility.yul\":18864:18865   */\n      dup1\n        /* \"#utility.yul\":18857:18869   */\n      revert\n        /* \"#utility.yul\":18881:19024   */\n    tag_316:\n        /* \"#utility.yul\":18938:18943   */\n      0x00\n        /* \"#utility.yul\":18969:18975   */\n      dup2\n        /* \"#utility.yul\":18963:18976   */\n      mload\n        /* \"#utility.yul\":18954:18976   */\n      swap1\n      pop\n        /* \"#utility.yul\":18985:19018   */\n      tag_511\n        /* \"#utility.yul\":19012:19017   */\n      dup2\n        /* \"#utility.yul\":18985:19018   */\n      tag_266\n      jump\t// in\n    tag_511:\n        /* \"#utility.yul\":18881:19024   */\n      swap3\n      swap2\n      pop\n      pop\n      jump\t// out\n        /* \"#utility.yul\":19030:19173   */\n    tag_317:\n        /* \"#utility.yul\":19087:19092   */\n      0x00\n        /* \"#utility.yul\":19118:19124   */\n      dup2\n        /* \"#utility.yul\":19112:19125   */\n      mload\n        /* \"#utility.yul\":19103:19125   */\n      swap1\n      pop\n        /* \"#utility.yul\":19134:19167   */\n      tag_513\n        /* \"#utility.yul\":19161:19166   */\n      dup2\n        /* \"#utility.yul\":19134:19167   */\n      tag_270\n      jump\t// in\n    tag_513:\n        /* \"#utility.yul\":19030:19173   */\n      swap3\n      swap2\n      pop\n      pop\n      jump\t// out\n        /* \"#utility.yul\":19179:19296   */\n    tag_318:\n        /* \"#utility.yul\":19288:19289   */\n      0x00\n        /* \"#utility.yul\":19285:19286   */\n      dup1\n        /* \"#utility.yul\":19278:19290   */\n      revert\n        /* \"#utility.yul\":19302:19419   */\n    tag_319:\n        /* \"#utility.yul\":19411:19412   */\n      0x00\n        /* \"#utility.yul\":19408:19409   */\n      dup1\n        /* \"#utility.yul\":19401:19413   */\n      revert\n        /* \"#utility.yul\":19425:19733   */\n    tag_320:\n        /* \"#utility.yul\":19487:19491   */\n      0x00\n        /* \"#utility.yul\":19577:19595   */\n      0xffffffffffffffff\n        /* \"#utility.yul\":19569:19575   */\n      dup3\n        /* \"#utility.yul\":19566:19596   */\n      gt\n        /* \"#utility.yul\":19563:19619   */\n      iszero\n      tag_517\n      jumpi\n        /* \"#utility.yul\":19599:19617   */\n      tag_518\n      tag_312\n      jump\t// in\n    tag_518:\n        /* \"#utility.yul\":19563:19619   */\n    tag_517:\n        /* \"#utility.yul\":19637:19666   */\n      tag_519\n        /* \"#utility.yul\":19659:19665   */\n      dup3\n        /* \"#utility.yul\":19637:19666   */\n      tag_311\n      jump\t// in\n    tag_519:\n        /* \"#utility.yul\":19629:19666   */\n      swap1\n      pop\n        /* \"#utility.yul\":19721:19725   */\n      0x20\n        /* \"#utility.yul\":19715:19719   */\n      dup2\n        /* \"#utility.yul\":19711:19726   */\n      add\n        /* \"#utility.yul\":19703:19726   */\n      swap1\n      pop\n        /* \"#utility.yul\":19425:19733   */\n      swap2\n      swap1\n      pop\n      jump\t// out\n        /* \"#utility.yul\":19739:20046   */\n    tag_321:\n        /* \"#utility.yul\":19807:19808   */\n      0x00\n        /* \"#utility.yul\":19817:19930   */\n    tag_521:\n        /* \"#utility.yul\":19831:19837   */\n      dup4\n        /* \"#utility.yul\":19828:19829   */\n      dup2\n        /* \"#utility.yul\":19825:19838   */\n      lt\n        /* \"#utility.yul\":19817:19930   */\n      iszero\n      tag_523\n      jumpi\n        /* \"#utility.yul\":19916:19917   */\n      dup1\n        /* \"#utility.yul\":19911:19914   */\n      dup3\n        /* \"#utility.yul\":19907:19918   */\n      add\n        /* \"#utility.yul\":19901:19919   */\n      mload\n        /* \"#utility.yul\":19897:19898   */\n      dup2\n        /* \"#utility.yul\":19892:19895   */\n      dup5\n        /* \"#utility.yul\":19888:19899   */\n      add\n        /* \"#utility.yul\":19881:19920   */\n      mstore\n        /* \"#utility.yul\":19853:19855   */\n      0x20\n        /* \"#utility.yul\":19850:19851   */\n      dup2\n        /* \"#utility.yul\":19846:19856   */\n      add\n        /* \"#utility.yul\":19841:19856   */\n      swap1\n      pop\n        /* \"#utility.yul\":19817:19930   */\n      jump(tag_521)\n    tag_523:\n        /* \"#utility.yul\":19948:19954   */\n      dup4\n        /* \"#utility.yul\":19945:19946   */\n      dup2\n        /* \"#utility.yul\":19942:19955   */\n      gt\n        /* \"#utility.yul\":19939:20040   */\n      iszero\n      tag_524\n      jumpi\n        /* \"#utility.yul\":20028:20029   */\n      0x00\n        /* \"#utility.yul\":20019:20025   */\n      dup5\n        /* \"#utility.yul\":20014:20017   */\n      dup5\n        /* \"#utility.yul\":20010:20026   */\n      add\n        /* \"#utility.yul\":20003:20030   */\n      mstore\n        /* \"#utility.yul\":19939:20040   */\n    tag_524:\n        /* \"#utility.yul\":19788:20046   */\n      pop\n        /* \"#utility.yul\":19739:20046   */\n      pop\n      pop\n      pop\n      jump\t// out\n        /* \"#utility.yul\":20052:20473   */\n    tag_322:\n        /* \"#utility.yul\":20141:20146   */\n      0x00\n        /* \"#utility.yul\":20166:20232   */\n      tag_526\n        /* \"#utility.yul\":20182:20231   */\n      tag_527\n        /* \"#utility.yul\":20224:20230   */\n      dup5\n        /* \"#utility.yul\":20182:20231   */\n      tag_320\n      jump\t// in\n    tag_527:\n        /* \"#utility.yul\":20166:20232   */\n      tag_314\n      jump\t// in\n    tag_526:\n        /* \"#utility.yul\":20157:20232   */\n      swap1\n      pop\n        /* \"#utility.yul\":20255:20261   */\n      dup3\n        /* \"#utility.yul\":20248:20253   */\n      dup2\n        /* \"#utility.yul\":20241:20262   */\n      mstore\n        /* \"#utility.yul\":20293:20297   */\n      0x20\n        /* \"#utility.yul\":20286:20291   */\n      dup2\n        /* \"#utility.yul\":20282:20298   */\n      add\n        /* \"#utility.yul\":20331:20334   */\n      dup5\n        /* \"#utility.yul\":20322:20328   */\n      dup5\n        /* \"#utility.yul\":20317:20320   */\n      dup5\n        /* \"#utility.yul\":20313:20329   */\n      add\n        /* \"#utility.yul\":20310:20335   */\n      gt\n        /* \"#utility.yul\":20307:20419   */\n      iszero\n      tag_528\n      jumpi\n        /* \"#utility.yul\":20338:20417   */\n      tag_529\n      tag_319\n      jump\t// in\n    tag_529:\n        /* \"#utility.yul\":20307:20419   */\n    tag_528:\n        /* \"#utility.yul\":20428:20467   */\n      tag_530\n        /* \"#utility.yul\":20460:20466   */\n      dup5\n        /* \"#utility.yul\":20455:20458   */\n      dup3\n        /* \"#utility.yul\":20450:20453   */\n      dup6\n        /* \"#utility.yul\":20428:20467   */\n      tag_321\n      jump\t// in\n    tag_530:\n        /* \"#utility.yul\":20147:20473   */\n      pop\n        /* \"#utility.yul\":20052:20473   */\n      swap4\n      swap3\n      pop\n      pop\n      pop\n      jump\t// out\n        /* \"#utility.yul\":20493:20848   */\n    tag_323:\n        /* \"#utility.yul\":20560:20565   */\n      0x00\n        /* \"#utility.yul\":20609:20612   */\n      dup3\n        /* \"#utility.yul\":20602:20606   */\n      0x1f\n        /* \"#utility.yul\":20594:20600   */\n      dup4\n        /* \"#utility.yul\":20590:20607   */\n      add\n        /* \"#utility.yul\":20586:20613   */\n      slt\n        /* \"#utility.yul\":20576:20698   */\n      tag_532\n      jumpi\n        /* \"#utility.yul\":20617:20696   */\n      tag_533\n      tag_318\n      jump\t// in\n    tag_533:\n        /* \"#utility.yul\":20576:20698   */\n    tag_532:\n        /* \"#utility.yul\":20727:20733   */\n      dup2\n        /* \"#utility.yul\":20721:20734   */\n      mload\n        /* \"#utility.yul\":20752:20842   */\n      tag_534\n        /* \"#utility.yul\":20838:20841   */\n      dup5\n        /* \"#utility.yul\":20830:20836   */\n      dup3\n        /* \"#utility.yul\":20823:20827   */\n      0x20\n        /* \"#utility.yul\":20815:20821   */\n      dup7\n        /* \"#utility.yul\":20811:20828   */\n      add\n        /* \"#utility.yul\":20752:20842   */\n      tag_322\n      jump\t// in\n    tag_534:\n        /* \"#utility.yul\":20743:20842   */\n      swap2\n      pop\n        /* \"#utility.yul\":20566:20848   */\n      pop\n        /* \"#utility.yul\":20493:20848   */\n      swap3\n      swap2\n      pop\n      pop\n      jump\t// out\n        /* \"#utility.yul\":20854:20944   */\n    tag_324:\n        /* \"#utility.yul\":20888:20895   */\n      0x00\n        /* \"#utility.yul\":20931:20936   */\n      dup2\n        /* \"#utility.yul\":20924:20937   */\n      iszero\n        /* \"#utility.yul\":20917:20938   */\n      iszero\n        /* \"#utility.yul\":20906:20938   */\n      swap1\n      pop\n        /* \"#utility.yul\":20854:20944   */\n      swap2\n      swap1\n      pop\n      jump\t// out\n        /* \"#utility.yul\":20950:21066   */\n    tag_325:\n        /* \"#utility.yul\":21020:21041   */\n      tag_537\n        /* \"#utility.yul\":21035:21040   */\n      dup2\n        /* \"#utility.yul\":21020:21041   */\n      tag_324\n      jump\t// in\n    tag_537:\n        /* \"#utility.yul\":21013:21018   */\n      dup2\n        /* \"#utility.yul\":21010:21042   */\n      eq\n        /* \"#utility.yul\":21000:21060   */\n      tag_538\n      jumpi\n        /* \"#utility.yul\":21056:21057   */\n      0x00\n        /* \"#utility.yul\":21053:21054   */\n      dup1\n        /* \"#utility.yul\":21046:21058   */\n      revert\n        /* \"#utility.yul\":21000:21060   */\n    tag_538:\n        /* \"#utility.yul\":20950:21066   */\n      pop\n      jump\t// out\n        /* \"#utility.yul\":21072:21209   */\n    tag_326:\n        /* \"#utility.yul\":21126:21131   */\n      0x00\n        /* \"#utility.yul\":21157:21163   */\n      dup2\n        /* \"#utility.yul\":21151:21164   */\n      mload\n        /* \"#utility.yul\":21142:21164   */\n      swap1\n      pop\n        /* \"#utility.yul\":21173:21203   */\n      tag_540\n        /* \"#utility.yul\":21197:21202   */\n      dup2\n        /* \"#utility.yul\":21173:21203   */\n      tag_325\n      jump\t// in\n    tag_540:\n        /* \"#utility.yul\":21072:21209   */\n      swap3\n      swap2\n      pop\n      pop\n      jump\t// out\n        /* \"#utility.yul\":21251:22710   */\n    tag_327:\n        /* \"#utility.yul\":21339:21344   */\n      0x00\n        /* \"#utility.yul\":21383:21387   */\n      0xa0\n        /* \"#utility.yul\":21371:21380   */\n      dup3\n        /* \"#utility.yul\":21366:21369   */\n      dup5\n        /* \"#utility.yul\":21362:21381   */\n      sub\n        /* \"#utility.yul\":21358:21388   */\n      slt\n        /* \"#utility.yul\":21355:21472   */\n      iszero\n      tag_542\n      jumpi\n        /* \"#utility.yul\":21391:21470   */\n      tag_543\n      tag_310\n      jump\t// in\n    tag_543:\n        /* \"#utility.yul\":21355:21472   */\n    tag_542:\n        /* \"#utility.yul\":21490:21511   */\n      tag_544\n        /* \"#utility.yul\":21506:21510   */\n      0xa0\n        /* \"#utility.yul\":21490:21511   */\n      tag_314\n      jump\t// in\n    tag_544:\n        /* \"#utility.yul\":21481:21511   */\n      swap1\n      pop\n        /* \"#utility.yul\":21568:21569   */\n      0x00\n        /* \"#utility.yul\":21608:21668   */\n      tag_545\n        /* \"#utility.yul\":21664:21667   */\n      dup5\n        /* \"#utility.yul\":21655:21661   */\n      dup3\n        /* \"#utility.yul\":21644:21653   */\n      dup6\n        /* \"#utility.yul\":21640:21662   */\n      add\n        /* \"#utility.yul\":21608:21668   */\n      tag_316\n      jump\t// in\n    tag_545:\n        /* \"#utility.yul\":21601:21605   */\n      0x00\n        /* \"#utility.yul\":21594:21599   */\n      dup4\n        /* \"#utility.yul\":21590:21606   */\n      add\n        /* \"#utility.yul\":21583:21669   */\n      mstore\n        /* \"#utility.yul\":21521:21680   */\n      pop\n        /* \"#utility.yul\":21740:21742   */\n      0x20\n        /* \"#utility.yul\":21781:21841   */\n      tag_546\n        /* \"#utility.yul\":21837:21840   */\n      dup5\n        /* \"#utility.yul\":21828:21834   */\n      dup3\n        /* \"#utility.yul\":21817:21826   */\n      dup6\n        /* \"#utility.yul\":21813:21835   */\n      add\n        /* \"#utility.yul\":21781:21841   */\n      tag_317\n      jump\t// in\n    tag_546:\n        /* \"#utility.yul\":21774:21778   */\n      0x20\n        /* \"#utility.yul\":21767:21772   */\n      dup4\n        /* \"#utility.yul\":21763:21779   */\n      add\n        /* \"#utility.yul\":21756:21842   */\n      mstore\n        /* \"#utility.yul\":21690:21853   */\n      pop\n        /* \"#utility.yul\":21935:21937   */\n      0x40\n        /* \"#utility.yul\":21924:21933   */\n      dup3\n        /* \"#utility.yul\":21920:21938   */\n      add\n        /* \"#utility.yul\":21914:21939   */\n      mload\n        /* \"#utility.yul\":21966:21984   */\n      0xffffffffffffffff\n        /* \"#utility.yul\":21958:21964   */\n      dup2\n        /* \"#utility.yul\":21955:21985   */\n      gt\n        /* \"#utility.yul\":21952:22069   */\n      iszero\n      tag_547\n      jumpi\n        /* \"#utility.yul\":21988:22067   */\n      tag_548\n      tag_315\n      jump\t// in\n    tag_548:\n        /* \"#utility.yul\":21952:22069   */\n    tag_547:\n        /* \"#utility.yul\":22108:22178   */\n      tag_549\n        /* \"#utility.yul\":22174:22177   */\n      dup5\n        /* \"#utility.yul\":22165:22171   */\n      dup3\n        /* \"#utility.yul\":22154:22163   */\n      dup6\n        /* \"#utility.yul\":22150:22172   */\n      add\n        /* \"#utility.yul\":22108:22178   */\n      tag_323\n      jump\t// in\n    tag_549:\n        /* \"#utility.yul\":22101:22105   */\n      0x40\n        /* \"#utility.yul\":22094:22099   */\n      dup4\n        /* \"#utility.yul\":22090:22106   */\n      add\n        /* \"#utility.yul\":22083:22179   */\n      mstore\n        /* \"#utility.yul\":21863:22190   */\n      pop\n        /* \"#utility.yul\":22276:22278   */\n      0x60\n        /* \"#utility.yul\":22265:22274   */\n      dup3\n        /* \"#utility.yul\":22261:22279   */\n      add\n        /* \"#utility.yul\":22255:22280   */\n      mload\n        /* \"#utility.yul\":22307:22325   */\n      0xffffffffffffffff\n        /* \"#utility.yul\":22299:22305   */\n      dup2\n        /* \"#utility.yul\":22296:22326   */\n      gt\n        /* \"#utility.yul\":22293:22410   */\n      iszero\n      tag_550\n      jumpi\n        /* \"#utility.yul\":22329:22408   */\n      tag_551\n      tag_315\n      jump\t// in\n    tag_551:\n        /* \"#utility.yul\":22293:22410   */\n    tag_550:\n        /* \"#utility.yul\":22449:22519   */\n      tag_552\n        /* \"#utility.yul\":22515:22518   */\n      dup5\n        /* \"#utility.yul\":22506:22512   */\n      dup3\n        /* \"#utility.yul\":22495:22504   */\n      dup6\n        /* \"#utility.yul\":22491:22513   */\n      add\n        /* \"#utility.yul\":22449:22519   */\n      tag_323\n      jump\t// in\n    tag_552:\n        /* \"#utility.yul\":22442:22446   */\n      0x60\n        /* \"#utility.yul\":22435:22440   */\n      dup4\n        /* \"#utility.yul\":22431:22447   */\n      add\n        /* \"#utility.yul\":22424:22520   */\n      mstore\n        /* \"#utility.yul\":22200:22531   */\n      pop\n        /* \"#utility.yul\":22592:22595   */\n      0x80\n        /* \"#utility.yul\":22634:22691   */\n      tag_553\n        /* \"#utility.yul\":22687:22690   */\n      dup5\n        /* \"#utility.yul\":22678:22684   */\n      dup3\n        /* \"#utility.yul\":22667:22676   */\n      dup6\n        /* \"#utility.yul\":22663:22685   */\n      add\n        /* \"#utility.yul\":22634:22691   */\n      tag_326\n      jump\t// in\n    tag_553:\n        /* \"#utility.yul\":22627:22631   */\n      0x80\n        /* \"#utility.yul\":22620:22625   */\n      dup4\n        /* \"#utility.yul\":22616:22632   */\n      add\n        /* \"#utility.yul\":22609:22692   */\n      mstore\n        /* \"#utility.yul\":22541:22703   */\n      pop\n        /* \"#utility.yul\":21251:22710   */\n      swap3\n      swap2\n      pop\n      pop\n      jump\t// out\n        /* \"#utility.yul\":22716:23276   */\n    tag_168:\n        /* \"#utility.yul\":22814:22820   */\n      0x00\n        /* \"#utility.yul\":22863:22865   */\n      0x20\n        /* \"#utility.yul\":22851:22860   */\n      dup3\n        /* \"#utility.yul\":22842:22849   */\n      dup5\n        /* \"#utility.yul\":22838:22861   */\n      sub\n        /* \"#utility.yul\":22834:22866   */\n      slt\n        /* \"#utility.yul\":22831:22950   */\n      iszero\n      tag_555\n      jumpi\n        /* \"#utility.yul\":22869:22948   */\n      tag_556\n      tag_263\n      jump\t// in\n    tag_556:\n        /* \"#utility.yul\":22831:22950   */\n    tag_555:\n        /* \"#utility.yul\":23010:23011   */\n      0x00\n        /* \"#utility.yul\":22999:23008   */\n      dup3\n        /* \"#utility.yul\":22995:23012   */\n      add\n        /* \"#utility.yul\":22989:23013   */\n      mload\n        /* \"#utility.yul\":23040:23058   */\n      0xffffffffffffffff\n        /* \"#utility.yul\":23032:23038   */\n      dup2\n        /* \"#utility.yul\":23029:23059   */\n      gt\n        /* \"#utility.yul\":23026:23143   */\n      iszero\n      tag_557\n      jumpi\n        /* \"#utility.yul\":23062:23141   */\n      tag_558\n      tag_264\n      jump\t// in\n    tag_558:\n        /* \"#utility.yul\":23026:23143   */\n    tag_557:\n        /* \"#utility.yul\":23167:23259   */\n      tag_559\n        /* \"#utility.yul\":23251:23258   */\n      dup5\n        /* \"#utility.yul\":23242:23248   */\n      dup3\n        /* \"#utility.yul\":23231:23240   */\n      dup6\n        /* \"#utility.yul\":23227:23249   */\n      add\n        /* \"#utility.yul\":23167:23259   */\n      tag_327\n      jump\t// in\n    tag_559:\n        /* \"#utility.yul\":23157:23259   */\n      swap2\n      pop\n        /* \"#utility.yul\":22960:23269   */\n      pop\n        /* \"#utility.yul\":22716:23276   */\n      swap3\n      swap2\n      pop\n      pop\n      jump\t// out\n        /* \"#utility.yul\":23282:23459   */\n    tag_328:\n        /* \"#utility.yul\":23422:23451   */\n      0x4974656d206973206e6f7420617661696c61626c65206e6f7720210000000000\n        /* \"#utility.yul\":23418:23419   */\n      0x00\n        /* \"#utility.yul\":23410:23416   */\n      dup3\n        /* \"#utility.yul\":23406:23420   */\n      add\n        /* \"#utility.yul\":23399:23452   */\n      mstore\n        /* \"#utility.yul\":23282:23459   */\n      pop\n      jump\t// out\n        /* \"#utility.yul\":23465:23831   */\n    tag_329:\n        /* \"#utility.yul\":23607:23610   */\n      0x00\n        /* \"#utility.yul\":23628:23695   */\n      tag_562\n        /* \"#utility.yul\":23692:23694   */\n      0x1b\n        /* \"#utility.yul\":23687:23690   */\n      dup4\n        /* \"#utility.yul\":23628:23695   */\n      tag_295\n      jump\t// in\n    tag_562:\n        /* \"#utility.yul\":23621:23695   */\n      swap2\n      pop\n        /* \"#utility.yul\":23704:23797   */\n      tag_563\n        /* \"#utility.yul\":23793:23796   */\n      dup3\n        /* \"#utility.yul\":23704:23797   */\n      tag_328\n      jump\t// in\n    tag_563:\n        /* \"#utility.yul\":23822:23824   */\n      0x20\n        /* \"#utility.yul\":23817:23820   */\n      dup3\n        /* \"#utility.yul\":23813:23825   */\n      add\n        /* \"#utility.yul\":23806:23825   */\n      swap1\n      pop\n        /* \"#utility.yul\":23465:23831   */\n      swap2\n      swap1\n      pop\n      jump\t// out\n        /* \"#utility.yul\":23837:24256   */\n    tag_171:\n        /* \"#utility.yul\":24003:24007   */\n      0x00\n        /* \"#utility.yul\":24041:24043   */\n      0x20\n        /* \"#utility.yul\":24030:24039   */\n      dup3\n        /* \"#utility.yul\":24026:24044   */\n      add\n        /* \"#utility.yul\":24018:24044   */\n      swap1\n      pop\n        /* \"#utility.yul\":24090:24099   */\n      dup2\n        /* \"#utility.yul\":24084:24088   */\n      dup2\n        /* \"#utility.yul\":24080:24100   */\n      sub\n        /* \"#utility.yul\":24076:24077   */\n      0x00\n        /* \"#utility.yul\":24065:24074   */\n      dup4\n        /* \"#utility.yul\":24061:24078   */\n      add\n        /* \"#utility.yul\":24054:24101   */\n      mstore\n        /* \"#utility.yul\":24118:24249   */\n      tag_565\n        /* \"#utility.yul\":24244:24248   */\n      dup2\n        /* \"#utility.yul\":24118:24249   */\n      tag_329\n      jump\t// in\n    tag_565:\n        /* \"#utility.yul\":24110:24249   */\n      swap1\n      pop\n        /* \"#utility.yul\":23837:24256   */\n      swap2\n      swap1\n      pop\n      jump\t// out\n        /* \"#utility.yul\":24262:24513   */\n    tag_330:\n        /* \"#utility.yul\":24402:24436   */\n      0x506c65617365207375626d6974207468652061736b696e672070726963652069\n        /* \"#utility.yul\":24398:24399   */\n      0x00\n        /* \"#utility.yul\":24390:24396   */\n      dup3\n        /* \"#utility.yul\":24386:24400   */\n      add\n        /* \"#utility.yul\":24379:24437   */\n      mstore\n        /* \"#utility.yul\":24471:24505   */\n      0x6e206f7264657220746f20636f6d706c65746520746865207075726368617365\n        /* \"#utility.yul\":24466:24468   */\n      0x20\n        /* \"#utility.yul\":24458:24464   */\n      dup3\n        /* \"#utility.yul\":24454:24469   */\n      add\n        /* \"#utility.yul\":24447:24506   */\n      mstore\n        /* \"#utility.yul\":24262:24513   */\n      pop\n      jump\t// out\n        /* \"#utility.yul\":24519:24885   */\n    tag_331:\n        /* \"#utility.yul\":24661:24664   */\n      0x00\n        /* \"#utility.yul\":24682:24749   */\n      tag_568\n        /* \"#utility.yul\":24746:24748   */\n      0x40\n        /* \"#utility.yul\":24741:24744   */\n      dup4\n        /* \"#utility.yul\":24682:24749   */\n      tag_295\n      jump\t// in\n    tag_568:\n        /* \"#utility.yul\":24675:24749   */\n      swap2\n      pop\n        /* \"#utility.yul\":24758:24851   */\n      tag_569\n        /* \"#utility.yul\":24847:24850   */\n      dup3\n        /* \"#utility.yul\":24758:24851   */\n      tag_330\n      jump\t// in\n    tag_569:\n        /* \"#utility.yul\":24876:24878   */\n      0x40\n        /* \"#utility.yul\":24871:24874   */\n      dup3\n        /* \"#utility.yul\":24867:24879   */\n      add\n        /* \"#utility.yul\":24860:24879   */\n      swap1\n      pop\n        /* \"#utility.yul\":24519:24885   */\n      swap2\n      swap1\n      pop\n      jump\t// out\n        /* \"#utility.yul\":24891:25310   */\n    tag_205:\n        /* \"#utility.yul\":25057:25061   */\n      0x00\n        /* \"#utility.yul\":25095:25097   */\n      0x20\n        /* \"#utility.yul\":25084:25093   */\n      dup3\n        /* \"#utility.yul\":25080:25098   */\n      add\n        /* \"#utility.yul\":25072:25098   */\n      swap1\n      pop\n        /* \"#utility.yul\":25144:25153   */\n      dup2\n        /* \"#utility.yul\":25138:25142   */\n      dup2\n        /* \"#utility.yul\":25134:25154   */\n      sub\n        /* \"#utility.yul\":25130:25131   */\n      0x00\n        /* \"#utility.yul\":25119:25128   */\n      dup4\n        /* \"#utility.yul\":25115:25132   */\n      add\n        /* \"#utility.yul\":25108:25155   */\n      mstore\n        /* \"#utility.yul\":25172:25303   */\n      tag_571\n        /* \"#utility.yul\":25298:25302   */\n      dup2\n        /* \"#utility.yul\":25172:25303   */\n      tag_331\n      jump\t// in\n    tag_571:\n        /* \"#utility.yul\":25164:25303   */\n      swap1\n      pop\n        /* \"#utility.yul\":24891:25310   */\n      swap2\n      swap1\n      pop\n      jump\t// out\n        /* \"#utility.yul\":25316:25469   */\n    tag_332:\n        /* \"#utility.yul\":25456:25461   */\n      0x5351460000000000000000000000000000000000000000000000000000000000\n        /* \"#utility.yul\":25452:25453   */\n      0x00\n        /* \"#utility.yul\":25444:25450   */\n      dup3\n        /* \"#utility.yul\":25440:25454   */\n      add\n        /* \"#utility.yul\":25433:25462   */\n      mstore\n        /* \"#utility.yul\":25316:25469   */\n      pop\n      jump\t// out\n        /* \"#utility.yul\":25475:25840   */\n    tag_333:\n        /* \"#utility.yul\":25617:25620   */\n      0x00\n        /* \"#utility.yul\":25638:25704   */\n      tag_574\n        /* \"#utility.yul\":25702:25703   */\n      0x03\n        /* \"#utility.yul\":25697:25700   */\n      dup4\n        /* \"#utility.yul\":25638:25704   */\n      tag_295\n      jump\t// in\n    tag_574:\n        /* \"#utility.yul\":25631:25704   */\n      swap2\n      pop\n        /* \"#utility.yul\":25713:25806   */\n      tag_575\n        /* \"#utility.yul\":25802:25805   */\n      dup3\n        /* \"#utility.yul\":25713:25806   */\n      tag_332\n      jump\t// in\n    tag_575:\n        /* \"#utility.yul\":25831:25833   */\n      0x20\n        /* \"#utility.yul\":25826:25829   */\n      dup3\n        /* \"#utility.yul\":25822:25834   */\n      add\n        /* \"#utility.yul\":25815:25834   */\n      swap1\n      pop\n        /* \"#utility.yul\":25475:25840   */\n      swap2\n      swap1\n      pop\n      jump\t// out\n        /* \"#utility.yul\":25846:26596   */\n    tag_214:\n        /* \"#utility.yul\":26096:26100   */\n      0x00\n        /* \"#utility.yul\":26134:26137   */\n      0x80\n        /* \"#utility.yul\":26123:26132   */\n      dup3\n        /* \"#utility.yul\":26119:26138   */\n      add\n        /* \"#utility.yul\":26111:26138   */\n      swap1\n      pop\n        /* \"#utility.yul\":26148:26219   */\n      tag_577\n        /* \"#utility.yul\":26216:26217   */\n      0x00\n        /* \"#utility.yul\":26205:26214   */\n      dup4\n        /* \"#utility.yul\":26201:26218   */\n      add\n        /* \"#utility.yul\":26192:26198   */\n      dup7\n        /* \"#utility.yul\":26148:26219   */\n      tag_279\n      jump\t// in\n    tag_577:\n        /* \"#utility.yul\":26229:26301   */\n      tag_578\n        /* \"#utility.yul\":26297:26299   */\n      0x20\n        /* \"#utility.yul\":26286:26295   */\n      dup4\n        /* \"#utility.yul\":26282:26300   */\n      add\n        /* \"#utility.yul\":26273:26279   */\n      dup6\n        /* \"#utility.yul\":26229:26301   */\n      tag_279\n      jump\t// in\n    tag_578:\n        /* \"#utility.yul\":26348:26357   */\n      dup2\n        /* \"#utility.yul\":26342:26346   */\n      dup2\n        /* \"#utility.yul\":26338:26358   */\n      sub\n        /* \"#utility.yul\":26333:26335   */\n      0x40\n        /* \"#utility.yul\":26322:26331   */\n      dup4\n        /* \"#utility.yul\":26318:26336   */\n      add\n        /* \"#utility.yul\":26311:26359   */\n      mstore\n        /* \"#utility.yul\":26376:26507   */\n      tag_579\n        /* \"#utility.yul\":26502:26506   */\n      dup2\n        /* \"#utility.yul\":26376:26507   */\n      tag_333\n      jump\t// in\n    tag_579:\n        /* \"#utility.yul\":26368:26507   */\n      swap1\n      pop\n        /* \"#utility.yul\":26517:26589   */\n      tag_580\n        /* \"#utility.yul\":26585:26587   */\n      0x60\n        /* \"#utility.yul\":26574:26583   */\n      dup4\n        /* \"#utility.yul\":26570:26588   */\n      add\n        /* \"#utility.yul\":26561:26567   */\n      dup5\n        /* \"#utility.yul\":26517:26589   */\n      tag_279\n      jump\t// in\n    tag_580:\n        /* \"#utility.yul\":25846:26596   */\n      swap5\n      swap4\n      pop\n      pop\n      pop\n      pop\n      jump\t// out\n        /* \"#utility.yul\":26602:26827   */\n    tag_334:\n        /* \"#utility.yul\":26742:26776   */\n      0x4f776e61626c653a206e6577206f776e657220697320746865207a65726f2061\n        /* \"#utility.yul\":26738:26739   */\n      0x00\n        /* \"#utility.yul\":26730:26736   */\n      dup3\n        /* \"#utility.yul\":26726:26740   */\n      add\n        /* \"#utility.yul\":26719:26777   */\n      mstore\n        /* \"#utility.yul\":26811:26819   */\n      0x6464726573730000000000000000000000000000000000000000000000000000\n        /* \"#utility.yul\":26806:26808   */\n      0x20\n        /* \"#utility.yul\":26798:26804   */\n      dup3\n        /* \"#utility.yul\":26794:26809   */\n      add\n        /* \"#utility.yul\":26787:26820   */\n      mstore\n        /* \"#utility.yul\":26602:26827   */\n      pop\n      jump\t// out\n        /* \"#utility.yul\":26833:27199   */\n    tag_335:\n        /* \"#utility.yul\":26975:26978   */\n      0x00\n        /* \"#utility.yul\":26996:27063   */\n      tag_583\n        /* \"#utility.yul\":27060:27062   */\n      0x26\n        /* \"#utility.yul\":27055:27058   */\n      dup4\n        /* \"#utility.yul\":26996:27063   */\n      tag_295\n      jump\t// in\n    tag_583:\n        /* \"#utility.yul\":26989:27063   */\n      swap2\n      pop\n        /* \"#utility.yul\":27072:27165   */\n      tag_584\n        /* \"#utility.yul\":27161:27164   */\n      dup3\n        /* \"#utility.yul\":27072:27165   */\n      tag_334\n      jump\t// in\n    tag_584:\n        /* \"#utility.yul\":27190:27192   */\n      0x40\n        /* \"#utility.yul\":27185:27188   */\n      dup3\n        /* \"#utility.yul\":27181:27193   */\n      add\n        /* \"#utility.yul\":27174:27193   */\n      swap1\n      pop\n        /* \"#utility.yul\":26833:27199   */\n      swap2\n      swap1\n      pop\n      jump\t// out\n        /* \"#utility.yul\":27205:27624   */\n    tag_230:\n        /* \"#utility.yul\":27371:27375   */\n      0x00\n        /* \"#utility.yul\":27409:27411   */\n      0x20\n        /* \"#utility.yul\":27398:27407   */\n      dup3\n        /* \"#utility.yul\":27394:27412   */\n      add\n        /* \"#utility.yul\":27386:27412   */\n      swap1\n      pop\n        /* \"#utility.yul\":27458:27467   */\n      dup2\n        /* \"#utility.yul\":27452:27456   */\n      dup2\n        /* \"#utility.yul\":27448:27468   */\n      sub\n        /* \"#utility.yul\":27444:27445   */\n      0x00\n        /* \"#utility.yul\":27433:27442   */\n      dup4\n        /* \"#utility.yul\":27429:27446   */\n      add\n        /* \"#utility.yul\":27422:27469   */\n      mstore\n        /* \"#utility.yul\":27486:27617   */\n      tag_586\n        /* \"#utility.yul\":27612:27616   */\n      dup2\n        /* \"#utility.yul\":27486:27617   */\n      tag_335\n      jump\t// in\n    tag_586:\n        /* \"#utility.yul\":27478:27617   */\n      swap1\n      pop\n        /* \"#utility.yul\":27205:27624   */\n      swap2\n      swap1\n      pop\n      jump\t// out\n        /* \"#utility.yul\":27630:27764   */\n    tag_336:\n        /* \"#utility.yul\":27688:27697   */\n      0x00\n        /* \"#utility.yul\":27721:27758   */\n      tag_588\n        /* \"#utility.yul\":27752:27757   */\n      dup3\n        /* \"#utility.yul\":27721:27758   */\n      tag_276\n      jump\t// in\n    tag_588:\n        /* \"#utility.yul\":27708:27758   */\n      swap1\n      pop\n        /* \"#utility.yul\":27630:27764   */\n      swap2\n      swap1\n      pop\n      jump\t// out\n        /* \"#utility.yul\":27770:27917   */\n    tag_337:\n        /* \"#utility.yul\":27865:27910   */\n      tag_590\n        /* \"#utility.yul\":27904:27909   */\n      dup2\n        /* \"#utility.yul\":27865:27910   */\n      tag_336\n      jump\t// in\n    tag_590:\n        /* \"#utility.yul\":27860:27863   */\n      dup3\n        /* \"#utility.yul\":27853:27911   */\n      mstore\n        /* \"#utility.yul\":27770:27917   */\n      pop\n      pop\n      jump\t// out\n        /* \"#utility.yul\":27923:28381   */\n    tag_235:\n        /* \"#utility.yul\":28080:28084   */\n      0x00\n        /* \"#utility.yul\":28118:28120   */\n      0x60\n        /* \"#utility.yul\":28107:28116   */\n      dup3\n        /* \"#utility.yul\":28103:28121   */\n      add\n        /* \"#utility.yul\":28095:28121   */\n      swap1\n      pop\n        /* \"#utility.yul\":28131:28210   */\n      tag_592\n        /* \"#utility.yul\":28207:28208   */\n      0x00\n        /* \"#utility.yul\":28196:28205   */\n      dup4\n        /* \"#utility.yul\":28192:28209   */\n      add\n        /* \"#utility.yul\":28183:28189   */\n      dup7\n        /* \"#utility.yul\":28131:28210   */\n      tag_337\n      jump\t// in\n    tag_592:\n        /* \"#utility.yul\":28220:28292   */\n      tag_593\n        /* \"#utility.yul\":28288:28290   */\n      0x20\n        /* \"#utility.yul\":28277:28286   */\n      dup4\n        /* \"#utility.yul\":28273:28291   */\n      add\n        /* \"#utility.yul\":28264:28270   */\n      dup6\n        /* \"#utility.yul\":28220:28292   */\n      tag_280\n      jump\t// in\n    tag_593:\n        /* \"#utility.yul\":28302:28374   */\n      tag_594\n        /* \"#utility.yul\":28370:28372   */\n      0x40\n        /* \"#utility.yul\":28359:28368   */\n      dup4\n        /* \"#utility.yul\":28355:28373   */\n      add\n        /* \"#utility.yul\":28346:28352   */\n      dup5\n        /* \"#utility.yul\":28302:28374   */\n      tag_279\n      jump\t// in\n    tag_594:\n        /* \"#utility.yul\":27923:28381   */\n      swap5\n      swap4\n      pop\n      pop\n      pop\n      pop\n      jump\t// out\n        /* \"#utility.yul\":28387:28732   */\n    tag_251:\n        /* \"#utility.yul\":28454:28460   */\n      0x00\n        /* \"#utility.yul\":28503:28505   */\n      0x20\n        /* \"#utility.yul\":28491:28500   */\n      dup3\n        /* \"#utility.yul\":28482:28489   */\n      dup5\n        /* \"#utility.yul\":28478:28501   */\n      sub\n        /* \"#utility.yul\":28474:28506   */\n      slt\n        /* \"#utility.yul\":28471:28590   */\n      iszero\n      tag_596\n      jumpi\n        /* \"#utility.yul\":28509:28588   */\n      tag_597\n      tag_263\n      jump\t// in\n    tag_597:\n        /* \"#utility.yul\":28471:28590   */\n    tag_596:\n        /* \"#utility.yul\":28629:28630   */\n      0x00\n        /* \"#utility.yul\":28654:28715   */\n      tag_598\n        /* \"#utility.yul\":28707:28714   */\n      dup5\n        /* \"#utility.yul\":28698:28704   */\n      dup3\n        /* \"#utility.yul\":28687:28696   */\n      dup6\n        /* \"#utility.yul\":28683:28705   */\n      add\n        /* \"#utility.yul\":28654:28715   */\n      tag_326\n      jump\t// in\n    tag_598:\n        /* \"#utility.yul\":28644:28715   */\n      swap2\n      pop\n        /* \"#utility.yul\":28600:28725   */\n      pop\n        /* \"#utility.yul\":28387:28732   */\n      swap3\n      swap2\n      pop\n      pop\n      jump\t// out\n\n    auxdata: 0xa264697066735822122094a8e2d8b460e96dda3d0cea9ac7f6d6fa95833454cdecbbbce9b979028c9f8864736f6c634300080d0033\n}\n",
				"bytecode": {
					"linkReferences": {},
					"object": "608060405260405162002ade38038062002ade833981810160405281019062000029919062000255565b600160008190555062000051620000456200011d60201b60201c565b6200012560201b60201c565b82600360006101000a81548173ffffffffffffffffffffffffffffffffffffffff021916908373ffffffffffffffffffffffffffffffffffffffff16021790555081600560006101000a81548173ffffffffffffffffffffffffffffffffffffffff021916908373ffffffffffffffffffffffffffffffffffffffff16021790555080600460006101000a81548173ffffffffffffffffffffffffffffffffffffffff021916908373ffffffffffffffffffffffffffffffffffffffff160217905550505050620002b1565b600033905090565b6000600660009054906101000a900473ffffffffffffffffffffffffffffffffffffffff16905081600660006101000a81548173ffffffffffffffffffffffffffffffffffffffff021916908373ffffffffffffffffffffffffffffffffffffffff1602179055508173ffffffffffffffffffffffffffffffffffffffff168173ffffffffffffffffffffffffffffffffffffffff167f8be0079c531659141344cd1fd0a4f28419497f9722a3daafe3b4186f6b6457e060405160405180910390a35050565b600080fd5b600073ffffffffffffffffffffffffffffffffffffffff82169050919050565b60006200021d82620001f0565b9050919050565b6200022f8162000210565b81146200023b57600080fd5b50565b6000815190506200024f8162000224565b92915050565b600080600060608486031215620002715762000270620001eb565b5b600062000281868287016200023e565b935050602062000294868287016200023e565b9250506040620002a7868287016200023e565b9150509250925092565b61281d80620002c16000396000f3fe6080604052600436106101095760003560e01c806385a8b36c11610095578063c45a015511610064578063c45a015514610327578063c7be7a4914610352578063f2fde38b1461038f578063f55de0c7146103b8578063ff68fa6e146103e357610109565b806385a8b36c1461027d5780638da5cb5b146102a8578063a1c11ca8146102d3578063b7a60c7e146102fc57610109565b8063361c1995116100dc578063361c1995146101b45780633fc15f15146101d05780635bb47808146101fb5780635c80a43514610224578063715018a61461026657610109565b8063100616311461010e57806315b124941461013757806327ce464e146101605780632b4c32be14610189575b600080fd5b34801561011a57600080fd5b5061013560048036038101906101309190611a4e565b610425565b005b34801561014357600080fd5b5061015e60048036038101906101599190611ad9565b610895565b005b34801561016c57600080fd5b5061018760048036038101906101829190611ad9565b610955565b005b34801561019557600080fd5b5061019e610a15565b6040516101ab9190611b41565b60405180910390f35b6101ce60048036038101906101c99190611b5c565b610a20565b005b3480156101dc57600080fd5b506101e5610d69565b6040516101f29190611bfb565b60405180910390f35b34801561020757600080fd5b50610222600480360381019061021d9190611ad9565b610d8f565b005b34801561023057600080fd5b5061024b60048036038101906102469190611c16565b610e4f565b60405161025d96959493929190611ceb565b60405180910390f35b34801561027257600080fd5b5061027b610ee5565b005b34801561028957600080fd5b50610292610f6d565b60405161029f9190611d68565b60405180910390f35b3480156102b457600080fd5b506102bd610f80565b6040516102ca9190611d83565b60405180910390f35b3480156102df57600080fd5b506102fa60048036038101906102f59190611b5c565b610faa565b005b34801561030857600080fd5b50610311611268565b60405161031e9190611d68565b60405180910390f35b34801561033357600080fd5b5061033c61127b565b6040516103499190611dbf565b60405180910390f35b34801561035e57600080fd5b5061037960048036038101906103749190611a4e565b6112a1565b6040516103869190611e82565b60405180910390f35b34801561039b57600080fd5b506103b660048036038101906103b19190611ad9565b6113d3565b005b3480156103c457600080fd5b506103cd6114ca565b6040516103da9190611ebe565b60405180910390f35b3480156103ef57600080fd5b5061040a60048036038101906104059190611a4e565b6114f0565b60405161041c96959493929190611ceb565b60405180910390f35b60003390506000600960008481526020019081526020016000206040518060c001604052908160008201548152602001600182015481526020016002820160009054906101000a900473ffffffffffffffffffffffffffffffffffffffff1673ffffffffffffffffffffffffffffffffffffffff1673ffffffffffffffffffffffffffffffffffffffff1681526020016003820160009054906101000a900473ffffffffffffffffffffffffffffffffffffffff1673ffffffffffffffffffffffffffffffffffffffff1673ffffffffffffffffffffffffffffffffffffffff168152602001600482015481526020016005820160009054906101000a900460ff16600181111561053957610538611c74565b5b600181111561054b5761054a611c74565b5b8152505090506000816000015103610598576040517f08c379a000000000000000000000000000000000000000000000000000000000815260040161058f90611f36565b60405180910390fd5b6001808111156105ab576105aa611c74565b5b8160a0015160018111156105c2576105c1611c74565b5b14610602576040517f08c379a00000000000000000000000000000000000000000000000000000000081526004016105f990611fa2565b60405180910390fd5b600081604001519050600073ffffffffffffffffffffffffffffffffffffffff168173ffffffffffffffffffffffffffffffffffffffff160361067a576040517f08c379a00000000000000000000000000000000000000000000000000000000081526004016106719061200e565b60405180910390fd5b3373ffffffffffffffffffffffffffffffffffffffff168173ffffffffffffffffffffffffffffffffffffffff16146106e8576040517f08c379a00000000000000000000000000000000000000000000000000000000081526004016106df9061207a565b60405180910390fd5b600560009054906101000a900473ffffffffffffffffffffffffffffffffffffffff1673ffffffffffffffffffffffffffffffffffffffff166342842e0e3083876040518463ffffffff1660e01b81526004016107479392919061209a565b600060405180830381600087803b15801561076157600080fd5b505af1158015610775573d6000803e3d6000fd5b5050505060008260a00190600181111561079257610791611c74565b5b908160018111156107a6576107a5611c74565b5b815250506009600085815260200190815260200160002060008082016000905560018201600090556002820160006101000a81549073ffffffffffffffffffffffffffffffffffffffff02191690556003820160006101000a81549073ffffffffffffffffffffffffffffffffffffffff021916905560048201600090556005820160006101000a81549060ff021916905550508273ffffffffffffffffffffffffffffffffffffffff16847f72ffc2a266acba5f77e2b49400103cb61b428f37a97057ebe671e83fddd71e678460000151426040516108879291906120d1565b60405180910390a350505050565b61089d611579565b73ffffffffffffffffffffffffffffffffffffffff166108bb610f80565b73ffffffffffffffffffffffffffffffffffffffff1614610911576040517f08c379a000000000000000000000000000000000000000000000000000000000815260040161090890612146565b60405180910390fd5b80600560006101000a81548173ffffffffffffffffffffffffffffffffffffffff021916908373ffffffffffffffffffffffffffffffffffffffff16021790555050565b61095d611579565b73ffffffffffffffffffffffffffffffffffffffff1661097b610f80565b73ffffffffffffffffffffffffffffffffffffffff16146109d1576040517f08c379a00000000000000000000000000000000000000000000000000000000081526004016109c890612146565b60405180910390fd5b80600360006101000a81548173ffffffffffffffffffffffffffffffffffffffff021916908373ffffffffffffffffffffffffffffffffffffffff16021790555050565b6380ac58cd60e01b81565b600260005403610a65576040517f08c379a0000000000000000000000000000000000000000000000000000000008152600401610a5c906121b2565b60405180910390fd5b600260008190555060008111610ab0576040517f08c379a0000000000000000000000000000000000000000000000000000000008152600401610aa79061221e565b60405180910390fd5b6000600460009054906101000a900473ffffffffffffffffffffffffffffffffffffffff1673ffffffffffffffffffffffffffffffffffffffff166303ce1cb5846040518263ffffffff1660e01b8152600401610b0d919061223e565b600060405180830381865afa158015610b2a573d6000803e3d6000fd5b505050506040513d6000823e3d601f19601f82011682018060405250810190610b5391906124f3565b9050600015158160800151151514610ba0576040517f08c379a0000000000000000000000000000000000000000000000000000000008152600401610b9790612588565b60405180910390fd5b610ba983611581565b6000610bb560076116a6565b90506040518060c001604052808281526020018581526020013373ffffffffffffffffffffffffffffffffffffffff1681526020013073ffffffffffffffffffffffffffffffffffffffff168152602001848152602001600180811115610c1f57610c1e611c74565b5b81525060096000838152602001908152602001600020600082015181600001556020820151816001015560408201518160020160006101000a81548173ffffffffffffffffffffffffffffffffffffffff021916908373ffffffffffffffffffffffffffffffffffffffff16021790555060608201518160030160006101000a81548173ffffffffffffffffffffffffffffffffffffffff021916908373ffffffffffffffffffffffffffffffffffffffff1602179055506080820151816004015560a08201518160050160006101000a81548160ff02191690836001811115610d0c57610d0b611c74565b5b0217905550905050610d1e60076116b4565b83817f38690a554ffbc44eb6a75016e47d517d0db8e6c37494adc68d6d0b2c66f0ab21333087604051610d539392919061209a565b60405180910390a3505060016000819055505050565b600360009054906101000a900473ffffffffffffffffffffffffffffffffffffffff1681565b610d97611579565b73ffffffffffffffffffffffffffffffffffffffff16610db5610f80565b73ffffffffffffffffffffffffffffffffffffffff1614610e0b576040517f08c379a0000000000000000000000000000000000000000000000000000000008152600401610e0290612146565b60405180910390fd5b80600460006101000a81548173ffffffffffffffffffffffffffffffffffffffff021916908373ffffffffffffffffffffffffffffffffffffffff16021790555050565b6002602052816000526040600020602052806000526040600020600091509150508060000154908060010154908060020160009054906101000a900473ffffffffffffffffffffffffffffffffffffffff16908060030160009054906101000a900473ffffffffffffffffffffffffffffffffffffffff16908060040154908060050160009054906101000a900460ff16905086565b610eed611579565b73ffffffffffffffffffffffffffffffffffffffff16610f0b610f80565b73ffffffffffffffffffffffffffffffffffffffff1614610f61576040517f08c379a0000000000000000000000000000000000000000000000000000000008152600401610f5890612146565b60405180910390fd5b610f6b60006116ca565b565b600560149054906101000a900460ff1681565b6000600660009054906101000a900473ffffffffffffffffffffffffffffffffffffffff16905090565b60006009600084815260200190815260200160002060040154905060006009600085815260200190815260200160002060010154905060006009600086815260200190815260200160002060020160009054906101000a900473ffffffffffffffffffffffffffffffffffffffff1690506000600460009054906101000a900473ffffffffffffffffffffffffffffffffffffffff1673ffffffffffffffffffffffffffffffffffffffff166303ce1cb5846040518263ffffffff1660e01b8152600401611078919061223e565b600060405180830381865afa158015611095573d6000803e3d6000fd5b505050506040513d6000823e3d601f19601f820116820180604052508101906110be91906124f3565b9050838514611102576040517f08c379a00000000000000000000000000000000000000000000000000000000081526004016110f99061261a565b60405180910390fd5b60001515816080015115151461114d576040517f08c379a000000000000000000000000000000000000000000000000000000000815260040161114490612588565b60405180910390fd5b611158868685611790565b336009600088815260200190815260200160002060030160006101000a81548173ffffffffffffffffffffffffffffffffffffffff021916908373ffffffffffffffffffffffffffffffffffffffff16021790555060006009600088815260200190815260200160002060050160006101000a81548160ff021916908360018111156111e7576111e6611c74565b5b02179055506111f660086116b4565b3373ffffffffffffffffffffffffffffffffffffffff168273ffffffffffffffffffffffffffffffffffffffff16847f551327aee12d0a8b3ede8d0e3182a40a5ff3ed9f1811dd622915db30b609b7df89884260405161125893929190612686565b60405180910390a4505050505050565b600560159054906101000a900460ff1681565b600460009054906101000a900473ffffffffffffffffffffffffffffffffffffffff1681565b6112a9611990565b600960008381526020019081526020016000206040518060c001604052908160008201548152602001600182015481526020016002820160009054906101000a900473ffffffffffffffffffffffffffffffffffffffff1673ffffffffffffffffffffffffffffffffffffffff1673ffffffffffffffffffffffffffffffffffffffff1681526020016003820160009054906101000a900473ffffffffffffffffffffffffffffffffffffffff1673ffffffffffffffffffffffffffffffffffffffff1673ffffffffffffffffffffffffffffffffffffffff168152602001600482015481526020016005820160009054906101000a900460ff1660018111156113b6576113b5611c74565b5b60018111156113c8576113c7611c74565b5b815250509050919050565b6113db611579565b73ffffffffffffffffffffffffffffffffffffffff166113f9610f80565b73ffffffffffffffffffffffffffffffffffffffff161461144f576040517f08c379a000000000000000000000000000000000000000000000000000000000815260040161144690612146565b60405180910390fd5b600073ffffffffffffffffffffffffffffffffffffffff168173ffffffffffffffffffffffffffffffffffffffff16036114be576040517f08c379a00000000000000000000000000000000000000000000000000000000081526004016114b590612742565b60405180910390fd5b6114c7816116ca565b50565b600560009054906101000a900473ffffffffffffffffffffffffffffffffffffffff1681565b60016020528060005260406000206000915090508060000154908060010154908060020160009054906101000a900473ffffffffffffffffffffffffffffffffffffffff16908060030160009054906101000a900473ffffffffffffffffffffffffffffffffffffffff16908060040154908060050160009054906101000a900460ff16905086565b600033905090565b600460009054906101000a900473ffffffffffffffffffffffffffffffffffffffff1673ffffffffffffffffffffffffffffffffffffffff1663c1e9518a3330846040518463ffffffff1660e01b81526004016115e093929190612783565b600060405180830381600087803b1580156115fa57600080fd5b505af115801561160e573d6000803e3d6000fd5b50505050600560009054906101000a900473ffffffffffffffffffffffffffffffffffffffff1673ffffffffffffffffffffffffffffffffffffffff166323b872dd3330846040518463ffffffff1660e01b81526004016116719392919061209a565b600060405180830381600087803b15801561168b57600080fd5b505af115801561169f573d6000803e3d6000fd5b5050505050565b600081600001549050919050565b6001816000016000828254019250508190555050565b6000600660009054906101000a900473ffffffffffffffffffffffffffffffffffffffff16905081600660006101000a81548173ffffffffffffffffffffffffffffffffffffffff021916908373ffffffffffffffffffffffffffffffffffffffff1602179055508173ffffffffffffffffffffffffffffffffffffffff168173ffffffffffffffffffffffffffffffffffffffff167f8be0079c531659141344cd1fd0a4f28419497f9722a3daafe3b4186f6b6457e060405160405180910390a35050565b600360009054906101000a900473ffffffffffffffffffffffffffffffffffffffff1673ffffffffffffffffffffffffffffffffffffffff166323b872dd336009600087815260200190815260200160002060020160009054906101000a900473ffffffffffffffffffffffffffffffffffffffff16856040518463ffffffff1660e01b81526004016118259392919061209a565b6020604051808303816000875af1158015611844573d6000803e3d6000fd5b505050506040513d601f19601f8201168201806040525081019061186891906127ba565b50600460009054906101000a900473ffffffffffffffffffffffffffffffffffffffff1673ffffffffffffffffffffffffffffffffffffffff1663c1e9518a3330846040518463ffffffff1660e01b81526004016118c89392919061209a565b600060405180830381600087803b1580156118e257600080fd5b505af11580156118f6573d6000803e3d6000fd5b50505050600560009054906101000a900473ffffffffffffffffffffffffffffffffffffffff1673ffffffffffffffffffffffffffffffffffffffff166323b872dd3033846040518463ffffffff1660e01b81526004016119599392919061209a565b600060405180830381600087803b15801561197357600080fd5b505af1158015611987573d6000803e3d6000fd5b50505050505050565b6040518060c001604052806000815260200160008152602001600073ffffffffffffffffffffffffffffffffffffffff168152602001600073ffffffffffffffffffffffffffffffffffffffff16815260200160008152602001600060018111156119fe576119fd611c74565b5b81525090565b6000604051905090565b600080fd5b600080fd5b6000819050919050565b611a2b81611a18565b8114611a3657600080fd5b50565b600081359050611a4881611a22565b92915050565b600060208284031215611a6457611a63611a0e565b5b6000611a7284828501611a39565b91505092915050565b600073ffffffffffffffffffffffffffffffffffffffff82169050919050565b6000611aa682611a7b565b9050919050565b611ab681611a9b565b8114611ac157600080fd5b50565b600081359050611ad381611aad565b92915050565b600060208284031215611aef57611aee611a0e565b5b6000611afd84828501611ac4565b91505092915050565b60007fffffffff0000000000000000000000000000000000000000000000000000000082169050919050565b611b3b81611b06565b82525050565b6000602082019050611b566000830184611b32565b92915050565b60008060408385031215611b7357611b72611a0e565b5b6000611b8185828601611a39565b9250506020611b9285828601611a39565b9150509250929050565b6000819050919050565b6000611bc1611bbc611bb784611a7b565b611b9c565b611a7b565b9050919050565b6000611bd382611ba6565b9050919050565b6000611be582611bc8565b9050919050565b611bf581611bda565b82525050565b6000602082019050611c106000830184611bec565b92915050565b60008060408385031215611c2d57611c2c611a0e565b5b6000611c3b85828601611ac4565b9250506020611c4c85828601611a39565b9150509250929050565b611c5f81611a18565b82525050565b611c6e81611a9b565b82525050565b7f4e487b7100000000000000000000000000000000000000000000000000000000600052602160045260246000fd5b60028110611cb457611cb3611c74565b5b50565b6000819050611cc582611ca3565b919050565b6000611cd582611cb7565b9050919050565b611ce581611cca565b82525050565b600060c082019050611d006000830189611c56565b611d0d6020830188611c56565b611d1a6040830187611c65565b611d276060830186611c65565b611d346080830185611c56565b611d4160a0830184611cdc565b979650505050505050565b600060ff82169050919050565b611d6281611d4c565b82525050565b6000602082019050611d7d6000830184611d59565b92915050565b6000602082019050611d986000830184611c65565b92915050565b6000611da982611bc8565b9050919050565b611db981611d9e565b82525050565b6000602082019050611dd46000830184611db0565b92915050565b611de381611a18565b82525050565b611df281611a9b565b82525050565b611e0181611cca565b82525050565b60c082016000820151611e1d6000850182611dda565b506020820151611e306020850182611dda565b506040820151611e436040850182611de9565b506060820151611e566060850182611de9565b506080820151611e696080850182611dda565b5060a0820151611e7c60a0850182611df8565b50505050565b600060c082019050611e976000830184611e07565b92915050565b6000611ea882611bc8565b9050919050565b611eb881611e9d565b82525050565b6000602082019050611ed36000830184611eaf565b92915050565b600082825260208201905092915050565b7f4173736574206e6f74207075626c697368656400000000000000000000000000600082015250565b6000611f20601383611ed9565b9150611f2b82611eea565b602082019050919050565b60006020820190508181036000830152611f4f81611f13565b9050919050565b7f41737365742064656c6973746564000000000000000000000000000000000000600082015250565b6000611f8c600e83611ed9565b9150611f9782611f56565b602082019050919050565b60006020820190508181036000830152611fbb81611f7f565b9050919050565b7f496e76616c696420616464726573730000000000000000000000000000000000600082015250565b6000611ff8600f83611ed9565b915061200382611fc2565b602082019050919050565b6000602082019050818103600083015261202781611feb565b9050919050565b7f4f6e6c792073656c6c65722063616e2064656c69737400000000000000000000600082015250565b6000612064601683611ed9565b915061206f8261202e565b602082019050919050565b6000602082019050818103600083015261209381612057565b9050919050565b60006060820190506120af6000830186611c65565b6120bc6020830185611c65565b6120c96040830184611c56565b949350505050565b60006040820190506120e66000830185611c56565b6120f36020830184611c56565b9392505050565b7f4f776e61626c653a2063616c6c6572206973206e6f7420746865206f776e6572600082015250565b6000612130602083611ed9565b915061213b826120fa565b602082019050919050565b6000602082019050818103600083015261215f81612123565b9050919050565b7f5265656e7472616e637947756172643a207265656e7472616e742063616c6c00600082015250565b600061219c601f83611ed9565b91506121a782612166565b602082019050919050565b600060208201905081810360008301526121cb8161218f565b9050919050565b7f5072696365206d757374206265206174206c6561737420312077656900000000600082015250565b6000612208601c83611ed9565b9150612213826121d2565b602082019050919050565b60006020820190508181036000830152612237816121fb565b9050919050565b60006020820190506122536000830184611c56565b92915050565b600080fd5b6000601f19601f8301169050919050565b7f4e487b7100000000000000000000000000000000000000000000000000000000600052604160045260246000fd5b6122a78261225e565b810181811067ffffffffffffffff821117156122c6576122c561226f565b5b80604052505050565b60006122d9611a04565b90506122e5828261229e565b919050565b600080fd5b6000815190506122fe81611a22565b92915050565b60008151905061231381611aad565b92915050565b600080fd5b600080fd5b600067ffffffffffffffff82111561233e5761233d61226f565b5b6123478261225e565b9050602081019050919050565b60005b83811015612372578082015181840152602081019050612357565b83811115612381576000848401525b50505050565b600061239a61239584612323565b6122cf565b9050828152602081018484840111156123b6576123b561231e565b5b6123c1848285612354565b509392505050565b600082601f8301126123de576123dd612319565b5b81516123ee848260208601612387565b91505092915050565b60008115159050919050565b61240c816123f7565b811461241757600080fd5b50565b60008151905061242981612403565b92915050565b600060a0828403121561244557612444612259565b5b61244f60a06122cf565b9050600061245f848285016122ef565b600083015250602061247384828501612304565b602083015250604082015167ffffffffffffffff811115612497576124966122ea565b5b6124a3848285016123c9565b604083015250606082015167ffffffffffffffff8111156124c7576124c66122ea565b5b6124d3848285016123c9565b60608301525060806124e78482850161241a565b60808301525092915050565b60006020828403121561250957612508611a0e565b5b600082015167ffffffffffffffff81111561252757612526611a13565b5b6125338482850161242f565b91505092915050565b7f4974656d206973206e6f7420617661696c61626c65206e6f7720210000000000600082015250565b6000612572601b83611ed9565b915061257d8261253c565b602082019050919050565b600060208201905081810360008301526125a181612565565b9050919050565b7f506c65617365207375626d6974207468652061736b696e67207072696365206960008201527f6e206f7264657220746f20636f6d706c65746520746865207075726368617365602082015250565b6000612604604083611ed9565b915061260f826125a8565b604082019050919050565b60006020820190508181036000830152612633816125f7565b9050919050565b7f5351460000000000000000000000000000000000000000000000000000000000600082015250565b6000612670600383611ed9565b915061267b8261263a565b602082019050919050565b600060808201905061269b6000830186611c56565b6126a86020830185611c56565b81810360408301526126b981612663565b90506126c86060830184611c56565b949350505050565b7f4f776e61626c653a206e6577206f776e657220697320746865207a65726f206160008201527f6464726573730000000000000000000000000000000000000000000000000000602082015250565b600061272c602683611ed9565b9150612737826126d0565b604082019050919050565b6000602082019050818103600083015261275b8161271f565b9050919050565b600061276d82611bc8565b9050919050565b61277d81612762565b82525050565b60006060820190506127986000830186612774565b6127a56020830185611c65565b6127b26040830184611c56565b949350505050565b6000602082840312156127d0576127cf611a0e565b5b60006127de8482850161241a565b9150509291505056fea264697066735822122094a8e2d8b460e96dda3d0cea9ac7f6d6fa95833454cdecbbbce9b979028c9f8864736f6c634300080d0033",
					"opcodes": "PUSH1 0x80 PUSH1 0x40 MSTORE PUSH1 0x40 MLOAD PUSH3 0x2ADE CODESIZE SUB DUP1 PUSH3 0x2ADE DUP4 CODECOPY DUP2 DUP2 ADD PUSH1 0x40 MSTORE DUP2 ADD SWAP1 PUSH3 0x29 SWAP2 SWAP1 PUSH3 0x255 JUMP JUMPDEST PUSH1 0x1 PUSH1 0x0 DUP2 SWAP1 SSTORE POP PUSH3 0x51 PUSH3 0x45 PUSH3 0x11D PUSH1 0x20 SHL PUSH1 0x20 SHR JUMP JUMPDEST PUSH3 0x125 PUSH1 0x20 SHL PUSH1 0x20 SHR JUMP JUMPDEST DUP3 PUSH1 0x3 PUSH1 0x0 PUSH2 0x100 EXP DUP2 SLOAD DUP2 PUSH20 0xFFFFFFFFFFFFFFFFFFFFFFFFFFFFFFFFFFFFFFFF MUL NOT AND SWAP1 DUP4 PUSH20 0xFFFFFFFFFFFFFFFFFFFFFFFFFFFFFFFFFFFFFFFF AND MUL OR SWAP1 SSTORE POP DUP2 PUSH1 0x5 PUSH1 0x0 PUSH2 0x100 EXP DUP2 SLOAD DUP2 PUSH20 0xFFFFFFFFFFFFFFFFFFFFFFFFFFFFFFFFFFFFFFFF MUL NOT AND SWAP1 DUP4 PUSH20 0xFFFFFFFFFFFFFFFFFFFFFFFFFFFFFFFFFFFFFFFF AND MUL OR SWAP1 SSTORE POP DUP1 PUSH1 0x4 PUSH1 0x0 PUSH2 0x100 EXP DUP2 SLOAD DUP2 PUSH20 0xFFFFFFFFFFFFFFFFFFFFFFFFFFFFFFFFFFFFFFFF MUL NOT AND SWAP1 DUP4 PUSH20 0xFFFFFFFFFFFFFFFFFFFFFFFFFFFFFFFFFFFFFFFF AND MUL OR SWAP1 SSTORE POP POP POP POP PUSH3 0x2B1 JUMP JUMPDEST PUSH1 0x0 CALLER SWAP1 POP SWAP1 JUMP JUMPDEST PUSH1 0x0 PUSH1 0x6 PUSH1 0x0 SWAP1 SLOAD SWAP1 PUSH2 0x100 EXP SWAP1 DIV PUSH20 0xFFFFFFFFFFFFFFFFFFFFFFFFFFFFFFFFFFFFFFFF AND SWAP1 POP DUP2 PUSH1 0x6 PUSH1 0x0 PUSH2 0x100 EXP DUP2 SLOAD DUP2 PUSH20 0xFFFFFFFFFFFFFFFFFFFFFFFFFFFFFFFFFFFFFFFF MUL NOT AND SWAP1 DUP4 PUSH20 0xFFFFFFFFFFFFFFFFFFFFFFFFFFFFFFFFFFFFFFFF AND MUL OR SWAP1 SSTORE POP DUP2 PUSH20 0xFFFFFFFFFFFFFFFFFFFFFFFFFFFFFFFFFFFFFFFF AND DUP2 PUSH20 0xFFFFFFFFFFFFFFFFFFFFFFFFFFFFFFFFFFFFFFFF AND PUSH32 0x8BE0079C531659141344CD1FD0A4F28419497F9722A3DAAFE3B4186F6B6457E0 PUSH1 0x40 MLOAD PUSH1 0x40 MLOAD DUP1 SWAP2 SUB SWAP1 LOG3 POP POP JUMP JUMPDEST PUSH1 0x0 DUP1 REVERT JUMPDEST PUSH1 0x0 PUSH20 0xFFFFFFFFFFFFFFFFFFFFFFFFFFFFFFFFFFFFFFFF DUP3 AND SWAP1 POP SWAP2 SWAP1 POP JUMP JUMPDEST PUSH1 0x0 PUSH3 0x21D DUP3 PUSH3 0x1F0 JUMP JUMPDEST SWAP1 POP SWAP2 SWAP1 POP JUMP JUMPDEST PUSH3 0x22F DUP2 PUSH3 0x210 JUMP JUMPDEST DUP2 EQ PUSH3 0x23B JUMPI PUSH1 0x0 DUP1 REVERT JUMPDEST POP JUMP JUMPDEST PUSH1 0x0 DUP2 MLOAD SWAP1 POP PUSH3 0x24F DUP2 PUSH3 0x224 JUMP JUMPDEST SWAP3 SWAP2 POP POP JUMP JUMPDEST PUSH1 0x0 DUP1 PUSH1 0x0 PUSH1 0x60 DUP5 DUP7 SUB SLT ISZERO PUSH3 0x271 JUMPI PUSH3 0x270 PUSH3 0x1EB JUMP JUMPDEST JUMPDEST PUSH1 0x0 PUSH3 0x281 DUP7 DUP3 DUP8 ADD PUSH3 0x23E JUMP JUMPDEST SWAP4 POP POP PUSH1 0x20 PUSH3 0x294 DUP7 DUP3 DUP8 ADD PUSH3 0x23E JUMP JUMPDEST SWAP3 POP POP PUSH1 0x40 PUSH3 0x2A7 DUP7 DUP3 DUP8 ADD PUSH3 0x23E JUMP JUMPDEST SWAP2 POP POP SWAP3 POP SWAP3 POP SWAP3 JUMP JUMPDEST PUSH2 0x281D DUP1 PUSH3 0x2C1 PUSH1 0x0 CODECOPY PUSH1 0x0 RETURN INVALID PUSH1 0x80 PUSH1 0x40 MSTORE PUSH1 0x4 CALLDATASIZE LT PUSH2 0x109 JUMPI PUSH1 0x0 CALLDATALOAD PUSH1 0xE0 SHR DUP1 PUSH4 0x85A8B36C GT PUSH2 0x95 JUMPI DUP1 PUSH4 0xC45A0155 GT PUSH2 0x64 JUMPI DUP1 PUSH4 0xC45A0155 EQ PUSH2 0x327 JUMPI DUP1 PUSH4 0xC7BE7A49 EQ PUSH2 0x352 JUMPI DUP1 PUSH4 0xF2FDE38B EQ PUSH2 0x38F JUMPI DUP1 PUSH4 0xF55DE0C7 EQ PUSH2 0x3B8 JUMPI DUP1 PUSH4 0xFF68FA6E EQ PUSH2 0x3E3 JUMPI PUSH2 0x109 JUMP JUMPDEST DUP1 PUSH4 0x85A8B36C EQ PUSH2 0x27D JUMPI DUP1 PUSH4 0x8DA5CB5B EQ PUSH2 0x2A8 JUMPI DUP1 PUSH4 0xA1C11CA8 EQ PUSH2 0x2D3 JUMPI DUP1 PUSH4 0xB7A60C7E EQ PUSH2 0x2FC JUMPI PUSH2 0x109 JUMP JUMPDEST DUP1 PUSH4 0x361C1995 GT PUSH2 0xDC JUMPI DUP1 PUSH4 0x361C1995 EQ PUSH2 0x1B4 JUMPI DUP1 PUSH4 0x3FC15F15 EQ PUSH2 0x1D0 JUMPI DUP1 PUSH4 0x5BB47808 EQ PUSH2 0x1FB JUMPI DUP1 PUSH4 0x5C80A435 EQ PUSH2 0x224 JUMPI DUP1 PUSH4 0x715018A6 EQ PUSH2 0x266 JUMPI PUSH2 0x109 JUMP JUMPDEST DUP1 PUSH4 0x10061631 EQ PUSH2 0x10E JUMPI DUP1 PUSH4 0x15B12494 EQ PUSH2 0x137 JUMPI DUP1 PUSH4 0x27CE464E EQ PUSH2 0x160 JUMPI DUP1 PUSH4 0x2B4C32BE EQ PUSH2 0x189 JUMPI JUMPDEST PUSH1 0x0 DUP1 REVERT JUMPDEST CALLVALUE DUP1 ISZERO PUSH2 0x11A JUMPI PUSH1 0x0 DUP1 REVERT JUMPDEST POP PUSH2 0x135 PUSH1 0x4 DUP1 CALLDATASIZE SUB DUP2 ADD SWAP1 PUSH2 0x130 SWAP2 SWAP1 PUSH2 0x1A4E JUMP JUMPDEST PUSH2 0x425 JUMP JUMPDEST STOP JUMPDEST CALLVALUE DUP1 ISZERO PUSH2 0x143 JUMPI PUSH1 0x0 DUP1 REVERT JUMPDEST POP PUSH2 0x15E PUSH1 0x4 DUP1 CALLDATASIZE SUB DUP2 ADD SWAP1 PUSH2 0x159 SWAP2 SWAP1 PUSH2 0x1AD9 JUMP JUMPDEST PUSH2 0x895 JUMP JUMPDEST STOP JUMPDEST CALLVALUE DUP1 ISZERO PUSH2 0x16C JUMPI PUSH1 0x0 DUP1 REVERT JUMPDEST POP PUSH2 0x187 PUSH1 0x4 DUP1 CALLDATASIZE SUB DUP2 ADD SWAP1 PUSH2 0x182 SWAP2 SWAP1 PUSH2 0x1AD9 JUMP JUMPDEST PUSH2 0x955 JUMP JUMPDEST STOP JUMPDEST CALLVALUE DUP1 ISZERO PUSH2 0x195 JUMPI PUSH1 0x0 DUP1 REVERT JUMPDEST POP PUSH2 0x19E PUSH2 0xA15 JUMP JUMPDEST PUSH1 0x40 MLOAD PUSH2 0x1AB SWAP2 SWAP1 PUSH2 0x1B41 JUMP JUMPDEST PUSH1 0x40 MLOAD DUP1 SWAP2 SUB SWAP1 RETURN JUMPDEST PUSH2 0x1CE PUSH1 0x4 DUP1 CALLDATASIZE SUB DUP2 ADD SWAP1 PUSH2 0x1C9 SWAP2 SWAP1 PUSH2 0x1B5C JUMP JUMPDEST PUSH2 0xA20 JUMP JUMPDEST STOP JUMPDEST CALLVALUE DUP1 ISZERO PUSH2 0x1DC JUMPI PUSH1 0x0 DUP1 REVERT JUMPDEST POP PUSH2 0x1E5 PUSH2 0xD69 JUMP JUMPDEST PUSH1 0x40 MLOAD PUSH2 0x1F2 SWAP2 SWAP1 PUSH2 0x1BFB JUMP JUMPDEST PUSH1 0x40 MLOAD DUP1 SWAP2 SUB SWAP1 RETURN JUMPDEST CALLVALUE DUP1 ISZERO PUSH2 0x207 JUMPI PUSH1 0x0 DUP1 REVERT JUMPDEST POP PUSH2 0x222 PUSH1 0x4 DUP1 CALLDATASIZE SUB DUP2 ADD SWAP1 PUSH2 0x21D SWAP2 SWAP1 PUSH2 0x1AD9 JUMP JUMPDEST PUSH2 0xD8F JUMP JUMPDEST STOP JUMPDEST CALLVALUE DUP1 ISZERO PUSH2 0x230 JUMPI PUSH1 0x0 DUP1 REVERT JUMPDEST POP PUSH2 0x24B PUSH1 0x4 DUP1 CALLDATASIZE SUB DUP2 ADD SWAP1 PUSH2 0x246 SWAP2 SWAP1 PUSH2 0x1C16 JUMP JUMPDEST PUSH2 0xE4F JUMP JUMPDEST PUSH1 0x40 MLOAD PUSH2 0x25D SWAP7 SWAP6 SWAP5 SWAP4 SWAP3 SWAP2 SWAP1 PUSH2 0x1CEB JUMP JUMPDEST PUSH1 0x40 MLOAD DUP1 SWAP2 SUB SWAP1 RETURN JUMPDEST CALLVALUE DUP1 ISZERO PUSH2 0x272 JUMPI PUSH1 0x0 DUP1 REVERT JUMPDEST POP PUSH2 0x27B PUSH2 0xEE5 JUMP JUMPDEST STOP JUMPDEST CALLVALUE DUP1 ISZERO PUSH2 0x289 JUMPI PUSH1 0x0 DUP1 REVERT JUMPDEST POP PUSH2 0x292 PUSH2 0xF6D JUMP JUMPDEST PUSH1 0x40 MLOAD PUSH2 0x29F SWAP2 SWAP1 PUSH2 0x1D68 JUMP JUMPDEST PUSH1 0x40 MLOAD DUP1 SWAP2 SUB SWAP1 RETURN JUMPDEST CALLVALUE DUP1 ISZERO PUSH2 0x2B4 JUMPI PUSH1 0x0 DUP1 REVERT JUMPDEST POP PUSH2 0x2BD PUSH2 0xF80 JUMP JUMPDEST PUSH1 0x40 MLOAD PUSH2 0x2CA SWAP2 SWAP1 PUSH2 0x1D83 JUMP JUMPDEST PUSH1 0x40 MLOAD DUP1 SWAP2 SUB SWAP1 RETURN JUMPDEST CALLVALUE DUP1 ISZERO PUSH2 0x2DF JUMPI PUSH1 0x0 DUP1 REVERT JUMPDEST POP PUSH2 0x2FA PUSH1 0x4 DUP1 CALLDATASIZE SUB DUP2 ADD SWAP1 PUSH2 0x2F5 SWAP2 SWAP1 PUSH2 0x1B5C JUMP JUMPDEST PUSH2 0xFAA JUMP JUMPDEST STOP JUMPDEST CALLVALUE DUP1 ISZERO PUSH2 0x308 JUMPI PUSH1 0x0 DUP1 REVERT JUMPDEST POP PUSH2 0x311 PUSH2 0x1268 JUMP JUMPDEST PUSH1 0x40 MLOAD PUSH2 0x31E SWAP2 SWAP1 PUSH2 0x1D68 JUMP JUMPDEST PUSH1 0x40 MLOAD DUP1 SWAP2 SUB SWAP1 RETURN JUMPDEST CALLVALUE DUP1 ISZERO PUSH2 0x333 JUMPI PUSH1 0x0 DUP1 REVERT JUMPDEST POP PUSH2 0x33C PUSH2 0x127B JUMP JUMPDEST PUSH1 0x40 MLOAD PUSH2 0x349 SWAP2 SWAP1 PUSH2 0x1DBF JUMP JUMPDEST PUSH1 0x40 MLOAD DUP1 SWAP2 SUB SWAP1 RETURN JUMPDEST CALLVALUE DUP1 ISZERO PUSH2 0x35E JUMPI PUSH1 0x0 DUP1 REVERT JUMPDEST POP PUSH2 0x379 PUSH1 0x4 DUP1 CALLDATASIZE SUB DUP2 ADD SWAP1 PUSH2 0x374 SWAP2 SWAP1 PUSH2 0x1A4E JUMP JUMPDEST PUSH2 0x12A1 JUMP JUMPDEST PUSH1 0x40 MLOAD PUSH2 0x386 SWAP2 SWAP1 PUSH2 0x1E82 JUMP JUMPDEST PUSH1 0x40 MLOAD DUP1 SWAP2 SUB SWAP1 RETURN JUMPDEST CALLVALUE DUP1 ISZERO PUSH2 0x39B JUMPI PUSH1 0x0 DUP1 REVERT JUMPDEST POP PUSH2 0x3B6 PUSH1 0x4 DUP1 CALLDATASIZE SUB DUP2 ADD SWAP1 PUSH2 0x3B1 SWAP2 SWAP1 PUSH2 0x1AD9 JUMP JUMPDEST PUSH2 0x13D3 JUMP JUMPDEST STOP JUMPDEST CALLVALUE DUP1 ISZERO PUSH2 0x3C4 JUMPI PUSH1 0x0 DUP1 REVERT JUMPDEST POP PUSH2 0x3CD PUSH2 0x14CA JUMP JUMPDEST PUSH1 0x40 MLOAD PUSH2 0x3DA SWAP2 SWAP1 PUSH2 0x1EBE JUMP JUMPDEST PUSH1 0x40 MLOAD DUP1 SWAP2 SUB SWAP1 RETURN JUMPDEST CALLVALUE DUP1 ISZERO PUSH2 0x3EF JUMPI PUSH1 0x0 DUP1 REVERT JUMPDEST POP PUSH2 0x40A PUSH1 0x4 DUP1 CALLDATASIZE SUB DUP2 ADD SWAP1 PUSH2 0x405 SWAP2 SWAP1 PUSH2 0x1A4E JUMP JUMPDEST PUSH2 0x14F0 JUMP JUMPDEST PUSH1 0x40 MLOAD PUSH2 0x41C SWAP7 SWAP6 SWAP5 SWAP4 SWAP3 SWAP2 SWAP1 PUSH2 0x1CEB JUMP JUMPDEST PUSH1 0x40 MLOAD DUP1 SWAP2 SUB SWAP1 RETURN JUMPDEST PUSH1 0x0 CALLER SWAP1 POP PUSH1 0x0 PUSH1 0x9 PUSH1 0x0 DUP5 DUP2 MSTORE PUSH1 0x20 ADD SWAP1 DUP2 MSTORE PUSH1 0x20 ADD PUSH1 0x0 KECCAK256 PUSH1 0x40 MLOAD DUP1 PUSH1 0xC0 ADD PUSH1 0x40 MSTORE SWAP1 DUP2 PUSH1 0x0 DUP3 ADD SLOAD DUP2 MSTORE PUSH1 0x20 ADD PUSH1 0x1 DUP3 ADD SLOAD DUP2 MSTORE PUSH1 0x20 ADD PUSH1 0x2 DUP3 ADD PUSH1 0x0 SWAP1 SLOAD SWAP1 PUSH2 0x100 EXP SWAP1 DIV PUSH20 0xFFFFFFFFFFFFFFFFFFFFFFFFFFFFFFFFFFFFFFFF AND PUSH20 0xFFFFFFFFFFFFFFFFFFFFFFFFFFFFFFFFFFFFFFFF AND PUSH20 0xFFFFFFFFFFFFFFFFFFFFFFFFFFFFFFFFFFFFFFFF AND DUP2 MSTORE PUSH1 0x20 ADD PUSH1 0x3 DUP3 ADD PUSH1 0x0 SWAP1 SLOAD SWAP1 PUSH2 0x100 EXP SWAP1 DIV PUSH20 0xFFFFFFFFFFFFFFFFFFFFFFFFFFFFFFFFFFFFFFFF AND PUSH20 0xFFFFFFFFFFFFFFFFFFFFFFFFFFFFFFFFFFFFFFFF AND PUSH20 0xFFFFFFFFFFFFFFFFFFFFFFFFFFFFFFFFFFFFFFFF AND DUP2 MSTORE PUSH1 0x20 ADD PUSH1 0x4 DUP3 ADD SLOAD DUP2 MSTORE PUSH1 0x20 ADD PUSH1 0x5 DUP3 ADD PUSH1 0x0 SWAP1 SLOAD SWAP1 PUSH2 0x100 EXP SWAP1 DIV PUSH1 0xFF AND PUSH1 0x1 DUP2 GT ISZERO PUSH2 0x539 JUMPI PUSH2 0x538 PUSH2 0x1C74 JUMP JUMPDEST JUMPDEST PUSH1 0x1 DUP2 GT ISZERO PUSH2 0x54B JUMPI PUSH2 0x54A PUSH2 0x1C74 JUMP JUMPDEST JUMPDEST DUP2 MSTORE POP POP SWAP1 POP PUSH1 0x0 DUP2 PUSH1 0x0 ADD MLOAD SUB PUSH2 0x598 JUMPI PUSH1 0x40 MLOAD PUSH32 0x8C379A000000000000000000000000000000000000000000000000000000000 DUP2 MSTORE PUSH1 0x4 ADD PUSH2 0x58F SWAP1 PUSH2 0x1F36 JUMP JUMPDEST PUSH1 0x40 MLOAD DUP1 SWAP2 SUB SWAP1 REVERT JUMPDEST PUSH1 0x1 DUP1 DUP2 GT ISZERO PUSH2 0x5AB JUMPI PUSH2 0x5AA PUSH2 0x1C74 JUMP JUMPDEST JUMPDEST DUP2 PUSH1 0xA0 ADD MLOAD PUSH1 0x1 DUP2 GT ISZERO PUSH2 0x5C2 JUMPI PUSH2 0x5C1 PUSH2 0x1C74 JUMP JUMPDEST JUMPDEST EQ PUSH2 0x602 JUMPI PUSH1 0x40 MLOAD PUSH32 0x8C379A000000000000000000000000000000000000000000000000000000000 DUP2 MSTORE PUSH1 0x4 ADD PUSH2 0x5F9 SWAP1 PUSH2 0x1FA2 JUMP JUMPDEST PUSH1 0x40 MLOAD DUP1 SWAP2 SUB SWAP1 REVERT JUMPDEST PUSH1 0x0 DUP2 PUSH1 0x40 ADD MLOAD SWAP1 POP PUSH1 0x0 PUSH20 0xFFFFFFFFFFFFFFFFFFFFFFFFFFFFFFFFFFFFFFFF AND DUP2 PUSH20 0xFFFFFFFFFFFFFFFFFFFFFFFFFFFFFFFFFFFFFFFF AND SUB PUSH2 0x67A JUMPI PUSH1 0x40 MLOAD PUSH32 0x8C379A000000000000000000000000000000000000000000000000000000000 DUP2 MSTORE PUSH1 0x4 ADD PUSH2 0x671 SWAP1 PUSH2 0x200E JUMP JUMPDEST PUSH1 0x40 MLOAD DUP1 SWAP2 SUB SWAP1 REVERT JUMPDEST CALLER PUSH20 0xFFFFFFFFFFFFFFFFFFFFFFFFFFFFFFFFFFFFFFFF AND DUP2 PUSH20 0xFFFFFFFFFFFFFFFFFFFFFFFFFFFFFFFFFFFFFFFF AND EQ PUSH2 0x6E8 JUMPI PUSH1 0x40 MLOAD PUSH32 0x8C379A000000000000000000000000000000000000000000000000000000000 DUP2 MSTORE PUSH1 0x4 ADD PUSH2 0x6DF SWAP1 PUSH2 0x207A JUMP JUMPDEST PUSH1 0x40 MLOAD DUP1 SWAP2 SUB SWAP1 REVERT JUMPDEST PUSH1 0x5 PUSH1 0x0 SWAP1 SLOAD SWAP1 PUSH2 0x100 EXP SWAP1 DIV PUSH20 0xFFFFFFFFFFFFFFFFFFFFFFFFFFFFFFFFFFFFFFFF AND PUSH20 0xFFFFFFFFFFFFFFFFFFFFFFFFFFFFFFFFFFFFFFFF AND PUSH4 0x42842E0E ADDRESS DUP4 DUP8 PUSH1 0x40 MLOAD DUP5 PUSH4 0xFFFFFFFF AND PUSH1 0xE0 SHL DUP2 MSTORE PUSH1 0x4 ADD PUSH2 0x747 SWAP4 SWAP3 SWAP2 SWAP1 PUSH2 0x209A JUMP JUMPDEST PUSH1 0x0 PUSH1 0x40 MLOAD DUP1 DUP4 SUB DUP2 PUSH1 0x0 DUP8 DUP1 EXTCODESIZE ISZERO DUP1 ISZERO PUSH2 0x761 JUMPI PUSH1 0x0 DUP1 REVERT JUMPDEST POP GAS CALL ISZERO DUP1 ISZERO PUSH2 0x775 JUMPI RETURNDATASIZE PUSH1 0x0 DUP1 RETURNDATACOPY RETURNDATASIZE PUSH1 0x0 REVERT JUMPDEST POP POP POP POP PUSH1 0x0 DUP3 PUSH1 0xA0 ADD SWAP1 PUSH1 0x1 DUP2 GT ISZERO PUSH2 0x792 JUMPI PUSH2 0x791 PUSH2 0x1C74 JUMP JUMPDEST JUMPDEST SWAP1 DUP2 PUSH1 0x1 DUP2 GT ISZERO PUSH2 0x7A6 JUMPI PUSH2 0x7A5 PUSH2 0x1C74 JUMP JUMPDEST JUMPDEST DUP2 MSTORE POP POP PUSH1 0x9 PUSH1 0x0 DUP6 DUP2 MSTORE PUSH1 0x20 ADD SWAP1 DUP2 MSTORE PUSH1 0x20 ADD PUSH1 0x0 KECCAK256 PUSH1 0x0 DUP1 DUP3 ADD PUSH1 0x0 SWAP1 SSTORE PUSH1 0x1 DUP3 ADD PUSH1 0x0 SWAP1 SSTORE PUSH1 0x2 DUP3 ADD PUSH1 0x0 PUSH2 0x100 EXP DUP2 SLOAD SWAP1 PUSH20 0xFFFFFFFFFFFFFFFFFFFFFFFFFFFFFFFFFFFFFFFF MUL NOT AND SWAP1 SSTORE PUSH1 0x3 DUP3 ADD PUSH1 0x0 PUSH2 0x100 EXP DUP2 SLOAD SWAP1 PUSH20 0xFFFFFFFFFFFFFFFFFFFFFFFFFFFFFFFFFFFFFFFF MUL NOT AND SWAP1 SSTORE PUSH1 0x4 DUP3 ADD PUSH1 0x0 SWAP1 SSTORE PUSH1 0x5 DUP3 ADD PUSH1 0x0 PUSH2 0x100 EXP DUP2 SLOAD SWAP1 PUSH1 0xFF MUL NOT AND SWAP1 SSTORE POP POP DUP3 PUSH20 0xFFFFFFFFFFFFFFFFFFFFFFFFFFFFFFFFFFFFFFFF AND DUP5 PUSH32 0x72FFC2A266ACBA5F77E2B49400103CB61B428F37A97057EBE671E83FDDD71E67 DUP5 PUSH1 0x0 ADD MLOAD TIMESTAMP PUSH1 0x40 MLOAD PUSH2 0x887 SWAP3 SWAP2 SWAP1 PUSH2 0x20D1 JUMP JUMPDEST PUSH1 0x40 MLOAD DUP1 SWAP2 SUB SWAP1 LOG3 POP POP POP POP JUMP JUMPDEST PUSH2 0x89D PUSH2 0x1579 JUMP JUMPDEST PUSH20 0xFFFFFFFFFFFFFFFFFFFFFFFFFFFFFFFFFFFFFFFF AND PUSH2 0x8BB PUSH2 0xF80 JUMP JUMPDEST PUSH20 0xFFFFFFFFFFFFFFFFFFFFFFFFFFFFFFFFFFFFFFFF AND EQ PUSH2 0x911 JUMPI PUSH1 0x40 MLOAD PUSH32 0x8C379A000000000000000000000000000000000000000000000000000000000 DUP2 MSTORE PUSH1 0x4 ADD PUSH2 0x908 SWAP1 PUSH2 0x2146 JUMP JUMPDEST PUSH1 0x40 MLOAD DUP1 SWAP2 SUB SWAP1 REVERT JUMPDEST DUP1 PUSH1 0x5 PUSH1 0x0 PUSH2 0x100 EXP DUP2 SLOAD DUP2 PUSH20 0xFFFFFFFFFFFFFFFFFFFFFFFFFFFFFFFFFFFFFFFF MUL NOT AND SWAP1 DUP4 PUSH20 0xFFFFFFFFFFFFFFFFFFFFFFFFFFFFFFFFFFFFFFFF AND MUL OR SWAP1 SSTORE POP POP JUMP JUMPDEST PUSH2 0x95D PUSH2 0x1579 JUMP JUMPDEST PUSH20 0xFFFFFFFFFFFFFFFFFFFFFFFFFFFFFFFFFFFFFFFF AND PUSH2 0x97B PUSH2 0xF80 JUMP JUMPDEST PUSH20 0xFFFFFFFFFFFFFFFFFFFFFFFFFFFFFFFFFFFFFFFF AND EQ PUSH2 0x9D1 JUMPI PUSH1 0x40 MLOAD PUSH32 0x8C379A000000000000000000000000000000000000000000000000000000000 DUP2 MSTORE PUSH1 0x4 ADD PUSH2 0x9C8 SWAP1 PUSH2 0x2146 JUMP JUMPDEST PUSH1 0x40 MLOAD DUP1 SWAP2 SUB SWAP1 REVERT JUMPDEST DUP1 PUSH1 0x3 PUSH1 0x0 PUSH2 0x100 EXP DUP2 SLOAD DUP2 PUSH20 0xFFFFFFFFFFFFFFFFFFFFFFFFFFFFFFFFFFFFFFFF MUL NOT AND SWAP1 DUP4 PUSH20 0xFFFFFFFFFFFFFFFFFFFFFFFFFFFFFFFFFFFFFFFF AND MUL OR SWAP1 SSTORE POP POP JUMP JUMPDEST PUSH4 0x80AC58CD PUSH1 0xE0 SHL DUP2 JUMP JUMPDEST PUSH1 0x2 PUSH1 0x0 SLOAD SUB PUSH2 0xA65 JUMPI PUSH1 0x40 MLOAD PUSH32 0x8C379A000000000000000000000000000000000000000000000000000000000 DUP2 MSTORE PUSH1 0x4 ADD PUSH2 0xA5C SWAP1 PUSH2 0x21B2 JUMP JUMPDEST PUSH1 0x40 MLOAD DUP1 SWAP2 SUB SWAP1 REVERT JUMPDEST PUSH1 0x2 PUSH1 0x0 DUP2 SWAP1 SSTORE POP PUSH1 0x0 DUP2 GT PUSH2 0xAB0 JUMPI PUSH1 0x40 MLOAD PUSH32 0x8C379A000000000000000000000000000000000000000000000000000000000 DUP2 MSTORE PUSH1 0x4 ADD PUSH2 0xAA7 SWAP1 PUSH2 0x221E JUMP JUMPDEST PUSH1 0x40 MLOAD DUP1 SWAP2 SUB SWAP1 REVERT JUMPDEST PUSH1 0x0 PUSH1 0x4 PUSH1 0x0 SWAP1 SLOAD SWAP1 PUSH2 0x100 EXP SWAP1 DIV PUSH20 0xFFFFFFFFFFFFFFFFFFFFFFFFFFFFFFFFFFFFFFFF AND PUSH20 0xFFFFFFFFFFFFFFFFFFFFFFFFFFFFFFFFFFFFFFFF AND PUSH4 0x3CE1CB5 DUP5 PUSH1 0x40 MLOAD DUP3 PUSH4 0xFFFFFFFF AND PUSH1 0xE0 SHL DUP2 MSTORE PUSH1 0x4 ADD PUSH2 0xB0D SWAP2 SWAP1 PUSH2 0x223E JUMP JUMPDEST PUSH1 0x0 PUSH1 0x40 MLOAD DUP1 DUP4 SUB DUP2 DUP7 GAS STATICCALL ISZERO DUP1 ISZERO PUSH2 0xB2A JUMPI RETURNDATASIZE PUSH1 0x0 DUP1 RETURNDATACOPY RETURNDATASIZE PUSH1 0x0 REVERT JUMPDEST POP POP POP POP PUSH1 0x40 MLOAD RETURNDATASIZE PUSH1 0x0 DUP3 RETURNDATACOPY RETURNDATASIZE PUSH1 0x1F NOT PUSH1 0x1F DUP3 ADD AND DUP3 ADD DUP1 PUSH1 0x40 MSTORE POP DUP2 ADD SWAP1 PUSH2 0xB53 SWAP2 SWAP1 PUSH2 0x24F3 JUMP JUMPDEST SWAP1 POP PUSH1 0x0 ISZERO ISZERO DUP2 PUSH1 0x80 ADD MLOAD ISZERO ISZERO EQ PUSH2 0xBA0 JUMPI PUSH1 0x40 MLOAD PUSH32 0x8C379A000000000000000000000000000000000000000000000000000000000 DUP2 MSTORE PUSH1 0x4 ADD PUSH2 0xB97 SWAP1 PUSH2 0x2588 JUMP JUMPDEST PUSH1 0x40 MLOAD DUP1 SWAP2 SUB SWAP1 REVERT JUMPDEST PUSH2 0xBA9 DUP4 PUSH2 0x1581 JUMP JUMPDEST PUSH1 0x0 PUSH2 0xBB5 PUSH1 0x7 PUSH2 0x16A6 JUMP JUMPDEST SWAP1 POP PUSH1 0x40 MLOAD DUP1 PUSH1 0xC0 ADD PUSH1 0x40 MSTORE DUP1 DUP3 DUP2 MSTORE PUSH1 0x20 ADD DUP6 DUP2 MSTORE PUSH1 0x20 ADD CALLER PUSH20 0xFFFFFFFFFFFFFFFFFFFFFFFFFFFFFFFFFFFFFFFF AND DUP2 MSTORE PUSH1 0x20 ADD ADDRESS PUSH20 0xFFFFFFFFFFFFFFFFFFFFFFFFFFFFFFFFFFFFFFFF AND DUP2 MSTORE PUSH1 0x20 ADD DUP5 DUP2 MSTORE PUSH1 0x20 ADD PUSH1 0x1 DUP1 DUP2 GT ISZERO PUSH2 0xC1F JUMPI PUSH2 0xC1E PUSH2 0x1C74 JUMP JUMPDEST JUMPDEST DUP2 MSTORE POP PUSH1 0x9 PUSH1 0x0 DUP4 DUP2 MSTORE PUSH1 0x20 ADD SWAP1 DUP2 MSTORE PUSH1 0x20 ADD PUSH1 0x0 KECCAK256 PUSH1 0x0 DUP3 ADD MLOAD DUP2 PUSH1 0x0 ADD SSTORE PUSH1 0x20 DUP3 ADD MLOAD DUP2 PUSH1 0x1 ADD SSTORE PUSH1 0x40 DUP3 ADD MLOAD DUP2 PUSH1 0x2 ADD PUSH1 0x0 PUSH2 0x100 EXP DUP2 SLOAD DUP2 PUSH20 0xFFFFFFFFFFFFFFFFFFFFFFFFFFFFFFFFFFFFFFFF MUL NOT AND SWAP1 DUP4 PUSH20 0xFFFFFFFFFFFFFFFFFFFFFFFFFFFFFFFFFFFFFFFF AND MUL OR SWAP1 SSTORE POP PUSH1 0x60 DUP3 ADD MLOAD DUP2 PUSH1 0x3 ADD PUSH1 0x0 PUSH2 0x100 EXP DUP2 SLOAD DUP2 PUSH20 0xFFFFFFFFFFFFFFFFFFFFFFFFFFFFFFFFFFFFFFFF MUL NOT AND SWAP1 DUP4 PUSH20 0xFFFFFFFFFFFFFFFFFFFFFFFFFFFFFFFFFFFFFFFF AND MUL OR SWAP1 SSTORE POP PUSH1 0x80 DUP3 ADD MLOAD DUP2 PUSH1 0x4 ADD SSTORE PUSH1 0xA0 DUP3 ADD MLOAD DUP2 PUSH1 0x5 ADD PUSH1 0x0 PUSH2 0x100 EXP DUP2 SLOAD DUP2 PUSH1 0xFF MUL NOT AND SWAP1 DUP4 PUSH1 0x1 DUP2 GT ISZERO PUSH2 0xD0C JUMPI PUSH2 0xD0B PUSH2 0x1C74 JUMP JUMPDEST JUMPDEST MUL OR SWAP1 SSTORE POP SWAP1 POP POP PUSH2 0xD1E PUSH1 0x7 PUSH2 0x16B4 JUMP JUMPDEST DUP4 DUP2 PUSH32 0x38690A554FFBC44EB6A75016E47D517D0DB8E6C37494ADC68D6D0B2C66F0AB21 CALLER ADDRESS DUP8 PUSH1 0x40 MLOAD PUSH2 0xD53 SWAP4 SWAP3 SWAP2 SWAP1 PUSH2 0x209A JUMP JUMPDEST PUSH1 0x40 MLOAD DUP1 SWAP2 SUB SWAP1 LOG3 POP POP PUSH1 0x1 PUSH1 0x0 DUP2 SWAP1 SSTORE POP POP POP JUMP JUMPDEST PUSH1 0x3 PUSH1 0x0 SWAP1 SLOAD SWAP1 PUSH2 0x100 EXP SWAP1 DIV PUSH20 0xFFFFFFFFFFFFFFFFFFFFFFFFFFFFFFFFFFFFFFFF AND DUP2 JUMP JUMPDEST PUSH2 0xD97 PUSH2 0x1579 JUMP JUMPDEST PUSH20 0xFFFFFFFFFFFFFFFFFFFFFFFFFFFFFFFFFFFFFFFF AND PUSH2 0xDB5 PUSH2 0xF80 JUMP JUMPDEST PUSH20 0xFFFFFFFFFFFFFFFFFFFFFFFFFFFFFFFFFFFFFFFF AND EQ PUSH2 0xE0B JUMPI PUSH1 0x40 MLOAD PUSH32 0x8C379A000000000000000000000000000000000000000000000000000000000 DUP2 MSTORE PUSH1 0x4 ADD PUSH2 0xE02 SWAP1 PUSH2 0x2146 JUMP JUMPDEST PUSH1 0x40 MLOAD DUP1 SWAP2 SUB SWAP1 REVERT JUMPDEST DUP1 PUSH1 0x4 PUSH1 0x0 PUSH2 0x100 EXP DUP2 SLOAD DUP2 PUSH20 0xFFFFFFFFFFFFFFFFFFFFFFFFFFFFFFFFFFFFFFFF MUL NOT AND SWAP1 DUP4 PUSH20 0xFFFFFFFFFFFFFFFFFFFFFFFFFFFFFFFFFFFFFFFF AND MUL OR SWAP1 SSTORE POP POP JUMP JUMPDEST PUSH1 0x2 PUSH1 0x20 MSTORE DUP2 PUSH1 0x0 MSTORE PUSH1 0x40 PUSH1 0x0 KECCAK256 PUSH1 0x20 MSTORE DUP1 PUSH1 0x0 MSTORE PUSH1 0x40 PUSH1 0x0 KECCAK256 PUSH1 0x0 SWAP2 POP SWAP2 POP POP DUP1 PUSH1 0x0 ADD SLOAD SWAP1 DUP1 PUSH1 0x1 ADD SLOAD SWAP1 DUP1 PUSH1 0x2 ADD PUSH1 0x0 SWAP1 SLOAD SWAP1 PUSH2 0x100 EXP SWAP1 DIV PUSH20 0xFFFFFFFFFFFFFFFFFFFFFFFFFFFFFFFFFFFFFFFF AND SWAP1 DUP1 PUSH1 0x3 ADD PUSH1 0x0 SWAP1 SLOAD SWAP1 PUSH2 0x100 EXP SWAP1 DIV PUSH20 0xFFFFFFFFFFFFFFFFFFFFFFFFFFFFFFFFFFFFFFFF AND SWAP1 DUP1 PUSH1 0x4 ADD SLOAD SWAP1 DUP1 PUSH1 0x5 ADD PUSH1 0x0 SWAP1 SLOAD SWAP1 PUSH2 0x100 EXP SWAP1 DIV PUSH1 0xFF AND SWAP1 POP DUP7 JUMP JUMPDEST PUSH2 0xEED PUSH2 0x1579 JUMP JUMPDEST PUSH20 0xFFFFFFFFFFFFFFFFFFFFFFFFFFFFFFFFFFFFFFFF AND PUSH2 0xF0B PUSH2 0xF80 JUMP JUMPDEST PUSH20 0xFFFFFFFFFFFFFFFFFFFFFFFFFFFFFFFFFFFFFFFF AND EQ PUSH2 0xF61 JUMPI PUSH1 0x40 MLOAD PUSH32 0x8C379A000000000000000000000000000000000000000000000000000000000 DUP2 MSTORE PUSH1 0x4 ADD PUSH2 0xF58 SWAP1 PUSH2 0x2146 JUMP JUMPDEST PUSH1 0x40 MLOAD DUP1 SWAP2 SUB SWAP1 REVERT JUMPDEST PUSH2 0xF6B PUSH1 0x0 PUSH2 0x16CA JUMP JUMPDEST JUMP JUMPDEST PUSH1 0x5 PUSH1 0x14 SWAP1 SLOAD SWAP1 PUSH2 0x100 EXP SWAP1 DIV PUSH1 0xFF AND DUP2 JUMP JUMPDEST PUSH1 0x0 PUSH1 0x6 PUSH1 0x0 SWAP1 SLOAD SWAP1 PUSH2 0x100 EXP SWAP1 DIV PUSH20 0xFFFFFFFFFFFFFFFFFFFFFFFFFFFFFFFFFFFFFFFF AND SWAP1 POP SWAP1 JUMP JUMPDEST PUSH1 0x0 PUSH1 0x9 PUSH1 0x0 DUP5 DUP2 MSTORE PUSH1 0x20 ADD SWAP1 DUP2 MSTORE PUSH1 0x20 ADD PUSH1 0x0 KECCAK256 PUSH1 0x4 ADD SLOAD SWAP1 POP PUSH1 0x0 PUSH1 0x9 PUSH1 0x0 DUP6 DUP2 MSTORE PUSH1 0x20 ADD SWAP1 DUP2 MSTORE PUSH1 0x20 ADD PUSH1 0x0 KECCAK256 PUSH1 0x1 ADD SLOAD SWAP1 POP PUSH1 0x0 PUSH1 0x9 PUSH1 0x0 DUP7 DUP2 MSTORE PUSH1 0x20 ADD SWAP1 DUP2 MSTORE PUSH1 0x20 ADD PUSH1 0x0 KECCAK256 PUSH1 0x2 ADD PUSH1 0x0 SWAP1 SLOAD SWAP1 PUSH2 0x100 EXP SWAP1 DIV PUSH20 0xFFFFFFFFFFFFFFFFFFFFFFFFFFFFFFFFFFFFFFFF AND SWAP1 POP PUSH1 0x0 PUSH1 0x4 PUSH1 0x0 SWAP1 SLOAD SWAP1 PUSH2 0x100 EXP SWAP1 DIV PUSH20 0xFFFFFFFFFFFFFFFFFFFFFFFFFFFFFFFFFFFFFFFF AND PUSH20 0xFFFFFFFFFFFFFFFFFFFFFFFFFFFFFFFFFFFFFFFF AND PUSH4 0x3CE1CB5 DUP5 PUSH1 0x40 MLOAD DUP3 PUSH4 0xFFFFFFFF AND PUSH1 0xE0 SHL DUP2 MSTORE PUSH1 0x4 ADD PUSH2 0x1078 SWAP2 SWAP1 PUSH2 0x223E JUMP JUMPDEST PUSH1 0x0 PUSH1 0x40 MLOAD DUP1 DUP4 SUB DUP2 DUP7 GAS STATICCALL ISZERO DUP1 ISZERO PUSH2 0x1095 JUMPI RETURNDATASIZE PUSH1 0x0 DUP1 RETURNDATACOPY RETURNDATASIZE PUSH1 0x0 REVERT JUMPDEST POP POP POP POP PUSH1 0x40 MLOAD RETURNDATASIZE PUSH1 0x0 DUP3 RETURNDATACOPY RETURNDATASIZE PUSH1 0x1F NOT PUSH1 0x1F DUP3 ADD AND DUP3 ADD DUP1 PUSH1 0x40 MSTORE POP DUP2 ADD SWAP1 PUSH2 0x10BE SWAP2 SWAP1 PUSH2 0x24F3 JUMP JUMPDEST SWAP1 POP DUP4 DUP6 EQ PUSH2 0x1102 JUMPI PUSH1 0x40 MLOAD PUSH32 0x8C379A000000000000000000000000000000000000000000000000000000000 DUP2 MSTORE PUSH1 0x4 ADD PUSH2 0x10F9 SWAP1 PUSH2 0x261A JUMP JUMPDEST PUSH1 0x40 MLOAD DUP1 SWAP2 SUB SWAP1 REVERT JUMPDEST PUSH1 0x0 ISZERO ISZERO DUP2 PUSH1 0x80 ADD MLOAD ISZERO ISZERO EQ PUSH2 0x114D JUMPI PUSH1 0x40 MLOAD PUSH32 0x8C379A000000000000000000000000000000000000000000000000000000000 DUP2 MSTORE PUSH1 0x4 ADD PUSH2 0x1144 SWAP1 PUSH2 0x2588 JUMP JUMPDEST PUSH1 0x40 MLOAD DUP1 SWAP2 SUB SWAP1 REVERT JUMPDEST PUSH2 0x1158 DUP7 DUP7 DUP6 PUSH2 0x1790 JUMP JUMPDEST CALLER PUSH1 0x9 PUSH1 0x0 DUP9 DUP2 MSTORE PUSH1 0x20 ADD SWAP1 DUP2 MSTORE PUSH1 0x20 ADD PUSH1 0x0 KECCAK256 PUSH1 0x3 ADD PUSH1 0x0 PUSH2 0x100 EXP DUP2 SLOAD DUP2 PUSH20 0xFFFFFFFFFFFFFFFFFFFFFFFFFFFFFFFFFFFFFFFF MUL NOT AND SWAP1 DUP4 PUSH20 0xFFFFFFFFFFFFFFFFFFFFFFFFFFFFFFFFFFFFFFFF AND MUL OR SWAP1 SSTORE POP PUSH1 0x0 PUSH1 0x9 PUSH1 0x0 DUP9 DUP2 MSTORE PUSH1 0x20 ADD SWAP1 DUP2 MSTORE PUSH1 0x20 ADD PUSH1 0x0 KECCAK256 PUSH1 0x5 ADD PUSH1 0x0 PUSH2 0x100 EXP DUP2 SLOAD DUP2 PUSH1 0xFF MUL NOT AND SWAP1 DUP4 PUSH1 0x1 DUP2 GT ISZERO PUSH2 0x11E7 JUMPI PUSH2 0x11E6 PUSH2 0x1C74 JUMP JUMPDEST JUMPDEST MUL OR SWAP1 SSTORE POP PUSH2 0x11F6 PUSH1 0x8 PUSH2 0x16B4 JUMP JUMPDEST CALLER PUSH20 0xFFFFFFFFFFFFFFFFFFFFFFFFFFFFFFFFFFFFFFFF AND DUP3 PUSH20 0xFFFFFFFFFFFFFFFFFFFFFFFFFFFFFFFFFFFFFFFF AND DUP5 PUSH32 0x551327AEE12D0A8B3EDE8D0E3182A40A5FF3ED9F1811DD622915DB30B609B7DF DUP10 DUP9 TIMESTAMP PUSH1 0x40 MLOAD PUSH2 0x1258 SWAP4 SWAP3 SWAP2 SWAP1 PUSH2 0x2686 JUMP JUMPDEST PUSH1 0x40 MLOAD DUP1 SWAP2 SUB SWAP1 LOG4 POP POP POP POP POP POP JUMP JUMPDEST PUSH1 0x5 PUSH1 0x15 SWAP1 SLOAD SWAP1 PUSH2 0x100 EXP SWAP1 DIV PUSH1 0xFF AND DUP2 JUMP JUMPDEST PUSH1 0x4 PUSH1 0x0 SWAP1 SLOAD SWAP1 PUSH2 0x100 EXP SWAP1 DIV PUSH20 0xFFFFFFFFFFFFFFFFFFFFFFFFFFFFFFFFFFFFFFFF AND DUP2 JUMP JUMPDEST PUSH2 0x12A9 PUSH2 0x1990 JUMP JUMPDEST PUSH1 0x9 PUSH1 0x0 DUP4 DUP2 MSTORE PUSH1 0x20 ADD SWAP1 DUP2 MSTORE PUSH1 0x20 ADD PUSH1 0x0 KECCAK256 PUSH1 0x40 MLOAD DUP1 PUSH1 0xC0 ADD PUSH1 0x40 MSTORE SWAP1 DUP2 PUSH1 0x0 DUP3 ADD SLOAD DUP2 MSTORE PUSH1 0x20 ADD PUSH1 0x1 DUP3 ADD SLOAD DUP2 MSTORE PUSH1 0x20 ADD PUSH1 0x2 DUP3 ADD PUSH1 0x0 SWAP1 SLOAD SWAP1 PUSH2 0x100 EXP SWAP1 DIV PUSH20 0xFFFFFFFFFFFFFFFFFFFFFFFFFFFFFFFFFFFFFFFF AND PUSH20 0xFFFFFFFFFFFFFFFFFFFFFFFFFFFFFFFFFFFFFFFF AND PUSH20 0xFFFFFFFFFFFFFFFFFFFFFFFFFFFFFFFFFFFFFFFF AND DUP2 MSTORE PUSH1 0x20 ADD PUSH1 0x3 DUP3 ADD PUSH1 0x0 SWAP1 SLOAD SWAP1 PUSH2 0x100 EXP SWAP1 DIV PUSH20 0xFFFFFFFFFFFFFFFFFFFFFFFFFFFFFFFFFFFFFFFF AND PUSH20 0xFFFFFFFFFFFFFFFFFFFFFFFFFFFFFFFFFFFFFFFF AND PUSH20 0xFFFFFFFFFFFFFFFFFFFFFFFFFFFFFFFFFFFFFFFF AND DUP2 MSTORE PUSH1 0x20 ADD PUSH1 0x4 DUP3 ADD SLOAD DUP2 MSTORE PUSH1 0x20 ADD PUSH1 0x5 DUP3 ADD PUSH1 0x0 SWAP1 SLOAD SWAP1 PUSH2 0x100 EXP SWAP1 DIV PUSH1 0xFF AND PUSH1 0x1 DUP2 GT ISZERO PUSH2 0x13B6 JUMPI PUSH2 0x13B5 PUSH2 0x1C74 JUMP JUMPDEST JUMPDEST PUSH1 0x1 DUP2 GT ISZERO PUSH2 0x13C8 JUMPI PUSH2 0x13C7 PUSH2 0x1C74 JUMP JUMPDEST JUMPDEST DUP2 MSTORE POP POP SWAP1 POP SWAP2 SWAP1 POP JUMP JUMPDEST PUSH2 0x13DB PUSH2 0x1579 JUMP JUMPDEST PUSH20 0xFFFFFFFFFFFFFFFFFFFFFFFFFFFFFFFFFFFFFFFF AND PUSH2 0x13F9 PUSH2 0xF80 JUMP JUMPDEST PUSH20 0xFFFFFFFFFFFFFFFFFFFFFFFFFFFFFFFFFFFFFFFF AND EQ PUSH2 0x144F JUMPI PUSH1 0x40 MLOAD PUSH32 0x8C379A000000000000000000000000000000000000000000000000000000000 DUP2 MSTORE PUSH1 0x4 ADD PUSH2 0x1446 SWAP1 PUSH2 0x2146 JUMP JUMPDEST PUSH1 0x40 MLOAD DUP1 SWAP2 SUB SWAP1 REVERT JUMPDEST PUSH1 0x0 PUSH20 0xFFFFFFFFFFFFFFFFFFFFFFFFFFFFFFFFFFFFFFFF AND DUP2 PUSH20 0xFFFFFFFFFFFFFFFFFFFFFFFFFFFFFFFFFFFFFFFF AND SUB PUSH2 0x14BE JUMPI PUSH1 0x40 MLOAD PUSH32 0x8C379A000000000000000000000000000000000000000000000000000000000 DUP2 MSTORE PUSH1 0x4 ADD PUSH2 0x14B5 SWAP1 PUSH2 0x2742 JUMP JUMPDEST PUSH1 0x40 MLOAD DUP1 SWAP2 SUB SWAP1 REVERT JUMPDEST PUSH2 0x14C7 DUP2 PUSH2 0x16CA JUMP JUMPDEST POP JUMP JUMPDEST PUSH1 0x5 PUSH1 0x0 SWAP1 SLOAD SWAP1 PUSH2 0x100 EXP SWAP1 DIV PUSH20 0xFFFFFFFFFFFFFFFFFFFFFFFFFFFFFFFFFFFFFFFF AND DUP2 JUMP JUMPDEST PUSH1 0x1 PUSH1 0x20 MSTORE DUP1 PUSH1 0x0 MSTORE PUSH1 0x40 PUSH1 0x0 KECCAK256 PUSH1 0x0 SWAP2 POP SWAP1 POP DUP1 PUSH1 0x0 ADD SLOAD SWAP1 DUP1 PUSH1 0x1 ADD SLOAD SWAP1 DUP1 PUSH1 0x2 ADD PUSH1 0x0 SWAP1 SLOAD SWAP1 PUSH2 0x100 EXP SWAP1 DIV PUSH20 0xFFFFFFFFFFFFFFFFFFFFFFFFFFFFFFFFFFFFFFFF AND SWAP1 DUP1 PUSH1 0x3 ADD PUSH1 0x0 SWAP1 SLOAD SWAP1 PUSH2 0x100 EXP SWAP1 DIV PUSH20 0xFFFFFFFFFFFFFFFFFFFFFFFFFFFFFFFFFFFFFFFF AND SWAP1 DUP1 PUSH1 0x4 ADD SLOAD SWAP1 DUP1 PUSH1 0x5 ADD PUSH1 0x0 SWAP1 SLOAD SWAP1 PUSH2 0x100 EXP SWAP1 DIV PUSH1 0xFF AND SWAP1 POP DUP7 JUMP JUMPDEST PUSH1 0x0 CALLER SWAP1 POP SWAP1 JUMP JUMPDEST PUSH1 0x4 PUSH1 0x0 SWAP1 SLOAD SWAP1 PUSH2 0x100 EXP SWAP1 DIV PUSH20 0xFFFFFFFFFFFFFFFFFFFFFFFFFFFFFFFFFFFFFFFF AND PUSH20 0xFFFFFFFFFFFFFFFFFFFFFFFFFFFFFFFFFFFFFFFF AND PUSH4 0xC1E9518A CALLER ADDRESS DUP5 PUSH1 0x40 MLOAD DUP5 PUSH4 0xFFFFFFFF AND PUSH1 0xE0 SHL DUP2 MSTORE PUSH1 0x4 ADD PUSH2 0x15E0 SWAP4 SWAP3 SWAP2 SWAP1 PUSH2 0x2783 JUMP JUMPDEST PUSH1 0x0 PUSH1 0x40 MLOAD DUP1 DUP4 SUB DUP2 PUSH1 0x0 DUP8 DUP1 EXTCODESIZE ISZERO DUP1 ISZERO PUSH2 0x15FA JUMPI PUSH1 0x0 DUP1 REVERT JUMPDEST POP GAS CALL ISZERO DUP1 ISZERO PUSH2 0x160E JUMPI RETURNDATASIZE PUSH1 0x0 DUP1 RETURNDATACOPY RETURNDATASIZE PUSH1 0x0 REVERT JUMPDEST POP POP POP POP PUSH1 0x5 PUSH1 0x0 SWAP1 SLOAD SWAP1 PUSH2 0x100 EXP SWAP1 DIV PUSH20 0xFFFFFFFFFFFFFFFFFFFFFFFFFFFFFFFFFFFFFFFF AND PUSH20 0xFFFFFFFFFFFFFFFFFFFFFFFFFFFFFFFFFFFFFFFF AND PUSH4 0x23B872DD CALLER ADDRESS DUP5 PUSH1 0x40 MLOAD DUP5 PUSH4 0xFFFFFFFF AND PUSH1 0xE0 SHL DUP2 MSTORE PUSH1 0x4 ADD PUSH2 0x1671 SWAP4 SWAP3 SWAP2 SWAP1 PUSH2 0x209A JUMP JUMPDEST PUSH1 0x0 PUSH1 0x40 MLOAD DUP1 DUP4 SUB DUP2 PUSH1 0x0 DUP8 DUP1 EXTCODESIZE ISZERO DUP1 ISZERO PUSH2 0x168B JUMPI PUSH1 0x0 DUP1 REVERT JUMPDEST POP GAS CALL ISZERO DUP1 ISZERO PUSH2 0x169F JUMPI RETURNDATASIZE PUSH1 0x0 DUP1 RETURNDATACOPY RETURNDATASIZE PUSH1 0x0 REVERT JUMPDEST POP POP POP POP POP JUMP JUMPDEST PUSH1 0x0 DUP2 PUSH1 0x0 ADD SLOAD SWAP1 POP SWAP2 SWAP1 POP JUMP JUMPDEST PUSH1 0x1 DUP2 PUSH1 0x0 ADD PUSH1 0x0 DUP3 DUP3 SLOAD ADD SWAP3 POP POP DUP2 SWAP1 SSTORE POP POP JUMP JUMPDEST PUSH1 0x0 PUSH1 0x6 PUSH1 0x0 SWAP1 SLOAD SWAP1 PUSH2 0x100 EXP SWAP1 DIV PUSH20 0xFFFFFFFFFFFFFFFFFFFFFFFFFFFFFFFFFFFFFFFF AND SWAP1 POP DUP2 PUSH1 0x6 PUSH1 0x0 PUSH2 0x100 EXP DUP2 SLOAD DUP2 PUSH20 0xFFFFFFFFFFFFFFFFFFFFFFFFFFFFFFFFFFFFFFFF MUL NOT AND SWAP1 DUP4 PUSH20 0xFFFFFFFFFFFFFFFFFFFFFFFFFFFFFFFFFFFFFFFF AND MUL OR SWAP1 SSTORE POP DUP2 PUSH20 0xFFFFFFFFFFFFFFFFFFFFFFFFFFFFFFFFFFFFFFFF AND DUP2 PUSH20 0xFFFFFFFFFFFFFFFFFFFFFFFFFFFFFFFFFFFFFFFF AND PUSH32 0x8BE0079C531659141344CD1FD0A4F28419497F9722A3DAAFE3B4186F6B6457E0 PUSH1 0x40 MLOAD PUSH1 0x40 MLOAD DUP1 SWAP2 SUB SWAP1 LOG3 POP POP JUMP JUMPDEST PUSH1 0x3 PUSH1 0x0 SWAP1 SLOAD SWAP1 PUSH2 0x100 EXP SWAP1 DIV PUSH20 0xFFFFFFFFFFFFFFFFFFFFFFFFFFFFFFFFFFFFFFFF AND PUSH20 0xFFFFFFFFFFFFFFFFFFFFFFFFFFFFFFFFFFFFFFFF AND PUSH4 0x23B872DD CALLER PUSH1 0x9 PUSH1 0x0 DUP8 DUP2 MSTORE PUSH1 0x20 ADD SWAP1 DUP2 MSTORE PUSH1 0x20 ADD PUSH1 0x0 KECCAK256 PUSH1 0x2 ADD PUSH1 0x0 SWAP1 SLOAD SWAP1 PUSH2 0x100 EXP SWAP1 DIV PUSH20 0xFFFFFFFFFFFFFFFFFFFFFFFFFFFFFFFFFFFFFFFF AND DUP6 PUSH1 0x40 MLOAD DUP5 PUSH4 0xFFFFFFFF AND PUSH1 0xE0 SHL DUP2 MSTORE PUSH1 0x4 ADD PUSH2 0x1825 SWAP4 SWAP3 SWAP2 SWAP1 PUSH2 0x209A JUMP JUMPDEST PUSH1 0x20 PUSH1 0x40 MLOAD DUP1 DUP4 SUB DUP2 PUSH1 0x0 DUP8 GAS CALL ISZERO DUP1 ISZERO PUSH2 0x1844 JUMPI RETURNDATASIZE PUSH1 0x0 DUP1 RETURNDATACOPY RETURNDATASIZE PUSH1 0x0 REVERT JUMPDEST POP POP POP POP PUSH1 0x40 MLOAD RETURNDATASIZE PUSH1 0x1F NOT PUSH1 0x1F DUP3 ADD AND DUP3 ADD DUP1 PUSH1 0x40 MSTORE POP DUP2 ADD SWAP1 PUSH2 0x1868 SWAP2 SWAP1 PUSH2 0x27BA JUMP JUMPDEST POP PUSH1 0x4 PUSH1 0x0 SWAP1 SLOAD SWAP1 PUSH2 0x100 EXP SWAP1 DIV PUSH20 0xFFFFFFFFFFFFFFFFFFFFFFFFFFFFFFFFFFFFFFFF AND PUSH20 0xFFFFFFFFFFFFFFFFFFFFFFFFFFFFFFFFFFFFFFFF AND PUSH4 0xC1E9518A CALLER ADDRESS DUP5 PUSH1 0x40 MLOAD DUP5 PUSH4 0xFFFFFFFF AND PUSH1 0xE0 SHL DUP2 MSTORE PUSH1 0x4 ADD PUSH2 0x18C8 SWAP4 SWAP3 SWAP2 SWAP1 PUSH2 0x209A JUMP JUMPDEST PUSH1 0x0 PUSH1 0x40 MLOAD DUP1 DUP4 SUB DUP2 PUSH1 0x0 DUP8 DUP1 EXTCODESIZE ISZERO DUP1 ISZERO PUSH2 0x18E2 JUMPI PUSH1 0x0 DUP1 REVERT JUMPDEST POP GAS CALL ISZERO DUP1 ISZERO PUSH2 0x18F6 JUMPI RETURNDATASIZE PUSH1 0x0 DUP1 RETURNDATACOPY RETURNDATASIZE PUSH1 0x0 REVERT JUMPDEST POP POP POP POP PUSH1 0x5 PUSH1 0x0 SWAP1 SLOAD SWAP1 PUSH2 0x100 EXP SWAP1 DIV PUSH20 0xFFFFFFFFFFFFFFFFFFFFFFFFFFFFFFFFFFFFFFFF AND PUSH20 0xFFFFFFFFFFFFFFFFFFFFFFFFFFFFFFFFFFFFFFFF AND PUSH4 0x23B872DD ADDRESS CALLER DUP5 PUSH1 0x40 MLOAD DUP5 PUSH4 0xFFFFFFFF AND PUSH1 0xE0 SHL DUP2 MSTORE PUSH1 0x4 ADD PUSH2 0x1959 SWAP4 SWAP3 SWAP2 SWAP1 PUSH2 0x209A JUMP JUMPDEST PUSH1 0x0 PUSH1 0x40 MLOAD DUP1 DUP4 SUB DUP2 PUSH1 0x0 DUP8 DUP1 EXTCODESIZE ISZERO DUP1 ISZERO PUSH2 0x1973 JUMPI PUSH1 0x0 DUP1 REVERT JUMPDEST POP GAS CALL ISZERO DUP1 ISZERO PUSH2 0x1987 JUMPI RETURNDATASIZE PUSH1 0x0 DUP1 RETURNDATACOPY RETURNDATASIZE PUSH1 0x0 REVERT JUMPDEST POP POP POP POP POP POP POP JUMP JUMPDEST PUSH1 0x40 MLOAD DUP1 PUSH1 0xC0 ADD PUSH1 0x40 MSTORE DUP1 PUSH1 0x0 DUP2 MSTORE PUSH1 0x20 ADD PUSH1 0x0 DUP2 MSTORE PUSH1 0x20 ADD PUSH1 0x0 PUSH20 0xFFFFFFFFFFFFFFFFFFFFFFFFFFFFFFFFFFFFFFFF AND DUP2 MSTORE PUSH1 0x20 ADD PUSH1 0x0 PUSH20 0xFFFFFFFFFFFFFFFFFFFFFFFFFFFFFFFFFFFFFFFF AND DUP2 MSTORE PUSH1 0x20 ADD PUSH1 0x0 DUP2 MSTORE PUSH1 0x20 ADD PUSH1 0x0 PUSH1 0x1 DUP2 GT ISZERO PUSH2 0x19FE JUMPI PUSH2 0x19FD PUSH2 0x1C74 JUMP JUMPDEST JUMPDEST DUP2 MSTORE POP SWAP1 JUMP JUMPDEST PUSH1 0x0 PUSH1 0x40 MLOAD SWAP1 POP SWAP1 JUMP JUMPDEST PUSH1 0x0 DUP1 REVERT JUMPDEST PUSH1 0x0 DUP1 REVERT JUMPDEST PUSH1 0x0 DUP2 SWAP1 POP SWAP2 SWAP1 POP JUMP JUMPDEST PUSH2 0x1A2B DUP2 PUSH2 0x1A18 JUMP JUMPDEST DUP2 EQ PUSH2 0x1A36 JUMPI PUSH1 0x0 DUP1 REVERT JUMPDEST POP JUMP JUMPDEST PUSH1 0x0 DUP2 CALLDATALOAD SWAP1 POP PUSH2 0x1A48 DUP2 PUSH2 0x1A22 JUMP JUMPDEST SWAP3 SWAP2 POP POP JUMP JUMPDEST PUSH1 0x0 PUSH1 0x20 DUP3 DUP5 SUB SLT ISZERO PUSH2 0x1A64 JUMPI PUSH2 0x1A63 PUSH2 0x1A0E JUMP JUMPDEST JUMPDEST PUSH1 0x0 PUSH2 0x1A72 DUP5 DUP3 DUP6 ADD PUSH2 0x1A39 JUMP JUMPDEST SWAP2 POP POP SWAP3 SWAP2 POP POP JUMP JUMPDEST PUSH1 0x0 PUSH20 0xFFFFFFFFFFFFFFFFFFFFFFFFFFFFFFFFFFFFFFFF DUP3 AND SWAP1 POP SWAP2 SWAP1 POP JUMP JUMPDEST PUSH1 0x0 PUSH2 0x1AA6 DUP3 PUSH2 0x1A7B JUMP JUMPDEST SWAP1 POP SWAP2 SWAP1 POP JUMP JUMPDEST PUSH2 0x1AB6 DUP2 PUSH2 0x1A9B JUMP JUMPDEST DUP2 EQ PUSH2 0x1AC1 JUMPI PUSH1 0x0 DUP1 REVERT JUMPDEST POP JUMP JUMPDEST PUSH1 0x0 DUP2 CALLDATALOAD SWAP1 POP PUSH2 0x1AD3 DUP2 PUSH2 0x1AAD JUMP JUMPDEST SWAP3 SWAP2 POP POP JUMP JUMPDEST PUSH1 0x0 PUSH1 0x20 DUP3 DUP5 SUB SLT ISZERO PUSH2 0x1AEF JUMPI PUSH2 0x1AEE PUSH2 0x1A0E JUMP JUMPDEST JUMPDEST PUSH1 0x0 PUSH2 0x1AFD DUP5 DUP3 DUP6 ADD PUSH2 0x1AC4 JUMP JUMPDEST SWAP2 POP POP SWAP3 SWAP2 POP POP JUMP JUMPDEST PUSH1 0x0 PUSH32 0xFFFFFFFF00000000000000000000000000000000000000000000000000000000 DUP3 AND SWAP1 POP SWAP2 SWAP1 POP JUMP JUMPDEST PUSH2 0x1B3B DUP2 PUSH2 0x1B06 JUMP JUMPDEST DUP3 MSTORE POP POP JUMP JUMPDEST PUSH1 0x0 PUSH1 0x20 DUP3 ADD SWAP1 POP PUSH2 0x1B56 PUSH1 0x0 DUP4 ADD DUP5 PUSH2 0x1B32 JUMP JUMPDEST SWAP3 SWAP2 POP POP JUMP JUMPDEST PUSH1 0x0 DUP1 PUSH1 0x40 DUP4 DUP6 SUB SLT ISZERO PUSH2 0x1B73 JUMPI PUSH2 0x1B72 PUSH2 0x1A0E JUMP JUMPDEST JUMPDEST PUSH1 0x0 PUSH2 0x1B81 DUP6 DUP3 DUP7 ADD PUSH2 0x1A39 JUMP JUMPDEST SWAP3 POP POP PUSH1 0x20 PUSH2 0x1B92 DUP6 DUP3 DUP7 ADD PUSH2 0x1A39 JUMP JUMPDEST SWAP2 POP POP SWAP3 POP SWAP3 SWAP1 POP JUMP JUMPDEST PUSH1 0x0 DUP2 SWAP1 POP SWAP2 SWAP1 POP JUMP JUMPDEST PUSH1 0x0 PUSH2 0x1BC1 PUSH2 0x1BBC PUSH2 0x1BB7 DUP5 PUSH2 0x1A7B JUMP JUMPDEST PUSH2 0x1B9C JUMP JUMPDEST PUSH2 0x1A7B JUMP JUMPDEST SWAP1 POP SWAP2 SWAP1 POP JUMP JUMPDEST PUSH1 0x0 PUSH2 0x1BD3 DUP3 PUSH2 0x1BA6 JUMP JUMPDEST SWAP1 POP SWAP2 SWAP1 POP JUMP JUMPDEST PUSH1 0x0 PUSH2 0x1BE5 DUP3 PUSH2 0x1BC8 JUMP JUMPDEST SWAP1 POP SWAP2 SWAP1 POP JUMP JUMPDEST PUSH2 0x1BF5 DUP2 PUSH2 0x1BDA JUMP JUMPDEST DUP3 MSTORE POP POP JUMP JUMPDEST PUSH1 0x0 PUSH1 0x20 DUP3 ADD SWAP1 POP PUSH2 0x1C10 PUSH1 0x0 DUP4 ADD DUP5 PUSH2 0x1BEC JUMP JUMPDEST SWAP3 SWAP2 POP POP JUMP JUMPDEST PUSH1 0x0 DUP1 PUSH1 0x40 DUP4 DUP6 SUB SLT ISZERO PUSH2 0x1C2D JUMPI PUSH2 0x1C2C PUSH2 0x1A0E JUMP JUMPDEST JUMPDEST PUSH1 0x0 PUSH2 0x1C3B DUP6 DUP3 DUP7 ADD PUSH2 0x1AC4 JUMP JUMPDEST SWAP3 POP POP PUSH1 0x20 PUSH2 0x1C4C DUP6 DUP3 DUP7 ADD PUSH2 0x1A39 JUMP JUMPDEST SWAP2 POP POP SWAP3 POP SWAP3 SWAP1 POP JUMP JUMPDEST PUSH2 0x1C5F DUP2 PUSH2 0x1A18 JUMP JUMPDEST DUP3 MSTORE POP POP JUMP JUMPDEST PUSH2 0x1C6E DUP2 PUSH2 0x1A9B JUMP JUMPDEST DUP3 MSTORE POP POP JUMP JUMPDEST PUSH32 0x4E487B7100000000000000000000000000000000000000000000000000000000 PUSH1 0x0 MSTORE PUSH1 0x21 PUSH1 0x4 MSTORE PUSH1 0x24 PUSH1 0x0 REVERT JUMPDEST PUSH1 0x2 DUP2 LT PUSH2 0x1CB4 JUMPI PUSH2 0x1CB3 PUSH2 0x1C74 JUMP JUMPDEST JUMPDEST POP JUMP JUMPDEST PUSH1 0x0 DUP2 SWAP1 POP PUSH2 0x1CC5 DUP3 PUSH2 0x1CA3 JUMP JUMPDEST SWAP2 SWAP1 POP JUMP JUMPDEST PUSH1 0x0 PUSH2 0x1CD5 DUP3 PUSH2 0x1CB7 JUMP JUMPDEST SWAP1 POP SWAP2 SWAP1 POP JUMP JUMPDEST PUSH2 0x1CE5 DUP2 PUSH2 0x1CCA JUMP JUMPDEST DUP3 MSTORE POP POP JUMP JUMPDEST PUSH1 0x0 PUSH1 0xC0 DUP3 ADD SWAP1 POP PUSH2 0x1D00 PUSH1 0x0 DUP4 ADD DUP10 PUSH2 0x1C56 JUMP JUMPDEST PUSH2 0x1D0D PUSH1 0x20 DUP4 ADD DUP9 PUSH2 0x1C56 JUMP JUMPDEST PUSH2 0x1D1A PUSH1 0x40 DUP4 ADD DUP8 PUSH2 0x1C65 JUMP JUMPDEST PUSH2 0x1D27 PUSH1 0x60 DUP4 ADD DUP7 PUSH2 0x1C65 JUMP JUMPDEST PUSH2 0x1D34 PUSH1 0x80 DUP4 ADD DUP6 PUSH2 0x1C56 JUMP JUMPDEST PUSH2 0x1D41 PUSH1 0xA0 DUP4 ADD DUP5 PUSH2 0x1CDC JUMP JUMPDEST SWAP8 SWAP7 POP POP POP POP POP POP POP JUMP JUMPDEST PUSH1 0x0 PUSH1 0xFF DUP3 AND SWAP1 POP SWAP2 SWAP1 POP JUMP JUMPDEST PUSH2 0x1D62 DUP2 PUSH2 0x1D4C JUMP JUMPDEST DUP3 MSTORE POP POP JUMP JUMPDEST PUSH1 0x0 PUSH1 0x20 DUP3 ADD SWAP1 POP PUSH2 0x1D7D PUSH1 0x0 DUP4 ADD DUP5 PUSH2 0x1D59 JUMP JUMPDEST SWAP3 SWAP2 POP POP JUMP JUMPDEST PUSH1 0x0 PUSH1 0x20 DUP3 ADD SWAP1 POP PUSH2 0x1D98 PUSH1 0x0 DUP4 ADD DUP5 PUSH2 0x1C65 JUMP JUMPDEST SWAP3 SWAP2 POP POP JUMP JUMPDEST PUSH1 0x0 PUSH2 0x1DA9 DUP3 PUSH2 0x1BC8 JUMP JUMPDEST SWAP1 POP SWAP2 SWAP1 POP JUMP JUMPDEST PUSH2 0x1DB9 DUP2 PUSH2 0x1D9E JUMP JUMPDEST DUP3 MSTORE POP POP JUMP JUMPDEST PUSH1 0x0 PUSH1 0x20 DUP3 ADD SWAP1 POP PUSH2 0x1DD4 PUSH1 0x0 DUP4 ADD DUP5 PUSH2 0x1DB0 JUMP JUMPDEST SWAP3 SWAP2 POP POP JUMP JUMPDEST PUSH2 0x1DE3 DUP2 PUSH2 0x1A18 JUMP JUMPDEST DUP3 MSTORE POP POP JUMP JUMPDEST PUSH2 0x1DF2 DUP2 PUSH2 0x1A9B JUMP JUMPDEST DUP3 MSTORE POP POP JUMP JUMPDEST PUSH2 0x1E01 DUP2 PUSH2 0x1CCA JUMP JUMPDEST DUP3 MSTORE POP POP JUMP JUMPDEST PUSH1 0xC0 DUP3 ADD PUSH1 0x0 DUP3 ADD MLOAD PUSH2 0x1E1D PUSH1 0x0 DUP6 ADD DUP3 PUSH2 0x1DDA JUMP JUMPDEST POP PUSH1 0x20 DUP3 ADD MLOAD PUSH2 0x1E30 PUSH1 0x20 DUP6 ADD DUP3 PUSH2 0x1DDA JUMP JUMPDEST POP PUSH1 0x40 DUP3 ADD MLOAD PUSH2 0x1E43 PUSH1 0x40 DUP6 ADD DUP3 PUSH2 0x1DE9 JUMP JUMPDEST POP PUSH1 0x60 DUP3 ADD MLOAD PUSH2 0x1E56 PUSH1 0x60 DUP6 ADD DUP3 PUSH2 0x1DE9 JUMP JUMPDEST POP PUSH1 0x80 DUP3 ADD MLOAD PUSH2 0x1E69 PUSH1 0x80 DUP6 ADD DUP3 PUSH2 0x1DDA JUMP JUMPDEST POP PUSH1 0xA0 DUP3 ADD MLOAD PUSH2 0x1E7C PUSH1 0xA0 DUP6 ADD DUP3 PUSH2 0x1DF8 JUMP JUMPDEST POP POP POP POP JUMP JUMPDEST PUSH1 0x0 PUSH1 0xC0 DUP3 ADD SWAP1 POP PUSH2 0x1E97 PUSH1 0x0 DUP4 ADD DUP5 PUSH2 0x1E07 JUMP JUMPDEST SWAP3 SWAP2 POP POP JUMP JUMPDEST PUSH1 0x0 PUSH2 0x1EA8 DUP3 PUSH2 0x1BC8 JUMP JUMPDEST SWAP1 POP SWAP2 SWAP1 POP JUMP JUMPDEST PUSH2 0x1EB8 DUP2 PUSH2 0x1E9D JUMP JUMPDEST DUP3 MSTORE POP POP JUMP JUMPDEST PUSH1 0x0 PUSH1 0x20 DUP3 ADD SWAP1 POP PUSH2 0x1ED3 PUSH1 0x0 DUP4 ADD DUP5 PUSH2 0x1EAF JUMP JUMPDEST SWAP3 SWAP2 POP POP JUMP JUMPDEST PUSH1 0x0 DUP3 DUP3 MSTORE PUSH1 0x20 DUP3 ADD SWAP1 POP SWAP3 SWAP2 POP POP JUMP JUMPDEST PUSH32 0x4173736574206E6F74207075626C697368656400000000000000000000000000 PUSH1 0x0 DUP3 ADD MSTORE POP JUMP JUMPDEST PUSH1 0x0 PUSH2 0x1F20 PUSH1 0x13 DUP4 PUSH2 0x1ED9 JUMP JUMPDEST SWAP2 POP PUSH2 0x1F2B DUP3 PUSH2 0x1EEA JUMP JUMPDEST PUSH1 0x20 DUP3 ADD SWAP1 POP SWAP2 SWAP1 POP JUMP JUMPDEST PUSH1 0x0 PUSH1 0x20 DUP3 ADD SWAP1 POP DUP2 DUP2 SUB PUSH1 0x0 DUP4 ADD MSTORE PUSH2 0x1F4F DUP2 PUSH2 0x1F13 JUMP JUMPDEST SWAP1 POP SWAP2 SWAP1 POP JUMP JUMPDEST PUSH32 0x41737365742064656C6973746564000000000000000000000000000000000000 PUSH1 0x0 DUP3 ADD MSTORE POP JUMP JUMPDEST PUSH1 0x0 PUSH2 0x1F8C PUSH1 0xE DUP4 PUSH2 0x1ED9 JUMP JUMPDEST SWAP2 POP PUSH2 0x1F97 DUP3 PUSH2 0x1F56 JUMP JUMPDEST PUSH1 0x20 DUP3 ADD SWAP1 POP SWAP2 SWAP1 POP JUMP JUMPDEST PUSH1 0x0 PUSH1 0x20 DUP3 ADD SWAP1 POP DUP2 DUP2 SUB PUSH1 0x0 DUP4 ADD MSTORE PUSH2 0x1FBB DUP2 PUSH2 0x1F7F JUMP JUMPDEST SWAP1 POP SWAP2 SWAP1 POP JUMP JUMPDEST PUSH32 0x496E76616C696420616464726573730000000000000000000000000000000000 PUSH1 0x0 DUP3 ADD MSTORE POP JUMP JUMPDEST PUSH1 0x0 PUSH2 0x1FF8 PUSH1 0xF DUP4 PUSH2 0x1ED9 JUMP JUMPDEST SWAP2 POP PUSH2 0x2003 DUP3 PUSH2 0x1FC2 JUMP JUMPDEST PUSH1 0x20 DUP3 ADD SWAP1 POP SWAP2 SWAP1 POP JUMP JUMPDEST PUSH1 0x0 PUSH1 0x20 DUP3 ADD SWAP1 POP DUP2 DUP2 SUB PUSH1 0x0 DUP4 ADD MSTORE PUSH2 0x2027 DUP2 PUSH2 0x1FEB JUMP JUMPDEST SWAP1 POP SWAP2 SWAP1 POP JUMP JUMPDEST PUSH32 0x4F6E6C792073656C6C65722063616E2064656C69737400000000000000000000 PUSH1 0x0 DUP3 ADD MSTORE POP JUMP JUMPDEST PUSH1 0x0 PUSH2 0x2064 PUSH1 0x16 DUP4 PUSH2 0x1ED9 JUMP JUMPDEST SWAP2 POP PUSH2 0x206F DUP3 PUSH2 0x202E JUMP JUMPDEST PUSH1 0x20 DUP3 ADD SWAP1 POP SWAP2 SWAP1 POP JUMP JUMPDEST PUSH1 0x0 PUSH1 0x20 DUP3 ADD SWAP1 POP DUP2 DUP2 SUB PUSH1 0x0 DUP4 ADD MSTORE PUSH2 0x2093 DUP2 PUSH2 0x2057 JUMP JUMPDEST SWAP1 POP SWAP2 SWAP1 POP JUMP JUMPDEST PUSH1 0x0 PUSH1 0x60 DUP3 ADD SWAP1 POP PUSH2 0x20AF PUSH1 0x0 DUP4 ADD DUP7 PUSH2 0x1C65 JUMP JUMPDEST PUSH2 0x20BC PUSH1 0x20 DUP4 ADD DUP6 PUSH2 0x1C65 JUMP JUMPDEST PUSH2 0x20C9 PUSH1 0x40 DUP4 ADD DUP5 PUSH2 0x1C56 JUMP JUMPDEST SWAP5 SWAP4 POP POP POP POP JUMP JUMPDEST PUSH1 0x0 PUSH1 0x40 DUP3 ADD SWAP1 POP PUSH2 0x20E6 PUSH1 0x0 DUP4 ADD DUP6 PUSH2 0x1C56 JUMP JUMPDEST PUSH2 0x20F3 PUSH1 0x20 DUP4 ADD DUP5 PUSH2 0x1C56 JUMP JUMPDEST SWAP4 SWAP3 POP POP POP JUMP JUMPDEST PUSH32 0x4F776E61626C653A2063616C6C6572206973206E6F7420746865206F776E6572 PUSH1 0x0 DUP3 ADD MSTORE POP JUMP JUMPDEST PUSH1 0x0 PUSH2 0x2130 PUSH1 0x20 DUP4 PUSH2 0x1ED9 JUMP JUMPDEST SWAP2 POP PUSH2 0x213B DUP3 PUSH2 0x20FA JUMP JUMPDEST PUSH1 0x20 DUP3 ADD SWAP1 POP SWAP2 SWAP1 POP JUMP JUMPDEST PUSH1 0x0 PUSH1 0x20 DUP3 ADD SWAP1 POP DUP2 DUP2 SUB PUSH1 0x0 DUP4 ADD MSTORE PUSH2 0x215F DUP2 PUSH2 0x2123 JUMP JUMPDEST SWAP1 POP SWAP2 SWAP1 POP JUMP JUMPDEST PUSH32 0x5265656E7472616E637947756172643A207265656E7472616E742063616C6C00 PUSH1 0x0 DUP3 ADD MSTORE POP JUMP JUMPDEST PUSH1 0x0 PUSH2 0x219C PUSH1 0x1F DUP4 PUSH2 0x1ED9 JUMP JUMPDEST SWAP2 POP PUSH2 0x21A7 DUP3 PUSH2 0x2166 JUMP JUMPDEST PUSH1 0x20 DUP3 ADD SWAP1 POP SWAP2 SWAP1 POP JUMP JUMPDEST PUSH1 0x0 PUSH1 0x20 DUP3 ADD SWAP1 POP DUP2 DUP2 SUB PUSH1 0x0 DUP4 ADD MSTORE PUSH2 0x21CB DUP2 PUSH2 0x218F JUMP JUMPDEST SWAP1 POP SWAP2 SWAP1 POP JUMP JUMPDEST PUSH32 0x5072696365206D757374206265206174206C6561737420312077656900000000 PUSH1 0x0 DUP3 ADD MSTORE POP JUMP JUMPDEST PUSH1 0x0 PUSH2 0x2208 PUSH1 0x1C DUP4 PUSH2 0x1ED9 JUMP JUMPDEST SWAP2 POP PUSH2 0x2213 DUP3 PUSH2 0x21D2 JUMP JUMPDEST PUSH1 0x20 DUP3 ADD SWAP1 POP SWAP2 SWAP1 POP JUMP JUMPDEST PUSH1 0x0 PUSH1 0x20 DUP3 ADD SWAP1 POP DUP2 DUP2 SUB PUSH1 0x0 DUP4 ADD MSTORE PUSH2 0x2237 DUP2 PUSH2 0x21FB JUMP JUMPDEST SWAP1 POP SWAP2 SWAP1 POP JUMP JUMPDEST PUSH1 0x0 PUSH1 0x20 DUP3 ADD SWAP1 POP PUSH2 0x2253 PUSH1 0x0 DUP4 ADD DUP5 PUSH2 0x1C56 JUMP JUMPDEST SWAP3 SWAP2 POP POP JUMP JUMPDEST PUSH1 0x0 DUP1 REVERT JUMPDEST PUSH1 0x0 PUSH1 0x1F NOT PUSH1 0x1F DUP4 ADD AND SWAP1 POP SWAP2 SWAP1 POP JUMP JUMPDEST PUSH32 0x4E487B7100000000000000000000000000000000000000000000000000000000 PUSH1 0x0 MSTORE PUSH1 0x41 PUSH1 0x4 MSTORE PUSH1 0x24 PUSH1 0x0 REVERT JUMPDEST PUSH2 0x22A7 DUP3 PUSH2 0x225E JUMP JUMPDEST DUP2 ADD DUP2 DUP2 LT PUSH8 0xFFFFFFFFFFFFFFFF DUP3 GT OR ISZERO PUSH2 0x22C6 JUMPI PUSH2 0x22C5 PUSH2 0x226F JUMP JUMPDEST JUMPDEST DUP1 PUSH1 0x40 MSTORE POP POP POP JUMP JUMPDEST PUSH1 0x0 PUSH2 0x22D9 PUSH2 0x1A04 JUMP JUMPDEST SWAP1 POP PUSH2 0x22E5 DUP3 DUP3 PUSH2 0x229E JUMP JUMPDEST SWAP2 SWAP1 POP JUMP JUMPDEST PUSH1 0x0 DUP1 REVERT JUMPDEST PUSH1 0x0 DUP2 MLOAD SWAP1 POP PUSH2 0x22FE DUP2 PUSH2 0x1A22 JUMP JUMPDEST SWAP3 SWAP2 POP POP JUMP JUMPDEST PUSH1 0x0 DUP2 MLOAD SWAP1 POP PUSH2 0x2313 DUP2 PUSH2 0x1AAD JUMP JUMPDEST SWAP3 SWAP2 POP POP JUMP JUMPDEST PUSH1 0x0 DUP1 REVERT JUMPDEST PUSH1 0x0 DUP1 REVERT JUMPDEST PUSH1 0x0 PUSH8 0xFFFFFFFFFFFFFFFF DUP3 GT ISZERO PUSH2 0x233E JUMPI PUSH2 0x233D PUSH2 0x226F JUMP JUMPDEST JUMPDEST PUSH2 0x2347 DUP3 PUSH2 0x225E JUMP JUMPDEST SWAP1 POP PUSH1 0x20 DUP2 ADD SWAP1 POP SWAP2 SWAP1 POP JUMP JUMPDEST PUSH1 0x0 JUMPDEST DUP4 DUP2 LT ISZERO PUSH2 0x2372 JUMPI DUP1 DUP3 ADD MLOAD DUP2 DUP5 ADD MSTORE PUSH1 0x20 DUP2 ADD SWAP1 POP PUSH2 0x2357 JUMP JUMPDEST DUP4 DUP2 GT ISZERO PUSH2 0x2381 JUMPI PUSH1 0x0 DUP5 DUP5 ADD MSTORE JUMPDEST POP POP POP POP JUMP JUMPDEST PUSH1 0x0 PUSH2 0x239A PUSH2 0x2395 DUP5 PUSH2 0x2323 JUMP JUMPDEST PUSH2 0x22CF JUMP JUMPDEST SWAP1 POP DUP3 DUP2 MSTORE PUSH1 0x20 DUP2 ADD DUP5 DUP5 DUP5 ADD GT ISZERO PUSH2 0x23B6 JUMPI PUSH2 0x23B5 PUSH2 0x231E JUMP JUMPDEST JUMPDEST PUSH2 0x23C1 DUP5 DUP3 DUP6 PUSH2 0x2354 JUMP JUMPDEST POP SWAP4 SWAP3 POP POP POP JUMP JUMPDEST PUSH1 0x0 DUP3 PUSH1 0x1F DUP4 ADD SLT PUSH2 0x23DE JUMPI PUSH2 0x23DD PUSH2 0x2319 JUMP JUMPDEST JUMPDEST DUP2 MLOAD PUSH2 0x23EE DUP5 DUP3 PUSH1 0x20 DUP7 ADD PUSH2 0x2387 JUMP JUMPDEST SWAP2 POP POP SWAP3 SWAP2 POP POP JUMP JUMPDEST PUSH1 0x0 DUP2 ISZERO ISZERO SWAP1 POP SWAP2 SWAP1 POP JUMP JUMPDEST PUSH2 0x240C DUP2 PUSH2 0x23F7 JUMP JUMPDEST DUP2 EQ PUSH2 0x2417 JUMPI PUSH1 0x0 DUP1 REVERT JUMPDEST POP JUMP JUMPDEST PUSH1 0x0 DUP2 MLOAD SWAP1 POP PUSH2 0x2429 DUP2 PUSH2 0x2403 JUMP JUMPDEST SWAP3 SWAP2 POP POP JUMP JUMPDEST PUSH1 0x0 PUSH1 0xA0 DUP3 DUP5 SUB SLT ISZERO PUSH2 0x2445 JUMPI PUSH2 0x2444 PUSH2 0x2259 JUMP JUMPDEST JUMPDEST PUSH2 0x244F PUSH1 0xA0 PUSH2 0x22CF JUMP JUMPDEST SWAP1 POP PUSH1 0x0 PUSH2 0x245F DUP5 DUP3 DUP6 ADD PUSH2 0x22EF JUMP JUMPDEST PUSH1 0x0 DUP4 ADD MSTORE POP PUSH1 0x20 PUSH2 0x2473 DUP5 DUP3 DUP6 ADD PUSH2 0x2304 JUMP JUMPDEST PUSH1 0x20 DUP4 ADD MSTORE POP PUSH1 0x40 DUP3 ADD MLOAD PUSH8 0xFFFFFFFFFFFFFFFF DUP2 GT ISZERO PUSH2 0x2497 JUMPI PUSH2 0x2496 PUSH2 0x22EA JUMP JUMPDEST JUMPDEST PUSH2 0x24A3 DUP5 DUP3 DUP6 ADD PUSH2 0x23C9 JUMP JUMPDEST PUSH1 0x40 DUP4 ADD MSTORE POP PUSH1 0x60 DUP3 ADD MLOAD PUSH8 0xFFFFFFFFFFFFFFFF DUP2 GT ISZERO PUSH2 0x24C7 JUMPI PUSH2 0x24C6 PUSH2 0x22EA JUMP JUMPDEST JUMPDEST PUSH2 0x24D3 DUP5 DUP3 DUP6 ADD PUSH2 0x23C9 JUMP JUMPDEST PUSH1 0x60 DUP4 ADD MSTORE POP PUSH1 0x80 PUSH2 0x24E7 DUP5 DUP3 DUP6 ADD PUSH2 0x241A JUMP JUMPDEST PUSH1 0x80 DUP4 ADD MSTORE POP SWAP3 SWAP2 POP POP JUMP JUMPDEST PUSH1 0x0 PUSH1 0x20 DUP3 DUP5 SUB SLT ISZERO PUSH2 0x2509 JUMPI PUSH2 0x2508 PUSH2 0x1A0E JUMP JUMPDEST JUMPDEST PUSH1 0x0 DUP3 ADD MLOAD PUSH8 0xFFFFFFFFFFFFFFFF DUP2 GT ISZERO PUSH2 0x2527 JUMPI PUSH2 0x2526 PUSH2 0x1A13 JUMP JUMPDEST JUMPDEST PUSH2 0x2533 DUP5 DUP3 DUP6 ADD PUSH2 0x242F JUMP JUMPDEST SWAP2 POP POP SWAP3 SWAP2 POP POP JUMP JUMPDEST PUSH32 0x4974656D206973206E6F7420617661696C61626C65206E6F7720210000000000 PUSH1 0x0 DUP3 ADD MSTORE POP JUMP JUMPDEST PUSH1 0x0 PUSH2 0x2572 PUSH1 0x1B DUP4 PUSH2 0x1ED9 JUMP JUMPDEST SWAP2 POP PUSH2 0x257D DUP3 PUSH2 0x253C JUMP JUMPDEST PUSH1 0x20 DUP3 ADD SWAP1 POP SWAP2 SWAP1 POP JUMP JUMPDEST PUSH1 0x0 PUSH1 0x20 DUP3 ADD SWAP1 POP DUP2 DUP2 SUB PUSH1 0x0 DUP4 ADD MSTORE PUSH2 0x25A1 DUP2 PUSH2 0x2565 JUMP JUMPDEST SWAP1 POP SWAP2 SWAP1 POP JUMP JUMPDEST PUSH32 0x506C65617365207375626D6974207468652061736B696E672070726963652069 PUSH1 0x0 DUP3 ADD MSTORE PUSH32 0x6E206F7264657220746F20636F6D706C65746520746865207075726368617365 PUSH1 0x20 DUP3 ADD MSTORE POP JUMP JUMPDEST PUSH1 0x0 PUSH2 0x2604 PUSH1 0x40 DUP4 PUSH2 0x1ED9 JUMP JUMPDEST SWAP2 POP PUSH2 0x260F DUP3 PUSH2 0x25A8 JUMP JUMPDEST PUSH1 0x40 DUP3 ADD SWAP1 POP SWAP2 SWAP1 POP JUMP JUMPDEST PUSH1 0x0 PUSH1 0x20 DUP3 ADD SWAP1 POP DUP2 DUP2 SUB PUSH1 0x0 DUP4 ADD MSTORE PUSH2 0x2633 DUP2 PUSH2 0x25F7 JUMP JUMPDEST SWAP1 POP SWAP2 SWAP1 POP JUMP JUMPDEST PUSH32 0x5351460000000000000000000000000000000000000000000000000000000000 PUSH1 0x0 DUP3 ADD MSTORE POP JUMP JUMPDEST PUSH1 0x0 PUSH2 0x2670 PUSH1 0x3 DUP4 PUSH2 0x1ED9 JUMP JUMPDEST SWAP2 POP PUSH2 0x267B DUP3 PUSH2 0x263A JUMP JUMPDEST PUSH1 0x20 DUP3 ADD SWAP1 POP SWAP2 SWAP1 POP JUMP JUMPDEST PUSH1 0x0 PUSH1 0x80 DUP3 ADD SWAP1 POP PUSH2 0x269B PUSH1 0x0 DUP4 ADD DUP7 PUSH2 0x1C56 JUMP JUMPDEST PUSH2 0x26A8 PUSH1 0x20 DUP4 ADD DUP6 PUSH2 0x1C56 JUMP JUMPDEST DUP2 DUP2 SUB PUSH1 0x40 DUP4 ADD MSTORE PUSH2 0x26B9 DUP2 PUSH2 0x2663 JUMP JUMPDEST SWAP1 POP PUSH2 0x26C8 PUSH1 0x60 DUP4 ADD DUP5 PUSH2 0x1C56 JUMP JUMPDEST SWAP5 SWAP4 POP POP POP POP JUMP JUMPDEST PUSH32 0x4F776E61626C653A206E6577206F776E657220697320746865207A65726F2061 PUSH1 0x0 DUP3 ADD MSTORE PUSH32 0x6464726573730000000000000000000000000000000000000000000000000000 PUSH1 0x20 DUP3 ADD MSTORE POP JUMP JUMPDEST PUSH1 0x0 PUSH2 0x272C PUSH1 0x26 DUP4 PUSH2 0x1ED9 JUMP JUMPDEST SWAP2 POP PUSH2 0x2737 DUP3 PUSH2 0x26D0 JUMP JUMPDEST PUSH1 0x40 DUP3 ADD SWAP1 POP SWAP2 SWAP1 POP JUMP JUMPDEST PUSH1 0x0 PUSH1 0x20 DUP3 ADD SWAP1 POP DUP2 DUP2 SUB PUSH1 0x0 DUP4 ADD MSTORE PUSH2 0x275B DUP2 PUSH2 0x271F JUMP JUMPDEST SWAP1 POP SWAP2 SWAP1 POP JUMP JUMPDEST PUSH1 0x0 PUSH2 0x276D DUP3 PUSH2 0x1BC8 JUMP JUMPDEST SWAP1 POP SWAP2 SWAP1 POP JUMP JUMPDEST PUSH2 0x277D DUP2 PUSH2 0x2762 JUMP JUMPDEST DUP3 MSTORE POP POP JUMP JUMPDEST PUSH1 0x0 PUSH1 0x60 DUP3 ADD SWAP1 POP PUSH2 0x2798 PUSH1 0x0 DUP4 ADD DUP7 PUSH2 0x2774 JUMP JUMPDEST PUSH2 0x27A5 PUSH1 0x20 DUP4 ADD DUP6 PUSH2 0x1C65 JUMP JUMPDEST PUSH2 0x27B2 PUSH1 0x40 DUP4 ADD DUP5 PUSH2 0x1C56 JUMP JUMPDEST SWAP5 SWAP4 POP POP POP POP JUMP JUMPDEST PUSH1 0x0 PUSH1 0x20 DUP3 DUP5 SUB SLT ISZERO PUSH2 0x27D0 JUMPI PUSH2 0x27CF PUSH2 0x1A0E JUMP JUMPDEST JUMPDEST PUSH1 0x0 PUSH2 0x27DE DUP5 DUP3 DUP6 ADD PUSH2 0x241A JUMP JUMPDEST SWAP2 POP POP SWAP3 SWAP2 POP POP JUMP INVALID LOG2 PUSH5 0x6970667358 0x22 SLT KECCAK256 SWAP5 0xA8 0xE2 0xD8 0xB4 PUSH1 0xE9 PUSH14 0xDA3D0CEA9AC7F6D6FA95833454CD 0xEC 0xBB 0xBC 0xE9 0xB9 PUSH26 0x28C9F8864736F6C634300080D00330000000000000000000000 "
				},
				"gasEstimates": {
					"creation": {
						"codeDepositCost": "2053800",
						"executionCost": "infinite",
						"totalCost": "infinite"
					},
					"external": {
						"ERC721_Interface()": "431",
						"allItems(uint256)": "infinite",
						"antaFeePercent()": "2610",
						"bnbFeePercent()": "2544",
						"createMarketItem(uint256,uint256)": "infinite",
						"createMarketSale(uint256,uint256)": "infinite",
						"delistItem(uint256)": "infinite",
						"factory()": "infinite",
						"getMarketItem(uint256)": "infinite",
						"items(address,uint256)": "infinite",
						"mainNFTs()": "infinite",
						"mainToken()": "infinite",
						"owner()": "2567",
						"renounceOwnership()": "30485",
						"setFactory(address)": "27029",
						"setMainNFT(address)": "27008",
						"setMainToken(address)": "27030",
						"transferOwnership(address)": "30786"
					},
					"internal": {
						"_requireERC721(address)": "infinite",
						"_safeBuyItem(uint256,uint256,uint256)": "infinite",
						"_safeTransferToMarket(uint256)": "infinite",
						"isContract(address)": "infinite"
					}
				},
				"methodIdentifiers": {
					"ERC721_Interface()": "2b4c32be",
					"allItems(uint256)": "ff68fa6e",
					"antaFeePercent()": "b7a60c7e",
					"bnbFeePercent()": "85a8b36c",
					"createMarketItem(uint256,uint256)": "361c1995",
					"createMarketSale(uint256,uint256)": "a1c11ca8",
					"delistItem(uint256)": "10061631",
					"factory()": "c45a0155",
					"getMarketItem(uint256)": "c7be7a49",
					"items(address,uint256)": "5c80a435",
					"mainNFTs()": "f55de0c7",
					"mainToken()": "3fc15f15",
					"owner()": "8da5cb5b",
					"renounceOwnership()": "715018a6",
					"setFactory(address)": "5bb47808",
					"setMainNFT(address)": "15b12494",
					"setMainToken(address)": "27ce464e",
					"transferOwnership(address)": "f2fde38b"
				}
			},
			"storageLayout": {
				"storage": [
					{
						"astId": 409,
						"contract": "contracts/Marketplace2/Marketplace.sol:NFTMarket",
						"label": "_status",
						"offset": 0,
						"slot": "0",
						"type": "t_uint256"
					},
					{
						"astId": 507,
						"contract": "contracts/Marketplace2/Marketplace.sol:NFTMarket",
						"label": "allItems",
						"offset": 0,
						"slot": "1",
						"type": "t_mapping(t_uint256,t_struct(MarketItem)496_storage)"
					},
					{
						"astId": 514,
						"contract": "contracts/Marketplace2/Marketplace.sol:NFTMarket",
						"label": "items",
						"offset": 0,
						"slot": "2",
						"type": "t_mapping(t_address,t_mapping(t_uint256,t_struct(MarketItem)496_storage))"
					},
					{
						"astId": 517,
						"contract": "contracts/Marketplace2/Marketplace.sol:NFTMarket",
						"label": "mainToken",
						"offset": 0,
						"slot": "3",
						"type": "t_contract(IERC20)201"
					},
					{
						"astId": 520,
						"contract": "contracts/Marketplace2/Marketplace.sol:NFTMarket",
						"label": "factory",
						"offset": 0,
						"slot": "4",
						"type": "t_contract(IFactory)478"
					},
					{
						"astId": 523,
						"contract": "contracts/Marketplace2/Marketplace.sol:NFTMarket",
						"label": "mainNFTs",
						"offset": 0,
						"slot": "5",
						"type": "t_contract(IERC721)326"
					},
					{
						"astId": 525,
						"contract": "contracts/Marketplace2/Marketplace.sol:NFTMarket",
						"label": "bnbFeePercent",
						"offset": 20,
						"slot": "5",
						"type": "t_uint8"
					},
					{
						"astId": 527,
						"contract": "contracts/Marketplace2/Marketplace.sol:NFTMarket",
						"label": "antaFeePercent",
						"offset": 21,
						"slot": "5",
						"type": "t_uint8"
					},
					{
						"astId": 27,
						"contract": "contracts/Marketplace2/Marketplace.sol:NFTMarket",
						"label": "_owner",
						"offset": 0,
						"slot": "6",
						"type": "t_address"
					},
					{
						"astId": 595,
						"contract": "contracts/Marketplace2/Marketplace.sol:NFTMarket",
						"label": "_itemIds",
						"offset": 0,
						"slot": "7",
						"type": "t_struct(Counter)331_storage"
					},
					{
						"astId": 598,
						"contract": "contracts/Marketplace2/Marketplace.sol:NFTMarket",
						"label": "_itemsSold",
						"offset": 0,
						"slot": "8",
						"type": "t_struct(Counter)331_storage"
					},
					{
						"astId": 603,
						"contract": "contracts/Marketplace2/Marketplace.sol:NFTMarket",
						"label": "idToMarketItem",
						"offset": 0,
						"slot": "9",
						"type": "t_mapping(t_uint256,t_struct(MarketItem)496_storage)"
					}
				],
				"types": {
					"t_address": {
						"encoding": "inplace",
						"label": "address",
						"numberOfBytes": "20"
					},
					"t_contract(IERC20)201": {
						"encoding": "inplace",
						"label": "contract IERC20",
						"numberOfBytes": "20"
					},
					"t_contract(IERC721)326": {
						"encoding": "inplace",
						"label": "contract IERC721",
						"numberOfBytes": "20"
					},
					"t_contract(IFactory)478": {
						"encoding": "inplace",
						"label": "contract IFactory",
						"numberOfBytes": "20"
					},
					"t_enum(ItemStatus)482": {
						"encoding": "inplace",
						"label": "enum MarketplaceStorage.ItemStatus",
						"numberOfBytes": "1"
					},
					"t_mapping(t_address,t_mapping(t_uint256,t_struct(MarketItem)496_storage))": {
						"encoding": "mapping",
						"key": "t_address",
						"label": "mapping(address => mapping(uint256 => struct MarketplaceStorage.MarketItem))",
						"numberOfBytes": "32",
						"value": "t_mapping(t_uint256,t_struct(MarketItem)496_storage)"
					},
					"t_mapping(t_uint256,t_struct(MarketItem)496_storage)": {
						"encoding": "mapping",
						"key": "t_uint256",
						"label": "mapping(uint256 => struct MarketplaceStorage.MarketItem)",
						"numberOfBytes": "32",
						"value": "t_struct(MarketItem)496_storage"
					},
					"t_struct(Counter)331_storage": {
						"encoding": "inplace",
						"label": "struct Counters.Counter",
						"members": [
							{
								"astId": 330,
								"contract": "contracts/Marketplace2/Marketplace.sol:NFTMarket",
								"label": "_value",
								"offset": 0,
								"slot": "0",
								"type": "t_uint256"
							}
						],
						"numberOfBytes": "32"
					},
					"t_struct(MarketItem)496_storage": {
						"encoding": "inplace",
						"label": "struct MarketplaceStorage.MarketItem",
						"members": [
							{
								"astId": 484,
								"contract": "contracts/Marketplace2/Marketplace.sol:NFTMarket",
								"label": "itemId",
								"offset": 0,
								"slot": "0",
								"type": "t_uint256"
							},
							{
								"astId": 486,
								"contract": "contracts/Marketplace2/Marketplace.sol:NFTMarket",
								"label": "tokenId",
								"offset": 0,
								"slot": "1",
								"type": "t_uint256"
							},
							{
								"astId": 488,
								"contract": "contracts/Marketplace2/Marketplace.sol:NFTMarket",
								"label": "seller",
								"offset": 0,
								"slot": "2",
								"type": "t_address"
							},
							{
								"astId": 490,
								"contract": "contracts/Marketplace2/Marketplace.sol:NFTMarket",
								"label": "owner",
								"offset": 0,
								"slot": "3",
								"type": "t_address"
							},
							{
								"astId": 492,
								"contract": "contracts/Marketplace2/Marketplace.sol:NFTMarket",
								"label": "price",
								"offset": 0,
								"slot": "4",
								"type": "t_uint256"
							},
							{
								"astId": 495,
								"contract": "contracts/Marketplace2/Marketplace.sol:NFTMarket",
								"label": "status",
								"offset": 0,
								"slot": "5",
								"type": "t_enum(ItemStatus)482"
							}
						],
						"numberOfBytes": "192"
					},
					"t_uint256": {
						"encoding": "inplace",
						"label": "uint256",
						"numberOfBytes": "32"
					},
					"t_uint8": {
						"encoding": "inplace",
						"label": "uint8",
						"numberOfBytes": "1"
					}
				}
			},
			"userdoc": {
				"kind": "user",
				"methods": {},
				"version": 1
			}
		}
	}
}