{
	"contracts/Marketplace2/Marketplace.sol": {
		"MarketplaceStorage": {
			"abi": [
				{
					"anonymous": false,
					"inputs": [
						{
							"indexed": false,
							"internalType": "uint256",
							"name": "itemId",
							"type": "uint256"
						},
						{
							"indexed": true,
							"internalType": "uint256",
							"name": "tokenId",
							"type": "uint256"
						},
						{
							"indexed": true,
							"internalType": "address",
							"name": "seller",
							"type": "address"
						},
						{
							"indexed": false,
							"internalType": "uint256",
							"name": "price",
							"type": "uint256"
						},
						{
							"indexed": true,
							"internalType": "address",
							"name": "buyer",
							"type": "address"
						},
						{
							"indexed": false,
							"internalType": "string",
							"name": "currency",
							"type": "string"
						},
						{
							"indexed": false,
							"internalType": "uint256",
							"name": "createdAt",
							"type": "uint256"
						}
					],
					"name": "BuyItemSuccessful",
					"type": "event"
				},
				{
					"anonymous": false,
					"inputs": [
						{
							"indexed": false,
							"internalType": "uint256",
							"name": "id",
							"type": "uint256"
						},
						{
							"indexed": true,
							"internalType": "uint256",
							"name": "assetId",
							"type": "uint256"
						},
						{
							"indexed": true,
							"internalType": "address",
							"name": "delistBy",
							"type": "address"
						},
						{
							"indexed": false,
							"internalType": "uint256",
							"name": "createdAt",
							"type": "uint256"
						}
					],
					"name": "DelistItemSuccessful",
					"type": "event"
				},
				{
					"anonymous": false,
					"inputs": [
						{
							"indexed": true,
							"internalType": "uint256",
							"name": "itemId",
							"type": "uint256"
						},
						{
							"indexed": true,
							"internalType": "uint256",
							"name": "tokenId",
							"type": "uint256"
						},
						{
							"indexed": false,
							"internalType": "address",
							"name": "seller",
							"type": "address"
						},
						{
							"indexed": false,
							"internalType": "address",
							"name": "owner",
							"type": "address"
						},
						{
							"indexed": false,
							"internalType": "uint256",
							"name": "price",
							"type": "uint256"
						}
					],
					"name": "MarketItemCreated",
					"type": "event"
				},
				{
					"anonymous": false,
					"inputs": [
						{
							"indexed": false,
							"internalType": "address",
							"name": "nftAddress",
							"type": "address"
						},
						{
							"indexed": false,
							"internalType": "bytes32",
							"name": "id",
							"type": "bytes32"
						},
						{
							"indexed": true,
							"internalType": "uint256",
							"name": "assetId",
							"type": "uint256"
						},
						{
							"indexed": false,
							"internalType": "uint256",
							"name": "price",
							"type": "uint256"
						},
						{
							"indexed": true,
							"internalType": "address",
							"name": "seller",
							"type": "address"
						},
						{
							"indexed": false,
							"internalType": "string",
							"name": "currency",
							"type": "string"
						},
						{
							"indexed": false,
							"internalType": "uint256",
							"name": "createdAt",
							"type": "uint256"
						}
					],
					"name": "SellItemSuccessful",
					"type": "event"
				},
				{
					"inputs": [],
					"name": "ERC721_Interface",
					"outputs": [
						{
							"internalType": "bytes4",
							"name": "",
							"type": "bytes4"
						}
					],
					"stateMutability": "view",
					"type": "function"
				},
				{
					"inputs": [
						{
							"internalType": "uint256",
							"name": "",
							"type": "uint256"
						}
					],
					"name": "allItems",
					"outputs": [
						{
							"internalType": "uint256",
							"name": "itemId",
							"type": "uint256"
						},
						{
							"internalType": "uint256",
							"name": "tokenId",
							"type": "uint256"
						},
						{
							"internalType": "address",
							"name": "seller",
							"type": "address"
						},
						{
							"internalType": "address",
							"name": "owner",
							"type": "address"
						},
						{
							"internalType": "uint256",
							"name": "price",
							"type": "uint256"
						},
						{
							"internalType": "enum MarketplaceStorage.ItemStatus",
							"name": "status",
							"type": "uint8"
						}
					],
					"stateMutability": "view",
					"type": "function"
				},
				{
					"inputs": [],
					"name": "antaFeePercent",
					"outputs": [
						{
							"internalType": "uint8",
							"name": "",
							"type": "uint8"
						}
					],
					"stateMutability": "view",
					"type": "function"
				},
				{
					"inputs": [],
					"name": "bnbFeePercent",
					"outputs": [
						{
							"internalType": "uint8",
							"name": "",
							"type": "uint8"
						}
					],
					"stateMutability": "view",
					"type": "function"
				},
				{
					"inputs": [],
					"name": "factory",
					"outputs": [
						{
							"internalType": "contract IFactory",
							"name": "",
							"type": "address"
						}
					],
					"stateMutability": "view",
					"type": "function"
				},
				{
					"inputs": [
						{
							"internalType": "address",
							"name": "",
							"type": "address"
						},
						{
							"internalType": "uint256",
							"name": "",
							"type": "uint256"
						}
					],
					"name": "items",
					"outputs": [
						{
							"internalType": "uint256",
							"name": "itemId",
							"type": "uint256"
						},
						{
							"internalType": "uint256",
							"name": "tokenId",
							"type": "uint256"
						},
						{
							"internalType": "address",
							"name": "seller",
							"type": "address"
						},
						{
							"internalType": "address",
							"name": "owner",
							"type": "address"
						},
						{
							"internalType": "uint256",
							"name": "price",
							"type": "uint256"
						},
						{
							"internalType": "enum MarketplaceStorage.ItemStatus",
							"name": "status",
							"type": "uint8"
						}
					],
					"stateMutability": "view",
					"type": "function"
				},
				{
					"inputs": [],
					"name": "mainNFTs",
					"outputs": [
						{
							"internalType": "contract IERC721",
							"name": "",
							"type": "address"
						}
					],
					"stateMutability": "view",
					"type": "function"
				},
				{
					"inputs": [],
					"name": "mainToken",
					"outputs": [
						{
							"internalType": "contract IERC20",
							"name": "",
							"type": "address"
						}
					],
					"stateMutability": "view",
					"type": "function"
				}
			],
			"devdoc": {
				"kind": "dev",
				"methods": {},
				"version": 1
			},
			"evm": {
				"assembly": "    /* \"contracts/Marketplace2/Marketplace.sol\":15667:17106  contract MarketplaceStorage {... */\n  mstore(0x40, 0x80)\n  callvalue\n  dup1\n  iszero\n  tag_1\n  jumpi\n  0x00\n  dup1\n  revert\ntag_1:\n  pop\n  dataSize(sub_0)\n  dup1\n  dataOffset(sub_0)\n  0x00\n  codecopy\n  0x00\n  return\nstop\n\nsub_0: assembly {\n        /* \"contracts/Marketplace2/Marketplace.sol\":15667:17106  contract MarketplaceStorage {... */\n      mstore(0x40, 0x80)\n      callvalue\n      dup1\n      iszero\n      tag_1\n      jumpi\n      0x00\n      dup1\n      revert\n    tag_1:\n      pop\n      jumpi(tag_2, lt(calldatasize, 0x04))\n      shr(0xe0, calldataload(0x00))\n      dup1\n      0xb7a60c7e\n      gt\n      tag_11\n      jumpi\n      dup1\n      0xb7a60c7e\n      eq\n      tag_7\n      jumpi\n      dup1\n      0xc45a0155\n      eq\n      tag_8\n      jumpi\n      dup1\n      0xf55de0c7\n      eq\n      tag_9\n      jumpi\n      dup1\n      0xff68fa6e\n      eq\n      tag_10\n      jumpi\n      jump(tag_2)\n    tag_11:\n      dup1\n      0x2b4c32be\n      eq\n      tag_3\n      jumpi\n      dup1\n      0x3fc15f15\n      eq\n      tag_4\n      jumpi\n      dup1\n      0x5c80a435\n      eq\n      tag_5\n      jumpi\n      dup1\n      0x85a8b36c\n      eq\n      tag_6\n      jumpi\n    tag_2:\n      0x00\n      dup1\n      revert\n        /* \"contracts/Marketplace2/Marketplace.sol\":15911:15971  bytes4 public constant ERC721_Interface = bytes4(0x80ac58cd) */\n    tag_3:\n      tag_12\n      tag_13\n      jump\t// in\n    tag_12:\n      mload(0x40)\n      tag_14\n      swap2\n      swap1\n      tag_15\n      jump\t// in\n    tag_14:\n      mload(0x40)\n      dup1\n      swap2\n      sub\n      swap1\n      return\n        /* \"contracts/Marketplace2/Marketplace.sol\":16172:16195  IERC20 public mainToken */\n    tag_4:\n      tag_16\n      tag_17\n      jump\t// in\n    tag_16:\n      mload(0x40)\n      tag_18\n      swap2\n      swap1\n      tag_19\n      jump\t// in\n    tag_18:\n      mload(0x40)\n      dup1\n      swap2\n      sub\n      swap1\n      return\n        /* \"contracts/Marketplace2/Marketplace.sol\":16102:16165  mapping(address => mapping(uint256 => MarketItem)) public items */\n    tag_5:\n      tag_20\n      0x04\n      dup1\n      calldatasize\n      sub\n      dup2\n      add\n      swap1\n      tag_21\n      swap2\n      swap1\n      tag_22\n      jump\t// in\n    tag_21:\n      tag_23\n      jump\t// in\n    tag_20:\n      mload(0x40)\n      tag_24\n      swap7\n      swap6\n      swap5\n      swap4\n      swap3\n      swap2\n      swap1\n      tag_25\n      jump\t// in\n    tag_24:\n      mload(0x40)\n      dup1\n      swap2\n      sub\n      swap1\n      return\n        /* \"contracts/Marketplace2/Marketplace.sol\":16260:16286  uint8 public bnbFeePercent */\n    tag_6:\n      tag_26\n      tag_27\n      jump\t// in\n    tag_26:\n      mload(0x40)\n      tag_28\n      swap2\n      swap1\n      tag_29\n      jump\t// in\n    tag_28:\n      mload(0x40)\n      dup1\n      swap2\n      sub\n      swap1\n      return\n        /* \"contracts/Marketplace2/Marketplace.sol\":16292:16319  uint8 public antaFeePercent */\n    tag_7:\n      tag_30\n      tag_31\n      jump\t// in\n    tag_30:\n      mload(0x40)\n      tag_32\n      swap2\n      swap1\n      tag_29\n      jump\t// in\n    tag_32:\n      mload(0x40)\n      dup1\n      swap2\n      sub\n      swap1\n      return\n        /* \"contracts/Marketplace2/Marketplace.sol\":16201:16224  IFactory public factory */\n    tag_8:\n      tag_33\n      tag_34\n      jump\t// in\n    tag_33:\n      mload(0x40)\n      tag_35\n      swap2\n      swap1\n      tag_36\n      jump\t// in\n    tag_35:\n      mload(0x40)\n      dup1\n      swap2\n      sub\n      swap1\n      return\n        /* \"contracts/Marketplace2/Marketplace.sol\":16230:16253  IERC721 public mainNFTs */\n    tag_9:\n      tag_37\n      tag_38\n      jump\t// in\n    tag_37:\n      mload(0x40)\n      tag_39\n      swap2\n      swap1\n      tag_40\n      jump\t// in\n    tag_39:\n      mload(0x40)\n      dup1\n      swap2\n      sub\n      swap1\n      return\n        /* \"contracts/Marketplace2/Marketplace.sol\":15978:16025  mapping (uint256 => MarketItem) public allItems */\n    tag_10:\n      tag_41\n      0x04\n      dup1\n      calldatasize\n      sub\n      dup2\n      add\n      swap1\n      tag_42\n      swap2\n      swap1\n      tag_43\n      jump\t// in\n    tag_42:\n      tag_44\n      jump\t// in\n    tag_41:\n      mload(0x40)\n      tag_45\n      swap7\n      swap6\n      swap5\n      swap4\n      swap3\n      swap2\n      swap1\n      tag_25\n      jump\t// in\n    tag_45:\n      mload(0x40)\n      dup1\n      swap2\n      sub\n      swap1\n      return\n        /* \"contracts/Marketplace2/Marketplace.sol\":15911:15971  bytes4 public constant ERC721_Interface = bytes4(0x80ac58cd) */\n    tag_13:\n        /* \"contracts/Marketplace2/Marketplace.sol\":15960:15970  0x80ac58cd */\n      0x80ac58cd\n        /* \"contracts/Marketplace2/Marketplace.sol\":15953:15971  bytes4(0x80ac58cd) */\n      0xe0\n      shl\n        /* \"contracts/Marketplace2/Marketplace.sol\":15911:15971  bytes4 public constant ERC721_Interface = bytes4(0x80ac58cd) */\n      dup2\n      jump\t// out\n        /* \"contracts/Marketplace2/Marketplace.sol\":16172:16195  IERC20 public mainToken */\n    tag_17:\n      0x02\n      0x00\n      swap1\n      sload\n      swap1\n      0x0100\n      exp\n      swap1\n      div\n      0xffffffffffffffffffffffffffffffffffffffff\n      and\n      dup2\n      jump\t// out\n        /* \"contracts/Marketplace2/Marketplace.sol\":16102:16165  mapping(address => mapping(uint256 => MarketItem)) public items */\n    tag_23:\n      mstore(0x20, 0x01)\n      dup2\n      0x00\n      mstore\n      mstore(0x20, keccak256(0x00, 0x40))\n      dup1\n      0x00\n      mstore\n      keccak256(0x00, 0x40)\n      0x00\n      swap2\n      pop\n      swap2\n      pop\n      pop\n      dup1\n      0x00\n      add\n      sload\n      swap1\n      dup1\n      0x01\n      add\n      sload\n      swap1\n      dup1\n      0x02\n      add\n      0x00\n      swap1\n      sload\n      swap1\n      0x0100\n      exp\n      swap1\n      div\n      0xffffffffffffffffffffffffffffffffffffffff\n      and\n      swap1\n      dup1\n      0x03\n      add\n      0x00\n      swap1\n      sload\n      swap1\n      0x0100\n      exp\n      swap1\n      div\n      0xffffffffffffffffffffffffffffffffffffffff\n      and\n      swap1\n      dup1\n      0x04\n      add\n      sload\n      swap1\n      dup1\n      0x05\n      add\n      0x00\n      swap1\n      sload\n      swap1\n      0x0100\n      exp\n      swap1\n      div\n      0xff\n      and\n      swap1\n      pop\n      dup7\n      jump\t// out\n        /* \"contracts/Marketplace2/Marketplace.sol\":16260:16286  uint8 public bnbFeePercent */\n    tag_27:\n      0x04\n      0x14\n      swap1\n      sload\n      swap1\n      0x0100\n      exp\n      swap1\n      div\n      0xff\n      and\n      dup2\n      jump\t// out\n        /* \"contracts/Marketplace2/Marketplace.sol\":16292:16319  uint8 public antaFeePercent */\n    tag_31:\n      0x04\n      0x15\n      swap1\n      sload\n      swap1\n      0x0100\n      exp\n      swap1\n      div\n      0xff\n      and\n      dup2\n      jump\t// out\n        /* \"contracts/Marketplace2/Marketplace.sol\":16201:16224  IFactory public factory */\n    tag_34:\n      0x03\n      0x00\n      swap1\n      sload\n      swap1\n      0x0100\n      exp\n      swap1\n      div\n      0xffffffffffffffffffffffffffffffffffffffff\n      and\n      dup2\n      jump\t// out\n        /* \"contracts/Marketplace2/Marketplace.sol\":16230:16253  IERC721 public mainNFTs */\n    tag_38:\n      0x04\n      0x00\n      swap1\n      sload\n      swap1\n      0x0100\n      exp\n      swap1\n      div\n      0xffffffffffffffffffffffffffffffffffffffff\n      and\n      dup2\n      jump\t// out\n        /* \"contracts/Marketplace2/Marketplace.sol\":15978:16025  mapping (uint256 => MarketItem) public allItems */\n    tag_44:\n      mstore(0x20, 0x00)\n      dup1\n      0x00\n      mstore\n      keccak256(0x00, 0x40)\n      0x00\n      swap2\n      pop\n      swap1\n      pop\n      dup1\n      0x00\n      add\n      sload\n      swap1\n      dup1\n      0x01\n      add\n      sload\n      swap1\n      dup1\n      0x02\n      add\n      0x00\n      swap1\n      sload\n      swap1\n      0x0100\n      exp\n      swap1\n      div\n      0xffffffffffffffffffffffffffffffffffffffff\n      and\n      swap1\n      dup1\n      0x03\n      add\n      0x00\n      swap1\n      sload\n      swap1\n      0x0100\n      exp\n      swap1\n      div\n      0xffffffffffffffffffffffffffffffffffffffff\n      and\n      swap1\n      dup1\n      0x04\n      add\n      sload\n      swap1\n      dup1\n      0x05\n      add\n      0x00\n      swap1\n      sload\n      swap1\n      0x0100\n      exp\n      swap1\n      div\n      0xff\n      and\n      swap1\n      pop\n      dup7\n      jump\t// out\n        /* \"#utility.yul\":7:156   */\n    tag_46:\n        /* \"#utility.yul\":43:50   */\n      0x00\n        /* \"#utility.yul\":83:149   */\n      0xffffffff00000000000000000000000000000000000000000000000000000000\n        /* \"#utility.yul\":76:81   */\n      dup3\n        /* \"#utility.yul\":72:150   */\n      and\n        /* \"#utility.yul\":61:150   */\n      swap1\n      pop\n        /* \"#utility.yul\":7:156   */\n      swap2\n      swap1\n      pop\n      jump\t// out\n        /* \"#utility.yul\":162:277   */\n    tag_47:\n        /* \"#utility.yul\":247:270   */\n      tag_79\n        /* \"#utility.yul\":264:269   */\n      dup2\n        /* \"#utility.yul\":247:270   */\n      tag_46\n      jump\t// in\n    tag_79:\n        /* \"#utility.yul\":242:245   */\n      dup3\n        /* \"#utility.yul\":235:271   */\n      mstore\n        /* \"#utility.yul\":162:277   */\n      pop\n      pop\n      jump\t// out\n        /* \"#utility.yul\":283:501   */\n    tag_15:\n        /* \"#utility.yul\":374:378   */\n      0x00\n        /* \"#utility.yul\":412:414   */\n      0x20\n        /* \"#utility.yul\":401:410   */\n      dup3\n        /* \"#utility.yul\":397:415   */\n      add\n        /* \"#utility.yul\":389:415   */\n      swap1\n      pop\n        /* \"#utility.yul\":425:494   */\n      tag_81\n        /* \"#utility.yul\":491:492   */\n      0x00\n        /* \"#utility.yul\":480:489   */\n      dup4\n        /* \"#utility.yul\":476:493   */\n      add\n        /* \"#utility.yul\":467:473   */\n      dup5\n        /* \"#utility.yul\":425:494   */\n      tag_47\n      jump\t// in\n    tag_81:\n        /* \"#utility.yul\":283:501   */\n      swap3\n      swap2\n      pop\n      pop\n      jump\t// out\n        /* \"#utility.yul\":507:633   */\n    tag_48:\n        /* \"#utility.yul\":544:551   */\n      0x00\n        /* \"#utility.yul\":584:626   */\n      0xffffffffffffffffffffffffffffffffffffffff\n        /* \"#utility.yul\":577:582   */\n      dup3\n        /* \"#utility.yul\":573:627   */\n      and\n        /* \"#utility.yul\":562:627   */\n      swap1\n      pop\n        /* \"#utility.yul\":507:633   */\n      swap2\n      swap1\n      pop\n      jump\t// out\n        /* \"#utility.yul\":639:699   */\n    tag_49:\n        /* \"#utility.yul\":667:670   */\n      0x00\n        /* \"#utility.yul\":688:693   */\n      dup2\n        /* \"#utility.yul\":681:693   */\n      swap1\n      pop\n        /* \"#utility.yul\":639:699   */\n      swap2\n      swap1\n      pop\n      jump\t// out\n        /* \"#utility.yul\":705:847   */\n    tag_50:\n        /* \"#utility.yul\":755:764   */\n      0x00\n        /* \"#utility.yul\":788:841   */\n      tag_85\n        /* \"#utility.yul\":806:840   */\n      tag_86\n        /* \"#utility.yul\":815:839   */\n      tag_87\n        /* \"#utility.yul\":833:838   */\n      dup5\n        /* \"#utility.yul\":815:839   */\n      tag_48\n      jump\t// in\n    tag_87:\n        /* \"#utility.yul\":806:840   */\n      tag_49\n      jump\t// in\n    tag_86:\n        /* \"#utility.yul\":788:841   */\n      tag_48\n      jump\t// in\n    tag_85:\n        /* \"#utility.yul\":775:841   */\n      swap1\n      pop\n        /* \"#utility.yul\":705:847   */\n      swap2\n      swap1\n      pop\n      jump\t// out\n        /* \"#utility.yul\":853:979   */\n    tag_51:\n        /* \"#utility.yul\":903:912   */\n      0x00\n        /* \"#utility.yul\":936:973   */\n      tag_89\n        /* \"#utility.yul\":967:972   */\n      dup3\n        /* \"#utility.yul\":936:973   */\n      tag_50\n      jump\t// in\n    tag_89:\n        /* \"#utility.yul\":923:973   */\n      swap1\n      pop\n        /* \"#utility.yul\":853:979   */\n      swap2\n      swap1\n      pop\n      jump\t// out\n        /* \"#utility.yul\":985:1125   */\n    tag_52:\n        /* \"#utility.yul\":1049:1058   */\n      0x00\n        /* \"#utility.yul\":1082:1119   */\n      tag_91\n        /* \"#utility.yul\":1113:1118   */\n      dup3\n        /* \"#utility.yul\":1082:1119   */\n      tag_51\n      jump\t// in\n    tag_91:\n        /* \"#utility.yul\":1069:1119   */\n      swap1\n      pop\n        /* \"#utility.yul\":985:1125   */\n      swap2\n      swap1\n      pop\n      jump\t// out\n        /* \"#utility.yul\":1131:1290   */\n    tag_53:\n        /* \"#utility.yul\":1232:1283   */\n      tag_93\n        /* \"#utility.yul\":1277:1282   */\n      dup2\n        /* \"#utility.yul\":1232:1283   */\n      tag_52\n      jump\t// in\n    tag_93:\n        /* \"#utility.yul\":1227:1230   */\n      dup3\n        /* \"#utility.yul\":1220:1284   */\n      mstore\n        /* \"#utility.yul\":1131:1290   */\n      pop\n      pop\n      jump\t// out\n        /* \"#utility.yul\":1296:1546   */\n    tag_19:\n        /* \"#utility.yul\":1403:1407   */\n      0x00\n        /* \"#utility.yul\":1441:1443   */\n      0x20\n        /* \"#utility.yul\":1430:1439   */\n      dup3\n        /* \"#utility.yul\":1426:1444   */\n      add\n        /* \"#utility.yul\":1418:1444   */\n      swap1\n      pop\n        /* \"#utility.yul\":1454:1539   */\n      tag_95\n        /* \"#utility.yul\":1536:1537   */\n      0x00\n        /* \"#utility.yul\":1525:1534   */\n      dup4\n        /* \"#utility.yul\":1521:1538   */\n      add\n        /* \"#utility.yul\":1512:1518   */\n      dup5\n        /* \"#utility.yul\":1454:1539   */\n      tag_53\n      jump\t// in\n    tag_95:\n        /* \"#utility.yul\":1296:1546   */\n      swap3\n      swap2\n      pop\n      pop\n      jump\t// out\n        /* \"#utility.yul\":1633:1750   */\n    tag_55:\n        /* \"#utility.yul\":1742:1743   */\n      0x00\n        /* \"#utility.yul\":1739:1740   */\n      dup1\n        /* \"#utility.yul\":1732:1744   */\n      revert\n        /* \"#utility.yul\":1879:1975   */\n    tag_57:\n        /* \"#utility.yul\":1916:1923   */\n      0x00\n        /* \"#utility.yul\":1945:1969   */\n      tag_100\n        /* \"#utility.yul\":1963:1968   */\n      dup3\n        /* \"#utility.yul\":1945:1969   */\n      tag_48\n      jump\t// in\n    tag_100:\n        /* \"#utility.yul\":1934:1969   */\n      swap1\n      pop\n        /* \"#utility.yul\":1879:1975   */\n      swap2\n      swap1\n      pop\n      jump\t// out\n        /* \"#utility.yul\":1981:2103   */\n    tag_58:\n        /* \"#utility.yul\":2054:2078   */\n      tag_102\n        /* \"#utility.yul\":2072:2077   */\n      dup2\n        /* \"#utility.yul\":2054:2078   */\n      tag_57\n      jump\t// in\n    tag_102:\n        /* \"#utility.yul\":2047:2052   */\n      dup2\n        /* \"#utility.yul\":2044:2079   */\n      eq\n        /* \"#utility.yul\":2034:2097   */\n      tag_103\n      jumpi\n        /* \"#utility.yul\":2093:2094   */\n      0x00\n        /* \"#utility.yul\":2090:2091   */\n      dup1\n        /* \"#utility.yul\":2083:2095   */\n      revert\n        /* \"#utility.yul\":2034:2097   */\n    tag_103:\n        /* \"#utility.yul\":1981:2103   */\n      pop\n      jump\t// out\n        /* \"#utility.yul\":2109:2248   */\n    tag_59:\n        /* \"#utility.yul\":2155:2160   */\n      0x00\n        /* \"#utility.yul\":2193:2199   */\n      dup2\n        /* \"#utility.yul\":2180:2200   */\n      calldataload\n        /* \"#utility.yul\":2171:2200   */\n      swap1\n      pop\n        /* \"#utility.yul\":2209:2242   */\n      tag_105\n        /* \"#utility.yul\":2236:2241   */\n      dup2\n        /* \"#utility.yul\":2209:2242   */\n      tag_58\n      jump\t// in\n    tag_105:\n        /* \"#utility.yul\":2109:2248   */\n      swap3\n      swap2\n      pop\n      pop\n      jump\t// out\n        /* \"#utility.yul\":2254:2331   */\n    tag_60:\n        /* \"#utility.yul\":2291:2298   */\n      0x00\n        /* \"#utility.yul\":2320:2325   */\n      dup2\n        /* \"#utility.yul\":2309:2325   */\n      swap1\n      pop\n        /* \"#utility.yul\":2254:2331   */\n      swap2\n      swap1\n      pop\n      jump\t// out\n        /* \"#utility.yul\":2337:2459   */\n    tag_61:\n        /* \"#utility.yul\":2410:2434   */\n      tag_108\n        /* \"#utility.yul\":2428:2433   */\n      dup2\n        /* \"#utility.yul\":2410:2434   */\n      tag_60\n      jump\t// in\n    tag_108:\n        /* \"#utility.yul\":2403:2408   */\n      dup2\n        /* \"#utility.yul\":2400:2435   */\n      eq\n        /* \"#utility.yul\":2390:2453   */\n      tag_109\n      jumpi\n        /* \"#utility.yul\":2449:2450   */\n      0x00\n        /* \"#utility.yul\":2446:2447   */\n      dup1\n        /* \"#utility.yul\":2439:2451   */\n      revert\n        /* \"#utility.yul\":2390:2453   */\n    tag_109:\n        /* \"#utility.yul\":2337:2459   */\n      pop\n      jump\t// out\n        /* \"#utility.yul\":2465:2604   */\n    tag_62:\n        /* \"#utility.yul\":2511:2516   */\n      0x00\n        /* \"#utility.yul\":2549:2555   */\n      dup2\n        /* \"#utility.yul\":2536:2556   */\n      calldataload\n        /* \"#utility.yul\":2527:2556   */\n      swap1\n      pop\n        /* \"#utility.yul\":2565:2598   */\n      tag_111\n        /* \"#utility.yul\":2592:2597   */\n      dup2\n        /* \"#utility.yul\":2565:2598   */\n      tag_61\n      jump\t// in\n    tag_111:\n        /* \"#utility.yul\":2465:2604   */\n      swap3\n      swap2\n      pop\n      pop\n      jump\t// out\n        /* \"#utility.yul\":2610:3084   */\n    tag_22:\n        /* \"#utility.yul\":2678:2684   */\n      0x00\n        /* \"#utility.yul\":2686:2692   */\n      dup1\n        /* \"#utility.yul\":2735:2737   */\n      0x40\n        /* \"#utility.yul\":2723:2732   */\n      dup4\n        /* \"#utility.yul\":2714:2721   */\n      dup6\n        /* \"#utility.yul\":2710:2733   */\n      sub\n        /* \"#utility.yul\":2706:2738   */\n      slt\n        /* \"#utility.yul\":2703:2822   */\n      iszero\n      tag_113\n      jumpi\n        /* \"#utility.yul\":2741:2820   */\n      tag_114\n      tag_55\n      jump\t// in\n    tag_114:\n        /* \"#utility.yul\":2703:2822   */\n    tag_113:\n        /* \"#utility.yul\":2861:2862   */\n      0x00\n        /* \"#utility.yul\":2886:2939   */\n      tag_115\n        /* \"#utility.yul\":2931:2938   */\n      dup6\n        /* \"#utility.yul\":2922:2928   */\n      dup3\n        /* \"#utility.yul\":2911:2920   */\n      dup7\n        /* \"#utility.yul\":2907:2929   */\n      add\n        /* \"#utility.yul\":2886:2939   */\n      tag_59\n      jump\t// in\n    tag_115:\n        /* \"#utility.yul\":2876:2939   */\n      swap3\n      pop\n        /* \"#utility.yul\":2832:2949   */\n      pop\n        /* \"#utility.yul\":2988:2990   */\n      0x20\n        /* \"#utility.yul\":3014:3067   */\n      tag_116\n        /* \"#utility.yul\":3059:3066   */\n      dup6\n        /* \"#utility.yul\":3050:3056   */\n      dup3\n        /* \"#utility.yul\":3039:3048   */\n      dup7\n        /* \"#utility.yul\":3035:3057   */\n      add\n        /* \"#utility.yul\":3014:3067   */\n      tag_62\n      jump\t// in\n    tag_116:\n        /* \"#utility.yul\":3004:3067   */\n      swap2\n      pop\n        /* \"#utility.yul\":2959:3077   */\n      pop\n        /* \"#utility.yul\":2610:3084   */\n      swap3\n      pop\n      swap3\n      swap1\n      pop\n      jump\t// out\n        /* \"#utility.yul\":3090:3208   */\n    tag_63:\n        /* \"#utility.yul\":3177:3201   */\n      tag_118\n        /* \"#utility.yul\":3195:3200   */\n      dup2\n        /* \"#utility.yul\":3177:3201   */\n      tag_60\n      jump\t// in\n    tag_118:\n        /* \"#utility.yul\":3172:3175   */\n      dup3\n        /* \"#utility.yul\":3165:3202   */\n      mstore\n        /* \"#utility.yul\":3090:3208   */\n      pop\n      pop\n      jump\t// out\n        /* \"#utility.yul\":3214:3332   */\n    tag_64:\n        /* \"#utility.yul\":3301:3325   */\n      tag_120\n        /* \"#utility.yul\":3319:3324   */\n      dup2\n        /* \"#utility.yul\":3301:3325   */\n      tag_57\n      jump\t// in\n    tag_120:\n        /* \"#utility.yul\":3296:3299   */\n      dup3\n        /* \"#utility.yul\":3289:3326   */\n      mstore\n        /* \"#utility.yul\":3214:3332   */\n      pop\n      pop\n      jump\t// out\n        /* \"#utility.yul\":3338:3518   */\n    tag_65:\n        /* \"#utility.yul\":3386:3463   */\n      0x4e487b7100000000000000000000000000000000000000000000000000000000\n        /* \"#utility.yul\":3383:3384   */\n      0x00\n        /* \"#utility.yul\":3376:3464   */\n      mstore\n        /* \"#utility.yul\":3483:3487   */\n      0x21\n        /* \"#utility.yul\":3480:3481   */\n      0x04\n        /* \"#utility.yul\":3473:3488   */\n      mstore\n        /* \"#utility.yul\":3507:3511   */\n      0x24\n        /* \"#utility.yul\":3504:3505   */\n      0x00\n        /* \"#utility.yul\":3497:3512   */\n      revert\n        /* \"#utility.yul\":3524:3643   */\n    tag_66:\n        /* \"#utility.yul\":3611:3612   */\n      0x02\n        /* \"#utility.yul\":3604:3609   */\n      dup2\n        /* \"#utility.yul\":3601:3613   */\n      lt\n        /* \"#utility.yul\":3591:3637   */\n      tag_123\n      jumpi\n        /* \"#utility.yul\":3617:3635   */\n      tag_124\n      tag_65\n      jump\t// in\n    tag_124:\n        /* \"#utility.yul\":3591:3637   */\n    tag_123:\n        /* \"#utility.yul\":3524:3643   */\n      pop\n      jump\t// out\n        /* \"#utility.yul\":3649:3788   */\n    tag_67:\n        /* \"#utility.yul\":3700:3707   */\n      0x00\n        /* \"#utility.yul\":3729:3734   */\n      dup2\n        /* \"#utility.yul\":3718:3734   */\n      swap1\n      pop\n        /* \"#utility.yul\":3735:3782   */\n      tag_126\n        /* \"#utility.yul\":3776:3781   */\n      dup3\n        /* \"#utility.yul\":3735:3782   */\n      tag_66\n      jump\t// in\n    tag_126:\n        /* \"#utility.yul\":3649:3788   */\n      swap2\n      swap1\n      pop\n      jump\t// out\n        /* \"#utility.yul\":3794:3933   */\n    tag_68:\n        /* \"#utility.yul\":3856:3865   */\n      0x00\n        /* \"#utility.yul\":3889:3927   */\n      tag_128\n        /* \"#utility.yul\":3921:3926   */\n      dup3\n        /* \"#utility.yul\":3889:3927   */\n      tag_67\n      jump\t// in\n    tag_128:\n        /* \"#utility.yul\":3876:3927   */\n      swap1\n      pop\n        /* \"#utility.yul\":3794:3933   */\n      swap2\n      swap1\n      pop\n      jump\t// out\n        /* \"#utility.yul\":3939:4094   */\n    tag_69:\n        /* \"#utility.yul\":4038:4087   */\n      tag_130\n        /* \"#utility.yul\":4081:4086   */\n      dup2\n        /* \"#utility.yul\":4038:4087   */\n      tag_68\n      jump\t// in\n    tag_130:\n        /* \"#utility.yul\":4033:4036   */\n      dup3\n        /* \"#utility.yul\":4026:4088   */\n      mstore\n        /* \"#utility.yul\":3939:4094   */\n      pop\n      pop\n      jump\t// out\n        /* \"#utility.yul\":4100:4899   */\n    tag_25:\n        /* \"#utility.yul\":4345:4349   */\n      0x00\n        /* \"#utility.yul\":4383:4386   */\n      0xc0\n        /* \"#utility.yul\":4372:4381   */\n      dup3\n        /* \"#utility.yul\":4368:4387   */\n      add\n        /* \"#utility.yul\":4360:4387   */\n      swap1\n      pop\n        /* \"#utility.yul\":4397:4468   */\n      tag_132\n        /* \"#utility.yul\":4465:4466   */\n      0x00\n        /* \"#utility.yul\":4454:4463   */\n      dup4\n        /* \"#utility.yul\":4450:4467   */\n      add\n        /* \"#utility.yul\":4441:4447   */\n      dup10\n        /* \"#utility.yul\":4397:4468   */\n      tag_63\n      jump\t// in\n    tag_132:\n        /* \"#utility.yul\":4478:4550   */\n      tag_133\n        /* \"#utility.yul\":4546:4548   */\n      0x20\n        /* \"#utility.yul\":4535:4544   */\n      dup4\n        /* \"#utility.yul\":4531:4549   */\n      add\n        /* \"#utility.yul\":4522:4528   */\n      dup9\n        /* \"#utility.yul\":4478:4550   */\n      tag_63\n      jump\t// in\n    tag_133:\n        /* \"#utility.yul\":4560:4632   */\n      tag_134\n        /* \"#utility.yul\":4628:4630   */\n      0x40\n        /* \"#utility.yul\":4617:4626   */\n      dup4\n        /* \"#utility.yul\":4613:4631   */\n      add\n        /* \"#utility.yul\":4604:4610   */\n      dup8\n        /* \"#utility.yul\":4560:4632   */\n      tag_64\n      jump\t// in\n    tag_134:\n        /* \"#utility.yul\":4642:4714   */\n      tag_135\n        /* \"#utility.yul\":4710:4712   */\n      0x60\n        /* \"#utility.yul\":4699:4708   */\n      dup4\n        /* \"#utility.yul\":4695:4713   */\n      add\n        /* \"#utility.yul\":4686:4692   */\n      dup7\n        /* \"#utility.yul\":4642:4714   */\n      tag_64\n      jump\t// in\n    tag_135:\n        /* \"#utility.yul\":4724:4797   */\n      tag_136\n        /* \"#utility.yul\":4792:4795   */\n      0x80\n        /* \"#utility.yul\":4781:4790   */\n      dup4\n        /* \"#utility.yul\":4777:4796   */\n      add\n        /* \"#utility.yul\":4768:4774   */\n      dup6\n        /* \"#utility.yul\":4724:4797   */\n      tag_63\n      jump\t// in\n    tag_136:\n        /* \"#utility.yul\":4807:4892   */\n      tag_137\n        /* \"#utility.yul\":4887:4890   */\n      0xa0\n        /* \"#utility.yul\":4876:4885   */\n      dup4\n        /* \"#utility.yul\":4872:4891   */\n      add\n        /* \"#utility.yul\":4863:4869   */\n      dup5\n        /* \"#utility.yul\":4807:4892   */\n      tag_69\n      jump\t// in\n    tag_137:\n        /* \"#utility.yul\":4100:4899   */\n      swap8\n      swap7\n      pop\n      pop\n      pop\n      pop\n      pop\n      pop\n      pop\n      jump\t// out\n        /* \"#utility.yul\":4905:4991   */\n    tag_70:\n        /* \"#utility.yul\":4940:4947   */\n      0x00\n        /* \"#utility.yul\":4980:4984   */\n      0xff\n        /* \"#utility.yul\":4973:4978   */\n      dup3\n        /* \"#utility.yul\":4969:4985   */\n      and\n        /* \"#utility.yul\":4958:4985   */\n      swap1\n      pop\n        /* \"#utility.yul\":4905:4991   */\n      swap2\n      swap1\n      pop\n      jump\t// out\n        /* \"#utility.yul\":4997:5109   */\n    tag_71:\n        /* \"#utility.yul\":5080:5102   */\n      tag_140\n        /* \"#utility.yul\":5096:5101   */\n      dup2\n        /* \"#utility.yul\":5080:5102   */\n      tag_70\n      jump\t// in\n    tag_140:\n        /* \"#utility.yul\":5075:5078   */\n      dup3\n        /* \"#utility.yul\":5068:5103   */\n      mstore\n        /* \"#utility.yul\":4997:5109   */\n      pop\n      pop\n      jump\t// out\n        /* \"#utility.yul\":5115:5329   */\n    tag_29:\n        /* \"#utility.yul\":5204:5208   */\n      0x00\n        /* \"#utility.yul\":5242:5244   */\n      0x20\n        /* \"#utility.yul\":5231:5240   */\n      dup3\n        /* \"#utility.yul\":5227:5245   */\n      add\n        /* \"#utility.yul\":5219:5245   */\n      swap1\n      pop\n        /* \"#utility.yul\":5255:5322   */\n      tag_142\n        /* \"#utility.yul\":5319:5320   */\n      0x00\n        /* \"#utility.yul\":5308:5317   */\n      dup4\n        /* \"#utility.yul\":5304:5321   */\n      add\n        /* \"#utility.yul\":5295:5301   */\n      dup5\n        /* \"#utility.yul\":5255:5322   */\n      tag_71\n      jump\t// in\n    tag_142:\n        /* \"#utility.yul\":5115:5329   */\n      swap3\n      swap2\n      pop\n      pop\n      jump\t// out\n        /* \"#utility.yul\":5335:5477   */\n    tag_72:\n        /* \"#utility.yul\":5401:5410   */\n      0x00\n        /* \"#utility.yul\":5434:5471   */\n      tag_144\n        /* \"#utility.yul\":5465:5470   */\n      dup3\n        /* \"#utility.yul\":5434:5471   */\n      tag_51\n      jump\t// in\n    tag_144:\n        /* \"#utility.yul\":5421:5471   */\n      swap1\n      pop\n        /* \"#utility.yul\":5335:5477   */\n      swap2\n      swap1\n      pop\n      jump\t// out\n        /* \"#utility.yul\":5483:5646   */\n    tag_73:\n        /* \"#utility.yul\":5586:5639   */\n      tag_146\n        /* \"#utility.yul\":5633:5638   */\n      dup2\n        /* \"#utility.yul\":5586:5639   */\n      tag_72\n      jump\t// in\n    tag_146:\n        /* \"#utility.yul\":5581:5584   */\n      dup3\n        /* \"#utility.yul\":5574:5640   */\n      mstore\n        /* \"#utility.yul\":5483:5646   */\n      pop\n      pop\n      jump\t// out\n        /* \"#utility.yul\":5652:5906   */\n    tag_36:\n        /* \"#utility.yul\":5761:5765   */\n      0x00\n        /* \"#utility.yul\":5799:5801   */\n      0x20\n        /* \"#utility.yul\":5788:5797   */\n      dup3\n        /* \"#utility.yul\":5784:5802   */\n      add\n        /* \"#utility.yul\":5776:5802   */\n      swap1\n      pop\n        /* \"#utility.yul\":5812:5899   */\n      tag_148\n        /* \"#utility.yul\":5896:5897   */\n      0x00\n        /* \"#utility.yul\":5885:5894   */\n      dup4\n        /* \"#utility.yul\":5881:5898   */\n      add\n        /* \"#utility.yul\":5872:5878   */\n      dup5\n        /* \"#utility.yul\":5812:5899   */\n      tag_73\n      jump\t// in\n    tag_148:\n        /* \"#utility.yul\":5652:5906   */\n      swap3\n      swap2\n      pop\n      pop\n      jump\t// out\n        /* \"#utility.yul\":5912:6053   */\n    tag_74:\n        /* \"#utility.yul\":5977:5986   */\n      0x00\n        /* \"#utility.yul\":6010:6047   */\n      tag_150\n        /* \"#utility.yul\":6041:6046   */\n      dup3\n        /* \"#utility.yul\":6010:6047   */\n      tag_51\n      jump\t// in\n    tag_150:\n        /* \"#utility.yul\":5997:6047   */\n      swap1\n      pop\n        /* \"#utility.yul\":5912:6053   */\n      swap2\n      swap1\n      pop\n      jump\t// out\n        /* \"#utility.yul\":6059:6220   */\n    tag_75:\n        /* \"#utility.yul\":6161:6213   */\n      tag_152\n        /* \"#utility.yul\":6207:6212   */\n      dup2\n        /* \"#utility.yul\":6161:6213   */\n      tag_74\n      jump\t// in\n    tag_152:\n        /* \"#utility.yul\":6156:6159   */\n      dup3\n        /* \"#utility.yul\":6149:6214   */\n      mstore\n        /* \"#utility.yul\":6059:6220   */\n      pop\n      pop\n      jump\t// out\n        /* \"#utility.yul\":6226:6478   */\n    tag_40:\n        /* \"#utility.yul\":6334:6338   */\n      0x00\n        /* \"#utility.yul\":6372:6374   */\n      0x20\n        /* \"#utility.yul\":6361:6370   */\n      dup3\n        /* \"#utility.yul\":6357:6375   */\n      add\n        /* \"#utility.yul\":6349:6375   */\n      swap1\n      pop\n        /* \"#utility.yul\":6385:6471   */\n      tag_154\n        /* \"#utility.yul\":6468:6469   */\n      0x00\n        /* \"#utility.yul\":6457:6466   */\n      dup4\n        /* \"#utility.yul\":6453:6470   */\n      add\n        /* \"#utility.yul\":6444:6450   */\n      dup5\n        /* \"#utility.yul\":6385:6471   */\n      tag_75\n      jump\t// in\n    tag_154:\n        /* \"#utility.yul\":6226:6478   */\n      swap3\n      swap2\n      pop\n      pop\n      jump\t// out\n        /* \"#utility.yul\":6484:6813   */\n    tag_43:\n        /* \"#utility.yul\":6543:6549   */\n      0x00\n        /* \"#utility.yul\":6592:6594   */\n      0x20\n        /* \"#utility.yul\":6580:6589   */\n      dup3\n        /* \"#utility.yul\":6571:6578   */\n      dup5\n        /* \"#utility.yul\":6567:6590   */\n      sub\n        /* \"#utility.yul\":6563:6595   */\n      slt\n        /* \"#utility.yul\":6560:6679   */\n      iszero\n      tag_156\n      jumpi\n        /* \"#utility.yul\":6598:6677   */\n      tag_157\n      tag_55\n      jump\t// in\n    tag_157:\n        /* \"#utility.yul\":6560:6679   */\n    tag_156:\n        /* \"#utility.yul\":6718:6719   */\n      0x00\n        /* \"#utility.yul\":6743:6796   */\n      tag_158\n        /* \"#utility.yul\":6788:6795   */\n      dup5\n        /* \"#utility.yul\":6779:6785   */\n      dup3\n        /* \"#utility.yul\":6768:6777   */\n      dup6\n        /* \"#utility.yul\":6764:6786   */\n      add\n        /* \"#utility.yul\":6743:6796   */\n      tag_62\n      jump\t// in\n    tag_158:\n        /* \"#utility.yul\":6733:6796   */\n      swap2\n      pop\n        /* \"#utility.yul\":6689:6806   */\n      pop\n        /* \"#utility.yul\":6484:6813   */\n      swap3\n      swap2\n      pop\n      pop\n      jump\t// out\n\n    auxdata: 0xa26469706673582212201d957ce6a9d4889adaa0fef455be1a72ffdc327be9b0f4df59df4ee1b33e633964736f6c634300080d0033\n}\n",
				"bytecode": {
					"linkReferences": {},
					"object": "608060405234801561001057600080fd5b5061071e806100206000396000f3fe608060405234801561001057600080fd5b50600436106100885760003560e01c8063b7a60c7e1161005b578063b7a60c7e1461011c578063c45a01551461013a578063f55de0c714610158578063ff68fa6e1461017657610088565b80632b4c32be1461008d5780633fc15f15146100ab5780635c80a435146100c957806385a8b36c146100fe575b600080fd5b6100956101ab565b6040516100a291906103a8565b60405180910390f35b6100b36101b6565b6040516100c09190610442565b60405180910390f35b6100e360048036038101906100de91906104d6565b6101dc565b6040516100f5969594939291906105ab565b60405180910390f35b610106610272565b6040516101139190610628565b60405180910390f35b610124610285565b6040516101319190610628565b60405180910390f35b610142610298565b60405161014f9190610664565b60405180910390f35b6101606102be565b60405161016d91906106a0565b60405180910390f35b610190600480360381019061018b91906106bb565b6102e4565b6040516101a2969594939291906105ab565b60405180910390f35b6380ac58cd60e01b81565b600260009054906101000a900473ffffffffffffffffffffffffffffffffffffffff1681565b6001602052816000526040600020602052806000526040600020600091509150508060000154908060010154908060020160009054906101000a900473ffffffffffffffffffffffffffffffffffffffff16908060030160009054906101000a900473ffffffffffffffffffffffffffffffffffffffff16908060040154908060050160009054906101000a900460ff16905086565b600460149054906101000a900460ff1681565b600460159054906101000a900460ff1681565b600360009054906101000a900473ffffffffffffffffffffffffffffffffffffffff1681565b600460009054906101000a900473ffffffffffffffffffffffffffffffffffffffff1681565b60006020528060005260406000206000915090508060000154908060010154908060020160009054906101000a900473ffffffffffffffffffffffffffffffffffffffff16908060030160009054906101000a900473ffffffffffffffffffffffffffffffffffffffff16908060040154908060050160009054906101000a900460ff16905086565b60007fffffffff0000000000000000000000000000000000000000000000000000000082169050919050565b6103a28161036d565b82525050565b60006020820190506103bd6000830184610399565b92915050565b600073ffffffffffffffffffffffffffffffffffffffff82169050919050565b6000819050919050565b60006104086104036103fe846103c3565b6103e3565b6103c3565b9050919050565b600061041a826103ed565b9050919050565b600061042c8261040f565b9050919050565b61043c81610421565b82525050565b60006020820190506104576000830184610433565b92915050565b600080fd5b600061046d826103c3565b9050919050565b61047d81610462565b811461048857600080fd5b50565b60008135905061049a81610474565b92915050565b6000819050919050565b6104b3816104a0565b81146104be57600080fd5b50565b6000813590506104d0816104aa565b92915050565b600080604083850312156104ed576104ec61045d565b5b60006104fb8582860161048b565b925050602061050c858286016104c1565b9150509250929050565b61051f816104a0565b82525050565b61052e81610462565b82525050565b7f4e487b7100000000000000000000000000000000000000000000000000000000600052602160045260246000fd5b6002811061057457610573610534565b5b50565b600081905061058582610563565b919050565b600061059582610577565b9050919050565b6105a58161058a565b82525050565b600060c0820190506105c06000830189610516565b6105cd6020830188610516565b6105da6040830187610525565b6105e76060830186610525565b6105f46080830185610516565b61060160a083018461059c565b979650505050505050565b600060ff82169050919050565b6106228161060c565b82525050565b600060208201905061063d6000830184610619565b92915050565b600061064e8261040f565b9050919050565b61065e81610643565b82525050565b60006020820190506106796000830184610655565b92915050565b600061068a8261040f565b9050919050565b61069a8161067f565b82525050565b60006020820190506106b56000830184610691565b92915050565b6000602082840312156106d1576106d061045d565b5b60006106df848285016104c1565b9150509291505056fea26469706673582212201d957ce6a9d4889adaa0fef455be1a72ffdc327be9b0f4df59df4ee1b33e633964736f6c634300080d0033",
					"opcodes": "PUSH1 0x80 PUSH1 0x40 MSTORE CALLVALUE DUP1 ISZERO PUSH2 0x10 JUMPI PUSH1 0x0 DUP1 REVERT JUMPDEST POP PUSH2 0x71E DUP1 PUSH2 0x20 PUSH1 0x0 CODECOPY PUSH1 0x0 RETURN INVALID PUSH1 0x80 PUSH1 0x40 MSTORE CALLVALUE DUP1 ISZERO PUSH2 0x10 JUMPI PUSH1 0x0 DUP1 REVERT JUMPDEST POP PUSH1 0x4 CALLDATASIZE LT PUSH2 0x88 JUMPI PUSH1 0x0 CALLDATALOAD PUSH1 0xE0 SHR DUP1 PUSH4 0xB7A60C7E GT PUSH2 0x5B JUMPI DUP1 PUSH4 0xB7A60C7E EQ PUSH2 0x11C JUMPI DUP1 PUSH4 0xC45A0155 EQ PUSH2 0x13A JUMPI DUP1 PUSH4 0xF55DE0C7 EQ PUSH2 0x158 JUMPI DUP1 PUSH4 0xFF68FA6E EQ PUSH2 0x176 JUMPI PUSH2 0x88 JUMP JUMPDEST DUP1 PUSH4 0x2B4C32BE EQ PUSH2 0x8D JUMPI DUP1 PUSH4 0x3FC15F15 EQ PUSH2 0xAB JUMPI DUP1 PUSH4 0x5C80A435 EQ PUSH2 0xC9 JUMPI DUP1 PUSH4 0x85A8B36C EQ PUSH2 0xFE JUMPI JUMPDEST PUSH1 0x0 DUP1 REVERT JUMPDEST PUSH2 0x95 PUSH2 0x1AB JUMP JUMPDEST PUSH1 0x40 MLOAD PUSH2 0xA2 SWAP2 SWAP1 PUSH2 0x3A8 JUMP JUMPDEST PUSH1 0x40 MLOAD DUP1 SWAP2 SUB SWAP1 RETURN JUMPDEST PUSH2 0xB3 PUSH2 0x1B6 JUMP JUMPDEST PUSH1 0x40 MLOAD PUSH2 0xC0 SWAP2 SWAP1 PUSH2 0x442 JUMP JUMPDEST PUSH1 0x40 MLOAD DUP1 SWAP2 SUB SWAP1 RETURN JUMPDEST PUSH2 0xE3 PUSH1 0x4 DUP1 CALLDATASIZE SUB DUP2 ADD SWAP1 PUSH2 0xDE SWAP2 SWAP1 PUSH2 0x4D6 JUMP JUMPDEST PUSH2 0x1DC JUMP JUMPDEST PUSH1 0x40 MLOAD PUSH2 0xF5 SWAP7 SWAP6 SWAP5 SWAP4 SWAP3 SWAP2 SWAP1 PUSH2 0x5AB JUMP JUMPDEST PUSH1 0x40 MLOAD DUP1 SWAP2 SUB SWAP1 RETURN JUMPDEST PUSH2 0x106 PUSH2 0x272 JUMP JUMPDEST PUSH1 0x40 MLOAD PUSH2 0x113 SWAP2 SWAP1 PUSH2 0x628 JUMP JUMPDEST PUSH1 0x40 MLOAD DUP1 SWAP2 SUB SWAP1 RETURN JUMPDEST PUSH2 0x124 PUSH2 0x285 JUMP JUMPDEST PUSH1 0x40 MLOAD PUSH2 0x131 SWAP2 SWAP1 PUSH2 0x628 JUMP JUMPDEST PUSH1 0x40 MLOAD DUP1 SWAP2 SUB SWAP1 RETURN JUMPDEST PUSH2 0x142 PUSH2 0x298 JUMP JUMPDEST PUSH1 0x40 MLOAD PUSH2 0x14F SWAP2 SWAP1 PUSH2 0x664 JUMP JUMPDEST PUSH1 0x40 MLOAD DUP1 SWAP2 SUB SWAP1 RETURN JUMPDEST PUSH2 0x160 PUSH2 0x2BE JUMP JUMPDEST PUSH1 0x40 MLOAD PUSH2 0x16D SWAP2 SWAP1 PUSH2 0x6A0 JUMP JUMPDEST PUSH1 0x40 MLOAD DUP1 SWAP2 SUB SWAP1 RETURN JUMPDEST PUSH2 0x190 PUSH1 0x4 DUP1 CALLDATASIZE SUB DUP2 ADD SWAP1 PUSH2 0x18B SWAP2 SWAP1 PUSH2 0x6BB JUMP JUMPDEST PUSH2 0x2E4 JUMP JUMPDEST PUSH1 0x40 MLOAD PUSH2 0x1A2 SWAP7 SWAP6 SWAP5 SWAP4 SWAP3 SWAP2 SWAP1 PUSH2 0x5AB JUMP JUMPDEST PUSH1 0x40 MLOAD DUP1 SWAP2 SUB SWAP1 RETURN JUMPDEST PUSH4 0x80AC58CD PUSH1 0xE0 SHL DUP2 JUMP JUMPDEST PUSH1 0x2 PUSH1 0x0 SWAP1 SLOAD SWAP1 PUSH2 0x100 EXP SWAP1 DIV PUSH20 0xFFFFFFFFFFFFFFFFFFFFFFFFFFFFFFFFFFFFFFFF AND DUP2 JUMP JUMPDEST PUSH1 0x1 PUSH1 0x20 MSTORE DUP2 PUSH1 0x0 MSTORE PUSH1 0x40 PUSH1 0x0 KECCAK256 PUSH1 0x20 MSTORE DUP1 PUSH1 0x0 MSTORE PUSH1 0x40 PUSH1 0x0 KECCAK256 PUSH1 0x0 SWAP2 POP SWAP2 POP POP DUP1 PUSH1 0x0 ADD SLOAD SWAP1 DUP1 PUSH1 0x1 ADD SLOAD SWAP1 DUP1 PUSH1 0x2 ADD PUSH1 0x0 SWAP1 SLOAD SWAP1 PUSH2 0x100 EXP SWAP1 DIV PUSH20 0xFFFFFFFFFFFFFFFFFFFFFFFFFFFFFFFFFFFFFFFF AND SWAP1 DUP1 PUSH1 0x3 ADD PUSH1 0x0 SWAP1 SLOAD SWAP1 PUSH2 0x100 EXP SWAP1 DIV PUSH20 0xFFFFFFFFFFFFFFFFFFFFFFFFFFFFFFFFFFFFFFFF AND SWAP1 DUP1 PUSH1 0x4 ADD SLOAD SWAP1 DUP1 PUSH1 0x5 ADD PUSH1 0x0 SWAP1 SLOAD SWAP1 PUSH2 0x100 EXP SWAP1 DIV PUSH1 0xFF AND SWAP1 POP DUP7 JUMP JUMPDEST PUSH1 0x4 PUSH1 0x14 SWAP1 SLOAD SWAP1 PUSH2 0x100 EXP SWAP1 DIV PUSH1 0xFF AND DUP2 JUMP JUMPDEST PUSH1 0x4 PUSH1 0x15 SWAP1 SLOAD SWAP1 PUSH2 0x100 EXP SWAP1 DIV PUSH1 0xFF AND DUP2 JUMP JUMPDEST PUSH1 0x3 PUSH1 0x0 SWAP1 SLOAD SWAP1 PUSH2 0x100 EXP SWAP1 DIV PUSH20 0xFFFFFFFFFFFFFFFFFFFFFFFFFFFFFFFFFFFFFFFF AND DUP2 JUMP JUMPDEST PUSH1 0x4 PUSH1 0x0 SWAP1 SLOAD SWAP1 PUSH2 0x100 EXP SWAP1 DIV PUSH20 0xFFFFFFFFFFFFFFFFFFFFFFFFFFFFFFFFFFFFFFFF AND DUP2 JUMP JUMPDEST PUSH1 0x0 PUSH1 0x20 MSTORE DUP1 PUSH1 0x0 MSTORE PUSH1 0x40 PUSH1 0x0 KECCAK256 PUSH1 0x0 SWAP2 POP SWAP1 POP DUP1 PUSH1 0x0 ADD SLOAD SWAP1 DUP1 PUSH1 0x1 ADD SLOAD SWAP1 DUP1 PUSH1 0x2 ADD PUSH1 0x0 SWAP1 SLOAD SWAP1 PUSH2 0x100 EXP SWAP1 DIV PUSH20 0xFFFFFFFFFFFFFFFFFFFFFFFFFFFFFFFFFFFFFFFF AND SWAP1 DUP1 PUSH1 0x3 ADD PUSH1 0x0 SWAP1 SLOAD SWAP1 PUSH2 0x100 EXP SWAP1 DIV PUSH20 0xFFFFFFFFFFFFFFFFFFFFFFFFFFFFFFFFFFFFFFFF AND SWAP1 DUP1 PUSH1 0x4 ADD SLOAD SWAP1 DUP1 PUSH1 0x5 ADD PUSH1 0x0 SWAP1 SLOAD SWAP1 PUSH2 0x100 EXP SWAP1 DIV PUSH1 0xFF AND SWAP1 POP DUP7 JUMP JUMPDEST PUSH1 0x0 PUSH32 0xFFFFFFFF00000000000000000000000000000000000000000000000000000000 DUP3 AND SWAP1 POP SWAP2 SWAP1 POP JUMP JUMPDEST PUSH2 0x3A2 DUP2 PUSH2 0x36D JUMP JUMPDEST DUP3 MSTORE POP POP JUMP JUMPDEST PUSH1 0x0 PUSH1 0x20 DUP3 ADD SWAP1 POP PUSH2 0x3BD PUSH1 0x0 DUP4 ADD DUP5 PUSH2 0x399 JUMP JUMPDEST SWAP3 SWAP2 POP POP JUMP JUMPDEST PUSH1 0x0 PUSH20 0xFFFFFFFFFFFFFFFFFFFFFFFFFFFFFFFFFFFFFFFF DUP3 AND SWAP1 POP SWAP2 SWAP1 POP JUMP JUMPDEST PUSH1 0x0 DUP2 SWAP1 POP SWAP2 SWAP1 POP JUMP JUMPDEST PUSH1 0x0 PUSH2 0x408 PUSH2 0x403 PUSH2 0x3FE DUP5 PUSH2 0x3C3 JUMP JUMPDEST PUSH2 0x3E3 JUMP JUMPDEST PUSH2 0x3C3 JUMP JUMPDEST SWAP1 POP SWAP2 SWAP1 POP JUMP JUMPDEST PUSH1 0x0 PUSH2 0x41A DUP3 PUSH2 0x3ED JUMP JUMPDEST SWAP1 POP SWAP2 SWAP1 POP JUMP JUMPDEST PUSH1 0x0 PUSH2 0x42C DUP3 PUSH2 0x40F JUMP JUMPDEST SWAP1 POP SWAP2 SWAP1 POP JUMP JUMPDEST PUSH2 0x43C DUP2 PUSH2 0x421 JUMP JUMPDEST DUP3 MSTORE POP POP JUMP JUMPDEST PUSH1 0x0 PUSH1 0x20 DUP3 ADD SWAP1 POP PUSH2 0x457 PUSH1 0x0 DUP4 ADD DUP5 PUSH2 0x433 JUMP JUMPDEST SWAP3 SWAP2 POP POP JUMP JUMPDEST PUSH1 0x0 DUP1 REVERT JUMPDEST PUSH1 0x0 PUSH2 0x46D DUP3 PUSH2 0x3C3 JUMP JUMPDEST SWAP1 POP SWAP2 SWAP1 POP JUMP JUMPDEST PUSH2 0x47D DUP2 PUSH2 0x462 JUMP JUMPDEST DUP2 EQ PUSH2 0x488 JUMPI PUSH1 0x0 DUP1 REVERT JUMPDEST POP JUMP JUMPDEST PUSH1 0x0 DUP2 CALLDATALOAD SWAP1 POP PUSH2 0x49A DUP2 PUSH2 0x474 JUMP JUMPDEST SWAP3 SWAP2 POP POP JUMP JUMPDEST PUSH1 0x0 DUP2 SWAP1 POP SWAP2 SWAP1 POP JUMP JUMPDEST PUSH2 0x4B3 DUP2 PUSH2 0x4A0 JUMP JUMPDEST DUP2 EQ PUSH2 0x4BE JUMPI PUSH1 0x0 DUP1 REVERT JUMPDEST POP JUMP JUMPDEST PUSH1 0x0 DUP2 CALLDATALOAD SWAP1 POP PUSH2 0x4D0 DUP2 PUSH2 0x4AA JUMP JUMPDEST SWAP3 SWAP2 POP POP JUMP JUMPDEST PUSH1 0x0 DUP1 PUSH1 0x40 DUP4 DUP6 SUB SLT ISZERO PUSH2 0x4ED JUMPI PUSH2 0x4EC PUSH2 0x45D JUMP JUMPDEST JUMPDEST PUSH1 0x0 PUSH2 0x4FB DUP6 DUP3 DUP7 ADD PUSH2 0x48B JUMP JUMPDEST SWAP3 POP POP PUSH1 0x20 PUSH2 0x50C DUP6 DUP3 DUP7 ADD PUSH2 0x4C1 JUMP JUMPDEST SWAP2 POP POP SWAP3 POP SWAP3 SWAP1 POP JUMP JUMPDEST PUSH2 0x51F DUP2 PUSH2 0x4A0 JUMP JUMPDEST DUP3 MSTORE POP POP JUMP JUMPDEST PUSH2 0x52E DUP2 PUSH2 0x462 JUMP JUMPDEST DUP3 MSTORE POP POP JUMP JUMPDEST PUSH32 0x4E487B7100000000000000000000000000000000000000000000000000000000 PUSH1 0x0 MSTORE PUSH1 0x21 PUSH1 0x4 MSTORE PUSH1 0x24 PUSH1 0x0 REVERT JUMPDEST PUSH1 0x2 DUP2 LT PUSH2 0x574 JUMPI PUSH2 0x573 PUSH2 0x534 JUMP JUMPDEST JUMPDEST POP JUMP JUMPDEST PUSH1 0x0 DUP2 SWAP1 POP PUSH2 0x585 DUP3 PUSH2 0x563 JUMP JUMPDEST SWAP2 SWAP1 POP JUMP JUMPDEST PUSH1 0x0 PUSH2 0x595 DUP3 PUSH2 0x577 JUMP JUMPDEST SWAP1 POP SWAP2 SWAP1 POP JUMP JUMPDEST PUSH2 0x5A5 DUP2 PUSH2 0x58A JUMP JUMPDEST DUP3 MSTORE POP POP JUMP JUMPDEST PUSH1 0x0 PUSH1 0xC0 DUP3 ADD SWAP1 POP PUSH2 0x5C0 PUSH1 0x0 DUP4 ADD DUP10 PUSH2 0x516 JUMP JUMPDEST PUSH2 0x5CD PUSH1 0x20 DUP4 ADD DUP9 PUSH2 0x516 JUMP JUMPDEST PUSH2 0x5DA PUSH1 0x40 DUP4 ADD DUP8 PUSH2 0x525 JUMP JUMPDEST PUSH2 0x5E7 PUSH1 0x60 DUP4 ADD DUP7 PUSH2 0x525 JUMP JUMPDEST PUSH2 0x5F4 PUSH1 0x80 DUP4 ADD DUP6 PUSH2 0x516 JUMP JUMPDEST PUSH2 0x601 PUSH1 0xA0 DUP4 ADD DUP5 PUSH2 0x59C JUMP JUMPDEST SWAP8 SWAP7 POP POP POP POP POP POP POP JUMP JUMPDEST PUSH1 0x0 PUSH1 0xFF DUP3 AND SWAP1 POP SWAP2 SWAP1 POP JUMP JUMPDEST PUSH2 0x622 DUP2 PUSH2 0x60C JUMP JUMPDEST DUP3 MSTORE POP POP JUMP JUMPDEST PUSH1 0x0 PUSH1 0x20 DUP3 ADD SWAP1 POP PUSH2 0x63D PUSH1 0x0 DUP4 ADD DUP5 PUSH2 0x619 JUMP JUMPDEST SWAP3 SWAP2 POP POP JUMP JUMPDEST PUSH1 0x0 PUSH2 0x64E DUP3 PUSH2 0x40F JUMP JUMPDEST SWAP1 POP SWAP2 SWAP1 POP JUMP JUMPDEST PUSH2 0x65E DUP2 PUSH2 0x643 JUMP JUMPDEST DUP3 MSTORE POP POP JUMP JUMPDEST PUSH1 0x0 PUSH1 0x20 DUP3 ADD SWAP1 POP PUSH2 0x679 PUSH1 0x0 DUP4 ADD DUP5 PUSH2 0x655 JUMP JUMPDEST SWAP3 SWAP2 POP POP JUMP JUMPDEST PUSH1 0x0 PUSH2 0x68A DUP3 PUSH2 0x40F JUMP JUMPDEST SWAP1 POP SWAP2 SWAP1 POP JUMP JUMPDEST PUSH2 0x69A DUP2 PUSH2 0x67F JUMP JUMPDEST DUP3 MSTORE POP POP JUMP JUMPDEST PUSH1 0x0 PUSH1 0x20 DUP3 ADD SWAP1 POP PUSH2 0x6B5 PUSH1 0x0 DUP4 ADD DUP5 PUSH2 0x691 JUMP JUMPDEST SWAP3 SWAP2 POP POP JUMP JUMPDEST PUSH1 0x0 PUSH1 0x20 DUP3 DUP5 SUB SLT ISZERO PUSH2 0x6D1 JUMPI PUSH2 0x6D0 PUSH2 0x45D JUMP JUMPDEST JUMPDEST PUSH1 0x0 PUSH2 0x6DF DUP5 DUP3 DUP6 ADD PUSH2 0x4C1 JUMP JUMPDEST SWAP2 POP POP SWAP3 SWAP2 POP POP JUMP INVALID LOG2 PUSH5 0x6970667358 0x22 SLT KECCAK256 SAR SWAP6 PUSH29 0xE6A9D4889ADAA0FEF455BE1A72FFDC327BE9B0F4DF59DF4EE1B33E6339 PUSH5 0x736F6C6343 STOP ADDMOD 0xD STOP CALLER "
				},
				"gasEstimates": {
					"creation": {
						"codeDepositCost": "364400",
						"executionCost": "399",
						"totalCost": "364799"
					},
					"external": {
						"ERC721_Interface()": "342",
						"allItems(uint256)": "infinite",
						"antaFeePercent()": "2521",
						"bnbFeePercent()": "2588",
						"factory()": "infinite",
						"items(address,uint256)": "infinite",
						"mainNFTs()": "infinite",
						"mainToken()": "infinite"
					}
				},
				"methodIdentifiers": {
					"ERC721_Interface()": "2b4c32be",
					"allItems(uint256)": "ff68fa6e",
					"antaFeePercent()": "b7a60c7e",
					"bnbFeePercent()": "85a8b36c",
					"factory()": "c45a0155",
					"items(address,uint256)": "5c80a435",
					"mainNFTs()": "f55de0c7",
					"mainToken()": "3fc15f15"
				}
			},
			"storageLayout": {
				"storage": [
					{
						"astId": 507,
						"contract": "contracts/Marketplace2/Marketplace.sol:MarketplaceStorage",
						"label": "allItems",
						"offset": 0,
						"slot": "0",
						"type": "t_mapping(t_uint256,t_struct(MarketItem)496_storage)"
					},
					{
						"astId": 514,
						"contract": "contracts/Marketplace2/Marketplace.sol:MarketplaceStorage",
						"label": "items",
						"offset": 0,
						"slot": "1",
						"type": "t_mapping(t_address,t_mapping(t_uint256,t_struct(MarketItem)496_storage))"
					},
					{
						"astId": 517,
						"contract": "contracts/Marketplace2/Marketplace.sol:MarketplaceStorage",
						"label": "mainToken",
						"offset": 0,
						"slot": "2",
						"type": "t_contract(IERC20)201"
					},
					{
						"astId": 520,
						"contract": "contracts/Marketplace2/Marketplace.sol:MarketplaceStorage",
						"label": "factory",
						"offset": 0,
						"slot": "3",
						"type": "t_contract(IFactory)478"
					},
					{
						"astId": 523,
						"contract": "contracts/Marketplace2/Marketplace.sol:MarketplaceStorage",
						"label": "mainNFTs",
						"offset": 0,
						"slot": "4",
						"type": "t_contract(IERC721)326"
					},
					{
						"astId": 525,
						"contract": "contracts/Marketplace2/Marketplace.sol:MarketplaceStorage",
						"label": "bnbFeePercent",
						"offset": 20,
						"slot": "4",
						"type": "t_uint8"
					},
					{
						"astId": 527,
						"contract": "contracts/Marketplace2/Marketplace.sol:MarketplaceStorage",
						"label": "antaFeePercent",
						"offset": 21,
						"slot": "4",
						"type": "t_uint8"
					}
				],
				"types": {
					"t_address": {
						"encoding": "inplace",
						"label": "address",
						"numberOfBytes": "20"
					},
					"t_contract(IERC20)201": {
						"encoding": "inplace",
						"label": "contract IERC20",
						"numberOfBytes": "20"
					},
					"t_contract(IERC721)326": {
						"encoding": "inplace",
						"label": "contract IERC721",
						"numberOfBytes": "20"
					},
					"t_contract(IFactory)478": {
						"encoding": "inplace",
						"label": "contract IFactory",
						"numberOfBytes": "20"
					},
					"t_enum(ItemStatus)482": {
						"encoding": "inplace",
						"label": "enum MarketplaceStorage.ItemStatus",
						"numberOfBytes": "1"
					},
					"t_mapping(t_address,t_mapping(t_uint256,t_struct(MarketItem)496_storage))": {
						"encoding": "mapping",
						"key": "t_address",
						"label": "mapping(address => mapping(uint256 => struct MarketplaceStorage.MarketItem))",
						"numberOfBytes": "32",
						"value": "t_mapping(t_uint256,t_struct(MarketItem)496_storage)"
					},
					"t_mapping(t_uint256,t_struct(MarketItem)496_storage)": {
						"encoding": "mapping",
						"key": "t_uint256",
						"label": "mapping(uint256 => struct MarketplaceStorage.MarketItem)",
						"numberOfBytes": "32",
						"value": "t_struct(MarketItem)496_storage"
					},
					"t_struct(MarketItem)496_storage": {
						"encoding": "inplace",
						"label": "struct MarketplaceStorage.MarketItem",
						"members": [
							{
								"astId": 484,
								"contract": "contracts/Marketplace2/Marketplace.sol:MarketplaceStorage",
								"label": "itemId",
								"offset": 0,
								"slot": "0",
								"type": "t_uint256"
							},
							{
								"astId": 486,
								"contract": "contracts/Marketplace2/Marketplace.sol:MarketplaceStorage",
								"label": "tokenId",
								"offset": 0,
								"slot": "1",
								"type": "t_uint256"
							},
							{
								"astId": 488,
								"contract": "contracts/Marketplace2/Marketplace.sol:MarketplaceStorage",
								"label": "seller",
								"offset": 0,
								"slot": "2",
								"type": "t_address"
							},
							{
								"astId": 490,
								"contract": "contracts/Marketplace2/Marketplace.sol:MarketplaceStorage",
								"label": "owner",
								"offset": 0,
								"slot": "3",
								"type": "t_address"
							},
							{
								"astId": 492,
								"contract": "contracts/Marketplace2/Marketplace.sol:MarketplaceStorage",
								"label": "price",
								"offset": 0,
								"slot": "4",
								"type": "t_uint256"
							},
							{
								"astId": 495,
								"contract": "contracts/Marketplace2/Marketplace.sol:MarketplaceStorage",
								"label": "status",
								"offset": 0,
								"slot": "5",
								"type": "t_enum(ItemStatus)482"
							}
						],
						"numberOfBytes": "192"
					},
					"t_uint256": {
						"encoding": "inplace",
						"label": "uint256",
						"numberOfBytes": "32"
					},
					"t_uint8": {
						"encoding": "inplace",
						"label": "uint8",
						"numberOfBytes": "1"
					}
				}
			},
			"userdoc": {
				"kind": "user",
				"methods": {},
				"version": 1
			}
		}
	}
}