{
	"contracts/Marketplace2/Marketplace.sol": {
		"NFTMarket": {
			"abi": [
				{
					"inputs": [
						{
							"internalType": "address payable",
							"name": "_mainToken",
							"type": "address"
						},
						{
							"internalType": "address payable",
							"name": "_mainNFT",
							"type": "address"
						},
						{
							"internalType": "address payable",
							"name": "_mainFactory",
							"type": "address"
						}
					],
					"stateMutability": "payable",
					"type": "constructor"
				},
				{
					"anonymous": false,
					"inputs": [
						{
							"indexed": false,
							"internalType": "uint256",
							"name": "itemId",
							"type": "uint256"
						},
						{
							"indexed": true,
							"internalType": "uint256",
							"name": "tokenId",
							"type": "uint256"
						},
						{
							"indexed": true,
							"internalType": "address",
							"name": "seller",
							"type": "address"
						},
						{
							"indexed": false,
							"internalType": "uint256",
							"name": "price",
							"type": "uint256"
						},
						{
							"indexed": true,
							"internalType": "address",
							"name": "buyer",
							"type": "address"
						},
						{
							"indexed": false,
							"internalType": "string",
							"name": "currency",
							"type": "string"
						},
						{
							"indexed": false,
							"internalType": "uint256",
							"name": "createdAt",
							"type": "uint256"
						}
					],
					"name": "BuyItemSuccessful",
					"type": "event"
				},
				{
					"anonymous": false,
					"inputs": [
						{
							"indexed": false,
							"internalType": "uint256",
							"name": "id",
							"type": "uint256"
						},
						{
							"indexed": true,
							"internalType": "uint256",
							"name": "assetId",
							"type": "uint256"
						},
						{
							"indexed": true,
							"internalType": "address",
							"name": "delistBy",
							"type": "address"
						},
						{
							"indexed": false,
							"internalType": "uint256",
							"name": "createdAt",
							"type": "uint256"
						}
					],
					"name": "DelistItemSuccessful",
					"type": "event"
				},
				{
					"anonymous": false,
					"inputs": [
						{
							"indexed": true,
							"internalType": "uint256",
							"name": "itemId",
							"type": "uint256"
						},
						{
							"indexed": true,
							"internalType": "uint256",
							"name": "tokenId",
							"type": "uint256"
						},
						{
							"indexed": false,
							"internalType": "address",
							"name": "seller",
							"type": "address"
						},
						{
							"indexed": false,
							"internalType": "address",
							"name": "owner",
							"type": "address"
						},
						{
							"indexed": false,
							"internalType": "uint256",
							"name": "price",
							"type": "uint256"
						}
					],
					"name": "MarketItemCreated",
					"type": "event"
				},
				{
					"anonymous": false,
					"inputs": [
						{
							"indexed": true,
							"internalType": "address",
							"name": "previousOwner",
							"type": "address"
						},
						{
							"indexed": true,
							"internalType": "address",
							"name": "newOwner",
							"type": "address"
						}
					],
					"name": "OwnershipTransferred",
					"type": "event"
				},
				{
					"anonymous": false,
					"inputs": [
						{
							"indexed": false,
							"internalType": "address",
							"name": "nftAddress",
							"type": "address"
						},
						{
							"indexed": false,
							"internalType": "bytes32",
							"name": "id",
							"type": "bytes32"
						},
						{
							"indexed": true,
							"internalType": "uint256",
							"name": "assetId",
							"type": "uint256"
						},
						{
							"indexed": false,
							"internalType": "uint256",
							"name": "price",
							"type": "uint256"
						},
						{
							"indexed": true,
							"internalType": "address",
							"name": "seller",
							"type": "address"
						},
						{
							"indexed": false,
							"internalType": "string",
							"name": "currency",
							"type": "string"
						},
						{
							"indexed": false,
							"internalType": "uint256",
							"name": "createdAt",
							"type": "uint256"
						}
					],
					"name": "SellItemSuccessful",
					"type": "event"
				},
				{
					"inputs": [],
					"name": "ERC721_Interface",
					"outputs": [
						{
							"internalType": "bytes4",
							"name": "",
							"type": "bytes4"
						}
					],
					"stateMutability": "view",
					"type": "function"
				},
				{
					"inputs": [
						{
							"internalType": "uint256",
							"name": "itemId",
							"type": "uint256"
						},
						{
							"internalType": "uint256",
							"name": "amount",
							"type": "uint256"
						},
						{
							"internalType": "uint256",
							"name": "tokenId",
							"type": "uint256"
						}
					],
					"name": "_safeBuyItem",
					"outputs": [],
					"stateMutability": "nonpayable",
					"type": "function"
				},
				{
					"inputs": [
						{
							"internalType": "uint256",
							"name": "tokenId",
							"type": "uint256"
						}
					],
					"name": "_safeTransferToMarket",
					"outputs": [],
					"stateMutability": "nonpayable",
					"type": "function"
				},
				{
					"inputs": [
						{
							"internalType": "uint256",
							"name": "",
							"type": "uint256"
						}
					],
					"name": "allItems",
					"outputs": [
						{
							"internalType": "uint256",
							"name": "itemId",
							"type": "uint256"
						},
						{
							"internalType": "uint256",
							"name": "tokenId",
							"type": "uint256"
						},
						{
							"internalType": "address",
							"name": "seller",
							"type": "address"
						},
						{
							"internalType": "address",
							"name": "owner",
							"type": "address"
						},
						{
							"internalType": "uint256",
							"name": "price",
							"type": "uint256"
						},
						{
							"internalType": "enum MarketplaceStorage.ItemStatus",
							"name": "status",
							"type": "uint8"
						}
					],
					"stateMutability": "view",
					"type": "function"
				},
				{
					"inputs": [],
					"name": "antaFeePercent",
					"outputs": [
						{
							"internalType": "uint8",
							"name": "",
							"type": "uint8"
						}
					],
					"stateMutability": "view",
					"type": "function"
				},
				{
					"inputs": [],
					"name": "bnbFeePercent",
					"outputs": [
						{
							"internalType": "uint8",
							"name": "",
							"type": "uint8"
						}
					],
					"stateMutability": "view",
					"type": "function"
				},
				{
					"inputs": [
						{
							"internalType": "uint256",
							"name": "tokenId",
							"type": "uint256"
						},
						{
							"internalType": "uint256",
							"name": "price",
							"type": "uint256"
						}
					],
					"name": "createMarketItem",
					"outputs": [],
					"stateMutability": "nonpayable",
					"type": "function"
				},
				{
					"inputs": [
						{
							"internalType": "uint256",
							"name": "itemId",
							"type": "uint256"
						},
						{
							"internalType": "uint256",
							"name": "amount",
							"type": "uint256"
						}
					],
					"name": "createMarketSale",
					"outputs": [],
					"stateMutability": "nonpayable",
					"type": "function"
				},
				{
					"inputs": [
						{
							"internalType": "uint256",
							"name": "itemId",
							"type": "uint256"
						}
					],
					"name": "delistItem",
					"outputs": [],
					"stateMutability": "nonpayable",
					"type": "function"
				},
				{
					"inputs": [],
					"name": "factory",
					"outputs": [
						{
							"internalType": "contract IFactory",
							"name": "",
							"type": "address"
						}
					],
					"stateMutability": "view",
					"type": "function"
				},
				{
					"inputs": [],
					"name": "getMarketItem",
					"outputs": [
						{
							"components": [
								{
									"internalType": "uint256",
									"name": "itemId",
									"type": "uint256"
								},
								{
									"internalType": "uint256",
									"name": "tokenId",
									"type": "uint256"
								},
								{
									"internalType": "address",
									"name": "seller",
									"type": "address"
								},
								{
									"internalType": "address",
									"name": "owner",
									"type": "address"
								},
								{
									"internalType": "uint256",
									"name": "price",
									"type": "uint256"
								},
								{
									"internalType": "enum MarketplaceStorage.ItemStatus",
									"name": "status",
									"type": "uint8"
								}
							],
							"internalType": "struct MarketplaceStorage.MarketItem[]",
							"name": "",
							"type": "tuple[]"
						}
					],
					"stateMutability": "view",
					"type": "function"
				},
				{
					"inputs": [
						{
							"internalType": "uint256",
							"name": "marketItemId",
							"type": "uint256"
						}
					],
					"name": "getMarketItem",
					"outputs": [
						{
							"components": [
								{
									"internalType": "uint256",
									"name": "itemId",
									"type": "uint256"
								},
								{
									"internalType": "uint256",
									"name": "tokenId",
									"type": "uint256"
								},
								{
									"internalType": "address",
									"name": "seller",
									"type": "address"
								},
								{
									"internalType": "address",
									"name": "owner",
									"type": "address"
								},
								{
									"internalType": "uint256",
									"name": "price",
									"type": "uint256"
								},
								{
									"internalType": "enum MarketplaceStorage.ItemStatus",
									"name": "status",
									"type": "uint8"
								}
							],
							"internalType": "struct MarketplaceStorage.MarketItem",
							"name": "",
							"type": "tuple"
						}
					],
					"stateMutability": "view",
					"type": "function"
				},
				{
					"inputs": [
						{
							"internalType": "uint256",
							"name": "",
							"type": "uint256"
						}
					],
					"name": "items",
					"outputs": [
						{
							"internalType": "uint256",
							"name": "itemId",
							"type": "uint256"
						},
						{
							"internalType": "uint256",
							"name": "tokenId",
							"type": "uint256"
						},
						{
							"internalType": "address",
							"name": "seller",
							"type": "address"
						},
						{
							"internalType": "address",
							"name": "owner",
							"type": "address"
						},
						{
							"internalType": "uint256",
							"name": "price",
							"type": "uint256"
						},
						{
							"internalType": "enum MarketplaceStorage.ItemStatus",
							"name": "status",
							"type": "uint8"
						}
					],
					"stateMutability": "view",
					"type": "function"
				},
				{
					"inputs": [],
					"name": "mainNFTs",
					"outputs": [
						{
							"internalType": "contract IERC721",
							"name": "",
							"type": "address"
						}
					],
					"stateMutability": "view",
					"type": "function"
				},
				{
					"inputs": [],
					"name": "mainToken",
					"outputs": [
						{
							"internalType": "contract IERC20",
							"name": "",
							"type": "address"
						}
					],
					"stateMutability": "view",
					"type": "function"
				},
				{
					"inputs": [],
					"name": "owner",
					"outputs": [
						{
							"internalType": "address",
							"name": "",
							"type": "address"
						}
					],
					"stateMutability": "view",
					"type": "function"
				},
				{
					"inputs": [],
					"name": "renounceOwnership",
					"outputs": [],
					"stateMutability": "nonpayable",
					"type": "function"
				},
				{
					"inputs": [
						{
							"internalType": "uint256",
							"name": "tokenId",
							"type": "uint256"
						},
						{
							"internalType": "uint256",
							"name": "price",
							"type": "uint256"
						}
					],
					"name": "sellItem",
					"outputs": [],
					"stateMutability": "nonpayable",
					"type": "function"
				},
				{
					"inputs": [
						{
							"internalType": "address",
							"name": "_address",
							"type": "address"
						}
					],
					"name": "setFactory",
					"outputs": [],
					"stateMutability": "nonpayable",
					"type": "function"
				},
				{
					"inputs": [
						{
							"internalType": "address",
							"name": "_address",
							"type": "address"
						}
					],
					"name": "setMainNFT",
					"outputs": [],
					"stateMutability": "nonpayable",
					"type": "function"
				},
				{
					"inputs": [
						{
							"internalType": "address",
							"name": "_address",
							"type": "address"
						}
					],
					"name": "setMainToken",
					"outputs": [],
					"stateMutability": "nonpayable",
					"type": "function"
				},
				{
					"inputs": [
						{
							"internalType": "address",
							"name": "newOwner",
							"type": "address"
						}
					],
					"name": "transferOwnership",
					"outputs": [],
					"stateMutability": "nonpayable",
					"type": "function"
				}
			],
			"devdoc": {
				"kind": "dev",
				"methods": {
					"owner()": {
						"details": "Returns the address of the current owner."
					},
					"renounceOwnership()": {
						"details": "Leaves the contract without owner. It will not be possible to call `onlyOwner` functions anymore. Can only be called by the current owner. NOTE: Renouncing ownership will leave the contract without an owner, thereby removing any functionality that is only available to the owner."
					},
					"transferOwnership(address)": {
						"details": "Transfers ownership of the contract to a new account (`newOwner`). Can only be called by the current owner."
					}
				},
				"version": 1
			},
			"evm": {
				"assembly": "    /* \"contracts/Marketplace2/Marketplace.sol\":17144:22643  contract NFTMarket is ReentrancyGuard,MarketplaceStorage, Ownable {... */\n  mstore(0x40, 0x80)\n    /* \"contracts/Marketplace2/Marketplace.sol\":17390:17616  constructor(address payable _mainToken, address payable _mainNFT, address payable _mainFactory ) payable {... */\n  mload(0x40)\n  sub(codesize, bytecodeSize)\n  dup1\n  bytecodeSize\n  dup4\n  codecopy\n  dup2\n  dup2\n  add\n  0x40\n  mstore\n  dup2\n  add\n  swap1\n  tag_1\n  swap2\n  swap1\n  tag_2\n  jump\t// in\ntag_1:\n    /* \"contracts/Marketplace2/Marketplace.sol\":14124:14125  1 */\n  0x01\n    /* \"contracts/Marketplace2/Marketplace.sol\":14229:14236  _status */\n  0x00\n    /* \"contracts/Marketplace2/Marketplace.sol\":14229:14251  _status = _NOT_ENTERED */\n  dup2\n  swap1\n  sstore\n  pop\n    /* \"contracts/Marketplace2/Marketplace.sol\":1561:1593  _transferOwnership(_msgSender()) */\n  tag_8\n    /* \"contracts/Marketplace2/Marketplace.sol\":1580:1592  _msgSender() */\n  tag_9\n    /* \"contracts/Marketplace2/Marketplace.sol\":1580:1590  _msgSender */\n  shl(0x20, tag_10)\n    /* \"contracts/Marketplace2/Marketplace.sol\":1580:1592  _msgSender() */\n  0x20\n  shr\n  jump\t// in\ntag_9:\n    /* \"contracts/Marketplace2/Marketplace.sol\":1561:1579  _transferOwnership */\n  shl(0x20, tag_11)\n    /* \"contracts/Marketplace2/Marketplace.sol\":1561:1593  _transferOwnership(_msgSender()) */\n  0x20\n  shr\n  jump\t// in\ntag_8:\n    /* \"contracts/Marketplace2/Marketplace.sol\":17522:17532  _mainToken */\n  dup3\n    /* \"contracts/Marketplace2/Marketplace.sol\":17503:17512  mainToken */\n  0x03\n  0x00\n    /* \"contracts/Marketplace2/Marketplace.sol\":17503:17533  mainToken = IERC20(_mainToken) */\n  0x0100\n  exp\n  dup2\n  sload\n  dup2\n  0xffffffffffffffffffffffffffffffffffffffff\n  mul\n  not\n  and\n  swap1\n  dup4\n  0xffffffffffffffffffffffffffffffffffffffff\n  and\n  mul\n  or\n  swap1\n  sstore\n  pop\n    /* \"contracts/Marketplace2/Marketplace.sol\":17560:17568  _mainNFT */\n  dup2\n    /* \"contracts/Marketplace2/Marketplace.sol\":17541:17549  mainNFTs */\n  0x05\n  0x00\n    /* \"contracts/Marketplace2/Marketplace.sol\":17541:17569  mainNFTs = IERC721(_mainNFT) */\n  0x0100\n  exp\n  dup2\n  sload\n  dup2\n  0xffffffffffffffffffffffffffffffffffffffff\n  mul\n  not\n  and\n  swap1\n  dup4\n  0xffffffffffffffffffffffffffffffffffffffff\n  and\n  mul\n  or\n  swap1\n  sstore\n  pop\n    /* \"contracts/Marketplace2/Marketplace.sol\":17596:17608  _mainFactory */\n  dup1\n    /* \"contracts/Marketplace2/Marketplace.sol\":17577:17584  factory */\n  0x04\n  0x00\n    /* \"contracts/Marketplace2/Marketplace.sol\":17577:17609  factory = IFactory(_mainFactory) */\n  0x0100\n  exp\n  dup2\n  sload\n  dup2\n  0xffffffffffffffffffffffffffffffffffffffff\n  mul\n  not\n  and\n  swap1\n  dup4\n  0xffffffffffffffffffffffffffffffffffffffff\n  and\n  mul\n  or\n  swap1\n  sstore\n  pop\n    /* \"contracts/Marketplace2/Marketplace.sol\":17390:17616  constructor(address payable _mainToken, address payable _mainNFT, address payable _mainFactory ) payable {... */\n  pop\n  pop\n  pop\n    /* \"contracts/Marketplace2/Marketplace.sol\":17144:22643  contract NFTMarket is ReentrancyGuard,MarketplaceStorage, Ownable {... */\n  jump(tag_13)\n    /* \"contracts/Marketplace2/Marketplace.sol\":554:650  function _msgSender() internal view virtual returns (address) {... */\ntag_10:\n    /* \"contracts/Marketplace2/Marketplace.sol\":607:614  address */\n  0x00\n    /* \"contracts/Marketplace2/Marketplace.sol\":633:643  msg.sender */\n  caller\n    /* \"contracts/Marketplace2/Marketplace.sol\":626:643  return msg.sender */\n  swap1\n  pop\n    /* \"contracts/Marketplace2/Marketplace.sol\":554:650  function _msgSender() internal view virtual returns (address) {... */\n  swap1\n  jump\t// out\n    /* \"contracts/Marketplace2/Marketplace.sol\":2910:3097  function _transferOwnership(address newOwner) internal virtual {... */\ntag_11:\n    /* \"contracts/Marketplace2/Marketplace.sol\":2983:2999  address oldOwner */\n  0x00\n    /* \"contracts/Marketplace2/Marketplace.sol\":3002:3008  _owner */\n  0x06\n  0x00\n  swap1\n  sload\n  swap1\n  0x0100\n  exp\n  swap1\n  div\n  0xffffffffffffffffffffffffffffffffffffffff\n  and\n    /* \"contracts/Marketplace2/Marketplace.sol\":2983:3008  address oldOwner = _owner */\n  swap1\n  pop\n    /* \"contracts/Marketplace2/Marketplace.sol\":3027:3035  newOwner */\n  dup2\n    /* \"contracts/Marketplace2/Marketplace.sol\":3018:3024  _owner */\n  0x06\n  0x00\n    /* \"contracts/Marketplace2/Marketplace.sol\":3018:3035  _owner = newOwner */\n  0x0100\n  exp\n  dup2\n  sload\n  dup2\n  0xffffffffffffffffffffffffffffffffffffffff\n  mul\n  not\n  and\n  swap1\n  dup4\n  0xffffffffffffffffffffffffffffffffffffffff\n  and\n  mul\n  or\n  swap1\n  sstore\n  pop\n    /* \"contracts/Marketplace2/Marketplace.sol\":3081:3089  newOwner */\n  dup2\n    /* \"contracts/Marketplace2/Marketplace.sol\":3050:3090  OwnershipTransferred(oldOwner, newOwner) */\n  0xffffffffffffffffffffffffffffffffffffffff\n  and\n    /* \"contracts/Marketplace2/Marketplace.sol\":3071:3079  oldOwner */\n  dup2\n    /* \"contracts/Marketplace2/Marketplace.sol\":3050:3090  OwnershipTransferred(oldOwner, newOwner) */\n  0xffffffffffffffffffffffffffffffffffffffff\n  and\n  0x8be0079c531659141344cd1fd0a4f28419497f9722a3daafe3b4186f6b6457e0\n  mload(0x40)\n  mload(0x40)\n  dup1\n  swap2\n  sub\n  swap1\n  log3\n    /* \"contracts/Marketplace2/Marketplace.sol\":2973:3097  {... */\n  pop\n    /* \"contracts/Marketplace2/Marketplace.sol\":2910:3097  function _transferOwnership(address newOwner) internal virtual {... */\n  pop\n  jump\t// out\n    /* \"#utility.yul\":88:205   */\ntag_17:\n    /* \"#utility.yul\":197:198   */\n  0x00\n    /* \"#utility.yul\":194:195   */\n  dup1\n    /* \"#utility.yul\":187:199   */\n  revert\n    /* \"#utility.yul\":334:460   */\ntag_19:\n    /* \"#utility.yul\":371:378   */\n  0x00\n    /* \"#utility.yul\":411:453   */\n  0xffffffffffffffffffffffffffffffffffffffff\n    /* \"#utility.yul\":404:409   */\n  dup3\n    /* \"#utility.yul\":400:454   */\n  and\n    /* \"#utility.yul\":389:454   */\n  swap1\n  pop\n    /* \"#utility.yul\":334:460   */\n  swap2\n  swap1\n  pop\n  jump\t// out\n    /* \"#utility.yul\":466:570   */\ntag_20:\n    /* \"#utility.yul\":511:518   */\n  0x00\n    /* \"#utility.yul\":540:564   */\n  tag_29\n    /* \"#utility.yul\":558:563   */\n  dup3\n    /* \"#utility.yul\":540:564   */\n  tag_19\n  jump\t// in\ntag_29:\n    /* \"#utility.yul\":529:564   */\n  swap1\n  pop\n    /* \"#utility.yul\":466:570   */\n  swap2\n  swap1\n  pop\n  jump\t// out\n    /* \"#utility.yul\":576:714   */\ntag_21:\n    /* \"#utility.yul\":657:689   */\n  tag_31\n    /* \"#utility.yul\":683:688   */\n  dup2\n    /* \"#utility.yul\":657:689   */\n  tag_20\n  jump\t// in\ntag_31:\n    /* \"#utility.yul\":650:655   */\n  dup2\n    /* \"#utility.yul\":647:690   */\n  eq\n    /* \"#utility.yul\":637:708   */\n  tag_32\n  jumpi\n    /* \"#utility.yul\":704:705   */\n  0x00\n    /* \"#utility.yul\":701:702   */\n  dup1\n    /* \"#utility.yul\":694:706   */\n  revert\n    /* \"#utility.yul\":637:708   */\ntag_32:\n    /* \"#utility.yul\":576:714   */\n  pop\n  jump\t// out\n    /* \"#utility.yul\":720:879   */\ntag_22:\n    /* \"#utility.yul\":785:790   */\n  0x00\n    /* \"#utility.yul\":816:822   */\n  dup2\n    /* \"#utility.yul\":810:823   */\n  mload\n    /* \"#utility.yul\":801:823   */\n  swap1\n  pop\n    /* \"#utility.yul\":832:873   */\n  tag_34\n    /* \"#utility.yul\":867:872   */\n  dup2\n    /* \"#utility.yul\":832:873   */\n  tag_21\n  jump\t// in\ntag_34:\n    /* \"#utility.yul\":720:879   */\n  swap3\n  swap2\n  pop\n  pop\n  jump\t// out\n    /* \"#utility.yul\":885:1596   */\ntag_2:\n    /* \"#utility.yul\":997:1003   */\n  0x00\n    /* \"#utility.yul\":1005:1011   */\n  dup1\n    /* \"#utility.yul\":1013:1019   */\n  0x00\n    /* \"#utility.yul\":1062:1064   */\n  0x60\n    /* \"#utility.yul\":1050:1059   */\n  dup5\n    /* \"#utility.yul\":1041:1048   */\n  dup7\n    /* \"#utility.yul\":1037:1060   */\n  sub\n    /* \"#utility.yul\":1033:1065   */\n  slt\n    /* \"#utility.yul\":1030:1149   */\n  iszero\n  tag_36\n  jumpi\n    /* \"#utility.yul\":1068:1147   */\n  tag_37\n  tag_17\n  jump\t// in\ntag_37:\n    /* \"#utility.yul\":1030:1149   */\ntag_36:\n    /* \"#utility.yul\":1188:1189   */\n  0x00\n    /* \"#utility.yul\":1213:1285   */\n  tag_38\n    /* \"#utility.yul\":1277:1284   */\n  dup7\n    /* \"#utility.yul\":1268:1274   */\n  dup3\n    /* \"#utility.yul\":1257:1266   */\n  dup8\n    /* \"#utility.yul\":1253:1275   */\n  add\n    /* \"#utility.yul\":1213:1285   */\n  tag_22\n  jump\t// in\ntag_38:\n    /* \"#utility.yul\":1203:1285   */\n  swap4\n  pop\n    /* \"#utility.yul\":1159:1295   */\n  pop\n    /* \"#utility.yul\":1334:1336   */\n  0x20\n    /* \"#utility.yul\":1360:1432   */\n  tag_39\n    /* \"#utility.yul\":1424:1431   */\n  dup7\n    /* \"#utility.yul\":1415:1421   */\n  dup3\n    /* \"#utility.yul\":1404:1413   */\n  dup8\n    /* \"#utility.yul\":1400:1422   */\n  add\n    /* \"#utility.yul\":1360:1432   */\n  tag_22\n  jump\t// in\ntag_39:\n    /* \"#utility.yul\":1350:1432   */\n  swap3\n  pop\n    /* \"#utility.yul\":1305:1442   */\n  pop\n    /* \"#utility.yul\":1481:1483   */\n  0x40\n    /* \"#utility.yul\":1507:1579   */\n  tag_40\n    /* \"#utility.yul\":1571:1578   */\n  dup7\n    /* \"#utility.yul\":1562:1568   */\n  dup3\n    /* \"#utility.yul\":1551:1560   */\n  dup8\n    /* \"#utility.yul\":1547:1569   */\n  add\n    /* \"#utility.yul\":1507:1579   */\n  tag_22\n  jump\t// in\ntag_40:\n    /* \"#utility.yul\":1497:1579   */\n  swap2\n  pop\n    /* \"#utility.yul\":1452:1589   */\n  pop\n    /* \"#utility.yul\":885:1596   */\n  swap3\n  pop\n  swap3\n  pop\n  swap3\n  jump\t// out\n    /* \"contracts/Marketplace2/Marketplace.sol\":17144:22643  contract NFTMarket is ReentrancyGuard,MarketplaceStorage, Ownable {... */\ntag_13:\n  dataSize(sub_0)\n  dup1\n  dataOffset(sub_0)\n  0x00\n  codecopy\n  0x00\n  return\nstop\n\nsub_0: assembly {\n        /* \"contracts/Marketplace2/Marketplace.sol\":17144:22643  contract NFTMarket is ReentrancyGuard,MarketplaceStorage, Ownable {... */\n      mstore(0x40, 0x80)\n      callvalue\n      dup1\n      iszero\n      tag_1\n      jumpi\n      0x00\n      dup1\n      revert\n    tag_1:\n      pop\n      jumpi(tag_2, lt(calldatasize, 0x04))\n      shr(0xe0, calldataload(0x00))\n      dup1\n      0x8c0fb1c3\n      gt\n      tag_25\n      jumpi\n      dup1\n      0xc45a0155\n      gt\n      tag_26\n      jumpi\n      dup1\n      0xc45a0155\n      eq\n      tag_19\n      jumpi\n      dup1\n      0xc7be7a49\n      eq\n      tag_20\n      jumpi\n      dup1\n      0xe78e717d\n      eq\n      tag_21\n      jumpi\n      dup1\n      0xf2fde38b\n      eq\n      tag_22\n      jumpi\n      dup1\n      0xf55de0c7\n      eq\n      tag_23\n      jumpi\n      dup1\n      0xff68fa6e\n      eq\n      tag_24\n      jumpi\n      jump(tag_2)\n    tag_26:\n      dup1\n      0x8c0fb1c3\n      eq\n      tag_14\n      jumpi\n      dup1\n      0x8da5cb5b\n      eq\n      tag_15\n      jumpi\n      dup1\n      0xa1c11ca8\n      eq\n      tag_16\n      jumpi\n      dup1\n      0xb7a60c7e\n      eq\n      tag_17\n      jumpi\n      dup1\n      0xbfb231d2\n      eq\n      tag_18\n      jumpi\n      jump(tag_2)\n    tag_25:\n      dup1\n      0x361c1995\n      gt\n      tag_27\n      jumpi\n      dup1\n      0x361c1995\n      eq\n      tag_8\n      jumpi\n      dup1\n      0x3fc15f15\n      eq\n      tag_9\n      jumpi\n      dup1\n      0x42199f88\n      eq\n      tag_10\n      jumpi\n      dup1\n      0x5bb47808\n      eq\n      tag_11\n      jumpi\n      dup1\n      0x715018a6\n      eq\n      tag_12\n      jumpi\n      dup1\n      0x85a8b36c\n      eq\n      tag_13\n      jumpi\n      jump(tag_2)\n    tag_27:\n      dup1\n      0x10061631\n      eq\n      tag_3\n      jumpi\n      dup1\n      0x15b12494\n      eq\n      tag_4\n      jumpi\n      dup1\n      0x27ce464e\n      eq\n      tag_5\n      jumpi\n      dup1\n      0x2b4c32be\n      eq\n      tag_6\n      jumpi\n      dup1\n      0x2d923561\n      eq\n      tag_7\n      jumpi\n    tag_2:\n      0x00\n      dup1\n      revert\n        /* \"contracts/Marketplace2/Marketplace.sol\":20760:21518  function delistItem(uint256 itemId) public {... */\n    tag_3:\n      tag_28\n      0x04\n      dup1\n      calldatasize\n      sub\n      dup2\n      add\n      swap1\n      tag_29\n      swap2\n      swap1\n      tag_30\n      jump\t// in\n    tag_29:\n      tag_31\n      jump\t// in\n    tag_28:\n      stop\n        /* \"contracts/Marketplace2/Marketplace.sol\":18736:18838  function setMainNFT(address _address) external onlyOwner {... */\n    tag_4:\n      tag_32\n      0x04\n      dup1\n      calldatasize\n      sub\n      dup2\n      add\n      swap1\n      tag_33\n      swap2\n      swap1\n      tag_34\n      jump\t// in\n    tag_33:\n      tag_35\n      jump\t// in\n    tag_32:\n      stop\n        /* \"contracts/Marketplace2/Marketplace.sol\":18627:18731  function setMainToken(address _address) external onlyOwner {... */\n    tag_5:\n      tag_36\n      0x04\n      dup1\n      calldatasize\n      sub\n      dup2\n      add\n      swap1\n      tag_37\n      swap2\n      swap1\n      tag_34\n      jump\t// in\n    tag_37:\n      tag_38\n      jump\t// in\n    tag_36:\n      stop\n        /* \"contracts/Marketplace2/Marketplace.sol\":15944:16004  bytes4 public constant ERC721_Interface = bytes4(0x80ac58cd) */\n    tag_6:\n      tag_39\n      tag_40\n      jump\t// in\n    tag_39:\n      mload(0x40)\n      tag_41\n      swap2\n      swap1\n      tag_42\n      jump\t// in\n    tag_41:\n      mload(0x40)\n      dup1\n      swap2\n      sub\n      swap1\n      return\n        /* \"contracts/Marketplace2/Marketplace.sol\":18951:19176  function sellItem(... */\n    tag_7:\n      tag_43\n      0x04\n      dup1\n      calldatasize\n      sub\n      dup2\n      add\n      swap1\n      tag_44\n      swap2\n      swap1\n      tag_45\n      jump\t// in\n    tag_44:\n      tag_46\n      jump\t// in\n    tag_43:\n      stop\n        /* \"contracts/Marketplace2/Marketplace.sol\":19180:19936  function createMarketItem(... */\n    tag_8:\n      tag_47\n      0x04\n      dup1\n      calldatasize\n      sub\n      dup2\n      add\n      swap1\n      tag_48\n      swap2\n      swap1\n      tag_45\n      jump\t// in\n    tag_48:\n      tag_49\n      jump\t// in\n    tag_47:\n      stop\n        /* \"contracts/Marketplace2/Marketplace.sol\":16208:16231  IERC20 public mainToken */\n    tag_9:\n      tag_50\n      tag_51\n      jump\t// in\n    tag_50:\n      mload(0x40)\n      tag_52\n      swap2\n      swap1\n      tag_53\n      jump\t// in\n    tag_52:\n      mload(0x40)\n      dup1\n      swap2\n      sub\n      swap1\n      return\n        /* \"contracts/Marketplace2/Marketplace.sol\":17622:18478  function getMarketItem() public view returns(MarketItem[] memory) { ... */\n    tag_10:\n      tag_54\n      tag_55\n      jump\t// in\n    tag_54:\n      mload(0x40)\n      tag_56\n      swap2\n      swap1\n      tag_57\n      jump\t// in\n    tag_56:\n      mload(0x40)\n      dup1\n      swap2\n      sub\n      swap1\n      return\n        /* \"contracts/Marketplace2/Marketplace.sol\":18843:18945  function setFactory(address _address) external onlyOwner {... */\n    tag_11:\n      tag_58\n      0x04\n      dup1\n      calldatasize\n      sub\n      dup2\n      add\n      swap1\n      tag_59\n      swap2\n      swap1\n      tag_34\n      jump\t// in\n    tag_59:\n      tag_60\n      jump\t// in\n    tag_58:\n      stop\n        /* \"contracts/Marketplace2/Marketplace.sol\":2308:2409  function renounceOwnership() public virtual onlyOwner {... */\n    tag_12:\n      tag_61\n      tag_62\n      jump\t// in\n    tag_61:\n      stop\n        /* \"contracts/Marketplace2/Marketplace.sol\":16296:16322  uint8 public bnbFeePercent */\n    tag_13:\n      tag_63\n      tag_64\n      jump\t// in\n    tag_63:\n      mload(0x40)\n      tag_65\n      swap2\n      swap1\n      tag_66\n      jump\t// in\n    tag_65:\n      mload(0x40)\n      dup1\n      swap2\n      sub\n      swap1\n      return\n        /* \"contracts/Marketplace2/Marketplace.sol\":21756:22082  function _safeBuyItem(uint256 itemId,uint256 amount, uint256 tokenId ) public { ... */\n    tag_14:\n      tag_67\n      0x04\n      dup1\n      calldatasize\n      sub\n      dup2\n      add\n      swap1\n      tag_68\n      swap2\n      swap1\n      tag_69\n      jump\t// in\n    tag_68:\n      tag_70\n      jump\t// in\n    tag_67:\n      stop\n        /* \"contracts/Marketplace2/Marketplace.sol\":1676:1761  function owner() public view virtual returns (address) {... */\n    tag_15:\n      tag_71\n      tag_72\n      jump\t// in\n    tag_71:\n      mload(0x40)\n      tag_73\n      swap2\n      swap1\n      tag_74\n      jump\t// in\n    tag_73:\n      mload(0x40)\n      dup1\n      swap2\n      sub\n      swap1\n      return\n        /* \"contracts/Marketplace2/Marketplace.sol\":19939:20756  function createMarketSale(... */\n    tag_16:\n      tag_75\n      0x04\n      dup1\n      calldatasize\n      sub\n      dup2\n      add\n      swap1\n      tag_76\n      swap2\n      swap1\n      tag_45\n      jump\t// in\n    tag_76:\n      tag_77\n      jump\t// in\n    tag_75:\n      stop\n        /* \"contracts/Marketplace2/Marketplace.sol\":16328:16355  uint8 public antaFeePercent */\n    tag_17:\n      tag_78\n      tag_79\n      jump\t// in\n    tag_78:\n      mload(0x40)\n      tag_80\n      swap2\n      swap1\n      tag_66\n      jump\t// in\n    tag_80:\n      mload(0x40)\n      dup1\n      swap2\n      sub\n      swap1\n      return\n        /* \"contracts/Marketplace2/Marketplace.sol\":15913:15938  MarketItem[] public items */\n    tag_18:\n      tag_81\n      0x04\n      dup1\n      calldatasize\n      sub\n      dup2\n      add\n      swap1\n      tag_82\n      swap2\n      swap1\n      tag_30\n      jump\t// in\n    tag_82:\n      tag_83\n      jump\t// in\n    tag_81:\n      mload(0x40)\n      tag_84\n      swap7\n      swap6\n      swap5\n      swap4\n      swap3\n      swap2\n      swap1\n      tag_85\n      jump\t// in\n    tag_84:\n      mload(0x40)\n      dup1\n      swap2\n      sub\n      swap1\n      return\n        /* \"contracts/Marketplace2/Marketplace.sol\":16237:16260  IFactory public factory */\n    tag_19:\n      tag_86\n      tag_87\n      jump\t// in\n    tag_86:\n      mload(0x40)\n      tag_88\n      swap2\n      swap1\n      tag_89\n      jump\t// in\n    tag_88:\n      mload(0x40)\n      dup1\n      swap2\n      sub\n      swap1\n      return\n        /* \"contracts/Marketplace2/Marketplace.sol\":18484:18621  function getMarketItem(uint256 marketItemId) public view returns (MarketItem memory) {... */\n    tag_20:\n      tag_90\n      0x04\n      dup1\n      calldatasize\n      sub\n      dup2\n      add\n      swap1\n      tag_91\n      swap2\n      swap1\n      tag_30\n      jump\t// in\n    tag_91:\n      tag_92\n      jump\t// in\n    tag_90:\n      mload(0x40)\n      tag_93\n      swap2\n      swap1\n      tag_94\n      jump\t// in\n    tag_93:\n      mload(0x40)\n      dup1\n      swap2\n      sub\n      swap1\n      return\n        /* \"contracts/Marketplace2/Marketplace.sol\":21532:21749  function _safeTransferToMarket(uint256 tokenId) public {... */\n    tag_21:\n      tag_95\n      0x04\n      dup1\n      calldatasize\n      sub\n      dup2\n      add\n      swap1\n      tag_96\n      swap2\n      swap1\n      tag_30\n      jump\t// in\n    tag_96:\n      tag_97\n      jump\t// in\n    tag_95:\n      stop\n        /* \"contracts/Marketplace2/Marketplace.sol\":2558:2756  function transferOwnership(address newOwner) public virtual onlyOwner {... */\n    tag_22:\n      tag_98\n      0x04\n      dup1\n      calldatasize\n      sub\n      dup2\n      add\n      swap1\n      tag_99\n      swap2\n      swap1\n      tag_34\n      jump\t// in\n    tag_99:\n      tag_100\n      jump\t// in\n    tag_98:\n      stop\n        /* \"contracts/Marketplace2/Marketplace.sol\":16266:16289  IERC721 public mainNFTs */\n    tag_23:\n      tag_101\n      tag_102\n      jump\t// in\n    tag_101:\n      mload(0x40)\n      tag_103\n      swap2\n      swap1\n      tag_104\n      jump\t// in\n    tag_103:\n      mload(0x40)\n      dup1\n      swap2\n      sub\n      swap1\n      return\n        /* \"contracts/Marketplace2/Marketplace.sol\":16011:16058  mapping (uint256 => MarketItem) public allItems */\n    tag_24:\n      tag_105\n      0x04\n      dup1\n      calldatasize\n      sub\n      dup2\n      add\n      swap1\n      tag_106\n      swap2\n      swap1\n      tag_30\n      jump\t// in\n    tag_106:\n      tag_107\n      jump\t// in\n    tag_105:\n      mload(0x40)\n      tag_108\n      swap7\n      swap6\n      swap5\n      swap4\n      swap3\n      swap2\n      swap1\n      tag_85\n      jump\t// in\n    tag_108:\n      mload(0x40)\n      dup1\n      swap2\n      sub\n      swap1\n      return\n        /* \"contracts/Marketplace2/Marketplace.sol\":20760:21518  function delistItem(uint256 itemId) public {... */\n    tag_31:\n        /* \"contracts/Marketplace2/Marketplace.sol\":20813:20829  address deleteBy */\n      0x00\n        /* \"contracts/Marketplace2/Marketplace.sol\":20832:20842  msg.sender */\n      caller\n        /* \"contracts/Marketplace2/Marketplace.sol\":20813:20842  address deleteBy = msg.sender */\n      swap1\n      pop\n        /* \"contracts/Marketplace2/Marketplace.sol\":20852:20874  MarketItem memory item */\n      0x00\n        /* \"contracts/Marketplace2/Marketplace.sol\":20877:20891  idToMarketItem */\n      0x09\n        /* \"contracts/Marketplace2/Marketplace.sol\":20877:20899  idToMarketItem[itemId] */\n      0x00\n        /* \"contracts/Marketplace2/Marketplace.sol\":20892:20898  itemId */\n      dup5\n        /* \"contracts/Marketplace2/Marketplace.sol\":20877:20899  idToMarketItem[itemId] */\n      dup2\n      mstore\n      0x20\n      add\n      swap1\n      dup2\n      mstore\n      0x20\n      add\n      0x00\n      keccak256\n        /* \"contracts/Marketplace2/Marketplace.sol\":20852:20899  MarketItem memory item = idToMarketItem[itemId] */\n      mload(0x40)\n      dup1\n      0xc0\n      add\n      0x40\n      mstore\n      swap1\n      dup2\n      0x00\n      dup3\n      add\n      sload\n      dup2\n      mstore\n      0x20\n      add\n      0x01\n      dup3\n      add\n      sload\n      dup2\n      mstore\n      0x20\n      add\n      0x02\n      dup3\n      add\n      0x00\n      swap1\n      sload\n      swap1\n      0x0100\n      exp\n      swap1\n      div\n      0xffffffffffffffffffffffffffffffffffffffff\n      and\n      0xffffffffffffffffffffffffffffffffffffffff\n      and\n      0xffffffffffffffffffffffffffffffffffffffff\n      and\n      dup2\n      mstore\n      0x20\n      add\n      0x03\n      dup3\n      add\n      0x00\n      swap1\n      sload\n      swap1\n      0x0100\n      exp\n      swap1\n      div\n      0xffffffffffffffffffffffffffffffffffffffff\n      and\n      0xffffffffffffffffffffffffffffffffffffffff\n      and\n      0xffffffffffffffffffffffffffffffffffffffff\n      and\n      dup2\n      mstore\n      0x20\n      add\n      0x04\n      dup3\n      add\n      sload\n      dup2\n      mstore\n      0x20\n      add\n      0x05\n      dup3\n      add\n      0x00\n      swap1\n      sload\n      swap1\n      0x0100\n      exp\n      swap1\n      div\n      0xff\n      and\n      0x01\n      dup2\n      gt\n      iszero\n      tag_110\n      jumpi\n      tag_111\n      tag_112\n      jump\t// in\n    tag_111:\n    tag_110:\n      0x01\n      dup2\n      gt\n      iszero\n      tag_113\n      jumpi\n      tag_114\n      tag_112\n      jump\t// in\n    tag_114:\n    tag_113:\n      dup2\n      mstore\n      pop\n      pop\n      swap1\n      pop\n        /* \"contracts/Marketplace2/Marketplace.sol\":20934:20935  0 */\n      0x00\n        /* \"contracts/Marketplace2/Marketplace.sol\":20919:20923  item */\n      dup2\n        /* \"contracts/Marketplace2/Marketplace.sol\":20919:20930  item.itemId */\n      0x00\n      add\n      mload\n        /* \"contracts/Marketplace2/Marketplace.sol\":20919:20935  item.itemId != 0 */\n      sub\n        /* \"contracts/Marketplace2/Marketplace.sol\":20911:20959  require(item.itemId != 0, \"Asset not published\") */\n      tag_115\n      jumpi\n      mload(0x40)\n      0x08c379a000000000000000000000000000000000000000000000000000000000\n      dup2\n      mstore\n      0x04\n      add\n      tag_116\n      swap1\n      tag_117\n      jump\t// in\n    tag_116:\n      mload(0x40)\n      dup1\n      swap2\n      sub\n      swap1\n      revert\n    tag_115:\n        /* \"contracts/Marketplace2/Marketplace.sol\":20992:21010  ItemStatus.SELLING */\n      0x01\n        /* \"contracts/Marketplace2/Marketplace.sol\":20977:21010  item.status == ItemStatus.SELLING */\n      dup1\n      dup2\n      gt\n      iszero\n      tag_118\n      jumpi\n      tag_119\n      tag_112\n      jump\t// in\n    tag_119:\n    tag_118:\n        /* \"contracts/Marketplace2/Marketplace.sol\":20977:20981  item */\n      dup2\n        /* \"contracts/Marketplace2/Marketplace.sol\":20977:20988  item.status */\n      0xa0\n      add\n      mload\n        /* \"contracts/Marketplace2/Marketplace.sol\":20977:21010  item.status == ItemStatus.SELLING */\n      0x01\n      dup2\n      gt\n      iszero\n      tag_120\n      jumpi\n      tag_121\n      tag_112\n      jump\t// in\n    tag_121:\n    tag_120:\n      eq\n        /* \"contracts/Marketplace2/Marketplace.sol\":20969:21029  require(item.status == ItemStatus.SELLING, \"Asset delisted\") */\n      tag_122\n      jumpi\n      mload(0x40)\n      0x08c379a000000000000000000000000000000000000000000000000000000000\n      dup2\n      mstore\n      0x04\n      add\n      tag_123\n      swap1\n      tag_124\n      jump\t// in\n    tag_123:\n      mload(0x40)\n      dup1\n      swap2\n      sub\n      swap1\n      revert\n    tag_122:\n        /* \"contracts/Marketplace2/Marketplace.sol\":21040:21054  address seller */\n      0x00\n        /* \"contracts/Marketplace2/Marketplace.sol\":21057:21061  item */\n      dup2\n        /* \"contracts/Marketplace2/Marketplace.sol\":21057:21068  item.seller */\n      0x40\n      add\n      mload\n        /* \"contracts/Marketplace2/Marketplace.sol\":21040:21068  address seller = item.seller */\n      swap1\n      pop\n        /* \"contracts/Marketplace2/Marketplace.sol\":21104:21105  0 */\n      0x00\n        /* \"contracts/Marketplace2/Marketplace.sol\":21086:21106  seller != address(0) */\n      0xffffffffffffffffffffffffffffffffffffffff\n      and\n        /* \"contracts/Marketplace2/Marketplace.sol\":21086:21092  seller */\n      dup2\n        /* \"contracts/Marketplace2/Marketplace.sol\":21086:21106  seller != address(0) */\n      0xffffffffffffffffffffffffffffffffffffffff\n      and\n      sub\n        /* \"contracts/Marketplace2/Marketplace.sol\":21078:21126  require(seller != address(0), \"Invalid address\") */\n      tag_125\n      jumpi\n      mload(0x40)\n      0x08c379a000000000000000000000000000000000000000000000000000000000\n      dup2\n      mstore\n      0x04\n      add\n      tag_126\n      swap1\n      tag_127\n      jump\t// in\n    tag_126:\n      mload(0x40)\n      dup1\n      swap2\n      sub\n      swap1\n      revert\n    tag_125:\n        /* \"contracts/Marketplace2/Marketplace.sol\":21167:21177  msg.sender */\n      caller\n        /* \"contracts/Marketplace2/Marketplace.sol\":21157:21177  seller == msg.sender */\n      0xffffffffffffffffffffffffffffffffffffffff\n      and\n        /* \"contracts/Marketplace2/Marketplace.sol\":21157:21163  seller */\n      dup2\n        /* \"contracts/Marketplace2/Marketplace.sol\":21157:21177  seller == msg.sender */\n      0xffffffffffffffffffffffffffffffffffffffff\n      and\n      eq\n        /* \"contracts/Marketplace2/Marketplace.sol\":21136:21225  require(... */\n      tag_128\n      jumpi\n      mload(0x40)\n      0x08c379a000000000000000000000000000000000000000000000000000000000\n      dup2\n      mstore\n      0x04\n      add\n      tag_129\n      swap1\n      tag_130\n      jump\t// in\n    tag_129:\n      mload(0x40)\n      dup1\n      swap2\n      sub\n      swap1\n      revert\n    tag_128:\n        /* \"contracts/Marketplace2/Marketplace.sol\":21235:21243  mainNFTs */\n      0x05\n      0x00\n      swap1\n      sload\n      swap1\n      0x0100\n      exp\n      swap1\n      div\n      0xffffffffffffffffffffffffffffffffffffffff\n      and\n        /* \"contracts/Marketplace2/Marketplace.sol\":21235:21260  mainNFTs.safeTransferFrom */\n      0xffffffffffffffffffffffffffffffffffffffff\n      and\n      0x42842e0e\n        /* \"contracts/Marketplace2/Marketplace.sol\":21269:21273  this */\n      address\n        /* \"contracts/Marketplace2/Marketplace.sol\":21276:21282  seller */\n      dup4\n        /* \"contracts/Marketplace2/Marketplace.sol\":21284:21290  itemId */\n      dup8\n        /* \"contracts/Marketplace2/Marketplace.sol\":21235:21291  mainNFTs.safeTransferFrom(address(this), seller, itemId) */\n      mload(0x40)\n      dup5\n      0xffffffff\n      and\n      0xe0\n      shl\n      dup2\n      mstore\n      0x04\n      add\n      tag_131\n      swap4\n      swap3\n      swap2\n      swap1\n      tag_132\n      jump\t// in\n    tag_131:\n      0x00\n      mload(0x40)\n      dup1\n      dup4\n      sub\n      dup2\n      0x00\n      dup8\n      dup1\n      extcodesize\n      iszero\n      dup1\n      iszero\n      tag_133\n      jumpi\n      0x00\n      dup1\n      revert\n    tag_133:\n      pop\n      gas\n      call\n      iszero\n      dup1\n      iszero\n      tag_135\n      jumpi\n      returndatasize\n      0x00\n      dup1\n      returndatacopy\n      revert(0x00, returndatasize)\n    tag_135:\n      pop\n      pop\n      pop\n      pop\n        /* \"contracts/Marketplace2/Marketplace.sol\":21315:21331  ItemStatus.AVAIL */\n      0x00\n        /* \"contracts/Marketplace2/Marketplace.sol\":21301:21305  item */\n      dup3\n        /* \"contracts/Marketplace2/Marketplace.sol\":21301:21312  item.status */\n      0xa0\n      add\n        /* \"contracts/Marketplace2/Marketplace.sol\":21301:21331  item.status = ItemStatus.AVAIL */\n      swap1\n      0x01\n      dup2\n      gt\n      iszero\n      tag_136\n      jumpi\n      tag_137\n      tag_112\n      jump\t// in\n    tag_137:\n    tag_136:\n      swap1\n      dup2\n      0x01\n      dup2\n      gt\n      iszero\n      tag_138\n      jumpi\n      tag_139\n      tag_112\n      jump\t// in\n    tag_139:\n    tag_138:\n      dup2\n      mstore\n      pop\n      pop\n        /* \"contracts/Marketplace2/Marketplace.sol\":21348:21362  idToMarketItem */\n      0x09\n        /* \"contracts/Marketplace2/Marketplace.sol\":21348:21370  idToMarketItem[itemId] */\n      0x00\n        /* \"contracts/Marketplace2/Marketplace.sol\":21363:21369  itemId */\n      dup6\n        /* \"contracts/Marketplace2/Marketplace.sol\":21348:21370  idToMarketItem[itemId] */\n      dup2\n      mstore\n      0x20\n      add\n      swap1\n      dup2\n      mstore\n      0x20\n      add\n      0x00\n      keccak256\n      0x00\n        /* \"contracts/Marketplace2/Marketplace.sol\":21341:21370  delete idToMarketItem[itemId] */\n      dup1\n      dup3\n      add\n      0x00\n      swap1\n      sstore\n      0x01\n      dup3\n      add\n      0x00\n      swap1\n      sstore\n      0x02\n      dup3\n      add\n      exp(0x0100, 0x00)\n      dup2\n      sload\n      swap1\n      0xffffffffffffffffffffffffffffffffffffffff\n      mul\n      not\n      and\n      swap1\n      sstore\n      0x03\n      dup3\n      add\n      exp(0x0100, 0x00)\n      dup2\n      sload\n      swap1\n      0xffffffffffffffffffffffffffffffffffffffff\n      mul\n      not\n      and\n      swap1\n      sstore\n      0x04\n      dup3\n      add\n      0x00\n      swap1\n      sstore\n      0x05\n      dup3\n      add\n      exp(0x0100, 0x00)\n      dup2\n      sload\n      swap1\n      0xff\n      mul\n      not\n      and\n      swap1\n      sstore\n      pop\n      pop\n        /* \"contracts/Marketplace2/Marketplace.sol\":21464:21472  deleteBy */\n      dup3\n        /* \"contracts/Marketplace2/Marketplace.sol\":21385:21511  DelistItemSuccessful(... */\n      0xffffffffffffffffffffffffffffffffffffffff\n      and\n        /* \"contracts/Marketplace2/Marketplace.sol\":21444:21450  itemId */\n      dup5\n        /* \"contracts/Marketplace2/Marketplace.sol\":21385:21511  DelistItemSuccessful(... */\n      0x72ffc2a266acba5f77e2b49400103cb61b428f37a97057ebe671e83fddd71e67\n        /* \"contracts/Marketplace2/Marketplace.sol\":21419:21423  item */\n      dup5\n        /* \"contracts/Marketplace2/Marketplace.sol\":21419:21430  item.itemId */\n      0x00\n      add\n      mload\n        /* \"contracts/Marketplace2/Marketplace.sol\":21486:21501  block.timestamp */\n      timestamp\n        /* \"contracts/Marketplace2/Marketplace.sol\":21385:21511  DelistItemSuccessful(... */\n      mload(0x40)\n      tag_140\n      swap3\n      swap2\n      swap1\n      tag_141\n      jump\t// in\n    tag_140:\n      mload(0x40)\n      dup1\n      swap2\n      sub\n      swap1\n      log3\n        /* \"contracts/Marketplace2/Marketplace.sol\":20803:21518  {... */\n      pop\n      pop\n      pop\n        /* \"contracts/Marketplace2/Marketplace.sol\":20760:21518  function delistItem(uint256 itemId) public {... */\n      pop\n      jump\t// out\n        /* \"contracts/Marketplace2/Marketplace.sol\":18736:18838  function setMainNFT(address _address) external onlyOwner {... */\n    tag_35:\n        /* \"contracts/Marketplace2/Marketplace.sol\":1899:1911  _msgSender() */\n      tag_143\n        /* \"contracts/Marketplace2/Marketplace.sol\":1899:1909  _msgSender */\n      tag_144\n        /* \"contracts/Marketplace2/Marketplace.sol\":1899:1911  _msgSender() */\n      jump\t// in\n    tag_143:\n        /* \"contracts/Marketplace2/Marketplace.sol\":1888:1911  owner() == _msgSender() */\n      0xffffffffffffffffffffffffffffffffffffffff\n      and\n        /* \"contracts/Marketplace2/Marketplace.sol\":1888:1895  owner() */\n      tag_145\n        /* \"contracts/Marketplace2/Marketplace.sol\":1888:1893  owner */\n      tag_72\n        /* \"contracts/Marketplace2/Marketplace.sol\":1888:1895  owner() */\n      jump\t// in\n    tag_145:\n        /* \"contracts/Marketplace2/Marketplace.sol\":1888:1911  owner() == _msgSender() */\n      0xffffffffffffffffffffffffffffffffffffffff\n      and\n      eq\n        /* \"contracts/Marketplace2/Marketplace.sol\":1880:1948  require(owner() == _msgSender(), \"Ownable: caller is not the owner\") */\n      tag_146\n      jumpi\n      mload(0x40)\n      0x08c379a000000000000000000000000000000000000000000000000000000000\n      dup2\n      mstore\n      0x04\n      add\n      tag_147\n      swap1\n      tag_148\n      jump\t// in\n    tag_147:\n      mload(0x40)\n      dup1\n      swap2\n      sub\n      swap1\n      revert\n    tag_146:\n        /* \"contracts/Marketplace2/Marketplace.sol\":18822:18830  _address */\n      dup1\n        /* \"contracts/Marketplace2/Marketplace.sol\":18803:18811  mainNFTs */\n      0x05\n      0x00\n        /* \"contracts/Marketplace2/Marketplace.sol\":18803:18831  mainNFTs = IERC721(_address) */\n      0x0100\n      exp\n      dup2\n      sload\n      dup2\n      0xffffffffffffffffffffffffffffffffffffffff\n      mul\n      not\n      and\n      swap1\n      dup4\n      0xffffffffffffffffffffffffffffffffffffffff\n      and\n      mul\n      or\n      swap1\n      sstore\n      pop\n        /* \"contracts/Marketplace2/Marketplace.sol\":18736:18838  function setMainNFT(address _address) external onlyOwner {... */\n      pop\n      jump\t// out\n        /* \"contracts/Marketplace2/Marketplace.sol\":18627:18731  function setMainToken(address _address) external onlyOwner {... */\n    tag_38:\n        /* \"contracts/Marketplace2/Marketplace.sol\":1899:1911  _msgSender() */\n      tag_151\n        /* \"contracts/Marketplace2/Marketplace.sol\":1899:1909  _msgSender */\n      tag_144\n        /* \"contracts/Marketplace2/Marketplace.sol\":1899:1911  _msgSender() */\n      jump\t// in\n    tag_151:\n        /* \"contracts/Marketplace2/Marketplace.sol\":1888:1911  owner() == _msgSender() */\n      0xffffffffffffffffffffffffffffffffffffffff\n      and\n        /* \"contracts/Marketplace2/Marketplace.sol\":1888:1895  owner() */\n      tag_152\n        /* \"contracts/Marketplace2/Marketplace.sol\":1888:1893  owner */\n      tag_72\n        /* \"contracts/Marketplace2/Marketplace.sol\":1888:1895  owner() */\n      jump\t// in\n    tag_152:\n        /* \"contracts/Marketplace2/Marketplace.sol\":1888:1911  owner() == _msgSender() */\n      0xffffffffffffffffffffffffffffffffffffffff\n      and\n      eq\n        /* \"contracts/Marketplace2/Marketplace.sol\":1880:1948  require(owner() == _msgSender(), \"Ownable: caller is not the owner\") */\n      tag_153\n      jumpi\n      mload(0x40)\n      0x08c379a000000000000000000000000000000000000000000000000000000000\n      dup2\n      mstore\n      0x04\n      add\n      tag_154\n      swap1\n      tag_148\n      jump\t// in\n    tag_154:\n      mload(0x40)\n      dup1\n      swap2\n      sub\n      swap1\n      revert\n    tag_153:\n        /* \"contracts/Marketplace2/Marketplace.sol\":18715:18723  _address */\n      dup1\n        /* \"contracts/Marketplace2/Marketplace.sol\":18696:18705  mainToken */\n      0x03\n      0x00\n        /* \"contracts/Marketplace2/Marketplace.sol\":18696:18724  mainToken = IERC20(_address) */\n      0x0100\n      exp\n      dup2\n      sload\n      dup2\n      0xffffffffffffffffffffffffffffffffffffffff\n      mul\n      not\n      and\n      swap1\n      dup4\n      0xffffffffffffffffffffffffffffffffffffffff\n      and\n      mul\n      or\n      swap1\n      sstore\n      pop\n        /* \"contracts/Marketplace2/Marketplace.sol\":18627:18731  function setMainToken(address _address) external onlyOwner {... */\n      pop\n      jump\t// out\n        /* \"contracts/Marketplace2/Marketplace.sol\":15944:16004  bytes4 public constant ERC721_Interface = bytes4(0x80ac58cd) */\n    tag_40:\n        /* \"contracts/Marketplace2/Marketplace.sol\":15993:16003  0x80ac58cd */\n      0x80ac58cd\n        /* \"contracts/Marketplace2/Marketplace.sol\":15986:16004  bytes4(0x80ac58cd) */\n      0xe0\n      shl\n        /* \"contracts/Marketplace2/Marketplace.sol\":15944:16004  bytes4 public constant ERC721_Interface = bytes4(0x80ac58cd) */\n      dup2\n      jump\t// out\n        /* \"contracts/Marketplace2/Marketplace.sol\":18951:19176  function sellItem(... */\n    tag_46:\n        /* \"contracts/Marketplace2/Marketplace.sol\":19057:19058  0 */\n      0x00\n        /* \"contracts/Marketplace2/Marketplace.sol\":19049:19054  price */\n      dup2\n        /* \"contracts/Marketplace2/Marketplace.sol\":19049:19058  price > 0 */\n      gt\n        /* \"contracts/Marketplace2/Marketplace.sol\":19041:19092  require(price > 0 , \"Price must be at least 1 wei\") */\n      tag_157\n      jumpi\n      mload(0x40)\n      0x08c379a000000000000000000000000000000000000000000000000000000000\n      dup2\n      mstore\n      0x04\n      add\n      tag_158\n      swap1\n      tag_159\n      jump\t// in\n    tag_158:\n      mload(0x40)\n      dup1\n      swap2\n      sub\n      swap1\n      revert\n    tag_157:\n        /* \"contracts/Marketplace2/Marketplace.sol\":19102:19136  StructLib.ingameItems memory _item */\n      0x00\n        /* \"contracts/Marketplace2/Marketplace.sol\":19139:19146  factory */\n      0x04\n      0x00\n      swap1\n      sload\n      swap1\n      0x0100\n      exp\n      swap1\n      div\n      0xffffffffffffffffffffffffffffffffffffffff\n      and\n        /* \"contracts/Marketplace2/Marketplace.sol\":19139:19160  factory.getIngameItem */\n      0xffffffffffffffffffffffffffffffffffffffff\n      and\n      0x03ce1cb5\n        /* \"contracts/Marketplace2/Marketplace.sol\":19161:19168  tokenId */\n      dup5\n        /* \"contracts/Marketplace2/Marketplace.sol\":19139:19169  factory.getIngameItem(tokenId) */\n      mload(0x40)\n      dup3\n      0xffffffff\n      and\n      0xe0\n      shl\n      dup2\n      mstore\n      0x04\n      add\n      tag_160\n      swap2\n      swap1\n      tag_161\n      jump\t// in\n    tag_160:\n      0x00\n      mload(0x40)\n      dup1\n      dup4\n      sub\n      dup2\n      dup7\n      gas\n      staticcall\n      iszero\n      dup1\n      iszero\n      tag_163\n      jumpi\n      returndatasize\n      0x00\n      dup1\n      returndatacopy\n      revert(0x00, returndatasize)\n    tag_163:\n      pop\n      pop\n      pop\n      pop\n      mload(0x40)\n      returndatasize\n      0x00\n      dup3\n      returndatacopy\n      returndatasize\n      not(0x1f)\n      0x1f\n      dup3\n      add\n      and\n      dup3\n      add\n      dup1\n      0x40\n      mstore\n      pop\n      dup2\n      add\n      swap1\n      tag_164\n      swap2\n      swap1\n      tag_165\n      jump\t// in\n    tag_164:\n        /* \"contracts/Marketplace2/Marketplace.sol\":19102:19169  StructLib.ingameItems memory _item = factory.getIngameItem(tokenId) */\n      swap1\n      pop\n        /* \"contracts/Marketplace2/Marketplace.sol\":19030:19176  { ... */\n      pop\n        /* \"contracts/Marketplace2/Marketplace.sol\":18951:19176  function sellItem(... */\n      pop\n      pop\n      jump\t// out\n        /* \"contracts/Marketplace2/Marketplace.sol\":19180:19936  function createMarketItem(... */\n    tag_49:\n        /* \"contracts/Marketplace2/Marketplace.sol\":19279:19280  0 */\n      0x00\n        /* \"contracts/Marketplace2/Marketplace.sol\":19271:19276  price */\n      dup2\n        /* \"contracts/Marketplace2/Marketplace.sol\":19271:19280  price > 0 */\n      gt\n        /* \"contracts/Marketplace2/Marketplace.sol\":19263:19313  require(price > 0, \"Price must be at least 1 wei\") */\n      tag_167\n      jumpi\n      mload(0x40)\n      0x08c379a000000000000000000000000000000000000000000000000000000000\n      dup2\n      mstore\n      0x04\n      add\n      tag_168\n      swap1\n      tag_159\n      jump\t// in\n    tag_168:\n      mload(0x40)\n      dup1\n      swap2\n      sub\n      swap1\n      revert\n    tag_167:\n        /* \"contracts/Marketplace2/Marketplace.sol\":19319:19353  StructLib.ingameItems memory _item */\n      0x00\n        /* \"contracts/Marketplace2/Marketplace.sol\":19356:19363  factory */\n      0x04\n      0x00\n      swap1\n      sload\n      swap1\n      0x0100\n      exp\n      swap1\n      div\n      0xffffffffffffffffffffffffffffffffffffffff\n      and\n        /* \"contracts/Marketplace2/Marketplace.sol\":19356:19377  factory.getIngameItem */\n      0xffffffffffffffffffffffffffffffffffffffff\n      and\n      0x03ce1cb5\n        /* \"contracts/Marketplace2/Marketplace.sol\":19378:19385  tokenId */\n      dup5\n        /* \"contracts/Marketplace2/Marketplace.sol\":19356:19386  factory.getIngameItem(tokenId) */\n      mload(0x40)\n      dup3\n      0xffffffff\n      and\n      0xe0\n      shl\n      dup2\n      mstore\n      0x04\n      add\n      tag_169\n      swap2\n      swap1\n      tag_161\n      jump\t// in\n    tag_169:\n      0x00\n      mload(0x40)\n      dup1\n      dup4\n      sub\n      dup2\n      dup7\n      gas\n      staticcall\n      iszero\n      dup1\n      iszero\n      tag_171\n      jumpi\n      returndatasize\n      0x00\n      dup1\n      returndatacopy\n      revert(0x00, returndatasize)\n    tag_171:\n      pop\n      pop\n      pop\n      pop\n      mload(0x40)\n      returndatasize\n      0x00\n      dup3\n      returndatacopy\n      returndatasize\n      not(0x1f)\n      0x1f\n      dup3\n      add\n      and\n      dup3\n      add\n      dup1\n      0x40\n      mstore\n      pop\n      dup2\n      add\n      swap1\n      tag_172\n      swap2\n      swap1\n      tag_165\n      jump\t// in\n    tag_172:\n        /* \"contracts/Marketplace2/Marketplace.sol\":19319:19386  StructLib.ingameItems memory _item = factory.getIngameItem(tokenId) */\n      swap1\n      pop\n        /* \"contracts/Marketplace2/Marketplace.sol\":19416:19421  false */\n      0x00\n        /* \"contracts/Marketplace2/Marketplace.sol\":19400:19421  _item.ingame == false */\n      iszero\n      iszero\n        /* \"contracts/Marketplace2/Marketplace.sol\":19400:19405  _item */\n      dup2\n        /* \"contracts/Marketplace2/Marketplace.sol\":19400:19412  _item.ingame */\n      0x80\n      add\n      mload\n        /* \"contracts/Marketplace2/Marketplace.sol\":19400:19421  _item.ingame == false */\n      iszero\n      iszero\n      eq\n        /* \"contracts/Marketplace2/Marketplace.sol\":19392:19454  require(_item.ingame == false, \"Item is not available now !\" ) */\n      tag_173\n      jumpi\n      mload(0x40)\n      0x08c379a000000000000000000000000000000000000000000000000000000000\n      dup2\n      mstore\n      0x04\n      add\n      tag_174\n      swap1\n      tag_175\n      jump\t// in\n    tag_174:\n      mload(0x40)\n      dup1\n      swap2\n      sub\n      swap1\n      revert\n    tag_173:\n        /* \"contracts/Marketplace2/Marketplace.sol\":19460:19474  uint256 itemId */\n      0x00\n        /* \"contracts/Marketplace2/Marketplace.sol\":19477:19495  _itemIds.current() */\n      tag_176\n        /* \"contracts/Marketplace2/Marketplace.sol\":19477:19485  _itemIds */\n      0x07\n        /* \"contracts/Marketplace2/Marketplace.sol\":19477:19493  _itemIds.current */\n      tag_177\n        /* \"contracts/Marketplace2/Marketplace.sol\":19477:19495  _itemIds.current() */\n      jump\t// in\n    tag_176:\n        /* \"contracts/Marketplace2/Marketplace.sol\":19460:19495  uint256 itemId = _itemIds.current() */\n      swap1\n      pop\n        /* \"contracts/Marketplace2/Marketplace.sol\":19501:19508  factory */\n      0x04\n      0x00\n      swap1\n      sload\n      swap1\n      0x0100\n      exp\n      swap1\n      div\n      0xffffffffffffffffffffffffffffffffffffffff\n      and\n        /* \"contracts/Marketplace2/Marketplace.sol\":19501:19527  factory.setOwnerIngameItem */\n      0xffffffffffffffffffffffffffffffffffffffff\n      and\n      0xc1e9518a\n        /* \"contracts/Marketplace2/Marketplace.sol\":19536:19546  msg.sender */\n      caller\n        /* \"contracts/Marketplace2/Marketplace.sol\":19556:19560  this */\n      address\n        /* \"contracts/Marketplace2/Marketplace.sol\":19563:19570  tokenId */\n      dup8\n        /* \"contracts/Marketplace2/Marketplace.sol\":19501:19571  factory.setOwnerIngameItem(payable(msg.sender),address(this), tokenId) */\n      mload(0x40)\n      dup5\n      0xffffffff\n      and\n      0xe0\n      shl\n      dup2\n      mstore\n      0x04\n      add\n      tag_178\n      swap4\n      swap3\n      swap2\n      swap1\n      tag_179\n      jump\t// in\n    tag_178:\n      0x00\n      mload(0x40)\n      dup1\n      dup4\n      sub\n      dup2\n      0x00\n      dup8\n      dup1\n      extcodesize\n      iszero\n      dup1\n      iszero\n      tag_180\n      jumpi\n      0x00\n      dup1\n      revert\n    tag_180:\n      pop\n      gas\n      call\n      iszero\n      dup1\n      iszero\n      tag_182\n      jumpi\n      returndatasize\n      0x00\n      dup1\n      returndatacopy\n      revert(0x00, returndatasize)\n    tag_182:\n      pop\n      pop\n      pop\n      pop\n        /* \"contracts/Marketplace2/Marketplace.sol\":19577:19585  mainNFTs */\n      0x05\n      0x00\n      swap1\n      sload\n      swap1\n      0x0100\n      exp\n      swap1\n      div\n      0xffffffffffffffffffffffffffffffffffffffff\n      and\n        /* \"contracts/Marketplace2/Marketplace.sol\":19577:19598  mainNFTs.transferFrom */\n      0xffffffffffffffffffffffffffffffffffffffff\n      and\n      0x23b872dd\n        /* \"contracts/Marketplace2/Marketplace.sol\":19599:19609  msg.sender */\n      caller\n        /* \"contracts/Marketplace2/Marketplace.sol\":19619:19623  this */\n      address\n        /* \"contracts/Marketplace2/Marketplace.sol\":19626:19633  tokenId */\n      dup8\n        /* \"contracts/Marketplace2/Marketplace.sol\":19577:19634  mainNFTs.transferFrom(msg.sender, address(this), tokenId) */\n      mload(0x40)\n      dup5\n      0xffffffff\n      and\n      0xe0\n      shl\n      dup2\n      mstore\n      0x04\n      add\n      tag_183\n      swap4\n      swap3\n      swap2\n      swap1\n      tag_132\n      jump\t// in\n    tag_183:\n      0x00\n      mload(0x40)\n      dup1\n      dup4\n      sub\n      dup2\n      0x00\n      dup8\n      dup1\n      extcodesize\n      iszero\n      dup1\n      iszero\n      tag_184\n      jumpi\n      0x00\n      dup1\n      revert\n    tag_184:\n      pop\n      gas\n      call\n      iszero\n      dup1\n      iszero\n      tag_186\n      jumpi\n      returndatasize\n      0x00\n      dup1\n      returndatacopy\n      revert(0x00, returndatasize)\n    tag_186:\n      pop\n      pop\n      pop\n      pop\n        /* \"contracts/Marketplace2/Marketplace.sol\":19666:19789  MarketItem(... */\n      mload(0x40)\n      dup1\n      0xc0\n      add\n      0x40\n      mstore\n      dup1\n        /* \"contracts/Marketplace2/Marketplace.sol\":19684:19690  itemId */\n      dup3\n        /* \"contracts/Marketplace2/Marketplace.sol\":19666:19789  MarketItem(... */\n      dup2\n      mstore\n      0x20\n      add\n        /* \"contracts/Marketplace2/Marketplace.sol\":19698:19705  tokenId */\n      dup6\n        /* \"contracts/Marketplace2/Marketplace.sol\":19666:19789  MarketItem(... */\n      dup2\n      mstore\n      0x20\n      add\n        /* \"contracts/Marketplace2/Marketplace.sol\":19713:19723  msg.sender */\n      caller\n        /* \"contracts/Marketplace2/Marketplace.sol\":19666:19789  MarketItem(... */\n      0xffffffffffffffffffffffffffffffffffffffff\n      and\n      dup2\n      mstore\n      0x20\n      add\n        /* \"contracts/Marketplace2/Marketplace.sol\":19739:19743  this */\n      address\n        /* \"contracts/Marketplace2/Marketplace.sol\":19666:19789  MarketItem(... */\n      0xffffffffffffffffffffffffffffffffffffffff\n      and\n      dup2\n      mstore\n      0x20\n      add\n        /* \"contracts/Marketplace2/Marketplace.sol\":19752:19757  price */\n      dup5\n        /* \"contracts/Marketplace2/Marketplace.sol\":19666:19789  MarketItem(... */\n      dup2\n      mstore\n      0x20\n      add\n        /* \"contracts/Marketplace2/Marketplace.sol\":19765:19783  ItemStatus.SELLING */\n      0x01\n        /* \"contracts/Marketplace2/Marketplace.sol\":19666:19789  MarketItem(... */\n      dup1\n      dup2\n      gt\n      iszero\n      tag_187\n      jumpi\n      tag_188\n      tag_112\n      jump\t// in\n    tag_188:\n    tag_187:\n      dup2\n      mstore\n      pop\n        /* \"contracts/Marketplace2/Marketplace.sol\":19640:19654  idToMarketItem */\n      0x09\n        /* \"contracts/Marketplace2/Marketplace.sol\":19640:19662  idToMarketItem[itemId] */\n      0x00\n        /* \"contracts/Marketplace2/Marketplace.sol\":19655:19661  itemId */\n      dup4\n        /* \"contracts/Marketplace2/Marketplace.sol\":19640:19662  idToMarketItem[itemId] */\n      dup2\n      mstore\n      0x20\n      add\n      swap1\n      dup2\n      mstore\n      0x20\n      add\n      0x00\n      keccak256\n        /* \"contracts/Marketplace2/Marketplace.sol\":19640:19789  idToMarketItem[itemId] =  MarketItem(... */\n      0x00\n      dup3\n      add\n      mload\n      dup2\n      0x00\n      add\n      sstore\n      0x20\n      dup3\n      add\n      mload\n      dup2\n      0x01\n      add\n      sstore\n      0x40\n      dup3\n      add\n      mload\n      dup2\n      0x02\n      add\n      exp(0x0100, 0x00)\n      dup2\n      sload\n      dup2\n      0xffffffffffffffffffffffffffffffffffffffff\n      mul\n      not\n      and\n      swap1\n      dup4\n      0xffffffffffffffffffffffffffffffffffffffff\n      and\n      mul\n      or\n      swap1\n      sstore\n      pop\n      0x60\n      dup3\n      add\n      mload\n      dup2\n      0x03\n      add\n      exp(0x0100, 0x00)\n      dup2\n      sload\n      dup2\n      0xffffffffffffffffffffffffffffffffffffffff\n      mul\n      not\n      and\n      swap1\n      dup4\n      0xffffffffffffffffffffffffffffffffffffffff\n      and\n      mul\n      or\n      swap1\n      sstore\n      pop\n      0x80\n      dup3\n      add\n      mload\n      dup2\n      0x04\n      add\n      sstore\n      0xa0\n      dup3\n      add\n      mload\n      dup2\n      0x05\n      add\n      exp(0x0100, 0x00)\n      dup2\n      sload\n      dup2\n      0xff\n      mul\n      not\n      and\n      swap1\n      dup4\n      0x01\n      dup2\n      gt\n      iszero\n      tag_189\n      jumpi\n      tag_190\n      tag_112\n      jump\t// in\n    tag_190:\n    tag_189:\n      mul\n      or\n      swap1\n      sstore\n      pop\n      swap1\n      pop\n      pop\n        /* \"contracts/Marketplace2/Marketplace.sol\":19795:19815  _itemIds.increment() */\n      tag_191\n        /* \"contracts/Marketplace2/Marketplace.sol\":19795:19803  _itemIds */\n      0x07\n        /* \"contracts/Marketplace2/Marketplace.sol\":19795:19813  _itemIds.increment */\n      tag_192\n        /* \"contracts/Marketplace2/Marketplace.sol\":19795:19815  _itemIds.increment() */\n      jump\t// in\n    tag_191:\n        /* \"contracts/Marketplace2/Marketplace.sol\":19866:19873  tokenId */\n      dup4\n        /* \"contracts/Marketplace2/Marketplace.sol\":19852:19858  itemId */\n      dup2\n        /* \"contracts/Marketplace2/Marketplace.sol\":19827:19931  MarketItemCreated(... */\n      0x38690a554ffbc44eb6a75016e47d517d0db8e6c37494adc68d6d0b2c66f0ab21\n        /* \"contracts/Marketplace2/Marketplace.sol\":19881:19891  msg.sender */\n      caller\n        /* \"contracts/Marketplace2/Marketplace.sol\":19907:19911  this */\n      address\n        /* \"contracts/Marketplace2/Marketplace.sol\":19920:19925  price */\n      dup8\n        /* \"contracts/Marketplace2/Marketplace.sol\":19827:19931  MarketItemCreated(... */\n      mload(0x40)\n      tag_193\n      swap4\n      swap3\n      swap2\n      swap1\n      tag_132\n      jump\t// in\n    tag_193:\n      mload(0x40)\n      dup1\n      swap2\n      sub\n      swap1\n      log3\n        /* \"contracts/Marketplace2/Marketplace.sol\":19257:19936  {... */\n      pop\n      pop\n        /* \"contracts/Marketplace2/Marketplace.sol\":19180:19936  function createMarketItem(... */\n      pop\n      pop\n      jump\t// out\n        /* \"contracts/Marketplace2/Marketplace.sol\":16208:16231  IERC20 public mainToken */\n    tag_51:\n      0x03\n      0x00\n      swap1\n      sload\n      swap1\n      0x0100\n      exp\n      swap1\n      div\n      0xffffffffffffffffffffffffffffffffffffffff\n      and\n      dup2\n      jump\t// out\n        /* \"contracts/Marketplace2/Marketplace.sol\":17622:18478  function getMarketItem() public view returns(MarketItem[] memory) { ... */\n    tag_55:\n        /* \"contracts/Marketplace2/Marketplace.sol\":17667:17686  MarketItem[] memory */\n      0x60\n        /* \"contracts/Marketplace2/Marketplace.sol\":17703:17722  uint totalItemCount */\n      0x00\n        /* \"contracts/Marketplace2/Marketplace.sol\":17725:17743  _itemIds.current() */\n      tag_195\n        /* \"contracts/Marketplace2/Marketplace.sol\":17725:17733  _itemIds */\n      0x07\n        /* \"contracts/Marketplace2/Marketplace.sol\":17725:17741  _itemIds.current */\n      tag_177\n        /* \"contracts/Marketplace2/Marketplace.sol\":17725:17743  _itemIds.current() */\n      jump\t// in\n    tag_195:\n        /* \"contracts/Marketplace2/Marketplace.sol\":17703:17743  uint totalItemCount = _itemIds.current() */\n      swap1\n      pop\n        /* \"contracts/Marketplace2/Marketplace.sol\":17757:17771  uint itemCount */\n      0x00\n        /* \"contracts/Marketplace2/Marketplace.sol\":17789:17806  uint currentIndex */\n      dup1\n        /* \"contracts/Marketplace2/Marketplace.sol\":17840:17846  uint i */\n      0x00\n        /* \"contracts/Marketplace2/Marketplace.sol\":17835:18012  for (uint i = 0; i < totalItemCount; i++) {... */\n    tag_196:\n        /* \"contracts/Marketplace2/Marketplace.sol\":17856:17870  totalItemCount */\n      dup4\n        /* \"contracts/Marketplace2/Marketplace.sol\":17852:17853  i */\n      dup2\n        /* \"contracts/Marketplace2/Marketplace.sol\":17852:17870  i < totalItemCount */\n      lt\n        /* \"contracts/Marketplace2/Marketplace.sol\":17835:18012  for (uint i = 0; i < totalItemCount; i++) {... */\n      iszero\n      tag_197\n      jumpi\n        /* \"contracts/Marketplace2/Marketplace.sol\":17927:17945  ItemStatus.SELLING */\n      0x01\n        /* \"contracts/Marketplace2/Marketplace.sol\":17899:17945  idToMarketItem[i].status == ItemStatus.SELLING */\n      dup1\n      dup2\n      gt\n      iszero\n      tag_199\n      jumpi\n      tag_200\n      tag_112\n      jump\t// in\n    tag_200:\n    tag_199:\n        /* \"contracts/Marketplace2/Marketplace.sol\":17899:17913  idToMarketItem */\n      0x09\n        /* \"contracts/Marketplace2/Marketplace.sol\":17899:17916  idToMarketItem[i] */\n      0x00\n        /* \"contracts/Marketplace2/Marketplace.sol\":17914:17915  i */\n      dup4\n        /* \"contracts/Marketplace2/Marketplace.sol\":17899:17916  idToMarketItem[i] */\n      dup2\n      mstore\n      0x20\n      add\n      swap1\n      dup2\n      mstore\n      0x20\n      add\n      0x00\n      keccak256\n        /* \"contracts/Marketplace2/Marketplace.sol\":17899:17923  idToMarketItem[i].status */\n      0x05\n      add\n      0x00\n      swap1\n      sload\n      swap1\n      0x0100\n      exp\n      swap1\n      div\n      0xff\n      and\n        /* \"contracts/Marketplace2/Marketplace.sol\":17899:17945  idToMarketItem[i].status == ItemStatus.SELLING */\n      0x01\n      dup2\n      gt\n      iszero\n      tag_201\n      jumpi\n      tag_202\n      tag_112\n      jump\t// in\n    tag_202:\n    tag_201:\n      sub\n        /* \"contracts/Marketplace2/Marketplace.sol\":17895:17998  if (idToMarketItem[i].status == ItemStatus.SELLING) {... */\n      tag_203\n      jumpi\n        /* \"contracts/Marketplace2/Marketplace.sol\":17978:17979  1 */\n      0x01\n        /* \"contracts/Marketplace2/Marketplace.sol\":17965:17979  itemCount += 1 */\n      dup4\n      tag_204\n      swap2\n      swap1\n      tag_205\n      jump\t// in\n    tag_204:\n      swap3\n      pop\n        /* \"contracts/Marketplace2/Marketplace.sol\":17895:17998  if (idToMarketItem[i].status == ItemStatus.SELLING) {... */\n    tag_203:\n        /* \"contracts/Marketplace2/Marketplace.sol\":17872:17875  i++ */\n      dup1\n      dup1\n      tag_206\n      swap1\n      tag_207\n      jump\t// in\n    tag_206:\n      swap2\n      pop\n      pop\n        /* \"contracts/Marketplace2/Marketplace.sol\":17835:18012  for (uint i = 0; i < totalItemCount; i++) {... */\n      jump(tag_196)\n    tag_197:\n      pop\n        /* \"contracts/Marketplace2/Marketplace.sol\":18025:18050  MarketItem[] memory items */\n      0x00\n        /* \"contracts/Marketplace2/Marketplace.sol\":18070:18079  itemCount */\n      dup3\n        /* \"contracts/Marketplace2/Marketplace.sol\":18053:18080  new MarketItem[](itemCount) */\n      0xffffffffffffffff\n      dup2\n      gt\n      iszero\n      tag_208\n      jumpi\n      tag_209\n      tag_210\n      jump\t// in\n    tag_209:\n    tag_208:\n      mload(0x40)\n      swap1\n      dup1\n      dup3\n      mstore\n      dup1\n      0x20\n      mul\n      0x20\n      add\n      dup3\n      add\n      0x40\n      mstore\n      dup1\n      iszero\n      tag_211\n      jumpi\n      dup2\n      0x20\n      add\n    tag_212:\n      tag_213\n      tag_214\n      jump\t// in\n    tag_213:\n      dup2\n      mstore\n      0x20\n      add\n      swap1\n      0x01\n      swap1\n      sub\n      swap1\n      dup2\n      tag_212\n      jumpi\n      swap1\n      pop\n    tag_211:\n      pop\n        /* \"contracts/Marketplace2/Marketplace.sol\":18025:18080  MarketItem[] memory items = new MarketItem[](itemCount) */\n      swap1\n      pop\n        /* \"contracts/Marketplace2/Marketplace.sol\":18099:18105  uint i */\n      0x00\n        /* \"contracts/Marketplace2/Marketplace.sol\":18094:18450  for (uint i = 0; i < totalItemCount; i++) {... */\n    tag_215:\n        /* \"contracts/Marketplace2/Marketplace.sol\":18115:18129  totalItemCount */\n      dup5\n        /* \"contracts/Marketplace2/Marketplace.sol\":18111:18112  i */\n      dup2\n        /* \"contracts/Marketplace2/Marketplace.sol\":18111:18129  i < totalItemCount */\n      lt\n        /* \"contracts/Marketplace2/Marketplace.sol\":18094:18450  for (uint i = 0; i < totalItemCount; i++) {... */\n      iszero\n      tag_216\n      jumpi\n        /* \"contracts/Marketplace2/Marketplace.sol\":18183:18201  ItemStatus.SELLING */\n      0x01\n        /* \"contracts/Marketplace2/Marketplace.sol\":18155:18201  idToMarketItem[i].status == ItemStatus.SELLING */\n      dup1\n      dup2\n      gt\n      iszero\n      tag_218\n      jumpi\n      tag_219\n      tag_112\n      jump\t// in\n    tag_219:\n    tag_218:\n        /* \"contracts/Marketplace2/Marketplace.sol\":18155:18169  idToMarketItem */\n      0x09\n        /* \"contracts/Marketplace2/Marketplace.sol\":18155:18172  idToMarketItem[i] */\n      0x00\n        /* \"contracts/Marketplace2/Marketplace.sol\":18170:18171  i */\n      dup4\n        /* \"contracts/Marketplace2/Marketplace.sol\":18155:18172  idToMarketItem[i] */\n      dup2\n      mstore\n      0x20\n      add\n      swap1\n      dup2\n      mstore\n      0x20\n      add\n      0x00\n      keccak256\n        /* \"contracts/Marketplace2/Marketplace.sol\":18155:18179  idToMarketItem[i].status */\n      0x05\n      add\n      0x00\n      swap1\n      sload\n      swap1\n      0x0100\n      exp\n      swap1\n      div\n      0xff\n      and\n        /* \"contracts/Marketplace2/Marketplace.sol\":18155:18201  idToMarketItem[i].status == ItemStatus.SELLING */\n      0x01\n      dup2\n      gt\n      iszero\n      tag_220\n      jumpi\n      tag_221\n      tag_112\n      jump\t// in\n    tag_221:\n    tag_220:\n      sub\n        /* \"contracts/Marketplace2/Marketplace.sol\":18150:18440  if ( idToMarketItem[i].status == ItemStatus.SELLING) {... */\n      tag_222\n      jumpi\n        /* \"contracts/Marketplace2/Marketplace.sol\":18222:18236  uint currentId */\n      0x00\n        /* \"contracts/Marketplace2/Marketplace.sol\":18239:18253  idToMarketItem */\n      0x09\n        /* \"contracts/Marketplace2/Marketplace.sol\":18239:18256  idToMarketItem[i] */\n      0x00\n        /* \"contracts/Marketplace2/Marketplace.sol\":18254:18255  i */\n      dup4\n        /* \"contracts/Marketplace2/Marketplace.sol\":18239:18256  idToMarketItem[i] */\n      dup2\n      mstore\n      0x20\n      add\n      swap1\n      dup2\n      mstore\n      0x20\n      add\n      0x00\n      keccak256\n        /* \"contracts/Marketplace2/Marketplace.sol\":18239:18263  idToMarketItem[i].itemId */\n      0x00\n      add\n      sload\n        /* \"contracts/Marketplace2/Marketplace.sol\":18222:18263  uint currentId = idToMarketItem[i].itemId */\n      swap1\n      pop\n        /* \"contracts/Marketplace2/Marketplace.sol\":18281:18311  MarketItem storage currentItem */\n      0x00\n        /* \"contracts/Marketplace2/Marketplace.sol\":18314:18328  idToMarketItem */\n      0x09\n        /* \"contracts/Marketplace2/Marketplace.sol\":18314:18339  idToMarketItem[currentId] */\n      0x00\n        /* \"contracts/Marketplace2/Marketplace.sol\":18329:18338  currentId */\n      dup4\n        /* \"contracts/Marketplace2/Marketplace.sol\":18314:18339  idToMarketItem[currentId] */\n      dup2\n      mstore\n      0x20\n      add\n      swap1\n      dup2\n      mstore\n      0x20\n      add\n      0x00\n      keccak256\n        /* \"contracts/Marketplace2/Marketplace.sol\":18281:18339  MarketItem storage currentItem = idToMarketItem[currentId] */\n      swap1\n      pop\n        /* \"contracts/Marketplace2/Marketplace.sol\":18379:18390  currentItem */\n      dup1\n        /* \"contracts/Marketplace2/Marketplace.sol\":18357:18390  items[currentIndex] = currentItem */\n      mload(0x40)\n      dup1\n      0xc0\n      add\n      0x40\n      mstore\n      swap1\n      dup2\n      0x00\n      dup3\n      add\n      sload\n      dup2\n      mstore\n      0x20\n      add\n      0x01\n      dup3\n      add\n      sload\n      dup2\n      mstore\n      0x20\n      add\n      0x02\n      dup3\n      add\n      0x00\n      swap1\n      sload\n      swap1\n      0x0100\n      exp\n      swap1\n      div\n      0xffffffffffffffffffffffffffffffffffffffff\n      and\n      0xffffffffffffffffffffffffffffffffffffffff\n      and\n      0xffffffffffffffffffffffffffffffffffffffff\n      and\n      dup2\n      mstore\n      0x20\n      add\n      0x03\n      dup3\n      add\n      0x00\n      swap1\n      sload\n      swap1\n      0x0100\n      exp\n      swap1\n      div\n      0xffffffffffffffffffffffffffffffffffffffff\n      and\n      0xffffffffffffffffffffffffffffffffffffffff\n      and\n      0xffffffffffffffffffffffffffffffffffffffff\n      and\n      dup2\n      mstore\n      0x20\n      add\n      0x04\n      dup3\n      add\n      sload\n      dup2\n      mstore\n      0x20\n      add\n      0x05\n      dup3\n      add\n      0x00\n      swap1\n      sload\n      swap1\n      0x0100\n      exp\n      swap1\n      div\n      0xff\n      and\n      0x01\n      dup2\n      gt\n      iszero\n      tag_223\n      jumpi\n      tag_224\n      tag_112\n      jump\t// in\n    tag_224:\n    tag_223:\n      0x01\n      dup2\n      gt\n      iszero\n      tag_225\n      jumpi\n      tag_226\n      tag_112\n      jump\t// in\n    tag_226:\n    tag_225:\n      dup2\n      mstore\n      pop\n      pop\n        /* \"contracts/Marketplace2/Marketplace.sol\":18357:18362  items */\n      dup5\n        /* \"contracts/Marketplace2/Marketplace.sol\":18363:18375  currentIndex */\n      dup7\n        /* \"contracts/Marketplace2/Marketplace.sol\":18357:18376  items[currentIndex] */\n      dup2\n      mload\n      dup2\n      lt\n      tag_227\n      jumpi\n      tag_228\n      tag_229\n      jump\t// in\n    tag_228:\n    tag_227:\n      0x20\n      mul\n      0x20\n      add\n      add\n        /* \"contracts/Marketplace2/Marketplace.sol\":18357:18390  items[currentIndex] = currentItem */\n      dup2\n      swap1\n      mstore\n      pop\n        /* \"contracts/Marketplace2/Marketplace.sol\":18424:18425  1 */\n      0x01\n        /* \"contracts/Marketplace2/Marketplace.sol\":18408:18425  currentIndex += 1 */\n      dup6\n      tag_230\n      swap2\n      swap1\n      tag_205\n      jump\t// in\n    tag_230:\n      swap5\n      pop\n        /* \"contracts/Marketplace2/Marketplace.sol\":18203:18440  {... */\n      pop\n      pop\n        /* \"contracts/Marketplace2/Marketplace.sol\":18150:18440  if ( idToMarketItem[i].status == ItemStatus.SELLING) {... */\n    tag_222:\n        /* \"contracts/Marketplace2/Marketplace.sol\":18131:18134  i++ */\n      dup1\n      dup1\n      tag_231\n      swap1\n      tag_207\n      jump\t// in\n    tag_231:\n      swap2\n      pop\n      pop\n        /* \"contracts/Marketplace2/Marketplace.sol\":18094:18450  for (uint i = 0; i < totalItemCount; i++) {... */\n      jump(tag_215)\n    tag_216:\n      pop\n        /* \"contracts/Marketplace2/Marketplace.sol\":18466:18471  items */\n      dup1\n        /* \"contracts/Marketplace2/Marketplace.sol\":18459:18471  return items */\n      swap5\n      pop\n      pop\n      pop\n      pop\n      pop\n        /* \"contracts/Marketplace2/Marketplace.sol\":17622:18478  function getMarketItem() public view returns(MarketItem[] memory) { ... */\n      swap1\n      jump\t// out\n        /* \"contracts/Marketplace2/Marketplace.sol\":18843:18945  function setFactory(address _address) external onlyOwner {... */\n    tag_60:\n        /* \"contracts/Marketplace2/Marketplace.sol\":1899:1911  _msgSender() */\n      tag_233\n        /* \"contracts/Marketplace2/Marketplace.sol\":1899:1909  _msgSender */\n      tag_144\n        /* \"contracts/Marketplace2/Marketplace.sol\":1899:1911  _msgSender() */\n      jump\t// in\n    tag_233:\n        /* \"contracts/Marketplace2/Marketplace.sol\":1888:1911  owner() == _msgSender() */\n      0xffffffffffffffffffffffffffffffffffffffff\n      and\n        /* \"contracts/Marketplace2/Marketplace.sol\":1888:1895  owner() */\n      tag_234\n        /* \"contracts/Marketplace2/Marketplace.sol\":1888:1893  owner */\n      tag_72\n        /* \"contracts/Marketplace2/Marketplace.sol\":1888:1895  owner() */\n      jump\t// in\n    tag_234:\n        /* \"contracts/Marketplace2/Marketplace.sol\":1888:1911  owner() == _msgSender() */\n      0xffffffffffffffffffffffffffffffffffffffff\n      and\n      eq\n        /* \"contracts/Marketplace2/Marketplace.sol\":1880:1948  require(owner() == _msgSender(), \"Ownable: caller is not the owner\") */\n      tag_235\n      jumpi\n      mload(0x40)\n      0x08c379a000000000000000000000000000000000000000000000000000000000\n      dup2\n      mstore\n      0x04\n      add\n      tag_236\n      swap1\n      tag_148\n      jump\t// in\n    tag_236:\n      mload(0x40)\n      dup1\n      swap2\n      sub\n      swap1\n      revert\n    tag_235:\n        /* \"contracts/Marketplace2/Marketplace.sol\":18929:18937  _address */\n      dup1\n        /* \"contracts/Marketplace2/Marketplace.sol\":18910:18917  factory */\n      0x04\n      0x00\n        /* \"contracts/Marketplace2/Marketplace.sol\":18910:18938  factory = IFactory(_address) */\n      0x0100\n      exp\n      dup2\n      sload\n      dup2\n      0xffffffffffffffffffffffffffffffffffffffff\n      mul\n      not\n      and\n      swap1\n      dup4\n      0xffffffffffffffffffffffffffffffffffffffff\n      and\n      mul\n      or\n      swap1\n      sstore\n      pop\n        /* \"contracts/Marketplace2/Marketplace.sol\":18843:18945  function setFactory(address _address) external onlyOwner {... */\n      pop\n      jump\t// out\n        /* \"contracts/Marketplace2/Marketplace.sol\":2308:2409  function renounceOwnership() public virtual onlyOwner {... */\n    tag_62:\n        /* \"contracts/Marketplace2/Marketplace.sol\":1899:1911  _msgSender() */\n      tag_239\n        /* \"contracts/Marketplace2/Marketplace.sol\":1899:1909  _msgSender */\n      tag_144\n        /* \"contracts/Marketplace2/Marketplace.sol\":1899:1911  _msgSender() */\n      jump\t// in\n    tag_239:\n        /* \"contracts/Marketplace2/Marketplace.sol\":1888:1911  owner() == _msgSender() */\n      0xffffffffffffffffffffffffffffffffffffffff\n      and\n        /* \"contracts/Marketplace2/Marketplace.sol\":1888:1895  owner() */\n      tag_240\n        /* \"contracts/Marketplace2/Marketplace.sol\":1888:1893  owner */\n      tag_72\n        /* \"contracts/Marketplace2/Marketplace.sol\":1888:1895  owner() */\n      jump\t// in\n    tag_240:\n        /* \"contracts/Marketplace2/Marketplace.sol\":1888:1911  owner() == _msgSender() */\n      0xffffffffffffffffffffffffffffffffffffffff\n      and\n      eq\n        /* \"contracts/Marketplace2/Marketplace.sol\":1880:1948  require(owner() == _msgSender(), \"Ownable: caller is not the owner\") */\n      tag_241\n      jumpi\n      mload(0x40)\n      0x08c379a000000000000000000000000000000000000000000000000000000000\n      dup2\n      mstore\n      0x04\n      add\n      tag_242\n      swap1\n      tag_148\n      jump\t// in\n    tag_242:\n      mload(0x40)\n      dup1\n      swap2\n      sub\n      swap1\n      revert\n    tag_241:\n        /* \"contracts/Marketplace2/Marketplace.sol\":2372:2402  _transferOwnership(address(0)) */\n      tag_244\n        /* \"contracts/Marketplace2/Marketplace.sol\":2399:2400  0 */\n      0x00\n        /* \"contracts/Marketplace2/Marketplace.sol\":2372:2390  _transferOwnership */\n      tag_245\n        /* \"contracts/Marketplace2/Marketplace.sol\":2372:2402  _transferOwnership(address(0)) */\n      jump\t// in\n    tag_244:\n        /* \"contracts/Marketplace2/Marketplace.sol\":2308:2409  function renounceOwnership() public virtual onlyOwner {... */\n      jump\t// out\n        /* \"contracts/Marketplace2/Marketplace.sol\":16296:16322  uint8 public bnbFeePercent */\n    tag_64:\n      0x05\n      0x14\n      swap1\n      sload\n      swap1\n      0x0100\n      exp\n      swap1\n      div\n      0xff\n      and\n      dup2\n      jump\t// out\n        /* \"contracts/Marketplace2/Marketplace.sol\":21756:22082  function _safeBuyItem(uint256 itemId,uint256 amount, uint256 tokenId ) public { ... */\n    tag_70:\n        /* \"contracts/Marketplace2/Marketplace.sol\":21845:21854  mainToken */\n      0x03\n      0x00\n      swap1\n      sload\n      swap1\n      0x0100\n      exp\n      swap1\n      div\n      0xffffffffffffffffffffffffffffffffffffffff\n      and\n        /* \"contracts/Marketplace2/Marketplace.sol\":21845:21867  mainToken.transferFrom */\n      0xffffffffffffffffffffffffffffffffffffffff\n      and\n      0x23b872dd\n        /* \"contracts/Marketplace2/Marketplace.sol\":21868:21878  msg.sender */\n      caller\n        /* \"contracts/Marketplace2/Marketplace.sol\":21880:21894  idToMarketItem */\n      0x09\n        /* \"contracts/Marketplace2/Marketplace.sol\":21880:21902  idToMarketItem[itemId] */\n      0x00\n        /* \"contracts/Marketplace2/Marketplace.sol\":21895:21901  itemId */\n      dup8\n        /* \"contracts/Marketplace2/Marketplace.sol\":21880:21902  idToMarketItem[itemId] */\n      dup2\n      mstore\n      0x20\n      add\n      swap1\n      dup2\n      mstore\n      0x20\n      add\n      0x00\n      keccak256\n        /* \"contracts/Marketplace2/Marketplace.sol\":21880:21909  idToMarketItem[itemId].seller */\n      0x02\n      add\n      0x00\n      swap1\n      sload\n      swap1\n      0x0100\n      exp\n      swap1\n      div\n      0xffffffffffffffffffffffffffffffffffffffff\n      and\n        /* \"contracts/Marketplace2/Marketplace.sol\":21912:21918  amount */\n      dup6\n        /* \"contracts/Marketplace2/Marketplace.sol\":21845:21919  mainToken.transferFrom(msg.sender, idToMarketItem[itemId].seller , amount) */\n      mload(0x40)\n      dup5\n      0xffffffff\n      and\n      0xe0\n      shl\n      dup2\n      mstore\n      0x04\n      add\n      tag_247\n      swap4\n      swap3\n      swap2\n      swap1\n      tag_132\n      jump\t// in\n    tag_247:\n      0x20\n      mload(0x40)\n      dup1\n      dup4\n      sub\n      dup2\n      0x00\n      dup8\n      gas\n      call\n      iszero\n      dup1\n      iszero\n      tag_249\n      jumpi\n      returndatasize\n      0x00\n      dup1\n      returndatacopy\n      revert(0x00, returndatasize)\n    tag_249:\n      pop\n      pop\n      pop\n      pop\n      mload(0x40)\n      returndatasize\n      not(0x1f)\n      0x1f\n      dup3\n      add\n      and\n      dup3\n      add\n      dup1\n      0x40\n      mstore\n      pop\n      dup2\n      add\n      swap1\n      tag_250\n      swap2\n      swap1\n      tag_251\n      jump\t// in\n    tag_250:\n      pop\n        /* \"contracts/Marketplace2/Marketplace.sol\":21929:21936  factory */\n      0x04\n      0x00\n      swap1\n      sload\n      swap1\n      0x0100\n      exp\n      swap1\n      div\n      0xffffffffffffffffffffffffffffffffffffffff\n      and\n        /* \"contracts/Marketplace2/Marketplace.sol\":21929:21955  factory.setOwnerIngameItem */\n      0xffffffffffffffffffffffffffffffffffffffff\n      and\n      0xc1e9518a\n        /* \"contracts/Marketplace2/Marketplace.sol\":21964:21974  msg.sender */\n      caller\n        /* \"contracts/Marketplace2/Marketplace.sol\":21984:21988  this */\n      address\n        /* \"contracts/Marketplace2/Marketplace.sol\":21991:21998  tokenId */\n      dup5\n        /* \"contracts/Marketplace2/Marketplace.sol\":21929:21999  factory.setOwnerIngameItem(payable(msg.sender),address(this), tokenId) */\n      mload(0x40)\n      dup5\n      0xffffffff\n      and\n      0xe0\n      shl\n      dup2\n      mstore\n      0x04\n      add\n      tag_252\n      swap4\n      swap3\n      swap2\n      swap1\n      tag_179\n      jump\t// in\n    tag_252:\n      0x00\n      mload(0x40)\n      dup1\n      dup4\n      sub\n      dup2\n      0x00\n      dup8\n      dup1\n      extcodesize\n      iszero\n      dup1\n      iszero\n      tag_253\n      jumpi\n      0x00\n      dup1\n      revert\n    tag_253:\n      pop\n      gas\n      call\n      iszero\n      dup1\n      iszero\n      tag_255\n      jumpi\n      returndatasize\n      0x00\n      dup1\n      returndatacopy\n      revert(0x00, returndatasize)\n    tag_255:\n      pop\n      pop\n      pop\n      pop\n        /* \"contracts/Marketplace2/Marketplace.sol\":22009:22017  mainNFTs */\n      0x05\n      0x00\n      swap1\n      sload\n      swap1\n      0x0100\n      exp\n      swap1\n      div\n      0xffffffffffffffffffffffffffffffffffffffff\n      and\n        /* \"contracts/Marketplace2/Marketplace.sol\":22009:22030  mainNFTs.transferFrom */\n      0xffffffffffffffffffffffffffffffffffffffff\n      and\n      0x23b872dd\n        /* \"contracts/Marketplace2/Marketplace.sol\":22039:22043  this */\n      address\n        /* \"contracts/Marketplace2/Marketplace.sol\":22054:22064  msg.sender */\n      caller\n        /* \"contracts/Marketplace2/Marketplace.sol\":22067:22074  tokenId */\n      dup5\n        /* \"contracts/Marketplace2/Marketplace.sol\":22009:22075  mainNFTs.transferFrom(address(this), address(msg.sender), tokenId) */\n      mload(0x40)\n      dup5\n      0xffffffff\n      and\n      0xe0\n      shl\n      dup2\n      mstore\n      0x04\n      add\n      tag_256\n      swap4\n      swap3\n      swap2\n      swap1\n      tag_132\n      jump\t// in\n    tag_256:\n      0x00\n      mload(0x40)\n      dup1\n      dup4\n      sub\n      dup2\n      0x00\n      dup8\n      dup1\n      extcodesize\n      iszero\n      dup1\n      iszero\n      tag_257\n      jumpi\n      0x00\n      dup1\n      revert\n    tag_257:\n      pop\n      gas\n      call\n      iszero\n      dup1\n      iszero\n      tag_259\n      jumpi\n      returndatasize\n      0x00\n      dup1\n      returndatacopy\n      revert(0x00, returndatasize)\n    tag_259:\n      pop\n      pop\n      pop\n      pop\n        /* \"contracts/Marketplace2/Marketplace.sol\":21756:22082  function _safeBuyItem(uint256 itemId,uint256 amount, uint256 tokenId ) public { ... */\n      pop\n      pop\n      pop\n      jump\t// out\n        /* \"contracts/Marketplace2/Marketplace.sol\":1676:1761  function owner() public view virtual returns (address) {... */\n    tag_72:\n        /* \"contracts/Marketplace2/Marketplace.sol\":1722:1729  address */\n      0x00\n        /* \"contracts/Marketplace2/Marketplace.sol\":1748:1754  _owner */\n      0x06\n      0x00\n      swap1\n      sload\n      swap1\n      0x0100\n      exp\n      swap1\n      div\n      0xffffffffffffffffffffffffffffffffffffffff\n      and\n        /* \"contracts/Marketplace2/Marketplace.sol\":1741:1754  return _owner */\n      swap1\n      pop\n        /* \"contracts/Marketplace2/Marketplace.sol\":1676:1761  function owner() public view virtual returns (address) {... */\n      swap1\n      jump\t// out\n        /* \"contracts/Marketplace2/Marketplace.sol\":19939:20756  function createMarketSale(... */\n    tag_77:\n        /* \"contracts/Marketplace2/Marketplace.sol\":20024:20034  uint price */\n      0x00\n        /* \"contracts/Marketplace2/Marketplace.sol\":20037:20051  idToMarketItem */\n      0x09\n        /* \"contracts/Marketplace2/Marketplace.sol\":20037:20059  idToMarketItem[itemId] */\n      0x00\n        /* \"contracts/Marketplace2/Marketplace.sol\":20052:20058  itemId */\n      dup5\n        /* \"contracts/Marketplace2/Marketplace.sol\":20037:20059  idToMarketItem[itemId] */\n      dup2\n      mstore\n      0x20\n      add\n      swap1\n      dup2\n      mstore\n      0x20\n      add\n      0x00\n      keccak256\n        /* \"contracts/Marketplace2/Marketplace.sol\":20037:20065  idToMarketItem[itemId].price */\n      0x04\n      add\n      sload\n        /* \"contracts/Marketplace2/Marketplace.sol\":20024:20065  uint price = idToMarketItem[itemId].price */\n      swap1\n      pop\n        /* \"contracts/Marketplace2/Marketplace.sol\":20071:20083  uint tokenId */\n      0x00\n        /* \"contracts/Marketplace2/Marketplace.sol\":20086:20100  idToMarketItem */\n      0x09\n        /* \"contracts/Marketplace2/Marketplace.sol\":20086:20108  idToMarketItem[itemId] */\n      0x00\n        /* \"contracts/Marketplace2/Marketplace.sol\":20101:20107  itemId */\n      dup6\n        /* \"contracts/Marketplace2/Marketplace.sol\":20086:20108  idToMarketItem[itemId] */\n      dup2\n      mstore\n      0x20\n      add\n      swap1\n      dup2\n      mstore\n      0x20\n      add\n      0x00\n      keccak256\n        /* \"contracts/Marketplace2/Marketplace.sol\":20086:20116  idToMarketItem[itemId].tokenId */\n      0x01\n      add\n      sload\n        /* \"contracts/Marketplace2/Marketplace.sol\":20071:20116  uint tokenId = idToMarketItem[itemId].tokenId */\n      swap1\n      pop\n        /* \"contracts/Marketplace2/Marketplace.sol\":20122:20136  address seller */\n      0x00\n        /* \"contracts/Marketplace2/Marketplace.sol\":20140:20154  idToMarketItem */\n      0x09\n        /* \"contracts/Marketplace2/Marketplace.sol\":20140:20162  idToMarketItem[itemId] */\n      0x00\n        /* \"contracts/Marketplace2/Marketplace.sol\":20155:20161  itemId */\n      dup7\n        /* \"contracts/Marketplace2/Marketplace.sol\":20140:20162  idToMarketItem[itemId] */\n      dup2\n      mstore\n      0x20\n      add\n      swap1\n      dup2\n      mstore\n      0x20\n      add\n      0x00\n      keccak256\n        /* \"contracts/Marketplace2/Marketplace.sol\":20140:20169  idToMarketItem[itemId].seller */\n      0x02\n      add\n      0x00\n      swap1\n      sload\n      swap1\n      0x0100\n      exp\n      swap1\n      div\n      0xffffffffffffffffffffffffffffffffffffffff\n      and\n        /* \"contracts/Marketplace2/Marketplace.sol\":20122:20169  address seller =  idToMarketItem[itemId].seller */\n      swap1\n      pop\n        /* \"contracts/Marketplace2/Marketplace.sol\":20175:20208  StructLib.ingameItems memory item */\n      0x00\n        /* \"contracts/Marketplace2/Marketplace.sol\":20211:20218  factory */\n      0x04\n      0x00\n      swap1\n      sload\n      swap1\n      0x0100\n      exp\n      swap1\n      div\n      0xffffffffffffffffffffffffffffffffffffffff\n      and\n        /* \"contracts/Marketplace2/Marketplace.sol\":20211:20232  factory.getIngameItem */\n      0xffffffffffffffffffffffffffffffffffffffff\n      and\n      0x03ce1cb5\n        /* \"contracts/Marketplace2/Marketplace.sol\":20233:20240  tokenId */\n      dup5\n        /* \"contracts/Marketplace2/Marketplace.sol\":20211:20241  factory.getIngameItem(tokenId) */\n      mload(0x40)\n      dup3\n      0xffffffff\n      and\n      0xe0\n      shl\n      dup2\n      mstore\n      0x04\n      add\n      tag_262\n      swap2\n      swap1\n      tag_161\n      jump\t// in\n    tag_262:\n      0x00\n      mload(0x40)\n      dup1\n      dup4\n      sub\n      dup2\n      dup7\n      gas\n      staticcall\n      iszero\n      dup1\n      iszero\n      tag_264\n      jumpi\n      returndatasize\n      0x00\n      dup1\n      returndatacopy\n      revert(0x00, returndatasize)\n    tag_264:\n      pop\n      pop\n      pop\n      pop\n      mload(0x40)\n      returndatasize\n      0x00\n      dup3\n      returndatacopy\n      returndatasize\n      not(0x1f)\n      0x1f\n      dup3\n      add\n      and\n      dup3\n      add\n      dup1\n      0x40\n      mstore\n      pop\n      dup2\n      add\n      swap1\n      tag_265\n      swap2\n      swap1\n      tag_165\n      jump\t// in\n    tag_265:\n        /* \"contracts/Marketplace2/Marketplace.sol\":20175:20241  StructLib.ingameItems memory item = factory.getIngameItem(tokenId) */\n      swap1\n      pop\n        /* \"contracts/Marketplace2/Marketplace.sol\":20265:20270  price */\n      dup4\n        /* \"contracts/Marketplace2/Marketplace.sol\":20255:20261  amount */\n      dup6\n        /* \"contracts/Marketplace2/Marketplace.sol\":20255:20270  amount == price */\n      eq\n        /* \"contracts/Marketplace2/Marketplace.sol\":20247:20339  require(amount == price, \"Please submit the asking price in order to complete the purchase\") */\n      tag_266\n      jumpi\n      mload(0x40)\n      0x08c379a000000000000000000000000000000000000000000000000000000000\n      dup2\n      mstore\n      0x04\n      add\n      tag_267\n      swap1\n      tag_268\n      jump\t// in\n    tag_267:\n      mload(0x40)\n      dup1\n      swap2\n      sub\n      swap1\n      revert\n    tag_266:\n        /* \"contracts/Marketplace2/Marketplace.sol\":20368:20373  false */\n      0x00\n        /* \"contracts/Marketplace2/Marketplace.sol\":20353:20373  item.ingame == false */\n      iszero\n      iszero\n        /* \"contracts/Marketplace2/Marketplace.sol\":20353:20357  item */\n      dup2\n        /* \"contracts/Marketplace2/Marketplace.sol\":20353:20364  item.ingame */\n      0x80\n      add\n      mload\n        /* \"contracts/Marketplace2/Marketplace.sol\":20353:20373  item.ingame == false */\n      iszero\n      iszero\n      eq\n        /* \"contracts/Marketplace2/Marketplace.sol\":20345:20405  require(item.ingame == false, \"Item is not available now !\") */\n      tag_269\n      jumpi\n      mload(0x40)\n      0x08c379a000000000000000000000000000000000000000000000000000000000\n      dup2\n      mstore\n      0x04\n      add\n      tag_270\n      swap1\n      tag_175\n      jump\t// in\n    tag_270:\n      mload(0x40)\n      dup1\n      swap2\n      sub\n      swap1\n      revert\n    tag_269:\n        /* \"contracts/Marketplace2/Marketplace.sol\":20411:20446  _safeBuyItem(itemId,amount,tokenId) */\n      tag_271\n        /* \"contracts/Marketplace2/Marketplace.sol\":20424:20430  itemId */\n      dup7\n        /* \"contracts/Marketplace2/Marketplace.sol\":20431:20437  amount */\n      dup7\n        /* \"contracts/Marketplace2/Marketplace.sol\":20438:20445  tokenId */\n      dup6\n        /* \"contracts/Marketplace2/Marketplace.sol\":20411:20423  _safeBuyItem */\n      tag_70\n        /* \"contracts/Marketplace2/Marketplace.sol\":20411:20446  _safeBuyItem(itemId,amount,tokenId) */\n      jump\t// in\n    tag_271:\n        /* \"contracts/Marketplace2/Marketplace.sol\":20491:20501  msg.sender */\n      caller\n        /* \"contracts/Marketplace2/Marketplace.sol\":20452:20466  idToMarketItem */\n      0x09\n        /* \"contracts/Marketplace2/Marketplace.sol\":20452:20474  idToMarketItem[itemId] */\n      0x00\n        /* \"contracts/Marketplace2/Marketplace.sol\":20467:20473  itemId */\n      dup9\n        /* \"contracts/Marketplace2/Marketplace.sol\":20452:20474  idToMarketItem[itemId] */\n      dup2\n      mstore\n      0x20\n      add\n      swap1\n      dup2\n      mstore\n      0x20\n      add\n      0x00\n      keccak256\n        /* \"contracts/Marketplace2/Marketplace.sol\":20452:20480  idToMarketItem[itemId].owner */\n      0x03\n      add\n      0x00\n        /* \"contracts/Marketplace2/Marketplace.sol\":20452:20502  idToMarketItem[itemId].owner = address(msg.sender) */\n      0x0100\n      exp\n      dup2\n      sload\n      dup2\n      0xffffffffffffffffffffffffffffffffffffffff\n      mul\n      not\n      and\n      swap1\n      dup4\n      0xffffffffffffffffffffffffffffffffffffffff\n      and\n      mul\n      or\n      swap1\n      sstore\n      pop\n        /* \"contracts/Marketplace2/Marketplace.sol\":20540:20556  ItemStatus.AVAIL */\n      0x00\n        /* \"contracts/Marketplace2/Marketplace.sol\":20508:20522  idToMarketItem */\n      0x09\n        /* \"contracts/Marketplace2/Marketplace.sol\":20508:20530  idToMarketItem[itemId] */\n      0x00\n        /* \"contracts/Marketplace2/Marketplace.sol\":20523:20529  itemId */\n      dup9\n        /* \"contracts/Marketplace2/Marketplace.sol\":20508:20530  idToMarketItem[itemId] */\n      dup2\n      mstore\n      0x20\n      add\n      swap1\n      dup2\n      mstore\n      0x20\n      add\n      0x00\n      keccak256\n        /* \"contracts/Marketplace2/Marketplace.sol\":20508:20537  idToMarketItem[itemId].status */\n      0x05\n      add\n      0x00\n        /* \"contracts/Marketplace2/Marketplace.sol\":20508:20556  idToMarketItem[itemId].status = ItemStatus.AVAIL */\n      0x0100\n      exp\n      dup2\n      sload\n      dup2\n      0xff\n      mul\n      not\n      and\n      swap1\n      dup4\n      0x01\n      dup2\n      gt\n      iszero\n      tag_272\n      jumpi\n      tag_273\n      tag_112\n      jump\t// in\n    tag_273:\n    tag_272:\n      mul\n      or\n      swap1\n      sstore\n      pop\n        /* \"contracts/Marketplace2/Marketplace.sol\":20562:20584  _itemsSold.increment() */\n      tag_274\n        /* \"contracts/Marketplace2/Marketplace.sol\":20562:20572  _itemsSold */\n      0x08\n        /* \"contracts/Marketplace2/Marketplace.sol\":20562:20582  _itemsSold.increment */\n      tag_192\n        /* \"contracts/Marketplace2/Marketplace.sol\":20562:20584  _itemsSold.increment() */\n      jump\t// in\n    tag_274:\n        /* \"contracts/Marketplace2/Marketplace.sol\":20694:20704  msg.sender */\n      caller\n        /* \"contracts/Marketplace2/Marketplace.sol\":20595:20751  BuyItemSuccessful(... */\n      0xffffffffffffffffffffffffffffffffffffffff\n      and\n        /* \"contracts/Marketplace2/Marketplace.sol\":20655:20661  seller */\n      dup3\n        /* \"contracts/Marketplace2/Marketplace.sol\":20595:20751  BuyItemSuccessful(... */\n      0xffffffffffffffffffffffffffffffffffffffff\n      and\n        /* \"contracts/Marketplace2/Marketplace.sol\":20638:20645  tokenId */\n      dup5\n        /* \"contracts/Marketplace2/Marketplace.sol\":20595:20751  BuyItemSuccessful(... */\n      0x551327aee12d0a8b3ede8d0e3182a40a5ff3ed9f1811dd622915db30b609b7df\n        /* \"contracts/Marketplace2/Marketplace.sol\":20622:20628  itemId */\n      dup10\n        /* \"contracts/Marketplace2/Marketplace.sol\":20671:20676  price */\n      dup9\n        /* \"contracts/Marketplace2/Marketplace.sol\":20730:20745  block.timestamp */\n      timestamp\n        /* \"contracts/Marketplace2/Marketplace.sol\":20595:20751  BuyItemSuccessful(... */\n      mload(0x40)\n      tag_275\n      swap4\n      swap3\n      swap2\n      swap1\n      tag_276\n      jump\t// in\n    tag_275:\n      mload(0x40)\n      dup1\n      swap2\n      sub\n      swap1\n      log4\n        /* \"contracts/Marketplace2/Marketplace.sol\":20018:20756  {... */\n      pop\n      pop\n      pop\n      pop\n        /* \"contracts/Marketplace2/Marketplace.sol\":19939:20756  function createMarketSale(... */\n      pop\n      pop\n      jump\t// out\n        /* \"contracts/Marketplace2/Marketplace.sol\":16328:16355  uint8 public antaFeePercent */\n    tag_79:\n      0x05\n      0x15\n      swap1\n      sload\n      swap1\n      0x0100\n      exp\n      swap1\n      div\n      0xff\n      and\n      dup2\n      jump\t// out\n        /* \"contracts/Marketplace2/Marketplace.sol\":15913:15938  MarketItem[] public items */\n    tag_83:\n      0x01\n      dup2\n      dup2\n      sload\n      dup2\n      lt\n      tag_277\n      jumpi\n      0x00\n      dup1\n      revert\n    tag_277:\n      swap1\n      0x00\n      mstore\n      keccak256(0x00, 0x20)\n      swap1\n      0x06\n      mul\n      add\n      0x00\n      swap2\n      pop\n      swap1\n      pop\n      dup1\n      0x00\n      add\n      sload\n      swap1\n      dup1\n      0x01\n      add\n      sload\n      swap1\n      dup1\n      0x02\n      add\n      0x00\n      swap1\n      sload\n      swap1\n      0x0100\n      exp\n      swap1\n      div\n      0xffffffffffffffffffffffffffffffffffffffff\n      and\n      swap1\n      dup1\n      0x03\n      add\n      0x00\n      swap1\n      sload\n      swap1\n      0x0100\n      exp\n      swap1\n      div\n      0xffffffffffffffffffffffffffffffffffffffff\n      and\n      swap1\n      dup1\n      0x04\n      add\n      sload\n      swap1\n      dup1\n      0x05\n      add\n      0x00\n      swap1\n      sload\n      swap1\n      0x0100\n      exp\n      swap1\n      div\n      0xff\n      and\n      swap1\n      pop\n      dup7\n      jump\t// out\n        /* \"contracts/Marketplace2/Marketplace.sol\":16237:16260  IFactory public factory */\n    tag_87:\n      0x04\n      0x00\n      swap1\n      sload\n      swap1\n      0x0100\n      exp\n      swap1\n      div\n      0xffffffffffffffffffffffffffffffffffffffff\n      and\n      dup2\n      jump\t// out\n        /* \"contracts/Marketplace2/Marketplace.sol\":18484:18621  function getMarketItem(uint256 marketItemId) public view returns (MarketItem memory) {... */\n    tag_92:\n        /* \"contracts/Marketplace2/Marketplace.sol\":18550:18567  MarketItem memory */\n      tag_279\n      tag_214\n      jump\t// in\n    tag_279:\n        /* \"contracts/Marketplace2/Marketplace.sol\":18586:18600  idToMarketItem */\n      0x09\n        /* \"contracts/Marketplace2/Marketplace.sol\":18586:18614  idToMarketItem[marketItemId] */\n      0x00\n        /* \"contracts/Marketplace2/Marketplace.sol\":18601:18613  marketItemId */\n      dup4\n        /* \"contracts/Marketplace2/Marketplace.sol\":18586:18614  idToMarketItem[marketItemId] */\n      dup2\n      mstore\n      0x20\n      add\n      swap1\n      dup2\n      mstore\n      0x20\n      add\n      0x00\n      keccak256\n        /* \"contracts/Marketplace2/Marketplace.sol\":18579:18614  return idToMarketItem[marketItemId] */\n      mload(0x40)\n      dup1\n      0xc0\n      add\n      0x40\n      mstore\n      swap1\n      dup2\n      0x00\n      dup3\n      add\n      sload\n      dup2\n      mstore\n      0x20\n      add\n      0x01\n      dup3\n      add\n      sload\n      dup2\n      mstore\n      0x20\n      add\n      0x02\n      dup3\n      add\n      0x00\n      swap1\n      sload\n      swap1\n      0x0100\n      exp\n      swap1\n      div\n      0xffffffffffffffffffffffffffffffffffffffff\n      and\n      0xffffffffffffffffffffffffffffffffffffffff\n      and\n      0xffffffffffffffffffffffffffffffffffffffff\n      and\n      dup2\n      mstore\n      0x20\n      add\n      0x03\n      dup3\n      add\n      0x00\n      swap1\n      sload\n      swap1\n      0x0100\n      exp\n      swap1\n      div\n      0xffffffffffffffffffffffffffffffffffffffff\n      and\n      0xffffffffffffffffffffffffffffffffffffffff\n      and\n      0xffffffffffffffffffffffffffffffffffffffff\n      and\n      dup2\n      mstore\n      0x20\n      add\n      0x04\n      dup3\n      add\n      sload\n      dup2\n      mstore\n      0x20\n      add\n      0x05\n      dup3\n      add\n      0x00\n      swap1\n      sload\n      swap1\n      0x0100\n      exp\n      swap1\n      div\n      0xff\n      and\n      0x01\n      dup2\n      gt\n      iszero\n      tag_281\n      jumpi\n      tag_282\n      tag_112\n      jump\t// in\n    tag_282:\n    tag_281:\n      0x01\n      dup2\n      gt\n      iszero\n      tag_283\n      jumpi\n      tag_284\n      tag_112\n      jump\t// in\n    tag_284:\n    tag_283:\n      dup2\n      mstore\n      pop\n      pop\n      swap1\n      pop\n        /* \"contracts/Marketplace2/Marketplace.sol\":18484:18621  function getMarketItem(uint256 marketItemId) public view returns (MarketItem memory) {... */\n      swap2\n      swap1\n      pop\n      jump\t// out\n        /* \"contracts/Marketplace2/Marketplace.sol\":21532:21749  function _safeTransferToMarket(uint256 tokenId) public {... */\n    tag_97:\n        /* \"contracts/Marketplace2/Marketplace.sol\":21601:21608  factory */\n      0x04\n      0x00\n      swap1\n      sload\n      swap1\n      0x0100\n      exp\n      swap1\n      div\n      0xffffffffffffffffffffffffffffffffffffffff\n      and\n        /* \"contracts/Marketplace2/Marketplace.sol\":21601:21627  factory.setOwnerIngameItem */\n      0xffffffffffffffffffffffffffffffffffffffff\n      and\n      0xc1e9518a\n        /* \"contracts/Marketplace2/Marketplace.sol\":21636:21646  msg.sender */\n      caller\n        /* \"contracts/Marketplace2/Marketplace.sol\":21656:21660  this */\n      address\n        /* \"contracts/Marketplace2/Marketplace.sol\":21663:21670  tokenId */\n      dup5\n        /* \"contracts/Marketplace2/Marketplace.sol\":21601:21671  factory.setOwnerIngameItem(payable(msg.sender),address(this), tokenId) */\n      mload(0x40)\n      dup5\n      0xffffffff\n      and\n      0xe0\n      shl\n      dup2\n      mstore\n      0x04\n      add\n      tag_286\n      swap4\n      swap3\n      swap2\n      swap1\n      tag_179\n      jump\t// in\n    tag_286:\n      0x00\n      mload(0x40)\n      dup1\n      dup4\n      sub\n      dup2\n      0x00\n      dup8\n      dup1\n      extcodesize\n      iszero\n      dup1\n      iszero\n      tag_287\n      jumpi\n      0x00\n      dup1\n      revert\n    tag_287:\n      pop\n      gas\n      call\n      iszero\n      dup1\n      iszero\n      tag_289\n      jumpi\n      returndatasize\n      0x00\n      dup1\n      returndatacopy\n      revert(0x00, returndatasize)\n    tag_289:\n      pop\n      pop\n      pop\n      pop\n        /* \"contracts/Marketplace2/Marketplace.sol\":21685:21693  mainNFTs */\n      0x05\n      0x00\n      swap1\n      sload\n      swap1\n      0x0100\n      exp\n      swap1\n      div\n      0xffffffffffffffffffffffffffffffffffffffff\n      and\n        /* \"contracts/Marketplace2/Marketplace.sol\":21685:21706  mainNFTs.transferFrom */\n      0xffffffffffffffffffffffffffffffffffffffff\n      and\n      0x23b872dd\n        /* \"contracts/Marketplace2/Marketplace.sol\":21707:21717  msg.sender */\n      caller\n        /* \"contracts/Marketplace2/Marketplace.sol\":21727:21731  this */\n      address\n        /* \"contracts/Marketplace2/Marketplace.sol\":21734:21741  tokenId */\n      dup5\n        /* \"contracts/Marketplace2/Marketplace.sol\":21685:21742  mainNFTs.transferFrom(msg.sender, address(this), tokenId) */\n      mload(0x40)\n      dup5\n      0xffffffff\n      and\n      0xe0\n      shl\n      dup2\n      mstore\n      0x04\n      add\n      tag_290\n      swap4\n      swap3\n      swap2\n      swap1\n      tag_132\n      jump\t// in\n    tag_290:\n      0x00\n      mload(0x40)\n      dup1\n      dup4\n      sub\n      dup2\n      0x00\n      dup8\n      dup1\n      extcodesize\n      iszero\n      dup1\n      iszero\n      tag_291\n      jumpi\n      0x00\n      dup1\n      revert\n    tag_291:\n      pop\n      gas\n      call\n      iszero\n      dup1\n      iszero\n      tag_293\n      jumpi\n      returndatasize\n      0x00\n      dup1\n      returndatacopy\n      revert(0x00, returndatasize)\n    tag_293:\n      pop\n      pop\n      pop\n      pop\n        /* \"contracts/Marketplace2/Marketplace.sol\":21532:21749  function _safeTransferToMarket(uint256 tokenId) public {... */\n      pop\n      jump\t// out\n        /* \"contracts/Marketplace2/Marketplace.sol\":2558:2756  function transferOwnership(address newOwner) public virtual onlyOwner {... */\n    tag_100:\n        /* \"contracts/Marketplace2/Marketplace.sol\":1899:1911  _msgSender() */\n      tag_295\n        /* \"contracts/Marketplace2/Marketplace.sol\":1899:1909  _msgSender */\n      tag_144\n        /* \"contracts/Marketplace2/Marketplace.sol\":1899:1911  _msgSender() */\n      jump\t// in\n    tag_295:\n        /* \"contracts/Marketplace2/Marketplace.sol\":1888:1911  owner() == _msgSender() */\n      0xffffffffffffffffffffffffffffffffffffffff\n      and\n        /* \"contracts/Marketplace2/Marketplace.sol\":1888:1895  owner() */\n      tag_296\n        /* \"contracts/Marketplace2/Marketplace.sol\":1888:1893  owner */\n      tag_72\n        /* \"contracts/Marketplace2/Marketplace.sol\":1888:1895  owner() */\n      jump\t// in\n    tag_296:\n        /* \"contracts/Marketplace2/Marketplace.sol\":1888:1911  owner() == _msgSender() */\n      0xffffffffffffffffffffffffffffffffffffffff\n      and\n      eq\n        /* \"contracts/Marketplace2/Marketplace.sol\":1880:1948  require(owner() == _msgSender(), \"Ownable: caller is not the owner\") */\n      tag_297\n      jumpi\n      mload(0x40)\n      0x08c379a000000000000000000000000000000000000000000000000000000000\n      dup2\n      mstore\n      0x04\n      add\n      tag_298\n      swap1\n      tag_148\n      jump\t// in\n    tag_298:\n      mload(0x40)\n      dup1\n      swap2\n      sub\n      swap1\n      revert\n    tag_297:\n        /* \"contracts/Marketplace2/Marketplace.sol\":2666:2667  0 */\n      0x00\n        /* \"contracts/Marketplace2/Marketplace.sol\":2646:2668  newOwner != address(0) */\n      0xffffffffffffffffffffffffffffffffffffffff\n      and\n        /* \"contracts/Marketplace2/Marketplace.sol\":2646:2654  newOwner */\n      dup2\n        /* \"contracts/Marketplace2/Marketplace.sol\":2646:2668  newOwner != address(0) */\n      0xffffffffffffffffffffffffffffffffffffffff\n      and\n      sub\n        /* \"contracts/Marketplace2/Marketplace.sol\":2638:2711  require(newOwner != address(0), \"Ownable: new owner is the zero address\") */\n      tag_300\n      jumpi\n      mload(0x40)\n      0x08c379a000000000000000000000000000000000000000000000000000000000\n      dup2\n      mstore\n      0x04\n      add\n      tag_301\n      swap1\n      tag_302\n      jump\t// in\n    tag_301:\n      mload(0x40)\n      dup1\n      swap2\n      sub\n      swap1\n      revert\n    tag_300:\n        /* \"contracts/Marketplace2/Marketplace.sol\":2721:2749  _transferOwnership(newOwner) */\n      tag_303\n        /* \"contracts/Marketplace2/Marketplace.sol\":2740:2748  newOwner */\n      dup2\n        /* \"contracts/Marketplace2/Marketplace.sol\":2721:2739  _transferOwnership */\n      tag_245\n        /* \"contracts/Marketplace2/Marketplace.sol\":2721:2749  _transferOwnership(newOwner) */\n      jump\t// in\n    tag_303:\n        /* \"contracts/Marketplace2/Marketplace.sol\":2558:2756  function transferOwnership(address newOwner) public virtual onlyOwner {... */\n      pop\n      jump\t// out\n        /* \"contracts/Marketplace2/Marketplace.sol\":16266:16289  IERC721 public mainNFTs */\n    tag_102:\n      0x05\n      0x00\n      swap1\n      sload\n      swap1\n      0x0100\n      exp\n      swap1\n      div\n      0xffffffffffffffffffffffffffffffffffffffff\n      and\n      dup2\n      jump\t// out\n        /* \"contracts/Marketplace2/Marketplace.sol\":16011:16058  mapping (uint256 => MarketItem) public allItems */\n    tag_107:\n      mstore(0x20, 0x02)\n      dup1\n      0x00\n      mstore\n      keccak256(0x00, 0x40)\n      0x00\n      swap2\n      pop\n      swap1\n      pop\n      dup1\n      0x00\n      add\n      sload\n      swap1\n      dup1\n      0x01\n      add\n      sload\n      swap1\n      dup1\n      0x02\n      add\n      0x00\n      swap1\n      sload\n      swap1\n      0x0100\n      exp\n      swap1\n      div\n      0xffffffffffffffffffffffffffffffffffffffff\n      and\n      swap1\n      dup1\n      0x03\n      add\n      0x00\n      swap1\n      sload\n      swap1\n      0x0100\n      exp\n      swap1\n      div\n      0xffffffffffffffffffffffffffffffffffffffff\n      and\n      swap1\n      dup1\n      0x04\n      add\n      sload\n      swap1\n      dup1\n      0x05\n      add\n      0x00\n      swap1\n      sload\n      swap1\n      0x0100\n      exp\n      swap1\n      div\n      0xff\n      and\n      swap1\n      pop\n      dup7\n      jump\t// out\n        /* \"contracts/Marketplace2/Marketplace.sol\":554:650  function _msgSender() internal view virtual returns (address) {... */\n    tag_144:\n        /* \"contracts/Marketplace2/Marketplace.sol\":607:614  address */\n      0x00\n        /* \"contracts/Marketplace2/Marketplace.sol\":633:643  msg.sender */\n      caller\n        /* \"contracts/Marketplace2/Marketplace.sol\":626:643  return msg.sender */\n      swap1\n      pop\n        /* \"contracts/Marketplace2/Marketplace.sol\":554:650  function _msgSender() internal view virtual returns (address) {... */\n      swap1\n      jump\t// out\n        /* \"contracts/Marketplace2/Marketplace.sol\":11853:11965  function current(Counter storage counter) internal view returns (uint256) {... */\n    tag_177:\n        /* \"contracts/Marketplace2/Marketplace.sol\":11918:11925  uint256 */\n      0x00\n        /* \"contracts/Marketplace2/Marketplace.sol\":11944:11951  counter */\n      dup2\n        /* \"contracts/Marketplace2/Marketplace.sol\":11944:11958  counter._value */\n      0x00\n      add\n      sload\n        /* \"contracts/Marketplace2/Marketplace.sol\":11937:11958  return counter._value */\n      swap1\n      pop\n        /* \"contracts/Marketplace2/Marketplace.sol\":11853:11965  function current(Counter storage counter) internal view returns (uint256) {... */\n      swap2\n      swap1\n      pop\n      jump\t// out\n        /* \"contracts/Marketplace2/Marketplace.sol\":11971:12094  function increment(Counter storage counter) internal {... */\n    tag_192:\n        /* \"contracts/Marketplace2/Marketplace.sol\":12076:12077  1 */\n      0x01\n        /* \"contracts/Marketplace2/Marketplace.sol\":12058:12065  counter */\n      dup2\n        /* \"contracts/Marketplace2/Marketplace.sol\":12058:12072  counter._value */\n      0x00\n      add\n      0x00\n        /* \"contracts/Marketplace2/Marketplace.sol\":12058:12077  counter._value += 1 */\n      dup3\n      dup3\n      sload\n      add\n      swap3\n      pop\n      pop\n      dup2\n      swap1\n      sstore\n      pop\n        /* \"contracts/Marketplace2/Marketplace.sol\":11971:12094  function increment(Counter storage counter) internal {... */\n      pop\n      jump\t// out\n        /* \"contracts/Marketplace2/Marketplace.sol\":2910:3097  function _transferOwnership(address newOwner) internal virtual {... */\n    tag_245:\n        /* \"contracts/Marketplace2/Marketplace.sol\":2983:2999  address oldOwner */\n      0x00\n        /* \"contracts/Marketplace2/Marketplace.sol\":3002:3008  _owner */\n      0x06\n      0x00\n      swap1\n      sload\n      swap1\n      0x0100\n      exp\n      swap1\n      div\n      0xffffffffffffffffffffffffffffffffffffffff\n      and\n        /* \"contracts/Marketplace2/Marketplace.sol\":2983:3008  address oldOwner = _owner */\n      swap1\n      pop\n        /* \"contracts/Marketplace2/Marketplace.sol\":3027:3035  newOwner */\n      dup2\n        /* \"contracts/Marketplace2/Marketplace.sol\":3018:3024  _owner */\n      0x06\n      0x00\n        /* \"contracts/Marketplace2/Marketplace.sol\":3018:3035  _owner = newOwner */\n      0x0100\n      exp\n      dup2\n      sload\n      dup2\n      0xffffffffffffffffffffffffffffffffffffffff\n      mul\n      not\n      and\n      swap1\n      dup4\n      0xffffffffffffffffffffffffffffffffffffffff\n      and\n      mul\n      or\n      swap1\n      sstore\n      pop\n        /* \"contracts/Marketplace2/Marketplace.sol\":3081:3089  newOwner */\n      dup2\n        /* \"contracts/Marketplace2/Marketplace.sol\":3050:3090  OwnershipTransferred(oldOwner, newOwner) */\n      0xffffffffffffffffffffffffffffffffffffffff\n      and\n        /* \"contracts/Marketplace2/Marketplace.sol\":3071:3079  oldOwner */\n      dup2\n        /* \"contracts/Marketplace2/Marketplace.sol\":3050:3090  OwnershipTransferred(oldOwner, newOwner) */\n      0xffffffffffffffffffffffffffffffffffffffff\n      and\n      0x8be0079c531659141344cd1fd0a4f28419497f9722a3daafe3b4186f6b6457e0\n      mload(0x40)\n      mload(0x40)\n      dup1\n      swap2\n      sub\n      swap1\n      log3\n        /* \"contracts/Marketplace2/Marketplace.sol\":2973:3097  {... */\n      pop\n        /* \"contracts/Marketplace2/Marketplace.sol\":2910:3097  function _transferOwnership(address newOwner) internal virtual {... */\n      pop\n      jump\t// out\n    tag_214:\n      mload(0x40)\n      dup1\n      0xc0\n      add\n      0x40\n      mstore\n      dup1\n      0x00\n      dup2\n      mstore\n      0x20\n      add\n      0x00\n      dup2\n      mstore\n      0x20\n      add\n      and(0xffffffffffffffffffffffffffffffffffffffff, 0x00)\n      dup2\n      mstore\n      0x20\n      add\n      and(0xffffffffffffffffffffffffffffffffffffffff, 0x00)\n      dup2\n      mstore\n      0x20\n      add\n      0x00\n      dup2\n      mstore\n      0x20\n      add\n      0x00\n      0x01\n      dup2\n      gt\n      iszero\n      tag_308\n      jumpi\n      tag_309\n      tag_112\n      jump\t// in\n    tag_309:\n    tag_308:\n      dup2\n      mstore\n      pop\n      swap1\n      jump\t// out\n        /* \"#utility.yul\":7:82   */\n    tag_310:\n        /* \"#utility.yul\":40:46   */\n      0x00\n        /* \"#utility.yul\":73:75   */\n      0x40\n        /* \"#utility.yul\":67:76   */\n      mload\n        /* \"#utility.yul\":57:76   */\n      swap1\n      pop\n        /* \"#utility.yul\":7:82   */\n      swap1\n      jump\t// out\n        /* \"#utility.yul\":88:205   */\n    tag_311:\n        /* \"#utility.yul\":197:198   */\n      0x00\n        /* \"#utility.yul\":194:195   */\n      dup1\n        /* \"#utility.yul\":187:199   */\n      revert\n        /* \"#utility.yul\":211:328   */\n    tag_312:\n        /* \"#utility.yul\":320:321   */\n      0x00\n        /* \"#utility.yul\":317:318   */\n      dup1\n        /* \"#utility.yul\":310:322   */\n      revert\n        /* \"#utility.yul\":334:411   */\n    tag_313:\n        /* \"#utility.yul\":371:378   */\n      0x00\n        /* \"#utility.yul\":400:405   */\n      dup2\n        /* \"#utility.yul\":389:405   */\n      swap1\n      pop\n        /* \"#utility.yul\":334:411   */\n      swap2\n      swap1\n      pop\n      jump\t// out\n        /* \"#utility.yul\":417:539   */\n    tag_314:\n        /* \"#utility.yul\":490:514   */\n      tag_397\n        /* \"#utility.yul\":508:513   */\n      dup2\n        /* \"#utility.yul\":490:514   */\n      tag_313\n      jump\t// in\n    tag_397:\n        /* \"#utility.yul\":483:488   */\n      dup2\n        /* \"#utility.yul\":480:515   */\n      eq\n        /* \"#utility.yul\":470:533   */\n      tag_398\n      jumpi\n        /* \"#utility.yul\":529:530   */\n      0x00\n        /* \"#utility.yul\":526:527   */\n      dup1\n        /* \"#utility.yul\":519:531   */\n      revert\n        /* \"#utility.yul\":470:533   */\n    tag_398:\n        /* \"#utility.yul\":417:539   */\n      pop\n      jump\t// out\n        /* \"#utility.yul\":545:684   */\n    tag_315:\n        /* \"#utility.yul\":591:596   */\n      0x00\n        /* \"#utility.yul\":629:635   */\n      dup2\n        /* \"#utility.yul\":616:636   */\n      calldataload\n        /* \"#utility.yul\":607:636   */\n      swap1\n      pop\n        /* \"#utility.yul\":645:678   */\n      tag_400\n        /* \"#utility.yul\":672:677   */\n      dup2\n        /* \"#utility.yul\":645:678   */\n      tag_314\n      jump\t// in\n    tag_400:\n        /* \"#utility.yul\":545:684   */\n      swap3\n      swap2\n      pop\n      pop\n      jump\t// out\n        /* \"#utility.yul\":690:1019   */\n    tag_30:\n        /* \"#utility.yul\":749:755   */\n      0x00\n        /* \"#utility.yul\":798:800   */\n      0x20\n        /* \"#utility.yul\":786:795   */\n      dup3\n        /* \"#utility.yul\":777:784   */\n      dup5\n        /* \"#utility.yul\":773:796   */\n      sub\n        /* \"#utility.yul\":769:801   */\n      slt\n        /* \"#utility.yul\":766:885   */\n      iszero\n      tag_402\n      jumpi\n        /* \"#utility.yul\":804:883   */\n      tag_403\n      tag_311\n      jump\t// in\n    tag_403:\n        /* \"#utility.yul\":766:885   */\n    tag_402:\n        /* \"#utility.yul\":924:925   */\n      0x00\n        /* \"#utility.yul\":949:1002   */\n      tag_404\n        /* \"#utility.yul\":994:1001   */\n      dup5\n        /* \"#utility.yul\":985:991   */\n      dup3\n        /* \"#utility.yul\":974:983   */\n      dup6\n        /* \"#utility.yul\":970:992   */\n      add\n        /* \"#utility.yul\":949:1002   */\n      tag_315\n      jump\t// in\n    tag_404:\n        /* \"#utility.yul\":939:1002   */\n      swap2\n      pop\n        /* \"#utility.yul\":895:1012   */\n      pop\n        /* \"#utility.yul\":690:1019   */\n      swap3\n      swap2\n      pop\n      pop\n      jump\t// out\n        /* \"#utility.yul\":1025:1151   */\n    tag_316:\n        /* \"#utility.yul\":1062:1069   */\n      0x00\n        /* \"#utility.yul\":1102:1144   */\n      0xffffffffffffffffffffffffffffffffffffffff\n        /* \"#utility.yul\":1095:1100   */\n      dup3\n        /* \"#utility.yul\":1091:1145   */\n      and\n        /* \"#utility.yul\":1080:1145   */\n      swap1\n      pop\n        /* \"#utility.yul\":1025:1151   */\n      swap2\n      swap1\n      pop\n      jump\t// out\n        /* \"#utility.yul\":1157:1253   */\n    tag_317:\n        /* \"#utility.yul\":1194:1201   */\n      0x00\n        /* \"#utility.yul\":1223:1247   */\n      tag_407\n        /* \"#utility.yul\":1241:1246   */\n      dup3\n        /* \"#utility.yul\":1223:1247   */\n      tag_316\n      jump\t// in\n    tag_407:\n        /* \"#utility.yul\":1212:1247   */\n      swap1\n      pop\n        /* \"#utility.yul\":1157:1253   */\n      swap2\n      swap1\n      pop\n      jump\t// out\n        /* \"#utility.yul\":1259:1381   */\n    tag_318:\n        /* \"#utility.yul\":1332:1356   */\n      tag_409\n        /* \"#utility.yul\":1350:1355   */\n      dup2\n        /* \"#utility.yul\":1332:1356   */\n      tag_317\n      jump\t// in\n    tag_409:\n        /* \"#utility.yul\":1325:1330   */\n      dup2\n        /* \"#utility.yul\":1322:1357   */\n      eq\n        /* \"#utility.yul\":1312:1375   */\n      tag_410\n      jumpi\n        /* \"#utility.yul\":1371:1372   */\n      0x00\n        /* \"#utility.yul\":1368:1369   */\n      dup1\n        /* \"#utility.yul\":1361:1373   */\n      revert\n        /* \"#utility.yul\":1312:1375   */\n    tag_410:\n        /* \"#utility.yul\":1259:1381   */\n      pop\n      jump\t// out\n        /* \"#utility.yul\":1387:1526   */\n    tag_319:\n        /* \"#utility.yul\":1433:1438   */\n      0x00\n        /* \"#utility.yul\":1471:1477   */\n      dup2\n        /* \"#utility.yul\":1458:1478   */\n      calldataload\n        /* \"#utility.yul\":1449:1478   */\n      swap1\n      pop\n        /* \"#utility.yul\":1487:1520   */\n      tag_412\n        /* \"#utility.yul\":1514:1519   */\n      dup2\n        /* \"#utility.yul\":1487:1520   */\n      tag_318\n      jump\t// in\n    tag_412:\n        /* \"#utility.yul\":1387:1526   */\n      swap3\n      swap2\n      pop\n      pop\n      jump\t// out\n        /* \"#utility.yul\":1532:1861   */\n    tag_34:\n        /* \"#utility.yul\":1591:1597   */\n      0x00\n        /* \"#utility.yul\":1640:1642   */\n      0x20\n        /* \"#utility.yul\":1628:1637   */\n      dup3\n        /* \"#utility.yul\":1619:1626   */\n      dup5\n        /* \"#utility.yul\":1615:1638   */\n      sub\n        /* \"#utility.yul\":1611:1643   */\n      slt\n        /* \"#utility.yul\":1608:1727   */\n      iszero\n      tag_414\n      jumpi\n        /* \"#utility.yul\":1646:1725   */\n      tag_415\n      tag_311\n      jump\t// in\n    tag_415:\n        /* \"#utility.yul\":1608:1727   */\n    tag_414:\n        /* \"#utility.yul\":1766:1767   */\n      0x00\n        /* \"#utility.yul\":1791:1844   */\n      tag_416\n        /* \"#utility.yul\":1836:1843   */\n      dup5\n        /* \"#utility.yul\":1827:1833   */\n      dup3\n        /* \"#utility.yul\":1816:1825   */\n      dup6\n        /* \"#utility.yul\":1812:1834   */\n      add\n        /* \"#utility.yul\":1791:1844   */\n      tag_319\n      jump\t// in\n    tag_416:\n        /* \"#utility.yul\":1781:1844   */\n      swap2\n      pop\n        /* \"#utility.yul\":1737:1854   */\n      pop\n        /* \"#utility.yul\":1532:1861   */\n      swap3\n      swap2\n      pop\n      pop\n      jump\t// out\n        /* \"#utility.yul\":1867:2016   */\n    tag_320:\n        /* \"#utility.yul\":1903:1910   */\n      0x00\n        /* \"#utility.yul\":1943:2009   */\n      0xffffffff00000000000000000000000000000000000000000000000000000000\n        /* \"#utility.yul\":1936:1941   */\n      dup3\n        /* \"#utility.yul\":1932:2010   */\n      and\n        /* \"#utility.yul\":1921:2010   */\n      swap1\n      pop\n        /* \"#utility.yul\":1867:2016   */\n      swap2\n      swap1\n      pop\n      jump\t// out\n        /* \"#utility.yul\":2022:2137   */\n    tag_321:\n        /* \"#utility.yul\":2107:2130   */\n      tag_419\n        /* \"#utility.yul\":2124:2129   */\n      dup2\n        /* \"#utility.yul\":2107:2130   */\n      tag_320\n      jump\t// in\n    tag_419:\n        /* \"#utility.yul\":2102:2105   */\n      dup3\n        /* \"#utility.yul\":2095:2131   */\n      mstore\n        /* \"#utility.yul\":2022:2137   */\n      pop\n      pop\n      jump\t// out\n        /* \"#utility.yul\":2143:2361   */\n    tag_42:\n        /* \"#utility.yul\":2234:2238   */\n      0x00\n        /* \"#utility.yul\":2272:2274   */\n      0x20\n        /* \"#utility.yul\":2261:2270   */\n      dup3\n        /* \"#utility.yul\":2257:2275   */\n      add\n        /* \"#utility.yul\":2249:2275   */\n      swap1\n      pop\n        /* \"#utility.yul\":2285:2354   */\n      tag_421\n        /* \"#utility.yul\":2351:2352   */\n      0x00\n        /* \"#utility.yul\":2340:2349   */\n      dup4\n        /* \"#utility.yul\":2336:2353   */\n      add\n        /* \"#utility.yul\":2327:2333   */\n      dup5\n        /* \"#utility.yul\":2285:2354   */\n      tag_321\n      jump\t// in\n    tag_421:\n        /* \"#utility.yul\":2143:2361   */\n      swap3\n      swap2\n      pop\n      pop\n      jump\t// out\n        /* \"#utility.yul\":2367:2841   */\n    tag_45:\n        /* \"#utility.yul\":2435:2441   */\n      0x00\n        /* \"#utility.yul\":2443:2449   */\n      dup1\n        /* \"#utility.yul\":2492:2494   */\n      0x40\n        /* \"#utility.yul\":2480:2489   */\n      dup4\n        /* \"#utility.yul\":2471:2478   */\n      dup6\n        /* \"#utility.yul\":2467:2490   */\n      sub\n        /* \"#utility.yul\":2463:2495   */\n      slt\n        /* \"#utility.yul\":2460:2579   */\n      iszero\n      tag_423\n      jumpi\n        /* \"#utility.yul\":2498:2577   */\n      tag_424\n      tag_311\n      jump\t// in\n    tag_424:\n        /* \"#utility.yul\":2460:2579   */\n    tag_423:\n        /* \"#utility.yul\":2618:2619   */\n      0x00\n        /* \"#utility.yul\":2643:2696   */\n      tag_425\n        /* \"#utility.yul\":2688:2695   */\n      dup6\n        /* \"#utility.yul\":2679:2685   */\n      dup3\n        /* \"#utility.yul\":2668:2677   */\n      dup7\n        /* \"#utility.yul\":2664:2686   */\n      add\n        /* \"#utility.yul\":2643:2696   */\n      tag_315\n      jump\t// in\n    tag_425:\n        /* \"#utility.yul\":2633:2696   */\n      swap3\n      pop\n        /* \"#utility.yul\":2589:2706   */\n      pop\n        /* \"#utility.yul\":2745:2747   */\n      0x20\n        /* \"#utility.yul\":2771:2824   */\n      tag_426\n        /* \"#utility.yul\":2816:2823   */\n      dup6\n        /* \"#utility.yul\":2807:2813   */\n      dup3\n        /* \"#utility.yul\":2796:2805   */\n      dup7\n        /* \"#utility.yul\":2792:2814   */\n      add\n        /* \"#utility.yul\":2771:2824   */\n      tag_315\n      jump\t// in\n    tag_426:\n        /* \"#utility.yul\":2761:2824   */\n      swap2\n      pop\n        /* \"#utility.yul\":2716:2834   */\n      pop\n        /* \"#utility.yul\":2367:2841   */\n      swap3\n      pop\n      swap3\n      swap1\n      pop\n      jump\t// out\n        /* \"#utility.yul\":2847:2907   */\n    tag_322:\n        /* \"#utility.yul\":2875:2878   */\n      0x00\n        /* \"#utility.yul\":2896:2901   */\n      dup2\n        /* \"#utility.yul\":2889:2901   */\n      swap1\n      pop\n        /* \"#utility.yul\":2847:2907   */\n      swap2\n      swap1\n      pop\n      jump\t// out\n        /* \"#utility.yul\":2913:3055   */\n    tag_323:\n        /* \"#utility.yul\":2963:2972   */\n      0x00\n        /* \"#utility.yul\":2996:3049   */\n      tag_429\n        /* \"#utility.yul\":3014:3048   */\n      tag_430\n        /* \"#utility.yul\":3023:3047   */\n      tag_431\n        /* \"#utility.yul\":3041:3046   */\n      dup5\n        /* \"#utility.yul\":3023:3047   */\n      tag_316\n      jump\t// in\n    tag_431:\n        /* \"#utility.yul\":3014:3048   */\n      tag_322\n      jump\t// in\n    tag_430:\n        /* \"#utility.yul\":2996:3049   */\n      tag_316\n      jump\t// in\n    tag_429:\n        /* \"#utility.yul\":2983:3049   */\n      swap1\n      pop\n        /* \"#utility.yul\":2913:3055   */\n      swap2\n      swap1\n      pop\n      jump\t// out\n        /* \"#utility.yul\":3061:3187   */\n    tag_324:\n        /* \"#utility.yul\":3111:3120   */\n      0x00\n        /* \"#utility.yul\":3144:3181   */\n      tag_433\n        /* \"#utility.yul\":3175:3180   */\n      dup3\n        /* \"#utility.yul\":3144:3181   */\n      tag_323\n      jump\t// in\n    tag_433:\n        /* \"#utility.yul\":3131:3181   */\n      swap1\n      pop\n        /* \"#utility.yul\":3061:3187   */\n      swap2\n      swap1\n      pop\n      jump\t// out\n        /* \"#utility.yul\":3193:3333   */\n    tag_325:\n        /* \"#utility.yul\":3257:3266   */\n      0x00\n        /* \"#utility.yul\":3290:3327   */\n      tag_435\n        /* \"#utility.yul\":3321:3326   */\n      dup3\n        /* \"#utility.yul\":3290:3327   */\n      tag_324\n      jump\t// in\n    tag_435:\n        /* \"#utility.yul\":3277:3327   */\n      swap1\n      pop\n        /* \"#utility.yul\":3193:3333   */\n      swap2\n      swap1\n      pop\n      jump\t// out\n        /* \"#utility.yul\":3339:3498   */\n    tag_326:\n        /* \"#utility.yul\":3440:3491   */\n      tag_437\n        /* \"#utility.yul\":3485:3490   */\n      dup2\n        /* \"#utility.yul\":3440:3491   */\n      tag_325\n      jump\t// in\n    tag_437:\n        /* \"#utility.yul\":3435:3438   */\n      dup3\n        /* \"#utility.yul\":3428:3492   */\n      mstore\n        /* \"#utility.yul\":3339:3498   */\n      pop\n      pop\n      jump\t// out\n        /* \"#utility.yul\":3504:3754   */\n    tag_53:\n        /* \"#utility.yul\":3611:3615   */\n      0x00\n        /* \"#utility.yul\":3649:3651   */\n      0x20\n        /* \"#utility.yul\":3638:3647   */\n      dup3\n        /* \"#utility.yul\":3634:3652   */\n      add\n        /* \"#utility.yul\":3626:3652   */\n      swap1\n      pop\n        /* \"#utility.yul\":3662:3747   */\n      tag_439\n        /* \"#utility.yul\":3744:3745   */\n      0x00\n        /* \"#utility.yul\":3733:3742   */\n      dup4\n        /* \"#utility.yul\":3729:3746   */\n      add\n        /* \"#utility.yul\":3720:3726   */\n      dup5\n        /* \"#utility.yul\":3662:3747   */\n      tag_326\n      jump\t// in\n    tag_439:\n        /* \"#utility.yul\":3504:3754   */\n      swap3\n      swap2\n      pop\n      pop\n      jump\t// out\n        /* \"#utility.yul\":3760:3901   */\n    tag_327:\n        /* \"#utility.yul\":3854:3860   */\n      0x00\n        /* \"#utility.yul\":3888:3893   */\n      dup2\n        /* \"#utility.yul\":3882:3894   */\n      mload\n        /* \"#utility.yul\":3872:3894   */\n      swap1\n      pop\n        /* \"#utility.yul\":3760:3901   */\n      swap2\n      swap1\n      pop\n      jump\t// out\n        /* \"#utility.yul\":3907:4118   */\n    tag_328:\n        /* \"#utility.yul\":4033:4044   */\n      0x00\n        /* \"#utility.yul\":4067:4073   */\n      dup3\n        /* \"#utility.yul\":4062:4065   */\n      dup3\n        /* \"#utility.yul\":4055:4074   */\n      mstore\n        /* \"#utility.yul\":4107:4111   */\n      0x20\n        /* \"#utility.yul\":4102:4105   */\n      dup3\n        /* \"#utility.yul\":4098:4112   */\n      add\n        /* \"#utility.yul\":4083:4112   */\n      swap1\n      pop\n        /* \"#utility.yul\":3907:4118   */\n      swap3\n      swap2\n      pop\n      pop\n      jump\t// out\n        /* \"#utility.yul\":4124:4283   */\n    tag_329:\n        /* \"#utility.yul\":4218:4222   */\n      0x00\n        /* \"#utility.yul\":4241:4244   */\n      dup2\n        /* \"#utility.yul\":4233:4244   */\n      swap1\n      pop\n        /* \"#utility.yul\":4271:4275   */\n      0x20\n        /* \"#utility.yul\":4266:4269   */\n      dup3\n        /* \"#utility.yul\":4262:4276   */\n      add\n        /* \"#utility.yul\":4254:4276   */\n      swap1\n      pop\n        /* \"#utility.yul\":4124:4283   */\n      swap2\n      swap1\n      pop\n      jump\t// out\n        /* \"#utility.yul\":4289:4397   */\n    tag_330:\n        /* \"#utility.yul\":4366:4390   */\n      tag_444\n        /* \"#utility.yul\":4384:4389   */\n      dup2\n        /* \"#utility.yul\":4366:4390   */\n      tag_313\n      jump\t// in\n    tag_444:\n        /* \"#utility.yul\":4361:4364   */\n      dup3\n        /* \"#utility.yul\":4354:4391   */\n      mstore\n        /* \"#utility.yul\":4289:4397   */\n      pop\n      pop\n      jump\t// out\n        /* \"#utility.yul\":4403:4511   */\n    tag_331:\n        /* \"#utility.yul\":4480:4504   */\n      tag_446\n        /* \"#utility.yul\":4498:4503   */\n      dup2\n        /* \"#utility.yul\":4480:4504   */\n      tag_317\n      jump\t// in\n    tag_446:\n        /* \"#utility.yul\":4475:4478   */\n      dup3\n        /* \"#utility.yul\":4468:4505   */\n      mstore\n        /* \"#utility.yul\":4403:4511   */\n      pop\n      pop\n      jump\t// out\n        /* \"#utility.yul\":4517:4697   */\n    tag_112:\n        /* \"#utility.yul\":4565:4642   */\n      0x4e487b7100000000000000000000000000000000000000000000000000000000\n        /* \"#utility.yul\":4562:4563   */\n      0x00\n        /* \"#utility.yul\":4555:4643   */\n      mstore\n        /* \"#utility.yul\":4662:4666   */\n      0x21\n        /* \"#utility.yul\":4659:4660   */\n      0x04\n        /* \"#utility.yul\":4652:4667   */\n      mstore\n        /* \"#utility.yul\":4686:4690   */\n      0x24\n        /* \"#utility.yul\":4683:4684   */\n      0x00\n        /* \"#utility.yul\":4676:4691   */\n      revert\n        /* \"#utility.yul\":4703:4822   */\n    tag_332:\n        /* \"#utility.yul\":4790:4791   */\n      0x02\n        /* \"#utility.yul\":4783:4788   */\n      dup2\n        /* \"#utility.yul\":4780:4792   */\n      lt\n        /* \"#utility.yul\":4770:4816   */\n      tag_449\n      jumpi\n        /* \"#utility.yul\":4796:4814   */\n      tag_450\n      tag_112\n      jump\t// in\n    tag_450:\n        /* \"#utility.yul\":4770:4816   */\n    tag_449:\n        /* \"#utility.yul\":4703:4822   */\n      pop\n      jump\t// out\n        /* \"#utility.yul\":4828:4967   */\n    tag_333:\n        /* \"#utility.yul\":4879:4886   */\n      0x00\n        /* \"#utility.yul\":4908:4913   */\n      dup2\n        /* \"#utility.yul\":4897:4913   */\n      swap1\n      pop\n        /* \"#utility.yul\":4914:4961   */\n      tag_452\n        /* \"#utility.yul\":4955:4960   */\n      dup3\n        /* \"#utility.yul\":4914:4961   */\n      tag_332\n      jump\t// in\n    tag_452:\n        /* \"#utility.yul\":4828:4967   */\n      swap2\n      swap1\n      pop\n      jump\t// out\n        /* \"#utility.yul\":4973:5112   */\n    tag_334:\n        /* \"#utility.yul\":5035:5044   */\n      0x00\n        /* \"#utility.yul\":5068:5106   */\n      tag_454\n        /* \"#utility.yul\":5100:5105   */\n      dup3\n        /* \"#utility.yul\":5068:5106   */\n      tag_333\n      jump\t// in\n    tag_454:\n        /* \"#utility.yul\":5055:5106   */\n      swap1\n      pop\n        /* \"#utility.yul\":4973:5112   */\n      swap2\n      swap1\n      pop\n      jump\t// out\n        /* \"#utility.yul\":5118:5263   */\n    tag_335:\n        /* \"#utility.yul\":5207:5256   */\n      tag_456\n        /* \"#utility.yul\":5250:5255   */\n      dup2\n        /* \"#utility.yul\":5207:5256   */\n      tag_334\n      jump\t// in\n    tag_456:\n        /* \"#utility.yul\":5202:5205   */\n      dup3\n        /* \"#utility.yul\":5195:5257   */\n      mstore\n        /* \"#utility.yul\":5118:5263   */\n      pop\n      pop\n      jump\t// out\n        /* \"#utility.yul\":5353:6573   */\n    tag_336:\n        /* \"#utility.yul\":5494:5498   */\n      0xc0\n        /* \"#utility.yul\":5489:5492   */\n      dup3\n        /* \"#utility.yul\":5485:5499   */\n      add\n        /* \"#utility.yul\":5583:5587   */\n      0x00\n        /* \"#utility.yul\":5576:5581   */\n      dup3\n        /* \"#utility.yul\":5572:5588   */\n      add\n        /* \"#utility.yul\":5566:5589   */\n      mload\n        /* \"#utility.yul\":5602:5665   */\n      tag_458\n        /* \"#utility.yul\":5659:5663   */\n      0x00\n        /* \"#utility.yul\":5654:5657   */\n      dup6\n        /* \"#utility.yul\":5650:5664   */\n      add\n        /* \"#utility.yul\":5636:5648   */\n      dup3\n        /* \"#utility.yul\":5602:5665   */\n      tag_330\n      jump\t// in\n    tag_458:\n        /* \"#utility.yul\":5509:5675   */\n      pop\n        /* \"#utility.yul\":5760:5764   */\n      0x20\n        /* \"#utility.yul\":5753:5758   */\n      dup3\n        /* \"#utility.yul\":5749:5765   */\n      add\n        /* \"#utility.yul\":5743:5766   */\n      mload\n        /* \"#utility.yul\":5779:5842   */\n      tag_459\n        /* \"#utility.yul\":5836:5840   */\n      0x20\n        /* \"#utility.yul\":5831:5834   */\n      dup6\n        /* \"#utility.yul\":5827:5841   */\n      add\n        /* \"#utility.yul\":5813:5825   */\n      dup3\n        /* \"#utility.yul\":5779:5842   */\n      tag_330\n      jump\t// in\n    tag_459:\n        /* \"#utility.yul\":5685:5852   */\n      pop\n        /* \"#utility.yul\":5936:5940   */\n      0x40\n        /* \"#utility.yul\":5929:5934   */\n      dup3\n        /* \"#utility.yul\":5925:5941   */\n      add\n        /* \"#utility.yul\":5919:5942   */\n      mload\n        /* \"#utility.yul\":5955:6018   */\n      tag_460\n        /* \"#utility.yul\":6012:6016   */\n      0x40\n        /* \"#utility.yul\":6007:6010   */\n      dup6\n        /* \"#utility.yul\":6003:6017   */\n      add\n        /* \"#utility.yul\":5989:6001   */\n      dup3\n        /* \"#utility.yul\":5955:6018   */\n      tag_331\n      jump\t// in\n    tag_460:\n        /* \"#utility.yul\":5862:6028   */\n      pop\n        /* \"#utility.yul\":6111:6115   */\n      0x60\n        /* \"#utility.yul\":6104:6109   */\n      dup3\n        /* \"#utility.yul\":6100:6116   */\n      add\n        /* \"#utility.yul\":6094:6117   */\n      mload\n        /* \"#utility.yul\":6130:6193   */\n      tag_461\n        /* \"#utility.yul\":6187:6191   */\n      0x60\n        /* \"#utility.yul\":6182:6185   */\n      dup6\n        /* \"#utility.yul\":6178:6192   */\n      add\n        /* \"#utility.yul\":6164:6176   */\n      dup3\n        /* \"#utility.yul\":6130:6193   */\n      tag_331\n      jump\t// in\n    tag_461:\n        /* \"#utility.yul\":6038:6203   */\n      pop\n        /* \"#utility.yul\":6286:6290   */\n      0x80\n        /* \"#utility.yul\":6279:6284   */\n      dup3\n        /* \"#utility.yul\":6275:6291   */\n      add\n        /* \"#utility.yul\":6269:6292   */\n      mload\n        /* \"#utility.yul\":6305:6368   */\n      tag_462\n        /* \"#utility.yul\":6362:6366   */\n      0x80\n        /* \"#utility.yul\":6357:6360   */\n      dup6\n        /* \"#utility.yul\":6353:6367   */\n      add\n        /* \"#utility.yul\":6339:6351   */\n      dup3\n        /* \"#utility.yul\":6305:6368   */\n      tag_330\n      jump\t// in\n    tag_462:\n        /* \"#utility.yul\":6213:6378   */\n      pop\n        /* \"#utility.yul\":6462:6466   */\n      0xa0\n        /* \"#utility.yul\":6455:6460   */\n      dup3\n        /* \"#utility.yul\":6451:6467   */\n      add\n        /* \"#utility.yul\":6445:6468   */\n      mload\n        /* \"#utility.yul\":6481:6556   */\n      tag_463\n        /* \"#utility.yul\":6550:6554   */\n      0xa0\n        /* \"#utility.yul\":6545:6548   */\n      dup6\n        /* \"#utility.yul\":6541:6555   */\n      add\n        /* \"#utility.yul\":6527:6539   */\n      dup3\n        /* \"#utility.yul\":6481:6556   */\n      tag_335\n      jump\t// in\n    tag_463:\n        /* \"#utility.yul\":6388:6566   */\n      pop\n        /* \"#utility.yul\":5463:6573   */\n      pop\n        /* \"#utility.yul\":5353:6573   */\n      pop\n      pop\n      jump\t// out\n        /* \"#utility.yul\":6579:6866   */\n    tag_337:\n        /* \"#utility.yul\":6702:6712   */\n      0x00\n        /* \"#utility.yul\":6723:6823   */\n      tag_465\n        /* \"#utility.yul\":6819:6822   */\n      dup4\n        /* \"#utility.yul\":6811:6817   */\n      dup4\n        /* \"#utility.yul\":6723:6823   */\n      tag_336\n      jump\t// in\n    tag_465:\n        /* \"#utility.yul\":6855:6859   */\n      0xc0\n        /* \"#utility.yul\":6850:6853   */\n      dup4\n        /* \"#utility.yul\":6846:6860   */\n      add\n        /* \"#utility.yul\":6832:6860   */\n      swap1\n      pop\n        /* \"#utility.yul\":6579:6866   */\n      swap3\n      swap2\n      pop\n      pop\n      jump\t// out\n        /* \"#utility.yul\":6872:7012   */\n    tag_338:\n        /* \"#utility.yul\":6969:6973   */\n      0x00\n        /* \"#utility.yul\":7001:7005   */\n      0x20\n        /* \"#utility.yul\":6996:6999   */\n      dup3\n        /* \"#utility.yul\":6992:7006   */\n      add\n        /* \"#utility.yul\":6984:7006   */\n      swap1\n      pop\n        /* \"#utility.yul\":6872:7012   */\n      swap2\n      swap1\n      pop\n      jump\t// out\n        /* \"#utility.yul\":7106:8054   */\n    tag_339:\n        /* \"#utility.yul\":7279:7282   */\n      0x00\n        /* \"#utility.yul\":7308:7389   */\n      tag_468\n        /* \"#utility.yul\":7383:7388   */\n      dup3\n        /* \"#utility.yul\":7308:7389   */\n      tag_327\n      jump\t// in\n    tag_468:\n        /* \"#utility.yul\":7405:7518   */\n      tag_469\n        /* \"#utility.yul\":7511:7517   */\n      dup2\n        /* \"#utility.yul\":7506:7509   */\n      dup6\n        /* \"#utility.yul\":7405:7518   */\n      tag_328\n      jump\t// in\n    tag_469:\n        /* \"#utility.yul\":7398:7518   */\n      swap4\n      pop\n        /* \"#utility.yul\":7542:7625   */\n      tag_470\n        /* \"#utility.yul\":7619:7624   */\n      dup4\n        /* \"#utility.yul\":7542:7625   */\n      tag_329\n      jump\t// in\n    tag_470:\n        /* \"#utility.yul\":7648:7655   */\n      dup1\n        /* \"#utility.yul\":7679:7680   */\n      0x00\n        /* \"#utility.yul\":7664:8029   */\n    tag_471:\n        /* \"#utility.yul\":7689:7695   */\n      dup4\n        /* \"#utility.yul\":7686:7687   */\n      dup2\n        /* \"#utility.yul\":7683:7696   */\n      lt\n        /* \"#utility.yul\":7664:8029   */\n      iszero\n      tag_473\n      jumpi\n        /* \"#utility.yul\":7765:7771   */\n      dup2\n        /* \"#utility.yul\":7759:7772   */\n      mload\n        /* \"#utility.yul\":7792:7909   */\n      tag_474\n        /* \"#utility.yul\":7905:7908   */\n      dup9\n        /* \"#utility.yul\":7890:7903   */\n      dup3\n        /* \"#utility.yul\":7792:7909   */\n      tag_337\n      jump\t// in\n    tag_474:\n        /* \"#utility.yul\":7785:7909   */\n      swap8\n      pop\n        /* \"#utility.yul\":7932:8019   */\n      tag_475\n        /* \"#utility.yul\":8012:8018   */\n      dup4\n        /* \"#utility.yul\":7932:8019   */\n      tag_338\n      jump\t// in\n    tag_475:\n        /* \"#utility.yul\":7922:8019   */\n      swap3\n      pop\n        /* \"#utility.yul\":7724:8029   */\n      pop\n        /* \"#utility.yul\":7711:7712   */\n      0x01\n        /* \"#utility.yul\":7708:7709   */\n      dup2\n        /* \"#utility.yul\":7704:7713   */\n      add\n        /* \"#utility.yul\":7699:7713   */\n      swap1\n      pop\n        /* \"#utility.yul\":7664:8029   */\n      jump(tag_471)\n    tag_473:\n        /* \"#utility.yul\":7668:7682   */\n      pop\n        /* \"#utility.yul\":8045:8048   */\n      dup6\n        /* \"#utility.yul\":8038:8048   */\n      swap4\n      pop\n        /* \"#utility.yul\":7284:8054   */\n      pop\n      pop\n      pop\n        /* \"#utility.yul\":7106:8054   */\n      swap3\n      swap2\n      pop\n      pop\n      jump\t// out\n        /* \"#utility.yul\":8060:8541   */\n    tag_57:\n        /* \"#utility.yul\":8257:8261   */\n      0x00\n        /* \"#utility.yul\":8295:8297   */\n      0x20\n        /* \"#utility.yul\":8284:8293   */\n      dup3\n        /* \"#utility.yul\":8280:8298   */\n      add\n        /* \"#utility.yul\":8272:8298   */\n      swap1\n      pop\n        /* \"#utility.yul\":8344:8353   */\n      dup2\n        /* \"#utility.yul\":8338:8342   */\n      dup2\n        /* \"#utility.yul\":8334:8354   */\n      sub\n        /* \"#utility.yul\":8330:8331   */\n      0x00\n        /* \"#utility.yul\":8319:8328   */\n      dup4\n        /* \"#utility.yul\":8315:8332   */\n      add\n        /* \"#utility.yul\":8308:8355   */\n      mstore\n        /* \"#utility.yul\":8372:8534   */\n      tag_477\n        /* \"#utility.yul\":8529:8533   */\n      dup2\n        /* \"#utility.yul\":8520:8526   */\n      dup5\n        /* \"#utility.yul\":8372:8534   */\n      tag_339\n      jump\t// in\n    tag_477:\n        /* \"#utility.yul\":8364:8534   */\n      swap1\n      pop\n        /* \"#utility.yul\":8060:8541   */\n      swap3\n      swap2\n      pop\n      pop\n      jump\t// out\n        /* \"#utility.yul\":8547:8633   */\n    tag_340:\n        /* \"#utility.yul\":8582:8589   */\n      0x00\n        /* \"#utility.yul\":8622:8626   */\n      0xff\n        /* \"#utility.yul\":8615:8620   */\n      dup3\n        /* \"#utility.yul\":8611:8627   */\n      and\n        /* \"#utility.yul\":8600:8627   */\n      swap1\n      pop\n        /* \"#utility.yul\":8547:8633   */\n      swap2\n      swap1\n      pop\n      jump\t// out\n        /* \"#utility.yul\":8639:8751   */\n    tag_341:\n        /* \"#utility.yul\":8722:8744   */\n      tag_480\n        /* \"#utility.yul\":8738:8743   */\n      dup2\n        /* \"#utility.yul\":8722:8744   */\n      tag_340\n      jump\t// in\n    tag_480:\n        /* \"#utility.yul\":8717:8720   */\n      dup3\n        /* \"#utility.yul\":8710:8745   */\n      mstore\n        /* \"#utility.yul\":8639:8751   */\n      pop\n      pop\n      jump\t// out\n        /* \"#utility.yul\":8757:8971   */\n    tag_66:\n        /* \"#utility.yul\":8846:8850   */\n      0x00\n        /* \"#utility.yul\":8884:8886   */\n      0x20\n        /* \"#utility.yul\":8873:8882   */\n      dup3\n        /* \"#utility.yul\":8869:8887   */\n      add\n        /* \"#utility.yul\":8861:8887   */\n      swap1\n      pop\n        /* \"#utility.yul\":8897:8964   */\n      tag_482\n        /* \"#utility.yul\":8961:8962   */\n      0x00\n        /* \"#utility.yul\":8950:8959   */\n      dup4\n        /* \"#utility.yul\":8946:8963   */\n      add\n        /* \"#utility.yul\":8937:8943   */\n      dup5\n        /* \"#utility.yul\":8897:8964   */\n      tag_341\n      jump\t// in\n    tag_482:\n        /* \"#utility.yul\":8757:8971   */\n      swap3\n      swap2\n      pop\n      pop\n      jump\t// out\n        /* \"#utility.yul\":8977:9596   */\n    tag_69:\n        /* \"#utility.yul\":9054:9060   */\n      0x00\n        /* \"#utility.yul\":9062:9068   */\n      dup1\n        /* \"#utility.yul\":9070:9076   */\n      0x00\n        /* \"#utility.yul\":9119:9121   */\n      0x60\n        /* \"#utility.yul\":9107:9116   */\n      dup5\n        /* \"#utility.yul\":9098:9105   */\n      dup7\n        /* \"#utility.yul\":9094:9117   */\n      sub\n        /* \"#utility.yul\":9090:9122   */\n      slt\n        /* \"#utility.yul\":9087:9206   */\n      iszero\n      tag_484\n      jumpi\n        /* \"#utility.yul\":9125:9204   */\n      tag_485\n      tag_311\n      jump\t// in\n    tag_485:\n        /* \"#utility.yul\":9087:9206   */\n    tag_484:\n        /* \"#utility.yul\":9245:9246   */\n      0x00\n        /* \"#utility.yul\":9270:9323   */\n      tag_486\n        /* \"#utility.yul\":9315:9322   */\n      dup7\n        /* \"#utility.yul\":9306:9312   */\n      dup3\n        /* \"#utility.yul\":9295:9304   */\n      dup8\n        /* \"#utility.yul\":9291:9313   */\n      add\n        /* \"#utility.yul\":9270:9323   */\n      tag_315\n      jump\t// in\n    tag_486:\n        /* \"#utility.yul\":9260:9323   */\n      swap4\n      pop\n        /* \"#utility.yul\":9216:9333   */\n      pop\n        /* \"#utility.yul\":9372:9374   */\n      0x20\n        /* \"#utility.yul\":9398:9451   */\n      tag_487\n        /* \"#utility.yul\":9443:9450   */\n      dup7\n        /* \"#utility.yul\":9434:9440   */\n      dup3\n        /* \"#utility.yul\":9423:9432   */\n      dup8\n        /* \"#utility.yul\":9419:9441   */\n      add\n        /* \"#utility.yul\":9398:9451   */\n      tag_315\n      jump\t// in\n    tag_487:\n        /* \"#utility.yul\":9388:9451   */\n      swap3\n      pop\n        /* \"#utility.yul\":9343:9461   */\n      pop\n        /* \"#utility.yul\":9500:9502   */\n      0x40\n        /* \"#utility.yul\":9526:9579   */\n      tag_488\n        /* \"#utility.yul\":9571:9578   */\n      dup7\n        /* \"#utility.yul\":9562:9568   */\n      dup3\n        /* \"#utility.yul\":9551:9560   */\n      dup8\n        /* \"#utility.yul\":9547:9569   */\n      add\n        /* \"#utility.yul\":9526:9579   */\n      tag_315\n      jump\t// in\n    tag_488:\n        /* \"#utility.yul\":9516:9579   */\n      swap2\n      pop\n        /* \"#utility.yul\":9471:9589   */\n      pop\n        /* \"#utility.yul\":8977:9596   */\n      swap3\n      pop\n      swap3\n      pop\n      swap3\n      jump\t// out\n        /* \"#utility.yul\":9602:9720   */\n    tag_342:\n        /* \"#utility.yul\":9689:9713   */\n      tag_490\n        /* \"#utility.yul\":9707:9712   */\n      dup2\n        /* \"#utility.yul\":9689:9713   */\n      tag_317\n      jump\t// in\n    tag_490:\n        /* \"#utility.yul\":9684:9687   */\n      dup3\n        /* \"#utility.yul\":9677:9714   */\n      mstore\n        /* \"#utility.yul\":9602:9720   */\n      pop\n      pop\n      jump\t// out\n        /* \"#utility.yul\":9726:9948   */\n    tag_74:\n        /* \"#utility.yul\":9819:9823   */\n      0x00\n        /* \"#utility.yul\":9857:9859   */\n      0x20\n        /* \"#utility.yul\":9846:9855   */\n      dup3\n        /* \"#utility.yul\":9842:9860   */\n      add\n        /* \"#utility.yul\":9834:9860   */\n      swap1\n      pop\n        /* \"#utility.yul\":9870:9941   */\n      tag_492\n        /* \"#utility.yul\":9938:9939   */\n      0x00\n        /* \"#utility.yul\":9927:9936   */\n      dup4\n        /* \"#utility.yul\":9923:9940   */\n      add\n        /* \"#utility.yul\":9914:9920   */\n      dup5\n        /* \"#utility.yul\":9870:9941   */\n      tag_342\n      jump\t// in\n    tag_492:\n        /* \"#utility.yul\":9726:9948   */\n      swap3\n      swap2\n      pop\n      pop\n      jump\t// out\n        /* \"#utility.yul\":9954:10072   */\n    tag_343:\n        /* \"#utility.yul\":10041:10065   */\n      tag_494\n        /* \"#utility.yul\":10059:10064   */\n      dup2\n        /* \"#utility.yul\":10041:10065   */\n      tag_313\n      jump\t// in\n    tag_494:\n        /* \"#utility.yul\":10036:10039   */\n      dup3\n        /* \"#utility.yul\":10029:10066   */\n      mstore\n        /* \"#utility.yul\":9954:10072   */\n      pop\n      pop\n      jump\t// out\n        /* \"#utility.yul\":10078:10233   */\n    tag_344:\n        /* \"#utility.yul\":10177:10226   */\n      tag_496\n        /* \"#utility.yul\":10220:10225   */\n      dup2\n        /* \"#utility.yul\":10177:10226   */\n      tag_334\n      jump\t// in\n    tag_496:\n        /* \"#utility.yul\":10172:10175   */\n      dup3\n        /* \"#utility.yul\":10165:10227   */\n      mstore\n        /* \"#utility.yul\":10078:10233   */\n      pop\n      pop\n      jump\t// out\n        /* \"#utility.yul\":10239:11038   */\n    tag_85:\n        /* \"#utility.yul\":10484:10488   */\n      0x00\n        /* \"#utility.yul\":10522:10525   */\n      0xc0\n        /* \"#utility.yul\":10511:10520   */\n      dup3\n        /* \"#utility.yul\":10507:10526   */\n      add\n        /* \"#utility.yul\":10499:10526   */\n      swap1\n      pop\n        /* \"#utility.yul\":10536:10607   */\n      tag_498\n        /* \"#utility.yul\":10604:10605   */\n      0x00\n        /* \"#utility.yul\":10593:10602   */\n      dup4\n        /* \"#utility.yul\":10589:10606   */\n      add\n        /* \"#utility.yul\":10580:10586   */\n      dup10\n        /* \"#utility.yul\":10536:10607   */\n      tag_343\n      jump\t// in\n    tag_498:\n        /* \"#utility.yul\":10617:10689   */\n      tag_499\n        /* \"#utility.yul\":10685:10687   */\n      0x20\n        /* \"#utility.yul\":10674:10683   */\n      dup4\n        /* \"#utility.yul\":10670:10688   */\n      add\n        /* \"#utility.yul\":10661:10667   */\n      dup9\n        /* \"#utility.yul\":10617:10689   */\n      tag_343\n      jump\t// in\n    tag_499:\n        /* \"#utility.yul\":10699:10771   */\n      tag_500\n        /* \"#utility.yul\":10767:10769   */\n      0x40\n        /* \"#utility.yul\":10756:10765   */\n      dup4\n        /* \"#utility.yul\":10752:10770   */\n      add\n        /* \"#utility.yul\":10743:10749   */\n      dup8\n        /* \"#utility.yul\":10699:10771   */\n      tag_342\n      jump\t// in\n    tag_500:\n        /* \"#utility.yul\":10781:10853   */\n      tag_501\n        /* \"#utility.yul\":10849:10851   */\n      0x60\n        /* \"#utility.yul\":10838:10847   */\n      dup4\n        /* \"#utility.yul\":10834:10852   */\n      add\n        /* \"#utility.yul\":10825:10831   */\n      dup7\n        /* \"#utility.yul\":10781:10853   */\n      tag_342\n      jump\t// in\n    tag_501:\n        /* \"#utility.yul\":10863:10936   */\n      tag_502\n        /* \"#utility.yul\":10931:10934   */\n      0x80\n        /* \"#utility.yul\":10920:10929   */\n      dup4\n        /* \"#utility.yul\":10916:10935   */\n      add\n        /* \"#utility.yul\":10907:10913   */\n      dup6\n        /* \"#utility.yul\":10863:10936   */\n      tag_343\n      jump\t// in\n    tag_502:\n        /* \"#utility.yul\":10946:11031   */\n      tag_503\n        /* \"#utility.yul\":11026:11029   */\n      0xa0\n        /* \"#utility.yul\":11015:11024   */\n      dup4\n        /* \"#utility.yul\":11011:11030   */\n      add\n        /* \"#utility.yul\":11002:11008   */\n      dup5\n        /* \"#utility.yul\":10946:11031   */\n      tag_344\n      jump\t// in\n    tag_503:\n        /* \"#utility.yul\":10239:11038   */\n      swap8\n      swap7\n      pop\n      pop\n      pop\n      pop\n      pop\n      pop\n      pop\n      jump\t// out\n        /* \"#utility.yul\":11044:11186   */\n    tag_345:\n        /* \"#utility.yul\":11110:11119   */\n      0x00\n        /* \"#utility.yul\":11143:11180   */\n      tag_505\n        /* \"#utility.yul\":11174:11179   */\n      dup3\n        /* \"#utility.yul\":11143:11180   */\n      tag_324\n      jump\t// in\n    tag_505:\n        /* \"#utility.yul\":11130:11180   */\n      swap1\n      pop\n        /* \"#utility.yul\":11044:11186   */\n      swap2\n      swap1\n      pop\n      jump\t// out\n        /* \"#utility.yul\":11192:11355   */\n    tag_346:\n        /* \"#utility.yul\":11295:11348   */\n      tag_507\n        /* \"#utility.yul\":11342:11347   */\n      dup2\n        /* \"#utility.yul\":11295:11348   */\n      tag_345\n      jump\t// in\n    tag_507:\n        /* \"#utility.yul\":11290:11293   */\n      dup3\n        /* \"#utility.yul\":11283:11349   */\n      mstore\n        /* \"#utility.yul\":11192:11355   */\n      pop\n      pop\n      jump\t// out\n        /* \"#utility.yul\":11361:11615   */\n    tag_89:\n        /* \"#utility.yul\":11470:11474   */\n      0x00\n        /* \"#utility.yul\":11508:11510   */\n      0x20\n        /* \"#utility.yul\":11497:11506   */\n      dup3\n        /* \"#utility.yul\":11493:11511   */\n      add\n        /* \"#utility.yul\":11485:11511   */\n      swap1\n      pop\n        /* \"#utility.yul\":11521:11608   */\n      tag_509\n        /* \"#utility.yul\":11605:11606   */\n      0x00\n        /* \"#utility.yul\":11594:11603   */\n      dup4\n        /* \"#utility.yul\":11590:11607   */\n      add\n        /* \"#utility.yul\":11581:11587   */\n      dup5\n        /* \"#utility.yul\":11521:11608   */\n      tag_346\n      jump\t// in\n    tag_509:\n        /* \"#utility.yul\":11361:11615   */\n      swap3\n      swap2\n      pop\n      pop\n      jump\t// out\n        /* \"#utility.yul\":11705:12935   */\n    tag_347:\n        /* \"#utility.yul\":11856:11860   */\n      0xc0\n        /* \"#utility.yul\":11851:11854   */\n      dup3\n        /* \"#utility.yul\":11847:11861   */\n      add\n        /* \"#utility.yul\":11945:11949   */\n      0x00\n        /* \"#utility.yul\":11938:11943   */\n      dup3\n        /* \"#utility.yul\":11934:11950   */\n      add\n        /* \"#utility.yul\":11928:11951   */\n      mload\n        /* \"#utility.yul\":11964:12027   */\n      tag_511\n        /* \"#utility.yul\":12021:12025   */\n      0x00\n        /* \"#utility.yul\":12016:12019   */\n      dup6\n        /* \"#utility.yul\":12012:12026   */\n      add\n        /* \"#utility.yul\":11998:12010   */\n      dup3\n        /* \"#utility.yul\":11964:12027   */\n      tag_330\n      jump\t// in\n    tag_511:\n        /* \"#utility.yul\":11871:12037   */\n      pop\n        /* \"#utility.yul\":12122:12126   */\n      0x20\n        /* \"#utility.yul\":12115:12120   */\n      dup3\n        /* \"#utility.yul\":12111:12127   */\n      add\n        /* \"#utility.yul\":12105:12128   */\n      mload\n        /* \"#utility.yul\":12141:12204   */\n      tag_512\n        /* \"#utility.yul\":12198:12202   */\n      0x20\n        /* \"#utility.yul\":12193:12196   */\n      dup6\n        /* \"#utility.yul\":12189:12203   */\n      add\n        /* \"#utility.yul\":12175:12187   */\n      dup3\n        /* \"#utility.yul\":12141:12204   */\n      tag_330\n      jump\t// in\n    tag_512:\n        /* \"#utility.yul\":12047:12214   */\n      pop\n        /* \"#utility.yul\":12298:12302   */\n      0x40\n        /* \"#utility.yul\":12291:12296   */\n      dup3\n        /* \"#utility.yul\":12287:12303   */\n      add\n        /* \"#utility.yul\":12281:12304   */\n      mload\n        /* \"#utility.yul\":12317:12380   */\n      tag_513\n        /* \"#utility.yul\":12374:12378   */\n      0x40\n        /* \"#utility.yul\":12369:12372   */\n      dup6\n        /* \"#utility.yul\":12365:12379   */\n      add\n        /* \"#utility.yul\":12351:12363   */\n      dup3\n        /* \"#utility.yul\":12317:12380   */\n      tag_331\n      jump\t// in\n    tag_513:\n        /* \"#utility.yul\":12224:12390   */\n      pop\n        /* \"#utility.yul\":12473:12477   */\n      0x60\n        /* \"#utility.yul\":12466:12471   */\n      dup3\n        /* \"#utility.yul\":12462:12478   */\n      add\n        /* \"#utility.yul\":12456:12479   */\n      mload\n        /* \"#utility.yul\":12492:12555   */\n      tag_514\n        /* \"#utility.yul\":12549:12553   */\n      0x60\n        /* \"#utility.yul\":12544:12547   */\n      dup6\n        /* \"#utility.yul\":12540:12554   */\n      add\n        /* \"#utility.yul\":12526:12538   */\n      dup3\n        /* \"#utility.yul\":12492:12555   */\n      tag_331\n      jump\t// in\n    tag_514:\n        /* \"#utility.yul\":12400:12565   */\n      pop\n        /* \"#utility.yul\":12648:12652   */\n      0x80\n        /* \"#utility.yul\":12641:12646   */\n      dup3\n        /* \"#utility.yul\":12637:12653   */\n      add\n        /* \"#utility.yul\":12631:12654   */\n      mload\n        /* \"#utility.yul\":12667:12730   */\n      tag_515\n        /* \"#utility.yul\":12724:12728   */\n      0x80\n        /* \"#utility.yul\":12719:12722   */\n      dup6\n        /* \"#utility.yul\":12715:12729   */\n      add\n        /* \"#utility.yul\":12701:12713   */\n      dup3\n        /* \"#utility.yul\":12667:12730   */\n      tag_330\n      jump\t// in\n    tag_515:\n        /* \"#utility.yul\":12575:12740   */\n      pop\n        /* \"#utility.yul\":12824:12828   */\n      0xa0\n        /* \"#utility.yul\":12817:12822   */\n      dup3\n        /* \"#utility.yul\":12813:12829   */\n      add\n        /* \"#utility.yul\":12807:12830   */\n      mload\n        /* \"#utility.yul\":12843:12918   */\n      tag_516\n        /* \"#utility.yul\":12912:12916   */\n      0xa0\n        /* \"#utility.yul\":12907:12910   */\n      dup6\n        /* \"#utility.yul\":12903:12917   */\n      add\n        /* \"#utility.yul\":12889:12901   */\n      dup3\n        /* \"#utility.yul\":12843:12918   */\n      tag_335\n      jump\t// in\n    tag_516:\n        /* \"#utility.yul\":12750:12928   */\n      pop\n        /* \"#utility.yul\":11825:12935   */\n      pop\n        /* \"#utility.yul\":11705:12935   */\n      pop\n      pop\n      jump\t// out\n        /* \"#utility.yul\":12941:13272   */\n    tag_94:\n        /* \"#utility.yul\":13088:13092   */\n      0x00\n        /* \"#utility.yul\":13126:13129   */\n      0xc0\n        /* \"#utility.yul\":13115:13124   */\n      dup3\n        /* \"#utility.yul\":13111:13130   */\n      add\n        /* \"#utility.yul\":13103:13130   */\n      swap1\n      pop\n        /* \"#utility.yul\":13140:13265   */\n      tag_518\n        /* \"#utility.yul\":13262:13263   */\n      0x00\n        /* \"#utility.yul\":13251:13260   */\n      dup4\n        /* \"#utility.yul\":13247:13264   */\n      add\n        /* \"#utility.yul\":13238:13244   */\n      dup5\n        /* \"#utility.yul\":13140:13265   */\n      tag_347\n      jump\t// in\n    tag_518:\n        /* \"#utility.yul\":12941:13272   */\n      swap3\n      swap2\n      pop\n      pop\n      jump\t// out\n        /* \"#utility.yul\":13278:13419   */\n    tag_348:\n        /* \"#utility.yul\":13343:13352   */\n      0x00\n        /* \"#utility.yul\":13376:13413   */\n      tag_520\n        /* \"#utility.yul\":13407:13412   */\n      dup3\n        /* \"#utility.yul\":13376:13413   */\n      tag_324\n      jump\t// in\n    tag_520:\n        /* \"#utility.yul\":13363:13413   */\n      swap1\n      pop\n        /* \"#utility.yul\":13278:13419   */\n      swap2\n      swap1\n      pop\n      jump\t// out\n        /* \"#utility.yul\":13425:13586   */\n    tag_349:\n        /* \"#utility.yul\":13527:13579   */\n      tag_522\n        /* \"#utility.yul\":13573:13578   */\n      dup2\n        /* \"#utility.yul\":13527:13579   */\n      tag_348\n      jump\t// in\n    tag_522:\n        /* \"#utility.yul\":13522:13525   */\n      dup3\n        /* \"#utility.yul\":13515:13580   */\n      mstore\n        /* \"#utility.yul\":13425:13586   */\n      pop\n      pop\n      jump\t// out\n        /* \"#utility.yul\":13592:13844   */\n    tag_104:\n        /* \"#utility.yul\":13700:13704   */\n      0x00\n        /* \"#utility.yul\":13738:13740   */\n      0x20\n        /* \"#utility.yul\":13727:13736   */\n      dup3\n        /* \"#utility.yul\":13723:13741   */\n      add\n        /* \"#utility.yul\":13715:13741   */\n      swap1\n      pop\n        /* \"#utility.yul\":13751:13837   */\n      tag_524\n        /* \"#utility.yul\":13834:13835   */\n      0x00\n        /* \"#utility.yul\":13823:13832   */\n      dup4\n        /* \"#utility.yul\":13819:13836   */\n      add\n        /* \"#utility.yul\":13810:13816   */\n      dup5\n        /* \"#utility.yul\":13751:13837   */\n      tag_349\n      jump\t// in\n    tag_524:\n        /* \"#utility.yul\":13592:13844   */\n      swap3\n      swap2\n      pop\n      pop\n      jump\t// out\n        /* \"#utility.yul\":13850:14019   */\n    tag_350:\n        /* \"#utility.yul\":13934:13945   */\n      0x00\n        /* \"#utility.yul\":13968:13974   */\n      dup3\n        /* \"#utility.yul\":13963:13966   */\n      dup3\n        /* \"#utility.yul\":13956:13975   */\n      mstore\n        /* \"#utility.yul\":14008:14012   */\n      0x20\n        /* \"#utility.yul\":14003:14006   */\n      dup3\n        /* \"#utility.yul\":13999:14013   */\n      add\n        /* \"#utility.yul\":13984:14013   */\n      swap1\n      pop\n        /* \"#utility.yul\":13850:14019   */\n      swap3\n      swap2\n      pop\n      pop\n      jump\t// out\n        /* \"#utility.yul\":14025:14194   */\n    tag_351:\n        /* \"#utility.yul\":14165:14186   */\n      0x4173736574206e6f74207075626c697368656400000000000000000000000000\n        /* \"#utility.yul\":14161:14162   */\n      0x00\n        /* \"#utility.yul\":14153:14159   */\n      dup3\n        /* \"#utility.yul\":14149:14163   */\n      add\n        /* \"#utility.yul\":14142:14187   */\n      mstore\n        /* \"#utility.yul\":14025:14194   */\n      pop\n      jump\t// out\n        /* \"#utility.yul\":14200:14566   */\n    tag_352:\n        /* \"#utility.yul\":14342:14345   */\n      0x00\n        /* \"#utility.yul\":14363:14430   */\n      tag_528\n        /* \"#utility.yul\":14427:14429   */\n      0x13\n        /* \"#utility.yul\":14422:14425   */\n      dup4\n        /* \"#utility.yul\":14363:14430   */\n      tag_350\n      jump\t// in\n    tag_528:\n        /* \"#utility.yul\":14356:14430   */\n      swap2\n      pop\n        /* \"#utility.yul\":14439:14532   */\n      tag_529\n        /* \"#utility.yul\":14528:14531   */\n      dup3\n        /* \"#utility.yul\":14439:14532   */\n      tag_351\n      jump\t// in\n    tag_529:\n        /* \"#utility.yul\":14557:14559   */\n      0x20\n        /* \"#utility.yul\":14552:14555   */\n      dup3\n        /* \"#utility.yul\":14548:14560   */\n      add\n        /* \"#utility.yul\":14541:14560   */\n      swap1\n      pop\n        /* \"#utility.yul\":14200:14566   */\n      swap2\n      swap1\n      pop\n      jump\t// out\n        /* \"#utility.yul\":14572:14991   */\n    tag_117:\n        /* \"#utility.yul\":14738:14742   */\n      0x00\n        /* \"#utility.yul\":14776:14778   */\n      0x20\n        /* \"#utility.yul\":14765:14774   */\n      dup3\n        /* \"#utility.yul\":14761:14779   */\n      add\n        /* \"#utility.yul\":14753:14779   */\n      swap1\n      pop\n        /* \"#utility.yul\":14825:14834   */\n      dup2\n        /* \"#utility.yul\":14819:14823   */\n      dup2\n        /* \"#utility.yul\":14815:14835   */\n      sub\n        /* \"#utility.yul\":14811:14812   */\n      0x00\n        /* \"#utility.yul\":14800:14809   */\n      dup4\n        /* \"#utility.yul\":14796:14813   */\n      add\n        /* \"#utility.yul\":14789:14836   */\n      mstore\n        /* \"#utility.yul\":14853:14984   */\n      tag_531\n        /* \"#utility.yul\":14979:14983   */\n      dup2\n        /* \"#utility.yul\":14853:14984   */\n      tag_352\n      jump\t// in\n    tag_531:\n        /* \"#utility.yul\":14845:14984   */\n      swap1\n      pop\n        /* \"#utility.yul\":14572:14991   */\n      swap2\n      swap1\n      pop\n      jump\t// out\n        /* \"#utility.yul\":14997:15161   */\n    tag_353:\n        /* \"#utility.yul\":15137:15153   */\n      0x41737365742064656c6973746564000000000000000000000000000000000000\n        /* \"#utility.yul\":15133:15134   */\n      0x00\n        /* \"#utility.yul\":15125:15131   */\n      dup3\n        /* \"#utility.yul\":15121:15135   */\n      add\n        /* \"#utility.yul\":15114:15154   */\n      mstore\n        /* \"#utility.yul\":14997:15161   */\n      pop\n      jump\t// out\n        /* \"#utility.yul\":15167:15533   */\n    tag_354:\n        /* \"#utility.yul\":15309:15312   */\n      0x00\n        /* \"#utility.yul\":15330:15397   */\n      tag_534\n        /* \"#utility.yul\":15394:15396   */\n      0x0e\n        /* \"#utility.yul\":15389:15392   */\n      dup4\n        /* \"#utility.yul\":15330:15397   */\n      tag_350\n      jump\t// in\n    tag_534:\n        /* \"#utility.yul\":15323:15397   */\n      swap2\n      pop\n        /* \"#utility.yul\":15406:15499   */\n      tag_535\n        /* \"#utility.yul\":15495:15498   */\n      dup3\n        /* \"#utility.yul\":15406:15499   */\n      tag_353\n      jump\t// in\n    tag_535:\n        /* \"#utility.yul\":15524:15526   */\n      0x20\n        /* \"#utility.yul\":15519:15522   */\n      dup3\n        /* \"#utility.yul\":15515:15527   */\n      add\n        /* \"#utility.yul\":15508:15527   */\n      swap1\n      pop\n        /* \"#utility.yul\":15167:15533   */\n      swap2\n      swap1\n      pop\n      jump\t// out\n        /* \"#utility.yul\":15539:15958   */\n    tag_124:\n        /* \"#utility.yul\":15705:15709   */\n      0x00\n        /* \"#utility.yul\":15743:15745   */\n      0x20\n        /* \"#utility.yul\":15732:15741   */\n      dup3\n        /* \"#utility.yul\":15728:15746   */\n      add\n        /* \"#utility.yul\":15720:15746   */\n      swap1\n      pop\n        /* \"#utility.yul\":15792:15801   */\n      dup2\n        /* \"#utility.yul\":15786:15790   */\n      dup2\n        /* \"#utility.yul\":15782:15802   */\n      sub\n        /* \"#utility.yul\":15778:15779   */\n      0x00\n        /* \"#utility.yul\":15767:15776   */\n      dup4\n        /* \"#utility.yul\":15763:15780   */\n      add\n        /* \"#utility.yul\":15756:15803   */\n      mstore\n        /* \"#utility.yul\":15820:15951   */\n      tag_537\n        /* \"#utility.yul\":15946:15950   */\n      dup2\n        /* \"#utility.yul\":15820:15951   */\n      tag_354\n      jump\t// in\n    tag_537:\n        /* \"#utility.yul\":15812:15951   */\n      swap1\n      pop\n        /* \"#utility.yul\":15539:15958   */\n      swap2\n      swap1\n      pop\n      jump\t// out\n        /* \"#utility.yul\":15964:16129   */\n    tag_355:\n        /* \"#utility.yul\":16104:16121   */\n      0x496e76616c696420616464726573730000000000000000000000000000000000\n        /* \"#utility.yul\":16100:16101   */\n      0x00\n        /* \"#utility.yul\":16092:16098   */\n      dup3\n        /* \"#utility.yul\":16088:16102   */\n      add\n        /* \"#utility.yul\":16081:16122   */\n      mstore\n        /* \"#utility.yul\":15964:16129   */\n      pop\n      jump\t// out\n        /* \"#utility.yul\":16135:16501   */\n    tag_356:\n        /* \"#utility.yul\":16277:16280   */\n      0x00\n        /* \"#utility.yul\":16298:16365   */\n      tag_540\n        /* \"#utility.yul\":16362:16364   */\n      0x0f\n        /* \"#utility.yul\":16357:16360   */\n      dup4\n        /* \"#utility.yul\":16298:16365   */\n      tag_350\n      jump\t// in\n    tag_540:\n        /* \"#utility.yul\":16291:16365   */\n      swap2\n      pop\n        /* \"#utility.yul\":16374:16467   */\n      tag_541\n        /* \"#utility.yul\":16463:16466   */\n      dup3\n        /* \"#utility.yul\":16374:16467   */\n      tag_355\n      jump\t// in\n    tag_541:\n        /* \"#utility.yul\":16492:16494   */\n      0x20\n        /* \"#utility.yul\":16487:16490   */\n      dup3\n        /* \"#utility.yul\":16483:16495   */\n      add\n        /* \"#utility.yul\":16476:16495   */\n      swap1\n      pop\n        /* \"#utility.yul\":16135:16501   */\n      swap2\n      swap1\n      pop\n      jump\t// out\n        /* \"#utility.yul\":16507:16926   */\n    tag_127:\n        /* \"#utility.yul\":16673:16677   */\n      0x00\n        /* \"#utility.yul\":16711:16713   */\n      0x20\n        /* \"#utility.yul\":16700:16709   */\n      dup3\n        /* \"#utility.yul\":16696:16714   */\n      add\n        /* \"#utility.yul\":16688:16714   */\n      swap1\n      pop\n        /* \"#utility.yul\":16760:16769   */\n      dup2\n        /* \"#utility.yul\":16754:16758   */\n      dup2\n        /* \"#utility.yul\":16750:16770   */\n      sub\n        /* \"#utility.yul\":16746:16747   */\n      0x00\n        /* \"#utility.yul\":16735:16744   */\n      dup4\n        /* \"#utility.yul\":16731:16748   */\n      add\n        /* \"#utility.yul\":16724:16771   */\n      mstore\n        /* \"#utility.yul\":16788:16919   */\n      tag_543\n        /* \"#utility.yul\":16914:16918   */\n      dup2\n        /* \"#utility.yul\":16788:16919   */\n      tag_356\n      jump\t// in\n    tag_543:\n        /* \"#utility.yul\":16780:16919   */\n      swap1\n      pop\n        /* \"#utility.yul\":16507:16926   */\n      swap2\n      swap1\n      pop\n      jump\t// out\n        /* \"#utility.yul\":16932:17104   */\n    tag_357:\n        /* \"#utility.yul\":17072:17096   */\n      0x4f6e6c792073656c6c65722063616e2064656c69737400000000000000000000\n        /* \"#utility.yul\":17068:17069   */\n      0x00\n        /* \"#utility.yul\":17060:17066   */\n      dup3\n        /* \"#utility.yul\":17056:17070   */\n      add\n        /* \"#utility.yul\":17049:17097   */\n      mstore\n        /* \"#utility.yul\":16932:17104   */\n      pop\n      jump\t// out\n        /* \"#utility.yul\":17110:17476   */\n    tag_358:\n        /* \"#utility.yul\":17252:17255   */\n      0x00\n        /* \"#utility.yul\":17273:17340   */\n      tag_546\n        /* \"#utility.yul\":17337:17339   */\n      0x16\n        /* \"#utility.yul\":17332:17335   */\n      dup4\n        /* \"#utility.yul\":17273:17340   */\n      tag_350\n      jump\t// in\n    tag_546:\n        /* \"#utility.yul\":17266:17340   */\n      swap2\n      pop\n        /* \"#utility.yul\":17349:17442   */\n      tag_547\n        /* \"#utility.yul\":17438:17441   */\n      dup3\n        /* \"#utility.yul\":17349:17442   */\n      tag_357\n      jump\t// in\n    tag_547:\n        /* \"#utility.yul\":17467:17469   */\n      0x20\n        /* \"#utility.yul\":17462:17465   */\n      dup3\n        /* \"#utility.yul\":17458:17470   */\n      add\n        /* \"#utility.yul\":17451:17470   */\n      swap1\n      pop\n        /* \"#utility.yul\":17110:17476   */\n      swap2\n      swap1\n      pop\n      jump\t// out\n        /* \"#utility.yul\":17482:17901   */\n    tag_130:\n        /* \"#utility.yul\":17648:17652   */\n      0x00\n        /* \"#utility.yul\":17686:17688   */\n      0x20\n        /* \"#utility.yul\":17675:17684   */\n      dup3\n        /* \"#utility.yul\":17671:17689   */\n      add\n        /* \"#utility.yul\":17663:17689   */\n      swap1\n      pop\n        /* \"#utility.yul\":17735:17744   */\n      dup2\n        /* \"#utility.yul\":17729:17733   */\n      dup2\n        /* \"#utility.yul\":17725:17745   */\n      sub\n        /* \"#utility.yul\":17721:17722   */\n      0x00\n        /* \"#utility.yul\":17710:17719   */\n      dup4\n        /* \"#utility.yul\":17706:17723   */\n      add\n        /* \"#utility.yul\":17699:17746   */\n      mstore\n        /* \"#utility.yul\":17763:17894   */\n      tag_549\n        /* \"#utility.yul\":17889:17893   */\n      dup2\n        /* \"#utility.yul\":17763:17894   */\n      tag_358\n      jump\t// in\n    tag_549:\n        /* \"#utility.yul\":17755:17894   */\n      swap1\n      pop\n        /* \"#utility.yul\":17482:17901   */\n      swap2\n      swap1\n      pop\n      jump\t// out\n        /* \"#utility.yul\":17907:18349   */\n    tag_132:\n        /* \"#utility.yul\":18056:18060   */\n      0x00\n        /* \"#utility.yul\":18094:18096   */\n      0x60\n        /* \"#utility.yul\":18083:18092   */\n      dup3\n        /* \"#utility.yul\":18079:18097   */\n      add\n        /* \"#utility.yul\":18071:18097   */\n      swap1\n      pop\n        /* \"#utility.yul\":18107:18178   */\n      tag_551\n        /* \"#utility.yul\":18175:18176   */\n      0x00\n        /* \"#utility.yul\":18164:18173   */\n      dup4\n        /* \"#utility.yul\":18160:18177   */\n      add\n        /* \"#utility.yul\":18151:18157   */\n      dup7\n        /* \"#utility.yul\":18107:18178   */\n      tag_342\n      jump\t// in\n    tag_551:\n        /* \"#utility.yul\":18188:18260   */\n      tag_552\n        /* \"#utility.yul\":18256:18258   */\n      0x20\n        /* \"#utility.yul\":18245:18254   */\n      dup4\n        /* \"#utility.yul\":18241:18259   */\n      add\n        /* \"#utility.yul\":18232:18238   */\n      dup6\n        /* \"#utility.yul\":18188:18260   */\n      tag_342\n      jump\t// in\n    tag_552:\n        /* \"#utility.yul\":18270:18342   */\n      tag_553\n        /* \"#utility.yul\":18338:18340   */\n      0x40\n        /* \"#utility.yul\":18327:18336   */\n      dup4\n        /* \"#utility.yul\":18323:18341   */\n      add\n        /* \"#utility.yul\":18314:18320   */\n      dup5\n        /* \"#utility.yul\":18270:18342   */\n      tag_343\n      jump\t// in\n    tag_553:\n        /* \"#utility.yul\":17907:18349   */\n      swap5\n      swap4\n      pop\n      pop\n      pop\n      pop\n      jump\t// out\n        /* \"#utility.yul\":18355:18687   */\n    tag_141:\n        /* \"#utility.yul\":18476:18480   */\n      0x00\n        /* \"#utility.yul\":18514:18516   */\n      0x40\n        /* \"#utility.yul\":18503:18512   */\n      dup3\n        /* \"#utility.yul\":18499:18517   */\n      add\n        /* \"#utility.yul\":18491:18517   */\n      swap1\n      pop\n        /* \"#utility.yul\":18527:18598   */\n      tag_555\n        /* \"#utility.yul\":18595:18596   */\n      0x00\n        /* \"#utility.yul\":18584:18593   */\n      dup4\n        /* \"#utility.yul\":18580:18597   */\n      add\n        /* \"#utility.yul\":18571:18577   */\n      dup6\n        /* \"#utility.yul\":18527:18598   */\n      tag_343\n      jump\t// in\n    tag_555:\n        /* \"#utility.yul\":18608:18680   */\n      tag_556\n        /* \"#utility.yul\":18676:18678   */\n      0x20\n        /* \"#utility.yul\":18665:18674   */\n      dup4\n        /* \"#utility.yul\":18661:18679   */\n      add\n        /* \"#utility.yul\":18652:18658   */\n      dup5\n        /* \"#utility.yul\":18608:18680   */\n      tag_343\n      jump\t// in\n    tag_556:\n        /* \"#utility.yul\":18355:18687   */\n      swap4\n      swap3\n      pop\n      pop\n      pop\n      jump\t// out\n        /* \"#utility.yul\":18693:18875   */\n    tag_359:\n        /* \"#utility.yul\":18833:18867   */\n      0x4f776e61626c653a2063616c6c6572206973206e6f7420746865206f776e6572\n        /* \"#utility.yul\":18829:18830   */\n      0x00\n        /* \"#utility.yul\":18821:18827   */\n      dup3\n        /* \"#utility.yul\":18817:18831   */\n      add\n        /* \"#utility.yul\":18810:18868   */\n      mstore\n        /* \"#utility.yul\":18693:18875   */\n      pop\n      jump\t// out\n        /* \"#utility.yul\":18881:19247   */\n    tag_360:\n        /* \"#utility.yul\":19023:19026   */\n      0x00\n        /* \"#utility.yul\":19044:19111   */\n      tag_559\n        /* \"#utility.yul\":19108:19110   */\n      0x20\n        /* \"#utility.yul\":19103:19106   */\n      dup4\n        /* \"#utility.yul\":19044:19111   */\n      tag_350\n      jump\t// in\n    tag_559:\n        /* \"#utility.yul\":19037:19111   */\n      swap2\n      pop\n        /* \"#utility.yul\":19120:19213   */\n      tag_560\n        /* \"#utility.yul\":19209:19212   */\n      dup3\n        /* \"#utility.yul\":19120:19213   */\n      tag_359\n      jump\t// in\n    tag_560:\n        /* \"#utility.yul\":19238:19240   */\n      0x20\n        /* \"#utility.yul\":19233:19236   */\n      dup3\n        /* \"#utility.yul\":19229:19241   */\n      add\n        /* \"#utility.yul\":19222:19241   */\n      swap1\n      pop\n        /* \"#utility.yul\":18881:19247   */\n      swap2\n      swap1\n      pop\n      jump\t// out\n        /* \"#utility.yul\":19253:19672   */\n    tag_148:\n        /* \"#utility.yul\":19419:19423   */\n      0x00\n        /* \"#utility.yul\":19457:19459   */\n      0x20\n        /* \"#utility.yul\":19446:19455   */\n      dup3\n        /* \"#utility.yul\":19442:19460   */\n      add\n        /* \"#utility.yul\":19434:19460   */\n      swap1\n      pop\n        /* \"#utility.yul\":19506:19515   */\n      dup2\n        /* \"#utility.yul\":19500:19504   */\n      dup2\n        /* \"#utility.yul\":19496:19516   */\n      sub\n        /* \"#utility.yul\":19492:19493   */\n      0x00\n        /* \"#utility.yul\":19481:19490   */\n      dup4\n        /* \"#utility.yul\":19477:19494   */\n      add\n        /* \"#utility.yul\":19470:19517   */\n      mstore\n        /* \"#utility.yul\":19534:19665   */\n      tag_562\n        /* \"#utility.yul\":19660:19664   */\n      dup2\n        /* \"#utility.yul\":19534:19665   */\n      tag_360\n      jump\t// in\n    tag_562:\n        /* \"#utility.yul\":19526:19665   */\n      swap1\n      pop\n        /* \"#utility.yul\":19253:19672   */\n      swap2\n      swap1\n      pop\n      jump\t// out\n        /* \"#utility.yul\":19678:19856   */\n    tag_361:\n        /* \"#utility.yul\":19818:19848   */\n      0x5072696365206d757374206265206174206c6561737420312077656900000000\n        /* \"#utility.yul\":19814:19815   */\n      0x00\n        /* \"#utility.yul\":19806:19812   */\n      dup3\n        /* \"#utility.yul\":19802:19816   */\n      add\n        /* \"#utility.yul\":19795:19849   */\n      mstore\n        /* \"#utility.yul\":19678:19856   */\n      pop\n      jump\t// out\n        /* \"#utility.yul\":19862:20228   */\n    tag_362:\n        /* \"#utility.yul\":20004:20007   */\n      0x00\n        /* \"#utility.yul\":20025:20092   */\n      tag_565\n        /* \"#utility.yul\":20089:20091   */\n      0x1c\n        /* \"#utility.yul\":20084:20087   */\n      dup4\n        /* \"#utility.yul\":20025:20092   */\n      tag_350\n      jump\t// in\n    tag_565:\n        /* \"#utility.yul\":20018:20092   */\n      swap2\n      pop\n        /* \"#utility.yul\":20101:20194   */\n      tag_566\n        /* \"#utility.yul\":20190:20193   */\n      dup3\n        /* \"#utility.yul\":20101:20194   */\n      tag_361\n      jump\t// in\n    tag_566:\n        /* \"#utility.yul\":20219:20221   */\n      0x20\n        /* \"#utility.yul\":20214:20217   */\n      dup3\n        /* \"#utility.yul\":20210:20222   */\n      add\n        /* \"#utility.yul\":20203:20222   */\n      swap1\n      pop\n        /* \"#utility.yul\":19862:20228   */\n      swap2\n      swap1\n      pop\n      jump\t// out\n        /* \"#utility.yul\":20234:20653   */\n    tag_159:\n        /* \"#utility.yul\":20400:20404   */\n      0x00\n        /* \"#utility.yul\":20438:20440   */\n      0x20\n        /* \"#utility.yul\":20427:20436   */\n      dup3\n        /* \"#utility.yul\":20423:20441   */\n      add\n        /* \"#utility.yul\":20415:20441   */\n      swap1\n      pop\n        /* \"#utility.yul\":20487:20496   */\n      dup2\n        /* \"#utility.yul\":20481:20485   */\n      dup2\n        /* \"#utility.yul\":20477:20497   */\n      sub\n        /* \"#utility.yul\":20473:20474   */\n      0x00\n        /* \"#utility.yul\":20462:20471   */\n      dup4\n        /* \"#utility.yul\":20458:20475   */\n      add\n        /* \"#utility.yul\":20451:20498   */\n      mstore\n        /* \"#utility.yul\":20515:20646   */\n      tag_568\n        /* \"#utility.yul\":20641:20645   */\n      dup2\n        /* \"#utility.yul\":20515:20646   */\n      tag_362\n      jump\t// in\n    tag_568:\n        /* \"#utility.yul\":20507:20646   */\n      swap1\n      pop\n        /* \"#utility.yul\":20234:20653   */\n      swap2\n      swap1\n      pop\n      jump\t// out\n        /* \"#utility.yul\":20659:20881   */\n    tag_161:\n        /* \"#utility.yul\":20752:20756   */\n      0x00\n        /* \"#utility.yul\":20790:20792   */\n      0x20\n        /* \"#utility.yul\":20779:20788   */\n      dup3\n        /* \"#utility.yul\":20775:20793   */\n      add\n        /* \"#utility.yul\":20767:20793   */\n      swap1\n      pop\n        /* \"#utility.yul\":20803:20874   */\n      tag_570\n        /* \"#utility.yul\":20871:20872   */\n      0x00\n        /* \"#utility.yul\":20860:20869   */\n      dup4\n        /* \"#utility.yul\":20856:20873   */\n      add\n        /* \"#utility.yul\":20847:20853   */\n      dup5\n        /* \"#utility.yul\":20803:20874   */\n      tag_343\n      jump\t// in\n    tag_570:\n        /* \"#utility.yul\":20659:20881   */\n      swap3\n      swap2\n      pop\n      pop\n      jump\t// out\n        /* \"#utility.yul\":20887:21004   */\n    tag_363:\n        /* \"#utility.yul\":20996:20997   */\n      0x00\n        /* \"#utility.yul\":20993:20994   */\n      dup1\n        /* \"#utility.yul\":20986:20998   */\n      revert\n        /* \"#utility.yul\":21010:21112   */\n    tag_364:\n        /* \"#utility.yul\":21051:21057   */\n      0x00\n        /* \"#utility.yul\":21102:21104   */\n      0x1f\n        /* \"#utility.yul\":21098:21105   */\n      not\n        /* \"#utility.yul\":21093:21095   */\n      0x1f\n        /* \"#utility.yul\":21086:21091   */\n      dup4\n        /* \"#utility.yul\":21082:21096   */\n      add\n        /* \"#utility.yul\":21078:21106   */\n      and\n        /* \"#utility.yul\":21068:21106   */\n      swap1\n      pop\n        /* \"#utility.yul\":21010:21112   */\n      swap2\n      swap1\n      pop\n      jump\t// out\n        /* \"#utility.yul\":21118:21298   */\n    tag_210:\n        /* \"#utility.yul\":21166:21243   */\n      0x4e487b7100000000000000000000000000000000000000000000000000000000\n        /* \"#utility.yul\":21163:21164   */\n      0x00\n        /* \"#utility.yul\":21156:21244   */\n      mstore\n        /* \"#utility.yul\":21263:21267   */\n      0x41\n        /* \"#utility.yul\":21260:21261   */\n      0x04\n        /* \"#utility.yul\":21253:21268   */\n      mstore\n        /* \"#utility.yul\":21287:21291   */\n      0x24\n        /* \"#utility.yul\":21284:21285   */\n      0x00\n        /* \"#utility.yul\":21277:21292   */\n      revert\n        /* \"#utility.yul\":21304:21585   */\n    tag_365:\n        /* \"#utility.yul\":21387:21414   */\n      tag_575\n        /* \"#utility.yul\":21409:21413   */\n      dup3\n        /* \"#utility.yul\":21387:21414   */\n      tag_364\n      jump\t// in\n    tag_575:\n        /* \"#utility.yul\":21379:21385   */\n      dup2\n        /* \"#utility.yul\":21375:21415   */\n      add\n        /* \"#utility.yul\":21517:21523   */\n      dup2\n        /* \"#utility.yul\":21505:21515   */\n      dup2\n        /* \"#utility.yul\":21502:21524   */\n      lt\n        /* \"#utility.yul\":21481:21499   */\n      0xffffffffffffffff\n        /* \"#utility.yul\":21469:21479   */\n      dup3\n        /* \"#utility.yul\":21466:21500   */\n      gt\n        /* \"#utility.yul\":21463:21525   */\n      or\n        /* \"#utility.yul\":21460:21548   */\n      iszero\n      tag_576\n      jumpi\n        /* \"#utility.yul\":21528:21546   */\n      tag_577\n      tag_210\n      jump\t// in\n    tag_577:\n        /* \"#utility.yul\":21460:21548   */\n    tag_576:\n        /* \"#utility.yul\":21568:21578   */\n      dup1\n        /* \"#utility.yul\":21564:21566   */\n      0x40\n        /* \"#utility.yul\":21557:21579   */\n      mstore\n        /* \"#utility.yul\":21347:21585   */\n      pop\n        /* \"#utility.yul\":21304:21585   */\n      pop\n      pop\n      jump\t// out\n        /* \"#utility.yul\":21591:21720   */\n    tag_366:\n        /* \"#utility.yul\":21625:21631   */\n      0x00\n        /* \"#utility.yul\":21652:21672   */\n      tag_579\n      tag_310\n      jump\t// in\n    tag_579:\n        /* \"#utility.yul\":21642:21672   */\n      swap1\n      pop\n        /* \"#utility.yul\":21681:21714   */\n      tag_580\n        /* \"#utility.yul\":21709:21713   */\n      dup3\n        /* \"#utility.yul\":21701:21707   */\n      dup3\n        /* \"#utility.yul\":21681:21714   */\n      tag_365\n      jump\t// in\n    tag_580:\n        /* \"#utility.yul\":21591:21720   */\n      swap2\n      swap1\n      pop\n      jump\t// out\n        /* \"#utility.yul\":21726:21843   */\n    tag_367:\n        /* \"#utility.yul\":21835:21836   */\n      0x00\n        /* \"#utility.yul\":21832:21833   */\n      dup1\n        /* \"#utility.yul\":21825:21837   */\n      revert\n        /* \"#utility.yul\":21849:21992   */\n    tag_368:\n        /* \"#utility.yul\":21906:21911   */\n      0x00\n        /* \"#utility.yul\":21937:21943   */\n      dup2\n        /* \"#utility.yul\":21931:21944   */\n      mload\n        /* \"#utility.yul\":21922:21944   */\n      swap1\n      pop\n        /* \"#utility.yul\":21953:21986   */\n      tag_583\n        /* \"#utility.yul\":21980:21985   */\n      dup2\n        /* \"#utility.yul\":21953:21986   */\n      tag_314\n      jump\t// in\n    tag_583:\n        /* \"#utility.yul\":21849:21992   */\n      swap3\n      swap2\n      pop\n      pop\n      jump\t// out\n        /* \"#utility.yul\":21998:22141   */\n    tag_369:\n        /* \"#utility.yul\":22055:22060   */\n      0x00\n        /* \"#utility.yul\":22086:22092   */\n      dup2\n        /* \"#utility.yul\":22080:22093   */\n      mload\n        /* \"#utility.yul\":22071:22093   */\n      swap1\n      pop\n        /* \"#utility.yul\":22102:22135   */\n      tag_585\n        /* \"#utility.yul\":22129:22134   */\n      dup2\n        /* \"#utility.yul\":22102:22135   */\n      tag_318\n      jump\t// in\n    tag_585:\n        /* \"#utility.yul\":21998:22141   */\n      swap3\n      swap2\n      pop\n      pop\n      jump\t// out\n        /* \"#utility.yul\":22147:22264   */\n    tag_370:\n        /* \"#utility.yul\":22256:22257   */\n      0x00\n        /* \"#utility.yul\":22253:22254   */\n      dup1\n        /* \"#utility.yul\":22246:22258   */\n      revert\n        /* \"#utility.yul\":22270:22387   */\n    tag_371:\n        /* \"#utility.yul\":22379:22380   */\n      0x00\n        /* \"#utility.yul\":22376:22377   */\n      dup1\n        /* \"#utility.yul\":22369:22381   */\n      revert\n        /* \"#utility.yul\":22393:22701   */\n    tag_372:\n        /* \"#utility.yul\":22455:22459   */\n      0x00\n        /* \"#utility.yul\":22545:22563   */\n      0xffffffffffffffff\n        /* \"#utility.yul\":22537:22543   */\n      dup3\n        /* \"#utility.yul\":22534:22564   */\n      gt\n        /* \"#utility.yul\":22531:22587   */\n      iszero\n      tag_589\n      jumpi\n        /* \"#utility.yul\":22567:22585   */\n      tag_590\n      tag_210\n      jump\t// in\n    tag_590:\n        /* \"#utility.yul\":22531:22587   */\n    tag_589:\n        /* \"#utility.yul\":22605:22634   */\n      tag_591\n        /* \"#utility.yul\":22627:22633   */\n      dup3\n        /* \"#utility.yul\":22605:22634   */\n      tag_364\n      jump\t// in\n    tag_591:\n        /* \"#utility.yul\":22597:22634   */\n      swap1\n      pop\n        /* \"#utility.yul\":22689:22693   */\n      0x20\n        /* \"#utility.yul\":22683:22687   */\n      dup2\n        /* \"#utility.yul\":22679:22694   */\n      add\n        /* \"#utility.yul\":22671:22694   */\n      swap1\n      pop\n        /* \"#utility.yul\":22393:22701   */\n      swap2\n      swap1\n      pop\n      jump\t// out\n        /* \"#utility.yul\":22707:23014   */\n    tag_373:\n        /* \"#utility.yul\":22775:22776   */\n      0x00\n        /* \"#utility.yul\":22785:22898   */\n    tag_593:\n        /* \"#utility.yul\":22799:22805   */\n      dup4\n        /* \"#utility.yul\":22796:22797   */\n      dup2\n        /* \"#utility.yul\":22793:22806   */\n      lt\n        /* \"#utility.yul\":22785:22898   */\n      iszero\n      tag_595\n      jumpi\n        /* \"#utility.yul\":22884:22885   */\n      dup1\n        /* \"#utility.yul\":22879:22882   */\n      dup3\n        /* \"#utility.yul\":22875:22886   */\n      add\n        /* \"#utility.yul\":22869:22887   */\n      mload\n        /* \"#utility.yul\":22865:22866   */\n      dup2\n        /* \"#utility.yul\":22860:22863   */\n      dup5\n        /* \"#utility.yul\":22856:22867   */\n      add\n        /* \"#utility.yul\":22849:22888   */\n      mstore\n        /* \"#utility.yul\":22821:22823   */\n      0x20\n        /* \"#utility.yul\":22818:22819   */\n      dup2\n        /* \"#utility.yul\":22814:22824   */\n      add\n        /* \"#utility.yul\":22809:22824   */\n      swap1\n      pop\n        /* \"#utility.yul\":22785:22898   */\n      jump(tag_593)\n    tag_595:\n        /* \"#utility.yul\":22916:22922   */\n      dup4\n        /* \"#utility.yul\":22913:22914   */\n      dup2\n        /* \"#utility.yul\":22910:22923   */\n      gt\n        /* \"#utility.yul\":22907:23008   */\n      iszero\n      tag_596\n      jumpi\n        /* \"#utility.yul\":22996:22997   */\n      0x00\n        /* \"#utility.yul\":22987:22993   */\n      dup5\n        /* \"#utility.yul\":22982:22985   */\n      dup5\n        /* \"#utility.yul\":22978:22994   */\n      add\n        /* \"#utility.yul\":22971:22998   */\n      mstore\n        /* \"#utility.yul\":22907:23008   */\n    tag_596:\n        /* \"#utility.yul\":22756:23014   */\n      pop\n        /* \"#utility.yul\":22707:23014   */\n      pop\n      pop\n      pop\n      jump\t// out\n        /* \"#utility.yul\":23020:23441   */\n    tag_374:\n        /* \"#utility.yul\":23109:23114   */\n      0x00\n        /* \"#utility.yul\":23134:23200   */\n      tag_598\n        /* \"#utility.yul\":23150:23199   */\n      tag_599\n        /* \"#utility.yul\":23192:23198   */\n      dup5\n        /* \"#utility.yul\":23150:23199   */\n      tag_372\n      jump\t// in\n    tag_599:\n        /* \"#utility.yul\":23134:23200   */\n      tag_366\n      jump\t// in\n    tag_598:\n        /* \"#utility.yul\":23125:23200   */\n      swap1\n      pop\n        /* \"#utility.yul\":23223:23229   */\n      dup3\n        /* \"#utility.yul\":23216:23221   */\n      dup2\n        /* \"#utility.yul\":23209:23230   */\n      mstore\n        /* \"#utility.yul\":23261:23265   */\n      0x20\n        /* \"#utility.yul\":23254:23259   */\n      dup2\n        /* \"#utility.yul\":23250:23266   */\n      add\n        /* \"#utility.yul\":23299:23302   */\n      dup5\n        /* \"#utility.yul\":23290:23296   */\n      dup5\n        /* \"#utility.yul\":23285:23288   */\n      dup5\n        /* \"#utility.yul\":23281:23297   */\n      add\n        /* \"#utility.yul\":23278:23303   */\n      gt\n        /* \"#utility.yul\":23275:23387   */\n      iszero\n      tag_600\n      jumpi\n        /* \"#utility.yul\":23306:23385   */\n      tag_601\n      tag_371\n      jump\t// in\n    tag_601:\n        /* \"#utility.yul\":23275:23387   */\n    tag_600:\n        /* \"#utility.yul\":23396:23435   */\n      tag_602\n        /* \"#utility.yul\":23428:23434   */\n      dup5\n        /* \"#utility.yul\":23423:23426   */\n      dup3\n        /* \"#utility.yul\":23418:23421   */\n      dup6\n        /* \"#utility.yul\":23396:23435   */\n      tag_373\n      jump\t// in\n    tag_602:\n        /* \"#utility.yul\":23115:23441   */\n      pop\n        /* \"#utility.yul\":23020:23441   */\n      swap4\n      swap3\n      pop\n      pop\n      pop\n      jump\t// out\n        /* \"#utility.yul\":23461:23816   */\n    tag_375:\n        /* \"#utility.yul\":23528:23533   */\n      0x00\n        /* \"#utility.yul\":23577:23580   */\n      dup3\n        /* \"#utility.yul\":23570:23574   */\n      0x1f\n        /* \"#utility.yul\":23562:23568   */\n      dup4\n        /* \"#utility.yul\":23558:23575   */\n      add\n        /* \"#utility.yul\":23554:23581   */\n      slt\n        /* \"#utility.yul\":23544:23666   */\n      tag_604\n      jumpi\n        /* \"#utility.yul\":23585:23664   */\n      tag_605\n      tag_370\n      jump\t// in\n    tag_605:\n        /* \"#utility.yul\":23544:23666   */\n    tag_604:\n        /* \"#utility.yul\":23695:23701   */\n      dup2\n        /* \"#utility.yul\":23689:23702   */\n      mload\n        /* \"#utility.yul\":23720:23810   */\n      tag_606\n        /* \"#utility.yul\":23806:23809   */\n      dup5\n        /* \"#utility.yul\":23798:23804   */\n      dup3\n        /* \"#utility.yul\":23791:23795   */\n      0x20\n        /* \"#utility.yul\":23783:23789   */\n      dup7\n        /* \"#utility.yul\":23779:23796   */\n      add\n        /* \"#utility.yul\":23720:23810   */\n      tag_374\n      jump\t// in\n    tag_606:\n        /* \"#utility.yul\":23711:23810   */\n      swap2\n      pop\n        /* \"#utility.yul\":23534:23816   */\n      pop\n        /* \"#utility.yul\":23461:23816   */\n      swap3\n      swap2\n      pop\n      pop\n      jump\t// out\n        /* \"#utility.yul\":23822:23912   */\n    tag_376:\n        /* \"#utility.yul\":23856:23863   */\n      0x00\n        /* \"#utility.yul\":23899:23904   */\n      dup2\n        /* \"#utility.yul\":23892:23905   */\n      iszero\n        /* \"#utility.yul\":23885:23906   */\n      iszero\n        /* \"#utility.yul\":23874:23906   */\n      swap1\n      pop\n        /* \"#utility.yul\":23822:23912   */\n      swap2\n      swap1\n      pop\n      jump\t// out\n        /* \"#utility.yul\":23918:24034   */\n    tag_377:\n        /* \"#utility.yul\":23988:24009   */\n      tag_609\n        /* \"#utility.yul\":24003:24008   */\n      dup2\n        /* \"#utility.yul\":23988:24009   */\n      tag_376\n      jump\t// in\n    tag_609:\n        /* \"#utility.yul\":23981:23986   */\n      dup2\n        /* \"#utility.yul\":23978:24010   */\n      eq\n        /* \"#utility.yul\":23968:24028   */\n      tag_610\n      jumpi\n        /* \"#utility.yul\":24024:24025   */\n      0x00\n        /* \"#utility.yul\":24021:24022   */\n      dup1\n        /* \"#utility.yul\":24014:24026   */\n      revert\n        /* \"#utility.yul\":23968:24028   */\n    tag_610:\n        /* \"#utility.yul\":23918:24034   */\n      pop\n      jump\t// out\n        /* \"#utility.yul\":24040:24177   */\n    tag_378:\n        /* \"#utility.yul\":24094:24099   */\n      0x00\n        /* \"#utility.yul\":24125:24131   */\n      dup2\n        /* \"#utility.yul\":24119:24132   */\n      mload\n        /* \"#utility.yul\":24110:24132   */\n      swap1\n      pop\n        /* \"#utility.yul\":24141:24171   */\n      tag_612\n        /* \"#utility.yul\":24165:24170   */\n      dup2\n        /* \"#utility.yul\":24141:24171   */\n      tag_377\n      jump\t// in\n    tag_612:\n        /* \"#utility.yul\":24040:24177   */\n      swap3\n      swap2\n      pop\n      pop\n      jump\t// out\n        /* \"#utility.yul\":24219:25678   */\n    tag_379:\n        /* \"#utility.yul\":24307:24312   */\n      0x00\n        /* \"#utility.yul\":24351:24355   */\n      0xa0\n        /* \"#utility.yul\":24339:24348   */\n      dup3\n        /* \"#utility.yul\":24334:24337   */\n      dup5\n        /* \"#utility.yul\":24330:24349   */\n      sub\n        /* \"#utility.yul\":24326:24356   */\n      slt\n        /* \"#utility.yul\":24323:24440   */\n      iszero\n      tag_614\n      jumpi\n        /* \"#utility.yul\":24359:24438   */\n      tag_615\n      tag_363\n      jump\t// in\n    tag_615:\n        /* \"#utility.yul\":24323:24440   */\n    tag_614:\n        /* \"#utility.yul\":24458:24479   */\n      tag_616\n        /* \"#utility.yul\":24474:24478   */\n      0xa0\n        /* \"#utility.yul\":24458:24479   */\n      tag_366\n      jump\t// in\n    tag_616:\n        /* \"#utility.yul\":24449:24479   */\n      swap1\n      pop\n        /* \"#utility.yul\":24536:24537   */\n      0x00\n        /* \"#utility.yul\":24576:24636   */\n      tag_617\n        /* \"#utility.yul\":24632:24635   */\n      dup5\n        /* \"#utility.yul\":24623:24629   */\n      dup3\n        /* \"#utility.yul\":24612:24621   */\n      dup6\n        /* \"#utility.yul\":24608:24630   */\n      add\n        /* \"#utility.yul\":24576:24636   */\n      tag_368\n      jump\t// in\n    tag_617:\n        /* \"#utility.yul\":24569:24573   */\n      0x00\n        /* \"#utility.yul\":24562:24567   */\n      dup4\n        /* \"#utility.yul\":24558:24574   */\n      add\n        /* \"#utility.yul\":24551:24637   */\n      mstore\n        /* \"#utility.yul\":24489:24648   */\n      pop\n        /* \"#utility.yul\":24708:24710   */\n      0x20\n        /* \"#utility.yul\":24749:24809   */\n      tag_618\n        /* \"#utility.yul\":24805:24808   */\n      dup5\n        /* \"#utility.yul\":24796:24802   */\n      dup3\n        /* \"#utility.yul\":24785:24794   */\n      dup6\n        /* \"#utility.yul\":24781:24803   */\n      add\n        /* \"#utility.yul\":24749:24809   */\n      tag_369\n      jump\t// in\n    tag_618:\n        /* \"#utility.yul\":24742:24746   */\n      0x20\n        /* \"#utility.yul\":24735:24740   */\n      dup4\n        /* \"#utility.yul\":24731:24747   */\n      add\n        /* \"#utility.yul\":24724:24810   */\n      mstore\n        /* \"#utility.yul\":24658:24821   */\n      pop\n        /* \"#utility.yul\":24903:24905   */\n      0x40\n        /* \"#utility.yul\":24892:24901   */\n      dup3\n        /* \"#utility.yul\":24888:24906   */\n      add\n        /* \"#utility.yul\":24882:24907   */\n      mload\n        /* \"#utility.yul\":24934:24952   */\n      0xffffffffffffffff\n        /* \"#utility.yul\":24926:24932   */\n      dup2\n        /* \"#utility.yul\":24923:24953   */\n      gt\n        /* \"#utility.yul\":24920:25037   */\n      iszero\n      tag_619\n      jumpi\n        /* \"#utility.yul\":24956:25035   */\n      tag_620\n      tag_367\n      jump\t// in\n    tag_620:\n        /* \"#utility.yul\":24920:25037   */\n    tag_619:\n        /* \"#utility.yul\":25076:25146   */\n      tag_621\n        /* \"#utility.yul\":25142:25145   */\n      dup5\n        /* \"#utility.yul\":25133:25139   */\n      dup3\n        /* \"#utility.yul\":25122:25131   */\n      dup6\n        /* \"#utility.yul\":25118:25140   */\n      add\n        /* \"#utility.yul\":25076:25146   */\n      tag_375\n      jump\t// in\n    tag_621:\n        /* \"#utility.yul\":25069:25073   */\n      0x40\n        /* \"#utility.yul\":25062:25067   */\n      dup4\n        /* \"#utility.yul\":25058:25074   */\n      add\n        /* \"#utility.yul\":25051:25147   */\n      mstore\n        /* \"#utility.yul\":24831:25158   */\n      pop\n        /* \"#utility.yul\":25244:25246   */\n      0x60\n        /* \"#utility.yul\":25233:25242   */\n      dup3\n        /* \"#utility.yul\":25229:25247   */\n      add\n        /* \"#utility.yul\":25223:25248   */\n      mload\n        /* \"#utility.yul\":25275:25293   */\n      0xffffffffffffffff\n        /* \"#utility.yul\":25267:25273   */\n      dup2\n        /* \"#utility.yul\":25264:25294   */\n      gt\n        /* \"#utility.yul\":25261:25378   */\n      iszero\n      tag_622\n      jumpi\n        /* \"#utility.yul\":25297:25376   */\n      tag_623\n      tag_367\n      jump\t// in\n    tag_623:\n        /* \"#utility.yul\":25261:25378   */\n    tag_622:\n        /* \"#utility.yul\":25417:25487   */\n      tag_624\n        /* \"#utility.yul\":25483:25486   */\n      dup5\n        /* \"#utility.yul\":25474:25480   */\n      dup3\n        /* \"#utility.yul\":25463:25472   */\n      dup6\n        /* \"#utility.yul\":25459:25481   */\n      add\n        /* \"#utility.yul\":25417:25487   */\n      tag_375\n      jump\t// in\n    tag_624:\n        /* \"#utility.yul\":25410:25414   */\n      0x60\n        /* \"#utility.yul\":25403:25408   */\n      dup4\n        /* \"#utility.yul\":25399:25415   */\n      add\n        /* \"#utility.yul\":25392:25488   */\n      mstore\n        /* \"#utility.yul\":25168:25499   */\n      pop\n        /* \"#utility.yul\":25560:25563   */\n      0x80\n        /* \"#utility.yul\":25602:25659   */\n      tag_625\n        /* \"#utility.yul\":25655:25658   */\n      dup5\n        /* \"#utility.yul\":25646:25652   */\n      dup3\n        /* \"#utility.yul\":25635:25644   */\n      dup6\n        /* \"#utility.yul\":25631:25653   */\n      add\n        /* \"#utility.yul\":25602:25659   */\n      tag_378\n      jump\t// in\n    tag_625:\n        /* \"#utility.yul\":25595:25599   */\n      0x80\n        /* \"#utility.yul\":25588:25593   */\n      dup4\n        /* \"#utility.yul\":25584:25600   */\n      add\n        /* \"#utility.yul\":25577:25660   */\n      mstore\n        /* \"#utility.yul\":25509:25671   */\n      pop\n        /* \"#utility.yul\":24219:25678   */\n      swap3\n      swap2\n      pop\n      pop\n      jump\t// out\n        /* \"#utility.yul\":25684:26244   */\n    tag_165:\n        /* \"#utility.yul\":25782:25788   */\n      0x00\n        /* \"#utility.yul\":25831:25833   */\n      0x20\n        /* \"#utility.yul\":25819:25828   */\n      dup3\n        /* \"#utility.yul\":25810:25817   */\n      dup5\n        /* \"#utility.yul\":25806:25829   */\n      sub\n        /* \"#utility.yul\":25802:25834   */\n      slt\n        /* \"#utility.yul\":25799:25918   */\n      iszero\n      tag_627\n      jumpi\n        /* \"#utility.yul\":25837:25916   */\n      tag_628\n      tag_311\n      jump\t// in\n    tag_628:\n        /* \"#utility.yul\":25799:25918   */\n    tag_627:\n        /* \"#utility.yul\":25978:25979   */\n      0x00\n        /* \"#utility.yul\":25967:25976   */\n      dup3\n        /* \"#utility.yul\":25963:25980   */\n      add\n        /* \"#utility.yul\":25957:25981   */\n      mload\n        /* \"#utility.yul\":26008:26026   */\n      0xffffffffffffffff\n        /* \"#utility.yul\":26000:26006   */\n      dup2\n        /* \"#utility.yul\":25997:26027   */\n      gt\n        /* \"#utility.yul\":25994:26111   */\n      iszero\n      tag_629\n      jumpi\n        /* \"#utility.yul\":26030:26109   */\n      tag_630\n      tag_312\n      jump\t// in\n    tag_630:\n        /* \"#utility.yul\":25994:26111   */\n    tag_629:\n        /* \"#utility.yul\":26135:26227   */\n      tag_631\n        /* \"#utility.yul\":26219:26226   */\n      dup5\n        /* \"#utility.yul\":26210:26216   */\n      dup3\n        /* \"#utility.yul\":26199:26208   */\n      dup6\n        /* \"#utility.yul\":26195:26217   */\n      add\n        /* \"#utility.yul\":26135:26227   */\n      tag_379\n      jump\t// in\n    tag_631:\n        /* \"#utility.yul\":26125:26227   */\n      swap2\n      pop\n        /* \"#utility.yul\":25928:26237   */\n      pop\n        /* \"#utility.yul\":25684:26244   */\n      swap3\n      swap2\n      pop\n      pop\n      jump\t// out\n        /* \"#utility.yul\":26250:26427   */\n    tag_380:\n        /* \"#utility.yul\":26390:26419   */\n      0x4974656d206973206e6f7420617661696c61626c65206e6f7720210000000000\n        /* \"#utility.yul\":26386:26387   */\n      0x00\n        /* \"#utility.yul\":26378:26384   */\n      dup3\n        /* \"#utility.yul\":26374:26388   */\n      add\n        /* \"#utility.yul\":26367:26420   */\n      mstore\n        /* \"#utility.yul\":26250:26427   */\n      pop\n      jump\t// out\n        /* \"#utility.yul\":26433:26799   */\n    tag_381:\n        /* \"#utility.yul\":26575:26578   */\n      0x00\n        /* \"#utility.yul\":26596:26663   */\n      tag_634\n        /* \"#utility.yul\":26660:26662   */\n      0x1b\n        /* \"#utility.yul\":26655:26658   */\n      dup4\n        /* \"#utility.yul\":26596:26663   */\n      tag_350\n      jump\t// in\n    tag_634:\n        /* \"#utility.yul\":26589:26663   */\n      swap2\n      pop\n        /* \"#utility.yul\":26672:26765   */\n      tag_635\n        /* \"#utility.yul\":26761:26764   */\n      dup3\n        /* \"#utility.yul\":26672:26765   */\n      tag_380\n      jump\t// in\n    tag_635:\n        /* \"#utility.yul\":26790:26792   */\n      0x20\n        /* \"#utility.yul\":26785:26788   */\n      dup3\n        /* \"#utility.yul\":26781:26793   */\n      add\n        /* \"#utility.yul\":26774:26793   */\n      swap1\n      pop\n        /* \"#utility.yul\":26433:26799   */\n      swap2\n      swap1\n      pop\n      jump\t// out\n        /* \"#utility.yul\":26805:27224   */\n    tag_175:\n        /* \"#utility.yul\":26971:26975   */\n      0x00\n        /* \"#utility.yul\":27009:27011   */\n      0x20\n        /* \"#utility.yul\":26998:27007   */\n      dup3\n        /* \"#utility.yul\":26994:27012   */\n      add\n        /* \"#utility.yul\":26986:27012   */\n      swap1\n      pop\n        /* \"#utility.yul\":27058:27067   */\n      dup2\n        /* \"#utility.yul\":27052:27056   */\n      dup2\n        /* \"#utility.yul\":27048:27068   */\n      sub\n        /* \"#utility.yul\":27044:27045   */\n      0x00\n        /* \"#utility.yul\":27033:27042   */\n      dup4\n        /* \"#utility.yul\":27029:27046   */\n      add\n        /* \"#utility.yul\":27022:27069   */\n      mstore\n        /* \"#utility.yul\":27086:27217   */\n      tag_637\n        /* \"#utility.yul\":27212:27216   */\n      dup2\n        /* \"#utility.yul\":27086:27217   */\n      tag_381\n      jump\t// in\n    tag_637:\n        /* \"#utility.yul\":27078:27217   */\n      swap1\n      pop\n        /* \"#utility.yul\":26805:27224   */\n      swap2\n      swap1\n      pop\n      jump\t// out\n        /* \"#utility.yul\":27230:27364   */\n    tag_382:\n        /* \"#utility.yul\":27288:27297   */\n      0x00\n        /* \"#utility.yul\":27321:27358   */\n      tag_639\n        /* \"#utility.yul\":27352:27357   */\n      dup3\n        /* \"#utility.yul\":27321:27358   */\n      tag_324\n      jump\t// in\n    tag_639:\n        /* \"#utility.yul\":27308:27358   */\n      swap1\n      pop\n        /* \"#utility.yul\":27230:27364   */\n      swap2\n      swap1\n      pop\n      jump\t// out\n        /* \"#utility.yul\":27370:27517   */\n    tag_383:\n        /* \"#utility.yul\":27465:27510   */\n      tag_641\n        /* \"#utility.yul\":27504:27509   */\n      dup2\n        /* \"#utility.yul\":27465:27510   */\n      tag_382\n      jump\t// in\n    tag_641:\n        /* \"#utility.yul\":27460:27463   */\n      dup3\n        /* \"#utility.yul\":27453:27511   */\n      mstore\n        /* \"#utility.yul\":27370:27517   */\n      pop\n      pop\n      jump\t// out\n        /* \"#utility.yul\":27523:27981   */\n    tag_179:\n        /* \"#utility.yul\":27680:27684   */\n      0x00\n        /* \"#utility.yul\":27718:27720   */\n      0x60\n        /* \"#utility.yul\":27707:27716   */\n      dup3\n        /* \"#utility.yul\":27703:27721   */\n      add\n        /* \"#utility.yul\":27695:27721   */\n      swap1\n      pop\n        /* \"#utility.yul\":27731:27810   */\n      tag_643\n        /* \"#utility.yul\":27807:27808   */\n      0x00\n        /* \"#utility.yul\":27796:27805   */\n      dup4\n        /* \"#utility.yul\":27792:27809   */\n      add\n        /* \"#utility.yul\":27783:27789   */\n      dup7\n        /* \"#utility.yul\":27731:27810   */\n      tag_383\n      jump\t// in\n    tag_643:\n        /* \"#utility.yul\":27820:27892   */\n      tag_644\n        /* \"#utility.yul\":27888:27890   */\n      0x20\n        /* \"#utility.yul\":27877:27886   */\n      dup4\n        /* \"#utility.yul\":27873:27891   */\n      add\n        /* \"#utility.yul\":27864:27870   */\n      dup6\n        /* \"#utility.yul\":27820:27892   */\n      tag_342\n      jump\t// in\n    tag_644:\n        /* \"#utility.yul\":27902:27974   */\n      tag_645\n        /* \"#utility.yul\":27970:27972   */\n      0x40\n        /* \"#utility.yul\":27959:27968   */\n      dup4\n        /* \"#utility.yul\":27955:27973   */\n      add\n        /* \"#utility.yul\":27946:27952   */\n      dup5\n        /* \"#utility.yul\":27902:27974   */\n      tag_343\n      jump\t// in\n    tag_645:\n        /* \"#utility.yul\":27523:27981   */\n      swap5\n      swap4\n      pop\n      pop\n      pop\n      pop\n      jump\t// out\n        /* \"#utility.yul\":27987:28167   */\n    tag_384:\n        /* \"#utility.yul\":28035:28112   */\n      0x4e487b7100000000000000000000000000000000000000000000000000000000\n        /* \"#utility.yul\":28032:28033   */\n      0x00\n        /* \"#utility.yul\":28025:28113   */\n      mstore\n        /* \"#utility.yul\":28132:28136   */\n      0x11\n        /* \"#utility.yul\":28129:28130   */\n      0x04\n        /* \"#utility.yul\":28122:28137   */\n      mstore\n        /* \"#utility.yul\":28156:28160   */\n      0x24\n        /* \"#utility.yul\":28153:28154   */\n      0x00\n        /* \"#utility.yul\":28146:28161   */\n      revert\n        /* \"#utility.yul\":28173:28478   */\n    tag_205:\n        /* \"#utility.yul\":28213:28216   */\n      0x00\n        /* \"#utility.yul\":28232:28252   */\n      tag_648\n        /* \"#utility.yul\":28250:28251   */\n      dup3\n        /* \"#utility.yul\":28232:28252   */\n      tag_313\n      jump\t// in\n    tag_648:\n        /* \"#utility.yul\":28227:28252   */\n      swap2\n      pop\n        /* \"#utility.yul\":28266:28286   */\n      tag_649\n        /* \"#utility.yul\":28284:28285   */\n      dup4\n        /* \"#utility.yul\":28266:28286   */\n      tag_313\n      jump\t// in\n    tag_649:\n        /* \"#utility.yul\":28261:28286   */\n      swap3\n      pop\n        /* \"#utility.yul\":28420:28421   */\n      dup3\n        /* \"#utility.yul\":28352:28418   */\n      0xffffffffffffffffffffffffffffffffffffffffffffffffffffffffffffffff\n        /* \"#utility.yul\":28348:28422   */\n      sub\n        /* \"#utility.yul\":28345:28346   */\n      dup3\n        /* \"#utility.yul\":28342:28423   */\n      gt\n        /* \"#utility.yul\":28339:28446   */\n      iszero\n      tag_650\n      jumpi\n        /* \"#utility.yul\":28426:28444   */\n      tag_651\n      tag_384\n      jump\t// in\n    tag_651:\n        /* \"#utility.yul\":28339:28446   */\n    tag_650:\n        /* \"#utility.yul\":28470:28471   */\n      dup3\n        /* \"#utility.yul\":28467:28468   */\n      dup3\n        /* \"#utility.yul\":28463:28472   */\n      add\n        /* \"#utility.yul\":28456:28472   */\n      swap1\n      pop\n        /* \"#utility.yul\":28173:28478   */\n      swap3\n      swap2\n      pop\n      pop\n      jump\t// out\n        /* \"#utility.yul\":28484:28717   */\n    tag_207:\n        /* \"#utility.yul\":28523:28526   */\n      0x00\n        /* \"#utility.yul\":28546:28570   */\n      tag_653\n        /* \"#utility.yul\":28564:28569   */\n      dup3\n        /* \"#utility.yul\":28546:28570   */\n      tag_313\n      jump\t// in\n    tag_653:\n        /* \"#utility.yul\":28537:28570   */\n      swap2\n      pop\n        /* \"#utility.yul\":28592:28658   */\n      0xffffffffffffffffffffffffffffffffffffffffffffffffffffffffffffffff\n        /* \"#utility.yul\":28585:28590   */\n      dup3\n        /* \"#utility.yul\":28582:28659   */\n      sub\n        /* \"#utility.yul\":28579:28682   */\n      tag_654\n      jumpi\n        /* \"#utility.yul\":28662:28680   */\n      tag_655\n      tag_384\n      jump\t// in\n    tag_655:\n        /* \"#utility.yul\":28579:28682   */\n    tag_654:\n        /* \"#utility.yul\":28709:28710   */\n      0x01\n        /* \"#utility.yul\":28702:28707   */\n      dup3\n        /* \"#utility.yul\":28698:28711   */\n      add\n        /* \"#utility.yul\":28691:28711   */\n      swap1\n      pop\n        /* \"#utility.yul\":28484:28717   */\n      swap2\n      swap1\n      pop\n      jump\t// out\n        /* \"#utility.yul\":28723:28903   */\n    tag_229:\n        /* \"#utility.yul\":28771:28848   */\n      0x4e487b7100000000000000000000000000000000000000000000000000000000\n        /* \"#utility.yul\":28768:28769   */\n      0x00\n        /* \"#utility.yul\":28761:28849   */\n      mstore\n        /* \"#utility.yul\":28868:28872   */\n      0x32\n        /* \"#utility.yul\":28865:28866   */\n      0x04\n        /* \"#utility.yul\":28858:28873   */\n      mstore\n        /* \"#utility.yul\":28892:28896   */\n      0x24\n        /* \"#utility.yul\":28889:28890   */\n      0x00\n        /* \"#utility.yul\":28882:28897   */\n      revert\n        /* \"#utility.yul\":28909:29254   */\n    tag_251:\n        /* \"#utility.yul\":28976:28982   */\n      0x00\n        /* \"#utility.yul\":29025:29027   */\n      0x20\n        /* \"#utility.yul\":29013:29022   */\n      dup3\n        /* \"#utility.yul\":29004:29011   */\n      dup5\n        /* \"#utility.yul\":29000:29023   */\n      sub\n        /* \"#utility.yul\":28996:29028   */\n      slt\n        /* \"#utility.yul\":28993:29112   */\n      iszero\n      tag_658\n      jumpi\n        /* \"#utility.yul\":29031:29110   */\n      tag_659\n      tag_311\n      jump\t// in\n    tag_659:\n        /* \"#utility.yul\":28993:29112   */\n    tag_658:\n        /* \"#utility.yul\":29151:29152   */\n      0x00\n        /* \"#utility.yul\":29176:29237   */\n      tag_660\n        /* \"#utility.yul\":29229:29236   */\n      dup5\n        /* \"#utility.yul\":29220:29226   */\n      dup3\n        /* \"#utility.yul\":29209:29218   */\n      dup6\n        /* \"#utility.yul\":29205:29227   */\n      add\n        /* \"#utility.yul\":29176:29237   */\n      tag_378\n      jump\t// in\n    tag_660:\n        /* \"#utility.yul\":29166:29237   */\n      swap2\n      pop\n        /* \"#utility.yul\":29122:29247   */\n      pop\n        /* \"#utility.yul\":28909:29254   */\n      swap3\n      swap2\n      pop\n      pop\n      jump\t// out\n        /* \"#utility.yul\":29260:29511   */\n    tag_385:\n        /* \"#utility.yul\":29400:29434   */\n      0x506c65617365207375626d6974207468652061736b696e672070726963652069\n        /* \"#utility.yul\":29396:29397   */\n      0x00\n        /* \"#utility.yul\":29388:29394   */\n      dup3\n        /* \"#utility.yul\":29384:29398   */\n      add\n        /* \"#utility.yul\":29377:29435   */\n      mstore\n        /* \"#utility.yul\":29469:29503   */\n      0x6e206f7264657220746f20636f6d706c65746520746865207075726368617365\n        /* \"#utility.yul\":29464:29466   */\n      0x20\n        /* \"#utility.yul\":29456:29462   */\n      dup3\n        /* \"#utility.yul\":29452:29467   */\n      add\n        /* \"#utility.yul\":29445:29504   */\n      mstore\n        /* \"#utility.yul\":29260:29511   */\n      pop\n      jump\t// out\n        /* \"#utility.yul\":29517:29883   */\n    tag_386:\n        /* \"#utility.yul\":29659:29662   */\n      0x00\n        /* \"#utility.yul\":29680:29747   */\n      tag_663\n        /* \"#utility.yul\":29744:29746   */\n      0x40\n        /* \"#utility.yul\":29739:29742   */\n      dup4\n        /* \"#utility.yul\":29680:29747   */\n      tag_350\n      jump\t// in\n    tag_663:\n        /* \"#utility.yul\":29673:29747   */\n      swap2\n      pop\n        /* \"#utility.yul\":29756:29849   */\n      tag_664\n        /* \"#utility.yul\":29845:29848   */\n      dup3\n        /* \"#utility.yul\":29756:29849   */\n      tag_385\n      jump\t// in\n    tag_664:\n        /* \"#utility.yul\":29874:29876   */\n      0x40\n        /* \"#utility.yul\":29869:29872   */\n      dup3\n        /* \"#utility.yul\":29865:29877   */\n      add\n        /* \"#utility.yul\":29858:29877   */\n      swap1\n      pop\n        /* \"#utility.yul\":29517:29883   */\n      swap2\n      swap1\n      pop\n      jump\t// out\n        /* \"#utility.yul\":29889:30308   */\n    tag_268:\n        /* \"#utility.yul\":30055:30059   */\n      0x00\n        /* \"#utility.yul\":30093:30095   */\n      0x20\n        /* \"#utility.yul\":30082:30091   */\n      dup3\n        /* \"#utility.yul\":30078:30096   */\n      add\n        /* \"#utility.yul\":30070:30096   */\n      swap1\n      pop\n        /* \"#utility.yul\":30142:30151   */\n      dup2\n        /* \"#utility.yul\":30136:30140   */\n      dup2\n        /* \"#utility.yul\":30132:30152   */\n      sub\n        /* \"#utility.yul\":30128:30129   */\n      0x00\n        /* \"#utility.yul\":30117:30126   */\n      dup4\n        /* \"#utility.yul\":30113:30130   */\n      add\n        /* \"#utility.yul\":30106:30153   */\n      mstore\n        /* \"#utility.yul\":30170:30301   */\n      tag_666\n        /* \"#utility.yul\":30296:30300   */\n      dup2\n        /* \"#utility.yul\":30170:30301   */\n      tag_386\n      jump\t// in\n    tag_666:\n        /* \"#utility.yul\":30162:30301   */\n      swap1\n      pop\n        /* \"#utility.yul\":29889:30308   */\n      swap2\n      swap1\n      pop\n      jump\t// out\n        /* \"#utility.yul\":30314:30467   */\n    tag_387:\n        /* \"#utility.yul\":30454:30459   */\n      0x5351460000000000000000000000000000000000000000000000000000000000\n        /* \"#utility.yul\":30450:30451   */\n      0x00\n        /* \"#utility.yul\":30442:30448   */\n      dup3\n        /* \"#utility.yul\":30438:30452   */\n      add\n        /* \"#utility.yul\":30431:30460   */\n      mstore\n        /* \"#utility.yul\":30314:30467   */\n      pop\n      jump\t// out\n        /* \"#utility.yul\":30473:30838   */\n    tag_388:\n        /* \"#utility.yul\":30615:30618   */\n      0x00\n        /* \"#utility.yul\":30636:30702   */\n      tag_669\n        /* \"#utility.yul\":30700:30701   */\n      0x03\n        /* \"#utility.yul\":30695:30698   */\n      dup4\n        /* \"#utility.yul\":30636:30702   */\n      tag_350\n      jump\t// in\n    tag_669:\n        /* \"#utility.yul\":30629:30702   */\n      swap2\n      pop\n        /* \"#utility.yul\":30711:30804   */\n      tag_670\n        /* \"#utility.yul\":30800:30803   */\n      dup3\n        /* \"#utility.yul\":30711:30804   */\n      tag_387\n      jump\t// in\n    tag_670:\n        /* \"#utility.yul\":30829:30831   */\n      0x20\n        /* \"#utility.yul\":30824:30827   */\n      dup3\n        /* \"#utility.yul\":30820:30832   */\n      add\n        /* \"#utility.yul\":30813:30832   */\n      swap1\n      pop\n        /* \"#utility.yul\":30473:30838   */\n      swap2\n      swap1\n      pop\n      jump\t// out\n        /* \"#utility.yul\":30844:31594   */\n    tag_276:\n        /* \"#utility.yul\":31094:31098   */\n      0x00\n        /* \"#utility.yul\":31132:31135   */\n      0x80\n        /* \"#utility.yul\":31121:31130   */\n      dup3\n        /* \"#utility.yul\":31117:31136   */\n      add\n        /* \"#utility.yul\":31109:31136   */\n      swap1\n      pop\n        /* \"#utility.yul\":31146:31217   */\n      tag_672\n        /* \"#utility.yul\":31214:31215   */\n      0x00\n        /* \"#utility.yul\":31203:31212   */\n      dup4\n        /* \"#utility.yul\":31199:31216   */\n      add\n        /* \"#utility.yul\":31190:31196   */\n      dup7\n        /* \"#utility.yul\":31146:31217   */\n      tag_343\n      jump\t// in\n    tag_672:\n        /* \"#utility.yul\":31227:31299   */\n      tag_673\n        /* \"#utility.yul\":31295:31297   */\n      0x20\n        /* \"#utility.yul\":31284:31293   */\n      dup4\n        /* \"#utility.yul\":31280:31298   */\n      add\n        /* \"#utility.yul\":31271:31277   */\n      dup6\n        /* \"#utility.yul\":31227:31299   */\n      tag_343\n      jump\t// in\n    tag_673:\n        /* \"#utility.yul\":31346:31355   */\n      dup2\n        /* \"#utility.yul\":31340:31344   */\n      dup2\n        /* \"#utility.yul\":31336:31356   */\n      sub\n        /* \"#utility.yul\":31331:31333   */\n      0x40\n        /* \"#utility.yul\":31320:31329   */\n      dup4\n        /* \"#utility.yul\":31316:31334   */\n      add\n        /* \"#utility.yul\":31309:31357   */\n      mstore\n        /* \"#utility.yul\":31374:31505   */\n      tag_674\n        /* \"#utility.yul\":31500:31504   */\n      dup2\n        /* \"#utility.yul\":31374:31505   */\n      tag_388\n      jump\t// in\n    tag_674:\n        /* \"#utility.yul\":31366:31505   */\n      swap1\n      pop\n        /* \"#utility.yul\":31515:31587   */\n      tag_675\n        /* \"#utility.yul\":31583:31585   */\n      0x60\n        /* \"#utility.yul\":31572:31581   */\n      dup4\n        /* \"#utility.yul\":31568:31586   */\n      add\n        /* \"#utility.yul\":31559:31565   */\n      dup5\n        /* \"#utility.yul\":31515:31587   */\n      tag_343\n      jump\t// in\n    tag_675:\n        /* \"#utility.yul\":30844:31594   */\n      swap5\n      swap4\n      pop\n      pop\n      pop\n      pop\n      jump\t// out\n        /* \"#utility.yul\":31600:31825   */\n    tag_389:\n        /* \"#utility.yul\":31740:31774   */\n      0x4f776e61626c653a206e6577206f776e657220697320746865207a65726f2061\n        /* \"#utility.yul\":31736:31737   */\n      0x00\n        /* \"#utility.yul\":31728:31734   */\n      dup3\n        /* \"#utility.yul\":31724:31738   */\n      add\n        /* \"#utility.yul\":31717:31775   */\n      mstore\n        /* \"#utility.yul\":31809:31817   */\n      0x6464726573730000000000000000000000000000000000000000000000000000\n        /* \"#utility.yul\":31804:31806   */\n      0x20\n        /* \"#utility.yul\":31796:31802   */\n      dup3\n        /* \"#utility.yul\":31792:31807   */\n      add\n        /* \"#utility.yul\":31785:31818   */\n      mstore\n        /* \"#utility.yul\":31600:31825   */\n      pop\n      jump\t// out\n        /* \"#utility.yul\":31831:32197   */\n    tag_390:\n        /* \"#utility.yul\":31973:31976   */\n      0x00\n        /* \"#utility.yul\":31994:32061   */\n      tag_678\n        /* \"#utility.yul\":32058:32060   */\n      0x26\n        /* \"#utility.yul\":32053:32056   */\n      dup4\n        /* \"#utility.yul\":31994:32061   */\n      tag_350\n      jump\t// in\n    tag_678:\n        /* \"#utility.yul\":31987:32061   */\n      swap2\n      pop\n        /* \"#utility.yul\":32070:32163   */\n      tag_679\n        /* \"#utility.yul\":32159:32162   */\n      dup3\n        /* \"#utility.yul\":32070:32163   */\n      tag_389\n      jump\t// in\n    tag_679:\n        /* \"#utility.yul\":32188:32190   */\n      0x40\n        /* \"#utility.yul\":32183:32186   */\n      dup3\n        /* \"#utility.yul\":32179:32191   */\n      add\n        /* \"#utility.yul\":32172:32191   */\n      swap1\n      pop\n        /* \"#utility.yul\":31831:32197   */\n      swap2\n      swap1\n      pop\n      jump\t// out\n        /* \"#utility.yul\":32203:32622   */\n    tag_302:\n        /* \"#utility.yul\":32369:32373   */\n      0x00\n        /* \"#utility.yul\":32407:32409   */\n      0x20\n        /* \"#utility.yul\":32396:32405   */\n      dup3\n        /* \"#utility.yul\":32392:32410   */\n      add\n        /* \"#utility.yul\":32384:32410   */\n      swap1\n      pop\n        /* \"#utility.yul\":32456:32465   */\n      dup2\n        /* \"#utility.yul\":32450:32454   */\n      dup2\n        /* \"#utility.yul\":32446:32466   */\n      sub\n        /* \"#utility.yul\":32442:32443   */\n      0x00\n        /* \"#utility.yul\":32431:32440   */\n      dup4\n        /* \"#utility.yul\":32427:32444   */\n      add\n        /* \"#utility.yul\":32420:32467   */\n      mstore\n        /* \"#utility.yul\":32484:32615   */\n      tag_681\n        /* \"#utility.yul\":32610:32614   */\n      dup2\n        /* \"#utility.yul\":32484:32615   */\n      tag_390\n      jump\t// in\n    tag_681:\n        /* \"#utility.yul\":32476:32615   */\n      swap1\n      pop\n        /* \"#utility.yul\":32203:32622   */\n      swap2\n      swap1\n      pop\n      jump\t// out\n\n    auxdata: 0xa26469706673582212204511834361dfbff6c2dae365c8fecdba28cfd5504c2cbef756a1cd5aa9e3e10e64736f6c634300080d0033\n}\n",
				"bytecode": {
					"linkReferences": {},
					"object": "60806040526040516200312138038062003121833981810160405281019062000029919062000255565b600160008190555062000051620000456200011d60201b60201c565b6200012560201b60201c565b82600360006101000a81548173ffffffffffffffffffffffffffffffffffffffff021916908373ffffffffffffffffffffffffffffffffffffffff16021790555081600560006101000a81548173ffffffffffffffffffffffffffffffffffffffff021916908373ffffffffffffffffffffffffffffffffffffffff16021790555080600460006101000a81548173ffffffffffffffffffffffffffffffffffffffff021916908373ffffffffffffffffffffffffffffffffffffffff160217905550505050620002b1565b600033905090565b6000600660009054906101000a900473ffffffffffffffffffffffffffffffffffffffff16905081600660006101000a81548173ffffffffffffffffffffffffffffffffffffffff021916908373ffffffffffffffffffffffffffffffffffffffff1602179055508173ffffffffffffffffffffffffffffffffffffffff168173ffffffffffffffffffffffffffffffffffffffff167f8be0079c531659141344cd1fd0a4f28419497f9722a3daafe3b4186f6b6457e060405160405180910390a35050565b600080fd5b600073ffffffffffffffffffffffffffffffffffffffff82169050919050565b60006200021d82620001f0565b9050919050565b6200022f8162000210565b81146200023b57600080fd5b50565b6000815190506200024f8162000224565b92915050565b600080600060608486031215620002715762000270620001eb565b5b600062000281868287016200023e565b935050602062000294868287016200023e565b9250506040620002a7868287016200023e565b9150509250925092565b612e6080620002c16000396000f3fe608060405234801561001057600080fd5b50600436106101425760003560e01c80638c0fb1c3116100b8578063c45a01551161007c578063c45a01551461031a578063c7be7a4914610338578063e78e717d14610368578063f2fde38b14610384578063f55de0c7146103a0578063ff68fa6e146103be57610142565b80638c0fb1c3146102715780638da5cb5b1461028d578063a1c11ca8146102ab578063b7a60c7e146102c7578063bfb231d2146102e557610142565b8063361c19951161010a578063361c1995146101d55780633fc15f15146101f157806342199f881461020f5780635bb478081461022d578063715018a61461024957806385a8b36c1461025357610142565b8063100616311461014757806315b124941461016357806327ce464e1461017f5780632b4c32be1461019b5780632d923561146101b9575b600080fd5b610161600480360381019061015c9190611ea2565b6103f3565b005b61017d60048036038101906101789190611f2d565b610863565b005b61019960048036038101906101949190611f2d565b610923565b005b6101a36109e3565b6040516101b09190611f95565b60405180910390f35b6101d360048036038101906101ce9190611fb0565b6109ee565b005b6101ef60048036038101906101ea9190611fb0565b610adb565b005b6101f9610ee8565b604051610206919061204f565b60405180910390f35b610217610f0e565b6040516102249190612229565b60405180910390f35b61024760048036038101906102429190611f2d565b6111e0565b005b6102516112a0565b005b61025b611328565b6040516102689190612267565b60405180910390f35b61028b60048036038101906102869190612282565b61133b565b005b61029561153b565b6040516102a291906122e4565b60405180910390f35b6102c560048036038101906102c09190611fb0565b611565565b005b6102cf611823565b6040516102dc9190612267565b60405180910390f35b6102ff60048036038101906102fa9190611ea2565b611836565b6040516103119695949392919061231d565b60405180910390f35b6103226118cf565b60405161032f919061239f565b60405180910390f35b610352600480360381019061034d9190611ea2565b6118f5565b60405161035f9190612435565b60405180910390f35b610382600480360381019061037d9190611ea2565b611a27565b005b61039e60048036038101906103999190611f2d565b611b4c565b005b6103a8611c43565b6040516103b59190612471565b60405180910390f35b6103d860048036038101906103d39190611ea2565b611c69565b6040516103ea9695949392919061231d565b60405180910390f35b60003390506000600960008481526020019081526020016000206040518060c001604052908160008201548152602001600182015481526020016002820160009054906101000a900473ffffffffffffffffffffffffffffffffffffffff1673ffffffffffffffffffffffffffffffffffffffff1673ffffffffffffffffffffffffffffffffffffffff1681526020016003820160009054906101000a900473ffffffffffffffffffffffffffffffffffffffff1673ffffffffffffffffffffffffffffffffffffffff1673ffffffffffffffffffffffffffffffffffffffff168152602001600482015481526020016005820160009054906101000a900460ff166001811115610507576105066120b4565b5b6001811115610519576105186120b4565b5b8152505090506000816000015103610566576040517f08c379a000000000000000000000000000000000000000000000000000000000815260040161055d906124e9565b60405180910390fd5b600180811115610579576105786120b4565b5b8160a0015160018111156105905761058f6120b4565b5b146105d0576040517f08c379a00000000000000000000000000000000000000000000000000000000081526004016105c790612555565b60405180910390fd5b600081604001519050600073ffffffffffffffffffffffffffffffffffffffff168173ffffffffffffffffffffffffffffffffffffffff1603610648576040517f08c379a000000000000000000000000000000000000000000000000000000000815260040161063f906125c1565b60405180910390fd5b3373ffffffffffffffffffffffffffffffffffffffff168173ffffffffffffffffffffffffffffffffffffffff16146106b6576040517f08c379a00000000000000000000000000000000000000000000000000000000081526004016106ad9061262d565b60405180910390fd5b600560009054906101000a900473ffffffffffffffffffffffffffffffffffffffff1673ffffffffffffffffffffffffffffffffffffffff166342842e0e3083876040518463ffffffff1660e01b81526004016107159392919061264d565b600060405180830381600087803b15801561072f57600080fd5b505af1158015610743573d6000803e3d6000fd5b5050505060008260a0019060018111156107605761075f6120b4565b5b90816001811115610774576107736120b4565b5b815250506009600085815260200190815260200160002060008082016000905560018201600090556002820160006101000a81549073ffffffffffffffffffffffffffffffffffffffff02191690556003820160006101000a81549073ffffffffffffffffffffffffffffffffffffffff021916905560048201600090556005820160006101000a81549060ff021916905550508273ffffffffffffffffffffffffffffffffffffffff16847f72ffc2a266acba5f77e2b49400103cb61b428f37a97057ebe671e83fddd71e67846000015142604051610855929190612684565b60405180910390a350505050565b61086b611cf2565b73ffffffffffffffffffffffffffffffffffffffff1661088961153b565b73ffffffffffffffffffffffffffffffffffffffff16146108df576040517f08c379a00000000000000000000000000000000000000000000000000000000081526004016108d6906126f9565b60405180910390fd5b80600560006101000a81548173ffffffffffffffffffffffffffffffffffffffff021916908373ffffffffffffffffffffffffffffffffffffffff16021790555050565b61092b611cf2565b73ffffffffffffffffffffffffffffffffffffffff1661094961153b565b73ffffffffffffffffffffffffffffffffffffffff161461099f576040517f08c379a0000000000000000000000000000000000000000000000000000000008152600401610996906126f9565b60405180910390fd5b80600360006101000a81548173ffffffffffffffffffffffffffffffffffffffff021916908373ffffffffffffffffffffffffffffffffffffffff16021790555050565b6380ac58cd60e01b81565b60008111610a31576040517f08c379a0000000000000000000000000000000000000000000000000000000008152600401610a2890612765565b60405180910390fd5b6000600460009054906101000a900473ffffffffffffffffffffffffffffffffffffffff1673ffffffffffffffffffffffffffffffffffffffff166303ce1cb5846040518263ffffffff1660e01b8152600401610a8e9190612785565b600060405180830381865afa158015610aab573d6000803e3d6000fd5b505050506040513d6000823e3d601f19601f82011682018060405250810190610ad49190612a3a565b9050505050565b60008111610b1e576040517f08c379a0000000000000000000000000000000000000000000000000000000008152600401610b1590612765565b60405180910390fd5b6000600460009054906101000a900473ffffffffffffffffffffffffffffffffffffffff1673ffffffffffffffffffffffffffffffffffffffff166303ce1cb5846040518263ffffffff1660e01b8152600401610b7b9190612785565b600060405180830381865afa158015610b98573d6000803e3d6000fd5b505050506040513d6000823e3d601f19601f82011682018060405250810190610bc19190612a3a565b9050600015158160800151151514610c0e576040517f08c379a0000000000000000000000000000000000000000000000000000000008152600401610c0590612acf565b60405180910390fd5b6000610c1a6007611cfa565b9050600460009054906101000a900473ffffffffffffffffffffffffffffffffffffffff1673ffffffffffffffffffffffffffffffffffffffff1663c1e9518a3330876040518463ffffffff1660e01b8152600401610c7b93929190612b10565b600060405180830381600087803b158015610c9557600080fd5b505af1158015610ca9573d6000803e3d6000fd5b50505050600560009054906101000a900473ffffffffffffffffffffffffffffffffffffffff1673ffffffffffffffffffffffffffffffffffffffff166323b872dd3330876040518463ffffffff1660e01b8152600401610d0c9392919061264d565b600060405180830381600087803b158015610d2657600080fd5b505af1158015610d3a573d6000803e3d6000fd5b505050506040518060c001604052808281526020018581526020013373ffffffffffffffffffffffffffffffffffffffff1681526020013073ffffffffffffffffffffffffffffffffffffffff168152602001848152602001600180811115610da657610da56120b4565b5b81525060096000838152602001908152602001600020600082015181600001556020820151816001015560408201518160020160006101000a81548173ffffffffffffffffffffffffffffffffffffffff021916908373ffffffffffffffffffffffffffffffffffffffff16021790555060608201518160030160006101000a81548173ffffffffffffffffffffffffffffffffffffffff021916908373ffffffffffffffffffffffffffffffffffffffff1602179055506080820151816004015560a08201518160050160006101000a81548160ff02191690836001811115610e9357610e926120b4565b5b0217905550905050610ea56007611d08565b83817f38690a554ffbc44eb6a75016e47d517d0db8e6c37494adc68d6d0b2c66f0ab21333087604051610eda9392919061264d565b60405180910390a350505050565b600360009054906101000a900473ffffffffffffffffffffffffffffffffffffffff1681565b60606000610f1c6007611cfa565b905060008060005b83811015610f9d57600180811115610f3f57610f3e6120b4565b5b6009600083815260200190815260200160002060050160009054906101000a900460ff166001811115610f7557610f746120b4565b5b03610f8a57600183610f879190612b76565b92505b8080610f9590612bcc565b915050610f24565b5060008267ffffffffffffffff811115610fba57610fb96127b6565b5b604051908082528060200260200182016040528015610ff357816020015b610fe0611de4565b815260200190600190039081610fd85790505b50905060005b848110156111d557600180811115611014576110136120b4565b5b6009600083815260200190815260200160002060050160009054906101000a900460ff16600181111561104a576110496120b4565b5b036111c2576000600960008381526020019081526020016000206000015490506000600960008381526020019081526020016000209050806040518060c001604052908160008201548152602001600182015481526020016002820160009054906101000a900473ffffffffffffffffffffffffffffffffffffffff1673ffffffffffffffffffffffffffffffffffffffff1673ffffffffffffffffffffffffffffffffffffffff1681526020016003820160009054906101000a900473ffffffffffffffffffffffffffffffffffffffff1673ffffffffffffffffffffffffffffffffffffffff1673ffffffffffffffffffffffffffffffffffffffff168152602001600482015481526020016005820160009054906101000a900460ff16600181111561117c5761117b6120b4565b5b600181111561118e5761118d6120b4565b5b815250508486815181106111a5576111a4612c14565b5b60200260200101819052506001856111bd9190612b76565b945050505b80806111cd90612bcc565b915050610ff9565b508094505050505090565b6111e8611cf2565b73ffffffffffffffffffffffffffffffffffffffff1661120661153b565b73ffffffffffffffffffffffffffffffffffffffff161461125c576040517f08c379a0000000000000000000000000000000000000000000000000000000008152600401611253906126f9565b60405180910390fd5b80600460006101000a81548173ffffffffffffffffffffffffffffffffffffffff021916908373ffffffffffffffffffffffffffffffffffffffff16021790555050565b6112a8611cf2565b73ffffffffffffffffffffffffffffffffffffffff166112c661153b565b73ffffffffffffffffffffffffffffffffffffffff161461131c576040517f08c379a0000000000000000000000000000000000000000000000000000000008152600401611313906126f9565b60405180910390fd5b6113266000611d1e565b565b600560149054906101000a900460ff1681565b600360009054906101000a900473ffffffffffffffffffffffffffffffffffffffff1673ffffffffffffffffffffffffffffffffffffffff166323b872dd336009600087815260200190815260200160002060020160009054906101000a900473ffffffffffffffffffffffffffffffffffffffff16856040518463ffffffff1660e01b81526004016113d09392919061264d565b6020604051808303816000875af11580156113ef573d6000803e3d6000fd5b505050506040513d601f19601f820116820180604052508101906114139190612c43565b50600460009054906101000a900473ffffffffffffffffffffffffffffffffffffffff1673ffffffffffffffffffffffffffffffffffffffff1663c1e9518a3330846040518463ffffffff1660e01b815260040161147393929190612b10565b600060405180830381600087803b15801561148d57600080fd5b505af11580156114a1573d6000803e3d6000fd5b50505050600560009054906101000a900473ffffffffffffffffffffffffffffffffffffffff1673ffffffffffffffffffffffffffffffffffffffff166323b872dd3033846040518463ffffffff1660e01b81526004016115049392919061264d565b600060405180830381600087803b15801561151e57600080fd5b505af1158015611532573d6000803e3d6000fd5b50505050505050565b6000600660009054906101000a900473ffffffffffffffffffffffffffffffffffffffff16905090565b60006009600084815260200190815260200160002060040154905060006009600085815260200190815260200160002060010154905060006009600086815260200190815260200160002060020160009054906101000a900473ffffffffffffffffffffffffffffffffffffffff1690506000600460009054906101000a900473ffffffffffffffffffffffffffffffffffffffff1673ffffffffffffffffffffffffffffffffffffffff166303ce1cb5846040518263ffffffff1660e01b81526004016116339190612785565b600060405180830381865afa158015611650573d6000803e3d6000fd5b505050506040513d6000823e3d601f19601f820116820180604052508101906116799190612a3a565b90508385146116bd576040517f08c379a00000000000000000000000000000000000000000000000000000000081526004016116b490612ce2565b60405180910390fd5b600015158160800151151514611708576040517f08c379a00000000000000000000000000000000000000000000000000000000081526004016116ff90612acf565b60405180910390fd5b61171386868561133b565b336009600088815260200190815260200160002060030160006101000a81548173ffffffffffffffffffffffffffffffffffffffff021916908373ffffffffffffffffffffffffffffffffffffffff16021790555060006009600088815260200190815260200160002060050160006101000a81548160ff021916908360018111156117a2576117a16120b4565b5b02179055506117b16008611d08565b3373ffffffffffffffffffffffffffffffffffffffff168273ffffffffffffffffffffffffffffffffffffffff16847f551327aee12d0a8b3ede8d0e3182a40a5ff3ed9f1811dd622915db30b609b7df89884260405161181393929190612d4e565b60405180910390a4505050505050565b600560159054906101000a900460ff1681565b6001818154811061184657600080fd5b90600052602060002090600602016000915090508060000154908060010154908060020160009054906101000a900473ffffffffffffffffffffffffffffffffffffffff16908060030160009054906101000a900473ffffffffffffffffffffffffffffffffffffffff16908060040154908060050160009054906101000a900460ff16905086565b600460009054906101000a900473ffffffffffffffffffffffffffffffffffffffff1681565b6118fd611de4565b600960008381526020019081526020016000206040518060c001604052908160008201548152602001600182015481526020016002820160009054906101000a900473ffffffffffffffffffffffffffffffffffffffff1673ffffffffffffffffffffffffffffffffffffffff1673ffffffffffffffffffffffffffffffffffffffff1681526020016003820160009054906101000a900473ffffffffffffffffffffffffffffffffffffffff1673ffffffffffffffffffffffffffffffffffffffff1673ffffffffffffffffffffffffffffffffffffffff168152602001600482015481526020016005820160009054906101000a900460ff166001811115611a0a57611a096120b4565b5b6001811115611a1c57611a1b6120b4565b5b815250509050919050565b600460009054906101000a900473ffffffffffffffffffffffffffffffffffffffff1673ffffffffffffffffffffffffffffffffffffffff1663c1e9518a3330846040518463ffffffff1660e01b8152600401611a8693929190612b10565b600060405180830381600087803b158015611aa057600080fd5b505af1158015611ab4573d6000803e3d6000fd5b50505050600560009054906101000a900473ffffffffffffffffffffffffffffffffffffffff1673ffffffffffffffffffffffffffffffffffffffff166323b872dd3330846040518463ffffffff1660e01b8152600401611b179392919061264d565b600060405180830381600087803b158015611b3157600080fd5b505af1158015611b45573d6000803e3d6000fd5b5050505050565b611b54611cf2565b73ffffffffffffffffffffffffffffffffffffffff16611b7261153b565b73ffffffffffffffffffffffffffffffffffffffff1614611bc8576040517f08c379a0000000000000000000000000000000000000000000000000000000008152600401611bbf906126f9565b60405180910390fd5b600073ffffffffffffffffffffffffffffffffffffffff168173ffffffffffffffffffffffffffffffffffffffff1603611c37576040517f08c379a0000000000000000000000000000000000000000000000000000000008152600401611c2e90612e0a565b60405180910390fd5b611c4081611d1e565b50565b600560009054906101000a900473ffffffffffffffffffffffffffffffffffffffff1681565b60026020528060005260406000206000915090508060000154908060010154908060020160009054906101000a900473ffffffffffffffffffffffffffffffffffffffff16908060030160009054906101000a900473ffffffffffffffffffffffffffffffffffffffff16908060040154908060050160009054906101000a900460ff16905086565b600033905090565b600081600001549050919050565b6001816000016000828254019250508190555050565b6000600660009054906101000a900473ffffffffffffffffffffffffffffffffffffffff16905081600660006101000a81548173ffffffffffffffffffffffffffffffffffffffff021916908373ffffffffffffffffffffffffffffffffffffffff1602179055508173ffffffffffffffffffffffffffffffffffffffff168173ffffffffffffffffffffffffffffffffffffffff167f8be0079c531659141344cd1fd0a4f28419497f9722a3daafe3b4186f6b6457e060405160405180910390a35050565b6040518060c001604052806000815260200160008152602001600073ffffffffffffffffffffffffffffffffffffffff168152602001600073ffffffffffffffffffffffffffffffffffffffff1681526020016000815260200160006001811115611e5257611e516120b4565b5b81525090565b6000604051905090565b600080fd5b600080fd5b6000819050919050565b611e7f81611e6c565b8114611e8a57600080fd5b50565b600081359050611e9c81611e76565b92915050565b600060208284031215611eb857611eb7611e62565b5b6000611ec684828501611e8d565b91505092915050565b600073ffffffffffffffffffffffffffffffffffffffff82169050919050565b6000611efa82611ecf565b9050919050565b611f0a81611eef565b8114611f1557600080fd5b50565b600081359050611f2781611f01565b92915050565b600060208284031215611f4357611f42611e62565b5b6000611f5184828501611f18565b91505092915050565b60007fffffffff0000000000000000000000000000000000000000000000000000000082169050919050565b611f8f81611f5a565b82525050565b6000602082019050611faa6000830184611f86565b92915050565b60008060408385031215611fc757611fc6611e62565b5b6000611fd585828601611e8d565b9250506020611fe685828601611e8d565b9150509250929050565b6000819050919050565b600061201561201061200b84611ecf565b611ff0565b611ecf565b9050919050565b600061202782611ffa565b9050919050565b60006120398261201c565b9050919050565b6120498161202e565b82525050565b60006020820190506120646000830184612040565b92915050565b600081519050919050565b600082825260208201905092915050565b6000819050602082019050919050565b61209f81611e6c565b82525050565b6120ae81611eef565b82525050565b7f4e487b7100000000000000000000000000000000000000000000000000000000600052602160045260246000fd5b600281106120f4576120f36120b4565b5b50565b6000819050612105826120e3565b919050565b6000612115826120f7565b9050919050565b6121258161210a565b82525050565b60c0820160008201516121416000850182612096565b5060208201516121546020850182612096565b50604082015161216760408501826120a5565b50606082015161217a60608501826120a5565b50608082015161218d6080850182612096565b5060a08201516121a060a085018261211c565b50505050565b60006121b2838361212b565b60c08301905092915050565b6000602082019050919050565b60006121d68261206a565b6121e08185612075565b93506121eb83612086565b8060005b8381101561221c57815161220388826121a6565b975061220e836121be565b9250506001810190506121ef565b5085935050505092915050565b6000602082019050818103600083015261224381846121cb565b905092915050565b600060ff82169050919050565b6122618161224b565b82525050565b600060208201905061227c6000830184612258565b92915050565b60008060006060848603121561229b5761229a611e62565b5b60006122a986828701611e8d565b93505060206122ba86828701611e8d565b92505060406122cb86828701611e8d565b9150509250925092565b6122de81611eef565b82525050565b60006020820190506122f960008301846122d5565b92915050565b61230881611e6c565b82525050565b6123178161210a565b82525050565b600060c08201905061233260008301896122ff565b61233f60208301886122ff565b61234c60408301876122d5565b61235960608301866122d5565b61236660808301856122ff565b61237360a083018461230e565b979650505050505050565b60006123898261201c565b9050919050565b6123998161237e565b82525050565b60006020820190506123b46000830184612390565b92915050565b60c0820160008201516123d06000850182612096565b5060208201516123e36020850182612096565b5060408201516123f660408501826120a5565b50606082015161240960608501826120a5565b50608082015161241c6080850182612096565b5060a082015161242f60a085018261211c565b50505050565b600060c08201905061244a60008301846123ba565b92915050565b600061245b8261201c565b9050919050565b61246b81612450565b82525050565b60006020820190506124866000830184612462565b92915050565b600082825260208201905092915050565b7f4173736574206e6f74207075626c697368656400000000000000000000000000600082015250565b60006124d360138361248c565b91506124de8261249d565b602082019050919050565b60006020820190508181036000830152612502816124c6565b9050919050565b7f41737365742064656c6973746564000000000000000000000000000000000000600082015250565b600061253f600e8361248c565b915061254a82612509565b602082019050919050565b6000602082019050818103600083015261256e81612532565b9050919050565b7f496e76616c696420616464726573730000000000000000000000000000000000600082015250565b60006125ab600f8361248c565b91506125b682612575565b602082019050919050565b600060208201905081810360008301526125da8161259e565b9050919050565b7f4f6e6c792073656c6c65722063616e2064656c69737400000000000000000000600082015250565b600061261760168361248c565b9150612622826125e1565b602082019050919050565b600060208201905081810360008301526126468161260a565b9050919050565b600060608201905061266260008301866122d5565b61266f60208301856122d5565b61267c60408301846122ff565b949350505050565b600060408201905061269960008301856122ff565b6126a660208301846122ff565b9392505050565b7f4f776e61626c653a2063616c6c6572206973206e6f7420746865206f776e6572600082015250565b60006126e360208361248c565b91506126ee826126ad565b602082019050919050565b60006020820190508181036000830152612712816126d6565b9050919050565b7f5072696365206d757374206265206174206c6561737420312077656900000000600082015250565b600061274f601c8361248c565b915061275a82612719565b602082019050919050565b6000602082019050818103600083015261277e81612742565b9050919050565b600060208201905061279a60008301846122ff565b92915050565b600080fd5b6000601f19601f8301169050919050565b7f4e487b7100000000000000000000000000000000000000000000000000000000600052604160045260246000fd5b6127ee826127a5565b810181811067ffffffffffffffff8211171561280d5761280c6127b6565b5b80604052505050565b6000612820611e58565b905061282c82826127e5565b919050565b600080fd5b60008151905061284581611e76565b92915050565b60008151905061285a81611f01565b92915050565b600080fd5b600080fd5b600067ffffffffffffffff821115612885576128846127b6565b5b61288e826127a5565b9050602081019050919050565b60005b838110156128b957808201518184015260208101905061289e565b838111156128c8576000848401525b50505050565b60006128e16128dc8461286a565b612816565b9050828152602081018484840111156128fd576128fc612865565b5b61290884828561289b565b509392505050565b600082601f83011261292557612924612860565b5b81516129358482602086016128ce565b91505092915050565b60008115159050919050565b6129538161293e565b811461295e57600080fd5b50565b6000815190506129708161294a565b92915050565b600060a0828403121561298c5761298b6127a0565b5b61299660a0612816565b905060006129a684828501612836565b60008301525060206129ba8482850161284b565b602083015250604082015167ffffffffffffffff8111156129de576129dd612831565b5b6129ea84828501612910565b604083015250606082015167ffffffffffffffff811115612a0e57612a0d612831565b5b612a1a84828501612910565b6060830152506080612a2e84828501612961565b60808301525092915050565b600060208284031215612a5057612a4f611e62565b5b600082015167ffffffffffffffff811115612a6e57612a6d611e67565b5b612a7a84828501612976565b91505092915050565b7f4974656d206973206e6f7420617661696c61626c65206e6f7720210000000000600082015250565b6000612ab9601b8361248c565b9150612ac482612a83565b602082019050919050565b60006020820190508181036000830152612ae881612aac565b9050919050565b6000612afa8261201c565b9050919050565b612b0a81612aef565b82525050565b6000606082019050612b256000830186612b01565b612b3260208301856122d5565b612b3f60408301846122ff565b949350505050565b7f4e487b7100000000000000000000000000000000000000000000000000000000600052601160045260246000fd5b6000612b8182611e6c565b9150612b8c83611e6c565b9250827fffffffffffffffffffffffffffffffffffffffffffffffffffffffffffffffff03821115612bc157612bc0612b47565b5b828201905092915050565b6000612bd782611e6c565b91507fffffffffffffffffffffffffffffffffffffffffffffffffffffffffffffffff8203612c0957612c08612b47565b5b600182019050919050565b7f4e487b7100000000000000000000000000000000000000000000000000000000600052603260045260246000fd5b600060208284031215612c5957612c58611e62565b5b6000612c6784828501612961565b91505092915050565b7f506c65617365207375626d6974207468652061736b696e67207072696365206960008201527f6e206f7264657220746f20636f6d706c65746520746865207075726368617365602082015250565b6000612ccc60408361248c565b9150612cd782612c70565b604082019050919050565b60006020820190508181036000830152612cfb81612cbf565b9050919050565b7f5351460000000000000000000000000000000000000000000000000000000000600082015250565b6000612d3860038361248c565b9150612d4382612d02565b602082019050919050565b6000608082019050612d6360008301866122ff565b612d7060208301856122ff565b8181036040830152612d8181612d2b565b9050612d9060608301846122ff565b949350505050565b7f4f776e61626c653a206e6577206f776e657220697320746865207a65726f206160008201527f6464726573730000000000000000000000000000000000000000000000000000602082015250565b6000612df460268361248c565b9150612dff82612d98565b604082019050919050565b60006020820190508181036000830152612e2381612de7565b905091905056fea26469706673582212204511834361dfbff6c2dae365c8fecdba28cfd5504c2cbef756a1cd5aa9e3e10e64736f6c634300080d0033",
					"opcodes": "PUSH1 0x80 PUSH1 0x40 MSTORE PUSH1 0x40 MLOAD PUSH3 0x3121 CODESIZE SUB DUP1 PUSH3 0x3121 DUP4 CODECOPY DUP2 DUP2 ADD PUSH1 0x40 MSTORE DUP2 ADD SWAP1 PUSH3 0x29 SWAP2 SWAP1 PUSH3 0x255 JUMP JUMPDEST PUSH1 0x1 PUSH1 0x0 DUP2 SWAP1 SSTORE POP PUSH3 0x51 PUSH3 0x45 PUSH3 0x11D PUSH1 0x20 SHL PUSH1 0x20 SHR JUMP JUMPDEST PUSH3 0x125 PUSH1 0x20 SHL PUSH1 0x20 SHR JUMP JUMPDEST DUP3 PUSH1 0x3 PUSH1 0x0 PUSH2 0x100 EXP DUP2 SLOAD DUP2 PUSH20 0xFFFFFFFFFFFFFFFFFFFFFFFFFFFFFFFFFFFFFFFF MUL NOT AND SWAP1 DUP4 PUSH20 0xFFFFFFFFFFFFFFFFFFFFFFFFFFFFFFFFFFFFFFFF AND MUL OR SWAP1 SSTORE POP DUP2 PUSH1 0x5 PUSH1 0x0 PUSH2 0x100 EXP DUP2 SLOAD DUP2 PUSH20 0xFFFFFFFFFFFFFFFFFFFFFFFFFFFFFFFFFFFFFFFF MUL NOT AND SWAP1 DUP4 PUSH20 0xFFFFFFFFFFFFFFFFFFFFFFFFFFFFFFFFFFFFFFFF AND MUL OR SWAP1 SSTORE POP DUP1 PUSH1 0x4 PUSH1 0x0 PUSH2 0x100 EXP DUP2 SLOAD DUP2 PUSH20 0xFFFFFFFFFFFFFFFFFFFFFFFFFFFFFFFFFFFFFFFF MUL NOT AND SWAP1 DUP4 PUSH20 0xFFFFFFFFFFFFFFFFFFFFFFFFFFFFFFFFFFFFFFFF AND MUL OR SWAP1 SSTORE POP POP POP POP PUSH3 0x2B1 JUMP JUMPDEST PUSH1 0x0 CALLER SWAP1 POP SWAP1 JUMP JUMPDEST PUSH1 0x0 PUSH1 0x6 PUSH1 0x0 SWAP1 SLOAD SWAP1 PUSH2 0x100 EXP SWAP1 DIV PUSH20 0xFFFFFFFFFFFFFFFFFFFFFFFFFFFFFFFFFFFFFFFF AND SWAP1 POP DUP2 PUSH1 0x6 PUSH1 0x0 PUSH2 0x100 EXP DUP2 SLOAD DUP2 PUSH20 0xFFFFFFFFFFFFFFFFFFFFFFFFFFFFFFFFFFFFFFFF MUL NOT AND SWAP1 DUP4 PUSH20 0xFFFFFFFFFFFFFFFFFFFFFFFFFFFFFFFFFFFFFFFF AND MUL OR SWAP1 SSTORE POP DUP2 PUSH20 0xFFFFFFFFFFFFFFFFFFFFFFFFFFFFFFFFFFFFFFFF AND DUP2 PUSH20 0xFFFFFFFFFFFFFFFFFFFFFFFFFFFFFFFFFFFFFFFF AND PUSH32 0x8BE0079C531659141344CD1FD0A4F28419497F9722A3DAAFE3B4186F6B6457E0 PUSH1 0x40 MLOAD PUSH1 0x40 MLOAD DUP1 SWAP2 SUB SWAP1 LOG3 POP POP JUMP JUMPDEST PUSH1 0x0 DUP1 REVERT JUMPDEST PUSH1 0x0 PUSH20 0xFFFFFFFFFFFFFFFFFFFFFFFFFFFFFFFFFFFFFFFF DUP3 AND SWAP1 POP SWAP2 SWAP1 POP JUMP JUMPDEST PUSH1 0x0 PUSH3 0x21D DUP3 PUSH3 0x1F0 JUMP JUMPDEST SWAP1 POP SWAP2 SWAP1 POP JUMP JUMPDEST PUSH3 0x22F DUP2 PUSH3 0x210 JUMP JUMPDEST DUP2 EQ PUSH3 0x23B JUMPI PUSH1 0x0 DUP1 REVERT JUMPDEST POP JUMP JUMPDEST PUSH1 0x0 DUP2 MLOAD SWAP1 POP PUSH3 0x24F DUP2 PUSH3 0x224 JUMP JUMPDEST SWAP3 SWAP2 POP POP JUMP JUMPDEST PUSH1 0x0 DUP1 PUSH1 0x0 PUSH1 0x60 DUP5 DUP7 SUB SLT ISZERO PUSH3 0x271 JUMPI PUSH3 0x270 PUSH3 0x1EB JUMP JUMPDEST JUMPDEST PUSH1 0x0 PUSH3 0x281 DUP7 DUP3 DUP8 ADD PUSH3 0x23E JUMP JUMPDEST SWAP4 POP POP PUSH1 0x20 PUSH3 0x294 DUP7 DUP3 DUP8 ADD PUSH3 0x23E JUMP JUMPDEST SWAP3 POP POP PUSH1 0x40 PUSH3 0x2A7 DUP7 DUP3 DUP8 ADD PUSH3 0x23E JUMP JUMPDEST SWAP2 POP POP SWAP3 POP SWAP3 POP SWAP3 JUMP JUMPDEST PUSH2 0x2E60 DUP1 PUSH3 0x2C1 PUSH1 0x0 CODECOPY PUSH1 0x0 RETURN INVALID PUSH1 0x80 PUSH1 0x40 MSTORE CALLVALUE DUP1 ISZERO PUSH2 0x10 JUMPI PUSH1 0x0 DUP1 REVERT JUMPDEST POP PUSH1 0x4 CALLDATASIZE LT PUSH2 0x142 JUMPI PUSH1 0x0 CALLDATALOAD PUSH1 0xE0 SHR DUP1 PUSH4 0x8C0FB1C3 GT PUSH2 0xB8 JUMPI DUP1 PUSH4 0xC45A0155 GT PUSH2 0x7C JUMPI DUP1 PUSH4 0xC45A0155 EQ PUSH2 0x31A JUMPI DUP1 PUSH4 0xC7BE7A49 EQ PUSH2 0x338 JUMPI DUP1 PUSH4 0xE78E717D EQ PUSH2 0x368 JUMPI DUP1 PUSH4 0xF2FDE38B EQ PUSH2 0x384 JUMPI DUP1 PUSH4 0xF55DE0C7 EQ PUSH2 0x3A0 JUMPI DUP1 PUSH4 0xFF68FA6E EQ PUSH2 0x3BE JUMPI PUSH2 0x142 JUMP JUMPDEST DUP1 PUSH4 0x8C0FB1C3 EQ PUSH2 0x271 JUMPI DUP1 PUSH4 0x8DA5CB5B EQ PUSH2 0x28D JUMPI DUP1 PUSH4 0xA1C11CA8 EQ PUSH2 0x2AB JUMPI DUP1 PUSH4 0xB7A60C7E EQ PUSH2 0x2C7 JUMPI DUP1 PUSH4 0xBFB231D2 EQ PUSH2 0x2E5 JUMPI PUSH2 0x142 JUMP JUMPDEST DUP1 PUSH4 0x361C1995 GT PUSH2 0x10A JUMPI DUP1 PUSH4 0x361C1995 EQ PUSH2 0x1D5 JUMPI DUP1 PUSH4 0x3FC15F15 EQ PUSH2 0x1F1 JUMPI DUP1 PUSH4 0x42199F88 EQ PUSH2 0x20F JUMPI DUP1 PUSH4 0x5BB47808 EQ PUSH2 0x22D JUMPI DUP1 PUSH4 0x715018A6 EQ PUSH2 0x249 JUMPI DUP1 PUSH4 0x85A8B36C EQ PUSH2 0x253 JUMPI PUSH2 0x142 JUMP JUMPDEST DUP1 PUSH4 0x10061631 EQ PUSH2 0x147 JUMPI DUP1 PUSH4 0x15B12494 EQ PUSH2 0x163 JUMPI DUP1 PUSH4 0x27CE464E EQ PUSH2 0x17F JUMPI DUP1 PUSH4 0x2B4C32BE EQ PUSH2 0x19B JUMPI DUP1 PUSH4 0x2D923561 EQ PUSH2 0x1B9 JUMPI JUMPDEST PUSH1 0x0 DUP1 REVERT JUMPDEST PUSH2 0x161 PUSH1 0x4 DUP1 CALLDATASIZE SUB DUP2 ADD SWAP1 PUSH2 0x15C SWAP2 SWAP1 PUSH2 0x1EA2 JUMP JUMPDEST PUSH2 0x3F3 JUMP JUMPDEST STOP JUMPDEST PUSH2 0x17D PUSH1 0x4 DUP1 CALLDATASIZE SUB DUP2 ADD SWAP1 PUSH2 0x178 SWAP2 SWAP1 PUSH2 0x1F2D JUMP JUMPDEST PUSH2 0x863 JUMP JUMPDEST STOP JUMPDEST PUSH2 0x199 PUSH1 0x4 DUP1 CALLDATASIZE SUB DUP2 ADD SWAP1 PUSH2 0x194 SWAP2 SWAP1 PUSH2 0x1F2D JUMP JUMPDEST PUSH2 0x923 JUMP JUMPDEST STOP JUMPDEST PUSH2 0x1A3 PUSH2 0x9E3 JUMP JUMPDEST PUSH1 0x40 MLOAD PUSH2 0x1B0 SWAP2 SWAP1 PUSH2 0x1F95 JUMP JUMPDEST PUSH1 0x40 MLOAD DUP1 SWAP2 SUB SWAP1 RETURN JUMPDEST PUSH2 0x1D3 PUSH1 0x4 DUP1 CALLDATASIZE SUB DUP2 ADD SWAP1 PUSH2 0x1CE SWAP2 SWAP1 PUSH2 0x1FB0 JUMP JUMPDEST PUSH2 0x9EE JUMP JUMPDEST STOP JUMPDEST PUSH2 0x1EF PUSH1 0x4 DUP1 CALLDATASIZE SUB DUP2 ADD SWAP1 PUSH2 0x1EA SWAP2 SWAP1 PUSH2 0x1FB0 JUMP JUMPDEST PUSH2 0xADB JUMP JUMPDEST STOP JUMPDEST PUSH2 0x1F9 PUSH2 0xEE8 JUMP JUMPDEST PUSH1 0x40 MLOAD PUSH2 0x206 SWAP2 SWAP1 PUSH2 0x204F JUMP JUMPDEST PUSH1 0x40 MLOAD DUP1 SWAP2 SUB SWAP1 RETURN JUMPDEST PUSH2 0x217 PUSH2 0xF0E JUMP JUMPDEST PUSH1 0x40 MLOAD PUSH2 0x224 SWAP2 SWAP1 PUSH2 0x2229 JUMP JUMPDEST PUSH1 0x40 MLOAD DUP1 SWAP2 SUB SWAP1 RETURN JUMPDEST PUSH2 0x247 PUSH1 0x4 DUP1 CALLDATASIZE SUB DUP2 ADD SWAP1 PUSH2 0x242 SWAP2 SWAP1 PUSH2 0x1F2D JUMP JUMPDEST PUSH2 0x11E0 JUMP JUMPDEST STOP JUMPDEST PUSH2 0x251 PUSH2 0x12A0 JUMP JUMPDEST STOP JUMPDEST PUSH2 0x25B PUSH2 0x1328 JUMP JUMPDEST PUSH1 0x40 MLOAD PUSH2 0x268 SWAP2 SWAP1 PUSH2 0x2267 JUMP JUMPDEST PUSH1 0x40 MLOAD DUP1 SWAP2 SUB SWAP1 RETURN JUMPDEST PUSH2 0x28B PUSH1 0x4 DUP1 CALLDATASIZE SUB DUP2 ADD SWAP1 PUSH2 0x286 SWAP2 SWAP1 PUSH2 0x2282 JUMP JUMPDEST PUSH2 0x133B JUMP JUMPDEST STOP JUMPDEST PUSH2 0x295 PUSH2 0x153B JUMP JUMPDEST PUSH1 0x40 MLOAD PUSH2 0x2A2 SWAP2 SWAP1 PUSH2 0x22E4 JUMP JUMPDEST PUSH1 0x40 MLOAD DUP1 SWAP2 SUB SWAP1 RETURN JUMPDEST PUSH2 0x2C5 PUSH1 0x4 DUP1 CALLDATASIZE SUB DUP2 ADD SWAP1 PUSH2 0x2C0 SWAP2 SWAP1 PUSH2 0x1FB0 JUMP JUMPDEST PUSH2 0x1565 JUMP JUMPDEST STOP JUMPDEST PUSH2 0x2CF PUSH2 0x1823 JUMP JUMPDEST PUSH1 0x40 MLOAD PUSH2 0x2DC SWAP2 SWAP1 PUSH2 0x2267 JUMP JUMPDEST PUSH1 0x40 MLOAD DUP1 SWAP2 SUB SWAP1 RETURN JUMPDEST PUSH2 0x2FF PUSH1 0x4 DUP1 CALLDATASIZE SUB DUP2 ADD SWAP1 PUSH2 0x2FA SWAP2 SWAP1 PUSH2 0x1EA2 JUMP JUMPDEST PUSH2 0x1836 JUMP JUMPDEST PUSH1 0x40 MLOAD PUSH2 0x311 SWAP7 SWAP6 SWAP5 SWAP4 SWAP3 SWAP2 SWAP1 PUSH2 0x231D JUMP JUMPDEST PUSH1 0x40 MLOAD DUP1 SWAP2 SUB SWAP1 RETURN JUMPDEST PUSH2 0x322 PUSH2 0x18CF JUMP JUMPDEST PUSH1 0x40 MLOAD PUSH2 0x32F SWAP2 SWAP1 PUSH2 0x239F JUMP JUMPDEST PUSH1 0x40 MLOAD DUP1 SWAP2 SUB SWAP1 RETURN JUMPDEST PUSH2 0x352 PUSH1 0x4 DUP1 CALLDATASIZE SUB DUP2 ADD SWAP1 PUSH2 0x34D SWAP2 SWAP1 PUSH2 0x1EA2 JUMP JUMPDEST PUSH2 0x18F5 JUMP JUMPDEST PUSH1 0x40 MLOAD PUSH2 0x35F SWAP2 SWAP1 PUSH2 0x2435 JUMP JUMPDEST PUSH1 0x40 MLOAD DUP1 SWAP2 SUB SWAP1 RETURN JUMPDEST PUSH2 0x382 PUSH1 0x4 DUP1 CALLDATASIZE SUB DUP2 ADD SWAP1 PUSH2 0x37D SWAP2 SWAP1 PUSH2 0x1EA2 JUMP JUMPDEST PUSH2 0x1A27 JUMP JUMPDEST STOP JUMPDEST PUSH2 0x39E PUSH1 0x4 DUP1 CALLDATASIZE SUB DUP2 ADD SWAP1 PUSH2 0x399 SWAP2 SWAP1 PUSH2 0x1F2D JUMP JUMPDEST PUSH2 0x1B4C JUMP JUMPDEST STOP JUMPDEST PUSH2 0x3A8 PUSH2 0x1C43 JUMP JUMPDEST PUSH1 0x40 MLOAD PUSH2 0x3B5 SWAP2 SWAP1 PUSH2 0x2471 JUMP JUMPDEST PUSH1 0x40 MLOAD DUP1 SWAP2 SUB SWAP1 RETURN JUMPDEST PUSH2 0x3D8 PUSH1 0x4 DUP1 CALLDATASIZE SUB DUP2 ADD SWAP1 PUSH2 0x3D3 SWAP2 SWAP1 PUSH2 0x1EA2 JUMP JUMPDEST PUSH2 0x1C69 JUMP JUMPDEST PUSH1 0x40 MLOAD PUSH2 0x3EA SWAP7 SWAP6 SWAP5 SWAP4 SWAP3 SWAP2 SWAP1 PUSH2 0x231D JUMP JUMPDEST PUSH1 0x40 MLOAD DUP1 SWAP2 SUB SWAP1 RETURN JUMPDEST PUSH1 0x0 CALLER SWAP1 POP PUSH1 0x0 PUSH1 0x9 PUSH1 0x0 DUP5 DUP2 MSTORE PUSH1 0x20 ADD SWAP1 DUP2 MSTORE PUSH1 0x20 ADD PUSH1 0x0 KECCAK256 PUSH1 0x40 MLOAD DUP1 PUSH1 0xC0 ADD PUSH1 0x40 MSTORE SWAP1 DUP2 PUSH1 0x0 DUP3 ADD SLOAD DUP2 MSTORE PUSH1 0x20 ADD PUSH1 0x1 DUP3 ADD SLOAD DUP2 MSTORE PUSH1 0x20 ADD PUSH1 0x2 DUP3 ADD PUSH1 0x0 SWAP1 SLOAD SWAP1 PUSH2 0x100 EXP SWAP1 DIV PUSH20 0xFFFFFFFFFFFFFFFFFFFFFFFFFFFFFFFFFFFFFFFF AND PUSH20 0xFFFFFFFFFFFFFFFFFFFFFFFFFFFFFFFFFFFFFFFF AND PUSH20 0xFFFFFFFFFFFFFFFFFFFFFFFFFFFFFFFFFFFFFFFF AND DUP2 MSTORE PUSH1 0x20 ADD PUSH1 0x3 DUP3 ADD PUSH1 0x0 SWAP1 SLOAD SWAP1 PUSH2 0x100 EXP SWAP1 DIV PUSH20 0xFFFFFFFFFFFFFFFFFFFFFFFFFFFFFFFFFFFFFFFF AND PUSH20 0xFFFFFFFFFFFFFFFFFFFFFFFFFFFFFFFFFFFFFFFF AND PUSH20 0xFFFFFFFFFFFFFFFFFFFFFFFFFFFFFFFFFFFFFFFF AND DUP2 MSTORE PUSH1 0x20 ADD PUSH1 0x4 DUP3 ADD SLOAD DUP2 MSTORE PUSH1 0x20 ADD PUSH1 0x5 DUP3 ADD PUSH1 0x0 SWAP1 SLOAD SWAP1 PUSH2 0x100 EXP SWAP1 DIV PUSH1 0xFF AND PUSH1 0x1 DUP2 GT ISZERO PUSH2 0x507 JUMPI PUSH2 0x506 PUSH2 0x20B4 JUMP JUMPDEST JUMPDEST PUSH1 0x1 DUP2 GT ISZERO PUSH2 0x519 JUMPI PUSH2 0x518 PUSH2 0x20B4 JUMP JUMPDEST JUMPDEST DUP2 MSTORE POP POP SWAP1 POP PUSH1 0x0 DUP2 PUSH1 0x0 ADD MLOAD SUB PUSH2 0x566 JUMPI PUSH1 0x40 MLOAD PUSH32 0x8C379A000000000000000000000000000000000000000000000000000000000 DUP2 MSTORE PUSH1 0x4 ADD PUSH2 0x55D SWAP1 PUSH2 0x24E9 JUMP JUMPDEST PUSH1 0x40 MLOAD DUP1 SWAP2 SUB SWAP1 REVERT JUMPDEST PUSH1 0x1 DUP1 DUP2 GT ISZERO PUSH2 0x579 JUMPI PUSH2 0x578 PUSH2 0x20B4 JUMP JUMPDEST JUMPDEST DUP2 PUSH1 0xA0 ADD MLOAD PUSH1 0x1 DUP2 GT ISZERO PUSH2 0x590 JUMPI PUSH2 0x58F PUSH2 0x20B4 JUMP JUMPDEST JUMPDEST EQ PUSH2 0x5D0 JUMPI PUSH1 0x40 MLOAD PUSH32 0x8C379A000000000000000000000000000000000000000000000000000000000 DUP2 MSTORE PUSH1 0x4 ADD PUSH2 0x5C7 SWAP1 PUSH2 0x2555 JUMP JUMPDEST PUSH1 0x40 MLOAD DUP1 SWAP2 SUB SWAP1 REVERT JUMPDEST PUSH1 0x0 DUP2 PUSH1 0x40 ADD MLOAD SWAP1 POP PUSH1 0x0 PUSH20 0xFFFFFFFFFFFFFFFFFFFFFFFFFFFFFFFFFFFFFFFF AND DUP2 PUSH20 0xFFFFFFFFFFFFFFFFFFFFFFFFFFFFFFFFFFFFFFFF AND SUB PUSH2 0x648 JUMPI PUSH1 0x40 MLOAD PUSH32 0x8C379A000000000000000000000000000000000000000000000000000000000 DUP2 MSTORE PUSH1 0x4 ADD PUSH2 0x63F SWAP1 PUSH2 0x25C1 JUMP JUMPDEST PUSH1 0x40 MLOAD DUP1 SWAP2 SUB SWAP1 REVERT JUMPDEST CALLER PUSH20 0xFFFFFFFFFFFFFFFFFFFFFFFFFFFFFFFFFFFFFFFF AND DUP2 PUSH20 0xFFFFFFFFFFFFFFFFFFFFFFFFFFFFFFFFFFFFFFFF AND EQ PUSH2 0x6B6 JUMPI PUSH1 0x40 MLOAD PUSH32 0x8C379A000000000000000000000000000000000000000000000000000000000 DUP2 MSTORE PUSH1 0x4 ADD PUSH2 0x6AD SWAP1 PUSH2 0x262D JUMP JUMPDEST PUSH1 0x40 MLOAD DUP1 SWAP2 SUB SWAP1 REVERT JUMPDEST PUSH1 0x5 PUSH1 0x0 SWAP1 SLOAD SWAP1 PUSH2 0x100 EXP SWAP1 DIV PUSH20 0xFFFFFFFFFFFFFFFFFFFFFFFFFFFFFFFFFFFFFFFF AND PUSH20 0xFFFFFFFFFFFFFFFFFFFFFFFFFFFFFFFFFFFFFFFF AND PUSH4 0x42842E0E ADDRESS DUP4 DUP8 PUSH1 0x40 MLOAD DUP5 PUSH4 0xFFFFFFFF AND PUSH1 0xE0 SHL DUP2 MSTORE PUSH1 0x4 ADD PUSH2 0x715 SWAP4 SWAP3 SWAP2 SWAP1 PUSH2 0x264D JUMP JUMPDEST PUSH1 0x0 PUSH1 0x40 MLOAD DUP1 DUP4 SUB DUP2 PUSH1 0x0 DUP8 DUP1 EXTCODESIZE ISZERO DUP1 ISZERO PUSH2 0x72F JUMPI PUSH1 0x0 DUP1 REVERT JUMPDEST POP GAS CALL ISZERO DUP1 ISZERO PUSH2 0x743 JUMPI RETURNDATASIZE PUSH1 0x0 DUP1 RETURNDATACOPY RETURNDATASIZE PUSH1 0x0 REVERT JUMPDEST POP POP POP POP PUSH1 0x0 DUP3 PUSH1 0xA0 ADD SWAP1 PUSH1 0x1 DUP2 GT ISZERO PUSH2 0x760 JUMPI PUSH2 0x75F PUSH2 0x20B4 JUMP JUMPDEST JUMPDEST SWAP1 DUP2 PUSH1 0x1 DUP2 GT ISZERO PUSH2 0x774 JUMPI PUSH2 0x773 PUSH2 0x20B4 JUMP JUMPDEST JUMPDEST DUP2 MSTORE POP POP PUSH1 0x9 PUSH1 0x0 DUP6 DUP2 MSTORE PUSH1 0x20 ADD SWAP1 DUP2 MSTORE PUSH1 0x20 ADD PUSH1 0x0 KECCAK256 PUSH1 0x0 DUP1 DUP3 ADD PUSH1 0x0 SWAP1 SSTORE PUSH1 0x1 DUP3 ADD PUSH1 0x0 SWAP1 SSTORE PUSH1 0x2 DUP3 ADD PUSH1 0x0 PUSH2 0x100 EXP DUP2 SLOAD SWAP1 PUSH20 0xFFFFFFFFFFFFFFFFFFFFFFFFFFFFFFFFFFFFFFFF MUL NOT AND SWAP1 SSTORE PUSH1 0x3 DUP3 ADD PUSH1 0x0 PUSH2 0x100 EXP DUP2 SLOAD SWAP1 PUSH20 0xFFFFFFFFFFFFFFFFFFFFFFFFFFFFFFFFFFFFFFFF MUL NOT AND SWAP1 SSTORE PUSH1 0x4 DUP3 ADD PUSH1 0x0 SWAP1 SSTORE PUSH1 0x5 DUP3 ADD PUSH1 0x0 PUSH2 0x100 EXP DUP2 SLOAD SWAP1 PUSH1 0xFF MUL NOT AND SWAP1 SSTORE POP POP DUP3 PUSH20 0xFFFFFFFFFFFFFFFFFFFFFFFFFFFFFFFFFFFFFFFF AND DUP5 PUSH32 0x72FFC2A266ACBA5F77E2B49400103CB61B428F37A97057EBE671E83FDDD71E67 DUP5 PUSH1 0x0 ADD MLOAD TIMESTAMP PUSH1 0x40 MLOAD PUSH2 0x855 SWAP3 SWAP2 SWAP1 PUSH2 0x2684 JUMP JUMPDEST PUSH1 0x40 MLOAD DUP1 SWAP2 SUB SWAP1 LOG3 POP POP POP POP JUMP JUMPDEST PUSH2 0x86B PUSH2 0x1CF2 JUMP JUMPDEST PUSH20 0xFFFFFFFFFFFFFFFFFFFFFFFFFFFFFFFFFFFFFFFF AND PUSH2 0x889 PUSH2 0x153B JUMP JUMPDEST PUSH20 0xFFFFFFFFFFFFFFFFFFFFFFFFFFFFFFFFFFFFFFFF AND EQ PUSH2 0x8DF JUMPI PUSH1 0x40 MLOAD PUSH32 0x8C379A000000000000000000000000000000000000000000000000000000000 DUP2 MSTORE PUSH1 0x4 ADD PUSH2 0x8D6 SWAP1 PUSH2 0x26F9 JUMP JUMPDEST PUSH1 0x40 MLOAD DUP1 SWAP2 SUB SWAP1 REVERT JUMPDEST DUP1 PUSH1 0x5 PUSH1 0x0 PUSH2 0x100 EXP DUP2 SLOAD DUP2 PUSH20 0xFFFFFFFFFFFFFFFFFFFFFFFFFFFFFFFFFFFFFFFF MUL NOT AND SWAP1 DUP4 PUSH20 0xFFFFFFFFFFFFFFFFFFFFFFFFFFFFFFFFFFFFFFFF AND MUL OR SWAP1 SSTORE POP POP JUMP JUMPDEST PUSH2 0x92B PUSH2 0x1CF2 JUMP JUMPDEST PUSH20 0xFFFFFFFFFFFFFFFFFFFFFFFFFFFFFFFFFFFFFFFF AND PUSH2 0x949 PUSH2 0x153B JUMP JUMPDEST PUSH20 0xFFFFFFFFFFFFFFFFFFFFFFFFFFFFFFFFFFFFFFFF AND EQ PUSH2 0x99F JUMPI PUSH1 0x40 MLOAD PUSH32 0x8C379A000000000000000000000000000000000000000000000000000000000 DUP2 MSTORE PUSH1 0x4 ADD PUSH2 0x996 SWAP1 PUSH2 0x26F9 JUMP JUMPDEST PUSH1 0x40 MLOAD DUP1 SWAP2 SUB SWAP1 REVERT JUMPDEST DUP1 PUSH1 0x3 PUSH1 0x0 PUSH2 0x100 EXP DUP2 SLOAD DUP2 PUSH20 0xFFFFFFFFFFFFFFFFFFFFFFFFFFFFFFFFFFFFFFFF MUL NOT AND SWAP1 DUP4 PUSH20 0xFFFFFFFFFFFFFFFFFFFFFFFFFFFFFFFFFFFFFFFF AND MUL OR SWAP1 SSTORE POP POP JUMP JUMPDEST PUSH4 0x80AC58CD PUSH1 0xE0 SHL DUP2 JUMP JUMPDEST PUSH1 0x0 DUP2 GT PUSH2 0xA31 JUMPI PUSH1 0x40 MLOAD PUSH32 0x8C379A000000000000000000000000000000000000000000000000000000000 DUP2 MSTORE PUSH1 0x4 ADD PUSH2 0xA28 SWAP1 PUSH2 0x2765 JUMP JUMPDEST PUSH1 0x40 MLOAD DUP1 SWAP2 SUB SWAP1 REVERT JUMPDEST PUSH1 0x0 PUSH1 0x4 PUSH1 0x0 SWAP1 SLOAD SWAP1 PUSH2 0x100 EXP SWAP1 DIV PUSH20 0xFFFFFFFFFFFFFFFFFFFFFFFFFFFFFFFFFFFFFFFF AND PUSH20 0xFFFFFFFFFFFFFFFFFFFFFFFFFFFFFFFFFFFFFFFF AND PUSH4 0x3CE1CB5 DUP5 PUSH1 0x40 MLOAD DUP3 PUSH4 0xFFFFFFFF AND PUSH1 0xE0 SHL DUP2 MSTORE PUSH1 0x4 ADD PUSH2 0xA8E SWAP2 SWAP1 PUSH2 0x2785 JUMP JUMPDEST PUSH1 0x0 PUSH1 0x40 MLOAD DUP1 DUP4 SUB DUP2 DUP7 GAS STATICCALL ISZERO DUP1 ISZERO PUSH2 0xAAB JUMPI RETURNDATASIZE PUSH1 0x0 DUP1 RETURNDATACOPY RETURNDATASIZE PUSH1 0x0 REVERT JUMPDEST POP POP POP POP PUSH1 0x40 MLOAD RETURNDATASIZE PUSH1 0x0 DUP3 RETURNDATACOPY RETURNDATASIZE PUSH1 0x1F NOT PUSH1 0x1F DUP3 ADD AND DUP3 ADD DUP1 PUSH1 0x40 MSTORE POP DUP2 ADD SWAP1 PUSH2 0xAD4 SWAP2 SWAP1 PUSH2 0x2A3A JUMP JUMPDEST SWAP1 POP POP POP POP JUMP JUMPDEST PUSH1 0x0 DUP2 GT PUSH2 0xB1E JUMPI PUSH1 0x40 MLOAD PUSH32 0x8C379A000000000000000000000000000000000000000000000000000000000 DUP2 MSTORE PUSH1 0x4 ADD PUSH2 0xB15 SWAP1 PUSH2 0x2765 JUMP JUMPDEST PUSH1 0x40 MLOAD DUP1 SWAP2 SUB SWAP1 REVERT JUMPDEST PUSH1 0x0 PUSH1 0x4 PUSH1 0x0 SWAP1 SLOAD SWAP1 PUSH2 0x100 EXP SWAP1 DIV PUSH20 0xFFFFFFFFFFFFFFFFFFFFFFFFFFFFFFFFFFFFFFFF AND PUSH20 0xFFFFFFFFFFFFFFFFFFFFFFFFFFFFFFFFFFFFFFFF AND PUSH4 0x3CE1CB5 DUP5 PUSH1 0x40 MLOAD DUP3 PUSH4 0xFFFFFFFF AND PUSH1 0xE0 SHL DUP2 MSTORE PUSH1 0x4 ADD PUSH2 0xB7B SWAP2 SWAP1 PUSH2 0x2785 JUMP JUMPDEST PUSH1 0x0 PUSH1 0x40 MLOAD DUP1 DUP4 SUB DUP2 DUP7 GAS STATICCALL ISZERO DUP1 ISZERO PUSH2 0xB98 JUMPI RETURNDATASIZE PUSH1 0x0 DUP1 RETURNDATACOPY RETURNDATASIZE PUSH1 0x0 REVERT JUMPDEST POP POP POP POP PUSH1 0x40 MLOAD RETURNDATASIZE PUSH1 0x0 DUP3 RETURNDATACOPY RETURNDATASIZE PUSH1 0x1F NOT PUSH1 0x1F DUP3 ADD AND DUP3 ADD DUP1 PUSH1 0x40 MSTORE POP DUP2 ADD SWAP1 PUSH2 0xBC1 SWAP2 SWAP1 PUSH2 0x2A3A JUMP JUMPDEST SWAP1 POP PUSH1 0x0 ISZERO ISZERO DUP2 PUSH1 0x80 ADD MLOAD ISZERO ISZERO EQ PUSH2 0xC0E JUMPI PUSH1 0x40 MLOAD PUSH32 0x8C379A000000000000000000000000000000000000000000000000000000000 DUP2 MSTORE PUSH1 0x4 ADD PUSH2 0xC05 SWAP1 PUSH2 0x2ACF JUMP JUMPDEST PUSH1 0x40 MLOAD DUP1 SWAP2 SUB SWAP1 REVERT JUMPDEST PUSH1 0x0 PUSH2 0xC1A PUSH1 0x7 PUSH2 0x1CFA JUMP JUMPDEST SWAP1 POP PUSH1 0x4 PUSH1 0x0 SWAP1 SLOAD SWAP1 PUSH2 0x100 EXP SWAP1 DIV PUSH20 0xFFFFFFFFFFFFFFFFFFFFFFFFFFFFFFFFFFFFFFFF AND PUSH20 0xFFFFFFFFFFFFFFFFFFFFFFFFFFFFFFFFFFFFFFFF AND PUSH4 0xC1E9518A CALLER ADDRESS DUP8 PUSH1 0x40 MLOAD DUP5 PUSH4 0xFFFFFFFF AND PUSH1 0xE0 SHL DUP2 MSTORE PUSH1 0x4 ADD PUSH2 0xC7B SWAP4 SWAP3 SWAP2 SWAP1 PUSH2 0x2B10 JUMP JUMPDEST PUSH1 0x0 PUSH1 0x40 MLOAD DUP1 DUP4 SUB DUP2 PUSH1 0x0 DUP8 DUP1 EXTCODESIZE ISZERO DUP1 ISZERO PUSH2 0xC95 JUMPI PUSH1 0x0 DUP1 REVERT JUMPDEST POP GAS CALL ISZERO DUP1 ISZERO PUSH2 0xCA9 JUMPI RETURNDATASIZE PUSH1 0x0 DUP1 RETURNDATACOPY RETURNDATASIZE PUSH1 0x0 REVERT JUMPDEST POP POP POP POP PUSH1 0x5 PUSH1 0x0 SWAP1 SLOAD SWAP1 PUSH2 0x100 EXP SWAP1 DIV PUSH20 0xFFFFFFFFFFFFFFFFFFFFFFFFFFFFFFFFFFFFFFFF AND PUSH20 0xFFFFFFFFFFFFFFFFFFFFFFFFFFFFFFFFFFFFFFFF AND PUSH4 0x23B872DD CALLER ADDRESS DUP8 PUSH1 0x40 MLOAD DUP5 PUSH4 0xFFFFFFFF AND PUSH1 0xE0 SHL DUP2 MSTORE PUSH1 0x4 ADD PUSH2 0xD0C SWAP4 SWAP3 SWAP2 SWAP1 PUSH2 0x264D JUMP JUMPDEST PUSH1 0x0 PUSH1 0x40 MLOAD DUP1 DUP4 SUB DUP2 PUSH1 0x0 DUP8 DUP1 EXTCODESIZE ISZERO DUP1 ISZERO PUSH2 0xD26 JUMPI PUSH1 0x0 DUP1 REVERT JUMPDEST POP GAS CALL ISZERO DUP1 ISZERO PUSH2 0xD3A JUMPI RETURNDATASIZE PUSH1 0x0 DUP1 RETURNDATACOPY RETURNDATASIZE PUSH1 0x0 REVERT JUMPDEST POP POP POP POP PUSH1 0x40 MLOAD DUP1 PUSH1 0xC0 ADD PUSH1 0x40 MSTORE DUP1 DUP3 DUP2 MSTORE PUSH1 0x20 ADD DUP6 DUP2 MSTORE PUSH1 0x20 ADD CALLER PUSH20 0xFFFFFFFFFFFFFFFFFFFFFFFFFFFFFFFFFFFFFFFF AND DUP2 MSTORE PUSH1 0x20 ADD ADDRESS PUSH20 0xFFFFFFFFFFFFFFFFFFFFFFFFFFFFFFFFFFFFFFFF AND DUP2 MSTORE PUSH1 0x20 ADD DUP5 DUP2 MSTORE PUSH1 0x20 ADD PUSH1 0x1 DUP1 DUP2 GT ISZERO PUSH2 0xDA6 JUMPI PUSH2 0xDA5 PUSH2 0x20B4 JUMP JUMPDEST JUMPDEST DUP2 MSTORE POP PUSH1 0x9 PUSH1 0x0 DUP4 DUP2 MSTORE PUSH1 0x20 ADD SWAP1 DUP2 MSTORE PUSH1 0x20 ADD PUSH1 0x0 KECCAK256 PUSH1 0x0 DUP3 ADD MLOAD DUP2 PUSH1 0x0 ADD SSTORE PUSH1 0x20 DUP3 ADD MLOAD DUP2 PUSH1 0x1 ADD SSTORE PUSH1 0x40 DUP3 ADD MLOAD DUP2 PUSH1 0x2 ADD PUSH1 0x0 PUSH2 0x100 EXP DUP2 SLOAD DUP2 PUSH20 0xFFFFFFFFFFFFFFFFFFFFFFFFFFFFFFFFFFFFFFFF MUL NOT AND SWAP1 DUP4 PUSH20 0xFFFFFFFFFFFFFFFFFFFFFFFFFFFFFFFFFFFFFFFF AND MUL OR SWAP1 SSTORE POP PUSH1 0x60 DUP3 ADD MLOAD DUP2 PUSH1 0x3 ADD PUSH1 0x0 PUSH2 0x100 EXP DUP2 SLOAD DUP2 PUSH20 0xFFFFFFFFFFFFFFFFFFFFFFFFFFFFFFFFFFFFFFFF MUL NOT AND SWAP1 DUP4 PUSH20 0xFFFFFFFFFFFFFFFFFFFFFFFFFFFFFFFFFFFFFFFF AND MUL OR SWAP1 SSTORE POP PUSH1 0x80 DUP3 ADD MLOAD DUP2 PUSH1 0x4 ADD SSTORE PUSH1 0xA0 DUP3 ADD MLOAD DUP2 PUSH1 0x5 ADD PUSH1 0x0 PUSH2 0x100 EXP DUP2 SLOAD DUP2 PUSH1 0xFF MUL NOT AND SWAP1 DUP4 PUSH1 0x1 DUP2 GT ISZERO PUSH2 0xE93 JUMPI PUSH2 0xE92 PUSH2 0x20B4 JUMP JUMPDEST JUMPDEST MUL OR SWAP1 SSTORE POP SWAP1 POP POP PUSH2 0xEA5 PUSH1 0x7 PUSH2 0x1D08 JUMP JUMPDEST DUP4 DUP2 PUSH32 0x38690A554FFBC44EB6A75016E47D517D0DB8E6C37494ADC68D6D0B2C66F0AB21 CALLER ADDRESS DUP8 PUSH1 0x40 MLOAD PUSH2 0xEDA SWAP4 SWAP3 SWAP2 SWAP1 PUSH2 0x264D JUMP JUMPDEST PUSH1 0x40 MLOAD DUP1 SWAP2 SUB SWAP1 LOG3 POP POP POP POP JUMP JUMPDEST PUSH1 0x3 PUSH1 0x0 SWAP1 SLOAD SWAP1 PUSH2 0x100 EXP SWAP1 DIV PUSH20 0xFFFFFFFFFFFFFFFFFFFFFFFFFFFFFFFFFFFFFFFF AND DUP2 JUMP JUMPDEST PUSH1 0x60 PUSH1 0x0 PUSH2 0xF1C PUSH1 0x7 PUSH2 0x1CFA JUMP JUMPDEST SWAP1 POP PUSH1 0x0 DUP1 PUSH1 0x0 JUMPDEST DUP4 DUP2 LT ISZERO PUSH2 0xF9D JUMPI PUSH1 0x1 DUP1 DUP2 GT ISZERO PUSH2 0xF3F JUMPI PUSH2 0xF3E PUSH2 0x20B4 JUMP JUMPDEST JUMPDEST PUSH1 0x9 PUSH1 0x0 DUP4 DUP2 MSTORE PUSH1 0x20 ADD SWAP1 DUP2 MSTORE PUSH1 0x20 ADD PUSH1 0x0 KECCAK256 PUSH1 0x5 ADD PUSH1 0x0 SWAP1 SLOAD SWAP1 PUSH2 0x100 EXP SWAP1 DIV PUSH1 0xFF AND PUSH1 0x1 DUP2 GT ISZERO PUSH2 0xF75 JUMPI PUSH2 0xF74 PUSH2 0x20B4 JUMP JUMPDEST JUMPDEST SUB PUSH2 0xF8A JUMPI PUSH1 0x1 DUP4 PUSH2 0xF87 SWAP2 SWAP1 PUSH2 0x2B76 JUMP JUMPDEST SWAP3 POP JUMPDEST DUP1 DUP1 PUSH2 0xF95 SWAP1 PUSH2 0x2BCC JUMP JUMPDEST SWAP2 POP POP PUSH2 0xF24 JUMP JUMPDEST POP PUSH1 0x0 DUP3 PUSH8 0xFFFFFFFFFFFFFFFF DUP2 GT ISZERO PUSH2 0xFBA JUMPI PUSH2 0xFB9 PUSH2 0x27B6 JUMP JUMPDEST JUMPDEST PUSH1 0x40 MLOAD SWAP1 DUP1 DUP3 MSTORE DUP1 PUSH1 0x20 MUL PUSH1 0x20 ADD DUP3 ADD PUSH1 0x40 MSTORE DUP1 ISZERO PUSH2 0xFF3 JUMPI DUP2 PUSH1 0x20 ADD JUMPDEST PUSH2 0xFE0 PUSH2 0x1DE4 JUMP JUMPDEST DUP2 MSTORE PUSH1 0x20 ADD SWAP1 PUSH1 0x1 SWAP1 SUB SWAP1 DUP2 PUSH2 0xFD8 JUMPI SWAP1 POP JUMPDEST POP SWAP1 POP PUSH1 0x0 JUMPDEST DUP5 DUP2 LT ISZERO PUSH2 0x11D5 JUMPI PUSH1 0x1 DUP1 DUP2 GT ISZERO PUSH2 0x1014 JUMPI PUSH2 0x1013 PUSH2 0x20B4 JUMP JUMPDEST JUMPDEST PUSH1 0x9 PUSH1 0x0 DUP4 DUP2 MSTORE PUSH1 0x20 ADD SWAP1 DUP2 MSTORE PUSH1 0x20 ADD PUSH1 0x0 KECCAK256 PUSH1 0x5 ADD PUSH1 0x0 SWAP1 SLOAD SWAP1 PUSH2 0x100 EXP SWAP1 DIV PUSH1 0xFF AND PUSH1 0x1 DUP2 GT ISZERO PUSH2 0x104A JUMPI PUSH2 0x1049 PUSH2 0x20B4 JUMP JUMPDEST JUMPDEST SUB PUSH2 0x11C2 JUMPI PUSH1 0x0 PUSH1 0x9 PUSH1 0x0 DUP4 DUP2 MSTORE PUSH1 0x20 ADD SWAP1 DUP2 MSTORE PUSH1 0x20 ADD PUSH1 0x0 KECCAK256 PUSH1 0x0 ADD SLOAD SWAP1 POP PUSH1 0x0 PUSH1 0x9 PUSH1 0x0 DUP4 DUP2 MSTORE PUSH1 0x20 ADD SWAP1 DUP2 MSTORE PUSH1 0x20 ADD PUSH1 0x0 KECCAK256 SWAP1 POP DUP1 PUSH1 0x40 MLOAD DUP1 PUSH1 0xC0 ADD PUSH1 0x40 MSTORE SWAP1 DUP2 PUSH1 0x0 DUP3 ADD SLOAD DUP2 MSTORE PUSH1 0x20 ADD PUSH1 0x1 DUP3 ADD SLOAD DUP2 MSTORE PUSH1 0x20 ADD PUSH1 0x2 DUP3 ADD PUSH1 0x0 SWAP1 SLOAD SWAP1 PUSH2 0x100 EXP SWAP1 DIV PUSH20 0xFFFFFFFFFFFFFFFFFFFFFFFFFFFFFFFFFFFFFFFF AND PUSH20 0xFFFFFFFFFFFFFFFFFFFFFFFFFFFFFFFFFFFFFFFF AND PUSH20 0xFFFFFFFFFFFFFFFFFFFFFFFFFFFFFFFFFFFFFFFF AND DUP2 MSTORE PUSH1 0x20 ADD PUSH1 0x3 DUP3 ADD PUSH1 0x0 SWAP1 SLOAD SWAP1 PUSH2 0x100 EXP SWAP1 DIV PUSH20 0xFFFFFFFFFFFFFFFFFFFFFFFFFFFFFFFFFFFFFFFF AND PUSH20 0xFFFFFFFFFFFFFFFFFFFFFFFFFFFFFFFFFFFFFFFF AND PUSH20 0xFFFFFFFFFFFFFFFFFFFFFFFFFFFFFFFFFFFFFFFF AND DUP2 MSTORE PUSH1 0x20 ADD PUSH1 0x4 DUP3 ADD SLOAD DUP2 MSTORE PUSH1 0x20 ADD PUSH1 0x5 DUP3 ADD PUSH1 0x0 SWAP1 SLOAD SWAP1 PUSH2 0x100 EXP SWAP1 DIV PUSH1 0xFF AND PUSH1 0x1 DUP2 GT ISZERO PUSH2 0x117C JUMPI PUSH2 0x117B PUSH2 0x20B4 JUMP JUMPDEST JUMPDEST PUSH1 0x1 DUP2 GT ISZERO PUSH2 0x118E JUMPI PUSH2 0x118D PUSH2 0x20B4 JUMP JUMPDEST JUMPDEST DUP2 MSTORE POP POP DUP5 DUP7 DUP2 MLOAD DUP2 LT PUSH2 0x11A5 JUMPI PUSH2 0x11A4 PUSH2 0x2C14 JUMP JUMPDEST JUMPDEST PUSH1 0x20 MUL PUSH1 0x20 ADD ADD DUP2 SWAP1 MSTORE POP PUSH1 0x1 DUP6 PUSH2 0x11BD SWAP2 SWAP1 PUSH2 0x2B76 JUMP JUMPDEST SWAP5 POP POP POP JUMPDEST DUP1 DUP1 PUSH2 0x11CD SWAP1 PUSH2 0x2BCC JUMP JUMPDEST SWAP2 POP POP PUSH2 0xFF9 JUMP JUMPDEST POP DUP1 SWAP5 POP POP POP POP POP SWAP1 JUMP JUMPDEST PUSH2 0x11E8 PUSH2 0x1CF2 JUMP JUMPDEST PUSH20 0xFFFFFFFFFFFFFFFFFFFFFFFFFFFFFFFFFFFFFFFF AND PUSH2 0x1206 PUSH2 0x153B JUMP JUMPDEST PUSH20 0xFFFFFFFFFFFFFFFFFFFFFFFFFFFFFFFFFFFFFFFF AND EQ PUSH2 0x125C JUMPI PUSH1 0x40 MLOAD PUSH32 0x8C379A000000000000000000000000000000000000000000000000000000000 DUP2 MSTORE PUSH1 0x4 ADD PUSH2 0x1253 SWAP1 PUSH2 0x26F9 JUMP JUMPDEST PUSH1 0x40 MLOAD DUP1 SWAP2 SUB SWAP1 REVERT JUMPDEST DUP1 PUSH1 0x4 PUSH1 0x0 PUSH2 0x100 EXP DUP2 SLOAD DUP2 PUSH20 0xFFFFFFFFFFFFFFFFFFFFFFFFFFFFFFFFFFFFFFFF MUL NOT AND SWAP1 DUP4 PUSH20 0xFFFFFFFFFFFFFFFFFFFFFFFFFFFFFFFFFFFFFFFF AND MUL OR SWAP1 SSTORE POP POP JUMP JUMPDEST PUSH2 0x12A8 PUSH2 0x1CF2 JUMP JUMPDEST PUSH20 0xFFFFFFFFFFFFFFFFFFFFFFFFFFFFFFFFFFFFFFFF AND PUSH2 0x12C6 PUSH2 0x153B JUMP JUMPDEST PUSH20 0xFFFFFFFFFFFFFFFFFFFFFFFFFFFFFFFFFFFFFFFF AND EQ PUSH2 0x131C JUMPI PUSH1 0x40 MLOAD PUSH32 0x8C379A000000000000000000000000000000000000000000000000000000000 DUP2 MSTORE PUSH1 0x4 ADD PUSH2 0x1313 SWAP1 PUSH2 0x26F9 JUMP JUMPDEST PUSH1 0x40 MLOAD DUP1 SWAP2 SUB SWAP1 REVERT JUMPDEST PUSH2 0x1326 PUSH1 0x0 PUSH2 0x1D1E JUMP JUMPDEST JUMP JUMPDEST PUSH1 0x5 PUSH1 0x14 SWAP1 SLOAD SWAP1 PUSH2 0x100 EXP SWAP1 DIV PUSH1 0xFF AND DUP2 JUMP JUMPDEST PUSH1 0x3 PUSH1 0x0 SWAP1 SLOAD SWAP1 PUSH2 0x100 EXP SWAP1 DIV PUSH20 0xFFFFFFFFFFFFFFFFFFFFFFFFFFFFFFFFFFFFFFFF AND PUSH20 0xFFFFFFFFFFFFFFFFFFFFFFFFFFFFFFFFFFFFFFFF AND PUSH4 0x23B872DD CALLER PUSH1 0x9 PUSH1 0x0 DUP8 DUP2 MSTORE PUSH1 0x20 ADD SWAP1 DUP2 MSTORE PUSH1 0x20 ADD PUSH1 0x0 KECCAK256 PUSH1 0x2 ADD PUSH1 0x0 SWAP1 SLOAD SWAP1 PUSH2 0x100 EXP SWAP1 DIV PUSH20 0xFFFFFFFFFFFFFFFFFFFFFFFFFFFFFFFFFFFFFFFF AND DUP6 PUSH1 0x40 MLOAD DUP5 PUSH4 0xFFFFFFFF AND PUSH1 0xE0 SHL DUP2 MSTORE PUSH1 0x4 ADD PUSH2 0x13D0 SWAP4 SWAP3 SWAP2 SWAP1 PUSH2 0x264D JUMP JUMPDEST PUSH1 0x20 PUSH1 0x40 MLOAD DUP1 DUP4 SUB DUP2 PUSH1 0x0 DUP8 GAS CALL ISZERO DUP1 ISZERO PUSH2 0x13EF JUMPI RETURNDATASIZE PUSH1 0x0 DUP1 RETURNDATACOPY RETURNDATASIZE PUSH1 0x0 REVERT JUMPDEST POP POP POP POP PUSH1 0x40 MLOAD RETURNDATASIZE PUSH1 0x1F NOT PUSH1 0x1F DUP3 ADD AND DUP3 ADD DUP1 PUSH1 0x40 MSTORE POP DUP2 ADD SWAP1 PUSH2 0x1413 SWAP2 SWAP1 PUSH2 0x2C43 JUMP JUMPDEST POP PUSH1 0x4 PUSH1 0x0 SWAP1 SLOAD SWAP1 PUSH2 0x100 EXP SWAP1 DIV PUSH20 0xFFFFFFFFFFFFFFFFFFFFFFFFFFFFFFFFFFFFFFFF AND PUSH20 0xFFFFFFFFFFFFFFFFFFFFFFFFFFFFFFFFFFFFFFFF AND PUSH4 0xC1E9518A CALLER ADDRESS DUP5 PUSH1 0x40 MLOAD DUP5 PUSH4 0xFFFFFFFF AND PUSH1 0xE0 SHL DUP2 MSTORE PUSH1 0x4 ADD PUSH2 0x1473 SWAP4 SWAP3 SWAP2 SWAP1 PUSH2 0x2B10 JUMP JUMPDEST PUSH1 0x0 PUSH1 0x40 MLOAD DUP1 DUP4 SUB DUP2 PUSH1 0x0 DUP8 DUP1 EXTCODESIZE ISZERO DUP1 ISZERO PUSH2 0x148D JUMPI PUSH1 0x0 DUP1 REVERT JUMPDEST POP GAS CALL ISZERO DUP1 ISZERO PUSH2 0x14A1 JUMPI RETURNDATASIZE PUSH1 0x0 DUP1 RETURNDATACOPY RETURNDATASIZE PUSH1 0x0 REVERT JUMPDEST POP POP POP POP PUSH1 0x5 PUSH1 0x0 SWAP1 SLOAD SWAP1 PUSH2 0x100 EXP SWAP1 DIV PUSH20 0xFFFFFFFFFFFFFFFFFFFFFFFFFFFFFFFFFFFFFFFF AND PUSH20 0xFFFFFFFFFFFFFFFFFFFFFFFFFFFFFFFFFFFFFFFF AND PUSH4 0x23B872DD ADDRESS CALLER DUP5 PUSH1 0x40 MLOAD DUP5 PUSH4 0xFFFFFFFF AND PUSH1 0xE0 SHL DUP2 MSTORE PUSH1 0x4 ADD PUSH2 0x1504 SWAP4 SWAP3 SWAP2 SWAP1 PUSH2 0x264D JUMP JUMPDEST PUSH1 0x0 PUSH1 0x40 MLOAD DUP1 DUP4 SUB DUP2 PUSH1 0x0 DUP8 DUP1 EXTCODESIZE ISZERO DUP1 ISZERO PUSH2 0x151E JUMPI PUSH1 0x0 DUP1 REVERT JUMPDEST POP GAS CALL ISZERO DUP1 ISZERO PUSH2 0x1532 JUMPI RETURNDATASIZE PUSH1 0x0 DUP1 RETURNDATACOPY RETURNDATASIZE PUSH1 0x0 REVERT JUMPDEST POP POP POP POP POP POP POP JUMP JUMPDEST PUSH1 0x0 PUSH1 0x6 PUSH1 0x0 SWAP1 SLOAD SWAP1 PUSH2 0x100 EXP SWAP1 DIV PUSH20 0xFFFFFFFFFFFFFFFFFFFFFFFFFFFFFFFFFFFFFFFF AND SWAP1 POP SWAP1 JUMP JUMPDEST PUSH1 0x0 PUSH1 0x9 PUSH1 0x0 DUP5 DUP2 MSTORE PUSH1 0x20 ADD SWAP1 DUP2 MSTORE PUSH1 0x20 ADD PUSH1 0x0 KECCAK256 PUSH1 0x4 ADD SLOAD SWAP1 POP PUSH1 0x0 PUSH1 0x9 PUSH1 0x0 DUP6 DUP2 MSTORE PUSH1 0x20 ADD SWAP1 DUP2 MSTORE PUSH1 0x20 ADD PUSH1 0x0 KECCAK256 PUSH1 0x1 ADD SLOAD SWAP1 POP PUSH1 0x0 PUSH1 0x9 PUSH1 0x0 DUP7 DUP2 MSTORE PUSH1 0x20 ADD SWAP1 DUP2 MSTORE PUSH1 0x20 ADD PUSH1 0x0 KECCAK256 PUSH1 0x2 ADD PUSH1 0x0 SWAP1 SLOAD SWAP1 PUSH2 0x100 EXP SWAP1 DIV PUSH20 0xFFFFFFFFFFFFFFFFFFFFFFFFFFFFFFFFFFFFFFFF AND SWAP1 POP PUSH1 0x0 PUSH1 0x4 PUSH1 0x0 SWAP1 SLOAD SWAP1 PUSH2 0x100 EXP SWAP1 DIV PUSH20 0xFFFFFFFFFFFFFFFFFFFFFFFFFFFFFFFFFFFFFFFF AND PUSH20 0xFFFFFFFFFFFFFFFFFFFFFFFFFFFFFFFFFFFFFFFF AND PUSH4 0x3CE1CB5 DUP5 PUSH1 0x40 MLOAD DUP3 PUSH4 0xFFFFFFFF AND PUSH1 0xE0 SHL DUP2 MSTORE PUSH1 0x4 ADD PUSH2 0x1633 SWAP2 SWAP1 PUSH2 0x2785 JUMP JUMPDEST PUSH1 0x0 PUSH1 0x40 MLOAD DUP1 DUP4 SUB DUP2 DUP7 GAS STATICCALL ISZERO DUP1 ISZERO PUSH2 0x1650 JUMPI RETURNDATASIZE PUSH1 0x0 DUP1 RETURNDATACOPY RETURNDATASIZE PUSH1 0x0 REVERT JUMPDEST POP POP POP POP PUSH1 0x40 MLOAD RETURNDATASIZE PUSH1 0x0 DUP3 RETURNDATACOPY RETURNDATASIZE PUSH1 0x1F NOT PUSH1 0x1F DUP3 ADD AND DUP3 ADD DUP1 PUSH1 0x40 MSTORE POP DUP2 ADD SWAP1 PUSH2 0x1679 SWAP2 SWAP1 PUSH2 0x2A3A JUMP JUMPDEST SWAP1 POP DUP4 DUP6 EQ PUSH2 0x16BD JUMPI PUSH1 0x40 MLOAD PUSH32 0x8C379A000000000000000000000000000000000000000000000000000000000 DUP2 MSTORE PUSH1 0x4 ADD PUSH2 0x16B4 SWAP1 PUSH2 0x2CE2 JUMP JUMPDEST PUSH1 0x40 MLOAD DUP1 SWAP2 SUB SWAP1 REVERT JUMPDEST PUSH1 0x0 ISZERO ISZERO DUP2 PUSH1 0x80 ADD MLOAD ISZERO ISZERO EQ PUSH2 0x1708 JUMPI PUSH1 0x40 MLOAD PUSH32 0x8C379A000000000000000000000000000000000000000000000000000000000 DUP2 MSTORE PUSH1 0x4 ADD PUSH2 0x16FF SWAP1 PUSH2 0x2ACF JUMP JUMPDEST PUSH1 0x40 MLOAD DUP1 SWAP2 SUB SWAP1 REVERT JUMPDEST PUSH2 0x1713 DUP7 DUP7 DUP6 PUSH2 0x133B JUMP JUMPDEST CALLER PUSH1 0x9 PUSH1 0x0 DUP9 DUP2 MSTORE PUSH1 0x20 ADD SWAP1 DUP2 MSTORE PUSH1 0x20 ADD PUSH1 0x0 KECCAK256 PUSH1 0x3 ADD PUSH1 0x0 PUSH2 0x100 EXP DUP2 SLOAD DUP2 PUSH20 0xFFFFFFFFFFFFFFFFFFFFFFFFFFFFFFFFFFFFFFFF MUL NOT AND SWAP1 DUP4 PUSH20 0xFFFFFFFFFFFFFFFFFFFFFFFFFFFFFFFFFFFFFFFF AND MUL OR SWAP1 SSTORE POP PUSH1 0x0 PUSH1 0x9 PUSH1 0x0 DUP9 DUP2 MSTORE PUSH1 0x20 ADD SWAP1 DUP2 MSTORE PUSH1 0x20 ADD PUSH1 0x0 KECCAK256 PUSH1 0x5 ADD PUSH1 0x0 PUSH2 0x100 EXP DUP2 SLOAD DUP2 PUSH1 0xFF MUL NOT AND SWAP1 DUP4 PUSH1 0x1 DUP2 GT ISZERO PUSH2 0x17A2 JUMPI PUSH2 0x17A1 PUSH2 0x20B4 JUMP JUMPDEST JUMPDEST MUL OR SWAP1 SSTORE POP PUSH2 0x17B1 PUSH1 0x8 PUSH2 0x1D08 JUMP JUMPDEST CALLER PUSH20 0xFFFFFFFFFFFFFFFFFFFFFFFFFFFFFFFFFFFFFFFF AND DUP3 PUSH20 0xFFFFFFFFFFFFFFFFFFFFFFFFFFFFFFFFFFFFFFFF AND DUP5 PUSH32 0x551327AEE12D0A8B3EDE8D0E3182A40A5FF3ED9F1811DD622915DB30B609B7DF DUP10 DUP9 TIMESTAMP PUSH1 0x40 MLOAD PUSH2 0x1813 SWAP4 SWAP3 SWAP2 SWAP1 PUSH2 0x2D4E JUMP JUMPDEST PUSH1 0x40 MLOAD DUP1 SWAP2 SUB SWAP1 LOG4 POP POP POP POP POP POP JUMP JUMPDEST PUSH1 0x5 PUSH1 0x15 SWAP1 SLOAD SWAP1 PUSH2 0x100 EXP SWAP1 DIV PUSH1 0xFF AND DUP2 JUMP JUMPDEST PUSH1 0x1 DUP2 DUP2 SLOAD DUP2 LT PUSH2 0x1846 JUMPI PUSH1 0x0 DUP1 REVERT JUMPDEST SWAP1 PUSH1 0x0 MSTORE PUSH1 0x20 PUSH1 0x0 KECCAK256 SWAP1 PUSH1 0x6 MUL ADD PUSH1 0x0 SWAP2 POP SWAP1 POP DUP1 PUSH1 0x0 ADD SLOAD SWAP1 DUP1 PUSH1 0x1 ADD SLOAD SWAP1 DUP1 PUSH1 0x2 ADD PUSH1 0x0 SWAP1 SLOAD SWAP1 PUSH2 0x100 EXP SWAP1 DIV PUSH20 0xFFFFFFFFFFFFFFFFFFFFFFFFFFFFFFFFFFFFFFFF AND SWAP1 DUP1 PUSH1 0x3 ADD PUSH1 0x0 SWAP1 SLOAD SWAP1 PUSH2 0x100 EXP SWAP1 DIV PUSH20 0xFFFFFFFFFFFFFFFFFFFFFFFFFFFFFFFFFFFFFFFF AND SWAP1 DUP1 PUSH1 0x4 ADD SLOAD SWAP1 DUP1 PUSH1 0x5 ADD PUSH1 0x0 SWAP1 SLOAD SWAP1 PUSH2 0x100 EXP SWAP1 DIV PUSH1 0xFF AND SWAP1 POP DUP7 JUMP JUMPDEST PUSH1 0x4 PUSH1 0x0 SWAP1 SLOAD SWAP1 PUSH2 0x100 EXP SWAP1 DIV PUSH20 0xFFFFFFFFFFFFFFFFFFFFFFFFFFFFFFFFFFFFFFFF AND DUP2 JUMP JUMPDEST PUSH2 0x18FD PUSH2 0x1DE4 JUMP JUMPDEST PUSH1 0x9 PUSH1 0x0 DUP4 DUP2 MSTORE PUSH1 0x20 ADD SWAP1 DUP2 MSTORE PUSH1 0x20 ADD PUSH1 0x0 KECCAK256 PUSH1 0x40 MLOAD DUP1 PUSH1 0xC0 ADD PUSH1 0x40 MSTORE SWAP1 DUP2 PUSH1 0x0 DUP3 ADD SLOAD DUP2 MSTORE PUSH1 0x20 ADD PUSH1 0x1 DUP3 ADD SLOAD DUP2 MSTORE PUSH1 0x20 ADD PUSH1 0x2 DUP3 ADD PUSH1 0x0 SWAP1 SLOAD SWAP1 PUSH2 0x100 EXP SWAP1 DIV PUSH20 0xFFFFFFFFFFFFFFFFFFFFFFFFFFFFFFFFFFFFFFFF AND PUSH20 0xFFFFFFFFFFFFFFFFFFFFFFFFFFFFFFFFFFFFFFFF AND PUSH20 0xFFFFFFFFFFFFFFFFFFFFFFFFFFFFFFFFFFFFFFFF AND DUP2 MSTORE PUSH1 0x20 ADD PUSH1 0x3 DUP3 ADD PUSH1 0x0 SWAP1 SLOAD SWAP1 PUSH2 0x100 EXP SWAP1 DIV PUSH20 0xFFFFFFFFFFFFFFFFFFFFFFFFFFFFFFFFFFFFFFFF AND PUSH20 0xFFFFFFFFFFFFFFFFFFFFFFFFFFFFFFFFFFFFFFFF AND PUSH20 0xFFFFFFFFFFFFFFFFFFFFFFFFFFFFFFFFFFFFFFFF AND DUP2 MSTORE PUSH1 0x20 ADD PUSH1 0x4 DUP3 ADD SLOAD DUP2 MSTORE PUSH1 0x20 ADD PUSH1 0x5 DUP3 ADD PUSH1 0x0 SWAP1 SLOAD SWAP1 PUSH2 0x100 EXP SWAP1 DIV PUSH1 0xFF AND PUSH1 0x1 DUP2 GT ISZERO PUSH2 0x1A0A JUMPI PUSH2 0x1A09 PUSH2 0x20B4 JUMP JUMPDEST JUMPDEST PUSH1 0x1 DUP2 GT ISZERO PUSH2 0x1A1C JUMPI PUSH2 0x1A1B PUSH2 0x20B4 JUMP JUMPDEST JUMPDEST DUP2 MSTORE POP POP SWAP1 POP SWAP2 SWAP1 POP JUMP JUMPDEST PUSH1 0x4 PUSH1 0x0 SWAP1 SLOAD SWAP1 PUSH2 0x100 EXP SWAP1 DIV PUSH20 0xFFFFFFFFFFFFFFFFFFFFFFFFFFFFFFFFFFFFFFFF AND PUSH20 0xFFFFFFFFFFFFFFFFFFFFFFFFFFFFFFFFFFFFFFFF AND PUSH4 0xC1E9518A CALLER ADDRESS DUP5 PUSH1 0x40 MLOAD DUP5 PUSH4 0xFFFFFFFF AND PUSH1 0xE0 SHL DUP2 MSTORE PUSH1 0x4 ADD PUSH2 0x1A86 SWAP4 SWAP3 SWAP2 SWAP1 PUSH2 0x2B10 JUMP JUMPDEST PUSH1 0x0 PUSH1 0x40 MLOAD DUP1 DUP4 SUB DUP2 PUSH1 0x0 DUP8 DUP1 EXTCODESIZE ISZERO DUP1 ISZERO PUSH2 0x1AA0 JUMPI PUSH1 0x0 DUP1 REVERT JUMPDEST POP GAS CALL ISZERO DUP1 ISZERO PUSH2 0x1AB4 JUMPI RETURNDATASIZE PUSH1 0x0 DUP1 RETURNDATACOPY RETURNDATASIZE PUSH1 0x0 REVERT JUMPDEST POP POP POP POP PUSH1 0x5 PUSH1 0x0 SWAP1 SLOAD SWAP1 PUSH2 0x100 EXP SWAP1 DIV PUSH20 0xFFFFFFFFFFFFFFFFFFFFFFFFFFFFFFFFFFFFFFFF AND PUSH20 0xFFFFFFFFFFFFFFFFFFFFFFFFFFFFFFFFFFFFFFFF AND PUSH4 0x23B872DD CALLER ADDRESS DUP5 PUSH1 0x40 MLOAD DUP5 PUSH4 0xFFFFFFFF AND PUSH1 0xE0 SHL DUP2 MSTORE PUSH1 0x4 ADD PUSH2 0x1B17 SWAP4 SWAP3 SWAP2 SWAP1 PUSH2 0x264D JUMP JUMPDEST PUSH1 0x0 PUSH1 0x40 MLOAD DUP1 DUP4 SUB DUP2 PUSH1 0x0 DUP8 DUP1 EXTCODESIZE ISZERO DUP1 ISZERO PUSH2 0x1B31 JUMPI PUSH1 0x0 DUP1 REVERT JUMPDEST POP GAS CALL ISZERO DUP1 ISZERO PUSH2 0x1B45 JUMPI RETURNDATASIZE PUSH1 0x0 DUP1 RETURNDATACOPY RETURNDATASIZE PUSH1 0x0 REVERT JUMPDEST POP POP POP POP POP JUMP JUMPDEST PUSH2 0x1B54 PUSH2 0x1CF2 JUMP JUMPDEST PUSH20 0xFFFFFFFFFFFFFFFFFFFFFFFFFFFFFFFFFFFFFFFF AND PUSH2 0x1B72 PUSH2 0x153B JUMP JUMPDEST PUSH20 0xFFFFFFFFFFFFFFFFFFFFFFFFFFFFFFFFFFFFFFFF AND EQ PUSH2 0x1BC8 JUMPI PUSH1 0x40 MLOAD PUSH32 0x8C379A000000000000000000000000000000000000000000000000000000000 DUP2 MSTORE PUSH1 0x4 ADD PUSH2 0x1BBF SWAP1 PUSH2 0x26F9 JUMP JUMPDEST PUSH1 0x40 MLOAD DUP1 SWAP2 SUB SWAP1 REVERT JUMPDEST PUSH1 0x0 PUSH20 0xFFFFFFFFFFFFFFFFFFFFFFFFFFFFFFFFFFFFFFFF AND DUP2 PUSH20 0xFFFFFFFFFFFFFFFFFFFFFFFFFFFFFFFFFFFFFFFF AND SUB PUSH2 0x1C37 JUMPI PUSH1 0x40 MLOAD PUSH32 0x8C379A000000000000000000000000000000000000000000000000000000000 DUP2 MSTORE PUSH1 0x4 ADD PUSH2 0x1C2E SWAP1 PUSH2 0x2E0A JUMP JUMPDEST PUSH1 0x40 MLOAD DUP1 SWAP2 SUB SWAP1 REVERT JUMPDEST PUSH2 0x1C40 DUP2 PUSH2 0x1D1E JUMP JUMPDEST POP JUMP JUMPDEST PUSH1 0x5 PUSH1 0x0 SWAP1 SLOAD SWAP1 PUSH2 0x100 EXP SWAP1 DIV PUSH20 0xFFFFFFFFFFFFFFFFFFFFFFFFFFFFFFFFFFFFFFFF AND DUP2 JUMP JUMPDEST PUSH1 0x2 PUSH1 0x20 MSTORE DUP1 PUSH1 0x0 MSTORE PUSH1 0x40 PUSH1 0x0 KECCAK256 PUSH1 0x0 SWAP2 POP SWAP1 POP DUP1 PUSH1 0x0 ADD SLOAD SWAP1 DUP1 PUSH1 0x1 ADD SLOAD SWAP1 DUP1 PUSH1 0x2 ADD PUSH1 0x0 SWAP1 SLOAD SWAP1 PUSH2 0x100 EXP SWAP1 DIV PUSH20 0xFFFFFFFFFFFFFFFFFFFFFFFFFFFFFFFFFFFFFFFF AND SWAP1 DUP1 PUSH1 0x3 ADD PUSH1 0x0 SWAP1 SLOAD SWAP1 PUSH2 0x100 EXP SWAP1 DIV PUSH20 0xFFFFFFFFFFFFFFFFFFFFFFFFFFFFFFFFFFFFFFFF AND SWAP1 DUP1 PUSH1 0x4 ADD SLOAD SWAP1 DUP1 PUSH1 0x5 ADD PUSH1 0x0 SWAP1 SLOAD SWAP1 PUSH2 0x100 EXP SWAP1 DIV PUSH1 0xFF AND SWAP1 POP DUP7 JUMP JUMPDEST PUSH1 0x0 CALLER SWAP1 POP SWAP1 JUMP JUMPDEST PUSH1 0x0 DUP2 PUSH1 0x0 ADD SLOAD SWAP1 POP SWAP2 SWAP1 POP JUMP JUMPDEST PUSH1 0x1 DUP2 PUSH1 0x0 ADD PUSH1 0x0 DUP3 DUP3 SLOAD ADD SWAP3 POP POP DUP2 SWAP1 SSTORE POP POP JUMP JUMPDEST PUSH1 0x0 PUSH1 0x6 PUSH1 0x0 SWAP1 SLOAD SWAP1 PUSH2 0x100 EXP SWAP1 DIV PUSH20 0xFFFFFFFFFFFFFFFFFFFFFFFFFFFFFFFFFFFFFFFF AND SWAP1 POP DUP2 PUSH1 0x6 PUSH1 0x0 PUSH2 0x100 EXP DUP2 SLOAD DUP2 PUSH20 0xFFFFFFFFFFFFFFFFFFFFFFFFFFFFFFFFFFFFFFFF MUL NOT AND SWAP1 DUP4 PUSH20 0xFFFFFFFFFFFFFFFFFFFFFFFFFFFFFFFFFFFFFFFF AND MUL OR SWAP1 SSTORE POP DUP2 PUSH20 0xFFFFFFFFFFFFFFFFFFFFFFFFFFFFFFFFFFFFFFFF AND DUP2 PUSH20 0xFFFFFFFFFFFFFFFFFFFFFFFFFFFFFFFFFFFFFFFF AND PUSH32 0x8BE0079C531659141344CD1FD0A4F28419497F9722A3DAAFE3B4186F6B6457E0 PUSH1 0x40 MLOAD PUSH1 0x40 MLOAD DUP1 SWAP2 SUB SWAP1 LOG3 POP POP JUMP JUMPDEST PUSH1 0x40 MLOAD DUP1 PUSH1 0xC0 ADD PUSH1 0x40 MSTORE DUP1 PUSH1 0x0 DUP2 MSTORE PUSH1 0x20 ADD PUSH1 0x0 DUP2 MSTORE PUSH1 0x20 ADD PUSH1 0x0 PUSH20 0xFFFFFFFFFFFFFFFFFFFFFFFFFFFFFFFFFFFFFFFF AND DUP2 MSTORE PUSH1 0x20 ADD PUSH1 0x0 PUSH20 0xFFFFFFFFFFFFFFFFFFFFFFFFFFFFFFFFFFFFFFFF AND DUP2 MSTORE PUSH1 0x20 ADD PUSH1 0x0 DUP2 MSTORE PUSH1 0x20 ADD PUSH1 0x0 PUSH1 0x1 DUP2 GT ISZERO PUSH2 0x1E52 JUMPI PUSH2 0x1E51 PUSH2 0x20B4 JUMP JUMPDEST JUMPDEST DUP2 MSTORE POP SWAP1 JUMP JUMPDEST PUSH1 0x0 PUSH1 0x40 MLOAD SWAP1 POP SWAP1 JUMP JUMPDEST PUSH1 0x0 DUP1 REVERT JUMPDEST PUSH1 0x0 DUP1 REVERT JUMPDEST PUSH1 0x0 DUP2 SWAP1 POP SWAP2 SWAP1 POP JUMP JUMPDEST PUSH2 0x1E7F DUP2 PUSH2 0x1E6C JUMP JUMPDEST DUP2 EQ PUSH2 0x1E8A JUMPI PUSH1 0x0 DUP1 REVERT JUMPDEST POP JUMP JUMPDEST PUSH1 0x0 DUP2 CALLDATALOAD SWAP1 POP PUSH2 0x1E9C DUP2 PUSH2 0x1E76 JUMP JUMPDEST SWAP3 SWAP2 POP POP JUMP JUMPDEST PUSH1 0x0 PUSH1 0x20 DUP3 DUP5 SUB SLT ISZERO PUSH2 0x1EB8 JUMPI PUSH2 0x1EB7 PUSH2 0x1E62 JUMP JUMPDEST JUMPDEST PUSH1 0x0 PUSH2 0x1EC6 DUP5 DUP3 DUP6 ADD PUSH2 0x1E8D JUMP JUMPDEST SWAP2 POP POP SWAP3 SWAP2 POP POP JUMP JUMPDEST PUSH1 0x0 PUSH20 0xFFFFFFFFFFFFFFFFFFFFFFFFFFFFFFFFFFFFFFFF DUP3 AND SWAP1 POP SWAP2 SWAP1 POP JUMP JUMPDEST PUSH1 0x0 PUSH2 0x1EFA DUP3 PUSH2 0x1ECF JUMP JUMPDEST SWAP1 POP SWAP2 SWAP1 POP JUMP JUMPDEST PUSH2 0x1F0A DUP2 PUSH2 0x1EEF JUMP JUMPDEST DUP2 EQ PUSH2 0x1F15 JUMPI PUSH1 0x0 DUP1 REVERT JUMPDEST POP JUMP JUMPDEST PUSH1 0x0 DUP2 CALLDATALOAD SWAP1 POP PUSH2 0x1F27 DUP2 PUSH2 0x1F01 JUMP JUMPDEST SWAP3 SWAP2 POP POP JUMP JUMPDEST PUSH1 0x0 PUSH1 0x20 DUP3 DUP5 SUB SLT ISZERO PUSH2 0x1F43 JUMPI PUSH2 0x1F42 PUSH2 0x1E62 JUMP JUMPDEST JUMPDEST PUSH1 0x0 PUSH2 0x1F51 DUP5 DUP3 DUP6 ADD PUSH2 0x1F18 JUMP JUMPDEST SWAP2 POP POP SWAP3 SWAP2 POP POP JUMP JUMPDEST PUSH1 0x0 PUSH32 0xFFFFFFFF00000000000000000000000000000000000000000000000000000000 DUP3 AND SWAP1 POP SWAP2 SWAP1 POP JUMP JUMPDEST PUSH2 0x1F8F DUP2 PUSH2 0x1F5A JUMP JUMPDEST DUP3 MSTORE POP POP JUMP JUMPDEST PUSH1 0x0 PUSH1 0x20 DUP3 ADD SWAP1 POP PUSH2 0x1FAA PUSH1 0x0 DUP4 ADD DUP5 PUSH2 0x1F86 JUMP JUMPDEST SWAP3 SWAP2 POP POP JUMP JUMPDEST PUSH1 0x0 DUP1 PUSH1 0x40 DUP4 DUP6 SUB SLT ISZERO PUSH2 0x1FC7 JUMPI PUSH2 0x1FC6 PUSH2 0x1E62 JUMP JUMPDEST JUMPDEST PUSH1 0x0 PUSH2 0x1FD5 DUP6 DUP3 DUP7 ADD PUSH2 0x1E8D JUMP JUMPDEST SWAP3 POP POP PUSH1 0x20 PUSH2 0x1FE6 DUP6 DUP3 DUP7 ADD PUSH2 0x1E8D JUMP JUMPDEST SWAP2 POP POP SWAP3 POP SWAP3 SWAP1 POP JUMP JUMPDEST PUSH1 0x0 DUP2 SWAP1 POP SWAP2 SWAP1 POP JUMP JUMPDEST PUSH1 0x0 PUSH2 0x2015 PUSH2 0x2010 PUSH2 0x200B DUP5 PUSH2 0x1ECF JUMP JUMPDEST PUSH2 0x1FF0 JUMP JUMPDEST PUSH2 0x1ECF JUMP JUMPDEST SWAP1 POP SWAP2 SWAP1 POP JUMP JUMPDEST PUSH1 0x0 PUSH2 0x2027 DUP3 PUSH2 0x1FFA JUMP JUMPDEST SWAP1 POP SWAP2 SWAP1 POP JUMP JUMPDEST PUSH1 0x0 PUSH2 0x2039 DUP3 PUSH2 0x201C JUMP JUMPDEST SWAP1 POP SWAP2 SWAP1 POP JUMP JUMPDEST PUSH2 0x2049 DUP2 PUSH2 0x202E JUMP JUMPDEST DUP3 MSTORE POP POP JUMP JUMPDEST PUSH1 0x0 PUSH1 0x20 DUP3 ADD SWAP1 POP PUSH2 0x2064 PUSH1 0x0 DUP4 ADD DUP5 PUSH2 0x2040 JUMP JUMPDEST SWAP3 SWAP2 POP POP JUMP JUMPDEST PUSH1 0x0 DUP2 MLOAD SWAP1 POP SWAP2 SWAP1 POP JUMP JUMPDEST PUSH1 0x0 DUP3 DUP3 MSTORE PUSH1 0x20 DUP3 ADD SWAP1 POP SWAP3 SWAP2 POP POP JUMP JUMPDEST PUSH1 0x0 DUP2 SWAP1 POP PUSH1 0x20 DUP3 ADD SWAP1 POP SWAP2 SWAP1 POP JUMP JUMPDEST PUSH2 0x209F DUP2 PUSH2 0x1E6C JUMP JUMPDEST DUP3 MSTORE POP POP JUMP JUMPDEST PUSH2 0x20AE DUP2 PUSH2 0x1EEF JUMP JUMPDEST DUP3 MSTORE POP POP JUMP JUMPDEST PUSH32 0x4E487B7100000000000000000000000000000000000000000000000000000000 PUSH1 0x0 MSTORE PUSH1 0x21 PUSH1 0x4 MSTORE PUSH1 0x24 PUSH1 0x0 REVERT JUMPDEST PUSH1 0x2 DUP2 LT PUSH2 0x20F4 JUMPI PUSH2 0x20F3 PUSH2 0x20B4 JUMP JUMPDEST JUMPDEST POP JUMP JUMPDEST PUSH1 0x0 DUP2 SWAP1 POP PUSH2 0x2105 DUP3 PUSH2 0x20E3 JUMP JUMPDEST SWAP2 SWAP1 POP JUMP JUMPDEST PUSH1 0x0 PUSH2 0x2115 DUP3 PUSH2 0x20F7 JUMP JUMPDEST SWAP1 POP SWAP2 SWAP1 POP JUMP JUMPDEST PUSH2 0x2125 DUP2 PUSH2 0x210A JUMP JUMPDEST DUP3 MSTORE POP POP JUMP JUMPDEST PUSH1 0xC0 DUP3 ADD PUSH1 0x0 DUP3 ADD MLOAD PUSH2 0x2141 PUSH1 0x0 DUP6 ADD DUP3 PUSH2 0x2096 JUMP JUMPDEST POP PUSH1 0x20 DUP3 ADD MLOAD PUSH2 0x2154 PUSH1 0x20 DUP6 ADD DUP3 PUSH2 0x2096 JUMP JUMPDEST POP PUSH1 0x40 DUP3 ADD MLOAD PUSH2 0x2167 PUSH1 0x40 DUP6 ADD DUP3 PUSH2 0x20A5 JUMP JUMPDEST POP PUSH1 0x60 DUP3 ADD MLOAD PUSH2 0x217A PUSH1 0x60 DUP6 ADD DUP3 PUSH2 0x20A5 JUMP JUMPDEST POP PUSH1 0x80 DUP3 ADD MLOAD PUSH2 0x218D PUSH1 0x80 DUP6 ADD DUP3 PUSH2 0x2096 JUMP JUMPDEST POP PUSH1 0xA0 DUP3 ADD MLOAD PUSH2 0x21A0 PUSH1 0xA0 DUP6 ADD DUP3 PUSH2 0x211C JUMP JUMPDEST POP POP POP POP JUMP JUMPDEST PUSH1 0x0 PUSH2 0x21B2 DUP4 DUP4 PUSH2 0x212B JUMP JUMPDEST PUSH1 0xC0 DUP4 ADD SWAP1 POP SWAP3 SWAP2 POP POP JUMP JUMPDEST PUSH1 0x0 PUSH1 0x20 DUP3 ADD SWAP1 POP SWAP2 SWAP1 POP JUMP JUMPDEST PUSH1 0x0 PUSH2 0x21D6 DUP3 PUSH2 0x206A JUMP JUMPDEST PUSH2 0x21E0 DUP2 DUP6 PUSH2 0x2075 JUMP JUMPDEST SWAP4 POP PUSH2 0x21EB DUP4 PUSH2 0x2086 JUMP JUMPDEST DUP1 PUSH1 0x0 JUMPDEST DUP4 DUP2 LT ISZERO PUSH2 0x221C JUMPI DUP2 MLOAD PUSH2 0x2203 DUP9 DUP3 PUSH2 0x21A6 JUMP JUMPDEST SWAP8 POP PUSH2 0x220E DUP4 PUSH2 0x21BE JUMP JUMPDEST SWAP3 POP POP PUSH1 0x1 DUP2 ADD SWAP1 POP PUSH2 0x21EF JUMP JUMPDEST POP DUP6 SWAP4 POP POP POP POP SWAP3 SWAP2 POP POP JUMP JUMPDEST PUSH1 0x0 PUSH1 0x20 DUP3 ADD SWAP1 POP DUP2 DUP2 SUB PUSH1 0x0 DUP4 ADD MSTORE PUSH2 0x2243 DUP2 DUP5 PUSH2 0x21CB JUMP JUMPDEST SWAP1 POP SWAP3 SWAP2 POP POP JUMP JUMPDEST PUSH1 0x0 PUSH1 0xFF DUP3 AND SWAP1 POP SWAP2 SWAP1 POP JUMP JUMPDEST PUSH2 0x2261 DUP2 PUSH2 0x224B JUMP JUMPDEST DUP3 MSTORE POP POP JUMP JUMPDEST PUSH1 0x0 PUSH1 0x20 DUP3 ADD SWAP1 POP PUSH2 0x227C PUSH1 0x0 DUP4 ADD DUP5 PUSH2 0x2258 JUMP JUMPDEST SWAP3 SWAP2 POP POP JUMP JUMPDEST PUSH1 0x0 DUP1 PUSH1 0x0 PUSH1 0x60 DUP5 DUP7 SUB SLT ISZERO PUSH2 0x229B JUMPI PUSH2 0x229A PUSH2 0x1E62 JUMP JUMPDEST JUMPDEST PUSH1 0x0 PUSH2 0x22A9 DUP7 DUP3 DUP8 ADD PUSH2 0x1E8D JUMP JUMPDEST SWAP4 POP POP PUSH1 0x20 PUSH2 0x22BA DUP7 DUP3 DUP8 ADD PUSH2 0x1E8D JUMP JUMPDEST SWAP3 POP POP PUSH1 0x40 PUSH2 0x22CB DUP7 DUP3 DUP8 ADD PUSH2 0x1E8D JUMP JUMPDEST SWAP2 POP POP SWAP3 POP SWAP3 POP SWAP3 JUMP JUMPDEST PUSH2 0x22DE DUP2 PUSH2 0x1EEF JUMP JUMPDEST DUP3 MSTORE POP POP JUMP JUMPDEST PUSH1 0x0 PUSH1 0x20 DUP3 ADD SWAP1 POP PUSH2 0x22F9 PUSH1 0x0 DUP4 ADD DUP5 PUSH2 0x22D5 JUMP JUMPDEST SWAP3 SWAP2 POP POP JUMP JUMPDEST PUSH2 0x2308 DUP2 PUSH2 0x1E6C JUMP JUMPDEST DUP3 MSTORE POP POP JUMP JUMPDEST PUSH2 0x2317 DUP2 PUSH2 0x210A JUMP JUMPDEST DUP3 MSTORE POP POP JUMP JUMPDEST PUSH1 0x0 PUSH1 0xC0 DUP3 ADD SWAP1 POP PUSH2 0x2332 PUSH1 0x0 DUP4 ADD DUP10 PUSH2 0x22FF JUMP JUMPDEST PUSH2 0x233F PUSH1 0x20 DUP4 ADD DUP9 PUSH2 0x22FF JUMP JUMPDEST PUSH2 0x234C PUSH1 0x40 DUP4 ADD DUP8 PUSH2 0x22D5 JUMP JUMPDEST PUSH2 0x2359 PUSH1 0x60 DUP4 ADD DUP7 PUSH2 0x22D5 JUMP JUMPDEST PUSH2 0x2366 PUSH1 0x80 DUP4 ADD DUP6 PUSH2 0x22FF JUMP JUMPDEST PUSH2 0x2373 PUSH1 0xA0 DUP4 ADD DUP5 PUSH2 0x230E JUMP JUMPDEST SWAP8 SWAP7 POP POP POP POP POP POP POP JUMP JUMPDEST PUSH1 0x0 PUSH2 0x2389 DUP3 PUSH2 0x201C JUMP JUMPDEST SWAP1 POP SWAP2 SWAP1 POP JUMP JUMPDEST PUSH2 0x2399 DUP2 PUSH2 0x237E JUMP JUMPDEST DUP3 MSTORE POP POP JUMP JUMPDEST PUSH1 0x0 PUSH1 0x20 DUP3 ADD SWAP1 POP PUSH2 0x23B4 PUSH1 0x0 DUP4 ADD DUP5 PUSH2 0x2390 JUMP JUMPDEST SWAP3 SWAP2 POP POP JUMP JUMPDEST PUSH1 0xC0 DUP3 ADD PUSH1 0x0 DUP3 ADD MLOAD PUSH2 0x23D0 PUSH1 0x0 DUP6 ADD DUP3 PUSH2 0x2096 JUMP JUMPDEST POP PUSH1 0x20 DUP3 ADD MLOAD PUSH2 0x23E3 PUSH1 0x20 DUP6 ADD DUP3 PUSH2 0x2096 JUMP JUMPDEST POP PUSH1 0x40 DUP3 ADD MLOAD PUSH2 0x23F6 PUSH1 0x40 DUP6 ADD DUP3 PUSH2 0x20A5 JUMP JUMPDEST POP PUSH1 0x60 DUP3 ADD MLOAD PUSH2 0x2409 PUSH1 0x60 DUP6 ADD DUP3 PUSH2 0x20A5 JUMP JUMPDEST POP PUSH1 0x80 DUP3 ADD MLOAD PUSH2 0x241C PUSH1 0x80 DUP6 ADD DUP3 PUSH2 0x2096 JUMP JUMPDEST POP PUSH1 0xA0 DUP3 ADD MLOAD PUSH2 0x242F PUSH1 0xA0 DUP6 ADD DUP3 PUSH2 0x211C JUMP JUMPDEST POP POP POP POP JUMP JUMPDEST PUSH1 0x0 PUSH1 0xC0 DUP3 ADD SWAP1 POP PUSH2 0x244A PUSH1 0x0 DUP4 ADD DUP5 PUSH2 0x23BA JUMP JUMPDEST SWAP3 SWAP2 POP POP JUMP JUMPDEST PUSH1 0x0 PUSH2 0x245B DUP3 PUSH2 0x201C JUMP JUMPDEST SWAP1 POP SWAP2 SWAP1 POP JUMP JUMPDEST PUSH2 0x246B DUP2 PUSH2 0x2450 JUMP JUMPDEST DUP3 MSTORE POP POP JUMP JUMPDEST PUSH1 0x0 PUSH1 0x20 DUP3 ADD SWAP1 POP PUSH2 0x2486 PUSH1 0x0 DUP4 ADD DUP5 PUSH2 0x2462 JUMP JUMPDEST SWAP3 SWAP2 POP POP JUMP JUMPDEST PUSH1 0x0 DUP3 DUP3 MSTORE PUSH1 0x20 DUP3 ADD SWAP1 POP SWAP3 SWAP2 POP POP JUMP JUMPDEST PUSH32 0x4173736574206E6F74207075626C697368656400000000000000000000000000 PUSH1 0x0 DUP3 ADD MSTORE POP JUMP JUMPDEST PUSH1 0x0 PUSH2 0x24D3 PUSH1 0x13 DUP4 PUSH2 0x248C JUMP JUMPDEST SWAP2 POP PUSH2 0x24DE DUP3 PUSH2 0x249D JUMP JUMPDEST PUSH1 0x20 DUP3 ADD SWAP1 POP SWAP2 SWAP1 POP JUMP JUMPDEST PUSH1 0x0 PUSH1 0x20 DUP3 ADD SWAP1 POP DUP2 DUP2 SUB PUSH1 0x0 DUP4 ADD MSTORE PUSH2 0x2502 DUP2 PUSH2 0x24C6 JUMP JUMPDEST SWAP1 POP SWAP2 SWAP1 POP JUMP JUMPDEST PUSH32 0x41737365742064656C6973746564000000000000000000000000000000000000 PUSH1 0x0 DUP3 ADD MSTORE POP JUMP JUMPDEST PUSH1 0x0 PUSH2 0x253F PUSH1 0xE DUP4 PUSH2 0x248C JUMP JUMPDEST SWAP2 POP PUSH2 0x254A DUP3 PUSH2 0x2509 JUMP JUMPDEST PUSH1 0x20 DUP3 ADD SWAP1 POP SWAP2 SWAP1 POP JUMP JUMPDEST PUSH1 0x0 PUSH1 0x20 DUP3 ADD SWAP1 POP DUP2 DUP2 SUB PUSH1 0x0 DUP4 ADD MSTORE PUSH2 0x256E DUP2 PUSH2 0x2532 JUMP JUMPDEST SWAP1 POP SWAP2 SWAP1 POP JUMP JUMPDEST PUSH32 0x496E76616C696420616464726573730000000000000000000000000000000000 PUSH1 0x0 DUP3 ADD MSTORE POP JUMP JUMPDEST PUSH1 0x0 PUSH2 0x25AB PUSH1 0xF DUP4 PUSH2 0x248C JUMP JUMPDEST SWAP2 POP PUSH2 0x25B6 DUP3 PUSH2 0x2575 JUMP JUMPDEST PUSH1 0x20 DUP3 ADD SWAP1 POP SWAP2 SWAP1 POP JUMP JUMPDEST PUSH1 0x0 PUSH1 0x20 DUP3 ADD SWAP1 POP DUP2 DUP2 SUB PUSH1 0x0 DUP4 ADD MSTORE PUSH2 0x25DA DUP2 PUSH2 0x259E JUMP JUMPDEST SWAP1 POP SWAP2 SWAP1 POP JUMP JUMPDEST PUSH32 0x4F6E6C792073656C6C65722063616E2064656C69737400000000000000000000 PUSH1 0x0 DUP3 ADD MSTORE POP JUMP JUMPDEST PUSH1 0x0 PUSH2 0x2617 PUSH1 0x16 DUP4 PUSH2 0x248C JUMP JUMPDEST SWAP2 POP PUSH2 0x2622 DUP3 PUSH2 0x25E1 JUMP JUMPDEST PUSH1 0x20 DUP3 ADD SWAP1 POP SWAP2 SWAP1 POP JUMP JUMPDEST PUSH1 0x0 PUSH1 0x20 DUP3 ADD SWAP1 POP DUP2 DUP2 SUB PUSH1 0x0 DUP4 ADD MSTORE PUSH2 0x2646 DUP2 PUSH2 0x260A JUMP JUMPDEST SWAP1 POP SWAP2 SWAP1 POP JUMP JUMPDEST PUSH1 0x0 PUSH1 0x60 DUP3 ADD SWAP1 POP PUSH2 0x2662 PUSH1 0x0 DUP4 ADD DUP7 PUSH2 0x22D5 JUMP JUMPDEST PUSH2 0x266F PUSH1 0x20 DUP4 ADD DUP6 PUSH2 0x22D5 JUMP JUMPDEST PUSH2 0x267C PUSH1 0x40 DUP4 ADD DUP5 PUSH2 0x22FF JUMP JUMPDEST SWAP5 SWAP4 POP POP POP POP JUMP JUMPDEST PUSH1 0x0 PUSH1 0x40 DUP3 ADD SWAP1 POP PUSH2 0x2699 PUSH1 0x0 DUP4 ADD DUP6 PUSH2 0x22FF JUMP JUMPDEST PUSH2 0x26A6 PUSH1 0x20 DUP4 ADD DUP5 PUSH2 0x22FF JUMP JUMPDEST SWAP4 SWAP3 POP POP POP JUMP JUMPDEST PUSH32 0x4F776E61626C653A2063616C6C6572206973206E6F7420746865206F776E6572 PUSH1 0x0 DUP3 ADD MSTORE POP JUMP JUMPDEST PUSH1 0x0 PUSH2 0x26E3 PUSH1 0x20 DUP4 PUSH2 0x248C JUMP JUMPDEST SWAP2 POP PUSH2 0x26EE DUP3 PUSH2 0x26AD JUMP JUMPDEST PUSH1 0x20 DUP3 ADD SWAP1 POP SWAP2 SWAP1 POP JUMP JUMPDEST PUSH1 0x0 PUSH1 0x20 DUP3 ADD SWAP1 POP DUP2 DUP2 SUB PUSH1 0x0 DUP4 ADD MSTORE PUSH2 0x2712 DUP2 PUSH2 0x26D6 JUMP JUMPDEST SWAP1 POP SWAP2 SWAP1 POP JUMP JUMPDEST PUSH32 0x5072696365206D757374206265206174206C6561737420312077656900000000 PUSH1 0x0 DUP3 ADD MSTORE POP JUMP JUMPDEST PUSH1 0x0 PUSH2 0x274F PUSH1 0x1C DUP4 PUSH2 0x248C JUMP JUMPDEST SWAP2 POP PUSH2 0x275A DUP3 PUSH2 0x2719 JUMP JUMPDEST PUSH1 0x20 DUP3 ADD SWAP1 POP SWAP2 SWAP1 POP JUMP JUMPDEST PUSH1 0x0 PUSH1 0x20 DUP3 ADD SWAP1 POP DUP2 DUP2 SUB PUSH1 0x0 DUP4 ADD MSTORE PUSH2 0x277E DUP2 PUSH2 0x2742 JUMP JUMPDEST SWAP1 POP SWAP2 SWAP1 POP JUMP JUMPDEST PUSH1 0x0 PUSH1 0x20 DUP3 ADD SWAP1 POP PUSH2 0x279A PUSH1 0x0 DUP4 ADD DUP5 PUSH2 0x22FF JUMP JUMPDEST SWAP3 SWAP2 POP POP JUMP JUMPDEST PUSH1 0x0 DUP1 REVERT JUMPDEST PUSH1 0x0 PUSH1 0x1F NOT PUSH1 0x1F DUP4 ADD AND SWAP1 POP SWAP2 SWAP1 POP JUMP JUMPDEST PUSH32 0x4E487B7100000000000000000000000000000000000000000000000000000000 PUSH1 0x0 MSTORE PUSH1 0x41 PUSH1 0x4 MSTORE PUSH1 0x24 PUSH1 0x0 REVERT JUMPDEST PUSH2 0x27EE DUP3 PUSH2 0x27A5 JUMP JUMPDEST DUP2 ADD DUP2 DUP2 LT PUSH8 0xFFFFFFFFFFFFFFFF DUP3 GT OR ISZERO PUSH2 0x280D JUMPI PUSH2 0x280C PUSH2 0x27B6 JUMP JUMPDEST JUMPDEST DUP1 PUSH1 0x40 MSTORE POP POP POP JUMP JUMPDEST PUSH1 0x0 PUSH2 0x2820 PUSH2 0x1E58 JUMP JUMPDEST SWAP1 POP PUSH2 0x282C DUP3 DUP3 PUSH2 0x27E5 JUMP JUMPDEST SWAP2 SWAP1 POP JUMP JUMPDEST PUSH1 0x0 DUP1 REVERT JUMPDEST PUSH1 0x0 DUP2 MLOAD SWAP1 POP PUSH2 0x2845 DUP2 PUSH2 0x1E76 JUMP JUMPDEST SWAP3 SWAP2 POP POP JUMP JUMPDEST PUSH1 0x0 DUP2 MLOAD SWAP1 POP PUSH2 0x285A DUP2 PUSH2 0x1F01 JUMP JUMPDEST SWAP3 SWAP2 POP POP JUMP JUMPDEST PUSH1 0x0 DUP1 REVERT JUMPDEST PUSH1 0x0 DUP1 REVERT JUMPDEST PUSH1 0x0 PUSH8 0xFFFFFFFFFFFFFFFF DUP3 GT ISZERO PUSH2 0x2885 JUMPI PUSH2 0x2884 PUSH2 0x27B6 JUMP JUMPDEST JUMPDEST PUSH2 0x288E DUP3 PUSH2 0x27A5 JUMP JUMPDEST SWAP1 POP PUSH1 0x20 DUP2 ADD SWAP1 POP SWAP2 SWAP1 POP JUMP JUMPDEST PUSH1 0x0 JUMPDEST DUP4 DUP2 LT ISZERO PUSH2 0x28B9 JUMPI DUP1 DUP3 ADD MLOAD DUP2 DUP5 ADD MSTORE PUSH1 0x20 DUP2 ADD SWAP1 POP PUSH2 0x289E JUMP JUMPDEST DUP4 DUP2 GT ISZERO PUSH2 0x28C8 JUMPI PUSH1 0x0 DUP5 DUP5 ADD MSTORE JUMPDEST POP POP POP POP JUMP JUMPDEST PUSH1 0x0 PUSH2 0x28E1 PUSH2 0x28DC DUP5 PUSH2 0x286A JUMP JUMPDEST PUSH2 0x2816 JUMP JUMPDEST SWAP1 POP DUP3 DUP2 MSTORE PUSH1 0x20 DUP2 ADD DUP5 DUP5 DUP5 ADD GT ISZERO PUSH2 0x28FD JUMPI PUSH2 0x28FC PUSH2 0x2865 JUMP JUMPDEST JUMPDEST PUSH2 0x2908 DUP5 DUP3 DUP6 PUSH2 0x289B JUMP JUMPDEST POP SWAP4 SWAP3 POP POP POP JUMP JUMPDEST PUSH1 0x0 DUP3 PUSH1 0x1F DUP4 ADD SLT PUSH2 0x2925 JUMPI PUSH2 0x2924 PUSH2 0x2860 JUMP JUMPDEST JUMPDEST DUP2 MLOAD PUSH2 0x2935 DUP5 DUP3 PUSH1 0x20 DUP7 ADD PUSH2 0x28CE JUMP JUMPDEST SWAP2 POP POP SWAP3 SWAP2 POP POP JUMP JUMPDEST PUSH1 0x0 DUP2 ISZERO ISZERO SWAP1 POP SWAP2 SWAP1 POP JUMP JUMPDEST PUSH2 0x2953 DUP2 PUSH2 0x293E JUMP JUMPDEST DUP2 EQ PUSH2 0x295E JUMPI PUSH1 0x0 DUP1 REVERT JUMPDEST POP JUMP JUMPDEST PUSH1 0x0 DUP2 MLOAD SWAP1 POP PUSH2 0x2970 DUP2 PUSH2 0x294A JUMP JUMPDEST SWAP3 SWAP2 POP POP JUMP JUMPDEST PUSH1 0x0 PUSH1 0xA0 DUP3 DUP5 SUB SLT ISZERO PUSH2 0x298C JUMPI PUSH2 0x298B PUSH2 0x27A0 JUMP JUMPDEST JUMPDEST PUSH2 0x2996 PUSH1 0xA0 PUSH2 0x2816 JUMP JUMPDEST SWAP1 POP PUSH1 0x0 PUSH2 0x29A6 DUP5 DUP3 DUP6 ADD PUSH2 0x2836 JUMP JUMPDEST PUSH1 0x0 DUP4 ADD MSTORE POP PUSH1 0x20 PUSH2 0x29BA DUP5 DUP3 DUP6 ADD PUSH2 0x284B JUMP JUMPDEST PUSH1 0x20 DUP4 ADD MSTORE POP PUSH1 0x40 DUP3 ADD MLOAD PUSH8 0xFFFFFFFFFFFFFFFF DUP2 GT ISZERO PUSH2 0x29DE JUMPI PUSH2 0x29DD PUSH2 0x2831 JUMP JUMPDEST JUMPDEST PUSH2 0x29EA DUP5 DUP3 DUP6 ADD PUSH2 0x2910 JUMP JUMPDEST PUSH1 0x40 DUP4 ADD MSTORE POP PUSH1 0x60 DUP3 ADD MLOAD PUSH8 0xFFFFFFFFFFFFFFFF DUP2 GT ISZERO PUSH2 0x2A0E JUMPI PUSH2 0x2A0D PUSH2 0x2831 JUMP JUMPDEST JUMPDEST PUSH2 0x2A1A DUP5 DUP3 DUP6 ADD PUSH2 0x2910 JUMP JUMPDEST PUSH1 0x60 DUP4 ADD MSTORE POP PUSH1 0x80 PUSH2 0x2A2E DUP5 DUP3 DUP6 ADD PUSH2 0x2961 JUMP JUMPDEST PUSH1 0x80 DUP4 ADD MSTORE POP SWAP3 SWAP2 POP POP JUMP JUMPDEST PUSH1 0x0 PUSH1 0x20 DUP3 DUP5 SUB SLT ISZERO PUSH2 0x2A50 JUMPI PUSH2 0x2A4F PUSH2 0x1E62 JUMP JUMPDEST JUMPDEST PUSH1 0x0 DUP3 ADD MLOAD PUSH8 0xFFFFFFFFFFFFFFFF DUP2 GT ISZERO PUSH2 0x2A6E JUMPI PUSH2 0x2A6D PUSH2 0x1E67 JUMP JUMPDEST JUMPDEST PUSH2 0x2A7A DUP5 DUP3 DUP6 ADD PUSH2 0x2976 JUMP JUMPDEST SWAP2 POP POP SWAP3 SWAP2 POP POP JUMP JUMPDEST PUSH32 0x4974656D206973206E6F7420617661696C61626C65206E6F7720210000000000 PUSH1 0x0 DUP3 ADD MSTORE POP JUMP JUMPDEST PUSH1 0x0 PUSH2 0x2AB9 PUSH1 0x1B DUP4 PUSH2 0x248C JUMP JUMPDEST SWAP2 POP PUSH2 0x2AC4 DUP3 PUSH2 0x2A83 JUMP JUMPDEST PUSH1 0x20 DUP3 ADD SWAP1 POP SWAP2 SWAP1 POP JUMP JUMPDEST PUSH1 0x0 PUSH1 0x20 DUP3 ADD SWAP1 POP DUP2 DUP2 SUB PUSH1 0x0 DUP4 ADD MSTORE PUSH2 0x2AE8 DUP2 PUSH2 0x2AAC JUMP JUMPDEST SWAP1 POP SWAP2 SWAP1 POP JUMP JUMPDEST PUSH1 0x0 PUSH2 0x2AFA DUP3 PUSH2 0x201C JUMP JUMPDEST SWAP1 POP SWAP2 SWAP1 POP JUMP JUMPDEST PUSH2 0x2B0A DUP2 PUSH2 0x2AEF JUMP JUMPDEST DUP3 MSTORE POP POP JUMP JUMPDEST PUSH1 0x0 PUSH1 0x60 DUP3 ADD SWAP1 POP PUSH2 0x2B25 PUSH1 0x0 DUP4 ADD DUP7 PUSH2 0x2B01 JUMP JUMPDEST PUSH2 0x2B32 PUSH1 0x20 DUP4 ADD DUP6 PUSH2 0x22D5 JUMP JUMPDEST PUSH2 0x2B3F PUSH1 0x40 DUP4 ADD DUP5 PUSH2 0x22FF JUMP JUMPDEST SWAP5 SWAP4 POP POP POP POP JUMP JUMPDEST PUSH32 0x4E487B7100000000000000000000000000000000000000000000000000000000 PUSH1 0x0 MSTORE PUSH1 0x11 PUSH1 0x4 MSTORE PUSH1 0x24 PUSH1 0x0 REVERT JUMPDEST PUSH1 0x0 PUSH2 0x2B81 DUP3 PUSH2 0x1E6C JUMP JUMPDEST SWAP2 POP PUSH2 0x2B8C DUP4 PUSH2 0x1E6C JUMP JUMPDEST SWAP3 POP DUP3 PUSH32 0xFFFFFFFFFFFFFFFFFFFFFFFFFFFFFFFFFFFFFFFFFFFFFFFFFFFFFFFFFFFFFFFF SUB DUP3 GT ISZERO PUSH2 0x2BC1 JUMPI PUSH2 0x2BC0 PUSH2 0x2B47 JUMP JUMPDEST JUMPDEST DUP3 DUP3 ADD SWAP1 POP SWAP3 SWAP2 POP POP JUMP JUMPDEST PUSH1 0x0 PUSH2 0x2BD7 DUP3 PUSH2 0x1E6C JUMP JUMPDEST SWAP2 POP PUSH32 0xFFFFFFFFFFFFFFFFFFFFFFFFFFFFFFFFFFFFFFFFFFFFFFFFFFFFFFFFFFFFFFFF DUP3 SUB PUSH2 0x2C09 JUMPI PUSH2 0x2C08 PUSH2 0x2B47 JUMP JUMPDEST JUMPDEST PUSH1 0x1 DUP3 ADD SWAP1 POP SWAP2 SWAP1 POP JUMP JUMPDEST PUSH32 0x4E487B7100000000000000000000000000000000000000000000000000000000 PUSH1 0x0 MSTORE PUSH1 0x32 PUSH1 0x4 MSTORE PUSH1 0x24 PUSH1 0x0 REVERT JUMPDEST PUSH1 0x0 PUSH1 0x20 DUP3 DUP5 SUB SLT ISZERO PUSH2 0x2C59 JUMPI PUSH2 0x2C58 PUSH2 0x1E62 JUMP JUMPDEST JUMPDEST PUSH1 0x0 PUSH2 0x2C67 DUP5 DUP3 DUP6 ADD PUSH2 0x2961 JUMP JUMPDEST SWAP2 POP POP SWAP3 SWAP2 POP POP JUMP JUMPDEST PUSH32 0x506C65617365207375626D6974207468652061736B696E672070726963652069 PUSH1 0x0 DUP3 ADD MSTORE PUSH32 0x6E206F7264657220746F20636F6D706C65746520746865207075726368617365 PUSH1 0x20 DUP3 ADD MSTORE POP JUMP JUMPDEST PUSH1 0x0 PUSH2 0x2CCC PUSH1 0x40 DUP4 PUSH2 0x248C JUMP JUMPDEST SWAP2 POP PUSH2 0x2CD7 DUP3 PUSH2 0x2C70 JUMP JUMPDEST PUSH1 0x40 DUP3 ADD SWAP1 POP SWAP2 SWAP1 POP JUMP JUMPDEST PUSH1 0x0 PUSH1 0x20 DUP3 ADD SWAP1 POP DUP2 DUP2 SUB PUSH1 0x0 DUP4 ADD MSTORE PUSH2 0x2CFB DUP2 PUSH2 0x2CBF JUMP JUMPDEST SWAP1 POP SWAP2 SWAP1 POP JUMP JUMPDEST PUSH32 0x5351460000000000000000000000000000000000000000000000000000000000 PUSH1 0x0 DUP3 ADD MSTORE POP JUMP JUMPDEST PUSH1 0x0 PUSH2 0x2D38 PUSH1 0x3 DUP4 PUSH2 0x248C JUMP JUMPDEST SWAP2 POP PUSH2 0x2D43 DUP3 PUSH2 0x2D02 JUMP JUMPDEST PUSH1 0x20 DUP3 ADD SWAP1 POP SWAP2 SWAP1 POP JUMP JUMPDEST PUSH1 0x0 PUSH1 0x80 DUP3 ADD SWAP1 POP PUSH2 0x2D63 PUSH1 0x0 DUP4 ADD DUP7 PUSH2 0x22FF JUMP JUMPDEST PUSH2 0x2D70 PUSH1 0x20 DUP4 ADD DUP6 PUSH2 0x22FF JUMP JUMPDEST DUP2 DUP2 SUB PUSH1 0x40 DUP4 ADD MSTORE PUSH2 0x2D81 DUP2 PUSH2 0x2D2B JUMP JUMPDEST SWAP1 POP PUSH2 0x2D90 PUSH1 0x60 DUP4 ADD DUP5 PUSH2 0x22FF JUMP JUMPDEST SWAP5 SWAP4 POP POP POP POP JUMP JUMPDEST PUSH32 0x4F776E61626C653A206E6577206F776E657220697320746865207A65726F2061 PUSH1 0x0 DUP3 ADD MSTORE PUSH32 0x6464726573730000000000000000000000000000000000000000000000000000 PUSH1 0x20 DUP3 ADD MSTORE POP JUMP JUMPDEST PUSH1 0x0 PUSH2 0x2DF4 PUSH1 0x26 DUP4 PUSH2 0x248C JUMP JUMPDEST SWAP2 POP PUSH2 0x2DFF DUP3 PUSH2 0x2D98 JUMP JUMPDEST PUSH1 0x40 DUP3 ADD SWAP1 POP SWAP2 SWAP1 POP JUMP JUMPDEST PUSH1 0x0 PUSH1 0x20 DUP3 ADD SWAP1 POP DUP2 DUP2 SUB PUSH1 0x0 DUP4 ADD MSTORE PUSH2 0x2E23 DUP2 PUSH2 0x2DE7 JUMP JUMPDEST SWAP1 POP SWAP2 SWAP1 POP JUMP INVALID LOG2 PUSH5 0x6970667358 0x22 SLT KECCAK256 GASLIMIT GT DUP4 NUMBER PUSH2 0xDFBF 0xF6 0xC2 0xDA 0xE3 PUSH6 0xC8FECDBA28CF 0xD5 POP 0x4C 0x2C 0xBE 0xF7 JUMP LOG1 0xCD GAS 0xA9 0xE3 0xE1 0xE PUSH5 0x736F6C6343 STOP ADDMOD 0xD STOP CALLER "
				},
				"gasEstimates": {
					"creation": {
						"codeDepositCost": "2374400",
						"executionCost": "infinite",
						"totalCost": "infinite"
					},
					"external": {
						"ERC721_Interface()": "431",
						"_safeBuyItem(uint256,uint256,uint256)": "infinite",
						"_safeTransferToMarket(uint256)": "infinite",
						"allItems(uint256)": "infinite",
						"antaFeePercent()": "2610",
						"bnbFeePercent()": "2654",
						"createMarketItem(uint256,uint256)": "infinite",
						"createMarketSale(uint256,uint256)": "infinite",
						"delistItem(uint256)": "infinite",
						"factory()": "infinite",
						"getMarketItem()": "infinite",
						"getMarketItem(uint256)": "infinite",
						"items(uint256)": "infinite",
						"mainNFTs()": "infinite",
						"mainToken()": "infinite",
						"owner()": "2567",
						"renounceOwnership()": "30485",
						"sellItem(uint256,uint256)": "infinite",
						"setFactory(address)": "27051",
						"setMainNFT(address)": "27008",
						"setMainToken(address)": "27030",
						"transferOwnership(address)": "30808"
					},
					"internal": {
						"_requireERC721(address)": "infinite",
						"isContract(address)": "infinite"
					}
				},
				"methodIdentifiers": {
					"ERC721_Interface()": "2b4c32be",
					"_safeBuyItem(uint256,uint256,uint256)": "8c0fb1c3",
					"_safeTransferToMarket(uint256)": "e78e717d",
					"allItems(uint256)": "ff68fa6e",
					"antaFeePercent()": "b7a60c7e",
					"bnbFeePercent()": "85a8b36c",
					"createMarketItem(uint256,uint256)": "361c1995",
					"createMarketSale(uint256,uint256)": "a1c11ca8",
					"delistItem(uint256)": "10061631",
					"factory()": "c45a0155",
					"getMarketItem()": "42199f88",
					"getMarketItem(uint256)": "c7be7a49",
					"items(uint256)": "bfb231d2",
					"mainNFTs()": "f55de0c7",
					"mainToken()": "3fc15f15",
					"owner()": "8da5cb5b",
					"renounceOwnership()": "715018a6",
					"sellItem(uint256,uint256)": "2d923561",
					"setFactory(address)": "5bb47808",
					"setMainNFT(address)": "15b12494",
					"setMainToken(address)": "27ce464e",
					"transferOwnership(address)": "f2fde38b"
				}
			},
			"storageLayout": {
				"storage": [
					{
						"astId": 409,
						"contract": "contracts/Marketplace2/Marketplace.sol:NFTMarket",
						"label": "_status",
						"offset": 0,
						"slot": "0",
						"type": "t_uint256"
					},
					{
						"astId": 500,
						"contract": "contracts/Marketplace2/Marketplace.sol:NFTMarket",
						"label": "items",
						"offset": 0,
						"slot": "1",
						"type": "t_array(t_struct(MarketItem)496_storage)dyn_storage"
					},
					{
						"astId": 511,
						"contract": "contracts/Marketplace2/Marketplace.sol:NFTMarket",
						"label": "allItems",
						"offset": 0,
						"slot": "2",
						"type": "t_mapping(t_uint256,t_struct(MarketItem)496_storage)"
					},
					{
						"astId": 514,
						"contract": "contracts/Marketplace2/Marketplace.sol:NFTMarket",
						"label": "mainToken",
						"offset": 0,
						"slot": "3",
						"type": "t_contract(IERC20)201"
					},
					{
						"astId": 517,
						"contract": "contracts/Marketplace2/Marketplace.sol:NFTMarket",
						"label": "factory",
						"offset": 0,
						"slot": "4",
						"type": "t_contract(IFactory)478"
					},
					{
						"astId": 520,
						"contract": "contracts/Marketplace2/Marketplace.sol:NFTMarket",
						"label": "mainNFTs",
						"offset": 0,
						"slot": "5",
						"type": "t_contract(IERC721)326"
					},
					{
						"astId": 522,
						"contract": "contracts/Marketplace2/Marketplace.sol:NFTMarket",
						"label": "bnbFeePercent",
						"offset": 20,
						"slot": "5",
						"type": "t_uint8"
					},
					{
						"astId": 524,
						"contract": "contracts/Marketplace2/Marketplace.sol:NFTMarket",
						"label": "antaFeePercent",
						"offset": 21,
						"slot": "5",
						"type": "t_uint8"
					},
					{
						"astId": 27,
						"contract": "contracts/Marketplace2/Marketplace.sol:NFTMarket",
						"label": "_owner",
						"offset": 0,
						"slot": "6",
						"type": "t_address"
					},
					{
						"astId": 592,
						"contract": "contracts/Marketplace2/Marketplace.sol:NFTMarket",
						"label": "_itemIds",
						"offset": 0,
						"slot": "7",
						"type": "t_struct(Counter)331_storage"
					},
					{
						"astId": 595,
						"contract": "contracts/Marketplace2/Marketplace.sol:NFTMarket",
						"label": "_itemsSold",
						"offset": 0,
						"slot": "8",
						"type": "t_struct(Counter)331_storage"
					},
					{
						"astId": 600,
						"contract": "contracts/Marketplace2/Marketplace.sol:NFTMarket",
						"label": "idToMarketItem",
						"offset": 0,
						"slot": "9",
						"type": "t_mapping(t_uint256,t_struct(MarketItem)496_storage)"
					}
				],
				"types": {
					"t_address": {
						"encoding": "inplace",
						"label": "address",
						"numberOfBytes": "20"
					},
					"t_array(t_struct(MarketItem)496_storage)dyn_storage": {
						"base": "t_struct(MarketItem)496_storage",
						"encoding": "dynamic_array",
						"label": "struct MarketplaceStorage.MarketItem[]",
						"numberOfBytes": "32"
					},
					"t_contract(IERC20)201": {
						"encoding": "inplace",
						"label": "contract IERC20",
						"numberOfBytes": "20"
					},
					"t_contract(IERC721)326": {
						"encoding": "inplace",
						"label": "contract IERC721",
						"numberOfBytes": "20"
					},
					"t_contract(IFactory)478": {
						"encoding": "inplace",
						"label": "contract IFactory",
						"numberOfBytes": "20"
					},
					"t_enum(ItemStatus)482": {
						"encoding": "inplace",
						"label": "enum MarketplaceStorage.ItemStatus",
						"numberOfBytes": "1"
					},
					"t_mapping(t_uint256,t_struct(MarketItem)496_storage)": {
						"encoding": "mapping",
						"key": "t_uint256",
						"label": "mapping(uint256 => struct MarketplaceStorage.MarketItem)",
						"numberOfBytes": "32",
						"value": "t_struct(MarketItem)496_storage"
					},
					"t_struct(Counter)331_storage": {
						"encoding": "inplace",
						"label": "struct Counters.Counter",
						"members": [
							{
								"astId": 330,
								"contract": "contracts/Marketplace2/Marketplace.sol:NFTMarket",
								"label": "_value",
								"offset": 0,
								"slot": "0",
								"type": "t_uint256"
							}
						],
						"numberOfBytes": "32"
					},
					"t_struct(MarketItem)496_storage": {
						"encoding": "inplace",
						"label": "struct MarketplaceStorage.MarketItem",
						"members": [
							{
								"astId": 484,
								"contract": "contracts/Marketplace2/Marketplace.sol:NFTMarket",
								"label": "itemId",
								"offset": 0,
								"slot": "0",
								"type": "t_uint256"
							},
							{
								"astId": 486,
								"contract": "contracts/Marketplace2/Marketplace.sol:NFTMarket",
								"label": "tokenId",
								"offset": 0,
								"slot": "1",
								"type": "t_uint256"
							},
							{
								"astId": 488,
								"contract": "contracts/Marketplace2/Marketplace.sol:NFTMarket",
								"label": "seller",
								"offset": 0,
								"slot": "2",
								"type": "t_address"
							},
							{
								"astId": 490,
								"contract": "contracts/Marketplace2/Marketplace.sol:NFTMarket",
								"label": "owner",
								"offset": 0,
								"slot": "3",
								"type": "t_address"
							},
							{
								"astId": 492,
								"contract": "contracts/Marketplace2/Marketplace.sol:NFTMarket",
								"label": "price",
								"offset": 0,
								"slot": "4",
								"type": "t_uint256"
							},
							{
								"astId": 495,
								"contract": "contracts/Marketplace2/Marketplace.sol:NFTMarket",
								"label": "status",
								"offset": 0,
								"slot": "5",
								"type": "t_enum(ItemStatus)482"
							}
						],
						"numberOfBytes": "192"
					},
					"t_uint256": {
						"encoding": "inplace",
						"label": "uint256",
						"numberOfBytes": "32"
					},
					"t_uint8": {
						"encoding": "inplace",
						"label": "uint8",
						"numberOfBytes": "1"
					}
				}
			},
			"userdoc": {
				"kind": "user",
				"methods": {},
				"version": 1
			}
		}
	}
}