{
	"contracts/Marketplace2/Marketplace.sol": {
		"NFTMarket": {
			"abi": [
				{
					"anonymous": false,
					"inputs": [
						{
							"indexed": false,
							"internalType": "bytes32",
							"name": "id",
							"type": "bytes32"
						},
						{
							"indexed": true,
							"internalType": "uint256",
							"name": "assetId",
							"type": "uint256"
						},
						{
							"indexed": true,
							"internalType": "address",
							"name": "seller",
							"type": "address"
						},
						{
							"indexed": false,
							"internalType": "address",
							"name": "nftAddress",
							"type": "address"
						},
						{
							"indexed": false,
							"internalType": "uint256",
							"name": "price",
							"type": "uint256"
						},
						{
							"indexed": false,
							"internalType": "uint8",
							"name": "feePercent",
							"type": "uint8"
						},
						{
							"indexed": false,
							"internalType": "uint256",
							"name": "fee",
							"type": "uint256"
						},
						{
							"indexed": true,
							"internalType": "address",
							"name": "buyer",
							"type": "address"
						},
						{
							"indexed": false,
							"internalType": "string",
							"name": "currency",
							"type": "string"
						},
						{
							"indexed": false,
							"internalType": "uint256",
							"name": "createdAt",
							"type": "uint256"
						}
					],
					"name": "BuyItemSuccessful",
					"type": "event"
				},
				{
					"anonymous": false,
					"inputs": [
						{
							"indexed": true,
							"internalType": "address",
							"name": "receiver",
							"type": "address"
						},
						{
							"indexed": false,
							"internalType": "uint256",
							"name": "value",
							"type": "uint256"
						}
					],
					"name": "Claim",
					"type": "event"
				},
				{
					"anonymous": false,
					"inputs": [
						{
							"indexed": false,
							"internalType": "address",
							"name": "nftAddress",
							"type": "address"
						},
						{
							"indexed": false,
							"internalType": "bytes32",
							"name": "id",
							"type": "bytes32"
						},
						{
							"indexed": true,
							"internalType": "uint256",
							"name": "assetId",
							"type": "uint256"
						},
						{
							"indexed": true,
							"internalType": "address",
							"name": "delistBy",
							"type": "address"
						},
						{
							"indexed": false,
							"internalType": "uint256",
							"name": "createdAt",
							"type": "uint256"
						}
					],
					"name": "DelistItemSuccessful",
					"type": "event"
				},
				{
					"anonymous": false,
					"inputs": [
						{
							"indexed": true,
							"internalType": "uint256",
							"name": "itemId",
							"type": "uint256"
						},
						{
							"indexed": true,
							"internalType": "address",
							"name": "nftContract",
							"type": "address"
						},
						{
							"indexed": true,
							"internalType": "uint256",
							"name": "tokenId",
							"type": "uint256"
						},
						{
							"indexed": false,
							"internalType": "address",
							"name": "seller",
							"type": "address"
						},
						{
							"indexed": false,
							"internalType": "address",
							"name": "owner",
							"type": "address"
						},
						{
							"indexed": false,
							"internalType": "uint256",
							"name": "price",
							"type": "uint256"
						}
					],
					"name": "MarketItemCreated",
					"type": "event"
				},
				{
					"anonymous": false,
					"inputs": [
						{
							"indexed": false,
							"internalType": "address",
							"name": "nftAddress",
							"type": "address"
						},
						{
							"indexed": false,
							"internalType": "bytes32",
							"name": "id",
							"type": "bytes32"
						},
						{
							"indexed": true,
							"internalType": "uint256",
							"name": "assetId",
							"type": "uint256"
						},
						{
							"indexed": false,
							"internalType": "uint256",
							"name": "price",
							"type": "uint256"
						},
						{
							"indexed": true,
							"internalType": "address",
							"name": "seller",
							"type": "address"
						},
						{
							"indexed": false,
							"internalType": "string",
							"name": "currency",
							"type": "string"
						},
						{
							"indexed": false,
							"internalType": "uint256",
							"name": "createdAt",
							"type": "uint256"
						}
					],
					"name": "SellItemSuccessful",
					"type": "event"
				},
				{
					"inputs": [],
					"name": "ERC721_Interface",
					"outputs": [
						{
							"internalType": "bytes4",
							"name": "",
							"type": "bytes4"
						}
					],
					"stateMutability": "view",
					"type": "function"
				},
				{
					"inputs": [],
					"name": "antaFeePercent",
					"outputs": [
						{
							"internalType": "uint8",
							"name": "",
							"type": "uint8"
						}
					],
					"stateMutability": "view",
					"type": "function"
				},
				{
					"inputs": [],
					"name": "antaToken",
					"outputs": [
						{
							"internalType": "contract IERC20",
							"name": "",
							"type": "address"
						}
					],
					"stateMutability": "view",
					"type": "function"
				},
				{
					"inputs": [],
					"name": "bnbFeePercent",
					"outputs": [
						{
							"internalType": "uint8",
							"name": "",
							"type": "uint8"
						}
					],
					"stateMutability": "view",
					"type": "function"
				},
				{
					"inputs": [
						{
							"internalType": "address",
							"name": "nftAddress",
							"type": "address"
						},
						{
							"internalType": "uint256",
							"name": "assetId",
							"type": "uint256"
						},
						{
							"internalType": "uint256",
							"name": "priceAnta",
							"type": "uint256"
						}
					],
					"name": "buyItemBySQF",
					"outputs": [],
					"stateMutability": "nonpayable",
					"type": "function"
				},
				{
					"inputs": [
						{
							"internalType": "address",
							"name": "nftContract",
							"type": "address"
						},
						{
							"internalType": "uint256",
							"name": "tokenId",
							"type": "uint256"
						},
						{
							"internalType": "uint256",
							"name": "price",
							"type": "uint256"
						}
					],
					"name": "createMarketItem",
					"outputs": [],
					"stateMutability": "payable",
					"type": "function"
				},
				{
					"inputs": [
						{
							"internalType": "address",
							"name": "nftContract",
							"type": "address"
						},
						{
							"internalType": "uint256",
							"name": "itemId",
							"type": "uint256"
						}
					],
					"name": "createMarketSale",
					"outputs": [],
					"stateMutability": "payable",
					"type": "function"
				},
				{
					"inputs": [
						{
							"internalType": "uint256",
							"name": "itemId",
							"type": "uint256"
						}
					],
					"name": "fetchMarketItem",
					"outputs": [
						{
							"components": [
								{
									"internalType": "uint256",
									"name": "itemId",
									"type": "uint256"
								},
								{
									"internalType": "address",
									"name": "nftContract",
									"type": "address"
								},
								{
									"internalType": "uint256",
									"name": "tokenId",
									"type": "uint256"
								},
								{
									"internalType": "address payable",
									"name": "seller",
									"type": "address"
								},
								{
									"internalType": "address payable",
									"name": "owner",
									"type": "address"
								},
								{
									"internalType": "uint256",
									"name": "price",
									"type": "uint256"
								}
							],
							"internalType": "struct NFTMarket.MarketItem",
							"name": "",
							"type": "tuple"
						}
					],
					"stateMutability": "view",
					"type": "function"
				},
				{
					"inputs": [],
					"name": "fetchMarketItems",
					"outputs": [
						{
							"components": [
								{
									"internalType": "uint256",
									"name": "itemId",
									"type": "uint256"
								},
								{
									"internalType": "address",
									"name": "nftContract",
									"type": "address"
								},
								{
									"internalType": "uint256",
									"name": "tokenId",
									"type": "uint256"
								},
								{
									"internalType": "address payable",
									"name": "seller",
									"type": "address"
								},
								{
									"internalType": "address payable",
									"name": "owner",
									"type": "address"
								},
								{
									"internalType": "uint256",
									"name": "price",
									"type": "uint256"
								}
							],
							"internalType": "struct NFTMarket.MarketItem[]",
							"name": "",
							"type": "tuple[]"
						}
					],
					"stateMutability": "view",
					"type": "function"
				},
				{
					"inputs": [],
					"name": "fetchMyNFTs",
					"outputs": [
						{
							"components": [
								{
									"internalType": "uint256",
									"name": "itemId",
									"type": "uint256"
								},
								{
									"internalType": "address",
									"name": "nftContract",
									"type": "address"
								},
								{
									"internalType": "uint256",
									"name": "tokenId",
									"type": "uint256"
								},
								{
									"internalType": "address payable",
									"name": "seller",
									"type": "address"
								},
								{
									"internalType": "address payable",
									"name": "owner",
									"type": "address"
								},
								{
									"internalType": "uint256",
									"name": "price",
									"type": "uint256"
								}
							],
							"internalType": "struct NFTMarket.MarketItem[]",
							"name": "",
							"type": "tuple[]"
						}
					],
					"stateMutability": "view",
					"type": "function"
				},
				{
					"inputs": [
						{
							"internalType": "uint256",
							"name": "marketItemId",
							"type": "uint256"
						}
					],
					"name": "getMarketItem",
					"outputs": [
						{
							"components": [
								{
									"internalType": "uint256",
									"name": "itemId",
									"type": "uint256"
								},
								{
									"internalType": "address",
									"name": "nftContract",
									"type": "address"
								},
								{
									"internalType": "uint256",
									"name": "tokenId",
									"type": "uint256"
								},
								{
									"internalType": "address payable",
									"name": "seller",
									"type": "address"
								},
								{
									"internalType": "address payable",
									"name": "owner",
									"type": "address"
								},
								{
									"internalType": "uint256",
									"name": "price",
									"type": "uint256"
								}
							],
							"internalType": "struct NFTMarket.MarketItem",
							"name": "",
							"type": "tuple"
						}
					],
					"stateMutability": "view",
					"type": "function"
				},
				{
					"inputs": [
						{
							"internalType": "address",
							"name": "",
							"type": "address"
						},
						{
							"internalType": "uint256",
							"name": "",
							"type": "uint256"
						},
						{
							"internalType": "address",
							"name": "",
							"type": "address"
						}
					],
					"name": "itemOffers",
					"outputs": [
						{
							"internalType": "bytes32",
							"name": "id",
							"type": "bytes32"
						},
						{
							"internalType": "uint256",
							"name": "offerPrice",
							"type": "uint256"
						}
					],
					"stateMutability": "view",
					"type": "function"
				},
				{
					"inputs": [
						{
							"internalType": "address",
							"name": "",
							"type": "address"
						},
						{
							"internalType": "uint256",
							"name": "",
							"type": "uint256"
						}
					],
					"name": "items",
					"outputs": [
						{
							"internalType": "bytes32",
							"name": "id",
							"type": "bytes32"
						},
						{
							"internalType": "address",
							"name": "seller",
							"type": "address"
						},
						{
							"internalType": "address",
							"name": "nftAddress",
							"type": "address"
						},
						{
							"internalType": "uint256",
							"name": "price",
							"type": "uint256"
						},
						{
							"internalType": "uint256",
							"name": "priceAnta",
							"type": "uint256"
						},
						{
							"internalType": "enum MarketplaceStorage.ItemStatus",
							"name": "status",
							"type": "uint8"
						}
					],
					"stateMutability": "view",
					"type": "function"
				}
			],
			"devdoc": {
				"kind": "dev",
				"methods": {},
				"version": 1
			},
			"evm": {
				"assembly": "    /* \"contracts/Marketplace2/Marketplace.sol\":13901:19098  contract NFTMarket is ReentrancyGuard, MarketplaceStorage {... */\n  mstore(0x40, 0x80)\n  callvalue\n  dup1\n  iszero\n  tag_1\n  jumpi\n  0x00\n  dup1\n  revert\ntag_1:\n  pop\n    /* \"contracts/Marketplace2/Marketplace.sol\":11020:11021  1 */\n  0x01\n    /* \"contracts/Marketplace2/Marketplace.sol\":11125:11132  _status */\n  0x00\n    /* \"contracts/Marketplace2/Marketplace.sol\":11125:11147  _status = _NOT_ENTERED */\n  sstore\n    /* \"contracts/Marketplace2/Marketplace.sol\":13901:19098  contract NFTMarket is ReentrancyGuard, MarketplaceStorage {... */\n  dataSize(sub_0)\n  dup1\n  dataOffset(sub_0)\n  0x00\n  codecopy\n  0x00\n  return\nstop\n\nsub_0: assembly {\n        /* \"contracts/Marketplace2/Marketplace.sol\":13901:19098  contract NFTMarket is ReentrancyGuard, MarketplaceStorage {... */\n      mstore(0x40, 0x80)\n      jumpi(tag_1, lt(calldatasize, 0x04))\n      shr(0xe0, calldataload(0x00))\n      dup1\n      0x5c80a435\n      gt\n      tag_15\n      jumpi\n      dup1\n      0xb7a60c7e\n      gt\n      tag_16\n      jumpi\n      dup1\n      0xb7a60c7e\n      eq\n      tag_11\n      jumpi\n      dup1\n      0xc23b139e\n      eq\n      tag_12\n      jumpi\n      dup1\n      0xc7be7a49\n      eq\n      tag_4\n      jumpi\n      dup1\n      0xf01b52dc\n      eq\n      tag_14\n      jumpi\n      0x00\n      dup1\n      revert\n    tag_16:\n      dup1\n      0x5c80a435\n      eq\n      tag_8\n      jumpi\n      dup1\n      0x85a8b36c\n      eq\n      tag_9\n      jumpi\n      dup1\n      0x92fc79fa\n      eq\n      tag_10\n      jumpi\n      0x00\n      dup1\n      revert\n    tag_15:\n      dup1\n      0x0f08efe0\n      eq\n      tag_2\n      jumpi\n      dup1\n      0x202e3740\n      eq\n      tag_3\n      jumpi\n      dup1\n      0x2a45b250\n      eq\n      tag_4\n      jumpi\n      dup1\n      0x2b4c32be\n      eq\n      tag_5\n      jumpi\n      dup1\n      0x49739678\n      eq\n      tag_6\n      jumpi\n      dup1\n      0x58eb2df5\n      eq\n      tag_7\n      jumpi\n    tag_1:\n      0x00\n      dup1\n      revert\n        /* \"contracts/Marketplace2/Marketplace.sol\":15929:16537  function fetchMarketItems() public view returns (MarketItem[] memory) {... */\n    tag_2:\n      callvalue\n      dup1\n      iszero\n      tag_17\n      jumpi\n      0x00\n      dup1\n      revert\n    tag_17:\n      pop\n      tag_18\n      tag_19\n      jump\t// in\n    tag_18:\n      mload(0x40)\n      tag_20\n      swap2\n      swap1\n      tag_21\n      jump\t// in\n    tag_20:\n      mload(0x40)\n      dup1\n      swap2\n      sub\n      swap1\n      return\n        /* \"contracts/Marketplace2/Marketplace.sol\":16541:17244  function fetchMyNFTs() public view returns (MarketItem[] memory) {... */\n    tag_3:\n      callvalue\n      dup1\n      iszero\n      tag_22\n      jumpi\n      0x00\n      dup1\n      revert\n    tag_22:\n      pop\n      tag_18\n      tag_24\n      jump\t// in\n        /* \"contracts/Marketplace2/Marketplace.sol\":15772:15925  function fetchMarketItem(uint itemId) public view returns (MarketItem memory) {... */\n    tag_4:\n      callvalue\n      dup1\n      iszero\n      tag_26\n      jumpi\n      0x00\n      dup1\n      revert\n    tag_26:\n      pop\n      tag_27\n      tag_28\n      calldatasize\n      0x04\n      tag_29\n      jump\t// in\n    tag_28:\n      tag_30\n      jump\t// in\n    tag_27:\n      mload(0x40)\n      tag_20\n      swap2\n      swap1\n      tag_32\n      jump\t// in\n        /* \"contracts/Marketplace2/Marketplace.sol\":12667:12727  bytes4 public constant ERC721_Interface = bytes4(0x80ac58cd) */\n    tag_5:\n      callvalue\n      dup1\n      iszero\n      tag_33\n      jumpi\n      0x00\n      dup1\n      revert\n    tag_33:\n      pop\n      tag_34\n      shl(0xe0, 0x80ac58cd)\n      dup2\n      jump\n    tag_34:\n      mload(0x40)\n      not(sub(shl(0xe0, 0x01), 0x01))\n        /* \"#utility.yul\":1821:1854   */\n      swap1\n      swap2\n      and\n        /* \"#utility.yul\":1803:1855   */\n      dup2\n      mstore\n        /* \"#utility.yul\":1791:1793   */\n      0x20\n        /* \"#utility.yul\":1776:1794   */\n      add\n        /* \"contracts/Marketplace2/Marketplace.sol\":12667:12727  bytes4 public constant ERC721_Interface = bytes4(0x80ac58cd) */\n      tag_20\n        /* \"#utility.yul\":1659:1861   */\n      jump\n        /* \"contracts/Marketplace2/Marketplace.sol\":12941:13036  mapping(address => mapping(uint256 => mapping(address => ItemOffer)))... */\n    tag_6:\n      callvalue\n      dup1\n      iszero\n      tag_38\n      jumpi\n      0x00\n      dup1\n      revert\n    tag_38:\n      pop\n      tag_39\n      tag_40\n      calldatasize\n      0x04\n      tag_41\n      jump\t// in\n    tag_40:\n      0x02\n      0x20\n      swap1\n      dup2\n      mstore\n      0x00\n      swap4\n      dup5\n      mstore\n      0x40\n      dup1\n      dup6\n      keccak256\n      dup3\n      mstore\n      swap3\n      dup5\n      mstore\n      dup3\n      dup5\n      keccak256\n      swap1\n      mstore\n      dup3\n      mstore\n      swap1\n      keccak256\n      dup1\n      sload\n      0x01\n      swap1\n      swap2\n      add\n      sload\n      dup3\n      jump\n    tag_39:\n      0x40\n      dup1\n      mload\n        /* \"#utility.yul\":2551:2576   */\n      swap3\n      dup4\n      mstore\n        /* \"#utility.yul\":2607:2609   */\n      0x20\n        /* \"#utility.yul\":2592:2610   */\n      dup4\n      add\n        /* \"#utility.yul\":2585:2619   */\n      swap2\n      swap1\n      swap2\n      mstore\n        /* \"#utility.yul\":2524:2542   */\n      add\n        /* \"contracts/Marketplace2/Marketplace.sol\":12941:13036  mapping(address => mapping(uint256 => mapping(address => ItemOffer)))... */\n      tag_20\n        /* \"#utility.yul\":2377:2625   */\n      jump\n        /* \"contracts/Marketplace2/Marketplace.sol\":14614:15240  function createMarketItem(... */\n    tag_7:\n      tag_45\n      tag_46\n      calldatasize\n      0x04\n      tag_47\n      jump\t// in\n    tag_46:\n      tag_48\n      jump\t// in\n    tag_45:\n      stop\n        /* \"contracts/Marketplace2/Marketplace.sol\":12805:12862  mapping(address => mapping(uint256 => Item)) public items */\n    tag_8:\n      callvalue\n      dup1\n      iszero\n      tag_49\n      jumpi\n      0x00\n      dup1\n      revert\n    tag_49:\n      pop\n      tag_50\n      tag_51\n      calldatasize\n      0x04\n      tag_52\n      jump\t// in\n    tag_51:\n      0x01\n      0x20\n      dup2\n      dup2\n      mstore\n      0x00\n      swap4\n      dup5\n      mstore\n      0x40\n      dup1\n      dup6\n      keccak256\n      swap1\n      swap2\n      mstore\n      swap2\n      dup4\n      mstore\n      swap2\n      keccak256\n      dup1\n      sload\n      swap2\n      dup2\n      add\n      sload\n      0x02\n      dup3\n      add\n      sload\n      0x03\n      dup4\n      add\n      sload\n      0x04\n      dup5\n      add\n      sload\n      0x05\n      swap1\n      swap5\n      add\n      sload\n      sub(shl(0xa0, 0x01), 0x01)\n      swap4\n      dup5\n      and\n      swap5\n      swap4\n      swap1\n      swap3\n      and\n      swap3\n      swap1\n      swap2\n      0xff\n      and\n      dup7\n      jump\n    tag_50:\n      mload(0x40)\n      tag_20\n      swap7\n      swap6\n      swap5\n      swap4\n      swap3\n      swap2\n      swap1\n      tag_55\n      jump\t// in\n        /* \"contracts/Marketplace2/Marketplace.sol\":13072:13098  uint8 public bnbFeePercent */\n    tag_9:\n      callvalue\n      dup1\n      iszero\n      tag_56\n      jumpi\n      0x00\n      dup1\n      revert\n    tag_56:\n      pop\n      sload(0x03)\n      tag_57\n      swap1\n      shl(0xa0, 0x01)\n      swap1\n      div\n      0xff\n      and\n      dup2\n      jump\n    tag_57:\n      mload(0x40)\n        /* \"#utility.yul\":4281:4285   */\n      0xff\n        /* \"#utility.yul\":4269:4286   */\n      swap1\n      swap2\n      and\n        /* \"#utility.yul\":4251:4287   */\n      dup2\n      mstore\n        /* \"#utility.yul\":4239:4241   */\n      0x20\n        /* \"#utility.yul\":4224:4242   */\n      add\n        /* \"contracts/Marketplace2/Marketplace.sol\":13072:13098  uint8 public bnbFeePercent */\n      tag_20\n        /* \"#utility.yul\":4109:4293   */\n      jump\n        /* \"contracts/Marketplace2/Marketplace.sol\":13042:13065  IERC20 public antaToken */\n    tag_10:\n      callvalue\n      dup1\n      iszero\n      tag_61\n      jumpi\n      0x00\n      dup1\n      revert\n    tag_61:\n      pop\n      sload(0x03)\n      tag_62\n      swap1\n      sub(shl(0xa0, 0x01), 0x01)\n      and\n      dup2\n      jump\n    tag_62:\n      mload(0x40)\n      sub(shl(0xa0, 0x01), 0x01)\n        /* \"#utility.yul\":4475:4507   */\n      swap1\n      swap2\n      and\n        /* \"#utility.yul\":4457:4508   */\n      dup2\n      mstore\n        /* \"#utility.yul\":4445:4447   */\n      0x20\n        /* \"#utility.yul\":4430:4448   */\n      add\n        /* \"contracts/Marketplace2/Marketplace.sol\":13042:13065  IERC20 public antaToken */\n      tag_20\n        /* \"#utility.yul\":4298:4514   */\n      jump\n        /* \"contracts/Marketplace2/Marketplace.sol\":13104:13131  uint8 public antaFeePercent */\n    tag_11:\n      callvalue\n      dup1\n      iszero\n      tag_66\n      jumpi\n      0x00\n      dup1\n      revert\n    tag_66:\n      pop\n      sload(0x03)\n      tag_57\n      swap1\n      shl(0xa8, 0x01)\n      swap1\n      div\n      0xff\n      and\n      dup2\n      jump\n        /* \"contracts/Marketplace2/Marketplace.sol\":15244:15768  function createMarketSale(... */\n    tag_12:\n      tag_45\n      tag_71\n      calldatasize\n      0x04\n      tag_52\n      jump\t// in\n    tag_71:\n      tag_72\n      jump\t// in\n        /* \"contracts/Marketplace2/Marketplace.sol\":17249:18547  function buyItemBySQF(... */\n    tag_14:\n      callvalue\n      dup1\n      iszero\n      tag_78\n      jumpi\n      0x00\n      dup1\n      revert\n    tag_78:\n      pop\n      tag_45\n      tag_80\n      calldatasize\n      0x04\n      tag_47\n      jump\t// in\n    tag_80:\n      tag_81\n      jump\t// in\n        /* \"contracts/Marketplace2/Marketplace.sol\":15929:16537  function fetchMarketItems() public view returns (MarketItem[] memory) {... */\n    tag_19:\n        /* \"contracts/Marketplace2/Marketplace.sol\":15978:15997  MarketItem[] memory */\n      0x60\n        /* \"contracts/Marketplace2/Marketplace.sol\":16005:16019  uint itemCount */\n      0x00\n        /* \"contracts/Marketplace2/Marketplace.sol\":16022:16040  _itemIds.current() */\n      tag_83\n        /* \"contracts/Marketplace2/Marketplace.sol\":16022:16030  _itemIds */\n      0x04\n        /* \"contracts/Marketplace2/Marketplace.sol\":8840:8854  counter._value */\n      sload\n      swap1\n        /* \"contracts/Marketplace2/Marketplace.sol\":8749:8861  function current(Counter storage counter) internal view returns (uint256) {... */\n      jump\n        /* \"contracts/Marketplace2/Marketplace.sol\":16022:16040  _itemIds.current() */\n    tag_83:\n        /* \"contracts/Marketplace2/Marketplace.sol\":16005:16040  uint itemCount = _itemIds.current() */\n      swap1\n      pop\n        /* \"contracts/Marketplace2/Marketplace.sol\":16046:16066  uint unsoldItemCount */\n      0x00\n        /* \"contracts/Marketplace2/Marketplace.sol\":16090:16110  _itemsSold.current() */\n      tag_85\n        /* \"contracts/Marketplace2/Marketplace.sol\":16090:16100  _itemsSold */\n      0x05\n        /* \"contracts/Marketplace2/Marketplace.sol\":8840:8854  counter._value */\n      sload\n      swap1\n        /* \"contracts/Marketplace2/Marketplace.sol\":8749:8861  function current(Counter storage counter) internal view returns (uint256) {... */\n      jump\n        /* \"contracts/Marketplace2/Marketplace.sol\":16090:16110  _itemsSold.current() */\n    tag_85:\n        /* \"contracts/Marketplace2/Marketplace.sol\":16069:16077  _itemIds */\n      0x04\n        /* \"contracts/Marketplace2/Marketplace.sol\":8840:8854  counter._value */\n      sload\n        /* \"contracts/Marketplace2/Marketplace.sol\":16069:16110  _itemIds.current() - _itemsSold.current() */\n      tag_87\n      swap2\n      swap1\n      tag_88\n      jump\t// in\n    tag_87:\n        /* \"contracts/Marketplace2/Marketplace.sol\":16046:16110  uint unsoldItemCount = _itemIds.current() - _itemsSold.current() */\n      swap1\n      pop\n        /* \"contracts/Marketplace2/Marketplace.sol\":16116:16133  uint currentIndex */\n      0x00\n        /* \"contracts/Marketplace2/Marketplace.sol\":16144:16169  MarketItem[] memory items */\n      dup1\n        /* \"contracts/Marketplace2/Marketplace.sol\":16189:16204  unsoldItemCount */\n      dup3\n        /* \"contracts/Marketplace2/Marketplace.sol\":16172:16205  new MarketItem[](unsoldItemCount) */\n      0xffffffffffffffff\n      dup2\n      gt\n      iszero\n      tag_90\n      jumpi\n      tag_90\n      tag_91\n      jump\t// in\n    tag_90:\n      mload(0x40)\n      swap1\n      dup1\n      dup3\n      mstore\n      dup1\n      0x20\n      mul\n      0x20\n      add\n      dup3\n      add\n      0x40\n      mstore\n      dup1\n      iszero\n      tag_92\n      jumpi\n      dup2\n      0x20\n      add\n    tag_93:\n      tag_94\n      tag_95\n      jump\t// in\n    tag_94:\n      dup2\n      mstore\n      0x20\n      add\n      swap1\n      0x01\n      swap1\n      sub\n      swap1\n      dup2\n      tag_93\n      jumpi\n      swap1\n      pop\n    tag_92:\n      pop\n        /* \"contracts/Marketplace2/Marketplace.sol\":16144:16205  MarketItem[] memory items = new MarketItem[](unsoldItemCount) */\n      swap1\n      pop\n        /* \"contracts/Marketplace2/Marketplace.sol\":16216:16222  uint i */\n      0x00\n        /* \"contracts/Marketplace2/Marketplace.sol\":16211:16511  for (uint i = 0; i < itemCount; i++) {... */\n    tag_96:\n        /* \"contracts/Marketplace2/Marketplace.sol\":16232:16241  itemCount */\n      dup5\n        /* \"contracts/Marketplace2/Marketplace.sol\":16228:16229  i */\n      dup2\n        /* \"contracts/Marketplace2/Marketplace.sol\":16228:16241  i < itemCount */\n      lt\n        /* \"contracts/Marketplace2/Marketplace.sol\":16211:16511  for (uint i = 0; i < itemCount; i++) {... */\n      iszero\n      tag_97\n      jumpi\n        /* \"contracts/Marketplace2/Marketplace.sol\":16299:16300  0 */\n      0x00\n        /* \"contracts/Marketplace2/Marketplace.sol\":16260:16274  idToMarketItem */\n      0x06\n        /* \"contracts/Marketplace2/Marketplace.sol\":16299:16300  0 */\n      dup2\n        /* \"contracts/Marketplace2/Marketplace.sol\":16275:16280  i + 1 */\n      tag_99\n        /* \"contracts/Marketplace2/Marketplace.sol\":16275:16276  i */\n      dup5\n        /* \"contracts/Marketplace2/Marketplace.sol\":16279:16280  1 */\n      0x01\n        /* \"contracts/Marketplace2/Marketplace.sol\":16275:16280  i + 1 */\n      tag_100\n      jump\t// in\n    tag_99:\n        /* \"contracts/Marketplace2/Marketplace.sol\":16260:16281  idToMarketItem[i + 1] */\n      dup2\n      mstore\n      0x20\n      dup2\n      add\n      swap2\n      swap1\n      swap2\n      mstore\n      0x40\n      add\n      0x00\n      keccak256\n        /* \"contracts/Marketplace2/Marketplace.sol\":16260:16287  idToMarketItem[i + 1].owner */\n      0x04\n      add\n      sload\n      sub(shl(0xa0, 0x01), 0x01)\n      and\n        /* \"contracts/Marketplace2/Marketplace.sol\":16260:16301  idToMarketItem[i + 1].owner == address(0) */\n      sub\n        /* \"contracts/Marketplace2/Marketplace.sol\":16256:16505  if (idToMarketItem[i + 1].owner == address(0)) {... */\n      tag_101\n      jumpi\n        /* \"contracts/Marketplace2/Marketplace.sol\":16313:16327  uint currentId */\n      0x00\n        /* \"contracts/Marketplace2/Marketplace.sol\":16330:16344  idToMarketItem */\n      0x06\n        /* \"contracts/Marketplace2/Marketplace.sol\":16313:16327  uint currentId */\n      dup2\n        /* \"contracts/Marketplace2/Marketplace.sol\":16345:16350  i + 1 */\n      tag_102\n        /* \"contracts/Marketplace2/Marketplace.sol\":16345:16346  i */\n      dup5\n        /* \"contracts/Marketplace2/Marketplace.sol\":16349:16350  1 */\n      0x01\n        /* \"contracts/Marketplace2/Marketplace.sol\":16345:16350  i + 1 */\n      tag_100\n      jump\t// in\n    tag_102:\n        /* \"contracts/Marketplace2/Marketplace.sol\":16330:16351  idToMarketItem[i + 1] */\n      dup2\n      mstore\n      0x20\n      dup1\n      dup3\n      add\n      swap3\n      swap1\n      swap3\n      mstore\n      0x40\n      swap1\n      dup2\n      add\n      0x00\n      swap1\n      dup2\n      keccak256\n        /* \"contracts/Marketplace2/Marketplace.sol\":16330:16358  idToMarketItem[i + 1].itemId */\n      sload\n        /* \"contracts/Marketplace2/Marketplace.sol\":16401:16426  idToMarketItem[currentId] */\n      dup1\n      dup3\n      mstore\n        /* \"contracts/Marketplace2/Marketplace.sol\":16401:16415  idToMarketItem */\n      0x06\n        /* \"contracts/Marketplace2/Marketplace.sol\":16401:16426  idToMarketItem[currentId] */\n      dup5\n      mstore\n      swap1\n      dup3\n      swap1\n      keccak256\n        /* \"contracts/Marketplace2/Marketplace.sol\":16436:16469  items[currentIndex] = currentItem */\n      dup3\n      mload\n      0xc0\n      dup2\n      add\n      dup5\n      mstore\n      dup2\n      sload\n      dup2\n      mstore\n      0x01\n      dup3\n      add\n      sload\n      sub(shl(0xa0, 0x01), 0x01)\n      swap1\n      dup2\n      and\n      swap6\n      dup3\n      add\n      swap6\n      swap1\n      swap6\n      mstore\n      0x02\n      dup3\n      add\n      sload\n      swap4\n      dup2\n      add\n      swap4\n      swap1\n      swap4\n      mstore\n      0x03\n      dup2\n      add\n      sload\n      dup5\n      and\n      0x60\n      dup5\n      add\n      mstore\n      0x04\n      dup2\n      add\n      sload\n      swap1\n      swap4\n      and\n      0x80\n      dup4\n      add\n      mstore\n      0x05\n      dup4\n      add\n      sload\n      0xa0\n      dup4\n      add\n      mstore\n        /* \"contracts/Marketplace2/Marketplace.sol\":16436:16455  items[currentIndex] */\n      dup6\n      mload\n        /* \"contracts/Marketplace2/Marketplace.sol\":16330:16358  idToMarketItem[i + 1].itemId */\n      swap1\n      swap4\n      pop\n        /* \"contracts/Marketplace2/Marketplace.sol\":16436:16441  items */\n      dup6\n      swap1\n        /* \"contracts/Marketplace2/Marketplace.sol\":16442:16454  currentIndex */\n      dup8\n      swap1\n        /* \"contracts/Marketplace2/Marketplace.sol\":16436:16455  items[currentIndex] */\n      dup2\n      lt\n      tag_104\n      jumpi\n      tag_104\n      tag_105\n      jump\t// in\n    tag_104:\n      0x20\n      swap1\n      dup2\n      mul\n      swap2\n      swap1\n      swap2\n      add\n      add\n        /* \"contracts/Marketplace2/Marketplace.sol\":16436:16469  items[currentIndex] = currentItem */\n      mstore\n        /* \"contracts/Marketplace2/Marketplace.sol\":16479:16496  currentIndex += 1 */\n      tag_106\n        /* \"contracts/Marketplace2/Marketplace.sol\":16495:16496  1 */\n      0x01\n        /* \"contracts/Marketplace2/Marketplace.sol\":16479:16496  currentIndex += 1 */\n      dup7\n      tag_100\n      jump\t// in\n    tag_106:\n      swap5\n      pop\n        /* \"contracts/Marketplace2/Marketplace.sol\":16303:16505  {... */\n      pop\n      pop\n        /* \"contracts/Marketplace2/Marketplace.sol\":16256:16505  if (idToMarketItem[i + 1].owner == address(0)) {... */\n    tag_101:\n        /* \"contracts/Marketplace2/Marketplace.sol\":16243:16246  i++ */\n      dup1\n      tag_107\n      dup2\n      tag_108\n      jump\t// in\n    tag_107:\n      swap2\n      pop\n      pop\n        /* \"contracts/Marketplace2/Marketplace.sol\":16211:16511  for (uint i = 0; i < itemCount; i++) {... */\n      jump(tag_96)\n    tag_97:\n      pop\n        /* \"contracts/Marketplace2/Marketplace.sol\":16527:16532  items */\n      swap5\n        /* \"contracts/Marketplace2/Marketplace.sol\":15929:16537  function fetchMarketItems() public view returns (MarketItem[] memory) {... */\n      swap4\n      pop\n      pop\n      pop\n      pop\n      jump\t// out\n        /* \"contracts/Marketplace2/Marketplace.sol\":16541:17244  function fetchMyNFTs() public view returns (MarketItem[] memory) {... */\n    tag_24:\n        /* \"contracts/Marketplace2/Marketplace.sol\":16585:16604  MarketItem[] memory */\n      0x60\n        /* \"contracts/Marketplace2/Marketplace.sol\":16612:16631  uint totalItemCount */\n      0x00\n        /* \"contracts/Marketplace2/Marketplace.sol\":16634:16652  _itemIds.current() */\n      tag_110\n        /* \"contracts/Marketplace2/Marketplace.sol\":16634:16642  _itemIds */\n      0x04\n        /* \"contracts/Marketplace2/Marketplace.sol\":8840:8854  counter._value */\n      sload\n      swap1\n        /* \"contracts/Marketplace2/Marketplace.sol\":8749:8861  function current(Counter storage counter) internal view returns (uint256) {... */\n      jump\n        /* \"contracts/Marketplace2/Marketplace.sol\":16634:16652  _itemIds.current() */\n    tag_110:\n        /* \"contracts/Marketplace2/Marketplace.sol\":16612:16652  uint totalItemCount = _itemIds.current() */\n      swap1\n      pop\n        /* \"contracts/Marketplace2/Marketplace.sol\":16658:16672  uint itemCount */\n      0x00\n        /* \"contracts/Marketplace2/Marketplace.sol\":16682:16699  uint currentIndex */\n      dup1\n        /* \"contracts/Marketplace2/Marketplace.sol\":16715:16721  uint i */\n      0x00\n        /* \"contracts/Marketplace2/Marketplace.sol\":16710:16846  for (uint i = 0; i < totalItemCount; i++) {... */\n    tag_111:\n        /* \"contracts/Marketplace2/Marketplace.sol\":16731:16745  totalItemCount */\n      dup4\n        /* \"contracts/Marketplace2/Marketplace.sol\":16727:16728  i */\n      dup2\n        /* \"contracts/Marketplace2/Marketplace.sol\":16727:16745  i < totalItemCount */\n      lt\n        /* \"contracts/Marketplace2/Marketplace.sol\":16710:16846  for (uint i = 0; i < totalItemCount; i++) {... */\n      iszero\n      tag_112\n      jumpi\n        /* \"contracts/Marketplace2/Marketplace.sol\":16795:16805  msg.sender */\n      caller\n        /* \"contracts/Marketplace2/Marketplace.sol\":16764:16778  idToMarketItem */\n      0x06\n        /* \"contracts/Marketplace2/Marketplace.sol\":16764:16785  idToMarketItem[i + 1] */\n      0x00\n        /* \"contracts/Marketplace2/Marketplace.sol\":16779:16784  i + 1 */\n      tag_114\n        /* \"contracts/Marketplace2/Marketplace.sol\":16779:16780  i */\n      dup5\n        /* \"contracts/Marketplace2/Marketplace.sol\":16783:16784  1 */\n      0x01\n        /* \"contracts/Marketplace2/Marketplace.sol\":16779:16784  i + 1 */\n      tag_100\n      jump\t// in\n    tag_114:\n        /* \"contracts/Marketplace2/Marketplace.sol\":16764:16785  idToMarketItem[i + 1] */\n      dup2\n      mstore\n      0x20\n      dup2\n      add\n      swap2\n      swap1\n      swap2\n      mstore\n      0x40\n      add\n      0x00\n      keccak256\n        /* \"contracts/Marketplace2/Marketplace.sol\":16764:16791  idToMarketItem[i + 1].owner */\n      0x04\n      add\n      sload\n      sub(shl(0xa0, 0x01), 0x01)\n      and\n        /* \"contracts/Marketplace2/Marketplace.sol\":16764:16805  idToMarketItem[i + 1].owner == msg.sender */\n      sub\n        /* \"contracts/Marketplace2/Marketplace.sol\":16760:16840  if (idToMarketItem[i + 1].owner == msg.sender) {... */\n      tag_115\n      jumpi\n        /* \"contracts/Marketplace2/Marketplace.sol\":16817:16831  itemCount += 1 */\n      tag_116\n        /* \"contracts/Marketplace2/Marketplace.sol\":16830:16831  1 */\n      0x01\n        /* \"contracts/Marketplace2/Marketplace.sol\":16817:16831  itemCount += 1 */\n      dup5\n      tag_100\n      jump\t// in\n    tag_116:\n      swap3\n      pop\n        /* \"contracts/Marketplace2/Marketplace.sol\":16760:16840  if (idToMarketItem[i + 1].owner == msg.sender) {... */\n    tag_115:\n        /* \"contracts/Marketplace2/Marketplace.sol\":16747:16750  i++ */\n      dup1\n      tag_117\n      dup2\n      tag_108\n      jump\t// in\n    tag_117:\n      swap2\n      pop\n      pop\n        /* \"contracts/Marketplace2/Marketplace.sol\":16710:16846  for (uint i = 0; i < totalItemCount; i++) {... */\n      jump(tag_111)\n    tag_112:\n      pop\n        /* \"contracts/Marketplace2/Marketplace.sol\":16852:16877  MarketItem[] memory items */\n      0x00\n        /* \"contracts/Marketplace2/Marketplace.sol\":16897:16906  itemCount */\n      dup3\n        /* \"contracts/Marketplace2/Marketplace.sol\":16880:16907  new MarketItem[](itemCount) */\n      0xffffffffffffffff\n      dup2\n      gt\n      iszero\n      tag_119\n      jumpi\n      tag_119\n      tag_91\n      jump\t// in\n    tag_119:\n      mload(0x40)\n      swap1\n      dup1\n      dup3\n      mstore\n      dup1\n      0x20\n      mul\n      0x20\n      add\n      dup3\n      add\n      0x40\n      mstore\n      dup1\n      iszero\n      tag_120\n      jumpi\n      dup2\n      0x20\n      add\n    tag_121:\n      tag_122\n      tag_95\n      jump\t// in\n    tag_122:\n      dup2\n      mstore\n      0x20\n      add\n      swap1\n      0x01\n      swap1\n      sub\n      swap1\n      dup2\n      tag_121\n      jumpi\n      swap1\n      pop\n    tag_120:\n      pop\n        /* \"contracts/Marketplace2/Marketplace.sol\":16852:16907  MarketItem[] memory items = new MarketItem[](itemCount) */\n      swap1\n      pop\n        /* \"contracts/Marketplace2/Marketplace.sol\":16918:16924  uint i */\n      0x00\n        /* \"contracts/Marketplace2/Marketplace.sol\":16913:17218  for (uint i = 0; i < totalItemCount; i++) {... */\n    tag_123:\n        /* \"contracts/Marketplace2/Marketplace.sol\":16934:16948  totalItemCount */\n      dup5\n        /* \"contracts/Marketplace2/Marketplace.sol\":16930:16931  i */\n      dup2\n        /* \"contracts/Marketplace2/Marketplace.sol\":16930:16948  i < totalItemCount */\n      lt\n        /* \"contracts/Marketplace2/Marketplace.sol\":16913:17218  for (uint i = 0; i < totalItemCount; i++) {... */\n      iszero\n      tag_97\n      jumpi\n        /* \"contracts/Marketplace2/Marketplace.sol\":16998:17008  msg.sender */\n      caller\n        /* \"contracts/Marketplace2/Marketplace.sol\":16967:16981  idToMarketItem */\n      0x06\n        /* \"contracts/Marketplace2/Marketplace.sol\":16967:16988  idToMarketItem[i + 1] */\n      0x00\n        /* \"contracts/Marketplace2/Marketplace.sol\":16982:16987  i + 1 */\n      tag_126\n        /* \"contracts/Marketplace2/Marketplace.sol\":16982:16983  i */\n      dup5\n        /* \"contracts/Marketplace2/Marketplace.sol\":16986:16987  1 */\n      0x01\n        /* \"contracts/Marketplace2/Marketplace.sol\":16982:16987  i + 1 */\n      tag_100\n      jump\t// in\n    tag_126:\n        /* \"contracts/Marketplace2/Marketplace.sol\":16967:16988  idToMarketItem[i + 1] */\n      dup2\n      mstore\n      0x20\n      dup2\n      add\n      swap2\n      swap1\n      swap2\n      mstore\n      0x40\n      add\n      0x00\n      keccak256\n        /* \"contracts/Marketplace2/Marketplace.sol\":16967:16994  idToMarketItem[i + 1].owner */\n      0x04\n      add\n      sload\n      sub(shl(0xa0, 0x01), 0x01)\n      and\n        /* \"contracts/Marketplace2/Marketplace.sol\":16967:17008  idToMarketItem[i + 1].owner == msg.sender */\n      sub\n        /* \"contracts/Marketplace2/Marketplace.sol\":16963:17212  if (idToMarketItem[i + 1].owner == msg.sender) {... */\n      tag_127\n      jumpi\n        /* \"contracts/Marketplace2/Marketplace.sol\":17020:17034  uint currentId */\n      0x00\n        /* \"contracts/Marketplace2/Marketplace.sol\":17037:17051  idToMarketItem */\n      0x06\n        /* \"contracts/Marketplace2/Marketplace.sol\":17020:17034  uint currentId */\n      dup2\n        /* \"contracts/Marketplace2/Marketplace.sol\":17052:17057  i + 1 */\n      tag_128\n        /* \"contracts/Marketplace2/Marketplace.sol\":17052:17053  i */\n      dup5\n        /* \"contracts/Marketplace2/Marketplace.sol\":17056:17057  1 */\n      0x01\n        /* \"contracts/Marketplace2/Marketplace.sol\":17052:17057  i + 1 */\n      tag_100\n      jump\t// in\n    tag_128:\n        /* \"contracts/Marketplace2/Marketplace.sol\":17037:17058  idToMarketItem[i + 1] */\n      dup2\n      mstore\n      0x20\n      dup1\n      dup3\n      add\n      swap3\n      swap1\n      swap3\n      mstore\n      0x40\n      swap1\n      dup2\n      add\n      0x00\n      swap1\n      dup2\n      keccak256\n        /* \"contracts/Marketplace2/Marketplace.sol\":17037:17065  idToMarketItem[i + 1].itemId */\n      sload\n        /* \"contracts/Marketplace2/Marketplace.sol\":17108:17133  idToMarketItem[currentId] */\n      dup1\n      dup3\n      mstore\n        /* \"contracts/Marketplace2/Marketplace.sol\":17108:17122  idToMarketItem */\n      0x06\n        /* \"contracts/Marketplace2/Marketplace.sol\":17108:17133  idToMarketItem[currentId] */\n      dup5\n      mstore\n      swap1\n      dup3\n      swap1\n      keccak256\n        /* \"contracts/Marketplace2/Marketplace.sol\":17143:17176  items[currentIndex] = currentItem */\n      dup3\n      mload\n      0xc0\n      dup2\n      add\n      dup5\n      mstore\n      dup2\n      sload\n      dup2\n      mstore\n      0x01\n      dup3\n      add\n      sload\n      sub(shl(0xa0, 0x01), 0x01)\n      swap1\n      dup2\n      and\n      swap6\n      dup3\n      add\n      swap6\n      swap1\n      swap6\n      mstore\n      0x02\n      dup3\n      add\n      sload\n      swap4\n      dup2\n      add\n      swap4\n      swap1\n      swap4\n      mstore\n      0x03\n      dup2\n      add\n      sload\n      dup5\n      and\n      0x60\n      dup5\n      add\n      mstore\n      0x04\n      dup2\n      add\n      sload\n      swap1\n      swap4\n      and\n      0x80\n      dup4\n      add\n      mstore\n      0x05\n      dup4\n      add\n      sload\n      0xa0\n      dup4\n      add\n      mstore\n        /* \"contracts/Marketplace2/Marketplace.sol\":17143:17162  items[currentIndex] */\n      dup6\n      mload\n        /* \"contracts/Marketplace2/Marketplace.sol\":17037:17065  idToMarketItem[i + 1].itemId */\n      swap1\n      swap4\n      pop\n        /* \"contracts/Marketplace2/Marketplace.sol\":17143:17148  items */\n      dup6\n      swap1\n        /* \"contracts/Marketplace2/Marketplace.sol\":17149:17161  currentIndex */\n      dup8\n      swap1\n        /* \"contracts/Marketplace2/Marketplace.sol\":17143:17162  items[currentIndex] */\n      dup2\n      lt\n      tag_130\n      jumpi\n      tag_130\n      tag_105\n      jump\t// in\n    tag_130:\n      0x20\n      swap1\n      dup2\n      mul\n      swap2\n      swap1\n      swap2\n      add\n      add\n        /* \"contracts/Marketplace2/Marketplace.sol\":17143:17176  items[currentIndex] = currentItem */\n      mstore\n        /* \"contracts/Marketplace2/Marketplace.sol\":17186:17203  currentIndex += 1 */\n      tag_131\n        /* \"contracts/Marketplace2/Marketplace.sol\":17202:17203  1 */\n      0x01\n        /* \"contracts/Marketplace2/Marketplace.sol\":17186:17203  currentIndex += 1 */\n      dup7\n      tag_100\n      jump\t// in\n    tag_131:\n      swap5\n      pop\n        /* \"contracts/Marketplace2/Marketplace.sol\":17010:17212  {... */\n      pop\n      pop\n        /* \"contracts/Marketplace2/Marketplace.sol\":16963:17212  if (idToMarketItem[i + 1].owner == msg.sender) {... */\n    tag_127:\n        /* \"contracts/Marketplace2/Marketplace.sol\":16950:16953  i++ */\n      dup1\n      tag_132\n      dup2\n      tag_108\n      jump\t// in\n    tag_132:\n      swap2\n      pop\n      pop\n        /* \"contracts/Marketplace2/Marketplace.sol\":16913:17218  for (uint i = 0; i < totalItemCount; i++) {... */\n      jump(tag_123)\n        /* \"contracts/Marketplace2/Marketplace.sol\":15772:15925  function fetchMarketItem(uint itemId) public view returns (MarketItem memory) {... */\n    tag_30:\n        /* \"contracts/Marketplace2/Marketplace.sol\":15831:15848  MarketItem memory */\n      tag_133\n      tag_95\n      jump\t// in\n    tag_133:\n      pop\n        /* \"contracts/Marketplace2/Marketplace.sol\":15856:15878  MarketItem memory item */\n      0x00\n        /* \"contracts/Marketplace2/Marketplace.sol\":15881:15903  idToMarketItem[itemId] */\n      swap1\n      dup2\n      mstore\n        /* \"contracts/Marketplace2/Marketplace.sol\":15881:15895  idToMarketItem */\n      0x06\n        /* \"contracts/Marketplace2/Marketplace.sol\":15881:15903  idToMarketItem[itemId] */\n      0x20\n      swap1\n      dup2\n      mstore\n      0x40\n      swap2\n      dup3\n      swap1\n      keccak256\n        /* \"contracts/Marketplace2/Marketplace.sol\":15856:15903  MarketItem memory item = idToMarketItem[itemId] */\n      dup3\n      mload\n      0xc0\n      dup2\n      add\n      dup5\n      mstore\n      dup2\n      sload\n      dup2\n      mstore\n      0x01\n      dup3\n      add\n      sload\n      sub(shl(0xa0, 0x01), 0x01)\n      swap1\n      dup2\n      and\n      swap4\n      dup3\n      add\n      swap4\n      swap1\n      swap4\n      mstore\n      0x02\n      dup3\n      add\n      sload\n      swap4\n      dup2\n      add\n      swap4\n      swap1\n      swap4\n      mstore\n      0x03\n      dup2\n      add\n      sload\n      dup3\n      and\n      0x60\n      dup5\n      add\n      mstore\n      0x04\n      dup2\n      add\n      sload\n      swap1\n      swap2\n      and\n      0x80\n      dup4\n      add\n      mstore\n      0x05\n      add\n      sload\n      0xa0\n      dup3\n      add\n      mstore\n      swap1\n        /* \"contracts/Marketplace2/Marketplace.sol\":15772:15925  function fetchMarketItem(uint itemId) public view returns (MarketItem memory) {... */\n      jump\t// out\n        /* \"contracts/Marketplace2/Marketplace.sol\":14614:15240  function createMarketItem(... */\n    tag_48:\n        /* \"contracts/Marketplace2/Marketplace.sol\":11063:11064  2 */\n      0x02\n        /* \"contracts/Marketplace2/Marketplace.sol\":11644:11651  _status */\n      sload(0x00)\n        /* \"contracts/Marketplace2/Marketplace.sol\":11644:11663  _status != _ENTERED */\n      sub\n        /* \"contracts/Marketplace2/Marketplace.sol\":11636:11699  require(_status != _ENTERED, \"ReentrancyGuard: reentrant call\") */\n      tag_136\n      jumpi\n      mload(0x40)\n      shl(0xe5, 0x461bcd)\n      dup2\n      mstore\n        /* \"#utility.yul\":5520:5522   */\n      0x20\n        /* \"contracts/Marketplace2/Marketplace.sol\":11636:11699  require(_status != _ENTERED, \"ReentrancyGuard: reentrant call\") */\n      0x04\n      dup3\n      add\n        /* \"#utility.yul\":5502:5523   */\n      mstore\n        /* \"#utility.yul\":5559:5561   */\n      0x1f\n        /* \"#utility.yul\":5539:5557   */\n      0x24\n      dup3\n      add\n        /* \"#utility.yul\":5532:5562   */\n      mstore\n        /* \"#utility.yul\":5598:5631   */\n      0x5265656e7472616e637947756172643a207265656e7472616e742063616c6c00\n        /* \"#utility.yul\":5578:5596   */\n      0x44\n      dup3\n      add\n        /* \"#utility.yul\":5571:5632   */\n      mstore\n        /* \"#utility.yul\":5649:5667   */\n      0x64\n      add\n        /* \"contracts/Marketplace2/Marketplace.sol\":11636:11699  require(_status != _ENTERED, \"ReentrancyGuard: reentrant call\") */\n    tag_137:\n      mload(0x40)\n      dup1\n      swap2\n      sub\n      swap1\n      revert\n    tag_136:\n        /* \"contracts/Marketplace2/Marketplace.sol\":11063:11064  2 */\n      0x02\n        /* \"contracts/Marketplace2/Marketplace.sol\":11774:11781  _status */\n      0x00\n        /* \"contracts/Marketplace2/Marketplace.sol\":11774:11792  _status = _ENTERED */\n      sstore\n        /* \"contracts/Marketplace2/Marketplace.sol\":14751:14760  price > 0 */\n      dup1\n        /* \"contracts/Marketplace2/Marketplace.sol\":14743:14793  require(price > 0, \"Price must be at least 1 wei\") */\n      tag_140\n      jumpi\n      mload(0x40)\n      shl(0xe5, 0x461bcd)\n      dup2\n      mstore\n        /* \"#utility.yul\":5880:5882   */\n      0x20\n        /* \"contracts/Marketplace2/Marketplace.sol\":14743:14793  require(price > 0, \"Price must be at least 1 wei\") */\n      0x04\n      dup3\n      add\n        /* \"#utility.yul\":5862:5883   */\n      mstore\n        /* \"#utility.yul\":5919:5921   */\n      0x1c\n        /* \"#utility.yul\":5899:5917   */\n      0x24\n      dup3\n      add\n        /* \"#utility.yul\":5892:5922   */\n      mstore\n        /* \"#utility.yul\":5958:5988   */\n      0x5072696365206d757374206265206174206c6561737420312077656900000000\n        /* \"#utility.yul\":5938:5956   */\n      0x44\n      dup3\n      add\n        /* \"#utility.yul\":5931:5989   */\n      mstore\n        /* \"#utility.yul\":6006:6024   */\n      0x64\n      add\n        /* \"contracts/Marketplace2/Marketplace.sol\":14743:14793  require(price > 0, \"Price must be at least 1 wei\") */\n      tag_137\n        /* \"#utility.yul\":5678:6030   */\n      jump\n        /* \"contracts/Marketplace2/Marketplace.sol\":14743:14793  require(price > 0, \"Price must be at least 1 wei\") */\n    tag_140:\n        /* \"contracts/Marketplace2/Marketplace.sol\":14800:14820  _itemIds.increment() */\n      tag_143\n        /* \"contracts/Marketplace2/Marketplace.sol\":14800:14808  _itemIds */\n      0x04\n        /* \"contracts/Marketplace2/Marketplace.sol\":8954:8973  counter._value += 1 */\n      dup1\n      sload\n        /* \"contracts/Marketplace2/Marketplace.sol\":8972:8973  1 */\n      0x01\n        /* \"contracts/Marketplace2/Marketplace.sol\":8954:8973  counter._value += 1 */\n      add\n      swap1\n      sstore\n        /* \"contracts/Marketplace2/Marketplace.sol\":8867:8990  function increment(Counter storage counter) internal {... */\n      jump\n        /* \"contracts/Marketplace2/Marketplace.sol\":14800:14820  _itemIds.increment() */\n    tag_143:\n        /* \"contracts/Marketplace2/Marketplace.sol\":14826:14840  uint256 itemId */\n      0x00\n        /* \"contracts/Marketplace2/Marketplace.sol\":14843:14861  _itemIds.current() */\n      tag_145\n        /* \"contracts/Marketplace2/Marketplace.sol\":14843:14851  _itemIds */\n      0x04\n        /* \"contracts/Marketplace2/Marketplace.sol\":8840:8854  counter._value */\n      sload\n      swap1\n        /* \"contracts/Marketplace2/Marketplace.sol\":8749:8861  function current(Counter storage counter) internal view returns (uint256) {... */\n      jump\n        /* \"contracts/Marketplace2/Marketplace.sol\":14843:14861  _itemIds.current() */\n    tag_145:\n        /* \"contracts/Marketplace2/Marketplace.sol\":14896:15027  MarketItem(... */\n      0x40\n      dup1\n      mload\n      0xc0\n      dup2\n      add\n      dup3\n      mstore\n      dup3\n      dup2\n      mstore\n      sub(shl(0xa0, 0x01), 0x01)\n      dup1\n      dup9\n      and\n      0x20\n      dup1\n      dup5\n      add\n      dup3\n      dup2\n      mstore\n      dup5\n      dup7\n      add\n      dup11\n      dup2\n      mstore\n        /* \"contracts/Marketplace2/Marketplace.sol\":14970:14980  msg.sender */\n      caller\n        /* \"contracts/Marketplace2/Marketplace.sol\":14896:15027  MarketItem(... */\n      0x60\n      dup8\n      add\n      dup2\n      dup2\n      mstore\n      0x00\n      0x80\n      dup10\n      add\n      dup2\n      dup2\n      mstore\n      0xa0\n      dup11\n      add\n      dup15\n      dup2\n      mstore\n        /* \"contracts/Marketplace2/Marketplace.sol\":14870:14892  idToMarketItem[itemId] */\n      dup13\n      dup4\n      mstore\n        /* \"contracts/Marketplace2/Marketplace.sol\":14870:14884  idToMarketItem */\n      0x06\n        /* \"contracts/Marketplace2/Marketplace.sol\":14870:14892  idToMarketItem[itemId] */\n      swap1\n      swap8\n      mstore\n      swap1\n      dup11\n      swap1\n      keccak256\n        /* \"contracts/Marketplace2/Marketplace.sol\":14870:15027  idToMarketItem[itemId] =  MarketItem(... */\n      swap9\n      mload\n      dup10\n      sstore\n      swap4\n      mload\n      0x01\n      dup10\n      add\n      dup1\n      sload\n      swap2\n      dup10\n      and\n      not(sub(shl(0xa0, 0x01), 0x01))\n      swap3\n      dup4\n      and\n      or\n      swap1\n      sstore\n      swap3\n      mload\n      0x02\n      dup10\n      add\n      sstore\n      mload\n      0x03\n      dup9\n      add\n      dup1\n      sload\n      swap2\n      dup9\n      and\n      swap2\n      dup5\n      and\n      swap2\n      swap1\n      swap2\n      or\n      swap1\n      sstore\n      swap2\n      mload\n      0x04\n      dup1\n      dup9\n      add\n      dup1\n      sload\n      swap3\n      swap1\n      swap8\n      and\n      swap2\n      swap1\n      swap3\n      and\n      or\n      swap1\n      swap5\n      sstore\n      swap1\n      mload\n      0x05\n      swap1\n      swap5\n      add\n      swap4\n      swap1\n      swap4\n      sstore\n        /* \"contracts/Marketplace2/Marketplace.sol\":15034:15103  IERC721(nftContract).transferFrom(msg.sender, address(this), tokenId) */\n      swap3\n      mload\n      shl(0xe0, 0x23b872dd)\n      dup2\n      mstore\n        /* \"contracts/Marketplace2/Marketplace.sol\":14826:14861  uint256 itemId = _itemIds.current() */\n      swap4\n      swap5\n      pop\n        /* \"contracts/Marketplace2/Marketplace.sol\":14896:15027  MarketItem(... */\n      swap2\n      swap3\n        /* \"contracts/Marketplace2/Marketplace.sol\":15034:15067  IERC721(nftContract).transferFrom */\n      0x23b872dd\n      swap3\n        /* \"contracts/Marketplace2/Marketplace.sol\":15034:15103  IERC721(nftContract).transferFrom(msg.sender, address(this), tokenId) */\n      tag_146\n      swap3\n        /* \"contracts/Marketplace2/Marketplace.sol\":14970:14980  msg.sender */\n      swap2\n        /* \"contracts/Marketplace2/Marketplace.sol\":15088:15092  this */\n      address\n      swap2\n        /* \"contracts/Marketplace2/Marketplace.sol\":14947:14954  tokenId */\n      dup10\n      swap2\n        /* \"contracts/Marketplace2/Marketplace.sol\":15034:15103  IERC721(nftContract).transferFrom(msg.sender, address(this), tokenId) */\n      add\n      tag_147\n      jump\t// in\n    tag_146:\n      0x00\n      mload(0x40)\n      dup1\n      dup4\n      sub\n      dup2\n      0x00\n      dup8\n      dup1\n      extcodesize\n      iszero\n      dup1\n      iszero\n      tag_148\n      jumpi\n      0x00\n      dup1\n      revert\n    tag_148:\n      pop\n      gas\n      call\n      iszero\n      dup1\n      iszero\n      tag_150\n      jumpi\n      returndatasize\n      0x00\n      dup1\n      returndatacopy\n      revert(0x00, returndatasize)\n    tag_150:\n      pop\n      pop\n      pop\n      pop\n        /* \"contracts/Marketplace2/Marketplace.sol\":15173:15180  tokenId */\n      dup3\n        /* \"contracts/Marketplace2/Marketplace.sol\":15154:15165  nftContract */\n      dup5\n      sub(shl(0xa0, 0x01), 0x01)\n        /* \"contracts/Marketplace2/Marketplace.sol\":15115:15235  MarketItemCreated(... */\n      and\n        /* \"contracts/Marketplace2/Marketplace.sol\":15140:15146  itemId */\n      dup3\n        /* \"contracts/Marketplace2/Marketplace.sol\":15115:15235  MarketItemCreated(... */\n      0x2ad024d53a0dc50c130967f8d4941927ee087ea31394cebb2b9599d3706c9c00\n        /* \"contracts/Marketplace2/Marketplace.sol\":15188:15198  msg.sender */\n      caller\n        /* \"contracts/Marketplace2/Marketplace.sol\":15214:15215  0 */\n      0x00\n        /* \"contracts/Marketplace2/Marketplace.sol\":15224:15229  price */\n      dup8\n        /* \"contracts/Marketplace2/Marketplace.sol\":15115:15235  MarketItemCreated(... */\n      mload(0x40)\n      tag_151\n      swap4\n      swap3\n      swap2\n      swap1\n      tag_147\n      jump\t// in\n    tag_151:\n      mload(0x40)\n      dup1\n      swap2\n      sub\n      swap1\n      log4\n      pop\n      pop\n        /* \"contracts/Marketplace2/Marketplace.sol\":11020:11021  1 */\n      0x01\n        /* \"contracts/Marketplace2/Marketplace.sol\":11947:11954  _status */\n      0x00\n        /* \"contracts/Marketplace2/Marketplace.sol\":11947:11969  _status = _NOT_ENTERED */\n      sstore\n      pop\n      pop\n        /* \"contracts/Marketplace2/Marketplace.sol\":14614:15240  function createMarketItem(... */\n      jump\t// out\n        /* \"contracts/Marketplace2/Marketplace.sol\":15244:15768  function createMarketSale(... */\n    tag_72:\n        /* \"contracts/Marketplace2/Marketplace.sol\":11063:11064  2 */\n      0x02\n        /* \"contracts/Marketplace2/Marketplace.sol\":11644:11651  _status */\n      sload(0x00)\n        /* \"contracts/Marketplace2/Marketplace.sol\":11644:11663  _status != _ENTERED */\n      sub\n        /* \"contracts/Marketplace2/Marketplace.sol\":11636:11699  require(_status != _ENTERED, \"ReentrancyGuard: reentrant call\") */\n      tag_153\n      jumpi\n      mload(0x40)\n      shl(0xe5, 0x461bcd)\n      dup2\n      mstore\n        /* \"#utility.yul\":5520:5522   */\n      0x20\n        /* \"contracts/Marketplace2/Marketplace.sol\":11636:11699  require(_status != _ENTERED, \"ReentrancyGuard: reentrant call\") */\n      0x04\n      dup3\n      add\n        /* \"#utility.yul\":5502:5523   */\n      mstore\n        /* \"#utility.yul\":5559:5561   */\n      0x1f\n        /* \"#utility.yul\":5539:5557   */\n      0x24\n      dup3\n      add\n        /* \"#utility.yul\":5532:5562   */\n      mstore\n        /* \"#utility.yul\":5598:5631   */\n      0x5265656e7472616e637947756172643a207265656e7472616e742063616c6c00\n        /* \"#utility.yul\":5578:5596   */\n      0x44\n      dup3\n      add\n        /* \"#utility.yul\":5571:5632   */\n      mstore\n        /* \"#utility.yul\":5649:5667   */\n      0x64\n      add\n        /* \"contracts/Marketplace2/Marketplace.sol\":11636:11699  require(_status != _ENTERED, \"ReentrancyGuard: reentrant call\") */\n      tag_137\n        /* \"#utility.yul\":5318:5673   */\n      jump\n        /* \"contracts/Marketplace2/Marketplace.sol\":11636:11699  require(_status != _ENTERED, \"ReentrancyGuard: reentrant call\") */\n    tag_153:\n        /* \"contracts/Marketplace2/Marketplace.sol\":11063:11064  2 */\n      0x02\n        /* \"contracts/Marketplace2/Marketplace.sol\":11774:11781  _status */\n      0x00\n        /* \"contracts/Marketplace2/Marketplace.sol\":11774:11792  _status = _ENTERED */\n      dup2\n      dup2\n      sstore\n        /* \"contracts/Marketplace2/Marketplace.sol\":15368:15390  idToMarketItem[itemId] */\n      dup3\n      dup2\n      mstore\n        /* \"contracts/Marketplace2/Marketplace.sol\":15368:15382  idToMarketItem */\n      0x06\n        /* \"contracts/Marketplace2/Marketplace.sol\":15368:15390  idToMarketItem[itemId] */\n      0x20\n      mstore\n      0x40\n      swap1\n      keccak256\n        /* \"contracts/Marketplace2/Marketplace.sol\":15368:15396  idToMarketItem[itemId].price */\n      0x05\n      dup2\n      add\n      sload\n        /* \"contracts/Marketplace2/Marketplace.sol\":15417:15447  idToMarketItem[itemId].tokenId */\n      swap2\n      add\n      sload\n        /* \"contracts/Marketplace2/Marketplace.sol\":15461:15470  msg.value */\n      callvalue\n        /* \"contracts/Marketplace2/Marketplace.sol\":15461:15479  msg.value == price */\n      dup3\n      eq\n        /* \"contracts/Marketplace2/Marketplace.sol\":15453:15548  require(msg.value == price, \"Please submit the asking price in order to complete the purchase\") */\n      tag_156\n      jumpi\n      0x40\n      dup1\n      mload\n      shl(0xe5, 0x461bcd)\n      dup2\n      mstore\n        /* \"#utility.yul\":6617:6619   */\n      0x20\n        /* \"contracts/Marketplace2/Marketplace.sol\":15453:15548  require(msg.value == price, \"Please submit the asking price in order to complete the purchase\") */\n      0x04\n      dup3\n      add\n        /* \"#utility.yul\":6599:6620   */\n      mstore\n        /* \"#utility.yul\":6636:6654   */\n      0x24\n      dup2\n      add\n        /* \"#utility.yul\":6629:6659   */\n      swap2\n      swap1\n      swap2\n      mstore\n        /* \"#utility.yul\":6695:6729   */\n      0x506c65617365207375626d6974207468652061736b696e672070726963652069\n        /* \"#utility.yul\":6675:6693   */\n      0x44\n      dup3\n      add\n        /* \"#utility.yul\":6668:6730   */\n      mstore\n        /* \"#utility.yul\":6766:6800   */\n      0x6e206f7264657220746f20636f6d706c65746520746865207075726368617365\n        /* \"#utility.yul\":6746:6764   */\n      0x64\n      dup3\n      add\n        /* \"#utility.yul\":6739:6801   */\n      mstore\n        /* \"#utility.yul\":6818:6837   */\n      0x84\n      add\n        /* \"contracts/Marketplace2/Marketplace.sol\":15453:15548  require(msg.value == price, \"Please submit the asking price in order to complete the purchase\") */\n      tag_137\n        /* \"#utility.yul\":6415:6843   */\n      jump\n        /* \"contracts/Marketplace2/Marketplace.sol\":15453:15548  require(msg.value == price, \"Please submit the asking price in order to complete the purchase\") */\n    tag_156:\n        /* \"contracts/Marketplace2/Marketplace.sol\":15555:15577  idToMarketItem[itemId] */\n      0x00\n      dup4\n      dup2\n      mstore\n        /* \"contracts/Marketplace2/Marketplace.sol\":15555:15569  idToMarketItem */\n      0x06\n        /* \"contracts/Marketplace2/Marketplace.sol\":15555:15577  idToMarketItem[itemId] */\n      0x20\n      mstore\n      0x40\n      dup1\n      dup3\n      keccak256\n        /* \"contracts/Marketplace2/Marketplace.sol\":15555:15584  idToMarketItem[itemId].seller */\n      0x03\n      add\n      sload\n        /* \"contracts/Marketplace2/Marketplace.sol\":15555:15604  idToMarketItem[itemId].seller.transfer(msg.value) */\n      swap1\n      mload\n      sub(shl(0xa0, 0x01), 0x01)\n        /* \"contracts/Marketplace2/Marketplace.sol\":15555:15584  idToMarketItem[itemId].seller */\n      swap1\n      swap2\n      and\n      swap2\n        /* \"contracts/Marketplace2/Marketplace.sol\":15594:15603  msg.value */\n      callvalue\n        /* \"contracts/Marketplace2/Marketplace.sol\":15555:15604  idToMarketItem[itemId].seller.transfer(msg.value) */\n      dup1\n      iszero\n      0x08fc\n      mul\n      swap3\n        /* \"contracts/Marketplace2/Marketplace.sol\":15594:15603  msg.value */\n      swap1\n      swap2\n        /* \"contracts/Marketplace2/Marketplace.sol\":15555:15604  idToMarketItem[itemId].seller.transfer(msg.value) */\n      dup2\n        /* \"contracts/Marketplace2/Marketplace.sol\":15555:15577  idToMarketItem[itemId] */\n      dup2\n        /* \"contracts/Marketplace2/Marketplace.sol\":15555:15604  idToMarketItem[itemId].seller.transfer(msg.value) */\n      dup2\n        /* \"contracts/Marketplace2/Marketplace.sol\":15594:15603  msg.value */\n      dup6\n        /* \"contracts/Marketplace2/Marketplace.sol\":15555:15584  idToMarketItem[itemId].seller */\n      dup9\n        /* \"contracts/Marketplace2/Marketplace.sol\":15555:15604  idToMarketItem[itemId].seller.transfer(msg.value) */\n      dup9\n      call\n      swap4\n      pop\n      pop\n      pop\n      pop\n      iszero\n      dup1\n      iszero\n      tag_160\n      jumpi\n      returndatasize\n      0x00\n      dup1\n      returndatacopy\n      revert(0x00, returndatasize)\n    tag_160:\n      pop\n        /* \"contracts/Marketplace2/Marketplace.sol\":15610:15679  IERC721(nftContract).transferFrom(address(this), msg.sender, tokenId) */\n      mload(0x40)\n      shl(0xe0, 0x23b872dd)\n      dup2\n      mstore\n      sub(shl(0xa0, 0x01), 0x01)\n        /* \"contracts/Marketplace2/Marketplace.sol\":15610:15643  IERC721(nftContract).transferFrom */\n      dup6\n      and\n      swap1\n      0x23b872dd\n      swap1\n        /* \"contracts/Marketplace2/Marketplace.sol\":15610:15679  IERC721(nftContract).transferFrom(address(this), msg.sender, tokenId) */\n      tag_161\n      swap1\n        /* \"contracts/Marketplace2/Marketplace.sol\":15652:15656  this */\n      address\n      swap1\n        /* \"contracts/Marketplace2/Marketplace.sol\":15659:15669  msg.sender */\n      caller\n      swap1\n        /* \"contracts/Marketplace2/Marketplace.sol\":15671:15678  tokenId */\n      dup7\n      swap1\n        /* \"contracts/Marketplace2/Marketplace.sol\":15610:15679  IERC721(nftContract).transferFrom(address(this), msg.sender, tokenId) */\n      0x04\n      add\n      tag_147\n      jump\t// in\n    tag_161:\n      0x00\n      mload(0x40)\n      dup1\n      dup4\n      sub\n      dup2\n      0x00\n      dup8\n      dup1\n      extcodesize\n      iszero\n      dup1\n      iszero\n      tag_162\n      jumpi\n      0x00\n      dup1\n      revert\n    tag_162:\n      pop\n      gas\n      call\n      iszero\n      dup1\n      iszero\n      tag_164\n      jumpi\n      returndatasize\n      0x00\n      dup1\n      returndatacopy\n      revert(0x00, returndatasize)\n    tag_164:\n      pop\n      pop\n      pop\n        /* \"contracts/Marketplace2/Marketplace.sol\":15685:15707  idToMarketItem[itemId] */\n      0x00\n      dup5\n      dup2\n      mstore\n        /* \"contracts/Marketplace2/Marketplace.sol\":15685:15699  idToMarketItem */\n      0x06\n        /* \"contracts/Marketplace2/Marketplace.sol\":15685:15707  idToMarketItem[itemId] */\n      0x20\n      mstore\n      0x40\n      swap1\n      keccak256\n        /* \"contracts/Marketplace2/Marketplace.sol\":15685:15713  idToMarketItem[itemId].owner */\n      0x04\n      add\n        /* \"contracts/Marketplace2/Marketplace.sol\":15685:15735  idToMarketItem[itemId].owner = payable(msg.sender) */\n      dup1\n      sload\n      not(sub(shl(0xa0, 0x01), 0x01))\n      and\n        /* \"contracts/Marketplace2/Marketplace.sol\":15724:15734  msg.sender */\n      caller\n        /* \"contracts/Marketplace2/Marketplace.sol\":15685:15735  idToMarketItem[itemId].owner = payable(msg.sender) */\n      or\n      swap1\n      sstore\n      pop\n        /* \"contracts/Marketplace2/Marketplace.sol\":15741:15763  _itemsSold.increment() */\n      tag_165\n        /* \"contracts/Marketplace2/Marketplace.sol\":15741:15751  _itemsSold */\n      0x05\n        /* \"contracts/Marketplace2/Marketplace.sol\":8954:8973  counter._value += 1 */\n      dup1\n      sload\n        /* \"contracts/Marketplace2/Marketplace.sol\":8972:8973  1 */\n      0x01\n        /* \"contracts/Marketplace2/Marketplace.sol\":8954:8973  counter._value += 1 */\n      add\n      swap1\n      sstore\n        /* \"contracts/Marketplace2/Marketplace.sol\":8867:8990  function increment(Counter storage counter) internal {... */\n      jump\n        /* \"contracts/Marketplace2/Marketplace.sol\":15741:15763  _itemsSold.increment() */\n    tag_165:\n      pop\n      pop\n        /* \"contracts/Marketplace2/Marketplace.sol\":11020:11021  1 */\n      0x01\n        /* \"contracts/Marketplace2/Marketplace.sol\":11947:11954  _status */\n      0x00\n        /* \"contracts/Marketplace2/Marketplace.sol\":11947:11969  _status = _NOT_ENTERED */\n      sstore\n      pop\n      pop\n        /* \"contracts/Marketplace2/Marketplace.sol\":15244:15768  function createMarketSale(... */\n      jump\t// out\n        /* \"contracts/Marketplace2/Marketplace.sol\":17249:18547  function buyItemBySQF(... */\n    tag_81:\n        /* \"contracts/Marketplace2/Marketplace.sol\":17374:17400  _requireERC721(nftAddress) */\n      tag_169\n        /* \"contracts/Marketplace2/Marketplace.sol\":17389:17399  nftAddress */\n      dup4\n        /* \"contracts/Marketplace2/Marketplace.sol\":17374:17388  _requireERC721 */\n      tag_170\n        /* \"contracts/Marketplace2/Marketplace.sol\":17374:17400  _requireERC721(nftAddress) */\n      jump\t// in\n    tag_169:\n      sub(shl(0xa0, 0x01), 0x01)\n        /* \"contracts/Marketplace2/Marketplace.sol\":17518:17535  items[nftAddress] */\n      dup1\n      dup5\n      and\n        /* \"contracts/Marketplace2/Marketplace.sol\":17411:17425  address sender */\n      0x00\n        /* \"contracts/Marketplace2/Marketplace.sol\":17518:17535  items[nftAddress] */\n      swap1\n      dup2\n      mstore\n        /* \"contracts/Marketplace2/Marketplace.sol\":17518:17523  items */\n      0x01\n        /* \"contracts/Marketplace2/Marketplace.sol\":17518:17535  items[nftAddress] */\n      0x20\n      dup2\n      dup2\n      mstore\n      0x40\n      dup1\n      dup5\n      keccak256\n        /* \"contracts/Marketplace2/Marketplace.sol\":17518:17544  items[nftAddress][assetId] */\n      dup8\n      dup6\n      mstore\n      dup3\n      mstore\n      dup1\n      dup5\n      keccak256\n        /* \"contracts/Marketplace2/Marketplace.sol\":17499:17544  Item memory item = items[nftAddress][assetId] */\n      dup2\n      mload\n      0xc0\n      dup2\n      add\n      dup4\n      mstore\n      dup2\n      sload\n      dup2\n      mstore\n      swap4\n      dup2\n      add\n      sload\n      dup7\n      and\n      swap3\n      dup5\n      add\n      swap3\n      swap1\n      swap3\n      mstore\n      0x02\n      dup3\n      add\n      sload\n      swap1\n      swap5\n      and\n      swap4\n      dup3\n      add\n      swap4\n      swap1\n      swap4\n      mstore\n      0x03\n      dup4\n      add\n      sload\n      0x60\n      dup3\n      add\n      mstore\n      0x04\n      dup1\n      dup5\n      add\n      sload\n      0x80\n      dup4\n      add\n      mstore\n      0x05\n      dup5\n      add\n      sload\n        /* \"contracts/Marketplace2/Marketplace.sol\":17428:17438  msg.sender */\n      caller\n      swap5\n        /* \"contracts/Marketplace2/Marketplace.sol\":17478:17488  nftAddress */\n      dup9\n      swap5\n        /* \"contracts/Marketplace2/Marketplace.sol\":17411:17425  address sender */\n      swap4\n        /* \"contracts/Marketplace2/Marketplace.sol\":17499:17544  Item memory item = items[nftAddress][assetId] */\n      swap3\n        /* \"contracts/Marketplace2/Marketplace.sol\":17518:17544  items[nftAddress][assetId] */\n      swap1\n      swap2\n        /* \"contracts/Marketplace2/Marketplace.sol\":17499:17544  Item memory item = items[nftAddress][assetId] */\n      0xa0\n      dup5\n      add\n      swap2\n      0xff\n      swap1\n      swap2\n      and\n      swap1\n      dup2\n      gt\n      iszero\n      tag_172\n      jumpi\n      tag_172\n      tag_173\n      jump\t// in\n    tag_172:\n      0x04\n      dup2\n      gt\n      iszero\n      tag_175\n      jumpi\n      tag_175\n      tag_173\n      jump\t// in\n    tag_175:\n      swap1\n      mstore\n      pop\n        /* \"contracts/Marketplace2/Marketplace.sol\":17563:17570  item.id */\n      dup1\n      mload\n        /* \"contracts/Marketplace2/Marketplace.sol\":17499:17544  Item memory item = items[nftAddress][assetId] */\n      swap1\n      swap2\n      pop\n        /* \"contracts/Marketplace2/Marketplace.sol\":17563:17570  item.id */\n      0x00\n        /* \"contracts/Marketplace2/Marketplace.sol\":17563:17575  item.id != 0 */\n      sub\n        /* \"contracts/Marketplace2/Marketplace.sol\":17555:17599  require(item.id != 0, \"Asset not published\") */\n      tag_176\n      jumpi\n      mload(0x40)\n      shl(0xe5, 0x461bcd)\n      dup2\n      mstore\n        /* \"#utility.yul\":7050:7052   */\n      0x20\n        /* \"contracts/Marketplace2/Marketplace.sol\":17555:17599  require(item.id != 0, \"Asset not published\") */\n      0x04\n      dup3\n      add\n        /* \"#utility.yul\":7032:7053   */\n      mstore\n        /* \"#utility.yul\":7089:7091   */\n      0x13\n        /* \"#utility.yul\":7069:7087   */\n      0x24\n      dup3\n      add\n        /* \"#utility.yul\":7062:7092   */\n      mstore\n      shl(0x6a, 0x105cdcd95d081b9bdd081c1d589b1a5cda1959)\n        /* \"#utility.yul\":7108:7126   */\n      0x44\n      dup3\n      add\n        /* \"#utility.yul\":7101:7150   */\n      mstore\n        /* \"#utility.yul\":7167:7185   */\n      0x64\n      add\n        /* \"contracts/Marketplace2/Marketplace.sol\":17555:17599  require(item.id != 0, \"Asset not published\") */\n      tag_137\n        /* \"#utility.yul\":6848:7191   */\n      jump\n        /* \"contracts/Marketplace2/Marketplace.sol\":17555:17599  require(item.id != 0, \"Asset not published\") */\n    tag_176:\n        /* \"contracts/Marketplace2/Marketplace.sol\":17632:17647  ItemStatus.LIST */\n      0x01\n        /* \"contracts/Marketplace2/Marketplace.sol\":17617:17621  item */\n      dup2\n        /* \"contracts/Marketplace2/Marketplace.sol\":17617:17628  item.status */\n      0xa0\n      add\n      mload\n        /* \"contracts/Marketplace2/Marketplace.sol\":17617:17647  item.status == ItemStatus.LIST */\n      0x04\n      dup2\n      gt\n      iszero\n      tag_182\n      jumpi\n      tag_182\n      tag_173\n      jump\t// in\n    tag_182:\n      eq\n        /* \"contracts/Marketplace2/Marketplace.sol\":17609:17676  require(item.status == ItemStatus.LIST, \"Asset is not list to buy\") */\n      tag_183\n      jumpi\n      mload(0x40)\n      shl(0xe5, 0x461bcd)\n      dup2\n      mstore\n        /* \"#utility.yul\":7398:7400   */\n      0x20\n        /* \"contracts/Marketplace2/Marketplace.sol\":17609:17676  require(item.status == ItemStatus.LIST, \"Asset is not list to buy\") */\n      0x04\n      dup3\n      add\n        /* \"#utility.yul\":7380:7401   */\n      mstore\n        /* \"#utility.yul\":7437:7439   */\n      0x18\n        /* \"#utility.yul\":7417:7435   */\n      0x24\n      dup3\n      add\n        /* \"#utility.yul\":7410:7440   */\n      mstore\n        /* \"#utility.yul\":7476:7502   */\n      0x4173736574206973206e6f74206c69737420746f206275790000000000000000\n        /* \"#utility.yul\":7456:7474   */\n      0x44\n      dup3\n      add\n        /* \"#utility.yul\":7449:7503   */\n      mstore\n        /* \"#utility.yul\":7520:7538   */\n      0x64\n      add\n        /* \"contracts/Marketplace2/Marketplace.sol\":17609:17676  require(item.status == ItemStatus.LIST, \"Asset is not list to buy\") */\n      tag_137\n        /* \"#utility.yul\":7196:7544   */\n      jump\n        /* \"contracts/Marketplace2/Marketplace.sol\":17609:17676  require(item.status == ItemStatus.LIST, \"Asset is not list to buy\") */\n    tag_183:\n        /* \"contracts/Marketplace2/Marketplace.sol\":17704:17715  item.seller */\n      0x20\n      dup2\n      add\n      mload\n      sub(shl(0xa0, 0x01), 0x01)\n        /* \"contracts/Marketplace2/Marketplace.sol\":17734:17754  seller != address(0) */\n      dup2\n      and\n        /* \"contracts/Marketplace2/Marketplace.sol\":17726:17774  require(seller != address(0), \"Invalid address\") */\n      tag_186\n      jumpi\n      mload(0x40)\n      shl(0xe5, 0x461bcd)\n      dup2\n      mstore\n        /* \"#utility.yul\":7751:7753   */\n      0x20\n        /* \"contracts/Marketplace2/Marketplace.sol\":17726:17774  require(seller != address(0), \"Invalid address\") */\n      0x04\n      dup3\n      add\n        /* \"#utility.yul\":7733:7754   */\n      mstore\n        /* \"#utility.yul\":7790:7792   */\n      0x0f\n        /* \"#utility.yul\":7770:7788   */\n      0x24\n      dup3\n      add\n        /* \"#utility.yul\":7763:7793   */\n      mstore\n      shl(0x88, 0x496e76616c69642061646472657373)\n        /* \"#utility.yul\":7809:7827   */\n      0x44\n      dup3\n      add\n        /* \"#utility.yul\":7802:7847   */\n      mstore\n        /* \"#utility.yul\":7864:7882   */\n      0x64\n      add\n        /* \"contracts/Marketplace2/Marketplace.sol\":17726:17774  require(seller != address(0), \"Invalid address\") */\n      tag_137\n        /* \"#utility.yul\":7549:7888   */\n      jump\n        /* \"contracts/Marketplace2/Marketplace.sol\":17726:17774  require(seller != address(0), \"Invalid address\") */\n    tag_186:\n        /* \"contracts/Marketplace2/Marketplace.sol\":17805:17809  item */\n      dup2\n        /* \"contracts/Marketplace2/Marketplace.sol\":17805:17819  item.priceAnta */\n      0x80\n      add\n      mload\n        /* \"contracts/Marketplace2/Marketplace.sol\":17792:17801  priceAnta */\n      dup6\n        /* \"contracts/Marketplace2/Marketplace.sol\":17792:17819  priceAnta >= item.priceAnta */\n      lt\n      iszero\n        /* \"contracts/Marketplace2/Marketplace.sol\":17784:17854  require(priceAnta >= item.priceAnta, \"price need equal listing price\") */\n      tag_189\n      jumpi\n      mload(0x40)\n      shl(0xe5, 0x461bcd)\n      dup2\n      mstore\n        /* \"#utility.yul\":8095:8097   */\n      0x20\n        /* \"contracts/Marketplace2/Marketplace.sol\":17784:17854  require(priceAnta >= item.priceAnta, \"price need equal listing price\") */\n      0x04\n      dup3\n      add\n        /* \"#utility.yul\":8077:8098   */\n      mstore\n        /* \"#utility.yul\":8134:8136   */\n      0x1e\n        /* \"#utility.yul\":8114:8132   */\n      0x24\n      dup3\n      add\n        /* \"#utility.yul\":8107:8137   */\n      mstore\n        /* \"#utility.yul\":8173:8205   */\n      0x7072696365206e65656420657175616c206c697374696e672070726963650000\n        /* \"#utility.yul\":8153:8171   */\n      0x44\n      dup3\n      add\n        /* \"#utility.yul\":8146:8206   */\n      mstore\n        /* \"#utility.yul\":8223:8241   */\n      0x64\n      add\n        /* \"contracts/Marketplace2/Marketplace.sol\":17784:17854  require(priceAnta >= item.priceAnta, \"price need equal listing price\") */\n      tag_137\n        /* \"#utility.yul\":7893:8247   */\n      jump\n        /* \"contracts/Marketplace2/Marketplace.sol\":17784:17854  require(priceAnta >= item.priceAnta, \"price need equal listing price\") */\n    tag_189:\n        /* \"contracts/Marketplace2/Marketplace.sol\":17880:17894  antaFeePercent */\n      sload(0x03)\n        /* \"contracts/Marketplace2/Marketplace.sol\":17865:17876  uint256 fee */\n      0x00\n      swap1\n        /* \"contracts/Marketplace2/Marketplace.sol\":17910:17913  100 */\n      0x64\n      swap1\n        /* \"contracts/Marketplace2/Marketplace.sol\":17880:17906  antaFeePercent * priceAnta */\n      tag_192\n      swap1\n        /* \"contracts/Marketplace2/Marketplace.sol\":17897:17906  priceAnta */\n      dup9\n      swap1\n      shl(0xa8, 0x01)\n        /* \"contracts/Marketplace2/Marketplace.sol\":17880:17894  antaFeePercent */\n      swap1\n      div\n      0xff\n      and\n        /* \"contracts/Marketplace2/Marketplace.sol\":17880:17906  antaFeePercent * priceAnta */\n      tag_193\n      jump\t// in\n    tag_192:\n        /* \"contracts/Marketplace2/Marketplace.sol\":17879:17913  (antaFeePercent * priceAnta) / 100 */\n      tag_194\n      swap2\n      swap1\n      tag_195\n      jump\t// in\n    tag_194:\n        /* \"contracts/Marketplace2/Marketplace.sol\":17865:17913  uint256 fee = (antaFeePercent * priceAnta) / 100 */\n      swap1\n      pop\n        /* \"contracts/Marketplace2/Marketplace.sol\":17923:17943  uint256 remainAmount */\n      0x00\n        /* \"contracts/Marketplace2/Marketplace.sol\":17946:17961  priceAnta - fee */\n      tag_196\n        /* \"contracts/Marketplace2/Marketplace.sol\":17865:17913  uint256 fee = (antaFeePercent * priceAnta) / 100 */\n      dup3\n        /* \"contracts/Marketplace2/Marketplace.sol\":17946:17955  priceAnta */\n      dup9\n        /* \"contracts/Marketplace2/Marketplace.sol\":17946:17961  priceAnta - fee */\n      tag_88\n      jump\t// in\n    tag_196:\n        /* \"contracts/Marketplace2/Marketplace.sol\":17971:17980  antaToken */\n      sload(0x03)\n        /* \"contracts/Marketplace2/Marketplace.sol\":17971:18021  antaToken.transferFrom(sender, address(this), fee) */\n      mload(0x40)\n      shl(0xe0, 0x23b872dd)\n      dup2\n      mstore\n        /* \"contracts/Marketplace2/Marketplace.sol\":17923:17961  uint256 remainAmount = priceAnta - fee */\n      swap2\n      swap3\n      pop\n      sub(shl(0xa0, 0x01), 0x01)\n        /* \"contracts/Marketplace2/Marketplace.sol\":17971:17980  antaToken */\n      and\n      swap1\n        /* \"contracts/Marketplace2/Marketplace.sol\":17971:17993  antaToken.transferFrom */\n      0x23b872dd\n      swap1\n        /* \"contracts/Marketplace2/Marketplace.sol\":17971:18021  antaToken.transferFrom(sender, address(this), fee) */\n      tag_197\n      swap1\n        /* \"contracts/Marketplace2/Marketplace.sol\":17994:18000  sender */\n      dup10\n      swap1\n        /* \"contracts/Marketplace2/Marketplace.sol\":18010:18014  this */\n      address\n      swap1\n        /* \"contracts/Marketplace2/Marketplace.sol\":18017:18020  fee */\n      dup8\n      swap1\n        /* \"contracts/Marketplace2/Marketplace.sol\":17971:18021  antaToken.transferFrom(sender, address(this), fee) */\n      0x04\n      add\n      tag_147\n      jump\t// in\n    tag_197:\n      0x20\n      mload(0x40)\n      dup1\n      dup4\n      sub\n      dup2\n      0x00\n      dup8\n      gas\n      call\n      iszero\n      dup1\n      iszero\n      tag_199\n      jumpi\n      returndatasize\n      0x00\n      dup1\n      returndatacopy\n      revert(0x00, returndatasize)\n    tag_199:\n      pop\n      pop\n      pop\n      pop\n      mload(0x40)\n      returndatasize\n      not(0x1f)\n      0x1f\n      dup3\n      add\n      and\n      dup3\n      add\n      dup1\n      0x40\n      mstore\n      pop\n      dup2\n      add\n      swap1\n      tag_200\n      swap2\n      swap1\n      tag_201\n      jump\t// in\n    tag_200:\n      pop\n        /* \"contracts/Marketplace2/Marketplace.sol\":18031:18040  antaToken */\n      sload(0x03)\n        /* \"contracts/Marketplace2/Marketplace.sol\":18031:18083  antaToken.transferFrom(sender, seller, remainAmount) */\n      mload(0x40)\n      shl(0xe0, 0x23b872dd)\n      dup2\n      mstore\n      sub(shl(0xa0, 0x01), 0x01)\n        /* \"contracts/Marketplace2/Marketplace.sol\":18031:18040  antaToken */\n      swap1\n      swap2\n      and\n      swap1\n        /* \"contracts/Marketplace2/Marketplace.sol\":18031:18053  antaToken.transferFrom */\n      0x23b872dd\n      swap1\n        /* \"contracts/Marketplace2/Marketplace.sol\":18031:18083  antaToken.transferFrom(sender, seller, remainAmount) */\n      tag_202\n      swap1\n        /* \"contracts/Marketplace2/Marketplace.sol\":18054:18060  sender */\n      dup10\n      swap1\n        /* \"contracts/Marketplace2/Marketplace.sol\":18062:18068  seller */\n      dup8\n      swap1\n        /* \"contracts/Marketplace2/Marketplace.sol\":18070:18082  remainAmount */\n      dup7\n      swap1\n        /* \"contracts/Marketplace2/Marketplace.sol\":18031:18083  antaToken.transferFrom(sender, seller, remainAmount) */\n      0x04\n      add\n      tag_147\n      jump\t// in\n    tag_202:\n      0x20\n      mload(0x40)\n      dup1\n      dup4\n      sub\n      dup2\n      0x00\n      dup8\n      gas\n      call\n      iszero\n      dup1\n      iszero\n      tag_204\n      jumpi\n      returndatasize\n      0x00\n      dup1\n      returndatacopy\n      revert(0x00, returndatasize)\n    tag_204:\n      pop\n      pop\n      pop\n      pop\n      mload(0x40)\n      returndatasize\n      not(0x1f)\n      0x1f\n      dup3\n      add\n      and\n      dup3\n      add\n      dup1\n      0x40\n      mstore\n      pop\n      dup2\n      add\n      swap1\n      tag_205\n      swap2\n      swap1\n      tag_201\n      jump\t// in\n    tag_205:\n      pop\n        /* \"contracts/Marketplace2/Marketplace.sol\":18093:18153  nftRegistry.safeTransferFrom(address(this), sender, assetId) */\n      mload(0x40)\n      shl(0xe1, 0x21421707)\n      dup2\n      mstore\n      sub(shl(0xa0, 0x01), 0x01)\n        /* \"contracts/Marketplace2/Marketplace.sol\":18093:18121  nftRegistry.safeTransferFrom */\n      dup7\n      and\n      swap1\n      0x42842e0e\n      swap1\n        /* \"contracts/Marketplace2/Marketplace.sol\":18093:18153  nftRegistry.safeTransferFrom(address(this), sender, assetId) */\n      tag_206\n      swap1\n        /* \"contracts/Marketplace2/Marketplace.sol\":18130:18134  this */\n      address\n      swap1\n        /* \"contracts/Marketplace2/Marketplace.sol\":18137:18143  sender */\n      dup11\n      swap1\n        /* \"contracts/Marketplace2/Marketplace.sol\":18145:18152  assetId */\n      dup14\n      swap1\n        /* \"contracts/Marketplace2/Marketplace.sol\":18093:18153  nftRegistry.safeTransferFrom(address(this), sender, assetId) */\n      0x04\n      add\n      tag_147\n      jump\t// in\n    tag_206:\n      0x00\n      mload(0x40)\n      dup1\n      dup4\n      sub\n      dup2\n      0x00\n      dup8\n      dup1\n      extcodesize\n      iszero\n      dup1\n      iszero\n      tag_207\n      jumpi\n      0x00\n      dup1\n      revert\n    tag_207:\n      pop\n      gas\n      call\n      iszero\n      dup1\n      iszero\n      tag_209\n      jumpi\n      returndatasize\n      0x00\n      dup1\n      returndatacopy\n      revert(0x00, returndatasize)\n    tag_209:\n      pop\n      pop\n      pop\n      pop\n      sub(shl(0xa0, 0x01), 0x01)\n        /* \"contracts/Marketplace2/Marketplace.sol\":18164:18181  items[nftAddress] */\n      dup10\n      dup2\n      and\n      0x00\n      dup2\n      dup2\n      mstore\n        /* \"contracts/Marketplace2/Marketplace.sol\":18164:18169  items */\n      0x01\n        /* \"contracts/Marketplace2/Marketplace.sol\":18164:18181  items[nftAddress] */\n      0x20\n      dup2\n      dup2\n      mstore\n      0x40\n      dup1\n      dup5\n      keccak256\n        /* \"contracts/Marketplace2/Marketplace.sol\":18164:18190  items[nftAddress][assetId] */\n      dup15\n      dup6\n      mstore\n      dup3\n      mstore\n      swap3\n      dup4\n      swap1\n      keccak256\n        /* \"contracts/Marketplace2/Marketplace.sol\":18164:18197  items[nftAddress][assetId].seller */\n      swap2\n      dup3\n      add\n        /* \"contracts/Marketplace2/Marketplace.sol\":18164:18206  items[nftAddress][assetId].seller = sender */\n      dup1\n      sload\n      dup13\n      dup8\n      and\n      not(sub(shl(0xa0, 0x01), 0x01))\n      swap1\n      swap2\n      and\n      dup2\n      or\n      swap1\n      swap2\n      sstore\n        /* \"contracts/Marketplace2/Marketplace.sol\":18216:18249  items[nftAddress][assetId].status */\n      0x05\n      swap1\n      swap3\n      add\n        /* \"contracts/Marketplace2/Marketplace.sol\":18216:18269  items[nftAddress][assetId].status = ItemStatus.BOUGHT */\n      dup1\n      sload\n      not(0xff)\n      and\n        /* \"contracts/Marketplace2/Marketplace.sol\":18252:18269  ItemStatus.BOUGHT */\n      0x02\n        /* \"contracts/Marketplace2/Marketplace.sol\":18216:18269  items[nftAddress][assetId].status = ItemStatus.BOUGHT */\n      or\n      swap1\n      sstore\n        /* \"contracts/Marketplace2/Marketplace.sol\":18316:18323  item.id */\n      dup9\n      mload\n        /* \"contracts/Marketplace2/Marketplace.sol\":18402:18416  item.priceAnta */\n      0x80\n      dup1\n      dup12\n      add\n      mload\n        /* \"contracts/Marketplace2/Marketplace.sol\":18430:18444  antaFeePercent */\n      sload(0x03)\n        /* \"contracts/Marketplace2/Marketplace.sol\":18285:18540  BuyItemSuccessful(... */\n      dup7\n      mload\n        /* \"#utility.yul\":9277:9302   */\n      swap4\n      dup5\n      mstore\n        /* \"#utility.yul\":9318:9336   */\n      swap4\n      dup4\n      add\n        /* \"#utility.yul\":9311:9371   */\n      swap7\n      swap1\n      swap7\n      mstore\n        /* \"#utility.yul\":9387:9405   */\n      swap4\n      dup2\n      add\n        /* \"#utility.yul\":9380:9414   */\n      swap5\n      swap1\n      swap5\n      mstore\n      shl(0xa8, 0x01)\n        /* \"contracts/Marketplace2/Marketplace.sol\":18430:18444  antaFeePercent */\n      swap1\n      div\n      0xff\n      and\n        /* \"#utility.yul\":9445:9447   */\n      0x60\n        /* \"#utility.yul\":9430:9448   */\n      dup5\n      add\n        /* \"#utility.yul\":9423:9468   */\n      mstore\n        /* \"#utility.yul\":9484:9503   */\n      swap1\n      dup3\n      add\n        /* \"#utility.yul\":9477:9512   */\n      dup6\n      swap1\n      mstore\n        /* \"#utility.yul\":9549:9552   */\n      0xe0\n        /* \"#utility.yul\":9358:9361   */\n      0xa0\n        /* \"#utility.yul\":9528:9547   */\n      dup4\n      add\n        /* \"#utility.yul\":9521:9553   */\n      dup2\n      swap1\n      mstore\n        /* \"#utility.yul\":9590:9591   */\n      0x04\n        /* \"#utility.yul\":9569:9588   */\n      swap1\n      dup4\n      add\n        /* \"#utility.yul\":9562:9592   */\n      mstore\n      shl(0xe0, 0x414e5441)\n        /* \"contracts/Marketplace2/Marketplace.sol\":18430:18444  antaFeePercent */\n      0x0100\n        /* \"#utility.yul\":9608:9627   */\n      dup4\n      add\n        /* \"#utility.yul\":9601:9636   */\n      mstore\n        /* \"contracts/Marketplace2/Marketplace.sol\":18515:18530  block.timestamp */\n      timestamp\n        /* \"#utility.yul\":9703:9706   */\n      0xc0\n        /* \"#utility.yul\":9688:9707   */\n      dup4\n      add\n        /* \"#utility.yul\":9681:9716   */\n      mstore\n        /* \"contracts/Marketplace2/Marketplace.sol\":18164:18206  items[nftAddress][assetId].seller = sender */\n      swap2\n        /* \"contracts/Marketplace2/Marketplace.sol\":18285:18540  BuyItemSuccessful(... */\n      dup6\n      and\n      swap1\n        /* \"contracts/Marketplace2/Marketplace.sol\":18164:18190  items[nftAddress][assetId] */\n      dup11\n      swap1\n        /* \"contracts/Marketplace2/Marketplace.sol\":18285:18540  BuyItemSuccessful(... */\n      0x30247e11bbb597dfefd2a3124026f1ef8987a4d6ba46e3629f80bac1b0c9faee\n      swap1\n        /* \"#utility.yul\":9668:9671   */\n      0x0120\n        /* \"#utility.yul\":9653:9672   */\n      add\n        /* \"contracts/Marketplace2/Marketplace.sol\":18285:18540  BuyItemSuccessful(... */\n      mload(0x40)\n      dup1\n      swap2\n      sub\n      swap1\n      log4\n        /* \"contracts/Marketplace2/Marketplace.sol\":17364:18547  {... */\n      pop\n      pop\n      pop\n      pop\n      pop\n      pop\n        /* \"contracts/Marketplace2/Marketplace.sol\":17249:18547  function buyItemBySQF(... */\n      pop\n      pop\n      pop\n      jump\t// out\n        /* \"contracts/Marketplace2/Marketplace.sol\":18555:18939  function _requireERC721(address nftAddress) internal {... */\n    tag_170:\n        /* \"contracts/Marketplace2/Marketplace.sol\":19047:19065  extcodesize(_addr) */\n      dup1\n      extcodesize\n        /* \"contracts/Marketplace2/Marketplace.sol\":19084:19092  size > 0 */\n      0xffffffff\n      and\n        /* \"contracts/Marketplace2/Marketplace.sol\":18618:18723  require(... */\n      tag_219\n      jumpi\n      mload(0x40)\n      shl(0xe5, 0x461bcd)\n      dup2\n      mstore\n        /* \"#utility.yul\":9929:9931   */\n      0x20\n        /* \"contracts/Marketplace2/Marketplace.sol\":18618:18723  require(... */\n      0x04\n      dup3\n      add\n        /* \"#utility.yul\":9911:9932   */\n      mstore\n        /* \"#utility.yul\":9968:9970   */\n      0x24\n        /* \"#utility.yul\":9948:9966   */\n      dup1\n      dup3\n      add\n        /* \"#utility.yul\":9941:9971   */\n      mstore\n        /* \"#utility.yul\":10007:10041   */\n      0x546865204e465420416464726573732073686f756c64206265206120636f6e74\n        /* \"#utility.yul\":9987:10005   */\n      0x44\n      dup3\n      add\n        /* \"#utility.yul\":9980:10042   */\n      mstore\n      shl(0xe2, 0x1c9858dd)\n        /* \"#utility.yul\":10058:10076   */\n      0x64\n      dup3\n      add\n        /* \"#utility.yul\":10051:10085   */\n      mstore\n        /* \"#utility.yul\":10102:10121   */\n      0x84\n      add\n        /* \"contracts/Marketplace2/Marketplace.sol\":18618:18723  require(... */\n      tag_137\n        /* \"#utility.yul\":9727:10127   */\n      jump\n        /* \"contracts/Marketplace2/Marketplace.sol\":18618:18723  require(... */\n    tag_219:\n        /* \"contracts/Marketplace2/Marketplace.sol\":18806:18853  nftRegistry.supportsInterface(ERC721_Interface) */\n      mload(0x40)\n      shl(0xe0, 0x01ffc9a7)\n      dup2\n      mstore\n      shl(0xe0, 0x80ac58cd)\n      0x04\n      dup3\n      add\n        /* \"#utility.yul\":1803:1855   */\n      mstore\n        /* \"contracts/Marketplace2/Marketplace.sol\":18764:18774  nftAddress */\n      dup2\n      swap1\n      sub(shl(0xa0, 0x01), 0x01)\n        /* \"contracts/Marketplace2/Marketplace.sol\":18806:18835  nftRegistry.supportsInterface */\n      dup3\n      and\n      swap1\n      0x01ffc9a7\n      swap1\n        /* \"#utility.yul\":1776:1794   */\n      0x24\n      add\n        /* \"contracts/Marketplace2/Marketplace.sol\":18806:18853  nftRegistry.supportsInterface(ERC721_Interface) */\n      0x20\n      mload(0x40)\n      dup1\n      dup4\n      sub\n      dup2\n      dup7\n      gas\n      staticcall\n      iszero\n      dup1\n      iszero\n      tag_224\n      jumpi\n      returndatasize\n      0x00\n      dup1\n      returndatacopy\n      revert(0x00, returndatasize)\n    tag_224:\n      pop\n      pop\n      pop\n      pop\n      mload(0x40)\n      returndatasize\n      not(0x1f)\n      0x1f\n      dup3\n      add\n      and\n      dup3\n      add\n      dup1\n      0x40\n      mstore\n      pop\n      dup2\n      add\n      swap1\n      tag_225\n      swap2\n      swap1\n      tag_201\n      jump\t// in\n    tag_225:\n        /* \"contracts/Marketplace2/Marketplace.sol\":18785:18932  require(... */\n      tag_226\n      jumpi\n      mload(0x40)\n      shl(0xe5, 0x461bcd)\n      dup2\n      mstore\n        /* \"#utility.yul\":10334:10336   */\n      0x20\n        /* \"contracts/Marketplace2/Marketplace.sol\":18785:18932  require(... */\n      0x04\n      dup3\n      add\n        /* \"#utility.yul\":10316:10337   */\n      mstore\n        /* \"#utility.yul\":10373:10375   */\n      0x35\n        /* \"#utility.yul\":10353:10371   */\n      0x24\n      dup3\n      add\n        /* \"#utility.yul\":10346:10376   */\n      mstore\n        /* \"#utility.yul\":10412:10446   */\n      0x546865204e465420636f6e74726163742068617320616e20696e76616c696420\n        /* \"#utility.yul\":10392:10410   */\n      0x44\n      dup3\n      add\n        /* \"#utility.yul\":10385:10447   */\n      mstore\n      shl(0x59, 0x22a9219b99189034b6b83632b6b2b73a30ba34b7b7)\n        /* \"#utility.yul\":10463:10481   */\n      0x64\n      dup3\n      add\n        /* \"#utility.yul\":10456:10507   */\n      mstore\n        /* \"#utility.yul\":10524:10543   */\n      0x84\n      add\n        /* \"contracts/Marketplace2/Marketplace.sol\":18785:18932  require(... */\n      tag_137\n        /* \"#utility.yul\":10132:10549   */\n      jump\n        /* \"contracts/Marketplace2/Marketplace.sol\":18785:18932  require(... */\n    tag_226:\n        /* \"contracts/Marketplace2/Marketplace.sol\":18608:18939  {... */\n      pop\n        /* \"contracts/Marketplace2/Marketplace.sol\":18555:18939  function _requireERC721(address nftAddress) internal {... */\n      pop\n      jump\t// out\n    tag_95:\n      mload(0x40)\n      dup1\n      0xc0\n      add\n      0x40\n      mstore\n      dup1\n      0x00\n      dup2\n      mstore\n      0x20\n      add\n      and(sub(shl(0xa0, 0x01), 0x01), 0x00)\n      dup2\n      mstore\n      0x20\n      add\n      0x00\n      dup2\n      mstore\n      0x20\n      add\n      and(sub(shl(0xa0, 0x01), 0x01), 0x00)\n      dup2\n      mstore\n      0x20\n      add\n      and(sub(shl(0xa0, 0x01), 0x01), 0x00)\n      dup2\n      mstore\n      0x20\n      add\n      0x00\n      dup2\n      mstore\n      pop\n      swap1\n      jump\t// out\n        /* \"#utility.yul\":14:495   */\n    tag_230:\n        /* \"#utility.yul\":96:101   */\n      dup1\n        /* \"#utility.yul\":90:102   */\n      mload\n        /* \"#utility.yul\":85:88   */\n      dup3\n        /* \"#utility.yul\":78:103   */\n      mstore\n        /* \"#utility.yul\":149:153   */\n      0x20\n        /* \"#utility.yul\":142:147   */\n      dup2\n        /* \"#utility.yul\":138:154   */\n      add\n        /* \"#utility.yul\":132:155   */\n      mload\n        /* \"#utility.yul\":191:192   */\n      0x01\n        /* \"#utility.yul\":187:188   */\n      dup1\n        /* \"#utility.yul\":182:185   */\n      0xa0\n        /* \"#utility.yul\":178:189   */\n      shl\n        /* \"#utility.yul\":174:193   */\n      sub\n        /* \"#utility.yul\":243:245   */\n      dup1\n        /* \"#utility.yul\":229:241   */\n      dup3\n        /* \"#utility.yul\":225:246   */\n      and\n        /* \"#utility.yul\":218:222   */\n      0x20\n        /* \"#utility.yul\":213:216   */\n      dup6\n        /* \"#utility.yul\":209:223   */\n      add\n        /* \"#utility.yul\":202:247   */\n      mstore\n        /* \"#utility.yul\":296:300   */\n      0x40\n        /* \"#utility.yul\":289:294   */\n      dup4\n        /* \"#utility.yul\":285:301   */\n      add\n        /* \"#utility.yul\":279:302   */\n      mload\n        /* \"#utility.yul\":272:276   */\n      0x40\n        /* \"#utility.yul\":267:270   */\n      dup6\n        /* \"#utility.yul\":263:277   */\n      add\n        /* \"#utility.yul\":256:303   */\n      mstore\n        /* \"#utility.yul\":364:366   */\n      dup1\n        /* \"#utility.yul\":356:360   */\n      0x60\n        /* \"#utility.yul\":349:354   */\n      dup5\n        /* \"#utility.yul\":345:361   */\n      add\n        /* \"#utility.yul\":339:362   */\n      mload\n        /* \"#utility.yul\":335:367   */\n      and\n        /* \"#utility.yul\":328:332   */\n      0x60\n        /* \"#utility.yul\":323:326   */\n      dup6\n        /* \"#utility.yul\":319:333   */\n      add\n        /* \"#utility.yul\":312:368   */\n      mstore\n        /* \"#utility.yul\":429:431   */\n      dup1\n        /* \"#utility.yul\":421:425   */\n      0x80\n        /* \"#utility.yul\":414:419   */\n      dup5\n        /* \"#utility.yul\":410:426   */\n      add\n        /* \"#utility.yul\":404:427   */\n      mload\n        /* \"#utility.yul\":400:432   */\n      and\n        /* \"#utility.yul\":393:397   */\n      0x80\n        /* \"#utility.yul\":388:391   */\n      dup6\n        /* \"#utility.yul\":384:398   */\n      add\n        /* \"#utility.yul\":377:433   */\n      mstore\n      pop\n      pop\n        /* \"#utility.yul\":482:486   */\n      0xa0\n        /* \"#utility.yul\":475:480   */\n      dup2\n        /* \"#utility.yul\":471:487   */\n      add\n        /* \"#utility.yul\":465:488   */\n      mload\n        /* \"#utility.yul\":458:462   */\n      0xa0\n        /* \"#utility.yul\":453:456   */\n      dup4\n        /* \"#utility.yul\":449:463   */\n      add\n        /* \"#utility.yul\":442:489   */\n      mstore\n        /* \"#utility.yul\":14:495   */\n      pop\n      pop\n      jump\t// out\n        /* \"#utility.yul\":500:1210   */\n    tag_21:\n        /* \"#utility.yul\":725:727   */\n      0x20\n        /* \"#utility.yul\":777:798   */\n      dup1\n      dup3\n      mstore\n        /* \"#utility.yul\":847:860   */\n      dup3\n      mload\n        /* \"#utility.yul\":750:768   */\n      dup3\n      dup3\n      add\n        /* \"#utility.yul\":869:891   */\n      dup2\n      swap1\n      mstore\n        /* \"#utility.yul\":696:700   */\n      0x00\n      swap2\n        /* \"#utility.yul\":725:727   */\n      swap1\n        /* \"#utility.yul\":948:963   */\n      dup5\n      dup3\n      add\n      swap1\n        /* \"#utility.yul\":922:924   */\n      0x40\n        /* \"#utility.yul\":907:925   */\n      dup6\n      add\n      swap1\n        /* \"#utility.yul\":696:700   */\n      dup5\n        /* \"#utility.yul\":991:1184   */\n    tag_236:\n        /* \"#utility.yul\":1005:1011   */\n      dup2\n        /* \"#utility.yul\":1002:1003   */\n      dup2\n        /* \"#utility.yul\":999:1012   */\n      lt\n        /* \"#utility.yul\":991:1184   */\n      iszero\n      tag_238\n      jumpi\n        /* \"#utility.yul\":1054:1102   */\n      tag_239\n        /* \"#utility.yul\":1098:1101   */\n      dup4\n        /* \"#utility.yul\":1089:1095   */\n      dup6\n        /* \"#utility.yul\":1083:1096   */\n      mload\n        /* \"#utility.yul\":1054:1102   */\n      tag_230\n      jump\t// in\n    tag_239:\n        /* \"#utility.yul\":1159:1174   */\n      swap3\n      dup5\n      add\n      swap3\n        /* \"#utility.yul\":1131:1135   */\n      0xc0\n        /* \"#utility.yul\":1122:1136   */\n      swap3\n      swap1\n      swap3\n      add\n      swap2\n        /* \"#utility.yul\":1027:1028   */\n      0x01\n        /* \"#utility.yul\":1020:1029   */\n      add\n        /* \"#utility.yul\":991:1184   */\n      jump(tag_236)\n    tag_238:\n      pop\n        /* \"#utility.yul\":1201:1204   */\n      swap1\n      swap7\n        /* \"#utility.yul\":500:1210   */\n      swap6\n      pop\n      pop\n      pop\n      pop\n      pop\n      pop\n      jump\t// out\n        /* \"#utility.yul\":1215:1395   */\n    tag_29:\n        /* \"#utility.yul\":1274:1280   */\n      0x00\n        /* \"#utility.yul\":1327:1329   */\n      0x20\n        /* \"#utility.yul\":1315:1324   */\n      dup3\n        /* \"#utility.yul\":1306:1313   */\n      dup5\n        /* \"#utility.yul\":1302:1325   */\n      sub\n        /* \"#utility.yul\":1298:1330   */\n      slt\n        /* \"#utility.yul\":1295:1347   */\n      iszero\n      tag_241\n      jumpi\n        /* \"#utility.yul\":1343:1344   */\n      0x00\n        /* \"#utility.yul\":1340:1341   */\n      dup1\n        /* \"#utility.yul\":1333:1345   */\n      revert\n        /* \"#utility.yul\":1295:1347   */\n    tag_241:\n      pop\n        /* \"#utility.yul\":1366:1389   */\n      calldataload\n      swap2\n        /* \"#utility.yul\":1215:1395   */\n      swap1\n      pop\n      jump\t// out\n        /* \"#utility.yul\":1400:1654   */\n    tag_32:\n        /* \"#utility.yul\":1588:1591   */\n      0xc0\n        /* \"#utility.yul\":1573:1592   */\n      dup2\n      add\n        /* \"#utility.yul\":1601:1648   */\n      tag_243\n        /* \"#utility.yul\":1577:1586   */\n      dup3\n        /* \"#utility.yul\":1630:1636   */\n      dup5\n        /* \"#utility.yul\":1601:1648   */\n      tag_230\n      jump\t// in\n    tag_243:\n        /* \"#utility.yul\":1400:1654   */\n      swap3\n      swap2\n      pop\n      pop\n      jump\t// out\n        /* \"#utility.yul\":1866:2039   */\n    tag_231:\n        /* \"#utility.yul\":1934:1954   */\n      dup1\n      calldataload\n      sub(shl(0xa0, 0x01), 0x01)\n        /* \"#utility.yul\":1983:2014   */\n      dup2\n      and\n        /* \"#utility.yul\":1973:2015   */\n      dup2\n      eq\n        /* \"#utility.yul\":1963:2033   */\n      tag_246\n      jumpi\n        /* \"#utility.yul\":2029:2030   */\n      0x00\n        /* \"#utility.yul\":2026:2027   */\n      dup1\n        /* \"#utility.yul\":2019:2031   */\n      revert\n        /* \"#utility.yul\":1963:2033   */\n    tag_246:\n        /* \"#utility.yul\":1866:2039   */\n      swap2\n      swap1\n      pop\n      jump\t// out\n        /* \"#utility.yul\":2044:2372   */\n    tag_41:\n        /* \"#utility.yul\":2121:2127   */\n      0x00\n        /* \"#utility.yul\":2129:2135   */\n      dup1\n        /* \"#utility.yul\":2137:2143   */\n      0x00\n        /* \"#utility.yul\":2190:2192   */\n      0x60\n        /* \"#utility.yul\":2178:2187   */\n      dup5\n        /* \"#utility.yul\":2169:2176   */\n      dup7\n        /* \"#utility.yul\":2165:2188   */\n      sub\n        /* \"#utility.yul\":2161:2193   */\n      slt\n        /* \"#utility.yul\":2158:2210   */\n      iszero\n      tag_248\n      jumpi\n        /* \"#utility.yul\":2206:2207   */\n      0x00\n        /* \"#utility.yul\":2203:2204   */\n      dup1\n        /* \"#utility.yul\":2196:2208   */\n      revert\n        /* \"#utility.yul\":2158:2210   */\n    tag_248:\n        /* \"#utility.yul\":2229:2258   */\n      tag_249\n        /* \"#utility.yul\":2248:2257   */\n      dup5\n        /* \"#utility.yul\":2229:2258   */\n      tag_231\n      jump\t// in\n    tag_249:\n        /* \"#utility.yul\":2219:2258   */\n      swap3\n      pop\n        /* \"#utility.yul\":2305:2307   */\n      0x20\n        /* \"#utility.yul\":2294:2303   */\n      dup5\n        /* \"#utility.yul\":2290:2308   */\n      add\n        /* \"#utility.yul\":2277:2309   */\n      calldataload\n        /* \"#utility.yul\":2267:2309   */\n      swap2\n      pop\n        /* \"#utility.yul\":2328:2366   */\n      tag_250\n        /* \"#utility.yul\":2362:2364   */\n      0x40\n        /* \"#utility.yul\":2351:2360   */\n      dup6\n        /* \"#utility.yul\":2347:2365   */\n      add\n        /* \"#utility.yul\":2328:2366   */\n      tag_231\n      jump\t// in\n    tag_250:\n        /* \"#utility.yul\":2318:2366   */\n      swap1\n      pop\n        /* \"#utility.yul\":2044:2372   */\n      swap3\n      pop\n      swap3\n      pop\n      swap3\n      jump\t// out\n        /* \"#utility.yul\":2630:2952   */\n    tag_47:\n        /* \"#utility.yul\":2707:2713   */\n      0x00\n        /* \"#utility.yul\":2715:2721   */\n      dup1\n        /* \"#utility.yul\":2723:2729   */\n      0x00\n        /* \"#utility.yul\":2776:2778   */\n      0x60\n        /* \"#utility.yul\":2764:2773   */\n      dup5\n        /* \"#utility.yul\":2755:2762   */\n      dup7\n        /* \"#utility.yul\":2751:2774   */\n      sub\n        /* \"#utility.yul\":2747:2779   */\n      slt\n        /* \"#utility.yul\":2744:2796   */\n      iszero\n      tag_253\n      jumpi\n        /* \"#utility.yul\":2792:2793   */\n      0x00\n        /* \"#utility.yul\":2789:2790   */\n      dup1\n        /* \"#utility.yul\":2782:2794   */\n      revert\n        /* \"#utility.yul\":2744:2796   */\n    tag_253:\n        /* \"#utility.yul\":2815:2844   */\n      tag_254\n        /* \"#utility.yul\":2834:2843   */\n      dup5\n        /* \"#utility.yul\":2815:2844   */\n      tag_231\n      jump\t// in\n    tag_254:\n        /* \"#utility.yul\":2805:2844   */\n      swap6\n        /* \"#utility.yul\":2891:2893   */\n      0x20\n        /* \"#utility.yul\":2876:2894   */\n      dup6\n      add\n        /* \"#utility.yul\":2863:2895   */\n      calldataload\n      swap6\n      pop\n        /* \"#utility.yul\":2942:2944   */\n      0x40\n        /* \"#utility.yul\":2927:2945   */\n      swap1\n      swap5\n      add\n        /* \"#utility.yul\":2914:2946   */\n      calldataload\n      swap4\n        /* \"#utility.yul\":2630:2952   */\n      swap3\n      pop\n      pop\n      pop\n      jump\t// out\n        /* \"#utility.yul\":2957:3211   */\n    tag_52:\n        /* \"#utility.yul\":3025:3031   */\n      0x00\n        /* \"#utility.yul\":3033:3039   */\n      dup1\n        /* \"#utility.yul\":3086:3088   */\n      0x40\n        /* \"#utility.yul\":3074:3083   */\n      dup4\n        /* \"#utility.yul\":3065:3072   */\n      dup6\n        /* \"#utility.yul\":3061:3084   */\n      sub\n        /* \"#utility.yul\":3057:3089   */\n      slt\n        /* \"#utility.yul\":3054:3106   */\n      iszero\n      tag_256\n      jumpi\n        /* \"#utility.yul\":3102:3103   */\n      0x00\n        /* \"#utility.yul\":3099:3100   */\n      dup1\n        /* \"#utility.yul\":3092:3104   */\n      revert\n        /* \"#utility.yul\":3054:3106   */\n    tag_256:\n        /* \"#utility.yul\":3125:3154   */\n      tag_257\n        /* \"#utility.yul\":3144:3153   */\n      dup4\n        /* \"#utility.yul\":3125:3154   */\n      tag_231\n      jump\t// in\n    tag_257:\n        /* \"#utility.yul\":3115:3154   */\n      swap5\n        /* \"#utility.yul\":3201:3203   */\n      0x20\n        /* \"#utility.yul\":3186:3204   */\n      swap4\n      swap1\n      swap4\n      add\n        /* \"#utility.yul\":3173:3205   */\n      calldataload\n      swap4\n      pop\n      pop\n      pop\n        /* \"#utility.yul\":2957:3211   */\n      jump\t// out\n        /* \"#utility.yul\":3216:3343   */\n    tag_173:\n        /* \"#utility.yul\":3277:3287   */\n      0x4e487b71\n        /* \"#utility.yul\":3272:3275   */\n      0xe0\n        /* \"#utility.yul\":3268:3288   */\n      shl\n        /* \"#utility.yul\":3265:3266   */\n      0x00\n        /* \"#utility.yul\":3258:3289   */\n      mstore\n        /* \"#utility.yul\":3308:3312   */\n      0x21\n        /* \"#utility.yul\":3305:3306   */\n      0x04\n        /* \"#utility.yul\":3298:3313   */\n      mstore\n        /* \"#utility.yul\":3332:3336   */\n      0x24\n        /* \"#utility.yul\":3329:3330   */\n      0x00\n        /* \"#utility.yul\":3322:3337   */\n      revert\n        /* \"#utility.yul\":3348:4104   */\n    tag_55:\n        /* \"#utility.yul\":3647:3672   */\n      dup7\n      dup2\n      mstore\n      sub(shl(0xa0, 0x01), 0x01)\n        /* \"#utility.yul\":3746:3761   */\n      dup7\n      dup2\n      and\n        /* \"#utility.yul\":3741:3743   */\n      0x20\n        /* \"#utility.yul\":3726:3744   */\n      dup4\n      add\n        /* \"#utility.yul\":3719:3762   */\n      mstore\n        /* \"#utility.yul\":3798:3813   */\n      dup6\n      and\n        /* \"#utility.yul\":3793:3795   */\n      0x40\n        /* \"#utility.yul\":3778:3796   */\n      dup3\n      add\n        /* \"#utility.yul\":3771:3814   */\n      mstore\n        /* \"#utility.yul\":3845:3847   */\n      0x60\n        /* \"#utility.yul\":3830:3848   */\n      dup2\n      add\n        /* \"#utility.yul\":3823:3857   */\n      dup5\n      swap1\n      mstore\n        /* \"#utility.yul\":3888:3891   */\n      0x80\n        /* \"#utility.yul\":3873:3892   */\n      dup2\n      add\n        /* \"#utility.yul\":3866:3901   */\n      dup4\n      swap1\n      mstore\n        /* \"#utility.yul\":3634:3637   */\n      0xc0\n        /* \"#utility.yul\":3619:3638   */\n      dup2\n      add\n        /* \"#utility.yul\":3931:3932   */\n      0x05\n        /* \"#utility.yul\":3920:3933   */\n      dup4\n      lt\n        /* \"#utility.yul\":3910:4054   */\n      tag_260\n      jumpi\n        /* \"#utility.yul\":3976:3986   */\n      0x4e487b71\n        /* \"#utility.yul\":3971:3974   */\n      0xe0\n        /* \"#utility.yul\":3967:3987   */\n      shl\n        /* \"#utility.yul\":3964:3965   */\n      0x00\n        /* \"#utility.yul\":3957:3988   */\n      mstore\n        /* \"#utility.yul\":4011:4015   */\n      0x21\n        /* \"#utility.yul\":4008:4009   */\n      0x04\n        /* \"#utility.yul\":4001:4016   */\n      mstore\n        /* \"#utility.yul\":4039:4043   */\n      0x24\n        /* \"#utility.yul\":4036:4037   */\n      0x00\n        /* \"#utility.yul\":4029:4044   */\n      revert\n        /* \"#utility.yul\":3910:4054   */\n    tag_260:\n        /* \"#utility.yul\":4091:4097   */\n      dup3\n        /* \"#utility.yul\":4085:4088   */\n      0xa0\n        /* \"#utility.yul\":4074:4083   */\n      dup4\n        /* \"#utility.yul\":4070:4089   */\n      add\n        /* \"#utility.yul\":4063:4098   */\n      mstore\n        /* \"#utility.yul\":3348:4104   */\n      swap8\n      swap7\n      pop\n      pop\n      pop\n      pop\n      pop\n      pop\n      pop\n      jump\t// out\n        /* \"#utility.yul\":4519:4646   */\n    tag_232:\n        /* \"#utility.yul\":4580:4590   */\n      0x4e487b71\n        /* \"#utility.yul\":4575:4578   */\n      0xe0\n        /* \"#utility.yul\":4571:4591   */\n      shl\n        /* \"#utility.yul\":4568:4569   */\n      0x00\n        /* \"#utility.yul\":4561:4592   */\n      mstore\n        /* \"#utility.yul\":4611:4615   */\n      0x11\n        /* \"#utility.yul\":4608:4609   */\n      0x04\n        /* \"#utility.yul\":4601:4616   */\n      mstore\n        /* \"#utility.yul\":4635:4639   */\n      0x24\n        /* \"#utility.yul\":4632:4633   */\n      0x00\n        /* \"#utility.yul\":4625:4640   */\n      revert\n        /* \"#utility.yul\":4651:4776   */\n    tag_88:\n        /* \"#utility.yul\":4691:4695   */\n      0x00\n        /* \"#utility.yul\":4719:4720   */\n      dup3\n        /* \"#utility.yul\":4716:4717   */\n      dup3\n        /* \"#utility.yul\":4713:4721   */\n      lt\n        /* \"#utility.yul\":4710:4744   */\n      iszero\n      tag_266\n      jumpi\n        /* \"#utility.yul\":4724:4742   */\n      tag_266\n      tag_232\n      jump\t// in\n    tag_266:\n      pop\n        /* \"#utility.yul\":4761:4770   */\n      sub\n      swap1\n        /* \"#utility.yul\":4651:4776   */\n      jump\t// out\n        /* \"#utility.yul\":4781:4908   */\n    tag_91:\n        /* \"#utility.yul\":4842:4852   */\n      0x4e487b71\n        /* \"#utility.yul\":4837:4840   */\n      0xe0\n        /* \"#utility.yul\":4833:4853   */\n      shl\n        /* \"#utility.yul\":4830:4831   */\n      0x00\n        /* \"#utility.yul\":4823:4854   */\n      mstore\n        /* \"#utility.yul\":4873:4877   */\n      0x41\n        /* \"#utility.yul\":4870:4871   */\n      0x04\n        /* \"#utility.yul\":4863:4878   */\n      mstore\n        /* \"#utility.yul\":4897:4901   */\n      0x24\n        /* \"#utility.yul\":4894:4895   */\n      0x00\n        /* \"#utility.yul\":4887:4902   */\n      revert\n        /* \"#utility.yul\":4913:5041   */\n    tag_100:\n        /* \"#utility.yul\":4953:4956   */\n      0x00\n        /* \"#utility.yul\":4984:4985   */\n      dup3\n        /* \"#utility.yul\":4980:4986   */\n      not\n        /* \"#utility.yul\":4977:4978   */\n      dup3\n        /* \"#utility.yul\":4974:4987   */\n      gt\n        /* \"#utility.yul\":4971:5010   */\n      iszero\n      tag_270\n      jumpi\n        /* \"#utility.yul\":4990:5008   */\n      tag_270\n      tag_232\n      jump\t// in\n    tag_270:\n      pop\n        /* \"#utility.yul\":5026:5035   */\n      add\n      swap1\n        /* \"#utility.yul\":4913:5041   */\n      jump\t// out\n        /* \"#utility.yul\":5046:5173   */\n    tag_105:\n        /* \"#utility.yul\":5107:5117   */\n      0x4e487b71\n        /* \"#utility.yul\":5102:5105   */\n      0xe0\n        /* \"#utility.yul\":5098:5118   */\n      shl\n        /* \"#utility.yul\":5095:5096   */\n      0x00\n        /* \"#utility.yul\":5088:5119   */\n      mstore\n        /* \"#utility.yul\":5138:5142   */\n      0x32\n        /* \"#utility.yul\":5135:5136   */\n      0x04\n        /* \"#utility.yul\":5128:5143   */\n      mstore\n        /* \"#utility.yul\":5162:5166   */\n      0x24\n        /* \"#utility.yul\":5159:5160   */\n      0x00\n        /* \"#utility.yul\":5152:5167   */\n      revert\n        /* \"#utility.yul\":5178:5313   */\n    tag_108:\n        /* \"#utility.yul\":5217:5220   */\n      0x00\n        /* \"#utility.yul\":5238:5255   */\n      0x01\n      dup3\n      add\n        /* \"#utility.yul\":5235:5278   */\n      tag_274\n      jumpi\n        /* \"#utility.yul\":5258:5276   */\n      tag_274\n      tag_232\n      jump\t// in\n    tag_274:\n      pop\n        /* \"#utility.yul\":5305:5306   */\n      0x01\n        /* \"#utility.yul\":5294:5307   */\n      add\n      swap1\n        /* \"#utility.yul\":5178:5313   */\n      jump\t// out\n        /* \"#utility.yul\":6035:6410   */\n    tag_147:\n      sub(shl(0xa0, 0x01), 0x01)\n        /* \"#utility.yul\":6293:6308   */\n      swap4\n      dup5\n      and\n        /* \"#utility.yul\":6275:6309   */\n      dup2\n      mstore\n        /* \"#utility.yul\":6345:6360   */\n      swap2\n      swap1\n      swap3\n      and\n        /* \"#utility.yul\":6340:6342   */\n      0x20\n        /* \"#utility.yul\":6325:6343   */\n      dup3\n      add\n        /* \"#utility.yul\":6318:6361   */\n      mstore\n        /* \"#utility.yul\":6392:6394   */\n      0x40\n        /* \"#utility.yul\":6377:6395   */\n      dup2\n      add\n        /* \"#utility.yul\":6370:6404   */\n      swap2\n      swap1\n      swap2\n      mstore\n        /* \"#utility.yul\":6225:6227   */\n      0x60\n        /* \"#utility.yul\":6210:6228   */\n      add\n      swap1\n        /* \"#utility.yul\":6035:6410   */\n      jump\t// out\n        /* \"#utility.yul\":8252:8420   */\n    tag_193:\n        /* \"#utility.yul\":8292:8299   */\n      0x00\n        /* \"#utility.yul\":8358:8359   */\n      dup2\n        /* \"#utility.yul\":8354:8355   */\n      0x00\n        /* \"#utility.yul\":8350:8356   */\n      not\n        /* \"#utility.yul\":8346:8360   */\n      div\n        /* \"#utility.yul\":8343:8344   */\n      dup4\n        /* \"#utility.yul\":8340:8361   */\n      gt\n        /* \"#utility.yul\":8335:8336   */\n      dup3\n        /* \"#utility.yul\":8328:8337   */\n      iszero\n        /* \"#utility.yul\":8321:8338   */\n      iszero\n        /* \"#utility.yul\":8317:8362   */\n      and\n        /* \"#utility.yul\":8314:8385   */\n      iszero\n      tag_285\n      jumpi\n        /* \"#utility.yul\":8365:8383   */\n      tag_285\n      tag_232\n      jump\t// in\n    tag_285:\n      pop\n        /* \"#utility.yul\":8405:8414   */\n      mul\n      swap1\n        /* \"#utility.yul\":8252:8420   */\n      jump\t// out\n        /* \"#utility.yul\":8425:8642   */\n    tag_195:\n        /* \"#utility.yul\":8465:8466   */\n      0x00\n        /* \"#utility.yul\":8491:8492   */\n      dup3\n        /* \"#utility.yul\":8481:8613   */\n      tag_287\n      jumpi\n        /* \"#utility.yul\":8535:8545   */\n      0x4e487b71\n        /* \"#utility.yul\":8530:8533   */\n      0xe0\n        /* \"#utility.yul\":8526:8546   */\n      shl\n        /* \"#utility.yul\":8523:8524   */\n      0x00\n        /* \"#utility.yul\":8516:8547   */\n      mstore\n        /* \"#utility.yul\":8570:8574   */\n      0x12\n        /* \"#utility.yul\":8567:8568   */\n      0x04\n        /* \"#utility.yul\":8560:8575   */\n      mstore\n        /* \"#utility.yul\":8598:8602   */\n      0x24\n        /* \"#utility.yul\":8595:8596   */\n      0x00\n        /* \"#utility.yul\":8588:8603   */\n      revert\n        /* \"#utility.yul\":8481:8613   */\n    tag_287:\n      pop\n        /* \"#utility.yul\":8627:8636   */\n      div\n      swap1\n        /* \"#utility.yul\":8425:8642   */\n      jump\t// out\n        /* \"#utility.yul\":8647:8924   */\n    tag_201:\n        /* \"#utility.yul\":8714:8720   */\n      0x00\n        /* \"#utility.yul\":8767:8769   */\n      0x20\n        /* \"#utility.yul\":8755:8764   */\n      dup3\n        /* \"#utility.yul\":8746:8753   */\n      dup5\n        /* \"#utility.yul\":8742:8765   */\n      sub\n        /* \"#utility.yul\":8738:8770   */\n      slt\n        /* \"#utility.yul\":8735:8787   */\n      iszero\n      tag_289\n      jumpi\n        /* \"#utility.yul\":8783:8784   */\n      0x00\n        /* \"#utility.yul\":8780:8781   */\n      dup1\n        /* \"#utility.yul\":8773:8785   */\n      revert\n        /* \"#utility.yul\":8735:8787   */\n    tag_289:\n        /* \"#utility.yul\":8815:8824   */\n      dup2\n        /* \"#utility.yul\":8809:8825   */\n      mload\n        /* \"#utility.yul\":8868:8873   */\n      dup1\n        /* \"#utility.yul\":8861:8874   */\n      iszero\n        /* \"#utility.yul\":8854:8875   */\n      iszero\n        /* \"#utility.yul\":8847:8852   */\n      dup2\n        /* \"#utility.yul\":8844:8876   */\n      eq\n        /* \"#utility.yul\":8834:8894   */\n      tag_290\n      jumpi\n        /* \"#utility.yul\":8890:8891   */\n      0x00\n        /* \"#utility.yul\":8887:8888   */\n      dup1\n        /* \"#utility.yul\":8880:8892   */\n      revert\n        /* \"#utility.yul\":8834:8894   */\n    tag_290:\n        /* \"#utility.yul\":8913:8918   */\n      swap4\n        /* \"#utility.yul\":8647:8924   */\n      swap3\n      pop\n      pop\n      pop\n      jump\t// out\n\n    auxdata: 0xa264697066735822122063c4929e7d2e52797ef105d55a839b799b0397bddfdd9bbf18487bade20a9be264736f6c634300080d0033\n}\n",
				"bytecode": {
					"linkReferences": {},
					"object": "608060405234801561001057600080fd5b5060016000556113da806100256000396000f3fe6080604052600436106100c25760003560e01c80635c80a4351161007f578063b7a60c7e11610059578063b7a60c7e146102bc578063c23b139e146102dd578063c7be7a4914610107578063f01b52dc146102f057600080fd5b80635c80a435146101d757806385a8b36c1461025157806392fc79fa1461028457600080fd5b80630f08efe0146100c7578063202e3740146100f25780632a45b250146101075780632b4c32be14610134578063497396781461016857806358eb2df5146101c2575b600080fd5b3480156100d357600080fd5b506100dc610310565b6040516100e991906110eb565b60405180910390f35b3480156100fe57600080fd5b506100dc61049e565b34801561011357600080fd5b50610127610122366004611139565b610669565b6040516100e99190611152565b34801561014057600080fd5b5061014f6380ac58cd60e01b81565b6040516001600160e01b031990911681526020016100e9565b34801561017457600080fd5b506101ad610183366004611182565b60026020908152600093845260408085208252928452828420905282529020805460019091015482565b604080519283526020830191909152016100e9565b6101d56101d03660046111be565b6106d8565b005b3480156101e357600080fd5b5061023f6101f23660046111f1565b600160208181526000938452604080852090915291835291208054918101546002820154600383015460048401546005909401546001600160a01b03938416949390921692909160ff1686565b6040516100e996959493929190611231565b34801561025d57600080fd5b5060035461027290600160a01b900460ff1681565b60405160ff90911681526020016100e9565b34801561029057600080fd5b506003546102a4906001600160a01b031681565b6040516001600160a01b0390911681526020016100e9565b3480156102c857600080fd5b5060035461027290600160a81b900460ff1681565b6101d56102eb3660046111f1565b6108e7565b3480156102fc57600080fd5b506101d561030b3660046111be565b610ab0565b6060600061031d60045490565b9050600061032a60055490565b60045461033791906112a2565b90506000808267ffffffffffffffff811115610355576103556112b9565b60405190808252806020026020018201604052801561038e57816020015b61037b611050565b8152602001906001900390816103735790505b50905060005b848110156104955760006006816103ac8460016112cf565b81526020810191909152604001600020600401546001600160a01b0316036104835760006006816103de8460016112cf565b815260208082019290925260409081016000908120548082526006845290829020825160c0810184528154815260018201546001600160a01b039081169582019590955260028201549381019390935260038101548416606084015260048101549093166080830152600583015460a08301528551909350859087908110610468576104686112e7565b602090810291909101015261047e6001866112cf565b945050505b8061048d816112fd565b915050610394565b50949350505050565b606060006104ab60045490565b905060008060005b8381101561050d5733600660006104cb8460016112cf565b81526020810191909152604001600020600401546001600160a01b0316036104fb576104f86001846112cf565b92505b80610505816112fd565b9150506104b3565b5060008267ffffffffffffffff811115610529576105296112b9565b60405190808252806020026020018201604052801561056257816020015b61054f611050565b8152602001906001900390816105475790505b50905060005b848110156104955733600660006105808460016112cf565b81526020810191909152604001600020600401546001600160a01b0316036106575760006006816105b28460016112cf565b815260208082019290925260409081016000908120548082526006845290829020825160c0810184528154815260018201546001600160a01b039081169582019590955260028201549381019390935260038101548416606084015260048101549093166080830152600583015460a0830152855190935085908790811061063c5761063c6112e7565b60209081029190910101526106526001866112cf565b945050505b80610661816112fd565b915050610568565b610671611050565b50600090815260066020908152604091829020825160c0810184528154815260018201546001600160a01b0390811693820193909352600282015493810193909352600381015482166060840152600481015490911660808301526005015460a082015290565b60026000540361072f5760405162461bcd60e51b815260206004820152601f60248201527f5265656e7472616e637947756172643a207265656e7472616e742063616c6c0060448201526064015b60405180910390fd5b6002600055806107815760405162461bcd60e51b815260206004820152601c60248201527f5072696365206d757374206265206174206c65617374203120776569000000006044820152606401610726565b61078f600480546001019055565b600061079a60045490565b6040805160c0810182528281526001600160a01b0380881660208084018281528486018a8152336060870181815260006080890181815260a08a018e81528c83526006909752908a90209851895593516001890180549189166001600160a01b03199283161790559251600289015551600388018054918816918416919091179055915160048088018054929097169190921617909455905160059094019390935592516323b872dd60e01b815293945091926323b872dd9261086292913091899101611316565b600060405180830381600087803b15801561087c57600080fd5b505af1158015610890573d6000803e3d6000fd5b5050505082846001600160a01b0316827f2ad024d53a0dc50c130967f8d4941927ee087ea31394cebb2b9599d3706c9c00336000876040516108d493929190611316565b60405180910390a4505060016000555050565b6002600054036109395760405162461bcd60e51b815260206004820152601f60248201527f5265656e7472616e637947756172643a207265656e7472616e742063616c6c006044820152606401610726565b6002600081815582815260066020526040902060058101549101543482146109cb576040805162461bcd60e51b81526020600482015260248101919091527f506c65617365207375626d6974207468652061736b696e67207072696365206960448201527f6e206f7264657220746f20636f6d706c657465207468652070757263686173656064820152608401610726565b6000838152600660205260408082206003015490516001600160a01b03909116913480156108fc02929091818181858888f19350505050158015610a13573d6000803e3d6000fd5b506040516323b872dd60e01b81526001600160a01b038516906323b872dd90610a4490309033908690600401611316565b600060405180830381600087803b158015610a5e57600080fd5b505af1158015610a72573d6000803e3d6000fd5b505050600084815260066020526040902060040180546001600160a01b0319163317905550610aa5600580546001019055565b505060016000555050565b610ab983610f11565b6001600160a01b0380841660009081526001602081815260408084208785528252808420815160c08101835281548152938101548616928401929092526002820154909416938201939093526003830154606082015260048084015460808301526005840154339488949392909160a084019160ff90911690811115610b4157610b4161121b565b6004811115610b5257610b5261121b565b9052508051909150600003610b9f5760405162461bcd60e51b8152602060048201526013602482015272105cdcd95d081b9bdd081c1d589b1a5cda1959606a1b6044820152606401610726565b60018160a001516004811115610bb757610bb761121b565b14610c045760405162461bcd60e51b815260206004820152601860248201527f4173736574206973206e6f74206c69737420746f2062757900000000000000006044820152606401610726565b60208101516001600160a01b038116610c515760405162461bcd60e51b815260206004820152600f60248201526e496e76616c6964206164647265737360881b6044820152606401610726565b8160800151851015610ca55760405162461bcd60e51b815260206004820152601e60248201527f7072696365206e65656420657175616c206c697374696e6720707269636500006044820152606401610726565b600354600090606490610cc3908890600160a81b900460ff1661133a565b610ccd9190611359565b90506000610cdb82886112a2565b6003546040516323b872dd60e01b81529192506001600160a01b0316906323b872dd90610d1090899030908790600401611316565b6020604051808303816000875af1158015610d2f573d6000803e3d6000fd5b505050506040513d601f19601f82011682018060405250810190610d53919061137b565b506003546040516323b872dd60e01b81526001600160a01b03909116906323b872dd90610d8890899087908690600401611316565b6020604051808303816000875af1158015610da7573d6000803e3d6000fd5b505050506040513d601f19601f82011682018060405250810190610dcb919061137b565b50604051632142170760e11b81526001600160a01b038616906342842e0e90610dfc9030908a908d90600401611316565b600060405180830381600087803b158015610e1657600080fd5b505af1158015610e2a573d6000803e3d6000fd5b505050506001600160a01b0389811660008181526001602081815260408084208e855282529283902091820180548c87166001600160a01b031990911681179091556005909201805460ff1916600217905588516080808b015160035486519384529383019690965293810194909452600160a81b900460ff16606084015290820185905260e060a0830181905260049083015263414e544160e01b6101008301524260c0830152918516908a907f30247e11bbb597dfefd2a3124026f1ef8987a4d6ba46e3629f80bac1b0c9faee906101200160405180910390a4505050505050505050565b803b63ffffffff16610f715760405162461bcd60e51b8152602060048201526024808201527f546865204e465420416464726573732073686f756c64206265206120636f6e746044820152631c9858dd60e21b6064820152608401610726565b6040516301ffc9a760e01b81526380ac58cd60e01b600482015281906001600160a01b038216906301ffc9a790602401602060405180830381865afa158015610fbe573d6000803e3d6000fd5b505050506040513d601f19601f82011682018060405250810190610fe2919061137b565b61104c5760405162461bcd60e51b815260206004820152603560248201527f546865204e465420636f6e74726163742068617320616e20696e76616c69642060448201527422a9219b99189034b6b83632b6b2b73a30ba34b7b760591b6064820152608401610726565b5050565b6040518060c001604052806000815260200160006001600160a01b031681526020016000815260200160006001600160a01b0316815260200160006001600160a01b03168152602001600081525090565b80518252602081015160018060a01b03808216602085015260408301516040850152806060840151166060850152806080840151166080850152505060a081015160a08301525050565b6020808252825182820181905260009190848201906040850190845b8181101561112d5761111a8385516110a1565b9284019260c09290920191600101611107565b50909695505050505050565b60006020828403121561114b57600080fd5b5035919050565b60c0810161116082846110a1565b92915050565b80356001600160a01b038116811461117d57600080fd5b919050565b60008060006060848603121561119757600080fd5b6111a084611166565b9250602084013591506111b560408501611166565b90509250925092565b6000806000606084860312156111d357600080fd5b6111dc84611166565b95602085013595506040909401359392505050565b6000806040838503121561120457600080fd5b61120d83611166565b946020939093013593505050565b634e487b7160e01b600052602160045260246000fd5b8681526001600160a01b03868116602083015285166040820152606081018490526080810183905260c081016005831061127b57634e487b7160e01b600052602160045260246000fd5b8260a0830152979650505050505050565b634e487b7160e01b600052601160045260246000fd5b6000828210156112b4576112b461128c565b500390565b634e487b7160e01b600052604160045260246000fd5b600082198211156112e2576112e261128c565b500190565b634e487b7160e01b600052603260045260246000fd5b60006001820161130f5761130f61128c565b5060010190565b6001600160a01b039384168152919092166020820152604081019190915260600190565b60008160001904831182151516156113545761135461128c565b500290565b60008261137657634e487b7160e01b600052601260045260246000fd5b500490565b60006020828403121561138d57600080fd5b8151801515811461139d57600080fd5b939250505056fea264697066735822122063c4929e7d2e52797ef105d55a839b799b0397bddfdd9bbf18487bade20a9be264736f6c634300080d0033",
					"opcodes": "PUSH1 0x80 PUSH1 0x40 MSTORE CALLVALUE DUP1 ISZERO PUSH2 0x10 JUMPI PUSH1 0x0 DUP1 REVERT JUMPDEST POP PUSH1 0x1 PUSH1 0x0 SSTORE PUSH2 0x13DA DUP1 PUSH2 0x25 PUSH1 0x0 CODECOPY PUSH1 0x0 RETURN INVALID PUSH1 0x80 PUSH1 0x40 MSTORE PUSH1 0x4 CALLDATASIZE LT PUSH2 0xC2 JUMPI PUSH1 0x0 CALLDATALOAD PUSH1 0xE0 SHR DUP1 PUSH4 0x5C80A435 GT PUSH2 0x7F JUMPI DUP1 PUSH4 0xB7A60C7E GT PUSH2 0x59 JUMPI DUP1 PUSH4 0xB7A60C7E EQ PUSH2 0x2BC JUMPI DUP1 PUSH4 0xC23B139E EQ PUSH2 0x2DD JUMPI DUP1 PUSH4 0xC7BE7A49 EQ PUSH2 0x107 JUMPI DUP1 PUSH4 0xF01B52DC EQ PUSH2 0x2F0 JUMPI PUSH1 0x0 DUP1 REVERT JUMPDEST DUP1 PUSH4 0x5C80A435 EQ PUSH2 0x1D7 JUMPI DUP1 PUSH4 0x85A8B36C EQ PUSH2 0x251 JUMPI DUP1 PUSH4 0x92FC79FA EQ PUSH2 0x284 JUMPI PUSH1 0x0 DUP1 REVERT JUMPDEST DUP1 PUSH4 0xF08EFE0 EQ PUSH2 0xC7 JUMPI DUP1 PUSH4 0x202E3740 EQ PUSH2 0xF2 JUMPI DUP1 PUSH4 0x2A45B250 EQ PUSH2 0x107 JUMPI DUP1 PUSH4 0x2B4C32BE EQ PUSH2 0x134 JUMPI DUP1 PUSH4 0x49739678 EQ PUSH2 0x168 JUMPI DUP1 PUSH4 0x58EB2DF5 EQ PUSH2 0x1C2 JUMPI JUMPDEST PUSH1 0x0 DUP1 REVERT JUMPDEST CALLVALUE DUP1 ISZERO PUSH2 0xD3 JUMPI PUSH1 0x0 DUP1 REVERT JUMPDEST POP PUSH2 0xDC PUSH2 0x310 JUMP JUMPDEST PUSH1 0x40 MLOAD PUSH2 0xE9 SWAP2 SWAP1 PUSH2 0x10EB JUMP JUMPDEST PUSH1 0x40 MLOAD DUP1 SWAP2 SUB SWAP1 RETURN JUMPDEST CALLVALUE DUP1 ISZERO PUSH2 0xFE JUMPI PUSH1 0x0 DUP1 REVERT JUMPDEST POP PUSH2 0xDC PUSH2 0x49E JUMP JUMPDEST CALLVALUE DUP1 ISZERO PUSH2 0x113 JUMPI PUSH1 0x0 DUP1 REVERT JUMPDEST POP PUSH2 0x127 PUSH2 0x122 CALLDATASIZE PUSH1 0x4 PUSH2 0x1139 JUMP JUMPDEST PUSH2 0x669 JUMP JUMPDEST PUSH1 0x40 MLOAD PUSH2 0xE9 SWAP2 SWAP1 PUSH2 0x1152 JUMP JUMPDEST CALLVALUE DUP1 ISZERO PUSH2 0x140 JUMPI PUSH1 0x0 DUP1 REVERT JUMPDEST POP PUSH2 0x14F PUSH4 0x80AC58CD PUSH1 0xE0 SHL DUP2 JUMP JUMPDEST PUSH1 0x40 MLOAD PUSH1 0x1 PUSH1 0x1 PUSH1 0xE0 SHL SUB NOT SWAP1 SWAP2 AND DUP2 MSTORE PUSH1 0x20 ADD PUSH2 0xE9 JUMP JUMPDEST CALLVALUE DUP1 ISZERO PUSH2 0x174 JUMPI PUSH1 0x0 DUP1 REVERT JUMPDEST POP PUSH2 0x1AD PUSH2 0x183 CALLDATASIZE PUSH1 0x4 PUSH2 0x1182 JUMP JUMPDEST PUSH1 0x2 PUSH1 0x20 SWAP1 DUP2 MSTORE PUSH1 0x0 SWAP4 DUP5 MSTORE PUSH1 0x40 DUP1 DUP6 KECCAK256 DUP3 MSTORE SWAP3 DUP5 MSTORE DUP3 DUP5 KECCAK256 SWAP1 MSTORE DUP3 MSTORE SWAP1 KECCAK256 DUP1 SLOAD PUSH1 0x1 SWAP1 SWAP2 ADD SLOAD DUP3 JUMP JUMPDEST PUSH1 0x40 DUP1 MLOAD SWAP3 DUP4 MSTORE PUSH1 0x20 DUP4 ADD SWAP2 SWAP1 SWAP2 MSTORE ADD PUSH2 0xE9 JUMP JUMPDEST PUSH2 0x1D5 PUSH2 0x1D0 CALLDATASIZE PUSH1 0x4 PUSH2 0x11BE JUMP JUMPDEST PUSH2 0x6D8 JUMP JUMPDEST STOP JUMPDEST CALLVALUE DUP1 ISZERO PUSH2 0x1E3 JUMPI PUSH1 0x0 DUP1 REVERT JUMPDEST POP PUSH2 0x23F PUSH2 0x1F2 CALLDATASIZE PUSH1 0x4 PUSH2 0x11F1 JUMP JUMPDEST PUSH1 0x1 PUSH1 0x20 DUP2 DUP2 MSTORE PUSH1 0x0 SWAP4 DUP5 MSTORE PUSH1 0x40 DUP1 DUP6 KECCAK256 SWAP1 SWAP2 MSTORE SWAP2 DUP4 MSTORE SWAP2 KECCAK256 DUP1 SLOAD SWAP2 DUP2 ADD SLOAD PUSH1 0x2 DUP3 ADD SLOAD PUSH1 0x3 DUP4 ADD SLOAD PUSH1 0x4 DUP5 ADD SLOAD PUSH1 0x5 SWAP1 SWAP5 ADD SLOAD PUSH1 0x1 PUSH1 0x1 PUSH1 0xA0 SHL SUB SWAP4 DUP5 AND SWAP5 SWAP4 SWAP1 SWAP3 AND SWAP3 SWAP1 SWAP2 PUSH1 0xFF AND DUP7 JUMP JUMPDEST PUSH1 0x40 MLOAD PUSH2 0xE9 SWAP7 SWAP6 SWAP5 SWAP4 SWAP3 SWAP2 SWAP1 PUSH2 0x1231 JUMP JUMPDEST CALLVALUE DUP1 ISZERO PUSH2 0x25D JUMPI PUSH1 0x0 DUP1 REVERT JUMPDEST POP PUSH1 0x3 SLOAD PUSH2 0x272 SWAP1 PUSH1 0x1 PUSH1 0xA0 SHL SWAP1 DIV PUSH1 0xFF AND DUP2 JUMP JUMPDEST PUSH1 0x40 MLOAD PUSH1 0xFF SWAP1 SWAP2 AND DUP2 MSTORE PUSH1 0x20 ADD PUSH2 0xE9 JUMP JUMPDEST CALLVALUE DUP1 ISZERO PUSH2 0x290 JUMPI PUSH1 0x0 DUP1 REVERT JUMPDEST POP PUSH1 0x3 SLOAD PUSH2 0x2A4 SWAP1 PUSH1 0x1 PUSH1 0x1 PUSH1 0xA0 SHL SUB AND DUP2 JUMP JUMPDEST PUSH1 0x40 MLOAD PUSH1 0x1 PUSH1 0x1 PUSH1 0xA0 SHL SUB SWAP1 SWAP2 AND DUP2 MSTORE PUSH1 0x20 ADD PUSH2 0xE9 JUMP JUMPDEST CALLVALUE DUP1 ISZERO PUSH2 0x2C8 JUMPI PUSH1 0x0 DUP1 REVERT JUMPDEST POP PUSH1 0x3 SLOAD PUSH2 0x272 SWAP1 PUSH1 0x1 PUSH1 0xA8 SHL SWAP1 DIV PUSH1 0xFF AND DUP2 JUMP JUMPDEST PUSH2 0x1D5 PUSH2 0x2EB CALLDATASIZE PUSH1 0x4 PUSH2 0x11F1 JUMP JUMPDEST PUSH2 0x8E7 JUMP JUMPDEST CALLVALUE DUP1 ISZERO PUSH2 0x2FC JUMPI PUSH1 0x0 DUP1 REVERT JUMPDEST POP PUSH2 0x1D5 PUSH2 0x30B CALLDATASIZE PUSH1 0x4 PUSH2 0x11BE JUMP JUMPDEST PUSH2 0xAB0 JUMP JUMPDEST PUSH1 0x60 PUSH1 0x0 PUSH2 0x31D PUSH1 0x4 SLOAD SWAP1 JUMP JUMPDEST SWAP1 POP PUSH1 0x0 PUSH2 0x32A PUSH1 0x5 SLOAD SWAP1 JUMP JUMPDEST PUSH1 0x4 SLOAD PUSH2 0x337 SWAP2 SWAP1 PUSH2 0x12A2 JUMP JUMPDEST SWAP1 POP PUSH1 0x0 DUP1 DUP3 PUSH8 0xFFFFFFFFFFFFFFFF DUP2 GT ISZERO PUSH2 0x355 JUMPI PUSH2 0x355 PUSH2 0x12B9 JUMP JUMPDEST PUSH1 0x40 MLOAD SWAP1 DUP1 DUP3 MSTORE DUP1 PUSH1 0x20 MUL PUSH1 0x20 ADD DUP3 ADD PUSH1 0x40 MSTORE DUP1 ISZERO PUSH2 0x38E JUMPI DUP2 PUSH1 0x20 ADD JUMPDEST PUSH2 0x37B PUSH2 0x1050 JUMP JUMPDEST DUP2 MSTORE PUSH1 0x20 ADD SWAP1 PUSH1 0x1 SWAP1 SUB SWAP1 DUP2 PUSH2 0x373 JUMPI SWAP1 POP JUMPDEST POP SWAP1 POP PUSH1 0x0 JUMPDEST DUP5 DUP2 LT ISZERO PUSH2 0x495 JUMPI PUSH1 0x0 PUSH1 0x6 DUP2 PUSH2 0x3AC DUP5 PUSH1 0x1 PUSH2 0x12CF JUMP JUMPDEST DUP2 MSTORE PUSH1 0x20 DUP2 ADD SWAP2 SWAP1 SWAP2 MSTORE PUSH1 0x40 ADD PUSH1 0x0 KECCAK256 PUSH1 0x4 ADD SLOAD PUSH1 0x1 PUSH1 0x1 PUSH1 0xA0 SHL SUB AND SUB PUSH2 0x483 JUMPI PUSH1 0x0 PUSH1 0x6 DUP2 PUSH2 0x3DE DUP5 PUSH1 0x1 PUSH2 0x12CF JUMP JUMPDEST DUP2 MSTORE PUSH1 0x20 DUP1 DUP3 ADD SWAP3 SWAP1 SWAP3 MSTORE PUSH1 0x40 SWAP1 DUP2 ADD PUSH1 0x0 SWAP1 DUP2 KECCAK256 SLOAD DUP1 DUP3 MSTORE PUSH1 0x6 DUP5 MSTORE SWAP1 DUP3 SWAP1 KECCAK256 DUP3 MLOAD PUSH1 0xC0 DUP2 ADD DUP5 MSTORE DUP2 SLOAD DUP2 MSTORE PUSH1 0x1 DUP3 ADD SLOAD PUSH1 0x1 PUSH1 0x1 PUSH1 0xA0 SHL SUB SWAP1 DUP2 AND SWAP6 DUP3 ADD SWAP6 SWAP1 SWAP6 MSTORE PUSH1 0x2 DUP3 ADD SLOAD SWAP4 DUP2 ADD SWAP4 SWAP1 SWAP4 MSTORE PUSH1 0x3 DUP2 ADD SLOAD DUP5 AND PUSH1 0x60 DUP5 ADD MSTORE PUSH1 0x4 DUP2 ADD SLOAD SWAP1 SWAP4 AND PUSH1 0x80 DUP4 ADD MSTORE PUSH1 0x5 DUP4 ADD SLOAD PUSH1 0xA0 DUP4 ADD MSTORE DUP6 MLOAD SWAP1 SWAP4 POP DUP6 SWAP1 DUP8 SWAP1 DUP2 LT PUSH2 0x468 JUMPI PUSH2 0x468 PUSH2 0x12E7 JUMP JUMPDEST PUSH1 0x20 SWAP1 DUP2 MUL SWAP2 SWAP1 SWAP2 ADD ADD MSTORE PUSH2 0x47E PUSH1 0x1 DUP7 PUSH2 0x12CF JUMP JUMPDEST SWAP5 POP POP POP JUMPDEST DUP1 PUSH2 0x48D DUP2 PUSH2 0x12FD JUMP JUMPDEST SWAP2 POP POP PUSH2 0x394 JUMP JUMPDEST POP SWAP5 SWAP4 POP POP POP POP JUMP JUMPDEST PUSH1 0x60 PUSH1 0x0 PUSH2 0x4AB PUSH1 0x4 SLOAD SWAP1 JUMP JUMPDEST SWAP1 POP PUSH1 0x0 DUP1 PUSH1 0x0 JUMPDEST DUP4 DUP2 LT ISZERO PUSH2 0x50D JUMPI CALLER PUSH1 0x6 PUSH1 0x0 PUSH2 0x4CB DUP5 PUSH1 0x1 PUSH2 0x12CF JUMP JUMPDEST DUP2 MSTORE PUSH1 0x20 DUP2 ADD SWAP2 SWAP1 SWAP2 MSTORE PUSH1 0x40 ADD PUSH1 0x0 KECCAK256 PUSH1 0x4 ADD SLOAD PUSH1 0x1 PUSH1 0x1 PUSH1 0xA0 SHL SUB AND SUB PUSH2 0x4FB JUMPI PUSH2 0x4F8 PUSH1 0x1 DUP5 PUSH2 0x12CF JUMP JUMPDEST SWAP3 POP JUMPDEST DUP1 PUSH2 0x505 DUP2 PUSH2 0x12FD JUMP JUMPDEST SWAP2 POP POP PUSH2 0x4B3 JUMP JUMPDEST POP PUSH1 0x0 DUP3 PUSH8 0xFFFFFFFFFFFFFFFF DUP2 GT ISZERO PUSH2 0x529 JUMPI PUSH2 0x529 PUSH2 0x12B9 JUMP JUMPDEST PUSH1 0x40 MLOAD SWAP1 DUP1 DUP3 MSTORE DUP1 PUSH1 0x20 MUL PUSH1 0x20 ADD DUP3 ADD PUSH1 0x40 MSTORE DUP1 ISZERO PUSH2 0x562 JUMPI DUP2 PUSH1 0x20 ADD JUMPDEST PUSH2 0x54F PUSH2 0x1050 JUMP JUMPDEST DUP2 MSTORE PUSH1 0x20 ADD SWAP1 PUSH1 0x1 SWAP1 SUB SWAP1 DUP2 PUSH2 0x547 JUMPI SWAP1 POP JUMPDEST POP SWAP1 POP PUSH1 0x0 JUMPDEST DUP5 DUP2 LT ISZERO PUSH2 0x495 JUMPI CALLER PUSH1 0x6 PUSH1 0x0 PUSH2 0x580 DUP5 PUSH1 0x1 PUSH2 0x12CF JUMP JUMPDEST DUP2 MSTORE PUSH1 0x20 DUP2 ADD SWAP2 SWAP1 SWAP2 MSTORE PUSH1 0x40 ADD PUSH1 0x0 KECCAK256 PUSH1 0x4 ADD SLOAD PUSH1 0x1 PUSH1 0x1 PUSH1 0xA0 SHL SUB AND SUB PUSH2 0x657 JUMPI PUSH1 0x0 PUSH1 0x6 DUP2 PUSH2 0x5B2 DUP5 PUSH1 0x1 PUSH2 0x12CF JUMP JUMPDEST DUP2 MSTORE PUSH1 0x20 DUP1 DUP3 ADD SWAP3 SWAP1 SWAP3 MSTORE PUSH1 0x40 SWAP1 DUP2 ADD PUSH1 0x0 SWAP1 DUP2 KECCAK256 SLOAD DUP1 DUP3 MSTORE PUSH1 0x6 DUP5 MSTORE SWAP1 DUP3 SWAP1 KECCAK256 DUP3 MLOAD PUSH1 0xC0 DUP2 ADD DUP5 MSTORE DUP2 SLOAD DUP2 MSTORE PUSH1 0x1 DUP3 ADD SLOAD PUSH1 0x1 PUSH1 0x1 PUSH1 0xA0 SHL SUB SWAP1 DUP2 AND SWAP6 DUP3 ADD SWAP6 SWAP1 SWAP6 MSTORE PUSH1 0x2 DUP3 ADD SLOAD SWAP4 DUP2 ADD SWAP4 SWAP1 SWAP4 MSTORE PUSH1 0x3 DUP2 ADD SLOAD DUP5 AND PUSH1 0x60 DUP5 ADD MSTORE PUSH1 0x4 DUP2 ADD SLOAD SWAP1 SWAP4 AND PUSH1 0x80 DUP4 ADD MSTORE PUSH1 0x5 DUP4 ADD SLOAD PUSH1 0xA0 DUP4 ADD MSTORE DUP6 MLOAD SWAP1 SWAP4 POP DUP6 SWAP1 DUP8 SWAP1 DUP2 LT PUSH2 0x63C JUMPI PUSH2 0x63C PUSH2 0x12E7 JUMP JUMPDEST PUSH1 0x20 SWAP1 DUP2 MUL SWAP2 SWAP1 SWAP2 ADD ADD MSTORE PUSH2 0x652 PUSH1 0x1 DUP7 PUSH2 0x12CF JUMP JUMPDEST SWAP5 POP POP POP JUMPDEST DUP1 PUSH2 0x661 DUP2 PUSH2 0x12FD JUMP JUMPDEST SWAP2 POP POP PUSH2 0x568 JUMP JUMPDEST PUSH2 0x671 PUSH2 0x1050 JUMP JUMPDEST POP PUSH1 0x0 SWAP1 DUP2 MSTORE PUSH1 0x6 PUSH1 0x20 SWAP1 DUP2 MSTORE PUSH1 0x40 SWAP2 DUP3 SWAP1 KECCAK256 DUP3 MLOAD PUSH1 0xC0 DUP2 ADD DUP5 MSTORE DUP2 SLOAD DUP2 MSTORE PUSH1 0x1 DUP3 ADD SLOAD PUSH1 0x1 PUSH1 0x1 PUSH1 0xA0 SHL SUB SWAP1 DUP2 AND SWAP4 DUP3 ADD SWAP4 SWAP1 SWAP4 MSTORE PUSH1 0x2 DUP3 ADD SLOAD SWAP4 DUP2 ADD SWAP4 SWAP1 SWAP4 MSTORE PUSH1 0x3 DUP2 ADD SLOAD DUP3 AND PUSH1 0x60 DUP5 ADD MSTORE PUSH1 0x4 DUP2 ADD SLOAD SWAP1 SWAP2 AND PUSH1 0x80 DUP4 ADD MSTORE PUSH1 0x5 ADD SLOAD PUSH1 0xA0 DUP3 ADD MSTORE SWAP1 JUMP JUMPDEST PUSH1 0x2 PUSH1 0x0 SLOAD SUB PUSH2 0x72F JUMPI PUSH1 0x40 MLOAD PUSH3 0x461BCD PUSH1 0xE5 SHL DUP2 MSTORE PUSH1 0x20 PUSH1 0x4 DUP3 ADD MSTORE PUSH1 0x1F PUSH1 0x24 DUP3 ADD MSTORE PUSH32 0x5265656E7472616E637947756172643A207265656E7472616E742063616C6C00 PUSH1 0x44 DUP3 ADD MSTORE PUSH1 0x64 ADD JUMPDEST PUSH1 0x40 MLOAD DUP1 SWAP2 SUB SWAP1 REVERT JUMPDEST PUSH1 0x2 PUSH1 0x0 SSTORE DUP1 PUSH2 0x781 JUMPI PUSH1 0x40 MLOAD PUSH3 0x461BCD PUSH1 0xE5 SHL DUP2 MSTORE PUSH1 0x20 PUSH1 0x4 DUP3 ADD MSTORE PUSH1 0x1C PUSH1 0x24 DUP3 ADD MSTORE PUSH32 0x5072696365206D757374206265206174206C6561737420312077656900000000 PUSH1 0x44 DUP3 ADD MSTORE PUSH1 0x64 ADD PUSH2 0x726 JUMP JUMPDEST PUSH2 0x78F PUSH1 0x4 DUP1 SLOAD PUSH1 0x1 ADD SWAP1 SSTORE JUMP JUMPDEST PUSH1 0x0 PUSH2 0x79A PUSH1 0x4 SLOAD SWAP1 JUMP JUMPDEST PUSH1 0x40 DUP1 MLOAD PUSH1 0xC0 DUP2 ADD DUP3 MSTORE DUP3 DUP2 MSTORE PUSH1 0x1 PUSH1 0x1 PUSH1 0xA0 SHL SUB DUP1 DUP9 AND PUSH1 0x20 DUP1 DUP5 ADD DUP3 DUP2 MSTORE DUP5 DUP7 ADD DUP11 DUP2 MSTORE CALLER PUSH1 0x60 DUP8 ADD DUP2 DUP2 MSTORE PUSH1 0x0 PUSH1 0x80 DUP10 ADD DUP2 DUP2 MSTORE PUSH1 0xA0 DUP11 ADD DUP15 DUP2 MSTORE DUP13 DUP4 MSTORE PUSH1 0x6 SWAP1 SWAP8 MSTORE SWAP1 DUP11 SWAP1 KECCAK256 SWAP9 MLOAD DUP10 SSTORE SWAP4 MLOAD PUSH1 0x1 DUP10 ADD DUP1 SLOAD SWAP2 DUP10 AND PUSH1 0x1 PUSH1 0x1 PUSH1 0xA0 SHL SUB NOT SWAP3 DUP4 AND OR SWAP1 SSTORE SWAP3 MLOAD PUSH1 0x2 DUP10 ADD SSTORE MLOAD PUSH1 0x3 DUP9 ADD DUP1 SLOAD SWAP2 DUP9 AND SWAP2 DUP5 AND SWAP2 SWAP1 SWAP2 OR SWAP1 SSTORE SWAP2 MLOAD PUSH1 0x4 DUP1 DUP9 ADD DUP1 SLOAD SWAP3 SWAP1 SWAP8 AND SWAP2 SWAP1 SWAP3 AND OR SWAP1 SWAP5 SSTORE SWAP1 MLOAD PUSH1 0x5 SWAP1 SWAP5 ADD SWAP4 SWAP1 SWAP4 SSTORE SWAP3 MLOAD PUSH4 0x23B872DD PUSH1 0xE0 SHL DUP2 MSTORE SWAP4 SWAP5 POP SWAP2 SWAP3 PUSH4 0x23B872DD SWAP3 PUSH2 0x862 SWAP3 SWAP2 ADDRESS SWAP2 DUP10 SWAP2 ADD PUSH2 0x1316 JUMP JUMPDEST PUSH1 0x0 PUSH1 0x40 MLOAD DUP1 DUP4 SUB DUP2 PUSH1 0x0 DUP8 DUP1 EXTCODESIZE ISZERO DUP1 ISZERO PUSH2 0x87C JUMPI PUSH1 0x0 DUP1 REVERT JUMPDEST POP GAS CALL ISZERO DUP1 ISZERO PUSH2 0x890 JUMPI RETURNDATASIZE PUSH1 0x0 DUP1 RETURNDATACOPY RETURNDATASIZE PUSH1 0x0 REVERT JUMPDEST POP POP POP POP DUP3 DUP5 PUSH1 0x1 PUSH1 0x1 PUSH1 0xA0 SHL SUB AND DUP3 PUSH32 0x2AD024D53A0DC50C130967F8D4941927EE087EA31394CEBB2B9599D3706C9C00 CALLER PUSH1 0x0 DUP8 PUSH1 0x40 MLOAD PUSH2 0x8D4 SWAP4 SWAP3 SWAP2 SWAP1 PUSH2 0x1316 JUMP JUMPDEST PUSH1 0x40 MLOAD DUP1 SWAP2 SUB SWAP1 LOG4 POP POP PUSH1 0x1 PUSH1 0x0 SSTORE POP POP JUMP JUMPDEST PUSH1 0x2 PUSH1 0x0 SLOAD SUB PUSH2 0x939 JUMPI PUSH1 0x40 MLOAD PUSH3 0x461BCD PUSH1 0xE5 SHL DUP2 MSTORE PUSH1 0x20 PUSH1 0x4 DUP3 ADD MSTORE PUSH1 0x1F PUSH1 0x24 DUP3 ADD MSTORE PUSH32 0x5265656E7472616E637947756172643A207265656E7472616E742063616C6C00 PUSH1 0x44 DUP3 ADD MSTORE PUSH1 0x64 ADD PUSH2 0x726 JUMP JUMPDEST PUSH1 0x2 PUSH1 0x0 DUP2 DUP2 SSTORE DUP3 DUP2 MSTORE PUSH1 0x6 PUSH1 0x20 MSTORE PUSH1 0x40 SWAP1 KECCAK256 PUSH1 0x5 DUP2 ADD SLOAD SWAP2 ADD SLOAD CALLVALUE DUP3 EQ PUSH2 0x9CB JUMPI PUSH1 0x40 DUP1 MLOAD PUSH3 0x461BCD PUSH1 0xE5 SHL DUP2 MSTORE PUSH1 0x20 PUSH1 0x4 DUP3 ADD MSTORE PUSH1 0x24 DUP2 ADD SWAP2 SWAP1 SWAP2 MSTORE PUSH32 0x506C65617365207375626D6974207468652061736B696E672070726963652069 PUSH1 0x44 DUP3 ADD MSTORE PUSH32 0x6E206F7264657220746F20636F6D706C65746520746865207075726368617365 PUSH1 0x64 DUP3 ADD MSTORE PUSH1 0x84 ADD PUSH2 0x726 JUMP JUMPDEST PUSH1 0x0 DUP4 DUP2 MSTORE PUSH1 0x6 PUSH1 0x20 MSTORE PUSH1 0x40 DUP1 DUP3 KECCAK256 PUSH1 0x3 ADD SLOAD SWAP1 MLOAD PUSH1 0x1 PUSH1 0x1 PUSH1 0xA0 SHL SUB SWAP1 SWAP2 AND SWAP2 CALLVALUE DUP1 ISZERO PUSH2 0x8FC MUL SWAP3 SWAP1 SWAP2 DUP2 DUP2 DUP2 DUP6 DUP9 DUP9 CALL SWAP4 POP POP POP POP ISZERO DUP1 ISZERO PUSH2 0xA13 JUMPI RETURNDATASIZE PUSH1 0x0 DUP1 RETURNDATACOPY RETURNDATASIZE PUSH1 0x0 REVERT JUMPDEST POP PUSH1 0x40 MLOAD PUSH4 0x23B872DD PUSH1 0xE0 SHL DUP2 MSTORE PUSH1 0x1 PUSH1 0x1 PUSH1 0xA0 SHL SUB DUP6 AND SWAP1 PUSH4 0x23B872DD SWAP1 PUSH2 0xA44 SWAP1 ADDRESS SWAP1 CALLER SWAP1 DUP7 SWAP1 PUSH1 0x4 ADD PUSH2 0x1316 JUMP JUMPDEST PUSH1 0x0 PUSH1 0x40 MLOAD DUP1 DUP4 SUB DUP2 PUSH1 0x0 DUP8 DUP1 EXTCODESIZE ISZERO DUP1 ISZERO PUSH2 0xA5E JUMPI PUSH1 0x0 DUP1 REVERT JUMPDEST POP GAS CALL ISZERO DUP1 ISZERO PUSH2 0xA72 JUMPI RETURNDATASIZE PUSH1 0x0 DUP1 RETURNDATACOPY RETURNDATASIZE PUSH1 0x0 REVERT JUMPDEST POP POP POP PUSH1 0x0 DUP5 DUP2 MSTORE PUSH1 0x6 PUSH1 0x20 MSTORE PUSH1 0x40 SWAP1 KECCAK256 PUSH1 0x4 ADD DUP1 SLOAD PUSH1 0x1 PUSH1 0x1 PUSH1 0xA0 SHL SUB NOT AND CALLER OR SWAP1 SSTORE POP PUSH2 0xAA5 PUSH1 0x5 DUP1 SLOAD PUSH1 0x1 ADD SWAP1 SSTORE JUMP JUMPDEST POP POP PUSH1 0x1 PUSH1 0x0 SSTORE POP POP JUMP JUMPDEST PUSH2 0xAB9 DUP4 PUSH2 0xF11 JUMP JUMPDEST PUSH1 0x1 PUSH1 0x1 PUSH1 0xA0 SHL SUB DUP1 DUP5 AND PUSH1 0x0 SWAP1 DUP2 MSTORE PUSH1 0x1 PUSH1 0x20 DUP2 DUP2 MSTORE PUSH1 0x40 DUP1 DUP5 KECCAK256 DUP8 DUP6 MSTORE DUP3 MSTORE DUP1 DUP5 KECCAK256 DUP2 MLOAD PUSH1 0xC0 DUP2 ADD DUP4 MSTORE DUP2 SLOAD DUP2 MSTORE SWAP4 DUP2 ADD SLOAD DUP7 AND SWAP3 DUP5 ADD SWAP3 SWAP1 SWAP3 MSTORE PUSH1 0x2 DUP3 ADD SLOAD SWAP1 SWAP5 AND SWAP4 DUP3 ADD SWAP4 SWAP1 SWAP4 MSTORE PUSH1 0x3 DUP4 ADD SLOAD PUSH1 0x60 DUP3 ADD MSTORE PUSH1 0x4 DUP1 DUP5 ADD SLOAD PUSH1 0x80 DUP4 ADD MSTORE PUSH1 0x5 DUP5 ADD SLOAD CALLER SWAP5 DUP9 SWAP5 SWAP4 SWAP3 SWAP1 SWAP2 PUSH1 0xA0 DUP5 ADD SWAP2 PUSH1 0xFF SWAP1 SWAP2 AND SWAP1 DUP2 GT ISZERO PUSH2 0xB41 JUMPI PUSH2 0xB41 PUSH2 0x121B JUMP JUMPDEST PUSH1 0x4 DUP2 GT ISZERO PUSH2 0xB52 JUMPI PUSH2 0xB52 PUSH2 0x121B JUMP JUMPDEST SWAP1 MSTORE POP DUP1 MLOAD SWAP1 SWAP2 POP PUSH1 0x0 SUB PUSH2 0xB9F JUMPI PUSH1 0x40 MLOAD PUSH3 0x461BCD PUSH1 0xE5 SHL DUP2 MSTORE PUSH1 0x20 PUSH1 0x4 DUP3 ADD MSTORE PUSH1 0x13 PUSH1 0x24 DUP3 ADD MSTORE PUSH19 0x105CDCD95D081B9BDD081C1D589B1A5CDA1959 PUSH1 0x6A SHL PUSH1 0x44 DUP3 ADD MSTORE PUSH1 0x64 ADD PUSH2 0x726 JUMP JUMPDEST PUSH1 0x1 DUP2 PUSH1 0xA0 ADD MLOAD PUSH1 0x4 DUP2 GT ISZERO PUSH2 0xBB7 JUMPI PUSH2 0xBB7 PUSH2 0x121B JUMP JUMPDEST EQ PUSH2 0xC04 JUMPI PUSH1 0x40 MLOAD PUSH3 0x461BCD PUSH1 0xE5 SHL DUP2 MSTORE PUSH1 0x20 PUSH1 0x4 DUP3 ADD MSTORE PUSH1 0x18 PUSH1 0x24 DUP3 ADD MSTORE PUSH32 0x4173736574206973206E6F74206C69737420746F206275790000000000000000 PUSH1 0x44 DUP3 ADD MSTORE PUSH1 0x64 ADD PUSH2 0x726 JUMP JUMPDEST PUSH1 0x20 DUP2 ADD MLOAD PUSH1 0x1 PUSH1 0x1 PUSH1 0xA0 SHL SUB DUP2 AND PUSH2 0xC51 JUMPI PUSH1 0x40 MLOAD PUSH3 0x461BCD PUSH1 0xE5 SHL DUP2 MSTORE PUSH1 0x20 PUSH1 0x4 DUP3 ADD MSTORE PUSH1 0xF PUSH1 0x24 DUP3 ADD MSTORE PUSH15 0x496E76616C69642061646472657373 PUSH1 0x88 SHL PUSH1 0x44 DUP3 ADD MSTORE PUSH1 0x64 ADD PUSH2 0x726 JUMP JUMPDEST DUP2 PUSH1 0x80 ADD MLOAD DUP6 LT ISZERO PUSH2 0xCA5 JUMPI PUSH1 0x40 MLOAD PUSH3 0x461BCD PUSH1 0xE5 SHL DUP2 MSTORE PUSH1 0x20 PUSH1 0x4 DUP3 ADD MSTORE PUSH1 0x1E PUSH1 0x24 DUP3 ADD MSTORE PUSH32 0x7072696365206E65656420657175616C206C697374696E672070726963650000 PUSH1 0x44 DUP3 ADD MSTORE PUSH1 0x64 ADD PUSH2 0x726 JUMP JUMPDEST PUSH1 0x3 SLOAD PUSH1 0x0 SWAP1 PUSH1 0x64 SWAP1 PUSH2 0xCC3 SWAP1 DUP9 SWAP1 PUSH1 0x1 PUSH1 0xA8 SHL SWAP1 DIV PUSH1 0xFF AND PUSH2 0x133A JUMP JUMPDEST PUSH2 0xCCD SWAP2 SWAP1 PUSH2 0x1359 JUMP JUMPDEST SWAP1 POP PUSH1 0x0 PUSH2 0xCDB DUP3 DUP9 PUSH2 0x12A2 JUMP JUMPDEST PUSH1 0x3 SLOAD PUSH1 0x40 MLOAD PUSH4 0x23B872DD PUSH1 0xE0 SHL DUP2 MSTORE SWAP2 SWAP3 POP PUSH1 0x1 PUSH1 0x1 PUSH1 0xA0 SHL SUB AND SWAP1 PUSH4 0x23B872DD SWAP1 PUSH2 0xD10 SWAP1 DUP10 SWAP1 ADDRESS SWAP1 DUP8 SWAP1 PUSH1 0x4 ADD PUSH2 0x1316 JUMP JUMPDEST PUSH1 0x20 PUSH1 0x40 MLOAD DUP1 DUP4 SUB DUP2 PUSH1 0x0 DUP8 GAS CALL ISZERO DUP1 ISZERO PUSH2 0xD2F JUMPI RETURNDATASIZE PUSH1 0x0 DUP1 RETURNDATACOPY RETURNDATASIZE PUSH1 0x0 REVERT JUMPDEST POP POP POP POP PUSH1 0x40 MLOAD RETURNDATASIZE PUSH1 0x1F NOT PUSH1 0x1F DUP3 ADD AND DUP3 ADD DUP1 PUSH1 0x40 MSTORE POP DUP2 ADD SWAP1 PUSH2 0xD53 SWAP2 SWAP1 PUSH2 0x137B JUMP JUMPDEST POP PUSH1 0x3 SLOAD PUSH1 0x40 MLOAD PUSH4 0x23B872DD PUSH1 0xE0 SHL DUP2 MSTORE PUSH1 0x1 PUSH1 0x1 PUSH1 0xA0 SHL SUB SWAP1 SWAP2 AND SWAP1 PUSH4 0x23B872DD SWAP1 PUSH2 0xD88 SWAP1 DUP10 SWAP1 DUP8 SWAP1 DUP7 SWAP1 PUSH1 0x4 ADD PUSH2 0x1316 JUMP JUMPDEST PUSH1 0x20 PUSH1 0x40 MLOAD DUP1 DUP4 SUB DUP2 PUSH1 0x0 DUP8 GAS CALL ISZERO DUP1 ISZERO PUSH2 0xDA7 JUMPI RETURNDATASIZE PUSH1 0x0 DUP1 RETURNDATACOPY RETURNDATASIZE PUSH1 0x0 REVERT JUMPDEST POP POP POP POP PUSH1 0x40 MLOAD RETURNDATASIZE PUSH1 0x1F NOT PUSH1 0x1F DUP3 ADD AND DUP3 ADD DUP1 PUSH1 0x40 MSTORE POP DUP2 ADD SWAP1 PUSH2 0xDCB SWAP2 SWAP1 PUSH2 0x137B JUMP JUMPDEST POP PUSH1 0x40 MLOAD PUSH4 0x21421707 PUSH1 0xE1 SHL DUP2 MSTORE PUSH1 0x1 PUSH1 0x1 PUSH1 0xA0 SHL SUB DUP7 AND SWAP1 PUSH4 0x42842E0E SWAP1 PUSH2 0xDFC SWAP1 ADDRESS SWAP1 DUP11 SWAP1 DUP14 SWAP1 PUSH1 0x4 ADD PUSH2 0x1316 JUMP JUMPDEST PUSH1 0x0 PUSH1 0x40 MLOAD DUP1 DUP4 SUB DUP2 PUSH1 0x0 DUP8 DUP1 EXTCODESIZE ISZERO DUP1 ISZERO PUSH2 0xE16 JUMPI PUSH1 0x0 DUP1 REVERT JUMPDEST POP GAS CALL ISZERO DUP1 ISZERO PUSH2 0xE2A JUMPI RETURNDATASIZE PUSH1 0x0 DUP1 RETURNDATACOPY RETURNDATASIZE PUSH1 0x0 REVERT JUMPDEST POP POP POP POP PUSH1 0x1 PUSH1 0x1 PUSH1 0xA0 SHL SUB DUP10 DUP2 AND PUSH1 0x0 DUP2 DUP2 MSTORE PUSH1 0x1 PUSH1 0x20 DUP2 DUP2 MSTORE PUSH1 0x40 DUP1 DUP5 KECCAK256 DUP15 DUP6 MSTORE DUP3 MSTORE SWAP3 DUP4 SWAP1 KECCAK256 SWAP2 DUP3 ADD DUP1 SLOAD DUP13 DUP8 AND PUSH1 0x1 PUSH1 0x1 PUSH1 0xA0 SHL SUB NOT SWAP1 SWAP2 AND DUP2 OR SWAP1 SWAP2 SSTORE PUSH1 0x5 SWAP1 SWAP3 ADD DUP1 SLOAD PUSH1 0xFF NOT AND PUSH1 0x2 OR SWAP1 SSTORE DUP9 MLOAD PUSH1 0x80 DUP1 DUP12 ADD MLOAD PUSH1 0x3 SLOAD DUP7 MLOAD SWAP4 DUP5 MSTORE SWAP4 DUP4 ADD SWAP7 SWAP1 SWAP7 MSTORE SWAP4 DUP2 ADD SWAP5 SWAP1 SWAP5 MSTORE PUSH1 0x1 PUSH1 0xA8 SHL SWAP1 DIV PUSH1 0xFF AND PUSH1 0x60 DUP5 ADD MSTORE SWAP1 DUP3 ADD DUP6 SWAP1 MSTORE PUSH1 0xE0 PUSH1 0xA0 DUP4 ADD DUP2 SWAP1 MSTORE PUSH1 0x4 SWAP1 DUP4 ADD MSTORE PUSH4 0x414E5441 PUSH1 0xE0 SHL PUSH2 0x100 DUP4 ADD MSTORE TIMESTAMP PUSH1 0xC0 DUP4 ADD MSTORE SWAP2 DUP6 AND SWAP1 DUP11 SWAP1 PUSH32 0x30247E11BBB597DFEFD2A3124026F1EF8987A4D6BA46E3629F80BAC1B0C9FAEE SWAP1 PUSH2 0x120 ADD PUSH1 0x40 MLOAD DUP1 SWAP2 SUB SWAP1 LOG4 POP POP POP POP POP POP POP POP POP JUMP JUMPDEST DUP1 EXTCODESIZE PUSH4 0xFFFFFFFF AND PUSH2 0xF71 JUMPI PUSH1 0x40 MLOAD PUSH3 0x461BCD PUSH1 0xE5 SHL DUP2 MSTORE PUSH1 0x20 PUSH1 0x4 DUP3 ADD MSTORE PUSH1 0x24 DUP1 DUP3 ADD MSTORE PUSH32 0x546865204E465420416464726573732073686F756C64206265206120636F6E74 PUSH1 0x44 DUP3 ADD MSTORE PUSH4 0x1C9858DD PUSH1 0xE2 SHL PUSH1 0x64 DUP3 ADD MSTORE PUSH1 0x84 ADD PUSH2 0x726 JUMP JUMPDEST PUSH1 0x40 MLOAD PUSH4 0x1FFC9A7 PUSH1 0xE0 SHL DUP2 MSTORE PUSH4 0x80AC58CD PUSH1 0xE0 SHL PUSH1 0x4 DUP3 ADD MSTORE DUP2 SWAP1 PUSH1 0x1 PUSH1 0x1 PUSH1 0xA0 SHL SUB DUP3 AND SWAP1 PUSH4 0x1FFC9A7 SWAP1 PUSH1 0x24 ADD PUSH1 0x20 PUSH1 0x40 MLOAD DUP1 DUP4 SUB DUP2 DUP7 GAS STATICCALL ISZERO DUP1 ISZERO PUSH2 0xFBE JUMPI RETURNDATASIZE PUSH1 0x0 DUP1 RETURNDATACOPY RETURNDATASIZE PUSH1 0x0 REVERT JUMPDEST POP POP POP POP PUSH1 0x40 MLOAD RETURNDATASIZE PUSH1 0x1F NOT PUSH1 0x1F DUP3 ADD AND DUP3 ADD DUP1 PUSH1 0x40 MSTORE POP DUP2 ADD SWAP1 PUSH2 0xFE2 SWAP2 SWAP1 PUSH2 0x137B JUMP JUMPDEST PUSH2 0x104C JUMPI PUSH1 0x40 MLOAD PUSH3 0x461BCD PUSH1 0xE5 SHL DUP2 MSTORE PUSH1 0x20 PUSH1 0x4 DUP3 ADD MSTORE PUSH1 0x35 PUSH1 0x24 DUP3 ADD MSTORE PUSH32 0x546865204E465420636F6E74726163742068617320616E20696E76616C696420 PUSH1 0x44 DUP3 ADD MSTORE PUSH21 0x22A9219B99189034B6B83632B6B2B73A30BA34B7B7 PUSH1 0x59 SHL PUSH1 0x64 DUP3 ADD MSTORE PUSH1 0x84 ADD PUSH2 0x726 JUMP JUMPDEST POP POP JUMP JUMPDEST PUSH1 0x40 MLOAD DUP1 PUSH1 0xC0 ADD PUSH1 0x40 MSTORE DUP1 PUSH1 0x0 DUP2 MSTORE PUSH1 0x20 ADD PUSH1 0x0 PUSH1 0x1 PUSH1 0x1 PUSH1 0xA0 SHL SUB AND DUP2 MSTORE PUSH1 0x20 ADD PUSH1 0x0 DUP2 MSTORE PUSH1 0x20 ADD PUSH1 0x0 PUSH1 0x1 PUSH1 0x1 PUSH1 0xA0 SHL SUB AND DUP2 MSTORE PUSH1 0x20 ADD PUSH1 0x0 PUSH1 0x1 PUSH1 0x1 PUSH1 0xA0 SHL SUB AND DUP2 MSTORE PUSH1 0x20 ADD PUSH1 0x0 DUP2 MSTORE POP SWAP1 JUMP JUMPDEST DUP1 MLOAD DUP3 MSTORE PUSH1 0x20 DUP2 ADD MLOAD PUSH1 0x1 DUP1 PUSH1 0xA0 SHL SUB DUP1 DUP3 AND PUSH1 0x20 DUP6 ADD MSTORE PUSH1 0x40 DUP4 ADD MLOAD PUSH1 0x40 DUP6 ADD MSTORE DUP1 PUSH1 0x60 DUP5 ADD MLOAD AND PUSH1 0x60 DUP6 ADD MSTORE DUP1 PUSH1 0x80 DUP5 ADD MLOAD AND PUSH1 0x80 DUP6 ADD MSTORE POP POP PUSH1 0xA0 DUP2 ADD MLOAD PUSH1 0xA0 DUP4 ADD MSTORE POP POP JUMP JUMPDEST PUSH1 0x20 DUP1 DUP3 MSTORE DUP3 MLOAD DUP3 DUP3 ADD DUP2 SWAP1 MSTORE PUSH1 0x0 SWAP2 SWAP1 DUP5 DUP3 ADD SWAP1 PUSH1 0x40 DUP6 ADD SWAP1 DUP5 JUMPDEST DUP2 DUP2 LT ISZERO PUSH2 0x112D JUMPI PUSH2 0x111A DUP4 DUP6 MLOAD PUSH2 0x10A1 JUMP JUMPDEST SWAP3 DUP5 ADD SWAP3 PUSH1 0xC0 SWAP3 SWAP1 SWAP3 ADD SWAP2 PUSH1 0x1 ADD PUSH2 0x1107 JUMP JUMPDEST POP SWAP1 SWAP7 SWAP6 POP POP POP POP POP POP JUMP JUMPDEST PUSH1 0x0 PUSH1 0x20 DUP3 DUP5 SUB SLT ISZERO PUSH2 0x114B JUMPI PUSH1 0x0 DUP1 REVERT JUMPDEST POP CALLDATALOAD SWAP2 SWAP1 POP JUMP JUMPDEST PUSH1 0xC0 DUP2 ADD PUSH2 0x1160 DUP3 DUP5 PUSH2 0x10A1 JUMP JUMPDEST SWAP3 SWAP2 POP POP JUMP JUMPDEST DUP1 CALLDATALOAD PUSH1 0x1 PUSH1 0x1 PUSH1 0xA0 SHL SUB DUP2 AND DUP2 EQ PUSH2 0x117D JUMPI PUSH1 0x0 DUP1 REVERT JUMPDEST SWAP2 SWAP1 POP JUMP JUMPDEST PUSH1 0x0 DUP1 PUSH1 0x0 PUSH1 0x60 DUP5 DUP7 SUB SLT ISZERO PUSH2 0x1197 JUMPI PUSH1 0x0 DUP1 REVERT JUMPDEST PUSH2 0x11A0 DUP5 PUSH2 0x1166 JUMP JUMPDEST SWAP3 POP PUSH1 0x20 DUP5 ADD CALLDATALOAD SWAP2 POP PUSH2 0x11B5 PUSH1 0x40 DUP6 ADD PUSH2 0x1166 JUMP JUMPDEST SWAP1 POP SWAP3 POP SWAP3 POP SWAP3 JUMP JUMPDEST PUSH1 0x0 DUP1 PUSH1 0x0 PUSH1 0x60 DUP5 DUP7 SUB SLT ISZERO PUSH2 0x11D3 JUMPI PUSH1 0x0 DUP1 REVERT JUMPDEST PUSH2 0x11DC DUP5 PUSH2 0x1166 JUMP JUMPDEST SWAP6 PUSH1 0x20 DUP6 ADD CALLDATALOAD SWAP6 POP PUSH1 0x40 SWAP1 SWAP5 ADD CALLDATALOAD SWAP4 SWAP3 POP POP POP JUMP JUMPDEST PUSH1 0x0 DUP1 PUSH1 0x40 DUP4 DUP6 SUB SLT ISZERO PUSH2 0x1204 JUMPI PUSH1 0x0 DUP1 REVERT JUMPDEST PUSH2 0x120D DUP4 PUSH2 0x1166 JUMP JUMPDEST SWAP5 PUSH1 0x20 SWAP4 SWAP1 SWAP4 ADD CALLDATALOAD SWAP4 POP POP POP JUMP JUMPDEST PUSH4 0x4E487B71 PUSH1 0xE0 SHL PUSH1 0x0 MSTORE PUSH1 0x21 PUSH1 0x4 MSTORE PUSH1 0x24 PUSH1 0x0 REVERT JUMPDEST DUP7 DUP2 MSTORE PUSH1 0x1 PUSH1 0x1 PUSH1 0xA0 SHL SUB DUP7 DUP2 AND PUSH1 0x20 DUP4 ADD MSTORE DUP6 AND PUSH1 0x40 DUP3 ADD MSTORE PUSH1 0x60 DUP2 ADD DUP5 SWAP1 MSTORE PUSH1 0x80 DUP2 ADD DUP4 SWAP1 MSTORE PUSH1 0xC0 DUP2 ADD PUSH1 0x5 DUP4 LT PUSH2 0x127B JUMPI PUSH4 0x4E487B71 PUSH1 0xE0 SHL PUSH1 0x0 MSTORE PUSH1 0x21 PUSH1 0x4 MSTORE PUSH1 0x24 PUSH1 0x0 REVERT JUMPDEST DUP3 PUSH1 0xA0 DUP4 ADD MSTORE SWAP8 SWAP7 POP POP POP POP POP POP POP JUMP JUMPDEST PUSH4 0x4E487B71 PUSH1 0xE0 SHL PUSH1 0x0 MSTORE PUSH1 0x11 PUSH1 0x4 MSTORE PUSH1 0x24 PUSH1 0x0 REVERT JUMPDEST PUSH1 0x0 DUP3 DUP3 LT ISZERO PUSH2 0x12B4 JUMPI PUSH2 0x12B4 PUSH2 0x128C JUMP JUMPDEST POP SUB SWAP1 JUMP JUMPDEST PUSH4 0x4E487B71 PUSH1 0xE0 SHL PUSH1 0x0 MSTORE PUSH1 0x41 PUSH1 0x4 MSTORE PUSH1 0x24 PUSH1 0x0 REVERT JUMPDEST PUSH1 0x0 DUP3 NOT DUP3 GT ISZERO PUSH2 0x12E2 JUMPI PUSH2 0x12E2 PUSH2 0x128C JUMP JUMPDEST POP ADD SWAP1 JUMP JUMPDEST PUSH4 0x4E487B71 PUSH1 0xE0 SHL PUSH1 0x0 MSTORE PUSH1 0x32 PUSH1 0x4 MSTORE PUSH1 0x24 PUSH1 0x0 REVERT JUMPDEST PUSH1 0x0 PUSH1 0x1 DUP3 ADD PUSH2 0x130F JUMPI PUSH2 0x130F PUSH2 0x128C JUMP JUMPDEST POP PUSH1 0x1 ADD SWAP1 JUMP JUMPDEST PUSH1 0x1 PUSH1 0x1 PUSH1 0xA0 SHL SUB SWAP4 DUP5 AND DUP2 MSTORE SWAP2 SWAP1 SWAP3 AND PUSH1 0x20 DUP3 ADD MSTORE PUSH1 0x40 DUP2 ADD SWAP2 SWAP1 SWAP2 MSTORE PUSH1 0x60 ADD SWAP1 JUMP JUMPDEST PUSH1 0x0 DUP2 PUSH1 0x0 NOT DIV DUP4 GT DUP3 ISZERO ISZERO AND ISZERO PUSH2 0x1354 JUMPI PUSH2 0x1354 PUSH2 0x128C JUMP JUMPDEST POP MUL SWAP1 JUMP JUMPDEST PUSH1 0x0 DUP3 PUSH2 0x1376 JUMPI PUSH4 0x4E487B71 PUSH1 0xE0 SHL PUSH1 0x0 MSTORE PUSH1 0x12 PUSH1 0x4 MSTORE PUSH1 0x24 PUSH1 0x0 REVERT JUMPDEST POP DIV SWAP1 JUMP JUMPDEST PUSH1 0x0 PUSH1 0x20 DUP3 DUP5 SUB SLT ISZERO PUSH2 0x138D JUMPI PUSH1 0x0 DUP1 REVERT JUMPDEST DUP2 MLOAD DUP1 ISZERO ISZERO DUP2 EQ PUSH2 0x139D JUMPI PUSH1 0x0 DUP1 REVERT JUMPDEST SWAP4 SWAP3 POP POP POP JUMP INVALID LOG2 PUSH5 0x6970667358 0x22 SLT KECCAK256 PUSH4 0xC4929E7D 0x2E MSTORE PUSH26 0x7EF105D55A839B799B0397BDDFDD9BBF18487BADE20A9BE26473 PUSH16 0x6C634300080D00330000000000000000 "
				},
				"gasEstimates": {
					"creation": {
						"codeDepositCost": "1016400",
						"executionCost": "23160",
						"totalCost": "1039560"
					},
					"external": {
						"ERC721_Interface()": "292",
						"antaFeePercent()": "2352",
						"antaToken()": "2404",
						"bnbFeePercent()": "2375",
						"buyItemBySQF(address,uint256,uint256)": "infinite",
						"createMarketItem(address,uint256,uint256)": "infinite",
						"createMarketSale(address,uint256)": "infinite",
						"fetchMarketItem(uint256)": "13668",
						"fetchMarketItems()": "infinite",
						"fetchMyNFTs()": "infinite",
						"getMarketItem(uint256)": "13689",
						"itemOffers(address,uint256,address)": "infinite",
						"items(address,uint256)": "13439"
					},
					"internal": {
						"_requireERC721(address)": "infinite",
						"isContract(address)": "infinite"
					}
				},
				"methodIdentifiers": {
					"ERC721_Interface()": "2b4c32be",
					"antaFeePercent()": "b7a60c7e",
					"antaToken()": "92fc79fa",
					"bnbFeePercent()": "85a8b36c",
					"buyItemBySQF(address,uint256,uint256)": "f01b52dc",
					"createMarketItem(address,uint256,uint256)": "58eb2df5",
					"createMarketSale(address,uint256)": "c23b139e",
					"fetchMarketItem(uint256)": "2a45b250",
					"fetchMarketItems()": "0f08efe0",
					"fetchMyNFTs()": "202e3740",
					"getMarketItem(uint256)": "c7be7a49",
					"itemOffers(address,uint256,address)": "49739678",
					"items(address,uint256)": "5c80a435"
				}
			},
			"storageLayout": {
				"storage": [
					{
						"astId": 285,
						"contract": "contracts/Marketplace2/Marketplace.sol:NFTMarket",
						"label": "_status",
						"offset": 0,
						"slot": "0",
						"type": "t_uint256"
					},
					{
						"astId": 353,
						"contract": "contracts/Marketplace2/Marketplace.sol:NFTMarket",
						"label": "items",
						"offset": 0,
						"slot": "1",
						"type": "t_mapping(t_address,t_mapping(t_uint256,t_struct(Item)335_storage))"
					},
					{
						"astId": 362,
						"contract": "contracts/Marketplace2/Marketplace.sol:NFTMarket",
						"label": "itemOffers",
						"offset": 0,
						"slot": "2",
						"type": "t_mapping(t_address,t_mapping(t_uint256,t_mapping(t_address,t_struct(ItemOffer)340_storage)))"
					},
					{
						"astId": 365,
						"contract": "contracts/Marketplace2/Marketplace.sol:NFTMarket",
						"label": "antaToken",
						"offset": 0,
						"slot": "3",
						"type": "t_contract(IERC20)77"
					},
					{
						"astId": 367,
						"contract": "contracts/Marketplace2/Marketplace.sol:NFTMarket",
						"label": "bnbFeePercent",
						"offset": 20,
						"slot": "3",
						"type": "t_uint8"
					},
					{
						"astId": 369,
						"contract": "contracts/Marketplace2/Marketplace.sol:NFTMarket",
						"label": "antaFeePercent",
						"offset": 21,
						"slot": "3",
						"type": "t_uint8"
					},
					{
						"astId": 437,
						"contract": "contracts/Marketplace2/Marketplace.sol:NFTMarket",
						"label": "_itemIds",
						"offset": 0,
						"slot": "4",
						"type": "t_struct(Counter)207_storage"
					},
					{
						"astId": 440,
						"contract": "contracts/Marketplace2/Marketplace.sol:NFTMarket",
						"label": "_itemsSold",
						"offset": 0,
						"slot": "5",
						"type": "t_struct(Counter)207_storage"
					},
					{
						"astId": 458,
						"contract": "contracts/Marketplace2/Marketplace.sol:NFTMarket",
						"label": "idToMarketItem",
						"offset": 0,
						"slot": "6",
						"type": "t_mapping(t_uint256,t_struct(MarketItem)453_storage)"
					}
				],
				"types": {
					"t_address": {
						"encoding": "inplace",
						"label": "address",
						"numberOfBytes": "20"
					},
					"t_address_payable": {
						"encoding": "inplace",
						"label": "address payable",
						"numberOfBytes": "20"
					},
					"t_bytes32": {
						"encoding": "inplace",
						"label": "bytes32",
						"numberOfBytes": "32"
					},
					"t_contract(IERC20)77": {
						"encoding": "inplace",
						"label": "contract IERC20",
						"numberOfBytes": "20"
					},
					"t_enum(ItemStatus)321": {
						"encoding": "inplace",
						"label": "enum MarketplaceStorage.ItemStatus",
						"numberOfBytes": "1"
					},
					"t_mapping(t_address,t_mapping(t_uint256,t_mapping(t_address,t_struct(ItemOffer)340_storage)))": {
						"encoding": "mapping",
						"key": "t_address",
						"label": "mapping(address => mapping(uint256 => mapping(address => struct MarketplaceStorage.ItemOffer)))",
						"numberOfBytes": "32",
						"value": "t_mapping(t_uint256,t_mapping(t_address,t_struct(ItemOffer)340_storage))"
					},
					"t_mapping(t_address,t_mapping(t_uint256,t_struct(Item)335_storage))": {
						"encoding": "mapping",
						"key": "t_address",
						"label": "mapping(address => mapping(uint256 => struct MarketplaceStorage.Item))",
						"numberOfBytes": "32",
						"value": "t_mapping(t_uint256,t_struct(Item)335_storage)"
					},
					"t_mapping(t_address,t_struct(ItemOffer)340_storage)": {
						"encoding": "mapping",
						"key": "t_address",
						"label": "mapping(address => struct MarketplaceStorage.ItemOffer)",
						"numberOfBytes": "32",
						"value": "t_struct(ItemOffer)340_storage"
					},
					"t_mapping(t_uint256,t_mapping(t_address,t_struct(ItemOffer)340_storage))": {
						"encoding": "mapping",
						"key": "t_uint256",
						"label": "mapping(uint256 => mapping(address => struct MarketplaceStorage.ItemOffer))",
						"numberOfBytes": "32",
						"value": "t_mapping(t_address,t_struct(ItemOffer)340_storage)"
					},
					"t_mapping(t_uint256,t_struct(Item)335_storage)": {
						"encoding": "mapping",
						"key": "t_uint256",
						"label": "mapping(uint256 => struct MarketplaceStorage.Item)",
						"numberOfBytes": "32",
						"value": "t_struct(Item)335_storage"
					},
					"t_mapping(t_uint256,t_struct(MarketItem)453_storage)": {
						"encoding": "mapping",
						"key": "t_uint256",
						"label": "mapping(uint256 => struct NFTMarket.MarketItem)",
						"numberOfBytes": "32",
						"value": "t_struct(MarketItem)453_storage"
					},
					"t_struct(Counter)207_storage": {
						"encoding": "inplace",
						"label": "struct Counters.Counter",
						"members": [
							{
								"astId": 206,
								"contract": "contracts/Marketplace2/Marketplace.sol:NFTMarket",
								"label": "_value",
								"offset": 0,
								"slot": "0",
								"type": "t_uint256"
							}
						],
						"numberOfBytes": "32"
					},
					"t_struct(Item)335_storage": {
						"encoding": "inplace",
						"label": "struct MarketplaceStorage.Item",
						"members": [
							{
								"astId": 323,
								"contract": "contracts/Marketplace2/Marketplace.sol:NFTMarket",
								"label": "id",
								"offset": 0,
								"slot": "0",
								"type": "t_bytes32"
							},
							{
								"astId": 325,
								"contract": "contracts/Marketplace2/Marketplace.sol:NFTMarket",
								"label": "seller",
								"offset": 0,
								"slot": "1",
								"type": "t_address"
							},
							{
								"astId": 327,
								"contract": "contracts/Marketplace2/Marketplace.sol:NFTMarket",
								"label": "nftAddress",
								"offset": 0,
								"slot": "2",
								"type": "t_address"
							},
							{
								"astId": 329,
								"contract": "contracts/Marketplace2/Marketplace.sol:NFTMarket",
								"label": "price",
								"offset": 0,
								"slot": "3",
								"type": "t_uint256"
							},
							{
								"astId": 331,
								"contract": "contracts/Marketplace2/Marketplace.sol:NFTMarket",
								"label": "priceAnta",
								"offset": 0,
								"slot": "4",
								"type": "t_uint256"
							},
							{
								"astId": 334,
								"contract": "contracts/Marketplace2/Marketplace.sol:NFTMarket",
								"label": "status",
								"offset": 0,
								"slot": "5",
								"type": "t_enum(ItemStatus)321"
							}
						],
						"numberOfBytes": "192"
					},
					"t_struct(ItemOffer)340_storage": {
						"encoding": "inplace",
						"label": "struct MarketplaceStorage.ItemOffer",
						"members": [
							{
								"astId": 337,
								"contract": "contracts/Marketplace2/Marketplace.sol:NFTMarket",
								"label": "id",
								"offset": 0,
								"slot": "0",
								"type": "t_bytes32"
							},
							{
								"astId": 339,
								"contract": "contracts/Marketplace2/Marketplace.sol:NFTMarket",
								"label": "offerPrice",
								"offset": 0,
								"slot": "1",
								"type": "t_uint256"
							}
						],
						"numberOfBytes": "64"
					},
					"t_struct(MarketItem)453_storage": {
						"encoding": "inplace",
						"label": "struct NFTMarket.MarketItem",
						"members": [
							{
								"astId": 442,
								"contract": "contracts/Marketplace2/Marketplace.sol:NFTMarket",
								"label": "itemId",
								"offset": 0,
								"slot": "0",
								"type": "t_uint256"
							},
							{
								"astId": 444,
								"contract": "contracts/Marketplace2/Marketplace.sol:NFTMarket",
								"label": "nftContract",
								"offset": 0,
								"slot": "1",
								"type": "t_address"
							},
							{
								"astId": 446,
								"contract": "contracts/Marketplace2/Marketplace.sol:NFTMarket",
								"label": "tokenId",
								"offset": 0,
								"slot": "2",
								"type": "t_uint256"
							},
							{
								"astId": 448,
								"contract": "contracts/Marketplace2/Marketplace.sol:NFTMarket",
								"label": "seller",
								"offset": 0,
								"slot": "3",
								"type": "t_address_payable"
							},
							{
								"astId": 450,
								"contract": "contracts/Marketplace2/Marketplace.sol:NFTMarket",
								"label": "owner",
								"offset": 0,
								"slot": "4",
								"type": "t_address_payable"
							},
							{
								"astId": 452,
								"contract": "contracts/Marketplace2/Marketplace.sol:NFTMarket",
								"label": "price",
								"offset": 0,
								"slot": "5",
								"type": "t_uint256"
							}
						],
						"numberOfBytes": "192"
					},
					"t_uint256": {
						"encoding": "inplace",
						"label": "uint256",
						"numberOfBytes": "32"
					},
					"t_uint8": {
						"encoding": "inplace",
						"label": "uint8",
						"numberOfBytes": "1"
					}
				}
			},
			"userdoc": {
				"kind": "user",
				"methods": {},
				"version": 1
			}
		}
	}
}