{
	"contracts/Marketplace2/Marketplace.sol": {
		"NFTMarket": {
			"abi": [
				{
					"inputs": [
						{
							"internalType": "address",
							"name": "_mainToken",
							"type": "address"
						},
						{
							"internalType": "address",
							"name": "_mainNFT",
							"type": "address"
						},
						{
							"internalType": "address",
							"name": "_mainFactory",
							"type": "address"
						}
					],
					"stateMutability": "nonpayable",
					"type": "constructor"
				},
				{
					"anonymous": false,
					"inputs": [
						{
							"indexed": false,
							"internalType": "bytes32",
							"name": "id",
							"type": "bytes32"
						},
						{
							"indexed": true,
							"internalType": "uint256",
							"name": "assetId",
							"type": "uint256"
						},
						{
							"indexed": true,
							"internalType": "address",
							"name": "seller",
							"type": "address"
						},
						{
							"indexed": false,
							"internalType": "address",
							"name": "nftAddress",
							"type": "address"
						},
						{
							"indexed": false,
							"internalType": "uint256",
							"name": "price",
							"type": "uint256"
						},
						{
							"indexed": false,
							"internalType": "uint8",
							"name": "feePercent",
							"type": "uint8"
						},
						{
							"indexed": false,
							"internalType": "uint256",
							"name": "fee",
							"type": "uint256"
						},
						{
							"indexed": true,
							"internalType": "address",
							"name": "buyer",
							"type": "address"
						},
						{
							"indexed": false,
							"internalType": "string",
							"name": "currency",
							"type": "string"
						},
						{
							"indexed": false,
							"internalType": "uint256",
							"name": "createdAt",
							"type": "uint256"
						}
					],
					"name": "BuyItemSuccessful",
					"type": "event"
				},
				{
					"anonymous": false,
					"inputs": [
						{
							"indexed": false,
							"internalType": "address",
							"name": "nftAddress",
							"type": "address"
						},
						{
							"indexed": false,
							"internalType": "uint256",
							"name": "id",
							"type": "uint256"
						},
						{
							"indexed": true,
							"internalType": "uint256",
							"name": "assetId",
							"type": "uint256"
						},
						{
							"indexed": true,
							"internalType": "address",
							"name": "delistBy",
							"type": "address"
						},
						{
							"indexed": false,
							"internalType": "uint256",
							"name": "createdAt",
							"type": "uint256"
						}
					],
					"name": "DelistItemSuccessful",
					"type": "event"
				},
				{
					"anonymous": false,
					"inputs": [
						{
							"indexed": true,
							"internalType": "uint256",
							"name": "itemId",
							"type": "uint256"
						},
						{
							"indexed": true,
							"internalType": "address",
							"name": "nftContract",
							"type": "address"
						},
						{
							"indexed": true,
							"internalType": "uint256",
							"name": "tokenId",
							"type": "uint256"
						},
						{
							"indexed": false,
							"internalType": "address",
							"name": "seller",
							"type": "address"
						},
						{
							"indexed": false,
							"internalType": "address",
							"name": "owner",
							"type": "address"
						},
						{
							"indexed": false,
							"internalType": "uint256",
							"name": "price",
							"type": "uint256"
						}
					],
					"name": "MarketItemCreated",
					"type": "event"
				},
				{
					"anonymous": false,
					"inputs": [
						{
							"indexed": true,
							"internalType": "address",
							"name": "previousOwner",
							"type": "address"
						},
						{
							"indexed": true,
							"internalType": "address",
							"name": "newOwner",
							"type": "address"
						}
					],
					"name": "OwnershipTransferred",
					"type": "event"
				},
				{
					"anonymous": false,
					"inputs": [
						{
							"indexed": false,
							"internalType": "address",
							"name": "nftAddress",
							"type": "address"
						},
						{
							"indexed": false,
							"internalType": "bytes32",
							"name": "id",
							"type": "bytes32"
						},
						{
							"indexed": true,
							"internalType": "uint256",
							"name": "assetId",
							"type": "uint256"
						},
						{
							"indexed": false,
							"internalType": "uint256",
							"name": "price",
							"type": "uint256"
						},
						{
							"indexed": true,
							"internalType": "address",
							"name": "seller",
							"type": "address"
						},
						{
							"indexed": false,
							"internalType": "string",
							"name": "currency",
							"type": "string"
						},
						{
							"indexed": false,
							"internalType": "uint256",
							"name": "createdAt",
							"type": "uint256"
						}
					],
					"name": "SellItemSuccessful",
					"type": "event"
				},
				{
					"inputs": [],
					"name": "ERC721_Interface",
					"outputs": [
						{
							"internalType": "bytes4",
							"name": "",
							"type": "bytes4"
						}
					],
					"stateMutability": "view",
					"type": "function"
				},
				{
					"inputs": [
						{
							"internalType": "uint256",
							"name": "",
							"type": "uint256"
						}
					],
					"name": "allItems",
					"outputs": [
						{
							"internalType": "uint256",
							"name": "itemId",
							"type": "uint256"
						},
						{
							"internalType": "address",
							"name": "nftContract",
							"type": "address"
						},
						{
							"internalType": "uint256",
							"name": "tokenId",
							"type": "uint256"
						},
						{
							"internalType": "address payable",
							"name": "seller",
							"type": "address"
						},
						{
							"internalType": "address payable",
							"name": "owner",
							"type": "address"
						},
						{
							"internalType": "uint256",
							"name": "price",
							"type": "uint256"
						},
						{
							"internalType": "enum MarketplaceStorage.ItemStatus",
							"name": "status",
							"type": "uint8"
						}
					],
					"stateMutability": "view",
					"type": "function"
				},
				{
					"inputs": [],
					"name": "allMarketItems",
					"outputs": [
						{
							"internalType": "uint256",
							"name": "itemId",
							"type": "uint256"
						},
						{
							"internalType": "address",
							"name": "nftContract",
							"type": "address"
						},
						{
							"internalType": "uint256",
							"name": "tokenId",
							"type": "uint256"
						},
						{
							"internalType": "address payable",
							"name": "seller",
							"type": "address"
						},
						{
							"internalType": "address payable",
							"name": "owner",
							"type": "address"
						},
						{
							"internalType": "uint256",
							"name": "price",
							"type": "uint256"
						},
						{
							"internalType": "enum MarketplaceStorage.ItemStatus",
							"name": "status",
							"type": "uint8"
						}
					],
					"stateMutability": "view",
					"type": "function"
				},
				{
					"inputs": [],
					"name": "antaFeePercent",
					"outputs": [
						{
							"internalType": "uint8",
							"name": "",
							"type": "uint8"
						}
					],
					"stateMutability": "view",
					"type": "function"
				},
				{
					"inputs": [],
					"name": "bnbFeePercent",
					"outputs": [
						{
							"internalType": "uint8",
							"name": "",
							"type": "uint8"
						}
					],
					"stateMutability": "view",
					"type": "function"
				},
				{
					"inputs": [
						{
							"internalType": "address",
							"name": "nftContract",
							"type": "address"
						},
						{
							"internalType": "uint256",
							"name": "tokenId",
							"type": "uint256"
						},
						{
							"internalType": "uint256",
							"name": "price",
							"type": "uint256"
						}
					],
					"name": "createMarketItem",
					"outputs": [],
					"stateMutability": "payable",
					"type": "function"
				},
				{
					"inputs": [
						{
							"internalType": "uint256",
							"name": "itemId",
							"type": "uint256"
						},
						{
							"internalType": "uint256",
							"name": "amount",
							"type": "uint256"
						}
					],
					"name": "createMarketSale",
					"outputs": [],
					"stateMutability": "nonpayable",
					"type": "function"
				},
				{
					"inputs": [
						{
							"internalType": "address",
							"name": "nftAddress",
							"type": "address"
						},
						{
							"internalType": "uint256",
							"name": "itemId",
							"type": "uint256"
						}
					],
					"name": "delistItem",
					"outputs": [],
					"stateMutability": "nonpayable",
					"type": "function"
				},
				{
					"inputs": [],
					"name": "factory",
					"outputs": [
						{
							"internalType": "contract IFactory",
							"name": "",
							"type": "address"
						}
					],
					"stateMutability": "view",
					"type": "function"
				},
				{
					"inputs": [
						{
							"internalType": "uint256",
							"name": "itemId",
							"type": "uint256"
						}
					],
					"name": "fetchMarketItem",
					"outputs": [
						{
							"components": [
								{
									"internalType": "uint256",
									"name": "itemId",
									"type": "uint256"
								},
								{
									"internalType": "address",
									"name": "nftContract",
									"type": "address"
								},
								{
									"internalType": "uint256",
									"name": "tokenId",
									"type": "uint256"
								},
								{
									"internalType": "address payable",
									"name": "seller",
									"type": "address"
								},
								{
									"internalType": "address payable",
									"name": "owner",
									"type": "address"
								},
								{
									"internalType": "uint256",
									"name": "price",
									"type": "uint256"
								},
								{
									"internalType": "enum MarketplaceStorage.ItemStatus",
									"name": "status",
									"type": "uint8"
								}
							],
							"internalType": "struct MarketplaceStorage.MarketItem",
							"name": "",
							"type": "tuple"
						}
					],
					"stateMutability": "view",
					"type": "function"
				},
				{
					"inputs": [],
					"name": "fetchMarketItems",
					"outputs": [
						{
							"components": [
								{
									"internalType": "uint256",
									"name": "itemId",
									"type": "uint256"
								},
								{
									"internalType": "address",
									"name": "nftContract",
									"type": "address"
								},
								{
									"internalType": "uint256",
									"name": "tokenId",
									"type": "uint256"
								},
								{
									"internalType": "address payable",
									"name": "seller",
									"type": "address"
								},
								{
									"internalType": "address payable",
									"name": "owner",
									"type": "address"
								},
								{
									"internalType": "uint256",
									"name": "price",
									"type": "uint256"
								},
								{
									"internalType": "enum MarketplaceStorage.ItemStatus",
									"name": "status",
									"type": "uint8"
								}
							],
							"internalType": "struct MarketplaceStorage.MarketItem",
							"name": "",
							"type": "tuple"
						}
					],
					"stateMutability": "view",
					"type": "function"
				},
				{
					"inputs": [],
					"name": "fetchMyNFTs",
					"outputs": [
						{
							"components": [
								{
									"internalType": "uint256",
									"name": "itemId",
									"type": "uint256"
								},
								{
									"internalType": "address",
									"name": "nftContract",
									"type": "address"
								},
								{
									"internalType": "uint256",
									"name": "tokenId",
									"type": "uint256"
								},
								{
									"internalType": "address payable",
									"name": "seller",
									"type": "address"
								},
								{
									"internalType": "address payable",
									"name": "owner",
									"type": "address"
								},
								{
									"internalType": "uint256",
									"name": "price",
									"type": "uint256"
								},
								{
									"internalType": "enum MarketplaceStorage.ItemStatus",
									"name": "status",
									"type": "uint8"
								}
							],
							"internalType": "struct MarketplaceStorage.MarketItem[]",
							"name": "",
							"type": "tuple[]"
						}
					],
					"stateMutability": "view",
					"type": "function"
				},
				{
					"inputs": [
						{
							"internalType": "uint256",
							"name": "marketItemId",
							"type": "uint256"
						}
					],
					"name": "getMarketItem",
					"outputs": [
						{
							"components": [
								{
									"internalType": "uint256",
									"name": "itemId",
									"type": "uint256"
								},
								{
									"internalType": "address",
									"name": "nftContract",
									"type": "address"
								},
								{
									"internalType": "uint256",
									"name": "tokenId",
									"type": "uint256"
								},
								{
									"internalType": "address payable",
									"name": "seller",
									"type": "address"
								},
								{
									"internalType": "address payable",
									"name": "owner",
									"type": "address"
								},
								{
									"internalType": "uint256",
									"name": "price",
									"type": "uint256"
								},
								{
									"internalType": "enum MarketplaceStorage.ItemStatus",
									"name": "status",
									"type": "uint8"
								}
							],
							"internalType": "struct MarketplaceStorage.MarketItem",
							"name": "",
							"type": "tuple"
						}
					],
					"stateMutability": "view",
					"type": "function"
				},
				{
					"inputs": [
						{
							"internalType": "address",
							"name": "",
							"type": "address"
						},
						{
							"internalType": "uint256",
							"name": "",
							"type": "uint256"
						}
					],
					"name": "items",
					"outputs": [
						{
							"internalType": "uint256",
							"name": "itemId",
							"type": "uint256"
						},
						{
							"internalType": "address",
							"name": "nftContract",
							"type": "address"
						},
						{
							"internalType": "uint256",
							"name": "tokenId",
							"type": "uint256"
						},
						{
							"internalType": "address payable",
							"name": "seller",
							"type": "address"
						},
						{
							"internalType": "address payable",
							"name": "owner",
							"type": "address"
						},
						{
							"internalType": "uint256",
							"name": "price",
							"type": "uint256"
						},
						{
							"internalType": "enum MarketplaceStorage.ItemStatus",
							"name": "status",
							"type": "uint8"
						}
					],
					"stateMutability": "view",
					"type": "function"
				},
				{
					"inputs": [],
					"name": "mainNFTs",
					"outputs": [
						{
							"internalType": "contract IERC721",
							"name": "",
							"type": "address"
						}
					],
					"stateMutability": "view",
					"type": "function"
				},
				{
					"inputs": [],
					"name": "mainToken",
					"outputs": [
						{
							"internalType": "contract IERC20",
							"name": "",
							"type": "address"
						}
					],
					"stateMutability": "view",
					"type": "function"
				},
				{
					"inputs": [],
					"name": "owner",
					"outputs": [
						{
							"internalType": "address",
							"name": "",
							"type": "address"
						}
					],
					"stateMutability": "view",
					"type": "function"
				},
				{
					"inputs": [],
					"name": "renounceOwnership",
					"outputs": [],
					"stateMutability": "nonpayable",
					"type": "function"
				},
				{
					"inputs": [
						{
							"internalType": "address",
							"name": "_address",
							"type": "address"
						}
					],
					"name": "setFactory",
					"outputs": [],
					"stateMutability": "nonpayable",
					"type": "function"
				},
				{
					"inputs": [
						{
							"internalType": "address",
							"name": "_address",
							"type": "address"
						}
					],
					"name": "setMainNFT",
					"outputs": [],
					"stateMutability": "nonpayable",
					"type": "function"
				},
				{
					"inputs": [
						{
							"internalType": "address",
							"name": "_address",
							"type": "address"
						}
					],
					"name": "setMainToken",
					"outputs": [],
					"stateMutability": "nonpayable",
					"type": "function"
				},
				{
					"inputs": [
						{
							"internalType": "address",
							"name": "newOwner",
							"type": "address"
						}
					],
					"name": "transferOwnership",
					"outputs": [],
					"stateMutability": "nonpayable",
					"type": "function"
				}
			],
			"devdoc": {
				"kind": "dev",
				"methods": {
					"owner()": {
						"details": "Returns the address of the current owner."
					},
					"renounceOwnership()": {
						"details": "Leaves the contract without owner. It will not be possible to call `onlyOwner` functions anymore. Can only be called by the current owner. NOTE: Renouncing ownership will leave the contract without an owner, thereby removing any functionality that is only available to the owner."
					},
					"transferOwnership(address)": {
						"details": "Transfers ownership of the contract to a new account (`newOwner`). Can only be called by the current owner."
					}
				},
				"version": 1
			},
			"evm": {
				"assembly": "    /* \"contracts/Marketplace2/Marketplace.sol\":17192:23929  contract NFTMarket is ReentrancyGuard,MarketplaceStorage, Ownable {... */\n  mstore(0x40, 0x80)\n    /* \"contracts/Marketplace2/Marketplace.sol\":17438:17632  constructor(address _mainToken, address _mainNFT, address _mainFactory ) {... */\n  callvalue\n  dup1\n  iszero\n  tag_1\n  jumpi\n  0x00\n  dup1\n  revert\ntag_1:\n  pop\n  mload(0x40)\n  sub(codesize, bytecodeSize)\n  dup1\n  bytecodeSize\n  dup4\n  codecopy\n  dup2\n  dup2\n  add\n  0x40\n  mstore\n  dup2\n  add\n  swap1\n  tag_2\n  swap2\n  swap1\n  tag_3\n  jump\t// in\ntag_2:\n    /* \"contracts/Marketplace2/Marketplace.sol\":14122:14123  1 */\n  0x01\n    /* \"contracts/Marketplace2/Marketplace.sol\":14227:14234  _status */\n  0x00\n    /* \"contracts/Marketplace2/Marketplace.sol\":14227:14249  _status = _NOT_ENTERED */\n  dup2\n  swap1\n  sstore\n  pop\n    /* \"contracts/Marketplace2/Marketplace.sol\":1561:1593  _transferOwnership(_msgSender()) */\n  tag_9\n    /* \"contracts/Marketplace2/Marketplace.sol\":1580:1592  _msgSender() */\n  tag_10\n    /* \"contracts/Marketplace2/Marketplace.sol\":1580:1590  _msgSender */\n  shl(0x20, tag_11)\n    /* \"contracts/Marketplace2/Marketplace.sol\":1580:1592  _msgSender() */\n  0x20\n  shr\n  jump\t// in\ntag_10:\n    /* \"contracts/Marketplace2/Marketplace.sol\":1561:1579  _transferOwnership */\n  shl(0x20, tag_12)\n    /* \"contracts/Marketplace2/Marketplace.sol\":1561:1593  _transferOwnership(_msgSender()) */\n  0x20\n  shr\n  jump\t// in\ntag_9:\n    /* \"contracts/Marketplace2/Marketplace.sol\":17538:17548  _mainToken */\n  dup3\n    /* \"contracts/Marketplace2/Marketplace.sol\":17519:17528  mainToken */\n  0x0a\n  0x00\n    /* \"contracts/Marketplace2/Marketplace.sol\":17519:17549  mainToken = IERC20(_mainToken) */\n  0x0100\n  exp\n  dup2\n  sload\n  dup2\n  0xffffffffffffffffffffffffffffffffffffffff\n  mul\n  not\n  and\n  swap1\n  dup4\n  0xffffffffffffffffffffffffffffffffffffffff\n  and\n  mul\n  or\n  swap1\n  sstore\n  pop\n    /* \"contracts/Marketplace2/Marketplace.sol\":17576:17584  _mainNFT */\n  dup2\n    /* \"contracts/Marketplace2/Marketplace.sol\":17557:17565  mainNFTs */\n  0x0c\n  0x00\n    /* \"contracts/Marketplace2/Marketplace.sol\":17557:17585  mainNFTs = IERC721(_mainNFT) */\n  0x0100\n  exp\n  dup2\n  sload\n  dup2\n  0xffffffffffffffffffffffffffffffffffffffff\n  mul\n  not\n  and\n  swap1\n  dup4\n  0xffffffffffffffffffffffffffffffffffffffff\n  and\n  mul\n  or\n  swap1\n  sstore\n  pop\n    /* \"contracts/Marketplace2/Marketplace.sol\":17612:17624  _mainFactory */\n  dup1\n    /* \"contracts/Marketplace2/Marketplace.sol\":17593:17600  factory */\n  0x0b\n  0x00\n    /* \"contracts/Marketplace2/Marketplace.sol\":17593:17625  factory = IFactory(_mainFactory) */\n  0x0100\n  exp\n  dup2\n  sload\n  dup2\n  0xffffffffffffffffffffffffffffffffffffffff\n  mul\n  not\n  and\n  swap1\n  dup4\n  0xffffffffffffffffffffffffffffffffffffffff\n  and\n  mul\n  or\n  swap1\n  sstore\n  pop\n    /* \"contracts/Marketplace2/Marketplace.sol\":17438:17632  constructor(address _mainToken, address _mainNFT, address _mainFactory ) {... */\n  pop\n  pop\n  pop\n    /* \"contracts/Marketplace2/Marketplace.sol\":17192:23929  contract NFTMarket is ReentrancyGuard,MarketplaceStorage, Ownable {... */\n  jump(tag_14)\n    /* \"contracts/Marketplace2/Marketplace.sol\":554:650  function _msgSender() internal view virtual returns (address) {... */\ntag_11:\n    /* \"contracts/Marketplace2/Marketplace.sol\":607:614  address */\n  0x00\n    /* \"contracts/Marketplace2/Marketplace.sol\":633:643  msg.sender */\n  caller\n    /* \"contracts/Marketplace2/Marketplace.sol\":626:643  return msg.sender */\n  swap1\n  pop\n    /* \"contracts/Marketplace2/Marketplace.sol\":554:650  function _msgSender() internal view virtual returns (address) {... */\n  swap1\n  jump\t// out\n    /* \"contracts/Marketplace2/Marketplace.sol\":2910:3097  function _transferOwnership(address newOwner) internal virtual {... */\ntag_12:\n    /* \"contracts/Marketplace2/Marketplace.sol\":2983:2999  address oldOwner */\n  0x00\n    /* \"contracts/Marketplace2/Marketplace.sol\":3002:3008  _owner */\n  0x0d\n  0x00\n  swap1\n  sload\n  swap1\n  0x0100\n  exp\n  swap1\n  div\n  0xffffffffffffffffffffffffffffffffffffffff\n  and\n    /* \"contracts/Marketplace2/Marketplace.sol\":2983:3008  address oldOwner = _owner */\n  swap1\n  pop\n    /* \"contracts/Marketplace2/Marketplace.sol\":3027:3035  newOwner */\n  dup2\n    /* \"contracts/Marketplace2/Marketplace.sol\":3018:3024  _owner */\n  0x0d\n  0x00\n    /* \"contracts/Marketplace2/Marketplace.sol\":3018:3035  _owner = newOwner */\n  0x0100\n  exp\n  dup2\n  sload\n  dup2\n  0xffffffffffffffffffffffffffffffffffffffff\n  mul\n  not\n  and\n  swap1\n  dup4\n  0xffffffffffffffffffffffffffffffffffffffff\n  and\n  mul\n  or\n  swap1\n  sstore\n  pop\n    /* \"contracts/Marketplace2/Marketplace.sol\":3081:3089  newOwner */\n  dup2\n    /* \"contracts/Marketplace2/Marketplace.sol\":3050:3090  OwnershipTransferred(oldOwner, newOwner) */\n  0xffffffffffffffffffffffffffffffffffffffff\n  and\n    /* \"contracts/Marketplace2/Marketplace.sol\":3071:3079  oldOwner */\n  dup2\n    /* \"contracts/Marketplace2/Marketplace.sol\":3050:3090  OwnershipTransferred(oldOwner, newOwner) */\n  0xffffffffffffffffffffffffffffffffffffffff\n  and\n  0x8be0079c531659141344cd1fd0a4f28419497f9722a3daafe3b4186f6b6457e0\n  mload(0x40)\n  mload(0x40)\n  dup1\n  swap2\n  sub\n  swap1\n  log3\n    /* \"contracts/Marketplace2/Marketplace.sol\":2973:3097  {... */\n  pop\n    /* \"contracts/Marketplace2/Marketplace.sol\":2910:3097  function _transferOwnership(address newOwner) internal virtual {... */\n  pop\n  jump\t// out\n    /* \"#utility.yul\":88:205   */\ntag_18:\n    /* \"#utility.yul\":197:198   */\n  0x00\n    /* \"#utility.yul\":194:195   */\n  dup1\n    /* \"#utility.yul\":187:199   */\n  revert\n    /* \"#utility.yul\":334:460   */\ntag_20:\n    /* \"#utility.yul\":371:378   */\n  0x00\n    /* \"#utility.yul\":411:453   */\n  0xffffffffffffffffffffffffffffffffffffffff\n    /* \"#utility.yul\":404:409   */\n  dup3\n    /* \"#utility.yul\":400:454   */\n  and\n    /* \"#utility.yul\":389:454   */\n  swap1\n  pop\n    /* \"#utility.yul\":334:460   */\n  swap2\n  swap1\n  pop\n  jump\t// out\n    /* \"#utility.yul\":466:562   */\ntag_21:\n    /* \"#utility.yul\":503:510   */\n  0x00\n    /* \"#utility.yul\":532:556   */\n  tag_30\n    /* \"#utility.yul\":550:555   */\n  dup3\n    /* \"#utility.yul\":532:556   */\n  tag_20\n  jump\t// in\ntag_30:\n    /* \"#utility.yul\":521:556   */\n  swap1\n  pop\n    /* \"#utility.yul\":466:562   */\n  swap2\n  swap1\n  pop\n  jump\t// out\n    /* \"#utility.yul\":568:690   */\ntag_22:\n    /* \"#utility.yul\":641:665   */\n  tag_32\n    /* \"#utility.yul\":659:664   */\n  dup2\n    /* \"#utility.yul\":641:665   */\n  tag_21\n  jump\t// in\ntag_32:\n    /* \"#utility.yul\":634:639   */\n  dup2\n    /* \"#utility.yul\":631:666   */\n  eq\n    /* \"#utility.yul\":621:684   */\n  tag_33\n  jumpi\n    /* \"#utility.yul\":680:681   */\n  0x00\n    /* \"#utility.yul\":677:678   */\n  dup1\n    /* \"#utility.yul\":670:682   */\n  revert\n    /* \"#utility.yul\":621:684   */\ntag_33:\n    /* \"#utility.yul\":568:690   */\n  pop\n  jump\t// out\n    /* \"#utility.yul\":696:839   */\ntag_23:\n    /* \"#utility.yul\":753:758   */\n  0x00\n    /* \"#utility.yul\":784:790   */\n  dup2\n    /* \"#utility.yul\":778:791   */\n  mload\n    /* \"#utility.yul\":769:791   */\n  swap1\n  pop\n    /* \"#utility.yul\":800:833   */\n  tag_35\n    /* \"#utility.yul\":827:832   */\n  dup2\n    /* \"#utility.yul\":800:833   */\n  tag_22\n  jump\t// in\ntag_35:\n    /* \"#utility.yul\":696:839   */\n  swap3\n  swap2\n  pop\n  pop\n  jump\t// out\n    /* \"#utility.yul\":845:1508   */\ntag_3:\n    /* \"#utility.yul\":933:939   */\n  0x00\n    /* \"#utility.yul\":941:947   */\n  dup1\n    /* \"#utility.yul\":949:955   */\n  0x00\n    /* \"#utility.yul\":998:1000   */\n  0x60\n    /* \"#utility.yul\":986:995   */\n  dup5\n    /* \"#utility.yul\":977:984   */\n  dup7\n    /* \"#utility.yul\":973:996   */\n  sub\n    /* \"#utility.yul\":969:1001   */\n  slt\n    /* \"#utility.yul\":966:1085   */\n  iszero\n  tag_37\n  jumpi\n    /* \"#utility.yul\":1004:1083   */\n  tag_38\n  tag_18\n  jump\t// in\ntag_38:\n    /* \"#utility.yul\":966:1085   */\ntag_37:\n    /* \"#utility.yul\":1124:1125   */\n  0x00\n    /* \"#utility.yul\":1149:1213   */\n  tag_39\n    /* \"#utility.yul\":1205:1212   */\n  dup7\n    /* \"#utility.yul\":1196:1202   */\n  dup3\n    /* \"#utility.yul\":1185:1194   */\n  dup8\n    /* \"#utility.yul\":1181:1203   */\n  add\n    /* \"#utility.yul\":1149:1213   */\n  tag_23\n  jump\t// in\ntag_39:\n    /* \"#utility.yul\":1139:1213   */\n  swap4\n  pop\n    /* \"#utility.yul\":1095:1223   */\n  pop\n    /* \"#utility.yul\":1262:1264   */\n  0x20\n    /* \"#utility.yul\":1288:1352   */\n  tag_40\n    /* \"#utility.yul\":1344:1351   */\n  dup7\n    /* \"#utility.yul\":1335:1341   */\n  dup3\n    /* \"#utility.yul\":1324:1333   */\n  dup8\n    /* \"#utility.yul\":1320:1342   */\n  add\n    /* \"#utility.yul\":1288:1352   */\n  tag_23\n  jump\t// in\ntag_40:\n    /* \"#utility.yul\":1278:1352   */\n  swap3\n  pop\n    /* \"#utility.yul\":1233:1362   */\n  pop\n    /* \"#utility.yul\":1401:1403   */\n  0x40\n    /* \"#utility.yul\":1427:1491   */\n  tag_41\n    /* \"#utility.yul\":1483:1490   */\n  dup7\n    /* \"#utility.yul\":1474:1480   */\n  dup3\n    /* \"#utility.yul\":1463:1472   */\n  dup8\n    /* \"#utility.yul\":1459:1481   */\n  add\n    /* \"#utility.yul\":1427:1491   */\n  tag_23\n  jump\t// in\ntag_41:\n    /* \"#utility.yul\":1417:1491   */\n  swap2\n  pop\n    /* \"#utility.yul\":1372:1501   */\n  pop\n    /* \"#utility.yul\":845:1508   */\n  swap3\n  pop\n  swap3\n  pop\n  swap3\n  jump\t// out\n    /* \"contracts/Marketplace2/Marketplace.sol\":17192:23929  contract NFTMarket is ReentrancyGuard,MarketplaceStorage, Ownable {... */\ntag_14:\n  dataSize(sub_0)\n  dup1\n  dataOffset(sub_0)\n  0x00\n  codecopy\n  0x00\n  return\nstop\n\nsub_0: assembly {\n        /* \"contracts/Marketplace2/Marketplace.sol\":17192:23929  contract NFTMarket is ReentrancyGuard,MarketplaceStorage, Ownable {... */\n      mstore(0x40, 0x80)\n      jumpi(tag_1, lt(calldatasize, 0x04))\n      shr(0xe0, calldataload(0x00))\n      dup1\n      0x715018a6\n      gt\n      tag_24\n      jumpi\n      dup1\n      0xb7a60c7e\n      gt\n      tag_25\n      jumpi\n      dup1\n      0xb7a60c7e\n      eq\n      tag_18\n      jumpi\n      dup1\n      0xc45a0155\n      eq\n      tag_19\n      jumpi\n      dup1\n      0xc7be7a49\n      eq\n      tag_20\n      jumpi\n      dup1\n      0xf2fde38b\n      eq\n      tag_21\n      jumpi\n      dup1\n      0xf55de0c7\n      eq\n      tag_22\n      jumpi\n      dup1\n      0xff68fa6e\n      eq\n      tag_23\n      jumpi\n      jump(tag_1)\n    tag_25:\n      dup1\n      0x715018a6\n      eq\n      tag_13\n      jumpi\n      dup1\n      0x85a8b36c\n      eq\n      tag_14\n      jumpi\n      dup1\n      0x8da5cb5b\n      eq\n      tag_15\n      jumpi\n      dup1\n      0xa1c11ca8\n      eq\n      tag_16\n      jumpi\n      dup1\n      0xad9a0369\n      eq\n      tag_17\n      jumpi\n      jump(tag_1)\n    tag_24:\n      dup1\n      0x2b4c32be\n      gt\n      tag_26\n      jumpi\n      dup1\n      0x2b4c32be\n      eq\n      tag_7\n      jumpi\n      dup1\n      0x3fc15f15\n      eq\n      tag_8\n      jumpi\n      dup1\n      0x517bd451\n      eq\n      tag_9\n      jumpi\n      dup1\n      0x58eb2df5\n      eq\n      tag_10\n      jumpi\n      dup1\n      0x5bb47808\n      eq\n      tag_11\n      jumpi\n      dup1\n      0x5c80a435\n      eq\n      tag_12\n      jumpi\n      jump(tag_1)\n    tag_26:\n      dup1\n      0x0f08efe0\n      eq\n      tag_2\n      jumpi\n      dup1\n      0x15b12494\n      eq\n      tag_3\n      jumpi\n      dup1\n      0x202e3740\n      eq\n      tag_4\n      jumpi\n      dup1\n      0x27ce464e\n      eq\n      tag_5\n      jumpi\n      dup1\n      0x2a45b250\n      eq\n      tag_6\n      jumpi\n    tag_1:\n      0x00\n      dup1\n      revert\n        /* \"contracts/Marketplace2/Marketplace.sol\":19554:19654  function fetchMarketItems() public view returns (MarketItem memory) {... */\n    tag_2:\n      callvalue\n      dup1\n      iszero\n      tag_27\n      jumpi\n      0x00\n      dup1\n      revert\n    tag_27:\n      pop\n      tag_28\n      tag_29\n      jump\t// in\n    tag_28:\n      mload(0x40)\n      tag_30\n      swap2\n      swap1\n      tag_31\n      jump\t// in\n    tag_30:\n      mload(0x40)\n      dup1\n      swap2\n      sub\n      swap1\n      return\n        /* \"contracts/Marketplace2/Marketplace.sol\":17890:17992  function setMainNFT(address _address) external onlyOwner {... */\n    tag_3:\n      callvalue\n      dup1\n      iszero\n      tag_32\n      jumpi\n      0x00\n      dup1\n      revert\n    tag_32:\n      pop\n      tag_33\n      0x04\n      dup1\n      calldatasize\n      sub\n      dup2\n      add\n      swap1\n      tag_34\n      swap2\n      swap1\n      tag_35\n      jump\t// in\n    tag_34:\n      tag_36\n      jump\t// in\n    tag_33:\n      stop\n        /* \"contracts/Marketplace2/Marketplace.sol\":19658:20361  function fetchMyNFTs() public view returns (MarketItem[] memory) {... */\n    tag_4:\n      callvalue\n      dup1\n      iszero\n      tag_37\n      jumpi\n      0x00\n      dup1\n      revert\n    tag_37:\n      pop\n      tag_38\n      tag_39\n      jump\t// in\n    tag_38:\n      mload(0x40)\n      tag_40\n      swap2\n      swap1\n      tag_41\n      jump\t// in\n    tag_40:\n      mload(0x40)\n      dup1\n      swap2\n      sub\n      swap1\n      return\n        /* \"contracts/Marketplace2/Marketplace.sol\":17781:17885  function setMainToken(address _address) external onlyOwner {... */\n    tag_5:\n      callvalue\n      dup1\n      iszero\n      tag_42\n      jumpi\n      0x00\n      dup1\n      revert\n    tag_42:\n      pop\n      tag_43\n      0x04\n      dup1\n      calldatasize\n      sub\n      dup2\n      add\n      swap1\n      tag_44\n      swap2\n      swap1\n      tag_35\n      jump\t// in\n    tag_44:\n      tag_45\n      jump\t// in\n    tag_43:\n      stop\n        /* \"contracts/Marketplace2/Marketplace.sol\":19397:19550  function fetchMarketItem(uint itemId) public view returns (MarketItem memory) {... */\n    tag_6:\n      callvalue\n      dup1\n      iszero\n      tag_46\n      jumpi\n      0x00\n      dup1\n      revert\n    tag_46:\n      pop\n      tag_47\n      0x04\n      dup1\n      calldatasize\n      sub\n      dup2\n      add\n      swap1\n      tag_48\n      swap2\n      swap1\n      tag_49\n      jump\t// in\n    tag_48:\n      tag_50\n      jump\t// in\n    tag_47:\n      mload(0x40)\n      tag_51\n      swap2\n      swap1\n      tag_31\n      jump\t// in\n    tag_51:\n      mload(0x40)\n      dup1\n      swap2\n      sub\n      swap1\n      return\n        /* \"contracts/Marketplace2/Marketplace.sol\":15861:15921  bytes4 public constant ERC721_Interface = bytes4(0x80ac58cd) */\n    tag_7:\n      callvalue\n      dup1\n      iszero\n      tag_52\n      jumpi\n      0x00\n      dup1\n      revert\n    tag_52:\n      pop\n      tag_53\n      tag_54\n      jump\t// in\n    tag_53:\n      mload(0x40)\n      tag_55\n      swap2\n      swap1\n      tag_56\n      jump\t// in\n    tag_55:\n      mload(0x40)\n      dup1\n      swap2\n      sub\n      swap1\n      return\n        /* \"contracts/Marketplace2/Marketplace.sol\":16122:16145  IERC20 public mainToken */\n    tag_8:\n      callvalue\n      dup1\n      iszero\n      tag_57\n      jumpi\n      0x00\n      dup1\n      revert\n    tag_57:\n      pop\n      tag_58\n      tag_59\n      jump\t// in\n    tag_58:\n      mload(0x40)\n      tag_60\n      swap2\n      swap1\n      tag_61\n      jump\t// in\n    tag_60:\n      mload(0x40)\n      dup1\n      swap2\n      sub\n      swap1\n      return\n        /* \"contracts/Marketplace2/Marketplace.sol\":15822:15854  MarketItem public allMarketItems */\n    tag_9:\n      callvalue\n      dup1\n      iszero\n      tag_62\n      jumpi\n      0x00\n      dup1\n      revert\n    tag_62:\n      pop\n      tag_63\n      tag_64\n      jump\t// in\n    tag_63:\n      mload(0x40)\n      tag_65\n      swap8\n      swap7\n      swap6\n      swap5\n      swap4\n      swap3\n      swap2\n      swap1\n      tag_66\n      jump\t// in\n    tag_65:\n      mload(0x40)\n      dup1\n      swap2\n      sub\n      swap1\n      return\n        /* \"contracts/Marketplace2/Marketplace.sol\":18103:18754  function createMarketItem(... */\n    tag_10:\n      tag_67\n      0x04\n      dup1\n      calldatasize\n      sub\n      dup2\n      add\n      swap1\n      tag_68\n      swap2\n      swap1\n      tag_69\n      jump\t// in\n    tag_68:\n      tag_70\n      jump\t// in\n    tag_67:\n      stop\n        /* \"contracts/Marketplace2/Marketplace.sol\":17997:18099  function setFactory(address _address) external onlyOwner {... */\n    tag_11:\n      callvalue\n      dup1\n      iszero\n      tag_71\n      jumpi\n      0x00\n      dup1\n      revert\n    tag_71:\n      pop\n      tag_72\n      0x04\n      dup1\n      calldatasize\n      sub\n      dup2\n      add\n      swap1\n      tag_73\n      swap2\n      swap1\n      tag_35\n      jump\t// in\n    tag_73:\n      tag_74\n      jump\t// in\n    tag_72:\n      stop\n        /* \"contracts/Marketplace2/Marketplace.sol\":16052:16115  mapping(address => mapping(uint256 => MarketItem)) public items */\n    tag_12:\n      callvalue\n      dup1\n      iszero\n      tag_75\n      jumpi\n      0x00\n      dup1\n      revert\n    tag_75:\n      pop\n      tag_76\n      0x04\n      dup1\n      calldatasize\n      sub\n      dup2\n      add\n      swap1\n      tag_77\n      swap2\n      swap1\n      tag_78\n      jump\t// in\n    tag_77:\n      tag_79\n      jump\t// in\n    tag_76:\n      mload(0x40)\n      tag_80\n      swap8\n      swap7\n      swap6\n      swap5\n      swap4\n      swap3\n      swap2\n      swap1\n      tag_66\n      jump\t// in\n    tag_80:\n      mload(0x40)\n      dup1\n      swap2\n      sub\n      swap1\n      return\n        /* \"contracts/Marketplace2/Marketplace.sol\":2308:2409  function renounceOwnership() public virtual onlyOwner {... */\n    tag_13:\n      callvalue\n      dup1\n      iszero\n      tag_81\n      jumpi\n      0x00\n      dup1\n      revert\n    tag_81:\n      pop\n      tag_82\n      tag_83\n      jump\t// in\n    tag_82:\n      stop\n        /* \"contracts/Marketplace2/Marketplace.sol\":16210:16236  uint8 public bnbFeePercent */\n    tag_14:\n      callvalue\n      dup1\n      iszero\n      tag_84\n      jumpi\n      0x00\n      dup1\n      revert\n    tag_84:\n      pop\n      tag_85\n      tag_86\n      jump\t// in\n    tag_85:\n      mload(0x40)\n      tag_87\n      swap2\n      swap1\n      tag_88\n      jump\t// in\n    tag_87:\n      mload(0x40)\n      dup1\n      swap2\n      sub\n      swap1\n      return\n        /* \"contracts/Marketplace2/Marketplace.sol\":1676:1761  function owner() public view virtual returns (address) {... */\n    tag_15:\n      callvalue\n      dup1\n      iszero\n      tag_89\n      jumpi\n      0x00\n      dup1\n      revert\n    tag_89:\n      pop\n      tag_90\n      tag_91\n      jump\t// in\n    tag_90:\n      mload(0x40)\n      tag_92\n      swap2\n      swap1\n      tag_93\n      jump\t// in\n    tag_92:\n      mload(0x40)\n      dup1\n      swap2\n      sub\n      swap1\n      return\n        /* \"contracts/Marketplace2/Marketplace.sol\":18758:19393  function createMarketSale(... */\n    tag_16:\n      callvalue\n      dup1\n      iszero\n      tag_94\n      jumpi\n      0x00\n      dup1\n      revert\n    tag_94:\n      pop\n      tag_95\n      0x04\n      dup1\n      calldatasize\n      sub\n      dup2\n      add\n      swap1\n      tag_96\n      swap2\n      swap1\n      tag_97\n      jump\t// in\n    tag_96:\n      tag_98\n      jump\t// in\n    tag_95:\n      stop\n        /* \"contracts/Marketplace2/Marketplace.sol\":20365:21257  function delistItem(address nftAddress, uint256 itemId) public {... */\n    tag_17:\n      callvalue\n      dup1\n      iszero\n      tag_99\n      jumpi\n      0x00\n      dup1\n      revert\n    tag_99:\n      pop\n      tag_100\n      0x04\n      dup1\n      calldatasize\n      sub\n      dup2\n      add\n      swap1\n      tag_101\n      swap2\n      swap1\n      tag_78\n      jump\t// in\n    tag_101:\n      tag_102\n      jump\t// in\n    tag_100:\n      stop\n        /* \"contracts/Marketplace2/Marketplace.sol\":16242:16269  uint8 public antaFeePercent */\n    tag_18:\n      callvalue\n      dup1\n      iszero\n      tag_103\n      jumpi\n      0x00\n      dup1\n      revert\n    tag_103:\n      pop\n      tag_104\n      tag_105\n      jump\t// in\n    tag_104:\n      mload(0x40)\n      tag_106\n      swap2\n      swap1\n      tag_88\n      jump\t// in\n    tag_106:\n      mload(0x40)\n      dup1\n      swap2\n      sub\n      swap1\n      return\n        /* \"contracts/Marketplace2/Marketplace.sol\":16151:16174  IFactory public factory */\n    tag_19:\n      callvalue\n      dup1\n      iszero\n      tag_107\n      jumpi\n      0x00\n      dup1\n      revert\n    tag_107:\n      pop\n      tag_108\n      tag_109\n      jump\t// in\n    tag_108:\n      mload(0x40)\n      tag_110\n      swap2\n      swap1\n      tag_111\n      jump\t// in\n    tag_110:\n      mload(0x40)\n      dup1\n      swap2\n      sub\n      swap1\n      return\n        /* \"contracts/Marketplace2/Marketplace.sol\":17638:17775  function getMarketItem(uint256 marketItemId) public view returns (MarketItem memory) {... */\n    tag_20:\n      callvalue\n      dup1\n      iszero\n      tag_112\n      jumpi\n      0x00\n      dup1\n      revert\n    tag_112:\n      pop\n      tag_113\n      0x04\n      dup1\n      calldatasize\n      sub\n      dup2\n      add\n      swap1\n      tag_114\n      swap2\n      swap1\n      tag_49\n      jump\t// in\n    tag_114:\n      tag_115\n      jump\t// in\n    tag_113:\n      mload(0x40)\n      tag_116\n      swap2\n      swap1\n      tag_31\n      jump\t// in\n    tag_116:\n      mload(0x40)\n      dup1\n      swap2\n      sub\n      swap1\n      return\n        /* \"contracts/Marketplace2/Marketplace.sol\":2558:2756  function transferOwnership(address newOwner) public virtual onlyOwner {... */\n    tag_21:\n      callvalue\n      dup1\n      iszero\n      tag_117\n      jumpi\n      0x00\n      dup1\n      revert\n    tag_117:\n      pop\n      tag_118\n      0x04\n      dup1\n      calldatasize\n      sub\n      dup2\n      add\n      swap1\n      tag_119\n      swap2\n      swap1\n      tag_35\n      jump\t// in\n    tag_119:\n      tag_120\n      jump\t// in\n    tag_118:\n      stop\n        /* \"contracts/Marketplace2/Marketplace.sol\":16180:16203  IERC721 public mainNFTs */\n    tag_22:\n      callvalue\n      dup1\n      iszero\n      tag_121\n      jumpi\n      0x00\n      dup1\n      revert\n    tag_121:\n      pop\n      tag_122\n      tag_123\n      jump\t// in\n    tag_122:\n      mload(0x40)\n      tag_124\n      swap2\n      swap1\n      tag_125\n      jump\t// in\n    tag_124:\n      mload(0x40)\n      dup1\n      swap2\n      sub\n      swap1\n      return\n        /* \"contracts/Marketplace2/Marketplace.sol\":15928:15975  mapping (uint256 => MarketItem) public allItems */\n    tag_23:\n      callvalue\n      dup1\n      iszero\n      tag_126\n      jumpi\n      0x00\n      dup1\n      revert\n    tag_126:\n      pop\n      tag_127\n      0x04\n      dup1\n      calldatasize\n      sub\n      dup2\n      add\n      swap1\n      tag_128\n      swap2\n      swap1\n      tag_49\n      jump\t// in\n    tag_128:\n      tag_129\n      jump\t// in\n    tag_127:\n      mload(0x40)\n      tag_130\n      swap8\n      swap7\n      swap6\n      swap5\n      swap4\n      swap3\n      swap2\n      swap1\n      tag_66\n      jump\t// in\n    tag_130:\n      mload(0x40)\n      dup1\n      swap2\n      sub\n      swap1\n      return\n        /* \"contracts/Marketplace2/Marketplace.sol\":19554:19654  function fetchMarketItems() public view returns (MarketItem memory) {... */\n    tag_29:\n        /* \"contracts/Marketplace2/Marketplace.sol\":19603:19620  MarketItem memory */\n      tag_131\n      tag_132\n      jump\t// in\n    tag_131:\n        /* \"contracts/Marketplace2/Marketplace.sol\":19635:19649  allMarketItems */\n      0x01\n        /* \"contracts/Marketplace2/Marketplace.sol\":19628:19649  return allMarketItems */\n      mload(0x40)\n      dup1\n      0xe0\n      add\n      0x40\n      mstore\n      swap1\n      dup2\n      0x00\n      dup3\n      add\n      sload\n      dup2\n      mstore\n      0x20\n      add\n      0x01\n      dup3\n      add\n      0x00\n      swap1\n      sload\n      swap1\n      0x0100\n      exp\n      swap1\n      div\n      0xffffffffffffffffffffffffffffffffffffffff\n      and\n      0xffffffffffffffffffffffffffffffffffffffff\n      and\n      0xffffffffffffffffffffffffffffffffffffffff\n      and\n      dup2\n      mstore\n      0x20\n      add\n      0x02\n      dup3\n      add\n      sload\n      dup2\n      mstore\n      0x20\n      add\n      0x03\n      dup3\n      add\n      0x00\n      swap1\n      sload\n      swap1\n      0x0100\n      exp\n      swap1\n      div\n      0xffffffffffffffffffffffffffffffffffffffff\n      and\n      0xffffffffffffffffffffffffffffffffffffffff\n      and\n      0xffffffffffffffffffffffffffffffffffffffff\n      and\n      dup2\n      mstore\n      0x20\n      add\n      0x04\n      dup3\n      add\n      0x00\n      swap1\n      sload\n      swap1\n      0x0100\n      exp\n      swap1\n      div\n      0xffffffffffffffffffffffffffffffffffffffff\n      and\n      0xffffffffffffffffffffffffffffffffffffffff\n      and\n      0xffffffffffffffffffffffffffffffffffffffff\n      and\n      dup2\n      mstore\n      0x20\n      add\n      0x05\n      dup3\n      add\n      sload\n      dup2\n      mstore\n      0x20\n      add\n      0x06\n      dup3\n      add\n      0x00\n      swap1\n      sload\n      swap1\n      0x0100\n      exp\n      swap1\n      div\n      0xff\n      and\n      0x01\n      dup2\n      gt\n      iszero\n      tag_134\n      jumpi\n      tag_135\n      tag_136\n      jump\t// in\n    tag_135:\n    tag_134:\n      0x01\n      dup2\n      gt\n      iszero\n      tag_137\n      jumpi\n      tag_138\n      tag_136\n      jump\t// in\n    tag_138:\n    tag_137:\n      dup2\n      mstore\n      pop\n      pop\n      swap1\n      pop\n        /* \"contracts/Marketplace2/Marketplace.sol\":19554:19654  function fetchMarketItems() public view returns (MarketItem memory) {... */\n      swap1\n      jump\t// out\n        /* \"contracts/Marketplace2/Marketplace.sol\":17890:17992  function setMainNFT(address _address) external onlyOwner {... */\n    tag_36:\n        /* \"contracts/Marketplace2/Marketplace.sol\":1899:1911  _msgSender() */\n      tag_140\n        /* \"contracts/Marketplace2/Marketplace.sol\":1899:1909  _msgSender */\n      tag_141\n        /* \"contracts/Marketplace2/Marketplace.sol\":1899:1911  _msgSender() */\n      jump\t// in\n    tag_140:\n        /* \"contracts/Marketplace2/Marketplace.sol\":1888:1911  owner() == _msgSender() */\n      0xffffffffffffffffffffffffffffffffffffffff\n      and\n        /* \"contracts/Marketplace2/Marketplace.sol\":1888:1895  owner() */\n      tag_142\n        /* \"contracts/Marketplace2/Marketplace.sol\":1888:1893  owner */\n      tag_91\n        /* \"contracts/Marketplace2/Marketplace.sol\":1888:1895  owner() */\n      jump\t// in\n    tag_142:\n        /* \"contracts/Marketplace2/Marketplace.sol\":1888:1911  owner() == _msgSender() */\n      0xffffffffffffffffffffffffffffffffffffffff\n      and\n      eq\n        /* \"contracts/Marketplace2/Marketplace.sol\":1880:1948  require(owner() == _msgSender(), \"Ownable: caller is not the owner\") */\n      tag_143\n      jumpi\n      mload(0x40)\n      0x08c379a000000000000000000000000000000000000000000000000000000000\n      dup2\n      mstore\n      0x04\n      add\n      tag_144\n      swap1\n      tag_145\n      jump\t// in\n    tag_144:\n      mload(0x40)\n      dup1\n      swap2\n      sub\n      swap1\n      revert\n    tag_143:\n        /* \"contracts/Marketplace2/Marketplace.sol\":17976:17984  _address */\n      dup1\n        /* \"contracts/Marketplace2/Marketplace.sol\":17957:17965  mainNFTs */\n      0x0c\n      0x00\n        /* \"contracts/Marketplace2/Marketplace.sol\":17957:17985  mainNFTs = IERC721(_address) */\n      0x0100\n      exp\n      dup2\n      sload\n      dup2\n      0xffffffffffffffffffffffffffffffffffffffff\n      mul\n      not\n      and\n      swap1\n      dup4\n      0xffffffffffffffffffffffffffffffffffffffff\n      and\n      mul\n      or\n      swap1\n      sstore\n      pop\n        /* \"contracts/Marketplace2/Marketplace.sol\":17890:17992  function setMainNFT(address _address) external onlyOwner {... */\n      pop\n      jump\t// out\n        /* \"contracts/Marketplace2/Marketplace.sol\":19658:20361  function fetchMyNFTs() public view returns (MarketItem[] memory) {... */\n    tag_39:\n        /* \"contracts/Marketplace2/Marketplace.sol\":19702:19721  MarketItem[] memory */\n      0x60\n        /* \"contracts/Marketplace2/Marketplace.sol\":19729:19748  uint totalItemCount */\n      0x00\n        /* \"contracts/Marketplace2/Marketplace.sol\":19751:19769  _itemIds.current() */\n      tag_148\n        /* \"contracts/Marketplace2/Marketplace.sol\":19751:19759  _itemIds */\n      0x0e\n        /* \"contracts/Marketplace2/Marketplace.sol\":19751:19767  _itemIds.current */\n      tag_149\n        /* \"contracts/Marketplace2/Marketplace.sol\":19751:19769  _itemIds.current() */\n      jump\t// in\n    tag_148:\n        /* \"contracts/Marketplace2/Marketplace.sol\":19729:19769  uint totalItemCount = _itemIds.current() */\n      swap1\n      pop\n        /* \"contracts/Marketplace2/Marketplace.sol\":19775:19789  uint itemCount */\n      0x00\n        /* \"contracts/Marketplace2/Marketplace.sol\":19799:19816  uint currentIndex */\n      dup1\n        /* \"contracts/Marketplace2/Marketplace.sol\":19832:19838  uint i */\n      0x00\n        /* \"contracts/Marketplace2/Marketplace.sol\":19827:19963  for (uint i = 0; i < totalItemCount; i++) {... */\n    tag_150:\n        /* \"contracts/Marketplace2/Marketplace.sol\":19848:19862  totalItemCount */\n      dup4\n        /* \"contracts/Marketplace2/Marketplace.sol\":19844:19845  i */\n      dup2\n        /* \"contracts/Marketplace2/Marketplace.sol\":19844:19862  i < totalItemCount */\n      lt\n        /* \"contracts/Marketplace2/Marketplace.sol\":19827:19963  for (uint i = 0; i < totalItemCount; i++) {... */\n      iszero\n      tag_151\n      jumpi\n        /* \"contracts/Marketplace2/Marketplace.sol\":19912:19922  msg.sender */\n      caller\n        /* \"contracts/Marketplace2/Marketplace.sol\":19881:19922  idToMarketItem[i + 1].owner == msg.sender */\n      0xffffffffffffffffffffffffffffffffffffffff\n      and\n        /* \"contracts/Marketplace2/Marketplace.sol\":19881:19895  idToMarketItem */\n      0x10\n        /* \"contracts/Marketplace2/Marketplace.sol\":19881:19902  idToMarketItem[i + 1] */\n      0x00\n        /* \"contracts/Marketplace2/Marketplace.sol\":19900:19901  1 */\n      0x01\n        /* \"contracts/Marketplace2/Marketplace.sol\":19896:19897  i */\n      dup5\n        /* \"contracts/Marketplace2/Marketplace.sol\":19896:19901  i + 1 */\n      tag_153\n      swap2\n      swap1\n      tag_154\n      jump\t// in\n    tag_153:\n        /* \"contracts/Marketplace2/Marketplace.sol\":19881:19902  idToMarketItem[i + 1] */\n      dup2\n      mstore\n      0x20\n      add\n      swap1\n      dup2\n      mstore\n      0x20\n      add\n      0x00\n      keccak256\n        /* \"contracts/Marketplace2/Marketplace.sol\":19881:19908  idToMarketItem[i + 1].owner */\n      0x04\n      add\n      0x00\n      swap1\n      sload\n      swap1\n      0x0100\n      exp\n      swap1\n      div\n      0xffffffffffffffffffffffffffffffffffffffff\n      and\n        /* \"contracts/Marketplace2/Marketplace.sol\":19881:19922  idToMarketItem[i + 1].owner == msg.sender */\n      0xffffffffffffffffffffffffffffffffffffffff\n      and\n      sub\n        /* \"contracts/Marketplace2/Marketplace.sol\":19877:19957  if (idToMarketItem[i + 1].owner == msg.sender) {... */\n      tag_155\n      jumpi\n        /* \"contracts/Marketplace2/Marketplace.sol\":19947:19948  1 */\n      0x01\n        /* \"contracts/Marketplace2/Marketplace.sol\":19934:19948  itemCount += 1 */\n      dup4\n      tag_156\n      swap2\n      swap1\n      tag_154\n      jump\t// in\n    tag_156:\n      swap3\n      pop\n        /* \"contracts/Marketplace2/Marketplace.sol\":19877:19957  if (idToMarketItem[i + 1].owner == msg.sender) {... */\n    tag_155:\n        /* \"contracts/Marketplace2/Marketplace.sol\":19864:19867  i++ */\n      dup1\n      dup1\n      tag_157\n      swap1\n      tag_158\n      jump\t// in\n    tag_157:\n      swap2\n      pop\n      pop\n        /* \"contracts/Marketplace2/Marketplace.sol\":19827:19963  for (uint i = 0; i < totalItemCount; i++) {... */\n      jump(tag_150)\n    tag_151:\n      pop\n        /* \"contracts/Marketplace2/Marketplace.sol\":19969:19994  MarketItem[] memory items */\n      0x00\n        /* \"contracts/Marketplace2/Marketplace.sol\":20014:20023  itemCount */\n      dup3\n        /* \"contracts/Marketplace2/Marketplace.sol\":19997:20024  new MarketItem[](itemCount) */\n      0xffffffffffffffff\n      dup2\n      gt\n      iszero\n      tag_159\n      jumpi\n      tag_160\n      tag_161\n      jump\t// in\n    tag_160:\n    tag_159:\n      mload(0x40)\n      swap1\n      dup1\n      dup3\n      mstore\n      dup1\n      0x20\n      mul\n      0x20\n      add\n      dup3\n      add\n      0x40\n      mstore\n      dup1\n      iszero\n      tag_162\n      jumpi\n      dup2\n      0x20\n      add\n    tag_163:\n      tag_164\n      tag_132\n      jump\t// in\n    tag_164:\n      dup2\n      mstore\n      0x20\n      add\n      swap1\n      0x01\n      swap1\n      sub\n      swap1\n      dup2\n      tag_163\n      jumpi\n      swap1\n      pop\n    tag_162:\n      pop\n        /* \"contracts/Marketplace2/Marketplace.sol\":19969:20024  MarketItem[] memory items = new MarketItem[](itemCount) */\n      swap1\n      pop\n        /* \"contracts/Marketplace2/Marketplace.sol\":20035:20041  uint i */\n      0x00\n        /* \"contracts/Marketplace2/Marketplace.sol\":20030:20335  for (uint i = 0; i < totalItemCount; i++) {... */\n    tag_165:\n        /* \"contracts/Marketplace2/Marketplace.sol\":20051:20065  totalItemCount */\n      dup5\n        /* \"contracts/Marketplace2/Marketplace.sol\":20047:20048  i */\n      dup2\n        /* \"contracts/Marketplace2/Marketplace.sol\":20047:20065  i < totalItemCount */\n      lt\n        /* \"contracts/Marketplace2/Marketplace.sol\":20030:20335  for (uint i = 0; i < totalItemCount; i++) {... */\n      iszero\n      tag_166\n      jumpi\n        /* \"contracts/Marketplace2/Marketplace.sol\":20115:20125  msg.sender */\n      caller\n        /* \"contracts/Marketplace2/Marketplace.sol\":20084:20125  idToMarketItem[i + 1].owner == msg.sender */\n      0xffffffffffffffffffffffffffffffffffffffff\n      and\n        /* \"contracts/Marketplace2/Marketplace.sol\":20084:20098  idToMarketItem */\n      0x10\n        /* \"contracts/Marketplace2/Marketplace.sol\":20084:20105  idToMarketItem[i + 1] */\n      0x00\n        /* \"contracts/Marketplace2/Marketplace.sol\":20103:20104  1 */\n      0x01\n        /* \"contracts/Marketplace2/Marketplace.sol\":20099:20100  i */\n      dup5\n        /* \"contracts/Marketplace2/Marketplace.sol\":20099:20104  i + 1 */\n      tag_168\n      swap2\n      swap1\n      tag_154\n      jump\t// in\n    tag_168:\n        /* \"contracts/Marketplace2/Marketplace.sol\":20084:20105  idToMarketItem[i + 1] */\n      dup2\n      mstore\n      0x20\n      add\n      swap1\n      dup2\n      mstore\n      0x20\n      add\n      0x00\n      keccak256\n        /* \"contracts/Marketplace2/Marketplace.sol\":20084:20111  idToMarketItem[i + 1].owner */\n      0x04\n      add\n      0x00\n      swap1\n      sload\n      swap1\n      0x0100\n      exp\n      swap1\n      div\n      0xffffffffffffffffffffffffffffffffffffffff\n      and\n        /* \"contracts/Marketplace2/Marketplace.sol\":20084:20125  idToMarketItem[i + 1].owner == msg.sender */\n      0xffffffffffffffffffffffffffffffffffffffff\n      and\n      sub\n        /* \"contracts/Marketplace2/Marketplace.sol\":20080:20329  if (idToMarketItem[i + 1].owner == msg.sender) {... */\n      tag_169\n      jumpi\n        /* \"contracts/Marketplace2/Marketplace.sol\":20137:20151  uint currentId */\n      0x00\n        /* \"contracts/Marketplace2/Marketplace.sol\":20154:20168  idToMarketItem */\n      0x10\n        /* \"contracts/Marketplace2/Marketplace.sol\":20154:20175  idToMarketItem[i + 1] */\n      0x00\n        /* \"contracts/Marketplace2/Marketplace.sol\":20173:20174  1 */\n      0x01\n        /* \"contracts/Marketplace2/Marketplace.sol\":20169:20170  i */\n      dup5\n        /* \"contracts/Marketplace2/Marketplace.sol\":20169:20174  i + 1 */\n      tag_170\n      swap2\n      swap1\n      tag_154\n      jump\t// in\n    tag_170:\n        /* \"contracts/Marketplace2/Marketplace.sol\":20154:20175  idToMarketItem[i + 1] */\n      dup2\n      mstore\n      0x20\n      add\n      swap1\n      dup2\n      mstore\n      0x20\n      add\n      0x00\n      keccak256\n        /* \"contracts/Marketplace2/Marketplace.sol\":20154:20182  idToMarketItem[i + 1].itemId */\n      0x00\n      add\n      sload\n        /* \"contracts/Marketplace2/Marketplace.sol\":20137:20182  uint currentId = idToMarketItem[i + 1].itemId */\n      swap1\n      pop\n        /* \"contracts/Marketplace2/Marketplace.sol\":20192:20222  MarketItem storage currentItem */\n      0x00\n        /* \"contracts/Marketplace2/Marketplace.sol\":20225:20239  idToMarketItem */\n      0x10\n        /* \"contracts/Marketplace2/Marketplace.sol\":20225:20250  idToMarketItem[currentId] */\n      0x00\n        /* \"contracts/Marketplace2/Marketplace.sol\":20240:20249  currentId */\n      dup4\n        /* \"contracts/Marketplace2/Marketplace.sol\":20225:20250  idToMarketItem[currentId] */\n      dup2\n      mstore\n      0x20\n      add\n      swap1\n      dup2\n      mstore\n      0x20\n      add\n      0x00\n      keccak256\n        /* \"contracts/Marketplace2/Marketplace.sol\":20192:20250  MarketItem storage currentItem = idToMarketItem[currentId] */\n      swap1\n      pop\n        /* \"contracts/Marketplace2/Marketplace.sol\":20282:20293  currentItem */\n      dup1\n        /* \"contracts/Marketplace2/Marketplace.sol\":20260:20293  items[currentIndex] = currentItem */\n      mload(0x40)\n      dup1\n      0xe0\n      add\n      0x40\n      mstore\n      swap1\n      dup2\n      0x00\n      dup3\n      add\n      sload\n      dup2\n      mstore\n      0x20\n      add\n      0x01\n      dup3\n      add\n      0x00\n      swap1\n      sload\n      swap1\n      0x0100\n      exp\n      swap1\n      div\n      0xffffffffffffffffffffffffffffffffffffffff\n      and\n      0xffffffffffffffffffffffffffffffffffffffff\n      and\n      0xffffffffffffffffffffffffffffffffffffffff\n      and\n      dup2\n      mstore\n      0x20\n      add\n      0x02\n      dup3\n      add\n      sload\n      dup2\n      mstore\n      0x20\n      add\n      0x03\n      dup3\n      add\n      0x00\n      swap1\n      sload\n      swap1\n      0x0100\n      exp\n      swap1\n      div\n      0xffffffffffffffffffffffffffffffffffffffff\n      and\n      0xffffffffffffffffffffffffffffffffffffffff\n      and\n      0xffffffffffffffffffffffffffffffffffffffff\n      and\n      dup2\n      mstore\n      0x20\n      add\n      0x04\n      dup3\n      add\n      0x00\n      swap1\n      sload\n      swap1\n      0x0100\n      exp\n      swap1\n      div\n      0xffffffffffffffffffffffffffffffffffffffff\n      and\n      0xffffffffffffffffffffffffffffffffffffffff\n      and\n      0xffffffffffffffffffffffffffffffffffffffff\n      and\n      dup2\n      mstore\n      0x20\n      add\n      0x05\n      dup3\n      add\n      sload\n      dup2\n      mstore\n      0x20\n      add\n      0x06\n      dup3\n      add\n      0x00\n      swap1\n      sload\n      swap1\n      0x0100\n      exp\n      swap1\n      div\n      0xff\n      and\n      0x01\n      dup2\n      gt\n      iszero\n      tag_171\n      jumpi\n      tag_172\n      tag_136\n      jump\t// in\n    tag_172:\n    tag_171:\n      0x01\n      dup2\n      gt\n      iszero\n      tag_173\n      jumpi\n      tag_174\n      tag_136\n      jump\t// in\n    tag_174:\n    tag_173:\n      dup2\n      mstore\n      pop\n      pop\n        /* \"contracts/Marketplace2/Marketplace.sol\":20260:20265  items */\n      dup5\n        /* \"contracts/Marketplace2/Marketplace.sol\":20266:20278  currentIndex */\n      dup7\n        /* \"contracts/Marketplace2/Marketplace.sol\":20260:20279  items[currentIndex] */\n      dup2\n      mload\n      dup2\n      lt\n      tag_175\n      jumpi\n      tag_176\n      tag_177\n      jump\t// in\n    tag_176:\n    tag_175:\n      0x20\n      mul\n      0x20\n      add\n      add\n        /* \"contracts/Marketplace2/Marketplace.sol\":20260:20293  items[currentIndex] = currentItem */\n      dup2\n      swap1\n      mstore\n      pop\n        /* \"contracts/Marketplace2/Marketplace.sol\":20319:20320  1 */\n      0x01\n        /* \"contracts/Marketplace2/Marketplace.sol\":20303:20320  currentIndex += 1 */\n      dup6\n      tag_178\n      swap2\n      swap1\n      tag_154\n      jump\t// in\n    tag_178:\n      swap5\n      pop\n        /* \"contracts/Marketplace2/Marketplace.sol\":20127:20329  {... */\n      pop\n      pop\n        /* \"contracts/Marketplace2/Marketplace.sol\":20080:20329  if (idToMarketItem[i + 1].owner == msg.sender) {... */\n    tag_169:\n        /* \"contracts/Marketplace2/Marketplace.sol\":20067:20070  i++ */\n      dup1\n      dup1\n      tag_179\n      swap1\n      tag_158\n      jump\t// in\n    tag_179:\n      swap2\n      pop\n      pop\n        /* \"contracts/Marketplace2/Marketplace.sol\":20030:20335  for (uint i = 0; i < totalItemCount; i++) {... */\n      jump(tag_165)\n    tag_166:\n      pop\n        /* \"contracts/Marketplace2/Marketplace.sol\":20351:20356  items */\n      dup1\n        /* \"contracts/Marketplace2/Marketplace.sol\":20344:20356  return items */\n      swap5\n      pop\n      pop\n      pop\n      pop\n      pop\n        /* \"contracts/Marketplace2/Marketplace.sol\":19658:20361  function fetchMyNFTs() public view returns (MarketItem[] memory) {... */\n      swap1\n      jump\t// out\n        /* \"contracts/Marketplace2/Marketplace.sol\":17781:17885  function setMainToken(address _address) external onlyOwner {... */\n    tag_45:\n        /* \"contracts/Marketplace2/Marketplace.sol\":1899:1911  _msgSender() */\n      tag_181\n        /* \"contracts/Marketplace2/Marketplace.sol\":1899:1909  _msgSender */\n      tag_141\n        /* \"contracts/Marketplace2/Marketplace.sol\":1899:1911  _msgSender() */\n      jump\t// in\n    tag_181:\n        /* \"contracts/Marketplace2/Marketplace.sol\":1888:1911  owner() == _msgSender() */\n      0xffffffffffffffffffffffffffffffffffffffff\n      and\n        /* \"contracts/Marketplace2/Marketplace.sol\":1888:1895  owner() */\n      tag_182\n        /* \"contracts/Marketplace2/Marketplace.sol\":1888:1893  owner */\n      tag_91\n        /* \"contracts/Marketplace2/Marketplace.sol\":1888:1895  owner() */\n      jump\t// in\n    tag_182:\n        /* \"contracts/Marketplace2/Marketplace.sol\":1888:1911  owner() == _msgSender() */\n      0xffffffffffffffffffffffffffffffffffffffff\n      and\n      eq\n        /* \"contracts/Marketplace2/Marketplace.sol\":1880:1948  require(owner() == _msgSender(), \"Ownable: caller is not the owner\") */\n      tag_183\n      jumpi\n      mload(0x40)\n      0x08c379a000000000000000000000000000000000000000000000000000000000\n      dup2\n      mstore\n      0x04\n      add\n      tag_184\n      swap1\n      tag_145\n      jump\t// in\n    tag_184:\n      mload(0x40)\n      dup1\n      swap2\n      sub\n      swap1\n      revert\n    tag_183:\n        /* \"contracts/Marketplace2/Marketplace.sol\":17869:17877  _address */\n      dup1\n        /* \"contracts/Marketplace2/Marketplace.sol\":17850:17859  mainToken */\n      0x0a\n      0x00\n        /* \"contracts/Marketplace2/Marketplace.sol\":17850:17878  mainToken = IERC20(_address) */\n      0x0100\n      exp\n      dup2\n      sload\n      dup2\n      0xffffffffffffffffffffffffffffffffffffffff\n      mul\n      not\n      and\n      swap1\n      dup4\n      0xffffffffffffffffffffffffffffffffffffffff\n      and\n      mul\n      or\n      swap1\n      sstore\n      pop\n        /* \"contracts/Marketplace2/Marketplace.sol\":17781:17885  function setMainToken(address _address) external onlyOwner {... */\n      pop\n      jump\t// out\n        /* \"contracts/Marketplace2/Marketplace.sol\":19397:19550  function fetchMarketItem(uint itemId) public view returns (MarketItem memory) {... */\n    tag_50:\n        /* \"contracts/Marketplace2/Marketplace.sol\":19456:19473  MarketItem memory */\n      tag_186\n      tag_132\n      jump\t// in\n    tag_186:\n        /* \"contracts/Marketplace2/Marketplace.sol\":19481:19503  MarketItem memory item */\n      0x00\n        /* \"contracts/Marketplace2/Marketplace.sol\":19506:19520  idToMarketItem */\n      0x10\n        /* \"contracts/Marketplace2/Marketplace.sol\":19506:19528  idToMarketItem[itemId] */\n      0x00\n        /* \"contracts/Marketplace2/Marketplace.sol\":19521:19527  itemId */\n      dup5\n        /* \"contracts/Marketplace2/Marketplace.sol\":19506:19528  idToMarketItem[itemId] */\n      dup2\n      mstore\n      0x20\n      add\n      swap1\n      dup2\n      mstore\n      0x20\n      add\n      0x00\n      keccak256\n        /* \"contracts/Marketplace2/Marketplace.sol\":19481:19528  MarketItem memory item = idToMarketItem[itemId] */\n      mload(0x40)\n      dup1\n      0xe0\n      add\n      0x40\n      mstore\n      swap1\n      dup2\n      0x00\n      dup3\n      add\n      sload\n      dup2\n      mstore\n      0x20\n      add\n      0x01\n      dup3\n      add\n      0x00\n      swap1\n      sload\n      swap1\n      0x0100\n      exp\n      swap1\n      div\n      0xffffffffffffffffffffffffffffffffffffffff\n      and\n      0xffffffffffffffffffffffffffffffffffffffff\n      and\n      0xffffffffffffffffffffffffffffffffffffffff\n      and\n      dup2\n      mstore\n      0x20\n      add\n      0x02\n      dup3\n      add\n      sload\n      dup2\n      mstore\n      0x20\n      add\n      0x03\n      dup3\n      add\n      0x00\n      swap1\n      sload\n      swap1\n      0x0100\n      exp\n      swap1\n      div\n      0xffffffffffffffffffffffffffffffffffffffff\n      and\n      0xffffffffffffffffffffffffffffffffffffffff\n      and\n      0xffffffffffffffffffffffffffffffffffffffff\n      and\n      dup2\n      mstore\n      0x20\n      add\n      0x04\n      dup3\n      add\n      0x00\n      swap1\n      sload\n      swap1\n      0x0100\n      exp\n      swap1\n      div\n      0xffffffffffffffffffffffffffffffffffffffff\n      and\n      0xffffffffffffffffffffffffffffffffffffffff\n      and\n      0xffffffffffffffffffffffffffffffffffffffff\n      and\n      dup2\n      mstore\n      0x20\n      add\n      0x05\n      dup3\n      add\n      sload\n      dup2\n      mstore\n      0x20\n      add\n      0x06\n      dup3\n      add\n      0x00\n      swap1\n      sload\n      swap1\n      0x0100\n      exp\n      swap1\n      div\n      0xff\n      and\n      0x01\n      dup2\n      gt\n      iszero\n      tag_188\n      jumpi\n      tag_189\n      tag_136\n      jump\t// in\n    tag_189:\n    tag_188:\n      0x01\n      dup2\n      gt\n      iszero\n      tag_190\n      jumpi\n      tag_191\n      tag_136\n      jump\t// in\n    tag_191:\n    tag_190:\n      dup2\n      mstore\n      pop\n      pop\n      swap1\n      pop\n        /* \"contracts/Marketplace2/Marketplace.sol\":19541:19545  item */\n      dup1\n        /* \"contracts/Marketplace2/Marketplace.sol\":19534:19545  return item */\n      swap2\n      pop\n      pop\n        /* \"contracts/Marketplace2/Marketplace.sol\":19397:19550  function fetchMarketItem(uint itemId) public view returns (MarketItem memory) {... */\n      swap2\n      swap1\n      pop\n      jump\t// out\n        /* \"contracts/Marketplace2/Marketplace.sol\":15861:15921  bytes4 public constant ERC721_Interface = bytes4(0x80ac58cd) */\n    tag_54:\n        /* \"contracts/Marketplace2/Marketplace.sol\":15910:15920  0x80ac58cd */\n      0x80ac58cd\n        /* \"contracts/Marketplace2/Marketplace.sol\":15903:15921  bytes4(0x80ac58cd) */\n      0xe0\n      shl\n        /* \"contracts/Marketplace2/Marketplace.sol\":15861:15921  bytes4 public constant ERC721_Interface = bytes4(0x80ac58cd) */\n      dup2\n      jump\t// out\n        /* \"contracts/Marketplace2/Marketplace.sol\":16122:16145  IERC20 public mainToken */\n    tag_59:\n      0x0a\n      0x00\n      swap1\n      sload\n      swap1\n      0x0100\n      exp\n      swap1\n      div\n      0xffffffffffffffffffffffffffffffffffffffff\n      and\n      dup2\n      jump\t// out\n        /* \"contracts/Marketplace2/Marketplace.sol\":15822:15854  MarketItem public allMarketItems */\n    tag_64:\n      0x01\n      dup1\n      0x00\n      add\n      sload\n      swap1\n      dup1\n      0x01\n      add\n      0x00\n      swap1\n      sload\n      swap1\n      0x0100\n      exp\n      swap1\n      div\n      0xffffffffffffffffffffffffffffffffffffffff\n      and\n      swap1\n      dup1\n      0x02\n      add\n      sload\n      swap1\n      dup1\n      0x03\n      add\n      0x00\n      swap1\n      sload\n      swap1\n      0x0100\n      exp\n      swap1\n      div\n      0xffffffffffffffffffffffffffffffffffffffff\n      and\n      swap1\n      dup1\n      0x04\n      add\n      0x00\n      swap1\n      sload\n      swap1\n      0x0100\n      exp\n      swap1\n      div\n      0xffffffffffffffffffffffffffffffffffffffff\n      and\n      swap1\n      dup1\n      0x05\n      add\n      sload\n      swap1\n      dup1\n      0x06\n      add\n      0x00\n      swap1\n      sload\n      swap1\n      0x0100\n      exp\n      swap1\n      div\n      0xff\n      and\n      swap1\n      pop\n      dup8\n      jump\t// out\n        /* \"contracts/Marketplace2/Marketplace.sol\":18103:18754  function createMarketItem(... */\n    tag_70:\n        /* \"contracts/Marketplace2/Marketplace.sol\":14165:14166  2 */\n      0x02\n        /* \"contracts/Marketplace2/Marketplace.sol\":14746:14753  _status */\n      sload(0x00)\n        /* \"contracts/Marketplace2/Marketplace.sol\":14746:14765  _status != _ENTERED */\n      sub\n        /* \"contracts/Marketplace2/Marketplace.sol\":14738:14801  require(_status != _ENTERED, \"ReentrancyGuard: reentrant call\") */\n      tag_193\n      jumpi\n      mload(0x40)\n      0x08c379a000000000000000000000000000000000000000000000000000000000\n      dup2\n      mstore\n      0x04\n      add\n      tag_194\n      swap1\n      tag_195\n      jump\t// in\n    tag_194:\n      mload(0x40)\n      dup1\n      swap2\n      sub\n      swap1\n      revert\n    tag_193:\n        /* \"contracts/Marketplace2/Marketplace.sol\":14165:14166  2 */\n      0x02\n        /* \"contracts/Marketplace2/Marketplace.sol\":14876:14883  _status */\n      0x00\n        /* \"contracts/Marketplace2/Marketplace.sol\":14876:14894  _status = _ENTERED */\n      dup2\n      swap1\n      sstore\n      pop\n        /* \"contracts/Marketplace2/Marketplace.sol\":18258:18259  0 */\n      0x00\n        /* \"contracts/Marketplace2/Marketplace.sol\":18250:18255  price */\n      dup2\n        /* \"contracts/Marketplace2/Marketplace.sol\":18250:18259  price > 0 */\n      gt\n        /* \"contracts/Marketplace2/Marketplace.sol\":18242:18292  require(price > 0, \"Price must be at least 1 wei\") */\n      tag_197\n      jumpi\n      mload(0x40)\n      0x08c379a000000000000000000000000000000000000000000000000000000000\n      dup2\n      mstore\n      0x04\n      add\n      tag_198\n      swap1\n      tag_199\n      jump\t// in\n    tag_198:\n      mload(0x40)\n      dup1\n      swap2\n      sub\n      swap1\n      revert\n    tag_197:\n        /* \"contracts/Marketplace2/Marketplace.sol\":18301:18321  _itemIds.increment() */\n      tag_200\n        /* \"contracts/Marketplace2/Marketplace.sol\":18301:18309  _itemIds */\n      0x0e\n        /* \"contracts/Marketplace2/Marketplace.sol\":18301:18319  _itemIds.increment */\n      tag_201\n        /* \"contracts/Marketplace2/Marketplace.sol\":18301:18321  _itemIds.increment() */\n      jump\t// in\n    tag_200:\n        /* \"contracts/Marketplace2/Marketplace.sol\":18327:18341  uint256 itemId */\n      0x00\n        /* \"contracts/Marketplace2/Marketplace.sol\":18344:18362  _itemIds.current() */\n      tag_202\n        /* \"contracts/Marketplace2/Marketplace.sol\":18344:18352  _itemIds */\n      0x0e\n        /* \"contracts/Marketplace2/Marketplace.sol\":18344:18360  _itemIds.current */\n      tag_149\n        /* \"contracts/Marketplace2/Marketplace.sol\":18344:18362  _itemIds.current() */\n      jump\t// in\n    tag_202:\n        /* \"contracts/Marketplace2/Marketplace.sol\":18327:18362  uint256 itemId = _itemIds.current() */\n      swap1\n      pop\n        /* \"contracts/Marketplace2/Marketplace.sol\":18399:18553  MarketItem(... */\n      mload(0x40)\n      dup1\n      0xe0\n      add\n      0x40\n      mstore\n      dup1\n        /* \"contracts/Marketplace2/Marketplace.sol\":18417:18423  itemId */\n      dup3\n        /* \"contracts/Marketplace2/Marketplace.sol\":18399:18553  MarketItem(... */\n      dup2\n      mstore\n      0x20\n      add\n        /* \"contracts/Marketplace2/Marketplace.sol\":18431:18442  nftContract */\n      dup6\n        /* \"contracts/Marketplace2/Marketplace.sol\":18399:18553  MarketItem(... */\n      0xffffffffffffffffffffffffffffffffffffffff\n      and\n      dup2\n      mstore\n      0x20\n      add\n        /* \"contracts/Marketplace2/Marketplace.sol\":18450:18457  tokenId */\n      dup5\n        /* \"contracts/Marketplace2/Marketplace.sol\":18399:18553  MarketItem(... */\n      dup2\n      mstore\n      0x20\n      add\n        /* \"contracts/Marketplace2/Marketplace.sol\":18473:18483  msg.sender */\n      caller\n        /* \"contracts/Marketplace2/Marketplace.sol\":18399:18553  MarketItem(... */\n      0xffffffffffffffffffffffffffffffffffffffff\n      and\n      dup2\n      mstore\n      0x20\n      add\n        /* \"contracts/Marketplace2/Marketplace.sol\":18508:18509  0 */\n      0x00\n        /* \"contracts/Marketplace2/Marketplace.sol\":18399:18553  MarketItem(... */\n      0xffffffffffffffffffffffffffffffffffffffff\n      and\n      dup2\n      mstore\n      0x20\n      add\n        /* \"contracts/Marketplace2/Marketplace.sol\":18519:18524  price */\n      dup4\n        /* \"contracts/Marketplace2/Marketplace.sol\":18399:18553  MarketItem(... */\n      dup2\n      mstore\n      0x20\n      add\n        /* \"contracts/Marketplace2/Marketplace.sol\":18532:18547  ItemStatus.LIST */\n      0x01\n        /* \"contracts/Marketplace2/Marketplace.sol\":18399:18553  MarketItem(... */\n      dup1\n      dup2\n      gt\n      iszero\n      tag_203\n      jumpi\n      tag_204\n      tag_136\n      jump\t// in\n    tag_204:\n    tag_203:\n      dup2\n      mstore\n      pop\n        /* \"contracts/Marketplace2/Marketplace.sol\":18373:18387  idToMarketItem */\n      0x10\n        /* \"contracts/Marketplace2/Marketplace.sol\":18373:18395  idToMarketItem[itemId] */\n      0x00\n        /* \"contracts/Marketplace2/Marketplace.sol\":18388:18394  itemId */\n      dup4\n        /* \"contracts/Marketplace2/Marketplace.sol\":18373:18395  idToMarketItem[itemId] */\n      dup2\n      mstore\n      0x20\n      add\n      swap1\n      dup2\n      mstore\n      0x20\n      add\n      0x00\n      keccak256\n        /* \"contracts/Marketplace2/Marketplace.sol\":18373:18553  idToMarketItem[itemId] =  MarketItem(... */\n      0x00\n      dup3\n      add\n      mload\n      dup2\n      0x00\n      add\n      sstore\n      0x20\n      dup3\n      add\n      mload\n      dup2\n      0x01\n      add\n      exp(0x0100, 0x00)\n      dup2\n      sload\n      dup2\n      0xffffffffffffffffffffffffffffffffffffffff\n      mul\n      not\n      and\n      swap1\n      dup4\n      0xffffffffffffffffffffffffffffffffffffffff\n      and\n      mul\n      or\n      swap1\n      sstore\n      pop\n      0x40\n      dup3\n      add\n      mload\n      dup2\n      0x02\n      add\n      sstore\n      0x60\n      dup3\n      add\n      mload\n      dup2\n      0x03\n      add\n      exp(0x0100, 0x00)\n      dup2\n      sload\n      dup2\n      0xffffffffffffffffffffffffffffffffffffffff\n      mul\n      not\n      and\n      swap1\n      dup4\n      0xffffffffffffffffffffffffffffffffffffffff\n      and\n      mul\n      or\n      swap1\n      sstore\n      pop\n      0x80\n      dup3\n      add\n      mload\n      dup2\n      0x04\n      add\n      exp(0x0100, 0x00)\n      dup2\n      sload\n      dup2\n      0xffffffffffffffffffffffffffffffffffffffff\n      mul\n      not\n      and\n      swap1\n      dup4\n      0xffffffffffffffffffffffffffffffffffffffff\n      and\n      mul\n      or\n      swap1\n      sstore\n      pop\n      0xa0\n      dup3\n      add\n      mload\n      dup2\n      0x05\n      add\n      sstore\n      0xc0\n      dup3\n      add\n      mload\n      dup2\n      0x06\n      add\n      exp(0x0100, 0x00)\n      dup2\n      sload\n      dup2\n      0xff\n      mul\n      not\n      and\n      swap1\n      dup4\n      0x01\n      dup2\n      gt\n      iszero\n      tag_205\n      jumpi\n      tag_206\n      tag_136\n      jump\t// in\n    tag_206:\n    tag_205:\n      mul\n      or\n      swap1\n      sstore\n      pop\n      swap1\n      pop\n      pop\n        /* \"contracts/Marketplace2/Marketplace.sol\":18560:18568  mainNFTs */\n      0x0c\n      0x00\n      swap1\n      sload\n      swap1\n      0x0100\n      exp\n      swap1\n      div\n      0xffffffffffffffffffffffffffffffffffffffff\n      and\n        /* \"contracts/Marketplace2/Marketplace.sol\":18560:18581  mainNFTs.transferFrom */\n      0xffffffffffffffffffffffffffffffffffffffff\n      and\n      0x23b872dd\n        /* \"contracts/Marketplace2/Marketplace.sol\":18582:18592  msg.sender */\n      caller\n        /* \"contracts/Marketplace2/Marketplace.sol\":18602:18606  this */\n      address\n        /* \"contracts/Marketplace2/Marketplace.sol\":18609:18616  tokenId */\n      dup7\n        /* \"contracts/Marketplace2/Marketplace.sol\":18560:18617  mainNFTs.transferFrom(msg.sender, address(this), tokenId) */\n      mload(0x40)\n      dup5\n      0xffffffff\n      and\n      0xe0\n      shl\n      dup2\n      mstore\n      0x04\n      add\n      tag_207\n      swap4\n      swap3\n      swap2\n      swap1\n      tag_208\n      jump\t// in\n    tag_207:\n      0x00\n      mload(0x40)\n      dup1\n      dup4\n      sub\n      dup2\n      0x00\n      dup8\n      dup1\n      extcodesize\n      iszero\n      dup1\n      iszero\n      tag_209\n      jumpi\n      0x00\n      dup1\n      revert\n    tag_209:\n      pop\n      gas\n      call\n      iszero\n      dup1\n      iszero\n      tag_211\n      jumpi\n      returndatasize\n      0x00\n      dup1\n      returndatacopy\n      revert(0x00, returndatasize)\n    tag_211:\n      pop\n      pop\n      pop\n      pop\n        /* \"contracts/Marketplace2/Marketplace.sol\":18687:18694  tokenId */\n      dup3\n        /* \"contracts/Marketplace2/Marketplace.sol\":18668:18679  nftContract */\n      dup5\n        /* \"contracts/Marketplace2/Marketplace.sol\":18629:18749  MarketItemCreated(... */\n      0xffffffffffffffffffffffffffffffffffffffff\n      and\n        /* \"contracts/Marketplace2/Marketplace.sol\":18654:18660  itemId */\n      dup3\n        /* \"contracts/Marketplace2/Marketplace.sol\":18629:18749  MarketItemCreated(... */\n      0x2ad024d53a0dc50c130967f8d4941927ee087ea31394cebb2b9599d3706c9c00\n        /* \"contracts/Marketplace2/Marketplace.sol\":18702:18712  msg.sender */\n      caller\n        /* \"contracts/Marketplace2/Marketplace.sol\":18728:18729  0 */\n      0x00\n        /* \"contracts/Marketplace2/Marketplace.sol\":18738:18743  price */\n      dup8\n        /* \"contracts/Marketplace2/Marketplace.sol\":18629:18749  MarketItemCreated(... */\n      mload(0x40)\n      tag_212\n      swap4\n      swap3\n      swap2\n      swap1\n      tag_208\n      jump\t// in\n    tag_212:\n      mload(0x40)\n      dup1\n      swap2\n      sub\n      swap1\n      log4\n        /* \"contracts/Marketplace2/Marketplace.sol\":18226:18754  {... */\n      pop\n        /* \"contracts/Marketplace2/Marketplace.sol\":14122:14123  1 */\n      0x01\n        /* \"contracts/Marketplace2/Marketplace.sol\":15049:15056  _status */\n      0x00\n        /* \"contracts/Marketplace2/Marketplace.sol\":15049:15071  _status = _NOT_ENTERED */\n      dup2\n      swap1\n      sstore\n      pop\n        /* \"contracts/Marketplace2/Marketplace.sol\":18103:18754  function createMarketItem(... */\n      pop\n      pop\n      pop\n      jump\t// out\n        /* \"contracts/Marketplace2/Marketplace.sol\":17997:18099  function setFactory(address _address) external onlyOwner {... */\n    tag_74:\n        /* \"contracts/Marketplace2/Marketplace.sol\":1899:1911  _msgSender() */\n      tag_214\n        /* \"contracts/Marketplace2/Marketplace.sol\":1899:1909  _msgSender */\n      tag_141\n        /* \"contracts/Marketplace2/Marketplace.sol\":1899:1911  _msgSender() */\n      jump\t// in\n    tag_214:\n        /* \"contracts/Marketplace2/Marketplace.sol\":1888:1911  owner() == _msgSender() */\n      0xffffffffffffffffffffffffffffffffffffffff\n      and\n        /* \"contracts/Marketplace2/Marketplace.sol\":1888:1895  owner() */\n      tag_215\n        /* \"contracts/Marketplace2/Marketplace.sol\":1888:1893  owner */\n      tag_91\n        /* \"contracts/Marketplace2/Marketplace.sol\":1888:1895  owner() */\n      jump\t// in\n    tag_215:\n        /* \"contracts/Marketplace2/Marketplace.sol\":1888:1911  owner() == _msgSender() */\n      0xffffffffffffffffffffffffffffffffffffffff\n      and\n      eq\n        /* \"contracts/Marketplace2/Marketplace.sol\":1880:1948  require(owner() == _msgSender(), \"Ownable: caller is not the owner\") */\n      tag_216\n      jumpi\n      mload(0x40)\n      0x08c379a000000000000000000000000000000000000000000000000000000000\n      dup2\n      mstore\n      0x04\n      add\n      tag_217\n      swap1\n      tag_145\n      jump\t// in\n    tag_217:\n      mload(0x40)\n      dup1\n      swap2\n      sub\n      swap1\n      revert\n    tag_216:\n        /* \"contracts/Marketplace2/Marketplace.sol\":18083:18091  _address */\n      dup1\n        /* \"contracts/Marketplace2/Marketplace.sol\":18064:18071  factory */\n      0x0b\n      0x00\n        /* \"contracts/Marketplace2/Marketplace.sol\":18064:18092  factory = IFactory(_address) */\n      0x0100\n      exp\n      dup2\n      sload\n      dup2\n      0xffffffffffffffffffffffffffffffffffffffff\n      mul\n      not\n      and\n      swap1\n      dup4\n      0xffffffffffffffffffffffffffffffffffffffff\n      and\n      mul\n      or\n      swap1\n      sstore\n      pop\n        /* \"contracts/Marketplace2/Marketplace.sol\":17997:18099  function setFactory(address _address) external onlyOwner {... */\n      pop\n      jump\t// out\n        /* \"contracts/Marketplace2/Marketplace.sol\":16052:16115  mapping(address => mapping(uint256 => MarketItem)) public items */\n    tag_79:\n      mstore(0x20, 0x09)\n      dup2\n      0x00\n      mstore\n      mstore(0x20, keccak256(0x00, 0x40))\n      dup1\n      0x00\n      mstore\n      keccak256(0x00, 0x40)\n      0x00\n      swap2\n      pop\n      swap2\n      pop\n      pop\n      dup1\n      0x00\n      add\n      sload\n      swap1\n      dup1\n      0x01\n      add\n      0x00\n      swap1\n      sload\n      swap1\n      0x0100\n      exp\n      swap1\n      div\n      0xffffffffffffffffffffffffffffffffffffffff\n      and\n      swap1\n      dup1\n      0x02\n      add\n      sload\n      swap1\n      dup1\n      0x03\n      add\n      0x00\n      swap1\n      sload\n      swap1\n      0x0100\n      exp\n      swap1\n      div\n      0xffffffffffffffffffffffffffffffffffffffff\n      and\n      swap1\n      dup1\n      0x04\n      add\n      0x00\n      swap1\n      sload\n      swap1\n      0x0100\n      exp\n      swap1\n      div\n      0xffffffffffffffffffffffffffffffffffffffff\n      and\n      swap1\n      dup1\n      0x05\n      add\n      sload\n      swap1\n      dup1\n      0x06\n      add\n      0x00\n      swap1\n      sload\n      swap1\n      0x0100\n      exp\n      swap1\n      div\n      0xff\n      and\n      swap1\n      pop\n      dup8\n      jump\t// out\n        /* \"contracts/Marketplace2/Marketplace.sol\":2308:2409  function renounceOwnership() public virtual onlyOwner {... */\n    tag_83:\n        /* \"contracts/Marketplace2/Marketplace.sol\":1899:1911  _msgSender() */\n      tag_220\n        /* \"contracts/Marketplace2/Marketplace.sol\":1899:1909  _msgSender */\n      tag_141\n        /* \"contracts/Marketplace2/Marketplace.sol\":1899:1911  _msgSender() */\n      jump\t// in\n    tag_220:\n        /* \"contracts/Marketplace2/Marketplace.sol\":1888:1911  owner() == _msgSender() */\n      0xffffffffffffffffffffffffffffffffffffffff\n      and\n        /* \"contracts/Marketplace2/Marketplace.sol\":1888:1895  owner() */\n      tag_221\n        /* \"contracts/Marketplace2/Marketplace.sol\":1888:1893  owner */\n      tag_91\n        /* \"contracts/Marketplace2/Marketplace.sol\":1888:1895  owner() */\n      jump\t// in\n    tag_221:\n        /* \"contracts/Marketplace2/Marketplace.sol\":1888:1911  owner() == _msgSender() */\n      0xffffffffffffffffffffffffffffffffffffffff\n      and\n      eq\n        /* \"contracts/Marketplace2/Marketplace.sol\":1880:1948  require(owner() == _msgSender(), \"Ownable: caller is not the owner\") */\n      tag_222\n      jumpi\n      mload(0x40)\n      0x08c379a000000000000000000000000000000000000000000000000000000000\n      dup2\n      mstore\n      0x04\n      add\n      tag_223\n      swap1\n      tag_145\n      jump\t// in\n    tag_223:\n      mload(0x40)\n      dup1\n      swap2\n      sub\n      swap1\n      revert\n    tag_222:\n        /* \"contracts/Marketplace2/Marketplace.sol\":2372:2402  _transferOwnership(address(0)) */\n      tag_225\n        /* \"contracts/Marketplace2/Marketplace.sol\":2399:2400  0 */\n      0x00\n        /* \"contracts/Marketplace2/Marketplace.sol\":2372:2390  _transferOwnership */\n      tag_226\n        /* \"contracts/Marketplace2/Marketplace.sol\":2372:2402  _transferOwnership(address(0)) */\n      jump\t// in\n    tag_225:\n        /* \"contracts/Marketplace2/Marketplace.sol\":2308:2409  function renounceOwnership() public virtual onlyOwner {... */\n      jump\t// out\n        /* \"contracts/Marketplace2/Marketplace.sol\":16210:16236  uint8 public bnbFeePercent */\n    tag_86:\n      0x0c\n      0x14\n      swap1\n      sload\n      swap1\n      0x0100\n      exp\n      swap1\n      div\n      0xff\n      and\n      dup2\n      jump\t// out\n        /* \"contracts/Marketplace2/Marketplace.sol\":1676:1761  function owner() public view virtual returns (address) {... */\n    tag_91:\n        /* \"contracts/Marketplace2/Marketplace.sol\":1722:1729  address */\n      0x00\n        /* \"contracts/Marketplace2/Marketplace.sol\":1748:1754  _owner */\n      0x0d\n      0x00\n      swap1\n      sload\n      swap1\n      0x0100\n      exp\n      swap1\n      div\n      0xffffffffffffffffffffffffffffffffffffffff\n      and\n        /* \"contracts/Marketplace2/Marketplace.sol\":1741:1754  return _owner */\n      swap1\n      pop\n        /* \"contracts/Marketplace2/Marketplace.sol\":1676:1761  function owner() public view virtual returns (address) {... */\n      swap1\n      jump\t// out\n        /* \"contracts/Marketplace2/Marketplace.sol\":18758:19393  function createMarketSale(... */\n    tag_98:\n        /* \"contracts/Marketplace2/Marketplace.sol\":14165:14166  2 */\n      0x02\n        /* \"contracts/Marketplace2/Marketplace.sol\":14746:14753  _status */\n      sload(0x00)\n        /* \"contracts/Marketplace2/Marketplace.sol\":14746:14765  _status != _ENTERED */\n      sub\n        /* \"contracts/Marketplace2/Marketplace.sol\":14738:14801  require(_status != _ENTERED, \"ReentrancyGuard: reentrant call\") */\n      tag_229\n      jumpi\n      mload(0x40)\n      0x08c379a000000000000000000000000000000000000000000000000000000000\n      dup2\n      mstore\n      0x04\n      add\n      tag_230\n      swap1\n      tag_195\n      jump\t// in\n    tag_230:\n      mload(0x40)\n      dup1\n      swap2\n      sub\n      swap1\n      revert\n    tag_229:\n        /* \"contracts/Marketplace2/Marketplace.sol\":14165:14166  2 */\n      0x02\n        /* \"contracts/Marketplace2/Marketplace.sol\":14876:14883  _status */\n      0x00\n        /* \"contracts/Marketplace2/Marketplace.sol\":14876:14894  _status = _ENTERED */\n      dup2\n      swap1\n      sstore\n      pop\n        /* \"contracts/Marketplace2/Marketplace.sol\":18856:18866  uint price */\n      0x00\n        /* \"contracts/Marketplace2/Marketplace.sol\":18869:18883  idToMarketItem */\n      0x10\n        /* \"contracts/Marketplace2/Marketplace.sol\":18869:18891  idToMarketItem[itemId] */\n      0x00\n        /* \"contracts/Marketplace2/Marketplace.sol\":18884:18890  itemId */\n      dup5\n        /* \"contracts/Marketplace2/Marketplace.sol\":18869:18891  idToMarketItem[itemId] */\n      dup2\n      mstore\n      0x20\n      add\n      swap1\n      dup2\n      mstore\n      0x20\n      add\n      0x00\n      keccak256\n        /* \"contracts/Marketplace2/Marketplace.sol\":18869:18897  idToMarketItem[itemId].price */\n      0x05\n      add\n      sload\n        /* \"contracts/Marketplace2/Marketplace.sol\":18856:18897  uint price = idToMarketItem[itemId].price */\n      swap1\n      pop\n        /* \"contracts/Marketplace2/Marketplace.sol\":18903:18915  uint tokenId */\n      0x00\n        /* \"contracts/Marketplace2/Marketplace.sol\":18918:18932  idToMarketItem */\n      0x10\n        /* \"contracts/Marketplace2/Marketplace.sol\":18918:18940  idToMarketItem[itemId] */\n      0x00\n        /* \"contracts/Marketplace2/Marketplace.sol\":18933:18939  itemId */\n      dup6\n        /* \"contracts/Marketplace2/Marketplace.sol\":18918:18940  idToMarketItem[itemId] */\n      dup2\n      mstore\n      0x20\n      add\n      swap1\n      dup2\n      mstore\n      0x20\n      add\n      0x00\n      keccak256\n        /* \"contracts/Marketplace2/Marketplace.sol\":18918:18948  idToMarketItem[itemId].tokenId */\n      0x02\n      add\n      sload\n        /* \"contracts/Marketplace2/Marketplace.sol\":18903:18948  uint tokenId = idToMarketItem[itemId].tokenId */\n      swap1\n      pop\n        /* \"contracts/Marketplace2/Marketplace.sol\":18972:18977  price */\n      dup2\n        /* \"contracts/Marketplace2/Marketplace.sol\":18962:18968  amount */\n      dup4\n        /* \"contracts/Marketplace2/Marketplace.sol\":18962:18977  amount == price */\n      eq\n        /* \"contracts/Marketplace2/Marketplace.sol\":18954:19046  require(amount == price, \"Please submit the asking price in order to complete the purchase\") */\n      tag_232\n      jumpi\n      mload(0x40)\n      0x08c379a000000000000000000000000000000000000000000000000000000000\n      dup2\n      mstore\n      0x04\n      add\n      tag_233\n      swap1\n      tag_234\n      jump\t// in\n    tag_233:\n      mload(0x40)\n      dup1\n      swap2\n      sub\n      swap1\n      revert\n    tag_232:\n        /* \"contracts/Marketplace2/Marketplace.sol\":19111:19120  mainToken */\n      0x0a\n      0x00\n      swap1\n      sload\n      swap1\n      0x0100\n      exp\n      swap1\n      div\n      0xffffffffffffffffffffffffffffffffffffffff\n      and\n        /* \"contracts/Marketplace2/Marketplace.sol\":19111:19133  mainToken.transferFrom */\n      0xffffffffffffffffffffffffffffffffffffffff\n      and\n      0x23b872dd\n        /* \"contracts/Marketplace2/Marketplace.sol\":19134:19144  msg.sender */\n      caller\n        /* \"contracts/Marketplace2/Marketplace.sol\":19146:19160  idToMarketItem */\n      0x10\n        /* \"contracts/Marketplace2/Marketplace.sol\":19146:19168  idToMarketItem[itemId] */\n      0x00\n        /* \"contracts/Marketplace2/Marketplace.sol\":19161:19167  itemId */\n      dup9\n        /* \"contracts/Marketplace2/Marketplace.sol\":19146:19168  idToMarketItem[itemId] */\n      dup2\n      mstore\n      0x20\n      add\n      swap1\n      dup2\n      mstore\n      0x20\n      add\n      0x00\n      keccak256\n        /* \"contracts/Marketplace2/Marketplace.sol\":19146:19175  idToMarketItem[itemId].seller */\n      0x03\n      add\n      0x00\n      swap1\n      sload\n      swap1\n      0x0100\n      exp\n      swap1\n      div\n      0xffffffffffffffffffffffffffffffffffffffff\n      and\n        /* \"contracts/Marketplace2/Marketplace.sol\":19178:19184  amount */\n      dup7\n        /* \"contracts/Marketplace2/Marketplace.sol\":19111:19185  mainToken.transferFrom(msg.sender, idToMarketItem[itemId].seller , amount) */\n      mload(0x40)\n      dup5\n      0xffffffff\n      and\n      0xe0\n      shl\n      dup2\n      mstore\n      0x04\n      add\n      tag_235\n      swap4\n      swap3\n      swap2\n      swap1\n      tag_236\n      jump\t// in\n    tag_235:\n      0x20\n      mload(0x40)\n      dup1\n      dup4\n      sub\n      dup2\n      0x00\n      dup8\n      gas\n      call\n      iszero\n      dup1\n      iszero\n      tag_238\n      jumpi\n      returndatasize\n      0x00\n      dup1\n      returndatacopy\n      revert(0x00, returndatasize)\n    tag_238:\n      pop\n      pop\n      pop\n      pop\n      mload(0x40)\n      returndatasize\n      not(0x1f)\n      0x1f\n      dup3\n      add\n      and\n      dup3\n      add\n      dup1\n      0x40\n      mstore\n      pop\n      dup2\n      add\n      swap1\n      tag_239\n      swap2\n      swap1\n      tag_240\n      jump\t// in\n    tag_239:\n      pop\n        /* \"contracts/Marketplace2/Marketplace.sol\":19191:19199  mainNFTs */\n      0x0c\n      0x00\n      swap1\n      sload\n      swap1\n      0x0100\n      exp\n      swap1\n      div\n      0xffffffffffffffffffffffffffffffffffffffff\n      and\n        /* \"contracts/Marketplace2/Marketplace.sol\":19191:19212  mainNFTs.transferFrom */\n      0xffffffffffffffffffffffffffffffffffffffff\n      and\n      0x23b872dd\n        /* \"contracts/Marketplace2/Marketplace.sol\":19221:19225  this */\n      address\n        /* \"contracts/Marketplace2/Marketplace.sol\":19228:19238  msg.sender */\n      caller\n        /* \"contracts/Marketplace2/Marketplace.sol\":19240:19247  tokenId */\n      dup5\n        /* \"contracts/Marketplace2/Marketplace.sol\":19191:19248  mainNFTs.transferFrom(address(this), msg.sender, tokenId) */\n      mload(0x40)\n      dup5\n      0xffffffff\n      and\n      0xe0\n      shl\n      dup2\n      mstore\n      0x04\n      add\n      tag_241\n      swap4\n      swap3\n      swap2\n      swap1\n      tag_208\n      jump\t// in\n    tag_241:\n      0x00\n      mload(0x40)\n      dup1\n      dup4\n      sub\n      dup2\n      0x00\n      dup8\n      dup1\n      extcodesize\n      iszero\n      dup1\n      iszero\n      tag_242\n      jumpi\n      0x00\n      dup1\n      revert\n    tag_242:\n      pop\n      gas\n      call\n      iszero\n      dup1\n      iszero\n      tag_244\n      jumpi\n      returndatasize\n      0x00\n      dup1\n      returndatacopy\n      revert(0x00, returndatasize)\n    tag_244:\n      pop\n      pop\n      pop\n      pop\n        /* \"contracts/Marketplace2/Marketplace.sol\":19293:19303  msg.sender */\n      caller\n        /* \"contracts/Marketplace2/Marketplace.sol\":19254:19268  idToMarketItem */\n      0x10\n        /* \"contracts/Marketplace2/Marketplace.sol\":19254:19276  idToMarketItem[itemId] */\n      0x00\n        /* \"contracts/Marketplace2/Marketplace.sol\":19269:19275  itemId */\n      dup7\n        /* \"contracts/Marketplace2/Marketplace.sol\":19254:19276  idToMarketItem[itemId] */\n      dup2\n      mstore\n      0x20\n      add\n      swap1\n      dup2\n      mstore\n      0x20\n      add\n      0x00\n      keccak256\n        /* \"contracts/Marketplace2/Marketplace.sol\":19254:19282  idToMarketItem[itemId].owner */\n      0x04\n      add\n      0x00\n        /* \"contracts/Marketplace2/Marketplace.sol\":19254:19304  idToMarketItem[itemId].owner = payable(msg.sender) */\n      0x0100\n      exp\n      dup2\n      sload\n      dup2\n      0xffffffffffffffffffffffffffffffffffffffff\n      mul\n      not\n      and\n      swap1\n      dup4\n      0xffffffffffffffffffffffffffffffffffffffff\n      and\n      mul\n      or\n      swap1\n      sstore\n      pop\n        /* \"contracts/Marketplace2/Marketplace.sol\":19342:19359  ItemStatus.MINTED */\n      0x00\n        /* \"contracts/Marketplace2/Marketplace.sol\":19310:19324  idToMarketItem */\n      0x10\n        /* \"contracts/Marketplace2/Marketplace.sol\":19310:19332  idToMarketItem[itemId] */\n      0x00\n        /* \"contracts/Marketplace2/Marketplace.sol\":19325:19331  itemId */\n      dup7\n        /* \"contracts/Marketplace2/Marketplace.sol\":19310:19332  idToMarketItem[itemId] */\n      dup2\n      mstore\n      0x20\n      add\n      swap1\n      dup2\n      mstore\n      0x20\n      add\n      0x00\n      keccak256\n        /* \"contracts/Marketplace2/Marketplace.sol\":19310:19339  idToMarketItem[itemId].status */\n      0x06\n      add\n      0x00\n        /* \"contracts/Marketplace2/Marketplace.sol\":19310:19359  idToMarketItem[itemId].status = ItemStatus.MINTED */\n      0x0100\n      exp\n      dup2\n      sload\n      dup2\n      0xff\n      mul\n      not\n      and\n      swap1\n      dup4\n      0x01\n      dup2\n      gt\n      iszero\n      tag_245\n      jumpi\n      tag_246\n      tag_136\n      jump\t// in\n    tag_246:\n    tag_245:\n      mul\n      or\n      swap1\n      sstore\n      pop\n        /* \"contracts/Marketplace2/Marketplace.sol\":19366:19388  _itemsSold.increment() */\n      tag_247\n        /* \"contracts/Marketplace2/Marketplace.sol\":19366:19376  _itemsSold */\n      0x0f\n        /* \"contracts/Marketplace2/Marketplace.sol\":19366:19386  _itemsSold.increment */\n      tag_201\n        /* \"contracts/Marketplace2/Marketplace.sol\":19366:19388  _itemsSold.increment() */\n      jump\t// in\n    tag_247:\n        /* \"contracts/Marketplace2/Marketplace.sol\":18850:19393  {... */\n      pop\n      pop\n        /* \"contracts/Marketplace2/Marketplace.sol\":14122:14123  1 */\n      0x01\n        /* \"contracts/Marketplace2/Marketplace.sol\":15049:15056  _status */\n      0x00\n        /* \"contracts/Marketplace2/Marketplace.sol\":15049:15071  _status = _NOT_ENTERED */\n      dup2\n      swap1\n      sstore\n      pop\n        /* \"contracts/Marketplace2/Marketplace.sol\":18758:19393  function createMarketSale(... */\n      pop\n      pop\n      jump\t// out\n        /* \"contracts/Marketplace2/Marketplace.sol\":20365:21257  function delistItem(address nftAddress, uint256 itemId) public {... */\n    tag_102:\n        /* \"contracts/Marketplace2/Marketplace.sol\":20438:20464  _requireERC721(nftAddress) */\n      tag_249\n        /* \"contracts/Marketplace2/Marketplace.sol\":20453:20463  nftAddress */\n      dup3\n        /* \"contracts/Marketplace2/Marketplace.sol\":20438:20452  _requireERC721 */\n      tag_250\n        /* \"contracts/Marketplace2/Marketplace.sol\":20438:20464  _requireERC721(nftAddress) */\n      jump\t// in\n    tag_249:\n        /* \"contracts/Marketplace2/Marketplace.sol\":20475:20491  address deleteBy */\n      0x00\n        /* \"contracts/Marketplace2/Marketplace.sol\":20494:20504  msg.sender */\n      caller\n        /* \"contracts/Marketplace2/Marketplace.sol\":20475:20504  address deleteBy = msg.sender */\n      swap1\n      pop\n        /* \"contracts/Marketplace2/Marketplace.sol\":20514:20536  MarketItem memory item */\n      0x00\n        /* \"contracts/Marketplace2/Marketplace.sol\":20539:20553  idToMarketItem */\n      0x10\n        /* \"contracts/Marketplace2/Marketplace.sol\":20539:20561  idToMarketItem[itemId] */\n      0x00\n        /* \"contracts/Marketplace2/Marketplace.sol\":20554:20560  itemId */\n      dup5\n        /* \"contracts/Marketplace2/Marketplace.sol\":20539:20561  idToMarketItem[itemId] */\n      dup2\n      mstore\n      0x20\n      add\n      swap1\n      dup2\n      mstore\n      0x20\n      add\n      0x00\n      keccak256\n        /* \"contracts/Marketplace2/Marketplace.sol\":20514:20561  MarketItem memory item = idToMarketItem[itemId] */\n      mload(0x40)\n      dup1\n      0xe0\n      add\n      0x40\n      mstore\n      swap1\n      dup2\n      0x00\n      dup3\n      add\n      sload\n      dup2\n      mstore\n      0x20\n      add\n      0x01\n      dup3\n      add\n      0x00\n      swap1\n      sload\n      swap1\n      0x0100\n      exp\n      swap1\n      div\n      0xffffffffffffffffffffffffffffffffffffffff\n      and\n      0xffffffffffffffffffffffffffffffffffffffff\n      and\n      0xffffffffffffffffffffffffffffffffffffffff\n      and\n      dup2\n      mstore\n      0x20\n      add\n      0x02\n      dup3\n      add\n      sload\n      dup2\n      mstore\n      0x20\n      add\n      0x03\n      dup3\n      add\n      0x00\n      swap1\n      sload\n      swap1\n      0x0100\n      exp\n      swap1\n      div\n      0xffffffffffffffffffffffffffffffffffffffff\n      and\n      0xffffffffffffffffffffffffffffffffffffffff\n      and\n      0xffffffffffffffffffffffffffffffffffffffff\n      and\n      dup2\n      mstore\n      0x20\n      add\n      0x04\n      dup3\n      add\n      0x00\n      swap1\n      sload\n      swap1\n      0x0100\n      exp\n      swap1\n      div\n      0xffffffffffffffffffffffffffffffffffffffff\n      and\n      0xffffffffffffffffffffffffffffffffffffffff\n      and\n      0xffffffffffffffffffffffffffffffffffffffff\n      and\n      dup2\n      mstore\n      0x20\n      add\n      0x05\n      dup3\n      add\n      sload\n      dup2\n      mstore\n      0x20\n      add\n      0x06\n      dup3\n      add\n      0x00\n      swap1\n      sload\n      swap1\n      0x0100\n      exp\n      swap1\n      div\n      0xff\n      and\n      0x01\n      dup2\n      gt\n      iszero\n      tag_251\n      jumpi\n      tag_252\n      tag_136\n      jump\t// in\n    tag_252:\n    tag_251:\n      0x01\n      dup2\n      gt\n      iszero\n      tag_253\n      jumpi\n      tag_254\n      tag_136\n      jump\t// in\n    tag_254:\n    tag_253:\n      dup2\n      mstore\n      pop\n      pop\n      swap1\n      pop\n        /* \"contracts/Marketplace2/Marketplace.sol\":20595:20596  0 */\n      0x00\n        /* \"contracts/Marketplace2/Marketplace.sol\":20580:20584  item */\n      dup2\n        /* \"contracts/Marketplace2/Marketplace.sol\":20580:20591  item.itemId */\n      0x00\n      add\n      mload\n        /* \"contracts/Marketplace2/Marketplace.sol\":20580:20596  item.itemId != 0 */\n      sub\n        /* \"contracts/Marketplace2/Marketplace.sol\":20572:20620  require(item.itemId != 0, \"Asset not published\") */\n      tag_255\n      jumpi\n      mload(0x40)\n      0x08c379a000000000000000000000000000000000000000000000000000000000\n      dup2\n      mstore\n      0x04\n      add\n      tag_256\n      swap1\n      tag_257\n      jump\t// in\n    tag_256:\n      mload(0x40)\n      dup1\n      swap2\n      sub\n      swap1\n      revert\n    tag_255:\n        /* \"contracts/Marketplace2/Marketplace.sol\":20653:20670  ItemStatus.MINTED */\n      0x00\n        /* \"contracts/Marketplace2/Marketplace.sol\":20638:20670  item.status != ItemStatus.MINTED */\n      0x01\n      dup2\n      gt\n      iszero\n      tag_258\n      jumpi\n      tag_259\n      tag_136\n      jump\t// in\n    tag_259:\n    tag_258:\n        /* \"contracts/Marketplace2/Marketplace.sol\":20638:20642  item */\n      dup2\n        /* \"contracts/Marketplace2/Marketplace.sol\":20638:20649  item.status */\n      0xc0\n      add\n      mload\n        /* \"contracts/Marketplace2/Marketplace.sol\":20638:20670  item.status != ItemStatus.MINTED */\n      0x01\n      dup2\n      gt\n      iszero\n      tag_260\n      jumpi\n      tag_261\n      tag_136\n      jump\t// in\n    tag_261:\n    tag_260:\n      sub\n        /* \"contracts/Marketplace2/Marketplace.sol\":20630:20689  require(item.status != ItemStatus.MINTED, \"Asset delisted\") */\n      tag_262\n      jumpi\n      mload(0x40)\n      0x08c379a000000000000000000000000000000000000000000000000000000000\n      dup2\n      mstore\n      0x04\n      add\n      tag_263\n      swap1\n      tag_264\n      jump\t// in\n    tag_263:\n      mload(0x40)\n      dup1\n      swap2\n      sub\n      swap1\n      revert\n    tag_262:\n        /* \"contracts/Marketplace2/Marketplace.sol\":20700:20714  address seller */\n      0x00\n        /* \"contracts/Marketplace2/Marketplace.sol\":20717:20721  item */\n      dup2\n        /* \"contracts/Marketplace2/Marketplace.sol\":20717:20728  item.seller */\n      0x60\n      add\n      mload\n        /* \"contracts/Marketplace2/Marketplace.sol\":20700:20728  address seller = item.seller */\n      swap1\n      pop\n        /* \"contracts/Marketplace2/Marketplace.sol\":20764:20765  0 */\n      0x00\n        /* \"contracts/Marketplace2/Marketplace.sol\":20746:20766  seller != address(0) */\n      0xffffffffffffffffffffffffffffffffffffffff\n      and\n        /* \"contracts/Marketplace2/Marketplace.sol\":20746:20752  seller */\n      dup2\n        /* \"contracts/Marketplace2/Marketplace.sol\":20746:20766  seller != address(0) */\n      0xffffffffffffffffffffffffffffffffffffffff\n      and\n      sub\n        /* \"contracts/Marketplace2/Marketplace.sol\":20738:20786  require(seller != address(0), \"Invalid address\") */\n      tag_265\n      jumpi\n      mload(0x40)\n      0x08c379a000000000000000000000000000000000000000000000000000000000\n      dup2\n      mstore\n      0x04\n      add\n      tag_266\n      swap1\n      tag_267\n      jump\t// in\n    tag_266:\n      mload(0x40)\n      dup1\n      swap2\n      sub\n      swap1\n      revert\n    tag_265:\n        /* \"contracts/Marketplace2/Marketplace.sol\":20827:20837  msg.sender */\n      caller\n        /* \"contracts/Marketplace2/Marketplace.sol\":20817:20837  seller == msg.sender */\n      0xffffffffffffffffffffffffffffffffffffffff\n      and\n        /* \"contracts/Marketplace2/Marketplace.sol\":20817:20823  seller */\n      dup2\n        /* \"contracts/Marketplace2/Marketplace.sol\":20817:20837  seller == msg.sender */\n      0xffffffffffffffffffffffffffffffffffffffff\n      and\n      eq\n        /* \"contracts/Marketplace2/Marketplace.sol\":20796:20885  require(... */\n      tag_268\n      jumpi\n      mload(0x40)\n      0x08c379a000000000000000000000000000000000000000000000000000000000\n      dup2\n      mstore\n      0x04\n      add\n      tag_269\n      swap1\n      tag_270\n      jump\t// in\n    tag_269:\n      mload(0x40)\n      dup1\n      swap2\n      sub\n      swap1\n      revert\n    tag_268:\n        /* \"contracts/Marketplace2/Marketplace.sol\":20895:20914  IERC721 nftRegistry */\n      0x00\n        /* \"contracts/Marketplace2/Marketplace.sol\":20925:20935  nftAddress */\n      dup6\n        /* \"contracts/Marketplace2/Marketplace.sol\":20895:20936  IERC721 nftRegistry = IERC721(nftAddress) */\n      swap1\n      pop\n        /* \"contracts/Marketplace2/Marketplace.sol\":20946:20957  nftRegistry */\n      dup1\n        /* \"contracts/Marketplace2/Marketplace.sol\":20946:20974  nftRegistry.safeTransferFrom */\n      0xffffffffffffffffffffffffffffffffffffffff\n      and\n      0x42842e0e\n        /* \"contracts/Marketplace2/Marketplace.sol\":20983:20987  this */\n      address\n        /* \"contracts/Marketplace2/Marketplace.sol\":20990:20996  seller */\n      dup5\n        /* \"contracts/Marketplace2/Marketplace.sol\":20998:21004  itemId */\n      dup9\n        /* \"contracts/Marketplace2/Marketplace.sol\":20946:21005  nftRegistry.safeTransferFrom(address(this), seller, itemId) */\n      mload(0x40)\n      dup5\n      0xffffffff\n      and\n      0xe0\n      shl\n      dup2\n      mstore\n      0x04\n      add\n      tag_271\n      swap4\n      swap3\n      swap2\n      swap1\n      tag_208\n      jump\t// in\n    tag_271:\n      0x00\n      mload(0x40)\n      dup1\n      dup4\n      sub\n      dup2\n      0x00\n      dup8\n      dup1\n      extcodesize\n      iszero\n      dup1\n      iszero\n      tag_272\n      jumpi\n      0x00\n      dup1\n      revert\n    tag_272:\n      pop\n      gas\n      call\n      iszero\n      dup1\n      iszero\n      tag_274\n      jumpi\n      returndatasize\n      0x00\n      dup1\n      returndatacopy\n      revert(0x00, returndatasize)\n    tag_274:\n      pop\n      pop\n      pop\n      pop\n        /* \"contracts/Marketplace2/Marketplace.sol\":21029:21046  ItemStatus.MINTED */\n      0x00\n        /* \"contracts/Marketplace2/Marketplace.sol\":21015:21019  item */\n      dup4\n        /* \"contracts/Marketplace2/Marketplace.sol\":21015:21026  item.status */\n      0xc0\n      add\n        /* \"contracts/Marketplace2/Marketplace.sol\":21015:21046  item.status = ItemStatus.MINTED */\n      swap1\n      0x01\n      dup2\n      gt\n      iszero\n      tag_275\n      jumpi\n      tag_276\n      tag_136\n      jump\t// in\n    tag_276:\n    tag_275:\n      swap1\n      dup2\n      0x01\n      dup2\n      gt\n      iszero\n      tag_277\n      jumpi\n      tag_278\n      tag_136\n      jump\t// in\n    tag_278:\n    tag_277:\n      dup2\n      mstore\n      pop\n      pop\n        /* \"contracts/Marketplace2/Marketplace.sol\":21063:21077  idToMarketItem */\n      0x10\n        /* \"contracts/Marketplace2/Marketplace.sol\":21063:21085  idToMarketItem[itemId] */\n      0x00\n        /* \"contracts/Marketplace2/Marketplace.sol\":21078:21084  itemId */\n      dup7\n        /* \"contracts/Marketplace2/Marketplace.sol\":21063:21085  idToMarketItem[itemId] */\n      dup2\n      mstore\n      0x20\n      add\n      swap1\n      dup2\n      mstore\n      0x20\n      add\n      0x00\n      keccak256\n      0x00\n        /* \"contracts/Marketplace2/Marketplace.sol\":21056:21085  delete idToMarketItem[itemId] */\n      dup1\n      dup3\n      add\n      0x00\n      swap1\n      sstore\n      0x01\n      dup3\n      add\n      exp(0x0100, 0x00)\n      dup2\n      sload\n      swap1\n      0xffffffffffffffffffffffffffffffffffffffff\n      mul\n      not\n      and\n      swap1\n      sstore\n      0x02\n      dup3\n      add\n      0x00\n      swap1\n      sstore\n      0x03\n      dup3\n      add\n      exp(0x0100, 0x00)\n      dup2\n      sload\n      swap1\n      0xffffffffffffffffffffffffffffffffffffffff\n      mul\n      not\n      and\n      swap1\n      sstore\n      0x04\n      dup3\n      add\n      exp(0x0100, 0x00)\n      dup2\n      sload\n      swap1\n      0xffffffffffffffffffffffffffffffffffffffff\n      mul\n      not\n      and\n      swap1\n      sstore\n      0x05\n      dup3\n      add\n      0x00\n      swap1\n      sstore\n      0x06\n      dup3\n      add\n      exp(0x0100, 0x00)\n      dup2\n      sload\n      swap1\n      0xff\n      mul\n      not\n      and\n      swap1\n      sstore\n      pop\n      pop\n        /* \"contracts/Marketplace2/Marketplace.sol\":21203:21211  deleteBy */\n      dup4\n        /* \"contracts/Marketplace2/Marketplace.sol\":21100:21250  DelistItemSuccessful(... */\n      0xffffffffffffffffffffffffffffffffffffffff\n      and\n        /* \"contracts/Marketplace2/Marketplace.sol\":21183:21189  itemId */\n      dup6\n        /* \"contracts/Marketplace2/Marketplace.sol\":21100:21250  DelistItemSuccessful(... */\n      0xc141ecc59e1a451ee7d3128743c8ca3174955ce97262896269482d5f84b39a85\n        /* \"contracts/Marketplace2/Marketplace.sol\":21134:21144  nftAddress */\n      dup9\n        /* \"contracts/Marketplace2/Marketplace.sol\":21158:21162  item */\n      dup7\n        /* \"contracts/Marketplace2/Marketplace.sol\":21158:21169  item.itemId */\n      0x00\n      add\n      mload\n        /* \"contracts/Marketplace2/Marketplace.sol\":21225:21240  block.timestamp */\n      timestamp\n        /* \"contracts/Marketplace2/Marketplace.sol\":21100:21250  DelistItemSuccessful(... */\n      mload(0x40)\n      tag_279\n      swap4\n      swap3\n      swap2\n      swap1\n      tag_280\n      jump\t// in\n    tag_279:\n      mload(0x40)\n      dup1\n      swap2\n      sub\n      swap1\n      log3\n        /* \"contracts/Marketplace2/Marketplace.sol\":20428:21257  {... */\n      pop\n      pop\n      pop\n      pop\n        /* \"contracts/Marketplace2/Marketplace.sol\":20365:21257  function delistItem(address nftAddress, uint256 itemId) public {... */\n      pop\n      pop\n      jump\t// out\n        /* \"contracts/Marketplace2/Marketplace.sol\":16242:16269  uint8 public antaFeePercent */\n    tag_105:\n      0x0c\n      0x15\n      swap1\n      sload\n      swap1\n      0x0100\n      exp\n      swap1\n      div\n      0xff\n      and\n      dup2\n      jump\t// out\n        /* \"contracts/Marketplace2/Marketplace.sol\":16151:16174  IFactory public factory */\n    tag_109:\n      0x0b\n      0x00\n      swap1\n      sload\n      swap1\n      0x0100\n      exp\n      swap1\n      div\n      0xffffffffffffffffffffffffffffffffffffffff\n      and\n      dup2\n      jump\t// out\n        /* \"contracts/Marketplace2/Marketplace.sol\":17638:17775  function getMarketItem(uint256 marketItemId) public view returns (MarketItem memory) {... */\n    tag_115:\n        /* \"contracts/Marketplace2/Marketplace.sol\":17704:17721  MarketItem memory */\n      tag_281\n      tag_132\n      jump\t// in\n    tag_281:\n        /* \"contracts/Marketplace2/Marketplace.sol\":17740:17754  idToMarketItem */\n      0x10\n        /* \"contracts/Marketplace2/Marketplace.sol\":17740:17768  idToMarketItem[marketItemId] */\n      0x00\n        /* \"contracts/Marketplace2/Marketplace.sol\":17755:17767  marketItemId */\n      dup4\n        /* \"contracts/Marketplace2/Marketplace.sol\":17740:17768  idToMarketItem[marketItemId] */\n      dup2\n      mstore\n      0x20\n      add\n      swap1\n      dup2\n      mstore\n      0x20\n      add\n      0x00\n      keccak256\n        /* \"contracts/Marketplace2/Marketplace.sol\":17733:17768  return idToMarketItem[marketItemId] */\n      mload(0x40)\n      dup1\n      0xe0\n      add\n      0x40\n      mstore\n      swap1\n      dup2\n      0x00\n      dup3\n      add\n      sload\n      dup2\n      mstore\n      0x20\n      add\n      0x01\n      dup3\n      add\n      0x00\n      swap1\n      sload\n      swap1\n      0x0100\n      exp\n      swap1\n      div\n      0xffffffffffffffffffffffffffffffffffffffff\n      and\n      0xffffffffffffffffffffffffffffffffffffffff\n      and\n      0xffffffffffffffffffffffffffffffffffffffff\n      and\n      dup2\n      mstore\n      0x20\n      add\n      0x02\n      dup3\n      add\n      sload\n      dup2\n      mstore\n      0x20\n      add\n      0x03\n      dup3\n      add\n      0x00\n      swap1\n      sload\n      swap1\n      0x0100\n      exp\n      swap1\n      div\n      0xffffffffffffffffffffffffffffffffffffffff\n      and\n      0xffffffffffffffffffffffffffffffffffffffff\n      and\n      0xffffffffffffffffffffffffffffffffffffffff\n      and\n      dup2\n      mstore\n      0x20\n      add\n      0x04\n      dup3\n      add\n      0x00\n      swap1\n      sload\n      swap1\n      0x0100\n      exp\n      swap1\n      div\n      0xffffffffffffffffffffffffffffffffffffffff\n      and\n      0xffffffffffffffffffffffffffffffffffffffff\n      and\n      0xffffffffffffffffffffffffffffffffffffffff\n      and\n      dup2\n      mstore\n      0x20\n      add\n      0x05\n      dup3\n      add\n      sload\n      dup2\n      mstore\n      0x20\n      add\n      0x06\n      dup3\n      add\n      0x00\n      swap1\n      sload\n      swap1\n      0x0100\n      exp\n      swap1\n      div\n      0xff\n      and\n      0x01\n      dup2\n      gt\n      iszero\n      tag_283\n      jumpi\n      tag_284\n      tag_136\n      jump\t// in\n    tag_284:\n    tag_283:\n      0x01\n      dup2\n      gt\n      iszero\n      tag_285\n      jumpi\n      tag_286\n      tag_136\n      jump\t// in\n    tag_286:\n    tag_285:\n      dup2\n      mstore\n      pop\n      pop\n      swap1\n      pop\n        /* \"contracts/Marketplace2/Marketplace.sol\":17638:17775  function getMarketItem(uint256 marketItemId) public view returns (MarketItem memory) {... */\n      swap2\n      swap1\n      pop\n      jump\t// out\n        /* \"contracts/Marketplace2/Marketplace.sol\":2558:2756  function transferOwnership(address newOwner) public virtual onlyOwner {... */\n    tag_120:\n        /* \"contracts/Marketplace2/Marketplace.sol\":1899:1911  _msgSender() */\n      tag_288\n        /* \"contracts/Marketplace2/Marketplace.sol\":1899:1909  _msgSender */\n      tag_141\n        /* \"contracts/Marketplace2/Marketplace.sol\":1899:1911  _msgSender() */\n      jump\t// in\n    tag_288:\n        /* \"contracts/Marketplace2/Marketplace.sol\":1888:1911  owner() == _msgSender() */\n      0xffffffffffffffffffffffffffffffffffffffff\n      and\n        /* \"contracts/Marketplace2/Marketplace.sol\":1888:1895  owner() */\n      tag_289\n        /* \"contracts/Marketplace2/Marketplace.sol\":1888:1893  owner */\n      tag_91\n        /* \"contracts/Marketplace2/Marketplace.sol\":1888:1895  owner() */\n      jump\t// in\n    tag_289:\n        /* \"contracts/Marketplace2/Marketplace.sol\":1888:1911  owner() == _msgSender() */\n      0xffffffffffffffffffffffffffffffffffffffff\n      and\n      eq\n        /* \"contracts/Marketplace2/Marketplace.sol\":1880:1948  require(owner() == _msgSender(), \"Ownable: caller is not the owner\") */\n      tag_290\n      jumpi\n      mload(0x40)\n      0x08c379a000000000000000000000000000000000000000000000000000000000\n      dup2\n      mstore\n      0x04\n      add\n      tag_291\n      swap1\n      tag_145\n      jump\t// in\n    tag_291:\n      mload(0x40)\n      dup1\n      swap2\n      sub\n      swap1\n      revert\n    tag_290:\n        /* \"contracts/Marketplace2/Marketplace.sol\":2666:2667  0 */\n      0x00\n        /* \"contracts/Marketplace2/Marketplace.sol\":2646:2668  newOwner != address(0) */\n      0xffffffffffffffffffffffffffffffffffffffff\n      and\n        /* \"contracts/Marketplace2/Marketplace.sol\":2646:2654  newOwner */\n      dup2\n        /* \"contracts/Marketplace2/Marketplace.sol\":2646:2668  newOwner != address(0) */\n      0xffffffffffffffffffffffffffffffffffffffff\n      and\n      sub\n        /* \"contracts/Marketplace2/Marketplace.sol\":2638:2711  require(newOwner != address(0), \"Ownable: new owner is the zero address\") */\n      tag_293\n      jumpi\n      mload(0x40)\n      0x08c379a000000000000000000000000000000000000000000000000000000000\n      dup2\n      mstore\n      0x04\n      add\n      tag_294\n      swap1\n      tag_295\n      jump\t// in\n    tag_294:\n      mload(0x40)\n      dup1\n      swap2\n      sub\n      swap1\n      revert\n    tag_293:\n        /* \"contracts/Marketplace2/Marketplace.sol\":2721:2749  _transferOwnership(newOwner) */\n      tag_296\n        /* \"contracts/Marketplace2/Marketplace.sol\":2740:2748  newOwner */\n      dup2\n        /* \"contracts/Marketplace2/Marketplace.sol\":2721:2739  _transferOwnership */\n      tag_226\n        /* \"contracts/Marketplace2/Marketplace.sol\":2721:2749  _transferOwnership(newOwner) */\n      jump\t// in\n    tag_296:\n        /* \"contracts/Marketplace2/Marketplace.sol\":2558:2756  function transferOwnership(address newOwner) public virtual onlyOwner {... */\n      pop\n      jump\t// out\n        /* \"contracts/Marketplace2/Marketplace.sol\":16180:16203  IERC721 public mainNFTs */\n    tag_123:\n      0x0c\n      0x00\n      swap1\n      sload\n      swap1\n      0x0100\n      exp\n      swap1\n      div\n      0xffffffffffffffffffffffffffffffffffffffff\n      and\n      dup2\n      jump\t// out\n        /* \"contracts/Marketplace2/Marketplace.sol\":15928:15975  mapping (uint256 => MarketItem) public allItems */\n    tag_129:\n      mstore(0x20, 0x08)\n      dup1\n      0x00\n      mstore\n      keccak256(0x00, 0x40)\n      0x00\n      swap2\n      pop\n      swap1\n      pop\n      dup1\n      0x00\n      add\n      sload\n      swap1\n      dup1\n      0x01\n      add\n      0x00\n      swap1\n      sload\n      swap1\n      0x0100\n      exp\n      swap1\n      div\n      0xffffffffffffffffffffffffffffffffffffffff\n      and\n      swap1\n      dup1\n      0x02\n      add\n      sload\n      swap1\n      dup1\n      0x03\n      add\n      0x00\n      swap1\n      sload\n      swap1\n      0x0100\n      exp\n      swap1\n      div\n      0xffffffffffffffffffffffffffffffffffffffff\n      and\n      swap1\n      dup1\n      0x04\n      add\n      0x00\n      swap1\n      sload\n      swap1\n      0x0100\n      exp\n      swap1\n      div\n      0xffffffffffffffffffffffffffffffffffffffff\n      and\n      swap1\n      dup1\n      0x05\n      add\n      sload\n      swap1\n      dup1\n      0x06\n      add\n      0x00\n      swap1\n      sload\n      swap1\n      0x0100\n      exp\n      swap1\n      div\n      0xff\n      and\n      swap1\n      pop\n      dup8\n      jump\t// out\n        /* \"contracts/Marketplace2/Marketplace.sol\":554:650  function _msgSender() internal view virtual returns (address) {... */\n    tag_141:\n        /* \"contracts/Marketplace2/Marketplace.sol\":607:614  address */\n      0x00\n        /* \"contracts/Marketplace2/Marketplace.sol\":633:643  msg.sender */\n      caller\n        /* \"contracts/Marketplace2/Marketplace.sol\":626:643  return msg.sender */\n      swap1\n      pop\n        /* \"contracts/Marketplace2/Marketplace.sol\":554:650  function _msgSender() internal view virtual returns (address) {... */\n      swap1\n      jump\t// out\n        /* \"contracts/Marketplace2/Marketplace.sol\":11851:11963  function current(Counter storage counter) internal view returns (uint256) {... */\n    tag_149:\n        /* \"contracts/Marketplace2/Marketplace.sol\":11916:11923  uint256 */\n      0x00\n        /* \"contracts/Marketplace2/Marketplace.sol\":11942:11949  counter */\n      dup2\n        /* \"contracts/Marketplace2/Marketplace.sol\":11942:11956  counter._value */\n      0x00\n      add\n      sload\n        /* \"contracts/Marketplace2/Marketplace.sol\":11935:11956  return counter._value */\n      swap1\n      pop\n        /* \"contracts/Marketplace2/Marketplace.sol\":11851:11963  function current(Counter storage counter) internal view returns (uint256) {... */\n      swap2\n      swap1\n      pop\n      jump\t// out\n        /* \"contracts/Marketplace2/Marketplace.sol\":11969:12092  function increment(Counter storage counter) internal {... */\n    tag_201:\n        /* \"contracts/Marketplace2/Marketplace.sol\":12074:12075  1 */\n      0x01\n        /* \"contracts/Marketplace2/Marketplace.sol\":12056:12063  counter */\n      dup2\n        /* \"contracts/Marketplace2/Marketplace.sol\":12056:12070  counter._value */\n      0x00\n      add\n      0x00\n        /* \"contracts/Marketplace2/Marketplace.sol\":12056:12075  counter._value += 1 */\n      dup3\n      dup3\n      sload\n      add\n      swap3\n      pop\n      pop\n      dup2\n      swap1\n      sstore\n      pop\n        /* \"contracts/Marketplace2/Marketplace.sol\":11969:12092  function increment(Counter storage counter) internal {... */\n      pop\n      jump\t// out\n        /* \"contracts/Marketplace2/Marketplace.sol\":2910:3097  function _transferOwnership(address newOwner) internal virtual {... */\n    tag_226:\n        /* \"contracts/Marketplace2/Marketplace.sol\":2983:2999  address oldOwner */\n      0x00\n        /* \"contracts/Marketplace2/Marketplace.sol\":3002:3008  _owner */\n      0x0d\n      0x00\n      swap1\n      sload\n      swap1\n      0x0100\n      exp\n      swap1\n      div\n      0xffffffffffffffffffffffffffffffffffffffff\n      and\n        /* \"contracts/Marketplace2/Marketplace.sol\":2983:3008  address oldOwner = _owner */\n      swap1\n      pop\n        /* \"contracts/Marketplace2/Marketplace.sol\":3027:3035  newOwner */\n      dup2\n        /* \"contracts/Marketplace2/Marketplace.sol\":3018:3024  _owner */\n      0x0d\n      0x00\n        /* \"contracts/Marketplace2/Marketplace.sol\":3018:3035  _owner = newOwner */\n      0x0100\n      exp\n      dup2\n      sload\n      dup2\n      0xffffffffffffffffffffffffffffffffffffffff\n      mul\n      not\n      and\n      swap1\n      dup4\n      0xffffffffffffffffffffffffffffffffffffffff\n      and\n      mul\n      or\n      swap1\n      sstore\n      pop\n        /* \"contracts/Marketplace2/Marketplace.sol\":3081:3089  newOwner */\n      dup2\n        /* \"contracts/Marketplace2/Marketplace.sol\":3050:3090  OwnershipTransferred(oldOwner, newOwner) */\n      0xffffffffffffffffffffffffffffffffffffffff\n      and\n        /* \"contracts/Marketplace2/Marketplace.sol\":3071:3079  oldOwner */\n      dup2\n        /* \"contracts/Marketplace2/Marketplace.sol\":3050:3090  OwnershipTransferred(oldOwner, newOwner) */\n      0xffffffffffffffffffffffffffffffffffffffff\n      and\n      0x8be0079c531659141344cd1fd0a4f28419497f9722a3daafe3b4186f6b6457e0\n      mload(0x40)\n      mload(0x40)\n      dup1\n      swap2\n      sub\n      swap1\n      log3\n        /* \"contracts/Marketplace2/Marketplace.sol\":2973:3097  {... */\n      pop\n        /* \"contracts/Marketplace2/Marketplace.sol\":2910:3097  function _transferOwnership(address newOwner) internal virtual {... */\n      pop\n      jump\t// out\n        /* \"contracts/Marketplace2/Marketplace.sol\":22663:23052  function _requireERC721(address nftAddress) internal view {... */\n    tag_250:\n        /* \"contracts/Marketplace2/Marketplace.sol\":22752:22774  isContract(nftAddress) */\n      tag_302\n        /* \"contracts/Marketplace2/Marketplace.sol\":22763:22773  nftAddress */\n      dup2\n        /* \"contracts/Marketplace2/Marketplace.sol\":22752:22762  isContract */\n      tag_303\n        /* \"contracts/Marketplace2/Marketplace.sol\":22752:22774  isContract(nftAddress) */\n      jump\t// in\n    tag_302:\n        /* \"contracts/Marketplace2/Marketplace.sol\":22731:22836  require(... */\n      tag_304\n      jumpi\n      mload(0x40)\n      0x08c379a000000000000000000000000000000000000000000000000000000000\n      dup2\n      mstore\n      0x04\n      add\n      tag_305\n      swap1\n      tag_306\n      jump\t// in\n    tag_305:\n      mload(0x40)\n      dup1\n      swap2\n      sub\n      swap1\n      revert\n    tag_304:\n        /* \"contracts/Marketplace2/Marketplace.sol\":22847:22866  IERC721 nftRegistry */\n      0x00\n        /* \"contracts/Marketplace2/Marketplace.sol\":22877:22887  nftAddress */\n      dup2\n        /* \"contracts/Marketplace2/Marketplace.sol\":22847:22888  IERC721 nftRegistry = IERC721(nftAddress) */\n      swap1\n      pop\n        /* \"contracts/Marketplace2/Marketplace.sol\":22919:22930  nftRegistry */\n      dup1\n        /* \"contracts/Marketplace2/Marketplace.sol\":22919:22948  nftRegistry.supportsInterface */\n      0xffffffffffffffffffffffffffffffffffffffff\n      and\n      0x01ffc9a7\n        /* \"contracts/Marketplace2/Marketplace.sol\":15910:15920  0x80ac58cd */\n      0x80ac58cd\n        /* \"contracts/Marketplace2/Marketplace.sol\":15903:15921  bytes4(0x80ac58cd) */\n      0xe0\n      shl\n        /* \"contracts/Marketplace2/Marketplace.sol\":22919:22966  nftRegistry.supportsInterface(ERC721_Interface) */\n      mload(0x40)\n      dup3\n      0xffffffff\n      and\n      0xe0\n      shl\n      dup2\n      mstore\n      0x04\n      add\n      tag_307\n      swap2\n      swap1\n      tag_56\n      jump\t// in\n    tag_307:\n      0x20\n      mload(0x40)\n      dup1\n      dup4\n      sub\n      dup2\n      dup7\n      gas\n      staticcall\n      iszero\n      dup1\n      iszero\n      tag_309\n      jumpi\n      returndatasize\n      0x00\n      dup1\n      returndatacopy\n      revert(0x00, returndatasize)\n    tag_309:\n      pop\n      pop\n      pop\n      pop\n      mload(0x40)\n      returndatasize\n      not(0x1f)\n      0x1f\n      dup3\n      add\n      and\n      dup3\n      add\n      dup1\n      0x40\n      mstore\n      pop\n      dup2\n      add\n      swap1\n      tag_310\n      swap2\n      swap1\n      tag_240\n      jump\t// in\n    tag_310:\n        /* \"contracts/Marketplace2/Marketplace.sol\":22898:23045  require(... */\n      tag_311\n      jumpi\n      mload(0x40)\n      0x08c379a000000000000000000000000000000000000000000000000000000000\n      dup2\n      mstore\n      0x04\n      add\n      tag_312\n      swap1\n      tag_313\n      jump\t// in\n    tag_312:\n      mload(0x40)\n      dup1\n      swap2\n      sub\n      swap1\n      revert\n    tag_311:\n        /* \"contracts/Marketplace2/Marketplace.sol\":22721:23052  {... */\n      pop\n        /* \"contracts/Marketplace2/Marketplace.sol\":22663:23052  function _requireERC721(address nftAddress) internal view {... */\n      pop\n      jump\t// out\n        /* \"contracts/Marketplace2/Marketplace.sol\":23058:23215  function isContract(address _addr) private view returns (bool){... */\n    tag_303:\n        /* \"contracts/Marketplace2/Marketplace.sol\":23115:23119  bool */\n      0x00\n        /* \"contracts/Marketplace2/Marketplace.sol\":23126:23137  uint32 size */\n      dup1\n        /* \"contracts/Marketplace2/Marketplace.sol\":23178:23183  _addr */\n      dup3\n        /* \"contracts/Marketplace2/Marketplace.sol\":23166:23184  extcodesize(_addr) */\n      extcodesize\n        /* \"contracts/Marketplace2/Marketplace.sol\":23158:23184  size := extcodesize(_addr) */\n      swap1\n      pop\n        /* \"contracts/Marketplace2/Marketplace.sol\":23210:23211  0 */\n      0x00\n        /* \"contracts/Marketplace2/Marketplace.sol\":23203:23207  size */\n      dup2\n        /* \"contracts/Marketplace2/Marketplace.sol\":23203:23211  size > 0 */\n      0xffffffff\n      and\n      gt\n        /* \"contracts/Marketplace2/Marketplace.sol\":23195:23212  return (size > 0) */\n      swap2\n      pop\n      pop\n        /* \"contracts/Marketplace2/Marketplace.sol\":23058:23215  function isContract(address _addr) private view returns (bool){... */\n      swap2\n      swap1\n      pop\n      jump\t// out\n    tag_132:\n      mload(0x40)\n      dup1\n      0xe0\n      add\n      0x40\n      mstore\n      dup1\n      0x00\n      dup2\n      mstore\n      0x20\n      add\n      and(0xffffffffffffffffffffffffffffffffffffffff, 0x00)\n      dup2\n      mstore\n      0x20\n      add\n      0x00\n      dup2\n      mstore\n      0x20\n      add\n      and(0xffffffffffffffffffffffffffffffffffffffff, 0x00)\n      dup2\n      mstore\n      0x20\n      add\n      and(0xffffffffffffffffffffffffffffffffffffffff, 0x00)\n      dup2\n      mstore\n      0x20\n      add\n      0x00\n      dup2\n      mstore\n      0x20\n      add\n      0x00\n      0x01\n      dup2\n      gt\n      iszero\n      tag_315\n      jumpi\n      tag_316\n      tag_136\n      jump\t// in\n    tag_316:\n    tag_315:\n      dup2\n      mstore\n      pop\n      swap1\n      jump\t// out\n        /* \"#utility.yul\":7:84   */\n    tag_317:\n        /* \"#utility.yul\":44:51   */\n      0x00\n        /* \"#utility.yul\":73:78   */\n      dup2\n        /* \"#utility.yul\":62:78   */\n      swap1\n      pop\n        /* \"#utility.yul\":7:84   */\n      swap2\n      swap1\n      pop\n      jump\t// out\n        /* \"#utility.yul\":90:198   */\n    tag_318:\n        /* \"#utility.yul\":167:191   */\n      tag_392\n        /* \"#utility.yul\":185:190   */\n      dup2\n        /* \"#utility.yul\":167:191   */\n      tag_317\n      jump\t// in\n    tag_392:\n        /* \"#utility.yul\":162:165   */\n      dup3\n        /* \"#utility.yul\":155:192   */\n      mstore\n        /* \"#utility.yul\":90:198   */\n      pop\n      pop\n      jump\t// out\n        /* \"#utility.yul\":204:330   */\n    tag_319:\n        /* \"#utility.yul\":241:248   */\n      0x00\n        /* \"#utility.yul\":281:323   */\n      0xffffffffffffffffffffffffffffffffffffffff\n        /* \"#utility.yul\":274:279   */\n      dup3\n        /* \"#utility.yul\":270:324   */\n      and\n        /* \"#utility.yul\":259:324   */\n      swap1\n      pop\n        /* \"#utility.yul\":204:330   */\n      swap2\n      swap1\n      pop\n      jump\t// out\n        /* \"#utility.yul\":336:432   */\n    tag_320:\n        /* \"#utility.yul\":373:380   */\n      0x00\n        /* \"#utility.yul\":402:426   */\n      tag_395\n        /* \"#utility.yul\":420:425   */\n      dup3\n        /* \"#utility.yul\":402:426   */\n      tag_319\n      jump\t// in\n    tag_395:\n        /* \"#utility.yul\":391:426   */\n      swap1\n      pop\n        /* \"#utility.yul\":336:432   */\n      swap2\n      swap1\n      pop\n      jump\t// out\n        /* \"#utility.yul\":438:546   */\n    tag_321:\n        /* \"#utility.yul\":515:539   */\n      tag_397\n        /* \"#utility.yul\":533:538   */\n      dup2\n        /* \"#utility.yul\":515:539   */\n      tag_320\n      jump\t// in\n    tag_397:\n        /* \"#utility.yul\":510:513   */\n      dup3\n        /* \"#utility.yul\":503:540   */\n      mstore\n        /* \"#utility.yul\":438:546   */\n      pop\n      pop\n      jump\t// out\n        /* \"#utility.yul\":552:656   */\n    tag_322:\n        /* \"#utility.yul\":597:604   */\n      0x00\n        /* \"#utility.yul\":626:650   */\n      tag_399\n        /* \"#utility.yul\":644:649   */\n      dup3\n        /* \"#utility.yul\":626:650   */\n      tag_319\n      jump\t// in\n    tag_399:\n        /* \"#utility.yul\":615:650   */\n      swap1\n      pop\n        /* \"#utility.yul\":552:656   */\n      swap2\n      swap1\n      pop\n      jump\t// out\n        /* \"#utility.yul\":662:794   */\n    tag_323:\n        /* \"#utility.yul\":755:787   */\n      tag_401\n        /* \"#utility.yul\":781:786   */\n      dup2\n        /* \"#utility.yul\":755:787   */\n      tag_322\n      jump\t// in\n    tag_401:\n        /* \"#utility.yul\":750:753   */\n      dup3\n        /* \"#utility.yul\":743:788   */\n      mstore\n        /* \"#utility.yul\":662:794   */\n      pop\n      pop\n      jump\t// out\n        /* \"#utility.yul\":800:980   */\n    tag_136:\n        /* \"#utility.yul\":848:925   */\n      0x4e487b7100000000000000000000000000000000000000000000000000000000\n        /* \"#utility.yul\":845:846   */\n      0x00\n        /* \"#utility.yul\":838:926   */\n      mstore\n        /* \"#utility.yul\":945:949   */\n      0x21\n        /* \"#utility.yul\":942:943   */\n      0x04\n        /* \"#utility.yul\":935:950   */\n      mstore\n        /* \"#utility.yul\":969:973   */\n      0x24\n        /* \"#utility.yul\":966:967   */\n      0x00\n        /* \"#utility.yul\":959:974   */\n      revert\n        /* \"#utility.yul\":986:1105   */\n    tag_324:\n        /* \"#utility.yul\":1073:1074   */\n      0x02\n        /* \"#utility.yul\":1066:1071   */\n      dup2\n        /* \"#utility.yul\":1063:1075   */\n      lt\n        /* \"#utility.yul\":1053:1099   */\n      tag_404\n      jumpi\n        /* \"#utility.yul\":1079:1097   */\n      tag_405\n      tag_136\n      jump\t// in\n    tag_405:\n        /* \"#utility.yul\":1053:1099   */\n    tag_404:\n        /* \"#utility.yul\":986:1105   */\n      pop\n      jump\t// out\n        /* \"#utility.yul\":1111:1250   */\n    tag_325:\n        /* \"#utility.yul\":1162:1169   */\n      0x00\n        /* \"#utility.yul\":1191:1196   */\n      dup2\n        /* \"#utility.yul\":1180:1196   */\n      swap1\n      pop\n        /* \"#utility.yul\":1197:1244   */\n      tag_407\n        /* \"#utility.yul\":1238:1243   */\n      dup3\n        /* \"#utility.yul\":1197:1244   */\n      tag_324\n      jump\t// in\n    tag_407:\n        /* \"#utility.yul\":1111:1250   */\n      swap2\n      swap1\n      pop\n      jump\t// out\n        /* \"#utility.yul\":1256:1395   */\n    tag_326:\n        /* \"#utility.yul\":1318:1327   */\n      0x00\n        /* \"#utility.yul\":1351:1389   */\n      tag_409\n        /* \"#utility.yul\":1383:1388   */\n      dup3\n        /* \"#utility.yul\":1351:1389   */\n      tag_325\n      jump\t// in\n    tag_409:\n        /* \"#utility.yul\":1338:1389   */\n      swap1\n      pop\n        /* \"#utility.yul\":1256:1395   */\n      swap2\n      swap1\n      pop\n      jump\t// out\n        /* \"#utility.yul\":1401:1546   */\n    tag_327:\n        /* \"#utility.yul\":1490:1539   */\n      tag_411\n        /* \"#utility.yul\":1533:1538   */\n      dup2\n        /* \"#utility.yul\":1490:1539   */\n      tag_326\n      jump\t// in\n    tag_411:\n        /* \"#utility.yul\":1485:1488   */\n      dup3\n        /* \"#utility.yul\":1478:1540   */\n      mstore\n        /* \"#utility.yul\":1401:1546   */\n      pop\n      pop\n      jump\t// out\n        /* \"#utility.yul\":1636:3079   */\n    tag_328:\n        /* \"#utility.yul\":1787:1791   */\n      0xe0\n        /* \"#utility.yul\":1782:1785   */\n      dup3\n        /* \"#utility.yul\":1778:1792   */\n      add\n        /* \"#utility.yul\":1876:1880   */\n      0x00\n        /* \"#utility.yul\":1869:1874   */\n      dup3\n        /* \"#utility.yul\":1865:1881   */\n      add\n        /* \"#utility.yul\":1859:1882   */\n      mload\n        /* \"#utility.yul\":1895:1958   */\n      tag_413\n        /* \"#utility.yul\":1952:1956   */\n      0x00\n        /* \"#utility.yul\":1947:1950   */\n      dup6\n        /* \"#utility.yul\":1943:1957   */\n      add\n        /* \"#utility.yul\":1929:1941   */\n      dup3\n        /* \"#utility.yul\":1895:1958   */\n      tag_318\n      jump\t// in\n    tag_413:\n        /* \"#utility.yul\":1802:1968   */\n      pop\n        /* \"#utility.yul\":2057:2061   */\n      0x20\n        /* \"#utility.yul\":2050:2055   */\n      dup3\n        /* \"#utility.yul\":2046:2062   */\n      add\n        /* \"#utility.yul\":2040:2063   */\n      mload\n        /* \"#utility.yul\":2076:2139   */\n      tag_414\n        /* \"#utility.yul\":2133:2137   */\n      0x20\n        /* \"#utility.yul\":2128:2131   */\n      dup6\n        /* \"#utility.yul\":2124:2138   */\n      add\n        /* \"#utility.yul\":2110:2122   */\n      dup3\n        /* \"#utility.yul\":2076:2139   */\n      tag_321\n      jump\t// in\n    tag_414:\n        /* \"#utility.yul\":1978:2149   */\n      pop\n        /* \"#utility.yul\":2234:2238   */\n      0x40\n        /* \"#utility.yul\":2227:2232   */\n      dup3\n        /* \"#utility.yul\":2223:2239   */\n      add\n        /* \"#utility.yul\":2217:2240   */\n      mload\n        /* \"#utility.yul\":2253:2316   */\n      tag_415\n        /* \"#utility.yul\":2310:2314   */\n      0x40\n        /* \"#utility.yul\":2305:2308   */\n      dup6\n        /* \"#utility.yul\":2301:2315   */\n      add\n        /* \"#utility.yul\":2287:2299   */\n      dup3\n        /* \"#utility.yul\":2253:2316   */\n      tag_318\n      jump\t// in\n    tag_415:\n        /* \"#utility.yul\":2159:2326   */\n      pop\n        /* \"#utility.yul\":2410:2414   */\n      0x60\n        /* \"#utility.yul\":2403:2408   */\n      dup3\n        /* \"#utility.yul\":2399:2415   */\n      add\n        /* \"#utility.yul\":2393:2416   */\n      mload\n        /* \"#utility.yul\":2429:2508   */\n      tag_416\n        /* \"#utility.yul\":2502:2506   */\n      0x60\n        /* \"#utility.yul\":2497:2500   */\n      dup6\n        /* \"#utility.yul\":2493:2507   */\n      add\n        /* \"#utility.yul\":2479:2491   */\n      dup3\n        /* \"#utility.yul\":2429:2508   */\n      tag_323\n      jump\t// in\n    tag_416:\n        /* \"#utility.yul\":2336:2518   */\n      pop\n        /* \"#utility.yul\":2601:2605   */\n      0x80\n        /* \"#utility.yul\":2594:2599   */\n      dup3\n        /* \"#utility.yul\":2590:2606   */\n      add\n        /* \"#utility.yul\":2584:2607   */\n      mload\n        /* \"#utility.yul\":2620:2699   */\n      tag_417\n        /* \"#utility.yul\":2693:2697   */\n      0x80\n        /* \"#utility.yul\":2688:2691   */\n      dup6\n        /* \"#utility.yul\":2684:2698   */\n      add\n        /* \"#utility.yul\":2670:2682   */\n      dup3\n        /* \"#utility.yul\":2620:2699   */\n      tag_323\n      jump\t// in\n    tag_417:\n        /* \"#utility.yul\":2528:2709   */\n      pop\n        /* \"#utility.yul\":2792:2796   */\n      0xa0\n        /* \"#utility.yul\":2785:2790   */\n      dup3\n        /* \"#utility.yul\":2781:2797   */\n      add\n        /* \"#utility.yul\":2775:2798   */\n      mload\n        /* \"#utility.yul\":2811:2874   */\n      tag_418\n        /* \"#utility.yul\":2868:2872   */\n      0xa0\n        /* \"#utility.yul\":2863:2866   */\n      dup6\n        /* \"#utility.yul\":2859:2873   */\n      add\n        /* \"#utility.yul\":2845:2857   */\n      dup3\n        /* \"#utility.yul\":2811:2874   */\n      tag_318\n      jump\t// in\n    tag_418:\n        /* \"#utility.yul\":2719:2884   */\n      pop\n        /* \"#utility.yul\":2968:2972   */\n      0xc0\n        /* \"#utility.yul\":2961:2966   */\n      dup3\n        /* \"#utility.yul\":2957:2973   */\n      add\n        /* \"#utility.yul\":2951:2974   */\n      mload\n        /* \"#utility.yul\":2987:3062   */\n      tag_419\n        /* \"#utility.yul\":3056:3060   */\n      0xc0\n        /* \"#utility.yul\":3051:3054   */\n      dup6\n        /* \"#utility.yul\":3047:3061   */\n      add\n        /* \"#utility.yul\":3033:3045   */\n      dup3\n        /* \"#utility.yul\":2987:3062   */\n      tag_327\n      jump\t// in\n    tag_419:\n        /* \"#utility.yul\":2894:3072   */\n      pop\n        /* \"#utility.yul\":1756:3079   */\n      pop\n        /* \"#utility.yul\":1636:3079   */\n      pop\n      pop\n      jump\t// out\n        /* \"#utility.yul\":3085:3416   */\n    tag_31:\n        /* \"#utility.yul\":3232:3236   */\n      0x00\n        /* \"#utility.yul\":3270:3273   */\n      0xe0\n        /* \"#utility.yul\":3259:3268   */\n      dup3\n        /* \"#utility.yul\":3255:3274   */\n      add\n        /* \"#utility.yul\":3247:3274   */\n      swap1\n      pop\n        /* \"#utility.yul\":3284:3409   */\n      tag_421\n        /* \"#utility.yul\":3406:3407   */\n      0x00\n        /* \"#utility.yul\":3395:3404   */\n      dup4\n        /* \"#utility.yul\":3391:3408   */\n      add\n        /* \"#utility.yul\":3382:3388   */\n      dup5\n        /* \"#utility.yul\":3284:3409   */\n      tag_328\n      jump\t// in\n    tag_421:\n        /* \"#utility.yul\":3085:3416   */\n      swap3\n      swap2\n      pop\n      pop\n      jump\t// out\n        /* \"#utility.yul\":3503:3620   */\n    tag_330:\n        /* \"#utility.yul\":3612:3613   */\n      0x00\n        /* \"#utility.yul\":3609:3610   */\n      dup1\n        /* \"#utility.yul\":3602:3614   */\n      revert\n        /* \"#utility.yul\":3749:3871   */\n    tag_332:\n        /* \"#utility.yul\":3822:3846   */\n      tag_426\n        /* \"#utility.yul\":3840:3845   */\n      dup2\n        /* \"#utility.yul\":3822:3846   */\n      tag_320\n      jump\t// in\n    tag_426:\n        /* \"#utility.yul\":3815:3820   */\n      dup2\n        /* \"#utility.yul\":3812:3847   */\n      eq\n        /* \"#utility.yul\":3802:3865   */\n      tag_427\n      jumpi\n        /* \"#utility.yul\":3861:3862   */\n      0x00\n        /* \"#utility.yul\":3858:3859   */\n      dup1\n        /* \"#utility.yul\":3851:3863   */\n      revert\n        /* \"#utility.yul\":3802:3865   */\n    tag_427:\n        /* \"#utility.yul\":3749:3871   */\n      pop\n      jump\t// out\n        /* \"#utility.yul\":3877:4016   */\n    tag_333:\n        /* \"#utility.yul\":3923:3928   */\n      0x00\n        /* \"#utility.yul\":3961:3967   */\n      dup2\n        /* \"#utility.yul\":3948:3968   */\n      calldataload\n        /* \"#utility.yul\":3939:3968   */\n      swap1\n      pop\n        /* \"#utility.yul\":3977:4010   */\n      tag_429\n        /* \"#utility.yul\":4004:4009   */\n      dup2\n        /* \"#utility.yul\":3977:4010   */\n      tag_332\n      jump\t// in\n    tag_429:\n        /* \"#utility.yul\":3877:4016   */\n      swap3\n      swap2\n      pop\n      pop\n      jump\t// out\n        /* \"#utility.yul\":4022:4351   */\n    tag_35:\n        /* \"#utility.yul\":4081:4087   */\n      0x00\n        /* \"#utility.yul\":4130:4132   */\n      0x20\n        /* \"#utility.yul\":4118:4127   */\n      dup3\n        /* \"#utility.yul\":4109:4116   */\n      dup5\n        /* \"#utility.yul\":4105:4128   */\n      sub\n        /* \"#utility.yul\":4101:4133   */\n      slt\n        /* \"#utility.yul\":4098:4217   */\n      iszero\n      tag_431\n      jumpi\n        /* \"#utility.yul\":4136:4215   */\n      tag_432\n      tag_330\n      jump\t// in\n    tag_432:\n        /* \"#utility.yul\":4098:4217   */\n    tag_431:\n        /* \"#utility.yul\":4256:4257   */\n      0x00\n        /* \"#utility.yul\":4281:4334   */\n      tag_433\n        /* \"#utility.yul\":4326:4333   */\n      dup5\n        /* \"#utility.yul\":4317:4323   */\n      dup3\n        /* \"#utility.yul\":4306:4315   */\n      dup6\n        /* \"#utility.yul\":4302:4324   */\n      add\n        /* \"#utility.yul\":4281:4334   */\n      tag_333\n      jump\t// in\n    tag_433:\n        /* \"#utility.yul\":4271:4334   */\n      swap2\n      pop\n        /* \"#utility.yul\":4227:4344   */\n      pop\n        /* \"#utility.yul\":4022:4351   */\n      swap3\n      swap2\n      pop\n      pop\n      jump\t// out\n        /* \"#utility.yul\":4357:4498   */\n    tag_334:\n        /* \"#utility.yul\":4451:4457   */\n      0x00\n        /* \"#utility.yul\":4485:4490   */\n      dup2\n        /* \"#utility.yul\":4479:4491   */\n      mload\n        /* \"#utility.yul\":4469:4491   */\n      swap1\n      pop\n        /* \"#utility.yul\":4357:4498   */\n      swap2\n      swap1\n      pop\n      jump\t// out\n        /* \"#utility.yul\":4504:4715   */\n    tag_335:\n        /* \"#utility.yul\":4630:4641   */\n      0x00\n        /* \"#utility.yul\":4664:4670   */\n      dup3\n        /* \"#utility.yul\":4659:4662   */\n      dup3\n        /* \"#utility.yul\":4652:4671   */\n      mstore\n        /* \"#utility.yul\":4704:4708   */\n      0x20\n        /* \"#utility.yul\":4699:4702   */\n      dup3\n        /* \"#utility.yul\":4695:4709   */\n      add\n        /* \"#utility.yul\":4680:4709   */\n      swap1\n      pop\n        /* \"#utility.yul\":4504:4715   */\n      swap3\n      swap2\n      pop\n      pop\n      jump\t// out\n        /* \"#utility.yul\":4721:4880   */\n    tag_336:\n        /* \"#utility.yul\":4815:4819   */\n      0x00\n        /* \"#utility.yul\":4838:4841   */\n      dup2\n        /* \"#utility.yul\":4830:4841   */\n      swap1\n      pop\n        /* \"#utility.yul\":4868:4872   */\n      0x20\n        /* \"#utility.yul\":4863:4866   */\n      dup3\n        /* \"#utility.yul\":4859:4873   */\n      add\n        /* \"#utility.yul\":4851:4873   */\n      swap1\n      pop\n        /* \"#utility.yul\":4721:4880   */\n      swap2\n      swap1\n      pop\n      jump\t// out\n        /* \"#utility.yul\":4970:6403   */\n    tag_337:\n        /* \"#utility.yul\":5111:5115   */\n      0xe0\n        /* \"#utility.yul\":5106:5109   */\n      dup3\n        /* \"#utility.yul\":5102:5116   */\n      add\n        /* \"#utility.yul\":5200:5204   */\n      0x00\n        /* \"#utility.yul\":5193:5198   */\n      dup3\n        /* \"#utility.yul\":5189:5205   */\n      add\n        /* \"#utility.yul\":5183:5206   */\n      mload\n        /* \"#utility.yul\":5219:5282   */\n      tag_438\n        /* \"#utility.yul\":5276:5280   */\n      0x00\n        /* \"#utility.yul\":5271:5274   */\n      dup6\n        /* \"#utility.yul\":5267:5281   */\n      add\n        /* \"#utility.yul\":5253:5265   */\n      dup3\n        /* \"#utility.yul\":5219:5282   */\n      tag_318\n      jump\t// in\n    tag_438:\n        /* \"#utility.yul\":5126:5292   */\n      pop\n        /* \"#utility.yul\":5381:5385   */\n      0x20\n        /* \"#utility.yul\":5374:5379   */\n      dup3\n        /* \"#utility.yul\":5370:5386   */\n      add\n        /* \"#utility.yul\":5364:5387   */\n      mload\n        /* \"#utility.yul\":5400:5463   */\n      tag_439\n        /* \"#utility.yul\":5457:5461   */\n      0x20\n        /* \"#utility.yul\":5452:5455   */\n      dup6\n        /* \"#utility.yul\":5448:5462   */\n      add\n        /* \"#utility.yul\":5434:5446   */\n      dup3\n        /* \"#utility.yul\":5400:5463   */\n      tag_321\n      jump\t// in\n    tag_439:\n        /* \"#utility.yul\":5302:5473   */\n      pop\n        /* \"#utility.yul\":5558:5562   */\n      0x40\n        /* \"#utility.yul\":5551:5556   */\n      dup3\n        /* \"#utility.yul\":5547:5563   */\n      add\n        /* \"#utility.yul\":5541:5564   */\n      mload\n        /* \"#utility.yul\":5577:5640   */\n      tag_440\n        /* \"#utility.yul\":5634:5638   */\n      0x40\n        /* \"#utility.yul\":5629:5632   */\n      dup6\n        /* \"#utility.yul\":5625:5639   */\n      add\n        /* \"#utility.yul\":5611:5623   */\n      dup3\n        /* \"#utility.yul\":5577:5640   */\n      tag_318\n      jump\t// in\n    tag_440:\n        /* \"#utility.yul\":5483:5650   */\n      pop\n        /* \"#utility.yul\":5734:5738   */\n      0x60\n        /* \"#utility.yul\":5727:5732   */\n      dup3\n        /* \"#utility.yul\":5723:5739   */\n      add\n        /* \"#utility.yul\":5717:5740   */\n      mload\n        /* \"#utility.yul\":5753:5832   */\n      tag_441\n        /* \"#utility.yul\":5826:5830   */\n      0x60\n        /* \"#utility.yul\":5821:5824   */\n      dup6\n        /* \"#utility.yul\":5817:5831   */\n      add\n        /* \"#utility.yul\":5803:5815   */\n      dup3\n        /* \"#utility.yul\":5753:5832   */\n      tag_323\n      jump\t// in\n    tag_441:\n        /* \"#utility.yul\":5660:5842   */\n      pop\n        /* \"#utility.yul\":5925:5929   */\n      0x80\n        /* \"#utility.yul\":5918:5923   */\n      dup3\n        /* \"#utility.yul\":5914:5930   */\n      add\n        /* \"#utility.yul\":5908:5931   */\n      mload\n        /* \"#utility.yul\":5944:6023   */\n      tag_442\n        /* \"#utility.yul\":6017:6021   */\n      0x80\n        /* \"#utility.yul\":6012:6015   */\n      dup6\n        /* \"#utility.yul\":6008:6022   */\n      add\n        /* \"#utility.yul\":5994:6006   */\n      dup3\n        /* \"#utility.yul\":5944:6023   */\n      tag_323\n      jump\t// in\n    tag_442:\n        /* \"#utility.yul\":5852:6033   */\n      pop\n        /* \"#utility.yul\":6116:6120   */\n      0xa0\n        /* \"#utility.yul\":6109:6114   */\n      dup3\n        /* \"#utility.yul\":6105:6121   */\n      add\n        /* \"#utility.yul\":6099:6122   */\n      mload\n        /* \"#utility.yul\":6135:6198   */\n      tag_443\n        /* \"#utility.yul\":6192:6196   */\n      0xa0\n        /* \"#utility.yul\":6187:6190   */\n      dup6\n        /* \"#utility.yul\":6183:6197   */\n      add\n        /* \"#utility.yul\":6169:6181   */\n      dup3\n        /* \"#utility.yul\":6135:6198   */\n      tag_318\n      jump\t// in\n    tag_443:\n        /* \"#utility.yul\":6043:6208   */\n      pop\n        /* \"#utility.yul\":6292:6296   */\n      0xc0\n        /* \"#utility.yul\":6285:6290   */\n      dup3\n        /* \"#utility.yul\":6281:6297   */\n      add\n        /* \"#utility.yul\":6275:6298   */\n      mload\n        /* \"#utility.yul\":6311:6386   */\n      tag_444\n        /* \"#utility.yul\":6380:6384   */\n      0xc0\n        /* \"#utility.yul\":6375:6378   */\n      dup6\n        /* \"#utility.yul\":6371:6385   */\n      add\n        /* \"#utility.yul\":6357:6369   */\n      dup3\n        /* \"#utility.yul\":6311:6386   */\n      tag_327\n      jump\t// in\n    tag_444:\n        /* \"#utility.yul\":6218:6396   */\n      pop\n        /* \"#utility.yul\":5080:6403   */\n      pop\n        /* \"#utility.yul\":4970:6403   */\n      pop\n      pop\n      jump\t// out\n        /* \"#utility.yul\":6409:6696   */\n    tag_338:\n        /* \"#utility.yul\":6532:6542   */\n      0x00\n        /* \"#utility.yul\":6553:6653   */\n      tag_446\n        /* \"#utility.yul\":6649:6652   */\n      dup4\n        /* \"#utility.yul\":6641:6647   */\n      dup4\n        /* \"#utility.yul\":6553:6653   */\n      tag_337\n      jump\t// in\n    tag_446:\n        /* \"#utility.yul\":6685:6689   */\n      0xe0\n        /* \"#utility.yul\":6680:6683   */\n      dup4\n        /* \"#utility.yul\":6676:6690   */\n      add\n        /* \"#utility.yul\":6662:6690   */\n      swap1\n      pop\n        /* \"#utility.yul\":6409:6696   */\n      swap3\n      swap2\n      pop\n      pop\n      jump\t// out\n        /* \"#utility.yul\":6702:6842   */\n    tag_339:\n        /* \"#utility.yul\":6799:6803   */\n      0x00\n        /* \"#utility.yul\":6831:6835   */\n      0x20\n        /* \"#utility.yul\":6826:6829   */\n      dup3\n        /* \"#utility.yul\":6822:6836   */\n      add\n        /* \"#utility.yul\":6814:6836   */\n      swap1\n      pop\n        /* \"#utility.yul\":6702:6842   */\n      swap2\n      swap1\n      pop\n      jump\t// out\n        /* \"#utility.yul\":6936:7884   */\n    tag_340:\n        /* \"#utility.yul\":7109:7112   */\n      0x00\n        /* \"#utility.yul\":7138:7219   */\n      tag_449\n        /* \"#utility.yul\":7213:7218   */\n      dup3\n        /* \"#utility.yul\":7138:7219   */\n      tag_334\n      jump\t// in\n    tag_449:\n        /* \"#utility.yul\":7235:7348   */\n      tag_450\n        /* \"#utility.yul\":7341:7347   */\n      dup2\n        /* \"#utility.yul\":7336:7339   */\n      dup6\n        /* \"#utility.yul\":7235:7348   */\n      tag_335\n      jump\t// in\n    tag_450:\n        /* \"#utility.yul\":7228:7348   */\n      swap4\n      pop\n        /* \"#utility.yul\":7372:7455   */\n      tag_451\n        /* \"#utility.yul\":7449:7454   */\n      dup4\n        /* \"#utility.yul\":7372:7455   */\n      tag_336\n      jump\t// in\n    tag_451:\n        /* \"#utility.yul\":7478:7485   */\n      dup1\n        /* \"#utility.yul\":7509:7510   */\n      0x00\n        /* \"#utility.yul\":7494:7859   */\n    tag_452:\n        /* \"#utility.yul\":7519:7525   */\n      dup4\n        /* \"#utility.yul\":7516:7517   */\n      dup2\n        /* \"#utility.yul\":7513:7526   */\n      lt\n        /* \"#utility.yul\":7494:7859   */\n      iszero\n      tag_454\n      jumpi\n        /* \"#utility.yul\":7595:7601   */\n      dup2\n        /* \"#utility.yul\":7589:7602   */\n      mload\n        /* \"#utility.yul\":7622:7739   */\n      tag_455\n        /* \"#utility.yul\":7735:7738   */\n      dup9\n        /* \"#utility.yul\":7720:7733   */\n      dup3\n        /* \"#utility.yul\":7622:7739   */\n      tag_338\n      jump\t// in\n    tag_455:\n        /* \"#utility.yul\":7615:7739   */\n      swap8\n      pop\n        /* \"#utility.yul\":7762:7849   */\n      tag_456\n        /* \"#utility.yul\":7842:7848   */\n      dup4\n        /* \"#utility.yul\":7762:7849   */\n      tag_339\n      jump\t// in\n    tag_456:\n        /* \"#utility.yul\":7752:7849   */\n      swap3\n      pop\n        /* \"#utility.yul\":7554:7859   */\n      pop\n        /* \"#utility.yul\":7541:7542   */\n      0x01\n        /* \"#utility.yul\":7538:7539   */\n      dup2\n        /* \"#utility.yul\":7534:7543   */\n      add\n        /* \"#utility.yul\":7529:7543   */\n      swap1\n      pop\n        /* \"#utility.yul\":7494:7859   */\n      jump(tag_452)\n    tag_454:\n        /* \"#utility.yul\":7498:7512   */\n      pop\n        /* \"#utility.yul\":7875:7878   */\n      dup6\n        /* \"#utility.yul\":7868:7878   */\n      swap4\n      pop\n        /* \"#utility.yul\":7114:7884   */\n      pop\n      pop\n      pop\n        /* \"#utility.yul\":6936:7884   */\n      swap3\n      swap2\n      pop\n      pop\n      jump\t// out\n        /* \"#utility.yul\":7890:8371   */\n    tag_41:\n        /* \"#utility.yul\":8087:8091   */\n      0x00\n        /* \"#utility.yul\":8125:8127   */\n      0x20\n        /* \"#utility.yul\":8114:8123   */\n      dup3\n        /* \"#utility.yul\":8110:8128   */\n      add\n        /* \"#utility.yul\":8102:8128   */\n      swap1\n      pop\n        /* \"#utility.yul\":8174:8183   */\n      dup2\n        /* \"#utility.yul\":8168:8172   */\n      dup2\n        /* \"#utility.yul\":8164:8184   */\n      sub\n        /* \"#utility.yul\":8160:8161   */\n      0x00\n        /* \"#utility.yul\":8149:8158   */\n      dup4\n        /* \"#utility.yul\":8145:8162   */\n      add\n        /* \"#utility.yul\":8138:8185   */\n      mstore\n        /* \"#utility.yul\":8202:8364   */\n      tag_458\n        /* \"#utility.yul\":8359:8363   */\n      dup2\n        /* \"#utility.yul\":8350:8356   */\n      dup5\n        /* \"#utility.yul\":8202:8364   */\n      tag_340\n      jump\t// in\n    tag_458:\n        /* \"#utility.yul\":8194:8364   */\n      swap1\n      pop\n        /* \"#utility.yul\":7890:8371   */\n      swap3\n      swap2\n      pop\n      pop\n      jump\t// out\n        /* \"#utility.yul\":8377:8499   */\n    tag_341:\n        /* \"#utility.yul\":8450:8474   */\n      tag_460\n        /* \"#utility.yul\":8468:8473   */\n      dup2\n        /* \"#utility.yul\":8450:8474   */\n      tag_317\n      jump\t// in\n    tag_460:\n        /* \"#utility.yul\":8443:8448   */\n      dup2\n        /* \"#utility.yul\":8440:8475   */\n      eq\n        /* \"#utility.yul\":8430:8493   */\n      tag_461\n      jumpi\n        /* \"#utility.yul\":8489:8490   */\n      0x00\n        /* \"#utility.yul\":8486:8487   */\n      dup1\n        /* \"#utility.yul\":8479:8491   */\n      revert\n        /* \"#utility.yul\":8430:8493   */\n    tag_461:\n        /* \"#utility.yul\":8377:8499   */\n      pop\n      jump\t// out\n        /* \"#utility.yul\":8505:8644   */\n    tag_342:\n        /* \"#utility.yul\":8551:8556   */\n      0x00\n        /* \"#utility.yul\":8589:8595   */\n      dup2\n        /* \"#utility.yul\":8576:8596   */\n      calldataload\n        /* \"#utility.yul\":8567:8596   */\n      swap1\n      pop\n        /* \"#utility.yul\":8605:8638   */\n      tag_463\n        /* \"#utility.yul\":8632:8637   */\n      dup2\n        /* \"#utility.yul\":8605:8638   */\n      tag_341\n      jump\t// in\n    tag_463:\n        /* \"#utility.yul\":8505:8644   */\n      swap3\n      swap2\n      pop\n      pop\n      jump\t// out\n        /* \"#utility.yul\":8650:8979   */\n    tag_49:\n        /* \"#utility.yul\":8709:8715   */\n      0x00\n        /* \"#utility.yul\":8758:8760   */\n      0x20\n        /* \"#utility.yul\":8746:8755   */\n      dup3\n        /* \"#utility.yul\":8737:8744   */\n      dup5\n        /* \"#utility.yul\":8733:8756   */\n      sub\n        /* \"#utility.yul\":8729:8761   */\n      slt\n        /* \"#utility.yul\":8726:8845   */\n      iszero\n      tag_465\n      jumpi\n        /* \"#utility.yul\":8764:8843   */\n      tag_466\n      tag_330\n      jump\t// in\n    tag_466:\n        /* \"#utility.yul\":8726:8845   */\n    tag_465:\n        /* \"#utility.yul\":8884:8885   */\n      0x00\n        /* \"#utility.yul\":8909:8962   */\n      tag_467\n        /* \"#utility.yul\":8954:8961   */\n      dup5\n        /* \"#utility.yul\":8945:8951   */\n      dup3\n        /* \"#utility.yul\":8934:8943   */\n      dup6\n        /* \"#utility.yul\":8930:8952   */\n      add\n        /* \"#utility.yul\":8909:8962   */\n      tag_342\n      jump\t// in\n    tag_467:\n        /* \"#utility.yul\":8899:8962   */\n      swap2\n      pop\n        /* \"#utility.yul\":8855:8972   */\n      pop\n        /* \"#utility.yul\":8650:8979   */\n      swap3\n      swap2\n      pop\n      pop\n      jump\t// out\n        /* \"#utility.yul\":8985:9134   */\n    tag_343:\n        /* \"#utility.yul\":9021:9028   */\n      0x00\n        /* \"#utility.yul\":9061:9127   */\n      0xffffffff00000000000000000000000000000000000000000000000000000000\n        /* \"#utility.yul\":9054:9059   */\n      dup3\n        /* \"#utility.yul\":9050:9128   */\n      and\n        /* \"#utility.yul\":9039:9128   */\n      swap1\n      pop\n        /* \"#utility.yul\":8985:9134   */\n      swap2\n      swap1\n      pop\n      jump\t// out\n        /* \"#utility.yul\":9140:9255   */\n    tag_344:\n        /* \"#utility.yul\":9225:9248   */\n      tag_470\n        /* \"#utility.yul\":9242:9247   */\n      dup2\n        /* \"#utility.yul\":9225:9248   */\n      tag_343\n      jump\t// in\n    tag_470:\n        /* \"#utility.yul\":9220:9223   */\n      dup3\n        /* \"#utility.yul\":9213:9249   */\n      mstore\n        /* \"#utility.yul\":9140:9255   */\n      pop\n      pop\n      jump\t// out\n        /* \"#utility.yul\":9261:9479   */\n    tag_56:\n        /* \"#utility.yul\":9352:9356   */\n      0x00\n        /* \"#utility.yul\":9390:9392   */\n      0x20\n        /* \"#utility.yul\":9379:9388   */\n      dup3\n        /* \"#utility.yul\":9375:9393   */\n      add\n        /* \"#utility.yul\":9367:9393   */\n      swap1\n      pop\n        /* \"#utility.yul\":9403:9472   */\n      tag_472\n        /* \"#utility.yul\":9469:9470   */\n      0x00\n        /* \"#utility.yul\":9458:9467   */\n      dup4\n        /* \"#utility.yul\":9454:9471   */\n      add\n        /* \"#utility.yul\":9445:9451   */\n      dup5\n        /* \"#utility.yul\":9403:9472   */\n      tag_344\n      jump\t// in\n    tag_472:\n        /* \"#utility.yul\":9261:9479   */\n      swap3\n      swap2\n      pop\n      pop\n      jump\t// out\n        /* \"#utility.yul\":9485:9545   */\n    tag_345:\n        /* \"#utility.yul\":9513:9516   */\n      0x00\n        /* \"#utility.yul\":9534:9539   */\n      dup2\n        /* \"#utility.yul\":9527:9539   */\n      swap1\n      pop\n        /* \"#utility.yul\":9485:9545   */\n      swap2\n      swap1\n      pop\n      jump\t// out\n        /* \"#utility.yul\":9551:9693   */\n    tag_346:\n        /* \"#utility.yul\":9601:9610   */\n      0x00\n        /* \"#utility.yul\":9634:9687   */\n      tag_475\n        /* \"#utility.yul\":9652:9686   */\n      tag_476\n        /* \"#utility.yul\":9661:9685   */\n      tag_477\n        /* \"#utility.yul\":9679:9684   */\n      dup5\n        /* \"#utility.yul\":9661:9685   */\n      tag_319\n      jump\t// in\n    tag_477:\n        /* \"#utility.yul\":9652:9686   */\n      tag_345\n      jump\t// in\n    tag_476:\n        /* \"#utility.yul\":9634:9687   */\n      tag_319\n      jump\t// in\n    tag_475:\n        /* \"#utility.yul\":9621:9687   */\n      swap1\n      pop\n        /* \"#utility.yul\":9551:9693   */\n      swap2\n      swap1\n      pop\n      jump\t// out\n        /* \"#utility.yul\":9699:9825   */\n    tag_347:\n        /* \"#utility.yul\":9749:9758   */\n      0x00\n        /* \"#utility.yul\":9782:9819   */\n      tag_479\n        /* \"#utility.yul\":9813:9818   */\n      dup3\n        /* \"#utility.yul\":9782:9819   */\n      tag_346\n      jump\t// in\n    tag_479:\n        /* \"#utility.yul\":9769:9819   */\n      swap1\n      pop\n        /* \"#utility.yul\":9699:9825   */\n      swap2\n      swap1\n      pop\n      jump\t// out\n        /* \"#utility.yul\":9831:9971   */\n    tag_348:\n        /* \"#utility.yul\":9895:9904   */\n      0x00\n        /* \"#utility.yul\":9928:9965   */\n      tag_481\n        /* \"#utility.yul\":9959:9964   */\n      dup3\n        /* \"#utility.yul\":9928:9965   */\n      tag_347\n      jump\t// in\n    tag_481:\n        /* \"#utility.yul\":9915:9965   */\n      swap1\n      pop\n        /* \"#utility.yul\":9831:9971   */\n      swap2\n      swap1\n      pop\n      jump\t// out\n        /* \"#utility.yul\":9977:10136   */\n    tag_349:\n        /* \"#utility.yul\":10078:10129   */\n      tag_483\n        /* \"#utility.yul\":10123:10128   */\n      dup2\n        /* \"#utility.yul\":10078:10129   */\n      tag_348\n      jump\t// in\n    tag_483:\n        /* \"#utility.yul\":10073:10076   */\n      dup3\n        /* \"#utility.yul\":10066:10130   */\n      mstore\n        /* \"#utility.yul\":9977:10136   */\n      pop\n      pop\n      jump\t// out\n        /* \"#utility.yul\":10142:10392   */\n    tag_61:\n        /* \"#utility.yul\":10249:10253   */\n      0x00\n        /* \"#utility.yul\":10287:10289   */\n      0x20\n        /* \"#utility.yul\":10276:10285   */\n      dup3\n        /* \"#utility.yul\":10272:10290   */\n      add\n        /* \"#utility.yul\":10264:10290   */\n      swap1\n      pop\n        /* \"#utility.yul\":10300:10385   */\n      tag_485\n        /* \"#utility.yul\":10382:10383   */\n      0x00\n        /* \"#utility.yul\":10371:10380   */\n      dup4\n        /* \"#utility.yul\":10367:10384   */\n      add\n        /* \"#utility.yul\":10358:10364   */\n      dup5\n        /* \"#utility.yul\":10300:10385   */\n      tag_349\n      jump\t// in\n    tag_485:\n        /* \"#utility.yul\":10142:10392   */\n      swap3\n      swap2\n      pop\n      pop\n      jump\t// out\n        /* \"#utility.yul\":10398:10516   */\n    tag_350:\n        /* \"#utility.yul\":10485:10509   */\n      tag_487\n        /* \"#utility.yul\":10503:10508   */\n      dup2\n        /* \"#utility.yul\":10485:10509   */\n      tag_317\n      jump\t// in\n    tag_487:\n        /* \"#utility.yul\":10480:10483   */\n      dup3\n        /* \"#utility.yul\":10473:10510   */\n      mstore\n        /* \"#utility.yul\":10398:10516   */\n      pop\n      pop\n      jump\t// out\n        /* \"#utility.yul\":10522:10640   */\n    tag_351:\n        /* \"#utility.yul\":10609:10633   */\n      tag_489\n        /* \"#utility.yul\":10627:10632   */\n      dup2\n        /* \"#utility.yul\":10609:10633   */\n      tag_320\n      jump\t// in\n    tag_489:\n        /* \"#utility.yul\":10604:10607   */\n      dup3\n        /* \"#utility.yul\":10597:10634   */\n      mstore\n        /* \"#utility.yul\":10522:10640   */\n      pop\n      pop\n      jump\t// out\n        /* \"#utility.yul\":10646:10788   */\n    tag_352:\n        /* \"#utility.yul\":10749:10781   */\n      tag_491\n        /* \"#utility.yul\":10775:10780   */\n      dup2\n        /* \"#utility.yul\":10749:10781   */\n      tag_322\n      jump\t// in\n    tag_491:\n        /* \"#utility.yul\":10744:10747   */\n      dup3\n        /* \"#utility.yul\":10737:10782   */\n      mstore\n        /* \"#utility.yul\":10646:10788   */\n      pop\n      pop\n      jump\t// out\n        /* \"#utility.yul\":10794:10949   */\n    tag_353:\n        /* \"#utility.yul\":10893:10942   */\n      tag_493\n        /* \"#utility.yul\":10936:10941   */\n      dup2\n        /* \"#utility.yul\":10893:10942   */\n      tag_326\n      jump\t// in\n    tag_493:\n        /* \"#utility.yul\":10888:10891   */\n      dup3\n        /* \"#utility.yul\":10881:10943   */\n      mstore\n        /* \"#utility.yul\":10794:10949   */\n      pop\n      pop\n      jump\t// out\n        /* \"#utility.yul\":10955:11929   */\n    tag_66:\n        /* \"#utility.yul\":11260:11264   */\n      0x00\n        /* \"#utility.yul\":11298:11301   */\n      0xe0\n        /* \"#utility.yul\":11287:11296   */\n      dup3\n        /* \"#utility.yul\":11283:11302   */\n      add\n        /* \"#utility.yul\":11275:11302   */\n      swap1\n      pop\n        /* \"#utility.yul\":11312:11383   */\n      tag_495\n        /* \"#utility.yul\":11380:11381   */\n      0x00\n        /* \"#utility.yul\":11369:11378   */\n      dup4\n        /* \"#utility.yul\":11365:11382   */\n      add\n        /* \"#utility.yul\":11356:11362   */\n      dup11\n        /* \"#utility.yul\":11312:11383   */\n      tag_350\n      jump\t// in\n    tag_495:\n        /* \"#utility.yul\":11393:11465   */\n      tag_496\n        /* \"#utility.yul\":11461:11463   */\n      0x20\n        /* \"#utility.yul\":11450:11459   */\n      dup4\n        /* \"#utility.yul\":11446:11464   */\n      add\n        /* \"#utility.yul\":11437:11443   */\n      dup10\n        /* \"#utility.yul\":11393:11465   */\n      tag_351\n      jump\t// in\n    tag_496:\n        /* \"#utility.yul\":11475:11547   */\n      tag_497\n        /* \"#utility.yul\":11543:11545   */\n      0x40\n        /* \"#utility.yul\":11532:11541   */\n      dup4\n        /* \"#utility.yul\":11528:11546   */\n      add\n        /* \"#utility.yul\":11519:11525   */\n      dup9\n        /* \"#utility.yul\":11475:11547   */\n      tag_350\n      jump\t// in\n    tag_497:\n        /* \"#utility.yul\":11557:11645   */\n      tag_498\n        /* \"#utility.yul\":11641:11643   */\n      0x60\n        /* \"#utility.yul\":11630:11639   */\n      dup4\n        /* \"#utility.yul\":11626:11644   */\n      add\n        /* \"#utility.yul\":11617:11623   */\n      dup8\n        /* \"#utility.yul\":11557:11645   */\n      tag_352\n      jump\t// in\n    tag_498:\n        /* \"#utility.yul\":11655:11744   */\n      tag_499\n        /* \"#utility.yul\":11739:11742   */\n      0x80\n        /* \"#utility.yul\":11728:11737   */\n      dup4\n        /* \"#utility.yul\":11724:11743   */\n      add\n        /* \"#utility.yul\":11715:11721   */\n      dup7\n        /* \"#utility.yul\":11655:11744   */\n      tag_352\n      jump\t// in\n    tag_499:\n        /* \"#utility.yul\":11754:11827   */\n      tag_500\n        /* \"#utility.yul\":11822:11825   */\n      0xa0\n        /* \"#utility.yul\":11811:11820   */\n      dup4\n        /* \"#utility.yul\":11807:11826   */\n      add\n        /* \"#utility.yul\":11798:11804   */\n      dup6\n        /* \"#utility.yul\":11754:11827   */\n      tag_350\n      jump\t// in\n    tag_500:\n        /* \"#utility.yul\":11837:11922   */\n      tag_501\n        /* \"#utility.yul\":11917:11920   */\n      0xc0\n        /* \"#utility.yul\":11906:11915   */\n      dup4\n        /* \"#utility.yul\":11902:11921   */\n      add\n        /* \"#utility.yul\":11893:11899   */\n      dup5\n        /* \"#utility.yul\":11837:11922   */\n      tag_353\n      jump\t// in\n    tag_501:\n        /* \"#utility.yul\":10955:11929   */\n      swap9\n      swap8\n      pop\n      pop\n      pop\n      pop\n      pop\n      pop\n      pop\n      pop\n      jump\t// out\n        /* \"#utility.yul\":11935:12554   */\n    tag_69:\n        /* \"#utility.yul\":12012:12018   */\n      0x00\n        /* \"#utility.yul\":12020:12026   */\n      dup1\n        /* \"#utility.yul\":12028:12034   */\n      0x00\n        /* \"#utility.yul\":12077:12079   */\n      0x60\n        /* \"#utility.yul\":12065:12074   */\n      dup5\n        /* \"#utility.yul\":12056:12063   */\n      dup7\n        /* \"#utility.yul\":12052:12075   */\n      sub\n        /* \"#utility.yul\":12048:12080   */\n      slt\n        /* \"#utility.yul\":12045:12164   */\n      iszero\n      tag_503\n      jumpi\n        /* \"#utility.yul\":12083:12162   */\n      tag_504\n      tag_330\n      jump\t// in\n    tag_504:\n        /* \"#utility.yul\":12045:12164   */\n    tag_503:\n        /* \"#utility.yul\":12203:12204   */\n      0x00\n        /* \"#utility.yul\":12228:12281   */\n      tag_505\n        /* \"#utility.yul\":12273:12280   */\n      dup7\n        /* \"#utility.yul\":12264:12270   */\n      dup3\n        /* \"#utility.yul\":12253:12262   */\n      dup8\n        /* \"#utility.yul\":12249:12271   */\n      add\n        /* \"#utility.yul\":12228:12281   */\n      tag_333\n      jump\t// in\n    tag_505:\n        /* \"#utility.yul\":12218:12281   */\n      swap4\n      pop\n        /* \"#utility.yul\":12174:12291   */\n      pop\n        /* \"#utility.yul\":12330:12332   */\n      0x20\n        /* \"#utility.yul\":12356:12409   */\n      tag_506\n        /* \"#utility.yul\":12401:12408   */\n      dup7\n        /* \"#utility.yul\":12392:12398   */\n      dup3\n        /* \"#utility.yul\":12381:12390   */\n      dup8\n        /* \"#utility.yul\":12377:12399   */\n      add\n        /* \"#utility.yul\":12356:12409   */\n      tag_342\n      jump\t// in\n    tag_506:\n        /* \"#utility.yul\":12346:12409   */\n      swap3\n      pop\n        /* \"#utility.yul\":12301:12419   */\n      pop\n        /* \"#utility.yul\":12458:12460   */\n      0x40\n        /* \"#utility.yul\":12484:12537   */\n      tag_507\n        /* \"#utility.yul\":12529:12536   */\n      dup7\n        /* \"#utility.yul\":12520:12526   */\n      dup3\n        /* \"#utility.yul\":12509:12518   */\n      dup8\n        /* \"#utility.yul\":12505:12527   */\n      add\n        /* \"#utility.yul\":12484:12537   */\n      tag_342\n      jump\t// in\n    tag_507:\n        /* \"#utility.yul\":12474:12537   */\n      swap2\n      pop\n        /* \"#utility.yul\":12429:12547   */\n      pop\n        /* \"#utility.yul\":11935:12554   */\n      swap3\n      pop\n      swap3\n      pop\n      swap3\n      jump\t// out\n        /* \"#utility.yul\":12560:13034   */\n    tag_78:\n        /* \"#utility.yul\":12628:12634   */\n      0x00\n        /* \"#utility.yul\":12636:12642   */\n      dup1\n        /* \"#utility.yul\":12685:12687   */\n      0x40\n        /* \"#utility.yul\":12673:12682   */\n      dup4\n        /* \"#utility.yul\":12664:12671   */\n      dup6\n        /* \"#utility.yul\":12660:12683   */\n      sub\n        /* \"#utility.yul\":12656:12688   */\n      slt\n        /* \"#utility.yul\":12653:12772   */\n      iszero\n      tag_509\n      jumpi\n        /* \"#utility.yul\":12691:12770   */\n      tag_510\n      tag_330\n      jump\t// in\n    tag_510:\n        /* \"#utility.yul\":12653:12772   */\n    tag_509:\n        /* \"#utility.yul\":12811:12812   */\n      0x00\n        /* \"#utility.yul\":12836:12889   */\n      tag_511\n        /* \"#utility.yul\":12881:12888   */\n      dup6\n        /* \"#utility.yul\":12872:12878   */\n      dup3\n        /* \"#utility.yul\":12861:12870   */\n      dup7\n        /* \"#utility.yul\":12857:12879   */\n      add\n        /* \"#utility.yul\":12836:12889   */\n      tag_333\n      jump\t// in\n    tag_511:\n        /* \"#utility.yul\":12826:12889   */\n      swap3\n      pop\n        /* \"#utility.yul\":12782:12899   */\n      pop\n        /* \"#utility.yul\":12938:12940   */\n      0x20\n        /* \"#utility.yul\":12964:13017   */\n      tag_512\n        /* \"#utility.yul\":13009:13016   */\n      dup6\n        /* \"#utility.yul\":13000:13006   */\n      dup3\n        /* \"#utility.yul\":12989:12998   */\n      dup7\n        /* \"#utility.yul\":12985:13007   */\n      add\n        /* \"#utility.yul\":12964:13017   */\n      tag_342\n      jump\t// in\n    tag_512:\n        /* \"#utility.yul\":12954:13017   */\n      swap2\n      pop\n        /* \"#utility.yul\":12909:13027   */\n      pop\n        /* \"#utility.yul\":12560:13034   */\n      swap3\n      pop\n      swap3\n      swap1\n      pop\n      jump\t// out\n        /* \"#utility.yul\":13040:13126   */\n    tag_354:\n        /* \"#utility.yul\":13075:13082   */\n      0x00\n        /* \"#utility.yul\":13115:13119   */\n      0xff\n        /* \"#utility.yul\":13108:13113   */\n      dup3\n        /* \"#utility.yul\":13104:13120   */\n      and\n        /* \"#utility.yul\":13093:13120   */\n      swap1\n      pop\n        /* \"#utility.yul\":13040:13126   */\n      swap2\n      swap1\n      pop\n      jump\t// out\n        /* \"#utility.yul\":13132:13244   */\n    tag_355:\n        /* \"#utility.yul\":13215:13237   */\n      tag_515\n        /* \"#utility.yul\":13231:13236   */\n      dup2\n        /* \"#utility.yul\":13215:13237   */\n      tag_354\n      jump\t// in\n    tag_515:\n        /* \"#utility.yul\":13210:13213   */\n      dup3\n        /* \"#utility.yul\":13203:13238   */\n      mstore\n        /* \"#utility.yul\":13132:13244   */\n      pop\n      pop\n      jump\t// out\n        /* \"#utility.yul\":13250:13464   */\n    tag_88:\n        /* \"#utility.yul\":13339:13343   */\n      0x00\n        /* \"#utility.yul\":13377:13379   */\n      0x20\n        /* \"#utility.yul\":13366:13375   */\n      dup3\n        /* \"#utility.yul\":13362:13380   */\n      add\n        /* \"#utility.yul\":13354:13380   */\n      swap1\n      pop\n        /* \"#utility.yul\":13390:13457   */\n      tag_517\n        /* \"#utility.yul\":13454:13455   */\n      0x00\n        /* \"#utility.yul\":13443:13452   */\n      dup4\n        /* \"#utility.yul\":13439:13456   */\n      add\n        /* \"#utility.yul\":13430:13436   */\n      dup5\n        /* \"#utility.yul\":13390:13457   */\n      tag_355\n      jump\t// in\n    tag_517:\n        /* \"#utility.yul\":13250:13464   */\n      swap3\n      swap2\n      pop\n      pop\n      jump\t// out\n        /* \"#utility.yul\":13470:13692   */\n    tag_93:\n        /* \"#utility.yul\":13563:13567   */\n      0x00\n        /* \"#utility.yul\":13601:13603   */\n      0x20\n        /* \"#utility.yul\":13590:13599   */\n      dup3\n        /* \"#utility.yul\":13586:13604   */\n      add\n        /* \"#utility.yul\":13578:13604   */\n      swap1\n      pop\n        /* \"#utility.yul\":13614:13685   */\n      tag_519\n        /* \"#utility.yul\":13682:13683   */\n      0x00\n        /* \"#utility.yul\":13671:13680   */\n      dup4\n        /* \"#utility.yul\":13667:13684   */\n      add\n        /* \"#utility.yul\":13658:13664   */\n      dup5\n        /* \"#utility.yul\":13614:13685   */\n      tag_351\n      jump\t// in\n    tag_519:\n        /* \"#utility.yul\":13470:13692   */\n      swap3\n      swap2\n      pop\n      pop\n      jump\t// out\n        /* \"#utility.yul\":13698:14172   */\n    tag_97:\n        /* \"#utility.yul\":13766:13772   */\n      0x00\n        /* \"#utility.yul\":13774:13780   */\n      dup1\n        /* \"#utility.yul\":13823:13825   */\n      0x40\n        /* \"#utility.yul\":13811:13820   */\n      dup4\n        /* \"#utility.yul\":13802:13809   */\n      dup6\n        /* \"#utility.yul\":13798:13821   */\n      sub\n        /* \"#utility.yul\":13794:13826   */\n      slt\n        /* \"#utility.yul\":13791:13910   */\n      iszero\n      tag_521\n      jumpi\n        /* \"#utility.yul\":13829:13908   */\n      tag_522\n      tag_330\n      jump\t// in\n    tag_522:\n        /* \"#utility.yul\":13791:13910   */\n    tag_521:\n        /* \"#utility.yul\":13949:13950   */\n      0x00\n        /* \"#utility.yul\":13974:14027   */\n      tag_523\n        /* \"#utility.yul\":14019:14026   */\n      dup6\n        /* \"#utility.yul\":14010:14016   */\n      dup3\n        /* \"#utility.yul\":13999:14008   */\n      dup7\n        /* \"#utility.yul\":13995:14017   */\n      add\n        /* \"#utility.yul\":13974:14027   */\n      tag_342\n      jump\t// in\n    tag_523:\n        /* \"#utility.yul\":13964:14027   */\n      swap3\n      pop\n        /* \"#utility.yul\":13920:14037   */\n      pop\n        /* \"#utility.yul\":14076:14078   */\n      0x20\n        /* \"#utility.yul\":14102:14155   */\n      tag_524\n        /* \"#utility.yul\":14147:14154   */\n      dup6\n        /* \"#utility.yul\":14138:14144   */\n      dup3\n        /* \"#utility.yul\":14127:14136   */\n      dup7\n        /* \"#utility.yul\":14123:14145   */\n      add\n        /* \"#utility.yul\":14102:14155   */\n      tag_342\n      jump\t// in\n    tag_524:\n        /* \"#utility.yul\":14092:14155   */\n      swap2\n      pop\n        /* \"#utility.yul\":14047:14165   */\n      pop\n        /* \"#utility.yul\":13698:14172   */\n      swap3\n      pop\n      swap3\n      swap1\n      pop\n      jump\t// out\n        /* \"#utility.yul\":14178:14320   */\n    tag_356:\n        /* \"#utility.yul\":14244:14253   */\n      0x00\n        /* \"#utility.yul\":14277:14314   */\n      tag_526\n        /* \"#utility.yul\":14308:14313   */\n      dup3\n        /* \"#utility.yul\":14277:14314   */\n      tag_347\n      jump\t// in\n    tag_526:\n        /* \"#utility.yul\":14264:14314   */\n      swap1\n      pop\n        /* \"#utility.yul\":14178:14320   */\n      swap2\n      swap1\n      pop\n      jump\t// out\n        /* \"#utility.yul\":14326:14489   */\n    tag_357:\n        /* \"#utility.yul\":14429:14482   */\n      tag_528\n        /* \"#utility.yul\":14476:14481   */\n      dup2\n        /* \"#utility.yul\":14429:14482   */\n      tag_356\n      jump\t// in\n    tag_528:\n        /* \"#utility.yul\":14424:14427   */\n      dup3\n        /* \"#utility.yul\":14417:14483   */\n      mstore\n        /* \"#utility.yul\":14326:14489   */\n      pop\n      pop\n      jump\t// out\n        /* \"#utility.yul\":14495:14749   */\n    tag_111:\n        /* \"#utility.yul\":14604:14608   */\n      0x00\n        /* \"#utility.yul\":14642:14644   */\n      0x20\n        /* \"#utility.yul\":14631:14640   */\n      dup3\n        /* \"#utility.yul\":14627:14645   */\n      add\n        /* \"#utility.yul\":14619:14645   */\n      swap1\n      pop\n        /* \"#utility.yul\":14655:14742   */\n      tag_530\n        /* \"#utility.yul\":14739:14740   */\n      0x00\n        /* \"#utility.yul\":14728:14737   */\n      dup4\n        /* \"#utility.yul\":14724:14741   */\n      add\n        /* \"#utility.yul\":14715:14721   */\n      dup5\n        /* \"#utility.yul\":14655:14742   */\n      tag_357\n      jump\t// in\n    tag_530:\n        /* \"#utility.yul\":14495:14749   */\n      swap3\n      swap2\n      pop\n      pop\n      jump\t// out\n        /* \"#utility.yul\":14755:14896   */\n    tag_358:\n        /* \"#utility.yul\":14820:14829   */\n      0x00\n        /* \"#utility.yul\":14853:14890   */\n      tag_532\n        /* \"#utility.yul\":14884:14889   */\n      dup3\n        /* \"#utility.yul\":14853:14890   */\n      tag_347\n      jump\t// in\n    tag_532:\n        /* \"#utility.yul\":14840:14890   */\n      swap1\n      pop\n        /* \"#utility.yul\":14755:14896   */\n      swap2\n      swap1\n      pop\n      jump\t// out\n        /* \"#utility.yul\":14902:15063   */\n    tag_359:\n        /* \"#utility.yul\":15004:15056   */\n      tag_534\n        /* \"#utility.yul\":15050:15055   */\n      dup2\n        /* \"#utility.yul\":15004:15056   */\n      tag_358\n      jump\t// in\n    tag_534:\n        /* \"#utility.yul\":14999:15002   */\n      dup3\n        /* \"#utility.yul\":14992:15057   */\n      mstore\n        /* \"#utility.yul\":14902:15063   */\n      pop\n      pop\n      jump\t// out\n        /* \"#utility.yul\":15069:15321   */\n    tag_125:\n        /* \"#utility.yul\":15177:15181   */\n      0x00\n        /* \"#utility.yul\":15215:15217   */\n      0x20\n        /* \"#utility.yul\":15204:15213   */\n      dup3\n        /* \"#utility.yul\":15200:15218   */\n      add\n        /* \"#utility.yul\":15192:15218   */\n      swap1\n      pop\n        /* \"#utility.yul\":15228:15314   */\n      tag_536\n        /* \"#utility.yul\":15311:15312   */\n      0x00\n        /* \"#utility.yul\":15300:15309   */\n      dup4\n        /* \"#utility.yul\":15296:15313   */\n      add\n        /* \"#utility.yul\":15287:15293   */\n      dup5\n        /* \"#utility.yul\":15228:15314   */\n      tag_359\n      jump\t// in\n    tag_536:\n        /* \"#utility.yul\":15069:15321   */\n      swap3\n      swap2\n      pop\n      pop\n      jump\t// out\n        /* \"#utility.yul\":15327:15496   */\n    tag_360:\n        /* \"#utility.yul\":15411:15422   */\n      0x00\n        /* \"#utility.yul\":15445:15451   */\n      dup3\n        /* \"#utility.yul\":15440:15443   */\n      dup3\n        /* \"#utility.yul\":15433:15452   */\n      mstore\n        /* \"#utility.yul\":15485:15489   */\n      0x20\n        /* \"#utility.yul\":15480:15483   */\n      dup3\n        /* \"#utility.yul\":15476:15490   */\n      add\n        /* \"#utility.yul\":15461:15490   */\n      swap1\n      pop\n        /* \"#utility.yul\":15327:15496   */\n      swap3\n      swap2\n      pop\n      pop\n      jump\t// out\n        /* \"#utility.yul\":15502:15684   */\n    tag_361:\n        /* \"#utility.yul\":15642:15676   */\n      0x4f776e61626c653a2063616c6c6572206973206e6f7420746865206f776e6572\n        /* \"#utility.yul\":15638:15639   */\n      0x00\n        /* \"#utility.yul\":15630:15636   */\n      dup3\n        /* \"#utility.yul\":15626:15640   */\n      add\n        /* \"#utility.yul\":15619:15677   */\n      mstore\n        /* \"#utility.yul\":15502:15684   */\n      pop\n      jump\t// out\n        /* \"#utility.yul\":15690:16056   */\n    tag_362:\n        /* \"#utility.yul\":15832:15835   */\n      0x00\n        /* \"#utility.yul\":15853:15920   */\n      tag_540\n        /* \"#utility.yul\":15917:15919   */\n      0x20\n        /* \"#utility.yul\":15912:15915   */\n      dup4\n        /* \"#utility.yul\":15853:15920   */\n      tag_360\n      jump\t// in\n    tag_540:\n        /* \"#utility.yul\":15846:15920   */\n      swap2\n      pop\n        /* \"#utility.yul\":15929:16022   */\n      tag_541\n        /* \"#utility.yul\":16018:16021   */\n      dup3\n        /* \"#utility.yul\":15929:16022   */\n      tag_361\n      jump\t// in\n    tag_541:\n        /* \"#utility.yul\":16047:16049   */\n      0x20\n        /* \"#utility.yul\":16042:16045   */\n      dup3\n        /* \"#utility.yul\":16038:16050   */\n      add\n        /* \"#utility.yul\":16031:16050   */\n      swap1\n      pop\n        /* \"#utility.yul\":15690:16056   */\n      swap2\n      swap1\n      pop\n      jump\t// out\n        /* \"#utility.yul\":16062:16481   */\n    tag_145:\n        /* \"#utility.yul\":16228:16232   */\n      0x00\n        /* \"#utility.yul\":16266:16268   */\n      0x20\n        /* \"#utility.yul\":16255:16264   */\n      dup3\n        /* \"#utility.yul\":16251:16269   */\n      add\n        /* \"#utility.yul\":16243:16269   */\n      swap1\n      pop\n        /* \"#utility.yul\":16315:16324   */\n      dup2\n        /* \"#utility.yul\":16309:16313   */\n      dup2\n        /* \"#utility.yul\":16305:16325   */\n      sub\n        /* \"#utility.yul\":16301:16302   */\n      0x00\n        /* \"#utility.yul\":16290:16299   */\n      dup4\n        /* \"#utility.yul\":16286:16303   */\n      add\n        /* \"#utility.yul\":16279:16326   */\n      mstore\n        /* \"#utility.yul\":16343:16474   */\n      tag_543\n        /* \"#utility.yul\":16469:16473   */\n      dup2\n        /* \"#utility.yul\":16343:16474   */\n      tag_362\n      jump\t// in\n    tag_543:\n        /* \"#utility.yul\":16335:16474   */\n      swap1\n      pop\n        /* \"#utility.yul\":16062:16481   */\n      swap2\n      swap1\n      pop\n      jump\t// out\n        /* \"#utility.yul\":16487:16667   */\n    tag_363:\n        /* \"#utility.yul\":16535:16612   */\n      0x4e487b7100000000000000000000000000000000000000000000000000000000\n        /* \"#utility.yul\":16532:16533   */\n      0x00\n        /* \"#utility.yul\":16525:16613   */\n      mstore\n        /* \"#utility.yul\":16632:16636   */\n      0x11\n        /* \"#utility.yul\":16629:16630   */\n      0x04\n        /* \"#utility.yul\":16622:16637   */\n      mstore\n        /* \"#utility.yul\":16656:16660   */\n      0x24\n        /* \"#utility.yul\":16653:16654   */\n      0x00\n        /* \"#utility.yul\":16646:16661   */\n      revert\n        /* \"#utility.yul\":16673:16978   */\n    tag_154:\n        /* \"#utility.yul\":16713:16716   */\n      0x00\n        /* \"#utility.yul\":16732:16752   */\n      tag_546\n        /* \"#utility.yul\":16750:16751   */\n      dup3\n        /* \"#utility.yul\":16732:16752   */\n      tag_317\n      jump\t// in\n    tag_546:\n        /* \"#utility.yul\":16727:16752   */\n      swap2\n      pop\n        /* \"#utility.yul\":16766:16786   */\n      tag_547\n        /* \"#utility.yul\":16784:16785   */\n      dup4\n        /* \"#utility.yul\":16766:16786   */\n      tag_317\n      jump\t// in\n    tag_547:\n        /* \"#utility.yul\":16761:16786   */\n      swap3\n      pop\n        /* \"#utility.yul\":16920:16921   */\n      dup3\n        /* \"#utility.yul\":16852:16918   */\n      0xffffffffffffffffffffffffffffffffffffffffffffffffffffffffffffffff\n        /* \"#utility.yul\":16848:16922   */\n      sub\n        /* \"#utility.yul\":16845:16846   */\n      dup3\n        /* \"#utility.yul\":16842:16923   */\n      gt\n        /* \"#utility.yul\":16839:16946   */\n      iszero\n      tag_548\n      jumpi\n        /* \"#utility.yul\":16926:16944   */\n      tag_549\n      tag_363\n      jump\t// in\n    tag_549:\n        /* \"#utility.yul\":16839:16946   */\n    tag_548:\n        /* \"#utility.yul\":16970:16971   */\n      dup3\n        /* \"#utility.yul\":16967:16968   */\n      dup3\n        /* \"#utility.yul\":16963:16972   */\n      add\n        /* \"#utility.yul\":16956:16972   */\n      swap1\n      pop\n        /* \"#utility.yul\":16673:16978   */\n      swap3\n      swap2\n      pop\n      pop\n      jump\t// out\n        /* \"#utility.yul\":16984:17217   */\n    tag_158:\n        /* \"#utility.yul\":17023:17026   */\n      0x00\n        /* \"#utility.yul\":17046:17070   */\n      tag_551\n        /* \"#utility.yul\":17064:17069   */\n      dup3\n        /* \"#utility.yul\":17046:17070   */\n      tag_317\n      jump\t// in\n    tag_551:\n        /* \"#utility.yul\":17037:17070   */\n      swap2\n      pop\n        /* \"#utility.yul\":17092:17158   */\n      0xffffffffffffffffffffffffffffffffffffffffffffffffffffffffffffffff\n        /* \"#utility.yul\":17085:17090   */\n      dup3\n        /* \"#utility.yul\":17082:17159   */\n      sub\n        /* \"#utility.yul\":17079:17182   */\n      tag_552\n      jumpi\n        /* \"#utility.yul\":17162:17180   */\n      tag_553\n      tag_363\n      jump\t// in\n    tag_553:\n        /* \"#utility.yul\":17079:17182   */\n    tag_552:\n        /* \"#utility.yul\":17209:17210   */\n      0x01\n        /* \"#utility.yul\":17202:17207   */\n      dup3\n        /* \"#utility.yul\":17198:17211   */\n      add\n        /* \"#utility.yul\":17191:17211   */\n      swap1\n      pop\n        /* \"#utility.yul\":16984:17217   */\n      swap2\n      swap1\n      pop\n      jump\t// out\n        /* \"#utility.yul\":17223:17403   */\n    tag_161:\n        /* \"#utility.yul\":17271:17348   */\n      0x4e487b7100000000000000000000000000000000000000000000000000000000\n        /* \"#utility.yul\":17268:17269   */\n      0x00\n        /* \"#utility.yul\":17261:17349   */\n      mstore\n        /* \"#utility.yul\":17368:17372   */\n      0x41\n        /* \"#utility.yul\":17365:17366   */\n      0x04\n        /* \"#utility.yul\":17358:17373   */\n      mstore\n        /* \"#utility.yul\":17392:17396   */\n      0x24\n        /* \"#utility.yul\":17389:17390   */\n      0x00\n        /* \"#utility.yul\":17382:17397   */\n      revert\n        /* \"#utility.yul\":17409:17589   */\n    tag_177:\n        /* \"#utility.yul\":17457:17534   */\n      0x4e487b7100000000000000000000000000000000000000000000000000000000\n        /* \"#utility.yul\":17454:17455   */\n      0x00\n        /* \"#utility.yul\":17447:17535   */\n      mstore\n        /* \"#utility.yul\":17554:17558   */\n      0x32\n        /* \"#utility.yul\":17551:17552   */\n      0x04\n        /* \"#utility.yul\":17544:17559   */\n      mstore\n        /* \"#utility.yul\":17578:17582   */\n      0x24\n        /* \"#utility.yul\":17575:17576   */\n      0x00\n        /* \"#utility.yul\":17568:17583   */\n      revert\n        /* \"#utility.yul\":17595:17776   */\n    tag_364:\n        /* \"#utility.yul\":17735:17768   */\n      0x5265656e7472616e637947756172643a207265656e7472616e742063616c6c00\n        /* \"#utility.yul\":17731:17732   */\n      0x00\n        /* \"#utility.yul\":17723:17729   */\n      dup3\n        /* \"#utility.yul\":17719:17733   */\n      add\n        /* \"#utility.yul\":17712:17769   */\n      mstore\n        /* \"#utility.yul\":17595:17776   */\n      pop\n      jump\t// out\n        /* \"#utility.yul\":17782:18148   */\n    tag_365:\n        /* \"#utility.yul\":17924:17927   */\n      0x00\n        /* \"#utility.yul\":17945:18012   */\n      tag_558\n        /* \"#utility.yul\":18009:18011   */\n      0x1f\n        /* \"#utility.yul\":18004:18007   */\n      dup4\n        /* \"#utility.yul\":17945:18012   */\n      tag_360\n      jump\t// in\n    tag_558:\n        /* \"#utility.yul\":17938:18012   */\n      swap2\n      pop\n        /* \"#utility.yul\":18021:18114   */\n      tag_559\n        /* \"#utility.yul\":18110:18113   */\n      dup3\n        /* \"#utility.yul\":18021:18114   */\n      tag_364\n      jump\t// in\n    tag_559:\n        /* \"#utility.yul\":18139:18141   */\n      0x20\n        /* \"#utility.yul\":18134:18137   */\n      dup3\n        /* \"#utility.yul\":18130:18142   */\n      add\n        /* \"#utility.yul\":18123:18142   */\n      swap1\n      pop\n        /* \"#utility.yul\":17782:18148   */\n      swap2\n      swap1\n      pop\n      jump\t// out\n        /* \"#utility.yul\":18154:18573   */\n    tag_195:\n        /* \"#utility.yul\":18320:18324   */\n      0x00\n        /* \"#utility.yul\":18358:18360   */\n      0x20\n        /* \"#utility.yul\":18347:18356   */\n      dup3\n        /* \"#utility.yul\":18343:18361   */\n      add\n        /* \"#utility.yul\":18335:18361   */\n      swap1\n      pop\n        /* \"#utility.yul\":18407:18416   */\n      dup2\n        /* \"#utility.yul\":18401:18405   */\n      dup2\n        /* \"#utility.yul\":18397:18417   */\n      sub\n        /* \"#utility.yul\":18393:18394   */\n      0x00\n        /* \"#utility.yul\":18382:18391   */\n      dup4\n        /* \"#utility.yul\":18378:18395   */\n      add\n        /* \"#utility.yul\":18371:18418   */\n      mstore\n        /* \"#utility.yul\":18435:18566   */\n      tag_561\n        /* \"#utility.yul\":18561:18565   */\n      dup2\n        /* \"#utility.yul\":18435:18566   */\n      tag_365\n      jump\t// in\n    tag_561:\n        /* \"#utility.yul\":18427:18566   */\n      swap1\n      pop\n        /* \"#utility.yul\":18154:18573   */\n      swap2\n      swap1\n      pop\n      jump\t// out\n        /* \"#utility.yul\":18579:18757   */\n    tag_366:\n        /* \"#utility.yul\":18719:18749   */\n      0x5072696365206d757374206265206174206c6561737420312077656900000000\n        /* \"#utility.yul\":18715:18716   */\n      0x00\n        /* \"#utility.yul\":18707:18713   */\n      dup3\n        /* \"#utility.yul\":18703:18717   */\n      add\n        /* \"#utility.yul\":18696:18750   */\n      mstore\n        /* \"#utility.yul\":18579:18757   */\n      pop\n      jump\t// out\n        /* \"#utility.yul\":18763:19129   */\n    tag_367:\n        /* \"#utility.yul\":18905:18908   */\n      0x00\n        /* \"#utility.yul\":18926:18993   */\n      tag_564\n        /* \"#utility.yul\":18990:18992   */\n      0x1c\n        /* \"#utility.yul\":18985:18988   */\n      dup4\n        /* \"#utility.yul\":18926:18993   */\n      tag_360\n      jump\t// in\n    tag_564:\n        /* \"#utility.yul\":18919:18993   */\n      swap2\n      pop\n        /* \"#utility.yul\":19002:19095   */\n      tag_565\n        /* \"#utility.yul\":19091:19094   */\n      dup3\n        /* \"#utility.yul\":19002:19095   */\n      tag_366\n      jump\t// in\n    tag_565:\n        /* \"#utility.yul\":19120:19122   */\n      0x20\n        /* \"#utility.yul\":19115:19118   */\n      dup3\n        /* \"#utility.yul\":19111:19123   */\n      add\n        /* \"#utility.yul\":19104:19123   */\n      swap1\n      pop\n        /* \"#utility.yul\":18763:19129   */\n      swap2\n      swap1\n      pop\n      jump\t// out\n        /* \"#utility.yul\":19135:19554   */\n    tag_199:\n        /* \"#utility.yul\":19301:19305   */\n      0x00\n        /* \"#utility.yul\":19339:19341   */\n      0x20\n        /* \"#utility.yul\":19328:19337   */\n      dup3\n        /* \"#utility.yul\":19324:19342   */\n      add\n        /* \"#utility.yul\":19316:19342   */\n      swap1\n      pop\n        /* \"#utility.yul\":19388:19397   */\n      dup2\n        /* \"#utility.yul\":19382:19386   */\n      dup2\n        /* \"#utility.yul\":19378:19398   */\n      sub\n        /* \"#utility.yul\":19374:19375   */\n      0x00\n        /* \"#utility.yul\":19363:19372   */\n      dup4\n        /* \"#utility.yul\":19359:19376   */\n      add\n        /* \"#utility.yul\":19352:19399   */\n      mstore\n        /* \"#utility.yul\":19416:19547   */\n      tag_567\n        /* \"#utility.yul\":19542:19546   */\n      dup2\n        /* \"#utility.yul\":19416:19547   */\n      tag_367\n      jump\t// in\n    tag_567:\n        /* \"#utility.yul\":19408:19547   */\n      swap1\n      pop\n        /* \"#utility.yul\":19135:19554   */\n      swap2\n      swap1\n      pop\n      jump\t// out\n        /* \"#utility.yul\":19560:20002   */\n    tag_208:\n        /* \"#utility.yul\":19709:19713   */\n      0x00\n        /* \"#utility.yul\":19747:19749   */\n      0x60\n        /* \"#utility.yul\":19736:19745   */\n      dup3\n        /* \"#utility.yul\":19732:19750   */\n      add\n        /* \"#utility.yul\":19724:19750   */\n      swap1\n      pop\n        /* \"#utility.yul\":19760:19831   */\n      tag_569\n        /* \"#utility.yul\":19828:19829   */\n      0x00\n        /* \"#utility.yul\":19817:19826   */\n      dup4\n        /* \"#utility.yul\":19813:19830   */\n      add\n        /* \"#utility.yul\":19804:19810   */\n      dup7\n        /* \"#utility.yul\":19760:19831   */\n      tag_351\n      jump\t// in\n    tag_569:\n        /* \"#utility.yul\":19841:19913   */\n      tag_570\n        /* \"#utility.yul\":19909:19911   */\n      0x20\n        /* \"#utility.yul\":19898:19907   */\n      dup4\n        /* \"#utility.yul\":19894:19912   */\n      add\n        /* \"#utility.yul\":19885:19891   */\n      dup6\n        /* \"#utility.yul\":19841:19913   */\n      tag_351\n      jump\t// in\n    tag_570:\n        /* \"#utility.yul\":19923:19995   */\n      tag_571\n        /* \"#utility.yul\":19991:19993   */\n      0x40\n        /* \"#utility.yul\":19980:19989   */\n      dup4\n        /* \"#utility.yul\":19976:19994   */\n      add\n        /* \"#utility.yul\":19967:19973   */\n      dup5\n        /* \"#utility.yul\":19923:19995   */\n      tag_350\n      jump\t// in\n    tag_571:\n        /* \"#utility.yul\":19560:20002   */\n      swap5\n      swap4\n      pop\n      pop\n      pop\n      pop\n      jump\t// out\n        /* \"#utility.yul\":20008:20259   */\n    tag_368:\n        /* \"#utility.yul\":20148:20182   */\n      0x506c65617365207375626d6974207468652061736b696e672070726963652069\n        /* \"#utility.yul\":20144:20145   */\n      0x00\n        /* \"#utility.yul\":20136:20142   */\n      dup3\n        /* \"#utility.yul\":20132:20146   */\n      add\n        /* \"#utility.yul\":20125:20183   */\n      mstore\n        /* \"#utility.yul\":20217:20251   */\n      0x6e206f7264657220746f20636f6d706c65746520746865207075726368617365\n        /* \"#utility.yul\":20212:20214   */\n      0x20\n        /* \"#utility.yul\":20204:20210   */\n      dup3\n        /* \"#utility.yul\":20200:20215   */\n      add\n        /* \"#utility.yul\":20193:20252   */\n      mstore\n        /* \"#utility.yul\":20008:20259   */\n      pop\n      jump\t// out\n        /* \"#utility.yul\":20265:20631   */\n    tag_369:\n        /* \"#utility.yul\":20407:20410   */\n      0x00\n        /* \"#utility.yul\":20428:20495   */\n      tag_574\n        /* \"#utility.yul\":20492:20494   */\n      0x40\n        /* \"#utility.yul\":20487:20490   */\n      dup4\n        /* \"#utility.yul\":20428:20495   */\n      tag_360\n      jump\t// in\n    tag_574:\n        /* \"#utility.yul\":20421:20495   */\n      swap2\n      pop\n        /* \"#utility.yul\":20504:20597   */\n      tag_575\n        /* \"#utility.yul\":20593:20596   */\n      dup3\n        /* \"#utility.yul\":20504:20597   */\n      tag_368\n      jump\t// in\n    tag_575:\n        /* \"#utility.yul\":20622:20624   */\n      0x40\n        /* \"#utility.yul\":20617:20620   */\n      dup3\n        /* \"#utility.yul\":20613:20625   */\n      add\n        /* \"#utility.yul\":20606:20625   */\n      swap1\n      pop\n        /* \"#utility.yul\":20265:20631   */\n      swap2\n      swap1\n      pop\n      jump\t// out\n        /* \"#utility.yul\":20637:21056   */\n    tag_234:\n        /* \"#utility.yul\":20803:20807   */\n      0x00\n        /* \"#utility.yul\":20841:20843   */\n      0x20\n        /* \"#utility.yul\":20830:20839   */\n      dup3\n        /* \"#utility.yul\":20826:20844   */\n      add\n        /* \"#utility.yul\":20818:20844   */\n      swap1\n      pop\n        /* \"#utility.yul\":20890:20899   */\n      dup2\n        /* \"#utility.yul\":20884:20888   */\n      dup2\n        /* \"#utility.yul\":20880:20900   */\n      sub\n        /* \"#utility.yul\":20876:20877   */\n      0x00\n        /* \"#utility.yul\":20865:20874   */\n      dup4\n        /* \"#utility.yul\":20861:20878   */\n      add\n        /* \"#utility.yul\":20854:20901   */\n      mstore\n        /* \"#utility.yul\":20918:21049   */\n      tag_577\n        /* \"#utility.yul\":21044:21048   */\n      dup2\n        /* \"#utility.yul\":20918:21049   */\n      tag_369\n      jump\t// in\n    tag_577:\n        /* \"#utility.yul\":20910:21049   */\n      swap1\n      pop\n        /* \"#utility.yul\":20637:21056   */\n      swap2\n      swap1\n      pop\n      jump\t// out\n        /* \"#utility.yul\":21062:21196   */\n    tag_370:\n        /* \"#utility.yul\":21120:21129   */\n      0x00\n        /* \"#utility.yul\":21153:21190   */\n      tag_579\n        /* \"#utility.yul\":21184:21189   */\n      dup3\n        /* \"#utility.yul\":21153:21190   */\n      tag_347\n      jump\t// in\n    tag_579:\n        /* \"#utility.yul\":21140:21190   */\n      swap1\n      pop\n        /* \"#utility.yul\":21062:21196   */\n      swap2\n      swap1\n      pop\n      jump\t// out\n        /* \"#utility.yul\":21202:21349   */\n    tag_371:\n        /* \"#utility.yul\":21297:21342   */\n      tag_581\n        /* \"#utility.yul\":21336:21341   */\n      dup2\n        /* \"#utility.yul\":21297:21342   */\n      tag_370\n      jump\t// in\n    tag_581:\n        /* \"#utility.yul\":21292:21295   */\n      dup3\n        /* \"#utility.yul\":21285:21343   */\n      mstore\n        /* \"#utility.yul\":21202:21349   */\n      pop\n      pop\n      jump\t// out\n        /* \"#utility.yul\":21355:21813   */\n    tag_236:\n        /* \"#utility.yul\":21512:21516   */\n      0x00\n        /* \"#utility.yul\":21550:21552   */\n      0x60\n        /* \"#utility.yul\":21539:21548   */\n      dup3\n        /* \"#utility.yul\":21535:21553   */\n      add\n        /* \"#utility.yul\":21527:21553   */\n      swap1\n      pop\n        /* \"#utility.yul\":21563:21634   */\n      tag_583\n        /* \"#utility.yul\":21631:21632   */\n      0x00\n        /* \"#utility.yul\":21620:21629   */\n      dup4\n        /* \"#utility.yul\":21616:21633   */\n      add\n        /* \"#utility.yul\":21607:21613   */\n      dup7\n        /* \"#utility.yul\":21563:21634   */\n      tag_351\n      jump\t// in\n    tag_583:\n        /* \"#utility.yul\":21644:21724   */\n      tag_584\n        /* \"#utility.yul\":21720:21722   */\n      0x20\n        /* \"#utility.yul\":21709:21718   */\n      dup4\n        /* \"#utility.yul\":21705:21723   */\n      add\n        /* \"#utility.yul\":21696:21702   */\n      dup6\n        /* \"#utility.yul\":21644:21724   */\n      tag_371\n      jump\t// in\n    tag_584:\n        /* \"#utility.yul\":21734:21806   */\n      tag_585\n        /* \"#utility.yul\":21802:21804   */\n      0x40\n        /* \"#utility.yul\":21791:21800   */\n      dup4\n        /* \"#utility.yul\":21787:21805   */\n      add\n        /* \"#utility.yul\":21778:21784   */\n      dup5\n        /* \"#utility.yul\":21734:21806   */\n      tag_350\n      jump\t// in\n    tag_585:\n        /* \"#utility.yul\":21355:21813   */\n      swap5\n      swap4\n      pop\n      pop\n      pop\n      pop\n      jump\t// out\n        /* \"#utility.yul\":21819:21909   */\n    tag_372:\n        /* \"#utility.yul\":21853:21860   */\n      0x00\n        /* \"#utility.yul\":21896:21901   */\n      dup2\n        /* \"#utility.yul\":21889:21902   */\n      iszero\n        /* \"#utility.yul\":21882:21903   */\n      iszero\n        /* \"#utility.yul\":21871:21903   */\n      swap1\n      pop\n        /* \"#utility.yul\":21819:21909   */\n      swap2\n      swap1\n      pop\n      jump\t// out\n        /* \"#utility.yul\":21915:22031   */\n    tag_373:\n        /* \"#utility.yul\":21985:22006   */\n      tag_588\n        /* \"#utility.yul\":22000:22005   */\n      dup2\n        /* \"#utility.yul\":21985:22006   */\n      tag_372\n      jump\t// in\n    tag_588:\n        /* \"#utility.yul\":21978:21983   */\n      dup2\n        /* \"#utility.yul\":21975:22007   */\n      eq\n        /* \"#utility.yul\":21965:22025   */\n      tag_589\n      jumpi\n        /* \"#utility.yul\":22021:22022   */\n      0x00\n        /* \"#utility.yul\":22018:22019   */\n      dup1\n        /* \"#utility.yul\":22011:22023   */\n      revert\n        /* \"#utility.yul\":21965:22025   */\n    tag_589:\n        /* \"#utility.yul\":21915:22031   */\n      pop\n      jump\t// out\n        /* \"#utility.yul\":22037:22174   */\n    tag_374:\n        /* \"#utility.yul\":22091:22096   */\n      0x00\n        /* \"#utility.yul\":22122:22128   */\n      dup2\n        /* \"#utility.yul\":22116:22129   */\n      mload\n        /* \"#utility.yul\":22107:22129   */\n      swap1\n      pop\n        /* \"#utility.yul\":22138:22168   */\n      tag_591\n        /* \"#utility.yul\":22162:22167   */\n      dup2\n        /* \"#utility.yul\":22138:22168   */\n      tag_373\n      jump\t// in\n    tag_591:\n        /* \"#utility.yul\":22037:22174   */\n      swap3\n      swap2\n      pop\n      pop\n      jump\t// out\n        /* \"#utility.yul\":22180:22525   */\n    tag_240:\n        /* \"#utility.yul\":22247:22253   */\n      0x00\n        /* \"#utility.yul\":22296:22298   */\n      0x20\n        /* \"#utility.yul\":22284:22293   */\n      dup3\n        /* \"#utility.yul\":22275:22282   */\n      dup5\n        /* \"#utility.yul\":22271:22294   */\n      sub\n        /* \"#utility.yul\":22267:22299   */\n      slt\n        /* \"#utility.yul\":22264:22383   */\n      iszero\n      tag_593\n      jumpi\n        /* \"#utility.yul\":22302:22381   */\n      tag_594\n      tag_330\n      jump\t// in\n    tag_594:\n        /* \"#utility.yul\":22264:22383   */\n    tag_593:\n        /* \"#utility.yul\":22422:22423   */\n      0x00\n        /* \"#utility.yul\":22447:22508   */\n      tag_595\n        /* \"#utility.yul\":22500:22507   */\n      dup5\n        /* \"#utility.yul\":22491:22497   */\n      dup3\n        /* \"#utility.yul\":22480:22489   */\n      dup6\n        /* \"#utility.yul\":22476:22498   */\n      add\n        /* \"#utility.yul\":22447:22508   */\n      tag_374\n      jump\t// in\n    tag_595:\n        /* \"#utility.yul\":22437:22508   */\n      swap2\n      pop\n        /* \"#utility.yul\":22393:22518   */\n      pop\n        /* \"#utility.yul\":22180:22525   */\n      swap3\n      swap2\n      pop\n      pop\n      jump\t// out\n        /* \"#utility.yul\":22531:22700   */\n    tag_375:\n        /* \"#utility.yul\":22671:22692   */\n      0x4173736574206e6f74207075626c697368656400000000000000000000000000\n        /* \"#utility.yul\":22667:22668   */\n      0x00\n        /* \"#utility.yul\":22659:22665   */\n      dup3\n        /* \"#utility.yul\":22655:22669   */\n      add\n        /* \"#utility.yul\":22648:22693   */\n      mstore\n        /* \"#utility.yul\":22531:22700   */\n      pop\n      jump\t// out\n        /* \"#utility.yul\":22706:23072   */\n    tag_376:\n        /* \"#utility.yul\":22848:22851   */\n      0x00\n        /* \"#utility.yul\":22869:22936   */\n      tag_598\n        /* \"#utility.yul\":22933:22935   */\n      0x13\n        /* \"#utility.yul\":22928:22931   */\n      dup4\n        /* \"#utility.yul\":22869:22936   */\n      tag_360\n      jump\t// in\n    tag_598:\n        /* \"#utility.yul\":22862:22936   */\n      swap2\n      pop\n        /* \"#utility.yul\":22945:23038   */\n      tag_599\n        /* \"#utility.yul\":23034:23037   */\n      dup3\n        /* \"#utility.yul\":22945:23038   */\n      tag_375\n      jump\t// in\n    tag_599:\n        /* \"#utility.yul\":23063:23065   */\n      0x20\n        /* \"#utility.yul\":23058:23061   */\n      dup3\n        /* \"#utility.yul\":23054:23066   */\n      add\n        /* \"#utility.yul\":23047:23066   */\n      swap1\n      pop\n        /* \"#utility.yul\":22706:23072   */\n      swap2\n      swap1\n      pop\n      jump\t// out\n        /* \"#utility.yul\":23078:23497   */\n    tag_257:\n        /* \"#utility.yul\":23244:23248   */\n      0x00\n        /* \"#utility.yul\":23282:23284   */\n      0x20\n        /* \"#utility.yul\":23271:23280   */\n      dup3\n        /* \"#utility.yul\":23267:23285   */\n      add\n        /* \"#utility.yul\":23259:23285   */\n      swap1\n      pop\n        /* \"#utility.yul\":23331:23340   */\n      dup2\n        /* \"#utility.yul\":23325:23329   */\n      dup2\n        /* \"#utility.yul\":23321:23341   */\n      sub\n        /* \"#utility.yul\":23317:23318   */\n      0x00\n        /* \"#utility.yul\":23306:23315   */\n      dup4\n        /* \"#utility.yul\":23302:23319   */\n      add\n        /* \"#utility.yul\":23295:23342   */\n      mstore\n        /* \"#utility.yul\":23359:23490   */\n      tag_601\n        /* \"#utility.yul\":23485:23489   */\n      dup2\n        /* \"#utility.yul\":23359:23490   */\n      tag_376\n      jump\t// in\n    tag_601:\n        /* \"#utility.yul\":23351:23490   */\n      swap1\n      pop\n        /* \"#utility.yul\":23078:23497   */\n      swap2\n      swap1\n      pop\n      jump\t// out\n        /* \"#utility.yul\":23503:23667   */\n    tag_377:\n        /* \"#utility.yul\":23643:23659   */\n      0x41737365742064656c6973746564000000000000000000000000000000000000\n        /* \"#utility.yul\":23639:23640   */\n      0x00\n        /* \"#utility.yul\":23631:23637   */\n      dup3\n        /* \"#utility.yul\":23627:23641   */\n      add\n        /* \"#utility.yul\":23620:23660   */\n      mstore\n        /* \"#utility.yul\":23503:23667   */\n      pop\n      jump\t// out\n        /* \"#utility.yul\":23673:24039   */\n    tag_378:\n        /* \"#utility.yul\":23815:23818   */\n      0x00\n        /* \"#utility.yul\":23836:23903   */\n      tag_604\n        /* \"#utility.yul\":23900:23902   */\n      0x0e\n        /* \"#utility.yul\":23895:23898   */\n      dup4\n        /* \"#utility.yul\":23836:23903   */\n      tag_360\n      jump\t// in\n    tag_604:\n        /* \"#utility.yul\":23829:23903   */\n      swap2\n      pop\n        /* \"#utility.yul\":23912:24005   */\n      tag_605\n        /* \"#utility.yul\":24001:24004   */\n      dup3\n        /* \"#utility.yul\":23912:24005   */\n      tag_377\n      jump\t// in\n    tag_605:\n        /* \"#utility.yul\":24030:24032   */\n      0x20\n        /* \"#utility.yul\":24025:24028   */\n      dup3\n        /* \"#utility.yul\":24021:24033   */\n      add\n        /* \"#utility.yul\":24014:24033   */\n      swap1\n      pop\n        /* \"#utility.yul\":23673:24039   */\n      swap2\n      swap1\n      pop\n      jump\t// out\n        /* \"#utility.yul\":24045:24464   */\n    tag_264:\n        /* \"#utility.yul\":24211:24215   */\n      0x00\n        /* \"#utility.yul\":24249:24251   */\n      0x20\n        /* \"#utility.yul\":24238:24247   */\n      dup3\n        /* \"#utility.yul\":24234:24252   */\n      add\n        /* \"#utility.yul\":24226:24252   */\n      swap1\n      pop\n        /* \"#utility.yul\":24298:24307   */\n      dup2\n        /* \"#utility.yul\":24292:24296   */\n      dup2\n        /* \"#utility.yul\":24288:24308   */\n      sub\n        /* \"#utility.yul\":24284:24285   */\n      0x00\n        /* \"#utility.yul\":24273:24282   */\n      dup4\n        /* \"#utility.yul\":24269:24286   */\n      add\n        /* \"#utility.yul\":24262:24309   */\n      mstore\n        /* \"#utility.yul\":24326:24457   */\n      tag_607\n        /* \"#utility.yul\":24452:24456   */\n      dup2\n        /* \"#utility.yul\":24326:24457   */\n      tag_378\n      jump\t// in\n    tag_607:\n        /* \"#utility.yul\":24318:24457   */\n      swap1\n      pop\n        /* \"#utility.yul\":24045:24464   */\n      swap2\n      swap1\n      pop\n      jump\t// out\n        /* \"#utility.yul\":24470:24635   */\n    tag_379:\n        /* \"#utility.yul\":24610:24627   */\n      0x496e76616c696420616464726573730000000000000000000000000000000000\n        /* \"#utility.yul\":24606:24607   */\n      0x00\n        /* \"#utility.yul\":24598:24604   */\n      dup3\n        /* \"#utility.yul\":24594:24608   */\n      add\n        /* \"#utility.yul\":24587:24628   */\n      mstore\n        /* \"#utility.yul\":24470:24635   */\n      pop\n      jump\t// out\n        /* \"#utility.yul\":24641:25007   */\n    tag_380:\n        /* \"#utility.yul\":24783:24786   */\n      0x00\n        /* \"#utility.yul\":24804:24871   */\n      tag_610\n        /* \"#utility.yul\":24868:24870   */\n      0x0f\n        /* \"#utility.yul\":24863:24866   */\n      dup4\n        /* \"#utility.yul\":24804:24871   */\n      tag_360\n      jump\t// in\n    tag_610:\n        /* \"#utility.yul\":24797:24871   */\n      swap2\n      pop\n        /* \"#utility.yul\":24880:24973   */\n      tag_611\n        /* \"#utility.yul\":24969:24972   */\n      dup3\n        /* \"#utility.yul\":24880:24973   */\n      tag_379\n      jump\t// in\n    tag_611:\n        /* \"#utility.yul\":24998:25000   */\n      0x20\n        /* \"#utility.yul\":24993:24996   */\n      dup3\n        /* \"#utility.yul\":24989:25001   */\n      add\n        /* \"#utility.yul\":24982:25001   */\n      swap1\n      pop\n        /* \"#utility.yul\":24641:25007   */\n      swap2\n      swap1\n      pop\n      jump\t// out\n        /* \"#utility.yul\":25013:25432   */\n    tag_267:\n        /* \"#utility.yul\":25179:25183   */\n      0x00\n        /* \"#utility.yul\":25217:25219   */\n      0x20\n        /* \"#utility.yul\":25206:25215   */\n      dup3\n        /* \"#utility.yul\":25202:25220   */\n      add\n        /* \"#utility.yul\":25194:25220   */\n      swap1\n      pop\n        /* \"#utility.yul\":25266:25275   */\n      dup2\n        /* \"#utility.yul\":25260:25264   */\n      dup2\n        /* \"#utility.yul\":25256:25276   */\n      sub\n        /* \"#utility.yul\":25252:25253   */\n      0x00\n        /* \"#utility.yul\":25241:25250   */\n      dup4\n        /* \"#utility.yul\":25237:25254   */\n      add\n        /* \"#utility.yul\":25230:25277   */\n      mstore\n        /* \"#utility.yul\":25294:25425   */\n      tag_613\n        /* \"#utility.yul\":25420:25424   */\n      dup2\n        /* \"#utility.yul\":25294:25425   */\n      tag_380\n      jump\t// in\n    tag_613:\n        /* \"#utility.yul\":25286:25425   */\n      swap1\n      pop\n        /* \"#utility.yul\":25013:25432   */\n      swap2\n      swap1\n      pop\n      jump\t// out\n        /* \"#utility.yul\":25438:25610   */\n    tag_381:\n        /* \"#utility.yul\":25578:25602   */\n      0x4f6e6c792073656c6c65722063616e2064656c69737400000000000000000000\n        /* \"#utility.yul\":25574:25575   */\n      0x00\n        /* \"#utility.yul\":25566:25572   */\n      dup3\n        /* \"#utility.yul\":25562:25576   */\n      add\n        /* \"#utility.yul\":25555:25603   */\n      mstore\n        /* \"#utility.yul\":25438:25610   */\n      pop\n      jump\t// out\n        /* \"#utility.yul\":25616:25982   */\n    tag_382:\n        /* \"#utility.yul\":25758:25761   */\n      0x00\n        /* \"#utility.yul\":25779:25846   */\n      tag_616\n        /* \"#utility.yul\":25843:25845   */\n      0x16\n        /* \"#utility.yul\":25838:25841   */\n      dup4\n        /* \"#utility.yul\":25779:25846   */\n      tag_360\n      jump\t// in\n    tag_616:\n        /* \"#utility.yul\":25772:25846   */\n      swap2\n      pop\n        /* \"#utility.yul\":25855:25948   */\n      tag_617\n        /* \"#utility.yul\":25944:25947   */\n      dup3\n        /* \"#utility.yul\":25855:25948   */\n      tag_381\n      jump\t// in\n    tag_617:\n        /* \"#utility.yul\":25973:25975   */\n      0x20\n        /* \"#utility.yul\":25968:25971   */\n      dup3\n        /* \"#utility.yul\":25964:25976   */\n      add\n        /* \"#utility.yul\":25957:25976   */\n      swap1\n      pop\n        /* \"#utility.yul\":25616:25982   */\n      swap2\n      swap1\n      pop\n      jump\t// out\n        /* \"#utility.yul\":25988:26407   */\n    tag_270:\n        /* \"#utility.yul\":26154:26158   */\n      0x00\n        /* \"#utility.yul\":26192:26194   */\n      0x20\n        /* \"#utility.yul\":26181:26190   */\n      dup3\n        /* \"#utility.yul\":26177:26195   */\n      add\n        /* \"#utility.yul\":26169:26195   */\n      swap1\n      pop\n        /* \"#utility.yul\":26241:26250   */\n      dup2\n        /* \"#utility.yul\":26235:26239   */\n      dup2\n        /* \"#utility.yul\":26231:26251   */\n      sub\n        /* \"#utility.yul\":26227:26228   */\n      0x00\n        /* \"#utility.yul\":26216:26225   */\n      dup4\n        /* \"#utility.yul\":26212:26229   */\n      add\n        /* \"#utility.yul\":26205:26252   */\n      mstore\n        /* \"#utility.yul\":26269:26400   */\n      tag_619\n        /* \"#utility.yul\":26395:26399   */\n      dup2\n        /* \"#utility.yul\":26269:26400   */\n      tag_382\n      jump\t// in\n    tag_619:\n        /* \"#utility.yul\":26261:26400   */\n      swap1\n      pop\n        /* \"#utility.yul\":25988:26407   */\n      swap2\n      swap1\n      pop\n      jump\t// out\n        /* \"#utility.yul\":26413:26855   */\n    tag_280:\n        /* \"#utility.yul\":26562:26566   */\n      0x00\n        /* \"#utility.yul\":26600:26602   */\n      0x60\n        /* \"#utility.yul\":26589:26598   */\n      dup3\n        /* \"#utility.yul\":26585:26603   */\n      add\n        /* \"#utility.yul\":26577:26603   */\n      swap1\n      pop\n        /* \"#utility.yul\":26613:26684   */\n      tag_621\n        /* \"#utility.yul\":26681:26682   */\n      0x00\n        /* \"#utility.yul\":26670:26679   */\n      dup4\n        /* \"#utility.yul\":26666:26683   */\n      add\n        /* \"#utility.yul\":26657:26663   */\n      dup7\n        /* \"#utility.yul\":26613:26684   */\n      tag_351\n      jump\t// in\n    tag_621:\n        /* \"#utility.yul\":26694:26766   */\n      tag_622\n        /* \"#utility.yul\":26762:26764   */\n      0x20\n        /* \"#utility.yul\":26751:26760   */\n      dup4\n        /* \"#utility.yul\":26747:26765   */\n      add\n        /* \"#utility.yul\":26738:26744   */\n      dup6\n        /* \"#utility.yul\":26694:26766   */\n      tag_350\n      jump\t// in\n    tag_622:\n        /* \"#utility.yul\":26776:26848   */\n      tag_623\n        /* \"#utility.yul\":26844:26846   */\n      0x40\n        /* \"#utility.yul\":26833:26842   */\n      dup4\n        /* \"#utility.yul\":26829:26847   */\n      add\n        /* \"#utility.yul\":26820:26826   */\n      dup5\n        /* \"#utility.yul\":26776:26848   */\n      tag_350\n      jump\t// in\n    tag_623:\n        /* \"#utility.yul\":26413:26855   */\n      swap5\n      swap4\n      pop\n      pop\n      pop\n      pop\n      jump\t// out\n        /* \"#utility.yul\":26861:27086   */\n    tag_383:\n        /* \"#utility.yul\":27001:27035   */\n      0x4f776e61626c653a206e6577206f776e657220697320746865207a65726f2061\n        /* \"#utility.yul\":26997:26998   */\n      0x00\n        /* \"#utility.yul\":26989:26995   */\n      dup3\n        /* \"#utility.yul\":26985:26999   */\n      add\n        /* \"#utility.yul\":26978:27036   */\n      mstore\n        /* \"#utility.yul\":27070:27078   */\n      0x6464726573730000000000000000000000000000000000000000000000000000\n        /* \"#utility.yul\":27065:27067   */\n      0x20\n        /* \"#utility.yul\":27057:27063   */\n      dup3\n        /* \"#utility.yul\":27053:27068   */\n      add\n        /* \"#utility.yul\":27046:27079   */\n      mstore\n        /* \"#utility.yul\":26861:27086   */\n      pop\n      jump\t// out\n        /* \"#utility.yul\":27092:27458   */\n    tag_384:\n        /* \"#utility.yul\":27234:27237   */\n      0x00\n        /* \"#utility.yul\":27255:27322   */\n      tag_626\n        /* \"#utility.yul\":27319:27321   */\n      0x26\n        /* \"#utility.yul\":27314:27317   */\n      dup4\n        /* \"#utility.yul\":27255:27322   */\n      tag_360\n      jump\t// in\n    tag_626:\n        /* \"#utility.yul\":27248:27322   */\n      swap2\n      pop\n        /* \"#utility.yul\":27331:27424   */\n      tag_627\n        /* \"#utility.yul\":27420:27423   */\n      dup3\n        /* \"#utility.yul\":27331:27424   */\n      tag_383\n      jump\t// in\n    tag_627:\n        /* \"#utility.yul\":27449:27451   */\n      0x40\n        /* \"#utility.yul\":27444:27447   */\n      dup3\n        /* \"#utility.yul\":27440:27452   */\n      add\n        /* \"#utility.yul\":27433:27452   */\n      swap1\n      pop\n        /* \"#utility.yul\":27092:27458   */\n      swap2\n      swap1\n      pop\n      jump\t// out\n        /* \"#utility.yul\":27464:27883   */\n    tag_295:\n        /* \"#utility.yul\":27630:27634   */\n      0x00\n        /* \"#utility.yul\":27668:27670   */\n      0x20\n        /* \"#utility.yul\":27657:27666   */\n      dup3\n        /* \"#utility.yul\":27653:27671   */\n      add\n        /* \"#utility.yul\":27645:27671   */\n      swap1\n      pop\n        /* \"#utility.yul\":27717:27726   */\n      dup2\n        /* \"#utility.yul\":27711:27715   */\n      dup2\n        /* \"#utility.yul\":27707:27727   */\n      sub\n        /* \"#utility.yul\":27703:27704   */\n      0x00\n        /* \"#utility.yul\":27692:27701   */\n      dup4\n        /* \"#utility.yul\":27688:27705   */\n      add\n        /* \"#utility.yul\":27681:27728   */\n      mstore\n        /* \"#utility.yul\":27745:27876   */\n      tag_629\n        /* \"#utility.yul\":27871:27875   */\n      dup2\n        /* \"#utility.yul\":27745:27876   */\n      tag_384\n      jump\t// in\n    tag_629:\n        /* \"#utility.yul\":27737:27876   */\n      swap1\n      pop\n        /* \"#utility.yul\":27464:27883   */\n      swap2\n      swap1\n      pop\n      jump\t// out\n        /* \"#utility.yul\":27889:28112   */\n    tag_385:\n        /* \"#utility.yul\":28029:28063   */\n      0x546865204e465420416464726573732073686f756c64206265206120636f6e74\n        /* \"#utility.yul\":28025:28026   */\n      0x00\n        /* \"#utility.yul\":28017:28023   */\n      dup3\n        /* \"#utility.yul\":28013:28027   */\n      add\n        /* \"#utility.yul\":28006:28064   */\n      mstore\n        /* \"#utility.yul\":28098:28104   */\n      0x7261637400000000000000000000000000000000000000000000000000000000\n        /* \"#utility.yul\":28093:28095   */\n      0x20\n        /* \"#utility.yul\":28085:28091   */\n      dup3\n        /* \"#utility.yul\":28081:28096   */\n      add\n        /* \"#utility.yul\":28074:28105   */\n      mstore\n        /* \"#utility.yul\":27889:28112   */\n      pop\n      jump\t// out\n        /* \"#utility.yul\":28118:28484   */\n    tag_386:\n        /* \"#utility.yul\":28260:28263   */\n      0x00\n        /* \"#utility.yul\":28281:28348   */\n      tag_632\n        /* \"#utility.yul\":28345:28347   */\n      0x24\n        /* \"#utility.yul\":28340:28343   */\n      dup4\n        /* \"#utility.yul\":28281:28348   */\n      tag_360\n      jump\t// in\n    tag_632:\n        /* \"#utility.yul\":28274:28348   */\n      swap2\n      pop\n        /* \"#utility.yul\":28357:28450   */\n      tag_633\n        /* \"#utility.yul\":28446:28449   */\n      dup3\n        /* \"#utility.yul\":28357:28450   */\n      tag_385\n      jump\t// in\n    tag_633:\n        /* \"#utility.yul\":28475:28477   */\n      0x40\n        /* \"#utility.yul\":28470:28473   */\n      dup3\n        /* \"#utility.yul\":28466:28478   */\n      add\n        /* \"#utility.yul\":28459:28478   */\n      swap1\n      pop\n        /* \"#utility.yul\":28118:28484   */\n      swap2\n      swap1\n      pop\n      jump\t// out\n        /* \"#utility.yul\":28490:28909   */\n    tag_306:\n        /* \"#utility.yul\":28656:28660   */\n      0x00\n        /* \"#utility.yul\":28694:28696   */\n      0x20\n        /* \"#utility.yul\":28683:28692   */\n      dup3\n        /* \"#utility.yul\":28679:28697   */\n      add\n        /* \"#utility.yul\":28671:28697   */\n      swap1\n      pop\n        /* \"#utility.yul\":28743:28752   */\n      dup2\n        /* \"#utility.yul\":28737:28741   */\n      dup2\n        /* \"#utility.yul\":28733:28753   */\n      sub\n        /* \"#utility.yul\":28729:28730   */\n      0x00\n        /* \"#utility.yul\":28718:28727   */\n      dup4\n        /* \"#utility.yul\":28714:28731   */\n      add\n        /* \"#utility.yul\":28707:28754   */\n      mstore\n        /* \"#utility.yul\":28771:28902   */\n      tag_635\n        /* \"#utility.yul\":28897:28901   */\n      dup2\n        /* \"#utility.yul\":28771:28902   */\n      tag_386\n      jump\t// in\n    tag_635:\n        /* \"#utility.yul\":28763:28902   */\n      swap1\n      pop\n        /* \"#utility.yul\":28490:28909   */\n      swap2\n      swap1\n      pop\n      jump\t// out\n        /* \"#utility.yul\":28915:29155   */\n    tag_387:\n        /* \"#utility.yul\":29055:29089   */\n      0x546865204e465420636f6e74726163742068617320616e20696e76616c696420\n        /* \"#utility.yul\":29051:29052   */\n      0x00\n        /* \"#utility.yul\":29043:29049   */\n      dup3\n        /* \"#utility.yul\":29039:29053   */\n      add\n        /* \"#utility.yul\":29032:29090   */\n      mstore\n        /* \"#utility.yul\":29124:29147   */\n      0x45524337323120696d706c656d656e746174696f6e0000000000000000000000\n        /* \"#utility.yul\":29119:29121   */\n      0x20\n        /* \"#utility.yul\":29111:29117   */\n      dup3\n        /* \"#utility.yul\":29107:29122   */\n      add\n        /* \"#utility.yul\":29100:29148   */\n      mstore\n        /* \"#utility.yul\":28915:29155   */\n      pop\n      jump\t// out\n        /* \"#utility.yul\":29161:29527   */\n    tag_388:\n        /* \"#utility.yul\":29303:29306   */\n      0x00\n        /* \"#utility.yul\":29324:29391   */\n      tag_638\n        /* \"#utility.yul\":29388:29390   */\n      0x35\n        /* \"#utility.yul\":29383:29386   */\n      dup4\n        /* \"#utility.yul\":29324:29391   */\n      tag_360\n      jump\t// in\n    tag_638:\n        /* \"#utility.yul\":29317:29391   */\n      swap2\n      pop\n        /* \"#utility.yul\":29400:29493   */\n      tag_639\n        /* \"#utility.yul\":29489:29492   */\n      dup3\n        /* \"#utility.yul\":29400:29493   */\n      tag_387\n      jump\t// in\n    tag_639:\n        /* \"#utility.yul\":29518:29520   */\n      0x40\n        /* \"#utility.yul\":29513:29516   */\n      dup3\n        /* \"#utility.yul\":29509:29521   */\n      add\n        /* \"#utility.yul\":29502:29521   */\n      swap1\n      pop\n        /* \"#utility.yul\":29161:29527   */\n      swap2\n      swap1\n      pop\n      jump\t// out\n        /* \"#utility.yul\":29533:29952   */\n    tag_313:\n        /* \"#utility.yul\":29699:29703   */\n      0x00\n        /* \"#utility.yul\":29737:29739   */\n      0x20\n        /* \"#utility.yul\":29726:29735   */\n      dup3\n        /* \"#utility.yul\":29722:29740   */\n      add\n        /* \"#utility.yul\":29714:29740   */\n      swap1\n      pop\n        /* \"#utility.yul\":29786:29795   */\n      dup2\n        /* \"#utility.yul\":29780:29784   */\n      dup2\n        /* \"#utility.yul\":29776:29796   */\n      sub\n        /* \"#utility.yul\":29772:29773   */\n      0x00\n        /* \"#utility.yul\":29761:29770   */\n      dup4\n        /* \"#utility.yul\":29757:29774   */\n      add\n        /* \"#utility.yul\":29750:29797   */\n      mstore\n        /* \"#utility.yul\":29814:29945   */\n      tag_641\n        /* \"#utility.yul\":29940:29944   */\n      dup2\n        /* \"#utility.yul\":29814:29945   */\n      tag_388\n      jump\t// in\n    tag_641:\n        /* \"#utility.yul\":29806:29945   */\n      swap1\n      pop\n        /* \"#utility.yul\":29533:29952   */\n      swap2\n      swap1\n      pop\n      jump\t// out\n\n    auxdata: 0xa264697066735822122000193542d45227dd88da4844743336bb44da6c1f5efe01a5406972d58fcc016464736f6c634300080d0033\n}\n",
				"bytecode": {
					"linkReferences": {},
					"object": "60806040523480156200001157600080fd5b50604051620032ec380380620032ec833981810160405281019062000037919062000263565b60016000819055506200005f620000536200012b60201b60201c565b6200013360201b60201c565b82600a60006101000a81548173ffffffffffffffffffffffffffffffffffffffff021916908373ffffffffffffffffffffffffffffffffffffffff16021790555081600c60006101000a81548173ffffffffffffffffffffffffffffffffffffffff021916908373ffffffffffffffffffffffffffffffffffffffff16021790555080600b60006101000a81548173ffffffffffffffffffffffffffffffffffffffff021916908373ffffffffffffffffffffffffffffffffffffffff160217905550505050620002bf565b600033905090565b6000600d60009054906101000a900473ffffffffffffffffffffffffffffffffffffffff16905081600d60006101000a81548173ffffffffffffffffffffffffffffffffffffffff021916908373ffffffffffffffffffffffffffffffffffffffff1602179055508173ffffffffffffffffffffffffffffffffffffffff168173ffffffffffffffffffffffffffffffffffffffff167f8be0079c531659141344cd1fd0a4f28419497f9722a3daafe3b4186f6b6457e060405160405180910390a35050565b600080fd5b600073ffffffffffffffffffffffffffffffffffffffff82169050919050565b60006200022b82620001fe565b9050919050565b6200023d816200021e565b81146200024957600080fd5b50565b6000815190506200025d8162000232565b92915050565b6000806000606084860312156200027f576200027e620001f9565b5b60006200028f868287016200024c565b9350506020620002a2868287016200024c565b9250506040620002b5868287016200024c565b9150509250925092565b61301d80620002cf6000396000f3fe6080604052600436106101355760003560e01c8063715018a6116100ab578063b7a60c7e1161006f578063b7a60c7e146103ed578063c45a015514610418578063c7be7a4914610443578063f2fde38b14610480578063f55de0c7146104a9578063ff68fa6e146104d457610135565b8063715018a61461032e57806385a8b36c146103455780638da5cb5b14610370578063a1c11ca81461039b578063ad9a0369146103c457610135565b80632b4c32be116100fd5780632b4c32be1461021f5780633fc15f151461024a578063517bd4511461027557806358eb2df5146102a65780635bb47808146102c25780635c80a435146102eb57610135565b80630f08efe01461013a57806315b1249414610165578063202e37401461018e57806327ce464e146101b95780632a45b250146101e2575b600080fd5b34801561014657600080fd5b5061014f610517565b60405161015c91906122fb565b60405180910390f35b34801561017157600080fd5b5061018c60048036038101906101879190612347565b61068c565b005b34801561019a57600080fd5b506101a361074c565b6040516101b091906124b1565b60405180910390f35b3480156101c557600080fd5b506101e060048036038101906101db9190612347565b610ace565b005b3480156101ee57600080fd5b50610209600480360381019061020491906124ff565b610b8e565b60405161021691906122fb565b60405180910390f35b34801561022b57600080fd5b50610234610d1c565b6040516102419190612567565b60405180910390f35b34801561025657600080fd5b5061025f610d27565b60405161026c91906125e1565b60405180910390f35b34801561028157600080fd5b5061028a610d4d565b60405161029d9796959493929190612638565b60405180910390f35b6102c060048036038101906102bb91906126a7565b610dea565b005b3480156102ce57600080fd5b506102e960048036038101906102e49190612347565b611147565b005b3480156102f757600080fd5b50610312600480360381019061030d91906126fa565b611207565b6040516103259796959493929190612638565b60405180910390f35b34801561033a57600080fd5b506103436112c3565b005b34801561035157600080fd5b5061035a61134b565b6040516103679190612756565b60405180910390f35b34801561037c57600080fd5b5061038561135e565b6040516103929190612771565b60405180910390f35b3480156103a757600080fd5b506103c260048036038101906103bd919061278c565b611388565b005b3480156103d057600080fd5b506103eb60048036038101906103e691906126fa565b611663565b005b3480156103f957600080fd5b50610402611b41565b60405161040f9190612756565b60405180910390f35b34801561042457600080fd5b5061042d611b54565b60405161043a91906127ed565b60405180910390f35b34801561044f57600080fd5b5061046a600480360381019061046591906124ff565b611b7a565b60405161047791906122fb565b60405180910390f35b34801561048c57600080fd5b506104a760048036038101906104a29190612347565b611d02565b005b3480156104b557600080fd5b506104be611df9565b6040516104cb9190612829565b60405180910390f35b3480156104e057600080fd5b506104fb60048036038101906104f691906124ff565b611e1f565b60405161050e9796959493929190612638565b60405180910390f35b61051f6120ea565b60016040518060e0016040529081600082015481526020016001820160009054906101000a900473ffffffffffffffffffffffffffffffffffffffff1673ffffffffffffffffffffffffffffffffffffffff1673ffffffffffffffffffffffffffffffffffffffff168152602001600282015481526020016003820160009054906101000a900473ffffffffffffffffffffffffffffffffffffffff1673ffffffffffffffffffffffffffffffffffffffff1673ffffffffffffffffffffffffffffffffffffffff1681526020016004820160009054906101000a900473ffffffffffffffffffffffffffffffffffffffff1673ffffffffffffffffffffffffffffffffffffffff1673ffffffffffffffffffffffffffffffffffffffff168152602001600582015481526020016006820160009054906101000a900460ff166001811115610671576106706121f6565b5b6001811115610683576106826121f6565b5b81525050905090565b610694611ece565b73ffffffffffffffffffffffffffffffffffffffff166106b261135e565b73ffffffffffffffffffffffffffffffffffffffff1614610708576040517f08c379a00000000000000000000000000000000000000000000000000000000081526004016106ff906128a1565b60405180910390fd5b80600c60006101000a81548173ffffffffffffffffffffffffffffffffffffffff021916908373ffffffffffffffffffffffffffffffffffffffff16021790555050565b6060600061075a600e611ed6565b905060008060005b83811015610802573373ffffffffffffffffffffffffffffffffffffffff166010600060018461079291906128f0565b815260200190815260200160002060040160009054906101000a900473ffffffffffffffffffffffffffffffffffffffff1673ffffffffffffffffffffffffffffffffffffffff16036107ef576001836107ec91906128f0565b92505b80806107fa90612946565b915050610762565b5060008267ffffffffffffffff81111561081f5761081e61298e565b5b60405190808252806020026020018201604052801561085857816020015b6108456120ea565b81526020019060019003908161083d5790505b50905060005b84811015610ac3573373ffffffffffffffffffffffffffffffffffffffff166010600060018461088e91906128f0565b815260200190815260200160002060040160009054906101000a900473ffffffffffffffffffffffffffffffffffffffff1673ffffffffffffffffffffffffffffffffffffffff1603610ab0576000601060006001846108ee91906128f0565b81526020019081526020016000206000015490506000601060008381526020019081526020016000209050806040518060e0016040529081600082015481526020016001820160009054906101000a900473ffffffffffffffffffffffffffffffffffffffff1673ffffffffffffffffffffffffffffffffffffffff1673ffffffffffffffffffffffffffffffffffffffff168152602001600282015481526020016003820160009054906101000a900473ffffffffffffffffffffffffffffffffffffffff1673ffffffffffffffffffffffffffffffffffffffff1673ffffffffffffffffffffffffffffffffffffffff1681526020016004820160009054906101000a900473ffffffffffffffffffffffffffffffffffffffff1673ffffffffffffffffffffffffffffffffffffffff1673ffffffffffffffffffffffffffffffffffffffff168152602001600582015481526020016006820160009054906101000a900460ff166001811115610a6a57610a696121f6565b5b6001811115610a7c57610a7b6121f6565b5b81525050848681518110610a9357610a926129bd565b5b6020026020010181905250600185610aab91906128f0565b945050505b8080610abb90612946565b91505061085e565b508094505050505090565b610ad6611ece565b73ffffffffffffffffffffffffffffffffffffffff16610af461135e565b73ffffffffffffffffffffffffffffffffffffffff1614610b4a576040517f08c379a0000000000000000000000000000000000000000000000000000000008152600401610b41906128a1565b60405180910390fd5b80600a60006101000a81548173ffffffffffffffffffffffffffffffffffffffff021916908373ffffffffffffffffffffffffffffffffffffffff16021790555050565b610b966120ea565b6000601060008481526020019081526020016000206040518060e0016040529081600082015481526020016001820160009054906101000a900473ffffffffffffffffffffffffffffffffffffffff1673ffffffffffffffffffffffffffffffffffffffff1673ffffffffffffffffffffffffffffffffffffffff168152602001600282015481526020016003820160009054906101000a900473ffffffffffffffffffffffffffffffffffffffff1673ffffffffffffffffffffffffffffffffffffffff1673ffffffffffffffffffffffffffffffffffffffff1681526020016004820160009054906101000a900473ffffffffffffffffffffffffffffffffffffffff1673ffffffffffffffffffffffffffffffffffffffff1673ffffffffffffffffffffffffffffffffffffffff168152602001600582015481526020016006820160009054906101000a900460ff166001811115610cfb57610cfa6121f6565b5b6001811115610d0d57610d0c6121f6565b5b81525050905080915050919050565b6380ac58cd60e01b81565b600a60009054906101000a900473ffffffffffffffffffffffffffffffffffffffff1681565b60018060000154908060010160009054906101000a900473ffffffffffffffffffffffffffffffffffffffff16908060020154908060030160009054906101000a900473ffffffffffffffffffffffffffffffffffffffff16908060040160009054906101000a900473ffffffffffffffffffffffffffffffffffffffff16908060050154908060060160009054906101000a900460ff16905087565b600260005403610e2f576040517f08c379a0000000000000000000000000000000000000000000000000000000008152600401610e2690612a38565b60405180910390fd5b600260008190555060008111610e7a576040517f08c379a0000000000000000000000000000000000000000000000000000000008152600401610e7190612aa4565b60405180910390fd5b610e84600e611ee4565b6000610e90600e611ed6565b90506040518060e001604052808281526020018573ffffffffffffffffffffffffffffffffffffffff1681526020018481526020013373ffffffffffffffffffffffffffffffffffffffff168152602001600073ffffffffffffffffffffffffffffffffffffffff168152602001838152602001600180811115610f1757610f166121f6565b5b815250601060008381526020019081526020016000206000820151816000015560208201518160010160006101000a81548173ffffffffffffffffffffffffffffffffffffffff021916908373ffffffffffffffffffffffffffffffffffffffff1602179055506040820151816002015560608201518160030160006101000a81548173ffffffffffffffffffffffffffffffffffffffff021916908373ffffffffffffffffffffffffffffffffffffffff16021790555060808201518160040160006101000a81548173ffffffffffffffffffffffffffffffffffffffff021916908373ffffffffffffffffffffffffffffffffffffffff16021790555060a0820151816005015560c08201518160060160006101000a81548160ff0219169083600181111561104b5761104a6121f6565b5b0217905550905050600c60009054906101000a900473ffffffffffffffffffffffffffffffffffffffff1673ffffffffffffffffffffffffffffffffffffffff166323b872dd3330866040518463ffffffff1660e01b81526004016110b293929190612ac4565b600060405180830381600087803b1580156110cc57600080fd5b505af11580156110e0573d6000803e3d6000fd5b50505050828473ffffffffffffffffffffffffffffffffffffffff16827f2ad024d53a0dc50c130967f8d4941927ee087ea31394cebb2b9599d3706c9c003360008760405161113193929190612ac4565b60405180910390a4506001600081905550505050565b61114f611ece565b73ffffffffffffffffffffffffffffffffffffffff1661116d61135e565b73ffffffffffffffffffffffffffffffffffffffff16146111c3576040517f08c379a00000000000000000000000000000000000000000000000000000000081526004016111ba906128a1565b60405180910390fd5b80600b60006101000a81548173ffffffffffffffffffffffffffffffffffffffff021916908373ffffffffffffffffffffffffffffffffffffffff16021790555050565b6009602052816000526040600020602052806000526040600020600091509150508060000154908060010160009054906101000a900473ffffffffffffffffffffffffffffffffffffffff16908060020154908060030160009054906101000a900473ffffffffffffffffffffffffffffffffffffffff16908060040160009054906101000a900473ffffffffffffffffffffffffffffffffffffffff16908060050154908060060160009054906101000a900460ff16905087565b6112cb611ece565b73ffffffffffffffffffffffffffffffffffffffff166112e961135e565b73ffffffffffffffffffffffffffffffffffffffff161461133f576040517f08c379a0000000000000000000000000000000000000000000000000000000008152600401611336906128a1565b60405180910390fd5b6113496000611efa565b565b600c60149054906101000a900460ff1681565b6000600d60009054906101000a900473ffffffffffffffffffffffffffffffffffffffff16905090565b6002600054036113cd576040517f08c379a00000000000000000000000000000000000000000000000000000000081526004016113c490612a38565b60405180910390fd5b600260008190555060006010600084815260200190815260200160002060050154905060006010600085815260200190815260200160002060020154905081831461144d576040517f08c379a000000000000000000000000000000000000000000000000000000000815260040161144490612b6d565b60405180910390fd5b600a60009054906101000a900473ffffffffffffffffffffffffffffffffffffffff1673ffffffffffffffffffffffffffffffffffffffff166323b872dd336010600088815260200190815260200160002060030160009054906101000a900473ffffffffffffffffffffffffffffffffffffffff16866040518463ffffffff1660e01b81526004016114e293929190612bae565b6020604051808303816000875af1158015611501573d6000803e3d6000fd5b505050506040513d601f19601f820116820180604052508101906115259190612c1d565b50600c60009054906101000a900473ffffffffffffffffffffffffffffffffffffffff1673ffffffffffffffffffffffffffffffffffffffff166323b872dd3033846040518463ffffffff1660e01b815260040161158593929190612ac4565b600060405180830381600087803b15801561159f57600080fd5b505af11580156115b3573d6000803e3d6000fd5b50505050336010600086815260200190815260200160002060040160006101000a81548173ffffffffffffffffffffffffffffffffffffffff021916908373ffffffffffffffffffffffffffffffffffffffff16021790555060006010600086815260200190815260200160002060060160006101000a81548160ff02191690836001811115611646576116456121f6565b5b0217905550611655600f611ee4565b505060016000819055505050565b61166c82611fc0565b60003390506000601060008481526020019081526020016000206040518060e0016040529081600082015481526020016001820160009054906101000a900473ffffffffffffffffffffffffffffffffffffffff1673ffffffffffffffffffffffffffffffffffffffff1673ffffffffffffffffffffffffffffffffffffffff168152602001600282015481526020016003820160009054906101000a900473ffffffffffffffffffffffffffffffffffffffff1673ffffffffffffffffffffffffffffffffffffffff1673ffffffffffffffffffffffffffffffffffffffff1681526020016004820160009054906101000a900473ffffffffffffffffffffffffffffffffffffffff1673ffffffffffffffffffffffffffffffffffffffff1673ffffffffffffffffffffffffffffffffffffffff168152602001600582015481526020016006820160009054906101000a900460ff1660018111156117d6576117d56121f6565b5b60018111156117e8576117e76121f6565b5b8152505090506000816000015103611835576040517f08c379a000000000000000000000000000000000000000000000000000000000815260040161182c90612c96565b60405180910390fd5b60006001811115611849576118486121f6565b5b8160c0015160018111156118605761185f6121f6565b5b036118a0576040517f08c379a000000000000000000000000000000000000000000000000000000000815260040161189790612d02565b60405180910390fd5b600081606001519050600073ffffffffffffffffffffffffffffffffffffffff168173ffffffffffffffffffffffffffffffffffffffff1603611918576040517f08c379a000000000000000000000000000000000000000000000000000000000815260040161190f90612d6e565b60405180910390fd5b3373ffffffffffffffffffffffffffffffffffffffff168173ffffffffffffffffffffffffffffffffffffffff1614611986576040517f08c379a000000000000000000000000000000000000000000000000000000000815260040161197d90612dda565b60405180910390fd5b60008590508073ffffffffffffffffffffffffffffffffffffffff166342842e0e3084886040518463ffffffff1660e01b81526004016119c893929190612ac4565b600060405180830381600087803b1580156119e257600080fd5b505af11580156119f6573d6000803e3d6000fd5b5050505060008360c001906001811115611a1357611a126121f6565b5b90816001811115611a2757611a266121f6565b5b81525050601060008681526020019081526020016000206000808201600090556001820160006101000a81549073ffffffffffffffffffffffffffffffffffffffff021916905560028201600090556003820160006101000a81549073ffffffffffffffffffffffffffffffffffffffff02191690556004820160006101000a81549073ffffffffffffffffffffffffffffffffffffffff021916905560058201600090556006820160006101000a81549060ff021916905550508373ffffffffffffffffffffffffffffffffffffffff16857fc141ecc59e1a451ee7d3128743c8ca3174955ce97262896269482d5f84b39a8588866000015142604051611b3193929190612dfa565b60405180910390a3505050505050565b600c60159054906101000a900460ff1681565b600b60009054906101000a900473ffffffffffffffffffffffffffffffffffffffff1681565b611b826120ea565b601060008381526020019081526020016000206040518060e0016040529081600082015481526020016001820160009054906101000a900473ffffffffffffffffffffffffffffffffffffffff1673ffffffffffffffffffffffffffffffffffffffff1673ffffffffffffffffffffffffffffffffffffffff168152602001600282015481526020016003820160009054906101000a900473ffffffffffffffffffffffffffffffffffffffff1673ffffffffffffffffffffffffffffffffffffffff1673ffffffffffffffffffffffffffffffffffffffff1681526020016004820160009054906101000a900473ffffffffffffffffffffffffffffffffffffffff1673ffffffffffffffffffffffffffffffffffffffff1673ffffffffffffffffffffffffffffffffffffffff168152602001600582015481526020016006820160009054906101000a900460ff166001811115611ce557611ce46121f6565b5b6001811115611cf757611cf66121f6565b5b815250509050919050565b611d0a611ece565b73ffffffffffffffffffffffffffffffffffffffff16611d2861135e565b73ffffffffffffffffffffffffffffffffffffffff1614611d7e576040517f08c379a0000000000000000000000000000000000000000000000000000000008152600401611d75906128a1565b60405180910390fd5b600073ffffffffffffffffffffffffffffffffffffffff168173ffffffffffffffffffffffffffffffffffffffff1603611ded576040517f08c379a0000000000000000000000000000000000000000000000000000000008152600401611de490612ea3565b60405180910390fd5b611df681611efa565b50565b600c60009054906101000a900473ffffffffffffffffffffffffffffffffffffffff1681565b60086020528060005260406000206000915090508060000154908060010160009054906101000a900473ffffffffffffffffffffffffffffffffffffffff16908060020154908060030160009054906101000a900473ffffffffffffffffffffffffffffffffffffffff16908060040160009054906101000a900473ffffffffffffffffffffffffffffffffffffffff16908060050154908060060160009054906101000a900460ff16905087565b600033905090565b600081600001549050919050565b6001816000016000828254019250508190555050565b6000600d60009054906101000a900473ffffffffffffffffffffffffffffffffffffffff16905081600d60006101000a81548173ffffffffffffffffffffffffffffffffffffffff021916908373ffffffffffffffffffffffffffffffffffffffff1602179055508173ffffffffffffffffffffffffffffffffffffffff168173ffffffffffffffffffffffffffffffffffffffff167f8be0079c531659141344cd1fd0a4f28419497f9722a3daafe3b4186f6b6457e060405160405180910390a35050565b611fc9816120d1565b612008576040517f08c379a0000000000000000000000000000000000000000000000000000000008152600401611fff90612f35565b60405180910390fd5b60008190508073ffffffffffffffffffffffffffffffffffffffff166301ffc9a76380ac58cd60e01b6040518263ffffffff1660e01b815260040161204d9190612567565b602060405180830381865afa15801561206a573d6000803e3d6000fd5b505050506040513d601f19601f8201168201806040525081019061208e9190612c1d565b6120cd576040517f08c379a00000000000000000000000000000000000000000000000000000000081526004016120c490612fc7565b60405180910390fd5b5050565b600080823b905060008163ffffffff1611915050919050565b6040518060e0016040528060008152602001600073ffffffffffffffffffffffffffffffffffffffff16815260200160008152602001600073ffffffffffffffffffffffffffffffffffffffff168152602001600073ffffffffffffffffffffffffffffffffffffffff1681526020016000815260200160006001811115612175576121746121f6565b5b81525090565b6000819050919050565b61218e8161217b565b82525050565b600073ffffffffffffffffffffffffffffffffffffffff82169050919050565b60006121bf82612194565b9050919050565b6121cf816121b4565b82525050565b60006121e082612194565b9050919050565b6121f0816121d5565b82525050565b7f4e487b7100000000000000000000000000000000000000000000000000000000600052602160045260246000fd5b60028110612236576122356121f6565b5b50565b600081905061224782612225565b919050565b600061225782612239565b9050919050565b6122678161224c565b82525050565b60e0820160008201516122836000850182612185565b50602082015161229660208501826121c6565b5060408201516122a96040850182612185565b5060608201516122bc60608501826121e7565b5060808201516122cf60808501826121e7565b5060a08201516122e260a0850182612185565b5060c08201516122f560c085018261225e565b50505050565b600060e082019050612310600083018461226d565b92915050565b600080fd5b612324816121b4565b811461232f57600080fd5b50565b6000813590506123418161231b565b92915050565b60006020828403121561235d5761235c612316565b5b600061236b84828501612332565b91505092915050565b600081519050919050565b600082825260208201905092915050565b6000819050602082019050919050565b60e0820160008201516123b66000850182612185565b5060208201516123c960208501826121c6565b5060408201516123dc6040850182612185565b5060608201516123ef60608501826121e7565b50608082015161240260808501826121e7565b5060a082015161241560a0850182612185565b5060c082015161242860c085018261225e565b50505050565b600061243a83836123a0565b60e08301905092915050565b6000602082019050919050565b600061245e82612374565b612468818561237f565b935061247383612390565b8060005b838110156124a457815161248b888261242e565b975061249683612446565b925050600181019050612477565b5085935050505092915050565b600060208201905081810360008301526124cb8184612453565b905092915050565b6124dc8161217b565b81146124e757600080fd5b50565b6000813590506124f9816124d3565b92915050565b60006020828403121561251557612514612316565b5b6000612523848285016124ea565b91505092915050565b60007fffffffff0000000000000000000000000000000000000000000000000000000082169050919050565b6125618161252c565b82525050565b600060208201905061257c6000830184612558565b92915050565b6000819050919050565b60006125a76125a261259d84612194565b612582565b612194565b9050919050565b60006125b98261258c565b9050919050565b60006125cb826125ae565b9050919050565b6125db816125c0565b82525050565b60006020820190506125f660008301846125d2565b92915050565b6126058161217b565b82525050565b612614816121b4565b82525050565b612623816121d5565b82525050565b6126328161224c565b82525050565b600060e08201905061264d600083018a6125fc565b61265a602083018961260b565b61266760408301886125fc565b612674606083018761261a565b612681608083018661261a565b61268e60a08301856125fc565b61269b60c0830184612629565b98975050505050505050565b6000806000606084860312156126c0576126bf612316565b5b60006126ce86828701612332565b93505060206126df868287016124ea565b92505060406126f0868287016124ea565b9150509250925092565b6000806040838503121561271157612710612316565b5b600061271f85828601612332565b9250506020612730858286016124ea565b9150509250929050565b600060ff82169050919050565b6127508161273a565b82525050565b600060208201905061276b6000830184612747565b92915050565b6000602082019050612786600083018461260b565b92915050565b600080604083850312156127a3576127a2612316565b5b60006127b1858286016124ea565b92505060206127c2858286016124ea565b9150509250929050565b60006127d7826125ae565b9050919050565b6127e7816127cc565b82525050565b600060208201905061280260008301846127de565b92915050565b6000612813826125ae565b9050919050565b61282381612808565b82525050565b600060208201905061283e600083018461281a565b92915050565b600082825260208201905092915050565b7f4f776e61626c653a2063616c6c6572206973206e6f7420746865206f776e6572600082015250565b600061288b602083612844565b915061289682612855565b602082019050919050565b600060208201905081810360008301526128ba8161287e565b9050919050565b7f4e487b7100000000000000000000000000000000000000000000000000000000600052601160045260246000fd5b60006128fb8261217b565b91506129068361217b565b9250827fffffffffffffffffffffffffffffffffffffffffffffffffffffffffffffffff0382111561293b5761293a6128c1565b5b828201905092915050565b60006129518261217b565b91507fffffffffffffffffffffffffffffffffffffffffffffffffffffffffffffffff8203612983576129826128c1565b5b600182019050919050565b7f4e487b7100000000000000000000000000000000000000000000000000000000600052604160045260246000fd5b7f4e487b7100000000000000000000000000000000000000000000000000000000600052603260045260246000fd5b7f5265656e7472616e637947756172643a207265656e7472616e742063616c6c00600082015250565b6000612a22601f83612844565b9150612a2d826129ec565b602082019050919050565b60006020820190508181036000830152612a5181612a15565b9050919050565b7f5072696365206d757374206265206174206c6561737420312077656900000000600082015250565b6000612a8e601c83612844565b9150612a9982612a58565b602082019050919050565b60006020820190508181036000830152612abd81612a81565b9050919050565b6000606082019050612ad9600083018661260b565b612ae6602083018561260b565b612af360408301846125fc565b949350505050565b7f506c65617365207375626d6974207468652061736b696e67207072696365206960008201527f6e206f7264657220746f20636f6d706c65746520746865207075726368617365602082015250565b6000612b57604083612844565b9150612b6282612afb565b604082019050919050565b60006020820190508181036000830152612b8681612b4a565b9050919050565b6000612b98826125ae565b9050919050565b612ba881612b8d565b82525050565b6000606082019050612bc3600083018661260b565b612bd06020830185612b9f565b612bdd60408301846125fc565b949350505050565b60008115159050919050565b612bfa81612be5565b8114612c0557600080fd5b50565b600081519050612c1781612bf1565b92915050565b600060208284031215612c3357612c32612316565b5b6000612c4184828501612c08565b91505092915050565b7f4173736574206e6f74207075626c697368656400000000000000000000000000600082015250565b6000612c80601383612844565b9150612c8b82612c4a565b602082019050919050565b60006020820190508181036000830152612caf81612c73565b9050919050565b7f41737365742064656c6973746564000000000000000000000000000000000000600082015250565b6000612cec600e83612844565b9150612cf782612cb6565b602082019050919050565b60006020820190508181036000830152612d1b81612cdf565b9050919050565b7f496e76616c696420616464726573730000000000000000000000000000000000600082015250565b6000612d58600f83612844565b9150612d6382612d22565b602082019050919050565b60006020820190508181036000830152612d8781612d4b565b9050919050565b7f4f6e6c792073656c6c65722063616e2064656c69737400000000000000000000600082015250565b6000612dc4601683612844565b9150612dcf82612d8e565b602082019050919050565b60006020820190508181036000830152612df381612db7565b9050919050565b6000606082019050612e0f600083018661260b565b612e1c60208301856125fc565b612e2960408301846125fc565b949350505050565b7f4f776e61626c653a206e6577206f776e657220697320746865207a65726f206160008201527f6464726573730000000000000000000000000000000000000000000000000000602082015250565b6000612e8d602683612844565b9150612e9882612e31565b604082019050919050565b60006020820190508181036000830152612ebc81612e80565b9050919050565b7f546865204e465420416464726573732073686f756c64206265206120636f6e7460008201527f7261637400000000000000000000000000000000000000000000000000000000602082015250565b6000612f1f602483612844565b9150612f2a82612ec3565b604082019050919050565b60006020820190508181036000830152612f4e81612f12565b9050919050565b7f546865204e465420636f6e74726163742068617320616e20696e76616c69642060008201527f45524337323120696d706c656d656e746174696f6e0000000000000000000000602082015250565b6000612fb1603583612844565b9150612fbc82612f55565b604082019050919050565b60006020820190508181036000830152612fe081612fa4565b905091905056fea264697066735822122000193542d45227dd88da4844743336bb44da6c1f5efe01a5406972d58fcc016464736f6c634300080d0033",
					"opcodes": "PUSH1 0x80 PUSH1 0x40 MSTORE CALLVALUE DUP1 ISZERO PUSH3 0x11 JUMPI PUSH1 0x0 DUP1 REVERT JUMPDEST POP PUSH1 0x40 MLOAD PUSH3 0x32EC CODESIZE SUB DUP1 PUSH3 0x32EC DUP4 CODECOPY DUP2 DUP2 ADD PUSH1 0x40 MSTORE DUP2 ADD SWAP1 PUSH3 0x37 SWAP2 SWAP1 PUSH3 0x263 JUMP JUMPDEST PUSH1 0x1 PUSH1 0x0 DUP2 SWAP1 SSTORE POP PUSH3 0x5F PUSH3 0x53 PUSH3 0x12B PUSH1 0x20 SHL PUSH1 0x20 SHR JUMP JUMPDEST PUSH3 0x133 PUSH1 0x20 SHL PUSH1 0x20 SHR JUMP JUMPDEST DUP3 PUSH1 0xA PUSH1 0x0 PUSH2 0x100 EXP DUP2 SLOAD DUP2 PUSH20 0xFFFFFFFFFFFFFFFFFFFFFFFFFFFFFFFFFFFFFFFF MUL NOT AND SWAP1 DUP4 PUSH20 0xFFFFFFFFFFFFFFFFFFFFFFFFFFFFFFFFFFFFFFFF AND MUL OR SWAP1 SSTORE POP DUP2 PUSH1 0xC PUSH1 0x0 PUSH2 0x100 EXP DUP2 SLOAD DUP2 PUSH20 0xFFFFFFFFFFFFFFFFFFFFFFFFFFFFFFFFFFFFFFFF MUL NOT AND SWAP1 DUP4 PUSH20 0xFFFFFFFFFFFFFFFFFFFFFFFFFFFFFFFFFFFFFFFF AND MUL OR SWAP1 SSTORE POP DUP1 PUSH1 0xB PUSH1 0x0 PUSH2 0x100 EXP DUP2 SLOAD DUP2 PUSH20 0xFFFFFFFFFFFFFFFFFFFFFFFFFFFFFFFFFFFFFFFF MUL NOT AND SWAP1 DUP4 PUSH20 0xFFFFFFFFFFFFFFFFFFFFFFFFFFFFFFFFFFFFFFFF AND MUL OR SWAP1 SSTORE POP POP POP POP PUSH3 0x2BF JUMP JUMPDEST PUSH1 0x0 CALLER SWAP1 POP SWAP1 JUMP JUMPDEST PUSH1 0x0 PUSH1 0xD PUSH1 0x0 SWAP1 SLOAD SWAP1 PUSH2 0x100 EXP SWAP1 DIV PUSH20 0xFFFFFFFFFFFFFFFFFFFFFFFFFFFFFFFFFFFFFFFF AND SWAP1 POP DUP2 PUSH1 0xD PUSH1 0x0 PUSH2 0x100 EXP DUP2 SLOAD DUP2 PUSH20 0xFFFFFFFFFFFFFFFFFFFFFFFFFFFFFFFFFFFFFFFF MUL NOT AND SWAP1 DUP4 PUSH20 0xFFFFFFFFFFFFFFFFFFFFFFFFFFFFFFFFFFFFFFFF AND MUL OR SWAP1 SSTORE POP DUP2 PUSH20 0xFFFFFFFFFFFFFFFFFFFFFFFFFFFFFFFFFFFFFFFF AND DUP2 PUSH20 0xFFFFFFFFFFFFFFFFFFFFFFFFFFFFFFFFFFFFFFFF AND PUSH32 0x8BE0079C531659141344CD1FD0A4F28419497F9722A3DAAFE3B4186F6B6457E0 PUSH1 0x40 MLOAD PUSH1 0x40 MLOAD DUP1 SWAP2 SUB SWAP1 LOG3 POP POP JUMP JUMPDEST PUSH1 0x0 DUP1 REVERT JUMPDEST PUSH1 0x0 PUSH20 0xFFFFFFFFFFFFFFFFFFFFFFFFFFFFFFFFFFFFFFFF DUP3 AND SWAP1 POP SWAP2 SWAP1 POP JUMP JUMPDEST PUSH1 0x0 PUSH3 0x22B DUP3 PUSH3 0x1FE JUMP JUMPDEST SWAP1 POP SWAP2 SWAP1 POP JUMP JUMPDEST PUSH3 0x23D DUP2 PUSH3 0x21E JUMP JUMPDEST DUP2 EQ PUSH3 0x249 JUMPI PUSH1 0x0 DUP1 REVERT JUMPDEST POP JUMP JUMPDEST PUSH1 0x0 DUP2 MLOAD SWAP1 POP PUSH3 0x25D DUP2 PUSH3 0x232 JUMP JUMPDEST SWAP3 SWAP2 POP POP JUMP JUMPDEST PUSH1 0x0 DUP1 PUSH1 0x0 PUSH1 0x60 DUP5 DUP7 SUB SLT ISZERO PUSH3 0x27F JUMPI PUSH3 0x27E PUSH3 0x1F9 JUMP JUMPDEST JUMPDEST PUSH1 0x0 PUSH3 0x28F DUP7 DUP3 DUP8 ADD PUSH3 0x24C JUMP JUMPDEST SWAP4 POP POP PUSH1 0x20 PUSH3 0x2A2 DUP7 DUP3 DUP8 ADD PUSH3 0x24C JUMP JUMPDEST SWAP3 POP POP PUSH1 0x40 PUSH3 0x2B5 DUP7 DUP3 DUP8 ADD PUSH3 0x24C JUMP JUMPDEST SWAP2 POP POP SWAP3 POP SWAP3 POP SWAP3 JUMP JUMPDEST PUSH2 0x301D DUP1 PUSH3 0x2CF PUSH1 0x0 CODECOPY PUSH1 0x0 RETURN INVALID PUSH1 0x80 PUSH1 0x40 MSTORE PUSH1 0x4 CALLDATASIZE LT PUSH2 0x135 JUMPI PUSH1 0x0 CALLDATALOAD PUSH1 0xE0 SHR DUP1 PUSH4 0x715018A6 GT PUSH2 0xAB JUMPI DUP1 PUSH4 0xB7A60C7E GT PUSH2 0x6F JUMPI DUP1 PUSH4 0xB7A60C7E EQ PUSH2 0x3ED JUMPI DUP1 PUSH4 0xC45A0155 EQ PUSH2 0x418 JUMPI DUP1 PUSH4 0xC7BE7A49 EQ PUSH2 0x443 JUMPI DUP1 PUSH4 0xF2FDE38B EQ PUSH2 0x480 JUMPI DUP1 PUSH4 0xF55DE0C7 EQ PUSH2 0x4A9 JUMPI DUP1 PUSH4 0xFF68FA6E EQ PUSH2 0x4D4 JUMPI PUSH2 0x135 JUMP JUMPDEST DUP1 PUSH4 0x715018A6 EQ PUSH2 0x32E JUMPI DUP1 PUSH4 0x85A8B36C EQ PUSH2 0x345 JUMPI DUP1 PUSH4 0x8DA5CB5B EQ PUSH2 0x370 JUMPI DUP1 PUSH4 0xA1C11CA8 EQ PUSH2 0x39B JUMPI DUP1 PUSH4 0xAD9A0369 EQ PUSH2 0x3C4 JUMPI PUSH2 0x135 JUMP JUMPDEST DUP1 PUSH4 0x2B4C32BE GT PUSH2 0xFD JUMPI DUP1 PUSH4 0x2B4C32BE EQ PUSH2 0x21F JUMPI DUP1 PUSH4 0x3FC15F15 EQ PUSH2 0x24A JUMPI DUP1 PUSH4 0x517BD451 EQ PUSH2 0x275 JUMPI DUP1 PUSH4 0x58EB2DF5 EQ PUSH2 0x2A6 JUMPI DUP1 PUSH4 0x5BB47808 EQ PUSH2 0x2C2 JUMPI DUP1 PUSH4 0x5C80A435 EQ PUSH2 0x2EB JUMPI PUSH2 0x135 JUMP JUMPDEST DUP1 PUSH4 0xF08EFE0 EQ PUSH2 0x13A JUMPI DUP1 PUSH4 0x15B12494 EQ PUSH2 0x165 JUMPI DUP1 PUSH4 0x202E3740 EQ PUSH2 0x18E JUMPI DUP1 PUSH4 0x27CE464E EQ PUSH2 0x1B9 JUMPI DUP1 PUSH4 0x2A45B250 EQ PUSH2 0x1E2 JUMPI JUMPDEST PUSH1 0x0 DUP1 REVERT JUMPDEST CALLVALUE DUP1 ISZERO PUSH2 0x146 JUMPI PUSH1 0x0 DUP1 REVERT JUMPDEST POP PUSH2 0x14F PUSH2 0x517 JUMP JUMPDEST PUSH1 0x40 MLOAD PUSH2 0x15C SWAP2 SWAP1 PUSH2 0x22FB JUMP JUMPDEST PUSH1 0x40 MLOAD DUP1 SWAP2 SUB SWAP1 RETURN JUMPDEST CALLVALUE DUP1 ISZERO PUSH2 0x171 JUMPI PUSH1 0x0 DUP1 REVERT JUMPDEST POP PUSH2 0x18C PUSH1 0x4 DUP1 CALLDATASIZE SUB DUP2 ADD SWAP1 PUSH2 0x187 SWAP2 SWAP1 PUSH2 0x2347 JUMP JUMPDEST PUSH2 0x68C JUMP JUMPDEST STOP JUMPDEST CALLVALUE DUP1 ISZERO PUSH2 0x19A JUMPI PUSH1 0x0 DUP1 REVERT JUMPDEST POP PUSH2 0x1A3 PUSH2 0x74C JUMP JUMPDEST PUSH1 0x40 MLOAD PUSH2 0x1B0 SWAP2 SWAP1 PUSH2 0x24B1 JUMP JUMPDEST PUSH1 0x40 MLOAD DUP1 SWAP2 SUB SWAP1 RETURN JUMPDEST CALLVALUE DUP1 ISZERO PUSH2 0x1C5 JUMPI PUSH1 0x0 DUP1 REVERT JUMPDEST POP PUSH2 0x1E0 PUSH1 0x4 DUP1 CALLDATASIZE SUB DUP2 ADD SWAP1 PUSH2 0x1DB SWAP2 SWAP1 PUSH2 0x2347 JUMP JUMPDEST PUSH2 0xACE JUMP JUMPDEST STOP JUMPDEST CALLVALUE DUP1 ISZERO PUSH2 0x1EE JUMPI PUSH1 0x0 DUP1 REVERT JUMPDEST POP PUSH2 0x209 PUSH1 0x4 DUP1 CALLDATASIZE SUB DUP2 ADD SWAP1 PUSH2 0x204 SWAP2 SWAP1 PUSH2 0x24FF JUMP JUMPDEST PUSH2 0xB8E JUMP JUMPDEST PUSH1 0x40 MLOAD PUSH2 0x216 SWAP2 SWAP1 PUSH2 0x22FB JUMP JUMPDEST PUSH1 0x40 MLOAD DUP1 SWAP2 SUB SWAP1 RETURN JUMPDEST CALLVALUE DUP1 ISZERO PUSH2 0x22B JUMPI PUSH1 0x0 DUP1 REVERT JUMPDEST POP PUSH2 0x234 PUSH2 0xD1C JUMP JUMPDEST PUSH1 0x40 MLOAD PUSH2 0x241 SWAP2 SWAP1 PUSH2 0x2567 JUMP JUMPDEST PUSH1 0x40 MLOAD DUP1 SWAP2 SUB SWAP1 RETURN JUMPDEST CALLVALUE DUP1 ISZERO PUSH2 0x256 JUMPI PUSH1 0x0 DUP1 REVERT JUMPDEST POP PUSH2 0x25F PUSH2 0xD27 JUMP JUMPDEST PUSH1 0x40 MLOAD PUSH2 0x26C SWAP2 SWAP1 PUSH2 0x25E1 JUMP JUMPDEST PUSH1 0x40 MLOAD DUP1 SWAP2 SUB SWAP1 RETURN JUMPDEST CALLVALUE DUP1 ISZERO PUSH2 0x281 JUMPI PUSH1 0x0 DUP1 REVERT JUMPDEST POP PUSH2 0x28A PUSH2 0xD4D JUMP JUMPDEST PUSH1 0x40 MLOAD PUSH2 0x29D SWAP8 SWAP7 SWAP6 SWAP5 SWAP4 SWAP3 SWAP2 SWAP1 PUSH2 0x2638 JUMP JUMPDEST PUSH1 0x40 MLOAD DUP1 SWAP2 SUB SWAP1 RETURN JUMPDEST PUSH2 0x2C0 PUSH1 0x4 DUP1 CALLDATASIZE SUB DUP2 ADD SWAP1 PUSH2 0x2BB SWAP2 SWAP1 PUSH2 0x26A7 JUMP JUMPDEST PUSH2 0xDEA JUMP JUMPDEST STOP JUMPDEST CALLVALUE DUP1 ISZERO PUSH2 0x2CE JUMPI PUSH1 0x0 DUP1 REVERT JUMPDEST POP PUSH2 0x2E9 PUSH1 0x4 DUP1 CALLDATASIZE SUB DUP2 ADD SWAP1 PUSH2 0x2E4 SWAP2 SWAP1 PUSH2 0x2347 JUMP JUMPDEST PUSH2 0x1147 JUMP JUMPDEST STOP JUMPDEST CALLVALUE DUP1 ISZERO PUSH2 0x2F7 JUMPI PUSH1 0x0 DUP1 REVERT JUMPDEST POP PUSH2 0x312 PUSH1 0x4 DUP1 CALLDATASIZE SUB DUP2 ADD SWAP1 PUSH2 0x30D SWAP2 SWAP1 PUSH2 0x26FA JUMP JUMPDEST PUSH2 0x1207 JUMP JUMPDEST PUSH1 0x40 MLOAD PUSH2 0x325 SWAP8 SWAP7 SWAP6 SWAP5 SWAP4 SWAP3 SWAP2 SWAP1 PUSH2 0x2638 JUMP JUMPDEST PUSH1 0x40 MLOAD DUP1 SWAP2 SUB SWAP1 RETURN JUMPDEST CALLVALUE DUP1 ISZERO PUSH2 0x33A JUMPI PUSH1 0x0 DUP1 REVERT JUMPDEST POP PUSH2 0x343 PUSH2 0x12C3 JUMP JUMPDEST STOP JUMPDEST CALLVALUE DUP1 ISZERO PUSH2 0x351 JUMPI PUSH1 0x0 DUP1 REVERT JUMPDEST POP PUSH2 0x35A PUSH2 0x134B JUMP JUMPDEST PUSH1 0x40 MLOAD PUSH2 0x367 SWAP2 SWAP1 PUSH2 0x2756 JUMP JUMPDEST PUSH1 0x40 MLOAD DUP1 SWAP2 SUB SWAP1 RETURN JUMPDEST CALLVALUE DUP1 ISZERO PUSH2 0x37C JUMPI PUSH1 0x0 DUP1 REVERT JUMPDEST POP PUSH2 0x385 PUSH2 0x135E JUMP JUMPDEST PUSH1 0x40 MLOAD PUSH2 0x392 SWAP2 SWAP1 PUSH2 0x2771 JUMP JUMPDEST PUSH1 0x40 MLOAD DUP1 SWAP2 SUB SWAP1 RETURN JUMPDEST CALLVALUE DUP1 ISZERO PUSH2 0x3A7 JUMPI PUSH1 0x0 DUP1 REVERT JUMPDEST POP PUSH2 0x3C2 PUSH1 0x4 DUP1 CALLDATASIZE SUB DUP2 ADD SWAP1 PUSH2 0x3BD SWAP2 SWAP1 PUSH2 0x278C JUMP JUMPDEST PUSH2 0x1388 JUMP JUMPDEST STOP JUMPDEST CALLVALUE DUP1 ISZERO PUSH2 0x3D0 JUMPI PUSH1 0x0 DUP1 REVERT JUMPDEST POP PUSH2 0x3EB PUSH1 0x4 DUP1 CALLDATASIZE SUB DUP2 ADD SWAP1 PUSH2 0x3E6 SWAP2 SWAP1 PUSH2 0x26FA JUMP JUMPDEST PUSH2 0x1663 JUMP JUMPDEST STOP JUMPDEST CALLVALUE DUP1 ISZERO PUSH2 0x3F9 JUMPI PUSH1 0x0 DUP1 REVERT JUMPDEST POP PUSH2 0x402 PUSH2 0x1B41 JUMP JUMPDEST PUSH1 0x40 MLOAD PUSH2 0x40F SWAP2 SWAP1 PUSH2 0x2756 JUMP JUMPDEST PUSH1 0x40 MLOAD DUP1 SWAP2 SUB SWAP1 RETURN JUMPDEST CALLVALUE DUP1 ISZERO PUSH2 0x424 JUMPI PUSH1 0x0 DUP1 REVERT JUMPDEST POP PUSH2 0x42D PUSH2 0x1B54 JUMP JUMPDEST PUSH1 0x40 MLOAD PUSH2 0x43A SWAP2 SWAP1 PUSH2 0x27ED JUMP JUMPDEST PUSH1 0x40 MLOAD DUP1 SWAP2 SUB SWAP1 RETURN JUMPDEST CALLVALUE DUP1 ISZERO PUSH2 0x44F JUMPI PUSH1 0x0 DUP1 REVERT JUMPDEST POP PUSH2 0x46A PUSH1 0x4 DUP1 CALLDATASIZE SUB DUP2 ADD SWAP1 PUSH2 0x465 SWAP2 SWAP1 PUSH2 0x24FF JUMP JUMPDEST PUSH2 0x1B7A JUMP JUMPDEST PUSH1 0x40 MLOAD PUSH2 0x477 SWAP2 SWAP1 PUSH2 0x22FB JUMP JUMPDEST PUSH1 0x40 MLOAD DUP1 SWAP2 SUB SWAP1 RETURN JUMPDEST CALLVALUE DUP1 ISZERO PUSH2 0x48C JUMPI PUSH1 0x0 DUP1 REVERT JUMPDEST POP PUSH2 0x4A7 PUSH1 0x4 DUP1 CALLDATASIZE SUB DUP2 ADD SWAP1 PUSH2 0x4A2 SWAP2 SWAP1 PUSH2 0x2347 JUMP JUMPDEST PUSH2 0x1D02 JUMP JUMPDEST STOP JUMPDEST CALLVALUE DUP1 ISZERO PUSH2 0x4B5 JUMPI PUSH1 0x0 DUP1 REVERT JUMPDEST POP PUSH2 0x4BE PUSH2 0x1DF9 JUMP JUMPDEST PUSH1 0x40 MLOAD PUSH2 0x4CB SWAP2 SWAP1 PUSH2 0x2829 JUMP JUMPDEST PUSH1 0x40 MLOAD DUP1 SWAP2 SUB SWAP1 RETURN JUMPDEST CALLVALUE DUP1 ISZERO PUSH2 0x4E0 JUMPI PUSH1 0x0 DUP1 REVERT JUMPDEST POP PUSH2 0x4FB PUSH1 0x4 DUP1 CALLDATASIZE SUB DUP2 ADD SWAP1 PUSH2 0x4F6 SWAP2 SWAP1 PUSH2 0x24FF JUMP JUMPDEST PUSH2 0x1E1F JUMP JUMPDEST PUSH1 0x40 MLOAD PUSH2 0x50E SWAP8 SWAP7 SWAP6 SWAP5 SWAP4 SWAP3 SWAP2 SWAP1 PUSH2 0x2638 JUMP JUMPDEST PUSH1 0x40 MLOAD DUP1 SWAP2 SUB SWAP1 RETURN JUMPDEST PUSH2 0x51F PUSH2 0x20EA JUMP JUMPDEST PUSH1 0x1 PUSH1 0x40 MLOAD DUP1 PUSH1 0xE0 ADD PUSH1 0x40 MSTORE SWAP1 DUP2 PUSH1 0x0 DUP3 ADD SLOAD DUP2 MSTORE PUSH1 0x20 ADD PUSH1 0x1 DUP3 ADD PUSH1 0x0 SWAP1 SLOAD SWAP1 PUSH2 0x100 EXP SWAP1 DIV PUSH20 0xFFFFFFFFFFFFFFFFFFFFFFFFFFFFFFFFFFFFFFFF AND PUSH20 0xFFFFFFFFFFFFFFFFFFFFFFFFFFFFFFFFFFFFFFFF AND PUSH20 0xFFFFFFFFFFFFFFFFFFFFFFFFFFFFFFFFFFFFFFFF AND DUP2 MSTORE PUSH1 0x20 ADD PUSH1 0x2 DUP3 ADD SLOAD DUP2 MSTORE PUSH1 0x20 ADD PUSH1 0x3 DUP3 ADD PUSH1 0x0 SWAP1 SLOAD SWAP1 PUSH2 0x100 EXP SWAP1 DIV PUSH20 0xFFFFFFFFFFFFFFFFFFFFFFFFFFFFFFFFFFFFFFFF AND PUSH20 0xFFFFFFFFFFFFFFFFFFFFFFFFFFFFFFFFFFFFFFFF AND PUSH20 0xFFFFFFFFFFFFFFFFFFFFFFFFFFFFFFFFFFFFFFFF AND DUP2 MSTORE PUSH1 0x20 ADD PUSH1 0x4 DUP3 ADD PUSH1 0x0 SWAP1 SLOAD SWAP1 PUSH2 0x100 EXP SWAP1 DIV PUSH20 0xFFFFFFFFFFFFFFFFFFFFFFFFFFFFFFFFFFFFFFFF AND PUSH20 0xFFFFFFFFFFFFFFFFFFFFFFFFFFFFFFFFFFFFFFFF AND PUSH20 0xFFFFFFFFFFFFFFFFFFFFFFFFFFFFFFFFFFFFFFFF AND DUP2 MSTORE PUSH1 0x20 ADD PUSH1 0x5 DUP3 ADD SLOAD DUP2 MSTORE PUSH1 0x20 ADD PUSH1 0x6 DUP3 ADD PUSH1 0x0 SWAP1 SLOAD SWAP1 PUSH2 0x100 EXP SWAP1 DIV PUSH1 0xFF AND PUSH1 0x1 DUP2 GT ISZERO PUSH2 0x671 JUMPI PUSH2 0x670 PUSH2 0x21F6 JUMP JUMPDEST JUMPDEST PUSH1 0x1 DUP2 GT ISZERO PUSH2 0x683 JUMPI PUSH2 0x682 PUSH2 0x21F6 JUMP JUMPDEST JUMPDEST DUP2 MSTORE POP POP SWAP1 POP SWAP1 JUMP JUMPDEST PUSH2 0x694 PUSH2 0x1ECE JUMP JUMPDEST PUSH20 0xFFFFFFFFFFFFFFFFFFFFFFFFFFFFFFFFFFFFFFFF AND PUSH2 0x6B2 PUSH2 0x135E JUMP JUMPDEST PUSH20 0xFFFFFFFFFFFFFFFFFFFFFFFFFFFFFFFFFFFFFFFF AND EQ PUSH2 0x708 JUMPI PUSH1 0x40 MLOAD PUSH32 0x8C379A000000000000000000000000000000000000000000000000000000000 DUP2 MSTORE PUSH1 0x4 ADD PUSH2 0x6FF SWAP1 PUSH2 0x28A1 JUMP JUMPDEST PUSH1 0x40 MLOAD DUP1 SWAP2 SUB SWAP1 REVERT JUMPDEST DUP1 PUSH1 0xC PUSH1 0x0 PUSH2 0x100 EXP DUP2 SLOAD DUP2 PUSH20 0xFFFFFFFFFFFFFFFFFFFFFFFFFFFFFFFFFFFFFFFF MUL NOT AND SWAP1 DUP4 PUSH20 0xFFFFFFFFFFFFFFFFFFFFFFFFFFFFFFFFFFFFFFFF AND MUL OR SWAP1 SSTORE POP POP JUMP JUMPDEST PUSH1 0x60 PUSH1 0x0 PUSH2 0x75A PUSH1 0xE PUSH2 0x1ED6 JUMP JUMPDEST SWAP1 POP PUSH1 0x0 DUP1 PUSH1 0x0 JUMPDEST DUP4 DUP2 LT ISZERO PUSH2 0x802 JUMPI CALLER PUSH20 0xFFFFFFFFFFFFFFFFFFFFFFFFFFFFFFFFFFFFFFFF AND PUSH1 0x10 PUSH1 0x0 PUSH1 0x1 DUP5 PUSH2 0x792 SWAP2 SWAP1 PUSH2 0x28F0 JUMP JUMPDEST DUP2 MSTORE PUSH1 0x20 ADD SWAP1 DUP2 MSTORE PUSH1 0x20 ADD PUSH1 0x0 KECCAK256 PUSH1 0x4 ADD PUSH1 0x0 SWAP1 SLOAD SWAP1 PUSH2 0x100 EXP SWAP1 DIV PUSH20 0xFFFFFFFFFFFFFFFFFFFFFFFFFFFFFFFFFFFFFFFF AND PUSH20 0xFFFFFFFFFFFFFFFFFFFFFFFFFFFFFFFFFFFFFFFF AND SUB PUSH2 0x7EF JUMPI PUSH1 0x1 DUP4 PUSH2 0x7EC SWAP2 SWAP1 PUSH2 0x28F0 JUMP JUMPDEST SWAP3 POP JUMPDEST DUP1 DUP1 PUSH2 0x7FA SWAP1 PUSH2 0x2946 JUMP JUMPDEST SWAP2 POP POP PUSH2 0x762 JUMP JUMPDEST POP PUSH1 0x0 DUP3 PUSH8 0xFFFFFFFFFFFFFFFF DUP2 GT ISZERO PUSH2 0x81F JUMPI PUSH2 0x81E PUSH2 0x298E JUMP JUMPDEST JUMPDEST PUSH1 0x40 MLOAD SWAP1 DUP1 DUP3 MSTORE DUP1 PUSH1 0x20 MUL PUSH1 0x20 ADD DUP3 ADD PUSH1 0x40 MSTORE DUP1 ISZERO PUSH2 0x858 JUMPI DUP2 PUSH1 0x20 ADD JUMPDEST PUSH2 0x845 PUSH2 0x20EA JUMP JUMPDEST DUP2 MSTORE PUSH1 0x20 ADD SWAP1 PUSH1 0x1 SWAP1 SUB SWAP1 DUP2 PUSH2 0x83D JUMPI SWAP1 POP JUMPDEST POP SWAP1 POP PUSH1 0x0 JUMPDEST DUP5 DUP2 LT ISZERO PUSH2 0xAC3 JUMPI CALLER PUSH20 0xFFFFFFFFFFFFFFFFFFFFFFFFFFFFFFFFFFFFFFFF AND PUSH1 0x10 PUSH1 0x0 PUSH1 0x1 DUP5 PUSH2 0x88E SWAP2 SWAP1 PUSH2 0x28F0 JUMP JUMPDEST DUP2 MSTORE PUSH1 0x20 ADD SWAP1 DUP2 MSTORE PUSH1 0x20 ADD PUSH1 0x0 KECCAK256 PUSH1 0x4 ADD PUSH1 0x0 SWAP1 SLOAD SWAP1 PUSH2 0x100 EXP SWAP1 DIV PUSH20 0xFFFFFFFFFFFFFFFFFFFFFFFFFFFFFFFFFFFFFFFF AND PUSH20 0xFFFFFFFFFFFFFFFFFFFFFFFFFFFFFFFFFFFFFFFF AND SUB PUSH2 0xAB0 JUMPI PUSH1 0x0 PUSH1 0x10 PUSH1 0x0 PUSH1 0x1 DUP5 PUSH2 0x8EE SWAP2 SWAP1 PUSH2 0x28F0 JUMP JUMPDEST DUP2 MSTORE PUSH1 0x20 ADD SWAP1 DUP2 MSTORE PUSH1 0x20 ADD PUSH1 0x0 KECCAK256 PUSH1 0x0 ADD SLOAD SWAP1 POP PUSH1 0x0 PUSH1 0x10 PUSH1 0x0 DUP4 DUP2 MSTORE PUSH1 0x20 ADD SWAP1 DUP2 MSTORE PUSH1 0x20 ADD PUSH1 0x0 KECCAK256 SWAP1 POP DUP1 PUSH1 0x40 MLOAD DUP1 PUSH1 0xE0 ADD PUSH1 0x40 MSTORE SWAP1 DUP2 PUSH1 0x0 DUP3 ADD SLOAD DUP2 MSTORE PUSH1 0x20 ADD PUSH1 0x1 DUP3 ADD PUSH1 0x0 SWAP1 SLOAD SWAP1 PUSH2 0x100 EXP SWAP1 DIV PUSH20 0xFFFFFFFFFFFFFFFFFFFFFFFFFFFFFFFFFFFFFFFF AND PUSH20 0xFFFFFFFFFFFFFFFFFFFFFFFFFFFFFFFFFFFFFFFF AND PUSH20 0xFFFFFFFFFFFFFFFFFFFFFFFFFFFFFFFFFFFFFFFF AND DUP2 MSTORE PUSH1 0x20 ADD PUSH1 0x2 DUP3 ADD SLOAD DUP2 MSTORE PUSH1 0x20 ADD PUSH1 0x3 DUP3 ADD PUSH1 0x0 SWAP1 SLOAD SWAP1 PUSH2 0x100 EXP SWAP1 DIV PUSH20 0xFFFFFFFFFFFFFFFFFFFFFFFFFFFFFFFFFFFFFFFF AND PUSH20 0xFFFFFFFFFFFFFFFFFFFFFFFFFFFFFFFFFFFFFFFF AND PUSH20 0xFFFFFFFFFFFFFFFFFFFFFFFFFFFFFFFFFFFFFFFF AND DUP2 MSTORE PUSH1 0x20 ADD PUSH1 0x4 DUP3 ADD PUSH1 0x0 SWAP1 SLOAD SWAP1 PUSH2 0x100 EXP SWAP1 DIV PUSH20 0xFFFFFFFFFFFFFFFFFFFFFFFFFFFFFFFFFFFFFFFF AND PUSH20 0xFFFFFFFFFFFFFFFFFFFFFFFFFFFFFFFFFFFFFFFF AND PUSH20 0xFFFFFFFFFFFFFFFFFFFFFFFFFFFFFFFFFFFFFFFF AND DUP2 MSTORE PUSH1 0x20 ADD PUSH1 0x5 DUP3 ADD SLOAD DUP2 MSTORE PUSH1 0x20 ADD PUSH1 0x6 DUP3 ADD PUSH1 0x0 SWAP1 SLOAD SWAP1 PUSH2 0x100 EXP SWAP1 DIV PUSH1 0xFF AND PUSH1 0x1 DUP2 GT ISZERO PUSH2 0xA6A JUMPI PUSH2 0xA69 PUSH2 0x21F6 JUMP JUMPDEST JUMPDEST PUSH1 0x1 DUP2 GT ISZERO PUSH2 0xA7C JUMPI PUSH2 0xA7B PUSH2 0x21F6 JUMP JUMPDEST JUMPDEST DUP2 MSTORE POP POP DUP5 DUP7 DUP2 MLOAD DUP2 LT PUSH2 0xA93 JUMPI PUSH2 0xA92 PUSH2 0x29BD JUMP JUMPDEST JUMPDEST PUSH1 0x20 MUL PUSH1 0x20 ADD ADD DUP2 SWAP1 MSTORE POP PUSH1 0x1 DUP6 PUSH2 0xAAB SWAP2 SWAP1 PUSH2 0x28F0 JUMP JUMPDEST SWAP5 POP POP POP JUMPDEST DUP1 DUP1 PUSH2 0xABB SWAP1 PUSH2 0x2946 JUMP JUMPDEST SWAP2 POP POP PUSH2 0x85E JUMP JUMPDEST POP DUP1 SWAP5 POP POP POP POP POP SWAP1 JUMP JUMPDEST PUSH2 0xAD6 PUSH2 0x1ECE JUMP JUMPDEST PUSH20 0xFFFFFFFFFFFFFFFFFFFFFFFFFFFFFFFFFFFFFFFF AND PUSH2 0xAF4 PUSH2 0x135E JUMP JUMPDEST PUSH20 0xFFFFFFFFFFFFFFFFFFFFFFFFFFFFFFFFFFFFFFFF AND EQ PUSH2 0xB4A JUMPI PUSH1 0x40 MLOAD PUSH32 0x8C379A000000000000000000000000000000000000000000000000000000000 DUP2 MSTORE PUSH1 0x4 ADD PUSH2 0xB41 SWAP1 PUSH2 0x28A1 JUMP JUMPDEST PUSH1 0x40 MLOAD DUP1 SWAP2 SUB SWAP1 REVERT JUMPDEST DUP1 PUSH1 0xA PUSH1 0x0 PUSH2 0x100 EXP DUP2 SLOAD DUP2 PUSH20 0xFFFFFFFFFFFFFFFFFFFFFFFFFFFFFFFFFFFFFFFF MUL NOT AND SWAP1 DUP4 PUSH20 0xFFFFFFFFFFFFFFFFFFFFFFFFFFFFFFFFFFFFFFFF AND MUL OR SWAP1 SSTORE POP POP JUMP JUMPDEST PUSH2 0xB96 PUSH2 0x20EA JUMP JUMPDEST PUSH1 0x0 PUSH1 0x10 PUSH1 0x0 DUP5 DUP2 MSTORE PUSH1 0x20 ADD SWAP1 DUP2 MSTORE PUSH1 0x20 ADD PUSH1 0x0 KECCAK256 PUSH1 0x40 MLOAD DUP1 PUSH1 0xE0 ADD PUSH1 0x40 MSTORE SWAP1 DUP2 PUSH1 0x0 DUP3 ADD SLOAD DUP2 MSTORE PUSH1 0x20 ADD PUSH1 0x1 DUP3 ADD PUSH1 0x0 SWAP1 SLOAD SWAP1 PUSH2 0x100 EXP SWAP1 DIV PUSH20 0xFFFFFFFFFFFFFFFFFFFFFFFFFFFFFFFFFFFFFFFF AND PUSH20 0xFFFFFFFFFFFFFFFFFFFFFFFFFFFFFFFFFFFFFFFF AND PUSH20 0xFFFFFFFFFFFFFFFFFFFFFFFFFFFFFFFFFFFFFFFF AND DUP2 MSTORE PUSH1 0x20 ADD PUSH1 0x2 DUP3 ADD SLOAD DUP2 MSTORE PUSH1 0x20 ADD PUSH1 0x3 DUP3 ADD PUSH1 0x0 SWAP1 SLOAD SWAP1 PUSH2 0x100 EXP SWAP1 DIV PUSH20 0xFFFFFFFFFFFFFFFFFFFFFFFFFFFFFFFFFFFFFFFF AND PUSH20 0xFFFFFFFFFFFFFFFFFFFFFFFFFFFFFFFFFFFFFFFF AND PUSH20 0xFFFFFFFFFFFFFFFFFFFFFFFFFFFFFFFFFFFFFFFF AND DUP2 MSTORE PUSH1 0x20 ADD PUSH1 0x4 DUP3 ADD PUSH1 0x0 SWAP1 SLOAD SWAP1 PUSH2 0x100 EXP SWAP1 DIV PUSH20 0xFFFFFFFFFFFFFFFFFFFFFFFFFFFFFFFFFFFFFFFF AND PUSH20 0xFFFFFFFFFFFFFFFFFFFFFFFFFFFFFFFFFFFFFFFF AND PUSH20 0xFFFFFFFFFFFFFFFFFFFFFFFFFFFFFFFFFFFFFFFF AND DUP2 MSTORE PUSH1 0x20 ADD PUSH1 0x5 DUP3 ADD SLOAD DUP2 MSTORE PUSH1 0x20 ADD PUSH1 0x6 DUP3 ADD PUSH1 0x0 SWAP1 SLOAD SWAP1 PUSH2 0x100 EXP SWAP1 DIV PUSH1 0xFF AND PUSH1 0x1 DUP2 GT ISZERO PUSH2 0xCFB JUMPI PUSH2 0xCFA PUSH2 0x21F6 JUMP JUMPDEST JUMPDEST PUSH1 0x1 DUP2 GT ISZERO PUSH2 0xD0D JUMPI PUSH2 0xD0C PUSH2 0x21F6 JUMP JUMPDEST JUMPDEST DUP2 MSTORE POP POP SWAP1 POP DUP1 SWAP2 POP POP SWAP2 SWAP1 POP JUMP JUMPDEST PUSH4 0x80AC58CD PUSH1 0xE0 SHL DUP2 JUMP JUMPDEST PUSH1 0xA PUSH1 0x0 SWAP1 SLOAD SWAP1 PUSH2 0x100 EXP SWAP1 DIV PUSH20 0xFFFFFFFFFFFFFFFFFFFFFFFFFFFFFFFFFFFFFFFF AND DUP2 JUMP JUMPDEST PUSH1 0x1 DUP1 PUSH1 0x0 ADD SLOAD SWAP1 DUP1 PUSH1 0x1 ADD PUSH1 0x0 SWAP1 SLOAD SWAP1 PUSH2 0x100 EXP SWAP1 DIV PUSH20 0xFFFFFFFFFFFFFFFFFFFFFFFFFFFFFFFFFFFFFFFF AND SWAP1 DUP1 PUSH1 0x2 ADD SLOAD SWAP1 DUP1 PUSH1 0x3 ADD PUSH1 0x0 SWAP1 SLOAD SWAP1 PUSH2 0x100 EXP SWAP1 DIV PUSH20 0xFFFFFFFFFFFFFFFFFFFFFFFFFFFFFFFFFFFFFFFF AND SWAP1 DUP1 PUSH1 0x4 ADD PUSH1 0x0 SWAP1 SLOAD SWAP1 PUSH2 0x100 EXP SWAP1 DIV PUSH20 0xFFFFFFFFFFFFFFFFFFFFFFFFFFFFFFFFFFFFFFFF AND SWAP1 DUP1 PUSH1 0x5 ADD SLOAD SWAP1 DUP1 PUSH1 0x6 ADD PUSH1 0x0 SWAP1 SLOAD SWAP1 PUSH2 0x100 EXP SWAP1 DIV PUSH1 0xFF AND SWAP1 POP DUP8 JUMP JUMPDEST PUSH1 0x2 PUSH1 0x0 SLOAD SUB PUSH2 0xE2F JUMPI PUSH1 0x40 MLOAD PUSH32 0x8C379A000000000000000000000000000000000000000000000000000000000 DUP2 MSTORE PUSH1 0x4 ADD PUSH2 0xE26 SWAP1 PUSH2 0x2A38 JUMP JUMPDEST PUSH1 0x40 MLOAD DUP1 SWAP2 SUB SWAP1 REVERT JUMPDEST PUSH1 0x2 PUSH1 0x0 DUP2 SWAP1 SSTORE POP PUSH1 0x0 DUP2 GT PUSH2 0xE7A JUMPI PUSH1 0x40 MLOAD PUSH32 0x8C379A000000000000000000000000000000000000000000000000000000000 DUP2 MSTORE PUSH1 0x4 ADD PUSH2 0xE71 SWAP1 PUSH2 0x2AA4 JUMP JUMPDEST PUSH1 0x40 MLOAD DUP1 SWAP2 SUB SWAP1 REVERT JUMPDEST PUSH2 0xE84 PUSH1 0xE PUSH2 0x1EE4 JUMP JUMPDEST PUSH1 0x0 PUSH2 0xE90 PUSH1 0xE PUSH2 0x1ED6 JUMP JUMPDEST SWAP1 POP PUSH1 0x40 MLOAD DUP1 PUSH1 0xE0 ADD PUSH1 0x40 MSTORE DUP1 DUP3 DUP2 MSTORE PUSH1 0x20 ADD DUP6 PUSH20 0xFFFFFFFFFFFFFFFFFFFFFFFFFFFFFFFFFFFFFFFF AND DUP2 MSTORE PUSH1 0x20 ADD DUP5 DUP2 MSTORE PUSH1 0x20 ADD CALLER PUSH20 0xFFFFFFFFFFFFFFFFFFFFFFFFFFFFFFFFFFFFFFFF AND DUP2 MSTORE PUSH1 0x20 ADD PUSH1 0x0 PUSH20 0xFFFFFFFFFFFFFFFFFFFFFFFFFFFFFFFFFFFFFFFF AND DUP2 MSTORE PUSH1 0x20 ADD DUP4 DUP2 MSTORE PUSH1 0x20 ADD PUSH1 0x1 DUP1 DUP2 GT ISZERO PUSH2 0xF17 JUMPI PUSH2 0xF16 PUSH2 0x21F6 JUMP JUMPDEST JUMPDEST DUP2 MSTORE POP PUSH1 0x10 PUSH1 0x0 DUP4 DUP2 MSTORE PUSH1 0x20 ADD SWAP1 DUP2 MSTORE PUSH1 0x20 ADD PUSH1 0x0 KECCAK256 PUSH1 0x0 DUP3 ADD MLOAD DUP2 PUSH1 0x0 ADD SSTORE PUSH1 0x20 DUP3 ADD MLOAD DUP2 PUSH1 0x1 ADD PUSH1 0x0 PUSH2 0x100 EXP DUP2 SLOAD DUP2 PUSH20 0xFFFFFFFFFFFFFFFFFFFFFFFFFFFFFFFFFFFFFFFF MUL NOT AND SWAP1 DUP4 PUSH20 0xFFFFFFFFFFFFFFFFFFFFFFFFFFFFFFFFFFFFFFFF AND MUL OR SWAP1 SSTORE POP PUSH1 0x40 DUP3 ADD MLOAD DUP2 PUSH1 0x2 ADD SSTORE PUSH1 0x60 DUP3 ADD MLOAD DUP2 PUSH1 0x3 ADD PUSH1 0x0 PUSH2 0x100 EXP DUP2 SLOAD DUP2 PUSH20 0xFFFFFFFFFFFFFFFFFFFFFFFFFFFFFFFFFFFFFFFF MUL NOT AND SWAP1 DUP4 PUSH20 0xFFFFFFFFFFFFFFFFFFFFFFFFFFFFFFFFFFFFFFFF AND MUL OR SWAP1 SSTORE POP PUSH1 0x80 DUP3 ADD MLOAD DUP2 PUSH1 0x4 ADD PUSH1 0x0 PUSH2 0x100 EXP DUP2 SLOAD DUP2 PUSH20 0xFFFFFFFFFFFFFFFFFFFFFFFFFFFFFFFFFFFFFFFF MUL NOT AND SWAP1 DUP4 PUSH20 0xFFFFFFFFFFFFFFFFFFFFFFFFFFFFFFFFFFFFFFFF AND MUL OR SWAP1 SSTORE POP PUSH1 0xA0 DUP3 ADD MLOAD DUP2 PUSH1 0x5 ADD SSTORE PUSH1 0xC0 DUP3 ADD MLOAD DUP2 PUSH1 0x6 ADD PUSH1 0x0 PUSH2 0x100 EXP DUP2 SLOAD DUP2 PUSH1 0xFF MUL NOT AND SWAP1 DUP4 PUSH1 0x1 DUP2 GT ISZERO PUSH2 0x104B JUMPI PUSH2 0x104A PUSH2 0x21F6 JUMP JUMPDEST JUMPDEST MUL OR SWAP1 SSTORE POP SWAP1 POP POP PUSH1 0xC PUSH1 0x0 SWAP1 SLOAD SWAP1 PUSH2 0x100 EXP SWAP1 DIV PUSH20 0xFFFFFFFFFFFFFFFFFFFFFFFFFFFFFFFFFFFFFFFF AND PUSH20 0xFFFFFFFFFFFFFFFFFFFFFFFFFFFFFFFFFFFFFFFF AND PUSH4 0x23B872DD CALLER ADDRESS DUP7 PUSH1 0x40 MLOAD DUP5 PUSH4 0xFFFFFFFF AND PUSH1 0xE0 SHL DUP2 MSTORE PUSH1 0x4 ADD PUSH2 0x10B2 SWAP4 SWAP3 SWAP2 SWAP1 PUSH2 0x2AC4 JUMP JUMPDEST PUSH1 0x0 PUSH1 0x40 MLOAD DUP1 DUP4 SUB DUP2 PUSH1 0x0 DUP8 DUP1 EXTCODESIZE ISZERO DUP1 ISZERO PUSH2 0x10CC JUMPI PUSH1 0x0 DUP1 REVERT JUMPDEST POP GAS CALL ISZERO DUP1 ISZERO PUSH2 0x10E0 JUMPI RETURNDATASIZE PUSH1 0x0 DUP1 RETURNDATACOPY RETURNDATASIZE PUSH1 0x0 REVERT JUMPDEST POP POP POP POP DUP3 DUP5 PUSH20 0xFFFFFFFFFFFFFFFFFFFFFFFFFFFFFFFFFFFFFFFF AND DUP3 PUSH32 0x2AD024D53A0DC50C130967F8D4941927EE087EA31394CEBB2B9599D3706C9C00 CALLER PUSH1 0x0 DUP8 PUSH1 0x40 MLOAD PUSH2 0x1131 SWAP4 SWAP3 SWAP2 SWAP1 PUSH2 0x2AC4 JUMP JUMPDEST PUSH1 0x40 MLOAD DUP1 SWAP2 SUB SWAP1 LOG4 POP PUSH1 0x1 PUSH1 0x0 DUP2 SWAP1 SSTORE POP POP POP POP JUMP JUMPDEST PUSH2 0x114F PUSH2 0x1ECE JUMP JUMPDEST PUSH20 0xFFFFFFFFFFFFFFFFFFFFFFFFFFFFFFFFFFFFFFFF AND PUSH2 0x116D PUSH2 0x135E JUMP JUMPDEST PUSH20 0xFFFFFFFFFFFFFFFFFFFFFFFFFFFFFFFFFFFFFFFF AND EQ PUSH2 0x11C3 JUMPI PUSH1 0x40 MLOAD PUSH32 0x8C379A000000000000000000000000000000000000000000000000000000000 DUP2 MSTORE PUSH1 0x4 ADD PUSH2 0x11BA SWAP1 PUSH2 0x28A1 JUMP JUMPDEST PUSH1 0x40 MLOAD DUP1 SWAP2 SUB SWAP1 REVERT JUMPDEST DUP1 PUSH1 0xB PUSH1 0x0 PUSH2 0x100 EXP DUP2 SLOAD DUP2 PUSH20 0xFFFFFFFFFFFFFFFFFFFFFFFFFFFFFFFFFFFFFFFF MUL NOT AND SWAP1 DUP4 PUSH20 0xFFFFFFFFFFFFFFFFFFFFFFFFFFFFFFFFFFFFFFFF AND MUL OR SWAP1 SSTORE POP POP JUMP JUMPDEST PUSH1 0x9 PUSH1 0x20 MSTORE DUP2 PUSH1 0x0 MSTORE PUSH1 0x40 PUSH1 0x0 KECCAK256 PUSH1 0x20 MSTORE DUP1 PUSH1 0x0 MSTORE PUSH1 0x40 PUSH1 0x0 KECCAK256 PUSH1 0x0 SWAP2 POP SWAP2 POP POP DUP1 PUSH1 0x0 ADD SLOAD SWAP1 DUP1 PUSH1 0x1 ADD PUSH1 0x0 SWAP1 SLOAD SWAP1 PUSH2 0x100 EXP SWAP1 DIV PUSH20 0xFFFFFFFFFFFFFFFFFFFFFFFFFFFFFFFFFFFFFFFF AND SWAP1 DUP1 PUSH1 0x2 ADD SLOAD SWAP1 DUP1 PUSH1 0x3 ADD PUSH1 0x0 SWAP1 SLOAD SWAP1 PUSH2 0x100 EXP SWAP1 DIV PUSH20 0xFFFFFFFFFFFFFFFFFFFFFFFFFFFFFFFFFFFFFFFF AND SWAP1 DUP1 PUSH1 0x4 ADD PUSH1 0x0 SWAP1 SLOAD SWAP1 PUSH2 0x100 EXP SWAP1 DIV PUSH20 0xFFFFFFFFFFFFFFFFFFFFFFFFFFFFFFFFFFFFFFFF AND SWAP1 DUP1 PUSH1 0x5 ADD SLOAD SWAP1 DUP1 PUSH1 0x6 ADD PUSH1 0x0 SWAP1 SLOAD SWAP1 PUSH2 0x100 EXP SWAP1 DIV PUSH1 0xFF AND SWAP1 POP DUP8 JUMP JUMPDEST PUSH2 0x12CB PUSH2 0x1ECE JUMP JUMPDEST PUSH20 0xFFFFFFFFFFFFFFFFFFFFFFFFFFFFFFFFFFFFFFFF AND PUSH2 0x12E9 PUSH2 0x135E JUMP JUMPDEST PUSH20 0xFFFFFFFFFFFFFFFFFFFFFFFFFFFFFFFFFFFFFFFF AND EQ PUSH2 0x133F JUMPI PUSH1 0x40 MLOAD PUSH32 0x8C379A000000000000000000000000000000000000000000000000000000000 DUP2 MSTORE PUSH1 0x4 ADD PUSH2 0x1336 SWAP1 PUSH2 0x28A1 JUMP JUMPDEST PUSH1 0x40 MLOAD DUP1 SWAP2 SUB SWAP1 REVERT JUMPDEST PUSH2 0x1349 PUSH1 0x0 PUSH2 0x1EFA JUMP JUMPDEST JUMP JUMPDEST PUSH1 0xC PUSH1 0x14 SWAP1 SLOAD SWAP1 PUSH2 0x100 EXP SWAP1 DIV PUSH1 0xFF AND DUP2 JUMP JUMPDEST PUSH1 0x0 PUSH1 0xD PUSH1 0x0 SWAP1 SLOAD SWAP1 PUSH2 0x100 EXP SWAP1 DIV PUSH20 0xFFFFFFFFFFFFFFFFFFFFFFFFFFFFFFFFFFFFFFFF AND SWAP1 POP SWAP1 JUMP JUMPDEST PUSH1 0x2 PUSH1 0x0 SLOAD SUB PUSH2 0x13CD JUMPI PUSH1 0x40 MLOAD PUSH32 0x8C379A000000000000000000000000000000000000000000000000000000000 DUP2 MSTORE PUSH1 0x4 ADD PUSH2 0x13C4 SWAP1 PUSH2 0x2A38 JUMP JUMPDEST PUSH1 0x40 MLOAD DUP1 SWAP2 SUB SWAP1 REVERT JUMPDEST PUSH1 0x2 PUSH1 0x0 DUP2 SWAP1 SSTORE POP PUSH1 0x0 PUSH1 0x10 PUSH1 0x0 DUP5 DUP2 MSTORE PUSH1 0x20 ADD SWAP1 DUP2 MSTORE PUSH1 0x20 ADD PUSH1 0x0 KECCAK256 PUSH1 0x5 ADD SLOAD SWAP1 POP PUSH1 0x0 PUSH1 0x10 PUSH1 0x0 DUP6 DUP2 MSTORE PUSH1 0x20 ADD SWAP1 DUP2 MSTORE PUSH1 0x20 ADD PUSH1 0x0 KECCAK256 PUSH1 0x2 ADD SLOAD SWAP1 POP DUP2 DUP4 EQ PUSH2 0x144D JUMPI PUSH1 0x40 MLOAD PUSH32 0x8C379A000000000000000000000000000000000000000000000000000000000 DUP2 MSTORE PUSH1 0x4 ADD PUSH2 0x1444 SWAP1 PUSH2 0x2B6D JUMP JUMPDEST PUSH1 0x40 MLOAD DUP1 SWAP2 SUB SWAP1 REVERT JUMPDEST PUSH1 0xA PUSH1 0x0 SWAP1 SLOAD SWAP1 PUSH2 0x100 EXP SWAP1 DIV PUSH20 0xFFFFFFFFFFFFFFFFFFFFFFFFFFFFFFFFFFFFFFFF AND PUSH20 0xFFFFFFFFFFFFFFFFFFFFFFFFFFFFFFFFFFFFFFFF AND PUSH4 0x23B872DD CALLER PUSH1 0x10 PUSH1 0x0 DUP9 DUP2 MSTORE PUSH1 0x20 ADD SWAP1 DUP2 MSTORE PUSH1 0x20 ADD PUSH1 0x0 KECCAK256 PUSH1 0x3 ADD PUSH1 0x0 SWAP1 SLOAD SWAP1 PUSH2 0x100 EXP SWAP1 DIV PUSH20 0xFFFFFFFFFFFFFFFFFFFFFFFFFFFFFFFFFFFFFFFF AND DUP7 PUSH1 0x40 MLOAD DUP5 PUSH4 0xFFFFFFFF AND PUSH1 0xE0 SHL DUP2 MSTORE PUSH1 0x4 ADD PUSH2 0x14E2 SWAP4 SWAP3 SWAP2 SWAP1 PUSH2 0x2BAE JUMP JUMPDEST PUSH1 0x20 PUSH1 0x40 MLOAD DUP1 DUP4 SUB DUP2 PUSH1 0x0 DUP8 GAS CALL ISZERO DUP1 ISZERO PUSH2 0x1501 JUMPI RETURNDATASIZE PUSH1 0x0 DUP1 RETURNDATACOPY RETURNDATASIZE PUSH1 0x0 REVERT JUMPDEST POP POP POP POP PUSH1 0x40 MLOAD RETURNDATASIZE PUSH1 0x1F NOT PUSH1 0x1F DUP3 ADD AND DUP3 ADD DUP1 PUSH1 0x40 MSTORE POP DUP2 ADD SWAP1 PUSH2 0x1525 SWAP2 SWAP1 PUSH2 0x2C1D JUMP JUMPDEST POP PUSH1 0xC PUSH1 0x0 SWAP1 SLOAD SWAP1 PUSH2 0x100 EXP SWAP1 DIV PUSH20 0xFFFFFFFFFFFFFFFFFFFFFFFFFFFFFFFFFFFFFFFF AND PUSH20 0xFFFFFFFFFFFFFFFFFFFFFFFFFFFFFFFFFFFFFFFF AND PUSH4 0x23B872DD ADDRESS CALLER DUP5 PUSH1 0x40 MLOAD DUP5 PUSH4 0xFFFFFFFF AND PUSH1 0xE0 SHL DUP2 MSTORE PUSH1 0x4 ADD PUSH2 0x1585 SWAP4 SWAP3 SWAP2 SWAP1 PUSH2 0x2AC4 JUMP JUMPDEST PUSH1 0x0 PUSH1 0x40 MLOAD DUP1 DUP4 SUB DUP2 PUSH1 0x0 DUP8 DUP1 EXTCODESIZE ISZERO DUP1 ISZERO PUSH2 0x159F JUMPI PUSH1 0x0 DUP1 REVERT JUMPDEST POP GAS CALL ISZERO DUP1 ISZERO PUSH2 0x15B3 JUMPI RETURNDATASIZE PUSH1 0x0 DUP1 RETURNDATACOPY RETURNDATASIZE PUSH1 0x0 REVERT JUMPDEST POP POP POP POP CALLER PUSH1 0x10 PUSH1 0x0 DUP7 DUP2 MSTORE PUSH1 0x20 ADD SWAP1 DUP2 MSTORE PUSH1 0x20 ADD PUSH1 0x0 KECCAK256 PUSH1 0x4 ADD PUSH1 0x0 PUSH2 0x100 EXP DUP2 SLOAD DUP2 PUSH20 0xFFFFFFFFFFFFFFFFFFFFFFFFFFFFFFFFFFFFFFFF MUL NOT AND SWAP1 DUP4 PUSH20 0xFFFFFFFFFFFFFFFFFFFFFFFFFFFFFFFFFFFFFFFF AND MUL OR SWAP1 SSTORE POP PUSH1 0x0 PUSH1 0x10 PUSH1 0x0 DUP7 DUP2 MSTORE PUSH1 0x20 ADD SWAP1 DUP2 MSTORE PUSH1 0x20 ADD PUSH1 0x0 KECCAK256 PUSH1 0x6 ADD PUSH1 0x0 PUSH2 0x100 EXP DUP2 SLOAD DUP2 PUSH1 0xFF MUL NOT AND SWAP1 DUP4 PUSH1 0x1 DUP2 GT ISZERO PUSH2 0x1646 JUMPI PUSH2 0x1645 PUSH2 0x21F6 JUMP JUMPDEST JUMPDEST MUL OR SWAP1 SSTORE POP PUSH2 0x1655 PUSH1 0xF PUSH2 0x1EE4 JUMP JUMPDEST POP POP PUSH1 0x1 PUSH1 0x0 DUP2 SWAP1 SSTORE POP POP POP JUMP JUMPDEST PUSH2 0x166C DUP3 PUSH2 0x1FC0 JUMP JUMPDEST PUSH1 0x0 CALLER SWAP1 POP PUSH1 0x0 PUSH1 0x10 PUSH1 0x0 DUP5 DUP2 MSTORE PUSH1 0x20 ADD SWAP1 DUP2 MSTORE PUSH1 0x20 ADD PUSH1 0x0 KECCAK256 PUSH1 0x40 MLOAD DUP1 PUSH1 0xE0 ADD PUSH1 0x40 MSTORE SWAP1 DUP2 PUSH1 0x0 DUP3 ADD SLOAD DUP2 MSTORE PUSH1 0x20 ADD PUSH1 0x1 DUP3 ADD PUSH1 0x0 SWAP1 SLOAD SWAP1 PUSH2 0x100 EXP SWAP1 DIV PUSH20 0xFFFFFFFFFFFFFFFFFFFFFFFFFFFFFFFFFFFFFFFF AND PUSH20 0xFFFFFFFFFFFFFFFFFFFFFFFFFFFFFFFFFFFFFFFF AND PUSH20 0xFFFFFFFFFFFFFFFFFFFFFFFFFFFFFFFFFFFFFFFF AND DUP2 MSTORE PUSH1 0x20 ADD PUSH1 0x2 DUP3 ADD SLOAD DUP2 MSTORE PUSH1 0x20 ADD PUSH1 0x3 DUP3 ADD PUSH1 0x0 SWAP1 SLOAD SWAP1 PUSH2 0x100 EXP SWAP1 DIV PUSH20 0xFFFFFFFFFFFFFFFFFFFFFFFFFFFFFFFFFFFFFFFF AND PUSH20 0xFFFFFFFFFFFFFFFFFFFFFFFFFFFFFFFFFFFFFFFF AND PUSH20 0xFFFFFFFFFFFFFFFFFFFFFFFFFFFFFFFFFFFFFFFF AND DUP2 MSTORE PUSH1 0x20 ADD PUSH1 0x4 DUP3 ADD PUSH1 0x0 SWAP1 SLOAD SWAP1 PUSH2 0x100 EXP SWAP1 DIV PUSH20 0xFFFFFFFFFFFFFFFFFFFFFFFFFFFFFFFFFFFFFFFF AND PUSH20 0xFFFFFFFFFFFFFFFFFFFFFFFFFFFFFFFFFFFFFFFF AND PUSH20 0xFFFFFFFFFFFFFFFFFFFFFFFFFFFFFFFFFFFFFFFF AND DUP2 MSTORE PUSH1 0x20 ADD PUSH1 0x5 DUP3 ADD SLOAD DUP2 MSTORE PUSH1 0x20 ADD PUSH1 0x6 DUP3 ADD PUSH1 0x0 SWAP1 SLOAD SWAP1 PUSH2 0x100 EXP SWAP1 DIV PUSH1 0xFF AND PUSH1 0x1 DUP2 GT ISZERO PUSH2 0x17D6 JUMPI PUSH2 0x17D5 PUSH2 0x21F6 JUMP JUMPDEST JUMPDEST PUSH1 0x1 DUP2 GT ISZERO PUSH2 0x17E8 JUMPI PUSH2 0x17E7 PUSH2 0x21F6 JUMP JUMPDEST JUMPDEST DUP2 MSTORE POP POP SWAP1 POP PUSH1 0x0 DUP2 PUSH1 0x0 ADD MLOAD SUB PUSH2 0x1835 JUMPI PUSH1 0x40 MLOAD PUSH32 0x8C379A000000000000000000000000000000000000000000000000000000000 DUP2 MSTORE PUSH1 0x4 ADD PUSH2 0x182C SWAP1 PUSH2 0x2C96 JUMP JUMPDEST PUSH1 0x40 MLOAD DUP1 SWAP2 SUB SWAP1 REVERT JUMPDEST PUSH1 0x0 PUSH1 0x1 DUP2 GT ISZERO PUSH2 0x1849 JUMPI PUSH2 0x1848 PUSH2 0x21F6 JUMP JUMPDEST JUMPDEST DUP2 PUSH1 0xC0 ADD MLOAD PUSH1 0x1 DUP2 GT ISZERO PUSH2 0x1860 JUMPI PUSH2 0x185F PUSH2 0x21F6 JUMP JUMPDEST JUMPDEST SUB PUSH2 0x18A0 JUMPI PUSH1 0x40 MLOAD PUSH32 0x8C379A000000000000000000000000000000000000000000000000000000000 DUP2 MSTORE PUSH1 0x4 ADD PUSH2 0x1897 SWAP1 PUSH2 0x2D02 JUMP JUMPDEST PUSH1 0x40 MLOAD DUP1 SWAP2 SUB SWAP1 REVERT JUMPDEST PUSH1 0x0 DUP2 PUSH1 0x60 ADD MLOAD SWAP1 POP PUSH1 0x0 PUSH20 0xFFFFFFFFFFFFFFFFFFFFFFFFFFFFFFFFFFFFFFFF AND DUP2 PUSH20 0xFFFFFFFFFFFFFFFFFFFFFFFFFFFFFFFFFFFFFFFF AND SUB PUSH2 0x1918 JUMPI PUSH1 0x40 MLOAD PUSH32 0x8C379A000000000000000000000000000000000000000000000000000000000 DUP2 MSTORE PUSH1 0x4 ADD PUSH2 0x190F SWAP1 PUSH2 0x2D6E JUMP JUMPDEST PUSH1 0x40 MLOAD DUP1 SWAP2 SUB SWAP1 REVERT JUMPDEST CALLER PUSH20 0xFFFFFFFFFFFFFFFFFFFFFFFFFFFFFFFFFFFFFFFF AND DUP2 PUSH20 0xFFFFFFFFFFFFFFFFFFFFFFFFFFFFFFFFFFFFFFFF AND EQ PUSH2 0x1986 JUMPI PUSH1 0x40 MLOAD PUSH32 0x8C379A000000000000000000000000000000000000000000000000000000000 DUP2 MSTORE PUSH1 0x4 ADD PUSH2 0x197D SWAP1 PUSH2 0x2DDA JUMP JUMPDEST PUSH1 0x40 MLOAD DUP1 SWAP2 SUB SWAP1 REVERT JUMPDEST PUSH1 0x0 DUP6 SWAP1 POP DUP1 PUSH20 0xFFFFFFFFFFFFFFFFFFFFFFFFFFFFFFFFFFFFFFFF AND PUSH4 0x42842E0E ADDRESS DUP5 DUP9 PUSH1 0x40 MLOAD DUP5 PUSH4 0xFFFFFFFF AND PUSH1 0xE0 SHL DUP2 MSTORE PUSH1 0x4 ADD PUSH2 0x19C8 SWAP4 SWAP3 SWAP2 SWAP1 PUSH2 0x2AC4 JUMP JUMPDEST PUSH1 0x0 PUSH1 0x40 MLOAD DUP1 DUP4 SUB DUP2 PUSH1 0x0 DUP8 DUP1 EXTCODESIZE ISZERO DUP1 ISZERO PUSH2 0x19E2 JUMPI PUSH1 0x0 DUP1 REVERT JUMPDEST POP GAS CALL ISZERO DUP1 ISZERO PUSH2 0x19F6 JUMPI RETURNDATASIZE PUSH1 0x0 DUP1 RETURNDATACOPY RETURNDATASIZE PUSH1 0x0 REVERT JUMPDEST POP POP POP POP PUSH1 0x0 DUP4 PUSH1 0xC0 ADD SWAP1 PUSH1 0x1 DUP2 GT ISZERO PUSH2 0x1A13 JUMPI PUSH2 0x1A12 PUSH2 0x21F6 JUMP JUMPDEST JUMPDEST SWAP1 DUP2 PUSH1 0x1 DUP2 GT ISZERO PUSH2 0x1A27 JUMPI PUSH2 0x1A26 PUSH2 0x21F6 JUMP JUMPDEST JUMPDEST DUP2 MSTORE POP POP PUSH1 0x10 PUSH1 0x0 DUP7 DUP2 MSTORE PUSH1 0x20 ADD SWAP1 DUP2 MSTORE PUSH1 0x20 ADD PUSH1 0x0 KECCAK256 PUSH1 0x0 DUP1 DUP3 ADD PUSH1 0x0 SWAP1 SSTORE PUSH1 0x1 DUP3 ADD PUSH1 0x0 PUSH2 0x100 EXP DUP2 SLOAD SWAP1 PUSH20 0xFFFFFFFFFFFFFFFFFFFFFFFFFFFFFFFFFFFFFFFF MUL NOT AND SWAP1 SSTORE PUSH1 0x2 DUP3 ADD PUSH1 0x0 SWAP1 SSTORE PUSH1 0x3 DUP3 ADD PUSH1 0x0 PUSH2 0x100 EXP DUP2 SLOAD SWAP1 PUSH20 0xFFFFFFFFFFFFFFFFFFFFFFFFFFFFFFFFFFFFFFFF MUL NOT AND SWAP1 SSTORE PUSH1 0x4 DUP3 ADD PUSH1 0x0 PUSH2 0x100 EXP DUP2 SLOAD SWAP1 PUSH20 0xFFFFFFFFFFFFFFFFFFFFFFFFFFFFFFFFFFFFFFFF MUL NOT AND SWAP1 SSTORE PUSH1 0x5 DUP3 ADD PUSH1 0x0 SWAP1 SSTORE PUSH1 0x6 DUP3 ADD PUSH1 0x0 PUSH2 0x100 EXP DUP2 SLOAD SWAP1 PUSH1 0xFF MUL NOT AND SWAP1 SSTORE POP POP DUP4 PUSH20 0xFFFFFFFFFFFFFFFFFFFFFFFFFFFFFFFFFFFFFFFF AND DUP6 PUSH32 0xC141ECC59E1A451EE7D3128743C8CA3174955CE97262896269482D5F84B39A85 DUP9 DUP7 PUSH1 0x0 ADD MLOAD TIMESTAMP PUSH1 0x40 MLOAD PUSH2 0x1B31 SWAP4 SWAP3 SWAP2 SWAP1 PUSH2 0x2DFA JUMP JUMPDEST PUSH1 0x40 MLOAD DUP1 SWAP2 SUB SWAP1 LOG3 POP POP POP POP POP POP JUMP JUMPDEST PUSH1 0xC PUSH1 0x15 SWAP1 SLOAD SWAP1 PUSH2 0x100 EXP SWAP1 DIV PUSH1 0xFF AND DUP2 JUMP JUMPDEST PUSH1 0xB PUSH1 0x0 SWAP1 SLOAD SWAP1 PUSH2 0x100 EXP SWAP1 DIV PUSH20 0xFFFFFFFFFFFFFFFFFFFFFFFFFFFFFFFFFFFFFFFF AND DUP2 JUMP JUMPDEST PUSH2 0x1B82 PUSH2 0x20EA JUMP JUMPDEST PUSH1 0x10 PUSH1 0x0 DUP4 DUP2 MSTORE PUSH1 0x20 ADD SWAP1 DUP2 MSTORE PUSH1 0x20 ADD PUSH1 0x0 KECCAK256 PUSH1 0x40 MLOAD DUP1 PUSH1 0xE0 ADD PUSH1 0x40 MSTORE SWAP1 DUP2 PUSH1 0x0 DUP3 ADD SLOAD DUP2 MSTORE PUSH1 0x20 ADD PUSH1 0x1 DUP3 ADD PUSH1 0x0 SWAP1 SLOAD SWAP1 PUSH2 0x100 EXP SWAP1 DIV PUSH20 0xFFFFFFFFFFFFFFFFFFFFFFFFFFFFFFFFFFFFFFFF AND PUSH20 0xFFFFFFFFFFFFFFFFFFFFFFFFFFFFFFFFFFFFFFFF AND PUSH20 0xFFFFFFFFFFFFFFFFFFFFFFFFFFFFFFFFFFFFFFFF AND DUP2 MSTORE PUSH1 0x20 ADD PUSH1 0x2 DUP3 ADD SLOAD DUP2 MSTORE PUSH1 0x20 ADD PUSH1 0x3 DUP3 ADD PUSH1 0x0 SWAP1 SLOAD SWAP1 PUSH2 0x100 EXP SWAP1 DIV PUSH20 0xFFFFFFFFFFFFFFFFFFFFFFFFFFFFFFFFFFFFFFFF AND PUSH20 0xFFFFFFFFFFFFFFFFFFFFFFFFFFFFFFFFFFFFFFFF AND PUSH20 0xFFFFFFFFFFFFFFFFFFFFFFFFFFFFFFFFFFFFFFFF AND DUP2 MSTORE PUSH1 0x20 ADD PUSH1 0x4 DUP3 ADD PUSH1 0x0 SWAP1 SLOAD SWAP1 PUSH2 0x100 EXP SWAP1 DIV PUSH20 0xFFFFFFFFFFFFFFFFFFFFFFFFFFFFFFFFFFFFFFFF AND PUSH20 0xFFFFFFFFFFFFFFFFFFFFFFFFFFFFFFFFFFFFFFFF AND PUSH20 0xFFFFFFFFFFFFFFFFFFFFFFFFFFFFFFFFFFFFFFFF AND DUP2 MSTORE PUSH1 0x20 ADD PUSH1 0x5 DUP3 ADD SLOAD DUP2 MSTORE PUSH1 0x20 ADD PUSH1 0x6 DUP3 ADD PUSH1 0x0 SWAP1 SLOAD SWAP1 PUSH2 0x100 EXP SWAP1 DIV PUSH1 0xFF AND PUSH1 0x1 DUP2 GT ISZERO PUSH2 0x1CE5 JUMPI PUSH2 0x1CE4 PUSH2 0x21F6 JUMP JUMPDEST JUMPDEST PUSH1 0x1 DUP2 GT ISZERO PUSH2 0x1CF7 JUMPI PUSH2 0x1CF6 PUSH2 0x21F6 JUMP JUMPDEST JUMPDEST DUP2 MSTORE POP POP SWAP1 POP SWAP2 SWAP1 POP JUMP JUMPDEST PUSH2 0x1D0A PUSH2 0x1ECE JUMP JUMPDEST PUSH20 0xFFFFFFFFFFFFFFFFFFFFFFFFFFFFFFFFFFFFFFFF AND PUSH2 0x1D28 PUSH2 0x135E JUMP JUMPDEST PUSH20 0xFFFFFFFFFFFFFFFFFFFFFFFFFFFFFFFFFFFFFFFF AND EQ PUSH2 0x1D7E JUMPI PUSH1 0x40 MLOAD PUSH32 0x8C379A000000000000000000000000000000000000000000000000000000000 DUP2 MSTORE PUSH1 0x4 ADD PUSH2 0x1D75 SWAP1 PUSH2 0x28A1 JUMP JUMPDEST PUSH1 0x40 MLOAD DUP1 SWAP2 SUB SWAP1 REVERT JUMPDEST PUSH1 0x0 PUSH20 0xFFFFFFFFFFFFFFFFFFFFFFFFFFFFFFFFFFFFFFFF AND DUP2 PUSH20 0xFFFFFFFFFFFFFFFFFFFFFFFFFFFFFFFFFFFFFFFF AND SUB PUSH2 0x1DED JUMPI PUSH1 0x40 MLOAD PUSH32 0x8C379A000000000000000000000000000000000000000000000000000000000 DUP2 MSTORE PUSH1 0x4 ADD PUSH2 0x1DE4 SWAP1 PUSH2 0x2EA3 JUMP JUMPDEST PUSH1 0x40 MLOAD DUP1 SWAP2 SUB SWAP1 REVERT JUMPDEST PUSH2 0x1DF6 DUP2 PUSH2 0x1EFA JUMP JUMPDEST POP JUMP JUMPDEST PUSH1 0xC PUSH1 0x0 SWAP1 SLOAD SWAP1 PUSH2 0x100 EXP SWAP1 DIV PUSH20 0xFFFFFFFFFFFFFFFFFFFFFFFFFFFFFFFFFFFFFFFF AND DUP2 JUMP JUMPDEST PUSH1 0x8 PUSH1 0x20 MSTORE DUP1 PUSH1 0x0 MSTORE PUSH1 0x40 PUSH1 0x0 KECCAK256 PUSH1 0x0 SWAP2 POP SWAP1 POP DUP1 PUSH1 0x0 ADD SLOAD SWAP1 DUP1 PUSH1 0x1 ADD PUSH1 0x0 SWAP1 SLOAD SWAP1 PUSH2 0x100 EXP SWAP1 DIV PUSH20 0xFFFFFFFFFFFFFFFFFFFFFFFFFFFFFFFFFFFFFFFF AND SWAP1 DUP1 PUSH1 0x2 ADD SLOAD SWAP1 DUP1 PUSH1 0x3 ADD PUSH1 0x0 SWAP1 SLOAD SWAP1 PUSH2 0x100 EXP SWAP1 DIV PUSH20 0xFFFFFFFFFFFFFFFFFFFFFFFFFFFFFFFFFFFFFFFF AND SWAP1 DUP1 PUSH1 0x4 ADD PUSH1 0x0 SWAP1 SLOAD SWAP1 PUSH2 0x100 EXP SWAP1 DIV PUSH20 0xFFFFFFFFFFFFFFFFFFFFFFFFFFFFFFFFFFFFFFFF AND SWAP1 DUP1 PUSH1 0x5 ADD SLOAD SWAP1 DUP1 PUSH1 0x6 ADD PUSH1 0x0 SWAP1 SLOAD SWAP1 PUSH2 0x100 EXP SWAP1 DIV PUSH1 0xFF AND SWAP1 POP DUP8 JUMP JUMPDEST PUSH1 0x0 CALLER SWAP1 POP SWAP1 JUMP JUMPDEST PUSH1 0x0 DUP2 PUSH1 0x0 ADD SLOAD SWAP1 POP SWAP2 SWAP1 POP JUMP JUMPDEST PUSH1 0x1 DUP2 PUSH1 0x0 ADD PUSH1 0x0 DUP3 DUP3 SLOAD ADD SWAP3 POP POP DUP2 SWAP1 SSTORE POP POP JUMP JUMPDEST PUSH1 0x0 PUSH1 0xD PUSH1 0x0 SWAP1 SLOAD SWAP1 PUSH2 0x100 EXP SWAP1 DIV PUSH20 0xFFFFFFFFFFFFFFFFFFFFFFFFFFFFFFFFFFFFFFFF AND SWAP1 POP DUP2 PUSH1 0xD PUSH1 0x0 PUSH2 0x100 EXP DUP2 SLOAD DUP2 PUSH20 0xFFFFFFFFFFFFFFFFFFFFFFFFFFFFFFFFFFFFFFFF MUL NOT AND SWAP1 DUP4 PUSH20 0xFFFFFFFFFFFFFFFFFFFFFFFFFFFFFFFFFFFFFFFF AND MUL OR SWAP1 SSTORE POP DUP2 PUSH20 0xFFFFFFFFFFFFFFFFFFFFFFFFFFFFFFFFFFFFFFFF AND DUP2 PUSH20 0xFFFFFFFFFFFFFFFFFFFFFFFFFFFFFFFFFFFFFFFF AND PUSH32 0x8BE0079C531659141344CD1FD0A4F28419497F9722A3DAAFE3B4186F6B6457E0 PUSH1 0x40 MLOAD PUSH1 0x40 MLOAD DUP1 SWAP2 SUB SWAP1 LOG3 POP POP JUMP JUMPDEST PUSH2 0x1FC9 DUP2 PUSH2 0x20D1 JUMP JUMPDEST PUSH2 0x2008 JUMPI PUSH1 0x40 MLOAD PUSH32 0x8C379A000000000000000000000000000000000000000000000000000000000 DUP2 MSTORE PUSH1 0x4 ADD PUSH2 0x1FFF SWAP1 PUSH2 0x2F35 JUMP JUMPDEST PUSH1 0x40 MLOAD DUP1 SWAP2 SUB SWAP1 REVERT JUMPDEST PUSH1 0x0 DUP2 SWAP1 POP DUP1 PUSH20 0xFFFFFFFFFFFFFFFFFFFFFFFFFFFFFFFFFFFFFFFF AND PUSH4 0x1FFC9A7 PUSH4 0x80AC58CD PUSH1 0xE0 SHL PUSH1 0x40 MLOAD DUP3 PUSH4 0xFFFFFFFF AND PUSH1 0xE0 SHL DUP2 MSTORE PUSH1 0x4 ADD PUSH2 0x204D SWAP2 SWAP1 PUSH2 0x2567 JUMP JUMPDEST PUSH1 0x20 PUSH1 0x40 MLOAD DUP1 DUP4 SUB DUP2 DUP7 GAS STATICCALL ISZERO DUP1 ISZERO PUSH2 0x206A JUMPI RETURNDATASIZE PUSH1 0x0 DUP1 RETURNDATACOPY RETURNDATASIZE PUSH1 0x0 REVERT JUMPDEST POP POP POP POP PUSH1 0x40 MLOAD RETURNDATASIZE PUSH1 0x1F NOT PUSH1 0x1F DUP3 ADD AND DUP3 ADD DUP1 PUSH1 0x40 MSTORE POP DUP2 ADD SWAP1 PUSH2 0x208E SWAP2 SWAP1 PUSH2 0x2C1D JUMP JUMPDEST PUSH2 0x20CD JUMPI PUSH1 0x40 MLOAD PUSH32 0x8C379A000000000000000000000000000000000000000000000000000000000 DUP2 MSTORE PUSH1 0x4 ADD PUSH2 0x20C4 SWAP1 PUSH2 0x2FC7 JUMP JUMPDEST PUSH1 0x40 MLOAD DUP1 SWAP2 SUB SWAP1 REVERT JUMPDEST POP POP JUMP JUMPDEST PUSH1 0x0 DUP1 DUP3 EXTCODESIZE SWAP1 POP PUSH1 0x0 DUP2 PUSH4 0xFFFFFFFF AND GT SWAP2 POP POP SWAP2 SWAP1 POP JUMP JUMPDEST PUSH1 0x40 MLOAD DUP1 PUSH1 0xE0 ADD PUSH1 0x40 MSTORE DUP1 PUSH1 0x0 DUP2 MSTORE PUSH1 0x20 ADD PUSH1 0x0 PUSH20 0xFFFFFFFFFFFFFFFFFFFFFFFFFFFFFFFFFFFFFFFF AND DUP2 MSTORE PUSH1 0x20 ADD PUSH1 0x0 DUP2 MSTORE PUSH1 0x20 ADD PUSH1 0x0 PUSH20 0xFFFFFFFFFFFFFFFFFFFFFFFFFFFFFFFFFFFFFFFF AND DUP2 MSTORE PUSH1 0x20 ADD PUSH1 0x0 PUSH20 0xFFFFFFFFFFFFFFFFFFFFFFFFFFFFFFFFFFFFFFFF AND DUP2 MSTORE PUSH1 0x20 ADD PUSH1 0x0 DUP2 MSTORE PUSH1 0x20 ADD PUSH1 0x0 PUSH1 0x1 DUP2 GT ISZERO PUSH2 0x2175 JUMPI PUSH2 0x2174 PUSH2 0x21F6 JUMP JUMPDEST JUMPDEST DUP2 MSTORE POP SWAP1 JUMP JUMPDEST PUSH1 0x0 DUP2 SWAP1 POP SWAP2 SWAP1 POP JUMP JUMPDEST PUSH2 0x218E DUP2 PUSH2 0x217B JUMP JUMPDEST DUP3 MSTORE POP POP JUMP JUMPDEST PUSH1 0x0 PUSH20 0xFFFFFFFFFFFFFFFFFFFFFFFFFFFFFFFFFFFFFFFF DUP3 AND SWAP1 POP SWAP2 SWAP1 POP JUMP JUMPDEST PUSH1 0x0 PUSH2 0x21BF DUP3 PUSH2 0x2194 JUMP JUMPDEST SWAP1 POP SWAP2 SWAP1 POP JUMP JUMPDEST PUSH2 0x21CF DUP2 PUSH2 0x21B4 JUMP JUMPDEST DUP3 MSTORE POP POP JUMP JUMPDEST PUSH1 0x0 PUSH2 0x21E0 DUP3 PUSH2 0x2194 JUMP JUMPDEST SWAP1 POP SWAP2 SWAP1 POP JUMP JUMPDEST PUSH2 0x21F0 DUP2 PUSH2 0x21D5 JUMP JUMPDEST DUP3 MSTORE POP POP JUMP JUMPDEST PUSH32 0x4E487B7100000000000000000000000000000000000000000000000000000000 PUSH1 0x0 MSTORE PUSH1 0x21 PUSH1 0x4 MSTORE PUSH1 0x24 PUSH1 0x0 REVERT JUMPDEST PUSH1 0x2 DUP2 LT PUSH2 0x2236 JUMPI PUSH2 0x2235 PUSH2 0x21F6 JUMP JUMPDEST JUMPDEST POP JUMP JUMPDEST PUSH1 0x0 DUP2 SWAP1 POP PUSH2 0x2247 DUP3 PUSH2 0x2225 JUMP JUMPDEST SWAP2 SWAP1 POP JUMP JUMPDEST PUSH1 0x0 PUSH2 0x2257 DUP3 PUSH2 0x2239 JUMP JUMPDEST SWAP1 POP SWAP2 SWAP1 POP JUMP JUMPDEST PUSH2 0x2267 DUP2 PUSH2 0x224C JUMP JUMPDEST DUP3 MSTORE POP POP JUMP JUMPDEST PUSH1 0xE0 DUP3 ADD PUSH1 0x0 DUP3 ADD MLOAD PUSH2 0x2283 PUSH1 0x0 DUP6 ADD DUP3 PUSH2 0x2185 JUMP JUMPDEST POP PUSH1 0x20 DUP3 ADD MLOAD PUSH2 0x2296 PUSH1 0x20 DUP6 ADD DUP3 PUSH2 0x21C6 JUMP JUMPDEST POP PUSH1 0x40 DUP3 ADD MLOAD PUSH2 0x22A9 PUSH1 0x40 DUP6 ADD DUP3 PUSH2 0x2185 JUMP JUMPDEST POP PUSH1 0x60 DUP3 ADD MLOAD PUSH2 0x22BC PUSH1 0x60 DUP6 ADD DUP3 PUSH2 0x21E7 JUMP JUMPDEST POP PUSH1 0x80 DUP3 ADD MLOAD PUSH2 0x22CF PUSH1 0x80 DUP6 ADD DUP3 PUSH2 0x21E7 JUMP JUMPDEST POP PUSH1 0xA0 DUP3 ADD MLOAD PUSH2 0x22E2 PUSH1 0xA0 DUP6 ADD DUP3 PUSH2 0x2185 JUMP JUMPDEST POP PUSH1 0xC0 DUP3 ADD MLOAD PUSH2 0x22F5 PUSH1 0xC0 DUP6 ADD DUP3 PUSH2 0x225E JUMP JUMPDEST POP POP POP POP JUMP JUMPDEST PUSH1 0x0 PUSH1 0xE0 DUP3 ADD SWAP1 POP PUSH2 0x2310 PUSH1 0x0 DUP4 ADD DUP5 PUSH2 0x226D JUMP JUMPDEST SWAP3 SWAP2 POP POP JUMP JUMPDEST PUSH1 0x0 DUP1 REVERT JUMPDEST PUSH2 0x2324 DUP2 PUSH2 0x21B4 JUMP JUMPDEST DUP2 EQ PUSH2 0x232F JUMPI PUSH1 0x0 DUP1 REVERT JUMPDEST POP JUMP JUMPDEST PUSH1 0x0 DUP2 CALLDATALOAD SWAP1 POP PUSH2 0x2341 DUP2 PUSH2 0x231B JUMP JUMPDEST SWAP3 SWAP2 POP POP JUMP JUMPDEST PUSH1 0x0 PUSH1 0x20 DUP3 DUP5 SUB SLT ISZERO PUSH2 0x235D JUMPI PUSH2 0x235C PUSH2 0x2316 JUMP JUMPDEST JUMPDEST PUSH1 0x0 PUSH2 0x236B DUP5 DUP3 DUP6 ADD PUSH2 0x2332 JUMP JUMPDEST SWAP2 POP POP SWAP3 SWAP2 POP POP JUMP JUMPDEST PUSH1 0x0 DUP2 MLOAD SWAP1 POP SWAP2 SWAP1 POP JUMP JUMPDEST PUSH1 0x0 DUP3 DUP3 MSTORE PUSH1 0x20 DUP3 ADD SWAP1 POP SWAP3 SWAP2 POP POP JUMP JUMPDEST PUSH1 0x0 DUP2 SWAP1 POP PUSH1 0x20 DUP3 ADD SWAP1 POP SWAP2 SWAP1 POP JUMP JUMPDEST PUSH1 0xE0 DUP3 ADD PUSH1 0x0 DUP3 ADD MLOAD PUSH2 0x23B6 PUSH1 0x0 DUP6 ADD DUP3 PUSH2 0x2185 JUMP JUMPDEST POP PUSH1 0x20 DUP3 ADD MLOAD PUSH2 0x23C9 PUSH1 0x20 DUP6 ADD DUP3 PUSH2 0x21C6 JUMP JUMPDEST POP PUSH1 0x40 DUP3 ADD MLOAD PUSH2 0x23DC PUSH1 0x40 DUP6 ADD DUP3 PUSH2 0x2185 JUMP JUMPDEST POP PUSH1 0x60 DUP3 ADD MLOAD PUSH2 0x23EF PUSH1 0x60 DUP6 ADD DUP3 PUSH2 0x21E7 JUMP JUMPDEST POP PUSH1 0x80 DUP3 ADD MLOAD PUSH2 0x2402 PUSH1 0x80 DUP6 ADD DUP3 PUSH2 0x21E7 JUMP JUMPDEST POP PUSH1 0xA0 DUP3 ADD MLOAD PUSH2 0x2415 PUSH1 0xA0 DUP6 ADD DUP3 PUSH2 0x2185 JUMP JUMPDEST POP PUSH1 0xC0 DUP3 ADD MLOAD PUSH2 0x2428 PUSH1 0xC0 DUP6 ADD DUP3 PUSH2 0x225E JUMP JUMPDEST POP POP POP POP JUMP JUMPDEST PUSH1 0x0 PUSH2 0x243A DUP4 DUP4 PUSH2 0x23A0 JUMP JUMPDEST PUSH1 0xE0 DUP4 ADD SWAP1 POP SWAP3 SWAP2 POP POP JUMP JUMPDEST PUSH1 0x0 PUSH1 0x20 DUP3 ADD SWAP1 POP SWAP2 SWAP1 POP JUMP JUMPDEST PUSH1 0x0 PUSH2 0x245E DUP3 PUSH2 0x2374 JUMP JUMPDEST PUSH2 0x2468 DUP2 DUP6 PUSH2 0x237F JUMP JUMPDEST SWAP4 POP PUSH2 0x2473 DUP4 PUSH2 0x2390 JUMP JUMPDEST DUP1 PUSH1 0x0 JUMPDEST DUP4 DUP2 LT ISZERO PUSH2 0x24A4 JUMPI DUP2 MLOAD PUSH2 0x248B DUP9 DUP3 PUSH2 0x242E JUMP JUMPDEST SWAP8 POP PUSH2 0x2496 DUP4 PUSH2 0x2446 JUMP JUMPDEST SWAP3 POP POP PUSH1 0x1 DUP2 ADD SWAP1 POP PUSH2 0x2477 JUMP JUMPDEST POP DUP6 SWAP4 POP POP POP POP SWAP3 SWAP2 POP POP JUMP JUMPDEST PUSH1 0x0 PUSH1 0x20 DUP3 ADD SWAP1 POP DUP2 DUP2 SUB PUSH1 0x0 DUP4 ADD MSTORE PUSH2 0x24CB DUP2 DUP5 PUSH2 0x2453 JUMP JUMPDEST SWAP1 POP SWAP3 SWAP2 POP POP JUMP JUMPDEST PUSH2 0x24DC DUP2 PUSH2 0x217B JUMP JUMPDEST DUP2 EQ PUSH2 0x24E7 JUMPI PUSH1 0x0 DUP1 REVERT JUMPDEST POP JUMP JUMPDEST PUSH1 0x0 DUP2 CALLDATALOAD SWAP1 POP PUSH2 0x24F9 DUP2 PUSH2 0x24D3 JUMP JUMPDEST SWAP3 SWAP2 POP POP JUMP JUMPDEST PUSH1 0x0 PUSH1 0x20 DUP3 DUP5 SUB SLT ISZERO PUSH2 0x2515 JUMPI PUSH2 0x2514 PUSH2 0x2316 JUMP JUMPDEST JUMPDEST PUSH1 0x0 PUSH2 0x2523 DUP5 DUP3 DUP6 ADD PUSH2 0x24EA JUMP JUMPDEST SWAP2 POP POP SWAP3 SWAP2 POP POP JUMP JUMPDEST PUSH1 0x0 PUSH32 0xFFFFFFFF00000000000000000000000000000000000000000000000000000000 DUP3 AND SWAP1 POP SWAP2 SWAP1 POP JUMP JUMPDEST PUSH2 0x2561 DUP2 PUSH2 0x252C JUMP JUMPDEST DUP3 MSTORE POP POP JUMP JUMPDEST PUSH1 0x0 PUSH1 0x20 DUP3 ADD SWAP1 POP PUSH2 0x257C PUSH1 0x0 DUP4 ADD DUP5 PUSH2 0x2558 JUMP JUMPDEST SWAP3 SWAP2 POP POP JUMP JUMPDEST PUSH1 0x0 DUP2 SWAP1 POP SWAP2 SWAP1 POP JUMP JUMPDEST PUSH1 0x0 PUSH2 0x25A7 PUSH2 0x25A2 PUSH2 0x259D DUP5 PUSH2 0x2194 JUMP JUMPDEST PUSH2 0x2582 JUMP JUMPDEST PUSH2 0x2194 JUMP JUMPDEST SWAP1 POP SWAP2 SWAP1 POP JUMP JUMPDEST PUSH1 0x0 PUSH2 0x25B9 DUP3 PUSH2 0x258C JUMP JUMPDEST SWAP1 POP SWAP2 SWAP1 POP JUMP JUMPDEST PUSH1 0x0 PUSH2 0x25CB DUP3 PUSH2 0x25AE JUMP JUMPDEST SWAP1 POP SWAP2 SWAP1 POP JUMP JUMPDEST PUSH2 0x25DB DUP2 PUSH2 0x25C0 JUMP JUMPDEST DUP3 MSTORE POP POP JUMP JUMPDEST PUSH1 0x0 PUSH1 0x20 DUP3 ADD SWAP1 POP PUSH2 0x25F6 PUSH1 0x0 DUP4 ADD DUP5 PUSH2 0x25D2 JUMP JUMPDEST SWAP3 SWAP2 POP POP JUMP JUMPDEST PUSH2 0x2605 DUP2 PUSH2 0x217B JUMP JUMPDEST DUP3 MSTORE POP POP JUMP JUMPDEST PUSH2 0x2614 DUP2 PUSH2 0x21B4 JUMP JUMPDEST DUP3 MSTORE POP POP JUMP JUMPDEST PUSH2 0x2623 DUP2 PUSH2 0x21D5 JUMP JUMPDEST DUP3 MSTORE POP POP JUMP JUMPDEST PUSH2 0x2632 DUP2 PUSH2 0x224C JUMP JUMPDEST DUP3 MSTORE POP POP JUMP JUMPDEST PUSH1 0x0 PUSH1 0xE0 DUP3 ADD SWAP1 POP PUSH2 0x264D PUSH1 0x0 DUP4 ADD DUP11 PUSH2 0x25FC JUMP JUMPDEST PUSH2 0x265A PUSH1 0x20 DUP4 ADD DUP10 PUSH2 0x260B JUMP JUMPDEST PUSH2 0x2667 PUSH1 0x40 DUP4 ADD DUP9 PUSH2 0x25FC JUMP JUMPDEST PUSH2 0x2674 PUSH1 0x60 DUP4 ADD DUP8 PUSH2 0x261A JUMP JUMPDEST PUSH2 0x2681 PUSH1 0x80 DUP4 ADD DUP7 PUSH2 0x261A JUMP JUMPDEST PUSH2 0x268E PUSH1 0xA0 DUP4 ADD DUP6 PUSH2 0x25FC JUMP JUMPDEST PUSH2 0x269B PUSH1 0xC0 DUP4 ADD DUP5 PUSH2 0x2629 JUMP JUMPDEST SWAP9 SWAP8 POP POP POP POP POP POP POP POP JUMP JUMPDEST PUSH1 0x0 DUP1 PUSH1 0x0 PUSH1 0x60 DUP5 DUP7 SUB SLT ISZERO PUSH2 0x26C0 JUMPI PUSH2 0x26BF PUSH2 0x2316 JUMP JUMPDEST JUMPDEST PUSH1 0x0 PUSH2 0x26CE DUP7 DUP3 DUP8 ADD PUSH2 0x2332 JUMP JUMPDEST SWAP4 POP POP PUSH1 0x20 PUSH2 0x26DF DUP7 DUP3 DUP8 ADD PUSH2 0x24EA JUMP JUMPDEST SWAP3 POP POP PUSH1 0x40 PUSH2 0x26F0 DUP7 DUP3 DUP8 ADD PUSH2 0x24EA JUMP JUMPDEST SWAP2 POP POP SWAP3 POP SWAP3 POP SWAP3 JUMP JUMPDEST PUSH1 0x0 DUP1 PUSH1 0x40 DUP4 DUP6 SUB SLT ISZERO PUSH2 0x2711 JUMPI PUSH2 0x2710 PUSH2 0x2316 JUMP JUMPDEST JUMPDEST PUSH1 0x0 PUSH2 0x271F DUP6 DUP3 DUP7 ADD PUSH2 0x2332 JUMP JUMPDEST SWAP3 POP POP PUSH1 0x20 PUSH2 0x2730 DUP6 DUP3 DUP7 ADD PUSH2 0x24EA JUMP JUMPDEST SWAP2 POP POP SWAP3 POP SWAP3 SWAP1 POP JUMP JUMPDEST PUSH1 0x0 PUSH1 0xFF DUP3 AND SWAP1 POP SWAP2 SWAP1 POP JUMP JUMPDEST PUSH2 0x2750 DUP2 PUSH2 0x273A JUMP JUMPDEST DUP3 MSTORE POP POP JUMP JUMPDEST PUSH1 0x0 PUSH1 0x20 DUP3 ADD SWAP1 POP PUSH2 0x276B PUSH1 0x0 DUP4 ADD DUP5 PUSH2 0x2747 JUMP JUMPDEST SWAP3 SWAP2 POP POP JUMP JUMPDEST PUSH1 0x0 PUSH1 0x20 DUP3 ADD SWAP1 POP PUSH2 0x2786 PUSH1 0x0 DUP4 ADD DUP5 PUSH2 0x260B JUMP JUMPDEST SWAP3 SWAP2 POP POP JUMP JUMPDEST PUSH1 0x0 DUP1 PUSH1 0x40 DUP4 DUP6 SUB SLT ISZERO PUSH2 0x27A3 JUMPI PUSH2 0x27A2 PUSH2 0x2316 JUMP JUMPDEST JUMPDEST PUSH1 0x0 PUSH2 0x27B1 DUP6 DUP3 DUP7 ADD PUSH2 0x24EA JUMP JUMPDEST SWAP3 POP POP PUSH1 0x20 PUSH2 0x27C2 DUP6 DUP3 DUP7 ADD PUSH2 0x24EA JUMP JUMPDEST SWAP2 POP POP SWAP3 POP SWAP3 SWAP1 POP JUMP JUMPDEST PUSH1 0x0 PUSH2 0x27D7 DUP3 PUSH2 0x25AE JUMP JUMPDEST SWAP1 POP SWAP2 SWAP1 POP JUMP JUMPDEST PUSH2 0x27E7 DUP2 PUSH2 0x27CC JUMP JUMPDEST DUP3 MSTORE POP POP JUMP JUMPDEST PUSH1 0x0 PUSH1 0x20 DUP3 ADD SWAP1 POP PUSH2 0x2802 PUSH1 0x0 DUP4 ADD DUP5 PUSH2 0x27DE JUMP JUMPDEST SWAP3 SWAP2 POP POP JUMP JUMPDEST PUSH1 0x0 PUSH2 0x2813 DUP3 PUSH2 0x25AE JUMP JUMPDEST SWAP1 POP SWAP2 SWAP1 POP JUMP JUMPDEST PUSH2 0x2823 DUP2 PUSH2 0x2808 JUMP JUMPDEST DUP3 MSTORE POP POP JUMP JUMPDEST PUSH1 0x0 PUSH1 0x20 DUP3 ADD SWAP1 POP PUSH2 0x283E PUSH1 0x0 DUP4 ADD DUP5 PUSH2 0x281A JUMP JUMPDEST SWAP3 SWAP2 POP POP JUMP JUMPDEST PUSH1 0x0 DUP3 DUP3 MSTORE PUSH1 0x20 DUP3 ADD SWAP1 POP SWAP3 SWAP2 POP POP JUMP JUMPDEST PUSH32 0x4F776E61626C653A2063616C6C6572206973206E6F7420746865206F776E6572 PUSH1 0x0 DUP3 ADD MSTORE POP JUMP JUMPDEST PUSH1 0x0 PUSH2 0x288B PUSH1 0x20 DUP4 PUSH2 0x2844 JUMP JUMPDEST SWAP2 POP PUSH2 0x2896 DUP3 PUSH2 0x2855 JUMP JUMPDEST PUSH1 0x20 DUP3 ADD SWAP1 POP SWAP2 SWAP1 POP JUMP JUMPDEST PUSH1 0x0 PUSH1 0x20 DUP3 ADD SWAP1 POP DUP2 DUP2 SUB PUSH1 0x0 DUP4 ADD MSTORE PUSH2 0x28BA DUP2 PUSH2 0x287E JUMP JUMPDEST SWAP1 POP SWAP2 SWAP1 POP JUMP JUMPDEST PUSH32 0x4E487B7100000000000000000000000000000000000000000000000000000000 PUSH1 0x0 MSTORE PUSH1 0x11 PUSH1 0x4 MSTORE PUSH1 0x24 PUSH1 0x0 REVERT JUMPDEST PUSH1 0x0 PUSH2 0x28FB DUP3 PUSH2 0x217B JUMP JUMPDEST SWAP2 POP PUSH2 0x2906 DUP4 PUSH2 0x217B JUMP JUMPDEST SWAP3 POP DUP3 PUSH32 0xFFFFFFFFFFFFFFFFFFFFFFFFFFFFFFFFFFFFFFFFFFFFFFFFFFFFFFFFFFFFFFFF SUB DUP3 GT ISZERO PUSH2 0x293B JUMPI PUSH2 0x293A PUSH2 0x28C1 JUMP JUMPDEST JUMPDEST DUP3 DUP3 ADD SWAP1 POP SWAP3 SWAP2 POP POP JUMP JUMPDEST PUSH1 0x0 PUSH2 0x2951 DUP3 PUSH2 0x217B JUMP JUMPDEST SWAP2 POP PUSH32 0xFFFFFFFFFFFFFFFFFFFFFFFFFFFFFFFFFFFFFFFFFFFFFFFFFFFFFFFFFFFFFFFF DUP3 SUB PUSH2 0x2983 JUMPI PUSH2 0x2982 PUSH2 0x28C1 JUMP JUMPDEST JUMPDEST PUSH1 0x1 DUP3 ADD SWAP1 POP SWAP2 SWAP1 POP JUMP JUMPDEST PUSH32 0x4E487B7100000000000000000000000000000000000000000000000000000000 PUSH1 0x0 MSTORE PUSH1 0x41 PUSH1 0x4 MSTORE PUSH1 0x24 PUSH1 0x0 REVERT JUMPDEST PUSH32 0x4E487B7100000000000000000000000000000000000000000000000000000000 PUSH1 0x0 MSTORE PUSH1 0x32 PUSH1 0x4 MSTORE PUSH1 0x24 PUSH1 0x0 REVERT JUMPDEST PUSH32 0x5265656E7472616E637947756172643A207265656E7472616E742063616C6C00 PUSH1 0x0 DUP3 ADD MSTORE POP JUMP JUMPDEST PUSH1 0x0 PUSH2 0x2A22 PUSH1 0x1F DUP4 PUSH2 0x2844 JUMP JUMPDEST SWAP2 POP PUSH2 0x2A2D DUP3 PUSH2 0x29EC JUMP JUMPDEST PUSH1 0x20 DUP3 ADD SWAP1 POP SWAP2 SWAP1 POP JUMP JUMPDEST PUSH1 0x0 PUSH1 0x20 DUP3 ADD SWAP1 POP DUP2 DUP2 SUB PUSH1 0x0 DUP4 ADD MSTORE PUSH2 0x2A51 DUP2 PUSH2 0x2A15 JUMP JUMPDEST SWAP1 POP SWAP2 SWAP1 POP JUMP JUMPDEST PUSH32 0x5072696365206D757374206265206174206C6561737420312077656900000000 PUSH1 0x0 DUP3 ADD MSTORE POP JUMP JUMPDEST PUSH1 0x0 PUSH2 0x2A8E PUSH1 0x1C DUP4 PUSH2 0x2844 JUMP JUMPDEST SWAP2 POP PUSH2 0x2A99 DUP3 PUSH2 0x2A58 JUMP JUMPDEST PUSH1 0x20 DUP3 ADD SWAP1 POP SWAP2 SWAP1 POP JUMP JUMPDEST PUSH1 0x0 PUSH1 0x20 DUP3 ADD SWAP1 POP DUP2 DUP2 SUB PUSH1 0x0 DUP4 ADD MSTORE PUSH2 0x2ABD DUP2 PUSH2 0x2A81 JUMP JUMPDEST SWAP1 POP SWAP2 SWAP1 POP JUMP JUMPDEST PUSH1 0x0 PUSH1 0x60 DUP3 ADD SWAP1 POP PUSH2 0x2AD9 PUSH1 0x0 DUP4 ADD DUP7 PUSH2 0x260B JUMP JUMPDEST PUSH2 0x2AE6 PUSH1 0x20 DUP4 ADD DUP6 PUSH2 0x260B JUMP JUMPDEST PUSH2 0x2AF3 PUSH1 0x40 DUP4 ADD DUP5 PUSH2 0x25FC JUMP JUMPDEST SWAP5 SWAP4 POP POP POP POP JUMP JUMPDEST PUSH32 0x506C65617365207375626D6974207468652061736B696E672070726963652069 PUSH1 0x0 DUP3 ADD MSTORE PUSH32 0x6E206F7264657220746F20636F6D706C65746520746865207075726368617365 PUSH1 0x20 DUP3 ADD MSTORE POP JUMP JUMPDEST PUSH1 0x0 PUSH2 0x2B57 PUSH1 0x40 DUP4 PUSH2 0x2844 JUMP JUMPDEST SWAP2 POP PUSH2 0x2B62 DUP3 PUSH2 0x2AFB JUMP JUMPDEST PUSH1 0x40 DUP3 ADD SWAP1 POP SWAP2 SWAP1 POP JUMP JUMPDEST PUSH1 0x0 PUSH1 0x20 DUP3 ADD SWAP1 POP DUP2 DUP2 SUB PUSH1 0x0 DUP4 ADD MSTORE PUSH2 0x2B86 DUP2 PUSH2 0x2B4A JUMP JUMPDEST SWAP1 POP SWAP2 SWAP1 POP JUMP JUMPDEST PUSH1 0x0 PUSH2 0x2B98 DUP3 PUSH2 0x25AE JUMP JUMPDEST SWAP1 POP SWAP2 SWAP1 POP JUMP JUMPDEST PUSH2 0x2BA8 DUP2 PUSH2 0x2B8D JUMP JUMPDEST DUP3 MSTORE POP POP JUMP JUMPDEST PUSH1 0x0 PUSH1 0x60 DUP3 ADD SWAP1 POP PUSH2 0x2BC3 PUSH1 0x0 DUP4 ADD DUP7 PUSH2 0x260B JUMP JUMPDEST PUSH2 0x2BD0 PUSH1 0x20 DUP4 ADD DUP6 PUSH2 0x2B9F JUMP JUMPDEST PUSH2 0x2BDD PUSH1 0x40 DUP4 ADD DUP5 PUSH2 0x25FC JUMP JUMPDEST SWAP5 SWAP4 POP POP POP POP JUMP JUMPDEST PUSH1 0x0 DUP2 ISZERO ISZERO SWAP1 POP SWAP2 SWAP1 POP JUMP JUMPDEST PUSH2 0x2BFA DUP2 PUSH2 0x2BE5 JUMP JUMPDEST DUP2 EQ PUSH2 0x2C05 JUMPI PUSH1 0x0 DUP1 REVERT JUMPDEST POP JUMP JUMPDEST PUSH1 0x0 DUP2 MLOAD SWAP1 POP PUSH2 0x2C17 DUP2 PUSH2 0x2BF1 JUMP JUMPDEST SWAP3 SWAP2 POP POP JUMP JUMPDEST PUSH1 0x0 PUSH1 0x20 DUP3 DUP5 SUB SLT ISZERO PUSH2 0x2C33 JUMPI PUSH2 0x2C32 PUSH2 0x2316 JUMP JUMPDEST JUMPDEST PUSH1 0x0 PUSH2 0x2C41 DUP5 DUP3 DUP6 ADD PUSH2 0x2C08 JUMP JUMPDEST SWAP2 POP POP SWAP3 SWAP2 POP POP JUMP JUMPDEST PUSH32 0x4173736574206E6F74207075626C697368656400000000000000000000000000 PUSH1 0x0 DUP3 ADD MSTORE POP JUMP JUMPDEST PUSH1 0x0 PUSH2 0x2C80 PUSH1 0x13 DUP4 PUSH2 0x2844 JUMP JUMPDEST SWAP2 POP PUSH2 0x2C8B DUP3 PUSH2 0x2C4A JUMP JUMPDEST PUSH1 0x20 DUP3 ADD SWAP1 POP SWAP2 SWAP1 POP JUMP JUMPDEST PUSH1 0x0 PUSH1 0x20 DUP3 ADD SWAP1 POP DUP2 DUP2 SUB PUSH1 0x0 DUP4 ADD MSTORE PUSH2 0x2CAF DUP2 PUSH2 0x2C73 JUMP JUMPDEST SWAP1 POP SWAP2 SWAP1 POP JUMP JUMPDEST PUSH32 0x41737365742064656C6973746564000000000000000000000000000000000000 PUSH1 0x0 DUP3 ADD MSTORE POP JUMP JUMPDEST PUSH1 0x0 PUSH2 0x2CEC PUSH1 0xE DUP4 PUSH2 0x2844 JUMP JUMPDEST SWAP2 POP PUSH2 0x2CF7 DUP3 PUSH2 0x2CB6 JUMP JUMPDEST PUSH1 0x20 DUP3 ADD SWAP1 POP SWAP2 SWAP1 POP JUMP JUMPDEST PUSH1 0x0 PUSH1 0x20 DUP3 ADD SWAP1 POP DUP2 DUP2 SUB PUSH1 0x0 DUP4 ADD MSTORE PUSH2 0x2D1B DUP2 PUSH2 0x2CDF JUMP JUMPDEST SWAP1 POP SWAP2 SWAP1 POP JUMP JUMPDEST PUSH32 0x496E76616C696420616464726573730000000000000000000000000000000000 PUSH1 0x0 DUP3 ADD MSTORE POP JUMP JUMPDEST PUSH1 0x0 PUSH2 0x2D58 PUSH1 0xF DUP4 PUSH2 0x2844 JUMP JUMPDEST SWAP2 POP PUSH2 0x2D63 DUP3 PUSH2 0x2D22 JUMP JUMPDEST PUSH1 0x20 DUP3 ADD SWAP1 POP SWAP2 SWAP1 POP JUMP JUMPDEST PUSH1 0x0 PUSH1 0x20 DUP3 ADD SWAP1 POP DUP2 DUP2 SUB PUSH1 0x0 DUP4 ADD MSTORE PUSH2 0x2D87 DUP2 PUSH2 0x2D4B JUMP JUMPDEST SWAP1 POP SWAP2 SWAP1 POP JUMP JUMPDEST PUSH32 0x4F6E6C792073656C6C65722063616E2064656C69737400000000000000000000 PUSH1 0x0 DUP3 ADD MSTORE POP JUMP JUMPDEST PUSH1 0x0 PUSH2 0x2DC4 PUSH1 0x16 DUP4 PUSH2 0x2844 JUMP JUMPDEST SWAP2 POP PUSH2 0x2DCF DUP3 PUSH2 0x2D8E JUMP JUMPDEST PUSH1 0x20 DUP3 ADD SWAP1 POP SWAP2 SWAP1 POP JUMP JUMPDEST PUSH1 0x0 PUSH1 0x20 DUP3 ADD SWAP1 POP DUP2 DUP2 SUB PUSH1 0x0 DUP4 ADD MSTORE PUSH2 0x2DF3 DUP2 PUSH2 0x2DB7 JUMP JUMPDEST SWAP1 POP SWAP2 SWAP1 POP JUMP JUMPDEST PUSH1 0x0 PUSH1 0x60 DUP3 ADD SWAP1 POP PUSH2 0x2E0F PUSH1 0x0 DUP4 ADD DUP7 PUSH2 0x260B JUMP JUMPDEST PUSH2 0x2E1C PUSH1 0x20 DUP4 ADD DUP6 PUSH2 0x25FC JUMP JUMPDEST PUSH2 0x2E29 PUSH1 0x40 DUP4 ADD DUP5 PUSH2 0x25FC JUMP JUMPDEST SWAP5 SWAP4 POP POP POP POP JUMP JUMPDEST PUSH32 0x4F776E61626C653A206E6577206F776E657220697320746865207A65726F2061 PUSH1 0x0 DUP3 ADD MSTORE PUSH32 0x6464726573730000000000000000000000000000000000000000000000000000 PUSH1 0x20 DUP3 ADD MSTORE POP JUMP JUMPDEST PUSH1 0x0 PUSH2 0x2E8D PUSH1 0x26 DUP4 PUSH2 0x2844 JUMP JUMPDEST SWAP2 POP PUSH2 0x2E98 DUP3 PUSH2 0x2E31 JUMP JUMPDEST PUSH1 0x40 DUP3 ADD SWAP1 POP SWAP2 SWAP1 POP JUMP JUMPDEST PUSH1 0x0 PUSH1 0x20 DUP3 ADD SWAP1 POP DUP2 DUP2 SUB PUSH1 0x0 DUP4 ADD MSTORE PUSH2 0x2EBC DUP2 PUSH2 0x2E80 JUMP JUMPDEST SWAP1 POP SWAP2 SWAP1 POP JUMP JUMPDEST PUSH32 0x546865204E465420416464726573732073686F756C64206265206120636F6E74 PUSH1 0x0 DUP3 ADD MSTORE PUSH32 0x7261637400000000000000000000000000000000000000000000000000000000 PUSH1 0x20 DUP3 ADD MSTORE POP JUMP JUMPDEST PUSH1 0x0 PUSH2 0x2F1F PUSH1 0x24 DUP4 PUSH2 0x2844 JUMP JUMPDEST SWAP2 POP PUSH2 0x2F2A DUP3 PUSH2 0x2EC3 JUMP JUMPDEST PUSH1 0x40 DUP3 ADD SWAP1 POP SWAP2 SWAP1 POP JUMP JUMPDEST PUSH1 0x0 PUSH1 0x20 DUP3 ADD SWAP1 POP DUP2 DUP2 SUB PUSH1 0x0 DUP4 ADD MSTORE PUSH2 0x2F4E DUP2 PUSH2 0x2F12 JUMP JUMPDEST SWAP1 POP SWAP2 SWAP1 POP JUMP JUMPDEST PUSH32 0x546865204E465420636F6E74726163742068617320616E20696E76616C696420 PUSH1 0x0 DUP3 ADD MSTORE PUSH32 0x45524337323120696D706C656D656E746174696F6E0000000000000000000000 PUSH1 0x20 DUP3 ADD MSTORE POP JUMP JUMPDEST PUSH1 0x0 PUSH2 0x2FB1 PUSH1 0x35 DUP4 PUSH2 0x2844 JUMP JUMPDEST SWAP2 POP PUSH2 0x2FBC DUP3 PUSH2 0x2F55 JUMP JUMPDEST PUSH1 0x40 DUP3 ADD SWAP1 POP SWAP2 SWAP1 POP JUMP JUMPDEST PUSH1 0x0 PUSH1 0x20 DUP3 ADD SWAP1 POP DUP2 DUP2 SUB PUSH1 0x0 DUP4 ADD MSTORE PUSH2 0x2FE0 DUP2 PUSH2 0x2FA4 JUMP JUMPDEST SWAP1 POP SWAP2 SWAP1 POP JUMP INVALID LOG2 PUSH5 0x6970667358 0x22 SLT KECCAK256 STOP NOT CALLDATALOAD TIMESTAMP 0xD4 MSTORE 0x27 0xDD DUP9 0xDA BASEFEE DIFFICULTY PUSH21 0x3336BB44DA6C1F5EFE01A5406972D58FCC01646473 PUSH16 0x6C634300080D00330000000000000000 "
				},
				"gasEstimates": {
					"creation": {
						"codeDepositCost": "2463400",
						"executionCost": "infinite",
						"totalCost": "infinite"
					},
					"external": {
						"ERC721_Interface()": "364",
						"allItems(uint256)": "infinite",
						"allMarketItems()": "infinite",
						"antaFeePercent()": "2543",
						"bnbFeePercent()": "2566",
						"createMarketItem(address,uint256,uint256)": "infinite",
						"createMarketSale(uint256,uint256)": "infinite",
						"delistItem(address,uint256)": "infinite",
						"factory()": "infinite",
						"fetchMarketItem(uint256)": "infinite",
						"fetchMarketItems()": "infinite",
						"fetchMyNFTs()": "infinite",
						"getMarketItem(uint256)": "infinite",
						"items(address,uint256)": "infinite",
						"mainNFTs()": "infinite",
						"mainToken()": "infinite",
						"owner()": "2589",
						"renounceOwnership()": "30397",
						"setFactory(address)": "27073",
						"setMainNFT(address)": "27008",
						"setMainToken(address)": "27052",
						"transferOwnership(address)": "30808"
					},
					"internal": {
						"_requireERC721(address)": "infinite",
						"isContract(address)": "2653"
					}
				},
				"methodIdentifiers": {
					"ERC721_Interface()": "2b4c32be",
					"allItems(uint256)": "ff68fa6e",
					"allMarketItems()": "517bd451",
					"antaFeePercent()": "b7a60c7e",
					"bnbFeePercent()": "85a8b36c",
					"createMarketItem(address,uint256,uint256)": "58eb2df5",
					"createMarketSale(uint256,uint256)": "a1c11ca8",
					"delistItem(address,uint256)": "ad9a0369",
					"factory()": "c45a0155",
					"fetchMarketItem(uint256)": "2a45b250",
					"fetchMarketItems()": "0f08efe0",
					"fetchMyNFTs()": "202e3740",
					"getMarketItem(uint256)": "c7be7a49",
					"items(address,uint256)": "5c80a435",
					"mainNFTs()": "f55de0c7",
					"mainToken()": "3fc15f15",
					"owner()": "8da5cb5b",
					"renounceOwnership()": "715018a6",
					"setFactory(address)": "5bb47808",
					"setMainNFT(address)": "15b12494",
					"setMainToken(address)": "27ce464e",
					"transferOwnership(address)": "f2fde38b"
				}
			},
			"storageLayout": {
				"storage": [
					{
						"astId": 409,
						"contract": "contracts/Marketplace2/Marketplace.sol:NFTMarket",
						"label": "_status",
						"offset": 0,
						"slot": "0",
						"type": "t_uint256"
					},
					{
						"astId": 491,
						"contract": "contracts/Marketplace2/Marketplace.sol:NFTMarket",
						"label": "allMarketItems",
						"offset": 0,
						"slot": "1",
						"type": "t_struct(MarketItem)488_storage"
					},
					{
						"astId": 502,
						"contract": "contracts/Marketplace2/Marketplace.sol:NFTMarket",
						"label": "allItems",
						"offset": 0,
						"slot": "8",
						"type": "t_mapping(t_uint256,t_struct(MarketItem)488_storage)"
					},
					{
						"astId": 509,
						"contract": "contracts/Marketplace2/Marketplace.sol:NFTMarket",
						"label": "items",
						"offset": 0,
						"slot": "9",
						"type": "t_mapping(t_address,t_mapping(t_uint256,t_struct(MarketItem)488_storage))"
					},
					{
						"astId": 512,
						"contract": "contracts/Marketplace2/Marketplace.sol:NFTMarket",
						"label": "mainToken",
						"offset": 0,
						"slot": "10",
						"type": "t_contract(IERC20)201"
					},
					{
						"astId": 515,
						"contract": "contracts/Marketplace2/Marketplace.sol:NFTMarket",
						"label": "factory",
						"offset": 0,
						"slot": "11",
						"type": "t_contract(IFactory)468"
					},
					{
						"astId": 518,
						"contract": "contracts/Marketplace2/Marketplace.sol:NFTMarket",
						"label": "mainNFTs",
						"offset": 0,
						"slot": "12",
						"type": "t_contract(IERC721)326"
					},
					{
						"astId": 520,
						"contract": "contracts/Marketplace2/Marketplace.sol:NFTMarket",
						"label": "bnbFeePercent",
						"offset": 20,
						"slot": "12",
						"type": "t_uint8"
					},
					{
						"astId": 522,
						"contract": "contracts/Marketplace2/Marketplace.sol:NFTMarket",
						"label": "antaFeePercent",
						"offset": 21,
						"slot": "12",
						"type": "t_uint8"
					},
					{
						"astId": 27,
						"contract": "contracts/Marketplace2/Marketplace.sol:NFTMarket",
						"label": "_owner",
						"offset": 0,
						"slot": "13",
						"type": "t_address"
					},
					{
						"astId": 600,
						"contract": "contracts/Marketplace2/Marketplace.sol:NFTMarket",
						"label": "_itemIds",
						"offset": 0,
						"slot": "14",
						"type": "t_struct(Counter)331_storage"
					},
					{
						"astId": 603,
						"contract": "contracts/Marketplace2/Marketplace.sol:NFTMarket",
						"label": "_itemsSold",
						"offset": 0,
						"slot": "15",
						"type": "t_struct(Counter)331_storage"
					},
					{
						"astId": 608,
						"contract": "contracts/Marketplace2/Marketplace.sol:NFTMarket",
						"label": "idToMarketItem",
						"offset": 0,
						"slot": "16",
						"type": "t_mapping(t_uint256,t_struct(MarketItem)488_storage)"
					}
				],
				"types": {
					"t_address": {
						"encoding": "inplace",
						"label": "address",
						"numberOfBytes": "20"
					},
					"t_address_payable": {
						"encoding": "inplace",
						"label": "address payable",
						"numberOfBytes": "20"
					},
					"t_contract(IERC20)201": {
						"encoding": "inplace",
						"label": "contract IERC20",
						"numberOfBytes": "20"
					},
					"t_contract(IERC721)326": {
						"encoding": "inplace",
						"label": "contract IERC721",
						"numberOfBytes": "20"
					},
					"t_contract(IFactory)468": {
						"encoding": "inplace",
						"label": "contract IFactory",
						"numberOfBytes": "20"
					},
					"t_enum(ItemStatus)472": {
						"encoding": "inplace",
						"label": "enum MarketplaceStorage.ItemStatus",
						"numberOfBytes": "1"
					},
					"t_mapping(t_address,t_mapping(t_uint256,t_struct(MarketItem)488_storage))": {
						"encoding": "mapping",
						"key": "t_address",
						"label": "mapping(address => mapping(uint256 => struct MarketplaceStorage.MarketItem))",
						"numberOfBytes": "32",
						"value": "t_mapping(t_uint256,t_struct(MarketItem)488_storage)"
					},
					"t_mapping(t_uint256,t_struct(MarketItem)488_storage)": {
						"encoding": "mapping",
						"key": "t_uint256",
						"label": "mapping(uint256 => struct MarketplaceStorage.MarketItem)",
						"numberOfBytes": "32",
						"value": "t_struct(MarketItem)488_storage"
					},
					"t_struct(Counter)331_storage": {
						"encoding": "inplace",
						"label": "struct Counters.Counter",
						"members": [
							{
								"astId": 330,
								"contract": "contracts/Marketplace2/Marketplace.sol:NFTMarket",
								"label": "_value",
								"offset": 0,
								"slot": "0",
								"type": "t_uint256"
							}
						],
						"numberOfBytes": "32"
					},
					"t_struct(MarketItem)488_storage": {
						"encoding": "inplace",
						"label": "struct MarketplaceStorage.MarketItem",
						"members": [
							{
								"astId": 474,
								"contract": "contracts/Marketplace2/Marketplace.sol:NFTMarket",
								"label": "itemId",
								"offset": 0,
								"slot": "0",
								"type": "t_uint256"
							},
							{
								"astId": 476,
								"contract": "contracts/Marketplace2/Marketplace.sol:NFTMarket",
								"label": "nftContract",
								"offset": 0,
								"slot": "1",
								"type": "t_address"
							},
							{
								"astId": 478,
								"contract": "contracts/Marketplace2/Marketplace.sol:NFTMarket",
								"label": "tokenId",
								"offset": 0,
								"slot": "2",
								"type": "t_uint256"
							},
							{
								"astId": 480,
								"contract": "contracts/Marketplace2/Marketplace.sol:NFTMarket",
								"label": "seller",
								"offset": 0,
								"slot": "3",
								"type": "t_address_payable"
							},
							{
								"astId": 482,
								"contract": "contracts/Marketplace2/Marketplace.sol:NFTMarket",
								"label": "owner",
								"offset": 0,
								"slot": "4",
								"type": "t_address_payable"
							},
							{
								"astId": 484,
								"contract": "contracts/Marketplace2/Marketplace.sol:NFTMarket",
								"label": "price",
								"offset": 0,
								"slot": "5",
								"type": "t_uint256"
							},
							{
								"astId": 487,
								"contract": "contracts/Marketplace2/Marketplace.sol:NFTMarket",
								"label": "status",
								"offset": 0,
								"slot": "6",
								"type": "t_enum(ItemStatus)472"
							}
						],
						"numberOfBytes": "224"
					},
					"t_uint256": {
						"encoding": "inplace",
						"label": "uint256",
						"numberOfBytes": "32"
					},
					"t_uint8": {
						"encoding": "inplace",
						"label": "uint8",
						"numberOfBytes": "1"
					}
				}
			},
			"userdoc": {
				"kind": "user",
				"methods": {},
				"version": 1
			}
		}
	}
}