{
	"contracts/Marketplace2/Marketplace.sol": {
		"NFTMarket": {
			"abi": [
				{
					"inputs": [
						{
							"internalType": "address",
							"name": "_mainToken",
							"type": "address"
						},
						{
							"internalType": "address",
							"name": "_mainNFT",
							"type": "address"
						},
						{
							"internalType": "address",
							"name": "_mainFactory",
							"type": "address"
						}
					],
					"stateMutability": "nonpayable",
					"type": "constructor"
				},
				{
					"anonymous": false,
					"inputs": [
						{
							"indexed": false,
							"internalType": "bytes32",
							"name": "id",
							"type": "bytes32"
						},
						{
							"indexed": true,
							"internalType": "uint256",
							"name": "assetId",
							"type": "uint256"
						},
						{
							"indexed": true,
							"internalType": "address",
							"name": "seller",
							"type": "address"
						},
						{
							"indexed": false,
							"internalType": "address",
							"name": "nftAddress",
							"type": "address"
						},
						{
							"indexed": false,
							"internalType": "uint256",
							"name": "price",
							"type": "uint256"
						},
						{
							"indexed": false,
							"internalType": "uint8",
							"name": "feePercent",
							"type": "uint8"
						},
						{
							"indexed": false,
							"internalType": "uint256",
							"name": "fee",
							"type": "uint256"
						},
						{
							"indexed": true,
							"internalType": "address",
							"name": "buyer",
							"type": "address"
						},
						{
							"indexed": false,
							"internalType": "string",
							"name": "currency",
							"type": "string"
						},
						{
							"indexed": false,
							"internalType": "uint256",
							"name": "createdAt",
							"type": "uint256"
						}
					],
					"name": "BuyItemSuccessful",
					"type": "event"
				},
				{
					"anonymous": false,
					"inputs": [
						{
							"indexed": false,
							"internalType": "address",
							"name": "nftAddress",
							"type": "address"
						},
						{
							"indexed": false,
							"internalType": "uint256",
							"name": "id",
							"type": "uint256"
						},
						{
							"indexed": true,
							"internalType": "uint256",
							"name": "assetId",
							"type": "uint256"
						},
						{
							"indexed": true,
							"internalType": "address",
							"name": "delistBy",
							"type": "address"
						},
						{
							"indexed": false,
							"internalType": "uint256",
							"name": "createdAt",
							"type": "uint256"
						}
					],
					"name": "DelistItemSuccessful",
					"type": "event"
				},
				{
					"anonymous": false,
					"inputs": [
						{
							"indexed": true,
							"internalType": "uint256",
							"name": "itemId",
							"type": "uint256"
						},
						{
							"indexed": true,
							"internalType": "uint256",
							"name": "tokenId",
							"type": "uint256"
						},
						{
							"indexed": false,
							"internalType": "address",
							"name": "seller",
							"type": "address"
						},
						{
							"indexed": false,
							"internalType": "address",
							"name": "owner",
							"type": "address"
						},
						{
							"indexed": false,
							"internalType": "uint256",
							"name": "price",
							"type": "uint256"
						}
					],
					"name": "MarketItemCreated",
					"type": "event"
				},
				{
					"anonymous": false,
					"inputs": [
						{
							"indexed": true,
							"internalType": "address",
							"name": "previousOwner",
							"type": "address"
						},
						{
							"indexed": true,
							"internalType": "address",
							"name": "newOwner",
							"type": "address"
						}
					],
					"name": "OwnershipTransferred",
					"type": "event"
				},
				{
					"anonymous": false,
					"inputs": [
						{
							"indexed": false,
							"internalType": "address",
							"name": "nftAddress",
							"type": "address"
						},
						{
							"indexed": false,
							"internalType": "bytes32",
							"name": "id",
							"type": "bytes32"
						},
						{
							"indexed": true,
							"internalType": "uint256",
							"name": "assetId",
							"type": "uint256"
						},
						{
							"indexed": false,
							"internalType": "uint256",
							"name": "price",
							"type": "uint256"
						},
						{
							"indexed": true,
							"internalType": "address",
							"name": "seller",
							"type": "address"
						},
						{
							"indexed": false,
							"internalType": "string",
							"name": "currency",
							"type": "string"
						},
						{
							"indexed": false,
							"internalType": "uint256",
							"name": "createdAt",
							"type": "uint256"
						}
					],
					"name": "SellItemSuccessful",
					"type": "event"
				},
				{
					"inputs": [],
					"name": "ERC721_Interface",
					"outputs": [
						{
							"internalType": "bytes4",
							"name": "",
							"type": "bytes4"
						}
					],
					"stateMutability": "view",
					"type": "function"
				},
				{
					"inputs": [
						{
							"internalType": "uint256",
							"name": "",
							"type": "uint256"
						}
					],
					"name": "allItems",
					"outputs": [
						{
							"internalType": "uint256",
							"name": "itemId",
							"type": "uint256"
						},
						{
							"internalType": "uint256",
							"name": "tokenId",
							"type": "uint256"
						},
						{
							"internalType": "address payable",
							"name": "seller",
							"type": "address"
						},
						{
							"internalType": "address payable",
							"name": "owner",
							"type": "address"
						},
						{
							"internalType": "uint256",
							"name": "price",
							"type": "uint256"
						},
						{
							"internalType": "enum MarketplaceStorage.ItemStatus",
							"name": "status",
							"type": "uint8"
						}
					],
					"stateMutability": "view",
					"type": "function"
				},
				{
					"inputs": [],
					"name": "allMarketItems",
					"outputs": [
						{
							"internalType": "uint256",
							"name": "itemId",
							"type": "uint256"
						},
						{
							"internalType": "uint256",
							"name": "tokenId",
							"type": "uint256"
						},
						{
							"internalType": "address payable",
							"name": "seller",
							"type": "address"
						},
						{
							"internalType": "address payable",
							"name": "owner",
							"type": "address"
						},
						{
							"internalType": "uint256",
							"name": "price",
							"type": "uint256"
						},
						{
							"internalType": "enum MarketplaceStorage.ItemStatus",
							"name": "status",
							"type": "uint8"
						}
					],
					"stateMutability": "view",
					"type": "function"
				},
				{
					"inputs": [],
					"name": "antaFeePercent",
					"outputs": [
						{
							"internalType": "uint8",
							"name": "",
							"type": "uint8"
						}
					],
					"stateMutability": "view",
					"type": "function"
				},
				{
					"inputs": [],
					"name": "bnbFeePercent",
					"outputs": [
						{
							"internalType": "uint8",
							"name": "",
							"type": "uint8"
						}
					],
					"stateMutability": "view",
					"type": "function"
				},
				{
					"inputs": [
						{
							"internalType": "uint256",
							"name": "tokenId",
							"type": "uint256"
						},
						{
							"internalType": "uint256",
							"name": "price",
							"type": "uint256"
						}
					],
					"name": "createMarketItem",
					"outputs": [],
					"stateMutability": "payable",
					"type": "function"
				},
				{
					"inputs": [
						{
							"internalType": "uint256",
							"name": "itemId",
							"type": "uint256"
						},
						{
							"internalType": "uint256",
							"name": "amount",
							"type": "uint256"
						}
					],
					"name": "createMarketSale",
					"outputs": [],
					"stateMutability": "nonpayable",
					"type": "function"
				},
				{
					"inputs": [
						{
							"internalType": "address",
							"name": "nftAddress",
							"type": "address"
						},
						{
							"internalType": "uint256",
							"name": "itemId",
							"type": "uint256"
						}
					],
					"name": "delistItem",
					"outputs": [],
					"stateMutability": "nonpayable",
					"type": "function"
				},
				{
					"inputs": [],
					"name": "factory",
					"outputs": [
						{
							"internalType": "contract IFactory",
							"name": "",
							"type": "address"
						}
					],
					"stateMutability": "view",
					"type": "function"
				},
				{
					"inputs": [
						{
							"internalType": "uint256",
							"name": "itemId",
							"type": "uint256"
						}
					],
					"name": "fetchMarketItem",
					"outputs": [
						{
							"components": [
								{
									"internalType": "uint256",
									"name": "itemId",
									"type": "uint256"
								},
								{
									"internalType": "uint256",
									"name": "tokenId",
									"type": "uint256"
								},
								{
									"internalType": "address payable",
									"name": "seller",
									"type": "address"
								},
								{
									"internalType": "address payable",
									"name": "owner",
									"type": "address"
								},
								{
									"internalType": "uint256",
									"name": "price",
									"type": "uint256"
								},
								{
									"internalType": "enum MarketplaceStorage.ItemStatus",
									"name": "status",
									"type": "uint8"
								}
							],
							"internalType": "struct MarketplaceStorage.MarketItem",
							"name": "",
							"type": "tuple"
						}
					],
					"stateMutability": "view",
					"type": "function"
				},
				{
					"inputs": [],
					"name": "fetchMarketItems",
					"outputs": [
						{
							"components": [
								{
									"internalType": "uint256",
									"name": "itemId",
									"type": "uint256"
								},
								{
									"internalType": "uint256",
									"name": "tokenId",
									"type": "uint256"
								},
								{
									"internalType": "address payable",
									"name": "seller",
									"type": "address"
								},
								{
									"internalType": "address payable",
									"name": "owner",
									"type": "address"
								},
								{
									"internalType": "uint256",
									"name": "price",
									"type": "uint256"
								},
								{
									"internalType": "enum MarketplaceStorage.ItemStatus",
									"name": "status",
									"type": "uint8"
								}
							],
							"internalType": "struct MarketplaceStorage.MarketItem",
							"name": "",
							"type": "tuple"
						}
					],
					"stateMutability": "view",
					"type": "function"
				},
				{
					"inputs": [],
					"name": "fetchMyNFTs",
					"outputs": [
						{
							"components": [
								{
									"internalType": "uint256",
									"name": "itemId",
									"type": "uint256"
								},
								{
									"internalType": "uint256",
									"name": "tokenId",
									"type": "uint256"
								},
								{
									"internalType": "address payable",
									"name": "seller",
									"type": "address"
								},
								{
									"internalType": "address payable",
									"name": "owner",
									"type": "address"
								},
								{
									"internalType": "uint256",
									"name": "price",
									"type": "uint256"
								},
								{
									"internalType": "enum MarketplaceStorage.ItemStatus",
									"name": "status",
									"type": "uint8"
								}
							],
							"internalType": "struct MarketplaceStorage.MarketItem[]",
							"name": "",
							"type": "tuple[]"
						}
					],
					"stateMutability": "view",
					"type": "function"
				},
				{
					"inputs": [
						{
							"internalType": "uint256",
							"name": "tokenId",
							"type": "uint256"
						}
					],
					"name": "getAlalalalala",
					"outputs": [
						{
							"internalType": "bool",
							"name": "",
							"type": "bool"
						}
					],
					"stateMutability": "view",
					"type": "function"
				},
				{
					"inputs": [
						{
							"internalType": "uint256",
							"name": "marketItemId",
							"type": "uint256"
						}
					],
					"name": "getMarketItem",
					"outputs": [
						{
							"components": [
								{
									"internalType": "uint256",
									"name": "itemId",
									"type": "uint256"
								},
								{
									"internalType": "uint256",
									"name": "tokenId",
									"type": "uint256"
								},
								{
									"internalType": "address payable",
									"name": "seller",
									"type": "address"
								},
								{
									"internalType": "address payable",
									"name": "owner",
									"type": "address"
								},
								{
									"internalType": "uint256",
									"name": "price",
									"type": "uint256"
								},
								{
									"internalType": "enum MarketplaceStorage.ItemStatus",
									"name": "status",
									"type": "uint8"
								}
							],
							"internalType": "struct MarketplaceStorage.MarketItem",
							"name": "",
							"type": "tuple"
						}
					],
					"stateMutability": "view",
					"type": "function"
				},
				{
					"inputs": [
						{
							"internalType": "address",
							"name": "",
							"type": "address"
						},
						{
							"internalType": "uint256",
							"name": "",
							"type": "uint256"
						}
					],
					"name": "items",
					"outputs": [
						{
							"internalType": "uint256",
							"name": "itemId",
							"type": "uint256"
						},
						{
							"internalType": "uint256",
							"name": "tokenId",
							"type": "uint256"
						},
						{
							"internalType": "address payable",
							"name": "seller",
							"type": "address"
						},
						{
							"internalType": "address payable",
							"name": "owner",
							"type": "address"
						},
						{
							"internalType": "uint256",
							"name": "price",
							"type": "uint256"
						},
						{
							"internalType": "enum MarketplaceStorage.ItemStatus",
							"name": "status",
							"type": "uint8"
						}
					],
					"stateMutability": "view",
					"type": "function"
				},
				{
					"inputs": [],
					"name": "mainNFTs",
					"outputs": [
						{
							"internalType": "contract IERC721",
							"name": "",
							"type": "address"
						}
					],
					"stateMutability": "view",
					"type": "function"
				},
				{
					"inputs": [],
					"name": "mainToken",
					"outputs": [
						{
							"internalType": "contract IERC20",
							"name": "",
							"type": "address"
						}
					],
					"stateMutability": "view",
					"type": "function"
				},
				{
					"inputs": [],
					"name": "owner",
					"outputs": [
						{
							"internalType": "address",
							"name": "",
							"type": "address"
						}
					],
					"stateMutability": "view",
					"type": "function"
				},
				{
					"inputs": [],
					"name": "renounceOwnership",
					"outputs": [],
					"stateMutability": "nonpayable",
					"type": "function"
				},
				{
					"inputs": [
						{
							"internalType": "address",
							"name": "_address",
							"type": "address"
						}
					],
					"name": "setFactory",
					"outputs": [],
					"stateMutability": "nonpayable",
					"type": "function"
				},
				{
					"inputs": [
						{
							"internalType": "address",
							"name": "_address",
							"type": "address"
						}
					],
					"name": "setMainNFT",
					"outputs": [],
					"stateMutability": "nonpayable",
					"type": "function"
				},
				{
					"inputs": [
						{
							"internalType": "address",
							"name": "_address",
							"type": "address"
						}
					],
					"name": "setMainToken",
					"outputs": [],
					"stateMutability": "nonpayable",
					"type": "function"
				},
				{
					"inputs": [
						{
							"internalType": "uint256",
							"name": "tokenId",
							"type": "uint256"
						}
					],
					"name": "testView",
					"outputs": [
						{
							"internalType": "address",
							"name": "",
							"type": "address"
						}
					],
					"stateMutability": "view",
					"type": "function"
				},
				{
					"inputs": [
						{
							"internalType": "address",
							"name": "newOwner",
							"type": "address"
						}
					],
					"name": "transferOwnership",
					"outputs": [],
					"stateMutability": "nonpayable",
					"type": "function"
				}
			],
			"devdoc": {
				"kind": "dev",
				"methods": {
					"owner()": {
						"details": "Returns the address of the current owner."
					},
					"renounceOwnership()": {
						"details": "Leaves the contract without owner. It will not be possible to call `onlyOwner` functions anymore. Can only be called by the current owner. NOTE: Renouncing ownership will leave the contract without an owner, thereby removing any functionality that is only available to the owner."
					},
					"transferOwnership(address)": {
						"details": "Transfers ownership of the contract to a new account (`newOwner`). Can only be called by the current owner."
					}
				},
				"version": 1
			},
			"evm": {
				"assembly": "    /* \"contracts/Marketplace2/Marketplace.sol\":17204:24543  contract NFTMarket is ReentrancyGuard,MarketplaceStorage, Ownable {... */\n  mstore(0x40, 0x80)\n    /* \"contracts/Marketplace2/Marketplace.sol\":17450:17644  constructor(address _mainToken, address _mainNFT, address _mainFactory ) {... */\n  callvalue\n  dup1\n  iszero\n  tag_1\n  jumpi\n  0x00\n  dup1\n  revert\ntag_1:\n  pop\n  mload(0x40)\n  sub(codesize, bytecodeSize)\n  dup1\n  bytecodeSize\n  dup4\n  codecopy\n  dup2\n  dup2\n  add\n  0x40\n  mstore\n  dup2\n  add\n  swap1\n  tag_2\n  swap2\n  swap1\n  tag_3\n  jump\t// in\ntag_2:\n    /* \"contracts/Marketplace2/Marketplace.sol\":14122:14123  1 */\n  0x01\n    /* \"contracts/Marketplace2/Marketplace.sol\":14227:14234  _status */\n  0x00\n    /* \"contracts/Marketplace2/Marketplace.sol\":14227:14249  _status = _NOT_ENTERED */\n  dup2\n  swap1\n  sstore\n  pop\n    /* \"contracts/Marketplace2/Marketplace.sol\":1561:1593  _transferOwnership(_msgSender()) */\n  tag_9\n    /* \"contracts/Marketplace2/Marketplace.sol\":1580:1592  _msgSender() */\n  tag_10\n    /* \"contracts/Marketplace2/Marketplace.sol\":1580:1590  _msgSender */\n  shl(0x20, tag_11)\n    /* \"contracts/Marketplace2/Marketplace.sol\":1580:1592  _msgSender() */\n  0x20\n  shr\n  jump\t// in\ntag_10:\n    /* \"contracts/Marketplace2/Marketplace.sol\":1561:1579  _transferOwnership */\n  shl(0x20, tag_12)\n    /* \"contracts/Marketplace2/Marketplace.sol\":1561:1593  _transferOwnership(_msgSender()) */\n  0x20\n  shr\n  jump\t// in\ntag_9:\n    /* \"contracts/Marketplace2/Marketplace.sol\":17550:17560  _mainToken */\n  dup3\n    /* \"contracts/Marketplace2/Marketplace.sol\":17531:17540  mainToken */\n  0x09\n  0x00\n    /* \"contracts/Marketplace2/Marketplace.sol\":17531:17561  mainToken = IERC20(_mainToken) */\n  0x0100\n  exp\n  dup2\n  sload\n  dup2\n  0xffffffffffffffffffffffffffffffffffffffff\n  mul\n  not\n  and\n  swap1\n  dup4\n  0xffffffffffffffffffffffffffffffffffffffff\n  and\n  mul\n  or\n  swap1\n  sstore\n  pop\n    /* \"contracts/Marketplace2/Marketplace.sol\":17588:17596  _mainNFT */\n  dup2\n    /* \"contracts/Marketplace2/Marketplace.sol\":17569:17577  mainNFTs */\n  0x0b\n  0x00\n    /* \"contracts/Marketplace2/Marketplace.sol\":17569:17597  mainNFTs = IERC721(_mainNFT) */\n  0x0100\n  exp\n  dup2\n  sload\n  dup2\n  0xffffffffffffffffffffffffffffffffffffffff\n  mul\n  not\n  and\n  swap1\n  dup4\n  0xffffffffffffffffffffffffffffffffffffffff\n  and\n  mul\n  or\n  swap1\n  sstore\n  pop\n    /* \"contracts/Marketplace2/Marketplace.sol\":17624:17636  _mainFactory */\n  dup1\n    /* \"contracts/Marketplace2/Marketplace.sol\":17605:17612  factory */\n  0x0a\n  0x00\n    /* \"contracts/Marketplace2/Marketplace.sol\":17605:17637  factory = IFactory(_mainFactory) */\n  0x0100\n  exp\n  dup2\n  sload\n  dup2\n  0xffffffffffffffffffffffffffffffffffffffff\n  mul\n  not\n  and\n  swap1\n  dup4\n  0xffffffffffffffffffffffffffffffffffffffff\n  and\n  mul\n  or\n  swap1\n  sstore\n  pop\n    /* \"contracts/Marketplace2/Marketplace.sol\":17450:17644  constructor(address _mainToken, address _mainNFT, address _mainFactory ) {... */\n  pop\n  pop\n  pop\n    /* \"contracts/Marketplace2/Marketplace.sol\":17204:24543  contract NFTMarket is ReentrancyGuard,MarketplaceStorage, Ownable {... */\n  jump(tag_14)\n    /* \"contracts/Marketplace2/Marketplace.sol\":554:650  function _msgSender() internal view virtual returns (address) {... */\ntag_11:\n    /* \"contracts/Marketplace2/Marketplace.sol\":607:614  address */\n  0x00\n    /* \"contracts/Marketplace2/Marketplace.sol\":633:643  msg.sender */\n  caller\n    /* \"contracts/Marketplace2/Marketplace.sol\":626:643  return msg.sender */\n  swap1\n  pop\n    /* \"contracts/Marketplace2/Marketplace.sol\":554:650  function _msgSender() internal view virtual returns (address) {... */\n  swap1\n  jump\t// out\n    /* \"contracts/Marketplace2/Marketplace.sol\":2910:3097  function _transferOwnership(address newOwner) internal virtual {... */\ntag_12:\n    /* \"contracts/Marketplace2/Marketplace.sol\":2983:2999  address oldOwner */\n  0x00\n    /* \"contracts/Marketplace2/Marketplace.sol\":3002:3008  _owner */\n  0x0c\n  0x00\n  swap1\n  sload\n  swap1\n  0x0100\n  exp\n  swap1\n  div\n  0xffffffffffffffffffffffffffffffffffffffff\n  and\n    /* \"contracts/Marketplace2/Marketplace.sol\":2983:3008  address oldOwner = _owner */\n  swap1\n  pop\n    /* \"contracts/Marketplace2/Marketplace.sol\":3027:3035  newOwner */\n  dup2\n    /* \"contracts/Marketplace2/Marketplace.sol\":3018:3024  _owner */\n  0x0c\n  0x00\n    /* \"contracts/Marketplace2/Marketplace.sol\":3018:3035  _owner = newOwner */\n  0x0100\n  exp\n  dup2\n  sload\n  dup2\n  0xffffffffffffffffffffffffffffffffffffffff\n  mul\n  not\n  and\n  swap1\n  dup4\n  0xffffffffffffffffffffffffffffffffffffffff\n  and\n  mul\n  or\n  swap1\n  sstore\n  pop\n    /* \"contracts/Marketplace2/Marketplace.sol\":3081:3089  newOwner */\n  dup2\n    /* \"contracts/Marketplace2/Marketplace.sol\":3050:3090  OwnershipTransferred(oldOwner, newOwner) */\n  0xffffffffffffffffffffffffffffffffffffffff\n  and\n    /* \"contracts/Marketplace2/Marketplace.sol\":3071:3079  oldOwner */\n  dup2\n    /* \"contracts/Marketplace2/Marketplace.sol\":3050:3090  OwnershipTransferred(oldOwner, newOwner) */\n  0xffffffffffffffffffffffffffffffffffffffff\n  and\n  0x8be0079c531659141344cd1fd0a4f28419497f9722a3daafe3b4186f6b6457e0\n  mload(0x40)\n  mload(0x40)\n  dup1\n  swap2\n  sub\n  swap1\n  log3\n    /* \"contracts/Marketplace2/Marketplace.sol\":2973:3097  {... */\n  pop\n    /* \"contracts/Marketplace2/Marketplace.sol\":2910:3097  function _transferOwnership(address newOwner) internal virtual {... */\n  pop\n  jump\t// out\n    /* \"#utility.yul\":88:205   */\ntag_18:\n    /* \"#utility.yul\":197:198   */\n  0x00\n    /* \"#utility.yul\":194:195   */\n  dup1\n    /* \"#utility.yul\":187:199   */\n  revert\n    /* \"#utility.yul\":334:460   */\ntag_20:\n    /* \"#utility.yul\":371:378   */\n  0x00\n    /* \"#utility.yul\":411:453   */\n  0xffffffffffffffffffffffffffffffffffffffff\n    /* \"#utility.yul\":404:409   */\n  dup3\n    /* \"#utility.yul\":400:454   */\n  and\n    /* \"#utility.yul\":389:454   */\n  swap1\n  pop\n    /* \"#utility.yul\":334:460   */\n  swap2\n  swap1\n  pop\n  jump\t// out\n    /* \"#utility.yul\":466:562   */\ntag_21:\n    /* \"#utility.yul\":503:510   */\n  0x00\n    /* \"#utility.yul\":532:556   */\n  tag_30\n    /* \"#utility.yul\":550:555   */\n  dup3\n    /* \"#utility.yul\":532:556   */\n  tag_20\n  jump\t// in\ntag_30:\n    /* \"#utility.yul\":521:556   */\n  swap1\n  pop\n    /* \"#utility.yul\":466:562   */\n  swap2\n  swap1\n  pop\n  jump\t// out\n    /* \"#utility.yul\":568:690   */\ntag_22:\n    /* \"#utility.yul\":641:665   */\n  tag_32\n    /* \"#utility.yul\":659:664   */\n  dup2\n    /* \"#utility.yul\":641:665   */\n  tag_21\n  jump\t// in\ntag_32:\n    /* \"#utility.yul\":634:639   */\n  dup2\n    /* \"#utility.yul\":631:666   */\n  eq\n    /* \"#utility.yul\":621:684   */\n  tag_33\n  jumpi\n    /* \"#utility.yul\":680:681   */\n  0x00\n    /* \"#utility.yul\":677:678   */\n  dup1\n    /* \"#utility.yul\":670:682   */\n  revert\n    /* \"#utility.yul\":621:684   */\ntag_33:\n    /* \"#utility.yul\":568:690   */\n  pop\n  jump\t// out\n    /* \"#utility.yul\":696:839   */\ntag_23:\n    /* \"#utility.yul\":753:758   */\n  0x00\n    /* \"#utility.yul\":784:790   */\n  dup2\n    /* \"#utility.yul\":778:791   */\n  mload\n    /* \"#utility.yul\":769:791   */\n  swap1\n  pop\n    /* \"#utility.yul\":800:833   */\n  tag_35\n    /* \"#utility.yul\":827:832   */\n  dup2\n    /* \"#utility.yul\":800:833   */\n  tag_22\n  jump\t// in\ntag_35:\n    /* \"#utility.yul\":696:839   */\n  swap3\n  swap2\n  pop\n  pop\n  jump\t// out\n    /* \"#utility.yul\":845:1508   */\ntag_3:\n    /* \"#utility.yul\":933:939   */\n  0x00\n    /* \"#utility.yul\":941:947   */\n  dup1\n    /* \"#utility.yul\":949:955   */\n  0x00\n    /* \"#utility.yul\":998:1000   */\n  0x60\n    /* \"#utility.yul\":986:995   */\n  dup5\n    /* \"#utility.yul\":977:984   */\n  dup7\n    /* \"#utility.yul\":973:996   */\n  sub\n    /* \"#utility.yul\":969:1001   */\n  slt\n    /* \"#utility.yul\":966:1085   */\n  iszero\n  tag_37\n  jumpi\n    /* \"#utility.yul\":1004:1083   */\n  tag_38\n  tag_18\n  jump\t// in\ntag_38:\n    /* \"#utility.yul\":966:1085   */\ntag_37:\n    /* \"#utility.yul\":1124:1125   */\n  0x00\n    /* \"#utility.yul\":1149:1213   */\n  tag_39\n    /* \"#utility.yul\":1205:1212   */\n  dup7\n    /* \"#utility.yul\":1196:1202   */\n  dup3\n    /* \"#utility.yul\":1185:1194   */\n  dup8\n    /* \"#utility.yul\":1181:1203   */\n  add\n    /* \"#utility.yul\":1149:1213   */\n  tag_23\n  jump\t// in\ntag_39:\n    /* \"#utility.yul\":1139:1213   */\n  swap4\n  pop\n    /* \"#utility.yul\":1095:1223   */\n  pop\n    /* \"#utility.yul\":1262:1264   */\n  0x20\n    /* \"#utility.yul\":1288:1352   */\n  tag_40\n    /* \"#utility.yul\":1344:1351   */\n  dup7\n    /* \"#utility.yul\":1335:1341   */\n  dup3\n    /* \"#utility.yul\":1324:1333   */\n  dup8\n    /* \"#utility.yul\":1320:1342   */\n  add\n    /* \"#utility.yul\":1288:1352   */\n  tag_23\n  jump\t// in\ntag_40:\n    /* \"#utility.yul\":1278:1352   */\n  swap3\n  pop\n    /* \"#utility.yul\":1233:1362   */\n  pop\n    /* \"#utility.yul\":1401:1403   */\n  0x40\n    /* \"#utility.yul\":1427:1491   */\n  tag_41\n    /* \"#utility.yul\":1483:1490   */\n  dup7\n    /* \"#utility.yul\":1474:1480   */\n  dup3\n    /* \"#utility.yul\":1463:1472   */\n  dup8\n    /* \"#utility.yul\":1459:1481   */\n  add\n    /* \"#utility.yul\":1427:1491   */\n  tag_23\n  jump\t// in\ntag_41:\n    /* \"#utility.yul\":1417:1491   */\n  swap2\n  pop\n    /* \"#utility.yul\":1372:1501   */\n  pop\n    /* \"#utility.yul\":845:1508   */\n  swap3\n  pop\n  swap3\n  pop\n  swap3\n  jump\t// out\n    /* \"contracts/Marketplace2/Marketplace.sol\":17204:24543  contract NFTMarket is ReentrancyGuard,MarketplaceStorage, Ownable {... */\ntag_14:\n  dataSize(sub_0)\n  dup1\n  dataOffset(sub_0)\n  0x00\n  codecopy\n  0x00\n  return\nstop\n\nsub_0: assembly {\n        /* \"contracts/Marketplace2/Marketplace.sol\":17204:24543  contract NFTMarket is ReentrancyGuard,MarketplaceStorage, Ownable {... */\n      mstore(0x40, 0x80)\n      jumpi(tag_1, lt(calldatasize, 0x04))\n      shr(0xe0, calldataload(0x00))\n      dup1\n      0x715018a6\n      gt\n      tag_26\n      jumpi\n      dup1\n      0xc45a0155\n      gt\n      tag_27\n      jumpi\n      dup1\n      0xc45a0155\n      eq\n      tag_20\n      jumpi\n      dup1\n      0xc7be7a49\n      eq\n      tag_21\n      jumpi\n      dup1\n      0xe0606dd8\n      eq\n      tag_22\n      jumpi\n      dup1\n      0xf2fde38b\n      eq\n      tag_23\n      jumpi\n      dup1\n      0xf55de0c7\n      eq\n      tag_24\n      jumpi\n      dup1\n      0xff68fa6e\n      eq\n      tag_25\n      jumpi\n      jump(tag_1)\n    tag_27:\n      dup1\n      0x715018a6\n      eq\n      tag_14\n      jumpi\n      dup1\n      0x85a8b36c\n      eq\n      tag_15\n      jumpi\n      dup1\n      0x8da5cb5b\n      eq\n      tag_16\n      jumpi\n      dup1\n      0xa1c11ca8\n      eq\n      tag_17\n      jumpi\n      dup1\n      0xad9a0369\n      eq\n      tag_18\n      jumpi\n      dup1\n      0xb7a60c7e\n      eq\n      tag_19\n      jumpi\n      jump(tag_1)\n    tag_26:\n      dup1\n      0x2b4c32be\n      gt\n      tag_28\n      jumpi\n      dup1\n      0x2b4c32be\n      eq\n      tag_8\n      jumpi\n      dup1\n      0x361c1995\n      eq\n      tag_9\n      jumpi\n      dup1\n      0x3fc15f15\n      eq\n      tag_10\n      jumpi\n      dup1\n      0x517bd451\n      eq\n      tag_11\n      jumpi\n      dup1\n      0x5bb47808\n      eq\n      tag_12\n      jumpi\n      dup1\n      0x5c80a435\n      eq\n      tag_13\n      jumpi\n      jump(tag_1)\n    tag_28:\n      dup1\n      0x0f08efe0\n      eq\n      tag_2\n      jumpi\n      dup1\n      0x15b12494\n      eq\n      tag_3\n      jumpi\n      dup1\n      0x16e7031a\n      eq\n      tag_4\n      jumpi\n      dup1\n      0x202e3740\n      eq\n      tag_5\n      jumpi\n      dup1\n      0x27ce464e\n      eq\n      tag_6\n      jumpi\n      dup1\n      0x2a45b250\n      eq\n      tag_7\n      jumpi\n    tag_1:\n      0x00\n      dup1\n      revert\n        /* \"contracts/Marketplace2/Marketplace.sol\":20167:20267  function fetchMarketItems() public view returns (MarketItem memory) {... */\n    tag_2:\n      callvalue\n      dup1\n      iszero\n      tag_29\n      jumpi\n      0x00\n      dup1\n      revert\n    tag_29:\n      pop\n      tag_30\n      tag_31\n      jump\t// in\n    tag_30:\n      mload(0x40)\n      tag_32\n      swap2\n      swap1\n      tag_33\n      jump\t// in\n    tag_32:\n      mload(0x40)\n      dup1\n      swap2\n      sub\n      swap1\n      return\n        /* \"contracts/Marketplace2/Marketplace.sol\":17902:18004  function setMainNFT(address _address) external onlyOwner {... */\n    tag_3:\n      callvalue\n      dup1\n      iszero\n      tag_34\n      jumpi\n      0x00\n      dup1\n      revert\n    tag_34:\n      pop\n      tag_35\n      0x04\n      dup1\n      calldatasize\n      sub\n      dup2\n      add\n      swap1\n      tag_36\n      swap2\n      swap1\n      tag_37\n      jump\t// in\n    tag_36:\n      tag_38\n      jump\t// in\n    tag_35:\n      stop\n        /* \"contracts/Marketplace2/Marketplace.sol\":18117:18290  function getAlalalalala(uint tokenId) public view returns (bool) { ... */\n    tag_4:\n      callvalue\n      dup1\n      iszero\n      tag_39\n      jumpi\n      0x00\n      dup1\n      revert\n    tag_39:\n      pop\n      tag_40\n      0x04\n      dup1\n      calldatasize\n      sub\n      dup2\n      add\n      swap1\n      tag_41\n      swap2\n      swap1\n      tag_42\n      jump\t// in\n    tag_41:\n      tag_43\n      jump\t// in\n    tag_40:\n      mload(0x40)\n      tag_44\n      swap2\n      swap1\n      tag_45\n      jump\t// in\n    tag_44:\n      mload(0x40)\n      dup1\n      swap2\n      sub\n      swap1\n      return\n        /* \"contracts/Marketplace2/Marketplace.sol\":20271:20974  function fetchMyNFTs() public view returns (MarketItem[] memory) {... */\n    tag_5:\n      callvalue\n      dup1\n      iszero\n      tag_46\n      jumpi\n      0x00\n      dup1\n      revert\n    tag_46:\n      pop\n      tag_47\n      tag_48\n      jump\t// in\n    tag_47:\n      mload(0x40)\n      tag_49\n      swap2\n      swap1\n      tag_50\n      jump\t// in\n    tag_49:\n      mload(0x40)\n      dup1\n      swap2\n      sub\n      swap1\n      return\n        /* \"contracts/Marketplace2/Marketplace.sol\":17793:17897  function setMainToken(address _address) external onlyOwner {... */\n    tag_6:\n      callvalue\n      dup1\n      iszero\n      tag_51\n      jumpi\n      0x00\n      dup1\n      revert\n    tag_51:\n      pop\n      tag_52\n      0x04\n      dup1\n      calldatasize\n      sub\n      dup2\n      add\n      swap1\n      tag_53\n      swap2\n      swap1\n      tag_37\n      jump\t// in\n    tag_53:\n      tag_54\n      jump\t// in\n    tag_52:\n      stop\n        /* \"contracts/Marketplace2/Marketplace.sol\":20010:20163  function fetchMarketItem(uint itemId) public view returns (MarketItem memory) {... */\n    tag_7:\n      callvalue\n      dup1\n      iszero\n      tag_55\n      jumpi\n      0x00\n      dup1\n      revert\n    tag_55:\n      pop\n      tag_56\n      0x04\n      dup1\n      calldatasize\n      sub\n      dup2\n      add\n      swap1\n      tag_57\n      swap2\n      swap1\n      tag_42\n      jump\t// in\n    tag_57:\n      tag_58\n      jump\t// in\n    tag_56:\n      mload(0x40)\n      tag_59\n      swap2\n      swap1\n      tag_33\n      jump\t// in\n    tag_59:\n      mload(0x40)\n      dup1\n      swap2\n      sub\n      swap1\n      return\n        /* \"contracts/Marketplace2/Marketplace.sol\":15910:15970  bytes4 public constant ERC721_Interface = bytes4(0x80ac58cd) */\n    tag_8:\n      callvalue\n      dup1\n      iszero\n      tag_60\n      jumpi\n      0x00\n      dup1\n      revert\n    tag_60:\n      pop\n      tag_61\n      tag_62\n      jump\t// in\n    tag_61:\n      mload(0x40)\n      tag_63\n      swap2\n      swap1\n      tag_64\n      jump\t// in\n    tag_63:\n      mload(0x40)\n      dup1\n      swap2\n      sub\n      swap1\n      return\n        /* \"contracts/Marketplace2/Marketplace.sol\":18294:19061  function createMarketItem(... */\n    tag_9:\n      tag_65\n      0x04\n      dup1\n      calldatasize\n      sub\n      dup2\n      add\n      swap1\n      tag_66\n      swap2\n      swap1\n      tag_67\n      jump\t// in\n    tag_66:\n      tag_68\n      jump\t// in\n    tag_65:\n      stop\n        /* \"contracts/Marketplace2/Marketplace.sol\":16171:16194  IERC20 public mainToken */\n    tag_10:\n      callvalue\n      dup1\n      iszero\n      tag_69\n      jumpi\n      0x00\n      dup1\n      revert\n    tag_69:\n      pop\n      tag_70\n      tag_71\n      jump\t// in\n    tag_70:\n      mload(0x40)\n      tag_72\n      swap2\n      swap1\n      tag_73\n      jump\t// in\n    tag_72:\n      mload(0x40)\n      dup1\n      swap2\n      sub\n      swap1\n      return\n        /* \"contracts/Marketplace2/Marketplace.sol\":15871:15903  MarketItem public allMarketItems */\n    tag_11:\n      callvalue\n      dup1\n      iszero\n      tag_74\n      jumpi\n      0x00\n      dup1\n      revert\n    tag_74:\n      pop\n      tag_75\n      tag_76\n      jump\t// in\n    tag_75:\n      mload(0x40)\n      tag_77\n      swap7\n      swap6\n      swap5\n      swap4\n      swap3\n      swap2\n      swap1\n      tag_78\n      jump\t// in\n    tag_77:\n      mload(0x40)\n      dup1\n      swap2\n      sub\n      swap1\n      return\n        /* \"contracts/Marketplace2/Marketplace.sol\":18009:18111  function setFactory(address _address) external onlyOwner {... */\n    tag_12:\n      callvalue\n      dup1\n      iszero\n      tag_79\n      jumpi\n      0x00\n      dup1\n      revert\n    tag_79:\n      pop\n      tag_80\n      0x04\n      dup1\n      calldatasize\n      sub\n      dup2\n      add\n      swap1\n      tag_81\n      swap2\n      swap1\n      tag_37\n      jump\t// in\n    tag_81:\n      tag_82\n      jump\t// in\n    tag_80:\n      stop\n        /* \"contracts/Marketplace2/Marketplace.sol\":16101:16164  mapping(address => mapping(uint256 => MarketItem)) public items */\n    tag_13:\n      callvalue\n      dup1\n      iszero\n      tag_83\n      jumpi\n      0x00\n      dup1\n      revert\n    tag_83:\n      pop\n      tag_84\n      0x04\n      dup1\n      calldatasize\n      sub\n      dup2\n      add\n      swap1\n      tag_85\n      swap2\n      swap1\n      tag_86\n      jump\t// in\n    tag_85:\n      tag_87\n      jump\t// in\n    tag_84:\n      mload(0x40)\n      tag_88\n      swap7\n      swap6\n      swap5\n      swap4\n      swap3\n      swap2\n      swap1\n      tag_78\n      jump\t// in\n    tag_88:\n      mload(0x40)\n      dup1\n      swap2\n      sub\n      swap1\n      return\n        /* \"contracts/Marketplace2/Marketplace.sol\":2308:2409  function renounceOwnership() public virtual onlyOwner {... */\n    tag_14:\n      callvalue\n      dup1\n      iszero\n      tag_89\n      jumpi\n      0x00\n      dup1\n      revert\n    tag_89:\n      pop\n      tag_90\n      tag_91\n      jump\t// in\n    tag_90:\n      stop\n        /* \"contracts/Marketplace2/Marketplace.sol\":16259:16285  uint8 public bnbFeePercent */\n    tag_15:\n      callvalue\n      dup1\n      iszero\n      tag_92\n      jumpi\n      0x00\n      dup1\n      revert\n    tag_92:\n      pop\n      tag_93\n      tag_94\n      jump\t// in\n    tag_93:\n      mload(0x40)\n      tag_95\n      swap2\n      swap1\n      tag_96\n      jump\t// in\n    tag_95:\n      mload(0x40)\n      dup1\n      swap2\n      sub\n      swap1\n      return\n        /* \"contracts/Marketplace2/Marketplace.sol\":1676:1761  function owner() public view virtual returns (address) {... */\n    tag_16:\n      callvalue\n      dup1\n      iszero\n      tag_97\n      jumpi\n      0x00\n      dup1\n      revert\n    tag_97:\n      pop\n      tag_98\n      tag_99\n      jump\t// in\n    tag_98:\n      mload(0x40)\n      tag_100\n      swap2\n      swap1\n      tag_101\n      jump\t// in\n    tag_100:\n      mload(0x40)\n      dup1\n      swap2\n      sub\n      swap1\n      return\n        /* \"contracts/Marketplace2/Marketplace.sol\":19243:20006  function createMarketSale(... */\n    tag_17:\n      callvalue\n      dup1\n      iszero\n      tag_102\n      jumpi\n      0x00\n      dup1\n      revert\n    tag_102:\n      pop\n      tag_103\n      0x04\n      dup1\n      calldatasize\n      sub\n      dup2\n      add\n      swap1\n      tag_104\n      swap2\n      swap1\n      tag_67\n      jump\t// in\n    tag_104:\n      tag_105\n      jump\t// in\n    tag_103:\n      stop\n        /* \"contracts/Marketplace2/Marketplace.sol\":20978:21871  function delistItem(address nftAddress, uint256 itemId) public {... */\n    tag_18:\n      callvalue\n      dup1\n      iszero\n      tag_106\n      jumpi\n      0x00\n      dup1\n      revert\n    tag_106:\n      pop\n      tag_107\n      0x04\n      dup1\n      calldatasize\n      sub\n      dup2\n      add\n      swap1\n      tag_108\n      swap2\n      swap1\n      tag_86\n      jump\t// in\n    tag_108:\n      tag_109\n      jump\t// in\n    tag_107:\n      stop\n        /* \"contracts/Marketplace2/Marketplace.sol\":16291:16318  uint8 public antaFeePercent */\n    tag_19:\n      callvalue\n      dup1\n      iszero\n      tag_110\n      jumpi\n      0x00\n      dup1\n      revert\n    tag_110:\n      pop\n      tag_111\n      tag_112\n      jump\t// in\n    tag_111:\n      mload(0x40)\n      tag_113\n      swap2\n      swap1\n      tag_96\n      jump\t// in\n    tag_113:\n      mload(0x40)\n      dup1\n      swap2\n      sub\n      swap1\n      return\n        /* \"contracts/Marketplace2/Marketplace.sol\":16200:16223  IFactory public factory */\n    tag_20:\n      callvalue\n      dup1\n      iszero\n      tag_114\n      jumpi\n      0x00\n      dup1\n      revert\n    tag_114:\n      pop\n      tag_115\n      tag_116\n      jump\t// in\n    tag_115:\n      mload(0x40)\n      tag_117\n      swap2\n      swap1\n      tag_118\n      jump\t// in\n    tag_117:\n      mload(0x40)\n      dup1\n      swap2\n      sub\n      swap1\n      return\n        /* \"contracts/Marketplace2/Marketplace.sol\":17650:17787  function getMarketItem(uint256 marketItemId) public view returns (MarketItem memory) {... */\n    tag_21:\n      callvalue\n      dup1\n      iszero\n      tag_119\n      jumpi\n      0x00\n      dup1\n      revert\n    tag_119:\n      pop\n      tag_120\n      0x04\n      dup1\n      calldatasize\n      sub\n      dup2\n      add\n      swap1\n      tag_121\n      swap2\n      swap1\n      tag_42\n      jump\t// in\n    tag_121:\n      tag_122\n      jump\t// in\n    tag_120:\n      mload(0x40)\n      tag_123\n      swap2\n      swap1\n      tag_33\n      jump\t// in\n    tag_123:\n      mload(0x40)\n      dup1\n      swap2\n      sub\n      swap1\n      return\n        /* \"contracts/Marketplace2/Marketplace.sol\":19067:19239  function testView(uint256 tokenId) public view returns (address) { ... */\n    tag_22:\n      callvalue\n      dup1\n      iszero\n      tag_124\n      jumpi\n      0x00\n      dup1\n      revert\n    tag_124:\n      pop\n      tag_125\n      0x04\n      dup1\n      calldatasize\n      sub\n      dup2\n      add\n      swap1\n      tag_126\n      swap2\n      swap1\n      tag_42\n      jump\t// in\n    tag_126:\n      tag_127\n      jump\t// in\n    tag_125:\n      mload(0x40)\n      tag_128\n      swap2\n      swap1\n      tag_101\n      jump\t// in\n    tag_128:\n      mload(0x40)\n      dup1\n      swap2\n      sub\n      swap1\n      return\n        /* \"contracts/Marketplace2/Marketplace.sol\":2558:2756  function transferOwnership(address newOwner) public virtual onlyOwner {... */\n    tag_23:\n      callvalue\n      dup1\n      iszero\n      tag_129\n      jumpi\n      0x00\n      dup1\n      revert\n    tag_129:\n      pop\n      tag_130\n      0x04\n      dup1\n      calldatasize\n      sub\n      dup2\n      add\n      swap1\n      tag_131\n      swap2\n      swap1\n      tag_37\n      jump\t// in\n    tag_131:\n      tag_132\n      jump\t// in\n    tag_130:\n      stop\n        /* \"contracts/Marketplace2/Marketplace.sol\":16229:16252  IERC721 public mainNFTs */\n    tag_24:\n      callvalue\n      dup1\n      iszero\n      tag_133\n      jumpi\n      0x00\n      dup1\n      revert\n    tag_133:\n      pop\n      tag_134\n      tag_135\n      jump\t// in\n    tag_134:\n      mload(0x40)\n      tag_136\n      swap2\n      swap1\n      tag_137\n      jump\t// in\n    tag_136:\n      mload(0x40)\n      dup1\n      swap2\n      sub\n      swap1\n      return\n        /* \"contracts/Marketplace2/Marketplace.sol\":15977:16024  mapping (uint256 => MarketItem) public allItems */\n    tag_25:\n      callvalue\n      dup1\n      iszero\n      tag_138\n      jumpi\n      0x00\n      dup1\n      revert\n    tag_138:\n      pop\n      tag_139\n      0x04\n      dup1\n      calldatasize\n      sub\n      dup2\n      add\n      swap1\n      tag_140\n      swap2\n      swap1\n      tag_42\n      jump\t// in\n    tag_140:\n      tag_141\n      jump\t// in\n    tag_139:\n      mload(0x40)\n      tag_142\n      swap7\n      swap6\n      swap5\n      swap4\n      swap3\n      swap2\n      swap1\n      tag_78\n      jump\t// in\n    tag_142:\n      mload(0x40)\n      dup1\n      swap2\n      sub\n      swap1\n      return\n        /* \"contracts/Marketplace2/Marketplace.sol\":20167:20267  function fetchMarketItems() public view returns (MarketItem memory) {... */\n    tag_31:\n        /* \"contracts/Marketplace2/Marketplace.sol\":20216:20233  MarketItem memory */\n      tag_143\n      tag_144\n      jump\t// in\n    tag_143:\n        /* \"contracts/Marketplace2/Marketplace.sol\":20248:20262  allMarketItems */\n      0x01\n        /* \"contracts/Marketplace2/Marketplace.sol\":20241:20262  return allMarketItems */\n      mload(0x40)\n      dup1\n      0xc0\n      add\n      0x40\n      mstore\n      swap1\n      dup2\n      0x00\n      dup3\n      add\n      sload\n      dup2\n      mstore\n      0x20\n      add\n      0x01\n      dup3\n      add\n      sload\n      dup2\n      mstore\n      0x20\n      add\n      0x02\n      dup3\n      add\n      0x00\n      swap1\n      sload\n      swap1\n      0x0100\n      exp\n      swap1\n      div\n      0xffffffffffffffffffffffffffffffffffffffff\n      and\n      0xffffffffffffffffffffffffffffffffffffffff\n      and\n      0xffffffffffffffffffffffffffffffffffffffff\n      and\n      dup2\n      mstore\n      0x20\n      add\n      0x03\n      dup3\n      add\n      0x00\n      swap1\n      sload\n      swap1\n      0x0100\n      exp\n      swap1\n      div\n      0xffffffffffffffffffffffffffffffffffffffff\n      and\n      0xffffffffffffffffffffffffffffffffffffffff\n      and\n      0xffffffffffffffffffffffffffffffffffffffff\n      and\n      dup2\n      mstore\n      0x20\n      add\n      0x04\n      dup3\n      add\n      sload\n      dup2\n      mstore\n      0x20\n      add\n      0x05\n      dup3\n      add\n      0x00\n      swap1\n      sload\n      swap1\n      0x0100\n      exp\n      swap1\n      div\n      0xff\n      and\n      0x01\n      dup2\n      gt\n      iszero\n      tag_146\n      jumpi\n      tag_147\n      tag_148\n      jump\t// in\n    tag_147:\n    tag_146:\n      0x01\n      dup2\n      gt\n      iszero\n      tag_149\n      jumpi\n      tag_150\n      tag_148\n      jump\t// in\n    tag_150:\n    tag_149:\n      dup2\n      mstore\n      pop\n      pop\n      swap1\n      pop\n        /* \"contracts/Marketplace2/Marketplace.sol\":20167:20267  function fetchMarketItems() public view returns (MarketItem memory) {... */\n      swap1\n      jump\t// out\n        /* \"contracts/Marketplace2/Marketplace.sol\":17902:18004  function setMainNFT(address _address) external onlyOwner {... */\n    tag_38:\n        /* \"contracts/Marketplace2/Marketplace.sol\":1899:1911  _msgSender() */\n      tag_152\n        /* \"contracts/Marketplace2/Marketplace.sol\":1899:1909  _msgSender */\n      tag_153\n        /* \"contracts/Marketplace2/Marketplace.sol\":1899:1911  _msgSender() */\n      jump\t// in\n    tag_152:\n        /* \"contracts/Marketplace2/Marketplace.sol\":1888:1911  owner() == _msgSender() */\n      0xffffffffffffffffffffffffffffffffffffffff\n      and\n        /* \"contracts/Marketplace2/Marketplace.sol\":1888:1895  owner() */\n      tag_154\n        /* \"contracts/Marketplace2/Marketplace.sol\":1888:1893  owner */\n      tag_99\n        /* \"contracts/Marketplace2/Marketplace.sol\":1888:1895  owner() */\n      jump\t// in\n    tag_154:\n        /* \"contracts/Marketplace2/Marketplace.sol\":1888:1911  owner() == _msgSender() */\n      0xffffffffffffffffffffffffffffffffffffffff\n      and\n      eq\n        /* \"contracts/Marketplace2/Marketplace.sol\":1880:1948  require(owner() == _msgSender(), \"Ownable: caller is not the owner\") */\n      tag_155\n      jumpi\n      mload(0x40)\n      0x08c379a000000000000000000000000000000000000000000000000000000000\n      dup2\n      mstore\n      0x04\n      add\n      tag_156\n      swap1\n      tag_157\n      jump\t// in\n    tag_156:\n      mload(0x40)\n      dup1\n      swap2\n      sub\n      swap1\n      revert\n    tag_155:\n        /* \"contracts/Marketplace2/Marketplace.sol\":17988:17996  _address */\n      dup1\n        /* \"contracts/Marketplace2/Marketplace.sol\":17969:17977  mainNFTs */\n      0x0b\n      0x00\n        /* \"contracts/Marketplace2/Marketplace.sol\":17969:17997  mainNFTs = IERC721(_address) */\n      0x0100\n      exp\n      dup2\n      sload\n      dup2\n      0xffffffffffffffffffffffffffffffffffffffff\n      mul\n      not\n      and\n      swap1\n      dup4\n      0xffffffffffffffffffffffffffffffffffffffff\n      and\n      mul\n      or\n      swap1\n      sstore\n      pop\n        /* \"contracts/Marketplace2/Marketplace.sol\":17902:18004  function setMainNFT(address _address) external onlyOwner {... */\n      pop\n      jump\t// out\n        /* \"contracts/Marketplace2/Marketplace.sol\":18117:18290  function getAlalalalala(uint tokenId) public view returns (bool) { ... */\n    tag_43:\n        /* \"contracts/Marketplace2/Marketplace.sol\":18176:18180  bool */\n      0x00\n        /* \"contracts/Marketplace2/Marketplace.sol\":18193:18225  IFactory.ingameItems memory item */\n      dup1\n        /* \"contracts/Marketplace2/Marketplace.sol\":18228:18235  factory */\n      0x0a\n      0x00\n      swap1\n      sload\n      swap1\n      0x0100\n      exp\n      swap1\n      div\n      0xffffffffffffffffffffffffffffffffffffffff\n      and\n        /* \"contracts/Marketplace2/Marketplace.sol\":18228:18246  factory.ingameItem */\n      0xffffffffffffffffffffffffffffffffffffffff\n      and\n      0xd30bdac9\n        /* \"contracts/Marketplace2/Marketplace.sol\":18247:18254  tokenId */\n      dup5\n        /* \"contracts/Marketplace2/Marketplace.sol\":18228:18255  factory.ingameItem(tokenId) */\n      mload(0x40)\n      dup3\n      0xffffffff\n      and\n      0xe0\n      shl\n      dup2\n      mstore\n      0x04\n      add\n      tag_160\n      swap2\n      swap1\n      tag_161\n      jump\t// in\n    tag_160:\n      0x00\n      mload(0x40)\n      dup1\n      dup4\n      sub\n      dup2\n      dup7\n      gas\n      staticcall\n      iszero\n      dup1\n      iszero\n      tag_163\n      jumpi\n      returndatasize\n      0x00\n      dup1\n      returndatacopy\n      revert(0x00, returndatasize)\n    tag_163:\n      pop\n      pop\n      pop\n      pop\n      mload(0x40)\n      returndatasize\n      0x00\n      dup3\n      returndatacopy\n      returndatasize\n      not(0x1f)\n      0x1f\n      dup3\n      add\n      and\n      dup3\n      add\n      dup1\n      0x40\n      mstore\n      pop\n      dup2\n      add\n      swap1\n      tag_164\n      swap2\n      swap1\n      tag_165\n      jump\t// in\n    tag_164:\n        /* \"contracts/Marketplace2/Marketplace.sol\":18193:18255  IFactory.ingameItems memory item = factory.ingameItem(tokenId) */\n      swap1\n      pop\n        /* \"contracts/Marketplace2/Marketplace.sol\":18272:18276  item */\n      dup1\n        /* \"contracts/Marketplace2/Marketplace.sol\":18272:18283  item.ingame */\n      0x80\n      add\n      mload\n        /* \"contracts/Marketplace2/Marketplace.sol\":18265:18283  return item.ingame */\n      swap2\n      pop\n      pop\n        /* \"contracts/Marketplace2/Marketplace.sol\":18117:18290  function getAlalalalala(uint tokenId) public view returns (bool) { ... */\n      swap2\n      swap1\n      pop\n      jump\t// out\n        /* \"contracts/Marketplace2/Marketplace.sol\":20271:20974  function fetchMyNFTs() public view returns (MarketItem[] memory) {... */\n    tag_48:\n        /* \"contracts/Marketplace2/Marketplace.sol\":20315:20334  MarketItem[] memory */\n      0x60\n        /* \"contracts/Marketplace2/Marketplace.sol\":20342:20361  uint totalItemCount */\n      0x00\n        /* \"contracts/Marketplace2/Marketplace.sol\":20364:20382  _itemIds.current() */\n      tag_167\n        /* \"contracts/Marketplace2/Marketplace.sol\":20364:20372  _itemIds */\n      0x0d\n        /* \"contracts/Marketplace2/Marketplace.sol\":20364:20380  _itemIds.current */\n      tag_168\n        /* \"contracts/Marketplace2/Marketplace.sol\":20364:20382  _itemIds.current() */\n      jump\t// in\n    tag_167:\n        /* \"contracts/Marketplace2/Marketplace.sol\":20342:20382  uint totalItemCount = _itemIds.current() */\n      swap1\n      pop\n        /* \"contracts/Marketplace2/Marketplace.sol\":20388:20402  uint itemCount */\n      0x00\n        /* \"contracts/Marketplace2/Marketplace.sol\":20412:20429  uint currentIndex */\n      dup1\n        /* \"contracts/Marketplace2/Marketplace.sol\":20445:20451  uint i */\n      0x00\n        /* \"contracts/Marketplace2/Marketplace.sol\":20440:20576  for (uint i = 0; i < totalItemCount; i++) {... */\n    tag_169:\n        /* \"contracts/Marketplace2/Marketplace.sol\":20461:20475  totalItemCount */\n      dup4\n        /* \"contracts/Marketplace2/Marketplace.sol\":20457:20458  i */\n      dup2\n        /* \"contracts/Marketplace2/Marketplace.sol\":20457:20475  i < totalItemCount */\n      lt\n        /* \"contracts/Marketplace2/Marketplace.sol\":20440:20576  for (uint i = 0; i < totalItemCount; i++) {... */\n      iszero\n      tag_170\n      jumpi\n        /* \"contracts/Marketplace2/Marketplace.sol\":20525:20535  msg.sender */\n      caller\n        /* \"contracts/Marketplace2/Marketplace.sol\":20494:20535  idToMarketItem[i + 1].owner == msg.sender */\n      0xffffffffffffffffffffffffffffffffffffffff\n      and\n        /* \"contracts/Marketplace2/Marketplace.sol\":20494:20508  idToMarketItem */\n      0x0f\n        /* \"contracts/Marketplace2/Marketplace.sol\":20494:20515  idToMarketItem[i + 1] */\n      0x00\n        /* \"contracts/Marketplace2/Marketplace.sol\":20513:20514  1 */\n      0x01\n        /* \"contracts/Marketplace2/Marketplace.sol\":20509:20510  i */\n      dup5\n        /* \"contracts/Marketplace2/Marketplace.sol\":20509:20514  i + 1 */\n      tag_172\n      swap2\n      swap1\n      tag_173\n      jump\t// in\n    tag_172:\n        /* \"contracts/Marketplace2/Marketplace.sol\":20494:20515  idToMarketItem[i + 1] */\n      dup2\n      mstore\n      0x20\n      add\n      swap1\n      dup2\n      mstore\n      0x20\n      add\n      0x00\n      keccak256\n        /* \"contracts/Marketplace2/Marketplace.sol\":20494:20521  idToMarketItem[i + 1].owner */\n      0x03\n      add\n      0x00\n      swap1\n      sload\n      swap1\n      0x0100\n      exp\n      swap1\n      div\n      0xffffffffffffffffffffffffffffffffffffffff\n      and\n        /* \"contracts/Marketplace2/Marketplace.sol\":20494:20535  idToMarketItem[i + 1].owner == msg.sender */\n      0xffffffffffffffffffffffffffffffffffffffff\n      and\n      sub\n        /* \"contracts/Marketplace2/Marketplace.sol\":20490:20570  if (idToMarketItem[i + 1].owner == msg.sender) {... */\n      tag_174\n      jumpi\n        /* \"contracts/Marketplace2/Marketplace.sol\":20560:20561  1 */\n      0x01\n        /* \"contracts/Marketplace2/Marketplace.sol\":20547:20561  itemCount += 1 */\n      dup4\n      tag_175\n      swap2\n      swap1\n      tag_173\n      jump\t// in\n    tag_175:\n      swap3\n      pop\n        /* \"contracts/Marketplace2/Marketplace.sol\":20490:20570  if (idToMarketItem[i + 1].owner == msg.sender) {... */\n    tag_174:\n        /* \"contracts/Marketplace2/Marketplace.sol\":20477:20480  i++ */\n      dup1\n      dup1\n      tag_176\n      swap1\n      tag_177\n      jump\t// in\n    tag_176:\n      swap2\n      pop\n      pop\n        /* \"contracts/Marketplace2/Marketplace.sol\":20440:20576  for (uint i = 0; i < totalItemCount; i++) {... */\n      jump(tag_169)\n    tag_170:\n      pop\n        /* \"contracts/Marketplace2/Marketplace.sol\":20582:20607  MarketItem[] memory items */\n      0x00\n        /* \"contracts/Marketplace2/Marketplace.sol\":20627:20636  itemCount */\n      dup3\n        /* \"contracts/Marketplace2/Marketplace.sol\":20610:20637  new MarketItem[](itemCount) */\n      0xffffffffffffffff\n      dup2\n      gt\n      iszero\n      tag_178\n      jumpi\n      tag_179\n      tag_180\n      jump\t// in\n    tag_179:\n    tag_178:\n      mload(0x40)\n      swap1\n      dup1\n      dup3\n      mstore\n      dup1\n      0x20\n      mul\n      0x20\n      add\n      dup3\n      add\n      0x40\n      mstore\n      dup1\n      iszero\n      tag_181\n      jumpi\n      dup2\n      0x20\n      add\n    tag_182:\n      tag_183\n      tag_144\n      jump\t// in\n    tag_183:\n      dup2\n      mstore\n      0x20\n      add\n      swap1\n      0x01\n      swap1\n      sub\n      swap1\n      dup2\n      tag_182\n      jumpi\n      swap1\n      pop\n    tag_181:\n      pop\n        /* \"contracts/Marketplace2/Marketplace.sol\":20582:20637  MarketItem[] memory items = new MarketItem[](itemCount) */\n      swap1\n      pop\n        /* \"contracts/Marketplace2/Marketplace.sol\":20648:20654  uint i */\n      0x00\n        /* \"contracts/Marketplace2/Marketplace.sol\":20643:20948  for (uint i = 0; i < totalItemCount; i++) {... */\n    tag_184:\n        /* \"contracts/Marketplace2/Marketplace.sol\":20664:20678  totalItemCount */\n      dup5\n        /* \"contracts/Marketplace2/Marketplace.sol\":20660:20661  i */\n      dup2\n        /* \"contracts/Marketplace2/Marketplace.sol\":20660:20678  i < totalItemCount */\n      lt\n        /* \"contracts/Marketplace2/Marketplace.sol\":20643:20948  for (uint i = 0; i < totalItemCount; i++) {... */\n      iszero\n      tag_185\n      jumpi\n        /* \"contracts/Marketplace2/Marketplace.sol\":20728:20738  msg.sender */\n      caller\n        /* \"contracts/Marketplace2/Marketplace.sol\":20697:20738  idToMarketItem[i + 1].owner == msg.sender */\n      0xffffffffffffffffffffffffffffffffffffffff\n      and\n        /* \"contracts/Marketplace2/Marketplace.sol\":20697:20711  idToMarketItem */\n      0x0f\n        /* \"contracts/Marketplace2/Marketplace.sol\":20697:20718  idToMarketItem[i + 1] */\n      0x00\n        /* \"contracts/Marketplace2/Marketplace.sol\":20716:20717  1 */\n      0x01\n        /* \"contracts/Marketplace2/Marketplace.sol\":20712:20713  i */\n      dup5\n        /* \"contracts/Marketplace2/Marketplace.sol\":20712:20717  i + 1 */\n      tag_187\n      swap2\n      swap1\n      tag_173\n      jump\t// in\n    tag_187:\n        /* \"contracts/Marketplace2/Marketplace.sol\":20697:20718  idToMarketItem[i + 1] */\n      dup2\n      mstore\n      0x20\n      add\n      swap1\n      dup2\n      mstore\n      0x20\n      add\n      0x00\n      keccak256\n        /* \"contracts/Marketplace2/Marketplace.sol\":20697:20724  idToMarketItem[i + 1].owner */\n      0x03\n      add\n      0x00\n      swap1\n      sload\n      swap1\n      0x0100\n      exp\n      swap1\n      div\n      0xffffffffffffffffffffffffffffffffffffffff\n      and\n        /* \"contracts/Marketplace2/Marketplace.sol\":20697:20738  idToMarketItem[i + 1].owner == msg.sender */\n      0xffffffffffffffffffffffffffffffffffffffff\n      and\n      sub\n        /* \"contracts/Marketplace2/Marketplace.sol\":20693:20942  if (idToMarketItem[i + 1].owner == msg.sender) {... */\n      tag_188\n      jumpi\n        /* \"contracts/Marketplace2/Marketplace.sol\":20750:20764  uint currentId */\n      0x00\n        /* \"contracts/Marketplace2/Marketplace.sol\":20767:20781  idToMarketItem */\n      0x0f\n        /* \"contracts/Marketplace2/Marketplace.sol\":20767:20788  idToMarketItem[i + 1] */\n      0x00\n        /* \"contracts/Marketplace2/Marketplace.sol\":20786:20787  1 */\n      0x01\n        /* \"contracts/Marketplace2/Marketplace.sol\":20782:20783  i */\n      dup5\n        /* \"contracts/Marketplace2/Marketplace.sol\":20782:20787  i + 1 */\n      tag_189\n      swap2\n      swap1\n      tag_173\n      jump\t// in\n    tag_189:\n        /* \"contracts/Marketplace2/Marketplace.sol\":20767:20788  idToMarketItem[i + 1] */\n      dup2\n      mstore\n      0x20\n      add\n      swap1\n      dup2\n      mstore\n      0x20\n      add\n      0x00\n      keccak256\n        /* \"contracts/Marketplace2/Marketplace.sol\":20767:20795  idToMarketItem[i + 1].itemId */\n      0x00\n      add\n      sload\n        /* \"contracts/Marketplace2/Marketplace.sol\":20750:20795  uint currentId = idToMarketItem[i + 1].itemId */\n      swap1\n      pop\n        /* \"contracts/Marketplace2/Marketplace.sol\":20805:20835  MarketItem storage currentItem */\n      0x00\n        /* \"contracts/Marketplace2/Marketplace.sol\":20838:20852  idToMarketItem */\n      0x0f\n        /* \"contracts/Marketplace2/Marketplace.sol\":20838:20863  idToMarketItem[currentId] */\n      0x00\n        /* \"contracts/Marketplace2/Marketplace.sol\":20853:20862  currentId */\n      dup4\n        /* \"contracts/Marketplace2/Marketplace.sol\":20838:20863  idToMarketItem[currentId] */\n      dup2\n      mstore\n      0x20\n      add\n      swap1\n      dup2\n      mstore\n      0x20\n      add\n      0x00\n      keccak256\n        /* \"contracts/Marketplace2/Marketplace.sol\":20805:20863  MarketItem storage currentItem = idToMarketItem[currentId] */\n      swap1\n      pop\n        /* \"contracts/Marketplace2/Marketplace.sol\":20895:20906  currentItem */\n      dup1\n        /* \"contracts/Marketplace2/Marketplace.sol\":20873:20906  items[currentIndex] = currentItem */\n      mload(0x40)\n      dup1\n      0xc0\n      add\n      0x40\n      mstore\n      swap1\n      dup2\n      0x00\n      dup3\n      add\n      sload\n      dup2\n      mstore\n      0x20\n      add\n      0x01\n      dup3\n      add\n      sload\n      dup2\n      mstore\n      0x20\n      add\n      0x02\n      dup3\n      add\n      0x00\n      swap1\n      sload\n      swap1\n      0x0100\n      exp\n      swap1\n      div\n      0xffffffffffffffffffffffffffffffffffffffff\n      and\n      0xffffffffffffffffffffffffffffffffffffffff\n      and\n      0xffffffffffffffffffffffffffffffffffffffff\n      and\n      dup2\n      mstore\n      0x20\n      add\n      0x03\n      dup3\n      add\n      0x00\n      swap1\n      sload\n      swap1\n      0x0100\n      exp\n      swap1\n      div\n      0xffffffffffffffffffffffffffffffffffffffff\n      and\n      0xffffffffffffffffffffffffffffffffffffffff\n      and\n      0xffffffffffffffffffffffffffffffffffffffff\n      and\n      dup2\n      mstore\n      0x20\n      add\n      0x04\n      dup3\n      add\n      sload\n      dup2\n      mstore\n      0x20\n      add\n      0x05\n      dup3\n      add\n      0x00\n      swap1\n      sload\n      swap1\n      0x0100\n      exp\n      swap1\n      div\n      0xff\n      and\n      0x01\n      dup2\n      gt\n      iszero\n      tag_190\n      jumpi\n      tag_191\n      tag_148\n      jump\t// in\n    tag_191:\n    tag_190:\n      0x01\n      dup2\n      gt\n      iszero\n      tag_192\n      jumpi\n      tag_193\n      tag_148\n      jump\t// in\n    tag_193:\n    tag_192:\n      dup2\n      mstore\n      pop\n      pop\n        /* \"contracts/Marketplace2/Marketplace.sol\":20873:20878  items */\n      dup5\n        /* \"contracts/Marketplace2/Marketplace.sol\":20879:20891  currentIndex */\n      dup7\n        /* \"contracts/Marketplace2/Marketplace.sol\":20873:20892  items[currentIndex] */\n      dup2\n      mload\n      dup2\n      lt\n      tag_194\n      jumpi\n      tag_195\n      tag_196\n      jump\t// in\n    tag_195:\n    tag_194:\n      0x20\n      mul\n      0x20\n      add\n      add\n        /* \"contracts/Marketplace2/Marketplace.sol\":20873:20906  items[currentIndex] = currentItem */\n      dup2\n      swap1\n      mstore\n      pop\n        /* \"contracts/Marketplace2/Marketplace.sol\":20932:20933  1 */\n      0x01\n        /* \"contracts/Marketplace2/Marketplace.sol\":20916:20933  currentIndex += 1 */\n      dup6\n      tag_197\n      swap2\n      swap1\n      tag_173\n      jump\t// in\n    tag_197:\n      swap5\n      pop\n        /* \"contracts/Marketplace2/Marketplace.sol\":20740:20942  {... */\n      pop\n      pop\n        /* \"contracts/Marketplace2/Marketplace.sol\":20693:20942  if (idToMarketItem[i + 1].owner == msg.sender) {... */\n    tag_188:\n        /* \"contracts/Marketplace2/Marketplace.sol\":20680:20683  i++ */\n      dup1\n      dup1\n      tag_198\n      swap1\n      tag_177\n      jump\t// in\n    tag_198:\n      swap2\n      pop\n      pop\n        /* \"contracts/Marketplace2/Marketplace.sol\":20643:20948  for (uint i = 0; i < totalItemCount; i++) {... */\n      jump(tag_184)\n    tag_185:\n      pop\n        /* \"contracts/Marketplace2/Marketplace.sol\":20964:20969  items */\n      dup1\n        /* \"contracts/Marketplace2/Marketplace.sol\":20957:20969  return items */\n      swap5\n      pop\n      pop\n      pop\n      pop\n      pop\n        /* \"contracts/Marketplace2/Marketplace.sol\":20271:20974  function fetchMyNFTs() public view returns (MarketItem[] memory) {... */\n      swap1\n      jump\t// out\n        /* \"contracts/Marketplace2/Marketplace.sol\":17793:17897  function setMainToken(address _address) external onlyOwner {... */\n    tag_54:\n        /* \"contracts/Marketplace2/Marketplace.sol\":1899:1911  _msgSender() */\n      tag_200\n        /* \"contracts/Marketplace2/Marketplace.sol\":1899:1909  _msgSender */\n      tag_153\n        /* \"contracts/Marketplace2/Marketplace.sol\":1899:1911  _msgSender() */\n      jump\t// in\n    tag_200:\n        /* \"contracts/Marketplace2/Marketplace.sol\":1888:1911  owner() == _msgSender() */\n      0xffffffffffffffffffffffffffffffffffffffff\n      and\n        /* \"contracts/Marketplace2/Marketplace.sol\":1888:1895  owner() */\n      tag_201\n        /* \"contracts/Marketplace2/Marketplace.sol\":1888:1893  owner */\n      tag_99\n        /* \"contracts/Marketplace2/Marketplace.sol\":1888:1895  owner() */\n      jump\t// in\n    tag_201:\n        /* \"contracts/Marketplace2/Marketplace.sol\":1888:1911  owner() == _msgSender() */\n      0xffffffffffffffffffffffffffffffffffffffff\n      and\n      eq\n        /* \"contracts/Marketplace2/Marketplace.sol\":1880:1948  require(owner() == _msgSender(), \"Ownable: caller is not the owner\") */\n      tag_202\n      jumpi\n      mload(0x40)\n      0x08c379a000000000000000000000000000000000000000000000000000000000\n      dup2\n      mstore\n      0x04\n      add\n      tag_203\n      swap1\n      tag_157\n      jump\t// in\n    tag_203:\n      mload(0x40)\n      dup1\n      swap2\n      sub\n      swap1\n      revert\n    tag_202:\n        /* \"contracts/Marketplace2/Marketplace.sol\":17881:17889  _address */\n      dup1\n        /* \"contracts/Marketplace2/Marketplace.sol\":17862:17871  mainToken */\n      0x09\n      0x00\n        /* \"contracts/Marketplace2/Marketplace.sol\":17862:17890  mainToken = IERC20(_address) */\n      0x0100\n      exp\n      dup2\n      sload\n      dup2\n      0xffffffffffffffffffffffffffffffffffffffff\n      mul\n      not\n      and\n      swap1\n      dup4\n      0xffffffffffffffffffffffffffffffffffffffff\n      and\n      mul\n      or\n      swap1\n      sstore\n      pop\n        /* \"contracts/Marketplace2/Marketplace.sol\":17793:17897  function setMainToken(address _address) external onlyOwner {... */\n      pop\n      jump\t// out\n        /* \"contracts/Marketplace2/Marketplace.sol\":20010:20163  function fetchMarketItem(uint itemId) public view returns (MarketItem memory) {... */\n    tag_58:\n        /* \"contracts/Marketplace2/Marketplace.sol\":20069:20086  MarketItem memory */\n      tag_205\n      tag_144\n      jump\t// in\n    tag_205:\n        /* \"contracts/Marketplace2/Marketplace.sol\":20094:20116  MarketItem memory item */\n      0x00\n        /* \"contracts/Marketplace2/Marketplace.sol\":20119:20133  idToMarketItem */\n      0x0f\n        /* \"contracts/Marketplace2/Marketplace.sol\":20119:20141  idToMarketItem[itemId] */\n      0x00\n        /* \"contracts/Marketplace2/Marketplace.sol\":20134:20140  itemId */\n      dup5\n        /* \"contracts/Marketplace2/Marketplace.sol\":20119:20141  idToMarketItem[itemId] */\n      dup2\n      mstore\n      0x20\n      add\n      swap1\n      dup2\n      mstore\n      0x20\n      add\n      0x00\n      keccak256\n        /* \"contracts/Marketplace2/Marketplace.sol\":20094:20141  MarketItem memory item = idToMarketItem[itemId] */\n      mload(0x40)\n      dup1\n      0xc0\n      add\n      0x40\n      mstore\n      swap1\n      dup2\n      0x00\n      dup3\n      add\n      sload\n      dup2\n      mstore\n      0x20\n      add\n      0x01\n      dup3\n      add\n      sload\n      dup2\n      mstore\n      0x20\n      add\n      0x02\n      dup3\n      add\n      0x00\n      swap1\n      sload\n      swap1\n      0x0100\n      exp\n      swap1\n      div\n      0xffffffffffffffffffffffffffffffffffffffff\n      and\n      0xffffffffffffffffffffffffffffffffffffffff\n      and\n      0xffffffffffffffffffffffffffffffffffffffff\n      and\n      dup2\n      mstore\n      0x20\n      add\n      0x03\n      dup3\n      add\n      0x00\n      swap1\n      sload\n      swap1\n      0x0100\n      exp\n      swap1\n      div\n      0xffffffffffffffffffffffffffffffffffffffff\n      and\n      0xffffffffffffffffffffffffffffffffffffffff\n      and\n      0xffffffffffffffffffffffffffffffffffffffff\n      and\n      dup2\n      mstore\n      0x20\n      add\n      0x04\n      dup3\n      add\n      sload\n      dup2\n      mstore\n      0x20\n      add\n      0x05\n      dup3\n      add\n      0x00\n      swap1\n      sload\n      swap1\n      0x0100\n      exp\n      swap1\n      div\n      0xff\n      and\n      0x01\n      dup2\n      gt\n      iszero\n      tag_207\n      jumpi\n      tag_208\n      tag_148\n      jump\t// in\n    tag_208:\n    tag_207:\n      0x01\n      dup2\n      gt\n      iszero\n      tag_209\n      jumpi\n      tag_210\n      tag_148\n      jump\t// in\n    tag_210:\n    tag_209:\n      dup2\n      mstore\n      pop\n      pop\n      swap1\n      pop\n        /* \"contracts/Marketplace2/Marketplace.sol\":20154:20158  item */\n      dup1\n        /* \"contracts/Marketplace2/Marketplace.sol\":20147:20158  return item */\n      swap2\n      pop\n      pop\n        /* \"contracts/Marketplace2/Marketplace.sol\":20010:20163  function fetchMarketItem(uint itemId) public view returns (MarketItem memory) {... */\n      swap2\n      swap1\n      pop\n      jump\t// out\n        /* \"contracts/Marketplace2/Marketplace.sol\":15910:15970  bytes4 public constant ERC721_Interface = bytes4(0x80ac58cd) */\n    tag_62:\n        /* \"contracts/Marketplace2/Marketplace.sol\":15959:15969  0x80ac58cd */\n      0x80ac58cd\n        /* \"contracts/Marketplace2/Marketplace.sol\":15952:15970  bytes4(0x80ac58cd) */\n      0xe0\n      shl\n        /* \"contracts/Marketplace2/Marketplace.sol\":15910:15970  bytes4 public constant ERC721_Interface = bytes4(0x80ac58cd) */\n      dup2\n      jump\t// out\n        /* \"contracts/Marketplace2/Marketplace.sol\":18294:19061  function createMarketItem(... */\n    tag_68:\n        /* \"contracts/Marketplace2/Marketplace.sol\":14165:14166  2 */\n      0x02\n        /* \"contracts/Marketplace2/Marketplace.sol\":14746:14753  _status */\n      sload(0x00)\n        /* \"contracts/Marketplace2/Marketplace.sol\":14746:14765  _status != _ENTERED */\n      sub\n        /* \"contracts/Marketplace2/Marketplace.sol\":14738:14801  require(_status != _ENTERED, \"ReentrancyGuard: reentrant call\") */\n      tag_212\n      jumpi\n      mload(0x40)\n      0x08c379a000000000000000000000000000000000000000000000000000000000\n      dup2\n      mstore\n      0x04\n      add\n      tag_213\n      swap1\n      tag_214\n      jump\t// in\n    tag_213:\n      mload(0x40)\n      dup1\n      swap2\n      sub\n      swap1\n      revert\n    tag_212:\n        /* \"contracts/Marketplace2/Marketplace.sol\":14165:14166  2 */\n      0x02\n        /* \"contracts/Marketplace2/Marketplace.sol\":14876:14883  _status */\n      0x00\n        /* \"contracts/Marketplace2/Marketplace.sol\":14876:14894  _status = _ENTERED */\n      dup2\n      swap1\n      sstore\n      pop\n        /* \"contracts/Marketplace2/Marketplace.sol\":18414:18415  0 */\n      0x00\n        /* \"contracts/Marketplace2/Marketplace.sol\":18406:18411  price */\n      dup2\n        /* \"contracts/Marketplace2/Marketplace.sol\":18406:18415  price > 0 */\n      gt\n        /* \"contracts/Marketplace2/Marketplace.sol\":18398:18448  require(price > 0, \"Price must be at least 1 wei\") */\n      tag_216\n      jumpi\n      mload(0x40)\n      0x08c379a000000000000000000000000000000000000000000000000000000000\n      dup2\n      mstore\n      0x04\n      add\n      tag_217\n      swap1\n      tag_218\n      jump\t// in\n    tag_217:\n      mload(0x40)\n      dup1\n      swap2\n      sub\n      swap1\n      revert\n    tag_216:\n        /* \"contracts/Marketplace2/Marketplace.sol\":18455:18487  IFactory.ingameItems memory item */\n      0x00\n        /* \"contracts/Marketplace2/Marketplace.sol\":18490:18497  factory */\n      0x0a\n      0x00\n      swap1\n      sload\n      swap1\n      0x0100\n      exp\n      swap1\n      div\n      0xffffffffffffffffffffffffffffffffffffffff\n      and\n        /* \"contracts/Marketplace2/Marketplace.sol\":18490:18508  factory.ingameItem */\n      0xffffffffffffffffffffffffffffffffffffffff\n      and\n      0xd30bdac9\n        /* \"contracts/Marketplace2/Marketplace.sol\":18509:18516  tokenId */\n      dup5\n        /* \"contracts/Marketplace2/Marketplace.sol\":18490:18517  factory.ingameItem(tokenId) */\n      mload(0x40)\n      dup3\n      0xffffffff\n      and\n      0xe0\n      shl\n      dup2\n      mstore\n      0x04\n      add\n      tag_219\n      swap2\n      swap1\n      tag_161\n      jump\t// in\n    tag_219:\n      0x00\n      mload(0x40)\n      dup1\n      dup4\n      sub\n      dup2\n      dup7\n      gas\n      staticcall\n      iszero\n      dup1\n      iszero\n      tag_221\n      jumpi\n      returndatasize\n      0x00\n      dup1\n      returndatacopy\n      revert(0x00, returndatasize)\n    tag_221:\n      pop\n      pop\n      pop\n      pop\n      mload(0x40)\n      returndatasize\n      0x00\n      dup3\n      returndatacopy\n      returndatasize\n      not(0x1f)\n      0x1f\n      dup3\n      add\n      and\n      dup3\n      add\n      dup1\n      0x40\n      mstore\n      pop\n      dup2\n      add\n      swap1\n      tag_222\n      swap2\n      swap1\n      tag_165\n      jump\t// in\n    tag_222:\n        /* \"contracts/Marketplace2/Marketplace.sol\":18455:18517  IFactory.ingameItems memory item = factory.ingameItem(tokenId) */\n      swap1\n      pop\n        /* \"contracts/Marketplace2/Marketplace.sol\":18546:18551  false */\n      0x00\n        /* \"contracts/Marketplace2/Marketplace.sol\":18531:18551  item.ingame == false */\n      iszero\n      iszero\n        /* \"contracts/Marketplace2/Marketplace.sol\":18531:18535  item */\n      dup2\n        /* \"contracts/Marketplace2/Marketplace.sol\":18531:18542  item.ingame */\n      0x80\n      add\n      mload\n        /* \"contracts/Marketplace2/Marketplace.sol\":18531:18551  item.ingame == false */\n      iszero\n      iszero\n      eq\n        /* \"contracts/Marketplace2/Marketplace.sol\":18523:18584  require(item.ingame == false, \"Item is not available now !\" ) */\n      tag_223\n      jumpi\n      mload(0x40)\n      0x08c379a000000000000000000000000000000000000000000000000000000000\n      dup2\n      mstore\n      0x04\n      add\n      tag_224\n      swap1\n      tag_225\n      jump\t// in\n    tag_224:\n      mload(0x40)\n      dup1\n      swap2\n      sub\n      swap1\n      revert\n    tag_223:\n        /* \"contracts/Marketplace2/Marketplace.sol\":18590:18610  _itemIds.increment() */\n      tag_226\n        /* \"contracts/Marketplace2/Marketplace.sol\":18590:18598  _itemIds */\n      0x0d\n        /* \"contracts/Marketplace2/Marketplace.sol\":18590:18608  _itemIds.increment */\n      tag_227\n        /* \"contracts/Marketplace2/Marketplace.sol\":18590:18610  _itemIds.increment() */\n      jump\t// in\n    tag_226:\n        /* \"contracts/Marketplace2/Marketplace.sol\":18616:18630  uint256 itemId */\n      0x00\n        /* \"contracts/Marketplace2/Marketplace.sol\":18633:18651  _itemIds.current() */\n      tag_228\n        /* \"contracts/Marketplace2/Marketplace.sol\":18633:18641  _itemIds */\n      0x0d\n        /* \"contracts/Marketplace2/Marketplace.sol\":18633:18649  _itemIds.current */\n      tag_168\n        /* \"contracts/Marketplace2/Marketplace.sol\":18633:18651  _itemIds.current() */\n      jump\t// in\n    tag_228:\n        /* \"contracts/Marketplace2/Marketplace.sol\":18616:18651  uint256 itemId = _itemIds.current() */\n      swap1\n      pop\n        /* \"contracts/Marketplace2/Marketplace.sol\":18688:18823  MarketItem(... */\n      mload(0x40)\n      dup1\n      0xc0\n      add\n      0x40\n      mstore\n      dup1\n        /* \"contracts/Marketplace2/Marketplace.sol\":18706:18712  itemId */\n      dup3\n        /* \"contracts/Marketplace2/Marketplace.sol\":18688:18823  MarketItem(... */\n      dup2\n      mstore\n      0x20\n      add\n        /* \"contracts/Marketplace2/Marketplace.sol\":18720:18727  tokenId */\n      dup6\n        /* \"contracts/Marketplace2/Marketplace.sol\":18688:18823  MarketItem(... */\n      dup2\n      mstore\n      0x20\n      add\n        /* \"contracts/Marketplace2/Marketplace.sol\":18743:18753  msg.sender */\n      caller\n        /* \"contracts/Marketplace2/Marketplace.sol\":18688:18823  MarketItem(... */\n      0xffffffffffffffffffffffffffffffffffffffff\n      and\n      dup2\n      mstore\n      0x20\n      add\n        /* \"contracts/Marketplace2/Marketplace.sol\":18778:18779  0 */\n      0x00\n        /* \"contracts/Marketplace2/Marketplace.sol\":18688:18823  MarketItem(... */\n      0xffffffffffffffffffffffffffffffffffffffff\n      and\n      dup2\n      mstore\n      0x20\n      add\n        /* \"contracts/Marketplace2/Marketplace.sol\":18789:18794  price */\n      dup5\n        /* \"contracts/Marketplace2/Marketplace.sol\":18688:18823  MarketItem(... */\n      dup2\n      mstore\n      0x20\n      add\n        /* \"contracts/Marketplace2/Marketplace.sol\":18802:18817  ItemStatus.LIST */\n      0x01\n        /* \"contracts/Marketplace2/Marketplace.sol\":18688:18823  MarketItem(... */\n      dup1\n      dup2\n      gt\n      iszero\n      tag_229\n      jumpi\n      tag_230\n      tag_148\n      jump\t// in\n    tag_230:\n    tag_229:\n      dup2\n      mstore\n      pop\n        /* \"contracts/Marketplace2/Marketplace.sol\":18662:18676  idToMarketItem */\n      0x0f\n        /* \"contracts/Marketplace2/Marketplace.sol\":18662:18684  idToMarketItem[itemId] */\n      0x00\n        /* \"contracts/Marketplace2/Marketplace.sol\":18677:18683  itemId */\n      dup4\n        /* \"contracts/Marketplace2/Marketplace.sol\":18662:18684  idToMarketItem[itemId] */\n      dup2\n      mstore\n      0x20\n      add\n      swap1\n      dup2\n      mstore\n      0x20\n      add\n      0x00\n      keccak256\n        /* \"contracts/Marketplace2/Marketplace.sol\":18662:18823  idToMarketItem[itemId] =  MarketItem(... */\n      0x00\n      dup3\n      add\n      mload\n      dup2\n      0x00\n      add\n      sstore\n      0x20\n      dup3\n      add\n      mload\n      dup2\n      0x01\n      add\n      sstore\n      0x40\n      dup3\n      add\n      mload\n      dup2\n      0x02\n      add\n      exp(0x0100, 0x00)\n      dup2\n      sload\n      dup2\n      0xffffffffffffffffffffffffffffffffffffffff\n      mul\n      not\n      and\n      swap1\n      dup4\n      0xffffffffffffffffffffffffffffffffffffffff\n      and\n      mul\n      or\n      swap1\n      sstore\n      pop\n      0x60\n      dup3\n      add\n      mload\n      dup2\n      0x03\n      add\n      exp(0x0100, 0x00)\n      dup2\n      sload\n      dup2\n      0xffffffffffffffffffffffffffffffffffffffff\n      mul\n      not\n      and\n      swap1\n      dup4\n      0xffffffffffffffffffffffffffffffffffffffff\n      and\n      mul\n      or\n      swap1\n      sstore\n      pop\n      0x80\n      dup3\n      add\n      mload\n      dup2\n      0x04\n      add\n      sstore\n      0xa0\n      dup3\n      add\n      mload\n      dup2\n      0x05\n      add\n      exp(0x0100, 0x00)\n      dup2\n      sload\n      dup2\n      0xff\n      mul\n      not\n      and\n      swap1\n      dup4\n      0x01\n      dup2\n      gt\n      iszero\n      tag_231\n      jumpi\n      tag_232\n      tag_148\n      jump\t// in\n    tag_232:\n    tag_231:\n      mul\n      or\n      swap1\n      sstore\n      pop\n      swap1\n      pop\n      pop\n        /* \"contracts/Marketplace2/Marketplace.sol\":18830:18838  mainNFTs */\n      0x0b\n      0x00\n      swap1\n      sload\n      swap1\n      0x0100\n      exp\n      swap1\n      div\n      0xffffffffffffffffffffffffffffffffffffffff\n      and\n        /* \"contracts/Marketplace2/Marketplace.sol\":18830:18851  mainNFTs.transferFrom */\n      0xffffffffffffffffffffffffffffffffffffffff\n      and\n      0x23b872dd\n        /* \"contracts/Marketplace2/Marketplace.sol\":18852:18862  msg.sender */\n      caller\n        /* \"contracts/Marketplace2/Marketplace.sol\":18872:18876  this */\n      address\n        /* \"contracts/Marketplace2/Marketplace.sol\":18879:18886  tokenId */\n      dup8\n        /* \"contracts/Marketplace2/Marketplace.sol\":18830:18887  mainNFTs.transferFrom(msg.sender, address(this), tokenId) */\n      mload(0x40)\n      dup5\n      0xffffffff\n      and\n      0xe0\n      shl\n      dup2\n      mstore\n      0x04\n      add\n      tag_233\n      swap4\n      swap3\n      swap2\n      swap1\n      tag_234\n      jump\t// in\n    tag_233:\n      0x00\n      mload(0x40)\n      dup1\n      dup4\n      sub\n      dup2\n      0x00\n      dup8\n      dup1\n      extcodesize\n      iszero\n      dup1\n      iszero\n      tag_235\n      jumpi\n      0x00\n      dup1\n      revert\n    tag_235:\n      pop\n      gas\n      call\n      iszero\n      dup1\n      iszero\n      tag_237\n      jumpi\n      returndatasize\n      0x00\n      dup1\n      returndatacopy\n      revert(0x00, returndatasize)\n    tag_237:\n      pop\n      pop\n      pop\n      pop\n        /* \"contracts/Marketplace2/Marketplace.sol\":18893:18900  factory */\n      0x0a\n      0x00\n      swap1\n      sload\n      swap1\n      0x0100\n      exp\n      swap1\n      div\n      0xffffffffffffffffffffffffffffffffffffffff\n      and\n        /* \"contracts/Marketplace2/Marketplace.sol\":18893:18919  factory.setOwnerIngameItem */\n      0xffffffffffffffffffffffffffffffffffffffff\n      and\n      0x443b8cb7\n        /* \"contracts/Marketplace2/Marketplace.sol\":18928:18932  this */\n      address\n        /* \"contracts/Marketplace2/Marketplace.sol\":18935:18942  tokenId */\n      dup7\n        /* \"contracts/Marketplace2/Marketplace.sol\":18893:18943  factory.setOwnerIngameItem(address(this), tokenId) */\n      mload(0x40)\n      dup4\n      0xffffffff\n      and\n      0xe0\n      shl\n      dup2\n      mstore\n      0x04\n      add\n      tag_238\n      swap3\n      swap2\n      swap1\n      tag_239\n      jump\t// in\n    tag_238:\n      0x00\n      mload(0x40)\n      dup1\n      dup4\n      sub\n      dup2\n      0x00\n      dup8\n      dup1\n      extcodesize\n      iszero\n      dup1\n      iszero\n      tag_240\n      jumpi\n      0x00\n      dup1\n      revert\n    tag_240:\n      pop\n      gas\n      call\n      iszero\n      dup1\n      iszero\n      tag_242\n      jumpi\n      returndatasize\n      0x00\n      dup1\n      returndatacopy\n      revert(0x00, returndatasize)\n    tag_242:\n      pop\n      pop\n      pop\n      pop\n        /* \"contracts/Marketplace2/Marketplace.sol\":18994:19001  tokenId */\n      dup4\n        /* \"contracts/Marketplace2/Marketplace.sol\":18980:18986  itemId */\n      dup2\n        /* \"contracts/Marketplace2/Marketplace.sol\":18955:19056  MarketItemCreated(... */\n      0x38690a554ffbc44eb6a75016e47d517d0db8e6c37494adc68d6d0b2c66f0ab21\n        /* \"contracts/Marketplace2/Marketplace.sol\":19009:19019  msg.sender */\n      caller\n        /* \"contracts/Marketplace2/Marketplace.sol\":19035:19036  0 */\n      0x00\n        /* \"contracts/Marketplace2/Marketplace.sol\":19045:19050  price */\n      dup8\n        /* \"contracts/Marketplace2/Marketplace.sol\":18955:19056  MarketItemCreated(... */\n      mload(0x40)\n      tag_243\n      swap4\n      swap3\n      swap2\n      swap1\n      tag_234\n      jump\t// in\n    tag_243:\n      mload(0x40)\n      dup1\n      swap2\n      sub\n      swap1\n      log3\n        /* \"contracts/Marketplace2/Marketplace.sol\":18392:19061  {... */\n      pop\n      pop\n        /* \"contracts/Marketplace2/Marketplace.sol\":14122:14123  1 */\n      0x01\n        /* \"contracts/Marketplace2/Marketplace.sol\":15049:15056  _status */\n      0x00\n        /* \"contracts/Marketplace2/Marketplace.sol\":15049:15071  _status = _NOT_ENTERED */\n      dup2\n      swap1\n      sstore\n      pop\n        /* \"contracts/Marketplace2/Marketplace.sol\":18294:19061  function createMarketItem(... */\n      pop\n      pop\n      jump\t// out\n        /* \"contracts/Marketplace2/Marketplace.sol\":16171:16194  IERC20 public mainToken */\n    tag_71:\n      0x09\n      0x00\n      swap1\n      sload\n      swap1\n      0x0100\n      exp\n      swap1\n      div\n      0xffffffffffffffffffffffffffffffffffffffff\n      and\n      dup2\n      jump\t// out\n        /* \"contracts/Marketplace2/Marketplace.sol\":15871:15903  MarketItem public allMarketItems */\n    tag_76:\n      0x01\n      dup1\n      0x00\n      add\n      sload\n      swap1\n      dup1\n      0x01\n      add\n      sload\n      swap1\n      dup1\n      0x02\n      add\n      0x00\n      swap1\n      sload\n      swap1\n      0x0100\n      exp\n      swap1\n      div\n      0xffffffffffffffffffffffffffffffffffffffff\n      and\n      swap1\n      dup1\n      0x03\n      add\n      0x00\n      swap1\n      sload\n      swap1\n      0x0100\n      exp\n      swap1\n      div\n      0xffffffffffffffffffffffffffffffffffffffff\n      and\n      swap1\n      dup1\n      0x04\n      add\n      sload\n      swap1\n      dup1\n      0x05\n      add\n      0x00\n      swap1\n      sload\n      swap1\n      0x0100\n      exp\n      swap1\n      div\n      0xff\n      and\n      swap1\n      pop\n      dup7\n      jump\t// out\n        /* \"contracts/Marketplace2/Marketplace.sol\":18009:18111  function setFactory(address _address) external onlyOwner {... */\n    tag_82:\n        /* \"contracts/Marketplace2/Marketplace.sol\":1899:1911  _msgSender() */\n      tag_245\n        /* \"contracts/Marketplace2/Marketplace.sol\":1899:1909  _msgSender */\n      tag_153\n        /* \"contracts/Marketplace2/Marketplace.sol\":1899:1911  _msgSender() */\n      jump\t// in\n    tag_245:\n        /* \"contracts/Marketplace2/Marketplace.sol\":1888:1911  owner() == _msgSender() */\n      0xffffffffffffffffffffffffffffffffffffffff\n      and\n        /* \"contracts/Marketplace2/Marketplace.sol\":1888:1895  owner() */\n      tag_246\n        /* \"contracts/Marketplace2/Marketplace.sol\":1888:1893  owner */\n      tag_99\n        /* \"contracts/Marketplace2/Marketplace.sol\":1888:1895  owner() */\n      jump\t// in\n    tag_246:\n        /* \"contracts/Marketplace2/Marketplace.sol\":1888:1911  owner() == _msgSender() */\n      0xffffffffffffffffffffffffffffffffffffffff\n      and\n      eq\n        /* \"contracts/Marketplace2/Marketplace.sol\":1880:1948  require(owner() == _msgSender(), \"Ownable: caller is not the owner\") */\n      tag_247\n      jumpi\n      mload(0x40)\n      0x08c379a000000000000000000000000000000000000000000000000000000000\n      dup2\n      mstore\n      0x04\n      add\n      tag_248\n      swap1\n      tag_157\n      jump\t// in\n    tag_248:\n      mload(0x40)\n      dup1\n      swap2\n      sub\n      swap1\n      revert\n    tag_247:\n        /* \"contracts/Marketplace2/Marketplace.sol\":18095:18103  _address */\n      dup1\n        /* \"contracts/Marketplace2/Marketplace.sol\":18076:18083  factory */\n      0x0a\n      0x00\n        /* \"contracts/Marketplace2/Marketplace.sol\":18076:18104  factory = IFactory(_address) */\n      0x0100\n      exp\n      dup2\n      sload\n      dup2\n      0xffffffffffffffffffffffffffffffffffffffff\n      mul\n      not\n      and\n      swap1\n      dup4\n      0xffffffffffffffffffffffffffffffffffffffff\n      and\n      mul\n      or\n      swap1\n      sstore\n      pop\n        /* \"contracts/Marketplace2/Marketplace.sol\":18009:18111  function setFactory(address _address) external onlyOwner {... */\n      pop\n      jump\t// out\n        /* \"contracts/Marketplace2/Marketplace.sol\":16101:16164  mapping(address => mapping(uint256 => MarketItem)) public items */\n    tag_87:\n      mstore(0x20, 0x08)\n      dup2\n      0x00\n      mstore\n      mstore(0x20, keccak256(0x00, 0x40))\n      dup1\n      0x00\n      mstore\n      keccak256(0x00, 0x40)\n      0x00\n      swap2\n      pop\n      swap2\n      pop\n      pop\n      dup1\n      0x00\n      add\n      sload\n      swap1\n      dup1\n      0x01\n      add\n      sload\n      swap1\n      dup1\n      0x02\n      add\n      0x00\n      swap1\n      sload\n      swap1\n      0x0100\n      exp\n      swap1\n      div\n      0xffffffffffffffffffffffffffffffffffffffff\n      and\n      swap1\n      dup1\n      0x03\n      add\n      0x00\n      swap1\n      sload\n      swap1\n      0x0100\n      exp\n      swap1\n      div\n      0xffffffffffffffffffffffffffffffffffffffff\n      and\n      swap1\n      dup1\n      0x04\n      add\n      sload\n      swap1\n      dup1\n      0x05\n      add\n      0x00\n      swap1\n      sload\n      swap1\n      0x0100\n      exp\n      swap1\n      div\n      0xff\n      and\n      swap1\n      pop\n      dup7\n      jump\t// out\n        /* \"contracts/Marketplace2/Marketplace.sol\":2308:2409  function renounceOwnership() public virtual onlyOwner {... */\n    tag_91:\n        /* \"contracts/Marketplace2/Marketplace.sol\":1899:1911  _msgSender() */\n      tag_251\n        /* \"contracts/Marketplace2/Marketplace.sol\":1899:1909  _msgSender */\n      tag_153\n        /* \"contracts/Marketplace2/Marketplace.sol\":1899:1911  _msgSender() */\n      jump\t// in\n    tag_251:\n        /* \"contracts/Marketplace2/Marketplace.sol\":1888:1911  owner() == _msgSender() */\n      0xffffffffffffffffffffffffffffffffffffffff\n      and\n        /* \"contracts/Marketplace2/Marketplace.sol\":1888:1895  owner() */\n      tag_252\n        /* \"contracts/Marketplace2/Marketplace.sol\":1888:1893  owner */\n      tag_99\n        /* \"contracts/Marketplace2/Marketplace.sol\":1888:1895  owner() */\n      jump\t// in\n    tag_252:\n        /* \"contracts/Marketplace2/Marketplace.sol\":1888:1911  owner() == _msgSender() */\n      0xffffffffffffffffffffffffffffffffffffffff\n      and\n      eq\n        /* \"contracts/Marketplace2/Marketplace.sol\":1880:1948  require(owner() == _msgSender(), \"Ownable: caller is not the owner\") */\n      tag_253\n      jumpi\n      mload(0x40)\n      0x08c379a000000000000000000000000000000000000000000000000000000000\n      dup2\n      mstore\n      0x04\n      add\n      tag_254\n      swap1\n      tag_157\n      jump\t// in\n    tag_254:\n      mload(0x40)\n      dup1\n      swap2\n      sub\n      swap1\n      revert\n    tag_253:\n        /* \"contracts/Marketplace2/Marketplace.sol\":2372:2402  _transferOwnership(address(0)) */\n      tag_256\n        /* \"contracts/Marketplace2/Marketplace.sol\":2399:2400  0 */\n      0x00\n        /* \"contracts/Marketplace2/Marketplace.sol\":2372:2390  _transferOwnership */\n      tag_257\n        /* \"contracts/Marketplace2/Marketplace.sol\":2372:2402  _transferOwnership(address(0)) */\n      jump\t// in\n    tag_256:\n        /* \"contracts/Marketplace2/Marketplace.sol\":2308:2409  function renounceOwnership() public virtual onlyOwner {... */\n      jump\t// out\n        /* \"contracts/Marketplace2/Marketplace.sol\":16259:16285  uint8 public bnbFeePercent */\n    tag_94:\n      0x0b\n      0x14\n      swap1\n      sload\n      swap1\n      0x0100\n      exp\n      swap1\n      div\n      0xff\n      and\n      dup2\n      jump\t// out\n        /* \"contracts/Marketplace2/Marketplace.sol\":1676:1761  function owner() public view virtual returns (address) {... */\n    tag_99:\n        /* \"contracts/Marketplace2/Marketplace.sol\":1722:1729  address */\n      0x00\n        /* \"contracts/Marketplace2/Marketplace.sol\":1748:1754  _owner */\n      0x0c\n      0x00\n      swap1\n      sload\n      swap1\n      0x0100\n      exp\n      swap1\n      div\n      0xffffffffffffffffffffffffffffffffffffffff\n      and\n        /* \"contracts/Marketplace2/Marketplace.sol\":1741:1754  return _owner */\n      swap1\n      pop\n        /* \"contracts/Marketplace2/Marketplace.sol\":1676:1761  function owner() public view virtual returns (address) {... */\n      swap1\n      jump\t// out\n        /* \"contracts/Marketplace2/Marketplace.sol\":19243:20006  function createMarketSale(... */\n    tag_105:\n        /* \"contracts/Marketplace2/Marketplace.sol\":14165:14166  2 */\n      0x02\n        /* \"contracts/Marketplace2/Marketplace.sol\":14746:14753  _status */\n      sload(0x00)\n        /* \"contracts/Marketplace2/Marketplace.sol\":14746:14765  _status != _ENTERED */\n      sub\n        /* \"contracts/Marketplace2/Marketplace.sol\":14738:14801  require(_status != _ENTERED, \"ReentrancyGuard: reentrant call\") */\n      tag_260\n      jumpi\n      mload(0x40)\n      0x08c379a000000000000000000000000000000000000000000000000000000000\n      dup2\n      mstore\n      0x04\n      add\n      tag_261\n      swap1\n      tag_214\n      jump\t// in\n    tag_261:\n      mload(0x40)\n      dup1\n      swap2\n      sub\n      swap1\n      revert\n    tag_260:\n        /* \"contracts/Marketplace2/Marketplace.sol\":14165:14166  2 */\n      0x02\n        /* \"contracts/Marketplace2/Marketplace.sol\":14876:14883  _status */\n      0x00\n        /* \"contracts/Marketplace2/Marketplace.sol\":14876:14894  _status = _ENTERED */\n      dup2\n      swap1\n      sstore\n      pop\n        /* \"contracts/Marketplace2/Marketplace.sol\":19341:19351  uint price */\n      0x00\n        /* \"contracts/Marketplace2/Marketplace.sol\":19354:19368  idToMarketItem */\n      0x0f\n        /* \"contracts/Marketplace2/Marketplace.sol\":19354:19376  idToMarketItem[itemId] */\n      0x00\n        /* \"contracts/Marketplace2/Marketplace.sol\":19369:19375  itemId */\n      dup5\n        /* \"contracts/Marketplace2/Marketplace.sol\":19354:19376  idToMarketItem[itemId] */\n      dup2\n      mstore\n      0x20\n      add\n      swap1\n      dup2\n      mstore\n      0x20\n      add\n      0x00\n      keccak256\n        /* \"contracts/Marketplace2/Marketplace.sol\":19354:19382  idToMarketItem[itemId].price */\n      0x04\n      add\n      sload\n        /* \"contracts/Marketplace2/Marketplace.sol\":19341:19382  uint price = idToMarketItem[itemId].price */\n      swap1\n      pop\n        /* \"contracts/Marketplace2/Marketplace.sol\":19388:19400  uint tokenId */\n      0x00\n        /* \"contracts/Marketplace2/Marketplace.sol\":19403:19417  idToMarketItem */\n      0x0f\n        /* \"contracts/Marketplace2/Marketplace.sol\":19403:19425  idToMarketItem[itemId] */\n      0x00\n        /* \"contracts/Marketplace2/Marketplace.sol\":19418:19424  itemId */\n      dup6\n        /* \"contracts/Marketplace2/Marketplace.sol\":19403:19425  idToMarketItem[itemId] */\n      dup2\n      mstore\n      0x20\n      add\n      swap1\n      dup2\n      mstore\n      0x20\n      add\n      0x00\n      keccak256\n        /* \"contracts/Marketplace2/Marketplace.sol\":19403:19433  idToMarketItem[itemId].tokenId */\n      0x01\n      add\n      sload\n        /* \"contracts/Marketplace2/Marketplace.sol\":19388:19433  uint tokenId = idToMarketItem[itemId].tokenId */\n      swap1\n      pop\n        /* \"contracts/Marketplace2/Marketplace.sol\":19457:19462  price */\n      dup2\n        /* \"contracts/Marketplace2/Marketplace.sol\":19447:19453  amount */\n      dup4\n        /* \"contracts/Marketplace2/Marketplace.sol\":19447:19462  amount == price */\n      eq\n        /* \"contracts/Marketplace2/Marketplace.sol\":19439:19531  require(amount == price, \"Please submit the asking price in order to complete the purchase\") */\n      tag_263\n      jumpi\n      mload(0x40)\n      0x08c379a000000000000000000000000000000000000000000000000000000000\n      dup2\n      mstore\n      0x04\n      add\n      tag_264\n      swap1\n      tag_265\n      jump\t// in\n    tag_264:\n      mload(0x40)\n      dup1\n      swap2\n      sub\n      swap1\n      revert\n    tag_263:\n        /* \"contracts/Marketplace2/Marketplace.sol\":19596:19605  mainToken */\n      0x09\n      0x00\n      swap1\n      sload\n      swap1\n      0x0100\n      exp\n      swap1\n      div\n      0xffffffffffffffffffffffffffffffffffffffff\n      and\n        /* \"contracts/Marketplace2/Marketplace.sol\":19596:19618  mainToken.transferFrom */\n      0xffffffffffffffffffffffffffffffffffffffff\n      and\n      0x23b872dd\n        /* \"contracts/Marketplace2/Marketplace.sol\":19619:19629  msg.sender */\n      caller\n        /* \"contracts/Marketplace2/Marketplace.sol\":19631:19645  idToMarketItem */\n      0x0f\n        /* \"contracts/Marketplace2/Marketplace.sol\":19631:19653  idToMarketItem[itemId] */\n      0x00\n        /* \"contracts/Marketplace2/Marketplace.sol\":19646:19652  itemId */\n      dup9\n        /* \"contracts/Marketplace2/Marketplace.sol\":19631:19653  idToMarketItem[itemId] */\n      dup2\n      mstore\n      0x20\n      add\n      swap1\n      dup2\n      mstore\n      0x20\n      add\n      0x00\n      keccak256\n        /* \"contracts/Marketplace2/Marketplace.sol\":19631:19660  idToMarketItem[itemId].seller */\n      0x02\n      add\n      0x00\n      swap1\n      sload\n      swap1\n      0x0100\n      exp\n      swap1\n      div\n      0xffffffffffffffffffffffffffffffffffffffff\n      and\n        /* \"contracts/Marketplace2/Marketplace.sol\":19663:19669  amount */\n      dup7\n        /* \"contracts/Marketplace2/Marketplace.sol\":19596:19670  mainToken.transferFrom(msg.sender, idToMarketItem[itemId].seller , amount) */\n      mload(0x40)\n      dup5\n      0xffffffff\n      and\n      0xe0\n      shl\n      dup2\n      mstore\n      0x04\n      add\n      tag_266\n      swap4\n      swap3\n      swap2\n      swap1\n      tag_267\n      jump\t// in\n    tag_266:\n      0x20\n      mload(0x40)\n      dup1\n      dup4\n      sub\n      dup2\n      0x00\n      dup8\n      gas\n      call\n      iszero\n      dup1\n      iszero\n      tag_269\n      jumpi\n      returndatasize\n      0x00\n      dup1\n      returndatacopy\n      revert(0x00, returndatasize)\n    tag_269:\n      pop\n      pop\n      pop\n      pop\n      mload(0x40)\n      returndatasize\n      not(0x1f)\n      0x1f\n      dup3\n      add\n      and\n      dup3\n      add\n      dup1\n      0x40\n      mstore\n      pop\n      dup2\n      add\n      swap1\n      tag_270\n      swap2\n      swap1\n      tag_271\n      jump\t// in\n    tag_270:\n      pop\n        /* \"contracts/Marketplace2/Marketplace.sol\":19676:19684  mainNFTs */\n      0x0b\n      0x00\n      swap1\n      sload\n      swap1\n      0x0100\n      exp\n      swap1\n      div\n      0xffffffffffffffffffffffffffffffffffffffff\n      and\n        /* \"contracts/Marketplace2/Marketplace.sol\":19676:19697  mainNFTs.transferFrom */\n      0xffffffffffffffffffffffffffffffffffffffff\n      and\n      0x23b872dd\n        /* \"contracts/Marketplace2/Marketplace.sol\":19706:19710  this */\n      address\n        /* \"contracts/Marketplace2/Marketplace.sol\":19713:19723  msg.sender */\n      caller\n        /* \"contracts/Marketplace2/Marketplace.sol\":19725:19732  tokenId */\n      dup5\n        /* \"contracts/Marketplace2/Marketplace.sol\":19676:19733  mainNFTs.transferFrom(address(this), msg.sender, tokenId) */\n      mload(0x40)\n      dup5\n      0xffffffff\n      and\n      0xe0\n      shl\n      dup2\n      mstore\n      0x04\n      add\n      tag_272\n      swap4\n      swap3\n      swap2\n      swap1\n      tag_234\n      jump\t// in\n    tag_272:\n      0x00\n      mload(0x40)\n      dup1\n      dup4\n      sub\n      dup2\n      0x00\n      dup8\n      dup1\n      extcodesize\n      iszero\n      dup1\n      iszero\n      tag_273\n      jumpi\n      0x00\n      dup1\n      revert\n    tag_273:\n      pop\n      gas\n      call\n      iszero\n      dup1\n      iszero\n      tag_275\n      jumpi\n      returndatasize\n      0x00\n      dup1\n      returndatacopy\n      revert(0x00, returndatasize)\n    tag_275:\n      pop\n      pop\n      pop\n      pop\n        /* \"contracts/Marketplace2/Marketplace.sol\":19778:19788  msg.sender */\n      caller\n        /* \"contracts/Marketplace2/Marketplace.sol\":19739:19753  idToMarketItem */\n      0x0f\n        /* \"contracts/Marketplace2/Marketplace.sol\":19739:19761  idToMarketItem[itemId] */\n      0x00\n        /* \"contracts/Marketplace2/Marketplace.sol\":19754:19760  itemId */\n      dup7\n        /* \"contracts/Marketplace2/Marketplace.sol\":19739:19761  idToMarketItem[itemId] */\n      dup2\n      mstore\n      0x20\n      add\n      swap1\n      dup2\n      mstore\n      0x20\n      add\n      0x00\n      keccak256\n        /* \"contracts/Marketplace2/Marketplace.sol\":19739:19767  idToMarketItem[itemId].owner */\n      0x03\n      add\n      0x00\n        /* \"contracts/Marketplace2/Marketplace.sol\":19739:19789  idToMarketItem[itemId].owner = payable(msg.sender) */\n      0x0100\n      exp\n      dup2\n      sload\n      dup2\n      0xffffffffffffffffffffffffffffffffffffffff\n      mul\n      not\n      and\n      swap1\n      dup4\n      0xffffffffffffffffffffffffffffffffffffffff\n      and\n      mul\n      or\n      swap1\n      sstore\n      pop\n        /* \"contracts/Marketplace2/Marketplace.sol\":19827:19844  ItemStatus.MINTED */\n      0x00\n        /* \"contracts/Marketplace2/Marketplace.sol\":19795:19809  idToMarketItem */\n      0x0f\n        /* \"contracts/Marketplace2/Marketplace.sol\":19795:19817  idToMarketItem[itemId] */\n      0x00\n        /* \"contracts/Marketplace2/Marketplace.sol\":19810:19816  itemId */\n      dup7\n        /* \"contracts/Marketplace2/Marketplace.sol\":19795:19817  idToMarketItem[itemId] */\n      dup2\n      mstore\n      0x20\n      add\n      swap1\n      dup2\n      mstore\n      0x20\n      add\n      0x00\n      keccak256\n        /* \"contracts/Marketplace2/Marketplace.sol\":19795:19824  idToMarketItem[itemId].status */\n      0x05\n      add\n      0x00\n        /* \"contracts/Marketplace2/Marketplace.sol\":19795:19844  idToMarketItem[itemId].status = ItemStatus.MINTED */\n      0x0100\n      exp\n      dup2\n      sload\n      dup2\n      0xff\n      mul\n      not\n      and\n      swap1\n      dup4\n      0x01\n      dup2\n      gt\n      iszero\n      tag_276\n      jumpi\n      tag_277\n      tag_148\n      jump\t// in\n    tag_277:\n    tag_276:\n      mul\n      or\n      swap1\n      sstore\n      pop\n        /* \"contracts/Marketplace2/Marketplace.sol\":19851:19858  factory */\n      0x0a\n      0x00\n      swap1\n      sload\n      swap1\n      0x0100\n      exp\n      swap1\n      div\n      0xffffffffffffffffffffffffffffffffffffffff\n      and\n        /* \"contracts/Marketplace2/Marketplace.sol\":19851:19877  factory.setOwnerIngameItem */\n      0xffffffffffffffffffffffffffffffffffffffff\n      and\n      0x443b8cb7\n        /* \"contracts/Marketplace2/Marketplace.sol\":19886:19890  this */\n      address\n        /* \"contracts/Marketplace2/Marketplace.sol\":19893:19900  tokenId */\n      dup4\n        /* \"contracts/Marketplace2/Marketplace.sol\":19851:19901  factory.setOwnerIngameItem(address(this), tokenId) */\n      mload(0x40)\n      dup4\n      0xffffffff\n      and\n      0xe0\n      shl\n      dup2\n      mstore\n      0x04\n      add\n      tag_278\n      swap3\n      swap2\n      swap1\n      tag_239\n      jump\t// in\n    tag_278:\n      0x00\n      mload(0x40)\n      dup1\n      dup4\n      sub\n      dup2\n      0x00\n      dup8\n      dup1\n      extcodesize\n      iszero\n      dup1\n      iszero\n      tag_279\n      jumpi\n      0x00\n      dup1\n      revert\n    tag_279:\n      pop\n      gas\n      call\n      iszero\n      dup1\n      iszero\n      tag_281\n      jumpi\n      returndatasize\n      0x00\n      dup1\n      returndatacopy\n      revert(0x00, returndatasize)\n    tag_281:\n      pop\n      pop\n      pop\n      pop\n        /* \"contracts/Marketplace2/Marketplace.sol\":19979:20001  _itemsSold.increment() */\n      tag_282\n        /* \"contracts/Marketplace2/Marketplace.sol\":19979:19989  _itemsSold */\n      0x0e\n        /* \"contracts/Marketplace2/Marketplace.sol\":19979:19999  _itemsSold.increment */\n      tag_227\n        /* \"contracts/Marketplace2/Marketplace.sol\":19979:20001  _itemsSold.increment() */\n      jump\t// in\n    tag_282:\n        /* \"contracts/Marketplace2/Marketplace.sol\":19335:20006  {... */\n      pop\n      pop\n        /* \"contracts/Marketplace2/Marketplace.sol\":14122:14123  1 */\n      0x01\n        /* \"contracts/Marketplace2/Marketplace.sol\":15049:15056  _status */\n      0x00\n        /* \"contracts/Marketplace2/Marketplace.sol\":15049:15071  _status = _NOT_ENTERED */\n      dup2\n      swap1\n      sstore\n      pop\n        /* \"contracts/Marketplace2/Marketplace.sol\":19243:20006  function createMarketSale(... */\n      pop\n      pop\n      jump\t// out\n        /* \"contracts/Marketplace2/Marketplace.sol\":20978:21871  function delistItem(address nftAddress, uint256 itemId) public {... */\n    tag_109:\n        /* \"contracts/Marketplace2/Marketplace.sol\":21051:21077  _requireERC721(nftAddress) */\n      tag_284\n        /* \"contracts/Marketplace2/Marketplace.sol\":21066:21076  nftAddress */\n      dup3\n        /* \"contracts/Marketplace2/Marketplace.sol\":21051:21065  _requireERC721 */\n      tag_285\n        /* \"contracts/Marketplace2/Marketplace.sol\":21051:21077  _requireERC721(nftAddress) */\n      jump\t// in\n    tag_284:\n        /* \"contracts/Marketplace2/Marketplace.sol\":21088:21104  address deleteBy */\n      0x00\n        /* \"contracts/Marketplace2/Marketplace.sol\":21107:21117  msg.sender */\n      caller\n        /* \"contracts/Marketplace2/Marketplace.sol\":21088:21117  address deleteBy = msg.sender */\n      swap1\n      pop\n        /* \"contracts/Marketplace2/Marketplace.sol\":21127:21149  MarketItem memory item */\n      0x00\n        /* \"contracts/Marketplace2/Marketplace.sol\":21152:21166  idToMarketItem */\n      0x0f\n        /* \"contracts/Marketplace2/Marketplace.sol\":21152:21174  idToMarketItem[itemId] */\n      0x00\n        /* \"contracts/Marketplace2/Marketplace.sol\":21167:21173  itemId */\n      dup5\n        /* \"contracts/Marketplace2/Marketplace.sol\":21152:21174  idToMarketItem[itemId] */\n      dup2\n      mstore\n      0x20\n      add\n      swap1\n      dup2\n      mstore\n      0x20\n      add\n      0x00\n      keccak256\n        /* \"contracts/Marketplace2/Marketplace.sol\":21127:21174  MarketItem memory item = idToMarketItem[itemId] */\n      mload(0x40)\n      dup1\n      0xc0\n      add\n      0x40\n      mstore\n      swap1\n      dup2\n      0x00\n      dup3\n      add\n      sload\n      dup2\n      mstore\n      0x20\n      add\n      0x01\n      dup3\n      add\n      sload\n      dup2\n      mstore\n      0x20\n      add\n      0x02\n      dup3\n      add\n      0x00\n      swap1\n      sload\n      swap1\n      0x0100\n      exp\n      swap1\n      div\n      0xffffffffffffffffffffffffffffffffffffffff\n      and\n      0xffffffffffffffffffffffffffffffffffffffff\n      and\n      0xffffffffffffffffffffffffffffffffffffffff\n      and\n      dup2\n      mstore\n      0x20\n      add\n      0x03\n      dup3\n      add\n      0x00\n      swap1\n      sload\n      swap1\n      0x0100\n      exp\n      swap1\n      div\n      0xffffffffffffffffffffffffffffffffffffffff\n      and\n      0xffffffffffffffffffffffffffffffffffffffff\n      and\n      0xffffffffffffffffffffffffffffffffffffffff\n      and\n      dup2\n      mstore\n      0x20\n      add\n      0x04\n      dup3\n      add\n      sload\n      dup2\n      mstore\n      0x20\n      add\n      0x05\n      dup3\n      add\n      0x00\n      swap1\n      sload\n      swap1\n      0x0100\n      exp\n      swap1\n      div\n      0xff\n      and\n      0x01\n      dup2\n      gt\n      iszero\n      tag_286\n      jumpi\n      tag_287\n      tag_148\n      jump\t// in\n    tag_287:\n    tag_286:\n      0x01\n      dup2\n      gt\n      iszero\n      tag_288\n      jumpi\n      tag_289\n      tag_148\n      jump\t// in\n    tag_289:\n    tag_288:\n      dup2\n      mstore\n      pop\n      pop\n      swap1\n      pop\n        /* \"contracts/Marketplace2/Marketplace.sol\":21209:21210  0 */\n      0x00\n        /* \"contracts/Marketplace2/Marketplace.sol\":21194:21198  item */\n      dup2\n        /* \"contracts/Marketplace2/Marketplace.sol\":21194:21205  item.itemId */\n      0x00\n      add\n      mload\n        /* \"contracts/Marketplace2/Marketplace.sol\":21194:21210  item.itemId != 0 */\n      sub\n        /* \"contracts/Marketplace2/Marketplace.sol\":21186:21234  require(item.itemId != 0, \"Asset not published\") */\n      tag_290\n      jumpi\n      mload(0x40)\n      0x08c379a000000000000000000000000000000000000000000000000000000000\n      dup2\n      mstore\n      0x04\n      add\n      tag_291\n      swap1\n      tag_292\n      jump\t// in\n    tag_291:\n      mload(0x40)\n      dup1\n      swap2\n      sub\n      swap1\n      revert\n    tag_290:\n        /* \"contracts/Marketplace2/Marketplace.sol\":21267:21284  ItemStatus.MINTED */\n      0x00\n        /* \"contracts/Marketplace2/Marketplace.sol\":21252:21284  item.status != ItemStatus.MINTED */\n      0x01\n      dup2\n      gt\n      iszero\n      tag_293\n      jumpi\n      tag_294\n      tag_148\n      jump\t// in\n    tag_294:\n    tag_293:\n        /* \"contracts/Marketplace2/Marketplace.sol\":21252:21256  item */\n      dup2\n        /* \"contracts/Marketplace2/Marketplace.sol\":21252:21263  item.status */\n      0xa0\n      add\n      mload\n        /* \"contracts/Marketplace2/Marketplace.sol\":21252:21284  item.status != ItemStatus.MINTED */\n      0x01\n      dup2\n      gt\n      iszero\n      tag_295\n      jumpi\n      tag_296\n      tag_148\n      jump\t// in\n    tag_296:\n    tag_295:\n      sub\n        /* \"contracts/Marketplace2/Marketplace.sol\":21244:21303  require(item.status != ItemStatus.MINTED, \"Asset delisted\") */\n      tag_297\n      jumpi\n      mload(0x40)\n      0x08c379a000000000000000000000000000000000000000000000000000000000\n      dup2\n      mstore\n      0x04\n      add\n      tag_298\n      swap1\n      tag_299\n      jump\t// in\n    tag_298:\n      mload(0x40)\n      dup1\n      swap2\n      sub\n      swap1\n      revert\n    tag_297:\n        /* \"contracts/Marketplace2/Marketplace.sol\":21314:21328  address seller */\n      0x00\n        /* \"contracts/Marketplace2/Marketplace.sol\":21331:21335  item */\n      dup2\n        /* \"contracts/Marketplace2/Marketplace.sol\":21331:21342  item.seller */\n      0x40\n      add\n      mload\n        /* \"contracts/Marketplace2/Marketplace.sol\":21314:21342  address seller = item.seller */\n      swap1\n      pop\n        /* \"contracts/Marketplace2/Marketplace.sol\":21378:21379  0 */\n      0x00\n        /* \"contracts/Marketplace2/Marketplace.sol\":21360:21380  seller != address(0) */\n      0xffffffffffffffffffffffffffffffffffffffff\n      and\n        /* \"contracts/Marketplace2/Marketplace.sol\":21360:21366  seller */\n      dup2\n        /* \"contracts/Marketplace2/Marketplace.sol\":21360:21380  seller != address(0) */\n      0xffffffffffffffffffffffffffffffffffffffff\n      and\n      sub\n        /* \"contracts/Marketplace2/Marketplace.sol\":21352:21400  require(seller != address(0), \"Invalid address\") */\n      tag_300\n      jumpi\n      mload(0x40)\n      0x08c379a000000000000000000000000000000000000000000000000000000000\n      dup2\n      mstore\n      0x04\n      add\n      tag_301\n      swap1\n      tag_302\n      jump\t// in\n    tag_301:\n      mload(0x40)\n      dup1\n      swap2\n      sub\n      swap1\n      revert\n    tag_300:\n        /* \"contracts/Marketplace2/Marketplace.sol\":21441:21451  msg.sender */\n      caller\n        /* \"contracts/Marketplace2/Marketplace.sol\":21431:21451  seller == msg.sender */\n      0xffffffffffffffffffffffffffffffffffffffff\n      and\n        /* \"contracts/Marketplace2/Marketplace.sol\":21431:21437  seller */\n      dup2\n        /* \"contracts/Marketplace2/Marketplace.sol\":21431:21451  seller == msg.sender */\n      0xffffffffffffffffffffffffffffffffffffffff\n      and\n      eq\n        /* \"contracts/Marketplace2/Marketplace.sol\":21410:21499  require(... */\n      tag_303\n      jumpi\n      mload(0x40)\n      0x08c379a000000000000000000000000000000000000000000000000000000000\n      dup2\n      mstore\n      0x04\n      add\n      tag_304\n      swap1\n      tag_305\n      jump\t// in\n    tag_304:\n      mload(0x40)\n      dup1\n      swap2\n      sub\n      swap1\n      revert\n    tag_303:\n        /* \"contracts/Marketplace2/Marketplace.sol\":21509:21528  IERC721 nftRegistry */\n      0x00\n        /* \"contracts/Marketplace2/Marketplace.sol\":21539:21549  nftAddress */\n      dup6\n        /* \"contracts/Marketplace2/Marketplace.sol\":21509:21550  IERC721 nftRegistry = IERC721(nftAddress) */\n      swap1\n      pop\n        /* \"contracts/Marketplace2/Marketplace.sol\":21560:21571  nftRegistry */\n      dup1\n        /* \"contracts/Marketplace2/Marketplace.sol\":21560:21588  nftRegistry.safeTransferFrom */\n      0xffffffffffffffffffffffffffffffffffffffff\n      and\n      0x42842e0e\n        /* \"contracts/Marketplace2/Marketplace.sol\":21597:21601  this */\n      address\n        /* \"contracts/Marketplace2/Marketplace.sol\":21604:21610  seller */\n      dup5\n        /* \"contracts/Marketplace2/Marketplace.sol\":21612:21618  itemId */\n      dup9\n        /* \"contracts/Marketplace2/Marketplace.sol\":21560:21619  nftRegistry.safeTransferFrom(address(this), seller, itemId) */\n      mload(0x40)\n      dup5\n      0xffffffff\n      and\n      0xe0\n      shl\n      dup2\n      mstore\n      0x04\n      add\n      tag_306\n      swap4\n      swap3\n      swap2\n      swap1\n      tag_234\n      jump\t// in\n    tag_306:\n      0x00\n      mload(0x40)\n      dup1\n      dup4\n      sub\n      dup2\n      0x00\n      dup8\n      dup1\n      extcodesize\n      iszero\n      dup1\n      iszero\n      tag_307\n      jumpi\n      0x00\n      dup1\n      revert\n    tag_307:\n      pop\n      gas\n      call\n      iszero\n      dup1\n      iszero\n      tag_309\n      jumpi\n      returndatasize\n      0x00\n      dup1\n      returndatacopy\n      revert(0x00, returndatasize)\n    tag_309:\n      pop\n      pop\n      pop\n      pop\n        /* \"contracts/Marketplace2/Marketplace.sol\":21643:21660  ItemStatus.MINTED */\n      0x00\n        /* \"contracts/Marketplace2/Marketplace.sol\":21629:21633  item */\n      dup4\n        /* \"contracts/Marketplace2/Marketplace.sol\":21629:21640  item.status */\n      0xa0\n      add\n        /* \"contracts/Marketplace2/Marketplace.sol\":21629:21660  item.status = ItemStatus.MINTED */\n      swap1\n      0x01\n      dup2\n      gt\n      iszero\n      tag_310\n      jumpi\n      tag_311\n      tag_148\n      jump\t// in\n    tag_311:\n    tag_310:\n      swap1\n      dup2\n      0x01\n      dup2\n      gt\n      iszero\n      tag_312\n      jumpi\n      tag_313\n      tag_148\n      jump\t// in\n    tag_313:\n    tag_312:\n      dup2\n      mstore\n      pop\n      pop\n        /* \"contracts/Marketplace2/Marketplace.sol\":21677:21691  idToMarketItem */\n      0x0f\n        /* \"contracts/Marketplace2/Marketplace.sol\":21677:21699  idToMarketItem[itemId] */\n      0x00\n        /* \"contracts/Marketplace2/Marketplace.sol\":21692:21698  itemId */\n      dup7\n        /* \"contracts/Marketplace2/Marketplace.sol\":21677:21699  idToMarketItem[itemId] */\n      dup2\n      mstore\n      0x20\n      add\n      swap1\n      dup2\n      mstore\n      0x20\n      add\n      0x00\n      keccak256\n      0x00\n        /* \"contracts/Marketplace2/Marketplace.sol\":21670:21699  delete idToMarketItem[itemId] */\n      dup1\n      dup3\n      add\n      0x00\n      swap1\n      sstore\n      0x01\n      dup3\n      add\n      0x00\n      swap1\n      sstore\n      0x02\n      dup3\n      add\n      exp(0x0100, 0x00)\n      dup2\n      sload\n      swap1\n      0xffffffffffffffffffffffffffffffffffffffff\n      mul\n      not\n      and\n      swap1\n      sstore\n      0x03\n      dup3\n      add\n      exp(0x0100, 0x00)\n      dup2\n      sload\n      swap1\n      0xffffffffffffffffffffffffffffffffffffffff\n      mul\n      not\n      and\n      swap1\n      sstore\n      0x04\n      dup3\n      add\n      0x00\n      swap1\n      sstore\n      0x05\n      dup3\n      add\n      exp(0x0100, 0x00)\n      dup2\n      sload\n      swap1\n      0xff\n      mul\n      not\n      and\n      swap1\n      sstore\n      pop\n      pop\n        /* \"contracts/Marketplace2/Marketplace.sol\":21817:21825  deleteBy */\n      dup4\n        /* \"contracts/Marketplace2/Marketplace.sol\":21714:21864  DelistItemSuccessful(... */\n      0xffffffffffffffffffffffffffffffffffffffff\n      and\n        /* \"contracts/Marketplace2/Marketplace.sol\":21797:21803  itemId */\n      dup6\n        /* \"contracts/Marketplace2/Marketplace.sol\":21714:21864  DelistItemSuccessful(... */\n      0xc141ecc59e1a451ee7d3128743c8ca3174955ce97262896269482d5f84b39a85\n        /* \"contracts/Marketplace2/Marketplace.sol\":21748:21758  nftAddress */\n      dup9\n        /* \"contracts/Marketplace2/Marketplace.sol\":21772:21776  item */\n      dup7\n        /* \"contracts/Marketplace2/Marketplace.sol\":21772:21783  item.itemId */\n      0x00\n      add\n      mload\n        /* \"contracts/Marketplace2/Marketplace.sol\":21839:21854  block.timestamp */\n      timestamp\n        /* \"contracts/Marketplace2/Marketplace.sol\":21714:21864  DelistItemSuccessful(... */\n      mload(0x40)\n      tag_314\n      swap4\n      swap3\n      swap2\n      swap1\n      tag_315\n      jump\t// in\n    tag_314:\n      mload(0x40)\n      dup1\n      swap2\n      sub\n      swap1\n      log3\n        /* \"contracts/Marketplace2/Marketplace.sol\":21041:21871  {... */\n      pop\n      pop\n      pop\n      pop\n        /* \"contracts/Marketplace2/Marketplace.sol\":20978:21871  function delistItem(address nftAddress, uint256 itemId) public {... */\n      pop\n      pop\n      jump\t// out\n        /* \"contracts/Marketplace2/Marketplace.sol\":16291:16318  uint8 public antaFeePercent */\n    tag_112:\n      0x0b\n      0x15\n      swap1\n      sload\n      swap1\n      0x0100\n      exp\n      swap1\n      div\n      0xff\n      and\n      dup2\n      jump\t// out\n        /* \"contracts/Marketplace2/Marketplace.sol\":16200:16223  IFactory public factory */\n    tag_116:\n      0x0a\n      0x00\n      swap1\n      sload\n      swap1\n      0x0100\n      exp\n      swap1\n      div\n      0xffffffffffffffffffffffffffffffffffffffff\n      and\n      dup2\n      jump\t// out\n        /* \"contracts/Marketplace2/Marketplace.sol\":17650:17787  function getMarketItem(uint256 marketItemId) public view returns (MarketItem memory) {... */\n    tag_122:\n        /* \"contracts/Marketplace2/Marketplace.sol\":17716:17733  MarketItem memory */\n      tag_316\n      tag_144\n      jump\t// in\n    tag_316:\n        /* \"contracts/Marketplace2/Marketplace.sol\":17752:17766  idToMarketItem */\n      0x0f\n        /* \"contracts/Marketplace2/Marketplace.sol\":17752:17780  idToMarketItem[marketItemId] */\n      0x00\n        /* \"contracts/Marketplace2/Marketplace.sol\":17767:17779  marketItemId */\n      dup4\n        /* \"contracts/Marketplace2/Marketplace.sol\":17752:17780  idToMarketItem[marketItemId] */\n      dup2\n      mstore\n      0x20\n      add\n      swap1\n      dup2\n      mstore\n      0x20\n      add\n      0x00\n      keccak256\n        /* \"contracts/Marketplace2/Marketplace.sol\":17745:17780  return idToMarketItem[marketItemId] */\n      mload(0x40)\n      dup1\n      0xc0\n      add\n      0x40\n      mstore\n      swap1\n      dup2\n      0x00\n      dup3\n      add\n      sload\n      dup2\n      mstore\n      0x20\n      add\n      0x01\n      dup3\n      add\n      sload\n      dup2\n      mstore\n      0x20\n      add\n      0x02\n      dup3\n      add\n      0x00\n      swap1\n      sload\n      swap1\n      0x0100\n      exp\n      swap1\n      div\n      0xffffffffffffffffffffffffffffffffffffffff\n      and\n      0xffffffffffffffffffffffffffffffffffffffff\n      and\n      0xffffffffffffffffffffffffffffffffffffffff\n      and\n      dup2\n      mstore\n      0x20\n      add\n      0x03\n      dup3\n      add\n      0x00\n      swap1\n      sload\n      swap1\n      0x0100\n      exp\n      swap1\n      div\n      0xffffffffffffffffffffffffffffffffffffffff\n      and\n      0xffffffffffffffffffffffffffffffffffffffff\n      and\n      0xffffffffffffffffffffffffffffffffffffffff\n      and\n      dup2\n      mstore\n      0x20\n      add\n      0x04\n      dup3\n      add\n      sload\n      dup2\n      mstore\n      0x20\n      add\n      0x05\n      dup3\n      add\n      0x00\n      swap1\n      sload\n      swap1\n      0x0100\n      exp\n      swap1\n      div\n      0xff\n      and\n      0x01\n      dup2\n      gt\n      iszero\n      tag_318\n      jumpi\n      tag_319\n      tag_148\n      jump\t// in\n    tag_319:\n    tag_318:\n      0x01\n      dup2\n      gt\n      iszero\n      tag_320\n      jumpi\n      tag_321\n      tag_148\n      jump\t// in\n    tag_321:\n    tag_320:\n      dup2\n      mstore\n      pop\n      pop\n      swap1\n      pop\n        /* \"contracts/Marketplace2/Marketplace.sol\":17650:17787  function getMarketItem(uint256 marketItemId) public view returns (MarketItem memory) {... */\n      swap2\n      swap1\n      pop\n      jump\t// out\n        /* \"contracts/Marketplace2/Marketplace.sol\":19067:19239  function testView(uint256 tokenId) public view returns (address) { ... */\n    tag_127:\n        /* \"contracts/Marketplace2/Marketplace.sol\":19123:19130  address */\n      0x00\n        /* \"contracts/Marketplace2/Marketplace.sol\":19143:19175  IFactory.ingameItems memory item */\n      dup1\n        /* \"contracts/Marketplace2/Marketplace.sol\":19178:19185  factory */\n      0x0a\n      0x00\n      swap1\n      sload\n      swap1\n      0x0100\n      exp\n      swap1\n      div\n      0xffffffffffffffffffffffffffffffffffffffff\n      and\n        /* \"contracts/Marketplace2/Marketplace.sol\":19178:19196  factory.ingameItem */\n      0xffffffffffffffffffffffffffffffffffffffff\n      and\n      0xd30bdac9\n        /* \"contracts/Marketplace2/Marketplace.sol\":19197:19204  tokenId */\n      dup5\n        /* \"contracts/Marketplace2/Marketplace.sol\":19178:19205  factory.ingameItem(tokenId) */\n      mload(0x40)\n      dup3\n      0xffffffff\n      and\n      0xe0\n      shl\n      dup2\n      mstore\n      0x04\n      add\n      tag_323\n      swap2\n      swap1\n      tag_161\n      jump\t// in\n    tag_323:\n      0x00\n      mload(0x40)\n      dup1\n      dup4\n      sub\n      dup2\n      dup7\n      gas\n      staticcall\n      iszero\n      dup1\n      iszero\n      tag_325\n      jumpi\n      returndatasize\n      0x00\n      dup1\n      returndatacopy\n      revert(0x00, returndatasize)\n    tag_325:\n      pop\n      pop\n      pop\n      pop\n      mload(0x40)\n      returndatasize\n      0x00\n      dup3\n      returndatacopy\n      returndatasize\n      not(0x1f)\n      0x1f\n      dup3\n      add\n      and\n      dup3\n      add\n      dup1\n      0x40\n      mstore\n      pop\n      dup2\n      add\n      swap1\n      tag_326\n      swap2\n      swap1\n      tag_165\n      jump\t// in\n    tag_326:\n        /* \"contracts/Marketplace2/Marketplace.sol\":19143:19205  IFactory.ingameItems memory item = factory.ingameItem(tokenId) */\n      swap1\n      pop\n        /* \"contracts/Marketplace2/Marketplace.sol\":19222:19226  item */\n      dup1\n        /* \"contracts/Marketplace2/Marketplace.sol\":19222:19232  item.owner */\n      0x20\n      add\n      mload\n        /* \"contracts/Marketplace2/Marketplace.sol\":19215:19232  return item.owner */\n      swap2\n      pop\n      pop\n        /* \"contracts/Marketplace2/Marketplace.sol\":19067:19239  function testView(uint256 tokenId) public view returns (address) { ... */\n      swap2\n      swap1\n      pop\n      jump\t// out\n        /* \"contracts/Marketplace2/Marketplace.sol\":2558:2756  function transferOwnership(address newOwner) public virtual onlyOwner {... */\n    tag_132:\n        /* \"contracts/Marketplace2/Marketplace.sol\":1899:1911  _msgSender() */\n      tag_328\n        /* \"contracts/Marketplace2/Marketplace.sol\":1899:1909  _msgSender */\n      tag_153\n        /* \"contracts/Marketplace2/Marketplace.sol\":1899:1911  _msgSender() */\n      jump\t// in\n    tag_328:\n        /* \"contracts/Marketplace2/Marketplace.sol\":1888:1911  owner() == _msgSender() */\n      0xffffffffffffffffffffffffffffffffffffffff\n      and\n        /* \"contracts/Marketplace2/Marketplace.sol\":1888:1895  owner() */\n      tag_329\n        /* \"contracts/Marketplace2/Marketplace.sol\":1888:1893  owner */\n      tag_99\n        /* \"contracts/Marketplace2/Marketplace.sol\":1888:1895  owner() */\n      jump\t// in\n    tag_329:\n        /* \"contracts/Marketplace2/Marketplace.sol\":1888:1911  owner() == _msgSender() */\n      0xffffffffffffffffffffffffffffffffffffffff\n      and\n      eq\n        /* \"contracts/Marketplace2/Marketplace.sol\":1880:1948  require(owner() == _msgSender(), \"Ownable: caller is not the owner\") */\n      tag_330\n      jumpi\n      mload(0x40)\n      0x08c379a000000000000000000000000000000000000000000000000000000000\n      dup2\n      mstore\n      0x04\n      add\n      tag_331\n      swap1\n      tag_157\n      jump\t// in\n    tag_331:\n      mload(0x40)\n      dup1\n      swap2\n      sub\n      swap1\n      revert\n    tag_330:\n        /* \"contracts/Marketplace2/Marketplace.sol\":2666:2667  0 */\n      0x00\n        /* \"contracts/Marketplace2/Marketplace.sol\":2646:2668  newOwner != address(0) */\n      0xffffffffffffffffffffffffffffffffffffffff\n      and\n        /* \"contracts/Marketplace2/Marketplace.sol\":2646:2654  newOwner */\n      dup2\n        /* \"contracts/Marketplace2/Marketplace.sol\":2646:2668  newOwner != address(0) */\n      0xffffffffffffffffffffffffffffffffffffffff\n      and\n      sub\n        /* \"contracts/Marketplace2/Marketplace.sol\":2638:2711  require(newOwner != address(0), \"Ownable: new owner is the zero address\") */\n      tag_333\n      jumpi\n      mload(0x40)\n      0x08c379a000000000000000000000000000000000000000000000000000000000\n      dup2\n      mstore\n      0x04\n      add\n      tag_334\n      swap1\n      tag_335\n      jump\t// in\n    tag_334:\n      mload(0x40)\n      dup1\n      swap2\n      sub\n      swap1\n      revert\n    tag_333:\n        /* \"contracts/Marketplace2/Marketplace.sol\":2721:2749  _transferOwnership(newOwner) */\n      tag_336\n        /* \"contracts/Marketplace2/Marketplace.sol\":2740:2748  newOwner */\n      dup2\n        /* \"contracts/Marketplace2/Marketplace.sol\":2721:2739  _transferOwnership */\n      tag_257\n        /* \"contracts/Marketplace2/Marketplace.sol\":2721:2749  _transferOwnership(newOwner) */\n      jump\t// in\n    tag_336:\n        /* \"contracts/Marketplace2/Marketplace.sol\":2558:2756  function transferOwnership(address newOwner) public virtual onlyOwner {... */\n      pop\n      jump\t// out\n        /* \"contracts/Marketplace2/Marketplace.sol\":16229:16252  IERC721 public mainNFTs */\n    tag_135:\n      0x0b\n      0x00\n      swap1\n      sload\n      swap1\n      0x0100\n      exp\n      swap1\n      div\n      0xffffffffffffffffffffffffffffffffffffffff\n      and\n      dup2\n      jump\t// out\n        /* \"contracts/Marketplace2/Marketplace.sol\":15977:16024  mapping (uint256 => MarketItem) public allItems */\n    tag_141:\n      mstore(0x20, 0x07)\n      dup1\n      0x00\n      mstore\n      keccak256(0x00, 0x40)\n      0x00\n      swap2\n      pop\n      swap1\n      pop\n      dup1\n      0x00\n      add\n      sload\n      swap1\n      dup1\n      0x01\n      add\n      sload\n      swap1\n      dup1\n      0x02\n      add\n      0x00\n      swap1\n      sload\n      swap1\n      0x0100\n      exp\n      swap1\n      div\n      0xffffffffffffffffffffffffffffffffffffffff\n      and\n      swap1\n      dup1\n      0x03\n      add\n      0x00\n      swap1\n      sload\n      swap1\n      0x0100\n      exp\n      swap1\n      div\n      0xffffffffffffffffffffffffffffffffffffffff\n      and\n      swap1\n      dup1\n      0x04\n      add\n      sload\n      swap1\n      dup1\n      0x05\n      add\n      0x00\n      swap1\n      sload\n      swap1\n      0x0100\n      exp\n      swap1\n      div\n      0xff\n      and\n      swap1\n      pop\n      dup7\n      jump\t// out\n        /* \"contracts/Marketplace2/Marketplace.sol\":554:650  function _msgSender() internal view virtual returns (address) {... */\n    tag_153:\n        /* \"contracts/Marketplace2/Marketplace.sol\":607:614  address */\n      0x00\n        /* \"contracts/Marketplace2/Marketplace.sol\":633:643  msg.sender */\n      caller\n        /* \"contracts/Marketplace2/Marketplace.sol\":626:643  return msg.sender */\n      swap1\n      pop\n        /* \"contracts/Marketplace2/Marketplace.sol\":554:650  function _msgSender() internal view virtual returns (address) {... */\n      swap1\n      jump\t// out\n        /* \"contracts/Marketplace2/Marketplace.sol\":11851:11963  function current(Counter storage counter) internal view returns (uint256) {... */\n    tag_168:\n        /* \"contracts/Marketplace2/Marketplace.sol\":11916:11923  uint256 */\n      0x00\n        /* \"contracts/Marketplace2/Marketplace.sol\":11942:11949  counter */\n      dup2\n        /* \"contracts/Marketplace2/Marketplace.sol\":11942:11956  counter._value */\n      0x00\n      add\n      sload\n        /* \"contracts/Marketplace2/Marketplace.sol\":11935:11956  return counter._value */\n      swap1\n      pop\n        /* \"contracts/Marketplace2/Marketplace.sol\":11851:11963  function current(Counter storage counter) internal view returns (uint256) {... */\n      swap2\n      swap1\n      pop\n      jump\t// out\n        /* \"contracts/Marketplace2/Marketplace.sol\":11969:12092  function increment(Counter storage counter) internal {... */\n    tag_227:\n        /* \"contracts/Marketplace2/Marketplace.sol\":12074:12075  1 */\n      0x01\n        /* \"contracts/Marketplace2/Marketplace.sol\":12056:12063  counter */\n      dup2\n        /* \"contracts/Marketplace2/Marketplace.sol\":12056:12070  counter._value */\n      0x00\n      add\n      0x00\n        /* \"contracts/Marketplace2/Marketplace.sol\":12056:12075  counter._value += 1 */\n      dup3\n      dup3\n      sload\n      add\n      swap3\n      pop\n      pop\n      dup2\n      swap1\n      sstore\n      pop\n        /* \"contracts/Marketplace2/Marketplace.sol\":11969:12092  function increment(Counter storage counter) internal {... */\n      pop\n      jump\t// out\n        /* \"contracts/Marketplace2/Marketplace.sol\":2910:3097  function _transferOwnership(address newOwner) internal virtual {... */\n    tag_257:\n        /* \"contracts/Marketplace2/Marketplace.sol\":2983:2999  address oldOwner */\n      0x00\n        /* \"contracts/Marketplace2/Marketplace.sol\":3002:3008  _owner */\n      0x0c\n      0x00\n      swap1\n      sload\n      swap1\n      0x0100\n      exp\n      swap1\n      div\n      0xffffffffffffffffffffffffffffffffffffffff\n      and\n        /* \"contracts/Marketplace2/Marketplace.sol\":2983:3008  address oldOwner = _owner */\n      swap1\n      pop\n        /* \"contracts/Marketplace2/Marketplace.sol\":3027:3035  newOwner */\n      dup2\n        /* \"contracts/Marketplace2/Marketplace.sol\":3018:3024  _owner */\n      0x0c\n      0x00\n        /* \"contracts/Marketplace2/Marketplace.sol\":3018:3035  _owner = newOwner */\n      0x0100\n      exp\n      dup2\n      sload\n      dup2\n      0xffffffffffffffffffffffffffffffffffffffff\n      mul\n      not\n      and\n      swap1\n      dup4\n      0xffffffffffffffffffffffffffffffffffffffff\n      and\n      mul\n      or\n      swap1\n      sstore\n      pop\n        /* \"contracts/Marketplace2/Marketplace.sol\":3081:3089  newOwner */\n      dup2\n        /* \"contracts/Marketplace2/Marketplace.sol\":3050:3090  OwnershipTransferred(oldOwner, newOwner) */\n      0xffffffffffffffffffffffffffffffffffffffff\n      and\n        /* \"contracts/Marketplace2/Marketplace.sol\":3071:3079  oldOwner */\n      dup2\n        /* \"contracts/Marketplace2/Marketplace.sol\":3050:3090  OwnershipTransferred(oldOwner, newOwner) */\n      0xffffffffffffffffffffffffffffffffffffffff\n      and\n      0x8be0079c531659141344cd1fd0a4f28419497f9722a3daafe3b4186f6b6457e0\n      mload(0x40)\n      mload(0x40)\n      dup1\n      swap2\n      sub\n      swap1\n      log3\n        /* \"contracts/Marketplace2/Marketplace.sol\":2973:3097  {... */\n      pop\n        /* \"contracts/Marketplace2/Marketplace.sol\":2910:3097  function _transferOwnership(address newOwner) internal virtual {... */\n      pop\n      jump\t// out\n        /* \"contracts/Marketplace2/Marketplace.sol\":23277:23666  function _requireERC721(address nftAddress) internal view {... */\n    tag_285:\n        /* \"contracts/Marketplace2/Marketplace.sol\":23366:23388  isContract(nftAddress) */\n      tag_342\n        /* \"contracts/Marketplace2/Marketplace.sol\":23377:23387  nftAddress */\n      dup2\n        /* \"contracts/Marketplace2/Marketplace.sol\":23366:23376  isContract */\n      tag_343\n        /* \"contracts/Marketplace2/Marketplace.sol\":23366:23388  isContract(nftAddress) */\n      jump\t// in\n    tag_342:\n        /* \"contracts/Marketplace2/Marketplace.sol\":23345:23450  require(... */\n      tag_344\n      jumpi\n      mload(0x40)\n      0x08c379a000000000000000000000000000000000000000000000000000000000\n      dup2\n      mstore\n      0x04\n      add\n      tag_345\n      swap1\n      tag_346\n      jump\t// in\n    tag_345:\n      mload(0x40)\n      dup1\n      swap2\n      sub\n      swap1\n      revert\n    tag_344:\n        /* \"contracts/Marketplace2/Marketplace.sol\":23461:23480  IERC721 nftRegistry */\n      0x00\n        /* \"contracts/Marketplace2/Marketplace.sol\":23491:23501  nftAddress */\n      dup2\n        /* \"contracts/Marketplace2/Marketplace.sol\":23461:23502  IERC721 nftRegistry = IERC721(nftAddress) */\n      swap1\n      pop\n        /* \"contracts/Marketplace2/Marketplace.sol\":23533:23544  nftRegistry */\n      dup1\n        /* \"contracts/Marketplace2/Marketplace.sol\":23533:23562  nftRegistry.supportsInterface */\n      0xffffffffffffffffffffffffffffffffffffffff\n      and\n      0x01ffc9a7\n        /* \"contracts/Marketplace2/Marketplace.sol\":15959:15969  0x80ac58cd */\n      0x80ac58cd\n        /* \"contracts/Marketplace2/Marketplace.sol\":15952:15970  bytes4(0x80ac58cd) */\n      0xe0\n      shl\n        /* \"contracts/Marketplace2/Marketplace.sol\":23533:23580  nftRegistry.supportsInterface(ERC721_Interface) */\n      mload(0x40)\n      dup3\n      0xffffffff\n      and\n      0xe0\n      shl\n      dup2\n      mstore\n      0x04\n      add\n      tag_347\n      swap2\n      swap1\n      tag_64\n      jump\t// in\n    tag_347:\n      0x20\n      mload(0x40)\n      dup1\n      dup4\n      sub\n      dup2\n      dup7\n      gas\n      staticcall\n      iszero\n      dup1\n      iszero\n      tag_349\n      jumpi\n      returndatasize\n      0x00\n      dup1\n      returndatacopy\n      revert(0x00, returndatasize)\n    tag_349:\n      pop\n      pop\n      pop\n      pop\n      mload(0x40)\n      returndatasize\n      not(0x1f)\n      0x1f\n      dup3\n      add\n      and\n      dup3\n      add\n      dup1\n      0x40\n      mstore\n      pop\n      dup2\n      add\n      swap1\n      tag_350\n      swap2\n      swap1\n      tag_271\n      jump\t// in\n    tag_350:\n        /* \"contracts/Marketplace2/Marketplace.sol\":23512:23659  require(... */\n      tag_351\n      jumpi\n      mload(0x40)\n      0x08c379a000000000000000000000000000000000000000000000000000000000\n      dup2\n      mstore\n      0x04\n      add\n      tag_352\n      swap1\n      tag_353\n      jump\t// in\n    tag_352:\n      mload(0x40)\n      dup1\n      swap2\n      sub\n      swap1\n      revert\n    tag_351:\n        /* \"contracts/Marketplace2/Marketplace.sol\":23335:23666  {... */\n      pop\n        /* \"contracts/Marketplace2/Marketplace.sol\":23277:23666  function _requireERC721(address nftAddress) internal view {... */\n      pop\n      jump\t// out\n        /* \"contracts/Marketplace2/Marketplace.sol\":23672:23829  function isContract(address _addr) private view returns (bool){... */\n    tag_343:\n        /* \"contracts/Marketplace2/Marketplace.sol\":23729:23733  bool */\n      0x00\n        /* \"contracts/Marketplace2/Marketplace.sol\":23740:23751  uint32 size */\n      dup1\n        /* \"contracts/Marketplace2/Marketplace.sol\":23792:23797  _addr */\n      dup3\n        /* \"contracts/Marketplace2/Marketplace.sol\":23780:23798  extcodesize(_addr) */\n      extcodesize\n        /* \"contracts/Marketplace2/Marketplace.sol\":23772:23798  size := extcodesize(_addr) */\n      swap1\n      pop\n        /* \"contracts/Marketplace2/Marketplace.sol\":23824:23825  0 */\n      0x00\n        /* \"contracts/Marketplace2/Marketplace.sol\":23817:23821  size */\n      dup2\n        /* \"contracts/Marketplace2/Marketplace.sol\":23817:23825  size > 0 */\n      0xffffffff\n      and\n      gt\n        /* \"contracts/Marketplace2/Marketplace.sol\":23809:23826  return (size > 0) */\n      swap2\n      pop\n      pop\n        /* \"contracts/Marketplace2/Marketplace.sol\":23672:23829  function isContract(address _addr) private view returns (bool){... */\n      swap2\n      swap1\n      pop\n      jump\t// out\n    tag_144:\n      mload(0x40)\n      dup1\n      0xc0\n      add\n      0x40\n      mstore\n      dup1\n      0x00\n      dup2\n      mstore\n      0x20\n      add\n      0x00\n      dup2\n      mstore\n      0x20\n      add\n      and(0xffffffffffffffffffffffffffffffffffffffff, 0x00)\n      dup2\n      mstore\n      0x20\n      add\n      and(0xffffffffffffffffffffffffffffffffffffffff, 0x00)\n      dup2\n      mstore\n      0x20\n      add\n      0x00\n      dup2\n      mstore\n      0x20\n      add\n      0x00\n      0x01\n      dup2\n      gt\n      iszero\n      tag_355\n      jumpi\n      tag_356\n      tag_148\n      jump\t// in\n    tag_356:\n    tag_355:\n      dup2\n      mstore\n      pop\n      swap1\n      jump\t// out\n        /* \"#utility.yul\":7:84   */\n    tag_357:\n        /* \"#utility.yul\":44:51   */\n      0x00\n        /* \"#utility.yul\":73:78   */\n      dup2\n        /* \"#utility.yul\":62:78   */\n      swap1\n      pop\n        /* \"#utility.yul\":7:84   */\n      swap2\n      swap1\n      pop\n      jump\t// out\n        /* \"#utility.yul\":90:198   */\n    tag_358:\n        /* \"#utility.yul\":167:191   */\n      tag_448\n        /* \"#utility.yul\":185:190   */\n      dup2\n        /* \"#utility.yul\":167:191   */\n      tag_357\n      jump\t// in\n    tag_448:\n        /* \"#utility.yul\":162:165   */\n      dup3\n        /* \"#utility.yul\":155:192   */\n      mstore\n        /* \"#utility.yul\":90:198   */\n      pop\n      pop\n      jump\t// out\n        /* \"#utility.yul\":204:330   */\n    tag_359:\n        /* \"#utility.yul\":241:248   */\n      0x00\n        /* \"#utility.yul\":281:323   */\n      0xffffffffffffffffffffffffffffffffffffffff\n        /* \"#utility.yul\":274:279   */\n      dup3\n        /* \"#utility.yul\":270:324   */\n      and\n        /* \"#utility.yul\":259:324   */\n      swap1\n      pop\n        /* \"#utility.yul\":204:330   */\n      swap2\n      swap1\n      pop\n      jump\t// out\n        /* \"#utility.yul\":336:440   */\n    tag_360:\n        /* \"#utility.yul\":381:388   */\n      0x00\n        /* \"#utility.yul\":410:434   */\n      tag_451\n        /* \"#utility.yul\":428:433   */\n      dup3\n        /* \"#utility.yul\":410:434   */\n      tag_359\n      jump\t// in\n    tag_451:\n        /* \"#utility.yul\":399:434   */\n      swap1\n      pop\n        /* \"#utility.yul\":336:440   */\n      swap2\n      swap1\n      pop\n      jump\t// out\n        /* \"#utility.yul\":446:578   */\n    tag_361:\n        /* \"#utility.yul\":539:571   */\n      tag_453\n        /* \"#utility.yul\":565:570   */\n      dup2\n        /* \"#utility.yul\":539:571   */\n      tag_360\n      jump\t// in\n    tag_453:\n        /* \"#utility.yul\":534:537   */\n      dup3\n        /* \"#utility.yul\":527:572   */\n      mstore\n        /* \"#utility.yul\":446:578   */\n      pop\n      pop\n      jump\t// out\n        /* \"#utility.yul\":584:764   */\n    tag_148:\n        /* \"#utility.yul\":632:709   */\n      0x4e487b7100000000000000000000000000000000000000000000000000000000\n        /* \"#utility.yul\":629:630   */\n      0x00\n        /* \"#utility.yul\":622:710   */\n      mstore\n        /* \"#utility.yul\":729:733   */\n      0x21\n        /* \"#utility.yul\":726:727   */\n      0x04\n        /* \"#utility.yul\":719:734   */\n      mstore\n        /* \"#utility.yul\":753:757   */\n      0x24\n        /* \"#utility.yul\":750:751   */\n      0x00\n        /* \"#utility.yul\":743:758   */\n      revert\n        /* \"#utility.yul\":770:889   */\n    tag_362:\n        /* \"#utility.yul\":857:858   */\n      0x02\n        /* \"#utility.yul\":850:855   */\n      dup2\n        /* \"#utility.yul\":847:859   */\n      lt\n        /* \"#utility.yul\":837:883   */\n      tag_456\n      jumpi\n        /* \"#utility.yul\":863:881   */\n      tag_457\n      tag_148\n      jump\t// in\n    tag_457:\n        /* \"#utility.yul\":837:883   */\n    tag_456:\n        /* \"#utility.yul\":770:889   */\n      pop\n      jump\t// out\n        /* \"#utility.yul\":895:1034   */\n    tag_363:\n        /* \"#utility.yul\":946:953   */\n      0x00\n        /* \"#utility.yul\":975:980   */\n      dup2\n        /* \"#utility.yul\":964:980   */\n      swap1\n      pop\n        /* \"#utility.yul\":981:1028   */\n      tag_459\n        /* \"#utility.yul\":1022:1027   */\n      dup3\n        /* \"#utility.yul\":981:1028   */\n      tag_362\n      jump\t// in\n    tag_459:\n        /* \"#utility.yul\":895:1034   */\n      swap2\n      swap1\n      pop\n      jump\t// out\n        /* \"#utility.yul\":1040:1179   */\n    tag_364:\n        /* \"#utility.yul\":1102:1111   */\n      0x00\n        /* \"#utility.yul\":1135:1173   */\n      tag_461\n        /* \"#utility.yul\":1167:1172   */\n      dup3\n        /* \"#utility.yul\":1135:1173   */\n      tag_363\n      jump\t// in\n    tag_461:\n        /* \"#utility.yul\":1122:1173   */\n      swap1\n      pop\n        /* \"#utility.yul\":1040:1179   */\n      swap2\n      swap1\n      pop\n      jump\t// out\n        /* \"#utility.yul\":1185:1330   */\n    tag_365:\n        /* \"#utility.yul\":1274:1323   */\n      tag_463\n        /* \"#utility.yul\":1317:1322   */\n      dup2\n        /* \"#utility.yul\":1274:1323   */\n      tag_364\n      jump\t// in\n    tag_463:\n        /* \"#utility.yul\":1269:1272   */\n      dup3\n        /* \"#utility.yul\":1262:1324   */\n      mstore\n        /* \"#utility.yul\":1185:1330   */\n      pop\n      pop\n      jump\t// out\n        /* \"#utility.yul\":1420:2682   */\n    tag_366:\n        /* \"#utility.yul\":1571:1575   */\n      0xc0\n        /* \"#utility.yul\":1566:1569   */\n      dup3\n        /* \"#utility.yul\":1562:1576   */\n      add\n        /* \"#utility.yul\":1660:1664   */\n      0x00\n        /* \"#utility.yul\":1653:1658   */\n      dup3\n        /* \"#utility.yul\":1649:1665   */\n      add\n        /* \"#utility.yul\":1643:1666   */\n      mload\n        /* \"#utility.yul\":1679:1742   */\n      tag_465\n        /* \"#utility.yul\":1736:1740   */\n      0x00\n        /* \"#utility.yul\":1731:1734   */\n      dup6\n        /* \"#utility.yul\":1727:1741   */\n      add\n        /* \"#utility.yul\":1713:1725   */\n      dup3\n        /* \"#utility.yul\":1679:1742   */\n      tag_358\n      jump\t// in\n    tag_465:\n        /* \"#utility.yul\":1586:1752   */\n      pop\n        /* \"#utility.yul\":1837:1841   */\n      0x20\n        /* \"#utility.yul\":1830:1835   */\n      dup3\n        /* \"#utility.yul\":1826:1842   */\n      add\n        /* \"#utility.yul\":1820:1843   */\n      mload\n        /* \"#utility.yul\":1856:1919   */\n      tag_466\n        /* \"#utility.yul\":1913:1917   */\n      0x20\n        /* \"#utility.yul\":1908:1911   */\n      dup6\n        /* \"#utility.yul\":1904:1918   */\n      add\n        /* \"#utility.yul\":1890:1902   */\n      dup3\n        /* \"#utility.yul\":1856:1919   */\n      tag_358\n      jump\t// in\n    tag_466:\n        /* \"#utility.yul\":1762:1929   */\n      pop\n        /* \"#utility.yul\":2013:2017   */\n      0x40\n        /* \"#utility.yul\":2006:2011   */\n      dup3\n        /* \"#utility.yul\":2002:2018   */\n      add\n        /* \"#utility.yul\":1996:2019   */\n      mload\n        /* \"#utility.yul\":2032:2111   */\n      tag_467\n        /* \"#utility.yul\":2105:2109   */\n      0x40\n        /* \"#utility.yul\":2100:2103   */\n      dup6\n        /* \"#utility.yul\":2096:2110   */\n      add\n        /* \"#utility.yul\":2082:2094   */\n      dup3\n        /* \"#utility.yul\":2032:2111   */\n      tag_361\n      jump\t// in\n    tag_467:\n        /* \"#utility.yul\":1939:2121   */\n      pop\n        /* \"#utility.yul\":2204:2208   */\n      0x60\n        /* \"#utility.yul\":2197:2202   */\n      dup3\n        /* \"#utility.yul\":2193:2209   */\n      add\n        /* \"#utility.yul\":2187:2210   */\n      mload\n        /* \"#utility.yul\":2223:2302   */\n      tag_468\n        /* \"#utility.yul\":2296:2300   */\n      0x60\n        /* \"#utility.yul\":2291:2294   */\n      dup6\n        /* \"#utility.yul\":2287:2301   */\n      add\n        /* \"#utility.yul\":2273:2285   */\n      dup3\n        /* \"#utility.yul\":2223:2302   */\n      tag_361\n      jump\t// in\n    tag_468:\n        /* \"#utility.yul\":2131:2312   */\n      pop\n        /* \"#utility.yul\":2395:2399   */\n      0x80\n        /* \"#utility.yul\":2388:2393   */\n      dup3\n        /* \"#utility.yul\":2384:2400   */\n      add\n        /* \"#utility.yul\":2378:2401   */\n      mload\n        /* \"#utility.yul\":2414:2477   */\n      tag_469\n        /* \"#utility.yul\":2471:2475   */\n      0x80\n        /* \"#utility.yul\":2466:2469   */\n      dup6\n        /* \"#utility.yul\":2462:2476   */\n      add\n        /* \"#utility.yul\":2448:2460   */\n      dup3\n        /* \"#utility.yul\":2414:2477   */\n      tag_358\n      jump\t// in\n    tag_469:\n        /* \"#utility.yul\":2322:2487   */\n      pop\n        /* \"#utility.yul\":2571:2575   */\n      0xa0\n        /* \"#utility.yul\":2564:2569   */\n      dup3\n        /* \"#utility.yul\":2560:2576   */\n      add\n        /* \"#utility.yul\":2554:2577   */\n      mload\n        /* \"#utility.yul\":2590:2665   */\n      tag_470\n        /* \"#utility.yul\":2659:2663   */\n      0xa0\n        /* \"#utility.yul\":2654:2657   */\n      dup6\n        /* \"#utility.yul\":2650:2664   */\n      add\n        /* \"#utility.yul\":2636:2648   */\n      dup3\n        /* \"#utility.yul\":2590:2665   */\n      tag_365\n      jump\t// in\n    tag_470:\n        /* \"#utility.yul\":2497:2675   */\n      pop\n        /* \"#utility.yul\":1540:2682   */\n      pop\n        /* \"#utility.yul\":1420:2682   */\n      pop\n      pop\n      jump\t// out\n        /* \"#utility.yul\":2688:3019   */\n    tag_33:\n        /* \"#utility.yul\":2835:2839   */\n      0x00\n        /* \"#utility.yul\":2873:2876   */\n      0xc0\n        /* \"#utility.yul\":2862:2871   */\n      dup3\n        /* \"#utility.yul\":2858:2877   */\n      add\n        /* \"#utility.yul\":2850:2877   */\n      swap1\n      pop\n        /* \"#utility.yul\":2887:3012   */\n      tag_472\n        /* \"#utility.yul\":3009:3010   */\n      0x00\n        /* \"#utility.yul\":2998:3007   */\n      dup4\n        /* \"#utility.yul\":2994:3011   */\n      add\n        /* \"#utility.yul\":2985:2991   */\n      dup5\n        /* \"#utility.yul\":2887:3012   */\n      tag_366\n      jump\t// in\n    tag_472:\n        /* \"#utility.yul\":2688:3019   */\n      swap3\n      swap2\n      pop\n      pop\n      jump\t// out\n        /* \"#utility.yul\":3025:3100   */\n    tag_367:\n        /* \"#utility.yul\":3058:3064   */\n      0x00\n        /* \"#utility.yul\":3091:3093   */\n      0x40\n        /* \"#utility.yul\":3085:3094   */\n      mload\n        /* \"#utility.yul\":3075:3094   */\n      swap1\n      pop\n        /* \"#utility.yul\":3025:3100   */\n      swap1\n      jump\t// out\n        /* \"#utility.yul\":3106:3223   */\n    tag_368:\n        /* \"#utility.yul\":3215:3216   */\n      0x00\n        /* \"#utility.yul\":3212:3213   */\n      dup1\n        /* \"#utility.yul\":3205:3217   */\n      revert\n        /* \"#utility.yul\":3229:3346   */\n    tag_369:\n        /* \"#utility.yul\":3338:3339   */\n      0x00\n        /* \"#utility.yul\":3335:3336   */\n      dup1\n        /* \"#utility.yul\":3328:3340   */\n      revert\n        /* \"#utility.yul\":3352:3448   */\n    tag_370:\n        /* \"#utility.yul\":3389:3396   */\n      0x00\n        /* \"#utility.yul\":3418:3442   */\n      tag_477\n        /* \"#utility.yul\":3436:3441   */\n      dup3\n        /* \"#utility.yul\":3418:3442   */\n      tag_359\n      jump\t// in\n    tag_477:\n        /* \"#utility.yul\":3407:3442   */\n      swap1\n      pop\n        /* \"#utility.yul\":3352:3448   */\n      swap2\n      swap1\n      pop\n      jump\t// out\n        /* \"#utility.yul\":3454:3576   */\n    tag_371:\n        /* \"#utility.yul\":3527:3551   */\n      tag_479\n        /* \"#utility.yul\":3545:3550   */\n      dup2\n        /* \"#utility.yul\":3527:3551   */\n      tag_370\n      jump\t// in\n    tag_479:\n        /* \"#utility.yul\":3520:3525   */\n      dup2\n        /* \"#utility.yul\":3517:3552   */\n      eq\n        /* \"#utility.yul\":3507:3570   */\n      tag_480\n      jumpi\n        /* \"#utility.yul\":3566:3567   */\n      0x00\n        /* \"#utility.yul\":3563:3564   */\n      dup1\n        /* \"#utility.yul\":3556:3568   */\n      revert\n        /* \"#utility.yul\":3507:3570   */\n    tag_480:\n        /* \"#utility.yul\":3454:3576   */\n      pop\n      jump\t// out\n        /* \"#utility.yul\":3582:3721   */\n    tag_372:\n        /* \"#utility.yul\":3628:3633   */\n      0x00\n        /* \"#utility.yul\":3666:3672   */\n      dup2\n        /* \"#utility.yul\":3653:3673   */\n      calldataload\n        /* \"#utility.yul\":3644:3673   */\n      swap1\n      pop\n        /* \"#utility.yul\":3682:3715   */\n      tag_482\n        /* \"#utility.yul\":3709:3714   */\n      dup2\n        /* \"#utility.yul\":3682:3715   */\n      tag_371\n      jump\t// in\n    tag_482:\n        /* \"#utility.yul\":3582:3721   */\n      swap3\n      swap2\n      pop\n      pop\n      jump\t// out\n        /* \"#utility.yul\":3727:4056   */\n    tag_37:\n        /* \"#utility.yul\":3786:3792   */\n      0x00\n        /* \"#utility.yul\":3835:3837   */\n      0x20\n        /* \"#utility.yul\":3823:3832   */\n      dup3\n        /* \"#utility.yul\":3814:3821   */\n      dup5\n        /* \"#utility.yul\":3810:3833   */\n      sub\n        /* \"#utility.yul\":3806:3838   */\n      slt\n        /* \"#utility.yul\":3803:3922   */\n      iszero\n      tag_484\n      jumpi\n        /* \"#utility.yul\":3841:3920   */\n      tag_485\n      tag_368\n      jump\t// in\n    tag_485:\n        /* \"#utility.yul\":3803:3922   */\n    tag_484:\n        /* \"#utility.yul\":3961:3962   */\n      0x00\n        /* \"#utility.yul\":3986:4039   */\n      tag_486\n        /* \"#utility.yul\":4031:4038   */\n      dup5\n        /* \"#utility.yul\":4022:4028   */\n      dup3\n        /* \"#utility.yul\":4011:4020   */\n      dup6\n        /* \"#utility.yul\":4007:4029   */\n      add\n        /* \"#utility.yul\":3986:4039   */\n      tag_372\n      jump\t// in\n    tag_486:\n        /* \"#utility.yul\":3976:4039   */\n      swap2\n      pop\n        /* \"#utility.yul\":3932:4049   */\n      pop\n        /* \"#utility.yul\":3727:4056   */\n      swap3\n      swap2\n      pop\n      pop\n      jump\t// out\n        /* \"#utility.yul\":4062:4184   */\n    tag_373:\n        /* \"#utility.yul\":4135:4159   */\n      tag_488\n        /* \"#utility.yul\":4153:4158   */\n      dup2\n        /* \"#utility.yul\":4135:4159   */\n      tag_357\n      jump\t// in\n    tag_488:\n        /* \"#utility.yul\":4128:4133   */\n      dup2\n        /* \"#utility.yul\":4125:4160   */\n      eq\n        /* \"#utility.yul\":4115:4178   */\n      tag_489\n      jumpi\n        /* \"#utility.yul\":4174:4175   */\n      0x00\n        /* \"#utility.yul\":4171:4172   */\n      dup1\n        /* \"#utility.yul\":4164:4176   */\n      revert\n        /* \"#utility.yul\":4115:4178   */\n    tag_489:\n        /* \"#utility.yul\":4062:4184   */\n      pop\n      jump\t// out\n        /* \"#utility.yul\":4190:4329   */\n    tag_374:\n        /* \"#utility.yul\":4236:4241   */\n      0x00\n        /* \"#utility.yul\":4274:4280   */\n      dup2\n        /* \"#utility.yul\":4261:4281   */\n      calldataload\n        /* \"#utility.yul\":4252:4281   */\n      swap1\n      pop\n        /* \"#utility.yul\":4290:4323   */\n      tag_491\n        /* \"#utility.yul\":4317:4322   */\n      dup2\n        /* \"#utility.yul\":4290:4323   */\n      tag_373\n      jump\t// in\n    tag_491:\n        /* \"#utility.yul\":4190:4329   */\n      swap3\n      swap2\n      pop\n      pop\n      jump\t// out\n        /* \"#utility.yul\":4335:4664   */\n    tag_42:\n        /* \"#utility.yul\":4394:4400   */\n      0x00\n        /* \"#utility.yul\":4443:4445   */\n      0x20\n        /* \"#utility.yul\":4431:4440   */\n      dup3\n        /* \"#utility.yul\":4422:4429   */\n      dup5\n        /* \"#utility.yul\":4418:4441   */\n      sub\n        /* \"#utility.yul\":4414:4446   */\n      slt\n        /* \"#utility.yul\":4411:4530   */\n      iszero\n      tag_493\n      jumpi\n        /* \"#utility.yul\":4449:4528   */\n      tag_494\n      tag_368\n      jump\t// in\n    tag_494:\n        /* \"#utility.yul\":4411:4530   */\n    tag_493:\n        /* \"#utility.yul\":4569:4570   */\n      0x00\n        /* \"#utility.yul\":4594:4647   */\n      tag_495\n        /* \"#utility.yul\":4639:4646   */\n      dup5\n        /* \"#utility.yul\":4630:4636   */\n      dup3\n        /* \"#utility.yul\":4619:4628   */\n      dup6\n        /* \"#utility.yul\":4615:4637   */\n      add\n        /* \"#utility.yul\":4594:4647   */\n      tag_374\n      jump\t// in\n    tag_495:\n        /* \"#utility.yul\":4584:4647   */\n      swap2\n      pop\n        /* \"#utility.yul\":4540:4657   */\n      pop\n        /* \"#utility.yul\":4335:4664   */\n      swap3\n      swap2\n      pop\n      pop\n      jump\t// out\n        /* \"#utility.yul\":4670:4760   */\n    tag_375:\n        /* \"#utility.yul\":4704:4711   */\n      0x00\n        /* \"#utility.yul\":4747:4752   */\n      dup2\n        /* \"#utility.yul\":4740:4753   */\n      iszero\n        /* \"#utility.yul\":4733:4754   */\n      iszero\n        /* \"#utility.yul\":4722:4754   */\n      swap1\n      pop\n        /* \"#utility.yul\":4670:4760   */\n      swap2\n      swap1\n      pop\n      jump\t// out\n        /* \"#utility.yul\":4766:4875   */\n    tag_376:\n        /* \"#utility.yul\":4847:4868   */\n      tag_498\n        /* \"#utility.yul\":4862:4867   */\n      dup2\n        /* \"#utility.yul\":4847:4868   */\n      tag_375\n      jump\t// in\n    tag_498:\n        /* \"#utility.yul\":4842:4845   */\n      dup3\n        /* \"#utility.yul\":4835:4869   */\n      mstore\n        /* \"#utility.yul\":4766:4875   */\n      pop\n      pop\n      jump\t// out\n        /* \"#utility.yul\":4881:5091   */\n    tag_45:\n        /* \"#utility.yul\":4968:4972   */\n      0x00\n        /* \"#utility.yul\":5006:5008   */\n      0x20\n        /* \"#utility.yul\":4995:5004   */\n      dup3\n        /* \"#utility.yul\":4991:5009   */\n      add\n        /* \"#utility.yul\":4983:5009   */\n      swap1\n      pop\n        /* \"#utility.yul\":5019:5084   */\n      tag_500\n        /* \"#utility.yul\":5081:5082   */\n      0x00\n        /* \"#utility.yul\":5070:5079   */\n      dup4\n        /* \"#utility.yul\":5066:5083   */\n      add\n        /* \"#utility.yul\":5057:5063   */\n      dup5\n        /* \"#utility.yul\":5019:5084   */\n      tag_376\n      jump\t// in\n    tag_500:\n        /* \"#utility.yul\":4881:5091   */\n      swap3\n      swap2\n      pop\n      pop\n      jump\t// out\n        /* \"#utility.yul\":5097:5238   */\n    tag_377:\n        /* \"#utility.yul\":5191:5197   */\n      0x00\n        /* \"#utility.yul\":5225:5230   */\n      dup2\n        /* \"#utility.yul\":5219:5231   */\n      mload\n        /* \"#utility.yul\":5209:5231   */\n      swap1\n      pop\n        /* \"#utility.yul\":5097:5238   */\n      swap2\n      swap1\n      pop\n      jump\t// out\n        /* \"#utility.yul\":5244:5455   */\n    tag_378:\n        /* \"#utility.yul\":5370:5381   */\n      0x00\n        /* \"#utility.yul\":5404:5410   */\n      dup3\n        /* \"#utility.yul\":5399:5402   */\n      dup3\n        /* \"#utility.yul\":5392:5411   */\n      mstore\n        /* \"#utility.yul\":5444:5448   */\n      0x20\n        /* \"#utility.yul\":5439:5442   */\n      dup3\n        /* \"#utility.yul\":5435:5449   */\n      add\n        /* \"#utility.yul\":5420:5449   */\n      swap1\n      pop\n        /* \"#utility.yul\":5244:5455   */\n      swap3\n      swap2\n      pop\n      pop\n      jump\t// out\n        /* \"#utility.yul\":5461:5620   */\n    tag_379:\n        /* \"#utility.yul\":5555:5559   */\n      0x00\n        /* \"#utility.yul\":5578:5581   */\n      dup2\n        /* \"#utility.yul\":5570:5581   */\n      swap1\n      pop\n        /* \"#utility.yul\":5608:5612   */\n      0x20\n        /* \"#utility.yul\":5603:5606   */\n      dup3\n        /* \"#utility.yul\":5599:5613   */\n      add\n        /* \"#utility.yul\":5591:5613   */\n      swap1\n      pop\n        /* \"#utility.yul\":5461:5620   */\n      swap2\n      swap1\n      pop\n      jump\t// out\n        /* \"#utility.yul\":5710:6962   */\n    tag_380:\n        /* \"#utility.yul\":5851:5855   */\n      0xc0\n        /* \"#utility.yul\":5846:5849   */\n      dup3\n        /* \"#utility.yul\":5842:5856   */\n      add\n        /* \"#utility.yul\":5940:5944   */\n      0x00\n        /* \"#utility.yul\":5933:5938   */\n      dup3\n        /* \"#utility.yul\":5929:5945   */\n      add\n        /* \"#utility.yul\":5923:5946   */\n      mload\n        /* \"#utility.yul\":5959:6022   */\n      tag_505\n        /* \"#utility.yul\":6016:6020   */\n      0x00\n        /* \"#utility.yul\":6011:6014   */\n      dup6\n        /* \"#utility.yul\":6007:6021   */\n      add\n        /* \"#utility.yul\":5993:6005   */\n      dup3\n        /* \"#utility.yul\":5959:6022   */\n      tag_358\n      jump\t// in\n    tag_505:\n        /* \"#utility.yul\":5866:6032   */\n      pop\n        /* \"#utility.yul\":6117:6121   */\n      0x20\n        /* \"#utility.yul\":6110:6115   */\n      dup3\n        /* \"#utility.yul\":6106:6122   */\n      add\n        /* \"#utility.yul\":6100:6123   */\n      mload\n        /* \"#utility.yul\":6136:6199   */\n      tag_506\n        /* \"#utility.yul\":6193:6197   */\n      0x20\n        /* \"#utility.yul\":6188:6191   */\n      dup6\n        /* \"#utility.yul\":6184:6198   */\n      add\n        /* \"#utility.yul\":6170:6182   */\n      dup3\n        /* \"#utility.yul\":6136:6199   */\n      tag_358\n      jump\t// in\n    tag_506:\n        /* \"#utility.yul\":6042:6209   */\n      pop\n        /* \"#utility.yul\":6293:6297   */\n      0x40\n        /* \"#utility.yul\":6286:6291   */\n      dup3\n        /* \"#utility.yul\":6282:6298   */\n      add\n        /* \"#utility.yul\":6276:6299   */\n      mload\n        /* \"#utility.yul\":6312:6391   */\n      tag_507\n        /* \"#utility.yul\":6385:6389   */\n      0x40\n        /* \"#utility.yul\":6380:6383   */\n      dup6\n        /* \"#utility.yul\":6376:6390   */\n      add\n        /* \"#utility.yul\":6362:6374   */\n      dup3\n        /* \"#utility.yul\":6312:6391   */\n      tag_361\n      jump\t// in\n    tag_507:\n        /* \"#utility.yul\":6219:6401   */\n      pop\n        /* \"#utility.yul\":6484:6488   */\n      0x60\n        /* \"#utility.yul\":6477:6482   */\n      dup3\n        /* \"#utility.yul\":6473:6489   */\n      add\n        /* \"#utility.yul\":6467:6490   */\n      mload\n        /* \"#utility.yul\":6503:6582   */\n      tag_508\n        /* \"#utility.yul\":6576:6580   */\n      0x60\n        /* \"#utility.yul\":6571:6574   */\n      dup6\n        /* \"#utility.yul\":6567:6581   */\n      add\n        /* \"#utility.yul\":6553:6565   */\n      dup3\n        /* \"#utility.yul\":6503:6582   */\n      tag_361\n      jump\t// in\n    tag_508:\n        /* \"#utility.yul\":6411:6592   */\n      pop\n        /* \"#utility.yul\":6675:6679   */\n      0x80\n        /* \"#utility.yul\":6668:6673   */\n      dup3\n        /* \"#utility.yul\":6664:6680   */\n      add\n        /* \"#utility.yul\":6658:6681   */\n      mload\n        /* \"#utility.yul\":6694:6757   */\n      tag_509\n        /* \"#utility.yul\":6751:6755   */\n      0x80\n        /* \"#utility.yul\":6746:6749   */\n      dup6\n        /* \"#utility.yul\":6742:6756   */\n      add\n        /* \"#utility.yul\":6728:6740   */\n      dup3\n        /* \"#utility.yul\":6694:6757   */\n      tag_358\n      jump\t// in\n    tag_509:\n        /* \"#utility.yul\":6602:6767   */\n      pop\n        /* \"#utility.yul\":6851:6855   */\n      0xa0\n        /* \"#utility.yul\":6844:6849   */\n      dup3\n        /* \"#utility.yul\":6840:6856   */\n      add\n        /* \"#utility.yul\":6834:6857   */\n      mload\n        /* \"#utility.yul\":6870:6945   */\n      tag_510\n        /* \"#utility.yul\":6939:6943   */\n      0xa0\n        /* \"#utility.yul\":6934:6937   */\n      dup6\n        /* \"#utility.yul\":6930:6944   */\n      add\n        /* \"#utility.yul\":6916:6928   */\n      dup3\n        /* \"#utility.yul\":6870:6945   */\n      tag_365\n      jump\t// in\n    tag_510:\n        /* \"#utility.yul\":6777:6955   */\n      pop\n        /* \"#utility.yul\":5820:6962   */\n      pop\n        /* \"#utility.yul\":5710:6962   */\n      pop\n      pop\n      jump\t// out\n        /* \"#utility.yul\":6968:7255   */\n    tag_381:\n        /* \"#utility.yul\":7091:7101   */\n      0x00\n        /* \"#utility.yul\":7112:7212   */\n      tag_512\n        /* \"#utility.yul\":7208:7211   */\n      dup4\n        /* \"#utility.yul\":7200:7206   */\n      dup4\n        /* \"#utility.yul\":7112:7212   */\n      tag_380\n      jump\t// in\n    tag_512:\n        /* \"#utility.yul\":7244:7248   */\n      0xc0\n        /* \"#utility.yul\":7239:7242   */\n      dup4\n        /* \"#utility.yul\":7235:7249   */\n      add\n        /* \"#utility.yul\":7221:7249   */\n      swap1\n      pop\n        /* \"#utility.yul\":6968:7255   */\n      swap3\n      swap2\n      pop\n      pop\n      jump\t// out\n        /* \"#utility.yul\":7261:7401   */\n    tag_382:\n        /* \"#utility.yul\":7358:7362   */\n      0x00\n        /* \"#utility.yul\":7390:7394   */\n      0x20\n        /* \"#utility.yul\":7385:7388   */\n      dup3\n        /* \"#utility.yul\":7381:7395   */\n      add\n        /* \"#utility.yul\":7373:7395   */\n      swap1\n      pop\n        /* \"#utility.yul\":7261:7401   */\n      swap2\n      swap1\n      pop\n      jump\t// out\n        /* \"#utility.yul\":7495:8443   */\n    tag_383:\n        /* \"#utility.yul\":7668:7671   */\n      0x00\n        /* \"#utility.yul\":7697:7778   */\n      tag_515\n        /* \"#utility.yul\":7772:7777   */\n      dup3\n        /* \"#utility.yul\":7697:7778   */\n      tag_377\n      jump\t// in\n    tag_515:\n        /* \"#utility.yul\":7794:7907   */\n      tag_516\n        /* \"#utility.yul\":7900:7906   */\n      dup2\n        /* \"#utility.yul\":7895:7898   */\n      dup6\n        /* \"#utility.yul\":7794:7907   */\n      tag_378\n      jump\t// in\n    tag_516:\n        /* \"#utility.yul\":7787:7907   */\n      swap4\n      pop\n        /* \"#utility.yul\":7931:8014   */\n      tag_517\n        /* \"#utility.yul\":8008:8013   */\n      dup4\n        /* \"#utility.yul\":7931:8014   */\n      tag_379\n      jump\t// in\n    tag_517:\n        /* \"#utility.yul\":8037:8044   */\n      dup1\n        /* \"#utility.yul\":8068:8069   */\n      0x00\n        /* \"#utility.yul\":8053:8418   */\n    tag_518:\n        /* \"#utility.yul\":8078:8084   */\n      dup4\n        /* \"#utility.yul\":8075:8076   */\n      dup2\n        /* \"#utility.yul\":8072:8085   */\n      lt\n        /* \"#utility.yul\":8053:8418   */\n      iszero\n      tag_520\n      jumpi\n        /* \"#utility.yul\":8154:8160   */\n      dup2\n        /* \"#utility.yul\":8148:8161   */\n      mload\n        /* \"#utility.yul\":8181:8298   */\n      tag_521\n        /* \"#utility.yul\":8294:8297   */\n      dup9\n        /* \"#utility.yul\":8279:8292   */\n      dup3\n        /* \"#utility.yul\":8181:8298   */\n      tag_381\n      jump\t// in\n    tag_521:\n        /* \"#utility.yul\":8174:8298   */\n      swap8\n      pop\n        /* \"#utility.yul\":8321:8408   */\n      tag_522\n        /* \"#utility.yul\":8401:8407   */\n      dup4\n        /* \"#utility.yul\":8321:8408   */\n      tag_382\n      jump\t// in\n    tag_522:\n        /* \"#utility.yul\":8311:8408   */\n      swap3\n      pop\n        /* \"#utility.yul\":8113:8418   */\n      pop\n        /* \"#utility.yul\":8100:8101   */\n      0x01\n        /* \"#utility.yul\":8097:8098   */\n      dup2\n        /* \"#utility.yul\":8093:8102   */\n      add\n        /* \"#utility.yul\":8088:8102   */\n      swap1\n      pop\n        /* \"#utility.yul\":8053:8418   */\n      jump(tag_518)\n    tag_520:\n        /* \"#utility.yul\":8057:8071   */\n      pop\n        /* \"#utility.yul\":8434:8437   */\n      dup6\n        /* \"#utility.yul\":8427:8437   */\n      swap4\n      pop\n        /* \"#utility.yul\":7673:8443   */\n      pop\n      pop\n      pop\n        /* \"#utility.yul\":7495:8443   */\n      swap3\n      swap2\n      pop\n      pop\n      jump\t// out\n        /* \"#utility.yul\":8449:8930   */\n    tag_50:\n        /* \"#utility.yul\":8646:8650   */\n      0x00\n        /* \"#utility.yul\":8684:8686   */\n      0x20\n        /* \"#utility.yul\":8673:8682   */\n      dup3\n        /* \"#utility.yul\":8669:8687   */\n      add\n        /* \"#utility.yul\":8661:8687   */\n      swap1\n      pop\n        /* \"#utility.yul\":8733:8742   */\n      dup2\n        /* \"#utility.yul\":8727:8731   */\n      dup2\n        /* \"#utility.yul\":8723:8743   */\n      sub\n        /* \"#utility.yul\":8719:8720   */\n      0x00\n        /* \"#utility.yul\":8708:8717   */\n      dup4\n        /* \"#utility.yul\":8704:8721   */\n      add\n        /* \"#utility.yul\":8697:8744   */\n      mstore\n        /* \"#utility.yul\":8761:8923   */\n      tag_524\n        /* \"#utility.yul\":8918:8922   */\n      dup2\n        /* \"#utility.yul\":8909:8915   */\n      dup5\n        /* \"#utility.yul\":8761:8923   */\n      tag_383\n      jump\t// in\n    tag_524:\n        /* \"#utility.yul\":8753:8923   */\n      swap1\n      pop\n        /* \"#utility.yul\":8449:8930   */\n      swap3\n      swap2\n      pop\n      pop\n      jump\t// out\n        /* \"#utility.yul\":8936:9085   */\n    tag_384:\n        /* \"#utility.yul\":8972:8979   */\n      0x00\n        /* \"#utility.yul\":9012:9078   */\n      0xffffffff00000000000000000000000000000000000000000000000000000000\n        /* \"#utility.yul\":9005:9010   */\n      dup3\n        /* \"#utility.yul\":9001:9079   */\n      and\n        /* \"#utility.yul\":8990:9079   */\n      swap1\n      pop\n        /* \"#utility.yul\":8936:9085   */\n      swap2\n      swap1\n      pop\n      jump\t// out\n        /* \"#utility.yul\":9091:9206   */\n    tag_385:\n        /* \"#utility.yul\":9176:9199   */\n      tag_527\n        /* \"#utility.yul\":9193:9198   */\n      dup2\n        /* \"#utility.yul\":9176:9199   */\n      tag_384\n      jump\t// in\n    tag_527:\n        /* \"#utility.yul\":9171:9174   */\n      dup3\n        /* \"#utility.yul\":9164:9200   */\n      mstore\n        /* \"#utility.yul\":9091:9206   */\n      pop\n      pop\n      jump\t// out\n        /* \"#utility.yul\":9212:9430   */\n    tag_64:\n        /* \"#utility.yul\":9303:9307   */\n      0x00\n        /* \"#utility.yul\":9341:9343   */\n      0x20\n        /* \"#utility.yul\":9330:9339   */\n      dup3\n        /* \"#utility.yul\":9326:9344   */\n      add\n        /* \"#utility.yul\":9318:9344   */\n      swap1\n      pop\n        /* \"#utility.yul\":9354:9423   */\n      tag_529\n        /* \"#utility.yul\":9420:9421   */\n      0x00\n        /* \"#utility.yul\":9409:9418   */\n      dup4\n        /* \"#utility.yul\":9405:9422   */\n      add\n        /* \"#utility.yul\":9396:9402   */\n      dup5\n        /* \"#utility.yul\":9354:9423   */\n      tag_385\n      jump\t// in\n    tag_529:\n        /* \"#utility.yul\":9212:9430   */\n      swap3\n      swap2\n      pop\n      pop\n      jump\t// out\n        /* \"#utility.yul\":9436:9910   */\n    tag_67:\n        /* \"#utility.yul\":9504:9510   */\n      0x00\n        /* \"#utility.yul\":9512:9518   */\n      dup1\n        /* \"#utility.yul\":9561:9563   */\n      0x40\n        /* \"#utility.yul\":9549:9558   */\n      dup4\n        /* \"#utility.yul\":9540:9547   */\n      dup6\n        /* \"#utility.yul\":9536:9559   */\n      sub\n        /* \"#utility.yul\":9532:9564   */\n      slt\n        /* \"#utility.yul\":9529:9648   */\n      iszero\n      tag_531\n      jumpi\n        /* \"#utility.yul\":9567:9646   */\n      tag_532\n      tag_368\n      jump\t// in\n    tag_532:\n        /* \"#utility.yul\":9529:9648   */\n    tag_531:\n        /* \"#utility.yul\":9687:9688   */\n      0x00\n        /* \"#utility.yul\":9712:9765   */\n      tag_533\n        /* \"#utility.yul\":9757:9764   */\n      dup6\n        /* \"#utility.yul\":9748:9754   */\n      dup3\n        /* \"#utility.yul\":9737:9746   */\n      dup7\n        /* \"#utility.yul\":9733:9755   */\n      add\n        /* \"#utility.yul\":9712:9765   */\n      tag_374\n      jump\t// in\n    tag_533:\n        /* \"#utility.yul\":9702:9765   */\n      swap3\n      pop\n        /* \"#utility.yul\":9658:9775   */\n      pop\n        /* \"#utility.yul\":9814:9816   */\n      0x20\n        /* \"#utility.yul\":9840:9893   */\n      tag_534\n        /* \"#utility.yul\":9885:9892   */\n      dup6\n        /* \"#utility.yul\":9876:9882   */\n      dup3\n        /* \"#utility.yul\":9865:9874   */\n      dup7\n        /* \"#utility.yul\":9861:9883   */\n      add\n        /* \"#utility.yul\":9840:9893   */\n      tag_374\n      jump\t// in\n    tag_534:\n        /* \"#utility.yul\":9830:9893   */\n      swap2\n      pop\n        /* \"#utility.yul\":9785:9903   */\n      pop\n        /* \"#utility.yul\":9436:9910   */\n      swap3\n      pop\n      swap3\n      swap1\n      pop\n      jump\t// out\n        /* \"#utility.yul\":9916:9976   */\n    tag_386:\n        /* \"#utility.yul\":9944:9947   */\n      0x00\n        /* \"#utility.yul\":9965:9970   */\n      dup2\n        /* \"#utility.yul\":9958:9970   */\n      swap1\n      pop\n        /* \"#utility.yul\":9916:9976   */\n      swap2\n      swap1\n      pop\n      jump\t// out\n        /* \"#utility.yul\":9982:10124   */\n    tag_387:\n        /* \"#utility.yul\":10032:10041   */\n      0x00\n        /* \"#utility.yul\":10065:10118   */\n      tag_537\n        /* \"#utility.yul\":10083:10117   */\n      tag_538\n        /* \"#utility.yul\":10092:10116   */\n      tag_539\n        /* \"#utility.yul\":10110:10115   */\n      dup5\n        /* \"#utility.yul\":10092:10116   */\n      tag_359\n      jump\t// in\n    tag_539:\n        /* \"#utility.yul\":10083:10117   */\n      tag_386\n      jump\t// in\n    tag_538:\n        /* \"#utility.yul\":10065:10118   */\n      tag_359\n      jump\t// in\n    tag_537:\n        /* \"#utility.yul\":10052:10118   */\n      swap1\n      pop\n        /* \"#utility.yul\":9982:10124   */\n      swap2\n      swap1\n      pop\n      jump\t// out\n        /* \"#utility.yul\":10130:10256   */\n    tag_388:\n        /* \"#utility.yul\":10180:10189   */\n      0x00\n        /* \"#utility.yul\":10213:10250   */\n      tag_541\n        /* \"#utility.yul\":10244:10249   */\n      dup3\n        /* \"#utility.yul\":10213:10250   */\n      tag_387\n      jump\t// in\n    tag_541:\n        /* \"#utility.yul\":10200:10250   */\n      swap1\n      pop\n        /* \"#utility.yul\":10130:10256   */\n      swap2\n      swap1\n      pop\n      jump\t// out\n        /* \"#utility.yul\":10262:10402   */\n    tag_389:\n        /* \"#utility.yul\":10326:10335   */\n      0x00\n        /* \"#utility.yul\":10359:10396   */\n      tag_543\n        /* \"#utility.yul\":10390:10395   */\n      dup3\n        /* \"#utility.yul\":10359:10396   */\n      tag_388\n      jump\t// in\n    tag_543:\n        /* \"#utility.yul\":10346:10396   */\n      swap1\n      pop\n        /* \"#utility.yul\":10262:10402   */\n      swap2\n      swap1\n      pop\n      jump\t// out\n        /* \"#utility.yul\":10408:10567   */\n    tag_390:\n        /* \"#utility.yul\":10509:10560   */\n      tag_545\n        /* \"#utility.yul\":10554:10559   */\n      dup2\n        /* \"#utility.yul\":10509:10560   */\n      tag_389\n      jump\t// in\n    tag_545:\n        /* \"#utility.yul\":10504:10507   */\n      dup3\n        /* \"#utility.yul\":10497:10561   */\n      mstore\n        /* \"#utility.yul\":10408:10567   */\n      pop\n      pop\n      jump\t// out\n        /* \"#utility.yul\":10573:10823   */\n    tag_73:\n        /* \"#utility.yul\":10680:10684   */\n      0x00\n        /* \"#utility.yul\":10718:10720   */\n      0x20\n        /* \"#utility.yul\":10707:10716   */\n      dup3\n        /* \"#utility.yul\":10703:10721   */\n      add\n        /* \"#utility.yul\":10695:10721   */\n      swap1\n      pop\n        /* \"#utility.yul\":10731:10816   */\n      tag_547\n        /* \"#utility.yul\":10813:10814   */\n      0x00\n        /* \"#utility.yul\":10802:10811   */\n      dup4\n        /* \"#utility.yul\":10798:10815   */\n      add\n        /* \"#utility.yul\":10789:10795   */\n      dup5\n        /* \"#utility.yul\":10731:10816   */\n      tag_390\n      jump\t// in\n    tag_547:\n        /* \"#utility.yul\":10573:10823   */\n      swap3\n      swap2\n      pop\n      pop\n      jump\t// out\n        /* \"#utility.yul\":10829:10947   */\n    tag_391:\n        /* \"#utility.yul\":10916:10940   */\n      tag_549\n        /* \"#utility.yul\":10934:10939   */\n      dup2\n        /* \"#utility.yul\":10916:10940   */\n      tag_357\n      jump\t// in\n    tag_549:\n        /* \"#utility.yul\":10911:10914   */\n      dup3\n        /* \"#utility.yul\":10904:10941   */\n      mstore\n        /* \"#utility.yul\":10829:10947   */\n      pop\n      pop\n      jump\t// out\n        /* \"#utility.yul\":10953:11095   */\n    tag_392:\n        /* \"#utility.yul\":11056:11088   */\n      tag_551\n        /* \"#utility.yul\":11082:11087   */\n      dup2\n        /* \"#utility.yul\":11056:11088   */\n      tag_360\n      jump\t// in\n    tag_551:\n        /* \"#utility.yul\":11051:11054   */\n      dup3\n        /* \"#utility.yul\":11044:11089   */\n      mstore\n        /* \"#utility.yul\":10953:11095   */\n      pop\n      pop\n      jump\t// out\n        /* \"#utility.yul\":11101:11256   */\n    tag_393:\n        /* \"#utility.yul\":11200:11249   */\n      tag_553\n        /* \"#utility.yul\":11243:11248   */\n      dup2\n        /* \"#utility.yul\":11200:11249   */\n      tag_364\n      jump\t// in\n    tag_553:\n        /* \"#utility.yul\":11195:11198   */\n      dup3\n        /* \"#utility.yul\":11188:11250   */\n      mstore\n        /* \"#utility.yul\":11101:11256   */\n      pop\n      pop\n      jump\t// out\n        /* \"#utility.yul\":11262:12125   */\n    tag_78:\n        /* \"#utility.yul\":11539:11543   */\n      0x00\n        /* \"#utility.yul\":11577:11580   */\n      0xc0\n        /* \"#utility.yul\":11566:11575   */\n      dup3\n        /* \"#utility.yul\":11562:11581   */\n      add\n        /* \"#utility.yul\":11554:11581   */\n      swap1\n      pop\n        /* \"#utility.yul\":11591:11662   */\n      tag_555\n        /* \"#utility.yul\":11659:11660   */\n      0x00\n        /* \"#utility.yul\":11648:11657   */\n      dup4\n        /* \"#utility.yul\":11644:11661   */\n      add\n        /* \"#utility.yul\":11635:11641   */\n      dup10\n        /* \"#utility.yul\":11591:11662   */\n      tag_391\n      jump\t// in\n    tag_555:\n        /* \"#utility.yul\":11672:11744   */\n      tag_556\n        /* \"#utility.yul\":11740:11742   */\n      0x20\n        /* \"#utility.yul\":11729:11738   */\n      dup4\n        /* \"#utility.yul\":11725:11743   */\n      add\n        /* \"#utility.yul\":11716:11722   */\n      dup9\n        /* \"#utility.yul\":11672:11744   */\n      tag_391\n      jump\t// in\n    tag_556:\n        /* \"#utility.yul\":11754:11842   */\n      tag_557\n        /* \"#utility.yul\":11838:11840   */\n      0x40\n        /* \"#utility.yul\":11827:11836   */\n      dup4\n        /* \"#utility.yul\":11823:11841   */\n      add\n        /* \"#utility.yul\":11814:11820   */\n      dup8\n        /* \"#utility.yul\":11754:11842   */\n      tag_392\n      jump\t// in\n    tag_557:\n        /* \"#utility.yul\":11852:11940   */\n      tag_558\n        /* \"#utility.yul\":11936:11938   */\n      0x60\n        /* \"#utility.yul\":11925:11934   */\n      dup4\n        /* \"#utility.yul\":11921:11939   */\n      add\n        /* \"#utility.yul\":11912:11918   */\n      dup7\n        /* \"#utility.yul\":11852:11940   */\n      tag_392\n      jump\t// in\n    tag_558:\n        /* \"#utility.yul\":11950:12023   */\n      tag_559\n        /* \"#utility.yul\":12018:12021   */\n      0x80\n        /* \"#utility.yul\":12007:12016   */\n      dup4\n        /* \"#utility.yul\":12003:12022   */\n      add\n        /* \"#utility.yul\":11994:12000   */\n      dup6\n        /* \"#utility.yul\":11950:12023   */\n      tag_391\n      jump\t// in\n    tag_559:\n        /* \"#utility.yul\":12033:12118   */\n      tag_560\n        /* \"#utility.yul\":12113:12116   */\n      0xa0\n        /* \"#utility.yul\":12102:12111   */\n      dup4\n        /* \"#utility.yul\":12098:12117   */\n      add\n        /* \"#utility.yul\":12089:12095   */\n      dup5\n        /* \"#utility.yul\":12033:12118   */\n      tag_393\n      jump\t// in\n    tag_560:\n        /* \"#utility.yul\":11262:12125   */\n      swap8\n      swap7\n      pop\n      pop\n      pop\n      pop\n      pop\n      pop\n      pop\n      jump\t// out\n        /* \"#utility.yul\":12131:12605   */\n    tag_86:\n        /* \"#utility.yul\":12199:12205   */\n      0x00\n        /* \"#utility.yul\":12207:12213   */\n      dup1\n        /* \"#utility.yul\":12256:12258   */\n      0x40\n        /* \"#utility.yul\":12244:12253   */\n      dup4\n        /* \"#utility.yul\":12235:12242   */\n      dup6\n        /* \"#utility.yul\":12231:12254   */\n      sub\n        /* \"#utility.yul\":12227:12259   */\n      slt\n        /* \"#utility.yul\":12224:12343   */\n      iszero\n      tag_562\n      jumpi\n        /* \"#utility.yul\":12262:12341   */\n      tag_563\n      tag_368\n      jump\t// in\n    tag_563:\n        /* \"#utility.yul\":12224:12343   */\n    tag_562:\n        /* \"#utility.yul\":12382:12383   */\n      0x00\n        /* \"#utility.yul\":12407:12460   */\n      tag_564\n        /* \"#utility.yul\":12452:12459   */\n      dup6\n        /* \"#utility.yul\":12443:12449   */\n      dup3\n        /* \"#utility.yul\":12432:12441   */\n      dup7\n        /* \"#utility.yul\":12428:12450   */\n      add\n        /* \"#utility.yul\":12407:12460   */\n      tag_372\n      jump\t// in\n    tag_564:\n        /* \"#utility.yul\":12397:12460   */\n      swap3\n      pop\n        /* \"#utility.yul\":12353:12470   */\n      pop\n        /* \"#utility.yul\":12509:12511   */\n      0x20\n        /* \"#utility.yul\":12535:12588   */\n      tag_565\n        /* \"#utility.yul\":12580:12587   */\n      dup6\n        /* \"#utility.yul\":12571:12577   */\n      dup3\n        /* \"#utility.yul\":12560:12569   */\n      dup7\n        /* \"#utility.yul\":12556:12578   */\n      add\n        /* \"#utility.yul\":12535:12588   */\n      tag_374\n      jump\t// in\n    tag_565:\n        /* \"#utility.yul\":12525:12588   */\n      swap2\n      pop\n        /* \"#utility.yul\":12480:12598   */\n      pop\n        /* \"#utility.yul\":12131:12605   */\n      swap3\n      pop\n      swap3\n      swap1\n      pop\n      jump\t// out\n        /* \"#utility.yul\":12611:12697   */\n    tag_394:\n        /* \"#utility.yul\":12646:12653   */\n      0x00\n        /* \"#utility.yul\":12686:12690   */\n      0xff\n        /* \"#utility.yul\":12679:12684   */\n      dup3\n        /* \"#utility.yul\":12675:12691   */\n      and\n        /* \"#utility.yul\":12664:12691   */\n      swap1\n      pop\n        /* \"#utility.yul\":12611:12697   */\n      swap2\n      swap1\n      pop\n      jump\t// out\n        /* \"#utility.yul\":12703:12815   */\n    tag_395:\n        /* \"#utility.yul\":12786:12808   */\n      tag_568\n        /* \"#utility.yul\":12802:12807   */\n      dup2\n        /* \"#utility.yul\":12786:12808   */\n      tag_394\n      jump\t// in\n    tag_568:\n        /* \"#utility.yul\":12781:12784   */\n      dup3\n        /* \"#utility.yul\":12774:12809   */\n      mstore\n        /* \"#utility.yul\":12703:12815   */\n      pop\n      pop\n      jump\t// out\n        /* \"#utility.yul\":12821:13035   */\n    tag_96:\n        /* \"#utility.yul\":12910:12914   */\n      0x00\n        /* \"#utility.yul\":12948:12950   */\n      0x20\n        /* \"#utility.yul\":12937:12946   */\n      dup3\n        /* \"#utility.yul\":12933:12951   */\n      add\n        /* \"#utility.yul\":12925:12951   */\n      swap1\n      pop\n        /* \"#utility.yul\":12961:13028   */\n      tag_570\n        /* \"#utility.yul\":13025:13026   */\n      0x00\n        /* \"#utility.yul\":13014:13023   */\n      dup4\n        /* \"#utility.yul\":13010:13027   */\n      add\n        /* \"#utility.yul\":13001:13007   */\n      dup5\n        /* \"#utility.yul\":12961:13028   */\n      tag_395\n      jump\t// in\n    tag_570:\n        /* \"#utility.yul\":12821:13035   */\n      swap3\n      swap2\n      pop\n      pop\n      jump\t// out\n        /* \"#utility.yul\":13041:13159   */\n    tag_396:\n        /* \"#utility.yul\":13128:13152   */\n      tag_572\n        /* \"#utility.yul\":13146:13151   */\n      dup2\n        /* \"#utility.yul\":13128:13152   */\n      tag_370\n      jump\t// in\n    tag_572:\n        /* \"#utility.yul\":13123:13126   */\n      dup3\n        /* \"#utility.yul\":13116:13153   */\n      mstore\n        /* \"#utility.yul\":13041:13159   */\n      pop\n      pop\n      jump\t// out\n        /* \"#utility.yul\":13165:13387   */\n    tag_101:\n        /* \"#utility.yul\":13258:13262   */\n      0x00\n        /* \"#utility.yul\":13296:13298   */\n      0x20\n        /* \"#utility.yul\":13285:13294   */\n      dup3\n        /* \"#utility.yul\":13281:13299   */\n      add\n        /* \"#utility.yul\":13273:13299   */\n      swap1\n      pop\n        /* \"#utility.yul\":13309:13380   */\n      tag_574\n        /* \"#utility.yul\":13377:13378   */\n      0x00\n        /* \"#utility.yul\":13366:13375   */\n      dup4\n        /* \"#utility.yul\":13362:13379   */\n      add\n        /* \"#utility.yul\":13353:13359   */\n      dup5\n        /* \"#utility.yul\":13309:13380   */\n      tag_396\n      jump\t// in\n    tag_574:\n        /* \"#utility.yul\":13165:13387   */\n      swap3\n      swap2\n      pop\n      pop\n      jump\t// out\n        /* \"#utility.yul\":13393:13535   */\n    tag_397:\n        /* \"#utility.yul\":13459:13468   */\n      0x00\n        /* \"#utility.yul\":13492:13529   */\n      tag_576\n        /* \"#utility.yul\":13523:13528   */\n      dup3\n        /* \"#utility.yul\":13492:13529   */\n      tag_388\n      jump\t// in\n    tag_576:\n        /* \"#utility.yul\":13479:13529   */\n      swap1\n      pop\n        /* \"#utility.yul\":13393:13535   */\n      swap2\n      swap1\n      pop\n      jump\t// out\n        /* \"#utility.yul\":13541:13704   */\n    tag_398:\n        /* \"#utility.yul\":13644:13697   */\n      tag_578\n        /* \"#utility.yul\":13691:13696   */\n      dup2\n        /* \"#utility.yul\":13644:13697   */\n      tag_397\n      jump\t// in\n    tag_578:\n        /* \"#utility.yul\":13639:13642   */\n      dup3\n        /* \"#utility.yul\":13632:13698   */\n      mstore\n        /* \"#utility.yul\":13541:13704   */\n      pop\n      pop\n      jump\t// out\n        /* \"#utility.yul\":13710:13964   */\n    tag_118:\n        /* \"#utility.yul\":13819:13823   */\n      0x00\n        /* \"#utility.yul\":13857:13859   */\n      0x20\n        /* \"#utility.yul\":13846:13855   */\n      dup3\n        /* \"#utility.yul\":13842:13860   */\n      add\n        /* \"#utility.yul\":13834:13860   */\n      swap1\n      pop\n        /* \"#utility.yul\":13870:13957   */\n      tag_580\n        /* \"#utility.yul\":13954:13955   */\n      0x00\n        /* \"#utility.yul\":13943:13952   */\n      dup4\n        /* \"#utility.yul\":13939:13956   */\n      add\n        /* \"#utility.yul\":13930:13936   */\n      dup5\n        /* \"#utility.yul\":13870:13957   */\n      tag_398\n      jump\t// in\n    tag_580:\n        /* \"#utility.yul\":13710:13964   */\n      swap3\n      swap2\n      pop\n      pop\n      jump\t// out\n        /* \"#utility.yul\":13970:14111   */\n    tag_399:\n        /* \"#utility.yul\":14035:14044   */\n      0x00\n        /* \"#utility.yul\":14068:14105   */\n      tag_582\n        /* \"#utility.yul\":14099:14104   */\n      dup3\n        /* \"#utility.yul\":14068:14105   */\n      tag_388\n      jump\t// in\n    tag_582:\n        /* \"#utility.yul\":14055:14105   */\n      swap1\n      pop\n        /* \"#utility.yul\":13970:14111   */\n      swap2\n      swap1\n      pop\n      jump\t// out\n        /* \"#utility.yul\":14117:14278   */\n    tag_400:\n        /* \"#utility.yul\":14219:14271   */\n      tag_584\n        /* \"#utility.yul\":14265:14270   */\n      dup2\n        /* \"#utility.yul\":14219:14271   */\n      tag_399\n      jump\t// in\n    tag_584:\n        /* \"#utility.yul\":14214:14217   */\n      dup3\n        /* \"#utility.yul\":14207:14272   */\n      mstore\n        /* \"#utility.yul\":14117:14278   */\n      pop\n      pop\n      jump\t// out\n        /* \"#utility.yul\":14284:14536   */\n    tag_137:\n        /* \"#utility.yul\":14392:14396   */\n      0x00\n        /* \"#utility.yul\":14430:14432   */\n      0x20\n        /* \"#utility.yul\":14419:14428   */\n      dup3\n        /* \"#utility.yul\":14415:14433   */\n      add\n        /* \"#utility.yul\":14407:14433   */\n      swap1\n      pop\n        /* \"#utility.yul\":14443:14529   */\n      tag_586\n        /* \"#utility.yul\":14526:14527   */\n      0x00\n        /* \"#utility.yul\":14515:14524   */\n      dup4\n        /* \"#utility.yul\":14511:14528   */\n      add\n        /* \"#utility.yul\":14502:14508   */\n      dup5\n        /* \"#utility.yul\":14443:14529   */\n      tag_400\n      jump\t// in\n    tag_586:\n        /* \"#utility.yul\":14284:14536   */\n      swap3\n      swap2\n      pop\n      pop\n      jump\t// out\n        /* \"#utility.yul\":14542:14711   */\n    tag_401:\n        /* \"#utility.yul\":14626:14637   */\n      0x00\n        /* \"#utility.yul\":14660:14666   */\n      dup3\n        /* \"#utility.yul\":14655:14658   */\n      dup3\n        /* \"#utility.yul\":14648:14667   */\n      mstore\n        /* \"#utility.yul\":14700:14704   */\n      0x20\n        /* \"#utility.yul\":14695:14698   */\n      dup3\n        /* \"#utility.yul\":14691:14705   */\n      add\n        /* \"#utility.yul\":14676:14705   */\n      swap1\n      pop\n        /* \"#utility.yul\":14542:14711   */\n      swap3\n      swap2\n      pop\n      pop\n      jump\t// out\n        /* \"#utility.yul\":14717:14899   */\n    tag_402:\n        /* \"#utility.yul\":14857:14891   */\n      0x4f776e61626c653a2063616c6c6572206973206e6f7420746865206f776e6572\n        /* \"#utility.yul\":14853:14854   */\n      0x00\n        /* \"#utility.yul\":14845:14851   */\n      dup3\n        /* \"#utility.yul\":14841:14855   */\n      add\n        /* \"#utility.yul\":14834:14892   */\n      mstore\n        /* \"#utility.yul\":14717:14899   */\n      pop\n      jump\t// out\n        /* \"#utility.yul\":14905:15271   */\n    tag_403:\n        /* \"#utility.yul\":15047:15050   */\n      0x00\n        /* \"#utility.yul\":15068:15135   */\n      tag_590\n        /* \"#utility.yul\":15132:15134   */\n      0x20\n        /* \"#utility.yul\":15127:15130   */\n      dup4\n        /* \"#utility.yul\":15068:15135   */\n      tag_401\n      jump\t// in\n    tag_590:\n        /* \"#utility.yul\":15061:15135   */\n      swap2\n      pop\n        /* \"#utility.yul\":15144:15237   */\n      tag_591\n        /* \"#utility.yul\":15233:15236   */\n      dup3\n        /* \"#utility.yul\":15144:15237   */\n      tag_402\n      jump\t// in\n    tag_591:\n        /* \"#utility.yul\":15262:15264   */\n      0x20\n        /* \"#utility.yul\":15257:15260   */\n      dup3\n        /* \"#utility.yul\":15253:15265   */\n      add\n        /* \"#utility.yul\":15246:15265   */\n      swap1\n      pop\n        /* \"#utility.yul\":14905:15271   */\n      swap2\n      swap1\n      pop\n      jump\t// out\n        /* \"#utility.yul\":15277:15696   */\n    tag_157:\n        /* \"#utility.yul\":15443:15447   */\n      0x00\n        /* \"#utility.yul\":15481:15483   */\n      0x20\n        /* \"#utility.yul\":15470:15479   */\n      dup3\n        /* \"#utility.yul\":15466:15484   */\n      add\n        /* \"#utility.yul\":15458:15484   */\n      swap1\n      pop\n        /* \"#utility.yul\":15530:15539   */\n      dup2\n        /* \"#utility.yul\":15524:15528   */\n      dup2\n        /* \"#utility.yul\":15520:15540   */\n      sub\n        /* \"#utility.yul\":15516:15517   */\n      0x00\n        /* \"#utility.yul\":15505:15514   */\n      dup4\n        /* \"#utility.yul\":15501:15518   */\n      add\n        /* \"#utility.yul\":15494:15541   */\n      mstore\n        /* \"#utility.yul\":15558:15689   */\n      tag_593\n        /* \"#utility.yul\":15684:15688   */\n      dup2\n        /* \"#utility.yul\":15558:15689   */\n      tag_403\n      jump\t// in\n    tag_593:\n        /* \"#utility.yul\":15550:15689   */\n      swap1\n      pop\n        /* \"#utility.yul\":15277:15696   */\n      swap2\n      swap1\n      pop\n      jump\t// out\n        /* \"#utility.yul\":15702:15924   */\n    tag_161:\n        /* \"#utility.yul\":15795:15799   */\n      0x00\n        /* \"#utility.yul\":15833:15835   */\n      0x20\n        /* \"#utility.yul\":15822:15831   */\n      dup3\n        /* \"#utility.yul\":15818:15836   */\n      add\n        /* \"#utility.yul\":15810:15836   */\n      swap1\n      pop\n        /* \"#utility.yul\":15846:15917   */\n      tag_595\n        /* \"#utility.yul\":15914:15915   */\n      0x00\n        /* \"#utility.yul\":15903:15912   */\n      dup4\n        /* \"#utility.yul\":15899:15916   */\n      add\n        /* \"#utility.yul\":15890:15896   */\n      dup5\n        /* \"#utility.yul\":15846:15917   */\n      tag_391\n      jump\t// in\n    tag_595:\n        /* \"#utility.yul\":15702:15924   */\n      swap3\n      swap2\n      pop\n      pop\n      jump\t// out\n        /* \"#utility.yul\":15930:16047   */\n    tag_404:\n        /* \"#utility.yul\":16039:16040   */\n      0x00\n        /* \"#utility.yul\":16036:16037   */\n      dup1\n        /* \"#utility.yul\":16029:16041   */\n      revert\n        /* \"#utility.yul\":16053:16155   */\n    tag_405:\n        /* \"#utility.yul\":16094:16100   */\n      0x00\n        /* \"#utility.yul\":16145:16147   */\n      0x1f\n        /* \"#utility.yul\":16141:16148   */\n      not\n        /* \"#utility.yul\":16136:16138   */\n      0x1f\n        /* \"#utility.yul\":16129:16134   */\n      dup4\n        /* \"#utility.yul\":16125:16139   */\n      add\n        /* \"#utility.yul\":16121:16149   */\n      and\n        /* \"#utility.yul\":16111:16149   */\n      swap1\n      pop\n        /* \"#utility.yul\":16053:16155   */\n      swap2\n      swap1\n      pop\n      jump\t// out\n        /* \"#utility.yul\":16161:16341   */\n    tag_180:\n        /* \"#utility.yul\":16209:16286   */\n      0x4e487b7100000000000000000000000000000000000000000000000000000000\n        /* \"#utility.yul\":16206:16207   */\n      0x00\n        /* \"#utility.yul\":16199:16287   */\n      mstore\n        /* \"#utility.yul\":16306:16310   */\n      0x41\n        /* \"#utility.yul\":16303:16304   */\n      0x04\n        /* \"#utility.yul\":16296:16311   */\n      mstore\n        /* \"#utility.yul\":16330:16334   */\n      0x24\n        /* \"#utility.yul\":16327:16328   */\n      0x00\n        /* \"#utility.yul\":16320:16335   */\n      revert\n        /* \"#utility.yul\":16347:16628   */\n    tag_406:\n        /* \"#utility.yul\":16430:16457   */\n      tag_600\n        /* \"#utility.yul\":16452:16456   */\n      dup3\n        /* \"#utility.yul\":16430:16457   */\n      tag_405\n      jump\t// in\n    tag_600:\n        /* \"#utility.yul\":16422:16428   */\n      dup2\n        /* \"#utility.yul\":16418:16458   */\n      add\n        /* \"#utility.yul\":16560:16566   */\n      dup2\n        /* \"#utility.yul\":16548:16558   */\n      dup2\n        /* \"#utility.yul\":16545:16567   */\n      lt\n        /* \"#utility.yul\":16524:16542   */\n      0xffffffffffffffff\n        /* \"#utility.yul\":16512:16522   */\n      dup3\n        /* \"#utility.yul\":16509:16543   */\n      gt\n        /* \"#utility.yul\":16506:16568   */\n      or\n        /* \"#utility.yul\":16503:16591   */\n      iszero\n      tag_601\n      jumpi\n        /* \"#utility.yul\":16571:16589   */\n      tag_602\n      tag_180\n      jump\t// in\n    tag_602:\n        /* \"#utility.yul\":16503:16591   */\n    tag_601:\n        /* \"#utility.yul\":16611:16621   */\n      dup1\n        /* \"#utility.yul\":16607:16609   */\n      0x40\n        /* \"#utility.yul\":16600:16622   */\n      mstore\n        /* \"#utility.yul\":16390:16628   */\n      pop\n        /* \"#utility.yul\":16347:16628   */\n      pop\n      pop\n      jump\t// out\n        /* \"#utility.yul\":16634:16763   */\n    tag_407:\n        /* \"#utility.yul\":16668:16674   */\n      0x00\n        /* \"#utility.yul\":16695:16715   */\n      tag_604\n      tag_367\n      jump\t// in\n    tag_604:\n        /* \"#utility.yul\":16685:16715   */\n      swap1\n      pop\n        /* \"#utility.yul\":16724:16757   */\n      tag_605\n        /* \"#utility.yul\":16752:16756   */\n      dup3\n        /* \"#utility.yul\":16744:16750   */\n      dup3\n        /* \"#utility.yul\":16724:16757   */\n      tag_406\n      jump\t// in\n    tag_605:\n        /* \"#utility.yul\":16634:16763   */\n      swap2\n      swap1\n      pop\n      jump\t// out\n        /* \"#utility.yul\":16769:16886   */\n    tag_408:\n        /* \"#utility.yul\":16878:16879   */\n      0x00\n        /* \"#utility.yul\":16875:16876   */\n      dup1\n        /* \"#utility.yul\":16868:16880   */\n      revert\n        /* \"#utility.yul\":16892:17035   */\n    tag_409:\n        /* \"#utility.yul\":16949:16954   */\n      0x00\n        /* \"#utility.yul\":16980:16986   */\n      dup2\n        /* \"#utility.yul\":16974:16987   */\n      mload\n        /* \"#utility.yul\":16965:16987   */\n      swap1\n      pop\n        /* \"#utility.yul\":16996:17029   */\n      tag_608\n        /* \"#utility.yul\":17023:17028   */\n      dup2\n        /* \"#utility.yul\":16996:17029   */\n      tag_373\n      jump\t// in\n    tag_608:\n        /* \"#utility.yul\":16892:17035   */\n      swap3\n      swap2\n      pop\n      pop\n      jump\t// out\n        /* \"#utility.yul\":17041:17184   */\n    tag_410:\n        /* \"#utility.yul\":17098:17103   */\n      0x00\n        /* \"#utility.yul\":17129:17135   */\n      dup2\n        /* \"#utility.yul\":17123:17136   */\n      mload\n        /* \"#utility.yul\":17114:17136   */\n      swap1\n      pop\n        /* \"#utility.yul\":17145:17178   */\n      tag_610\n        /* \"#utility.yul\":17172:17177   */\n      dup2\n        /* \"#utility.yul\":17145:17178   */\n      tag_371\n      jump\t// in\n    tag_610:\n        /* \"#utility.yul\":17041:17184   */\n      swap3\n      swap2\n      pop\n      pop\n      jump\t// out\n        /* \"#utility.yul\":17190:17307   */\n    tag_411:\n        /* \"#utility.yul\":17299:17300   */\n      0x00\n        /* \"#utility.yul\":17296:17297   */\n      dup1\n        /* \"#utility.yul\":17289:17301   */\n      revert\n        /* \"#utility.yul\":17313:17430   */\n    tag_412:\n        /* \"#utility.yul\":17422:17423   */\n      0x00\n        /* \"#utility.yul\":17419:17420   */\n      dup1\n        /* \"#utility.yul\":17412:17424   */\n      revert\n        /* \"#utility.yul\":17436:17744   */\n    tag_413:\n        /* \"#utility.yul\":17498:17502   */\n      0x00\n        /* \"#utility.yul\":17588:17606   */\n      0xffffffffffffffff\n        /* \"#utility.yul\":17580:17586   */\n      dup3\n        /* \"#utility.yul\":17577:17607   */\n      gt\n        /* \"#utility.yul\":17574:17630   */\n      iszero\n      tag_614\n      jumpi\n        /* \"#utility.yul\":17610:17628   */\n      tag_615\n      tag_180\n      jump\t// in\n    tag_615:\n        /* \"#utility.yul\":17574:17630   */\n    tag_614:\n        /* \"#utility.yul\":17648:17677   */\n      tag_616\n        /* \"#utility.yul\":17670:17676   */\n      dup3\n        /* \"#utility.yul\":17648:17677   */\n      tag_405\n      jump\t// in\n    tag_616:\n        /* \"#utility.yul\":17640:17677   */\n      swap1\n      pop\n        /* \"#utility.yul\":17732:17736   */\n      0x20\n        /* \"#utility.yul\":17726:17730   */\n      dup2\n        /* \"#utility.yul\":17722:17737   */\n      add\n        /* \"#utility.yul\":17714:17737   */\n      swap1\n      pop\n        /* \"#utility.yul\":17436:17744   */\n      swap2\n      swap1\n      pop\n      jump\t// out\n        /* \"#utility.yul\":17750:18057   */\n    tag_414:\n        /* \"#utility.yul\":17818:17819   */\n      0x00\n        /* \"#utility.yul\":17828:17941   */\n    tag_618:\n        /* \"#utility.yul\":17842:17848   */\n      dup4\n        /* \"#utility.yul\":17839:17840   */\n      dup2\n        /* \"#utility.yul\":17836:17849   */\n      lt\n        /* \"#utility.yul\":17828:17941   */\n      iszero\n      tag_620\n      jumpi\n        /* \"#utility.yul\":17927:17928   */\n      dup1\n        /* \"#utility.yul\":17922:17925   */\n      dup3\n        /* \"#utility.yul\":17918:17929   */\n      add\n        /* \"#utility.yul\":17912:17930   */\n      mload\n        /* \"#utility.yul\":17908:17909   */\n      dup2\n        /* \"#utility.yul\":17903:17906   */\n      dup5\n        /* \"#utility.yul\":17899:17910   */\n      add\n        /* \"#utility.yul\":17892:17931   */\n      mstore\n        /* \"#utility.yul\":17864:17866   */\n      0x20\n        /* \"#utility.yul\":17861:17862   */\n      dup2\n        /* \"#utility.yul\":17857:17867   */\n      add\n        /* \"#utility.yul\":17852:17867   */\n      swap1\n      pop\n        /* \"#utility.yul\":17828:17941   */\n      jump(tag_618)\n    tag_620:\n        /* \"#utility.yul\":17959:17965   */\n      dup4\n        /* \"#utility.yul\":17956:17957   */\n      dup2\n        /* \"#utility.yul\":17953:17966   */\n      gt\n        /* \"#utility.yul\":17950:18051   */\n      iszero\n      tag_621\n      jumpi\n        /* \"#utility.yul\":18039:18040   */\n      0x00\n        /* \"#utility.yul\":18030:18036   */\n      dup5\n        /* \"#utility.yul\":18025:18028   */\n      dup5\n        /* \"#utility.yul\":18021:18037   */\n      add\n        /* \"#utility.yul\":18014:18041   */\n      mstore\n        /* \"#utility.yul\":17950:18051   */\n    tag_621:\n        /* \"#utility.yul\":17799:18057   */\n      pop\n        /* \"#utility.yul\":17750:18057   */\n      pop\n      pop\n      pop\n      jump\t// out\n        /* \"#utility.yul\":18063:18484   */\n    tag_415:\n        /* \"#utility.yul\":18152:18157   */\n      0x00\n        /* \"#utility.yul\":18177:18243   */\n      tag_623\n        /* \"#utility.yul\":18193:18242   */\n      tag_624\n        /* \"#utility.yul\":18235:18241   */\n      dup5\n        /* \"#utility.yul\":18193:18242   */\n      tag_413\n      jump\t// in\n    tag_624:\n        /* \"#utility.yul\":18177:18243   */\n      tag_407\n      jump\t// in\n    tag_623:\n        /* \"#utility.yul\":18168:18243   */\n      swap1\n      pop\n        /* \"#utility.yul\":18266:18272   */\n      dup3\n        /* \"#utility.yul\":18259:18264   */\n      dup2\n        /* \"#utility.yul\":18252:18273   */\n      mstore\n        /* \"#utility.yul\":18304:18308   */\n      0x20\n        /* \"#utility.yul\":18297:18302   */\n      dup2\n        /* \"#utility.yul\":18293:18309   */\n      add\n        /* \"#utility.yul\":18342:18345   */\n      dup5\n        /* \"#utility.yul\":18333:18339   */\n      dup5\n        /* \"#utility.yul\":18328:18331   */\n      dup5\n        /* \"#utility.yul\":18324:18340   */\n      add\n        /* \"#utility.yul\":18321:18346   */\n      gt\n        /* \"#utility.yul\":18318:18430   */\n      iszero\n      tag_625\n      jumpi\n        /* \"#utility.yul\":18349:18428   */\n      tag_626\n      tag_412\n      jump\t// in\n    tag_626:\n        /* \"#utility.yul\":18318:18430   */\n    tag_625:\n        /* \"#utility.yul\":18439:18478   */\n      tag_627\n        /* \"#utility.yul\":18471:18477   */\n      dup5\n        /* \"#utility.yul\":18466:18469   */\n      dup3\n        /* \"#utility.yul\":18461:18464   */\n      dup6\n        /* \"#utility.yul\":18439:18478   */\n      tag_414\n      jump\t// in\n    tag_627:\n        /* \"#utility.yul\":18158:18484   */\n      pop\n        /* \"#utility.yul\":18063:18484   */\n      swap4\n      swap3\n      pop\n      pop\n      pop\n      jump\t// out\n        /* \"#utility.yul\":18504:18859   */\n    tag_416:\n        /* \"#utility.yul\":18571:18576   */\n      0x00\n        /* \"#utility.yul\":18620:18623   */\n      dup3\n        /* \"#utility.yul\":18613:18617   */\n      0x1f\n        /* \"#utility.yul\":18605:18611   */\n      dup4\n        /* \"#utility.yul\":18601:18618   */\n      add\n        /* \"#utility.yul\":18597:18624   */\n      slt\n        /* \"#utility.yul\":18587:18709   */\n      tag_629\n      jumpi\n        /* \"#utility.yul\":18628:18707   */\n      tag_630\n      tag_411\n      jump\t// in\n    tag_630:\n        /* \"#utility.yul\":18587:18709   */\n    tag_629:\n        /* \"#utility.yul\":18738:18744   */\n      dup2\n        /* \"#utility.yul\":18732:18745   */\n      mload\n        /* \"#utility.yul\":18763:18853   */\n      tag_631\n        /* \"#utility.yul\":18849:18852   */\n      dup5\n        /* \"#utility.yul\":18841:18847   */\n      dup3\n        /* \"#utility.yul\":18834:18838   */\n      0x20\n        /* \"#utility.yul\":18826:18832   */\n      dup7\n        /* \"#utility.yul\":18822:18839   */\n      add\n        /* \"#utility.yul\":18763:18853   */\n      tag_415\n      jump\t// in\n    tag_631:\n        /* \"#utility.yul\":18754:18853   */\n      swap2\n      pop\n        /* \"#utility.yul\":18577:18859   */\n      pop\n        /* \"#utility.yul\":18504:18859   */\n      swap3\n      swap2\n      pop\n      pop\n      jump\t// out\n        /* \"#utility.yul\":18865:18981   */\n    tag_417:\n        /* \"#utility.yul\":18935:18956   */\n      tag_633\n        /* \"#utility.yul\":18950:18955   */\n      dup2\n        /* \"#utility.yul\":18935:18956   */\n      tag_375\n      jump\t// in\n    tag_633:\n        /* \"#utility.yul\":18928:18933   */\n      dup2\n        /* \"#utility.yul\":18925:18957   */\n      eq\n        /* \"#utility.yul\":18915:18975   */\n      tag_634\n      jumpi\n        /* \"#utility.yul\":18971:18972   */\n      0x00\n        /* \"#utility.yul\":18968:18969   */\n      dup1\n        /* \"#utility.yul\":18961:18973   */\n      revert\n        /* \"#utility.yul\":18915:18975   */\n    tag_634:\n        /* \"#utility.yul\":18865:18981   */\n      pop\n      jump\t// out\n        /* \"#utility.yul\":18987:19124   */\n    tag_418:\n        /* \"#utility.yul\":19041:19046   */\n      0x00\n        /* \"#utility.yul\":19072:19078   */\n      dup2\n        /* \"#utility.yul\":19066:19079   */\n      mload\n        /* \"#utility.yul\":19057:19079   */\n      swap1\n      pop\n        /* \"#utility.yul\":19088:19118   */\n      tag_636\n        /* \"#utility.yul\":19112:19117   */\n      dup2\n        /* \"#utility.yul\":19088:19118   */\n      tag_417\n      jump\t// in\n    tag_636:\n        /* \"#utility.yul\":18987:19124   */\n      swap3\n      swap2\n      pop\n      pop\n      jump\t// out\n        /* \"#utility.yul\":19165:20624   */\n    tag_419:\n        /* \"#utility.yul\":19253:19258   */\n      0x00\n        /* \"#utility.yul\":19297:19301   */\n      0xa0\n        /* \"#utility.yul\":19285:19294   */\n      dup3\n        /* \"#utility.yul\":19280:19283   */\n      dup5\n        /* \"#utility.yul\":19276:19295   */\n      sub\n        /* \"#utility.yul\":19272:19302   */\n      slt\n        /* \"#utility.yul\":19269:19386   */\n      iszero\n      tag_638\n      jumpi\n        /* \"#utility.yul\":19305:19384   */\n      tag_639\n      tag_404\n      jump\t// in\n    tag_639:\n        /* \"#utility.yul\":19269:19386   */\n    tag_638:\n        /* \"#utility.yul\":19404:19425   */\n      tag_640\n        /* \"#utility.yul\":19420:19424   */\n      0xa0\n        /* \"#utility.yul\":19404:19425   */\n      tag_407\n      jump\t// in\n    tag_640:\n        /* \"#utility.yul\":19395:19425   */\n      swap1\n      pop\n        /* \"#utility.yul\":19482:19483   */\n      0x00\n        /* \"#utility.yul\":19522:19582   */\n      tag_641\n        /* \"#utility.yul\":19578:19581   */\n      dup5\n        /* \"#utility.yul\":19569:19575   */\n      dup3\n        /* \"#utility.yul\":19558:19567   */\n      dup6\n        /* \"#utility.yul\":19554:19576   */\n      add\n        /* \"#utility.yul\":19522:19582   */\n      tag_409\n      jump\t// in\n    tag_641:\n        /* \"#utility.yul\":19515:19519   */\n      0x00\n        /* \"#utility.yul\":19508:19513   */\n      dup4\n        /* \"#utility.yul\":19504:19520   */\n      add\n        /* \"#utility.yul\":19497:19583   */\n      mstore\n        /* \"#utility.yul\":19435:19594   */\n      pop\n        /* \"#utility.yul\":19654:19656   */\n      0x20\n        /* \"#utility.yul\":19695:19755   */\n      tag_642\n        /* \"#utility.yul\":19751:19754   */\n      dup5\n        /* \"#utility.yul\":19742:19748   */\n      dup3\n        /* \"#utility.yul\":19731:19740   */\n      dup6\n        /* \"#utility.yul\":19727:19749   */\n      add\n        /* \"#utility.yul\":19695:19755   */\n      tag_410\n      jump\t// in\n    tag_642:\n        /* \"#utility.yul\":19688:19692   */\n      0x20\n        /* \"#utility.yul\":19681:19686   */\n      dup4\n        /* \"#utility.yul\":19677:19693   */\n      add\n        /* \"#utility.yul\":19670:19756   */\n      mstore\n        /* \"#utility.yul\":19604:19767   */\n      pop\n        /* \"#utility.yul\":19849:19851   */\n      0x40\n        /* \"#utility.yul\":19838:19847   */\n      dup3\n        /* \"#utility.yul\":19834:19852   */\n      add\n        /* \"#utility.yul\":19828:19853   */\n      mload\n        /* \"#utility.yul\":19880:19898   */\n      0xffffffffffffffff\n        /* \"#utility.yul\":19872:19878   */\n      dup2\n        /* \"#utility.yul\":19869:19899   */\n      gt\n        /* \"#utility.yul\":19866:19983   */\n      iszero\n      tag_643\n      jumpi\n        /* \"#utility.yul\":19902:19981   */\n      tag_644\n      tag_408\n      jump\t// in\n    tag_644:\n        /* \"#utility.yul\":19866:19983   */\n    tag_643:\n        /* \"#utility.yul\":20022:20092   */\n      tag_645\n        /* \"#utility.yul\":20088:20091   */\n      dup5\n        /* \"#utility.yul\":20079:20085   */\n      dup3\n        /* \"#utility.yul\":20068:20077   */\n      dup6\n        /* \"#utility.yul\":20064:20086   */\n      add\n        /* \"#utility.yul\":20022:20092   */\n      tag_416\n      jump\t// in\n    tag_645:\n        /* \"#utility.yul\":20015:20019   */\n      0x40\n        /* \"#utility.yul\":20008:20013   */\n      dup4\n        /* \"#utility.yul\":20004:20020   */\n      add\n        /* \"#utility.yul\":19997:20093   */\n      mstore\n        /* \"#utility.yul\":19777:20104   */\n      pop\n        /* \"#utility.yul\":20190:20192   */\n      0x60\n        /* \"#utility.yul\":20179:20188   */\n      dup3\n        /* \"#utility.yul\":20175:20193   */\n      add\n        /* \"#utility.yul\":20169:20194   */\n      mload\n        /* \"#utility.yul\":20221:20239   */\n      0xffffffffffffffff\n        /* \"#utility.yul\":20213:20219   */\n      dup2\n        /* \"#utility.yul\":20210:20240   */\n      gt\n        /* \"#utility.yul\":20207:20324   */\n      iszero\n      tag_646\n      jumpi\n        /* \"#utility.yul\":20243:20322   */\n      tag_647\n      tag_408\n      jump\t// in\n    tag_647:\n        /* \"#utility.yul\":20207:20324   */\n    tag_646:\n        /* \"#utility.yul\":20363:20433   */\n      tag_648\n        /* \"#utility.yul\":20429:20432   */\n      dup5\n        /* \"#utility.yul\":20420:20426   */\n      dup3\n        /* \"#utility.yul\":20409:20418   */\n      dup6\n        /* \"#utility.yul\":20405:20427   */\n      add\n        /* \"#utility.yul\":20363:20433   */\n      tag_416\n      jump\t// in\n    tag_648:\n        /* \"#utility.yul\":20356:20360   */\n      0x60\n        /* \"#utility.yul\":20349:20354   */\n      dup4\n        /* \"#utility.yul\":20345:20361   */\n      add\n        /* \"#utility.yul\":20338:20434   */\n      mstore\n        /* \"#utility.yul\":20114:20445   */\n      pop\n        /* \"#utility.yul\":20506:20509   */\n      0x80\n        /* \"#utility.yul\":20548:20605   */\n      tag_649\n        /* \"#utility.yul\":20601:20604   */\n      dup5\n        /* \"#utility.yul\":20592:20598   */\n      dup3\n        /* \"#utility.yul\":20581:20590   */\n      dup6\n        /* \"#utility.yul\":20577:20599   */\n      add\n        /* \"#utility.yul\":20548:20605   */\n      tag_418\n      jump\t// in\n    tag_649:\n        /* \"#utility.yul\":20541:20545   */\n      0x80\n        /* \"#utility.yul\":20534:20539   */\n      dup4\n        /* \"#utility.yul\":20530:20546   */\n      add\n        /* \"#utility.yul\":20523:20606   */\n      mstore\n        /* \"#utility.yul\":20455:20617   */\n      pop\n        /* \"#utility.yul\":19165:20624   */\n      swap3\n      swap2\n      pop\n      pop\n      jump\t// out\n        /* \"#utility.yul\":20630:21190   */\n    tag_165:\n        /* \"#utility.yul\":20728:20734   */\n      0x00\n        /* \"#utility.yul\":20777:20779   */\n      0x20\n        /* \"#utility.yul\":20765:20774   */\n      dup3\n        /* \"#utility.yul\":20756:20763   */\n      dup5\n        /* \"#utility.yul\":20752:20775   */\n      sub\n        /* \"#utility.yul\":20748:20780   */\n      slt\n        /* \"#utility.yul\":20745:20864   */\n      iszero\n      tag_651\n      jumpi\n        /* \"#utility.yul\":20783:20862   */\n      tag_652\n      tag_368\n      jump\t// in\n    tag_652:\n        /* \"#utility.yul\":20745:20864   */\n    tag_651:\n        /* \"#utility.yul\":20924:20925   */\n      0x00\n        /* \"#utility.yul\":20913:20922   */\n      dup3\n        /* \"#utility.yul\":20909:20926   */\n      add\n        /* \"#utility.yul\":20903:20927   */\n      mload\n        /* \"#utility.yul\":20954:20972   */\n      0xffffffffffffffff\n        /* \"#utility.yul\":20946:20952   */\n      dup2\n        /* \"#utility.yul\":20943:20973   */\n      gt\n        /* \"#utility.yul\":20940:21057   */\n      iszero\n      tag_653\n      jumpi\n        /* \"#utility.yul\":20976:21055   */\n      tag_654\n      tag_369\n      jump\t// in\n    tag_654:\n        /* \"#utility.yul\":20940:21057   */\n    tag_653:\n        /* \"#utility.yul\":21081:21173   */\n      tag_655\n        /* \"#utility.yul\":21165:21172   */\n      dup5\n        /* \"#utility.yul\":21156:21162   */\n      dup3\n        /* \"#utility.yul\":21145:21154   */\n      dup6\n        /* \"#utility.yul\":21141:21163   */\n      add\n        /* \"#utility.yul\":21081:21173   */\n      tag_419\n      jump\t// in\n    tag_655:\n        /* \"#utility.yul\":21071:21173   */\n      swap2\n      pop\n        /* \"#utility.yul\":20874:21183   */\n      pop\n        /* \"#utility.yul\":20630:21190   */\n      swap3\n      swap2\n      pop\n      pop\n      jump\t// out\n        /* \"#utility.yul\":21196:21376   */\n    tag_420:\n        /* \"#utility.yul\":21244:21321   */\n      0x4e487b7100000000000000000000000000000000000000000000000000000000\n        /* \"#utility.yul\":21241:21242   */\n      0x00\n        /* \"#utility.yul\":21234:21322   */\n      mstore\n        /* \"#utility.yul\":21341:21345   */\n      0x11\n        /* \"#utility.yul\":21338:21339   */\n      0x04\n        /* \"#utility.yul\":21331:21346   */\n      mstore\n        /* \"#utility.yul\":21365:21369   */\n      0x24\n        /* \"#utility.yul\":21362:21363   */\n      0x00\n        /* \"#utility.yul\":21355:21370   */\n      revert\n        /* \"#utility.yul\":21382:21687   */\n    tag_173:\n        /* \"#utility.yul\":21422:21425   */\n      0x00\n        /* \"#utility.yul\":21441:21461   */\n      tag_658\n        /* \"#utility.yul\":21459:21460   */\n      dup3\n        /* \"#utility.yul\":21441:21461   */\n      tag_357\n      jump\t// in\n    tag_658:\n        /* \"#utility.yul\":21436:21461   */\n      swap2\n      pop\n        /* \"#utility.yul\":21475:21495   */\n      tag_659\n        /* \"#utility.yul\":21493:21494   */\n      dup4\n        /* \"#utility.yul\":21475:21495   */\n      tag_357\n      jump\t// in\n    tag_659:\n        /* \"#utility.yul\":21470:21495   */\n      swap3\n      pop\n        /* \"#utility.yul\":21629:21630   */\n      dup3\n        /* \"#utility.yul\":21561:21627   */\n      0xffffffffffffffffffffffffffffffffffffffffffffffffffffffffffffffff\n        /* \"#utility.yul\":21557:21631   */\n      sub\n        /* \"#utility.yul\":21554:21555   */\n      dup3\n        /* \"#utility.yul\":21551:21632   */\n      gt\n        /* \"#utility.yul\":21548:21655   */\n      iszero\n      tag_660\n      jumpi\n        /* \"#utility.yul\":21635:21653   */\n      tag_661\n      tag_420\n      jump\t// in\n    tag_661:\n        /* \"#utility.yul\":21548:21655   */\n    tag_660:\n        /* \"#utility.yul\":21679:21680   */\n      dup3\n        /* \"#utility.yul\":21676:21677   */\n      dup3\n        /* \"#utility.yul\":21672:21681   */\n      add\n        /* \"#utility.yul\":21665:21681   */\n      swap1\n      pop\n        /* \"#utility.yul\":21382:21687   */\n      swap3\n      swap2\n      pop\n      pop\n      jump\t// out\n        /* \"#utility.yul\":21693:21926   */\n    tag_177:\n        /* \"#utility.yul\":21732:21735   */\n      0x00\n        /* \"#utility.yul\":21755:21779   */\n      tag_663\n        /* \"#utility.yul\":21773:21778   */\n      dup3\n        /* \"#utility.yul\":21755:21779   */\n      tag_357\n      jump\t// in\n    tag_663:\n        /* \"#utility.yul\":21746:21779   */\n      swap2\n      pop\n        /* \"#utility.yul\":21801:21867   */\n      0xffffffffffffffffffffffffffffffffffffffffffffffffffffffffffffffff\n        /* \"#utility.yul\":21794:21799   */\n      dup3\n        /* \"#utility.yul\":21791:21868   */\n      sub\n        /* \"#utility.yul\":21788:21891   */\n      tag_664\n      jumpi\n        /* \"#utility.yul\":21871:21889   */\n      tag_665\n      tag_420\n      jump\t// in\n    tag_665:\n        /* \"#utility.yul\":21788:21891   */\n    tag_664:\n        /* \"#utility.yul\":21918:21919   */\n      0x01\n        /* \"#utility.yul\":21911:21916   */\n      dup3\n        /* \"#utility.yul\":21907:21920   */\n      add\n        /* \"#utility.yul\":21900:21920   */\n      swap1\n      pop\n        /* \"#utility.yul\":21693:21926   */\n      swap2\n      swap1\n      pop\n      jump\t// out\n        /* \"#utility.yul\":21932:22112   */\n    tag_196:\n        /* \"#utility.yul\":21980:22057   */\n      0x4e487b7100000000000000000000000000000000000000000000000000000000\n        /* \"#utility.yul\":21977:21978   */\n      0x00\n        /* \"#utility.yul\":21970:22058   */\n      mstore\n        /* \"#utility.yul\":22077:22081   */\n      0x32\n        /* \"#utility.yul\":22074:22075   */\n      0x04\n        /* \"#utility.yul\":22067:22082   */\n      mstore\n        /* \"#utility.yul\":22101:22105   */\n      0x24\n        /* \"#utility.yul\":22098:22099   */\n      0x00\n        /* \"#utility.yul\":22091:22106   */\n      revert\n        /* \"#utility.yul\":22118:22299   */\n    tag_421:\n        /* \"#utility.yul\":22258:22291   */\n      0x5265656e7472616e637947756172643a207265656e7472616e742063616c6c00\n        /* \"#utility.yul\":22254:22255   */\n      0x00\n        /* \"#utility.yul\":22246:22252   */\n      dup3\n        /* \"#utility.yul\":22242:22256   */\n      add\n        /* \"#utility.yul\":22235:22292   */\n      mstore\n        /* \"#utility.yul\":22118:22299   */\n      pop\n      jump\t// out\n        /* \"#utility.yul\":22305:22671   */\n    tag_422:\n        /* \"#utility.yul\":22447:22450   */\n      0x00\n        /* \"#utility.yul\":22468:22535   */\n      tag_669\n        /* \"#utility.yul\":22532:22534   */\n      0x1f\n        /* \"#utility.yul\":22527:22530   */\n      dup4\n        /* \"#utility.yul\":22468:22535   */\n      tag_401\n      jump\t// in\n    tag_669:\n        /* \"#utility.yul\":22461:22535   */\n      swap2\n      pop\n        /* \"#utility.yul\":22544:22637   */\n      tag_670\n        /* \"#utility.yul\":22633:22636   */\n      dup3\n        /* \"#utility.yul\":22544:22637   */\n      tag_421\n      jump\t// in\n    tag_670:\n        /* \"#utility.yul\":22662:22664   */\n      0x20\n        /* \"#utility.yul\":22657:22660   */\n      dup3\n        /* \"#utility.yul\":22653:22665   */\n      add\n        /* \"#utility.yul\":22646:22665   */\n      swap1\n      pop\n        /* \"#utility.yul\":22305:22671   */\n      swap2\n      swap1\n      pop\n      jump\t// out\n        /* \"#utility.yul\":22677:23096   */\n    tag_214:\n        /* \"#utility.yul\":22843:22847   */\n      0x00\n        /* \"#utility.yul\":22881:22883   */\n      0x20\n        /* \"#utility.yul\":22870:22879   */\n      dup3\n        /* \"#utility.yul\":22866:22884   */\n      add\n        /* \"#utility.yul\":22858:22884   */\n      swap1\n      pop\n        /* \"#utility.yul\":22930:22939   */\n      dup2\n        /* \"#utility.yul\":22924:22928   */\n      dup2\n        /* \"#utility.yul\":22920:22940   */\n      sub\n        /* \"#utility.yul\":22916:22917   */\n      0x00\n        /* \"#utility.yul\":22905:22914   */\n      dup4\n        /* \"#utility.yul\":22901:22918   */\n      add\n        /* \"#utility.yul\":22894:22941   */\n      mstore\n        /* \"#utility.yul\":22958:23089   */\n      tag_672\n        /* \"#utility.yul\":23084:23088   */\n      dup2\n        /* \"#utility.yul\":22958:23089   */\n      tag_422\n      jump\t// in\n    tag_672:\n        /* \"#utility.yul\":22950:23089   */\n      swap1\n      pop\n        /* \"#utility.yul\":22677:23096   */\n      swap2\n      swap1\n      pop\n      jump\t// out\n        /* \"#utility.yul\":23102:23280   */\n    tag_423:\n        /* \"#utility.yul\":23242:23272   */\n      0x5072696365206d757374206265206174206c6561737420312077656900000000\n        /* \"#utility.yul\":23238:23239   */\n      0x00\n        /* \"#utility.yul\":23230:23236   */\n      dup3\n        /* \"#utility.yul\":23226:23240   */\n      add\n        /* \"#utility.yul\":23219:23273   */\n      mstore\n        /* \"#utility.yul\":23102:23280   */\n      pop\n      jump\t// out\n        /* \"#utility.yul\":23286:23652   */\n    tag_424:\n        /* \"#utility.yul\":23428:23431   */\n      0x00\n        /* \"#utility.yul\":23449:23516   */\n      tag_675\n        /* \"#utility.yul\":23513:23515   */\n      0x1c\n        /* \"#utility.yul\":23508:23511   */\n      dup4\n        /* \"#utility.yul\":23449:23516   */\n      tag_401\n      jump\t// in\n    tag_675:\n        /* \"#utility.yul\":23442:23516   */\n      swap2\n      pop\n        /* \"#utility.yul\":23525:23618   */\n      tag_676\n        /* \"#utility.yul\":23614:23617   */\n      dup3\n        /* \"#utility.yul\":23525:23618   */\n      tag_423\n      jump\t// in\n    tag_676:\n        /* \"#utility.yul\":23643:23645   */\n      0x20\n        /* \"#utility.yul\":23638:23641   */\n      dup3\n        /* \"#utility.yul\":23634:23646   */\n      add\n        /* \"#utility.yul\":23627:23646   */\n      swap1\n      pop\n        /* \"#utility.yul\":23286:23652   */\n      swap2\n      swap1\n      pop\n      jump\t// out\n        /* \"#utility.yul\":23658:24077   */\n    tag_218:\n        /* \"#utility.yul\":23824:23828   */\n      0x00\n        /* \"#utility.yul\":23862:23864   */\n      0x20\n        /* \"#utility.yul\":23851:23860   */\n      dup3\n        /* \"#utility.yul\":23847:23865   */\n      add\n        /* \"#utility.yul\":23839:23865   */\n      swap1\n      pop\n        /* \"#utility.yul\":23911:23920   */\n      dup2\n        /* \"#utility.yul\":23905:23909   */\n      dup2\n        /* \"#utility.yul\":23901:23921   */\n      sub\n        /* \"#utility.yul\":23897:23898   */\n      0x00\n        /* \"#utility.yul\":23886:23895   */\n      dup4\n        /* \"#utility.yul\":23882:23899   */\n      add\n        /* \"#utility.yul\":23875:23922   */\n      mstore\n        /* \"#utility.yul\":23939:24070   */\n      tag_678\n        /* \"#utility.yul\":24065:24069   */\n      dup2\n        /* \"#utility.yul\":23939:24070   */\n      tag_424\n      jump\t// in\n    tag_678:\n        /* \"#utility.yul\":23931:24070   */\n      swap1\n      pop\n        /* \"#utility.yul\":23658:24077   */\n      swap2\n      swap1\n      pop\n      jump\t// out\n        /* \"#utility.yul\":24083:24260   */\n    tag_425:\n        /* \"#utility.yul\":24223:24252   */\n      0x4974656d206973206e6f7420617661696c61626c65206e6f7720210000000000\n        /* \"#utility.yul\":24219:24220   */\n      0x00\n        /* \"#utility.yul\":24211:24217   */\n      dup3\n        /* \"#utility.yul\":24207:24221   */\n      add\n        /* \"#utility.yul\":24200:24253   */\n      mstore\n        /* \"#utility.yul\":24083:24260   */\n      pop\n      jump\t// out\n        /* \"#utility.yul\":24266:24632   */\n    tag_426:\n        /* \"#utility.yul\":24408:24411   */\n      0x00\n        /* \"#utility.yul\":24429:24496   */\n      tag_681\n        /* \"#utility.yul\":24493:24495   */\n      0x1b\n        /* \"#utility.yul\":24488:24491   */\n      dup4\n        /* \"#utility.yul\":24429:24496   */\n      tag_401\n      jump\t// in\n    tag_681:\n        /* \"#utility.yul\":24422:24496   */\n      swap2\n      pop\n        /* \"#utility.yul\":24505:24598   */\n      tag_682\n        /* \"#utility.yul\":24594:24597   */\n      dup3\n        /* \"#utility.yul\":24505:24598   */\n      tag_425\n      jump\t// in\n    tag_682:\n        /* \"#utility.yul\":24623:24625   */\n      0x20\n        /* \"#utility.yul\":24618:24621   */\n      dup3\n        /* \"#utility.yul\":24614:24626   */\n      add\n        /* \"#utility.yul\":24607:24626   */\n      swap1\n      pop\n        /* \"#utility.yul\":24266:24632   */\n      swap2\n      swap1\n      pop\n      jump\t// out\n        /* \"#utility.yul\":24638:25057   */\n    tag_225:\n        /* \"#utility.yul\":24804:24808   */\n      0x00\n        /* \"#utility.yul\":24842:24844   */\n      0x20\n        /* \"#utility.yul\":24831:24840   */\n      dup3\n        /* \"#utility.yul\":24827:24845   */\n      add\n        /* \"#utility.yul\":24819:24845   */\n      swap1\n      pop\n        /* \"#utility.yul\":24891:24900   */\n      dup2\n        /* \"#utility.yul\":24885:24889   */\n      dup2\n        /* \"#utility.yul\":24881:24901   */\n      sub\n        /* \"#utility.yul\":24877:24878   */\n      0x00\n        /* \"#utility.yul\":24866:24875   */\n      dup4\n        /* \"#utility.yul\":24862:24879   */\n      add\n        /* \"#utility.yul\":24855:24902   */\n      mstore\n        /* \"#utility.yul\":24919:25050   */\n      tag_684\n        /* \"#utility.yul\":25045:25049   */\n      dup2\n        /* \"#utility.yul\":24919:25050   */\n      tag_426\n      jump\t// in\n    tag_684:\n        /* \"#utility.yul\":24911:25050   */\n      swap1\n      pop\n        /* \"#utility.yul\":24638:25057   */\n      swap2\n      swap1\n      pop\n      jump\t// out\n        /* \"#utility.yul\":25063:25505   */\n    tag_234:\n        /* \"#utility.yul\":25212:25216   */\n      0x00\n        /* \"#utility.yul\":25250:25252   */\n      0x60\n        /* \"#utility.yul\":25239:25248   */\n      dup3\n        /* \"#utility.yul\":25235:25253   */\n      add\n        /* \"#utility.yul\":25227:25253   */\n      swap1\n      pop\n        /* \"#utility.yul\":25263:25334   */\n      tag_686\n        /* \"#utility.yul\":25331:25332   */\n      0x00\n        /* \"#utility.yul\":25320:25329   */\n      dup4\n        /* \"#utility.yul\":25316:25333   */\n      add\n        /* \"#utility.yul\":25307:25313   */\n      dup7\n        /* \"#utility.yul\":25263:25334   */\n      tag_396\n      jump\t// in\n    tag_686:\n        /* \"#utility.yul\":25344:25416   */\n      tag_687\n        /* \"#utility.yul\":25412:25414   */\n      0x20\n        /* \"#utility.yul\":25401:25410   */\n      dup4\n        /* \"#utility.yul\":25397:25415   */\n      add\n        /* \"#utility.yul\":25388:25394   */\n      dup6\n        /* \"#utility.yul\":25344:25416   */\n      tag_396\n      jump\t// in\n    tag_687:\n        /* \"#utility.yul\":25426:25498   */\n      tag_688\n        /* \"#utility.yul\":25494:25496   */\n      0x40\n        /* \"#utility.yul\":25483:25492   */\n      dup4\n        /* \"#utility.yul\":25479:25497   */\n      add\n        /* \"#utility.yul\":25470:25476   */\n      dup5\n        /* \"#utility.yul\":25426:25498   */\n      tag_391\n      jump\t// in\n    tag_688:\n        /* \"#utility.yul\":25063:25505   */\n      swap5\n      swap4\n      pop\n      pop\n      pop\n      pop\n      jump\t// out\n        /* \"#utility.yul\":25511:25843   */\n    tag_239:\n        /* \"#utility.yul\":25632:25636   */\n      0x00\n        /* \"#utility.yul\":25670:25672   */\n      0x40\n        /* \"#utility.yul\":25659:25668   */\n      dup3\n        /* \"#utility.yul\":25655:25673   */\n      add\n        /* \"#utility.yul\":25647:25673   */\n      swap1\n      pop\n        /* \"#utility.yul\":25683:25754   */\n      tag_690\n        /* \"#utility.yul\":25751:25752   */\n      0x00\n        /* \"#utility.yul\":25740:25749   */\n      dup4\n        /* \"#utility.yul\":25736:25753   */\n      add\n        /* \"#utility.yul\":25727:25733   */\n      dup6\n        /* \"#utility.yul\":25683:25754   */\n      tag_396\n      jump\t// in\n    tag_690:\n        /* \"#utility.yul\":25764:25836   */\n      tag_691\n        /* \"#utility.yul\":25832:25834   */\n      0x20\n        /* \"#utility.yul\":25821:25830   */\n      dup4\n        /* \"#utility.yul\":25817:25835   */\n      add\n        /* \"#utility.yul\":25808:25814   */\n      dup5\n        /* \"#utility.yul\":25764:25836   */\n      tag_391\n      jump\t// in\n    tag_691:\n        /* \"#utility.yul\":25511:25843   */\n      swap4\n      swap3\n      pop\n      pop\n      pop\n      jump\t// out\n        /* \"#utility.yul\":25849:26100   */\n    tag_427:\n        /* \"#utility.yul\":25989:26023   */\n      0x506c65617365207375626d6974207468652061736b696e672070726963652069\n        /* \"#utility.yul\":25985:25986   */\n      0x00\n        /* \"#utility.yul\":25977:25983   */\n      dup3\n        /* \"#utility.yul\":25973:25987   */\n      add\n        /* \"#utility.yul\":25966:26024   */\n      mstore\n        /* \"#utility.yul\":26058:26092   */\n      0x6e206f7264657220746f20636f6d706c65746520746865207075726368617365\n        /* \"#utility.yul\":26053:26055   */\n      0x20\n        /* \"#utility.yul\":26045:26051   */\n      dup3\n        /* \"#utility.yul\":26041:26056   */\n      add\n        /* \"#utility.yul\":26034:26093   */\n      mstore\n        /* \"#utility.yul\":25849:26100   */\n      pop\n      jump\t// out\n        /* \"#utility.yul\":26106:26472   */\n    tag_428:\n        /* \"#utility.yul\":26248:26251   */\n      0x00\n        /* \"#utility.yul\":26269:26336   */\n      tag_694\n        /* \"#utility.yul\":26333:26335   */\n      0x40\n        /* \"#utility.yul\":26328:26331   */\n      dup4\n        /* \"#utility.yul\":26269:26336   */\n      tag_401\n      jump\t// in\n    tag_694:\n        /* \"#utility.yul\":26262:26336   */\n      swap2\n      pop\n        /* \"#utility.yul\":26345:26438   */\n      tag_695\n        /* \"#utility.yul\":26434:26437   */\n      dup3\n        /* \"#utility.yul\":26345:26438   */\n      tag_427\n      jump\t// in\n    tag_695:\n        /* \"#utility.yul\":26463:26465   */\n      0x40\n        /* \"#utility.yul\":26458:26461   */\n      dup3\n        /* \"#utility.yul\":26454:26466   */\n      add\n        /* \"#utility.yul\":26447:26466   */\n      swap1\n      pop\n        /* \"#utility.yul\":26106:26472   */\n      swap2\n      swap1\n      pop\n      jump\t// out\n        /* \"#utility.yul\":26478:26897   */\n    tag_265:\n        /* \"#utility.yul\":26644:26648   */\n      0x00\n        /* \"#utility.yul\":26682:26684   */\n      0x20\n        /* \"#utility.yul\":26671:26680   */\n      dup3\n        /* \"#utility.yul\":26667:26685   */\n      add\n        /* \"#utility.yul\":26659:26685   */\n      swap1\n      pop\n        /* \"#utility.yul\":26731:26740   */\n      dup2\n        /* \"#utility.yul\":26725:26729   */\n      dup2\n        /* \"#utility.yul\":26721:26741   */\n      sub\n        /* \"#utility.yul\":26717:26718   */\n      0x00\n        /* \"#utility.yul\":26706:26715   */\n      dup4\n        /* \"#utility.yul\":26702:26719   */\n      add\n        /* \"#utility.yul\":26695:26742   */\n      mstore\n        /* \"#utility.yul\":26759:26890   */\n      tag_697\n        /* \"#utility.yul\":26885:26889   */\n      dup2\n        /* \"#utility.yul\":26759:26890   */\n      tag_428\n      jump\t// in\n    tag_697:\n        /* \"#utility.yul\":26751:26890   */\n      swap1\n      pop\n        /* \"#utility.yul\":26478:26897   */\n      swap2\n      swap1\n      pop\n      jump\t// out\n        /* \"#utility.yul\":26903:27037   */\n    tag_429:\n        /* \"#utility.yul\":26961:26970   */\n      0x00\n        /* \"#utility.yul\":26994:27031   */\n      tag_699\n        /* \"#utility.yul\":27025:27030   */\n      dup3\n        /* \"#utility.yul\":26994:27031   */\n      tag_388\n      jump\t// in\n    tag_699:\n        /* \"#utility.yul\":26981:27031   */\n      swap1\n      pop\n        /* \"#utility.yul\":26903:27037   */\n      swap2\n      swap1\n      pop\n      jump\t// out\n        /* \"#utility.yul\":27043:27190   */\n    tag_430:\n        /* \"#utility.yul\":27138:27183   */\n      tag_701\n        /* \"#utility.yul\":27177:27182   */\n      dup2\n        /* \"#utility.yul\":27138:27183   */\n      tag_429\n      jump\t// in\n    tag_701:\n        /* \"#utility.yul\":27133:27136   */\n      dup3\n        /* \"#utility.yul\":27126:27184   */\n      mstore\n        /* \"#utility.yul\":27043:27190   */\n      pop\n      pop\n      jump\t// out\n        /* \"#utility.yul\":27196:27654   */\n    tag_267:\n        /* \"#utility.yul\":27353:27357   */\n      0x00\n        /* \"#utility.yul\":27391:27393   */\n      0x60\n        /* \"#utility.yul\":27380:27389   */\n      dup3\n        /* \"#utility.yul\":27376:27394   */\n      add\n        /* \"#utility.yul\":27368:27394   */\n      swap1\n      pop\n        /* \"#utility.yul\":27404:27475   */\n      tag_703\n        /* \"#utility.yul\":27472:27473   */\n      0x00\n        /* \"#utility.yul\":27461:27470   */\n      dup4\n        /* \"#utility.yul\":27457:27474   */\n      add\n        /* \"#utility.yul\":27448:27454   */\n      dup7\n        /* \"#utility.yul\":27404:27475   */\n      tag_396\n      jump\t// in\n    tag_703:\n        /* \"#utility.yul\":27485:27565   */\n      tag_704\n        /* \"#utility.yul\":27561:27563   */\n      0x20\n        /* \"#utility.yul\":27550:27559   */\n      dup4\n        /* \"#utility.yul\":27546:27564   */\n      add\n        /* \"#utility.yul\":27537:27543   */\n      dup6\n        /* \"#utility.yul\":27485:27565   */\n      tag_430\n      jump\t// in\n    tag_704:\n        /* \"#utility.yul\":27575:27647   */\n      tag_705\n        /* \"#utility.yul\":27643:27645   */\n      0x40\n        /* \"#utility.yul\":27632:27641   */\n      dup4\n        /* \"#utility.yul\":27628:27646   */\n      add\n        /* \"#utility.yul\":27619:27625   */\n      dup5\n        /* \"#utility.yul\":27575:27647   */\n      tag_391\n      jump\t// in\n    tag_705:\n        /* \"#utility.yul\":27196:27654   */\n      swap5\n      swap4\n      pop\n      pop\n      pop\n      pop\n      jump\t// out\n        /* \"#utility.yul\":27660:28005   */\n    tag_271:\n        /* \"#utility.yul\":27727:27733   */\n      0x00\n        /* \"#utility.yul\":27776:27778   */\n      0x20\n        /* \"#utility.yul\":27764:27773   */\n      dup3\n        /* \"#utility.yul\":27755:27762   */\n      dup5\n        /* \"#utility.yul\":27751:27774   */\n      sub\n        /* \"#utility.yul\":27747:27779   */\n      slt\n        /* \"#utility.yul\":27744:27863   */\n      iszero\n      tag_707\n      jumpi\n        /* \"#utility.yul\":27782:27861   */\n      tag_708\n      tag_368\n      jump\t// in\n    tag_708:\n        /* \"#utility.yul\":27744:27863   */\n    tag_707:\n        /* \"#utility.yul\":27902:27903   */\n      0x00\n        /* \"#utility.yul\":27927:27988   */\n      tag_709\n        /* \"#utility.yul\":27980:27987   */\n      dup5\n        /* \"#utility.yul\":27971:27977   */\n      dup3\n        /* \"#utility.yul\":27960:27969   */\n      dup6\n        /* \"#utility.yul\":27956:27978   */\n      add\n        /* \"#utility.yul\":27927:27988   */\n      tag_418\n      jump\t// in\n    tag_709:\n        /* \"#utility.yul\":27917:27988   */\n      swap2\n      pop\n        /* \"#utility.yul\":27873:27998   */\n      pop\n        /* \"#utility.yul\":27660:28005   */\n      swap3\n      swap2\n      pop\n      pop\n      jump\t// out\n        /* \"#utility.yul\":28011:28180   */\n    tag_431:\n        /* \"#utility.yul\":28151:28172   */\n      0x4173736574206e6f74207075626c697368656400000000000000000000000000\n        /* \"#utility.yul\":28147:28148   */\n      0x00\n        /* \"#utility.yul\":28139:28145   */\n      dup3\n        /* \"#utility.yul\":28135:28149   */\n      add\n        /* \"#utility.yul\":28128:28173   */\n      mstore\n        /* \"#utility.yul\":28011:28180   */\n      pop\n      jump\t// out\n        /* \"#utility.yul\":28186:28552   */\n    tag_432:\n        /* \"#utility.yul\":28328:28331   */\n      0x00\n        /* \"#utility.yul\":28349:28416   */\n      tag_712\n        /* \"#utility.yul\":28413:28415   */\n      0x13\n        /* \"#utility.yul\":28408:28411   */\n      dup4\n        /* \"#utility.yul\":28349:28416   */\n      tag_401\n      jump\t// in\n    tag_712:\n        /* \"#utility.yul\":28342:28416   */\n      swap2\n      pop\n        /* \"#utility.yul\":28425:28518   */\n      tag_713\n        /* \"#utility.yul\":28514:28517   */\n      dup3\n        /* \"#utility.yul\":28425:28518   */\n      tag_431\n      jump\t// in\n    tag_713:\n        /* \"#utility.yul\":28543:28545   */\n      0x20\n        /* \"#utility.yul\":28538:28541   */\n      dup3\n        /* \"#utility.yul\":28534:28546   */\n      add\n        /* \"#utility.yul\":28527:28546   */\n      swap1\n      pop\n        /* \"#utility.yul\":28186:28552   */\n      swap2\n      swap1\n      pop\n      jump\t// out\n        /* \"#utility.yul\":28558:28977   */\n    tag_292:\n        /* \"#utility.yul\":28724:28728   */\n      0x00\n        /* \"#utility.yul\":28762:28764   */\n      0x20\n        /* \"#utility.yul\":28751:28760   */\n      dup3\n        /* \"#utility.yul\":28747:28765   */\n      add\n        /* \"#utility.yul\":28739:28765   */\n      swap1\n      pop\n        /* \"#utility.yul\":28811:28820   */\n      dup2\n        /* \"#utility.yul\":28805:28809   */\n      dup2\n        /* \"#utility.yul\":28801:28821   */\n      sub\n        /* \"#utility.yul\":28797:28798   */\n      0x00\n        /* \"#utility.yul\":28786:28795   */\n      dup4\n        /* \"#utility.yul\":28782:28799   */\n      add\n        /* \"#utility.yul\":28775:28822   */\n      mstore\n        /* \"#utility.yul\":28839:28970   */\n      tag_715\n        /* \"#utility.yul\":28965:28969   */\n      dup2\n        /* \"#utility.yul\":28839:28970   */\n      tag_432\n      jump\t// in\n    tag_715:\n        /* \"#utility.yul\":28831:28970   */\n      swap1\n      pop\n        /* \"#utility.yul\":28558:28977   */\n      swap2\n      swap1\n      pop\n      jump\t// out\n        /* \"#utility.yul\":28983:29147   */\n    tag_433:\n        /* \"#utility.yul\":29123:29139   */\n      0x41737365742064656c6973746564000000000000000000000000000000000000\n        /* \"#utility.yul\":29119:29120   */\n      0x00\n        /* \"#utility.yul\":29111:29117   */\n      dup3\n        /* \"#utility.yul\":29107:29121   */\n      add\n        /* \"#utility.yul\":29100:29140   */\n      mstore\n        /* \"#utility.yul\":28983:29147   */\n      pop\n      jump\t// out\n        /* \"#utility.yul\":29153:29519   */\n    tag_434:\n        /* \"#utility.yul\":29295:29298   */\n      0x00\n        /* \"#utility.yul\":29316:29383   */\n      tag_718\n        /* \"#utility.yul\":29380:29382   */\n      0x0e\n        /* \"#utility.yul\":29375:29378   */\n      dup4\n        /* \"#utility.yul\":29316:29383   */\n      tag_401\n      jump\t// in\n    tag_718:\n        /* \"#utility.yul\":29309:29383   */\n      swap2\n      pop\n        /* \"#utility.yul\":29392:29485   */\n      tag_719\n        /* \"#utility.yul\":29481:29484   */\n      dup3\n        /* \"#utility.yul\":29392:29485   */\n      tag_433\n      jump\t// in\n    tag_719:\n        /* \"#utility.yul\":29510:29512   */\n      0x20\n        /* \"#utility.yul\":29505:29508   */\n      dup3\n        /* \"#utility.yul\":29501:29513   */\n      add\n        /* \"#utility.yul\":29494:29513   */\n      swap1\n      pop\n        /* \"#utility.yul\":29153:29519   */\n      swap2\n      swap1\n      pop\n      jump\t// out\n        /* \"#utility.yul\":29525:29944   */\n    tag_299:\n        /* \"#utility.yul\":29691:29695   */\n      0x00\n        /* \"#utility.yul\":29729:29731   */\n      0x20\n        /* \"#utility.yul\":29718:29727   */\n      dup3\n        /* \"#utility.yul\":29714:29732   */\n      add\n        /* \"#utility.yul\":29706:29732   */\n      swap1\n      pop\n        /* \"#utility.yul\":29778:29787   */\n      dup2\n        /* \"#utility.yul\":29772:29776   */\n      dup2\n        /* \"#utility.yul\":29768:29788   */\n      sub\n        /* \"#utility.yul\":29764:29765   */\n      0x00\n        /* \"#utility.yul\":29753:29762   */\n      dup4\n        /* \"#utility.yul\":29749:29766   */\n      add\n        /* \"#utility.yul\":29742:29789   */\n      mstore\n        /* \"#utility.yul\":29806:29937   */\n      tag_721\n        /* \"#utility.yul\":29932:29936   */\n      dup2\n        /* \"#utility.yul\":29806:29937   */\n      tag_434\n      jump\t// in\n    tag_721:\n        /* \"#utility.yul\":29798:29937   */\n      swap1\n      pop\n        /* \"#utility.yul\":29525:29944   */\n      swap2\n      swap1\n      pop\n      jump\t// out\n        /* \"#utility.yul\":29950:30115   */\n    tag_435:\n        /* \"#utility.yul\":30090:30107   */\n      0x496e76616c696420616464726573730000000000000000000000000000000000\n        /* \"#utility.yul\":30086:30087   */\n      0x00\n        /* \"#utility.yul\":30078:30084   */\n      dup3\n        /* \"#utility.yul\":30074:30088   */\n      add\n        /* \"#utility.yul\":30067:30108   */\n      mstore\n        /* \"#utility.yul\":29950:30115   */\n      pop\n      jump\t// out\n        /* \"#utility.yul\":30121:30487   */\n    tag_436:\n        /* \"#utility.yul\":30263:30266   */\n      0x00\n        /* \"#utility.yul\":30284:30351   */\n      tag_724\n        /* \"#utility.yul\":30348:30350   */\n      0x0f\n        /* \"#utility.yul\":30343:30346   */\n      dup4\n        /* \"#utility.yul\":30284:30351   */\n      tag_401\n      jump\t// in\n    tag_724:\n        /* \"#utility.yul\":30277:30351   */\n      swap2\n      pop\n        /* \"#utility.yul\":30360:30453   */\n      tag_725\n        /* \"#utility.yul\":30449:30452   */\n      dup3\n        /* \"#utility.yul\":30360:30453   */\n      tag_435\n      jump\t// in\n    tag_725:\n        /* \"#utility.yul\":30478:30480   */\n      0x20\n        /* \"#utility.yul\":30473:30476   */\n      dup3\n        /* \"#utility.yul\":30469:30481   */\n      add\n        /* \"#utility.yul\":30462:30481   */\n      swap1\n      pop\n        /* \"#utility.yul\":30121:30487   */\n      swap2\n      swap1\n      pop\n      jump\t// out\n        /* \"#utility.yul\":30493:30912   */\n    tag_302:\n        /* \"#utility.yul\":30659:30663   */\n      0x00\n        /* \"#utility.yul\":30697:30699   */\n      0x20\n        /* \"#utility.yul\":30686:30695   */\n      dup3\n        /* \"#utility.yul\":30682:30700   */\n      add\n        /* \"#utility.yul\":30674:30700   */\n      swap1\n      pop\n        /* \"#utility.yul\":30746:30755   */\n      dup2\n        /* \"#utility.yul\":30740:30744   */\n      dup2\n        /* \"#utility.yul\":30736:30756   */\n      sub\n        /* \"#utility.yul\":30732:30733   */\n      0x00\n        /* \"#utility.yul\":30721:30730   */\n      dup4\n        /* \"#utility.yul\":30717:30734   */\n      add\n        /* \"#utility.yul\":30710:30757   */\n      mstore\n        /* \"#utility.yul\":30774:30905   */\n      tag_727\n        /* \"#utility.yul\":30900:30904   */\n      dup2\n        /* \"#utility.yul\":30774:30905   */\n      tag_436\n      jump\t// in\n    tag_727:\n        /* \"#utility.yul\":30766:30905   */\n      swap1\n      pop\n        /* \"#utility.yul\":30493:30912   */\n      swap2\n      swap1\n      pop\n      jump\t// out\n        /* \"#utility.yul\":30918:31090   */\n    tag_437:\n        /* \"#utility.yul\":31058:31082   */\n      0x4f6e6c792073656c6c65722063616e2064656c69737400000000000000000000\n        /* \"#utility.yul\":31054:31055   */\n      0x00\n        /* \"#utility.yul\":31046:31052   */\n      dup3\n        /* \"#utility.yul\":31042:31056   */\n      add\n        /* \"#utility.yul\":31035:31083   */\n      mstore\n        /* \"#utility.yul\":30918:31090   */\n      pop\n      jump\t// out\n        /* \"#utility.yul\":31096:31462   */\n    tag_438:\n        /* \"#utility.yul\":31238:31241   */\n      0x00\n        /* \"#utility.yul\":31259:31326   */\n      tag_730\n        /* \"#utility.yul\":31323:31325   */\n      0x16\n        /* \"#utility.yul\":31318:31321   */\n      dup4\n        /* \"#utility.yul\":31259:31326   */\n      tag_401\n      jump\t// in\n    tag_730:\n        /* \"#utility.yul\":31252:31326   */\n      swap2\n      pop\n        /* \"#utility.yul\":31335:31428   */\n      tag_731\n        /* \"#utility.yul\":31424:31427   */\n      dup3\n        /* \"#utility.yul\":31335:31428   */\n      tag_437\n      jump\t// in\n    tag_731:\n        /* \"#utility.yul\":31453:31455   */\n      0x20\n        /* \"#utility.yul\":31448:31451   */\n      dup3\n        /* \"#utility.yul\":31444:31456   */\n      add\n        /* \"#utility.yul\":31437:31456   */\n      swap1\n      pop\n        /* \"#utility.yul\":31096:31462   */\n      swap2\n      swap1\n      pop\n      jump\t// out\n        /* \"#utility.yul\":31468:31887   */\n    tag_305:\n        /* \"#utility.yul\":31634:31638   */\n      0x00\n        /* \"#utility.yul\":31672:31674   */\n      0x20\n        /* \"#utility.yul\":31661:31670   */\n      dup3\n        /* \"#utility.yul\":31657:31675   */\n      add\n        /* \"#utility.yul\":31649:31675   */\n      swap1\n      pop\n        /* \"#utility.yul\":31721:31730   */\n      dup2\n        /* \"#utility.yul\":31715:31719   */\n      dup2\n        /* \"#utility.yul\":31711:31731   */\n      sub\n        /* \"#utility.yul\":31707:31708   */\n      0x00\n        /* \"#utility.yul\":31696:31705   */\n      dup4\n        /* \"#utility.yul\":31692:31709   */\n      add\n        /* \"#utility.yul\":31685:31732   */\n      mstore\n        /* \"#utility.yul\":31749:31880   */\n      tag_733\n        /* \"#utility.yul\":31875:31879   */\n      dup2\n        /* \"#utility.yul\":31749:31880   */\n      tag_438\n      jump\t// in\n    tag_733:\n        /* \"#utility.yul\":31741:31880   */\n      swap1\n      pop\n        /* \"#utility.yul\":31468:31887   */\n      swap2\n      swap1\n      pop\n      jump\t// out\n        /* \"#utility.yul\":31893:32335   */\n    tag_315:\n        /* \"#utility.yul\":32042:32046   */\n      0x00\n        /* \"#utility.yul\":32080:32082   */\n      0x60\n        /* \"#utility.yul\":32069:32078   */\n      dup3\n        /* \"#utility.yul\":32065:32083   */\n      add\n        /* \"#utility.yul\":32057:32083   */\n      swap1\n      pop\n        /* \"#utility.yul\":32093:32164   */\n      tag_735\n        /* \"#utility.yul\":32161:32162   */\n      0x00\n        /* \"#utility.yul\":32150:32159   */\n      dup4\n        /* \"#utility.yul\":32146:32163   */\n      add\n        /* \"#utility.yul\":32137:32143   */\n      dup7\n        /* \"#utility.yul\":32093:32164   */\n      tag_396\n      jump\t// in\n    tag_735:\n        /* \"#utility.yul\":32174:32246   */\n      tag_736\n        /* \"#utility.yul\":32242:32244   */\n      0x20\n        /* \"#utility.yul\":32231:32240   */\n      dup4\n        /* \"#utility.yul\":32227:32245   */\n      add\n        /* \"#utility.yul\":32218:32224   */\n      dup6\n        /* \"#utility.yul\":32174:32246   */\n      tag_391\n      jump\t// in\n    tag_736:\n        /* \"#utility.yul\":32256:32328   */\n      tag_737\n        /* \"#utility.yul\":32324:32326   */\n      0x40\n        /* \"#utility.yul\":32313:32322   */\n      dup4\n        /* \"#utility.yul\":32309:32327   */\n      add\n        /* \"#utility.yul\":32300:32306   */\n      dup5\n        /* \"#utility.yul\":32256:32328   */\n      tag_391\n      jump\t// in\n    tag_737:\n        /* \"#utility.yul\":31893:32335   */\n      swap5\n      swap4\n      pop\n      pop\n      pop\n      pop\n      jump\t// out\n        /* \"#utility.yul\":32341:32566   */\n    tag_439:\n        /* \"#utility.yul\":32481:32515   */\n      0x4f776e61626c653a206e6577206f776e657220697320746865207a65726f2061\n        /* \"#utility.yul\":32477:32478   */\n      0x00\n        /* \"#utility.yul\":32469:32475   */\n      dup3\n        /* \"#utility.yul\":32465:32479   */\n      add\n        /* \"#utility.yul\":32458:32516   */\n      mstore\n        /* \"#utility.yul\":32550:32558   */\n      0x6464726573730000000000000000000000000000000000000000000000000000\n        /* \"#utility.yul\":32545:32547   */\n      0x20\n        /* \"#utility.yul\":32537:32543   */\n      dup3\n        /* \"#utility.yul\":32533:32548   */\n      add\n        /* \"#utility.yul\":32526:32559   */\n      mstore\n        /* \"#utility.yul\":32341:32566   */\n      pop\n      jump\t// out\n        /* \"#utility.yul\":32572:32938   */\n    tag_440:\n        /* \"#utility.yul\":32714:32717   */\n      0x00\n        /* \"#utility.yul\":32735:32802   */\n      tag_740\n        /* \"#utility.yul\":32799:32801   */\n      0x26\n        /* \"#utility.yul\":32794:32797   */\n      dup4\n        /* \"#utility.yul\":32735:32802   */\n      tag_401\n      jump\t// in\n    tag_740:\n        /* \"#utility.yul\":32728:32802   */\n      swap2\n      pop\n        /* \"#utility.yul\":32811:32904   */\n      tag_741\n        /* \"#utility.yul\":32900:32903   */\n      dup3\n        /* \"#utility.yul\":32811:32904   */\n      tag_439\n      jump\t// in\n    tag_741:\n        /* \"#utility.yul\":32929:32931   */\n      0x40\n        /* \"#utility.yul\":32924:32927   */\n      dup3\n        /* \"#utility.yul\":32920:32932   */\n      add\n        /* \"#utility.yul\":32913:32932   */\n      swap1\n      pop\n        /* \"#utility.yul\":32572:32938   */\n      swap2\n      swap1\n      pop\n      jump\t// out\n        /* \"#utility.yul\":32944:33363   */\n    tag_335:\n        /* \"#utility.yul\":33110:33114   */\n      0x00\n        /* \"#utility.yul\":33148:33150   */\n      0x20\n        /* \"#utility.yul\":33137:33146   */\n      dup3\n        /* \"#utility.yul\":33133:33151   */\n      add\n        /* \"#utility.yul\":33125:33151   */\n      swap1\n      pop\n        /* \"#utility.yul\":33197:33206   */\n      dup2\n        /* \"#utility.yul\":33191:33195   */\n      dup2\n        /* \"#utility.yul\":33187:33207   */\n      sub\n        /* \"#utility.yul\":33183:33184   */\n      0x00\n        /* \"#utility.yul\":33172:33181   */\n      dup4\n        /* \"#utility.yul\":33168:33185   */\n      add\n        /* \"#utility.yul\":33161:33208   */\n      mstore\n        /* \"#utility.yul\":33225:33356   */\n      tag_743\n        /* \"#utility.yul\":33351:33355   */\n      dup2\n        /* \"#utility.yul\":33225:33356   */\n      tag_440\n      jump\t// in\n    tag_743:\n        /* \"#utility.yul\":33217:33356   */\n      swap1\n      pop\n        /* \"#utility.yul\":32944:33363   */\n      swap2\n      swap1\n      pop\n      jump\t// out\n        /* \"#utility.yul\":33369:33592   */\n    tag_441:\n        /* \"#utility.yul\":33509:33543   */\n      0x546865204e465420416464726573732073686f756c64206265206120636f6e74\n        /* \"#utility.yul\":33505:33506   */\n      0x00\n        /* \"#utility.yul\":33497:33503   */\n      dup3\n        /* \"#utility.yul\":33493:33507   */\n      add\n        /* \"#utility.yul\":33486:33544   */\n      mstore\n        /* \"#utility.yul\":33578:33584   */\n      0x7261637400000000000000000000000000000000000000000000000000000000\n        /* \"#utility.yul\":33573:33575   */\n      0x20\n        /* \"#utility.yul\":33565:33571   */\n      dup3\n        /* \"#utility.yul\":33561:33576   */\n      add\n        /* \"#utility.yul\":33554:33585   */\n      mstore\n        /* \"#utility.yul\":33369:33592   */\n      pop\n      jump\t// out\n        /* \"#utility.yul\":33598:33964   */\n    tag_442:\n        /* \"#utility.yul\":33740:33743   */\n      0x00\n        /* \"#utility.yul\":33761:33828   */\n      tag_746\n        /* \"#utility.yul\":33825:33827   */\n      0x24\n        /* \"#utility.yul\":33820:33823   */\n      dup4\n        /* \"#utility.yul\":33761:33828   */\n      tag_401\n      jump\t// in\n    tag_746:\n        /* \"#utility.yul\":33754:33828   */\n      swap2\n      pop\n        /* \"#utility.yul\":33837:33930   */\n      tag_747\n        /* \"#utility.yul\":33926:33929   */\n      dup3\n        /* \"#utility.yul\":33837:33930   */\n      tag_441\n      jump\t// in\n    tag_747:\n        /* \"#utility.yul\":33955:33957   */\n      0x40\n        /* \"#utility.yul\":33950:33953   */\n      dup3\n        /* \"#utility.yul\":33946:33958   */\n      add\n        /* \"#utility.yul\":33939:33958   */\n      swap1\n      pop\n        /* \"#utility.yul\":33598:33964   */\n      swap2\n      swap1\n      pop\n      jump\t// out\n        /* \"#utility.yul\":33970:34389   */\n    tag_346:\n        /* \"#utility.yul\":34136:34140   */\n      0x00\n        /* \"#utility.yul\":34174:34176   */\n      0x20\n        /* \"#utility.yul\":34163:34172   */\n      dup3\n        /* \"#utility.yul\":34159:34177   */\n      add\n        /* \"#utility.yul\":34151:34177   */\n      swap1\n      pop\n        /* \"#utility.yul\":34223:34232   */\n      dup2\n        /* \"#utility.yul\":34217:34221   */\n      dup2\n        /* \"#utility.yul\":34213:34233   */\n      sub\n        /* \"#utility.yul\":34209:34210   */\n      0x00\n        /* \"#utility.yul\":34198:34207   */\n      dup4\n        /* \"#utility.yul\":34194:34211   */\n      add\n        /* \"#utility.yul\":34187:34234   */\n      mstore\n        /* \"#utility.yul\":34251:34382   */\n      tag_749\n        /* \"#utility.yul\":34377:34381   */\n      dup2\n        /* \"#utility.yul\":34251:34382   */\n      tag_442\n      jump\t// in\n    tag_749:\n        /* \"#utility.yul\":34243:34382   */\n      swap1\n      pop\n        /* \"#utility.yul\":33970:34389   */\n      swap2\n      swap1\n      pop\n      jump\t// out\n        /* \"#utility.yul\":34395:34635   */\n    tag_443:\n        /* \"#utility.yul\":34535:34569   */\n      0x546865204e465420636f6e74726163742068617320616e20696e76616c696420\n        /* \"#utility.yul\":34531:34532   */\n      0x00\n        /* \"#utility.yul\":34523:34529   */\n      dup3\n        /* \"#utility.yul\":34519:34533   */\n      add\n        /* \"#utility.yul\":34512:34570   */\n      mstore\n        /* \"#utility.yul\":34604:34627   */\n      0x45524337323120696d706c656d656e746174696f6e0000000000000000000000\n        /* \"#utility.yul\":34599:34601   */\n      0x20\n        /* \"#utility.yul\":34591:34597   */\n      dup3\n        /* \"#utility.yul\":34587:34602   */\n      add\n        /* \"#utility.yul\":34580:34628   */\n      mstore\n        /* \"#utility.yul\":34395:34635   */\n      pop\n      jump\t// out\n        /* \"#utility.yul\":34641:35007   */\n    tag_444:\n        /* \"#utility.yul\":34783:34786   */\n      0x00\n        /* \"#utility.yul\":34804:34871   */\n      tag_752\n        /* \"#utility.yul\":34868:34870   */\n      0x35\n        /* \"#utility.yul\":34863:34866   */\n      dup4\n        /* \"#utility.yul\":34804:34871   */\n      tag_401\n      jump\t// in\n    tag_752:\n        /* \"#utility.yul\":34797:34871   */\n      swap2\n      pop\n        /* \"#utility.yul\":34880:34973   */\n      tag_753\n        /* \"#utility.yul\":34969:34972   */\n      dup3\n        /* \"#utility.yul\":34880:34973   */\n      tag_443\n      jump\t// in\n    tag_753:\n        /* \"#utility.yul\":34998:35000   */\n      0x40\n        /* \"#utility.yul\":34993:34996   */\n      dup3\n        /* \"#utility.yul\":34989:35001   */\n      add\n        /* \"#utility.yul\":34982:35001   */\n      swap1\n      pop\n        /* \"#utility.yul\":34641:35007   */\n      swap2\n      swap1\n      pop\n      jump\t// out\n        /* \"#utility.yul\":35013:35432   */\n    tag_353:\n        /* \"#utility.yul\":35179:35183   */\n      0x00\n        /* \"#utility.yul\":35217:35219   */\n      0x20\n        /* \"#utility.yul\":35206:35215   */\n      dup3\n        /* \"#utility.yul\":35202:35220   */\n      add\n        /* \"#utility.yul\":35194:35220   */\n      swap1\n      pop\n        /* \"#utility.yul\":35266:35275   */\n      dup2\n        /* \"#utility.yul\":35260:35264   */\n      dup2\n        /* \"#utility.yul\":35256:35276   */\n      sub\n        /* \"#utility.yul\":35252:35253   */\n      0x00\n        /* \"#utility.yul\":35241:35250   */\n      dup4\n        /* \"#utility.yul\":35237:35254   */\n      add\n        /* \"#utility.yul\":35230:35277   */\n      mstore\n        /* \"#utility.yul\":35294:35425   */\n      tag_755\n        /* \"#utility.yul\":35420:35424   */\n      dup2\n        /* \"#utility.yul\":35294:35425   */\n      tag_444\n      jump\t// in\n    tag_755:\n        /* \"#utility.yul\":35286:35425   */\n      swap1\n      pop\n        /* \"#utility.yul\":35013:35432   */\n      swap2\n      swap1\n      pop\n      jump\t// out\n\n    auxdata: 0xa264697066735822122053ea3f20e1eadf03dde9c1b23f52f44152402a3cf4097a2633928290fcb541f164736f6c634300080d0033\n}\n",
				"bytecode": {
					"linkReferences": {},
					"object": "60806040523480156200001157600080fd5b50604051620036de380380620036de833981810160405281019062000037919062000263565b60016000819055506200005f620000536200012b60201b60201c565b6200013360201b60201c565b82600960006101000a81548173ffffffffffffffffffffffffffffffffffffffff021916908373ffffffffffffffffffffffffffffffffffffffff16021790555081600b60006101000a81548173ffffffffffffffffffffffffffffffffffffffff021916908373ffffffffffffffffffffffffffffffffffffffff16021790555080600a60006101000a81548173ffffffffffffffffffffffffffffffffffffffff021916908373ffffffffffffffffffffffffffffffffffffffff160217905550505050620002bf565b600033905090565b6000600c60009054906101000a900473ffffffffffffffffffffffffffffffffffffffff16905081600c60006101000a81548173ffffffffffffffffffffffffffffffffffffffff021916908373ffffffffffffffffffffffffffffffffffffffff1602179055508173ffffffffffffffffffffffffffffffffffffffff168173ffffffffffffffffffffffffffffffffffffffff167f8be0079c531659141344cd1fd0a4f28419497f9722a3daafe3b4186f6b6457e060405160405180910390a35050565b600080fd5b600073ffffffffffffffffffffffffffffffffffffffff82169050919050565b60006200022b82620001fe565b9050919050565b6200023d816200021e565b81146200024957600080fd5b50565b6000815190506200025d8162000232565b92915050565b6000806000606084860312156200027f576200027e620001f9565b5b60006200028f868287016200024c565b9350506020620002a2868287016200024c565b9250506040620002b5868287016200024c565b9150509250925092565b61340f80620002cf6000396000f3fe60806040526004361061014b5760003560e01c8063715018a6116100b6578063c45a01551161006f578063c45a015514610469578063c7be7a4914610494578063e0606dd8146104d1578063f2fde38b1461050e578063f55de0c714610537578063ff68fa6e146105625761014b565b8063715018a61461037f57806385a8b36c146103965780638da5cb5b146103c1578063a1c11ca8146103ec578063ad9a036914610415578063b7a60c7e1461043e5761014b565b80632b4c32be116101085780632b4c32be14610272578063361c19951461029d5780633fc15f15146102b9578063517bd451146102e45780635bb47808146103145780635c80a4351461033d5761014b565b80630f08efe01461015057806315b124941461017b57806316e7031a146101a4578063202e3740146101e157806327ce464e1461020c5780632a45b25014610235575b600080fd5b34801561015c57600080fd5b506101656105a4565b60405161017291906123ea565b60405180910390f35b34801561018757600080fd5b506101a2600480360381019061019d9190612457565b6106c3565b005b3480156101b057600080fd5b506101cb60048036038101906101c691906124b0565b610783565b6040516101d891906124f8565b60405180910390f35b3480156101ed57600080fd5b506101f6610836565b604051610203919061263d565b60405180910390f35b34801561021857600080fd5b50610233600480360381019061022e9190612457565b610b62565b005b34801561024157600080fd5b5061025c600480360381019061025791906124b0565b610c22565b60405161026991906123ea565b60405180910390f35b34801561027e57600080fd5b50610287610d5a565b604051610294919061269a565b60405180910390f35b6102b760048036038101906102b291906126b5565b610d65565b005b3480156102c557600080fd5b506102ce6111c7565b6040516102db9190612754565b60405180910390f35b3480156102f057600080fd5b506102f96111ed565b60405161030b9695949392919061279c565b60405180910390f35b34801561032057600080fd5b5061033b60048036038101906103369190612457565b611264565b005b34801561034957600080fd5b50610364600480360381019061035f91906127fd565b611324565b6040516103769695949392919061279c565b60405180910390f35b34801561038b57600080fd5b506103946113ba565b005b3480156103a257600080fd5b506103ab611442565b6040516103b89190612859565b60405180910390f35b3480156103cd57600080fd5b506103d6611455565b6040516103e39190612883565b60405180910390f35b3480156103f857600080fd5b50610413600480360381019061040e91906126b5565b61147f565b005b34801561042157600080fd5b5061043c600480360381019061043791906127fd565b6117e9565b005b34801561044a57600080fd5b50610453611c4a565b6040516104609190612859565b60405180910390f35b34801561047557600080fd5b5061047e611c5d565b60405161048b91906128bf565b60405180910390f35b3480156104a057600080fd5b506104bb60048036038101906104b691906124b0565b611c83565b6040516104c891906123ea565b60405180910390f35b3480156104dd57600080fd5b506104f860048036038101906104f391906124b0565b611db5565b6040516105059190612883565b60405180910390f35b34801561051a57600080fd5b5061053560048036038101906105309190612457565b611e68565b005b34801561054357600080fd5b5061054c611f5f565b60405161055991906128fb565b60405180910390f35b34801561056e57600080fd5b50610589600480360381019061058491906124b0565b611f85565b60405161059b9695949392919061279c565b60405180910390f35b6105ac61222a565b60016040518060c001604052908160008201548152602001600182015481526020016002820160009054906101000a900473ffffffffffffffffffffffffffffffffffffffff1673ffffffffffffffffffffffffffffffffffffffff1673ffffffffffffffffffffffffffffffffffffffff1681526020016003820160009054906101000a900473ffffffffffffffffffffffffffffffffffffffff1673ffffffffffffffffffffffffffffffffffffffff1673ffffffffffffffffffffffffffffffffffffffff168152602001600482015481526020016005820160009054906101000a900460ff1660018111156106a8576106a76122f8565b5b60018111156106ba576106b96122f8565b5b81525050905090565b6106cb61200e565b73ffffffffffffffffffffffffffffffffffffffff166106e9611455565b73ffffffffffffffffffffffffffffffffffffffff161461073f576040517f08c379a000000000000000000000000000000000000000000000000000000000815260040161073690612973565b60405180910390fd5b80600b60006101000a81548173ffffffffffffffffffffffffffffffffffffffff021916908373ffffffffffffffffffffffffffffffffffffffff16021790555050565b600080600a60009054906101000a900473ffffffffffffffffffffffffffffffffffffffff1673ffffffffffffffffffffffffffffffffffffffff1663d30bdac9846040518263ffffffff1660e01b81526004016107e19190612993565b600060405180830381865afa1580156107fe573d6000803e3d6000fd5b505050506040513d6000823e3d601f19601f820116820180604052508101906108279190612c3c565b90508060800151915050919050565b60606000610844600d612016565b905060008060005b838110156108ec573373ffffffffffffffffffffffffffffffffffffffff16600f600060018461087c9190612cb4565b815260200190815260200160002060030160009054906101000a900473ffffffffffffffffffffffffffffffffffffffff1673ffffffffffffffffffffffffffffffffffffffff16036108d9576001836108d69190612cb4565b92505b80806108e490612d0a565b91505061084c565b5060008267ffffffffffffffff811115610909576109086129c4565b5b60405190808252806020026020018201604052801561094257816020015b61092f61222a565b8152602001906001900390816109275790505b50905060005b84811015610b57573373ffffffffffffffffffffffffffffffffffffffff16600f60006001846109789190612cb4565b815260200190815260200160002060030160009054906101000a900473ffffffffffffffffffffffffffffffffffffffff1673ffffffffffffffffffffffffffffffffffffffff1603610b44576000600f60006001846109d89190612cb4565b81526020019081526020016000206000015490506000600f60008381526020019081526020016000209050806040518060c001604052908160008201548152602001600182015481526020016002820160009054906101000a900473ffffffffffffffffffffffffffffffffffffffff1673ffffffffffffffffffffffffffffffffffffffff1673ffffffffffffffffffffffffffffffffffffffff1681526020016003820160009054906101000a900473ffffffffffffffffffffffffffffffffffffffff1673ffffffffffffffffffffffffffffffffffffffff1673ffffffffffffffffffffffffffffffffffffffff168152602001600482015481526020016005820160009054906101000a900460ff166001811115610afe57610afd6122f8565b5b6001811115610b1057610b0f6122f8565b5b81525050848681518110610b2757610b26612d52565b5b6020026020010181905250600185610b3f9190612cb4565b945050505b8080610b4f90612d0a565b915050610948565b508094505050505090565b610b6a61200e565b73ffffffffffffffffffffffffffffffffffffffff16610b88611455565b73ffffffffffffffffffffffffffffffffffffffff1614610bde576040517f08c379a0000000000000000000000000000000000000000000000000000000008152600401610bd590612973565b60405180910390fd5b80600960006101000a81548173ffffffffffffffffffffffffffffffffffffffff021916908373ffffffffffffffffffffffffffffffffffffffff16021790555050565b610c2a61222a565b6000600f60008481526020019081526020016000206040518060c001604052908160008201548152602001600182015481526020016002820160009054906101000a900473ffffffffffffffffffffffffffffffffffffffff1673ffffffffffffffffffffffffffffffffffffffff1673ffffffffffffffffffffffffffffffffffffffff1681526020016003820160009054906101000a900473ffffffffffffffffffffffffffffffffffffffff1673ffffffffffffffffffffffffffffffffffffffff1673ffffffffffffffffffffffffffffffffffffffff168152602001600482015481526020016005820160009054906101000a900460ff166001811115610d3957610d386122f8565b5b6001811115610d4b57610d4a6122f8565b5b81525050905080915050919050565b6380ac58cd60e01b81565b600260005403610daa576040517f08c379a0000000000000000000000000000000000000000000000000000000008152600401610da190612dcd565b60405180910390fd5b600260008190555060008111610df5576040517f08c379a0000000000000000000000000000000000000000000000000000000008152600401610dec90612e39565b60405180910390fd5b6000600a60009054906101000a900473ffffffffffffffffffffffffffffffffffffffff1673ffffffffffffffffffffffffffffffffffffffff1663d30bdac9846040518263ffffffff1660e01b8152600401610e529190612993565b600060405180830381865afa158015610e6f573d6000803e3d6000fd5b505050506040513d6000823e3d601f19601f82011682018060405250810190610e989190612c3c565b9050600015158160800151151514610ee5576040517f08c379a0000000000000000000000000000000000000000000000000000000008152600401610edc90612ea5565b60405180910390fd5b610eef600d612024565b6000610efb600d612016565b90506040518060c001604052808281526020018581526020013373ffffffffffffffffffffffffffffffffffffffff168152602001600073ffffffffffffffffffffffffffffffffffffffff168152602001848152602001600180811115610f6657610f656122f8565b5b815250600f6000838152602001908152602001600020600082015181600001556020820151816001015560408201518160020160006101000a81548173ffffffffffffffffffffffffffffffffffffffff021916908373ffffffffffffffffffffffffffffffffffffffff16021790555060608201518160030160006101000a81548173ffffffffffffffffffffffffffffffffffffffff021916908373ffffffffffffffffffffffffffffffffffffffff1602179055506080820151816004015560a08201518160050160006101000a81548160ff02191690836001811115611053576110526122f8565b5b0217905550905050600b60009054906101000a900473ffffffffffffffffffffffffffffffffffffffff1673ffffffffffffffffffffffffffffffffffffffff166323b872dd3330876040518463ffffffff1660e01b81526004016110ba93929190612ec5565b600060405180830381600087803b1580156110d457600080fd5b505af11580156110e8573d6000803e3d6000fd5b50505050600a60009054906101000a900473ffffffffffffffffffffffffffffffffffffffff1673ffffffffffffffffffffffffffffffffffffffff1663443b8cb730866040518363ffffffff1660e01b8152600401611149929190612efc565b600060405180830381600087803b15801561116357600080fd5b505af1158015611177573d6000803e3d6000fd5b5050505083817f38690a554ffbc44eb6a75016e47d517d0db8e6c37494adc68d6d0b2c66f0ab21336000876040516111b193929190612ec5565b60405180910390a3505060016000819055505050565b600960009054906101000a900473ffffffffffffffffffffffffffffffffffffffff1681565b60018060000154908060010154908060020160009054906101000a900473ffffffffffffffffffffffffffffffffffffffff16908060030160009054906101000a900473ffffffffffffffffffffffffffffffffffffffff16908060040154908060050160009054906101000a900460ff16905086565b61126c61200e565b73ffffffffffffffffffffffffffffffffffffffff1661128a611455565b73ffffffffffffffffffffffffffffffffffffffff16146112e0576040517f08c379a00000000000000000000000000000000000000000000000000000000081526004016112d790612973565b60405180910390fd5b80600a60006101000a81548173ffffffffffffffffffffffffffffffffffffffff021916908373ffffffffffffffffffffffffffffffffffffffff16021790555050565b6008602052816000526040600020602052806000526040600020600091509150508060000154908060010154908060020160009054906101000a900473ffffffffffffffffffffffffffffffffffffffff16908060030160009054906101000a900473ffffffffffffffffffffffffffffffffffffffff16908060040154908060050160009054906101000a900460ff16905086565b6113c261200e565b73ffffffffffffffffffffffffffffffffffffffff166113e0611455565b73ffffffffffffffffffffffffffffffffffffffff1614611436576040517f08c379a000000000000000000000000000000000000000000000000000000000815260040161142d90612973565b60405180910390fd5b611440600061203a565b565b600b60149054906101000a900460ff1681565b6000600c60009054906101000a900473ffffffffffffffffffffffffffffffffffffffff16905090565b6002600054036114c4576040517f08c379a00000000000000000000000000000000000000000000000000000000081526004016114bb90612dcd565b60405180910390fd5b60026000819055506000600f60008481526020019081526020016000206004015490506000600f6000858152602001908152602001600020600101549050818314611544576040517f08c379a000000000000000000000000000000000000000000000000000000000815260040161153b90612f97565b60405180910390fd5b600960009054906101000a900473ffffffffffffffffffffffffffffffffffffffff1673ffffffffffffffffffffffffffffffffffffffff166323b872dd33600f600088815260200190815260200160002060020160009054906101000a900473ffffffffffffffffffffffffffffffffffffffff16866040518463ffffffff1660e01b81526004016115d993929190612fd8565b6020604051808303816000875af11580156115f8573d6000803e3d6000fd5b505050506040513d601f19601f8201168201806040525081019061161c919061300f565b50600b60009054906101000a900473ffffffffffffffffffffffffffffffffffffffff1673ffffffffffffffffffffffffffffffffffffffff166323b872dd3033846040518463ffffffff1660e01b815260040161167c93929190612ec5565b600060405180830381600087803b15801561169657600080fd5b505af11580156116aa573d6000803e3d6000fd5b5050505033600f600086815260200190815260200160002060030160006101000a81548173ffffffffffffffffffffffffffffffffffffffff021916908373ffffffffffffffffffffffffffffffffffffffff1602179055506000600f600086815260200190815260200160002060050160006101000a81548160ff0219169083600181111561173d5761173c6122f8565b5b0217905550600a60009054906101000a900473ffffffffffffffffffffffffffffffffffffffff1673ffffffffffffffffffffffffffffffffffffffff1663443b8cb730836040518363ffffffff1660e01b815260040161179f929190612efc565b600060405180830381600087803b1580156117b957600080fd5b505af11580156117cd573d6000803e3d6000fd5b505050506117db600e612024565b505060016000819055505050565b6117f282612100565b60003390506000600f60008481526020019081526020016000206040518060c001604052908160008201548152602001600182015481526020016002820160009054906101000a900473ffffffffffffffffffffffffffffffffffffffff1673ffffffffffffffffffffffffffffffffffffffff1673ffffffffffffffffffffffffffffffffffffffff1681526020016003820160009054906101000a900473ffffffffffffffffffffffffffffffffffffffff1673ffffffffffffffffffffffffffffffffffffffff1673ffffffffffffffffffffffffffffffffffffffff168152602001600482015481526020016005820160009054906101000a900460ff166001811115611906576119056122f8565b5b6001811115611918576119176122f8565b5b8152505090506000816000015103611965576040517f08c379a000000000000000000000000000000000000000000000000000000000815260040161195c90613088565b60405180910390fd5b60006001811115611979576119786122f8565b5b8160a0015160018111156119905761198f6122f8565b5b036119d0576040517f08c379a00000000000000000000000000000000000000000000000000000000081526004016119c7906130f4565b60405180910390fd5b600081604001519050600073ffffffffffffffffffffffffffffffffffffffff168173ffffffffffffffffffffffffffffffffffffffff1603611a48576040517f08c379a0000000000000000000000000000000000000000000000000000000008152600401611a3f90613160565b60405180910390fd5b3373ffffffffffffffffffffffffffffffffffffffff168173ffffffffffffffffffffffffffffffffffffffff1614611ab6576040517f08c379a0000000000000000000000000000000000000000000000000000000008152600401611aad906131cc565b60405180910390fd5b60008590508073ffffffffffffffffffffffffffffffffffffffff166342842e0e3084886040518463ffffffff1660e01b8152600401611af893929190612ec5565b600060405180830381600087803b158015611b1257600080fd5b505af1158015611b26573d6000803e3d6000fd5b5050505060008360a001906001811115611b4357611b426122f8565b5b90816001811115611b5757611b566122f8565b5b81525050600f600086815260200190815260200160002060008082016000905560018201600090556002820160006101000a81549073ffffffffffffffffffffffffffffffffffffffff02191690556003820160006101000a81549073ffffffffffffffffffffffffffffffffffffffff021916905560048201600090556005820160006101000a81549060ff021916905550508373ffffffffffffffffffffffffffffffffffffffff16857fc141ecc59e1a451ee7d3128743c8ca3174955ce97262896269482d5f84b39a8588866000015142604051611c3a939291906131ec565b60405180910390a3505050505050565b600b60159054906101000a900460ff1681565b600a60009054906101000a900473ffffffffffffffffffffffffffffffffffffffff1681565b611c8b61222a565b600f60008381526020019081526020016000206040518060c001604052908160008201548152602001600182015481526020016002820160009054906101000a900473ffffffffffffffffffffffffffffffffffffffff1673ffffffffffffffffffffffffffffffffffffffff1673ffffffffffffffffffffffffffffffffffffffff1681526020016003820160009054906101000a900473ffffffffffffffffffffffffffffffffffffffff1673ffffffffffffffffffffffffffffffffffffffff1673ffffffffffffffffffffffffffffffffffffffff168152602001600482015481526020016005820160009054906101000a900460ff166001811115611d9857611d976122f8565b5b6001811115611daa57611da96122f8565b5b815250509050919050565b600080600a60009054906101000a900473ffffffffffffffffffffffffffffffffffffffff1673ffffffffffffffffffffffffffffffffffffffff1663d30bdac9846040518263ffffffff1660e01b8152600401611e139190612993565b600060405180830381865afa158015611e30573d6000803e3d6000fd5b505050506040513d6000823e3d601f19601f82011682018060405250810190611e599190612c3c565b90508060200151915050919050565b611e7061200e565b73ffffffffffffffffffffffffffffffffffffffff16611e8e611455565b73ffffffffffffffffffffffffffffffffffffffff1614611ee4576040517f08c379a0000000000000000000000000000000000000000000000000000000008152600401611edb90612973565b60405180910390fd5b600073ffffffffffffffffffffffffffffffffffffffff168173ffffffffffffffffffffffffffffffffffffffff1603611f53576040517f08c379a0000000000000000000000000000000000000000000000000000000008152600401611f4a90613295565b60405180910390fd5b611f5c8161203a565b50565b600b60009054906101000a900473ffffffffffffffffffffffffffffffffffffffff1681565b60076020528060005260406000206000915090508060000154908060010154908060020160009054906101000a900473ffffffffffffffffffffffffffffffffffffffff16908060030160009054906101000a900473ffffffffffffffffffffffffffffffffffffffff16908060040154908060050160009054906101000a900460ff16905086565b600033905090565b600081600001549050919050565b6001816000016000828254019250508190555050565b6000600c60009054906101000a900473ffffffffffffffffffffffffffffffffffffffff16905081600c60006101000a81548173ffffffffffffffffffffffffffffffffffffffff021916908373ffffffffffffffffffffffffffffffffffffffff1602179055508173ffffffffffffffffffffffffffffffffffffffff168173ffffffffffffffffffffffffffffffffffffffff167f8be0079c531659141344cd1fd0a4f28419497f9722a3daafe3b4186f6b6457e060405160405180910390a35050565b61210981612211565b612148576040517f08c379a000000000000000000000000000000000000000000000000000000000815260040161213f90613327565b60405180910390fd5b60008190508073ffffffffffffffffffffffffffffffffffffffff166301ffc9a76380ac58cd60e01b6040518263ffffffff1660e01b815260040161218d919061269a565b602060405180830381865afa1580156121aa573d6000803e3d6000fd5b505050506040513d601f19601f820116820180604052508101906121ce919061300f565b61220d576040517f08c379a0000000000000000000000000000000000000000000000000000000008152600401612204906133b9565b60405180910390fd5b5050565b600080823b905060008163ffffffff1611915050919050565b6040518060c001604052806000815260200160008152602001600073ffffffffffffffffffffffffffffffffffffffff168152602001600073ffffffffffffffffffffffffffffffffffffffff1681526020016000815260200160006001811115612298576122976122f8565b5b81525090565b6000819050919050565b6122b18161229e565b82525050565b600073ffffffffffffffffffffffffffffffffffffffff82169050919050565b60006122e2826122b7565b9050919050565b6122f2816122d7565b82525050565b7f4e487b7100000000000000000000000000000000000000000000000000000000600052602160045260246000fd5b60028110612338576123376122f8565b5b50565b600081905061234982612327565b919050565b60006123598261233b565b9050919050565b6123698161234e565b82525050565b60c08201600082015161238560008501826122a8565b50602082015161239860208501826122a8565b5060408201516123ab60408501826122e9565b5060608201516123be60608501826122e9565b5060808201516123d160808501826122a8565b5060a08201516123e460a0850182612360565b50505050565b600060c0820190506123ff600083018461236f565b92915050565b6000604051905090565b600080fd5b600080fd5b6000612424826122b7565b9050919050565b61243481612419565b811461243f57600080fd5b50565b6000813590506124518161242b565b92915050565b60006020828403121561246d5761246c61240f565b5b600061247b84828501612442565b91505092915050565b61248d8161229e565b811461249857600080fd5b50565b6000813590506124aa81612484565b92915050565b6000602082840312156124c6576124c561240f565b5b60006124d48482850161249b565b91505092915050565b60008115159050919050565b6124f2816124dd565b82525050565b600060208201905061250d60008301846124e9565b92915050565b600081519050919050565b600082825260208201905092915050565b6000819050602082019050919050565b60c08201600082015161255560008501826122a8565b50602082015161256860208501826122a8565b50604082015161257b60408501826122e9565b50606082015161258e60608501826122e9565b5060808201516125a160808501826122a8565b5060a08201516125b460a0850182612360565b50505050565b60006125c6838361253f565b60c08301905092915050565b6000602082019050919050565b60006125ea82612513565b6125f4818561251e565b93506125ff8361252f565b8060005b8381101561263057815161261788826125ba565b9750612622836125d2565b925050600181019050612603565b5085935050505092915050565b6000602082019050818103600083015261265781846125df565b905092915050565b60007fffffffff0000000000000000000000000000000000000000000000000000000082169050919050565b6126948161265f565b82525050565b60006020820190506126af600083018461268b565b92915050565b600080604083850312156126cc576126cb61240f565b5b60006126da8582860161249b565b92505060206126eb8582860161249b565b9150509250929050565b6000819050919050565b600061271a612715612710846122b7565b6126f5565b6122b7565b9050919050565b600061272c826126ff565b9050919050565b600061273e82612721565b9050919050565b61274e81612733565b82525050565b60006020820190506127696000830184612745565b92915050565b6127788161229e565b82525050565b612787816122d7565b82525050565b6127968161234e565b82525050565b600060c0820190506127b1600083018961276f565b6127be602083018861276f565b6127cb604083018761277e565b6127d8606083018661277e565b6127e5608083018561276f565b6127f260a083018461278d565b979650505050505050565b600080604083850312156128145761281361240f565b5b600061282285828601612442565b92505060206128338582860161249b565b9150509250929050565b600060ff82169050919050565b6128538161283d565b82525050565b600060208201905061286e600083018461284a565b92915050565b61287d81612419565b82525050565b60006020820190506128986000830184612874565b92915050565b60006128a982612721565b9050919050565b6128b98161289e565b82525050565b60006020820190506128d460008301846128b0565b92915050565b60006128e582612721565b9050919050565b6128f5816128da565b82525050565b600060208201905061291060008301846128ec565b92915050565b600082825260208201905092915050565b7f4f776e61626c653a2063616c6c6572206973206e6f7420746865206f776e6572600082015250565b600061295d602083612916565b915061296882612927565b602082019050919050565b6000602082019050818103600083015261298c81612950565b9050919050565b60006020820190506129a8600083018461276f565b92915050565b600080fd5b6000601f19601f8301169050919050565b7f4e487b7100000000000000000000000000000000000000000000000000000000600052604160045260246000fd5b6129fc826129b3565b810181811067ffffffffffffffff82111715612a1b57612a1a6129c4565b5b80604052505050565b6000612a2e612405565b9050612a3a82826129f3565b919050565b600080fd5b600081519050612a5381612484565b92915050565b600081519050612a688161242b565b92915050565b600080fd5b600080fd5b600067ffffffffffffffff821115612a9357612a926129c4565b5b612a9c826129b3565b9050602081019050919050565b60005b83811015612ac7578082015181840152602081019050612aac565b83811115612ad6576000848401525b50505050565b6000612aef612aea84612a78565b612a24565b905082815260208101848484011115612b0b57612b0a612a73565b5b612b16848285612aa9565b509392505050565b600082601f830112612b3357612b32612a6e565b5b8151612b43848260208601612adc565b91505092915050565b612b55816124dd565b8114612b6057600080fd5b50565b600081519050612b7281612b4c565b92915050565b600060a08284031215612b8e57612b8d6129ae565b5b612b9860a0612a24565b90506000612ba884828501612a44565b6000830152506020612bbc84828501612a59565b602083015250604082015167ffffffffffffffff811115612be057612bdf612a3f565b5b612bec84828501612b1e565b604083015250606082015167ffffffffffffffff811115612c1057612c0f612a3f565b5b612c1c84828501612b1e565b6060830152506080612c3084828501612b63565b60808301525092915050565b600060208284031215612c5257612c5161240f565b5b600082015167ffffffffffffffff811115612c7057612c6f612414565b5b612c7c84828501612b78565b91505092915050565b7f4e487b7100000000000000000000000000000000000000000000000000000000600052601160045260246000fd5b6000612cbf8261229e565b9150612cca8361229e565b9250827fffffffffffffffffffffffffffffffffffffffffffffffffffffffffffffffff03821115612cff57612cfe612c85565b5b828201905092915050565b6000612d158261229e565b91507fffffffffffffffffffffffffffffffffffffffffffffffffffffffffffffffff8203612d4757612d46612c85565b5b600182019050919050565b7f4e487b7100000000000000000000000000000000000000000000000000000000600052603260045260246000fd5b7f5265656e7472616e637947756172643a207265656e7472616e742063616c6c00600082015250565b6000612db7601f83612916565b9150612dc282612d81565b602082019050919050565b60006020820190508181036000830152612de681612daa565b9050919050565b7f5072696365206d757374206265206174206c6561737420312077656900000000600082015250565b6000612e23601c83612916565b9150612e2e82612ded565b602082019050919050565b60006020820190508181036000830152612e5281612e16565b9050919050565b7f4974656d206973206e6f7420617661696c61626c65206e6f7720210000000000600082015250565b6000612e8f601b83612916565b9150612e9a82612e59565b602082019050919050565b60006020820190508181036000830152612ebe81612e82565b9050919050565b6000606082019050612eda6000830186612874565b612ee76020830185612874565b612ef4604083018461276f565b949350505050565b6000604082019050612f116000830185612874565b612f1e602083018461276f565b9392505050565b7f506c65617365207375626d6974207468652061736b696e67207072696365206960008201527f6e206f7264657220746f20636f6d706c65746520746865207075726368617365602082015250565b6000612f81604083612916565b9150612f8c82612f25565b604082019050919050565b60006020820190508181036000830152612fb081612f74565b9050919050565b6000612fc282612721565b9050919050565b612fd281612fb7565b82525050565b6000606082019050612fed6000830186612874565b612ffa6020830185612fc9565b613007604083018461276f565b949350505050565b6000602082840312156130255761302461240f565b5b600061303384828501612b63565b91505092915050565b7f4173736574206e6f74207075626c697368656400000000000000000000000000600082015250565b6000613072601383612916565b915061307d8261303c565b602082019050919050565b600060208201905081810360008301526130a181613065565b9050919050565b7f41737365742064656c6973746564000000000000000000000000000000000000600082015250565b60006130de600e83612916565b91506130e9826130a8565b602082019050919050565b6000602082019050818103600083015261310d816130d1565b9050919050565b7f496e76616c696420616464726573730000000000000000000000000000000000600082015250565b600061314a600f83612916565b915061315582613114565b602082019050919050565b600060208201905081810360008301526131798161313d565b9050919050565b7f4f6e6c792073656c6c65722063616e2064656c69737400000000000000000000600082015250565b60006131b6601683612916565b91506131c182613180565b602082019050919050565b600060208201905081810360008301526131e5816131a9565b9050919050565b60006060820190506132016000830186612874565b61320e602083018561276f565b61321b604083018461276f565b949350505050565b7f4f776e61626c653a206e6577206f776e657220697320746865207a65726f206160008201527f6464726573730000000000000000000000000000000000000000000000000000602082015250565b600061327f602683612916565b915061328a82613223565b604082019050919050565b600060208201905081810360008301526132ae81613272565b9050919050565b7f546865204e465420416464726573732073686f756c64206265206120636f6e7460008201527f7261637400000000000000000000000000000000000000000000000000000000602082015250565b6000613311602483612916565b915061331c826132b5565b604082019050919050565b6000602082019050818103600083015261334081613304565b9050919050565b7f546865204e465420636f6e74726163742068617320616e20696e76616c69642060008201527f45524337323120696d706c656d656e746174696f6e0000000000000000000000602082015250565b60006133a3603583612916565b91506133ae82613347565b604082019050919050565b600060208201905081810360008301526133d281613396565b905091905056fea264697066735822122053ea3f20e1eadf03dde9c1b23f52f44152402a3cf4097a2633928290fcb541f164736f6c634300080d0033",
					"opcodes": "PUSH1 0x80 PUSH1 0x40 MSTORE CALLVALUE DUP1 ISZERO PUSH3 0x11 JUMPI PUSH1 0x0 DUP1 REVERT JUMPDEST POP PUSH1 0x40 MLOAD PUSH3 0x36DE CODESIZE SUB DUP1 PUSH3 0x36DE DUP4 CODECOPY DUP2 DUP2 ADD PUSH1 0x40 MSTORE DUP2 ADD SWAP1 PUSH3 0x37 SWAP2 SWAP1 PUSH3 0x263 JUMP JUMPDEST PUSH1 0x1 PUSH1 0x0 DUP2 SWAP1 SSTORE POP PUSH3 0x5F PUSH3 0x53 PUSH3 0x12B PUSH1 0x20 SHL PUSH1 0x20 SHR JUMP JUMPDEST PUSH3 0x133 PUSH1 0x20 SHL PUSH1 0x20 SHR JUMP JUMPDEST DUP3 PUSH1 0x9 PUSH1 0x0 PUSH2 0x100 EXP DUP2 SLOAD DUP2 PUSH20 0xFFFFFFFFFFFFFFFFFFFFFFFFFFFFFFFFFFFFFFFF MUL NOT AND SWAP1 DUP4 PUSH20 0xFFFFFFFFFFFFFFFFFFFFFFFFFFFFFFFFFFFFFFFF AND MUL OR SWAP1 SSTORE POP DUP2 PUSH1 0xB PUSH1 0x0 PUSH2 0x100 EXP DUP2 SLOAD DUP2 PUSH20 0xFFFFFFFFFFFFFFFFFFFFFFFFFFFFFFFFFFFFFFFF MUL NOT AND SWAP1 DUP4 PUSH20 0xFFFFFFFFFFFFFFFFFFFFFFFFFFFFFFFFFFFFFFFF AND MUL OR SWAP1 SSTORE POP DUP1 PUSH1 0xA PUSH1 0x0 PUSH2 0x100 EXP DUP2 SLOAD DUP2 PUSH20 0xFFFFFFFFFFFFFFFFFFFFFFFFFFFFFFFFFFFFFFFF MUL NOT AND SWAP1 DUP4 PUSH20 0xFFFFFFFFFFFFFFFFFFFFFFFFFFFFFFFFFFFFFFFF AND MUL OR SWAP1 SSTORE POP POP POP POP PUSH3 0x2BF JUMP JUMPDEST PUSH1 0x0 CALLER SWAP1 POP SWAP1 JUMP JUMPDEST PUSH1 0x0 PUSH1 0xC PUSH1 0x0 SWAP1 SLOAD SWAP1 PUSH2 0x100 EXP SWAP1 DIV PUSH20 0xFFFFFFFFFFFFFFFFFFFFFFFFFFFFFFFFFFFFFFFF AND SWAP1 POP DUP2 PUSH1 0xC PUSH1 0x0 PUSH2 0x100 EXP DUP2 SLOAD DUP2 PUSH20 0xFFFFFFFFFFFFFFFFFFFFFFFFFFFFFFFFFFFFFFFF MUL NOT AND SWAP1 DUP4 PUSH20 0xFFFFFFFFFFFFFFFFFFFFFFFFFFFFFFFFFFFFFFFF AND MUL OR SWAP1 SSTORE POP DUP2 PUSH20 0xFFFFFFFFFFFFFFFFFFFFFFFFFFFFFFFFFFFFFFFF AND DUP2 PUSH20 0xFFFFFFFFFFFFFFFFFFFFFFFFFFFFFFFFFFFFFFFF AND PUSH32 0x8BE0079C531659141344CD1FD0A4F28419497F9722A3DAAFE3B4186F6B6457E0 PUSH1 0x40 MLOAD PUSH1 0x40 MLOAD DUP1 SWAP2 SUB SWAP1 LOG3 POP POP JUMP JUMPDEST PUSH1 0x0 DUP1 REVERT JUMPDEST PUSH1 0x0 PUSH20 0xFFFFFFFFFFFFFFFFFFFFFFFFFFFFFFFFFFFFFFFF DUP3 AND SWAP1 POP SWAP2 SWAP1 POP JUMP JUMPDEST PUSH1 0x0 PUSH3 0x22B DUP3 PUSH3 0x1FE JUMP JUMPDEST SWAP1 POP SWAP2 SWAP1 POP JUMP JUMPDEST PUSH3 0x23D DUP2 PUSH3 0x21E JUMP JUMPDEST DUP2 EQ PUSH3 0x249 JUMPI PUSH1 0x0 DUP1 REVERT JUMPDEST POP JUMP JUMPDEST PUSH1 0x0 DUP2 MLOAD SWAP1 POP PUSH3 0x25D DUP2 PUSH3 0x232 JUMP JUMPDEST SWAP3 SWAP2 POP POP JUMP JUMPDEST PUSH1 0x0 DUP1 PUSH1 0x0 PUSH1 0x60 DUP5 DUP7 SUB SLT ISZERO PUSH3 0x27F JUMPI PUSH3 0x27E PUSH3 0x1F9 JUMP JUMPDEST JUMPDEST PUSH1 0x0 PUSH3 0x28F DUP7 DUP3 DUP8 ADD PUSH3 0x24C JUMP JUMPDEST SWAP4 POP POP PUSH1 0x20 PUSH3 0x2A2 DUP7 DUP3 DUP8 ADD PUSH3 0x24C JUMP JUMPDEST SWAP3 POP POP PUSH1 0x40 PUSH3 0x2B5 DUP7 DUP3 DUP8 ADD PUSH3 0x24C JUMP JUMPDEST SWAP2 POP POP SWAP3 POP SWAP3 POP SWAP3 JUMP JUMPDEST PUSH2 0x340F DUP1 PUSH3 0x2CF PUSH1 0x0 CODECOPY PUSH1 0x0 RETURN INVALID PUSH1 0x80 PUSH1 0x40 MSTORE PUSH1 0x4 CALLDATASIZE LT PUSH2 0x14B JUMPI PUSH1 0x0 CALLDATALOAD PUSH1 0xE0 SHR DUP1 PUSH4 0x715018A6 GT PUSH2 0xB6 JUMPI DUP1 PUSH4 0xC45A0155 GT PUSH2 0x6F JUMPI DUP1 PUSH4 0xC45A0155 EQ PUSH2 0x469 JUMPI DUP1 PUSH4 0xC7BE7A49 EQ PUSH2 0x494 JUMPI DUP1 PUSH4 0xE0606DD8 EQ PUSH2 0x4D1 JUMPI DUP1 PUSH4 0xF2FDE38B EQ PUSH2 0x50E JUMPI DUP1 PUSH4 0xF55DE0C7 EQ PUSH2 0x537 JUMPI DUP1 PUSH4 0xFF68FA6E EQ PUSH2 0x562 JUMPI PUSH2 0x14B JUMP JUMPDEST DUP1 PUSH4 0x715018A6 EQ PUSH2 0x37F JUMPI DUP1 PUSH4 0x85A8B36C EQ PUSH2 0x396 JUMPI DUP1 PUSH4 0x8DA5CB5B EQ PUSH2 0x3C1 JUMPI DUP1 PUSH4 0xA1C11CA8 EQ PUSH2 0x3EC JUMPI DUP1 PUSH4 0xAD9A0369 EQ PUSH2 0x415 JUMPI DUP1 PUSH4 0xB7A60C7E EQ PUSH2 0x43E JUMPI PUSH2 0x14B JUMP JUMPDEST DUP1 PUSH4 0x2B4C32BE GT PUSH2 0x108 JUMPI DUP1 PUSH4 0x2B4C32BE EQ PUSH2 0x272 JUMPI DUP1 PUSH4 0x361C1995 EQ PUSH2 0x29D JUMPI DUP1 PUSH4 0x3FC15F15 EQ PUSH2 0x2B9 JUMPI DUP1 PUSH4 0x517BD451 EQ PUSH2 0x2E4 JUMPI DUP1 PUSH4 0x5BB47808 EQ PUSH2 0x314 JUMPI DUP1 PUSH4 0x5C80A435 EQ PUSH2 0x33D JUMPI PUSH2 0x14B JUMP JUMPDEST DUP1 PUSH4 0xF08EFE0 EQ PUSH2 0x150 JUMPI DUP1 PUSH4 0x15B12494 EQ PUSH2 0x17B JUMPI DUP1 PUSH4 0x16E7031A EQ PUSH2 0x1A4 JUMPI DUP1 PUSH4 0x202E3740 EQ PUSH2 0x1E1 JUMPI DUP1 PUSH4 0x27CE464E EQ PUSH2 0x20C JUMPI DUP1 PUSH4 0x2A45B250 EQ PUSH2 0x235 JUMPI JUMPDEST PUSH1 0x0 DUP1 REVERT JUMPDEST CALLVALUE DUP1 ISZERO PUSH2 0x15C JUMPI PUSH1 0x0 DUP1 REVERT JUMPDEST POP PUSH2 0x165 PUSH2 0x5A4 JUMP JUMPDEST PUSH1 0x40 MLOAD PUSH2 0x172 SWAP2 SWAP1 PUSH2 0x23EA JUMP JUMPDEST PUSH1 0x40 MLOAD DUP1 SWAP2 SUB SWAP1 RETURN JUMPDEST CALLVALUE DUP1 ISZERO PUSH2 0x187 JUMPI PUSH1 0x0 DUP1 REVERT JUMPDEST POP PUSH2 0x1A2 PUSH1 0x4 DUP1 CALLDATASIZE SUB DUP2 ADD SWAP1 PUSH2 0x19D SWAP2 SWAP1 PUSH2 0x2457 JUMP JUMPDEST PUSH2 0x6C3 JUMP JUMPDEST STOP JUMPDEST CALLVALUE DUP1 ISZERO PUSH2 0x1B0 JUMPI PUSH1 0x0 DUP1 REVERT JUMPDEST POP PUSH2 0x1CB PUSH1 0x4 DUP1 CALLDATASIZE SUB DUP2 ADD SWAP1 PUSH2 0x1C6 SWAP2 SWAP1 PUSH2 0x24B0 JUMP JUMPDEST PUSH2 0x783 JUMP JUMPDEST PUSH1 0x40 MLOAD PUSH2 0x1D8 SWAP2 SWAP1 PUSH2 0x24F8 JUMP JUMPDEST PUSH1 0x40 MLOAD DUP1 SWAP2 SUB SWAP1 RETURN JUMPDEST CALLVALUE DUP1 ISZERO PUSH2 0x1ED JUMPI PUSH1 0x0 DUP1 REVERT JUMPDEST POP PUSH2 0x1F6 PUSH2 0x836 JUMP JUMPDEST PUSH1 0x40 MLOAD PUSH2 0x203 SWAP2 SWAP1 PUSH2 0x263D JUMP JUMPDEST PUSH1 0x40 MLOAD DUP1 SWAP2 SUB SWAP1 RETURN JUMPDEST CALLVALUE DUP1 ISZERO PUSH2 0x218 JUMPI PUSH1 0x0 DUP1 REVERT JUMPDEST POP PUSH2 0x233 PUSH1 0x4 DUP1 CALLDATASIZE SUB DUP2 ADD SWAP1 PUSH2 0x22E SWAP2 SWAP1 PUSH2 0x2457 JUMP JUMPDEST PUSH2 0xB62 JUMP JUMPDEST STOP JUMPDEST CALLVALUE DUP1 ISZERO PUSH2 0x241 JUMPI PUSH1 0x0 DUP1 REVERT JUMPDEST POP PUSH2 0x25C PUSH1 0x4 DUP1 CALLDATASIZE SUB DUP2 ADD SWAP1 PUSH2 0x257 SWAP2 SWAP1 PUSH2 0x24B0 JUMP JUMPDEST PUSH2 0xC22 JUMP JUMPDEST PUSH1 0x40 MLOAD PUSH2 0x269 SWAP2 SWAP1 PUSH2 0x23EA JUMP JUMPDEST PUSH1 0x40 MLOAD DUP1 SWAP2 SUB SWAP1 RETURN JUMPDEST CALLVALUE DUP1 ISZERO PUSH2 0x27E JUMPI PUSH1 0x0 DUP1 REVERT JUMPDEST POP PUSH2 0x287 PUSH2 0xD5A JUMP JUMPDEST PUSH1 0x40 MLOAD PUSH2 0x294 SWAP2 SWAP1 PUSH2 0x269A JUMP JUMPDEST PUSH1 0x40 MLOAD DUP1 SWAP2 SUB SWAP1 RETURN JUMPDEST PUSH2 0x2B7 PUSH1 0x4 DUP1 CALLDATASIZE SUB DUP2 ADD SWAP1 PUSH2 0x2B2 SWAP2 SWAP1 PUSH2 0x26B5 JUMP JUMPDEST PUSH2 0xD65 JUMP JUMPDEST STOP JUMPDEST CALLVALUE DUP1 ISZERO PUSH2 0x2C5 JUMPI PUSH1 0x0 DUP1 REVERT JUMPDEST POP PUSH2 0x2CE PUSH2 0x11C7 JUMP JUMPDEST PUSH1 0x40 MLOAD PUSH2 0x2DB SWAP2 SWAP1 PUSH2 0x2754 JUMP JUMPDEST PUSH1 0x40 MLOAD DUP1 SWAP2 SUB SWAP1 RETURN JUMPDEST CALLVALUE DUP1 ISZERO PUSH2 0x2F0 JUMPI PUSH1 0x0 DUP1 REVERT JUMPDEST POP PUSH2 0x2F9 PUSH2 0x11ED JUMP JUMPDEST PUSH1 0x40 MLOAD PUSH2 0x30B SWAP7 SWAP6 SWAP5 SWAP4 SWAP3 SWAP2 SWAP1 PUSH2 0x279C JUMP JUMPDEST PUSH1 0x40 MLOAD DUP1 SWAP2 SUB SWAP1 RETURN JUMPDEST CALLVALUE DUP1 ISZERO PUSH2 0x320 JUMPI PUSH1 0x0 DUP1 REVERT JUMPDEST POP PUSH2 0x33B PUSH1 0x4 DUP1 CALLDATASIZE SUB DUP2 ADD SWAP1 PUSH2 0x336 SWAP2 SWAP1 PUSH2 0x2457 JUMP JUMPDEST PUSH2 0x1264 JUMP JUMPDEST STOP JUMPDEST CALLVALUE DUP1 ISZERO PUSH2 0x349 JUMPI PUSH1 0x0 DUP1 REVERT JUMPDEST POP PUSH2 0x364 PUSH1 0x4 DUP1 CALLDATASIZE SUB DUP2 ADD SWAP1 PUSH2 0x35F SWAP2 SWAP1 PUSH2 0x27FD JUMP JUMPDEST PUSH2 0x1324 JUMP JUMPDEST PUSH1 0x40 MLOAD PUSH2 0x376 SWAP7 SWAP6 SWAP5 SWAP4 SWAP3 SWAP2 SWAP1 PUSH2 0x279C JUMP JUMPDEST PUSH1 0x40 MLOAD DUP1 SWAP2 SUB SWAP1 RETURN JUMPDEST CALLVALUE DUP1 ISZERO PUSH2 0x38B JUMPI PUSH1 0x0 DUP1 REVERT JUMPDEST POP PUSH2 0x394 PUSH2 0x13BA JUMP JUMPDEST STOP JUMPDEST CALLVALUE DUP1 ISZERO PUSH2 0x3A2 JUMPI PUSH1 0x0 DUP1 REVERT JUMPDEST POP PUSH2 0x3AB PUSH2 0x1442 JUMP JUMPDEST PUSH1 0x40 MLOAD PUSH2 0x3B8 SWAP2 SWAP1 PUSH2 0x2859 JUMP JUMPDEST PUSH1 0x40 MLOAD DUP1 SWAP2 SUB SWAP1 RETURN JUMPDEST CALLVALUE DUP1 ISZERO PUSH2 0x3CD JUMPI PUSH1 0x0 DUP1 REVERT JUMPDEST POP PUSH2 0x3D6 PUSH2 0x1455 JUMP JUMPDEST PUSH1 0x40 MLOAD PUSH2 0x3E3 SWAP2 SWAP1 PUSH2 0x2883 JUMP JUMPDEST PUSH1 0x40 MLOAD DUP1 SWAP2 SUB SWAP1 RETURN JUMPDEST CALLVALUE DUP1 ISZERO PUSH2 0x3F8 JUMPI PUSH1 0x0 DUP1 REVERT JUMPDEST POP PUSH2 0x413 PUSH1 0x4 DUP1 CALLDATASIZE SUB DUP2 ADD SWAP1 PUSH2 0x40E SWAP2 SWAP1 PUSH2 0x26B5 JUMP JUMPDEST PUSH2 0x147F JUMP JUMPDEST STOP JUMPDEST CALLVALUE DUP1 ISZERO PUSH2 0x421 JUMPI PUSH1 0x0 DUP1 REVERT JUMPDEST POP PUSH2 0x43C PUSH1 0x4 DUP1 CALLDATASIZE SUB DUP2 ADD SWAP1 PUSH2 0x437 SWAP2 SWAP1 PUSH2 0x27FD JUMP JUMPDEST PUSH2 0x17E9 JUMP JUMPDEST STOP JUMPDEST CALLVALUE DUP1 ISZERO PUSH2 0x44A JUMPI PUSH1 0x0 DUP1 REVERT JUMPDEST POP PUSH2 0x453 PUSH2 0x1C4A JUMP JUMPDEST PUSH1 0x40 MLOAD PUSH2 0x460 SWAP2 SWAP1 PUSH2 0x2859 JUMP JUMPDEST PUSH1 0x40 MLOAD DUP1 SWAP2 SUB SWAP1 RETURN JUMPDEST CALLVALUE DUP1 ISZERO PUSH2 0x475 JUMPI PUSH1 0x0 DUP1 REVERT JUMPDEST POP PUSH2 0x47E PUSH2 0x1C5D JUMP JUMPDEST PUSH1 0x40 MLOAD PUSH2 0x48B SWAP2 SWAP1 PUSH2 0x28BF JUMP JUMPDEST PUSH1 0x40 MLOAD DUP1 SWAP2 SUB SWAP1 RETURN JUMPDEST CALLVALUE DUP1 ISZERO PUSH2 0x4A0 JUMPI PUSH1 0x0 DUP1 REVERT JUMPDEST POP PUSH2 0x4BB PUSH1 0x4 DUP1 CALLDATASIZE SUB DUP2 ADD SWAP1 PUSH2 0x4B6 SWAP2 SWAP1 PUSH2 0x24B0 JUMP JUMPDEST PUSH2 0x1C83 JUMP JUMPDEST PUSH1 0x40 MLOAD PUSH2 0x4C8 SWAP2 SWAP1 PUSH2 0x23EA JUMP JUMPDEST PUSH1 0x40 MLOAD DUP1 SWAP2 SUB SWAP1 RETURN JUMPDEST CALLVALUE DUP1 ISZERO PUSH2 0x4DD JUMPI PUSH1 0x0 DUP1 REVERT JUMPDEST POP PUSH2 0x4F8 PUSH1 0x4 DUP1 CALLDATASIZE SUB DUP2 ADD SWAP1 PUSH2 0x4F3 SWAP2 SWAP1 PUSH2 0x24B0 JUMP JUMPDEST PUSH2 0x1DB5 JUMP JUMPDEST PUSH1 0x40 MLOAD PUSH2 0x505 SWAP2 SWAP1 PUSH2 0x2883 JUMP JUMPDEST PUSH1 0x40 MLOAD DUP1 SWAP2 SUB SWAP1 RETURN JUMPDEST CALLVALUE DUP1 ISZERO PUSH2 0x51A JUMPI PUSH1 0x0 DUP1 REVERT JUMPDEST POP PUSH2 0x535 PUSH1 0x4 DUP1 CALLDATASIZE SUB DUP2 ADD SWAP1 PUSH2 0x530 SWAP2 SWAP1 PUSH2 0x2457 JUMP JUMPDEST PUSH2 0x1E68 JUMP JUMPDEST STOP JUMPDEST CALLVALUE DUP1 ISZERO PUSH2 0x543 JUMPI PUSH1 0x0 DUP1 REVERT JUMPDEST POP PUSH2 0x54C PUSH2 0x1F5F JUMP JUMPDEST PUSH1 0x40 MLOAD PUSH2 0x559 SWAP2 SWAP1 PUSH2 0x28FB JUMP JUMPDEST PUSH1 0x40 MLOAD DUP1 SWAP2 SUB SWAP1 RETURN JUMPDEST CALLVALUE DUP1 ISZERO PUSH2 0x56E JUMPI PUSH1 0x0 DUP1 REVERT JUMPDEST POP PUSH2 0x589 PUSH1 0x4 DUP1 CALLDATASIZE SUB DUP2 ADD SWAP1 PUSH2 0x584 SWAP2 SWAP1 PUSH2 0x24B0 JUMP JUMPDEST PUSH2 0x1F85 JUMP JUMPDEST PUSH1 0x40 MLOAD PUSH2 0x59B SWAP7 SWAP6 SWAP5 SWAP4 SWAP3 SWAP2 SWAP1 PUSH2 0x279C JUMP JUMPDEST PUSH1 0x40 MLOAD DUP1 SWAP2 SUB SWAP1 RETURN JUMPDEST PUSH2 0x5AC PUSH2 0x222A JUMP JUMPDEST PUSH1 0x1 PUSH1 0x40 MLOAD DUP1 PUSH1 0xC0 ADD PUSH1 0x40 MSTORE SWAP1 DUP2 PUSH1 0x0 DUP3 ADD SLOAD DUP2 MSTORE PUSH1 0x20 ADD PUSH1 0x1 DUP3 ADD SLOAD DUP2 MSTORE PUSH1 0x20 ADD PUSH1 0x2 DUP3 ADD PUSH1 0x0 SWAP1 SLOAD SWAP1 PUSH2 0x100 EXP SWAP1 DIV PUSH20 0xFFFFFFFFFFFFFFFFFFFFFFFFFFFFFFFFFFFFFFFF AND PUSH20 0xFFFFFFFFFFFFFFFFFFFFFFFFFFFFFFFFFFFFFFFF AND PUSH20 0xFFFFFFFFFFFFFFFFFFFFFFFFFFFFFFFFFFFFFFFF AND DUP2 MSTORE PUSH1 0x20 ADD PUSH1 0x3 DUP3 ADD PUSH1 0x0 SWAP1 SLOAD SWAP1 PUSH2 0x100 EXP SWAP1 DIV PUSH20 0xFFFFFFFFFFFFFFFFFFFFFFFFFFFFFFFFFFFFFFFF AND PUSH20 0xFFFFFFFFFFFFFFFFFFFFFFFFFFFFFFFFFFFFFFFF AND PUSH20 0xFFFFFFFFFFFFFFFFFFFFFFFFFFFFFFFFFFFFFFFF AND DUP2 MSTORE PUSH1 0x20 ADD PUSH1 0x4 DUP3 ADD SLOAD DUP2 MSTORE PUSH1 0x20 ADD PUSH1 0x5 DUP3 ADD PUSH1 0x0 SWAP1 SLOAD SWAP1 PUSH2 0x100 EXP SWAP1 DIV PUSH1 0xFF AND PUSH1 0x1 DUP2 GT ISZERO PUSH2 0x6A8 JUMPI PUSH2 0x6A7 PUSH2 0x22F8 JUMP JUMPDEST JUMPDEST PUSH1 0x1 DUP2 GT ISZERO PUSH2 0x6BA JUMPI PUSH2 0x6B9 PUSH2 0x22F8 JUMP JUMPDEST JUMPDEST DUP2 MSTORE POP POP SWAP1 POP SWAP1 JUMP JUMPDEST PUSH2 0x6CB PUSH2 0x200E JUMP JUMPDEST PUSH20 0xFFFFFFFFFFFFFFFFFFFFFFFFFFFFFFFFFFFFFFFF AND PUSH2 0x6E9 PUSH2 0x1455 JUMP JUMPDEST PUSH20 0xFFFFFFFFFFFFFFFFFFFFFFFFFFFFFFFFFFFFFFFF AND EQ PUSH2 0x73F JUMPI PUSH1 0x40 MLOAD PUSH32 0x8C379A000000000000000000000000000000000000000000000000000000000 DUP2 MSTORE PUSH1 0x4 ADD PUSH2 0x736 SWAP1 PUSH2 0x2973 JUMP JUMPDEST PUSH1 0x40 MLOAD DUP1 SWAP2 SUB SWAP1 REVERT JUMPDEST DUP1 PUSH1 0xB PUSH1 0x0 PUSH2 0x100 EXP DUP2 SLOAD DUP2 PUSH20 0xFFFFFFFFFFFFFFFFFFFFFFFFFFFFFFFFFFFFFFFF MUL NOT AND SWAP1 DUP4 PUSH20 0xFFFFFFFFFFFFFFFFFFFFFFFFFFFFFFFFFFFFFFFF AND MUL OR SWAP1 SSTORE POP POP JUMP JUMPDEST PUSH1 0x0 DUP1 PUSH1 0xA PUSH1 0x0 SWAP1 SLOAD SWAP1 PUSH2 0x100 EXP SWAP1 DIV PUSH20 0xFFFFFFFFFFFFFFFFFFFFFFFFFFFFFFFFFFFFFFFF AND PUSH20 0xFFFFFFFFFFFFFFFFFFFFFFFFFFFFFFFFFFFFFFFF AND PUSH4 0xD30BDAC9 DUP5 PUSH1 0x40 MLOAD DUP3 PUSH4 0xFFFFFFFF AND PUSH1 0xE0 SHL DUP2 MSTORE PUSH1 0x4 ADD PUSH2 0x7E1 SWAP2 SWAP1 PUSH2 0x2993 JUMP JUMPDEST PUSH1 0x0 PUSH1 0x40 MLOAD DUP1 DUP4 SUB DUP2 DUP7 GAS STATICCALL ISZERO DUP1 ISZERO PUSH2 0x7FE JUMPI RETURNDATASIZE PUSH1 0x0 DUP1 RETURNDATACOPY RETURNDATASIZE PUSH1 0x0 REVERT JUMPDEST POP POP POP POP PUSH1 0x40 MLOAD RETURNDATASIZE PUSH1 0x0 DUP3 RETURNDATACOPY RETURNDATASIZE PUSH1 0x1F NOT PUSH1 0x1F DUP3 ADD AND DUP3 ADD DUP1 PUSH1 0x40 MSTORE POP DUP2 ADD SWAP1 PUSH2 0x827 SWAP2 SWAP1 PUSH2 0x2C3C JUMP JUMPDEST SWAP1 POP DUP1 PUSH1 0x80 ADD MLOAD SWAP2 POP POP SWAP2 SWAP1 POP JUMP JUMPDEST PUSH1 0x60 PUSH1 0x0 PUSH2 0x844 PUSH1 0xD PUSH2 0x2016 JUMP JUMPDEST SWAP1 POP PUSH1 0x0 DUP1 PUSH1 0x0 JUMPDEST DUP4 DUP2 LT ISZERO PUSH2 0x8EC JUMPI CALLER PUSH20 0xFFFFFFFFFFFFFFFFFFFFFFFFFFFFFFFFFFFFFFFF AND PUSH1 0xF PUSH1 0x0 PUSH1 0x1 DUP5 PUSH2 0x87C SWAP2 SWAP1 PUSH2 0x2CB4 JUMP JUMPDEST DUP2 MSTORE PUSH1 0x20 ADD SWAP1 DUP2 MSTORE PUSH1 0x20 ADD PUSH1 0x0 KECCAK256 PUSH1 0x3 ADD PUSH1 0x0 SWAP1 SLOAD SWAP1 PUSH2 0x100 EXP SWAP1 DIV PUSH20 0xFFFFFFFFFFFFFFFFFFFFFFFFFFFFFFFFFFFFFFFF AND PUSH20 0xFFFFFFFFFFFFFFFFFFFFFFFFFFFFFFFFFFFFFFFF AND SUB PUSH2 0x8D9 JUMPI PUSH1 0x1 DUP4 PUSH2 0x8D6 SWAP2 SWAP1 PUSH2 0x2CB4 JUMP JUMPDEST SWAP3 POP JUMPDEST DUP1 DUP1 PUSH2 0x8E4 SWAP1 PUSH2 0x2D0A JUMP JUMPDEST SWAP2 POP POP PUSH2 0x84C JUMP JUMPDEST POP PUSH1 0x0 DUP3 PUSH8 0xFFFFFFFFFFFFFFFF DUP2 GT ISZERO PUSH2 0x909 JUMPI PUSH2 0x908 PUSH2 0x29C4 JUMP JUMPDEST JUMPDEST PUSH1 0x40 MLOAD SWAP1 DUP1 DUP3 MSTORE DUP1 PUSH1 0x20 MUL PUSH1 0x20 ADD DUP3 ADD PUSH1 0x40 MSTORE DUP1 ISZERO PUSH2 0x942 JUMPI DUP2 PUSH1 0x20 ADD JUMPDEST PUSH2 0x92F PUSH2 0x222A JUMP JUMPDEST DUP2 MSTORE PUSH1 0x20 ADD SWAP1 PUSH1 0x1 SWAP1 SUB SWAP1 DUP2 PUSH2 0x927 JUMPI SWAP1 POP JUMPDEST POP SWAP1 POP PUSH1 0x0 JUMPDEST DUP5 DUP2 LT ISZERO PUSH2 0xB57 JUMPI CALLER PUSH20 0xFFFFFFFFFFFFFFFFFFFFFFFFFFFFFFFFFFFFFFFF AND PUSH1 0xF PUSH1 0x0 PUSH1 0x1 DUP5 PUSH2 0x978 SWAP2 SWAP1 PUSH2 0x2CB4 JUMP JUMPDEST DUP2 MSTORE PUSH1 0x20 ADD SWAP1 DUP2 MSTORE PUSH1 0x20 ADD PUSH1 0x0 KECCAK256 PUSH1 0x3 ADD PUSH1 0x0 SWAP1 SLOAD SWAP1 PUSH2 0x100 EXP SWAP1 DIV PUSH20 0xFFFFFFFFFFFFFFFFFFFFFFFFFFFFFFFFFFFFFFFF AND PUSH20 0xFFFFFFFFFFFFFFFFFFFFFFFFFFFFFFFFFFFFFFFF AND SUB PUSH2 0xB44 JUMPI PUSH1 0x0 PUSH1 0xF PUSH1 0x0 PUSH1 0x1 DUP5 PUSH2 0x9D8 SWAP2 SWAP1 PUSH2 0x2CB4 JUMP JUMPDEST DUP2 MSTORE PUSH1 0x20 ADD SWAP1 DUP2 MSTORE PUSH1 0x20 ADD PUSH1 0x0 KECCAK256 PUSH1 0x0 ADD SLOAD SWAP1 POP PUSH1 0x0 PUSH1 0xF PUSH1 0x0 DUP4 DUP2 MSTORE PUSH1 0x20 ADD SWAP1 DUP2 MSTORE PUSH1 0x20 ADD PUSH1 0x0 KECCAK256 SWAP1 POP DUP1 PUSH1 0x40 MLOAD DUP1 PUSH1 0xC0 ADD PUSH1 0x40 MSTORE SWAP1 DUP2 PUSH1 0x0 DUP3 ADD SLOAD DUP2 MSTORE PUSH1 0x20 ADD PUSH1 0x1 DUP3 ADD SLOAD DUP2 MSTORE PUSH1 0x20 ADD PUSH1 0x2 DUP3 ADD PUSH1 0x0 SWAP1 SLOAD SWAP1 PUSH2 0x100 EXP SWAP1 DIV PUSH20 0xFFFFFFFFFFFFFFFFFFFFFFFFFFFFFFFFFFFFFFFF AND PUSH20 0xFFFFFFFFFFFFFFFFFFFFFFFFFFFFFFFFFFFFFFFF AND PUSH20 0xFFFFFFFFFFFFFFFFFFFFFFFFFFFFFFFFFFFFFFFF AND DUP2 MSTORE PUSH1 0x20 ADD PUSH1 0x3 DUP3 ADD PUSH1 0x0 SWAP1 SLOAD SWAP1 PUSH2 0x100 EXP SWAP1 DIV PUSH20 0xFFFFFFFFFFFFFFFFFFFFFFFFFFFFFFFFFFFFFFFF AND PUSH20 0xFFFFFFFFFFFFFFFFFFFFFFFFFFFFFFFFFFFFFFFF AND PUSH20 0xFFFFFFFFFFFFFFFFFFFFFFFFFFFFFFFFFFFFFFFF AND DUP2 MSTORE PUSH1 0x20 ADD PUSH1 0x4 DUP3 ADD SLOAD DUP2 MSTORE PUSH1 0x20 ADD PUSH1 0x5 DUP3 ADD PUSH1 0x0 SWAP1 SLOAD SWAP1 PUSH2 0x100 EXP SWAP1 DIV PUSH1 0xFF AND PUSH1 0x1 DUP2 GT ISZERO PUSH2 0xAFE JUMPI PUSH2 0xAFD PUSH2 0x22F8 JUMP JUMPDEST JUMPDEST PUSH1 0x1 DUP2 GT ISZERO PUSH2 0xB10 JUMPI PUSH2 0xB0F PUSH2 0x22F8 JUMP JUMPDEST JUMPDEST DUP2 MSTORE POP POP DUP5 DUP7 DUP2 MLOAD DUP2 LT PUSH2 0xB27 JUMPI PUSH2 0xB26 PUSH2 0x2D52 JUMP JUMPDEST JUMPDEST PUSH1 0x20 MUL PUSH1 0x20 ADD ADD DUP2 SWAP1 MSTORE POP PUSH1 0x1 DUP6 PUSH2 0xB3F SWAP2 SWAP1 PUSH2 0x2CB4 JUMP JUMPDEST SWAP5 POP POP POP JUMPDEST DUP1 DUP1 PUSH2 0xB4F SWAP1 PUSH2 0x2D0A JUMP JUMPDEST SWAP2 POP POP PUSH2 0x948 JUMP JUMPDEST POP DUP1 SWAP5 POP POP POP POP POP SWAP1 JUMP JUMPDEST PUSH2 0xB6A PUSH2 0x200E JUMP JUMPDEST PUSH20 0xFFFFFFFFFFFFFFFFFFFFFFFFFFFFFFFFFFFFFFFF AND PUSH2 0xB88 PUSH2 0x1455 JUMP JUMPDEST PUSH20 0xFFFFFFFFFFFFFFFFFFFFFFFFFFFFFFFFFFFFFFFF AND EQ PUSH2 0xBDE JUMPI PUSH1 0x40 MLOAD PUSH32 0x8C379A000000000000000000000000000000000000000000000000000000000 DUP2 MSTORE PUSH1 0x4 ADD PUSH2 0xBD5 SWAP1 PUSH2 0x2973 JUMP JUMPDEST PUSH1 0x40 MLOAD DUP1 SWAP2 SUB SWAP1 REVERT JUMPDEST DUP1 PUSH1 0x9 PUSH1 0x0 PUSH2 0x100 EXP DUP2 SLOAD DUP2 PUSH20 0xFFFFFFFFFFFFFFFFFFFFFFFFFFFFFFFFFFFFFFFF MUL NOT AND SWAP1 DUP4 PUSH20 0xFFFFFFFFFFFFFFFFFFFFFFFFFFFFFFFFFFFFFFFF AND MUL OR SWAP1 SSTORE POP POP JUMP JUMPDEST PUSH2 0xC2A PUSH2 0x222A JUMP JUMPDEST PUSH1 0x0 PUSH1 0xF PUSH1 0x0 DUP5 DUP2 MSTORE PUSH1 0x20 ADD SWAP1 DUP2 MSTORE PUSH1 0x20 ADD PUSH1 0x0 KECCAK256 PUSH1 0x40 MLOAD DUP1 PUSH1 0xC0 ADD PUSH1 0x40 MSTORE SWAP1 DUP2 PUSH1 0x0 DUP3 ADD SLOAD DUP2 MSTORE PUSH1 0x20 ADD PUSH1 0x1 DUP3 ADD SLOAD DUP2 MSTORE PUSH1 0x20 ADD PUSH1 0x2 DUP3 ADD PUSH1 0x0 SWAP1 SLOAD SWAP1 PUSH2 0x100 EXP SWAP1 DIV PUSH20 0xFFFFFFFFFFFFFFFFFFFFFFFFFFFFFFFFFFFFFFFF AND PUSH20 0xFFFFFFFFFFFFFFFFFFFFFFFFFFFFFFFFFFFFFFFF AND PUSH20 0xFFFFFFFFFFFFFFFFFFFFFFFFFFFFFFFFFFFFFFFF AND DUP2 MSTORE PUSH1 0x20 ADD PUSH1 0x3 DUP3 ADD PUSH1 0x0 SWAP1 SLOAD SWAP1 PUSH2 0x100 EXP SWAP1 DIV PUSH20 0xFFFFFFFFFFFFFFFFFFFFFFFFFFFFFFFFFFFFFFFF AND PUSH20 0xFFFFFFFFFFFFFFFFFFFFFFFFFFFFFFFFFFFFFFFF AND PUSH20 0xFFFFFFFFFFFFFFFFFFFFFFFFFFFFFFFFFFFFFFFF AND DUP2 MSTORE PUSH1 0x20 ADD PUSH1 0x4 DUP3 ADD SLOAD DUP2 MSTORE PUSH1 0x20 ADD PUSH1 0x5 DUP3 ADD PUSH1 0x0 SWAP1 SLOAD SWAP1 PUSH2 0x100 EXP SWAP1 DIV PUSH1 0xFF AND PUSH1 0x1 DUP2 GT ISZERO PUSH2 0xD39 JUMPI PUSH2 0xD38 PUSH2 0x22F8 JUMP JUMPDEST JUMPDEST PUSH1 0x1 DUP2 GT ISZERO PUSH2 0xD4B JUMPI PUSH2 0xD4A PUSH2 0x22F8 JUMP JUMPDEST JUMPDEST DUP2 MSTORE POP POP SWAP1 POP DUP1 SWAP2 POP POP SWAP2 SWAP1 POP JUMP JUMPDEST PUSH4 0x80AC58CD PUSH1 0xE0 SHL DUP2 JUMP JUMPDEST PUSH1 0x2 PUSH1 0x0 SLOAD SUB PUSH2 0xDAA JUMPI PUSH1 0x40 MLOAD PUSH32 0x8C379A000000000000000000000000000000000000000000000000000000000 DUP2 MSTORE PUSH1 0x4 ADD PUSH2 0xDA1 SWAP1 PUSH2 0x2DCD JUMP JUMPDEST PUSH1 0x40 MLOAD DUP1 SWAP2 SUB SWAP1 REVERT JUMPDEST PUSH1 0x2 PUSH1 0x0 DUP2 SWAP1 SSTORE POP PUSH1 0x0 DUP2 GT PUSH2 0xDF5 JUMPI PUSH1 0x40 MLOAD PUSH32 0x8C379A000000000000000000000000000000000000000000000000000000000 DUP2 MSTORE PUSH1 0x4 ADD PUSH2 0xDEC SWAP1 PUSH2 0x2E39 JUMP JUMPDEST PUSH1 0x40 MLOAD DUP1 SWAP2 SUB SWAP1 REVERT JUMPDEST PUSH1 0x0 PUSH1 0xA PUSH1 0x0 SWAP1 SLOAD SWAP1 PUSH2 0x100 EXP SWAP1 DIV PUSH20 0xFFFFFFFFFFFFFFFFFFFFFFFFFFFFFFFFFFFFFFFF AND PUSH20 0xFFFFFFFFFFFFFFFFFFFFFFFFFFFFFFFFFFFFFFFF AND PUSH4 0xD30BDAC9 DUP5 PUSH1 0x40 MLOAD DUP3 PUSH4 0xFFFFFFFF AND PUSH1 0xE0 SHL DUP2 MSTORE PUSH1 0x4 ADD PUSH2 0xE52 SWAP2 SWAP1 PUSH2 0x2993 JUMP JUMPDEST PUSH1 0x0 PUSH1 0x40 MLOAD DUP1 DUP4 SUB DUP2 DUP7 GAS STATICCALL ISZERO DUP1 ISZERO PUSH2 0xE6F JUMPI RETURNDATASIZE PUSH1 0x0 DUP1 RETURNDATACOPY RETURNDATASIZE PUSH1 0x0 REVERT JUMPDEST POP POP POP POP PUSH1 0x40 MLOAD RETURNDATASIZE PUSH1 0x0 DUP3 RETURNDATACOPY RETURNDATASIZE PUSH1 0x1F NOT PUSH1 0x1F DUP3 ADD AND DUP3 ADD DUP1 PUSH1 0x40 MSTORE POP DUP2 ADD SWAP1 PUSH2 0xE98 SWAP2 SWAP1 PUSH2 0x2C3C JUMP JUMPDEST SWAP1 POP PUSH1 0x0 ISZERO ISZERO DUP2 PUSH1 0x80 ADD MLOAD ISZERO ISZERO EQ PUSH2 0xEE5 JUMPI PUSH1 0x40 MLOAD PUSH32 0x8C379A000000000000000000000000000000000000000000000000000000000 DUP2 MSTORE PUSH1 0x4 ADD PUSH2 0xEDC SWAP1 PUSH2 0x2EA5 JUMP JUMPDEST PUSH1 0x40 MLOAD DUP1 SWAP2 SUB SWAP1 REVERT JUMPDEST PUSH2 0xEEF PUSH1 0xD PUSH2 0x2024 JUMP JUMPDEST PUSH1 0x0 PUSH2 0xEFB PUSH1 0xD PUSH2 0x2016 JUMP JUMPDEST SWAP1 POP PUSH1 0x40 MLOAD DUP1 PUSH1 0xC0 ADD PUSH1 0x40 MSTORE DUP1 DUP3 DUP2 MSTORE PUSH1 0x20 ADD DUP6 DUP2 MSTORE PUSH1 0x20 ADD CALLER PUSH20 0xFFFFFFFFFFFFFFFFFFFFFFFFFFFFFFFFFFFFFFFF AND DUP2 MSTORE PUSH1 0x20 ADD PUSH1 0x0 PUSH20 0xFFFFFFFFFFFFFFFFFFFFFFFFFFFFFFFFFFFFFFFF AND DUP2 MSTORE PUSH1 0x20 ADD DUP5 DUP2 MSTORE PUSH1 0x20 ADD PUSH1 0x1 DUP1 DUP2 GT ISZERO PUSH2 0xF66 JUMPI PUSH2 0xF65 PUSH2 0x22F8 JUMP JUMPDEST JUMPDEST DUP2 MSTORE POP PUSH1 0xF PUSH1 0x0 DUP4 DUP2 MSTORE PUSH1 0x20 ADD SWAP1 DUP2 MSTORE PUSH1 0x20 ADD PUSH1 0x0 KECCAK256 PUSH1 0x0 DUP3 ADD MLOAD DUP2 PUSH1 0x0 ADD SSTORE PUSH1 0x20 DUP3 ADD MLOAD DUP2 PUSH1 0x1 ADD SSTORE PUSH1 0x40 DUP3 ADD MLOAD DUP2 PUSH1 0x2 ADD PUSH1 0x0 PUSH2 0x100 EXP DUP2 SLOAD DUP2 PUSH20 0xFFFFFFFFFFFFFFFFFFFFFFFFFFFFFFFFFFFFFFFF MUL NOT AND SWAP1 DUP4 PUSH20 0xFFFFFFFFFFFFFFFFFFFFFFFFFFFFFFFFFFFFFFFF AND MUL OR SWAP1 SSTORE POP PUSH1 0x60 DUP3 ADD MLOAD DUP2 PUSH1 0x3 ADD PUSH1 0x0 PUSH2 0x100 EXP DUP2 SLOAD DUP2 PUSH20 0xFFFFFFFFFFFFFFFFFFFFFFFFFFFFFFFFFFFFFFFF MUL NOT AND SWAP1 DUP4 PUSH20 0xFFFFFFFFFFFFFFFFFFFFFFFFFFFFFFFFFFFFFFFF AND MUL OR SWAP1 SSTORE POP PUSH1 0x80 DUP3 ADD MLOAD DUP2 PUSH1 0x4 ADD SSTORE PUSH1 0xA0 DUP3 ADD MLOAD DUP2 PUSH1 0x5 ADD PUSH1 0x0 PUSH2 0x100 EXP DUP2 SLOAD DUP2 PUSH1 0xFF MUL NOT AND SWAP1 DUP4 PUSH1 0x1 DUP2 GT ISZERO PUSH2 0x1053 JUMPI PUSH2 0x1052 PUSH2 0x22F8 JUMP JUMPDEST JUMPDEST MUL OR SWAP1 SSTORE POP SWAP1 POP POP PUSH1 0xB PUSH1 0x0 SWAP1 SLOAD SWAP1 PUSH2 0x100 EXP SWAP1 DIV PUSH20 0xFFFFFFFFFFFFFFFFFFFFFFFFFFFFFFFFFFFFFFFF AND PUSH20 0xFFFFFFFFFFFFFFFFFFFFFFFFFFFFFFFFFFFFFFFF AND PUSH4 0x23B872DD CALLER ADDRESS DUP8 PUSH1 0x40 MLOAD DUP5 PUSH4 0xFFFFFFFF AND PUSH1 0xE0 SHL DUP2 MSTORE PUSH1 0x4 ADD PUSH2 0x10BA SWAP4 SWAP3 SWAP2 SWAP1 PUSH2 0x2EC5 JUMP JUMPDEST PUSH1 0x0 PUSH1 0x40 MLOAD DUP1 DUP4 SUB DUP2 PUSH1 0x0 DUP8 DUP1 EXTCODESIZE ISZERO DUP1 ISZERO PUSH2 0x10D4 JUMPI PUSH1 0x0 DUP1 REVERT JUMPDEST POP GAS CALL ISZERO DUP1 ISZERO PUSH2 0x10E8 JUMPI RETURNDATASIZE PUSH1 0x0 DUP1 RETURNDATACOPY RETURNDATASIZE PUSH1 0x0 REVERT JUMPDEST POP POP POP POP PUSH1 0xA PUSH1 0x0 SWAP1 SLOAD SWAP1 PUSH2 0x100 EXP SWAP1 DIV PUSH20 0xFFFFFFFFFFFFFFFFFFFFFFFFFFFFFFFFFFFFFFFF AND PUSH20 0xFFFFFFFFFFFFFFFFFFFFFFFFFFFFFFFFFFFFFFFF AND PUSH4 0x443B8CB7 ADDRESS DUP7 PUSH1 0x40 MLOAD DUP4 PUSH4 0xFFFFFFFF AND PUSH1 0xE0 SHL DUP2 MSTORE PUSH1 0x4 ADD PUSH2 0x1149 SWAP3 SWAP2 SWAP1 PUSH2 0x2EFC JUMP JUMPDEST PUSH1 0x0 PUSH1 0x40 MLOAD DUP1 DUP4 SUB DUP2 PUSH1 0x0 DUP8 DUP1 EXTCODESIZE ISZERO DUP1 ISZERO PUSH2 0x1163 JUMPI PUSH1 0x0 DUP1 REVERT JUMPDEST POP GAS CALL ISZERO DUP1 ISZERO PUSH2 0x1177 JUMPI RETURNDATASIZE PUSH1 0x0 DUP1 RETURNDATACOPY RETURNDATASIZE PUSH1 0x0 REVERT JUMPDEST POP POP POP POP DUP4 DUP2 PUSH32 0x38690A554FFBC44EB6A75016E47D517D0DB8E6C37494ADC68D6D0B2C66F0AB21 CALLER PUSH1 0x0 DUP8 PUSH1 0x40 MLOAD PUSH2 0x11B1 SWAP4 SWAP3 SWAP2 SWAP1 PUSH2 0x2EC5 JUMP JUMPDEST PUSH1 0x40 MLOAD DUP1 SWAP2 SUB SWAP1 LOG3 POP POP PUSH1 0x1 PUSH1 0x0 DUP2 SWAP1 SSTORE POP POP POP JUMP JUMPDEST PUSH1 0x9 PUSH1 0x0 SWAP1 SLOAD SWAP1 PUSH2 0x100 EXP SWAP1 DIV PUSH20 0xFFFFFFFFFFFFFFFFFFFFFFFFFFFFFFFFFFFFFFFF AND DUP2 JUMP JUMPDEST PUSH1 0x1 DUP1 PUSH1 0x0 ADD SLOAD SWAP1 DUP1 PUSH1 0x1 ADD SLOAD SWAP1 DUP1 PUSH1 0x2 ADD PUSH1 0x0 SWAP1 SLOAD SWAP1 PUSH2 0x100 EXP SWAP1 DIV PUSH20 0xFFFFFFFFFFFFFFFFFFFFFFFFFFFFFFFFFFFFFFFF AND SWAP1 DUP1 PUSH1 0x3 ADD PUSH1 0x0 SWAP1 SLOAD SWAP1 PUSH2 0x100 EXP SWAP1 DIV PUSH20 0xFFFFFFFFFFFFFFFFFFFFFFFFFFFFFFFFFFFFFFFF AND SWAP1 DUP1 PUSH1 0x4 ADD SLOAD SWAP1 DUP1 PUSH1 0x5 ADD PUSH1 0x0 SWAP1 SLOAD SWAP1 PUSH2 0x100 EXP SWAP1 DIV PUSH1 0xFF AND SWAP1 POP DUP7 JUMP JUMPDEST PUSH2 0x126C PUSH2 0x200E JUMP JUMPDEST PUSH20 0xFFFFFFFFFFFFFFFFFFFFFFFFFFFFFFFFFFFFFFFF AND PUSH2 0x128A PUSH2 0x1455 JUMP JUMPDEST PUSH20 0xFFFFFFFFFFFFFFFFFFFFFFFFFFFFFFFFFFFFFFFF AND EQ PUSH2 0x12E0 JUMPI PUSH1 0x40 MLOAD PUSH32 0x8C379A000000000000000000000000000000000000000000000000000000000 DUP2 MSTORE PUSH1 0x4 ADD PUSH2 0x12D7 SWAP1 PUSH2 0x2973 JUMP JUMPDEST PUSH1 0x40 MLOAD DUP1 SWAP2 SUB SWAP1 REVERT JUMPDEST DUP1 PUSH1 0xA PUSH1 0x0 PUSH2 0x100 EXP DUP2 SLOAD DUP2 PUSH20 0xFFFFFFFFFFFFFFFFFFFFFFFFFFFFFFFFFFFFFFFF MUL NOT AND SWAP1 DUP4 PUSH20 0xFFFFFFFFFFFFFFFFFFFFFFFFFFFFFFFFFFFFFFFF AND MUL OR SWAP1 SSTORE POP POP JUMP JUMPDEST PUSH1 0x8 PUSH1 0x20 MSTORE DUP2 PUSH1 0x0 MSTORE PUSH1 0x40 PUSH1 0x0 KECCAK256 PUSH1 0x20 MSTORE DUP1 PUSH1 0x0 MSTORE PUSH1 0x40 PUSH1 0x0 KECCAK256 PUSH1 0x0 SWAP2 POP SWAP2 POP POP DUP1 PUSH1 0x0 ADD SLOAD SWAP1 DUP1 PUSH1 0x1 ADD SLOAD SWAP1 DUP1 PUSH1 0x2 ADD PUSH1 0x0 SWAP1 SLOAD SWAP1 PUSH2 0x100 EXP SWAP1 DIV PUSH20 0xFFFFFFFFFFFFFFFFFFFFFFFFFFFFFFFFFFFFFFFF AND SWAP1 DUP1 PUSH1 0x3 ADD PUSH1 0x0 SWAP1 SLOAD SWAP1 PUSH2 0x100 EXP SWAP1 DIV PUSH20 0xFFFFFFFFFFFFFFFFFFFFFFFFFFFFFFFFFFFFFFFF AND SWAP1 DUP1 PUSH1 0x4 ADD SLOAD SWAP1 DUP1 PUSH1 0x5 ADD PUSH1 0x0 SWAP1 SLOAD SWAP1 PUSH2 0x100 EXP SWAP1 DIV PUSH1 0xFF AND SWAP1 POP DUP7 JUMP JUMPDEST PUSH2 0x13C2 PUSH2 0x200E JUMP JUMPDEST PUSH20 0xFFFFFFFFFFFFFFFFFFFFFFFFFFFFFFFFFFFFFFFF AND PUSH2 0x13E0 PUSH2 0x1455 JUMP JUMPDEST PUSH20 0xFFFFFFFFFFFFFFFFFFFFFFFFFFFFFFFFFFFFFFFF AND EQ PUSH2 0x1436 JUMPI PUSH1 0x40 MLOAD PUSH32 0x8C379A000000000000000000000000000000000000000000000000000000000 DUP2 MSTORE PUSH1 0x4 ADD PUSH2 0x142D SWAP1 PUSH2 0x2973 JUMP JUMPDEST PUSH1 0x40 MLOAD DUP1 SWAP2 SUB SWAP1 REVERT JUMPDEST PUSH2 0x1440 PUSH1 0x0 PUSH2 0x203A JUMP JUMPDEST JUMP JUMPDEST PUSH1 0xB PUSH1 0x14 SWAP1 SLOAD SWAP1 PUSH2 0x100 EXP SWAP1 DIV PUSH1 0xFF AND DUP2 JUMP JUMPDEST PUSH1 0x0 PUSH1 0xC PUSH1 0x0 SWAP1 SLOAD SWAP1 PUSH2 0x100 EXP SWAP1 DIV PUSH20 0xFFFFFFFFFFFFFFFFFFFFFFFFFFFFFFFFFFFFFFFF AND SWAP1 POP SWAP1 JUMP JUMPDEST PUSH1 0x2 PUSH1 0x0 SLOAD SUB PUSH2 0x14C4 JUMPI PUSH1 0x40 MLOAD PUSH32 0x8C379A000000000000000000000000000000000000000000000000000000000 DUP2 MSTORE PUSH1 0x4 ADD PUSH2 0x14BB SWAP1 PUSH2 0x2DCD JUMP JUMPDEST PUSH1 0x40 MLOAD DUP1 SWAP2 SUB SWAP1 REVERT JUMPDEST PUSH1 0x2 PUSH1 0x0 DUP2 SWAP1 SSTORE POP PUSH1 0x0 PUSH1 0xF PUSH1 0x0 DUP5 DUP2 MSTORE PUSH1 0x20 ADD SWAP1 DUP2 MSTORE PUSH1 0x20 ADD PUSH1 0x0 KECCAK256 PUSH1 0x4 ADD SLOAD SWAP1 POP PUSH1 0x0 PUSH1 0xF PUSH1 0x0 DUP6 DUP2 MSTORE PUSH1 0x20 ADD SWAP1 DUP2 MSTORE PUSH1 0x20 ADD PUSH1 0x0 KECCAK256 PUSH1 0x1 ADD SLOAD SWAP1 POP DUP2 DUP4 EQ PUSH2 0x1544 JUMPI PUSH1 0x40 MLOAD PUSH32 0x8C379A000000000000000000000000000000000000000000000000000000000 DUP2 MSTORE PUSH1 0x4 ADD PUSH2 0x153B SWAP1 PUSH2 0x2F97 JUMP JUMPDEST PUSH1 0x40 MLOAD DUP1 SWAP2 SUB SWAP1 REVERT JUMPDEST PUSH1 0x9 PUSH1 0x0 SWAP1 SLOAD SWAP1 PUSH2 0x100 EXP SWAP1 DIV PUSH20 0xFFFFFFFFFFFFFFFFFFFFFFFFFFFFFFFFFFFFFFFF AND PUSH20 0xFFFFFFFFFFFFFFFFFFFFFFFFFFFFFFFFFFFFFFFF AND PUSH4 0x23B872DD CALLER PUSH1 0xF PUSH1 0x0 DUP9 DUP2 MSTORE PUSH1 0x20 ADD SWAP1 DUP2 MSTORE PUSH1 0x20 ADD PUSH1 0x0 KECCAK256 PUSH1 0x2 ADD PUSH1 0x0 SWAP1 SLOAD SWAP1 PUSH2 0x100 EXP SWAP1 DIV PUSH20 0xFFFFFFFFFFFFFFFFFFFFFFFFFFFFFFFFFFFFFFFF AND DUP7 PUSH1 0x40 MLOAD DUP5 PUSH4 0xFFFFFFFF AND PUSH1 0xE0 SHL DUP2 MSTORE PUSH1 0x4 ADD PUSH2 0x15D9 SWAP4 SWAP3 SWAP2 SWAP1 PUSH2 0x2FD8 JUMP JUMPDEST PUSH1 0x20 PUSH1 0x40 MLOAD DUP1 DUP4 SUB DUP2 PUSH1 0x0 DUP8 GAS CALL ISZERO DUP1 ISZERO PUSH2 0x15F8 JUMPI RETURNDATASIZE PUSH1 0x0 DUP1 RETURNDATACOPY RETURNDATASIZE PUSH1 0x0 REVERT JUMPDEST POP POP POP POP PUSH1 0x40 MLOAD RETURNDATASIZE PUSH1 0x1F NOT PUSH1 0x1F DUP3 ADD AND DUP3 ADD DUP1 PUSH1 0x40 MSTORE POP DUP2 ADD SWAP1 PUSH2 0x161C SWAP2 SWAP1 PUSH2 0x300F JUMP JUMPDEST POP PUSH1 0xB PUSH1 0x0 SWAP1 SLOAD SWAP1 PUSH2 0x100 EXP SWAP1 DIV PUSH20 0xFFFFFFFFFFFFFFFFFFFFFFFFFFFFFFFFFFFFFFFF AND PUSH20 0xFFFFFFFFFFFFFFFFFFFFFFFFFFFFFFFFFFFFFFFF AND PUSH4 0x23B872DD ADDRESS CALLER DUP5 PUSH1 0x40 MLOAD DUP5 PUSH4 0xFFFFFFFF AND PUSH1 0xE0 SHL DUP2 MSTORE PUSH1 0x4 ADD PUSH2 0x167C SWAP4 SWAP3 SWAP2 SWAP1 PUSH2 0x2EC5 JUMP JUMPDEST PUSH1 0x0 PUSH1 0x40 MLOAD DUP1 DUP4 SUB DUP2 PUSH1 0x0 DUP8 DUP1 EXTCODESIZE ISZERO DUP1 ISZERO PUSH2 0x1696 JUMPI PUSH1 0x0 DUP1 REVERT JUMPDEST POP GAS CALL ISZERO DUP1 ISZERO PUSH2 0x16AA JUMPI RETURNDATASIZE PUSH1 0x0 DUP1 RETURNDATACOPY RETURNDATASIZE PUSH1 0x0 REVERT JUMPDEST POP POP POP POP CALLER PUSH1 0xF PUSH1 0x0 DUP7 DUP2 MSTORE PUSH1 0x20 ADD SWAP1 DUP2 MSTORE PUSH1 0x20 ADD PUSH1 0x0 KECCAK256 PUSH1 0x3 ADD PUSH1 0x0 PUSH2 0x100 EXP DUP2 SLOAD DUP2 PUSH20 0xFFFFFFFFFFFFFFFFFFFFFFFFFFFFFFFFFFFFFFFF MUL NOT AND SWAP1 DUP4 PUSH20 0xFFFFFFFFFFFFFFFFFFFFFFFFFFFFFFFFFFFFFFFF AND MUL OR SWAP1 SSTORE POP PUSH1 0x0 PUSH1 0xF PUSH1 0x0 DUP7 DUP2 MSTORE PUSH1 0x20 ADD SWAP1 DUP2 MSTORE PUSH1 0x20 ADD PUSH1 0x0 KECCAK256 PUSH1 0x5 ADD PUSH1 0x0 PUSH2 0x100 EXP DUP2 SLOAD DUP2 PUSH1 0xFF MUL NOT AND SWAP1 DUP4 PUSH1 0x1 DUP2 GT ISZERO PUSH2 0x173D JUMPI PUSH2 0x173C PUSH2 0x22F8 JUMP JUMPDEST JUMPDEST MUL OR SWAP1 SSTORE POP PUSH1 0xA PUSH1 0x0 SWAP1 SLOAD SWAP1 PUSH2 0x100 EXP SWAP1 DIV PUSH20 0xFFFFFFFFFFFFFFFFFFFFFFFFFFFFFFFFFFFFFFFF AND PUSH20 0xFFFFFFFFFFFFFFFFFFFFFFFFFFFFFFFFFFFFFFFF AND PUSH4 0x443B8CB7 ADDRESS DUP4 PUSH1 0x40 MLOAD DUP4 PUSH4 0xFFFFFFFF AND PUSH1 0xE0 SHL DUP2 MSTORE PUSH1 0x4 ADD PUSH2 0x179F SWAP3 SWAP2 SWAP1 PUSH2 0x2EFC JUMP JUMPDEST PUSH1 0x0 PUSH1 0x40 MLOAD DUP1 DUP4 SUB DUP2 PUSH1 0x0 DUP8 DUP1 EXTCODESIZE ISZERO DUP1 ISZERO PUSH2 0x17B9 JUMPI PUSH1 0x0 DUP1 REVERT JUMPDEST POP GAS CALL ISZERO DUP1 ISZERO PUSH2 0x17CD JUMPI RETURNDATASIZE PUSH1 0x0 DUP1 RETURNDATACOPY RETURNDATASIZE PUSH1 0x0 REVERT JUMPDEST POP POP POP POP PUSH2 0x17DB PUSH1 0xE PUSH2 0x2024 JUMP JUMPDEST POP POP PUSH1 0x1 PUSH1 0x0 DUP2 SWAP1 SSTORE POP POP POP JUMP JUMPDEST PUSH2 0x17F2 DUP3 PUSH2 0x2100 JUMP JUMPDEST PUSH1 0x0 CALLER SWAP1 POP PUSH1 0x0 PUSH1 0xF PUSH1 0x0 DUP5 DUP2 MSTORE PUSH1 0x20 ADD SWAP1 DUP2 MSTORE PUSH1 0x20 ADD PUSH1 0x0 KECCAK256 PUSH1 0x40 MLOAD DUP1 PUSH1 0xC0 ADD PUSH1 0x40 MSTORE SWAP1 DUP2 PUSH1 0x0 DUP3 ADD SLOAD DUP2 MSTORE PUSH1 0x20 ADD PUSH1 0x1 DUP3 ADD SLOAD DUP2 MSTORE PUSH1 0x20 ADD PUSH1 0x2 DUP3 ADD PUSH1 0x0 SWAP1 SLOAD SWAP1 PUSH2 0x100 EXP SWAP1 DIV PUSH20 0xFFFFFFFFFFFFFFFFFFFFFFFFFFFFFFFFFFFFFFFF AND PUSH20 0xFFFFFFFFFFFFFFFFFFFFFFFFFFFFFFFFFFFFFFFF AND PUSH20 0xFFFFFFFFFFFFFFFFFFFFFFFFFFFFFFFFFFFFFFFF AND DUP2 MSTORE PUSH1 0x20 ADD PUSH1 0x3 DUP3 ADD PUSH1 0x0 SWAP1 SLOAD SWAP1 PUSH2 0x100 EXP SWAP1 DIV PUSH20 0xFFFFFFFFFFFFFFFFFFFFFFFFFFFFFFFFFFFFFFFF AND PUSH20 0xFFFFFFFFFFFFFFFFFFFFFFFFFFFFFFFFFFFFFFFF AND PUSH20 0xFFFFFFFFFFFFFFFFFFFFFFFFFFFFFFFFFFFFFFFF AND DUP2 MSTORE PUSH1 0x20 ADD PUSH1 0x4 DUP3 ADD SLOAD DUP2 MSTORE PUSH1 0x20 ADD PUSH1 0x5 DUP3 ADD PUSH1 0x0 SWAP1 SLOAD SWAP1 PUSH2 0x100 EXP SWAP1 DIV PUSH1 0xFF AND PUSH1 0x1 DUP2 GT ISZERO PUSH2 0x1906 JUMPI PUSH2 0x1905 PUSH2 0x22F8 JUMP JUMPDEST JUMPDEST PUSH1 0x1 DUP2 GT ISZERO PUSH2 0x1918 JUMPI PUSH2 0x1917 PUSH2 0x22F8 JUMP JUMPDEST JUMPDEST DUP2 MSTORE POP POP SWAP1 POP PUSH1 0x0 DUP2 PUSH1 0x0 ADD MLOAD SUB PUSH2 0x1965 JUMPI PUSH1 0x40 MLOAD PUSH32 0x8C379A000000000000000000000000000000000000000000000000000000000 DUP2 MSTORE PUSH1 0x4 ADD PUSH2 0x195C SWAP1 PUSH2 0x3088 JUMP JUMPDEST PUSH1 0x40 MLOAD DUP1 SWAP2 SUB SWAP1 REVERT JUMPDEST PUSH1 0x0 PUSH1 0x1 DUP2 GT ISZERO PUSH2 0x1979 JUMPI PUSH2 0x1978 PUSH2 0x22F8 JUMP JUMPDEST JUMPDEST DUP2 PUSH1 0xA0 ADD MLOAD PUSH1 0x1 DUP2 GT ISZERO PUSH2 0x1990 JUMPI PUSH2 0x198F PUSH2 0x22F8 JUMP JUMPDEST JUMPDEST SUB PUSH2 0x19D0 JUMPI PUSH1 0x40 MLOAD PUSH32 0x8C379A000000000000000000000000000000000000000000000000000000000 DUP2 MSTORE PUSH1 0x4 ADD PUSH2 0x19C7 SWAP1 PUSH2 0x30F4 JUMP JUMPDEST PUSH1 0x40 MLOAD DUP1 SWAP2 SUB SWAP1 REVERT JUMPDEST PUSH1 0x0 DUP2 PUSH1 0x40 ADD MLOAD SWAP1 POP PUSH1 0x0 PUSH20 0xFFFFFFFFFFFFFFFFFFFFFFFFFFFFFFFFFFFFFFFF AND DUP2 PUSH20 0xFFFFFFFFFFFFFFFFFFFFFFFFFFFFFFFFFFFFFFFF AND SUB PUSH2 0x1A48 JUMPI PUSH1 0x40 MLOAD PUSH32 0x8C379A000000000000000000000000000000000000000000000000000000000 DUP2 MSTORE PUSH1 0x4 ADD PUSH2 0x1A3F SWAP1 PUSH2 0x3160 JUMP JUMPDEST PUSH1 0x40 MLOAD DUP1 SWAP2 SUB SWAP1 REVERT JUMPDEST CALLER PUSH20 0xFFFFFFFFFFFFFFFFFFFFFFFFFFFFFFFFFFFFFFFF AND DUP2 PUSH20 0xFFFFFFFFFFFFFFFFFFFFFFFFFFFFFFFFFFFFFFFF AND EQ PUSH2 0x1AB6 JUMPI PUSH1 0x40 MLOAD PUSH32 0x8C379A000000000000000000000000000000000000000000000000000000000 DUP2 MSTORE PUSH1 0x4 ADD PUSH2 0x1AAD SWAP1 PUSH2 0x31CC JUMP JUMPDEST PUSH1 0x40 MLOAD DUP1 SWAP2 SUB SWAP1 REVERT JUMPDEST PUSH1 0x0 DUP6 SWAP1 POP DUP1 PUSH20 0xFFFFFFFFFFFFFFFFFFFFFFFFFFFFFFFFFFFFFFFF AND PUSH4 0x42842E0E ADDRESS DUP5 DUP9 PUSH1 0x40 MLOAD DUP5 PUSH4 0xFFFFFFFF AND PUSH1 0xE0 SHL DUP2 MSTORE PUSH1 0x4 ADD PUSH2 0x1AF8 SWAP4 SWAP3 SWAP2 SWAP1 PUSH2 0x2EC5 JUMP JUMPDEST PUSH1 0x0 PUSH1 0x40 MLOAD DUP1 DUP4 SUB DUP2 PUSH1 0x0 DUP8 DUP1 EXTCODESIZE ISZERO DUP1 ISZERO PUSH2 0x1B12 JUMPI PUSH1 0x0 DUP1 REVERT JUMPDEST POP GAS CALL ISZERO DUP1 ISZERO PUSH2 0x1B26 JUMPI RETURNDATASIZE PUSH1 0x0 DUP1 RETURNDATACOPY RETURNDATASIZE PUSH1 0x0 REVERT JUMPDEST POP POP POP POP PUSH1 0x0 DUP4 PUSH1 0xA0 ADD SWAP1 PUSH1 0x1 DUP2 GT ISZERO PUSH2 0x1B43 JUMPI PUSH2 0x1B42 PUSH2 0x22F8 JUMP JUMPDEST JUMPDEST SWAP1 DUP2 PUSH1 0x1 DUP2 GT ISZERO PUSH2 0x1B57 JUMPI PUSH2 0x1B56 PUSH2 0x22F8 JUMP JUMPDEST JUMPDEST DUP2 MSTORE POP POP PUSH1 0xF PUSH1 0x0 DUP7 DUP2 MSTORE PUSH1 0x20 ADD SWAP1 DUP2 MSTORE PUSH1 0x20 ADD PUSH1 0x0 KECCAK256 PUSH1 0x0 DUP1 DUP3 ADD PUSH1 0x0 SWAP1 SSTORE PUSH1 0x1 DUP3 ADD PUSH1 0x0 SWAP1 SSTORE PUSH1 0x2 DUP3 ADD PUSH1 0x0 PUSH2 0x100 EXP DUP2 SLOAD SWAP1 PUSH20 0xFFFFFFFFFFFFFFFFFFFFFFFFFFFFFFFFFFFFFFFF MUL NOT AND SWAP1 SSTORE PUSH1 0x3 DUP3 ADD PUSH1 0x0 PUSH2 0x100 EXP DUP2 SLOAD SWAP1 PUSH20 0xFFFFFFFFFFFFFFFFFFFFFFFFFFFFFFFFFFFFFFFF MUL NOT AND SWAP1 SSTORE PUSH1 0x4 DUP3 ADD PUSH1 0x0 SWAP1 SSTORE PUSH1 0x5 DUP3 ADD PUSH1 0x0 PUSH2 0x100 EXP DUP2 SLOAD SWAP1 PUSH1 0xFF MUL NOT AND SWAP1 SSTORE POP POP DUP4 PUSH20 0xFFFFFFFFFFFFFFFFFFFFFFFFFFFFFFFFFFFFFFFF AND DUP6 PUSH32 0xC141ECC59E1A451EE7D3128743C8CA3174955CE97262896269482D5F84B39A85 DUP9 DUP7 PUSH1 0x0 ADD MLOAD TIMESTAMP PUSH1 0x40 MLOAD PUSH2 0x1C3A SWAP4 SWAP3 SWAP2 SWAP1 PUSH2 0x31EC JUMP JUMPDEST PUSH1 0x40 MLOAD DUP1 SWAP2 SUB SWAP1 LOG3 POP POP POP POP POP POP JUMP JUMPDEST PUSH1 0xB PUSH1 0x15 SWAP1 SLOAD SWAP1 PUSH2 0x100 EXP SWAP1 DIV PUSH1 0xFF AND DUP2 JUMP JUMPDEST PUSH1 0xA PUSH1 0x0 SWAP1 SLOAD SWAP1 PUSH2 0x100 EXP SWAP1 DIV PUSH20 0xFFFFFFFFFFFFFFFFFFFFFFFFFFFFFFFFFFFFFFFF AND DUP2 JUMP JUMPDEST PUSH2 0x1C8B PUSH2 0x222A JUMP JUMPDEST PUSH1 0xF PUSH1 0x0 DUP4 DUP2 MSTORE PUSH1 0x20 ADD SWAP1 DUP2 MSTORE PUSH1 0x20 ADD PUSH1 0x0 KECCAK256 PUSH1 0x40 MLOAD DUP1 PUSH1 0xC0 ADD PUSH1 0x40 MSTORE SWAP1 DUP2 PUSH1 0x0 DUP3 ADD SLOAD DUP2 MSTORE PUSH1 0x20 ADD PUSH1 0x1 DUP3 ADD SLOAD DUP2 MSTORE PUSH1 0x20 ADD PUSH1 0x2 DUP3 ADD PUSH1 0x0 SWAP1 SLOAD SWAP1 PUSH2 0x100 EXP SWAP1 DIV PUSH20 0xFFFFFFFFFFFFFFFFFFFFFFFFFFFFFFFFFFFFFFFF AND PUSH20 0xFFFFFFFFFFFFFFFFFFFFFFFFFFFFFFFFFFFFFFFF AND PUSH20 0xFFFFFFFFFFFFFFFFFFFFFFFFFFFFFFFFFFFFFFFF AND DUP2 MSTORE PUSH1 0x20 ADD PUSH1 0x3 DUP3 ADD PUSH1 0x0 SWAP1 SLOAD SWAP1 PUSH2 0x100 EXP SWAP1 DIV PUSH20 0xFFFFFFFFFFFFFFFFFFFFFFFFFFFFFFFFFFFFFFFF AND PUSH20 0xFFFFFFFFFFFFFFFFFFFFFFFFFFFFFFFFFFFFFFFF AND PUSH20 0xFFFFFFFFFFFFFFFFFFFFFFFFFFFFFFFFFFFFFFFF AND DUP2 MSTORE PUSH1 0x20 ADD PUSH1 0x4 DUP3 ADD SLOAD DUP2 MSTORE PUSH1 0x20 ADD PUSH1 0x5 DUP3 ADD PUSH1 0x0 SWAP1 SLOAD SWAP1 PUSH2 0x100 EXP SWAP1 DIV PUSH1 0xFF AND PUSH1 0x1 DUP2 GT ISZERO PUSH2 0x1D98 JUMPI PUSH2 0x1D97 PUSH2 0x22F8 JUMP JUMPDEST JUMPDEST PUSH1 0x1 DUP2 GT ISZERO PUSH2 0x1DAA JUMPI PUSH2 0x1DA9 PUSH2 0x22F8 JUMP JUMPDEST JUMPDEST DUP2 MSTORE POP POP SWAP1 POP SWAP2 SWAP1 POP JUMP JUMPDEST PUSH1 0x0 DUP1 PUSH1 0xA PUSH1 0x0 SWAP1 SLOAD SWAP1 PUSH2 0x100 EXP SWAP1 DIV PUSH20 0xFFFFFFFFFFFFFFFFFFFFFFFFFFFFFFFFFFFFFFFF AND PUSH20 0xFFFFFFFFFFFFFFFFFFFFFFFFFFFFFFFFFFFFFFFF AND PUSH4 0xD30BDAC9 DUP5 PUSH1 0x40 MLOAD DUP3 PUSH4 0xFFFFFFFF AND PUSH1 0xE0 SHL DUP2 MSTORE PUSH1 0x4 ADD PUSH2 0x1E13 SWAP2 SWAP1 PUSH2 0x2993 JUMP JUMPDEST PUSH1 0x0 PUSH1 0x40 MLOAD DUP1 DUP4 SUB DUP2 DUP7 GAS STATICCALL ISZERO DUP1 ISZERO PUSH2 0x1E30 JUMPI RETURNDATASIZE PUSH1 0x0 DUP1 RETURNDATACOPY RETURNDATASIZE PUSH1 0x0 REVERT JUMPDEST POP POP POP POP PUSH1 0x40 MLOAD RETURNDATASIZE PUSH1 0x0 DUP3 RETURNDATACOPY RETURNDATASIZE PUSH1 0x1F NOT PUSH1 0x1F DUP3 ADD AND DUP3 ADD DUP1 PUSH1 0x40 MSTORE POP DUP2 ADD SWAP1 PUSH2 0x1E59 SWAP2 SWAP1 PUSH2 0x2C3C JUMP JUMPDEST SWAP1 POP DUP1 PUSH1 0x20 ADD MLOAD SWAP2 POP POP SWAP2 SWAP1 POP JUMP JUMPDEST PUSH2 0x1E70 PUSH2 0x200E JUMP JUMPDEST PUSH20 0xFFFFFFFFFFFFFFFFFFFFFFFFFFFFFFFFFFFFFFFF AND PUSH2 0x1E8E PUSH2 0x1455 JUMP JUMPDEST PUSH20 0xFFFFFFFFFFFFFFFFFFFFFFFFFFFFFFFFFFFFFFFF AND EQ PUSH2 0x1EE4 JUMPI PUSH1 0x40 MLOAD PUSH32 0x8C379A000000000000000000000000000000000000000000000000000000000 DUP2 MSTORE PUSH1 0x4 ADD PUSH2 0x1EDB SWAP1 PUSH2 0x2973 JUMP JUMPDEST PUSH1 0x40 MLOAD DUP1 SWAP2 SUB SWAP1 REVERT JUMPDEST PUSH1 0x0 PUSH20 0xFFFFFFFFFFFFFFFFFFFFFFFFFFFFFFFFFFFFFFFF AND DUP2 PUSH20 0xFFFFFFFFFFFFFFFFFFFFFFFFFFFFFFFFFFFFFFFF AND SUB PUSH2 0x1F53 JUMPI PUSH1 0x40 MLOAD PUSH32 0x8C379A000000000000000000000000000000000000000000000000000000000 DUP2 MSTORE PUSH1 0x4 ADD PUSH2 0x1F4A SWAP1 PUSH2 0x3295 JUMP JUMPDEST PUSH1 0x40 MLOAD DUP1 SWAP2 SUB SWAP1 REVERT JUMPDEST PUSH2 0x1F5C DUP2 PUSH2 0x203A JUMP JUMPDEST POP JUMP JUMPDEST PUSH1 0xB PUSH1 0x0 SWAP1 SLOAD SWAP1 PUSH2 0x100 EXP SWAP1 DIV PUSH20 0xFFFFFFFFFFFFFFFFFFFFFFFFFFFFFFFFFFFFFFFF AND DUP2 JUMP JUMPDEST PUSH1 0x7 PUSH1 0x20 MSTORE DUP1 PUSH1 0x0 MSTORE PUSH1 0x40 PUSH1 0x0 KECCAK256 PUSH1 0x0 SWAP2 POP SWAP1 POP DUP1 PUSH1 0x0 ADD SLOAD SWAP1 DUP1 PUSH1 0x1 ADD SLOAD SWAP1 DUP1 PUSH1 0x2 ADD PUSH1 0x0 SWAP1 SLOAD SWAP1 PUSH2 0x100 EXP SWAP1 DIV PUSH20 0xFFFFFFFFFFFFFFFFFFFFFFFFFFFFFFFFFFFFFFFF AND SWAP1 DUP1 PUSH1 0x3 ADD PUSH1 0x0 SWAP1 SLOAD SWAP1 PUSH2 0x100 EXP SWAP1 DIV PUSH20 0xFFFFFFFFFFFFFFFFFFFFFFFFFFFFFFFFFFFFFFFF AND SWAP1 DUP1 PUSH1 0x4 ADD SLOAD SWAP1 DUP1 PUSH1 0x5 ADD PUSH1 0x0 SWAP1 SLOAD SWAP1 PUSH2 0x100 EXP SWAP1 DIV PUSH1 0xFF AND SWAP1 POP DUP7 JUMP JUMPDEST PUSH1 0x0 CALLER SWAP1 POP SWAP1 JUMP JUMPDEST PUSH1 0x0 DUP2 PUSH1 0x0 ADD SLOAD SWAP1 POP SWAP2 SWAP1 POP JUMP JUMPDEST PUSH1 0x1 DUP2 PUSH1 0x0 ADD PUSH1 0x0 DUP3 DUP3 SLOAD ADD SWAP3 POP POP DUP2 SWAP1 SSTORE POP POP JUMP JUMPDEST PUSH1 0x0 PUSH1 0xC PUSH1 0x0 SWAP1 SLOAD SWAP1 PUSH2 0x100 EXP SWAP1 DIV PUSH20 0xFFFFFFFFFFFFFFFFFFFFFFFFFFFFFFFFFFFFFFFF AND SWAP1 POP DUP2 PUSH1 0xC PUSH1 0x0 PUSH2 0x100 EXP DUP2 SLOAD DUP2 PUSH20 0xFFFFFFFFFFFFFFFFFFFFFFFFFFFFFFFFFFFFFFFF MUL NOT AND SWAP1 DUP4 PUSH20 0xFFFFFFFFFFFFFFFFFFFFFFFFFFFFFFFFFFFFFFFF AND MUL OR SWAP1 SSTORE POP DUP2 PUSH20 0xFFFFFFFFFFFFFFFFFFFFFFFFFFFFFFFFFFFFFFFF AND DUP2 PUSH20 0xFFFFFFFFFFFFFFFFFFFFFFFFFFFFFFFFFFFFFFFF AND PUSH32 0x8BE0079C531659141344CD1FD0A4F28419497F9722A3DAAFE3B4186F6B6457E0 PUSH1 0x40 MLOAD PUSH1 0x40 MLOAD DUP1 SWAP2 SUB SWAP1 LOG3 POP POP JUMP JUMPDEST PUSH2 0x2109 DUP2 PUSH2 0x2211 JUMP JUMPDEST PUSH2 0x2148 JUMPI PUSH1 0x40 MLOAD PUSH32 0x8C379A000000000000000000000000000000000000000000000000000000000 DUP2 MSTORE PUSH1 0x4 ADD PUSH2 0x213F SWAP1 PUSH2 0x3327 JUMP JUMPDEST PUSH1 0x40 MLOAD DUP1 SWAP2 SUB SWAP1 REVERT JUMPDEST PUSH1 0x0 DUP2 SWAP1 POP DUP1 PUSH20 0xFFFFFFFFFFFFFFFFFFFFFFFFFFFFFFFFFFFFFFFF AND PUSH4 0x1FFC9A7 PUSH4 0x80AC58CD PUSH1 0xE0 SHL PUSH1 0x40 MLOAD DUP3 PUSH4 0xFFFFFFFF AND PUSH1 0xE0 SHL DUP2 MSTORE PUSH1 0x4 ADD PUSH2 0x218D SWAP2 SWAP1 PUSH2 0x269A JUMP JUMPDEST PUSH1 0x20 PUSH1 0x40 MLOAD DUP1 DUP4 SUB DUP2 DUP7 GAS STATICCALL ISZERO DUP1 ISZERO PUSH2 0x21AA JUMPI RETURNDATASIZE PUSH1 0x0 DUP1 RETURNDATACOPY RETURNDATASIZE PUSH1 0x0 REVERT JUMPDEST POP POP POP POP PUSH1 0x40 MLOAD RETURNDATASIZE PUSH1 0x1F NOT PUSH1 0x1F DUP3 ADD AND DUP3 ADD DUP1 PUSH1 0x40 MSTORE POP DUP2 ADD SWAP1 PUSH2 0x21CE SWAP2 SWAP1 PUSH2 0x300F JUMP JUMPDEST PUSH2 0x220D JUMPI PUSH1 0x40 MLOAD PUSH32 0x8C379A000000000000000000000000000000000000000000000000000000000 DUP2 MSTORE PUSH1 0x4 ADD PUSH2 0x2204 SWAP1 PUSH2 0x33B9 JUMP JUMPDEST PUSH1 0x40 MLOAD DUP1 SWAP2 SUB SWAP1 REVERT JUMPDEST POP POP JUMP JUMPDEST PUSH1 0x0 DUP1 DUP3 EXTCODESIZE SWAP1 POP PUSH1 0x0 DUP2 PUSH4 0xFFFFFFFF AND GT SWAP2 POP POP SWAP2 SWAP1 POP JUMP JUMPDEST PUSH1 0x40 MLOAD DUP1 PUSH1 0xC0 ADD PUSH1 0x40 MSTORE DUP1 PUSH1 0x0 DUP2 MSTORE PUSH1 0x20 ADD PUSH1 0x0 DUP2 MSTORE PUSH1 0x20 ADD PUSH1 0x0 PUSH20 0xFFFFFFFFFFFFFFFFFFFFFFFFFFFFFFFFFFFFFFFF AND DUP2 MSTORE PUSH1 0x20 ADD PUSH1 0x0 PUSH20 0xFFFFFFFFFFFFFFFFFFFFFFFFFFFFFFFFFFFFFFFF AND DUP2 MSTORE PUSH1 0x20 ADD PUSH1 0x0 DUP2 MSTORE PUSH1 0x20 ADD PUSH1 0x0 PUSH1 0x1 DUP2 GT ISZERO PUSH2 0x2298 JUMPI PUSH2 0x2297 PUSH2 0x22F8 JUMP JUMPDEST JUMPDEST DUP2 MSTORE POP SWAP1 JUMP JUMPDEST PUSH1 0x0 DUP2 SWAP1 POP SWAP2 SWAP1 POP JUMP JUMPDEST PUSH2 0x22B1 DUP2 PUSH2 0x229E JUMP JUMPDEST DUP3 MSTORE POP POP JUMP JUMPDEST PUSH1 0x0 PUSH20 0xFFFFFFFFFFFFFFFFFFFFFFFFFFFFFFFFFFFFFFFF DUP3 AND SWAP1 POP SWAP2 SWAP1 POP JUMP JUMPDEST PUSH1 0x0 PUSH2 0x22E2 DUP3 PUSH2 0x22B7 JUMP JUMPDEST SWAP1 POP SWAP2 SWAP1 POP JUMP JUMPDEST PUSH2 0x22F2 DUP2 PUSH2 0x22D7 JUMP JUMPDEST DUP3 MSTORE POP POP JUMP JUMPDEST PUSH32 0x4E487B7100000000000000000000000000000000000000000000000000000000 PUSH1 0x0 MSTORE PUSH1 0x21 PUSH1 0x4 MSTORE PUSH1 0x24 PUSH1 0x0 REVERT JUMPDEST PUSH1 0x2 DUP2 LT PUSH2 0x2338 JUMPI PUSH2 0x2337 PUSH2 0x22F8 JUMP JUMPDEST JUMPDEST POP JUMP JUMPDEST PUSH1 0x0 DUP2 SWAP1 POP PUSH2 0x2349 DUP3 PUSH2 0x2327 JUMP JUMPDEST SWAP2 SWAP1 POP JUMP JUMPDEST PUSH1 0x0 PUSH2 0x2359 DUP3 PUSH2 0x233B JUMP JUMPDEST SWAP1 POP SWAP2 SWAP1 POP JUMP JUMPDEST PUSH2 0x2369 DUP2 PUSH2 0x234E JUMP JUMPDEST DUP3 MSTORE POP POP JUMP JUMPDEST PUSH1 0xC0 DUP3 ADD PUSH1 0x0 DUP3 ADD MLOAD PUSH2 0x2385 PUSH1 0x0 DUP6 ADD DUP3 PUSH2 0x22A8 JUMP JUMPDEST POP PUSH1 0x20 DUP3 ADD MLOAD PUSH2 0x2398 PUSH1 0x20 DUP6 ADD DUP3 PUSH2 0x22A8 JUMP JUMPDEST POP PUSH1 0x40 DUP3 ADD MLOAD PUSH2 0x23AB PUSH1 0x40 DUP6 ADD DUP3 PUSH2 0x22E9 JUMP JUMPDEST POP PUSH1 0x60 DUP3 ADD MLOAD PUSH2 0x23BE PUSH1 0x60 DUP6 ADD DUP3 PUSH2 0x22E9 JUMP JUMPDEST POP PUSH1 0x80 DUP3 ADD MLOAD PUSH2 0x23D1 PUSH1 0x80 DUP6 ADD DUP3 PUSH2 0x22A8 JUMP JUMPDEST POP PUSH1 0xA0 DUP3 ADD MLOAD PUSH2 0x23E4 PUSH1 0xA0 DUP6 ADD DUP3 PUSH2 0x2360 JUMP JUMPDEST POP POP POP POP JUMP JUMPDEST PUSH1 0x0 PUSH1 0xC0 DUP3 ADD SWAP1 POP PUSH2 0x23FF PUSH1 0x0 DUP4 ADD DUP5 PUSH2 0x236F JUMP JUMPDEST SWAP3 SWAP2 POP POP JUMP JUMPDEST PUSH1 0x0 PUSH1 0x40 MLOAD SWAP1 POP SWAP1 JUMP JUMPDEST PUSH1 0x0 DUP1 REVERT JUMPDEST PUSH1 0x0 DUP1 REVERT JUMPDEST PUSH1 0x0 PUSH2 0x2424 DUP3 PUSH2 0x22B7 JUMP JUMPDEST SWAP1 POP SWAP2 SWAP1 POP JUMP JUMPDEST PUSH2 0x2434 DUP2 PUSH2 0x2419 JUMP JUMPDEST DUP2 EQ PUSH2 0x243F JUMPI PUSH1 0x0 DUP1 REVERT JUMPDEST POP JUMP JUMPDEST PUSH1 0x0 DUP2 CALLDATALOAD SWAP1 POP PUSH2 0x2451 DUP2 PUSH2 0x242B JUMP JUMPDEST SWAP3 SWAP2 POP POP JUMP JUMPDEST PUSH1 0x0 PUSH1 0x20 DUP3 DUP5 SUB SLT ISZERO PUSH2 0x246D JUMPI PUSH2 0x246C PUSH2 0x240F JUMP JUMPDEST JUMPDEST PUSH1 0x0 PUSH2 0x247B DUP5 DUP3 DUP6 ADD PUSH2 0x2442 JUMP JUMPDEST SWAP2 POP POP SWAP3 SWAP2 POP POP JUMP JUMPDEST PUSH2 0x248D DUP2 PUSH2 0x229E JUMP JUMPDEST DUP2 EQ PUSH2 0x2498 JUMPI PUSH1 0x0 DUP1 REVERT JUMPDEST POP JUMP JUMPDEST PUSH1 0x0 DUP2 CALLDATALOAD SWAP1 POP PUSH2 0x24AA DUP2 PUSH2 0x2484 JUMP JUMPDEST SWAP3 SWAP2 POP POP JUMP JUMPDEST PUSH1 0x0 PUSH1 0x20 DUP3 DUP5 SUB SLT ISZERO PUSH2 0x24C6 JUMPI PUSH2 0x24C5 PUSH2 0x240F JUMP JUMPDEST JUMPDEST PUSH1 0x0 PUSH2 0x24D4 DUP5 DUP3 DUP6 ADD PUSH2 0x249B JUMP JUMPDEST SWAP2 POP POP SWAP3 SWAP2 POP POP JUMP JUMPDEST PUSH1 0x0 DUP2 ISZERO ISZERO SWAP1 POP SWAP2 SWAP1 POP JUMP JUMPDEST PUSH2 0x24F2 DUP2 PUSH2 0x24DD JUMP JUMPDEST DUP3 MSTORE POP POP JUMP JUMPDEST PUSH1 0x0 PUSH1 0x20 DUP3 ADD SWAP1 POP PUSH2 0x250D PUSH1 0x0 DUP4 ADD DUP5 PUSH2 0x24E9 JUMP JUMPDEST SWAP3 SWAP2 POP POP JUMP JUMPDEST PUSH1 0x0 DUP2 MLOAD SWAP1 POP SWAP2 SWAP1 POP JUMP JUMPDEST PUSH1 0x0 DUP3 DUP3 MSTORE PUSH1 0x20 DUP3 ADD SWAP1 POP SWAP3 SWAP2 POP POP JUMP JUMPDEST PUSH1 0x0 DUP2 SWAP1 POP PUSH1 0x20 DUP3 ADD SWAP1 POP SWAP2 SWAP1 POP JUMP JUMPDEST PUSH1 0xC0 DUP3 ADD PUSH1 0x0 DUP3 ADD MLOAD PUSH2 0x2555 PUSH1 0x0 DUP6 ADD DUP3 PUSH2 0x22A8 JUMP JUMPDEST POP PUSH1 0x20 DUP3 ADD MLOAD PUSH2 0x2568 PUSH1 0x20 DUP6 ADD DUP3 PUSH2 0x22A8 JUMP JUMPDEST POP PUSH1 0x40 DUP3 ADD MLOAD PUSH2 0x257B PUSH1 0x40 DUP6 ADD DUP3 PUSH2 0x22E9 JUMP JUMPDEST POP PUSH1 0x60 DUP3 ADD MLOAD PUSH2 0x258E PUSH1 0x60 DUP6 ADD DUP3 PUSH2 0x22E9 JUMP JUMPDEST POP PUSH1 0x80 DUP3 ADD MLOAD PUSH2 0x25A1 PUSH1 0x80 DUP6 ADD DUP3 PUSH2 0x22A8 JUMP JUMPDEST POP PUSH1 0xA0 DUP3 ADD MLOAD PUSH2 0x25B4 PUSH1 0xA0 DUP6 ADD DUP3 PUSH2 0x2360 JUMP JUMPDEST POP POP POP POP JUMP JUMPDEST PUSH1 0x0 PUSH2 0x25C6 DUP4 DUP4 PUSH2 0x253F JUMP JUMPDEST PUSH1 0xC0 DUP4 ADD SWAP1 POP SWAP3 SWAP2 POP POP JUMP JUMPDEST PUSH1 0x0 PUSH1 0x20 DUP3 ADD SWAP1 POP SWAP2 SWAP1 POP JUMP JUMPDEST PUSH1 0x0 PUSH2 0x25EA DUP3 PUSH2 0x2513 JUMP JUMPDEST PUSH2 0x25F4 DUP2 DUP6 PUSH2 0x251E JUMP JUMPDEST SWAP4 POP PUSH2 0x25FF DUP4 PUSH2 0x252F JUMP JUMPDEST DUP1 PUSH1 0x0 JUMPDEST DUP4 DUP2 LT ISZERO PUSH2 0x2630 JUMPI DUP2 MLOAD PUSH2 0x2617 DUP9 DUP3 PUSH2 0x25BA JUMP JUMPDEST SWAP8 POP PUSH2 0x2622 DUP4 PUSH2 0x25D2 JUMP JUMPDEST SWAP3 POP POP PUSH1 0x1 DUP2 ADD SWAP1 POP PUSH2 0x2603 JUMP JUMPDEST POP DUP6 SWAP4 POP POP POP POP SWAP3 SWAP2 POP POP JUMP JUMPDEST PUSH1 0x0 PUSH1 0x20 DUP3 ADD SWAP1 POP DUP2 DUP2 SUB PUSH1 0x0 DUP4 ADD MSTORE PUSH2 0x2657 DUP2 DUP5 PUSH2 0x25DF JUMP JUMPDEST SWAP1 POP SWAP3 SWAP2 POP POP JUMP JUMPDEST PUSH1 0x0 PUSH32 0xFFFFFFFF00000000000000000000000000000000000000000000000000000000 DUP3 AND SWAP1 POP SWAP2 SWAP1 POP JUMP JUMPDEST PUSH2 0x2694 DUP2 PUSH2 0x265F JUMP JUMPDEST DUP3 MSTORE POP POP JUMP JUMPDEST PUSH1 0x0 PUSH1 0x20 DUP3 ADD SWAP1 POP PUSH2 0x26AF PUSH1 0x0 DUP4 ADD DUP5 PUSH2 0x268B JUMP JUMPDEST SWAP3 SWAP2 POP POP JUMP JUMPDEST PUSH1 0x0 DUP1 PUSH1 0x40 DUP4 DUP6 SUB SLT ISZERO PUSH2 0x26CC JUMPI PUSH2 0x26CB PUSH2 0x240F JUMP JUMPDEST JUMPDEST PUSH1 0x0 PUSH2 0x26DA DUP6 DUP3 DUP7 ADD PUSH2 0x249B JUMP JUMPDEST SWAP3 POP POP PUSH1 0x20 PUSH2 0x26EB DUP6 DUP3 DUP7 ADD PUSH2 0x249B JUMP JUMPDEST SWAP2 POP POP SWAP3 POP SWAP3 SWAP1 POP JUMP JUMPDEST PUSH1 0x0 DUP2 SWAP1 POP SWAP2 SWAP1 POP JUMP JUMPDEST PUSH1 0x0 PUSH2 0x271A PUSH2 0x2715 PUSH2 0x2710 DUP5 PUSH2 0x22B7 JUMP JUMPDEST PUSH2 0x26F5 JUMP JUMPDEST PUSH2 0x22B7 JUMP JUMPDEST SWAP1 POP SWAP2 SWAP1 POP JUMP JUMPDEST PUSH1 0x0 PUSH2 0x272C DUP3 PUSH2 0x26FF JUMP JUMPDEST SWAP1 POP SWAP2 SWAP1 POP JUMP JUMPDEST PUSH1 0x0 PUSH2 0x273E DUP3 PUSH2 0x2721 JUMP JUMPDEST SWAP1 POP SWAP2 SWAP1 POP JUMP JUMPDEST PUSH2 0x274E DUP2 PUSH2 0x2733 JUMP JUMPDEST DUP3 MSTORE POP POP JUMP JUMPDEST PUSH1 0x0 PUSH1 0x20 DUP3 ADD SWAP1 POP PUSH2 0x2769 PUSH1 0x0 DUP4 ADD DUP5 PUSH2 0x2745 JUMP JUMPDEST SWAP3 SWAP2 POP POP JUMP JUMPDEST PUSH2 0x2778 DUP2 PUSH2 0x229E JUMP JUMPDEST DUP3 MSTORE POP POP JUMP JUMPDEST PUSH2 0x2787 DUP2 PUSH2 0x22D7 JUMP JUMPDEST DUP3 MSTORE POP POP JUMP JUMPDEST PUSH2 0x2796 DUP2 PUSH2 0x234E JUMP JUMPDEST DUP3 MSTORE POP POP JUMP JUMPDEST PUSH1 0x0 PUSH1 0xC0 DUP3 ADD SWAP1 POP PUSH2 0x27B1 PUSH1 0x0 DUP4 ADD DUP10 PUSH2 0x276F JUMP JUMPDEST PUSH2 0x27BE PUSH1 0x20 DUP4 ADD DUP9 PUSH2 0x276F JUMP JUMPDEST PUSH2 0x27CB PUSH1 0x40 DUP4 ADD DUP8 PUSH2 0x277E JUMP JUMPDEST PUSH2 0x27D8 PUSH1 0x60 DUP4 ADD DUP7 PUSH2 0x277E JUMP JUMPDEST PUSH2 0x27E5 PUSH1 0x80 DUP4 ADD DUP6 PUSH2 0x276F JUMP JUMPDEST PUSH2 0x27F2 PUSH1 0xA0 DUP4 ADD DUP5 PUSH2 0x278D JUMP JUMPDEST SWAP8 SWAP7 POP POP POP POP POP POP POP JUMP JUMPDEST PUSH1 0x0 DUP1 PUSH1 0x40 DUP4 DUP6 SUB SLT ISZERO PUSH2 0x2814 JUMPI PUSH2 0x2813 PUSH2 0x240F JUMP JUMPDEST JUMPDEST PUSH1 0x0 PUSH2 0x2822 DUP6 DUP3 DUP7 ADD PUSH2 0x2442 JUMP JUMPDEST SWAP3 POP POP PUSH1 0x20 PUSH2 0x2833 DUP6 DUP3 DUP7 ADD PUSH2 0x249B JUMP JUMPDEST SWAP2 POP POP SWAP3 POP SWAP3 SWAP1 POP JUMP JUMPDEST PUSH1 0x0 PUSH1 0xFF DUP3 AND SWAP1 POP SWAP2 SWAP1 POP JUMP JUMPDEST PUSH2 0x2853 DUP2 PUSH2 0x283D JUMP JUMPDEST DUP3 MSTORE POP POP JUMP JUMPDEST PUSH1 0x0 PUSH1 0x20 DUP3 ADD SWAP1 POP PUSH2 0x286E PUSH1 0x0 DUP4 ADD DUP5 PUSH2 0x284A JUMP JUMPDEST SWAP3 SWAP2 POP POP JUMP JUMPDEST PUSH2 0x287D DUP2 PUSH2 0x2419 JUMP JUMPDEST DUP3 MSTORE POP POP JUMP JUMPDEST PUSH1 0x0 PUSH1 0x20 DUP3 ADD SWAP1 POP PUSH2 0x2898 PUSH1 0x0 DUP4 ADD DUP5 PUSH2 0x2874 JUMP JUMPDEST SWAP3 SWAP2 POP POP JUMP JUMPDEST PUSH1 0x0 PUSH2 0x28A9 DUP3 PUSH2 0x2721 JUMP JUMPDEST SWAP1 POP SWAP2 SWAP1 POP JUMP JUMPDEST PUSH2 0x28B9 DUP2 PUSH2 0x289E JUMP JUMPDEST DUP3 MSTORE POP POP JUMP JUMPDEST PUSH1 0x0 PUSH1 0x20 DUP3 ADD SWAP1 POP PUSH2 0x28D4 PUSH1 0x0 DUP4 ADD DUP5 PUSH2 0x28B0 JUMP JUMPDEST SWAP3 SWAP2 POP POP JUMP JUMPDEST PUSH1 0x0 PUSH2 0x28E5 DUP3 PUSH2 0x2721 JUMP JUMPDEST SWAP1 POP SWAP2 SWAP1 POP JUMP JUMPDEST PUSH2 0x28F5 DUP2 PUSH2 0x28DA JUMP JUMPDEST DUP3 MSTORE POP POP JUMP JUMPDEST PUSH1 0x0 PUSH1 0x20 DUP3 ADD SWAP1 POP PUSH2 0x2910 PUSH1 0x0 DUP4 ADD DUP5 PUSH2 0x28EC JUMP JUMPDEST SWAP3 SWAP2 POP POP JUMP JUMPDEST PUSH1 0x0 DUP3 DUP3 MSTORE PUSH1 0x20 DUP3 ADD SWAP1 POP SWAP3 SWAP2 POP POP JUMP JUMPDEST PUSH32 0x4F776E61626C653A2063616C6C6572206973206E6F7420746865206F776E6572 PUSH1 0x0 DUP3 ADD MSTORE POP JUMP JUMPDEST PUSH1 0x0 PUSH2 0x295D PUSH1 0x20 DUP4 PUSH2 0x2916 JUMP JUMPDEST SWAP2 POP PUSH2 0x2968 DUP3 PUSH2 0x2927 JUMP JUMPDEST PUSH1 0x20 DUP3 ADD SWAP1 POP SWAP2 SWAP1 POP JUMP JUMPDEST PUSH1 0x0 PUSH1 0x20 DUP3 ADD SWAP1 POP DUP2 DUP2 SUB PUSH1 0x0 DUP4 ADD MSTORE PUSH2 0x298C DUP2 PUSH2 0x2950 JUMP JUMPDEST SWAP1 POP SWAP2 SWAP1 POP JUMP JUMPDEST PUSH1 0x0 PUSH1 0x20 DUP3 ADD SWAP1 POP PUSH2 0x29A8 PUSH1 0x0 DUP4 ADD DUP5 PUSH2 0x276F JUMP JUMPDEST SWAP3 SWAP2 POP POP JUMP JUMPDEST PUSH1 0x0 DUP1 REVERT JUMPDEST PUSH1 0x0 PUSH1 0x1F NOT PUSH1 0x1F DUP4 ADD AND SWAP1 POP SWAP2 SWAP1 POP JUMP JUMPDEST PUSH32 0x4E487B7100000000000000000000000000000000000000000000000000000000 PUSH1 0x0 MSTORE PUSH1 0x41 PUSH1 0x4 MSTORE PUSH1 0x24 PUSH1 0x0 REVERT JUMPDEST PUSH2 0x29FC DUP3 PUSH2 0x29B3 JUMP JUMPDEST DUP2 ADD DUP2 DUP2 LT PUSH8 0xFFFFFFFFFFFFFFFF DUP3 GT OR ISZERO PUSH2 0x2A1B JUMPI PUSH2 0x2A1A PUSH2 0x29C4 JUMP JUMPDEST JUMPDEST DUP1 PUSH1 0x40 MSTORE POP POP POP JUMP JUMPDEST PUSH1 0x0 PUSH2 0x2A2E PUSH2 0x2405 JUMP JUMPDEST SWAP1 POP PUSH2 0x2A3A DUP3 DUP3 PUSH2 0x29F3 JUMP JUMPDEST SWAP2 SWAP1 POP JUMP JUMPDEST PUSH1 0x0 DUP1 REVERT JUMPDEST PUSH1 0x0 DUP2 MLOAD SWAP1 POP PUSH2 0x2A53 DUP2 PUSH2 0x2484 JUMP JUMPDEST SWAP3 SWAP2 POP POP JUMP JUMPDEST PUSH1 0x0 DUP2 MLOAD SWAP1 POP PUSH2 0x2A68 DUP2 PUSH2 0x242B JUMP JUMPDEST SWAP3 SWAP2 POP POP JUMP JUMPDEST PUSH1 0x0 DUP1 REVERT JUMPDEST PUSH1 0x0 DUP1 REVERT JUMPDEST PUSH1 0x0 PUSH8 0xFFFFFFFFFFFFFFFF DUP3 GT ISZERO PUSH2 0x2A93 JUMPI PUSH2 0x2A92 PUSH2 0x29C4 JUMP JUMPDEST JUMPDEST PUSH2 0x2A9C DUP3 PUSH2 0x29B3 JUMP JUMPDEST SWAP1 POP PUSH1 0x20 DUP2 ADD SWAP1 POP SWAP2 SWAP1 POP JUMP JUMPDEST PUSH1 0x0 JUMPDEST DUP4 DUP2 LT ISZERO PUSH2 0x2AC7 JUMPI DUP1 DUP3 ADD MLOAD DUP2 DUP5 ADD MSTORE PUSH1 0x20 DUP2 ADD SWAP1 POP PUSH2 0x2AAC JUMP JUMPDEST DUP4 DUP2 GT ISZERO PUSH2 0x2AD6 JUMPI PUSH1 0x0 DUP5 DUP5 ADD MSTORE JUMPDEST POP POP POP POP JUMP JUMPDEST PUSH1 0x0 PUSH2 0x2AEF PUSH2 0x2AEA DUP5 PUSH2 0x2A78 JUMP JUMPDEST PUSH2 0x2A24 JUMP JUMPDEST SWAP1 POP DUP3 DUP2 MSTORE PUSH1 0x20 DUP2 ADD DUP5 DUP5 DUP5 ADD GT ISZERO PUSH2 0x2B0B JUMPI PUSH2 0x2B0A PUSH2 0x2A73 JUMP JUMPDEST JUMPDEST PUSH2 0x2B16 DUP5 DUP3 DUP6 PUSH2 0x2AA9 JUMP JUMPDEST POP SWAP4 SWAP3 POP POP POP JUMP JUMPDEST PUSH1 0x0 DUP3 PUSH1 0x1F DUP4 ADD SLT PUSH2 0x2B33 JUMPI PUSH2 0x2B32 PUSH2 0x2A6E JUMP JUMPDEST JUMPDEST DUP2 MLOAD PUSH2 0x2B43 DUP5 DUP3 PUSH1 0x20 DUP7 ADD PUSH2 0x2ADC JUMP JUMPDEST SWAP2 POP POP SWAP3 SWAP2 POP POP JUMP JUMPDEST PUSH2 0x2B55 DUP2 PUSH2 0x24DD JUMP JUMPDEST DUP2 EQ PUSH2 0x2B60 JUMPI PUSH1 0x0 DUP1 REVERT JUMPDEST POP JUMP JUMPDEST PUSH1 0x0 DUP2 MLOAD SWAP1 POP PUSH2 0x2B72 DUP2 PUSH2 0x2B4C JUMP JUMPDEST SWAP3 SWAP2 POP POP JUMP JUMPDEST PUSH1 0x0 PUSH1 0xA0 DUP3 DUP5 SUB SLT ISZERO PUSH2 0x2B8E JUMPI PUSH2 0x2B8D PUSH2 0x29AE JUMP JUMPDEST JUMPDEST PUSH2 0x2B98 PUSH1 0xA0 PUSH2 0x2A24 JUMP JUMPDEST SWAP1 POP PUSH1 0x0 PUSH2 0x2BA8 DUP5 DUP3 DUP6 ADD PUSH2 0x2A44 JUMP JUMPDEST PUSH1 0x0 DUP4 ADD MSTORE POP PUSH1 0x20 PUSH2 0x2BBC DUP5 DUP3 DUP6 ADD PUSH2 0x2A59 JUMP JUMPDEST PUSH1 0x20 DUP4 ADD MSTORE POP PUSH1 0x40 DUP3 ADD MLOAD PUSH8 0xFFFFFFFFFFFFFFFF DUP2 GT ISZERO PUSH2 0x2BE0 JUMPI PUSH2 0x2BDF PUSH2 0x2A3F JUMP JUMPDEST JUMPDEST PUSH2 0x2BEC DUP5 DUP3 DUP6 ADD PUSH2 0x2B1E JUMP JUMPDEST PUSH1 0x40 DUP4 ADD MSTORE POP PUSH1 0x60 DUP3 ADD MLOAD PUSH8 0xFFFFFFFFFFFFFFFF DUP2 GT ISZERO PUSH2 0x2C10 JUMPI PUSH2 0x2C0F PUSH2 0x2A3F JUMP JUMPDEST JUMPDEST PUSH2 0x2C1C DUP5 DUP3 DUP6 ADD PUSH2 0x2B1E JUMP JUMPDEST PUSH1 0x60 DUP4 ADD MSTORE POP PUSH1 0x80 PUSH2 0x2C30 DUP5 DUP3 DUP6 ADD PUSH2 0x2B63 JUMP JUMPDEST PUSH1 0x80 DUP4 ADD MSTORE POP SWAP3 SWAP2 POP POP JUMP JUMPDEST PUSH1 0x0 PUSH1 0x20 DUP3 DUP5 SUB SLT ISZERO PUSH2 0x2C52 JUMPI PUSH2 0x2C51 PUSH2 0x240F JUMP JUMPDEST JUMPDEST PUSH1 0x0 DUP3 ADD MLOAD PUSH8 0xFFFFFFFFFFFFFFFF DUP2 GT ISZERO PUSH2 0x2C70 JUMPI PUSH2 0x2C6F PUSH2 0x2414 JUMP JUMPDEST JUMPDEST PUSH2 0x2C7C DUP5 DUP3 DUP6 ADD PUSH2 0x2B78 JUMP JUMPDEST SWAP2 POP POP SWAP3 SWAP2 POP POP JUMP JUMPDEST PUSH32 0x4E487B7100000000000000000000000000000000000000000000000000000000 PUSH1 0x0 MSTORE PUSH1 0x11 PUSH1 0x4 MSTORE PUSH1 0x24 PUSH1 0x0 REVERT JUMPDEST PUSH1 0x0 PUSH2 0x2CBF DUP3 PUSH2 0x229E JUMP JUMPDEST SWAP2 POP PUSH2 0x2CCA DUP4 PUSH2 0x229E JUMP JUMPDEST SWAP3 POP DUP3 PUSH32 0xFFFFFFFFFFFFFFFFFFFFFFFFFFFFFFFFFFFFFFFFFFFFFFFFFFFFFFFFFFFFFFFF SUB DUP3 GT ISZERO PUSH2 0x2CFF JUMPI PUSH2 0x2CFE PUSH2 0x2C85 JUMP JUMPDEST JUMPDEST DUP3 DUP3 ADD SWAP1 POP SWAP3 SWAP2 POP POP JUMP JUMPDEST PUSH1 0x0 PUSH2 0x2D15 DUP3 PUSH2 0x229E JUMP JUMPDEST SWAP2 POP PUSH32 0xFFFFFFFFFFFFFFFFFFFFFFFFFFFFFFFFFFFFFFFFFFFFFFFFFFFFFFFFFFFFFFFF DUP3 SUB PUSH2 0x2D47 JUMPI PUSH2 0x2D46 PUSH2 0x2C85 JUMP JUMPDEST JUMPDEST PUSH1 0x1 DUP3 ADD SWAP1 POP SWAP2 SWAP1 POP JUMP JUMPDEST PUSH32 0x4E487B7100000000000000000000000000000000000000000000000000000000 PUSH1 0x0 MSTORE PUSH1 0x32 PUSH1 0x4 MSTORE PUSH1 0x24 PUSH1 0x0 REVERT JUMPDEST PUSH32 0x5265656E7472616E637947756172643A207265656E7472616E742063616C6C00 PUSH1 0x0 DUP3 ADD MSTORE POP JUMP JUMPDEST PUSH1 0x0 PUSH2 0x2DB7 PUSH1 0x1F DUP4 PUSH2 0x2916 JUMP JUMPDEST SWAP2 POP PUSH2 0x2DC2 DUP3 PUSH2 0x2D81 JUMP JUMPDEST PUSH1 0x20 DUP3 ADD SWAP1 POP SWAP2 SWAP1 POP JUMP JUMPDEST PUSH1 0x0 PUSH1 0x20 DUP3 ADD SWAP1 POP DUP2 DUP2 SUB PUSH1 0x0 DUP4 ADD MSTORE PUSH2 0x2DE6 DUP2 PUSH2 0x2DAA JUMP JUMPDEST SWAP1 POP SWAP2 SWAP1 POP JUMP JUMPDEST PUSH32 0x5072696365206D757374206265206174206C6561737420312077656900000000 PUSH1 0x0 DUP3 ADD MSTORE POP JUMP JUMPDEST PUSH1 0x0 PUSH2 0x2E23 PUSH1 0x1C DUP4 PUSH2 0x2916 JUMP JUMPDEST SWAP2 POP PUSH2 0x2E2E DUP3 PUSH2 0x2DED JUMP JUMPDEST PUSH1 0x20 DUP3 ADD SWAP1 POP SWAP2 SWAP1 POP JUMP JUMPDEST PUSH1 0x0 PUSH1 0x20 DUP3 ADD SWAP1 POP DUP2 DUP2 SUB PUSH1 0x0 DUP4 ADD MSTORE PUSH2 0x2E52 DUP2 PUSH2 0x2E16 JUMP JUMPDEST SWAP1 POP SWAP2 SWAP1 POP JUMP JUMPDEST PUSH32 0x4974656D206973206E6F7420617661696C61626C65206E6F7720210000000000 PUSH1 0x0 DUP3 ADD MSTORE POP JUMP JUMPDEST PUSH1 0x0 PUSH2 0x2E8F PUSH1 0x1B DUP4 PUSH2 0x2916 JUMP JUMPDEST SWAP2 POP PUSH2 0x2E9A DUP3 PUSH2 0x2E59 JUMP JUMPDEST PUSH1 0x20 DUP3 ADD SWAP1 POP SWAP2 SWAP1 POP JUMP JUMPDEST PUSH1 0x0 PUSH1 0x20 DUP3 ADD SWAP1 POP DUP2 DUP2 SUB PUSH1 0x0 DUP4 ADD MSTORE PUSH2 0x2EBE DUP2 PUSH2 0x2E82 JUMP JUMPDEST SWAP1 POP SWAP2 SWAP1 POP JUMP JUMPDEST PUSH1 0x0 PUSH1 0x60 DUP3 ADD SWAP1 POP PUSH2 0x2EDA PUSH1 0x0 DUP4 ADD DUP7 PUSH2 0x2874 JUMP JUMPDEST PUSH2 0x2EE7 PUSH1 0x20 DUP4 ADD DUP6 PUSH2 0x2874 JUMP JUMPDEST PUSH2 0x2EF4 PUSH1 0x40 DUP4 ADD DUP5 PUSH2 0x276F JUMP JUMPDEST SWAP5 SWAP4 POP POP POP POP JUMP JUMPDEST PUSH1 0x0 PUSH1 0x40 DUP3 ADD SWAP1 POP PUSH2 0x2F11 PUSH1 0x0 DUP4 ADD DUP6 PUSH2 0x2874 JUMP JUMPDEST PUSH2 0x2F1E PUSH1 0x20 DUP4 ADD DUP5 PUSH2 0x276F JUMP JUMPDEST SWAP4 SWAP3 POP POP POP JUMP JUMPDEST PUSH32 0x506C65617365207375626D6974207468652061736B696E672070726963652069 PUSH1 0x0 DUP3 ADD MSTORE PUSH32 0x6E206F7264657220746F20636F6D706C65746520746865207075726368617365 PUSH1 0x20 DUP3 ADD MSTORE POP JUMP JUMPDEST PUSH1 0x0 PUSH2 0x2F81 PUSH1 0x40 DUP4 PUSH2 0x2916 JUMP JUMPDEST SWAP2 POP PUSH2 0x2F8C DUP3 PUSH2 0x2F25 JUMP JUMPDEST PUSH1 0x40 DUP3 ADD SWAP1 POP SWAP2 SWAP1 POP JUMP JUMPDEST PUSH1 0x0 PUSH1 0x20 DUP3 ADD SWAP1 POP DUP2 DUP2 SUB PUSH1 0x0 DUP4 ADD MSTORE PUSH2 0x2FB0 DUP2 PUSH2 0x2F74 JUMP JUMPDEST SWAP1 POP SWAP2 SWAP1 POP JUMP JUMPDEST PUSH1 0x0 PUSH2 0x2FC2 DUP3 PUSH2 0x2721 JUMP JUMPDEST SWAP1 POP SWAP2 SWAP1 POP JUMP JUMPDEST PUSH2 0x2FD2 DUP2 PUSH2 0x2FB7 JUMP JUMPDEST DUP3 MSTORE POP POP JUMP JUMPDEST PUSH1 0x0 PUSH1 0x60 DUP3 ADD SWAP1 POP PUSH2 0x2FED PUSH1 0x0 DUP4 ADD DUP7 PUSH2 0x2874 JUMP JUMPDEST PUSH2 0x2FFA PUSH1 0x20 DUP4 ADD DUP6 PUSH2 0x2FC9 JUMP JUMPDEST PUSH2 0x3007 PUSH1 0x40 DUP4 ADD DUP5 PUSH2 0x276F JUMP JUMPDEST SWAP5 SWAP4 POP POP POP POP JUMP JUMPDEST PUSH1 0x0 PUSH1 0x20 DUP3 DUP5 SUB SLT ISZERO PUSH2 0x3025 JUMPI PUSH2 0x3024 PUSH2 0x240F JUMP JUMPDEST JUMPDEST PUSH1 0x0 PUSH2 0x3033 DUP5 DUP3 DUP6 ADD PUSH2 0x2B63 JUMP JUMPDEST SWAP2 POP POP SWAP3 SWAP2 POP POP JUMP JUMPDEST PUSH32 0x4173736574206E6F74207075626C697368656400000000000000000000000000 PUSH1 0x0 DUP3 ADD MSTORE POP JUMP JUMPDEST PUSH1 0x0 PUSH2 0x3072 PUSH1 0x13 DUP4 PUSH2 0x2916 JUMP JUMPDEST SWAP2 POP PUSH2 0x307D DUP3 PUSH2 0x303C JUMP JUMPDEST PUSH1 0x20 DUP3 ADD SWAP1 POP SWAP2 SWAP1 POP JUMP JUMPDEST PUSH1 0x0 PUSH1 0x20 DUP3 ADD SWAP1 POP DUP2 DUP2 SUB PUSH1 0x0 DUP4 ADD MSTORE PUSH2 0x30A1 DUP2 PUSH2 0x3065 JUMP JUMPDEST SWAP1 POP SWAP2 SWAP1 POP JUMP JUMPDEST PUSH32 0x41737365742064656C6973746564000000000000000000000000000000000000 PUSH1 0x0 DUP3 ADD MSTORE POP JUMP JUMPDEST PUSH1 0x0 PUSH2 0x30DE PUSH1 0xE DUP4 PUSH2 0x2916 JUMP JUMPDEST SWAP2 POP PUSH2 0x30E9 DUP3 PUSH2 0x30A8 JUMP JUMPDEST PUSH1 0x20 DUP3 ADD SWAP1 POP SWAP2 SWAP1 POP JUMP JUMPDEST PUSH1 0x0 PUSH1 0x20 DUP3 ADD SWAP1 POP DUP2 DUP2 SUB PUSH1 0x0 DUP4 ADD MSTORE PUSH2 0x310D DUP2 PUSH2 0x30D1 JUMP JUMPDEST SWAP1 POP SWAP2 SWAP1 POP JUMP JUMPDEST PUSH32 0x496E76616C696420616464726573730000000000000000000000000000000000 PUSH1 0x0 DUP3 ADD MSTORE POP JUMP JUMPDEST PUSH1 0x0 PUSH2 0x314A PUSH1 0xF DUP4 PUSH2 0x2916 JUMP JUMPDEST SWAP2 POP PUSH2 0x3155 DUP3 PUSH2 0x3114 JUMP JUMPDEST PUSH1 0x20 DUP3 ADD SWAP1 POP SWAP2 SWAP1 POP JUMP JUMPDEST PUSH1 0x0 PUSH1 0x20 DUP3 ADD SWAP1 POP DUP2 DUP2 SUB PUSH1 0x0 DUP4 ADD MSTORE PUSH2 0x3179 DUP2 PUSH2 0x313D JUMP JUMPDEST SWAP1 POP SWAP2 SWAP1 POP JUMP JUMPDEST PUSH32 0x4F6E6C792073656C6C65722063616E2064656C69737400000000000000000000 PUSH1 0x0 DUP3 ADD MSTORE POP JUMP JUMPDEST PUSH1 0x0 PUSH2 0x31B6 PUSH1 0x16 DUP4 PUSH2 0x2916 JUMP JUMPDEST SWAP2 POP PUSH2 0x31C1 DUP3 PUSH2 0x3180 JUMP JUMPDEST PUSH1 0x20 DUP3 ADD SWAP1 POP SWAP2 SWAP1 POP JUMP JUMPDEST PUSH1 0x0 PUSH1 0x20 DUP3 ADD SWAP1 POP DUP2 DUP2 SUB PUSH1 0x0 DUP4 ADD MSTORE PUSH2 0x31E5 DUP2 PUSH2 0x31A9 JUMP JUMPDEST SWAP1 POP SWAP2 SWAP1 POP JUMP JUMPDEST PUSH1 0x0 PUSH1 0x60 DUP3 ADD SWAP1 POP PUSH2 0x3201 PUSH1 0x0 DUP4 ADD DUP7 PUSH2 0x2874 JUMP JUMPDEST PUSH2 0x320E PUSH1 0x20 DUP4 ADD DUP6 PUSH2 0x276F JUMP JUMPDEST PUSH2 0x321B PUSH1 0x40 DUP4 ADD DUP5 PUSH2 0x276F JUMP JUMPDEST SWAP5 SWAP4 POP POP POP POP JUMP JUMPDEST PUSH32 0x4F776E61626C653A206E6577206F776E657220697320746865207A65726F2061 PUSH1 0x0 DUP3 ADD MSTORE PUSH32 0x6464726573730000000000000000000000000000000000000000000000000000 PUSH1 0x20 DUP3 ADD MSTORE POP JUMP JUMPDEST PUSH1 0x0 PUSH2 0x327F PUSH1 0x26 DUP4 PUSH2 0x2916 JUMP JUMPDEST SWAP2 POP PUSH2 0x328A DUP3 PUSH2 0x3223 JUMP JUMPDEST PUSH1 0x40 DUP3 ADD SWAP1 POP SWAP2 SWAP1 POP JUMP JUMPDEST PUSH1 0x0 PUSH1 0x20 DUP3 ADD SWAP1 POP DUP2 DUP2 SUB PUSH1 0x0 DUP4 ADD MSTORE PUSH2 0x32AE DUP2 PUSH2 0x3272 JUMP JUMPDEST SWAP1 POP SWAP2 SWAP1 POP JUMP JUMPDEST PUSH32 0x546865204E465420416464726573732073686F756C64206265206120636F6E74 PUSH1 0x0 DUP3 ADD MSTORE PUSH32 0x7261637400000000000000000000000000000000000000000000000000000000 PUSH1 0x20 DUP3 ADD MSTORE POP JUMP JUMPDEST PUSH1 0x0 PUSH2 0x3311 PUSH1 0x24 DUP4 PUSH2 0x2916 JUMP JUMPDEST SWAP2 POP PUSH2 0x331C DUP3 PUSH2 0x32B5 JUMP JUMPDEST PUSH1 0x40 DUP3 ADD SWAP1 POP SWAP2 SWAP1 POP JUMP JUMPDEST PUSH1 0x0 PUSH1 0x20 DUP3 ADD SWAP1 POP DUP2 DUP2 SUB PUSH1 0x0 DUP4 ADD MSTORE PUSH2 0x3340 DUP2 PUSH2 0x3304 JUMP JUMPDEST SWAP1 POP SWAP2 SWAP1 POP JUMP JUMPDEST PUSH32 0x546865204E465420636F6E74726163742068617320616E20696E76616C696420 PUSH1 0x0 DUP3 ADD MSTORE PUSH32 0x45524337323120696D706C656D656E746174696F6E0000000000000000000000 PUSH1 0x20 DUP3 ADD MSTORE POP JUMP JUMPDEST PUSH1 0x0 PUSH2 0x33A3 PUSH1 0x35 DUP4 PUSH2 0x2916 JUMP JUMPDEST SWAP2 POP PUSH2 0x33AE DUP3 PUSH2 0x3347 JUMP JUMPDEST PUSH1 0x40 DUP3 ADD SWAP1 POP SWAP2 SWAP1 POP JUMP JUMPDEST PUSH1 0x0 PUSH1 0x20 DUP3 ADD SWAP1 POP DUP2 DUP2 SUB PUSH1 0x0 DUP4 ADD MSTORE PUSH2 0x33D2 DUP2 PUSH2 0x3396 JUMP JUMPDEST SWAP1 POP SWAP2 SWAP1 POP JUMP INVALID LOG2 PUSH5 0x6970667358 0x22 SLT KECCAK256 MSTORE8 0xEA EXTCODEHASH KECCAK256 0xE1 0xEA 0xDF SUB 0xDD 0xE9 0xC1 0xB2 EXTCODEHASH MSTORE DELEGATECALL COINBASE MSTORE BLOCKHASH 0x2A EXTCODECOPY DELEGATECALL MULMOD PUSH27 0x2633928290FCB541F164736F6C634300080D003300000000000000 "
				},
				"gasEstimates": {
					"creation": {
						"codeDepositCost": "2665400",
						"executionCost": "infinite",
						"totalCost": "infinite"
					},
					"external": {
						"ERC721_Interface()": "364",
						"allItems(uint256)": "infinite",
						"allMarketItems()": "infinite",
						"antaFeePercent()": "2654",
						"bnbFeePercent()": "2566",
						"createMarketItem(uint256,uint256)": "infinite",
						"createMarketSale(uint256,uint256)": "infinite",
						"delistItem(address,uint256)": "infinite",
						"factory()": "infinite",
						"fetchMarketItem(uint256)": "infinite",
						"fetchMarketItems()": "infinite",
						"fetchMyNFTs()": "infinite",
						"getAlalalalala(uint256)": "infinite",
						"getMarketItem(uint256)": "infinite",
						"items(address,uint256)": "infinite",
						"mainNFTs()": "infinite",
						"mainToken()": "infinite",
						"owner()": "2589",
						"renounceOwnership()": "30397",
						"setFactory(address)": "27073",
						"setMainNFT(address)": "27008",
						"setMainToken(address)": "27074",
						"testView(uint256)": "infinite",
						"transferOwnership(address)": "30808"
					},
					"internal": {
						"_requireERC721(address)": "infinite",
						"isContract(address)": "2653"
					}
				},
				"methodIdentifiers": {
					"ERC721_Interface()": "2b4c32be",
					"allItems(uint256)": "ff68fa6e",
					"allMarketItems()": "517bd451",
					"antaFeePercent()": "b7a60c7e",
					"bnbFeePercent()": "85a8b36c",
					"createMarketItem(uint256,uint256)": "361c1995",
					"createMarketSale(uint256,uint256)": "a1c11ca8",
					"delistItem(address,uint256)": "ad9a0369",
					"factory()": "c45a0155",
					"fetchMarketItem(uint256)": "2a45b250",
					"fetchMarketItems()": "0f08efe0",
					"fetchMyNFTs()": "202e3740",
					"getAlalalalala(uint256)": "16e7031a",
					"getMarketItem(uint256)": "c7be7a49",
					"items(address,uint256)": "5c80a435",
					"mainNFTs()": "f55de0c7",
					"mainToken()": "3fc15f15",
					"owner()": "8da5cb5b",
					"renounceOwnership()": "715018a6",
					"setFactory(address)": "5bb47808",
					"setMainNFT(address)": "15b12494",
					"setMainToken(address)": "27ce464e",
					"testView(uint256)": "e0606dd8",
					"transferOwnership(address)": "f2fde38b"
				}
			},
			"storageLayout": {
				"storage": [
					{
						"astId": 409,
						"contract": "contracts/Marketplace2/Marketplace.sol:NFTMarket",
						"label": "_status",
						"offset": 0,
						"slot": "0",
						"type": "t_uint256"
					},
					{
						"astId": 496,
						"contract": "contracts/Marketplace2/Marketplace.sol:NFTMarket",
						"label": "allMarketItems",
						"offset": 0,
						"slot": "1",
						"type": "t_struct(MarketItem)493_storage"
					},
					{
						"astId": 507,
						"contract": "contracts/Marketplace2/Marketplace.sol:NFTMarket",
						"label": "allItems",
						"offset": 0,
						"slot": "7",
						"type": "t_mapping(t_uint256,t_struct(MarketItem)493_storage)"
					},
					{
						"astId": 514,
						"contract": "contracts/Marketplace2/Marketplace.sol:NFTMarket",
						"label": "items",
						"offset": 0,
						"slot": "8",
						"type": "t_mapping(t_address,t_mapping(t_uint256,t_struct(MarketItem)493_storage))"
					},
					{
						"astId": 517,
						"contract": "contracts/Marketplace2/Marketplace.sol:NFTMarket",
						"label": "mainToken",
						"offset": 0,
						"slot": "9",
						"type": "t_contract(IERC20)201"
					},
					{
						"astId": 520,
						"contract": "contracts/Marketplace2/Marketplace.sol:NFTMarket",
						"label": "factory",
						"offset": 0,
						"slot": "10",
						"type": "t_contract(IFactory)475"
					},
					{
						"astId": 523,
						"contract": "contracts/Marketplace2/Marketplace.sol:NFTMarket",
						"label": "mainNFTs",
						"offset": 0,
						"slot": "11",
						"type": "t_contract(IERC721)326"
					},
					{
						"astId": 525,
						"contract": "contracts/Marketplace2/Marketplace.sol:NFTMarket",
						"label": "bnbFeePercent",
						"offset": 20,
						"slot": "11",
						"type": "t_uint8"
					},
					{
						"astId": 527,
						"contract": "contracts/Marketplace2/Marketplace.sol:NFTMarket",
						"label": "antaFeePercent",
						"offset": 21,
						"slot": "11",
						"type": "t_uint8"
					},
					{
						"astId": 27,
						"contract": "contracts/Marketplace2/Marketplace.sol:NFTMarket",
						"label": "_owner",
						"offset": 0,
						"slot": "12",
						"type": "t_address"
					},
					{
						"astId": 603,
						"contract": "contracts/Marketplace2/Marketplace.sol:NFTMarket",
						"label": "_itemIds",
						"offset": 0,
						"slot": "13",
						"type": "t_struct(Counter)331_storage"
					},
					{
						"astId": 606,
						"contract": "contracts/Marketplace2/Marketplace.sol:NFTMarket",
						"label": "_itemsSold",
						"offset": 0,
						"slot": "14",
						"type": "t_struct(Counter)331_storage"
					},
					{
						"astId": 611,
						"contract": "contracts/Marketplace2/Marketplace.sol:NFTMarket",
						"label": "idToMarketItem",
						"offset": 0,
						"slot": "15",
						"type": "t_mapping(t_uint256,t_struct(MarketItem)493_storage)"
					}
				],
				"types": {
					"t_address": {
						"encoding": "inplace",
						"label": "address",
						"numberOfBytes": "20"
					},
					"t_address_payable": {
						"encoding": "inplace",
						"label": "address payable",
						"numberOfBytes": "20"
					},
					"t_contract(IERC20)201": {
						"encoding": "inplace",
						"label": "contract IERC20",
						"numberOfBytes": "20"
					},
					"t_contract(IERC721)326": {
						"encoding": "inplace",
						"label": "contract IERC721",
						"numberOfBytes": "20"
					},
					"t_contract(IFactory)475": {
						"encoding": "inplace",
						"label": "contract IFactory",
						"numberOfBytes": "20"
					},
					"t_enum(ItemStatus)479": {
						"encoding": "inplace",
						"label": "enum MarketplaceStorage.ItemStatus",
						"numberOfBytes": "1"
					},
					"t_mapping(t_address,t_mapping(t_uint256,t_struct(MarketItem)493_storage))": {
						"encoding": "mapping",
						"key": "t_address",
						"label": "mapping(address => mapping(uint256 => struct MarketplaceStorage.MarketItem))",
						"numberOfBytes": "32",
						"value": "t_mapping(t_uint256,t_struct(MarketItem)493_storage)"
					},
					"t_mapping(t_uint256,t_struct(MarketItem)493_storage)": {
						"encoding": "mapping",
						"key": "t_uint256",
						"label": "mapping(uint256 => struct MarketplaceStorage.MarketItem)",
						"numberOfBytes": "32",
						"value": "t_struct(MarketItem)493_storage"
					},
					"t_struct(Counter)331_storage": {
						"encoding": "inplace",
						"label": "struct Counters.Counter",
						"members": [
							{
								"astId": 330,
								"contract": "contracts/Marketplace2/Marketplace.sol:NFTMarket",
								"label": "_value",
								"offset": 0,
								"slot": "0",
								"type": "t_uint256"
							}
						],
						"numberOfBytes": "32"
					},
					"t_struct(MarketItem)493_storage": {
						"encoding": "inplace",
						"label": "struct MarketplaceStorage.MarketItem",
						"members": [
							{
								"astId": 481,
								"contract": "contracts/Marketplace2/Marketplace.sol:NFTMarket",
								"label": "itemId",
								"offset": 0,
								"slot": "0",
								"type": "t_uint256"
							},
							{
								"astId": 483,
								"contract": "contracts/Marketplace2/Marketplace.sol:NFTMarket",
								"label": "tokenId",
								"offset": 0,
								"slot": "1",
								"type": "t_uint256"
							},
							{
								"astId": 485,
								"contract": "contracts/Marketplace2/Marketplace.sol:NFTMarket",
								"label": "seller",
								"offset": 0,
								"slot": "2",
								"type": "t_address_payable"
							},
							{
								"astId": 487,
								"contract": "contracts/Marketplace2/Marketplace.sol:NFTMarket",
								"label": "owner",
								"offset": 0,
								"slot": "3",
								"type": "t_address_payable"
							},
							{
								"astId": 489,
								"contract": "contracts/Marketplace2/Marketplace.sol:NFTMarket",
								"label": "price",
								"offset": 0,
								"slot": "4",
								"type": "t_uint256"
							},
							{
								"astId": 492,
								"contract": "contracts/Marketplace2/Marketplace.sol:NFTMarket",
								"label": "status",
								"offset": 0,
								"slot": "5",
								"type": "t_enum(ItemStatus)479"
							}
						],
						"numberOfBytes": "192"
					},
					"t_uint256": {
						"encoding": "inplace",
						"label": "uint256",
						"numberOfBytes": "32"
					},
					"t_uint8": {
						"encoding": "inplace",
						"label": "uint8",
						"numberOfBytes": "1"
					}
				}
			},
			"userdoc": {
				"kind": "user",
				"methods": {},
				"version": 1
			}
		}
	}
}