{
	"contracts/Marketplace2/Marketplace.sol": {
		"NFTMarket": {
			"abi": [
				{
					"inputs": [],
					"stateMutability": "nonpayable",
					"type": "constructor"
				},
				{
					"anonymous": false,
					"inputs": [
						{
							"indexed": false,
							"internalType": "bytes32",
							"name": "id",
							"type": "bytes32"
						},
						{
							"indexed": true,
							"internalType": "uint256",
							"name": "assetId",
							"type": "uint256"
						},
						{
							"indexed": true,
							"internalType": "address",
							"name": "seller",
							"type": "address"
						},
						{
							"indexed": false,
							"internalType": "address",
							"name": "nftAddress",
							"type": "address"
						},
						{
							"indexed": false,
							"internalType": "uint256",
							"name": "price",
							"type": "uint256"
						},
						{
							"indexed": false,
							"internalType": "uint8",
							"name": "feePercent",
							"type": "uint8"
						},
						{
							"indexed": false,
							"internalType": "uint256",
							"name": "fee",
							"type": "uint256"
						},
						{
							"indexed": true,
							"internalType": "address",
							"name": "buyer",
							"type": "address"
						},
						{
							"indexed": false,
							"internalType": "string",
							"name": "currency",
							"type": "string"
						},
						{
							"indexed": false,
							"internalType": "uint256",
							"name": "createdAt",
							"type": "uint256"
						}
					],
					"name": "BuyItemSuccessful",
					"type": "event"
				},
				{
					"anonymous": false,
					"inputs": [
						{
							"indexed": false,
							"internalType": "address",
							"name": "nftAddress",
							"type": "address"
						},
						{
							"indexed": false,
							"internalType": "uint256",
							"name": "id",
							"type": "uint256"
						},
						{
							"indexed": true,
							"internalType": "uint256",
							"name": "assetId",
							"type": "uint256"
						},
						{
							"indexed": true,
							"internalType": "address",
							"name": "delistBy",
							"type": "address"
						},
						{
							"indexed": false,
							"internalType": "uint256",
							"name": "createdAt",
							"type": "uint256"
						}
					],
					"name": "DelistItemSuccessful",
					"type": "event"
				},
				{
					"anonymous": false,
					"inputs": [
						{
							"indexed": true,
							"internalType": "uint256",
							"name": "itemId",
							"type": "uint256"
						},
						{
							"indexed": true,
							"internalType": "address",
							"name": "nftContract",
							"type": "address"
						},
						{
							"indexed": true,
							"internalType": "uint256",
							"name": "tokenId",
							"type": "uint256"
						},
						{
							"indexed": false,
							"internalType": "address",
							"name": "seller",
							"type": "address"
						},
						{
							"indexed": false,
							"internalType": "address",
							"name": "owner",
							"type": "address"
						},
						{
							"indexed": false,
							"internalType": "uint256",
							"name": "price",
							"type": "uint256"
						}
					],
					"name": "MarketItemCreated",
					"type": "event"
				},
				{
					"anonymous": false,
					"inputs": [
						{
							"indexed": true,
							"internalType": "address",
							"name": "previousOwner",
							"type": "address"
						},
						{
							"indexed": true,
							"internalType": "address",
							"name": "newOwner",
							"type": "address"
						}
					],
					"name": "OwnershipTransferred",
					"type": "event"
				},
				{
					"anonymous": false,
					"inputs": [
						{
							"indexed": false,
							"internalType": "address",
							"name": "nftAddress",
							"type": "address"
						},
						{
							"indexed": false,
							"internalType": "bytes32",
							"name": "id",
							"type": "bytes32"
						},
						{
							"indexed": true,
							"internalType": "uint256",
							"name": "assetId",
							"type": "uint256"
						},
						{
							"indexed": false,
							"internalType": "uint256",
							"name": "price",
							"type": "uint256"
						},
						{
							"indexed": true,
							"internalType": "address",
							"name": "seller",
							"type": "address"
						},
						{
							"indexed": false,
							"internalType": "string",
							"name": "currency",
							"type": "string"
						},
						{
							"indexed": false,
							"internalType": "uint256",
							"name": "createdAt",
							"type": "uint256"
						}
					],
					"name": "SellItemSuccessful",
					"type": "event"
				},
				{
					"inputs": [],
					"name": "ERC721_Interface",
					"outputs": [
						{
							"internalType": "bytes4",
							"name": "",
							"type": "bytes4"
						}
					],
					"stateMutability": "view",
					"type": "function"
				},
				{
					"inputs": [
						{
							"internalType": "uint256",
							"name": "",
							"type": "uint256"
						}
					],
					"name": "allItems",
					"outputs": [
						{
							"internalType": "uint256",
							"name": "itemId",
							"type": "uint256"
						},
						{
							"internalType": "address",
							"name": "nftContract",
							"type": "address"
						},
						{
							"internalType": "uint256",
							"name": "tokenId",
							"type": "uint256"
						},
						{
							"internalType": "address payable",
							"name": "seller",
							"type": "address"
						},
						{
							"internalType": "address payable",
							"name": "owner",
							"type": "address"
						},
						{
							"internalType": "uint256",
							"name": "price",
							"type": "uint256"
						},
						{
							"internalType": "enum MarketplaceStorage.ItemStatus",
							"name": "status",
							"type": "uint8"
						}
					],
					"stateMutability": "view",
					"type": "function"
				},
				{
					"inputs": [],
					"name": "allMarketItems",
					"outputs": [
						{
							"internalType": "uint256",
							"name": "itemId",
							"type": "uint256"
						},
						{
							"internalType": "address",
							"name": "nftContract",
							"type": "address"
						},
						{
							"internalType": "uint256",
							"name": "tokenId",
							"type": "uint256"
						},
						{
							"internalType": "address payable",
							"name": "seller",
							"type": "address"
						},
						{
							"internalType": "address payable",
							"name": "owner",
							"type": "address"
						},
						{
							"internalType": "uint256",
							"name": "price",
							"type": "uint256"
						},
						{
							"internalType": "enum MarketplaceStorage.ItemStatus",
							"name": "status",
							"type": "uint8"
						}
					],
					"stateMutability": "view",
					"type": "function"
				},
				{
					"inputs": [],
					"name": "antaFeePercent",
					"outputs": [
						{
							"internalType": "uint8",
							"name": "",
							"type": "uint8"
						}
					],
					"stateMutability": "view",
					"type": "function"
				},
				{
					"inputs": [],
					"name": "bnbFeePercent",
					"outputs": [
						{
							"internalType": "uint8",
							"name": "",
							"type": "uint8"
						}
					],
					"stateMutability": "view",
					"type": "function"
				},
				{
					"inputs": [
						{
							"internalType": "address",
							"name": "nftContract",
							"type": "address"
						},
						{
							"internalType": "uint256",
							"name": "tokenId",
							"type": "uint256"
						},
						{
							"internalType": "uint256",
							"name": "price",
							"type": "uint256"
						}
					],
					"name": "createMarketItem",
					"outputs": [],
					"stateMutability": "payable",
					"type": "function"
				},
				{
					"inputs": [
						{
							"internalType": "address",
							"name": "nftContract",
							"type": "address"
						},
						{
							"internalType": "uint256",
							"name": "itemId",
							"type": "uint256"
						},
						{
							"internalType": "uint256",
							"name": "amount",
							"type": "uint256"
						}
					],
					"name": "createMarketSale",
					"outputs": [],
					"stateMutability": "nonpayable",
					"type": "function"
				},
				{
					"inputs": [
						{
							"internalType": "address",
							"name": "nftAddress",
							"type": "address"
						},
						{
							"internalType": "uint256",
							"name": "itemId",
							"type": "uint256"
						}
					],
					"name": "delistItem",
					"outputs": [],
					"stateMutability": "nonpayable",
					"type": "function"
				},
				{
					"inputs": [],
					"name": "factory",
					"outputs": [
						{
							"internalType": "contract IFactory",
							"name": "",
							"type": "address"
						}
					],
					"stateMutability": "view",
					"type": "function"
				},
				{
					"inputs": [
						{
							"internalType": "uint256",
							"name": "itemId",
							"type": "uint256"
						}
					],
					"name": "fetchMarketItem",
					"outputs": [
						{
							"components": [
								{
									"internalType": "uint256",
									"name": "itemId",
									"type": "uint256"
								},
								{
									"internalType": "address",
									"name": "nftContract",
									"type": "address"
								},
								{
									"internalType": "uint256",
									"name": "tokenId",
									"type": "uint256"
								},
								{
									"internalType": "address payable",
									"name": "seller",
									"type": "address"
								},
								{
									"internalType": "address payable",
									"name": "owner",
									"type": "address"
								},
								{
									"internalType": "uint256",
									"name": "price",
									"type": "uint256"
								},
								{
									"internalType": "enum MarketplaceStorage.ItemStatus",
									"name": "status",
									"type": "uint8"
								}
							],
							"internalType": "struct MarketplaceStorage.MarketItem",
							"name": "",
							"type": "tuple"
						}
					],
					"stateMutability": "view",
					"type": "function"
				},
				{
					"inputs": [],
					"name": "fetchMarketItems",
					"outputs": [
						{
							"components": [
								{
									"internalType": "uint256",
									"name": "itemId",
									"type": "uint256"
								},
								{
									"internalType": "address",
									"name": "nftContract",
									"type": "address"
								},
								{
									"internalType": "uint256",
									"name": "tokenId",
									"type": "uint256"
								},
								{
									"internalType": "address payable",
									"name": "seller",
									"type": "address"
								},
								{
									"internalType": "address payable",
									"name": "owner",
									"type": "address"
								},
								{
									"internalType": "uint256",
									"name": "price",
									"type": "uint256"
								},
								{
									"internalType": "enum MarketplaceStorage.ItemStatus",
									"name": "status",
									"type": "uint8"
								}
							],
							"internalType": "struct MarketplaceStorage.MarketItem",
							"name": "",
							"type": "tuple"
						}
					],
					"stateMutability": "view",
					"type": "function"
				},
				{
					"inputs": [],
					"name": "fetchMyNFTs",
					"outputs": [
						{
							"components": [
								{
									"internalType": "uint256",
									"name": "itemId",
									"type": "uint256"
								},
								{
									"internalType": "address",
									"name": "nftContract",
									"type": "address"
								},
								{
									"internalType": "uint256",
									"name": "tokenId",
									"type": "uint256"
								},
								{
									"internalType": "address payable",
									"name": "seller",
									"type": "address"
								},
								{
									"internalType": "address payable",
									"name": "owner",
									"type": "address"
								},
								{
									"internalType": "uint256",
									"name": "price",
									"type": "uint256"
								},
								{
									"internalType": "enum MarketplaceStorage.ItemStatus",
									"name": "status",
									"type": "uint8"
								}
							],
							"internalType": "struct MarketplaceStorage.MarketItem[]",
							"name": "",
							"type": "tuple[]"
						}
					],
					"stateMutability": "view",
					"type": "function"
				},
				{
					"inputs": [
						{
							"internalType": "uint256",
							"name": "marketItemId",
							"type": "uint256"
						}
					],
					"name": "getMarketItem",
					"outputs": [
						{
							"components": [
								{
									"internalType": "uint256",
									"name": "itemId",
									"type": "uint256"
								},
								{
									"internalType": "address",
									"name": "nftContract",
									"type": "address"
								},
								{
									"internalType": "uint256",
									"name": "tokenId",
									"type": "uint256"
								},
								{
									"internalType": "address payable",
									"name": "seller",
									"type": "address"
								},
								{
									"internalType": "address payable",
									"name": "owner",
									"type": "address"
								},
								{
									"internalType": "uint256",
									"name": "price",
									"type": "uint256"
								},
								{
									"internalType": "enum MarketplaceStorage.ItemStatus",
									"name": "status",
									"type": "uint8"
								}
							],
							"internalType": "struct MarketplaceStorage.MarketItem",
							"name": "",
							"type": "tuple"
						}
					],
					"stateMutability": "view",
					"type": "function"
				},
				{
					"inputs": [
						{
							"internalType": "address",
							"name": "",
							"type": "address"
						},
						{
							"internalType": "uint256",
							"name": "",
							"type": "uint256"
						}
					],
					"name": "items",
					"outputs": [
						{
							"internalType": "uint256",
							"name": "itemId",
							"type": "uint256"
						},
						{
							"internalType": "address",
							"name": "nftContract",
							"type": "address"
						},
						{
							"internalType": "uint256",
							"name": "tokenId",
							"type": "uint256"
						},
						{
							"internalType": "address payable",
							"name": "seller",
							"type": "address"
						},
						{
							"internalType": "address payable",
							"name": "owner",
							"type": "address"
						},
						{
							"internalType": "uint256",
							"name": "price",
							"type": "uint256"
						},
						{
							"internalType": "enum MarketplaceStorage.ItemStatus",
							"name": "status",
							"type": "uint8"
						}
					],
					"stateMutability": "view",
					"type": "function"
				},
				{
					"inputs": [],
					"name": "owner",
					"outputs": [
						{
							"internalType": "address",
							"name": "",
							"type": "address"
						}
					],
					"stateMutability": "view",
					"type": "function"
				},
				{
					"inputs": [],
					"name": "renounceOwnership",
					"outputs": [],
					"stateMutability": "nonpayable",
					"type": "function"
				},
				{
					"inputs": [
						{
							"internalType": "address",
							"name": "_address",
							"type": "address"
						}
					],
					"name": "setSQFToken",
					"outputs": [],
					"stateMutability": "nonpayable",
					"type": "function"
				},
				{
					"inputs": [],
					"name": "sqfToken",
					"outputs": [
						{
							"internalType": "contract IERC20",
							"name": "",
							"type": "address"
						}
					],
					"stateMutability": "view",
					"type": "function"
				},
				{
					"inputs": [
						{
							"internalType": "address",
							"name": "newOwner",
							"type": "address"
						}
					],
					"name": "transferOwnership",
					"outputs": [],
					"stateMutability": "nonpayable",
					"type": "function"
				}
			],
			"devdoc": {
				"kind": "dev",
				"methods": {
					"owner()": {
						"details": "Returns the address of the current owner."
					},
					"renounceOwnership()": {
						"details": "Leaves the contract without owner. It will not be possible to call `onlyOwner` functions anymore. Can only be called by the current owner. NOTE: Renouncing ownership will leave the contract without an owner, thereby removing any functionality that is only available to the owner."
					},
					"transferOwnership(address)": {
						"details": "Transfers ownership of the contract to a new account (`newOwner`). Can only be called by the current owner."
					}
				},
				"version": 1
			},
			"evm": {
				"assembly": "    /* \"contracts/Marketplace2/Marketplace.sol\":17162:23536  contract NFTMarket is ReentrancyGuard,MarketplaceStorage, Ownable {... */\n  mstore(0x40, 0x80)\n    /* \"contracts/Marketplace2/Marketplace.sol\":17408:17435  constructor() { ... */\n  callvalue\n  dup1\n  iszero\n  tag_1\n  jumpi\n  0x00\n  dup1\n  revert\ntag_1:\n  pop\n    /* \"contracts/Marketplace2/Marketplace.sol\":14122:14123  1 */\n  0x01\n    /* \"contracts/Marketplace2/Marketplace.sol\":14227:14234  _status */\n  0x00\n    /* \"contracts/Marketplace2/Marketplace.sol\":14227:14249  _status = _NOT_ENTERED */\n  dup2\n  swap1\n  sstore\n  pop\n    /* \"contracts/Marketplace2/Marketplace.sol\":1561:1593  _transferOwnership(_msgSender()) */\n  tag_7\n    /* \"contracts/Marketplace2/Marketplace.sol\":1580:1592  _msgSender() */\n  tag_8\n    /* \"contracts/Marketplace2/Marketplace.sol\":1580:1590  _msgSender */\n  shl(0x20, tag_9)\n    /* \"contracts/Marketplace2/Marketplace.sol\":1580:1592  _msgSender() */\n  0x20\n  shr\n  jump\t// in\ntag_8:\n    /* \"contracts/Marketplace2/Marketplace.sol\":1561:1579  _transferOwnership */\n  shl(0x20, tag_10)\n    /* \"contracts/Marketplace2/Marketplace.sol\":1561:1593  _transferOwnership(_msgSender()) */\n  0x20\n  shr\n  jump\t// in\ntag_7:\n    /* \"contracts/Marketplace2/Marketplace.sol\":17162:23536  contract NFTMarket is ReentrancyGuard,MarketplaceStorage, Ownable {... */\n  jump(tag_12)\n    /* \"contracts/Marketplace2/Marketplace.sol\":554:650  function _msgSender() internal view virtual returns (address) {... */\ntag_9:\n    /* \"contracts/Marketplace2/Marketplace.sol\":607:614  address */\n  0x00\n    /* \"contracts/Marketplace2/Marketplace.sol\":633:643  msg.sender */\n  caller\n    /* \"contracts/Marketplace2/Marketplace.sol\":626:643  return msg.sender */\n  swap1\n  pop\n    /* \"contracts/Marketplace2/Marketplace.sol\":554:650  function _msgSender() internal view virtual returns (address) {... */\n  swap1\n  jump\t// out\n    /* \"contracts/Marketplace2/Marketplace.sol\":2910:3097  function _transferOwnership(address newOwner) internal virtual {... */\ntag_10:\n    /* \"contracts/Marketplace2/Marketplace.sol\":2983:2999  address oldOwner */\n  0x00\n    /* \"contracts/Marketplace2/Marketplace.sol\":3002:3008  _owner */\n  0x0c\n  0x00\n  swap1\n  sload\n  swap1\n  0x0100\n  exp\n  swap1\n  div\n  0xffffffffffffffffffffffffffffffffffffffff\n  and\n    /* \"contracts/Marketplace2/Marketplace.sol\":2983:3008  address oldOwner = _owner */\n  swap1\n  pop\n    /* \"contracts/Marketplace2/Marketplace.sol\":3027:3035  newOwner */\n  dup2\n    /* \"contracts/Marketplace2/Marketplace.sol\":3018:3024  _owner */\n  0x0c\n  0x00\n    /* \"contracts/Marketplace2/Marketplace.sol\":3018:3035  _owner = newOwner */\n  0x0100\n  exp\n  dup2\n  sload\n  dup2\n  0xffffffffffffffffffffffffffffffffffffffff\n  mul\n  not\n  and\n  swap1\n  dup4\n  0xffffffffffffffffffffffffffffffffffffffff\n  and\n  mul\n  or\n  swap1\n  sstore\n  pop\n    /* \"contracts/Marketplace2/Marketplace.sol\":3081:3089  newOwner */\n  dup2\n    /* \"contracts/Marketplace2/Marketplace.sol\":3050:3090  OwnershipTransferred(oldOwner, newOwner) */\n  0xffffffffffffffffffffffffffffffffffffffff\n  and\n    /* \"contracts/Marketplace2/Marketplace.sol\":3071:3079  oldOwner */\n  dup2\n    /* \"contracts/Marketplace2/Marketplace.sol\":3050:3090  OwnershipTransferred(oldOwner, newOwner) */\n  0xffffffffffffffffffffffffffffffffffffffff\n  and\n  0x8be0079c531659141344cd1fd0a4f28419497f9722a3daafe3b4186f6b6457e0\n  mload(0x40)\n  mload(0x40)\n  dup1\n  swap2\n  sub\n  swap1\n  log3\n    /* \"contracts/Marketplace2/Marketplace.sol\":2973:3097  {... */\n  pop\n    /* \"contracts/Marketplace2/Marketplace.sol\":2910:3097  function _transferOwnership(address newOwner) internal virtual {... */\n  pop\n  jump\t// out\n    /* \"contracts/Marketplace2/Marketplace.sol\":17162:23536  contract NFTMarket is ReentrancyGuard,MarketplaceStorage, Ownable {... */\ntag_12:\n  dataSize(sub_0)\n  dup1\n  dataOffset(sub_0)\n  0x00\n  codecopy\n  0x00\n  return\nstop\n\nsub_0: assembly {\n        /* \"contracts/Marketplace2/Marketplace.sol\":17162:23536  contract NFTMarket is ReentrancyGuard,MarketplaceStorage, Ownable {... */\n      mstore(0x40, 0x80)\n      jumpi(tag_1, lt(calldatasize, 0x04))\n      shr(0xe0, calldataload(0x00))\n      dup1\n      0x715018a6\n      gt\n      tag_21\n      jumpi\n      dup1\n      0xb7a60c7e\n      gt\n      tag_22\n      jumpi\n      dup1\n      0xb7a60c7e\n      eq\n      tag_16\n      jumpi\n      dup1\n      0xc45a0155\n      eq\n      tag_17\n      jumpi\n      dup1\n      0xc7be7a49\n      eq\n      tag_18\n      jumpi\n      dup1\n      0xf2fde38b\n      eq\n      tag_19\n      jumpi\n      dup1\n      0xff68fa6e\n      eq\n      tag_20\n      jumpi\n      jump(tag_1)\n    tag_22:\n      dup1\n      0x715018a6\n      eq\n      tag_11\n      jumpi\n      dup1\n      0x85a8b36c\n      eq\n      tag_12\n      jumpi\n      dup1\n      0x8da5cb5b\n      eq\n      tag_13\n      jumpi\n      dup1\n      0x92bf77dd\n      eq\n      tag_14\n      jumpi\n      dup1\n      0xad9a0369\n      eq\n      tag_15\n      jumpi\n      jump(tag_1)\n    tag_21:\n      dup1\n      0x2a45b250\n      gt\n      tag_23\n      jumpi\n      dup1\n      0x2a45b250\n      eq\n      tag_6\n      jumpi\n      dup1\n      0x2b4c32be\n      eq\n      tag_7\n      jumpi\n      dup1\n      0x517bd451\n      eq\n      tag_8\n      jumpi\n      dup1\n      0x58eb2df5\n      eq\n      tag_9\n      jumpi\n      dup1\n      0x5c80a435\n      eq\n      tag_10\n      jumpi\n      jump(tag_1)\n    tag_23:\n      dup1\n      0x0f08efe0\n      eq\n      tag_2\n      jumpi\n      dup1\n      0x15b81dc3\n      eq\n      tag_3\n      jumpi\n      dup1\n      0x202e3740\n      eq\n      tag_4\n      jumpi\n      dup1\n      0x21cf91ac\n      eq\n      tag_5\n      jumpi\n    tag_1:\n      0x00\n      dup1\n      revert\n        /* \"contracts/Marketplace2/Marketplace.sol\":19161:19261  function fetchMarketItems() public view returns (MarketItem memory) {... */\n    tag_2:\n      callvalue\n      dup1\n      iszero\n      tag_24\n      jumpi\n      0x00\n      dup1\n      revert\n    tag_24:\n      pop\n      tag_25\n      tag_26\n      jump\t// in\n    tag_25:\n      mload(0x40)\n      tag_27\n      swap2\n      swap1\n      tag_28\n      jump\t// in\n    tag_27:\n      mload(0x40)\n      dup1\n      swap2\n      sub\n      swap1\n      return\n        /* \"contracts/Marketplace2/Marketplace.sol\":16122:16144  IERC20 public sqfToken */\n    tag_3:\n      callvalue\n      dup1\n      iszero\n      tag_29\n      jumpi\n      0x00\n      dup1\n      revert\n    tag_29:\n      pop\n      tag_30\n      tag_31\n      jump\t// in\n    tag_30:\n      mload(0x40)\n      tag_32\n      swap2\n      swap1\n      tag_33\n      jump\t// in\n    tag_32:\n      mload(0x40)\n      dup1\n      swap2\n      sub\n      swap1\n      return\n        /* \"contracts/Marketplace2/Marketplace.sol\":19265:19968  function fetchMyNFTs() public view returns (MarketItem[] memory) {... */\n    tag_4:\n      callvalue\n      dup1\n      iszero\n      tag_34\n      jumpi\n      0x00\n      dup1\n      revert\n    tag_34:\n      pop\n      tag_35\n      tag_36\n      jump\t// in\n    tag_35:\n      mload(0x40)\n      tag_37\n      swap2\n      swap1\n      tag_38\n      jump\t// in\n    tag_37:\n      mload(0x40)\n      dup1\n      swap2\n      sub\n      swap1\n      return\n        /* \"contracts/Marketplace2/Marketplace.sol\":18329:19000  function createMarketSale(... */\n    tag_5:\n      callvalue\n      dup1\n      iszero\n      tag_39\n      jumpi\n      0x00\n      dup1\n      revert\n    tag_39:\n      pop\n      tag_40\n      0x04\n      dup1\n      calldatasize\n      sub\n      dup2\n      add\n      swap1\n      tag_41\n      swap2\n      swap1\n      tag_42\n      jump\t// in\n    tag_41:\n      tag_43\n      jump\t// in\n    tag_40:\n      stop\n        /* \"contracts/Marketplace2/Marketplace.sol\":19004:19157  function fetchMarketItem(uint itemId) public view returns (MarketItem memory) {... */\n    tag_6:\n      callvalue\n      dup1\n      iszero\n      tag_44\n      jumpi\n      0x00\n      dup1\n      revert\n    tag_44:\n      pop\n      tag_45\n      0x04\n      dup1\n      calldatasize\n      sub\n      dup2\n      add\n      swap1\n      tag_46\n      swap2\n      swap1\n      tag_47\n      jump\t// in\n    tag_46:\n      tag_48\n      jump\t// in\n    tag_45:\n      mload(0x40)\n      tag_49\n      swap2\n      swap1\n      tag_28\n      jump\t// in\n    tag_49:\n      mload(0x40)\n      dup1\n      swap2\n      sub\n      swap1\n      return\n        /* \"contracts/Marketplace2/Marketplace.sol\":15861:15921  bytes4 public constant ERC721_Interface = bytes4(0x80ac58cd) */\n    tag_7:\n      callvalue\n      dup1\n      iszero\n      tag_50\n      jumpi\n      0x00\n      dup1\n      revert\n    tag_50:\n      pop\n      tag_51\n      tag_52\n      jump\t// in\n    tag_51:\n      mload(0x40)\n      tag_53\n      swap2\n      swap1\n      tag_54\n      jump\t// in\n    tag_53:\n      mload(0x40)\n      dup1\n      swap2\n      sub\n      swap1\n      return\n        /* \"contracts/Marketplace2/Marketplace.sol\":15822:15854  MarketItem public allMarketItems */\n    tag_8:\n      callvalue\n      dup1\n      iszero\n      tag_55\n      jumpi\n      0x00\n      dup1\n      revert\n    tag_55:\n      pop\n      tag_56\n      tag_57\n      jump\t// in\n    tag_56:\n      mload(0x40)\n      tag_58\n      swap8\n      swap7\n      swap6\n      swap5\n      swap4\n      swap3\n      swap2\n      swap1\n      tag_59\n      jump\t// in\n    tag_58:\n      mload(0x40)\n      dup1\n      swap2\n      sub\n      swap1\n      return\n        /* \"contracts/Marketplace2/Marketplace.sol\":17674:18325  function createMarketItem(... */\n    tag_9:\n      tag_60\n      0x04\n      dup1\n      calldatasize\n      sub\n      dup2\n      add\n      swap1\n      tag_61\n      swap2\n      swap1\n      tag_42\n      jump\t// in\n    tag_61:\n      tag_62\n      jump\t// in\n    tag_60:\n      stop\n        /* \"contracts/Marketplace2/Marketplace.sol\":16052:16115  mapping(address => mapping(uint256 => MarketItem)) public items */\n    tag_10:\n      callvalue\n      dup1\n      iszero\n      tag_63\n      jumpi\n      0x00\n      dup1\n      revert\n    tag_63:\n      pop\n      tag_64\n      0x04\n      dup1\n      calldatasize\n      sub\n      dup2\n      add\n      swap1\n      tag_65\n      swap2\n      swap1\n      tag_66\n      jump\t// in\n    tag_65:\n      tag_67\n      jump\t// in\n    tag_64:\n      mload(0x40)\n      tag_68\n      swap8\n      swap7\n      swap6\n      swap5\n      swap4\n      swap3\n      swap2\n      swap1\n      tag_59\n      jump\t// in\n    tag_68:\n      mload(0x40)\n      dup1\n      swap2\n      sub\n      swap1\n      return\n        /* \"contracts/Marketplace2/Marketplace.sol\":2308:2409  function renounceOwnership() public virtual onlyOwner {... */\n    tag_11:\n      callvalue\n      dup1\n      iszero\n      tag_69\n      jumpi\n      0x00\n      dup1\n      revert\n    tag_69:\n      pop\n      tag_70\n      tag_71\n      jump\t// in\n    tag_70:\n      stop\n        /* \"contracts/Marketplace2/Marketplace.sol\":16180:16206  uint8 public bnbFeePercent */\n    tag_12:\n      callvalue\n      dup1\n      iszero\n      tag_72\n      jumpi\n      0x00\n      dup1\n      revert\n    tag_72:\n      pop\n      tag_73\n      tag_74\n      jump\t// in\n    tag_73:\n      mload(0x40)\n      tag_75\n      swap2\n      swap1\n      tag_76\n      jump\t// in\n    tag_75:\n      mload(0x40)\n      dup1\n      swap2\n      sub\n      swap1\n      return\n        /* \"contracts/Marketplace2/Marketplace.sol\":1676:1761  function owner() public view virtual returns (address) {... */\n    tag_13:\n      callvalue\n      dup1\n      iszero\n      tag_77\n      jumpi\n      0x00\n      dup1\n      revert\n    tag_77:\n      pop\n      tag_78\n      tag_79\n      jump\t// in\n    tag_78:\n      mload(0x40)\n      tag_80\n      swap2\n      swap1\n      tag_81\n      jump\t// in\n    tag_80:\n      mload(0x40)\n      dup1\n      swap2\n      sub\n      swap1\n      return\n        /* \"contracts/Marketplace2/Marketplace.sol\":17572:17670  function setSQFToken(address _address) external onlyOwner {... */\n    tag_14:\n      callvalue\n      dup1\n      iszero\n      tag_82\n      jumpi\n      0x00\n      dup1\n      revert\n    tag_82:\n      pop\n      tag_83\n      0x04\n      dup1\n      calldatasize\n      sub\n      dup2\n      add\n      swap1\n      tag_84\n      swap2\n      swap1\n      tag_85\n      jump\t// in\n    tag_84:\n      tag_86\n      jump\t// in\n    tag_83:\n      stop\n        /* \"contracts/Marketplace2/Marketplace.sol\":19972:20864  function delistItem(address nftAddress, uint256 itemId) public {... */\n    tag_15:\n      callvalue\n      dup1\n      iszero\n      tag_87\n      jumpi\n      0x00\n      dup1\n      revert\n    tag_87:\n      pop\n      tag_88\n      0x04\n      dup1\n      calldatasize\n      sub\n      dup2\n      add\n      swap1\n      tag_89\n      swap2\n      swap1\n      tag_66\n      jump\t// in\n    tag_89:\n      tag_90\n      jump\t// in\n    tag_88:\n      stop\n        /* \"contracts/Marketplace2/Marketplace.sol\":16212:16239  uint8 public antaFeePercent */\n    tag_16:\n      callvalue\n      dup1\n      iszero\n      tag_91\n      jumpi\n      0x00\n      dup1\n      revert\n    tag_91:\n      pop\n      tag_92\n      tag_93\n      jump\t// in\n    tag_92:\n      mload(0x40)\n      tag_94\n      swap2\n      swap1\n      tag_76\n      jump\t// in\n    tag_94:\n      mload(0x40)\n      dup1\n      swap2\n      sub\n      swap1\n      return\n        /* \"contracts/Marketplace2/Marketplace.sol\":16150:16173  IFactory public factory */\n    tag_17:\n      callvalue\n      dup1\n      iszero\n      tag_95\n      jumpi\n      0x00\n      dup1\n      revert\n    tag_95:\n      pop\n      tag_96\n      tag_97\n      jump\t// in\n    tag_96:\n      mload(0x40)\n      tag_98\n      swap2\n      swap1\n      tag_99\n      jump\t// in\n    tag_98:\n      mload(0x40)\n      dup1\n      swap2\n      sub\n      swap1\n      return\n        /* \"contracts/Marketplace2/Marketplace.sol\":17439:17570  function getMarketItem(uint256 marketItemId) public view returns (MarketItem memory) {... */\n    tag_18:\n      callvalue\n      dup1\n      iszero\n      tag_100\n      jumpi\n      0x00\n      dup1\n      revert\n    tag_100:\n      pop\n      tag_101\n      0x04\n      dup1\n      calldatasize\n      sub\n      dup2\n      add\n      swap1\n      tag_102\n      swap2\n      swap1\n      tag_47\n      jump\t// in\n    tag_102:\n      tag_103\n      jump\t// in\n    tag_101:\n      mload(0x40)\n      tag_104\n      swap2\n      swap1\n      tag_28\n      jump\t// in\n    tag_104:\n      mload(0x40)\n      dup1\n      swap2\n      sub\n      swap1\n      return\n        /* \"contracts/Marketplace2/Marketplace.sol\":2558:2756  function transferOwnership(address newOwner) public virtual onlyOwner {... */\n    tag_19:\n      callvalue\n      dup1\n      iszero\n      tag_105\n      jumpi\n      0x00\n      dup1\n      revert\n    tag_105:\n      pop\n      tag_106\n      0x04\n      dup1\n      calldatasize\n      sub\n      dup2\n      add\n      swap1\n      tag_107\n      swap2\n      swap1\n      tag_85\n      jump\t// in\n    tag_107:\n      tag_108\n      jump\t// in\n    tag_106:\n      stop\n        /* \"contracts/Marketplace2/Marketplace.sol\":15928:15975  mapping (uint256 => MarketItem) public allItems */\n    tag_20:\n      callvalue\n      dup1\n      iszero\n      tag_109\n      jumpi\n      0x00\n      dup1\n      revert\n    tag_109:\n      pop\n      tag_110\n      0x04\n      dup1\n      calldatasize\n      sub\n      dup2\n      add\n      swap1\n      tag_111\n      swap2\n      swap1\n      tag_47\n      jump\t// in\n    tag_111:\n      tag_112\n      jump\t// in\n    tag_110:\n      mload(0x40)\n      tag_113\n      swap8\n      swap7\n      swap6\n      swap5\n      swap4\n      swap3\n      swap2\n      swap1\n      tag_59\n      jump\t// in\n    tag_113:\n      mload(0x40)\n      dup1\n      swap2\n      sub\n      swap1\n      return\n        /* \"contracts/Marketplace2/Marketplace.sol\":19161:19261  function fetchMarketItems() public view returns (MarketItem memory) {... */\n    tag_26:\n        /* \"contracts/Marketplace2/Marketplace.sol\":19210:19227  MarketItem memory */\n      tag_114\n      tag_115\n      jump\t// in\n    tag_114:\n        /* \"contracts/Marketplace2/Marketplace.sol\":19242:19256  allMarketItems */\n      0x01\n        /* \"contracts/Marketplace2/Marketplace.sol\":19235:19256  return allMarketItems */\n      mload(0x40)\n      dup1\n      0xe0\n      add\n      0x40\n      mstore\n      swap1\n      dup2\n      0x00\n      dup3\n      add\n      sload\n      dup2\n      mstore\n      0x20\n      add\n      0x01\n      dup3\n      add\n      0x00\n      swap1\n      sload\n      swap1\n      0x0100\n      exp\n      swap1\n      div\n      0xffffffffffffffffffffffffffffffffffffffff\n      and\n      0xffffffffffffffffffffffffffffffffffffffff\n      and\n      0xffffffffffffffffffffffffffffffffffffffff\n      and\n      dup2\n      mstore\n      0x20\n      add\n      0x02\n      dup3\n      add\n      sload\n      dup2\n      mstore\n      0x20\n      add\n      0x03\n      dup3\n      add\n      0x00\n      swap1\n      sload\n      swap1\n      0x0100\n      exp\n      swap1\n      div\n      0xffffffffffffffffffffffffffffffffffffffff\n      and\n      0xffffffffffffffffffffffffffffffffffffffff\n      and\n      0xffffffffffffffffffffffffffffffffffffffff\n      and\n      dup2\n      mstore\n      0x20\n      add\n      0x04\n      dup3\n      add\n      0x00\n      swap1\n      sload\n      swap1\n      0x0100\n      exp\n      swap1\n      div\n      0xffffffffffffffffffffffffffffffffffffffff\n      and\n      0xffffffffffffffffffffffffffffffffffffffff\n      and\n      0xffffffffffffffffffffffffffffffffffffffff\n      and\n      dup2\n      mstore\n      0x20\n      add\n      0x05\n      dup3\n      add\n      sload\n      dup2\n      mstore\n      0x20\n      add\n      0x06\n      dup3\n      add\n      0x00\n      swap1\n      sload\n      swap1\n      0x0100\n      exp\n      swap1\n      div\n      0xff\n      and\n      0x01\n      dup2\n      gt\n      iszero\n      tag_117\n      jumpi\n      tag_118\n      tag_119\n      jump\t// in\n    tag_118:\n    tag_117:\n      0x01\n      dup2\n      gt\n      iszero\n      tag_120\n      jumpi\n      tag_121\n      tag_119\n      jump\t// in\n    tag_121:\n    tag_120:\n      dup2\n      mstore\n      pop\n      pop\n      swap1\n      pop\n        /* \"contracts/Marketplace2/Marketplace.sol\":19161:19261  function fetchMarketItems() public view returns (MarketItem memory) {... */\n      swap1\n      jump\t// out\n        /* \"contracts/Marketplace2/Marketplace.sol\":16122:16144  IERC20 public sqfToken */\n    tag_31:\n      0x0a\n      0x00\n      swap1\n      sload\n      swap1\n      0x0100\n      exp\n      swap1\n      div\n      0xffffffffffffffffffffffffffffffffffffffff\n      and\n      dup2\n      jump\t// out\n        /* \"contracts/Marketplace2/Marketplace.sol\":19265:19968  function fetchMyNFTs() public view returns (MarketItem[] memory) {... */\n    tag_36:\n        /* \"contracts/Marketplace2/Marketplace.sol\":19309:19328  MarketItem[] memory */\n      0x60\n        /* \"contracts/Marketplace2/Marketplace.sol\":19336:19355  uint totalItemCount */\n      0x00\n        /* \"contracts/Marketplace2/Marketplace.sol\":19358:19376  _itemIds.current() */\n      tag_123\n        /* \"contracts/Marketplace2/Marketplace.sol\":19358:19366  _itemIds */\n      0x0d\n        /* \"contracts/Marketplace2/Marketplace.sol\":19358:19374  _itemIds.current */\n      tag_124\n        /* \"contracts/Marketplace2/Marketplace.sol\":19358:19376  _itemIds.current() */\n      jump\t// in\n    tag_123:\n        /* \"contracts/Marketplace2/Marketplace.sol\":19336:19376  uint totalItemCount = _itemIds.current() */\n      swap1\n      pop\n        /* \"contracts/Marketplace2/Marketplace.sol\":19382:19396  uint itemCount */\n      0x00\n        /* \"contracts/Marketplace2/Marketplace.sol\":19406:19423  uint currentIndex */\n      dup1\n        /* \"contracts/Marketplace2/Marketplace.sol\":19439:19445  uint i */\n      0x00\n        /* \"contracts/Marketplace2/Marketplace.sol\":19434:19570  for (uint i = 0; i < totalItemCount; i++) {... */\n    tag_125:\n        /* \"contracts/Marketplace2/Marketplace.sol\":19455:19469  totalItemCount */\n      dup4\n        /* \"contracts/Marketplace2/Marketplace.sol\":19451:19452  i */\n      dup2\n        /* \"contracts/Marketplace2/Marketplace.sol\":19451:19469  i < totalItemCount */\n      lt\n        /* \"contracts/Marketplace2/Marketplace.sol\":19434:19570  for (uint i = 0; i < totalItemCount; i++) {... */\n      iszero\n      tag_126\n      jumpi\n        /* \"contracts/Marketplace2/Marketplace.sol\":19519:19529  msg.sender */\n      caller\n        /* \"contracts/Marketplace2/Marketplace.sol\":19488:19529  idToMarketItem[i + 1].owner == msg.sender */\n      0xffffffffffffffffffffffffffffffffffffffff\n      and\n        /* \"contracts/Marketplace2/Marketplace.sol\":19488:19502  idToMarketItem */\n      0x0f\n        /* \"contracts/Marketplace2/Marketplace.sol\":19488:19509  idToMarketItem[i + 1] */\n      0x00\n        /* \"contracts/Marketplace2/Marketplace.sol\":19507:19508  1 */\n      0x01\n        /* \"contracts/Marketplace2/Marketplace.sol\":19503:19504  i */\n      dup5\n        /* \"contracts/Marketplace2/Marketplace.sol\":19503:19508  i + 1 */\n      tag_128\n      swap2\n      swap1\n      tag_129\n      jump\t// in\n    tag_128:\n        /* \"contracts/Marketplace2/Marketplace.sol\":19488:19509  idToMarketItem[i + 1] */\n      dup2\n      mstore\n      0x20\n      add\n      swap1\n      dup2\n      mstore\n      0x20\n      add\n      0x00\n      keccak256\n        /* \"contracts/Marketplace2/Marketplace.sol\":19488:19515  idToMarketItem[i + 1].owner */\n      0x04\n      add\n      0x00\n      swap1\n      sload\n      swap1\n      0x0100\n      exp\n      swap1\n      div\n      0xffffffffffffffffffffffffffffffffffffffff\n      and\n        /* \"contracts/Marketplace2/Marketplace.sol\":19488:19529  idToMarketItem[i + 1].owner == msg.sender */\n      0xffffffffffffffffffffffffffffffffffffffff\n      and\n      sub\n        /* \"contracts/Marketplace2/Marketplace.sol\":19484:19564  if (idToMarketItem[i + 1].owner == msg.sender) {... */\n      tag_130\n      jumpi\n        /* \"contracts/Marketplace2/Marketplace.sol\":19554:19555  1 */\n      0x01\n        /* \"contracts/Marketplace2/Marketplace.sol\":19541:19555  itemCount += 1 */\n      dup4\n      tag_131\n      swap2\n      swap1\n      tag_129\n      jump\t// in\n    tag_131:\n      swap3\n      pop\n        /* \"contracts/Marketplace2/Marketplace.sol\":19484:19564  if (idToMarketItem[i + 1].owner == msg.sender) {... */\n    tag_130:\n        /* \"contracts/Marketplace2/Marketplace.sol\":19471:19474  i++ */\n      dup1\n      dup1\n      tag_132\n      swap1\n      tag_133\n      jump\t// in\n    tag_132:\n      swap2\n      pop\n      pop\n        /* \"contracts/Marketplace2/Marketplace.sol\":19434:19570  for (uint i = 0; i < totalItemCount; i++) {... */\n      jump(tag_125)\n    tag_126:\n      pop\n        /* \"contracts/Marketplace2/Marketplace.sol\":19576:19601  MarketItem[] memory items */\n      0x00\n        /* \"contracts/Marketplace2/Marketplace.sol\":19621:19630  itemCount */\n      dup3\n        /* \"contracts/Marketplace2/Marketplace.sol\":19604:19631  new MarketItem[](itemCount) */\n      0xffffffffffffffff\n      dup2\n      gt\n      iszero\n      tag_134\n      jumpi\n      tag_135\n      tag_136\n      jump\t// in\n    tag_135:\n    tag_134:\n      mload(0x40)\n      swap1\n      dup1\n      dup3\n      mstore\n      dup1\n      0x20\n      mul\n      0x20\n      add\n      dup3\n      add\n      0x40\n      mstore\n      dup1\n      iszero\n      tag_137\n      jumpi\n      dup2\n      0x20\n      add\n    tag_138:\n      tag_139\n      tag_115\n      jump\t// in\n    tag_139:\n      dup2\n      mstore\n      0x20\n      add\n      swap1\n      0x01\n      swap1\n      sub\n      swap1\n      dup2\n      tag_138\n      jumpi\n      swap1\n      pop\n    tag_137:\n      pop\n        /* \"contracts/Marketplace2/Marketplace.sol\":19576:19631  MarketItem[] memory items = new MarketItem[](itemCount) */\n      swap1\n      pop\n        /* \"contracts/Marketplace2/Marketplace.sol\":19642:19648  uint i */\n      0x00\n        /* \"contracts/Marketplace2/Marketplace.sol\":19637:19942  for (uint i = 0; i < totalItemCount; i++) {... */\n    tag_140:\n        /* \"contracts/Marketplace2/Marketplace.sol\":19658:19672  totalItemCount */\n      dup5\n        /* \"contracts/Marketplace2/Marketplace.sol\":19654:19655  i */\n      dup2\n        /* \"contracts/Marketplace2/Marketplace.sol\":19654:19672  i < totalItemCount */\n      lt\n        /* \"contracts/Marketplace2/Marketplace.sol\":19637:19942  for (uint i = 0; i < totalItemCount; i++) {... */\n      iszero\n      tag_141\n      jumpi\n        /* \"contracts/Marketplace2/Marketplace.sol\":19722:19732  msg.sender */\n      caller\n        /* \"contracts/Marketplace2/Marketplace.sol\":19691:19732  idToMarketItem[i + 1].owner == msg.sender */\n      0xffffffffffffffffffffffffffffffffffffffff\n      and\n        /* \"contracts/Marketplace2/Marketplace.sol\":19691:19705  idToMarketItem */\n      0x0f\n        /* \"contracts/Marketplace2/Marketplace.sol\":19691:19712  idToMarketItem[i + 1] */\n      0x00\n        /* \"contracts/Marketplace2/Marketplace.sol\":19710:19711  1 */\n      0x01\n        /* \"contracts/Marketplace2/Marketplace.sol\":19706:19707  i */\n      dup5\n        /* \"contracts/Marketplace2/Marketplace.sol\":19706:19711  i + 1 */\n      tag_143\n      swap2\n      swap1\n      tag_129\n      jump\t// in\n    tag_143:\n        /* \"contracts/Marketplace2/Marketplace.sol\":19691:19712  idToMarketItem[i + 1] */\n      dup2\n      mstore\n      0x20\n      add\n      swap1\n      dup2\n      mstore\n      0x20\n      add\n      0x00\n      keccak256\n        /* \"contracts/Marketplace2/Marketplace.sol\":19691:19718  idToMarketItem[i + 1].owner */\n      0x04\n      add\n      0x00\n      swap1\n      sload\n      swap1\n      0x0100\n      exp\n      swap1\n      div\n      0xffffffffffffffffffffffffffffffffffffffff\n      and\n        /* \"contracts/Marketplace2/Marketplace.sol\":19691:19732  idToMarketItem[i + 1].owner == msg.sender */\n      0xffffffffffffffffffffffffffffffffffffffff\n      and\n      sub\n        /* \"contracts/Marketplace2/Marketplace.sol\":19687:19936  if (idToMarketItem[i + 1].owner == msg.sender) {... */\n      tag_144\n      jumpi\n        /* \"contracts/Marketplace2/Marketplace.sol\":19744:19758  uint currentId */\n      0x00\n        /* \"contracts/Marketplace2/Marketplace.sol\":19761:19775  idToMarketItem */\n      0x0f\n        /* \"contracts/Marketplace2/Marketplace.sol\":19761:19782  idToMarketItem[i + 1] */\n      0x00\n        /* \"contracts/Marketplace2/Marketplace.sol\":19780:19781  1 */\n      0x01\n        /* \"contracts/Marketplace2/Marketplace.sol\":19776:19777  i */\n      dup5\n        /* \"contracts/Marketplace2/Marketplace.sol\":19776:19781  i + 1 */\n      tag_145\n      swap2\n      swap1\n      tag_129\n      jump\t// in\n    tag_145:\n        /* \"contracts/Marketplace2/Marketplace.sol\":19761:19782  idToMarketItem[i + 1] */\n      dup2\n      mstore\n      0x20\n      add\n      swap1\n      dup2\n      mstore\n      0x20\n      add\n      0x00\n      keccak256\n        /* \"contracts/Marketplace2/Marketplace.sol\":19761:19789  idToMarketItem[i + 1].itemId */\n      0x00\n      add\n      sload\n        /* \"contracts/Marketplace2/Marketplace.sol\":19744:19789  uint currentId = idToMarketItem[i + 1].itemId */\n      swap1\n      pop\n        /* \"contracts/Marketplace2/Marketplace.sol\":19799:19829  MarketItem storage currentItem */\n      0x00\n        /* \"contracts/Marketplace2/Marketplace.sol\":19832:19846  idToMarketItem */\n      0x0f\n        /* \"contracts/Marketplace2/Marketplace.sol\":19832:19857  idToMarketItem[currentId] */\n      0x00\n        /* \"contracts/Marketplace2/Marketplace.sol\":19847:19856  currentId */\n      dup4\n        /* \"contracts/Marketplace2/Marketplace.sol\":19832:19857  idToMarketItem[currentId] */\n      dup2\n      mstore\n      0x20\n      add\n      swap1\n      dup2\n      mstore\n      0x20\n      add\n      0x00\n      keccak256\n        /* \"contracts/Marketplace2/Marketplace.sol\":19799:19857  MarketItem storage currentItem = idToMarketItem[currentId] */\n      swap1\n      pop\n        /* \"contracts/Marketplace2/Marketplace.sol\":19889:19900  currentItem */\n      dup1\n        /* \"contracts/Marketplace2/Marketplace.sol\":19867:19900  items[currentIndex] = currentItem */\n      mload(0x40)\n      dup1\n      0xe0\n      add\n      0x40\n      mstore\n      swap1\n      dup2\n      0x00\n      dup3\n      add\n      sload\n      dup2\n      mstore\n      0x20\n      add\n      0x01\n      dup3\n      add\n      0x00\n      swap1\n      sload\n      swap1\n      0x0100\n      exp\n      swap1\n      div\n      0xffffffffffffffffffffffffffffffffffffffff\n      and\n      0xffffffffffffffffffffffffffffffffffffffff\n      and\n      0xffffffffffffffffffffffffffffffffffffffff\n      and\n      dup2\n      mstore\n      0x20\n      add\n      0x02\n      dup3\n      add\n      sload\n      dup2\n      mstore\n      0x20\n      add\n      0x03\n      dup3\n      add\n      0x00\n      swap1\n      sload\n      swap1\n      0x0100\n      exp\n      swap1\n      div\n      0xffffffffffffffffffffffffffffffffffffffff\n      and\n      0xffffffffffffffffffffffffffffffffffffffff\n      and\n      0xffffffffffffffffffffffffffffffffffffffff\n      and\n      dup2\n      mstore\n      0x20\n      add\n      0x04\n      dup3\n      add\n      0x00\n      swap1\n      sload\n      swap1\n      0x0100\n      exp\n      swap1\n      div\n      0xffffffffffffffffffffffffffffffffffffffff\n      and\n      0xffffffffffffffffffffffffffffffffffffffff\n      and\n      0xffffffffffffffffffffffffffffffffffffffff\n      and\n      dup2\n      mstore\n      0x20\n      add\n      0x05\n      dup3\n      add\n      sload\n      dup2\n      mstore\n      0x20\n      add\n      0x06\n      dup3\n      add\n      0x00\n      swap1\n      sload\n      swap1\n      0x0100\n      exp\n      swap1\n      div\n      0xff\n      and\n      0x01\n      dup2\n      gt\n      iszero\n      tag_146\n      jumpi\n      tag_147\n      tag_119\n      jump\t// in\n    tag_147:\n    tag_146:\n      0x01\n      dup2\n      gt\n      iszero\n      tag_148\n      jumpi\n      tag_149\n      tag_119\n      jump\t// in\n    tag_149:\n    tag_148:\n      dup2\n      mstore\n      pop\n      pop\n        /* \"contracts/Marketplace2/Marketplace.sol\":19867:19872  items */\n      dup5\n        /* \"contracts/Marketplace2/Marketplace.sol\":19873:19885  currentIndex */\n      dup7\n        /* \"contracts/Marketplace2/Marketplace.sol\":19867:19886  items[currentIndex] */\n      dup2\n      mload\n      dup2\n      lt\n      tag_150\n      jumpi\n      tag_151\n      tag_152\n      jump\t// in\n    tag_151:\n    tag_150:\n      0x20\n      mul\n      0x20\n      add\n      add\n        /* \"contracts/Marketplace2/Marketplace.sol\":19867:19900  items[currentIndex] = currentItem */\n      dup2\n      swap1\n      mstore\n      pop\n        /* \"contracts/Marketplace2/Marketplace.sol\":19926:19927  1 */\n      0x01\n        /* \"contracts/Marketplace2/Marketplace.sol\":19910:19927  currentIndex += 1 */\n      dup6\n      tag_153\n      swap2\n      swap1\n      tag_129\n      jump\t// in\n    tag_153:\n      swap5\n      pop\n        /* \"contracts/Marketplace2/Marketplace.sol\":19734:19936  {... */\n      pop\n      pop\n        /* \"contracts/Marketplace2/Marketplace.sol\":19687:19936  if (idToMarketItem[i + 1].owner == msg.sender) {... */\n    tag_144:\n        /* \"contracts/Marketplace2/Marketplace.sol\":19674:19677  i++ */\n      dup1\n      dup1\n      tag_154\n      swap1\n      tag_133\n      jump\t// in\n    tag_154:\n      swap2\n      pop\n      pop\n        /* \"contracts/Marketplace2/Marketplace.sol\":19637:19942  for (uint i = 0; i < totalItemCount; i++) {... */\n      jump(tag_140)\n    tag_141:\n      pop\n        /* \"contracts/Marketplace2/Marketplace.sol\":19958:19963  items */\n      dup1\n        /* \"contracts/Marketplace2/Marketplace.sol\":19951:19963  return items */\n      swap5\n      pop\n      pop\n      pop\n      pop\n      pop\n        /* \"contracts/Marketplace2/Marketplace.sol\":19265:19968  function fetchMyNFTs() public view returns (MarketItem[] memory) {... */\n      swap1\n      jump\t// out\n        /* \"contracts/Marketplace2/Marketplace.sol\":18329:19000  function createMarketSale(... */\n    tag_43:\n        /* \"contracts/Marketplace2/Marketplace.sol\":14165:14166  2 */\n      0x02\n        /* \"contracts/Marketplace2/Marketplace.sol\":14746:14753  _status */\n      sload(0x00)\n        /* \"contracts/Marketplace2/Marketplace.sol\":14746:14765  _status != _ENTERED */\n      sub\n        /* \"contracts/Marketplace2/Marketplace.sol\":14738:14801  require(_status != _ENTERED, \"ReentrancyGuard: reentrant call\") */\n      tag_156\n      jumpi\n      mload(0x40)\n      0x08c379a000000000000000000000000000000000000000000000000000000000\n      dup2\n      mstore\n      0x04\n      add\n      tag_157\n      swap1\n      tag_158\n      jump\t// in\n    tag_157:\n      mload(0x40)\n      dup1\n      swap2\n      sub\n      swap1\n      revert\n    tag_156:\n        /* \"contracts/Marketplace2/Marketplace.sol\":14165:14166  2 */\n      0x02\n        /* \"contracts/Marketplace2/Marketplace.sol\":14876:14883  _status */\n      0x00\n        /* \"contracts/Marketplace2/Marketplace.sol\":14876:14894  _status = _ENTERED */\n      dup2\n      swap1\n      sstore\n      pop\n        /* \"contracts/Marketplace2/Marketplace.sol\":18452:18462  uint price */\n      0x00\n        /* \"contracts/Marketplace2/Marketplace.sol\":18465:18479  idToMarketItem */\n      0x0f\n        /* \"contracts/Marketplace2/Marketplace.sol\":18465:18487  idToMarketItem[itemId] */\n      0x00\n        /* \"contracts/Marketplace2/Marketplace.sol\":18480:18486  itemId */\n      dup5\n        /* \"contracts/Marketplace2/Marketplace.sol\":18465:18487  idToMarketItem[itemId] */\n      dup2\n      mstore\n      0x20\n      add\n      swap1\n      dup2\n      mstore\n      0x20\n      add\n      0x00\n      keccak256\n        /* \"contracts/Marketplace2/Marketplace.sol\":18465:18493  idToMarketItem[itemId].price */\n      0x05\n      add\n      sload\n        /* \"contracts/Marketplace2/Marketplace.sol\":18452:18493  uint price = idToMarketItem[itemId].price */\n      swap1\n      pop\n        /* \"contracts/Marketplace2/Marketplace.sol\":18499:18511  uint tokenId */\n      0x00\n        /* \"contracts/Marketplace2/Marketplace.sol\":18514:18528  idToMarketItem */\n      0x0f\n        /* \"contracts/Marketplace2/Marketplace.sol\":18514:18536  idToMarketItem[itemId] */\n      0x00\n        /* \"contracts/Marketplace2/Marketplace.sol\":18529:18535  itemId */\n      dup6\n        /* \"contracts/Marketplace2/Marketplace.sol\":18514:18536  idToMarketItem[itemId] */\n      dup2\n      mstore\n      0x20\n      add\n      swap1\n      dup2\n      mstore\n      0x20\n      add\n      0x00\n      keccak256\n        /* \"contracts/Marketplace2/Marketplace.sol\":18514:18544  idToMarketItem[itemId].tokenId */\n      0x02\n      add\n      sload\n        /* \"contracts/Marketplace2/Marketplace.sol\":18499:18544  uint tokenId = idToMarketItem[itemId].tokenId */\n      swap1\n      pop\n        /* \"contracts/Marketplace2/Marketplace.sol\":18568:18573  price */\n      dup2\n        /* \"contracts/Marketplace2/Marketplace.sol\":18558:18564  amount */\n      dup4\n        /* \"contracts/Marketplace2/Marketplace.sol\":18558:18573  amount == price */\n      eq\n        /* \"contracts/Marketplace2/Marketplace.sol\":18550:18642  require(amount == price, \"Please submit the asking price in order to complete the purchase\") */\n      tag_160\n      jumpi\n      mload(0x40)\n      0x08c379a000000000000000000000000000000000000000000000000000000000\n      dup2\n      mstore\n      0x04\n      add\n      tag_161\n      swap1\n      tag_162\n      jump\t// in\n    tag_161:\n      mload(0x40)\n      dup1\n      swap2\n      sub\n      swap1\n      revert\n    tag_160:\n        /* \"contracts/Marketplace2/Marketplace.sol\":18707:18715  sqfToken */\n      0x0a\n      0x00\n      swap1\n      sload\n      swap1\n      0x0100\n      exp\n      swap1\n      div\n      0xffffffffffffffffffffffffffffffffffffffff\n      and\n        /* \"contracts/Marketplace2/Marketplace.sol\":18707:18728  sqfToken.transferFrom */\n      0xffffffffffffffffffffffffffffffffffffffff\n      and\n      0x23b872dd\n        /* \"contracts/Marketplace2/Marketplace.sol\":18729:18739  msg.sender */\n      caller\n        /* \"contracts/Marketplace2/Marketplace.sol\":18741:18755  idToMarketItem */\n      0x0f\n        /* \"contracts/Marketplace2/Marketplace.sol\":18741:18763  idToMarketItem[itemId] */\n      0x00\n        /* \"contracts/Marketplace2/Marketplace.sol\":18756:18762  itemId */\n      dup9\n        /* \"contracts/Marketplace2/Marketplace.sol\":18741:18763  idToMarketItem[itemId] */\n      dup2\n      mstore\n      0x20\n      add\n      swap1\n      dup2\n      mstore\n      0x20\n      add\n      0x00\n      keccak256\n        /* \"contracts/Marketplace2/Marketplace.sol\":18741:18770  idToMarketItem[itemId].seller */\n      0x03\n      add\n      0x00\n      swap1\n      sload\n      swap1\n      0x0100\n      exp\n      swap1\n      div\n      0xffffffffffffffffffffffffffffffffffffffff\n      and\n        /* \"contracts/Marketplace2/Marketplace.sol\":18773:18779  amount */\n      dup7\n        /* \"contracts/Marketplace2/Marketplace.sol\":18707:18780  sqfToken.transferFrom(msg.sender, idToMarketItem[itemId].seller , amount) */\n      mload(0x40)\n      dup5\n      0xffffffff\n      and\n      0xe0\n      shl\n      dup2\n      mstore\n      0x04\n      add\n      tag_163\n      swap4\n      swap3\n      swap2\n      swap1\n      tag_164\n      jump\t// in\n    tag_163:\n      0x20\n      mload(0x40)\n      dup1\n      dup4\n      sub\n      dup2\n      0x00\n      dup8\n      gas\n      call\n      iszero\n      dup1\n      iszero\n      tag_166\n      jumpi\n      returndatasize\n      0x00\n      dup1\n      returndatacopy\n      revert(0x00, returndatasize)\n    tag_166:\n      pop\n      pop\n      pop\n      pop\n      mload(0x40)\n      returndatasize\n      not(0x1f)\n      0x1f\n      dup3\n      add\n      and\n      dup3\n      add\n      dup1\n      0x40\n      mstore\n      pop\n      dup2\n      add\n      swap1\n      tag_167\n      swap2\n      swap1\n      tag_168\n      jump\t// in\n    tag_167:\n      pop\n        /* \"contracts/Marketplace2/Marketplace.sol\":18794:18805  nftContract */\n      dup5\n        /* \"contracts/Marketplace2/Marketplace.sol\":18786:18819  IERC721(nftContract).transferFrom */\n      0xffffffffffffffffffffffffffffffffffffffff\n      and\n      0x23b872dd\n        /* \"contracts/Marketplace2/Marketplace.sol\":18828:18832  this */\n      address\n        /* \"contracts/Marketplace2/Marketplace.sol\":18835:18845  msg.sender */\n      caller\n        /* \"contracts/Marketplace2/Marketplace.sol\":18847:18854  tokenId */\n      dup5\n        /* \"contracts/Marketplace2/Marketplace.sol\":18786:18855  IERC721(nftContract).transferFrom(address(this), msg.sender, tokenId) */\n      mload(0x40)\n      dup5\n      0xffffffff\n      and\n      0xe0\n      shl\n      dup2\n      mstore\n      0x04\n      add\n      tag_169\n      swap4\n      swap3\n      swap2\n      swap1\n      tag_170\n      jump\t// in\n    tag_169:\n      0x00\n      mload(0x40)\n      dup1\n      dup4\n      sub\n      dup2\n      0x00\n      dup8\n      dup1\n      extcodesize\n      iszero\n      dup1\n      iszero\n      tag_171\n      jumpi\n      0x00\n      dup1\n      revert\n    tag_171:\n      pop\n      gas\n      call\n      iszero\n      dup1\n      iszero\n      tag_173\n      jumpi\n      returndatasize\n      0x00\n      dup1\n      returndatacopy\n      revert(0x00, returndatasize)\n    tag_173:\n      pop\n      pop\n      pop\n      pop\n        /* \"contracts/Marketplace2/Marketplace.sol\":18900:18910  msg.sender */\n      caller\n        /* \"contracts/Marketplace2/Marketplace.sol\":18861:18875  idToMarketItem */\n      0x0f\n        /* \"contracts/Marketplace2/Marketplace.sol\":18861:18883  idToMarketItem[itemId] */\n      0x00\n        /* \"contracts/Marketplace2/Marketplace.sol\":18876:18882  itemId */\n      dup7\n        /* \"contracts/Marketplace2/Marketplace.sol\":18861:18883  idToMarketItem[itemId] */\n      dup2\n      mstore\n      0x20\n      add\n      swap1\n      dup2\n      mstore\n      0x20\n      add\n      0x00\n      keccak256\n        /* \"contracts/Marketplace2/Marketplace.sol\":18861:18889  idToMarketItem[itemId].owner */\n      0x04\n      add\n      0x00\n        /* \"contracts/Marketplace2/Marketplace.sol\":18861:18911  idToMarketItem[itemId].owner = payable(msg.sender) */\n      0x0100\n      exp\n      dup2\n      sload\n      dup2\n      0xffffffffffffffffffffffffffffffffffffffff\n      mul\n      not\n      and\n      swap1\n      dup4\n      0xffffffffffffffffffffffffffffffffffffffff\n      and\n      mul\n      or\n      swap1\n      sstore\n      pop\n        /* \"contracts/Marketplace2/Marketplace.sol\":18949:18966  ItemStatus.MINTED */\n      0x00\n        /* \"contracts/Marketplace2/Marketplace.sol\":18917:18931  idToMarketItem */\n      0x0f\n        /* \"contracts/Marketplace2/Marketplace.sol\":18917:18939  idToMarketItem[itemId] */\n      0x00\n        /* \"contracts/Marketplace2/Marketplace.sol\":18932:18938  itemId */\n      dup7\n        /* \"contracts/Marketplace2/Marketplace.sol\":18917:18939  idToMarketItem[itemId] */\n      dup2\n      mstore\n      0x20\n      add\n      swap1\n      dup2\n      mstore\n      0x20\n      add\n      0x00\n      keccak256\n        /* \"contracts/Marketplace2/Marketplace.sol\":18917:18946  idToMarketItem[itemId].status */\n      0x06\n      add\n      0x00\n        /* \"contracts/Marketplace2/Marketplace.sol\":18917:18966  idToMarketItem[itemId].status = ItemStatus.MINTED */\n      0x0100\n      exp\n      dup2\n      sload\n      dup2\n      0xff\n      mul\n      not\n      and\n      swap1\n      dup4\n      0x01\n      dup2\n      gt\n      iszero\n      tag_174\n      jumpi\n      tag_175\n      tag_119\n      jump\t// in\n    tag_175:\n    tag_174:\n      mul\n      or\n      swap1\n      sstore\n      pop\n        /* \"contracts/Marketplace2/Marketplace.sol\":18973:18995  _itemsSold.increment() */\n      tag_176\n        /* \"contracts/Marketplace2/Marketplace.sol\":18973:18983  _itemsSold */\n      0x0e\n        /* \"contracts/Marketplace2/Marketplace.sol\":18973:18993  _itemsSold.increment */\n      tag_177\n        /* \"contracts/Marketplace2/Marketplace.sol\":18973:18995  _itemsSold.increment() */\n      jump\t// in\n    tag_176:\n        /* \"contracts/Marketplace2/Marketplace.sol\":18446:19000  {... */\n      pop\n      pop\n        /* \"contracts/Marketplace2/Marketplace.sol\":14122:14123  1 */\n      0x01\n        /* \"contracts/Marketplace2/Marketplace.sol\":15049:15056  _status */\n      0x00\n        /* \"contracts/Marketplace2/Marketplace.sol\":15049:15071  _status = _NOT_ENTERED */\n      dup2\n      swap1\n      sstore\n      pop\n        /* \"contracts/Marketplace2/Marketplace.sol\":18329:19000  function createMarketSale(... */\n      pop\n      pop\n      pop\n      jump\t// out\n        /* \"contracts/Marketplace2/Marketplace.sol\":19004:19157  function fetchMarketItem(uint itemId) public view returns (MarketItem memory) {... */\n    tag_48:\n        /* \"contracts/Marketplace2/Marketplace.sol\":19063:19080  MarketItem memory */\n      tag_178\n      tag_115\n      jump\t// in\n    tag_178:\n        /* \"contracts/Marketplace2/Marketplace.sol\":19088:19110  MarketItem memory item */\n      0x00\n        /* \"contracts/Marketplace2/Marketplace.sol\":19113:19127  idToMarketItem */\n      0x0f\n        /* \"contracts/Marketplace2/Marketplace.sol\":19113:19135  idToMarketItem[itemId] */\n      0x00\n        /* \"contracts/Marketplace2/Marketplace.sol\":19128:19134  itemId */\n      dup5\n        /* \"contracts/Marketplace2/Marketplace.sol\":19113:19135  idToMarketItem[itemId] */\n      dup2\n      mstore\n      0x20\n      add\n      swap1\n      dup2\n      mstore\n      0x20\n      add\n      0x00\n      keccak256\n        /* \"contracts/Marketplace2/Marketplace.sol\":19088:19135  MarketItem memory item = idToMarketItem[itemId] */\n      mload(0x40)\n      dup1\n      0xe0\n      add\n      0x40\n      mstore\n      swap1\n      dup2\n      0x00\n      dup3\n      add\n      sload\n      dup2\n      mstore\n      0x20\n      add\n      0x01\n      dup3\n      add\n      0x00\n      swap1\n      sload\n      swap1\n      0x0100\n      exp\n      swap1\n      div\n      0xffffffffffffffffffffffffffffffffffffffff\n      and\n      0xffffffffffffffffffffffffffffffffffffffff\n      and\n      0xffffffffffffffffffffffffffffffffffffffff\n      and\n      dup2\n      mstore\n      0x20\n      add\n      0x02\n      dup3\n      add\n      sload\n      dup2\n      mstore\n      0x20\n      add\n      0x03\n      dup3\n      add\n      0x00\n      swap1\n      sload\n      swap1\n      0x0100\n      exp\n      swap1\n      div\n      0xffffffffffffffffffffffffffffffffffffffff\n      and\n      0xffffffffffffffffffffffffffffffffffffffff\n      and\n      0xffffffffffffffffffffffffffffffffffffffff\n      and\n      dup2\n      mstore\n      0x20\n      add\n      0x04\n      dup3\n      add\n      0x00\n      swap1\n      sload\n      swap1\n      0x0100\n      exp\n      swap1\n      div\n      0xffffffffffffffffffffffffffffffffffffffff\n      and\n      0xffffffffffffffffffffffffffffffffffffffff\n      and\n      0xffffffffffffffffffffffffffffffffffffffff\n      and\n      dup2\n      mstore\n      0x20\n      add\n      0x05\n      dup3\n      add\n      sload\n      dup2\n      mstore\n      0x20\n      add\n      0x06\n      dup3\n      add\n      0x00\n      swap1\n      sload\n      swap1\n      0x0100\n      exp\n      swap1\n      div\n      0xff\n      and\n      0x01\n      dup2\n      gt\n      iszero\n      tag_180\n      jumpi\n      tag_181\n      tag_119\n      jump\t// in\n    tag_181:\n    tag_180:\n      0x01\n      dup2\n      gt\n      iszero\n      tag_182\n      jumpi\n      tag_183\n      tag_119\n      jump\t// in\n    tag_183:\n    tag_182:\n      dup2\n      mstore\n      pop\n      pop\n      swap1\n      pop\n        /* \"contracts/Marketplace2/Marketplace.sol\":19148:19152  item */\n      dup1\n        /* \"contracts/Marketplace2/Marketplace.sol\":19141:19152  return item */\n      swap2\n      pop\n      pop\n        /* \"contracts/Marketplace2/Marketplace.sol\":19004:19157  function fetchMarketItem(uint itemId) public view returns (MarketItem memory) {... */\n      swap2\n      swap1\n      pop\n      jump\t// out\n        /* \"contracts/Marketplace2/Marketplace.sol\":15861:15921  bytes4 public constant ERC721_Interface = bytes4(0x80ac58cd) */\n    tag_52:\n        /* \"contracts/Marketplace2/Marketplace.sol\":15910:15920  0x80ac58cd */\n      0x80ac58cd\n        /* \"contracts/Marketplace2/Marketplace.sol\":15903:15921  bytes4(0x80ac58cd) */\n      0xe0\n      shl\n        /* \"contracts/Marketplace2/Marketplace.sol\":15861:15921  bytes4 public constant ERC721_Interface = bytes4(0x80ac58cd) */\n      dup2\n      jump\t// out\n        /* \"contracts/Marketplace2/Marketplace.sol\":15822:15854  MarketItem public allMarketItems */\n    tag_57:\n      0x01\n      dup1\n      0x00\n      add\n      sload\n      swap1\n      dup1\n      0x01\n      add\n      0x00\n      swap1\n      sload\n      swap1\n      0x0100\n      exp\n      swap1\n      div\n      0xffffffffffffffffffffffffffffffffffffffff\n      and\n      swap1\n      dup1\n      0x02\n      add\n      sload\n      swap1\n      dup1\n      0x03\n      add\n      0x00\n      swap1\n      sload\n      swap1\n      0x0100\n      exp\n      swap1\n      div\n      0xffffffffffffffffffffffffffffffffffffffff\n      and\n      swap1\n      dup1\n      0x04\n      add\n      0x00\n      swap1\n      sload\n      swap1\n      0x0100\n      exp\n      swap1\n      div\n      0xffffffffffffffffffffffffffffffffffffffff\n      and\n      swap1\n      dup1\n      0x05\n      add\n      sload\n      swap1\n      dup1\n      0x06\n      add\n      0x00\n      swap1\n      sload\n      swap1\n      0x0100\n      exp\n      swap1\n      div\n      0xff\n      and\n      swap1\n      pop\n      dup8\n      jump\t// out\n        /* \"contracts/Marketplace2/Marketplace.sol\":17674:18325  function createMarketItem(... */\n    tag_62:\n        /* \"contracts/Marketplace2/Marketplace.sol\":14165:14166  2 */\n      0x02\n        /* \"contracts/Marketplace2/Marketplace.sol\":14746:14753  _status */\n      sload(0x00)\n        /* \"contracts/Marketplace2/Marketplace.sol\":14746:14765  _status != _ENTERED */\n      sub\n        /* \"contracts/Marketplace2/Marketplace.sol\":14738:14801  require(_status != _ENTERED, \"ReentrancyGuard: reentrant call\") */\n      tag_185\n      jumpi\n      mload(0x40)\n      0x08c379a000000000000000000000000000000000000000000000000000000000\n      dup2\n      mstore\n      0x04\n      add\n      tag_186\n      swap1\n      tag_158\n      jump\t// in\n    tag_186:\n      mload(0x40)\n      dup1\n      swap2\n      sub\n      swap1\n      revert\n    tag_185:\n        /* \"contracts/Marketplace2/Marketplace.sol\":14165:14166  2 */\n      0x02\n        /* \"contracts/Marketplace2/Marketplace.sol\":14876:14883  _status */\n      0x00\n        /* \"contracts/Marketplace2/Marketplace.sol\":14876:14894  _status = _ENTERED */\n      dup2\n      swap1\n      sstore\n      pop\n        /* \"contracts/Marketplace2/Marketplace.sol\":17819:17820  0 */\n      0x00\n        /* \"contracts/Marketplace2/Marketplace.sol\":17811:17816  price */\n      dup2\n        /* \"contracts/Marketplace2/Marketplace.sol\":17811:17820  price > 0 */\n      gt\n        /* \"contracts/Marketplace2/Marketplace.sol\":17803:17853  require(price > 0, \"Price must be at least 1 wei\") */\n      tag_188\n      jumpi\n      mload(0x40)\n      0x08c379a000000000000000000000000000000000000000000000000000000000\n      dup2\n      mstore\n      0x04\n      add\n      tag_189\n      swap1\n      tag_190\n      jump\t// in\n    tag_189:\n      mload(0x40)\n      dup1\n      swap2\n      sub\n      swap1\n      revert\n    tag_188:\n        /* \"contracts/Marketplace2/Marketplace.sol\":17860:17880  _itemIds.increment() */\n      tag_191\n        /* \"contracts/Marketplace2/Marketplace.sol\":17860:17868  _itemIds */\n      0x0d\n        /* \"contracts/Marketplace2/Marketplace.sol\":17860:17878  _itemIds.increment */\n      tag_177\n        /* \"contracts/Marketplace2/Marketplace.sol\":17860:17880  _itemIds.increment() */\n      jump\t// in\n    tag_191:\n        /* \"contracts/Marketplace2/Marketplace.sol\":17886:17900  uint256 itemId */\n      0x00\n        /* \"contracts/Marketplace2/Marketplace.sol\":17903:17921  _itemIds.current() */\n      tag_192\n        /* \"contracts/Marketplace2/Marketplace.sol\":17903:17911  _itemIds */\n      0x0d\n        /* \"contracts/Marketplace2/Marketplace.sol\":17903:17919  _itemIds.current */\n      tag_124\n        /* \"contracts/Marketplace2/Marketplace.sol\":17903:17921  _itemIds.current() */\n      jump\t// in\n    tag_192:\n        /* \"contracts/Marketplace2/Marketplace.sol\":17886:17921  uint256 itemId = _itemIds.current() */\n      swap1\n      pop\n        /* \"contracts/Marketplace2/Marketplace.sol\":17958:18112  MarketItem(... */\n      mload(0x40)\n      dup1\n      0xe0\n      add\n      0x40\n      mstore\n      dup1\n        /* \"contracts/Marketplace2/Marketplace.sol\":17976:17982  itemId */\n      dup3\n        /* \"contracts/Marketplace2/Marketplace.sol\":17958:18112  MarketItem(... */\n      dup2\n      mstore\n      0x20\n      add\n        /* \"contracts/Marketplace2/Marketplace.sol\":17990:18001  nftContract */\n      dup6\n        /* \"contracts/Marketplace2/Marketplace.sol\":17958:18112  MarketItem(... */\n      0xffffffffffffffffffffffffffffffffffffffff\n      and\n      dup2\n      mstore\n      0x20\n      add\n        /* \"contracts/Marketplace2/Marketplace.sol\":18009:18016  tokenId */\n      dup5\n        /* \"contracts/Marketplace2/Marketplace.sol\":17958:18112  MarketItem(... */\n      dup2\n      mstore\n      0x20\n      add\n        /* \"contracts/Marketplace2/Marketplace.sol\":18032:18042  msg.sender */\n      caller\n        /* \"contracts/Marketplace2/Marketplace.sol\":17958:18112  MarketItem(... */\n      0xffffffffffffffffffffffffffffffffffffffff\n      and\n      dup2\n      mstore\n      0x20\n      add\n        /* \"contracts/Marketplace2/Marketplace.sol\":18067:18068  0 */\n      0x00\n        /* \"contracts/Marketplace2/Marketplace.sol\":17958:18112  MarketItem(... */\n      0xffffffffffffffffffffffffffffffffffffffff\n      and\n      dup2\n      mstore\n      0x20\n      add\n        /* \"contracts/Marketplace2/Marketplace.sol\":18078:18083  price */\n      dup4\n        /* \"contracts/Marketplace2/Marketplace.sol\":17958:18112  MarketItem(... */\n      dup2\n      mstore\n      0x20\n      add\n        /* \"contracts/Marketplace2/Marketplace.sol\":18091:18106  ItemStatus.LIST */\n      0x01\n        /* \"contracts/Marketplace2/Marketplace.sol\":17958:18112  MarketItem(... */\n      dup1\n      dup2\n      gt\n      iszero\n      tag_193\n      jumpi\n      tag_194\n      tag_119\n      jump\t// in\n    tag_194:\n    tag_193:\n      dup2\n      mstore\n      pop\n        /* \"contracts/Marketplace2/Marketplace.sol\":17932:17946  idToMarketItem */\n      0x0f\n        /* \"contracts/Marketplace2/Marketplace.sol\":17932:17954  idToMarketItem[itemId] */\n      0x00\n        /* \"contracts/Marketplace2/Marketplace.sol\":17947:17953  itemId */\n      dup4\n        /* \"contracts/Marketplace2/Marketplace.sol\":17932:17954  idToMarketItem[itemId] */\n      dup2\n      mstore\n      0x20\n      add\n      swap1\n      dup2\n      mstore\n      0x20\n      add\n      0x00\n      keccak256\n        /* \"contracts/Marketplace2/Marketplace.sol\":17932:18112  idToMarketItem[itemId] =  MarketItem(... */\n      0x00\n      dup3\n      add\n      mload\n      dup2\n      0x00\n      add\n      sstore\n      0x20\n      dup3\n      add\n      mload\n      dup2\n      0x01\n      add\n      exp(0x0100, 0x00)\n      dup2\n      sload\n      dup2\n      0xffffffffffffffffffffffffffffffffffffffff\n      mul\n      not\n      and\n      swap1\n      dup4\n      0xffffffffffffffffffffffffffffffffffffffff\n      and\n      mul\n      or\n      swap1\n      sstore\n      pop\n      0x40\n      dup3\n      add\n      mload\n      dup2\n      0x02\n      add\n      sstore\n      0x60\n      dup3\n      add\n      mload\n      dup2\n      0x03\n      add\n      exp(0x0100, 0x00)\n      dup2\n      sload\n      dup2\n      0xffffffffffffffffffffffffffffffffffffffff\n      mul\n      not\n      and\n      swap1\n      dup4\n      0xffffffffffffffffffffffffffffffffffffffff\n      and\n      mul\n      or\n      swap1\n      sstore\n      pop\n      0x80\n      dup3\n      add\n      mload\n      dup2\n      0x04\n      add\n      exp(0x0100, 0x00)\n      dup2\n      sload\n      dup2\n      0xffffffffffffffffffffffffffffffffffffffff\n      mul\n      not\n      and\n      swap1\n      dup4\n      0xffffffffffffffffffffffffffffffffffffffff\n      and\n      mul\n      or\n      swap1\n      sstore\n      pop\n      0xa0\n      dup3\n      add\n      mload\n      dup2\n      0x05\n      add\n      sstore\n      0xc0\n      dup3\n      add\n      mload\n      dup2\n      0x06\n      add\n      exp(0x0100, 0x00)\n      dup2\n      sload\n      dup2\n      0xff\n      mul\n      not\n      and\n      swap1\n      dup4\n      0x01\n      dup2\n      gt\n      iszero\n      tag_195\n      jumpi\n      tag_196\n      tag_119\n      jump\t// in\n    tag_196:\n    tag_195:\n      mul\n      or\n      swap1\n      sstore\n      pop\n      swap1\n      pop\n      pop\n        /* \"contracts/Marketplace2/Marketplace.sol\":18127:18138  nftContract */\n      dup4\n        /* \"contracts/Marketplace2/Marketplace.sol\":18119:18152  IERC721(nftContract).transferFrom */\n      0xffffffffffffffffffffffffffffffffffffffff\n      and\n      0x23b872dd\n        /* \"contracts/Marketplace2/Marketplace.sol\":18153:18163  msg.sender */\n      caller\n        /* \"contracts/Marketplace2/Marketplace.sol\":18173:18177  this */\n      address\n        /* \"contracts/Marketplace2/Marketplace.sol\":18180:18187  tokenId */\n      dup7\n        /* \"contracts/Marketplace2/Marketplace.sol\":18119:18188  IERC721(nftContract).transferFrom(msg.sender, address(this), tokenId) */\n      mload(0x40)\n      dup5\n      0xffffffff\n      and\n      0xe0\n      shl\n      dup2\n      mstore\n      0x04\n      add\n      tag_197\n      swap4\n      swap3\n      swap2\n      swap1\n      tag_170\n      jump\t// in\n    tag_197:\n      0x00\n      mload(0x40)\n      dup1\n      dup4\n      sub\n      dup2\n      0x00\n      dup8\n      dup1\n      extcodesize\n      iszero\n      dup1\n      iszero\n      tag_198\n      jumpi\n      0x00\n      dup1\n      revert\n    tag_198:\n      pop\n      gas\n      call\n      iszero\n      dup1\n      iszero\n      tag_200\n      jumpi\n      returndatasize\n      0x00\n      dup1\n      returndatacopy\n      revert(0x00, returndatasize)\n    tag_200:\n      pop\n      pop\n      pop\n      pop\n        /* \"contracts/Marketplace2/Marketplace.sol\":18258:18265  tokenId */\n      dup3\n        /* \"contracts/Marketplace2/Marketplace.sol\":18239:18250  nftContract */\n      dup5\n        /* \"contracts/Marketplace2/Marketplace.sol\":18200:18320  MarketItemCreated(... */\n      0xffffffffffffffffffffffffffffffffffffffff\n      and\n        /* \"contracts/Marketplace2/Marketplace.sol\":18225:18231  itemId */\n      dup3\n        /* \"contracts/Marketplace2/Marketplace.sol\":18200:18320  MarketItemCreated(... */\n      0x2ad024d53a0dc50c130967f8d4941927ee087ea31394cebb2b9599d3706c9c00\n        /* \"contracts/Marketplace2/Marketplace.sol\":18273:18283  msg.sender */\n      caller\n        /* \"contracts/Marketplace2/Marketplace.sol\":18299:18300  0 */\n      0x00\n        /* \"contracts/Marketplace2/Marketplace.sol\":18309:18314  price */\n      dup8\n        /* \"contracts/Marketplace2/Marketplace.sol\":18200:18320  MarketItemCreated(... */\n      mload(0x40)\n      tag_201\n      swap4\n      swap3\n      swap2\n      swap1\n      tag_170\n      jump\t// in\n    tag_201:\n      mload(0x40)\n      dup1\n      swap2\n      sub\n      swap1\n      log4\n        /* \"contracts/Marketplace2/Marketplace.sol\":17797:18325  {... */\n      pop\n        /* \"contracts/Marketplace2/Marketplace.sol\":14122:14123  1 */\n      0x01\n        /* \"contracts/Marketplace2/Marketplace.sol\":15049:15056  _status */\n      0x00\n        /* \"contracts/Marketplace2/Marketplace.sol\":15049:15071  _status = _NOT_ENTERED */\n      dup2\n      swap1\n      sstore\n      pop\n        /* \"contracts/Marketplace2/Marketplace.sol\":17674:18325  function createMarketItem(... */\n      pop\n      pop\n      pop\n      jump\t// out\n        /* \"contracts/Marketplace2/Marketplace.sol\":16052:16115  mapping(address => mapping(uint256 => MarketItem)) public items */\n    tag_67:\n      mstore(0x20, 0x09)\n      dup2\n      0x00\n      mstore\n      mstore(0x20, keccak256(0x00, 0x40))\n      dup1\n      0x00\n      mstore\n      keccak256(0x00, 0x40)\n      0x00\n      swap2\n      pop\n      swap2\n      pop\n      pop\n      dup1\n      0x00\n      add\n      sload\n      swap1\n      dup1\n      0x01\n      add\n      0x00\n      swap1\n      sload\n      swap1\n      0x0100\n      exp\n      swap1\n      div\n      0xffffffffffffffffffffffffffffffffffffffff\n      and\n      swap1\n      dup1\n      0x02\n      add\n      sload\n      swap1\n      dup1\n      0x03\n      add\n      0x00\n      swap1\n      sload\n      swap1\n      0x0100\n      exp\n      swap1\n      div\n      0xffffffffffffffffffffffffffffffffffffffff\n      and\n      swap1\n      dup1\n      0x04\n      add\n      0x00\n      swap1\n      sload\n      swap1\n      0x0100\n      exp\n      swap1\n      div\n      0xffffffffffffffffffffffffffffffffffffffff\n      and\n      swap1\n      dup1\n      0x05\n      add\n      sload\n      swap1\n      dup1\n      0x06\n      add\n      0x00\n      swap1\n      sload\n      swap1\n      0x0100\n      exp\n      swap1\n      div\n      0xff\n      and\n      swap1\n      pop\n      dup8\n      jump\t// out\n        /* \"contracts/Marketplace2/Marketplace.sol\":2308:2409  function renounceOwnership() public virtual onlyOwner {... */\n    tag_71:\n        /* \"contracts/Marketplace2/Marketplace.sol\":1899:1911  _msgSender() */\n      tag_203\n        /* \"contracts/Marketplace2/Marketplace.sol\":1899:1909  _msgSender */\n      tag_204\n        /* \"contracts/Marketplace2/Marketplace.sol\":1899:1911  _msgSender() */\n      jump\t// in\n    tag_203:\n        /* \"contracts/Marketplace2/Marketplace.sol\":1888:1911  owner() == _msgSender() */\n      0xffffffffffffffffffffffffffffffffffffffff\n      and\n        /* \"contracts/Marketplace2/Marketplace.sol\":1888:1895  owner() */\n      tag_205\n        /* \"contracts/Marketplace2/Marketplace.sol\":1888:1893  owner */\n      tag_79\n        /* \"contracts/Marketplace2/Marketplace.sol\":1888:1895  owner() */\n      jump\t// in\n    tag_205:\n        /* \"contracts/Marketplace2/Marketplace.sol\":1888:1911  owner() == _msgSender() */\n      0xffffffffffffffffffffffffffffffffffffffff\n      and\n      eq\n        /* \"contracts/Marketplace2/Marketplace.sol\":1880:1948  require(owner() == _msgSender(), \"Ownable: caller is not the owner\") */\n      tag_206\n      jumpi\n      mload(0x40)\n      0x08c379a000000000000000000000000000000000000000000000000000000000\n      dup2\n      mstore\n      0x04\n      add\n      tag_207\n      swap1\n      tag_208\n      jump\t// in\n    tag_207:\n      mload(0x40)\n      dup1\n      swap2\n      sub\n      swap1\n      revert\n    tag_206:\n        /* \"contracts/Marketplace2/Marketplace.sol\":2372:2402  _transferOwnership(address(0)) */\n      tag_210\n        /* \"contracts/Marketplace2/Marketplace.sol\":2399:2400  0 */\n      0x00\n        /* \"contracts/Marketplace2/Marketplace.sol\":2372:2390  _transferOwnership */\n      tag_211\n        /* \"contracts/Marketplace2/Marketplace.sol\":2372:2402  _transferOwnership(address(0)) */\n      jump\t// in\n    tag_210:\n        /* \"contracts/Marketplace2/Marketplace.sol\":2308:2409  function renounceOwnership() public virtual onlyOwner {... */\n      jump\t// out\n        /* \"contracts/Marketplace2/Marketplace.sol\":16180:16206  uint8 public bnbFeePercent */\n    tag_74:\n      0x0b\n      0x14\n      swap1\n      sload\n      swap1\n      0x0100\n      exp\n      swap1\n      div\n      0xff\n      and\n      dup2\n      jump\t// out\n        /* \"contracts/Marketplace2/Marketplace.sol\":1676:1761  function owner() public view virtual returns (address) {... */\n    tag_79:\n        /* \"contracts/Marketplace2/Marketplace.sol\":1722:1729  address */\n      0x00\n        /* \"contracts/Marketplace2/Marketplace.sol\":1748:1754  _owner */\n      0x0c\n      0x00\n      swap1\n      sload\n      swap1\n      0x0100\n      exp\n      swap1\n      div\n      0xffffffffffffffffffffffffffffffffffffffff\n      and\n        /* \"contracts/Marketplace2/Marketplace.sol\":1741:1754  return _owner */\n      swap1\n      pop\n        /* \"contracts/Marketplace2/Marketplace.sol\":1676:1761  function owner() public view virtual returns (address) {... */\n      swap1\n      jump\t// out\n        /* \"contracts/Marketplace2/Marketplace.sol\":17572:17670  function setSQFToken(address _address) external onlyOwner {... */\n    tag_86:\n        /* \"contracts/Marketplace2/Marketplace.sol\":1899:1911  _msgSender() */\n      tag_214\n        /* \"contracts/Marketplace2/Marketplace.sol\":1899:1909  _msgSender */\n      tag_204\n        /* \"contracts/Marketplace2/Marketplace.sol\":1899:1911  _msgSender() */\n      jump\t// in\n    tag_214:\n        /* \"contracts/Marketplace2/Marketplace.sol\":1888:1911  owner() == _msgSender() */\n      0xffffffffffffffffffffffffffffffffffffffff\n      and\n        /* \"contracts/Marketplace2/Marketplace.sol\":1888:1895  owner() */\n      tag_215\n        /* \"contracts/Marketplace2/Marketplace.sol\":1888:1893  owner */\n      tag_79\n        /* \"contracts/Marketplace2/Marketplace.sol\":1888:1895  owner() */\n      jump\t// in\n    tag_215:\n        /* \"contracts/Marketplace2/Marketplace.sol\":1888:1911  owner() == _msgSender() */\n      0xffffffffffffffffffffffffffffffffffffffff\n      and\n      eq\n        /* \"contracts/Marketplace2/Marketplace.sol\":1880:1948  require(owner() == _msgSender(), \"Ownable: caller is not the owner\") */\n      tag_216\n      jumpi\n      mload(0x40)\n      0x08c379a000000000000000000000000000000000000000000000000000000000\n      dup2\n      mstore\n      0x04\n      add\n      tag_217\n      swap1\n      tag_208\n      jump\t// in\n    tag_217:\n      mload(0x40)\n      dup1\n      swap2\n      sub\n      swap1\n      revert\n    tag_216:\n        /* \"contracts/Marketplace2/Marketplace.sol\":17658:17666  _address */\n      dup1\n        /* \"contracts/Marketplace2/Marketplace.sol\":17640:17648  sqfToken */\n      0x0a\n      0x00\n        /* \"contracts/Marketplace2/Marketplace.sol\":17640:17667  sqfToken = IERC20(_address) */\n      0x0100\n      exp\n      dup2\n      sload\n      dup2\n      0xffffffffffffffffffffffffffffffffffffffff\n      mul\n      not\n      and\n      swap1\n      dup4\n      0xffffffffffffffffffffffffffffffffffffffff\n      and\n      mul\n      or\n      swap1\n      sstore\n      pop\n        /* \"contracts/Marketplace2/Marketplace.sol\":17572:17670  function setSQFToken(address _address) external onlyOwner {... */\n      pop\n      jump\t// out\n        /* \"contracts/Marketplace2/Marketplace.sol\":19972:20864  function delistItem(address nftAddress, uint256 itemId) public {... */\n    tag_90:\n        /* \"contracts/Marketplace2/Marketplace.sol\":20045:20071  _requireERC721(nftAddress) */\n      tag_220\n        /* \"contracts/Marketplace2/Marketplace.sol\":20060:20070  nftAddress */\n      dup3\n        /* \"contracts/Marketplace2/Marketplace.sol\":20045:20059  _requireERC721 */\n      tag_221\n        /* \"contracts/Marketplace2/Marketplace.sol\":20045:20071  _requireERC721(nftAddress) */\n      jump\t// in\n    tag_220:\n        /* \"contracts/Marketplace2/Marketplace.sol\":20082:20098  address deleteBy */\n      0x00\n        /* \"contracts/Marketplace2/Marketplace.sol\":20101:20111  msg.sender */\n      caller\n        /* \"contracts/Marketplace2/Marketplace.sol\":20082:20111  address deleteBy = msg.sender */\n      swap1\n      pop\n        /* \"contracts/Marketplace2/Marketplace.sol\":20121:20143  MarketItem memory item */\n      0x00\n        /* \"contracts/Marketplace2/Marketplace.sol\":20146:20160  idToMarketItem */\n      0x0f\n        /* \"contracts/Marketplace2/Marketplace.sol\":20146:20168  idToMarketItem[itemId] */\n      0x00\n        /* \"contracts/Marketplace2/Marketplace.sol\":20161:20167  itemId */\n      dup5\n        /* \"contracts/Marketplace2/Marketplace.sol\":20146:20168  idToMarketItem[itemId] */\n      dup2\n      mstore\n      0x20\n      add\n      swap1\n      dup2\n      mstore\n      0x20\n      add\n      0x00\n      keccak256\n        /* \"contracts/Marketplace2/Marketplace.sol\":20121:20168  MarketItem memory item = idToMarketItem[itemId] */\n      mload(0x40)\n      dup1\n      0xe0\n      add\n      0x40\n      mstore\n      swap1\n      dup2\n      0x00\n      dup3\n      add\n      sload\n      dup2\n      mstore\n      0x20\n      add\n      0x01\n      dup3\n      add\n      0x00\n      swap1\n      sload\n      swap1\n      0x0100\n      exp\n      swap1\n      div\n      0xffffffffffffffffffffffffffffffffffffffff\n      and\n      0xffffffffffffffffffffffffffffffffffffffff\n      and\n      0xffffffffffffffffffffffffffffffffffffffff\n      and\n      dup2\n      mstore\n      0x20\n      add\n      0x02\n      dup3\n      add\n      sload\n      dup2\n      mstore\n      0x20\n      add\n      0x03\n      dup3\n      add\n      0x00\n      swap1\n      sload\n      swap1\n      0x0100\n      exp\n      swap1\n      div\n      0xffffffffffffffffffffffffffffffffffffffff\n      and\n      0xffffffffffffffffffffffffffffffffffffffff\n      and\n      0xffffffffffffffffffffffffffffffffffffffff\n      and\n      dup2\n      mstore\n      0x20\n      add\n      0x04\n      dup3\n      add\n      0x00\n      swap1\n      sload\n      swap1\n      0x0100\n      exp\n      swap1\n      div\n      0xffffffffffffffffffffffffffffffffffffffff\n      and\n      0xffffffffffffffffffffffffffffffffffffffff\n      and\n      0xffffffffffffffffffffffffffffffffffffffff\n      and\n      dup2\n      mstore\n      0x20\n      add\n      0x05\n      dup3\n      add\n      sload\n      dup2\n      mstore\n      0x20\n      add\n      0x06\n      dup3\n      add\n      0x00\n      swap1\n      sload\n      swap1\n      0x0100\n      exp\n      swap1\n      div\n      0xff\n      and\n      0x01\n      dup2\n      gt\n      iszero\n      tag_222\n      jumpi\n      tag_223\n      tag_119\n      jump\t// in\n    tag_223:\n    tag_222:\n      0x01\n      dup2\n      gt\n      iszero\n      tag_224\n      jumpi\n      tag_225\n      tag_119\n      jump\t// in\n    tag_225:\n    tag_224:\n      dup2\n      mstore\n      pop\n      pop\n      swap1\n      pop\n        /* \"contracts/Marketplace2/Marketplace.sol\":20202:20203  0 */\n      0x00\n        /* \"contracts/Marketplace2/Marketplace.sol\":20187:20191  item */\n      dup2\n        /* \"contracts/Marketplace2/Marketplace.sol\":20187:20198  item.itemId */\n      0x00\n      add\n      mload\n        /* \"contracts/Marketplace2/Marketplace.sol\":20187:20203  item.itemId != 0 */\n      sub\n        /* \"contracts/Marketplace2/Marketplace.sol\":20179:20227  require(item.itemId != 0, \"Asset not published\") */\n      tag_226\n      jumpi\n      mload(0x40)\n      0x08c379a000000000000000000000000000000000000000000000000000000000\n      dup2\n      mstore\n      0x04\n      add\n      tag_227\n      swap1\n      tag_228\n      jump\t// in\n    tag_227:\n      mload(0x40)\n      dup1\n      swap2\n      sub\n      swap1\n      revert\n    tag_226:\n        /* \"contracts/Marketplace2/Marketplace.sol\":20260:20277  ItemStatus.MINTED */\n      0x00\n        /* \"contracts/Marketplace2/Marketplace.sol\":20245:20277  item.status != ItemStatus.MINTED */\n      0x01\n      dup2\n      gt\n      iszero\n      tag_229\n      jumpi\n      tag_230\n      tag_119\n      jump\t// in\n    tag_230:\n    tag_229:\n        /* \"contracts/Marketplace2/Marketplace.sol\":20245:20249  item */\n      dup2\n        /* \"contracts/Marketplace2/Marketplace.sol\":20245:20256  item.status */\n      0xc0\n      add\n      mload\n        /* \"contracts/Marketplace2/Marketplace.sol\":20245:20277  item.status != ItemStatus.MINTED */\n      0x01\n      dup2\n      gt\n      iszero\n      tag_231\n      jumpi\n      tag_232\n      tag_119\n      jump\t// in\n    tag_232:\n    tag_231:\n      sub\n        /* \"contracts/Marketplace2/Marketplace.sol\":20237:20296  require(item.status != ItemStatus.MINTED, \"Asset delisted\") */\n      tag_233\n      jumpi\n      mload(0x40)\n      0x08c379a000000000000000000000000000000000000000000000000000000000\n      dup2\n      mstore\n      0x04\n      add\n      tag_234\n      swap1\n      tag_235\n      jump\t// in\n    tag_234:\n      mload(0x40)\n      dup1\n      swap2\n      sub\n      swap1\n      revert\n    tag_233:\n        /* \"contracts/Marketplace2/Marketplace.sol\":20307:20321  address seller */\n      0x00\n        /* \"contracts/Marketplace2/Marketplace.sol\":20324:20328  item */\n      dup2\n        /* \"contracts/Marketplace2/Marketplace.sol\":20324:20335  item.seller */\n      0x60\n      add\n      mload\n        /* \"contracts/Marketplace2/Marketplace.sol\":20307:20335  address seller = item.seller */\n      swap1\n      pop\n        /* \"contracts/Marketplace2/Marketplace.sol\":20371:20372  0 */\n      0x00\n        /* \"contracts/Marketplace2/Marketplace.sol\":20353:20373  seller != address(0) */\n      0xffffffffffffffffffffffffffffffffffffffff\n      and\n        /* \"contracts/Marketplace2/Marketplace.sol\":20353:20359  seller */\n      dup2\n        /* \"contracts/Marketplace2/Marketplace.sol\":20353:20373  seller != address(0) */\n      0xffffffffffffffffffffffffffffffffffffffff\n      and\n      sub\n        /* \"contracts/Marketplace2/Marketplace.sol\":20345:20393  require(seller != address(0), \"Invalid address\") */\n      tag_236\n      jumpi\n      mload(0x40)\n      0x08c379a000000000000000000000000000000000000000000000000000000000\n      dup2\n      mstore\n      0x04\n      add\n      tag_237\n      swap1\n      tag_238\n      jump\t// in\n    tag_237:\n      mload(0x40)\n      dup1\n      swap2\n      sub\n      swap1\n      revert\n    tag_236:\n        /* \"contracts/Marketplace2/Marketplace.sol\":20434:20444  msg.sender */\n      caller\n        /* \"contracts/Marketplace2/Marketplace.sol\":20424:20444  seller == msg.sender */\n      0xffffffffffffffffffffffffffffffffffffffff\n      and\n        /* \"contracts/Marketplace2/Marketplace.sol\":20424:20430  seller */\n      dup2\n        /* \"contracts/Marketplace2/Marketplace.sol\":20424:20444  seller == msg.sender */\n      0xffffffffffffffffffffffffffffffffffffffff\n      and\n      eq\n        /* \"contracts/Marketplace2/Marketplace.sol\":20403:20492  require(... */\n      tag_239\n      jumpi\n      mload(0x40)\n      0x08c379a000000000000000000000000000000000000000000000000000000000\n      dup2\n      mstore\n      0x04\n      add\n      tag_240\n      swap1\n      tag_241\n      jump\t// in\n    tag_240:\n      mload(0x40)\n      dup1\n      swap2\n      sub\n      swap1\n      revert\n    tag_239:\n        /* \"contracts/Marketplace2/Marketplace.sol\":20502:20521  IERC721 nftRegistry */\n      0x00\n        /* \"contracts/Marketplace2/Marketplace.sol\":20532:20542  nftAddress */\n      dup6\n        /* \"contracts/Marketplace2/Marketplace.sol\":20502:20543  IERC721 nftRegistry = IERC721(nftAddress) */\n      swap1\n      pop\n        /* \"contracts/Marketplace2/Marketplace.sol\":20553:20564  nftRegistry */\n      dup1\n        /* \"contracts/Marketplace2/Marketplace.sol\":20553:20581  nftRegistry.safeTransferFrom */\n      0xffffffffffffffffffffffffffffffffffffffff\n      and\n      0x42842e0e\n        /* \"contracts/Marketplace2/Marketplace.sol\":20590:20594  this */\n      address\n        /* \"contracts/Marketplace2/Marketplace.sol\":20597:20603  seller */\n      dup5\n        /* \"contracts/Marketplace2/Marketplace.sol\":20605:20611  itemId */\n      dup9\n        /* \"contracts/Marketplace2/Marketplace.sol\":20553:20612  nftRegistry.safeTransferFrom(address(this), seller, itemId) */\n      mload(0x40)\n      dup5\n      0xffffffff\n      and\n      0xe0\n      shl\n      dup2\n      mstore\n      0x04\n      add\n      tag_242\n      swap4\n      swap3\n      swap2\n      swap1\n      tag_170\n      jump\t// in\n    tag_242:\n      0x00\n      mload(0x40)\n      dup1\n      dup4\n      sub\n      dup2\n      0x00\n      dup8\n      dup1\n      extcodesize\n      iszero\n      dup1\n      iszero\n      tag_243\n      jumpi\n      0x00\n      dup1\n      revert\n    tag_243:\n      pop\n      gas\n      call\n      iszero\n      dup1\n      iszero\n      tag_245\n      jumpi\n      returndatasize\n      0x00\n      dup1\n      returndatacopy\n      revert(0x00, returndatasize)\n    tag_245:\n      pop\n      pop\n      pop\n      pop\n        /* \"contracts/Marketplace2/Marketplace.sol\":20636:20653  ItemStatus.MINTED */\n      0x00\n        /* \"contracts/Marketplace2/Marketplace.sol\":20622:20626  item */\n      dup4\n        /* \"contracts/Marketplace2/Marketplace.sol\":20622:20633  item.status */\n      0xc0\n      add\n        /* \"contracts/Marketplace2/Marketplace.sol\":20622:20653  item.status = ItemStatus.MINTED */\n      swap1\n      0x01\n      dup2\n      gt\n      iszero\n      tag_246\n      jumpi\n      tag_247\n      tag_119\n      jump\t// in\n    tag_247:\n    tag_246:\n      swap1\n      dup2\n      0x01\n      dup2\n      gt\n      iszero\n      tag_248\n      jumpi\n      tag_249\n      tag_119\n      jump\t// in\n    tag_249:\n    tag_248:\n      dup2\n      mstore\n      pop\n      pop\n        /* \"contracts/Marketplace2/Marketplace.sol\":20670:20684  idToMarketItem */\n      0x0f\n        /* \"contracts/Marketplace2/Marketplace.sol\":20670:20692  idToMarketItem[itemId] */\n      0x00\n        /* \"contracts/Marketplace2/Marketplace.sol\":20685:20691  itemId */\n      dup7\n        /* \"contracts/Marketplace2/Marketplace.sol\":20670:20692  idToMarketItem[itemId] */\n      dup2\n      mstore\n      0x20\n      add\n      swap1\n      dup2\n      mstore\n      0x20\n      add\n      0x00\n      keccak256\n      0x00\n        /* \"contracts/Marketplace2/Marketplace.sol\":20663:20692  delete idToMarketItem[itemId] */\n      dup1\n      dup3\n      add\n      0x00\n      swap1\n      sstore\n      0x01\n      dup3\n      add\n      exp(0x0100, 0x00)\n      dup2\n      sload\n      swap1\n      0xffffffffffffffffffffffffffffffffffffffff\n      mul\n      not\n      and\n      swap1\n      sstore\n      0x02\n      dup3\n      add\n      0x00\n      swap1\n      sstore\n      0x03\n      dup3\n      add\n      exp(0x0100, 0x00)\n      dup2\n      sload\n      swap1\n      0xffffffffffffffffffffffffffffffffffffffff\n      mul\n      not\n      and\n      swap1\n      sstore\n      0x04\n      dup3\n      add\n      exp(0x0100, 0x00)\n      dup2\n      sload\n      swap1\n      0xffffffffffffffffffffffffffffffffffffffff\n      mul\n      not\n      and\n      swap1\n      sstore\n      0x05\n      dup3\n      add\n      0x00\n      swap1\n      sstore\n      0x06\n      dup3\n      add\n      exp(0x0100, 0x00)\n      dup2\n      sload\n      swap1\n      0xff\n      mul\n      not\n      and\n      swap1\n      sstore\n      pop\n      pop\n        /* \"contracts/Marketplace2/Marketplace.sol\":20810:20818  deleteBy */\n      dup4\n        /* \"contracts/Marketplace2/Marketplace.sol\":20707:20857  DelistItemSuccessful(... */\n      0xffffffffffffffffffffffffffffffffffffffff\n      and\n        /* \"contracts/Marketplace2/Marketplace.sol\":20790:20796  itemId */\n      dup6\n        /* \"contracts/Marketplace2/Marketplace.sol\":20707:20857  DelistItemSuccessful(... */\n      0xc141ecc59e1a451ee7d3128743c8ca3174955ce97262896269482d5f84b39a85\n        /* \"contracts/Marketplace2/Marketplace.sol\":20741:20751  nftAddress */\n      dup9\n        /* \"contracts/Marketplace2/Marketplace.sol\":20765:20769  item */\n      dup7\n        /* \"contracts/Marketplace2/Marketplace.sol\":20765:20776  item.itemId */\n      0x00\n      add\n      mload\n        /* \"contracts/Marketplace2/Marketplace.sol\":20832:20847  block.timestamp */\n      timestamp\n        /* \"contracts/Marketplace2/Marketplace.sol\":20707:20857  DelistItemSuccessful(... */\n      mload(0x40)\n      tag_250\n      swap4\n      swap3\n      swap2\n      swap1\n      tag_251\n      jump\t// in\n    tag_250:\n      mload(0x40)\n      dup1\n      swap2\n      sub\n      swap1\n      log3\n        /* \"contracts/Marketplace2/Marketplace.sol\":20035:20864  {... */\n      pop\n      pop\n      pop\n      pop\n        /* \"contracts/Marketplace2/Marketplace.sol\":19972:20864  function delistItem(address nftAddress, uint256 itemId) public {... */\n      pop\n      pop\n      jump\t// out\n        /* \"contracts/Marketplace2/Marketplace.sol\":16212:16239  uint8 public antaFeePercent */\n    tag_93:\n      0x0b\n      0x15\n      swap1\n      sload\n      swap1\n      0x0100\n      exp\n      swap1\n      div\n      0xff\n      and\n      dup2\n      jump\t// out\n        /* \"contracts/Marketplace2/Marketplace.sol\":16150:16173  IFactory public factory */\n    tag_97:\n      0x0b\n      0x00\n      swap1\n      sload\n      swap1\n      0x0100\n      exp\n      swap1\n      div\n      0xffffffffffffffffffffffffffffffffffffffff\n      and\n      dup2\n      jump\t// out\n        /* \"contracts/Marketplace2/Marketplace.sol\":17439:17570  function getMarketItem(uint256 marketItemId) public view returns (MarketItem memory) {... */\n    tag_103:\n        /* \"contracts/Marketplace2/Marketplace.sol\":17505:17522  MarketItem memory */\n      tag_252\n      tag_115\n      jump\t// in\n    tag_252:\n        /* \"contracts/Marketplace2/Marketplace.sol\":17537:17551  idToMarketItem */\n      0x0f\n        /* \"contracts/Marketplace2/Marketplace.sol\":17537:17565  idToMarketItem[marketItemId] */\n      0x00\n        /* \"contracts/Marketplace2/Marketplace.sol\":17552:17564  marketItemId */\n      dup4\n        /* \"contracts/Marketplace2/Marketplace.sol\":17537:17565  idToMarketItem[marketItemId] */\n      dup2\n      mstore\n      0x20\n      add\n      swap1\n      dup2\n      mstore\n      0x20\n      add\n      0x00\n      keccak256\n        /* \"contracts/Marketplace2/Marketplace.sol\":17530:17565  return idToMarketItem[marketItemId] */\n      mload(0x40)\n      dup1\n      0xe0\n      add\n      0x40\n      mstore\n      swap1\n      dup2\n      0x00\n      dup3\n      add\n      sload\n      dup2\n      mstore\n      0x20\n      add\n      0x01\n      dup3\n      add\n      0x00\n      swap1\n      sload\n      swap1\n      0x0100\n      exp\n      swap1\n      div\n      0xffffffffffffffffffffffffffffffffffffffff\n      and\n      0xffffffffffffffffffffffffffffffffffffffff\n      and\n      0xffffffffffffffffffffffffffffffffffffffff\n      and\n      dup2\n      mstore\n      0x20\n      add\n      0x02\n      dup3\n      add\n      sload\n      dup2\n      mstore\n      0x20\n      add\n      0x03\n      dup3\n      add\n      0x00\n      swap1\n      sload\n      swap1\n      0x0100\n      exp\n      swap1\n      div\n      0xffffffffffffffffffffffffffffffffffffffff\n      and\n      0xffffffffffffffffffffffffffffffffffffffff\n      and\n      0xffffffffffffffffffffffffffffffffffffffff\n      and\n      dup2\n      mstore\n      0x20\n      add\n      0x04\n      dup3\n      add\n      0x00\n      swap1\n      sload\n      swap1\n      0x0100\n      exp\n      swap1\n      div\n      0xffffffffffffffffffffffffffffffffffffffff\n      and\n      0xffffffffffffffffffffffffffffffffffffffff\n      and\n      0xffffffffffffffffffffffffffffffffffffffff\n      and\n      dup2\n      mstore\n      0x20\n      add\n      0x05\n      dup3\n      add\n      sload\n      dup2\n      mstore\n      0x20\n      add\n      0x06\n      dup3\n      add\n      0x00\n      swap1\n      sload\n      swap1\n      0x0100\n      exp\n      swap1\n      div\n      0xff\n      and\n      0x01\n      dup2\n      gt\n      iszero\n      tag_254\n      jumpi\n      tag_255\n      tag_119\n      jump\t// in\n    tag_255:\n    tag_254:\n      0x01\n      dup2\n      gt\n      iszero\n      tag_256\n      jumpi\n      tag_257\n      tag_119\n      jump\t// in\n    tag_257:\n    tag_256:\n      dup2\n      mstore\n      pop\n      pop\n      swap1\n      pop\n        /* \"contracts/Marketplace2/Marketplace.sol\":17439:17570  function getMarketItem(uint256 marketItemId) public view returns (MarketItem memory) {... */\n      swap2\n      swap1\n      pop\n      jump\t// out\n        /* \"contracts/Marketplace2/Marketplace.sol\":2558:2756  function transferOwnership(address newOwner) public virtual onlyOwner {... */\n    tag_108:\n        /* \"contracts/Marketplace2/Marketplace.sol\":1899:1911  _msgSender() */\n      tag_259\n        /* \"contracts/Marketplace2/Marketplace.sol\":1899:1909  _msgSender */\n      tag_204\n        /* \"contracts/Marketplace2/Marketplace.sol\":1899:1911  _msgSender() */\n      jump\t// in\n    tag_259:\n        /* \"contracts/Marketplace2/Marketplace.sol\":1888:1911  owner() == _msgSender() */\n      0xffffffffffffffffffffffffffffffffffffffff\n      and\n        /* \"contracts/Marketplace2/Marketplace.sol\":1888:1895  owner() */\n      tag_260\n        /* \"contracts/Marketplace2/Marketplace.sol\":1888:1893  owner */\n      tag_79\n        /* \"contracts/Marketplace2/Marketplace.sol\":1888:1895  owner() */\n      jump\t// in\n    tag_260:\n        /* \"contracts/Marketplace2/Marketplace.sol\":1888:1911  owner() == _msgSender() */\n      0xffffffffffffffffffffffffffffffffffffffff\n      and\n      eq\n        /* \"contracts/Marketplace2/Marketplace.sol\":1880:1948  require(owner() == _msgSender(), \"Ownable: caller is not the owner\") */\n      tag_261\n      jumpi\n      mload(0x40)\n      0x08c379a000000000000000000000000000000000000000000000000000000000\n      dup2\n      mstore\n      0x04\n      add\n      tag_262\n      swap1\n      tag_208\n      jump\t// in\n    tag_262:\n      mload(0x40)\n      dup1\n      swap2\n      sub\n      swap1\n      revert\n    tag_261:\n        /* \"contracts/Marketplace2/Marketplace.sol\":2666:2667  0 */\n      0x00\n        /* \"contracts/Marketplace2/Marketplace.sol\":2646:2668  newOwner != address(0) */\n      0xffffffffffffffffffffffffffffffffffffffff\n      and\n        /* \"contracts/Marketplace2/Marketplace.sol\":2646:2654  newOwner */\n      dup2\n        /* \"contracts/Marketplace2/Marketplace.sol\":2646:2668  newOwner != address(0) */\n      0xffffffffffffffffffffffffffffffffffffffff\n      and\n      sub\n        /* \"contracts/Marketplace2/Marketplace.sol\":2638:2711  require(newOwner != address(0), \"Ownable: new owner is the zero address\") */\n      tag_264\n      jumpi\n      mload(0x40)\n      0x08c379a000000000000000000000000000000000000000000000000000000000\n      dup2\n      mstore\n      0x04\n      add\n      tag_265\n      swap1\n      tag_266\n      jump\t// in\n    tag_265:\n      mload(0x40)\n      dup1\n      swap2\n      sub\n      swap1\n      revert\n    tag_264:\n        /* \"contracts/Marketplace2/Marketplace.sol\":2721:2749  _transferOwnership(newOwner) */\n      tag_267\n        /* \"contracts/Marketplace2/Marketplace.sol\":2740:2748  newOwner */\n      dup2\n        /* \"contracts/Marketplace2/Marketplace.sol\":2721:2739  _transferOwnership */\n      tag_211\n        /* \"contracts/Marketplace2/Marketplace.sol\":2721:2749  _transferOwnership(newOwner) */\n      jump\t// in\n    tag_267:\n        /* \"contracts/Marketplace2/Marketplace.sol\":2558:2756  function transferOwnership(address newOwner) public virtual onlyOwner {... */\n      pop\n      jump\t// out\n        /* \"contracts/Marketplace2/Marketplace.sol\":15928:15975  mapping (uint256 => MarketItem) public allItems */\n    tag_112:\n      mstore(0x20, 0x08)\n      dup1\n      0x00\n      mstore\n      keccak256(0x00, 0x40)\n      0x00\n      swap2\n      pop\n      swap1\n      pop\n      dup1\n      0x00\n      add\n      sload\n      swap1\n      dup1\n      0x01\n      add\n      0x00\n      swap1\n      sload\n      swap1\n      0x0100\n      exp\n      swap1\n      div\n      0xffffffffffffffffffffffffffffffffffffffff\n      and\n      swap1\n      dup1\n      0x02\n      add\n      sload\n      swap1\n      dup1\n      0x03\n      add\n      0x00\n      swap1\n      sload\n      swap1\n      0x0100\n      exp\n      swap1\n      div\n      0xffffffffffffffffffffffffffffffffffffffff\n      and\n      swap1\n      dup1\n      0x04\n      add\n      0x00\n      swap1\n      sload\n      swap1\n      0x0100\n      exp\n      swap1\n      div\n      0xffffffffffffffffffffffffffffffffffffffff\n      and\n      swap1\n      dup1\n      0x05\n      add\n      sload\n      swap1\n      dup1\n      0x06\n      add\n      0x00\n      swap1\n      sload\n      swap1\n      0x0100\n      exp\n      swap1\n      div\n      0xff\n      and\n      swap1\n      pop\n      dup8\n      jump\t// out\n        /* \"contracts/Marketplace2/Marketplace.sol\":11851:11963  function current(Counter storage counter) internal view returns (uint256) {... */\n    tag_124:\n        /* \"contracts/Marketplace2/Marketplace.sol\":11916:11923  uint256 */\n      0x00\n        /* \"contracts/Marketplace2/Marketplace.sol\":11942:11949  counter */\n      dup2\n        /* \"contracts/Marketplace2/Marketplace.sol\":11942:11956  counter._value */\n      0x00\n      add\n      sload\n        /* \"contracts/Marketplace2/Marketplace.sol\":11935:11956  return counter._value */\n      swap1\n      pop\n        /* \"contracts/Marketplace2/Marketplace.sol\":11851:11963  function current(Counter storage counter) internal view returns (uint256) {... */\n      swap2\n      swap1\n      pop\n      jump\t// out\n        /* \"contracts/Marketplace2/Marketplace.sol\":11969:12092  function increment(Counter storage counter) internal {... */\n    tag_177:\n        /* \"contracts/Marketplace2/Marketplace.sol\":12074:12075  1 */\n      0x01\n        /* \"contracts/Marketplace2/Marketplace.sol\":12056:12063  counter */\n      dup2\n        /* \"contracts/Marketplace2/Marketplace.sol\":12056:12070  counter._value */\n      0x00\n      add\n      0x00\n        /* \"contracts/Marketplace2/Marketplace.sol\":12056:12075  counter._value += 1 */\n      dup3\n      dup3\n      sload\n      add\n      swap3\n      pop\n      pop\n      dup2\n      swap1\n      sstore\n      pop\n        /* \"contracts/Marketplace2/Marketplace.sol\":11969:12092  function increment(Counter storage counter) internal {... */\n      pop\n      jump\t// out\n        /* \"contracts/Marketplace2/Marketplace.sol\":554:650  function _msgSender() internal view virtual returns (address) {... */\n    tag_204:\n        /* \"contracts/Marketplace2/Marketplace.sol\":607:614  address */\n      0x00\n        /* \"contracts/Marketplace2/Marketplace.sol\":633:643  msg.sender */\n      caller\n        /* \"contracts/Marketplace2/Marketplace.sol\":626:643  return msg.sender */\n      swap1\n      pop\n        /* \"contracts/Marketplace2/Marketplace.sol\":554:650  function _msgSender() internal view virtual returns (address) {... */\n      swap1\n      jump\t// out\n        /* \"contracts/Marketplace2/Marketplace.sol\":2910:3097  function _transferOwnership(address newOwner) internal virtual {... */\n    tag_211:\n        /* \"contracts/Marketplace2/Marketplace.sol\":2983:2999  address oldOwner */\n      0x00\n        /* \"contracts/Marketplace2/Marketplace.sol\":3002:3008  _owner */\n      0x0c\n      0x00\n      swap1\n      sload\n      swap1\n      0x0100\n      exp\n      swap1\n      div\n      0xffffffffffffffffffffffffffffffffffffffff\n      and\n        /* \"contracts/Marketplace2/Marketplace.sol\":2983:3008  address oldOwner = _owner */\n      swap1\n      pop\n        /* \"contracts/Marketplace2/Marketplace.sol\":3027:3035  newOwner */\n      dup2\n        /* \"contracts/Marketplace2/Marketplace.sol\":3018:3024  _owner */\n      0x0c\n      0x00\n        /* \"contracts/Marketplace2/Marketplace.sol\":3018:3035  _owner = newOwner */\n      0x0100\n      exp\n      dup2\n      sload\n      dup2\n      0xffffffffffffffffffffffffffffffffffffffff\n      mul\n      not\n      and\n      swap1\n      dup4\n      0xffffffffffffffffffffffffffffffffffffffff\n      and\n      mul\n      or\n      swap1\n      sstore\n      pop\n        /* \"contracts/Marketplace2/Marketplace.sol\":3081:3089  newOwner */\n      dup2\n        /* \"contracts/Marketplace2/Marketplace.sol\":3050:3090  OwnershipTransferred(oldOwner, newOwner) */\n      0xffffffffffffffffffffffffffffffffffffffff\n      and\n        /* \"contracts/Marketplace2/Marketplace.sol\":3071:3079  oldOwner */\n      dup2\n        /* \"contracts/Marketplace2/Marketplace.sol\":3050:3090  OwnershipTransferred(oldOwner, newOwner) */\n      0xffffffffffffffffffffffffffffffffffffffff\n      and\n      0x8be0079c531659141344cd1fd0a4f28419497f9722a3daafe3b4186f6b6457e0\n      mload(0x40)\n      mload(0x40)\n      dup1\n      swap2\n      sub\n      swap1\n      log3\n        /* \"contracts/Marketplace2/Marketplace.sol\":2973:3097  {... */\n      pop\n        /* \"contracts/Marketplace2/Marketplace.sol\":2910:3097  function _transferOwnership(address newOwner) internal virtual {... */\n      pop\n      jump\t// out\n        /* \"contracts/Marketplace2/Marketplace.sol\":22270:22659  function _requireERC721(address nftAddress) internal view {... */\n    tag_221:\n        /* \"contracts/Marketplace2/Marketplace.sol\":22359:22381  isContract(nftAddress) */\n      tag_273\n        /* \"contracts/Marketplace2/Marketplace.sol\":22370:22380  nftAddress */\n      dup2\n        /* \"contracts/Marketplace2/Marketplace.sol\":22359:22369  isContract */\n      tag_274\n        /* \"contracts/Marketplace2/Marketplace.sol\":22359:22381  isContract(nftAddress) */\n      jump\t// in\n    tag_273:\n        /* \"contracts/Marketplace2/Marketplace.sol\":22338:22443  require(... */\n      tag_275\n      jumpi\n      mload(0x40)\n      0x08c379a000000000000000000000000000000000000000000000000000000000\n      dup2\n      mstore\n      0x04\n      add\n      tag_276\n      swap1\n      tag_277\n      jump\t// in\n    tag_276:\n      mload(0x40)\n      dup1\n      swap2\n      sub\n      swap1\n      revert\n    tag_275:\n        /* \"contracts/Marketplace2/Marketplace.sol\":22454:22473  IERC721 nftRegistry */\n      0x00\n        /* \"contracts/Marketplace2/Marketplace.sol\":22484:22494  nftAddress */\n      dup2\n        /* \"contracts/Marketplace2/Marketplace.sol\":22454:22495  IERC721 nftRegistry = IERC721(nftAddress) */\n      swap1\n      pop\n        /* \"contracts/Marketplace2/Marketplace.sol\":22526:22537  nftRegistry */\n      dup1\n        /* \"contracts/Marketplace2/Marketplace.sol\":22526:22555  nftRegistry.supportsInterface */\n      0xffffffffffffffffffffffffffffffffffffffff\n      and\n      0x01ffc9a7\n        /* \"contracts/Marketplace2/Marketplace.sol\":15910:15920  0x80ac58cd */\n      0x80ac58cd\n        /* \"contracts/Marketplace2/Marketplace.sol\":15903:15921  bytes4(0x80ac58cd) */\n      0xe0\n      shl\n        /* \"contracts/Marketplace2/Marketplace.sol\":22526:22573  nftRegistry.supportsInterface(ERC721_Interface) */\n      mload(0x40)\n      dup3\n      0xffffffff\n      and\n      0xe0\n      shl\n      dup2\n      mstore\n      0x04\n      add\n      tag_278\n      swap2\n      swap1\n      tag_54\n      jump\t// in\n    tag_278:\n      0x20\n      mload(0x40)\n      dup1\n      dup4\n      sub\n      dup2\n      dup7\n      gas\n      staticcall\n      iszero\n      dup1\n      iszero\n      tag_280\n      jumpi\n      returndatasize\n      0x00\n      dup1\n      returndatacopy\n      revert(0x00, returndatasize)\n    tag_280:\n      pop\n      pop\n      pop\n      pop\n      mload(0x40)\n      returndatasize\n      not(0x1f)\n      0x1f\n      dup3\n      add\n      and\n      dup3\n      add\n      dup1\n      0x40\n      mstore\n      pop\n      dup2\n      add\n      swap1\n      tag_281\n      swap2\n      swap1\n      tag_168\n      jump\t// in\n    tag_281:\n        /* \"contracts/Marketplace2/Marketplace.sol\":22505:22652  require(... */\n      tag_282\n      jumpi\n      mload(0x40)\n      0x08c379a000000000000000000000000000000000000000000000000000000000\n      dup2\n      mstore\n      0x04\n      add\n      tag_283\n      swap1\n      tag_284\n      jump\t// in\n    tag_283:\n      mload(0x40)\n      dup1\n      swap2\n      sub\n      swap1\n      revert\n    tag_282:\n        /* \"contracts/Marketplace2/Marketplace.sol\":22328:22659  {... */\n      pop\n        /* \"contracts/Marketplace2/Marketplace.sol\":22270:22659  function _requireERC721(address nftAddress) internal view {... */\n      pop\n      jump\t// out\n        /* \"contracts/Marketplace2/Marketplace.sol\":22665:22822  function isContract(address _addr) private view returns (bool){... */\n    tag_274:\n        /* \"contracts/Marketplace2/Marketplace.sol\":22722:22726  bool */\n      0x00\n        /* \"contracts/Marketplace2/Marketplace.sol\":22733:22744  uint32 size */\n      dup1\n        /* \"contracts/Marketplace2/Marketplace.sol\":22785:22790  _addr */\n      dup3\n        /* \"contracts/Marketplace2/Marketplace.sol\":22773:22791  extcodesize(_addr) */\n      extcodesize\n        /* \"contracts/Marketplace2/Marketplace.sol\":22765:22791  size := extcodesize(_addr) */\n      swap1\n      pop\n        /* \"contracts/Marketplace2/Marketplace.sol\":22817:22818  0 */\n      0x00\n        /* \"contracts/Marketplace2/Marketplace.sol\":22810:22814  size */\n      dup2\n        /* \"contracts/Marketplace2/Marketplace.sol\":22810:22818  size > 0 */\n      0xffffffff\n      and\n      gt\n        /* \"contracts/Marketplace2/Marketplace.sol\":22802:22819  return (size > 0) */\n      swap2\n      pop\n      pop\n        /* \"contracts/Marketplace2/Marketplace.sol\":22665:22822  function isContract(address _addr) private view returns (bool){... */\n      swap2\n      swap1\n      pop\n      jump\t// out\n    tag_115:\n      mload(0x40)\n      dup1\n      0xe0\n      add\n      0x40\n      mstore\n      dup1\n      0x00\n      dup2\n      mstore\n      0x20\n      add\n      and(0xffffffffffffffffffffffffffffffffffffffff, 0x00)\n      dup2\n      mstore\n      0x20\n      add\n      0x00\n      dup2\n      mstore\n      0x20\n      add\n      and(0xffffffffffffffffffffffffffffffffffffffff, 0x00)\n      dup2\n      mstore\n      0x20\n      add\n      and(0xffffffffffffffffffffffffffffffffffffffff, 0x00)\n      dup2\n      mstore\n      0x20\n      add\n      0x00\n      dup2\n      mstore\n      0x20\n      add\n      0x00\n      0x01\n      dup2\n      gt\n      iszero\n      tag_286\n      jumpi\n      tag_287\n      tag_119\n      jump\t// in\n    tag_287:\n    tag_286:\n      dup2\n      mstore\n      pop\n      swap1\n      jump\t// out\n        /* \"#utility.yul\":7:84   */\n    tag_288:\n        /* \"#utility.yul\":44:51   */\n      0x00\n        /* \"#utility.yul\":73:78   */\n      dup2\n        /* \"#utility.yul\":62:78   */\n      swap1\n      pop\n        /* \"#utility.yul\":7:84   */\n      swap2\n      swap1\n      pop\n      jump\t// out\n        /* \"#utility.yul\":90:198   */\n    tag_289:\n        /* \"#utility.yul\":167:191   */\n      tag_361\n        /* \"#utility.yul\":185:190   */\n      dup2\n        /* \"#utility.yul\":167:191   */\n      tag_288\n      jump\t// in\n    tag_361:\n        /* \"#utility.yul\":162:165   */\n      dup3\n        /* \"#utility.yul\":155:192   */\n      mstore\n        /* \"#utility.yul\":90:198   */\n      pop\n      pop\n      jump\t// out\n        /* \"#utility.yul\":204:330   */\n    tag_290:\n        /* \"#utility.yul\":241:248   */\n      0x00\n        /* \"#utility.yul\":281:323   */\n      0xffffffffffffffffffffffffffffffffffffffff\n        /* \"#utility.yul\":274:279   */\n      dup3\n        /* \"#utility.yul\":270:324   */\n      and\n        /* \"#utility.yul\":259:324   */\n      swap1\n      pop\n        /* \"#utility.yul\":204:330   */\n      swap2\n      swap1\n      pop\n      jump\t// out\n        /* \"#utility.yul\":336:432   */\n    tag_291:\n        /* \"#utility.yul\":373:380   */\n      0x00\n        /* \"#utility.yul\":402:426   */\n      tag_364\n        /* \"#utility.yul\":420:425   */\n      dup3\n        /* \"#utility.yul\":402:426   */\n      tag_290\n      jump\t// in\n    tag_364:\n        /* \"#utility.yul\":391:426   */\n      swap1\n      pop\n        /* \"#utility.yul\":336:432   */\n      swap2\n      swap1\n      pop\n      jump\t// out\n        /* \"#utility.yul\":438:546   */\n    tag_292:\n        /* \"#utility.yul\":515:539   */\n      tag_366\n        /* \"#utility.yul\":533:538   */\n      dup2\n        /* \"#utility.yul\":515:539   */\n      tag_291\n      jump\t// in\n    tag_366:\n        /* \"#utility.yul\":510:513   */\n      dup3\n        /* \"#utility.yul\":503:540   */\n      mstore\n        /* \"#utility.yul\":438:546   */\n      pop\n      pop\n      jump\t// out\n        /* \"#utility.yul\":552:656   */\n    tag_293:\n        /* \"#utility.yul\":597:604   */\n      0x00\n        /* \"#utility.yul\":626:650   */\n      tag_368\n        /* \"#utility.yul\":644:649   */\n      dup3\n        /* \"#utility.yul\":626:650   */\n      tag_290\n      jump\t// in\n    tag_368:\n        /* \"#utility.yul\":615:650   */\n      swap1\n      pop\n        /* \"#utility.yul\":552:656   */\n      swap2\n      swap1\n      pop\n      jump\t// out\n        /* \"#utility.yul\":662:794   */\n    tag_294:\n        /* \"#utility.yul\":755:787   */\n      tag_370\n        /* \"#utility.yul\":781:786   */\n      dup2\n        /* \"#utility.yul\":755:787   */\n      tag_293\n      jump\t// in\n    tag_370:\n        /* \"#utility.yul\":750:753   */\n      dup3\n        /* \"#utility.yul\":743:788   */\n      mstore\n        /* \"#utility.yul\":662:794   */\n      pop\n      pop\n      jump\t// out\n        /* \"#utility.yul\":800:980   */\n    tag_119:\n        /* \"#utility.yul\":848:925   */\n      0x4e487b7100000000000000000000000000000000000000000000000000000000\n        /* \"#utility.yul\":845:846   */\n      0x00\n        /* \"#utility.yul\":838:926   */\n      mstore\n        /* \"#utility.yul\":945:949   */\n      0x21\n        /* \"#utility.yul\":942:943   */\n      0x04\n        /* \"#utility.yul\":935:950   */\n      mstore\n        /* \"#utility.yul\":969:973   */\n      0x24\n        /* \"#utility.yul\":966:967   */\n      0x00\n        /* \"#utility.yul\":959:974   */\n      revert\n        /* \"#utility.yul\":986:1105   */\n    tag_295:\n        /* \"#utility.yul\":1073:1074   */\n      0x02\n        /* \"#utility.yul\":1066:1071   */\n      dup2\n        /* \"#utility.yul\":1063:1075   */\n      lt\n        /* \"#utility.yul\":1053:1099   */\n      tag_373\n      jumpi\n        /* \"#utility.yul\":1079:1097   */\n      tag_374\n      tag_119\n      jump\t// in\n    tag_374:\n        /* \"#utility.yul\":1053:1099   */\n    tag_373:\n        /* \"#utility.yul\":986:1105   */\n      pop\n      jump\t// out\n        /* \"#utility.yul\":1111:1250   */\n    tag_296:\n        /* \"#utility.yul\":1162:1169   */\n      0x00\n        /* \"#utility.yul\":1191:1196   */\n      dup2\n        /* \"#utility.yul\":1180:1196   */\n      swap1\n      pop\n        /* \"#utility.yul\":1197:1244   */\n      tag_376\n        /* \"#utility.yul\":1238:1243   */\n      dup3\n        /* \"#utility.yul\":1197:1244   */\n      tag_295\n      jump\t// in\n    tag_376:\n        /* \"#utility.yul\":1111:1250   */\n      swap2\n      swap1\n      pop\n      jump\t// out\n        /* \"#utility.yul\":1256:1395   */\n    tag_297:\n        /* \"#utility.yul\":1318:1327   */\n      0x00\n        /* \"#utility.yul\":1351:1389   */\n      tag_378\n        /* \"#utility.yul\":1383:1388   */\n      dup3\n        /* \"#utility.yul\":1351:1389   */\n      tag_296\n      jump\t// in\n    tag_378:\n        /* \"#utility.yul\":1338:1389   */\n      swap1\n      pop\n        /* \"#utility.yul\":1256:1395   */\n      swap2\n      swap1\n      pop\n      jump\t// out\n        /* \"#utility.yul\":1401:1546   */\n    tag_298:\n        /* \"#utility.yul\":1490:1539   */\n      tag_380\n        /* \"#utility.yul\":1533:1538   */\n      dup2\n        /* \"#utility.yul\":1490:1539   */\n      tag_297\n      jump\t// in\n    tag_380:\n        /* \"#utility.yul\":1485:1488   */\n      dup3\n        /* \"#utility.yul\":1478:1540   */\n      mstore\n        /* \"#utility.yul\":1401:1546   */\n      pop\n      pop\n      jump\t// out\n        /* \"#utility.yul\":1636:3079   */\n    tag_299:\n        /* \"#utility.yul\":1787:1791   */\n      0xe0\n        /* \"#utility.yul\":1782:1785   */\n      dup3\n        /* \"#utility.yul\":1778:1792   */\n      add\n        /* \"#utility.yul\":1876:1880   */\n      0x00\n        /* \"#utility.yul\":1869:1874   */\n      dup3\n        /* \"#utility.yul\":1865:1881   */\n      add\n        /* \"#utility.yul\":1859:1882   */\n      mload\n        /* \"#utility.yul\":1895:1958   */\n      tag_382\n        /* \"#utility.yul\":1952:1956   */\n      0x00\n        /* \"#utility.yul\":1947:1950   */\n      dup6\n        /* \"#utility.yul\":1943:1957   */\n      add\n        /* \"#utility.yul\":1929:1941   */\n      dup3\n        /* \"#utility.yul\":1895:1958   */\n      tag_289\n      jump\t// in\n    tag_382:\n        /* \"#utility.yul\":1802:1968   */\n      pop\n        /* \"#utility.yul\":2057:2061   */\n      0x20\n        /* \"#utility.yul\":2050:2055   */\n      dup3\n        /* \"#utility.yul\":2046:2062   */\n      add\n        /* \"#utility.yul\":2040:2063   */\n      mload\n        /* \"#utility.yul\":2076:2139   */\n      tag_383\n        /* \"#utility.yul\":2133:2137   */\n      0x20\n        /* \"#utility.yul\":2128:2131   */\n      dup6\n        /* \"#utility.yul\":2124:2138   */\n      add\n        /* \"#utility.yul\":2110:2122   */\n      dup3\n        /* \"#utility.yul\":2076:2139   */\n      tag_292\n      jump\t// in\n    tag_383:\n        /* \"#utility.yul\":1978:2149   */\n      pop\n        /* \"#utility.yul\":2234:2238   */\n      0x40\n        /* \"#utility.yul\":2227:2232   */\n      dup3\n        /* \"#utility.yul\":2223:2239   */\n      add\n        /* \"#utility.yul\":2217:2240   */\n      mload\n        /* \"#utility.yul\":2253:2316   */\n      tag_384\n        /* \"#utility.yul\":2310:2314   */\n      0x40\n        /* \"#utility.yul\":2305:2308   */\n      dup6\n        /* \"#utility.yul\":2301:2315   */\n      add\n        /* \"#utility.yul\":2287:2299   */\n      dup3\n        /* \"#utility.yul\":2253:2316   */\n      tag_289\n      jump\t// in\n    tag_384:\n        /* \"#utility.yul\":2159:2326   */\n      pop\n        /* \"#utility.yul\":2410:2414   */\n      0x60\n        /* \"#utility.yul\":2403:2408   */\n      dup3\n        /* \"#utility.yul\":2399:2415   */\n      add\n        /* \"#utility.yul\":2393:2416   */\n      mload\n        /* \"#utility.yul\":2429:2508   */\n      tag_385\n        /* \"#utility.yul\":2502:2506   */\n      0x60\n        /* \"#utility.yul\":2497:2500   */\n      dup6\n        /* \"#utility.yul\":2493:2507   */\n      add\n        /* \"#utility.yul\":2479:2491   */\n      dup3\n        /* \"#utility.yul\":2429:2508   */\n      tag_294\n      jump\t// in\n    tag_385:\n        /* \"#utility.yul\":2336:2518   */\n      pop\n        /* \"#utility.yul\":2601:2605   */\n      0x80\n        /* \"#utility.yul\":2594:2599   */\n      dup3\n        /* \"#utility.yul\":2590:2606   */\n      add\n        /* \"#utility.yul\":2584:2607   */\n      mload\n        /* \"#utility.yul\":2620:2699   */\n      tag_386\n        /* \"#utility.yul\":2693:2697   */\n      0x80\n        /* \"#utility.yul\":2688:2691   */\n      dup6\n        /* \"#utility.yul\":2684:2698   */\n      add\n        /* \"#utility.yul\":2670:2682   */\n      dup3\n        /* \"#utility.yul\":2620:2699   */\n      tag_294\n      jump\t// in\n    tag_386:\n        /* \"#utility.yul\":2528:2709   */\n      pop\n        /* \"#utility.yul\":2792:2796   */\n      0xa0\n        /* \"#utility.yul\":2785:2790   */\n      dup3\n        /* \"#utility.yul\":2781:2797   */\n      add\n        /* \"#utility.yul\":2775:2798   */\n      mload\n        /* \"#utility.yul\":2811:2874   */\n      tag_387\n        /* \"#utility.yul\":2868:2872   */\n      0xa0\n        /* \"#utility.yul\":2863:2866   */\n      dup6\n        /* \"#utility.yul\":2859:2873   */\n      add\n        /* \"#utility.yul\":2845:2857   */\n      dup3\n        /* \"#utility.yul\":2811:2874   */\n      tag_289\n      jump\t// in\n    tag_387:\n        /* \"#utility.yul\":2719:2884   */\n      pop\n        /* \"#utility.yul\":2968:2972   */\n      0xc0\n        /* \"#utility.yul\":2961:2966   */\n      dup3\n        /* \"#utility.yul\":2957:2973   */\n      add\n        /* \"#utility.yul\":2951:2974   */\n      mload\n        /* \"#utility.yul\":2987:3062   */\n      tag_388\n        /* \"#utility.yul\":3056:3060   */\n      0xc0\n        /* \"#utility.yul\":3051:3054   */\n      dup6\n        /* \"#utility.yul\":3047:3061   */\n      add\n        /* \"#utility.yul\":3033:3045   */\n      dup3\n        /* \"#utility.yul\":2987:3062   */\n      tag_298\n      jump\t// in\n    tag_388:\n        /* \"#utility.yul\":2894:3072   */\n      pop\n        /* \"#utility.yul\":1756:3079   */\n      pop\n        /* \"#utility.yul\":1636:3079   */\n      pop\n      pop\n      jump\t// out\n        /* \"#utility.yul\":3085:3416   */\n    tag_28:\n        /* \"#utility.yul\":3232:3236   */\n      0x00\n        /* \"#utility.yul\":3270:3273   */\n      0xe0\n        /* \"#utility.yul\":3259:3268   */\n      dup3\n        /* \"#utility.yul\":3255:3274   */\n      add\n        /* \"#utility.yul\":3247:3274   */\n      swap1\n      pop\n        /* \"#utility.yul\":3284:3409   */\n      tag_390\n        /* \"#utility.yul\":3406:3407   */\n      0x00\n        /* \"#utility.yul\":3395:3404   */\n      dup4\n        /* \"#utility.yul\":3391:3408   */\n      add\n        /* \"#utility.yul\":3382:3388   */\n      dup5\n        /* \"#utility.yul\":3284:3409   */\n      tag_299\n      jump\t// in\n    tag_390:\n        /* \"#utility.yul\":3085:3416   */\n      swap3\n      swap2\n      pop\n      pop\n      jump\t// out\n        /* \"#utility.yul\":3422:3482   */\n    tag_300:\n        /* \"#utility.yul\":3450:3453   */\n      0x00\n        /* \"#utility.yul\":3471:3476   */\n      dup2\n        /* \"#utility.yul\":3464:3476   */\n      swap1\n      pop\n        /* \"#utility.yul\":3422:3482   */\n      swap2\n      swap1\n      pop\n      jump\t// out\n        /* \"#utility.yul\":3488:3630   */\n    tag_301:\n        /* \"#utility.yul\":3538:3547   */\n      0x00\n        /* \"#utility.yul\":3571:3624   */\n      tag_393\n        /* \"#utility.yul\":3589:3623   */\n      tag_394\n        /* \"#utility.yul\":3598:3622   */\n      tag_395\n        /* \"#utility.yul\":3616:3621   */\n      dup5\n        /* \"#utility.yul\":3598:3622   */\n      tag_290\n      jump\t// in\n    tag_395:\n        /* \"#utility.yul\":3589:3623   */\n      tag_300\n      jump\t// in\n    tag_394:\n        /* \"#utility.yul\":3571:3624   */\n      tag_290\n      jump\t// in\n    tag_393:\n        /* \"#utility.yul\":3558:3624   */\n      swap1\n      pop\n        /* \"#utility.yul\":3488:3630   */\n      swap2\n      swap1\n      pop\n      jump\t// out\n        /* \"#utility.yul\":3636:3762   */\n    tag_302:\n        /* \"#utility.yul\":3686:3695   */\n      0x00\n        /* \"#utility.yul\":3719:3756   */\n      tag_397\n        /* \"#utility.yul\":3750:3755   */\n      dup3\n        /* \"#utility.yul\":3719:3756   */\n      tag_301\n      jump\t// in\n    tag_397:\n        /* \"#utility.yul\":3706:3756   */\n      swap1\n      pop\n        /* \"#utility.yul\":3636:3762   */\n      swap2\n      swap1\n      pop\n      jump\t// out\n        /* \"#utility.yul\":3768:3908   */\n    tag_303:\n        /* \"#utility.yul\":3832:3841   */\n      0x00\n        /* \"#utility.yul\":3865:3902   */\n      tag_399\n        /* \"#utility.yul\":3896:3901   */\n      dup3\n        /* \"#utility.yul\":3865:3902   */\n      tag_302\n      jump\t// in\n    tag_399:\n        /* \"#utility.yul\":3852:3902   */\n      swap1\n      pop\n        /* \"#utility.yul\":3768:3908   */\n      swap2\n      swap1\n      pop\n      jump\t// out\n        /* \"#utility.yul\":3914:4073   */\n    tag_304:\n        /* \"#utility.yul\":4015:4066   */\n      tag_401\n        /* \"#utility.yul\":4060:4065   */\n      dup2\n        /* \"#utility.yul\":4015:4066   */\n      tag_303\n      jump\t// in\n    tag_401:\n        /* \"#utility.yul\":4010:4013   */\n      dup3\n        /* \"#utility.yul\":4003:4067   */\n      mstore\n        /* \"#utility.yul\":3914:4073   */\n      pop\n      pop\n      jump\t// out\n        /* \"#utility.yul\":4079:4329   */\n    tag_33:\n        /* \"#utility.yul\":4186:4190   */\n      0x00\n        /* \"#utility.yul\":4224:4226   */\n      0x20\n        /* \"#utility.yul\":4213:4222   */\n      dup3\n        /* \"#utility.yul\":4209:4227   */\n      add\n        /* \"#utility.yul\":4201:4227   */\n      swap1\n      pop\n        /* \"#utility.yul\":4237:4322   */\n      tag_403\n        /* \"#utility.yul\":4319:4320   */\n      0x00\n        /* \"#utility.yul\":4308:4317   */\n      dup4\n        /* \"#utility.yul\":4304:4321   */\n      add\n        /* \"#utility.yul\":4295:4301   */\n      dup5\n        /* \"#utility.yul\":4237:4322   */\n      tag_304\n      jump\t// in\n    tag_403:\n        /* \"#utility.yul\":4079:4329   */\n      swap3\n      swap2\n      pop\n      pop\n      jump\t// out\n        /* \"#utility.yul\":4335:4476   */\n    tag_305:\n        /* \"#utility.yul\":4429:4435   */\n      0x00\n        /* \"#utility.yul\":4463:4468   */\n      dup2\n        /* \"#utility.yul\":4457:4469   */\n      mload\n        /* \"#utility.yul\":4447:4469   */\n      swap1\n      pop\n        /* \"#utility.yul\":4335:4476   */\n      swap2\n      swap1\n      pop\n      jump\t// out\n        /* \"#utility.yul\":4482:4693   */\n    tag_306:\n        /* \"#utility.yul\":4608:4619   */\n      0x00\n        /* \"#utility.yul\":4642:4648   */\n      dup3\n        /* \"#utility.yul\":4637:4640   */\n      dup3\n        /* \"#utility.yul\":4630:4649   */\n      mstore\n        /* \"#utility.yul\":4682:4686   */\n      0x20\n        /* \"#utility.yul\":4677:4680   */\n      dup3\n        /* \"#utility.yul\":4673:4687   */\n      add\n        /* \"#utility.yul\":4658:4687   */\n      swap1\n      pop\n        /* \"#utility.yul\":4482:4693   */\n      swap3\n      swap2\n      pop\n      pop\n      jump\t// out\n        /* \"#utility.yul\":4699:4858   */\n    tag_307:\n        /* \"#utility.yul\":4793:4797   */\n      0x00\n        /* \"#utility.yul\":4816:4819   */\n      dup2\n        /* \"#utility.yul\":4808:4819   */\n      swap1\n      pop\n        /* \"#utility.yul\":4846:4850   */\n      0x20\n        /* \"#utility.yul\":4841:4844   */\n      dup3\n        /* \"#utility.yul\":4837:4851   */\n      add\n        /* \"#utility.yul\":4829:4851   */\n      swap1\n      pop\n        /* \"#utility.yul\":4699:4858   */\n      swap2\n      swap1\n      pop\n      jump\t// out\n        /* \"#utility.yul\":4948:6381   */\n    tag_308:\n        /* \"#utility.yul\":5089:5093   */\n      0xe0\n        /* \"#utility.yul\":5084:5087   */\n      dup3\n        /* \"#utility.yul\":5080:5094   */\n      add\n        /* \"#utility.yul\":5178:5182   */\n      0x00\n        /* \"#utility.yul\":5171:5176   */\n      dup3\n        /* \"#utility.yul\":5167:5183   */\n      add\n        /* \"#utility.yul\":5161:5184   */\n      mload\n        /* \"#utility.yul\":5197:5260   */\n      tag_408\n        /* \"#utility.yul\":5254:5258   */\n      0x00\n        /* \"#utility.yul\":5249:5252   */\n      dup6\n        /* \"#utility.yul\":5245:5259   */\n      add\n        /* \"#utility.yul\":5231:5243   */\n      dup3\n        /* \"#utility.yul\":5197:5260   */\n      tag_289\n      jump\t// in\n    tag_408:\n        /* \"#utility.yul\":5104:5270   */\n      pop\n        /* \"#utility.yul\":5359:5363   */\n      0x20\n        /* \"#utility.yul\":5352:5357   */\n      dup3\n        /* \"#utility.yul\":5348:5364   */\n      add\n        /* \"#utility.yul\":5342:5365   */\n      mload\n        /* \"#utility.yul\":5378:5441   */\n      tag_409\n        /* \"#utility.yul\":5435:5439   */\n      0x20\n        /* \"#utility.yul\":5430:5433   */\n      dup6\n        /* \"#utility.yul\":5426:5440   */\n      add\n        /* \"#utility.yul\":5412:5424   */\n      dup3\n        /* \"#utility.yul\":5378:5441   */\n      tag_292\n      jump\t// in\n    tag_409:\n        /* \"#utility.yul\":5280:5451   */\n      pop\n        /* \"#utility.yul\":5536:5540   */\n      0x40\n        /* \"#utility.yul\":5529:5534   */\n      dup3\n        /* \"#utility.yul\":5525:5541   */\n      add\n        /* \"#utility.yul\":5519:5542   */\n      mload\n        /* \"#utility.yul\":5555:5618   */\n      tag_410\n        /* \"#utility.yul\":5612:5616   */\n      0x40\n        /* \"#utility.yul\":5607:5610   */\n      dup6\n        /* \"#utility.yul\":5603:5617   */\n      add\n        /* \"#utility.yul\":5589:5601   */\n      dup3\n        /* \"#utility.yul\":5555:5618   */\n      tag_289\n      jump\t// in\n    tag_410:\n        /* \"#utility.yul\":5461:5628   */\n      pop\n        /* \"#utility.yul\":5712:5716   */\n      0x60\n        /* \"#utility.yul\":5705:5710   */\n      dup3\n        /* \"#utility.yul\":5701:5717   */\n      add\n        /* \"#utility.yul\":5695:5718   */\n      mload\n        /* \"#utility.yul\":5731:5810   */\n      tag_411\n        /* \"#utility.yul\":5804:5808   */\n      0x60\n        /* \"#utility.yul\":5799:5802   */\n      dup6\n        /* \"#utility.yul\":5795:5809   */\n      add\n        /* \"#utility.yul\":5781:5793   */\n      dup3\n        /* \"#utility.yul\":5731:5810   */\n      tag_294\n      jump\t// in\n    tag_411:\n        /* \"#utility.yul\":5638:5820   */\n      pop\n        /* \"#utility.yul\":5903:5907   */\n      0x80\n        /* \"#utility.yul\":5896:5901   */\n      dup3\n        /* \"#utility.yul\":5892:5908   */\n      add\n        /* \"#utility.yul\":5886:5909   */\n      mload\n        /* \"#utility.yul\":5922:6001   */\n      tag_412\n        /* \"#utility.yul\":5995:5999   */\n      0x80\n        /* \"#utility.yul\":5990:5993   */\n      dup6\n        /* \"#utility.yul\":5986:6000   */\n      add\n        /* \"#utility.yul\":5972:5984   */\n      dup3\n        /* \"#utility.yul\":5922:6001   */\n      tag_294\n      jump\t// in\n    tag_412:\n        /* \"#utility.yul\":5830:6011   */\n      pop\n        /* \"#utility.yul\":6094:6098   */\n      0xa0\n        /* \"#utility.yul\":6087:6092   */\n      dup3\n        /* \"#utility.yul\":6083:6099   */\n      add\n        /* \"#utility.yul\":6077:6100   */\n      mload\n        /* \"#utility.yul\":6113:6176   */\n      tag_413\n        /* \"#utility.yul\":6170:6174   */\n      0xa0\n        /* \"#utility.yul\":6165:6168   */\n      dup6\n        /* \"#utility.yul\":6161:6175   */\n      add\n        /* \"#utility.yul\":6147:6159   */\n      dup3\n        /* \"#utility.yul\":6113:6176   */\n      tag_289\n      jump\t// in\n    tag_413:\n        /* \"#utility.yul\":6021:6186   */\n      pop\n        /* \"#utility.yul\":6270:6274   */\n      0xc0\n        /* \"#utility.yul\":6263:6268   */\n      dup3\n        /* \"#utility.yul\":6259:6275   */\n      add\n        /* \"#utility.yul\":6253:6276   */\n      mload\n        /* \"#utility.yul\":6289:6364   */\n      tag_414\n        /* \"#utility.yul\":6358:6362   */\n      0xc0\n        /* \"#utility.yul\":6353:6356   */\n      dup6\n        /* \"#utility.yul\":6349:6363   */\n      add\n        /* \"#utility.yul\":6335:6347   */\n      dup3\n        /* \"#utility.yul\":6289:6364   */\n      tag_298\n      jump\t// in\n    tag_414:\n        /* \"#utility.yul\":6196:6374   */\n      pop\n        /* \"#utility.yul\":5058:6381   */\n      pop\n        /* \"#utility.yul\":4948:6381   */\n      pop\n      pop\n      jump\t// out\n        /* \"#utility.yul\":6387:6674   */\n    tag_309:\n        /* \"#utility.yul\":6510:6520   */\n      0x00\n        /* \"#utility.yul\":6531:6631   */\n      tag_416\n        /* \"#utility.yul\":6627:6630   */\n      dup4\n        /* \"#utility.yul\":6619:6625   */\n      dup4\n        /* \"#utility.yul\":6531:6631   */\n      tag_308\n      jump\t// in\n    tag_416:\n        /* \"#utility.yul\":6663:6667   */\n      0xe0\n        /* \"#utility.yul\":6658:6661   */\n      dup4\n        /* \"#utility.yul\":6654:6668   */\n      add\n        /* \"#utility.yul\":6640:6668   */\n      swap1\n      pop\n        /* \"#utility.yul\":6387:6674   */\n      swap3\n      swap2\n      pop\n      pop\n      jump\t// out\n        /* \"#utility.yul\":6680:6820   */\n    tag_310:\n        /* \"#utility.yul\":6777:6781   */\n      0x00\n        /* \"#utility.yul\":6809:6813   */\n      0x20\n        /* \"#utility.yul\":6804:6807   */\n      dup3\n        /* \"#utility.yul\":6800:6814   */\n      add\n        /* \"#utility.yul\":6792:6814   */\n      swap1\n      pop\n        /* \"#utility.yul\":6680:6820   */\n      swap2\n      swap1\n      pop\n      jump\t// out\n        /* \"#utility.yul\":6914:7862   */\n    tag_311:\n        /* \"#utility.yul\":7087:7090   */\n      0x00\n        /* \"#utility.yul\":7116:7197   */\n      tag_419\n        /* \"#utility.yul\":7191:7196   */\n      dup3\n        /* \"#utility.yul\":7116:7197   */\n      tag_305\n      jump\t// in\n    tag_419:\n        /* \"#utility.yul\":7213:7326   */\n      tag_420\n        /* \"#utility.yul\":7319:7325   */\n      dup2\n        /* \"#utility.yul\":7314:7317   */\n      dup6\n        /* \"#utility.yul\":7213:7326   */\n      tag_306\n      jump\t// in\n    tag_420:\n        /* \"#utility.yul\":7206:7326   */\n      swap4\n      pop\n        /* \"#utility.yul\":7350:7433   */\n      tag_421\n        /* \"#utility.yul\":7427:7432   */\n      dup4\n        /* \"#utility.yul\":7350:7433   */\n      tag_307\n      jump\t// in\n    tag_421:\n        /* \"#utility.yul\":7456:7463   */\n      dup1\n        /* \"#utility.yul\":7487:7488   */\n      0x00\n        /* \"#utility.yul\":7472:7837   */\n    tag_422:\n        /* \"#utility.yul\":7497:7503   */\n      dup4\n        /* \"#utility.yul\":7494:7495   */\n      dup2\n        /* \"#utility.yul\":7491:7504   */\n      lt\n        /* \"#utility.yul\":7472:7837   */\n      iszero\n      tag_424\n      jumpi\n        /* \"#utility.yul\":7573:7579   */\n      dup2\n        /* \"#utility.yul\":7567:7580   */\n      mload\n        /* \"#utility.yul\":7600:7717   */\n      tag_425\n        /* \"#utility.yul\":7713:7716   */\n      dup9\n        /* \"#utility.yul\":7698:7711   */\n      dup3\n        /* \"#utility.yul\":7600:7717   */\n      tag_309\n      jump\t// in\n    tag_425:\n        /* \"#utility.yul\":7593:7717   */\n      swap8\n      pop\n        /* \"#utility.yul\":7740:7827   */\n      tag_426\n        /* \"#utility.yul\":7820:7826   */\n      dup4\n        /* \"#utility.yul\":7740:7827   */\n      tag_310\n      jump\t// in\n    tag_426:\n        /* \"#utility.yul\":7730:7827   */\n      swap3\n      pop\n        /* \"#utility.yul\":7532:7837   */\n      pop\n        /* \"#utility.yul\":7519:7520   */\n      0x01\n        /* \"#utility.yul\":7516:7517   */\n      dup2\n        /* \"#utility.yul\":7512:7521   */\n      add\n        /* \"#utility.yul\":7507:7521   */\n      swap1\n      pop\n        /* \"#utility.yul\":7472:7837   */\n      jump(tag_422)\n    tag_424:\n        /* \"#utility.yul\":7476:7490   */\n      pop\n        /* \"#utility.yul\":7853:7856   */\n      dup6\n        /* \"#utility.yul\":7846:7856   */\n      swap4\n      pop\n        /* \"#utility.yul\":7092:7862   */\n      pop\n      pop\n      pop\n        /* \"#utility.yul\":6914:7862   */\n      swap3\n      swap2\n      pop\n      pop\n      jump\t// out\n        /* \"#utility.yul\":7868:8349   */\n    tag_38:\n        /* \"#utility.yul\":8065:8069   */\n      0x00\n        /* \"#utility.yul\":8103:8105   */\n      0x20\n        /* \"#utility.yul\":8092:8101   */\n      dup3\n        /* \"#utility.yul\":8088:8106   */\n      add\n        /* \"#utility.yul\":8080:8106   */\n      swap1\n      pop\n        /* \"#utility.yul\":8152:8161   */\n      dup2\n        /* \"#utility.yul\":8146:8150   */\n      dup2\n        /* \"#utility.yul\":8142:8162   */\n      sub\n        /* \"#utility.yul\":8138:8139   */\n      0x00\n        /* \"#utility.yul\":8127:8136   */\n      dup4\n        /* \"#utility.yul\":8123:8140   */\n      add\n        /* \"#utility.yul\":8116:8163   */\n      mstore\n        /* \"#utility.yul\":8180:8342   */\n      tag_428\n        /* \"#utility.yul\":8337:8341   */\n      dup2\n        /* \"#utility.yul\":8328:8334   */\n      dup5\n        /* \"#utility.yul\":8180:8342   */\n      tag_311\n      jump\t// in\n    tag_428:\n        /* \"#utility.yul\":8172:8342   */\n      swap1\n      pop\n        /* \"#utility.yul\":7868:8349   */\n      swap3\n      swap2\n      pop\n      pop\n      jump\t// out\n        /* \"#utility.yul\":8436:8553   */\n    tag_313:\n        /* \"#utility.yul\":8545:8546   */\n      0x00\n        /* \"#utility.yul\":8542:8543   */\n      dup1\n        /* \"#utility.yul\":8535:8547   */\n      revert\n        /* \"#utility.yul\":8682:8804   */\n    tag_315:\n        /* \"#utility.yul\":8755:8779   */\n      tag_433\n        /* \"#utility.yul\":8773:8778   */\n      dup2\n        /* \"#utility.yul\":8755:8779   */\n      tag_291\n      jump\t// in\n    tag_433:\n        /* \"#utility.yul\":8748:8753   */\n      dup2\n        /* \"#utility.yul\":8745:8780   */\n      eq\n        /* \"#utility.yul\":8735:8798   */\n      tag_434\n      jumpi\n        /* \"#utility.yul\":8794:8795   */\n      0x00\n        /* \"#utility.yul\":8791:8792   */\n      dup1\n        /* \"#utility.yul\":8784:8796   */\n      revert\n        /* \"#utility.yul\":8735:8798   */\n    tag_434:\n        /* \"#utility.yul\":8682:8804   */\n      pop\n      jump\t// out\n        /* \"#utility.yul\":8810:8949   */\n    tag_316:\n        /* \"#utility.yul\":8856:8861   */\n      0x00\n        /* \"#utility.yul\":8894:8900   */\n      dup2\n        /* \"#utility.yul\":8881:8901   */\n      calldataload\n        /* \"#utility.yul\":8872:8901   */\n      swap1\n      pop\n        /* \"#utility.yul\":8910:8943   */\n      tag_436\n        /* \"#utility.yul\":8937:8942   */\n      dup2\n        /* \"#utility.yul\":8910:8943   */\n      tag_315\n      jump\t// in\n    tag_436:\n        /* \"#utility.yul\":8810:8949   */\n      swap3\n      swap2\n      pop\n      pop\n      jump\t// out\n        /* \"#utility.yul\":8955:9077   */\n    tag_317:\n        /* \"#utility.yul\":9028:9052   */\n      tag_438\n        /* \"#utility.yul\":9046:9051   */\n      dup2\n        /* \"#utility.yul\":9028:9052   */\n      tag_288\n      jump\t// in\n    tag_438:\n        /* \"#utility.yul\":9021:9026   */\n      dup2\n        /* \"#utility.yul\":9018:9053   */\n      eq\n        /* \"#utility.yul\":9008:9071   */\n      tag_439\n      jumpi\n        /* \"#utility.yul\":9067:9068   */\n      0x00\n        /* \"#utility.yul\":9064:9065   */\n      dup1\n        /* \"#utility.yul\":9057:9069   */\n      revert\n        /* \"#utility.yul\":9008:9071   */\n    tag_439:\n        /* \"#utility.yul\":8955:9077   */\n      pop\n      jump\t// out\n        /* \"#utility.yul\":9083:9222   */\n    tag_318:\n        /* \"#utility.yul\":9129:9134   */\n      0x00\n        /* \"#utility.yul\":9167:9173   */\n      dup2\n        /* \"#utility.yul\":9154:9174   */\n      calldataload\n        /* \"#utility.yul\":9145:9174   */\n      swap1\n      pop\n        /* \"#utility.yul\":9183:9216   */\n      tag_441\n        /* \"#utility.yul\":9210:9215   */\n      dup2\n        /* \"#utility.yul\":9183:9216   */\n      tag_317\n      jump\t// in\n    tag_441:\n        /* \"#utility.yul\":9083:9222   */\n      swap3\n      swap2\n      pop\n      pop\n      jump\t// out\n        /* \"#utility.yul\":9228:9847   */\n    tag_42:\n        /* \"#utility.yul\":9305:9311   */\n      0x00\n        /* \"#utility.yul\":9313:9319   */\n      dup1\n        /* \"#utility.yul\":9321:9327   */\n      0x00\n        /* \"#utility.yul\":9370:9372   */\n      0x60\n        /* \"#utility.yul\":9358:9367   */\n      dup5\n        /* \"#utility.yul\":9349:9356   */\n      dup7\n        /* \"#utility.yul\":9345:9368   */\n      sub\n        /* \"#utility.yul\":9341:9373   */\n      slt\n        /* \"#utility.yul\":9338:9457   */\n      iszero\n      tag_443\n      jumpi\n        /* \"#utility.yul\":9376:9455   */\n      tag_444\n      tag_313\n      jump\t// in\n    tag_444:\n        /* \"#utility.yul\":9338:9457   */\n    tag_443:\n        /* \"#utility.yul\":9496:9497   */\n      0x00\n        /* \"#utility.yul\":9521:9574   */\n      tag_445\n        /* \"#utility.yul\":9566:9573   */\n      dup7\n        /* \"#utility.yul\":9557:9563   */\n      dup3\n        /* \"#utility.yul\":9546:9555   */\n      dup8\n        /* \"#utility.yul\":9542:9564   */\n      add\n        /* \"#utility.yul\":9521:9574   */\n      tag_316\n      jump\t// in\n    tag_445:\n        /* \"#utility.yul\":9511:9574   */\n      swap4\n      pop\n        /* \"#utility.yul\":9467:9584   */\n      pop\n        /* \"#utility.yul\":9623:9625   */\n      0x20\n        /* \"#utility.yul\":9649:9702   */\n      tag_446\n        /* \"#utility.yul\":9694:9701   */\n      dup7\n        /* \"#utility.yul\":9685:9691   */\n      dup3\n        /* \"#utility.yul\":9674:9683   */\n      dup8\n        /* \"#utility.yul\":9670:9692   */\n      add\n        /* \"#utility.yul\":9649:9702   */\n      tag_318\n      jump\t// in\n    tag_446:\n        /* \"#utility.yul\":9639:9702   */\n      swap3\n      pop\n        /* \"#utility.yul\":9594:9712   */\n      pop\n        /* \"#utility.yul\":9751:9753   */\n      0x40\n        /* \"#utility.yul\":9777:9830   */\n      tag_447\n        /* \"#utility.yul\":9822:9829   */\n      dup7\n        /* \"#utility.yul\":9813:9819   */\n      dup3\n        /* \"#utility.yul\":9802:9811   */\n      dup8\n        /* \"#utility.yul\":9798:9820   */\n      add\n        /* \"#utility.yul\":9777:9830   */\n      tag_318\n      jump\t// in\n    tag_447:\n        /* \"#utility.yul\":9767:9830   */\n      swap2\n      pop\n        /* \"#utility.yul\":9722:9840   */\n      pop\n        /* \"#utility.yul\":9228:9847   */\n      swap3\n      pop\n      swap3\n      pop\n      swap3\n      jump\t// out\n        /* \"#utility.yul\":9853:10182   */\n    tag_47:\n        /* \"#utility.yul\":9912:9918   */\n      0x00\n        /* \"#utility.yul\":9961:9963   */\n      0x20\n        /* \"#utility.yul\":9949:9958   */\n      dup3\n        /* \"#utility.yul\":9940:9947   */\n      dup5\n        /* \"#utility.yul\":9936:9959   */\n      sub\n        /* \"#utility.yul\":9932:9964   */\n      slt\n        /* \"#utility.yul\":9929:10048   */\n      iszero\n      tag_449\n      jumpi\n        /* \"#utility.yul\":9967:10046   */\n      tag_450\n      tag_313\n      jump\t// in\n    tag_450:\n        /* \"#utility.yul\":9929:10048   */\n    tag_449:\n        /* \"#utility.yul\":10087:10088   */\n      0x00\n        /* \"#utility.yul\":10112:10165   */\n      tag_451\n        /* \"#utility.yul\":10157:10164   */\n      dup5\n        /* \"#utility.yul\":10148:10154   */\n      dup3\n        /* \"#utility.yul\":10137:10146   */\n      dup6\n        /* \"#utility.yul\":10133:10155   */\n      add\n        /* \"#utility.yul\":10112:10165   */\n      tag_318\n      jump\t// in\n    tag_451:\n        /* \"#utility.yul\":10102:10165   */\n      swap2\n      pop\n        /* \"#utility.yul\":10058:10175   */\n      pop\n        /* \"#utility.yul\":9853:10182   */\n      swap3\n      swap2\n      pop\n      pop\n      jump\t// out\n        /* \"#utility.yul\":10188:10337   */\n    tag_319:\n        /* \"#utility.yul\":10224:10231   */\n      0x00\n        /* \"#utility.yul\":10264:10330   */\n      0xffffffff00000000000000000000000000000000000000000000000000000000\n        /* \"#utility.yul\":10257:10262   */\n      dup3\n        /* \"#utility.yul\":10253:10331   */\n      and\n        /* \"#utility.yul\":10242:10331   */\n      swap1\n      pop\n        /* \"#utility.yul\":10188:10337   */\n      swap2\n      swap1\n      pop\n      jump\t// out\n        /* \"#utility.yul\":10343:10458   */\n    tag_320:\n        /* \"#utility.yul\":10428:10451   */\n      tag_454\n        /* \"#utility.yul\":10445:10450   */\n      dup2\n        /* \"#utility.yul\":10428:10451   */\n      tag_319\n      jump\t// in\n    tag_454:\n        /* \"#utility.yul\":10423:10426   */\n      dup3\n        /* \"#utility.yul\":10416:10452   */\n      mstore\n        /* \"#utility.yul\":10343:10458   */\n      pop\n      pop\n      jump\t// out\n        /* \"#utility.yul\":10464:10682   */\n    tag_54:\n        /* \"#utility.yul\":10555:10559   */\n      0x00\n        /* \"#utility.yul\":10593:10595   */\n      0x20\n        /* \"#utility.yul\":10582:10591   */\n      dup3\n        /* \"#utility.yul\":10578:10596   */\n      add\n        /* \"#utility.yul\":10570:10596   */\n      swap1\n      pop\n        /* \"#utility.yul\":10606:10675   */\n      tag_456\n        /* \"#utility.yul\":10672:10673   */\n      0x00\n        /* \"#utility.yul\":10661:10670   */\n      dup4\n        /* \"#utility.yul\":10657:10674   */\n      add\n        /* \"#utility.yul\":10648:10654   */\n      dup5\n        /* \"#utility.yul\":10606:10675   */\n      tag_320\n      jump\t// in\n    tag_456:\n        /* \"#utility.yul\":10464:10682   */\n      swap3\n      swap2\n      pop\n      pop\n      jump\t// out\n        /* \"#utility.yul\":10688:10806   */\n    tag_321:\n        /* \"#utility.yul\":10775:10799   */\n      tag_458\n        /* \"#utility.yul\":10793:10798   */\n      dup2\n        /* \"#utility.yul\":10775:10799   */\n      tag_288\n      jump\t// in\n    tag_458:\n        /* \"#utility.yul\":10770:10773   */\n      dup3\n        /* \"#utility.yul\":10763:10800   */\n      mstore\n        /* \"#utility.yul\":10688:10806   */\n      pop\n      pop\n      jump\t// out\n        /* \"#utility.yul\":10812:10930   */\n    tag_322:\n        /* \"#utility.yul\":10899:10923   */\n      tag_460\n        /* \"#utility.yul\":10917:10922   */\n      dup2\n        /* \"#utility.yul\":10899:10923   */\n      tag_291\n      jump\t// in\n    tag_460:\n        /* \"#utility.yul\":10894:10897   */\n      dup3\n        /* \"#utility.yul\":10887:10924   */\n      mstore\n        /* \"#utility.yul\":10812:10930   */\n      pop\n      pop\n      jump\t// out\n        /* \"#utility.yul\":10936:11078   */\n    tag_323:\n        /* \"#utility.yul\":11039:11071   */\n      tag_462\n        /* \"#utility.yul\":11065:11070   */\n      dup2\n        /* \"#utility.yul\":11039:11071   */\n      tag_293\n      jump\t// in\n    tag_462:\n        /* \"#utility.yul\":11034:11037   */\n      dup3\n        /* \"#utility.yul\":11027:11072   */\n      mstore\n        /* \"#utility.yul\":10936:11078   */\n      pop\n      pop\n      jump\t// out\n        /* \"#utility.yul\":11084:11239   */\n    tag_324:\n        /* \"#utility.yul\":11183:11232   */\n      tag_464\n        /* \"#utility.yul\":11226:11231   */\n      dup2\n        /* \"#utility.yul\":11183:11232   */\n      tag_297\n      jump\t// in\n    tag_464:\n        /* \"#utility.yul\":11178:11181   */\n      dup3\n        /* \"#utility.yul\":11171:11233   */\n      mstore\n        /* \"#utility.yul\":11084:11239   */\n      pop\n      pop\n      jump\t// out\n        /* \"#utility.yul\":11245:12219   */\n    tag_59:\n        /* \"#utility.yul\":11550:11554   */\n      0x00\n        /* \"#utility.yul\":11588:11591   */\n      0xe0\n        /* \"#utility.yul\":11577:11586   */\n      dup3\n        /* \"#utility.yul\":11573:11592   */\n      add\n        /* \"#utility.yul\":11565:11592   */\n      swap1\n      pop\n        /* \"#utility.yul\":11602:11673   */\n      tag_466\n        /* \"#utility.yul\":11670:11671   */\n      0x00\n        /* \"#utility.yul\":11659:11668   */\n      dup4\n        /* \"#utility.yul\":11655:11672   */\n      add\n        /* \"#utility.yul\":11646:11652   */\n      dup11\n        /* \"#utility.yul\":11602:11673   */\n      tag_321\n      jump\t// in\n    tag_466:\n        /* \"#utility.yul\":11683:11755   */\n      tag_467\n        /* \"#utility.yul\":11751:11753   */\n      0x20\n        /* \"#utility.yul\":11740:11749   */\n      dup4\n        /* \"#utility.yul\":11736:11754   */\n      add\n        /* \"#utility.yul\":11727:11733   */\n      dup10\n        /* \"#utility.yul\":11683:11755   */\n      tag_322\n      jump\t// in\n    tag_467:\n        /* \"#utility.yul\":11765:11837   */\n      tag_468\n        /* \"#utility.yul\":11833:11835   */\n      0x40\n        /* \"#utility.yul\":11822:11831   */\n      dup4\n        /* \"#utility.yul\":11818:11836   */\n      add\n        /* \"#utility.yul\":11809:11815   */\n      dup9\n        /* \"#utility.yul\":11765:11837   */\n      tag_321\n      jump\t// in\n    tag_468:\n        /* \"#utility.yul\":11847:11935   */\n      tag_469\n        /* \"#utility.yul\":11931:11933   */\n      0x60\n        /* \"#utility.yul\":11920:11929   */\n      dup4\n        /* \"#utility.yul\":11916:11934   */\n      add\n        /* \"#utility.yul\":11907:11913   */\n      dup8\n        /* \"#utility.yul\":11847:11935   */\n      tag_323\n      jump\t// in\n    tag_469:\n        /* \"#utility.yul\":11945:12034   */\n      tag_470\n        /* \"#utility.yul\":12029:12032   */\n      0x80\n        /* \"#utility.yul\":12018:12027   */\n      dup4\n        /* \"#utility.yul\":12014:12033   */\n      add\n        /* \"#utility.yul\":12005:12011   */\n      dup7\n        /* \"#utility.yul\":11945:12034   */\n      tag_323\n      jump\t// in\n    tag_470:\n        /* \"#utility.yul\":12044:12117   */\n      tag_471\n        /* \"#utility.yul\":12112:12115   */\n      0xa0\n        /* \"#utility.yul\":12101:12110   */\n      dup4\n        /* \"#utility.yul\":12097:12116   */\n      add\n        /* \"#utility.yul\":12088:12094   */\n      dup6\n        /* \"#utility.yul\":12044:12117   */\n      tag_321\n      jump\t// in\n    tag_471:\n        /* \"#utility.yul\":12127:12212   */\n      tag_472\n        /* \"#utility.yul\":12207:12210   */\n      0xc0\n        /* \"#utility.yul\":12196:12205   */\n      dup4\n        /* \"#utility.yul\":12192:12211   */\n      add\n        /* \"#utility.yul\":12183:12189   */\n      dup5\n        /* \"#utility.yul\":12127:12212   */\n      tag_324\n      jump\t// in\n    tag_472:\n        /* \"#utility.yul\":11245:12219   */\n      swap9\n      swap8\n      pop\n      pop\n      pop\n      pop\n      pop\n      pop\n      pop\n      pop\n      jump\t// out\n        /* \"#utility.yul\":12225:12699   */\n    tag_66:\n        /* \"#utility.yul\":12293:12299   */\n      0x00\n        /* \"#utility.yul\":12301:12307   */\n      dup1\n        /* \"#utility.yul\":12350:12352   */\n      0x40\n        /* \"#utility.yul\":12338:12347   */\n      dup4\n        /* \"#utility.yul\":12329:12336   */\n      dup6\n        /* \"#utility.yul\":12325:12348   */\n      sub\n        /* \"#utility.yul\":12321:12353   */\n      slt\n        /* \"#utility.yul\":12318:12437   */\n      iszero\n      tag_474\n      jumpi\n        /* \"#utility.yul\":12356:12435   */\n      tag_475\n      tag_313\n      jump\t// in\n    tag_475:\n        /* \"#utility.yul\":12318:12437   */\n    tag_474:\n        /* \"#utility.yul\":12476:12477   */\n      0x00\n        /* \"#utility.yul\":12501:12554   */\n      tag_476\n        /* \"#utility.yul\":12546:12553   */\n      dup6\n        /* \"#utility.yul\":12537:12543   */\n      dup3\n        /* \"#utility.yul\":12526:12535   */\n      dup7\n        /* \"#utility.yul\":12522:12544   */\n      add\n        /* \"#utility.yul\":12501:12554   */\n      tag_316\n      jump\t// in\n    tag_476:\n        /* \"#utility.yul\":12491:12554   */\n      swap3\n      pop\n        /* \"#utility.yul\":12447:12564   */\n      pop\n        /* \"#utility.yul\":12603:12605   */\n      0x20\n        /* \"#utility.yul\":12629:12682   */\n      tag_477\n        /* \"#utility.yul\":12674:12681   */\n      dup6\n        /* \"#utility.yul\":12665:12671   */\n      dup3\n        /* \"#utility.yul\":12654:12663   */\n      dup7\n        /* \"#utility.yul\":12650:12672   */\n      add\n        /* \"#utility.yul\":12629:12682   */\n      tag_318\n      jump\t// in\n    tag_477:\n        /* \"#utility.yul\":12619:12682   */\n      swap2\n      pop\n        /* \"#utility.yul\":12574:12692   */\n      pop\n        /* \"#utility.yul\":12225:12699   */\n      swap3\n      pop\n      swap3\n      swap1\n      pop\n      jump\t// out\n        /* \"#utility.yul\":12705:12791   */\n    tag_325:\n        /* \"#utility.yul\":12740:12747   */\n      0x00\n        /* \"#utility.yul\":12780:12784   */\n      0xff\n        /* \"#utility.yul\":12773:12778   */\n      dup3\n        /* \"#utility.yul\":12769:12785   */\n      and\n        /* \"#utility.yul\":12758:12785   */\n      swap1\n      pop\n        /* \"#utility.yul\":12705:12791   */\n      swap2\n      swap1\n      pop\n      jump\t// out\n        /* \"#utility.yul\":12797:12909   */\n    tag_326:\n        /* \"#utility.yul\":12880:12902   */\n      tag_480\n        /* \"#utility.yul\":12896:12901   */\n      dup2\n        /* \"#utility.yul\":12880:12902   */\n      tag_325\n      jump\t// in\n    tag_480:\n        /* \"#utility.yul\":12875:12878   */\n      dup3\n        /* \"#utility.yul\":12868:12903   */\n      mstore\n        /* \"#utility.yul\":12797:12909   */\n      pop\n      pop\n      jump\t// out\n        /* \"#utility.yul\":12915:13129   */\n    tag_76:\n        /* \"#utility.yul\":13004:13008   */\n      0x00\n        /* \"#utility.yul\":13042:13044   */\n      0x20\n        /* \"#utility.yul\":13031:13040   */\n      dup3\n        /* \"#utility.yul\":13027:13045   */\n      add\n        /* \"#utility.yul\":13019:13045   */\n      swap1\n      pop\n        /* \"#utility.yul\":13055:13122   */\n      tag_482\n        /* \"#utility.yul\":13119:13120   */\n      0x00\n        /* \"#utility.yul\":13108:13117   */\n      dup4\n        /* \"#utility.yul\":13104:13121   */\n      add\n        /* \"#utility.yul\":13095:13101   */\n      dup5\n        /* \"#utility.yul\":13055:13122   */\n      tag_326\n      jump\t// in\n    tag_482:\n        /* \"#utility.yul\":12915:13129   */\n      swap3\n      swap2\n      pop\n      pop\n      jump\t// out\n        /* \"#utility.yul\":13135:13357   */\n    tag_81:\n        /* \"#utility.yul\":13228:13232   */\n      0x00\n        /* \"#utility.yul\":13266:13268   */\n      0x20\n        /* \"#utility.yul\":13255:13264   */\n      dup3\n        /* \"#utility.yul\":13251:13269   */\n      add\n        /* \"#utility.yul\":13243:13269   */\n      swap1\n      pop\n        /* \"#utility.yul\":13279:13350   */\n      tag_484\n        /* \"#utility.yul\":13347:13348   */\n      0x00\n        /* \"#utility.yul\":13336:13345   */\n      dup4\n        /* \"#utility.yul\":13332:13349   */\n      add\n        /* \"#utility.yul\":13323:13329   */\n      dup5\n        /* \"#utility.yul\":13279:13350   */\n      tag_322\n      jump\t// in\n    tag_484:\n        /* \"#utility.yul\":13135:13357   */\n      swap3\n      swap2\n      pop\n      pop\n      jump\t// out\n        /* \"#utility.yul\":13363:13692   */\n    tag_85:\n        /* \"#utility.yul\":13422:13428   */\n      0x00\n        /* \"#utility.yul\":13471:13473   */\n      0x20\n        /* \"#utility.yul\":13459:13468   */\n      dup3\n        /* \"#utility.yul\":13450:13457   */\n      dup5\n        /* \"#utility.yul\":13446:13469   */\n      sub\n        /* \"#utility.yul\":13442:13474   */\n      slt\n        /* \"#utility.yul\":13439:13558   */\n      iszero\n      tag_486\n      jumpi\n        /* \"#utility.yul\":13477:13556   */\n      tag_487\n      tag_313\n      jump\t// in\n    tag_487:\n        /* \"#utility.yul\":13439:13558   */\n    tag_486:\n        /* \"#utility.yul\":13597:13598   */\n      0x00\n        /* \"#utility.yul\":13622:13675   */\n      tag_488\n        /* \"#utility.yul\":13667:13674   */\n      dup5\n        /* \"#utility.yul\":13658:13664   */\n      dup3\n        /* \"#utility.yul\":13647:13656   */\n      dup6\n        /* \"#utility.yul\":13643:13665   */\n      add\n        /* \"#utility.yul\":13622:13675   */\n      tag_316\n      jump\t// in\n    tag_488:\n        /* \"#utility.yul\":13612:13675   */\n      swap2\n      pop\n        /* \"#utility.yul\":13568:13685   */\n      pop\n        /* \"#utility.yul\":13363:13692   */\n      swap3\n      swap2\n      pop\n      pop\n      jump\t// out\n        /* \"#utility.yul\":13698:13840   */\n    tag_327:\n        /* \"#utility.yul\":13764:13773   */\n      0x00\n        /* \"#utility.yul\":13797:13834   */\n      tag_490\n        /* \"#utility.yul\":13828:13833   */\n      dup3\n        /* \"#utility.yul\":13797:13834   */\n      tag_302\n      jump\t// in\n    tag_490:\n        /* \"#utility.yul\":13784:13834   */\n      swap1\n      pop\n        /* \"#utility.yul\":13698:13840   */\n      swap2\n      swap1\n      pop\n      jump\t// out\n        /* \"#utility.yul\":13846:14009   */\n    tag_328:\n        /* \"#utility.yul\":13949:14002   */\n      tag_492\n        /* \"#utility.yul\":13996:14001   */\n      dup2\n        /* \"#utility.yul\":13949:14002   */\n      tag_327\n      jump\t// in\n    tag_492:\n        /* \"#utility.yul\":13944:13947   */\n      dup3\n        /* \"#utility.yul\":13937:14003   */\n      mstore\n        /* \"#utility.yul\":13846:14009   */\n      pop\n      pop\n      jump\t// out\n        /* \"#utility.yul\":14015:14269   */\n    tag_99:\n        /* \"#utility.yul\":14124:14128   */\n      0x00\n        /* \"#utility.yul\":14162:14164   */\n      0x20\n        /* \"#utility.yul\":14151:14160   */\n      dup3\n        /* \"#utility.yul\":14147:14165   */\n      add\n        /* \"#utility.yul\":14139:14165   */\n      swap1\n      pop\n        /* \"#utility.yul\":14175:14262   */\n      tag_494\n        /* \"#utility.yul\":14259:14260   */\n      0x00\n        /* \"#utility.yul\":14248:14257   */\n      dup4\n        /* \"#utility.yul\":14244:14261   */\n      add\n        /* \"#utility.yul\":14235:14241   */\n      dup5\n        /* \"#utility.yul\":14175:14262   */\n      tag_328\n      jump\t// in\n    tag_494:\n        /* \"#utility.yul\":14015:14269   */\n      swap3\n      swap2\n      pop\n      pop\n      jump\t// out\n        /* \"#utility.yul\":14275:14455   */\n    tag_329:\n        /* \"#utility.yul\":14323:14400   */\n      0x4e487b7100000000000000000000000000000000000000000000000000000000\n        /* \"#utility.yul\":14320:14321   */\n      0x00\n        /* \"#utility.yul\":14313:14401   */\n      mstore\n        /* \"#utility.yul\":14420:14424   */\n      0x11\n        /* \"#utility.yul\":14417:14418   */\n      0x04\n        /* \"#utility.yul\":14410:14425   */\n      mstore\n        /* \"#utility.yul\":14444:14448   */\n      0x24\n        /* \"#utility.yul\":14441:14442   */\n      0x00\n        /* \"#utility.yul\":14434:14449   */\n      revert\n        /* \"#utility.yul\":14461:14766   */\n    tag_129:\n        /* \"#utility.yul\":14501:14504   */\n      0x00\n        /* \"#utility.yul\":14520:14540   */\n      tag_497\n        /* \"#utility.yul\":14538:14539   */\n      dup3\n        /* \"#utility.yul\":14520:14540   */\n      tag_288\n      jump\t// in\n    tag_497:\n        /* \"#utility.yul\":14515:14540   */\n      swap2\n      pop\n        /* \"#utility.yul\":14554:14574   */\n      tag_498\n        /* \"#utility.yul\":14572:14573   */\n      dup4\n        /* \"#utility.yul\":14554:14574   */\n      tag_288\n      jump\t// in\n    tag_498:\n        /* \"#utility.yul\":14549:14574   */\n      swap3\n      pop\n        /* \"#utility.yul\":14708:14709   */\n      dup3\n        /* \"#utility.yul\":14640:14706   */\n      0xffffffffffffffffffffffffffffffffffffffffffffffffffffffffffffffff\n        /* \"#utility.yul\":14636:14710   */\n      sub\n        /* \"#utility.yul\":14633:14634   */\n      dup3\n        /* \"#utility.yul\":14630:14711   */\n      gt\n        /* \"#utility.yul\":14627:14734   */\n      iszero\n      tag_499\n      jumpi\n        /* \"#utility.yul\":14714:14732   */\n      tag_500\n      tag_329\n      jump\t// in\n    tag_500:\n        /* \"#utility.yul\":14627:14734   */\n    tag_499:\n        /* \"#utility.yul\":14758:14759   */\n      dup3\n        /* \"#utility.yul\":14755:14756   */\n      dup3\n        /* \"#utility.yul\":14751:14760   */\n      add\n        /* \"#utility.yul\":14744:14760   */\n      swap1\n      pop\n        /* \"#utility.yul\":14461:14766   */\n      swap3\n      swap2\n      pop\n      pop\n      jump\t// out\n        /* \"#utility.yul\":14772:15005   */\n    tag_133:\n        /* \"#utility.yul\":14811:14814   */\n      0x00\n        /* \"#utility.yul\":14834:14858   */\n      tag_502\n        /* \"#utility.yul\":14852:14857   */\n      dup3\n        /* \"#utility.yul\":14834:14858   */\n      tag_288\n      jump\t// in\n    tag_502:\n        /* \"#utility.yul\":14825:14858   */\n      swap2\n      pop\n        /* \"#utility.yul\":14880:14946   */\n      0xffffffffffffffffffffffffffffffffffffffffffffffffffffffffffffffff\n        /* \"#utility.yul\":14873:14878   */\n      dup3\n        /* \"#utility.yul\":14870:14947   */\n      sub\n        /* \"#utility.yul\":14867:14970   */\n      tag_503\n      jumpi\n        /* \"#utility.yul\":14950:14968   */\n      tag_504\n      tag_329\n      jump\t// in\n    tag_504:\n        /* \"#utility.yul\":14867:14970   */\n    tag_503:\n        /* \"#utility.yul\":14997:14998   */\n      0x01\n        /* \"#utility.yul\":14990:14995   */\n      dup3\n        /* \"#utility.yul\":14986:14999   */\n      add\n        /* \"#utility.yul\":14979:14999   */\n      swap1\n      pop\n        /* \"#utility.yul\":14772:15005   */\n      swap2\n      swap1\n      pop\n      jump\t// out\n        /* \"#utility.yul\":15011:15191   */\n    tag_136:\n        /* \"#utility.yul\":15059:15136   */\n      0x4e487b7100000000000000000000000000000000000000000000000000000000\n        /* \"#utility.yul\":15056:15057   */\n      0x00\n        /* \"#utility.yul\":15049:15137   */\n      mstore\n        /* \"#utility.yul\":15156:15160   */\n      0x41\n        /* \"#utility.yul\":15153:15154   */\n      0x04\n        /* \"#utility.yul\":15146:15161   */\n      mstore\n        /* \"#utility.yul\":15180:15184   */\n      0x24\n        /* \"#utility.yul\":15177:15178   */\n      0x00\n        /* \"#utility.yul\":15170:15185   */\n      revert\n        /* \"#utility.yul\":15197:15377   */\n    tag_152:\n        /* \"#utility.yul\":15245:15322   */\n      0x4e487b7100000000000000000000000000000000000000000000000000000000\n        /* \"#utility.yul\":15242:15243   */\n      0x00\n        /* \"#utility.yul\":15235:15323   */\n      mstore\n        /* \"#utility.yul\":15342:15346   */\n      0x32\n        /* \"#utility.yul\":15339:15340   */\n      0x04\n        /* \"#utility.yul\":15332:15347   */\n      mstore\n        /* \"#utility.yul\":15366:15370   */\n      0x24\n        /* \"#utility.yul\":15363:15364   */\n      0x00\n        /* \"#utility.yul\":15356:15371   */\n      revert\n        /* \"#utility.yul\":15383:15552   */\n    tag_330:\n        /* \"#utility.yul\":15467:15478   */\n      0x00\n        /* \"#utility.yul\":15501:15507   */\n      dup3\n        /* \"#utility.yul\":15496:15499   */\n      dup3\n        /* \"#utility.yul\":15489:15508   */\n      mstore\n        /* \"#utility.yul\":15541:15545   */\n      0x20\n        /* \"#utility.yul\":15536:15539   */\n      dup3\n        /* \"#utility.yul\":15532:15546   */\n      add\n        /* \"#utility.yul\":15517:15546   */\n      swap1\n      pop\n        /* \"#utility.yul\":15383:15552   */\n      swap3\n      swap2\n      pop\n      pop\n      jump\t// out\n        /* \"#utility.yul\":15558:15739   */\n    tag_331:\n        /* \"#utility.yul\":15698:15731   */\n      0x5265656e7472616e637947756172643a207265656e7472616e742063616c6c00\n        /* \"#utility.yul\":15694:15695   */\n      0x00\n        /* \"#utility.yul\":15686:15692   */\n      dup3\n        /* \"#utility.yul\":15682:15696   */\n      add\n        /* \"#utility.yul\":15675:15732   */\n      mstore\n        /* \"#utility.yul\":15558:15739   */\n      pop\n      jump\t// out\n        /* \"#utility.yul\":15745:16111   */\n    tag_332:\n        /* \"#utility.yul\":15887:15890   */\n      0x00\n        /* \"#utility.yul\":15908:15975   */\n      tag_510\n        /* \"#utility.yul\":15972:15974   */\n      0x1f\n        /* \"#utility.yul\":15967:15970   */\n      dup4\n        /* \"#utility.yul\":15908:15975   */\n      tag_330\n      jump\t// in\n    tag_510:\n        /* \"#utility.yul\":15901:15975   */\n      swap2\n      pop\n        /* \"#utility.yul\":15984:16077   */\n      tag_511\n        /* \"#utility.yul\":16073:16076   */\n      dup3\n        /* \"#utility.yul\":15984:16077   */\n      tag_331\n      jump\t// in\n    tag_511:\n        /* \"#utility.yul\":16102:16104   */\n      0x20\n        /* \"#utility.yul\":16097:16100   */\n      dup3\n        /* \"#utility.yul\":16093:16105   */\n      add\n        /* \"#utility.yul\":16086:16105   */\n      swap1\n      pop\n        /* \"#utility.yul\":15745:16111   */\n      swap2\n      swap1\n      pop\n      jump\t// out\n        /* \"#utility.yul\":16117:16536   */\n    tag_158:\n        /* \"#utility.yul\":16283:16287   */\n      0x00\n        /* \"#utility.yul\":16321:16323   */\n      0x20\n        /* \"#utility.yul\":16310:16319   */\n      dup3\n        /* \"#utility.yul\":16306:16324   */\n      add\n        /* \"#utility.yul\":16298:16324   */\n      swap1\n      pop\n        /* \"#utility.yul\":16370:16379   */\n      dup2\n        /* \"#utility.yul\":16364:16368   */\n      dup2\n        /* \"#utility.yul\":16360:16380   */\n      sub\n        /* \"#utility.yul\":16356:16357   */\n      0x00\n        /* \"#utility.yul\":16345:16354   */\n      dup4\n        /* \"#utility.yul\":16341:16358   */\n      add\n        /* \"#utility.yul\":16334:16381   */\n      mstore\n        /* \"#utility.yul\":16398:16529   */\n      tag_513\n        /* \"#utility.yul\":16524:16528   */\n      dup2\n        /* \"#utility.yul\":16398:16529   */\n      tag_332\n      jump\t// in\n    tag_513:\n        /* \"#utility.yul\":16390:16529   */\n      swap1\n      pop\n        /* \"#utility.yul\":16117:16536   */\n      swap2\n      swap1\n      pop\n      jump\t// out\n        /* \"#utility.yul\":16542:16793   */\n    tag_333:\n        /* \"#utility.yul\":16682:16716   */\n      0x506c65617365207375626d6974207468652061736b696e672070726963652069\n        /* \"#utility.yul\":16678:16679   */\n      0x00\n        /* \"#utility.yul\":16670:16676   */\n      dup3\n        /* \"#utility.yul\":16666:16680   */\n      add\n        /* \"#utility.yul\":16659:16717   */\n      mstore\n        /* \"#utility.yul\":16751:16785   */\n      0x6e206f7264657220746f20636f6d706c65746520746865207075726368617365\n        /* \"#utility.yul\":16746:16748   */\n      0x20\n        /* \"#utility.yul\":16738:16744   */\n      dup3\n        /* \"#utility.yul\":16734:16749   */\n      add\n        /* \"#utility.yul\":16727:16786   */\n      mstore\n        /* \"#utility.yul\":16542:16793   */\n      pop\n      jump\t// out\n        /* \"#utility.yul\":16799:17165   */\n    tag_334:\n        /* \"#utility.yul\":16941:16944   */\n      0x00\n        /* \"#utility.yul\":16962:17029   */\n      tag_516\n        /* \"#utility.yul\":17026:17028   */\n      0x40\n        /* \"#utility.yul\":17021:17024   */\n      dup4\n        /* \"#utility.yul\":16962:17029   */\n      tag_330\n      jump\t// in\n    tag_516:\n        /* \"#utility.yul\":16955:17029   */\n      swap2\n      pop\n        /* \"#utility.yul\":17038:17131   */\n      tag_517\n        /* \"#utility.yul\":17127:17130   */\n      dup3\n        /* \"#utility.yul\":17038:17131   */\n      tag_333\n      jump\t// in\n    tag_517:\n        /* \"#utility.yul\":17156:17158   */\n      0x40\n        /* \"#utility.yul\":17151:17154   */\n      dup3\n        /* \"#utility.yul\":17147:17159   */\n      add\n        /* \"#utility.yul\":17140:17159   */\n      swap1\n      pop\n        /* \"#utility.yul\":16799:17165   */\n      swap2\n      swap1\n      pop\n      jump\t// out\n        /* \"#utility.yul\":17171:17590   */\n    tag_162:\n        /* \"#utility.yul\":17337:17341   */\n      0x00\n        /* \"#utility.yul\":17375:17377   */\n      0x20\n        /* \"#utility.yul\":17364:17373   */\n      dup3\n        /* \"#utility.yul\":17360:17378   */\n      add\n        /* \"#utility.yul\":17352:17378   */\n      swap1\n      pop\n        /* \"#utility.yul\":17424:17433   */\n      dup2\n        /* \"#utility.yul\":17418:17422   */\n      dup2\n        /* \"#utility.yul\":17414:17434   */\n      sub\n        /* \"#utility.yul\":17410:17411   */\n      0x00\n        /* \"#utility.yul\":17399:17408   */\n      dup4\n        /* \"#utility.yul\":17395:17412   */\n      add\n        /* \"#utility.yul\":17388:17435   */\n      mstore\n        /* \"#utility.yul\":17452:17583   */\n      tag_519\n        /* \"#utility.yul\":17578:17582   */\n      dup2\n        /* \"#utility.yul\":17452:17583   */\n      tag_334\n      jump\t// in\n    tag_519:\n        /* \"#utility.yul\":17444:17583   */\n      swap1\n      pop\n        /* \"#utility.yul\":17171:17590   */\n      swap2\n      swap1\n      pop\n      jump\t// out\n        /* \"#utility.yul\":17596:17730   */\n    tag_335:\n        /* \"#utility.yul\":17654:17663   */\n      0x00\n        /* \"#utility.yul\":17687:17724   */\n      tag_521\n        /* \"#utility.yul\":17718:17723   */\n      dup3\n        /* \"#utility.yul\":17687:17724   */\n      tag_302\n      jump\t// in\n    tag_521:\n        /* \"#utility.yul\":17674:17724   */\n      swap1\n      pop\n        /* \"#utility.yul\":17596:17730   */\n      swap2\n      swap1\n      pop\n      jump\t// out\n        /* \"#utility.yul\":17736:17883   */\n    tag_336:\n        /* \"#utility.yul\":17831:17876   */\n      tag_523\n        /* \"#utility.yul\":17870:17875   */\n      dup2\n        /* \"#utility.yul\":17831:17876   */\n      tag_335\n      jump\t// in\n    tag_523:\n        /* \"#utility.yul\":17826:17829   */\n      dup3\n        /* \"#utility.yul\":17819:17877   */\n      mstore\n        /* \"#utility.yul\":17736:17883   */\n      pop\n      pop\n      jump\t// out\n        /* \"#utility.yul\":17889:18347   */\n    tag_164:\n        /* \"#utility.yul\":18046:18050   */\n      0x00\n        /* \"#utility.yul\":18084:18086   */\n      0x60\n        /* \"#utility.yul\":18073:18082   */\n      dup3\n        /* \"#utility.yul\":18069:18087   */\n      add\n        /* \"#utility.yul\":18061:18087   */\n      swap1\n      pop\n        /* \"#utility.yul\":18097:18168   */\n      tag_525\n        /* \"#utility.yul\":18165:18166   */\n      0x00\n        /* \"#utility.yul\":18154:18163   */\n      dup4\n        /* \"#utility.yul\":18150:18167   */\n      add\n        /* \"#utility.yul\":18141:18147   */\n      dup7\n        /* \"#utility.yul\":18097:18168   */\n      tag_322\n      jump\t// in\n    tag_525:\n        /* \"#utility.yul\":18178:18258   */\n      tag_526\n        /* \"#utility.yul\":18254:18256   */\n      0x20\n        /* \"#utility.yul\":18243:18252   */\n      dup4\n        /* \"#utility.yul\":18239:18257   */\n      add\n        /* \"#utility.yul\":18230:18236   */\n      dup6\n        /* \"#utility.yul\":18178:18258   */\n      tag_336\n      jump\t// in\n    tag_526:\n        /* \"#utility.yul\":18268:18340   */\n      tag_527\n        /* \"#utility.yul\":18336:18338   */\n      0x40\n        /* \"#utility.yul\":18325:18334   */\n      dup4\n        /* \"#utility.yul\":18321:18339   */\n      add\n        /* \"#utility.yul\":18312:18318   */\n      dup5\n        /* \"#utility.yul\":18268:18340   */\n      tag_321\n      jump\t// in\n    tag_527:\n        /* \"#utility.yul\":17889:18347   */\n      swap5\n      swap4\n      pop\n      pop\n      pop\n      pop\n      jump\t// out\n        /* \"#utility.yul\":18353:18443   */\n    tag_337:\n        /* \"#utility.yul\":18387:18394   */\n      0x00\n        /* \"#utility.yul\":18430:18435   */\n      dup2\n        /* \"#utility.yul\":18423:18436   */\n      iszero\n        /* \"#utility.yul\":18416:18437   */\n      iszero\n        /* \"#utility.yul\":18405:18437   */\n      swap1\n      pop\n        /* \"#utility.yul\":18353:18443   */\n      swap2\n      swap1\n      pop\n      jump\t// out\n        /* \"#utility.yul\":18449:18565   */\n    tag_338:\n        /* \"#utility.yul\":18519:18540   */\n      tag_530\n        /* \"#utility.yul\":18534:18539   */\n      dup2\n        /* \"#utility.yul\":18519:18540   */\n      tag_337\n      jump\t// in\n    tag_530:\n        /* \"#utility.yul\":18512:18517   */\n      dup2\n        /* \"#utility.yul\":18509:18541   */\n      eq\n        /* \"#utility.yul\":18499:18559   */\n      tag_531\n      jumpi\n        /* \"#utility.yul\":18555:18556   */\n      0x00\n        /* \"#utility.yul\":18552:18553   */\n      dup1\n        /* \"#utility.yul\":18545:18557   */\n      revert\n        /* \"#utility.yul\":18499:18559   */\n    tag_531:\n        /* \"#utility.yul\":18449:18565   */\n      pop\n      jump\t// out\n        /* \"#utility.yul\":18571:18708   */\n    tag_339:\n        /* \"#utility.yul\":18625:18630   */\n      0x00\n        /* \"#utility.yul\":18656:18662   */\n      dup2\n        /* \"#utility.yul\":18650:18663   */\n      mload\n        /* \"#utility.yul\":18641:18663   */\n      swap1\n      pop\n        /* \"#utility.yul\":18672:18702   */\n      tag_533\n        /* \"#utility.yul\":18696:18701   */\n      dup2\n        /* \"#utility.yul\":18672:18702   */\n      tag_338\n      jump\t// in\n    tag_533:\n        /* \"#utility.yul\":18571:18708   */\n      swap3\n      swap2\n      pop\n      pop\n      jump\t// out\n        /* \"#utility.yul\":18714:19059   */\n    tag_168:\n        /* \"#utility.yul\":18781:18787   */\n      0x00\n        /* \"#utility.yul\":18830:18832   */\n      0x20\n        /* \"#utility.yul\":18818:18827   */\n      dup3\n        /* \"#utility.yul\":18809:18816   */\n      dup5\n        /* \"#utility.yul\":18805:18828   */\n      sub\n        /* \"#utility.yul\":18801:18833   */\n      slt\n        /* \"#utility.yul\":18798:18917   */\n      iszero\n      tag_535\n      jumpi\n        /* \"#utility.yul\":18836:18915   */\n      tag_536\n      tag_313\n      jump\t// in\n    tag_536:\n        /* \"#utility.yul\":18798:18917   */\n    tag_535:\n        /* \"#utility.yul\":18956:18957   */\n      0x00\n        /* \"#utility.yul\":18981:19042   */\n      tag_537\n        /* \"#utility.yul\":19034:19041   */\n      dup5\n        /* \"#utility.yul\":19025:19031   */\n      dup3\n        /* \"#utility.yul\":19014:19023   */\n      dup6\n        /* \"#utility.yul\":19010:19032   */\n      add\n        /* \"#utility.yul\":18981:19042   */\n      tag_339\n      jump\t// in\n    tag_537:\n        /* \"#utility.yul\":18971:19042   */\n      swap2\n      pop\n        /* \"#utility.yul\":18927:19052   */\n      pop\n        /* \"#utility.yul\":18714:19059   */\n      swap3\n      swap2\n      pop\n      pop\n      jump\t// out\n        /* \"#utility.yul\":19065:19507   */\n    tag_170:\n        /* \"#utility.yul\":19214:19218   */\n      0x00\n        /* \"#utility.yul\":19252:19254   */\n      0x60\n        /* \"#utility.yul\":19241:19250   */\n      dup3\n        /* \"#utility.yul\":19237:19255   */\n      add\n        /* \"#utility.yul\":19229:19255   */\n      swap1\n      pop\n        /* \"#utility.yul\":19265:19336   */\n      tag_539\n        /* \"#utility.yul\":19333:19334   */\n      0x00\n        /* \"#utility.yul\":19322:19331   */\n      dup4\n        /* \"#utility.yul\":19318:19335   */\n      add\n        /* \"#utility.yul\":19309:19315   */\n      dup7\n        /* \"#utility.yul\":19265:19336   */\n      tag_322\n      jump\t// in\n    tag_539:\n        /* \"#utility.yul\":19346:19418   */\n      tag_540\n        /* \"#utility.yul\":19414:19416   */\n      0x20\n        /* \"#utility.yul\":19403:19412   */\n      dup4\n        /* \"#utility.yul\":19399:19417   */\n      add\n        /* \"#utility.yul\":19390:19396   */\n      dup6\n        /* \"#utility.yul\":19346:19418   */\n      tag_322\n      jump\t// in\n    tag_540:\n        /* \"#utility.yul\":19428:19500   */\n      tag_541\n        /* \"#utility.yul\":19496:19498   */\n      0x40\n        /* \"#utility.yul\":19485:19494   */\n      dup4\n        /* \"#utility.yul\":19481:19499   */\n      add\n        /* \"#utility.yul\":19472:19478   */\n      dup5\n        /* \"#utility.yul\":19428:19500   */\n      tag_321\n      jump\t// in\n    tag_541:\n        /* \"#utility.yul\":19065:19507   */\n      swap5\n      swap4\n      pop\n      pop\n      pop\n      pop\n      jump\t// out\n        /* \"#utility.yul\":19513:19691   */\n    tag_340:\n        /* \"#utility.yul\":19653:19683   */\n      0x5072696365206d757374206265206174206c6561737420312077656900000000\n        /* \"#utility.yul\":19649:19650   */\n      0x00\n        /* \"#utility.yul\":19641:19647   */\n      dup3\n        /* \"#utility.yul\":19637:19651   */\n      add\n        /* \"#utility.yul\":19630:19684   */\n      mstore\n        /* \"#utility.yul\":19513:19691   */\n      pop\n      jump\t// out\n        /* \"#utility.yul\":19697:20063   */\n    tag_341:\n        /* \"#utility.yul\":19839:19842   */\n      0x00\n        /* \"#utility.yul\":19860:19927   */\n      tag_544\n        /* \"#utility.yul\":19924:19926   */\n      0x1c\n        /* \"#utility.yul\":19919:19922   */\n      dup4\n        /* \"#utility.yul\":19860:19927   */\n      tag_330\n      jump\t// in\n    tag_544:\n        /* \"#utility.yul\":19853:19927   */\n      swap2\n      pop\n        /* \"#utility.yul\":19936:20029   */\n      tag_545\n        /* \"#utility.yul\":20025:20028   */\n      dup3\n        /* \"#utility.yul\":19936:20029   */\n      tag_340\n      jump\t// in\n    tag_545:\n        /* \"#utility.yul\":20054:20056   */\n      0x20\n        /* \"#utility.yul\":20049:20052   */\n      dup3\n        /* \"#utility.yul\":20045:20057   */\n      add\n        /* \"#utility.yul\":20038:20057   */\n      swap1\n      pop\n        /* \"#utility.yul\":19697:20063   */\n      swap2\n      swap1\n      pop\n      jump\t// out\n        /* \"#utility.yul\":20069:20488   */\n    tag_190:\n        /* \"#utility.yul\":20235:20239   */\n      0x00\n        /* \"#utility.yul\":20273:20275   */\n      0x20\n        /* \"#utility.yul\":20262:20271   */\n      dup3\n        /* \"#utility.yul\":20258:20276   */\n      add\n        /* \"#utility.yul\":20250:20276   */\n      swap1\n      pop\n        /* \"#utility.yul\":20322:20331   */\n      dup2\n        /* \"#utility.yul\":20316:20320   */\n      dup2\n        /* \"#utility.yul\":20312:20332   */\n      sub\n        /* \"#utility.yul\":20308:20309   */\n      0x00\n        /* \"#utility.yul\":20297:20306   */\n      dup4\n        /* \"#utility.yul\":20293:20310   */\n      add\n        /* \"#utility.yul\":20286:20333   */\n      mstore\n        /* \"#utility.yul\":20350:20481   */\n      tag_547\n        /* \"#utility.yul\":20476:20480   */\n      dup2\n        /* \"#utility.yul\":20350:20481   */\n      tag_341\n      jump\t// in\n    tag_547:\n        /* \"#utility.yul\":20342:20481   */\n      swap1\n      pop\n        /* \"#utility.yul\":20069:20488   */\n      swap2\n      swap1\n      pop\n      jump\t// out\n        /* \"#utility.yul\":20494:20676   */\n    tag_342:\n        /* \"#utility.yul\":20634:20668   */\n      0x4f776e61626c653a2063616c6c6572206973206e6f7420746865206f776e6572\n        /* \"#utility.yul\":20630:20631   */\n      0x00\n        /* \"#utility.yul\":20622:20628   */\n      dup3\n        /* \"#utility.yul\":20618:20632   */\n      add\n        /* \"#utility.yul\":20611:20669   */\n      mstore\n        /* \"#utility.yul\":20494:20676   */\n      pop\n      jump\t// out\n        /* \"#utility.yul\":20682:21048   */\n    tag_343:\n        /* \"#utility.yul\":20824:20827   */\n      0x00\n        /* \"#utility.yul\":20845:20912   */\n      tag_550\n        /* \"#utility.yul\":20909:20911   */\n      0x20\n        /* \"#utility.yul\":20904:20907   */\n      dup4\n        /* \"#utility.yul\":20845:20912   */\n      tag_330\n      jump\t// in\n    tag_550:\n        /* \"#utility.yul\":20838:20912   */\n      swap2\n      pop\n        /* \"#utility.yul\":20921:21014   */\n      tag_551\n        /* \"#utility.yul\":21010:21013   */\n      dup3\n        /* \"#utility.yul\":20921:21014   */\n      tag_342\n      jump\t// in\n    tag_551:\n        /* \"#utility.yul\":21039:21041   */\n      0x20\n        /* \"#utility.yul\":21034:21037   */\n      dup3\n        /* \"#utility.yul\":21030:21042   */\n      add\n        /* \"#utility.yul\":21023:21042   */\n      swap1\n      pop\n        /* \"#utility.yul\":20682:21048   */\n      swap2\n      swap1\n      pop\n      jump\t// out\n        /* \"#utility.yul\":21054:21473   */\n    tag_208:\n        /* \"#utility.yul\":21220:21224   */\n      0x00\n        /* \"#utility.yul\":21258:21260   */\n      0x20\n        /* \"#utility.yul\":21247:21256   */\n      dup3\n        /* \"#utility.yul\":21243:21261   */\n      add\n        /* \"#utility.yul\":21235:21261   */\n      swap1\n      pop\n        /* \"#utility.yul\":21307:21316   */\n      dup2\n        /* \"#utility.yul\":21301:21305   */\n      dup2\n        /* \"#utility.yul\":21297:21317   */\n      sub\n        /* \"#utility.yul\":21293:21294   */\n      0x00\n        /* \"#utility.yul\":21282:21291   */\n      dup4\n        /* \"#utility.yul\":21278:21295   */\n      add\n        /* \"#utility.yul\":21271:21318   */\n      mstore\n        /* \"#utility.yul\":21335:21466   */\n      tag_553\n        /* \"#utility.yul\":21461:21465   */\n      dup2\n        /* \"#utility.yul\":21335:21466   */\n      tag_343\n      jump\t// in\n    tag_553:\n        /* \"#utility.yul\":21327:21466   */\n      swap1\n      pop\n        /* \"#utility.yul\":21054:21473   */\n      swap2\n      swap1\n      pop\n      jump\t// out\n        /* \"#utility.yul\":21479:21648   */\n    tag_344:\n        /* \"#utility.yul\":21619:21640   */\n      0x4173736574206e6f74207075626c697368656400000000000000000000000000\n        /* \"#utility.yul\":21615:21616   */\n      0x00\n        /* \"#utility.yul\":21607:21613   */\n      dup3\n        /* \"#utility.yul\":21603:21617   */\n      add\n        /* \"#utility.yul\":21596:21641   */\n      mstore\n        /* \"#utility.yul\":21479:21648   */\n      pop\n      jump\t// out\n        /* \"#utility.yul\":21654:22020   */\n    tag_345:\n        /* \"#utility.yul\":21796:21799   */\n      0x00\n        /* \"#utility.yul\":21817:21884   */\n      tag_556\n        /* \"#utility.yul\":21881:21883   */\n      0x13\n        /* \"#utility.yul\":21876:21879   */\n      dup4\n        /* \"#utility.yul\":21817:21884   */\n      tag_330\n      jump\t// in\n    tag_556:\n        /* \"#utility.yul\":21810:21884   */\n      swap2\n      pop\n        /* \"#utility.yul\":21893:21986   */\n      tag_557\n        /* \"#utility.yul\":21982:21985   */\n      dup3\n        /* \"#utility.yul\":21893:21986   */\n      tag_344\n      jump\t// in\n    tag_557:\n        /* \"#utility.yul\":22011:22013   */\n      0x20\n        /* \"#utility.yul\":22006:22009   */\n      dup3\n        /* \"#utility.yul\":22002:22014   */\n      add\n        /* \"#utility.yul\":21995:22014   */\n      swap1\n      pop\n        /* \"#utility.yul\":21654:22020   */\n      swap2\n      swap1\n      pop\n      jump\t// out\n        /* \"#utility.yul\":22026:22445   */\n    tag_228:\n        /* \"#utility.yul\":22192:22196   */\n      0x00\n        /* \"#utility.yul\":22230:22232   */\n      0x20\n        /* \"#utility.yul\":22219:22228   */\n      dup3\n        /* \"#utility.yul\":22215:22233   */\n      add\n        /* \"#utility.yul\":22207:22233   */\n      swap1\n      pop\n        /* \"#utility.yul\":22279:22288   */\n      dup2\n        /* \"#utility.yul\":22273:22277   */\n      dup2\n        /* \"#utility.yul\":22269:22289   */\n      sub\n        /* \"#utility.yul\":22265:22266   */\n      0x00\n        /* \"#utility.yul\":22254:22263   */\n      dup4\n        /* \"#utility.yul\":22250:22267   */\n      add\n        /* \"#utility.yul\":22243:22290   */\n      mstore\n        /* \"#utility.yul\":22307:22438   */\n      tag_559\n        /* \"#utility.yul\":22433:22437   */\n      dup2\n        /* \"#utility.yul\":22307:22438   */\n      tag_345\n      jump\t// in\n    tag_559:\n        /* \"#utility.yul\":22299:22438   */\n      swap1\n      pop\n        /* \"#utility.yul\":22026:22445   */\n      swap2\n      swap1\n      pop\n      jump\t// out\n        /* \"#utility.yul\":22451:22615   */\n    tag_346:\n        /* \"#utility.yul\":22591:22607   */\n      0x41737365742064656c6973746564000000000000000000000000000000000000\n        /* \"#utility.yul\":22587:22588   */\n      0x00\n        /* \"#utility.yul\":22579:22585   */\n      dup3\n        /* \"#utility.yul\":22575:22589   */\n      add\n        /* \"#utility.yul\":22568:22608   */\n      mstore\n        /* \"#utility.yul\":22451:22615   */\n      pop\n      jump\t// out\n        /* \"#utility.yul\":22621:22987   */\n    tag_347:\n        /* \"#utility.yul\":22763:22766   */\n      0x00\n        /* \"#utility.yul\":22784:22851   */\n      tag_562\n        /* \"#utility.yul\":22848:22850   */\n      0x0e\n        /* \"#utility.yul\":22843:22846   */\n      dup4\n        /* \"#utility.yul\":22784:22851   */\n      tag_330\n      jump\t// in\n    tag_562:\n        /* \"#utility.yul\":22777:22851   */\n      swap2\n      pop\n        /* \"#utility.yul\":22860:22953   */\n      tag_563\n        /* \"#utility.yul\":22949:22952   */\n      dup3\n        /* \"#utility.yul\":22860:22953   */\n      tag_346\n      jump\t// in\n    tag_563:\n        /* \"#utility.yul\":22978:22980   */\n      0x20\n        /* \"#utility.yul\":22973:22976   */\n      dup3\n        /* \"#utility.yul\":22969:22981   */\n      add\n        /* \"#utility.yul\":22962:22981   */\n      swap1\n      pop\n        /* \"#utility.yul\":22621:22987   */\n      swap2\n      swap1\n      pop\n      jump\t// out\n        /* \"#utility.yul\":22993:23412   */\n    tag_235:\n        /* \"#utility.yul\":23159:23163   */\n      0x00\n        /* \"#utility.yul\":23197:23199   */\n      0x20\n        /* \"#utility.yul\":23186:23195   */\n      dup3\n        /* \"#utility.yul\":23182:23200   */\n      add\n        /* \"#utility.yul\":23174:23200   */\n      swap1\n      pop\n        /* \"#utility.yul\":23246:23255   */\n      dup2\n        /* \"#utility.yul\":23240:23244   */\n      dup2\n        /* \"#utility.yul\":23236:23256   */\n      sub\n        /* \"#utility.yul\":23232:23233   */\n      0x00\n        /* \"#utility.yul\":23221:23230   */\n      dup4\n        /* \"#utility.yul\":23217:23234   */\n      add\n        /* \"#utility.yul\":23210:23257   */\n      mstore\n        /* \"#utility.yul\":23274:23405   */\n      tag_565\n        /* \"#utility.yul\":23400:23404   */\n      dup2\n        /* \"#utility.yul\":23274:23405   */\n      tag_347\n      jump\t// in\n    tag_565:\n        /* \"#utility.yul\":23266:23405   */\n      swap1\n      pop\n        /* \"#utility.yul\":22993:23412   */\n      swap2\n      swap1\n      pop\n      jump\t// out\n        /* \"#utility.yul\":23418:23583   */\n    tag_348:\n        /* \"#utility.yul\":23558:23575   */\n      0x496e76616c696420616464726573730000000000000000000000000000000000\n        /* \"#utility.yul\":23554:23555   */\n      0x00\n        /* \"#utility.yul\":23546:23552   */\n      dup3\n        /* \"#utility.yul\":23542:23556   */\n      add\n        /* \"#utility.yul\":23535:23576   */\n      mstore\n        /* \"#utility.yul\":23418:23583   */\n      pop\n      jump\t// out\n        /* \"#utility.yul\":23589:23955   */\n    tag_349:\n        /* \"#utility.yul\":23731:23734   */\n      0x00\n        /* \"#utility.yul\":23752:23819   */\n      tag_568\n        /* \"#utility.yul\":23816:23818   */\n      0x0f\n        /* \"#utility.yul\":23811:23814   */\n      dup4\n        /* \"#utility.yul\":23752:23819   */\n      tag_330\n      jump\t// in\n    tag_568:\n        /* \"#utility.yul\":23745:23819   */\n      swap2\n      pop\n        /* \"#utility.yul\":23828:23921   */\n      tag_569\n        /* \"#utility.yul\":23917:23920   */\n      dup3\n        /* \"#utility.yul\":23828:23921   */\n      tag_348\n      jump\t// in\n    tag_569:\n        /* \"#utility.yul\":23946:23948   */\n      0x20\n        /* \"#utility.yul\":23941:23944   */\n      dup3\n        /* \"#utility.yul\":23937:23949   */\n      add\n        /* \"#utility.yul\":23930:23949   */\n      swap1\n      pop\n        /* \"#utility.yul\":23589:23955   */\n      swap2\n      swap1\n      pop\n      jump\t// out\n        /* \"#utility.yul\":23961:24380   */\n    tag_238:\n        /* \"#utility.yul\":24127:24131   */\n      0x00\n        /* \"#utility.yul\":24165:24167   */\n      0x20\n        /* \"#utility.yul\":24154:24163   */\n      dup3\n        /* \"#utility.yul\":24150:24168   */\n      add\n        /* \"#utility.yul\":24142:24168   */\n      swap1\n      pop\n        /* \"#utility.yul\":24214:24223   */\n      dup2\n        /* \"#utility.yul\":24208:24212   */\n      dup2\n        /* \"#utility.yul\":24204:24224   */\n      sub\n        /* \"#utility.yul\":24200:24201   */\n      0x00\n        /* \"#utility.yul\":24189:24198   */\n      dup4\n        /* \"#utility.yul\":24185:24202   */\n      add\n        /* \"#utility.yul\":24178:24225   */\n      mstore\n        /* \"#utility.yul\":24242:24373   */\n      tag_571\n        /* \"#utility.yul\":24368:24372   */\n      dup2\n        /* \"#utility.yul\":24242:24373   */\n      tag_349\n      jump\t// in\n    tag_571:\n        /* \"#utility.yul\":24234:24373   */\n      swap1\n      pop\n        /* \"#utility.yul\":23961:24380   */\n      swap2\n      swap1\n      pop\n      jump\t// out\n        /* \"#utility.yul\":24386:24558   */\n    tag_350:\n        /* \"#utility.yul\":24526:24550   */\n      0x4f6e6c792073656c6c65722063616e2064656c69737400000000000000000000\n        /* \"#utility.yul\":24522:24523   */\n      0x00\n        /* \"#utility.yul\":24514:24520   */\n      dup3\n        /* \"#utility.yul\":24510:24524   */\n      add\n        /* \"#utility.yul\":24503:24551   */\n      mstore\n        /* \"#utility.yul\":24386:24558   */\n      pop\n      jump\t// out\n        /* \"#utility.yul\":24564:24930   */\n    tag_351:\n        /* \"#utility.yul\":24706:24709   */\n      0x00\n        /* \"#utility.yul\":24727:24794   */\n      tag_574\n        /* \"#utility.yul\":24791:24793   */\n      0x16\n        /* \"#utility.yul\":24786:24789   */\n      dup4\n        /* \"#utility.yul\":24727:24794   */\n      tag_330\n      jump\t// in\n    tag_574:\n        /* \"#utility.yul\":24720:24794   */\n      swap2\n      pop\n        /* \"#utility.yul\":24803:24896   */\n      tag_575\n        /* \"#utility.yul\":24892:24895   */\n      dup3\n        /* \"#utility.yul\":24803:24896   */\n      tag_350\n      jump\t// in\n    tag_575:\n        /* \"#utility.yul\":24921:24923   */\n      0x20\n        /* \"#utility.yul\":24916:24919   */\n      dup3\n        /* \"#utility.yul\":24912:24924   */\n      add\n        /* \"#utility.yul\":24905:24924   */\n      swap1\n      pop\n        /* \"#utility.yul\":24564:24930   */\n      swap2\n      swap1\n      pop\n      jump\t// out\n        /* \"#utility.yul\":24936:25355   */\n    tag_241:\n        /* \"#utility.yul\":25102:25106   */\n      0x00\n        /* \"#utility.yul\":25140:25142   */\n      0x20\n        /* \"#utility.yul\":25129:25138   */\n      dup3\n        /* \"#utility.yul\":25125:25143   */\n      add\n        /* \"#utility.yul\":25117:25143   */\n      swap1\n      pop\n        /* \"#utility.yul\":25189:25198   */\n      dup2\n        /* \"#utility.yul\":25183:25187   */\n      dup2\n        /* \"#utility.yul\":25179:25199   */\n      sub\n        /* \"#utility.yul\":25175:25176   */\n      0x00\n        /* \"#utility.yul\":25164:25173   */\n      dup4\n        /* \"#utility.yul\":25160:25177   */\n      add\n        /* \"#utility.yul\":25153:25200   */\n      mstore\n        /* \"#utility.yul\":25217:25348   */\n      tag_577\n        /* \"#utility.yul\":25343:25347   */\n      dup2\n        /* \"#utility.yul\":25217:25348   */\n      tag_351\n      jump\t// in\n    tag_577:\n        /* \"#utility.yul\":25209:25348   */\n      swap1\n      pop\n        /* \"#utility.yul\":24936:25355   */\n      swap2\n      swap1\n      pop\n      jump\t// out\n        /* \"#utility.yul\":25361:25803   */\n    tag_251:\n        /* \"#utility.yul\":25510:25514   */\n      0x00\n        /* \"#utility.yul\":25548:25550   */\n      0x60\n        /* \"#utility.yul\":25537:25546   */\n      dup3\n        /* \"#utility.yul\":25533:25551   */\n      add\n        /* \"#utility.yul\":25525:25551   */\n      swap1\n      pop\n        /* \"#utility.yul\":25561:25632   */\n      tag_579\n        /* \"#utility.yul\":25629:25630   */\n      0x00\n        /* \"#utility.yul\":25618:25627   */\n      dup4\n        /* \"#utility.yul\":25614:25631   */\n      add\n        /* \"#utility.yul\":25605:25611   */\n      dup7\n        /* \"#utility.yul\":25561:25632   */\n      tag_322\n      jump\t// in\n    tag_579:\n        /* \"#utility.yul\":25642:25714   */\n      tag_580\n        /* \"#utility.yul\":25710:25712   */\n      0x20\n        /* \"#utility.yul\":25699:25708   */\n      dup4\n        /* \"#utility.yul\":25695:25713   */\n      add\n        /* \"#utility.yul\":25686:25692   */\n      dup6\n        /* \"#utility.yul\":25642:25714   */\n      tag_321\n      jump\t// in\n    tag_580:\n        /* \"#utility.yul\":25724:25796   */\n      tag_581\n        /* \"#utility.yul\":25792:25794   */\n      0x40\n        /* \"#utility.yul\":25781:25790   */\n      dup4\n        /* \"#utility.yul\":25777:25795   */\n      add\n        /* \"#utility.yul\":25768:25774   */\n      dup5\n        /* \"#utility.yul\":25724:25796   */\n      tag_321\n      jump\t// in\n    tag_581:\n        /* \"#utility.yul\":25361:25803   */\n      swap5\n      swap4\n      pop\n      pop\n      pop\n      pop\n      jump\t// out\n        /* \"#utility.yul\":25809:26034   */\n    tag_352:\n        /* \"#utility.yul\":25949:25983   */\n      0x4f776e61626c653a206e6577206f776e657220697320746865207a65726f2061\n        /* \"#utility.yul\":25945:25946   */\n      0x00\n        /* \"#utility.yul\":25937:25943   */\n      dup3\n        /* \"#utility.yul\":25933:25947   */\n      add\n        /* \"#utility.yul\":25926:25984   */\n      mstore\n        /* \"#utility.yul\":26018:26026   */\n      0x6464726573730000000000000000000000000000000000000000000000000000\n        /* \"#utility.yul\":26013:26015   */\n      0x20\n        /* \"#utility.yul\":26005:26011   */\n      dup3\n        /* \"#utility.yul\":26001:26016   */\n      add\n        /* \"#utility.yul\":25994:26027   */\n      mstore\n        /* \"#utility.yul\":25809:26034   */\n      pop\n      jump\t// out\n        /* \"#utility.yul\":26040:26406   */\n    tag_353:\n        /* \"#utility.yul\":26182:26185   */\n      0x00\n        /* \"#utility.yul\":26203:26270   */\n      tag_584\n        /* \"#utility.yul\":26267:26269   */\n      0x26\n        /* \"#utility.yul\":26262:26265   */\n      dup4\n        /* \"#utility.yul\":26203:26270   */\n      tag_330\n      jump\t// in\n    tag_584:\n        /* \"#utility.yul\":26196:26270   */\n      swap2\n      pop\n        /* \"#utility.yul\":26279:26372   */\n      tag_585\n        /* \"#utility.yul\":26368:26371   */\n      dup3\n        /* \"#utility.yul\":26279:26372   */\n      tag_352\n      jump\t// in\n    tag_585:\n        /* \"#utility.yul\":26397:26399   */\n      0x40\n        /* \"#utility.yul\":26392:26395   */\n      dup3\n        /* \"#utility.yul\":26388:26400   */\n      add\n        /* \"#utility.yul\":26381:26400   */\n      swap1\n      pop\n        /* \"#utility.yul\":26040:26406   */\n      swap2\n      swap1\n      pop\n      jump\t// out\n        /* \"#utility.yul\":26412:26831   */\n    tag_266:\n        /* \"#utility.yul\":26578:26582   */\n      0x00\n        /* \"#utility.yul\":26616:26618   */\n      0x20\n        /* \"#utility.yul\":26605:26614   */\n      dup3\n        /* \"#utility.yul\":26601:26619   */\n      add\n        /* \"#utility.yul\":26593:26619   */\n      swap1\n      pop\n        /* \"#utility.yul\":26665:26674   */\n      dup2\n        /* \"#utility.yul\":26659:26663   */\n      dup2\n        /* \"#utility.yul\":26655:26675   */\n      sub\n        /* \"#utility.yul\":26651:26652   */\n      0x00\n        /* \"#utility.yul\":26640:26649   */\n      dup4\n        /* \"#utility.yul\":26636:26653   */\n      add\n        /* \"#utility.yul\":26629:26676   */\n      mstore\n        /* \"#utility.yul\":26693:26824   */\n      tag_587\n        /* \"#utility.yul\":26819:26823   */\n      dup2\n        /* \"#utility.yul\":26693:26824   */\n      tag_353\n      jump\t// in\n    tag_587:\n        /* \"#utility.yul\":26685:26824   */\n      swap1\n      pop\n        /* \"#utility.yul\":26412:26831   */\n      swap2\n      swap1\n      pop\n      jump\t// out\n        /* \"#utility.yul\":26837:27060   */\n    tag_354:\n        /* \"#utility.yul\":26977:27011   */\n      0x546865204e465420416464726573732073686f756c64206265206120636f6e74\n        /* \"#utility.yul\":26973:26974   */\n      0x00\n        /* \"#utility.yul\":26965:26971   */\n      dup3\n        /* \"#utility.yul\":26961:26975   */\n      add\n        /* \"#utility.yul\":26954:27012   */\n      mstore\n        /* \"#utility.yul\":27046:27052   */\n      0x7261637400000000000000000000000000000000000000000000000000000000\n        /* \"#utility.yul\":27041:27043   */\n      0x20\n        /* \"#utility.yul\":27033:27039   */\n      dup3\n        /* \"#utility.yul\":27029:27044   */\n      add\n        /* \"#utility.yul\":27022:27053   */\n      mstore\n        /* \"#utility.yul\":26837:27060   */\n      pop\n      jump\t// out\n        /* \"#utility.yul\":27066:27432   */\n    tag_355:\n        /* \"#utility.yul\":27208:27211   */\n      0x00\n        /* \"#utility.yul\":27229:27296   */\n      tag_590\n        /* \"#utility.yul\":27293:27295   */\n      0x24\n        /* \"#utility.yul\":27288:27291   */\n      dup4\n        /* \"#utility.yul\":27229:27296   */\n      tag_330\n      jump\t// in\n    tag_590:\n        /* \"#utility.yul\":27222:27296   */\n      swap2\n      pop\n        /* \"#utility.yul\":27305:27398   */\n      tag_591\n        /* \"#utility.yul\":27394:27397   */\n      dup3\n        /* \"#utility.yul\":27305:27398   */\n      tag_354\n      jump\t// in\n    tag_591:\n        /* \"#utility.yul\":27423:27425   */\n      0x40\n        /* \"#utility.yul\":27418:27421   */\n      dup3\n        /* \"#utility.yul\":27414:27426   */\n      add\n        /* \"#utility.yul\":27407:27426   */\n      swap1\n      pop\n        /* \"#utility.yul\":27066:27432   */\n      swap2\n      swap1\n      pop\n      jump\t// out\n        /* \"#utility.yul\":27438:27857   */\n    tag_277:\n        /* \"#utility.yul\":27604:27608   */\n      0x00\n        /* \"#utility.yul\":27642:27644   */\n      0x20\n        /* \"#utility.yul\":27631:27640   */\n      dup3\n        /* \"#utility.yul\":27627:27645   */\n      add\n        /* \"#utility.yul\":27619:27645   */\n      swap1\n      pop\n        /* \"#utility.yul\":27691:27700   */\n      dup2\n        /* \"#utility.yul\":27685:27689   */\n      dup2\n        /* \"#utility.yul\":27681:27701   */\n      sub\n        /* \"#utility.yul\":27677:27678   */\n      0x00\n        /* \"#utility.yul\":27666:27675   */\n      dup4\n        /* \"#utility.yul\":27662:27679   */\n      add\n        /* \"#utility.yul\":27655:27702   */\n      mstore\n        /* \"#utility.yul\":27719:27850   */\n      tag_593\n        /* \"#utility.yul\":27845:27849   */\n      dup2\n        /* \"#utility.yul\":27719:27850   */\n      tag_355\n      jump\t// in\n    tag_593:\n        /* \"#utility.yul\":27711:27850   */\n      swap1\n      pop\n        /* \"#utility.yul\":27438:27857   */\n      swap2\n      swap1\n      pop\n      jump\t// out\n        /* \"#utility.yul\":27863:28103   */\n    tag_356:\n        /* \"#utility.yul\":28003:28037   */\n      0x546865204e465420636f6e74726163742068617320616e20696e76616c696420\n        /* \"#utility.yul\":27999:28000   */\n      0x00\n        /* \"#utility.yul\":27991:27997   */\n      dup3\n        /* \"#utility.yul\":27987:28001   */\n      add\n        /* \"#utility.yul\":27980:28038   */\n      mstore\n        /* \"#utility.yul\":28072:28095   */\n      0x45524337323120696d706c656d656e746174696f6e0000000000000000000000\n        /* \"#utility.yul\":28067:28069   */\n      0x20\n        /* \"#utility.yul\":28059:28065   */\n      dup3\n        /* \"#utility.yul\":28055:28070   */\n      add\n        /* \"#utility.yul\":28048:28096   */\n      mstore\n        /* \"#utility.yul\":27863:28103   */\n      pop\n      jump\t// out\n        /* \"#utility.yul\":28109:28475   */\n    tag_357:\n        /* \"#utility.yul\":28251:28254   */\n      0x00\n        /* \"#utility.yul\":28272:28339   */\n      tag_596\n        /* \"#utility.yul\":28336:28338   */\n      0x35\n        /* \"#utility.yul\":28331:28334   */\n      dup4\n        /* \"#utility.yul\":28272:28339   */\n      tag_330\n      jump\t// in\n    tag_596:\n        /* \"#utility.yul\":28265:28339   */\n      swap2\n      pop\n        /* \"#utility.yul\":28348:28441   */\n      tag_597\n        /* \"#utility.yul\":28437:28440   */\n      dup3\n        /* \"#utility.yul\":28348:28441   */\n      tag_356\n      jump\t// in\n    tag_597:\n        /* \"#utility.yul\":28466:28468   */\n      0x40\n        /* \"#utility.yul\":28461:28464   */\n      dup3\n        /* \"#utility.yul\":28457:28469   */\n      add\n        /* \"#utility.yul\":28450:28469   */\n      swap1\n      pop\n        /* \"#utility.yul\":28109:28475   */\n      swap2\n      swap1\n      pop\n      jump\t// out\n        /* \"#utility.yul\":28481:28900   */\n    tag_284:\n        /* \"#utility.yul\":28647:28651   */\n      0x00\n        /* \"#utility.yul\":28685:28687   */\n      0x20\n        /* \"#utility.yul\":28674:28683   */\n      dup3\n        /* \"#utility.yul\":28670:28688   */\n      add\n        /* \"#utility.yul\":28662:28688   */\n      swap1\n      pop\n        /* \"#utility.yul\":28734:28743   */\n      dup2\n        /* \"#utility.yul\":28728:28732   */\n      dup2\n        /* \"#utility.yul\":28724:28744   */\n      sub\n        /* \"#utility.yul\":28720:28721   */\n      0x00\n        /* \"#utility.yul\":28709:28718   */\n      dup4\n        /* \"#utility.yul\":28705:28722   */\n      add\n        /* \"#utility.yul\":28698:28745   */\n      mstore\n        /* \"#utility.yul\":28762:28893   */\n      tag_599\n        /* \"#utility.yul\":28888:28892   */\n      dup2\n        /* \"#utility.yul\":28762:28893   */\n      tag_357\n      jump\t// in\n    tag_599:\n        /* \"#utility.yul\":28754:28893   */\n      swap1\n      pop\n        /* \"#utility.yul\":28481:28900   */\n      swap2\n      swap1\n      pop\n      jump\t// out\n\n    auxdata: 0xa2646970667358221220144cc85e264d1949fa083037a7bd781e046a55e714c16c0c42b15e689c29c91164736f6c634300080d0033\n}\n",
				"bytecode": {
					"linkReferences": {},
					"object": "60806040523480156200001157600080fd5b5060016000819055506200003a6200002e6200004060201b60201c565b6200004860201b60201c565b6200010e565b600033905090565b6000600c60009054906101000a900473ffffffffffffffffffffffffffffffffffffffff16905081600c60006101000a81548173ffffffffffffffffffffffffffffffffffffffff021916908373ffffffffffffffffffffffffffffffffffffffff1602179055508173ffffffffffffffffffffffffffffffffffffffff168173ffffffffffffffffffffffffffffffffffffffff167f8be0079c531659141344cd1fd0a4f28419497f9722a3daafe3b4186f6b6457e060405160405180910390a35050565b612d1a806200011e6000396000f3fe6080604052600436106101145760003560e01c8063715018a6116100a0578063b7a60c7e11610064578063b7a60c7e1461037a578063c45a0155146103a5578063c7be7a49146103d0578063f2fde38b1461040d578063ff68fa6e1461043657610114565b8063715018a6146102bb57806385a8b36c146102d25780638da5cb5b146102fd57806392bf77dd14610328578063ad9a03691461035157610114565b80632a45b250116100e75780632a45b250146101c35780632b4c32be14610200578063517bd4511461022b57806358eb2df51461025c5780635c80a4351461027857610114565b80630f08efe01461011957806315b81dc314610144578063202e37401461016f57806321cf91ac1461019a575b600080fd5b34801561012557600080fd5b5061012e610479565b60405161013b9190612074565b60405180910390f35b34801561015057600080fd5b506101596105ee565b60405161016691906120ee565b60405180910390f35b34801561017b57600080fd5b50610184610614565b6040516101919190612246565b60405180910390f35b3480156101a657600080fd5b506101c160048036038101906101bc91906122c5565b610996565b005b3480156101cf57600080fd5b506101ea60048036038101906101e59190612318565b610c50565b6040516101f79190612074565b60405180910390f35b34801561020c57600080fd5b50610215610dde565b6040516102229190612380565b60405180910390f35b34801561023757600080fd5b50610240610de9565b60405161025397969594939291906123d7565b60405180910390f35b610276600480360381019061027191906122c5565b610e86565b005b34801561028457600080fd5b5061029f600480360381019061029a9190612446565b6111c1565b6040516102b297969594939291906123d7565b60405180910390f35b3480156102c757600080fd5b506102d061127d565b005b3480156102de57600080fd5b506102e7611305565b6040516102f491906124a2565b60405180910390f35b34801561030957600080fd5b50610312611318565b60405161031f91906124bd565b60405180910390f35b34801561033457600080fd5b5061034f600480360381019061034a91906124d8565b611342565b005b34801561035d57600080fd5b5061037860048036038101906103739190612446565b611402565b005b34801561038657600080fd5b5061038f6118e0565b60405161039c91906124a2565b60405180910390f35b3480156103b157600080fd5b506103ba6118f3565b6040516103c79190612526565b60405180910390f35b3480156103dc57600080fd5b506103f760048036038101906103f29190612318565b611919565b6040516104049190612074565b60405180910390f35b34801561041957600080fd5b50610434600480360381019061042f91906124d8565b611aa1565b005b34801561044257600080fd5b5061045d60048036038101906104589190612318565b611b98565b60405161047097969594939291906123d7565b60405180910390f35b610481611e63565b60016040518060e0016040529081600082015481526020016001820160009054906101000a900473ffffffffffffffffffffffffffffffffffffffff1673ffffffffffffffffffffffffffffffffffffffff1673ffffffffffffffffffffffffffffffffffffffff168152602001600282015481526020016003820160009054906101000a900473ffffffffffffffffffffffffffffffffffffffff1673ffffffffffffffffffffffffffffffffffffffff1673ffffffffffffffffffffffffffffffffffffffff1681526020016004820160009054906101000a900473ffffffffffffffffffffffffffffffffffffffff1673ffffffffffffffffffffffffffffffffffffffff1673ffffffffffffffffffffffffffffffffffffffff168152602001600582015481526020016006820160009054906101000a900460ff1660018111156105d3576105d2611f6f565b5b60018111156105e5576105e4611f6f565b5b81525050905090565b600a60009054906101000a900473ffffffffffffffffffffffffffffffffffffffff1681565b60606000610622600d611c47565b905060008060005b838110156106ca573373ffffffffffffffffffffffffffffffffffffffff16600f600060018461065a9190612570565b815260200190815260200160002060040160009054906101000a900473ffffffffffffffffffffffffffffffffffffffff1673ffffffffffffffffffffffffffffffffffffffff16036106b7576001836106b49190612570565b92505b80806106c2906125c6565b91505061062a565b5060008267ffffffffffffffff8111156106e7576106e661260e565b5b60405190808252806020026020018201604052801561072057816020015b61070d611e63565b8152602001906001900390816107055790505b50905060005b8481101561098b573373ffffffffffffffffffffffffffffffffffffffff16600f60006001846107569190612570565b815260200190815260200160002060040160009054906101000a900473ffffffffffffffffffffffffffffffffffffffff1673ffffffffffffffffffffffffffffffffffffffff1603610978576000600f60006001846107b69190612570565b81526020019081526020016000206000015490506000600f60008381526020019081526020016000209050806040518060e0016040529081600082015481526020016001820160009054906101000a900473ffffffffffffffffffffffffffffffffffffffff1673ffffffffffffffffffffffffffffffffffffffff1673ffffffffffffffffffffffffffffffffffffffff168152602001600282015481526020016003820160009054906101000a900473ffffffffffffffffffffffffffffffffffffffff1673ffffffffffffffffffffffffffffffffffffffff1673ffffffffffffffffffffffffffffffffffffffff1681526020016004820160009054906101000a900473ffffffffffffffffffffffffffffffffffffffff1673ffffffffffffffffffffffffffffffffffffffff1673ffffffffffffffffffffffffffffffffffffffff168152602001600582015481526020016006820160009054906101000a900460ff16600181111561093257610931611f6f565b5b600181111561094457610943611f6f565b5b8152505084868151811061095b5761095a61263d565b5b60200260200101819052506001856109739190612570565b945050505b8080610983906125c6565b915050610726565b508094505050505090565b6002600054036109db576040517f08c379a00000000000000000000000000000000000000000000000000000000081526004016109d2906126c9565b60405180910390fd5b60026000819055506000600f60008481526020019081526020016000206005015490506000600f6000858152602001908152602001600020600201549050818314610a5b576040517f08c379a0000000000000000000000000000000000000000000000000000000008152600401610a529061275b565b60405180910390fd5b600a60009054906101000a900473ffffffffffffffffffffffffffffffffffffffff1673ffffffffffffffffffffffffffffffffffffffff166323b872dd33600f600088815260200190815260200160002060030160009054906101000a900473ffffffffffffffffffffffffffffffffffffffff16866040518463ffffffff1660e01b8152600401610af09392919061279c565b6020604051808303816000875af1158015610b0f573d6000803e3d6000fd5b505050506040513d601f19601f82011682018060405250810190610b33919061280b565b508473ffffffffffffffffffffffffffffffffffffffff166323b872dd3033846040518463ffffffff1660e01b8152600401610b7193929190612838565b600060405180830381600087803b158015610b8b57600080fd5b505af1158015610b9f573d6000803e3d6000fd5b5050505033600f600086815260200190815260200160002060040160006101000a81548173ffffffffffffffffffffffffffffffffffffffff021916908373ffffffffffffffffffffffffffffffffffffffff1602179055506000600f600086815260200190815260200160002060060160006101000a81548160ff02191690836001811115610c3257610c31611f6f565b5b0217905550610c41600e611c55565b50506001600081905550505050565b610c58611e63565b6000600f60008481526020019081526020016000206040518060e0016040529081600082015481526020016001820160009054906101000a900473ffffffffffffffffffffffffffffffffffffffff1673ffffffffffffffffffffffffffffffffffffffff1673ffffffffffffffffffffffffffffffffffffffff168152602001600282015481526020016003820160009054906101000a900473ffffffffffffffffffffffffffffffffffffffff1673ffffffffffffffffffffffffffffffffffffffff1673ffffffffffffffffffffffffffffffffffffffff1681526020016004820160009054906101000a900473ffffffffffffffffffffffffffffffffffffffff1673ffffffffffffffffffffffffffffffffffffffff1673ffffffffffffffffffffffffffffffffffffffff168152602001600582015481526020016006820160009054906101000a900460ff166001811115610dbd57610dbc611f6f565b5b6001811115610dcf57610dce611f6f565b5b81525050905080915050919050565b6380ac58cd60e01b81565b60018060000154908060010160009054906101000a900473ffffffffffffffffffffffffffffffffffffffff16908060020154908060030160009054906101000a900473ffffffffffffffffffffffffffffffffffffffff16908060040160009054906101000a900473ffffffffffffffffffffffffffffffffffffffff16908060050154908060060160009054906101000a900460ff16905087565b600260005403610ecb576040517f08c379a0000000000000000000000000000000000000000000000000000000008152600401610ec2906126c9565b60405180910390fd5b600260008190555060008111610f16576040517f08c379a0000000000000000000000000000000000000000000000000000000008152600401610f0d906128bb565b60405180910390fd5b610f20600d611c55565b6000610f2c600d611c47565b90506040518060e001604052808281526020018573ffffffffffffffffffffffffffffffffffffffff1681526020018481526020013373ffffffffffffffffffffffffffffffffffffffff168152602001600073ffffffffffffffffffffffffffffffffffffffff168152602001838152602001600180811115610fb357610fb2611f6f565b5b815250600f60008381526020019081526020016000206000820151816000015560208201518160010160006101000a81548173ffffffffffffffffffffffffffffffffffffffff021916908373ffffffffffffffffffffffffffffffffffffffff1602179055506040820151816002015560608201518160030160006101000a81548173ffffffffffffffffffffffffffffffffffffffff021916908373ffffffffffffffffffffffffffffffffffffffff16021790555060808201518160040160006101000a81548173ffffffffffffffffffffffffffffffffffffffff021916908373ffffffffffffffffffffffffffffffffffffffff16021790555060a0820151816005015560c08201518160060160006101000a81548160ff021916908360018111156110e7576110e6611f6f565b5b02179055509050508373ffffffffffffffffffffffffffffffffffffffff166323b872dd3330866040518463ffffffff1660e01b815260040161112c93929190612838565b600060405180830381600087803b15801561114657600080fd5b505af115801561115a573d6000803e3d6000fd5b50505050828473ffffffffffffffffffffffffffffffffffffffff16827f2ad024d53a0dc50c130967f8d4941927ee087ea31394cebb2b9599d3706c9c00336000876040516111ab93929190612838565b60405180910390a4506001600081905550505050565b6009602052816000526040600020602052806000526040600020600091509150508060000154908060010160009054906101000a900473ffffffffffffffffffffffffffffffffffffffff16908060020154908060030160009054906101000a900473ffffffffffffffffffffffffffffffffffffffff16908060040160009054906101000a900473ffffffffffffffffffffffffffffffffffffffff16908060050154908060060160009054906101000a900460ff16905087565b611285611c6b565b73ffffffffffffffffffffffffffffffffffffffff166112a3611318565b73ffffffffffffffffffffffffffffffffffffffff16146112f9576040517f08c379a00000000000000000000000000000000000000000000000000000000081526004016112f090612927565b60405180910390fd5b6113036000611c73565b565b600b60149054906101000a900460ff1681565b6000600c60009054906101000a900473ffffffffffffffffffffffffffffffffffffffff16905090565b61134a611c6b565b73ffffffffffffffffffffffffffffffffffffffff16611368611318565b73ffffffffffffffffffffffffffffffffffffffff16146113be576040517f08c379a00000000000000000000000000000000000000000000000000000000081526004016113b590612927565b60405180910390fd5b80600a60006101000a81548173ffffffffffffffffffffffffffffffffffffffff021916908373ffffffffffffffffffffffffffffffffffffffff16021790555050565b61140b82611d39565b60003390506000600f60008481526020019081526020016000206040518060e0016040529081600082015481526020016001820160009054906101000a900473ffffffffffffffffffffffffffffffffffffffff1673ffffffffffffffffffffffffffffffffffffffff1673ffffffffffffffffffffffffffffffffffffffff168152602001600282015481526020016003820160009054906101000a900473ffffffffffffffffffffffffffffffffffffffff1673ffffffffffffffffffffffffffffffffffffffff1673ffffffffffffffffffffffffffffffffffffffff1681526020016004820160009054906101000a900473ffffffffffffffffffffffffffffffffffffffff1673ffffffffffffffffffffffffffffffffffffffff1673ffffffffffffffffffffffffffffffffffffffff168152602001600582015481526020016006820160009054906101000a900460ff16600181111561157557611574611f6f565b5b600181111561158757611586611f6f565b5b81525050905060008160000151036115d4576040517f08c379a00000000000000000000000000000000000000000000000000000000081526004016115cb90612993565b60405180910390fd5b600060018111156115e8576115e7611f6f565b5b8160c0015160018111156115ff576115fe611f6f565b5b0361163f576040517f08c379a0000000000000000000000000000000000000000000000000000000008152600401611636906129ff565b60405180910390fd5b600081606001519050600073ffffffffffffffffffffffffffffffffffffffff168173ffffffffffffffffffffffffffffffffffffffff16036116b7576040517f08c379a00000000000000000000000000000000000000000000000000000000081526004016116ae90612a6b565b60405180910390fd5b3373ffffffffffffffffffffffffffffffffffffffff168173ffffffffffffffffffffffffffffffffffffffff1614611725576040517f08c379a000000000000000000000000000000000000000000000000000000000815260040161171c90612ad7565b60405180910390fd5b60008590508073ffffffffffffffffffffffffffffffffffffffff166342842e0e3084886040518463ffffffff1660e01b815260040161176793929190612838565b600060405180830381600087803b15801561178157600080fd5b505af1158015611795573d6000803e3d6000fd5b5050505060008360c0019060018111156117b2576117b1611f6f565b5b908160018111156117c6576117c5611f6f565b5b81525050600f60008681526020019081526020016000206000808201600090556001820160006101000a81549073ffffffffffffffffffffffffffffffffffffffff021916905560028201600090556003820160006101000a81549073ffffffffffffffffffffffffffffffffffffffff02191690556004820160006101000a81549073ffffffffffffffffffffffffffffffffffffffff021916905560058201600090556006820160006101000a81549060ff021916905550508373ffffffffffffffffffffffffffffffffffffffff16857fc141ecc59e1a451ee7d3128743c8ca3174955ce97262896269482d5f84b39a85888660000151426040516118d093929190612af7565b60405180910390a3505050505050565b600b60159054906101000a900460ff1681565b600b60009054906101000a900473ffffffffffffffffffffffffffffffffffffffff1681565b611921611e63565b600f60008381526020019081526020016000206040518060e0016040529081600082015481526020016001820160009054906101000a900473ffffffffffffffffffffffffffffffffffffffff1673ffffffffffffffffffffffffffffffffffffffff1673ffffffffffffffffffffffffffffffffffffffff168152602001600282015481526020016003820160009054906101000a900473ffffffffffffffffffffffffffffffffffffffff1673ffffffffffffffffffffffffffffffffffffffff1673ffffffffffffffffffffffffffffffffffffffff1681526020016004820160009054906101000a900473ffffffffffffffffffffffffffffffffffffffff1673ffffffffffffffffffffffffffffffffffffffff1673ffffffffffffffffffffffffffffffffffffffff168152602001600582015481526020016006820160009054906101000a900460ff166001811115611a8457611a83611f6f565b5b6001811115611a9657611a95611f6f565b5b815250509050919050565b611aa9611c6b565b73ffffffffffffffffffffffffffffffffffffffff16611ac7611318565b73ffffffffffffffffffffffffffffffffffffffff1614611b1d576040517f08c379a0000000000000000000000000000000000000000000000000000000008152600401611b1490612927565b60405180910390fd5b600073ffffffffffffffffffffffffffffffffffffffff168173ffffffffffffffffffffffffffffffffffffffff1603611b8c576040517f08c379a0000000000000000000000000000000000000000000000000000000008152600401611b8390612ba0565b60405180910390fd5b611b9581611c73565b50565b60086020528060005260406000206000915090508060000154908060010160009054906101000a900473ffffffffffffffffffffffffffffffffffffffff16908060020154908060030160009054906101000a900473ffffffffffffffffffffffffffffffffffffffff16908060040160009054906101000a900473ffffffffffffffffffffffffffffffffffffffff16908060050154908060060160009054906101000a900460ff16905087565b600081600001549050919050565b6001816000016000828254019250508190555050565b600033905090565b6000600c60009054906101000a900473ffffffffffffffffffffffffffffffffffffffff16905081600c60006101000a81548173ffffffffffffffffffffffffffffffffffffffff021916908373ffffffffffffffffffffffffffffffffffffffff1602179055508173ffffffffffffffffffffffffffffffffffffffff168173ffffffffffffffffffffffffffffffffffffffff167f8be0079c531659141344cd1fd0a4f28419497f9722a3daafe3b4186f6b6457e060405160405180910390a35050565b611d4281611e4a565b611d81576040517f08c379a0000000000000000000000000000000000000000000000000000000008152600401611d7890612c32565b60405180910390fd5b60008190508073ffffffffffffffffffffffffffffffffffffffff166301ffc9a76380ac58cd60e01b6040518263ffffffff1660e01b8152600401611dc69190612380565b602060405180830381865afa158015611de3573d6000803e3d6000fd5b505050506040513d601f19601f82011682018060405250810190611e07919061280b565b611e46576040517f08c379a0000000000000000000000000000000000000000000000000000000008152600401611e3d90612cc4565b60405180910390fd5b5050565b600080823b905060008163ffffffff1611915050919050565b6040518060e0016040528060008152602001600073ffffffffffffffffffffffffffffffffffffffff16815260200160008152602001600073ffffffffffffffffffffffffffffffffffffffff168152602001600073ffffffffffffffffffffffffffffffffffffffff1681526020016000815260200160006001811115611eee57611eed611f6f565b5b81525090565b6000819050919050565b611f0781611ef4565b82525050565b600073ffffffffffffffffffffffffffffffffffffffff82169050919050565b6000611f3882611f0d565b9050919050565b611f4881611f2d565b82525050565b6000611f5982611f0d565b9050919050565b611f6981611f4e565b82525050565b7f4e487b7100000000000000000000000000000000000000000000000000000000600052602160045260246000fd5b60028110611faf57611fae611f6f565b5b50565b6000819050611fc082611f9e565b919050565b6000611fd082611fb2565b9050919050565b611fe081611fc5565b82525050565b60e082016000820151611ffc6000850182611efe565b50602082015161200f6020850182611f3f565b5060408201516120226040850182611efe565b5060608201516120356060850182611f60565b5060808201516120486080850182611f60565b5060a082015161205b60a0850182611efe565b5060c082015161206e60c0850182611fd7565b50505050565b600060e0820190506120896000830184611fe6565b92915050565b6000819050919050565b60006120b46120af6120aa84611f0d565b61208f565b611f0d565b9050919050565b60006120c682612099565b9050919050565b60006120d8826120bb565b9050919050565b6120e8816120cd565b82525050565b600060208201905061210360008301846120df565b92915050565b600081519050919050565b600082825260208201905092915050565b6000819050602082019050919050565b60e08201600082015161214b6000850182611efe565b50602082015161215e6020850182611f3f565b5060408201516121716040850182611efe565b5060608201516121846060850182611f60565b5060808201516121976080850182611f60565b5060a08201516121aa60a0850182611efe565b5060c08201516121bd60c0850182611fd7565b50505050565b60006121cf8383612135565b60e08301905092915050565b6000602082019050919050565b60006121f382612109565b6121fd8185612114565b935061220883612125565b8060005b8381101561223957815161222088826121c3565b975061222b836121db565b92505060018101905061220c565b5085935050505092915050565b6000602082019050818103600083015261226081846121e8565b905092915050565b600080fd5b61227681611f2d565b811461228157600080fd5b50565b6000813590506122938161226d565b92915050565b6122a281611ef4565b81146122ad57600080fd5b50565b6000813590506122bf81612299565b92915050565b6000806000606084860312156122de576122dd612268565b5b60006122ec86828701612284565b93505060206122fd868287016122b0565b925050604061230e868287016122b0565b9150509250925092565b60006020828403121561232e5761232d612268565b5b600061233c848285016122b0565b91505092915050565b60007fffffffff0000000000000000000000000000000000000000000000000000000082169050919050565b61237a81612345565b82525050565b60006020820190506123956000830184612371565b92915050565b6123a481611ef4565b82525050565b6123b381611f2d565b82525050565b6123c281611f4e565b82525050565b6123d181611fc5565b82525050565b600060e0820190506123ec600083018a61239b565b6123f960208301896123aa565b612406604083018861239b565b61241360608301876123b9565b61242060808301866123b9565b61242d60a083018561239b565b61243a60c08301846123c8565b98975050505050505050565b6000806040838503121561245d5761245c612268565b5b600061246b85828601612284565b925050602061247c858286016122b0565b9150509250929050565b600060ff82169050919050565b61249c81612486565b82525050565b60006020820190506124b76000830184612493565b92915050565b60006020820190506124d260008301846123aa565b92915050565b6000602082840312156124ee576124ed612268565b5b60006124fc84828501612284565b91505092915050565b6000612510826120bb565b9050919050565b61252081612505565b82525050565b600060208201905061253b6000830184612517565b92915050565b7f4e487b7100000000000000000000000000000000000000000000000000000000600052601160045260246000fd5b600061257b82611ef4565b915061258683611ef4565b9250827fffffffffffffffffffffffffffffffffffffffffffffffffffffffffffffffff038211156125bb576125ba612541565b5b828201905092915050565b60006125d182611ef4565b91507fffffffffffffffffffffffffffffffffffffffffffffffffffffffffffffffff820361260357612602612541565b5b600182019050919050565b7f4e487b7100000000000000000000000000000000000000000000000000000000600052604160045260246000fd5b7f4e487b7100000000000000000000000000000000000000000000000000000000600052603260045260246000fd5b600082825260208201905092915050565b7f5265656e7472616e637947756172643a207265656e7472616e742063616c6c00600082015250565b60006126b3601f8361266c565b91506126be8261267d565b602082019050919050565b600060208201905081810360008301526126e2816126a6565b9050919050565b7f506c65617365207375626d6974207468652061736b696e67207072696365206960008201527f6e206f7264657220746f20636f6d706c65746520746865207075726368617365602082015250565b600061274560408361266c565b9150612750826126e9565b604082019050919050565b6000602082019050818103600083015261277481612738565b9050919050565b6000612786826120bb565b9050919050565b6127968161277b565b82525050565b60006060820190506127b160008301866123aa565b6127be602083018561278d565b6127cb604083018461239b565b949350505050565b60008115159050919050565b6127e8816127d3565b81146127f357600080fd5b50565b600081519050612805816127df565b92915050565b60006020828403121561282157612820612268565b5b600061282f848285016127f6565b91505092915050565b600060608201905061284d60008301866123aa565b61285a60208301856123aa565b612867604083018461239b565b949350505050565b7f5072696365206d757374206265206174206c6561737420312077656900000000600082015250565b60006128a5601c8361266c565b91506128b08261286f565b602082019050919050565b600060208201905081810360008301526128d481612898565b9050919050565b7f4f776e61626c653a2063616c6c6572206973206e6f7420746865206f776e6572600082015250565b600061291160208361266c565b915061291c826128db565b602082019050919050565b6000602082019050818103600083015261294081612904565b9050919050565b7f4173736574206e6f74207075626c697368656400000000000000000000000000600082015250565b600061297d60138361266c565b915061298882612947565b602082019050919050565b600060208201905081810360008301526129ac81612970565b9050919050565b7f41737365742064656c6973746564000000000000000000000000000000000000600082015250565b60006129e9600e8361266c565b91506129f4826129b3565b602082019050919050565b60006020820190508181036000830152612a18816129dc565b9050919050565b7f496e76616c696420616464726573730000000000000000000000000000000000600082015250565b6000612a55600f8361266c565b9150612a6082612a1f565b602082019050919050565b60006020820190508181036000830152612a8481612a48565b9050919050565b7f4f6e6c792073656c6c65722063616e2064656c69737400000000000000000000600082015250565b6000612ac160168361266c565b9150612acc82612a8b565b602082019050919050565b60006020820190508181036000830152612af081612ab4565b9050919050565b6000606082019050612b0c60008301866123aa565b612b19602083018561239b565b612b26604083018461239b565b949350505050565b7f4f776e61626c653a206e6577206f776e657220697320746865207a65726f206160008201527f6464726573730000000000000000000000000000000000000000000000000000602082015250565b6000612b8a60268361266c565b9150612b9582612b2e565b604082019050919050565b60006020820190508181036000830152612bb981612b7d565b9050919050565b7f546865204e465420416464726573732073686f756c64206265206120636f6e7460008201527f7261637400000000000000000000000000000000000000000000000000000000602082015250565b6000612c1c60248361266c565b9150612c2782612bc0565b604082019050919050565b60006020820190508181036000830152612c4b81612c0f565b9050919050565b7f546865204e465420636f6e74726163742068617320616e20696e76616c69642060008201527f45524337323120696d706c656d656e746174696f6e0000000000000000000000602082015250565b6000612cae60358361266c565b9150612cb982612c52565b604082019050919050565b60006020820190508181036000830152612cdd81612ca1565b905091905056fea2646970667358221220144cc85e264d1949fa083037a7bd781e046a55e714c16c0c42b15e689c29c91164736f6c634300080d0033",
					"opcodes": "PUSH1 0x80 PUSH1 0x40 MSTORE CALLVALUE DUP1 ISZERO PUSH3 0x11 JUMPI PUSH1 0x0 DUP1 REVERT JUMPDEST POP PUSH1 0x1 PUSH1 0x0 DUP2 SWAP1 SSTORE POP PUSH3 0x3A PUSH3 0x2E PUSH3 0x40 PUSH1 0x20 SHL PUSH1 0x20 SHR JUMP JUMPDEST PUSH3 0x48 PUSH1 0x20 SHL PUSH1 0x20 SHR JUMP JUMPDEST PUSH3 0x10E JUMP JUMPDEST PUSH1 0x0 CALLER SWAP1 POP SWAP1 JUMP JUMPDEST PUSH1 0x0 PUSH1 0xC PUSH1 0x0 SWAP1 SLOAD SWAP1 PUSH2 0x100 EXP SWAP1 DIV PUSH20 0xFFFFFFFFFFFFFFFFFFFFFFFFFFFFFFFFFFFFFFFF AND SWAP1 POP DUP2 PUSH1 0xC PUSH1 0x0 PUSH2 0x100 EXP DUP2 SLOAD DUP2 PUSH20 0xFFFFFFFFFFFFFFFFFFFFFFFFFFFFFFFFFFFFFFFF MUL NOT AND SWAP1 DUP4 PUSH20 0xFFFFFFFFFFFFFFFFFFFFFFFFFFFFFFFFFFFFFFFF AND MUL OR SWAP1 SSTORE POP DUP2 PUSH20 0xFFFFFFFFFFFFFFFFFFFFFFFFFFFFFFFFFFFFFFFF AND DUP2 PUSH20 0xFFFFFFFFFFFFFFFFFFFFFFFFFFFFFFFFFFFFFFFF AND PUSH32 0x8BE0079C531659141344CD1FD0A4F28419497F9722A3DAAFE3B4186F6B6457E0 PUSH1 0x40 MLOAD PUSH1 0x40 MLOAD DUP1 SWAP2 SUB SWAP1 LOG3 POP POP JUMP JUMPDEST PUSH2 0x2D1A DUP1 PUSH3 0x11E PUSH1 0x0 CODECOPY PUSH1 0x0 RETURN INVALID PUSH1 0x80 PUSH1 0x40 MSTORE PUSH1 0x4 CALLDATASIZE LT PUSH2 0x114 JUMPI PUSH1 0x0 CALLDATALOAD PUSH1 0xE0 SHR DUP1 PUSH4 0x715018A6 GT PUSH2 0xA0 JUMPI DUP1 PUSH4 0xB7A60C7E GT PUSH2 0x64 JUMPI DUP1 PUSH4 0xB7A60C7E EQ PUSH2 0x37A JUMPI DUP1 PUSH4 0xC45A0155 EQ PUSH2 0x3A5 JUMPI DUP1 PUSH4 0xC7BE7A49 EQ PUSH2 0x3D0 JUMPI DUP1 PUSH4 0xF2FDE38B EQ PUSH2 0x40D JUMPI DUP1 PUSH4 0xFF68FA6E EQ PUSH2 0x436 JUMPI PUSH2 0x114 JUMP JUMPDEST DUP1 PUSH4 0x715018A6 EQ PUSH2 0x2BB JUMPI DUP1 PUSH4 0x85A8B36C EQ PUSH2 0x2D2 JUMPI DUP1 PUSH4 0x8DA5CB5B EQ PUSH2 0x2FD JUMPI DUP1 PUSH4 0x92BF77DD EQ PUSH2 0x328 JUMPI DUP1 PUSH4 0xAD9A0369 EQ PUSH2 0x351 JUMPI PUSH2 0x114 JUMP JUMPDEST DUP1 PUSH4 0x2A45B250 GT PUSH2 0xE7 JUMPI DUP1 PUSH4 0x2A45B250 EQ PUSH2 0x1C3 JUMPI DUP1 PUSH4 0x2B4C32BE EQ PUSH2 0x200 JUMPI DUP1 PUSH4 0x517BD451 EQ PUSH2 0x22B JUMPI DUP1 PUSH4 0x58EB2DF5 EQ PUSH2 0x25C JUMPI DUP1 PUSH4 0x5C80A435 EQ PUSH2 0x278 JUMPI PUSH2 0x114 JUMP JUMPDEST DUP1 PUSH4 0xF08EFE0 EQ PUSH2 0x119 JUMPI DUP1 PUSH4 0x15B81DC3 EQ PUSH2 0x144 JUMPI DUP1 PUSH4 0x202E3740 EQ PUSH2 0x16F JUMPI DUP1 PUSH4 0x21CF91AC EQ PUSH2 0x19A JUMPI JUMPDEST PUSH1 0x0 DUP1 REVERT JUMPDEST CALLVALUE DUP1 ISZERO PUSH2 0x125 JUMPI PUSH1 0x0 DUP1 REVERT JUMPDEST POP PUSH2 0x12E PUSH2 0x479 JUMP JUMPDEST PUSH1 0x40 MLOAD PUSH2 0x13B SWAP2 SWAP1 PUSH2 0x2074 JUMP JUMPDEST PUSH1 0x40 MLOAD DUP1 SWAP2 SUB SWAP1 RETURN JUMPDEST CALLVALUE DUP1 ISZERO PUSH2 0x150 JUMPI PUSH1 0x0 DUP1 REVERT JUMPDEST POP PUSH2 0x159 PUSH2 0x5EE JUMP JUMPDEST PUSH1 0x40 MLOAD PUSH2 0x166 SWAP2 SWAP1 PUSH2 0x20EE JUMP JUMPDEST PUSH1 0x40 MLOAD DUP1 SWAP2 SUB SWAP1 RETURN JUMPDEST CALLVALUE DUP1 ISZERO PUSH2 0x17B JUMPI PUSH1 0x0 DUP1 REVERT JUMPDEST POP PUSH2 0x184 PUSH2 0x614 JUMP JUMPDEST PUSH1 0x40 MLOAD PUSH2 0x191 SWAP2 SWAP1 PUSH2 0x2246 JUMP JUMPDEST PUSH1 0x40 MLOAD DUP1 SWAP2 SUB SWAP1 RETURN JUMPDEST CALLVALUE DUP1 ISZERO PUSH2 0x1A6 JUMPI PUSH1 0x0 DUP1 REVERT JUMPDEST POP PUSH2 0x1C1 PUSH1 0x4 DUP1 CALLDATASIZE SUB DUP2 ADD SWAP1 PUSH2 0x1BC SWAP2 SWAP1 PUSH2 0x22C5 JUMP JUMPDEST PUSH2 0x996 JUMP JUMPDEST STOP JUMPDEST CALLVALUE DUP1 ISZERO PUSH2 0x1CF JUMPI PUSH1 0x0 DUP1 REVERT JUMPDEST POP PUSH2 0x1EA PUSH1 0x4 DUP1 CALLDATASIZE SUB DUP2 ADD SWAP1 PUSH2 0x1E5 SWAP2 SWAP1 PUSH2 0x2318 JUMP JUMPDEST PUSH2 0xC50 JUMP JUMPDEST PUSH1 0x40 MLOAD PUSH2 0x1F7 SWAP2 SWAP1 PUSH2 0x2074 JUMP JUMPDEST PUSH1 0x40 MLOAD DUP1 SWAP2 SUB SWAP1 RETURN JUMPDEST CALLVALUE DUP1 ISZERO PUSH2 0x20C JUMPI PUSH1 0x0 DUP1 REVERT JUMPDEST POP PUSH2 0x215 PUSH2 0xDDE JUMP JUMPDEST PUSH1 0x40 MLOAD PUSH2 0x222 SWAP2 SWAP1 PUSH2 0x2380 JUMP JUMPDEST PUSH1 0x40 MLOAD DUP1 SWAP2 SUB SWAP1 RETURN JUMPDEST CALLVALUE DUP1 ISZERO PUSH2 0x237 JUMPI PUSH1 0x0 DUP1 REVERT JUMPDEST POP PUSH2 0x240 PUSH2 0xDE9 JUMP JUMPDEST PUSH1 0x40 MLOAD PUSH2 0x253 SWAP8 SWAP7 SWAP6 SWAP5 SWAP4 SWAP3 SWAP2 SWAP1 PUSH2 0x23D7 JUMP JUMPDEST PUSH1 0x40 MLOAD DUP1 SWAP2 SUB SWAP1 RETURN JUMPDEST PUSH2 0x276 PUSH1 0x4 DUP1 CALLDATASIZE SUB DUP2 ADD SWAP1 PUSH2 0x271 SWAP2 SWAP1 PUSH2 0x22C5 JUMP JUMPDEST PUSH2 0xE86 JUMP JUMPDEST STOP JUMPDEST CALLVALUE DUP1 ISZERO PUSH2 0x284 JUMPI PUSH1 0x0 DUP1 REVERT JUMPDEST POP PUSH2 0x29F PUSH1 0x4 DUP1 CALLDATASIZE SUB DUP2 ADD SWAP1 PUSH2 0x29A SWAP2 SWAP1 PUSH2 0x2446 JUMP JUMPDEST PUSH2 0x11C1 JUMP JUMPDEST PUSH1 0x40 MLOAD PUSH2 0x2B2 SWAP8 SWAP7 SWAP6 SWAP5 SWAP4 SWAP3 SWAP2 SWAP1 PUSH2 0x23D7 JUMP JUMPDEST PUSH1 0x40 MLOAD DUP1 SWAP2 SUB SWAP1 RETURN JUMPDEST CALLVALUE DUP1 ISZERO PUSH2 0x2C7 JUMPI PUSH1 0x0 DUP1 REVERT JUMPDEST POP PUSH2 0x2D0 PUSH2 0x127D JUMP JUMPDEST STOP JUMPDEST CALLVALUE DUP1 ISZERO PUSH2 0x2DE JUMPI PUSH1 0x0 DUP1 REVERT JUMPDEST POP PUSH2 0x2E7 PUSH2 0x1305 JUMP JUMPDEST PUSH1 0x40 MLOAD PUSH2 0x2F4 SWAP2 SWAP1 PUSH2 0x24A2 JUMP JUMPDEST PUSH1 0x40 MLOAD DUP1 SWAP2 SUB SWAP1 RETURN JUMPDEST CALLVALUE DUP1 ISZERO PUSH2 0x309 JUMPI PUSH1 0x0 DUP1 REVERT JUMPDEST POP PUSH2 0x312 PUSH2 0x1318 JUMP JUMPDEST PUSH1 0x40 MLOAD PUSH2 0x31F SWAP2 SWAP1 PUSH2 0x24BD JUMP JUMPDEST PUSH1 0x40 MLOAD DUP1 SWAP2 SUB SWAP1 RETURN JUMPDEST CALLVALUE DUP1 ISZERO PUSH2 0x334 JUMPI PUSH1 0x0 DUP1 REVERT JUMPDEST POP PUSH2 0x34F PUSH1 0x4 DUP1 CALLDATASIZE SUB DUP2 ADD SWAP1 PUSH2 0x34A SWAP2 SWAP1 PUSH2 0x24D8 JUMP JUMPDEST PUSH2 0x1342 JUMP JUMPDEST STOP JUMPDEST CALLVALUE DUP1 ISZERO PUSH2 0x35D JUMPI PUSH1 0x0 DUP1 REVERT JUMPDEST POP PUSH2 0x378 PUSH1 0x4 DUP1 CALLDATASIZE SUB DUP2 ADD SWAP1 PUSH2 0x373 SWAP2 SWAP1 PUSH2 0x2446 JUMP JUMPDEST PUSH2 0x1402 JUMP JUMPDEST STOP JUMPDEST CALLVALUE DUP1 ISZERO PUSH2 0x386 JUMPI PUSH1 0x0 DUP1 REVERT JUMPDEST POP PUSH2 0x38F PUSH2 0x18E0 JUMP JUMPDEST PUSH1 0x40 MLOAD PUSH2 0x39C SWAP2 SWAP1 PUSH2 0x24A2 JUMP JUMPDEST PUSH1 0x40 MLOAD DUP1 SWAP2 SUB SWAP1 RETURN JUMPDEST CALLVALUE DUP1 ISZERO PUSH2 0x3B1 JUMPI PUSH1 0x0 DUP1 REVERT JUMPDEST POP PUSH2 0x3BA PUSH2 0x18F3 JUMP JUMPDEST PUSH1 0x40 MLOAD PUSH2 0x3C7 SWAP2 SWAP1 PUSH2 0x2526 JUMP JUMPDEST PUSH1 0x40 MLOAD DUP1 SWAP2 SUB SWAP1 RETURN JUMPDEST CALLVALUE DUP1 ISZERO PUSH2 0x3DC JUMPI PUSH1 0x0 DUP1 REVERT JUMPDEST POP PUSH2 0x3F7 PUSH1 0x4 DUP1 CALLDATASIZE SUB DUP2 ADD SWAP1 PUSH2 0x3F2 SWAP2 SWAP1 PUSH2 0x2318 JUMP JUMPDEST PUSH2 0x1919 JUMP JUMPDEST PUSH1 0x40 MLOAD PUSH2 0x404 SWAP2 SWAP1 PUSH2 0x2074 JUMP JUMPDEST PUSH1 0x40 MLOAD DUP1 SWAP2 SUB SWAP1 RETURN JUMPDEST CALLVALUE DUP1 ISZERO PUSH2 0x419 JUMPI PUSH1 0x0 DUP1 REVERT JUMPDEST POP PUSH2 0x434 PUSH1 0x4 DUP1 CALLDATASIZE SUB DUP2 ADD SWAP1 PUSH2 0x42F SWAP2 SWAP1 PUSH2 0x24D8 JUMP JUMPDEST PUSH2 0x1AA1 JUMP JUMPDEST STOP JUMPDEST CALLVALUE DUP1 ISZERO PUSH2 0x442 JUMPI PUSH1 0x0 DUP1 REVERT JUMPDEST POP PUSH2 0x45D PUSH1 0x4 DUP1 CALLDATASIZE SUB DUP2 ADD SWAP1 PUSH2 0x458 SWAP2 SWAP1 PUSH2 0x2318 JUMP JUMPDEST PUSH2 0x1B98 JUMP JUMPDEST PUSH1 0x40 MLOAD PUSH2 0x470 SWAP8 SWAP7 SWAP6 SWAP5 SWAP4 SWAP3 SWAP2 SWAP1 PUSH2 0x23D7 JUMP JUMPDEST PUSH1 0x40 MLOAD DUP1 SWAP2 SUB SWAP1 RETURN JUMPDEST PUSH2 0x481 PUSH2 0x1E63 JUMP JUMPDEST PUSH1 0x1 PUSH1 0x40 MLOAD DUP1 PUSH1 0xE0 ADD PUSH1 0x40 MSTORE SWAP1 DUP2 PUSH1 0x0 DUP3 ADD SLOAD DUP2 MSTORE PUSH1 0x20 ADD PUSH1 0x1 DUP3 ADD PUSH1 0x0 SWAP1 SLOAD SWAP1 PUSH2 0x100 EXP SWAP1 DIV PUSH20 0xFFFFFFFFFFFFFFFFFFFFFFFFFFFFFFFFFFFFFFFF AND PUSH20 0xFFFFFFFFFFFFFFFFFFFFFFFFFFFFFFFFFFFFFFFF AND PUSH20 0xFFFFFFFFFFFFFFFFFFFFFFFFFFFFFFFFFFFFFFFF AND DUP2 MSTORE PUSH1 0x20 ADD PUSH1 0x2 DUP3 ADD SLOAD DUP2 MSTORE PUSH1 0x20 ADD PUSH1 0x3 DUP3 ADD PUSH1 0x0 SWAP1 SLOAD SWAP1 PUSH2 0x100 EXP SWAP1 DIV PUSH20 0xFFFFFFFFFFFFFFFFFFFFFFFFFFFFFFFFFFFFFFFF AND PUSH20 0xFFFFFFFFFFFFFFFFFFFFFFFFFFFFFFFFFFFFFFFF AND PUSH20 0xFFFFFFFFFFFFFFFFFFFFFFFFFFFFFFFFFFFFFFFF AND DUP2 MSTORE PUSH1 0x20 ADD PUSH1 0x4 DUP3 ADD PUSH1 0x0 SWAP1 SLOAD SWAP1 PUSH2 0x100 EXP SWAP1 DIV PUSH20 0xFFFFFFFFFFFFFFFFFFFFFFFFFFFFFFFFFFFFFFFF AND PUSH20 0xFFFFFFFFFFFFFFFFFFFFFFFFFFFFFFFFFFFFFFFF AND PUSH20 0xFFFFFFFFFFFFFFFFFFFFFFFFFFFFFFFFFFFFFFFF AND DUP2 MSTORE PUSH1 0x20 ADD PUSH1 0x5 DUP3 ADD SLOAD DUP2 MSTORE PUSH1 0x20 ADD PUSH1 0x6 DUP3 ADD PUSH1 0x0 SWAP1 SLOAD SWAP1 PUSH2 0x100 EXP SWAP1 DIV PUSH1 0xFF AND PUSH1 0x1 DUP2 GT ISZERO PUSH2 0x5D3 JUMPI PUSH2 0x5D2 PUSH2 0x1F6F JUMP JUMPDEST JUMPDEST PUSH1 0x1 DUP2 GT ISZERO PUSH2 0x5E5 JUMPI PUSH2 0x5E4 PUSH2 0x1F6F JUMP JUMPDEST JUMPDEST DUP2 MSTORE POP POP SWAP1 POP SWAP1 JUMP JUMPDEST PUSH1 0xA PUSH1 0x0 SWAP1 SLOAD SWAP1 PUSH2 0x100 EXP SWAP1 DIV PUSH20 0xFFFFFFFFFFFFFFFFFFFFFFFFFFFFFFFFFFFFFFFF AND DUP2 JUMP JUMPDEST PUSH1 0x60 PUSH1 0x0 PUSH2 0x622 PUSH1 0xD PUSH2 0x1C47 JUMP JUMPDEST SWAP1 POP PUSH1 0x0 DUP1 PUSH1 0x0 JUMPDEST DUP4 DUP2 LT ISZERO PUSH2 0x6CA JUMPI CALLER PUSH20 0xFFFFFFFFFFFFFFFFFFFFFFFFFFFFFFFFFFFFFFFF AND PUSH1 0xF PUSH1 0x0 PUSH1 0x1 DUP5 PUSH2 0x65A SWAP2 SWAP1 PUSH2 0x2570 JUMP JUMPDEST DUP2 MSTORE PUSH1 0x20 ADD SWAP1 DUP2 MSTORE PUSH1 0x20 ADD PUSH1 0x0 KECCAK256 PUSH1 0x4 ADD PUSH1 0x0 SWAP1 SLOAD SWAP1 PUSH2 0x100 EXP SWAP1 DIV PUSH20 0xFFFFFFFFFFFFFFFFFFFFFFFFFFFFFFFFFFFFFFFF AND PUSH20 0xFFFFFFFFFFFFFFFFFFFFFFFFFFFFFFFFFFFFFFFF AND SUB PUSH2 0x6B7 JUMPI PUSH1 0x1 DUP4 PUSH2 0x6B4 SWAP2 SWAP1 PUSH2 0x2570 JUMP JUMPDEST SWAP3 POP JUMPDEST DUP1 DUP1 PUSH2 0x6C2 SWAP1 PUSH2 0x25C6 JUMP JUMPDEST SWAP2 POP POP PUSH2 0x62A JUMP JUMPDEST POP PUSH1 0x0 DUP3 PUSH8 0xFFFFFFFFFFFFFFFF DUP2 GT ISZERO PUSH2 0x6E7 JUMPI PUSH2 0x6E6 PUSH2 0x260E JUMP JUMPDEST JUMPDEST PUSH1 0x40 MLOAD SWAP1 DUP1 DUP3 MSTORE DUP1 PUSH1 0x20 MUL PUSH1 0x20 ADD DUP3 ADD PUSH1 0x40 MSTORE DUP1 ISZERO PUSH2 0x720 JUMPI DUP2 PUSH1 0x20 ADD JUMPDEST PUSH2 0x70D PUSH2 0x1E63 JUMP JUMPDEST DUP2 MSTORE PUSH1 0x20 ADD SWAP1 PUSH1 0x1 SWAP1 SUB SWAP1 DUP2 PUSH2 0x705 JUMPI SWAP1 POP JUMPDEST POP SWAP1 POP PUSH1 0x0 JUMPDEST DUP5 DUP2 LT ISZERO PUSH2 0x98B JUMPI CALLER PUSH20 0xFFFFFFFFFFFFFFFFFFFFFFFFFFFFFFFFFFFFFFFF AND PUSH1 0xF PUSH1 0x0 PUSH1 0x1 DUP5 PUSH2 0x756 SWAP2 SWAP1 PUSH2 0x2570 JUMP JUMPDEST DUP2 MSTORE PUSH1 0x20 ADD SWAP1 DUP2 MSTORE PUSH1 0x20 ADD PUSH1 0x0 KECCAK256 PUSH1 0x4 ADD PUSH1 0x0 SWAP1 SLOAD SWAP1 PUSH2 0x100 EXP SWAP1 DIV PUSH20 0xFFFFFFFFFFFFFFFFFFFFFFFFFFFFFFFFFFFFFFFF AND PUSH20 0xFFFFFFFFFFFFFFFFFFFFFFFFFFFFFFFFFFFFFFFF AND SUB PUSH2 0x978 JUMPI PUSH1 0x0 PUSH1 0xF PUSH1 0x0 PUSH1 0x1 DUP5 PUSH2 0x7B6 SWAP2 SWAP1 PUSH2 0x2570 JUMP JUMPDEST DUP2 MSTORE PUSH1 0x20 ADD SWAP1 DUP2 MSTORE PUSH1 0x20 ADD PUSH1 0x0 KECCAK256 PUSH1 0x0 ADD SLOAD SWAP1 POP PUSH1 0x0 PUSH1 0xF PUSH1 0x0 DUP4 DUP2 MSTORE PUSH1 0x20 ADD SWAP1 DUP2 MSTORE PUSH1 0x20 ADD PUSH1 0x0 KECCAK256 SWAP1 POP DUP1 PUSH1 0x40 MLOAD DUP1 PUSH1 0xE0 ADD PUSH1 0x40 MSTORE SWAP1 DUP2 PUSH1 0x0 DUP3 ADD SLOAD DUP2 MSTORE PUSH1 0x20 ADD PUSH1 0x1 DUP3 ADD PUSH1 0x0 SWAP1 SLOAD SWAP1 PUSH2 0x100 EXP SWAP1 DIV PUSH20 0xFFFFFFFFFFFFFFFFFFFFFFFFFFFFFFFFFFFFFFFF AND PUSH20 0xFFFFFFFFFFFFFFFFFFFFFFFFFFFFFFFFFFFFFFFF AND PUSH20 0xFFFFFFFFFFFFFFFFFFFFFFFFFFFFFFFFFFFFFFFF AND DUP2 MSTORE PUSH1 0x20 ADD PUSH1 0x2 DUP3 ADD SLOAD DUP2 MSTORE PUSH1 0x20 ADD PUSH1 0x3 DUP3 ADD PUSH1 0x0 SWAP1 SLOAD SWAP1 PUSH2 0x100 EXP SWAP1 DIV PUSH20 0xFFFFFFFFFFFFFFFFFFFFFFFFFFFFFFFFFFFFFFFF AND PUSH20 0xFFFFFFFFFFFFFFFFFFFFFFFFFFFFFFFFFFFFFFFF AND PUSH20 0xFFFFFFFFFFFFFFFFFFFFFFFFFFFFFFFFFFFFFFFF AND DUP2 MSTORE PUSH1 0x20 ADD PUSH1 0x4 DUP3 ADD PUSH1 0x0 SWAP1 SLOAD SWAP1 PUSH2 0x100 EXP SWAP1 DIV PUSH20 0xFFFFFFFFFFFFFFFFFFFFFFFFFFFFFFFFFFFFFFFF AND PUSH20 0xFFFFFFFFFFFFFFFFFFFFFFFFFFFFFFFFFFFFFFFF AND PUSH20 0xFFFFFFFFFFFFFFFFFFFFFFFFFFFFFFFFFFFFFFFF AND DUP2 MSTORE PUSH1 0x20 ADD PUSH1 0x5 DUP3 ADD SLOAD DUP2 MSTORE PUSH1 0x20 ADD PUSH1 0x6 DUP3 ADD PUSH1 0x0 SWAP1 SLOAD SWAP1 PUSH2 0x100 EXP SWAP1 DIV PUSH1 0xFF AND PUSH1 0x1 DUP2 GT ISZERO PUSH2 0x932 JUMPI PUSH2 0x931 PUSH2 0x1F6F JUMP JUMPDEST JUMPDEST PUSH1 0x1 DUP2 GT ISZERO PUSH2 0x944 JUMPI PUSH2 0x943 PUSH2 0x1F6F JUMP JUMPDEST JUMPDEST DUP2 MSTORE POP POP DUP5 DUP7 DUP2 MLOAD DUP2 LT PUSH2 0x95B JUMPI PUSH2 0x95A PUSH2 0x263D JUMP JUMPDEST JUMPDEST PUSH1 0x20 MUL PUSH1 0x20 ADD ADD DUP2 SWAP1 MSTORE POP PUSH1 0x1 DUP6 PUSH2 0x973 SWAP2 SWAP1 PUSH2 0x2570 JUMP JUMPDEST SWAP5 POP POP POP JUMPDEST DUP1 DUP1 PUSH2 0x983 SWAP1 PUSH2 0x25C6 JUMP JUMPDEST SWAP2 POP POP PUSH2 0x726 JUMP JUMPDEST POP DUP1 SWAP5 POP POP POP POP POP SWAP1 JUMP JUMPDEST PUSH1 0x2 PUSH1 0x0 SLOAD SUB PUSH2 0x9DB JUMPI PUSH1 0x40 MLOAD PUSH32 0x8C379A000000000000000000000000000000000000000000000000000000000 DUP2 MSTORE PUSH1 0x4 ADD PUSH2 0x9D2 SWAP1 PUSH2 0x26C9 JUMP JUMPDEST PUSH1 0x40 MLOAD DUP1 SWAP2 SUB SWAP1 REVERT JUMPDEST PUSH1 0x2 PUSH1 0x0 DUP2 SWAP1 SSTORE POP PUSH1 0x0 PUSH1 0xF PUSH1 0x0 DUP5 DUP2 MSTORE PUSH1 0x20 ADD SWAP1 DUP2 MSTORE PUSH1 0x20 ADD PUSH1 0x0 KECCAK256 PUSH1 0x5 ADD SLOAD SWAP1 POP PUSH1 0x0 PUSH1 0xF PUSH1 0x0 DUP6 DUP2 MSTORE PUSH1 0x20 ADD SWAP1 DUP2 MSTORE PUSH1 0x20 ADD PUSH1 0x0 KECCAK256 PUSH1 0x2 ADD SLOAD SWAP1 POP DUP2 DUP4 EQ PUSH2 0xA5B JUMPI PUSH1 0x40 MLOAD PUSH32 0x8C379A000000000000000000000000000000000000000000000000000000000 DUP2 MSTORE PUSH1 0x4 ADD PUSH2 0xA52 SWAP1 PUSH2 0x275B JUMP JUMPDEST PUSH1 0x40 MLOAD DUP1 SWAP2 SUB SWAP1 REVERT JUMPDEST PUSH1 0xA PUSH1 0x0 SWAP1 SLOAD SWAP1 PUSH2 0x100 EXP SWAP1 DIV PUSH20 0xFFFFFFFFFFFFFFFFFFFFFFFFFFFFFFFFFFFFFFFF AND PUSH20 0xFFFFFFFFFFFFFFFFFFFFFFFFFFFFFFFFFFFFFFFF AND PUSH4 0x23B872DD CALLER PUSH1 0xF PUSH1 0x0 DUP9 DUP2 MSTORE PUSH1 0x20 ADD SWAP1 DUP2 MSTORE PUSH1 0x20 ADD PUSH1 0x0 KECCAK256 PUSH1 0x3 ADD PUSH1 0x0 SWAP1 SLOAD SWAP1 PUSH2 0x100 EXP SWAP1 DIV PUSH20 0xFFFFFFFFFFFFFFFFFFFFFFFFFFFFFFFFFFFFFFFF AND DUP7 PUSH1 0x40 MLOAD DUP5 PUSH4 0xFFFFFFFF AND PUSH1 0xE0 SHL DUP2 MSTORE PUSH1 0x4 ADD PUSH2 0xAF0 SWAP4 SWAP3 SWAP2 SWAP1 PUSH2 0x279C JUMP JUMPDEST PUSH1 0x20 PUSH1 0x40 MLOAD DUP1 DUP4 SUB DUP2 PUSH1 0x0 DUP8 GAS CALL ISZERO DUP1 ISZERO PUSH2 0xB0F JUMPI RETURNDATASIZE PUSH1 0x0 DUP1 RETURNDATACOPY RETURNDATASIZE PUSH1 0x0 REVERT JUMPDEST POP POP POP POP PUSH1 0x40 MLOAD RETURNDATASIZE PUSH1 0x1F NOT PUSH1 0x1F DUP3 ADD AND DUP3 ADD DUP1 PUSH1 0x40 MSTORE POP DUP2 ADD SWAP1 PUSH2 0xB33 SWAP2 SWAP1 PUSH2 0x280B JUMP JUMPDEST POP DUP5 PUSH20 0xFFFFFFFFFFFFFFFFFFFFFFFFFFFFFFFFFFFFFFFF AND PUSH4 0x23B872DD ADDRESS CALLER DUP5 PUSH1 0x40 MLOAD DUP5 PUSH4 0xFFFFFFFF AND PUSH1 0xE0 SHL DUP2 MSTORE PUSH1 0x4 ADD PUSH2 0xB71 SWAP4 SWAP3 SWAP2 SWAP1 PUSH2 0x2838 JUMP JUMPDEST PUSH1 0x0 PUSH1 0x40 MLOAD DUP1 DUP4 SUB DUP2 PUSH1 0x0 DUP8 DUP1 EXTCODESIZE ISZERO DUP1 ISZERO PUSH2 0xB8B JUMPI PUSH1 0x0 DUP1 REVERT JUMPDEST POP GAS CALL ISZERO DUP1 ISZERO PUSH2 0xB9F JUMPI RETURNDATASIZE PUSH1 0x0 DUP1 RETURNDATACOPY RETURNDATASIZE PUSH1 0x0 REVERT JUMPDEST POP POP POP POP CALLER PUSH1 0xF PUSH1 0x0 DUP7 DUP2 MSTORE PUSH1 0x20 ADD SWAP1 DUP2 MSTORE PUSH1 0x20 ADD PUSH1 0x0 KECCAK256 PUSH1 0x4 ADD PUSH1 0x0 PUSH2 0x100 EXP DUP2 SLOAD DUP2 PUSH20 0xFFFFFFFFFFFFFFFFFFFFFFFFFFFFFFFFFFFFFFFF MUL NOT AND SWAP1 DUP4 PUSH20 0xFFFFFFFFFFFFFFFFFFFFFFFFFFFFFFFFFFFFFFFF AND MUL OR SWAP1 SSTORE POP PUSH1 0x0 PUSH1 0xF PUSH1 0x0 DUP7 DUP2 MSTORE PUSH1 0x20 ADD SWAP1 DUP2 MSTORE PUSH1 0x20 ADD PUSH1 0x0 KECCAK256 PUSH1 0x6 ADD PUSH1 0x0 PUSH2 0x100 EXP DUP2 SLOAD DUP2 PUSH1 0xFF MUL NOT AND SWAP1 DUP4 PUSH1 0x1 DUP2 GT ISZERO PUSH2 0xC32 JUMPI PUSH2 0xC31 PUSH2 0x1F6F JUMP JUMPDEST JUMPDEST MUL OR SWAP1 SSTORE POP PUSH2 0xC41 PUSH1 0xE PUSH2 0x1C55 JUMP JUMPDEST POP POP PUSH1 0x1 PUSH1 0x0 DUP2 SWAP1 SSTORE POP POP POP POP JUMP JUMPDEST PUSH2 0xC58 PUSH2 0x1E63 JUMP JUMPDEST PUSH1 0x0 PUSH1 0xF PUSH1 0x0 DUP5 DUP2 MSTORE PUSH1 0x20 ADD SWAP1 DUP2 MSTORE PUSH1 0x20 ADD PUSH1 0x0 KECCAK256 PUSH1 0x40 MLOAD DUP1 PUSH1 0xE0 ADD PUSH1 0x40 MSTORE SWAP1 DUP2 PUSH1 0x0 DUP3 ADD SLOAD DUP2 MSTORE PUSH1 0x20 ADD PUSH1 0x1 DUP3 ADD PUSH1 0x0 SWAP1 SLOAD SWAP1 PUSH2 0x100 EXP SWAP1 DIV PUSH20 0xFFFFFFFFFFFFFFFFFFFFFFFFFFFFFFFFFFFFFFFF AND PUSH20 0xFFFFFFFFFFFFFFFFFFFFFFFFFFFFFFFFFFFFFFFF AND PUSH20 0xFFFFFFFFFFFFFFFFFFFFFFFFFFFFFFFFFFFFFFFF AND DUP2 MSTORE PUSH1 0x20 ADD PUSH1 0x2 DUP3 ADD SLOAD DUP2 MSTORE PUSH1 0x20 ADD PUSH1 0x3 DUP3 ADD PUSH1 0x0 SWAP1 SLOAD SWAP1 PUSH2 0x100 EXP SWAP1 DIV PUSH20 0xFFFFFFFFFFFFFFFFFFFFFFFFFFFFFFFFFFFFFFFF AND PUSH20 0xFFFFFFFFFFFFFFFFFFFFFFFFFFFFFFFFFFFFFFFF AND PUSH20 0xFFFFFFFFFFFFFFFFFFFFFFFFFFFFFFFFFFFFFFFF AND DUP2 MSTORE PUSH1 0x20 ADD PUSH1 0x4 DUP3 ADD PUSH1 0x0 SWAP1 SLOAD SWAP1 PUSH2 0x100 EXP SWAP1 DIV PUSH20 0xFFFFFFFFFFFFFFFFFFFFFFFFFFFFFFFFFFFFFFFF AND PUSH20 0xFFFFFFFFFFFFFFFFFFFFFFFFFFFFFFFFFFFFFFFF AND PUSH20 0xFFFFFFFFFFFFFFFFFFFFFFFFFFFFFFFFFFFFFFFF AND DUP2 MSTORE PUSH1 0x20 ADD PUSH1 0x5 DUP3 ADD SLOAD DUP2 MSTORE PUSH1 0x20 ADD PUSH1 0x6 DUP3 ADD PUSH1 0x0 SWAP1 SLOAD SWAP1 PUSH2 0x100 EXP SWAP1 DIV PUSH1 0xFF AND PUSH1 0x1 DUP2 GT ISZERO PUSH2 0xDBD JUMPI PUSH2 0xDBC PUSH2 0x1F6F JUMP JUMPDEST JUMPDEST PUSH1 0x1 DUP2 GT ISZERO PUSH2 0xDCF JUMPI PUSH2 0xDCE PUSH2 0x1F6F JUMP JUMPDEST JUMPDEST DUP2 MSTORE POP POP SWAP1 POP DUP1 SWAP2 POP POP SWAP2 SWAP1 POP JUMP JUMPDEST PUSH4 0x80AC58CD PUSH1 0xE0 SHL DUP2 JUMP JUMPDEST PUSH1 0x1 DUP1 PUSH1 0x0 ADD SLOAD SWAP1 DUP1 PUSH1 0x1 ADD PUSH1 0x0 SWAP1 SLOAD SWAP1 PUSH2 0x100 EXP SWAP1 DIV PUSH20 0xFFFFFFFFFFFFFFFFFFFFFFFFFFFFFFFFFFFFFFFF AND SWAP1 DUP1 PUSH1 0x2 ADD SLOAD SWAP1 DUP1 PUSH1 0x3 ADD PUSH1 0x0 SWAP1 SLOAD SWAP1 PUSH2 0x100 EXP SWAP1 DIV PUSH20 0xFFFFFFFFFFFFFFFFFFFFFFFFFFFFFFFFFFFFFFFF AND SWAP1 DUP1 PUSH1 0x4 ADD PUSH1 0x0 SWAP1 SLOAD SWAP1 PUSH2 0x100 EXP SWAP1 DIV PUSH20 0xFFFFFFFFFFFFFFFFFFFFFFFFFFFFFFFFFFFFFFFF AND SWAP1 DUP1 PUSH1 0x5 ADD SLOAD SWAP1 DUP1 PUSH1 0x6 ADD PUSH1 0x0 SWAP1 SLOAD SWAP1 PUSH2 0x100 EXP SWAP1 DIV PUSH1 0xFF AND SWAP1 POP DUP8 JUMP JUMPDEST PUSH1 0x2 PUSH1 0x0 SLOAD SUB PUSH2 0xECB JUMPI PUSH1 0x40 MLOAD PUSH32 0x8C379A000000000000000000000000000000000000000000000000000000000 DUP2 MSTORE PUSH1 0x4 ADD PUSH2 0xEC2 SWAP1 PUSH2 0x26C9 JUMP JUMPDEST PUSH1 0x40 MLOAD DUP1 SWAP2 SUB SWAP1 REVERT JUMPDEST PUSH1 0x2 PUSH1 0x0 DUP2 SWAP1 SSTORE POP PUSH1 0x0 DUP2 GT PUSH2 0xF16 JUMPI PUSH1 0x40 MLOAD PUSH32 0x8C379A000000000000000000000000000000000000000000000000000000000 DUP2 MSTORE PUSH1 0x4 ADD PUSH2 0xF0D SWAP1 PUSH2 0x28BB JUMP JUMPDEST PUSH1 0x40 MLOAD DUP1 SWAP2 SUB SWAP1 REVERT JUMPDEST PUSH2 0xF20 PUSH1 0xD PUSH2 0x1C55 JUMP JUMPDEST PUSH1 0x0 PUSH2 0xF2C PUSH1 0xD PUSH2 0x1C47 JUMP JUMPDEST SWAP1 POP PUSH1 0x40 MLOAD DUP1 PUSH1 0xE0 ADD PUSH1 0x40 MSTORE DUP1 DUP3 DUP2 MSTORE PUSH1 0x20 ADD DUP6 PUSH20 0xFFFFFFFFFFFFFFFFFFFFFFFFFFFFFFFFFFFFFFFF AND DUP2 MSTORE PUSH1 0x20 ADD DUP5 DUP2 MSTORE PUSH1 0x20 ADD CALLER PUSH20 0xFFFFFFFFFFFFFFFFFFFFFFFFFFFFFFFFFFFFFFFF AND DUP2 MSTORE PUSH1 0x20 ADD PUSH1 0x0 PUSH20 0xFFFFFFFFFFFFFFFFFFFFFFFFFFFFFFFFFFFFFFFF AND DUP2 MSTORE PUSH1 0x20 ADD DUP4 DUP2 MSTORE PUSH1 0x20 ADD PUSH1 0x1 DUP1 DUP2 GT ISZERO PUSH2 0xFB3 JUMPI PUSH2 0xFB2 PUSH2 0x1F6F JUMP JUMPDEST JUMPDEST DUP2 MSTORE POP PUSH1 0xF PUSH1 0x0 DUP4 DUP2 MSTORE PUSH1 0x20 ADD SWAP1 DUP2 MSTORE PUSH1 0x20 ADD PUSH1 0x0 KECCAK256 PUSH1 0x0 DUP3 ADD MLOAD DUP2 PUSH1 0x0 ADD SSTORE PUSH1 0x20 DUP3 ADD MLOAD DUP2 PUSH1 0x1 ADD PUSH1 0x0 PUSH2 0x100 EXP DUP2 SLOAD DUP2 PUSH20 0xFFFFFFFFFFFFFFFFFFFFFFFFFFFFFFFFFFFFFFFF MUL NOT AND SWAP1 DUP4 PUSH20 0xFFFFFFFFFFFFFFFFFFFFFFFFFFFFFFFFFFFFFFFF AND MUL OR SWAP1 SSTORE POP PUSH1 0x40 DUP3 ADD MLOAD DUP2 PUSH1 0x2 ADD SSTORE PUSH1 0x60 DUP3 ADD MLOAD DUP2 PUSH1 0x3 ADD PUSH1 0x0 PUSH2 0x100 EXP DUP2 SLOAD DUP2 PUSH20 0xFFFFFFFFFFFFFFFFFFFFFFFFFFFFFFFFFFFFFFFF MUL NOT AND SWAP1 DUP4 PUSH20 0xFFFFFFFFFFFFFFFFFFFFFFFFFFFFFFFFFFFFFFFF AND MUL OR SWAP1 SSTORE POP PUSH1 0x80 DUP3 ADD MLOAD DUP2 PUSH1 0x4 ADD PUSH1 0x0 PUSH2 0x100 EXP DUP2 SLOAD DUP2 PUSH20 0xFFFFFFFFFFFFFFFFFFFFFFFFFFFFFFFFFFFFFFFF MUL NOT AND SWAP1 DUP4 PUSH20 0xFFFFFFFFFFFFFFFFFFFFFFFFFFFFFFFFFFFFFFFF AND MUL OR SWAP1 SSTORE POP PUSH1 0xA0 DUP3 ADD MLOAD DUP2 PUSH1 0x5 ADD SSTORE PUSH1 0xC0 DUP3 ADD MLOAD DUP2 PUSH1 0x6 ADD PUSH1 0x0 PUSH2 0x100 EXP DUP2 SLOAD DUP2 PUSH1 0xFF MUL NOT AND SWAP1 DUP4 PUSH1 0x1 DUP2 GT ISZERO PUSH2 0x10E7 JUMPI PUSH2 0x10E6 PUSH2 0x1F6F JUMP JUMPDEST JUMPDEST MUL OR SWAP1 SSTORE POP SWAP1 POP POP DUP4 PUSH20 0xFFFFFFFFFFFFFFFFFFFFFFFFFFFFFFFFFFFFFFFF AND PUSH4 0x23B872DD CALLER ADDRESS DUP7 PUSH1 0x40 MLOAD DUP5 PUSH4 0xFFFFFFFF AND PUSH1 0xE0 SHL DUP2 MSTORE PUSH1 0x4 ADD PUSH2 0x112C SWAP4 SWAP3 SWAP2 SWAP1 PUSH2 0x2838 JUMP JUMPDEST PUSH1 0x0 PUSH1 0x40 MLOAD DUP1 DUP4 SUB DUP2 PUSH1 0x0 DUP8 DUP1 EXTCODESIZE ISZERO DUP1 ISZERO PUSH2 0x1146 JUMPI PUSH1 0x0 DUP1 REVERT JUMPDEST POP GAS CALL ISZERO DUP1 ISZERO PUSH2 0x115A JUMPI RETURNDATASIZE PUSH1 0x0 DUP1 RETURNDATACOPY RETURNDATASIZE PUSH1 0x0 REVERT JUMPDEST POP POP POP POP DUP3 DUP5 PUSH20 0xFFFFFFFFFFFFFFFFFFFFFFFFFFFFFFFFFFFFFFFF AND DUP3 PUSH32 0x2AD024D53A0DC50C130967F8D4941927EE087EA31394CEBB2B9599D3706C9C00 CALLER PUSH1 0x0 DUP8 PUSH1 0x40 MLOAD PUSH2 0x11AB SWAP4 SWAP3 SWAP2 SWAP1 PUSH2 0x2838 JUMP JUMPDEST PUSH1 0x40 MLOAD DUP1 SWAP2 SUB SWAP1 LOG4 POP PUSH1 0x1 PUSH1 0x0 DUP2 SWAP1 SSTORE POP POP POP POP JUMP JUMPDEST PUSH1 0x9 PUSH1 0x20 MSTORE DUP2 PUSH1 0x0 MSTORE PUSH1 0x40 PUSH1 0x0 KECCAK256 PUSH1 0x20 MSTORE DUP1 PUSH1 0x0 MSTORE PUSH1 0x40 PUSH1 0x0 KECCAK256 PUSH1 0x0 SWAP2 POP SWAP2 POP POP DUP1 PUSH1 0x0 ADD SLOAD SWAP1 DUP1 PUSH1 0x1 ADD PUSH1 0x0 SWAP1 SLOAD SWAP1 PUSH2 0x100 EXP SWAP1 DIV PUSH20 0xFFFFFFFFFFFFFFFFFFFFFFFFFFFFFFFFFFFFFFFF AND SWAP1 DUP1 PUSH1 0x2 ADD SLOAD SWAP1 DUP1 PUSH1 0x3 ADD PUSH1 0x0 SWAP1 SLOAD SWAP1 PUSH2 0x100 EXP SWAP1 DIV PUSH20 0xFFFFFFFFFFFFFFFFFFFFFFFFFFFFFFFFFFFFFFFF AND SWAP1 DUP1 PUSH1 0x4 ADD PUSH1 0x0 SWAP1 SLOAD SWAP1 PUSH2 0x100 EXP SWAP1 DIV PUSH20 0xFFFFFFFFFFFFFFFFFFFFFFFFFFFFFFFFFFFFFFFF AND SWAP1 DUP1 PUSH1 0x5 ADD SLOAD SWAP1 DUP1 PUSH1 0x6 ADD PUSH1 0x0 SWAP1 SLOAD SWAP1 PUSH2 0x100 EXP SWAP1 DIV PUSH1 0xFF AND SWAP1 POP DUP8 JUMP JUMPDEST PUSH2 0x1285 PUSH2 0x1C6B JUMP JUMPDEST PUSH20 0xFFFFFFFFFFFFFFFFFFFFFFFFFFFFFFFFFFFFFFFF AND PUSH2 0x12A3 PUSH2 0x1318 JUMP JUMPDEST PUSH20 0xFFFFFFFFFFFFFFFFFFFFFFFFFFFFFFFFFFFFFFFF AND EQ PUSH2 0x12F9 JUMPI PUSH1 0x40 MLOAD PUSH32 0x8C379A000000000000000000000000000000000000000000000000000000000 DUP2 MSTORE PUSH1 0x4 ADD PUSH2 0x12F0 SWAP1 PUSH2 0x2927 JUMP JUMPDEST PUSH1 0x40 MLOAD DUP1 SWAP2 SUB SWAP1 REVERT JUMPDEST PUSH2 0x1303 PUSH1 0x0 PUSH2 0x1C73 JUMP JUMPDEST JUMP JUMPDEST PUSH1 0xB PUSH1 0x14 SWAP1 SLOAD SWAP1 PUSH2 0x100 EXP SWAP1 DIV PUSH1 0xFF AND DUP2 JUMP JUMPDEST PUSH1 0x0 PUSH1 0xC PUSH1 0x0 SWAP1 SLOAD SWAP1 PUSH2 0x100 EXP SWAP1 DIV PUSH20 0xFFFFFFFFFFFFFFFFFFFFFFFFFFFFFFFFFFFFFFFF AND SWAP1 POP SWAP1 JUMP JUMPDEST PUSH2 0x134A PUSH2 0x1C6B JUMP JUMPDEST PUSH20 0xFFFFFFFFFFFFFFFFFFFFFFFFFFFFFFFFFFFFFFFF AND PUSH2 0x1368 PUSH2 0x1318 JUMP JUMPDEST PUSH20 0xFFFFFFFFFFFFFFFFFFFFFFFFFFFFFFFFFFFFFFFF AND EQ PUSH2 0x13BE JUMPI PUSH1 0x40 MLOAD PUSH32 0x8C379A000000000000000000000000000000000000000000000000000000000 DUP2 MSTORE PUSH1 0x4 ADD PUSH2 0x13B5 SWAP1 PUSH2 0x2927 JUMP JUMPDEST PUSH1 0x40 MLOAD DUP1 SWAP2 SUB SWAP1 REVERT JUMPDEST DUP1 PUSH1 0xA PUSH1 0x0 PUSH2 0x100 EXP DUP2 SLOAD DUP2 PUSH20 0xFFFFFFFFFFFFFFFFFFFFFFFFFFFFFFFFFFFFFFFF MUL NOT AND SWAP1 DUP4 PUSH20 0xFFFFFFFFFFFFFFFFFFFFFFFFFFFFFFFFFFFFFFFF AND MUL OR SWAP1 SSTORE POP POP JUMP JUMPDEST PUSH2 0x140B DUP3 PUSH2 0x1D39 JUMP JUMPDEST PUSH1 0x0 CALLER SWAP1 POP PUSH1 0x0 PUSH1 0xF PUSH1 0x0 DUP5 DUP2 MSTORE PUSH1 0x20 ADD SWAP1 DUP2 MSTORE PUSH1 0x20 ADD PUSH1 0x0 KECCAK256 PUSH1 0x40 MLOAD DUP1 PUSH1 0xE0 ADD PUSH1 0x40 MSTORE SWAP1 DUP2 PUSH1 0x0 DUP3 ADD SLOAD DUP2 MSTORE PUSH1 0x20 ADD PUSH1 0x1 DUP3 ADD PUSH1 0x0 SWAP1 SLOAD SWAP1 PUSH2 0x100 EXP SWAP1 DIV PUSH20 0xFFFFFFFFFFFFFFFFFFFFFFFFFFFFFFFFFFFFFFFF AND PUSH20 0xFFFFFFFFFFFFFFFFFFFFFFFFFFFFFFFFFFFFFFFF AND PUSH20 0xFFFFFFFFFFFFFFFFFFFFFFFFFFFFFFFFFFFFFFFF AND DUP2 MSTORE PUSH1 0x20 ADD PUSH1 0x2 DUP3 ADD SLOAD DUP2 MSTORE PUSH1 0x20 ADD PUSH1 0x3 DUP3 ADD PUSH1 0x0 SWAP1 SLOAD SWAP1 PUSH2 0x100 EXP SWAP1 DIV PUSH20 0xFFFFFFFFFFFFFFFFFFFFFFFFFFFFFFFFFFFFFFFF AND PUSH20 0xFFFFFFFFFFFFFFFFFFFFFFFFFFFFFFFFFFFFFFFF AND PUSH20 0xFFFFFFFFFFFFFFFFFFFFFFFFFFFFFFFFFFFFFFFF AND DUP2 MSTORE PUSH1 0x20 ADD PUSH1 0x4 DUP3 ADD PUSH1 0x0 SWAP1 SLOAD SWAP1 PUSH2 0x100 EXP SWAP1 DIV PUSH20 0xFFFFFFFFFFFFFFFFFFFFFFFFFFFFFFFFFFFFFFFF AND PUSH20 0xFFFFFFFFFFFFFFFFFFFFFFFFFFFFFFFFFFFFFFFF AND PUSH20 0xFFFFFFFFFFFFFFFFFFFFFFFFFFFFFFFFFFFFFFFF AND DUP2 MSTORE PUSH1 0x20 ADD PUSH1 0x5 DUP3 ADD SLOAD DUP2 MSTORE PUSH1 0x20 ADD PUSH1 0x6 DUP3 ADD PUSH1 0x0 SWAP1 SLOAD SWAP1 PUSH2 0x100 EXP SWAP1 DIV PUSH1 0xFF AND PUSH1 0x1 DUP2 GT ISZERO PUSH2 0x1575 JUMPI PUSH2 0x1574 PUSH2 0x1F6F JUMP JUMPDEST JUMPDEST PUSH1 0x1 DUP2 GT ISZERO PUSH2 0x1587 JUMPI PUSH2 0x1586 PUSH2 0x1F6F JUMP JUMPDEST JUMPDEST DUP2 MSTORE POP POP SWAP1 POP PUSH1 0x0 DUP2 PUSH1 0x0 ADD MLOAD SUB PUSH2 0x15D4 JUMPI PUSH1 0x40 MLOAD PUSH32 0x8C379A000000000000000000000000000000000000000000000000000000000 DUP2 MSTORE PUSH1 0x4 ADD PUSH2 0x15CB SWAP1 PUSH2 0x2993 JUMP JUMPDEST PUSH1 0x40 MLOAD DUP1 SWAP2 SUB SWAP1 REVERT JUMPDEST PUSH1 0x0 PUSH1 0x1 DUP2 GT ISZERO PUSH2 0x15E8 JUMPI PUSH2 0x15E7 PUSH2 0x1F6F JUMP JUMPDEST JUMPDEST DUP2 PUSH1 0xC0 ADD MLOAD PUSH1 0x1 DUP2 GT ISZERO PUSH2 0x15FF JUMPI PUSH2 0x15FE PUSH2 0x1F6F JUMP JUMPDEST JUMPDEST SUB PUSH2 0x163F JUMPI PUSH1 0x40 MLOAD PUSH32 0x8C379A000000000000000000000000000000000000000000000000000000000 DUP2 MSTORE PUSH1 0x4 ADD PUSH2 0x1636 SWAP1 PUSH2 0x29FF JUMP JUMPDEST PUSH1 0x40 MLOAD DUP1 SWAP2 SUB SWAP1 REVERT JUMPDEST PUSH1 0x0 DUP2 PUSH1 0x60 ADD MLOAD SWAP1 POP PUSH1 0x0 PUSH20 0xFFFFFFFFFFFFFFFFFFFFFFFFFFFFFFFFFFFFFFFF AND DUP2 PUSH20 0xFFFFFFFFFFFFFFFFFFFFFFFFFFFFFFFFFFFFFFFF AND SUB PUSH2 0x16B7 JUMPI PUSH1 0x40 MLOAD PUSH32 0x8C379A000000000000000000000000000000000000000000000000000000000 DUP2 MSTORE PUSH1 0x4 ADD PUSH2 0x16AE SWAP1 PUSH2 0x2A6B JUMP JUMPDEST PUSH1 0x40 MLOAD DUP1 SWAP2 SUB SWAP1 REVERT JUMPDEST CALLER PUSH20 0xFFFFFFFFFFFFFFFFFFFFFFFFFFFFFFFFFFFFFFFF AND DUP2 PUSH20 0xFFFFFFFFFFFFFFFFFFFFFFFFFFFFFFFFFFFFFFFF AND EQ PUSH2 0x1725 JUMPI PUSH1 0x40 MLOAD PUSH32 0x8C379A000000000000000000000000000000000000000000000000000000000 DUP2 MSTORE PUSH1 0x4 ADD PUSH2 0x171C SWAP1 PUSH2 0x2AD7 JUMP JUMPDEST PUSH1 0x40 MLOAD DUP1 SWAP2 SUB SWAP1 REVERT JUMPDEST PUSH1 0x0 DUP6 SWAP1 POP DUP1 PUSH20 0xFFFFFFFFFFFFFFFFFFFFFFFFFFFFFFFFFFFFFFFF AND PUSH4 0x42842E0E ADDRESS DUP5 DUP9 PUSH1 0x40 MLOAD DUP5 PUSH4 0xFFFFFFFF AND PUSH1 0xE0 SHL DUP2 MSTORE PUSH1 0x4 ADD PUSH2 0x1767 SWAP4 SWAP3 SWAP2 SWAP1 PUSH2 0x2838 JUMP JUMPDEST PUSH1 0x0 PUSH1 0x40 MLOAD DUP1 DUP4 SUB DUP2 PUSH1 0x0 DUP8 DUP1 EXTCODESIZE ISZERO DUP1 ISZERO PUSH2 0x1781 JUMPI PUSH1 0x0 DUP1 REVERT JUMPDEST POP GAS CALL ISZERO DUP1 ISZERO PUSH2 0x1795 JUMPI RETURNDATASIZE PUSH1 0x0 DUP1 RETURNDATACOPY RETURNDATASIZE PUSH1 0x0 REVERT JUMPDEST POP POP POP POP PUSH1 0x0 DUP4 PUSH1 0xC0 ADD SWAP1 PUSH1 0x1 DUP2 GT ISZERO PUSH2 0x17B2 JUMPI PUSH2 0x17B1 PUSH2 0x1F6F JUMP JUMPDEST JUMPDEST SWAP1 DUP2 PUSH1 0x1 DUP2 GT ISZERO PUSH2 0x17C6 JUMPI PUSH2 0x17C5 PUSH2 0x1F6F JUMP JUMPDEST JUMPDEST DUP2 MSTORE POP POP PUSH1 0xF PUSH1 0x0 DUP7 DUP2 MSTORE PUSH1 0x20 ADD SWAP1 DUP2 MSTORE PUSH1 0x20 ADD PUSH1 0x0 KECCAK256 PUSH1 0x0 DUP1 DUP3 ADD PUSH1 0x0 SWAP1 SSTORE PUSH1 0x1 DUP3 ADD PUSH1 0x0 PUSH2 0x100 EXP DUP2 SLOAD SWAP1 PUSH20 0xFFFFFFFFFFFFFFFFFFFFFFFFFFFFFFFFFFFFFFFF MUL NOT AND SWAP1 SSTORE PUSH1 0x2 DUP3 ADD PUSH1 0x0 SWAP1 SSTORE PUSH1 0x3 DUP3 ADD PUSH1 0x0 PUSH2 0x100 EXP DUP2 SLOAD SWAP1 PUSH20 0xFFFFFFFFFFFFFFFFFFFFFFFFFFFFFFFFFFFFFFFF MUL NOT AND SWAP1 SSTORE PUSH1 0x4 DUP3 ADD PUSH1 0x0 PUSH2 0x100 EXP DUP2 SLOAD SWAP1 PUSH20 0xFFFFFFFFFFFFFFFFFFFFFFFFFFFFFFFFFFFFFFFF MUL NOT AND SWAP1 SSTORE PUSH1 0x5 DUP3 ADD PUSH1 0x0 SWAP1 SSTORE PUSH1 0x6 DUP3 ADD PUSH1 0x0 PUSH2 0x100 EXP DUP2 SLOAD SWAP1 PUSH1 0xFF MUL NOT AND SWAP1 SSTORE POP POP DUP4 PUSH20 0xFFFFFFFFFFFFFFFFFFFFFFFFFFFFFFFFFFFFFFFF AND DUP6 PUSH32 0xC141ECC59E1A451EE7D3128743C8CA3174955CE97262896269482D5F84B39A85 DUP9 DUP7 PUSH1 0x0 ADD MLOAD TIMESTAMP PUSH1 0x40 MLOAD PUSH2 0x18D0 SWAP4 SWAP3 SWAP2 SWAP1 PUSH2 0x2AF7 JUMP JUMPDEST PUSH1 0x40 MLOAD DUP1 SWAP2 SUB SWAP1 LOG3 POP POP POP POP POP POP JUMP JUMPDEST PUSH1 0xB PUSH1 0x15 SWAP1 SLOAD SWAP1 PUSH2 0x100 EXP SWAP1 DIV PUSH1 0xFF AND DUP2 JUMP JUMPDEST PUSH1 0xB PUSH1 0x0 SWAP1 SLOAD SWAP1 PUSH2 0x100 EXP SWAP1 DIV PUSH20 0xFFFFFFFFFFFFFFFFFFFFFFFFFFFFFFFFFFFFFFFF AND DUP2 JUMP JUMPDEST PUSH2 0x1921 PUSH2 0x1E63 JUMP JUMPDEST PUSH1 0xF PUSH1 0x0 DUP4 DUP2 MSTORE PUSH1 0x20 ADD SWAP1 DUP2 MSTORE PUSH1 0x20 ADD PUSH1 0x0 KECCAK256 PUSH1 0x40 MLOAD DUP1 PUSH1 0xE0 ADD PUSH1 0x40 MSTORE SWAP1 DUP2 PUSH1 0x0 DUP3 ADD SLOAD DUP2 MSTORE PUSH1 0x20 ADD PUSH1 0x1 DUP3 ADD PUSH1 0x0 SWAP1 SLOAD SWAP1 PUSH2 0x100 EXP SWAP1 DIV PUSH20 0xFFFFFFFFFFFFFFFFFFFFFFFFFFFFFFFFFFFFFFFF AND PUSH20 0xFFFFFFFFFFFFFFFFFFFFFFFFFFFFFFFFFFFFFFFF AND PUSH20 0xFFFFFFFFFFFFFFFFFFFFFFFFFFFFFFFFFFFFFFFF AND DUP2 MSTORE PUSH1 0x20 ADD PUSH1 0x2 DUP3 ADD SLOAD DUP2 MSTORE PUSH1 0x20 ADD PUSH1 0x3 DUP3 ADD PUSH1 0x0 SWAP1 SLOAD SWAP1 PUSH2 0x100 EXP SWAP1 DIV PUSH20 0xFFFFFFFFFFFFFFFFFFFFFFFFFFFFFFFFFFFFFFFF AND PUSH20 0xFFFFFFFFFFFFFFFFFFFFFFFFFFFFFFFFFFFFFFFF AND PUSH20 0xFFFFFFFFFFFFFFFFFFFFFFFFFFFFFFFFFFFFFFFF AND DUP2 MSTORE PUSH1 0x20 ADD PUSH1 0x4 DUP3 ADD PUSH1 0x0 SWAP1 SLOAD SWAP1 PUSH2 0x100 EXP SWAP1 DIV PUSH20 0xFFFFFFFFFFFFFFFFFFFFFFFFFFFFFFFFFFFFFFFF AND PUSH20 0xFFFFFFFFFFFFFFFFFFFFFFFFFFFFFFFFFFFFFFFF AND PUSH20 0xFFFFFFFFFFFFFFFFFFFFFFFFFFFFFFFFFFFFFFFF AND DUP2 MSTORE PUSH1 0x20 ADD PUSH1 0x5 DUP3 ADD SLOAD DUP2 MSTORE PUSH1 0x20 ADD PUSH1 0x6 DUP3 ADD PUSH1 0x0 SWAP1 SLOAD SWAP1 PUSH2 0x100 EXP SWAP1 DIV PUSH1 0xFF AND PUSH1 0x1 DUP2 GT ISZERO PUSH2 0x1A84 JUMPI PUSH2 0x1A83 PUSH2 0x1F6F JUMP JUMPDEST JUMPDEST PUSH1 0x1 DUP2 GT ISZERO PUSH2 0x1A96 JUMPI PUSH2 0x1A95 PUSH2 0x1F6F JUMP JUMPDEST JUMPDEST DUP2 MSTORE POP POP SWAP1 POP SWAP2 SWAP1 POP JUMP JUMPDEST PUSH2 0x1AA9 PUSH2 0x1C6B JUMP JUMPDEST PUSH20 0xFFFFFFFFFFFFFFFFFFFFFFFFFFFFFFFFFFFFFFFF AND PUSH2 0x1AC7 PUSH2 0x1318 JUMP JUMPDEST PUSH20 0xFFFFFFFFFFFFFFFFFFFFFFFFFFFFFFFFFFFFFFFF AND EQ PUSH2 0x1B1D JUMPI PUSH1 0x40 MLOAD PUSH32 0x8C379A000000000000000000000000000000000000000000000000000000000 DUP2 MSTORE PUSH1 0x4 ADD PUSH2 0x1B14 SWAP1 PUSH2 0x2927 JUMP JUMPDEST PUSH1 0x40 MLOAD DUP1 SWAP2 SUB SWAP1 REVERT JUMPDEST PUSH1 0x0 PUSH20 0xFFFFFFFFFFFFFFFFFFFFFFFFFFFFFFFFFFFFFFFF AND DUP2 PUSH20 0xFFFFFFFFFFFFFFFFFFFFFFFFFFFFFFFFFFFFFFFF AND SUB PUSH2 0x1B8C JUMPI PUSH1 0x40 MLOAD PUSH32 0x8C379A000000000000000000000000000000000000000000000000000000000 DUP2 MSTORE PUSH1 0x4 ADD PUSH2 0x1B83 SWAP1 PUSH2 0x2BA0 JUMP JUMPDEST PUSH1 0x40 MLOAD DUP1 SWAP2 SUB SWAP1 REVERT JUMPDEST PUSH2 0x1B95 DUP2 PUSH2 0x1C73 JUMP JUMPDEST POP JUMP JUMPDEST PUSH1 0x8 PUSH1 0x20 MSTORE DUP1 PUSH1 0x0 MSTORE PUSH1 0x40 PUSH1 0x0 KECCAK256 PUSH1 0x0 SWAP2 POP SWAP1 POP DUP1 PUSH1 0x0 ADD SLOAD SWAP1 DUP1 PUSH1 0x1 ADD PUSH1 0x0 SWAP1 SLOAD SWAP1 PUSH2 0x100 EXP SWAP1 DIV PUSH20 0xFFFFFFFFFFFFFFFFFFFFFFFFFFFFFFFFFFFFFFFF AND SWAP1 DUP1 PUSH1 0x2 ADD SLOAD SWAP1 DUP1 PUSH1 0x3 ADD PUSH1 0x0 SWAP1 SLOAD SWAP1 PUSH2 0x100 EXP SWAP1 DIV PUSH20 0xFFFFFFFFFFFFFFFFFFFFFFFFFFFFFFFFFFFFFFFF AND SWAP1 DUP1 PUSH1 0x4 ADD PUSH1 0x0 SWAP1 SLOAD SWAP1 PUSH2 0x100 EXP SWAP1 DIV PUSH20 0xFFFFFFFFFFFFFFFFFFFFFFFFFFFFFFFFFFFFFFFF AND SWAP1 DUP1 PUSH1 0x5 ADD SLOAD SWAP1 DUP1 PUSH1 0x6 ADD PUSH1 0x0 SWAP1 SLOAD SWAP1 PUSH2 0x100 EXP SWAP1 DIV PUSH1 0xFF AND SWAP1 POP DUP8 JUMP JUMPDEST PUSH1 0x0 DUP2 PUSH1 0x0 ADD SLOAD SWAP1 POP SWAP2 SWAP1 POP JUMP JUMPDEST PUSH1 0x1 DUP2 PUSH1 0x0 ADD PUSH1 0x0 DUP3 DUP3 SLOAD ADD SWAP3 POP POP DUP2 SWAP1 SSTORE POP POP JUMP JUMPDEST PUSH1 0x0 CALLER SWAP1 POP SWAP1 JUMP JUMPDEST PUSH1 0x0 PUSH1 0xC PUSH1 0x0 SWAP1 SLOAD SWAP1 PUSH2 0x100 EXP SWAP1 DIV PUSH20 0xFFFFFFFFFFFFFFFFFFFFFFFFFFFFFFFFFFFFFFFF AND SWAP1 POP DUP2 PUSH1 0xC PUSH1 0x0 PUSH2 0x100 EXP DUP2 SLOAD DUP2 PUSH20 0xFFFFFFFFFFFFFFFFFFFFFFFFFFFFFFFFFFFFFFFF MUL NOT AND SWAP1 DUP4 PUSH20 0xFFFFFFFFFFFFFFFFFFFFFFFFFFFFFFFFFFFFFFFF AND MUL OR SWAP1 SSTORE POP DUP2 PUSH20 0xFFFFFFFFFFFFFFFFFFFFFFFFFFFFFFFFFFFFFFFF AND DUP2 PUSH20 0xFFFFFFFFFFFFFFFFFFFFFFFFFFFFFFFFFFFFFFFF AND PUSH32 0x8BE0079C531659141344CD1FD0A4F28419497F9722A3DAAFE3B4186F6B6457E0 PUSH1 0x40 MLOAD PUSH1 0x40 MLOAD DUP1 SWAP2 SUB SWAP1 LOG3 POP POP JUMP JUMPDEST PUSH2 0x1D42 DUP2 PUSH2 0x1E4A JUMP JUMPDEST PUSH2 0x1D81 JUMPI PUSH1 0x40 MLOAD PUSH32 0x8C379A000000000000000000000000000000000000000000000000000000000 DUP2 MSTORE PUSH1 0x4 ADD PUSH2 0x1D78 SWAP1 PUSH2 0x2C32 JUMP JUMPDEST PUSH1 0x40 MLOAD DUP1 SWAP2 SUB SWAP1 REVERT JUMPDEST PUSH1 0x0 DUP2 SWAP1 POP DUP1 PUSH20 0xFFFFFFFFFFFFFFFFFFFFFFFFFFFFFFFFFFFFFFFF AND PUSH4 0x1FFC9A7 PUSH4 0x80AC58CD PUSH1 0xE0 SHL PUSH1 0x40 MLOAD DUP3 PUSH4 0xFFFFFFFF AND PUSH1 0xE0 SHL DUP2 MSTORE PUSH1 0x4 ADD PUSH2 0x1DC6 SWAP2 SWAP1 PUSH2 0x2380 JUMP JUMPDEST PUSH1 0x20 PUSH1 0x40 MLOAD DUP1 DUP4 SUB DUP2 DUP7 GAS STATICCALL ISZERO DUP1 ISZERO PUSH2 0x1DE3 JUMPI RETURNDATASIZE PUSH1 0x0 DUP1 RETURNDATACOPY RETURNDATASIZE PUSH1 0x0 REVERT JUMPDEST POP POP POP POP PUSH1 0x40 MLOAD RETURNDATASIZE PUSH1 0x1F NOT PUSH1 0x1F DUP3 ADD AND DUP3 ADD DUP1 PUSH1 0x40 MSTORE POP DUP2 ADD SWAP1 PUSH2 0x1E07 SWAP2 SWAP1 PUSH2 0x280B JUMP JUMPDEST PUSH2 0x1E46 JUMPI PUSH1 0x40 MLOAD PUSH32 0x8C379A000000000000000000000000000000000000000000000000000000000 DUP2 MSTORE PUSH1 0x4 ADD PUSH2 0x1E3D SWAP1 PUSH2 0x2CC4 JUMP JUMPDEST PUSH1 0x40 MLOAD DUP1 SWAP2 SUB SWAP1 REVERT JUMPDEST POP POP JUMP JUMPDEST PUSH1 0x0 DUP1 DUP3 EXTCODESIZE SWAP1 POP PUSH1 0x0 DUP2 PUSH4 0xFFFFFFFF AND GT SWAP2 POP POP SWAP2 SWAP1 POP JUMP JUMPDEST PUSH1 0x40 MLOAD DUP1 PUSH1 0xE0 ADD PUSH1 0x40 MSTORE DUP1 PUSH1 0x0 DUP2 MSTORE PUSH1 0x20 ADD PUSH1 0x0 PUSH20 0xFFFFFFFFFFFFFFFFFFFFFFFFFFFFFFFFFFFFFFFF AND DUP2 MSTORE PUSH1 0x20 ADD PUSH1 0x0 DUP2 MSTORE PUSH1 0x20 ADD PUSH1 0x0 PUSH20 0xFFFFFFFFFFFFFFFFFFFFFFFFFFFFFFFFFFFFFFFF AND DUP2 MSTORE PUSH1 0x20 ADD PUSH1 0x0 PUSH20 0xFFFFFFFFFFFFFFFFFFFFFFFFFFFFFFFFFFFFFFFF AND DUP2 MSTORE PUSH1 0x20 ADD PUSH1 0x0 DUP2 MSTORE PUSH1 0x20 ADD PUSH1 0x0 PUSH1 0x1 DUP2 GT ISZERO PUSH2 0x1EEE JUMPI PUSH2 0x1EED PUSH2 0x1F6F JUMP JUMPDEST JUMPDEST DUP2 MSTORE POP SWAP1 JUMP JUMPDEST PUSH1 0x0 DUP2 SWAP1 POP SWAP2 SWAP1 POP JUMP JUMPDEST PUSH2 0x1F07 DUP2 PUSH2 0x1EF4 JUMP JUMPDEST DUP3 MSTORE POP POP JUMP JUMPDEST PUSH1 0x0 PUSH20 0xFFFFFFFFFFFFFFFFFFFFFFFFFFFFFFFFFFFFFFFF DUP3 AND SWAP1 POP SWAP2 SWAP1 POP JUMP JUMPDEST PUSH1 0x0 PUSH2 0x1F38 DUP3 PUSH2 0x1F0D JUMP JUMPDEST SWAP1 POP SWAP2 SWAP1 POP JUMP JUMPDEST PUSH2 0x1F48 DUP2 PUSH2 0x1F2D JUMP JUMPDEST DUP3 MSTORE POP POP JUMP JUMPDEST PUSH1 0x0 PUSH2 0x1F59 DUP3 PUSH2 0x1F0D JUMP JUMPDEST SWAP1 POP SWAP2 SWAP1 POP JUMP JUMPDEST PUSH2 0x1F69 DUP2 PUSH2 0x1F4E JUMP JUMPDEST DUP3 MSTORE POP POP JUMP JUMPDEST PUSH32 0x4E487B7100000000000000000000000000000000000000000000000000000000 PUSH1 0x0 MSTORE PUSH1 0x21 PUSH1 0x4 MSTORE PUSH1 0x24 PUSH1 0x0 REVERT JUMPDEST PUSH1 0x2 DUP2 LT PUSH2 0x1FAF JUMPI PUSH2 0x1FAE PUSH2 0x1F6F JUMP JUMPDEST JUMPDEST POP JUMP JUMPDEST PUSH1 0x0 DUP2 SWAP1 POP PUSH2 0x1FC0 DUP3 PUSH2 0x1F9E JUMP JUMPDEST SWAP2 SWAP1 POP JUMP JUMPDEST PUSH1 0x0 PUSH2 0x1FD0 DUP3 PUSH2 0x1FB2 JUMP JUMPDEST SWAP1 POP SWAP2 SWAP1 POP JUMP JUMPDEST PUSH2 0x1FE0 DUP2 PUSH2 0x1FC5 JUMP JUMPDEST DUP3 MSTORE POP POP JUMP JUMPDEST PUSH1 0xE0 DUP3 ADD PUSH1 0x0 DUP3 ADD MLOAD PUSH2 0x1FFC PUSH1 0x0 DUP6 ADD DUP3 PUSH2 0x1EFE JUMP JUMPDEST POP PUSH1 0x20 DUP3 ADD MLOAD PUSH2 0x200F PUSH1 0x20 DUP6 ADD DUP3 PUSH2 0x1F3F JUMP JUMPDEST POP PUSH1 0x40 DUP3 ADD MLOAD PUSH2 0x2022 PUSH1 0x40 DUP6 ADD DUP3 PUSH2 0x1EFE JUMP JUMPDEST POP PUSH1 0x60 DUP3 ADD MLOAD PUSH2 0x2035 PUSH1 0x60 DUP6 ADD DUP3 PUSH2 0x1F60 JUMP JUMPDEST POP PUSH1 0x80 DUP3 ADD MLOAD PUSH2 0x2048 PUSH1 0x80 DUP6 ADD DUP3 PUSH2 0x1F60 JUMP JUMPDEST POP PUSH1 0xA0 DUP3 ADD MLOAD PUSH2 0x205B PUSH1 0xA0 DUP6 ADD DUP3 PUSH2 0x1EFE JUMP JUMPDEST POP PUSH1 0xC0 DUP3 ADD MLOAD PUSH2 0x206E PUSH1 0xC0 DUP6 ADD DUP3 PUSH2 0x1FD7 JUMP JUMPDEST POP POP POP POP JUMP JUMPDEST PUSH1 0x0 PUSH1 0xE0 DUP3 ADD SWAP1 POP PUSH2 0x2089 PUSH1 0x0 DUP4 ADD DUP5 PUSH2 0x1FE6 JUMP JUMPDEST SWAP3 SWAP2 POP POP JUMP JUMPDEST PUSH1 0x0 DUP2 SWAP1 POP SWAP2 SWAP1 POP JUMP JUMPDEST PUSH1 0x0 PUSH2 0x20B4 PUSH2 0x20AF PUSH2 0x20AA DUP5 PUSH2 0x1F0D JUMP JUMPDEST PUSH2 0x208F JUMP JUMPDEST PUSH2 0x1F0D JUMP JUMPDEST SWAP1 POP SWAP2 SWAP1 POP JUMP JUMPDEST PUSH1 0x0 PUSH2 0x20C6 DUP3 PUSH2 0x2099 JUMP JUMPDEST SWAP1 POP SWAP2 SWAP1 POP JUMP JUMPDEST PUSH1 0x0 PUSH2 0x20D8 DUP3 PUSH2 0x20BB JUMP JUMPDEST SWAP1 POP SWAP2 SWAP1 POP JUMP JUMPDEST PUSH2 0x20E8 DUP2 PUSH2 0x20CD JUMP JUMPDEST DUP3 MSTORE POP POP JUMP JUMPDEST PUSH1 0x0 PUSH1 0x20 DUP3 ADD SWAP1 POP PUSH2 0x2103 PUSH1 0x0 DUP4 ADD DUP5 PUSH2 0x20DF JUMP JUMPDEST SWAP3 SWAP2 POP POP JUMP JUMPDEST PUSH1 0x0 DUP2 MLOAD SWAP1 POP SWAP2 SWAP1 POP JUMP JUMPDEST PUSH1 0x0 DUP3 DUP3 MSTORE PUSH1 0x20 DUP3 ADD SWAP1 POP SWAP3 SWAP2 POP POP JUMP JUMPDEST PUSH1 0x0 DUP2 SWAP1 POP PUSH1 0x20 DUP3 ADD SWAP1 POP SWAP2 SWAP1 POP JUMP JUMPDEST PUSH1 0xE0 DUP3 ADD PUSH1 0x0 DUP3 ADD MLOAD PUSH2 0x214B PUSH1 0x0 DUP6 ADD DUP3 PUSH2 0x1EFE JUMP JUMPDEST POP PUSH1 0x20 DUP3 ADD MLOAD PUSH2 0x215E PUSH1 0x20 DUP6 ADD DUP3 PUSH2 0x1F3F JUMP JUMPDEST POP PUSH1 0x40 DUP3 ADD MLOAD PUSH2 0x2171 PUSH1 0x40 DUP6 ADD DUP3 PUSH2 0x1EFE JUMP JUMPDEST POP PUSH1 0x60 DUP3 ADD MLOAD PUSH2 0x2184 PUSH1 0x60 DUP6 ADD DUP3 PUSH2 0x1F60 JUMP JUMPDEST POP PUSH1 0x80 DUP3 ADD MLOAD PUSH2 0x2197 PUSH1 0x80 DUP6 ADD DUP3 PUSH2 0x1F60 JUMP JUMPDEST POP PUSH1 0xA0 DUP3 ADD MLOAD PUSH2 0x21AA PUSH1 0xA0 DUP6 ADD DUP3 PUSH2 0x1EFE JUMP JUMPDEST POP PUSH1 0xC0 DUP3 ADD MLOAD PUSH2 0x21BD PUSH1 0xC0 DUP6 ADD DUP3 PUSH2 0x1FD7 JUMP JUMPDEST POP POP POP POP JUMP JUMPDEST PUSH1 0x0 PUSH2 0x21CF DUP4 DUP4 PUSH2 0x2135 JUMP JUMPDEST PUSH1 0xE0 DUP4 ADD SWAP1 POP SWAP3 SWAP2 POP POP JUMP JUMPDEST PUSH1 0x0 PUSH1 0x20 DUP3 ADD SWAP1 POP SWAP2 SWAP1 POP JUMP JUMPDEST PUSH1 0x0 PUSH2 0x21F3 DUP3 PUSH2 0x2109 JUMP JUMPDEST PUSH2 0x21FD DUP2 DUP6 PUSH2 0x2114 JUMP JUMPDEST SWAP4 POP PUSH2 0x2208 DUP4 PUSH2 0x2125 JUMP JUMPDEST DUP1 PUSH1 0x0 JUMPDEST DUP4 DUP2 LT ISZERO PUSH2 0x2239 JUMPI DUP2 MLOAD PUSH2 0x2220 DUP9 DUP3 PUSH2 0x21C3 JUMP JUMPDEST SWAP8 POP PUSH2 0x222B DUP4 PUSH2 0x21DB JUMP JUMPDEST SWAP3 POP POP PUSH1 0x1 DUP2 ADD SWAP1 POP PUSH2 0x220C JUMP JUMPDEST POP DUP6 SWAP4 POP POP POP POP SWAP3 SWAP2 POP POP JUMP JUMPDEST PUSH1 0x0 PUSH1 0x20 DUP3 ADD SWAP1 POP DUP2 DUP2 SUB PUSH1 0x0 DUP4 ADD MSTORE PUSH2 0x2260 DUP2 DUP5 PUSH2 0x21E8 JUMP JUMPDEST SWAP1 POP SWAP3 SWAP2 POP POP JUMP JUMPDEST PUSH1 0x0 DUP1 REVERT JUMPDEST PUSH2 0x2276 DUP2 PUSH2 0x1F2D JUMP JUMPDEST DUP2 EQ PUSH2 0x2281 JUMPI PUSH1 0x0 DUP1 REVERT JUMPDEST POP JUMP JUMPDEST PUSH1 0x0 DUP2 CALLDATALOAD SWAP1 POP PUSH2 0x2293 DUP2 PUSH2 0x226D JUMP JUMPDEST SWAP3 SWAP2 POP POP JUMP JUMPDEST PUSH2 0x22A2 DUP2 PUSH2 0x1EF4 JUMP JUMPDEST DUP2 EQ PUSH2 0x22AD JUMPI PUSH1 0x0 DUP1 REVERT JUMPDEST POP JUMP JUMPDEST PUSH1 0x0 DUP2 CALLDATALOAD SWAP1 POP PUSH2 0x22BF DUP2 PUSH2 0x2299 JUMP JUMPDEST SWAP3 SWAP2 POP POP JUMP JUMPDEST PUSH1 0x0 DUP1 PUSH1 0x0 PUSH1 0x60 DUP5 DUP7 SUB SLT ISZERO PUSH2 0x22DE JUMPI PUSH2 0x22DD PUSH2 0x2268 JUMP JUMPDEST JUMPDEST PUSH1 0x0 PUSH2 0x22EC DUP7 DUP3 DUP8 ADD PUSH2 0x2284 JUMP JUMPDEST SWAP4 POP POP PUSH1 0x20 PUSH2 0x22FD DUP7 DUP3 DUP8 ADD PUSH2 0x22B0 JUMP JUMPDEST SWAP3 POP POP PUSH1 0x40 PUSH2 0x230E DUP7 DUP3 DUP8 ADD PUSH2 0x22B0 JUMP JUMPDEST SWAP2 POP POP SWAP3 POP SWAP3 POP SWAP3 JUMP JUMPDEST PUSH1 0x0 PUSH1 0x20 DUP3 DUP5 SUB SLT ISZERO PUSH2 0x232E JUMPI PUSH2 0x232D PUSH2 0x2268 JUMP JUMPDEST JUMPDEST PUSH1 0x0 PUSH2 0x233C DUP5 DUP3 DUP6 ADD PUSH2 0x22B0 JUMP JUMPDEST SWAP2 POP POP SWAP3 SWAP2 POP POP JUMP JUMPDEST PUSH1 0x0 PUSH32 0xFFFFFFFF00000000000000000000000000000000000000000000000000000000 DUP3 AND SWAP1 POP SWAP2 SWAP1 POP JUMP JUMPDEST PUSH2 0x237A DUP2 PUSH2 0x2345 JUMP JUMPDEST DUP3 MSTORE POP POP JUMP JUMPDEST PUSH1 0x0 PUSH1 0x20 DUP3 ADD SWAP1 POP PUSH2 0x2395 PUSH1 0x0 DUP4 ADD DUP5 PUSH2 0x2371 JUMP JUMPDEST SWAP3 SWAP2 POP POP JUMP JUMPDEST PUSH2 0x23A4 DUP2 PUSH2 0x1EF4 JUMP JUMPDEST DUP3 MSTORE POP POP JUMP JUMPDEST PUSH2 0x23B3 DUP2 PUSH2 0x1F2D JUMP JUMPDEST DUP3 MSTORE POP POP JUMP JUMPDEST PUSH2 0x23C2 DUP2 PUSH2 0x1F4E JUMP JUMPDEST DUP3 MSTORE POP POP JUMP JUMPDEST PUSH2 0x23D1 DUP2 PUSH2 0x1FC5 JUMP JUMPDEST DUP3 MSTORE POP POP JUMP JUMPDEST PUSH1 0x0 PUSH1 0xE0 DUP3 ADD SWAP1 POP PUSH2 0x23EC PUSH1 0x0 DUP4 ADD DUP11 PUSH2 0x239B JUMP JUMPDEST PUSH2 0x23F9 PUSH1 0x20 DUP4 ADD DUP10 PUSH2 0x23AA JUMP JUMPDEST PUSH2 0x2406 PUSH1 0x40 DUP4 ADD DUP9 PUSH2 0x239B JUMP JUMPDEST PUSH2 0x2413 PUSH1 0x60 DUP4 ADD DUP8 PUSH2 0x23B9 JUMP JUMPDEST PUSH2 0x2420 PUSH1 0x80 DUP4 ADD DUP7 PUSH2 0x23B9 JUMP JUMPDEST PUSH2 0x242D PUSH1 0xA0 DUP4 ADD DUP6 PUSH2 0x239B JUMP JUMPDEST PUSH2 0x243A PUSH1 0xC0 DUP4 ADD DUP5 PUSH2 0x23C8 JUMP JUMPDEST SWAP9 SWAP8 POP POP POP POP POP POP POP POP JUMP JUMPDEST PUSH1 0x0 DUP1 PUSH1 0x40 DUP4 DUP6 SUB SLT ISZERO PUSH2 0x245D JUMPI PUSH2 0x245C PUSH2 0x2268 JUMP JUMPDEST JUMPDEST PUSH1 0x0 PUSH2 0x246B DUP6 DUP3 DUP7 ADD PUSH2 0x2284 JUMP JUMPDEST SWAP3 POP POP PUSH1 0x20 PUSH2 0x247C DUP6 DUP3 DUP7 ADD PUSH2 0x22B0 JUMP JUMPDEST SWAP2 POP POP SWAP3 POP SWAP3 SWAP1 POP JUMP JUMPDEST PUSH1 0x0 PUSH1 0xFF DUP3 AND SWAP1 POP SWAP2 SWAP1 POP JUMP JUMPDEST PUSH2 0x249C DUP2 PUSH2 0x2486 JUMP JUMPDEST DUP3 MSTORE POP POP JUMP JUMPDEST PUSH1 0x0 PUSH1 0x20 DUP3 ADD SWAP1 POP PUSH2 0x24B7 PUSH1 0x0 DUP4 ADD DUP5 PUSH2 0x2493 JUMP JUMPDEST SWAP3 SWAP2 POP POP JUMP JUMPDEST PUSH1 0x0 PUSH1 0x20 DUP3 ADD SWAP1 POP PUSH2 0x24D2 PUSH1 0x0 DUP4 ADD DUP5 PUSH2 0x23AA JUMP JUMPDEST SWAP3 SWAP2 POP POP JUMP JUMPDEST PUSH1 0x0 PUSH1 0x20 DUP3 DUP5 SUB SLT ISZERO PUSH2 0x24EE JUMPI PUSH2 0x24ED PUSH2 0x2268 JUMP JUMPDEST JUMPDEST PUSH1 0x0 PUSH2 0x24FC DUP5 DUP3 DUP6 ADD PUSH2 0x2284 JUMP JUMPDEST SWAP2 POP POP SWAP3 SWAP2 POP POP JUMP JUMPDEST PUSH1 0x0 PUSH2 0x2510 DUP3 PUSH2 0x20BB JUMP JUMPDEST SWAP1 POP SWAP2 SWAP1 POP JUMP JUMPDEST PUSH2 0x2520 DUP2 PUSH2 0x2505 JUMP JUMPDEST DUP3 MSTORE POP POP JUMP JUMPDEST PUSH1 0x0 PUSH1 0x20 DUP3 ADD SWAP1 POP PUSH2 0x253B PUSH1 0x0 DUP4 ADD DUP5 PUSH2 0x2517 JUMP JUMPDEST SWAP3 SWAP2 POP POP JUMP JUMPDEST PUSH32 0x4E487B7100000000000000000000000000000000000000000000000000000000 PUSH1 0x0 MSTORE PUSH1 0x11 PUSH1 0x4 MSTORE PUSH1 0x24 PUSH1 0x0 REVERT JUMPDEST PUSH1 0x0 PUSH2 0x257B DUP3 PUSH2 0x1EF4 JUMP JUMPDEST SWAP2 POP PUSH2 0x2586 DUP4 PUSH2 0x1EF4 JUMP JUMPDEST SWAP3 POP DUP3 PUSH32 0xFFFFFFFFFFFFFFFFFFFFFFFFFFFFFFFFFFFFFFFFFFFFFFFFFFFFFFFFFFFFFFFF SUB DUP3 GT ISZERO PUSH2 0x25BB JUMPI PUSH2 0x25BA PUSH2 0x2541 JUMP JUMPDEST JUMPDEST DUP3 DUP3 ADD SWAP1 POP SWAP3 SWAP2 POP POP JUMP JUMPDEST PUSH1 0x0 PUSH2 0x25D1 DUP3 PUSH2 0x1EF4 JUMP JUMPDEST SWAP2 POP PUSH32 0xFFFFFFFFFFFFFFFFFFFFFFFFFFFFFFFFFFFFFFFFFFFFFFFFFFFFFFFFFFFFFFFF DUP3 SUB PUSH2 0x2603 JUMPI PUSH2 0x2602 PUSH2 0x2541 JUMP JUMPDEST JUMPDEST PUSH1 0x1 DUP3 ADD SWAP1 POP SWAP2 SWAP1 POP JUMP JUMPDEST PUSH32 0x4E487B7100000000000000000000000000000000000000000000000000000000 PUSH1 0x0 MSTORE PUSH1 0x41 PUSH1 0x4 MSTORE PUSH1 0x24 PUSH1 0x0 REVERT JUMPDEST PUSH32 0x4E487B7100000000000000000000000000000000000000000000000000000000 PUSH1 0x0 MSTORE PUSH1 0x32 PUSH1 0x4 MSTORE PUSH1 0x24 PUSH1 0x0 REVERT JUMPDEST PUSH1 0x0 DUP3 DUP3 MSTORE PUSH1 0x20 DUP3 ADD SWAP1 POP SWAP3 SWAP2 POP POP JUMP JUMPDEST PUSH32 0x5265656E7472616E637947756172643A207265656E7472616E742063616C6C00 PUSH1 0x0 DUP3 ADD MSTORE POP JUMP JUMPDEST PUSH1 0x0 PUSH2 0x26B3 PUSH1 0x1F DUP4 PUSH2 0x266C JUMP JUMPDEST SWAP2 POP PUSH2 0x26BE DUP3 PUSH2 0x267D JUMP JUMPDEST PUSH1 0x20 DUP3 ADD SWAP1 POP SWAP2 SWAP1 POP JUMP JUMPDEST PUSH1 0x0 PUSH1 0x20 DUP3 ADD SWAP1 POP DUP2 DUP2 SUB PUSH1 0x0 DUP4 ADD MSTORE PUSH2 0x26E2 DUP2 PUSH2 0x26A6 JUMP JUMPDEST SWAP1 POP SWAP2 SWAP1 POP JUMP JUMPDEST PUSH32 0x506C65617365207375626D6974207468652061736B696E672070726963652069 PUSH1 0x0 DUP3 ADD MSTORE PUSH32 0x6E206F7264657220746F20636F6D706C65746520746865207075726368617365 PUSH1 0x20 DUP3 ADD MSTORE POP JUMP JUMPDEST PUSH1 0x0 PUSH2 0x2745 PUSH1 0x40 DUP4 PUSH2 0x266C JUMP JUMPDEST SWAP2 POP PUSH2 0x2750 DUP3 PUSH2 0x26E9 JUMP JUMPDEST PUSH1 0x40 DUP3 ADD SWAP1 POP SWAP2 SWAP1 POP JUMP JUMPDEST PUSH1 0x0 PUSH1 0x20 DUP3 ADD SWAP1 POP DUP2 DUP2 SUB PUSH1 0x0 DUP4 ADD MSTORE PUSH2 0x2774 DUP2 PUSH2 0x2738 JUMP JUMPDEST SWAP1 POP SWAP2 SWAP1 POP JUMP JUMPDEST PUSH1 0x0 PUSH2 0x2786 DUP3 PUSH2 0x20BB JUMP JUMPDEST SWAP1 POP SWAP2 SWAP1 POP JUMP JUMPDEST PUSH2 0x2796 DUP2 PUSH2 0x277B JUMP JUMPDEST DUP3 MSTORE POP POP JUMP JUMPDEST PUSH1 0x0 PUSH1 0x60 DUP3 ADD SWAP1 POP PUSH2 0x27B1 PUSH1 0x0 DUP4 ADD DUP7 PUSH2 0x23AA JUMP JUMPDEST PUSH2 0x27BE PUSH1 0x20 DUP4 ADD DUP6 PUSH2 0x278D JUMP JUMPDEST PUSH2 0x27CB PUSH1 0x40 DUP4 ADD DUP5 PUSH2 0x239B JUMP JUMPDEST SWAP5 SWAP4 POP POP POP POP JUMP JUMPDEST PUSH1 0x0 DUP2 ISZERO ISZERO SWAP1 POP SWAP2 SWAP1 POP JUMP JUMPDEST PUSH2 0x27E8 DUP2 PUSH2 0x27D3 JUMP JUMPDEST DUP2 EQ PUSH2 0x27F3 JUMPI PUSH1 0x0 DUP1 REVERT JUMPDEST POP JUMP JUMPDEST PUSH1 0x0 DUP2 MLOAD SWAP1 POP PUSH2 0x2805 DUP2 PUSH2 0x27DF JUMP JUMPDEST SWAP3 SWAP2 POP POP JUMP JUMPDEST PUSH1 0x0 PUSH1 0x20 DUP3 DUP5 SUB SLT ISZERO PUSH2 0x2821 JUMPI PUSH2 0x2820 PUSH2 0x2268 JUMP JUMPDEST JUMPDEST PUSH1 0x0 PUSH2 0x282F DUP5 DUP3 DUP6 ADD PUSH2 0x27F6 JUMP JUMPDEST SWAP2 POP POP SWAP3 SWAP2 POP POP JUMP JUMPDEST PUSH1 0x0 PUSH1 0x60 DUP3 ADD SWAP1 POP PUSH2 0x284D PUSH1 0x0 DUP4 ADD DUP7 PUSH2 0x23AA JUMP JUMPDEST PUSH2 0x285A PUSH1 0x20 DUP4 ADD DUP6 PUSH2 0x23AA JUMP JUMPDEST PUSH2 0x2867 PUSH1 0x40 DUP4 ADD DUP5 PUSH2 0x239B JUMP JUMPDEST SWAP5 SWAP4 POP POP POP POP JUMP JUMPDEST PUSH32 0x5072696365206D757374206265206174206C6561737420312077656900000000 PUSH1 0x0 DUP3 ADD MSTORE POP JUMP JUMPDEST PUSH1 0x0 PUSH2 0x28A5 PUSH1 0x1C DUP4 PUSH2 0x266C JUMP JUMPDEST SWAP2 POP PUSH2 0x28B0 DUP3 PUSH2 0x286F JUMP JUMPDEST PUSH1 0x20 DUP3 ADD SWAP1 POP SWAP2 SWAP1 POP JUMP JUMPDEST PUSH1 0x0 PUSH1 0x20 DUP3 ADD SWAP1 POP DUP2 DUP2 SUB PUSH1 0x0 DUP4 ADD MSTORE PUSH2 0x28D4 DUP2 PUSH2 0x2898 JUMP JUMPDEST SWAP1 POP SWAP2 SWAP1 POP JUMP JUMPDEST PUSH32 0x4F776E61626C653A2063616C6C6572206973206E6F7420746865206F776E6572 PUSH1 0x0 DUP3 ADD MSTORE POP JUMP JUMPDEST PUSH1 0x0 PUSH2 0x2911 PUSH1 0x20 DUP4 PUSH2 0x266C JUMP JUMPDEST SWAP2 POP PUSH2 0x291C DUP3 PUSH2 0x28DB JUMP JUMPDEST PUSH1 0x20 DUP3 ADD SWAP1 POP SWAP2 SWAP1 POP JUMP JUMPDEST PUSH1 0x0 PUSH1 0x20 DUP3 ADD SWAP1 POP DUP2 DUP2 SUB PUSH1 0x0 DUP4 ADD MSTORE PUSH2 0x2940 DUP2 PUSH2 0x2904 JUMP JUMPDEST SWAP1 POP SWAP2 SWAP1 POP JUMP JUMPDEST PUSH32 0x4173736574206E6F74207075626C697368656400000000000000000000000000 PUSH1 0x0 DUP3 ADD MSTORE POP JUMP JUMPDEST PUSH1 0x0 PUSH2 0x297D PUSH1 0x13 DUP4 PUSH2 0x266C JUMP JUMPDEST SWAP2 POP PUSH2 0x2988 DUP3 PUSH2 0x2947 JUMP JUMPDEST PUSH1 0x20 DUP3 ADD SWAP1 POP SWAP2 SWAP1 POP JUMP JUMPDEST PUSH1 0x0 PUSH1 0x20 DUP3 ADD SWAP1 POP DUP2 DUP2 SUB PUSH1 0x0 DUP4 ADD MSTORE PUSH2 0x29AC DUP2 PUSH2 0x2970 JUMP JUMPDEST SWAP1 POP SWAP2 SWAP1 POP JUMP JUMPDEST PUSH32 0x41737365742064656C6973746564000000000000000000000000000000000000 PUSH1 0x0 DUP3 ADD MSTORE POP JUMP JUMPDEST PUSH1 0x0 PUSH2 0x29E9 PUSH1 0xE DUP4 PUSH2 0x266C JUMP JUMPDEST SWAP2 POP PUSH2 0x29F4 DUP3 PUSH2 0x29B3 JUMP JUMPDEST PUSH1 0x20 DUP3 ADD SWAP1 POP SWAP2 SWAP1 POP JUMP JUMPDEST PUSH1 0x0 PUSH1 0x20 DUP3 ADD SWAP1 POP DUP2 DUP2 SUB PUSH1 0x0 DUP4 ADD MSTORE PUSH2 0x2A18 DUP2 PUSH2 0x29DC JUMP JUMPDEST SWAP1 POP SWAP2 SWAP1 POP JUMP JUMPDEST PUSH32 0x496E76616C696420616464726573730000000000000000000000000000000000 PUSH1 0x0 DUP3 ADD MSTORE POP JUMP JUMPDEST PUSH1 0x0 PUSH2 0x2A55 PUSH1 0xF DUP4 PUSH2 0x266C JUMP JUMPDEST SWAP2 POP PUSH2 0x2A60 DUP3 PUSH2 0x2A1F JUMP JUMPDEST PUSH1 0x20 DUP3 ADD SWAP1 POP SWAP2 SWAP1 POP JUMP JUMPDEST PUSH1 0x0 PUSH1 0x20 DUP3 ADD SWAP1 POP DUP2 DUP2 SUB PUSH1 0x0 DUP4 ADD MSTORE PUSH2 0x2A84 DUP2 PUSH2 0x2A48 JUMP JUMPDEST SWAP1 POP SWAP2 SWAP1 POP JUMP JUMPDEST PUSH32 0x4F6E6C792073656C6C65722063616E2064656C69737400000000000000000000 PUSH1 0x0 DUP3 ADD MSTORE POP JUMP JUMPDEST PUSH1 0x0 PUSH2 0x2AC1 PUSH1 0x16 DUP4 PUSH2 0x266C JUMP JUMPDEST SWAP2 POP PUSH2 0x2ACC DUP3 PUSH2 0x2A8B JUMP JUMPDEST PUSH1 0x20 DUP3 ADD SWAP1 POP SWAP2 SWAP1 POP JUMP JUMPDEST PUSH1 0x0 PUSH1 0x20 DUP3 ADD SWAP1 POP DUP2 DUP2 SUB PUSH1 0x0 DUP4 ADD MSTORE PUSH2 0x2AF0 DUP2 PUSH2 0x2AB4 JUMP JUMPDEST SWAP1 POP SWAP2 SWAP1 POP JUMP JUMPDEST PUSH1 0x0 PUSH1 0x60 DUP3 ADD SWAP1 POP PUSH2 0x2B0C PUSH1 0x0 DUP4 ADD DUP7 PUSH2 0x23AA JUMP JUMPDEST PUSH2 0x2B19 PUSH1 0x20 DUP4 ADD DUP6 PUSH2 0x239B JUMP JUMPDEST PUSH2 0x2B26 PUSH1 0x40 DUP4 ADD DUP5 PUSH2 0x239B JUMP JUMPDEST SWAP5 SWAP4 POP POP POP POP JUMP JUMPDEST PUSH32 0x4F776E61626C653A206E6577206F776E657220697320746865207A65726F2061 PUSH1 0x0 DUP3 ADD MSTORE PUSH32 0x6464726573730000000000000000000000000000000000000000000000000000 PUSH1 0x20 DUP3 ADD MSTORE POP JUMP JUMPDEST PUSH1 0x0 PUSH2 0x2B8A PUSH1 0x26 DUP4 PUSH2 0x266C JUMP JUMPDEST SWAP2 POP PUSH2 0x2B95 DUP3 PUSH2 0x2B2E JUMP JUMPDEST PUSH1 0x40 DUP3 ADD SWAP1 POP SWAP2 SWAP1 POP JUMP JUMPDEST PUSH1 0x0 PUSH1 0x20 DUP3 ADD SWAP1 POP DUP2 DUP2 SUB PUSH1 0x0 DUP4 ADD MSTORE PUSH2 0x2BB9 DUP2 PUSH2 0x2B7D JUMP JUMPDEST SWAP1 POP SWAP2 SWAP1 POP JUMP JUMPDEST PUSH32 0x546865204E465420416464726573732073686F756C64206265206120636F6E74 PUSH1 0x0 DUP3 ADD MSTORE PUSH32 0x7261637400000000000000000000000000000000000000000000000000000000 PUSH1 0x20 DUP3 ADD MSTORE POP JUMP JUMPDEST PUSH1 0x0 PUSH2 0x2C1C PUSH1 0x24 DUP4 PUSH2 0x266C JUMP JUMPDEST SWAP2 POP PUSH2 0x2C27 DUP3 PUSH2 0x2BC0 JUMP JUMPDEST PUSH1 0x40 DUP3 ADD SWAP1 POP SWAP2 SWAP1 POP JUMP JUMPDEST PUSH1 0x0 PUSH1 0x20 DUP3 ADD SWAP1 POP DUP2 DUP2 SUB PUSH1 0x0 DUP4 ADD MSTORE PUSH2 0x2C4B DUP2 PUSH2 0x2C0F JUMP JUMPDEST SWAP1 POP SWAP2 SWAP1 POP JUMP JUMPDEST PUSH32 0x546865204E465420636F6E74726163742068617320616E20696E76616C696420 PUSH1 0x0 DUP3 ADD MSTORE PUSH32 0x45524337323120696D706C656D656E746174696F6E0000000000000000000000 PUSH1 0x20 DUP3 ADD MSTORE POP JUMP JUMPDEST PUSH1 0x0 PUSH2 0x2CAE PUSH1 0x35 DUP4 PUSH2 0x266C JUMP JUMPDEST SWAP2 POP PUSH2 0x2CB9 DUP3 PUSH2 0x2C52 JUMP JUMPDEST PUSH1 0x40 DUP3 ADD SWAP1 POP SWAP2 SWAP1 POP JUMP JUMPDEST PUSH1 0x0 PUSH1 0x20 DUP3 ADD SWAP1 POP DUP2 DUP2 SUB PUSH1 0x0 DUP4 ADD MSTORE PUSH2 0x2CDD DUP2 PUSH2 0x2CA1 JUMP JUMPDEST SWAP1 POP SWAP2 SWAP1 POP JUMP INVALID LOG2 PUSH5 0x6970667358 0x22 SLT KECCAK256 EQ 0x4C 0xC8 0x5E 0x26 0x4D NOT 0x49 STATICCALL ADDMOD ADDRESS CALLDATACOPY 0xA7 0xBD PUSH25 0x1E046A55E714C16C0C42B15E689C29C91164736F6C63430008 0xD STOP CALLER "
				},
				"gasEstimates": {
					"creation": {
						"codeDepositCost": "2309200",
						"executionCost": "infinite",
						"totalCost": "infinite"
					},
					"external": {
						"ERC721_Interface()": "386",
						"allItems(uint256)": "infinite",
						"allMarketItems()": "infinite",
						"antaFeePercent()": "2543",
						"bnbFeePercent()": "2566",
						"createMarketItem(address,uint256,uint256)": "infinite",
						"createMarketSale(address,uint256,uint256)": "infinite",
						"delistItem(address,uint256)": "infinite",
						"factory()": "infinite",
						"fetchMarketItem(uint256)": "infinite",
						"fetchMarketItems()": "infinite",
						"fetchMyNFTs()": "infinite",
						"getMarketItem(uint256)": "infinite",
						"items(address,uint256)": "infinite",
						"owner()": "2589",
						"renounceOwnership()": "30397",
						"setSQFToken(address)": "27051",
						"sqfToken()": "infinite",
						"transferOwnership(address)": "30808"
					},
					"internal": {
						"_requireERC721(address)": "infinite",
						"isContract(address)": "2653"
					}
				},
				"methodIdentifiers": {
					"ERC721_Interface()": "2b4c32be",
					"allItems(uint256)": "ff68fa6e",
					"allMarketItems()": "517bd451",
					"antaFeePercent()": "b7a60c7e",
					"bnbFeePercent()": "85a8b36c",
					"createMarketItem(address,uint256,uint256)": "58eb2df5",
					"createMarketSale(address,uint256,uint256)": "21cf91ac",
					"delistItem(address,uint256)": "ad9a0369",
					"factory()": "c45a0155",
					"fetchMarketItem(uint256)": "2a45b250",
					"fetchMarketItems()": "0f08efe0",
					"fetchMyNFTs()": "202e3740",
					"getMarketItem(uint256)": "c7be7a49",
					"items(address,uint256)": "5c80a435",
					"owner()": "8da5cb5b",
					"renounceOwnership()": "715018a6",
					"setSQFToken(address)": "92bf77dd",
					"sqfToken()": "15b81dc3",
					"transferOwnership(address)": "f2fde38b"
				}
			},
			"storageLayout": {
				"storage": [
					{
						"astId": 409,
						"contract": "contracts/Marketplace2/Marketplace.sol:NFTMarket",
						"label": "_status",
						"offset": 0,
						"slot": "0",
						"type": "t_uint256"
					},
					{
						"astId": 491,
						"contract": "contracts/Marketplace2/Marketplace.sol:NFTMarket",
						"label": "allMarketItems",
						"offset": 0,
						"slot": "1",
						"type": "t_struct(MarketItem)488_storage"
					},
					{
						"astId": 502,
						"contract": "contracts/Marketplace2/Marketplace.sol:NFTMarket",
						"label": "allItems",
						"offset": 0,
						"slot": "8",
						"type": "t_mapping(t_uint256,t_struct(MarketItem)488_storage)"
					},
					{
						"astId": 509,
						"contract": "contracts/Marketplace2/Marketplace.sol:NFTMarket",
						"label": "items",
						"offset": 0,
						"slot": "9",
						"type": "t_mapping(t_address,t_mapping(t_uint256,t_struct(MarketItem)488_storage))"
					},
					{
						"astId": 512,
						"contract": "contracts/Marketplace2/Marketplace.sol:NFTMarket",
						"label": "sqfToken",
						"offset": 0,
						"slot": "10",
						"type": "t_contract(IERC20)201"
					},
					{
						"astId": 515,
						"contract": "contracts/Marketplace2/Marketplace.sol:NFTMarket",
						"label": "factory",
						"offset": 0,
						"slot": "11",
						"type": "t_contract(IFactory)468"
					},
					{
						"astId": 517,
						"contract": "contracts/Marketplace2/Marketplace.sol:NFTMarket",
						"label": "bnbFeePercent",
						"offset": 20,
						"slot": "11",
						"type": "t_uint8"
					},
					{
						"astId": 519,
						"contract": "contracts/Marketplace2/Marketplace.sol:NFTMarket",
						"label": "antaFeePercent",
						"offset": 21,
						"slot": "11",
						"type": "t_uint8"
					},
					{
						"astId": 27,
						"contract": "contracts/Marketplace2/Marketplace.sol:NFTMarket",
						"label": "_owner",
						"offset": 0,
						"slot": "12",
						"type": "t_address"
					},
					{
						"astId": 597,
						"contract": "contracts/Marketplace2/Marketplace.sol:NFTMarket",
						"label": "_itemIds",
						"offset": 0,
						"slot": "13",
						"type": "t_struct(Counter)331_storage"
					},
					{
						"astId": 600,
						"contract": "contracts/Marketplace2/Marketplace.sol:NFTMarket",
						"label": "_itemsSold",
						"offset": 0,
						"slot": "14",
						"type": "t_struct(Counter)331_storage"
					},
					{
						"astId": 605,
						"contract": "contracts/Marketplace2/Marketplace.sol:NFTMarket",
						"label": "idToMarketItem",
						"offset": 0,
						"slot": "15",
						"type": "t_mapping(t_uint256,t_struct(MarketItem)488_storage)"
					}
				],
				"types": {
					"t_address": {
						"encoding": "inplace",
						"label": "address",
						"numberOfBytes": "20"
					},
					"t_address_payable": {
						"encoding": "inplace",
						"label": "address payable",
						"numberOfBytes": "20"
					},
					"t_contract(IERC20)201": {
						"encoding": "inplace",
						"label": "contract IERC20",
						"numberOfBytes": "20"
					},
					"t_contract(IFactory)468": {
						"encoding": "inplace",
						"label": "contract IFactory",
						"numberOfBytes": "20"
					},
					"t_enum(ItemStatus)472": {
						"encoding": "inplace",
						"label": "enum MarketplaceStorage.ItemStatus",
						"numberOfBytes": "1"
					},
					"t_mapping(t_address,t_mapping(t_uint256,t_struct(MarketItem)488_storage))": {
						"encoding": "mapping",
						"key": "t_address",
						"label": "mapping(address => mapping(uint256 => struct MarketplaceStorage.MarketItem))",
						"numberOfBytes": "32",
						"value": "t_mapping(t_uint256,t_struct(MarketItem)488_storage)"
					},
					"t_mapping(t_uint256,t_struct(MarketItem)488_storage)": {
						"encoding": "mapping",
						"key": "t_uint256",
						"label": "mapping(uint256 => struct MarketplaceStorage.MarketItem)",
						"numberOfBytes": "32",
						"value": "t_struct(MarketItem)488_storage"
					},
					"t_struct(Counter)331_storage": {
						"encoding": "inplace",
						"label": "struct Counters.Counter",
						"members": [
							{
								"astId": 330,
								"contract": "contracts/Marketplace2/Marketplace.sol:NFTMarket",
								"label": "_value",
								"offset": 0,
								"slot": "0",
								"type": "t_uint256"
							}
						],
						"numberOfBytes": "32"
					},
					"t_struct(MarketItem)488_storage": {
						"encoding": "inplace",
						"label": "struct MarketplaceStorage.MarketItem",
						"members": [
							{
								"astId": 474,
								"contract": "contracts/Marketplace2/Marketplace.sol:NFTMarket",
								"label": "itemId",
								"offset": 0,
								"slot": "0",
								"type": "t_uint256"
							},
							{
								"astId": 476,
								"contract": "contracts/Marketplace2/Marketplace.sol:NFTMarket",
								"label": "nftContract",
								"offset": 0,
								"slot": "1",
								"type": "t_address"
							},
							{
								"astId": 478,
								"contract": "contracts/Marketplace2/Marketplace.sol:NFTMarket",
								"label": "tokenId",
								"offset": 0,
								"slot": "2",
								"type": "t_uint256"
							},
							{
								"astId": 480,
								"contract": "contracts/Marketplace2/Marketplace.sol:NFTMarket",
								"label": "seller",
								"offset": 0,
								"slot": "3",
								"type": "t_address_payable"
							},
							{
								"astId": 482,
								"contract": "contracts/Marketplace2/Marketplace.sol:NFTMarket",
								"label": "owner",
								"offset": 0,
								"slot": "4",
								"type": "t_address_payable"
							},
							{
								"astId": 484,
								"contract": "contracts/Marketplace2/Marketplace.sol:NFTMarket",
								"label": "price",
								"offset": 0,
								"slot": "5",
								"type": "t_uint256"
							},
							{
								"astId": 487,
								"contract": "contracts/Marketplace2/Marketplace.sol:NFTMarket",
								"label": "status",
								"offset": 0,
								"slot": "6",
								"type": "t_enum(ItemStatus)472"
							}
						],
						"numberOfBytes": "224"
					},
					"t_uint256": {
						"encoding": "inplace",
						"label": "uint256",
						"numberOfBytes": "32"
					},
					"t_uint8": {
						"encoding": "inplace",
						"label": "uint8",
						"numberOfBytes": "1"
					}
				}
			},
			"userdoc": {
				"kind": "user",
				"methods": {},
				"version": 1
			}
		}
	}
}