{
	"contracts/Marketplace2/Marketplace.sol": {
		"NFTMarket": {
			"abi": [
				{
					"inputs": [
						{
							"internalType": "address payable",
							"name": "_mainToken",
							"type": "address"
						},
						{
							"internalType": "address payable",
							"name": "_mainNFT",
							"type": "address"
						},
						{
							"internalType": "address payable",
							"name": "_mainFactory",
							"type": "address"
						}
					],
					"stateMutability": "payable",
					"type": "constructor"
				},
				{
					"anonymous": false,
					"inputs": [
						{
							"indexed": false,
							"internalType": "uint256",
							"name": "itemId",
							"type": "uint256"
						},
						{
							"indexed": true,
							"internalType": "uint256",
							"name": "tokenId",
							"type": "uint256"
						},
						{
							"indexed": true,
							"internalType": "address",
							"name": "seller",
							"type": "address"
						},
						{
							"indexed": false,
							"internalType": "uint256",
							"name": "price",
							"type": "uint256"
						},
						{
							"indexed": true,
							"internalType": "address",
							"name": "buyer",
							"type": "address"
						},
						{
							"indexed": false,
							"internalType": "string",
							"name": "currency",
							"type": "string"
						},
						{
							"indexed": false,
							"internalType": "uint256",
							"name": "createdAt",
							"type": "uint256"
						}
					],
					"name": "BuyItemSuccessful",
					"type": "event"
				},
				{
					"anonymous": false,
					"inputs": [
						{
							"indexed": false,
							"internalType": "uint256",
							"name": "id",
							"type": "uint256"
						},
						{
							"indexed": true,
							"internalType": "uint256",
							"name": "assetId",
							"type": "uint256"
						},
						{
							"indexed": true,
							"internalType": "address",
							"name": "delistBy",
							"type": "address"
						},
						{
							"indexed": false,
							"internalType": "uint256",
							"name": "createdAt",
							"type": "uint256"
						}
					],
					"name": "DelistItemSuccessful",
					"type": "event"
				},
				{
					"anonymous": false,
					"inputs": [
						{
							"indexed": true,
							"internalType": "uint256",
							"name": "itemId",
							"type": "uint256"
						},
						{
							"indexed": true,
							"internalType": "uint256",
							"name": "tokenId",
							"type": "uint256"
						},
						{
							"indexed": false,
							"internalType": "address",
							"name": "seller",
							"type": "address"
						},
						{
							"indexed": false,
							"internalType": "address",
							"name": "owner",
							"type": "address"
						},
						{
							"indexed": false,
							"internalType": "uint256",
							"name": "price",
							"type": "uint256"
						}
					],
					"name": "MarketItemCreated",
					"type": "event"
				},
				{
					"anonymous": false,
					"inputs": [
						{
							"indexed": true,
							"internalType": "address",
							"name": "previousOwner",
							"type": "address"
						},
						{
							"indexed": true,
							"internalType": "address",
							"name": "newOwner",
							"type": "address"
						}
					],
					"name": "OwnershipTransferred",
					"type": "event"
				},
				{
					"anonymous": false,
					"inputs": [
						{
							"indexed": false,
							"internalType": "address",
							"name": "nftAddress",
							"type": "address"
						},
						{
							"indexed": false,
							"internalType": "bytes32",
							"name": "id",
							"type": "bytes32"
						},
						{
							"indexed": true,
							"internalType": "uint256",
							"name": "assetId",
							"type": "uint256"
						},
						{
							"indexed": false,
							"internalType": "uint256",
							"name": "price",
							"type": "uint256"
						},
						{
							"indexed": true,
							"internalType": "address",
							"name": "seller",
							"type": "address"
						},
						{
							"indexed": false,
							"internalType": "string",
							"name": "currency",
							"type": "string"
						},
						{
							"indexed": false,
							"internalType": "uint256",
							"name": "createdAt",
							"type": "uint256"
						}
					],
					"name": "SellItemSuccessful",
					"type": "event"
				},
				{
					"inputs": [],
					"name": "ERC721_Interface",
					"outputs": [
						{
							"internalType": "bytes4",
							"name": "",
							"type": "bytes4"
						}
					],
					"stateMutability": "view",
					"type": "function"
				},
				{
					"inputs": [
						{
							"internalType": "uint256",
							"name": "tokenId",
							"type": "uint256"
						}
					],
					"name": "_safeTransferToMarket",
					"outputs": [],
					"stateMutability": "nonpayable",
					"type": "function"
				},
				{
					"inputs": [
						{
							"internalType": "uint256",
							"name": "",
							"type": "uint256"
						}
					],
					"name": "allItems",
					"outputs": [
						{
							"internalType": "uint256",
							"name": "itemId",
							"type": "uint256"
						},
						{
							"internalType": "uint256",
							"name": "tokenId",
							"type": "uint256"
						},
						{
							"internalType": "address",
							"name": "seller",
							"type": "address"
						},
						{
							"internalType": "address",
							"name": "owner",
							"type": "address"
						},
						{
							"internalType": "uint256",
							"name": "price",
							"type": "uint256"
						},
						{
							"internalType": "enum MarketplaceStorage.ItemStatus",
							"name": "status",
							"type": "uint8"
						}
					],
					"stateMutability": "view",
					"type": "function"
				},
				{
					"inputs": [],
					"name": "antaFeePercent",
					"outputs": [
						{
							"internalType": "uint8",
							"name": "",
							"type": "uint8"
						}
					],
					"stateMutability": "view",
					"type": "function"
				},
				{
					"inputs": [],
					"name": "bnbFeePercent",
					"outputs": [
						{
							"internalType": "uint8",
							"name": "",
							"type": "uint8"
						}
					],
					"stateMutability": "view",
					"type": "function"
				},
				{
					"inputs": [
						{
							"internalType": "uint256",
							"name": "tokenId",
							"type": "uint256"
						},
						{
							"internalType": "uint256",
							"name": "price",
							"type": "uint256"
						}
					],
					"name": "createMarketItem1",
					"outputs": [],
					"stateMutability": "nonpayable",
					"type": "function"
				},
				{
					"inputs": [
						{
							"internalType": "uint256",
							"name": "tokenId",
							"type": "uint256"
						},
						{
							"internalType": "uint256",
							"name": "price",
							"type": "uint256"
						}
					],
					"name": "createMarketItem2",
					"outputs": [],
					"stateMutability": "nonpayable",
					"type": "function"
				},
				{
					"inputs": [
						{
							"internalType": "uint256",
							"name": "price",
							"type": "uint256"
						}
					],
					"name": "createMarketItem3",
					"outputs": [],
					"stateMutability": "nonpayable",
					"type": "function"
				},
				{
					"inputs": [
						{
							"internalType": "uint256",
							"name": "itemId",
							"type": "uint256"
						},
						{
							"internalType": "uint256",
							"name": "amount",
							"type": "uint256"
						}
					],
					"name": "createMarketSale",
					"outputs": [],
					"stateMutability": "nonpayable",
					"type": "function"
				},
				{
					"inputs": [
						{
							"internalType": "uint256",
							"name": "itemId",
							"type": "uint256"
						}
					],
					"name": "delistItem",
					"outputs": [],
					"stateMutability": "nonpayable",
					"type": "function"
				},
				{
					"inputs": [],
					"name": "factory",
					"outputs": [
						{
							"internalType": "contract IFactory",
							"name": "",
							"type": "address"
						}
					],
					"stateMutability": "view",
					"type": "function"
				},
				{
					"inputs": [],
					"name": "getMarketItem",
					"outputs": [
						{
							"components": [
								{
									"internalType": "uint256",
									"name": "itemId",
									"type": "uint256"
								},
								{
									"internalType": "uint256",
									"name": "tokenId",
									"type": "uint256"
								},
								{
									"internalType": "address",
									"name": "seller",
									"type": "address"
								},
								{
									"internalType": "address",
									"name": "owner",
									"type": "address"
								},
								{
									"internalType": "uint256",
									"name": "price",
									"type": "uint256"
								},
								{
									"internalType": "enum MarketplaceStorage.ItemStatus",
									"name": "status",
									"type": "uint8"
								}
							],
							"internalType": "struct MarketplaceStorage.MarketItem[]",
							"name": "",
							"type": "tuple[]"
						}
					],
					"stateMutability": "view",
					"type": "function"
				},
				{
					"inputs": [
						{
							"internalType": "uint256",
							"name": "marketItemId",
							"type": "uint256"
						}
					],
					"name": "getMarketItem",
					"outputs": [
						{
							"components": [
								{
									"internalType": "uint256",
									"name": "itemId",
									"type": "uint256"
								},
								{
									"internalType": "uint256",
									"name": "tokenId",
									"type": "uint256"
								},
								{
									"internalType": "address",
									"name": "seller",
									"type": "address"
								},
								{
									"internalType": "address",
									"name": "owner",
									"type": "address"
								},
								{
									"internalType": "uint256",
									"name": "price",
									"type": "uint256"
								},
								{
									"internalType": "enum MarketplaceStorage.ItemStatus",
									"name": "status",
									"type": "uint8"
								}
							],
							"internalType": "struct MarketplaceStorage.MarketItem",
							"name": "",
							"type": "tuple"
						}
					],
					"stateMutability": "view",
					"type": "function"
				},
				{
					"inputs": [
						{
							"internalType": "uint256",
							"name": "",
							"type": "uint256"
						}
					],
					"name": "items",
					"outputs": [
						{
							"internalType": "uint256",
							"name": "itemId",
							"type": "uint256"
						},
						{
							"internalType": "uint256",
							"name": "tokenId",
							"type": "uint256"
						},
						{
							"internalType": "address",
							"name": "seller",
							"type": "address"
						},
						{
							"internalType": "address",
							"name": "owner",
							"type": "address"
						},
						{
							"internalType": "uint256",
							"name": "price",
							"type": "uint256"
						},
						{
							"internalType": "enum MarketplaceStorage.ItemStatus",
							"name": "status",
							"type": "uint8"
						}
					],
					"stateMutability": "view",
					"type": "function"
				},
				{
					"inputs": [],
					"name": "mainNFTs",
					"outputs": [
						{
							"internalType": "contract IERC721",
							"name": "",
							"type": "address"
						}
					],
					"stateMutability": "view",
					"type": "function"
				},
				{
					"inputs": [],
					"name": "mainToken",
					"outputs": [
						{
							"internalType": "contract IERC20",
							"name": "",
							"type": "address"
						}
					],
					"stateMutability": "view",
					"type": "function"
				},
				{
					"inputs": [],
					"name": "owner",
					"outputs": [
						{
							"internalType": "address",
							"name": "",
							"type": "address"
						}
					],
					"stateMutability": "view",
					"type": "function"
				},
				{
					"inputs": [],
					"name": "renounceOwnership",
					"outputs": [],
					"stateMutability": "nonpayable",
					"type": "function"
				},
				{
					"inputs": [
						{
							"internalType": "address",
							"name": "_address",
							"type": "address"
						}
					],
					"name": "setFactory",
					"outputs": [],
					"stateMutability": "nonpayable",
					"type": "function"
				},
				{
					"inputs": [
						{
							"internalType": "address",
							"name": "_address",
							"type": "address"
						}
					],
					"name": "setMainNFT",
					"outputs": [],
					"stateMutability": "nonpayable",
					"type": "function"
				},
				{
					"inputs": [
						{
							"internalType": "address",
							"name": "_address",
							"type": "address"
						}
					],
					"name": "setMainToken",
					"outputs": [],
					"stateMutability": "nonpayable",
					"type": "function"
				},
				{
					"inputs": [
						{
							"internalType": "address",
							"name": "newOwner",
							"type": "address"
						}
					],
					"name": "transferOwnership",
					"outputs": [],
					"stateMutability": "nonpayable",
					"type": "function"
				}
			],
			"devdoc": {
				"kind": "dev",
				"methods": {
					"owner()": {
						"details": "Returns the address of the current owner."
					},
					"renounceOwnership()": {
						"details": "Leaves the contract without owner. It will not be possible to call `onlyOwner` functions anymore. Can only be called by the current owner. NOTE: Renouncing ownership will leave the contract without an owner, thereby removing any functionality that is only available to the owner."
					},
					"transferOwnership(address)": {
						"details": "Transfers ownership of the contract to a new account (`newOwner`). Can only be called by the current owner."
					}
				},
				"version": 1
			},
			"evm": {
				"assembly": "    /* \"contracts/Marketplace2/Marketplace.sol\":17144:23816  contract NFTMarket is ReentrancyGuard,MarketplaceStorage, Ownable {... */\n  mstore(0x40, 0x80)\n    /* \"contracts/Marketplace2/Marketplace.sol\":17390:17616  constructor(address payable _mainToken, address payable _mainNFT, address payable _mainFactory ) payable {... */\n  mload(0x40)\n  sub(codesize, bytecodeSize)\n  dup1\n  bytecodeSize\n  dup4\n  codecopy\n  dup2\n  dup2\n  add\n  0x40\n  mstore\n  dup2\n  add\n  swap1\n  tag_1\n  swap2\n  swap1\n  tag_2\n  jump\t// in\ntag_1:\n    /* \"contracts/Marketplace2/Marketplace.sol\":14124:14125  1 */\n  0x01\n    /* \"contracts/Marketplace2/Marketplace.sol\":14229:14236  _status */\n  0x00\n    /* \"contracts/Marketplace2/Marketplace.sol\":14229:14251  _status = _NOT_ENTERED */\n  dup2\n  swap1\n  sstore\n  pop\n    /* \"contracts/Marketplace2/Marketplace.sol\":1561:1593  _transferOwnership(_msgSender()) */\n  tag_8\n    /* \"contracts/Marketplace2/Marketplace.sol\":1580:1592  _msgSender() */\n  tag_9\n    /* \"contracts/Marketplace2/Marketplace.sol\":1580:1590  _msgSender */\n  shl(0x20, tag_10)\n    /* \"contracts/Marketplace2/Marketplace.sol\":1580:1592  _msgSender() */\n  0x20\n  shr\n  jump\t// in\ntag_9:\n    /* \"contracts/Marketplace2/Marketplace.sol\":1561:1579  _transferOwnership */\n  shl(0x20, tag_11)\n    /* \"contracts/Marketplace2/Marketplace.sol\":1561:1593  _transferOwnership(_msgSender()) */\n  0x20\n  shr\n  jump\t// in\ntag_8:\n    /* \"contracts/Marketplace2/Marketplace.sol\":17522:17532  _mainToken */\n  dup3\n    /* \"contracts/Marketplace2/Marketplace.sol\":17503:17512  mainToken */\n  0x03\n  0x00\n    /* \"contracts/Marketplace2/Marketplace.sol\":17503:17533  mainToken = IERC20(_mainToken) */\n  0x0100\n  exp\n  dup2\n  sload\n  dup2\n  0xffffffffffffffffffffffffffffffffffffffff\n  mul\n  not\n  and\n  swap1\n  dup4\n  0xffffffffffffffffffffffffffffffffffffffff\n  and\n  mul\n  or\n  swap1\n  sstore\n  pop\n    /* \"contracts/Marketplace2/Marketplace.sol\":17560:17568  _mainNFT */\n  dup2\n    /* \"contracts/Marketplace2/Marketplace.sol\":17541:17549  mainNFTs */\n  0x05\n  0x00\n    /* \"contracts/Marketplace2/Marketplace.sol\":17541:17569  mainNFTs = IERC721(_mainNFT) */\n  0x0100\n  exp\n  dup2\n  sload\n  dup2\n  0xffffffffffffffffffffffffffffffffffffffff\n  mul\n  not\n  and\n  swap1\n  dup4\n  0xffffffffffffffffffffffffffffffffffffffff\n  and\n  mul\n  or\n  swap1\n  sstore\n  pop\n    /* \"contracts/Marketplace2/Marketplace.sol\":17596:17608  _mainFactory */\n  dup1\n    /* \"contracts/Marketplace2/Marketplace.sol\":17577:17584  factory */\n  0x04\n  0x00\n    /* \"contracts/Marketplace2/Marketplace.sol\":17577:17609  factory = IFactory(_mainFactory) */\n  0x0100\n  exp\n  dup2\n  sload\n  dup2\n  0xffffffffffffffffffffffffffffffffffffffff\n  mul\n  not\n  and\n  swap1\n  dup4\n  0xffffffffffffffffffffffffffffffffffffffff\n  and\n  mul\n  or\n  swap1\n  sstore\n  pop\n    /* \"contracts/Marketplace2/Marketplace.sol\":17390:17616  constructor(address payable _mainToken, address payable _mainNFT, address payable _mainFactory ) payable {... */\n  pop\n  pop\n  pop\n    /* \"contracts/Marketplace2/Marketplace.sol\":17144:23816  contract NFTMarket is ReentrancyGuard,MarketplaceStorage, Ownable {... */\n  jump(tag_13)\n    /* \"contracts/Marketplace2/Marketplace.sol\":554:650  function _msgSender() internal view virtual returns (address) {... */\ntag_10:\n    /* \"contracts/Marketplace2/Marketplace.sol\":607:614  address */\n  0x00\n    /* \"contracts/Marketplace2/Marketplace.sol\":633:643  msg.sender */\n  caller\n    /* \"contracts/Marketplace2/Marketplace.sol\":626:643  return msg.sender */\n  swap1\n  pop\n    /* \"contracts/Marketplace2/Marketplace.sol\":554:650  function _msgSender() internal view virtual returns (address) {... */\n  swap1\n  jump\t// out\n    /* \"contracts/Marketplace2/Marketplace.sol\":2910:3097  function _transferOwnership(address newOwner) internal virtual {... */\ntag_11:\n    /* \"contracts/Marketplace2/Marketplace.sol\":2983:2999  address oldOwner */\n  0x00\n    /* \"contracts/Marketplace2/Marketplace.sol\":3002:3008  _owner */\n  0x06\n  0x00\n  swap1\n  sload\n  swap1\n  0x0100\n  exp\n  swap1\n  div\n  0xffffffffffffffffffffffffffffffffffffffff\n  and\n    /* \"contracts/Marketplace2/Marketplace.sol\":2983:3008  address oldOwner = _owner */\n  swap1\n  pop\n    /* \"contracts/Marketplace2/Marketplace.sol\":3027:3035  newOwner */\n  dup2\n    /* \"contracts/Marketplace2/Marketplace.sol\":3018:3024  _owner */\n  0x06\n  0x00\n    /* \"contracts/Marketplace2/Marketplace.sol\":3018:3035  _owner = newOwner */\n  0x0100\n  exp\n  dup2\n  sload\n  dup2\n  0xffffffffffffffffffffffffffffffffffffffff\n  mul\n  not\n  and\n  swap1\n  dup4\n  0xffffffffffffffffffffffffffffffffffffffff\n  and\n  mul\n  or\n  swap1\n  sstore\n  pop\n    /* \"contracts/Marketplace2/Marketplace.sol\":3081:3089  newOwner */\n  dup2\n    /* \"contracts/Marketplace2/Marketplace.sol\":3050:3090  OwnershipTransferred(oldOwner, newOwner) */\n  0xffffffffffffffffffffffffffffffffffffffff\n  and\n    /* \"contracts/Marketplace2/Marketplace.sol\":3071:3079  oldOwner */\n  dup2\n    /* \"contracts/Marketplace2/Marketplace.sol\":3050:3090  OwnershipTransferred(oldOwner, newOwner) */\n  0xffffffffffffffffffffffffffffffffffffffff\n  and\n  0x8be0079c531659141344cd1fd0a4f28419497f9722a3daafe3b4186f6b6457e0\n  mload(0x40)\n  mload(0x40)\n  dup1\n  swap2\n  sub\n  swap1\n  log3\n    /* \"contracts/Marketplace2/Marketplace.sol\":2973:3097  {... */\n  pop\n    /* \"contracts/Marketplace2/Marketplace.sol\":2910:3097  function _transferOwnership(address newOwner) internal virtual {... */\n  pop\n  jump\t// out\n    /* \"#utility.yul\":88:205   */\ntag_17:\n    /* \"#utility.yul\":197:198   */\n  0x00\n    /* \"#utility.yul\":194:195   */\n  dup1\n    /* \"#utility.yul\":187:199   */\n  revert\n    /* \"#utility.yul\":334:460   */\ntag_19:\n    /* \"#utility.yul\":371:378   */\n  0x00\n    /* \"#utility.yul\":411:453   */\n  0xffffffffffffffffffffffffffffffffffffffff\n    /* \"#utility.yul\":404:409   */\n  dup3\n    /* \"#utility.yul\":400:454   */\n  and\n    /* \"#utility.yul\":389:454   */\n  swap1\n  pop\n    /* \"#utility.yul\":334:460   */\n  swap2\n  swap1\n  pop\n  jump\t// out\n    /* \"#utility.yul\":466:570   */\ntag_20:\n    /* \"#utility.yul\":511:518   */\n  0x00\n    /* \"#utility.yul\":540:564   */\n  tag_29\n    /* \"#utility.yul\":558:563   */\n  dup3\n    /* \"#utility.yul\":540:564   */\n  tag_19\n  jump\t// in\ntag_29:\n    /* \"#utility.yul\":529:564   */\n  swap1\n  pop\n    /* \"#utility.yul\":466:570   */\n  swap2\n  swap1\n  pop\n  jump\t// out\n    /* \"#utility.yul\":576:714   */\ntag_21:\n    /* \"#utility.yul\":657:689   */\n  tag_31\n    /* \"#utility.yul\":683:688   */\n  dup2\n    /* \"#utility.yul\":657:689   */\n  tag_20\n  jump\t// in\ntag_31:\n    /* \"#utility.yul\":650:655   */\n  dup2\n    /* \"#utility.yul\":647:690   */\n  eq\n    /* \"#utility.yul\":637:708   */\n  tag_32\n  jumpi\n    /* \"#utility.yul\":704:705   */\n  0x00\n    /* \"#utility.yul\":701:702   */\n  dup1\n    /* \"#utility.yul\":694:706   */\n  revert\n    /* \"#utility.yul\":637:708   */\ntag_32:\n    /* \"#utility.yul\":576:714   */\n  pop\n  jump\t// out\n    /* \"#utility.yul\":720:879   */\ntag_22:\n    /* \"#utility.yul\":785:790   */\n  0x00\n    /* \"#utility.yul\":816:822   */\n  dup2\n    /* \"#utility.yul\":810:823   */\n  mload\n    /* \"#utility.yul\":801:823   */\n  swap1\n  pop\n    /* \"#utility.yul\":832:873   */\n  tag_34\n    /* \"#utility.yul\":867:872   */\n  dup2\n    /* \"#utility.yul\":832:873   */\n  tag_21\n  jump\t// in\ntag_34:\n    /* \"#utility.yul\":720:879   */\n  swap3\n  swap2\n  pop\n  pop\n  jump\t// out\n    /* \"#utility.yul\":885:1596   */\ntag_2:\n    /* \"#utility.yul\":997:1003   */\n  0x00\n    /* \"#utility.yul\":1005:1011   */\n  dup1\n    /* \"#utility.yul\":1013:1019   */\n  0x00\n    /* \"#utility.yul\":1062:1064   */\n  0x60\n    /* \"#utility.yul\":1050:1059   */\n  dup5\n    /* \"#utility.yul\":1041:1048   */\n  dup7\n    /* \"#utility.yul\":1037:1060   */\n  sub\n    /* \"#utility.yul\":1033:1065   */\n  slt\n    /* \"#utility.yul\":1030:1149   */\n  iszero\n  tag_36\n  jumpi\n    /* \"#utility.yul\":1068:1147   */\n  tag_37\n  tag_17\n  jump\t// in\ntag_37:\n    /* \"#utility.yul\":1030:1149   */\ntag_36:\n    /* \"#utility.yul\":1188:1189   */\n  0x00\n    /* \"#utility.yul\":1213:1285   */\n  tag_38\n    /* \"#utility.yul\":1277:1284   */\n  dup7\n    /* \"#utility.yul\":1268:1274   */\n  dup3\n    /* \"#utility.yul\":1257:1266   */\n  dup8\n    /* \"#utility.yul\":1253:1275   */\n  add\n    /* \"#utility.yul\":1213:1285   */\n  tag_22\n  jump\t// in\ntag_38:\n    /* \"#utility.yul\":1203:1285   */\n  swap4\n  pop\n    /* \"#utility.yul\":1159:1295   */\n  pop\n    /* \"#utility.yul\":1334:1336   */\n  0x20\n    /* \"#utility.yul\":1360:1432   */\n  tag_39\n    /* \"#utility.yul\":1424:1431   */\n  dup7\n    /* \"#utility.yul\":1415:1421   */\n  dup3\n    /* \"#utility.yul\":1404:1413   */\n  dup8\n    /* \"#utility.yul\":1400:1422   */\n  add\n    /* \"#utility.yul\":1360:1432   */\n  tag_22\n  jump\t// in\ntag_39:\n    /* \"#utility.yul\":1350:1432   */\n  swap3\n  pop\n    /* \"#utility.yul\":1305:1442   */\n  pop\n    /* \"#utility.yul\":1481:1483   */\n  0x40\n    /* \"#utility.yul\":1507:1579   */\n  tag_40\n    /* \"#utility.yul\":1571:1578   */\n  dup7\n    /* \"#utility.yul\":1562:1568   */\n  dup3\n    /* \"#utility.yul\":1551:1560   */\n  dup8\n    /* \"#utility.yul\":1547:1569   */\n  add\n    /* \"#utility.yul\":1507:1579   */\n  tag_22\n  jump\t// in\ntag_40:\n    /* \"#utility.yul\":1497:1579   */\n  swap2\n  pop\n    /* \"#utility.yul\":1452:1589   */\n  pop\n    /* \"#utility.yul\":885:1596   */\n  swap3\n  pop\n  swap3\n  pop\n  swap3\n  jump\t// out\n    /* \"contracts/Marketplace2/Marketplace.sol\":17144:23816  contract NFTMarket is ReentrancyGuard,MarketplaceStorage, Ownable {... */\ntag_13:\n  dataSize(sub_0)\n  dup1\n  dataOffset(sub_0)\n  0x00\n  codecopy\n  0x00\n  return\nstop\n\nsub_0: assembly {\n        /* \"contracts/Marketplace2/Marketplace.sol\":17144:23816  contract NFTMarket is ReentrancyGuard,MarketplaceStorage, Ownable {... */\n      mstore(0x40, 0x80)\n      callvalue\n      dup1\n      iszero\n      tag_1\n      jumpi\n      0x00\n      dup1\n      revert\n    tag_1:\n      pop\n      jumpi(tag_2, lt(calldatasize, 0x04))\n      shr(0xe0, calldataload(0x00))\n      dup1\n      0x8da5cb5b\n      gt\n      tag_25\n      jumpi\n      dup1\n      0xc45a0155\n      gt\n      tag_26\n      jumpi\n      dup1\n      0xc45a0155\n      eq\n      tag_19\n      jumpi\n      dup1\n      0xc7be7a49\n      eq\n      tag_20\n      jumpi\n      dup1\n      0xe78e717d\n      eq\n      tag_21\n      jumpi\n      dup1\n      0xf2fde38b\n      eq\n      tag_22\n      jumpi\n      dup1\n      0xf55de0c7\n      eq\n      tag_23\n      jumpi\n      dup1\n      0xff68fa6e\n      eq\n      tag_24\n      jumpi\n      jump(tag_2)\n    tag_26:\n      dup1\n      0x8da5cb5b\n      eq\n      tag_14\n      jumpi\n      dup1\n      0xa1c11ca8\n      eq\n      tag_15\n      jumpi\n      dup1\n      0xae295f94\n      eq\n      tag_16\n      jumpi\n      dup1\n      0xb7a60c7e\n      eq\n      tag_17\n      jumpi\n      dup1\n      0xbfb231d2\n      eq\n      tag_18\n      jumpi\n      jump(tag_2)\n    tag_25:\n      dup1\n      0x3fc15f15\n      gt\n      tag_27\n      jumpi\n      dup1\n      0x3fc15f15\n      eq\n      tag_8\n      jumpi\n      dup1\n      0x42199f88\n      eq\n      tag_9\n      jumpi\n      dup1\n      0x49fb7d4b\n      eq\n      tag_10\n      jumpi\n      dup1\n      0x5bb47808\n      eq\n      tag_11\n      jumpi\n      dup1\n      0x715018a6\n      eq\n      tag_12\n      jumpi\n      dup1\n      0x85a8b36c\n      eq\n      tag_13\n      jumpi\n      jump(tag_2)\n    tag_27:\n      dup1\n      0x10061631\n      eq\n      tag_3\n      jumpi\n      dup1\n      0x15b12494\n      eq\n      tag_4\n      jumpi\n      dup1\n      0x27ce464e\n      eq\n      tag_5\n      jumpi\n      dup1\n      0x2b4c32be\n      eq\n      tag_6\n      jumpi\n      dup1\n      0x3e48ca65\n      eq\n      tag_7\n      jumpi\n    tag_2:\n      0x00\n      dup1\n      revert\n        /* \"contracts/Marketplace2/Marketplace.sol\":21941:22699  function delistItem(uint256 itemId) public {... */\n    tag_3:\n      tag_28\n      0x04\n      dup1\n      calldatasize\n      sub\n      dup2\n      add\n      swap1\n      tag_29\n      swap2\n      swap1\n      tag_30\n      jump\t// in\n    tag_29:\n      tag_31\n      jump\t// in\n    tag_28:\n      stop\n        /* \"contracts/Marketplace2/Marketplace.sol\":18736:18838  function setMainNFT(address _address) external onlyOwner {... */\n    tag_4:\n      tag_32\n      0x04\n      dup1\n      calldatasize\n      sub\n      dup2\n      add\n      swap1\n      tag_33\n      swap2\n      swap1\n      tag_34\n      jump\t// in\n    tag_33:\n      tag_35\n      jump\t// in\n    tag_32:\n      stop\n        /* \"contracts/Marketplace2/Marketplace.sol\":18627:18731  function setMainToken(address _address) external onlyOwner {... */\n    tag_5:\n      tag_36\n      0x04\n      dup1\n      calldatasize\n      sub\n      dup2\n      add\n      swap1\n      tag_37\n      swap2\n      swap1\n      tag_34\n      jump\t// in\n    tag_37:\n      tag_38\n      jump\t// in\n    tag_36:\n      stop\n        /* \"contracts/Marketplace2/Marketplace.sol\":15944:16004  bytes4 public constant ERC721_Interface = bytes4(0x80ac58cd) */\n    tag_6:\n      tag_39\n      tag_40\n      jump\t// in\n    tag_39:\n      mload(0x40)\n      tag_41\n      swap2\n      swap1\n      tag_42\n      jump\t// in\n    tag_41:\n      mload(0x40)\n      dup1\n      swap2\n      sub\n      swap1\n      return\n        /* \"contracts/Marketplace2/Marketplace.sol\":20368:21117  function createMarketItem3(... */\n    tag_7:\n      tag_43\n      0x04\n      dup1\n      calldatasize\n      sub\n      dup2\n      add\n      swap1\n      tag_44\n      swap2\n      swap1\n      tag_30\n      jump\t// in\n    tag_44:\n      tag_45\n      jump\t// in\n    tag_43:\n      stop\n        /* \"contracts/Marketplace2/Marketplace.sol\":16208:16231  IERC20 public mainToken */\n    tag_8:\n      tag_46\n      tag_47\n      jump\t// in\n    tag_46:\n      mload(0x40)\n      tag_48\n      swap2\n      swap1\n      tag_49\n      jump\t// in\n    tag_48:\n      mload(0x40)\n      dup1\n      swap2\n      sub\n      swap1\n      return\n        /* \"contracts/Marketplace2/Marketplace.sol\":17622:18478  function getMarketItem() public view returns(MarketItem[] memory) { ... */\n    tag_9:\n      tag_50\n      tag_51\n      jump\t// in\n    tag_50:\n      mload(0x40)\n      tag_52\n      swap2\n      swap1\n      tag_53\n      jump\t// in\n    tag_52:\n      mload(0x40)\n      dup1\n      swap2\n      sub\n      swap1\n      return\n        /* \"contracts/Marketplace2/Marketplace.sol\":18949:19706  function createMarketItem1(... */\n    tag_10:\n      tag_54\n      0x04\n      dup1\n      calldatasize\n      sub\n      dup2\n      add\n      swap1\n      tag_55\n      swap2\n      swap1\n      tag_56\n      jump\t// in\n    tag_55:\n      tag_57\n      jump\t// in\n    tag_54:\n      stop\n        /* \"contracts/Marketplace2/Marketplace.sol\":18843:18945  function setFactory(address _address) external onlyOwner {... */\n    tag_11:\n      tag_58\n      0x04\n      dup1\n      calldatasize\n      sub\n      dup2\n      add\n      swap1\n      tag_59\n      swap2\n      swap1\n      tag_34\n      jump\t// in\n    tag_59:\n      tag_60\n      jump\t// in\n    tag_58:\n      stop\n        /* \"contracts/Marketplace2/Marketplace.sol\":2308:2409  function renounceOwnership() public virtual onlyOwner {... */\n    tag_12:\n      tag_61\n      tag_62\n      jump\t// in\n    tag_61:\n      stop\n        /* \"contracts/Marketplace2/Marketplace.sol\":16296:16322  uint8 public bnbFeePercent */\n    tag_13:\n      tag_63\n      tag_64\n      jump\t// in\n    tag_63:\n      mload(0x40)\n      tag_65\n      swap2\n      swap1\n      tag_66\n      jump\t// in\n    tag_65:\n      mload(0x40)\n      dup1\n      swap2\n      sub\n      swap1\n      return\n        /* \"contracts/Marketplace2/Marketplace.sol\":1676:1761  function owner() public view virtual returns (address) {... */\n    tag_14:\n      tag_67\n      tag_68\n      jump\t// in\n    tag_67:\n      mload(0x40)\n      tag_69\n      swap2\n      swap1\n      tag_70\n      jump\t// in\n    tag_69:\n      mload(0x40)\n      dup1\n      swap2\n      sub\n      swap1\n      return\n        /* \"contracts/Marketplace2/Marketplace.sol\":21120:21937  function createMarketSale(... */\n    tag_15:\n      tag_71\n      0x04\n      dup1\n      calldatasize\n      sub\n      dup2\n      add\n      swap1\n      tag_72\n      swap2\n      swap1\n      tag_56\n      jump\t// in\n    tag_72:\n      tag_73\n      jump\t// in\n    tag_71:\n      stop\n        /* \"contracts/Marketplace2/Marketplace.sol\":19710:20364  function createMarketItem2(... */\n    tag_16:\n      tag_74\n      0x04\n      dup1\n      calldatasize\n      sub\n      dup2\n      add\n      swap1\n      tag_75\n      swap2\n      swap1\n      tag_56\n      jump\t// in\n    tag_75:\n      tag_76\n      jump\t// in\n    tag_74:\n      stop\n        /* \"contracts/Marketplace2/Marketplace.sol\":16328:16355  uint8 public antaFeePercent */\n    tag_17:\n      tag_77\n      tag_78\n      jump\t// in\n    tag_77:\n      mload(0x40)\n      tag_79\n      swap2\n      swap1\n      tag_66\n      jump\t// in\n    tag_79:\n      mload(0x40)\n      dup1\n      swap2\n      sub\n      swap1\n      return\n        /* \"contracts/Marketplace2/Marketplace.sol\":15913:15938  MarketItem[] public items */\n    tag_18:\n      tag_80\n      0x04\n      dup1\n      calldatasize\n      sub\n      dup2\n      add\n      swap1\n      tag_81\n      swap2\n      swap1\n      tag_30\n      jump\t// in\n    tag_81:\n      tag_82\n      jump\t// in\n    tag_80:\n      mload(0x40)\n      tag_83\n      swap7\n      swap6\n      swap5\n      swap4\n      swap3\n      swap2\n      swap1\n      tag_84\n      jump\t// in\n    tag_83:\n      mload(0x40)\n      dup1\n      swap2\n      sub\n      swap1\n      return\n        /* \"contracts/Marketplace2/Marketplace.sol\":16237:16260  IFactory public factory */\n    tag_19:\n      tag_85\n      tag_86\n      jump\t// in\n    tag_85:\n      mload(0x40)\n      tag_87\n      swap2\n      swap1\n      tag_88\n      jump\t// in\n    tag_87:\n      mload(0x40)\n      dup1\n      swap2\n      sub\n      swap1\n      return\n        /* \"contracts/Marketplace2/Marketplace.sol\":18484:18621  function getMarketItem(uint256 marketItemId) public view returns (MarketItem memory) {... */\n    tag_20:\n      tag_89\n      0x04\n      dup1\n      calldatasize\n      sub\n      dup2\n      add\n      swap1\n      tag_90\n      swap2\n      swap1\n      tag_30\n      jump\t// in\n    tag_90:\n      tag_91\n      jump\t// in\n    tag_89:\n      mload(0x40)\n      tag_92\n      swap2\n      swap1\n      tag_93\n      jump\t// in\n    tag_92:\n      mload(0x40)\n      dup1\n      swap2\n      sub\n      swap1\n      return\n        /* \"contracts/Marketplace2/Marketplace.sol\":22713:22930  function _safeTransferToMarket(uint256 tokenId) public {... */\n    tag_21:\n      tag_94\n      0x04\n      dup1\n      calldatasize\n      sub\n      dup2\n      add\n      swap1\n      tag_95\n      swap2\n      swap1\n      tag_30\n      jump\t// in\n    tag_95:\n      tag_96\n      jump\t// in\n    tag_94:\n      stop\n        /* \"contracts/Marketplace2/Marketplace.sol\":2558:2756  function transferOwnership(address newOwner) public virtual onlyOwner {... */\n    tag_22:\n      tag_97\n      0x04\n      dup1\n      calldatasize\n      sub\n      dup2\n      add\n      swap1\n      tag_98\n      swap2\n      swap1\n      tag_34\n      jump\t// in\n    tag_98:\n      tag_99\n      jump\t// in\n    tag_97:\n      stop\n        /* \"contracts/Marketplace2/Marketplace.sol\":16266:16289  IERC721 public mainNFTs */\n    tag_23:\n      tag_100\n      tag_101\n      jump\t// in\n    tag_100:\n      mload(0x40)\n      tag_102\n      swap2\n      swap1\n      tag_103\n      jump\t// in\n    tag_102:\n      mload(0x40)\n      dup1\n      swap2\n      sub\n      swap1\n      return\n        /* \"contracts/Marketplace2/Marketplace.sol\":16011:16058  mapping (uint256 => MarketItem) public allItems */\n    tag_24:\n      tag_104\n      0x04\n      dup1\n      calldatasize\n      sub\n      dup2\n      add\n      swap1\n      tag_105\n      swap2\n      swap1\n      tag_30\n      jump\t// in\n    tag_105:\n      tag_106\n      jump\t// in\n    tag_104:\n      mload(0x40)\n      tag_107\n      swap7\n      swap6\n      swap5\n      swap4\n      swap3\n      swap2\n      swap1\n      tag_84\n      jump\t// in\n    tag_107:\n      mload(0x40)\n      dup1\n      swap2\n      sub\n      swap1\n      return\n        /* \"contracts/Marketplace2/Marketplace.sol\":21941:22699  function delistItem(uint256 itemId) public {... */\n    tag_31:\n        /* \"contracts/Marketplace2/Marketplace.sol\":21994:22010  address deleteBy */\n      0x00\n        /* \"contracts/Marketplace2/Marketplace.sol\":22013:22023  msg.sender */\n      caller\n        /* \"contracts/Marketplace2/Marketplace.sol\":21994:22023  address deleteBy = msg.sender */\n      swap1\n      pop\n        /* \"contracts/Marketplace2/Marketplace.sol\":22033:22055  MarketItem memory item */\n      0x00\n        /* \"contracts/Marketplace2/Marketplace.sol\":22058:22072  idToMarketItem */\n      0x09\n        /* \"contracts/Marketplace2/Marketplace.sol\":22058:22080  idToMarketItem[itemId] */\n      0x00\n        /* \"contracts/Marketplace2/Marketplace.sol\":22073:22079  itemId */\n      dup5\n        /* \"contracts/Marketplace2/Marketplace.sol\":22058:22080  idToMarketItem[itemId] */\n      dup2\n      mstore\n      0x20\n      add\n      swap1\n      dup2\n      mstore\n      0x20\n      add\n      0x00\n      keccak256\n        /* \"contracts/Marketplace2/Marketplace.sol\":22033:22080  MarketItem memory item = idToMarketItem[itemId] */\n      mload(0x40)\n      dup1\n      0xc0\n      add\n      0x40\n      mstore\n      swap1\n      dup2\n      0x00\n      dup3\n      add\n      sload\n      dup2\n      mstore\n      0x20\n      add\n      0x01\n      dup3\n      add\n      sload\n      dup2\n      mstore\n      0x20\n      add\n      0x02\n      dup3\n      add\n      0x00\n      swap1\n      sload\n      swap1\n      0x0100\n      exp\n      swap1\n      div\n      0xffffffffffffffffffffffffffffffffffffffff\n      and\n      0xffffffffffffffffffffffffffffffffffffffff\n      and\n      0xffffffffffffffffffffffffffffffffffffffff\n      and\n      dup2\n      mstore\n      0x20\n      add\n      0x03\n      dup3\n      add\n      0x00\n      swap1\n      sload\n      swap1\n      0x0100\n      exp\n      swap1\n      div\n      0xffffffffffffffffffffffffffffffffffffffff\n      and\n      0xffffffffffffffffffffffffffffffffffffffff\n      and\n      0xffffffffffffffffffffffffffffffffffffffff\n      and\n      dup2\n      mstore\n      0x20\n      add\n      0x04\n      dup3\n      add\n      sload\n      dup2\n      mstore\n      0x20\n      add\n      0x05\n      dup3\n      add\n      0x00\n      swap1\n      sload\n      swap1\n      0x0100\n      exp\n      swap1\n      div\n      0xff\n      and\n      0x01\n      dup2\n      gt\n      iszero\n      tag_109\n      jumpi\n      tag_110\n      tag_111\n      jump\t// in\n    tag_110:\n    tag_109:\n      0x01\n      dup2\n      gt\n      iszero\n      tag_112\n      jumpi\n      tag_113\n      tag_111\n      jump\t// in\n    tag_113:\n    tag_112:\n      dup2\n      mstore\n      pop\n      pop\n      swap1\n      pop\n        /* \"contracts/Marketplace2/Marketplace.sol\":22115:22116  0 */\n      0x00\n        /* \"contracts/Marketplace2/Marketplace.sol\":22100:22104  item */\n      dup2\n        /* \"contracts/Marketplace2/Marketplace.sol\":22100:22111  item.itemId */\n      0x00\n      add\n      mload\n        /* \"contracts/Marketplace2/Marketplace.sol\":22100:22116  item.itemId != 0 */\n      sub\n        /* \"contracts/Marketplace2/Marketplace.sol\":22092:22140  require(item.itemId != 0, \"Asset not published\") */\n      tag_114\n      jumpi\n      mload(0x40)\n      0x08c379a000000000000000000000000000000000000000000000000000000000\n      dup2\n      mstore\n      0x04\n      add\n      tag_115\n      swap1\n      tag_116\n      jump\t// in\n    tag_115:\n      mload(0x40)\n      dup1\n      swap2\n      sub\n      swap1\n      revert\n    tag_114:\n        /* \"contracts/Marketplace2/Marketplace.sol\":22173:22191  ItemStatus.SELLING */\n      0x01\n        /* \"contracts/Marketplace2/Marketplace.sol\":22158:22191  item.status == ItemStatus.SELLING */\n      dup1\n      dup2\n      gt\n      iszero\n      tag_117\n      jumpi\n      tag_118\n      tag_111\n      jump\t// in\n    tag_118:\n    tag_117:\n        /* \"contracts/Marketplace2/Marketplace.sol\":22158:22162  item */\n      dup2\n        /* \"contracts/Marketplace2/Marketplace.sol\":22158:22169  item.status */\n      0xa0\n      add\n      mload\n        /* \"contracts/Marketplace2/Marketplace.sol\":22158:22191  item.status == ItemStatus.SELLING */\n      0x01\n      dup2\n      gt\n      iszero\n      tag_119\n      jumpi\n      tag_120\n      tag_111\n      jump\t// in\n    tag_120:\n    tag_119:\n      eq\n        /* \"contracts/Marketplace2/Marketplace.sol\":22150:22210  require(item.status == ItemStatus.SELLING, \"Asset delisted\") */\n      tag_121\n      jumpi\n      mload(0x40)\n      0x08c379a000000000000000000000000000000000000000000000000000000000\n      dup2\n      mstore\n      0x04\n      add\n      tag_122\n      swap1\n      tag_123\n      jump\t// in\n    tag_122:\n      mload(0x40)\n      dup1\n      swap2\n      sub\n      swap1\n      revert\n    tag_121:\n        /* \"contracts/Marketplace2/Marketplace.sol\":22221:22235  address seller */\n      0x00\n        /* \"contracts/Marketplace2/Marketplace.sol\":22238:22242  item */\n      dup2\n        /* \"contracts/Marketplace2/Marketplace.sol\":22238:22249  item.seller */\n      0x40\n      add\n      mload\n        /* \"contracts/Marketplace2/Marketplace.sol\":22221:22249  address seller = item.seller */\n      swap1\n      pop\n        /* \"contracts/Marketplace2/Marketplace.sol\":22285:22286  0 */\n      0x00\n        /* \"contracts/Marketplace2/Marketplace.sol\":22267:22287  seller != address(0) */\n      0xffffffffffffffffffffffffffffffffffffffff\n      and\n        /* \"contracts/Marketplace2/Marketplace.sol\":22267:22273  seller */\n      dup2\n        /* \"contracts/Marketplace2/Marketplace.sol\":22267:22287  seller != address(0) */\n      0xffffffffffffffffffffffffffffffffffffffff\n      and\n      sub\n        /* \"contracts/Marketplace2/Marketplace.sol\":22259:22307  require(seller != address(0), \"Invalid address\") */\n      tag_124\n      jumpi\n      mload(0x40)\n      0x08c379a000000000000000000000000000000000000000000000000000000000\n      dup2\n      mstore\n      0x04\n      add\n      tag_125\n      swap1\n      tag_126\n      jump\t// in\n    tag_125:\n      mload(0x40)\n      dup1\n      swap2\n      sub\n      swap1\n      revert\n    tag_124:\n        /* \"contracts/Marketplace2/Marketplace.sol\":22348:22358  msg.sender */\n      caller\n        /* \"contracts/Marketplace2/Marketplace.sol\":22338:22358  seller == msg.sender */\n      0xffffffffffffffffffffffffffffffffffffffff\n      and\n        /* \"contracts/Marketplace2/Marketplace.sol\":22338:22344  seller */\n      dup2\n        /* \"contracts/Marketplace2/Marketplace.sol\":22338:22358  seller == msg.sender */\n      0xffffffffffffffffffffffffffffffffffffffff\n      and\n      eq\n        /* \"contracts/Marketplace2/Marketplace.sol\":22317:22406  require(... */\n      tag_127\n      jumpi\n      mload(0x40)\n      0x08c379a000000000000000000000000000000000000000000000000000000000\n      dup2\n      mstore\n      0x04\n      add\n      tag_128\n      swap1\n      tag_129\n      jump\t// in\n    tag_128:\n      mload(0x40)\n      dup1\n      swap2\n      sub\n      swap1\n      revert\n    tag_127:\n        /* \"contracts/Marketplace2/Marketplace.sol\":22416:22424  mainNFTs */\n      0x05\n      0x00\n      swap1\n      sload\n      swap1\n      0x0100\n      exp\n      swap1\n      div\n      0xffffffffffffffffffffffffffffffffffffffff\n      and\n        /* \"contracts/Marketplace2/Marketplace.sol\":22416:22441  mainNFTs.safeTransferFrom */\n      0xffffffffffffffffffffffffffffffffffffffff\n      and\n      0x42842e0e\n        /* \"contracts/Marketplace2/Marketplace.sol\":22450:22454  this */\n      address\n        /* \"contracts/Marketplace2/Marketplace.sol\":22457:22463  seller */\n      dup4\n        /* \"contracts/Marketplace2/Marketplace.sol\":22465:22471  itemId */\n      dup8\n        /* \"contracts/Marketplace2/Marketplace.sol\":22416:22472  mainNFTs.safeTransferFrom(address(this), seller, itemId) */\n      mload(0x40)\n      dup5\n      0xffffffff\n      and\n      0xe0\n      shl\n      dup2\n      mstore\n      0x04\n      add\n      tag_130\n      swap4\n      swap3\n      swap2\n      swap1\n      tag_131\n      jump\t// in\n    tag_130:\n      0x00\n      mload(0x40)\n      dup1\n      dup4\n      sub\n      dup2\n      0x00\n      dup8\n      dup1\n      extcodesize\n      iszero\n      dup1\n      iszero\n      tag_132\n      jumpi\n      0x00\n      dup1\n      revert\n    tag_132:\n      pop\n      gas\n      call\n      iszero\n      dup1\n      iszero\n      tag_134\n      jumpi\n      returndatasize\n      0x00\n      dup1\n      returndatacopy\n      revert(0x00, returndatasize)\n    tag_134:\n      pop\n      pop\n      pop\n      pop\n        /* \"contracts/Marketplace2/Marketplace.sol\":22496:22512  ItemStatus.AVAIL */\n      0x00\n        /* \"contracts/Marketplace2/Marketplace.sol\":22482:22486  item */\n      dup3\n        /* \"contracts/Marketplace2/Marketplace.sol\":22482:22493  item.status */\n      0xa0\n      add\n        /* \"contracts/Marketplace2/Marketplace.sol\":22482:22512  item.status = ItemStatus.AVAIL */\n      swap1\n      0x01\n      dup2\n      gt\n      iszero\n      tag_135\n      jumpi\n      tag_136\n      tag_111\n      jump\t// in\n    tag_136:\n    tag_135:\n      swap1\n      dup2\n      0x01\n      dup2\n      gt\n      iszero\n      tag_137\n      jumpi\n      tag_138\n      tag_111\n      jump\t// in\n    tag_138:\n    tag_137:\n      dup2\n      mstore\n      pop\n      pop\n        /* \"contracts/Marketplace2/Marketplace.sol\":22529:22543  idToMarketItem */\n      0x09\n        /* \"contracts/Marketplace2/Marketplace.sol\":22529:22551  idToMarketItem[itemId] */\n      0x00\n        /* \"contracts/Marketplace2/Marketplace.sol\":22544:22550  itemId */\n      dup6\n        /* \"contracts/Marketplace2/Marketplace.sol\":22529:22551  idToMarketItem[itemId] */\n      dup2\n      mstore\n      0x20\n      add\n      swap1\n      dup2\n      mstore\n      0x20\n      add\n      0x00\n      keccak256\n      0x00\n        /* \"contracts/Marketplace2/Marketplace.sol\":22522:22551  delete idToMarketItem[itemId] */\n      dup1\n      dup3\n      add\n      0x00\n      swap1\n      sstore\n      0x01\n      dup3\n      add\n      0x00\n      swap1\n      sstore\n      0x02\n      dup3\n      add\n      exp(0x0100, 0x00)\n      dup2\n      sload\n      swap1\n      0xffffffffffffffffffffffffffffffffffffffff\n      mul\n      not\n      and\n      swap1\n      sstore\n      0x03\n      dup3\n      add\n      exp(0x0100, 0x00)\n      dup2\n      sload\n      swap1\n      0xffffffffffffffffffffffffffffffffffffffff\n      mul\n      not\n      and\n      swap1\n      sstore\n      0x04\n      dup3\n      add\n      0x00\n      swap1\n      sstore\n      0x05\n      dup3\n      add\n      exp(0x0100, 0x00)\n      dup2\n      sload\n      swap1\n      0xff\n      mul\n      not\n      and\n      swap1\n      sstore\n      pop\n      pop\n        /* \"contracts/Marketplace2/Marketplace.sol\":22645:22653  deleteBy */\n      dup3\n        /* \"contracts/Marketplace2/Marketplace.sol\":22566:22692  DelistItemSuccessful(... */\n      0xffffffffffffffffffffffffffffffffffffffff\n      and\n        /* \"contracts/Marketplace2/Marketplace.sol\":22625:22631  itemId */\n      dup5\n        /* \"contracts/Marketplace2/Marketplace.sol\":22566:22692  DelistItemSuccessful(... */\n      0x72ffc2a266acba5f77e2b49400103cb61b428f37a97057ebe671e83fddd71e67\n        /* \"contracts/Marketplace2/Marketplace.sol\":22600:22604  item */\n      dup5\n        /* \"contracts/Marketplace2/Marketplace.sol\":22600:22611  item.itemId */\n      0x00\n      add\n      mload\n        /* \"contracts/Marketplace2/Marketplace.sol\":22667:22682  block.timestamp */\n      timestamp\n        /* \"contracts/Marketplace2/Marketplace.sol\":22566:22692  DelistItemSuccessful(... */\n      mload(0x40)\n      tag_139\n      swap3\n      swap2\n      swap1\n      tag_140\n      jump\t// in\n    tag_139:\n      mload(0x40)\n      dup1\n      swap2\n      sub\n      swap1\n      log3\n        /* \"contracts/Marketplace2/Marketplace.sol\":21984:22699  {... */\n      pop\n      pop\n      pop\n        /* \"contracts/Marketplace2/Marketplace.sol\":21941:22699  function delistItem(uint256 itemId) public {... */\n      pop\n      jump\t// out\n        /* \"contracts/Marketplace2/Marketplace.sol\":18736:18838  function setMainNFT(address _address) external onlyOwner {... */\n    tag_35:\n        /* \"contracts/Marketplace2/Marketplace.sol\":1899:1911  _msgSender() */\n      tag_142\n        /* \"contracts/Marketplace2/Marketplace.sol\":1899:1909  _msgSender */\n      tag_143\n        /* \"contracts/Marketplace2/Marketplace.sol\":1899:1911  _msgSender() */\n      jump\t// in\n    tag_142:\n        /* \"contracts/Marketplace2/Marketplace.sol\":1888:1911  owner() == _msgSender() */\n      0xffffffffffffffffffffffffffffffffffffffff\n      and\n        /* \"contracts/Marketplace2/Marketplace.sol\":1888:1895  owner() */\n      tag_144\n        /* \"contracts/Marketplace2/Marketplace.sol\":1888:1893  owner */\n      tag_68\n        /* \"contracts/Marketplace2/Marketplace.sol\":1888:1895  owner() */\n      jump\t// in\n    tag_144:\n        /* \"contracts/Marketplace2/Marketplace.sol\":1888:1911  owner() == _msgSender() */\n      0xffffffffffffffffffffffffffffffffffffffff\n      and\n      eq\n        /* \"contracts/Marketplace2/Marketplace.sol\":1880:1948  require(owner() == _msgSender(), \"Ownable: caller is not the owner\") */\n      tag_145\n      jumpi\n      mload(0x40)\n      0x08c379a000000000000000000000000000000000000000000000000000000000\n      dup2\n      mstore\n      0x04\n      add\n      tag_146\n      swap1\n      tag_147\n      jump\t// in\n    tag_146:\n      mload(0x40)\n      dup1\n      swap2\n      sub\n      swap1\n      revert\n    tag_145:\n        /* \"contracts/Marketplace2/Marketplace.sol\":18822:18830  _address */\n      dup1\n        /* \"contracts/Marketplace2/Marketplace.sol\":18803:18811  mainNFTs */\n      0x05\n      0x00\n        /* \"contracts/Marketplace2/Marketplace.sol\":18803:18831  mainNFTs = IERC721(_address) */\n      0x0100\n      exp\n      dup2\n      sload\n      dup2\n      0xffffffffffffffffffffffffffffffffffffffff\n      mul\n      not\n      and\n      swap1\n      dup4\n      0xffffffffffffffffffffffffffffffffffffffff\n      and\n      mul\n      or\n      swap1\n      sstore\n      pop\n        /* \"contracts/Marketplace2/Marketplace.sol\":18736:18838  function setMainNFT(address _address) external onlyOwner {... */\n      pop\n      jump\t// out\n        /* \"contracts/Marketplace2/Marketplace.sol\":18627:18731  function setMainToken(address _address) external onlyOwner {... */\n    tag_38:\n        /* \"contracts/Marketplace2/Marketplace.sol\":1899:1911  _msgSender() */\n      tag_150\n        /* \"contracts/Marketplace2/Marketplace.sol\":1899:1909  _msgSender */\n      tag_143\n        /* \"contracts/Marketplace2/Marketplace.sol\":1899:1911  _msgSender() */\n      jump\t// in\n    tag_150:\n        /* \"contracts/Marketplace2/Marketplace.sol\":1888:1911  owner() == _msgSender() */\n      0xffffffffffffffffffffffffffffffffffffffff\n      and\n        /* \"contracts/Marketplace2/Marketplace.sol\":1888:1895  owner() */\n      tag_151\n        /* \"contracts/Marketplace2/Marketplace.sol\":1888:1893  owner */\n      tag_68\n        /* \"contracts/Marketplace2/Marketplace.sol\":1888:1895  owner() */\n      jump\t// in\n    tag_151:\n        /* \"contracts/Marketplace2/Marketplace.sol\":1888:1911  owner() == _msgSender() */\n      0xffffffffffffffffffffffffffffffffffffffff\n      and\n      eq\n        /* \"contracts/Marketplace2/Marketplace.sol\":1880:1948  require(owner() == _msgSender(), \"Ownable: caller is not the owner\") */\n      tag_152\n      jumpi\n      mload(0x40)\n      0x08c379a000000000000000000000000000000000000000000000000000000000\n      dup2\n      mstore\n      0x04\n      add\n      tag_153\n      swap1\n      tag_147\n      jump\t// in\n    tag_153:\n      mload(0x40)\n      dup1\n      swap2\n      sub\n      swap1\n      revert\n    tag_152:\n        /* \"contracts/Marketplace2/Marketplace.sol\":18715:18723  _address */\n      dup1\n        /* \"contracts/Marketplace2/Marketplace.sol\":18696:18705  mainToken */\n      0x03\n      0x00\n        /* \"contracts/Marketplace2/Marketplace.sol\":18696:18724  mainToken = IERC20(_address) */\n      0x0100\n      exp\n      dup2\n      sload\n      dup2\n      0xffffffffffffffffffffffffffffffffffffffff\n      mul\n      not\n      and\n      swap1\n      dup4\n      0xffffffffffffffffffffffffffffffffffffffff\n      and\n      mul\n      or\n      swap1\n      sstore\n      pop\n        /* \"contracts/Marketplace2/Marketplace.sol\":18627:18731  function setMainToken(address _address) external onlyOwner {... */\n      pop\n      jump\t// out\n        /* \"contracts/Marketplace2/Marketplace.sol\":15944:16004  bytes4 public constant ERC721_Interface = bytes4(0x80ac58cd) */\n    tag_40:\n        /* \"contracts/Marketplace2/Marketplace.sol\":15993:16003  0x80ac58cd */\n      0x80ac58cd\n        /* \"contracts/Marketplace2/Marketplace.sol\":15986:16004  bytes4(0x80ac58cd) */\n      0xe0\n      shl\n        /* \"contracts/Marketplace2/Marketplace.sol\":15944:16004  bytes4 public constant ERC721_Interface = bytes4(0x80ac58cd) */\n      dup2\n      jump\t// out\n        /* \"contracts/Marketplace2/Marketplace.sol\":20368:21117  function createMarketItem3(... */\n    tag_45:\n        /* \"contracts/Marketplace2/Marketplace.sol\":20471:20472  0 */\n      0x00\n        /* \"contracts/Marketplace2/Marketplace.sol\":20463:20468  price */\n      dup2\n        /* \"contracts/Marketplace2/Marketplace.sol\":20463:20472  price > 0 */\n      gt\n        /* \"contracts/Marketplace2/Marketplace.sol\":20455:20505  require(price > 0, \"Price must be at least 1 wei\") */\n      tag_156\n      jumpi\n      mload(0x40)\n      0x08c379a000000000000000000000000000000000000000000000000000000000\n      dup2\n      mstore\n      0x04\n      add\n      tag_157\n      swap1\n      tag_158\n      jump\t// in\n    tag_157:\n      mload(0x40)\n      dup1\n      swap2\n      sub\n      swap1\n      revert\n    tag_156:\n        /* \"contracts/Marketplace2/Marketplace.sol\":20555:20575  _itemIds.increment() */\n      tag_159\n        /* \"contracts/Marketplace2/Marketplace.sol\":20555:20563  _itemIds */\n      0x07\n        /* \"contracts/Marketplace2/Marketplace.sol\":20555:20573  _itemIds.increment */\n      tag_160\n        /* \"contracts/Marketplace2/Marketplace.sol\":20555:20575  _itemIds.increment() */\n      jump\t// in\n    tag_159:\n        /* \"contracts/Marketplace2/Marketplace.sol\":20368:21117  function createMarketItem3(... */\n      pop\n      jump\t// out\n        /* \"contracts/Marketplace2/Marketplace.sol\":16208:16231  IERC20 public mainToken */\n    tag_47:\n      0x03\n      0x00\n      swap1\n      sload\n      swap1\n      0x0100\n      exp\n      swap1\n      div\n      0xffffffffffffffffffffffffffffffffffffffff\n      and\n      dup2\n      jump\t// out\n        /* \"contracts/Marketplace2/Marketplace.sol\":17622:18478  function getMarketItem() public view returns(MarketItem[] memory) { ... */\n    tag_51:\n        /* \"contracts/Marketplace2/Marketplace.sol\":17667:17686  MarketItem[] memory */\n      0x60\n        /* \"contracts/Marketplace2/Marketplace.sol\":17703:17722  uint totalItemCount */\n      0x00\n        /* \"contracts/Marketplace2/Marketplace.sol\":17725:17743  _itemIds.current() */\n      tag_162\n        /* \"contracts/Marketplace2/Marketplace.sol\":17725:17733  _itemIds */\n      0x07\n        /* \"contracts/Marketplace2/Marketplace.sol\":17725:17741  _itemIds.current */\n      tag_163\n        /* \"contracts/Marketplace2/Marketplace.sol\":17725:17743  _itemIds.current() */\n      jump\t// in\n    tag_162:\n        /* \"contracts/Marketplace2/Marketplace.sol\":17703:17743  uint totalItemCount = _itemIds.current() */\n      swap1\n      pop\n        /* \"contracts/Marketplace2/Marketplace.sol\":17757:17771  uint itemCount */\n      0x00\n        /* \"contracts/Marketplace2/Marketplace.sol\":17789:17806  uint currentIndex */\n      dup1\n        /* \"contracts/Marketplace2/Marketplace.sol\":17840:17846  uint i */\n      0x00\n        /* \"contracts/Marketplace2/Marketplace.sol\":17835:18012  for (uint i = 0; i < totalItemCount; i++) {... */\n    tag_164:\n        /* \"contracts/Marketplace2/Marketplace.sol\":17856:17870  totalItemCount */\n      dup4\n        /* \"contracts/Marketplace2/Marketplace.sol\":17852:17853  i */\n      dup2\n        /* \"contracts/Marketplace2/Marketplace.sol\":17852:17870  i < totalItemCount */\n      lt\n        /* \"contracts/Marketplace2/Marketplace.sol\":17835:18012  for (uint i = 0; i < totalItemCount; i++) {... */\n      iszero\n      tag_165\n      jumpi\n        /* \"contracts/Marketplace2/Marketplace.sol\":17927:17945  ItemStatus.SELLING */\n      0x01\n        /* \"contracts/Marketplace2/Marketplace.sol\":17899:17945  idToMarketItem[i].status == ItemStatus.SELLING */\n      dup1\n      dup2\n      gt\n      iszero\n      tag_167\n      jumpi\n      tag_168\n      tag_111\n      jump\t// in\n    tag_168:\n    tag_167:\n        /* \"contracts/Marketplace2/Marketplace.sol\":17899:17913  idToMarketItem */\n      0x09\n        /* \"contracts/Marketplace2/Marketplace.sol\":17899:17916  idToMarketItem[i] */\n      0x00\n        /* \"contracts/Marketplace2/Marketplace.sol\":17914:17915  i */\n      dup4\n        /* \"contracts/Marketplace2/Marketplace.sol\":17899:17916  idToMarketItem[i] */\n      dup2\n      mstore\n      0x20\n      add\n      swap1\n      dup2\n      mstore\n      0x20\n      add\n      0x00\n      keccak256\n        /* \"contracts/Marketplace2/Marketplace.sol\":17899:17923  idToMarketItem[i].status */\n      0x05\n      add\n      0x00\n      swap1\n      sload\n      swap1\n      0x0100\n      exp\n      swap1\n      div\n      0xff\n      and\n        /* \"contracts/Marketplace2/Marketplace.sol\":17899:17945  idToMarketItem[i].status == ItemStatus.SELLING */\n      0x01\n      dup2\n      gt\n      iszero\n      tag_169\n      jumpi\n      tag_170\n      tag_111\n      jump\t// in\n    tag_170:\n    tag_169:\n      sub\n        /* \"contracts/Marketplace2/Marketplace.sol\":17895:17998  if (idToMarketItem[i].status == ItemStatus.SELLING) {... */\n      tag_171\n      jumpi\n        /* \"contracts/Marketplace2/Marketplace.sol\":17978:17979  1 */\n      0x01\n        /* \"contracts/Marketplace2/Marketplace.sol\":17965:17979  itemCount += 1 */\n      dup4\n      tag_172\n      swap2\n      swap1\n      tag_173\n      jump\t// in\n    tag_172:\n      swap3\n      pop\n        /* \"contracts/Marketplace2/Marketplace.sol\":17895:17998  if (idToMarketItem[i].status == ItemStatus.SELLING) {... */\n    tag_171:\n        /* \"contracts/Marketplace2/Marketplace.sol\":17872:17875  i++ */\n      dup1\n      dup1\n      tag_174\n      swap1\n      tag_175\n      jump\t// in\n    tag_174:\n      swap2\n      pop\n      pop\n        /* \"contracts/Marketplace2/Marketplace.sol\":17835:18012  for (uint i = 0; i < totalItemCount; i++) {... */\n      jump(tag_164)\n    tag_165:\n      pop\n        /* \"contracts/Marketplace2/Marketplace.sol\":18025:18050  MarketItem[] memory items */\n      0x00\n        /* \"contracts/Marketplace2/Marketplace.sol\":18070:18079  itemCount */\n      dup3\n        /* \"contracts/Marketplace2/Marketplace.sol\":18053:18080  new MarketItem[](itemCount) */\n      0xffffffffffffffff\n      dup2\n      gt\n      iszero\n      tag_176\n      jumpi\n      tag_177\n      tag_178\n      jump\t// in\n    tag_177:\n    tag_176:\n      mload(0x40)\n      swap1\n      dup1\n      dup3\n      mstore\n      dup1\n      0x20\n      mul\n      0x20\n      add\n      dup3\n      add\n      0x40\n      mstore\n      dup1\n      iszero\n      tag_179\n      jumpi\n      dup2\n      0x20\n      add\n    tag_180:\n      tag_181\n      tag_182\n      jump\t// in\n    tag_181:\n      dup2\n      mstore\n      0x20\n      add\n      swap1\n      0x01\n      swap1\n      sub\n      swap1\n      dup2\n      tag_180\n      jumpi\n      swap1\n      pop\n    tag_179:\n      pop\n        /* \"contracts/Marketplace2/Marketplace.sol\":18025:18080  MarketItem[] memory items = new MarketItem[](itemCount) */\n      swap1\n      pop\n        /* \"contracts/Marketplace2/Marketplace.sol\":18099:18105  uint i */\n      0x00\n        /* \"contracts/Marketplace2/Marketplace.sol\":18094:18450  for (uint i = 0; i < totalItemCount; i++) {... */\n    tag_183:\n        /* \"contracts/Marketplace2/Marketplace.sol\":18115:18129  totalItemCount */\n      dup5\n        /* \"contracts/Marketplace2/Marketplace.sol\":18111:18112  i */\n      dup2\n        /* \"contracts/Marketplace2/Marketplace.sol\":18111:18129  i < totalItemCount */\n      lt\n        /* \"contracts/Marketplace2/Marketplace.sol\":18094:18450  for (uint i = 0; i < totalItemCount; i++) {... */\n      iszero\n      tag_184\n      jumpi\n        /* \"contracts/Marketplace2/Marketplace.sol\":18183:18201  ItemStatus.SELLING */\n      0x01\n        /* \"contracts/Marketplace2/Marketplace.sol\":18155:18201  idToMarketItem[i].status == ItemStatus.SELLING */\n      dup1\n      dup2\n      gt\n      iszero\n      tag_186\n      jumpi\n      tag_187\n      tag_111\n      jump\t// in\n    tag_187:\n    tag_186:\n        /* \"contracts/Marketplace2/Marketplace.sol\":18155:18169  idToMarketItem */\n      0x09\n        /* \"contracts/Marketplace2/Marketplace.sol\":18155:18172  idToMarketItem[i] */\n      0x00\n        /* \"contracts/Marketplace2/Marketplace.sol\":18170:18171  i */\n      dup4\n        /* \"contracts/Marketplace2/Marketplace.sol\":18155:18172  idToMarketItem[i] */\n      dup2\n      mstore\n      0x20\n      add\n      swap1\n      dup2\n      mstore\n      0x20\n      add\n      0x00\n      keccak256\n        /* \"contracts/Marketplace2/Marketplace.sol\":18155:18179  idToMarketItem[i].status */\n      0x05\n      add\n      0x00\n      swap1\n      sload\n      swap1\n      0x0100\n      exp\n      swap1\n      div\n      0xff\n      and\n        /* \"contracts/Marketplace2/Marketplace.sol\":18155:18201  idToMarketItem[i].status == ItemStatus.SELLING */\n      0x01\n      dup2\n      gt\n      iszero\n      tag_188\n      jumpi\n      tag_189\n      tag_111\n      jump\t// in\n    tag_189:\n    tag_188:\n      sub\n        /* \"contracts/Marketplace2/Marketplace.sol\":18150:18440  if ( idToMarketItem[i].status == ItemStatus.SELLING) {... */\n      tag_190\n      jumpi\n        /* \"contracts/Marketplace2/Marketplace.sol\":18222:18236  uint currentId */\n      0x00\n        /* \"contracts/Marketplace2/Marketplace.sol\":18239:18253  idToMarketItem */\n      0x09\n        /* \"contracts/Marketplace2/Marketplace.sol\":18239:18256  idToMarketItem[i] */\n      0x00\n        /* \"contracts/Marketplace2/Marketplace.sol\":18254:18255  i */\n      dup4\n        /* \"contracts/Marketplace2/Marketplace.sol\":18239:18256  idToMarketItem[i] */\n      dup2\n      mstore\n      0x20\n      add\n      swap1\n      dup2\n      mstore\n      0x20\n      add\n      0x00\n      keccak256\n        /* \"contracts/Marketplace2/Marketplace.sol\":18239:18263  idToMarketItem[i].itemId */\n      0x00\n      add\n      sload\n        /* \"contracts/Marketplace2/Marketplace.sol\":18222:18263  uint currentId = idToMarketItem[i].itemId */\n      swap1\n      pop\n        /* \"contracts/Marketplace2/Marketplace.sol\":18281:18311  MarketItem storage currentItem */\n      0x00\n        /* \"contracts/Marketplace2/Marketplace.sol\":18314:18328  idToMarketItem */\n      0x09\n        /* \"contracts/Marketplace2/Marketplace.sol\":18314:18339  idToMarketItem[currentId] */\n      0x00\n        /* \"contracts/Marketplace2/Marketplace.sol\":18329:18338  currentId */\n      dup4\n        /* \"contracts/Marketplace2/Marketplace.sol\":18314:18339  idToMarketItem[currentId] */\n      dup2\n      mstore\n      0x20\n      add\n      swap1\n      dup2\n      mstore\n      0x20\n      add\n      0x00\n      keccak256\n        /* \"contracts/Marketplace2/Marketplace.sol\":18281:18339  MarketItem storage currentItem = idToMarketItem[currentId] */\n      swap1\n      pop\n        /* \"contracts/Marketplace2/Marketplace.sol\":18379:18390  currentItem */\n      dup1\n        /* \"contracts/Marketplace2/Marketplace.sol\":18357:18390  items[currentIndex] = currentItem */\n      mload(0x40)\n      dup1\n      0xc0\n      add\n      0x40\n      mstore\n      swap1\n      dup2\n      0x00\n      dup3\n      add\n      sload\n      dup2\n      mstore\n      0x20\n      add\n      0x01\n      dup3\n      add\n      sload\n      dup2\n      mstore\n      0x20\n      add\n      0x02\n      dup3\n      add\n      0x00\n      swap1\n      sload\n      swap1\n      0x0100\n      exp\n      swap1\n      div\n      0xffffffffffffffffffffffffffffffffffffffff\n      and\n      0xffffffffffffffffffffffffffffffffffffffff\n      and\n      0xffffffffffffffffffffffffffffffffffffffff\n      and\n      dup2\n      mstore\n      0x20\n      add\n      0x03\n      dup3\n      add\n      0x00\n      swap1\n      sload\n      swap1\n      0x0100\n      exp\n      swap1\n      div\n      0xffffffffffffffffffffffffffffffffffffffff\n      and\n      0xffffffffffffffffffffffffffffffffffffffff\n      and\n      0xffffffffffffffffffffffffffffffffffffffff\n      and\n      dup2\n      mstore\n      0x20\n      add\n      0x04\n      dup3\n      add\n      sload\n      dup2\n      mstore\n      0x20\n      add\n      0x05\n      dup3\n      add\n      0x00\n      swap1\n      sload\n      swap1\n      0x0100\n      exp\n      swap1\n      div\n      0xff\n      and\n      0x01\n      dup2\n      gt\n      iszero\n      tag_191\n      jumpi\n      tag_192\n      tag_111\n      jump\t// in\n    tag_192:\n    tag_191:\n      0x01\n      dup2\n      gt\n      iszero\n      tag_193\n      jumpi\n      tag_194\n      tag_111\n      jump\t// in\n    tag_194:\n    tag_193:\n      dup2\n      mstore\n      pop\n      pop\n        /* \"contracts/Marketplace2/Marketplace.sol\":18357:18362  items */\n      dup5\n        /* \"contracts/Marketplace2/Marketplace.sol\":18363:18375  currentIndex */\n      dup7\n        /* \"contracts/Marketplace2/Marketplace.sol\":18357:18376  items[currentIndex] */\n      dup2\n      mload\n      dup2\n      lt\n      tag_195\n      jumpi\n      tag_196\n      tag_197\n      jump\t// in\n    tag_196:\n    tag_195:\n      0x20\n      mul\n      0x20\n      add\n      add\n        /* \"contracts/Marketplace2/Marketplace.sol\":18357:18390  items[currentIndex] = currentItem */\n      dup2\n      swap1\n      mstore\n      pop\n        /* \"contracts/Marketplace2/Marketplace.sol\":18424:18425  1 */\n      0x01\n        /* \"contracts/Marketplace2/Marketplace.sol\":18408:18425  currentIndex += 1 */\n      dup6\n      tag_198\n      swap2\n      swap1\n      tag_173\n      jump\t// in\n    tag_198:\n      swap5\n      pop\n        /* \"contracts/Marketplace2/Marketplace.sol\":18203:18440  {... */\n      pop\n      pop\n        /* \"contracts/Marketplace2/Marketplace.sol\":18150:18440  if ( idToMarketItem[i].status == ItemStatus.SELLING) {... */\n    tag_190:\n        /* \"contracts/Marketplace2/Marketplace.sol\":18131:18134  i++ */\n      dup1\n      dup1\n      tag_199\n      swap1\n      tag_175\n      jump\t// in\n    tag_199:\n      swap2\n      pop\n      pop\n        /* \"contracts/Marketplace2/Marketplace.sol\":18094:18450  for (uint i = 0; i < totalItemCount; i++) {... */\n      jump(tag_183)\n    tag_184:\n      pop\n        /* \"contracts/Marketplace2/Marketplace.sol\":18466:18471  items */\n      dup1\n        /* \"contracts/Marketplace2/Marketplace.sol\":18459:18471  return items */\n      swap5\n      pop\n      pop\n      pop\n      pop\n      pop\n        /* \"contracts/Marketplace2/Marketplace.sol\":17622:18478  function getMarketItem() public view returns(MarketItem[] memory) { ... */\n      swap1\n      jump\t// out\n        /* \"contracts/Marketplace2/Marketplace.sol\":18949:19706  function createMarketItem1(... */\n    tag_57:\n        /* \"contracts/Marketplace2/Marketplace.sol\":19049:19050  0 */\n      0x00\n        /* \"contracts/Marketplace2/Marketplace.sol\":19041:19046  price */\n      dup2\n        /* \"contracts/Marketplace2/Marketplace.sol\":19041:19050  price > 0 */\n      gt\n        /* \"contracts/Marketplace2/Marketplace.sol\":19033:19083  require(price > 0, \"Price must be at least 1 wei\") */\n      tag_201\n      jumpi\n      mload(0x40)\n      0x08c379a000000000000000000000000000000000000000000000000000000000\n      dup2\n      mstore\n      0x04\n      add\n      tag_202\n      swap1\n      tag_158\n      jump\t// in\n    tag_202:\n      mload(0x40)\n      dup1\n      swap2\n      sub\n      swap1\n      revert\n    tag_201:\n        /* \"contracts/Marketplace2/Marketplace.sol\":19089:19123  StructLib.ingameItems memory _item */\n      0x00\n        /* \"contracts/Marketplace2/Marketplace.sol\":19126:19133  factory */\n      0x04\n      0x00\n      swap1\n      sload\n      swap1\n      0x0100\n      exp\n      swap1\n      div\n      0xffffffffffffffffffffffffffffffffffffffff\n      and\n        /* \"contracts/Marketplace2/Marketplace.sol\":19126:19147  factory.getIngameItem */\n      0xffffffffffffffffffffffffffffffffffffffff\n      and\n      0x03ce1cb5\n        /* \"contracts/Marketplace2/Marketplace.sol\":19148:19155  tokenId */\n      dup5\n        /* \"contracts/Marketplace2/Marketplace.sol\":19126:19156  factory.getIngameItem(tokenId) */\n      mload(0x40)\n      dup3\n      0xffffffff\n      and\n      0xe0\n      shl\n      dup2\n      mstore\n      0x04\n      add\n      tag_203\n      swap2\n      swap1\n      tag_204\n      jump\t// in\n    tag_203:\n      0x00\n      mload(0x40)\n      dup1\n      dup4\n      sub\n      dup2\n      dup7\n      gas\n      staticcall\n      iszero\n      dup1\n      iszero\n      tag_206\n      jumpi\n      returndatasize\n      0x00\n      dup1\n      returndatacopy\n      revert(0x00, returndatasize)\n    tag_206:\n      pop\n      pop\n      pop\n      pop\n      mload(0x40)\n      returndatasize\n      0x00\n      dup3\n      returndatacopy\n      returndatasize\n      not(0x1f)\n      0x1f\n      dup3\n      add\n      and\n      dup3\n      add\n      dup1\n      0x40\n      mstore\n      pop\n      dup2\n      add\n      swap1\n      tag_207\n      swap2\n      swap1\n      tag_208\n      jump\t// in\n    tag_207:\n        /* \"contracts/Marketplace2/Marketplace.sol\":19089:19156  StructLib.ingameItems memory _item = factory.getIngameItem(tokenId) */\n      swap1\n      pop\n        /* \"contracts/Marketplace2/Marketplace.sol\":19186:19191  false */\n      0x00\n        /* \"contracts/Marketplace2/Marketplace.sol\":19170:19191  _item.ingame == false */\n      iszero\n      iszero\n        /* \"contracts/Marketplace2/Marketplace.sol\":19170:19175  _item */\n      dup2\n        /* \"contracts/Marketplace2/Marketplace.sol\":19170:19182  _item.ingame */\n      0x80\n      add\n      mload\n        /* \"contracts/Marketplace2/Marketplace.sol\":19170:19191  _item.ingame == false */\n      iszero\n      iszero\n      eq\n        /* \"contracts/Marketplace2/Marketplace.sol\":19162:19224  require(_item.ingame == false, \"Item is not available now !\" ) */\n      tag_209\n      jumpi\n      mload(0x40)\n      0x08c379a000000000000000000000000000000000000000000000000000000000\n      dup2\n      mstore\n      0x04\n      add\n      tag_210\n      swap1\n      tag_211\n      jump\t// in\n    tag_210:\n      mload(0x40)\n      dup1\n      swap2\n      sub\n      swap1\n      revert\n    tag_209:\n        /* \"contracts/Marketplace2/Marketplace.sol\":19230:19244  uint256 itemId */\n      0x00\n        /* \"contracts/Marketplace2/Marketplace.sol\":19247:19265  _itemIds.current() */\n      tag_212\n        /* \"contracts/Marketplace2/Marketplace.sol\":19247:19255  _itemIds */\n      0x07\n        /* \"contracts/Marketplace2/Marketplace.sol\":19247:19263  _itemIds.current */\n      tag_163\n        /* \"contracts/Marketplace2/Marketplace.sol\":19247:19265  _itemIds.current() */\n      jump\t// in\n    tag_212:\n        /* \"contracts/Marketplace2/Marketplace.sol\":19230:19265  uint256 itemId = _itemIds.current() */\n      swap1\n      pop\n        /* \"contracts/Marketplace2/Marketplace.sol\":19271:19278  factory */\n      0x04\n      0x00\n      swap1\n      sload\n      swap1\n      0x0100\n      exp\n      swap1\n      div\n      0xffffffffffffffffffffffffffffffffffffffff\n      and\n        /* \"contracts/Marketplace2/Marketplace.sol\":19271:19297  factory.setOwnerIngameItem */\n      0xffffffffffffffffffffffffffffffffffffffff\n      and\n      0xc1e9518a\n        /* \"contracts/Marketplace2/Marketplace.sol\":19306:19316  msg.sender */\n      caller\n        /* \"contracts/Marketplace2/Marketplace.sol\":19326:19330  this */\n      address\n        /* \"contracts/Marketplace2/Marketplace.sol\":19333:19340  tokenId */\n      dup8\n        /* \"contracts/Marketplace2/Marketplace.sol\":19271:19341  factory.setOwnerIngameItem(payable(msg.sender),address(this), tokenId) */\n      mload(0x40)\n      dup5\n      0xffffffff\n      and\n      0xe0\n      shl\n      dup2\n      mstore\n      0x04\n      add\n      tag_213\n      swap4\n      swap3\n      swap2\n      swap1\n      tag_214\n      jump\t// in\n    tag_213:\n      0x00\n      mload(0x40)\n      dup1\n      dup4\n      sub\n      dup2\n      0x00\n      dup8\n      dup1\n      extcodesize\n      iszero\n      dup1\n      iszero\n      tag_215\n      jumpi\n      0x00\n      dup1\n      revert\n    tag_215:\n      pop\n      gas\n      call\n      iszero\n      dup1\n      iszero\n      tag_217\n      jumpi\n      returndatasize\n      0x00\n      dup1\n      returndatacopy\n      revert(0x00, returndatasize)\n    tag_217:\n      pop\n      pop\n      pop\n      pop\n        /* \"contracts/Marketplace2/Marketplace.sol\":19347:19355  mainNFTs */\n      0x05\n      0x00\n      swap1\n      sload\n      swap1\n      0x0100\n      exp\n      swap1\n      div\n      0xffffffffffffffffffffffffffffffffffffffff\n      and\n        /* \"contracts/Marketplace2/Marketplace.sol\":19347:19368  mainNFTs.transferFrom */\n      0xffffffffffffffffffffffffffffffffffffffff\n      and\n      0x23b872dd\n        /* \"contracts/Marketplace2/Marketplace.sol\":19369:19379  msg.sender */\n      caller\n        /* \"contracts/Marketplace2/Marketplace.sol\":19389:19393  this */\n      address\n        /* \"contracts/Marketplace2/Marketplace.sol\":19396:19403  tokenId */\n      dup8\n        /* \"contracts/Marketplace2/Marketplace.sol\":19347:19404  mainNFTs.transferFrom(msg.sender, address(this), tokenId) */\n      mload(0x40)\n      dup5\n      0xffffffff\n      and\n      0xe0\n      shl\n      dup2\n      mstore\n      0x04\n      add\n      tag_218\n      swap4\n      swap3\n      swap2\n      swap1\n      tag_131\n      jump\t// in\n    tag_218:\n      0x00\n      mload(0x40)\n      dup1\n      dup4\n      sub\n      dup2\n      0x00\n      dup8\n      dup1\n      extcodesize\n      iszero\n      dup1\n      iszero\n      tag_219\n      jumpi\n      0x00\n      dup1\n      revert\n    tag_219:\n      pop\n      gas\n      call\n      iszero\n      dup1\n      iszero\n      tag_221\n      jumpi\n      returndatasize\n      0x00\n      dup1\n      returndatacopy\n      revert(0x00, returndatasize)\n    tag_221:\n      pop\n      pop\n      pop\n      pop\n        /* \"contracts/Marketplace2/Marketplace.sol\":19436:19559  MarketItem(... */\n      mload(0x40)\n      dup1\n      0xc0\n      add\n      0x40\n      mstore\n      dup1\n        /* \"contracts/Marketplace2/Marketplace.sol\":19454:19460  itemId */\n      dup3\n        /* \"contracts/Marketplace2/Marketplace.sol\":19436:19559  MarketItem(... */\n      dup2\n      mstore\n      0x20\n      add\n        /* \"contracts/Marketplace2/Marketplace.sol\":19468:19475  tokenId */\n      dup6\n        /* \"contracts/Marketplace2/Marketplace.sol\":19436:19559  MarketItem(... */\n      dup2\n      mstore\n      0x20\n      add\n        /* \"contracts/Marketplace2/Marketplace.sol\":19483:19493  msg.sender */\n      caller\n        /* \"contracts/Marketplace2/Marketplace.sol\":19436:19559  MarketItem(... */\n      0xffffffffffffffffffffffffffffffffffffffff\n      and\n      dup2\n      mstore\n      0x20\n      add\n        /* \"contracts/Marketplace2/Marketplace.sol\":19509:19513  this */\n      address\n        /* \"contracts/Marketplace2/Marketplace.sol\":19436:19559  MarketItem(... */\n      0xffffffffffffffffffffffffffffffffffffffff\n      and\n      dup2\n      mstore\n      0x20\n      add\n        /* \"contracts/Marketplace2/Marketplace.sol\":19522:19527  price */\n      dup5\n        /* \"contracts/Marketplace2/Marketplace.sol\":19436:19559  MarketItem(... */\n      dup2\n      mstore\n      0x20\n      add\n        /* \"contracts/Marketplace2/Marketplace.sol\":19535:19553  ItemStatus.SELLING */\n      0x01\n        /* \"contracts/Marketplace2/Marketplace.sol\":19436:19559  MarketItem(... */\n      dup1\n      dup2\n      gt\n      iszero\n      tag_222\n      jumpi\n      tag_223\n      tag_111\n      jump\t// in\n    tag_223:\n    tag_222:\n      dup2\n      mstore\n      pop\n        /* \"contracts/Marketplace2/Marketplace.sol\":19410:19424  idToMarketItem */\n      0x09\n        /* \"contracts/Marketplace2/Marketplace.sol\":19410:19432  idToMarketItem[itemId] */\n      0x00\n        /* \"contracts/Marketplace2/Marketplace.sol\":19425:19431  itemId */\n      dup4\n        /* \"contracts/Marketplace2/Marketplace.sol\":19410:19432  idToMarketItem[itemId] */\n      dup2\n      mstore\n      0x20\n      add\n      swap1\n      dup2\n      mstore\n      0x20\n      add\n      0x00\n      keccak256\n        /* \"contracts/Marketplace2/Marketplace.sol\":19410:19559  idToMarketItem[itemId] =  MarketItem(... */\n      0x00\n      dup3\n      add\n      mload\n      dup2\n      0x00\n      add\n      sstore\n      0x20\n      dup3\n      add\n      mload\n      dup2\n      0x01\n      add\n      sstore\n      0x40\n      dup3\n      add\n      mload\n      dup2\n      0x02\n      add\n      exp(0x0100, 0x00)\n      dup2\n      sload\n      dup2\n      0xffffffffffffffffffffffffffffffffffffffff\n      mul\n      not\n      and\n      swap1\n      dup4\n      0xffffffffffffffffffffffffffffffffffffffff\n      and\n      mul\n      or\n      swap1\n      sstore\n      pop\n      0x60\n      dup3\n      add\n      mload\n      dup2\n      0x03\n      add\n      exp(0x0100, 0x00)\n      dup2\n      sload\n      dup2\n      0xffffffffffffffffffffffffffffffffffffffff\n      mul\n      not\n      and\n      swap1\n      dup4\n      0xffffffffffffffffffffffffffffffffffffffff\n      and\n      mul\n      or\n      swap1\n      sstore\n      pop\n      0x80\n      dup3\n      add\n      mload\n      dup2\n      0x04\n      add\n      sstore\n      0xa0\n      dup3\n      add\n      mload\n      dup2\n      0x05\n      add\n      exp(0x0100, 0x00)\n      dup2\n      sload\n      dup2\n      0xff\n      mul\n      not\n      and\n      swap1\n      dup4\n      0x01\n      dup2\n      gt\n      iszero\n      tag_224\n      jumpi\n      tag_225\n      tag_111\n      jump\t// in\n    tag_225:\n    tag_224:\n      mul\n      or\n      swap1\n      sstore\n      pop\n      swap1\n      pop\n      pop\n        /* \"contracts/Marketplace2/Marketplace.sol\":19565:19585  _itemIds.increment() */\n      tag_226\n        /* \"contracts/Marketplace2/Marketplace.sol\":19565:19573  _itemIds */\n      0x07\n        /* \"contracts/Marketplace2/Marketplace.sol\":19565:19583  _itemIds.increment */\n      tag_160\n        /* \"contracts/Marketplace2/Marketplace.sol\":19565:19585  _itemIds.increment() */\n      jump\t// in\n    tag_226:\n        /* \"contracts/Marketplace2/Marketplace.sol\":19636:19643  tokenId */\n      dup4\n        /* \"contracts/Marketplace2/Marketplace.sol\":19622:19628  itemId */\n      dup2\n        /* \"contracts/Marketplace2/Marketplace.sol\":19597:19701  MarketItemCreated(... */\n      0x38690a554ffbc44eb6a75016e47d517d0db8e6c37494adc68d6d0b2c66f0ab21\n        /* \"contracts/Marketplace2/Marketplace.sol\":19651:19661  msg.sender */\n      caller\n        /* \"contracts/Marketplace2/Marketplace.sol\":19677:19681  this */\n      address\n        /* \"contracts/Marketplace2/Marketplace.sol\":19690:19695  price */\n      dup8\n        /* \"contracts/Marketplace2/Marketplace.sol\":19597:19701  MarketItemCreated(... */\n      mload(0x40)\n      tag_227\n      swap4\n      swap3\n      swap2\n      swap1\n      tag_131\n      jump\t// in\n    tag_227:\n      mload(0x40)\n      dup1\n      swap2\n      sub\n      swap1\n      log3\n        /* \"contracts/Marketplace2/Marketplace.sol\":19027:19706  {... */\n      pop\n      pop\n        /* \"contracts/Marketplace2/Marketplace.sol\":18949:19706  function createMarketItem1(... */\n      pop\n      pop\n      jump\t// out\n        /* \"contracts/Marketplace2/Marketplace.sol\":18843:18945  function setFactory(address _address) external onlyOwner {... */\n    tag_60:\n        /* \"contracts/Marketplace2/Marketplace.sol\":1899:1911  _msgSender() */\n      tag_229\n        /* \"contracts/Marketplace2/Marketplace.sol\":1899:1909  _msgSender */\n      tag_143\n        /* \"contracts/Marketplace2/Marketplace.sol\":1899:1911  _msgSender() */\n      jump\t// in\n    tag_229:\n        /* \"contracts/Marketplace2/Marketplace.sol\":1888:1911  owner() == _msgSender() */\n      0xffffffffffffffffffffffffffffffffffffffff\n      and\n        /* \"contracts/Marketplace2/Marketplace.sol\":1888:1895  owner() */\n      tag_230\n        /* \"contracts/Marketplace2/Marketplace.sol\":1888:1893  owner */\n      tag_68\n        /* \"contracts/Marketplace2/Marketplace.sol\":1888:1895  owner() */\n      jump\t// in\n    tag_230:\n        /* \"contracts/Marketplace2/Marketplace.sol\":1888:1911  owner() == _msgSender() */\n      0xffffffffffffffffffffffffffffffffffffffff\n      and\n      eq\n        /* \"contracts/Marketplace2/Marketplace.sol\":1880:1948  require(owner() == _msgSender(), \"Ownable: caller is not the owner\") */\n      tag_231\n      jumpi\n      mload(0x40)\n      0x08c379a000000000000000000000000000000000000000000000000000000000\n      dup2\n      mstore\n      0x04\n      add\n      tag_232\n      swap1\n      tag_147\n      jump\t// in\n    tag_232:\n      mload(0x40)\n      dup1\n      swap2\n      sub\n      swap1\n      revert\n    tag_231:\n        /* \"contracts/Marketplace2/Marketplace.sol\":18929:18937  _address */\n      dup1\n        /* \"contracts/Marketplace2/Marketplace.sol\":18910:18917  factory */\n      0x04\n      0x00\n        /* \"contracts/Marketplace2/Marketplace.sol\":18910:18938  factory = IFactory(_address) */\n      0x0100\n      exp\n      dup2\n      sload\n      dup2\n      0xffffffffffffffffffffffffffffffffffffffff\n      mul\n      not\n      and\n      swap1\n      dup4\n      0xffffffffffffffffffffffffffffffffffffffff\n      and\n      mul\n      or\n      swap1\n      sstore\n      pop\n        /* \"contracts/Marketplace2/Marketplace.sol\":18843:18945  function setFactory(address _address) external onlyOwner {... */\n      pop\n      jump\t// out\n        /* \"contracts/Marketplace2/Marketplace.sol\":2308:2409  function renounceOwnership() public virtual onlyOwner {... */\n    tag_62:\n        /* \"contracts/Marketplace2/Marketplace.sol\":1899:1911  _msgSender() */\n      tag_235\n        /* \"contracts/Marketplace2/Marketplace.sol\":1899:1909  _msgSender */\n      tag_143\n        /* \"contracts/Marketplace2/Marketplace.sol\":1899:1911  _msgSender() */\n      jump\t// in\n    tag_235:\n        /* \"contracts/Marketplace2/Marketplace.sol\":1888:1911  owner() == _msgSender() */\n      0xffffffffffffffffffffffffffffffffffffffff\n      and\n        /* \"contracts/Marketplace2/Marketplace.sol\":1888:1895  owner() */\n      tag_236\n        /* \"contracts/Marketplace2/Marketplace.sol\":1888:1893  owner */\n      tag_68\n        /* \"contracts/Marketplace2/Marketplace.sol\":1888:1895  owner() */\n      jump\t// in\n    tag_236:\n        /* \"contracts/Marketplace2/Marketplace.sol\":1888:1911  owner() == _msgSender() */\n      0xffffffffffffffffffffffffffffffffffffffff\n      and\n      eq\n        /* \"contracts/Marketplace2/Marketplace.sol\":1880:1948  require(owner() == _msgSender(), \"Ownable: caller is not the owner\") */\n      tag_237\n      jumpi\n      mload(0x40)\n      0x08c379a000000000000000000000000000000000000000000000000000000000\n      dup2\n      mstore\n      0x04\n      add\n      tag_238\n      swap1\n      tag_147\n      jump\t// in\n    tag_238:\n      mload(0x40)\n      dup1\n      swap2\n      sub\n      swap1\n      revert\n    tag_237:\n        /* \"contracts/Marketplace2/Marketplace.sol\":2372:2402  _transferOwnership(address(0)) */\n      tag_240\n        /* \"contracts/Marketplace2/Marketplace.sol\":2399:2400  0 */\n      0x00\n        /* \"contracts/Marketplace2/Marketplace.sol\":2372:2390  _transferOwnership */\n      tag_241\n        /* \"contracts/Marketplace2/Marketplace.sol\":2372:2402  _transferOwnership(address(0)) */\n      jump\t// in\n    tag_240:\n        /* \"contracts/Marketplace2/Marketplace.sol\":2308:2409  function renounceOwnership() public virtual onlyOwner {... */\n      jump\t// out\n        /* \"contracts/Marketplace2/Marketplace.sol\":16296:16322  uint8 public bnbFeePercent */\n    tag_64:\n      0x05\n      0x14\n      swap1\n      sload\n      swap1\n      0x0100\n      exp\n      swap1\n      div\n      0xff\n      and\n      dup2\n      jump\t// out\n        /* \"contracts/Marketplace2/Marketplace.sol\":1676:1761  function owner() public view virtual returns (address) {... */\n    tag_68:\n        /* \"contracts/Marketplace2/Marketplace.sol\":1722:1729  address */\n      0x00\n        /* \"contracts/Marketplace2/Marketplace.sol\":1748:1754  _owner */\n      0x06\n      0x00\n      swap1\n      sload\n      swap1\n      0x0100\n      exp\n      swap1\n      div\n      0xffffffffffffffffffffffffffffffffffffffff\n      and\n        /* \"contracts/Marketplace2/Marketplace.sol\":1741:1754  return _owner */\n      swap1\n      pop\n        /* \"contracts/Marketplace2/Marketplace.sol\":1676:1761  function owner() public view virtual returns (address) {... */\n      swap1\n      jump\t// out\n        /* \"contracts/Marketplace2/Marketplace.sol\":21120:21937  function createMarketSale(... */\n    tag_73:\n        /* \"contracts/Marketplace2/Marketplace.sol\":21205:21215  uint price */\n      0x00\n        /* \"contracts/Marketplace2/Marketplace.sol\":21218:21232  idToMarketItem */\n      0x09\n        /* \"contracts/Marketplace2/Marketplace.sol\":21218:21240  idToMarketItem[itemId] */\n      0x00\n        /* \"contracts/Marketplace2/Marketplace.sol\":21233:21239  itemId */\n      dup5\n        /* \"contracts/Marketplace2/Marketplace.sol\":21218:21240  idToMarketItem[itemId] */\n      dup2\n      mstore\n      0x20\n      add\n      swap1\n      dup2\n      mstore\n      0x20\n      add\n      0x00\n      keccak256\n        /* \"contracts/Marketplace2/Marketplace.sol\":21218:21246  idToMarketItem[itemId].price */\n      0x04\n      add\n      sload\n        /* \"contracts/Marketplace2/Marketplace.sol\":21205:21246  uint price = idToMarketItem[itemId].price */\n      swap1\n      pop\n        /* \"contracts/Marketplace2/Marketplace.sol\":21252:21264  uint tokenId */\n      0x00\n        /* \"contracts/Marketplace2/Marketplace.sol\":21267:21281  idToMarketItem */\n      0x09\n        /* \"contracts/Marketplace2/Marketplace.sol\":21267:21289  idToMarketItem[itemId] */\n      0x00\n        /* \"contracts/Marketplace2/Marketplace.sol\":21282:21288  itemId */\n      dup6\n        /* \"contracts/Marketplace2/Marketplace.sol\":21267:21289  idToMarketItem[itemId] */\n      dup2\n      mstore\n      0x20\n      add\n      swap1\n      dup2\n      mstore\n      0x20\n      add\n      0x00\n      keccak256\n        /* \"contracts/Marketplace2/Marketplace.sol\":21267:21297  idToMarketItem[itemId].tokenId */\n      0x01\n      add\n      sload\n        /* \"contracts/Marketplace2/Marketplace.sol\":21252:21297  uint tokenId = idToMarketItem[itemId].tokenId */\n      swap1\n      pop\n        /* \"contracts/Marketplace2/Marketplace.sol\":21303:21317  address seller */\n      0x00\n        /* \"contracts/Marketplace2/Marketplace.sol\":21321:21335  idToMarketItem */\n      0x09\n        /* \"contracts/Marketplace2/Marketplace.sol\":21321:21343  idToMarketItem[itemId] */\n      0x00\n        /* \"contracts/Marketplace2/Marketplace.sol\":21336:21342  itemId */\n      dup7\n        /* \"contracts/Marketplace2/Marketplace.sol\":21321:21343  idToMarketItem[itemId] */\n      dup2\n      mstore\n      0x20\n      add\n      swap1\n      dup2\n      mstore\n      0x20\n      add\n      0x00\n      keccak256\n        /* \"contracts/Marketplace2/Marketplace.sol\":21321:21350  idToMarketItem[itemId].seller */\n      0x02\n      add\n      0x00\n      swap1\n      sload\n      swap1\n      0x0100\n      exp\n      swap1\n      div\n      0xffffffffffffffffffffffffffffffffffffffff\n      and\n        /* \"contracts/Marketplace2/Marketplace.sol\":21303:21350  address seller =  idToMarketItem[itemId].seller */\n      swap1\n      pop\n        /* \"contracts/Marketplace2/Marketplace.sol\":21356:21389  StructLib.ingameItems memory item */\n      0x00\n        /* \"contracts/Marketplace2/Marketplace.sol\":21392:21399  factory */\n      0x04\n      0x00\n      swap1\n      sload\n      swap1\n      0x0100\n      exp\n      swap1\n      div\n      0xffffffffffffffffffffffffffffffffffffffff\n      and\n        /* \"contracts/Marketplace2/Marketplace.sol\":21392:21413  factory.getIngameItem */\n      0xffffffffffffffffffffffffffffffffffffffff\n      and\n      0x03ce1cb5\n        /* \"contracts/Marketplace2/Marketplace.sol\":21414:21421  tokenId */\n      dup5\n        /* \"contracts/Marketplace2/Marketplace.sol\":21392:21422  factory.getIngameItem(tokenId) */\n      mload(0x40)\n      dup3\n      0xffffffff\n      and\n      0xe0\n      shl\n      dup2\n      mstore\n      0x04\n      add\n      tag_244\n      swap2\n      swap1\n      tag_204\n      jump\t// in\n    tag_244:\n      0x00\n      mload(0x40)\n      dup1\n      dup4\n      sub\n      dup2\n      dup7\n      gas\n      staticcall\n      iszero\n      dup1\n      iszero\n      tag_246\n      jumpi\n      returndatasize\n      0x00\n      dup1\n      returndatacopy\n      revert(0x00, returndatasize)\n    tag_246:\n      pop\n      pop\n      pop\n      pop\n      mload(0x40)\n      returndatasize\n      0x00\n      dup3\n      returndatacopy\n      returndatasize\n      not(0x1f)\n      0x1f\n      dup3\n      add\n      and\n      dup3\n      add\n      dup1\n      0x40\n      mstore\n      pop\n      dup2\n      add\n      swap1\n      tag_247\n      swap2\n      swap1\n      tag_208\n      jump\t// in\n    tag_247:\n        /* \"contracts/Marketplace2/Marketplace.sol\":21356:21422  StructLib.ingameItems memory item = factory.getIngameItem(tokenId) */\n      swap1\n      pop\n        /* \"contracts/Marketplace2/Marketplace.sol\":21446:21451  price */\n      dup4\n        /* \"contracts/Marketplace2/Marketplace.sol\":21436:21442  amount */\n      dup6\n        /* \"contracts/Marketplace2/Marketplace.sol\":21436:21451  amount == price */\n      eq\n        /* \"contracts/Marketplace2/Marketplace.sol\":21428:21520  require(amount == price, \"Please submit the asking price in order to complete the purchase\") */\n      tag_248\n      jumpi\n      mload(0x40)\n      0x08c379a000000000000000000000000000000000000000000000000000000000\n      dup2\n      mstore\n      0x04\n      add\n      tag_249\n      swap1\n      tag_250\n      jump\t// in\n    tag_249:\n      mload(0x40)\n      dup1\n      swap2\n      sub\n      swap1\n      revert\n    tag_248:\n        /* \"contracts/Marketplace2/Marketplace.sol\":21549:21554  false */\n      0x00\n        /* \"contracts/Marketplace2/Marketplace.sol\":21534:21554  item.ingame == false */\n      iszero\n      iszero\n        /* \"contracts/Marketplace2/Marketplace.sol\":21534:21538  item */\n      dup2\n        /* \"contracts/Marketplace2/Marketplace.sol\":21534:21545  item.ingame */\n      0x80\n      add\n      mload\n        /* \"contracts/Marketplace2/Marketplace.sol\":21534:21554  item.ingame == false */\n      iszero\n      iszero\n      eq\n        /* \"contracts/Marketplace2/Marketplace.sol\":21526:21586  require(item.ingame == false, \"Item is not available now !\") */\n      tag_251\n      jumpi\n      mload(0x40)\n      0x08c379a000000000000000000000000000000000000000000000000000000000\n      dup2\n      mstore\n      0x04\n      add\n      tag_252\n      swap1\n      tag_211\n      jump\t// in\n    tag_252:\n      mload(0x40)\n      dup1\n      swap2\n      sub\n      swap1\n      revert\n    tag_251:\n        /* \"contracts/Marketplace2/Marketplace.sol\":21592:21627  _safeBuyItem(itemId,amount,tokenId) */\n      tag_253\n        /* \"contracts/Marketplace2/Marketplace.sol\":21605:21611  itemId */\n      dup7\n        /* \"contracts/Marketplace2/Marketplace.sol\":21612:21618  amount */\n      dup7\n        /* \"contracts/Marketplace2/Marketplace.sol\":21619:21626  tokenId */\n      dup6\n        /* \"contracts/Marketplace2/Marketplace.sol\":21592:21604  _safeBuyItem */\n      tag_254\n        /* \"contracts/Marketplace2/Marketplace.sol\":21592:21627  _safeBuyItem(itemId,amount,tokenId) */\n      jump\t// in\n    tag_253:\n        /* \"contracts/Marketplace2/Marketplace.sol\":21672:21682  msg.sender */\n      caller\n        /* \"contracts/Marketplace2/Marketplace.sol\":21633:21647  idToMarketItem */\n      0x09\n        /* \"contracts/Marketplace2/Marketplace.sol\":21633:21655  idToMarketItem[itemId] */\n      0x00\n        /* \"contracts/Marketplace2/Marketplace.sol\":21648:21654  itemId */\n      dup9\n        /* \"contracts/Marketplace2/Marketplace.sol\":21633:21655  idToMarketItem[itemId] */\n      dup2\n      mstore\n      0x20\n      add\n      swap1\n      dup2\n      mstore\n      0x20\n      add\n      0x00\n      keccak256\n        /* \"contracts/Marketplace2/Marketplace.sol\":21633:21661  idToMarketItem[itemId].owner */\n      0x03\n      add\n      0x00\n        /* \"contracts/Marketplace2/Marketplace.sol\":21633:21683  idToMarketItem[itemId].owner = address(msg.sender) */\n      0x0100\n      exp\n      dup2\n      sload\n      dup2\n      0xffffffffffffffffffffffffffffffffffffffff\n      mul\n      not\n      and\n      swap1\n      dup4\n      0xffffffffffffffffffffffffffffffffffffffff\n      and\n      mul\n      or\n      swap1\n      sstore\n      pop\n        /* \"contracts/Marketplace2/Marketplace.sol\":21721:21737  ItemStatus.AVAIL */\n      0x00\n        /* \"contracts/Marketplace2/Marketplace.sol\":21689:21703  idToMarketItem */\n      0x09\n        /* \"contracts/Marketplace2/Marketplace.sol\":21689:21711  idToMarketItem[itemId] */\n      0x00\n        /* \"contracts/Marketplace2/Marketplace.sol\":21704:21710  itemId */\n      dup9\n        /* \"contracts/Marketplace2/Marketplace.sol\":21689:21711  idToMarketItem[itemId] */\n      dup2\n      mstore\n      0x20\n      add\n      swap1\n      dup2\n      mstore\n      0x20\n      add\n      0x00\n      keccak256\n        /* \"contracts/Marketplace2/Marketplace.sol\":21689:21718  idToMarketItem[itemId].status */\n      0x05\n      add\n      0x00\n        /* \"contracts/Marketplace2/Marketplace.sol\":21689:21737  idToMarketItem[itemId].status = ItemStatus.AVAIL */\n      0x0100\n      exp\n      dup2\n      sload\n      dup2\n      0xff\n      mul\n      not\n      and\n      swap1\n      dup4\n      0x01\n      dup2\n      gt\n      iszero\n      tag_255\n      jumpi\n      tag_256\n      tag_111\n      jump\t// in\n    tag_256:\n    tag_255:\n      mul\n      or\n      swap1\n      sstore\n      pop\n        /* \"contracts/Marketplace2/Marketplace.sol\":21743:21765  _itemsSold.increment() */\n      tag_257\n        /* \"contracts/Marketplace2/Marketplace.sol\":21743:21753  _itemsSold */\n      0x08\n        /* \"contracts/Marketplace2/Marketplace.sol\":21743:21763  _itemsSold.increment */\n      tag_160\n        /* \"contracts/Marketplace2/Marketplace.sol\":21743:21765  _itemsSold.increment() */\n      jump\t// in\n    tag_257:\n        /* \"contracts/Marketplace2/Marketplace.sol\":21875:21885  msg.sender */\n      caller\n        /* \"contracts/Marketplace2/Marketplace.sol\":21776:21932  BuyItemSuccessful(... */\n      0xffffffffffffffffffffffffffffffffffffffff\n      and\n        /* \"contracts/Marketplace2/Marketplace.sol\":21836:21842  seller */\n      dup3\n        /* \"contracts/Marketplace2/Marketplace.sol\":21776:21932  BuyItemSuccessful(... */\n      0xffffffffffffffffffffffffffffffffffffffff\n      and\n        /* \"contracts/Marketplace2/Marketplace.sol\":21819:21826  tokenId */\n      dup5\n        /* \"contracts/Marketplace2/Marketplace.sol\":21776:21932  BuyItemSuccessful(... */\n      0x551327aee12d0a8b3ede8d0e3182a40a5ff3ed9f1811dd622915db30b609b7df\n        /* \"contracts/Marketplace2/Marketplace.sol\":21803:21809  itemId */\n      dup10\n        /* \"contracts/Marketplace2/Marketplace.sol\":21852:21857  price */\n      dup9\n        /* \"contracts/Marketplace2/Marketplace.sol\":21911:21926  block.timestamp */\n      timestamp\n        /* \"contracts/Marketplace2/Marketplace.sol\":21776:21932  BuyItemSuccessful(... */\n      mload(0x40)\n      tag_258\n      swap4\n      swap3\n      swap2\n      swap1\n      tag_259\n      jump\t// in\n    tag_258:\n      mload(0x40)\n      dup1\n      swap2\n      sub\n      swap1\n      log4\n        /* \"contracts/Marketplace2/Marketplace.sol\":21199:21937  {... */\n      pop\n      pop\n      pop\n      pop\n        /* \"contracts/Marketplace2/Marketplace.sol\":21120:21937  function createMarketSale(... */\n      pop\n      pop\n      jump\t// out\n        /* \"contracts/Marketplace2/Marketplace.sol\":19710:20364  function createMarketItem2(... */\n    tag_76:\n        /* \"contracts/Marketplace2/Marketplace.sol\":19810:19811  0 */\n      0x00\n        /* \"contracts/Marketplace2/Marketplace.sol\":19802:19807  price */\n      dup2\n        /* \"contracts/Marketplace2/Marketplace.sol\":19802:19811  price > 0 */\n      gt\n        /* \"contracts/Marketplace2/Marketplace.sol\":19794:19844  require(price > 0, \"Price must be at least 1 wei\") */\n      tag_261\n      jumpi\n      mload(0x40)\n      0x08c379a000000000000000000000000000000000000000000000000000000000\n      dup2\n      mstore\n      0x04\n      add\n      tag_262\n      swap1\n      tag_158\n      jump\t// in\n    tag_262:\n      mload(0x40)\n      dup1\n      swap2\n      sub\n      swap1\n      revert\n    tag_261:\n        /* \"contracts/Marketplace2/Marketplace.sol\":19850:19884  StructLib.ingameItems memory _item */\n      0x00\n        /* \"contracts/Marketplace2/Marketplace.sol\":19887:19894  factory */\n      0x04\n      0x00\n      swap1\n      sload\n      swap1\n      0x0100\n      exp\n      swap1\n      div\n      0xffffffffffffffffffffffffffffffffffffffff\n      and\n        /* \"contracts/Marketplace2/Marketplace.sol\":19887:19908  factory.getIngameItem */\n      0xffffffffffffffffffffffffffffffffffffffff\n      and\n      0x03ce1cb5\n        /* \"contracts/Marketplace2/Marketplace.sol\":19909:19916  tokenId */\n      dup5\n        /* \"contracts/Marketplace2/Marketplace.sol\":19887:19917  factory.getIngameItem(tokenId) */\n      mload(0x40)\n      dup3\n      0xffffffff\n      and\n      0xe0\n      shl\n      dup2\n      mstore\n      0x04\n      add\n      tag_263\n      swap2\n      swap1\n      tag_204\n      jump\t// in\n    tag_263:\n      0x00\n      mload(0x40)\n      dup1\n      dup4\n      sub\n      dup2\n      dup7\n      gas\n      staticcall\n      iszero\n      dup1\n      iszero\n      tag_265\n      jumpi\n      returndatasize\n      0x00\n      dup1\n      returndatacopy\n      revert(0x00, returndatasize)\n    tag_265:\n      pop\n      pop\n      pop\n      pop\n      mload(0x40)\n      returndatasize\n      0x00\n      dup3\n      returndatacopy\n      returndatasize\n      not(0x1f)\n      0x1f\n      dup3\n      add\n      and\n      dup3\n      add\n      dup1\n      0x40\n      mstore\n      pop\n      dup2\n      add\n      swap1\n      tag_266\n      swap2\n      swap1\n      tag_208\n      jump\t// in\n    tag_266:\n        /* \"contracts/Marketplace2/Marketplace.sol\":19850:19917  StructLib.ingameItems memory _item = factory.getIngameItem(tokenId) */\n      swap1\n      pop\n        /* \"contracts/Marketplace2/Marketplace.sol\":19947:19952  false */\n      0x00\n        /* \"contracts/Marketplace2/Marketplace.sol\":19931:19952  _item.ingame == false */\n      iszero\n      iszero\n        /* \"contracts/Marketplace2/Marketplace.sol\":19931:19936  _item */\n      dup2\n        /* \"contracts/Marketplace2/Marketplace.sol\":19931:19943  _item.ingame */\n      0x80\n      add\n      mload\n        /* \"contracts/Marketplace2/Marketplace.sol\":19931:19952  _item.ingame == false */\n      iszero\n      iszero\n      eq\n        /* \"contracts/Marketplace2/Marketplace.sol\":19923:19985  require(_item.ingame == false, \"Item is not available now !\" ) */\n      tag_267\n      jumpi\n      mload(0x40)\n      0x08c379a000000000000000000000000000000000000000000000000000000000\n      dup2\n      mstore\n      0x04\n      add\n      tag_268\n      swap1\n      tag_211\n      jump\t// in\n    tag_268:\n      mload(0x40)\n      dup1\n      swap2\n      sub\n      swap1\n      revert\n    tag_267:\n        /* \"contracts/Marketplace2/Marketplace.sol\":19991:20005  uint256 itemId */\n      0x00\n        /* \"contracts/Marketplace2/Marketplace.sol\":20008:20026  _itemIds.current() */\n      tag_269\n        /* \"contracts/Marketplace2/Marketplace.sol\":20008:20016  _itemIds */\n      0x07\n        /* \"contracts/Marketplace2/Marketplace.sol\":20008:20024  _itemIds.current */\n      tag_163\n        /* \"contracts/Marketplace2/Marketplace.sol\":20008:20026  _itemIds.current() */\n      jump\t// in\n    tag_269:\n        /* \"contracts/Marketplace2/Marketplace.sol\":19991:20026  uint256 itemId = _itemIds.current() */\n      swap1\n      pop\n        /* \"contracts/Marketplace2/Marketplace.sol\":20032:20062  _safeTransferToMarket(tokenId) */\n      tag_270\n        /* \"contracts/Marketplace2/Marketplace.sol\":20054:20061  tokenId */\n      dup5\n        /* \"contracts/Marketplace2/Marketplace.sol\":20032:20053  _safeTransferToMarket */\n      tag_96\n        /* \"contracts/Marketplace2/Marketplace.sol\":20032:20062  _safeTransferToMarket(tokenId) */\n      jump\t// in\n    tag_270:\n        /* \"contracts/Marketplace2/Marketplace.sol\":20094:20217  MarketItem(... */\n      mload(0x40)\n      dup1\n      0xc0\n      add\n      0x40\n      mstore\n      dup1\n        /* \"contracts/Marketplace2/Marketplace.sol\":20112:20118  itemId */\n      dup3\n        /* \"contracts/Marketplace2/Marketplace.sol\":20094:20217  MarketItem(... */\n      dup2\n      mstore\n      0x20\n      add\n        /* \"contracts/Marketplace2/Marketplace.sol\":20126:20133  tokenId */\n      dup6\n        /* \"contracts/Marketplace2/Marketplace.sol\":20094:20217  MarketItem(... */\n      dup2\n      mstore\n      0x20\n      add\n        /* \"contracts/Marketplace2/Marketplace.sol\":20141:20151  msg.sender */\n      caller\n        /* \"contracts/Marketplace2/Marketplace.sol\":20094:20217  MarketItem(... */\n      0xffffffffffffffffffffffffffffffffffffffff\n      and\n      dup2\n      mstore\n      0x20\n      add\n        /* \"contracts/Marketplace2/Marketplace.sol\":20167:20171  this */\n      address\n        /* \"contracts/Marketplace2/Marketplace.sol\":20094:20217  MarketItem(... */\n      0xffffffffffffffffffffffffffffffffffffffff\n      and\n      dup2\n      mstore\n      0x20\n      add\n        /* \"contracts/Marketplace2/Marketplace.sol\":20180:20185  price */\n      dup5\n        /* \"contracts/Marketplace2/Marketplace.sol\":20094:20217  MarketItem(... */\n      dup2\n      mstore\n      0x20\n      add\n        /* \"contracts/Marketplace2/Marketplace.sol\":20193:20211  ItemStatus.SELLING */\n      0x01\n        /* \"contracts/Marketplace2/Marketplace.sol\":20094:20217  MarketItem(... */\n      dup1\n      dup2\n      gt\n      iszero\n      tag_271\n      jumpi\n      tag_272\n      tag_111\n      jump\t// in\n    tag_272:\n    tag_271:\n      dup2\n      mstore\n      pop\n        /* \"contracts/Marketplace2/Marketplace.sol\":20068:20082  idToMarketItem */\n      0x09\n        /* \"contracts/Marketplace2/Marketplace.sol\":20068:20090  idToMarketItem[itemId] */\n      0x00\n        /* \"contracts/Marketplace2/Marketplace.sol\":20083:20089  itemId */\n      dup4\n        /* \"contracts/Marketplace2/Marketplace.sol\":20068:20090  idToMarketItem[itemId] */\n      dup2\n      mstore\n      0x20\n      add\n      swap1\n      dup2\n      mstore\n      0x20\n      add\n      0x00\n      keccak256\n        /* \"contracts/Marketplace2/Marketplace.sol\":20068:20217  idToMarketItem[itemId] =  MarketItem(... */\n      0x00\n      dup3\n      add\n      mload\n      dup2\n      0x00\n      add\n      sstore\n      0x20\n      dup3\n      add\n      mload\n      dup2\n      0x01\n      add\n      sstore\n      0x40\n      dup3\n      add\n      mload\n      dup2\n      0x02\n      add\n      exp(0x0100, 0x00)\n      dup2\n      sload\n      dup2\n      0xffffffffffffffffffffffffffffffffffffffff\n      mul\n      not\n      and\n      swap1\n      dup4\n      0xffffffffffffffffffffffffffffffffffffffff\n      and\n      mul\n      or\n      swap1\n      sstore\n      pop\n      0x60\n      dup3\n      add\n      mload\n      dup2\n      0x03\n      add\n      exp(0x0100, 0x00)\n      dup2\n      sload\n      dup2\n      0xffffffffffffffffffffffffffffffffffffffff\n      mul\n      not\n      and\n      swap1\n      dup4\n      0xffffffffffffffffffffffffffffffffffffffff\n      and\n      mul\n      or\n      swap1\n      sstore\n      pop\n      0x80\n      dup3\n      add\n      mload\n      dup2\n      0x04\n      add\n      sstore\n      0xa0\n      dup3\n      add\n      mload\n      dup2\n      0x05\n      add\n      exp(0x0100, 0x00)\n      dup2\n      sload\n      dup2\n      0xff\n      mul\n      not\n      and\n      swap1\n      dup4\n      0x01\n      dup2\n      gt\n      iszero\n      tag_273\n      jumpi\n      tag_274\n      tag_111\n      jump\t// in\n    tag_274:\n    tag_273:\n      mul\n      or\n      swap1\n      sstore\n      pop\n      swap1\n      pop\n      pop\n        /* \"contracts/Marketplace2/Marketplace.sol\":20223:20243  _itemIds.increment() */\n      tag_275\n        /* \"contracts/Marketplace2/Marketplace.sol\":20223:20231  _itemIds */\n      0x07\n        /* \"contracts/Marketplace2/Marketplace.sol\":20223:20241  _itemIds.increment */\n      tag_160\n        /* \"contracts/Marketplace2/Marketplace.sol\":20223:20243  _itemIds.increment() */\n      jump\t// in\n    tag_275:\n        /* \"contracts/Marketplace2/Marketplace.sol\":20294:20301  tokenId */\n      dup4\n        /* \"contracts/Marketplace2/Marketplace.sol\":20280:20286  itemId */\n      dup2\n        /* \"contracts/Marketplace2/Marketplace.sol\":20255:20359  MarketItemCreated(... */\n      0x38690a554ffbc44eb6a75016e47d517d0db8e6c37494adc68d6d0b2c66f0ab21\n        /* \"contracts/Marketplace2/Marketplace.sol\":20309:20319  msg.sender */\n      caller\n        /* \"contracts/Marketplace2/Marketplace.sol\":20335:20339  this */\n      address\n        /* \"contracts/Marketplace2/Marketplace.sol\":20348:20353  price */\n      dup8\n        /* \"contracts/Marketplace2/Marketplace.sol\":20255:20359  MarketItemCreated(... */\n      mload(0x40)\n      tag_276\n      swap4\n      swap3\n      swap2\n      swap1\n      tag_131\n      jump\t// in\n    tag_276:\n      mload(0x40)\n      dup1\n      swap2\n      sub\n      swap1\n      log3\n        /* \"contracts/Marketplace2/Marketplace.sol\":19788:20364  {... */\n      pop\n      pop\n        /* \"contracts/Marketplace2/Marketplace.sol\":19710:20364  function createMarketItem2(... */\n      pop\n      pop\n      jump\t// out\n        /* \"contracts/Marketplace2/Marketplace.sol\":16328:16355  uint8 public antaFeePercent */\n    tag_78:\n      0x05\n      0x15\n      swap1\n      sload\n      swap1\n      0x0100\n      exp\n      swap1\n      div\n      0xff\n      and\n      dup2\n      jump\t// out\n        /* \"contracts/Marketplace2/Marketplace.sol\":15913:15938  MarketItem[] public items */\n    tag_82:\n      0x01\n      dup2\n      dup2\n      sload\n      dup2\n      lt\n      tag_277\n      jumpi\n      0x00\n      dup1\n      revert\n    tag_277:\n      swap1\n      0x00\n      mstore\n      keccak256(0x00, 0x20)\n      swap1\n      0x06\n      mul\n      add\n      0x00\n      swap2\n      pop\n      swap1\n      pop\n      dup1\n      0x00\n      add\n      sload\n      swap1\n      dup1\n      0x01\n      add\n      sload\n      swap1\n      dup1\n      0x02\n      add\n      0x00\n      swap1\n      sload\n      swap1\n      0x0100\n      exp\n      swap1\n      div\n      0xffffffffffffffffffffffffffffffffffffffff\n      and\n      swap1\n      dup1\n      0x03\n      add\n      0x00\n      swap1\n      sload\n      swap1\n      0x0100\n      exp\n      swap1\n      div\n      0xffffffffffffffffffffffffffffffffffffffff\n      and\n      swap1\n      dup1\n      0x04\n      add\n      sload\n      swap1\n      dup1\n      0x05\n      add\n      0x00\n      swap1\n      sload\n      swap1\n      0x0100\n      exp\n      swap1\n      div\n      0xff\n      and\n      swap1\n      pop\n      dup7\n      jump\t// out\n        /* \"contracts/Marketplace2/Marketplace.sol\":16237:16260  IFactory public factory */\n    tag_86:\n      0x04\n      0x00\n      swap1\n      sload\n      swap1\n      0x0100\n      exp\n      swap1\n      div\n      0xffffffffffffffffffffffffffffffffffffffff\n      and\n      dup2\n      jump\t// out\n        /* \"contracts/Marketplace2/Marketplace.sol\":18484:18621  function getMarketItem(uint256 marketItemId) public view returns (MarketItem memory) {... */\n    tag_91:\n        /* \"contracts/Marketplace2/Marketplace.sol\":18550:18567  MarketItem memory */\n      tag_279\n      tag_182\n      jump\t// in\n    tag_279:\n        /* \"contracts/Marketplace2/Marketplace.sol\":18586:18600  idToMarketItem */\n      0x09\n        /* \"contracts/Marketplace2/Marketplace.sol\":18586:18614  idToMarketItem[marketItemId] */\n      0x00\n        /* \"contracts/Marketplace2/Marketplace.sol\":18601:18613  marketItemId */\n      dup4\n        /* \"contracts/Marketplace2/Marketplace.sol\":18586:18614  idToMarketItem[marketItemId] */\n      dup2\n      mstore\n      0x20\n      add\n      swap1\n      dup2\n      mstore\n      0x20\n      add\n      0x00\n      keccak256\n        /* \"contracts/Marketplace2/Marketplace.sol\":18579:18614  return idToMarketItem[marketItemId] */\n      mload(0x40)\n      dup1\n      0xc0\n      add\n      0x40\n      mstore\n      swap1\n      dup2\n      0x00\n      dup3\n      add\n      sload\n      dup2\n      mstore\n      0x20\n      add\n      0x01\n      dup3\n      add\n      sload\n      dup2\n      mstore\n      0x20\n      add\n      0x02\n      dup3\n      add\n      0x00\n      swap1\n      sload\n      swap1\n      0x0100\n      exp\n      swap1\n      div\n      0xffffffffffffffffffffffffffffffffffffffff\n      and\n      0xffffffffffffffffffffffffffffffffffffffff\n      and\n      0xffffffffffffffffffffffffffffffffffffffff\n      and\n      dup2\n      mstore\n      0x20\n      add\n      0x03\n      dup3\n      add\n      0x00\n      swap1\n      sload\n      swap1\n      0x0100\n      exp\n      swap1\n      div\n      0xffffffffffffffffffffffffffffffffffffffff\n      and\n      0xffffffffffffffffffffffffffffffffffffffff\n      and\n      0xffffffffffffffffffffffffffffffffffffffff\n      and\n      dup2\n      mstore\n      0x20\n      add\n      0x04\n      dup3\n      add\n      sload\n      dup2\n      mstore\n      0x20\n      add\n      0x05\n      dup3\n      add\n      0x00\n      swap1\n      sload\n      swap1\n      0x0100\n      exp\n      swap1\n      div\n      0xff\n      and\n      0x01\n      dup2\n      gt\n      iszero\n      tag_281\n      jumpi\n      tag_282\n      tag_111\n      jump\t// in\n    tag_282:\n    tag_281:\n      0x01\n      dup2\n      gt\n      iszero\n      tag_283\n      jumpi\n      tag_284\n      tag_111\n      jump\t// in\n    tag_284:\n    tag_283:\n      dup2\n      mstore\n      pop\n      pop\n      swap1\n      pop\n        /* \"contracts/Marketplace2/Marketplace.sol\":18484:18621  function getMarketItem(uint256 marketItemId) public view returns (MarketItem memory) {... */\n      swap2\n      swap1\n      pop\n      jump\t// out\n        /* \"contracts/Marketplace2/Marketplace.sol\":22713:22930  function _safeTransferToMarket(uint256 tokenId) public {... */\n    tag_96:\n        /* \"contracts/Marketplace2/Marketplace.sol\":22782:22789  factory */\n      0x04\n      0x00\n      swap1\n      sload\n      swap1\n      0x0100\n      exp\n      swap1\n      div\n      0xffffffffffffffffffffffffffffffffffffffff\n      and\n        /* \"contracts/Marketplace2/Marketplace.sol\":22782:22808  factory.setOwnerIngameItem */\n      0xffffffffffffffffffffffffffffffffffffffff\n      and\n      0xc1e9518a\n        /* \"contracts/Marketplace2/Marketplace.sol\":22817:22827  msg.sender */\n      caller\n        /* \"contracts/Marketplace2/Marketplace.sol\":22837:22841  this */\n      address\n        /* \"contracts/Marketplace2/Marketplace.sol\":22844:22851  tokenId */\n      dup5\n        /* \"contracts/Marketplace2/Marketplace.sol\":22782:22852  factory.setOwnerIngameItem(payable(msg.sender),address(this), tokenId) */\n      mload(0x40)\n      dup5\n      0xffffffff\n      and\n      0xe0\n      shl\n      dup2\n      mstore\n      0x04\n      add\n      tag_286\n      swap4\n      swap3\n      swap2\n      swap1\n      tag_214\n      jump\t// in\n    tag_286:\n      0x00\n      mload(0x40)\n      dup1\n      dup4\n      sub\n      dup2\n      0x00\n      dup8\n      dup1\n      extcodesize\n      iszero\n      dup1\n      iszero\n      tag_287\n      jumpi\n      0x00\n      dup1\n      revert\n    tag_287:\n      pop\n      gas\n      call\n      iszero\n      dup1\n      iszero\n      tag_289\n      jumpi\n      returndatasize\n      0x00\n      dup1\n      returndatacopy\n      revert(0x00, returndatasize)\n    tag_289:\n      pop\n      pop\n      pop\n      pop\n        /* \"contracts/Marketplace2/Marketplace.sol\":22866:22874  mainNFTs */\n      0x05\n      0x00\n      swap1\n      sload\n      swap1\n      0x0100\n      exp\n      swap1\n      div\n      0xffffffffffffffffffffffffffffffffffffffff\n      and\n        /* \"contracts/Marketplace2/Marketplace.sol\":22866:22887  mainNFTs.transferFrom */\n      0xffffffffffffffffffffffffffffffffffffffff\n      and\n      0x23b872dd\n        /* \"contracts/Marketplace2/Marketplace.sol\":22888:22898  msg.sender */\n      caller\n        /* \"contracts/Marketplace2/Marketplace.sol\":22908:22912  this */\n      address\n        /* \"contracts/Marketplace2/Marketplace.sol\":22915:22922  tokenId */\n      dup5\n        /* \"contracts/Marketplace2/Marketplace.sol\":22866:22923  mainNFTs.transferFrom(msg.sender, address(this), tokenId) */\n      mload(0x40)\n      dup5\n      0xffffffff\n      and\n      0xe0\n      shl\n      dup2\n      mstore\n      0x04\n      add\n      tag_290\n      swap4\n      swap3\n      swap2\n      swap1\n      tag_131\n      jump\t// in\n    tag_290:\n      0x00\n      mload(0x40)\n      dup1\n      dup4\n      sub\n      dup2\n      0x00\n      dup8\n      dup1\n      extcodesize\n      iszero\n      dup1\n      iszero\n      tag_291\n      jumpi\n      0x00\n      dup1\n      revert\n    tag_291:\n      pop\n      gas\n      call\n      iszero\n      dup1\n      iszero\n      tag_293\n      jumpi\n      returndatasize\n      0x00\n      dup1\n      returndatacopy\n      revert(0x00, returndatasize)\n    tag_293:\n      pop\n      pop\n      pop\n      pop\n        /* \"contracts/Marketplace2/Marketplace.sol\":22713:22930  function _safeTransferToMarket(uint256 tokenId) public {... */\n      pop\n      jump\t// out\n        /* \"contracts/Marketplace2/Marketplace.sol\":2558:2756  function transferOwnership(address newOwner) public virtual onlyOwner {... */\n    tag_99:\n        /* \"contracts/Marketplace2/Marketplace.sol\":1899:1911  _msgSender() */\n      tag_295\n        /* \"contracts/Marketplace2/Marketplace.sol\":1899:1909  _msgSender */\n      tag_143\n        /* \"contracts/Marketplace2/Marketplace.sol\":1899:1911  _msgSender() */\n      jump\t// in\n    tag_295:\n        /* \"contracts/Marketplace2/Marketplace.sol\":1888:1911  owner() == _msgSender() */\n      0xffffffffffffffffffffffffffffffffffffffff\n      and\n        /* \"contracts/Marketplace2/Marketplace.sol\":1888:1895  owner() */\n      tag_296\n        /* \"contracts/Marketplace2/Marketplace.sol\":1888:1893  owner */\n      tag_68\n        /* \"contracts/Marketplace2/Marketplace.sol\":1888:1895  owner() */\n      jump\t// in\n    tag_296:\n        /* \"contracts/Marketplace2/Marketplace.sol\":1888:1911  owner() == _msgSender() */\n      0xffffffffffffffffffffffffffffffffffffffff\n      and\n      eq\n        /* \"contracts/Marketplace2/Marketplace.sol\":1880:1948  require(owner() == _msgSender(), \"Ownable: caller is not the owner\") */\n      tag_297\n      jumpi\n      mload(0x40)\n      0x08c379a000000000000000000000000000000000000000000000000000000000\n      dup2\n      mstore\n      0x04\n      add\n      tag_298\n      swap1\n      tag_147\n      jump\t// in\n    tag_298:\n      mload(0x40)\n      dup1\n      swap2\n      sub\n      swap1\n      revert\n    tag_297:\n        /* \"contracts/Marketplace2/Marketplace.sol\":2666:2667  0 */\n      0x00\n        /* \"contracts/Marketplace2/Marketplace.sol\":2646:2668  newOwner != address(0) */\n      0xffffffffffffffffffffffffffffffffffffffff\n      and\n        /* \"contracts/Marketplace2/Marketplace.sol\":2646:2654  newOwner */\n      dup2\n        /* \"contracts/Marketplace2/Marketplace.sol\":2646:2668  newOwner != address(0) */\n      0xffffffffffffffffffffffffffffffffffffffff\n      and\n      sub\n        /* \"contracts/Marketplace2/Marketplace.sol\":2638:2711  require(newOwner != address(0), \"Ownable: new owner is the zero address\") */\n      tag_300\n      jumpi\n      mload(0x40)\n      0x08c379a000000000000000000000000000000000000000000000000000000000\n      dup2\n      mstore\n      0x04\n      add\n      tag_301\n      swap1\n      tag_302\n      jump\t// in\n    tag_301:\n      mload(0x40)\n      dup1\n      swap2\n      sub\n      swap1\n      revert\n    tag_300:\n        /* \"contracts/Marketplace2/Marketplace.sol\":2721:2749  _transferOwnership(newOwner) */\n      tag_303\n        /* \"contracts/Marketplace2/Marketplace.sol\":2740:2748  newOwner */\n      dup2\n        /* \"contracts/Marketplace2/Marketplace.sol\":2721:2739  _transferOwnership */\n      tag_241\n        /* \"contracts/Marketplace2/Marketplace.sol\":2721:2749  _transferOwnership(newOwner) */\n      jump\t// in\n    tag_303:\n        /* \"contracts/Marketplace2/Marketplace.sol\":2558:2756  function transferOwnership(address newOwner) public virtual onlyOwner {... */\n      pop\n      jump\t// out\n        /* \"contracts/Marketplace2/Marketplace.sol\":16266:16289  IERC721 public mainNFTs */\n    tag_101:\n      0x05\n      0x00\n      swap1\n      sload\n      swap1\n      0x0100\n      exp\n      swap1\n      div\n      0xffffffffffffffffffffffffffffffffffffffff\n      and\n      dup2\n      jump\t// out\n        /* \"contracts/Marketplace2/Marketplace.sol\":16011:16058  mapping (uint256 => MarketItem) public allItems */\n    tag_106:\n      mstore(0x20, 0x02)\n      dup1\n      0x00\n      mstore\n      keccak256(0x00, 0x40)\n      0x00\n      swap2\n      pop\n      swap1\n      pop\n      dup1\n      0x00\n      add\n      sload\n      swap1\n      dup1\n      0x01\n      add\n      sload\n      swap1\n      dup1\n      0x02\n      add\n      0x00\n      swap1\n      sload\n      swap1\n      0x0100\n      exp\n      swap1\n      div\n      0xffffffffffffffffffffffffffffffffffffffff\n      and\n      swap1\n      dup1\n      0x03\n      add\n      0x00\n      swap1\n      sload\n      swap1\n      0x0100\n      exp\n      swap1\n      div\n      0xffffffffffffffffffffffffffffffffffffffff\n      and\n      swap1\n      dup1\n      0x04\n      add\n      sload\n      swap1\n      dup1\n      0x05\n      add\n      0x00\n      swap1\n      sload\n      swap1\n      0x0100\n      exp\n      swap1\n      div\n      0xff\n      and\n      swap1\n      pop\n      dup7\n      jump\t// out\n        /* \"contracts/Marketplace2/Marketplace.sol\":554:650  function _msgSender() internal view virtual returns (address) {... */\n    tag_143:\n        /* \"contracts/Marketplace2/Marketplace.sol\":607:614  address */\n      0x00\n        /* \"contracts/Marketplace2/Marketplace.sol\":633:643  msg.sender */\n      caller\n        /* \"contracts/Marketplace2/Marketplace.sol\":626:643  return msg.sender */\n      swap1\n      pop\n        /* \"contracts/Marketplace2/Marketplace.sol\":554:650  function _msgSender() internal view virtual returns (address) {... */\n      swap1\n      jump\t// out\n        /* \"contracts/Marketplace2/Marketplace.sol\":11971:12094  function increment(Counter storage counter) internal {... */\n    tag_160:\n        /* \"contracts/Marketplace2/Marketplace.sol\":12076:12077  1 */\n      0x01\n        /* \"contracts/Marketplace2/Marketplace.sol\":12058:12065  counter */\n      dup2\n        /* \"contracts/Marketplace2/Marketplace.sol\":12058:12072  counter._value */\n      0x00\n      add\n      0x00\n        /* \"contracts/Marketplace2/Marketplace.sol\":12058:12077  counter._value += 1 */\n      dup3\n      dup3\n      sload\n      add\n      swap3\n      pop\n      pop\n      dup2\n      swap1\n      sstore\n      pop\n        /* \"contracts/Marketplace2/Marketplace.sol\":11971:12094  function increment(Counter storage counter) internal {... */\n      pop\n      jump\t// out\n        /* \"contracts/Marketplace2/Marketplace.sol\":11853:11965  function current(Counter storage counter) internal view returns (uint256) {... */\n    tag_163:\n        /* \"contracts/Marketplace2/Marketplace.sol\":11918:11925  uint256 */\n      0x00\n        /* \"contracts/Marketplace2/Marketplace.sol\":11944:11951  counter */\n      dup2\n        /* \"contracts/Marketplace2/Marketplace.sol\":11944:11958  counter._value */\n      0x00\n      add\n      sload\n        /* \"contracts/Marketplace2/Marketplace.sol\":11937:11958  return counter._value */\n      swap1\n      pop\n        /* \"contracts/Marketplace2/Marketplace.sol\":11853:11965  function current(Counter storage counter) internal view returns (uint256) {... */\n      swap2\n      swap1\n      pop\n      jump\t// out\n        /* \"contracts/Marketplace2/Marketplace.sol\":2910:3097  function _transferOwnership(address newOwner) internal virtual {... */\n    tag_241:\n        /* \"contracts/Marketplace2/Marketplace.sol\":2983:2999  address oldOwner */\n      0x00\n        /* \"contracts/Marketplace2/Marketplace.sol\":3002:3008  _owner */\n      0x06\n      0x00\n      swap1\n      sload\n      swap1\n      0x0100\n      exp\n      swap1\n      div\n      0xffffffffffffffffffffffffffffffffffffffff\n      and\n        /* \"contracts/Marketplace2/Marketplace.sol\":2983:3008  address oldOwner = _owner */\n      swap1\n      pop\n        /* \"contracts/Marketplace2/Marketplace.sol\":3027:3035  newOwner */\n      dup2\n        /* \"contracts/Marketplace2/Marketplace.sol\":3018:3024  _owner */\n      0x06\n      0x00\n        /* \"contracts/Marketplace2/Marketplace.sol\":3018:3035  _owner = newOwner */\n      0x0100\n      exp\n      dup2\n      sload\n      dup2\n      0xffffffffffffffffffffffffffffffffffffffff\n      mul\n      not\n      and\n      swap1\n      dup4\n      0xffffffffffffffffffffffffffffffffffffffff\n      and\n      mul\n      or\n      swap1\n      sstore\n      pop\n        /* \"contracts/Marketplace2/Marketplace.sol\":3081:3089  newOwner */\n      dup2\n        /* \"contracts/Marketplace2/Marketplace.sol\":3050:3090  OwnershipTransferred(oldOwner, newOwner) */\n      0xffffffffffffffffffffffffffffffffffffffff\n      and\n        /* \"contracts/Marketplace2/Marketplace.sol\":3071:3079  oldOwner */\n      dup2\n        /* \"contracts/Marketplace2/Marketplace.sol\":3050:3090  OwnershipTransferred(oldOwner, newOwner) */\n      0xffffffffffffffffffffffffffffffffffffffff\n      and\n      0x8be0079c531659141344cd1fd0a4f28419497f9722a3daafe3b4186f6b6457e0\n      mload(0x40)\n      mload(0x40)\n      dup1\n      swap2\n      sub\n      swap1\n      log3\n        /* \"contracts/Marketplace2/Marketplace.sol\":2973:3097  {... */\n      pop\n        /* \"contracts/Marketplace2/Marketplace.sol\":2910:3097  function _transferOwnership(address newOwner) internal virtual {... */\n      pop\n      jump\t// out\n        /* \"contracts/Marketplace2/Marketplace.sol\":22937:23255  function _safeBuyItem(uint256 itemId,uint256 amount, uint256 tokenId ) private { ... */\n    tag_254:\n        /* \"contracts/Marketplace2/Marketplace.sol\":23027:23036  mainToken */\n      0x03\n      0x00\n      swap1\n      sload\n      swap1\n      0x0100\n      exp\n      swap1\n      div\n      0xffffffffffffffffffffffffffffffffffffffff\n      and\n        /* \"contracts/Marketplace2/Marketplace.sol\":23027:23049  mainToken.transferFrom */\n      0xffffffffffffffffffffffffffffffffffffffff\n      and\n      0x23b872dd\n        /* \"contracts/Marketplace2/Marketplace.sol\":23050:23060  msg.sender */\n      caller\n        /* \"contracts/Marketplace2/Marketplace.sol\":23062:23076  idToMarketItem */\n      0x09\n        /* \"contracts/Marketplace2/Marketplace.sol\":23062:23084  idToMarketItem[itemId] */\n      0x00\n        /* \"contracts/Marketplace2/Marketplace.sol\":23077:23083  itemId */\n      dup8\n        /* \"contracts/Marketplace2/Marketplace.sol\":23062:23084  idToMarketItem[itemId] */\n      dup2\n      mstore\n      0x20\n      add\n      swap1\n      dup2\n      mstore\n      0x20\n      add\n      0x00\n      keccak256\n        /* \"contracts/Marketplace2/Marketplace.sol\":23062:23091  idToMarketItem[itemId].seller */\n      0x02\n      add\n      0x00\n      swap1\n      sload\n      swap1\n      0x0100\n      exp\n      swap1\n      div\n      0xffffffffffffffffffffffffffffffffffffffff\n      and\n        /* \"contracts/Marketplace2/Marketplace.sol\":23094:23100  amount */\n      dup6\n        /* \"contracts/Marketplace2/Marketplace.sol\":23027:23101  mainToken.transferFrom(msg.sender, idToMarketItem[itemId].seller , amount) */\n      mload(0x40)\n      dup5\n      0xffffffff\n      and\n      0xe0\n      shl\n      dup2\n      mstore\n      0x04\n      add\n      tag_309\n      swap4\n      swap3\n      swap2\n      swap1\n      tag_131\n      jump\t// in\n    tag_309:\n      0x20\n      mload(0x40)\n      dup1\n      dup4\n      sub\n      dup2\n      0x00\n      dup8\n      gas\n      call\n      iszero\n      dup1\n      iszero\n      tag_311\n      jumpi\n      returndatasize\n      0x00\n      dup1\n      returndatacopy\n      revert(0x00, returndatasize)\n    tag_311:\n      pop\n      pop\n      pop\n      pop\n      mload(0x40)\n      returndatasize\n      not(0x1f)\n      0x1f\n      dup3\n      add\n      and\n      dup3\n      add\n      dup1\n      0x40\n      mstore\n      pop\n      dup2\n      add\n      swap1\n      tag_312\n      swap2\n      swap1\n      tag_313\n      jump\t// in\n    tag_312:\n      pop\n        /* \"contracts/Marketplace2/Marketplace.sol\":23111:23118  factory */\n      0x04\n      0x00\n      swap1\n      sload\n      swap1\n      0x0100\n      exp\n      swap1\n      div\n      0xffffffffffffffffffffffffffffffffffffffff\n      and\n        /* \"contracts/Marketplace2/Marketplace.sol\":23111:23137  factory.setOwnerIngameItem */\n      0xffffffffffffffffffffffffffffffffffffffff\n      and\n      0xc1e9518a\n        /* \"contracts/Marketplace2/Marketplace.sol\":23138:23148  msg.sender */\n      caller\n        /* \"contracts/Marketplace2/Marketplace.sol\":23157:23161  this */\n      address\n        /* \"contracts/Marketplace2/Marketplace.sol\":23164:23171  tokenId */\n      dup5\n        /* \"contracts/Marketplace2/Marketplace.sol\":23111:23172  factory.setOwnerIngameItem(msg.sender,address(this), tokenId) */\n      mload(0x40)\n      dup5\n      0xffffffff\n      and\n      0xe0\n      shl\n      dup2\n      mstore\n      0x04\n      add\n      tag_314\n      swap4\n      swap3\n      swap2\n      swap1\n      tag_131\n      jump\t// in\n    tag_314:\n      0x00\n      mload(0x40)\n      dup1\n      dup4\n      sub\n      dup2\n      0x00\n      dup8\n      dup1\n      extcodesize\n      iszero\n      dup1\n      iszero\n      tag_315\n      jumpi\n      0x00\n      dup1\n      revert\n    tag_315:\n      pop\n      gas\n      call\n      iszero\n      dup1\n      iszero\n      tag_317\n      jumpi\n      returndatasize\n      0x00\n      dup1\n      returndatacopy\n      revert(0x00, returndatasize)\n    tag_317:\n      pop\n      pop\n      pop\n      pop\n        /* \"contracts/Marketplace2/Marketplace.sol\":23182:23190  mainNFTs */\n      0x05\n      0x00\n      swap1\n      sload\n      swap1\n      0x0100\n      exp\n      swap1\n      div\n      0xffffffffffffffffffffffffffffffffffffffff\n      and\n        /* \"contracts/Marketplace2/Marketplace.sol\":23182:23203  mainNFTs.transferFrom */\n      0xffffffffffffffffffffffffffffffffffffffff\n      and\n      0x23b872dd\n        /* \"contracts/Marketplace2/Marketplace.sol\":23212:23216  this */\n      address\n        /* \"contracts/Marketplace2/Marketplace.sol\":23227:23237  msg.sender */\n      caller\n        /* \"contracts/Marketplace2/Marketplace.sol\":23240:23247  tokenId */\n      dup5\n        /* \"contracts/Marketplace2/Marketplace.sol\":23182:23248  mainNFTs.transferFrom(address(this), address(msg.sender), tokenId) */\n      mload(0x40)\n      dup5\n      0xffffffff\n      and\n      0xe0\n      shl\n      dup2\n      mstore\n      0x04\n      add\n      tag_318\n      swap4\n      swap3\n      swap2\n      swap1\n      tag_131\n      jump\t// in\n    tag_318:\n      0x00\n      mload(0x40)\n      dup1\n      dup4\n      sub\n      dup2\n      0x00\n      dup8\n      dup1\n      extcodesize\n      iszero\n      dup1\n      iszero\n      tag_319\n      jumpi\n      0x00\n      dup1\n      revert\n    tag_319:\n      pop\n      gas\n      call\n      iszero\n      dup1\n      iszero\n      tag_321\n      jumpi\n      returndatasize\n      0x00\n      dup1\n      returndatacopy\n      revert(0x00, returndatasize)\n    tag_321:\n      pop\n      pop\n      pop\n      pop\n        /* \"contracts/Marketplace2/Marketplace.sol\":22937:23255  function _safeBuyItem(uint256 itemId,uint256 amount, uint256 tokenId ) private { ... */\n      pop\n      pop\n      pop\n      jump\t// out\n    tag_182:\n      mload(0x40)\n      dup1\n      0xc0\n      add\n      0x40\n      mstore\n      dup1\n      0x00\n      dup2\n      mstore\n      0x20\n      add\n      0x00\n      dup2\n      mstore\n      0x20\n      add\n      and(0xffffffffffffffffffffffffffffffffffffffff, 0x00)\n      dup2\n      mstore\n      0x20\n      add\n      and(0xffffffffffffffffffffffffffffffffffffffff, 0x00)\n      dup2\n      mstore\n      0x20\n      add\n      0x00\n      dup2\n      mstore\n      0x20\n      add\n      0x00\n      0x01\n      dup2\n      gt\n      iszero\n      tag_322\n      jumpi\n      tag_323\n      tag_111\n      jump\t// in\n    tag_323:\n    tag_322:\n      dup2\n      mstore\n      pop\n      swap1\n      jump\t// out\n        /* \"#utility.yul\":7:82   */\n    tag_324:\n        /* \"#utility.yul\":40:46   */\n      0x00\n        /* \"#utility.yul\":73:75   */\n      0x40\n        /* \"#utility.yul\":67:76   */\n      mload\n        /* \"#utility.yul\":57:76   */\n      swap1\n      pop\n        /* \"#utility.yul\":7:82   */\n      swap1\n      jump\t// out\n        /* \"#utility.yul\":88:205   */\n    tag_325:\n        /* \"#utility.yul\":197:198   */\n      0x00\n        /* \"#utility.yul\":194:195   */\n      dup1\n        /* \"#utility.yul\":187:199   */\n      revert\n        /* \"#utility.yul\":211:328   */\n    tag_326:\n        /* \"#utility.yul\":320:321   */\n      0x00\n        /* \"#utility.yul\":317:318   */\n      dup1\n        /* \"#utility.yul\":310:322   */\n      revert\n        /* \"#utility.yul\":334:411   */\n    tag_327:\n        /* \"#utility.yul\":371:378   */\n      0x00\n        /* \"#utility.yul\":400:405   */\n      dup2\n        /* \"#utility.yul\":389:405   */\n      swap1\n      pop\n        /* \"#utility.yul\":334:411   */\n      swap2\n      swap1\n      pop\n      jump\t// out\n        /* \"#utility.yul\":417:539   */\n    tag_328:\n        /* \"#utility.yul\":490:514   */\n      tag_411\n        /* \"#utility.yul\":508:513   */\n      dup2\n        /* \"#utility.yul\":490:514   */\n      tag_327\n      jump\t// in\n    tag_411:\n        /* \"#utility.yul\":483:488   */\n      dup2\n        /* \"#utility.yul\":480:515   */\n      eq\n        /* \"#utility.yul\":470:533   */\n      tag_412\n      jumpi\n        /* \"#utility.yul\":529:530   */\n      0x00\n        /* \"#utility.yul\":526:527   */\n      dup1\n        /* \"#utility.yul\":519:531   */\n      revert\n        /* \"#utility.yul\":470:533   */\n    tag_412:\n        /* \"#utility.yul\":417:539   */\n      pop\n      jump\t// out\n        /* \"#utility.yul\":545:684   */\n    tag_329:\n        /* \"#utility.yul\":591:596   */\n      0x00\n        /* \"#utility.yul\":629:635   */\n      dup2\n        /* \"#utility.yul\":616:636   */\n      calldataload\n        /* \"#utility.yul\":607:636   */\n      swap1\n      pop\n        /* \"#utility.yul\":645:678   */\n      tag_414\n        /* \"#utility.yul\":672:677   */\n      dup2\n        /* \"#utility.yul\":645:678   */\n      tag_328\n      jump\t// in\n    tag_414:\n        /* \"#utility.yul\":545:684   */\n      swap3\n      swap2\n      pop\n      pop\n      jump\t// out\n        /* \"#utility.yul\":690:1019   */\n    tag_30:\n        /* \"#utility.yul\":749:755   */\n      0x00\n        /* \"#utility.yul\":798:800   */\n      0x20\n        /* \"#utility.yul\":786:795   */\n      dup3\n        /* \"#utility.yul\":777:784   */\n      dup5\n        /* \"#utility.yul\":773:796   */\n      sub\n        /* \"#utility.yul\":769:801   */\n      slt\n        /* \"#utility.yul\":766:885   */\n      iszero\n      tag_416\n      jumpi\n        /* \"#utility.yul\":804:883   */\n      tag_417\n      tag_325\n      jump\t// in\n    tag_417:\n        /* \"#utility.yul\":766:885   */\n    tag_416:\n        /* \"#utility.yul\":924:925   */\n      0x00\n        /* \"#utility.yul\":949:1002   */\n      tag_418\n        /* \"#utility.yul\":994:1001   */\n      dup5\n        /* \"#utility.yul\":985:991   */\n      dup3\n        /* \"#utility.yul\":974:983   */\n      dup6\n        /* \"#utility.yul\":970:992   */\n      add\n        /* \"#utility.yul\":949:1002   */\n      tag_329\n      jump\t// in\n    tag_418:\n        /* \"#utility.yul\":939:1002   */\n      swap2\n      pop\n        /* \"#utility.yul\":895:1012   */\n      pop\n        /* \"#utility.yul\":690:1019   */\n      swap3\n      swap2\n      pop\n      pop\n      jump\t// out\n        /* \"#utility.yul\":1025:1151   */\n    tag_330:\n        /* \"#utility.yul\":1062:1069   */\n      0x00\n        /* \"#utility.yul\":1102:1144   */\n      0xffffffffffffffffffffffffffffffffffffffff\n        /* \"#utility.yul\":1095:1100   */\n      dup3\n        /* \"#utility.yul\":1091:1145   */\n      and\n        /* \"#utility.yul\":1080:1145   */\n      swap1\n      pop\n        /* \"#utility.yul\":1025:1151   */\n      swap2\n      swap1\n      pop\n      jump\t// out\n        /* \"#utility.yul\":1157:1253   */\n    tag_331:\n        /* \"#utility.yul\":1194:1201   */\n      0x00\n        /* \"#utility.yul\":1223:1247   */\n      tag_421\n        /* \"#utility.yul\":1241:1246   */\n      dup3\n        /* \"#utility.yul\":1223:1247   */\n      tag_330\n      jump\t// in\n    tag_421:\n        /* \"#utility.yul\":1212:1247   */\n      swap1\n      pop\n        /* \"#utility.yul\":1157:1253   */\n      swap2\n      swap1\n      pop\n      jump\t// out\n        /* \"#utility.yul\":1259:1381   */\n    tag_332:\n        /* \"#utility.yul\":1332:1356   */\n      tag_423\n        /* \"#utility.yul\":1350:1355   */\n      dup2\n        /* \"#utility.yul\":1332:1356   */\n      tag_331\n      jump\t// in\n    tag_423:\n        /* \"#utility.yul\":1325:1330   */\n      dup2\n        /* \"#utility.yul\":1322:1357   */\n      eq\n        /* \"#utility.yul\":1312:1375   */\n      tag_424\n      jumpi\n        /* \"#utility.yul\":1371:1372   */\n      0x00\n        /* \"#utility.yul\":1368:1369   */\n      dup1\n        /* \"#utility.yul\":1361:1373   */\n      revert\n        /* \"#utility.yul\":1312:1375   */\n    tag_424:\n        /* \"#utility.yul\":1259:1381   */\n      pop\n      jump\t// out\n        /* \"#utility.yul\":1387:1526   */\n    tag_333:\n        /* \"#utility.yul\":1433:1438   */\n      0x00\n        /* \"#utility.yul\":1471:1477   */\n      dup2\n        /* \"#utility.yul\":1458:1478   */\n      calldataload\n        /* \"#utility.yul\":1449:1478   */\n      swap1\n      pop\n        /* \"#utility.yul\":1487:1520   */\n      tag_426\n        /* \"#utility.yul\":1514:1519   */\n      dup2\n        /* \"#utility.yul\":1487:1520   */\n      tag_332\n      jump\t// in\n    tag_426:\n        /* \"#utility.yul\":1387:1526   */\n      swap3\n      swap2\n      pop\n      pop\n      jump\t// out\n        /* \"#utility.yul\":1532:1861   */\n    tag_34:\n        /* \"#utility.yul\":1591:1597   */\n      0x00\n        /* \"#utility.yul\":1640:1642   */\n      0x20\n        /* \"#utility.yul\":1628:1637   */\n      dup3\n        /* \"#utility.yul\":1619:1626   */\n      dup5\n        /* \"#utility.yul\":1615:1638   */\n      sub\n        /* \"#utility.yul\":1611:1643   */\n      slt\n        /* \"#utility.yul\":1608:1727   */\n      iszero\n      tag_428\n      jumpi\n        /* \"#utility.yul\":1646:1725   */\n      tag_429\n      tag_325\n      jump\t// in\n    tag_429:\n        /* \"#utility.yul\":1608:1727   */\n    tag_428:\n        /* \"#utility.yul\":1766:1767   */\n      0x00\n        /* \"#utility.yul\":1791:1844   */\n      tag_430\n        /* \"#utility.yul\":1836:1843   */\n      dup5\n        /* \"#utility.yul\":1827:1833   */\n      dup3\n        /* \"#utility.yul\":1816:1825   */\n      dup6\n        /* \"#utility.yul\":1812:1834   */\n      add\n        /* \"#utility.yul\":1791:1844   */\n      tag_333\n      jump\t// in\n    tag_430:\n        /* \"#utility.yul\":1781:1844   */\n      swap2\n      pop\n        /* \"#utility.yul\":1737:1854   */\n      pop\n        /* \"#utility.yul\":1532:1861   */\n      swap3\n      swap2\n      pop\n      pop\n      jump\t// out\n        /* \"#utility.yul\":1867:2016   */\n    tag_334:\n        /* \"#utility.yul\":1903:1910   */\n      0x00\n        /* \"#utility.yul\":1943:2009   */\n      0xffffffff00000000000000000000000000000000000000000000000000000000\n        /* \"#utility.yul\":1936:1941   */\n      dup3\n        /* \"#utility.yul\":1932:2010   */\n      and\n        /* \"#utility.yul\":1921:2010   */\n      swap1\n      pop\n        /* \"#utility.yul\":1867:2016   */\n      swap2\n      swap1\n      pop\n      jump\t// out\n        /* \"#utility.yul\":2022:2137   */\n    tag_335:\n        /* \"#utility.yul\":2107:2130   */\n      tag_433\n        /* \"#utility.yul\":2124:2129   */\n      dup2\n        /* \"#utility.yul\":2107:2130   */\n      tag_334\n      jump\t// in\n    tag_433:\n        /* \"#utility.yul\":2102:2105   */\n      dup3\n        /* \"#utility.yul\":2095:2131   */\n      mstore\n        /* \"#utility.yul\":2022:2137   */\n      pop\n      pop\n      jump\t// out\n        /* \"#utility.yul\":2143:2361   */\n    tag_42:\n        /* \"#utility.yul\":2234:2238   */\n      0x00\n        /* \"#utility.yul\":2272:2274   */\n      0x20\n        /* \"#utility.yul\":2261:2270   */\n      dup3\n        /* \"#utility.yul\":2257:2275   */\n      add\n        /* \"#utility.yul\":2249:2275   */\n      swap1\n      pop\n        /* \"#utility.yul\":2285:2354   */\n      tag_435\n        /* \"#utility.yul\":2351:2352   */\n      0x00\n        /* \"#utility.yul\":2340:2349   */\n      dup4\n        /* \"#utility.yul\":2336:2353   */\n      add\n        /* \"#utility.yul\":2327:2333   */\n      dup5\n        /* \"#utility.yul\":2285:2354   */\n      tag_335\n      jump\t// in\n    tag_435:\n        /* \"#utility.yul\":2143:2361   */\n      swap3\n      swap2\n      pop\n      pop\n      jump\t// out\n        /* \"#utility.yul\":2367:2427   */\n    tag_336:\n        /* \"#utility.yul\":2395:2398   */\n      0x00\n        /* \"#utility.yul\":2416:2421   */\n      dup2\n        /* \"#utility.yul\":2409:2421   */\n      swap1\n      pop\n        /* \"#utility.yul\":2367:2427   */\n      swap2\n      swap1\n      pop\n      jump\t// out\n        /* \"#utility.yul\":2433:2575   */\n    tag_337:\n        /* \"#utility.yul\":2483:2492   */\n      0x00\n        /* \"#utility.yul\":2516:2569   */\n      tag_438\n        /* \"#utility.yul\":2534:2568   */\n      tag_439\n        /* \"#utility.yul\":2543:2567   */\n      tag_440\n        /* \"#utility.yul\":2561:2566   */\n      dup5\n        /* \"#utility.yul\":2543:2567   */\n      tag_330\n      jump\t// in\n    tag_440:\n        /* \"#utility.yul\":2534:2568   */\n      tag_336\n      jump\t// in\n    tag_439:\n        /* \"#utility.yul\":2516:2569   */\n      tag_330\n      jump\t// in\n    tag_438:\n        /* \"#utility.yul\":2503:2569   */\n      swap1\n      pop\n        /* \"#utility.yul\":2433:2575   */\n      swap2\n      swap1\n      pop\n      jump\t// out\n        /* \"#utility.yul\":2581:2707   */\n    tag_338:\n        /* \"#utility.yul\":2631:2640   */\n      0x00\n        /* \"#utility.yul\":2664:2701   */\n      tag_442\n        /* \"#utility.yul\":2695:2700   */\n      dup3\n        /* \"#utility.yul\":2664:2701   */\n      tag_337\n      jump\t// in\n    tag_442:\n        /* \"#utility.yul\":2651:2701   */\n      swap1\n      pop\n        /* \"#utility.yul\":2581:2707   */\n      swap2\n      swap1\n      pop\n      jump\t// out\n        /* \"#utility.yul\":2713:2853   */\n    tag_339:\n        /* \"#utility.yul\":2777:2786   */\n      0x00\n        /* \"#utility.yul\":2810:2847   */\n      tag_444\n        /* \"#utility.yul\":2841:2846   */\n      dup3\n        /* \"#utility.yul\":2810:2847   */\n      tag_338\n      jump\t// in\n    tag_444:\n        /* \"#utility.yul\":2797:2847   */\n      swap1\n      pop\n        /* \"#utility.yul\":2713:2853   */\n      swap2\n      swap1\n      pop\n      jump\t// out\n        /* \"#utility.yul\":2859:3018   */\n    tag_340:\n        /* \"#utility.yul\":2960:3011   */\n      tag_446\n        /* \"#utility.yul\":3005:3010   */\n      dup2\n        /* \"#utility.yul\":2960:3011   */\n      tag_339\n      jump\t// in\n    tag_446:\n        /* \"#utility.yul\":2955:2958   */\n      dup3\n        /* \"#utility.yul\":2948:3012   */\n      mstore\n        /* \"#utility.yul\":2859:3018   */\n      pop\n      pop\n      jump\t// out\n        /* \"#utility.yul\":3024:3274   */\n    tag_49:\n        /* \"#utility.yul\":3131:3135   */\n      0x00\n        /* \"#utility.yul\":3169:3171   */\n      0x20\n        /* \"#utility.yul\":3158:3167   */\n      dup3\n        /* \"#utility.yul\":3154:3172   */\n      add\n        /* \"#utility.yul\":3146:3172   */\n      swap1\n      pop\n        /* \"#utility.yul\":3182:3267   */\n      tag_448\n        /* \"#utility.yul\":3264:3265   */\n      0x00\n        /* \"#utility.yul\":3253:3262   */\n      dup4\n        /* \"#utility.yul\":3249:3266   */\n      add\n        /* \"#utility.yul\":3240:3246   */\n      dup5\n        /* \"#utility.yul\":3182:3267   */\n      tag_340\n      jump\t// in\n    tag_448:\n        /* \"#utility.yul\":3024:3274   */\n      swap3\n      swap2\n      pop\n      pop\n      jump\t// out\n        /* \"#utility.yul\":3280:3421   */\n    tag_341:\n        /* \"#utility.yul\":3374:3380   */\n      0x00\n        /* \"#utility.yul\":3408:3413   */\n      dup2\n        /* \"#utility.yul\":3402:3414   */\n      mload\n        /* \"#utility.yul\":3392:3414   */\n      swap1\n      pop\n        /* \"#utility.yul\":3280:3421   */\n      swap2\n      swap1\n      pop\n      jump\t// out\n        /* \"#utility.yul\":3427:3638   */\n    tag_342:\n        /* \"#utility.yul\":3553:3564   */\n      0x00\n        /* \"#utility.yul\":3587:3593   */\n      dup3\n        /* \"#utility.yul\":3582:3585   */\n      dup3\n        /* \"#utility.yul\":3575:3594   */\n      mstore\n        /* \"#utility.yul\":3627:3631   */\n      0x20\n        /* \"#utility.yul\":3622:3625   */\n      dup3\n        /* \"#utility.yul\":3618:3632   */\n      add\n        /* \"#utility.yul\":3603:3632   */\n      swap1\n      pop\n        /* \"#utility.yul\":3427:3638   */\n      swap3\n      swap2\n      pop\n      pop\n      jump\t// out\n        /* \"#utility.yul\":3644:3803   */\n    tag_343:\n        /* \"#utility.yul\":3738:3742   */\n      0x00\n        /* \"#utility.yul\":3761:3764   */\n      dup2\n        /* \"#utility.yul\":3753:3764   */\n      swap1\n      pop\n        /* \"#utility.yul\":3791:3795   */\n      0x20\n        /* \"#utility.yul\":3786:3789   */\n      dup3\n        /* \"#utility.yul\":3782:3796   */\n      add\n        /* \"#utility.yul\":3774:3796   */\n      swap1\n      pop\n        /* \"#utility.yul\":3644:3803   */\n      swap2\n      swap1\n      pop\n      jump\t// out\n        /* \"#utility.yul\":3809:3917   */\n    tag_344:\n        /* \"#utility.yul\":3886:3910   */\n      tag_453\n        /* \"#utility.yul\":3904:3909   */\n      dup2\n        /* \"#utility.yul\":3886:3910   */\n      tag_327\n      jump\t// in\n    tag_453:\n        /* \"#utility.yul\":3881:3884   */\n      dup3\n        /* \"#utility.yul\":3874:3911   */\n      mstore\n        /* \"#utility.yul\":3809:3917   */\n      pop\n      pop\n      jump\t// out\n        /* \"#utility.yul\":3923:4031   */\n    tag_345:\n        /* \"#utility.yul\":4000:4024   */\n      tag_455\n        /* \"#utility.yul\":4018:4023   */\n      dup2\n        /* \"#utility.yul\":4000:4024   */\n      tag_331\n      jump\t// in\n    tag_455:\n        /* \"#utility.yul\":3995:3998   */\n      dup3\n        /* \"#utility.yul\":3988:4025   */\n      mstore\n        /* \"#utility.yul\":3923:4031   */\n      pop\n      pop\n      jump\t// out\n        /* \"#utility.yul\":4037:4217   */\n    tag_111:\n        /* \"#utility.yul\":4085:4162   */\n      0x4e487b7100000000000000000000000000000000000000000000000000000000\n        /* \"#utility.yul\":4082:4083   */\n      0x00\n        /* \"#utility.yul\":4075:4163   */\n      mstore\n        /* \"#utility.yul\":4182:4186   */\n      0x21\n        /* \"#utility.yul\":4179:4180   */\n      0x04\n        /* \"#utility.yul\":4172:4187   */\n      mstore\n        /* \"#utility.yul\":4206:4210   */\n      0x24\n        /* \"#utility.yul\":4203:4204   */\n      0x00\n        /* \"#utility.yul\":4196:4211   */\n      revert\n        /* \"#utility.yul\":4223:4342   */\n    tag_346:\n        /* \"#utility.yul\":4310:4311   */\n      0x02\n        /* \"#utility.yul\":4303:4308   */\n      dup2\n        /* \"#utility.yul\":4300:4312   */\n      lt\n        /* \"#utility.yul\":4290:4336   */\n      tag_458\n      jumpi\n        /* \"#utility.yul\":4316:4334   */\n      tag_459\n      tag_111\n      jump\t// in\n    tag_459:\n        /* \"#utility.yul\":4290:4336   */\n    tag_458:\n        /* \"#utility.yul\":4223:4342   */\n      pop\n      jump\t// out\n        /* \"#utility.yul\":4348:4487   */\n    tag_347:\n        /* \"#utility.yul\":4399:4406   */\n      0x00\n        /* \"#utility.yul\":4428:4433   */\n      dup2\n        /* \"#utility.yul\":4417:4433   */\n      swap1\n      pop\n        /* \"#utility.yul\":4434:4481   */\n      tag_461\n        /* \"#utility.yul\":4475:4480   */\n      dup3\n        /* \"#utility.yul\":4434:4481   */\n      tag_346\n      jump\t// in\n    tag_461:\n        /* \"#utility.yul\":4348:4487   */\n      swap2\n      swap1\n      pop\n      jump\t// out\n        /* \"#utility.yul\":4493:4632   */\n    tag_348:\n        /* \"#utility.yul\":4555:4564   */\n      0x00\n        /* \"#utility.yul\":4588:4626   */\n      tag_463\n        /* \"#utility.yul\":4620:4625   */\n      dup3\n        /* \"#utility.yul\":4588:4626   */\n      tag_347\n      jump\t// in\n    tag_463:\n        /* \"#utility.yul\":4575:4626   */\n      swap1\n      pop\n        /* \"#utility.yul\":4493:4632   */\n      swap2\n      swap1\n      pop\n      jump\t// out\n        /* \"#utility.yul\":4638:4783   */\n    tag_349:\n        /* \"#utility.yul\":4727:4776   */\n      tag_465\n        /* \"#utility.yul\":4770:4775   */\n      dup2\n        /* \"#utility.yul\":4727:4776   */\n      tag_348\n      jump\t// in\n    tag_465:\n        /* \"#utility.yul\":4722:4725   */\n      dup3\n        /* \"#utility.yul\":4715:4777   */\n      mstore\n        /* \"#utility.yul\":4638:4783   */\n      pop\n      pop\n      jump\t// out\n        /* \"#utility.yul\":4873:6093   */\n    tag_350:\n        /* \"#utility.yul\":5014:5018   */\n      0xc0\n        /* \"#utility.yul\":5009:5012   */\n      dup3\n        /* \"#utility.yul\":5005:5019   */\n      add\n        /* \"#utility.yul\":5103:5107   */\n      0x00\n        /* \"#utility.yul\":5096:5101   */\n      dup3\n        /* \"#utility.yul\":5092:5108   */\n      add\n        /* \"#utility.yul\":5086:5109   */\n      mload\n        /* \"#utility.yul\":5122:5185   */\n      tag_467\n        /* \"#utility.yul\":5179:5183   */\n      0x00\n        /* \"#utility.yul\":5174:5177   */\n      dup6\n        /* \"#utility.yul\":5170:5184   */\n      add\n        /* \"#utility.yul\":5156:5168   */\n      dup3\n        /* \"#utility.yul\":5122:5185   */\n      tag_344\n      jump\t// in\n    tag_467:\n        /* \"#utility.yul\":5029:5195   */\n      pop\n        /* \"#utility.yul\":5280:5284   */\n      0x20\n        /* \"#utility.yul\":5273:5278   */\n      dup3\n        /* \"#utility.yul\":5269:5285   */\n      add\n        /* \"#utility.yul\":5263:5286   */\n      mload\n        /* \"#utility.yul\":5299:5362   */\n      tag_468\n        /* \"#utility.yul\":5356:5360   */\n      0x20\n        /* \"#utility.yul\":5351:5354   */\n      dup6\n        /* \"#utility.yul\":5347:5361   */\n      add\n        /* \"#utility.yul\":5333:5345   */\n      dup3\n        /* \"#utility.yul\":5299:5362   */\n      tag_344\n      jump\t// in\n    tag_468:\n        /* \"#utility.yul\":5205:5372   */\n      pop\n        /* \"#utility.yul\":5456:5460   */\n      0x40\n        /* \"#utility.yul\":5449:5454   */\n      dup3\n        /* \"#utility.yul\":5445:5461   */\n      add\n        /* \"#utility.yul\":5439:5462   */\n      mload\n        /* \"#utility.yul\":5475:5538   */\n      tag_469\n        /* \"#utility.yul\":5532:5536   */\n      0x40\n        /* \"#utility.yul\":5527:5530   */\n      dup6\n        /* \"#utility.yul\":5523:5537   */\n      add\n        /* \"#utility.yul\":5509:5521   */\n      dup3\n        /* \"#utility.yul\":5475:5538   */\n      tag_345\n      jump\t// in\n    tag_469:\n        /* \"#utility.yul\":5382:5548   */\n      pop\n        /* \"#utility.yul\":5631:5635   */\n      0x60\n        /* \"#utility.yul\":5624:5629   */\n      dup3\n        /* \"#utility.yul\":5620:5636   */\n      add\n        /* \"#utility.yul\":5614:5637   */\n      mload\n        /* \"#utility.yul\":5650:5713   */\n      tag_470\n        /* \"#utility.yul\":5707:5711   */\n      0x60\n        /* \"#utility.yul\":5702:5705   */\n      dup6\n        /* \"#utility.yul\":5698:5712   */\n      add\n        /* \"#utility.yul\":5684:5696   */\n      dup3\n        /* \"#utility.yul\":5650:5713   */\n      tag_345\n      jump\t// in\n    tag_470:\n        /* \"#utility.yul\":5558:5723   */\n      pop\n        /* \"#utility.yul\":5806:5810   */\n      0x80\n        /* \"#utility.yul\":5799:5804   */\n      dup3\n        /* \"#utility.yul\":5795:5811   */\n      add\n        /* \"#utility.yul\":5789:5812   */\n      mload\n        /* \"#utility.yul\":5825:5888   */\n      tag_471\n        /* \"#utility.yul\":5882:5886   */\n      0x80\n        /* \"#utility.yul\":5877:5880   */\n      dup6\n        /* \"#utility.yul\":5873:5887   */\n      add\n        /* \"#utility.yul\":5859:5871   */\n      dup3\n        /* \"#utility.yul\":5825:5888   */\n      tag_344\n      jump\t// in\n    tag_471:\n        /* \"#utility.yul\":5733:5898   */\n      pop\n        /* \"#utility.yul\":5982:5986   */\n      0xa0\n        /* \"#utility.yul\":5975:5980   */\n      dup3\n        /* \"#utility.yul\":5971:5987   */\n      add\n        /* \"#utility.yul\":5965:5988   */\n      mload\n        /* \"#utility.yul\":6001:6076   */\n      tag_472\n        /* \"#utility.yul\":6070:6074   */\n      0xa0\n        /* \"#utility.yul\":6065:6068   */\n      dup6\n        /* \"#utility.yul\":6061:6075   */\n      add\n        /* \"#utility.yul\":6047:6059   */\n      dup3\n        /* \"#utility.yul\":6001:6076   */\n      tag_349\n      jump\t// in\n    tag_472:\n        /* \"#utility.yul\":5908:6086   */\n      pop\n        /* \"#utility.yul\":4983:6093   */\n      pop\n        /* \"#utility.yul\":4873:6093   */\n      pop\n      pop\n      jump\t// out\n        /* \"#utility.yul\":6099:6386   */\n    tag_351:\n        /* \"#utility.yul\":6222:6232   */\n      0x00\n        /* \"#utility.yul\":6243:6343   */\n      tag_474\n        /* \"#utility.yul\":6339:6342   */\n      dup4\n        /* \"#utility.yul\":6331:6337   */\n      dup4\n        /* \"#utility.yul\":6243:6343   */\n      tag_350\n      jump\t// in\n    tag_474:\n        /* \"#utility.yul\":6375:6379   */\n      0xc0\n        /* \"#utility.yul\":6370:6373   */\n      dup4\n        /* \"#utility.yul\":6366:6380   */\n      add\n        /* \"#utility.yul\":6352:6380   */\n      swap1\n      pop\n        /* \"#utility.yul\":6099:6386   */\n      swap3\n      swap2\n      pop\n      pop\n      jump\t// out\n        /* \"#utility.yul\":6392:6532   */\n    tag_352:\n        /* \"#utility.yul\":6489:6493   */\n      0x00\n        /* \"#utility.yul\":6521:6525   */\n      0x20\n        /* \"#utility.yul\":6516:6519   */\n      dup3\n        /* \"#utility.yul\":6512:6526   */\n      add\n        /* \"#utility.yul\":6504:6526   */\n      swap1\n      pop\n        /* \"#utility.yul\":6392:6532   */\n      swap2\n      swap1\n      pop\n      jump\t// out\n        /* \"#utility.yul\":6626:7574   */\n    tag_353:\n        /* \"#utility.yul\":6799:6802   */\n      0x00\n        /* \"#utility.yul\":6828:6909   */\n      tag_477\n        /* \"#utility.yul\":6903:6908   */\n      dup3\n        /* \"#utility.yul\":6828:6909   */\n      tag_341\n      jump\t// in\n    tag_477:\n        /* \"#utility.yul\":6925:7038   */\n      tag_478\n        /* \"#utility.yul\":7031:7037   */\n      dup2\n        /* \"#utility.yul\":7026:7029   */\n      dup6\n        /* \"#utility.yul\":6925:7038   */\n      tag_342\n      jump\t// in\n    tag_478:\n        /* \"#utility.yul\":6918:7038   */\n      swap4\n      pop\n        /* \"#utility.yul\":7062:7145   */\n      tag_479\n        /* \"#utility.yul\":7139:7144   */\n      dup4\n        /* \"#utility.yul\":7062:7145   */\n      tag_343\n      jump\t// in\n    tag_479:\n        /* \"#utility.yul\":7168:7175   */\n      dup1\n        /* \"#utility.yul\":7199:7200   */\n      0x00\n        /* \"#utility.yul\":7184:7549   */\n    tag_480:\n        /* \"#utility.yul\":7209:7215   */\n      dup4\n        /* \"#utility.yul\":7206:7207   */\n      dup2\n        /* \"#utility.yul\":7203:7216   */\n      lt\n        /* \"#utility.yul\":7184:7549   */\n      iszero\n      tag_482\n      jumpi\n        /* \"#utility.yul\":7285:7291   */\n      dup2\n        /* \"#utility.yul\":7279:7292   */\n      mload\n        /* \"#utility.yul\":7312:7429   */\n      tag_483\n        /* \"#utility.yul\":7425:7428   */\n      dup9\n        /* \"#utility.yul\":7410:7423   */\n      dup3\n        /* \"#utility.yul\":7312:7429   */\n      tag_351\n      jump\t// in\n    tag_483:\n        /* \"#utility.yul\":7305:7429   */\n      swap8\n      pop\n        /* \"#utility.yul\":7452:7539   */\n      tag_484\n        /* \"#utility.yul\":7532:7538   */\n      dup4\n        /* \"#utility.yul\":7452:7539   */\n      tag_352\n      jump\t// in\n    tag_484:\n        /* \"#utility.yul\":7442:7539   */\n      swap3\n      pop\n        /* \"#utility.yul\":7244:7549   */\n      pop\n        /* \"#utility.yul\":7231:7232   */\n      0x01\n        /* \"#utility.yul\":7228:7229   */\n      dup2\n        /* \"#utility.yul\":7224:7233   */\n      add\n        /* \"#utility.yul\":7219:7233   */\n      swap1\n      pop\n        /* \"#utility.yul\":7184:7549   */\n      jump(tag_480)\n    tag_482:\n        /* \"#utility.yul\":7188:7202   */\n      pop\n        /* \"#utility.yul\":7565:7568   */\n      dup6\n        /* \"#utility.yul\":7558:7568   */\n      swap4\n      pop\n        /* \"#utility.yul\":6804:7574   */\n      pop\n      pop\n      pop\n        /* \"#utility.yul\":6626:7574   */\n      swap3\n      swap2\n      pop\n      pop\n      jump\t// out\n        /* \"#utility.yul\":7580:8061   */\n    tag_53:\n        /* \"#utility.yul\":7777:7781   */\n      0x00\n        /* \"#utility.yul\":7815:7817   */\n      0x20\n        /* \"#utility.yul\":7804:7813   */\n      dup3\n        /* \"#utility.yul\":7800:7818   */\n      add\n        /* \"#utility.yul\":7792:7818   */\n      swap1\n      pop\n        /* \"#utility.yul\":7864:7873   */\n      dup2\n        /* \"#utility.yul\":7858:7862   */\n      dup2\n        /* \"#utility.yul\":7854:7874   */\n      sub\n        /* \"#utility.yul\":7850:7851   */\n      0x00\n        /* \"#utility.yul\":7839:7848   */\n      dup4\n        /* \"#utility.yul\":7835:7852   */\n      add\n        /* \"#utility.yul\":7828:7875   */\n      mstore\n        /* \"#utility.yul\":7892:8054   */\n      tag_486\n        /* \"#utility.yul\":8049:8053   */\n      dup2\n        /* \"#utility.yul\":8040:8046   */\n      dup5\n        /* \"#utility.yul\":7892:8054   */\n      tag_353\n      jump\t// in\n    tag_486:\n        /* \"#utility.yul\":7884:8054   */\n      swap1\n      pop\n        /* \"#utility.yul\":7580:8061   */\n      swap3\n      swap2\n      pop\n      pop\n      jump\t// out\n        /* \"#utility.yul\":8067:8541   */\n    tag_56:\n        /* \"#utility.yul\":8135:8141   */\n      0x00\n        /* \"#utility.yul\":8143:8149   */\n      dup1\n        /* \"#utility.yul\":8192:8194   */\n      0x40\n        /* \"#utility.yul\":8180:8189   */\n      dup4\n        /* \"#utility.yul\":8171:8178   */\n      dup6\n        /* \"#utility.yul\":8167:8190   */\n      sub\n        /* \"#utility.yul\":8163:8195   */\n      slt\n        /* \"#utility.yul\":8160:8279   */\n      iszero\n      tag_488\n      jumpi\n        /* \"#utility.yul\":8198:8277   */\n      tag_489\n      tag_325\n      jump\t// in\n    tag_489:\n        /* \"#utility.yul\":8160:8279   */\n    tag_488:\n        /* \"#utility.yul\":8318:8319   */\n      0x00\n        /* \"#utility.yul\":8343:8396   */\n      tag_490\n        /* \"#utility.yul\":8388:8395   */\n      dup6\n        /* \"#utility.yul\":8379:8385   */\n      dup3\n        /* \"#utility.yul\":8368:8377   */\n      dup7\n        /* \"#utility.yul\":8364:8386   */\n      add\n        /* \"#utility.yul\":8343:8396   */\n      tag_329\n      jump\t// in\n    tag_490:\n        /* \"#utility.yul\":8333:8396   */\n      swap3\n      pop\n        /* \"#utility.yul\":8289:8406   */\n      pop\n        /* \"#utility.yul\":8445:8447   */\n      0x20\n        /* \"#utility.yul\":8471:8524   */\n      tag_491\n        /* \"#utility.yul\":8516:8523   */\n      dup6\n        /* \"#utility.yul\":8507:8513   */\n      dup3\n        /* \"#utility.yul\":8496:8505   */\n      dup7\n        /* \"#utility.yul\":8492:8514   */\n      add\n        /* \"#utility.yul\":8471:8524   */\n      tag_329\n      jump\t// in\n    tag_491:\n        /* \"#utility.yul\":8461:8524   */\n      swap2\n      pop\n        /* \"#utility.yul\":8416:8534   */\n      pop\n        /* \"#utility.yul\":8067:8541   */\n      swap3\n      pop\n      swap3\n      swap1\n      pop\n      jump\t// out\n        /* \"#utility.yul\":8547:8633   */\n    tag_354:\n        /* \"#utility.yul\":8582:8589   */\n      0x00\n        /* \"#utility.yul\":8622:8626   */\n      0xff\n        /* \"#utility.yul\":8615:8620   */\n      dup3\n        /* \"#utility.yul\":8611:8627   */\n      and\n        /* \"#utility.yul\":8600:8627   */\n      swap1\n      pop\n        /* \"#utility.yul\":8547:8633   */\n      swap2\n      swap1\n      pop\n      jump\t// out\n        /* \"#utility.yul\":8639:8751   */\n    tag_355:\n        /* \"#utility.yul\":8722:8744   */\n      tag_494\n        /* \"#utility.yul\":8738:8743   */\n      dup2\n        /* \"#utility.yul\":8722:8744   */\n      tag_354\n      jump\t// in\n    tag_494:\n        /* \"#utility.yul\":8717:8720   */\n      dup3\n        /* \"#utility.yul\":8710:8745   */\n      mstore\n        /* \"#utility.yul\":8639:8751   */\n      pop\n      pop\n      jump\t// out\n        /* \"#utility.yul\":8757:8971   */\n    tag_66:\n        /* \"#utility.yul\":8846:8850   */\n      0x00\n        /* \"#utility.yul\":8884:8886   */\n      0x20\n        /* \"#utility.yul\":8873:8882   */\n      dup3\n        /* \"#utility.yul\":8869:8887   */\n      add\n        /* \"#utility.yul\":8861:8887   */\n      swap1\n      pop\n        /* \"#utility.yul\":8897:8964   */\n      tag_496\n        /* \"#utility.yul\":8961:8962   */\n      0x00\n        /* \"#utility.yul\":8950:8959   */\n      dup4\n        /* \"#utility.yul\":8946:8963   */\n      add\n        /* \"#utility.yul\":8937:8943   */\n      dup5\n        /* \"#utility.yul\":8897:8964   */\n      tag_355\n      jump\t// in\n    tag_496:\n        /* \"#utility.yul\":8757:8971   */\n      swap3\n      swap2\n      pop\n      pop\n      jump\t// out\n        /* \"#utility.yul\":8977:9095   */\n    tag_356:\n        /* \"#utility.yul\":9064:9088   */\n      tag_498\n        /* \"#utility.yul\":9082:9087   */\n      dup2\n        /* \"#utility.yul\":9064:9088   */\n      tag_331\n      jump\t// in\n    tag_498:\n        /* \"#utility.yul\":9059:9062   */\n      dup3\n        /* \"#utility.yul\":9052:9089   */\n      mstore\n        /* \"#utility.yul\":8977:9095   */\n      pop\n      pop\n      jump\t// out\n        /* \"#utility.yul\":9101:9323   */\n    tag_70:\n        /* \"#utility.yul\":9194:9198   */\n      0x00\n        /* \"#utility.yul\":9232:9234   */\n      0x20\n        /* \"#utility.yul\":9221:9230   */\n      dup3\n        /* \"#utility.yul\":9217:9235   */\n      add\n        /* \"#utility.yul\":9209:9235   */\n      swap1\n      pop\n        /* \"#utility.yul\":9245:9316   */\n      tag_500\n        /* \"#utility.yul\":9313:9314   */\n      0x00\n        /* \"#utility.yul\":9302:9311   */\n      dup4\n        /* \"#utility.yul\":9298:9315   */\n      add\n        /* \"#utility.yul\":9289:9295   */\n      dup5\n        /* \"#utility.yul\":9245:9316   */\n      tag_356\n      jump\t// in\n    tag_500:\n        /* \"#utility.yul\":9101:9323   */\n      swap3\n      swap2\n      pop\n      pop\n      jump\t// out\n        /* \"#utility.yul\":9329:9447   */\n    tag_357:\n        /* \"#utility.yul\":9416:9440   */\n      tag_502\n        /* \"#utility.yul\":9434:9439   */\n      dup2\n        /* \"#utility.yul\":9416:9440   */\n      tag_327\n      jump\t// in\n    tag_502:\n        /* \"#utility.yul\":9411:9414   */\n      dup3\n        /* \"#utility.yul\":9404:9441   */\n      mstore\n        /* \"#utility.yul\":9329:9447   */\n      pop\n      pop\n      jump\t// out\n        /* \"#utility.yul\":9453:9608   */\n    tag_358:\n        /* \"#utility.yul\":9552:9601   */\n      tag_504\n        /* \"#utility.yul\":9595:9600   */\n      dup2\n        /* \"#utility.yul\":9552:9601   */\n      tag_348\n      jump\t// in\n    tag_504:\n        /* \"#utility.yul\":9547:9550   */\n      dup3\n        /* \"#utility.yul\":9540:9602   */\n      mstore\n        /* \"#utility.yul\":9453:9608   */\n      pop\n      pop\n      jump\t// out\n        /* \"#utility.yul\":9614:10413   */\n    tag_84:\n        /* \"#utility.yul\":9859:9863   */\n      0x00\n        /* \"#utility.yul\":9897:9900   */\n      0xc0\n        /* \"#utility.yul\":9886:9895   */\n      dup3\n        /* \"#utility.yul\":9882:9901   */\n      add\n        /* \"#utility.yul\":9874:9901   */\n      swap1\n      pop\n        /* \"#utility.yul\":9911:9982   */\n      tag_506\n        /* \"#utility.yul\":9979:9980   */\n      0x00\n        /* \"#utility.yul\":9968:9977   */\n      dup4\n        /* \"#utility.yul\":9964:9981   */\n      add\n        /* \"#utility.yul\":9955:9961   */\n      dup10\n        /* \"#utility.yul\":9911:9982   */\n      tag_357\n      jump\t// in\n    tag_506:\n        /* \"#utility.yul\":9992:10064   */\n      tag_507\n        /* \"#utility.yul\":10060:10062   */\n      0x20\n        /* \"#utility.yul\":10049:10058   */\n      dup4\n        /* \"#utility.yul\":10045:10063   */\n      add\n        /* \"#utility.yul\":10036:10042   */\n      dup9\n        /* \"#utility.yul\":9992:10064   */\n      tag_357\n      jump\t// in\n    tag_507:\n        /* \"#utility.yul\":10074:10146   */\n      tag_508\n        /* \"#utility.yul\":10142:10144   */\n      0x40\n        /* \"#utility.yul\":10131:10140   */\n      dup4\n        /* \"#utility.yul\":10127:10145   */\n      add\n        /* \"#utility.yul\":10118:10124   */\n      dup8\n        /* \"#utility.yul\":10074:10146   */\n      tag_356\n      jump\t// in\n    tag_508:\n        /* \"#utility.yul\":10156:10228   */\n      tag_509\n        /* \"#utility.yul\":10224:10226   */\n      0x60\n        /* \"#utility.yul\":10213:10222   */\n      dup4\n        /* \"#utility.yul\":10209:10227   */\n      add\n        /* \"#utility.yul\":10200:10206   */\n      dup7\n        /* \"#utility.yul\":10156:10228   */\n      tag_356\n      jump\t// in\n    tag_509:\n        /* \"#utility.yul\":10238:10311   */\n      tag_510\n        /* \"#utility.yul\":10306:10309   */\n      0x80\n        /* \"#utility.yul\":10295:10304   */\n      dup4\n        /* \"#utility.yul\":10291:10310   */\n      add\n        /* \"#utility.yul\":10282:10288   */\n      dup6\n        /* \"#utility.yul\":10238:10311   */\n      tag_357\n      jump\t// in\n    tag_510:\n        /* \"#utility.yul\":10321:10406   */\n      tag_511\n        /* \"#utility.yul\":10401:10404   */\n      0xa0\n        /* \"#utility.yul\":10390:10399   */\n      dup4\n        /* \"#utility.yul\":10386:10405   */\n      add\n        /* \"#utility.yul\":10377:10383   */\n      dup5\n        /* \"#utility.yul\":10321:10406   */\n      tag_358\n      jump\t// in\n    tag_511:\n        /* \"#utility.yul\":9614:10413   */\n      swap8\n      swap7\n      pop\n      pop\n      pop\n      pop\n      pop\n      pop\n      pop\n      jump\t// out\n        /* \"#utility.yul\":10419:10561   */\n    tag_359:\n        /* \"#utility.yul\":10485:10494   */\n      0x00\n        /* \"#utility.yul\":10518:10555   */\n      tag_513\n        /* \"#utility.yul\":10549:10554   */\n      dup3\n        /* \"#utility.yul\":10518:10555   */\n      tag_338\n      jump\t// in\n    tag_513:\n        /* \"#utility.yul\":10505:10555   */\n      swap1\n      pop\n        /* \"#utility.yul\":10419:10561   */\n      swap2\n      swap1\n      pop\n      jump\t// out\n        /* \"#utility.yul\":10567:10730   */\n    tag_360:\n        /* \"#utility.yul\":10670:10723   */\n      tag_515\n        /* \"#utility.yul\":10717:10722   */\n      dup2\n        /* \"#utility.yul\":10670:10723   */\n      tag_359\n      jump\t// in\n    tag_515:\n        /* \"#utility.yul\":10665:10668   */\n      dup3\n        /* \"#utility.yul\":10658:10724   */\n      mstore\n        /* \"#utility.yul\":10567:10730   */\n      pop\n      pop\n      jump\t// out\n        /* \"#utility.yul\":10736:10990   */\n    tag_88:\n        /* \"#utility.yul\":10845:10849   */\n      0x00\n        /* \"#utility.yul\":10883:10885   */\n      0x20\n        /* \"#utility.yul\":10872:10881   */\n      dup3\n        /* \"#utility.yul\":10868:10886   */\n      add\n        /* \"#utility.yul\":10860:10886   */\n      swap1\n      pop\n        /* \"#utility.yul\":10896:10983   */\n      tag_517\n        /* \"#utility.yul\":10980:10981   */\n      0x00\n        /* \"#utility.yul\":10969:10978   */\n      dup4\n        /* \"#utility.yul\":10965:10982   */\n      add\n        /* \"#utility.yul\":10956:10962   */\n      dup5\n        /* \"#utility.yul\":10896:10983   */\n      tag_360\n      jump\t// in\n    tag_517:\n        /* \"#utility.yul\":10736:10990   */\n      swap3\n      swap2\n      pop\n      pop\n      jump\t// out\n        /* \"#utility.yul\":11080:12310   */\n    tag_361:\n        /* \"#utility.yul\":11231:11235   */\n      0xc0\n        /* \"#utility.yul\":11226:11229   */\n      dup3\n        /* \"#utility.yul\":11222:11236   */\n      add\n        /* \"#utility.yul\":11320:11324   */\n      0x00\n        /* \"#utility.yul\":11313:11318   */\n      dup3\n        /* \"#utility.yul\":11309:11325   */\n      add\n        /* \"#utility.yul\":11303:11326   */\n      mload\n        /* \"#utility.yul\":11339:11402   */\n      tag_519\n        /* \"#utility.yul\":11396:11400   */\n      0x00\n        /* \"#utility.yul\":11391:11394   */\n      dup6\n        /* \"#utility.yul\":11387:11401   */\n      add\n        /* \"#utility.yul\":11373:11385   */\n      dup3\n        /* \"#utility.yul\":11339:11402   */\n      tag_344\n      jump\t// in\n    tag_519:\n        /* \"#utility.yul\":11246:11412   */\n      pop\n        /* \"#utility.yul\":11497:11501   */\n      0x20\n        /* \"#utility.yul\":11490:11495   */\n      dup3\n        /* \"#utility.yul\":11486:11502   */\n      add\n        /* \"#utility.yul\":11480:11503   */\n      mload\n        /* \"#utility.yul\":11516:11579   */\n      tag_520\n        /* \"#utility.yul\":11573:11577   */\n      0x20\n        /* \"#utility.yul\":11568:11571   */\n      dup6\n        /* \"#utility.yul\":11564:11578   */\n      add\n        /* \"#utility.yul\":11550:11562   */\n      dup3\n        /* \"#utility.yul\":11516:11579   */\n      tag_344\n      jump\t// in\n    tag_520:\n        /* \"#utility.yul\":11422:11589   */\n      pop\n        /* \"#utility.yul\":11673:11677   */\n      0x40\n        /* \"#utility.yul\":11666:11671   */\n      dup3\n        /* \"#utility.yul\":11662:11678   */\n      add\n        /* \"#utility.yul\":11656:11679   */\n      mload\n        /* \"#utility.yul\":11692:11755   */\n      tag_521\n        /* \"#utility.yul\":11749:11753   */\n      0x40\n        /* \"#utility.yul\":11744:11747   */\n      dup6\n        /* \"#utility.yul\":11740:11754   */\n      add\n        /* \"#utility.yul\":11726:11738   */\n      dup3\n        /* \"#utility.yul\":11692:11755   */\n      tag_345\n      jump\t// in\n    tag_521:\n        /* \"#utility.yul\":11599:11765   */\n      pop\n        /* \"#utility.yul\":11848:11852   */\n      0x60\n        /* \"#utility.yul\":11841:11846   */\n      dup3\n        /* \"#utility.yul\":11837:11853   */\n      add\n        /* \"#utility.yul\":11831:11854   */\n      mload\n        /* \"#utility.yul\":11867:11930   */\n      tag_522\n        /* \"#utility.yul\":11924:11928   */\n      0x60\n        /* \"#utility.yul\":11919:11922   */\n      dup6\n        /* \"#utility.yul\":11915:11929   */\n      add\n        /* \"#utility.yul\":11901:11913   */\n      dup3\n        /* \"#utility.yul\":11867:11930   */\n      tag_345\n      jump\t// in\n    tag_522:\n        /* \"#utility.yul\":11775:11940   */\n      pop\n        /* \"#utility.yul\":12023:12027   */\n      0x80\n        /* \"#utility.yul\":12016:12021   */\n      dup3\n        /* \"#utility.yul\":12012:12028   */\n      add\n        /* \"#utility.yul\":12006:12029   */\n      mload\n        /* \"#utility.yul\":12042:12105   */\n      tag_523\n        /* \"#utility.yul\":12099:12103   */\n      0x80\n        /* \"#utility.yul\":12094:12097   */\n      dup6\n        /* \"#utility.yul\":12090:12104   */\n      add\n        /* \"#utility.yul\":12076:12088   */\n      dup3\n        /* \"#utility.yul\":12042:12105   */\n      tag_344\n      jump\t// in\n    tag_523:\n        /* \"#utility.yul\":11950:12115   */\n      pop\n        /* \"#utility.yul\":12199:12203   */\n      0xa0\n        /* \"#utility.yul\":12192:12197   */\n      dup3\n        /* \"#utility.yul\":12188:12204   */\n      add\n        /* \"#utility.yul\":12182:12205   */\n      mload\n        /* \"#utility.yul\":12218:12293   */\n      tag_524\n        /* \"#utility.yul\":12287:12291   */\n      0xa0\n        /* \"#utility.yul\":12282:12285   */\n      dup6\n        /* \"#utility.yul\":12278:12292   */\n      add\n        /* \"#utility.yul\":12264:12276   */\n      dup3\n        /* \"#utility.yul\":12218:12293   */\n      tag_349\n      jump\t// in\n    tag_524:\n        /* \"#utility.yul\":12125:12303   */\n      pop\n        /* \"#utility.yul\":11200:12310   */\n      pop\n        /* \"#utility.yul\":11080:12310   */\n      pop\n      pop\n      jump\t// out\n        /* \"#utility.yul\":12316:12647   */\n    tag_93:\n        /* \"#utility.yul\":12463:12467   */\n      0x00\n        /* \"#utility.yul\":12501:12504   */\n      0xc0\n        /* \"#utility.yul\":12490:12499   */\n      dup3\n        /* \"#utility.yul\":12486:12505   */\n      add\n        /* \"#utility.yul\":12478:12505   */\n      swap1\n      pop\n        /* \"#utility.yul\":12515:12640   */\n      tag_526\n        /* \"#utility.yul\":12637:12638   */\n      0x00\n        /* \"#utility.yul\":12626:12635   */\n      dup4\n        /* \"#utility.yul\":12622:12639   */\n      add\n        /* \"#utility.yul\":12613:12619   */\n      dup5\n        /* \"#utility.yul\":12515:12640   */\n      tag_361\n      jump\t// in\n    tag_526:\n        /* \"#utility.yul\":12316:12647   */\n      swap3\n      swap2\n      pop\n      pop\n      jump\t// out\n        /* \"#utility.yul\":12653:12794   */\n    tag_362:\n        /* \"#utility.yul\":12718:12727   */\n      0x00\n        /* \"#utility.yul\":12751:12788   */\n      tag_528\n        /* \"#utility.yul\":12782:12787   */\n      dup3\n        /* \"#utility.yul\":12751:12788   */\n      tag_338\n      jump\t// in\n    tag_528:\n        /* \"#utility.yul\":12738:12788   */\n      swap1\n      pop\n        /* \"#utility.yul\":12653:12794   */\n      swap2\n      swap1\n      pop\n      jump\t// out\n        /* \"#utility.yul\":12800:12961   */\n    tag_363:\n        /* \"#utility.yul\":12902:12954   */\n      tag_530\n        /* \"#utility.yul\":12948:12953   */\n      dup2\n        /* \"#utility.yul\":12902:12954   */\n      tag_362\n      jump\t// in\n    tag_530:\n        /* \"#utility.yul\":12897:12900   */\n      dup3\n        /* \"#utility.yul\":12890:12955   */\n      mstore\n        /* \"#utility.yul\":12800:12961   */\n      pop\n      pop\n      jump\t// out\n        /* \"#utility.yul\":12967:13219   */\n    tag_103:\n        /* \"#utility.yul\":13075:13079   */\n      0x00\n        /* \"#utility.yul\":13113:13115   */\n      0x20\n        /* \"#utility.yul\":13102:13111   */\n      dup3\n        /* \"#utility.yul\":13098:13116   */\n      add\n        /* \"#utility.yul\":13090:13116   */\n      swap1\n      pop\n        /* \"#utility.yul\":13126:13212   */\n      tag_532\n        /* \"#utility.yul\":13209:13210   */\n      0x00\n        /* \"#utility.yul\":13198:13207   */\n      dup4\n        /* \"#utility.yul\":13194:13211   */\n      add\n        /* \"#utility.yul\":13185:13191   */\n      dup5\n        /* \"#utility.yul\":13126:13212   */\n      tag_363\n      jump\t// in\n    tag_532:\n        /* \"#utility.yul\":12967:13219   */\n      swap3\n      swap2\n      pop\n      pop\n      jump\t// out\n        /* \"#utility.yul\":13225:13394   */\n    tag_364:\n        /* \"#utility.yul\":13309:13320   */\n      0x00\n        /* \"#utility.yul\":13343:13349   */\n      dup3\n        /* \"#utility.yul\":13338:13341   */\n      dup3\n        /* \"#utility.yul\":13331:13350   */\n      mstore\n        /* \"#utility.yul\":13383:13387   */\n      0x20\n        /* \"#utility.yul\":13378:13381   */\n      dup3\n        /* \"#utility.yul\":13374:13388   */\n      add\n        /* \"#utility.yul\":13359:13388   */\n      swap1\n      pop\n        /* \"#utility.yul\":13225:13394   */\n      swap3\n      swap2\n      pop\n      pop\n      jump\t// out\n        /* \"#utility.yul\":13400:13569   */\n    tag_365:\n        /* \"#utility.yul\":13540:13561   */\n      0x4173736574206e6f74207075626c697368656400000000000000000000000000\n        /* \"#utility.yul\":13536:13537   */\n      0x00\n        /* \"#utility.yul\":13528:13534   */\n      dup3\n        /* \"#utility.yul\":13524:13538   */\n      add\n        /* \"#utility.yul\":13517:13562   */\n      mstore\n        /* \"#utility.yul\":13400:13569   */\n      pop\n      jump\t// out\n        /* \"#utility.yul\":13575:13941   */\n    tag_366:\n        /* \"#utility.yul\":13717:13720   */\n      0x00\n        /* \"#utility.yul\":13738:13805   */\n      tag_536\n        /* \"#utility.yul\":13802:13804   */\n      0x13\n        /* \"#utility.yul\":13797:13800   */\n      dup4\n        /* \"#utility.yul\":13738:13805   */\n      tag_364\n      jump\t// in\n    tag_536:\n        /* \"#utility.yul\":13731:13805   */\n      swap2\n      pop\n        /* \"#utility.yul\":13814:13907   */\n      tag_537\n        /* \"#utility.yul\":13903:13906   */\n      dup3\n        /* \"#utility.yul\":13814:13907   */\n      tag_365\n      jump\t// in\n    tag_537:\n        /* \"#utility.yul\":13932:13934   */\n      0x20\n        /* \"#utility.yul\":13927:13930   */\n      dup3\n        /* \"#utility.yul\":13923:13935   */\n      add\n        /* \"#utility.yul\":13916:13935   */\n      swap1\n      pop\n        /* \"#utility.yul\":13575:13941   */\n      swap2\n      swap1\n      pop\n      jump\t// out\n        /* \"#utility.yul\":13947:14366   */\n    tag_116:\n        /* \"#utility.yul\":14113:14117   */\n      0x00\n        /* \"#utility.yul\":14151:14153   */\n      0x20\n        /* \"#utility.yul\":14140:14149   */\n      dup3\n        /* \"#utility.yul\":14136:14154   */\n      add\n        /* \"#utility.yul\":14128:14154   */\n      swap1\n      pop\n        /* \"#utility.yul\":14200:14209   */\n      dup2\n        /* \"#utility.yul\":14194:14198   */\n      dup2\n        /* \"#utility.yul\":14190:14210   */\n      sub\n        /* \"#utility.yul\":14186:14187   */\n      0x00\n        /* \"#utility.yul\":14175:14184   */\n      dup4\n        /* \"#utility.yul\":14171:14188   */\n      add\n        /* \"#utility.yul\":14164:14211   */\n      mstore\n        /* \"#utility.yul\":14228:14359   */\n      tag_539\n        /* \"#utility.yul\":14354:14358   */\n      dup2\n        /* \"#utility.yul\":14228:14359   */\n      tag_366\n      jump\t// in\n    tag_539:\n        /* \"#utility.yul\":14220:14359   */\n      swap1\n      pop\n        /* \"#utility.yul\":13947:14366   */\n      swap2\n      swap1\n      pop\n      jump\t// out\n        /* \"#utility.yul\":14372:14536   */\n    tag_367:\n        /* \"#utility.yul\":14512:14528   */\n      0x41737365742064656c6973746564000000000000000000000000000000000000\n        /* \"#utility.yul\":14508:14509   */\n      0x00\n        /* \"#utility.yul\":14500:14506   */\n      dup3\n        /* \"#utility.yul\":14496:14510   */\n      add\n        /* \"#utility.yul\":14489:14529   */\n      mstore\n        /* \"#utility.yul\":14372:14536   */\n      pop\n      jump\t// out\n        /* \"#utility.yul\":14542:14908   */\n    tag_368:\n        /* \"#utility.yul\":14684:14687   */\n      0x00\n        /* \"#utility.yul\":14705:14772   */\n      tag_542\n        /* \"#utility.yul\":14769:14771   */\n      0x0e\n        /* \"#utility.yul\":14764:14767   */\n      dup4\n        /* \"#utility.yul\":14705:14772   */\n      tag_364\n      jump\t// in\n    tag_542:\n        /* \"#utility.yul\":14698:14772   */\n      swap2\n      pop\n        /* \"#utility.yul\":14781:14874   */\n      tag_543\n        /* \"#utility.yul\":14870:14873   */\n      dup3\n        /* \"#utility.yul\":14781:14874   */\n      tag_367\n      jump\t// in\n    tag_543:\n        /* \"#utility.yul\":14899:14901   */\n      0x20\n        /* \"#utility.yul\":14894:14897   */\n      dup3\n        /* \"#utility.yul\":14890:14902   */\n      add\n        /* \"#utility.yul\":14883:14902   */\n      swap1\n      pop\n        /* \"#utility.yul\":14542:14908   */\n      swap2\n      swap1\n      pop\n      jump\t// out\n        /* \"#utility.yul\":14914:15333   */\n    tag_123:\n        /* \"#utility.yul\":15080:15084   */\n      0x00\n        /* \"#utility.yul\":15118:15120   */\n      0x20\n        /* \"#utility.yul\":15107:15116   */\n      dup3\n        /* \"#utility.yul\":15103:15121   */\n      add\n        /* \"#utility.yul\":15095:15121   */\n      swap1\n      pop\n        /* \"#utility.yul\":15167:15176   */\n      dup2\n        /* \"#utility.yul\":15161:15165   */\n      dup2\n        /* \"#utility.yul\":15157:15177   */\n      sub\n        /* \"#utility.yul\":15153:15154   */\n      0x00\n        /* \"#utility.yul\":15142:15151   */\n      dup4\n        /* \"#utility.yul\":15138:15155   */\n      add\n        /* \"#utility.yul\":15131:15178   */\n      mstore\n        /* \"#utility.yul\":15195:15326   */\n      tag_545\n        /* \"#utility.yul\":15321:15325   */\n      dup2\n        /* \"#utility.yul\":15195:15326   */\n      tag_368\n      jump\t// in\n    tag_545:\n        /* \"#utility.yul\":15187:15326   */\n      swap1\n      pop\n        /* \"#utility.yul\":14914:15333   */\n      swap2\n      swap1\n      pop\n      jump\t// out\n        /* \"#utility.yul\":15339:15504   */\n    tag_369:\n        /* \"#utility.yul\":15479:15496   */\n      0x496e76616c696420616464726573730000000000000000000000000000000000\n        /* \"#utility.yul\":15475:15476   */\n      0x00\n        /* \"#utility.yul\":15467:15473   */\n      dup3\n        /* \"#utility.yul\":15463:15477   */\n      add\n        /* \"#utility.yul\":15456:15497   */\n      mstore\n        /* \"#utility.yul\":15339:15504   */\n      pop\n      jump\t// out\n        /* \"#utility.yul\":15510:15876   */\n    tag_370:\n        /* \"#utility.yul\":15652:15655   */\n      0x00\n        /* \"#utility.yul\":15673:15740   */\n      tag_548\n        /* \"#utility.yul\":15737:15739   */\n      0x0f\n        /* \"#utility.yul\":15732:15735   */\n      dup4\n        /* \"#utility.yul\":15673:15740   */\n      tag_364\n      jump\t// in\n    tag_548:\n        /* \"#utility.yul\":15666:15740   */\n      swap2\n      pop\n        /* \"#utility.yul\":15749:15842   */\n      tag_549\n        /* \"#utility.yul\":15838:15841   */\n      dup3\n        /* \"#utility.yul\":15749:15842   */\n      tag_369\n      jump\t// in\n    tag_549:\n        /* \"#utility.yul\":15867:15869   */\n      0x20\n        /* \"#utility.yul\":15862:15865   */\n      dup3\n        /* \"#utility.yul\":15858:15870   */\n      add\n        /* \"#utility.yul\":15851:15870   */\n      swap1\n      pop\n        /* \"#utility.yul\":15510:15876   */\n      swap2\n      swap1\n      pop\n      jump\t// out\n        /* \"#utility.yul\":15882:16301   */\n    tag_126:\n        /* \"#utility.yul\":16048:16052   */\n      0x00\n        /* \"#utility.yul\":16086:16088   */\n      0x20\n        /* \"#utility.yul\":16075:16084   */\n      dup3\n        /* \"#utility.yul\":16071:16089   */\n      add\n        /* \"#utility.yul\":16063:16089   */\n      swap1\n      pop\n        /* \"#utility.yul\":16135:16144   */\n      dup2\n        /* \"#utility.yul\":16129:16133   */\n      dup2\n        /* \"#utility.yul\":16125:16145   */\n      sub\n        /* \"#utility.yul\":16121:16122   */\n      0x00\n        /* \"#utility.yul\":16110:16119   */\n      dup4\n        /* \"#utility.yul\":16106:16123   */\n      add\n        /* \"#utility.yul\":16099:16146   */\n      mstore\n        /* \"#utility.yul\":16163:16294   */\n      tag_551\n        /* \"#utility.yul\":16289:16293   */\n      dup2\n        /* \"#utility.yul\":16163:16294   */\n      tag_370\n      jump\t// in\n    tag_551:\n        /* \"#utility.yul\":16155:16294   */\n      swap1\n      pop\n        /* \"#utility.yul\":15882:16301   */\n      swap2\n      swap1\n      pop\n      jump\t// out\n        /* \"#utility.yul\":16307:16479   */\n    tag_371:\n        /* \"#utility.yul\":16447:16471   */\n      0x4f6e6c792073656c6c65722063616e2064656c69737400000000000000000000\n        /* \"#utility.yul\":16443:16444   */\n      0x00\n        /* \"#utility.yul\":16435:16441   */\n      dup3\n        /* \"#utility.yul\":16431:16445   */\n      add\n        /* \"#utility.yul\":16424:16472   */\n      mstore\n        /* \"#utility.yul\":16307:16479   */\n      pop\n      jump\t// out\n        /* \"#utility.yul\":16485:16851   */\n    tag_372:\n        /* \"#utility.yul\":16627:16630   */\n      0x00\n        /* \"#utility.yul\":16648:16715   */\n      tag_554\n        /* \"#utility.yul\":16712:16714   */\n      0x16\n        /* \"#utility.yul\":16707:16710   */\n      dup4\n        /* \"#utility.yul\":16648:16715   */\n      tag_364\n      jump\t// in\n    tag_554:\n        /* \"#utility.yul\":16641:16715   */\n      swap2\n      pop\n        /* \"#utility.yul\":16724:16817   */\n      tag_555\n        /* \"#utility.yul\":16813:16816   */\n      dup3\n        /* \"#utility.yul\":16724:16817   */\n      tag_371\n      jump\t// in\n    tag_555:\n        /* \"#utility.yul\":16842:16844   */\n      0x20\n        /* \"#utility.yul\":16837:16840   */\n      dup3\n        /* \"#utility.yul\":16833:16845   */\n      add\n        /* \"#utility.yul\":16826:16845   */\n      swap1\n      pop\n        /* \"#utility.yul\":16485:16851   */\n      swap2\n      swap1\n      pop\n      jump\t// out\n        /* \"#utility.yul\":16857:17276   */\n    tag_129:\n        /* \"#utility.yul\":17023:17027   */\n      0x00\n        /* \"#utility.yul\":17061:17063   */\n      0x20\n        /* \"#utility.yul\":17050:17059   */\n      dup3\n        /* \"#utility.yul\":17046:17064   */\n      add\n        /* \"#utility.yul\":17038:17064   */\n      swap1\n      pop\n        /* \"#utility.yul\":17110:17119   */\n      dup2\n        /* \"#utility.yul\":17104:17108   */\n      dup2\n        /* \"#utility.yul\":17100:17120   */\n      sub\n        /* \"#utility.yul\":17096:17097   */\n      0x00\n        /* \"#utility.yul\":17085:17094   */\n      dup4\n        /* \"#utility.yul\":17081:17098   */\n      add\n        /* \"#utility.yul\":17074:17121   */\n      mstore\n        /* \"#utility.yul\":17138:17269   */\n      tag_557\n        /* \"#utility.yul\":17264:17268   */\n      dup2\n        /* \"#utility.yul\":17138:17269   */\n      tag_372\n      jump\t// in\n    tag_557:\n        /* \"#utility.yul\":17130:17269   */\n      swap1\n      pop\n        /* \"#utility.yul\":16857:17276   */\n      swap2\n      swap1\n      pop\n      jump\t// out\n        /* \"#utility.yul\":17282:17724   */\n    tag_131:\n        /* \"#utility.yul\":17431:17435   */\n      0x00\n        /* \"#utility.yul\":17469:17471   */\n      0x60\n        /* \"#utility.yul\":17458:17467   */\n      dup3\n        /* \"#utility.yul\":17454:17472   */\n      add\n        /* \"#utility.yul\":17446:17472   */\n      swap1\n      pop\n        /* \"#utility.yul\":17482:17553   */\n      tag_559\n        /* \"#utility.yul\":17550:17551   */\n      0x00\n        /* \"#utility.yul\":17539:17548   */\n      dup4\n        /* \"#utility.yul\":17535:17552   */\n      add\n        /* \"#utility.yul\":17526:17532   */\n      dup7\n        /* \"#utility.yul\":17482:17553   */\n      tag_356\n      jump\t// in\n    tag_559:\n        /* \"#utility.yul\":17563:17635   */\n      tag_560\n        /* \"#utility.yul\":17631:17633   */\n      0x20\n        /* \"#utility.yul\":17620:17629   */\n      dup4\n        /* \"#utility.yul\":17616:17634   */\n      add\n        /* \"#utility.yul\":17607:17613   */\n      dup6\n        /* \"#utility.yul\":17563:17635   */\n      tag_356\n      jump\t// in\n    tag_560:\n        /* \"#utility.yul\":17645:17717   */\n      tag_561\n        /* \"#utility.yul\":17713:17715   */\n      0x40\n        /* \"#utility.yul\":17702:17711   */\n      dup4\n        /* \"#utility.yul\":17698:17716   */\n      add\n        /* \"#utility.yul\":17689:17695   */\n      dup5\n        /* \"#utility.yul\":17645:17717   */\n      tag_357\n      jump\t// in\n    tag_561:\n        /* \"#utility.yul\":17282:17724   */\n      swap5\n      swap4\n      pop\n      pop\n      pop\n      pop\n      jump\t// out\n        /* \"#utility.yul\":17730:18062   */\n    tag_140:\n        /* \"#utility.yul\":17851:17855   */\n      0x00\n        /* \"#utility.yul\":17889:17891   */\n      0x40\n        /* \"#utility.yul\":17878:17887   */\n      dup3\n        /* \"#utility.yul\":17874:17892   */\n      add\n        /* \"#utility.yul\":17866:17892   */\n      swap1\n      pop\n        /* \"#utility.yul\":17902:17973   */\n      tag_563\n        /* \"#utility.yul\":17970:17971   */\n      0x00\n        /* \"#utility.yul\":17959:17968   */\n      dup4\n        /* \"#utility.yul\":17955:17972   */\n      add\n        /* \"#utility.yul\":17946:17952   */\n      dup6\n        /* \"#utility.yul\":17902:17973   */\n      tag_357\n      jump\t// in\n    tag_563:\n        /* \"#utility.yul\":17983:18055   */\n      tag_564\n        /* \"#utility.yul\":18051:18053   */\n      0x20\n        /* \"#utility.yul\":18040:18049   */\n      dup4\n        /* \"#utility.yul\":18036:18054   */\n      add\n        /* \"#utility.yul\":18027:18033   */\n      dup5\n        /* \"#utility.yul\":17983:18055   */\n      tag_357\n      jump\t// in\n    tag_564:\n        /* \"#utility.yul\":17730:18062   */\n      swap4\n      swap3\n      pop\n      pop\n      pop\n      jump\t// out\n        /* \"#utility.yul\":18068:18250   */\n    tag_373:\n        /* \"#utility.yul\":18208:18242   */\n      0x4f776e61626c653a2063616c6c6572206973206e6f7420746865206f776e6572\n        /* \"#utility.yul\":18204:18205   */\n      0x00\n        /* \"#utility.yul\":18196:18202   */\n      dup3\n        /* \"#utility.yul\":18192:18206   */\n      add\n        /* \"#utility.yul\":18185:18243   */\n      mstore\n        /* \"#utility.yul\":18068:18250   */\n      pop\n      jump\t// out\n        /* \"#utility.yul\":18256:18622   */\n    tag_374:\n        /* \"#utility.yul\":18398:18401   */\n      0x00\n        /* \"#utility.yul\":18419:18486   */\n      tag_567\n        /* \"#utility.yul\":18483:18485   */\n      0x20\n        /* \"#utility.yul\":18478:18481   */\n      dup4\n        /* \"#utility.yul\":18419:18486   */\n      tag_364\n      jump\t// in\n    tag_567:\n        /* \"#utility.yul\":18412:18486   */\n      swap2\n      pop\n        /* \"#utility.yul\":18495:18588   */\n      tag_568\n        /* \"#utility.yul\":18584:18587   */\n      dup3\n        /* \"#utility.yul\":18495:18588   */\n      tag_373\n      jump\t// in\n    tag_568:\n        /* \"#utility.yul\":18613:18615   */\n      0x20\n        /* \"#utility.yul\":18608:18611   */\n      dup3\n        /* \"#utility.yul\":18604:18616   */\n      add\n        /* \"#utility.yul\":18597:18616   */\n      swap1\n      pop\n        /* \"#utility.yul\":18256:18622   */\n      swap2\n      swap1\n      pop\n      jump\t// out\n        /* \"#utility.yul\":18628:19047   */\n    tag_147:\n        /* \"#utility.yul\":18794:18798   */\n      0x00\n        /* \"#utility.yul\":18832:18834   */\n      0x20\n        /* \"#utility.yul\":18821:18830   */\n      dup3\n        /* \"#utility.yul\":18817:18835   */\n      add\n        /* \"#utility.yul\":18809:18835   */\n      swap1\n      pop\n        /* \"#utility.yul\":18881:18890   */\n      dup2\n        /* \"#utility.yul\":18875:18879   */\n      dup2\n        /* \"#utility.yul\":18871:18891   */\n      sub\n        /* \"#utility.yul\":18867:18868   */\n      0x00\n        /* \"#utility.yul\":18856:18865   */\n      dup4\n        /* \"#utility.yul\":18852:18869   */\n      add\n        /* \"#utility.yul\":18845:18892   */\n      mstore\n        /* \"#utility.yul\":18909:19040   */\n      tag_570\n        /* \"#utility.yul\":19035:19039   */\n      dup2\n        /* \"#utility.yul\":18909:19040   */\n      tag_374\n      jump\t// in\n    tag_570:\n        /* \"#utility.yul\":18901:19040   */\n      swap1\n      pop\n        /* \"#utility.yul\":18628:19047   */\n      swap2\n      swap1\n      pop\n      jump\t// out\n        /* \"#utility.yul\":19053:19231   */\n    tag_375:\n        /* \"#utility.yul\":19193:19223   */\n      0x5072696365206d757374206265206174206c6561737420312077656900000000\n        /* \"#utility.yul\":19189:19190   */\n      0x00\n        /* \"#utility.yul\":19181:19187   */\n      dup3\n        /* \"#utility.yul\":19177:19191   */\n      add\n        /* \"#utility.yul\":19170:19224   */\n      mstore\n        /* \"#utility.yul\":19053:19231   */\n      pop\n      jump\t// out\n        /* \"#utility.yul\":19237:19603   */\n    tag_376:\n        /* \"#utility.yul\":19379:19382   */\n      0x00\n        /* \"#utility.yul\":19400:19467   */\n      tag_573\n        /* \"#utility.yul\":19464:19466   */\n      0x1c\n        /* \"#utility.yul\":19459:19462   */\n      dup4\n        /* \"#utility.yul\":19400:19467   */\n      tag_364\n      jump\t// in\n    tag_573:\n        /* \"#utility.yul\":19393:19467   */\n      swap2\n      pop\n        /* \"#utility.yul\":19476:19569   */\n      tag_574\n        /* \"#utility.yul\":19565:19568   */\n      dup3\n        /* \"#utility.yul\":19476:19569   */\n      tag_375\n      jump\t// in\n    tag_574:\n        /* \"#utility.yul\":19594:19596   */\n      0x20\n        /* \"#utility.yul\":19589:19592   */\n      dup3\n        /* \"#utility.yul\":19585:19597   */\n      add\n        /* \"#utility.yul\":19578:19597   */\n      swap1\n      pop\n        /* \"#utility.yul\":19237:19603   */\n      swap2\n      swap1\n      pop\n      jump\t// out\n        /* \"#utility.yul\":19609:20028   */\n    tag_158:\n        /* \"#utility.yul\":19775:19779   */\n      0x00\n        /* \"#utility.yul\":19813:19815   */\n      0x20\n        /* \"#utility.yul\":19802:19811   */\n      dup3\n        /* \"#utility.yul\":19798:19816   */\n      add\n        /* \"#utility.yul\":19790:19816   */\n      swap1\n      pop\n        /* \"#utility.yul\":19862:19871   */\n      dup2\n        /* \"#utility.yul\":19856:19860   */\n      dup2\n        /* \"#utility.yul\":19852:19872   */\n      sub\n        /* \"#utility.yul\":19848:19849   */\n      0x00\n        /* \"#utility.yul\":19837:19846   */\n      dup4\n        /* \"#utility.yul\":19833:19850   */\n      add\n        /* \"#utility.yul\":19826:19873   */\n      mstore\n        /* \"#utility.yul\":19890:20021   */\n      tag_576\n        /* \"#utility.yul\":20016:20020   */\n      dup2\n        /* \"#utility.yul\":19890:20021   */\n      tag_376\n      jump\t// in\n    tag_576:\n        /* \"#utility.yul\":19882:20021   */\n      swap1\n      pop\n        /* \"#utility.yul\":19609:20028   */\n      swap2\n      swap1\n      pop\n      jump\t// out\n        /* \"#utility.yul\":20034:20214   */\n    tag_377:\n        /* \"#utility.yul\":20082:20159   */\n      0x4e487b7100000000000000000000000000000000000000000000000000000000\n        /* \"#utility.yul\":20079:20080   */\n      0x00\n        /* \"#utility.yul\":20072:20160   */\n      mstore\n        /* \"#utility.yul\":20179:20183   */\n      0x11\n        /* \"#utility.yul\":20176:20177   */\n      0x04\n        /* \"#utility.yul\":20169:20184   */\n      mstore\n        /* \"#utility.yul\":20203:20207   */\n      0x24\n        /* \"#utility.yul\":20200:20201   */\n      0x00\n        /* \"#utility.yul\":20193:20208   */\n      revert\n        /* \"#utility.yul\":20220:20525   */\n    tag_173:\n        /* \"#utility.yul\":20260:20263   */\n      0x00\n        /* \"#utility.yul\":20279:20299   */\n      tag_579\n        /* \"#utility.yul\":20297:20298   */\n      dup3\n        /* \"#utility.yul\":20279:20299   */\n      tag_327\n      jump\t// in\n    tag_579:\n        /* \"#utility.yul\":20274:20299   */\n      swap2\n      pop\n        /* \"#utility.yul\":20313:20333   */\n      tag_580\n        /* \"#utility.yul\":20331:20332   */\n      dup4\n        /* \"#utility.yul\":20313:20333   */\n      tag_327\n      jump\t// in\n    tag_580:\n        /* \"#utility.yul\":20308:20333   */\n      swap3\n      pop\n        /* \"#utility.yul\":20467:20468   */\n      dup3\n        /* \"#utility.yul\":20399:20465   */\n      0xffffffffffffffffffffffffffffffffffffffffffffffffffffffffffffffff\n        /* \"#utility.yul\":20395:20469   */\n      sub\n        /* \"#utility.yul\":20392:20393   */\n      dup3\n        /* \"#utility.yul\":20389:20470   */\n      gt\n        /* \"#utility.yul\":20386:20493   */\n      iszero\n      tag_581\n      jumpi\n        /* \"#utility.yul\":20473:20491   */\n      tag_582\n      tag_377\n      jump\t// in\n    tag_582:\n        /* \"#utility.yul\":20386:20493   */\n    tag_581:\n        /* \"#utility.yul\":20517:20518   */\n      dup3\n        /* \"#utility.yul\":20514:20515   */\n      dup3\n        /* \"#utility.yul\":20510:20519   */\n      add\n        /* \"#utility.yul\":20503:20519   */\n      swap1\n      pop\n        /* \"#utility.yul\":20220:20525   */\n      swap3\n      swap2\n      pop\n      pop\n      jump\t// out\n        /* \"#utility.yul\":20531:20764   */\n    tag_175:\n        /* \"#utility.yul\":20570:20573   */\n      0x00\n        /* \"#utility.yul\":20593:20617   */\n      tag_584\n        /* \"#utility.yul\":20611:20616   */\n      dup3\n        /* \"#utility.yul\":20593:20617   */\n      tag_327\n      jump\t// in\n    tag_584:\n        /* \"#utility.yul\":20584:20617   */\n      swap2\n      pop\n        /* \"#utility.yul\":20639:20705   */\n      0xffffffffffffffffffffffffffffffffffffffffffffffffffffffffffffffff\n        /* \"#utility.yul\":20632:20637   */\n      dup3\n        /* \"#utility.yul\":20629:20706   */\n      sub\n        /* \"#utility.yul\":20626:20729   */\n      tag_585\n      jumpi\n        /* \"#utility.yul\":20709:20727   */\n      tag_586\n      tag_377\n      jump\t// in\n    tag_586:\n        /* \"#utility.yul\":20626:20729   */\n    tag_585:\n        /* \"#utility.yul\":20756:20757   */\n      0x01\n        /* \"#utility.yul\":20749:20754   */\n      dup3\n        /* \"#utility.yul\":20745:20758   */\n      add\n        /* \"#utility.yul\":20738:20758   */\n      swap1\n      pop\n        /* \"#utility.yul\":20531:20764   */\n      swap2\n      swap1\n      pop\n      jump\t// out\n        /* \"#utility.yul\":20770:20950   */\n    tag_178:\n        /* \"#utility.yul\":20818:20895   */\n      0x4e487b7100000000000000000000000000000000000000000000000000000000\n        /* \"#utility.yul\":20815:20816   */\n      0x00\n        /* \"#utility.yul\":20808:20896   */\n      mstore\n        /* \"#utility.yul\":20915:20919   */\n      0x41\n        /* \"#utility.yul\":20912:20913   */\n      0x04\n        /* \"#utility.yul\":20905:20920   */\n      mstore\n        /* \"#utility.yul\":20939:20943   */\n      0x24\n        /* \"#utility.yul\":20936:20937   */\n      0x00\n        /* \"#utility.yul\":20929:20944   */\n      revert\n        /* \"#utility.yul\":20956:21136   */\n    tag_197:\n        /* \"#utility.yul\":21004:21081   */\n      0x4e487b7100000000000000000000000000000000000000000000000000000000\n        /* \"#utility.yul\":21001:21002   */\n      0x00\n        /* \"#utility.yul\":20994:21082   */\n      mstore\n        /* \"#utility.yul\":21101:21105   */\n      0x32\n        /* \"#utility.yul\":21098:21099   */\n      0x04\n        /* \"#utility.yul\":21091:21106   */\n      mstore\n        /* \"#utility.yul\":21125:21129   */\n      0x24\n        /* \"#utility.yul\":21122:21123   */\n      0x00\n        /* \"#utility.yul\":21115:21130   */\n      revert\n        /* \"#utility.yul\":21142:21364   */\n    tag_204:\n        /* \"#utility.yul\":21235:21239   */\n      0x00\n        /* \"#utility.yul\":21273:21275   */\n      0x20\n        /* \"#utility.yul\":21262:21271   */\n      dup3\n        /* \"#utility.yul\":21258:21276   */\n      add\n        /* \"#utility.yul\":21250:21276   */\n      swap1\n      pop\n        /* \"#utility.yul\":21286:21357   */\n      tag_590\n        /* \"#utility.yul\":21354:21355   */\n      0x00\n        /* \"#utility.yul\":21343:21352   */\n      dup4\n        /* \"#utility.yul\":21339:21356   */\n      add\n        /* \"#utility.yul\":21330:21336   */\n      dup5\n        /* \"#utility.yul\":21286:21357   */\n      tag_357\n      jump\t// in\n    tag_590:\n        /* \"#utility.yul\":21142:21364   */\n      swap3\n      swap2\n      pop\n      pop\n      jump\t// out\n        /* \"#utility.yul\":21370:21487   */\n    tag_378:\n        /* \"#utility.yul\":21479:21480   */\n      0x00\n        /* \"#utility.yul\":21476:21477   */\n      dup1\n        /* \"#utility.yul\":21469:21481   */\n      revert\n        /* \"#utility.yul\":21493:21595   */\n    tag_379:\n        /* \"#utility.yul\":21534:21540   */\n      0x00\n        /* \"#utility.yul\":21585:21587   */\n      0x1f\n        /* \"#utility.yul\":21581:21588   */\n      not\n        /* \"#utility.yul\":21576:21578   */\n      0x1f\n        /* \"#utility.yul\":21569:21574   */\n      dup4\n        /* \"#utility.yul\":21565:21579   */\n      add\n        /* \"#utility.yul\":21561:21589   */\n      and\n        /* \"#utility.yul\":21551:21589   */\n      swap1\n      pop\n        /* \"#utility.yul\":21493:21595   */\n      swap2\n      swap1\n      pop\n      jump\t// out\n        /* \"#utility.yul\":21601:21882   */\n    tag_380:\n        /* \"#utility.yul\":21684:21711   */\n      tag_594\n        /* \"#utility.yul\":21706:21710   */\n      dup3\n        /* \"#utility.yul\":21684:21711   */\n      tag_379\n      jump\t// in\n    tag_594:\n        /* \"#utility.yul\":21676:21682   */\n      dup2\n        /* \"#utility.yul\":21672:21712   */\n      add\n        /* \"#utility.yul\":21814:21820   */\n      dup2\n        /* \"#utility.yul\":21802:21812   */\n      dup2\n        /* \"#utility.yul\":21799:21821   */\n      lt\n        /* \"#utility.yul\":21778:21796   */\n      0xffffffffffffffff\n        /* \"#utility.yul\":21766:21776   */\n      dup3\n        /* \"#utility.yul\":21763:21797   */\n      gt\n        /* \"#utility.yul\":21760:21822   */\n      or\n        /* \"#utility.yul\":21757:21845   */\n      iszero\n      tag_595\n      jumpi\n        /* \"#utility.yul\":21825:21843   */\n      tag_596\n      tag_178\n      jump\t// in\n    tag_596:\n        /* \"#utility.yul\":21757:21845   */\n    tag_595:\n        /* \"#utility.yul\":21865:21875   */\n      dup1\n        /* \"#utility.yul\":21861:21863   */\n      0x40\n        /* \"#utility.yul\":21854:21876   */\n      mstore\n        /* \"#utility.yul\":21644:21882   */\n      pop\n        /* \"#utility.yul\":21601:21882   */\n      pop\n      pop\n      jump\t// out\n        /* \"#utility.yul\":21888:22017   */\n    tag_381:\n        /* \"#utility.yul\":21922:21928   */\n      0x00\n        /* \"#utility.yul\":21949:21969   */\n      tag_598\n      tag_324\n      jump\t// in\n    tag_598:\n        /* \"#utility.yul\":21939:21969   */\n      swap1\n      pop\n        /* \"#utility.yul\":21978:22011   */\n      tag_599\n        /* \"#utility.yul\":22006:22010   */\n      dup3\n        /* \"#utility.yul\":21998:22004   */\n      dup3\n        /* \"#utility.yul\":21978:22011   */\n      tag_380\n      jump\t// in\n    tag_599:\n        /* \"#utility.yul\":21888:22017   */\n      swap2\n      swap1\n      pop\n      jump\t// out\n        /* \"#utility.yul\":22023:22140   */\n    tag_382:\n        /* \"#utility.yul\":22132:22133   */\n      0x00\n        /* \"#utility.yul\":22129:22130   */\n      dup1\n        /* \"#utility.yul\":22122:22134   */\n      revert\n        /* \"#utility.yul\":22146:22289   */\n    tag_383:\n        /* \"#utility.yul\":22203:22208   */\n      0x00\n        /* \"#utility.yul\":22234:22240   */\n      dup2\n        /* \"#utility.yul\":22228:22241   */\n      mload\n        /* \"#utility.yul\":22219:22241   */\n      swap1\n      pop\n        /* \"#utility.yul\":22250:22283   */\n      tag_602\n        /* \"#utility.yul\":22277:22282   */\n      dup2\n        /* \"#utility.yul\":22250:22283   */\n      tag_328\n      jump\t// in\n    tag_602:\n        /* \"#utility.yul\":22146:22289   */\n      swap3\n      swap2\n      pop\n      pop\n      jump\t// out\n        /* \"#utility.yul\":22295:22438   */\n    tag_384:\n        /* \"#utility.yul\":22352:22357   */\n      0x00\n        /* \"#utility.yul\":22383:22389   */\n      dup2\n        /* \"#utility.yul\":22377:22390   */\n      mload\n        /* \"#utility.yul\":22368:22390   */\n      swap1\n      pop\n        /* \"#utility.yul\":22399:22432   */\n      tag_604\n        /* \"#utility.yul\":22426:22431   */\n      dup2\n        /* \"#utility.yul\":22399:22432   */\n      tag_332\n      jump\t// in\n    tag_604:\n        /* \"#utility.yul\":22295:22438   */\n      swap3\n      swap2\n      pop\n      pop\n      jump\t// out\n        /* \"#utility.yul\":22444:22561   */\n    tag_385:\n        /* \"#utility.yul\":22553:22554   */\n      0x00\n        /* \"#utility.yul\":22550:22551   */\n      dup1\n        /* \"#utility.yul\":22543:22555   */\n      revert\n        /* \"#utility.yul\":22567:22684   */\n    tag_386:\n        /* \"#utility.yul\":22676:22677   */\n      0x00\n        /* \"#utility.yul\":22673:22674   */\n      dup1\n        /* \"#utility.yul\":22666:22678   */\n      revert\n        /* \"#utility.yul\":22690:22998   */\n    tag_387:\n        /* \"#utility.yul\":22752:22756   */\n      0x00\n        /* \"#utility.yul\":22842:22860   */\n      0xffffffffffffffff\n        /* \"#utility.yul\":22834:22840   */\n      dup3\n        /* \"#utility.yul\":22831:22861   */\n      gt\n        /* \"#utility.yul\":22828:22884   */\n      iszero\n      tag_608\n      jumpi\n        /* \"#utility.yul\":22864:22882   */\n      tag_609\n      tag_178\n      jump\t// in\n    tag_609:\n        /* \"#utility.yul\":22828:22884   */\n    tag_608:\n        /* \"#utility.yul\":22902:22931   */\n      tag_610\n        /* \"#utility.yul\":22924:22930   */\n      dup3\n        /* \"#utility.yul\":22902:22931   */\n      tag_379\n      jump\t// in\n    tag_610:\n        /* \"#utility.yul\":22894:22931   */\n      swap1\n      pop\n        /* \"#utility.yul\":22986:22990   */\n      0x20\n        /* \"#utility.yul\":22980:22984   */\n      dup2\n        /* \"#utility.yul\":22976:22991   */\n      add\n        /* \"#utility.yul\":22968:22991   */\n      swap1\n      pop\n        /* \"#utility.yul\":22690:22998   */\n      swap2\n      swap1\n      pop\n      jump\t// out\n        /* \"#utility.yul\":23004:23311   */\n    tag_388:\n        /* \"#utility.yul\":23072:23073   */\n      0x00\n        /* \"#utility.yul\":23082:23195   */\n    tag_612:\n        /* \"#utility.yul\":23096:23102   */\n      dup4\n        /* \"#utility.yul\":23093:23094   */\n      dup2\n        /* \"#utility.yul\":23090:23103   */\n      lt\n        /* \"#utility.yul\":23082:23195   */\n      iszero\n      tag_614\n      jumpi\n        /* \"#utility.yul\":23181:23182   */\n      dup1\n        /* \"#utility.yul\":23176:23179   */\n      dup3\n        /* \"#utility.yul\":23172:23183   */\n      add\n        /* \"#utility.yul\":23166:23184   */\n      mload\n        /* \"#utility.yul\":23162:23163   */\n      dup2\n        /* \"#utility.yul\":23157:23160   */\n      dup5\n        /* \"#utility.yul\":23153:23164   */\n      add\n        /* \"#utility.yul\":23146:23185   */\n      mstore\n        /* \"#utility.yul\":23118:23120   */\n      0x20\n        /* \"#utility.yul\":23115:23116   */\n      dup2\n        /* \"#utility.yul\":23111:23121   */\n      add\n        /* \"#utility.yul\":23106:23121   */\n      swap1\n      pop\n        /* \"#utility.yul\":23082:23195   */\n      jump(tag_612)\n    tag_614:\n        /* \"#utility.yul\":23213:23219   */\n      dup4\n        /* \"#utility.yul\":23210:23211   */\n      dup2\n        /* \"#utility.yul\":23207:23220   */\n      gt\n        /* \"#utility.yul\":23204:23305   */\n      iszero\n      tag_615\n      jumpi\n        /* \"#utility.yul\":23293:23294   */\n      0x00\n        /* \"#utility.yul\":23284:23290   */\n      dup5\n        /* \"#utility.yul\":23279:23282   */\n      dup5\n        /* \"#utility.yul\":23275:23291   */\n      add\n        /* \"#utility.yul\":23268:23295   */\n      mstore\n        /* \"#utility.yul\":23204:23305   */\n    tag_615:\n        /* \"#utility.yul\":23053:23311   */\n      pop\n        /* \"#utility.yul\":23004:23311   */\n      pop\n      pop\n      pop\n      jump\t// out\n        /* \"#utility.yul\":23317:23738   */\n    tag_389:\n        /* \"#utility.yul\":23406:23411   */\n      0x00\n        /* \"#utility.yul\":23431:23497   */\n      tag_617\n        /* \"#utility.yul\":23447:23496   */\n      tag_618\n        /* \"#utility.yul\":23489:23495   */\n      dup5\n        /* \"#utility.yul\":23447:23496   */\n      tag_387\n      jump\t// in\n    tag_618:\n        /* \"#utility.yul\":23431:23497   */\n      tag_381\n      jump\t// in\n    tag_617:\n        /* \"#utility.yul\":23422:23497   */\n      swap1\n      pop\n        /* \"#utility.yul\":23520:23526   */\n      dup3\n        /* \"#utility.yul\":23513:23518   */\n      dup2\n        /* \"#utility.yul\":23506:23527   */\n      mstore\n        /* \"#utility.yul\":23558:23562   */\n      0x20\n        /* \"#utility.yul\":23551:23556   */\n      dup2\n        /* \"#utility.yul\":23547:23563   */\n      add\n        /* \"#utility.yul\":23596:23599   */\n      dup5\n        /* \"#utility.yul\":23587:23593   */\n      dup5\n        /* \"#utility.yul\":23582:23585   */\n      dup5\n        /* \"#utility.yul\":23578:23594   */\n      add\n        /* \"#utility.yul\":23575:23600   */\n      gt\n        /* \"#utility.yul\":23572:23684   */\n      iszero\n      tag_619\n      jumpi\n        /* \"#utility.yul\":23603:23682   */\n      tag_620\n      tag_386\n      jump\t// in\n    tag_620:\n        /* \"#utility.yul\":23572:23684   */\n    tag_619:\n        /* \"#utility.yul\":23693:23732   */\n      tag_621\n        /* \"#utility.yul\":23725:23731   */\n      dup5\n        /* \"#utility.yul\":23720:23723   */\n      dup3\n        /* \"#utility.yul\":23715:23718   */\n      dup6\n        /* \"#utility.yul\":23693:23732   */\n      tag_388\n      jump\t// in\n    tag_621:\n        /* \"#utility.yul\":23412:23738   */\n      pop\n        /* \"#utility.yul\":23317:23738   */\n      swap4\n      swap3\n      pop\n      pop\n      pop\n      jump\t// out\n        /* \"#utility.yul\":23758:24113   */\n    tag_390:\n        /* \"#utility.yul\":23825:23830   */\n      0x00\n        /* \"#utility.yul\":23874:23877   */\n      dup3\n        /* \"#utility.yul\":23867:23871   */\n      0x1f\n        /* \"#utility.yul\":23859:23865   */\n      dup4\n        /* \"#utility.yul\":23855:23872   */\n      add\n        /* \"#utility.yul\":23851:23878   */\n      slt\n        /* \"#utility.yul\":23841:23963   */\n      tag_623\n      jumpi\n        /* \"#utility.yul\":23882:23961   */\n      tag_624\n      tag_385\n      jump\t// in\n    tag_624:\n        /* \"#utility.yul\":23841:23963   */\n    tag_623:\n        /* \"#utility.yul\":23992:23998   */\n      dup2\n        /* \"#utility.yul\":23986:23999   */\n      mload\n        /* \"#utility.yul\":24017:24107   */\n      tag_625\n        /* \"#utility.yul\":24103:24106   */\n      dup5\n        /* \"#utility.yul\":24095:24101   */\n      dup3\n        /* \"#utility.yul\":24088:24092   */\n      0x20\n        /* \"#utility.yul\":24080:24086   */\n      dup7\n        /* \"#utility.yul\":24076:24093   */\n      add\n        /* \"#utility.yul\":24017:24107   */\n      tag_389\n      jump\t// in\n    tag_625:\n        /* \"#utility.yul\":24008:24107   */\n      swap2\n      pop\n        /* \"#utility.yul\":23831:24113   */\n      pop\n        /* \"#utility.yul\":23758:24113   */\n      swap3\n      swap2\n      pop\n      pop\n      jump\t// out\n        /* \"#utility.yul\":24119:24209   */\n    tag_391:\n        /* \"#utility.yul\":24153:24160   */\n      0x00\n        /* \"#utility.yul\":24196:24201   */\n      dup2\n        /* \"#utility.yul\":24189:24202   */\n      iszero\n        /* \"#utility.yul\":24182:24203   */\n      iszero\n        /* \"#utility.yul\":24171:24203   */\n      swap1\n      pop\n        /* \"#utility.yul\":24119:24209   */\n      swap2\n      swap1\n      pop\n      jump\t// out\n        /* \"#utility.yul\":24215:24331   */\n    tag_392:\n        /* \"#utility.yul\":24285:24306   */\n      tag_628\n        /* \"#utility.yul\":24300:24305   */\n      dup2\n        /* \"#utility.yul\":24285:24306   */\n      tag_391\n      jump\t// in\n    tag_628:\n        /* \"#utility.yul\":24278:24283   */\n      dup2\n        /* \"#utility.yul\":24275:24307   */\n      eq\n        /* \"#utility.yul\":24265:24325   */\n      tag_629\n      jumpi\n        /* \"#utility.yul\":24321:24322   */\n      0x00\n        /* \"#utility.yul\":24318:24319   */\n      dup1\n        /* \"#utility.yul\":24311:24323   */\n      revert\n        /* \"#utility.yul\":24265:24325   */\n    tag_629:\n        /* \"#utility.yul\":24215:24331   */\n      pop\n      jump\t// out\n        /* \"#utility.yul\":24337:24474   */\n    tag_393:\n        /* \"#utility.yul\":24391:24396   */\n      0x00\n        /* \"#utility.yul\":24422:24428   */\n      dup2\n        /* \"#utility.yul\":24416:24429   */\n      mload\n        /* \"#utility.yul\":24407:24429   */\n      swap1\n      pop\n        /* \"#utility.yul\":24438:24468   */\n      tag_631\n        /* \"#utility.yul\":24462:24467   */\n      dup2\n        /* \"#utility.yul\":24438:24468   */\n      tag_392\n      jump\t// in\n    tag_631:\n        /* \"#utility.yul\":24337:24474   */\n      swap3\n      swap2\n      pop\n      pop\n      jump\t// out\n        /* \"#utility.yul\":24516:25975   */\n    tag_394:\n        /* \"#utility.yul\":24604:24609   */\n      0x00\n        /* \"#utility.yul\":24648:24652   */\n      0xa0\n        /* \"#utility.yul\":24636:24645   */\n      dup3\n        /* \"#utility.yul\":24631:24634   */\n      dup5\n        /* \"#utility.yul\":24627:24646   */\n      sub\n        /* \"#utility.yul\":24623:24653   */\n      slt\n        /* \"#utility.yul\":24620:24737   */\n      iszero\n      tag_633\n      jumpi\n        /* \"#utility.yul\":24656:24735   */\n      tag_634\n      tag_378\n      jump\t// in\n    tag_634:\n        /* \"#utility.yul\":24620:24737   */\n    tag_633:\n        /* \"#utility.yul\":24755:24776   */\n      tag_635\n        /* \"#utility.yul\":24771:24775   */\n      0xa0\n        /* \"#utility.yul\":24755:24776   */\n      tag_381\n      jump\t// in\n    tag_635:\n        /* \"#utility.yul\":24746:24776   */\n      swap1\n      pop\n        /* \"#utility.yul\":24833:24834   */\n      0x00\n        /* \"#utility.yul\":24873:24933   */\n      tag_636\n        /* \"#utility.yul\":24929:24932   */\n      dup5\n        /* \"#utility.yul\":24920:24926   */\n      dup3\n        /* \"#utility.yul\":24909:24918   */\n      dup6\n        /* \"#utility.yul\":24905:24927   */\n      add\n        /* \"#utility.yul\":24873:24933   */\n      tag_383\n      jump\t// in\n    tag_636:\n        /* \"#utility.yul\":24866:24870   */\n      0x00\n        /* \"#utility.yul\":24859:24864   */\n      dup4\n        /* \"#utility.yul\":24855:24871   */\n      add\n        /* \"#utility.yul\":24848:24934   */\n      mstore\n        /* \"#utility.yul\":24786:24945   */\n      pop\n        /* \"#utility.yul\":25005:25007   */\n      0x20\n        /* \"#utility.yul\":25046:25106   */\n      tag_637\n        /* \"#utility.yul\":25102:25105   */\n      dup5\n        /* \"#utility.yul\":25093:25099   */\n      dup3\n        /* \"#utility.yul\":25082:25091   */\n      dup6\n        /* \"#utility.yul\":25078:25100   */\n      add\n        /* \"#utility.yul\":25046:25106   */\n      tag_384\n      jump\t// in\n    tag_637:\n        /* \"#utility.yul\":25039:25043   */\n      0x20\n        /* \"#utility.yul\":25032:25037   */\n      dup4\n        /* \"#utility.yul\":25028:25044   */\n      add\n        /* \"#utility.yul\":25021:25107   */\n      mstore\n        /* \"#utility.yul\":24955:25118   */\n      pop\n        /* \"#utility.yul\":25200:25202   */\n      0x40\n        /* \"#utility.yul\":25189:25198   */\n      dup3\n        /* \"#utility.yul\":25185:25203   */\n      add\n        /* \"#utility.yul\":25179:25204   */\n      mload\n        /* \"#utility.yul\":25231:25249   */\n      0xffffffffffffffff\n        /* \"#utility.yul\":25223:25229   */\n      dup2\n        /* \"#utility.yul\":25220:25250   */\n      gt\n        /* \"#utility.yul\":25217:25334   */\n      iszero\n      tag_638\n      jumpi\n        /* \"#utility.yul\":25253:25332   */\n      tag_639\n      tag_382\n      jump\t// in\n    tag_639:\n        /* \"#utility.yul\":25217:25334   */\n    tag_638:\n        /* \"#utility.yul\":25373:25443   */\n      tag_640\n        /* \"#utility.yul\":25439:25442   */\n      dup5\n        /* \"#utility.yul\":25430:25436   */\n      dup3\n        /* \"#utility.yul\":25419:25428   */\n      dup6\n        /* \"#utility.yul\":25415:25437   */\n      add\n        /* \"#utility.yul\":25373:25443   */\n      tag_390\n      jump\t// in\n    tag_640:\n        /* \"#utility.yul\":25366:25370   */\n      0x40\n        /* \"#utility.yul\":25359:25364   */\n      dup4\n        /* \"#utility.yul\":25355:25371   */\n      add\n        /* \"#utility.yul\":25348:25444   */\n      mstore\n        /* \"#utility.yul\":25128:25455   */\n      pop\n        /* \"#utility.yul\":25541:25543   */\n      0x60\n        /* \"#utility.yul\":25530:25539   */\n      dup3\n        /* \"#utility.yul\":25526:25544   */\n      add\n        /* \"#utility.yul\":25520:25545   */\n      mload\n        /* \"#utility.yul\":25572:25590   */\n      0xffffffffffffffff\n        /* \"#utility.yul\":25564:25570   */\n      dup2\n        /* \"#utility.yul\":25561:25591   */\n      gt\n        /* \"#utility.yul\":25558:25675   */\n      iszero\n      tag_641\n      jumpi\n        /* \"#utility.yul\":25594:25673   */\n      tag_642\n      tag_382\n      jump\t// in\n    tag_642:\n        /* \"#utility.yul\":25558:25675   */\n    tag_641:\n        /* \"#utility.yul\":25714:25784   */\n      tag_643\n        /* \"#utility.yul\":25780:25783   */\n      dup5\n        /* \"#utility.yul\":25771:25777   */\n      dup3\n        /* \"#utility.yul\":25760:25769   */\n      dup6\n        /* \"#utility.yul\":25756:25778   */\n      add\n        /* \"#utility.yul\":25714:25784   */\n      tag_390\n      jump\t// in\n    tag_643:\n        /* \"#utility.yul\":25707:25711   */\n      0x60\n        /* \"#utility.yul\":25700:25705   */\n      dup4\n        /* \"#utility.yul\":25696:25712   */\n      add\n        /* \"#utility.yul\":25689:25785   */\n      mstore\n        /* \"#utility.yul\":25465:25796   */\n      pop\n        /* \"#utility.yul\":25857:25860   */\n      0x80\n        /* \"#utility.yul\":25899:25956   */\n      tag_644\n        /* \"#utility.yul\":25952:25955   */\n      dup5\n        /* \"#utility.yul\":25943:25949   */\n      dup3\n        /* \"#utility.yul\":25932:25941   */\n      dup6\n        /* \"#utility.yul\":25928:25950   */\n      add\n        /* \"#utility.yul\":25899:25956   */\n      tag_393\n      jump\t// in\n    tag_644:\n        /* \"#utility.yul\":25892:25896   */\n      0x80\n        /* \"#utility.yul\":25885:25890   */\n      dup4\n        /* \"#utility.yul\":25881:25897   */\n      add\n        /* \"#utility.yul\":25874:25957   */\n      mstore\n        /* \"#utility.yul\":25806:25968   */\n      pop\n        /* \"#utility.yul\":24516:25975   */\n      swap3\n      swap2\n      pop\n      pop\n      jump\t// out\n        /* \"#utility.yul\":25981:26541   */\n    tag_208:\n        /* \"#utility.yul\":26079:26085   */\n      0x00\n        /* \"#utility.yul\":26128:26130   */\n      0x20\n        /* \"#utility.yul\":26116:26125   */\n      dup3\n        /* \"#utility.yul\":26107:26114   */\n      dup5\n        /* \"#utility.yul\":26103:26126   */\n      sub\n        /* \"#utility.yul\":26099:26131   */\n      slt\n        /* \"#utility.yul\":26096:26215   */\n      iszero\n      tag_646\n      jumpi\n        /* \"#utility.yul\":26134:26213   */\n      tag_647\n      tag_325\n      jump\t// in\n    tag_647:\n        /* \"#utility.yul\":26096:26215   */\n    tag_646:\n        /* \"#utility.yul\":26275:26276   */\n      0x00\n        /* \"#utility.yul\":26264:26273   */\n      dup3\n        /* \"#utility.yul\":26260:26277   */\n      add\n        /* \"#utility.yul\":26254:26278   */\n      mload\n        /* \"#utility.yul\":26305:26323   */\n      0xffffffffffffffff\n        /* \"#utility.yul\":26297:26303   */\n      dup2\n        /* \"#utility.yul\":26294:26324   */\n      gt\n        /* \"#utility.yul\":26291:26408   */\n      iszero\n      tag_648\n      jumpi\n        /* \"#utility.yul\":26327:26406   */\n      tag_649\n      tag_326\n      jump\t// in\n    tag_649:\n        /* \"#utility.yul\":26291:26408   */\n    tag_648:\n        /* \"#utility.yul\":26432:26524   */\n      tag_650\n        /* \"#utility.yul\":26516:26523   */\n      dup5\n        /* \"#utility.yul\":26507:26513   */\n      dup3\n        /* \"#utility.yul\":26496:26505   */\n      dup6\n        /* \"#utility.yul\":26492:26514   */\n      add\n        /* \"#utility.yul\":26432:26524   */\n      tag_394\n      jump\t// in\n    tag_650:\n        /* \"#utility.yul\":26422:26524   */\n      swap2\n      pop\n        /* \"#utility.yul\":26225:26534   */\n      pop\n        /* \"#utility.yul\":25981:26541   */\n      swap3\n      swap2\n      pop\n      pop\n      jump\t// out\n        /* \"#utility.yul\":26547:26724   */\n    tag_395:\n        /* \"#utility.yul\":26687:26716   */\n      0x4974656d206973206e6f7420617661696c61626c65206e6f7720210000000000\n        /* \"#utility.yul\":26683:26684   */\n      0x00\n        /* \"#utility.yul\":26675:26681   */\n      dup3\n        /* \"#utility.yul\":26671:26685   */\n      add\n        /* \"#utility.yul\":26664:26717   */\n      mstore\n        /* \"#utility.yul\":26547:26724   */\n      pop\n      jump\t// out\n        /* \"#utility.yul\":26730:27096   */\n    tag_396:\n        /* \"#utility.yul\":26872:26875   */\n      0x00\n        /* \"#utility.yul\":26893:26960   */\n      tag_653\n        /* \"#utility.yul\":26957:26959   */\n      0x1b\n        /* \"#utility.yul\":26952:26955   */\n      dup4\n        /* \"#utility.yul\":26893:26960   */\n      tag_364\n      jump\t// in\n    tag_653:\n        /* \"#utility.yul\":26886:26960   */\n      swap2\n      pop\n        /* \"#utility.yul\":26969:27062   */\n      tag_654\n        /* \"#utility.yul\":27058:27061   */\n      dup3\n        /* \"#utility.yul\":26969:27062   */\n      tag_395\n      jump\t// in\n    tag_654:\n        /* \"#utility.yul\":27087:27089   */\n      0x20\n        /* \"#utility.yul\":27082:27085   */\n      dup3\n        /* \"#utility.yul\":27078:27090   */\n      add\n        /* \"#utility.yul\":27071:27090   */\n      swap1\n      pop\n        /* \"#utility.yul\":26730:27096   */\n      swap2\n      swap1\n      pop\n      jump\t// out\n        /* \"#utility.yul\":27102:27521   */\n    tag_211:\n        /* \"#utility.yul\":27268:27272   */\n      0x00\n        /* \"#utility.yul\":27306:27308   */\n      0x20\n        /* \"#utility.yul\":27295:27304   */\n      dup3\n        /* \"#utility.yul\":27291:27309   */\n      add\n        /* \"#utility.yul\":27283:27309   */\n      swap1\n      pop\n        /* \"#utility.yul\":27355:27364   */\n      dup2\n        /* \"#utility.yul\":27349:27353   */\n      dup2\n        /* \"#utility.yul\":27345:27365   */\n      sub\n        /* \"#utility.yul\":27341:27342   */\n      0x00\n        /* \"#utility.yul\":27330:27339   */\n      dup4\n        /* \"#utility.yul\":27326:27343   */\n      add\n        /* \"#utility.yul\":27319:27366   */\n      mstore\n        /* \"#utility.yul\":27383:27514   */\n      tag_656\n        /* \"#utility.yul\":27509:27513   */\n      dup2\n        /* \"#utility.yul\":27383:27514   */\n      tag_396\n      jump\t// in\n    tag_656:\n        /* \"#utility.yul\":27375:27514   */\n      swap1\n      pop\n        /* \"#utility.yul\":27102:27521   */\n      swap2\n      swap1\n      pop\n      jump\t// out\n        /* \"#utility.yul\":27527:27661   */\n    tag_397:\n        /* \"#utility.yul\":27585:27594   */\n      0x00\n        /* \"#utility.yul\":27618:27655   */\n      tag_658\n        /* \"#utility.yul\":27649:27654   */\n      dup3\n        /* \"#utility.yul\":27618:27655   */\n      tag_338\n      jump\t// in\n    tag_658:\n        /* \"#utility.yul\":27605:27655   */\n      swap1\n      pop\n        /* \"#utility.yul\":27527:27661   */\n      swap2\n      swap1\n      pop\n      jump\t// out\n        /* \"#utility.yul\":27667:27814   */\n    tag_398:\n        /* \"#utility.yul\":27762:27807   */\n      tag_660\n        /* \"#utility.yul\":27801:27806   */\n      dup2\n        /* \"#utility.yul\":27762:27807   */\n      tag_397\n      jump\t// in\n    tag_660:\n        /* \"#utility.yul\":27757:27760   */\n      dup3\n        /* \"#utility.yul\":27750:27808   */\n      mstore\n        /* \"#utility.yul\":27667:27814   */\n      pop\n      pop\n      jump\t// out\n        /* \"#utility.yul\":27820:28278   */\n    tag_214:\n        /* \"#utility.yul\":27977:27981   */\n      0x00\n        /* \"#utility.yul\":28015:28017   */\n      0x60\n        /* \"#utility.yul\":28004:28013   */\n      dup3\n        /* \"#utility.yul\":28000:28018   */\n      add\n        /* \"#utility.yul\":27992:28018   */\n      swap1\n      pop\n        /* \"#utility.yul\":28028:28107   */\n      tag_662\n        /* \"#utility.yul\":28104:28105   */\n      0x00\n        /* \"#utility.yul\":28093:28102   */\n      dup4\n        /* \"#utility.yul\":28089:28106   */\n      add\n        /* \"#utility.yul\":28080:28086   */\n      dup7\n        /* \"#utility.yul\":28028:28107   */\n      tag_398\n      jump\t// in\n    tag_662:\n        /* \"#utility.yul\":28117:28189   */\n      tag_663\n        /* \"#utility.yul\":28185:28187   */\n      0x20\n        /* \"#utility.yul\":28174:28183   */\n      dup4\n        /* \"#utility.yul\":28170:28188   */\n      add\n        /* \"#utility.yul\":28161:28167   */\n      dup6\n        /* \"#utility.yul\":28117:28189   */\n      tag_356\n      jump\t// in\n    tag_663:\n        /* \"#utility.yul\":28199:28271   */\n      tag_664\n        /* \"#utility.yul\":28267:28269   */\n      0x40\n        /* \"#utility.yul\":28256:28265   */\n      dup4\n        /* \"#utility.yul\":28252:28270   */\n      add\n        /* \"#utility.yul\":28243:28249   */\n      dup5\n        /* \"#utility.yul\":28199:28271   */\n      tag_357\n      jump\t// in\n    tag_664:\n        /* \"#utility.yul\":27820:28278   */\n      swap5\n      swap4\n      pop\n      pop\n      pop\n      pop\n      jump\t// out\n        /* \"#utility.yul\":28284:28535   */\n    tag_399:\n        /* \"#utility.yul\":28424:28458   */\n      0x506c65617365207375626d6974207468652061736b696e672070726963652069\n        /* \"#utility.yul\":28420:28421   */\n      0x00\n        /* \"#utility.yul\":28412:28418   */\n      dup3\n        /* \"#utility.yul\":28408:28422   */\n      add\n        /* \"#utility.yul\":28401:28459   */\n      mstore\n        /* \"#utility.yul\":28493:28527   */\n      0x6e206f7264657220746f20636f6d706c65746520746865207075726368617365\n        /* \"#utility.yul\":28488:28490   */\n      0x20\n        /* \"#utility.yul\":28480:28486   */\n      dup3\n        /* \"#utility.yul\":28476:28491   */\n      add\n        /* \"#utility.yul\":28469:28528   */\n      mstore\n        /* \"#utility.yul\":28284:28535   */\n      pop\n      jump\t// out\n        /* \"#utility.yul\":28541:28907   */\n    tag_400:\n        /* \"#utility.yul\":28683:28686   */\n      0x00\n        /* \"#utility.yul\":28704:28771   */\n      tag_667\n        /* \"#utility.yul\":28768:28770   */\n      0x40\n        /* \"#utility.yul\":28763:28766   */\n      dup4\n        /* \"#utility.yul\":28704:28771   */\n      tag_364\n      jump\t// in\n    tag_667:\n        /* \"#utility.yul\":28697:28771   */\n      swap2\n      pop\n        /* \"#utility.yul\":28780:28873   */\n      tag_668\n        /* \"#utility.yul\":28869:28872   */\n      dup3\n        /* \"#utility.yul\":28780:28873   */\n      tag_399\n      jump\t// in\n    tag_668:\n        /* \"#utility.yul\":28898:28900   */\n      0x40\n        /* \"#utility.yul\":28893:28896   */\n      dup3\n        /* \"#utility.yul\":28889:28901   */\n      add\n        /* \"#utility.yul\":28882:28901   */\n      swap1\n      pop\n        /* \"#utility.yul\":28541:28907   */\n      swap2\n      swap1\n      pop\n      jump\t// out\n        /* \"#utility.yul\":28913:29332   */\n    tag_250:\n        /* \"#utility.yul\":29079:29083   */\n      0x00\n        /* \"#utility.yul\":29117:29119   */\n      0x20\n        /* \"#utility.yul\":29106:29115   */\n      dup3\n        /* \"#utility.yul\":29102:29120   */\n      add\n        /* \"#utility.yul\":29094:29120   */\n      swap1\n      pop\n        /* \"#utility.yul\":29166:29175   */\n      dup2\n        /* \"#utility.yul\":29160:29164   */\n      dup2\n        /* \"#utility.yul\":29156:29176   */\n      sub\n        /* \"#utility.yul\":29152:29153   */\n      0x00\n        /* \"#utility.yul\":29141:29150   */\n      dup4\n        /* \"#utility.yul\":29137:29154   */\n      add\n        /* \"#utility.yul\":29130:29177   */\n      mstore\n        /* \"#utility.yul\":29194:29325   */\n      tag_670\n        /* \"#utility.yul\":29320:29324   */\n      dup2\n        /* \"#utility.yul\":29194:29325   */\n      tag_400\n      jump\t// in\n    tag_670:\n        /* \"#utility.yul\":29186:29325   */\n      swap1\n      pop\n        /* \"#utility.yul\":28913:29332   */\n      swap2\n      swap1\n      pop\n      jump\t// out\n        /* \"#utility.yul\":29338:29491   */\n    tag_401:\n        /* \"#utility.yul\":29478:29483   */\n      0x5351460000000000000000000000000000000000000000000000000000000000\n        /* \"#utility.yul\":29474:29475   */\n      0x00\n        /* \"#utility.yul\":29466:29472   */\n      dup3\n        /* \"#utility.yul\":29462:29476   */\n      add\n        /* \"#utility.yul\":29455:29484   */\n      mstore\n        /* \"#utility.yul\":29338:29491   */\n      pop\n      jump\t// out\n        /* \"#utility.yul\":29497:29862   */\n    tag_402:\n        /* \"#utility.yul\":29639:29642   */\n      0x00\n        /* \"#utility.yul\":29660:29726   */\n      tag_673\n        /* \"#utility.yul\":29724:29725   */\n      0x03\n        /* \"#utility.yul\":29719:29722   */\n      dup4\n        /* \"#utility.yul\":29660:29726   */\n      tag_364\n      jump\t// in\n    tag_673:\n        /* \"#utility.yul\":29653:29726   */\n      swap2\n      pop\n        /* \"#utility.yul\":29735:29828   */\n      tag_674\n        /* \"#utility.yul\":29824:29827   */\n      dup3\n        /* \"#utility.yul\":29735:29828   */\n      tag_401\n      jump\t// in\n    tag_674:\n        /* \"#utility.yul\":29853:29855   */\n      0x20\n        /* \"#utility.yul\":29848:29851   */\n      dup3\n        /* \"#utility.yul\":29844:29856   */\n      add\n        /* \"#utility.yul\":29837:29856   */\n      swap1\n      pop\n        /* \"#utility.yul\":29497:29862   */\n      swap2\n      swap1\n      pop\n      jump\t// out\n        /* \"#utility.yul\":29868:30618   */\n    tag_259:\n        /* \"#utility.yul\":30118:30122   */\n      0x00\n        /* \"#utility.yul\":30156:30159   */\n      0x80\n        /* \"#utility.yul\":30145:30154   */\n      dup3\n        /* \"#utility.yul\":30141:30160   */\n      add\n        /* \"#utility.yul\":30133:30160   */\n      swap1\n      pop\n        /* \"#utility.yul\":30170:30241   */\n      tag_676\n        /* \"#utility.yul\":30238:30239   */\n      0x00\n        /* \"#utility.yul\":30227:30236   */\n      dup4\n        /* \"#utility.yul\":30223:30240   */\n      add\n        /* \"#utility.yul\":30214:30220   */\n      dup7\n        /* \"#utility.yul\":30170:30241   */\n      tag_357\n      jump\t// in\n    tag_676:\n        /* \"#utility.yul\":30251:30323   */\n      tag_677\n        /* \"#utility.yul\":30319:30321   */\n      0x20\n        /* \"#utility.yul\":30308:30317   */\n      dup4\n        /* \"#utility.yul\":30304:30322   */\n      add\n        /* \"#utility.yul\":30295:30301   */\n      dup6\n        /* \"#utility.yul\":30251:30323   */\n      tag_357\n      jump\t// in\n    tag_677:\n        /* \"#utility.yul\":30370:30379   */\n      dup2\n        /* \"#utility.yul\":30364:30368   */\n      dup2\n        /* \"#utility.yul\":30360:30380   */\n      sub\n        /* \"#utility.yul\":30355:30357   */\n      0x40\n        /* \"#utility.yul\":30344:30353   */\n      dup4\n        /* \"#utility.yul\":30340:30358   */\n      add\n        /* \"#utility.yul\":30333:30381   */\n      mstore\n        /* \"#utility.yul\":30398:30529   */\n      tag_678\n        /* \"#utility.yul\":30524:30528   */\n      dup2\n        /* \"#utility.yul\":30398:30529   */\n      tag_402\n      jump\t// in\n    tag_678:\n        /* \"#utility.yul\":30390:30529   */\n      swap1\n      pop\n        /* \"#utility.yul\":30539:30611   */\n      tag_679\n        /* \"#utility.yul\":30607:30609   */\n      0x60\n        /* \"#utility.yul\":30596:30605   */\n      dup4\n        /* \"#utility.yul\":30592:30610   */\n      add\n        /* \"#utility.yul\":30583:30589   */\n      dup5\n        /* \"#utility.yul\":30539:30611   */\n      tag_357\n      jump\t// in\n    tag_679:\n        /* \"#utility.yul\":29868:30618   */\n      swap5\n      swap4\n      pop\n      pop\n      pop\n      pop\n      jump\t// out\n        /* \"#utility.yul\":30624:30849   */\n    tag_403:\n        /* \"#utility.yul\":30764:30798   */\n      0x4f776e61626c653a206e6577206f776e657220697320746865207a65726f2061\n        /* \"#utility.yul\":30760:30761   */\n      0x00\n        /* \"#utility.yul\":30752:30758   */\n      dup3\n        /* \"#utility.yul\":30748:30762   */\n      add\n        /* \"#utility.yul\":30741:30799   */\n      mstore\n        /* \"#utility.yul\":30833:30841   */\n      0x6464726573730000000000000000000000000000000000000000000000000000\n        /* \"#utility.yul\":30828:30830   */\n      0x20\n        /* \"#utility.yul\":30820:30826   */\n      dup3\n        /* \"#utility.yul\":30816:30831   */\n      add\n        /* \"#utility.yul\":30809:30842   */\n      mstore\n        /* \"#utility.yul\":30624:30849   */\n      pop\n      jump\t// out\n        /* \"#utility.yul\":30855:31221   */\n    tag_404:\n        /* \"#utility.yul\":30997:31000   */\n      0x00\n        /* \"#utility.yul\":31018:31085   */\n      tag_682\n        /* \"#utility.yul\":31082:31084   */\n      0x26\n        /* \"#utility.yul\":31077:31080   */\n      dup4\n        /* \"#utility.yul\":31018:31085   */\n      tag_364\n      jump\t// in\n    tag_682:\n        /* \"#utility.yul\":31011:31085   */\n      swap2\n      pop\n        /* \"#utility.yul\":31094:31187   */\n      tag_683\n        /* \"#utility.yul\":31183:31186   */\n      dup3\n        /* \"#utility.yul\":31094:31187   */\n      tag_403\n      jump\t// in\n    tag_683:\n        /* \"#utility.yul\":31212:31214   */\n      0x40\n        /* \"#utility.yul\":31207:31210   */\n      dup3\n        /* \"#utility.yul\":31203:31215   */\n      add\n        /* \"#utility.yul\":31196:31215   */\n      swap1\n      pop\n        /* \"#utility.yul\":30855:31221   */\n      swap2\n      swap1\n      pop\n      jump\t// out\n        /* \"#utility.yul\":31227:31646   */\n    tag_302:\n        /* \"#utility.yul\":31393:31397   */\n      0x00\n        /* \"#utility.yul\":31431:31433   */\n      0x20\n        /* \"#utility.yul\":31420:31429   */\n      dup3\n        /* \"#utility.yul\":31416:31434   */\n      add\n        /* \"#utility.yul\":31408:31434   */\n      swap1\n      pop\n        /* \"#utility.yul\":31480:31489   */\n      dup2\n        /* \"#utility.yul\":31474:31478   */\n      dup2\n        /* \"#utility.yul\":31470:31490   */\n      sub\n        /* \"#utility.yul\":31466:31467   */\n      0x00\n        /* \"#utility.yul\":31455:31464   */\n      dup4\n        /* \"#utility.yul\":31451:31468   */\n      add\n        /* \"#utility.yul\":31444:31491   */\n      mstore\n        /* \"#utility.yul\":31508:31639   */\n      tag_685\n        /* \"#utility.yul\":31634:31638   */\n      dup2\n        /* \"#utility.yul\":31508:31639   */\n      tag_404\n      jump\t// in\n    tag_685:\n        /* \"#utility.yul\":31500:31639   */\n      swap1\n      pop\n        /* \"#utility.yul\":31227:31646   */\n      swap2\n      swap1\n      pop\n      jump\t// out\n        /* \"#utility.yul\":31652:31997   */\n    tag_313:\n        /* \"#utility.yul\":31719:31725   */\n      0x00\n        /* \"#utility.yul\":31768:31770   */\n      0x20\n        /* \"#utility.yul\":31756:31765   */\n      dup3\n        /* \"#utility.yul\":31747:31754   */\n      dup5\n        /* \"#utility.yul\":31743:31766   */\n      sub\n        /* \"#utility.yul\":31739:31771   */\n      slt\n        /* \"#utility.yul\":31736:31855   */\n      iszero\n      tag_687\n      jumpi\n        /* \"#utility.yul\":31774:31853   */\n      tag_688\n      tag_325\n      jump\t// in\n    tag_688:\n        /* \"#utility.yul\":31736:31855   */\n    tag_687:\n        /* \"#utility.yul\":31894:31895   */\n      0x00\n        /* \"#utility.yul\":31919:31980   */\n      tag_689\n        /* \"#utility.yul\":31972:31979   */\n      dup5\n        /* \"#utility.yul\":31963:31969   */\n      dup3\n        /* \"#utility.yul\":31952:31961   */\n      dup6\n        /* \"#utility.yul\":31948:31970   */\n      add\n        /* \"#utility.yul\":31919:31980   */\n      tag_393\n      jump\t// in\n    tag_689:\n        /* \"#utility.yul\":31909:31980   */\n      swap2\n      pop\n        /* \"#utility.yul\":31865:31990   */\n      pop\n        /* \"#utility.yul\":31652:31997   */\n      swap3\n      swap2\n      pop\n      pop\n      jump\t// out\n\n    auxdata: 0xa2646970667358221220637bd059dff27cb68d40538ebc335ff0693bc6129becf8e4f00bd77e1054b09064736f6c634300080d0033\n}\n",
				"bytecode": {
					"linkReferences": {},
					"object": "60806040526040516200332538038062003325833981810160405281019062000029919062000255565b600160008190555062000051620000456200011d60201b60201c565b6200012560201b60201c565b82600360006101000a81548173ffffffffffffffffffffffffffffffffffffffff021916908373ffffffffffffffffffffffffffffffffffffffff16021790555081600560006101000a81548173ffffffffffffffffffffffffffffffffffffffff021916908373ffffffffffffffffffffffffffffffffffffffff16021790555080600460006101000a81548173ffffffffffffffffffffffffffffffffffffffff021916908373ffffffffffffffffffffffffffffffffffffffff160217905550505050620002b1565b600033905090565b6000600660009054906101000a900473ffffffffffffffffffffffffffffffffffffffff16905081600660006101000a81548173ffffffffffffffffffffffffffffffffffffffff021916908373ffffffffffffffffffffffffffffffffffffffff1602179055508173ffffffffffffffffffffffffffffffffffffffff168173ffffffffffffffffffffffffffffffffffffffff167f8be0079c531659141344cd1fd0a4f28419497f9722a3daafe3b4186f6b6457e060405160405180910390a35050565b600080fd5b600073ffffffffffffffffffffffffffffffffffffffff82169050919050565b60006200021d82620001f0565b9050919050565b6200022f8162000210565b81146200023b57600080fd5b50565b6000815190506200024f8162000224565b92915050565b600080600060608486031215620002715762000270620001eb565b5b600062000281868287016200023e565b935050602062000294868287016200023e565b9250506040620002a7868287016200023e565b9150509250925092565b61306480620002c16000396000f3fe608060405234801561001057600080fd5b50600436106101425760003560e01c80638da5cb5b116100b8578063c45a01551161007c578063c45a01551461031a578063c7be7a4914610338578063e78e717d14610368578063f2fde38b14610384578063f55de0c7146103a0578063ff68fa6e146103be57610142565b80638da5cb5b14610271578063a1c11ca81461028f578063ae295f94146102ab578063b7a60c7e146102c7578063bfb231d2146102e557610142565b80633fc15f151161010a5780633fc15f15146101d557806342199f88146101f357806349fb7d4b146102115780635bb478081461022d578063715018a61461024957806385a8b36c1461025357610142565b8063100616311461014757806315b124941461016357806327ce464e1461017f5780632b4c32be1461019b5780633e48ca65146101b9575b600080fd5b610161600480360381019061015c91906120f9565b6103f3565b005b61017d60048036038101906101789190612184565b610863565b005b61019960048036038101906101949190612184565b610923565b005b6101a36109e3565b6040516101b091906121ec565b60405180910390f35b6101d360048036038101906101ce91906120f9565b6109ee565b005b6101dd610a3e565b6040516101ea9190612266565b60405180910390f35b6101fb610a64565b6040516102089190612440565b60405180910390f35b61022b60048036038101906102269190612462565b610d36565b005b61024760048036038101906102429190612184565b611143565b005b610251611203565b005b61025b61128b565b60405161026891906124be565b60405180910390f35b61027961129e565b60405161028691906124e8565b60405180910390f35b6102a960048036038101906102a49190612462565b6112c8565b005b6102c560048036038101906102c09190612462565b611586565b005b6102cf61187a565b6040516102dc91906124be565b60405180910390f35b6102ff60048036038101906102fa91906120f9565b61188d565b60405161031196959493929190612521565b60405180910390f35b610322611926565b60405161032f91906125a3565b60405180910390f35b610352600480360381019061034d91906120f9565b61194c565b60405161035f9190612639565b60405180910390f35b610382600480360381019061037d91906120f9565b611a7e565b005b61039e60048036038101906103999190612184565b611ba3565b005b6103a8611c9a565b6040516103b59190612675565b60405180910390f35b6103d860048036038101906103d391906120f9565b611cc0565b6040516103ea96959493929190612521565b60405180910390f35b60003390506000600960008481526020019081526020016000206040518060c001604052908160008201548152602001600182015481526020016002820160009054906101000a900473ffffffffffffffffffffffffffffffffffffffff1673ffffffffffffffffffffffffffffffffffffffff1673ffffffffffffffffffffffffffffffffffffffff1681526020016003820160009054906101000a900473ffffffffffffffffffffffffffffffffffffffff1673ffffffffffffffffffffffffffffffffffffffff1673ffffffffffffffffffffffffffffffffffffffff168152602001600482015481526020016005820160009054906101000a900460ff166001811115610507576105066122cb565b5b6001811115610519576105186122cb565b5b8152505090506000816000015103610566576040517f08c379a000000000000000000000000000000000000000000000000000000000815260040161055d906126ed565b60405180910390fd5b600180811115610579576105786122cb565b5b8160a0015160018111156105905761058f6122cb565b5b146105d0576040517f08c379a00000000000000000000000000000000000000000000000000000000081526004016105c790612759565b60405180910390fd5b600081604001519050600073ffffffffffffffffffffffffffffffffffffffff168173ffffffffffffffffffffffffffffffffffffffff1603610648576040517f08c379a000000000000000000000000000000000000000000000000000000000815260040161063f906127c5565b60405180910390fd5b3373ffffffffffffffffffffffffffffffffffffffff168173ffffffffffffffffffffffffffffffffffffffff16146106b6576040517f08c379a00000000000000000000000000000000000000000000000000000000081526004016106ad90612831565b60405180910390fd5b600560009054906101000a900473ffffffffffffffffffffffffffffffffffffffff1673ffffffffffffffffffffffffffffffffffffffff166342842e0e3083876040518463ffffffff1660e01b815260040161071593929190612851565b600060405180830381600087803b15801561072f57600080fd5b505af1158015610743573d6000803e3d6000fd5b5050505060008260a0019060018111156107605761075f6122cb565b5b90816001811115610774576107736122cb565b5b815250506009600085815260200190815260200160002060008082016000905560018201600090556002820160006101000a81549073ffffffffffffffffffffffffffffffffffffffff02191690556003820160006101000a81549073ffffffffffffffffffffffffffffffffffffffff021916905560048201600090556005820160006101000a81549060ff021916905550508273ffffffffffffffffffffffffffffffffffffffff16847f72ffc2a266acba5f77e2b49400103cb61b428f37a97057ebe671e83fddd71e67846000015142604051610855929190612888565b60405180910390a350505050565b61086b611d49565b73ffffffffffffffffffffffffffffffffffffffff1661088961129e565b73ffffffffffffffffffffffffffffffffffffffff16146108df576040517f08c379a00000000000000000000000000000000000000000000000000000000081526004016108d6906128fd565b60405180910390fd5b80600560006101000a81548173ffffffffffffffffffffffffffffffffffffffff021916908373ffffffffffffffffffffffffffffffffffffffff16021790555050565b61092b611d49565b73ffffffffffffffffffffffffffffffffffffffff1661094961129e565b73ffffffffffffffffffffffffffffffffffffffff161461099f576040517f08c379a0000000000000000000000000000000000000000000000000000000008152600401610996906128fd565b60405180910390fd5b80600360006101000a81548173ffffffffffffffffffffffffffffffffffffffff021916908373ffffffffffffffffffffffffffffffffffffffff16021790555050565b6380ac58cd60e01b81565b60008111610a31576040517f08c379a0000000000000000000000000000000000000000000000000000000008152600401610a2890612969565b60405180910390fd5b610a3b6007611d51565b50565b600360009054906101000a900473ffffffffffffffffffffffffffffffffffffffff1681565b60606000610a726007611d67565b905060008060005b83811015610af357600180811115610a9557610a946122cb565b5b6009600083815260200190815260200160002060050160009054906101000a900460ff166001811115610acb57610aca6122cb565b5b03610ae057600183610add91906129b8565b92505b8080610aeb90612a0e565b915050610a7a565b5060008267ffffffffffffffff811115610b1057610b0f612a56565b5b604051908082528060200260200182016040528015610b4957816020015b610b3661203b565b815260200190600190039081610b2e5790505b50905060005b84811015610d2b57600180811115610b6a57610b696122cb565b5b6009600083815260200190815260200160002060050160009054906101000a900460ff166001811115610ba057610b9f6122cb565b5b03610d18576000600960008381526020019081526020016000206000015490506000600960008381526020019081526020016000209050806040518060c001604052908160008201548152602001600182015481526020016002820160009054906101000a900473ffffffffffffffffffffffffffffffffffffffff1673ffffffffffffffffffffffffffffffffffffffff1673ffffffffffffffffffffffffffffffffffffffff1681526020016003820160009054906101000a900473ffffffffffffffffffffffffffffffffffffffff1673ffffffffffffffffffffffffffffffffffffffff1673ffffffffffffffffffffffffffffffffffffffff168152602001600482015481526020016005820160009054906101000a900460ff166001811115610cd257610cd16122cb565b5b6001811115610ce457610ce36122cb565b5b81525050848681518110610cfb57610cfa612a85565b5b6020026020010181905250600185610d1391906129b8565b945050505b8080610d2390612a0e565b915050610b4f565b508094505050505090565b60008111610d79576040517f08c379a0000000000000000000000000000000000000000000000000000000008152600401610d7090612969565b60405180910390fd5b6000600460009054906101000a900473ffffffffffffffffffffffffffffffffffffffff1673ffffffffffffffffffffffffffffffffffffffff166303ce1cb5846040518263ffffffff1660e01b8152600401610dd69190612ab4565b600060405180830381865afa158015610df3573d6000803e3d6000fd5b505050506040513d6000823e3d601f19601f82011682018060405250810190610e1c9190612d3a565b9050600015158160800151151514610e69576040517f08c379a0000000000000000000000000000000000000000000000000000000008152600401610e6090612dcf565b60405180910390fd5b6000610e756007611d67565b9050600460009054906101000a900473ffffffffffffffffffffffffffffffffffffffff1673ffffffffffffffffffffffffffffffffffffffff1663c1e9518a3330876040518463ffffffff1660e01b8152600401610ed693929190612e10565b600060405180830381600087803b158015610ef057600080fd5b505af1158015610f04573d6000803e3d6000fd5b50505050600560009054906101000a900473ffffffffffffffffffffffffffffffffffffffff1673ffffffffffffffffffffffffffffffffffffffff166323b872dd3330876040518463ffffffff1660e01b8152600401610f6793929190612851565b600060405180830381600087803b158015610f8157600080fd5b505af1158015610f95573d6000803e3d6000fd5b505050506040518060c001604052808281526020018581526020013373ffffffffffffffffffffffffffffffffffffffff1681526020013073ffffffffffffffffffffffffffffffffffffffff168152602001848152602001600180811115611001576110006122cb565b5b81525060096000838152602001908152602001600020600082015181600001556020820151816001015560408201518160020160006101000a81548173ffffffffffffffffffffffffffffffffffffffff021916908373ffffffffffffffffffffffffffffffffffffffff16021790555060608201518160030160006101000a81548173ffffffffffffffffffffffffffffffffffffffff021916908373ffffffffffffffffffffffffffffffffffffffff1602179055506080820151816004015560a08201518160050160006101000a81548160ff021916908360018111156110ee576110ed6122cb565b5b02179055509050506111006007611d51565b83817f38690a554ffbc44eb6a75016e47d517d0db8e6c37494adc68d6d0b2c66f0ab2133308760405161113593929190612851565b60405180910390a350505050565b61114b611d49565b73ffffffffffffffffffffffffffffffffffffffff1661116961129e565b73ffffffffffffffffffffffffffffffffffffffff16146111bf576040517f08c379a00000000000000000000000000000000000000000000000000000000081526004016111b6906128fd565b60405180910390fd5b80600460006101000a81548173ffffffffffffffffffffffffffffffffffffffff021916908373ffffffffffffffffffffffffffffffffffffffff16021790555050565b61120b611d49565b73ffffffffffffffffffffffffffffffffffffffff1661122961129e565b73ffffffffffffffffffffffffffffffffffffffff161461127f576040517f08c379a0000000000000000000000000000000000000000000000000000000008152600401611276906128fd565b60405180910390fd5b6112896000611d75565b565b600560149054906101000a900460ff1681565b6000600660009054906101000a900473ffffffffffffffffffffffffffffffffffffffff16905090565b60006009600084815260200190815260200160002060040154905060006009600085815260200190815260200160002060010154905060006009600086815260200190815260200160002060020160009054906101000a900473ffffffffffffffffffffffffffffffffffffffff1690506000600460009054906101000a900473ffffffffffffffffffffffffffffffffffffffff1673ffffffffffffffffffffffffffffffffffffffff166303ce1cb5846040518263ffffffff1660e01b81526004016113969190612ab4565b600060405180830381865afa1580156113b3573d6000803e3d6000fd5b505050506040513d6000823e3d601f19601f820116820180604052508101906113dc9190612d3a565b9050838514611420576040517f08c379a000000000000000000000000000000000000000000000000000000000815260040161141790612eb9565b60405180910390fd5b60001515816080015115151461146b576040517f08c379a000000000000000000000000000000000000000000000000000000000815260040161146290612dcf565b60405180910390fd5b611476868685611e3b565b336009600088815260200190815260200160002060030160006101000a81548173ffffffffffffffffffffffffffffffffffffffff021916908373ffffffffffffffffffffffffffffffffffffffff16021790555060006009600088815260200190815260200160002060050160006101000a81548160ff02191690836001811115611505576115046122cb565b5b02179055506115146008611d51565b3373ffffffffffffffffffffffffffffffffffffffff168273ffffffffffffffffffffffffffffffffffffffff16847f551327aee12d0a8b3ede8d0e3182a40a5ff3ed9f1811dd622915db30b609b7df89884260405161157693929190612f25565b60405180910390a4505050505050565b600081116115c9576040517f08c379a00000000000000000000000000000000000000000000000000000000081526004016115c090612969565b60405180910390fd5b6000600460009054906101000a900473ffffffffffffffffffffffffffffffffffffffff1673ffffffffffffffffffffffffffffffffffffffff166303ce1cb5846040518263ffffffff1660e01b81526004016116269190612ab4565b600060405180830381865afa158015611643573d6000803e3d6000fd5b505050506040513d6000823e3d601f19601f8201168201806040525081019061166c9190612d3a565b90506000151581608001511515146116b9576040517f08c379a00000000000000000000000000000000000000000000000000000000081526004016116b090612dcf565b60405180910390fd5b60006116c56007611d67565b90506116d084611a7e565b6040518060c001604052808281526020018581526020013373ffffffffffffffffffffffffffffffffffffffff1681526020013073ffffffffffffffffffffffffffffffffffffffff168152602001848152602001600180811115611738576117376122cb565b5b81525060096000838152602001908152602001600020600082015181600001556020820151816001015560408201518160020160006101000a81548173ffffffffffffffffffffffffffffffffffffffff021916908373ffffffffffffffffffffffffffffffffffffffff16021790555060608201518160030160006101000a81548173ffffffffffffffffffffffffffffffffffffffff021916908373ffffffffffffffffffffffffffffffffffffffff1602179055506080820151816004015560a08201518160050160006101000a81548160ff02191690836001811115611825576118246122cb565b5b02179055509050506118376007611d51565b83817f38690a554ffbc44eb6a75016e47d517d0db8e6c37494adc68d6d0b2c66f0ab2133308760405161186c93929190612851565b60405180910390a350505050565b600560159054906101000a900460ff1681565b6001818154811061189d57600080fd5b90600052602060002090600602016000915090508060000154908060010154908060020160009054906101000a900473ffffffffffffffffffffffffffffffffffffffff16908060030160009054906101000a900473ffffffffffffffffffffffffffffffffffffffff16908060040154908060050160009054906101000a900460ff16905086565b600460009054906101000a900473ffffffffffffffffffffffffffffffffffffffff1681565b61195461203b565b600960008381526020019081526020016000206040518060c001604052908160008201548152602001600182015481526020016002820160009054906101000a900473ffffffffffffffffffffffffffffffffffffffff1673ffffffffffffffffffffffffffffffffffffffff1673ffffffffffffffffffffffffffffffffffffffff1681526020016003820160009054906101000a900473ffffffffffffffffffffffffffffffffffffffff1673ffffffffffffffffffffffffffffffffffffffff1673ffffffffffffffffffffffffffffffffffffffff168152602001600482015481526020016005820160009054906101000a900460ff166001811115611a6157611a606122cb565b5b6001811115611a7357611a726122cb565b5b815250509050919050565b600460009054906101000a900473ffffffffffffffffffffffffffffffffffffffff1673ffffffffffffffffffffffffffffffffffffffff1663c1e9518a3330846040518463ffffffff1660e01b8152600401611add93929190612e10565b600060405180830381600087803b158015611af757600080fd5b505af1158015611b0b573d6000803e3d6000fd5b50505050600560009054906101000a900473ffffffffffffffffffffffffffffffffffffffff1673ffffffffffffffffffffffffffffffffffffffff166323b872dd3330846040518463ffffffff1660e01b8152600401611b6e93929190612851565b600060405180830381600087803b158015611b8857600080fd5b505af1158015611b9c573d6000803e3d6000fd5b5050505050565b611bab611d49565b73ffffffffffffffffffffffffffffffffffffffff16611bc961129e565b73ffffffffffffffffffffffffffffffffffffffff1614611c1f576040517f08c379a0000000000000000000000000000000000000000000000000000000008152600401611c16906128fd565b60405180910390fd5b600073ffffffffffffffffffffffffffffffffffffffff168173ffffffffffffffffffffffffffffffffffffffff1603611c8e576040517f08c379a0000000000000000000000000000000000000000000000000000000008152600401611c8590612fe1565b60405180910390fd5b611c9781611d75565b50565b600560009054906101000a900473ffffffffffffffffffffffffffffffffffffffff1681565b60026020528060005260406000206000915090508060000154908060010154908060020160009054906101000a900473ffffffffffffffffffffffffffffffffffffffff16908060030160009054906101000a900473ffffffffffffffffffffffffffffffffffffffff16908060040154908060050160009054906101000a900460ff16905086565b600033905090565b6001816000016000828254019250508190555050565b600081600001549050919050565b6000600660009054906101000a900473ffffffffffffffffffffffffffffffffffffffff16905081600660006101000a81548173ffffffffffffffffffffffffffffffffffffffff021916908373ffffffffffffffffffffffffffffffffffffffff1602179055508173ffffffffffffffffffffffffffffffffffffffff168173ffffffffffffffffffffffffffffffffffffffff167f8be0079c531659141344cd1fd0a4f28419497f9722a3daafe3b4186f6b6457e060405160405180910390a35050565b600360009054906101000a900473ffffffffffffffffffffffffffffffffffffffff1673ffffffffffffffffffffffffffffffffffffffff166323b872dd336009600087815260200190815260200160002060020160009054906101000a900473ffffffffffffffffffffffffffffffffffffffff16856040518463ffffffff1660e01b8152600401611ed093929190612851565b6020604051808303816000875af1158015611eef573d6000803e3d6000fd5b505050506040513d601f19601f82011682018060405250810190611f139190613001565b50600460009054906101000a900473ffffffffffffffffffffffffffffffffffffffff1673ffffffffffffffffffffffffffffffffffffffff1663c1e9518a3330846040518463ffffffff1660e01b8152600401611f7393929190612851565b600060405180830381600087803b158015611f8d57600080fd5b505af1158015611fa1573d6000803e3d6000fd5b50505050600560009054906101000a900473ffffffffffffffffffffffffffffffffffffffff1673ffffffffffffffffffffffffffffffffffffffff166323b872dd3033846040518463ffffffff1660e01b815260040161200493929190612851565b600060405180830381600087803b15801561201e57600080fd5b505af1158015612032573d6000803e3d6000fd5b50505050505050565b6040518060c001604052806000815260200160008152602001600073ffffffffffffffffffffffffffffffffffffffff168152602001600073ffffffffffffffffffffffffffffffffffffffff16815260200160008152602001600060018111156120a9576120a86122cb565b5b81525090565b6000604051905090565b600080fd5b600080fd5b6000819050919050565b6120d6816120c3565b81146120e157600080fd5b50565b6000813590506120f3816120cd565b92915050565b60006020828403121561210f5761210e6120b9565b5b600061211d848285016120e4565b91505092915050565b600073ffffffffffffffffffffffffffffffffffffffff82169050919050565b600061215182612126565b9050919050565b61216181612146565b811461216c57600080fd5b50565b60008135905061217e81612158565b92915050565b60006020828403121561219a576121996120b9565b5b60006121a88482850161216f565b91505092915050565b60007fffffffff0000000000000000000000000000000000000000000000000000000082169050919050565b6121e6816121b1565b82525050565b600060208201905061220160008301846121dd565b92915050565b6000819050919050565b600061222c61222761222284612126565b612207565b612126565b9050919050565b600061223e82612211565b9050919050565b600061225082612233565b9050919050565b61226081612245565b82525050565b600060208201905061227b6000830184612257565b92915050565b600081519050919050565b600082825260208201905092915050565b6000819050602082019050919050565b6122b6816120c3565b82525050565b6122c581612146565b82525050565b7f4e487b7100000000000000000000000000000000000000000000000000000000600052602160045260246000fd5b6002811061230b5761230a6122cb565b5b50565b600081905061231c826122fa565b919050565b600061232c8261230e565b9050919050565b61233c81612321565b82525050565b60c08201600082015161235860008501826122ad565b50602082015161236b60208501826122ad565b50604082015161237e60408501826122bc565b50606082015161239160608501826122bc565b5060808201516123a460808501826122ad565b5060a08201516123b760a0850182612333565b50505050565b60006123c98383612342565b60c08301905092915050565b6000602082019050919050565b60006123ed82612281565b6123f7818561228c565b93506124028361229d565b8060005b8381101561243357815161241a88826123bd565b9750612425836123d5565b925050600181019050612406565b5085935050505092915050565b6000602082019050818103600083015261245a81846123e2565b905092915050565b60008060408385031215612479576124786120b9565b5b6000612487858286016120e4565b9250506020612498858286016120e4565b9150509250929050565b600060ff82169050919050565b6124b8816124a2565b82525050565b60006020820190506124d360008301846124af565b92915050565b6124e281612146565b82525050565b60006020820190506124fd60008301846124d9565b92915050565b61250c816120c3565b82525050565b61251b81612321565b82525050565b600060c0820190506125366000830189612503565b6125436020830188612503565b61255060408301876124d9565b61255d60608301866124d9565b61256a6080830185612503565b61257760a0830184612512565b979650505050505050565b600061258d82612233565b9050919050565b61259d81612582565b82525050565b60006020820190506125b86000830184612594565b92915050565b60c0820160008201516125d460008501826122ad565b5060208201516125e760208501826122ad565b5060408201516125fa60408501826122bc565b50606082015161260d60608501826122bc565b50608082015161262060808501826122ad565b5060a082015161263360a0850182612333565b50505050565b600060c08201905061264e60008301846125be565b92915050565b600061265f82612233565b9050919050565b61266f81612654565b82525050565b600060208201905061268a6000830184612666565b92915050565b600082825260208201905092915050565b7f4173736574206e6f74207075626c697368656400000000000000000000000000600082015250565b60006126d7601383612690565b91506126e2826126a1565b602082019050919050565b60006020820190508181036000830152612706816126ca565b9050919050565b7f41737365742064656c6973746564000000000000000000000000000000000000600082015250565b6000612743600e83612690565b915061274e8261270d565b602082019050919050565b6000602082019050818103600083015261277281612736565b9050919050565b7f496e76616c696420616464726573730000000000000000000000000000000000600082015250565b60006127af600f83612690565b91506127ba82612779565b602082019050919050565b600060208201905081810360008301526127de816127a2565b9050919050565b7f4f6e6c792073656c6c65722063616e2064656c69737400000000000000000000600082015250565b600061281b601683612690565b9150612826826127e5565b602082019050919050565b6000602082019050818103600083015261284a8161280e565b9050919050565b600060608201905061286660008301866124d9565b61287360208301856124d9565b6128806040830184612503565b949350505050565b600060408201905061289d6000830185612503565b6128aa6020830184612503565b9392505050565b7f4f776e61626c653a2063616c6c6572206973206e6f7420746865206f776e6572600082015250565b60006128e7602083612690565b91506128f2826128b1565b602082019050919050565b60006020820190508181036000830152612916816128da565b9050919050565b7f5072696365206d757374206265206174206c6561737420312077656900000000600082015250565b6000612953601c83612690565b915061295e8261291d565b602082019050919050565b6000602082019050818103600083015261298281612946565b9050919050565b7f4e487b7100000000000000000000000000000000000000000000000000000000600052601160045260246000fd5b60006129c3826120c3565b91506129ce836120c3565b9250827fffffffffffffffffffffffffffffffffffffffffffffffffffffffffffffffff03821115612a0357612a02612989565b5b828201905092915050565b6000612a19826120c3565b91507fffffffffffffffffffffffffffffffffffffffffffffffffffffffffffffffff8203612a4b57612a4a612989565b5b600182019050919050565b7f4e487b7100000000000000000000000000000000000000000000000000000000600052604160045260246000fd5b7f4e487b7100000000000000000000000000000000000000000000000000000000600052603260045260246000fd5b6000602082019050612ac96000830184612503565b92915050565b600080fd5b6000601f19601f8301169050919050565b612aee82612ad4565b810181811067ffffffffffffffff82111715612b0d57612b0c612a56565b5b80604052505050565b6000612b206120af565b9050612b2c8282612ae5565b919050565b600080fd5b600081519050612b45816120cd565b92915050565b600081519050612b5a81612158565b92915050565b600080fd5b600080fd5b600067ffffffffffffffff821115612b8557612b84612a56565b5b612b8e82612ad4565b9050602081019050919050565b60005b83811015612bb9578082015181840152602081019050612b9e565b83811115612bc8576000848401525b50505050565b6000612be1612bdc84612b6a565b612b16565b905082815260208101848484011115612bfd57612bfc612b65565b5b612c08848285612b9b565b509392505050565b600082601f830112612c2557612c24612b60565b5b8151612c35848260208601612bce565b91505092915050565b60008115159050919050565b612c5381612c3e565b8114612c5e57600080fd5b50565b600081519050612c7081612c4a565b92915050565b600060a08284031215612c8c57612c8b612acf565b5b612c9660a0612b16565b90506000612ca684828501612b36565b6000830152506020612cba84828501612b4b565b602083015250604082015167ffffffffffffffff811115612cde57612cdd612b31565b5b612cea84828501612c10565b604083015250606082015167ffffffffffffffff811115612d0e57612d0d612b31565b5b612d1a84828501612c10565b6060830152506080612d2e84828501612c61565b60808301525092915050565b600060208284031215612d5057612d4f6120b9565b5b600082015167ffffffffffffffff811115612d6e57612d6d6120be565b5b612d7a84828501612c76565b91505092915050565b7f4974656d206973206e6f7420617661696c61626c65206e6f7720210000000000600082015250565b6000612db9601b83612690565b9150612dc482612d83565b602082019050919050565b60006020820190508181036000830152612de881612dac565b9050919050565b6000612dfa82612233565b9050919050565b612e0a81612def565b82525050565b6000606082019050612e256000830186612e01565b612e3260208301856124d9565b612e3f6040830184612503565b949350505050565b7f506c65617365207375626d6974207468652061736b696e67207072696365206960008201527f6e206f7264657220746f20636f6d706c65746520746865207075726368617365602082015250565b6000612ea3604083612690565b9150612eae82612e47565b604082019050919050565b60006020820190508181036000830152612ed281612e96565b9050919050565b7f5351460000000000000000000000000000000000000000000000000000000000600082015250565b6000612f0f600383612690565b9150612f1a82612ed9565b602082019050919050565b6000608082019050612f3a6000830186612503565b612f476020830185612503565b8181036040830152612f5881612f02565b9050612f676060830184612503565b949350505050565b7f4f776e61626c653a206e6577206f776e657220697320746865207a65726f206160008201527f6464726573730000000000000000000000000000000000000000000000000000602082015250565b6000612fcb602683612690565b9150612fd682612f6f565b604082019050919050565b60006020820190508181036000830152612ffa81612fbe565b9050919050565b600060208284031215613017576130166120b9565b5b600061302584828501612c61565b9150509291505056fea2646970667358221220637bd059dff27cb68d40538ebc335ff0693bc6129becf8e4f00bd77e1054b09064736f6c634300080d0033",
					"opcodes": "PUSH1 0x80 PUSH1 0x40 MSTORE PUSH1 0x40 MLOAD PUSH3 0x3325 CODESIZE SUB DUP1 PUSH3 0x3325 DUP4 CODECOPY DUP2 DUP2 ADD PUSH1 0x40 MSTORE DUP2 ADD SWAP1 PUSH3 0x29 SWAP2 SWAP1 PUSH3 0x255 JUMP JUMPDEST PUSH1 0x1 PUSH1 0x0 DUP2 SWAP1 SSTORE POP PUSH3 0x51 PUSH3 0x45 PUSH3 0x11D PUSH1 0x20 SHL PUSH1 0x20 SHR JUMP JUMPDEST PUSH3 0x125 PUSH1 0x20 SHL PUSH1 0x20 SHR JUMP JUMPDEST DUP3 PUSH1 0x3 PUSH1 0x0 PUSH2 0x100 EXP DUP2 SLOAD DUP2 PUSH20 0xFFFFFFFFFFFFFFFFFFFFFFFFFFFFFFFFFFFFFFFF MUL NOT AND SWAP1 DUP4 PUSH20 0xFFFFFFFFFFFFFFFFFFFFFFFFFFFFFFFFFFFFFFFF AND MUL OR SWAP1 SSTORE POP DUP2 PUSH1 0x5 PUSH1 0x0 PUSH2 0x100 EXP DUP2 SLOAD DUP2 PUSH20 0xFFFFFFFFFFFFFFFFFFFFFFFFFFFFFFFFFFFFFFFF MUL NOT AND SWAP1 DUP4 PUSH20 0xFFFFFFFFFFFFFFFFFFFFFFFFFFFFFFFFFFFFFFFF AND MUL OR SWAP1 SSTORE POP DUP1 PUSH1 0x4 PUSH1 0x0 PUSH2 0x100 EXP DUP2 SLOAD DUP2 PUSH20 0xFFFFFFFFFFFFFFFFFFFFFFFFFFFFFFFFFFFFFFFF MUL NOT AND SWAP1 DUP4 PUSH20 0xFFFFFFFFFFFFFFFFFFFFFFFFFFFFFFFFFFFFFFFF AND MUL OR SWAP1 SSTORE POP POP POP POP PUSH3 0x2B1 JUMP JUMPDEST PUSH1 0x0 CALLER SWAP1 POP SWAP1 JUMP JUMPDEST PUSH1 0x0 PUSH1 0x6 PUSH1 0x0 SWAP1 SLOAD SWAP1 PUSH2 0x100 EXP SWAP1 DIV PUSH20 0xFFFFFFFFFFFFFFFFFFFFFFFFFFFFFFFFFFFFFFFF AND SWAP1 POP DUP2 PUSH1 0x6 PUSH1 0x0 PUSH2 0x100 EXP DUP2 SLOAD DUP2 PUSH20 0xFFFFFFFFFFFFFFFFFFFFFFFFFFFFFFFFFFFFFFFF MUL NOT AND SWAP1 DUP4 PUSH20 0xFFFFFFFFFFFFFFFFFFFFFFFFFFFFFFFFFFFFFFFF AND MUL OR SWAP1 SSTORE POP DUP2 PUSH20 0xFFFFFFFFFFFFFFFFFFFFFFFFFFFFFFFFFFFFFFFF AND DUP2 PUSH20 0xFFFFFFFFFFFFFFFFFFFFFFFFFFFFFFFFFFFFFFFF AND PUSH32 0x8BE0079C531659141344CD1FD0A4F28419497F9722A3DAAFE3B4186F6B6457E0 PUSH1 0x40 MLOAD PUSH1 0x40 MLOAD DUP1 SWAP2 SUB SWAP1 LOG3 POP POP JUMP JUMPDEST PUSH1 0x0 DUP1 REVERT JUMPDEST PUSH1 0x0 PUSH20 0xFFFFFFFFFFFFFFFFFFFFFFFFFFFFFFFFFFFFFFFF DUP3 AND SWAP1 POP SWAP2 SWAP1 POP JUMP JUMPDEST PUSH1 0x0 PUSH3 0x21D DUP3 PUSH3 0x1F0 JUMP JUMPDEST SWAP1 POP SWAP2 SWAP1 POP JUMP JUMPDEST PUSH3 0x22F DUP2 PUSH3 0x210 JUMP JUMPDEST DUP2 EQ PUSH3 0x23B JUMPI PUSH1 0x0 DUP1 REVERT JUMPDEST POP JUMP JUMPDEST PUSH1 0x0 DUP2 MLOAD SWAP1 POP PUSH3 0x24F DUP2 PUSH3 0x224 JUMP JUMPDEST SWAP3 SWAP2 POP POP JUMP JUMPDEST PUSH1 0x0 DUP1 PUSH1 0x0 PUSH1 0x60 DUP5 DUP7 SUB SLT ISZERO PUSH3 0x271 JUMPI PUSH3 0x270 PUSH3 0x1EB JUMP JUMPDEST JUMPDEST PUSH1 0x0 PUSH3 0x281 DUP7 DUP3 DUP8 ADD PUSH3 0x23E JUMP JUMPDEST SWAP4 POP POP PUSH1 0x20 PUSH3 0x294 DUP7 DUP3 DUP8 ADD PUSH3 0x23E JUMP JUMPDEST SWAP3 POP POP PUSH1 0x40 PUSH3 0x2A7 DUP7 DUP3 DUP8 ADD PUSH3 0x23E JUMP JUMPDEST SWAP2 POP POP SWAP3 POP SWAP3 POP SWAP3 JUMP JUMPDEST PUSH2 0x3064 DUP1 PUSH3 0x2C1 PUSH1 0x0 CODECOPY PUSH1 0x0 RETURN INVALID PUSH1 0x80 PUSH1 0x40 MSTORE CALLVALUE DUP1 ISZERO PUSH2 0x10 JUMPI PUSH1 0x0 DUP1 REVERT JUMPDEST POP PUSH1 0x4 CALLDATASIZE LT PUSH2 0x142 JUMPI PUSH1 0x0 CALLDATALOAD PUSH1 0xE0 SHR DUP1 PUSH4 0x8DA5CB5B GT PUSH2 0xB8 JUMPI DUP1 PUSH4 0xC45A0155 GT PUSH2 0x7C JUMPI DUP1 PUSH4 0xC45A0155 EQ PUSH2 0x31A JUMPI DUP1 PUSH4 0xC7BE7A49 EQ PUSH2 0x338 JUMPI DUP1 PUSH4 0xE78E717D EQ PUSH2 0x368 JUMPI DUP1 PUSH4 0xF2FDE38B EQ PUSH2 0x384 JUMPI DUP1 PUSH4 0xF55DE0C7 EQ PUSH2 0x3A0 JUMPI DUP1 PUSH4 0xFF68FA6E EQ PUSH2 0x3BE JUMPI PUSH2 0x142 JUMP JUMPDEST DUP1 PUSH4 0x8DA5CB5B EQ PUSH2 0x271 JUMPI DUP1 PUSH4 0xA1C11CA8 EQ PUSH2 0x28F JUMPI DUP1 PUSH4 0xAE295F94 EQ PUSH2 0x2AB JUMPI DUP1 PUSH4 0xB7A60C7E EQ PUSH2 0x2C7 JUMPI DUP1 PUSH4 0xBFB231D2 EQ PUSH2 0x2E5 JUMPI PUSH2 0x142 JUMP JUMPDEST DUP1 PUSH4 0x3FC15F15 GT PUSH2 0x10A JUMPI DUP1 PUSH4 0x3FC15F15 EQ PUSH2 0x1D5 JUMPI DUP1 PUSH4 0x42199F88 EQ PUSH2 0x1F3 JUMPI DUP1 PUSH4 0x49FB7D4B EQ PUSH2 0x211 JUMPI DUP1 PUSH4 0x5BB47808 EQ PUSH2 0x22D JUMPI DUP1 PUSH4 0x715018A6 EQ PUSH2 0x249 JUMPI DUP1 PUSH4 0x85A8B36C EQ PUSH2 0x253 JUMPI PUSH2 0x142 JUMP JUMPDEST DUP1 PUSH4 0x10061631 EQ PUSH2 0x147 JUMPI DUP1 PUSH4 0x15B12494 EQ PUSH2 0x163 JUMPI DUP1 PUSH4 0x27CE464E EQ PUSH2 0x17F JUMPI DUP1 PUSH4 0x2B4C32BE EQ PUSH2 0x19B JUMPI DUP1 PUSH4 0x3E48CA65 EQ PUSH2 0x1B9 JUMPI JUMPDEST PUSH1 0x0 DUP1 REVERT JUMPDEST PUSH2 0x161 PUSH1 0x4 DUP1 CALLDATASIZE SUB DUP2 ADD SWAP1 PUSH2 0x15C SWAP2 SWAP1 PUSH2 0x20F9 JUMP JUMPDEST PUSH2 0x3F3 JUMP JUMPDEST STOP JUMPDEST PUSH2 0x17D PUSH1 0x4 DUP1 CALLDATASIZE SUB DUP2 ADD SWAP1 PUSH2 0x178 SWAP2 SWAP1 PUSH2 0x2184 JUMP JUMPDEST PUSH2 0x863 JUMP JUMPDEST STOP JUMPDEST PUSH2 0x199 PUSH1 0x4 DUP1 CALLDATASIZE SUB DUP2 ADD SWAP1 PUSH2 0x194 SWAP2 SWAP1 PUSH2 0x2184 JUMP JUMPDEST PUSH2 0x923 JUMP JUMPDEST STOP JUMPDEST PUSH2 0x1A3 PUSH2 0x9E3 JUMP JUMPDEST PUSH1 0x40 MLOAD PUSH2 0x1B0 SWAP2 SWAP1 PUSH2 0x21EC JUMP JUMPDEST PUSH1 0x40 MLOAD DUP1 SWAP2 SUB SWAP1 RETURN JUMPDEST PUSH2 0x1D3 PUSH1 0x4 DUP1 CALLDATASIZE SUB DUP2 ADD SWAP1 PUSH2 0x1CE SWAP2 SWAP1 PUSH2 0x20F9 JUMP JUMPDEST PUSH2 0x9EE JUMP JUMPDEST STOP JUMPDEST PUSH2 0x1DD PUSH2 0xA3E JUMP JUMPDEST PUSH1 0x40 MLOAD PUSH2 0x1EA SWAP2 SWAP1 PUSH2 0x2266 JUMP JUMPDEST PUSH1 0x40 MLOAD DUP1 SWAP2 SUB SWAP1 RETURN JUMPDEST PUSH2 0x1FB PUSH2 0xA64 JUMP JUMPDEST PUSH1 0x40 MLOAD PUSH2 0x208 SWAP2 SWAP1 PUSH2 0x2440 JUMP JUMPDEST PUSH1 0x40 MLOAD DUP1 SWAP2 SUB SWAP1 RETURN JUMPDEST PUSH2 0x22B PUSH1 0x4 DUP1 CALLDATASIZE SUB DUP2 ADD SWAP1 PUSH2 0x226 SWAP2 SWAP1 PUSH2 0x2462 JUMP JUMPDEST PUSH2 0xD36 JUMP JUMPDEST STOP JUMPDEST PUSH2 0x247 PUSH1 0x4 DUP1 CALLDATASIZE SUB DUP2 ADD SWAP1 PUSH2 0x242 SWAP2 SWAP1 PUSH2 0x2184 JUMP JUMPDEST PUSH2 0x1143 JUMP JUMPDEST STOP JUMPDEST PUSH2 0x251 PUSH2 0x1203 JUMP JUMPDEST STOP JUMPDEST PUSH2 0x25B PUSH2 0x128B JUMP JUMPDEST PUSH1 0x40 MLOAD PUSH2 0x268 SWAP2 SWAP1 PUSH2 0x24BE JUMP JUMPDEST PUSH1 0x40 MLOAD DUP1 SWAP2 SUB SWAP1 RETURN JUMPDEST PUSH2 0x279 PUSH2 0x129E JUMP JUMPDEST PUSH1 0x40 MLOAD PUSH2 0x286 SWAP2 SWAP1 PUSH2 0x24E8 JUMP JUMPDEST PUSH1 0x40 MLOAD DUP1 SWAP2 SUB SWAP1 RETURN JUMPDEST PUSH2 0x2A9 PUSH1 0x4 DUP1 CALLDATASIZE SUB DUP2 ADD SWAP1 PUSH2 0x2A4 SWAP2 SWAP1 PUSH2 0x2462 JUMP JUMPDEST PUSH2 0x12C8 JUMP JUMPDEST STOP JUMPDEST PUSH2 0x2C5 PUSH1 0x4 DUP1 CALLDATASIZE SUB DUP2 ADD SWAP1 PUSH2 0x2C0 SWAP2 SWAP1 PUSH2 0x2462 JUMP JUMPDEST PUSH2 0x1586 JUMP JUMPDEST STOP JUMPDEST PUSH2 0x2CF PUSH2 0x187A JUMP JUMPDEST PUSH1 0x40 MLOAD PUSH2 0x2DC SWAP2 SWAP1 PUSH2 0x24BE JUMP JUMPDEST PUSH1 0x40 MLOAD DUP1 SWAP2 SUB SWAP1 RETURN JUMPDEST PUSH2 0x2FF PUSH1 0x4 DUP1 CALLDATASIZE SUB DUP2 ADD SWAP1 PUSH2 0x2FA SWAP2 SWAP1 PUSH2 0x20F9 JUMP JUMPDEST PUSH2 0x188D JUMP JUMPDEST PUSH1 0x40 MLOAD PUSH2 0x311 SWAP7 SWAP6 SWAP5 SWAP4 SWAP3 SWAP2 SWAP1 PUSH2 0x2521 JUMP JUMPDEST PUSH1 0x40 MLOAD DUP1 SWAP2 SUB SWAP1 RETURN JUMPDEST PUSH2 0x322 PUSH2 0x1926 JUMP JUMPDEST PUSH1 0x40 MLOAD PUSH2 0x32F SWAP2 SWAP1 PUSH2 0x25A3 JUMP JUMPDEST PUSH1 0x40 MLOAD DUP1 SWAP2 SUB SWAP1 RETURN JUMPDEST PUSH2 0x352 PUSH1 0x4 DUP1 CALLDATASIZE SUB DUP2 ADD SWAP1 PUSH2 0x34D SWAP2 SWAP1 PUSH2 0x20F9 JUMP JUMPDEST PUSH2 0x194C JUMP JUMPDEST PUSH1 0x40 MLOAD PUSH2 0x35F SWAP2 SWAP1 PUSH2 0x2639 JUMP JUMPDEST PUSH1 0x40 MLOAD DUP1 SWAP2 SUB SWAP1 RETURN JUMPDEST PUSH2 0x382 PUSH1 0x4 DUP1 CALLDATASIZE SUB DUP2 ADD SWAP1 PUSH2 0x37D SWAP2 SWAP1 PUSH2 0x20F9 JUMP JUMPDEST PUSH2 0x1A7E JUMP JUMPDEST STOP JUMPDEST PUSH2 0x39E PUSH1 0x4 DUP1 CALLDATASIZE SUB DUP2 ADD SWAP1 PUSH2 0x399 SWAP2 SWAP1 PUSH2 0x2184 JUMP JUMPDEST PUSH2 0x1BA3 JUMP JUMPDEST STOP JUMPDEST PUSH2 0x3A8 PUSH2 0x1C9A JUMP JUMPDEST PUSH1 0x40 MLOAD PUSH2 0x3B5 SWAP2 SWAP1 PUSH2 0x2675 JUMP JUMPDEST PUSH1 0x40 MLOAD DUP1 SWAP2 SUB SWAP1 RETURN JUMPDEST PUSH2 0x3D8 PUSH1 0x4 DUP1 CALLDATASIZE SUB DUP2 ADD SWAP1 PUSH2 0x3D3 SWAP2 SWAP1 PUSH2 0x20F9 JUMP JUMPDEST PUSH2 0x1CC0 JUMP JUMPDEST PUSH1 0x40 MLOAD PUSH2 0x3EA SWAP7 SWAP6 SWAP5 SWAP4 SWAP3 SWAP2 SWAP1 PUSH2 0x2521 JUMP JUMPDEST PUSH1 0x40 MLOAD DUP1 SWAP2 SUB SWAP1 RETURN JUMPDEST PUSH1 0x0 CALLER SWAP1 POP PUSH1 0x0 PUSH1 0x9 PUSH1 0x0 DUP5 DUP2 MSTORE PUSH1 0x20 ADD SWAP1 DUP2 MSTORE PUSH1 0x20 ADD PUSH1 0x0 KECCAK256 PUSH1 0x40 MLOAD DUP1 PUSH1 0xC0 ADD PUSH1 0x40 MSTORE SWAP1 DUP2 PUSH1 0x0 DUP3 ADD SLOAD DUP2 MSTORE PUSH1 0x20 ADD PUSH1 0x1 DUP3 ADD SLOAD DUP2 MSTORE PUSH1 0x20 ADD PUSH1 0x2 DUP3 ADD PUSH1 0x0 SWAP1 SLOAD SWAP1 PUSH2 0x100 EXP SWAP1 DIV PUSH20 0xFFFFFFFFFFFFFFFFFFFFFFFFFFFFFFFFFFFFFFFF AND PUSH20 0xFFFFFFFFFFFFFFFFFFFFFFFFFFFFFFFFFFFFFFFF AND PUSH20 0xFFFFFFFFFFFFFFFFFFFFFFFFFFFFFFFFFFFFFFFF AND DUP2 MSTORE PUSH1 0x20 ADD PUSH1 0x3 DUP3 ADD PUSH1 0x0 SWAP1 SLOAD SWAP1 PUSH2 0x100 EXP SWAP1 DIV PUSH20 0xFFFFFFFFFFFFFFFFFFFFFFFFFFFFFFFFFFFFFFFF AND PUSH20 0xFFFFFFFFFFFFFFFFFFFFFFFFFFFFFFFFFFFFFFFF AND PUSH20 0xFFFFFFFFFFFFFFFFFFFFFFFFFFFFFFFFFFFFFFFF AND DUP2 MSTORE PUSH1 0x20 ADD PUSH1 0x4 DUP3 ADD SLOAD DUP2 MSTORE PUSH1 0x20 ADD PUSH1 0x5 DUP3 ADD PUSH1 0x0 SWAP1 SLOAD SWAP1 PUSH2 0x100 EXP SWAP1 DIV PUSH1 0xFF AND PUSH1 0x1 DUP2 GT ISZERO PUSH2 0x507 JUMPI PUSH2 0x506 PUSH2 0x22CB JUMP JUMPDEST JUMPDEST PUSH1 0x1 DUP2 GT ISZERO PUSH2 0x519 JUMPI PUSH2 0x518 PUSH2 0x22CB JUMP JUMPDEST JUMPDEST DUP2 MSTORE POP POP SWAP1 POP PUSH1 0x0 DUP2 PUSH1 0x0 ADD MLOAD SUB PUSH2 0x566 JUMPI PUSH1 0x40 MLOAD PUSH32 0x8C379A000000000000000000000000000000000000000000000000000000000 DUP2 MSTORE PUSH1 0x4 ADD PUSH2 0x55D SWAP1 PUSH2 0x26ED JUMP JUMPDEST PUSH1 0x40 MLOAD DUP1 SWAP2 SUB SWAP1 REVERT JUMPDEST PUSH1 0x1 DUP1 DUP2 GT ISZERO PUSH2 0x579 JUMPI PUSH2 0x578 PUSH2 0x22CB JUMP JUMPDEST JUMPDEST DUP2 PUSH1 0xA0 ADD MLOAD PUSH1 0x1 DUP2 GT ISZERO PUSH2 0x590 JUMPI PUSH2 0x58F PUSH2 0x22CB JUMP JUMPDEST JUMPDEST EQ PUSH2 0x5D0 JUMPI PUSH1 0x40 MLOAD PUSH32 0x8C379A000000000000000000000000000000000000000000000000000000000 DUP2 MSTORE PUSH1 0x4 ADD PUSH2 0x5C7 SWAP1 PUSH2 0x2759 JUMP JUMPDEST PUSH1 0x40 MLOAD DUP1 SWAP2 SUB SWAP1 REVERT JUMPDEST PUSH1 0x0 DUP2 PUSH1 0x40 ADD MLOAD SWAP1 POP PUSH1 0x0 PUSH20 0xFFFFFFFFFFFFFFFFFFFFFFFFFFFFFFFFFFFFFFFF AND DUP2 PUSH20 0xFFFFFFFFFFFFFFFFFFFFFFFFFFFFFFFFFFFFFFFF AND SUB PUSH2 0x648 JUMPI PUSH1 0x40 MLOAD PUSH32 0x8C379A000000000000000000000000000000000000000000000000000000000 DUP2 MSTORE PUSH1 0x4 ADD PUSH2 0x63F SWAP1 PUSH2 0x27C5 JUMP JUMPDEST PUSH1 0x40 MLOAD DUP1 SWAP2 SUB SWAP1 REVERT JUMPDEST CALLER PUSH20 0xFFFFFFFFFFFFFFFFFFFFFFFFFFFFFFFFFFFFFFFF AND DUP2 PUSH20 0xFFFFFFFFFFFFFFFFFFFFFFFFFFFFFFFFFFFFFFFF AND EQ PUSH2 0x6B6 JUMPI PUSH1 0x40 MLOAD PUSH32 0x8C379A000000000000000000000000000000000000000000000000000000000 DUP2 MSTORE PUSH1 0x4 ADD PUSH2 0x6AD SWAP1 PUSH2 0x2831 JUMP JUMPDEST PUSH1 0x40 MLOAD DUP1 SWAP2 SUB SWAP1 REVERT JUMPDEST PUSH1 0x5 PUSH1 0x0 SWAP1 SLOAD SWAP1 PUSH2 0x100 EXP SWAP1 DIV PUSH20 0xFFFFFFFFFFFFFFFFFFFFFFFFFFFFFFFFFFFFFFFF AND PUSH20 0xFFFFFFFFFFFFFFFFFFFFFFFFFFFFFFFFFFFFFFFF AND PUSH4 0x42842E0E ADDRESS DUP4 DUP8 PUSH1 0x40 MLOAD DUP5 PUSH4 0xFFFFFFFF AND PUSH1 0xE0 SHL DUP2 MSTORE PUSH1 0x4 ADD PUSH2 0x715 SWAP4 SWAP3 SWAP2 SWAP1 PUSH2 0x2851 JUMP JUMPDEST PUSH1 0x0 PUSH1 0x40 MLOAD DUP1 DUP4 SUB DUP2 PUSH1 0x0 DUP8 DUP1 EXTCODESIZE ISZERO DUP1 ISZERO PUSH2 0x72F JUMPI PUSH1 0x0 DUP1 REVERT JUMPDEST POP GAS CALL ISZERO DUP1 ISZERO PUSH2 0x743 JUMPI RETURNDATASIZE PUSH1 0x0 DUP1 RETURNDATACOPY RETURNDATASIZE PUSH1 0x0 REVERT JUMPDEST POP POP POP POP PUSH1 0x0 DUP3 PUSH1 0xA0 ADD SWAP1 PUSH1 0x1 DUP2 GT ISZERO PUSH2 0x760 JUMPI PUSH2 0x75F PUSH2 0x22CB JUMP JUMPDEST JUMPDEST SWAP1 DUP2 PUSH1 0x1 DUP2 GT ISZERO PUSH2 0x774 JUMPI PUSH2 0x773 PUSH2 0x22CB JUMP JUMPDEST JUMPDEST DUP2 MSTORE POP POP PUSH1 0x9 PUSH1 0x0 DUP6 DUP2 MSTORE PUSH1 0x20 ADD SWAP1 DUP2 MSTORE PUSH1 0x20 ADD PUSH1 0x0 KECCAK256 PUSH1 0x0 DUP1 DUP3 ADD PUSH1 0x0 SWAP1 SSTORE PUSH1 0x1 DUP3 ADD PUSH1 0x0 SWAP1 SSTORE PUSH1 0x2 DUP3 ADD PUSH1 0x0 PUSH2 0x100 EXP DUP2 SLOAD SWAP1 PUSH20 0xFFFFFFFFFFFFFFFFFFFFFFFFFFFFFFFFFFFFFFFF MUL NOT AND SWAP1 SSTORE PUSH1 0x3 DUP3 ADD PUSH1 0x0 PUSH2 0x100 EXP DUP2 SLOAD SWAP1 PUSH20 0xFFFFFFFFFFFFFFFFFFFFFFFFFFFFFFFFFFFFFFFF MUL NOT AND SWAP1 SSTORE PUSH1 0x4 DUP3 ADD PUSH1 0x0 SWAP1 SSTORE PUSH1 0x5 DUP3 ADD PUSH1 0x0 PUSH2 0x100 EXP DUP2 SLOAD SWAP1 PUSH1 0xFF MUL NOT AND SWAP1 SSTORE POP POP DUP3 PUSH20 0xFFFFFFFFFFFFFFFFFFFFFFFFFFFFFFFFFFFFFFFF AND DUP5 PUSH32 0x72FFC2A266ACBA5F77E2B49400103CB61B428F37A97057EBE671E83FDDD71E67 DUP5 PUSH1 0x0 ADD MLOAD TIMESTAMP PUSH1 0x40 MLOAD PUSH2 0x855 SWAP3 SWAP2 SWAP1 PUSH2 0x2888 JUMP JUMPDEST PUSH1 0x40 MLOAD DUP1 SWAP2 SUB SWAP1 LOG3 POP POP POP POP JUMP JUMPDEST PUSH2 0x86B PUSH2 0x1D49 JUMP JUMPDEST PUSH20 0xFFFFFFFFFFFFFFFFFFFFFFFFFFFFFFFFFFFFFFFF AND PUSH2 0x889 PUSH2 0x129E JUMP JUMPDEST PUSH20 0xFFFFFFFFFFFFFFFFFFFFFFFFFFFFFFFFFFFFFFFF AND EQ PUSH2 0x8DF JUMPI PUSH1 0x40 MLOAD PUSH32 0x8C379A000000000000000000000000000000000000000000000000000000000 DUP2 MSTORE PUSH1 0x4 ADD PUSH2 0x8D6 SWAP1 PUSH2 0x28FD JUMP JUMPDEST PUSH1 0x40 MLOAD DUP1 SWAP2 SUB SWAP1 REVERT JUMPDEST DUP1 PUSH1 0x5 PUSH1 0x0 PUSH2 0x100 EXP DUP2 SLOAD DUP2 PUSH20 0xFFFFFFFFFFFFFFFFFFFFFFFFFFFFFFFFFFFFFFFF MUL NOT AND SWAP1 DUP4 PUSH20 0xFFFFFFFFFFFFFFFFFFFFFFFFFFFFFFFFFFFFFFFF AND MUL OR SWAP1 SSTORE POP POP JUMP JUMPDEST PUSH2 0x92B PUSH2 0x1D49 JUMP JUMPDEST PUSH20 0xFFFFFFFFFFFFFFFFFFFFFFFFFFFFFFFFFFFFFFFF AND PUSH2 0x949 PUSH2 0x129E JUMP JUMPDEST PUSH20 0xFFFFFFFFFFFFFFFFFFFFFFFFFFFFFFFFFFFFFFFF AND EQ PUSH2 0x99F JUMPI PUSH1 0x40 MLOAD PUSH32 0x8C379A000000000000000000000000000000000000000000000000000000000 DUP2 MSTORE PUSH1 0x4 ADD PUSH2 0x996 SWAP1 PUSH2 0x28FD JUMP JUMPDEST PUSH1 0x40 MLOAD DUP1 SWAP2 SUB SWAP1 REVERT JUMPDEST DUP1 PUSH1 0x3 PUSH1 0x0 PUSH2 0x100 EXP DUP2 SLOAD DUP2 PUSH20 0xFFFFFFFFFFFFFFFFFFFFFFFFFFFFFFFFFFFFFFFF MUL NOT AND SWAP1 DUP4 PUSH20 0xFFFFFFFFFFFFFFFFFFFFFFFFFFFFFFFFFFFFFFFF AND MUL OR SWAP1 SSTORE POP POP JUMP JUMPDEST PUSH4 0x80AC58CD PUSH1 0xE0 SHL DUP2 JUMP JUMPDEST PUSH1 0x0 DUP2 GT PUSH2 0xA31 JUMPI PUSH1 0x40 MLOAD PUSH32 0x8C379A000000000000000000000000000000000000000000000000000000000 DUP2 MSTORE PUSH1 0x4 ADD PUSH2 0xA28 SWAP1 PUSH2 0x2969 JUMP JUMPDEST PUSH1 0x40 MLOAD DUP1 SWAP2 SUB SWAP1 REVERT JUMPDEST PUSH2 0xA3B PUSH1 0x7 PUSH2 0x1D51 JUMP JUMPDEST POP JUMP JUMPDEST PUSH1 0x3 PUSH1 0x0 SWAP1 SLOAD SWAP1 PUSH2 0x100 EXP SWAP1 DIV PUSH20 0xFFFFFFFFFFFFFFFFFFFFFFFFFFFFFFFFFFFFFFFF AND DUP2 JUMP JUMPDEST PUSH1 0x60 PUSH1 0x0 PUSH2 0xA72 PUSH1 0x7 PUSH2 0x1D67 JUMP JUMPDEST SWAP1 POP PUSH1 0x0 DUP1 PUSH1 0x0 JUMPDEST DUP4 DUP2 LT ISZERO PUSH2 0xAF3 JUMPI PUSH1 0x1 DUP1 DUP2 GT ISZERO PUSH2 0xA95 JUMPI PUSH2 0xA94 PUSH2 0x22CB JUMP JUMPDEST JUMPDEST PUSH1 0x9 PUSH1 0x0 DUP4 DUP2 MSTORE PUSH1 0x20 ADD SWAP1 DUP2 MSTORE PUSH1 0x20 ADD PUSH1 0x0 KECCAK256 PUSH1 0x5 ADD PUSH1 0x0 SWAP1 SLOAD SWAP1 PUSH2 0x100 EXP SWAP1 DIV PUSH1 0xFF AND PUSH1 0x1 DUP2 GT ISZERO PUSH2 0xACB JUMPI PUSH2 0xACA PUSH2 0x22CB JUMP JUMPDEST JUMPDEST SUB PUSH2 0xAE0 JUMPI PUSH1 0x1 DUP4 PUSH2 0xADD SWAP2 SWAP1 PUSH2 0x29B8 JUMP JUMPDEST SWAP3 POP JUMPDEST DUP1 DUP1 PUSH2 0xAEB SWAP1 PUSH2 0x2A0E JUMP JUMPDEST SWAP2 POP POP PUSH2 0xA7A JUMP JUMPDEST POP PUSH1 0x0 DUP3 PUSH8 0xFFFFFFFFFFFFFFFF DUP2 GT ISZERO PUSH2 0xB10 JUMPI PUSH2 0xB0F PUSH2 0x2A56 JUMP JUMPDEST JUMPDEST PUSH1 0x40 MLOAD SWAP1 DUP1 DUP3 MSTORE DUP1 PUSH1 0x20 MUL PUSH1 0x20 ADD DUP3 ADD PUSH1 0x40 MSTORE DUP1 ISZERO PUSH2 0xB49 JUMPI DUP2 PUSH1 0x20 ADD JUMPDEST PUSH2 0xB36 PUSH2 0x203B JUMP JUMPDEST DUP2 MSTORE PUSH1 0x20 ADD SWAP1 PUSH1 0x1 SWAP1 SUB SWAP1 DUP2 PUSH2 0xB2E JUMPI SWAP1 POP JUMPDEST POP SWAP1 POP PUSH1 0x0 JUMPDEST DUP5 DUP2 LT ISZERO PUSH2 0xD2B JUMPI PUSH1 0x1 DUP1 DUP2 GT ISZERO PUSH2 0xB6A JUMPI PUSH2 0xB69 PUSH2 0x22CB JUMP JUMPDEST JUMPDEST PUSH1 0x9 PUSH1 0x0 DUP4 DUP2 MSTORE PUSH1 0x20 ADD SWAP1 DUP2 MSTORE PUSH1 0x20 ADD PUSH1 0x0 KECCAK256 PUSH1 0x5 ADD PUSH1 0x0 SWAP1 SLOAD SWAP1 PUSH2 0x100 EXP SWAP1 DIV PUSH1 0xFF AND PUSH1 0x1 DUP2 GT ISZERO PUSH2 0xBA0 JUMPI PUSH2 0xB9F PUSH2 0x22CB JUMP JUMPDEST JUMPDEST SUB PUSH2 0xD18 JUMPI PUSH1 0x0 PUSH1 0x9 PUSH1 0x0 DUP4 DUP2 MSTORE PUSH1 0x20 ADD SWAP1 DUP2 MSTORE PUSH1 0x20 ADD PUSH1 0x0 KECCAK256 PUSH1 0x0 ADD SLOAD SWAP1 POP PUSH1 0x0 PUSH1 0x9 PUSH1 0x0 DUP4 DUP2 MSTORE PUSH1 0x20 ADD SWAP1 DUP2 MSTORE PUSH1 0x20 ADD PUSH1 0x0 KECCAK256 SWAP1 POP DUP1 PUSH1 0x40 MLOAD DUP1 PUSH1 0xC0 ADD PUSH1 0x40 MSTORE SWAP1 DUP2 PUSH1 0x0 DUP3 ADD SLOAD DUP2 MSTORE PUSH1 0x20 ADD PUSH1 0x1 DUP3 ADD SLOAD DUP2 MSTORE PUSH1 0x20 ADD PUSH1 0x2 DUP3 ADD PUSH1 0x0 SWAP1 SLOAD SWAP1 PUSH2 0x100 EXP SWAP1 DIV PUSH20 0xFFFFFFFFFFFFFFFFFFFFFFFFFFFFFFFFFFFFFFFF AND PUSH20 0xFFFFFFFFFFFFFFFFFFFFFFFFFFFFFFFFFFFFFFFF AND PUSH20 0xFFFFFFFFFFFFFFFFFFFFFFFFFFFFFFFFFFFFFFFF AND DUP2 MSTORE PUSH1 0x20 ADD PUSH1 0x3 DUP3 ADD PUSH1 0x0 SWAP1 SLOAD SWAP1 PUSH2 0x100 EXP SWAP1 DIV PUSH20 0xFFFFFFFFFFFFFFFFFFFFFFFFFFFFFFFFFFFFFFFF AND PUSH20 0xFFFFFFFFFFFFFFFFFFFFFFFFFFFFFFFFFFFFFFFF AND PUSH20 0xFFFFFFFFFFFFFFFFFFFFFFFFFFFFFFFFFFFFFFFF AND DUP2 MSTORE PUSH1 0x20 ADD PUSH1 0x4 DUP3 ADD SLOAD DUP2 MSTORE PUSH1 0x20 ADD PUSH1 0x5 DUP3 ADD PUSH1 0x0 SWAP1 SLOAD SWAP1 PUSH2 0x100 EXP SWAP1 DIV PUSH1 0xFF AND PUSH1 0x1 DUP2 GT ISZERO PUSH2 0xCD2 JUMPI PUSH2 0xCD1 PUSH2 0x22CB JUMP JUMPDEST JUMPDEST PUSH1 0x1 DUP2 GT ISZERO PUSH2 0xCE4 JUMPI PUSH2 0xCE3 PUSH2 0x22CB JUMP JUMPDEST JUMPDEST DUP2 MSTORE POP POP DUP5 DUP7 DUP2 MLOAD DUP2 LT PUSH2 0xCFB JUMPI PUSH2 0xCFA PUSH2 0x2A85 JUMP JUMPDEST JUMPDEST PUSH1 0x20 MUL PUSH1 0x20 ADD ADD DUP2 SWAP1 MSTORE POP PUSH1 0x1 DUP6 PUSH2 0xD13 SWAP2 SWAP1 PUSH2 0x29B8 JUMP JUMPDEST SWAP5 POP POP POP JUMPDEST DUP1 DUP1 PUSH2 0xD23 SWAP1 PUSH2 0x2A0E JUMP JUMPDEST SWAP2 POP POP PUSH2 0xB4F JUMP JUMPDEST POP DUP1 SWAP5 POP POP POP POP POP SWAP1 JUMP JUMPDEST PUSH1 0x0 DUP2 GT PUSH2 0xD79 JUMPI PUSH1 0x40 MLOAD PUSH32 0x8C379A000000000000000000000000000000000000000000000000000000000 DUP2 MSTORE PUSH1 0x4 ADD PUSH2 0xD70 SWAP1 PUSH2 0x2969 JUMP JUMPDEST PUSH1 0x40 MLOAD DUP1 SWAP2 SUB SWAP1 REVERT JUMPDEST PUSH1 0x0 PUSH1 0x4 PUSH1 0x0 SWAP1 SLOAD SWAP1 PUSH2 0x100 EXP SWAP1 DIV PUSH20 0xFFFFFFFFFFFFFFFFFFFFFFFFFFFFFFFFFFFFFFFF AND PUSH20 0xFFFFFFFFFFFFFFFFFFFFFFFFFFFFFFFFFFFFFFFF AND PUSH4 0x3CE1CB5 DUP5 PUSH1 0x40 MLOAD DUP3 PUSH4 0xFFFFFFFF AND PUSH1 0xE0 SHL DUP2 MSTORE PUSH1 0x4 ADD PUSH2 0xDD6 SWAP2 SWAP1 PUSH2 0x2AB4 JUMP JUMPDEST PUSH1 0x0 PUSH1 0x40 MLOAD DUP1 DUP4 SUB DUP2 DUP7 GAS STATICCALL ISZERO DUP1 ISZERO PUSH2 0xDF3 JUMPI RETURNDATASIZE PUSH1 0x0 DUP1 RETURNDATACOPY RETURNDATASIZE PUSH1 0x0 REVERT JUMPDEST POP POP POP POP PUSH1 0x40 MLOAD RETURNDATASIZE PUSH1 0x0 DUP3 RETURNDATACOPY RETURNDATASIZE PUSH1 0x1F NOT PUSH1 0x1F DUP3 ADD AND DUP3 ADD DUP1 PUSH1 0x40 MSTORE POP DUP2 ADD SWAP1 PUSH2 0xE1C SWAP2 SWAP1 PUSH2 0x2D3A JUMP JUMPDEST SWAP1 POP PUSH1 0x0 ISZERO ISZERO DUP2 PUSH1 0x80 ADD MLOAD ISZERO ISZERO EQ PUSH2 0xE69 JUMPI PUSH1 0x40 MLOAD PUSH32 0x8C379A000000000000000000000000000000000000000000000000000000000 DUP2 MSTORE PUSH1 0x4 ADD PUSH2 0xE60 SWAP1 PUSH2 0x2DCF JUMP JUMPDEST PUSH1 0x40 MLOAD DUP1 SWAP2 SUB SWAP1 REVERT JUMPDEST PUSH1 0x0 PUSH2 0xE75 PUSH1 0x7 PUSH2 0x1D67 JUMP JUMPDEST SWAP1 POP PUSH1 0x4 PUSH1 0x0 SWAP1 SLOAD SWAP1 PUSH2 0x100 EXP SWAP1 DIV PUSH20 0xFFFFFFFFFFFFFFFFFFFFFFFFFFFFFFFFFFFFFFFF AND PUSH20 0xFFFFFFFFFFFFFFFFFFFFFFFFFFFFFFFFFFFFFFFF AND PUSH4 0xC1E9518A CALLER ADDRESS DUP8 PUSH1 0x40 MLOAD DUP5 PUSH4 0xFFFFFFFF AND PUSH1 0xE0 SHL DUP2 MSTORE PUSH1 0x4 ADD PUSH2 0xED6 SWAP4 SWAP3 SWAP2 SWAP1 PUSH2 0x2E10 JUMP JUMPDEST PUSH1 0x0 PUSH1 0x40 MLOAD DUP1 DUP4 SUB DUP2 PUSH1 0x0 DUP8 DUP1 EXTCODESIZE ISZERO DUP1 ISZERO PUSH2 0xEF0 JUMPI PUSH1 0x0 DUP1 REVERT JUMPDEST POP GAS CALL ISZERO DUP1 ISZERO PUSH2 0xF04 JUMPI RETURNDATASIZE PUSH1 0x0 DUP1 RETURNDATACOPY RETURNDATASIZE PUSH1 0x0 REVERT JUMPDEST POP POP POP POP PUSH1 0x5 PUSH1 0x0 SWAP1 SLOAD SWAP1 PUSH2 0x100 EXP SWAP1 DIV PUSH20 0xFFFFFFFFFFFFFFFFFFFFFFFFFFFFFFFFFFFFFFFF AND PUSH20 0xFFFFFFFFFFFFFFFFFFFFFFFFFFFFFFFFFFFFFFFF AND PUSH4 0x23B872DD CALLER ADDRESS DUP8 PUSH1 0x40 MLOAD DUP5 PUSH4 0xFFFFFFFF AND PUSH1 0xE0 SHL DUP2 MSTORE PUSH1 0x4 ADD PUSH2 0xF67 SWAP4 SWAP3 SWAP2 SWAP1 PUSH2 0x2851 JUMP JUMPDEST PUSH1 0x0 PUSH1 0x40 MLOAD DUP1 DUP4 SUB DUP2 PUSH1 0x0 DUP8 DUP1 EXTCODESIZE ISZERO DUP1 ISZERO PUSH2 0xF81 JUMPI PUSH1 0x0 DUP1 REVERT JUMPDEST POP GAS CALL ISZERO DUP1 ISZERO PUSH2 0xF95 JUMPI RETURNDATASIZE PUSH1 0x0 DUP1 RETURNDATACOPY RETURNDATASIZE PUSH1 0x0 REVERT JUMPDEST POP POP POP POP PUSH1 0x40 MLOAD DUP1 PUSH1 0xC0 ADD PUSH1 0x40 MSTORE DUP1 DUP3 DUP2 MSTORE PUSH1 0x20 ADD DUP6 DUP2 MSTORE PUSH1 0x20 ADD CALLER PUSH20 0xFFFFFFFFFFFFFFFFFFFFFFFFFFFFFFFFFFFFFFFF AND DUP2 MSTORE PUSH1 0x20 ADD ADDRESS PUSH20 0xFFFFFFFFFFFFFFFFFFFFFFFFFFFFFFFFFFFFFFFF AND DUP2 MSTORE PUSH1 0x20 ADD DUP5 DUP2 MSTORE PUSH1 0x20 ADD PUSH1 0x1 DUP1 DUP2 GT ISZERO PUSH2 0x1001 JUMPI PUSH2 0x1000 PUSH2 0x22CB JUMP JUMPDEST JUMPDEST DUP2 MSTORE POP PUSH1 0x9 PUSH1 0x0 DUP4 DUP2 MSTORE PUSH1 0x20 ADD SWAP1 DUP2 MSTORE PUSH1 0x20 ADD PUSH1 0x0 KECCAK256 PUSH1 0x0 DUP3 ADD MLOAD DUP2 PUSH1 0x0 ADD SSTORE PUSH1 0x20 DUP3 ADD MLOAD DUP2 PUSH1 0x1 ADD SSTORE PUSH1 0x40 DUP3 ADD MLOAD DUP2 PUSH1 0x2 ADD PUSH1 0x0 PUSH2 0x100 EXP DUP2 SLOAD DUP2 PUSH20 0xFFFFFFFFFFFFFFFFFFFFFFFFFFFFFFFFFFFFFFFF MUL NOT AND SWAP1 DUP4 PUSH20 0xFFFFFFFFFFFFFFFFFFFFFFFFFFFFFFFFFFFFFFFF AND MUL OR SWAP1 SSTORE POP PUSH1 0x60 DUP3 ADD MLOAD DUP2 PUSH1 0x3 ADD PUSH1 0x0 PUSH2 0x100 EXP DUP2 SLOAD DUP2 PUSH20 0xFFFFFFFFFFFFFFFFFFFFFFFFFFFFFFFFFFFFFFFF MUL NOT AND SWAP1 DUP4 PUSH20 0xFFFFFFFFFFFFFFFFFFFFFFFFFFFFFFFFFFFFFFFF AND MUL OR SWAP1 SSTORE POP PUSH1 0x80 DUP3 ADD MLOAD DUP2 PUSH1 0x4 ADD SSTORE PUSH1 0xA0 DUP3 ADD MLOAD DUP2 PUSH1 0x5 ADD PUSH1 0x0 PUSH2 0x100 EXP DUP2 SLOAD DUP2 PUSH1 0xFF MUL NOT AND SWAP1 DUP4 PUSH1 0x1 DUP2 GT ISZERO PUSH2 0x10EE JUMPI PUSH2 0x10ED PUSH2 0x22CB JUMP JUMPDEST JUMPDEST MUL OR SWAP1 SSTORE POP SWAP1 POP POP PUSH2 0x1100 PUSH1 0x7 PUSH2 0x1D51 JUMP JUMPDEST DUP4 DUP2 PUSH32 0x38690A554FFBC44EB6A75016E47D517D0DB8E6C37494ADC68D6D0B2C66F0AB21 CALLER ADDRESS DUP8 PUSH1 0x40 MLOAD PUSH2 0x1135 SWAP4 SWAP3 SWAP2 SWAP1 PUSH2 0x2851 JUMP JUMPDEST PUSH1 0x40 MLOAD DUP1 SWAP2 SUB SWAP1 LOG3 POP POP POP POP JUMP JUMPDEST PUSH2 0x114B PUSH2 0x1D49 JUMP JUMPDEST PUSH20 0xFFFFFFFFFFFFFFFFFFFFFFFFFFFFFFFFFFFFFFFF AND PUSH2 0x1169 PUSH2 0x129E JUMP JUMPDEST PUSH20 0xFFFFFFFFFFFFFFFFFFFFFFFFFFFFFFFFFFFFFFFF AND EQ PUSH2 0x11BF JUMPI PUSH1 0x40 MLOAD PUSH32 0x8C379A000000000000000000000000000000000000000000000000000000000 DUP2 MSTORE PUSH1 0x4 ADD PUSH2 0x11B6 SWAP1 PUSH2 0x28FD JUMP JUMPDEST PUSH1 0x40 MLOAD DUP1 SWAP2 SUB SWAP1 REVERT JUMPDEST DUP1 PUSH1 0x4 PUSH1 0x0 PUSH2 0x100 EXP DUP2 SLOAD DUP2 PUSH20 0xFFFFFFFFFFFFFFFFFFFFFFFFFFFFFFFFFFFFFFFF MUL NOT AND SWAP1 DUP4 PUSH20 0xFFFFFFFFFFFFFFFFFFFFFFFFFFFFFFFFFFFFFFFF AND MUL OR SWAP1 SSTORE POP POP JUMP JUMPDEST PUSH2 0x120B PUSH2 0x1D49 JUMP JUMPDEST PUSH20 0xFFFFFFFFFFFFFFFFFFFFFFFFFFFFFFFFFFFFFFFF AND PUSH2 0x1229 PUSH2 0x129E JUMP JUMPDEST PUSH20 0xFFFFFFFFFFFFFFFFFFFFFFFFFFFFFFFFFFFFFFFF AND EQ PUSH2 0x127F JUMPI PUSH1 0x40 MLOAD PUSH32 0x8C379A000000000000000000000000000000000000000000000000000000000 DUP2 MSTORE PUSH1 0x4 ADD PUSH2 0x1276 SWAP1 PUSH2 0x28FD JUMP JUMPDEST PUSH1 0x40 MLOAD DUP1 SWAP2 SUB SWAP1 REVERT JUMPDEST PUSH2 0x1289 PUSH1 0x0 PUSH2 0x1D75 JUMP JUMPDEST JUMP JUMPDEST PUSH1 0x5 PUSH1 0x14 SWAP1 SLOAD SWAP1 PUSH2 0x100 EXP SWAP1 DIV PUSH1 0xFF AND DUP2 JUMP JUMPDEST PUSH1 0x0 PUSH1 0x6 PUSH1 0x0 SWAP1 SLOAD SWAP1 PUSH2 0x100 EXP SWAP1 DIV PUSH20 0xFFFFFFFFFFFFFFFFFFFFFFFFFFFFFFFFFFFFFFFF AND SWAP1 POP SWAP1 JUMP JUMPDEST PUSH1 0x0 PUSH1 0x9 PUSH1 0x0 DUP5 DUP2 MSTORE PUSH1 0x20 ADD SWAP1 DUP2 MSTORE PUSH1 0x20 ADD PUSH1 0x0 KECCAK256 PUSH1 0x4 ADD SLOAD SWAP1 POP PUSH1 0x0 PUSH1 0x9 PUSH1 0x0 DUP6 DUP2 MSTORE PUSH1 0x20 ADD SWAP1 DUP2 MSTORE PUSH1 0x20 ADD PUSH1 0x0 KECCAK256 PUSH1 0x1 ADD SLOAD SWAP1 POP PUSH1 0x0 PUSH1 0x9 PUSH1 0x0 DUP7 DUP2 MSTORE PUSH1 0x20 ADD SWAP1 DUP2 MSTORE PUSH1 0x20 ADD PUSH1 0x0 KECCAK256 PUSH1 0x2 ADD PUSH1 0x0 SWAP1 SLOAD SWAP1 PUSH2 0x100 EXP SWAP1 DIV PUSH20 0xFFFFFFFFFFFFFFFFFFFFFFFFFFFFFFFFFFFFFFFF AND SWAP1 POP PUSH1 0x0 PUSH1 0x4 PUSH1 0x0 SWAP1 SLOAD SWAP1 PUSH2 0x100 EXP SWAP1 DIV PUSH20 0xFFFFFFFFFFFFFFFFFFFFFFFFFFFFFFFFFFFFFFFF AND PUSH20 0xFFFFFFFFFFFFFFFFFFFFFFFFFFFFFFFFFFFFFFFF AND PUSH4 0x3CE1CB5 DUP5 PUSH1 0x40 MLOAD DUP3 PUSH4 0xFFFFFFFF AND PUSH1 0xE0 SHL DUP2 MSTORE PUSH1 0x4 ADD PUSH2 0x1396 SWAP2 SWAP1 PUSH2 0x2AB4 JUMP JUMPDEST PUSH1 0x0 PUSH1 0x40 MLOAD DUP1 DUP4 SUB DUP2 DUP7 GAS STATICCALL ISZERO DUP1 ISZERO PUSH2 0x13B3 JUMPI RETURNDATASIZE PUSH1 0x0 DUP1 RETURNDATACOPY RETURNDATASIZE PUSH1 0x0 REVERT JUMPDEST POP POP POP POP PUSH1 0x40 MLOAD RETURNDATASIZE PUSH1 0x0 DUP3 RETURNDATACOPY RETURNDATASIZE PUSH1 0x1F NOT PUSH1 0x1F DUP3 ADD AND DUP3 ADD DUP1 PUSH1 0x40 MSTORE POP DUP2 ADD SWAP1 PUSH2 0x13DC SWAP2 SWAP1 PUSH2 0x2D3A JUMP JUMPDEST SWAP1 POP DUP4 DUP6 EQ PUSH2 0x1420 JUMPI PUSH1 0x40 MLOAD PUSH32 0x8C379A000000000000000000000000000000000000000000000000000000000 DUP2 MSTORE PUSH1 0x4 ADD PUSH2 0x1417 SWAP1 PUSH2 0x2EB9 JUMP JUMPDEST PUSH1 0x40 MLOAD DUP1 SWAP2 SUB SWAP1 REVERT JUMPDEST PUSH1 0x0 ISZERO ISZERO DUP2 PUSH1 0x80 ADD MLOAD ISZERO ISZERO EQ PUSH2 0x146B JUMPI PUSH1 0x40 MLOAD PUSH32 0x8C379A000000000000000000000000000000000000000000000000000000000 DUP2 MSTORE PUSH1 0x4 ADD PUSH2 0x1462 SWAP1 PUSH2 0x2DCF JUMP JUMPDEST PUSH1 0x40 MLOAD DUP1 SWAP2 SUB SWAP1 REVERT JUMPDEST PUSH2 0x1476 DUP7 DUP7 DUP6 PUSH2 0x1E3B JUMP JUMPDEST CALLER PUSH1 0x9 PUSH1 0x0 DUP9 DUP2 MSTORE PUSH1 0x20 ADD SWAP1 DUP2 MSTORE PUSH1 0x20 ADD PUSH1 0x0 KECCAK256 PUSH1 0x3 ADD PUSH1 0x0 PUSH2 0x100 EXP DUP2 SLOAD DUP2 PUSH20 0xFFFFFFFFFFFFFFFFFFFFFFFFFFFFFFFFFFFFFFFF MUL NOT AND SWAP1 DUP4 PUSH20 0xFFFFFFFFFFFFFFFFFFFFFFFFFFFFFFFFFFFFFFFF AND MUL OR SWAP1 SSTORE POP PUSH1 0x0 PUSH1 0x9 PUSH1 0x0 DUP9 DUP2 MSTORE PUSH1 0x20 ADD SWAP1 DUP2 MSTORE PUSH1 0x20 ADD PUSH1 0x0 KECCAK256 PUSH1 0x5 ADD PUSH1 0x0 PUSH2 0x100 EXP DUP2 SLOAD DUP2 PUSH1 0xFF MUL NOT AND SWAP1 DUP4 PUSH1 0x1 DUP2 GT ISZERO PUSH2 0x1505 JUMPI PUSH2 0x1504 PUSH2 0x22CB JUMP JUMPDEST JUMPDEST MUL OR SWAP1 SSTORE POP PUSH2 0x1514 PUSH1 0x8 PUSH2 0x1D51 JUMP JUMPDEST CALLER PUSH20 0xFFFFFFFFFFFFFFFFFFFFFFFFFFFFFFFFFFFFFFFF AND DUP3 PUSH20 0xFFFFFFFFFFFFFFFFFFFFFFFFFFFFFFFFFFFFFFFF AND DUP5 PUSH32 0x551327AEE12D0A8B3EDE8D0E3182A40A5FF3ED9F1811DD622915DB30B609B7DF DUP10 DUP9 TIMESTAMP PUSH1 0x40 MLOAD PUSH2 0x1576 SWAP4 SWAP3 SWAP2 SWAP1 PUSH2 0x2F25 JUMP JUMPDEST PUSH1 0x40 MLOAD DUP1 SWAP2 SUB SWAP1 LOG4 POP POP POP POP POP POP JUMP JUMPDEST PUSH1 0x0 DUP2 GT PUSH2 0x15C9 JUMPI PUSH1 0x40 MLOAD PUSH32 0x8C379A000000000000000000000000000000000000000000000000000000000 DUP2 MSTORE PUSH1 0x4 ADD PUSH2 0x15C0 SWAP1 PUSH2 0x2969 JUMP JUMPDEST PUSH1 0x40 MLOAD DUP1 SWAP2 SUB SWAP1 REVERT JUMPDEST PUSH1 0x0 PUSH1 0x4 PUSH1 0x0 SWAP1 SLOAD SWAP1 PUSH2 0x100 EXP SWAP1 DIV PUSH20 0xFFFFFFFFFFFFFFFFFFFFFFFFFFFFFFFFFFFFFFFF AND PUSH20 0xFFFFFFFFFFFFFFFFFFFFFFFFFFFFFFFFFFFFFFFF AND PUSH4 0x3CE1CB5 DUP5 PUSH1 0x40 MLOAD DUP3 PUSH4 0xFFFFFFFF AND PUSH1 0xE0 SHL DUP2 MSTORE PUSH1 0x4 ADD PUSH2 0x1626 SWAP2 SWAP1 PUSH2 0x2AB4 JUMP JUMPDEST PUSH1 0x0 PUSH1 0x40 MLOAD DUP1 DUP4 SUB DUP2 DUP7 GAS STATICCALL ISZERO DUP1 ISZERO PUSH2 0x1643 JUMPI RETURNDATASIZE PUSH1 0x0 DUP1 RETURNDATACOPY RETURNDATASIZE PUSH1 0x0 REVERT JUMPDEST POP POP POP POP PUSH1 0x40 MLOAD RETURNDATASIZE PUSH1 0x0 DUP3 RETURNDATACOPY RETURNDATASIZE PUSH1 0x1F NOT PUSH1 0x1F DUP3 ADD AND DUP3 ADD DUP1 PUSH1 0x40 MSTORE POP DUP2 ADD SWAP1 PUSH2 0x166C SWAP2 SWAP1 PUSH2 0x2D3A JUMP JUMPDEST SWAP1 POP PUSH1 0x0 ISZERO ISZERO DUP2 PUSH1 0x80 ADD MLOAD ISZERO ISZERO EQ PUSH2 0x16B9 JUMPI PUSH1 0x40 MLOAD PUSH32 0x8C379A000000000000000000000000000000000000000000000000000000000 DUP2 MSTORE PUSH1 0x4 ADD PUSH2 0x16B0 SWAP1 PUSH2 0x2DCF JUMP JUMPDEST PUSH1 0x40 MLOAD DUP1 SWAP2 SUB SWAP1 REVERT JUMPDEST PUSH1 0x0 PUSH2 0x16C5 PUSH1 0x7 PUSH2 0x1D67 JUMP JUMPDEST SWAP1 POP PUSH2 0x16D0 DUP5 PUSH2 0x1A7E JUMP JUMPDEST PUSH1 0x40 MLOAD DUP1 PUSH1 0xC0 ADD PUSH1 0x40 MSTORE DUP1 DUP3 DUP2 MSTORE PUSH1 0x20 ADD DUP6 DUP2 MSTORE PUSH1 0x20 ADD CALLER PUSH20 0xFFFFFFFFFFFFFFFFFFFFFFFFFFFFFFFFFFFFFFFF AND DUP2 MSTORE PUSH1 0x20 ADD ADDRESS PUSH20 0xFFFFFFFFFFFFFFFFFFFFFFFFFFFFFFFFFFFFFFFF AND DUP2 MSTORE PUSH1 0x20 ADD DUP5 DUP2 MSTORE PUSH1 0x20 ADD PUSH1 0x1 DUP1 DUP2 GT ISZERO PUSH2 0x1738 JUMPI PUSH2 0x1737 PUSH2 0x22CB JUMP JUMPDEST JUMPDEST DUP2 MSTORE POP PUSH1 0x9 PUSH1 0x0 DUP4 DUP2 MSTORE PUSH1 0x20 ADD SWAP1 DUP2 MSTORE PUSH1 0x20 ADD PUSH1 0x0 KECCAK256 PUSH1 0x0 DUP3 ADD MLOAD DUP2 PUSH1 0x0 ADD SSTORE PUSH1 0x20 DUP3 ADD MLOAD DUP2 PUSH1 0x1 ADD SSTORE PUSH1 0x40 DUP3 ADD MLOAD DUP2 PUSH1 0x2 ADD PUSH1 0x0 PUSH2 0x100 EXP DUP2 SLOAD DUP2 PUSH20 0xFFFFFFFFFFFFFFFFFFFFFFFFFFFFFFFFFFFFFFFF MUL NOT AND SWAP1 DUP4 PUSH20 0xFFFFFFFFFFFFFFFFFFFFFFFFFFFFFFFFFFFFFFFF AND MUL OR SWAP1 SSTORE POP PUSH1 0x60 DUP3 ADD MLOAD DUP2 PUSH1 0x3 ADD PUSH1 0x0 PUSH2 0x100 EXP DUP2 SLOAD DUP2 PUSH20 0xFFFFFFFFFFFFFFFFFFFFFFFFFFFFFFFFFFFFFFFF MUL NOT AND SWAP1 DUP4 PUSH20 0xFFFFFFFFFFFFFFFFFFFFFFFFFFFFFFFFFFFFFFFF AND MUL OR SWAP1 SSTORE POP PUSH1 0x80 DUP3 ADD MLOAD DUP2 PUSH1 0x4 ADD SSTORE PUSH1 0xA0 DUP3 ADD MLOAD DUP2 PUSH1 0x5 ADD PUSH1 0x0 PUSH2 0x100 EXP DUP2 SLOAD DUP2 PUSH1 0xFF MUL NOT AND SWAP1 DUP4 PUSH1 0x1 DUP2 GT ISZERO PUSH2 0x1825 JUMPI PUSH2 0x1824 PUSH2 0x22CB JUMP JUMPDEST JUMPDEST MUL OR SWAP1 SSTORE POP SWAP1 POP POP PUSH2 0x1837 PUSH1 0x7 PUSH2 0x1D51 JUMP JUMPDEST DUP4 DUP2 PUSH32 0x38690A554FFBC44EB6A75016E47D517D0DB8E6C37494ADC68D6D0B2C66F0AB21 CALLER ADDRESS DUP8 PUSH1 0x40 MLOAD PUSH2 0x186C SWAP4 SWAP3 SWAP2 SWAP1 PUSH2 0x2851 JUMP JUMPDEST PUSH1 0x40 MLOAD DUP1 SWAP2 SUB SWAP1 LOG3 POP POP POP POP JUMP JUMPDEST PUSH1 0x5 PUSH1 0x15 SWAP1 SLOAD SWAP1 PUSH2 0x100 EXP SWAP1 DIV PUSH1 0xFF AND DUP2 JUMP JUMPDEST PUSH1 0x1 DUP2 DUP2 SLOAD DUP2 LT PUSH2 0x189D JUMPI PUSH1 0x0 DUP1 REVERT JUMPDEST SWAP1 PUSH1 0x0 MSTORE PUSH1 0x20 PUSH1 0x0 KECCAK256 SWAP1 PUSH1 0x6 MUL ADD PUSH1 0x0 SWAP2 POP SWAP1 POP DUP1 PUSH1 0x0 ADD SLOAD SWAP1 DUP1 PUSH1 0x1 ADD SLOAD SWAP1 DUP1 PUSH1 0x2 ADD PUSH1 0x0 SWAP1 SLOAD SWAP1 PUSH2 0x100 EXP SWAP1 DIV PUSH20 0xFFFFFFFFFFFFFFFFFFFFFFFFFFFFFFFFFFFFFFFF AND SWAP1 DUP1 PUSH1 0x3 ADD PUSH1 0x0 SWAP1 SLOAD SWAP1 PUSH2 0x100 EXP SWAP1 DIV PUSH20 0xFFFFFFFFFFFFFFFFFFFFFFFFFFFFFFFFFFFFFFFF AND SWAP1 DUP1 PUSH1 0x4 ADD SLOAD SWAP1 DUP1 PUSH1 0x5 ADD PUSH1 0x0 SWAP1 SLOAD SWAP1 PUSH2 0x100 EXP SWAP1 DIV PUSH1 0xFF AND SWAP1 POP DUP7 JUMP JUMPDEST PUSH1 0x4 PUSH1 0x0 SWAP1 SLOAD SWAP1 PUSH2 0x100 EXP SWAP1 DIV PUSH20 0xFFFFFFFFFFFFFFFFFFFFFFFFFFFFFFFFFFFFFFFF AND DUP2 JUMP JUMPDEST PUSH2 0x1954 PUSH2 0x203B JUMP JUMPDEST PUSH1 0x9 PUSH1 0x0 DUP4 DUP2 MSTORE PUSH1 0x20 ADD SWAP1 DUP2 MSTORE PUSH1 0x20 ADD PUSH1 0x0 KECCAK256 PUSH1 0x40 MLOAD DUP1 PUSH1 0xC0 ADD PUSH1 0x40 MSTORE SWAP1 DUP2 PUSH1 0x0 DUP3 ADD SLOAD DUP2 MSTORE PUSH1 0x20 ADD PUSH1 0x1 DUP3 ADD SLOAD DUP2 MSTORE PUSH1 0x20 ADD PUSH1 0x2 DUP3 ADD PUSH1 0x0 SWAP1 SLOAD SWAP1 PUSH2 0x100 EXP SWAP1 DIV PUSH20 0xFFFFFFFFFFFFFFFFFFFFFFFFFFFFFFFFFFFFFFFF AND PUSH20 0xFFFFFFFFFFFFFFFFFFFFFFFFFFFFFFFFFFFFFFFF AND PUSH20 0xFFFFFFFFFFFFFFFFFFFFFFFFFFFFFFFFFFFFFFFF AND DUP2 MSTORE PUSH1 0x20 ADD PUSH1 0x3 DUP3 ADD PUSH1 0x0 SWAP1 SLOAD SWAP1 PUSH2 0x100 EXP SWAP1 DIV PUSH20 0xFFFFFFFFFFFFFFFFFFFFFFFFFFFFFFFFFFFFFFFF AND PUSH20 0xFFFFFFFFFFFFFFFFFFFFFFFFFFFFFFFFFFFFFFFF AND PUSH20 0xFFFFFFFFFFFFFFFFFFFFFFFFFFFFFFFFFFFFFFFF AND DUP2 MSTORE PUSH1 0x20 ADD PUSH1 0x4 DUP3 ADD SLOAD DUP2 MSTORE PUSH1 0x20 ADD PUSH1 0x5 DUP3 ADD PUSH1 0x0 SWAP1 SLOAD SWAP1 PUSH2 0x100 EXP SWAP1 DIV PUSH1 0xFF AND PUSH1 0x1 DUP2 GT ISZERO PUSH2 0x1A61 JUMPI PUSH2 0x1A60 PUSH2 0x22CB JUMP JUMPDEST JUMPDEST PUSH1 0x1 DUP2 GT ISZERO PUSH2 0x1A73 JUMPI PUSH2 0x1A72 PUSH2 0x22CB JUMP JUMPDEST JUMPDEST DUP2 MSTORE POP POP SWAP1 POP SWAP2 SWAP1 POP JUMP JUMPDEST PUSH1 0x4 PUSH1 0x0 SWAP1 SLOAD SWAP1 PUSH2 0x100 EXP SWAP1 DIV PUSH20 0xFFFFFFFFFFFFFFFFFFFFFFFFFFFFFFFFFFFFFFFF AND PUSH20 0xFFFFFFFFFFFFFFFFFFFFFFFFFFFFFFFFFFFFFFFF AND PUSH4 0xC1E9518A CALLER ADDRESS DUP5 PUSH1 0x40 MLOAD DUP5 PUSH4 0xFFFFFFFF AND PUSH1 0xE0 SHL DUP2 MSTORE PUSH1 0x4 ADD PUSH2 0x1ADD SWAP4 SWAP3 SWAP2 SWAP1 PUSH2 0x2E10 JUMP JUMPDEST PUSH1 0x0 PUSH1 0x40 MLOAD DUP1 DUP4 SUB DUP2 PUSH1 0x0 DUP8 DUP1 EXTCODESIZE ISZERO DUP1 ISZERO PUSH2 0x1AF7 JUMPI PUSH1 0x0 DUP1 REVERT JUMPDEST POP GAS CALL ISZERO DUP1 ISZERO PUSH2 0x1B0B JUMPI RETURNDATASIZE PUSH1 0x0 DUP1 RETURNDATACOPY RETURNDATASIZE PUSH1 0x0 REVERT JUMPDEST POP POP POP POP PUSH1 0x5 PUSH1 0x0 SWAP1 SLOAD SWAP1 PUSH2 0x100 EXP SWAP1 DIV PUSH20 0xFFFFFFFFFFFFFFFFFFFFFFFFFFFFFFFFFFFFFFFF AND PUSH20 0xFFFFFFFFFFFFFFFFFFFFFFFFFFFFFFFFFFFFFFFF AND PUSH4 0x23B872DD CALLER ADDRESS DUP5 PUSH1 0x40 MLOAD DUP5 PUSH4 0xFFFFFFFF AND PUSH1 0xE0 SHL DUP2 MSTORE PUSH1 0x4 ADD PUSH2 0x1B6E SWAP4 SWAP3 SWAP2 SWAP1 PUSH2 0x2851 JUMP JUMPDEST PUSH1 0x0 PUSH1 0x40 MLOAD DUP1 DUP4 SUB DUP2 PUSH1 0x0 DUP8 DUP1 EXTCODESIZE ISZERO DUP1 ISZERO PUSH2 0x1B88 JUMPI PUSH1 0x0 DUP1 REVERT JUMPDEST POP GAS CALL ISZERO DUP1 ISZERO PUSH2 0x1B9C JUMPI RETURNDATASIZE PUSH1 0x0 DUP1 RETURNDATACOPY RETURNDATASIZE PUSH1 0x0 REVERT JUMPDEST POP POP POP POP POP JUMP JUMPDEST PUSH2 0x1BAB PUSH2 0x1D49 JUMP JUMPDEST PUSH20 0xFFFFFFFFFFFFFFFFFFFFFFFFFFFFFFFFFFFFFFFF AND PUSH2 0x1BC9 PUSH2 0x129E JUMP JUMPDEST PUSH20 0xFFFFFFFFFFFFFFFFFFFFFFFFFFFFFFFFFFFFFFFF AND EQ PUSH2 0x1C1F JUMPI PUSH1 0x40 MLOAD PUSH32 0x8C379A000000000000000000000000000000000000000000000000000000000 DUP2 MSTORE PUSH1 0x4 ADD PUSH2 0x1C16 SWAP1 PUSH2 0x28FD JUMP JUMPDEST PUSH1 0x40 MLOAD DUP1 SWAP2 SUB SWAP1 REVERT JUMPDEST PUSH1 0x0 PUSH20 0xFFFFFFFFFFFFFFFFFFFFFFFFFFFFFFFFFFFFFFFF AND DUP2 PUSH20 0xFFFFFFFFFFFFFFFFFFFFFFFFFFFFFFFFFFFFFFFF AND SUB PUSH2 0x1C8E JUMPI PUSH1 0x40 MLOAD PUSH32 0x8C379A000000000000000000000000000000000000000000000000000000000 DUP2 MSTORE PUSH1 0x4 ADD PUSH2 0x1C85 SWAP1 PUSH2 0x2FE1 JUMP JUMPDEST PUSH1 0x40 MLOAD DUP1 SWAP2 SUB SWAP1 REVERT JUMPDEST PUSH2 0x1C97 DUP2 PUSH2 0x1D75 JUMP JUMPDEST POP JUMP JUMPDEST PUSH1 0x5 PUSH1 0x0 SWAP1 SLOAD SWAP1 PUSH2 0x100 EXP SWAP1 DIV PUSH20 0xFFFFFFFFFFFFFFFFFFFFFFFFFFFFFFFFFFFFFFFF AND DUP2 JUMP JUMPDEST PUSH1 0x2 PUSH1 0x20 MSTORE DUP1 PUSH1 0x0 MSTORE PUSH1 0x40 PUSH1 0x0 KECCAK256 PUSH1 0x0 SWAP2 POP SWAP1 POP DUP1 PUSH1 0x0 ADD SLOAD SWAP1 DUP1 PUSH1 0x1 ADD SLOAD SWAP1 DUP1 PUSH1 0x2 ADD PUSH1 0x0 SWAP1 SLOAD SWAP1 PUSH2 0x100 EXP SWAP1 DIV PUSH20 0xFFFFFFFFFFFFFFFFFFFFFFFFFFFFFFFFFFFFFFFF AND SWAP1 DUP1 PUSH1 0x3 ADD PUSH1 0x0 SWAP1 SLOAD SWAP1 PUSH2 0x100 EXP SWAP1 DIV PUSH20 0xFFFFFFFFFFFFFFFFFFFFFFFFFFFFFFFFFFFFFFFF AND SWAP1 DUP1 PUSH1 0x4 ADD SLOAD SWAP1 DUP1 PUSH1 0x5 ADD PUSH1 0x0 SWAP1 SLOAD SWAP1 PUSH2 0x100 EXP SWAP1 DIV PUSH1 0xFF AND SWAP1 POP DUP7 JUMP JUMPDEST PUSH1 0x0 CALLER SWAP1 POP SWAP1 JUMP JUMPDEST PUSH1 0x1 DUP2 PUSH1 0x0 ADD PUSH1 0x0 DUP3 DUP3 SLOAD ADD SWAP3 POP POP DUP2 SWAP1 SSTORE POP POP JUMP JUMPDEST PUSH1 0x0 DUP2 PUSH1 0x0 ADD SLOAD SWAP1 POP SWAP2 SWAP1 POP JUMP JUMPDEST PUSH1 0x0 PUSH1 0x6 PUSH1 0x0 SWAP1 SLOAD SWAP1 PUSH2 0x100 EXP SWAP1 DIV PUSH20 0xFFFFFFFFFFFFFFFFFFFFFFFFFFFFFFFFFFFFFFFF AND SWAP1 POP DUP2 PUSH1 0x6 PUSH1 0x0 PUSH2 0x100 EXP DUP2 SLOAD DUP2 PUSH20 0xFFFFFFFFFFFFFFFFFFFFFFFFFFFFFFFFFFFFFFFF MUL NOT AND SWAP1 DUP4 PUSH20 0xFFFFFFFFFFFFFFFFFFFFFFFFFFFFFFFFFFFFFFFF AND MUL OR SWAP1 SSTORE POP DUP2 PUSH20 0xFFFFFFFFFFFFFFFFFFFFFFFFFFFFFFFFFFFFFFFF AND DUP2 PUSH20 0xFFFFFFFFFFFFFFFFFFFFFFFFFFFFFFFFFFFFFFFF AND PUSH32 0x8BE0079C531659141344CD1FD0A4F28419497F9722A3DAAFE3B4186F6B6457E0 PUSH1 0x40 MLOAD PUSH1 0x40 MLOAD DUP1 SWAP2 SUB SWAP1 LOG3 POP POP JUMP JUMPDEST PUSH1 0x3 PUSH1 0x0 SWAP1 SLOAD SWAP1 PUSH2 0x100 EXP SWAP1 DIV PUSH20 0xFFFFFFFFFFFFFFFFFFFFFFFFFFFFFFFFFFFFFFFF AND PUSH20 0xFFFFFFFFFFFFFFFFFFFFFFFFFFFFFFFFFFFFFFFF AND PUSH4 0x23B872DD CALLER PUSH1 0x9 PUSH1 0x0 DUP8 DUP2 MSTORE PUSH1 0x20 ADD SWAP1 DUP2 MSTORE PUSH1 0x20 ADD PUSH1 0x0 KECCAK256 PUSH1 0x2 ADD PUSH1 0x0 SWAP1 SLOAD SWAP1 PUSH2 0x100 EXP SWAP1 DIV PUSH20 0xFFFFFFFFFFFFFFFFFFFFFFFFFFFFFFFFFFFFFFFF AND DUP6 PUSH1 0x40 MLOAD DUP5 PUSH4 0xFFFFFFFF AND PUSH1 0xE0 SHL DUP2 MSTORE PUSH1 0x4 ADD PUSH2 0x1ED0 SWAP4 SWAP3 SWAP2 SWAP1 PUSH2 0x2851 JUMP JUMPDEST PUSH1 0x20 PUSH1 0x40 MLOAD DUP1 DUP4 SUB DUP2 PUSH1 0x0 DUP8 GAS CALL ISZERO DUP1 ISZERO PUSH2 0x1EEF JUMPI RETURNDATASIZE PUSH1 0x0 DUP1 RETURNDATACOPY RETURNDATASIZE PUSH1 0x0 REVERT JUMPDEST POP POP POP POP PUSH1 0x40 MLOAD RETURNDATASIZE PUSH1 0x1F NOT PUSH1 0x1F DUP3 ADD AND DUP3 ADD DUP1 PUSH1 0x40 MSTORE POP DUP2 ADD SWAP1 PUSH2 0x1F13 SWAP2 SWAP1 PUSH2 0x3001 JUMP JUMPDEST POP PUSH1 0x4 PUSH1 0x0 SWAP1 SLOAD SWAP1 PUSH2 0x100 EXP SWAP1 DIV PUSH20 0xFFFFFFFFFFFFFFFFFFFFFFFFFFFFFFFFFFFFFFFF AND PUSH20 0xFFFFFFFFFFFFFFFFFFFFFFFFFFFFFFFFFFFFFFFF AND PUSH4 0xC1E9518A CALLER ADDRESS DUP5 PUSH1 0x40 MLOAD DUP5 PUSH4 0xFFFFFFFF AND PUSH1 0xE0 SHL DUP2 MSTORE PUSH1 0x4 ADD PUSH2 0x1F73 SWAP4 SWAP3 SWAP2 SWAP1 PUSH2 0x2851 JUMP JUMPDEST PUSH1 0x0 PUSH1 0x40 MLOAD DUP1 DUP4 SUB DUP2 PUSH1 0x0 DUP8 DUP1 EXTCODESIZE ISZERO DUP1 ISZERO PUSH2 0x1F8D JUMPI PUSH1 0x0 DUP1 REVERT JUMPDEST POP GAS CALL ISZERO DUP1 ISZERO PUSH2 0x1FA1 JUMPI RETURNDATASIZE PUSH1 0x0 DUP1 RETURNDATACOPY RETURNDATASIZE PUSH1 0x0 REVERT JUMPDEST POP POP POP POP PUSH1 0x5 PUSH1 0x0 SWAP1 SLOAD SWAP1 PUSH2 0x100 EXP SWAP1 DIV PUSH20 0xFFFFFFFFFFFFFFFFFFFFFFFFFFFFFFFFFFFFFFFF AND PUSH20 0xFFFFFFFFFFFFFFFFFFFFFFFFFFFFFFFFFFFFFFFF AND PUSH4 0x23B872DD ADDRESS CALLER DUP5 PUSH1 0x40 MLOAD DUP5 PUSH4 0xFFFFFFFF AND PUSH1 0xE0 SHL DUP2 MSTORE PUSH1 0x4 ADD PUSH2 0x2004 SWAP4 SWAP3 SWAP2 SWAP1 PUSH2 0x2851 JUMP JUMPDEST PUSH1 0x0 PUSH1 0x40 MLOAD DUP1 DUP4 SUB DUP2 PUSH1 0x0 DUP8 DUP1 EXTCODESIZE ISZERO DUP1 ISZERO PUSH2 0x201E JUMPI PUSH1 0x0 DUP1 REVERT JUMPDEST POP GAS CALL ISZERO DUP1 ISZERO PUSH2 0x2032 JUMPI RETURNDATASIZE PUSH1 0x0 DUP1 RETURNDATACOPY RETURNDATASIZE PUSH1 0x0 REVERT JUMPDEST POP POP POP POP POP POP POP JUMP JUMPDEST PUSH1 0x40 MLOAD DUP1 PUSH1 0xC0 ADD PUSH1 0x40 MSTORE DUP1 PUSH1 0x0 DUP2 MSTORE PUSH1 0x20 ADD PUSH1 0x0 DUP2 MSTORE PUSH1 0x20 ADD PUSH1 0x0 PUSH20 0xFFFFFFFFFFFFFFFFFFFFFFFFFFFFFFFFFFFFFFFF AND DUP2 MSTORE PUSH1 0x20 ADD PUSH1 0x0 PUSH20 0xFFFFFFFFFFFFFFFFFFFFFFFFFFFFFFFFFFFFFFFF AND DUP2 MSTORE PUSH1 0x20 ADD PUSH1 0x0 DUP2 MSTORE PUSH1 0x20 ADD PUSH1 0x0 PUSH1 0x1 DUP2 GT ISZERO PUSH2 0x20A9 JUMPI PUSH2 0x20A8 PUSH2 0x22CB JUMP JUMPDEST JUMPDEST DUP2 MSTORE POP SWAP1 JUMP JUMPDEST PUSH1 0x0 PUSH1 0x40 MLOAD SWAP1 POP SWAP1 JUMP JUMPDEST PUSH1 0x0 DUP1 REVERT JUMPDEST PUSH1 0x0 DUP1 REVERT JUMPDEST PUSH1 0x0 DUP2 SWAP1 POP SWAP2 SWAP1 POP JUMP JUMPDEST PUSH2 0x20D6 DUP2 PUSH2 0x20C3 JUMP JUMPDEST DUP2 EQ PUSH2 0x20E1 JUMPI PUSH1 0x0 DUP1 REVERT JUMPDEST POP JUMP JUMPDEST PUSH1 0x0 DUP2 CALLDATALOAD SWAP1 POP PUSH2 0x20F3 DUP2 PUSH2 0x20CD JUMP JUMPDEST SWAP3 SWAP2 POP POP JUMP JUMPDEST PUSH1 0x0 PUSH1 0x20 DUP3 DUP5 SUB SLT ISZERO PUSH2 0x210F JUMPI PUSH2 0x210E PUSH2 0x20B9 JUMP JUMPDEST JUMPDEST PUSH1 0x0 PUSH2 0x211D DUP5 DUP3 DUP6 ADD PUSH2 0x20E4 JUMP JUMPDEST SWAP2 POP POP SWAP3 SWAP2 POP POP JUMP JUMPDEST PUSH1 0x0 PUSH20 0xFFFFFFFFFFFFFFFFFFFFFFFFFFFFFFFFFFFFFFFF DUP3 AND SWAP1 POP SWAP2 SWAP1 POP JUMP JUMPDEST PUSH1 0x0 PUSH2 0x2151 DUP3 PUSH2 0x2126 JUMP JUMPDEST SWAP1 POP SWAP2 SWAP1 POP JUMP JUMPDEST PUSH2 0x2161 DUP2 PUSH2 0x2146 JUMP JUMPDEST DUP2 EQ PUSH2 0x216C JUMPI PUSH1 0x0 DUP1 REVERT JUMPDEST POP JUMP JUMPDEST PUSH1 0x0 DUP2 CALLDATALOAD SWAP1 POP PUSH2 0x217E DUP2 PUSH2 0x2158 JUMP JUMPDEST SWAP3 SWAP2 POP POP JUMP JUMPDEST PUSH1 0x0 PUSH1 0x20 DUP3 DUP5 SUB SLT ISZERO PUSH2 0x219A JUMPI PUSH2 0x2199 PUSH2 0x20B9 JUMP JUMPDEST JUMPDEST PUSH1 0x0 PUSH2 0x21A8 DUP5 DUP3 DUP6 ADD PUSH2 0x216F JUMP JUMPDEST SWAP2 POP POP SWAP3 SWAP2 POP POP JUMP JUMPDEST PUSH1 0x0 PUSH32 0xFFFFFFFF00000000000000000000000000000000000000000000000000000000 DUP3 AND SWAP1 POP SWAP2 SWAP1 POP JUMP JUMPDEST PUSH2 0x21E6 DUP2 PUSH2 0x21B1 JUMP JUMPDEST DUP3 MSTORE POP POP JUMP JUMPDEST PUSH1 0x0 PUSH1 0x20 DUP3 ADD SWAP1 POP PUSH2 0x2201 PUSH1 0x0 DUP4 ADD DUP5 PUSH2 0x21DD JUMP JUMPDEST SWAP3 SWAP2 POP POP JUMP JUMPDEST PUSH1 0x0 DUP2 SWAP1 POP SWAP2 SWAP1 POP JUMP JUMPDEST PUSH1 0x0 PUSH2 0x222C PUSH2 0x2227 PUSH2 0x2222 DUP5 PUSH2 0x2126 JUMP JUMPDEST PUSH2 0x2207 JUMP JUMPDEST PUSH2 0x2126 JUMP JUMPDEST SWAP1 POP SWAP2 SWAP1 POP JUMP JUMPDEST PUSH1 0x0 PUSH2 0x223E DUP3 PUSH2 0x2211 JUMP JUMPDEST SWAP1 POP SWAP2 SWAP1 POP JUMP JUMPDEST PUSH1 0x0 PUSH2 0x2250 DUP3 PUSH2 0x2233 JUMP JUMPDEST SWAP1 POP SWAP2 SWAP1 POP JUMP JUMPDEST PUSH2 0x2260 DUP2 PUSH2 0x2245 JUMP JUMPDEST DUP3 MSTORE POP POP JUMP JUMPDEST PUSH1 0x0 PUSH1 0x20 DUP3 ADD SWAP1 POP PUSH2 0x227B PUSH1 0x0 DUP4 ADD DUP5 PUSH2 0x2257 JUMP JUMPDEST SWAP3 SWAP2 POP POP JUMP JUMPDEST PUSH1 0x0 DUP2 MLOAD SWAP1 POP SWAP2 SWAP1 POP JUMP JUMPDEST PUSH1 0x0 DUP3 DUP3 MSTORE PUSH1 0x20 DUP3 ADD SWAP1 POP SWAP3 SWAP2 POP POP JUMP JUMPDEST PUSH1 0x0 DUP2 SWAP1 POP PUSH1 0x20 DUP3 ADD SWAP1 POP SWAP2 SWAP1 POP JUMP JUMPDEST PUSH2 0x22B6 DUP2 PUSH2 0x20C3 JUMP JUMPDEST DUP3 MSTORE POP POP JUMP JUMPDEST PUSH2 0x22C5 DUP2 PUSH2 0x2146 JUMP JUMPDEST DUP3 MSTORE POP POP JUMP JUMPDEST PUSH32 0x4E487B7100000000000000000000000000000000000000000000000000000000 PUSH1 0x0 MSTORE PUSH1 0x21 PUSH1 0x4 MSTORE PUSH1 0x24 PUSH1 0x0 REVERT JUMPDEST PUSH1 0x2 DUP2 LT PUSH2 0x230B JUMPI PUSH2 0x230A PUSH2 0x22CB JUMP JUMPDEST JUMPDEST POP JUMP JUMPDEST PUSH1 0x0 DUP2 SWAP1 POP PUSH2 0x231C DUP3 PUSH2 0x22FA JUMP JUMPDEST SWAP2 SWAP1 POP JUMP JUMPDEST PUSH1 0x0 PUSH2 0x232C DUP3 PUSH2 0x230E JUMP JUMPDEST SWAP1 POP SWAP2 SWAP1 POP JUMP JUMPDEST PUSH2 0x233C DUP2 PUSH2 0x2321 JUMP JUMPDEST DUP3 MSTORE POP POP JUMP JUMPDEST PUSH1 0xC0 DUP3 ADD PUSH1 0x0 DUP3 ADD MLOAD PUSH2 0x2358 PUSH1 0x0 DUP6 ADD DUP3 PUSH2 0x22AD JUMP JUMPDEST POP PUSH1 0x20 DUP3 ADD MLOAD PUSH2 0x236B PUSH1 0x20 DUP6 ADD DUP3 PUSH2 0x22AD JUMP JUMPDEST POP PUSH1 0x40 DUP3 ADD MLOAD PUSH2 0x237E PUSH1 0x40 DUP6 ADD DUP3 PUSH2 0x22BC JUMP JUMPDEST POP PUSH1 0x60 DUP3 ADD MLOAD PUSH2 0x2391 PUSH1 0x60 DUP6 ADD DUP3 PUSH2 0x22BC JUMP JUMPDEST POP PUSH1 0x80 DUP3 ADD MLOAD PUSH2 0x23A4 PUSH1 0x80 DUP6 ADD DUP3 PUSH2 0x22AD JUMP JUMPDEST POP PUSH1 0xA0 DUP3 ADD MLOAD PUSH2 0x23B7 PUSH1 0xA0 DUP6 ADD DUP3 PUSH2 0x2333 JUMP JUMPDEST POP POP POP POP JUMP JUMPDEST PUSH1 0x0 PUSH2 0x23C9 DUP4 DUP4 PUSH2 0x2342 JUMP JUMPDEST PUSH1 0xC0 DUP4 ADD SWAP1 POP SWAP3 SWAP2 POP POP JUMP JUMPDEST PUSH1 0x0 PUSH1 0x20 DUP3 ADD SWAP1 POP SWAP2 SWAP1 POP JUMP JUMPDEST PUSH1 0x0 PUSH2 0x23ED DUP3 PUSH2 0x2281 JUMP JUMPDEST PUSH2 0x23F7 DUP2 DUP6 PUSH2 0x228C JUMP JUMPDEST SWAP4 POP PUSH2 0x2402 DUP4 PUSH2 0x229D JUMP JUMPDEST DUP1 PUSH1 0x0 JUMPDEST DUP4 DUP2 LT ISZERO PUSH2 0x2433 JUMPI DUP2 MLOAD PUSH2 0x241A DUP9 DUP3 PUSH2 0x23BD JUMP JUMPDEST SWAP8 POP PUSH2 0x2425 DUP4 PUSH2 0x23D5 JUMP JUMPDEST SWAP3 POP POP PUSH1 0x1 DUP2 ADD SWAP1 POP PUSH2 0x2406 JUMP JUMPDEST POP DUP6 SWAP4 POP POP POP POP SWAP3 SWAP2 POP POP JUMP JUMPDEST PUSH1 0x0 PUSH1 0x20 DUP3 ADD SWAP1 POP DUP2 DUP2 SUB PUSH1 0x0 DUP4 ADD MSTORE PUSH2 0x245A DUP2 DUP5 PUSH2 0x23E2 JUMP JUMPDEST SWAP1 POP SWAP3 SWAP2 POP POP JUMP JUMPDEST PUSH1 0x0 DUP1 PUSH1 0x40 DUP4 DUP6 SUB SLT ISZERO PUSH2 0x2479 JUMPI PUSH2 0x2478 PUSH2 0x20B9 JUMP JUMPDEST JUMPDEST PUSH1 0x0 PUSH2 0x2487 DUP6 DUP3 DUP7 ADD PUSH2 0x20E4 JUMP JUMPDEST SWAP3 POP POP PUSH1 0x20 PUSH2 0x2498 DUP6 DUP3 DUP7 ADD PUSH2 0x20E4 JUMP JUMPDEST SWAP2 POP POP SWAP3 POP SWAP3 SWAP1 POP JUMP JUMPDEST PUSH1 0x0 PUSH1 0xFF DUP3 AND SWAP1 POP SWAP2 SWAP1 POP JUMP JUMPDEST PUSH2 0x24B8 DUP2 PUSH2 0x24A2 JUMP JUMPDEST DUP3 MSTORE POP POP JUMP JUMPDEST PUSH1 0x0 PUSH1 0x20 DUP3 ADD SWAP1 POP PUSH2 0x24D3 PUSH1 0x0 DUP4 ADD DUP5 PUSH2 0x24AF JUMP JUMPDEST SWAP3 SWAP2 POP POP JUMP JUMPDEST PUSH2 0x24E2 DUP2 PUSH2 0x2146 JUMP JUMPDEST DUP3 MSTORE POP POP JUMP JUMPDEST PUSH1 0x0 PUSH1 0x20 DUP3 ADD SWAP1 POP PUSH2 0x24FD PUSH1 0x0 DUP4 ADD DUP5 PUSH2 0x24D9 JUMP JUMPDEST SWAP3 SWAP2 POP POP JUMP JUMPDEST PUSH2 0x250C DUP2 PUSH2 0x20C3 JUMP JUMPDEST DUP3 MSTORE POP POP JUMP JUMPDEST PUSH2 0x251B DUP2 PUSH2 0x2321 JUMP JUMPDEST DUP3 MSTORE POP POP JUMP JUMPDEST PUSH1 0x0 PUSH1 0xC0 DUP3 ADD SWAP1 POP PUSH2 0x2536 PUSH1 0x0 DUP4 ADD DUP10 PUSH2 0x2503 JUMP JUMPDEST PUSH2 0x2543 PUSH1 0x20 DUP4 ADD DUP9 PUSH2 0x2503 JUMP JUMPDEST PUSH2 0x2550 PUSH1 0x40 DUP4 ADD DUP8 PUSH2 0x24D9 JUMP JUMPDEST PUSH2 0x255D PUSH1 0x60 DUP4 ADD DUP7 PUSH2 0x24D9 JUMP JUMPDEST PUSH2 0x256A PUSH1 0x80 DUP4 ADD DUP6 PUSH2 0x2503 JUMP JUMPDEST PUSH2 0x2577 PUSH1 0xA0 DUP4 ADD DUP5 PUSH2 0x2512 JUMP JUMPDEST SWAP8 SWAP7 POP POP POP POP POP POP POP JUMP JUMPDEST PUSH1 0x0 PUSH2 0x258D DUP3 PUSH2 0x2233 JUMP JUMPDEST SWAP1 POP SWAP2 SWAP1 POP JUMP JUMPDEST PUSH2 0x259D DUP2 PUSH2 0x2582 JUMP JUMPDEST DUP3 MSTORE POP POP JUMP JUMPDEST PUSH1 0x0 PUSH1 0x20 DUP3 ADD SWAP1 POP PUSH2 0x25B8 PUSH1 0x0 DUP4 ADD DUP5 PUSH2 0x2594 JUMP JUMPDEST SWAP3 SWAP2 POP POP JUMP JUMPDEST PUSH1 0xC0 DUP3 ADD PUSH1 0x0 DUP3 ADD MLOAD PUSH2 0x25D4 PUSH1 0x0 DUP6 ADD DUP3 PUSH2 0x22AD JUMP JUMPDEST POP PUSH1 0x20 DUP3 ADD MLOAD PUSH2 0x25E7 PUSH1 0x20 DUP6 ADD DUP3 PUSH2 0x22AD JUMP JUMPDEST POP PUSH1 0x40 DUP3 ADD MLOAD PUSH2 0x25FA PUSH1 0x40 DUP6 ADD DUP3 PUSH2 0x22BC JUMP JUMPDEST POP PUSH1 0x60 DUP3 ADD MLOAD PUSH2 0x260D PUSH1 0x60 DUP6 ADD DUP3 PUSH2 0x22BC JUMP JUMPDEST POP PUSH1 0x80 DUP3 ADD MLOAD PUSH2 0x2620 PUSH1 0x80 DUP6 ADD DUP3 PUSH2 0x22AD JUMP JUMPDEST POP PUSH1 0xA0 DUP3 ADD MLOAD PUSH2 0x2633 PUSH1 0xA0 DUP6 ADD DUP3 PUSH2 0x2333 JUMP JUMPDEST POP POP POP POP JUMP JUMPDEST PUSH1 0x0 PUSH1 0xC0 DUP3 ADD SWAP1 POP PUSH2 0x264E PUSH1 0x0 DUP4 ADD DUP5 PUSH2 0x25BE JUMP JUMPDEST SWAP3 SWAP2 POP POP JUMP JUMPDEST PUSH1 0x0 PUSH2 0x265F DUP3 PUSH2 0x2233 JUMP JUMPDEST SWAP1 POP SWAP2 SWAP1 POP JUMP JUMPDEST PUSH2 0x266F DUP2 PUSH2 0x2654 JUMP JUMPDEST DUP3 MSTORE POP POP JUMP JUMPDEST PUSH1 0x0 PUSH1 0x20 DUP3 ADD SWAP1 POP PUSH2 0x268A PUSH1 0x0 DUP4 ADD DUP5 PUSH2 0x2666 JUMP JUMPDEST SWAP3 SWAP2 POP POP JUMP JUMPDEST PUSH1 0x0 DUP3 DUP3 MSTORE PUSH1 0x20 DUP3 ADD SWAP1 POP SWAP3 SWAP2 POP POP JUMP JUMPDEST PUSH32 0x4173736574206E6F74207075626C697368656400000000000000000000000000 PUSH1 0x0 DUP3 ADD MSTORE POP JUMP JUMPDEST PUSH1 0x0 PUSH2 0x26D7 PUSH1 0x13 DUP4 PUSH2 0x2690 JUMP JUMPDEST SWAP2 POP PUSH2 0x26E2 DUP3 PUSH2 0x26A1 JUMP JUMPDEST PUSH1 0x20 DUP3 ADD SWAP1 POP SWAP2 SWAP1 POP JUMP JUMPDEST PUSH1 0x0 PUSH1 0x20 DUP3 ADD SWAP1 POP DUP2 DUP2 SUB PUSH1 0x0 DUP4 ADD MSTORE PUSH2 0x2706 DUP2 PUSH2 0x26CA JUMP JUMPDEST SWAP1 POP SWAP2 SWAP1 POP JUMP JUMPDEST PUSH32 0x41737365742064656C6973746564000000000000000000000000000000000000 PUSH1 0x0 DUP3 ADD MSTORE POP JUMP JUMPDEST PUSH1 0x0 PUSH2 0x2743 PUSH1 0xE DUP4 PUSH2 0x2690 JUMP JUMPDEST SWAP2 POP PUSH2 0x274E DUP3 PUSH2 0x270D JUMP JUMPDEST PUSH1 0x20 DUP3 ADD SWAP1 POP SWAP2 SWAP1 POP JUMP JUMPDEST PUSH1 0x0 PUSH1 0x20 DUP3 ADD SWAP1 POP DUP2 DUP2 SUB PUSH1 0x0 DUP4 ADD MSTORE PUSH2 0x2772 DUP2 PUSH2 0x2736 JUMP JUMPDEST SWAP1 POP SWAP2 SWAP1 POP JUMP JUMPDEST PUSH32 0x496E76616C696420616464726573730000000000000000000000000000000000 PUSH1 0x0 DUP3 ADD MSTORE POP JUMP JUMPDEST PUSH1 0x0 PUSH2 0x27AF PUSH1 0xF DUP4 PUSH2 0x2690 JUMP JUMPDEST SWAP2 POP PUSH2 0x27BA DUP3 PUSH2 0x2779 JUMP JUMPDEST PUSH1 0x20 DUP3 ADD SWAP1 POP SWAP2 SWAP1 POP JUMP JUMPDEST PUSH1 0x0 PUSH1 0x20 DUP3 ADD SWAP1 POP DUP2 DUP2 SUB PUSH1 0x0 DUP4 ADD MSTORE PUSH2 0x27DE DUP2 PUSH2 0x27A2 JUMP JUMPDEST SWAP1 POP SWAP2 SWAP1 POP JUMP JUMPDEST PUSH32 0x4F6E6C792073656C6C65722063616E2064656C69737400000000000000000000 PUSH1 0x0 DUP3 ADD MSTORE POP JUMP JUMPDEST PUSH1 0x0 PUSH2 0x281B PUSH1 0x16 DUP4 PUSH2 0x2690 JUMP JUMPDEST SWAP2 POP PUSH2 0x2826 DUP3 PUSH2 0x27E5 JUMP JUMPDEST PUSH1 0x20 DUP3 ADD SWAP1 POP SWAP2 SWAP1 POP JUMP JUMPDEST PUSH1 0x0 PUSH1 0x20 DUP3 ADD SWAP1 POP DUP2 DUP2 SUB PUSH1 0x0 DUP4 ADD MSTORE PUSH2 0x284A DUP2 PUSH2 0x280E JUMP JUMPDEST SWAP1 POP SWAP2 SWAP1 POP JUMP JUMPDEST PUSH1 0x0 PUSH1 0x60 DUP3 ADD SWAP1 POP PUSH2 0x2866 PUSH1 0x0 DUP4 ADD DUP7 PUSH2 0x24D9 JUMP JUMPDEST PUSH2 0x2873 PUSH1 0x20 DUP4 ADD DUP6 PUSH2 0x24D9 JUMP JUMPDEST PUSH2 0x2880 PUSH1 0x40 DUP4 ADD DUP5 PUSH2 0x2503 JUMP JUMPDEST SWAP5 SWAP4 POP POP POP POP JUMP JUMPDEST PUSH1 0x0 PUSH1 0x40 DUP3 ADD SWAP1 POP PUSH2 0x289D PUSH1 0x0 DUP4 ADD DUP6 PUSH2 0x2503 JUMP JUMPDEST PUSH2 0x28AA PUSH1 0x20 DUP4 ADD DUP5 PUSH2 0x2503 JUMP JUMPDEST SWAP4 SWAP3 POP POP POP JUMP JUMPDEST PUSH32 0x4F776E61626C653A2063616C6C6572206973206E6F7420746865206F776E6572 PUSH1 0x0 DUP3 ADD MSTORE POP JUMP JUMPDEST PUSH1 0x0 PUSH2 0x28E7 PUSH1 0x20 DUP4 PUSH2 0x2690 JUMP JUMPDEST SWAP2 POP PUSH2 0x28F2 DUP3 PUSH2 0x28B1 JUMP JUMPDEST PUSH1 0x20 DUP3 ADD SWAP1 POP SWAP2 SWAP1 POP JUMP JUMPDEST PUSH1 0x0 PUSH1 0x20 DUP3 ADD SWAP1 POP DUP2 DUP2 SUB PUSH1 0x0 DUP4 ADD MSTORE PUSH2 0x2916 DUP2 PUSH2 0x28DA JUMP JUMPDEST SWAP1 POP SWAP2 SWAP1 POP JUMP JUMPDEST PUSH32 0x5072696365206D757374206265206174206C6561737420312077656900000000 PUSH1 0x0 DUP3 ADD MSTORE POP JUMP JUMPDEST PUSH1 0x0 PUSH2 0x2953 PUSH1 0x1C DUP4 PUSH2 0x2690 JUMP JUMPDEST SWAP2 POP PUSH2 0x295E DUP3 PUSH2 0x291D JUMP JUMPDEST PUSH1 0x20 DUP3 ADD SWAP1 POP SWAP2 SWAP1 POP JUMP JUMPDEST PUSH1 0x0 PUSH1 0x20 DUP3 ADD SWAP1 POP DUP2 DUP2 SUB PUSH1 0x0 DUP4 ADD MSTORE PUSH2 0x2982 DUP2 PUSH2 0x2946 JUMP JUMPDEST SWAP1 POP SWAP2 SWAP1 POP JUMP JUMPDEST PUSH32 0x4E487B7100000000000000000000000000000000000000000000000000000000 PUSH1 0x0 MSTORE PUSH1 0x11 PUSH1 0x4 MSTORE PUSH1 0x24 PUSH1 0x0 REVERT JUMPDEST PUSH1 0x0 PUSH2 0x29C3 DUP3 PUSH2 0x20C3 JUMP JUMPDEST SWAP2 POP PUSH2 0x29CE DUP4 PUSH2 0x20C3 JUMP JUMPDEST SWAP3 POP DUP3 PUSH32 0xFFFFFFFFFFFFFFFFFFFFFFFFFFFFFFFFFFFFFFFFFFFFFFFFFFFFFFFFFFFFFFFF SUB DUP3 GT ISZERO PUSH2 0x2A03 JUMPI PUSH2 0x2A02 PUSH2 0x2989 JUMP JUMPDEST JUMPDEST DUP3 DUP3 ADD SWAP1 POP SWAP3 SWAP2 POP POP JUMP JUMPDEST PUSH1 0x0 PUSH2 0x2A19 DUP3 PUSH2 0x20C3 JUMP JUMPDEST SWAP2 POP PUSH32 0xFFFFFFFFFFFFFFFFFFFFFFFFFFFFFFFFFFFFFFFFFFFFFFFFFFFFFFFFFFFFFFFF DUP3 SUB PUSH2 0x2A4B JUMPI PUSH2 0x2A4A PUSH2 0x2989 JUMP JUMPDEST JUMPDEST PUSH1 0x1 DUP3 ADD SWAP1 POP SWAP2 SWAP1 POP JUMP JUMPDEST PUSH32 0x4E487B7100000000000000000000000000000000000000000000000000000000 PUSH1 0x0 MSTORE PUSH1 0x41 PUSH1 0x4 MSTORE PUSH1 0x24 PUSH1 0x0 REVERT JUMPDEST PUSH32 0x4E487B7100000000000000000000000000000000000000000000000000000000 PUSH1 0x0 MSTORE PUSH1 0x32 PUSH1 0x4 MSTORE PUSH1 0x24 PUSH1 0x0 REVERT JUMPDEST PUSH1 0x0 PUSH1 0x20 DUP3 ADD SWAP1 POP PUSH2 0x2AC9 PUSH1 0x0 DUP4 ADD DUP5 PUSH2 0x2503 JUMP JUMPDEST SWAP3 SWAP2 POP POP JUMP JUMPDEST PUSH1 0x0 DUP1 REVERT JUMPDEST PUSH1 0x0 PUSH1 0x1F NOT PUSH1 0x1F DUP4 ADD AND SWAP1 POP SWAP2 SWAP1 POP JUMP JUMPDEST PUSH2 0x2AEE DUP3 PUSH2 0x2AD4 JUMP JUMPDEST DUP2 ADD DUP2 DUP2 LT PUSH8 0xFFFFFFFFFFFFFFFF DUP3 GT OR ISZERO PUSH2 0x2B0D JUMPI PUSH2 0x2B0C PUSH2 0x2A56 JUMP JUMPDEST JUMPDEST DUP1 PUSH1 0x40 MSTORE POP POP POP JUMP JUMPDEST PUSH1 0x0 PUSH2 0x2B20 PUSH2 0x20AF JUMP JUMPDEST SWAP1 POP PUSH2 0x2B2C DUP3 DUP3 PUSH2 0x2AE5 JUMP JUMPDEST SWAP2 SWAP1 POP JUMP JUMPDEST PUSH1 0x0 DUP1 REVERT JUMPDEST PUSH1 0x0 DUP2 MLOAD SWAP1 POP PUSH2 0x2B45 DUP2 PUSH2 0x20CD JUMP JUMPDEST SWAP3 SWAP2 POP POP JUMP JUMPDEST PUSH1 0x0 DUP2 MLOAD SWAP1 POP PUSH2 0x2B5A DUP2 PUSH2 0x2158 JUMP JUMPDEST SWAP3 SWAP2 POP POP JUMP JUMPDEST PUSH1 0x0 DUP1 REVERT JUMPDEST PUSH1 0x0 DUP1 REVERT JUMPDEST PUSH1 0x0 PUSH8 0xFFFFFFFFFFFFFFFF DUP3 GT ISZERO PUSH2 0x2B85 JUMPI PUSH2 0x2B84 PUSH2 0x2A56 JUMP JUMPDEST JUMPDEST PUSH2 0x2B8E DUP3 PUSH2 0x2AD4 JUMP JUMPDEST SWAP1 POP PUSH1 0x20 DUP2 ADD SWAP1 POP SWAP2 SWAP1 POP JUMP JUMPDEST PUSH1 0x0 JUMPDEST DUP4 DUP2 LT ISZERO PUSH2 0x2BB9 JUMPI DUP1 DUP3 ADD MLOAD DUP2 DUP5 ADD MSTORE PUSH1 0x20 DUP2 ADD SWAP1 POP PUSH2 0x2B9E JUMP JUMPDEST DUP4 DUP2 GT ISZERO PUSH2 0x2BC8 JUMPI PUSH1 0x0 DUP5 DUP5 ADD MSTORE JUMPDEST POP POP POP POP JUMP JUMPDEST PUSH1 0x0 PUSH2 0x2BE1 PUSH2 0x2BDC DUP5 PUSH2 0x2B6A JUMP JUMPDEST PUSH2 0x2B16 JUMP JUMPDEST SWAP1 POP DUP3 DUP2 MSTORE PUSH1 0x20 DUP2 ADD DUP5 DUP5 DUP5 ADD GT ISZERO PUSH2 0x2BFD JUMPI PUSH2 0x2BFC PUSH2 0x2B65 JUMP JUMPDEST JUMPDEST PUSH2 0x2C08 DUP5 DUP3 DUP6 PUSH2 0x2B9B JUMP JUMPDEST POP SWAP4 SWAP3 POP POP POP JUMP JUMPDEST PUSH1 0x0 DUP3 PUSH1 0x1F DUP4 ADD SLT PUSH2 0x2C25 JUMPI PUSH2 0x2C24 PUSH2 0x2B60 JUMP JUMPDEST JUMPDEST DUP2 MLOAD PUSH2 0x2C35 DUP5 DUP3 PUSH1 0x20 DUP7 ADD PUSH2 0x2BCE JUMP JUMPDEST SWAP2 POP POP SWAP3 SWAP2 POP POP JUMP JUMPDEST PUSH1 0x0 DUP2 ISZERO ISZERO SWAP1 POP SWAP2 SWAP1 POP JUMP JUMPDEST PUSH2 0x2C53 DUP2 PUSH2 0x2C3E JUMP JUMPDEST DUP2 EQ PUSH2 0x2C5E JUMPI PUSH1 0x0 DUP1 REVERT JUMPDEST POP JUMP JUMPDEST PUSH1 0x0 DUP2 MLOAD SWAP1 POP PUSH2 0x2C70 DUP2 PUSH2 0x2C4A JUMP JUMPDEST SWAP3 SWAP2 POP POP JUMP JUMPDEST PUSH1 0x0 PUSH1 0xA0 DUP3 DUP5 SUB SLT ISZERO PUSH2 0x2C8C JUMPI PUSH2 0x2C8B PUSH2 0x2ACF JUMP JUMPDEST JUMPDEST PUSH2 0x2C96 PUSH1 0xA0 PUSH2 0x2B16 JUMP JUMPDEST SWAP1 POP PUSH1 0x0 PUSH2 0x2CA6 DUP5 DUP3 DUP6 ADD PUSH2 0x2B36 JUMP JUMPDEST PUSH1 0x0 DUP4 ADD MSTORE POP PUSH1 0x20 PUSH2 0x2CBA DUP5 DUP3 DUP6 ADD PUSH2 0x2B4B JUMP JUMPDEST PUSH1 0x20 DUP4 ADD MSTORE POP PUSH1 0x40 DUP3 ADD MLOAD PUSH8 0xFFFFFFFFFFFFFFFF DUP2 GT ISZERO PUSH2 0x2CDE JUMPI PUSH2 0x2CDD PUSH2 0x2B31 JUMP JUMPDEST JUMPDEST PUSH2 0x2CEA DUP5 DUP3 DUP6 ADD PUSH2 0x2C10 JUMP JUMPDEST PUSH1 0x40 DUP4 ADD MSTORE POP PUSH1 0x60 DUP3 ADD MLOAD PUSH8 0xFFFFFFFFFFFFFFFF DUP2 GT ISZERO PUSH2 0x2D0E JUMPI PUSH2 0x2D0D PUSH2 0x2B31 JUMP JUMPDEST JUMPDEST PUSH2 0x2D1A DUP5 DUP3 DUP6 ADD PUSH2 0x2C10 JUMP JUMPDEST PUSH1 0x60 DUP4 ADD MSTORE POP PUSH1 0x80 PUSH2 0x2D2E DUP5 DUP3 DUP6 ADD PUSH2 0x2C61 JUMP JUMPDEST PUSH1 0x80 DUP4 ADD MSTORE POP SWAP3 SWAP2 POP POP JUMP JUMPDEST PUSH1 0x0 PUSH1 0x20 DUP3 DUP5 SUB SLT ISZERO PUSH2 0x2D50 JUMPI PUSH2 0x2D4F PUSH2 0x20B9 JUMP JUMPDEST JUMPDEST PUSH1 0x0 DUP3 ADD MLOAD PUSH8 0xFFFFFFFFFFFFFFFF DUP2 GT ISZERO PUSH2 0x2D6E JUMPI PUSH2 0x2D6D PUSH2 0x20BE JUMP JUMPDEST JUMPDEST PUSH2 0x2D7A DUP5 DUP3 DUP6 ADD PUSH2 0x2C76 JUMP JUMPDEST SWAP2 POP POP SWAP3 SWAP2 POP POP JUMP JUMPDEST PUSH32 0x4974656D206973206E6F7420617661696C61626C65206E6F7720210000000000 PUSH1 0x0 DUP3 ADD MSTORE POP JUMP JUMPDEST PUSH1 0x0 PUSH2 0x2DB9 PUSH1 0x1B DUP4 PUSH2 0x2690 JUMP JUMPDEST SWAP2 POP PUSH2 0x2DC4 DUP3 PUSH2 0x2D83 JUMP JUMPDEST PUSH1 0x20 DUP3 ADD SWAP1 POP SWAP2 SWAP1 POP JUMP JUMPDEST PUSH1 0x0 PUSH1 0x20 DUP3 ADD SWAP1 POP DUP2 DUP2 SUB PUSH1 0x0 DUP4 ADD MSTORE PUSH2 0x2DE8 DUP2 PUSH2 0x2DAC JUMP JUMPDEST SWAP1 POP SWAP2 SWAP1 POP JUMP JUMPDEST PUSH1 0x0 PUSH2 0x2DFA DUP3 PUSH2 0x2233 JUMP JUMPDEST SWAP1 POP SWAP2 SWAP1 POP JUMP JUMPDEST PUSH2 0x2E0A DUP2 PUSH2 0x2DEF JUMP JUMPDEST DUP3 MSTORE POP POP JUMP JUMPDEST PUSH1 0x0 PUSH1 0x60 DUP3 ADD SWAP1 POP PUSH2 0x2E25 PUSH1 0x0 DUP4 ADD DUP7 PUSH2 0x2E01 JUMP JUMPDEST PUSH2 0x2E32 PUSH1 0x20 DUP4 ADD DUP6 PUSH2 0x24D9 JUMP JUMPDEST PUSH2 0x2E3F PUSH1 0x40 DUP4 ADD DUP5 PUSH2 0x2503 JUMP JUMPDEST SWAP5 SWAP4 POP POP POP POP JUMP JUMPDEST PUSH32 0x506C65617365207375626D6974207468652061736B696E672070726963652069 PUSH1 0x0 DUP3 ADD MSTORE PUSH32 0x6E206F7264657220746F20636F6D706C65746520746865207075726368617365 PUSH1 0x20 DUP3 ADD MSTORE POP JUMP JUMPDEST PUSH1 0x0 PUSH2 0x2EA3 PUSH1 0x40 DUP4 PUSH2 0x2690 JUMP JUMPDEST SWAP2 POP PUSH2 0x2EAE DUP3 PUSH2 0x2E47 JUMP JUMPDEST PUSH1 0x40 DUP3 ADD SWAP1 POP SWAP2 SWAP1 POP JUMP JUMPDEST PUSH1 0x0 PUSH1 0x20 DUP3 ADD SWAP1 POP DUP2 DUP2 SUB PUSH1 0x0 DUP4 ADD MSTORE PUSH2 0x2ED2 DUP2 PUSH2 0x2E96 JUMP JUMPDEST SWAP1 POP SWAP2 SWAP1 POP JUMP JUMPDEST PUSH32 0x5351460000000000000000000000000000000000000000000000000000000000 PUSH1 0x0 DUP3 ADD MSTORE POP JUMP JUMPDEST PUSH1 0x0 PUSH2 0x2F0F PUSH1 0x3 DUP4 PUSH2 0x2690 JUMP JUMPDEST SWAP2 POP PUSH2 0x2F1A DUP3 PUSH2 0x2ED9 JUMP JUMPDEST PUSH1 0x20 DUP3 ADD SWAP1 POP SWAP2 SWAP1 POP JUMP JUMPDEST PUSH1 0x0 PUSH1 0x80 DUP3 ADD SWAP1 POP PUSH2 0x2F3A PUSH1 0x0 DUP4 ADD DUP7 PUSH2 0x2503 JUMP JUMPDEST PUSH2 0x2F47 PUSH1 0x20 DUP4 ADD DUP6 PUSH2 0x2503 JUMP JUMPDEST DUP2 DUP2 SUB PUSH1 0x40 DUP4 ADD MSTORE PUSH2 0x2F58 DUP2 PUSH2 0x2F02 JUMP JUMPDEST SWAP1 POP PUSH2 0x2F67 PUSH1 0x60 DUP4 ADD DUP5 PUSH2 0x2503 JUMP JUMPDEST SWAP5 SWAP4 POP POP POP POP JUMP JUMPDEST PUSH32 0x4F776E61626C653A206E6577206F776E657220697320746865207A65726F2061 PUSH1 0x0 DUP3 ADD MSTORE PUSH32 0x6464726573730000000000000000000000000000000000000000000000000000 PUSH1 0x20 DUP3 ADD MSTORE POP JUMP JUMPDEST PUSH1 0x0 PUSH2 0x2FCB PUSH1 0x26 DUP4 PUSH2 0x2690 JUMP JUMPDEST SWAP2 POP PUSH2 0x2FD6 DUP3 PUSH2 0x2F6F JUMP JUMPDEST PUSH1 0x40 DUP3 ADD SWAP1 POP SWAP2 SWAP1 POP JUMP JUMPDEST PUSH1 0x0 PUSH1 0x20 DUP3 ADD SWAP1 POP DUP2 DUP2 SUB PUSH1 0x0 DUP4 ADD MSTORE PUSH2 0x2FFA DUP2 PUSH2 0x2FBE JUMP JUMPDEST SWAP1 POP SWAP2 SWAP1 POP JUMP JUMPDEST PUSH1 0x0 PUSH1 0x20 DUP3 DUP5 SUB SLT ISZERO PUSH2 0x3017 JUMPI PUSH2 0x3016 PUSH2 0x20B9 JUMP JUMPDEST JUMPDEST PUSH1 0x0 PUSH2 0x3025 DUP5 DUP3 DUP6 ADD PUSH2 0x2C61 JUMP JUMPDEST SWAP2 POP POP SWAP3 SWAP2 POP POP JUMP INVALID LOG2 PUSH5 0x6970667358 0x22 SLT KECCAK256 PUSH4 0x7BD059DF CALLCODE PUSH29 0xB68D40538EBC335FF0693BC6129BECF8E4F00BD77E1054B09064736F6C PUSH4 0x4300080D STOP CALLER "
				},
				"gasEstimates": {
					"creation": {
						"codeDepositCost": "2477600",
						"executionCost": "infinite",
						"totalCost": "infinite"
					},
					"external": {
						"ERC721_Interface()": "431",
						"_safeTransferToMarket(uint256)": "infinite",
						"allItems(uint256)": "infinite",
						"antaFeePercent()": "2610",
						"bnbFeePercent()": "2654",
						"createMarketItem1(uint256,uint256)": "infinite",
						"createMarketItem2(uint256,uint256)": "infinite",
						"createMarketItem3(uint256)": "24809",
						"createMarketSale(uint256,uint256)": "infinite",
						"delistItem(uint256)": "infinite",
						"factory()": "infinite",
						"getMarketItem()": "infinite",
						"getMarketItem(uint256)": "infinite",
						"items(uint256)": "infinite",
						"mainNFTs()": "infinite",
						"mainToken()": "infinite",
						"owner()": "2545",
						"renounceOwnership()": "30485",
						"setFactory(address)": "27051",
						"setMainNFT(address)": "27008",
						"setMainToken(address)": "27030",
						"transferOwnership(address)": "30808"
					},
					"internal": {
						"_requireERC721(address)": "infinite",
						"_safeBuyItem(uint256,uint256,uint256)": "infinite",
						"isContract(address)": "infinite"
					}
				},
				"methodIdentifiers": {
					"ERC721_Interface()": "2b4c32be",
					"_safeTransferToMarket(uint256)": "e78e717d",
					"allItems(uint256)": "ff68fa6e",
					"antaFeePercent()": "b7a60c7e",
					"bnbFeePercent()": "85a8b36c",
					"createMarketItem1(uint256,uint256)": "49fb7d4b",
					"createMarketItem2(uint256,uint256)": "ae295f94",
					"createMarketItem3(uint256)": "3e48ca65",
					"createMarketSale(uint256,uint256)": "a1c11ca8",
					"delistItem(uint256)": "10061631",
					"factory()": "c45a0155",
					"getMarketItem()": "42199f88",
					"getMarketItem(uint256)": "c7be7a49",
					"items(uint256)": "bfb231d2",
					"mainNFTs()": "f55de0c7",
					"mainToken()": "3fc15f15",
					"owner()": "8da5cb5b",
					"renounceOwnership()": "715018a6",
					"setFactory(address)": "5bb47808",
					"setMainNFT(address)": "15b12494",
					"setMainToken(address)": "27ce464e",
					"transferOwnership(address)": "f2fde38b"
				}
			},
			"storageLayout": {
				"storage": [
					{
						"astId": 409,
						"contract": "contracts/Marketplace2/Marketplace.sol:NFTMarket",
						"label": "_status",
						"offset": 0,
						"slot": "0",
						"type": "t_uint256"
					},
					{
						"astId": 500,
						"contract": "contracts/Marketplace2/Marketplace.sol:NFTMarket",
						"label": "items",
						"offset": 0,
						"slot": "1",
						"type": "t_array(t_struct(MarketItem)496_storage)dyn_storage"
					},
					{
						"astId": 511,
						"contract": "contracts/Marketplace2/Marketplace.sol:NFTMarket",
						"label": "allItems",
						"offset": 0,
						"slot": "2",
						"type": "t_mapping(t_uint256,t_struct(MarketItem)496_storage)"
					},
					{
						"astId": 514,
						"contract": "contracts/Marketplace2/Marketplace.sol:NFTMarket",
						"label": "mainToken",
						"offset": 0,
						"slot": "3",
						"type": "t_contract(IERC20)201"
					},
					{
						"astId": 517,
						"contract": "contracts/Marketplace2/Marketplace.sol:NFTMarket",
						"label": "factory",
						"offset": 0,
						"slot": "4",
						"type": "t_contract(IFactory)478"
					},
					{
						"astId": 520,
						"contract": "contracts/Marketplace2/Marketplace.sol:NFTMarket",
						"label": "mainNFTs",
						"offset": 0,
						"slot": "5",
						"type": "t_contract(IERC721)326"
					},
					{
						"astId": 522,
						"contract": "contracts/Marketplace2/Marketplace.sol:NFTMarket",
						"label": "bnbFeePercent",
						"offset": 20,
						"slot": "5",
						"type": "t_uint8"
					},
					{
						"astId": 524,
						"contract": "contracts/Marketplace2/Marketplace.sol:NFTMarket",
						"label": "antaFeePercent",
						"offset": 21,
						"slot": "5",
						"type": "t_uint8"
					},
					{
						"astId": 27,
						"contract": "contracts/Marketplace2/Marketplace.sol:NFTMarket",
						"label": "_owner",
						"offset": 0,
						"slot": "6",
						"type": "t_address"
					},
					{
						"astId": 592,
						"contract": "contracts/Marketplace2/Marketplace.sol:NFTMarket",
						"label": "_itemIds",
						"offset": 0,
						"slot": "7",
						"type": "t_struct(Counter)331_storage"
					},
					{
						"astId": 595,
						"contract": "contracts/Marketplace2/Marketplace.sol:NFTMarket",
						"label": "_itemsSold",
						"offset": 0,
						"slot": "8",
						"type": "t_struct(Counter)331_storage"
					},
					{
						"astId": 600,
						"contract": "contracts/Marketplace2/Marketplace.sol:NFTMarket",
						"label": "idToMarketItem",
						"offset": 0,
						"slot": "9",
						"type": "t_mapping(t_uint256,t_struct(MarketItem)496_storage)"
					}
				],
				"types": {
					"t_address": {
						"encoding": "inplace",
						"label": "address",
						"numberOfBytes": "20"
					},
					"t_array(t_struct(MarketItem)496_storage)dyn_storage": {
						"base": "t_struct(MarketItem)496_storage",
						"encoding": "dynamic_array",
						"label": "struct MarketplaceStorage.MarketItem[]",
						"numberOfBytes": "32"
					},
					"t_contract(IERC20)201": {
						"encoding": "inplace",
						"label": "contract IERC20",
						"numberOfBytes": "20"
					},
					"t_contract(IERC721)326": {
						"encoding": "inplace",
						"label": "contract IERC721",
						"numberOfBytes": "20"
					},
					"t_contract(IFactory)478": {
						"encoding": "inplace",
						"label": "contract IFactory",
						"numberOfBytes": "20"
					},
					"t_enum(ItemStatus)482": {
						"encoding": "inplace",
						"label": "enum MarketplaceStorage.ItemStatus",
						"numberOfBytes": "1"
					},
					"t_mapping(t_uint256,t_struct(MarketItem)496_storage)": {
						"encoding": "mapping",
						"key": "t_uint256",
						"label": "mapping(uint256 => struct MarketplaceStorage.MarketItem)",
						"numberOfBytes": "32",
						"value": "t_struct(MarketItem)496_storage"
					},
					"t_struct(Counter)331_storage": {
						"encoding": "inplace",
						"label": "struct Counters.Counter",
						"members": [
							{
								"astId": 330,
								"contract": "contracts/Marketplace2/Marketplace.sol:NFTMarket",
								"label": "_value",
								"offset": 0,
								"slot": "0",
								"type": "t_uint256"
							}
						],
						"numberOfBytes": "32"
					},
					"t_struct(MarketItem)496_storage": {
						"encoding": "inplace",
						"label": "struct MarketplaceStorage.MarketItem",
						"members": [
							{
								"astId": 484,
								"contract": "contracts/Marketplace2/Marketplace.sol:NFTMarket",
								"label": "itemId",
								"offset": 0,
								"slot": "0",
								"type": "t_uint256"
							},
							{
								"astId": 486,
								"contract": "contracts/Marketplace2/Marketplace.sol:NFTMarket",
								"label": "tokenId",
								"offset": 0,
								"slot": "1",
								"type": "t_uint256"
							},
							{
								"astId": 488,
								"contract": "contracts/Marketplace2/Marketplace.sol:NFTMarket",
								"label": "seller",
								"offset": 0,
								"slot": "2",
								"type": "t_address"
							},
							{
								"astId": 490,
								"contract": "contracts/Marketplace2/Marketplace.sol:NFTMarket",
								"label": "owner",
								"offset": 0,
								"slot": "3",
								"type": "t_address"
							},
							{
								"astId": 492,
								"contract": "contracts/Marketplace2/Marketplace.sol:NFTMarket",
								"label": "price",
								"offset": 0,
								"slot": "4",
								"type": "t_uint256"
							},
							{
								"astId": 495,
								"contract": "contracts/Marketplace2/Marketplace.sol:NFTMarket",
								"label": "status",
								"offset": 0,
								"slot": "5",
								"type": "t_enum(ItemStatus)482"
							}
						],
						"numberOfBytes": "192"
					},
					"t_uint256": {
						"encoding": "inplace",
						"label": "uint256",
						"numberOfBytes": "32"
					},
					"t_uint8": {
						"encoding": "inplace",
						"label": "uint8",
						"numberOfBytes": "1"
					}
				}
			},
			"userdoc": {
				"kind": "user",
				"methods": {},
				"version": 1
			}
		}
	}
}