{
	"contracts/NFTContract3/FactoryStorage.sol": {
		"FactoryStorage": {
			"abi": [
				{
					"anonymous": false,
					"inputs": [
						{
							"indexed": true,
							"internalType": "address",
							"name": "user",
							"type": "address"
						},
						{
							"indexed": false,
							"internalType": "string",
							"name": "status",
							"type": "string"
						}
					],
					"name": "ActiveAccount",
					"type": "event"
				},
				{
					"anonymous": false,
					"inputs": [
						{
							"indexed": true,
							"internalType": "address",
							"name": "owner",
							"type": "address"
						},
						{
							"indexed": false,
							"internalType": "string",
							"name": "tokenId",
							"type": "string"
						}
					],
					"name": "Burn",
					"type": "event"
				},
				{
					"anonymous": false,
					"inputs": [
						{
							"indexed": true,
							"internalType": "address",
							"name": "receiver",
							"type": "address"
						},
						{
							"indexed": false,
							"internalType": "string",
							"name": "tokenId",
							"type": "string"
						}
					],
					"name": "Claim",
					"type": "event"
				},
				{
					"anonymous": false,
					"inputs": [
						{
							"indexed": true,
							"internalType": "address",
							"name": "to",
							"type": "address"
						},
						{
							"indexed": false,
							"internalType": "string",
							"name": "tokenId",
							"type": "string"
						}
					],
					"name": "Mint",
					"type": "event"
				},
				{
					"anonymous": false,
					"inputs": [
						{
							"indexed": true,
							"internalType": "address",
							"name": "owner",
							"type": "address"
						},
						{
							"indexed": false,
							"internalType": "string",
							"name": "tokenId",
							"type": "string"
						}
					],
					"name": "TransferToGame",
					"type": "event"
				},
				{
					"anonymous": false,
					"inputs": [
						{
							"indexed": true,
							"internalType": "address",
							"name": "owner",
							"type": "address"
						},
						{
							"indexed": false,
							"internalType": "string",
							"name": "tokenId",
							"type": "string"
						}
					],
					"name": "UnlockToken",
					"type": "event"
				},
				{
					"inputs": [],
					"name": "ERC721_Interface",
					"outputs": [
						{
							"internalType": "bytes4",
							"name": "",
							"type": "bytes4"
						}
					],
					"stateMutability": "view",
					"type": "function"
				},
				{
					"inputs": [
						{
							"internalType": "uint256",
							"name": "",
							"type": "uint256"
						}
					],
					"name": "ingameItem",
					"outputs": [
						{
							"internalType": "uint256",
							"name": "id",
							"type": "uint256"
						},
						{
							"internalType": "address",
							"name": "owner",
							"type": "address"
						},
						{
							"internalType": "string",
							"name": "itemId",
							"type": "string"
						},
						{
							"internalType": "string",
							"name": "externalId",
							"type": "string"
						},
						{
							"internalType": "bool",
							"name": "ingame",
							"type": "bool"
						}
					],
					"stateMutability": "view",
					"type": "function"
				},
				{
					"inputs": [],
					"name": "sqfToken",
					"outputs": [
						{
							"internalType": "contract IERC20",
							"name": "",
							"type": "address"
						}
					],
					"stateMutability": "view",
					"type": "function"
				},
				{
					"inputs": [
						{
							"internalType": "address",
							"name": "",
							"type": "address"
						}
					],
					"name": "userStatus",
					"outputs": [
						{
							"internalType": "enum FactoryStorage.activeStatus",
							"name": "status",
							"type": "uint8"
						}
					],
					"stateMutability": "view",
					"type": "function"
				}
			],
			"devdoc": {
				"kind": "dev",
				"methods": {},
				"version": 1
			},
			"evm": {
				"assembly": "    /* \"contracts/NFTContract3/FactoryStorage.sol\":837:1965  contract FactoryStorage {... */\n  mstore(0x40, 0x80)\n  callvalue\n  dup1\n  iszero\n  tag_1\n  jumpi\n  0x00\n  dup1\n  revert\ntag_1:\n  pop\n  dataSize(sub_0)\n  dup1\n  dataOffset(sub_0)\n  0x00\n  codecopy\n  0x00\n  return\nstop\n\nsub_0: assembly {\n        /* \"contracts/NFTContract3/FactoryStorage.sol\":837:1965  contract FactoryStorage {... */\n      mstore(0x40, 0x80)\n      callvalue\n      dup1\n      iszero\n      tag_1\n      jumpi\n      0x00\n      dup1\n      revert\n    tag_1:\n      pop\n      jumpi(tag_2, lt(calldatasize, 0x04))\n      shr(0xe0, calldataload(0x00))\n      dup1\n      0x15b81dc3\n      eq\n      tag_3\n      jumpi\n      dup1\n      0x225d29a1\n      eq\n      tag_4\n      jumpi\n      dup1\n      0x2b4c32be\n      eq\n      tag_5\n      jumpi\n      dup1\n      0xd30bdac9\n      eq\n      tag_6\n      jumpi\n    tag_2:\n      0x00\n      dup1\n      revert\n        /* \"contracts/NFTContract3/FactoryStorage.sol\":1343:1365  IERC20 public sqfToken */\n    tag_3:\n      tag_7\n      tag_8\n      jump\t// in\n    tag_7:\n      mload(0x40)\n      tag_9\n      swap2\n      swap1\n      tag_10\n      jump\t// in\n    tag_9:\n      mload(0x40)\n      dup1\n      swap2\n      sub\n      swap1\n      return\n        /* \"contracts/NFTContract3/FactoryStorage.sol\":1555:1604  mapping(address => usersStatus) public userStatus */\n    tag_4:\n      tag_11\n      0x04\n      dup1\n      calldatasize\n      sub\n      dup2\n      add\n      swap1\n      tag_12\n      swap2\n      swap1\n      tag_13\n      jump\t// in\n    tag_12:\n      tag_14\n      jump\t// in\n    tag_11:\n      mload(0x40)\n      tag_15\n      swap2\n      swap1\n      tag_16\n      jump\t// in\n    tag_15:\n      mload(0x40)\n      dup1\n      swap2\n      sub\n      swap1\n      return\n        /* \"contracts/NFTContract3/FactoryStorage.sol\":1277:1337  bytes4 public constant ERC721_Interface = bytes4(0x80ac58cd) */\n    tag_5:\n      tag_17\n      tag_18\n      jump\t// in\n    tag_17:\n      mload(0x40)\n      tag_19\n      swap2\n      swap1\n      tag_20\n      jump\t// in\n    tag_19:\n      mload(0x40)\n      dup1\n      swap2\n      sub\n      swap1\n      return\n        /* \"contracts/NFTContract3/FactoryStorage.sol\":1500:1549  mapping(uint256 => ingameItems) public ingameItem */\n    tag_6:\n      tag_21\n      0x04\n      dup1\n      calldatasize\n      sub\n      dup2\n      add\n      swap1\n      tag_22\n      swap2\n      swap1\n      tag_23\n      jump\t// in\n    tag_22:\n      tag_24\n      jump\t// in\n    tag_21:\n      mload(0x40)\n      tag_25\n      swap6\n      swap5\n      swap4\n      swap3\n      swap2\n      swap1\n      tag_26\n      jump\t// in\n    tag_25:\n      mload(0x40)\n      dup1\n      swap2\n      sub\n      swap1\n      return\n        /* \"contracts/NFTContract3/FactoryStorage.sol\":1343:1365  IERC20 public sqfToken */\n    tag_8:\n      0x00\n      dup1\n      sload\n      swap1\n      0x0100\n      exp\n      swap1\n      div\n      0xffffffffffffffffffffffffffffffffffffffff\n      and\n      dup2\n      jump\t// out\n        /* \"contracts/NFTContract3/FactoryStorage.sol\":1555:1604  mapping(address => usersStatus) public userStatus */\n    tag_14:\n      mstore(0x20, 0x03)\n      dup1\n      0x00\n      mstore\n      keccak256(0x00, 0x40)\n      0x00\n      swap2\n      pop\n      swap1\n      pop\n      dup1\n      0x00\n      add\n      0x00\n      swap1\n      sload\n      swap1\n      0x0100\n      exp\n      swap1\n      div\n      0xff\n      and\n      swap1\n      pop\n      dup2\n      jump\t// out\n        /* \"contracts/NFTContract3/FactoryStorage.sol\":1277:1337  bytes4 public constant ERC721_Interface = bytes4(0x80ac58cd) */\n    tag_18:\n        /* \"contracts/NFTContract3/FactoryStorage.sol\":1326:1336  0x80ac58cd */\n      0x80ac58cd\n        /* \"contracts/NFTContract3/FactoryStorage.sol\":1319:1337  bytes4(0x80ac58cd) */\n      0xe0\n      shl\n        /* \"contracts/NFTContract3/FactoryStorage.sol\":1277:1337  bytes4 public constant ERC721_Interface = bytes4(0x80ac58cd) */\n      dup2\n      jump\t// out\n        /* \"contracts/NFTContract3/FactoryStorage.sol\":1500:1549  mapping(uint256 => ingameItems) public ingameItem */\n    tag_24:\n      mstore(0x20, 0x02)\n      dup1\n      0x00\n      mstore\n      keccak256(0x00, 0x40)\n      0x00\n      swap2\n      pop\n      swap1\n      pop\n      dup1\n      0x00\n      add\n      sload\n      swap1\n      dup1\n      0x01\n      add\n      0x00\n      swap1\n      sload\n      swap1\n      0x0100\n      exp\n      swap1\n      div\n      0xffffffffffffffffffffffffffffffffffffffff\n      and\n      swap1\n      dup1\n      0x02\n      add\n      dup1\n      sload\n      tag_27\n      swap1\n      tag_28\n      jump\t// in\n    tag_27:\n      dup1\n      0x1f\n      add\n      0x20\n      dup1\n      swap2\n      div\n      mul\n      0x20\n      add\n      mload(0x40)\n      swap1\n      dup2\n      add\n      0x40\n      mstore\n      dup1\n      swap3\n      swap2\n      swap1\n      dup2\n      dup2\n      mstore\n      0x20\n      add\n      dup3\n      dup1\n      sload\n      tag_29\n      swap1\n      tag_28\n      jump\t// in\n    tag_29:\n      dup1\n      iszero\n      tag_30\n      jumpi\n      dup1\n      0x1f\n      lt\n      tag_31\n      jumpi\n      0x0100\n      dup1\n      dup4\n      sload\n      div\n      mul\n      dup4\n      mstore\n      swap2\n      0x20\n      add\n      swap2\n      jump(tag_30)\n    tag_31:\n      dup3\n      add\n      swap2\n      swap1\n      0x00\n      mstore\n      keccak256(0x00, 0x20)\n      swap1\n    tag_32:\n      dup2\n      sload\n      dup2\n      mstore\n      swap1\n      0x01\n      add\n      swap1\n      0x20\n      add\n      dup1\n      dup4\n      gt\n      tag_32\n      jumpi\n      dup3\n      swap1\n      sub\n      0x1f\n      and\n      dup3\n      add\n      swap2\n    tag_30:\n      pop\n      pop\n      pop\n      pop\n      pop\n      swap1\n      dup1\n      0x03\n      add\n      dup1\n      sload\n      tag_33\n      swap1\n      tag_28\n      jump\t// in\n    tag_33:\n      dup1\n      0x1f\n      add\n      0x20\n      dup1\n      swap2\n      div\n      mul\n      0x20\n      add\n      mload(0x40)\n      swap1\n      dup2\n      add\n      0x40\n      mstore\n      dup1\n      swap3\n      swap2\n      swap1\n      dup2\n      dup2\n      mstore\n      0x20\n      add\n      dup3\n      dup1\n      sload\n      tag_34\n      swap1\n      tag_28\n      jump\t// in\n    tag_34:\n      dup1\n      iszero\n      tag_35\n      jumpi\n      dup1\n      0x1f\n      lt\n      tag_36\n      jumpi\n      0x0100\n      dup1\n      dup4\n      sload\n      div\n      mul\n      dup4\n      mstore\n      swap2\n      0x20\n      add\n      swap2\n      jump(tag_35)\n    tag_36:\n      dup3\n      add\n      swap2\n      swap1\n      0x00\n      mstore\n      keccak256(0x00, 0x20)\n      swap1\n    tag_37:\n      dup2\n      sload\n      dup2\n      mstore\n      swap1\n      0x01\n      add\n      swap1\n      0x20\n      add\n      dup1\n      dup4\n      gt\n      tag_37\n      jumpi\n      dup3\n      swap1\n      sub\n      0x1f\n      and\n      dup3\n      add\n      swap2\n    tag_35:\n      pop\n      pop\n      pop\n      pop\n      pop\n      swap1\n      dup1\n      0x04\n      add\n      0x00\n      swap1\n      sload\n      swap1\n      0x0100\n      exp\n      swap1\n      div\n      0xff\n      and\n      swap1\n      pop\n      dup6\n      jump\t// out\n        /* \"#utility.yul\":7:133   */\n    tag_38:\n        /* \"#utility.yul\":44:51   */\n      0x00\n        /* \"#utility.yul\":84:126   */\n      0xffffffffffffffffffffffffffffffffffffffff\n        /* \"#utility.yul\":77:82   */\n      dup3\n        /* \"#utility.yul\":73:127   */\n      and\n        /* \"#utility.yul\":62:127   */\n      swap1\n      pop\n        /* \"#utility.yul\":7:133   */\n      swap2\n      swap1\n      pop\n      jump\t// out\n        /* \"#utility.yul\":139:199   */\n    tag_39:\n        /* \"#utility.yul\":167:170   */\n      0x00\n        /* \"#utility.yul\":188:193   */\n      dup2\n        /* \"#utility.yul\":181:193   */\n      swap1\n      pop\n        /* \"#utility.yul\":139:199   */\n      swap2\n      swap1\n      pop\n      jump\t// out\n        /* \"#utility.yul\":205:347   */\n    tag_40:\n        /* \"#utility.yul\":255:264   */\n      0x00\n        /* \"#utility.yul\":288:341   */\n      tag_74\n        /* \"#utility.yul\":306:340   */\n      tag_75\n        /* \"#utility.yul\":315:339   */\n      tag_76\n        /* \"#utility.yul\":333:338   */\n      dup5\n        /* \"#utility.yul\":315:339   */\n      tag_38\n      jump\t// in\n    tag_76:\n        /* \"#utility.yul\":306:340   */\n      tag_39\n      jump\t// in\n    tag_75:\n        /* \"#utility.yul\":288:341   */\n      tag_38\n      jump\t// in\n    tag_74:\n        /* \"#utility.yul\":275:341   */\n      swap1\n      pop\n        /* \"#utility.yul\":205:347   */\n      swap2\n      swap1\n      pop\n      jump\t// out\n        /* \"#utility.yul\":353:479   */\n    tag_41:\n        /* \"#utility.yul\":403:412   */\n      0x00\n        /* \"#utility.yul\":436:473   */\n      tag_78\n        /* \"#utility.yul\":467:472   */\n      dup3\n        /* \"#utility.yul\":436:473   */\n      tag_40\n      jump\t// in\n    tag_78:\n        /* \"#utility.yul\":423:473   */\n      swap1\n      pop\n        /* \"#utility.yul\":353:479   */\n      swap2\n      swap1\n      pop\n      jump\t// out\n        /* \"#utility.yul\":485:624   */\n    tag_42:\n        /* \"#utility.yul\":548:557   */\n      0x00\n        /* \"#utility.yul\":581:618   */\n      tag_80\n        /* \"#utility.yul\":612:617   */\n      dup3\n        /* \"#utility.yul\":581:618   */\n      tag_41\n      jump\t// in\n    tag_80:\n        /* \"#utility.yul\":568:618   */\n      swap1\n      pop\n        /* \"#utility.yul\":485:624   */\n      swap2\n      swap1\n      pop\n      jump\t// out\n        /* \"#utility.yul\":630:787   */\n    tag_43:\n        /* \"#utility.yul\":730:780   */\n      tag_82\n        /* \"#utility.yul\":774:779   */\n      dup2\n        /* \"#utility.yul\":730:780   */\n      tag_42\n      jump\t// in\n    tag_82:\n        /* \"#utility.yul\":725:728   */\n      dup3\n        /* \"#utility.yul\":718:781   */\n      mstore\n        /* \"#utility.yul\":630:787   */\n      pop\n      pop\n      jump\t// out\n        /* \"#utility.yul\":793:1041   */\n    tag_10:\n        /* \"#utility.yul\":899:903   */\n      0x00\n        /* \"#utility.yul\":937:939   */\n      0x20\n        /* \"#utility.yul\":926:935   */\n      dup3\n        /* \"#utility.yul\":922:940   */\n      add\n        /* \"#utility.yul\":914:940   */\n      swap1\n      pop\n        /* \"#utility.yul\":950:1034   */\n      tag_84\n        /* \"#utility.yul\":1031:1032   */\n      0x00\n        /* \"#utility.yul\":1020:1029   */\n      dup4\n        /* \"#utility.yul\":1016:1033   */\n      add\n        /* \"#utility.yul\":1007:1013   */\n      dup5\n        /* \"#utility.yul\":950:1034   */\n      tag_43\n      jump\t// in\n    tag_84:\n        /* \"#utility.yul\":793:1041   */\n      swap3\n      swap2\n      pop\n      pop\n      jump\t// out\n        /* \"#utility.yul\":1128:1245   */\n    tag_45:\n        /* \"#utility.yul\":1237:1238   */\n      0x00\n        /* \"#utility.yul\":1234:1235   */\n      dup1\n        /* \"#utility.yul\":1227:1239   */\n      revert\n        /* \"#utility.yul\":1374:1470   */\n    tag_47:\n        /* \"#utility.yul\":1411:1418   */\n      0x00\n        /* \"#utility.yul\":1440:1464   */\n      tag_89\n        /* \"#utility.yul\":1458:1463   */\n      dup3\n        /* \"#utility.yul\":1440:1464   */\n      tag_38\n      jump\t// in\n    tag_89:\n        /* \"#utility.yul\":1429:1464   */\n      swap1\n      pop\n        /* \"#utility.yul\":1374:1470   */\n      swap2\n      swap1\n      pop\n      jump\t// out\n        /* \"#utility.yul\":1476:1598   */\n    tag_48:\n        /* \"#utility.yul\":1549:1573   */\n      tag_91\n        /* \"#utility.yul\":1567:1572   */\n      dup2\n        /* \"#utility.yul\":1549:1573   */\n      tag_47\n      jump\t// in\n    tag_91:\n        /* \"#utility.yul\":1542:1547   */\n      dup2\n        /* \"#utility.yul\":1539:1574   */\n      eq\n        /* \"#utility.yul\":1529:1592   */\n      tag_92\n      jumpi\n        /* \"#utility.yul\":1588:1589   */\n      0x00\n        /* \"#utility.yul\":1585:1586   */\n      dup1\n        /* \"#utility.yul\":1578:1590   */\n      revert\n        /* \"#utility.yul\":1529:1592   */\n    tag_92:\n        /* \"#utility.yul\":1476:1598   */\n      pop\n      jump\t// out\n        /* \"#utility.yul\":1604:1743   */\n    tag_49:\n        /* \"#utility.yul\":1650:1655   */\n      0x00\n        /* \"#utility.yul\":1688:1694   */\n      dup2\n        /* \"#utility.yul\":1675:1695   */\n      calldataload\n        /* \"#utility.yul\":1666:1695   */\n      swap1\n      pop\n        /* \"#utility.yul\":1704:1737   */\n      tag_94\n        /* \"#utility.yul\":1731:1736   */\n      dup2\n        /* \"#utility.yul\":1704:1737   */\n      tag_48\n      jump\t// in\n    tag_94:\n        /* \"#utility.yul\":1604:1743   */\n      swap3\n      swap2\n      pop\n      pop\n      jump\t// out\n        /* \"#utility.yul\":1749:2078   */\n    tag_13:\n        /* \"#utility.yul\":1808:1814   */\n      0x00\n        /* \"#utility.yul\":1857:1859   */\n      0x20\n        /* \"#utility.yul\":1845:1854   */\n      dup3\n        /* \"#utility.yul\":1836:1843   */\n      dup5\n        /* \"#utility.yul\":1832:1855   */\n      sub\n        /* \"#utility.yul\":1828:1860   */\n      slt\n        /* \"#utility.yul\":1825:1944   */\n      iszero\n      tag_96\n      jumpi\n        /* \"#utility.yul\":1863:1942   */\n      tag_97\n      tag_45\n      jump\t// in\n    tag_97:\n        /* \"#utility.yul\":1825:1944   */\n    tag_96:\n        /* \"#utility.yul\":1983:1984   */\n      0x00\n        /* \"#utility.yul\":2008:2061   */\n      tag_98\n        /* \"#utility.yul\":2053:2060   */\n      dup5\n        /* \"#utility.yul\":2044:2050   */\n      dup3\n        /* \"#utility.yul\":2033:2042   */\n      dup6\n        /* \"#utility.yul\":2029:2051   */\n      add\n        /* \"#utility.yul\":2008:2061   */\n      tag_49\n      jump\t// in\n    tag_98:\n        /* \"#utility.yul\":1998:2061   */\n      swap2\n      pop\n        /* \"#utility.yul\":1954:2071   */\n      pop\n        /* \"#utility.yul\":1749:2078   */\n      swap3\n      swap2\n      pop\n      pop\n      jump\t// out\n        /* \"#utility.yul\":2084:2264   */\n    tag_50:\n        /* \"#utility.yul\":2132:2209   */\n      0x4e487b7100000000000000000000000000000000000000000000000000000000\n        /* \"#utility.yul\":2129:2130   */\n      0x00\n        /* \"#utility.yul\":2122:2210   */\n      mstore\n        /* \"#utility.yul\":2229:2233   */\n      0x21\n        /* \"#utility.yul\":2226:2227   */\n      0x04\n        /* \"#utility.yul\":2219:2234   */\n      mstore\n        /* \"#utility.yul\":2253:2257   */\n      0x24\n        /* \"#utility.yul\":2250:2251   */\n      0x00\n        /* \"#utility.yul\":2243:2258   */\n      revert\n        /* \"#utility.yul\":2270:2390   */\n    tag_51:\n        /* \"#utility.yul\":2358:2359   */\n      0x04\n        /* \"#utility.yul\":2351:2356   */\n      dup2\n        /* \"#utility.yul\":2348:2360   */\n      lt\n        /* \"#utility.yul\":2338:2384   */\n      tag_101\n      jumpi\n        /* \"#utility.yul\":2364:2382   */\n      tag_102\n      tag_50\n      jump\t// in\n    tag_102:\n        /* \"#utility.yul\":2338:2384   */\n    tag_101:\n        /* \"#utility.yul\":2270:2390   */\n      pop\n      jump\t// out\n        /* \"#utility.yul\":2396:2537   */\n    tag_52:\n        /* \"#utility.yul\":2448:2455   */\n      0x00\n        /* \"#utility.yul\":2477:2482   */\n      dup2\n        /* \"#utility.yul\":2466:2482   */\n      swap1\n      pop\n        /* \"#utility.yul\":2483:2531   */\n      tag_104\n        /* \"#utility.yul\":2525:2530   */\n      dup3\n        /* \"#utility.yul\":2483:2531   */\n      tag_51\n      jump\t// in\n    tag_104:\n        /* \"#utility.yul\":2396:2537   */\n      swap2\n      swap1\n      pop\n      jump\t// out\n        /* \"#utility.yul\":2543:2684   */\n    tag_53:\n        /* \"#utility.yul\":2606:2615   */\n      0x00\n        /* \"#utility.yul\":2639:2678   */\n      tag_106\n        /* \"#utility.yul\":2672:2677   */\n      dup3\n        /* \"#utility.yul\":2639:2678   */\n      tag_52\n      jump\t// in\n    tag_106:\n        /* \"#utility.yul\":2626:2678   */\n      swap1\n      pop\n        /* \"#utility.yul\":2543:2684   */\n      swap2\n      swap1\n      pop\n      jump\t// out\n        /* \"#utility.yul\":2690:2847   */\n    tag_54:\n        /* \"#utility.yul\":2790:2840   */\n      tag_108\n        /* \"#utility.yul\":2834:2839   */\n      dup2\n        /* \"#utility.yul\":2790:2840   */\n      tag_53\n      jump\t// in\n    tag_108:\n        /* \"#utility.yul\":2785:2788   */\n      dup3\n        /* \"#utility.yul\":2778:2841   */\n      mstore\n        /* \"#utility.yul\":2690:2847   */\n      pop\n      pop\n      jump\t// out\n        /* \"#utility.yul\":2853:3101   */\n    tag_16:\n        /* \"#utility.yul\":2959:2963   */\n      0x00\n        /* \"#utility.yul\":2997:2999   */\n      0x20\n        /* \"#utility.yul\":2986:2995   */\n      dup3\n        /* \"#utility.yul\":2982:3000   */\n      add\n        /* \"#utility.yul\":2974:3000   */\n      swap1\n      pop\n        /* \"#utility.yul\":3010:3094   */\n      tag_110\n        /* \"#utility.yul\":3091:3092   */\n      0x00\n        /* \"#utility.yul\":3080:3089   */\n      dup4\n        /* \"#utility.yul\":3076:3093   */\n      add\n        /* \"#utility.yul\":3067:3073   */\n      dup5\n        /* \"#utility.yul\":3010:3094   */\n      tag_54\n      jump\t// in\n    tag_110:\n        /* \"#utility.yul\":2853:3101   */\n      swap3\n      swap2\n      pop\n      pop\n      jump\t// out\n        /* \"#utility.yul\":3107:3256   */\n    tag_55:\n        /* \"#utility.yul\":3143:3150   */\n      0x00\n        /* \"#utility.yul\":3183:3249   */\n      0xffffffff00000000000000000000000000000000000000000000000000000000\n        /* \"#utility.yul\":3176:3181   */\n      dup3\n        /* \"#utility.yul\":3172:3250   */\n      and\n        /* \"#utility.yul\":3161:3250   */\n      swap1\n      pop\n        /* \"#utility.yul\":3107:3256   */\n      swap2\n      swap1\n      pop\n      jump\t// out\n        /* \"#utility.yul\":3262:3377   */\n    tag_56:\n        /* \"#utility.yul\":3347:3370   */\n      tag_113\n        /* \"#utility.yul\":3364:3369   */\n      dup2\n        /* \"#utility.yul\":3347:3370   */\n      tag_55\n      jump\t// in\n    tag_113:\n        /* \"#utility.yul\":3342:3345   */\n      dup3\n        /* \"#utility.yul\":3335:3371   */\n      mstore\n        /* \"#utility.yul\":3262:3377   */\n      pop\n      pop\n      jump\t// out\n        /* \"#utility.yul\":3383:3601   */\n    tag_20:\n        /* \"#utility.yul\":3474:3478   */\n      0x00\n        /* \"#utility.yul\":3512:3514   */\n      0x20\n        /* \"#utility.yul\":3501:3510   */\n      dup3\n        /* \"#utility.yul\":3497:3515   */\n      add\n        /* \"#utility.yul\":3489:3515   */\n      swap1\n      pop\n        /* \"#utility.yul\":3525:3594   */\n      tag_115\n        /* \"#utility.yul\":3591:3592   */\n      0x00\n        /* \"#utility.yul\":3580:3589   */\n      dup4\n        /* \"#utility.yul\":3576:3593   */\n      add\n        /* \"#utility.yul\":3567:3573   */\n      dup5\n        /* \"#utility.yul\":3525:3594   */\n      tag_56\n      jump\t// in\n    tag_115:\n        /* \"#utility.yul\":3383:3601   */\n      swap3\n      swap2\n      pop\n      pop\n      jump\t// out\n        /* \"#utility.yul\":3607:3684   */\n    tag_57:\n        /* \"#utility.yul\":3644:3651   */\n      0x00\n        /* \"#utility.yul\":3673:3678   */\n      dup2\n        /* \"#utility.yul\":3662:3678   */\n      swap1\n      pop\n        /* \"#utility.yul\":3607:3684   */\n      swap2\n      swap1\n      pop\n      jump\t// out\n        /* \"#utility.yul\":3690:3812   */\n    tag_58:\n        /* \"#utility.yul\":3763:3787   */\n      tag_118\n        /* \"#utility.yul\":3781:3786   */\n      dup2\n        /* \"#utility.yul\":3763:3787   */\n      tag_57\n      jump\t// in\n    tag_118:\n        /* \"#utility.yul\":3756:3761   */\n      dup2\n        /* \"#utility.yul\":3753:3788   */\n      eq\n        /* \"#utility.yul\":3743:3806   */\n      tag_119\n      jumpi\n        /* \"#utility.yul\":3802:3803   */\n      0x00\n        /* \"#utility.yul\":3799:3800   */\n      dup1\n        /* \"#utility.yul\":3792:3804   */\n      revert\n        /* \"#utility.yul\":3743:3806   */\n    tag_119:\n        /* \"#utility.yul\":3690:3812   */\n      pop\n      jump\t// out\n        /* \"#utility.yul\":3818:3957   */\n    tag_59:\n        /* \"#utility.yul\":3864:3869   */\n      0x00\n        /* \"#utility.yul\":3902:3908   */\n      dup2\n        /* \"#utility.yul\":3889:3909   */\n      calldataload\n        /* \"#utility.yul\":3880:3909   */\n      swap1\n      pop\n        /* \"#utility.yul\":3918:3951   */\n      tag_121\n        /* \"#utility.yul\":3945:3950   */\n      dup2\n        /* \"#utility.yul\":3918:3951   */\n      tag_58\n      jump\t// in\n    tag_121:\n        /* \"#utility.yul\":3818:3957   */\n      swap3\n      swap2\n      pop\n      pop\n      jump\t// out\n        /* \"#utility.yul\":3963:4292   */\n    tag_23:\n        /* \"#utility.yul\":4022:4028   */\n      0x00\n        /* \"#utility.yul\":4071:4073   */\n      0x20\n        /* \"#utility.yul\":4059:4068   */\n      dup3\n        /* \"#utility.yul\":4050:4057   */\n      dup5\n        /* \"#utility.yul\":4046:4069   */\n      sub\n        /* \"#utility.yul\":4042:4074   */\n      slt\n        /* \"#utility.yul\":4039:4158   */\n      iszero\n      tag_123\n      jumpi\n        /* \"#utility.yul\":4077:4156   */\n      tag_124\n      tag_45\n      jump\t// in\n    tag_124:\n        /* \"#utility.yul\":4039:4158   */\n    tag_123:\n        /* \"#utility.yul\":4197:4198   */\n      0x00\n        /* \"#utility.yul\":4222:4275   */\n      tag_125\n        /* \"#utility.yul\":4267:4274   */\n      dup5\n        /* \"#utility.yul\":4258:4264   */\n      dup3\n        /* \"#utility.yul\":4247:4256   */\n      dup6\n        /* \"#utility.yul\":4243:4265   */\n      add\n        /* \"#utility.yul\":4222:4275   */\n      tag_59\n      jump\t// in\n    tag_125:\n        /* \"#utility.yul\":4212:4275   */\n      swap2\n      pop\n        /* \"#utility.yul\":4168:4285   */\n      pop\n        /* \"#utility.yul\":3963:4292   */\n      swap3\n      swap2\n      pop\n      pop\n      jump\t// out\n        /* \"#utility.yul\":4298:4416   */\n    tag_60:\n        /* \"#utility.yul\":4385:4409   */\n      tag_127\n        /* \"#utility.yul\":4403:4408   */\n      dup2\n        /* \"#utility.yul\":4385:4409   */\n      tag_57\n      jump\t// in\n    tag_127:\n        /* \"#utility.yul\":4380:4383   */\n      dup3\n        /* \"#utility.yul\":4373:4410   */\n      mstore\n        /* \"#utility.yul\":4298:4416   */\n      pop\n      pop\n      jump\t// out\n        /* \"#utility.yul\":4422:4540   */\n    tag_61:\n        /* \"#utility.yul\":4509:4533   */\n      tag_129\n        /* \"#utility.yul\":4527:4532   */\n      dup2\n        /* \"#utility.yul\":4509:4533   */\n      tag_47\n      jump\t// in\n    tag_129:\n        /* \"#utility.yul\":4504:4507   */\n      dup3\n        /* \"#utility.yul\":4497:4534   */\n      mstore\n        /* \"#utility.yul\":4422:4540   */\n      pop\n      pop\n      jump\t// out\n        /* \"#utility.yul\":4546:4645   */\n    tag_62:\n        /* \"#utility.yul\":4598:4604   */\n      0x00\n        /* \"#utility.yul\":4632:4637   */\n      dup2\n        /* \"#utility.yul\":4626:4638   */\n      mload\n        /* \"#utility.yul\":4616:4638   */\n      swap1\n      pop\n        /* \"#utility.yul\":4546:4645   */\n      swap2\n      swap1\n      pop\n      jump\t// out\n        /* \"#utility.yul\":4651:4820   */\n    tag_63:\n        /* \"#utility.yul\":4735:4746   */\n      0x00\n        /* \"#utility.yul\":4769:4775   */\n      dup3\n        /* \"#utility.yul\":4764:4767   */\n      dup3\n        /* \"#utility.yul\":4757:4776   */\n      mstore\n        /* \"#utility.yul\":4809:4813   */\n      0x20\n        /* \"#utility.yul\":4804:4807   */\n      dup3\n        /* \"#utility.yul\":4800:4814   */\n      add\n        /* \"#utility.yul\":4785:4814   */\n      swap1\n      pop\n        /* \"#utility.yul\":4651:4820   */\n      swap3\n      swap2\n      pop\n      pop\n      jump\t// out\n        /* \"#utility.yul\":4826:5133   */\n    tag_64:\n        /* \"#utility.yul\":4894:4895   */\n      0x00\n        /* \"#utility.yul\":4904:5017   */\n    tag_133:\n        /* \"#utility.yul\":4918:4924   */\n      dup4\n        /* \"#utility.yul\":4915:4916   */\n      dup2\n        /* \"#utility.yul\":4912:4925   */\n      lt\n        /* \"#utility.yul\":4904:5017   */\n      iszero\n      tag_135\n      jumpi\n        /* \"#utility.yul\":5003:5004   */\n      dup1\n        /* \"#utility.yul\":4998:5001   */\n      dup3\n        /* \"#utility.yul\":4994:5005   */\n      add\n        /* \"#utility.yul\":4988:5006   */\n      mload\n        /* \"#utility.yul\":4984:4985   */\n      dup2\n        /* \"#utility.yul\":4979:4982   */\n      dup5\n        /* \"#utility.yul\":4975:4986   */\n      add\n        /* \"#utility.yul\":4968:5007   */\n      mstore\n        /* \"#utility.yul\":4940:4942   */\n      0x20\n        /* \"#utility.yul\":4937:4938   */\n      dup2\n        /* \"#utility.yul\":4933:4943   */\n      add\n        /* \"#utility.yul\":4928:4943   */\n      swap1\n      pop\n        /* \"#utility.yul\":4904:5017   */\n      jump(tag_133)\n    tag_135:\n        /* \"#utility.yul\":5035:5041   */\n      dup4\n        /* \"#utility.yul\":5032:5033   */\n      dup2\n        /* \"#utility.yul\":5029:5042   */\n      gt\n        /* \"#utility.yul\":5026:5127   */\n      iszero\n      tag_136\n      jumpi\n        /* \"#utility.yul\":5115:5116   */\n      0x00\n        /* \"#utility.yul\":5106:5112   */\n      dup5\n        /* \"#utility.yul\":5101:5104   */\n      dup5\n        /* \"#utility.yul\":5097:5113   */\n      add\n        /* \"#utility.yul\":5090:5117   */\n      mstore\n        /* \"#utility.yul\":5026:5127   */\n    tag_136:\n        /* \"#utility.yul\":4875:5133   */\n      pop\n        /* \"#utility.yul\":4826:5133   */\n      pop\n      pop\n      pop\n      jump\t// out\n        /* \"#utility.yul\":5139:5241   */\n    tag_65:\n        /* \"#utility.yul\":5180:5186   */\n      0x00\n        /* \"#utility.yul\":5231:5233   */\n      0x1f\n        /* \"#utility.yul\":5227:5234   */\n      not\n        /* \"#utility.yul\":5222:5224   */\n      0x1f\n        /* \"#utility.yul\":5215:5220   */\n      dup4\n        /* \"#utility.yul\":5211:5225   */\n      add\n        /* \"#utility.yul\":5207:5235   */\n      and\n        /* \"#utility.yul\":5197:5235   */\n      swap1\n      pop\n        /* \"#utility.yul\":5139:5241   */\n      swap2\n      swap1\n      pop\n      jump\t// out\n        /* \"#utility.yul\":5247:5611   */\n    tag_66:\n        /* \"#utility.yul\":5335:5338   */\n      0x00\n        /* \"#utility.yul\":5363:5402   */\n      tag_139\n        /* \"#utility.yul\":5396:5401   */\n      dup3\n        /* \"#utility.yul\":5363:5402   */\n      tag_62\n      jump\t// in\n    tag_139:\n        /* \"#utility.yul\":5418:5489   */\n      tag_140\n        /* \"#utility.yul\":5482:5488   */\n      dup2\n        /* \"#utility.yul\":5477:5480   */\n      dup6\n        /* \"#utility.yul\":5418:5489   */\n      tag_63\n      jump\t// in\n    tag_140:\n        /* \"#utility.yul\":5411:5489   */\n      swap4\n      pop\n        /* \"#utility.yul\":5498:5550   */\n      tag_141\n        /* \"#utility.yul\":5543:5549   */\n      dup2\n        /* \"#utility.yul\":5538:5541   */\n      dup6\n        /* \"#utility.yul\":5531:5535   */\n      0x20\n        /* \"#utility.yul\":5524:5529   */\n      dup7\n        /* \"#utility.yul\":5520:5536   */\n      add\n        /* \"#utility.yul\":5498:5550   */\n      tag_64\n      jump\t// in\n    tag_141:\n        /* \"#utility.yul\":5575:5604   */\n      tag_142\n        /* \"#utility.yul\":5597:5603   */\n      dup2\n        /* \"#utility.yul\":5575:5604   */\n      tag_65\n      jump\t// in\n    tag_142:\n        /* \"#utility.yul\":5570:5573   */\n      dup5\n        /* \"#utility.yul\":5566:5605   */\n      add\n        /* \"#utility.yul\":5559:5605   */\n      swap2\n      pop\n        /* \"#utility.yul\":5339:5611   */\n      pop\n        /* \"#utility.yul\":5247:5611   */\n      swap3\n      swap2\n      pop\n      pop\n      jump\t// out\n        /* \"#utility.yul\":5617:5707   */\n    tag_67:\n        /* \"#utility.yul\":5651:5658   */\n      0x00\n        /* \"#utility.yul\":5694:5699   */\n      dup2\n        /* \"#utility.yul\":5687:5700   */\n      iszero\n        /* \"#utility.yul\":5680:5701   */\n      iszero\n        /* \"#utility.yul\":5669:5701   */\n      swap1\n      pop\n        /* \"#utility.yul\":5617:5707   */\n      swap2\n      swap1\n      pop\n      jump\t// out\n        /* \"#utility.yul\":5713:5822   */\n    tag_68:\n        /* \"#utility.yul\":5794:5815   */\n      tag_145\n        /* \"#utility.yul\":5809:5814   */\n      dup2\n        /* \"#utility.yul\":5794:5815   */\n      tag_67\n      jump\t// in\n    tag_145:\n        /* \"#utility.yul\":5789:5792   */\n      dup3\n        /* \"#utility.yul\":5782:5816   */\n      mstore\n        /* \"#utility.yul\":5713:5822   */\n      pop\n      pop\n      jump\t// out\n        /* \"#utility.yul\":5828:6662   */\n    tag_26:\n        /* \"#utility.yul\":6067:6071   */\n      0x00\n        /* \"#utility.yul\":6105:6108   */\n      0xa0\n        /* \"#utility.yul\":6094:6103   */\n      dup3\n        /* \"#utility.yul\":6090:6109   */\n      add\n        /* \"#utility.yul\":6082:6109   */\n      swap1\n      pop\n        /* \"#utility.yul\":6119:6190   */\n      tag_147\n        /* \"#utility.yul\":6187:6188   */\n      0x00\n        /* \"#utility.yul\":6176:6185   */\n      dup4\n        /* \"#utility.yul\":6172:6189   */\n      add\n        /* \"#utility.yul\":6163:6169   */\n      dup9\n        /* \"#utility.yul\":6119:6190   */\n      tag_60\n      jump\t// in\n    tag_147:\n        /* \"#utility.yul\":6200:6272   */\n      tag_148\n        /* \"#utility.yul\":6268:6270   */\n      0x20\n        /* \"#utility.yul\":6257:6266   */\n      dup4\n        /* \"#utility.yul\":6253:6271   */\n      add\n        /* \"#utility.yul\":6244:6250   */\n      dup8\n        /* \"#utility.yul\":6200:6272   */\n      tag_61\n      jump\t// in\n    tag_148:\n        /* \"#utility.yul\":6319:6328   */\n      dup2\n        /* \"#utility.yul\":6313:6317   */\n      dup2\n        /* \"#utility.yul\":6309:6329   */\n      sub\n        /* \"#utility.yul\":6304:6306   */\n      0x40\n        /* \"#utility.yul\":6293:6302   */\n      dup4\n        /* \"#utility.yul\":6289:6307   */\n      add\n        /* \"#utility.yul\":6282:6330   */\n      mstore\n        /* \"#utility.yul\":6347:6425   */\n      tag_149\n        /* \"#utility.yul\":6420:6424   */\n      dup2\n        /* \"#utility.yul\":6411:6417   */\n      dup7\n        /* \"#utility.yul\":6347:6425   */\n      tag_66\n      jump\t// in\n    tag_149:\n        /* \"#utility.yul\":6339:6425   */\n      swap1\n      pop\n        /* \"#utility.yul\":6472:6481   */\n      dup2\n        /* \"#utility.yul\":6466:6470   */\n      dup2\n        /* \"#utility.yul\":6462:6482   */\n      sub\n        /* \"#utility.yul\":6457:6459   */\n      0x60\n        /* \"#utility.yul\":6446:6455   */\n      dup4\n        /* \"#utility.yul\":6442:6460   */\n      add\n        /* \"#utility.yul\":6435:6483   */\n      mstore\n        /* \"#utility.yul\":6500:6578   */\n      tag_150\n        /* \"#utility.yul\":6573:6577   */\n      dup2\n        /* \"#utility.yul\":6564:6570   */\n      dup6\n        /* \"#utility.yul\":6500:6578   */\n      tag_66\n      jump\t// in\n    tag_150:\n        /* \"#utility.yul\":6492:6578   */\n      swap1\n      pop\n        /* \"#utility.yul\":6588:6655   */\n      tag_151\n        /* \"#utility.yul\":6650:6653   */\n      0x80\n        /* \"#utility.yul\":6639:6648   */\n      dup4\n        /* \"#utility.yul\":6635:6654   */\n      add\n        /* \"#utility.yul\":6626:6632   */\n      dup5\n        /* \"#utility.yul\":6588:6655   */\n      tag_68\n      jump\t// in\n    tag_151:\n        /* \"#utility.yul\":5828:6662   */\n      swap7\n      swap6\n      pop\n      pop\n      pop\n      pop\n      pop\n      pop\n      jump\t// out\n        /* \"#utility.yul\":6668:6848   */\n    tag_69:\n        /* \"#utility.yul\":6716:6793   */\n      0x4e487b7100000000000000000000000000000000000000000000000000000000\n        /* \"#utility.yul\":6713:6714   */\n      0x00\n        /* \"#utility.yul\":6706:6794   */\n      mstore\n        /* \"#utility.yul\":6813:6817   */\n      0x22\n        /* \"#utility.yul\":6810:6811   */\n      0x04\n        /* \"#utility.yul\":6803:6818   */\n      mstore\n        /* \"#utility.yul\":6837:6841   */\n      0x24\n        /* \"#utility.yul\":6834:6835   */\n      0x00\n        /* \"#utility.yul\":6827:6842   */\n      revert\n        /* \"#utility.yul\":6854:7174   */\n    tag_28:\n        /* \"#utility.yul\":6898:6904   */\n      0x00\n        /* \"#utility.yul\":6935:6936   */\n      0x02\n        /* \"#utility.yul\":6929:6933   */\n      dup3\n        /* \"#utility.yul\":6925:6937   */\n      div\n        /* \"#utility.yul\":6915:6937   */\n      swap1\n      pop\n        /* \"#utility.yul\":6982:6983   */\n      0x01\n        /* \"#utility.yul\":6976:6980   */\n      dup3\n        /* \"#utility.yul\":6972:6984   */\n      and\n        /* \"#utility.yul\":7003:7021   */\n      dup1\n        /* \"#utility.yul\":6993:7074   */\n      tag_154\n      jumpi\n        /* \"#utility.yul\":7059:7063   */\n      0x7f\n        /* \"#utility.yul\":7051:7057   */\n      dup3\n        /* \"#utility.yul\":7047:7064   */\n      and\n        /* \"#utility.yul\":7037:7064   */\n      swap2\n      pop\n        /* \"#utility.yul\":6993:7074   */\n    tag_154:\n        /* \"#utility.yul\":7121:7123   */\n      0x20\n        /* \"#utility.yul\":7113:7119   */\n      dup3\n        /* \"#utility.yul\":7110:7124   */\n      lt\n        /* \"#utility.yul\":7090:7108   */\n      dup2\n        /* \"#utility.yul\":7087:7125   */\n      sub\n        /* \"#utility.yul\":7084:7168   */\n      tag_155\n      jumpi\n        /* \"#utility.yul\":7140:7158   */\n      tag_156\n      tag_69\n      jump\t// in\n    tag_156:\n        /* \"#utility.yul\":7084:7168   */\n    tag_155:\n        /* \"#utility.yul\":6905:7174   */\n      pop\n        /* \"#utility.yul\":6854:7174   */\n      swap2\n      swap1\n      pop\n      jump\t// out\n\n    auxdata: 0xa264697066735822122002b7e47ee65bb0477b810c33223931bcd0a87a40e09eed37bc32184030281abd64736f6c634300080d0033\n}\n",
				"bytecode": {
					"linkReferences": {},
					"object": "608060405234801561001057600080fd5b506106dc806100206000396000f3fe608060405234801561001057600080fd5b506004361061004c5760003560e01c806315b81dc314610051578063225d29a11461006f5780632b4c32be1461009f578063d30bdac9146100bd575b600080fd5b6100596100f1565b604051610066919061033d565b60405180910390f35b6100896004803603810190610084919061039b565b610115565b604051610096919061043f565b60405180910390f35b6100a7610140565b6040516100b49190610495565b60405180910390f35b6100d760048036038101906100d291906104e6565b61014b565b6040516100e89594939291906105e5565b60405180910390f35b60008054906101000a900473ffffffffffffffffffffffffffffffffffffffff1681565b60036020528060005260406000206000915090508060000160009054906101000a900460ff16905081565b6380ac58cd60e01b81565b60026020528060005260406000206000915090508060000154908060010160009054906101000a900473ffffffffffffffffffffffffffffffffffffffff169080600201805461019a90610675565b80601f01602080910402602001604051908101604052809291908181526020018280546101c690610675565b80156102135780601f106101e857610100808354040283529160200191610213565b820191906000526020600020905b8154815290600101906020018083116101f657829003601f168201915b50505050509080600301805461022890610675565b80601f016020809104026020016040519081016040528092919081815260200182805461025490610675565b80156102a15780601f10610276576101008083540402835291602001916102a1565b820191906000526020600020905b81548152906001019060200180831161028457829003601f168201915b5050505050908060040160009054906101000a900460ff16905085565b600073ffffffffffffffffffffffffffffffffffffffff82169050919050565b6000819050919050565b60006103036102fe6102f9846102be565b6102de565b6102be565b9050919050565b6000610315826102e8565b9050919050565b60006103278261030a565b9050919050565b6103378161031c565b82525050565b6000602082019050610352600083018461032e565b92915050565b600080fd5b6000610368826102be565b9050919050565b6103788161035d565b811461038357600080fd5b50565b6000813590506103958161036f565b92915050565b6000602082840312156103b1576103b0610358565b5b60006103bf84828501610386565b91505092915050565b7f4e487b7100000000000000000000000000000000000000000000000000000000600052602160045260246000fd5b60048110610408576104076103c8565b5b50565b6000819050610419826103f7565b919050565b60006104298261040b565b9050919050565b6104398161041e565b82525050565b60006020820190506104546000830184610430565b92915050565b60007fffffffff0000000000000000000000000000000000000000000000000000000082169050919050565b61048f8161045a565b82525050565b60006020820190506104aa6000830184610486565b92915050565b6000819050919050565b6104c3816104b0565b81146104ce57600080fd5b50565b6000813590506104e0816104ba565b92915050565b6000602082840312156104fc576104fb610358565b5b600061050a848285016104d1565b91505092915050565b61051c816104b0565b82525050565b61052b8161035d565b82525050565b600081519050919050565b600082825260208201905092915050565b60005b8381101561056b578082015181840152602081019050610550565b8381111561057a576000848401525b50505050565b6000601f19601f8301169050919050565b600061059c82610531565b6105a6818561053c565b93506105b681856020860161054d565b6105bf81610580565b840191505092915050565b60008115159050919050565b6105df816105ca565b82525050565b600060a0820190506105fa6000830188610513565b6106076020830187610522565b81810360408301526106198186610591565b9050818103606083015261062d8185610591565b905061063c60808301846105d6565b9695505050505050565b7f4e487b7100000000000000000000000000000000000000000000000000000000600052602260045260246000fd5b6000600282049050600182168061068d57607f821691505b6020821081036106a05761069f610646565b5b5091905056fea264697066735822122002b7e47ee65bb0477b810c33223931bcd0a87a40e09eed37bc32184030281abd64736f6c634300080d0033",
					"opcodes": "PUSH1 0x80 PUSH1 0x40 MSTORE CALLVALUE DUP1 ISZERO PUSH2 0x10 JUMPI PUSH1 0x0 DUP1 REVERT JUMPDEST POP PUSH2 0x6DC DUP1 PUSH2 0x20 PUSH1 0x0 CODECOPY PUSH1 0x0 RETURN INVALID PUSH1 0x80 PUSH1 0x40 MSTORE CALLVALUE DUP1 ISZERO PUSH2 0x10 JUMPI PUSH1 0x0 DUP1 REVERT JUMPDEST POP PUSH1 0x4 CALLDATASIZE LT PUSH2 0x4C JUMPI PUSH1 0x0 CALLDATALOAD PUSH1 0xE0 SHR DUP1 PUSH4 0x15B81DC3 EQ PUSH2 0x51 JUMPI DUP1 PUSH4 0x225D29A1 EQ PUSH2 0x6F JUMPI DUP1 PUSH4 0x2B4C32BE EQ PUSH2 0x9F JUMPI DUP1 PUSH4 0xD30BDAC9 EQ PUSH2 0xBD JUMPI JUMPDEST PUSH1 0x0 DUP1 REVERT JUMPDEST PUSH2 0x59 PUSH2 0xF1 JUMP JUMPDEST PUSH1 0x40 MLOAD PUSH2 0x66 SWAP2 SWAP1 PUSH2 0x33D JUMP JUMPDEST PUSH1 0x40 MLOAD DUP1 SWAP2 SUB SWAP1 RETURN JUMPDEST PUSH2 0x89 PUSH1 0x4 DUP1 CALLDATASIZE SUB DUP2 ADD SWAP1 PUSH2 0x84 SWAP2 SWAP1 PUSH2 0x39B JUMP JUMPDEST PUSH2 0x115 JUMP JUMPDEST PUSH1 0x40 MLOAD PUSH2 0x96 SWAP2 SWAP1 PUSH2 0x43F JUMP JUMPDEST PUSH1 0x40 MLOAD DUP1 SWAP2 SUB SWAP1 RETURN JUMPDEST PUSH2 0xA7 PUSH2 0x140 JUMP JUMPDEST PUSH1 0x40 MLOAD PUSH2 0xB4 SWAP2 SWAP1 PUSH2 0x495 JUMP JUMPDEST PUSH1 0x40 MLOAD DUP1 SWAP2 SUB SWAP1 RETURN JUMPDEST PUSH2 0xD7 PUSH1 0x4 DUP1 CALLDATASIZE SUB DUP2 ADD SWAP1 PUSH2 0xD2 SWAP2 SWAP1 PUSH2 0x4E6 JUMP JUMPDEST PUSH2 0x14B JUMP JUMPDEST PUSH1 0x40 MLOAD PUSH2 0xE8 SWAP6 SWAP5 SWAP4 SWAP3 SWAP2 SWAP1 PUSH2 0x5E5 JUMP JUMPDEST PUSH1 0x40 MLOAD DUP1 SWAP2 SUB SWAP1 RETURN JUMPDEST PUSH1 0x0 DUP1 SLOAD SWAP1 PUSH2 0x100 EXP SWAP1 DIV PUSH20 0xFFFFFFFFFFFFFFFFFFFFFFFFFFFFFFFFFFFFFFFF AND DUP2 JUMP JUMPDEST PUSH1 0x3 PUSH1 0x20 MSTORE DUP1 PUSH1 0x0 MSTORE PUSH1 0x40 PUSH1 0x0 KECCAK256 PUSH1 0x0 SWAP2 POP SWAP1 POP DUP1 PUSH1 0x0 ADD PUSH1 0x0 SWAP1 SLOAD SWAP1 PUSH2 0x100 EXP SWAP1 DIV PUSH1 0xFF AND SWAP1 POP DUP2 JUMP JUMPDEST PUSH4 0x80AC58CD PUSH1 0xE0 SHL DUP2 JUMP JUMPDEST PUSH1 0x2 PUSH1 0x20 MSTORE DUP1 PUSH1 0x0 MSTORE PUSH1 0x40 PUSH1 0x0 KECCAK256 PUSH1 0x0 SWAP2 POP SWAP1 POP DUP1 PUSH1 0x0 ADD SLOAD SWAP1 DUP1 PUSH1 0x1 ADD PUSH1 0x0 SWAP1 SLOAD SWAP1 PUSH2 0x100 EXP SWAP1 DIV PUSH20 0xFFFFFFFFFFFFFFFFFFFFFFFFFFFFFFFFFFFFFFFF AND SWAP1 DUP1 PUSH1 0x2 ADD DUP1 SLOAD PUSH2 0x19A SWAP1 PUSH2 0x675 JUMP JUMPDEST DUP1 PUSH1 0x1F ADD PUSH1 0x20 DUP1 SWAP2 DIV MUL PUSH1 0x20 ADD PUSH1 0x40 MLOAD SWAP1 DUP2 ADD PUSH1 0x40 MSTORE DUP1 SWAP3 SWAP2 SWAP1 DUP2 DUP2 MSTORE PUSH1 0x20 ADD DUP3 DUP1 SLOAD PUSH2 0x1C6 SWAP1 PUSH2 0x675 JUMP JUMPDEST DUP1 ISZERO PUSH2 0x213 JUMPI DUP1 PUSH1 0x1F LT PUSH2 0x1E8 JUMPI PUSH2 0x100 DUP1 DUP4 SLOAD DIV MUL DUP4 MSTORE SWAP2 PUSH1 0x20 ADD SWAP2 PUSH2 0x213 JUMP JUMPDEST DUP3 ADD SWAP2 SWAP1 PUSH1 0x0 MSTORE PUSH1 0x20 PUSH1 0x0 KECCAK256 SWAP1 JUMPDEST DUP2 SLOAD DUP2 MSTORE SWAP1 PUSH1 0x1 ADD SWAP1 PUSH1 0x20 ADD DUP1 DUP4 GT PUSH2 0x1F6 JUMPI DUP3 SWAP1 SUB PUSH1 0x1F AND DUP3 ADD SWAP2 JUMPDEST POP POP POP POP POP SWAP1 DUP1 PUSH1 0x3 ADD DUP1 SLOAD PUSH2 0x228 SWAP1 PUSH2 0x675 JUMP JUMPDEST DUP1 PUSH1 0x1F ADD PUSH1 0x20 DUP1 SWAP2 DIV MUL PUSH1 0x20 ADD PUSH1 0x40 MLOAD SWAP1 DUP2 ADD PUSH1 0x40 MSTORE DUP1 SWAP3 SWAP2 SWAP1 DUP2 DUP2 MSTORE PUSH1 0x20 ADD DUP3 DUP1 SLOAD PUSH2 0x254 SWAP1 PUSH2 0x675 JUMP JUMPDEST DUP1 ISZERO PUSH2 0x2A1 JUMPI DUP1 PUSH1 0x1F LT PUSH2 0x276 JUMPI PUSH2 0x100 DUP1 DUP4 SLOAD DIV MUL DUP4 MSTORE SWAP2 PUSH1 0x20 ADD SWAP2 PUSH2 0x2A1 JUMP JUMPDEST DUP3 ADD SWAP2 SWAP1 PUSH1 0x0 MSTORE PUSH1 0x20 PUSH1 0x0 KECCAK256 SWAP1 JUMPDEST DUP2 SLOAD DUP2 MSTORE SWAP1 PUSH1 0x1 ADD SWAP1 PUSH1 0x20 ADD DUP1 DUP4 GT PUSH2 0x284 JUMPI DUP3 SWAP1 SUB PUSH1 0x1F AND DUP3 ADD SWAP2 JUMPDEST POP POP POP POP POP SWAP1 DUP1 PUSH1 0x4 ADD PUSH1 0x0 SWAP1 SLOAD SWAP1 PUSH2 0x100 EXP SWAP1 DIV PUSH1 0xFF AND SWAP1 POP DUP6 JUMP JUMPDEST PUSH1 0x0 PUSH20 0xFFFFFFFFFFFFFFFFFFFFFFFFFFFFFFFFFFFFFFFF DUP3 AND SWAP1 POP SWAP2 SWAP1 POP JUMP JUMPDEST PUSH1 0x0 DUP2 SWAP1 POP SWAP2 SWAP1 POP JUMP JUMPDEST PUSH1 0x0 PUSH2 0x303 PUSH2 0x2FE PUSH2 0x2F9 DUP5 PUSH2 0x2BE JUMP JUMPDEST PUSH2 0x2DE JUMP JUMPDEST PUSH2 0x2BE JUMP JUMPDEST SWAP1 POP SWAP2 SWAP1 POP JUMP JUMPDEST PUSH1 0x0 PUSH2 0x315 DUP3 PUSH2 0x2E8 JUMP JUMPDEST SWAP1 POP SWAP2 SWAP1 POP JUMP JUMPDEST PUSH1 0x0 PUSH2 0x327 DUP3 PUSH2 0x30A JUMP JUMPDEST SWAP1 POP SWAP2 SWAP1 POP JUMP JUMPDEST PUSH2 0x337 DUP2 PUSH2 0x31C JUMP JUMPDEST DUP3 MSTORE POP POP JUMP JUMPDEST PUSH1 0x0 PUSH1 0x20 DUP3 ADD SWAP1 POP PUSH2 0x352 PUSH1 0x0 DUP4 ADD DUP5 PUSH2 0x32E JUMP JUMPDEST SWAP3 SWAP2 POP POP JUMP JUMPDEST PUSH1 0x0 DUP1 REVERT JUMPDEST PUSH1 0x0 PUSH2 0x368 DUP3 PUSH2 0x2BE JUMP JUMPDEST SWAP1 POP SWAP2 SWAP1 POP JUMP JUMPDEST PUSH2 0x378 DUP2 PUSH2 0x35D JUMP JUMPDEST DUP2 EQ PUSH2 0x383 JUMPI PUSH1 0x0 DUP1 REVERT JUMPDEST POP JUMP JUMPDEST PUSH1 0x0 DUP2 CALLDATALOAD SWAP1 POP PUSH2 0x395 DUP2 PUSH2 0x36F JUMP JUMPDEST SWAP3 SWAP2 POP POP JUMP JUMPDEST PUSH1 0x0 PUSH1 0x20 DUP3 DUP5 SUB SLT ISZERO PUSH2 0x3B1 JUMPI PUSH2 0x3B0 PUSH2 0x358 JUMP JUMPDEST JUMPDEST PUSH1 0x0 PUSH2 0x3BF DUP5 DUP3 DUP6 ADD PUSH2 0x386 JUMP JUMPDEST SWAP2 POP POP SWAP3 SWAP2 POP POP JUMP JUMPDEST PUSH32 0x4E487B7100000000000000000000000000000000000000000000000000000000 PUSH1 0x0 MSTORE PUSH1 0x21 PUSH1 0x4 MSTORE PUSH1 0x24 PUSH1 0x0 REVERT JUMPDEST PUSH1 0x4 DUP2 LT PUSH2 0x408 JUMPI PUSH2 0x407 PUSH2 0x3C8 JUMP JUMPDEST JUMPDEST POP JUMP JUMPDEST PUSH1 0x0 DUP2 SWAP1 POP PUSH2 0x419 DUP3 PUSH2 0x3F7 JUMP JUMPDEST SWAP2 SWAP1 POP JUMP JUMPDEST PUSH1 0x0 PUSH2 0x429 DUP3 PUSH2 0x40B JUMP JUMPDEST SWAP1 POP SWAP2 SWAP1 POP JUMP JUMPDEST PUSH2 0x439 DUP2 PUSH2 0x41E JUMP JUMPDEST DUP3 MSTORE POP POP JUMP JUMPDEST PUSH1 0x0 PUSH1 0x20 DUP3 ADD SWAP1 POP PUSH2 0x454 PUSH1 0x0 DUP4 ADD DUP5 PUSH2 0x430 JUMP JUMPDEST SWAP3 SWAP2 POP POP JUMP JUMPDEST PUSH1 0x0 PUSH32 0xFFFFFFFF00000000000000000000000000000000000000000000000000000000 DUP3 AND SWAP1 POP SWAP2 SWAP1 POP JUMP JUMPDEST PUSH2 0x48F DUP2 PUSH2 0x45A JUMP JUMPDEST DUP3 MSTORE POP POP JUMP JUMPDEST PUSH1 0x0 PUSH1 0x20 DUP3 ADD SWAP1 POP PUSH2 0x4AA PUSH1 0x0 DUP4 ADD DUP5 PUSH2 0x486 JUMP JUMPDEST SWAP3 SWAP2 POP POP JUMP JUMPDEST PUSH1 0x0 DUP2 SWAP1 POP SWAP2 SWAP1 POP JUMP JUMPDEST PUSH2 0x4C3 DUP2 PUSH2 0x4B0 JUMP JUMPDEST DUP2 EQ PUSH2 0x4CE JUMPI PUSH1 0x0 DUP1 REVERT JUMPDEST POP JUMP JUMPDEST PUSH1 0x0 DUP2 CALLDATALOAD SWAP1 POP PUSH2 0x4E0 DUP2 PUSH2 0x4BA JUMP JUMPDEST SWAP3 SWAP2 POP POP JUMP JUMPDEST PUSH1 0x0 PUSH1 0x20 DUP3 DUP5 SUB SLT ISZERO PUSH2 0x4FC JUMPI PUSH2 0x4FB PUSH2 0x358 JUMP JUMPDEST JUMPDEST PUSH1 0x0 PUSH2 0x50A DUP5 DUP3 DUP6 ADD PUSH2 0x4D1 JUMP JUMPDEST SWAP2 POP POP SWAP3 SWAP2 POP POP JUMP JUMPDEST PUSH2 0x51C DUP2 PUSH2 0x4B0 JUMP JUMPDEST DUP3 MSTORE POP POP JUMP JUMPDEST PUSH2 0x52B DUP2 PUSH2 0x35D JUMP JUMPDEST DUP3 MSTORE POP POP JUMP JUMPDEST PUSH1 0x0 DUP2 MLOAD SWAP1 POP SWAP2 SWAP1 POP JUMP JUMPDEST PUSH1 0x0 DUP3 DUP3 MSTORE PUSH1 0x20 DUP3 ADD SWAP1 POP SWAP3 SWAP2 POP POP JUMP JUMPDEST PUSH1 0x0 JUMPDEST DUP4 DUP2 LT ISZERO PUSH2 0x56B JUMPI DUP1 DUP3 ADD MLOAD DUP2 DUP5 ADD MSTORE PUSH1 0x20 DUP2 ADD SWAP1 POP PUSH2 0x550 JUMP JUMPDEST DUP4 DUP2 GT ISZERO PUSH2 0x57A JUMPI PUSH1 0x0 DUP5 DUP5 ADD MSTORE JUMPDEST POP POP POP POP JUMP JUMPDEST PUSH1 0x0 PUSH1 0x1F NOT PUSH1 0x1F DUP4 ADD AND SWAP1 POP SWAP2 SWAP1 POP JUMP JUMPDEST PUSH1 0x0 PUSH2 0x59C DUP3 PUSH2 0x531 JUMP JUMPDEST PUSH2 0x5A6 DUP2 DUP6 PUSH2 0x53C JUMP JUMPDEST SWAP4 POP PUSH2 0x5B6 DUP2 DUP6 PUSH1 0x20 DUP7 ADD PUSH2 0x54D JUMP JUMPDEST PUSH2 0x5BF DUP2 PUSH2 0x580 JUMP JUMPDEST DUP5 ADD SWAP2 POP POP SWAP3 SWAP2 POP POP JUMP JUMPDEST PUSH1 0x0 DUP2 ISZERO ISZERO SWAP1 POP SWAP2 SWAP1 POP JUMP JUMPDEST PUSH2 0x5DF DUP2 PUSH2 0x5CA JUMP JUMPDEST DUP3 MSTORE POP POP JUMP JUMPDEST PUSH1 0x0 PUSH1 0xA0 DUP3 ADD SWAP1 POP PUSH2 0x5FA PUSH1 0x0 DUP4 ADD DUP9 PUSH2 0x513 JUMP JUMPDEST PUSH2 0x607 PUSH1 0x20 DUP4 ADD DUP8 PUSH2 0x522 JUMP JUMPDEST DUP2 DUP2 SUB PUSH1 0x40 DUP4 ADD MSTORE PUSH2 0x619 DUP2 DUP7 PUSH2 0x591 JUMP JUMPDEST SWAP1 POP DUP2 DUP2 SUB PUSH1 0x60 DUP4 ADD MSTORE PUSH2 0x62D DUP2 DUP6 PUSH2 0x591 JUMP JUMPDEST SWAP1 POP PUSH2 0x63C PUSH1 0x80 DUP4 ADD DUP5 PUSH2 0x5D6 JUMP JUMPDEST SWAP7 SWAP6 POP POP POP POP POP POP JUMP JUMPDEST PUSH32 0x4E487B7100000000000000000000000000000000000000000000000000000000 PUSH1 0x0 MSTORE PUSH1 0x22 PUSH1 0x4 MSTORE PUSH1 0x24 PUSH1 0x0 REVERT JUMPDEST PUSH1 0x0 PUSH1 0x2 DUP3 DIV SWAP1 POP PUSH1 0x1 DUP3 AND DUP1 PUSH2 0x68D JUMPI PUSH1 0x7F DUP3 AND SWAP2 POP JUMPDEST PUSH1 0x20 DUP3 LT DUP2 SUB PUSH2 0x6A0 JUMPI PUSH2 0x69F PUSH2 0x646 JUMP JUMPDEST JUMPDEST POP SWAP2 SWAP1 POP JUMP INVALID LOG2 PUSH5 0x6970667358 0x22 SLT KECCAK256 MUL 0xB7 0xE4 PUSH31 0xE65BB0477B810C33223931BCD0A87A40E09EED37BC32184030281ABD64736F PUSH13 0x634300080D0033000000000000 "
				},
				"gasEstimates": {
					"creation": {
						"codeDepositCost": "351200",
						"executionCost": "386",
						"totalCost": "351586"
					},
					"external": {
						"ERC721_Interface()": "363",
						"ingameItem(uint256)": "infinite",
						"sqfToken()": "infinite",
						"userStatus(address)": "2959"
					}
				},
				"methodIdentifiers": {
					"ERC721_Interface()": "2b4c32be",
					"ingameItem(uint256)": "d30bdac9",
					"sqfToken()": "15b81dc3",
					"userStatus(address)": "225d29a1"
				}
			},
			"storageLayout": {
				"storage": [
					{
						"astId": 106,
						"contract": "contracts/NFTContract3/FactoryStorage.sol:FactoryStorage",
						"label": "sqfToken",
						"offset": 0,
						"slot": "0",
						"type": "t_contract(IERC20)68"
					},
					{
						"astId": 111,
						"contract": "contracts/NFTContract3/FactoryStorage.sol:FactoryStorage",
						"label": "activeItem",
						"offset": 0,
						"slot": "1",
						"type": "t_mapping(t_uint256,t_struct(activeItems)82_storage)"
					},
					{
						"astId": 116,
						"contract": "contracts/NFTContract3/FactoryStorage.sol:FactoryStorage",
						"label": "ingameItem",
						"offset": 0,
						"slot": "2",
						"type": "t_mapping(t_uint256,t_struct(ingameItems)93_storage)"
					},
					{
						"astId": 121,
						"contract": "contracts/NFTContract3/FactoryStorage.sol:FactoryStorage",
						"label": "userStatus",
						"offset": 0,
						"slot": "3",
						"type": "t_mapping(t_address,t_struct(usersStatus)97_storage)"
					}
				],
				"types": {
					"t_address": {
						"encoding": "inplace",
						"label": "address",
						"numberOfBytes": "20"
					},
					"t_bool": {
						"encoding": "inplace",
						"label": "bool",
						"numberOfBytes": "1"
					},
					"t_contract(IERC20)68": {
						"encoding": "inplace",
						"label": "contract IERC20",
						"numberOfBytes": "20"
					},
					"t_enum(activeStatus)74": {
						"encoding": "inplace",
						"label": "enum FactoryStorage.activeStatus",
						"numberOfBytes": "1"
					},
					"t_mapping(t_address,t_struct(usersStatus)97_storage)": {
						"encoding": "mapping",
						"key": "t_address",
						"label": "mapping(address => struct FactoryStorage.usersStatus)",
						"numberOfBytes": "32",
						"value": "t_struct(usersStatus)97_storage"
					},
					"t_mapping(t_uint256,t_struct(activeItems)82_storage)": {
						"encoding": "mapping",
						"key": "t_uint256",
						"label": "mapping(uint256 => struct FactoryStorage.activeItems)",
						"numberOfBytes": "32",
						"value": "t_struct(activeItems)82_storage"
					},
					"t_mapping(t_uint256,t_struct(ingameItems)93_storage)": {
						"encoding": "mapping",
						"key": "t_uint256",
						"label": "mapping(uint256 => struct FactoryStorage.ingameItems)",
						"numberOfBytes": "32",
						"value": "t_struct(ingameItems)93_storage"
					},
					"t_string_storage": {
						"encoding": "bytes",
						"label": "string",
						"numberOfBytes": "32"
					},
					"t_struct(activeItems)82_storage": {
						"encoding": "inplace",
						"label": "struct FactoryStorage.activeItems",
						"members": [
							{
								"astId": 76,
								"contract": "contracts/NFTContract3/FactoryStorage.sol:FactoryStorage",
								"label": "id",
								"offset": 0,
								"slot": "0",
								"type": "t_uint256"
							},
							{
								"astId": 78,
								"contract": "contracts/NFTContract3/FactoryStorage.sol:FactoryStorage",
								"label": "owner",
								"offset": 0,
								"slot": "1",
								"type": "t_address"
							},
							{
								"astId": 81,
								"contract": "contracts/NFTContract3/FactoryStorage.sol:FactoryStorage",
								"label": "status",
								"offset": 20,
								"slot": "1",
								"type": "t_enum(activeStatus)74"
							}
						],
						"numberOfBytes": "64"
					},
					"t_struct(ingameItems)93_storage": {
						"encoding": "inplace",
						"label": "struct FactoryStorage.ingameItems",
						"members": [
							{
								"astId": 84,
								"contract": "contracts/NFTContract3/FactoryStorage.sol:FactoryStorage",
								"label": "id",
								"offset": 0,
								"slot": "0",
								"type": "t_uint256"
							},
							{
								"astId": 86,
								"contract": "contracts/NFTContract3/FactoryStorage.sol:FactoryStorage",
								"label": "owner",
								"offset": 0,
								"slot": "1",
								"type": "t_address"
							},
							{
								"astId": 88,
								"contract": "contracts/NFTContract3/FactoryStorage.sol:FactoryStorage",
								"label": "itemId",
								"offset": 0,
								"slot": "2",
								"type": "t_string_storage"
							},
							{
								"astId": 90,
								"contract": "contracts/NFTContract3/FactoryStorage.sol:FactoryStorage",
								"label": "externalId",
								"offset": 0,
								"slot": "3",
								"type": "t_string_storage"
							},
							{
								"astId": 92,
								"contract": "contracts/NFTContract3/FactoryStorage.sol:FactoryStorage",
								"label": "ingame",
								"offset": 0,
								"slot": "4",
								"type": "t_bool"
							}
						],
						"numberOfBytes": "160"
					},
					"t_struct(usersStatus)97_storage": {
						"encoding": "inplace",
						"label": "struct FactoryStorage.usersStatus",
						"members": [
							{
								"astId": 96,
								"contract": "contracts/NFTContract3/FactoryStorage.sol:FactoryStorage",
								"label": "status",
								"offset": 0,
								"slot": "0",
								"type": "t_enum(activeStatus)74"
							}
						],
						"numberOfBytes": "32"
					},
					"t_uint256": {
						"encoding": "inplace",
						"label": "uint256",
						"numberOfBytes": "32"
					}
				}
			},
			"userdoc": {
				"kind": "user",
				"methods": {},
				"version": 1
			}
		}
	}
}