{
	"contracts/NFTContract3/SQFIFactory.sol": {
		"SQFItemFactory": {
			"abi": [
				{
					"inputs": [
						{
							"internalType": "address",
							"name": "_nftContract",
							"type": "address"
						}
					],
					"stateMutability": "nonpayable",
					"type": "constructor"
				},
				{
					"anonymous": false,
					"inputs": [
						{
							"indexed": true,
							"internalType": "address",
							"name": "user",
							"type": "address"
						},
						{
							"indexed": false,
							"internalType": "string",
							"name": "status",
							"type": "string"
						}
					],
					"name": "AcctiveAccount",
					"type": "event"
				},
				{
					"anonymous": false,
					"inputs": [
						{
							"indexed": true,
							"internalType": "address",
							"name": "owner",
							"type": "address"
						},
						{
							"indexed": false,
							"internalType": "string",
							"name": "tokenId",
							"type": "string"
						}
					],
					"name": "Burn",
					"type": "event"
				},
				{
					"anonymous": false,
					"inputs": [
						{
							"indexed": true,
							"internalType": "address",
							"name": "receiver",
							"type": "address"
						},
						{
							"indexed": false,
							"internalType": "string",
							"name": "tokenId",
							"type": "string"
						}
					],
					"name": "Claim",
					"type": "event"
				},
				{
					"anonymous": false,
					"inputs": [
						{
							"indexed": true,
							"internalType": "address",
							"name": "to",
							"type": "address"
						},
						{
							"indexed": false,
							"internalType": "string",
							"name": "tokenId",
							"type": "string"
						}
					],
					"name": "Mint",
					"type": "event"
				},
				{
					"anonymous": false,
					"inputs": [
						{
							"indexed": false,
							"internalType": "uint256",
							"name": "tokenId",
							"type": "uint256"
						},
						{
							"indexed": true,
							"internalType": "address",
							"name": "to",
							"type": "address"
						},
						{
							"indexed": false,
							"internalType": "string",
							"name": "itemId",
							"type": "string"
						},
						{
							"indexed": false,
							"internalType": "string",
							"name": "externalId",
							"type": "string"
						}
					],
					"name": "NFTMinted",
					"type": "event"
				},
				{
					"anonymous": false,
					"inputs": [
						{
							"indexed": true,
							"internalType": "address",
							"name": "previousOwner",
							"type": "address"
						},
						{
							"indexed": true,
							"internalType": "address",
							"name": "newOwner",
							"type": "address"
						}
					],
					"name": "OwnershipTransferred",
					"type": "event"
				},
				{
					"anonymous": false,
					"inputs": [
						{
							"indexed": false,
							"internalType": "uint256",
							"name": "tokenId",
							"type": "uint256"
						},
						{
							"indexed": true,
							"internalType": "address",
							"name": "to",
							"type": "address"
						},
						{
							"indexed": false,
							"internalType": "string",
							"name": "typeActive",
							"type": "string"
						}
					],
					"name": "buyActive",
					"type": "event"
				},
				{
					"inputs": [],
					"name": "ERC721_Interface",
					"outputs": [
						{
							"internalType": "bytes4",
							"name": "",
							"type": "bytes4"
						}
					],
					"stateMutability": "view",
					"type": "function"
				},
				{
					"inputs": [
						{
							"internalType": "uint256",
							"name": "",
							"type": "uint256"
						}
					],
					"name": "activeItem",
					"outputs": [
						{
							"internalType": "uint256",
							"name": "id",
							"type": "uint256"
						},
						{
							"internalType": "address",
							"name": "owner",
							"type": "address"
						},
						{
							"internalType": "enum FactoryStorage.activeStatus",
							"name": "status",
							"type": "uint8"
						}
					],
					"stateMutability": "view",
					"type": "function"
				},
				{
					"inputs": [],
					"name": "bronzeActivePrice",
					"outputs": [
						{
							"internalType": "uint256",
							"name": "",
							"type": "uint256"
						}
					],
					"stateMutability": "view",
					"type": "function"
				},
				{
					"inputs": [],
					"name": "goldActivePrice",
					"outputs": [
						{
							"internalType": "uint256",
							"name": "",
							"type": "uint256"
						}
					],
					"stateMutability": "view",
					"type": "function"
				},
				{
					"inputs": [
						{
							"internalType": "uint256",
							"name": "",
							"type": "uint256"
						}
					],
					"name": "ingameItem",
					"outputs": [
						{
							"internalType": "bytes32",
							"name": "id",
							"type": "bytes32"
						},
						{
							"internalType": "string",
							"name": "itemId",
							"type": "string"
						},
						{
							"internalType": "bool",
							"name": "ingame",
							"type": "bool"
						}
					],
					"stateMutability": "view",
					"type": "function"
				},
				{
					"inputs": [
						{
							"internalType": "string",
							"name": "typeItem",
							"type": "string"
						}
					],
					"name": "mintActiveItem",
					"outputs": [],
					"stateMutability": "nonpayable",
					"type": "function"
				},
				{
					"inputs": [],
					"name": "nftContract",
					"outputs": [
						{
							"internalType": "address",
							"name": "",
							"type": "address"
						}
					],
					"stateMutability": "view",
					"type": "function"
				},
				{
					"inputs": [],
					"name": "owner",
					"outputs": [
						{
							"internalType": "address",
							"name": "",
							"type": "address"
						}
					],
					"stateMutability": "view",
					"type": "function"
				},
				{
					"inputs": [],
					"name": "renounceOwnership",
					"outputs": [],
					"stateMutability": "nonpayable",
					"type": "function"
				},
				{
					"inputs": [
						{
							"internalType": "address",
							"name": "_address",
							"type": "address"
						}
					],
					"name": "setSQFToken",
					"outputs": [],
					"stateMutability": "nonpayable",
					"type": "function"
				},
				{
					"inputs": [],
					"name": "silverActivePrice",
					"outputs": [
						{
							"internalType": "uint256",
							"name": "",
							"type": "uint256"
						}
					],
					"stateMutability": "view",
					"type": "function"
				},
				{
					"inputs": [],
					"name": "sqfToken",
					"outputs": [
						{
							"internalType": "contract IERC20",
							"name": "",
							"type": "address"
						}
					],
					"stateMutability": "view",
					"type": "function"
				},
				{
					"inputs": [
						{
							"internalType": "address",
							"name": "newOwner",
							"type": "address"
						}
					],
					"name": "transferOwnership",
					"outputs": [],
					"stateMutability": "nonpayable",
					"type": "function"
				},
				{
					"inputs": [
						{
							"internalType": "uint256",
							"name": "",
							"type": "uint256"
						}
					],
					"name": "userStatus",
					"outputs": [
						{
							"internalType": "address",
							"name": "user",
							"type": "address"
						},
						{
							"internalType": "enum FactoryStorage.activeStatus",
							"name": "status",
							"type": "uint8"
						}
					],
					"stateMutability": "view",
					"type": "function"
				}
			],
			"devdoc": {
				"kind": "dev",
				"methods": {
					"owner()": {
						"details": "Returns the address of the current owner."
					},
					"renounceOwnership()": {
						"details": "Leaves the contract without owner. It will not be possible to call `onlyOwner` functions anymore. Can only be called by the current owner. NOTE: Renouncing ownership will leave the contract without an owner, thereby removing any functionality that is only available to the owner."
					},
					"transferOwnership(address)": {
						"details": "Transfers ownership of the contract to a new account (`newOwner`). Can only be called by the current owner."
					}
				},
				"version": 1
			},
			"evm": {
				"assembly": "    /* \"contracts/NFTContract3/SQFIFactory.sol\":1862:4352  contract SQFItemFactory is FactoryStorage, Ownable... */\n  mstore(0x40, 0x80)\n    /* \"contracts/NFTContract3/SQFIFactory.sol\":2320:2627  constructor(address _nftContract) {... */\n  callvalue\n  dup1\n  iszero\n  tag_1\n  jumpi\n  0x00\n  dup1\n  revert\ntag_1:\n  pop\n  mload(0x40)\n  sub(codesize, bytecodeSize)\n  dup1\n  bytecodeSize\n  dup4\n  codecopy\n  dup2\n  dup2\n  add\n  0x40\n  mstore\n  dup2\n  add\n  swap1\n  tag_2\n  swap2\n  swap1\n  tag_3\n  jump\t// in\ntag_2:\n    /* \"contracts/NFTContract3/Ownable.sol\":914:946  _transferOwnership(_msgSender()) */\n  tag_7\n    /* \"contracts/NFTContract3/Ownable.sol\":933:945  _msgSender() */\n  tag_8\n    /* \"contracts/NFTContract3/Ownable.sol\":933:943  _msgSender */\n  shl(0x20, tag_9)\n    /* \"contracts/NFTContract3/Ownable.sol\":933:945  _msgSender() */\n  0x20\n  shr\n  jump\t// in\ntag_8:\n    /* \"contracts/NFTContract3/Ownable.sol\":914:932  _transferOwnership */\n  shl(0x20, tag_10)\n    /* \"contracts/NFTContract3/Ownable.sol\":914:946  _transferOwnership(_msgSender()) */\n  0x20\n  shr\n  jump\t// in\ntag_7:\n    /* \"contracts/NFTContract3/SQFIFactory.sol\":2396:2397  0 */\n  0x00\n    /* \"contracts/NFTContract3/SQFIFactory.sol\":2372:2398  _nftContract != address(0) */\n  0xffffffffffffffffffffffffffffffffffffffff\n  and\n    /* \"contracts/NFTContract3/SQFIFactory.sol\":2372:2384  _nftContract */\n  dup2\n    /* \"contracts/NFTContract3/SQFIFactory.sol\":2372:2398  _nftContract != address(0) */\n  0xffffffffffffffffffffffffffffffffffffffff\n  and\n  sub\n    /* \"contracts/NFTContract3/SQFIFactory.sol\":2364:2427  require(_nftContract != address(0), \"Invalid contract address\") */\n  tag_12\n  jumpi\n  mload(0x40)\n  0x08c379a000000000000000000000000000000000000000000000000000000000\n  dup2\n  mstore\n  0x04\n  add\n  tag_13\n  swap1\n  tag_14\n  jump\t// in\ntag_13:\n  mload(0x40)\n  dup1\n  swap2\n  sub\n  swap1\n  revert\ntag_12:\n    /* \"contracts/NFTContract3/SQFIFactory.sol\":2450:2462  _nftContract */\n  dup1\n    /* \"contracts/NFTContract3/SQFIFactory.sol\":2437:2441  SQFI */\n  0x09\n  0x00\n    /* \"contracts/NFTContract3/SQFIFactory.sol\":2437:2463  SQFI = ISQFI(_nftContract) */\n  0x0100\n  exp\n  dup2\n  sload\n  dup2\n  0xffffffffffffffffffffffffffffffffffffffff\n  mul\n  not\n  and\n  swap1\n  dup4\n  0xffffffffffffffffffffffffffffffffffffffff\n  and\n  mul\n  or\n  swap1\n  sstore\n  pop\n    /* \"contracts/NFTContract3/SQFIFactory.sol\":2487:2499  _nftContract */\n  dup1\n    /* \"contracts/NFTContract3/SQFIFactory.sol\":2473:2484  nftContract */\n  0x05\n  0x00\n    /* \"contracts/NFTContract3/SQFIFactory.sol\":2473:2499  nftContract = _nftContract */\n  0x0100\n  exp\n  dup2\n  sload\n  dup2\n  0xffffffffffffffffffffffffffffffffffffffff\n  mul\n  not\n  and\n  swap1\n  dup4\n  0xffffffffffffffffffffffffffffffffffffffff\n  and\n  mul\n  or\n  swap1\n  sstore\n  pop\n    /* \"contracts/NFTContract3/SQFIFactory.sol\":2529:2539  500*10**18 */\n  0x1b1ae4d6e2ef500000\n    /* \"contracts/NFTContract3/SQFIFactory.sol\":2509:2526  bronzeActivePrice */\n  0x06\n    /* \"contracts/NFTContract3/SQFIFactory.sol\":2509:2539  bronzeActivePrice = 500*10**18 */\n  dup2\n  swap1\n  sstore\n  pop\n    /* \"contracts/NFTContract3/SQFIFactory.sol\":2569:2580  1000*10**18 */\n  0x3635c9adc5dea00000\n    /* \"contracts/NFTContract3/SQFIFactory.sol\":2549:2566  silverActivePrice */\n  0x07\n    /* \"contracts/NFTContract3/SQFIFactory.sol\":2549:2580  silverActivePrice = 1000*10**18 */\n  dup2\n  swap1\n  sstore\n  pop\n    /* \"contracts/NFTContract3/SQFIFactory.sol\":2608:2619  1500*10**18 */\n  0x5150ae84a8cdf00000\n    /* \"contracts/NFTContract3/SQFIFactory.sol\":2590:2605  goldActivePrice */\n  0x08\n    /* \"contracts/NFTContract3/SQFIFactory.sol\":2590:2619  goldActivePrice = 1500*10**18 */\n  dup2\n  swap1\n  sstore\n  pop\n    /* \"contracts/NFTContract3/SQFIFactory.sol\":2320:2627  constructor(address _nftContract) {... */\n  pop\n    /* \"contracts/NFTContract3/SQFIFactory.sol\":1862:4352  contract SQFItemFactory is FactoryStorage, Ownable... */\n  jump(tag_15)\n    /* \"contracts/NFTContract3/Context.sol\":640:736  function _msgSender() internal view virtual returns (address) {... */\ntag_9:\n    /* \"contracts/NFTContract3/Context.sol\":693:700  address */\n  0x00\n    /* \"contracts/NFTContract3/Context.sol\":719:729  msg.sender */\n  caller\n    /* \"contracts/NFTContract3/Context.sol\":712:729  return msg.sender */\n  swap1\n  pop\n    /* \"contracts/NFTContract3/Context.sol\":640:736  function _msgSender() internal view virtual returns (address) {... */\n  swap1\n  jump\t// out\n    /* \"contracts/NFTContract3/Ownable.sol\":2263:2450  function _transferOwnership(address newOwner) internal virtual {... */\ntag_10:\n    /* \"contracts/NFTContract3/Ownable.sol\":2336:2352  address oldOwner */\n  0x00\n    /* \"contracts/NFTContract3/Ownable.sol\":2355:2361  _owner */\n  0x04\n  0x00\n  swap1\n  sload\n  swap1\n  0x0100\n  exp\n  swap1\n  div\n  0xffffffffffffffffffffffffffffffffffffffff\n  and\n    /* \"contracts/NFTContract3/Ownable.sol\":2336:2361  address oldOwner = _owner */\n  swap1\n  pop\n    /* \"contracts/NFTContract3/Ownable.sol\":2380:2388  newOwner */\n  dup2\n    /* \"contracts/NFTContract3/Ownable.sol\":2371:2377  _owner */\n  0x04\n  0x00\n    /* \"contracts/NFTContract3/Ownable.sol\":2371:2388  _owner = newOwner */\n  0x0100\n  exp\n  dup2\n  sload\n  dup2\n  0xffffffffffffffffffffffffffffffffffffffff\n  mul\n  not\n  and\n  swap1\n  dup4\n  0xffffffffffffffffffffffffffffffffffffffff\n  and\n  mul\n  or\n  swap1\n  sstore\n  pop\n    /* \"contracts/NFTContract3/Ownable.sol\":2434:2442  newOwner */\n  dup2\n    /* \"contracts/NFTContract3/Ownable.sol\":2403:2443  OwnershipTransferred(oldOwner, newOwner) */\n  0xffffffffffffffffffffffffffffffffffffffff\n  and\n    /* \"contracts/NFTContract3/Ownable.sol\":2424:2432  oldOwner */\n  dup2\n    /* \"contracts/NFTContract3/Ownable.sol\":2403:2443  OwnershipTransferred(oldOwner, newOwner) */\n  0xffffffffffffffffffffffffffffffffffffffff\n  and\n  0x8be0079c531659141344cd1fd0a4f28419497f9722a3daafe3b4186f6b6457e0\n  mload(0x40)\n  mload(0x40)\n  dup1\n  swap2\n  sub\n  swap1\n  log3\n    /* \"contracts/NFTContract3/Ownable.sol\":2326:2450  {... */\n  pop\n    /* \"contracts/NFTContract3/Ownable.sol\":2263:2450  function _transferOwnership(address newOwner) internal virtual {... */\n  pop\n  jump\t// out\n    /* \"#utility.yul\":88:205   */\ntag_19:\n    /* \"#utility.yul\":197:198   */\n  0x00\n    /* \"#utility.yul\":194:195   */\n  dup1\n    /* \"#utility.yul\":187:199   */\n  revert\n    /* \"#utility.yul\":334:460   */\ntag_21:\n    /* \"#utility.yul\":371:378   */\n  0x00\n    /* \"#utility.yul\":411:453   */\n  0xffffffffffffffffffffffffffffffffffffffff\n    /* \"#utility.yul\":404:409   */\n  dup3\n    /* \"#utility.yul\":400:454   */\n  and\n    /* \"#utility.yul\":389:454   */\n  swap1\n  pop\n    /* \"#utility.yul\":334:460   */\n  swap2\n  swap1\n  pop\n  jump\t// out\n    /* \"#utility.yul\":466:562   */\ntag_22:\n    /* \"#utility.yul\":503:510   */\n  0x00\n    /* \"#utility.yul\":532:556   */\n  tag_34\n    /* \"#utility.yul\":550:555   */\n  dup3\n    /* \"#utility.yul\":532:556   */\n  tag_21\n  jump\t// in\ntag_34:\n    /* \"#utility.yul\":521:556   */\n  swap1\n  pop\n    /* \"#utility.yul\":466:562   */\n  swap2\n  swap1\n  pop\n  jump\t// out\n    /* \"#utility.yul\":568:690   */\ntag_23:\n    /* \"#utility.yul\":641:665   */\n  tag_36\n    /* \"#utility.yul\":659:664   */\n  dup2\n    /* \"#utility.yul\":641:665   */\n  tag_22\n  jump\t// in\ntag_36:\n    /* \"#utility.yul\":634:639   */\n  dup2\n    /* \"#utility.yul\":631:666   */\n  eq\n    /* \"#utility.yul\":621:684   */\n  tag_37\n  jumpi\n    /* \"#utility.yul\":680:681   */\n  0x00\n    /* \"#utility.yul\":677:678   */\n  dup1\n    /* \"#utility.yul\":670:682   */\n  revert\n    /* \"#utility.yul\":621:684   */\ntag_37:\n    /* \"#utility.yul\":568:690   */\n  pop\n  jump\t// out\n    /* \"#utility.yul\":696:839   */\ntag_24:\n    /* \"#utility.yul\":753:758   */\n  0x00\n    /* \"#utility.yul\":784:790   */\n  dup2\n    /* \"#utility.yul\":778:791   */\n  mload\n    /* \"#utility.yul\":769:791   */\n  swap1\n  pop\n    /* \"#utility.yul\":800:833   */\n  tag_39\n    /* \"#utility.yul\":827:832   */\n  dup2\n    /* \"#utility.yul\":800:833   */\n  tag_23\n  jump\t// in\ntag_39:\n    /* \"#utility.yul\":696:839   */\n  swap3\n  swap2\n  pop\n  pop\n  jump\t// out\n    /* \"#utility.yul\":845:1196   */\ntag_3:\n    /* \"#utility.yul\":915:921   */\n  0x00\n    /* \"#utility.yul\":964:966   */\n  0x20\n    /* \"#utility.yul\":952:961   */\n  dup3\n    /* \"#utility.yul\":943:950   */\n  dup5\n    /* \"#utility.yul\":939:962   */\n  sub\n    /* \"#utility.yul\":935:967   */\n  slt\n    /* \"#utility.yul\":932:1051   */\n  iszero\n  tag_41\n  jumpi\n    /* \"#utility.yul\":970:1049   */\n  tag_42\n  tag_19\n  jump\t// in\ntag_42:\n    /* \"#utility.yul\":932:1051   */\ntag_41:\n    /* \"#utility.yul\":1090:1091   */\n  0x00\n    /* \"#utility.yul\":1115:1179   */\n  tag_43\n    /* \"#utility.yul\":1171:1178   */\n  dup5\n    /* \"#utility.yul\":1162:1168   */\n  dup3\n    /* \"#utility.yul\":1151:1160   */\n  dup6\n    /* \"#utility.yul\":1147:1169   */\n  add\n    /* \"#utility.yul\":1115:1179   */\n  tag_24\n  jump\t// in\ntag_43:\n    /* \"#utility.yul\":1105:1179   */\n  swap2\n  pop\n    /* \"#utility.yul\":1061:1189   */\n  pop\n    /* \"#utility.yul\":845:1196   */\n  swap3\n  swap2\n  pop\n  pop\n  jump\t// out\n    /* \"#utility.yul\":1202:1371   */\ntag_25:\n    /* \"#utility.yul\":1286:1297   */\n  0x00\n    /* \"#utility.yul\":1320:1326   */\n  dup3\n    /* \"#utility.yul\":1315:1318   */\n  dup3\n    /* \"#utility.yul\":1308:1327   */\n  mstore\n    /* \"#utility.yul\":1360:1364   */\n  0x20\n    /* \"#utility.yul\":1355:1358   */\n  dup3\n    /* \"#utility.yul\":1351:1365   */\n  add\n    /* \"#utility.yul\":1336:1365   */\n  swap1\n  pop\n    /* \"#utility.yul\":1202:1371   */\n  swap3\n  swap2\n  pop\n  pop\n  jump\t// out\n    /* \"#utility.yul\":1377:1551   */\ntag_26:\n    /* \"#utility.yul\":1517:1543   */\n  0x496e76616c696420636f6e747261637420616464726573730000000000000000\n    /* \"#utility.yul\":1513:1514   */\n  0x00\n    /* \"#utility.yul\":1505:1511   */\n  dup3\n    /* \"#utility.yul\":1501:1515   */\n  add\n    /* \"#utility.yul\":1494:1544   */\n  mstore\n    /* \"#utility.yul\":1377:1551   */\n  pop\n  jump\t// out\n    /* \"#utility.yul\":1557:1923   */\ntag_27:\n    /* \"#utility.yul\":1699:1702   */\n  0x00\n    /* \"#utility.yul\":1720:1787   */\n  tag_47\n    /* \"#utility.yul\":1784:1786   */\n  0x18\n    /* \"#utility.yul\":1779:1782   */\n  dup4\n    /* \"#utility.yul\":1720:1787   */\n  tag_25\n  jump\t// in\ntag_47:\n    /* \"#utility.yul\":1713:1787   */\n  swap2\n  pop\n    /* \"#utility.yul\":1796:1889   */\n  tag_48\n    /* \"#utility.yul\":1885:1888   */\n  dup3\n    /* \"#utility.yul\":1796:1889   */\n  tag_26\n  jump\t// in\ntag_48:\n    /* \"#utility.yul\":1914:1916   */\n  0x20\n    /* \"#utility.yul\":1909:1912   */\n  dup3\n    /* \"#utility.yul\":1905:1917   */\n  add\n    /* \"#utility.yul\":1898:1917   */\n  swap1\n  pop\n    /* \"#utility.yul\":1557:1923   */\n  swap2\n  swap1\n  pop\n  jump\t// out\n    /* \"#utility.yul\":1929:2348   */\ntag_14:\n    /* \"#utility.yul\":2095:2099   */\n  0x00\n    /* \"#utility.yul\":2133:2135   */\n  0x20\n    /* \"#utility.yul\":2122:2131   */\n  dup3\n    /* \"#utility.yul\":2118:2136   */\n  add\n    /* \"#utility.yul\":2110:2136   */\n  swap1\n  pop\n    /* \"#utility.yul\":2182:2191   */\n  dup2\n    /* \"#utility.yul\":2176:2180   */\n  dup2\n    /* \"#utility.yul\":2172:2192   */\n  sub\n    /* \"#utility.yul\":2168:2169   */\n  0x00\n    /* \"#utility.yul\":2157:2166   */\n  dup4\n    /* \"#utility.yul\":2153:2170   */\n  add\n    /* \"#utility.yul\":2146:2193   */\n  mstore\n    /* \"#utility.yul\":2210:2341   */\n  tag_50\n    /* \"#utility.yul\":2336:2340   */\n  dup2\n    /* \"#utility.yul\":2210:2341   */\n  tag_27\n  jump\t// in\ntag_50:\n    /* \"#utility.yul\":2202:2341   */\n  swap1\n  pop\n    /* \"#utility.yul\":1929:2348   */\n  swap2\n  swap1\n  pop\n  jump\t// out\n    /* \"contracts/NFTContract3/SQFIFactory.sol\":1862:4352  contract SQFItemFactory is FactoryStorage, Ownable... */\ntag_15:\n  dataSize(sub_0)\n  dup1\n  dataOffset(sub_0)\n  0x00\n  codecopy\n  0x00\n  return\nstop\n\nsub_0: assembly {\n        /* \"contracts/NFTContract3/SQFIFactory.sol\":1862:4352  contract SQFItemFactory is FactoryStorage, Ownable... */\n      mstore(0x40, 0x80)\n      callvalue\n      dup1\n      iszero\n      tag_1\n      jumpi\n      0x00\n      dup1\n      revert\n    tag_1:\n      pop\n      jumpi(tag_2, lt(calldatasize, 0x04))\n      shr(0xe0, calldataload(0x00))\n      dup1\n      0xaa6a0dac\n      gt\n      tag_17\n      jumpi\n      dup1\n      0xc04772d5\n      gt\n      tag_18\n      jumpi\n      dup1\n      0xc04772d5\n      eq\n      tag_13\n      jumpi\n      dup1\n      0xd30bdac9\n      eq\n      tag_14\n      jumpi\n      dup1\n      0xd56d229d\n      eq\n      tag_15\n      jumpi\n      dup1\n      0xf2fde38b\n      eq\n      tag_16\n      jumpi\n      jump(tag_2)\n    tag_18:\n      dup1\n      0xaa6a0dac\n      eq\n      tag_10\n      jumpi\n      dup1\n      0xac4867f0\n      eq\n      tag_11\n      jumpi\n      dup1\n      0xaf1b3d5e\n      eq\n      tag_12\n      jumpi\n      jump(tag_2)\n    tag_17:\n      dup1\n      0x58dd8603\n      gt\n      tag_19\n      jumpi\n      dup1\n      0x58dd8603\n      eq\n      tag_6\n      jumpi\n      dup1\n      0x715018a6\n      eq\n      tag_7\n      jumpi\n      dup1\n      0x8da5cb5b\n      eq\n      tag_8\n      jumpi\n      dup1\n      0x92bf77dd\n      eq\n      tag_9\n      jumpi\n      jump(tag_2)\n    tag_19:\n      dup1\n      0x15b81dc3\n      eq\n      tag_3\n      jumpi\n      dup1\n      0x1f7775ad\n      eq\n      tag_4\n      jumpi\n      dup1\n      0x2b4c32be\n      eq\n      tag_5\n      jumpi\n    tag_2:\n      0x00\n      dup1\n      revert\n        /* \"contracts/NFTContract3/FactoryStorage.sol\":1314:1336  IERC20 public sqfToken */\n    tag_3:\n      tag_20\n      tag_21\n      jump\t// in\n    tag_20:\n      mload(0x40)\n      tag_22\n      swap2\n      swap1\n      tag_23\n      jump\t// in\n    tag_22:\n      mload(0x40)\n      dup1\n      swap2\n      sub\n      swap1\n      return\n        /* \"contracts/NFTContract3/FactoryStorage.sol\":1524:1573  mapping(uint256 => usersStatus) public userStatus */\n    tag_4:\n      tag_24\n      0x04\n      dup1\n      calldatasize\n      sub\n      dup2\n      add\n      swap1\n      tag_25\n      swap2\n      swap1\n      tag_26\n      jump\t// in\n    tag_25:\n      tag_27\n      jump\t// in\n    tag_24:\n      mload(0x40)\n      tag_28\n      swap3\n      swap2\n      swap1\n      tag_29\n      jump\t// in\n    tag_28:\n      mload(0x40)\n      dup1\n      swap2\n      sub\n      swap1\n      return\n        /* \"contracts/NFTContract3/FactoryStorage.sol\":1248:1308  bytes4 public constant ERC721_Interface = bytes4(0x80ac58cd) */\n    tag_5:\n      tag_30\n      tag_31\n      jump\t// in\n    tag_30:\n      mload(0x40)\n      tag_32\n      swap2\n      swap1\n      tag_33\n      jump\t// in\n    tag_32:\n      mload(0x40)\n      dup1\n      swap2\n      sub\n      swap1\n      return\n        /* \"contracts/NFTContract3/FactoryStorage.sol\":1414:1463  mapping(uint256 => activeItems) public activeItem */\n    tag_6:\n      tag_34\n      0x04\n      dup1\n      calldatasize\n      sub\n      dup2\n      add\n      swap1\n      tag_35\n      swap2\n      swap1\n      tag_26\n      jump\t// in\n    tag_35:\n      tag_36\n      jump\t// in\n    tag_34:\n      mload(0x40)\n      tag_37\n      swap4\n      swap3\n      swap2\n      swap1\n      tag_38\n      jump\t// in\n    tag_37:\n      mload(0x40)\n      dup1\n      swap2\n      sub\n      swap1\n      return\n        /* \"contracts/NFTContract3/Ownable.sol\":1661:1762  function renounceOwnership() public virtual onlyOwner {... */\n    tag_7:\n      tag_39\n      tag_40\n      jump\t// in\n    tag_39:\n      stop\n        /* \"contracts/NFTContract3/Ownable.sol\":1029:1114  function owner() public view virtual returns (address) {... */\n    tag_8:\n      tag_41\n      tag_42\n      jump\t// in\n    tag_41:\n      mload(0x40)\n      tag_43\n      swap2\n      swap1\n      tag_44\n      jump\t// in\n    tag_43:\n      mload(0x40)\n      dup1\n      swap2\n      sub\n      swap1\n      return\n        /* \"contracts/NFTContract3/SQFIFactory.sol\":2633:2735  function setSQFToken(address _address) external onlyOwner {... */\n    tag_9:\n      tag_45\n      0x04\n      dup1\n      calldatasize\n      sub\n      dup2\n      add\n      swap1\n      tag_46\n      swap2\n      swap1\n      tag_47\n      jump\t// in\n    tag_46:\n      tag_48\n      jump\t// in\n    tag_45:\n      stop\n        /* \"contracts/NFTContract3/SQFIFactory.sol\":2028:2058  uint256 public goldActivePrice */\n    tag_10:\n      tag_49\n      tag_50\n      jump\t// in\n    tag_49:\n      mload(0x40)\n      tag_51\n      swap2\n      swap1\n      tag_52\n      jump\t// in\n    tag_51:\n      mload(0x40)\n      dup1\n      swap2\n      sub\n      swap1\n      return\n        /* \"contracts/NFTContract3/SQFIFactory.sol\":1952:1984  uint256 public bronzeActivePrice */\n    tag_11:\n      tag_53\n      tag_54\n      jump\t// in\n    tag_53:\n      mload(0x40)\n      tag_55\n      swap2\n      swap1\n      tag_52\n      jump\t// in\n    tag_55:\n      mload(0x40)\n      dup1\n      swap2\n      sub\n      swap1\n      return\n        /* \"contracts/NFTContract3/SQFIFactory.sol\":1990:2022  uint256 public silverActivePrice */\n    tag_12:\n      tag_56\n      tag_57\n      jump\t// in\n    tag_56:\n      mload(0x40)\n      tag_58\n      swap2\n      swap1\n      tag_52\n      jump\t// in\n    tag_58:\n      mload(0x40)\n      dup1\n      swap2\n      sub\n      swap1\n      return\n        /* \"contracts/NFTContract3/SQFIFactory.sol\":2741:4348  function mintActiveItem(string memory typeItem) public { ... */\n    tag_13:\n      tag_59\n      0x04\n      dup1\n      calldatasize\n      sub\n      dup2\n      add\n      swap1\n      tag_60\n      swap2\n      swap1\n      tag_61\n      jump\t// in\n    tag_60:\n      tag_62\n      jump\t// in\n    tag_59:\n      stop\n        /* \"contracts/NFTContract3/FactoryStorage.sol\":1469:1518  mapping(uint256 => ingameItems) public ingameItem */\n    tag_14:\n      tag_63\n      0x04\n      dup1\n      calldatasize\n      sub\n      dup2\n      add\n      swap1\n      tag_64\n      swap2\n      swap1\n      tag_26\n      jump\t// in\n    tag_64:\n      tag_65\n      jump\t// in\n    tag_63:\n      mload(0x40)\n      tag_66\n      swap4\n      swap3\n      swap2\n      swap1\n      tag_67\n      jump\t// in\n    tag_66:\n      mload(0x40)\n      dup1\n      swap2\n      sub\n      swap1\n      return\n        /* \"contracts/NFTContract3/SQFIFactory.sol\":1920:1946  address public nftContract */\n    tag_15:\n      tag_68\n      tag_69\n      jump\t// in\n    tag_68:\n      mload(0x40)\n      tag_70\n      swap2\n      swap1\n      tag_44\n      jump\t// in\n    tag_70:\n      mload(0x40)\n      dup1\n      swap2\n      sub\n      swap1\n      return\n        /* \"contracts/NFTContract3/Ownable.sol\":1911:2109  function transferOwnership(address newOwner) public virtual onlyOwner {... */\n    tag_16:\n      tag_71\n      0x04\n      dup1\n      calldatasize\n      sub\n      dup2\n      add\n      swap1\n      tag_72\n      swap2\n      swap1\n      tag_47\n      jump\t// in\n    tag_72:\n      tag_73\n      jump\t// in\n    tag_71:\n      stop\n        /* \"contracts/NFTContract3/FactoryStorage.sol\":1314:1336  IERC20 public sqfToken */\n    tag_21:\n      0x00\n      dup1\n      sload\n      swap1\n      0x0100\n      exp\n      swap1\n      div\n      0xffffffffffffffffffffffffffffffffffffffff\n      and\n      dup2\n      jump\t// out\n        /* \"contracts/NFTContract3/FactoryStorage.sol\":1524:1573  mapping(uint256 => usersStatus) public userStatus */\n    tag_27:\n      mstore(0x20, 0x03)\n      dup1\n      0x00\n      mstore\n      keccak256(0x00, 0x40)\n      0x00\n      swap2\n      pop\n      swap1\n      pop\n      dup1\n      0x00\n      add\n      0x00\n      swap1\n      sload\n      swap1\n      0x0100\n      exp\n      swap1\n      div\n      0xffffffffffffffffffffffffffffffffffffffff\n      and\n      swap1\n      dup1\n      0x00\n      add\n      0x14\n      swap1\n      sload\n      swap1\n      0x0100\n      exp\n      swap1\n      div\n      0xff\n      and\n      swap1\n      pop\n      dup3\n      jump\t// out\n        /* \"contracts/NFTContract3/FactoryStorage.sol\":1248:1308  bytes4 public constant ERC721_Interface = bytes4(0x80ac58cd) */\n    tag_31:\n        /* \"contracts/NFTContract3/FactoryStorage.sol\":1297:1307  0x80ac58cd */\n      0x80ac58cd\n        /* \"contracts/NFTContract3/FactoryStorage.sol\":1290:1308  bytes4(0x80ac58cd) */\n      0xe0\n      shl\n        /* \"contracts/NFTContract3/FactoryStorage.sol\":1248:1308  bytes4 public constant ERC721_Interface = bytes4(0x80ac58cd) */\n      dup2\n      jump\t// out\n        /* \"contracts/NFTContract3/FactoryStorage.sol\":1414:1463  mapping(uint256 => activeItems) public activeItem */\n    tag_36:\n      mstore(0x20, 0x01)\n      dup1\n      0x00\n      mstore\n      keccak256(0x00, 0x40)\n      0x00\n      swap2\n      pop\n      swap1\n      pop\n      dup1\n      0x00\n      add\n      sload\n      swap1\n      dup1\n      0x01\n      add\n      0x00\n      swap1\n      sload\n      swap1\n      0x0100\n      exp\n      swap1\n      div\n      0xffffffffffffffffffffffffffffffffffffffff\n      and\n      swap1\n      dup1\n      0x01\n      add\n      0x14\n      swap1\n      sload\n      swap1\n      0x0100\n      exp\n      swap1\n      div\n      0xff\n      and\n      swap1\n      pop\n      dup4\n      jump\t// out\n        /* \"contracts/NFTContract3/Ownable.sol\":1661:1762  function renounceOwnership() public virtual onlyOwner {... */\n    tag_40:\n        /* \"contracts/NFTContract3/Ownable.sol\":1252:1264  _msgSender() */\n      tag_75\n        /* \"contracts/NFTContract3/Ownable.sol\":1252:1262  _msgSender */\n      tag_76\n        /* \"contracts/NFTContract3/Ownable.sol\":1252:1264  _msgSender() */\n      jump\t// in\n    tag_75:\n        /* \"contracts/NFTContract3/Ownable.sol\":1241:1264  owner() == _msgSender() */\n      0xffffffffffffffffffffffffffffffffffffffff\n      and\n        /* \"contracts/NFTContract3/Ownable.sol\":1241:1248  owner() */\n      tag_77\n        /* \"contracts/NFTContract3/Ownable.sol\":1241:1246  owner */\n      tag_42\n        /* \"contracts/NFTContract3/Ownable.sol\":1241:1248  owner() */\n      jump\t// in\n    tag_77:\n        /* \"contracts/NFTContract3/Ownable.sol\":1241:1264  owner() == _msgSender() */\n      0xffffffffffffffffffffffffffffffffffffffff\n      and\n      eq\n        /* \"contracts/NFTContract3/Ownable.sol\":1233:1301  require(owner() == _msgSender(), \"Ownable: caller is not the owner\") */\n      tag_78\n      jumpi\n      mload(0x40)\n      0x08c379a000000000000000000000000000000000000000000000000000000000\n      dup2\n      mstore\n      0x04\n      add\n      tag_79\n      swap1\n      tag_80\n      jump\t// in\n    tag_79:\n      mload(0x40)\n      dup1\n      swap2\n      sub\n      swap1\n      revert\n    tag_78:\n        /* \"contracts/NFTContract3/Ownable.sol\":1725:1755  _transferOwnership(address(0)) */\n      tag_82\n        /* \"contracts/NFTContract3/Ownable.sol\":1752:1753  0 */\n      0x00\n        /* \"contracts/NFTContract3/Ownable.sol\":1725:1743  _transferOwnership */\n      tag_83\n        /* \"contracts/NFTContract3/Ownable.sol\":1725:1755  _transferOwnership(address(0)) */\n      jump\t// in\n    tag_82:\n        /* \"contracts/NFTContract3/Ownable.sol\":1661:1762  function renounceOwnership() public virtual onlyOwner {... */\n      jump\t// out\n        /* \"contracts/NFTContract3/Ownable.sol\":1029:1114  function owner() public view virtual returns (address) {... */\n    tag_42:\n        /* \"contracts/NFTContract3/Ownable.sol\":1075:1082  address */\n      0x00\n        /* \"contracts/NFTContract3/Ownable.sol\":1101:1107  _owner */\n      0x04\n      0x00\n      swap1\n      sload\n      swap1\n      0x0100\n      exp\n      swap1\n      div\n      0xffffffffffffffffffffffffffffffffffffffff\n      and\n        /* \"contracts/NFTContract3/Ownable.sol\":1094:1107  return _owner */\n      swap1\n      pop\n        /* \"contracts/NFTContract3/Ownable.sol\":1029:1114  function owner() public view virtual returns (address) {... */\n      swap1\n      jump\t// out\n        /* \"contracts/NFTContract3/SQFIFactory.sol\":2633:2735  function setSQFToken(address _address) external onlyOwner {... */\n    tag_48:\n        /* \"contracts/NFTContract3/Ownable.sol\":1252:1264  _msgSender() */\n      tag_86\n        /* \"contracts/NFTContract3/Ownable.sol\":1252:1262  _msgSender */\n      tag_76\n        /* \"contracts/NFTContract3/Ownable.sol\":1252:1264  _msgSender() */\n      jump\t// in\n    tag_86:\n        /* \"contracts/NFTContract3/Ownable.sol\":1241:1264  owner() == _msgSender() */\n      0xffffffffffffffffffffffffffffffffffffffff\n      and\n        /* \"contracts/NFTContract3/Ownable.sol\":1241:1248  owner() */\n      tag_87\n        /* \"contracts/NFTContract3/Ownable.sol\":1241:1246  owner */\n      tag_42\n        /* \"contracts/NFTContract3/Ownable.sol\":1241:1248  owner() */\n      jump\t// in\n    tag_87:\n        /* \"contracts/NFTContract3/Ownable.sol\":1241:1264  owner() == _msgSender() */\n      0xffffffffffffffffffffffffffffffffffffffff\n      and\n      eq\n        /* \"contracts/NFTContract3/Ownable.sol\":1233:1301  require(owner() == _msgSender(), \"Ownable: caller is not the owner\") */\n      tag_88\n      jumpi\n      mload(0x40)\n      0x08c379a000000000000000000000000000000000000000000000000000000000\n      dup2\n      mstore\n      0x04\n      add\n      tag_89\n      swap1\n      tag_80\n      jump\t// in\n    tag_89:\n      mload(0x40)\n      dup1\n      swap2\n      sub\n      swap1\n      revert\n    tag_88:\n        /* \"contracts/NFTContract3/SQFIFactory.sol\":2719:2727  _address */\n      dup1\n        /* \"contracts/NFTContract3/SQFIFactory.sol\":2701:2709  sqfToken */\n      0x00\n      dup1\n        /* \"contracts/NFTContract3/SQFIFactory.sol\":2701:2728  sqfToken = IERC20(_address) */\n      0x0100\n      exp\n      dup2\n      sload\n      dup2\n      0xffffffffffffffffffffffffffffffffffffffff\n      mul\n      not\n      and\n      swap1\n      dup4\n      0xffffffffffffffffffffffffffffffffffffffff\n      and\n      mul\n      or\n      swap1\n      sstore\n      pop\n        /* \"contracts/NFTContract3/SQFIFactory.sol\":2633:2735  function setSQFToken(address _address) external onlyOwner {... */\n      pop\n      jump\t// out\n        /* \"contracts/NFTContract3/SQFIFactory.sol\":2028:2058  uint256 public goldActivePrice */\n    tag_50:\n      sload(0x08)\n      dup2\n      jump\t// out\n        /* \"contracts/NFTContract3/SQFIFactory.sol\":1952:1984  uint256 public bronzeActivePrice */\n    tag_54:\n      sload(0x06)\n      dup2\n      jump\t// out\n        /* \"contracts/NFTContract3/SQFIFactory.sol\":1990:2022  uint256 public silverActivePrice */\n    tag_57:\n      sload(0x07)\n      dup2\n      jump\t// out\n        /* \"contracts/NFTContract3/SQFIFactory.sol\":2741:4348  function mintActiveItem(string memory typeItem) public { ... */\n    tag_62:\n        /* \"contracts/NFTContract3/SQFIFactory.sol\":2807:2821  uint256 itemId */\n      0x00\n        /* \"contracts/NFTContract3/SQFIFactory.sol\":2899:2925  abi.encodePacked(\"BRONZE\") */\n      add(0x20, mload(0x40))\n      tag_92\n      swap1\n      tag_93\n      jump\t// in\n    tag_92:\n      mload(0x40)\n      0x20\n      dup2\n      dup4\n      sub\n      sub\n      dup2\n      mstore\n      swap1\n      0x40\n      mstore\n        /* \"contracts/NFTContract3/SQFIFactory.sol\":2889:2926  keccak256(abi.encodePacked(\"BRONZE\")) */\n      dup1\n      mload\n      swap1\n      0x20\n      add\n      keccak256\n        /* \"contracts/NFTContract3/SQFIFactory.sol\":2875:2883  typeItem */\n      dup3\n        /* \"contracts/NFTContract3/SQFIFactory.sol\":2858:2884  abi.encodePacked(typeItem) */\n      add(0x20, mload(0x40))\n      tag_94\n      swap2\n      swap1\n      tag_95\n      jump\t// in\n    tag_94:\n      mload(0x40)\n      0x20\n      dup2\n      dup4\n      sub\n      sub\n      dup2\n      mstore\n      swap1\n      0x40\n      mstore\n        /* \"contracts/NFTContract3/SQFIFactory.sol\":2848:2885  keccak256(abi.encodePacked(typeItem)) */\n      dup1\n      mload\n      swap1\n      0x20\n      add\n      keccak256\n        /* \"contracts/NFTContract3/SQFIFactory.sol\":2848:2926  keccak256(abi.encodePacked(typeItem)) == keccak256(abi.encodePacked(\"BRONZE\")) */\n      eq\n        /* \"contracts/NFTContract3/SQFIFactory.sol\":2848:3016  keccak256(abi.encodePacked(typeItem)) == keccak256(abi.encodePacked(\"BRONZE\"))... */\n      dup1\n      tag_96\n      jumpi\n      pop\n        /* \"contracts/NFTContract3/SQFIFactory.sol\":2989:3015  abi.encodePacked(\"SILVER\") */\n      add(0x20, mload(0x40))\n      tag_97\n      swap1\n      tag_98\n      jump\t// in\n    tag_97:\n      mload(0x40)\n      0x20\n      dup2\n      dup4\n      sub\n      sub\n      dup2\n      mstore\n      swap1\n      0x40\n      mstore\n        /* \"contracts/NFTContract3/SQFIFactory.sol\":2979:3016  keccak256(abi.encodePacked(\"SILVER\")) */\n      dup1\n      mload\n      swap1\n      0x20\n      add\n      keccak256\n        /* \"contracts/NFTContract3/SQFIFactory.sol\":2965:2973  typeItem */\n      dup3\n        /* \"contracts/NFTContract3/SQFIFactory.sol\":2948:2974  abi.encodePacked(typeItem) */\n      add(0x20, mload(0x40))\n      tag_99\n      swap2\n      swap1\n      tag_95\n      jump\t// in\n    tag_99:\n      mload(0x40)\n      0x20\n      dup2\n      dup4\n      sub\n      sub\n      dup2\n      mstore\n      swap1\n      0x40\n      mstore\n        /* \"contracts/NFTContract3/SQFIFactory.sol\":2938:2975  keccak256(abi.encodePacked(typeItem)) */\n      dup1\n      mload\n      swap1\n      0x20\n      add\n      keccak256\n        /* \"contracts/NFTContract3/SQFIFactory.sol\":2938:3016  keccak256(abi.encodePacked(typeItem)) == keccak256(abi.encodePacked(\"SILVER\")) */\n      eq\n        /* \"contracts/NFTContract3/SQFIFactory.sol\":2848:3016  keccak256(abi.encodePacked(typeItem)) == keccak256(abi.encodePacked(\"BRONZE\"))... */\n    tag_96:\n        /* \"contracts/NFTContract3/SQFIFactory.sol\":2848:3103  keccak256(abi.encodePacked(typeItem)) == keccak256(abi.encodePacked(\"BRONZE\"))... */\n      dup1\n      tag_100\n      jumpi\n      pop\n        /* \"contracts/NFTContract3/SQFIFactory.sol\":3078:3102  abi.encodePacked(\"GOLD\") */\n      add(0x20, mload(0x40))\n      tag_101\n      swap1\n      tag_102\n      jump\t// in\n    tag_101:\n      mload(0x40)\n      0x20\n      dup2\n      dup4\n      sub\n      sub\n      dup2\n      mstore\n      swap1\n      0x40\n      mstore\n        /* \"contracts/NFTContract3/SQFIFactory.sol\":3068:3103  keccak256(abi.encodePacked(\"GOLD\")) */\n      dup1\n      mload\n      swap1\n      0x20\n      add\n      keccak256\n        /* \"contracts/NFTContract3/SQFIFactory.sol\":3054:3062  typeItem */\n      dup3\n        /* \"contracts/NFTContract3/SQFIFactory.sol\":3037:3063  abi.encodePacked(typeItem) */\n      add(0x20, mload(0x40))\n      tag_103\n      swap2\n      swap1\n      tag_95\n      jump\t// in\n    tag_103:\n      mload(0x40)\n      0x20\n      dup2\n      dup4\n      sub\n      sub\n      dup2\n      mstore\n      swap1\n      0x40\n      mstore\n        /* \"contracts/NFTContract3/SQFIFactory.sol\":3027:3064  keccak256(abi.encodePacked(typeItem)) */\n      dup1\n      mload\n      swap1\n      0x20\n      add\n      keccak256\n        /* \"contracts/NFTContract3/SQFIFactory.sol\":3027:3103  keccak256(abi.encodePacked(typeItem)) == keccak256(abi.encodePacked(\"GOLD\")) */\n      eq\n        /* \"contracts/NFTContract3/SQFIFactory.sol\":2848:3103  keccak256(abi.encodePacked(typeItem)) == keccak256(abi.encodePacked(\"BRONZE\"))... */\n    tag_100:\n        /* \"contracts/NFTContract3/SQFIFactory.sol\":2831:3113  require(... */\n      tag_104\n      jumpi\n      0x00\n      dup1\n      revert\n    tag_104:\n        /* \"contracts/NFTContract3/SQFIFactory.sol\":3178:3204  abi.encodePacked(\"BRONZE\") */\n      add(0x20, mload(0x40))\n      tag_105\n      swap1\n      tag_93\n      jump\t// in\n    tag_105:\n      mload(0x40)\n      0x20\n      dup2\n      dup4\n      sub\n      sub\n      dup2\n      mstore\n      swap1\n      0x40\n      mstore\n        /* \"contracts/NFTContract3/SQFIFactory.sol\":3168:3205  keccak256(abi.encodePacked(\"BRONZE\")) */\n      dup1\n      mload\n      swap1\n      0x20\n      add\n      keccak256\n        /* \"contracts/NFTContract3/SQFIFactory.sol\":3154:3162  typeItem */\n      dup3\n        /* \"contracts/NFTContract3/SQFIFactory.sol\":3137:3163  abi.encodePacked(typeItem) */\n      add(0x20, mload(0x40))\n      tag_106\n      swap2\n      swap1\n      tag_95\n      jump\t// in\n    tag_106:\n      mload(0x40)\n      0x20\n      dup2\n      dup4\n      sub\n      sub\n      dup2\n      mstore\n      swap1\n      0x40\n      mstore\n        /* \"contracts/NFTContract3/SQFIFactory.sol\":3127:3164  keccak256(abi.encodePacked(typeItem)) */\n      dup1\n      mload\n      swap1\n      0x20\n      add\n      keccak256\n        /* \"contracts/NFTContract3/SQFIFactory.sol\":3127:3205  keccak256(abi.encodePacked(typeItem)) == keccak256(abi.encodePacked(\"BRONZE\")) */\n      sub\n        /* \"contracts/NFTContract3/SQFIFactory.sol\":3123:4228  if (keccak256(abi.encodePacked(typeItem)) == keccak256(abi.encodePacked(\"BRONZE\"))) {... */\n      tag_107\n      jumpi\n        /* \"contracts/NFTContract3/SQFIFactory.sol\":3221:3229  sqfToken */\n      0x00\n      dup1\n      sload\n      swap1\n      0x0100\n      exp\n      swap1\n      div\n      0xffffffffffffffffffffffffffffffffffffffff\n      and\n        /* \"contracts/NFTContract3/SQFIFactory.sol\":3221:3242  sqfToken.transferFrom */\n      0xffffffffffffffffffffffffffffffffffffffff\n      and\n      0x23b872dd\n        /* \"contracts/NFTContract3/SQFIFactory.sol\":3243:3253  msg.sender */\n      caller\n        /* \"contracts/NFTContract3/SQFIFactory.sol\":3263:3270  owner() */\n      tag_108\n        /* \"contracts/NFTContract3/SQFIFactory.sol\":3263:3268  owner */\n      tag_42\n        /* \"contracts/NFTContract3/SQFIFactory.sol\":3263:3270  owner() */\n      jump\t// in\n    tag_108:\n        /* \"contracts/NFTContract3/SQFIFactory.sol\":3272:3289  bronzeActivePrice */\n      sload(0x06)\n        /* \"contracts/NFTContract3/SQFIFactory.sol\":3221:3290  sqfToken.transferFrom(msg.sender, address(owner()),bronzeActivePrice) */\n      mload(0x40)\n      dup5\n      0xffffffff\n      and\n      0xe0\n      shl\n      dup2\n      mstore\n      0x04\n      add\n      tag_109\n      swap4\n      swap3\n      swap2\n      swap1\n      tag_110\n      jump\t// in\n    tag_109:\n      0x20\n      mload(0x40)\n      dup1\n      dup4\n      sub\n      dup2\n      0x00\n      dup8\n      gas\n      call\n      iszero\n      dup1\n      iszero\n      tag_112\n      jumpi\n      returndatasize\n      0x00\n      dup1\n      returndatacopy\n      revert(0x00, returndatasize)\n    tag_112:\n      pop\n      pop\n      pop\n      pop\n      mload(0x40)\n      returndatasize\n      not(0x1f)\n      0x1f\n      dup3\n      add\n      and\n      dup3\n      add\n      dup1\n      0x40\n      mstore\n      pop\n      dup2\n      add\n      swap1\n      tag_113\n      swap2\n      swap1\n      tag_114\n      jump\t// in\n    tag_113:\n      pop\n        /* \"contracts/NFTContract3/SQFIFactory.sol\":3313:3317  SQFI */\n      0x09\n      0x00\n      swap1\n      sload\n      swap1\n      0x0100\n      exp\n      swap1\n      div\n      0xffffffffffffffffffffffffffffffffffffffff\n      and\n        /* \"contracts/NFTContract3/SQFIFactory.sol\":3313:3331  SQFI.safeBuyActive */\n      0xffffffffffffffffffffffffffffffffffffffff\n      and\n      0x1f29e9fc\n        /* \"contracts/NFTContract3/SQFIFactory.sol\":3332:3340  typeItem */\n      dup4\n        /* \"contracts/NFTContract3/SQFIFactory.sol\":3313:3341  SQFI.safeBuyActive(typeItem) */\n      mload(0x40)\n      dup3\n      0xffffffff\n      and\n      0xe0\n      shl\n      dup2\n      mstore\n      0x04\n      add\n      tag_115\n      swap2\n      swap1\n      tag_116\n      jump\t// in\n    tag_115:\n      0x20\n      mload(0x40)\n      dup1\n      dup4\n      sub\n      dup2\n      0x00\n      dup8\n      gas\n      call\n      iszero\n      dup1\n      iszero\n      tag_118\n      jumpi\n      returndatasize\n      0x00\n      dup1\n      returndatacopy\n      revert(0x00, returndatasize)\n    tag_118:\n      pop\n      pop\n      pop\n      pop\n      mload(0x40)\n      returndatasize\n      not(0x1f)\n      0x1f\n      dup3\n      add\n      and\n      dup3\n      add\n      dup1\n      0x40\n      mstore\n      pop\n      dup2\n      add\n      swap1\n      tag_119\n      swap2\n      swap1\n      tag_120\n      jump\t// in\n    tag_119:\n        /* \"contracts/NFTContract3/SQFIFactory.sol\":3304:3341  itemId = SQFI.safeBuyActive(typeItem) */\n      swap1\n      pop\n        /* \"contracts/NFTContract3/SQFIFactory.sol\":3376:3478  activeItems(... */\n      mload(0x40)\n      dup1\n      0x60\n      add\n      0x40\n      mstore\n      dup1\n        /* \"contracts/NFTContract3/SQFIFactory.sol\":3401:3407  itemId */\n      dup3\n        /* \"contracts/NFTContract3/SQFIFactory.sol\":3376:3478  activeItems(... */\n      dup2\n      mstore\n      0x20\n      add\n        /* \"contracts/NFTContract3/SQFIFactory.sol\":3421:3431  msg.sender */\n      caller\n        /* \"contracts/NFTContract3/SQFIFactory.sol\":3376:3478  activeItems(... */\n      0xffffffffffffffffffffffffffffffffffffffff\n      and\n      dup2\n      mstore\n      0x20\n      add\n        /* \"contracts/NFTContract3/SQFIFactory.sol\":3445:3464  activeStatus.BRONZE */\n      0x01\n        /* \"contracts/NFTContract3/SQFIFactory.sol\":3376:3478  activeItems(... */\n      0x03\n      dup2\n      gt\n      iszero\n      tag_121\n      jumpi\n      tag_122\n      tag_123\n      jump\t// in\n    tag_122:\n    tag_121:\n      dup2\n      mstore\n      pop\n        /* \"contracts/NFTContract3/SQFIFactory.sol\":3355:3365  activeItem */\n      0x01\n        /* \"contracts/NFTContract3/SQFIFactory.sol\":3355:3373  activeItem[itemId] */\n      0x00\n        /* \"contracts/NFTContract3/SQFIFactory.sol\":3366:3372  itemId */\n      dup4\n        /* \"contracts/NFTContract3/SQFIFactory.sol\":3355:3373  activeItem[itemId] */\n      dup2\n      mstore\n      0x20\n      add\n      swap1\n      dup2\n      mstore\n      0x20\n      add\n      0x00\n      keccak256\n        /* \"contracts/NFTContract3/SQFIFactory.sol\":3355:3478  activeItem[itemId] = activeItems(... */\n      0x00\n      dup3\n      add\n      mload\n      dup2\n      0x00\n      add\n      sstore\n      0x20\n      dup3\n      add\n      mload\n      dup2\n      0x01\n      add\n      exp(0x0100, 0x00)\n      dup2\n      sload\n      dup2\n      0xffffffffffffffffffffffffffffffffffffffff\n      mul\n      not\n      and\n      swap1\n      dup4\n      0xffffffffffffffffffffffffffffffffffffffff\n      and\n      mul\n      or\n      swap1\n      sstore\n      pop\n      0x40\n      dup3\n      add\n      mload\n      dup2\n      0x01\n      add\n      exp(0x0100, 0x14)\n      dup2\n      sload\n      dup2\n      0xff\n      mul\n      not\n      and\n      swap1\n      dup4\n      0x03\n      dup2\n      gt\n      iszero\n      tag_124\n      jumpi\n      tag_125\n      tag_123\n      jump\t// in\n    tag_125:\n    tag_124:\n      mul\n      or\n      swap1\n      sstore\n      pop\n      swap1\n      pop\n      pop\n        /* \"contracts/NFTContract3/SQFIFactory.sol\":3123:4228  if (keccak256(abi.encodePacked(typeItem)) == keccak256(abi.encodePacked(\"BRONZE\"))) {... */\n      jump(tag_126)\n    tag_107:\n        /* \"contracts/NFTContract3/SQFIFactory.sol\":3550:3576  abi.encodePacked(\"SILVER\") */\n      add(0x20, mload(0x40))\n      tag_127\n      swap1\n      tag_98\n      jump\t// in\n    tag_127:\n      mload(0x40)\n      0x20\n      dup2\n      dup4\n      sub\n      sub\n      dup2\n      mstore\n      swap1\n      0x40\n      mstore\n        /* \"contracts/NFTContract3/SQFIFactory.sol\":3540:3577  keccak256(abi.encodePacked(\"SILVER\")) */\n      dup1\n      mload\n      swap1\n      0x20\n      add\n      keccak256\n        /* \"contracts/NFTContract3/SQFIFactory.sol\":3526:3534  typeItem */\n      dup3\n        /* \"contracts/NFTContract3/SQFIFactory.sol\":3509:3535  abi.encodePacked(typeItem) */\n      add(0x20, mload(0x40))\n      tag_128\n      swap2\n      swap1\n      tag_95\n      jump\t// in\n    tag_128:\n      mload(0x40)\n      0x20\n      dup2\n      dup4\n      sub\n      sub\n      dup2\n      mstore\n      swap1\n      0x40\n      mstore\n        /* \"contracts/NFTContract3/SQFIFactory.sol\":3499:3536  keccak256(abi.encodePacked(typeItem)) */\n      dup1\n      mload\n      swap1\n      0x20\n      add\n      keccak256\n        /* \"contracts/NFTContract3/SQFIFactory.sol\":3499:3577  keccak256(abi.encodePacked(typeItem)) == keccak256(abi.encodePacked(\"SILVER\")) */\n      sub\n        /* \"contracts/NFTContract3/SQFIFactory.sol\":3496:4228  if(keccak256(abi.encodePacked(typeItem)) == keccak256(abi.encodePacked(\"SILVER\"))) { ... */\n      tag_129\n      jumpi\n        /* \"contracts/NFTContract3/SQFIFactory.sol\":3594:3602  sqfToken */\n      0x00\n      dup1\n      sload\n      swap1\n      0x0100\n      exp\n      swap1\n      div\n      0xffffffffffffffffffffffffffffffffffffffff\n      and\n        /* \"contracts/NFTContract3/SQFIFactory.sol\":3594:3615  sqfToken.transferFrom */\n      0xffffffffffffffffffffffffffffffffffffffff\n      and\n      0x23b872dd\n        /* \"contracts/NFTContract3/SQFIFactory.sol\":3616:3626  msg.sender */\n      caller\n        /* \"contracts/NFTContract3/SQFIFactory.sol\":3636:3643  owner() */\n      tag_130\n        /* \"contracts/NFTContract3/SQFIFactory.sol\":3636:3641  owner */\n      tag_42\n        /* \"contracts/NFTContract3/SQFIFactory.sol\":3636:3643  owner() */\n      jump\t// in\n    tag_130:\n        /* \"contracts/NFTContract3/SQFIFactory.sol\":3645:3662  silverActivePrice */\n      sload(0x07)\n        /* \"contracts/NFTContract3/SQFIFactory.sol\":3594:3663  sqfToken.transferFrom(msg.sender, address(owner()),silverActivePrice) */\n      mload(0x40)\n      dup5\n      0xffffffff\n      and\n      0xe0\n      shl\n      dup2\n      mstore\n      0x04\n      add\n      tag_131\n      swap4\n      swap3\n      swap2\n      swap1\n      tag_110\n      jump\t// in\n    tag_131:\n      0x20\n      mload(0x40)\n      dup1\n      dup4\n      sub\n      dup2\n      0x00\n      dup8\n      gas\n      call\n      iszero\n      dup1\n      iszero\n      tag_133\n      jumpi\n      returndatasize\n      0x00\n      dup1\n      returndatacopy\n      revert(0x00, returndatasize)\n    tag_133:\n      pop\n      pop\n      pop\n      pop\n      mload(0x40)\n      returndatasize\n      not(0x1f)\n      0x1f\n      dup3\n      add\n      and\n      dup3\n      add\n      dup1\n      0x40\n      mstore\n      pop\n      dup2\n      add\n      swap1\n      tag_134\n      swap2\n      swap1\n      tag_114\n      jump\t// in\n    tag_134:\n      pop\n        /* \"contracts/NFTContract3/SQFIFactory.sol\":3686:3690  SQFI */\n      0x09\n      0x00\n      swap1\n      sload\n      swap1\n      0x0100\n      exp\n      swap1\n      div\n      0xffffffffffffffffffffffffffffffffffffffff\n      and\n        /* \"contracts/NFTContract3/SQFIFactory.sol\":3686:3704  SQFI.safeBuyActive */\n      0xffffffffffffffffffffffffffffffffffffffff\n      and\n      0x1f29e9fc\n        /* \"contracts/NFTContract3/SQFIFactory.sol\":3705:3713  typeItem */\n      dup4\n        /* \"contracts/NFTContract3/SQFIFactory.sol\":3686:3714  SQFI.safeBuyActive(typeItem) */\n      mload(0x40)\n      dup3\n      0xffffffff\n      and\n      0xe0\n      shl\n      dup2\n      mstore\n      0x04\n      add\n      tag_135\n      swap2\n      swap1\n      tag_116\n      jump\t// in\n    tag_135:\n      0x20\n      mload(0x40)\n      dup1\n      dup4\n      sub\n      dup2\n      0x00\n      dup8\n      gas\n      call\n      iszero\n      dup1\n      iszero\n      tag_137\n      jumpi\n      returndatasize\n      0x00\n      dup1\n      returndatacopy\n      revert(0x00, returndatasize)\n    tag_137:\n      pop\n      pop\n      pop\n      pop\n      mload(0x40)\n      returndatasize\n      not(0x1f)\n      0x1f\n      dup3\n      add\n      and\n      dup3\n      add\n      dup1\n      0x40\n      mstore\n      pop\n      dup2\n      add\n      swap1\n      tag_138\n      swap2\n      swap1\n      tag_120\n      jump\t// in\n    tag_138:\n        /* \"contracts/NFTContract3/SQFIFactory.sol\":3677:3714  itemId = SQFI.safeBuyActive(typeItem) */\n      swap1\n      pop\n        /* \"contracts/NFTContract3/SQFIFactory.sol\":3749:3847  activeItems(... */\n      mload(0x40)\n      dup1\n      0x60\n      add\n      0x40\n      mstore\n      dup1\n        /* \"contracts/NFTContract3/SQFIFactory.sol\":3774:3780  itemId */\n      dup3\n        /* \"contracts/NFTContract3/SQFIFactory.sol\":3749:3847  activeItems(... */\n      dup2\n      mstore\n      0x20\n      add\n        /* \"contracts/NFTContract3/SQFIFactory.sol\":3794:3804  msg.sender */\n      caller\n        /* \"contracts/NFTContract3/SQFIFactory.sol\":3749:3847  activeItems(... */\n      0xffffffffffffffffffffffffffffffffffffffff\n      and\n      dup2\n      mstore\n      0x20\n      add\n        /* \"contracts/NFTContract3/SQFIFactory.sol\":3818:3837  activeStatus.SILVER */\n      0x02\n        /* \"contracts/NFTContract3/SQFIFactory.sol\":3749:3847  activeItems(... */\n      0x03\n      dup2\n      gt\n      iszero\n      tag_139\n      jumpi\n      tag_140\n      tag_123\n      jump\t// in\n    tag_140:\n    tag_139:\n      dup2\n      mstore\n      pop\n        /* \"contracts/NFTContract3/SQFIFactory.sol\":3728:3738  activeItem */\n      0x01\n        /* \"contracts/NFTContract3/SQFIFactory.sol\":3728:3746  activeItem[itemId] */\n      0x00\n        /* \"contracts/NFTContract3/SQFIFactory.sol\":3739:3745  itemId */\n      dup4\n        /* \"contracts/NFTContract3/SQFIFactory.sol\":3728:3746  activeItem[itemId] */\n      dup2\n      mstore\n      0x20\n      add\n      swap1\n      dup2\n      mstore\n      0x20\n      add\n      0x00\n      keccak256\n        /* \"contracts/NFTContract3/SQFIFactory.sol\":3728:3847  activeItem[itemId] = activeItems(... */\n      0x00\n      dup3\n      add\n      mload\n      dup2\n      0x00\n      add\n      sstore\n      0x20\n      dup3\n      add\n      mload\n      dup2\n      0x01\n      add\n      exp(0x0100, 0x00)\n      dup2\n      sload\n      dup2\n      0xffffffffffffffffffffffffffffffffffffffff\n      mul\n      not\n      and\n      swap1\n      dup4\n      0xffffffffffffffffffffffffffffffffffffffff\n      and\n      mul\n      or\n      swap1\n      sstore\n      pop\n      0x40\n      dup3\n      add\n      mload\n      dup2\n      0x01\n      add\n      exp(0x0100, 0x14)\n      dup2\n      sload\n      dup2\n      0xff\n      mul\n      not\n      and\n      swap1\n      dup4\n      0x03\n      dup2\n      gt\n      iszero\n      tag_141\n      jumpi\n      tag_142\n      tag_123\n      jump\t// in\n    tag_142:\n    tag_141:\n      mul\n      or\n      swap1\n      sstore\n      pop\n      swap1\n      pop\n      pop\n        /* \"contracts/NFTContract3/SQFIFactory.sol\":3496:4228  if(keccak256(abi.encodePacked(typeItem)) == keccak256(abi.encodePacked(\"SILVER\"))) { ... */\n      jump(tag_143)\n    tag_129:\n        /* \"contracts/NFTContract3/SQFIFactory.sol\":3926:3950  abi.encodePacked(\"GOLD\") */\n      add(0x20, mload(0x40))\n      tag_144\n      swap1\n      tag_102\n      jump\t// in\n    tag_144:\n      mload(0x40)\n      0x20\n      dup2\n      dup4\n      sub\n      sub\n      dup2\n      mstore\n      swap1\n      0x40\n      mstore\n        /* \"contracts/NFTContract3/SQFIFactory.sol\":3916:3951  keccak256(abi.encodePacked(\"GOLD\")) */\n      dup1\n      mload\n      swap1\n      0x20\n      add\n      keccak256\n        /* \"contracts/NFTContract3/SQFIFactory.sol\":3902:3910  typeItem */\n      dup3\n        /* \"contracts/NFTContract3/SQFIFactory.sol\":3885:3911  abi.encodePacked(typeItem) */\n      add(0x20, mload(0x40))\n      tag_145\n      swap2\n      swap1\n      tag_95\n      jump\t// in\n    tag_145:\n      mload(0x40)\n      0x20\n      dup2\n      dup4\n      sub\n      sub\n      dup2\n      mstore\n      swap1\n      0x40\n      mstore\n        /* \"contracts/NFTContract3/SQFIFactory.sol\":3875:3912  keccak256(abi.encodePacked(typeItem)) */\n      dup1\n      mload\n      swap1\n      0x20\n      add\n      keccak256\n        /* \"contracts/NFTContract3/SQFIFactory.sol\":3875:3951  keccak256(abi.encodePacked(typeItem)) == keccak256(abi.encodePacked(\"GOLD\")) */\n      sub\n        /* \"contracts/NFTContract3/SQFIFactory.sol\":3872:4228  if(keccak256(abi.encodePacked(typeItem)) == keccak256(abi.encodePacked(\"GOLD\"))) { ... */\n      tag_146\n      jumpi\n        /* \"contracts/NFTContract3/SQFIFactory.sol\":3968:3976  sqfToken */\n      0x00\n      dup1\n      sload\n      swap1\n      0x0100\n      exp\n      swap1\n      div\n      0xffffffffffffffffffffffffffffffffffffffff\n      and\n        /* \"contracts/NFTContract3/SQFIFactory.sol\":3968:3989  sqfToken.transferFrom */\n      0xffffffffffffffffffffffffffffffffffffffff\n      and\n      0x23b872dd\n        /* \"contracts/NFTContract3/SQFIFactory.sol\":3990:4000  msg.sender */\n      caller\n        /* \"contracts/NFTContract3/SQFIFactory.sol\":4010:4017  owner() */\n      tag_147\n        /* \"contracts/NFTContract3/SQFIFactory.sol\":4010:4015  owner */\n      tag_42\n        /* \"contracts/NFTContract3/SQFIFactory.sol\":4010:4017  owner() */\n      jump\t// in\n    tag_147:\n        /* \"contracts/NFTContract3/SQFIFactory.sol\":4019:4034  goldActivePrice */\n      sload(0x08)\n        /* \"contracts/NFTContract3/SQFIFactory.sol\":3968:4035  sqfToken.transferFrom(msg.sender, address(owner()),goldActivePrice) */\n      mload(0x40)\n      dup5\n      0xffffffff\n      and\n      0xe0\n      shl\n      dup2\n      mstore\n      0x04\n      add\n      tag_148\n      swap4\n      swap3\n      swap2\n      swap1\n      tag_110\n      jump\t// in\n    tag_148:\n      0x20\n      mload(0x40)\n      dup1\n      dup4\n      sub\n      dup2\n      0x00\n      dup8\n      gas\n      call\n      iszero\n      dup1\n      iszero\n      tag_150\n      jumpi\n      returndatasize\n      0x00\n      dup1\n      returndatacopy\n      revert(0x00, returndatasize)\n    tag_150:\n      pop\n      pop\n      pop\n      pop\n      mload(0x40)\n      returndatasize\n      not(0x1f)\n      0x1f\n      dup3\n      add\n      and\n      dup3\n      add\n      dup1\n      0x40\n      mstore\n      pop\n      dup2\n      add\n      swap1\n      tag_151\n      swap2\n      swap1\n      tag_114\n      jump\t// in\n    tag_151:\n      pop\n        /* \"contracts/NFTContract3/SQFIFactory.sol\":4058:4062  SQFI */\n      0x09\n      0x00\n      swap1\n      sload\n      swap1\n      0x0100\n      exp\n      swap1\n      div\n      0xffffffffffffffffffffffffffffffffffffffff\n      and\n        /* \"contracts/NFTContract3/SQFIFactory.sol\":4058:4076  SQFI.safeBuyActive */\n      0xffffffffffffffffffffffffffffffffffffffff\n      and\n      0x1f29e9fc\n        /* \"contracts/NFTContract3/SQFIFactory.sol\":4077:4085  typeItem */\n      dup4\n        /* \"contracts/NFTContract3/SQFIFactory.sol\":4058:4086  SQFI.safeBuyActive(typeItem) */\n      mload(0x40)\n      dup3\n      0xffffffff\n      and\n      0xe0\n      shl\n      dup2\n      mstore\n      0x04\n      add\n      tag_152\n      swap2\n      swap1\n      tag_116\n      jump\t// in\n    tag_152:\n      0x20\n      mload(0x40)\n      dup1\n      dup4\n      sub\n      dup2\n      0x00\n      dup8\n      gas\n      call\n      iszero\n      dup1\n      iszero\n      tag_154\n      jumpi\n      returndatasize\n      0x00\n      dup1\n      returndatacopy\n      revert(0x00, returndatasize)\n    tag_154:\n      pop\n      pop\n      pop\n      pop\n      mload(0x40)\n      returndatasize\n      not(0x1f)\n      0x1f\n      dup3\n      add\n      and\n      dup3\n      add\n      dup1\n      0x40\n      mstore\n      pop\n      dup2\n      add\n      swap1\n      tag_155\n      swap2\n      swap1\n      tag_120\n      jump\t// in\n    tag_155:\n        /* \"contracts/NFTContract3/SQFIFactory.sol\":4049:4086  itemId = SQFI.safeBuyActive(typeItem) */\n      swap1\n      pop\n        /* \"contracts/NFTContract3/SQFIFactory.sol\":4121:4217  activeItems(... */\n      mload(0x40)\n      dup1\n      0x60\n      add\n      0x40\n      mstore\n      dup1\n        /* \"contracts/NFTContract3/SQFIFactory.sol\":4146:4152  itemId */\n      dup3\n        /* \"contracts/NFTContract3/SQFIFactory.sol\":4121:4217  activeItems(... */\n      dup2\n      mstore\n      0x20\n      add\n        /* \"contracts/NFTContract3/SQFIFactory.sol\":4166:4176  msg.sender */\n      caller\n        /* \"contracts/NFTContract3/SQFIFactory.sol\":4121:4217  activeItems(... */\n      0xffffffffffffffffffffffffffffffffffffffff\n      and\n      dup2\n      mstore\n      0x20\n      add\n        /* \"contracts/NFTContract3/SQFIFactory.sol\":4190:4207  activeStatus.GOLD */\n      0x03\n        /* \"contracts/NFTContract3/SQFIFactory.sol\":4121:4217  activeItems(... */\n      dup1\n      dup2\n      gt\n      iszero\n      tag_156\n      jumpi\n      tag_157\n      tag_123\n      jump\t// in\n    tag_157:\n    tag_156:\n      dup2\n      mstore\n      pop\n        /* \"contracts/NFTContract3/SQFIFactory.sol\":4100:4110  activeItem */\n      0x01\n        /* \"contracts/NFTContract3/SQFIFactory.sol\":4100:4118  activeItem[itemId] */\n      0x00\n        /* \"contracts/NFTContract3/SQFIFactory.sol\":4111:4117  itemId */\n      dup4\n        /* \"contracts/NFTContract3/SQFIFactory.sol\":4100:4118  activeItem[itemId] */\n      dup2\n      mstore\n      0x20\n      add\n      swap1\n      dup2\n      mstore\n      0x20\n      add\n      0x00\n      keccak256\n        /* \"contracts/NFTContract3/SQFIFactory.sol\":4100:4217  activeItem[itemId] = activeItems(... */\n      0x00\n      dup3\n      add\n      mload\n      dup2\n      0x00\n      add\n      sstore\n      0x20\n      dup3\n      add\n      mload\n      dup2\n      0x01\n      add\n      exp(0x0100, 0x00)\n      dup2\n      sload\n      dup2\n      0xffffffffffffffffffffffffffffffffffffffff\n      mul\n      not\n      and\n      swap1\n      dup4\n      0xffffffffffffffffffffffffffffffffffffffff\n      and\n      mul\n      or\n      swap1\n      sstore\n      pop\n      0x40\n      dup3\n      add\n      mload\n      dup2\n      0x01\n      add\n      exp(0x0100, 0x14)\n      dup2\n      sload\n      dup2\n      0xff\n      mul\n      not\n      and\n      swap1\n      dup4\n      0x03\n      dup2\n      gt\n      iszero\n      tag_158\n      jumpi\n      tag_159\n      tag_123\n      jump\t// in\n    tag_159:\n    tag_158:\n      mul\n      or\n      swap1\n      sstore\n      pop\n      swap1\n      pop\n      pop\n        /* \"contracts/NFTContract3/SQFIFactory.sol\":3872:4228  if(keccak256(abi.encodePacked(typeItem)) == keccak256(abi.encodePacked(\"GOLD\"))) { ... */\n    tag_146:\n        /* \"contracts/NFTContract3/SQFIFactory.sol\":3496:4228  if(keccak256(abi.encodePacked(typeItem)) == keccak256(abi.encodePacked(\"SILVER\"))) { ... */\n    tag_143:\n        /* \"contracts/NFTContract3/SQFIFactory.sol\":3123:4228  if (keccak256(abi.encodePacked(typeItem)) == keccak256(abi.encodePacked(\"BRONZE\"))) {... */\n    tag_126:\n        /* \"contracts/NFTContract3/SQFIFactory.sol\":4259:4269  msg.sender */\n      caller\n        /* \"contracts/NFTContract3/SQFIFactory.sol\":4242:4279  buyActive(itemId,msg.sender,typeItem) */\n      0xffffffffffffffffffffffffffffffffffffffff\n      and\n      0x1db2f8d3844c137e9a42d6083e0d6d79f46718a5b5f1df7504c174630c01bc10\n        /* \"contracts/NFTContract3/SQFIFactory.sol\":4252:4258  itemId */\n      dup3\n        /* \"contracts/NFTContract3/SQFIFactory.sol\":4270:4278  typeItem */\n      dup5\n        /* \"contracts/NFTContract3/SQFIFactory.sol\":4242:4279  buyActive(itemId,msg.sender,typeItem) */\n      mload(0x40)\n      tag_160\n      swap3\n      swap2\n      swap1\n      tag_161\n      jump\t// in\n    tag_160:\n      mload(0x40)\n      dup1\n      swap2\n      sub\n      swap1\n      log2\n        /* \"contracts/NFTContract3/SQFIFactory.sol\":2796:4348  { ... */\n      pop\n        /* \"contracts/NFTContract3/SQFIFactory.sol\":2741:4348  function mintActiveItem(string memory typeItem) public { ... */\n      pop\n      jump\t// out\n        /* \"contracts/NFTContract3/FactoryStorage.sol\":1469:1518  mapping(uint256 => ingameItems) public ingameItem */\n    tag_65:\n      mstore(0x20, 0x02)\n      dup1\n      0x00\n      mstore\n      keccak256(0x00, 0x40)\n      0x00\n      swap2\n      pop\n      swap1\n      pop\n      dup1\n      0x00\n      add\n      sload\n      swap1\n      dup1\n      0x01\n      add\n      dup1\n      sload\n      tag_162\n      swap1\n      tag_163\n      jump\t// in\n    tag_162:\n      dup1\n      0x1f\n      add\n      0x20\n      dup1\n      swap2\n      div\n      mul\n      0x20\n      add\n      mload(0x40)\n      swap1\n      dup2\n      add\n      0x40\n      mstore\n      dup1\n      swap3\n      swap2\n      swap1\n      dup2\n      dup2\n      mstore\n      0x20\n      add\n      dup3\n      dup1\n      sload\n      tag_164\n      swap1\n      tag_163\n      jump\t// in\n    tag_164:\n      dup1\n      iszero\n      tag_165\n      jumpi\n      dup1\n      0x1f\n      lt\n      tag_166\n      jumpi\n      0x0100\n      dup1\n      dup4\n      sload\n      div\n      mul\n      dup4\n      mstore\n      swap2\n      0x20\n      add\n      swap2\n      jump(tag_165)\n    tag_166:\n      dup3\n      add\n      swap2\n      swap1\n      0x00\n      mstore\n      keccak256(0x00, 0x20)\n      swap1\n    tag_167:\n      dup2\n      sload\n      dup2\n      mstore\n      swap1\n      0x01\n      add\n      swap1\n      0x20\n      add\n      dup1\n      dup4\n      gt\n      tag_167\n      jumpi\n      dup3\n      swap1\n      sub\n      0x1f\n      and\n      dup3\n      add\n      swap2\n    tag_165:\n      pop\n      pop\n      pop\n      pop\n      pop\n      swap1\n      dup1\n      0x02\n      add\n      0x00\n      swap1\n      sload\n      swap1\n      0x0100\n      exp\n      swap1\n      div\n      0xff\n      and\n      swap1\n      pop\n      dup4\n      jump\t// out\n        /* \"contracts/NFTContract3/SQFIFactory.sol\":1920:1946  address public nftContract */\n    tag_69:\n      0x05\n      0x00\n      swap1\n      sload\n      swap1\n      0x0100\n      exp\n      swap1\n      div\n      0xffffffffffffffffffffffffffffffffffffffff\n      and\n      dup2\n      jump\t// out\n        /* \"contracts/NFTContract3/Ownable.sol\":1911:2109  function transferOwnership(address newOwner) public virtual onlyOwner {... */\n    tag_73:\n        /* \"contracts/NFTContract3/Ownable.sol\":1252:1264  _msgSender() */\n      tag_169\n        /* \"contracts/NFTContract3/Ownable.sol\":1252:1262  _msgSender */\n      tag_76\n        /* \"contracts/NFTContract3/Ownable.sol\":1252:1264  _msgSender() */\n      jump\t// in\n    tag_169:\n        /* \"contracts/NFTContract3/Ownable.sol\":1241:1264  owner() == _msgSender() */\n      0xffffffffffffffffffffffffffffffffffffffff\n      and\n        /* \"contracts/NFTContract3/Ownable.sol\":1241:1248  owner() */\n      tag_170\n        /* \"contracts/NFTContract3/Ownable.sol\":1241:1246  owner */\n      tag_42\n        /* \"contracts/NFTContract3/Ownable.sol\":1241:1248  owner() */\n      jump\t// in\n    tag_170:\n        /* \"contracts/NFTContract3/Ownable.sol\":1241:1264  owner() == _msgSender() */\n      0xffffffffffffffffffffffffffffffffffffffff\n      and\n      eq\n        /* \"contracts/NFTContract3/Ownable.sol\":1233:1301  require(owner() == _msgSender(), \"Ownable: caller is not the owner\") */\n      tag_171\n      jumpi\n      mload(0x40)\n      0x08c379a000000000000000000000000000000000000000000000000000000000\n      dup2\n      mstore\n      0x04\n      add\n      tag_172\n      swap1\n      tag_80\n      jump\t// in\n    tag_172:\n      mload(0x40)\n      dup1\n      swap2\n      sub\n      swap1\n      revert\n    tag_171:\n        /* \"contracts/NFTContract3/Ownable.sol\":2019:2020  0 */\n      0x00\n        /* \"contracts/NFTContract3/Ownable.sol\":1999:2021  newOwner != address(0) */\n      0xffffffffffffffffffffffffffffffffffffffff\n      and\n        /* \"contracts/NFTContract3/Ownable.sol\":1999:2007  newOwner */\n      dup2\n        /* \"contracts/NFTContract3/Ownable.sol\":1999:2021  newOwner != address(0) */\n      0xffffffffffffffffffffffffffffffffffffffff\n      and\n      sub\n        /* \"contracts/NFTContract3/Ownable.sol\":1991:2064  require(newOwner != address(0), \"Ownable: new owner is the zero address\") */\n      tag_174\n      jumpi\n      mload(0x40)\n      0x08c379a000000000000000000000000000000000000000000000000000000000\n      dup2\n      mstore\n      0x04\n      add\n      tag_175\n      swap1\n      tag_176\n      jump\t// in\n    tag_175:\n      mload(0x40)\n      dup1\n      swap2\n      sub\n      swap1\n      revert\n    tag_174:\n        /* \"contracts/NFTContract3/Ownable.sol\":2074:2102  _transferOwnership(newOwner) */\n      tag_177\n        /* \"contracts/NFTContract3/Ownable.sol\":2093:2101  newOwner */\n      dup2\n        /* \"contracts/NFTContract3/Ownable.sol\":2074:2092  _transferOwnership */\n      tag_83\n        /* \"contracts/NFTContract3/Ownable.sol\":2074:2102  _transferOwnership(newOwner) */\n      jump\t// in\n    tag_177:\n        /* \"contracts/NFTContract3/Ownable.sol\":1911:2109  function transferOwnership(address newOwner) public virtual onlyOwner {... */\n      pop\n      jump\t// out\n        /* \"contracts/NFTContract3/Context.sol\":640:736  function _msgSender() internal view virtual returns (address) {... */\n    tag_76:\n        /* \"contracts/NFTContract3/Context.sol\":693:700  address */\n      0x00\n        /* \"contracts/NFTContract3/Context.sol\":719:729  msg.sender */\n      caller\n        /* \"contracts/NFTContract3/Context.sol\":712:729  return msg.sender */\n      swap1\n      pop\n        /* \"contracts/NFTContract3/Context.sol\":640:736  function _msgSender() internal view virtual returns (address) {... */\n      swap1\n      jump\t// out\n        /* \"contracts/NFTContract3/Ownable.sol\":2263:2450  function _transferOwnership(address newOwner) internal virtual {... */\n    tag_83:\n        /* \"contracts/NFTContract3/Ownable.sol\":2336:2352  address oldOwner */\n      0x00\n        /* \"contracts/NFTContract3/Ownable.sol\":2355:2361  _owner */\n      0x04\n      0x00\n      swap1\n      sload\n      swap1\n      0x0100\n      exp\n      swap1\n      div\n      0xffffffffffffffffffffffffffffffffffffffff\n      and\n        /* \"contracts/NFTContract3/Ownable.sol\":2336:2361  address oldOwner = _owner */\n      swap1\n      pop\n        /* \"contracts/NFTContract3/Ownable.sol\":2380:2388  newOwner */\n      dup2\n        /* \"contracts/NFTContract3/Ownable.sol\":2371:2377  _owner */\n      0x04\n      0x00\n        /* \"contracts/NFTContract3/Ownable.sol\":2371:2388  _owner = newOwner */\n      0x0100\n      exp\n      dup2\n      sload\n      dup2\n      0xffffffffffffffffffffffffffffffffffffffff\n      mul\n      not\n      and\n      swap1\n      dup4\n      0xffffffffffffffffffffffffffffffffffffffff\n      and\n      mul\n      or\n      swap1\n      sstore\n      pop\n        /* \"contracts/NFTContract3/Ownable.sol\":2434:2442  newOwner */\n      dup2\n        /* \"contracts/NFTContract3/Ownable.sol\":2403:2443  OwnershipTransferred(oldOwner, newOwner) */\n      0xffffffffffffffffffffffffffffffffffffffff\n      and\n        /* \"contracts/NFTContract3/Ownable.sol\":2424:2432  oldOwner */\n      dup2\n        /* \"contracts/NFTContract3/Ownable.sol\":2403:2443  OwnershipTransferred(oldOwner, newOwner) */\n      0xffffffffffffffffffffffffffffffffffffffff\n      and\n      0x8be0079c531659141344cd1fd0a4f28419497f9722a3daafe3b4186f6b6457e0\n      mload(0x40)\n      mload(0x40)\n      dup1\n      swap2\n      sub\n      swap1\n      log3\n        /* \"contracts/NFTContract3/Ownable.sol\":2326:2450  {... */\n      pop\n        /* \"contracts/NFTContract3/Ownable.sol\":2263:2450  function _transferOwnership(address newOwner) internal virtual {... */\n      pop\n      jump\t// out\n        /* \"#utility.yul\":7:133   */\n    tag_180:\n        /* \"#utility.yul\":44:51   */\n      0x00\n        /* \"#utility.yul\":84:126   */\n      0xffffffffffffffffffffffffffffffffffffffff\n        /* \"#utility.yul\":77:82   */\n      dup3\n        /* \"#utility.yul\":73:127   */\n      and\n        /* \"#utility.yul\":62:127   */\n      swap1\n      pop\n        /* \"#utility.yul\":7:133   */\n      swap2\n      swap1\n      pop\n      jump\t// out\n        /* \"#utility.yul\":139:199   */\n    tag_181:\n        /* \"#utility.yul\":167:170   */\n      0x00\n        /* \"#utility.yul\":188:193   */\n      dup2\n        /* \"#utility.yul\":181:193   */\n      swap1\n      pop\n        /* \"#utility.yul\":139:199   */\n      swap2\n      swap1\n      pop\n      jump\t// out\n        /* \"#utility.yul\":205:347   */\n    tag_182:\n        /* \"#utility.yul\":255:264   */\n      0x00\n        /* \"#utility.yul\":288:341   */\n      tag_241\n        /* \"#utility.yul\":306:340   */\n      tag_242\n        /* \"#utility.yul\":315:339   */\n      tag_243\n        /* \"#utility.yul\":333:338   */\n      dup5\n        /* \"#utility.yul\":315:339   */\n      tag_180\n      jump\t// in\n    tag_243:\n        /* \"#utility.yul\":306:340   */\n      tag_181\n      jump\t// in\n    tag_242:\n        /* \"#utility.yul\":288:341   */\n      tag_180\n      jump\t// in\n    tag_241:\n        /* \"#utility.yul\":275:341   */\n      swap1\n      pop\n        /* \"#utility.yul\":205:347   */\n      swap2\n      swap1\n      pop\n      jump\t// out\n        /* \"#utility.yul\":353:479   */\n    tag_183:\n        /* \"#utility.yul\":403:412   */\n      0x00\n        /* \"#utility.yul\":436:473   */\n      tag_245\n        /* \"#utility.yul\":467:472   */\n      dup3\n        /* \"#utility.yul\":436:473   */\n      tag_182\n      jump\t// in\n    tag_245:\n        /* \"#utility.yul\":423:473   */\n      swap1\n      pop\n        /* \"#utility.yul\":353:479   */\n      swap2\n      swap1\n      pop\n      jump\t// out\n        /* \"#utility.yul\":485:624   */\n    tag_184:\n        /* \"#utility.yul\":548:557   */\n      0x00\n        /* \"#utility.yul\":581:618   */\n      tag_247\n        /* \"#utility.yul\":612:617   */\n      dup3\n        /* \"#utility.yul\":581:618   */\n      tag_183\n      jump\t// in\n    tag_247:\n        /* \"#utility.yul\":568:618   */\n      swap1\n      pop\n        /* \"#utility.yul\":485:624   */\n      swap2\n      swap1\n      pop\n      jump\t// out\n        /* \"#utility.yul\":630:787   */\n    tag_185:\n        /* \"#utility.yul\":730:780   */\n      tag_249\n        /* \"#utility.yul\":774:779   */\n      dup2\n        /* \"#utility.yul\":730:780   */\n      tag_184\n      jump\t// in\n    tag_249:\n        /* \"#utility.yul\":725:728   */\n      dup3\n        /* \"#utility.yul\":718:781   */\n      mstore\n        /* \"#utility.yul\":630:787   */\n      pop\n      pop\n      jump\t// out\n        /* \"#utility.yul\":793:1041   */\n    tag_23:\n        /* \"#utility.yul\":899:903   */\n      0x00\n        /* \"#utility.yul\":937:939   */\n      0x20\n        /* \"#utility.yul\":926:935   */\n      dup3\n        /* \"#utility.yul\":922:940   */\n      add\n        /* \"#utility.yul\":914:940   */\n      swap1\n      pop\n        /* \"#utility.yul\":950:1034   */\n      tag_251\n        /* \"#utility.yul\":1031:1032   */\n      0x00\n        /* \"#utility.yul\":1020:1029   */\n      dup4\n        /* \"#utility.yul\":1016:1033   */\n      add\n        /* \"#utility.yul\":1007:1013   */\n      dup5\n        /* \"#utility.yul\":950:1034   */\n      tag_185\n      jump\t// in\n    tag_251:\n        /* \"#utility.yul\":793:1041   */\n      swap3\n      swap2\n      pop\n      pop\n      jump\t// out\n        /* \"#utility.yul\":1047:1122   */\n    tag_186:\n        /* \"#utility.yul\":1080:1086   */\n      0x00\n        /* \"#utility.yul\":1113:1115   */\n      0x40\n        /* \"#utility.yul\":1107:1116   */\n      mload\n        /* \"#utility.yul\":1097:1116   */\n      swap1\n      pop\n        /* \"#utility.yul\":1047:1122   */\n      swap1\n      jump\t// out\n        /* \"#utility.yul\":1128:1245   */\n    tag_187:\n        /* \"#utility.yul\":1237:1238   */\n      0x00\n        /* \"#utility.yul\":1234:1235   */\n      dup1\n        /* \"#utility.yul\":1227:1239   */\n      revert\n        /* \"#utility.yul\":1251:1368   */\n    tag_188:\n        /* \"#utility.yul\":1360:1361   */\n      0x00\n        /* \"#utility.yul\":1357:1358   */\n      dup1\n        /* \"#utility.yul\":1350:1362   */\n      revert\n        /* \"#utility.yul\":1374:1451   */\n    tag_189:\n        /* \"#utility.yul\":1411:1418   */\n      0x00\n        /* \"#utility.yul\":1440:1445   */\n      dup2\n        /* \"#utility.yul\":1429:1445   */\n      swap1\n      pop\n        /* \"#utility.yul\":1374:1451   */\n      swap2\n      swap1\n      pop\n      jump\t// out\n        /* \"#utility.yul\":1457:1579   */\n    tag_190:\n        /* \"#utility.yul\":1530:1554   */\n      tag_257\n        /* \"#utility.yul\":1548:1553   */\n      dup2\n        /* \"#utility.yul\":1530:1554   */\n      tag_189\n      jump\t// in\n    tag_257:\n        /* \"#utility.yul\":1523:1528   */\n      dup2\n        /* \"#utility.yul\":1520:1555   */\n      eq\n        /* \"#utility.yul\":1510:1573   */\n      tag_258\n      jumpi\n        /* \"#utility.yul\":1569:1570   */\n      0x00\n        /* \"#utility.yul\":1566:1567   */\n      dup1\n        /* \"#utility.yul\":1559:1571   */\n      revert\n        /* \"#utility.yul\":1510:1573   */\n    tag_258:\n        /* \"#utility.yul\":1457:1579   */\n      pop\n      jump\t// out\n        /* \"#utility.yul\":1585:1724   */\n    tag_191:\n        /* \"#utility.yul\":1631:1636   */\n      0x00\n        /* \"#utility.yul\":1669:1675   */\n      dup2\n        /* \"#utility.yul\":1656:1676   */\n      calldataload\n        /* \"#utility.yul\":1647:1676   */\n      swap1\n      pop\n        /* \"#utility.yul\":1685:1718   */\n      tag_260\n        /* \"#utility.yul\":1712:1717   */\n      dup2\n        /* \"#utility.yul\":1685:1718   */\n      tag_190\n      jump\t// in\n    tag_260:\n        /* \"#utility.yul\":1585:1724   */\n      swap3\n      swap2\n      pop\n      pop\n      jump\t// out\n        /* \"#utility.yul\":1730:2059   */\n    tag_26:\n        /* \"#utility.yul\":1789:1795   */\n      0x00\n        /* \"#utility.yul\":1838:1840   */\n      0x20\n        /* \"#utility.yul\":1826:1835   */\n      dup3\n        /* \"#utility.yul\":1817:1824   */\n      dup5\n        /* \"#utility.yul\":1813:1836   */\n      sub\n        /* \"#utility.yul\":1809:1841   */\n      slt\n        /* \"#utility.yul\":1806:1925   */\n      iszero\n      tag_262\n      jumpi\n        /* \"#utility.yul\":1844:1923   */\n      tag_263\n      tag_187\n      jump\t// in\n    tag_263:\n        /* \"#utility.yul\":1806:1925   */\n    tag_262:\n        /* \"#utility.yul\":1964:1965   */\n      0x00\n        /* \"#utility.yul\":1989:2042   */\n      tag_264\n        /* \"#utility.yul\":2034:2041   */\n      dup5\n        /* \"#utility.yul\":2025:2031   */\n      dup3\n        /* \"#utility.yul\":2014:2023   */\n      dup6\n        /* \"#utility.yul\":2010:2032   */\n      add\n        /* \"#utility.yul\":1989:2042   */\n      tag_191\n      jump\t// in\n    tag_264:\n        /* \"#utility.yul\":1979:2042   */\n      swap2\n      pop\n        /* \"#utility.yul\":1935:2052   */\n      pop\n        /* \"#utility.yul\":1730:2059   */\n      swap3\n      swap2\n      pop\n      pop\n      jump\t// out\n        /* \"#utility.yul\":2065:2161   */\n    tag_192:\n        /* \"#utility.yul\":2102:2109   */\n      0x00\n        /* \"#utility.yul\":2131:2155   */\n      tag_266\n        /* \"#utility.yul\":2149:2154   */\n      dup3\n        /* \"#utility.yul\":2131:2155   */\n      tag_180\n      jump\t// in\n    tag_266:\n        /* \"#utility.yul\":2120:2155   */\n      swap1\n      pop\n        /* \"#utility.yul\":2065:2161   */\n      swap2\n      swap1\n      pop\n      jump\t// out\n        /* \"#utility.yul\":2167:2285   */\n    tag_193:\n        /* \"#utility.yul\":2254:2278   */\n      tag_268\n        /* \"#utility.yul\":2272:2277   */\n      dup2\n        /* \"#utility.yul\":2254:2278   */\n      tag_192\n      jump\t// in\n    tag_268:\n        /* \"#utility.yul\":2249:2252   */\n      dup3\n        /* \"#utility.yul\":2242:2279   */\n      mstore\n        /* \"#utility.yul\":2167:2285   */\n      pop\n      pop\n      jump\t// out\n        /* \"#utility.yul\":2291:2471   */\n    tag_123:\n        /* \"#utility.yul\":2339:2416   */\n      0x4e487b7100000000000000000000000000000000000000000000000000000000\n        /* \"#utility.yul\":2336:2337   */\n      0x00\n        /* \"#utility.yul\":2329:2417   */\n      mstore\n        /* \"#utility.yul\":2436:2440   */\n      0x21\n        /* \"#utility.yul\":2433:2434   */\n      0x04\n        /* \"#utility.yul\":2426:2441   */\n      mstore\n        /* \"#utility.yul\":2460:2464   */\n      0x24\n        /* \"#utility.yul\":2457:2458   */\n      0x00\n        /* \"#utility.yul\":2450:2465   */\n      revert\n        /* \"#utility.yul\":2477:2597   */\n    tag_194:\n        /* \"#utility.yul\":2565:2566   */\n      0x04\n        /* \"#utility.yul\":2558:2563   */\n      dup2\n        /* \"#utility.yul\":2555:2567   */\n      lt\n        /* \"#utility.yul\":2545:2591   */\n      tag_271\n      jumpi\n        /* \"#utility.yul\":2571:2589   */\n      tag_272\n      tag_123\n      jump\t// in\n    tag_272:\n        /* \"#utility.yul\":2545:2591   */\n    tag_271:\n        /* \"#utility.yul\":2477:2597   */\n      pop\n      jump\t// out\n        /* \"#utility.yul\":2603:2744   */\n    tag_195:\n        /* \"#utility.yul\":2655:2662   */\n      0x00\n        /* \"#utility.yul\":2684:2689   */\n      dup2\n        /* \"#utility.yul\":2673:2689   */\n      swap1\n      pop\n        /* \"#utility.yul\":2690:2738   */\n      tag_274\n        /* \"#utility.yul\":2732:2737   */\n      dup3\n        /* \"#utility.yul\":2690:2738   */\n      tag_194\n      jump\t// in\n    tag_274:\n        /* \"#utility.yul\":2603:2744   */\n      swap2\n      swap1\n      pop\n      jump\t// out\n        /* \"#utility.yul\":2750:2891   */\n    tag_196:\n        /* \"#utility.yul\":2813:2822   */\n      0x00\n        /* \"#utility.yul\":2846:2885   */\n      tag_276\n        /* \"#utility.yul\":2879:2884   */\n      dup3\n        /* \"#utility.yul\":2846:2885   */\n      tag_195\n      jump\t// in\n    tag_276:\n        /* \"#utility.yul\":2833:2885   */\n      swap1\n      pop\n        /* \"#utility.yul\":2750:2891   */\n      swap2\n      swap1\n      pop\n      jump\t// out\n        /* \"#utility.yul\":2897:3054   */\n    tag_197:\n        /* \"#utility.yul\":2997:3047   */\n      tag_278\n        /* \"#utility.yul\":3041:3046   */\n      dup2\n        /* \"#utility.yul\":2997:3047   */\n      tag_196\n      jump\t// in\n    tag_278:\n        /* \"#utility.yul\":2992:2995   */\n      dup3\n        /* \"#utility.yul\":2985:3048   */\n      mstore\n        /* \"#utility.yul\":2897:3054   */\n      pop\n      pop\n      jump\t// out\n        /* \"#utility.yul\":3060:3418   */\n    tag_29:\n        /* \"#utility.yul\":3194:3198   */\n      0x00\n        /* \"#utility.yul\":3232:3234   */\n      0x40\n        /* \"#utility.yul\":3221:3230   */\n      dup3\n        /* \"#utility.yul\":3217:3235   */\n      add\n        /* \"#utility.yul\":3209:3235   */\n      swap1\n      pop\n        /* \"#utility.yul\":3245:3316   */\n      tag_280\n        /* \"#utility.yul\":3313:3314   */\n      0x00\n        /* \"#utility.yul\":3302:3311   */\n      dup4\n        /* \"#utility.yul\":3298:3315   */\n      add\n        /* \"#utility.yul\":3289:3295   */\n      dup6\n        /* \"#utility.yul\":3245:3316   */\n      tag_193\n      jump\t// in\n    tag_280:\n        /* \"#utility.yul\":3326:3411   */\n      tag_281\n        /* \"#utility.yul\":3407:3409   */\n      0x20\n        /* \"#utility.yul\":3396:3405   */\n      dup4\n        /* \"#utility.yul\":3392:3410   */\n      add\n        /* \"#utility.yul\":3383:3389   */\n      dup5\n        /* \"#utility.yul\":3326:3411   */\n      tag_197\n      jump\t// in\n    tag_281:\n        /* \"#utility.yul\":3060:3418   */\n      swap4\n      swap3\n      pop\n      pop\n      pop\n      jump\t// out\n        /* \"#utility.yul\":3424:3573   */\n    tag_198:\n        /* \"#utility.yul\":3460:3467   */\n      0x00\n        /* \"#utility.yul\":3500:3566   */\n      0xffffffff00000000000000000000000000000000000000000000000000000000\n        /* \"#utility.yul\":3493:3498   */\n      dup3\n        /* \"#utility.yul\":3489:3567   */\n      and\n        /* \"#utility.yul\":3478:3567   */\n      swap1\n      pop\n        /* \"#utility.yul\":3424:3573   */\n      swap2\n      swap1\n      pop\n      jump\t// out\n        /* \"#utility.yul\":3579:3694   */\n    tag_199:\n        /* \"#utility.yul\":3664:3687   */\n      tag_284\n        /* \"#utility.yul\":3681:3686   */\n      dup2\n        /* \"#utility.yul\":3664:3687   */\n      tag_198\n      jump\t// in\n    tag_284:\n        /* \"#utility.yul\":3659:3662   */\n      dup3\n        /* \"#utility.yul\":3652:3688   */\n      mstore\n        /* \"#utility.yul\":3579:3694   */\n      pop\n      pop\n      jump\t// out\n        /* \"#utility.yul\":3700:3918   */\n    tag_33:\n        /* \"#utility.yul\":3791:3795   */\n      0x00\n        /* \"#utility.yul\":3829:3831   */\n      0x20\n        /* \"#utility.yul\":3818:3827   */\n      dup3\n        /* \"#utility.yul\":3814:3832   */\n      add\n        /* \"#utility.yul\":3806:3832   */\n      swap1\n      pop\n        /* \"#utility.yul\":3842:3911   */\n      tag_286\n        /* \"#utility.yul\":3908:3909   */\n      0x00\n        /* \"#utility.yul\":3897:3906   */\n      dup4\n        /* \"#utility.yul\":3893:3910   */\n      add\n        /* \"#utility.yul\":3884:3890   */\n      dup5\n        /* \"#utility.yul\":3842:3911   */\n      tag_199\n      jump\t// in\n    tag_286:\n        /* \"#utility.yul\":3700:3918   */\n      swap3\n      swap2\n      pop\n      pop\n      jump\t// out\n        /* \"#utility.yul\":3924:4042   */\n    tag_200:\n        /* \"#utility.yul\":4011:4035   */\n      tag_288\n        /* \"#utility.yul\":4029:4034   */\n      dup2\n        /* \"#utility.yul\":4011:4035   */\n      tag_189\n      jump\t// in\n    tag_288:\n        /* \"#utility.yul\":4006:4009   */\n      dup3\n        /* \"#utility.yul\":3999:4036   */\n      mstore\n        /* \"#utility.yul\":3924:4042   */\n      pop\n      pop\n      jump\t// out\n        /* \"#utility.yul\":4048:4516   */\n    tag_38:\n        /* \"#utility.yul\":4210:4214   */\n      0x00\n        /* \"#utility.yul\":4248:4250   */\n      0x60\n        /* \"#utility.yul\":4237:4246   */\n      dup3\n        /* \"#utility.yul\":4233:4251   */\n      add\n        /* \"#utility.yul\":4225:4251   */\n      swap1\n      pop\n        /* \"#utility.yul\":4261:4332   */\n      tag_290\n        /* \"#utility.yul\":4329:4330   */\n      0x00\n        /* \"#utility.yul\":4318:4327   */\n      dup4\n        /* \"#utility.yul\":4314:4331   */\n      add\n        /* \"#utility.yul\":4305:4311   */\n      dup7\n        /* \"#utility.yul\":4261:4332   */\n      tag_200\n      jump\t// in\n    tag_290:\n        /* \"#utility.yul\":4342:4414   */\n      tag_291\n        /* \"#utility.yul\":4410:4412   */\n      0x20\n        /* \"#utility.yul\":4399:4408   */\n      dup4\n        /* \"#utility.yul\":4395:4413   */\n      add\n        /* \"#utility.yul\":4386:4392   */\n      dup6\n        /* \"#utility.yul\":4342:4414   */\n      tag_193\n      jump\t// in\n    tag_291:\n        /* \"#utility.yul\":4424:4509   */\n      tag_292\n        /* \"#utility.yul\":4505:4507   */\n      0x40\n        /* \"#utility.yul\":4494:4503   */\n      dup4\n        /* \"#utility.yul\":4490:4508   */\n      add\n        /* \"#utility.yul\":4481:4487   */\n      dup5\n        /* \"#utility.yul\":4424:4509   */\n      tag_197\n      jump\t// in\n    tag_292:\n        /* \"#utility.yul\":4048:4516   */\n      swap5\n      swap4\n      pop\n      pop\n      pop\n      pop\n      jump\t// out\n        /* \"#utility.yul\":4522:4744   */\n    tag_44:\n        /* \"#utility.yul\":4615:4619   */\n      0x00\n        /* \"#utility.yul\":4653:4655   */\n      0x20\n        /* \"#utility.yul\":4642:4651   */\n      dup3\n        /* \"#utility.yul\":4638:4656   */\n      add\n        /* \"#utility.yul\":4630:4656   */\n      swap1\n      pop\n        /* \"#utility.yul\":4666:4737   */\n      tag_294\n        /* \"#utility.yul\":4734:4735   */\n      0x00\n        /* \"#utility.yul\":4723:4732   */\n      dup4\n        /* \"#utility.yul\":4719:4736   */\n      add\n        /* \"#utility.yul\":4710:4716   */\n      dup5\n        /* \"#utility.yul\":4666:4737   */\n      tag_193\n      jump\t// in\n    tag_294:\n        /* \"#utility.yul\":4522:4744   */\n      swap3\n      swap2\n      pop\n      pop\n      jump\t// out\n        /* \"#utility.yul\":4750:4872   */\n    tag_201:\n        /* \"#utility.yul\":4823:4847   */\n      tag_296\n        /* \"#utility.yul\":4841:4846   */\n      dup2\n        /* \"#utility.yul\":4823:4847   */\n      tag_192\n      jump\t// in\n    tag_296:\n        /* \"#utility.yul\":4816:4821   */\n      dup2\n        /* \"#utility.yul\":4813:4848   */\n      eq\n        /* \"#utility.yul\":4803:4866   */\n      tag_297\n      jumpi\n        /* \"#utility.yul\":4862:4863   */\n      0x00\n        /* \"#utility.yul\":4859:4860   */\n      dup1\n        /* \"#utility.yul\":4852:4864   */\n      revert\n        /* \"#utility.yul\":4803:4866   */\n    tag_297:\n        /* \"#utility.yul\":4750:4872   */\n      pop\n      jump\t// out\n        /* \"#utility.yul\":4878:5017   */\n    tag_202:\n        /* \"#utility.yul\":4924:4929   */\n      0x00\n        /* \"#utility.yul\":4962:4968   */\n      dup2\n        /* \"#utility.yul\":4949:4969   */\n      calldataload\n        /* \"#utility.yul\":4940:4969   */\n      swap1\n      pop\n        /* \"#utility.yul\":4978:5011   */\n      tag_299\n        /* \"#utility.yul\":5005:5010   */\n      dup2\n        /* \"#utility.yul\":4978:5011   */\n      tag_201\n      jump\t// in\n    tag_299:\n        /* \"#utility.yul\":4878:5017   */\n      swap3\n      swap2\n      pop\n      pop\n      jump\t// out\n        /* \"#utility.yul\":5023:5352   */\n    tag_47:\n        /* \"#utility.yul\":5082:5088   */\n      0x00\n        /* \"#utility.yul\":5131:5133   */\n      0x20\n        /* \"#utility.yul\":5119:5128   */\n      dup3\n        /* \"#utility.yul\":5110:5117   */\n      dup5\n        /* \"#utility.yul\":5106:5129   */\n      sub\n        /* \"#utility.yul\":5102:5134   */\n      slt\n        /* \"#utility.yul\":5099:5218   */\n      iszero\n      tag_301\n      jumpi\n        /* \"#utility.yul\":5137:5216   */\n      tag_302\n      tag_187\n      jump\t// in\n    tag_302:\n        /* \"#utility.yul\":5099:5218   */\n    tag_301:\n        /* \"#utility.yul\":5257:5258   */\n      0x00\n        /* \"#utility.yul\":5282:5335   */\n      tag_303\n        /* \"#utility.yul\":5327:5334   */\n      dup5\n        /* \"#utility.yul\":5318:5324   */\n      dup3\n        /* \"#utility.yul\":5307:5316   */\n      dup6\n        /* \"#utility.yul\":5303:5325   */\n      add\n        /* \"#utility.yul\":5282:5335   */\n      tag_202\n      jump\t// in\n    tag_303:\n        /* \"#utility.yul\":5272:5335   */\n      swap2\n      pop\n        /* \"#utility.yul\":5228:5345   */\n      pop\n        /* \"#utility.yul\":5023:5352   */\n      swap3\n      swap2\n      pop\n      pop\n      jump\t// out\n        /* \"#utility.yul\":5358:5580   */\n    tag_52:\n        /* \"#utility.yul\":5451:5455   */\n      0x00\n        /* \"#utility.yul\":5489:5491   */\n      0x20\n        /* \"#utility.yul\":5478:5487   */\n      dup3\n        /* \"#utility.yul\":5474:5492   */\n      add\n        /* \"#utility.yul\":5466:5492   */\n      swap1\n      pop\n        /* \"#utility.yul\":5502:5573   */\n      tag_305\n        /* \"#utility.yul\":5570:5571   */\n      0x00\n        /* \"#utility.yul\":5559:5568   */\n      dup4\n        /* \"#utility.yul\":5555:5572   */\n      add\n        /* \"#utility.yul\":5546:5552   */\n      dup5\n        /* \"#utility.yul\":5502:5573   */\n      tag_200\n      jump\t// in\n    tag_305:\n        /* \"#utility.yul\":5358:5580   */\n      swap3\n      swap2\n      pop\n      pop\n      jump\t// out\n        /* \"#utility.yul\":5586:5703   */\n    tag_203:\n        /* \"#utility.yul\":5695:5696   */\n      0x00\n        /* \"#utility.yul\":5692:5693   */\n      dup1\n        /* \"#utility.yul\":5685:5697   */\n      revert\n        /* \"#utility.yul\":5709:5826   */\n    tag_204:\n        /* \"#utility.yul\":5818:5819   */\n      0x00\n        /* \"#utility.yul\":5815:5816   */\n      dup1\n        /* \"#utility.yul\":5808:5820   */\n      revert\n        /* \"#utility.yul\":5832:5934   */\n    tag_205:\n        /* \"#utility.yul\":5873:5879   */\n      0x00\n        /* \"#utility.yul\":5924:5926   */\n      0x1f\n        /* \"#utility.yul\":5920:5927   */\n      not\n        /* \"#utility.yul\":5915:5917   */\n      0x1f\n        /* \"#utility.yul\":5908:5913   */\n      dup4\n        /* \"#utility.yul\":5904:5918   */\n      add\n        /* \"#utility.yul\":5900:5928   */\n      and\n        /* \"#utility.yul\":5890:5928   */\n      swap1\n      pop\n        /* \"#utility.yul\":5832:5934   */\n      swap2\n      swap1\n      pop\n      jump\t// out\n        /* \"#utility.yul\":5940:6120   */\n    tag_206:\n        /* \"#utility.yul\":5988:6065   */\n      0x4e487b7100000000000000000000000000000000000000000000000000000000\n        /* \"#utility.yul\":5985:5986   */\n      0x00\n        /* \"#utility.yul\":5978:6066   */\n      mstore\n        /* \"#utility.yul\":6085:6089   */\n      0x41\n        /* \"#utility.yul\":6082:6083   */\n      0x04\n        /* \"#utility.yul\":6075:6090   */\n      mstore\n        /* \"#utility.yul\":6109:6113   */\n      0x24\n        /* \"#utility.yul\":6106:6107   */\n      0x00\n        /* \"#utility.yul\":6099:6114   */\n      revert\n        /* \"#utility.yul\":6126:6407   */\n    tag_207:\n        /* \"#utility.yul\":6209:6236   */\n      tag_311\n        /* \"#utility.yul\":6231:6235   */\n      dup3\n        /* \"#utility.yul\":6209:6236   */\n      tag_205\n      jump\t// in\n    tag_311:\n        /* \"#utility.yul\":6201:6207   */\n      dup2\n        /* \"#utility.yul\":6197:6237   */\n      add\n        /* \"#utility.yul\":6339:6345   */\n      dup2\n        /* \"#utility.yul\":6327:6337   */\n      dup2\n        /* \"#utility.yul\":6324:6346   */\n      lt\n        /* \"#utility.yul\":6303:6321   */\n      0xffffffffffffffff\n        /* \"#utility.yul\":6291:6301   */\n      dup3\n        /* \"#utility.yul\":6288:6322   */\n      gt\n        /* \"#utility.yul\":6285:6347   */\n      or\n        /* \"#utility.yul\":6282:6370   */\n      iszero\n      tag_312\n      jumpi\n        /* \"#utility.yul\":6350:6368   */\n      tag_313\n      tag_206\n      jump\t// in\n    tag_313:\n        /* \"#utility.yul\":6282:6370   */\n    tag_312:\n        /* \"#utility.yul\":6390:6400   */\n      dup1\n        /* \"#utility.yul\":6386:6388   */\n      0x40\n        /* \"#utility.yul\":6379:6401   */\n      mstore\n        /* \"#utility.yul\":6169:6407   */\n      pop\n        /* \"#utility.yul\":6126:6407   */\n      pop\n      pop\n      jump\t// out\n        /* \"#utility.yul\":6413:6542   */\n    tag_208:\n        /* \"#utility.yul\":6447:6453   */\n      0x00\n        /* \"#utility.yul\":6474:6494   */\n      tag_315\n      tag_186\n      jump\t// in\n    tag_315:\n        /* \"#utility.yul\":6464:6494   */\n      swap1\n      pop\n        /* \"#utility.yul\":6503:6536   */\n      tag_316\n        /* \"#utility.yul\":6531:6535   */\n      dup3\n        /* \"#utility.yul\":6523:6529   */\n      dup3\n        /* \"#utility.yul\":6503:6536   */\n      tag_207\n      jump\t// in\n    tag_316:\n        /* \"#utility.yul\":6413:6542   */\n      swap2\n      swap1\n      pop\n      jump\t// out\n        /* \"#utility.yul\":6548:6856   */\n    tag_209:\n        /* \"#utility.yul\":6610:6614   */\n      0x00\n        /* \"#utility.yul\":6700:6718   */\n      0xffffffffffffffff\n        /* \"#utility.yul\":6692:6698   */\n      dup3\n        /* \"#utility.yul\":6689:6719   */\n      gt\n        /* \"#utility.yul\":6686:6742   */\n      iszero\n      tag_318\n      jumpi\n        /* \"#utility.yul\":6722:6740   */\n      tag_319\n      tag_206\n      jump\t// in\n    tag_319:\n        /* \"#utility.yul\":6686:6742   */\n    tag_318:\n        /* \"#utility.yul\":6760:6789   */\n      tag_320\n        /* \"#utility.yul\":6782:6788   */\n      dup3\n        /* \"#utility.yul\":6760:6789   */\n      tag_205\n      jump\t// in\n    tag_320:\n        /* \"#utility.yul\":6752:6789   */\n      swap1\n      pop\n        /* \"#utility.yul\":6844:6848   */\n      0x20\n        /* \"#utility.yul\":6838:6842   */\n      dup2\n        /* \"#utility.yul\":6834:6849   */\n      add\n        /* \"#utility.yul\":6826:6849   */\n      swap1\n      pop\n        /* \"#utility.yul\":6548:6856   */\n      swap2\n      swap1\n      pop\n      jump\t// out\n        /* \"#utility.yul\":6862:7016   */\n    tag_210:\n        /* \"#utility.yul\":6946:6952   */\n      dup3\n        /* \"#utility.yul\":6941:6944   */\n      dup2\n        /* \"#utility.yul\":6936:6939   */\n      dup4\n        /* \"#utility.yul\":6923:6953   */\n      calldatacopy\n        /* \"#utility.yul\":7008:7009   */\n      0x00\n        /* \"#utility.yul\":6999:7005   */\n      dup4\n        /* \"#utility.yul\":6994:6997   */\n      dup4\n        /* \"#utility.yul\":6990:7006   */\n      add\n        /* \"#utility.yul\":6983:7010   */\n      mstore\n        /* \"#utility.yul\":6862:7016   */\n      pop\n      pop\n      pop\n      jump\t// out\n        /* \"#utility.yul\":7022:7434   */\n    tag_211:\n        /* \"#utility.yul\":7100:7105   */\n      0x00\n        /* \"#utility.yul\":7125:7191   */\n      tag_323\n        /* \"#utility.yul\":7141:7190   */\n      tag_324\n        /* \"#utility.yul\":7183:7189   */\n      dup5\n        /* \"#utility.yul\":7141:7190   */\n      tag_209\n      jump\t// in\n    tag_324:\n        /* \"#utility.yul\":7125:7191   */\n      tag_208\n      jump\t// in\n    tag_323:\n        /* \"#utility.yul\":7116:7191   */\n      swap1\n      pop\n        /* \"#utility.yul\":7214:7220   */\n      dup3\n        /* \"#utility.yul\":7207:7212   */\n      dup2\n        /* \"#utility.yul\":7200:7221   */\n      mstore\n        /* \"#utility.yul\":7252:7256   */\n      0x20\n        /* \"#utility.yul\":7245:7250   */\n      dup2\n        /* \"#utility.yul\":7241:7257   */\n      add\n        /* \"#utility.yul\":7290:7293   */\n      dup5\n        /* \"#utility.yul\":7281:7287   */\n      dup5\n        /* \"#utility.yul\":7276:7279   */\n      dup5\n        /* \"#utility.yul\":7272:7288   */\n      add\n        /* \"#utility.yul\":7269:7294   */\n      gt\n        /* \"#utility.yul\":7266:7378   */\n      iszero\n      tag_325\n      jumpi\n        /* \"#utility.yul\":7297:7376   */\n      tag_326\n      tag_204\n      jump\t// in\n    tag_326:\n        /* \"#utility.yul\":7266:7378   */\n    tag_325:\n        /* \"#utility.yul\":7387:7428   */\n      tag_327\n        /* \"#utility.yul\":7421:7427   */\n      dup5\n        /* \"#utility.yul\":7416:7419   */\n      dup3\n        /* \"#utility.yul\":7411:7414   */\n      dup6\n        /* \"#utility.yul\":7387:7428   */\n      tag_210\n      jump\t// in\n    tag_327:\n        /* \"#utility.yul\":7106:7434   */\n      pop\n        /* \"#utility.yul\":7022:7434   */\n      swap4\n      swap3\n      pop\n      pop\n      pop\n      jump\t// out\n        /* \"#utility.yul\":7454:7794   */\n    tag_212:\n        /* \"#utility.yul\":7510:7515   */\n      0x00\n        /* \"#utility.yul\":7559:7562   */\n      dup3\n        /* \"#utility.yul\":7552:7556   */\n      0x1f\n        /* \"#utility.yul\":7544:7550   */\n      dup4\n        /* \"#utility.yul\":7540:7557   */\n      add\n        /* \"#utility.yul\":7536:7563   */\n      slt\n        /* \"#utility.yul\":7526:7648   */\n      tag_329\n      jumpi\n        /* \"#utility.yul\":7567:7646   */\n      tag_330\n      tag_203\n      jump\t// in\n    tag_330:\n        /* \"#utility.yul\":7526:7648   */\n    tag_329:\n        /* \"#utility.yul\":7684:7690   */\n      dup2\n        /* \"#utility.yul\":7671:7691   */\n      calldataload\n        /* \"#utility.yul\":7709:7788   */\n      tag_331\n        /* \"#utility.yul\":7784:7787   */\n      dup5\n        /* \"#utility.yul\":7776:7782   */\n      dup3\n        /* \"#utility.yul\":7769:7773   */\n      0x20\n        /* \"#utility.yul\":7761:7767   */\n      dup7\n        /* \"#utility.yul\":7757:7774   */\n      add\n        /* \"#utility.yul\":7709:7788   */\n      tag_211\n      jump\t// in\n    tag_331:\n        /* \"#utility.yul\":7700:7788   */\n      swap2\n      pop\n        /* \"#utility.yul\":7516:7794   */\n      pop\n        /* \"#utility.yul\":7454:7794   */\n      swap3\n      swap2\n      pop\n      pop\n      jump\t// out\n        /* \"#utility.yul\":7800:8309   */\n    tag_61:\n        /* \"#utility.yul\":7869:7875   */\n      0x00\n        /* \"#utility.yul\":7918:7920   */\n      0x20\n        /* \"#utility.yul\":7906:7915   */\n      dup3\n        /* \"#utility.yul\":7897:7904   */\n      dup5\n        /* \"#utility.yul\":7893:7916   */\n      sub\n        /* \"#utility.yul\":7889:7921   */\n      slt\n        /* \"#utility.yul\":7886:8005   */\n      iszero\n      tag_333\n      jumpi\n        /* \"#utility.yul\":7924:8003   */\n      tag_334\n      tag_187\n      jump\t// in\n    tag_334:\n        /* \"#utility.yul\":7886:8005   */\n    tag_333:\n        /* \"#utility.yul\":8072:8073   */\n      0x00\n        /* \"#utility.yul\":8061:8070   */\n      dup3\n        /* \"#utility.yul\":8057:8074   */\n      add\n        /* \"#utility.yul\":8044:8075   */\n      calldataload\n        /* \"#utility.yul\":8102:8120   */\n      0xffffffffffffffff\n        /* \"#utility.yul\":8094:8100   */\n      dup2\n        /* \"#utility.yul\":8091:8121   */\n      gt\n        /* \"#utility.yul\":8088:8205   */\n      iszero\n      tag_335\n      jumpi\n        /* \"#utility.yul\":8124:8203   */\n      tag_336\n      tag_188\n      jump\t// in\n    tag_336:\n        /* \"#utility.yul\":8088:8205   */\n    tag_335:\n        /* \"#utility.yul\":8229:8292   */\n      tag_337\n        /* \"#utility.yul\":8284:8291   */\n      dup5\n        /* \"#utility.yul\":8275:8281   */\n      dup3\n        /* \"#utility.yul\":8264:8273   */\n      dup6\n        /* \"#utility.yul\":8260:8282   */\n      add\n        /* \"#utility.yul\":8229:8292   */\n      tag_212\n      jump\t// in\n    tag_337:\n        /* \"#utility.yul\":8219:8292   */\n      swap2\n      pop\n        /* \"#utility.yul\":8015:8302   */\n      pop\n        /* \"#utility.yul\":7800:8309   */\n      swap3\n      swap2\n      pop\n      pop\n      jump\t// out\n        /* \"#utility.yul\":8315:8392   */\n    tag_213:\n        /* \"#utility.yul\":8352:8359   */\n      0x00\n        /* \"#utility.yul\":8381:8386   */\n      dup2\n        /* \"#utility.yul\":8370:8386   */\n      swap1\n      pop\n        /* \"#utility.yul\":8315:8392   */\n      swap2\n      swap1\n      pop\n      jump\t// out\n        /* \"#utility.yul\":8398:8516   */\n    tag_214:\n        /* \"#utility.yul\":8485:8509   */\n      tag_340\n        /* \"#utility.yul\":8503:8508   */\n      dup2\n        /* \"#utility.yul\":8485:8509   */\n      tag_213\n      jump\t// in\n    tag_340:\n        /* \"#utility.yul\":8480:8483   */\n      dup3\n        /* \"#utility.yul\":8473:8510   */\n      mstore\n        /* \"#utility.yul\":8398:8516   */\n      pop\n      pop\n      jump\t// out\n        /* \"#utility.yul\":8522:8621   */\n    tag_215:\n        /* \"#utility.yul\":8574:8580   */\n      0x00\n        /* \"#utility.yul\":8608:8613   */\n      dup2\n        /* \"#utility.yul\":8602:8614   */\n      mload\n        /* \"#utility.yul\":8592:8614   */\n      swap1\n      pop\n        /* \"#utility.yul\":8522:8621   */\n      swap2\n      swap1\n      pop\n      jump\t// out\n        /* \"#utility.yul\":8627:8796   */\n    tag_216:\n        /* \"#utility.yul\":8711:8722   */\n      0x00\n        /* \"#utility.yul\":8745:8751   */\n      dup3\n        /* \"#utility.yul\":8740:8743   */\n      dup3\n        /* \"#utility.yul\":8733:8752   */\n      mstore\n        /* \"#utility.yul\":8785:8789   */\n      0x20\n        /* \"#utility.yul\":8780:8783   */\n      dup3\n        /* \"#utility.yul\":8776:8790   */\n      add\n        /* \"#utility.yul\":8761:8790   */\n      swap1\n      pop\n        /* \"#utility.yul\":8627:8796   */\n      swap3\n      swap2\n      pop\n      pop\n      jump\t// out\n        /* \"#utility.yul\":8802:9109   */\n    tag_217:\n        /* \"#utility.yul\":8870:8871   */\n      0x00\n        /* \"#utility.yul\":8880:8993   */\n    tag_344:\n        /* \"#utility.yul\":8894:8900   */\n      dup4\n        /* \"#utility.yul\":8891:8892   */\n      dup2\n        /* \"#utility.yul\":8888:8901   */\n      lt\n        /* \"#utility.yul\":8880:8993   */\n      iszero\n      tag_346\n      jumpi\n        /* \"#utility.yul\":8979:8980   */\n      dup1\n        /* \"#utility.yul\":8974:8977   */\n      dup3\n        /* \"#utility.yul\":8970:8981   */\n      add\n        /* \"#utility.yul\":8964:8982   */\n      mload\n        /* \"#utility.yul\":8960:8961   */\n      dup2\n        /* \"#utility.yul\":8955:8958   */\n      dup5\n        /* \"#utility.yul\":8951:8962   */\n      add\n        /* \"#utility.yul\":8944:8983   */\n      mstore\n        /* \"#utility.yul\":8916:8918   */\n      0x20\n        /* \"#utility.yul\":8913:8914   */\n      dup2\n        /* \"#utility.yul\":8909:8919   */\n      add\n        /* \"#utility.yul\":8904:8919   */\n      swap1\n      pop\n        /* \"#utility.yul\":8880:8993   */\n      jump(tag_344)\n    tag_346:\n        /* \"#utility.yul\":9011:9017   */\n      dup4\n        /* \"#utility.yul\":9008:9009   */\n      dup2\n        /* \"#utility.yul\":9005:9018   */\n      gt\n        /* \"#utility.yul\":9002:9103   */\n      iszero\n      tag_347\n      jumpi\n        /* \"#utility.yul\":9091:9092   */\n      0x00\n        /* \"#utility.yul\":9082:9088   */\n      dup5\n        /* \"#utility.yul\":9077:9080   */\n      dup5\n        /* \"#utility.yul\":9073:9089   */\n      add\n        /* \"#utility.yul\":9066:9093   */\n      mstore\n        /* \"#utility.yul\":9002:9103   */\n    tag_347:\n        /* \"#utility.yul\":8851:9109   */\n      pop\n        /* \"#utility.yul\":8802:9109   */\n      pop\n      pop\n      pop\n      jump\t// out\n        /* \"#utility.yul\":9115:9479   */\n    tag_218:\n        /* \"#utility.yul\":9203:9206   */\n      0x00\n        /* \"#utility.yul\":9231:9270   */\n      tag_349\n        /* \"#utility.yul\":9264:9269   */\n      dup3\n        /* \"#utility.yul\":9231:9270   */\n      tag_215\n      jump\t// in\n    tag_349:\n        /* \"#utility.yul\":9286:9357   */\n      tag_350\n        /* \"#utility.yul\":9350:9356   */\n      dup2\n        /* \"#utility.yul\":9345:9348   */\n      dup6\n        /* \"#utility.yul\":9286:9357   */\n      tag_216\n      jump\t// in\n    tag_350:\n        /* \"#utility.yul\":9279:9357   */\n      swap4\n      pop\n        /* \"#utility.yul\":9366:9418   */\n      tag_351\n        /* \"#utility.yul\":9411:9417   */\n      dup2\n        /* \"#utility.yul\":9406:9409   */\n      dup6\n        /* \"#utility.yul\":9399:9403   */\n      0x20\n        /* \"#utility.yul\":9392:9397   */\n      dup7\n        /* \"#utility.yul\":9388:9404   */\n      add\n        /* \"#utility.yul\":9366:9418   */\n      tag_217\n      jump\t// in\n    tag_351:\n        /* \"#utility.yul\":9443:9472   */\n      tag_352\n        /* \"#utility.yul\":9465:9471   */\n      dup2\n        /* \"#utility.yul\":9443:9472   */\n      tag_205\n      jump\t// in\n    tag_352:\n        /* \"#utility.yul\":9438:9441   */\n      dup5\n        /* \"#utility.yul\":9434:9473   */\n      add\n        /* \"#utility.yul\":9427:9473   */\n      swap2\n      pop\n        /* \"#utility.yul\":9207:9479   */\n      pop\n        /* \"#utility.yul\":9115:9479   */\n      swap3\n      swap2\n      pop\n      pop\n      jump\t// out\n        /* \"#utility.yul\":9485:9575   */\n    tag_219:\n        /* \"#utility.yul\":9519:9526   */\n      0x00\n        /* \"#utility.yul\":9562:9567   */\n      dup2\n        /* \"#utility.yul\":9555:9568   */\n      iszero\n        /* \"#utility.yul\":9548:9569   */\n      iszero\n        /* \"#utility.yul\":9537:9569   */\n      swap1\n      pop\n        /* \"#utility.yul\":9485:9575   */\n      swap2\n      swap1\n      pop\n      jump\t// out\n        /* \"#utility.yul\":9581:9690   */\n    tag_220:\n        /* \"#utility.yul\":9662:9683   */\n      tag_355\n        /* \"#utility.yul\":9677:9682   */\n      dup2\n        /* \"#utility.yul\":9662:9683   */\n      tag_219\n      jump\t// in\n    tag_355:\n        /* \"#utility.yul\":9657:9660   */\n      dup3\n        /* \"#utility.yul\":9650:9684   */\n      mstore\n        /* \"#utility.yul\":9581:9690   */\n      pop\n      pop\n      jump\t// out\n        /* \"#utility.yul\":9696:10217   */\n    tag_67:\n        /* \"#utility.yul\":9859:9863   */\n      0x00\n        /* \"#utility.yul\":9897:9899   */\n      0x60\n        /* \"#utility.yul\":9886:9895   */\n      dup3\n        /* \"#utility.yul\":9882:9900   */\n      add\n        /* \"#utility.yul\":9874:9900   */\n      swap1\n      pop\n        /* \"#utility.yul\":9910:9981   */\n      tag_357\n        /* \"#utility.yul\":9978:9979   */\n      0x00\n        /* \"#utility.yul\":9967:9976   */\n      dup4\n        /* \"#utility.yul\":9963:9980   */\n      add\n        /* \"#utility.yul\":9954:9960   */\n      dup7\n        /* \"#utility.yul\":9910:9981   */\n      tag_214\n      jump\t// in\n    tag_357:\n        /* \"#utility.yul\":10028:10037   */\n      dup2\n        /* \"#utility.yul\":10022:10026   */\n      dup2\n        /* \"#utility.yul\":10018:10038   */\n      sub\n        /* \"#utility.yul\":10013:10015   */\n      0x20\n        /* \"#utility.yul\":10002:10011   */\n      dup4\n        /* \"#utility.yul\":9998:10016   */\n      add\n        /* \"#utility.yul\":9991:10039   */\n      mstore\n        /* \"#utility.yul\":10056:10134   */\n      tag_358\n        /* \"#utility.yul\":10129:10133   */\n      dup2\n        /* \"#utility.yul\":10120:10126   */\n      dup6\n        /* \"#utility.yul\":10056:10134   */\n      tag_218\n      jump\t// in\n    tag_358:\n        /* \"#utility.yul\":10048:10134   */\n      swap1\n      pop\n        /* \"#utility.yul\":10144:10210   */\n      tag_359\n        /* \"#utility.yul\":10206:10208   */\n      0x40\n        /* \"#utility.yul\":10195:10204   */\n      dup4\n        /* \"#utility.yul\":10191:10209   */\n      add\n        /* \"#utility.yul\":10182:10188   */\n      dup5\n        /* \"#utility.yul\":10144:10210   */\n      tag_220\n      jump\t// in\n    tag_359:\n        /* \"#utility.yul\":9696:10217   */\n      swap5\n      swap4\n      pop\n      pop\n      pop\n      pop\n      jump\t// out\n        /* \"#utility.yul\":10223:10405   */\n    tag_221:\n        /* \"#utility.yul\":10363:10397   */\n      0x4f776e61626c653a2063616c6c6572206973206e6f7420746865206f776e6572\n        /* \"#utility.yul\":10359:10360   */\n      0x00\n        /* \"#utility.yul\":10351:10357   */\n      dup3\n        /* \"#utility.yul\":10347:10361   */\n      add\n        /* \"#utility.yul\":10340:10398   */\n      mstore\n        /* \"#utility.yul\":10223:10405   */\n      pop\n      jump\t// out\n        /* \"#utility.yul\":10411:10777   */\n    tag_222:\n        /* \"#utility.yul\":10553:10556   */\n      0x00\n        /* \"#utility.yul\":10574:10641   */\n      tag_362\n        /* \"#utility.yul\":10638:10640   */\n      0x20\n        /* \"#utility.yul\":10633:10636   */\n      dup4\n        /* \"#utility.yul\":10574:10641   */\n      tag_216\n      jump\t// in\n    tag_362:\n        /* \"#utility.yul\":10567:10641   */\n      swap2\n      pop\n        /* \"#utility.yul\":10650:10743   */\n      tag_363\n        /* \"#utility.yul\":10739:10742   */\n      dup3\n        /* \"#utility.yul\":10650:10743   */\n      tag_221\n      jump\t// in\n    tag_363:\n        /* \"#utility.yul\":10768:10770   */\n      0x20\n        /* \"#utility.yul\":10763:10766   */\n      dup3\n        /* \"#utility.yul\":10759:10771   */\n      add\n        /* \"#utility.yul\":10752:10771   */\n      swap1\n      pop\n        /* \"#utility.yul\":10411:10777   */\n      swap2\n      swap1\n      pop\n      jump\t// out\n        /* \"#utility.yul\":10783:11202   */\n    tag_80:\n        /* \"#utility.yul\":10949:10953   */\n      0x00\n        /* \"#utility.yul\":10987:10989   */\n      0x20\n        /* \"#utility.yul\":10976:10985   */\n      dup3\n        /* \"#utility.yul\":10972:10990   */\n      add\n        /* \"#utility.yul\":10964:10990   */\n      swap1\n      pop\n        /* \"#utility.yul\":11036:11045   */\n      dup2\n        /* \"#utility.yul\":11030:11034   */\n      dup2\n        /* \"#utility.yul\":11026:11046   */\n      sub\n        /* \"#utility.yul\":11022:11023   */\n      0x00\n        /* \"#utility.yul\":11011:11020   */\n      dup4\n        /* \"#utility.yul\":11007:11024   */\n      add\n        /* \"#utility.yul\":11000:11047   */\n      mstore\n        /* \"#utility.yul\":11064:11195   */\n      tag_365\n        /* \"#utility.yul\":11190:11194   */\n      dup2\n        /* \"#utility.yul\":11064:11195   */\n      tag_222\n      jump\t// in\n    tag_365:\n        /* \"#utility.yul\":11056:11195   */\n      swap1\n      pop\n        /* \"#utility.yul\":10783:11202   */\n      swap2\n      swap1\n      pop\n      jump\t// out\n        /* \"#utility.yul\":11208:11356   */\n    tag_223:\n        /* \"#utility.yul\":11310:11321   */\n      0x00\n        /* \"#utility.yul\":11347:11350   */\n      dup2\n        /* \"#utility.yul\":11332:11350   */\n      swap1\n      pop\n        /* \"#utility.yul\":11208:11356   */\n      swap3\n      swap2\n      pop\n      pop\n      jump\t// out\n        /* \"#utility.yul\":11362:11518   */\n    tag_224:\n        /* \"#utility.yul\":11502:11510   */\n      0x42524f4e5a450000000000000000000000000000000000000000000000000000\n        /* \"#utility.yul\":11498:11499   */\n      0x00\n        /* \"#utility.yul\":11490:11496   */\n      dup3\n        /* \"#utility.yul\":11486:11500   */\n      add\n        /* \"#utility.yul\":11479:11511   */\n      mstore\n        /* \"#utility.yul\":11362:11518   */\n      pop\n      jump\t// out\n        /* \"#utility.yul\":11524:11924   */\n    tag_225:\n        /* \"#utility.yul\":11684:11687   */\n      0x00\n        /* \"#utility.yul\":11705:11789   */\n      tag_369\n        /* \"#utility.yul\":11787:11788   */\n      0x06\n        /* \"#utility.yul\":11782:11785   */\n      dup4\n        /* \"#utility.yul\":11705:11789   */\n      tag_223\n      jump\t// in\n    tag_369:\n        /* \"#utility.yul\":11698:11789   */\n      swap2\n      pop\n        /* \"#utility.yul\":11798:11891   */\n      tag_370\n        /* \"#utility.yul\":11887:11890   */\n      dup3\n        /* \"#utility.yul\":11798:11891   */\n      tag_224\n      jump\t// in\n    tag_370:\n        /* \"#utility.yul\":11916:11917   */\n      0x06\n        /* \"#utility.yul\":11911:11914   */\n      dup3\n        /* \"#utility.yul\":11907:11918   */\n      add\n        /* \"#utility.yul\":11900:11918   */\n      swap1\n      pop\n        /* \"#utility.yul\":11524:11924   */\n      swap2\n      swap1\n      pop\n      jump\t// out\n        /* \"#utility.yul\":11930:12311   */\n    tag_93:\n        /* \"#utility.yul\":12115:12118   */\n      0x00\n        /* \"#utility.yul\":12137:12285   */\n      tag_372\n        /* \"#utility.yul\":12281:12284   */\n      dup3\n        /* \"#utility.yul\":12137:12285   */\n      tag_225\n      jump\t// in\n    tag_372:\n        /* \"#utility.yul\":12130:12285   */\n      swap2\n      pop\n        /* \"#utility.yul\":12302:12305   */\n      dup2\n        /* \"#utility.yul\":12295:12305   */\n      swap1\n      pop\n        /* \"#utility.yul\":11930:12311   */\n      swap2\n      swap1\n      pop\n      jump\t// out\n        /* \"#utility.yul\":12317:12694   */\n    tag_226:\n        /* \"#utility.yul\":12423:12426   */\n      0x00\n        /* \"#utility.yul\":12451:12490   */\n      tag_374\n        /* \"#utility.yul\":12484:12489   */\n      dup3\n        /* \"#utility.yul\":12451:12490   */\n      tag_215\n      jump\t// in\n    tag_374:\n        /* \"#utility.yul\":12506:12595   */\n      tag_375\n        /* \"#utility.yul\":12588:12594   */\n      dup2\n        /* \"#utility.yul\":12583:12586   */\n      dup6\n        /* \"#utility.yul\":12506:12595   */\n      tag_223\n      jump\t// in\n    tag_375:\n        /* \"#utility.yul\":12499:12595   */\n      swap4\n      pop\n        /* \"#utility.yul\":12604:12656   */\n      tag_376\n        /* \"#utility.yul\":12649:12655   */\n      dup2\n        /* \"#utility.yul\":12644:12647   */\n      dup6\n        /* \"#utility.yul\":12637:12641   */\n      0x20\n        /* \"#utility.yul\":12630:12635   */\n      dup7\n        /* \"#utility.yul\":12626:12642   */\n      add\n        /* \"#utility.yul\":12604:12656   */\n      tag_217\n      jump\t// in\n    tag_376:\n        /* \"#utility.yul\":12681:12687   */\n      dup1\n        /* \"#utility.yul\":12676:12679   */\n      dup5\n        /* \"#utility.yul\":12672:12688   */\n      add\n        /* \"#utility.yul\":12665:12688   */\n      swap2\n      pop\n        /* \"#utility.yul\":12427:12694   */\n      pop\n        /* \"#utility.yul\":12317:12694   */\n      swap3\n      swap2\n      pop\n      pop\n      jump\t// out\n        /* \"#utility.yul\":12700:12975   */\n    tag_95:\n        /* \"#utility.yul\":12832:12835   */\n      0x00\n        /* \"#utility.yul\":12854:12949   */\n      tag_378\n        /* \"#utility.yul\":12945:12948   */\n      dup3\n        /* \"#utility.yul\":12936:12942   */\n      dup5\n        /* \"#utility.yul\":12854:12949   */\n      tag_226\n      jump\t// in\n    tag_378:\n        /* \"#utility.yul\":12847:12949   */\n      swap2\n      pop\n        /* \"#utility.yul\":12966:12969   */\n      dup2\n        /* \"#utility.yul\":12959:12969   */\n      swap1\n      pop\n        /* \"#utility.yul\":12700:12975   */\n      swap3\n      swap2\n      pop\n      pop\n      jump\t// out\n        /* \"#utility.yul\":12981:13137   */\n    tag_227:\n        /* \"#utility.yul\":13121:13129   */\n      0x53494c5645520000000000000000000000000000000000000000000000000000\n        /* \"#utility.yul\":13117:13118   */\n      0x00\n        /* \"#utility.yul\":13109:13115   */\n      dup3\n        /* \"#utility.yul\":13105:13119   */\n      add\n        /* \"#utility.yul\":13098:13130   */\n      mstore\n        /* \"#utility.yul\":12981:13137   */\n      pop\n      jump\t// out\n        /* \"#utility.yul\":13143:13543   */\n    tag_228:\n        /* \"#utility.yul\":13303:13306   */\n      0x00\n        /* \"#utility.yul\":13324:13408   */\n      tag_381\n        /* \"#utility.yul\":13406:13407   */\n      0x06\n        /* \"#utility.yul\":13401:13404   */\n      dup4\n        /* \"#utility.yul\":13324:13408   */\n      tag_223\n      jump\t// in\n    tag_381:\n        /* \"#utility.yul\":13317:13408   */\n      swap2\n      pop\n        /* \"#utility.yul\":13417:13510   */\n      tag_382\n        /* \"#utility.yul\":13506:13509   */\n      dup3\n        /* \"#utility.yul\":13417:13510   */\n      tag_227\n      jump\t// in\n    tag_382:\n        /* \"#utility.yul\":13535:13536   */\n      0x06\n        /* \"#utility.yul\":13530:13533   */\n      dup3\n        /* \"#utility.yul\":13526:13537   */\n      add\n        /* \"#utility.yul\":13519:13537   */\n      swap1\n      pop\n        /* \"#utility.yul\":13143:13543   */\n      swap2\n      swap1\n      pop\n      jump\t// out\n        /* \"#utility.yul\":13549:13930   */\n    tag_98:\n        /* \"#utility.yul\":13734:13737   */\n      0x00\n        /* \"#utility.yul\":13756:13904   */\n      tag_384\n        /* \"#utility.yul\":13900:13903   */\n      dup3\n        /* \"#utility.yul\":13756:13904   */\n      tag_228\n      jump\t// in\n    tag_384:\n        /* \"#utility.yul\":13749:13904   */\n      swap2\n      pop\n        /* \"#utility.yul\":13921:13924   */\n      dup2\n        /* \"#utility.yul\":13914:13924   */\n      swap1\n      pop\n        /* \"#utility.yul\":13549:13930   */\n      swap2\n      swap1\n      pop\n      jump\t// out\n        /* \"#utility.yul\":13936:14090   */\n    tag_229:\n        /* \"#utility.yul\":14076:14082   */\n      0x474f4c4400000000000000000000000000000000000000000000000000000000\n        /* \"#utility.yul\":14072:14073   */\n      0x00\n        /* \"#utility.yul\":14064:14070   */\n      dup3\n        /* \"#utility.yul\":14060:14074   */\n      add\n        /* \"#utility.yul\":14053:14083   */\n      mstore\n        /* \"#utility.yul\":13936:14090   */\n      pop\n      jump\t// out\n        /* \"#utility.yul\":14096:14496   */\n    tag_230:\n        /* \"#utility.yul\":14256:14259   */\n      0x00\n        /* \"#utility.yul\":14277:14361   */\n      tag_387\n        /* \"#utility.yul\":14359:14360   */\n      0x04\n        /* \"#utility.yul\":14354:14357   */\n      dup4\n        /* \"#utility.yul\":14277:14361   */\n      tag_223\n      jump\t// in\n    tag_387:\n        /* \"#utility.yul\":14270:14361   */\n      swap2\n      pop\n        /* \"#utility.yul\":14370:14463   */\n      tag_388\n        /* \"#utility.yul\":14459:14462   */\n      dup3\n        /* \"#utility.yul\":14370:14463   */\n      tag_229\n      jump\t// in\n    tag_388:\n        /* \"#utility.yul\":14488:14489   */\n      0x04\n        /* \"#utility.yul\":14483:14486   */\n      dup3\n        /* \"#utility.yul\":14479:14490   */\n      add\n        /* \"#utility.yul\":14472:14490   */\n      swap1\n      pop\n        /* \"#utility.yul\":14096:14496   */\n      swap2\n      swap1\n      pop\n      jump\t// out\n        /* \"#utility.yul\":14502:14883   */\n    tag_102:\n        /* \"#utility.yul\":14687:14690   */\n      0x00\n        /* \"#utility.yul\":14709:14857   */\n      tag_390\n        /* \"#utility.yul\":14853:14856   */\n      dup3\n        /* \"#utility.yul\":14709:14857   */\n      tag_230\n      jump\t// in\n    tag_390:\n        /* \"#utility.yul\":14702:14857   */\n      swap2\n      pop\n        /* \"#utility.yul\":14874:14877   */\n      dup2\n        /* \"#utility.yul\":14867:14877   */\n      swap1\n      pop\n        /* \"#utility.yul\":14502:14883   */\n      swap2\n      swap1\n      pop\n      jump\t// out\n        /* \"#utility.yul\":14889:15331   */\n    tag_110:\n        /* \"#utility.yul\":15038:15042   */\n      0x00\n        /* \"#utility.yul\":15076:15078   */\n      0x60\n        /* \"#utility.yul\":15065:15074   */\n      dup3\n        /* \"#utility.yul\":15061:15079   */\n      add\n        /* \"#utility.yul\":15053:15079   */\n      swap1\n      pop\n        /* \"#utility.yul\":15089:15160   */\n      tag_392\n        /* \"#utility.yul\":15157:15158   */\n      0x00\n        /* \"#utility.yul\":15146:15155   */\n      dup4\n        /* \"#utility.yul\":15142:15159   */\n      add\n        /* \"#utility.yul\":15133:15139   */\n      dup7\n        /* \"#utility.yul\":15089:15160   */\n      tag_193\n      jump\t// in\n    tag_392:\n        /* \"#utility.yul\":15170:15242   */\n      tag_393\n        /* \"#utility.yul\":15238:15240   */\n      0x20\n        /* \"#utility.yul\":15227:15236   */\n      dup4\n        /* \"#utility.yul\":15223:15241   */\n      add\n        /* \"#utility.yul\":15214:15220   */\n      dup6\n        /* \"#utility.yul\":15170:15242   */\n      tag_193\n      jump\t// in\n    tag_393:\n        /* \"#utility.yul\":15252:15324   */\n      tag_394\n        /* \"#utility.yul\":15320:15322   */\n      0x40\n        /* \"#utility.yul\":15309:15318   */\n      dup4\n        /* \"#utility.yul\":15305:15323   */\n      add\n        /* \"#utility.yul\":15296:15302   */\n      dup5\n        /* \"#utility.yul\":15252:15324   */\n      tag_200\n      jump\t// in\n    tag_394:\n        /* \"#utility.yul\":14889:15331   */\n      swap5\n      swap4\n      pop\n      pop\n      pop\n      pop\n      jump\t// out\n        /* \"#utility.yul\":15337:15453   */\n    tag_231:\n        /* \"#utility.yul\":15407:15428   */\n      tag_396\n        /* \"#utility.yul\":15422:15427   */\n      dup2\n        /* \"#utility.yul\":15407:15428   */\n      tag_219\n      jump\t// in\n    tag_396:\n        /* \"#utility.yul\":15400:15405   */\n      dup2\n        /* \"#utility.yul\":15397:15429   */\n      eq\n        /* \"#utility.yul\":15387:15447   */\n      tag_397\n      jumpi\n        /* \"#utility.yul\":15443:15444   */\n      0x00\n        /* \"#utility.yul\":15440:15441   */\n      dup1\n        /* \"#utility.yul\":15433:15445   */\n      revert\n        /* \"#utility.yul\":15387:15447   */\n    tag_397:\n        /* \"#utility.yul\":15337:15453   */\n      pop\n      jump\t// out\n        /* \"#utility.yul\":15459:15596   */\n    tag_232:\n        /* \"#utility.yul\":15513:15518   */\n      0x00\n        /* \"#utility.yul\":15544:15550   */\n      dup2\n        /* \"#utility.yul\":15538:15551   */\n      mload\n        /* \"#utility.yul\":15529:15551   */\n      swap1\n      pop\n        /* \"#utility.yul\":15560:15590   */\n      tag_399\n        /* \"#utility.yul\":15584:15589   */\n      dup2\n        /* \"#utility.yul\":15560:15590   */\n      tag_231\n      jump\t// in\n    tag_399:\n        /* \"#utility.yul\":15459:15596   */\n      swap3\n      swap2\n      pop\n      pop\n      jump\t// out\n        /* \"#utility.yul\":15602:15947   */\n    tag_114:\n        /* \"#utility.yul\":15669:15675   */\n      0x00\n        /* \"#utility.yul\":15718:15720   */\n      0x20\n        /* \"#utility.yul\":15706:15715   */\n      dup3\n        /* \"#utility.yul\":15697:15704   */\n      dup5\n        /* \"#utility.yul\":15693:15716   */\n      sub\n        /* \"#utility.yul\":15689:15721   */\n      slt\n        /* \"#utility.yul\":15686:15805   */\n      iszero\n      tag_401\n      jumpi\n        /* \"#utility.yul\":15724:15803   */\n      tag_402\n      tag_187\n      jump\t// in\n    tag_402:\n        /* \"#utility.yul\":15686:15805   */\n    tag_401:\n        /* \"#utility.yul\":15844:15845   */\n      0x00\n        /* \"#utility.yul\":15869:15930   */\n      tag_403\n        /* \"#utility.yul\":15922:15929   */\n      dup5\n        /* \"#utility.yul\":15913:15919   */\n      dup3\n        /* \"#utility.yul\":15902:15911   */\n      dup6\n        /* \"#utility.yul\":15898:15920   */\n      add\n        /* \"#utility.yul\":15869:15930   */\n      tag_232\n      jump\t// in\n    tag_403:\n        /* \"#utility.yul\":15859:15930   */\n      swap2\n      pop\n        /* \"#utility.yul\":15815:15940   */\n      pop\n        /* \"#utility.yul\":15602:15947   */\n      swap3\n      swap2\n      pop\n      pop\n      jump\t// out\n        /* \"#utility.yul\":15953:16266   */\n    tag_116:\n        /* \"#utility.yul\":16066:16070   */\n      0x00\n        /* \"#utility.yul\":16104:16106   */\n      0x20\n        /* \"#utility.yul\":16093:16102   */\n      dup3\n        /* \"#utility.yul\":16089:16107   */\n      add\n        /* \"#utility.yul\":16081:16107   */\n      swap1\n      pop\n        /* \"#utility.yul\":16153:16162   */\n      dup2\n        /* \"#utility.yul\":16147:16151   */\n      dup2\n        /* \"#utility.yul\":16143:16163   */\n      sub\n        /* \"#utility.yul\":16139:16140   */\n      0x00\n        /* \"#utility.yul\":16128:16137   */\n      dup4\n        /* \"#utility.yul\":16124:16141   */\n      add\n        /* \"#utility.yul\":16117:16164   */\n      mstore\n        /* \"#utility.yul\":16181:16259   */\n      tag_405\n        /* \"#utility.yul\":16254:16258   */\n      dup2\n        /* \"#utility.yul\":16245:16251   */\n      dup5\n        /* \"#utility.yul\":16181:16259   */\n      tag_218\n      jump\t// in\n    tag_405:\n        /* \"#utility.yul\":16173:16259   */\n      swap1\n      pop\n        /* \"#utility.yul\":15953:16266   */\n      swap3\n      swap2\n      pop\n      pop\n      jump\t// out\n        /* \"#utility.yul\":16272:16415   */\n    tag_233:\n        /* \"#utility.yul\":16329:16334   */\n      0x00\n        /* \"#utility.yul\":16360:16366   */\n      dup2\n        /* \"#utility.yul\":16354:16367   */\n      mload\n        /* \"#utility.yul\":16345:16367   */\n      swap1\n      pop\n        /* \"#utility.yul\":16376:16409   */\n      tag_407\n        /* \"#utility.yul\":16403:16408   */\n      dup2\n        /* \"#utility.yul\":16376:16409   */\n      tag_190\n      jump\t// in\n    tag_407:\n        /* \"#utility.yul\":16272:16415   */\n      swap3\n      swap2\n      pop\n      pop\n      jump\t// out\n        /* \"#utility.yul\":16421:16772   */\n    tag_120:\n        /* \"#utility.yul\":16491:16497   */\n      0x00\n        /* \"#utility.yul\":16540:16542   */\n      0x20\n        /* \"#utility.yul\":16528:16537   */\n      dup3\n        /* \"#utility.yul\":16519:16526   */\n      dup5\n        /* \"#utility.yul\":16515:16538   */\n      sub\n        /* \"#utility.yul\":16511:16543   */\n      slt\n        /* \"#utility.yul\":16508:16627   */\n      iszero\n      tag_409\n      jumpi\n        /* \"#utility.yul\":16546:16625   */\n      tag_410\n      tag_187\n      jump\t// in\n    tag_410:\n        /* \"#utility.yul\":16508:16627   */\n    tag_409:\n        /* \"#utility.yul\":16666:16667   */\n      0x00\n        /* \"#utility.yul\":16691:16755   */\n      tag_411\n        /* \"#utility.yul\":16747:16754   */\n      dup5\n        /* \"#utility.yul\":16738:16744   */\n      dup3\n        /* \"#utility.yul\":16727:16736   */\n      dup6\n        /* \"#utility.yul\":16723:16745   */\n      add\n        /* \"#utility.yul\":16691:16755   */\n      tag_233\n      jump\t// in\n    tag_411:\n        /* \"#utility.yul\":16681:16755   */\n      swap2\n      pop\n        /* \"#utility.yul\":16637:16765   */\n      pop\n        /* \"#utility.yul\":16421:16772   */\n      swap3\n      swap2\n      pop\n      pop\n      jump\t// out\n        /* \"#utility.yul\":16778:17201   */\n    tag_161:\n        /* \"#utility.yul\":16919:16923   */\n      0x00\n        /* \"#utility.yul\":16957:16959   */\n      0x40\n        /* \"#utility.yul\":16946:16955   */\n      dup3\n        /* \"#utility.yul\":16942:16960   */\n      add\n        /* \"#utility.yul\":16934:16960   */\n      swap1\n      pop\n        /* \"#utility.yul\":16970:17041   */\n      tag_413\n        /* \"#utility.yul\":17038:17039   */\n      0x00\n        /* \"#utility.yul\":17027:17036   */\n      dup4\n        /* \"#utility.yul\":17023:17040   */\n      add\n        /* \"#utility.yul\":17014:17020   */\n      dup6\n        /* \"#utility.yul\":16970:17041   */\n      tag_200\n      jump\t// in\n    tag_413:\n        /* \"#utility.yul\":17088:17097   */\n      dup2\n        /* \"#utility.yul\":17082:17086   */\n      dup2\n        /* \"#utility.yul\":17078:17098   */\n      sub\n        /* \"#utility.yul\":17073:17075   */\n      0x20\n        /* \"#utility.yul\":17062:17071   */\n      dup4\n        /* \"#utility.yul\":17058:17076   */\n      add\n        /* \"#utility.yul\":17051:17099   */\n      mstore\n        /* \"#utility.yul\":17116:17194   */\n      tag_414\n        /* \"#utility.yul\":17189:17193   */\n      dup2\n        /* \"#utility.yul\":17180:17186   */\n      dup5\n        /* \"#utility.yul\":17116:17194   */\n      tag_218\n      jump\t// in\n    tag_414:\n        /* \"#utility.yul\":17108:17194   */\n      swap1\n      pop\n        /* \"#utility.yul\":16778:17201   */\n      swap4\n      swap3\n      pop\n      pop\n      pop\n      jump\t// out\n        /* \"#utility.yul\":17207:17387   */\n    tag_234:\n        /* \"#utility.yul\":17255:17332   */\n      0x4e487b7100000000000000000000000000000000000000000000000000000000\n        /* \"#utility.yul\":17252:17253   */\n      0x00\n        /* \"#utility.yul\":17245:17333   */\n      mstore\n        /* \"#utility.yul\":17352:17356   */\n      0x22\n        /* \"#utility.yul\":17349:17350   */\n      0x04\n        /* \"#utility.yul\":17342:17357   */\n      mstore\n        /* \"#utility.yul\":17376:17380   */\n      0x24\n        /* \"#utility.yul\":17373:17374   */\n      0x00\n        /* \"#utility.yul\":17366:17381   */\n      revert\n        /* \"#utility.yul\":17393:17713   */\n    tag_163:\n        /* \"#utility.yul\":17437:17443   */\n      0x00\n        /* \"#utility.yul\":17474:17475   */\n      0x02\n        /* \"#utility.yul\":17468:17472   */\n      dup3\n        /* \"#utility.yul\":17464:17476   */\n      div\n        /* \"#utility.yul\":17454:17476   */\n      swap1\n      pop\n        /* \"#utility.yul\":17521:17522   */\n      0x01\n        /* \"#utility.yul\":17515:17519   */\n      dup3\n        /* \"#utility.yul\":17511:17523   */\n      and\n        /* \"#utility.yul\":17542:17560   */\n      dup1\n        /* \"#utility.yul\":17532:17613   */\n      tag_417\n      jumpi\n        /* \"#utility.yul\":17598:17602   */\n      0x7f\n        /* \"#utility.yul\":17590:17596   */\n      dup3\n        /* \"#utility.yul\":17586:17603   */\n      and\n        /* \"#utility.yul\":17576:17603   */\n      swap2\n      pop\n        /* \"#utility.yul\":17532:17613   */\n    tag_417:\n        /* \"#utility.yul\":17660:17662   */\n      0x20\n        /* \"#utility.yul\":17652:17658   */\n      dup3\n        /* \"#utility.yul\":17649:17663   */\n      lt\n        /* \"#utility.yul\":17629:17647   */\n      dup2\n        /* \"#utility.yul\":17626:17664   */\n      sub\n        /* \"#utility.yul\":17623:17707   */\n      tag_418\n      jumpi\n        /* \"#utility.yul\":17679:17697   */\n      tag_419\n      tag_234\n      jump\t// in\n    tag_419:\n        /* \"#utility.yul\":17623:17707   */\n    tag_418:\n        /* \"#utility.yul\":17444:17713   */\n      pop\n        /* \"#utility.yul\":17393:17713   */\n      swap2\n      swap1\n      pop\n      jump\t// out\n        /* \"#utility.yul\":17719:17944   */\n    tag_235:\n        /* \"#utility.yul\":17859:17893   */\n      0x4f776e61626c653a206e6577206f776e657220697320746865207a65726f2061\n        /* \"#utility.yul\":17855:17856   */\n      0x00\n        /* \"#utility.yul\":17847:17853   */\n      dup3\n        /* \"#utility.yul\":17843:17857   */\n      add\n        /* \"#utility.yul\":17836:17894   */\n      mstore\n        /* \"#utility.yul\":17928:17936   */\n      0x6464726573730000000000000000000000000000000000000000000000000000\n        /* \"#utility.yul\":17923:17925   */\n      0x20\n        /* \"#utility.yul\":17915:17921   */\n      dup3\n        /* \"#utility.yul\":17911:17926   */\n      add\n        /* \"#utility.yul\":17904:17937   */\n      mstore\n        /* \"#utility.yul\":17719:17944   */\n      pop\n      jump\t// out\n        /* \"#utility.yul\":17950:18316   */\n    tag_236:\n        /* \"#utility.yul\":18092:18095   */\n      0x00\n        /* \"#utility.yul\":18113:18180   */\n      tag_422\n        /* \"#utility.yul\":18177:18179   */\n      0x26\n        /* \"#utility.yul\":18172:18175   */\n      dup4\n        /* \"#utility.yul\":18113:18180   */\n      tag_216\n      jump\t// in\n    tag_422:\n        /* \"#utility.yul\":18106:18180   */\n      swap2\n      pop\n        /* \"#utility.yul\":18189:18282   */\n      tag_423\n        /* \"#utility.yul\":18278:18281   */\n      dup3\n        /* \"#utility.yul\":18189:18282   */\n      tag_235\n      jump\t// in\n    tag_423:\n        /* \"#utility.yul\":18307:18309   */\n      0x40\n        /* \"#utility.yul\":18302:18305   */\n      dup3\n        /* \"#utility.yul\":18298:18310   */\n      add\n        /* \"#utility.yul\":18291:18310   */\n      swap1\n      pop\n        /* \"#utility.yul\":17950:18316   */\n      swap2\n      swap1\n      pop\n      jump\t// out\n        /* \"#utility.yul\":18322:18741   */\n    tag_176:\n        /* \"#utility.yul\":18488:18492   */\n      0x00\n        /* \"#utility.yul\":18526:18528   */\n      0x20\n        /* \"#utility.yul\":18515:18524   */\n      dup3\n        /* \"#utility.yul\":18511:18529   */\n      add\n        /* \"#utility.yul\":18503:18529   */\n      swap1\n      pop\n        /* \"#utility.yul\":18575:18584   */\n      dup2\n        /* \"#utility.yul\":18569:18573   */\n      dup2\n        /* \"#utility.yul\":18565:18585   */\n      sub\n        /* \"#utility.yul\":18561:18562   */\n      0x00\n        /* \"#utility.yul\":18550:18559   */\n      dup4\n        /* \"#utility.yul\":18546:18563   */\n      add\n        /* \"#utility.yul\":18539:18586   */\n      mstore\n        /* \"#utility.yul\":18603:18734   */\n      tag_425\n        /* \"#utility.yul\":18729:18733   */\n      dup2\n        /* \"#utility.yul\":18603:18734   */\n      tag_236\n      jump\t// in\n    tag_425:\n        /* \"#utility.yul\":18595:18734   */\n      swap1\n      pop\n        /* \"#utility.yul\":18322:18741   */\n      swap2\n      swap1\n      pop\n      jump\t// out\n\n    auxdata: 0xa264697066735822122009e18a9d08ea63ff185e15f794c10c29a6af998153f7c2eac38d4fe5054f829064736f6c634300080d0033\n}\n",
				"bytecode": {
					"linkReferences": {},
					"object": "60806040523480156200001157600080fd5b5060405162001dad38038062001dad8339818101604052810190620000379190620002ba565b620000576200004b6200018260201b60201c565b6200018a60201b60201c565b600073ffffffffffffffffffffffffffffffffffffffff168173ffffffffffffffffffffffffffffffffffffffff1603620000c9576040517f08c379a0000000000000000000000000000000000000000000000000000000008152600401620000c0906200034d565b60405180910390fd5b80600960006101000a81548173ffffffffffffffffffffffffffffffffffffffff021916908373ffffffffffffffffffffffffffffffffffffffff16021790555080600560006101000a81548173ffffffffffffffffffffffffffffffffffffffff021916908373ffffffffffffffffffffffffffffffffffffffff160217905550681b1ae4d6e2ef500000600681905550683635c9adc5dea00000600781905550685150ae84a8cdf00000600881905550506200036f565b600033905090565b6000600460009054906101000a900473ffffffffffffffffffffffffffffffffffffffff16905081600460006101000a81548173ffffffffffffffffffffffffffffffffffffffff021916908373ffffffffffffffffffffffffffffffffffffffff1602179055508173ffffffffffffffffffffffffffffffffffffffff168173ffffffffffffffffffffffffffffffffffffffff167f8be0079c531659141344cd1fd0a4f28419497f9722a3daafe3b4186f6b6457e060405160405180910390a35050565b600080fd5b600073ffffffffffffffffffffffffffffffffffffffff82169050919050565b6000620002828262000255565b9050919050565b620002948162000275565b8114620002a057600080fd5b50565b600081519050620002b48162000289565b92915050565b600060208284031215620002d357620002d262000250565b5b6000620002e384828501620002a3565b91505092915050565b600082825260208201905092915050565b7f496e76616c696420636f6e747261637420616464726573730000000000000000600082015250565b600062000335601883620002ec565b91506200034282620002fd565b602082019050919050565b60006020820190508181036000830152620003688162000326565b9050919050565b611a2e806200037f6000396000f3fe608060405234801561001057600080fd5b50600436106100ea5760003560e01c8063aa6a0dac1161008c578063c04772d511610066578063c04772d51461022c578063d30bdac914610248578063d56d229d1461027a578063f2fde38b14610298576100ea565b8063aa6a0dac146101d2578063ac4867f0146101f0578063af1b3d5e1461020e576100ea565b806358dd8603116100c857806358dd86031461015c578063715018a61461018e5780638da5cb5b1461019857806392bf77dd146101b6576100ea565b806315b81dc3146100ef5780631f7775ad1461010d5780632b4c32be1461013e575b600080fd5b6100f76102b4565b60405161010491906110f9565b60405180910390f35b6101276004803603810190610122919061115e565b6102d8565b604051610135929190611223565b60405180910390f35b610146610329565b6040516101539190611287565b60405180910390f35b6101766004803603810190610171919061115e565b610334565b604051610185939291906112b1565b60405180910390f35b61019661038b565b005b6101a0610413565b6040516101ad91906112e8565b60405180910390f35b6101d060048036038101906101cb919061132f565b61043d565b005b6101da6104fc565b6040516101e7919061135c565b60405180910390f35b6101f8610502565b604051610205919061135c565b60405180910390f35b610216610508565b604051610223919061135c565b60405180910390f35b610246600480360381019061024191906114bd565b61050e565b005b610262600480360381019061025d919061115e565b610dd0565b604051610271939291906115c2565b60405180910390f35b610282610e8f565b60405161028f91906112e8565b60405180910390f35b6102b260048036038101906102ad919061132f565b610eb5565b005b60008054906101000a900473ffffffffffffffffffffffffffffffffffffffff1681565b60036020528060005260406000206000915090508060000160009054906101000a900473ffffffffffffffffffffffffffffffffffffffff16908060000160149054906101000a900460ff16905082565b6380ac58cd60e01b81565b60016020528060005260406000206000915090508060000154908060010160009054906101000a900473ffffffffffffffffffffffffffffffffffffffff16908060010160149054906101000a900460ff16905083565b610393610fac565b73ffffffffffffffffffffffffffffffffffffffff166103b1610413565b73ffffffffffffffffffffffffffffffffffffffff1614610407576040517f08c379a00000000000000000000000000000000000000000000000000000000081526004016103fe9061164c565b60405180910390fd5b6104116000610fb4565b565b6000600460009054906101000a900473ffffffffffffffffffffffffffffffffffffffff16905090565b610445610fac565b73ffffffffffffffffffffffffffffffffffffffff16610463610413565b73ffffffffffffffffffffffffffffffffffffffff16146104b9576040517f08c379a00000000000000000000000000000000000000000000000000000000081526004016104b09061164c565b60405180910390fd5b806000806101000a81548173ffffffffffffffffffffffffffffffffffffffff021916908373ffffffffffffffffffffffffffffffffffffffff16021790555050565b60085481565b60065481565b60075481565b600060405160200161051f906116c3565b60405160208183030381529060405280519060200120826040516020016105469190611709565b6040516020818303038152906040528051906020012014806105b157506040516020016105729061176c565b60405160208183030381529060405280519060200120826040516020016105999190611709565b60405160208183030381529060405280519060200120145b8061060557506040516020016105c6906117cd565b60405160208183030381529060405280519060200120826040516020016105ed9190611709565b60405160208183030381529060405280519060200120145b61060e57600080fd5b60405160200161061d906116c3565b60405160208183030381529060405280519060200120826040516020016106449190611709565b60405160208183030381529060405280519060200120036108895760008054906101000a900473ffffffffffffffffffffffffffffffffffffffff1673ffffffffffffffffffffffffffffffffffffffff166323b872dd336106a4610413565b6006546040518463ffffffff1660e01b81526004016106c5939291906117e2565b6020604051808303816000875af11580156106e4573d6000803e3d6000fd5b505050506040513d601f19601f820116820180604052508101906107089190611845565b50600960009054906101000a900473ffffffffffffffffffffffffffffffffffffffff1673ffffffffffffffffffffffffffffffffffffffff16631f29e9fc836040518263ffffffff1660e01b81526004016107649190611872565b6020604051808303816000875af1158015610783573d6000803e3d6000fd5b505050506040513d601f19601f820116820180604052508101906107a791906118a9565b905060405180606001604052808281526020013373ffffffffffffffffffffffffffffffffffffffff168152602001600160038111156107ea576107e96111ac565b5b815250600160008381526020019081526020016000206000820151816000015560208201518160010160006101000a81548173ffffffffffffffffffffffffffffffffffffffff021916908373ffffffffffffffffffffffffffffffffffffffff16021790555060408201518160010160146101000a81548160ff0219169083600381111561087c5761087b6111ac565b5b0217905550905050610d7c565b6040516020016108989061176c565b60405160208183030381529060405280519060200120826040516020016108bf9190611709565b6040516020818303038152906040528051906020012003610b045760008054906101000a900473ffffffffffffffffffffffffffffffffffffffff1673ffffffffffffffffffffffffffffffffffffffff166323b872dd3361091f610413565b6007546040518463ffffffff1660e01b8152600401610940939291906117e2565b6020604051808303816000875af115801561095f573d6000803e3d6000fd5b505050506040513d601f19601f820116820180604052508101906109839190611845565b50600960009054906101000a900473ffffffffffffffffffffffffffffffffffffffff1673ffffffffffffffffffffffffffffffffffffffff16631f29e9fc836040518263ffffffff1660e01b81526004016109df9190611872565b6020604051808303816000875af11580156109fe573d6000803e3d6000fd5b505050506040513d601f19601f82011682018060405250810190610a2291906118a9565b905060405180606001604052808281526020013373ffffffffffffffffffffffffffffffffffffffff16815260200160026003811115610a6557610a646111ac565b5b815250600160008381526020019081526020016000206000820151816000015560208201518160010160006101000a81548173ffffffffffffffffffffffffffffffffffffffff021916908373ffffffffffffffffffffffffffffffffffffffff16021790555060408201518160010160146101000a81548160ff02191690836003811115610af757610af66111ac565b5b0217905550905050610d7b565b604051602001610b13906117cd565b6040516020818303038152906040528051906020012082604051602001610b3a9190611709565b6040516020818303038152906040528051906020012003610d7a5760008054906101000a900473ffffffffffffffffffffffffffffffffffffffff1673ffffffffffffffffffffffffffffffffffffffff166323b872dd33610b9a610413565b6008546040518463ffffffff1660e01b8152600401610bbb939291906117e2565b6020604051808303816000875af1158015610bda573d6000803e3d6000fd5b505050506040513d601f19601f82011682018060405250810190610bfe9190611845565b50600960009054906101000a900473ffffffffffffffffffffffffffffffffffffffff1673ffffffffffffffffffffffffffffffffffffffff16631f29e9fc836040518263ffffffff1660e01b8152600401610c5a9190611872565b6020604051808303816000875af1158015610c79573d6000803e3d6000fd5b505050506040513d601f19601f82011682018060405250810190610c9d91906118a9565b905060405180606001604052808281526020013373ffffffffffffffffffffffffffffffffffffffff168152602001600380811115610cdf57610cde6111ac565b5b815250600160008381526020019081526020016000206000820151816000015560208201518160010160006101000a81548173ffffffffffffffffffffffffffffffffffffffff021916908373ffffffffffffffffffffffffffffffffffffffff16021790555060408201518160010160146101000a81548160ff02191690836003811115610d7157610d706111ac565b5b02179055509050505b5b5b3373ffffffffffffffffffffffffffffffffffffffff167f1db2f8d3844c137e9a42d6083e0d6d79f46718a5b5f1df7504c174630c01bc108284604051610dc49291906118d6565b60405180910390a25050565b6002602052806000526040600020600091509050806000015490806001018054610df990611935565b80601f0160208091040260200160405190810160405280929190818152602001828054610e2590611935565b8015610e725780601f10610e4757610100808354040283529160200191610e72565b820191906000526020600020905b815481529060010190602001808311610e5557829003601f168201915b5050505050908060020160009054906101000a900460ff16905083565b600560009054906101000a900473ffffffffffffffffffffffffffffffffffffffff1681565b610ebd610fac565b73ffffffffffffffffffffffffffffffffffffffff16610edb610413565b73ffffffffffffffffffffffffffffffffffffffff1614610f31576040517f08c379a0000000000000000000000000000000000000000000000000000000008152600401610f289061164c565b60405180910390fd5b600073ffffffffffffffffffffffffffffffffffffffff168173ffffffffffffffffffffffffffffffffffffffff1603610fa0576040517f08c379a0000000000000000000000000000000000000000000000000000000008152600401610f97906119d8565b60405180910390fd5b610fa981610fb4565b50565b600033905090565b6000600460009054906101000a900473ffffffffffffffffffffffffffffffffffffffff16905081600460006101000a81548173ffffffffffffffffffffffffffffffffffffffff021916908373ffffffffffffffffffffffffffffffffffffffff1602179055508173ffffffffffffffffffffffffffffffffffffffff168173ffffffffffffffffffffffffffffffffffffffff167f8be0079c531659141344cd1fd0a4f28419497f9722a3daafe3b4186f6b6457e060405160405180910390a35050565b600073ffffffffffffffffffffffffffffffffffffffff82169050919050565b6000819050919050565b60006110bf6110ba6110b58461107a565b61109a565b61107a565b9050919050565b60006110d1826110a4565b9050919050565b60006110e3826110c6565b9050919050565b6110f3816110d8565b82525050565b600060208201905061110e60008301846110ea565b92915050565b6000604051905090565b600080fd5b600080fd5b6000819050919050565b61113b81611128565b811461114657600080fd5b50565b60008135905061115881611132565b92915050565b6000602082840312156111745761117361111e565b5b600061118284828501611149565b91505092915050565b60006111968261107a565b9050919050565b6111a68161118b565b82525050565b7f4e487b7100000000000000000000000000000000000000000000000000000000600052602160045260246000fd5b600481106111ec576111eb6111ac565b5b50565b60008190506111fd826111db565b919050565b600061120d826111ef565b9050919050565b61121d81611202565b82525050565b6000604082019050611238600083018561119d565b6112456020830184611214565b9392505050565b60007fffffffff0000000000000000000000000000000000000000000000000000000082169050919050565b6112818161124c565b82525050565b600060208201905061129c6000830184611278565b92915050565b6112ab81611128565b82525050565b60006060820190506112c660008301866112a2565b6112d3602083018561119d565b6112e06040830184611214565b949350505050565b60006020820190506112fd600083018461119d565b92915050565b61130c8161118b565b811461131757600080fd5b50565b60008135905061132981611303565b92915050565b6000602082840312156113455761134461111e565b5b60006113538482850161131a565b91505092915050565b600060208201905061137160008301846112a2565b92915050565b600080fd5b600080fd5b6000601f19601f8301169050919050565b7f4e487b7100000000000000000000000000000000000000000000000000000000600052604160045260246000fd5b6113ca82611381565b810181811067ffffffffffffffff821117156113e9576113e8611392565b5b80604052505050565b60006113fc611114565b905061140882826113c1565b919050565b600067ffffffffffffffff82111561142857611427611392565b5b61143182611381565b9050602081019050919050565b82818337600083830152505050565b600061146061145b8461140d565b6113f2565b90508281526020810184848401111561147c5761147b61137c565b5b61148784828561143e565b509392505050565b600082601f8301126114a4576114a3611377565b5b81356114b484826020860161144d565b91505092915050565b6000602082840312156114d3576114d261111e565b5b600082013567ffffffffffffffff8111156114f1576114f0611123565b5b6114fd8482850161148f565b91505092915050565b6000819050919050565b61151981611506565b82525050565b600081519050919050565b600082825260208201905092915050565b60005b8381101561155957808201518184015260208101905061153e565b83811115611568576000848401525b50505050565b60006115798261151f565b611583818561152a565b935061159381856020860161153b565b61159c81611381565b840191505092915050565b60008115159050919050565b6115bc816115a7565b82525050565b60006060820190506115d76000830186611510565b81810360208301526115e9818561156e565b90506115f860408301846115b3565b949350505050565b7f4f776e61626c653a2063616c6c6572206973206e6f7420746865206f776e6572600082015250565b600061163660208361152a565b915061164182611600565b602082019050919050565b6000602082019050818103600083015261166581611629565b9050919050565b600081905092915050565b7f42524f4e5a450000000000000000000000000000000000000000000000000000600082015250565b60006116ad60068361166c565b91506116b882611677565b600682019050919050565b60006116ce826116a0565b9150819050919050565b60006116e38261151f565b6116ed818561166c565b93506116fd81856020860161153b565b80840191505092915050565b600061171582846116d8565b915081905092915050565b7f53494c5645520000000000000000000000000000000000000000000000000000600082015250565b600061175660068361166c565b915061176182611720565b600682019050919050565b600061177782611749565b9150819050919050565b7f474f4c4400000000000000000000000000000000000000000000000000000000600082015250565b60006117b760048361166c565b91506117c282611781565b600482019050919050565b60006117d8826117aa565b9150819050919050565b60006060820190506117f7600083018661119d565b611804602083018561119d565b61181160408301846112a2565b949350505050565b611822816115a7565b811461182d57600080fd5b50565b60008151905061183f81611819565b92915050565b60006020828403121561185b5761185a61111e565b5b600061186984828501611830565b91505092915050565b6000602082019050818103600083015261188c818461156e565b905092915050565b6000815190506118a381611132565b92915050565b6000602082840312156118bf576118be61111e565b5b60006118cd84828501611894565b91505092915050565b60006040820190506118eb60008301856112a2565b81810360208301526118fd818461156e565b90509392505050565b7f4e487b7100000000000000000000000000000000000000000000000000000000600052602260045260246000fd5b6000600282049050600182168061194d57607f821691505b6020821081036119605761195f611906565b5b50919050565b7f4f776e61626c653a206e6577206f776e657220697320746865207a65726f206160008201527f6464726573730000000000000000000000000000000000000000000000000000602082015250565b60006119c260268361152a565b91506119cd82611966565b604082019050919050565b600060208201905081810360008301526119f1816119b5565b905091905056fea264697066735822122009e18a9d08ea63ff185e15f794c10c29a6af998153f7c2eac38d4fe5054f829064736f6c634300080d0033",
					"opcodes": "PUSH1 0x80 PUSH1 0x40 MSTORE CALLVALUE DUP1 ISZERO PUSH3 0x11 JUMPI PUSH1 0x0 DUP1 REVERT JUMPDEST POP PUSH1 0x40 MLOAD PUSH3 0x1DAD CODESIZE SUB DUP1 PUSH3 0x1DAD DUP4 CODECOPY DUP2 DUP2 ADD PUSH1 0x40 MSTORE DUP2 ADD SWAP1 PUSH3 0x37 SWAP2 SWAP1 PUSH3 0x2BA JUMP JUMPDEST PUSH3 0x57 PUSH3 0x4B PUSH3 0x182 PUSH1 0x20 SHL PUSH1 0x20 SHR JUMP JUMPDEST PUSH3 0x18A PUSH1 0x20 SHL PUSH1 0x20 SHR JUMP JUMPDEST PUSH1 0x0 PUSH20 0xFFFFFFFFFFFFFFFFFFFFFFFFFFFFFFFFFFFFFFFF AND DUP2 PUSH20 0xFFFFFFFFFFFFFFFFFFFFFFFFFFFFFFFFFFFFFFFF AND SUB PUSH3 0xC9 JUMPI PUSH1 0x40 MLOAD PUSH32 0x8C379A000000000000000000000000000000000000000000000000000000000 DUP2 MSTORE PUSH1 0x4 ADD PUSH3 0xC0 SWAP1 PUSH3 0x34D JUMP JUMPDEST PUSH1 0x40 MLOAD DUP1 SWAP2 SUB SWAP1 REVERT JUMPDEST DUP1 PUSH1 0x9 PUSH1 0x0 PUSH2 0x100 EXP DUP2 SLOAD DUP2 PUSH20 0xFFFFFFFFFFFFFFFFFFFFFFFFFFFFFFFFFFFFFFFF MUL NOT AND SWAP1 DUP4 PUSH20 0xFFFFFFFFFFFFFFFFFFFFFFFFFFFFFFFFFFFFFFFF AND MUL OR SWAP1 SSTORE POP DUP1 PUSH1 0x5 PUSH1 0x0 PUSH2 0x100 EXP DUP2 SLOAD DUP2 PUSH20 0xFFFFFFFFFFFFFFFFFFFFFFFFFFFFFFFFFFFFFFFF MUL NOT AND SWAP1 DUP4 PUSH20 0xFFFFFFFFFFFFFFFFFFFFFFFFFFFFFFFFFFFFFFFF AND MUL OR SWAP1 SSTORE POP PUSH9 0x1B1AE4D6E2EF500000 PUSH1 0x6 DUP2 SWAP1 SSTORE POP PUSH9 0x3635C9ADC5DEA00000 PUSH1 0x7 DUP2 SWAP1 SSTORE POP PUSH9 0x5150AE84A8CDF00000 PUSH1 0x8 DUP2 SWAP1 SSTORE POP POP PUSH3 0x36F JUMP JUMPDEST PUSH1 0x0 CALLER SWAP1 POP SWAP1 JUMP JUMPDEST PUSH1 0x0 PUSH1 0x4 PUSH1 0x0 SWAP1 SLOAD SWAP1 PUSH2 0x100 EXP SWAP1 DIV PUSH20 0xFFFFFFFFFFFFFFFFFFFFFFFFFFFFFFFFFFFFFFFF AND SWAP1 POP DUP2 PUSH1 0x4 PUSH1 0x0 PUSH2 0x100 EXP DUP2 SLOAD DUP2 PUSH20 0xFFFFFFFFFFFFFFFFFFFFFFFFFFFFFFFFFFFFFFFF MUL NOT AND SWAP1 DUP4 PUSH20 0xFFFFFFFFFFFFFFFFFFFFFFFFFFFFFFFFFFFFFFFF AND MUL OR SWAP1 SSTORE POP DUP2 PUSH20 0xFFFFFFFFFFFFFFFFFFFFFFFFFFFFFFFFFFFFFFFF AND DUP2 PUSH20 0xFFFFFFFFFFFFFFFFFFFFFFFFFFFFFFFFFFFFFFFF AND PUSH32 0x8BE0079C531659141344CD1FD0A4F28419497F9722A3DAAFE3B4186F6B6457E0 PUSH1 0x40 MLOAD PUSH1 0x40 MLOAD DUP1 SWAP2 SUB SWAP1 LOG3 POP POP JUMP JUMPDEST PUSH1 0x0 DUP1 REVERT JUMPDEST PUSH1 0x0 PUSH20 0xFFFFFFFFFFFFFFFFFFFFFFFFFFFFFFFFFFFFFFFF DUP3 AND SWAP1 POP SWAP2 SWAP1 POP JUMP JUMPDEST PUSH1 0x0 PUSH3 0x282 DUP3 PUSH3 0x255 JUMP JUMPDEST SWAP1 POP SWAP2 SWAP1 POP JUMP JUMPDEST PUSH3 0x294 DUP2 PUSH3 0x275 JUMP JUMPDEST DUP2 EQ PUSH3 0x2A0 JUMPI PUSH1 0x0 DUP1 REVERT JUMPDEST POP JUMP JUMPDEST PUSH1 0x0 DUP2 MLOAD SWAP1 POP PUSH3 0x2B4 DUP2 PUSH3 0x289 JUMP JUMPDEST SWAP3 SWAP2 POP POP JUMP JUMPDEST PUSH1 0x0 PUSH1 0x20 DUP3 DUP5 SUB SLT ISZERO PUSH3 0x2D3 JUMPI PUSH3 0x2D2 PUSH3 0x250 JUMP JUMPDEST JUMPDEST PUSH1 0x0 PUSH3 0x2E3 DUP5 DUP3 DUP6 ADD PUSH3 0x2A3 JUMP JUMPDEST SWAP2 POP POP SWAP3 SWAP2 POP POP JUMP JUMPDEST PUSH1 0x0 DUP3 DUP3 MSTORE PUSH1 0x20 DUP3 ADD SWAP1 POP SWAP3 SWAP2 POP POP JUMP JUMPDEST PUSH32 0x496E76616C696420636F6E747261637420616464726573730000000000000000 PUSH1 0x0 DUP3 ADD MSTORE POP JUMP JUMPDEST PUSH1 0x0 PUSH3 0x335 PUSH1 0x18 DUP4 PUSH3 0x2EC JUMP JUMPDEST SWAP2 POP PUSH3 0x342 DUP3 PUSH3 0x2FD JUMP JUMPDEST PUSH1 0x20 DUP3 ADD SWAP1 POP SWAP2 SWAP1 POP JUMP JUMPDEST PUSH1 0x0 PUSH1 0x20 DUP3 ADD SWAP1 POP DUP2 DUP2 SUB PUSH1 0x0 DUP4 ADD MSTORE PUSH3 0x368 DUP2 PUSH3 0x326 JUMP JUMPDEST SWAP1 POP SWAP2 SWAP1 POP JUMP JUMPDEST PUSH2 0x1A2E DUP1 PUSH3 0x37F PUSH1 0x0 CODECOPY PUSH1 0x0 RETURN INVALID PUSH1 0x80 PUSH1 0x40 MSTORE CALLVALUE DUP1 ISZERO PUSH2 0x10 JUMPI PUSH1 0x0 DUP1 REVERT JUMPDEST POP PUSH1 0x4 CALLDATASIZE LT PUSH2 0xEA JUMPI PUSH1 0x0 CALLDATALOAD PUSH1 0xE0 SHR DUP1 PUSH4 0xAA6A0DAC GT PUSH2 0x8C JUMPI DUP1 PUSH4 0xC04772D5 GT PUSH2 0x66 JUMPI DUP1 PUSH4 0xC04772D5 EQ PUSH2 0x22C JUMPI DUP1 PUSH4 0xD30BDAC9 EQ PUSH2 0x248 JUMPI DUP1 PUSH4 0xD56D229D EQ PUSH2 0x27A JUMPI DUP1 PUSH4 0xF2FDE38B EQ PUSH2 0x298 JUMPI PUSH2 0xEA JUMP JUMPDEST DUP1 PUSH4 0xAA6A0DAC EQ PUSH2 0x1D2 JUMPI DUP1 PUSH4 0xAC4867F0 EQ PUSH2 0x1F0 JUMPI DUP1 PUSH4 0xAF1B3D5E EQ PUSH2 0x20E JUMPI PUSH2 0xEA JUMP JUMPDEST DUP1 PUSH4 0x58DD8603 GT PUSH2 0xC8 JUMPI DUP1 PUSH4 0x58DD8603 EQ PUSH2 0x15C JUMPI DUP1 PUSH4 0x715018A6 EQ PUSH2 0x18E JUMPI DUP1 PUSH4 0x8DA5CB5B EQ PUSH2 0x198 JUMPI DUP1 PUSH4 0x92BF77DD EQ PUSH2 0x1B6 JUMPI PUSH2 0xEA JUMP JUMPDEST DUP1 PUSH4 0x15B81DC3 EQ PUSH2 0xEF JUMPI DUP1 PUSH4 0x1F7775AD EQ PUSH2 0x10D JUMPI DUP1 PUSH4 0x2B4C32BE EQ PUSH2 0x13E JUMPI JUMPDEST PUSH1 0x0 DUP1 REVERT JUMPDEST PUSH2 0xF7 PUSH2 0x2B4 JUMP JUMPDEST PUSH1 0x40 MLOAD PUSH2 0x104 SWAP2 SWAP1 PUSH2 0x10F9 JUMP JUMPDEST PUSH1 0x40 MLOAD DUP1 SWAP2 SUB SWAP1 RETURN JUMPDEST PUSH2 0x127 PUSH1 0x4 DUP1 CALLDATASIZE SUB DUP2 ADD SWAP1 PUSH2 0x122 SWAP2 SWAP1 PUSH2 0x115E JUMP JUMPDEST PUSH2 0x2D8 JUMP JUMPDEST PUSH1 0x40 MLOAD PUSH2 0x135 SWAP3 SWAP2 SWAP1 PUSH2 0x1223 JUMP JUMPDEST PUSH1 0x40 MLOAD DUP1 SWAP2 SUB SWAP1 RETURN JUMPDEST PUSH2 0x146 PUSH2 0x329 JUMP JUMPDEST PUSH1 0x40 MLOAD PUSH2 0x153 SWAP2 SWAP1 PUSH2 0x1287 JUMP JUMPDEST PUSH1 0x40 MLOAD DUP1 SWAP2 SUB SWAP1 RETURN JUMPDEST PUSH2 0x176 PUSH1 0x4 DUP1 CALLDATASIZE SUB DUP2 ADD SWAP1 PUSH2 0x171 SWAP2 SWAP1 PUSH2 0x115E JUMP JUMPDEST PUSH2 0x334 JUMP JUMPDEST PUSH1 0x40 MLOAD PUSH2 0x185 SWAP4 SWAP3 SWAP2 SWAP1 PUSH2 0x12B1 JUMP JUMPDEST PUSH1 0x40 MLOAD DUP1 SWAP2 SUB SWAP1 RETURN JUMPDEST PUSH2 0x196 PUSH2 0x38B JUMP JUMPDEST STOP JUMPDEST PUSH2 0x1A0 PUSH2 0x413 JUMP JUMPDEST PUSH1 0x40 MLOAD PUSH2 0x1AD SWAP2 SWAP1 PUSH2 0x12E8 JUMP JUMPDEST PUSH1 0x40 MLOAD DUP1 SWAP2 SUB SWAP1 RETURN JUMPDEST PUSH2 0x1D0 PUSH1 0x4 DUP1 CALLDATASIZE SUB DUP2 ADD SWAP1 PUSH2 0x1CB SWAP2 SWAP1 PUSH2 0x132F JUMP JUMPDEST PUSH2 0x43D JUMP JUMPDEST STOP JUMPDEST PUSH2 0x1DA PUSH2 0x4FC JUMP JUMPDEST PUSH1 0x40 MLOAD PUSH2 0x1E7 SWAP2 SWAP1 PUSH2 0x135C JUMP JUMPDEST PUSH1 0x40 MLOAD DUP1 SWAP2 SUB SWAP1 RETURN JUMPDEST PUSH2 0x1F8 PUSH2 0x502 JUMP JUMPDEST PUSH1 0x40 MLOAD PUSH2 0x205 SWAP2 SWAP1 PUSH2 0x135C JUMP JUMPDEST PUSH1 0x40 MLOAD DUP1 SWAP2 SUB SWAP1 RETURN JUMPDEST PUSH2 0x216 PUSH2 0x508 JUMP JUMPDEST PUSH1 0x40 MLOAD PUSH2 0x223 SWAP2 SWAP1 PUSH2 0x135C JUMP JUMPDEST PUSH1 0x40 MLOAD DUP1 SWAP2 SUB SWAP1 RETURN JUMPDEST PUSH2 0x246 PUSH1 0x4 DUP1 CALLDATASIZE SUB DUP2 ADD SWAP1 PUSH2 0x241 SWAP2 SWAP1 PUSH2 0x14BD JUMP JUMPDEST PUSH2 0x50E JUMP JUMPDEST STOP JUMPDEST PUSH2 0x262 PUSH1 0x4 DUP1 CALLDATASIZE SUB DUP2 ADD SWAP1 PUSH2 0x25D SWAP2 SWAP1 PUSH2 0x115E JUMP JUMPDEST PUSH2 0xDD0 JUMP JUMPDEST PUSH1 0x40 MLOAD PUSH2 0x271 SWAP4 SWAP3 SWAP2 SWAP1 PUSH2 0x15C2 JUMP JUMPDEST PUSH1 0x40 MLOAD DUP1 SWAP2 SUB SWAP1 RETURN JUMPDEST PUSH2 0x282 PUSH2 0xE8F JUMP JUMPDEST PUSH1 0x40 MLOAD PUSH2 0x28F SWAP2 SWAP1 PUSH2 0x12E8 JUMP JUMPDEST PUSH1 0x40 MLOAD DUP1 SWAP2 SUB SWAP1 RETURN JUMPDEST PUSH2 0x2B2 PUSH1 0x4 DUP1 CALLDATASIZE SUB DUP2 ADD SWAP1 PUSH2 0x2AD SWAP2 SWAP1 PUSH2 0x132F JUMP JUMPDEST PUSH2 0xEB5 JUMP JUMPDEST STOP JUMPDEST PUSH1 0x0 DUP1 SLOAD SWAP1 PUSH2 0x100 EXP SWAP1 DIV PUSH20 0xFFFFFFFFFFFFFFFFFFFFFFFFFFFFFFFFFFFFFFFF AND DUP2 JUMP JUMPDEST PUSH1 0x3 PUSH1 0x20 MSTORE DUP1 PUSH1 0x0 MSTORE PUSH1 0x40 PUSH1 0x0 KECCAK256 PUSH1 0x0 SWAP2 POP SWAP1 POP DUP1 PUSH1 0x0 ADD PUSH1 0x0 SWAP1 SLOAD SWAP1 PUSH2 0x100 EXP SWAP1 DIV PUSH20 0xFFFFFFFFFFFFFFFFFFFFFFFFFFFFFFFFFFFFFFFF AND SWAP1 DUP1 PUSH1 0x0 ADD PUSH1 0x14 SWAP1 SLOAD SWAP1 PUSH2 0x100 EXP SWAP1 DIV PUSH1 0xFF AND SWAP1 POP DUP3 JUMP JUMPDEST PUSH4 0x80AC58CD PUSH1 0xE0 SHL DUP2 JUMP JUMPDEST PUSH1 0x1 PUSH1 0x20 MSTORE DUP1 PUSH1 0x0 MSTORE PUSH1 0x40 PUSH1 0x0 KECCAK256 PUSH1 0x0 SWAP2 POP SWAP1 POP DUP1 PUSH1 0x0 ADD SLOAD SWAP1 DUP1 PUSH1 0x1 ADD PUSH1 0x0 SWAP1 SLOAD SWAP1 PUSH2 0x100 EXP SWAP1 DIV PUSH20 0xFFFFFFFFFFFFFFFFFFFFFFFFFFFFFFFFFFFFFFFF AND SWAP1 DUP1 PUSH1 0x1 ADD PUSH1 0x14 SWAP1 SLOAD SWAP1 PUSH2 0x100 EXP SWAP1 DIV PUSH1 0xFF AND SWAP1 POP DUP4 JUMP JUMPDEST PUSH2 0x393 PUSH2 0xFAC JUMP JUMPDEST PUSH20 0xFFFFFFFFFFFFFFFFFFFFFFFFFFFFFFFFFFFFFFFF AND PUSH2 0x3B1 PUSH2 0x413 JUMP JUMPDEST PUSH20 0xFFFFFFFFFFFFFFFFFFFFFFFFFFFFFFFFFFFFFFFF AND EQ PUSH2 0x407 JUMPI PUSH1 0x40 MLOAD PUSH32 0x8C379A000000000000000000000000000000000000000000000000000000000 DUP2 MSTORE PUSH1 0x4 ADD PUSH2 0x3FE SWAP1 PUSH2 0x164C JUMP JUMPDEST PUSH1 0x40 MLOAD DUP1 SWAP2 SUB SWAP1 REVERT JUMPDEST PUSH2 0x411 PUSH1 0x0 PUSH2 0xFB4 JUMP JUMPDEST JUMP JUMPDEST PUSH1 0x0 PUSH1 0x4 PUSH1 0x0 SWAP1 SLOAD SWAP1 PUSH2 0x100 EXP SWAP1 DIV PUSH20 0xFFFFFFFFFFFFFFFFFFFFFFFFFFFFFFFFFFFFFFFF AND SWAP1 POP SWAP1 JUMP JUMPDEST PUSH2 0x445 PUSH2 0xFAC JUMP JUMPDEST PUSH20 0xFFFFFFFFFFFFFFFFFFFFFFFFFFFFFFFFFFFFFFFF AND PUSH2 0x463 PUSH2 0x413 JUMP JUMPDEST PUSH20 0xFFFFFFFFFFFFFFFFFFFFFFFFFFFFFFFFFFFFFFFF AND EQ PUSH2 0x4B9 JUMPI PUSH1 0x40 MLOAD PUSH32 0x8C379A000000000000000000000000000000000000000000000000000000000 DUP2 MSTORE PUSH1 0x4 ADD PUSH2 0x4B0 SWAP1 PUSH2 0x164C JUMP JUMPDEST PUSH1 0x40 MLOAD DUP1 SWAP2 SUB SWAP1 REVERT JUMPDEST DUP1 PUSH1 0x0 DUP1 PUSH2 0x100 EXP DUP2 SLOAD DUP2 PUSH20 0xFFFFFFFFFFFFFFFFFFFFFFFFFFFFFFFFFFFFFFFF MUL NOT AND SWAP1 DUP4 PUSH20 0xFFFFFFFFFFFFFFFFFFFFFFFFFFFFFFFFFFFFFFFF AND MUL OR SWAP1 SSTORE POP POP JUMP JUMPDEST PUSH1 0x8 SLOAD DUP2 JUMP JUMPDEST PUSH1 0x6 SLOAD DUP2 JUMP JUMPDEST PUSH1 0x7 SLOAD DUP2 JUMP JUMPDEST PUSH1 0x0 PUSH1 0x40 MLOAD PUSH1 0x20 ADD PUSH2 0x51F SWAP1 PUSH2 0x16C3 JUMP JUMPDEST PUSH1 0x40 MLOAD PUSH1 0x20 DUP2 DUP4 SUB SUB DUP2 MSTORE SWAP1 PUSH1 0x40 MSTORE DUP1 MLOAD SWAP1 PUSH1 0x20 ADD KECCAK256 DUP3 PUSH1 0x40 MLOAD PUSH1 0x20 ADD PUSH2 0x546 SWAP2 SWAP1 PUSH2 0x1709 JUMP JUMPDEST PUSH1 0x40 MLOAD PUSH1 0x20 DUP2 DUP4 SUB SUB DUP2 MSTORE SWAP1 PUSH1 0x40 MSTORE DUP1 MLOAD SWAP1 PUSH1 0x20 ADD KECCAK256 EQ DUP1 PUSH2 0x5B1 JUMPI POP PUSH1 0x40 MLOAD PUSH1 0x20 ADD PUSH2 0x572 SWAP1 PUSH2 0x176C JUMP JUMPDEST PUSH1 0x40 MLOAD PUSH1 0x20 DUP2 DUP4 SUB SUB DUP2 MSTORE SWAP1 PUSH1 0x40 MSTORE DUP1 MLOAD SWAP1 PUSH1 0x20 ADD KECCAK256 DUP3 PUSH1 0x40 MLOAD PUSH1 0x20 ADD PUSH2 0x599 SWAP2 SWAP1 PUSH2 0x1709 JUMP JUMPDEST PUSH1 0x40 MLOAD PUSH1 0x20 DUP2 DUP4 SUB SUB DUP2 MSTORE SWAP1 PUSH1 0x40 MSTORE DUP1 MLOAD SWAP1 PUSH1 0x20 ADD KECCAK256 EQ JUMPDEST DUP1 PUSH2 0x605 JUMPI POP PUSH1 0x40 MLOAD PUSH1 0x20 ADD PUSH2 0x5C6 SWAP1 PUSH2 0x17CD JUMP JUMPDEST PUSH1 0x40 MLOAD PUSH1 0x20 DUP2 DUP4 SUB SUB DUP2 MSTORE SWAP1 PUSH1 0x40 MSTORE DUP1 MLOAD SWAP1 PUSH1 0x20 ADD KECCAK256 DUP3 PUSH1 0x40 MLOAD PUSH1 0x20 ADD PUSH2 0x5ED SWAP2 SWAP1 PUSH2 0x1709 JUMP JUMPDEST PUSH1 0x40 MLOAD PUSH1 0x20 DUP2 DUP4 SUB SUB DUP2 MSTORE SWAP1 PUSH1 0x40 MSTORE DUP1 MLOAD SWAP1 PUSH1 0x20 ADD KECCAK256 EQ JUMPDEST PUSH2 0x60E JUMPI PUSH1 0x0 DUP1 REVERT JUMPDEST PUSH1 0x40 MLOAD PUSH1 0x20 ADD PUSH2 0x61D SWAP1 PUSH2 0x16C3 JUMP JUMPDEST PUSH1 0x40 MLOAD PUSH1 0x20 DUP2 DUP4 SUB SUB DUP2 MSTORE SWAP1 PUSH1 0x40 MSTORE DUP1 MLOAD SWAP1 PUSH1 0x20 ADD KECCAK256 DUP3 PUSH1 0x40 MLOAD PUSH1 0x20 ADD PUSH2 0x644 SWAP2 SWAP1 PUSH2 0x1709 JUMP JUMPDEST PUSH1 0x40 MLOAD PUSH1 0x20 DUP2 DUP4 SUB SUB DUP2 MSTORE SWAP1 PUSH1 0x40 MSTORE DUP1 MLOAD SWAP1 PUSH1 0x20 ADD KECCAK256 SUB PUSH2 0x889 JUMPI PUSH1 0x0 DUP1 SLOAD SWAP1 PUSH2 0x100 EXP SWAP1 DIV PUSH20 0xFFFFFFFFFFFFFFFFFFFFFFFFFFFFFFFFFFFFFFFF AND PUSH20 0xFFFFFFFFFFFFFFFFFFFFFFFFFFFFFFFFFFFFFFFF AND PUSH4 0x23B872DD CALLER PUSH2 0x6A4 PUSH2 0x413 JUMP JUMPDEST PUSH1 0x6 SLOAD PUSH1 0x40 MLOAD DUP5 PUSH4 0xFFFFFFFF AND PUSH1 0xE0 SHL DUP2 MSTORE PUSH1 0x4 ADD PUSH2 0x6C5 SWAP4 SWAP3 SWAP2 SWAP1 PUSH2 0x17E2 JUMP JUMPDEST PUSH1 0x20 PUSH1 0x40 MLOAD DUP1 DUP4 SUB DUP2 PUSH1 0x0 DUP8 GAS CALL ISZERO DUP1 ISZERO PUSH2 0x6E4 JUMPI RETURNDATASIZE PUSH1 0x0 DUP1 RETURNDATACOPY RETURNDATASIZE PUSH1 0x0 REVERT JUMPDEST POP POP POP POP PUSH1 0x40 MLOAD RETURNDATASIZE PUSH1 0x1F NOT PUSH1 0x1F DUP3 ADD AND DUP3 ADD DUP1 PUSH1 0x40 MSTORE POP DUP2 ADD SWAP1 PUSH2 0x708 SWAP2 SWAP1 PUSH2 0x1845 JUMP JUMPDEST POP PUSH1 0x9 PUSH1 0x0 SWAP1 SLOAD SWAP1 PUSH2 0x100 EXP SWAP1 DIV PUSH20 0xFFFFFFFFFFFFFFFFFFFFFFFFFFFFFFFFFFFFFFFF AND PUSH20 0xFFFFFFFFFFFFFFFFFFFFFFFFFFFFFFFFFFFFFFFF AND PUSH4 0x1F29E9FC DUP4 PUSH1 0x40 MLOAD DUP3 PUSH4 0xFFFFFFFF AND PUSH1 0xE0 SHL DUP2 MSTORE PUSH1 0x4 ADD PUSH2 0x764 SWAP2 SWAP1 PUSH2 0x1872 JUMP JUMPDEST PUSH1 0x20 PUSH1 0x40 MLOAD DUP1 DUP4 SUB DUP2 PUSH1 0x0 DUP8 GAS CALL ISZERO DUP1 ISZERO PUSH2 0x783 JUMPI RETURNDATASIZE PUSH1 0x0 DUP1 RETURNDATACOPY RETURNDATASIZE PUSH1 0x0 REVERT JUMPDEST POP POP POP POP PUSH1 0x40 MLOAD RETURNDATASIZE PUSH1 0x1F NOT PUSH1 0x1F DUP3 ADD AND DUP3 ADD DUP1 PUSH1 0x40 MSTORE POP DUP2 ADD SWAP1 PUSH2 0x7A7 SWAP2 SWAP1 PUSH2 0x18A9 JUMP JUMPDEST SWAP1 POP PUSH1 0x40 MLOAD DUP1 PUSH1 0x60 ADD PUSH1 0x40 MSTORE DUP1 DUP3 DUP2 MSTORE PUSH1 0x20 ADD CALLER PUSH20 0xFFFFFFFFFFFFFFFFFFFFFFFFFFFFFFFFFFFFFFFF AND DUP2 MSTORE PUSH1 0x20 ADD PUSH1 0x1 PUSH1 0x3 DUP2 GT ISZERO PUSH2 0x7EA JUMPI PUSH2 0x7E9 PUSH2 0x11AC JUMP JUMPDEST JUMPDEST DUP2 MSTORE POP PUSH1 0x1 PUSH1 0x0 DUP4 DUP2 MSTORE PUSH1 0x20 ADD SWAP1 DUP2 MSTORE PUSH1 0x20 ADD PUSH1 0x0 KECCAK256 PUSH1 0x0 DUP3 ADD MLOAD DUP2 PUSH1 0x0 ADD SSTORE PUSH1 0x20 DUP3 ADD MLOAD DUP2 PUSH1 0x1 ADD PUSH1 0x0 PUSH2 0x100 EXP DUP2 SLOAD DUP2 PUSH20 0xFFFFFFFFFFFFFFFFFFFFFFFFFFFFFFFFFFFFFFFF MUL NOT AND SWAP1 DUP4 PUSH20 0xFFFFFFFFFFFFFFFFFFFFFFFFFFFFFFFFFFFFFFFF AND MUL OR SWAP1 SSTORE POP PUSH1 0x40 DUP3 ADD MLOAD DUP2 PUSH1 0x1 ADD PUSH1 0x14 PUSH2 0x100 EXP DUP2 SLOAD DUP2 PUSH1 0xFF MUL NOT AND SWAP1 DUP4 PUSH1 0x3 DUP2 GT ISZERO PUSH2 0x87C JUMPI PUSH2 0x87B PUSH2 0x11AC JUMP JUMPDEST JUMPDEST MUL OR SWAP1 SSTORE POP SWAP1 POP POP PUSH2 0xD7C JUMP JUMPDEST PUSH1 0x40 MLOAD PUSH1 0x20 ADD PUSH2 0x898 SWAP1 PUSH2 0x176C JUMP JUMPDEST PUSH1 0x40 MLOAD PUSH1 0x20 DUP2 DUP4 SUB SUB DUP2 MSTORE SWAP1 PUSH1 0x40 MSTORE DUP1 MLOAD SWAP1 PUSH1 0x20 ADD KECCAK256 DUP3 PUSH1 0x40 MLOAD PUSH1 0x20 ADD PUSH2 0x8BF SWAP2 SWAP1 PUSH2 0x1709 JUMP JUMPDEST PUSH1 0x40 MLOAD PUSH1 0x20 DUP2 DUP4 SUB SUB DUP2 MSTORE SWAP1 PUSH1 0x40 MSTORE DUP1 MLOAD SWAP1 PUSH1 0x20 ADD KECCAK256 SUB PUSH2 0xB04 JUMPI PUSH1 0x0 DUP1 SLOAD SWAP1 PUSH2 0x100 EXP SWAP1 DIV PUSH20 0xFFFFFFFFFFFFFFFFFFFFFFFFFFFFFFFFFFFFFFFF AND PUSH20 0xFFFFFFFFFFFFFFFFFFFFFFFFFFFFFFFFFFFFFFFF AND PUSH4 0x23B872DD CALLER PUSH2 0x91F PUSH2 0x413 JUMP JUMPDEST PUSH1 0x7 SLOAD PUSH1 0x40 MLOAD DUP5 PUSH4 0xFFFFFFFF AND PUSH1 0xE0 SHL DUP2 MSTORE PUSH1 0x4 ADD PUSH2 0x940 SWAP4 SWAP3 SWAP2 SWAP1 PUSH2 0x17E2 JUMP JUMPDEST PUSH1 0x20 PUSH1 0x40 MLOAD DUP1 DUP4 SUB DUP2 PUSH1 0x0 DUP8 GAS CALL ISZERO DUP1 ISZERO PUSH2 0x95F JUMPI RETURNDATASIZE PUSH1 0x0 DUP1 RETURNDATACOPY RETURNDATASIZE PUSH1 0x0 REVERT JUMPDEST POP POP POP POP PUSH1 0x40 MLOAD RETURNDATASIZE PUSH1 0x1F NOT PUSH1 0x1F DUP3 ADD AND DUP3 ADD DUP1 PUSH1 0x40 MSTORE POP DUP2 ADD SWAP1 PUSH2 0x983 SWAP2 SWAP1 PUSH2 0x1845 JUMP JUMPDEST POP PUSH1 0x9 PUSH1 0x0 SWAP1 SLOAD SWAP1 PUSH2 0x100 EXP SWAP1 DIV PUSH20 0xFFFFFFFFFFFFFFFFFFFFFFFFFFFFFFFFFFFFFFFF AND PUSH20 0xFFFFFFFFFFFFFFFFFFFFFFFFFFFFFFFFFFFFFFFF AND PUSH4 0x1F29E9FC DUP4 PUSH1 0x40 MLOAD DUP3 PUSH4 0xFFFFFFFF AND PUSH1 0xE0 SHL DUP2 MSTORE PUSH1 0x4 ADD PUSH2 0x9DF SWAP2 SWAP1 PUSH2 0x1872 JUMP JUMPDEST PUSH1 0x20 PUSH1 0x40 MLOAD DUP1 DUP4 SUB DUP2 PUSH1 0x0 DUP8 GAS CALL ISZERO DUP1 ISZERO PUSH2 0x9FE JUMPI RETURNDATASIZE PUSH1 0x0 DUP1 RETURNDATACOPY RETURNDATASIZE PUSH1 0x0 REVERT JUMPDEST POP POP POP POP PUSH1 0x40 MLOAD RETURNDATASIZE PUSH1 0x1F NOT PUSH1 0x1F DUP3 ADD AND DUP3 ADD DUP1 PUSH1 0x40 MSTORE POP DUP2 ADD SWAP1 PUSH2 0xA22 SWAP2 SWAP1 PUSH2 0x18A9 JUMP JUMPDEST SWAP1 POP PUSH1 0x40 MLOAD DUP1 PUSH1 0x60 ADD PUSH1 0x40 MSTORE DUP1 DUP3 DUP2 MSTORE PUSH1 0x20 ADD CALLER PUSH20 0xFFFFFFFFFFFFFFFFFFFFFFFFFFFFFFFFFFFFFFFF AND DUP2 MSTORE PUSH1 0x20 ADD PUSH1 0x2 PUSH1 0x3 DUP2 GT ISZERO PUSH2 0xA65 JUMPI PUSH2 0xA64 PUSH2 0x11AC JUMP JUMPDEST JUMPDEST DUP2 MSTORE POP PUSH1 0x1 PUSH1 0x0 DUP4 DUP2 MSTORE PUSH1 0x20 ADD SWAP1 DUP2 MSTORE PUSH1 0x20 ADD PUSH1 0x0 KECCAK256 PUSH1 0x0 DUP3 ADD MLOAD DUP2 PUSH1 0x0 ADD SSTORE PUSH1 0x20 DUP3 ADD MLOAD DUP2 PUSH1 0x1 ADD PUSH1 0x0 PUSH2 0x100 EXP DUP2 SLOAD DUP2 PUSH20 0xFFFFFFFFFFFFFFFFFFFFFFFFFFFFFFFFFFFFFFFF MUL NOT AND SWAP1 DUP4 PUSH20 0xFFFFFFFFFFFFFFFFFFFFFFFFFFFFFFFFFFFFFFFF AND MUL OR SWAP1 SSTORE POP PUSH1 0x40 DUP3 ADD MLOAD DUP2 PUSH1 0x1 ADD PUSH1 0x14 PUSH2 0x100 EXP DUP2 SLOAD DUP2 PUSH1 0xFF MUL NOT AND SWAP1 DUP4 PUSH1 0x3 DUP2 GT ISZERO PUSH2 0xAF7 JUMPI PUSH2 0xAF6 PUSH2 0x11AC JUMP JUMPDEST JUMPDEST MUL OR SWAP1 SSTORE POP SWAP1 POP POP PUSH2 0xD7B JUMP JUMPDEST PUSH1 0x40 MLOAD PUSH1 0x20 ADD PUSH2 0xB13 SWAP1 PUSH2 0x17CD JUMP JUMPDEST PUSH1 0x40 MLOAD PUSH1 0x20 DUP2 DUP4 SUB SUB DUP2 MSTORE SWAP1 PUSH1 0x40 MSTORE DUP1 MLOAD SWAP1 PUSH1 0x20 ADD KECCAK256 DUP3 PUSH1 0x40 MLOAD PUSH1 0x20 ADD PUSH2 0xB3A SWAP2 SWAP1 PUSH2 0x1709 JUMP JUMPDEST PUSH1 0x40 MLOAD PUSH1 0x20 DUP2 DUP4 SUB SUB DUP2 MSTORE SWAP1 PUSH1 0x40 MSTORE DUP1 MLOAD SWAP1 PUSH1 0x20 ADD KECCAK256 SUB PUSH2 0xD7A JUMPI PUSH1 0x0 DUP1 SLOAD SWAP1 PUSH2 0x100 EXP SWAP1 DIV PUSH20 0xFFFFFFFFFFFFFFFFFFFFFFFFFFFFFFFFFFFFFFFF AND PUSH20 0xFFFFFFFFFFFFFFFFFFFFFFFFFFFFFFFFFFFFFFFF AND PUSH4 0x23B872DD CALLER PUSH2 0xB9A PUSH2 0x413 JUMP JUMPDEST PUSH1 0x8 SLOAD PUSH1 0x40 MLOAD DUP5 PUSH4 0xFFFFFFFF AND PUSH1 0xE0 SHL DUP2 MSTORE PUSH1 0x4 ADD PUSH2 0xBBB SWAP4 SWAP3 SWAP2 SWAP1 PUSH2 0x17E2 JUMP JUMPDEST PUSH1 0x20 PUSH1 0x40 MLOAD DUP1 DUP4 SUB DUP2 PUSH1 0x0 DUP8 GAS CALL ISZERO DUP1 ISZERO PUSH2 0xBDA JUMPI RETURNDATASIZE PUSH1 0x0 DUP1 RETURNDATACOPY RETURNDATASIZE PUSH1 0x0 REVERT JUMPDEST POP POP POP POP PUSH1 0x40 MLOAD RETURNDATASIZE PUSH1 0x1F NOT PUSH1 0x1F DUP3 ADD AND DUP3 ADD DUP1 PUSH1 0x40 MSTORE POP DUP2 ADD SWAP1 PUSH2 0xBFE SWAP2 SWAP1 PUSH2 0x1845 JUMP JUMPDEST POP PUSH1 0x9 PUSH1 0x0 SWAP1 SLOAD SWAP1 PUSH2 0x100 EXP SWAP1 DIV PUSH20 0xFFFFFFFFFFFFFFFFFFFFFFFFFFFFFFFFFFFFFFFF AND PUSH20 0xFFFFFFFFFFFFFFFFFFFFFFFFFFFFFFFFFFFFFFFF AND PUSH4 0x1F29E9FC DUP4 PUSH1 0x40 MLOAD DUP3 PUSH4 0xFFFFFFFF AND PUSH1 0xE0 SHL DUP2 MSTORE PUSH1 0x4 ADD PUSH2 0xC5A SWAP2 SWAP1 PUSH2 0x1872 JUMP JUMPDEST PUSH1 0x20 PUSH1 0x40 MLOAD DUP1 DUP4 SUB DUP2 PUSH1 0x0 DUP8 GAS CALL ISZERO DUP1 ISZERO PUSH2 0xC79 JUMPI RETURNDATASIZE PUSH1 0x0 DUP1 RETURNDATACOPY RETURNDATASIZE PUSH1 0x0 REVERT JUMPDEST POP POP POP POP PUSH1 0x40 MLOAD RETURNDATASIZE PUSH1 0x1F NOT PUSH1 0x1F DUP3 ADD AND DUP3 ADD DUP1 PUSH1 0x40 MSTORE POP DUP2 ADD SWAP1 PUSH2 0xC9D SWAP2 SWAP1 PUSH2 0x18A9 JUMP JUMPDEST SWAP1 POP PUSH1 0x40 MLOAD DUP1 PUSH1 0x60 ADD PUSH1 0x40 MSTORE DUP1 DUP3 DUP2 MSTORE PUSH1 0x20 ADD CALLER PUSH20 0xFFFFFFFFFFFFFFFFFFFFFFFFFFFFFFFFFFFFFFFF AND DUP2 MSTORE PUSH1 0x20 ADD PUSH1 0x3 DUP1 DUP2 GT ISZERO PUSH2 0xCDF JUMPI PUSH2 0xCDE PUSH2 0x11AC JUMP JUMPDEST JUMPDEST DUP2 MSTORE POP PUSH1 0x1 PUSH1 0x0 DUP4 DUP2 MSTORE PUSH1 0x20 ADD SWAP1 DUP2 MSTORE PUSH1 0x20 ADD PUSH1 0x0 KECCAK256 PUSH1 0x0 DUP3 ADD MLOAD DUP2 PUSH1 0x0 ADD SSTORE PUSH1 0x20 DUP3 ADD MLOAD DUP2 PUSH1 0x1 ADD PUSH1 0x0 PUSH2 0x100 EXP DUP2 SLOAD DUP2 PUSH20 0xFFFFFFFFFFFFFFFFFFFFFFFFFFFFFFFFFFFFFFFF MUL NOT AND SWAP1 DUP4 PUSH20 0xFFFFFFFFFFFFFFFFFFFFFFFFFFFFFFFFFFFFFFFF AND MUL OR SWAP1 SSTORE POP PUSH1 0x40 DUP3 ADD MLOAD DUP2 PUSH1 0x1 ADD PUSH1 0x14 PUSH2 0x100 EXP DUP2 SLOAD DUP2 PUSH1 0xFF MUL NOT AND SWAP1 DUP4 PUSH1 0x3 DUP2 GT ISZERO PUSH2 0xD71 JUMPI PUSH2 0xD70 PUSH2 0x11AC JUMP JUMPDEST JUMPDEST MUL OR SWAP1 SSTORE POP SWAP1 POP POP JUMPDEST JUMPDEST JUMPDEST CALLER PUSH20 0xFFFFFFFFFFFFFFFFFFFFFFFFFFFFFFFFFFFFFFFF AND PUSH32 0x1DB2F8D3844C137E9A42D6083E0D6D79F46718A5B5F1DF7504C174630C01BC10 DUP3 DUP5 PUSH1 0x40 MLOAD PUSH2 0xDC4 SWAP3 SWAP2 SWAP1 PUSH2 0x18D6 JUMP JUMPDEST PUSH1 0x40 MLOAD DUP1 SWAP2 SUB SWAP1 LOG2 POP POP JUMP JUMPDEST PUSH1 0x2 PUSH1 0x20 MSTORE DUP1 PUSH1 0x0 MSTORE PUSH1 0x40 PUSH1 0x0 KECCAK256 PUSH1 0x0 SWAP2 POP SWAP1 POP DUP1 PUSH1 0x0 ADD SLOAD SWAP1 DUP1 PUSH1 0x1 ADD DUP1 SLOAD PUSH2 0xDF9 SWAP1 PUSH2 0x1935 JUMP JUMPDEST DUP1 PUSH1 0x1F ADD PUSH1 0x20 DUP1 SWAP2 DIV MUL PUSH1 0x20 ADD PUSH1 0x40 MLOAD SWAP1 DUP2 ADD PUSH1 0x40 MSTORE DUP1 SWAP3 SWAP2 SWAP1 DUP2 DUP2 MSTORE PUSH1 0x20 ADD DUP3 DUP1 SLOAD PUSH2 0xE25 SWAP1 PUSH2 0x1935 JUMP JUMPDEST DUP1 ISZERO PUSH2 0xE72 JUMPI DUP1 PUSH1 0x1F LT PUSH2 0xE47 JUMPI PUSH2 0x100 DUP1 DUP4 SLOAD DIV MUL DUP4 MSTORE SWAP2 PUSH1 0x20 ADD SWAP2 PUSH2 0xE72 JUMP JUMPDEST DUP3 ADD SWAP2 SWAP1 PUSH1 0x0 MSTORE PUSH1 0x20 PUSH1 0x0 KECCAK256 SWAP1 JUMPDEST DUP2 SLOAD DUP2 MSTORE SWAP1 PUSH1 0x1 ADD SWAP1 PUSH1 0x20 ADD DUP1 DUP4 GT PUSH2 0xE55 JUMPI DUP3 SWAP1 SUB PUSH1 0x1F AND DUP3 ADD SWAP2 JUMPDEST POP POP POP POP POP SWAP1 DUP1 PUSH1 0x2 ADD PUSH1 0x0 SWAP1 SLOAD SWAP1 PUSH2 0x100 EXP SWAP1 DIV PUSH1 0xFF AND SWAP1 POP DUP4 JUMP JUMPDEST PUSH1 0x5 PUSH1 0x0 SWAP1 SLOAD SWAP1 PUSH2 0x100 EXP SWAP1 DIV PUSH20 0xFFFFFFFFFFFFFFFFFFFFFFFFFFFFFFFFFFFFFFFF AND DUP2 JUMP JUMPDEST PUSH2 0xEBD PUSH2 0xFAC JUMP JUMPDEST PUSH20 0xFFFFFFFFFFFFFFFFFFFFFFFFFFFFFFFFFFFFFFFF AND PUSH2 0xEDB PUSH2 0x413 JUMP JUMPDEST PUSH20 0xFFFFFFFFFFFFFFFFFFFFFFFFFFFFFFFFFFFFFFFF AND EQ PUSH2 0xF31 JUMPI PUSH1 0x40 MLOAD PUSH32 0x8C379A000000000000000000000000000000000000000000000000000000000 DUP2 MSTORE PUSH1 0x4 ADD PUSH2 0xF28 SWAP1 PUSH2 0x164C JUMP JUMPDEST PUSH1 0x40 MLOAD DUP1 SWAP2 SUB SWAP1 REVERT JUMPDEST PUSH1 0x0 PUSH20 0xFFFFFFFFFFFFFFFFFFFFFFFFFFFFFFFFFFFFFFFF AND DUP2 PUSH20 0xFFFFFFFFFFFFFFFFFFFFFFFFFFFFFFFFFFFFFFFF AND SUB PUSH2 0xFA0 JUMPI PUSH1 0x40 MLOAD PUSH32 0x8C379A000000000000000000000000000000000000000000000000000000000 DUP2 MSTORE PUSH1 0x4 ADD PUSH2 0xF97 SWAP1 PUSH2 0x19D8 JUMP JUMPDEST PUSH1 0x40 MLOAD DUP1 SWAP2 SUB SWAP1 REVERT JUMPDEST PUSH2 0xFA9 DUP2 PUSH2 0xFB4 JUMP JUMPDEST POP JUMP JUMPDEST PUSH1 0x0 CALLER SWAP1 POP SWAP1 JUMP JUMPDEST PUSH1 0x0 PUSH1 0x4 PUSH1 0x0 SWAP1 SLOAD SWAP1 PUSH2 0x100 EXP SWAP1 DIV PUSH20 0xFFFFFFFFFFFFFFFFFFFFFFFFFFFFFFFFFFFFFFFF AND SWAP1 POP DUP2 PUSH1 0x4 PUSH1 0x0 PUSH2 0x100 EXP DUP2 SLOAD DUP2 PUSH20 0xFFFFFFFFFFFFFFFFFFFFFFFFFFFFFFFFFFFFFFFF MUL NOT AND SWAP1 DUP4 PUSH20 0xFFFFFFFFFFFFFFFFFFFFFFFFFFFFFFFFFFFFFFFF AND MUL OR SWAP1 SSTORE POP DUP2 PUSH20 0xFFFFFFFFFFFFFFFFFFFFFFFFFFFFFFFFFFFFFFFF AND DUP2 PUSH20 0xFFFFFFFFFFFFFFFFFFFFFFFFFFFFFFFFFFFFFFFF AND PUSH32 0x8BE0079C531659141344CD1FD0A4F28419497F9722A3DAAFE3B4186F6B6457E0 PUSH1 0x40 MLOAD PUSH1 0x40 MLOAD DUP1 SWAP2 SUB SWAP1 LOG3 POP POP JUMP JUMPDEST PUSH1 0x0 PUSH20 0xFFFFFFFFFFFFFFFFFFFFFFFFFFFFFFFFFFFFFFFF DUP3 AND SWAP1 POP SWAP2 SWAP1 POP JUMP JUMPDEST PUSH1 0x0 DUP2 SWAP1 POP SWAP2 SWAP1 POP JUMP JUMPDEST PUSH1 0x0 PUSH2 0x10BF PUSH2 0x10BA PUSH2 0x10B5 DUP5 PUSH2 0x107A JUMP JUMPDEST PUSH2 0x109A JUMP JUMPDEST PUSH2 0x107A JUMP JUMPDEST SWAP1 POP SWAP2 SWAP1 POP JUMP JUMPDEST PUSH1 0x0 PUSH2 0x10D1 DUP3 PUSH2 0x10A4 JUMP JUMPDEST SWAP1 POP SWAP2 SWAP1 POP JUMP JUMPDEST PUSH1 0x0 PUSH2 0x10E3 DUP3 PUSH2 0x10C6 JUMP JUMPDEST SWAP1 POP SWAP2 SWAP1 POP JUMP JUMPDEST PUSH2 0x10F3 DUP2 PUSH2 0x10D8 JUMP JUMPDEST DUP3 MSTORE POP POP JUMP JUMPDEST PUSH1 0x0 PUSH1 0x20 DUP3 ADD SWAP1 POP PUSH2 0x110E PUSH1 0x0 DUP4 ADD DUP5 PUSH2 0x10EA JUMP JUMPDEST SWAP3 SWAP2 POP POP JUMP JUMPDEST PUSH1 0x0 PUSH1 0x40 MLOAD SWAP1 POP SWAP1 JUMP JUMPDEST PUSH1 0x0 DUP1 REVERT JUMPDEST PUSH1 0x0 DUP1 REVERT JUMPDEST PUSH1 0x0 DUP2 SWAP1 POP SWAP2 SWAP1 POP JUMP JUMPDEST PUSH2 0x113B DUP2 PUSH2 0x1128 JUMP JUMPDEST DUP2 EQ PUSH2 0x1146 JUMPI PUSH1 0x0 DUP1 REVERT JUMPDEST POP JUMP JUMPDEST PUSH1 0x0 DUP2 CALLDATALOAD SWAP1 POP PUSH2 0x1158 DUP2 PUSH2 0x1132 JUMP JUMPDEST SWAP3 SWAP2 POP POP JUMP JUMPDEST PUSH1 0x0 PUSH1 0x20 DUP3 DUP5 SUB SLT ISZERO PUSH2 0x1174 JUMPI PUSH2 0x1173 PUSH2 0x111E JUMP JUMPDEST JUMPDEST PUSH1 0x0 PUSH2 0x1182 DUP5 DUP3 DUP6 ADD PUSH2 0x1149 JUMP JUMPDEST SWAP2 POP POP SWAP3 SWAP2 POP POP JUMP JUMPDEST PUSH1 0x0 PUSH2 0x1196 DUP3 PUSH2 0x107A JUMP JUMPDEST SWAP1 POP SWAP2 SWAP1 POP JUMP JUMPDEST PUSH2 0x11A6 DUP2 PUSH2 0x118B JUMP JUMPDEST DUP3 MSTORE POP POP JUMP JUMPDEST PUSH32 0x4E487B7100000000000000000000000000000000000000000000000000000000 PUSH1 0x0 MSTORE PUSH1 0x21 PUSH1 0x4 MSTORE PUSH1 0x24 PUSH1 0x0 REVERT JUMPDEST PUSH1 0x4 DUP2 LT PUSH2 0x11EC JUMPI PUSH2 0x11EB PUSH2 0x11AC JUMP JUMPDEST JUMPDEST POP JUMP JUMPDEST PUSH1 0x0 DUP2 SWAP1 POP PUSH2 0x11FD DUP3 PUSH2 0x11DB JUMP JUMPDEST SWAP2 SWAP1 POP JUMP JUMPDEST PUSH1 0x0 PUSH2 0x120D DUP3 PUSH2 0x11EF JUMP JUMPDEST SWAP1 POP SWAP2 SWAP1 POP JUMP JUMPDEST PUSH2 0x121D DUP2 PUSH2 0x1202 JUMP JUMPDEST DUP3 MSTORE POP POP JUMP JUMPDEST PUSH1 0x0 PUSH1 0x40 DUP3 ADD SWAP1 POP PUSH2 0x1238 PUSH1 0x0 DUP4 ADD DUP6 PUSH2 0x119D JUMP JUMPDEST PUSH2 0x1245 PUSH1 0x20 DUP4 ADD DUP5 PUSH2 0x1214 JUMP JUMPDEST SWAP4 SWAP3 POP POP POP JUMP JUMPDEST PUSH1 0x0 PUSH32 0xFFFFFFFF00000000000000000000000000000000000000000000000000000000 DUP3 AND SWAP1 POP SWAP2 SWAP1 POP JUMP JUMPDEST PUSH2 0x1281 DUP2 PUSH2 0x124C JUMP JUMPDEST DUP3 MSTORE POP POP JUMP JUMPDEST PUSH1 0x0 PUSH1 0x20 DUP3 ADD SWAP1 POP PUSH2 0x129C PUSH1 0x0 DUP4 ADD DUP5 PUSH2 0x1278 JUMP JUMPDEST SWAP3 SWAP2 POP POP JUMP JUMPDEST PUSH2 0x12AB DUP2 PUSH2 0x1128 JUMP JUMPDEST DUP3 MSTORE POP POP JUMP JUMPDEST PUSH1 0x0 PUSH1 0x60 DUP3 ADD SWAP1 POP PUSH2 0x12C6 PUSH1 0x0 DUP4 ADD DUP7 PUSH2 0x12A2 JUMP JUMPDEST PUSH2 0x12D3 PUSH1 0x20 DUP4 ADD DUP6 PUSH2 0x119D JUMP JUMPDEST PUSH2 0x12E0 PUSH1 0x40 DUP4 ADD DUP5 PUSH2 0x1214 JUMP JUMPDEST SWAP5 SWAP4 POP POP POP POP JUMP JUMPDEST PUSH1 0x0 PUSH1 0x20 DUP3 ADD SWAP1 POP PUSH2 0x12FD PUSH1 0x0 DUP4 ADD DUP5 PUSH2 0x119D JUMP JUMPDEST SWAP3 SWAP2 POP POP JUMP JUMPDEST PUSH2 0x130C DUP2 PUSH2 0x118B JUMP JUMPDEST DUP2 EQ PUSH2 0x1317 JUMPI PUSH1 0x0 DUP1 REVERT JUMPDEST POP JUMP JUMPDEST PUSH1 0x0 DUP2 CALLDATALOAD SWAP1 POP PUSH2 0x1329 DUP2 PUSH2 0x1303 JUMP JUMPDEST SWAP3 SWAP2 POP POP JUMP JUMPDEST PUSH1 0x0 PUSH1 0x20 DUP3 DUP5 SUB SLT ISZERO PUSH2 0x1345 JUMPI PUSH2 0x1344 PUSH2 0x111E JUMP JUMPDEST JUMPDEST PUSH1 0x0 PUSH2 0x1353 DUP5 DUP3 DUP6 ADD PUSH2 0x131A JUMP JUMPDEST SWAP2 POP POP SWAP3 SWAP2 POP POP JUMP JUMPDEST PUSH1 0x0 PUSH1 0x20 DUP3 ADD SWAP1 POP PUSH2 0x1371 PUSH1 0x0 DUP4 ADD DUP5 PUSH2 0x12A2 JUMP JUMPDEST SWAP3 SWAP2 POP POP JUMP JUMPDEST PUSH1 0x0 DUP1 REVERT JUMPDEST PUSH1 0x0 DUP1 REVERT JUMPDEST PUSH1 0x0 PUSH1 0x1F NOT PUSH1 0x1F DUP4 ADD AND SWAP1 POP SWAP2 SWAP1 POP JUMP JUMPDEST PUSH32 0x4E487B7100000000000000000000000000000000000000000000000000000000 PUSH1 0x0 MSTORE PUSH1 0x41 PUSH1 0x4 MSTORE PUSH1 0x24 PUSH1 0x0 REVERT JUMPDEST PUSH2 0x13CA DUP3 PUSH2 0x1381 JUMP JUMPDEST DUP2 ADD DUP2 DUP2 LT PUSH8 0xFFFFFFFFFFFFFFFF DUP3 GT OR ISZERO PUSH2 0x13E9 JUMPI PUSH2 0x13E8 PUSH2 0x1392 JUMP JUMPDEST JUMPDEST DUP1 PUSH1 0x40 MSTORE POP POP POP JUMP JUMPDEST PUSH1 0x0 PUSH2 0x13FC PUSH2 0x1114 JUMP JUMPDEST SWAP1 POP PUSH2 0x1408 DUP3 DUP3 PUSH2 0x13C1 JUMP JUMPDEST SWAP2 SWAP1 POP JUMP JUMPDEST PUSH1 0x0 PUSH8 0xFFFFFFFFFFFFFFFF DUP3 GT ISZERO PUSH2 0x1428 JUMPI PUSH2 0x1427 PUSH2 0x1392 JUMP JUMPDEST JUMPDEST PUSH2 0x1431 DUP3 PUSH2 0x1381 JUMP JUMPDEST SWAP1 POP PUSH1 0x20 DUP2 ADD SWAP1 POP SWAP2 SWAP1 POP JUMP JUMPDEST DUP3 DUP2 DUP4 CALLDATACOPY PUSH1 0x0 DUP4 DUP4 ADD MSTORE POP POP POP JUMP JUMPDEST PUSH1 0x0 PUSH2 0x1460 PUSH2 0x145B DUP5 PUSH2 0x140D JUMP JUMPDEST PUSH2 0x13F2 JUMP JUMPDEST SWAP1 POP DUP3 DUP2 MSTORE PUSH1 0x20 DUP2 ADD DUP5 DUP5 DUP5 ADD GT ISZERO PUSH2 0x147C JUMPI PUSH2 0x147B PUSH2 0x137C JUMP JUMPDEST JUMPDEST PUSH2 0x1487 DUP5 DUP3 DUP6 PUSH2 0x143E JUMP JUMPDEST POP SWAP4 SWAP3 POP POP POP JUMP JUMPDEST PUSH1 0x0 DUP3 PUSH1 0x1F DUP4 ADD SLT PUSH2 0x14A4 JUMPI PUSH2 0x14A3 PUSH2 0x1377 JUMP JUMPDEST JUMPDEST DUP2 CALLDATALOAD PUSH2 0x14B4 DUP5 DUP3 PUSH1 0x20 DUP7 ADD PUSH2 0x144D JUMP JUMPDEST SWAP2 POP POP SWAP3 SWAP2 POP POP JUMP JUMPDEST PUSH1 0x0 PUSH1 0x20 DUP3 DUP5 SUB SLT ISZERO PUSH2 0x14D3 JUMPI PUSH2 0x14D2 PUSH2 0x111E JUMP JUMPDEST JUMPDEST PUSH1 0x0 DUP3 ADD CALLDATALOAD PUSH8 0xFFFFFFFFFFFFFFFF DUP2 GT ISZERO PUSH2 0x14F1 JUMPI PUSH2 0x14F0 PUSH2 0x1123 JUMP JUMPDEST JUMPDEST PUSH2 0x14FD DUP5 DUP3 DUP6 ADD PUSH2 0x148F JUMP JUMPDEST SWAP2 POP POP SWAP3 SWAP2 POP POP JUMP JUMPDEST PUSH1 0x0 DUP2 SWAP1 POP SWAP2 SWAP1 POP JUMP JUMPDEST PUSH2 0x1519 DUP2 PUSH2 0x1506 JUMP JUMPDEST DUP3 MSTORE POP POP JUMP JUMPDEST PUSH1 0x0 DUP2 MLOAD SWAP1 POP SWAP2 SWAP1 POP JUMP JUMPDEST PUSH1 0x0 DUP3 DUP3 MSTORE PUSH1 0x20 DUP3 ADD SWAP1 POP SWAP3 SWAP2 POP POP JUMP JUMPDEST PUSH1 0x0 JUMPDEST DUP4 DUP2 LT ISZERO PUSH2 0x1559 JUMPI DUP1 DUP3 ADD MLOAD DUP2 DUP5 ADD MSTORE PUSH1 0x20 DUP2 ADD SWAP1 POP PUSH2 0x153E JUMP JUMPDEST DUP4 DUP2 GT ISZERO PUSH2 0x1568 JUMPI PUSH1 0x0 DUP5 DUP5 ADD MSTORE JUMPDEST POP POP POP POP JUMP JUMPDEST PUSH1 0x0 PUSH2 0x1579 DUP3 PUSH2 0x151F JUMP JUMPDEST PUSH2 0x1583 DUP2 DUP6 PUSH2 0x152A JUMP JUMPDEST SWAP4 POP PUSH2 0x1593 DUP2 DUP6 PUSH1 0x20 DUP7 ADD PUSH2 0x153B JUMP JUMPDEST PUSH2 0x159C DUP2 PUSH2 0x1381 JUMP JUMPDEST DUP5 ADD SWAP2 POP POP SWAP3 SWAP2 POP POP JUMP JUMPDEST PUSH1 0x0 DUP2 ISZERO ISZERO SWAP1 POP SWAP2 SWAP1 POP JUMP JUMPDEST PUSH2 0x15BC DUP2 PUSH2 0x15A7 JUMP JUMPDEST DUP3 MSTORE POP POP JUMP JUMPDEST PUSH1 0x0 PUSH1 0x60 DUP3 ADD SWAP1 POP PUSH2 0x15D7 PUSH1 0x0 DUP4 ADD DUP7 PUSH2 0x1510 JUMP JUMPDEST DUP2 DUP2 SUB PUSH1 0x20 DUP4 ADD MSTORE PUSH2 0x15E9 DUP2 DUP6 PUSH2 0x156E JUMP JUMPDEST SWAP1 POP PUSH2 0x15F8 PUSH1 0x40 DUP4 ADD DUP5 PUSH2 0x15B3 JUMP JUMPDEST SWAP5 SWAP4 POP POP POP POP JUMP JUMPDEST PUSH32 0x4F776E61626C653A2063616C6C6572206973206E6F7420746865206F776E6572 PUSH1 0x0 DUP3 ADD MSTORE POP JUMP JUMPDEST PUSH1 0x0 PUSH2 0x1636 PUSH1 0x20 DUP4 PUSH2 0x152A JUMP JUMPDEST SWAP2 POP PUSH2 0x1641 DUP3 PUSH2 0x1600 JUMP JUMPDEST PUSH1 0x20 DUP3 ADD SWAP1 POP SWAP2 SWAP1 POP JUMP JUMPDEST PUSH1 0x0 PUSH1 0x20 DUP3 ADD SWAP1 POP DUP2 DUP2 SUB PUSH1 0x0 DUP4 ADD MSTORE PUSH2 0x1665 DUP2 PUSH2 0x1629 JUMP JUMPDEST SWAP1 POP SWAP2 SWAP1 POP JUMP JUMPDEST PUSH1 0x0 DUP2 SWAP1 POP SWAP3 SWAP2 POP POP JUMP JUMPDEST PUSH32 0x42524F4E5A450000000000000000000000000000000000000000000000000000 PUSH1 0x0 DUP3 ADD MSTORE POP JUMP JUMPDEST PUSH1 0x0 PUSH2 0x16AD PUSH1 0x6 DUP4 PUSH2 0x166C JUMP JUMPDEST SWAP2 POP PUSH2 0x16B8 DUP3 PUSH2 0x1677 JUMP JUMPDEST PUSH1 0x6 DUP3 ADD SWAP1 POP SWAP2 SWAP1 POP JUMP JUMPDEST PUSH1 0x0 PUSH2 0x16CE DUP3 PUSH2 0x16A0 JUMP JUMPDEST SWAP2 POP DUP2 SWAP1 POP SWAP2 SWAP1 POP JUMP JUMPDEST PUSH1 0x0 PUSH2 0x16E3 DUP3 PUSH2 0x151F JUMP JUMPDEST PUSH2 0x16ED DUP2 DUP6 PUSH2 0x166C JUMP JUMPDEST SWAP4 POP PUSH2 0x16FD DUP2 DUP6 PUSH1 0x20 DUP7 ADD PUSH2 0x153B JUMP JUMPDEST DUP1 DUP5 ADD SWAP2 POP POP SWAP3 SWAP2 POP POP JUMP JUMPDEST PUSH1 0x0 PUSH2 0x1715 DUP3 DUP5 PUSH2 0x16D8 JUMP JUMPDEST SWAP2 POP DUP2 SWAP1 POP SWAP3 SWAP2 POP POP JUMP JUMPDEST PUSH32 0x53494C5645520000000000000000000000000000000000000000000000000000 PUSH1 0x0 DUP3 ADD MSTORE POP JUMP JUMPDEST PUSH1 0x0 PUSH2 0x1756 PUSH1 0x6 DUP4 PUSH2 0x166C JUMP JUMPDEST SWAP2 POP PUSH2 0x1761 DUP3 PUSH2 0x1720 JUMP JUMPDEST PUSH1 0x6 DUP3 ADD SWAP1 POP SWAP2 SWAP1 POP JUMP JUMPDEST PUSH1 0x0 PUSH2 0x1777 DUP3 PUSH2 0x1749 JUMP JUMPDEST SWAP2 POP DUP2 SWAP1 POP SWAP2 SWAP1 POP JUMP JUMPDEST PUSH32 0x474F4C4400000000000000000000000000000000000000000000000000000000 PUSH1 0x0 DUP3 ADD MSTORE POP JUMP JUMPDEST PUSH1 0x0 PUSH2 0x17B7 PUSH1 0x4 DUP4 PUSH2 0x166C JUMP JUMPDEST SWAP2 POP PUSH2 0x17C2 DUP3 PUSH2 0x1781 JUMP JUMPDEST PUSH1 0x4 DUP3 ADD SWAP1 POP SWAP2 SWAP1 POP JUMP JUMPDEST PUSH1 0x0 PUSH2 0x17D8 DUP3 PUSH2 0x17AA JUMP JUMPDEST SWAP2 POP DUP2 SWAP1 POP SWAP2 SWAP1 POP JUMP JUMPDEST PUSH1 0x0 PUSH1 0x60 DUP3 ADD SWAP1 POP PUSH2 0x17F7 PUSH1 0x0 DUP4 ADD DUP7 PUSH2 0x119D JUMP JUMPDEST PUSH2 0x1804 PUSH1 0x20 DUP4 ADD DUP6 PUSH2 0x119D JUMP JUMPDEST PUSH2 0x1811 PUSH1 0x40 DUP4 ADD DUP5 PUSH2 0x12A2 JUMP JUMPDEST SWAP5 SWAP4 POP POP POP POP JUMP JUMPDEST PUSH2 0x1822 DUP2 PUSH2 0x15A7 JUMP JUMPDEST DUP2 EQ PUSH2 0x182D JUMPI PUSH1 0x0 DUP1 REVERT JUMPDEST POP JUMP JUMPDEST PUSH1 0x0 DUP2 MLOAD SWAP1 POP PUSH2 0x183F DUP2 PUSH2 0x1819 JUMP JUMPDEST SWAP3 SWAP2 POP POP JUMP JUMPDEST PUSH1 0x0 PUSH1 0x20 DUP3 DUP5 SUB SLT ISZERO PUSH2 0x185B JUMPI PUSH2 0x185A PUSH2 0x111E JUMP JUMPDEST JUMPDEST PUSH1 0x0 PUSH2 0x1869 DUP5 DUP3 DUP6 ADD PUSH2 0x1830 JUMP JUMPDEST SWAP2 POP POP SWAP3 SWAP2 POP POP JUMP JUMPDEST PUSH1 0x0 PUSH1 0x20 DUP3 ADD SWAP1 POP DUP2 DUP2 SUB PUSH1 0x0 DUP4 ADD MSTORE PUSH2 0x188C DUP2 DUP5 PUSH2 0x156E JUMP JUMPDEST SWAP1 POP SWAP3 SWAP2 POP POP JUMP JUMPDEST PUSH1 0x0 DUP2 MLOAD SWAP1 POP PUSH2 0x18A3 DUP2 PUSH2 0x1132 JUMP JUMPDEST SWAP3 SWAP2 POP POP JUMP JUMPDEST PUSH1 0x0 PUSH1 0x20 DUP3 DUP5 SUB SLT ISZERO PUSH2 0x18BF JUMPI PUSH2 0x18BE PUSH2 0x111E JUMP JUMPDEST JUMPDEST PUSH1 0x0 PUSH2 0x18CD DUP5 DUP3 DUP6 ADD PUSH2 0x1894 JUMP JUMPDEST SWAP2 POP POP SWAP3 SWAP2 POP POP JUMP JUMPDEST PUSH1 0x0 PUSH1 0x40 DUP3 ADD SWAP1 POP PUSH2 0x18EB PUSH1 0x0 DUP4 ADD DUP6 PUSH2 0x12A2 JUMP JUMPDEST DUP2 DUP2 SUB PUSH1 0x20 DUP4 ADD MSTORE PUSH2 0x18FD DUP2 DUP5 PUSH2 0x156E JUMP JUMPDEST SWAP1 POP SWAP4 SWAP3 POP POP POP JUMP JUMPDEST PUSH32 0x4E487B7100000000000000000000000000000000000000000000000000000000 PUSH1 0x0 MSTORE PUSH1 0x22 PUSH1 0x4 MSTORE PUSH1 0x24 PUSH1 0x0 REVERT JUMPDEST PUSH1 0x0 PUSH1 0x2 DUP3 DIV SWAP1 POP PUSH1 0x1 DUP3 AND DUP1 PUSH2 0x194D JUMPI PUSH1 0x7F DUP3 AND SWAP2 POP JUMPDEST PUSH1 0x20 DUP3 LT DUP2 SUB PUSH2 0x1960 JUMPI PUSH2 0x195F PUSH2 0x1906 JUMP JUMPDEST JUMPDEST POP SWAP2 SWAP1 POP JUMP JUMPDEST PUSH32 0x4F776E61626C653A206E6577206F776E657220697320746865207A65726F2061 PUSH1 0x0 DUP3 ADD MSTORE PUSH32 0x6464726573730000000000000000000000000000000000000000000000000000 PUSH1 0x20 DUP3 ADD MSTORE POP JUMP JUMPDEST PUSH1 0x0 PUSH2 0x19C2 PUSH1 0x26 DUP4 PUSH2 0x152A JUMP JUMPDEST SWAP2 POP PUSH2 0x19CD DUP3 PUSH2 0x1966 JUMP JUMPDEST PUSH1 0x40 DUP3 ADD SWAP1 POP SWAP2 SWAP1 POP JUMP JUMPDEST PUSH1 0x0 PUSH1 0x20 DUP3 ADD SWAP1 POP DUP2 DUP2 SUB PUSH1 0x0 DUP4 ADD MSTORE PUSH2 0x19F1 DUP2 PUSH2 0x19B5 JUMP JUMPDEST SWAP1 POP SWAP2 SWAP1 POP JUMP INVALID LOG2 PUSH5 0x6970667358 0x22 SLT KECCAK256 MULMOD 0xE1 DUP11 SWAP14 ADDMOD 0xEA PUSH4 0xFF185E15 0xF7 SWAP5 0xC1 0xC 0x29 0xA6 0xAF SWAP10 DUP2 MSTORE8 0xF7 0xC2 0xEA 0xC3 DUP14 0x4F 0xE5 SDIV 0x4F DUP3 SWAP1 PUSH5 0x736F6C6343 STOP ADDMOD 0xD STOP CALLER "
				},
				"gasEstimates": {
					"creation": {
						"codeDepositCost": "1340400",
						"executionCost": "infinite",
						"totalCost": "infinite"
					},
					"external": {
						"ERC721_Interface()": "409",
						"activeItem(uint256)": "infinite",
						"bronzeActivePrice()": "2474",
						"goldActivePrice()": "2452",
						"ingameItem(uint256)": "infinite",
						"mintActiveItem(string)": "infinite",
						"nftContract()": "2580",
						"owner()": "2589",
						"renounceOwnership()": "30419",
						"setSQFToken(address)": "27051",
						"silverActivePrice()": "2496",
						"sqfToken()": "infinite",
						"transferOwnership(address)": "30808",
						"userStatus(uint256)": "5303"
					}
				},
				"methodIdentifiers": {
					"ERC721_Interface()": "2b4c32be",
					"activeItem(uint256)": "58dd8603",
					"bronzeActivePrice()": "ac4867f0",
					"goldActivePrice()": "aa6a0dac",
					"ingameItem(uint256)": "d30bdac9",
					"mintActiveItem(string)": "c04772d5",
					"nftContract()": "d56d229d",
					"owner()": "8da5cb5b",
					"renounceOwnership()": "715018a6",
					"setSQFToken(address)": "92bf77dd",
					"silverActivePrice()": "af1b3d5e",
					"sqfToken()": "15b81dc3",
					"transferOwnership(address)": "f2fde38b",
					"userStatus(uint256)": "1f7775ad"
				}
			},
			"storageLayout": {
				"storage": [
					{
						"astId": 126,
						"contract": "contracts/NFTContract3/SQFIFactory.sol:SQFItemFactory",
						"label": "sqfToken",
						"offset": 0,
						"slot": "0",
						"type": "t_contract(IERC20)90"
					},
					{
						"astId": 131,
						"contract": "contracts/NFTContract3/SQFIFactory.sol:SQFItemFactory",
						"label": "activeItem",
						"offset": 0,
						"slot": "1",
						"type": "t_mapping(t_uint256,t_struct(activeItems)104_storage)"
					},
					{
						"astId": 136,
						"contract": "contracts/NFTContract3/SQFIFactory.sol:SQFItemFactory",
						"label": "ingameItem",
						"offset": 0,
						"slot": "2",
						"type": "t_mapping(t_uint256,t_struct(ingameItems)111_storage)"
					},
					{
						"astId": 141,
						"contract": "contracts/NFTContract3/SQFIFactory.sol:SQFItemFactory",
						"label": "userStatus",
						"offset": 0,
						"slot": "3",
						"type": "t_mapping(t_uint256,t_struct(usersStatus)117_storage)"
					},
					{
						"astId": 186,
						"contract": "contracts/NFTContract3/SQFIFactory.sol:SQFItemFactory",
						"label": "_owner",
						"offset": 0,
						"slot": "4",
						"type": "t_address"
					},
					{
						"astId": 430,
						"contract": "contracts/NFTContract3/SQFIFactory.sol:SQFItemFactory",
						"label": "nftContract",
						"offset": 0,
						"slot": "5",
						"type": "t_address"
					},
					{
						"astId": 432,
						"contract": "contracts/NFTContract3/SQFIFactory.sol:SQFItemFactory",
						"label": "bronzeActivePrice",
						"offset": 0,
						"slot": "6",
						"type": "t_uint256"
					},
					{
						"astId": 434,
						"contract": "contracts/NFTContract3/SQFIFactory.sol:SQFItemFactory",
						"label": "silverActivePrice",
						"offset": 0,
						"slot": "7",
						"type": "t_uint256"
					},
					{
						"astId": 436,
						"contract": "contracts/NFTContract3/SQFIFactory.sol:SQFItemFactory",
						"label": "goldActivePrice",
						"offset": 0,
						"slot": "8",
						"type": "t_uint256"
					},
					{
						"astId": 439,
						"contract": "contracts/NFTContract3/SQFIFactory.sol:SQFItemFactory",
						"label": "SQFI",
						"offset": 0,
						"slot": "9",
						"type": "t_contract(ISQFI)423"
					}
				],
				"types": {
					"t_address": {
						"encoding": "inplace",
						"label": "address",
						"numberOfBytes": "20"
					},
					"t_bool": {
						"encoding": "inplace",
						"label": "bool",
						"numberOfBytes": "1"
					},
					"t_bytes32": {
						"encoding": "inplace",
						"label": "bytes32",
						"numberOfBytes": "32"
					},
					"t_contract(IERC20)90": {
						"encoding": "inplace",
						"label": "contract IERC20",
						"numberOfBytes": "20"
					},
					"t_contract(ISQFI)423": {
						"encoding": "inplace",
						"label": "contract ISQFI",
						"numberOfBytes": "20"
					},
					"t_enum(activeStatus)96": {
						"encoding": "inplace",
						"label": "enum FactoryStorage.activeStatus",
						"numberOfBytes": "1"
					},
					"t_mapping(t_uint256,t_struct(activeItems)104_storage)": {
						"encoding": "mapping",
						"key": "t_uint256",
						"label": "mapping(uint256 => struct FactoryStorage.activeItems)",
						"numberOfBytes": "32",
						"value": "t_struct(activeItems)104_storage"
					},
					"t_mapping(t_uint256,t_struct(ingameItems)111_storage)": {
						"encoding": "mapping",
						"key": "t_uint256",
						"label": "mapping(uint256 => struct FactoryStorage.ingameItems)",
						"numberOfBytes": "32",
						"value": "t_struct(ingameItems)111_storage"
					},
					"t_mapping(t_uint256,t_struct(usersStatus)117_storage)": {
						"encoding": "mapping",
						"key": "t_uint256",
						"label": "mapping(uint256 => struct FactoryStorage.usersStatus)",
						"numberOfBytes": "32",
						"value": "t_struct(usersStatus)117_storage"
					},
					"t_string_storage": {
						"encoding": "bytes",
						"label": "string",
						"numberOfBytes": "32"
					},
					"t_struct(activeItems)104_storage": {
						"encoding": "inplace",
						"label": "struct FactoryStorage.activeItems",
						"members": [
							{
								"astId": 98,
								"contract": "contracts/NFTContract3/SQFIFactory.sol:SQFItemFactory",
								"label": "id",
								"offset": 0,
								"slot": "0",
								"type": "t_uint256"
							},
							{
								"astId": 100,
								"contract": "contracts/NFTContract3/SQFIFactory.sol:SQFItemFactory",
								"label": "owner",
								"offset": 0,
								"slot": "1",
								"type": "t_address"
							},
							{
								"astId": 103,
								"contract": "contracts/NFTContract3/SQFIFactory.sol:SQFItemFactory",
								"label": "status",
								"offset": 20,
								"slot": "1",
								"type": "t_enum(activeStatus)96"
							}
						],
						"numberOfBytes": "64"
					},
					"t_struct(ingameItems)111_storage": {
						"encoding": "inplace",
						"label": "struct FactoryStorage.ingameItems",
						"members": [
							{
								"astId": 106,
								"contract": "contracts/NFTContract3/SQFIFactory.sol:SQFItemFactory",
								"label": "id",
								"offset": 0,
								"slot": "0",
								"type": "t_bytes32"
							},
							{
								"astId": 108,
								"contract": "contracts/NFTContract3/SQFIFactory.sol:SQFItemFactory",
								"label": "itemId",
								"offset": 0,
								"slot": "1",
								"type": "t_string_storage"
							},
							{
								"astId": 110,
								"contract": "contracts/NFTContract3/SQFIFactory.sol:SQFItemFactory",
								"label": "ingame",
								"offset": 0,
								"slot": "2",
								"type": "t_bool"
							}
						],
						"numberOfBytes": "96"
					},
					"t_struct(usersStatus)117_storage": {
						"encoding": "inplace",
						"label": "struct FactoryStorage.usersStatus",
						"members": [
							{
								"astId": 113,
								"contract": "contracts/NFTContract3/SQFIFactory.sol:SQFItemFactory",
								"label": "user",
								"offset": 0,
								"slot": "0",
								"type": "t_address"
							},
							{
								"astId": 116,
								"contract": "contracts/NFTContract3/SQFIFactory.sol:SQFItemFactory",
								"label": "status",
								"offset": 20,
								"slot": "0",
								"type": "t_enum(activeStatus)96"
							}
						],
						"numberOfBytes": "32"
					},
					"t_uint256": {
						"encoding": "inplace",
						"label": "uint256",
						"numberOfBytes": "32"
					}
				}
			},
			"userdoc": {
				"kind": "user",
				"methods": {},
				"version": 1
			}
		}
	}
}