{
	"contracts/NFTContract3/FactoryStorage.sol": {
		"FactoryStorage": {
			"abi": [
				{
					"anonymous": false,
					"inputs": [
						{
							"indexed": true,
							"internalType": "address",
							"name": "user",
							"type": "address"
						},
						{
							"indexed": false,
							"internalType": "string",
							"name": "status",
							"type": "string"
						}
					],
					"name": "ActiveAccount",
					"type": "event"
				},
				{
					"anonymous": false,
					"inputs": [
						{
							"indexed": true,
							"internalType": "address",
							"name": "owner",
							"type": "address"
						},
						{
							"indexed": false,
							"internalType": "string",
							"name": "tokenId",
							"type": "string"
						}
					],
					"name": "Burn",
					"type": "event"
				},
				{
					"anonymous": false,
					"inputs": [
						{
							"indexed": true,
							"internalType": "address",
							"name": "receiver",
							"type": "address"
						},
						{
							"indexed": false,
							"internalType": "string",
							"name": "tokenId",
							"type": "string"
						}
					],
					"name": "Claim",
					"type": "event"
				},
				{
					"anonymous": false,
					"inputs": [
						{
							"indexed": true,
							"internalType": "address",
							"name": "to",
							"type": "address"
						},
						{
							"indexed": false,
							"internalType": "string",
							"name": "tokenId",
							"type": "string"
						}
					],
					"name": "Mint",
					"type": "event"
				},
				{
					"inputs": [],
					"name": "ERC721_Interface",
					"outputs": [
						{
							"internalType": "bytes4",
							"name": "",
							"type": "bytes4"
						}
					],
					"stateMutability": "view",
					"type": "function"
				},
				{
					"inputs": [
						{
							"internalType": "uint256",
							"name": "",
							"type": "uint256"
						}
					],
					"name": "activeItem",
					"outputs": [
						{
							"internalType": "uint256",
							"name": "id",
							"type": "uint256"
						},
						{
							"internalType": "address",
							"name": "owner",
							"type": "address"
						},
						{
							"internalType": "enum FactoryStorage.activeStatus",
							"name": "status",
							"type": "uint8"
						}
					],
					"stateMutability": "view",
					"type": "function"
				},
				{
					"inputs": [
						{
							"internalType": "uint256",
							"name": "",
							"type": "uint256"
						}
					],
					"name": "ingameItem",
					"outputs": [
						{
							"internalType": "uint256",
							"name": "id",
							"type": "uint256"
						},
						{
							"internalType": "address",
							"name": "owner",
							"type": "address"
						},
						{
							"internalType": "string",
							"name": "itemId",
							"type": "string"
						},
						{
							"internalType": "bool",
							"name": "ingame",
							"type": "bool"
						}
					],
					"stateMutability": "view",
					"type": "function"
				},
				{
					"inputs": [],
					"name": "sqfToken",
					"outputs": [
						{
							"internalType": "contract IERC20",
							"name": "",
							"type": "address"
						}
					],
					"stateMutability": "view",
					"type": "function"
				},
				{
					"inputs": [
						{
							"internalType": "uint256",
							"name": "",
							"type": "uint256"
						}
					],
					"name": "userStatus",
					"outputs": [
						{
							"internalType": "address",
							"name": "user",
							"type": "address"
						},
						{
							"internalType": "enum FactoryStorage.activeStatus",
							"name": "status",
							"type": "uint8"
						}
					],
					"stateMutability": "view",
					"type": "function"
				}
			],
			"devdoc": {
				"kind": "dev",
				"methods": {},
				"version": 1
			},
			"evm": {
				"assembly": "    /* \"contracts/NFTContract3/FactoryStorage.sol\":837:1834  contract FactoryStorage {... */\n  mstore(0x40, 0x80)\n  callvalue\n  dup1\n  iszero\n  tag_1\n  jumpi\n  0x00\n  dup1\n  revert\ntag_1:\n  pop\n  dataSize(sub_0)\n  dup1\n  dataOffset(sub_0)\n  0x00\n  codecopy\n  0x00\n  return\nstop\n\nsub_0: assembly {\n        /* \"contracts/NFTContract3/FactoryStorage.sol\":837:1834  contract FactoryStorage {... */\n      mstore(0x40, 0x80)\n      callvalue\n      dup1\n      iszero\n      tag_1\n      jumpi\n      0x00\n      dup1\n      revert\n    tag_1:\n      pop\n      jumpi(tag_2, lt(calldatasize, 0x04))\n      shr(0xe0, calldataload(0x00))\n      dup1\n      0x15b81dc3\n      eq\n      tag_3\n      jumpi\n      dup1\n      0x1f7775ad\n      eq\n      tag_4\n      jumpi\n      dup1\n      0x2b4c32be\n      eq\n      tag_5\n      jumpi\n      dup1\n      0x58dd8603\n      eq\n      tag_6\n      jumpi\n      dup1\n      0xd30bdac9\n      eq\n      tag_7\n      jumpi\n    tag_2:\n      0x00\n      dup1\n      revert\n        /* \"contracts/NFTContract3/FactoryStorage.sol\":1341:1363  IERC20 public sqfToken */\n    tag_3:\n      tag_8\n      tag_9\n      jump\t// in\n    tag_8:\n      mload(0x40)\n      tag_10\n      swap2\n      swap1\n      tag_11\n      jump\t// in\n    tag_10:\n      mload(0x40)\n      dup1\n      swap2\n      sub\n      swap1\n      return\n        /* \"contracts/NFTContract3/FactoryStorage.sol\":1551:1600  mapping(uint256 => usersStatus) public userStatus */\n    tag_4:\n      tag_12\n      0x04\n      dup1\n      calldatasize\n      sub\n      dup2\n      add\n      swap1\n      tag_13\n      swap2\n      swap1\n      tag_14\n      jump\t// in\n    tag_13:\n      tag_15\n      jump\t// in\n    tag_12:\n      mload(0x40)\n      tag_16\n      swap3\n      swap2\n      swap1\n      tag_17\n      jump\t// in\n    tag_16:\n      mload(0x40)\n      dup1\n      swap2\n      sub\n      swap1\n      return\n        /* \"contracts/NFTContract3/FactoryStorage.sol\":1275:1335  bytes4 public constant ERC721_Interface = bytes4(0x80ac58cd) */\n    tag_5:\n      tag_18\n      tag_19\n      jump\t// in\n    tag_18:\n      mload(0x40)\n      tag_20\n      swap2\n      swap1\n      tag_21\n      jump\t// in\n    tag_20:\n      mload(0x40)\n      dup1\n      swap2\n      sub\n      swap1\n      return\n        /* \"contracts/NFTContract3/FactoryStorage.sol\":1441:1490  mapping(uint256 => activeItems) public activeItem */\n    tag_6:\n      tag_22\n      0x04\n      dup1\n      calldatasize\n      sub\n      dup2\n      add\n      swap1\n      tag_23\n      swap2\n      swap1\n      tag_14\n      jump\t// in\n    tag_23:\n      tag_24\n      jump\t// in\n    tag_22:\n      mload(0x40)\n      tag_25\n      swap4\n      swap3\n      swap2\n      swap1\n      tag_26\n      jump\t// in\n    tag_25:\n      mload(0x40)\n      dup1\n      swap2\n      sub\n      swap1\n      return\n        /* \"contracts/NFTContract3/FactoryStorage.sol\":1496:1545  mapping(uint256 => ingameItems) public ingameItem */\n    tag_7:\n      tag_27\n      0x04\n      dup1\n      calldatasize\n      sub\n      dup2\n      add\n      swap1\n      tag_28\n      swap2\n      swap1\n      tag_14\n      jump\t// in\n    tag_28:\n      tag_29\n      jump\t// in\n    tag_27:\n      mload(0x40)\n      tag_30\n      swap5\n      swap4\n      swap3\n      swap2\n      swap1\n      tag_31\n      jump\t// in\n    tag_30:\n      mload(0x40)\n      dup1\n      swap2\n      sub\n      swap1\n      return\n        /* \"contracts/NFTContract3/FactoryStorage.sol\":1341:1363  IERC20 public sqfToken */\n    tag_9:\n      0x00\n      dup1\n      sload\n      swap1\n      0x0100\n      exp\n      swap1\n      div\n      0xffffffffffffffffffffffffffffffffffffffff\n      and\n      dup2\n      jump\t// out\n        /* \"contracts/NFTContract3/FactoryStorage.sol\":1551:1600  mapping(uint256 => usersStatus) public userStatus */\n    tag_15:\n      mstore(0x20, 0x03)\n      dup1\n      0x00\n      mstore\n      keccak256(0x00, 0x40)\n      0x00\n      swap2\n      pop\n      swap1\n      pop\n      dup1\n      0x00\n      add\n      0x00\n      swap1\n      sload\n      swap1\n      0x0100\n      exp\n      swap1\n      div\n      0xffffffffffffffffffffffffffffffffffffffff\n      and\n      swap1\n      dup1\n      0x00\n      add\n      0x14\n      swap1\n      sload\n      swap1\n      0x0100\n      exp\n      swap1\n      div\n      0xff\n      and\n      swap1\n      pop\n      dup3\n      jump\t// out\n        /* \"contracts/NFTContract3/FactoryStorage.sol\":1275:1335  bytes4 public constant ERC721_Interface = bytes4(0x80ac58cd) */\n    tag_19:\n        /* \"contracts/NFTContract3/FactoryStorage.sol\":1324:1334  0x80ac58cd */\n      0x80ac58cd\n        /* \"contracts/NFTContract3/FactoryStorage.sol\":1317:1335  bytes4(0x80ac58cd) */\n      0xe0\n      shl\n        /* \"contracts/NFTContract3/FactoryStorage.sol\":1275:1335  bytes4 public constant ERC721_Interface = bytes4(0x80ac58cd) */\n      dup2\n      jump\t// out\n        /* \"contracts/NFTContract3/FactoryStorage.sol\":1441:1490  mapping(uint256 => activeItems) public activeItem */\n    tag_24:\n      mstore(0x20, 0x01)\n      dup1\n      0x00\n      mstore\n      keccak256(0x00, 0x40)\n      0x00\n      swap2\n      pop\n      swap1\n      pop\n      dup1\n      0x00\n      add\n      sload\n      swap1\n      dup1\n      0x01\n      add\n      0x00\n      swap1\n      sload\n      swap1\n      0x0100\n      exp\n      swap1\n      div\n      0xffffffffffffffffffffffffffffffffffffffff\n      and\n      swap1\n      dup1\n      0x01\n      add\n      0x14\n      swap1\n      sload\n      swap1\n      0x0100\n      exp\n      swap1\n      div\n      0xff\n      and\n      swap1\n      pop\n      dup4\n      jump\t// out\n        /* \"contracts/NFTContract3/FactoryStorage.sol\":1496:1545  mapping(uint256 => ingameItems) public ingameItem */\n    tag_29:\n      mstore(0x20, 0x02)\n      dup1\n      0x00\n      mstore\n      keccak256(0x00, 0x40)\n      0x00\n      swap2\n      pop\n      swap1\n      pop\n      dup1\n      0x00\n      add\n      sload\n      swap1\n      dup1\n      0x01\n      add\n      0x00\n      swap1\n      sload\n      swap1\n      0x0100\n      exp\n      swap1\n      div\n      0xffffffffffffffffffffffffffffffffffffffff\n      and\n      swap1\n      dup1\n      0x02\n      add\n      dup1\n      sload\n      tag_32\n      swap1\n      tag_33\n      jump\t// in\n    tag_32:\n      dup1\n      0x1f\n      add\n      0x20\n      dup1\n      swap2\n      div\n      mul\n      0x20\n      add\n      mload(0x40)\n      swap1\n      dup2\n      add\n      0x40\n      mstore\n      dup1\n      swap3\n      swap2\n      swap1\n      dup2\n      dup2\n      mstore\n      0x20\n      add\n      dup3\n      dup1\n      sload\n      tag_34\n      swap1\n      tag_33\n      jump\t// in\n    tag_34:\n      dup1\n      iszero\n      tag_35\n      jumpi\n      dup1\n      0x1f\n      lt\n      tag_36\n      jumpi\n      0x0100\n      dup1\n      dup4\n      sload\n      div\n      mul\n      dup4\n      mstore\n      swap2\n      0x20\n      add\n      swap2\n      jump(tag_35)\n    tag_36:\n      dup3\n      add\n      swap2\n      swap1\n      0x00\n      mstore\n      keccak256(0x00, 0x20)\n      swap1\n    tag_37:\n      dup2\n      sload\n      dup2\n      mstore\n      swap1\n      0x01\n      add\n      swap1\n      0x20\n      add\n      dup1\n      dup4\n      gt\n      tag_37\n      jumpi\n      dup3\n      swap1\n      sub\n      0x1f\n      and\n      dup3\n      add\n      swap2\n    tag_35:\n      pop\n      pop\n      pop\n      pop\n      pop\n      swap1\n      dup1\n      0x03\n      add\n      0x00\n      swap1\n      sload\n      swap1\n      0x0100\n      exp\n      swap1\n      div\n      0xff\n      and\n      swap1\n      pop\n      dup5\n      jump\t// out\n        /* \"#utility.yul\":7:133   */\n    tag_38:\n        /* \"#utility.yul\":44:51   */\n      0x00\n        /* \"#utility.yul\":84:126   */\n      0xffffffffffffffffffffffffffffffffffffffff\n        /* \"#utility.yul\":77:82   */\n      dup3\n        /* \"#utility.yul\":73:127   */\n      and\n        /* \"#utility.yul\":62:127   */\n      swap1\n      pop\n        /* \"#utility.yul\":7:133   */\n      swap2\n      swap1\n      pop\n      jump\t// out\n        /* \"#utility.yul\":139:199   */\n    tag_39:\n        /* \"#utility.yul\":167:170   */\n      0x00\n        /* \"#utility.yul\":188:193   */\n      dup2\n        /* \"#utility.yul\":181:193   */\n      swap1\n      pop\n        /* \"#utility.yul\":139:199   */\n      swap2\n      swap1\n      pop\n      jump\t// out\n        /* \"#utility.yul\":205:347   */\n    tag_40:\n        /* \"#utility.yul\":255:264   */\n      0x00\n        /* \"#utility.yul\":288:341   */\n      tag_72\n        /* \"#utility.yul\":306:340   */\n      tag_73\n        /* \"#utility.yul\":315:339   */\n      tag_74\n        /* \"#utility.yul\":333:338   */\n      dup5\n        /* \"#utility.yul\":315:339   */\n      tag_38\n      jump\t// in\n    tag_74:\n        /* \"#utility.yul\":306:340   */\n      tag_39\n      jump\t// in\n    tag_73:\n        /* \"#utility.yul\":288:341   */\n      tag_38\n      jump\t// in\n    tag_72:\n        /* \"#utility.yul\":275:341   */\n      swap1\n      pop\n        /* \"#utility.yul\":205:347   */\n      swap2\n      swap1\n      pop\n      jump\t// out\n        /* \"#utility.yul\":353:479   */\n    tag_41:\n        /* \"#utility.yul\":403:412   */\n      0x00\n        /* \"#utility.yul\":436:473   */\n      tag_76\n        /* \"#utility.yul\":467:472   */\n      dup3\n        /* \"#utility.yul\":436:473   */\n      tag_40\n      jump\t// in\n    tag_76:\n        /* \"#utility.yul\":423:473   */\n      swap1\n      pop\n        /* \"#utility.yul\":353:479   */\n      swap2\n      swap1\n      pop\n      jump\t// out\n        /* \"#utility.yul\":485:624   */\n    tag_42:\n        /* \"#utility.yul\":548:557   */\n      0x00\n        /* \"#utility.yul\":581:618   */\n      tag_78\n        /* \"#utility.yul\":612:617   */\n      dup3\n        /* \"#utility.yul\":581:618   */\n      tag_41\n      jump\t// in\n    tag_78:\n        /* \"#utility.yul\":568:618   */\n      swap1\n      pop\n        /* \"#utility.yul\":485:624   */\n      swap2\n      swap1\n      pop\n      jump\t// out\n        /* \"#utility.yul\":630:787   */\n    tag_43:\n        /* \"#utility.yul\":730:780   */\n      tag_80\n        /* \"#utility.yul\":774:779   */\n      dup2\n        /* \"#utility.yul\":730:780   */\n      tag_42\n      jump\t// in\n    tag_80:\n        /* \"#utility.yul\":725:728   */\n      dup3\n        /* \"#utility.yul\":718:781   */\n      mstore\n        /* \"#utility.yul\":630:787   */\n      pop\n      pop\n      jump\t// out\n        /* \"#utility.yul\":793:1041   */\n    tag_11:\n        /* \"#utility.yul\":899:903   */\n      0x00\n        /* \"#utility.yul\":937:939   */\n      0x20\n        /* \"#utility.yul\":926:935   */\n      dup3\n        /* \"#utility.yul\":922:940   */\n      add\n        /* \"#utility.yul\":914:940   */\n      swap1\n      pop\n        /* \"#utility.yul\":950:1034   */\n      tag_82\n        /* \"#utility.yul\":1031:1032   */\n      0x00\n        /* \"#utility.yul\":1020:1029   */\n      dup4\n        /* \"#utility.yul\":1016:1033   */\n      add\n        /* \"#utility.yul\":1007:1013   */\n      dup5\n        /* \"#utility.yul\":950:1034   */\n      tag_43\n      jump\t// in\n    tag_82:\n        /* \"#utility.yul\":793:1041   */\n      swap3\n      swap2\n      pop\n      pop\n      jump\t// out\n        /* \"#utility.yul\":1128:1245   */\n    tag_45:\n        /* \"#utility.yul\":1237:1238   */\n      0x00\n        /* \"#utility.yul\":1234:1235   */\n      dup1\n        /* \"#utility.yul\":1227:1239   */\n      revert\n        /* \"#utility.yul\":1374:1451   */\n    tag_47:\n        /* \"#utility.yul\":1411:1418   */\n      0x00\n        /* \"#utility.yul\":1440:1445   */\n      dup2\n        /* \"#utility.yul\":1429:1445   */\n      swap1\n      pop\n        /* \"#utility.yul\":1374:1451   */\n      swap2\n      swap1\n      pop\n      jump\t// out\n        /* \"#utility.yul\":1457:1579   */\n    tag_48:\n        /* \"#utility.yul\":1530:1554   */\n      tag_88\n        /* \"#utility.yul\":1548:1553   */\n      dup2\n        /* \"#utility.yul\":1530:1554   */\n      tag_47\n      jump\t// in\n    tag_88:\n        /* \"#utility.yul\":1523:1528   */\n      dup2\n        /* \"#utility.yul\":1520:1555   */\n      eq\n        /* \"#utility.yul\":1510:1573   */\n      tag_89\n      jumpi\n        /* \"#utility.yul\":1569:1570   */\n      0x00\n        /* \"#utility.yul\":1566:1567   */\n      dup1\n        /* \"#utility.yul\":1559:1571   */\n      revert\n        /* \"#utility.yul\":1510:1573   */\n    tag_89:\n        /* \"#utility.yul\":1457:1579   */\n      pop\n      jump\t// out\n        /* \"#utility.yul\":1585:1724   */\n    tag_49:\n        /* \"#utility.yul\":1631:1636   */\n      0x00\n        /* \"#utility.yul\":1669:1675   */\n      dup2\n        /* \"#utility.yul\":1656:1676   */\n      calldataload\n        /* \"#utility.yul\":1647:1676   */\n      swap1\n      pop\n        /* \"#utility.yul\":1685:1718   */\n      tag_91\n        /* \"#utility.yul\":1712:1717   */\n      dup2\n        /* \"#utility.yul\":1685:1718   */\n      tag_48\n      jump\t// in\n    tag_91:\n        /* \"#utility.yul\":1585:1724   */\n      swap3\n      swap2\n      pop\n      pop\n      jump\t// out\n        /* \"#utility.yul\":1730:2059   */\n    tag_14:\n        /* \"#utility.yul\":1789:1795   */\n      0x00\n        /* \"#utility.yul\":1838:1840   */\n      0x20\n        /* \"#utility.yul\":1826:1835   */\n      dup3\n        /* \"#utility.yul\":1817:1824   */\n      dup5\n        /* \"#utility.yul\":1813:1836   */\n      sub\n        /* \"#utility.yul\":1809:1841   */\n      slt\n        /* \"#utility.yul\":1806:1925   */\n      iszero\n      tag_93\n      jumpi\n        /* \"#utility.yul\":1844:1923   */\n      tag_94\n      tag_45\n      jump\t// in\n    tag_94:\n        /* \"#utility.yul\":1806:1925   */\n    tag_93:\n        /* \"#utility.yul\":1964:1965   */\n      0x00\n        /* \"#utility.yul\":1989:2042   */\n      tag_95\n        /* \"#utility.yul\":2034:2041   */\n      dup5\n        /* \"#utility.yul\":2025:2031   */\n      dup3\n        /* \"#utility.yul\":2014:2023   */\n      dup6\n        /* \"#utility.yul\":2010:2032   */\n      add\n        /* \"#utility.yul\":1989:2042   */\n      tag_49\n      jump\t// in\n    tag_95:\n        /* \"#utility.yul\":1979:2042   */\n      swap2\n      pop\n        /* \"#utility.yul\":1935:2052   */\n      pop\n        /* \"#utility.yul\":1730:2059   */\n      swap3\n      swap2\n      pop\n      pop\n      jump\t// out\n        /* \"#utility.yul\":2065:2161   */\n    tag_50:\n        /* \"#utility.yul\":2102:2109   */\n      0x00\n        /* \"#utility.yul\":2131:2155   */\n      tag_97\n        /* \"#utility.yul\":2149:2154   */\n      dup3\n        /* \"#utility.yul\":2131:2155   */\n      tag_38\n      jump\t// in\n    tag_97:\n        /* \"#utility.yul\":2120:2155   */\n      swap1\n      pop\n        /* \"#utility.yul\":2065:2161   */\n      swap2\n      swap1\n      pop\n      jump\t// out\n        /* \"#utility.yul\":2167:2285   */\n    tag_51:\n        /* \"#utility.yul\":2254:2278   */\n      tag_99\n        /* \"#utility.yul\":2272:2277   */\n      dup2\n        /* \"#utility.yul\":2254:2278   */\n      tag_50\n      jump\t// in\n    tag_99:\n        /* \"#utility.yul\":2249:2252   */\n      dup3\n        /* \"#utility.yul\":2242:2279   */\n      mstore\n        /* \"#utility.yul\":2167:2285   */\n      pop\n      pop\n      jump\t// out\n        /* \"#utility.yul\":2291:2471   */\n    tag_52:\n        /* \"#utility.yul\":2339:2416   */\n      0x4e487b7100000000000000000000000000000000000000000000000000000000\n        /* \"#utility.yul\":2336:2337   */\n      0x00\n        /* \"#utility.yul\":2329:2417   */\n      mstore\n        /* \"#utility.yul\":2436:2440   */\n      0x21\n        /* \"#utility.yul\":2433:2434   */\n      0x04\n        /* \"#utility.yul\":2426:2441   */\n      mstore\n        /* \"#utility.yul\":2460:2464   */\n      0x24\n        /* \"#utility.yul\":2457:2458   */\n      0x00\n        /* \"#utility.yul\":2450:2465   */\n      revert\n        /* \"#utility.yul\":2477:2597   */\n    tag_53:\n        /* \"#utility.yul\":2565:2566   */\n      0x04\n        /* \"#utility.yul\":2558:2563   */\n      dup2\n        /* \"#utility.yul\":2555:2567   */\n      lt\n        /* \"#utility.yul\":2545:2591   */\n      tag_102\n      jumpi\n        /* \"#utility.yul\":2571:2589   */\n      tag_103\n      tag_52\n      jump\t// in\n    tag_103:\n        /* \"#utility.yul\":2545:2591   */\n    tag_102:\n        /* \"#utility.yul\":2477:2597   */\n      pop\n      jump\t// out\n        /* \"#utility.yul\":2603:2744   */\n    tag_54:\n        /* \"#utility.yul\":2655:2662   */\n      0x00\n        /* \"#utility.yul\":2684:2689   */\n      dup2\n        /* \"#utility.yul\":2673:2689   */\n      swap1\n      pop\n        /* \"#utility.yul\":2690:2738   */\n      tag_105\n        /* \"#utility.yul\":2732:2737   */\n      dup3\n        /* \"#utility.yul\":2690:2738   */\n      tag_53\n      jump\t// in\n    tag_105:\n        /* \"#utility.yul\":2603:2744   */\n      swap2\n      swap1\n      pop\n      jump\t// out\n        /* \"#utility.yul\":2750:2891   */\n    tag_55:\n        /* \"#utility.yul\":2813:2822   */\n      0x00\n        /* \"#utility.yul\":2846:2885   */\n      tag_107\n        /* \"#utility.yul\":2879:2884   */\n      dup3\n        /* \"#utility.yul\":2846:2885   */\n      tag_54\n      jump\t// in\n    tag_107:\n        /* \"#utility.yul\":2833:2885   */\n      swap1\n      pop\n        /* \"#utility.yul\":2750:2891   */\n      swap2\n      swap1\n      pop\n      jump\t// out\n        /* \"#utility.yul\":2897:3054   */\n    tag_56:\n        /* \"#utility.yul\":2997:3047   */\n      tag_109\n        /* \"#utility.yul\":3041:3046   */\n      dup2\n        /* \"#utility.yul\":2997:3047   */\n      tag_55\n      jump\t// in\n    tag_109:\n        /* \"#utility.yul\":2992:2995   */\n      dup3\n        /* \"#utility.yul\":2985:3048   */\n      mstore\n        /* \"#utility.yul\":2897:3054   */\n      pop\n      pop\n      jump\t// out\n        /* \"#utility.yul\":3060:3418   */\n    tag_17:\n        /* \"#utility.yul\":3194:3198   */\n      0x00\n        /* \"#utility.yul\":3232:3234   */\n      0x40\n        /* \"#utility.yul\":3221:3230   */\n      dup3\n        /* \"#utility.yul\":3217:3235   */\n      add\n        /* \"#utility.yul\":3209:3235   */\n      swap1\n      pop\n        /* \"#utility.yul\":3245:3316   */\n      tag_111\n        /* \"#utility.yul\":3313:3314   */\n      0x00\n        /* \"#utility.yul\":3302:3311   */\n      dup4\n        /* \"#utility.yul\":3298:3315   */\n      add\n        /* \"#utility.yul\":3289:3295   */\n      dup6\n        /* \"#utility.yul\":3245:3316   */\n      tag_51\n      jump\t// in\n    tag_111:\n        /* \"#utility.yul\":3326:3411   */\n      tag_112\n        /* \"#utility.yul\":3407:3409   */\n      0x20\n        /* \"#utility.yul\":3396:3405   */\n      dup4\n        /* \"#utility.yul\":3392:3410   */\n      add\n        /* \"#utility.yul\":3383:3389   */\n      dup5\n        /* \"#utility.yul\":3326:3411   */\n      tag_56\n      jump\t// in\n    tag_112:\n        /* \"#utility.yul\":3060:3418   */\n      swap4\n      swap3\n      pop\n      pop\n      pop\n      jump\t// out\n        /* \"#utility.yul\":3424:3573   */\n    tag_57:\n        /* \"#utility.yul\":3460:3467   */\n      0x00\n        /* \"#utility.yul\":3500:3566   */\n      0xffffffff00000000000000000000000000000000000000000000000000000000\n        /* \"#utility.yul\":3493:3498   */\n      dup3\n        /* \"#utility.yul\":3489:3567   */\n      and\n        /* \"#utility.yul\":3478:3567   */\n      swap1\n      pop\n        /* \"#utility.yul\":3424:3573   */\n      swap2\n      swap1\n      pop\n      jump\t// out\n        /* \"#utility.yul\":3579:3694   */\n    tag_58:\n        /* \"#utility.yul\":3664:3687   */\n      tag_115\n        /* \"#utility.yul\":3681:3686   */\n      dup2\n        /* \"#utility.yul\":3664:3687   */\n      tag_57\n      jump\t// in\n    tag_115:\n        /* \"#utility.yul\":3659:3662   */\n      dup3\n        /* \"#utility.yul\":3652:3688   */\n      mstore\n        /* \"#utility.yul\":3579:3694   */\n      pop\n      pop\n      jump\t// out\n        /* \"#utility.yul\":3700:3918   */\n    tag_21:\n        /* \"#utility.yul\":3791:3795   */\n      0x00\n        /* \"#utility.yul\":3829:3831   */\n      0x20\n        /* \"#utility.yul\":3818:3827   */\n      dup3\n        /* \"#utility.yul\":3814:3832   */\n      add\n        /* \"#utility.yul\":3806:3832   */\n      swap1\n      pop\n        /* \"#utility.yul\":3842:3911   */\n      tag_117\n        /* \"#utility.yul\":3908:3909   */\n      0x00\n        /* \"#utility.yul\":3897:3906   */\n      dup4\n        /* \"#utility.yul\":3893:3910   */\n      add\n        /* \"#utility.yul\":3884:3890   */\n      dup5\n        /* \"#utility.yul\":3842:3911   */\n      tag_58\n      jump\t// in\n    tag_117:\n        /* \"#utility.yul\":3700:3918   */\n      swap3\n      swap2\n      pop\n      pop\n      jump\t// out\n        /* \"#utility.yul\":3924:4042   */\n    tag_59:\n        /* \"#utility.yul\":4011:4035   */\n      tag_119\n        /* \"#utility.yul\":4029:4034   */\n      dup2\n        /* \"#utility.yul\":4011:4035   */\n      tag_47\n      jump\t// in\n    tag_119:\n        /* \"#utility.yul\":4006:4009   */\n      dup3\n        /* \"#utility.yul\":3999:4036   */\n      mstore\n        /* \"#utility.yul\":3924:4042   */\n      pop\n      pop\n      jump\t// out\n        /* \"#utility.yul\":4048:4516   */\n    tag_26:\n        /* \"#utility.yul\":4210:4214   */\n      0x00\n        /* \"#utility.yul\":4248:4250   */\n      0x60\n        /* \"#utility.yul\":4237:4246   */\n      dup3\n        /* \"#utility.yul\":4233:4251   */\n      add\n        /* \"#utility.yul\":4225:4251   */\n      swap1\n      pop\n        /* \"#utility.yul\":4261:4332   */\n      tag_121\n        /* \"#utility.yul\":4329:4330   */\n      0x00\n        /* \"#utility.yul\":4318:4327   */\n      dup4\n        /* \"#utility.yul\":4314:4331   */\n      add\n        /* \"#utility.yul\":4305:4311   */\n      dup7\n        /* \"#utility.yul\":4261:4332   */\n      tag_59\n      jump\t// in\n    tag_121:\n        /* \"#utility.yul\":4342:4414   */\n      tag_122\n        /* \"#utility.yul\":4410:4412   */\n      0x20\n        /* \"#utility.yul\":4399:4408   */\n      dup4\n        /* \"#utility.yul\":4395:4413   */\n      add\n        /* \"#utility.yul\":4386:4392   */\n      dup6\n        /* \"#utility.yul\":4342:4414   */\n      tag_51\n      jump\t// in\n    tag_122:\n        /* \"#utility.yul\":4424:4509   */\n      tag_123\n        /* \"#utility.yul\":4505:4507   */\n      0x40\n        /* \"#utility.yul\":4494:4503   */\n      dup4\n        /* \"#utility.yul\":4490:4508   */\n      add\n        /* \"#utility.yul\":4481:4487   */\n      dup5\n        /* \"#utility.yul\":4424:4509   */\n      tag_56\n      jump\t// in\n    tag_123:\n        /* \"#utility.yul\":4048:4516   */\n      swap5\n      swap4\n      pop\n      pop\n      pop\n      pop\n      jump\t// out\n        /* \"#utility.yul\":4522:4621   */\n    tag_60:\n        /* \"#utility.yul\":4574:4580   */\n      0x00\n        /* \"#utility.yul\":4608:4613   */\n      dup2\n        /* \"#utility.yul\":4602:4614   */\n      mload\n        /* \"#utility.yul\":4592:4614   */\n      swap1\n      pop\n        /* \"#utility.yul\":4522:4621   */\n      swap2\n      swap1\n      pop\n      jump\t// out\n        /* \"#utility.yul\":4627:4796   */\n    tag_61:\n        /* \"#utility.yul\":4711:4722   */\n      0x00\n        /* \"#utility.yul\":4745:4751   */\n      dup3\n        /* \"#utility.yul\":4740:4743   */\n      dup3\n        /* \"#utility.yul\":4733:4752   */\n      mstore\n        /* \"#utility.yul\":4785:4789   */\n      0x20\n        /* \"#utility.yul\":4780:4783   */\n      dup3\n        /* \"#utility.yul\":4776:4790   */\n      add\n        /* \"#utility.yul\":4761:4790   */\n      swap1\n      pop\n        /* \"#utility.yul\":4627:4796   */\n      swap3\n      swap2\n      pop\n      pop\n      jump\t// out\n        /* \"#utility.yul\":4802:5109   */\n    tag_62:\n        /* \"#utility.yul\":4870:4871   */\n      0x00\n        /* \"#utility.yul\":4880:4993   */\n    tag_127:\n        /* \"#utility.yul\":4894:4900   */\n      dup4\n        /* \"#utility.yul\":4891:4892   */\n      dup2\n        /* \"#utility.yul\":4888:4901   */\n      lt\n        /* \"#utility.yul\":4880:4993   */\n      iszero\n      tag_129\n      jumpi\n        /* \"#utility.yul\":4979:4980   */\n      dup1\n        /* \"#utility.yul\":4974:4977   */\n      dup3\n        /* \"#utility.yul\":4970:4981   */\n      add\n        /* \"#utility.yul\":4964:4982   */\n      mload\n        /* \"#utility.yul\":4960:4961   */\n      dup2\n        /* \"#utility.yul\":4955:4958   */\n      dup5\n        /* \"#utility.yul\":4951:4962   */\n      add\n        /* \"#utility.yul\":4944:4983   */\n      mstore\n        /* \"#utility.yul\":4916:4918   */\n      0x20\n        /* \"#utility.yul\":4913:4914   */\n      dup2\n        /* \"#utility.yul\":4909:4919   */\n      add\n        /* \"#utility.yul\":4904:4919   */\n      swap1\n      pop\n        /* \"#utility.yul\":4880:4993   */\n      jump(tag_127)\n    tag_129:\n        /* \"#utility.yul\":5011:5017   */\n      dup4\n        /* \"#utility.yul\":5008:5009   */\n      dup2\n        /* \"#utility.yul\":5005:5018   */\n      gt\n        /* \"#utility.yul\":5002:5103   */\n      iszero\n      tag_130\n      jumpi\n        /* \"#utility.yul\":5091:5092   */\n      0x00\n        /* \"#utility.yul\":5082:5088   */\n      dup5\n        /* \"#utility.yul\":5077:5080   */\n      dup5\n        /* \"#utility.yul\":5073:5089   */\n      add\n        /* \"#utility.yul\":5066:5093   */\n      mstore\n        /* \"#utility.yul\":5002:5103   */\n    tag_130:\n        /* \"#utility.yul\":4851:5109   */\n      pop\n        /* \"#utility.yul\":4802:5109   */\n      pop\n      pop\n      pop\n      jump\t// out\n        /* \"#utility.yul\":5115:5217   */\n    tag_63:\n        /* \"#utility.yul\":5156:5162   */\n      0x00\n        /* \"#utility.yul\":5207:5209   */\n      0x1f\n        /* \"#utility.yul\":5203:5210   */\n      not\n        /* \"#utility.yul\":5198:5200   */\n      0x1f\n        /* \"#utility.yul\":5191:5196   */\n      dup4\n        /* \"#utility.yul\":5187:5201   */\n      add\n        /* \"#utility.yul\":5183:5211   */\n      and\n        /* \"#utility.yul\":5173:5211   */\n      swap1\n      pop\n        /* \"#utility.yul\":5115:5217   */\n      swap2\n      swap1\n      pop\n      jump\t// out\n        /* \"#utility.yul\":5223:5587   */\n    tag_64:\n        /* \"#utility.yul\":5311:5314   */\n      0x00\n        /* \"#utility.yul\":5339:5378   */\n      tag_133\n        /* \"#utility.yul\":5372:5377   */\n      dup3\n        /* \"#utility.yul\":5339:5378   */\n      tag_60\n      jump\t// in\n    tag_133:\n        /* \"#utility.yul\":5394:5465   */\n      tag_134\n        /* \"#utility.yul\":5458:5464   */\n      dup2\n        /* \"#utility.yul\":5453:5456   */\n      dup6\n        /* \"#utility.yul\":5394:5465   */\n      tag_61\n      jump\t// in\n    tag_134:\n        /* \"#utility.yul\":5387:5465   */\n      swap4\n      pop\n        /* \"#utility.yul\":5474:5526   */\n      tag_135\n        /* \"#utility.yul\":5519:5525   */\n      dup2\n        /* \"#utility.yul\":5514:5517   */\n      dup6\n        /* \"#utility.yul\":5507:5511   */\n      0x20\n        /* \"#utility.yul\":5500:5505   */\n      dup7\n        /* \"#utility.yul\":5496:5512   */\n      add\n        /* \"#utility.yul\":5474:5526   */\n      tag_62\n      jump\t// in\n    tag_135:\n        /* \"#utility.yul\":5551:5580   */\n      tag_136\n        /* \"#utility.yul\":5573:5579   */\n      dup2\n        /* \"#utility.yul\":5551:5580   */\n      tag_63\n      jump\t// in\n    tag_136:\n        /* \"#utility.yul\":5546:5549   */\n      dup5\n        /* \"#utility.yul\":5542:5581   */\n      add\n        /* \"#utility.yul\":5535:5581   */\n      swap2\n      pop\n        /* \"#utility.yul\":5315:5587   */\n      pop\n        /* \"#utility.yul\":5223:5587   */\n      swap3\n      swap2\n      pop\n      pop\n      jump\t// out\n        /* \"#utility.yul\":5593:5683   */\n    tag_65:\n        /* \"#utility.yul\":5627:5634   */\n      0x00\n        /* \"#utility.yul\":5670:5675   */\n      dup2\n        /* \"#utility.yul\":5663:5676   */\n      iszero\n        /* \"#utility.yul\":5656:5677   */\n      iszero\n        /* \"#utility.yul\":5645:5677   */\n      swap1\n      pop\n        /* \"#utility.yul\":5593:5683   */\n      swap2\n      swap1\n      pop\n      jump\t// out\n        /* \"#utility.yul\":5689:5798   */\n    tag_66:\n        /* \"#utility.yul\":5770:5791   */\n      tag_139\n        /* \"#utility.yul\":5785:5790   */\n      dup2\n        /* \"#utility.yul\":5770:5791   */\n      tag_65\n      jump\t// in\n    tag_139:\n        /* \"#utility.yul\":5765:5768   */\n      dup3\n        /* \"#utility.yul\":5758:5792   */\n      mstore\n        /* \"#utility.yul\":5689:5798   */\n      pop\n      pop\n      jump\t// out\n        /* \"#utility.yul\":5804:6436   */\n    tag_31:\n        /* \"#utility.yul\":5995:5999   */\n      0x00\n        /* \"#utility.yul\":6033:6036   */\n      0x80\n        /* \"#utility.yul\":6022:6031   */\n      dup3\n        /* \"#utility.yul\":6018:6037   */\n      add\n        /* \"#utility.yul\":6010:6037   */\n      swap1\n      pop\n        /* \"#utility.yul\":6047:6118   */\n      tag_141\n        /* \"#utility.yul\":6115:6116   */\n      0x00\n        /* \"#utility.yul\":6104:6113   */\n      dup4\n        /* \"#utility.yul\":6100:6117   */\n      add\n        /* \"#utility.yul\":6091:6097   */\n      dup8\n        /* \"#utility.yul\":6047:6118   */\n      tag_59\n      jump\t// in\n    tag_141:\n        /* \"#utility.yul\":6128:6200   */\n      tag_142\n        /* \"#utility.yul\":6196:6198   */\n      0x20\n        /* \"#utility.yul\":6185:6194   */\n      dup4\n        /* \"#utility.yul\":6181:6199   */\n      add\n        /* \"#utility.yul\":6172:6178   */\n      dup7\n        /* \"#utility.yul\":6128:6200   */\n      tag_51\n      jump\t// in\n    tag_142:\n        /* \"#utility.yul\":6247:6256   */\n      dup2\n        /* \"#utility.yul\":6241:6245   */\n      dup2\n        /* \"#utility.yul\":6237:6257   */\n      sub\n        /* \"#utility.yul\":6232:6234   */\n      0x40\n        /* \"#utility.yul\":6221:6230   */\n      dup4\n        /* \"#utility.yul\":6217:6235   */\n      add\n        /* \"#utility.yul\":6210:6258   */\n      mstore\n        /* \"#utility.yul\":6275:6353   */\n      tag_143\n        /* \"#utility.yul\":6348:6352   */\n      dup2\n        /* \"#utility.yul\":6339:6345   */\n      dup6\n        /* \"#utility.yul\":6275:6353   */\n      tag_64\n      jump\t// in\n    tag_143:\n        /* \"#utility.yul\":6267:6353   */\n      swap1\n      pop\n        /* \"#utility.yul\":6363:6429   */\n      tag_144\n        /* \"#utility.yul\":6425:6427   */\n      0x60\n        /* \"#utility.yul\":6414:6423   */\n      dup4\n        /* \"#utility.yul\":6410:6428   */\n      add\n        /* \"#utility.yul\":6401:6407   */\n      dup5\n        /* \"#utility.yul\":6363:6429   */\n      tag_66\n      jump\t// in\n    tag_144:\n        /* \"#utility.yul\":5804:6436   */\n      swap6\n      swap5\n      pop\n      pop\n      pop\n      pop\n      pop\n      jump\t// out\n        /* \"#utility.yul\":6442:6622   */\n    tag_67:\n        /* \"#utility.yul\":6490:6567   */\n      0x4e487b7100000000000000000000000000000000000000000000000000000000\n        /* \"#utility.yul\":6487:6488   */\n      0x00\n        /* \"#utility.yul\":6480:6568   */\n      mstore\n        /* \"#utility.yul\":6587:6591   */\n      0x22\n        /* \"#utility.yul\":6584:6585   */\n      0x04\n        /* \"#utility.yul\":6577:6592   */\n      mstore\n        /* \"#utility.yul\":6611:6615   */\n      0x24\n        /* \"#utility.yul\":6608:6609   */\n      0x00\n        /* \"#utility.yul\":6601:6616   */\n      revert\n        /* \"#utility.yul\":6628:6948   */\n    tag_33:\n        /* \"#utility.yul\":6672:6678   */\n      0x00\n        /* \"#utility.yul\":6709:6710   */\n      0x02\n        /* \"#utility.yul\":6703:6707   */\n      dup3\n        /* \"#utility.yul\":6699:6711   */\n      div\n        /* \"#utility.yul\":6689:6711   */\n      swap1\n      pop\n        /* \"#utility.yul\":6756:6757   */\n      0x01\n        /* \"#utility.yul\":6750:6754   */\n      dup3\n        /* \"#utility.yul\":6746:6758   */\n      and\n        /* \"#utility.yul\":6777:6795   */\n      dup1\n        /* \"#utility.yul\":6767:6848   */\n      tag_147\n      jumpi\n        /* \"#utility.yul\":6833:6837   */\n      0x7f\n        /* \"#utility.yul\":6825:6831   */\n      dup3\n        /* \"#utility.yul\":6821:6838   */\n      and\n        /* \"#utility.yul\":6811:6838   */\n      swap2\n      pop\n        /* \"#utility.yul\":6767:6848   */\n    tag_147:\n        /* \"#utility.yul\":6895:6897   */\n      0x20\n        /* \"#utility.yul\":6887:6893   */\n      dup3\n        /* \"#utility.yul\":6884:6898   */\n      lt\n        /* \"#utility.yul\":6864:6882   */\n      dup2\n        /* \"#utility.yul\":6861:6899   */\n      sub\n        /* \"#utility.yul\":6858:6942   */\n      tag_148\n      jumpi\n        /* \"#utility.yul\":6914:6932   */\n      tag_149\n      tag_67\n      jump\t// in\n    tag_149:\n        /* \"#utility.yul\":6858:6942   */\n    tag_148:\n        /* \"#utility.yul\":6679:6948   */\n      pop\n        /* \"#utility.yul\":6628:6948   */\n      swap2\n      swap1\n      pop\n      jump\t// out\n\n    auxdata: 0xa2646970667358221220673d7584327d66660ea4075c55687291d0f024c0cfe696e52e46308da3abd2fd64736f6c634300080d0033\n}\n",
				"bytecode": {
					"linkReferences": {},
					"object": "608060405234801561001057600080fd5b506106df806100206000396000f3fe608060405234801561001057600080fd5b50600436106100575760003560e01c806315b81dc31461005c5780631f7775ad1461007a5780632b4c32be146100ab57806358dd8603146100c9578063d30bdac9146100fb575b600080fd5b61006461012e565b6040516100719190610369565b60405180910390f35b610094600480360381019061008f91906103bf565b610152565b6040516100a2929190610484565b60405180910390f35b6100b36101a3565b6040516100c091906104e8565b60405180910390f35b6100e360048036038101906100de91906103bf565b6101ae565b6040516100f293929190610512565b60405180910390f35b610115600480360381019061011091906103bf565b610205565b60405161012594939291906105fd565b60405180910390f35b60008054906101000a900473ffffffffffffffffffffffffffffffffffffffff1681565b60036020528060005260406000206000915090508060000160009054906101000a900473ffffffffffffffffffffffffffffffffffffffff16908060000160149054906101000a900460ff16905082565b6380ac58cd60e01b81565b60016020528060005260406000206000915090508060000154908060010160009054906101000a900473ffffffffffffffffffffffffffffffffffffffff16908060010160149054906101000a900460ff16905083565b60026020528060005260406000206000915090508060000154908060010160009054906101000a900473ffffffffffffffffffffffffffffffffffffffff169080600201805461025490610678565b80601f016020809104026020016040519081016040528092919081815260200182805461028090610678565b80156102cd5780601f106102a2576101008083540402835291602001916102cd565b820191906000526020600020905b8154815290600101906020018083116102b057829003601f168201915b5050505050908060030160009054906101000a900460ff16905084565b600073ffffffffffffffffffffffffffffffffffffffff82169050919050565b6000819050919050565b600061032f61032a610325846102ea565b61030a565b6102ea565b9050919050565b600061034182610314565b9050919050565b600061035382610336565b9050919050565b61036381610348565b82525050565b600060208201905061037e600083018461035a565b92915050565b600080fd5b6000819050919050565b61039c81610389565b81146103a757600080fd5b50565b6000813590506103b981610393565b92915050565b6000602082840312156103d5576103d4610384565b5b60006103e3848285016103aa565b91505092915050565b60006103f7826102ea565b9050919050565b610407816103ec565b82525050565b7f4e487b7100000000000000000000000000000000000000000000000000000000600052602160045260246000fd5b6004811061044d5761044c61040d565b5b50565b600081905061045e8261043c565b919050565b600061046e82610450565b9050919050565b61047e81610463565b82525050565b600060408201905061049960008301856103fe565b6104a66020830184610475565b9392505050565b60007fffffffff0000000000000000000000000000000000000000000000000000000082169050919050565b6104e2816104ad565b82525050565b60006020820190506104fd60008301846104d9565b92915050565b61050c81610389565b82525050565b60006060820190506105276000830186610503565b61053460208301856103fe565b6105416040830184610475565b949350505050565b600081519050919050565b600082825260208201905092915050565b60005b83811015610583578082015181840152602081019050610568565b83811115610592576000848401525b50505050565b6000601f19601f8301169050919050565b60006105b482610549565b6105be8185610554565b93506105ce818560208601610565565b6105d781610598565b840191505092915050565b60008115159050919050565b6105f7816105e2565b82525050565b60006080820190506106126000830187610503565b61061f60208301866103fe565b818103604083015261063181856105a9565b905061064060608301846105ee565b95945050505050565b7f4e487b7100000000000000000000000000000000000000000000000000000000600052602260045260246000fd5b6000600282049050600182168061069057607f821691505b6020821081036106a3576106a2610649565b5b5091905056fea2646970667358221220673d7584327d66660ea4075c55687291d0f024c0cfe696e52e46308da3abd2fd64736f6c634300080d0033",
					"opcodes": "PUSH1 0x80 PUSH1 0x40 MSTORE CALLVALUE DUP1 ISZERO PUSH2 0x10 JUMPI PUSH1 0x0 DUP1 REVERT JUMPDEST POP PUSH2 0x6DF DUP1 PUSH2 0x20 PUSH1 0x0 CODECOPY PUSH1 0x0 RETURN INVALID PUSH1 0x80 PUSH1 0x40 MSTORE CALLVALUE DUP1 ISZERO PUSH2 0x10 JUMPI PUSH1 0x0 DUP1 REVERT JUMPDEST POP PUSH1 0x4 CALLDATASIZE LT PUSH2 0x57 JUMPI PUSH1 0x0 CALLDATALOAD PUSH1 0xE0 SHR DUP1 PUSH4 0x15B81DC3 EQ PUSH2 0x5C JUMPI DUP1 PUSH4 0x1F7775AD EQ PUSH2 0x7A JUMPI DUP1 PUSH4 0x2B4C32BE EQ PUSH2 0xAB JUMPI DUP1 PUSH4 0x58DD8603 EQ PUSH2 0xC9 JUMPI DUP1 PUSH4 0xD30BDAC9 EQ PUSH2 0xFB JUMPI JUMPDEST PUSH1 0x0 DUP1 REVERT JUMPDEST PUSH2 0x64 PUSH2 0x12E JUMP JUMPDEST PUSH1 0x40 MLOAD PUSH2 0x71 SWAP2 SWAP1 PUSH2 0x369 JUMP JUMPDEST PUSH1 0x40 MLOAD DUP1 SWAP2 SUB SWAP1 RETURN JUMPDEST PUSH2 0x94 PUSH1 0x4 DUP1 CALLDATASIZE SUB DUP2 ADD SWAP1 PUSH2 0x8F SWAP2 SWAP1 PUSH2 0x3BF JUMP JUMPDEST PUSH2 0x152 JUMP JUMPDEST PUSH1 0x40 MLOAD PUSH2 0xA2 SWAP3 SWAP2 SWAP1 PUSH2 0x484 JUMP JUMPDEST PUSH1 0x40 MLOAD DUP1 SWAP2 SUB SWAP1 RETURN JUMPDEST PUSH2 0xB3 PUSH2 0x1A3 JUMP JUMPDEST PUSH1 0x40 MLOAD PUSH2 0xC0 SWAP2 SWAP1 PUSH2 0x4E8 JUMP JUMPDEST PUSH1 0x40 MLOAD DUP1 SWAP2 SUB SWAP1 RETURN JUMPDEST PUSH2 0xE3 PUSH1 0x4 DUP1 CALLDATASIZE SUB DUP2 ADD SWAP1 PUSH2 0xDE SWAP2 SWAP1 PUSH2 0x3BF JUMP JUMPDEST PUSH2 0x1AE JUMP JUMPDEST PUSH1 0x40 MLOAD PUSH2 0xF2 SWAP4 SWAP3 SWAP2 SWAP1 PUSH2 0x512 JUMP JUMPDEST PUSH1 0x40 MLOAD DUP1 SWAP2 SUB SWAP1 RETURN JUMPDEST PUSH2 0x115 PUSH1 0x4 DUP1 CALLDATASIZE SUB DUP2 ADD SWAP1 PUSH2 0x110 SWAP2 SWAP1 PUSH2 0x3BF JUMP JUMPDEST PUSH2 0x205 JUMP JUMPDEST PUSH1 0x40 MLOAD PUSH2 0x125 SWAP5 SWAP4 SWAP3 SWAP2 SWAP1 PUSH2 0x5FD JUMP JUMPDEST PUSH1 0x40 MLOAD DUP1 SWAP2 SUB SWAP1 RETURN JUMPDEST PUSH1 0x0 DUP1 SLOAD SWAP1 PUSH2 0x100 EXP SWAP1 DIV PUSH20 0xFFFFFFFFFFFFFFFFFFFFFFFFFFFFFFFFFFFFFFFF AND DUP2 JUMP JUMPDEST PUSH1 0x3 PUSH1 0x20 MSTORE DUP1 PUSH1 0x0 MSTORE PUSH1 0x40 PUSH1 0x0 KECCAK256 PUSH1 0x0 SWAP2 POP SWAP1 POP DUP1 PUSH1 0x0 ADD PUSH1 0x0 SWAP1 SLOAD SWAP1 PUSH2 0x100 EXP SWAP1 DIV PUSH20 0xFFFFFFFFFFFFFFFFFFFFFFFFFFFFFFFFFFFFFFFF AND SWAP1 DUP1 PUSH1 0x0 ADD PUSH1 0x14 SWAP1 SLOAD SWAP1 PUSH2 0x100 EXP SWAP1 DIV PUSH1 0xFF AND SWAP1 POP DUP3 JUMP JUMPDEST PUSH4 0x80AC58CD PUSH1 0xE0 SHL DUP2 JUMP JUMPDEST PUSH1 0x1 PUSH1 0x20 MSTORE DUP1 PUSH1 0x0 MSTORE PUSH1 0x40 PUSH1 0x0 KECCAK256 PUSH1 0x0 SWAP2 POP SWAP1 POP DUP1 PUSH1 0x0 ADD SLOAD SWAP1 DUP1 PUSH1 0x1 ADD PUSH1 0x0 SWAP1 SLOAD SWAP1 PUSH2 0x100 EXP SWAP1 DIV PUSH20 0xFFFFFFFFFFFFFFFFFFFFFFFFFFFFFFFFFFFFFFFF AND SWAP1 DUP1 PUSH1 0x1 ADD PUSH1 0x14 SWAP1 SLOAD SWAP1 PUSH2 0x100 EXP SWAP1 DIV PUSH1 0xFF AND SWAP1 POP DUP4 JUMP JUMPDEST PUSH1 0x2 PUSH1 0x20 MSTORE DUP1 PUSH1 0x0 MSTORE PUSH1 0x40 PUSH1 0x0 KECCAK256 PUSH1 0x0 SWAP2 POP SWAP1 POP DUP1 PUSH1 0x0 ADD SLOAD SWAP1 DUP1 PUSH1 0x1 ADD PUSH1 0x0 SWAP1 SLOAD SWAP1 PUSH2 0x100 EXP SWAP1 DIV PUSH20 0xFFFFFFFFFFFFFFFFFFFFFFFFFFFFFFFFFFFFFFFF AND SWAP1 DUP1 PUSH1 0x2 ADD DUP1 SLOAD PUSH2 0x254 SWAP1 PUSH2 0x678 JUMP JUMPDEST DUP1 PUSH1 0x1F ADD PUSH1 0x20 DUP1 SWAP2 DIV MUL PUSH1 0x20 ADD PUSH1 0x40 MLOAD SWAP1 DUP2 ADD PUSH1 0x40 MSTORE DUP1 SWAP3 SWAP2 SWAP1 DUP2 DUP2 MSTORE PUSH1 0x20 ADD DUP3 DUP1 SLOAD PUSH2 0x280 SWAP1 PUSH2 0x678 JUMP JUMPDEST DUP1 ISZERO PUSH2 0x2CD JUMPI DUP1 PUSH1 0x1F LT PUSH2 0x2A2 JUMPI PUSH2 0x100 DUP1 DUP4 SLOAD DIV MUL DUP4 MSTORE SWAP2 PUSH1 0x20 ADD SWAP2 PUSH2 0x2CD JUMP JUMPDEST DUP3 ADD SWAP2 SWAP1 PUSH1 0x0 MSTORE PUSH1 0x20 PUSH1 0x0 KECCAK256 SWAP1 JUMPDEST DUP2 SLOAD DUP2 MSTORE SWAP1 PUSH1 0x1 ADD SWAP1 PUSH1 0x20 ADD DUP1 DUP4 GT PUSH2 0x2B0 JUMPI DUP3 SWAP1 SUB PUSH1 0x1F AND DUP3 ADD SWAP2 JUMPDEST POP POP POP POP POP SWAP1 DUP1 PUSH1 0x3 ADD PUSH1 0x0 SWAP1 SLOAD SWAP1 PUSH2 0x100 EXP SWAP1 DIV PUSH1 0xFF AND SWAP1 POP DUP5 JUMP JUMPDEST PUSH1 0x0 PUSH20 0xFFFFFFFFFFFFFFFFFFFFFFFFFFFFFFFFFFFFFFFF DUP3 AND SWAP1 POP SWAP2 SWAP1 POP JUMP JUMPDEST PUSH1 0x0 DUP2 SWAP1 POP SWAP2 SWAP1 POP JUMP JUMPDEST PUSH1 0x0 PUSH2 0x32F PUSH2 0x32A PUSH2 0x325 DUP5 PUSH2 0x2EA JUMP JUMPDEST PUSH2 0x30A JUMP JUMPDEST PUSH2 0x2EA JUMP JUMPDEST SWAP1 POP SWAP2 SWAP1 POP JUMP JUMPDEST PUSH1 0x0 PUSH2 0x341 DUP3 PUSH2 0x314 JUMP JUMPDEST SWAP1 POP SWAP2 SWAP1 POP JUMP JUMPDEST PUSH1 0x0 PUSH2 0x353 DUP3 PUSH2 0x336 JUMP JUMPDEST SWAP1 POP SWAP2 SWAP1 POP JUMP JUMPDEST PUSH2 0x363 DUP2 PUSH2 0x348 JUMP JUMPDEST DUP3 MSTORE POP POP JUMP JUMPDEST PUSH1 0x0 PUSH1 0x20 DUP3 ADD SWAP1 POP PUSH2 0x37E PUSH1 0x0 DUP4 ADD DUP5 PUSH2 0x35A JUMP JUMPDEST SWAP3 SWAP2 POP POP JUMP JUMPDEST PUSH1 0x0 DUP1 REVERT JUMPDEST PUSH1 0x0 DUP2 SWAP1 POP SWAP2 SWAP1 POP JUMP JUMPDEST PUSH2 0x39C DUP2 PUSH2 0x389 JUMP JUMPDEST DUP2 EQ PUSH2 0x3A7 JUMPI PUSH1 0x0 DUP1 REVERT JUMPDEST POP JUMP JUMPDEST PUSH1 0x0 DUP2 CALLDATALOAD SWAP1 POP PUSH2 0x3B9 DUP2 PUSH2 0x393 JUMP JUMPDEST SWAP3 SWAP2 POP POP JUMP JUMPDEST PUSH1 0x0 PUSH1 0x20 DUP3 DUP5 SUB SLT ISZERO PUSH2 0x3D5 JUMPI PUSH2 0x3D4 PUSH2 0x384 JUMP JUMPDEST JUMPDEST PUSH1 0x0 PUSH2 0x3E3 DUP5 DUP3 DUP6 ADD PUSH2 0x3AA JUMP JUMPDEST SWAP2 POP POP SWAP3 SWAP2 POP POP JUMP JUMPDEST PUSH1 0x0 PUSH2 0x3F7 DUP3 PUSH2 0x2EA JUMP JUMPDEST SWAP1 POP SWAP2 SWAP1 POP JUMP JUMPDEST PUSH2 0x407 DUP2 PUSH2 0x3EC JUMP JUMPDEST DUP3 MSTORE POP POP JUMP JUMPDEST PUSH32 0x4E487B7100000000000000000000000000000000000000000000000000000000 PUSH1 0x0 MSTORE PUSH1 0x21 PUSH1 0x4 MSTORE PUSH1 0x24 PUSH1 0x0 REVERT JUMPDEST PUSH1 0x4 DUP2 LT PUSH2 0x44D JUMPI PUSH2 0x44C PUSH2 0x40D JUMP JUMPDEST JUMPDEST POP JUMP JUMPDEST PUSH1 0x0 DUP2 SWAP1 POP PUSH2 0x45E DUP3 PUSH2 0x43C JUMP JUMPDEST SWAP2 SWAP1 POP JUMP JUMPDEST PUSH1 0x0 PUSH2 0x46E DUP3 PUSH2 0x450 JUMP JUMPDEST SWAP1 POP SWAP2 SWAP1 POP JUMP JUMPDEST PUSH2 0x47E DUP2 PUSH2 0x463 JUMP JUMPDEST DUP3 MSTORE POP POP JUMP JUMPDEST PUSH1 0x0 PUSH1 0x40 DUP3 ADD SWAP1 POP PUSH2 0x499 PUSH1 0x0 DUP4 ADD DUP6 PUSH2 0x3FE JUMP JUMPDEST PUSH2 0x4A6 PUSH1 0x20 DUP4 ADD DUP5 PUSH2 0x475 JUMP JUMPDEST SWAP4 SWAP3 POP POP POP JUMP JUMPDEST PUSH1 0x0 PUSH32 0xFFFFFFFF00000000000000000000000000000000000000000000000000000000 DUP3 AND SWAP1 POP SWAP2 SWAP1 POP JUMP JUMPDEST PUSH2 0x4E2 DUP2 PUSH2 0x4AD JUMP JUMPDEST DUP3 MSTORE POP POP JUMP JUMPDEST PUSH1 0x0 PUSH1 0x20 DUP3 ADD SWAP1 POP PUSH2 0x4FD PUSH1 0x0 DUP4 ADD DUP5 PUSH2 0x4D9 JUMP JUMPDEST SWAP3 SWAP2 POP POP JUMP JUMPDEST PUSH2 0x50C DUP2 PUSH2 0x389 JUMP JUMPDEST DUP3 MSTORE POP POP JUMP JUMPDEST PUSH1 0x0 PUSH1 0x60 DUP3 ADD SWAP1 POP PUSH2 0x527 PUSH1 0x0 DUP4 ADD DUP7 PUSH2 0x503 JUMP JUMPDEST PUSH2 0x534 PUSH1 0x20 DUP4 ADD DUP6 PUSH2 0x3FE JUMP JUMPDEST PUSH2 0x541 PUSH1 0x40 DUP4 ADD DUP5 PUSH2 0x475 JUMP JUMPDEST SWAP5 SWAP4 POP POP POP POP JUMP JUMPDEST PUSH1 0x0 DUP2 MLOAD SWAP1 POP SWAP2 SWAP1 POP JUMP JUMPDEST PUSH1 0x0 DUP3 DUP3 MSTORE PUSH1 0x20 DUP3 ADD SWAP1 POP SWAP3 SWAP2 POP POP JUMP JUMPDEST PUSH1 0x0 JUMPDEST DUP4 DUP2 LT ISZERO PUSH2 0x583 JUMPI DUP1 DUP3 ADD MLOAD DUP2 DUP5 ADD MSTORE PUSH1 0x20 DUP2 ADD SWAP1 POP PUSH2 0x568 JUMP JUMPDEST DUP4 DUP2 GT ISZERO PUSH2 0x592 JUMPI PUSH1 0x0 DUP5 DUP5 ADD MSTORE JUMPDEST POP POP POP POP JUMP JUMPDEST PUSH1 0x0 PUSH1 0x1F NOT PUSH1 0x1F DUP4 ADD AND SWAP1 POP SWAP2 SWAP1 POP JUMP JUMPDEST PUSH1 0x0 PUSH2 0x5B4 DUP3 PUSH2 0x549 JUMP JUMPDEST PUSH2 0x5BE DUP2 DUP6 PUSH2 0x554 JUMP JUMPDEST SWAP4 POP PUSH2 0x5CE DUP2 DUP6 PUSH1 0x20 DUP7 ADD PUSH2 0x565 JUMP JUMPDEST PUSH2 0x5D7 DUP2 PUSH2 0x598 JUMP JUMPDEST DUP5 ADD SWAP2 POP POP SWAP3 SWAP2 POP POP JUMP JUMPDEST PUSH1 0x0 DUP2 ISZERO ISZERO SWAP1 POP SWAP2 SWAP1 POP JUMP JUMPDEST PUSH2 0x5F7 DUP2 PUSH2 0x5E2 JUMP JUMPDEST DUP3 MSTORE POP POP JUMP JUMPDEST PUSH1 0x0 PUSH1 0x80 DUP3 ADD SWAP1 POP PUSH2 0x612 PUSH1 0x0 DUP4 ADD DUP8 PUSH2 0x503 JUMP JUMPDEST PUSH2 0x61F PUSH1 0x20 DUP4 ADD DUP7 PUSH2 0x3FE JUMP JUMPDEST DUP2 DUP2 SUB PUSH1 0x40 DUP4 ADD MSTORE PUSH2 0x631 DUP2 DUP6 PUSH2 0x5A9 JUMP JUMPDEST SWAP1 POP PUSH2 0x640 PUSH1 0x60 DUP4 ADD DUP5 PUSH2 0x5EE JUMP JUMPDEST SWAP6 SWAP5 POP POP POP POP POP JUMP JUMPDEST PUSH32 0x4E487B7100000000000000000000000000000000000000000000000000000000 PUSH1 0x0 MSTORE PUSH1 0x22 PUSH1 0x4 MSTORE PUSH1 0x24 PUSH1 0x0 REVERT JUMPDEST PUSH1 0x0 PUSH1 0x2 DUP3 DIV SWAP1 POP PUSH1 0x1 DUP3 AND DUP1 PUSH2 0x690 JUMPI PUSH1 0x7F DUP3 AND SWAP2 POP JUMPDEST PUSH1 0x20 DUP3 LT DUP2 SUB PUSH2 0x6A3 JUMPI PUSH2 0x6A2 PUSH2 0x649 JUMP JUMPDEST JUMPDEST POP SWAP2 SWAP1 POP JUMP INVALID LOG2 PUSH5 0x6970667358 0x22 SLT KECCAK256 PUSH8 0x3D7584327D66660E LOG4 SMOD 0x5C SSTORE PUSH9 0x7291D0F024C0CFE696 0xE5 0x2E CHAINID ADDRESS DUP14 LOG3 0xAB 0xD2 REVERT PUSH5 0x736F6C6343 STOP ADDMOD 0xD STOP CALLER "
				},
				"gasEstimates": {
					"creation": {
						"codeDepositCost": "351800",
						"executionCost": "386",
						"totalCost": "352186"
					},
					"external": {
						"ERC721_Interface()": "363",
						"activeItem(uint256)": "infinite",
						"ingameItem(uint256)": "infinite",
						"sqfToken()": "infinite",
						"userStatus(uint256)": "5257"
					}
				},
				"methodIdentifiers": {
					"ERC721_Interface()": "2b4c32be",
					"activeItem(uint256)": "58dd8603",
					"ingameItem(uint256)": "d30bdac9",
					"sqfToken()": "15b81dc3",
					"userStatus(uint256)": "1f7775ad"
				}
			},
			"storageLayout": {
				"storage": [
					{
						"astId": 106,
						"contract": "contracts/NFTContract3/FactoryStorage.sol:FactoryStorage",
						"label": "sqfToken",
						"offset": 0,
						"slot": "0",
						"type": "t_contract(IERC20)68"
					},
					{
						"astId": 111,
						"contract": "contracts/NFTContract3/FactoryStorage.sol:FactoryStorage",
						"label": "activeItem",
						"offset": 0,
						"slot": "1",
						"type": "t_mapping(t_uint256,t_struct(activeItems)82_storage)"
					},
					{
						"astId": 116,
						"contract": "contracts/NFTContract3/FactoryStorage.sol:FactoryStorage",
						"label": "ingameItem",
						"offset": 0,
						"slot": "2",
						"type": "t_mapping(t_uint256,t_struct(ingameItems)91_storage)"
					},
					{
						"astId": 121,
						"contract": "contracts/NFTContract3/FactoryStorage.sol:FactoryStorage",
						"label": "userStatus",
						"offset": 0,
						"slot": "3",
						"type": "t_mapping(t_uint256,t_struct(usersStatus)97_storage)"
					}
				],
				"types": {
					"t_address": {
						"encoding": "inplace",
						"label": "address",
						"numberOfBytes": "20"
					},
					"t_bool": {
						"encoding": "inplace",
						"label": "bool",
						"numberOfBytes": "1"
					},
					"t_contract(IERC20)68": {
						"encoding": "inplace",
						"label": "contract IERC20",
						"numberOfBytes": "20"
					},
					"t_enum(activeStatus)74": {
						"encoding": "inplace",
						"label": "enum FactoryStorage.activeStatus",
						"numberOfBytes": "1"
					},
					"t_mapping(t_uint256,t_struct(activeItems)82_storage)": {
						"encoding": "mapping",
						"key": "t_uint256",
						"label": "mapping(uint256 => struct FactoryStorage.activeItems)",
						"numberOfBytes": "32",
						"value": "t_struct(activeItems)82_storage"
					},
					"t_mapping(t_uint256,t_struct(ingameItems)91_storage)": {
						"encoding": "mapping",
						"key": "t_uint256",
						"label": "mapping(uint256 => struct FactoryStorage.ingameItems)",
						"numberOfBytes": "32",
						"value": "t_struct(ingameItems)91_storage"
					},
					"t_mapping(t_uint256,t_struct(usersStatus)97_storage)": {
						"encoding": "mapping",
						"key": "t_uint256",
						"label": "mapping(uint256 => struct FactoryStorage.usersStatus)",
						"numberOfBytes": "32",
						"value": "t_struct(usersStatus)97_storage"
					},
					"t_string_storage": {
						"encoding": "bytes",
						"label": "string",
						"numberOfBytes": "32"
					},
					"t_struct(activeItems)82_storage": {
						"encoding": "inplace",
						"label": "struct FactoryStorage.activeItems",
						"members": [
							{
								"astId": 76,
								"contract": "contracts/NFTContract3/FactoryStorage.sol:FactoryStorage",
								"label": "id",
								"offset": 0,
								"slot": "0",
								"type": "t_uint256"
							},
							{
								"astId": 78,
								"contract": "contracts/NFTContract3/FactoryStorage.sol:FactoryStorage",
								"label": "owner",
								"offset": 0,
								"slot": "1",
								"type": "t_address"
							},
							{
								"astId": 81,
								"contract": "contracts/NFTContract3/FactoryStorage.sol:FactoryStorage",
								"label": "status",
								"offset": 20,
								"slot": "1",
								"type": "t_enum(activeStatus)74"
							}
						],
						"numberOfBytes": "64"
					},
					"t_struct(ingameItems)91_storage": {
						"encoding": "inplace",
						"label": "struct FactoryStorage.ingameItems",
						"members": [
							{
								"astId": 84,
								"contract": "contracts/NFTContract3/FactoryStorage.sol:FactoryStorage",
								"label": "id",
								"offset": 0,
								"slot": "0",
								"type": "t_uint256"
							},
							{
								"astId": 86,
								"contract": "contracts/NFTContract3/FactoryStorage.sol:FactoryStorage",
								"label": "owner",
								"offset": 0,
								"slot": "1",
								"type": "t_address"
							},
							{
								"astId": 88,
								"contract": "contracts/NFTContract3/FactoryStorage.sol:FactoryStorage",
								"label": "itemId",
								"offset": 0,
								"slot": "2",
								"type": "t_string_storage"
							},
							{
								"astId": 90,
								"contract": "contracts/NFTContract3/FactoryStorage.sol:FactoryStorage",
								"label": "ingame",
								"offset": 0,
								"slot": "3",
								"type": "t_bool"
							}
						],
						"numberOfBytes": "128"
					},
					"t_struct(usersStatus)97_storage": {
						"encoding": "inplace",
						"label": "struct FactoryStorage.usersStatus",
						"members": [
							{
								"astId": 93,
								"contract": "contracts/NFTContract3/FactoryStorage.sol:FactoryStorage",
								"label": "user",
								"offset": 0,
								"slot": "0",
								"type": "t_address"
							},
							{
								"astId": 96,
								"contract": "contracts/NFTContract3/FactoryStorage.sol:FactoryStorage",
								"label": "status",
								"offset": 20,
								"slot": "0",
								"type": "t_enum(activeStatus)74"
							}
						],
						"numberOfBytes": "32"
					},
					"t_uint256": {
						"encoding": "inplace",
						"label": "uint256",
						"numberOfBytes": "32"
					}
				}
			},
			"userdoc": {
				"kind": "user",
				"methods": {},
				"version": 1
			}
		}
	}
}