{
	"contracts/NFTContract3/SQFIFactory.sol": {
		"SQFItemFactory": {
			"abi": [
				{
					"inputs": [
						{
							"internalType": "address",
							"name": "_nftContract",
							"type": "address"
						}
					],
					"stateMutability": "nonpayable",
					"type": "constructor"
				},
				{
					"anonymous": false,
					"inputs": [
						{
							"indexed": true,
							"internalType": "address",
							"name": "user",
							"type": "address"
						},
						{
							"indexed": false,
							"internalType": "string",
							"name": "status",
							"type": "string"
						}
					],
					"name": "AcctiveAccount",
					"type": "event"
				},
				{
					"anonymous": false,
					"inputs": [
						{
							"indexed": true,
							"internalType": "address",
							"name": "owner",
							"type": "address"
						},
						{
							"indexed": false,
							"internalType": "string",
							"name": "tokenId",
							"type": "string"
						}
					],
					"name": "Burn",
					"type": "event"
				},
				{
					"anonymous": false,
					"inputs": [
						{
							"indexed": true,
							"internalType": "address",
							"name": "receiver",
							"type": "address"
						},
						{
							"indexed": false,
							"internalType": "string",
							"name": "tokenId",
							"type": "string"
						}
					],
					"name": "Claim",
					"type": "event"
				},
				{
					"anonymous": false,
					"inputs": [
						{
							"indexed": true,
							"internalType": "address",
							"name": "to",
							"type": "address"
						},
						{
							"indexed": false,
							"internalType": "string",
							"name": "tokenId",
							"type": "string"
						}
					],
					"name": "Mint",
					"type": "event"
				},
				{
					"anonymous": false,
					"inputs": [
						{
							"indexed": true,
							"internalType": "address",
							"name": "previousMinter",
							"type": "address"
						},
						{
							"indexed": true,
							"internalType": "address",
							"name": "newMinter",
							"type": "address"
						}
					],
					"name": "MinterTransferred",
					"type": "event"
				},
				{
					"anonymous": false,
					"inputs": [
						{
							"indexed": false,
							"internalType": "uint256",
							"name": "tokenId",
							"type": "uint256"
						},
						{
							"indexed": true,
							"internalType": "address",
							"name": "to",
							"type": "address"
						},
						{
							"indexed": false,
							"internalType": "string",
							"name": "itemId",
							"type": "string"
						},
						{
							"indexed": false,
							"internalType": "string",
							"name": "externalId",
							"type": "string"
						}
					],
					"name": "NFTMinted",
					"type": "event"
				},
				{
					"anonymous": false,
					"inputs": [
						{
							"indexed": true,
							"internalType": "address",
							"name": "previousOwner",
							"type": "address"
						},
						{
							"indexed": true,
							"internalType": "address",
							"name": "newOwner",
							"type": "address"
						}
					],
					"name": "OwnershipTransferred",
					"type": "event"
				},
				{
					"anonymous": false,
					"inputs": [
						{
							"indexed": false,
							"internalType": "uint256",
							"name": "tokenId",
							"type": "uint256"
						},
						{
							"indexed": true,
							"internalType": "address",
							"name": "to",
							"type": "address"
						},
						{
							"indexed": false,
							"internalType": "string",
							"name": "typeActive",
							"type": "string"
						}
					],
					"name": "buyActive",
					"type": "event"
				},
				{
					"inputs": [],
					"name": "ERC721_Interface",
					"outputs": [
						{
							"internalType": "bytes4",
							"name": "",
							"type": "bytes4"
						}
					],
					"stateMutability": "view",
					"type": "function"
				},
				{
					"inputs": [
						{
							"internalType": "uint256",
							"name": "",
							"type": "uint256"
						}
					],
					"name": "activeItem",
					"outputs": [
						{
							"internalType": "uint256",
							"name": "id",
							"type": "uint256"
						},
						{
							"internalType": "address",
							"name": "owner",
							"type": "address"
						},
						{
							"internalType": "enum FactoryStorage.activeStatus",
							"name": "status",
							"type": "uint8"
						}
					],
					"stateMutability": "view",
					"type": "function"
				},
				{
					"inputs": [
						{
							"internalType": "address",
							"name": "account",
							"type": "address"
						}
					],
					"name": "addToMinters",
					"outputs": [],
					"stateMutability": "nonpayable",
					"type": "function"
				},
				{
					"inputs": [],
					"name": "bronzeActivePrice",
					"outputs": [
						{
							"internalType": "uint256",
							"name": "",
							"type": "uint256"
						}
					],
					"stateMutability": "view",
					"type": "function"
				},
				{
					"inputs": [],
					"name": "claimMinterAddmin",
					"outputs": [],
					"stateMutability": "nonpayable",
					"type": "function"
				},
				{
					"inputs": [],
					"name": "goldActivePrice",
					"outputs": [
						{
							"internalType": "uint256",
							"name": "",
							"type": "uint256"
						}
					],
					"stateMutability": "view",
					"type": "function"
				},
				{
					"inputs": [
						{
							"internalType": "uint256",
							"name": "",
							"type": "uint256"
						}
					],
					"name": "ingameItem",
					"outputs": [
						{
							"internalType": "bytes32",
							"name": "id",
							"type": "bytes32"
						},
						{
							"internalType": "string",
							"name": "itemId",
							"type": "string"
						},
						{
							"internalType": "bool",
							"name": "ingame",
							"type": "bool"
						}
					],
					"stateMutability": "view",
					"type": "function"
				},
				{
					"inputs": [
						{
							"internalType": "string",
							"name": "typeItem",
							"type": "string"
						}
					],
					"name": "mintActiveItem",
					"outputs": [],
					"stateMutability": "nonpayable",
					"type": "function"
				},
				{
					"inputs": [],
					"name": "minterAddmin",
					"outputs": [
						{
							"internalType": "address",
							"name": "",
							"type": "address"
						}
					],
					"stateMutability": "view",
					"type": "function"
				},
				{
					"inputs": [],
					"name": "nftContract",
					"outputs": [
						{
							"internalType": "address",
							"name": "",
							"type": "address"
						}
					],
					"stateMutability": "view",
					"type": "function"
				},
				{
					"inputs": [],
					"name": "owner",
					"outputs": [
						{
							"internalType": "address",
							"name": "",
							"type": "address"
						}
					],
					"stateMutability": "view",
					"type": "function"
				},
				{
					"inputs": [],
					"name": "pendingMinterAdmin",
					"outputs": [
						{
							"internalType": "address",
							"name": "",
							"type": "address"
						}
					],
					"stateMutability": "view",
					"type": "function"
				},
				{
					"inputs": [
						{
							"internalType": "address",
							"name": "account",
							"type": "address"
						}
					],
					"name": "removeFromMinters",
					"outputs": [],
					"stateMutability": "nonpayable",
					"type": "function"
				},
				{
					"inputs": [],
					"name": "renounceOwnership",
					"outputs": [],
					"stateMutability": "nonpayable",
					"type": "function"
				},
				{
					"inputs": [
						{
							"internalType": "address",
							"name": "_address",
							"type": "address"
						}
					],
					"name": "setSQFToken",
					"outputs": [],
					"stateMutability": "nonpayable",
					"type": "function"
				},
				{
					"inputs": [],
					"name": "silverActivePrice",
					"outputs": [
						{
							"internalType": "uint256",
							"name": "",
							"type": "uint256"
						}
					],
					"stateMutability": "view",
					"type": "function"
				},
				{
					"inputs": [],
					"name": "sqfToken",
					"outputs": [
						{
							"internalType": "contract IERC20",
							"name": "",
							"type": "address"
						}
					],
					"stateMutability": "view",
					"type": "function"
				},
				{
					"inputs": [
						{
							"internalType": "address",
							"name": "newMelter",
							"type": "address"
						}
					],
					"name": "transferMinterAddmin",
					"outputs": [],
					"stateMutability": "nonpayable",
					"type": "function"
				},
				{
					"inputs": [
						{
							"internalType": "address",
							"name": "newOwner",
							"type": "address"
						}
					],
					"name": "transferOwnership",
					"outputs": [],
					"stateMutability": "nonpayable",
					"type": "function"
				},
				{
					"inputs": [
						{
							"internalType": "uint256",
							"name": "",
							"type": "uint256"
						}
					],
					"name": "userStatus",
					"outputs": [
						{
							"internalType": "address",
							"name": "user",
							"type": "address"
						},
						{
							"internalType": "enum FactoryStorage.activeStatus",
							"name": "status",
							"type": "uint8"
						}
					],
					"stateMutability": "view",
					"type": "function"
				}
			],
			"devdoc": {
				"kind": "dev",
				"methods": {
					"owner()": {
						"details": "Returns the address of the current owner."
					},
					"renounceOwnership()": {
						"details": "Leaves the contract without owner. It will not be possible to call `onlyOwner` functions anymore. Can only be called by the current owner. NOTE: Renouncing ownership will leave the contract without an owner, thereby removing any functionality that is only available to the owner."
					},
					"transferOwnership(address)": {
						"details": "Transfers ownership of the contract to a new account (`newOwner`). Can only be called by the current owner."
					}
				},
				"version": 1
			},
			"evm": {
				"assembly": "    /* \"contracts/NFTContract3/SQFIFactory.sol\":1887:4380  contract SQFItemFactory is FactoryStorage, Ownable, Roleable... */\n  mstore(0x40, 0x80)\n    /* \"contracts/NFTContract3/SQFIFactory.sol\":2355:2662  constructor(address _nftContract) {... */\n  callvalue\n  dup1\n  iszero\n  tag_1\n  jumpi\n  0x00\n  dup1\n  revert\ntag_1:\n  pop\n  mload(0x40)\n  sub(codesize, bytecodeSize)\n  dup1\n  bytecodeSize\n  dup4\n  codecopy\n  dup2\n  dup2\n  add\n  0x40\n  mstore\n  dup2\n  add\n  swap1\n  tag_2\n  swap2\n  swap1\n  tag_3\n  jump\t// in\ntag_2:\n    /* \"contracts/NFTContract3/Ownable.sol\":914:946  _transferOwnership(_msgSender()) */\n  tag_8\n    /* \"contracts/NFTContract3/Ownable.sol\":933:945  _msgSender() */\n  tag_9\n    /* \"contracts/NFTContract3/Ownable.sol\":933:943  _msgSender */\n  shl(0x20, tag_10)\n    /* \"contracts/NFTContract3/Ownable.sol\":933:945  _msgSender() */\n  0x20\n  shr\n  jump\t// in\ntag_9:\n    /* \"contracts/NFTContract3/Ownable.sol\":914:932  _transferOwnership */\n  shl(0x20, tag_11)\n    /* \"contracts/NFTContract3/Ownable.sol\":914:946  _transferOwnership(_msgSender()) */\n  0x20\n  shr\n  jump\t// in\ntag_8:\n    /* \"contracts/NFTContract3/Roleable.sol\":718:728  msg.sender */\n  caller\n    /* \"contracts/NFTContract3/Roleable.sol\":703:715  _minteradmin */\n  0x06\n  0x00\n    /* \"contracts/NFTContract3/Roleable.sol\":703:728  _minteradmin = msg.sender */\n  0x0100\n  exp\n  dup2\n  sload\n  dup2\n  0xffffffffffffffffffffffffffffffffffffffff\n  mul\n  not\n  and\n  swap1\n  dup4\n  0xffffffffffffffffffffffffffffffffffffffff\n  and\n  mul\n  or\n  swap1\n  sstore\n  pop\n    /* \"contracts/NFTContract3/Roleable.sol\":761:765  true */\n  0x01\n    /* \"contracts/NFTContract3/Roleable.sol\":738:746  _minters */\n  0x05\n    /* \"contracts/NFTContract3/Roleable.sol\":738:758  _minters[msg.sender] */\n  0x00\n    /* \"contracts/NFTContract3/Roleable.sol\":747:757  msg.sender */\n  caller\n    /* \"contracts/NFTContract3/Roleable.sol\":738:758  _minters[msg.sender] */\n  0xffffffffffffffffffffffffffffffffffffffff\n  and\n  0xffffffffffffffffffffffffffffffffffffffff\n  and\n  dup2\n  mstore\n  0x20\n  add\n  swap1\n  dup2\n  mstore\n  0x20\n  add\n  0x00\n  keccak256\n  0x00\n    /* \"contracts/NFTContract3/Roleable.sol\":738:765  _minters[msg.sender] = true */\n  0x0100\n  exp\n  dup2\n  sload\n  dup2\n  0xff\n  mul\n  not\n  and\n  swap1\n  dup4\n  iszero\n  iszero\n  mul\n  or\n  swap1\n  sstore\n  pop\n    /* \"contracts/NFTContract3/SQFIFactory.sol\":2431:2432  0 */\n  0x00\n    /* \"contracts/NFTContract3/SQFIFactory.sol\":2407:2433  _nftContract != address(0) */\n  0xffffffffffffffffffffffffffffffffffffffff\n  and\n    /* \"contracts/NFTContract3/SQFIFactory.sol\":2407:2419  _nftContract */\n  dup2\n    /* \"contracts/NFTContract3/SQFIFactory.sol\":2407:2433  _nftContract != address(0) */\n  0xffffffffffffffffffffffffffffffffffffffff\n  and\n  sub\n    /* \"contracts/NFTContract3/SQFIFactory.sol\":2399:2462  require(_nftContract != address(0), \"Invalid contract address\") */\n  tag_14\n  jumpi\n  mload(0x40)\n  0x08c379a000000000000000000000000000000000000000000000000000000000\n  dup2\n  mstore\n  0x04\n  add\n  tag_15\n  swap1\n  tag_16\n  jump\t// in\ntag_15:\n  mload(0x40)\n  dup1\n  swap2\n  sub\n  swap1\n  revert\ntag_14:\n    /* \"contracts/NFTContract3/SQFIFactory.sol\":2485:2497  _nftContract */\n  dup1\n    /* \"contracts/NFTContract3/SQFIFactory.sol\":2472:2476  SQFI */\n  0x0c\n  0x00\n    /* \"contracts/NFTContract3/SQFIFactory.sol\":2472:2498  SQFI = ISQFI(_nftContract) */\n  0x0100\n  exp\n  dup2\n  sload\n  dup2\n  0xffffffffffffffffffffffffffffffffffffffff\n  mul\n  not\n  and\n  swap1\n  dup4\n  0xffffffffffffffffffffffffffffffffffffffff\n  and\n  mul\n  or\n  swap1\n  sstore\n  pop\n    /* \"contracts/NFTContract3/SQFIFactory.sol\":2522:2534  _nftContract */\n  dup1\n    /* \"contracts/NFTContract3/SQFIFactory.sol\":2508:2519  nftContract */\n  0x08\n  0x00\n    /* \"contracts/NFTContract3/SQFIFactory.sol\":2508:2534  nftContract = _nftContract */\n  0x0100\n  exp\n  dup2\n  sload\n  dup2\n  0xffffffffffffffffffffffffffffffffffffffff\n  mul\n  not\n  and\n  swap1\n  dup4\n  0xffffffffffffffffffffffffffffffffffffffff\n  and\n  mul\n  or\n  swap1\n  sstore\n  pop\n    /* \"contracts/NFTContract3/SQFIFactory.sol\":2564:2574  500*10**18 */\n  0x1b1ae4d6e2ef500000\n    /* \"contracts/NFTContract3/SQFIFactory.sol\":2544:2561  bronzeActivePrice */\n  0x09\n    /* \"contracts/NFTContract3/SQFIFactory.sol\":2544:2574  bronzeActivePrice = 500*10**18 */\n  dup2\n  swap1\n  sstore\n  pop\n    /* \"contracts/NFTContract3/SQFIFactory.sol\":2604:2615  1000*10**18 */\n  0x3635c9adc5dea00000\n    /* \"contracts/NFTContract3/SQFIFactory.sol\":2584:2601  silverActivePrice */\n  0x0a\n    /* \"contracts/NFTContract3/SQFIFactory.sol\":2584:2615  silverActivePrice = 1000*10**18 */\n  dup2\n  swap1\n  sstore\n  pop\n    /* \"contracts/NFTContract3/SQFIFactory.sol\":2643:2654  1500*10**18 */\n  0x5150ae84a8cdf00000\n    /* \"contracts/NFTContract3/SQFIFactory.sol\":2625:2640  goldActivePrice */\n  0x0b\n    /* \"contracts/NFTContract3/SQFIFactory.sol\":2625:2654  goldActivePrice = 1500*10**18 */\n  dup2\n  swap1\n  sstore\n  pop\n    /* \"contracts/NFTContract3/SQFIFactory.sol\":2355:2662  constructor(address _nftContract) {... */\n  pop\n    /* \"contracts/NFTContract3/SQFIFactory.sol\":1887:4380  contract SQFItemFactory is FactoryStorage, Ownable, Roleable... */\n  jump(tag_17)\n    /* \"contracts/NFTContract3/Context.sol\":640:736  function _msgSender() internal view virtual returns (address) {... */\ntag_10:\n    /* \"contracts/NFTContract3/Context.sol\":693:700  address */\n  0x00\n    /* \"contracts/NFTContract3/Context.sol\":719:729  msg.sender */\n  caller\n    /* \"contracts/NFTContract3/Context.sol\":712:729  return msg.sender */\n  swap1\n  pop\n    /* \"contracts/NFTContract3/Context.sol\":640:736  function _msgSender() internal view virtual returns (address) {... */\n  swap1\n  jump\t// out\n    /* \"contracts/NFTContract3/Ownable.sol\":2263:2450  function _transferOwnership(address newOwner) internal virtual {... */\ntag_11:\n    /* \"contracts/NFTContract3/Ownable.sol\":2336:2352  address oldOwner */\n  0x00\n    /* \"contracts/NFTContract3/Ownable.sol\":2355:2361  _owner */\n  0x04\n  0x00\n  swap1\n  sload\n  swap1\n  0x0100\n  exp\n  swap1\n  div\n  0xffffffffffffffffffffffffffffffffffffffff\n  and\n    /* \"contracts/NFTContract3/Ownable.sol\":2336:2361  address oldOwner = _owner */\n  swap1\n  pop\n    /* \"contracts/NFTContract3/Ownable.sol\":2380:2388  newOwner */\n  dup2\n    /* \"contracts/NFTContract3/Ownable.sol\":2371:2377  _owner */\n  0x04\n  0x00\n    /* \"contracts/NFTContract3/Ownable.sol\":2371:2388  _owner = newOwner */\n  0x0100\n  exp\n  dup2\n  sload\n  dup2\n  0xffffffffffffffffffffffffffffffffffffffff\n  mul\n  not\n  and\n  swap1\n  dup4\n  0xffffffffffffffffffffffffffffffffffffffff\n  and\n  mul\n  or\n  swap1\n  sstore\n  pop\n    /* \"contracts/NFTContract3/Ownable.sol\":2434:2442  newOwner */\n  dup2\n    /* \"contracts/NFTContract3/Ownable.sol\":2403:2443  OwnershipTransferred(oldOwner, newOwner) */\n  0xffffffffffffffffffffffffffffffffffffffff\n  and\n    /* \"contracts/NFTContract3/Ownable.sol\":2424:2432  oldOwner */\n  dup2\n    /* \"contracts/NFTContract3/Ownable.sol\":2403:2443  OwnershipTransferred(oldOwner, newOwner) */\n  0xffffffffffffffffffffffffffffffffffffffff\n  and\n  0x8be0079c531659141344cd1fd0a4f28419497f9722a3daafe3b4186f6b6457e0\n  mload(0x40)\n  mload(0x40)\n  dup1\n  swap2\n  sub\n  swap1\n  log3\n    /* \"contracts/NFTContract3/Ownable.sol\":2326:2450  {... */\n  pop\n    /* \"contracts/NFTContract3/Ownable.sol\":2263:2450  function _transferOwnership(address newOwner) internal virtual {... */\n  pop\n  jump\t// out\n    /* \"#utility.yul\":88:205   */\ntag_21:\n    /* \"#utility.yul\":197:198   */\n  0x00\n    /* \"#utility.yul\":194:195   */\n  dup1\n    /* \"#utility.yul\":187:199   */\n  revert\n    /* \"#utility.yul\":334:460   */\ntag_23:\n    /* \"#utility.yul\":371:378   */\n  0x00\n    /* \"#utility.yul\":411:453   */\n  0xffffffffffffffffffffffffffffffffffffffff\n    /* \"#utility.yul\":404:409   */\n  dup3\n    /* \"#utility.yul\":400:454   */\n  and\n    /* \"#utility.yul\":389:454   */\n  swap1\n  pop\n    /* \"#utility.yul\":334:460   */\n  swap2\n  swap1\n  pop\n  jump\t// out\n    /* \"#utility.yul\":466:562   */\ntag_24:\n    /* \"#utility.yul\":503:510   */\n  0x00\n    /* \"#utility.yul\":532:556   */\n  tag_36\n    /* \"#utility.yul\":550:555   */\n  dup3\n    /* \"#utility.yul\":532:556   */\n  tag_23\n  jump\t// in\ntag_36:\n    /* \"#utility.yul\":521:556   */\n  swap1\n  pop\n    /* \"#utility.yul\":466:562   */\n  swap2\n  swap1\n  pop\n  jump\t// out\n    /* \"#utility.yul\":568:690   */\ntag_25:\n    /* \"#utility.yul\":641:665   */\n  tag_38\n    /* \"#utility.yul\":659:664   */\n  dup2\n    /* \"#utility.yul\":641:665   */\n  tag_24\n  jump\t// in\ntag_38:\n    /* \"#utility.yul\":634:639   */\n  dup2\n    /* \"#utility.yul\":631:666   */\n  eq\n    /* \"#utility.yul\":621:684   */\n  tag_39\n  jumpi\n    /* \"#utility.yul\":680:681   */\n  0x00\n    /* \"#utility.yul\":677:678   */\n  dup1\n    /* \"#utility.yul\":670:682   */\n  revert\n    /* \"#utility.yul\":621:684   */\ntag_39:\n    /* \"#utility.yul\":568:690   */\n  pop\n  jump\t// out\n    /* \"#utility.yul\":696:839   */\ntag_26:\n    /* \"#utility.yul\":753:758   */\n  0x00\n    /* \"#utility.yul\":784:790   */\n  dup2\n    /* \"#utility.yul\":778:791   */\n  mload\n    /* \"#utility.yul\":769:791   */\n  swap1\n  pop\n    /* \"#utility.yul\":800:833   */\n  tag_41\n    /* \"#utility.yul\":827:832   */\n  dup2\n    /* \"#utility.yul\":800:833   */\n  tag_25\n  jump\t// in\ntag_41:\n    /* \"#utility.yul\":696:839   */\n  swap3\n  swap2\n  pop\n  pop\n  jump\t// out\n    /* \"#utility.yul\":845:1196   */\ntag_3:\n    /* \"#utility.yul\":915:921   */\n  0x00\n    /* \"#utility.yul\":964:966   */\n  0x20\n    /* \"#utility.yul\":952:961   */\n  dup3\n    /* \"#utility.yul\":943:950   */\n  dup5\n    /* \"#utility.yul\":939:962   */\n  sub\n    /* \"#utility.yul\":935:967   */\n  slt\n    /* \"#utility.yul\":932:1051   */\n  iszero\n  tag_43\n  jumpi\n    /* \"#utility.yul\":970:1049   */\n  tag_44\n  tag_21\n  jump\t// in\ntag_44:\n    /* \"#utility.yul\":932:1051   */\ntag_43:\n    /* \"#utility.yul\":1090:1091   */\n  0x00\n    /* \"#utility.yul\":1115:1179   */\n  tag_45\n    /* \"#utility.yul\":1171:1178   */\n  dup5\n    /* \"#utility.yul\":1162:1168   */\n  dup3\n    /* \"#utility.yul\":1151:1160   */\n  dup6\n    /* \"#utility.yul\":1147:1169   */\n  add\n    /* \"#utility.yul\":1115:1179   */\n  tag_26\n  jump\t// in\ntag_45:\n    /* \"#utility.yul\":1105:1179   */\n  swap2\n  pop\n    /* \"#utility.yul\":1061:1189   */\n  pop\n    /* \"#utility.yul\":845:1196   */\n  swap3\n  swap2\n  pop\n  pop\n  jump\t// out\n    /* \"#utility.yul\":1202:1371   */\ntag_27:\n    /* \"#utility.yul\":1286:1297   */\n  0x00\n    /* \"#utility.yul\":1320:1326   */\n  dup3\n    /* \"#utility.yul\":1315:1318   */\n  dup3\n    /* \"#utility.yul\":1308:1327   */\n  mstore\n    /* \"#utility.yul\":1360:1364   */\n  0x20\n    /* \"#utility.yul\":1355:1358   */\n  dup3\n    /* \"#utility.yul\":1351:1365   */\n  add\n    /* \"#utility.yul\":1336:1365   */\n  swap1\n  pop\n    /* \"#utility.yul\":1202:1371   */\n  swap3\n  swap2\n  pop\n  pop\n  jump\t// out\n    /* \"#utility.yul\":1377:1551   */\ntag_28:\n    /* \"#utility.yul\":1517:1543   */\n  0x496e76616c696420636f6e747261637420616464726573730000000000000000\n    /* \"#utility.yul\":1513:1514   */\n  0x00\n    /* \"#utility.yul\":1505:1511   */\n  dup3\n    /* \"#utility.yul\":1501:1515   */\n  add\n    /* \"#utility.yul\":1494:1544   */\n  mstore\n    /* \"#utility.yul\":1377:1551   */\n  pop\n  jump\t// out\n    /* \"#utility.yul\":1557:1923   */\ntag_29:\n    /* \"#utility.yul\":1699:1702   */\n  0x00\n    /* \"#utility.yul\":1720:1787   */\n  tag_49\n    /* \"#utility.yul\":1784:1786   */\n  0x18\n    /* \"#utility.yul\":1779:1782   */\n  dup4\n    /* \"#utility.yul\":1720:1787   */\n  tag_27\n  jump\t// in\ntag_49:\n    /* \"#utility.yul\":1713:1787   */\n  swap2\n  pop\n    /* \"#utility.yul\":1796:1889   */\n  tag_50\n    /* \"#utility.yul\":1885:1888   */\n  dup3\n    /* \"#utility.yul\":1796:1889   */\n  tag_28\n  jump\t// in\ntag_50:\n    /* \"#utility.yul\":1914:1916   */\n  0x20\n    /* \"#utility.yul\":1909:1912   */\n  dup3\n    /* \"#utility.yul\":1905:1917   */\n  add\n    /* \"#utility.yul\":1898:1917   */\n  swap1\n  pop\n    /* \"#utility.yul\":1557:1923   */\n  swap2\n  swap1\n  pop\n  jump\t// out\n    /* \"#utility.yul\":1929:2348   */\ntag_16:\n    /* \"#utility.yul\":2095:2099   */\n  0x00\n    /* \"#utility.yul\":2133:2135   */\n  0x20\n    /* \"#utility.yul\":2122:2131   */\n  dup3\n    /* \"#utility.yul\":2118:2136   */\n  add\n    /* \"#utility.yul\":2110:2136   */\n  swap1\n  pop\n    /* \"#utility.yul\":2182:2191   */\n  dup2\n    /* \"#utility.yul\":2176:2180   */\n  dup2\n    /* \"#utility.yul\":2172:2192   */\n  sub\n    /* \"#utility.yul\":2168:2169   */\n  0x00\n    /* \"#utility.yul\":2157:2166   */\n  dup4\n    /* \"#utility.yul\":2153:2170   */\n  add\n    /* \"#utility.yul\":2146:2193   */\n  mstore\n    /* \"#utility.yul\":2210:2341   */\n  tag_52\n    /* \"#utility.yul\":2336:2340   */\n  dup2\n    /* \"#utility.yul\":2210:2341   */\n  tag_29\n  jump\t// in\ntag_52:\n    /* \"#utility.yul\":2202:2341   */\n  swap1\n  pop\n    /* \"#utility.yul\":1929:2348   */\n  swap2\n  swap1\n  pop\n  jump\t// out\n    /* \"contracts/NFTContract3/SQFIFactory.sol\":1887:4380  contract SQFItemFactory is FactoryStorage, Ownable, Roleable... */\ntag_17:\n  dataSize(sub_0)\n  dup1\n  dataOffset(sub_0)\n  0x00\n  codecopy\n  0x00\n  return\nstop\n\nsub_0: assembly {\n        /* \"contracts/NFTContract3/SQFIFactory.sol\":1887:4380  contract SQFItemFactory is FactoryStorage, Ownable, Roleable... */\n      mstore(0x40, 0x80)\n      callvalue\n      dup1\n      iszero\n      tag_1\n      jumpi\n      0x00\n      dup1\n      revert\n    tag_1:\n      pop\n      jumpi(tag_2, lt(calldatasize, 0x04))\n      shr(0xe0, calldataload(0x00))\n      dup1\n      0xaa6a0dac\n      gt\n      tag_23\n      jumpi\n      dup1\n      0xce1d82f5\n      gt\n      tag_24\n      jumpi\n      dup1\n      0xce1d82f5\n      eq\n      tag_18\n      jumpi\n      dup1\n      0xd30bdac9\n      eq\n      tag_19\n      jumpi\n      dup1\n      0xd56d229d\n      eq\n      tag_20\n      jumpi\n      dup1\n      0xdb69a32d\n      eq\n      tag_21\n      jumpi\n      dup1\n      0xf2fde38b\n      eq\n      tag_22\n      jumpi\n      jump(tag_2)\n    tag_24:\n      dup1\n      0xaa6a0dac\n      eq\n      tag_13\n      jumpi\n      dup1\n      0xac4867f0\n      eq\n      tag_14\n      jumpi\n      dup1\n      0xaed59b8a\n      eq\n      tag_15\n      jumpi\n      dup1\n      0xaf1b3d5e\n      eq\n      tag_16\n      jumpi\n      dup1\n      0xc04772d5\n      eq\n      tag_17\n      jumpi\n      jump(tag_2)\n    tag_23:\n      dup1\n      0x6e722920\n      gt\n      tag_25\n      jumpi\n      dup1\n      0x6e722920\n      eq\n      tag_8\n      jumpi\n      dup1\n      0x715018a6\n      eq\n      tag_9\n      jumpi\n      dup1\n      0x8da5cb5b\n      eq\n      tag_10\n      jumpi\n      dup1\n      0x92bf77dd\n      eq\n      tag_11\n      jumpi\n      dup1\n      0xa15c15af\n      eq\n      tag_12\n      jumpi\n      jump(tag_2)\n    tag_25:\n      dup1\n      0x15b81dc3\n      eq\n      tag_3\n      jumpi\n      dup1\n      0x1f7775ad\n      eq\n      tag_4\n      jumpi\n      dup1\n      0x2b4c32be\n      eq\n      tag_5\n      jumpi\n      dup1\n      0x58dd8603\n      eq\n      tag_6\n      jumpi\n      dup1\n      0x6d4d0c57\n      eq\n      tag_7\n      jumpi\n    tag_2:\n      0x00\n      dup1\n      revert\n        /* \"contracts/NFTContract3/FactoryStorage.sol\":1314:1336  IERC20 public sqfToken */\n    tag_3:\n      tag_26\n      tag_27\n      jump\t// in\n    tag_26:\n      mload(0x40)\n      tag_28\n      swap2\n      swap1\n      tag_29\n      jump\t// in\n    tag_28:\n      mload(0x40)\n      dup1\n      swap2\n      sub\n      swap1\n      return\n        /* \"contracts/NFTContract3/FactoryStorage.sol\":1524:1573  mapping(uint256 => usersStatus) public userStatus */\n    tag_4:\n      tag_30\n      0x04\n      dup1\n      calldatasize\n      sub\n      dup2\n      add\n      swap1\n      tag_31\n      swap2\n      swap1\n      tag_32\n      jump\t// in\n    tag_31:\n      tag_33\n      jump\t// in\n    tag_30:\n      mload(0x40)\n      tag_34\n      swap3\n      swap2\n      swap1\n      tag_35\n      jump\t// in\n    tag_34:\n      mload(0x40)\n      dup1\n      swap2\n      sub\n      swap1\n      return\n        /* \"contracts/NFTContract3/FactoryStorage.sol\":1248:1308  bytes4 public constant ERC721_Interface = bytes4(0x80ac58cd) */\n    tag_5:\n      tag_36\n      tag_37\n      jump\t// in\n    tag_36:\n      mload(0x40)\n      tag_38\n      swap2\n      swap1\n      tag_39\n      jump\t// in\n    tag_38:\n      mload(0x40)\n      dup1\n      swap2\n      sub\n      swap1\n      return\n        /* \"contracts/NFTContract3/FactoryStorage.sol\":1414:1463  mapping(uint256 => activeItems) public activeItem */\n    tag_6:\n      tag_40\n      0x04\n      dup1\n      calldatasize\n      sub\n      dup2\n      add\n      swap1\n      tag_41\n      swap2\n      swap1\n      tag_32\n      jump\t// in\n    tag_41:\n      tag_42\n      jump\t// in\n    tag_40:\n      mload(0x40)\n      tag_43\n      swap4\n      swap3\n      swap2\n      swap1\n      tag_44\n      jump\t// in\n    tag_43:\n      mload(0x40)\n      dup1\n      swap2\n      sub\n      swap1\n      return\n        /* \"contracts/NFTContract3/Roleable.sol\":1098:1217  function transferMinterAddmin(address newMelter) public onlyMinterAdmin {... */\n    tag_7:\n      tag_45\n      0x04\n      dup1\n      calldatasize\n      sub\n      dup2\n      add\n      swap1\n      tag_46\n      swap2\n      swap1\n      tag_47\n      jump\t// in\n    tag_46:\n      tag_48\n      jump\t// in\n    tag_45:\n      stop\n        /* \"contracts/NFTContract3/Roleable.sol\":983:1092  function removeFromMinters(address account) public onlyMinterAdmin {... */\n    tag_8:\n      tag_49\n      0x04\n      dup1\n      calldatasize\n      sub\n      dup2\n      add\n      swap1\n      tag_50\n      swap2\n      swap1\n      tag_47\n      jump\t// in\n    tag_50:\n      tag_51\n      jump\t// in\n    tag_49:\n      stop\n        /* \"contracts/NFTContract3/Ownable.sol\":1661:1762  function renounceOwnership() public virtual onlyOwner {... */\n    tag_9:\n      tag_52\n      tag_53\n      jump\t// in\n    tag_52:\n      stop\n        /* \"contracts/NFTContract3/Ownable.sol\":1029:1114  function owner() public view virtual returns (address) {... */\n    tag_10:\n      tag_54\n      tag_55\n      jump\t// in\n    tag_54:\n      mload(0x40)\n      tag_56\n      swap2\n      swap1\n      tag_57\n      jump\t// in\n    tag_56:\n      mload(0x40)\n      dup1\n      swap2\n      sub\n      swap1\n      return\n        /* \"contracts/NFTContract3/SQFIFactory.sol\":2668:2770  function setSQFToken(address _address) external onlyOwner {... */\n    tag_11:\n      tag_58\n      0x04\n      dup1\n      calldatasize\n      sub\n      dup2\n      add\n      swap1\n      tag_59\n      swap2\n      swap1\n      tag_47\n      jump\t// in\n    tag_59:\n      tag_60\n      jump\t// in\n    tag_58:\n      stop\n        /* \"contracts/NFTContract3/Roleable.sol\":874:977  function addToMinters(address account) public onlyMinterAdmin {... */\n    tag_12:\n      tag_61\n      0x04\n      dup1\n      calldatasize\n      sub\n      dup2\n      add\n      swap1\n      tag_62\n      swap2\n      swap1\n      tag_47\n      jump\t// in\n    tag_62:\n      tag_63\n      jump\t// in\n    tag_61:\n      stop\n        /* \"contracts/NFTContract3/SQFIFactory.sol\":2063:2093  uint256 public goldActivePrice */\n    tag_13:\n      tag_64\n      tag_65\n      jump\t// in\n    tag_64:\n      mload(0x40)\n      tag_66\n      swap2\n      swap1\n      tag_67\n      jump\t// in\n    tag_66:\n      mload(0x40)\n      dup1\n      swap2\n      sub\n      swap1\n      return\n        /* \"contracts/NFTContract3/SQFIFactory.sol\":1987:2019  uint256 public bronzeActivePrice */\n    tag_14:\n      tag_68\n      tag_69\n      jump\t// in\n    tag_68:\n      mload(0x40)\n      tag_70\n      swap2\n      swap1\n      tag_67\n      jump\t// in\n    tag_70:\n      mload(0x40)\n      dup1\n      swap2\n      sub\n      swap1\n      return\n        /* \"contracts/NFTContract3/Roleable.sol\":1223:1439  function claimMinterAddmin() public onlyPendingMinterAdmin {... */\n    tag_15:\n      tag_71\n      tag_72\n      jump\t// in\n    tag_71:\n      stop\n        /* \"contracts/NFTContract3/SQFIFactory.sol\":2025:2057  uint256 public silverActivePrice */\n    tag_16:\n      tag_73\n      tag_74\n      jump\t// in\n    tag_73:\n      mload(0x40)\n      tag_75\n      swap2\n      swap1\n      tag_67\n      jump\t// in\n    tag_75:\n      mload(0x40)\n      dup1\n      swap2\n      sub\n      swap1\n      return\n        /* \"contracts/NFTContract3/SQFIFactory.sol\":2776:4377  function mintActiveItem(string memory typeItem) public onlyMinter  { ... */\n    tag_17:\n      tag_76\n      0x04\n      dup1\n      calldatasize\n      sub\n      dup2\n      add\n      swap1\n      tag_77\n      swap2\n      swap1\n      tag_78\n      jump\t// in\n    tag_77:\n      tag_79\n      jump\t// in\n    tag_76:\n      stop\n        /* \"contracts/NFTContract3/Roleable.sol\":163:196  address public pendingMinterAdmin */\n    tag_18:\n      tag_80\n      tag_81\n      jump\t// in\n    tag_80:\n      mload(0x40)\n      tag_82\n      swap2\n      swap1\n      tag_57\n      jump\t// in\n    tag_82:\n      mload(0x40)\n      dup1\n      swap2\n      sub\n      swap1\n      return\n        /* \"contracts/NFTContract3/FactoryStorage.sol\":1469:1518  mapping(uint256 => ingameItems) public ingameItem */\n    tag_19:\n      tag_83\n      0x04\n      dup1\n      calldatasize\n      sub\n      dup2\n      add\n      swap1\n      tag_84\n      swap2\n      swap1\n      tag_32\n      jump\t// in\n    tag_84:\n      tag_85\n      jump\t// in\n    tag_83:\n      mload(0x40)\n      tag_86\n      swap4\n      swap3\n      swap2\n      swap1\n      tag_87\n      jump\t// in\n    tag_86:\n      mload(0x40)\n      dup1\n      swap2\n      sub\n      swap1\n      return\n        /* \"contracts/NFTContract3/SQFIFactory.sol\":1955:1981  address public nftContract */\n    tag_20:\n      tag_88\n      tag_89\n      jump\t// in\n    tag_88:\n      mload(0x40)\n      tag_90\n      swap2\n      swap1\n      tag_57\n      jump\t// in\n    tag_90:\n      mload(0x40)\n      dup1\n      swap2\n      sub\n      swap1\n      return\n        /* \"contracts/NFTContract3/Roleable.sol\":778:868  function minterAddmin() public view returns (address) {... */\n    tag_21:\n      tag_91\n      tag_92\n      jump\t// in\n    tag_91:\n      mload(0x40)\n      tag_93\n      swap2\n      swap1\n      tag_57\n      jump\t// in\n    tag_93:\n      mload(0x40)\n      dup1\n      swap2\n      sub\n      swap1\n      return\n        /* \"contracts/NFTContract3/Ownable.sol\":1911:2109  function transferOwnership(address newOwner) public virtual onlyOwner {... */\n    tag_22:\n      tag_94\n      0x04\n      dup1\n      calldatasize\n      sub\n      dup2\n      add\n      swap1\n      tag_95\n      swap2\n      swap1\n      tag_47\n      jump\t// in\n    tag_95:\n      tag_96\n      jump\t// in\n    tag_94:\n      stop\n        /* \"contracts/NFTContract3/FactoryStorage.sol\":1314:1336  IERC20 public sqfToken */\n    tag_27:\n      0x00\n      dup1\n      sload\n      swap1\n      0x0100\n      exp\n      swap1\n      div\n      0xffffffffffffffffffffffffffffffffffffffff\n      and\n      dup2\n      jump\t// out\n        /* \"contracts/NFTContract3/FactoryStorage.sol\":1524:1573  mapping(uint256 => usersStatus) public userStatus */\n    tag_33:\n      mstore(0x20, 0x03)\n      dup1\n      0x00\n      mstore\n      keccak256(0x00, 0x40)\n      0x00\n      swap2\n      pop\n      swap1\n      pop\n      dup1\n      0x00\n      add\n      0x00\n      swap1\n      sload\n      swap1\n      0x0100\n      exp\n      swap1\n      div\n      0xffffffffffffffffffffffffffffffffffffffff\n      and\n      swap1\n      dup1\n      0x00\n      add\n      0x14\n      swap1\n      sload\n      swap1\n      0x0100\n      exp\n      swap1\n      div\n      0xff\n      and\n      swap1\n      pop\n      dup3\n      jump\t// out\n        /* \"contracts/NFTContract3/FactoryStorage.sol\":1248:1308  bytes4 public constant ERC721_Interface = bytes4(0x80ac58cd) */\n    tag_37:\n        /* \"contracts/NFTContract3/FactoryStorage.sol\":1297:1307  0x80ac58cd */\n      0x80ac58cd\n        /* \"contracts/NFTContract3/FactoryStorage.sol\":1290:1308  bytes4(0x80ac58cd) */\n      0xe0\n      shl\n        /* \"contracts/NFTContract3/FactoryStorage.sol\":1248:1308  bytes4 public constant ERC721_Interface = bytes4(0x80ac58cd) */\n      dup2\n      jump\t// out\n        /* \"contracts/NFTContract3/FactoryStorage.sol\":1414:1463  mapping(uint256 => activeItems) public activeItem */\n    tag_42:\n      mstore(0x20, 0x01)\n      dup1\n      0x00\n      mstore\n      keccak256(0x00, 0x40)\n      0x00\n      swap2\n      pop\n      swap1\n      pop\n      dup1\n      0x00\n      add\n      sload\n      swap1\n      dup1\n      0x01\n      add\n      0x00\n      swap1\n      sload\n      swap1\n      0x0100\n      exp\n      swap1\n      div\n      0xffffffffffffffffffffffffffffffffffffffff\n      and\n      swap1\n      dup1\n      0x01\n      add\n      0x14\n      swap1\n      sload\n      swap1\n      0x0100\n      exp\n      swap1\n      div\n      0xff\n      and\n      swap1\n      pop\n      dup4\n      jump\t// out\n        /* \"contracts/NFTContract3/Roleable.sol\":1098:1217  function transferMinterAddmin(address newMelter) public onlyMinterAdmin {... */\n    tag_48:\n        /* \"contracts/NFTContract3/Roleable.sol\":263:275  _minteradmin */\n      0x06\n      0x00\n      swap1\n      sload\n      swap1\n      0x0100\n      exp\n      swap1\n      div\n      0xffffffffffffffffffffffffffffffffffffffff\n      and\n        /* \"contracts/NFTContract3/Roleable.sol\":249:275  msg.sender == _minteradmin */\n      0xffffffffffffffffffffffffffffffffffffffff\n      and\n        /* \"contracts/NFTContract3/Roleable.sol\":249:259  msg.sender */\n      caller\n        /* \"contracts/NFTContract3/Roleable.sol\":249:275  msg.sender == _minteradmin */\n      0xffffffffffffffffffffffffffffffffffffffff\n      and\n      eq\n        /* \"contracts/NFTContract3/Roleable.sol\":240:305  require (msg.sender == _minteradmin, \"caller not a minter admin\") */\n      tag_98\n      jumpi\n      mload(0x40)\n      0x08c379a000000000000000000000000000000000000000000000000000000000\n      dup2\n      mstore\n      0x04\n      add\n      tag_99\n      swap1\n      tag_100\n      jump\t// in\n    tag_99:\n      mload(0x40)\n      dup1\n      swap2\n      sub\n      swap1\n      revert\n    tag_98:\n        /* \"contracts/NFTContract3/Roleable.sol\":1201:1210  newMelter */\n      dup1\n        /* \"contracts/NFTContract3/Roleable.sol\":1180:1198  pendingMinterAdmin */\n      0x07\n      0x00\n        /* \"contracts/NFTContract3/Roleable.sol\":1180:1210  pendingMinterAdmin = newMelter */\n      0x0100\n      exp\n      dup2\n      sload\n      dup2\n      0xffffffffffffffffffffffffffffffffffffffff\n      mul\n      not\n      and\n      swap1\n      dup4\n      0xffffffffffffffffffffffffffffffffffffffff\n      and\n      mul\n      or\n      swap1\n      sstore\n      pop\n        /* \"contracts/NFTContract3/Roleable.sol\":1098:1217  function transferMinterAddmin(address newMelter) public onlyMinterAdmin {... */\n      pop\n      jump\t// out\n        /* \"contracts/NFTContract3/Roleable.sol\":983:1092  function removeFromMinters(address account) public onlyMinterAdmin {... */\n    tag_51:\n        /* \"contracts/NFTContract3/Roleable.sol\":263:275  _minteradmin */\n      0x06\n      0x00\n      swap1\n      sload\n      swap1\n      0x0100\n      exp\n      swap1\n      div\n      0xffffffffffffffffffffffffffffffffffffffff\n      and\n        /* \"contracts/NFTContract3/Roleable.sol\":249:275  msg.sender == _minteradmin */\n      0xffffffffffffffffffffffffffffffffffffffff\n      and\n        /* \"contracts/NFTContract3/Roleable.sol\":249:259  msg.sender */\n      caller\n        /* \"contracts/NFTContract3/Roleable.sol\":249:275  msg.sender == _minteradmin */\n      0xffffffffffffffffffffffffffffffffffffffff\n      and\n      eq\n        /* \"contracts/NFTContract3/Roleable.sol\":240:305  require (msg.sender == _minteradmin, \"caller not a minter admin\") */\n      tag_103\n      jumpi\n      mload(0x40)\n      0x08c379a000000000000000000000000000000000000000000000000000000000\n      dup2\n      mstore\n      0x04\n      add\n      tag_104\n      swap1\n      tag_100\n      jump\t// in\n    tag_104:\n      mload(0x40)\n      dup1\n      swap2\n      sub\n      swap1\n      revert\n    tag_103:\n        /* \"contracts/NFTContract3/Roleable.sol\":1080:1085  false */\n      0x00\n        /* \"contracts/NFTContract3/Roleable.sol\":1060:1068  _minters */\n      0x05\n        /* \"contracts/NFTContract3/Roleable.sol\":1060:1077  _minters[account] */\n      0x00\n        /* \"contracts/NFTContract3/Roleable.sol\":1069:1076  account */\n      dup4\n        /* \"contracts/NFTContract3/Roleable.sol\":1060:1077  _minters[account] */\n      0xffffffffffffffffffffffffffffffffffffffff\n      and\n      0xffffffffffffffffffffffffffffffffffffffff\n      and\n      dup2\n      mstore\n      0x20\n      add\n      swap1\n      dup2\n      mstore\n      0x20\n      add\n      0x00\n      keccak256\n      0x00\n        /* \"contracts/NFTContract3/Roleable.sol\":1060:1085  _minters[account] = false */\n      0x0100\n      exp\n      dup2\n      sload\n      dup2\n      0xff\n      mul\n      not\n      and\n      swap1\n      dup4\n      iszero\n      iszero\n      mul\n      or\n      swap1\n      sstore\n      pop\n        /* \"contracts/NFTContract3/Roleable.sol\":983:1092  function removeFromMinters(address account) public onlyMinterAdmin {... */\n      pop\n      jump\t// out\n        /* \"contracts/NFTContract3/Ownable.sol\":1661:1762  function renounceOwnership() public virtual onlyOwner {... */\n    tag_53:\n        /* \"contracts/NFTContract3/Ownable.sol\":1252:1264  _msgSender() */\n      tag_107\n        /* \"contracts/NFTContract3/Ownable.sol\":1252:1262  _msgSender */\n      tag_108\n        /* \"contracts/NFTContract3/Ownable.sol\":1252:1264  _msgSender() */\n      jump\t// in\n    tag_107:\n        /* \"contracts/NFTContract3/Ownable.sol\":1241:1264  owner() == _msgSender() */\n      0xffffffffffffffffffffffffffffffffffffffff\n      and\n        /* \"contracts/NFTContract3/Ownable.sol\":1241:1248  owner() */\n      tag_109\n        /* \"contracts/NFTContract3/Ownable.sol\":1241:1246  owner */\n      tag_55\n        /* \"contracts/NFTContract3/Ownable.sol\":1241:1248  owner() */\n      jump\t// in\n    tag_109:\n        /* \"contracts/NFTContract3/Ownable.sol\":1241:1264  owner() == _msgSender() */\n      0xffffffffffffffffffffffffffffffffffffffff\n      and\n      eq\n        /* \"contracts/NFTContract3/Ownable.sol\":1233:1301  require(owner() == _msgSender(), \"Ownable: caller is not the owner\") */\n      tag_110\n      jumpi\n      mload(0x40)\n      0x08c379a000000000000000000000000000000000000000000000000000000000\n      dup2\n      mstore\n      0x04\n      add\n      tag_111\n      swap1\n      tag_112\n      jump\t// in\n    tag_111:\n      mload(0x40)\n      dup1\n      swap2\n      sub\n      swap1\n      revert\n    tag_110:\n        /* \"contracts/NFTContract3/Ownable.sol\":1725:1755  _transferOwnership(address(0)) */\n      tag_114\n        /* \"contracts/NFTContract3/Ownable.sol\":1752:1753  0 */\n      0x00\n        /* \"contracts/NFTContract3/Ownable.sol\":1725:1743  _transferOwnership */\n      tag_115\n        /* \"contracts/NFTContract3/Ownable.sol\":1725:1755  _transferOwnership(address(0)) */\n      jump\t// in\n    tag_114:\n        /* \"contracts/NFTContract3/Ownable.sol\":1661:1762  function renounceOwnership() public virtual onlyOwner {... */\n      jump\t// out\n        /* \"contracts/NFTContract3/Ownable.sol\":1029:1114  function owner() public view virtual returns (address) {... */\n    tag_55:\n        /* \"contracts/NFTContract3/Ownable.sol\":1075:1082  address */\n      0x00\n        /* \"contracts/NFTContract3/Ownable.sol\":1101:1107  _owner */\n      0x04\n      0x00\n      swap1\n      sload\n      swap1\n      0x0100\n      exp\n      swap1\n      div\n      0xffffffffffffffffffffffffffffffffffffffff\n      and\n        /* \"contracts/NFTContract3/Ownable.sol\":1094:1107  return _owner */\n      swap1\n      pop\n        /* \"contracts/NFTContract3/Ownable.sol\":1029:1114  function owner() public view virtual returns (address) {... */\n      swap1\n      jump\t// out\n        /* \"contracts/NFTContract3/SQFIFactory.sol\":2668:2770  function setSQFToken(address _address) external onlyOwner {... */\n    tag_60:\n        /* \"contracts/NFTContract3/Ownable.sol\":1252:1264  _msgSender() */\n      tag_118\n        /* \"contracts/NFTContract3/Ownable.sol\":1252:1262  _msgSender */\n      tag_108\n        /* \"contracts/NFTContract3/Ownable.sol\":1252:1264  _msgSender() */\n      jump\t// in\n    tag_118:\n        /* \"contracts/NFTContract3/Ownable.sol\":1241:1264  owner() == _msgSender() */\n      0xffffffffffffffffffffffffffffffffffffffff\n      and\n        /* \"contracts/NFTContract3/Ownable.sol\":1241:1248  owner() */\n      tag_119\n        /* \"contracts/NFTContract3/Ownable.sol\":1241:1246  owner */\n      tag_55\n        /* \"contracts/NFTContract3/Ownable.sol\":1241:1248  owner() */\n      jump\t// in\n    tag_119:\n        /* \"contracts/NFTContract3/Ownable.sol\":1241:1264  owner() == _msgSender() */\n      0xffffffffffffffffffffffffffffffffffffffff\n      and\n      eq\n        /* \"contracts/NFTContract3/Ownable.sol\":1233:1301  require(owner() == _msgSender(), \"Ownable: caller is not the owner\") */\n      tag_120\n      jumpi\n      mload(0x40)\n      0x08c379a000000000000000000000000000000000000000000000000000000000\n      dup2\n      mstore\n      0x04\n      add\n      tag_121\n      swap1\n      tag_112\n      jump\t// in\n    tag_121:\n      mload(0x40)\n      dup1\n      swap2\n      sub\n      swap1\n      revert\n    tag_120:\n        /* \"contracts/NFTContract3/SQFIFactory.sol\":2754:2762  _address */\n      dup1\n        /* \"contracts/NFTContract3/SQFIFactory.sol\":2736:2744  sqfToken */\n      0x00\n      dup1\n        /* \"contracts/NFTContract3/SQFIFactory.sol\":2736:2763  sqfToken = IERC20(_address) */\n      0x0100\n      exp\n      dup2\n      sload\n      dup2\n      0xffffffffffffffffffffffffffffffffffffffff\n      mul\n      not\n      and\n      swap1\n      dup4\n      0xffffffffffffffffffffffffffffffffffffffff\n      and\n      mul\n      or\n      swap1\n      sstore\n      pop\n        /* \"contracts/NFTContract3/SQFIFactory.sol\":2668:2770  function setSQFToken(address _address) external onlyOwner {... */\n      pop\n      jump\t// out\n        /* \"contracts/NFTContract3/Roleable.sol\":874:977  function addToMinters(address account) public onlyMinterAdmin {... */\n    tag_63:\n        /* \"contracts/NFTContract3/Roleable.sol\":263:275  _minteradmin */\n      0x06\n      0x00\n      swap1\n      sload\n      swap1\n      0x0100\n      exp\n      swap1\n      div\n      0xffffffffffffffffffffffffffffffffffffffff\n      and\n        /* \"contracts/NFTContract3/Roleable.sol\":249:275  msg.sender == _minteradmin */\n      0xffffffffffffffffffffffffffffffffffffffff\n      and\n        /* \"contracts/NFTContract3/Roleable.sol\":249:259  msg.sender */\n      caller\n        /* \"contracts/NFTContract3/Roleable.sol\":249:275  msg.sender == _minteradmin */\n      0xffffffffffffffffffffffffffffffffffffffff\n      and\n      eq\n        /* \"contracts/NFTContract3/Roleable.sol\":240:305  require (msg.sender == _minteradmin, \"caller not a minter admin\") */\n      tag_124\n      jumpi\n      mload(0x40)\n      0x08c379a000000000000000000000000000000000000000000000000000000000\n      dup2\n      mstore\n      0x04\n      add\n      tag_125\n      swap1\n      tag_100\n      jump\t// in\n    tag_125:\n      mload(0x40)\n      dup1\n      swap2\n      sub\n      swap1\n      revert\n    tag_124:\n        /* \"contracts/NFTContract3/Roleable.sol\":966:970  true */\n      0x01\n        /* \"contracts/NFTContract3/Roleable.sol\":946:954  _minters */\n      0x05\n        /* \"contracts/NFTContract3/Roleable.sol\":946:963  _minters[account] */\n      0x00\n        /* \"contracts/NFTContract3/Roleable.sol\":955:962  account */\n      dup4\n        /* \"contracts/NFTContract3/Roleable.sol\":946:963  _minters[account] */\n      0xffffffffffffffffffffffffffffffffffffffff\n      and\n      0xffffffffffffffffffffffffffffffffffffffff\n      and\n      dup2\n      mstore\n      0x20\n      add\n      swap1\n      dup2\n      mstore\n      0x20\n      add\n      0x00\n      keccak256\n      0x00\n        /* \"contracts/NFTContract3/Roleable.sol\":946:970  _minters[account] = true */\n      0x0100\n      exp\n      dup2\n      sload\n      dup2\n      0xff\n      mul\n      not\n      and\n      swap1\n      dup4\n      iszero\n      iszero\n      mul\n      or\n      swap1\n      sstore\n      pop\n        /* \"contracts/NFTContract3/Roleable.sol\":874:977  function addToMinters(address account) public onlyMinterAdmin {... */\n      pop\n      jump\t// out\n        /* \"contracts/NFTContract3/SQFIFactory.sol\":2063:2093  uint256 public goldActivePrice */\n    tag_65:\n      sload(0x0b)\n      dup2\n      jump\t// out\n        /* \"contracts/NFTContract3/SQFIFactory.sol\":1987:2019  uint256 public bronzeActivePrice */\n    tag_69:\n      sload(0x09)\n      dup2\n      jump\t// out\n        /* \"contracts/NFTContract3/Roleable.sol\":1223:1439  function claimMinterAddmin() public onlyPendingMinterAdmin {... */\n    tag_72:\n        /* \"contracts/NFTContract3/Roleable.sol\":509:527  pendingMinterAdmin */\n      0x07\n      0x00\n      swap1\n      sload\n      swap1\n      0x0100\n      exp\n      swap1\n      div\n      0xffffffffffffffffffffffffffffffffffffffff\n      and\n        /* \"contracts/NFTContract3/Roleable.sol\":495:527  msg.sender == pendingMinterAdmin */\n      0xffffffffffffffffffffffffffffffffffffffff\n      and\n        /* \"contracts/NFTContract3/Roleable.sol\":495:505  msg.sender */\n      caller\n        /* \"contracts/NFTContract3/Roleable.sol\":495:527  msg.sender == pendingMinterAdmin */\n      0xffffffffffffffffffffffffffffffffffffffff\n      and\n      eq\n        /* \"contracts/NFTContract3/Roleable.sol\":487:565  require(msg.sender == pendingMinterAdmin, \"caller not a pending minter admin\") */\n      tag_128\n      jumpi\n      mload(0x40)\n      0x08c379a000000000000000000000000000000000000000000000000000000000\n      dup2\n      mstore\n      0x04\n      add\n      tag_129\n      swap1\n      tag_130\n      jump\t// in\n    tag_129:\n      mload(0x40)\n      dup1\n      swap2\n      sub\n      swap1\n      revert\n    tag_128:\n        /* \"contracts/NFTContract3/Roleable.sol\":1329:1347  pendingMinterAdmin */\n      0x07\n      0x00\n      swap1\n      sload\n      swap1\n      0x0100\n      exp\n      swap1\n      div\n      0xffffffffffffffffffffffffffffffffffffffff\n      and\n        /* \"contracts/NFTContract3/Roleable.sol\":1297:1348  MinterTransferred(_minteradmin, pendingMinterAdmin) */\n      0xffffffffffffffffffffffffffffffffffffffff\n      and\n        /* \"contracts/NFTContract3/Roleable.sol\":1315:1327  _minteradmin */\n      0x06\n      0x00\n      swap1\n      sload\n      swap1\n      0x0100\n      exp\n      swap1\n      div\n      0xffffffffffffffffffffffffffffffffffffffff\n      and\n        /* \"contracts/NFTContract3/Roleable.sol\":1297:1348  MinterTransferred(_minteradmin, pendingMinterAdmin) */\n      0xffffffffffffffffffffffffffffffffffffffff\n      and\n      0x02ad39e5173f89bdd5497202bd74024b5da045106c3163ddb078d2e89ff6d6de\n      mload(0x40)\n      mload(0x40)\n      dup1\n      swap2\n      sub\n      swap1\n      log3\n        /* \"contracts/NFTContract3/Roleable.sol\":1373:1391  pendingMinterAdmin */\n      0x07\n      0x00\n      swap1\n      sload\n      swap1\n      0x0100\n      exp\n      swap1\n      div\n      0xffffffffffffffffffffffffffffffffffffffff\n      and\n        /* \"contracts/NFTContract3/Roleable.sol\":1358:1370  _minteradmin */\n      0x06\n      0x00\n        /* \"contracts/NFTContract3/Roleable.sol\":1358:1391  _minteradmin = pendingMinterAdmin */\n      0x0100\n      exp\n      dup2\n      sload\n      dup2\n      0xffffffffffffffffffffffffffffffffffffffff\n      mul\n      not\n      and\n      swap1\n      dup4\n      0xffffffffffffffffffffffffffffffffffffffff\n      and\n      mul\n      or\n      swap1\n      sstore\n      pop\n        /* \"contracts/NFTContract3/Roleable.sol\":1430:1431  0 */\n      0x00\n        /* \"contracts/NFTContract3/Roleable.sol\":1401:1419  pendingMinterAdmin */\n      0x07\n      0x00\n        /* \"contracts/NFTContract3/Roleable.sol\":1401:1432  pendingMinterAdmin = address(0) */\n      0x0100\n      exp\n      dup2\n      sload\n      dup2\n      0xffffffffffffffffffffffffffffffffffffffff\n      mul\n      not\n      and\n      swap1\n      dup4\n      0xffffffffffffffffffffffffffffffffffffffff\n      and\n      mul\n      or\n      swap1\n      sstore\n      pop\n        /* \"contracts/NFTContract3/Roleable.sol\":1223:1439  function claimMinterAddmin() public onlyPendingMinterAdmin {... */\n      jump\t// out\n        /* \"contracts/NFTContract3/SQFIFactory.sol\":2025:2057  uint256 public silverActivePrice */\n    tag_74:\n      sload(0x0a)\n      dup2\n      jump\t// out\n        /* \"contracts/NFTContract3/SQFIFactory.sol\":2776:4377  function mintActiveItem(string memory typeItem) public onlyMinter  { ... */\n    tag_79:\n        /* \"contracts/NFTContract3/Roleable.sol\":393:397  true */\n      0x01\n        /* \"contracts/NFTContract3/Roleable.sol\":369:397  _minters[msg.sender] == true */\n      iszero\n      iszero\n        /* \"contracts/NFTContract3/Roleable.sol\":369:377  _minters */\n      0x05\n        /* \"contracts/NFTContract3/Roleable.sol\":369:389  _minters[msg.sender] */\n      0x00\n        /* \"contracts/NFTContract3/Roleable.sol\":378:388  msg.sender */\n      caller\n        /* \"contracts/NFTContract3/Roleable.sol\":369:389  _minters[msg.sender] */\n      0xffffffffffffffffffffffffffffffffffffffff\n      and\n      0xffffffffffffffffffffffffffffffffffffffff\n      and\n      dup2\n      mstore\n      0x20\n      add\n      swap1\n      dup2\n      mstore\n      0x20\n      add\n      0x00\n      keccak256\n      0x00\n      swap1\n      sload\n      swap1\n      0x0100\n      exp\n      swap1\n      div\n      0xff\n      and\n        /* \"contracts/NFTContract3/Roleable.sol\":369:397  _minters[msg.sender] == true */\n      iszero\n      iszero\n      eq\n        /* \"contracts/NFTContract3/Roleable.sol\":360:420  require (_minters[msg.sender] == true, \"can't perform melt\") */\n      tag_133\n      jumpi\n      mload(0x40)\n      0x08c379a000000000000000000000000000000000000000000000000000000000\n      dup2\n      mstore\n      0x04\n      add\n      tag_134\n      swap1\n      tag_135\n      jump\t// in\n    tag_134:\n      mload(0x40)\n      dup1\n      swap2\n      sub\n      swap1\n      revert\n    tag_133:\n        /* \"contracts/NFTContract3/SQFIFactory.sol\":2854:2868  uint256 itemId */\n      0x00\n        /* \"contracts/NFTContract3/SQFIFactory.sol\":2946:2972  abi.encodePacked(\"BRONZE\") */\n      add(0x20, mload(0x40))\n      tag_137\n      swap1\n      tag_138\n      jump\t// in\n    tag_137:\n      mload(0x40)\n      0x20\n      dup2\n      dup4\n      sub\n      sub\n      dup2\n      mstore\n      swap1\n      0x40\n      mstore\n        /* \"contracts/NFTContract3/SQFIFactory.sol\":2936:2973  keccak256(abi.encodePacked(\"BRONZE\")) */\n      dup1\n      mload\n      swap1\n      0x20\n      add\n      keccak256\n        /* \"contracts/NFTContract3/SQFIFactory.sol\":2922:2930  typeItem */\n      dup3\n        /* \"contracts/NFTContract3/SQFIFactory.sol\":2905:2931  abi.encodePacked(typeItem) */\n      add(0x20, mload(0x40))\n      tag_139\n      swap2\n      swap1\n      tag_140\n      jump\t// in\n    tag_139:\n      mload(0x40)\n      0x20\n      dup2\n      dup4\n      sub\n      sub\n      dup2\n      mstore\n      swap1\n      0x40\n      mstore\n        /* \"contracts/NFTContract3/SQFIFactory.sol\":2895:2932  keccak256(abi.encodePacked(typeItem)) */\n      dup1\n      mload\n      swap1\n      0x20\n      add\n      keccak256\n        /* \"contracts/NFTContract3/SQFIFactory.sol\":2895:2973  keccak256(abi.encodePacked(typeItem)) == keccak256(abi.encodePacked(\"BRONZE\")) */\n      eq\n        /* \"contracts/NFTContract3/SQFIFactory.sol\":2895:3063  keccak256(abi.encodePacked(typeItem)) == keccak256(abi.encodePacked(\"BRONZE\"))... */\n      dup1\n      tag_141\n      jumpi\n      pop\n        /* \"contracts/NFTContract3/SQFIFactory.sol\":3036:3062  abi.encodePacked(\"SILVER\") */\n      add(0x20, mload(0x40))\n      tag_142\n      swap1\n      tag_143\n      jump\t// in\n    tag_142:\n      mload(0x40)\n      0x20\n      dup2\n      dup4\n      sub\n      sub\n      dup2\n      mstore\n      swap1\n      0x40\n      mstore\n        /* \"contracts/NFTContract3/SQFIFactory.sol\":3026:3063  keccak256(abi.encodePacked(\"SILVER\")) */\n      dup1\n      mload\n      swap1\n      0x20\n      add\n      keccak256\n        /* \"contracts/NFTContract3/SQFIFactory.sol\":3012:3020  typeItem */\n      dup3\n        /* \"contracts/NFTContract3/SQFIFactory.sol\":2995:3021  abi.encodePacked(typeItem) */\n      add(0x20, mload(0x40))\n      tag_144\n      swap2\n      swap1\n      tag_140\n      jump\t// in\n    tag_144:\n      mload(0x40)\n      0x20\n      dup2\n      dup4\n      sub\n      sub\n      dup2\n      mstore\n      swap1\n      0x40\n      mstore\n        /* \"contracts/NFTContract3/SQFIFactory.sol\":2985:3022  keccak256(abi.encodePacked(typeItem)) */\n      dup1\n      mload\n      swap1\n      0x20\n      add\n      keccak256\n        /* \"contracts/NFTContract3/SQFIFactory.sol\":2985:3063  keccak256(abi.encodePacked(typeItem)) == keccak256(abi.encodePacked(\"SILVER\")) */\n      eq\n        /* \"contracts/NFTContract3/SQFIFactory.sol\":2895:3063  keccak256(abi.encodePacked(typeItem)) == keccak256(abi.encodePacked(\"BRONZE\"))... */\n    tag_141:\n        /* \"contracts/NFTContract3/SQFIFactory.sol\":2895:3151  keccak256(abi.encodePacked(typeItem)) == keccak256(abi.encodePacked(\"BRONZE\"))... */\n      dup1\n      tag_145\n      jumpi\n      pop\n        /* \"contracts/NFTContract3/SQFIFactory.sol\":3126:3150  abi.encodePacked(\"GOLD\") */\n      add(0x20, mload(0x40))\n      tag_146\n      swap1\n      tag_147\n      jump\t// in\n    tag_146:\n      mload(0x40)\n      0x20\n      dup2\n      dup4\n      sub\n      sub\n      dup2\n      mstore\n      swap1\n      0x40\n      mstore\n        /* \"contracts/NFTContract3/SQFIFactory.sol\":3116:3151  keccak256(abi.encodePacked(\"GOLD\")) */\n      dup1\n      mload\n      swap1\n      0x20\n      add\n      keccak256\n        /* \"contracts/NFTContract3/SQFIFactory.sol\":3102:3110  typeItem */\n      dup3\n        /* \"contracts/NFTContract3/SQFIFactory.sol\":3085:3111  abi.encodePacked(typeItem) */\n      add(0x20, mload(0x40))\n      tag_148\n      swap2\n      swap1\n      tag_140\n      jump\t// in\n    tag_148:\n      mload(0x40)\n      0x20\n      dup2\n      dup4\n      sub\n      sub\n      dup2\n      mstore\n      swap1\n      0x40\n      mstore\n        /* \"contracts/NFTContract3/SQFIFactory.sol\":3075:3112  keccak256(abi.encodePacked(typeItem)) */\n      dup1\n      mload\n      swap1\n      0x20\n      add\n      keccak256\n        /* \"contracts/NFTContract3/SQFIFactory.sol\":3075:3151  keccak256(abi.encodePacked(typeItem)) == keccak256(abi.encodePacked(\"GOLD\")) */\n      eq\n        /* \"contracts/NFTContract3/SQFIFactory.sol\":2895:3151  keccak256(abi.encodePacked(typeItem)) == keccak256(abi.encodePacked(\"BRONZE\"))... */\n    tag_145:\n        /* \"contracts/NFTContract3/SQFIFactory.sol\":2878:3197  require(... */\n      tag_149\n      jumpi\n      mload(0x40)\n      0x08c379a000000000000000000000000000000000000000000000000000000000\n      dup2\n      mstore\n      0x04\n      add\n      tag_150\n      swap1\n      tag_151\n      jump\t// in\n    tag_150:\n      mload(0x40)\n      dup1\n      swap2\n      sub\n      swap1\n      revert\n    tag_149:\n        /* \"contracts/NFTContract3/SQFIFactory.sol\":3262:3288  abi.encodePacked(\"BRONZE\") */\n      add(0x20, mload(0x40))\n      tag_152\n      swap1\n      tag_138\n      jump\t// in\n    tag_152:\n      mload(0x40)\n      0x20\n      dup2\n      dup4\n      sub\n      sub\n      dup2\n      mstore\n      swap1\n      0x40\n      mstore\n        /* \"contracts/NFTContract3/SQFIFactory.sol\":3252:3289  keccak256(abi.encodePacked(\"BRONZE\")) */\n      dup1\n      mload\n      swap1\n      0x20\n      add\n      keccak256\n        /* \"contracts/NFTContract3/SQFIFactory.sol\":3238:3246  typeItem */\n      dup3\n        /* \"contracts/NFTContract3/SQFIFactory.sol\":3221:3247  abi.encodePacked(typeItem) */\n      add(0x20, mload(0x40))\n      tag_153\n      swap2\n      swap1\n      tag_140\n      jump\t// in\n    tag_153:\n      mload(0x40)\n      0x20\n      dup2\n      dup4\n      sub\n      sub\n      dup2\n      mstore\n      swap1\n      0x40\n      mstore\n        /* \"contracts/NFTContract3/SQFIFactory.sol\":3211:3248  keccak256(abi.encodePacked(typeItem)) */\n      dup1\n      mload\n      swap1\n      0x20\n      add\n      keccak256\n        /* \"contracts/NFTContract3/SQFIFactory.sol\":3211:3289  keccak256(abi.encodePacked(typeItem)) == keccak256(abi.encodePacked(\"BRONZE\")) */\n      sub\n        /* \"contracts/NFTContract3/SQFIFactory.sol\":3207:4319  if (keccak256(abi.encodePacked(typeItem)) == keccak256(abi.encodePacked(\"BRONZE\"))) {... */\n      tag_154\n      jumpi\n        /* \"contracts/NFTContract3/SQFIFactory.sol\":3305:3313  sqfToken */\n      0x00\n      dup1\n      sload\n      swap1\n      0x0100\n      exp\n      swap1\n      div\n      0xffffffffffffffffffffffffffffffffffffffff\n      and\n        /* \"contracts/NFTContract3/SQFIFactory.sol\":3305:3326  sqfToken.transferFrom */\n      0xffffffffffffffffffffffffffffffffffffffff\n      and\n      0x23b872dd\n        /* \"contracts/NFTContract3/SQFIFactory.sol\":3327:3337  msg.sender */\n      caller\n        /* \"contracts/NFTContract3/SQFIFactory.sol\":3347:3354  owner() */\n      tag_155\n        /* \"contracts/NFTContract3/SQFIFactory.sol\":3347:3352  owner */\n      tag_55\n        /* \"contracts/NFTContract3/SQFIFactory.sol\":3347:3354  owner() */\n      jump\t// in\n    tag_155:\n        /* \"contracts/NFTContract3/SQFIFactory.sol\":3356:3373  bronzeActivePrice */\n      sload(0x09)\n        /* \"contracts/NFTContract3/SQFIFactory.sol\":3305:3374  sqfToken.transferFrom(msg.sender, address(owner()),bronzeActivePrice) */\n      mload(0x40)\n      dup5\n      0xffffffff\n      and\n      0xe0\n      shl\n      dup2\n      mstore\n      0x04\n      add\n      tag_156\n      swap4\n      swap3\n      swap2\n      swap1\n      tag_157\n      jump\t// in\n    tag_156:\n      0x20\n      mload(0x40)\n      dup1\n      dup4\n      sub\n      dup2\n      0x00\n      dup8\n      gas\n      call\n      iszero\n      dup1\n      iszero\n      tag_159\n      jumpi\n      returndatasize\n      0x00\n      dup1\n      returndatacopy\n      revert(0x00, returndatasize)\n    tag_159:\n      pop\n      pop\n      pop\n      pop\n      mload(0x40)\n      returndatasize\n      not(0x1f)\n      0x1f\n      dup3\n      add\n      and\n      dup3\n      add\n      dup1\n      0x40\n      mstore\n      pop\n      dup2\n      add\n      swap1\n      tag_160\n      swap2\n      swap1\n      tag_161\n      jump\t// in\n    tag_160:\n      pop\n        /* \"contracts/NFTContract3/SQFIFactory.sol\":3397:3401  SQFI */\n      0x0c\n      0x00\n      swap1\n      sload\n      swap1\n      0x0100\n      exp\n      swap1\n      div\n      0xffffffffffffffffffffffffffffffffffffffff\n      and\n        /* \"contracts/NFTContract3/SQFIFactory.sol\":3397:3415  SQFI.safeBuyActive */\n      0xffffffffffffffffffffffffffffffffffffffff\n      and\n      0x1f29e9fc\n        /* \"contracts/NFTContract3/SQFIFactory.sol\":3416:3424  typeItem */\n      dup4\n        /* \"contracts/NFTContract3/SQFIFactory.sol\":3397:3425  SQFI.safeBuyActive(typeItem) */\n      mload(0x40)\n      dup3\n      0xffffffff\n      and\n      0xe0\n      shl\n      dup2\n      mstore\n      0x04\n      add\n      tag_162\n      swap2\n      swap1\n      tag_163\n      jump\t// in\n    tag_162:\n      0x20\n      mload(0x40)\n      dup1\n      dup4\n      sub\n      dup2\n      0x00\n      dup8\n      gas\n      call\n      iszero\n      dup1\n      iszero\n      tag_165\n      jumpi\n      returndatasize\n      0x00\n      dup1\n      returndatacopy\n      revert(0x00, returndatasize)\n    tag_165:\n      pop\n      pop\n      pop\n      pop\n      mload(0x40)\n      returndatasize\n      not(0x1f)\n      0x1f\n      dup3\n      add\n      and\n      dup3\n      add\n      dup1\n      0x40\n      mstore\n      pop\n      dup2\n      add\n      swap1\n      tag_166\n      swap2\n      swap1\n      tag_167\n      jump\t// in\n    tag_166:\n        /* \"contracts/NFTContract3/SQFIFactory.sol\":3388:3425  itemId = SQFI.safeBuyActive(typeItem) */\n      swap1\n      pop\n        /* \"contracts/NFTContract3/SQFIFactory.sol\":3460:3562  activeItems(... */\n      mload(0x40)\n      dup1\n      0x60\n      add\n      0x40\n      mstore\n      dup1\n        /* \"contracts/NFTContract3/SQFIFactory.sol\":3485:3491  itemId */\n      dup3\n        /* \"contracts/NFTContract3/SQFIFactory.sol\":3460:3562  activeItems(... */\n      dup2\n      mstore\n      0x20\n      add\n        /* \"contracts/NFTContract3/SQFIFactory.sol\":3505:3515  msg.sender */\n      caller\n        /* \"contracts/NFTContract3/SQFIFactory.sol\":3460:3562  activeItems(... */\n      0xffffffffffffffffffffffffffffffffffffffff\n      and\n      dup2\n      mstore\n      0x20\n      add\n        /* \"contracts/NFTContract3/SQFIFactory.sol\":3529:3548  activeStatus.BRONZE */\n      0x01\n        /* \"contracts/NFTContract3/SQFIFactory.sol\":3460:3562  activeItems(... */\n      0x03\n      dup2\n      gt\n      iszero\n      tag_168\n      jumpi\n      tag_169\n      tag_170\n      jump\t// in\n    tag_169:\n    tag_168:\n      dup2\n      mstore\n      pop\n        /* \"contracts/NFTContract3/SQFIFactory.sol\":3439:3449  activeItem */\n      0x01\n        /* \"contracts/NFTContract3/SQFIFactory.sol\":3439:3457  activeItem[itemId] */\n      0x00\n        /* \"contracts/NFTContract3/SQFIFactory.sol\":3450:3456  itemId */\n      dup4\n        /* \"contracts/NFTContract3/SQFIFactory.sol\":3439:3457  activeItem[itemId] */\n      dup2\n      mstore\n      0x20\n      add\n      swap1\n      dup2\n      mstore\n      0x20\n      add\n      0x00\n      keccak256\n        /* \"contracts/NFTContract3/SQFIFactory.sol\":3439:3562  activeItem[itemId] = activeItems(... */\n      0x00\n      dup3\n      add\n      mload\n      dup2\n      0x00\n      add\n      sstore\n      0x20\n      dup3\n      add\n      mload\n      dup2\n      0x01\n      add\n      exp(0x0100, 0x00)\n      dup2\n      sload\n      dup2\n      0xffffffffffffffffffffffffffffffffffffffff\n      mul\n      not\n      and\n      swap1\n      dup4\n      0xffffffffffffffffffffffffffffffffffffffff\n      and\n      mul\n      or\n      swap1\n      sstore\n      pop\n      0x40\n      dup3\n      add\n      mload\n      dup2\n      0x01\n      add\n      exp(0x0100, 0x14)\n      dup2\n      sload\n      dup2\n      0xff\n      mul\n      not\n      and\n      swap1\n      dup4\n      0x03\n      dup2\n      gt\n      iszero\n      tag_171\n      jumpi\n      tag_172\n      tag_170\n      jump\t// in\n    tag_172:\n    tag_171:\n      mul\n      or\n      swap1\n      sstore\n      pop\n      swap1\n      pop\n      pop\n        /* \"contracts/NFTContract3/SQFIFactory.sol\":3207:4319  if (keccak256(abi.encodePacked(typeItem)) == keccak256(abi.encodePacked(\"BRONZE\"))) {... */\n      jump(tag_173)\n    tag_154:\n        /* \"contracts/NFTContract3/SQFIFactory.sol\":3641:3667  abi.encodePacked(\"SILVER\") */\n      add(0x20, mload(0x40))\n      tag_174\n      swap1\n      tag_143\n      jump\t// in\n    tag_174:\n      mload(0x40)\n      0x20\n      dup2\n      dup4\n      sub\n      sub\n      dup2\n      mstore\n      swap1\n      0x40\n      mstore\n        /* \"contracts/NFTContract3/SQFIFactory.sol\":3631:3668  keccak256(abi.encodePacked(\"SILVER\")) */\n      dup1\n      mload\n      swap1\n      0x20\n      add\n      keccak256\n        /* \"contracts/NFTContract3/SQFIFactory.sol\":3617:3625  typeItem */\n      dup3\n        /* \"contracts/NFTContract3/SQFIFactory.sol\":3600:3626  abi.encodePacked(typeItem) */\n      add(0x20, mload(0x40))\n      tag_175\n      swap2\n      swap1\n      tag_140\n      jump\t// in\n    tag_175:\n      mload(0x40)\n      0x20\n      dup2\n      dup4\n      sub\n      sub\n      dup2\n      mstore\n      swap1\n      0x40\n      mstore\n        /* \"contracts/NFTContract3/SQFIFactory.sol\":3590:3627  keccak256(abi.encodePacked(typeItem)) */\n      dup1\n      mload\n      swap1\n      0x20\n      add\n      keccak256\n        /* \"contracts/NFTContract3/SQFIFactory.sol\":3590:3668  keccak256(abi.encodePacked(typeItem)) == keccak256(abi.encodePacked(\"SILVER\")) */\n      sub\n        /* \"contracts/NFTContract3/SQFIFactory.sol\":3587:4319  if(keccak256(abi.encodePacked(typeItem)) == keccak256(abi.encodePacked(\"SILVER\"))) { ... */\n      tag_176\n      jumpi\n        /* \"contracts/NFTContract3/SQFIFactory.sol\":3685:3693  sqfToken */\n      0x00\n      dup1\n      sload\n      swap1\n      0x0100\n      exp\n      swap1\n      div\n      0xffffffffffffffffffffffffffffffffffffffff\n      and\n        /* \"contracts/NFTContract3/SQFIFactory.sol\":3685:3706  sqfToken.transferFrom */\n      0xffffffffffffffffffffffffffffffffffffffff\n      and\n      0x23b872dd\n        /* \"contracts/NFTContract3/SQFIFactory.sol\":3707:3717  msg.sender */\n      caller\n        /* \"contracts/NFTContract3/SQFIFactory.sol\":3727:3734  owner() */\n      tag_177\n        /* \"contracts/NFTContract3/SQFIFactory.sol\":3727:3732  owner */\n      tag_55\n        /* \"contracts/NFTContract3/SQFIFactory.sol\":3727:3734  owner() */\n      jump\t// in\n    tag_177:\n        /* \"contracts/NFTContract3/SQFIFactory.sol\":3736:3753  silverActivePrice */\n      sload(0x0a)\n        /* \"contracts/NFTContract3/SQFIFactory.sol\":3685:3754  sqfToken.transferFrom(msg.sender, address(owner()),silverActivePrice) */\n      mload(0x40)\n      dup5\n      0xffffffff\n      and\n      0xe0\n      shl\n      dup2\n      mstore\n      0x04\n      add\n      tag_178\n      swap4\n      swap3\n      swap2\n      swap1\n      tag_157\n      jump\t// in\n    tag_178:\n      0x20\n      mload(0x40)\n      dup1\n      dup4\n      sub\n      dup2\n      0x00\n      dup8\n      gas\n      call\n      iszero\n      dup1\n      iszero\n      tag_180\n      jumpi\n      returndatasize\n      0x00\n      dup1\n      returndatacopy\n      revert(0x00, returndatasize)\n    tag_180:\n      pop\n      pop\n      pop\n      pop\n      mload(0x40)\n      returndatasize\n      not(0x1f)\n      0x1f\n      dup3\n      add\n      and\n      dup3\n      add\n      dup1\n      0x40\n      mstore\n      pop\n      dup2\n      add\n      swap1\n      tag_181\n      swap2\n      swap1\n      tag_161\n      jump\t// in\n    tag_181:\n      pop\n        /* \"contracts/NFTContract3/SQFIFactory.sol\":3777:3781  SQFI */\n      0x0c\n      0x00\n      swap1\n      sload\n      swap1\n      0x0100\n      exp\n      swap1\n      div\n      0xffffffffffffffffffffffffffffffffffffffff\n      and\n        /* \"contracts/NFTContract3/SQFIFactory.sol\":3777:3795  SQFI.safeBuyActive */\n      0xffffffffffffffffffffffffffffffffffffffff\n      and\n      0x1f29e9fc\n        /* \"contracts/NFTContract3/SQFIFactory.sol\":3796:3804  typeItem */\n      dup4\n        /* \"contracts/NFTContract3/SQFIFactory.sol\":3777:3805  SQFI.safeBuyActive(typeItem) */\n      mload(0x40)\n      dup3\n      0xffffffff\n      and\n      0xe0\n      shl\n      dup2\n      mstore\n      0x04\n      add\n      tag_182\n      swap2\n      swap1\n      tag_163\n      jump\t// in\n    tag_182:\n      0x20\n      mload(0x40)\n      dup1\n      dup4\n      sub\n      dup2\n      0x00\n      dup8\n      gas\n      call\n      iszero\n      dup1\n      iszero\n      tag_184\n      jumpi\n      returndatasize\n      0x00\n      dup1\n      returndatacopy\n      revert(0x00, returndatasize)\n    tag_184:\n      pop\n      pop\n      pop\n      pop\n      mload(0x40)\n      returndatasize\n      not(0x1f)\n      0x1f\n      dup3\n      add\n      and\n      dup3\n      add\n      dup1\n      0x40\n      mstore\n      pop\n      dup2\n      add\n      swap1\n      tag_185\n      swap2\n      swap1\n      tag_167\n      jump\t// in\n    tag_185:\n        /* \"contracts/NFTContract3/SQFIFactory.sol\":3768:3805  itemId = SQFI.safeBuyActive(typeItem) */\n      swap1\n      pop\n        /* \"contracts/NFTContract3/SQFIFactory.sol\":3840:3938  activeItems(... */\n      mload(0x40)\n      dup1\n      0x60\n      add\n      0x40\n      mstore\n      dup1\n        /* \"contracts/NFTContract3/SQFIFactory.sol\":3865:3871  itemId */\n      dup3\n        /* \"contracts/NFTContract3/SQFIFactory.sol\":3840:3938  activeItems(... */\n      dup2\n      mstore\n      0x20\n      add\n        /* \"contracts/NFTContract3/SQFIFactory.sol\":3885:3895  msg.sender */\n      caller\n        /* \"contracts/NFTContract3/SQFIFactory.sol\":3840:3938  activeItems(... */\n      0xffffffffffffffffffffffffffffffffffffffff\n      and\n      dup2\n      mstore\n      0x20\n      add\n        /* \"contracts/NFTContract3/SQFIFactory.sol\":3909:3928  activeStatus.SILVER */\n      0x02\n        /* \"contracts/NFTContract3/SQFIFactory.sol\":3840:3938  activeItems(... */\n      0x03\n      dup2\n      gt\n      iszero\n      tag_186\n      jumpi\n      tag_187\n      tag_170\n      jump\t// in\n    tag_187:\n    tag_186:\n      dup2\n      mstore\n      pop\n        /* \"contracts/NFTContract3/SQFIFactory.sol\":3819:3829  activeItem */\n      0x01\n        /* \"contracts/NFTContract3/SQFIFactory.sol\":3819:3837  activeItem[itemId] */\n      0x00\n        /* \"contracts/NFTContract3/SQFIFactory.sol\":3830:3836  itemId */\n      dup4\n        /* \"contracts/NFTContract3/SQFIFactory.sol\":3819:3837  activeItem[itemId] */\n      dup2\n      mstore\n      0x20\n      add\n      swap1\n      dup2\n      mstore\n      0x20\n      add\n      0x00\n      keccak256\n        /* \"contracts/NFTContract3/SQFIFactory.sol\":3819:3938  activeItem[itemId] = activeItems(... */\n      0x00\n      dup3\n      add\n      mload\n      dup2\n      0x00\n      add\n      sstore\n      0x20\n      dup3\n      add\n      mload\n      dup2\n      0x01\n      add\n      exp(0x0100, 0x00)\n      dup2\n      sload\n      dup2\n      0xffffffffffffffffffffffffffffffffffffffff\n      mul\n      not\n      and\n      swap1\n      dup4\n      0xffffffffffffffffffffffffffffffffffffffff\n      and\n      mul\n      or\n      swap1\n      sstore\n      pop\n      0x40\n      dup3\n      add\n      mload\n      dup2\n      0x01\n      add\n      exp(0x0100, 0x14)\n      dup2\n      sload\n      dup2\n      0xff\n      mul\n      not\n      and\n      swap1\n      dup4\n      0x03\n      dup2\n      gt\n      iszero\n      tag_188\n      jumpi\n      tag_189\n      tag_170\n      jump\t// in\n    tag_189:\n    tag_188:\n      mul\n      or\n      swap1\n      sstore\n      pop\n      swap1\n      pop\n      pop\n        /* \"contracts/NFTContract3/SQFIFactory.sol\":3587:4319  if(keccak256(abi.encodePacked(typeItem)) == keccak256(abi.encodePacked(\"SILVER\"))) { ... */\n      jump(tag_190)\n    tag_176:\n        /* \"contracts/NFTContract3/SQFIFactory.sol\":4017:4041  abi.encodePacked(\"GOLD\") */\n      add(0x20, mload(0x40))\n      tag_191\n      swap1\n      tag_147\n      jump\t// in\n    tag_191:\n      mload(0x40)\n      0x20\n      dup2\n      dup4\n      sub\n      sub\n      dup2\n      mstore\n      swap1\n      0x40\n      mstore\n        /* \"contracts/NFTContract3/SQFIFactory.sol\":4007:4042  keccak256(abi.encodePacked(\"GOLD\")) */\n      dup1\n      mload\n      swap1\n      0x20\n      add\n      keccak256\n        /* \"contracts/NFTContract3/SQFIFactory.sol\":3993:4001  typeItem */\n      dup3\n        /* \"contracts/NFTContract3/SQFIFactory.sol\":3976:4002  abi.encodePacked(typeItem) */\n      add(0x20, mload(0x40))\n      tag_192\n      swap2\n      swap1\n      tag_140\n      jump\t// in\n    tag_192:\n      mload(0x40)\n      0x20\n      dup2\n      dup4\n      sub\n      sub\n      dup2\n      mstore\n      swap1\n      0x40\n      mstore\n        /* \"contracts/NFTContract3/SQFIFactory.sol\":3966:4003  keccak256(abi.encodePacked(typeItem)) */\n      dup1\n      mload\n      swap1\n      0x20\n      add\n      keccak256\n        /* \"contracts/NFTContract3/SQFIFactory.sol\":3966:4042  keccak256(abi.encodePacked(typeItem)) == keccak256(abi.encodePacked(\"GOLD\")) */\n      sub\n        /* \"contracts/NFTContract3/SQFIFactory.sol\":3963:4319  if(keccak256(abi.encodePacked(typeItem)) == keccak256(abi.encodePacked(\"GOLD\"))) { ... */\n      tag_193\n      jumpi\n        /* \"contracts/NFTContract3/SQFIFactory.sol\":4059:4067  sqfToken */\n      0x00\n      dup1\n      sload\n      swap1\n      0x0100\n      exp\n      swap1\n      div\n      0xffffffffffffffffffffffffffffffffffffffff\n      and\n        /* \"contracts/NFTContract3/SQFIFactory.sol\":4059:4080  sqfToken.transferFrom */\n      0xffffffffffffffffffffffffffffffffffffffff\n      and\n      0x23b872dd\n        /* \"contracts/NFTContract3/SQFIFactory.sol\":4081:4091  msg.sender */\n      caller\n        /* \"contracts/NFTContract3/SQFIFactory.sol\":4101:4108  owner() */\n      tag_194\n        /* \"contracts/NFTContract3/SQFIFactory.sol\":4101:4106  owner */\n      tag_55\n        /* \"contracts/NFTContract3/SQFIFactory.sol\":4101:4108  owner() */\n      jump\t// in\n    tag_194:\n        /* \"contracts/NFTContract3/SQFIFactory.sol\":4110:4125  goldActivePrice */\n      sload(0x0b)\n        /* \"contracts/NFTContract3/SQFIFactory.sol\":4059:4126  sqfToken.transferFrom(msg.sender, address(owner()),goldActivePrice) */\n      mload(0x40)\n      dup5\n      0xffffffff\n      and\n      0xe0\n      shl\n      dup2\n      mstore\n      0x04\n      add\n      tag_195\n      swap4\n      swap3\n      swap2\n      swap1\n      tag_157\n      jump\t// in\n    tag_195:\n      0x20\n      mload(0x40)\n      dup1\n      dup4\n      sub\n      dup2\n      0x00\n      dup8\n      gas\n      call\n      iszero\n      dup1\n      iszero\n      tag_197\n      jumpi\n      returndatasize\n      0x00\n      dup1\n      returndatacopy\n      revert(0x00, returndatasize)\n    tag_197:\n      pop\n      pop\n      pop\n      pop\n      mload(0x40)\n      returndatasize\n      not(0x1f)\n      0x1f\n      dup3\n      add\n      and\n      dup3\n      add\n      dup1\n      0x40\n      mstore\n      pop\n      dup2\n      add\n      swap1\n      tag_198\n      swap2\n      swap1\n      tag_161\n      jump\t// in\n    tag_198:\n      pop\n        /* \"contracts/NFTContract3/SQFIFactory.sol\":4149:4153  SQFI */\n      0x0c\n      0x00\n      swap1\n      sload\n      swap1\n      0x0100\n      exp\n      swap1\n      div\n      0xffffffffffffffffffffffffffffffffffffffff\n      and\n        /* \"contracts/NFTContract3/SQFIFactory.sol\":4149:4167  SQFI.safeBuyActive */\n      0xffffffffffffffffffffffffffffffffffffffff\n      and\n      0x1f29e9fc\n        /* \"contracts/NFTContract3/SQFIFactory.sol\":4168:4176  typeItem */\n      dup4\n        /* \"contracts/NFTContract3/SQFIFactory.sol\":4149:4177  SQFI.safeBuyActive(typeItem) */\n      mload(0x40)\n      dup3\n      0xffffffff\n      and\n      0xe0\n      shl\n      dup2\n      mstore\n      0x04\n      add\n      tag_199\n      swap2\n      swap1\n      tag_163\n      jump\t// in\n    tag_199:\n      0x20\n      mload(0x40)\n      dup1\n      dup4\n      sub\n      dup2\n      0x00\n      dup8\n      gas\n      call\n      iszero\n      dup1\n      iszero\n      tag_201\n      jumpi\n      returndatasize\n      0x00\n      dup1\n      returndatacopy\n      revert(0x00, returndatasize)\n    tag_201:\n      pop\n      pop\n      pop\n      pop\n      mload(0x40)\n      returndatasize\n      not(0x1f)\n      0x1f\n      dup3\n      add\n      and\n      dup3\n      add\n      dup1\n      0x40\n      mstore\n      pop\n      dup2\n      add\n      swap1\n      tag_202\n      swap2\n      swap1\n      tag_167\n      jump\t// in\n    tag_202:\n        /* \"contracts/NFTContract3/SQFIFactory.sol\":4140:4177  itemId = SQFI.safeBuyActive(typeItem) */\n      swap1\n      pop\n        /* \"contracts/NFTContract3/SQFIFactory.sol\":4212:4308  activeItems(... */\n      mload(0x40)\n      dup1\n      0x60\n      add\n      0x40\n      mstore\n      dup1\n        /* \"contracts/NFTContract3/SQFIFactory.sol\":4237:4243  itemId */\n      dup3\n        /* \"contracts/NFTContract3/SQFIFactory.sol\":4212:4308  activeItems(... */\n      dup2\n      mstore\n      0x20\n      add\n        /* \"contracts/NFTContract3/SQFIFactory.sol\":4257:4267  msg.sender */\n      caller\n        /* \"contracts/NFTContract3/SQFIFactory.sol\":4212:4308  activeItems(... */\n      0xffffffffffffffffffffffffffffffffffffffff\n      and\n      dup2\n      mstore\n      0x20\n      add\n        /* \"contracts/NFTContract3/SQFIFactory.sol\":4281:4298  activeStatus.GOLD */\n      0x03\n        /* \"contracts/NFTContract3/SQFIFactory.sol\":4212:4308  activeItems(... */\n      dup1\n      dup2\n      gt\n      iszero\n      tag_203\n      jumpi\n      tag_204\n      tag_170\n      jump\t// in\n    tag_204:\n    tag_203:\n      dup2\n      mstore\n      pop\n        /* \"contracts/NFTContract3/SQFIFactory.sol\":4191:4201  activeItem */\n      0x01\n        /* \"contracts/NFTContract3/SQFIFactory.sol\":4191:4209  activeItem[itemId] */\n      0x00\n        /* \"contracts/NFTContract3/SQFIFactory.sol\":4202:4208  itemId */\n      dup4\n        /* \"contracts/NFTContract3/SQFIFactory.sol\":4191:4209  activeItem[itemId] */\n      dup2\n      mstore\n      0x20\n      add\n      swap1\n      dup2\n      mstore\n      0x20\n      add\n      0x00\n      keccak256\n        /* \"contracts/NFTContract3/SQFIFactory.sol\":4191:4308  activeItem[itemId] = activeItems(... */\n      0x00\n      dup3\n      add\n      mload\n      dup2\n      0x00\n      add\n      sstore\n      0x20\n      dup3\n      add\n      mload\n      dup2\n      0x01\n      add\n      exp(0x0100, 0x00)\n      dup2\n      sload\n      dup2\n      0xffffffffffffffffffffffffffffffffffffffff\n      mul\n      not\n      and\n      swap1\n      dup4\n      0xffffffffffffffffffffffffffffffffffffffff\n      and\n      mul\n      or\n      swap1\n      sstore\n      pop\n      0x40\n      dup3\n      add\n      mload\n      dup2\n      0x01\n      add\n      exp(0x0100, 0x14)\n      dup2\n      sload\n      dup2\n      0xff\n      mul\n      not\n      and\n      swap1\n      dup4\n      0x03\n      dup2\n      gt\n      iszero\n      tag_205\n      jumpi\n      tag_206\n      tag_170\n      jump\t// in\n    tag_206:\n    tag_205:\n      mul\n      or\n      swap1\n      sstore\n      pop\n      swap1\n      pop\n      pop\n        /* \"contracts/NFTContract3/SQFIFactory.sol\":3963:4319  if(keccak256(abi.encodePacked(typeItem)) == keccak256(abi.encodePacked(\"GOLD\"))) { ... */\n    tag_193:\n        /* \"contracts/NFTContract3/SQFIFactory.sol\":3587:4319  if(keccak256(abi.encodePacked(typeItem)) == keccak256(abi.encodePacked(\"SILVER\"))) { ... */\n    tag_190:\n        /* \"contracts/NFTContract3/SQFIFactory.sol\":3207:4319  if (keccak256(abi.encodePacked(typeItem)) == keccak256(abi.encodePacked(\"BRONZE\"))) {... */\n    tag_173:\n        /* \"contracts/NFTContract3/SQFIFactory.sol\":4350:4360  msg.sender */\n      caller\n        /* \"contracts/NFTContract3/SQFIFactory.sol\":4333:4370  buyActive(itemId,msg.sender,typeItem) */\n      0xffffffffffffffffffffffffffffffffffffffff\n      and\n      0x1db2f8d3844c137e9a42d6083e0d6d79f46718a5b5f1df7504c174630c01bc10\n        /* \"contracts/NFTContract3/SQFIFactory.sol\":4343:4349  itemId */\n      dup3\n        /* \"contracts/NFTContract3/SQFIFactory.sol\":4361:4369  typeItem */\n      dup5\n        /* \"contracts/NFTContract3/SQFIFactory.sol\":4333:4370  buyActive(itemId,msg.sender,typeItem) */\n      mload(0x40)\n      tag_207\n      swap3\n      swap2\n      swap1\n      tag_208\n      jump\t// in\n    tag_207:\n      mload(0x40)\n      dup1\n      swap2\n      sub\n      swap1\n      log2\n        /* \"contracts/NFTContract3/SQFIFactory.sol\":2843:4377  { ... */\n      pop\n        /* \"contracts/NFTContract3/SQFIFactory.sol\":2776:4377  function mintActiveItem(string memory typeItem) public onlyMinter  { ... */\n      pop\n      jump\t// out\n        /* \"contracts/NFTContract3/Roleable.sol\":163:196  address public pendingMinterAdmin */\n    tag_81:\n      0x07\n      0x00\n      swap1\n      sload\n      swap1\n      0x0100\n      exp\n      swap1\n      div\n      0xffffffffffffffffffffffffffffffffffffffff\n      and\n      dup2\n      jump\t// out\n        /* \"contracts/NFTContract3/FactoryStorage.sol\":1469:1518  mapping(uint256 => ingameItems) public ingameItem */\n    tag_85:\n      mstore(0x20, 0x02)\n      dup1\n      0x00\n      mstore\n      keccak256(0x00, 0x40)\n      0x00\n      swap2\n      pop\n      swap1\n      pop\n      dup1\n      0x00\n      add\n      sload\n      swap1\n      dup1\n      0x01\n      add\n      dup1\n      sload\n      tag_209\n      swap1\n      tag_210\n      jump\t// in\n    tag_209:\n      dup1\n      0x1f\n      add\n      0x20\n      dup1\n      swap2\n      div\n      mul\n      0x20\n      add\n      mload(0x40)\n      swap1\n      dup2\n      add\n      0x40\n      mstore\n      dup1\n      swap3\n      swap2\n      swap1\n      dup2\n      dup2\n      mstore\n      0x20\n      add\n      dup3\n      dup1\n      sload\n      tag_211\n      swap1\n      tag_210\n      jump\t// in\n    tag_211:\n      dup1\n      iszero\n      tag_212\n      jumpi\n      dup1\n      0x1f\n      lt\n      tag_213\n      jumpi\n      0x0100\n      dup1\n      dup4\n      sload\n      div\n      mul\n      dup4\n      mstore\n      swap2\n      0x20\n      add\n      swap2\n      jump(tag_212)\n    tag_213:\n      dup3\n      add\n      swap2\n      swap1\n      0x00\n      mstore\n      keccak256(0x00, 0x20)\n      swap1\n    tag_214:\n      dup2\n      sload\n      dup2\n      mstore\n      swap1\n      0x01\n      add\n      swap1\n      0x20\n      add\n      dup1\n      dup4\n      gt\n      tag_214\n      jumpi\n      dup3\n      swap1\n      sub\n      0x1f\n      and\n      dup3\n      add\n      swap2\n    tag_212:\n      pop\n      pop\n      pop\n      pop\n      pop\n      swap1\n      dup1\n      0x02\n      add\n      0x00\n      swap1\n      sload\n      swap1\n      0x0100\n      exp\n      swap1\n      div\n      0xff\n      and\n      swap1\n      pop\n      dup4\n      jump\t// out\n        /* \"contracts/NFTContract3/SQFIFactory.sol\":1955:1981  address public nftContract */\n    tag_89:\n      0x08\n      0x00\n      swap1\n      sload\n      swap1\n      0x0100\n      exp\n      swap1\n      div\n      0xffffffffffffffffffffffffffffffffffffffff\n      and\n      dup2\n      jump\t// out\n        /* \"contracts/NFTContract3/Roleable.sol\":778:868  function minterAddmin() public view returns (address) {... */\n    tag_92:\n        /* \"contracts/NFTContract3/Roleable.sol\":823:830  address */\n      0x00\n        /* \"contracts/NFTContract3/Roleable.sol\":849:861  _minteradmin */\n      0x06\n      0x00\n      swap1\n      sload\n      swap1\n      0x0100\n      exp\n      swap1\n      div\n      0xffffffffffffffffffffffffffffffffffffffff\n      and\n        /* \"contracts/NFTContract3/Roleable.sol\":842:861  return _minteradmin */\n      swap1\n      pop\n        /* \"contracts/NFTContract3/Roleable.sol\":778:868  function minterAddmin() public view returns (address) {... */\n      swap1\n      jump\t// out\n        /* \"contracts/NFTContract3/Ownable.sol\":1911:2109  function transferOwnership(address newOwner) public virtual onlyOwner {... */\n    tag_96:\n        /* \"contracts/NFTContract3/Ownable.sol\":1252:1264  _msgSender() */\n      tag_217\n        /* \"contracts/NFTContract3/Ownable.sol\":1252:1262  _msgSender */\n      tag_108\n        /* \"contracts/NFTContract3/Ownable.sol\":1252:1264  _msgSender() */\n      jump\t// in\n    tag_217:\n        /* \"contracts/NFTContract3/Ownable.sol\":1241:1264  owner() == _msgSender() */\n      0xffffffffffffffffffffffffffffffffffffffff\n      and\n        /* \"contracts/NFTContract3/Ownable.sol\":1241:1248  owner() */\n      tag_218\n        /* \"contracts/NFTContract3/Ownable.sol\":1241:1246  owner */\n      tag_55\n        /* \"contracts/NFTContract3/Ownable.sol\":1241:1248  owner() */\n      jump\t// in\n    tag_218:\n        /* \"contracts/NFTContract3/Ownable.sol\":1241:1264  owner() == _msgSender() */\n      0xffffffffffffffffffffffffffffffffffffffff\n      and\n      eq\n        /* \"contracts/NFTContract3/Ownable.sol\":1233:1301  require(owner() == _msgSender(), \"Ownable: caller is not the owner\") */\n      tag_219\n      jumpi\n      mload(0x40)\n      0x08c379a000000000000000000000000000000000000000000000000000000000\n      dup2\n      mstore\n      0x04\n      add\n      tag_220\n      swap1\n      tag_112\n      jump\t// in\n    tag_220:\n      mload(0x40)\n      dup1\n      swap2\n      sub\n      swap1\n      revert\n    tag_219:\n        /* \"contracts/NFTContract3/Ownable.sol\":2019:2020  0 */\n      0x00\n        /* \"contracts/NFTContract3/Ownable.sol\":1999:2021  newOwner != address(0) */\n      0xffffffffffffffffffffffffffffffffffffffff\n      and\n        /* \"contracts/NFTContract3/Ownable.sol\":1999:2007  newOwner */\n      dup2\n        /* \"contracts/NFTContract3/Ownable.sol\":1999:2021  newOwner != address(0) */\n      0xffffffffffffffffffffffffffffffffffffffff\n      and\n      sub\n        /* \"contracts/NFTContract3/Ownable.sol\":1991:2064  require(newOwner != address(0), \"Ownable: new owner is the zero address\") */\n      tag_222\n      jumpi\n      mload(0x40)\n      0x08c379a000000000000000000000000000000000000000000000000000000000\n      dup2\n      mstore\n      0x04\n      add\n      tag_223\n      swap1\n      tag_224\n      jump\t// in\n    tag_223:\n      mload(0x40)\n      dup1\n      swap2\n      sub\n      swap1\n      revert\n    tag_222:\n        /* \"contracts/NFTContract3/Ownable.sol\":2074:2102  _transferOwnership(newOwner) */\n      tag_225\n        /* \"contracts/NFTContract3/Ownable.sol\":2093:2101  newOwner */\n      dup2\n        /* \"contracts/NFTContract3/Ownable.sol\":2074:2092  _transferOwnership */\n      tag_115\n        /* \"contracts/NFTContract3/Ownable.sol\":2074:2102  _transferOwnership(newOwner) */\n      jump\t// in\n    tag_225:\n        /* \"contracts/NFTContract3/Ownable.sol\":1911:2109  function transferOwnership(address newOwner) public virtual onlyOwner {... */\n      pop\n      jump\t// out\n        /* \"contracts/NFTContract3/Context.sol\":640:736  function _msgSender() internal view virtual returns (address) {... */\n    tag_108:\n        /* \"contracts/NFTContract3/Context.sol\":693:700  address */\n      0x00\n        /* \"contracts/NFTContract3/Context.sol\":719:729  msg.sender */\n      caller\n        /* \"contracts/NFTContract3/Context.sol\":712:729  return msg.sender */\n      swap1\n      pop\n        /* \"contracts/NFTContract3/Context.sol\":640:736  function _msgSender() internal view virtual returns (address) {... */\n      swap1\n      jump\t// out\n        /* \"contracts/NFTContract3/Ownable.sol\":2263:2450  function _transferOwnership(address newOwner) internal virtual {... */\n    tag_115:\n        /* \"contracts/NFTContract3/Ownable.sol\":2336:2352  address oldOwner */\n      0x00\n        /* \"contracts/NFTContract3/Ownable.sol\":2355:2361  _owner */\n      0x04\n      0x00\n      swap1\n      sload\n      swap1\n      0x0100\n      exp\n      swap1\n      div\n      0xffffffffffffffffffffffffffffffffffffffff\n      and\n        /* \"contracts/NFTContract3/Ownable.sol\":2336:2361  address oldOwner = _owner */\n      swap1\n      pop\n        /* \"contracts/NFTContract3/Ownable.sol\":2380:2388  newOwner */\n      dup2\n        /* \"contracts/NFTContract3/Ownable.sol\":2371:2377  _owner */\n      0x04\n      0x00\n        /* \"contracts/NFTContract3/Ownable.sol\":2371:2388  _owner = newOwner */\n      0x0100\n      exp\n      dup2\n      sload\n      dup2\n      0xffffffffffffffffffffffffffffffffffffffff\n      mul\n      not\n      and\n      swap1\n      dup4\n      0xffffffffffffffffffffffffffffffffffffffff\n      and\n      mul\n      or\n      swap1\n      sstore\n      pop\n        /* \"contracts/NFTContract3/Ownable.sol\":2434:2442  newOwner */\n      dup2\n        /* \"contracts/NFTContract3/Ownable.sol\":2403:2443  OwnershipTransferred(oldOwner, newOwner) */\n      0xffffffffffffffffffffffffffffffffffffffff\n      and\n        /* \"contracts/NFTContract3/Ownable.sol\":2424:2432  oldOwner */\n      dup2\n        /* \"contracts/NFTContract3/Ownable.sol\":2403:2443  OwnershipTransferred(oldOwner, newOwner) */\n      0xffffffffffffffffffffffffffffffffffffffff\n      and\n      0x8be0079c531659141344cd1fd0a4f28419497f9722a3daafe3b4186f6b6457e0\n      mload(0x40)\n      mload(0x40)\n      dup1\n      swap2\n      sub\n      swap1\n      log3\n        /* \"contracts/NFTContract3/Ownable.sol\":2326:2450  {... */\n      pop\n        /* \"contracts/NFTContract3/Ownable.sol\":2263:2450  function _transferOwnership(address newOwner) internal virtual {... */\n      pop\n      jump\t// out\n        /* \"#utility.yul\":7:133   */\n    tag_228:\n        /* \"#utility.yul\":44:51   */\n      0x00\n        /* \"#utility.yul\":84:126   */\n      0xffffffffffffffffffffffffffffffffffffffff\n        /* \"#utility.yul\":77:82   */\n      dup3\n        /* \"#utility.yul\":73:127   */\n      and\n        /* \"#utility.yul\":62:127   */\n      swap1\n      pop\n        /* \"#utility.yul\":7:133   */\n      swap2\n      swap1\n      pop\n      jump\t// out\n        /* \"#utility.yul\":139:199   */\n    tag_229:\n        /* \"#utility.yul\":167:170   */\n      0x00\n        /* \"#utility.yul\":188:193   */\n      dup2\n        /* \"#utility.yul\":181:193   */\n      swap1\n      pop\n        /* \"#utility.yul\":139:199   */\n      swap2\n      swap1\n      pop\n      jump\t// out\n        /* \"#utility.yul\":205:347   */\n    tag_230:\n        /* \"#utility.yul\":255:264   */\n      0x00\n        /* \"#utility.yul\":288:341   */\n      tag_297\n        /* \"#utility.yul\":306:340   */\n      tag_298\n        /* \"#utility.yul\":315:339   */\n      tag_299\n        /* \"#utility.yul\":333:338   */\n      dup5\n        /* \"#utility.yul\":315:339   */\n      tag_228\n      jump\t// in\n    tag_299:\n        /* \"#utility.yul\":306:340   */\n      tag_229\n      jump\t// in\n    tag_298:\n        /* \"#utility.yul\":288:341   */\n      tag_228\n      jump\t// in\n    tag_297:\n        /* \"#utility.yul\":275:341   */\n      swap1\n      pop\n        /* \"#utility.yul\":205:347   */\n      swap2\n      swap1\n      pop\n      jump\t// out\n        /* \"#utility.yul\":353:479   */\n    tag_231:\n        /* \"#utility.yul\":403:412   */\n      0x00\n        /* \"#utility.yul\":436:473   */\n      tag_301\n        /* \"#utility.yul\":467:472   */\n      dup3\n        /* \"#utility.yul\":436:473   */\n      tag_230\n      jump\t// in\n    tag_301:\n        /* \"#utility.yul\":423:473   */\n      swap1\n      pop\n        /* \"#utility.yul\":353:479   */\n      swap2\n      swap1\n      pop\n      jump\t// out\n        /* \"#utility.yul\":485:624   */\n    tag_232:\n        /* \"#utility.yul\":548:557   */\n      0x00\n        /* \"#utility.yul\":581:618   */\n      tag_303\n        /* \"#utility.yul\":612:617   */\n      dup3\n        /* \"#utility.yul\":581:618   */\n      tag_231\n      jump\t// in\n    tag_303:\n        /* \"#utility.yul\":568:618   */\n      swap1\n      pop\n        /* \"#utility.yul\":485:624   */\n      swap2\n      swap1\n      pop\n      jump\t// out\n        /* \"#utility.yul\":630:787   */\n    tag_233:\n        /* \"#utility.yul\":730:780   */\n      tag_305\n        /* \"#utility.yul\":774:779   */\n      dup2\n        /* \"#utility.yul\":730:780   */\n      tag_232\n      jump\t// in\n    tag_305:\n        /* \"#utility.yul\":725:728   */\n      dup3\n        /* \"#utility.yul\":718:781   */\n      mstore\n        /* \"#utility.yul\":630:787   */\n      pop\n      pop\n      jump\t// out\n        /* \"#utility.yul\":793:1041   */\n    tag_29:\n        /* \"#utility.yul\":899:903   */\n      0x00\n        /* \"#utility.yul\":937:939   */\n      0x20\n        /* \"#utility.yul\":926:935   */\n      dup3\n        /* \"#utility.yul\":922:940   */\n      add\n        /* \"#utility.yul\":914:940   */\n      swap1\n      pop\n        /* \"#utility.yul\":950:1034   */\n      tag_307\n        /* \"#utility.yul\":1031:1032   */\n      0x00\n        /* \"#utility.yul\":1020:1029   */\n      dup4\n        /* \"#utility.yul\":1016:1033   */\n      add\n        /* \"#utility.yul\":1007:1013   */\n      dup5\n        /* \"#utility.yul\":950:1034   */\n      tag_233\n      jump\t// in\n    tag_307:\n        /* \"#utility.yul\":793:1041   */\n      swap3\n      swap2\n      pop\n      pop\n      jump\t// out\n        /* \"#utility.yul\":1047:1122   */\n    tag_234:\n        /* \"#utility.yul\":1080:1086   */\n      0x00\n        /* \"#utility.yul\":1113:1115   */\n      0x40\n        /* \"#utility.yul\":1107:1116   */\n      mload\n        /* \"#utility.yul\":1097:1116   */\n      swap1\n      pop\n        /* \"#utility.yul\":1047:1122   */\n      swap1\n      jump\t// out\n        /* \"#utility.yul\":1128:1245   */\n    tag_235:\n        /* \"#utility.yul\":1237:1238   */\n      0x00\n        /* \"#utility.yul\":1234:1235   */\n      dup1\n        /* \"#utility.yul\":1227:1239   */\n      revert\n        /* \"#utility.yul\":1251:1368   */\n    tag_236:\n        /* \"#utility.yul\":1360:1361   */\n      0x00\n        /* \"#utility.yul\":1357:1358   */\n      dup1\n        /* \"#utility.yul\":1350:1362   */\n      revert\n        /* \"#utility.yul\":1374:1451   */\n    tag_237:\n        /* \"#utility.yul\":1411:1418   */\n      0x00\n        /* \"#utility.yul\":1440:1445   */\n      dup2\n        /* \"#utility.yul\":1429:1445   */\n      swap1\n      pop\n        /* \"#utility.yul\":1374:1451   */\n      swap2\n      swap1\n      pop\n      jump\t// out\n        /* \"#utility.yul\":1457:1579   */\n    tag_238:\n        /* \"#utility.yul\":1530:1554   */\n      tag_313\n        /* \"#utility.yul\":1548:1553   */\n      dup2\n        /* \"#utility.yul\":1530:1554   */\n      tag_237\n      jump\t// in\n    tag_313:\n        /* \"#utility.yul\":1523:1528   */\n      dup2\n        /* \"#utility.yul\":1520:1555   */\n      eq\n        /* \"#utility.yul\":1510:1573   */\n      tag_314\n      jumpi\n        /* \"#utility.yul\":1569:1570   */\n      0x00\n        /* \"#utility.yul\":1566:1567   */\n      dup1\n        /* \"#utility.yul\":1559:1571   */\n      revert\n        /* \"#utility.yul\":1510:1573   */\n    tag_314:\n        /* \"#utility.yul\":1457:1579   */\n      pop\n      jump\t// out\n        /* \"#utility.yul\":1585:1724   */\n    tag_239:\n        /* \"#utility.yul\":1631:1636   */\n      0x00\n        /* \"#utility.yul\":1669:1675   */\n      dup2\n        /* \"#utility.yul\":1656:1676   */\n      calldataload\n        /* \"#utility.yul\":1647:1676   */\n      swap1\n      pop\n        /* \"#utility.yul\":1685:1718   */\n      tag_316\n        /* \"#utility.yul\":1712:1717   */\n      dup2\n        /* \"#utility.yul\":1685:1718   */\n      tag_238\n      jump\t// in\n    tag_316:\n        /* \"#utility.yul\":1585:1724   */\n      swap3\n      swap2\n      pop\n      pop\n      jump\t// out\n        /* \"#utility.yul\":1730:2059   */\n    tag_32:\n        /* \"#utility.yul\":1789:1795   */\n      0x00\n        /* \"#utility.yul\":1838:1840   */\n      0x20\n        /* \"#utility.yul\":1826:1835   */\n      dup3\n        /* \"#utility.yul\":1817:1824   */\n      dup5\n        /* \"#utility.yul\":1813:1836   */\n      sub\n        /* \"#utility.yul\":1809:1841   */\n      slt\n        /* \"#utility.yul\":1806:1925   */\n      iszero\n      tag_318\n      jumpi\n        /* \"#utility.yul\":1844:1923   */\n      tag_319\n      tag_235\n      jump\t// in\n    tag_319:\n        /* \"#utility.yul\":1806:1925   */\n    tag_318:\n        /* \"#utility.yul\":1964:1965   */\n      0x00\n        /* \"#utility.yul\":1989:2042   */\n      tag_320\n        /* \"#utility.yul\":2034:2041   */\n      dup5\n        /* \"#utility.yul\":2025:2031   */\n      dup3\n        /* \"#utility.yul\":2014:2023   */\n      dup6\n        /* \"#utility.yul\":2010:2032   */\n      add\n        /* \"#utility.yul\":1989:2042   */\n      tag_239\n      jump\t// in\n    tag_320:\n        /* \"#utility.yul\":1979:2042   */\n      swap2\n      pop\n        /* \"#utility.yul\":1935:2052   */\n      pop\n        /* \"#utility.yul\":1730:2059   */\n      swap3\n      swap2\n      pop\n      pop\n      jump\t// out\n        /* \"#utility.yul\":2065:2161   */\n    tag_240:\n        /* \"#utility.yul\":2102:2109   */\n      0x00\n        /* \"#utility.yul\":2131:2155   */\n      tag_322\n        /* \"#utility.yul\":2149:2154   */\n      dup3\n        /* \"#utility.yul\":2131:2155   */\n      tag_228\n      jump\t// in\n    tag_322:\n        /* \"#utility.yul\":2120:2155   */\n      swap1\n      pop\n        /* \"#utility.yul\":2065:2161   */\n      swap2\n      swap1\n      pop\n      jump\t// out\n        /* \"#utility.yul\":2167:2285   */\n    tag_241:\n        /* \"#utility.yul\":2254:2278   */\n      tag_324\n        /* \"#utility.yul\":2272:2277   */\n      dup2\n        /* \"#utility.yul\":2254:2278   */\n      tag_240\n      jump\t// in\n    tag_324:\n        /* \"#utility.yul\":2249:2252   */\n      dup3\n        /* \"#utility.yul\":2242:2279   */\n      mstore\n        /* \"#utility.yul\":2167:2285   */\n      pop\n      pop\n      jump\t// out\n        /* \"#utility.yul\":2291:2471   */\n    tag_170:\n        /* \"#utility.yul\":2339:2416   */\n      0x4e487b7100000000000000000000000000000000000000000000000000000000\n        /* \"#utility.yul\":2336:2337   */\n      0x00\n        /* \"#utility.yul\":2329:2417   */\n      mstore\n        /* \"#utility.yul\":2436:2440   */\n      0x21\n        /* \"#utility.yul\":2433:2434   */\n      0x04\n        /* \"#utility.yul\":2426:2441   */\n      mstore\n        /* \"#utility.yul\":2460:2464   */\n      0x24\n        /* \"#utility.yul\":2457:2458   */\n      0x00\n        /* \"#utility.yul\":2450:2465   */\n      revert\n        /* \"#utility.yul\":2477:2597   */\n    tag_242:\n        /* \"#utility.yul\":2565:2566   */\n      0x04\n        /* \"#utility.yul\":2558:2563   */\n      dup2\n        /* \"#utility.yul\":2555:2567   */\n      lt\n        /* \"#utility.yul\":2545:2591   */\n      tag_327\n      jumpi\n        /* \"#utility.yul\":2571:2589   */\n      tag_328\n      tag_170\n      jump\t// in\n    tag_328:\n        /* \"#utility.yul\":2545:2591   */\n    tag_327:\n        /* \"#utility.yul\":2477:2597   */\n      pop\n      jump\t// out\n        /* \"#utility.yul\":2603:2744   */\n    tag_243:\n        /* \"#utility.yul\":2655:2662   */\n      0x00\n        /* \"#utility.yul\":2684:2689   */\n      dup2\n        /* \"#utility.yul\":2673:2689   */\n      swap1\n      pop\n        /* \"#utility.yul\":2690:2738   */\n      tag_330\n        /* \"#utility.yul\":2732:2737   */\n      dup3\n        /* \"#utility.yul\":2690:2738   */\n      tag_242\n      jump\t// in\n    tag_330:\n        /* \"#utility.yul\":2603:2744   */\n      swap2\n      swap1\n      pop\n      jump\t// out\n        /* \"#utility.yul\":2750:2891   */\n    tag_244:\n        /* \"#utility.yul\":2813:2822   */\n      0x00\n        /* \"#utility.yul\":2846:2885   */\n      tag_332\n        /* \"#utility.yul\":2879:2884   */\n      dup3\n        /* \"#utility.yul\":2846:2885   */\n      tag_243\n      jump\t// in\n    tag_332:\n        /* \"#utility.yul\":2833:2885   */\n      swap1\n      pop\n        /* \"#utility.yul\":2750:2891   */\n      swap2\n      swap1\n      pop\n      jump\t// out\n        /* \"#utility.yul\":2897:3054   */\n    tag_245:\n        /* \"#utility.yul\":2997:3047   */\n      tag_334\n        /* \"#utility.yul\":3041:3046   */\n      dup2\n        /* \"#utility.yul\":2997:3047   */\n      tag_244\n      jump\t// in\n    tag_334:\n        /* \"#utility.yul\":2992:2995   */\n      dup3\n        /* \"#utility.yul\":2985:3048   */\n      mstore\n        /* \"#utility.yul\":2897:3054   */\n      pop\n      pop\n      jump\t// out\n        /* \"#utility.yul\":3060:3418   */\n    tag_35:\n        /* \"#utility.yul\":3194:3198   */\n      0x00\n        /* \"#utility.yul\":3232:3234   */\n      0x40\n        /* \"#utility.yul\":3221:3230   */\n      dup3\n        /* \"#utility.yul\":3217:3235   */\n      add\n        /* \"#utility.yul\":3209:3235   */\n      swap1\n      pop\n        /* \"#utility.yul\":3245:3316   */\n      tag_336\n        /* \"#utility.yul\":3313:3314   */\n      0x00\n        /* \"#utility.yul\":3302:3311   */\n      dup4\n        /* \"#utility.yul\":3298:3315   */\n      add\n        /* \"#utility.yul\":3289:3295   */\n      dup6\n        /* \"#utility.yul\":3245:3316   */\n      tag_241\n      jump\t// in\n    tag_336:\n        /* \"#utility.yul\":3326:3411   */\n      tag_337\n        /* \"#utility.yul\":3407:3409   */\n      0x20\n        /* \"#utility.yul\":3396:3405   */\n      dup4\n        /* \"#utility.yul\":3392:3410   */\n      add\n        /* \"#utility.yul\":3383:3389   */\n      dup5\n        /* \"#utility.yul\":3326:3411   */\n      tag_245\n      jump\t// in\n    tag_337:\n        /* \"#utility.yul\":3060:3418   */\n      swap4\n      swap3\n      pop\n      pop\n      pop\n      jump\t// out\n        /* \"#utility.yul\":3424:3573   */\n    tag_246:\n        /* \"#utility.yul\":3460:3467   */\n      0x00\n        /* \"#utility.yul\":3500:3566   */\n      0xffffffff00000000000000000000000000000000000000000000000000000000\n        /* \"#utility.yul\":3493:3498   */\n      dup3\n        /* \"#utility.yul\":3489:3567   */\n      and\n        /* \"#utility.yul\":3478:3567   */\n      swap1\n      pop\n        /* \"#utility.yul\":3424:3573   */\n      swap2\n      swap1\n      pop\n      jump\t// out\n        /* \"#utility.yul\":3579:3694   */\n    tag_247:\n        /* \"#utility.yul\":3664:3687   */\n      tag_340\n        /* \"#utility.yul\":3681:3686   */\n      dup2\n        /* \"#utility.yul\":3664:3687   */\n      tag_246\n      jump\t// in\n    tag_340:\n        /* \"#utility.yul\":3659:3662   */\n      dup3\n        /* \"#utility.yul\":3652:3688   */\n      mstore\n        /* \"#utility.yul\":3579:3694   */\n      pop\n      pop\n      jump\t// out\n        /* \"#utility.yul\":3700:3918   */\n    tag_39:\n        /* \"#utility.yul\":3791:3795   */\n      0x00\n        /* \"#utility.yul\":3829:3831   */\n      0x20\n        /* \"#utility.yul\":3818:3827   */\n      dup3\n        /* \"#utility.yul\":3814:3832   */\n      add\n        /* \"#utility.yul\":3806:3832   */\n      swap1\n      pop\n        /* \"#utility.yul\":3842:3911   */\n      tag_342\n        /* \"#utility.yul\":3908:3909   */\n      0x00\n        /* \"#utility.yul\":3897:3906   */\n      dup4\n        /* \"#utility.yul\":3893:3910   */\n      add\n        /* \"#utility.yul\":3884:3890   */\n      dup5\n        /* \"#utility.yul\":3842:3911   */\n      tag_247\n      jump\t// in\n    tag_342:\n        /* \"#utility.yul\":3700:3918   */\n      swap3\n      swap2\n      pop\n      pop\n      jump\t// out\n        /* \"#utility.yul\":3924:4042   */\n    tag_248:\n        /* \"#utility.yul\":4011:4035   */\n      tag_344\n        /* \"#utility.yul\":4029:4034   */\n      dup2\n        /* \"#utility.yul\":4011:4035   */\n      tag_237\n      jump\t// in\n    tag_344:\n        /* \"#utility.yul\":4006:4009   */\n      dup3\n        /* \"#utility.yul\":3999:4036   */\n      mstore\n        /* \"#utility.yul\":3924:4042   */\n      pop\n      pop\n      jump\t// out\n        /* \"#utility.yul\":4048:4516   */\n    tag_44:\n        /* \"#utility.yul\":4210:4214   */\n      0x00\n        /* \"#utility.yul\":4248:4250   */\n      0x60\n        /* \"#utility.yul\":4237:4246   */\n      dup3\n        /* \"#utility.yul\":4233:4251   */\n      add\n        /* \"#utility.yul\":4225:4251   */\n      swap1\n      pop\n        /* \"#utility.yul\":4261:4332   */\n      tag_346\n        /* \"#utility.yul\":4329:4330   */\n      0x00\n        /* \"#utility.yul\":4318:4327   */\n      dup4\n        /* \"#utility.yul\":4314:4331   */\n      add\n        /* \"#utility.yul\":4305:4311   */\n      dup7\n        /* \"#utility.yul\":4261:4332   */\n      tag_248\n      jump\t// in\n    tag_346:\n        /* \"#utility.yul\":4342:4414   */\n      tag_347\n        /* \"#utility.yul\":4410:4412   */\n      0x20\n        /* \"#utility.yul\":4399:4408   */\n      dup4\n        /* \"#utility.yul\":4395:4413   */\n      add\n        /* \"#utility.yul\":4386:4392   */\n      dup6\n        /* \"#utility.yul\":4342:4414   */\n      tag_241\n      jump\t// in\n    tag_347:\n        /* \"#utility.yul\":4424:4509   */\n      tag_348\n        /* \"#utility.yul\":4505:4507   */\n      0x40\n        /* \"#utility.yul\":4494:4503   */\n      dup4\n        /* \"#utility.yul\":4490:4508   */\n      add\n        /* \"#utility.yul\":4481:4487   */\n      dup5\n        /* \"#utility.yul\":4424:4509   */\n      tag_245\n      jump\t// in\n    tag_348:\n        /* \"#utility.yul\":4048:4516   */\n      swap5\n      swap4\n      pop\n      pop\n      pop\n      pop\n      jump\t// out\n        /* \"#utility.yul\":4522:4644   */\n    tag_249:\n        /* \"#utility.yul\":4595:4619   */\n      tag_350\n        /* \"#utility.yul\":4613:4618   */\n      dup2\n        /* \"#utility.yul\":4595:4619   */\n      tag_240\n      jump\t// in\n    tag_350:\n        /* \"#utility.yul\":4588:4593   */\n      dup2\n        /* \"#utility.yul\":4585:4620   */\n      eq\n        /* \"#utility.yul\":4575:4638   */\n      tag_351\n      jumpi\n        /* \"#utility.yul\":4634:4635   */\n      0x00\n        /* \"#utility.yul\":4631:4632   */\n      dup1\n        /* \"#utility.yul\":4624:4636   */\n      revert\n        /* \"#utility.yul\":4575:4638   */\n    tag_351:\n        /* \"#utility.yul\":4522:4644   */\n      pop\n      jump\t// out\n        /* \"#utility.yul\":4650:4789   */\n    tag_250:\n        /* \"#utility.yul\":4696:4701   */\n      0x00\n        /* \"#utility.yul\":4734:4740   */\n      dup2\n        /* \"#utility.yul\":4721:4741   */\n      calldataload\n        /* \"#utility.yul\":4712:4741   */\n      swap1\n      pop\n        /* \"#utility.yul\":4750:4783   */\n      tag_353\n        /* \"#utility.yul\":4777:4782   */\n      dup2\n        /* \"#utility.yul\":4750:4783   */\n      tag_249\n      jump\t// in\n    tag_353:\n        /* \"#utility.yul\":4650:4789   */\n      swap3\n      swap2\n      pop\n      pop\n      jump\t// out\n        /* \"#utility.yul\":4795:5124   */\n    tag_47:\n        /* \"#utility.yul\":4854:4860   */\n      0x00\n        /* \"#utility.yul\":4903:4905   */\n      0x20\n        /* \"#utility.yul\":4891:4900   */\n      dup3\n        /* \"#utility.yul\":4882:4889   */\n      dup5\n        /* \"#utility.yul\":4878:4901   */\n      sub\n        /* \"#utility.yul\":4874:4906   */\n      slt\n        /* \"#utility.yul\":4871:4990   */\n      iszero\n      tag_355\n      jumpi\n        /* \"#utility.yul\":4909:4988   */\n      tag_356\n      tag_235\n      jump\t// in\n    tag_356:\n        /* \"#utility.yul\":4871:4990   */\n    tag_355:\n        /* \"#utility.yul\":5029:5030   */\n      0x00\n        /* \"#utility.yul\":5054:5107   */\n      tag_357\n        /* \"#utility.yul\":5099:5106   */\n      dup5\n        /* \"#utility.yul\":5090:5096   */\n      dup3\n        /* \"#utility.yul\":5079:5088   */\n      dup6\n        /* \"#utility.yul\":5075:5097   */\n      add\n        /* \"#utility.yul\":5054:5107   */\n      tag_250\n      jump\t// in\n    tag_357:\n        /* \"#utility.yul\":5044:5107   */\n      swap2\n      pop\n        /* \"#utility.yul\":5000:5117   */\n      pop\n        /* \"#utility.yul\":4795:5124   */\n      swap3\n      swap2\n      pop\n      pop\n      jump\t// out\n        /* \"#utility.yul\":5130:5352   */\n    tag_57:\n        /* \"#utility.yul\":5223:5227   */\n      0x00\n        /* \"#utility.yul\":5261:5263   */\n      0x20\n        /* \"#utility.yul\":5250:5259   */\n      dup3\n        /* \"#utility.yul\":5246:5264   */\n      add\n        /* \"#utility.yul\":5238:5264   */\n      swap1\n      pop\n        /* \"#utility.yul\":5274:5345   */\n      tag_359\n        /* \"#utility.yul\":5342:5343   */\n      0x00\n        /* \"#utility.yul\":5331:5340   */\n      dup4\n        /* \"#utility.yul\":5327:5344   */\n      add\n        /* \"#utility.yul\":5318:5324   */\n      dup5\n        /* \"#utility.yul\":5274:5345   */\n      tag_241\n      jump\t// in\n    tag_359:\n        /* \"#utility.yul\":5130:5352   */\n      swap3\n      swap2\n      pop\n      pop\n      jump\t// out\n        /* \"#utility.yul\":5358:5580   */\n    tag_67:\n        /* \"#utility.yul\":5451:5455   */\n      0x00\n        /* \"#utility.yul\":5489:5491   */\n      0x20\n        /* \"#utility.yul\":5478:5487   */\n      dup3\n        /* \"#utility.yul\":5474:5492   */\n      add\n        /* \"#utility.yul\":5466:5492   */\n      swap1\n      pop\n        /* \"#utility.yul\":5502:5573   */\n      tag_361\n        /* \"#utility.yul\":5570:5571   */\n      0x00\n        /* \"#utility.yul\":5559:5568   */\n      dup4\n        /* \"#utility.yul\":5555:5572   */\n      add\n        /* \"#utility.yul\":5546:5552   */\n      dup5\n        /* \"#utility.yul\":5502:5573   */\n      tag_248\n      jump\t// in\n    tag_361:\n        /* \"#utility.yul\":5358:5580   */\n      swap3\n      swap2\n      pop\n      pop\n      jump\t// out\n        /* \"#utility.yul\":5586:5703   */\n    tag_251:\n        /* \"#utility.yul\":5695:5696   */\n      0x00\n        /* \"#utility.yul\":5692:5693   */\n      dup1\n        /* \"#utility.yul\":5685:5697   */\n      revert\n        /* \"#utility.yul\":5709:5826   */\n    tag_252:\n        /* \"#utility.yul\":5818:5819   */\n      0x00\n        /* \"#utility.yul\":5815:5816   */\n      dup1\n        /* \"#utility.yul\":5808:5820   */\n      revert\n        /* \"#utility.yul\":5832:5934   */\n    tag_253:\n        /* \"#utility.yul\":5873:5879   */\n      0x00\n        /* \"#utility.yul\":5924:5926   */\n      0x1f\n        /* \"#utility.yul\":5920:5927   */\n      not\n        /* \"#utility.yul\":5915:5917   */\n      0x1f\n        /* \"#utility.yul\":5908:5913   */\n      dup4\n        /* \"#utility.yul\":5904:5918   */\n      add\n        /* \"#utility.yul\":5900:5928   */\n      and\n        /* \"#utility.yul\":5890:5928   */\n      swap1\n      pop\n        /* \"#utility.yul\":5832:5934   */\n      swap2\n      swap1\n      pop\n      jump\t// out\n        /* \"#utility.yul\":5940:6120   */\n    tag_254:\n        /* \"#utility.yul\":5988:6065   */\n      0x4e487b7100000000000000000000000000000000000000000000000000000000\n        /* \"#utility.yul\":5985:5986   */\n      0x00\n        /* \"#utility.yul\":5978:6066   */\n      mstore\n        /* \"#utility.yul\":6085:6089   */\n      0x41\n        /* \"#utility.yul\":6082:6083   */\n      0x04\n        /* \"#utility.yul\":6075:6090   */\n      mstore\n        /* \"#utility.yul\":6109:6113   */\n      0x24\n        /* \"#utility.yul\":6106:6107   */\n      0x00\n        /* \"#utility.yul\":6099:6114   */\n      revert\n        /* \"#utility.yul\":6126:6407   */\n    tag_255:\n        /* \"#utility.yul\":6209:6236   */\n      tag_367\n        /* \"#utility.yul\":6231:6235   */\n      dup3\n        /* \"#utility.yul\":6209:6236   */\n      tag_253\n      jump\t// in\n    tag_367:\n        /* \"#utility.yul\":6201:6207   */\n      dup2\n        /* \"#utility.yul\":6197:6237   */\n      add\n        /* \"#utility.yul\":6339:6345   */\n      dup2\n        /* \"#utility.yul\":6327:6337   */\n      dup2\n        /* \"#utility.yul\":6324:6346   */\n      lt\n        /* \"#utility.yul\":6303:6321   */\n      0xffffffffffffffff\n        /* \"#utility.yul\":6291:6301   */\n      dup3\n        /* \"#utility.yul\":6288:6322   */\n      gt\n        /* \"#utility.yul\":6285:6347   */\n      or\n        /* \"#utility.yul\":6282:6370   */\n      iszero\n      tag_368\n      jumpi\n        /* \"#utility.yul\":6350:6368   */\n      tag_369\n      tag_254\n      jump\t// in\n    tag_369:\n        /* \"#utility.yul\":6282:6370   */\n    tag_368:\n        /* \"#utility.yul\":6390:6400   */\n      dup1\n        /* \"#utility.yul\":6386:6388   */\n      0x40\n        /* \"#utility.yul\":6379:6401   */\n      mstore\n        /* \"#utility.yul\":6169:6407   */\n      pop\n        /* \"#utility.yul\":6126:6407   */\n      pop\n      pop\n      jump\t// out\n        /* \"#utility.yul\":6413:6542   */\n    tag_256:\n        /* \"#utility.yul\":6447:6453   */\n      0x00\n        /* \"#utility.yul\":6474:6494   */\n      tag_371\n      tag_234\n      jump\t// in\n    tag_371:\n        /* \"#utility.yul\":6464:6494   */\n      swap1\n      pop\n        /* \"#utility.yul\":6503:6536   */\n      tag_372\n        /* \"#utility.yul\":6531:6535   */\n      dup3\n        /* \"#utility.yul\":6523:6529   */\n      dup3\n        /* \"#utility.yul\":6503:6536   */\n      tag_255\n      jump\t// in\n    tag_372:\n        /* \"#utility.yul\":6413:6542   */\n      swap2\n      swap1\n      pop\n      jump\t// out\n        /* \"#utility.yul\":6548:6856   */\n    tag_257:\n        /* \"#utility.yul\":6610:6614   */\n      0x00\n        /* \"#utility.yul\":6700:6718   */\n      0xffffffffffffffff\n        /* \"#utility.yul\":6692:6698   */\n      dup3\n        /* \"#utility.yul\":6689:6719   */\n      gt\n        /* \"#utility.yul\":6686:6742   */\n      iszero\n      tag_374\n      jumpi\n        /* \"#utility.yul\":6722:6740   */\n      tag_375\n      tag_254\n      jump\t// in\n    tag_375:\n        /* \"#utility.yul\":6686:6742   */\n    tag_374:\n        /* \"#utility.yul\":6760:6789   */\n      tag_376\n        /* \"#utility.yul\":6782:6788   */\n      dup3\n        /* \"#utility.yul\":6760:6789   */\n      tag_253\n      jump\t// in\n    tag_376:\n        /* \"#utility.yul\":6752:6789   */\n      swap1\n      pop\n        /* \"#utility.yul\":6844:6848   */\n      0x20\n        /* \"#utility.yul\":6838:6842   */\n      dup2\n        /* \"#utility.yul\":6834:6849   */\n      add\n        /* \"#utility.yul\":6826:6849   */\n      swap1\n      pop\n        /* \"#utility.yul\":6548:6856   */\n      swap2\n      swap1\n      pop\n      jump\t// out\n        /* \"#utility.yul\":6862:7016   */\n    tag_258:\n        /* \"#utility.yul\":6946:6952   */\n      dup3\n        /* \"#utility.yul\":6941:6944   */\n      dup2\n        /* \"#utility.yul\":6936:6939   */\n      dup4\n        /* \"#utility.yul\":6923:6953   */\n      calldatacopy\n        /* \"#utility.yul\":7008:7009   */\n      0x00\n        /* \"#utility.yul\":6999:7005   */\n      dup4\n        /* \"#utility.yul\":6994:6997   */\n      dup4\n        /* \"#utility.yul\":6990:7006   */\n      add\n        /* \"#utility.yul\":6983:7010   */\n      mstore\n        /* \"#utility.yul\":6862:7016   */\n      pop\n      pop\n      pop\n      jump\t// out\n        /* \"#utility.yul\":7022:7434   */\n    tag_259:\n        /* \"#utility.yul\":7100:7105   */\n      0x00\n        /* \"#utility.yul\":7125:7191   */\n      tag_379\n        /* \"#utility.yul\":7141:7190   */\n      tag_380\n        /* \"#utility.yul\":7183:7189   */\n      dup5\n        /* \"#utility.yul\":7141:7190   */\n      tag_257\n      jump\t// in\n    tag_380:\n        /* \"#utility.yul\":7125:7191   */\n      tag_256\n      jump\t// in\n    tag_379:\n        /* \"#utility.yul\":7116:7191   */\n      swap1\n      pop\n        /* \"#utility.yul\":7214:7220   */\n      dup3\n        /* \"#utility.yul\":7207:7212   */\n      dup2\n        /* \"#utility.yul\":7200:7221   */\n      mstore\n        /* \"#utility.yul\":7252:7256   */\n      0x20\n        /* \"#utility.yul\":7245:7250   */\n      dup2\n        /* \"#utility.yul\":7241:7257   */\n      add\n        /* \"#utility.yul\":7290:7293   */\n      dup5\n        /* \"#utility.yul\":7281:7287   */\n      dup5\n        /* \"#utility.yul\":7276:7279   */\n      dup5\n        /* \"#utility.yul\":7272:7288   */\n      add\n        /* \"#utility.yul\":7269:7294   */\n      gt\n        /* \"#utility.yul\":7266:7378   */\n      iszero\n      tag_381\n      jumpi\n        /* \"#utility.yul\":7297:7376   */\n      tag_382\n      tag_252\n      jump\t// in\n    tag_382:\n        /* \"#utility.yul\":7266:7378   */\n    tag_381:\n        /* \"#utility.yul\":7387:7428   */\n      tag_383\n        /* \"#utility.yul\":7421:7427   */\n      dup5\n        /* \"#utility.yul\":7416:7419   */\n      dup3\n        /* \"#utility.yul\":7411:7414   */\n      dup6\n        /* \"#utility.yul\":7387:7428   */\n      tag_258\n      jump\t// in\n    tag_383:\n        /* \"#utility.yul\":7106:7434   */\n      pop\n        /* \"#utility.yul\":7022:7434   */\n      swap4\n      swap3\n      pop\n      pop\n      pop\n      jump\t// out\n        /* \"#utility.yul\":7454:7794   */\n    tag_260:\n        /* \"#utility.yul\":7510:7515   */\n      0x00\n        /* \"#utility.yul\":7559:7562   */\n      dup3\n        /* \"#utility.yul\":7552:7556   */\n      0x1f\n        /* \"#utility.yul\":7544:7550   */\n      dup4\n        /* \"#utility.yul\":7540:7557   */\n      add\n        /* \"#utility.yul\":7536:7563   */\n      slt\n        /* \"#utility.yul\":7526:7648   */\n      tag_385\n      jumpi\n        /* \"#utility.yul\":7567:7646   */\n      tag_386\n      tag_251\n      jump\t// in\n    tag_386:\n        /* \"#utility.yul\":7526:7648   */\n    tag_385:\n        /* \"#utility.yul\":7684:7690   */\n      dup2\n        /* \"#utility.yul\":7671:7691   */\n      calldataload\n        /* \"#utility.yul\":7709:7788   */\n      tag_387\n        /* \"#utility.yul\":7784:7787   */\n      dup5\n        /* \"#utility.yul\":7776:7782   */\n      dup3\n        /* \"#utility.yul\":7769:7773   */\n      0x20\n        /* \"#utility.yul\":7761:7767   */\n      dup7\n        /* \"#utility.yul\":7757:7774   */\n      add\n        /* \"#utility.yul\":7709:7788   */\n      tag_259\n      jump\t// in\n    tag_387:\n        /* \"#utility.yul\":7700:7788   */\n      swap2\n      pop\n        /* \"#utility.yul\":7516:7794   */\n      pop\n        /* \"#utility.yul\":7454:7794   */\n      swap3\n      swap2\n      pop\n      pop\n      jump\t// out\n        /* \"#utility.yul\":7800:8309   */\n    tag_78:\n        /* \"#utility.yul\":7869:7875   */\n      0x00\n        /* \"#utility.yul\":7918:7920   */\n      0x20\n        /* \"#utility.yul\":7906:7915   */\n      dup3\n        /* \"#utility.yul\":7897:7904   */\n      dup5\n        /* \"#utility.yul\":7893:7916   */\n      sub\n        /* \"#utility.yul\":7889:7921   */\n      slt\n        /* \"#utility.yul\":7886:8005   */\n      iszero\n      tag_389\n      jumpi\n        /* \"#utility.yul\":7924:8003   */\n      tag_390\n      tag_235\n      jump\t// in\n    tag_390:\n        /* \"#utility.yul\":7886:8005   */\n    tag_389:\n        /* \"#utility.yul\":8072:8073   */\n      0x00\n        /* \"#utility.yul\":8061:8070   */\n      dup3\n        /* \"#utility.yul\":8057:8074   */\n      add\n        /* \"#utility.yul\":8044:8075   */\n      calldataload\n        /* \"#utility.yul\":8102:8120   */\n      0xffffffffffffffff\n        /* \"#utility.yul\":8094:8100   */\n      dup2\n        /* \"#utility.yul\":8091:8121   */\n      gt\n        /* \"#utility.yul\":8088:8205   */\n      iszero\n      tag_391\n      jumpi\n        /* \"#utility.yul\":8124:8203   */\n      tag_392\n      tag_236\n      jump\t// in\n    tag_392:\n        /* \"#utility.yul\":8088:8205   */\n    tag_391:\n        /* \"#utility.yul\":8229:8292   */\n      tag_393\n        /* \"#utility.yul\":8284:8291   */\n      dup5\n        /* \"#utility.yul\":8275:8281   */\n      dup3\n        /* \"#utility.yul\":8264:8273   */\n      dup6\n        /* \"#utility.yul\":8260:8282   */\n      add\n        /* \"#utility.yul\":8229:8292   */\n      tag_260\n      jump\t// in\n    tag_393:\n        /* \"#utility.yul\":8219:8292   */\n      swap2\n      pop\n        /* \"#utility.yul\":8015:8302   */\n      pop\n        /* \"#utility.yul\":7800:8309   */\n      swap3\n      swap2\n      pop\n      pop\n      jump\t// out\n        /* \"#utility.yul\":8315:8392   */\n    tag_261:\n        /* \"#utility.yul\":8352:8359   */\n      0x00\n        /* \"#utility.yul\":8381:8386   */\n      dup2\n        /* \"#utility.yul\":8370:8386   */\n      swap1\n      pop\n        /* \"#utility.yul\":8315:8392   */\n      swap2\n      swap1\n      pop\n      jump\t// out\n        /* \"#utility.yul\":8398:8516   */\n    tag_262:\n        /* \"#utility.yul\":8485:8509   */\n      tag_396\n        /* \"#utility.yul\":8503:8508   */\n      dup2\n        /* \"#utility.yul\":8485:8509   */\n      tag_261\n      jump\t// in\n    tag_396:\n        /* \"#utility.yul\":8480:8483   */\n      dup3\n        /* \"#utility.yul\":8473:8510   */\n      mstore\n        /* \"#utility.yul\":8398:8516   */\n      pop\n      pop\n      jump\t// out\n        /* \"#utility.yul\":8522:8621   */\n    tag_263:\n        /* \"#utility.yul\":8574:8580   */\n      0x00\n        /* \"#utility.yul\":8608:8613   */\n      dup2\n        /* \"#utility.yul\":8602:8614   */\n      mload\n        /* \"#utility.yul\":8592:8614   */\n      swap1\n      pop\n        /* \"#utility.yul\":8522:8621   */\n      swap2\n      swap1\n      pop\n      jump\t// out\n        /* \"#utility.yul\":8627:8796   */\n    tag_264:\n        /* \"#utility.yul\":8711:8722   */\n      0x00\n        /* \"#utility.yul\":8745:8751   */\n      dup3\n        /* \"#utility.yul\":8740:8743   */\n      dup3\n        /* \"#utility.yul\":8733:8752   */\n      mstore\n        /* \"#utility.yul\":8785:8789   */\n      0x20\n        /* \"#utility.yul\":8780:8783   */\n      dup3\n        /* \"#utility.yul\":8776:8790   */\n      add\n        /* \"#utility.yul\":8761:8790   */\n      swap1\n      pop\n        /* \"#utility.yul\":8627:8796   */\n      swap3\n      swap2\n      pop\n      pop\n      jump\t// out\n        /* \"#utility.yul\":8802:9109   */\n    tag_265:\n        /* \"#utility.yul\":8870:8871   */\n      0x00\n        /* \"#utility.yul\":8880:8993   */\n    tag_400:\n        /* \"#utility.yul\":8894:8900   */\n      dup4\n        /* \"#utility.yul\":8891:8892   */\n      dup2\n        /* \"#utility.yul\":8888:8901   */\n      lt\n        /* \"#utility.yul\":8880:8993   */\n      iszero\n      tag_402\n      jumpi\n        /* \"#utility.yul\":8979:8980   */\n      dup1\n        /* \"#utility.yul\":8974:8977   */\n      dup3\n        /* \"#utility.yul\":8970:8981   */\n      add\n        /* \"#utility.yul\":8964:8982   */\n      mload\n        /* \"#utility.yul\":8960:8961   */\n      dup2\n        /* \"#utility.yul\":8955:8958   */\n      dup5\n        /* \"#utility.yul\":8951:8962   */\n      add\n        /* \"#utility.yul\":8944:8983   */\n      mstore\n        /* \"#utility.yul\":8916:8918   */\n      0x20\n        /* \"#utility.yul\":8913:8914   */\n      dup2\n        /* \"#utility.yul\":8909:8919   */\n      add\n        /* \"#utility.yul\":8904:8919   */\n      swap1\n      pop\n        /* \"#utility.yul\":8880:8993   */\n      jump(tag_400)\n    tag_402:\n        /* \"#utility.yul\":9011:9017   */\n      dup4\n        /* \"#utility.yul\":9008:9009   */\n      dup2\n        /* \"#utility.yul\":9005:9018   */\n      gt\n        /* \"#utility.yul\":9002:9103   */\n      iszero\n      tag_403\n      jumpi\n        /* \"#utility.yul\":9091:9092   */\n      0x00\n        /* \"#utility.yul\":9082:9088   */\n      dup5\n        /* \"#utility.yul\":9077:9080   */\n      dup5\n        /* \"#utility.yul\":9073:9089   */\n      add\n        /* \"#utility.yul\":9066:9093   */\n      mstore\n        /* \"#utility.yul\":9002:9103   */\n    tag_403:\n        /* \"#utility.yul\":8851:9109   */\n      pop\n        /* \"#utility.yul\":8802:9109   */\n      pop\n      pop\n      pop\n      jump\t// out\n        /* \"#utility.yul\":9115:9479   */\n    tag_266:\n        /* \"#utility.yul\":9203:9206   */\n      0x00\n        /* \"#utility.yul\":9231:9270   */\n      tag_405\n        /* \"#utility.yul\":9264:9269   */\n      dup3\n        /* \"#utility.yul\":9231:9270   */\n      tag_263\n      jump\t// in\n    tag_405:\n        /* \"#utility.yul\":9286:9357   */\n      tag_406\n        /* \"#utility.yul\":9350:9356   */\n      dup2\n        /* \"#utility.yul\":9345:9348   */\n      dup6\n        /* \"#utility.yul\":9286:9357   */\n      tag_264\n      jump\t// in\n    tag_406:\n        /* \"#utility.yul\":9279:9357   */\n      swap4\n      pop\n        /* \"#utility.yul\":9366:9418   */\n      tag_407\n        /* \"#utility.yul\":9411:9417   */\n      dup2\n        /* \"#utility.yul\":9406:9409   */\n      dup6\n        /* \"#utility.yul\":9399:9403   */\n      0x20\n        /* \"#utility.yul\":9392:9397   */\n      dup7\n        /* \"#utility.yul\":9388:9404   */\n      add\n        /* \"#utility.yul\":9366:9418   */\n      tag_265\n      jump\t// in\n    tag_407:\n        /* \"#utility.yul\":9443:9472   */\n      tag_408\n        /* \"#utility.yul\":9465:9471   */\n      dup2\n        /* \"#utility.yul\":9443:9472   */\n      tag_253\n      jump\t// in\n    tag_408:\n        /* \"#utility.yul\":9438:9441   */\n      dup5\n        /* \"#utility.yul\":9434:9473   */\n      add\n        /* \"#utility.yul\":9427:9473   */\n      swap2\n      pop\n        /* \"#utility.yul\":9207:9479   */\n      pop\n        /* \"#utility.yul\":9115:9479   */\n      swap3\n      swap2\n      pop\n      pop\n      jump\t// out\n        /* \"#utility.yul\":9485:9575   */\n    tag_267:\n        /* \"#utility.yul\":9519:9526   */\n      0x00\n        /* \"#utility.yul\":9562:9567   */\n      dup2\n        /* \"#utility.yul\":9555:9568   */\n      iszero\n        /* \"#utility.yul\":9548:9569   */\n      iszero\n        /* \"#utility.yul\":9537:9569   */\n      swap1\n      pop\n        /* \"#utility.yul\":9485:9575   */\n      swap2\n      swap1\n      pop\n      jump\t// out\n        /* \"#utility.yul\":9581:9690   */\n    tag_268:\n        /* \"#utility.yul\":9662:9683   */\n      tag_411\n        /* \"#utility.yul\":9677:9682   */\n      dup2\n        /* \"#utility.yul\":9662:9683   */\n      tag_267\n      jump\t// in\n    tag_411:\n        /* \"#utility.yul\":9657:9660   */\n      dup3\n        /* \"#utility.yul\":9650:9684   */\n      mstore\n        /* \"#utility.yul\":9581:9690   */\n      pop\n      pop\n      jump\t// out\n        /* \"#utility.yul\":9696:10217   */\n    tag_87:\n        /* \"#utility.yul\":9859:9863   */\n      0x00\n        /* \"#utility.yul\":9897:9899   */\n      0x60\n        /* \"#utility.yul\":9886:9895   */\n      dup3\n        /* \"#utility.yul\":9882:9900   */\n      add\n        /* \"#utility.yul\":9874:9900   */\n      swap1\n      pop\n        /* \"#utility.yul\":9910:9981   */\n      tag_413\n        /* \"#utility.yul\":9978:9979   */\n      0x00\n        /* \"#utility.yul\":9967:9976   */\n      dup4\n        /* \"#utility.yul\":9963:9980   */\n      add\n        /* \"#utility.yul\":9954:9960   */\n      dup7\n        /* \"#utility.yul\":9910:9981   */\n      tag_262\n      jump\t// in\n    tag_413:\n        /* \"#utility.yul\":10028:10037   */\n      dup2\n        /* \"#utility.yul\":10022:10026   */\n      dup2\n        /* \"#utility.yul\":10018:10038   */\n      sub\n        /* \"#utility.yul\":10013:10015   */\n      0x20\n        /* \"#utility.yul\":10002:10011   */\n      dup4\n        /* \"#utility.yul\":9998:10016   */\n      add\n        /* \"#utility.yul\":9991:10039   */\n      mstore\n        /* \"#utility.yul\":10056:10134   */\n      tag_414\n        /* \"#utility.yul\":10129:10133   */\n      dup2\n        /* \"#utility.yul\":10120:10126   */\n      dup6\n        /* \"#utility.yul\":10056:10134   */\n      tag_266\n      jump\t// in\n    tag_414:\n        /* \"#utility.yul\":10048:10134   */\n      swap1\n      pop\n        /* \"#utility.yul\":10144:10210   */\n      tag_415\n        /* \"#utility.yul\":10206:10208   */\n      0x40\n        /* \"#utility.yul\":10195:10204   */\n      dup4\n        /* \"#utility.yul\":10191:10209   */\n      add\n        /* \"#utility.yul\":10182:10188   */\n      dup5\n        /* \"#utility.yul\":10144:10210   */\n      tag_268\n      jump\t// in\n    tag_415:\n        /* \"#utility.yul\":9696:10217   */\n      swap5\n      swap4\n      pop\n      pop\n      pop\n      pop\n      jump\t// out\n        /* \"#utility.yul\":10223:10398   */\n    tag_269:\n        /* \"#utility.yul\":10363:10390   */\n      0x63616c6c6572206e6f742061206d696e7465722061646d696e00000000000000\n        /* \"#utility.yul\":10359:10360   */\n      0x00\n        /* \"#utility.yul\":10351:10357   */\n      dup3\n        /* \"#utility.yul\":10347:10361   */\n      add\n        /* \"#utility.yul\":10340:10391   */\n      mstore\n        /* \"#utility.yul\":10223:10398   */\n      pop\n      jump\t// out\n        /* \"#utility.yul\":10404:10770   */\n    tag_270:\n        /* \"#utility.yul\":10546:10549   */\n      0x00\n        /* \"#utility.yul\":10567:10634   */\n      tag_418\n        /* \"#utility.yul\":10631:10633   */\n      0x19\n        /* \"#utility.yul\":10626:10629   */\n      dup4\n        /* \"#utility.yul\":10567:10634   */\n      tag_264\n      jump\t// in\n    tag_418:\n        /* \"#utility.yul\":10560:10634   */\n      swap2\n      pop\n        /* \"#utility.yul\":10643:10736   */\n      tag_419\n        /* \"#utility.yul\":10732:10735   */\n      dup3\n        /* \"#utility.yul\":10643:10736   */\n      tag_269\n      jump\t// in\n    tag_419:\n        /* \"#utility.yul\":10761:10763   */\n      0x20\n        /* \"#utility.yul\":10756:10759   */\n      dup3\n        /* \"#utility.yul\":10752:10764   */\n      add\n        /* \"#utility.yul\":10745:10764   */\n      swap1\n      pop\n        /* \"#utility.yul\":10404:10770   */\n      swap2\n      swap1\n      pop\n      jump\t// out\n        /* \"#utility.yul\":10776:11195   */\n    tag_100:\n        /* \"#utility.yul\":10942:10946   */\n      0x00\n        /* \"#utility.yul\":10980:10982   */\n      0x20\n        /* \"#utility.yul\":10969:10978   */\n      dup3\n        /* \"#utility.yul\":10965:10983   */\n      add\n        /* \"#utility.yul\":10957:10983   */\n      swap1\n      pop\n        /* \"#utility.yul\":11029:11038   */\n      dup2\n        /* \"#utility.yul\":11023:11027   */\n      dup2\n        /* \"#utility.yul\":11019:11039   */\n      sub\n        /* \"#utility.yul\":11015:11016   */\n      0x00\n        /* \"#utility.yul\":11004:11013   */\n      dup4\n        /* \"#utility.yul\":11000:11017   */\n      add\n        /* \"#utility.yul\":10993:11040   */\n      mstore\n        /* \"#utility.yul\":11057:11188   */\n      tag_421\n        /* \"#utility.yul\":11183:11187   */\n      dup2\n        /* \"#utility.yul\":11057:11188   */\n      tag_270\n      jump\t// in\n    tag_421:\n        /* \"#utility.yul\":11049:11188   */\n      swap1\n      pop\n        /* \"#utility.yul\":10776:11195   */\n      swap2\n      swap1\n      pop\n      jump\t// out\n        /* \"#utility.yul\":11201:11383   */\n    tag_271:\n        /* \"#utility.yul\":11341:11375   */\n      0x4f776e61626c653a2063616c6c6572206973206e6f7420746865206f776e6572\n        /* \"#utility.yul\":11337:11338   */\n      0x00\n        /* \"#utility.yul\":11329:11335   */\n      dup3\n        /* \"#utility.yul\":11325:11339   */\n      add\n        /* \"#utility.yul\":11318:11376   */\n      mstore\n        /* \"#utility.yul\":11201:11383   */\n      pop\n      jump\t// out\n        /* \"#utility.yul\":11389:11755   */\n    tag_272:\n        /* \"#utility.yul\":11531:11534   */\n      0x00\n        /* \"#utility.yul\":11552:11619   */\n      tag_424\n        /* \"#utility.yul\":11616:11618   */\n      0x20\n        /* \"#utility.yul\":11611:11614   */\n      dup4\n        /* \"#utility.yul\":11552:11619   */\n      tag_264\n      jump\t// in\n    tag_424:\n        /* \"#utility.yul\":11545:11619   */\n      swap2\n      pop\n        /* \"#utility.yul\":11628:11721   */\n      tag_425\n        /* \"#utility.yul\":11717:11720   */\n      dup3\n        /* \"#utility.yul\":11628:11721   */\n      tag_271\n      jump\t// in\n    tag_425:\n        /* \"#utility.yul\":11746:11748   */\n      0x20\n        /* \"#utility.yul\":11741:11744   */\n      dup3\n        /* \"#utility.yul\":11737:11749   */\n      add\n        /* \"#utility.yul\":11730:11749   */\n      swap1\n      pop\n        /* \"#utility.yul\":11389:11755   */\n      swap2\n      swap1\n      pop\n      jump\t// out\n        /* \"#utility.yul\":11761:12180   */\n    tag_112:\n        /* \"#utility.yul\":11927:11931   */\n      0x00\n        /* \"#utility.yul\":11965:11967   */\n      0x20\n        /* \"#utility.yul\":11954:11963   */\n      dup3\n        /* \"#utility.yul\":11950:11968   */\n      add\n        /* \"#utility.yul\":11942:11968   */\n      swap1\n      pop\n        /* \"#utility.yul\":12014:12023   */\n      dup2\n        /* \"#utility.yul\":12008:12012   */\n      dup2\n        /* \"#utility.yul\":12004:12024   */\n      sub\n        /* \"#utility.yul\":12000:12001   */\n      0x00\n        /* \"#utility.yul\":11989:11998   */\n      dup4\n        /* \"#utility.yul\":11985:12002   */\n      add\n        /* \"#utility.yul\":11978:12025   */\n      mstore\n        /* \"#utility.yul\":12042:12173   */\n      tag_427\n        /* \"#utility.yul\":12168:12172   */\n      dup2\n        /* \"#utility.yul\":12042:12173   */\n      tag_272\n      jump\t// in\n    tag_427:\n        /* \"#utility.yul\":12034:12173   */\n      swap1\n      pop\n        /* \"#utility.yul\":11761:12180   */\n      swap2\n      swap1\n      pop\n      jump\t// out\n        /* \"#utility.yul\":12186:12406   */\n    tag_273:\n        /* \"#utility.yul\":12326:12360   */\n      0x63616c6c6572206e6f7420612070656e64696e67206d696e7465722061646d69\n        /* \"#utility.yul\":12322:12323   */\n      0x00\n        /* \"#utility.yul\":12314:12320   */\n      dup3\n        /* \"#utility.yul\":12310:12324   */\n      add\n        /* \"#utility.yul\":12303:12361   */\n      mstore\n        /* \"#utility.yul\":12395:12398   */\n      0x6e00000000000000000000000000000000000000000000000000000000000000\n        /* \"#utility.yul\":12390:12392   */\n      0x20\n        /* \"#utility.yul\":12382:12388   */\n      dup3\n        /* \"#utility.yul\":12378:12393   */\n      add\n        /* \"#utility.yul\":12371:12399   */\n      mstore\n        /* \"#utility.yul\":12186:12406   */\n      pop\n      jump\t// out\n        /* \"#utility.yul\":12412:12778   */\n    tag_274:\n        /* \"#utility.yul\":12554:12557   */\n      0x00\n        /* \"#utility.yul\":12575:12642   */\n      tag_430\n        /* \"#utility.yul\":12639:12641   */\n      0x21\n        /* \"#utility.yul\":12634:12637   */\n      dup4\n        /* \"#utility.yul\":12575:12642   */\n      tag_264\n      jump\t// in\n    tag_430:\n        /* \"#utility.yul\":12568:12642   */\n      swap2\n      pop\n        /* \"#utility.yul\":12651:12744   */\n      tag_431\n        /* \"#utility.yul\":12740:12743   */\n      dup3\n        /* \"#utility.yul\":12651:12744   */\n      tag_273\n      jump\t// in\n    tag_431:\n        /* \"#utility.yul\":12769:12771   */\n      0x40\n        /* \"#utility.yul\":12764:12767   */\n      dup3\n        /* \"#utility.yul\":12760:12772   */\n      add\n        /* \"#utility.yul\":12753:12772   */\n      swap1\n      pop\n        /* \"#utility.yul\":12412:12778   */\n      swap2\n      swap1\n      pop\n      jump\t// out\n        /* \"#utility.yul\":12784:13203   */\n    tag_130:\n        /* \"#utility.yul\":12950:12954   */\n      0x00\n        /* \"#utility.yul\":12988:12990   */\n      0x20\n        /* \"#utility.yul\":12977:12986   */\n      dup3\n        /* \"#utility.yul\":12973:12991   */\n      add\n        /* \"#utility.yul\":12965:12991   */\n      swap1\n      pop\n        /* \"#utility.yul\":13037:13046   */\n      dup2\n        /* \"#utility.yul\":13031:13035   */\n      dup2\n        /* \"#utility.yul\":13027:13047   */\n      sub\n        /* \"#utility.yul\":13023:13024   */\n      0x00\n        /* \"#utility.yul\":13012:13021   */\n      dup4\n        /* \"#utility.yul\":13008:13025   */\n      add\n        /* \"#utility.yul\":13001:13048   */\n      mstore\n        /* \"#utility.yul\":13065:13196   */\n      tag_433\n        /* \"#utility.yul\":13191:13195   */\n      dup2\n        /* \"#utility.yul\":13065:13196   */\n      tag_274\n      jump\t// in\n    tag_433:\n        /* \"#utility.yul\":13057:13196   */\n      swap1\n      pop\n        /* \"#utility.yul\":12784:13203   */\n      swap2\n      swap1\n      pop\n      jump\t// out\n        /* \"#utility.yul\":13209:13377   */\n    tag_275:\n        /* \"#utility.yul\":13349:13369   */\n      0x63616e277420706572666f726d206d656c740000000000000000000000000000\n        /* \"#utility.yul\":13345:13346   */\n      0x00\n        /* \"#utility.yul\":13337:13343   */\n      dup3\n        /* \"#utility.yul\":13333:13347   */\n      add\n        /* \"#utility.yul\":13326:13370   */\n      mstore\n        /* \"#utility.yul\":13209:13377   */\n      pop\n      jump\t// out\n        /* \"#utility.yul\":13383:13749   */\n    tag_276:\n        /* \"#utility.yul\":13525:13528   */\n      0x00\n        /* \"#utility.yul\":13546:13613   */\n      tag_436\n        /* \"#utility.yul\":13610:13612   */\n      0x12\n        /* \"#utility.yul\":13605:13608   */\n      dup4\n        /* \"#utility.yul\":13546:13613   */\n      tag_264\n      jump\t// in\n    tag_436:\n        /* \"#utility.yul\":13539:13613   */\n      swap2\n      pop\n        /* \"#utility.yul\":13622:13715   */\n      tag_437\n        /* \"#utility.yul\":13711:13714   */\n      dup3\n        /* \"#utility.yul\":13622:13715   */\n      tag_275\n      jump\t// in\n    tag_437:\n        /* \"#utility.yul\":13740:13742   */\n      0x20\n        /* \"#utility.yul\":13735:13738   */\n      dup3\n        /* \"#utility.yul\":13731:13743   */\n      add\n        /* \"#utility.yul\":13724:13743   */\n      swap1\n      pop\n        /* \"#utility.yul\":13383:13749   */\n      swap2\n      swap1\n      pop\n      jump\t// out\n        /* \"#utility.yul\":13755:14174   */\n    tag_135:\n        /* \"#utility.yul\":13921:13925   */\n      0x00\n        /* \"#utility.yul\":13959:13961   */\n      0x20\n        /* \"#utility.yul\":13948:13957   */\n      dup3\n        /* \"#utility.yul\":13944:13962   */\n      add\n        /* \"#utility.yul\":13936:13962   */\n      swap1\n      pop\n        /* \"#utility.yul\":14008:14017   */\n      dup2\n        /* \"#utility.yul\":14002:14006   */\n      dup2\n        /* \"#utility.yul\":13998:14018   */\n      sub\n        /* \"#utility.yul\":13994:13995   */\n      0x00\n        /* \"#utility.yul\":13983:13992   */\n      dup4\n        /* \"#utility.yul\":13979:13996   */\n      add\n        /* \"#utility.yul\":13972:14019   */\n      mstore\n        /* \"#utility.yul\":14036:14167   */\n      tag_439\n        /* \"#utility.yul\":14162:14166   */\n      dup2\n        /* \"#utility.yul\":14036:14167   */\n      tag_276\n      jump\t// in\n    tag_439:\n        /* \"#utility.yul\":14028:14167   */\n      swap1\n      pop\n        /* \"#utility.yul\":13755:14174   */\n      swap2\n      swap1\n      pop\n      jump\t// out\n        /* \"#utility.yul\":14180:14328   */\n    tag_277:\n        /* \"#utility.yul\":14282:14293   */\n      0x00\n        /* \"#utility.yul\":14319:14322   */\n      dup2\n        /* \"#utility.yul\":14304:14322   */\n      swap1\n      pop\n        /* \"#utility.yul\":14180:14328   */\n      swap3\n      swap2\n      pop\n      pop\n      jump\t// out\n        /* \"#utility.yul\":14334:14490   */\n    tag_278:\n        /* \"#utility.yul\":14474:14482   */\n      0x42524f4e5a450000000000000000000000000000000000000000000000000000\n        /* \"#utility.yul\":14470:14471   */\n      0x00\n        /* \"#utility.yul\":14462:14468   */\n      dup3\n        /* \"#utility.yul\":14458:14472   */\n      add\n        /* \"#utility.yul\":14451:14483   */\n      mstore\n        /* \"#utility.yul\":14334:14490   */\n      pop\n      jump\t// out\n        /* \"#utility.yul\":14496:14896   */\n    tag_279:\n        /* \"#utility.yul\":14656:14659   */\n      0x00\n        /* \"#utility.yul\":14677:14761   */\n      tag_443\n        /* \"#utility.yul\":14759:14760   */\n      0x06\n        /* \"#utility.yul\":14754:14757   */\n      dup4\n        /* \"#utility.yul\":14677:14761   */\n      tag_277\n      jump\t// in\n    tag_443:\n        /* \"#utility.yul\":14670:14761   */\n      swap2\n      pop\n        /* \"#utility.yul\":14770:14863   */\n      tag_444\n        /* \"#utility.yul\":14859:14862   */\n      dup3\n        /* \"#utility.yul\":14770:14863   */\n      tag_278\n      jump\t// in\n    tag_444:\n        /* \"#utility.yul\":14888:14889   */\n      0x06\n        /* \"#utility.yul\":14883:14886   */\n      dup3\n        /* \"#utility.yul\":14879:14890   */\n      add\n        /* \"#utility.yul\":14872:14890   */\n      swap1\n      pop\n        /* \"#utility.yul\":14496:14896   */\n      swap2\n      swap1\n      pop\n      jump\t// out\n        /* \"#utility.yul\":14902:15283   */\n    tag_138:\n        /* \"#utility.yul\":15087:15090   */\n      0x00\n        /* \"#utility.yul\":15109:15257   */\n      tag_446\n        /* \"#utility.yul\":15253:15256   */\n      dup3\n        /* \"#utility.yul\":15109:15257   */\n      tag_279\n      jump\t// in\n    tag_446:\n        /* \"#utility.yul\":15102:15257   */\n      swap2\n      pop\n        /* \"#utility.yul\":15274:15277   */\n      dup2\n        /* \"#utility.yul\":15267:15277   */\n      swap1\n      pop\n        /* \"#utility.yul\":14902:15283   */\n      swap2\n      swap1\n      pop\n      jump\t// out\n        /* \"#utility.yul\":15289:15666   */\n    tag_280:\n        /* \"#utility.yul\":15395:15398   */\n      0x00\n        /* \"#utility.yul\":15423:15462   */\n      tag_448\n        /* \"#utility.yul\":15456:15461   */\n      dup3\n        /* \"#utility.yul\":15423:15462   */\n      tag_263\n      jump\t// in\n    tag_448:\n        /* \"#utility.yul\":15478:15567   */\n      tag_449\n        /* \"#utility.yul\":15560:15566   */\n      dup2\n        /* \"#utility.yul\":15555:15558   */\n      dup6\n        /* \"#utility.yul\":15478:15567   */\n      tag_277\n      jump\t// in\n    tag_449:\n        /* \"#utility.yul\":15471:15567   */\n      swap4\n      pop\n        /* \"#utility.yul\":15576:15628   */\n      tag_450\n        /* \"#utility.yul\":15621:15627   */\n      dup2\n        /* \"#utility.yul\":15616:15619   */\n      dup6\n        /* \"#utility.yul\":15609:15613   */\n      0x20\n        /* \"#utility.yul\":15602:15607   */\n      dup7\n        /* \"#utility.yul\":15598:15614   */\n      add\n        /* \"#utility.yul\":15576:15628   */\n      tag_265\n      jump\t// in\n    tag_450:\n        /* \"#utility.yul\":15653:15659   */\n      dup1\n        /* \"#utility.yul\":15648:15651   */\n      dup5\n        /* \"#utility.yul\":15644:15660   */\n      add\n        /* \"#utility.yul\":15637:15660   */\n      swap2\n      pop\n        /* \"#utility.yul\":15399:15666   */\n      pop\n        /* \"#utility.yul\":15289:15666   */\n      swap3\n      swap2\n      pop\n      pop\n      jump\t// out\n        /* \"#utility.yul\":15672:15947   */\n    tag_140:\n        /* \"#utility.yul\":15804:15807   */\n      0x00\n        /* \"#utility.yul\":15826:15921   */\n      tag_452\n        /* \"#utility.yul\":15917:15920   */\n      dup3\n        /* \"#utility.yul\":15908:15914   */\n      dup5\n        /* \"#utility.yul\":15826:15921   */\n      tag_280\n      jump\t// in\n    tag_452:\n        /* \"#utility.yul\":15819:15921   */\n      swap2\n      pop\n        /* \"#utility.yul\":15938:15941   */\n      dup2\n        /* \"#utility.yul\":15931:15941   */\n      swap1\n      pop\n        /* \"#utility.yul\":15672:15947   */\n      swap3\n      swap2\n      pop\n      pop\n      jump\t// out\n        /* \"#utility.yul\":15953:16109   */\n    tag_281:\n        /* \"#utility.yul\":16093:16101   */\n      0x53494c5645520000000000000000000000000000000000000000000000000000\n        /* \"#utility.yul\":16089:16090   */\n      0x00\n        /* \"#utility.yul\":16081:16087   */\n      dup3\n        /* \"#utility.yul\":16077:16091   */\n      add\n        /* \"#utility.yul\":16070:16102   */\n      mstore\n        /* \"#utility.yul\":15953:16109   */\n      pop\n      jump\t// out\n        /* \"#utility.yul\":16115:16515   */\n    tag_282:\n        /* \"#utility.yul\":16275:16278   */\n      0x00\n        /* \"#utility.yul\":16296:16380   */\n      tag_455\n        /* \"#utility.yul\":16378:16379   */\n      0x06\n        /* \"#utility.yul\":16373:16376   */\n      dup4\n        /* \"#utility.yul\":16296:16380   */\n      tag_277\n      jump\t// in\n    tag_455:\n        /* \"#utility.yul\":16289:16380   */\n      swap2\n      pop\n        /* \"#utility.yul\":16389:16482   */\n      tag_456\n        /* \"#utility.yul\":16478:16481   */\n      dup3\n        /* \"#utility.yul\":16389:16482   */\n      tag_281\n      jump\t// in\n    tag_456:\n        /* \"#utility.yul\":16507:16508   */\n      0x06\n        /* \"#utility.yul\":16502:16505   */\n      dup3\n        /* \"#utility.yul\":16498:16509   */\n      add\n        /* \"#utility.yul\":16491:16509   */\n      swap1\n      pop\n        /* \"#utility.yul\":16115:16515   */\n      swap2\n      swap1\n      pop\n      jump\t// out\n        /* \"#utility.yul\":16521:16902   */\n    tag_143:\n        /* \"#utility.yul\":16706:16709   */\n      0x00\n        /* \"#utility.yul\":16728:16876   */\n      tag_458\n        /* \"#utility.yul\":16872:16875   */\n      dup3\n        /* \"#utility.yul\":16728:16876   */\n      tag_282\n      jump\t// in\n    tag_458:\n        /* \"#utility.yul\":16721:16876   */\n      swap2\n      pop\n        /* \"#utility.yul\":16893:16896   */\n      dup2\n        /* \"#utility.yul\":16886:16896   */\n      swap1\n      pop\n        /* \"#utility.yul\":16521:16902   */\n      swap2\n      swap1\n      pop\n      jump\t// out\n        /* \"#utility.yul\":16908:17062   */\n    tag_283:\n        /* \"#utility.yul\":17048:17054   */\n      0x474f4c4400000000000000000000000000000000000000000000000000000000\n        /* \"#utility.yul\":17044:17045   */\n      0x00\n        /* \"#utility.yul\":17036:17042   */\n      dup3\n        /* \"#utility.yul\":17032:17046   */\n      add\n        /* \"#utility.yul\":17025:17055   */\n      mstore\n        /* \"#utility.yul\":16908:17062   */\n      pop\n      jump\t// out\n        /* \"#utility.yul\":17068:17468   */\n    tag_284:\n        /* \"#utility.yul\":17228:17231   */\n      0x00\n        /* \"#utility.yul\":17249:17333   */\n      tag_461\n        /* \"#utility.yul\":17331:17332   */\n      0x04\n        /* \"#utility.yul\":17326:17329   */\n      dup4\n        /* \"#utility.yul\":17249:17333   */\n      tag_277\n      jump\t// in\n    tag_461:\n        /* \"#utility.yul\":17242:17333   */\n      swap2\n      pop\n        /* \"#utility.yul\":17342:17435   */\n      tag_462\n        /* \"#utility.yul\":17431:17434   */\n      dup3\n        /* \"#utility.yul\":17342:17435   */\n      tag_283\n      jump\t// in\n    tag_462:\n        /* \"#utility.yul\":17460:17461   */\n      0x04\n        /* \"#utility.yul\":17455:17458   */\n      dup3\n        /* \"#utility.yul\":17451:17462   */\n      add\n        /* \"#utility.yul\":17444:17462   */\n      swap1\n      pop\n        /* \"#utility.yul\":17068:17468   */\n      swap2\n      swap1\n      pop\n      jump\t// out\n        /* \"#utility.yul\":17474:17855   */\n    tag_147:\n        /* \"#utility.yul\":17659:17662   */\n      0x00\n        /* \"#utility.yul\":17681:17829   */\n      tag_464\n        /* \"#utility.yul\":17825:17828   */\n      dup3\n        /* \"#utility.yul\":17681:17829   */\n      tag_284\n      jump\t// in\n    tag_464:\n        /* \"#utility.yul\":17674:17829   */\n      swap2\n      pop\n        /* \"#utility.yul\":17846:17849   */\n      dup2\n        /* \"#utility.yul\":17839:17849   */\n      swap1\n      pop\n        /* \"#utility.yul\":17474:17855   */\n      swap2\n      swap1\n      pop\n      jump\t// out\n        /* \"#utility.yul\":17861:18035   */\n    tag_285:\n        /* \"#utility.yul\":18001:18027   */\n      0x4974656d27732074797065206973206e6f742076616c69640000000000000000\n        /* \"#utility.yul\":17997:17998   */\n      0x00\n        /* \"#utility.yul\":17989:17995   */\n      dup3\n        /* \"#utility.yul\":17985:17999   */\n      add\n        /* \"#utility.yul\":17978:18028   */\n      mstore\n        /* \"#utility.yul\":17861:18035   */\n      pop\n      jump\t// out\n        /* \"#utility.yul\":18041:18407   */\n    tag_286:\n        /* \"#utility.yul\":18183:18186   */\n      0x00\n        /* \"#utility.yul\":18204:18271   */\n      tag_467\n        /* \"#utility.yul\":18268:18270   */\n      0x18\n        /* \"#utility.yul\":18263:18266   */\n      dup4\n        /* \"#utility.yul\":18204:18271   */\n      tag_264\n      jump\t// in\n    tag_467:\n        /* \"#utility.yul\":18197:18271   */\n      swap2\n      pop\n        /* \"#utility.yul\":18280:18373   */\n      tag_468\n        /* \"#utility.yul\":18369:18372   */\n      dup3\n        /* \"#utility.yul\":18280:18373   */\n      tag_285\n      jump\t// in\n    tag_468:\n        /* \"#utility.yul\":18398:18400   */\n      0x20\n        /* \"#utility.yul\":18393:18396   */\n      dup3\n        /* \"#utility.yul\":18389:18401   */\n      add\n        /* \"#utility.yul\":18382:18401   */\n      swap1\n      pop\n        /* \"#utility.yul\":18041:18407   */\n      swap2\n      swap1\n      pop\n      jump\t// out\n        /* \"#utility.yul\":18413:18832   */\n    tag_151:\n        /* \"#utility.yul\":18579:18583   */\n      0x00\n        /* \"#utility.yul\":18617:18619   */\n      0x20\n        /* \"#utility.yul\":18606:18615   */\n      dup3\n        /* \"#utility.yul\":18602:18620   */\n      add\n        /* \"#utility.yul\":18594:18620   */\n      swap1\n      pop\n        /* \"#utility.yul\":18666:18675   */\n      dup2\n        /* \"#utility.yul\":18660:18664   */\n      dup2\n        /* \"#utility.yul\":18656:18676   */\n      sub\n        /* \"#utility.yul\":18652:18653   */\n      0x00\n        /* \"#utility.yul\":18641:18650   */\n      dup4\n        /* \"#utility.yul\":18637:18654   */\n      add\n        /* \"#utility.yul\":18630:18677   */\n      mstore\n        /* \"#utility.yul\":18694:18825   */\n      tag_470\n        /* \"#utility.yul\":18820:18824   */\n      dup2\n        /* \"#utility.yul\":18694:18825   */\n      tag_286\n      jump\t// in\n    tag_470:\n        /* \"#utility.yul\":18686:18825   */\n      swap1\n      pop\n        /* \"#utility.yul\":18413:18832   */\n      swap2\n      swap1\n      pop\n      jump\t// out\n        /* \"#utility.yul\":18838:19280   */\n    tag_157:\n        /* \"#utility.yul\":18987:18991   */\n      0x00\n        /* \"#utility.yul\":19025:19027   */\n      0x60\n        /* \"#utility.yul\":19014:19023   */\n      dup3\n        /* \"#utility.yul\":19010:19028   */\n      add\n        /* \"#utility.yul\":19002:19028   */\n      swap1\n      pop\n        /* \"#utility.yul\":19038:19109   */\n      tag_472\n        /* \"#utility.yul\":19106:19107   */\n      0x00\n        /* \"#utility.yul\":19095:19104   */\n      dup4\n        /* \"#utility.yul\":19091:19108   */\n      add\n        /* \"#utility.yul\":19082:19088   */\n      dup7\n        /* \"#utility.yul\":19038:19109   */\n      tag_241\n      jump\t// in\n    tag_472:\n        /* \"#utility.yul\":19119:19191   */\n      tag_473\n        /* \"#utility.yul\":19187:19189   */\n      0x20\n        /* \"#utility.yul\":19176:19185   */\n      dup4\n        /* \"#utility.yul\":19172:19190   */\n      add\n        /* \"#utility.yul\":19163:19169   */\n      dup6\n        /* \"#utility.yul\":19119:19191   */\n      tag_241\n      jump\t// in\n    tag_473:\n        /* \"#utility.yul\":19201:19273   */\n      tag_474\n        /* \"#utility.yul\":19269:19271   */\n      0x40\n        /* \"#utility.yul\":19258:19267   */\n      dup4\n        /* \"#utility.yul\":19254:19272   */\n      add\n        /* \"#utility.yul\":19245:19251   */\n      dup5\n        /* \"#utility.yul\":19201:19273   */\n      tag_248\n      jump\t// in\n    tag_474:\n        /* \"#utility.yul\":18838:19280   */\n      swap5\n      swap4\n      pop\n      pop\n      pop\n      pop\n      jump\t// out\n        /* \"#utility.yul\":19286:19402   */\n    tag_287:\n        /* \"#utility.yul\":19356:19377   */\n      tag_476\n        /* \"#utility.yul\":19371:19376   */\n      dup2\n        /* \"#utility.yul\":19356:19377   */\n      tag_267\n      jump\t// in\n    tag_476:\n        /* \"#utility.yul\":19349:19354   */\n      dup2\n        /* \"#utility.yul\":19346:19378   */\n      eq\n        /* \"#utility.yul\":19336:19396   */\n      tag_477\n      jumpi\n        /* \"#utility.yul\":19392:19393   */\n      0x00\n        /* \"#utility.yul\":19389:19390   */\n      dup1\n        /* \"#utility.yul\":19382:19394   */\n      revert\n        /* \"#utility.yul\":19336:19396   */\n    tag_477:\n        /* \"#utility.yul\":19286:19402   */\n      pop\n      jump\t// out\n        /* \"#utility.yul\":19408:19545   */\n    tag_288:\n        /* \"#utility.yul\":19462:19467   */\n      0x00\n        /* \"#utility.yul\":19493:19499   */\n      dup2\n        /* \"#utility.yul\":19487:19500   */\n      mload\n        /* \"#utility.yul\":19478:19500   */\n      swap1\n      pop\n        /* \"#utility.yul\":19509:19539   */\n      tag_479\n        /* \"#utility.yul\":19533:19538   */\n      dup2\n        /* \"#utility.yul\":19509:19539   */\n      tag_287\n      jump\t// in\n    tag_479:\n        /* \"#utility.yul\":19408:19545   */\n      swap3\n      swap2\n      pop\n      pop\n      jump\t// out\n        /* \"#utility.yul\":19551:19896   */\n    tag_161:\n        /* \"#utility.yul\":19618:19624   */\n      0x00\n        /* \"#utility.yul\":19667:19669   */\n      0x20\n        /* \"#utility.yul\":19655:19664   */\n      dup3\n        /* \"#utility.yul\":19646:19653   */\n      dup5\n        /* \"#utility.yul\":19642:19665   */\n      sub\n        /* \"#utility.yul\":19638:19670   */\n      slt\n        /* \"#utility.yul\":19635:19754   */\n      iszero\n      tag_481\n      jumpi\n        /* \"#utility.yul\":19673:19752   */\n      tag_482\n      tag_235\n      jump\t// in\n    tag_482:\n        /* \"#utility.yul\":19635:19754   */\n    tag_481:\n        /* \"#utility.yul\":19793:19794   */\n      0x00\n        /* \"#utility.yul\":19818:19879   */\n      tag_483\n        /* \"#utility.yul\":19871:19878   */\n      dup5\n        /* \"#utility.yul\":19862:19868   */\n      dup3\n        /* \"#utility.yul\":19851:19860   */\n      dup6\n        /* \"#utility.yul\":19847:19869   */\n      add\n        /* \"#utility.yul\":19818:19879   */\n      tag_288\n      jump\t// in\n    tag_483:\n        /* \"#utility.yul\":19808:19879   */\n      swap2\n      pop\n        /* \"#utility.yul\":19764:19889   */\n      pop\n        /* \"#utility.yul\":19551:19896   */\n      swap3\n      swap2\n      pop\n      pop\n      jump\t// out\n        /* \"#utility.yul\":19902:20215   */\n    tag_163:\n        /* \"#utility.yul\":20015:20019   */\n      0x00\n        /* \"#utility.yul\":20053:20055   */\n      0x20\n        /* \"#utility.yul\":20042:20051   */\n      dup3\n        /* \"#utility.yul\":20038:20056   */\n      add\n        /* \"#utility.yul\":20030:20056   */\n      swap1\n      pop\n        /* \"#utility.yul\":20102:20111   */\n      dup2\n        /* \"#utility.yul\":20096:20100   */\n      dup2\n        /* \"#utility.yul\":20092:20112   */\n      sub\n        /* \"#utility.yul\":20088:20089   */\n      0x00\n        /* \"#utility.yul\":20077:20086   */\n      dup4\n        /* \"#utility.yul\":20073:20090   */\n      add\n        /* \"#utility.yul\":20066:20113   */\n      mstore\n        /* \"#utility.yul\":20130:20208   */\n      tag_485\n        /* \"#utility.yul\":20203:20207   */\n      dup2\n        /* \"#utility.yul\":20194:20200   */\n      dup5\n        /* \"#utility.yul\":20130:20208   */\n      tag_266\n      jump\t// in\n    tag_485:\n        /* \"#utility.yul\":20122:20208   */\n      swap1\n      pop\n        /* \"#utility.yul\":19902:20215   */\n      swap3\n      swap2\n      pop\n      pop\n      jump\t// out\n        /* \"#utility.yul\":20221:20364   */\n    tag_289:\n        /* \"#utility.yul\":20278:20283   */\n      0x00\n        /* \"#utility.yul\":20309:20315   */\n      dup2\n        /* \"#utility.yul\":20303:20316   */\n      mload\n        /* \"#utility.yul\":20294:20316   */\n      swap1\n      pop\n        /* \"#utility.yul\":20325:20358   */\n      tag_487\n        /* \"#utility.yul\":20352:20357   */\n      dup2\n        /* \"#utility.yul\":20325:20358   */\n      tag_238\n      jump\t// in\n    tag_487:\n        /* \"#utility.yul\":20221:20364   */\n      swap3\n      swap2\n      pop\n      pop\n      jump\t// out\n        /* \"#utility.yul\":20370:20721   */\n    tag_167:\n        /* \"#utility.yul\":20440:20446   */\n      0x00\n        /* \"#utility.yul\":20489:20491   */\n      0x20\n        /* \"#utility.yul\":20477:20486   */\n      dup3\n        /* \"#utility.yul\":20468:20475   */\n      dup5\n        /* \"#utility.yul\":20464:20487   */\n      sub\n        /* \"#utility.yul\":20460:20492   */\n      slt\n        /* \"#utility.yul\":20457:20576   */\n      iszero\n      tag_489\n      jumpi\n        /* \"#utility.yul\":20495:20574   */\n      tag_490\n      tag_235\n      jump\t// in\n    tag_490:\n        /* \"#utility.yul\":20457:20576   */\n    tag_489:\n        /* \"#utility.yul\":20615:20616   */\n      0x00\n        /* \"#utility.yul\":20640:20704   */\n      tag_491\n        /* \"#utility.yul\":20696:20703   */\n      dup5\n        /* \"#utility.yul\":20687:20693   */\n      dup3\n        /* \"#utility.yul\":20676:20685   */\n      dup6\n        /* \"#utility.yul\":20672:20694   */\n      add\n        /* \"#utility.yul\":20640:20704   */\n      tag_289\n      jump\t// in\n    tag_491:\n        /* \"#utility.yul\":20630:20704   */\n      swap2\n      pop\n        /* \"#utility.yul\":20586:20714   */\n      pop\n        /* \"#utility.yul\":20370:20721   */\n      swap3\n      swap2\n      pop\n      pop\n      jump\t// out\n        /* \"#utility.yul\":20727:21150   */\n    tag_208:\n        /* \"#utility.yul\":20868:20872   */\n      0x00\n        /* \"#utility.yul\":20906:20908   */\n      0x40\n        /* \"#utility.yul\":20895:20904   */\n      dup3\n        /* \"#utility.yul\":20891:20909   */\n      add\n        /* \"#utility.yul\":20883:20909   */\n      swap1\n      pop\n        /* \"#utility.yul\":20919:20990   */\n      tag_493\n        /* \"#utility.yul\":20987:20988   */\n      0x00\n        /* \"#utility.yul\":20976:20985   */\n      dup4\n        /* \"#utility.yul\":20972:20989   */\n      add\n        /* \"#utility.yul\":20963:20969   */\n      dup6\n        /* \"#utility.yul\":20919:20990   */\n      tag_248\n      jump\t// in\n    tag_493:\n        /* \"#utility.yul\":21037:21046   */\n      dup2\n        /* \"#utility.yul\":21031:21035   */\n      dup2\n        /* \"#utility.yul\":21027:21047   */\n      sub\n        /* \"#utility.yul\":21022:21024   */\n      0x20\n        /* \"#utility.yul\":21011:21020   */\n      dup4\n        /* \"#utility.yul\":21007:21025   */\n      add\n        /* \"#utility.yul\":21000:21048   */\n      mstore\n        /* \"#utility.yul\":21065:21143   */\n      tag_494\n        /* \"#utility.yul\":21138:21142   */\n      dup2\n        /* \"#utility.yul\":21129:21135   */\n      dup5\n        /* \"#utility.yul\":21065:21143   */\n      tag_266\n      jump\t// in\n    tag_494:\n        /* \"#utility.yul\":21057:21143   */\n      swap1\n      pop\n        /* \"#utility.yul\":20727:21150   */\n      swap4\n      swap3\n      pop\n      pop\n      pop\n      jump\t// out\n        /* \"#utility.yul\":21156:21336   */\n    tag_290:\n        /* \"#utility.yul\":21204:21281   */\n      0x4e487b7100000000000000000000000000000000000000000000000000000000\n        /* \"#utility.yul\":21201:21202   */\n      0x00\n        /* \"#utility.yul\":21194:21282   */\n      mstore\n        /* \"#utility.yul\":21301:21305   */\n      0x22\n        /* \"#utility.yul\":21298:21299   */\n      0x04\n        /* \"#utility.yul\":21291:21306   */\n      mstore\n        /* \"#utility.yul\":21325:21329   */\n      0x24\n        /* \"#utility.yul\":21322:21323   */\n      0x00\n        /* \"#utility.yul\":21315:21330   */\n      revert\n        /* \"#utility.yul\":21342:21662   */\n    tag_210:\n        /* \"#utility.yul\":21386:21392   */\n      0x00\n        /* \"#utility.yul\":21423:21424   */\n      0x02\n        /* \"#utility.yul\":21417:21421   */\n      dup3\n        /* \"#utility.yul\":21413:21425   */\n      div\n        /* \"#utility.yul\":21403:21425   */\n      swap1\n      pop\n        /* \"#utility.yul\":21470:21471   */\n      0x01\n        /* \"#utility.yul\":21464:21468   */\n      dup3\n        /* \"#utility.yul\":21460:21472   */\n      and\n        /* \"#utility.yul\":21491:21509   */\n      dup1\n        /* \"#utility.yul\":21481:21562   */\n      tag_497\n      jumpi\n        /* \"#utility.yul\":21547:21551   */\n      0x7f\n        /* \"#utility.yul\":21539:21545   */\n      dup3\n        /* \"#utility.yul\":21535:21552   */\n      and\n        /* \"#utility.yul\":21525:21552   */\n      swap2\n      pop\n        /* \"#utility.yul\":21481:21562   */\n    tag_497:\n        /* \"#utility.yul\":21609:21611   */\n      0x20\n        /* \"#utility.yul\":21601:21607   */\n      dup3\n        /* \"#utility.yul\":21598:21612   */\n      lt\n        /* \"#utility.yul\":21578:21596   */\n      dup2\n        /* \"#utility.yul\":21575:21613   */\n      sub\n        /* \"#utility.yul\":21572:21656   */\n      tag_498\n      jumpi\n        /* \"#utility.yul\":21628:21646   */\n      tag_499\n      tag_290\n      jump\t// in\n    tag_499:\n        /* \"#utility.yul\":21572:21656   */\n    tag_498:\n        /* \"#utility.yul\":21393:21662   */\n      pop\n        /* \"#utility.yul\":21342:21662   */\n      swap2\n      swap1\n      pop\n      jump\t// out\n        /* \"#utility.yul\":21668:21893   */\n    tag_291:\n        /* \"#utility.yul\":21808:21842   */\n      0x4f776e61626c653a206e6577206f776e657220697320746865207a65726f2061\n        /* \"#utility.yul\":21804:21805   */\n      0x00\n        /* \"#utility.yul\":21796:21802   */\n      dup3\n        /* \"#utility.yul\":21792:21806   */\n      add\n        /* \"#utility.yul\":21785:21843   */\n      mstore\n        /* \"#utility.yul\":21877:21885   */\n      0x6464726573730000000000000000000000000000000000000000000000000000\n        /* \"#utility.yul\":21872:21874   */\n      0x20\n        /* \"#utility.yul\":21864:21870   */\n      dup3\n        /* \"#utility.yul\":21860:21875   */\n      add\n        /* \"#utility.yul\":21853:21886   */\n      mstore\n        /* \"#utility.yul\":21668:21893   */\n      pop\n      jump\t// out\n        /* \"#utility.yul\":21899:22265   */\n    tag_292:\n        /* \"#utility.yul\":22041:22044   */\n      0x00\n        /* \"#utility.yul\":22062:22129   */\n      tag_502\n        /* \"#utility.yul\":22126:22128   */\n      0x26\n        /* \"#utility.yul\":22121:22124   */\n      dup4\n        /* \"#utility.yul\":22062:22129   */\n      tag_264\n      jump\t// in\n    tag_502:\n        /* \"#utility.yul\":22055:22129   */\n      swap2\n      pop\n        /* \"#utility.yul\":22138:22231   */\n      tag_503\n        /* \"#utility.yul\":22227:22230   */\n      dup3\n        /* \"#utility.yul\":22138:22231   */\n      tag_291\n      jump\t// in\n    tag_503:\n        /* \"#utility.yul\":22256:22258   */\n      0x40\n        /* \"#utility.yul\":22251:22254   */\n      dup3\n        /* \"#utility.yul\":22247:22259   */\n      add\n        /* \"#utility.yul\":22240:22259   */\n      swap1\n      pop\n        /* \"#utility.yul\":21899:22265   */\n      swap2\n      swap1\n      pop\n      jump\t// out\n        /* \"#utility.yul\":22271:22690   */\n    tag_224:\n        /* \"#utility.yul\":22437:22441   */\n      0x00\n        /* \"#utility.yul\":22475:22477   */\n      0x20\n        /* \"#utility.yul\":22464:22473   */\n      dup3\n        /* \"#utility.yul\":22460:22478   */\n      add\n        /* \"#utility.yul\":22452:22478   */\n      swap1\n      pop\n        /* \"#utility.yul\":22524:22533   */\n      dup2\n        /* \"#utility.yul\":22518:22522   */\n      dup2\n        /* \"#utility.yul\":22514:22534   */\n      sub\n        /* \"#utility.yul\":22510:22511   */\n      0x00\n        /* \"#utility.yul\":22499:22508   */\n      dup4\n        /* \"#utility.yul\":22495:22512   */\n      add\n        /* \"#utility.yul\":22488:22535   */\n      mstore\n        /* \"#utility.yul\":22552:22683   */\n      tag_505\n        /* \"#utility.yul\":22678:22682   */\n      dup2\n        /* \"#utility.yul\":22552:22683   */\n      tag_292\n      jump\t// in\n    tag_505:\n        /* \"#utility.yul\":22544:22683   */\n      swap1\n      pop\n        /* \"#utility.yul\":22271:22690   */\n      swap2\n      swap1\n      pop\n      jump\t// out\n\n    auxdata: 0xa2646970667358221220f11a3e88969dc8534504b8ad2ff77d1d129a18871b0b9cdb1eb02ac8e1232ca664736f6c634300080d0033\n}\n",
				"bytecode": {
					"linkReferences": {},
					"object": "60806040523480156200001157600080fd5b506040516200269038038062002690833981810160405281019062000037919062000353565b620000576200004b6200021b60201b60201c565b6200022360201b60201c565b33600660006101000a81548173ffffffffffffffffffffffffffffffffffffffff021916908373ffffffffffffffffffffffffffffffffffffffff1602179055506001600560003373ffffffffffffffffffffffffffffffffffffffff1673ffffffffffffffffffffffffffffffffffffffff16815260200190815260200160002060006101000a81548160ff021916908315150217905550600073ffffffffffffffffffffffffffffffffffffffff168173ffffffffffffffffffffffffffffffffffffffff160362000162576040517f08c379a00000000000000000000000000000000000000000000000000000000081526004016200015990620003e6565b60405180910390fd5b80600c60006101000a81548173ffffffffffffffffffffffffffffffffffffffff021916908373ffffffffffffffffffffffffffffffffffffffff16021790555080600860006101000a81548173ffffffffffffffffffffffffffffffffffffffff021916908373ffffffffffffffffffffffffffffffffffffffff160217905550681b1ae4d6e2ef500000600981905550683635c9adc5dea00000600a81905550685150ae84a8cdf00000600b819055505062000408565b600033905090565b6000600460009054906101000a900473ffffffffffffffffffffffffffffffffffffffff16905081600460006101000a81548173ffffffffffffffffffffffffffffffffffffffff021916908373ffffffffffffffffffffffffffffffffffffffff1602179055508173ffffffffffffffffffffffffffffffffffffffff168173ffffffffffffffffffffffffffffffffffffffff167f8be0079c531659141344cd1fd0a4f28419497f9722a3daafe3b4186f6b6457e060405160405180910390a35050565b600080fd5b600073ffffffffffffffffffffffffffffffffffffffff82169050919050565b60006200031b82620002ee565b9050919050565b6200032d816200030e565b81146200033957600080fd5b50565b6000815190506200034d8162000322565b92915050565b6000602082840312156200036c576200036b620002e9565b5b60006200037c848285016200033c565b91505092915050565b600082825260208201905092915050565b7f496e76616c696420636f6e747261637420616464726573730000000000000000600082015250565b6000620003ce60188362000385565b9150620003db8262000396565b602082019050919050565b600060208201905081810360008301526200040181620003bf565b9050919050565b61227880620004186000396000f3fe608060405234801561001057600080fd5b506004361061012c5760003560e01c8063aa6a0dac116100ad578063ce1d82f511610071578063ce1d82f5146102e8578063d30bdac914610306578063d56d229d14610338578063db69a32d14610356578063f2fde38b146103745761012c565b8063aa6a0dac14610268578063ac4867f014610286578063aed59b8a146102a4578063af1b3d5e146102ae578063c04772d5146102cc5761012c565b80636e722920116100f45780636e722920146101ec578063715018a6146102085780638da5cb5b1461021257806392bf77dd14610230578063a15c15af1461024c5761012c565b806315b81dc3146101315780631f7775ad1461014f5780632b4c32be1461018057806358dd86031461019e5780636d4d0c57146101d0575b600080fd5b610139610390565b604051610146919061176d565b60405180910390f35b610169600480360381019061016491906117d2565b6103b4565b604051610177929190611897565b60405180910390f35b610188610405565b60405161019591906118fb565b60405180910390f35b6101b860048036038101906101b391906117d2565b610410565b6040516101c793929190611925565b60405180910390f35b6101ea60048036038101906101e59190611988565b610467565b005b61020660048036038101906102019190611988565b61053b565b005b610210610626565b005b61021a6106ae565b60405161022791906119b5565b60405180910390f35b61024a60048036038101906102459190611988565b6106d8565b005b61026660048036038101906102619190611988565b610797565b005b610270610882565b60405161027d91906119d0565b60405180910390f35b61028e610888565b60405161029b91906119d0565b60405180910390f35b6102ac61088e565b005b6102b6610a63565b6040516102c391906119d0565b60405180910390f35b6102e660048036038101906102e19190611b31565b610a69565b005b6102f06113f4565b6040516102fd91906119b5565b60405180910390f35b610320600480360381019061031b91906117d2565b61141a565b60405161032f93929190611c36565b60405180910390f35b6103406114d9565b60405161034d91906119b5565b60405180910390f35b61035e6114ff565b60405161036b91906119b5565b60405180910390f35b61038e60048036038101906103899190611988565b611529565b005b60008054906101000a900473ffffffffffffffffffffffffffffffffffffffff1681565b60036020528060005260406000206000915090508060000160009054906101000a900473ffffffffffffffffffffffffffffffffffffffff16908060000160149054906101000a900460ff16905082565b6380ac58cd60e01b81565b60016020528060005260406000206000915090508060000154908060010160009054906101000a900473ffffffffffffffffffffffffffffffffffffffff16908060010160149054906101000a900460ff16905083565b600660009054906101000a900473ffffffffffffffffffffffffffffffffffffffff1673ffffffffffffffffffffffffffffffffffffffff163373ffffffffffffffffffffffffffffffffffffffff16146104f7576040517f08c379a00000000000000000000000000000000000000000000000000000000081526004016104ee90611cc0565b60405180910390fd5b80600760006101000a81548173ffffffffffffffffffffffffffffffffffffffff021916908373ffffffffffffffffffffffffffffffffffffffff16021790555050565b600660009054906101000a900473ffffffffffffffffffffffffffffffffffffffff1673ffffffffffffffffffffffffffffffffffffffff163373ffffffffffffffffffffffffffffffffffffffff16146105cb576040517f08c379a00000000000000000000000000000000000000000000000000000000081526004016105c290611cc0565b60405180910390fd5b6000600560008373ffffffffffffffffffffffffffffffffffffffff1673ffffffffffffffffffffffffffffffffffffffff16815260200190815260200160002060006101000a81548160ff02191690831515021790555050565b61062e611620565b73ffffffffffffffffffffffffffffffffffffffff1661064c6106ae565b73ffffffffffffffffffffffffffffffffffffffff16146106a2576040517f08c379a000000000000000000000000000000000000000000000000000000000815260040161069990611d2c565b60405180910390fd5b6106ac6000611628565b565b6000600460009054906101000a900473ffffffffffffffffffffffffffffffffffffffff16905090565b6106e0611620565b73ffffffffffffffffffffffffffffffffffffffff166106fe6106ae565b73ffffffffffffffffffffffffffffffffffffffff1614610754576040517f08c379a000000000000000000000000000000000000000000000000000000000815260040161074b90611d2c565b60405180910390fd5b806000806101000a81548173ffffffffffffffffffffffffffffffffffffffff021916908373ffffffffffffffffffffffffffffffffffffffff16021790555050565b600660009054906101000a900473ffffffffffffffffffffffffffffffffffffffff1673ffffffffffffffffffffffffffffffffffffffff163373ffffffffffffffffffffffffffffffffffffffff1614610827576040517f08c379a000000000000000000000000000000000000000000000000000000000815260040161081e90611cc0565b60405180910390fd5b6001600560008373ffffffffffffffffffffffffffffffffffffffff1673ffffffffffffffffffffffffffffffffffffffff16815260200190815260200160002060006101000a81548160ff02191690831515021790555050565b600b5481565b60095481565b600760009054906101000a900473ffffffffffffffffffffffffffffffffffffffff1673ffffffffffffffffffffffffffffffffffffffff163373ffffffffffffffffffffffffffffffffffffffff161461091e576040517f08c379a000000000000000000000000000000000000000000000000000000000815260040161091590611dbe565b60405180910390fd5b600760009054906101000a900473ffffffffffffffffffffffffffffffffffffffff1673ffffffffffffffffffffffffffffffffffffffff16600660009054906101000a900473ffffffffffffffffffffffffffffffffffffffff1673ffffffffffffffffffffffffffffffffffffffff167f02ad39e5173f89bdd5497202bd74024b5da045106c3163ddb078d2e89ff6d6de60405160405180910390a3600760009054906101000a900473ffffffffffffffffffffffffffffffffffffffff16600660006101000a81548173ffffffffffffffffffffffffffffffffffffffff021916908373ffffffffffffffffffffffffffffffffffffffff1602179055506000600760006101000a81548173ffffffffffffffffffffffffffffffffffffffff021916908373ffffffffffffffffffffffffffffffffffffffff160217905550565b600a5481565b60011515600560003373ffffffffffffffffffffffffffffffffffffffff1673ffffffffffffffffffffffffffffffffffffffff16815260200190815260200160002060009054906101000a900460ff16151514610afc576040517f08c379a0000000000000000000000000000000000000000000000000000000008152600401610af390611e2a565b60405180910390fd5b6000604051602001610b0d90611ea1565b6040516020818303038152906040528051906020012082604051602001610b349190611ee7565b604051602081830303815290604052805190602001201480610b9f5750604051602001610b6090611f4a565b6040516020818303038152906040528051906020012082604051602001610b879190611ee7565b60405160208183030381529060405280519060200120145b80610bf35750604051602001610bb490611fab565b6040516020818303038152906040528051906020012082604051602001610bdb9190611ee7565b60405160208183030381529060405280519060200120145b610c32576040517f08c379a0000000000000000000000000000000000000000000000000000000008152600401610c299061200c565b60405180910390fd5b604051602001610c4190611ea1565b6040516020818303038152906040528051906020012082604051602001610c689190611ee7565b6040516020818303038152906040528051906020012003610ead5760008054906101000a900473ffffffffffffffffffffffffffffffffffffffff1673ffffffffffffffffffffffffffffffffffffffff166323b872dd33610cc86106ae565b6009546040518463ffffffff1660e01b8152600401610ce99392919061202c565b6020604051808303816000875af1158015610d08573d6000803e3d6000fd5b505050506040513d601f19601f82011682018060405250810190610d2c919061208f565b50600c60009054906101000a900473ffffffffffffffffffffffffffffffffffffffff1673ffffffffffffffffffffffffffffffffffffffff16631f29e9fc836040518263ffffffff1660e01b8152600401610d8891906120bc565b6020604051808303816000875af1158015610da7573d6000803e3d6000fd5b505050506040513d601f19601f82011682018060405250810190610dcb91906120f3565b905060405180606001604052808281526020013373ffffffffffffffffffffffffffffffffffffffff16815260200160016003811115610e0e57610e0d611820565b5b815250600160008381526020019081526020016000206000820151816000015560208201518160010160006101000a81548173ffffffffffffffffffffffffffffffffffffffff021916908373ffffffffffffffffffffffffffffffffffffffff16021790555060408201518160010160146101000a81548160ff02191690836003811115610ea057610e9f611820565b5b02179055509050506113a0565b604051602001610ebc90611f4a565b6040516020818303038152906040528051906020012082604051602001610ee39190611ee7565b60405160208183030381529060405280519060200120036111285760008054906101000a900473ffffffffffffffffffffffffffffffffffffffff1673ffffffffffffffffffffffffffffffffffffffff166323b872dd33610f436106ae565b600a546040518463ffffffff1660e01b8152600401610f649392919061202c565b6020604051808303816000875af1158015610f83573d6000803e3d6000fd5b505050506040513d601f19601f82011682018060405250810190610fa7919061208f565b50600c60009054906101000a900473ffffffffffffffffffffffffffffffffffffffff1673ffffffffffffffffffffffffffffffffffffffff16631f29e9fc836040518263ffffffff1660e01b815260040161100391906120bc565b6020604051808303816000875af1158015611022573d6000803e3d6000fd5b505050506040513d601f19601f8201168201806040525081019061104691906120f3565b905060405180606001604052808281526020013373ffffffffffffffffffffffffffffffffffffffff1681526020016002600381111561108957611088611820565b5b815250600160008381526020019081526020016000206000820151816000015560208201518160010160006101000a81548173ffffffffffffffffffffffffffffffffffffffff021916908373ffffffffffffffffffffffffffffffffffffffff16021790555060408201518160010160146101000a81548160ff0219169083600381111561111b5761111a611820565b5b021790555090505061139f565b60405160200161113790611fab565b604051602081830303815290604052805190602001208260405160200161115e9190611ee7565b604051602081830303815290604052805190602001200361139e5760008054906101000a900473ffffffffffffffffffffffffffffffffffffffff1673ffffffffffffffffffffffffffffffffffffffff166323b872dd336111be6106ae565b600b546040518463ffffffff1660e01b81526004016111df9392919061202c565b6020604051808303816000875af11580156111fe573d6000803e3d6000fd5b505050506040513d601f19601f82011682018060405250810190611222919061208f565b50600c60009054906101000a900473ffffffffffffffffffffffffffffffffffffffff1673ffffffffffffffffffffffffffffffffffffffff16631f29e9fc836040518263ffffffff1660e01b815260040161127e91906120bc565b6020604051808303816000875af115801561129d573d6000803e3d6000fd5b505050506040513d601f19601f820116820180604052508101906112c191906120f3565b905060405180606001604052808281526020013373ffffffffffffffffffffffffffffffffffffffff16815260200160038081111561130357611302611820565b5b815250600160008381526020019081526020016000206000820151816000015560208201518160010160006101000a81548173ffffffffffffffffffffffffffffffffffffffff021916908373ffffffffffffffffffffffffffffffffffffffff16021790555060408201518160010160146101000a81548160ff0219169083600381111561139557611394611820565b5b02179055509050505b5b5b3373ffffffffffffffffffffffffffffffffffffffff167f1db2f8d3844c137e9a42d6083e0d6d79f46718a5b5f1df7504c174630c01bc1082846040516113e8929190612120565b60405180910390a25050565b600760009054906101000a900473ffffffffffffffffffffffffffffffffffffffff1681565b60026020528060005260406000206000915090508060000154908060010180546114439061217f565b80601f016020809104026020016040519081016040528092919081815260200182805461146f9061217f565b80156114bc5780601f10611491576101008083540402835291602001916114bc565b820191906000526020600020905b81548152906001019060200180831161149f57829003601f168201915b5050505050908060020160009054906101000a900460ff16905083565b600860009054906101000a900473ffffffffffffffffffffffffffffffffffffffff1681565b6000600660009054906101000a900473ffffffffffffffffffffffffffffffffffffffff16905090565b611531611620565b73ffffffffffffffffffffffffffffffffffffffff1661154f6106ae565b73ffffffffffffffffffffffffffffffffffffffff16146115a5576040517f08c379a000000000000000000000000000000000000000000000000000000000815260040161159c90611d2c565b60405180910390fd5b600073ffffffffffffffffffffffffffffffffffffffff168173ffffffffffffffffffffffffffffffffffffffff1603611614576040517f08c379a000000000000000000000000000000000000000000000000000000000815260040161160b90612222565b60405180910390fd5b61161d81611628565b50565b600033905090565b6000600460009054906101000a900473ffffffffffffffffffffffffffffffffffffffff16905081600460006101000a81548173ffffffffffffffffffffffffffffffffffffffff021916908373ffffffffffffffffffffffffffffffffffffffff1602179055508173ffffffffffffffffffffffffffffffffffffffff168173ffffffffffffffffffffffffffffffffffffffff167f8be0079c531659141344cd1fd0a4f28419497f9722a3daafe3b4186f6b6457e060405160405180910390a35050565b600073ffffffffffffffffffffffffffffffffffffffff82169050919050565b6000819050919050565b600061173361172e611729846116ee565b61170e565b6116ee565b9050919050565b600061174582611718565b9050919050565b60006117578261173a565b9050919050565b6117678161174c565b82525050565b6000602082019050611782600083018461175e565b92915050565b6000604051905090565b600080fd5b600080fd5b6000819050919050565b6117af8161179c565b81146117ba57600080fd5b50565b6000813590506117cc816117a6565b92915050565b6000602082840312156117e8576117e7611792565b5b60006117f6848285016117bd565b91505092915050565b600061180a826116ee565b9050919050565b61181a816117ff565b82525050565b7f4e487b7100000000000000000000000000000000000000000000000000000000600052602160045260246000fd5b600481106118605761185f611820565b5b50565b60008190506118718261184f565b919050565b600061188182611863565b9050919050565b61189181611876565b82525050565b60006040820190506118ac6000830185611811565b6118b96020830184611888565b9392505050565b60007fffffffff0000000000000000000000000000000000000000000000000000000082169050919050565b6118f5816118c0565b82525050565b600060208201905061191060008301846118ec565b92915050565b61191f8161179c565b82525050565b600060608201905061193a6000830186611916565b6119476020830185611811565b6119546040830184611888565b949350505050565b611965816117ff565b811461197057600080fd5b50565b6000813590506119828161195c565b92915050565b60006020828403121561199e5761199d611792565b5b60006119ac84828501611973565b91505092915050565b60006020820190506119ca6000830184611811565b92915050565b60006020820190506119e56000830184611916565b92915050565b600080fd5b600080fd5b6000601f19601f8301169050919050565b7f4e487b7100000000000000000000000000000000000000000000000000000000600052604160045260246000fd5b611a3e826119f5565b810181811067ffffffffffffffff82111715611a5d57611a5c611a06565b5b80604052505050565b6000611a70611788565b9050611a7c8282611a35565b919050565b600067ffffffffffffffff821115611a9c57611a9b611a06565b5b611aa5826119f5565b9050602081019050919050565b82818337600083830152505050565b6000611ad4611acf84611a81565b611a66565b905082815260208101848484011115611af057611aef6119f0565b5b611afb848285611ab2565b509392505050565b600082601f830112611b1857611b176119eb565b5b8135611b28848260208601611ac1565b91505092915050565b600060208284031215611b4757611b46611792565b5b600082013567ffffffffffffffff811115611b6557611b64611797565b5b611b7184828501611b03565b91505092915050565b6000819050919050565b611b8d81611b7a565b82525050565b600081519050919050565b600082825260208201905092915050565b60005b83811015611bcd578082015181840152602081019050611bb2565b83811115611bdc576000848401525b50505050565b6000611bed82611b93565b611bf78185611b9e565b9350611c07818560208601611baf565b611c10816119f5565b840191505092915050565b60008115159050919050565b611c3081611c1b565b82525050565b6000606082019050611c4b6000830186611b84565b8181036020830152611c5d8185611be2565b9050611c6c6040830184611c27565b949350505050565b7f63616c6c6572206e6f742061206d696e7465722061646d696e00000000000000600082015250565b6000611caa601983611b9e565b9150611cb582611c74565b602082019050919050565b60006020820190508181036000830152611cd981611c9d565b9050919050565b7f4f776e61626c653a2063616c6c6572206973206e6f7420746865206f776e6572600082015250565b6000611d16602083611b9e565b9150611d2182611ce0565b602082019050919050565b60006020820190508181036000830152611d4581611d09565b9050919050565b7f63616c6c6572206e6f7420612070656e64696e67206d696e7465722061646d6960008201527f6e00000000000000000000000000000000000000000000000000000000000000602082015250565b6000611da8602183611b9e565b9150611db382611d4c565b604082019050919050565b60006020820190508181036000830152611dd781611d9b565b9050919050565b7f63616e277420706572666f726d206d656c740000000000000000000000000000600082015250565b6000611e14601283611b9e565b9150611e1f82611dde565b602082019050919050565b60006020820190508181036000830152611e4381611e07565b9050919050565b600081905092915050565b7f42524f4e5a450000000000000000000000000000000000000000000000000000600082015250565b6000611e8b600683611e4a565b9150611e9682611e55565b600682019050919050565b6000611eac82611e7e565b9150819050919050565b6000611ec182611b93565b611ecb8185611e4a565b9350611edb818560208601611baf565b80840191505092915050565b6000611ef38284611eb6565b915081905092915050565b7f53494c5645520000000000000000000000000000000000000000000000000000600082015250565b6000611f34600683611e4a565b9150611f3f82611efe565b600682019050919050565b6000611f5582611f27565b9150819050919050565b7f474f4c4400000000000000000000000000000000000000000000000000000000600082015250565b6000611f95600483611e4a565b9150611fa082611f5f565b600482019050919050565b6000611fb682611f88565b9150819050919050565b7f4974656d27732074797065206973206e6f742076616c69640000000000000000600082015250565b6000611ff6601883611b9e565b915061200182611fc0565b602082019050919050565b6000602082019050818103600083015261202581611fe9565b9050919050565b60006060820190506120416000830186611811565b61204e6020830185611811565b61205b6040830184611916565b949350505050565b61206c81611c1b565b811461207757600080fd5b50565b60008151905061208981612063565b92915050565b6000602082840312156120a5576120a4611792565b5b60006120b38482850161207a565b91505092915050565b600060208201905081810360008301526120d68184611be2565b905092915050565b6000815190506120ed816117a6565b92915050565b60006020828403121561210957612108611792565b5b6000612117848285016120de565b91505092915050565b60006040820190506121356000830185611916565b81810360208301526121478184611be2565b90509392505050565b7f4e487b7100000000000000000000000000000000000000000000000000000000600052602260045260246000fd5b6000600282049050600182168061219757607f821691505b6020821081036121aa576121a9612150565b5b50919050565b7f4f776e61626c653a206e6577206f776e657220697320746865207a65726f206160008201527f6464726573730000000000000000000000000000000000000000000000000000602082015250565b600061220c602683611b9e565b9150612217826121b0565b604082019050919050565b6000602082019050818103600083015261223b816121ff565b905091905056fea2646970667358221220f11a3e88969dc8534504b8ad2ff77d1d129a18871b0b9cdb1eb02ac8e1232ca664736f6c634300080d0033",
					"opcodes": "PUSH1 0x80 PUSH1 0x40 MSTORE CALLVALUE DUP1 ISZERO PUSH3 0x11 JUMPI PUSH1 0x0 DUP1 REVERT JUMPDEST POP PUSH1 0x40 MLOAD PUSH3 0x2690 CODESIZE SUB DUP1 PUSH3 0x2690 DUP4 CODECOPY DUP2 DUP2 ADD PUSH1 0x40 MSTORE DUP2 ADD SWAP1 PUSH3 0x37 SWAP2 SWAP1 PUSH3 0x353 JUMP JUMPDEST PUSH3 0x57 PUSH3 0x4B PUSH3 0x21B PUSH1 0x20 SHL PUSH1 0x20 SHR JUMP JUMPDEST PUSH3 0x223 PUSH1 0x20 SHL PUSH1 0x20 SHR JUMP JUMPDEST CALLER PUSH1 0x6 PUSH1 0x0 PUSH2 0x100 EXP DUP2 SLOAD DUP2 PUSH20 0xFFFFFFFFFFFFFFFFFFFFFFFFFFFFFFFFFFFFFFFF MUL NOT AND SWAP1 DUP4 PUSH20 0xFFFFFFFFFFFFFFFFFFFFFFFFFFFFFFFFFFFFFFFF AND MUL OR SWAP1 SSTORE POP PUSH1 0x1 PUSH1 0x5 PUSH1 0x0 CALLER PUSH20 0xFFFFFFFFFFFFFFFFFFFFFFFFFFFFFFFFFFFFFFFF AND PUSH20 0xFFFFFFFFFFFFFFFFFFFFFFFFFFFFFFFFFFFFFFFF AND DUP2 MSTORE PUSH1 0x20 ADD SWAP1 DUP2 MSTORE PUSH1 0x20 ADD PUSH1 0x0 KECCAK256 PUSH1 0x0 PUSH2 0x100 EXP DUP2 SLOAD DUP2 PUSH1 0xFF MUL NOT AND SWAP1 DUP4 ISZERO ISZERO MUL OR SWAP1 SSTORE POP PUSH1 0x0 PUSH20 0xFFFFFFFFFFFFFFFFFFFFFFFFFFFFFFFFFFFFFFFF AND DUP2 PUSH20 0xFFFFFFFFFFFFFFFFFFFFFFFFFFFFFFFFFFFFFFFF AND SUB PUSH3 0x162 JUMPI PUSH1 0x40 MLOAD PUSH32 0x8C379A000000000000000000000000000000000000000000000000000000000 DUP2 MSTORE PUSH1 0x4 ADD PUSH3 0x159 SWAP1 PUSH3 0x3E6 JUMP JUMPDEST PUSH1 0x40 MLOAD DUP1 SWAP2 SUB SWAP1 REVERT JUMPDEST DUP1 PUSH1 0xC PUSH1 0x0 PUSH2 0x100 EXP DUP2 SLOAD DUP2 PUSH20 0xFFFFFFFFFFFFFFFFFFFFFFFFFFFFFFFFFFFFFFFF MUL NOT AND SWAP1 DUP4 PUSH20 0xFFFFFFFFFFFFFFFFFFFFFFFFFFFFFFFFFFFFFFFF AND MUL OR SWAP1 SSTORE POP DUP1 PUSH1 0x8 PUSH1 0x0 PUSH2 0x100 EXP DUP2 SLOAD DUP2 PUSH20 0xFFFFFFFFFFFFFFFFFFFFFFFFFFFFFFFFFFFFFFFF MUL NOT AND SWAP1 DUP4 PUSH20 0xFFFFFFFFFFFFFFFFFFFFFFFFFFFFFFFFFFFFFFFF AND MUL OR SWAP1 SSTORE POP PUSH9 0x1B1AE4D6E2EF500000 PUSH1 0x9 DUP2 SWAP1 SSTORE POP PUSH9 0x3635C9ADC5DEA00000 PUSH1 0xA DUP2 SWAP1 SSTORE POP PUSH9 0x5150AE84A8CDF00000 PUSH1 0xB DUP2 SWAP1 SSTORE POP POP PUSH3 0x408 JUMP JUMPDEST PUSH1 0x0 CALLER SWAP1 POP SWAP1 JUMP JUMPDEST PUSH1 0x0 PUSH1 0x4 PUSH1 0x0 SWAP1 SLOAD SWAP1 PUSH2 0x100 EXP SWAP1 DIV PUSH20 0xFFFFFFFFFFFFFFFFFFFFFFFFFFFFFFFFFFFFFFFF AND SWAP1 POP DUP2 PUSH1 0x4 PUSH1 0x0 PUSH2 0x100 EXP DUP2 SLOAD DUP2 PUSH20 0xFFFFFFFFFFFFFFFFFFFFFFFFFFFFFFFFFFFFFFFF MUL NOT AND SWAP1 DUP4 PUSH20 0xFFFFFFFFFFFFFFFFFFFFFFFFFFFFFFFFFFFFFFFF AND MUL OR SWAP1 SSTORE POP DUP2 PUSH20 0xFFFFFFFFFFFFFFFFFFFFFFFFFFFFFFFFFFFFFFFF AND DUP2 PUSH20 0xFFFFFFFFFFFFFFFFFFFFFFFFFFFFFFFFFFFFFFFF AND PUSH32 0x8BE0079C531659141344CD1FD0A4F28419497F9722A3DAAFE3B4186F6B6457E0 PUSH1 0x40 MLOAD PUSH1 0x40 MLOAD DUP1 SWAP2 SUB SWAP1 LOG3 POP POP JUMP JUMPDEST PUSH1 0x0 DUP1 REVERT JUMPDEST PUSH1 0x0 PUSH20 0xFFFFFFFFFFFFFFFFFFFFFFFFFFFFFFFFFFFFFFFF DUP3 AND SWAP1 POP SWAP2 SWAP1 POP JUMP JUMPDEST PUSH1 0x0 PUSH3 0x31B DUP3 PUSH3 0x2EE JUMP JUMPDEST SWAP1 POP SWAP2 SWAP1 POP JUMP JUMPDEST PUSH3 0x32D DUP2 PUSH3 0x30E JUMP JUMPDEST DUP2 EQ PUSH3 0x339 JUMPI PUSH1 0x0 DUP1 REVERT JUMPDEST POP JUMP JUMPDEST PUSH1 0x0 DUP2 MLOAD SWAP1 POP PUSH3 0x34D DUP2 PUSH3 0x322 JUMP JUMPDEST SWAP3 SWAP2 POP POP JUMP JUMPDEST PUSH1 0x0 PUSH1 0x20 DUP3 DUP5 SUB SLT ISZERO PUSH3 0x36C JUMPI PUSH3 0x36B PUSH3 0x2E9 JUMP JUMPDEST JUMPDEST PUSH1 0x0 PUSH3 0x37C DUP5 DUP3 DUP6 ADD PUSH3 0x33C JUMP JUMPDEST SWAP2 POP POP SWAP3 SWAP2 POP POP JUMP JUMPDEST PUSH1 0x0 DUP3 DUP3 MSTORE PUSH1 0x20 DUP3 ADD SWAP1 POP SWAP3 SWAP2 POP POP JUMP JUMPDEST PUSH32 0x496E76616C696420636F6E747261637420616464726573730000000000000000 PUSH1 0x0 DUP3 ADD MSTORE POP JUMP JUMPDEST PUSH1 0x0 PUSH3 0x3CE PUSH1 0x18 DUP4 PUSH3 0x385 JUMP JUMPDEST SWAP2 POP PUSH3 0x3DB DUP3 PUSH3 0x396 JUMP JUMPDEST PUSH1 0x20 DUP3 ADD SWAP1 POP SWAP2 SWAP1 POP JUMP JUMPDEST PUSH1 0x0 PUSH1 0x20 DUP3 ADD SWAP1 POP DUP2 DUP2 SUB PUSH1 0x0 DUP4 ADD MSTORE PUSH3 0x401 DUP2 PUSH3 0x3BF JUMP JUMPDEST SWAP1 POP SWAP2 SWAP1 POP JUMP JUMPDEST PUSH2 0x2278 DUP1 PUSH3 0x418 PUSH1 0x0 CODECOPY PUSH1 0x0 RETURN INVALID PUSH1 0x80 PUSH1 0x40 MSTORE CALLVALUE DUP1 ISZERO PUSH2 0x10 JUMPI PUSH1 0x0 DUP1 REVERT JUMPDEST POP PUSH1 0x4 CALLDATASIZE LT PUSH2 0x12C JUMPI PUSH1 0x0 CALLDATALOAD PUSH1 0xE0 SHR DUP1 PUSH4 0xAA6A0DAC GT PUSH2 0xAD JUMPI DUP1 PUSH4 0xCE1D82F5 GT PUSH2 0x71 JUMPI DUP1 PUSH4 0xCE1D82F5 EQ PUSH2 0x2E8 JUMPI DUP1 PUSH4 0xD30BDAC9 EQ PUSH2 0x306 JUMPI DUP1 PUSH4 0xD56D229D EQ PUSH2 0x338 JUMPI DUP1 PUSH4 0xDB69A32D EQ PUSH2 0x356 JUMPI DUP1 PUSH4 0xF2FDE38B EQ PUSH2 0x374 JUMPI PUSH2 0x12C JUMP JUMPDEST DUP1 PUSH4 0xAA6A0DAC EQ PUSH2 0x268 JUMPI DUP1 PUSH4 0xAC4867F0 EQ PUSH2 0x286 JUMPI DUP1 PUSH4 0xAED59B8A EQ PUSH2 0x2A4 JUMPI DUP1 PUSH4 0xAF1B3D5E EQ PUSH2 0x2AE JUMPI DUP1 PUSH4 0xC04772D5 EQ PUSH2 0x2CC JUMPI PUSH2 0x12C JUMP JUMPDEST DUP1 PUSH4 0x6E722920 GT PUSH2 0xF4 JUMPI DUP1 PUSH4 0x6E722920 EQ PUSH2 0x1EC JUMPI DUP1 PUSH4 0x715018A6 EQ PUSH2 0x208 JUMPI DUP1 PUSH4 0x8DA5CB5B EQ PUSH2 0x212 JUMPI DUP1 PUSH4 0x92BF77DD EQ PUSH2 0x230 JUMPI DUP1 PUSH4 0xA15C15AF EQ PUSH2 0x24C JUMPI PUSH2 0x12C JUMP JUMPDEST DUP1 PUSH4 0x15B81DC3 EQ PUSH2 0x131 JUMPI DUP1 PUSH4 0x1F7775AD EQ PUSH2 0x14F JUMPI DUP1 PUSH4 0x2B4C32BE EQ PUSH2 0x180 JUMPI DUP1 PUSH4 0x58DD8603 EQ PUSH2 0x19E JUMPI DUP1 PUSH4 0x6D4D0C57 EQ PUSH2 0x1D0 JUMPI JUMPDEST PUSH1 0x0 DUP1 REVERT JUMPDEST PUSH2 0x139 PUSH2 0x390 JUMP JUMPDEST PUSH1 0x40 MLOAD PUSH2 0x146 SWAP2 SWAP1 PUSH2 0x176D JUMP JUMPDEST PUSH1 0x40 MLOAD DUP1 SWAP2 SUB SWAP1 RETURN JUMPDEST PUSH2 0x169 PUSH1 0x4 DUP1 CALLDATASIZE SUB DUP2 ADD SWAP1 PUSH2 0x164 SWAP2 SWAP1 PUSH2 0x17D2 JUMP JUMPDEST PUSH2 0x3B4 JUMP JUMPDEST PUSH1 0x40 MLOAD PUSH2 0x177 SWAP3 SWAP2 SWAP1 PUSH2 0x1897 JUMP JUMPDEST PUSH1 0x40 MLOAD DUP1 SWAP2 SUB SWAP1 RETURN JUMPDEST PUSH2 0x188 PUSH2 0x405 JUMP JUMPDEST PUSH1 0x40 MLOAD PUSH2 0x195 SWAP2 SWAP1 PUSH2 0x18FB JUMP JUMPDEST PUSH1 0x40 MLOAD DUP1 SWAP2 SUB SWAP1 RETURN JUMPDEST PUSH2 0x1B8 PUSH1 0x4 DUP1 CALLDATASIZE SUB DUP2 ADD SWAP1 PUSH2 0x1B3 SWAP2 SWAP1 PUSH2 0x17D2 JUMP JUMPDEST PUSH2 0x410 JUMP JUMPDEST PUSH1 0x40 MLOAD PUSH2 0x1C7 SWAP4 SWAP3 SWAP2 SWAP1 PUSH2 0x1925 JUMP JUMPDEST PUSH1 0x40 MLOAD DUP1 SWAP2 SUB SWAP1 RETURN JUMPDEST PUSH2 0x1EA PUSH1 0x4 DUP1 CALLDATASIZE SUB DUP2 ADD SWAP1 PUSH2 0x1E5 SWAP2 SWAP1 PUSH2 0x1988 JUMP JUMPDEST PUSH2 0x467 JUMP JUMPDEST STOP JUMPDEST PUSH2 0x206 PUSH1 0x4 DUP1 CALLDATASIZE SUB DUP2 ADD SWAP1 PUSH2 0x201 SWAP2 SWAP1 PUSH2 0x1988 JUMP JUMPDEST PUSH2 0x53B JUMP JUMPDEST STOP JUMPDEST PUSH2 0x210 PUSH2 0x626 JUMP JUMPDEST STOP JUMPDEST PUSH2 0x21A PUSH2 0x6AE JUMP JUMPDEST PUSH1 0x40 MLOAD PUSH2 0x227 SWAP2 SWAP1 PUSH2 0x19B5 JUMP JUMPDEST PUSH1 0x40 MLOAD DUP1 SWAP2 SUB SWAP1 RETURN JUMPDEST PUSH2 0x24A PUSH1 0x4 DUP1 CALLDATASIZE SUB DUP2 ADD SWAP1 PUSH2 0x245 SWAP2 SWAP1 PUSH2 0x1988 JUMP JUMPDEST PUSH2 0x6D8 JUMP JUMPDEST STOP JUMPDEST PUSH2 0x266 PUSH1 0x4 DUP1 CALLDATASIZE SUB DUP2 ADD SWAP1 PUSH2 0x261 SWAP2 SWAP1 PUSH2 0x1988 JUMP JUMPDEST PUSH2 0x797 JUMP JUMPDEST STOP JUMPDEST PUSH2 0x270 PUSH2 0x882 JUMP JUMPDEST PUSH1 0x40 MLOAD PUSH2 0x27D SWAP2 SWAP1 PUSH2 0x19D0 JUMP JUMPDEST PUSH1 0x40 MLOAD DUP1 SWAP2 SUB SWAP1 RETURN JUMPDEST PUSH2 0x28E PUSH2 0x888 JUMP JUMPDEST PUSH1 0x40 MLOAD PUSH2 0x29B SWAP2 SWAP1 PUSH2 0x19D0 JUMP JUMPDEST PUSH1 0x40 MLOAD DUP1 SWAP2 SUB SWAP1 RETURN JUMPDEST PUSH2 0x2AC PUSH2 0x88E JUMP JUMPDEST STOP JUMPDEST PUSH2 0x2B6 PUSH2 0xA63 JUMP JUMPDEST PUSH1 0x40 MLOAD PUSH2 0x2C3 SWAP2 SWAP1 PUSH2 0x19D0 JUMP JUMPDEST PUSH1 0x40 MLOAD DUP1 SWAP2 SUB SWAP1 RETURN JUMPDEST PUSH2 0x2E6 PUSH1 0x4 DUP1 CALLDATASIZE SUB DUP2 ADD SWAP1 PUSH2 0x2E1 SWAP2 SWAP1 PUSH2 0x1B31 JUMP JUMPDEST PUSH2 0xA69 JUMP JUMPDEST STOP JUMPDEST PUSH2 0x2F0 PUSH2 0x13F4 JUMP JUMPDEST PUSH1 0x40 MLOAD PUSH2 0x2FD SWAP2 SWAP1 PUSH2 0x19B5 JUMP JUMPDEST PUSH1 0x40 MLOAD DUP1 SWAP2 SUB SWAP1 RETURN JUMPDEST PUSH2 0x320 PUSH1 0x4 DUP1 CALLDATASIZE SUB DUP2 ADD SWAP1 PUSH2 0x31B SWAP2 SWAP1 PUSH2 0x17D2 JUMP JUMPDEST PUSH2 0x141A JUMP JUMPDEST PUSH1 0x40 MLOAD PUSH2 0x32F SWAP4 SWAP3 SWAP2 SWAP1 PUSH2 0x1C36 JUMP JUMPDEST PUSH1 0x40 MLOAD DUP1 SWAP2 SUB SWAP1 RETURN JUMPDEST PUSH2 0x340 PUSH2 0x14D9 JUMP JUMPDEST PUSH1 0x40 MLOAD PUSH2 0x34D SWAP2 SWAP1 PUSH2 0x19B5 JUMP JUMPDEST PUSH1 0x40 MLOAD DUP1 SWAP2 SUB SWAP1 RETURN JUMPDEST PUSH2 0x35E PUSH2 0x14FF JUMP JUMPDEST PUSH1 0x40 MLOAD PUSH2 0x36B SWAP2 SWAP1 PUSH2 0x19B5 JUMP JUMPDEST PUSH1 0x40 MLOAD DUP1 SWAP2 SUB SWAP1 RETURN JUMPDEST PUSH2 0x38E PUSH1 0x4 DUP1 CALLDATASIZE SUB DUP2 ADD SWAP1 PUSH2 0x389 SWAP2 SWAP1 PUSH2 0x1988 JUMP JUMPDEST PUSH2 0x1529 JUMP JUMPDEST STOP JUMPDEST PUSH1 0x0 DUP1 SLOAD SWAP1 PUSH2 0x100 EXP SWAP1 DIV PUSH20 0xFFFFFFFFFFFFFFFFFFFFFFFFFFFFFFFFFFFFFFFF AND DUP2 JUMP JUMPDEST PUSH1 0x3 PUSH1 0x20 MSTORE DUP1 PUSH1 0x0 MSTORE PUSH1 0x40 PUSH1 0x0 KECCAK256 PUSH1 0x0 SWAP2 POP SWAP1 POP DUP1 PUSH1 0x0 ADD PUSH1 0x0 SWAP1 SLOAD SWAP1 PUSH2 0x100 EXP SWAP1 DIV PUSH20 0xFFFFFFFFFFFFFFFFFFFFFFFFFFFFFFFFFFFFFFFF AND SWAP1 DUP1 PUSH1 0x0 ADD PUSH1 0x14 SWAP1 SLOAD SWAP1 PUSH2 0x100 EXP SWAP1 DIV PUSH1 0xFF AND SWAP1 POP DUP3 JUMP JUMPDEST PUSH4 0x80AC58CD PUSH1 0xE0 SHL DUP2 JUMP JUMPDEST PUSH1 0x1 PUSH1 0x20 MSTORE DUP1 PUSH1 0x0 MSTORE PUSH1 0x40 PUSH1 0x0 KECCAK256 PUSH1 0x0 SWAP2 POP SWAP1 POP DUP1 PUSH1 0x0 ADD SLOAD SWAP1 DUP1 PUSH1 0x1 ADD PUSH1 0x0 SWAP1 SLOAD SWAP1 PUSH2 0x100 EXP SWAP1 DIV PUSH20 0xFFFFFFFFFFFFFFFFFFFFFFFFFFFFFFFFFFFFFFFF AND SWAP1 DUP1 PUSH1 0x1 ADD PUSH1 0x14 SWAP1 SLOAD SWAP1 PUSH2 0x100 EXP SWAP1 DIV PUSH1 0xFF AND SWAP1 POP DUP4 JUMP JUMPDEST PUSH1 0x6 PUSH1 0x0 SWAP1 SLOAD SWAP1 PUSH2 0x100 EXP SWAP1 DIV PUSH20 0xFFFFFFFFFFFFFFFFFFFFFFFFFFFFFFFFFFFFFFFF AND PUSH20 0xFFFFFFFFFFFFFFFFFFFFFFFFFFFFFFFFFFFFFFFF AND CALLER PUSH20 0xFFFFFFFFFFFFFFFFFFFFFFFFFFFFFFFFFFFFFFFF AND EQ PUSH2 0x4F7 JUMPI PUSH1 0x40 MLOAD PUSH32 0x8C379A000000000000000000000000000000000000000000000000000000000 DUP2 MSTORE PUSH1 0x4 ADD PUSH2 0x4EE SWAP1 PUSH2 0x1CC0 JUMP JUMPDEST PUSH1 0x40 MLOAD DUP1 SWAP2 SUB SWAP1 REVERT JUMPDEST DUP1 PUSH1 0x7 PUSH1 0x0 PUSH2 0x100 EXP DUP2 SLOAD DUP2 PUSH20 0xFFFFFFFFFFFFFFFFFFFFFFFFFFFFFFFFFFFFFFFF MUL NOT AND SWAP1 DUP4 PUSH20 0xFFFFFFFFFFFFFFFFFFFFFFFFFFFFFFFFFFFFFFFF AND MUL OR SWAP1 SSTORE POP POP JUMP JUMPDEST PUSH1 0x6 PUSH1 0x0 SWAP1 SLOAD SWAP1 PUSH2 0x100 EXP SWAP1 DIV PUSH20 0xFFFFFFFFFFFFFFFFFFFFFFFFFFFFFFFFFFFFFFFF AND PUSH20 0xFFFFFFFFFFFFFFFFFFFFFFFFFFFFFFFFFFFFFFFF AND CALLER PUSH20 0xFFFFFFFFFFFFFFFFFFFFFFFFFFFFFFFFFFFFFFFF AND EQ PUSH2 0x5CB JUMPI PUSH1 0x40 MLOAD PUSH32 0x8C379A000000000000000000000000000000000000000000000000000000000 DUP2 MSTORE PUSH1 0x4 ADD PUSH2 0x5C2 SWAP1 PUSH2 0x1CC0 JUMP JUMPDEST PUSH1 0x40 MLOAD DUP1 SWAP2 SUB SWAP1 REVERT JUMPDEST PUSH1 0x0 PUSH1 0x5 PUSH1 0x0 DUP4 PUSH20 0xFFFFFFFFFFFFFFFFFFFFFFFFFFFFFFFFFFFFFFFF AND PUSH20 0xFFFFFFFFFFFFFFFFFFFFFFFFFFFFFFFFFFFFFFFF AND DUP2 MSTORE PUSH1 0x20 ADD SWAP1 DUP2 MSTORE PUSH1 0x20 ADD PUSH1 0x0 KECCAK256 PUSH1 0x0 PUSH2 0x100 EXP DUP2 SLOAD DUP2 PUSH1 0xFF MUL NOT AND SWAP1 DUP4 ISZERO ISZERO MUL OR SWAP1 SSTORE POP POP JUMP JUMPDEST PUSH2 0x62E PUSH2 0x1620 JUMP JUMPDEST PUSH20 0xFFFFFFFFFFFFFFFFFFFFFFFFFFFFFFFFFFFFFFFF AND PUSH2 0x64C PUSH2 0x6AE JUMP JUMPDEST PUSH20 0xFFFFFFFFFFFFFFFFFFFFFFFFFFFFFFFFFFFFFFFF AND EQ PUSH2 0x6A2 JUMPI PUSH1 0x40 MLOAD PUSH32 0x8C379A000000000000000000000000000000000000000000000000000000000 DUP2 MSTORE PUSH1 0x4 ADD PUSH2 0x699 SWAP1 PUSH2 0x1D2C JUMP JUMPDEST PUSH1 0x40 MLOAD DUP1 SWAP2 SUB SWAP1 REVERT JUMPDEST PUSH2 0x6AC PUSH1 0x0 PUSH2 0x1628 JUMP JUMPDEST JUMP JUMPDEST PUSH1 0x0 PUSH1 0x4 PUSH1 0x0 SWAP1 SLOAD SWAP1 PUSH2 0x100 EXP SWAP1 DIV PUSH20 0xFFFFFFFFFFFFFFFFFFFFFFFFFFFFFFFFFFFFFFFF AND SWAP1 POP SWAP1 JUMP JUMPDEST PUSH2 0x6E0 PUSH2 0x1620 JUMP JUMPDEST PUSH20 0xFFFFFFFFFFFFFFFFFFFFFFFFFFFFFFFFFFFFFFFF AND PUSH2 0x6FE PUSH2 0x6AE JUMP JUMPDEST PUSH20 0xFFFFFFFFFFFFFFFFFFFFFFFFFFFFFFFFFFFFFFFF AND EQ PUSH2 0x754 JUMPI PUSH1 0x40 MLOAD PUSH32 0x8C379A000000000000000000000000000000000000000000000000000000000 DUP2 MSTORE PUSH1 0x4 ADD PUSH2 0x74B SWAP1 PUSH2 0x1D2C JUMP JUMPDEST PUSH1 0x40 MLOAD DUP1 SWAP2 SUB SWAP1 REVERT JUMPDEST DUP1 PUSH1 0x0 DUP1 PUSH2 0x100 EXP DUP2 SLOAD DUP2 PUSH20 0xFFFFFFFFFFFFFFFFFFFFFFFFFFFFFFFFFFFFFFFF MUL NOT AND SWAP1 DUP4 PUSH20 0xFFFFFFFFFFFFFFFFFFFFFFFFFFFFFFFFFFFFFFFF AND MUL OR SWAP1 SSTORE POP POP JUMP JUMPDEST PUSH1 0x6 PUSH1 0x0 SWAP1 SLOAD SWAP1 PUSH2 0x100 EXP SWAP1 DIV PUSH20 0xFFFFFFFFFFFFFFFFFFFFFFFFFFFFFFFFFFFFFFFF AND PUSH20 0xFFFFFFFFFFFFFFFFFFFFFFFFFFFFFFFFFFFFFFFF AND CALLER PUSH20 0xFFFFFFFFFFFFFFFFFFFFFFFFFFFFFFFFFFFFFFFF AND EQ PUSH2 0x827 JUMPI PUSH1 0x40 MLOAD PUSH32 0x8C379A000000000000000000000000000000000000000000000000000000000 DUP2 MSTORE PUSH1 0x4 ADD PUSH2 0x81E SWAP1 PUSH2 0x1CC0 JUMP JUMPDEST PUSH1 0x40 MLOAD DUP1 SWAP2 SUB SWAP1 REVERT JUMPDEST PUSH1 0x1 PUSH1 0x5 PUSH1 0x0 DUP4 PUSH20 0xFFFFFFFFFFFFFFFFFFFFFFFFFFFFFFFFFFFFFFFF AND PUSH20 0xFFFFFFFFFFFFFFFFFFFFFFFFFFFFFFFFFFFFFFFF AND DUP2 MSTORE PUSH1 0x20 ADD SWAP1 DUP2 MSTORE PUSH1 0x20 ADD PUSH1 0x0 KECCAK256 PUSH1 0x0 PUSH2 0x100 EXP DUP2 SLOAD DUP2 PUSH1 0xFF MUL NOT AND SWAP1 DUP4 ISZERO ISZERO MUL OR SWAP1 SSTORE POP POP JUMP JUMPDEST PUSH1 0xB SLOAD DUP2 JUMP JUMPDEST PUSH1 0x9 SLOAD DUP2 JUMP JUMPDEST PUSH1 0x7 PUSH1 0x0 SWAP1 SLOAD SWAP1 PUSH2 0x100 EXP SWAP1 DIV PUSH20 0xFFFFFFFFFFFFFFFFFFFFFFFFFFFFFFFFFFFFFFFF AND PUSH20 0xFFFFFFFFFFFFFFFFFFFFFFFFFFFFFFFFFFFFFFFF AND CALLER PUSH20 0xFFFFFFFFFFFFFFFFFFFFFFFFFFFFFFFFFFFFFFFF AND EQ PUSH2 0x91E JUMPI PUSH1 0x40 MLOAD PUSH32 0x8C379A000000000000000000000000000000000000000000000000000000000 DUP2 MSTORE PUSH1 0x4 ADD PUSH2 0x915 SWAP1 PUSH2 0x1DBE JUMP JUMPDEST PUSH1 0x40 MLOAD DUP1 SWAP2 SUB SWAP1 REVERT JUMPDEST PUSH1 0x7 PUSH1 0x0 SWAP1 SLOAD SWAP1 PUSH2 0x100 EXP SWAP1 DIV PUSH20 0xFFFFFFFFFFFFFFFFFFFFFFFFFFFFFFFFFFFFFFFF AND PUSH20 0xFFFFFFFFFFFFFFFFFFFFFFFFFFFFFFFFFFFFFFFF AND PUSH1 0x6 PUSH1 0x0 SWAP1 SLOAD SWAP1 PUSH2 0x100 EXP SWAP1 DIV PUSH20 0xFFFFFFFFFFFFFFFFFFFFFFFFFFFFFFFFFFFFFFFF AND PUSH20 0xFFFFFFFFFFFFFFFFFFFFFFFFFFFFFFFFFFFFFFFF AND PUSH32 0x2AD39E5173F89BDD5497202BD74024B5DA045106C3163DDB078D2E89FF6D6DE PUSH1 0x40 MLOAD PUSH1 0x40 MLOAD DUP1 SWAP2 SUB SWAP1 LOG3 PUSH1 0x7 PUSH1 0x0 SWAP1 SLOAD SWAP1 PUSH2 0x100 EXP SWAP1 DIV PUSH20 0xFFFFFFFFFFFFFFFFFFFFFFFFFFFFFFFFFFFFFFFF AND PUSH1 0x6 PUSH1 0x0 PUSH2 0x100 EXP DUP2 SLOAD DUP2 PUSH20 0xFFFFFFFFFFFFFFFFFFFFFFFFFFFFFFFFFFFFFFFF MUL NOT AND SWAP1 DUP4 PUSH20 0xFFFFFFFFFFFFFFFFFFFFFFFFFFFFFFFFFFFFFFFF AND MUL OR SWAP1 SSTORE POP PUSH1 0x0 PUSH1 0x7 PUSH1 0x0 PUSH2 0x100 EXP DUP2 SLOAD DUP2 PUSH20 0xFFFFFFFFFFFFFFFFFFFFFFFFFFFFFFFFFFFFFFFF MUL NOT AND SWAP1 DUP4 PUSH20 0xFFFFFFFFFFFFFFFFFFFFFFFFFFFFFFFFFFFFFFFF AND MUL OR SWAP1 SSTORE POP JUMP JUMPDEST PUSH1 0xA SLOAD DUP2 JUMP JUMPDEST PUSH1 0x1 ISZERO ISZERO PUSH1 0x5 PUSH1 0x0 CALLER PUSH20 0xFFFFFFFFFFFFFFFFFFFFFFFFFFFFFFFFFFFFFFFF AND PUSH20 0xFFFFFFFFFFFFFFFFFFFFFFFFFFFFFFFFFFFFFFFF AND DUP2 MSTORE PUSH1 0x20 ADD SWAP1 DUP2 MSTORE PUSH1 0x20 ADD PUSH1 0x0 KECCAK256 PUSH1 0x0 SWAP1 SLOAD SWAP1 PUSH2 0x100 EXP SWAP1 DIV PUSH1 0xFF AND ISZERO ISZERO EQ PUSH2 0xAFC JUMPI PUSH1 0x40 MLOAD PUSH32 0x8C379A000000000000000000000000000000000000000000000000000000000 DUP2 MSTORE PUSH1 0x4 ADD PUSH2 0xAF3 SWAP1 PUSH2 0x1E2A JUMP JUMPDEST PUSH1 0x40 MLOAD DUP1 SWAP2 SUB SWAP1 REVERT JUMPDEST PUSH1 0x0 PUSH1 0x40 MLOAD PUSH1 0x20 ADD PUSH2 0xB0D SWAP1 PUSH2 0x1EA1 JUMP JUMPDEST PUSH1 0x40 MLOAD PUSH1 0x20 DUP2 DUP4 SUB SUB DUP2 MSTORE SWAP1 PUSH1 0x40 MSTORE DUP1 MLOAD SWAP1 PUSH1 0x20 ADD KECCAK256 DUP3 PUSH1 0x40 MLOAD PUSH1 0x20 ADD PUSH2 0xB34 SWAP2 SWAP1 PUSH2 0x1EE7 JUMP JUMPDEST PUSH1 0x40 MLOAD PUSH1 0x20 DUP2 DUP4 SUB SUB DUP2 MSTORE SWAP1 PUSH1 0x40 MSTORE DUP1 MLOAD SWAP1 PUSH1 0x20 ADD KECCAK256 EQ DUP1 PUSH2 0xB9F JUMPI POP PUSH1 0x40 MLOAD PUSH1 0x20 ADD PUSH2 0xB60 SWAP1 PUSH2 0x1F4A JUMP JUMPDEST PUSH1 0x40 MLOAD PUSH1 0x20 DUP2 DUP4 SUB SUB DUP2 MSTORE SWAP1 PUSH1 0x40 MSTORE DUP1 MLOAD SWAP1 PUSH1 0x20 ADD KECCAK256 DUP3 PUSH1 0x40 MLOAD PUSH1 0x20 ADD PUSH2 0xB87 SWAP2 SWAP1 PUSH2 0x1EE7 JUMP JUMPDEST PUSH1 0x40 MLOAD PUSH1 0x20 DUP2 DUP4 SUB SUB DUP2 MSTORE SWAP1 PUSH1 0x40 MSTORE DUP1 MLOAD SWAP1 PUSH1 0x20 ADD KECCAK256 EQ JUMPDEST DUP1 PUSH2 0xBF3 JUMPI POP PUSH1 0x40 MLOAD PUSH1 0x20 ADD PUSH2 0xBB4 SWAP1 PUSH2 0x1FAB JUMP JUMPDEST PUSH1 0x40 MLOAD PUSH1 0x20 DUP2 DUP4 SUB SUB DUP2 MSTORE SWAP1 PUSH1 0x40 MSTORE DUP1 MLOAD SWAP1 PUSH1 0x20 ADD KECCAK256 DUP3 PUSH1 0x40 MLOAD PUSH1 0x20 ADD PUSH2 0xBDB SWAP2 SWAP1 PUSH2 0x1EE7 JUMP JUMPDEST PUSH1 0x40 MLOAD PUSH1 0x20 DUP2 DUP4 SUB SUB DUP2 MSTORE SWAP1 PUSH1 0x40 MSTORE DUP1 MLOAD SWAP1 PUSH1 0x20 ADD KECCAK256 EQ JUMPDEST PUSH2 0xC32 JUMPI PUSH1 0x40 MLOAD PUSH32 0x8C379A000000000000000000000000000000000000000000000000000000000 DUP2 MSTORE PUSH1 0x4 ADD PUSH2 0xC29 SWAP1 PUSH2 0x200C JUMP JUMPDEST PUSH1 0x40 MLOAD DUP1 SWAP2 SUB SWAP1 REVERT JUMPDEST PUSH1 0x40 MLOAD PUSH1 0x20 ADD PUSH2 0xC41 SWAP1 PUSH2 0x1EA1 JUMP JUMPDEST PUSH1 0x40 MLOAD PUSH1 0x20 DUP2 DUP4 SUB SUB DUP2 MSTORE SWAP1 PUSH1 0x40 MSTORE DUP1 MLOAD SWAP1 PUSH1 0x20 ADD KECCAK256 DUP3 PUSH1 0x40 MLOAD PUSH1 0x20 ADD PUSH2 0xC68 SWAP2 SWAP1 PUSH2 0x1EE7 JUMP JUMPDEST PUSH1 0x40 MLOAD PUSH1 0x20 DUP2 DUP4 SUB SUB DUP2 MSTORE SWAP1 PUSH1 0x40 MSTORE DUP1 MLOAD SWAP1 PUSH1 0x20 ADD KECCAK256 SUB PUSH2 0xEAD JUMPI PUSH1 0x0 DUP1 SLOAD SWAP1 PUSH2 0x100 EXP SWAP1 DIV PUSH20 0xFFFFFFFFFFFFFFFFFFFFFFFFFFFFFFFFFFFFFFFF AND PUSH20 0xFFFFFFFFFFFFFFFFFFFFFFFFFFFFFFFFFFFFFFFF AND PUSH4 0x23B872DD CALLER PUSH2 0xCC8 PUSH2 0x6AE JUMP JUMPDEST PUSH1 0x9 SLOAD PUSH1 0x40 MLOAD DUP5 PUSH4 0xFFFFFFFF AND PUSH1 0xE0 SHL DUP2 MSTORE PUSH1 0x4 ADD PUSH2 0xCE9 SWAP4 SWAP3 SWAP2 SWAP1 PUSH2 0x202C JUMP JUMPDEST PUSH1 0x20 PUSH1 0x40 MLOAD DUP1 DUP4 SUB DUP2 PUSH1 0x0 DUP8 GAS CALL ISZERO DUP1 ISZERO PUSH2 0xD08 JUMPI RETURNDATASIZE PUSH1 0x0 DUP1 RETURNDATACOPY RETURNDATASIZE PUSH1 0x0 REVERT JUMPDEST POP POP POP POP PUSH1 0x40 MLOAD RETURNDATASIZE PUSH1 0x1F NOT PUSH1 0x1F DUP3 ADD AND DUP3 ADD DUP1 PUSH1 0x40 MSTORE POP DUP2 ADD SWAP1 PUSH2 0xD2C SWAP2 SWAP1 PUSH2 0x208F JUMP JUMPDEST POP PUSH1 0xC PUSH1 0x0 SWAP1 SLOAD SWAP1 PUSH2 0x100 EXP SWAP1 DIV PUSH20 0xFFFFFFFFFFFFFFFFFFFFFFFFFFFFFFFFFFFFFFFF AND PUSH20 0xFFFFFFFFFFFFFFFFFFFFFFFFFFFFFFFFFFFFFFFF AND PUSH4 0x1F29E9FC DUP4 PUSH1 0x40 MLOAD DUP3 PUSH4 0xFFFFFFFF AND PUSH1 0xE0 SHL DUP2 MSTORE PUSH1 0x4 ADD PUSH2 0xD88 SWAP2 SWAP1 PUSH2 0x20BC JUMP JUMPDEST PUSH1 0x20 PUSH1 0x40 MLOAD DUP1 DUP4 SUB DUP2 PUSH1 0x0 DUP8 GAS CALL ISZERO DUP1 ISZERO PUSH2 0xDA7 JUMPI RETURNDATASIZE PUSH1 0x0 DUP1 RETURNDATACOPY RETURNDATASIZE PUSH1 0x0 REVERT JUMPDEST POP POP POP POP PUSH1 0x40 MLOAD RETURNDATASIZE PUSH1 0x1F NOT PUSH1 0x1F DUP3 ADD AND DUP3 ADD DUP1 PUSH1 0x40 MSTORE POP DUP2 ADD SWAP1 PUSH2 0xDCB SWAP2 SWAP1 PUSH2 0x20F3 JUMP JUMPDEST SWAP1 POP PUSH1 0x40 MLOAD DUP1 PUSH1 0x60 ADD PUSH1 0x40 MSTORE DUP1 DUP3 DUP2 MSTORE PUSH1 0x20 ADD CALLER PUSH20 0xFFFFFFFFFFFFFFFFFFFFFFFFFFFFFFFFFFFFFFFF AND DUP2 MSTORE PUSH1 0x20 ADD PUSH1 0x1 PUSH1 0x3 DUP2 GT ISZERO PUSH2 0xE0E JUMPI PUSH2 0xE0D PUSH2 0x1820 JUMP JUMPDEST JUMPDEST DUP2 MSTORE POP PUSH1 0x1 PUSH1 0x0 DUP4 DUP2 MSTORE PUSH1 0x20 ADD SWAP1 DUP2 MSTORE PUSH1 0x20 ADD PUSH1 0x0 KECCAK256 PUSH1 0x0 DUP3 ADD MLOAD DUP2 PUSH1 0x0 ADD SSTORE PUSH1 0x20 DUP3 ADD MLOAD DUP2 PUSH1 0x1 ADD PUSH1 0x0 PUSH2 0x100 EXP DUP2 SLOAD DUP2 PUSH20 0xFFFFFFFFFFFFFFFFFFFFFFFFFFFFFFFFFFFFFFFF MUL NOT AND SWAP1 DUP4 PUSH20 0xFFFFFFFFFFFFFFFFFFFFFFFFFFFFFFFFFFFFFFFF AND MUL OR SWAP1 SSTORE POP PUSH1 0x40 DUP3 ADD MLOAD DUP2 PUSH1 0x1 ADD PUSH1 0x14 PUSH2 0x100 EXP DUP2 SLOAD DUP2 PUSH1 0xFF MUL NOT AND SWAP1 DUP4 PUSH1 0x3 DUP2 GT ISZERO PUSH2 0xEA0 JUMPI PUSH2 0xE9F PUSH2 0x1820 JUMP JUMPDEST JUMPDEST MUL OR SWAP1 SSTORE POP SWAP1 POP POP PUSH2 0x13A0 JUMP JUMPDEST PUSH1 0x40 MLOAD PUSH1 0x20 ADD PUSH2 0xEBC SWAP1 PUSH2 0x1F4A JUMP JUMPDEST PUSH1 0x40 MLOAD PUSH1 0x20 DUP2 DUP4 SUB SUB DUP2 MSTORE SWAP1 PUSH1 0x40 MSTORE DUP1 MLOAD SWAP1 PUSH1 0x20 ADD KECCAK256 DUP3 PUSH1 0x40 MLOAD PUSH1 0x20 ADD PUSH2 0xEE3 SWAP2 SWAP1 PUSH2 0x1EE7 JUMP JUMPDEST PUSH1 0x40 MLOAD PUSH1 0x20 DUP2 DUP4 SUB SUB DUP2 MSTORE SWAP1 PUSH1 0x40 MSTORE DUP1 MLOAD SWAP1 PUSH1 0x20 ADD KECCAK256 SUB PUSH2 0x1128 JUMPI PUSH1 0x0 DUP1 SLOAD SWAP1 PUSH2 0x100 EXP SWAP1 DIV PUSH20 0xFFFFFFFFFFFFFFFFFFFFFFFFFFFFFFFFFFFFFFFF AND PUSH20 0xFFFFFFFFFFFFFFFFFFFFFFFFFFFFFFFFFFFFFFFF AND PUSH4 0x23B872DD CALLER PUSH2 0xF43 PUSH2 0x6AE JUMP JUMPDEST PUSH1 0xA SLOAD PUSH1 0x40 MLOAD DUP5 PUSH4 0xFFFFFFFF AND PUSH1 0xE0 SHL DUP2 MSTORE PUSH1 0x4 ADD PUSH2 0xF64 SWAP4 SWAP3 SWAP2 SWAP1 PUSH2 0x202C JUMP JUMPDEST PUSH1 0x20 PUSH1 0x40 MLOAD DUP1 DUP4 SUB DUP2 PUSH1 0x0 DUP8 GAS CALL ISZERO DUP1 ISZERO PUSH2 0xF83 JUMPI RETURNDATASIZE PUSH1 0x0 DUP1 RETURNDATACOPY RETURNDATASIZE PUSH1 0x0 REVERT JUMPDEST POP POP POP POP PUSH1 0x40 MLOAD RETURNDATASIZE PUSH1 0x1F NOT PUSH1 0x1F DUP3 ADD AND DUP3 ADD DUP1 PUSH1 0x40 MSTORE POP DUP2 ADD SWAP1 PUSH2 0xFA7 SWAP2 SWAP1 PUSH2 0x208F JUMP JUMPDEST POP PUSH1 0xC PUSH1 0x0 SWAP1 SLOAD SWAP1 PUSH2 0x100 EXP SWAP1 DIV PUSH20 0xFFFFFFFFFFFFFFFFFFFFFFFFFFFFFFFFFFFFFFFF AND PUSH20 0xFFFFFFFFFFFFFFFFFFFFFFFFFFFFFFFFFFFFFFFF AND PUSH4 0x1F29E9FC DUP4 PUSH1 0x40 MLOAD DUP3 PUSH4 0xFFFFFFFF AND PUSH1 0xE0 SHL DUP2 MSTORE PUSH1 0x4 ADD PUSH2 0x1003 SWAP2 SWAP1 PUSH2 0x20BC JUMP JUMPDEST PUSH1 0x20 PUSH1 0x40 MLOAD DUP1 DUP4 SUB DUP2 PUSH1 0x0 DUP8 GAS CALL ISZERO DUP1 ISZERO PUSH2 0x1022 JUMPI RETURNDATASIZE PUSH1 0x0 DUP1 RETURNDATACOPY RETURNDATASIZE PUSH1 0x0 REVERT JUMPDEST POP POP POP POP PUSH1 0x40 MLOAD RETURNDATASIZE PUSH1 0x1F NOT PUSH1 0x1F DUP3 ADD AND DUP3 ADD DUP1 PUSH1 0x40 MSTORE POP DUP2 ADD SWAP1 PUSH2 0x1046 SWAP2 SWAP1 PUSH2 0x20F3 JUMP JUMPDEST SWAP1 POP PUSH1 0x40 MLOAD DUP1 PUSH1 0x60 ADD PUSH1 0x40 MSTORE DUP1 DUP3 DUP2 MSTORE PUSH1 0x20 ADD CALLER PUSH20 0xFFFFFFFFFFFFFFFFFFFFFFFFFFFFFFFFFFFFFFFF AND DUP2 MSTORE PUSH1 0x20 ADD PUSH1 0x2 PUSH1 0x3 DUP2 GT ISZERO PUSH2 0x1089 JUMPI PUSH2 0x1088 PUSH2 0x1820 JUMP JUMPDEST JUMPDEST DUP2 MSTORE POP PUSH1 0x1 PUSH1 0x0 DUP4 DUP2 MSTORE PUSH1 0x20 ADD SWAP1 DUP2 MSTORE PUSH1 0x20 ADD PUSH1 0x0 KECCAK256 PUSH1 0x0 DUP3 ADD MLOAD DUP2 PUSH1 0x0 ADD SSTORE PUSH1 0x20 DUP3 ADD MLOAD DUP2 PUSH1 0x1 ADD PUSH1 0x0 PUSH2 0x100 EXP DUP2 SLOAD DUP2 PUSH20 0xFFFFFFFFFFFFFFFFFFFFFFFFFFFFFFFFFFFFFFFF MUL NOT AND SWAP1 DUP4 PUSH20 0xFFFFFFFFFFFFFFFFFFFFFFFFFFFFFFFFFFFFFFFF AND MUL OR SWAP1 SSTORE POP PUSH1 0x40 DUP3 ADD MLOAD DUP2 PUSH1 0x1 ADD PUSH1 0x14 PUSH2 0x100 EXP DUP2 SLOAD DUP2 PUSH1 0xFF MUL NOT AND SWAP1 DUP4 PUSH1 0x3 DUP2 GT ISZERO PUSH2 0x111B JUMPI PUSH2 0x111A PUSH2 0x1820 JUMP JUMPDEST JUMPDEST MUL OR SWAP1 SSTORE POP SWAP1 POP POP PUSH2 0x139F JUMP JUMPDEST PUSH1 0x40 MLOAD PUSH1 0x20 ADD PUSH2 0x1137 SWAP1 PUSH2 0x1FAB JUMP JUMPDEST PUSH1 0x40 MLOAD PUSH1 0x20 DUP2 DUP4 SUB SUB DUP2 MSTORE SWAP1 PUSH1 0x40 MSTORE DUP1 MLOAD SWAP1 PUSH1 0x20 ADD KECCAK256 DUP3 PUSH1 0x40 MLOAD PUSH1 0x20 ADD PUSH2 0x115E SWAP2 SWAP1 PUSH2 0x1EE7 JUMP JUMPDEST PUSH1 0x40 MLOAD PUSH1 0x20 DUP2 DUP4 SUB SUB DUP2 MSTORE SWAP1 PUSH1 0x40 MSTORE DUP1 MLOAD SWAP1 PUSH1 0x20 ADD KECCAK256 SUB PUSH2 0x139E JUMPI PUSH1 0x0 DUP1 SLOAD SWAP1 PUSH2 0x100 EXP SWAP1 DIV PUSH20 0xFFFFFFFFFFFFFFFFFFFFFFFFFFFFFFFFFFFFFFFF AND PUSH20 0xFFFFFFFFFFFFFFFFFFFFFFFFFFFFFFFFFFFFFFFF AND PUSH4 0x23B872DD CALLER PUSH2 0x11BE PUSH2 0x6AE JUMP JUMPDEST PUSH1 0xB SLOAD PUSH1 0x40 MLOAD DUP5 PUSH4 0xFFFFFFFF AND PUSH1 0xE0 SHL DUP2 MSTORE PUSH1 0x4 ADD PUSH2 0x11DF SWAP4 SWAP3 SWAP2 SWAP1 PUSH2 0x202C JUMP JUMPDEST PUSH1 0x20 PUSH1 0x40 MLOAD DUP1 DUP4 SUB DUP2 PUSH1 0x0 DUP8 GAS CALL ISZERO DUP1 ISZERO PUSH2 0x11FE JUMPI RETURNDATASIZE PUSH1 0x0 DUP1 RETURNDATACOPY RETURNDATASIZE PUSH1 0x0 REVERT JUMPDEST POP POP POP POP PUSH1 0x40 MLOAD RETURNDATASIZE PUSH1 0x1F NOT PUSH1 0x1F DUP3 ADD AND DUP3 ADD DUP1 PUSH1 0x40 MSTORE POP DUP2 ADD SWAP1 PUSH2 0x1222 SWAP2 SWAP1 PUSH2 0x208F JUMP JUMPDEST POP PUSH1 0xC PUSH1 0x0 SWAP1 SLOAD SWAP1 PUSH2 0x100 EXP SWAP1 DIV PUSH20 0xFFFFFFFFFFFFFFFFFFFFFFFFFFFFFFFFFFFFFFFF AND PUSH20 0xFFFFFFFFFFFFFFFFFFFFFFFFFFFFFFFFFFFFFFFF AND PUSH4 0x1F29E9FC DUP4 PUSH1 0x40 MLOAD DUP3 PUSH4 0xFFFFFFFF AND PUSH1 0xE0 SHL DUP2 MSTORE PUSH1 0x4 ADD PUSH2 0x127E SWAP2 SWAP1 PUSH2 0x20BC JUMP JUMPDEST PUSH1 0x20 PUSH1 0x40 MLOAD DUP1 DUP4 SUB DUP2 PUSH1 0x0 DUP8 GAS CALL ISZERO DUP1 ISZERO PUSH2 0x129D JUMPI RETURNDATASIZE PUSH1 0x0 DUP1 RETURNDATACOPY RETURNDATASIZE PUSH1 0x0 REVERT JUMPDEST POP POP POP POP PUSH1 0x40 MLOAD RETURNDATASIZE PUSH1 0x1F NOT PUSH1 0x1F DUP3 ADD AND DUP3 ADD DUP1 PUSH1 0x40 MSTORE POP DUP2 ADD SWAP1 PUSH2 0x12C1 SWAP2 SWAP1 PUSH2 0x20F3 JUMP JUMPDEST SWAP1 POP PUSH1 0x40 MLOAD DUP1 PUSH1 0x60 ADD PUSH1 0x40 MSTORE DUP1 DUP3 DUP2 MSTORE PUSH1 0x20 ADD CALLER PUSH20 0xFFFFFFFFFFFFFFFFFFFFFFFFFFFFFFFFFFFFFFFF AND DUP2 MSTORE PUSH1 0x20 ADD PUSH1 0x3 DUP1 DUP2 GT ISZERO PUSH2 0x1303 JUMPI PUSH2 0x1302 PUSH2 0x1820 JUMP JUMPDEST JUMPDEST DUP2 MSTORE POP PUSH1 0x1 PUSH1 0x0 DUP4 DUP2 MSTORE PUSH1 0x20 ADD SWAP1 DUP2 MSTORE PUSH1 0x20 ADD PUSH1 0x0 KECCAK256 PUSH1 0x0 DUP3 ADD MLOAD DUP2 PUSH1 0x0 ADD SSTORE PUSH1 0x20 DUP3 ADD MLOAD DUP2 PUSH1 0x1 ADD PUSH1 0x0 PUSH2 0x100 EXP DUP2 SLOAD DUP2 PUSH20 0xFFFFFFFFFFFFFFFFFFFFFFFFFFFFFFFFFFFFFFFF MUL NOT AND SWAP1 DUP4 PUSH20 0xFFFFFFFFFFFFFFFFFFFFFFFFFFFFFFFFFFFFFFFF AND MUL OR SWAP1 SSTORE POP PUSH1 0x40 DUP3 ADD MLOAD DUP2 PUSH1 0x1 ADD PUSH1 0x14 PUSH2 0x100 EXP DUP2 SLOAD DUP2 PUSH1 0xFF MUL NOT AND SWAP1 DUP4 PUSH1 0x3 DUP2 GT ISZERO PUSH2 0x1395 JUMPI PUSH2 0x1394 PUSH2 0x1820 JUMP JUMPDEST JUMPDEST MUL OR SWAP1 SSTORE POP SWAP1 POP POP JUMPDEST JUMPDEST JUMPDEST CALLER PUSH20 0xFFFFFFFFFFFFFFFFFFFFFFFFFFFFFFFFFFFFFFFF AND PUSH32 0x1DB2F8D3844C137E9A42D6083E0D6D79F46718A5B5F1DF7504C174630C01BC10 DUP3 DUP5 PUSH1 0x40 MLOAD PUSH2 0x13E8 SWAP3 SWAP2 SWAP1 PUSH2 0x2120 JUMP JUMPDEST PUSH1 0x40 MLOAD DUP1 SWAP2 SUB SWAP1 LOG2 POP POP JUMP JUMPDEST PUSH1 0x7 PUSH1 0x0 SWAP1 SLOAD SWAP1 PUSH2 0x100 EXP SWAP1 DIV PUSH20 0xFFFFFFFFFFFFFFFFFFFFFFFFFFFFFFFFFFFFFFFF AND DUP2 JUMP JUMPDEST PUSH1 0x2 PUSH1 0x20 MSTORE DUP1 PUSH1 0x0 MSTORE PUSH1 0x40 PUSH1 0x0 KECCAK256 PUSH1 0x0 SWAP2 POP SWAP1 POP DUP1 PUSH1 0x0 ADD SLOAD SWAP1 DUP1 PUSH1 0x1 ADD DUP1 SLOAD PUSH2 0x1443 SWAP1 PUSH2 0x217F JUMP JUMPDEST DUP1 PUSH1 0x1F ADD PUSH1 0x20 DUP1 SWAP2 DIV MUL PUSH1 0x20 ADD PUSH1 0x40 MLOAD SWAP1 DUP2 ADD PUSH1 0x40 MSTORE DUP1 SWAP3 SWAP2 SWAP1 DUP2 DUP2 MSTORE PUSH1 0x20 ADD DUP3 DUP1 SLOAD PUSH2 0x146F SWAP1 PUSH2 0x217F JUMP JUMPDEST DUP1 ISZERO PUSH2 0x14BC JUMPI DUP1 PUSH1 0x1F LT PUSH2 0x1491 JUMPI PUSH2 0x100 DUP1 DUP4 SLOAD DIV MUL DUP4 MSTORE SWAP2 PUSH1 0x20 ADD SWAP2 PUSH2 0x14BC JUMP JUMPDEST DUP3 ADD SWAP2 SWAP1 PUSH1 0x0 MSTORE PUSH1 0x20 PUSH1 0x0 KECCAK256 SWAP1 JUMPDEST DUP2 SLOAD DUP2 MSTORE SWAP1 PUSH1 0x1 ADD SWAP1 PUSH1 0x20 ADD DUP1 DUP4 GT PUSH2 0x149F JUMPI DUP3 SWAP1 SUB PUSH1 0x1F AND DUP3 ADD SWAP2 JUMPDEST POP POP POP POP POP SWAP1 DUP1 PUSH1 0x2 ADD PUSH1 0x0 SWAP1 SLOAD SWAP1 PUSH2 0x100 EXP SWAP1 DIV PUSH1 0xFF AND SWAP1 POP DUP4 JUMP JUMPDEST PUSH1 0x8 PUSH1 0x0 SWAP1 SLOAD SWAP1 PUSH2 0x100 EXP SWAP1 DIV PUSH20 0xFFFFFFFFFFFFFFFFFFFFFFFFFFFFFFFFFFFFFFFF AND DUP2 JUMP JUMPDEST PUSH1 0x0 PUSH1 0x6 PUSH1 0x0 SWAP1 SLOAD SWAP1 PUSH2 0x100 EXP SWAP1 DIV PUSH20 0xFFFFFFFFFFFFFFFFFFFFFFFFFFFFFFFFFFFFFFFF AND SWAP1 POP SWAP1 JUMP JUMPDEST PUSH2 0x1531 PUSH2 0x1620 JUMP JUMPDEST PUSH20 0xFFFFFFFFFFFFFFFFFFFFFFFFFFFFFFFFFFFFFFFF AND PUSH2 0x154F PUSH2 0x6AE JUMP JUMPDEST PUSH20 0xFFFFFFFFFFFFFFFFFFFFFFFFFFFFFFFFFFFFFFFF AND EQ PUSH2 0x15A5 JUMPI PUSH1 0x40 MLOAD PUSH32 0x8C379A000000000000000000000000000000000000000000000000000000000 DUP2 MSTORE PUSH1 0x4 ADD PUSH2 0x159C SWAP1 PUSH2 0x1D2C JUMP JUMPDEST PUSH1 0x40 MLOAD DUP1 SWAP2 SUB SWAP1 REVERT JUMPDEST PUSH1 0x0 PUSH20 0xFFFFFFFFFFFFFFFFFFFFFFFFFFFFFFFFFFFFFFFF AND DUP2 PUSH20 0xFFFFFFFFFFFFFFFFFFFFFFFFFFFFFFFFFFFFFFFF AND SUB PUSH2 0x1614 JUMPI PUSH1 0x40 MLOAD PUSH32 0x8C379A000000000000000000000000000000000000000000000000000000000 DUP2 MSTORE PUSH1 0x4 ADD PUSH2 0x160B SWAP1 PUSH2 0x2222 JUMP JUMPDEST PUSH1 0x40 MLOAD DUP1 SWAP2 SUB SWAP1 REVERT JUMPDEST PUSH2 0x161D DUP2 PUSH2 0x1628 JUMP JUMPDEST POP JUMP JUMPDEST PUSH1 0x0 CALLER SWAP1 POP SWAP1 JUMP JUMPDEST PUSH1 0x0 PUSH1 0x4 PUSH1 0x0 SWAP1 SLOAD SWAP1 PUSH2 0x100 EXP SWAP1 DIV PUSH20 0xFFFFFFFFFFFFFFFFFFFFFFFFFFFFFFFFFFFFFFFF AND SWAP1 POP DUP2 PUSH1 0x4 PUSH1 0x0 PUSH2 0x100 EXP DUP2 SLOAD DUP2 PUSH20 0xFFFFFFFFFFFFFFFFFFFFFFFFFFFFFFFFFFFFFFFF MUL NOT AND SWAP1 DUP4 PUSH20 0xFFFFFFFFFFFFFFFFFFFFFFFFFFFFFFFFFFFFFFFF AND MUL OR SWAP1 SSTORE POP DUP2 PUSH20 0xFFFFFFFFFFFFFFFFFFFFFFFFFFFFFFFFFFFFFFFF AND DUP2 PUSH20 0xFFFFFFFFFFFFFFFFFFFFFFFFFFFFFFFFFFFFFFFF AND PUSH32 0x8BE0079C531659141344CD1FD0A4F28419497F9722A3DAAFE3B4186F6B6457E0 PUSH1 0x40 MLOAD PUSH1 0x40 MLOAD DUP1 SWAP2 SUB SWAP1 LOG3 POP POP JUMP JUMPDEST PUSH1 0x0 PUSH20 0xFFFFFFFFFFFFFFFFFFFFFFFFFFFFFFFFFFFFFFFF DUP3 AND SWAP1 POP SWAP2 SWAP1 POP JUMP JUMPDEST PUSH1 0x0 DUP2 SWAP1 POP SWAP2 SWAP1 POP JUMP JUMPDEST PUSH1 0x0 PUSH2 0x1733 PUSH2 0x172E PUSH2 0x1729 DUP5 PUSH2 0x16EE JUMP JUMPDEST PUSH2 0x170E JUMP JUMPDEST PUSH2 0x16EE JUMP JUMPDEST SWAP1 POP SWAP2 SWAP1 POP JUMP JUMPDEST PUSH1 0x0 PUSH2 0x1745 DUP3 PUSH2 0x1718 JUMP JUMPDEST SWAP1 POP SWAP2 SWAP1 POP JUMP JUMPDEST PUSH1 0x0 PUSH2 0x1757 DUP3 PUSH2 0x173A JUMP JUMPDEST SWAP1 POP SWAP2 SWAP1 POP JUMP JUMPDEST PUSH2 0x1767 DUP2 PUSH2 0x174C JUMP JUMPDEST DUP3 MSTORE POP POP JUMP JUMPDEST PUSH1 0x0 PUSH1 0x20 DUP3 ADD SWAP1 POP PUSH2 0x1782 PUSH1 0x0 DUP4 ADD DUP5 PUSH2 0x175E JUMP JUMPDEST SWAP3 SWAP2 POP POP JUMP JUMPDEST PUSH1 0x0 PUSH1 0x40 MLOAD SWAP1 POP SWAP1 JUMP JUMPDEST PUSH1 0x0 DUP1 REVERT JUMPDEST PUSH1 0x0 DUP1 REVERT JUMPDEST PUSH1 0x0 DUP2 SWAP1 POP SWAP2 SWAP1 POP JUMP JUMPDEST PUSH2 0x17AF DUP2 PUSH2 0x179C JUMP JUMPDEST DUP2 EQ PUSH2 0x17BA JUMPI PUSH1 0x0 DUP1 REVERT JUMPDEST POP JUMP JUMPDEST PUSH1 0x0 DUP2 CALLDATALOAD SWAP1 POP PUSH2 0x17CC DUP2 PUSH2 0x17A6 JUMP JUMPDEST SWAP3 SWAP2 POP POP JUMP JUMPDEST PUSH1 0x0 PUSH1 0x20 DUP3 DUP5 SUB SLT ISZERO PUSH2 0x17E8 JUMPI PUSH2 0x17E7 PUSH2 0x1792 JUMP JUMPDEST JUMPDEST PUSH1 0x0 PUSH2 0x17F6 DUP5 DUP3 DUP6 ADD PUSH2 0x17BD JUMP JUMPDEST SWAP2 POP POP SWAP3 SWAP2 POP POP JUMP JUMPDEST PUSH1 0x0 PUSH2 0x180A DUP3 PUSH2 0x16EE JUMP JUMPDEST SWAP1 POP SWAP2 SWAP1 POP JUMP JUMPDEST PUSH2 0x181A DUP2 PUSH2 0x17FF JUMP JUMPDEST DUP3 MSTORE POP POP JUMP JUMPDEST PUSH32 0x4E487B7100000000000000000000000000000000000000000000000000000000 PUSH1 0x0 MSTORE PUSH1 0x21 PUSH1 0x4 MSTORE PUSH1 0x24 PUSH1 0x0 REVERT JUMPDEST PUSH1 0x4 DUP2 LT PUSH2 0x1860 JUMPI PUSH2 0x185F PUSH2 0x1820 JUMP JUMPDEST JUMPDEST POP JUMP JUMPDEST PUSH1 0x0 DUP2 SWAP1 POP PUSH2 0x1871 DUP3 PUSH2 0x184F JUMP JUMPDEST SWAP2 SWAP1 POP JUMP JUMPDEST PUSH1 0x0 PUSH2 0x1881 DUP3 PUSH2 0x1863 JUMP JUMPDEST SWAP1 POP SWAP2 SWAP1 POP JUMP JUMPDEST PUSH2 0x1891 DUP2 PUSH2 0x1876 JUMP JUMPDEST DUP3 MSTORE POP POP JUMP JUMPDEST PUSH1 0x0 PUSH1 0x40 DUP3 ADD SWAP1 POP PUSH2 0x18AC PUSH1 0x0 DUP4 ADD DUP6 PUSH2 0x1811 JUMP JUMPDEST PUSH2 0x18B9 PUSH1 0x20 DUP4 ADD DUP5 PUSH2 0x1888 JUMP JUMPDEST SWAP4 SWAP3 POP POP POP JUMP JUMPDEST PUSH1 0x0 PUSH32 0xFFFFFFFF00000000000000000000000000000000000000000000000000000000 DUP3 AND SWAP1 POP SWAP2 SWAP1 POP JUMP JUMPDEST PUSH2 0x18F5 DUP2 PUSH2 0x18C0 JUMP JUMPDEST DUP3 MSTORE POP POP JUMP JUMPDEST PUSH1 0x0 PUSH1 0x20 DUP3 ADD SWAP1 POP PUSH2 0x1910 PUSH1 0x0 DUP4 ADD DUP5 PUSH2 0x18EC JUMP JUMPDEST SWAP3 SWAP2 POP POP JUMP JUMPDEST PUSH2 0x191F DUP2 PUSH2 0x179C JUMP JUMPDEST DUP3 MSTORE POP POP JUMP JUMPDEST PUSH1 0x0 PUSH1 0x60 DUP3 ADD SWAP1 POP PUSH2 0x193A PUSH1 0x0 DUP4 ADD DUP7 PUSH2 0x1916 JUMP JUMPDEST PUSH2 0x1947 PUSH1 0x20 DUP4 ADD DUP6 PUSH2 0x1811 JUMP JUMPDEST PUSH2 0x1954 PUSH1 0x40 DUP4 ADD DUP5 PUSH2 0x1888 JUMP JUMPDEST SWAP5 SWAP4 POP POP POP POP JUMP JUMPDEST PUSH2 0x1965 DUP2 PUSH2 0x17FF JUMP JUMPDEST DUP2 EQ PUSH2 0x1970 JUMPI PUSH1 0x0 DUP1 REVERT JUMPDEST POP JUMP JUMPDEST PUSH1 0x0 DUP2 CALLDATALOAD SWAP1 POP PUSH2 0x1982 DUP2 PUSH2 0x195C JUMP JUMPDEST SWAP3 SWAP2 POP POP JUMP JUMPDEST PUSH1 0x0 PUSH1 0x20 DUP3 DUP5 SUB SLT ISZERO PUSH2 0x199E JUMPI PUSH2 0x199D PUSH2 0x1792 JUMP JUMPDEST JUMPDEST PUSH1 0x0 PUSH2 0x19AC DUP5 DUP3 DUP6 ADD PUSH2 0x1973 JUMP JUMPDEST SWAP2 POP POP SWAP3 SWAP2 POP POP JUMP JUMPDEST PUSH1 0x0 PUSH1 0x20 DUP3 ADD SWAP1 POP PUSH2 0x19CA PUSH1 0x0 DUP4 ADD DUP5 PUSH2 0x1811 JUMP JUMPDEST SWAP3 SWAP2 POP POP JUMP JUMPDEST PUSH1 0x0 PUSH1 0x20 DUP3 ADD SWAP1 POP PUSH2 0x19E5 PUSH1 0x0 DUP4 ADD DUP5 PUSH2 0x1916 JUMP JUMPDEST SWAP3 SWAP2 POP POP JUMP JUMPDEST PUSH1 0x0 DUP1 REVERT JUMPDEST PUSH1 0x0 DUP1 REVERT JUMPDEST PUSH1 0x0 PUSH1 0x1F NOT PUSH1 0x1F DUP4 ADD AND SWAP1 POP SWAP2 SWAP1 POP JUMP JUMPDEST PUSH32 0x4E487B7100000000000000000000000000000000000000000000000000000000 PUSH1 0x0 MSTORE PUSH1 0x41 PUSH1 0x4 MSTORE PUSH1 0x24 PUSH1 0x0 REVERT JUMPDEST PUSH2 0x1A3E DUP3 PUSH2 0x19F5 JUMP JUMPDEST DUP2 ADD DUP2 DUP2 LT PUSH8 0xFFFFFFFFFFFFFFFF DUP3 GT OR ISZERO PUSH2 0x1A5D JUMPI PUSH2 0x1A5C PUSH2 0x1A06 JUMP JUMPDEST JUMPDEST DUP1 PUSH1 0x40 MSTORE POP POP POP JUMP JUMPDEST PUSH1 0x0 PUSH2 0x1A70 PUSH2 0x1788 JUMP JUMPDEST SWAP1 POP PUSH2 0x1A7C DUP3 DUP3 PUSH2 0x1A35 JUMP JUMPDEST SWAP2 SWAP1 POP JUMP JUMPDEST PUSH1 0x0 PUSH8 0xFFFFFFFFFFFFFFFF DUP3 GT ISZERO PUSH2 0x1A9C JUMPI PUSH2 0x1A9B PUSH2 0x1A06 JUMP JUMPDEST JUMPDEST PUSH2 0x1AA5 DUP3 PUSH2 0x19F5 JUMP JUMPDEST SWAP1 POP PUSH1 0x20 DUP2 ADD SWAP1 POP SWAP2 SWAP1 POP JUMP JUMPDEST DUP3 DUP2 DUP4 CALLDATACOPY PUSH1 0x0 DUP4 DUP4 ADD MSTORE POP POP POP JUMP JUMPDEST PUSH1 0x0 PUSH2 0x1AD4 PUSH2 0x1ACF DUP5 PUSH2 0x1A81 JUMP JUMPDEST PUSH2 0x1A66 JUMP JUMPDEST SWAP1 POP DUP3 DUP2 MSTORE PUSH1 0x20 DUP2 ADD DUP5 DUP5 DUP5 ADD GT ISZERO PUSH2 0x1AF0 JUMPI PUSH2 0x1AEF PUSH2 0x19F0 JUMP JUMPDEST JUMPDEST PUSH2 0x1AFB DUP5 DUP3 DUP6 PUSH2 0x1AB2 JUMP JUMPDEST POP SWAP4 SWAP3 POP POP POP JUMP JUMPDEST PUSH1 0x0 DUP3 PUSH1 0x1F DUP4 ADD SLT PUSH2 0x1B18 JUMPI PUSH2 0x1B17 PUSH2 0x19EB JUMP JUMPDEST JUMPDEST DUP2 CALLDATALOAD PUSH2 0x1B28 DUP5 DUP3 PUSH1 0x20 DUP7 ADD PUSH2 0x1AC1 JUMP JUMPDEST SWAP2 POP POP SWAP3 SWAP2 POP POP JUMP JUMPDEST PUSH1 0x0 PUSH1 0x20 DUP3 DUP5 SUB SLT ISZERO PUSH2 0x1B47 JUMPI PUSH2 0x1B46 PUSH2 0x1792 JUMP JUMPDEST JUMPDEST PUSH1 0x0 DUP3 ADD CALLDATALOAD PUSH8 0xFFFFFFFFFFFFFFFF DUP2 GT ISZERO PUSH2 0x1B65 JUMPI PUSH2 0x1B64 PUSH2 0x1797 JUMP JUMPDEST JUMPDEST PUSH2 0x1B71 DUP5 DUP3 DUP6 ADD PUSH2 0x1B03 JUMP JUMPDEST SWAP2 POP POP SWAP3 SWAP2 POP POP JUMP JUMPDEST PUSH1 0x0 DUP2 SWAP1 POP SWAP2 SWAP1 POP JUMP JUMPDEST PUSH2 0x1B8D DUP2 PUSH2 0x1B7A JUMP JUMPDEST DUP3 MSTORE POP POP JUMP JUMPDEST PUSH1 0x0 DUP2 MLOAD SWAP1 POP SWAP2 SWAP1 POP JUMP JUMPDEST PUSH1 0x0 DUP3 DUP3 MSTORE PUSH1 0x20 DUP3 ADD SWAP1 POP SWAP3 SWAP2 POP POP JUMP JUMPDEST PUSH1 0x0 JUMPDEST DUP4 DUP2 LT ISZERO PUSH2 0x1BCD JUMPI DUP1 DUP3 ADD MLOAD DUP2 DUP5 ADD MSTORE PUSH1 0x20 DUP2 ADD SWAP1 POP PUSH2 0x1BB2 JUMP JUMPDEST DUP4 DUP2 GT ISZERO PUSH2 0x1BDC JUMPI PUSH1 0x0 DUP5 DUP5 ADD MSTORE JUMPDEST POP POP POP POP JUMP JUMPDEST PUSH1 0x0 PUSH2 0x1BED DUP3 PUSH2 0x1B93 JUMP JUMPDEST PUSH2 0x1BF7 DUP2 DUP6 PUSH2 0x1B9E JUMP JUMPDEST SWAP4 POP PUSH2 0x1C07 DUP2 DUP6 PUSH1 0x20 DUP7 ADD PUSH2 0x1BAF JUMP JUMPDEST PUSH2 0x1C10 DUP2 PUSH2 0x19F5 JUMP JUMPDEST DUP5 ADD SWAP2 POP POP SWAP3 SWAP2 POP POP JUMP JUMPDEST PUSH1 0x0 DUP2 ISZERO ISZERO SWAP1 POP SWAP2 SWAP1 POP JUMP JUMPDEST PUSH2 0x1C30 DUP2 PUSH2 0x1C1B JUMP JUMPDEST DUP3 MSTORE POP POP JUMP JUMPDEST PUSH1 0x0 PUSH1 0x60 DUP3 ADD SWAP1 POP PUSH2 0x1C4B PUSH1 0x0 DUP4 ADD DUP7 PUSH2 0x1B84 JUMP JUMPDEST DUP2 DUP2 SUB PUSH1 0x20 DUP4 ADD MSTORE PUSH2 0x1C5D DUP2 DUP6 PUSH2 0x1BE2 JUMP JUMPDEST SWAP1 POP PUSH2 0x1C6C PUSH1 0x40 DUP4 ADD DUP5 PUSH2 0x1C27 JUMP JUMPDEST SWAP5 SWAP4 POP POP POP POP JUMP JUMPDEST PUSH32 0x63616C6C6572206E6F742061206D696E7465722061646D696E00000000000000 PUSH1 0x0 DUP3 ADD MSTORE POP JUMP JUMPDEST PUSH1 0x0 PUSH2 0x1CAA PUSH1 0x19 DUP4 PUSH2 0x1B9E JUMP JUMPDEST SWAP2 POP PUSH2 0x1CB5 DUP3 PUSH2 0x1C74 JUMP JUMPDEST PUSH1 0x20 DUP3 ADD SWAP1 POP SWAP2 SWAP1 POP JUMP JUMPDEST PUSH1 0x0 PUSH1 0x20 DUP3 ADD SWAP1 POP DUP2 DUP2 SUB PUSH1 0x0 DUP4 ADD MSTORE PUSH2 0x1CD9 DUP2 PUSH2 0x1C9D JUMP JUMPDEST SWAP1 POP SWAP2 SWAP1 POP JUMP JUMPDEST PUSH32 0x4F776E61626C653A2063616C6C6572206973206E6F7420746865206F776E6572 PUSH1 0x0 DUP3 ADD MSTORE POP JUMP JUMPDEST PUSH1 0x0 PUSH2 0x1D16 PUSH1 0x20 DUP4 PUSH2 0x1B9E JUMP JUMPDEST SWAP2 POP PUSH2 0x1D21 DUP3 PUSH2 0x1CE0 JUMP JUMPDEST PUSH1 0x20 DUP3 ADD SWAP1 POP SWAP2 SWAP1 POP JUMP JUMPDEST PUSH1 0x0 PUSH1 0x20 DUP3 ADD SWAP1 POP DUP2 DUP2 SUB PUSH1 0x0 DUP4 ADD MSTORE PUSH2 0x1D45 DUP2 PUSH2 0x1D09 JUMP JUMPDEST SWAP1 POP SWAP2 SWAP1 POP JUMP JUMPDEST PUSH32 0x63616C6C6572206E6F7420612070656E64696E67206D696E7465722061646D69 PUSH1 0x0 DUP3 ADD MSTORE PUSH32 0x6E00000000000000000000000000000000000000000000000000000000000000 PUSH1 0x20 DUP3 ADD MSTORE POP JUMP JUMPDEST PUSH1 0x0 PUSH2 0x1DA8 PUSH1 0x21 DUP4 PUSH2 0x1B9E JUMP JUMPDEST SWAP2 POP PUSH2 0x1DB3 DUP3 PUSH2 0x1D4C JUMP JUMPDEST PUSH1 0x40 DUP3 ADD SWAP1 POP SWAP2 SWAP1 POP JUMP JUMPDEST PUSH1 0x0 PUSH1 0x20 DUP3 ADD SWAP1 POP DUP2 DUP2 SUB PUSH1 0x0 DUP4 ADD MSTORE PUSH2 0x1DD7 DUP2 PUSH2 0x1D9B JUMP JUMPDEST SWAP1 POP SWAP2 SWAP1 POP JUMP JUMPDEST PUSH32 0x63616E277420706572666F726D206D656C740000000000000000000000000000 PUSH1 0x0 DUP3 ADD MSTORE POP JUMP JUMPDEST PUSH1 0x0 PUSH2 0x1E14 PUSH1 0x12 DUP4 PUSH2 0x1B9E JUMP JUMPDEST SWAP2 POP PUSH2 0x1E1F DUP3 PUSH2 0x1DDE JUMP JUMPDEST PUSH1 0x20 DUP3 ADD SWAP1 POP SWAP2 SWAP1 POP JUMP JUMPDEST PUSH1 0x0 PUSH1 0x20 DUP3 ADD SWAP1 POP DUP2 DUP2 SUB PUSH1 0x0 DUP4 ADD MSTORE PUSH2 0x1E43 DUP2 PUSH2 0x1E07 JUMP JUMPDEST SWAP1 POP SWAP2 SWAP1 POP JUMP JUMPDEST PUSH1 0x0 DUP2 SWAP1 POP SWAP3 SWAP2 POP POP JUMP JUMPDEST PUSH32 0x42524F4E5A450000000000000000000000000000000000000000000000000000 PUSH1 0x0 DUP3 ADD MSTORE POP JUMP JUMPDEST PUSH1 0x0 PUSH2 0x1E8B PUSH1 0x6 DUP4 PUSH2 0x1E4A JUMP JUMPDEST SWAP2 POP PUSH2 0x1E96 DUP3 PUSH2 0x1E55 JUMP JUMPDEST PUSH1 0x6 DUP3 ADD SWAP1 POP SWAP2 SWAP1 POP JUMP JUMPDEST PUSH1 0x0 PUSH2 0x1EAC DUP3 PUSH2 0x1E7E JUMP JUMPDEST SWAP2 POP DUP2 SWAP1 POP SWAP2 SWAP1 POP JUMP JUMPDEST PUSH1 0x0 PUSH2 0x1EC1 DUP3 PUSH2 0x1B93 JUMP JUMPDEST PUSH2 0x1ECB DUP2 DUP6 PUSH2 0x1E4A JUMP JUMPDEST SWAP4 POP PUSH2 0x1EDB DUP2 DUP6 PUSH1 0x20 DUP7 ADD PUSH2 0x1BAF JUMP JUMPDEST DUP1 DUP5 ADD SWAP2 POP POP SWAP3 SWAP2 POP POP JUMP JUMPDEST PUSH1 0x0 PUSH2 0x1EF3 DUP3 DUP5 PUSH2 0x1EB6 JUMP JUMPDEST SWAP2 POP DUP2 SWAP1 POP SWAP3 SWAP2 POP POP JUMP JUMPDEST PUSH32 0x53494C5645520000000000000000000000000000000000000000000000000000 PUSH1 0x0 DUP3 ADD MSTORE POP JUMP JUMPDEST PUSH1 0x0 PUSH2 0x1F34 PUSH1 0x6 DUP4 PUSH2 0x1E4A JUMP JUMPDEST SWAP2 POP PUSH2 0x1F3F DUP3 PUSH2 0x1EFE JUMP JUMPDEST PUSH1 0x6 DUP3 ADD SWAP1 POP SWAP2 SWAP1 POP JUMP JUMPDEST PUSH1 0x0 PUSH2 0x1F55 DUP3 PUSH2 0x1F27 JUMP JUMPDEST SWAP2 POP DUP2 SWAP1 POP SWAP2 SWAP1 POP JUMP JUMPDEST PUSH32 0x474F4C4400000000000000000000000000000000000000000000000000000000 PUSH1 0x0 DUP3 ADD MSTORE POP JUMP JUMPDEST PUSH1 0x0 PUSH2 0x1F95 PUSH1 0x4 DUP4 PUSH2 0x1E4A JUMP JUMPDEST SWAP2 POP PUSH2 0x1FA0 DUP3 PUSH2 0x1F5F JUMP JUMPDEST PUSH1 0x4 DUP3 ADD SWAP1 POP SWAP2 SWAP1 POP JUMP JUMPDEST PUSH1 0x0 PUSH2 0x1FB6 DUP3 PUSH2 0x1F88 JUMP JUMPDEST SWAP2 POP DUP2 SWAP1 POP SWAP2 SWAP1 POP JUMP JUMPDEST PUSH32 0x4974656D27732074797065206973206E6F742076616C69640000000000000000 PUSH1 0x0 DUP3 ADD MSTORE POP JUMP JUMPDEST PUSH1 0x0 PUSH2 0x1FF6 PUSH1 0x18 DUP4 PUSH2 0x1B9E JUMP JUMPDEST SWAP2 POP PUSH2 0x2001 DUP3 PUSH2 0x1FC0 JUMP JUMPDEST PUSH1 0x20 DUP3 ADD SWAP1 POP SWAP2 SWAP1 POP JUMP JUMPDEST PUSH1 0x0 PUSH1 0x20 DUP3 ADD SWAP1 POP DUP2 DUP2 SUB PUSH1 0x0 DUP4 ADD MSTORE PUSH2 0x2025 DUP2 PUSH2 0x1FE9 JUMP JUMPDEST SWAP1 POP SWAP2 SWAP1 POP JUMP JUMPDEST PUSH1 0x0 PUSH1 0x60 DUP3 ADD SWAP1 POP PUSH2 0x2041 PUSH1 0x0 DUP4 ADD DUP7 PUSH2 0x1811 JUMP JUMPDEST PUSH2 0x204E PUSH1 0x20 DUP4 ADD DUP6 PUSH2 0x1811 JUMP JUMPDEST PUSH2 0x205B PUSH1 0x40 DUP4 ADD DUP5 PUSH2 0x1916 JUMP JUMPDEST SWAP5 SWAP4 POP POP POP POP JUMP JUMPDEST PUSH2 0x206C DUP2 PUSH2 0x1C1B JUMP JUMPDEST DUP2 EQ PUSH2 0x2077 JUMPI PUSH1 0x0 DUP1 REVERT JUMPDEST POP JUMP JUMPDEST PUSH1 0x0 DUP2 MLOAD SWAP1 POP PUSH2 0x2089 DUP2 PUSH2 0x2063 JUMP JUMPDEST SWAP3 SWAP2 POP POP JUMP JUMPDEST PUSH1 0x0 PUSH1 0x20 DUP3 DUP5 SUB SLT ISZERO PUSH2 0x20A5 JUMPI PUSH2 0x20A4 PUSH2 0x1792 JUMP JUMPDEST JUMPDEST PUSH1 0x0 PUSH2 0x20B3 DUP5 DUP3 DUP6 ADD PUSH2 0x207A JUMP JUMPDEST SWAP2 POP POP SWAP3 SWAP2 POP POP JUMP JUMPDEST PUSH1 0x0 PUSH1 0x20 DUP3 ADD SWAP1 POP DUP2 DUP2 SUB PUSH1 0x0 DUP4 ADD MSTORE PUSH2 0x20D6 DUP2 DUP5 PUSH2 0x1BE2 JUMP JUMPDEST SWAP1 POP SWAP3 SWAP2 POP POP JUMP JUMPDEST PUSH1 0x0 DUP2 MLOAD SWAP1 POP PUSH2 0x20ED DUP2 PUSH2 0x17A6 JUMP JUMPDEST SWAP3 SWAP2 POP POP JUMP JUMPDEST PUSH1 0x0 PUSH1 0x20 DUP3 DUP5 SUB SLT ISZERO PUSH2 0x2109 JUMPI PUSH2 0x2108 PUSH2 0x1792 JUMP JUMPDEST JUMPDEST PUSH1 0x0 PUSH2 0x2117 DUP5 DUP3 DUP6 ADD PUSH2 0x20DE JUMP JUMPDEST SWAP2 POP POP SWAP3 SWAP2 POP POP JUMP JUMPDEST PUSH1 0x0 PUSH1 0x40 DUP3 ADD SWAP1 POP PUSH2 0x2135 PUSH1 0x0 DUP4 ADD DUP6 PUSH2 0x1916 JUMP JUMPDEST DUP2 DUP2 SUB PUSH1 0x20 DUP4 ADD MSTORE PUSH2 0x2147 DUP2 DUP5 PUSH2 0x1BE2 JUMP JUMPDEST SWAP1 POP SWAP4 SWAP3 POP POP POP JUMP JUMPDEST PUSH32 0x4E487B7100000000000000000000000000000000000000000000000000000000 PUSH1 0x0 MSTORE PUSH1 0x22 PUSH1 0x4 MSTORE PUSH1 0x24 PUSH1 0x0 REVERT JUMPDEST PUSH1 0x0 PUSH1 0x2 DUP3 DIV SWAP1 POP PUSH1 0x1 DUP3 AND DUP1 PUSH2 0x2197 JUMPI PUSH1 0x7F DUP3 AND SWAP2 POP JUMPDEST PUSH1 0x20 DUP3 LT DUP2 SUB PUSH2 0x21AA JUMPI PUSH2 0x21A9 PUSH2 0x2150 JUMP JUMPDEST JUMPDEST POP SWAP2 SWAP1 POP JUMP JUMPDEST PUSH32 0x4F776E61626C653A206E6577206F776E657220697320746865207A65726F2061 PUSH1 0x0 DUP3 ADD MSTORE PUSH32 0x6464726573730000000000000000000000000000000000000000000000000000 PUSH1 0x20 DUP3 ADD MSTORE POP JUMP JUMPDEST PUSH1 0x0 PUSH2 0x220C PUSH1 0x26 DUP4 PUSH2 0x1B9E JUMP JUMPDEST SWAP2 POP PUSH2 0x2217 DUP3 PUSH2 0x21B0 JUMP JUMPDEST PUSH1 0x40 DUP3 ADD SWAP1 POP SWAP2 SWAP1 POP JUMP JUMPDEST PUSH1 0x0 PUSH1 0x20 DUP3 ADD SWAP1 POP DUP2 DUP2 SUB PUSH1 0x0 DUP4 ADD MSTORE PUSH2 0x223B DUP2 PUSH2 0x21FF JUMP JUMPDEST SWAP1 POP SWAP2 SWAP1 POP JUMP INVALID LOG2 PUSH5 0x6970667358 0x22 SLT KECCAK256 CALL BYTE RETURNDATACOPY DUP9 SWAP7 SWAP14 0xC8 MSTORE8 GASLIMIT DIV 0xB8 0xAD 0x2F 0xF7 PUSH30 0x1D129A18871B0B9CDB1EB02AC8E1232CA664736F6C634300080D00330000 "
				},
				"gasEstimates": {
					"creation": {
						"codeDepositCost": "1764800",
						"executionCost": "infinite",
						"totalCost": "infinite"
					},
					"external": {
						"ERC721_Interface()": "409",
						"activeItem(uint256)": "infinite",
						"addToMinters(address)": "27093",
						"bronzeActivePrice()": "2474",
						"claimMinterAddmin()": "58868",
						"goldActivePrice()": "2452",
						"ingameItem(uint256)": "infinite",
						"mintActiveItem(string)": "infinite",
						"minterAddmin()": "2610",
						"nftContract()": "2580",
						"owner()": "2589",
						"pendingMinterAdmin()": "2536",
						"removeFromMinters(address)": "27005",
						"renounceOwnership()": "30419",
						"setSQFToken(address)": "27051",
						"silverActivePrice()": "2518",
						"sqfToken()": "infinite",
						"transferMinterAddmin(address)": "27004",
						"transferOwnership(address)": "30830",
						"userStatus(uint256)": "5303"
					}
				},
				"methodIdentifiers": {
					"ERC721_Interface()": "2b4c32be",
					"activeItem(uint256)": "58dd8603",
					"addToMinters(address)": "a15c15af",
					"bronzeActivePrice()": "ac4867f0",
					"claimMinterAddmin()": "aed59b8a",
					"goldActivePrice()": "aa6a0dac",
					"ingameItem(uint256)": "d30bdac9",
					"mintActiveItem(string)": "c04772d5",
					"minterAddmin()": "db69a32d",
					"nftContract()": "d56d229d",
					"owner()": "8da5cb5b",
					"pendingMinterAdmin()": "ce1d82f5",
					"removeFromMinters(address)": "6e722920",
					"renounceOwnership()": "715018a6",
					"setSQFToken(address)": "92bf77dd",
					"silverActivePrice()": "af1b3d5e",
					"sqfToken()": "15b81dc3",
					"transferMinterAddmin(address)": "6d4d0c57",
					"transferOwnership(address)": "f2fde38b",
					"userStatus(uint256)": "1f7775ad"
				}
			},
			"storageLayout": {
				"storage": [
					{
						"astId": 126,
						"contract": "contracts/NFTContract3/SQFIFactory.sol:SQFItemFactory",
						"label": "sqfToken",
						"offset": 0,
						"slot": "0",
						"type": "t_contract(IERC20)90"
					},
					{
						"astId": 131,
						"contract": "contracts/NFTContract3/SQFIFactory.sol:SQFItemFactory",
						"label": "activeItem",
						"offset": 0,
						"slot": "1",
						"type": "t_mapping(t_uint256,t_struct(activeItems)104_storage)"
					},
					{
						"astId": 136,
						"contract": "contracts/NFTContract3/SQFIFactory.sol:SQFItemFactory",
						"label": "ingameItem",
						"offset": 0,
						"slot": "2",
						"type": "t_mapping(t_uint256,t_struct(ingameItems)111_storage)"
					},
					{
						"astId": 141,
						"contract": "contracts/NFTContract3/SQFIFactory.sol:SQFItemFactory",
						"label": "userStatus",
						"offset": 0,
						"slot": "3",
						"type": "t_mapping(t_uint256,t_struct(usersStatus)117_storage)"
					},
					{
						"astId": 186,
						"contract": "contracts/NFTContract3/SQFIFactory.sol:SQFItemFactory",
						"label": "_owner",
						"offset": 0,
						"slot": "4",
						"type": "t_address"
					},
					{
						"astId": 289,
						"contract": "contracts/NFTContract3/SQFIFactory.sol:SQFItemFactory",
						"label": "_minters",
						"offset": 0,
						"slot": "5",
						"type": "t_mapping(t_address,t_bool)"
					},
					{
						"astId": 291,
						"contract": "contracts/NFTContract3/SQFIFactory.sol:SQFItemFactory",
						"label": "_minteradmin",
						"offset": 0,
						"slot": "6",
						"type": "t_address"
					},
					{
						"astId": 293,
						"contract": "contracts/NFTContract3/SQFIFactory.sol:SQFItemFactory",
						"label": "pendingMinterAdmin",
						"offset": 0,
						"slot": "7",
						"type": "t_address"
					},
					{
						"astId": 574,
						"contract": "contracts/NFTContract3/SQFIFactory.sol:SQFItemFactory",
						"label": "nftContract",
						"offset": 0,
						"slot": "8",
						"type": "t_address"
					},
					{
						"astId": 576,
						"contract": "contracts/NFTContract3/SQFIFactory.sol:SQFItemFactory",
						"label": "bronzeActivePrice",
						"offset": 0,
						"slot": "9",
						"type": "t_uint256"
					},
					{
						"astId": 578,
						"contract": "contracts/NFTContract3/SQFIFactory.sol:SQFItemFactory",
						"label": "silverActivePrice",
						"offset": 0,
						"slot": "10",
						"type": "t_uint256"
					},
					{
						"astId": 580,
						"contract": "contracts/NFTContract3/SQFIFactory.sol:SQFItemFactory",
						"label": "goldActivePrice",
						"offset": 0,
						"slot": "11",
						"type": "t_uint256"
					},
					{
						"astId": 583,
						"contract": "contracts/NFTContract3/SQFIFactory.sol:SQFItemFactory",
						"label": "SQFI",
						"offset": 0,
						"slot": "12",
						"type": "t_contract(ISQFI)565"
					}
				],
				"types": {
					"t_address": {
						"encoding": "inplace",
						"label": "address",
						"numberOfBytes": "20"
					},
					"t_bool": {
						"encoding": "inplace",
						"label": "bool",
						"numberOfBytes": "1"
					},
					"t_bytes32": {
						"encoding": "inplace",
						"label": "bytes32",
						"numberOfBytes": "32"
					},
					"t_contract(IERC20)90": {
						"encoding": "inplace",
						"label": "contract IERC20",
						"numberOfBytes": "20"
					},
					"t_contract(ISQFI)565": {
						"encoding": "inplace",
						"label": "contract ISQFI",
						"numberOfBytes": "20"
					},
					"t_enum(activeStatus)96": {
						"encoding": "inplace",
						"label": "enum FactoryStorage.activeStatus",
						"numberOfBytes": "1"
					},
					"t_mapping(t_address,t_bool)": {
						"encoding": "mapping",
						"key": "t_address",
						"label": "mapping(address => bool)",
						"numberOfBytes": "32",
						"value": "t_bool"
					},
					"t_mapping(t_uint256,t_struct(activeItems)104_storage)": {
						"encoding": "mapping",
						"key": "t_uint256",
						"label": "mapping(uint256 => struct FactoryStorage.activeItems)",
						"numberOfBytes": "32",
						"value": "t_struct(activeItems)104_storage"
					},
					"t_mapping(t_uint256,t_struct(ingameItems)111_storage)": {
						"encoding": "mapping",
						"key": "t_uint256",
						"label": "mapping(uint256 => struct FactoryStorage.ingameItems)",
						"numberOfBytes": "32",
						"value": "t_struct(ingameItems)111_storage"
					},
					"t_mapping(t_uint256,t_struct(usersStatus)117_storage)": {
						"encoding": "mapping",
						"key": "t_uint256",
						"label": "mapping(uint256 => struct FactoryStorage.usersStatus)",
						"numberOfBytes": "32",
						"value": "t_struct(usersStatus)117_storage"
					},
					"t_string_storage": {
						"encoding": "bytes",
						"label": "string",
						"numberOfBytes": "32"
					},
					"t_struct(activeItems)104_storage": {
						"encoding": "inplace",
						"label": "struct FactoryStorage.activeItems",
						"members": [
							{
								"astId": 98,
								"contract": "contracts/NFTContract3/SQFIFactory.sol:SQFItemFactory",
								"label": "id",
								"offset": 0,
								"slot": "0",
								"type": "t_uint256"
							},
							{
								"astId": 100,
								"contract": "contracts/NFTContract3/SQFIFactory.sol:SQFItemFactory",
								"label": "owner",
								"offset": 0,
								"slot": "1",
								"type": "t_address"
							},
							{
								"astId": 103,
								"contract": "contracts/NFTContract3/SQFIFactory.sol:SQFItemFactory",
								"label": "status",
								"offset": 20,
								"slot": "1",
								"type": "t_enum(activeStatus)96"
							}
						],
						"numberOfBytes": "64"
					},
					"t_struct(ingameItems)111_storage": {
						"encoding": "inplace",
						"label": "struct FactoryStorage.ingameItems",
						"members": [
							{
								"astId": 106,
								"contract": "contracts/NFTContract3/SQFIFactory.sol:SQFItemFactory",
								"label": "id",
								"offset": 0,
								"slot": "0",
								"type": "t_bytes32"
							},
							{
								"astId": 108,
								"contract": "contracts/NFTContract3/SQFIFactory.sol:SQFItemFactory",
								"label": "itemId",
								"offset": 0,
								"slot": "1",
								"type": "t_string_storage"
							},
							{
								"astId": 110,
								"contract": "contracts/NFTContract3/SQFIFactory.sol:SQFItemFactory",
								"label": "ingame",
								"offset": 0,
								"slot": "2",
								"type": "t_bool"
							}
						],
						"numberOfBytes": "96"
					},
					"t_struct(usersStatus)117_storage": {
						"encoding": "inplace",
						"label": "struct FactoryStorage.usersStatus",
						"members": [
							{
								"astId": 113,
								"contract": "contracts/NFTContract3/SQFIFactory.sol:SQFItemFactory",
								"label": "user",
								"offset": 0,
								"slot": "0",
								"type": "t_address"
							},
							{
								"astId": 116,
								"contract": "contracts/NFTContract3/SQFIFactory.sol:SQFItemFactory",
								"label": "status",
								"offset": 20,
								"slot": "0",
								"type": "t_enum(activeStatus)96"
							}
						],
						"numberOfBytes": "32"
					},
					"t_uint256": {
						"encoding": "inplace",
						"label": "uint256",
						"numberOfBytes": "32"
					}
				}
			},
			"userdoc": {
				"kind": "user",
				"methods": {},
				"version": 1
			}
		}
	}
}