{
	"contracts/NFTContract3/Market.sol": {
		"MarketplaceStorage": {
			"abi": [
				{
					"anonymous": false,
					"inputs": [
						{
							"indexed": false,
							"internalType": "uint256",
							"name": "itemId",
							"type": "uint256"
						},
						{
							"indexed": true,
							"internalType": "uint256",
							"name": "tokenId",
							"type": "uint256"
						},
						{
							"indexed": true,
							"internalType": "address",
							"name": "seller",
							"type": "address"
						},
						{
							"indexed": false,
							"internalType": "uint256",
							"name": "price",
							"type": "uint256"
						},
						{
							"indexed": true,
							"internalType": "address",
							"name": "buyer",
							"type": "address"
						},
						{
							"indexed": false,
							"internalType": "string",
							"name": "currency",
							"type": "string"
						},
						{
							"indexed": false,
							"internalType": "uint256",
							"name": "createdAt",
							"type": "uint256"
						}
					],
					"name": "BuyItemSuccessful",
					"type": "event"
				},
				{
					"anonymous": false,
					"inputs": [
						{
							"indexed": false,
							"internalType": "uint256",
							"name": "id",
							"type": "uint256"
						},
						{
							"indexed": true,
							"internalType": "uint256",
							"name": "assetId",
							"type": "uint256"
						},
						{
							"indexed": true,
							"internalType": "address",
							"name": "delistBy",
							"type": "address"
						},
						{
							"indexed": false,
							"internalType": "uint256",
							"name": "createdAt",
							"type": "uint256"
						}
					],
					"name": "DelistItemSuccessful",
					"type": "event"
				},
				{
					"anonymous": false,
					"inputs": [
						{
							"indexed": true,
							"internalType": "uint256",
							"name": "itemId",
							"type": "uint256"
						},
						{
							"indexed": true,
							"internalType": "uint256",
							"name": "tokenId",
							"type": "uint256"
						},
						{
							"indexed": false,
							"internalType": "address",
							"name": "seller",
							"type": "address"
						},
						{
							"indexed": false,
							"internalType": "address",
							"name": "owner",
							"type": "address"
						},
						{
							"indexed": false,
							"internalType": "uint256",
							"name": "price",
							"type": "uint256"
						}
					],
					"name": "MarketItemCreated",
					"type": "event"
				},
				{
					"anonymous": false,
					"inputs": [
						{
							"indexed": false,
							"internalType": "address",
							"name": "nftAddress",
							"type": "address"
						},
						{
							"indexed": false,
							"internalType": "bytes32",
							"name": "id",
							"type": "bytes32"
						},
						{
							"indexed": true,
							"internalType": "uint256",
							"name": "assetId",
							"type": "uint256"
						},
						{
							"indexed": false,
							"internalType": "uint256",
							"name": "price",
							"type": "uint256"
						},
						{
							"indexed": true,
							"internalType": "address",
							"name": "seller",
							"type": "address"
						},
						{
							"indexed": false,
							"internalType": "string",
							"name": "currency",
							"type": "string"
						},
						{
							"indexed": false,
							"internalType": "uint256",
							"name": "createdAt",
							"type": "uint256"
						}
					],
					"name": "SellItemSuccessful",
					"type": "event"
				},
				{
					"inputs": [],
					"name": "ERC721_Interface",
					"outputs": [
						{
							"internalType": "bytes4",
							"name": "",
							"type": "bytes4"
						}
					],
					"stateMutability": "view",
					"type": "function"
				},
				{
					"inputs": [
						{
							"internalType": "uint256",
							"name": "",
							"type": "uint256"
						}
					],
					"name": "allItems",
					"outputs": [
						{
							"internalType": "uint256",
							"name": "itemId",
							"type": "uint256"
						},
						{
							"internalType": "uint256",
							"name": "tokenId",
							"type": "uint256"
						},
						{
							"internalType": "address",
							"name": "seller",
							"type": "address"
						},
						{
							"internalType": "address",
							"name": "owner",
							"type": "address"
						},
						{
							"internalType": "uint256",
							"name": "price",
							"type": "uint256"
						},
						{
							"internalType": "enum MarketplaceStorage.ItemStatus",
							"name": "status",
							"type": "uint8"
						}
					],
					"stateMutability": "view",
					"type": "function"
				},
				{
					"inputs": [],
					"name": "allMarketItems",
					"outputs": [
						{
							"internalType": "uint256",
							"name": "itemId",
							"type": "uint256"
						},
						{
							"internalType": "uint256",
							"name": "tokenId",
							"type": "uint256"
						},
						{
							"internalType": "address",
							"name": "seller",
							"type": "address"
						},
						{
							"internalType": "address",
							"name": "owner",
							"type": "address"
						},
						{
							"internalType": "uint256",
							"name": "price",
							"type": "uint256"
						},
						{
							"internalType": "enum MarketplaceStorage.ItemStatus",
							"name": "status",
							"type": "uint8"
						}
					],
					"stateMutability": "view",
					"type": "function"
				},
				{
					"inputs": [],
					"name": "antaFeePercent",
					"outputs": [
						{
							"internalType": "uint8",
							"name": "",
							"type": "uint8"
						}
					],
					"stateMutability": "view",
					"type": "function"
				},
				{
					"inputs": [],
					"name": "bnbFeePercent",
					"outputs": [
						{
							"internalType": "uint8",
							"name": "",
							"type": "uint8"
						}
					],
					"stateMutability": "view",
					"type": "function"
				},
				{
					"inputs": [],
					"name": "factory",
					"outputs": [
						{
							"internalType": "contract IFactory",
							"name": "",
							"type": "address"
						}
					],
					"stateMutability": "view",
					"type": "function"
				},
				{
					"inputs": [
						{
							"internalType": "address",
							"name": "",
							"type": "address"
						},
						{
							"internalType": "uint256",
							"name": "",
							"type": "uint256"
						}
					],
					"name": "items",
					"outputs": [
						{
							"internalType": "uint256",
							"name": "itemId",
							"type": "uint256"
						},
						{
							"internalType": "uint256",
							"name": "tokenId",
							"type": "uint256"
						},
						{
							"internalType": "address",
							"name": "seller",
							"type": "address"
						},
						{
							"internalType": "address",
							"name": "owner",
							"type": "address"
						},
						{
							"internalType": "uint256",
							"name": "price",
							"type": "uint256"
						},
						{
							"internalType": "enum MarketplaceStorage.ItemStatus",
							"name": "status",
							"type": "uint8"
						}
					],
					"stateMutability": "view",
					"type": "function"
				},
				{
					"inputs": [],
					"name": "mainNFTs",
					"outputs": [
						{
							"internalType": "contract IERC721",
							"name": "",
							"type": "address"
						}
					],
					"stateMutability": "view",
					"type": "function"
				},
				{
					"inputs": [],
					"name": "mainToken",
					"outputs": [
						{
							"internalType": "contract IERC20",
							"name": "",
							"type": "address"
						}
					],
					"stateMutability": "view",
					"type": "function"
				}
			],
			"devdoc": {
				"kind": "dev",
				"methods": {},
				"version": 1
			},
			"evm": {
				"assembly": "    /* \"contracts/NFTContract3/Market.sol\":15627:17105  contract MarketplaceStorage {... */\n  mstore(0x40, 0x80)\n  callvalue\n  dup1\n  iszero\n  tag_1\n  jumpi\n  0x00\n  dup1\n  revert\ntag_1:\n  pop\n  dataSize(sub_0)\n  dup1\n  dataOffset(sub_0)\n  0x00\n  codecopy\n  0x00\n  return\nstop\n\nsub_0: assembly {\n        /* \"contracts/NFTContract3/Market.sol\":15627:17105  contract MarketplaceStorage {... */\n      mstore(0x40, 0x80)\n      callvalue\n      dup1\n      iszero\n      tag_1\n      jumpi\n      0x00\n      dup1\n      revert\n    tag_1:\n      pop\n      jumpi(tag_2, lt(calldatasize, 0x04))\n      shr(0xe0, calldataload(0x00))\n      dup1\n      0x85a8b36c\n      gt\n      tag_12\n      jumpi\n      dup1\n      0x85a8b36c\n      eq\n      tag_7\n      jumpi\n      dup1\n      0xb7a60c7e\n      eq\n      tag_8\n      jumpi\n      dup1\n      0xc45a0155\n      eq\n      tag_9\n      jumpi\n      dup1\n      0xf55de0c7\n      eq\n      tag_10\n      jumpi\n      dup1\n      0xff68fa6e\n      eq\n      tag_11\n      jumpi\n      jump(tag_2)\n    tag_12:\n      dup1\n      0x2b4c32be\n      eq\n      tag_3\n      jumpi\n      dup1\n      0x3fc15f15\n      eq\n      tag_4\n      jumpi\n      dup1\n      0x517bd451\n      eq\n      tag_5\n      jumpi\n      dup1\n      0x5c80a435\n      eq\n      tag_6\n      jumpi\n    tag_2:\n      0x00\n      dup1\n      revert\n        /* \"contracts/NFTContract3/Market.sol\":15910:15970  bytes4 public constant ERC721_Interface = bytes4(0x80ac58cd) */\n    tag_3:\n      tag_13\n      tag_14\n      jump\t// in\n    tag_13:\n      mload(0x40)\n      tag_15\n      swap2\n      swap1\n      tag_16\n      jump\t// in\n    tag_15:\n      mload(0x40)\n      dup1\n      swap2\n      sub\n      swap1\n      return\n        /* \"contracts/NFTContract3/Market.sol\":16171:16194  IERC20 public mainToken */\n    tag_4:\n      tag_17\n      tag_18\n      jump\t// in\n    tag_17:\n      mload(0x40)\n      tag_19\n      swap2\n      swap1\n      tag_20\n      jump\t// in\n    tag_19:\n      mload(0x40)\n      dup1\n      swap2\n      sub\n      swap1\n      return\n        /* \"contracts/NFTContract3/Market.sol\":15871:15903  MarketItem public allMarketItems */\n    tag_5:\n      tag_21\n      tag_22\n      jump\t// in\n    tag_21:\n      mload(0x40)\n      tag_23\n      swap7\n      swap6\n      swap5\n      swap4\n      swap3\n      swap2\n      swap1\n      tag_24\n      jump\t// in\n    tag_23:\n      mload(0x40)\n      dup1\n      swap2\n      sub\n      swap1\n      return\n        /* \"contracts/NFTContract3/Market.sol\":16101:16164  mapping(address => mapping(uint256 => MarketItem)) public items */\n    tag_6:\n      tag_25\n      0x04\n      dup1\n      calldatasize\n      sub\n      dup2\n      add\n      swap1\n      tag_26\n      swap2\n      swap1\n      tag_27\n      jump\t// in\n    tag_26:\n      tag_28\n      jump\t// in\n    tag_25:\n      mload(0x40)\n      tag_29\n      swap7\n      swap6\n      swap5\n      swap4\n      swap3\n      swap2\n      swap1\n      tag_24\n      jump\t// in\n    tag_29:\n      mload(0x40)\n      dup1\n      swap2\n      sub\n      swap1\n      return\n        /* \"contracts/NFTContract3/Market.sol\":16259:16285  uint8 public bnbFeePercent */\n    tag_7:\n      tag_30\n      tag_31\n      jump\t// in\n    tag_30:\n      mload(0x40)\n      tag_32\n      swap2\n      swap1\n      tag_33\n      jump\t// in\n    tag_32:\n      mload(0x40)\n      dup1\n      swap2\n      sub\n      swap1\n      return\n        /* \"contracts/NFTContract3/Market.sol\":16291:16318  uint8 public antaFeePercent */\n    tag_8:\n      tag_34\n      tag_35\n      jump\t// in\n    tag_34:\n      mload(0x40)\n      tag_36\n      swap2\n      swap1\n      tag_33\n      jump\t// in\n    tag_36:\n      mload(0x40)\n      dup1\n      swap2\n      sub\n      swap1\n      return\n        /* \"contracts/NFTContract3/Market.sol\":16200:16223  IFactory public factory */\n    tag_9:\n      tag_37\n      tag_38\n      jump\t// in\n    tag_37:\n      mload(0x40)\n      tag_39\n      swap2\n      swap1\n      tag_40\n      jump\t// in\n    tag_39:\n      mload(0x40)\n      dup1\n      swap2\n      sub\n      swap1\n      return\n        /* \"contracts/NFTContract3/Market.sol\":16229:16252  IERC721 public mainNFTs */\n    tag_10:\n      tag_41\n      tag_42\n      jump\t// in\n    tag_41:\n      mload(0x40)\n      tag_43\n      swap2\n      swap1\n      tag_44\n      jump\t// in\n    tag_43:\n      mload(0x40)\n      dup1\n      swap2\n      sub\n      swap1\n      return\n        /* \"contracts/NFTContract3/Market.sol\":15977:16024  mapping (uint256 => MarketItem) public allItems */\n    tag_11:\n      tag_45\n      0x04\n      dup1\n      calldatasize\n      sub\n      dup2\n      add\n      swap1\n      tag_46\n      swap2\n      swap1\n      tag_47\n      jump\t// in\n    tag_46:\n      tag_48\n      jump\t// in\n    tag_45:\n      mload(0x40)\n      tag_49\n      swap7\n      swap6\n      swap5\n      swap4\n      swap3\n      swap2\n      swap1\n      tag_24\n      jump\t// in\n    tag_49:\n      mload(0x40)\n      dup1\n      swap2\n      sub\n      swap1\n      return\n        /* \"contracts/NFTContract3/Market.sol\":15910:15970  bytes4 public constant ERC721_Interface = bytes4(0x80ac58cd) */\n    tag_14:\n        /* \"contracts/NFTContract3/Market.sol\":15959:15969  0x80ac58cd */\n      0x80ac58cd\n        /* \"contracts/NFTContract3/Market.sol\":15952:15970  bytes4(0x80ac58cd) */\n      0xe0\n      shl\n        /* \"contracts/NFTContract3/Market.sol\":15910:15970  bytes4 public constant ERC721_Interface = bytes4(0x80ac58cd) */\n      dup2\n      jump\t// out\n        /* \"contracts/NFTContract3/Market.sol\":16171:16194  IERC20 public mainToken */\n    tag_18:\n      0x08\n      0x00\n      swap1\n      sload\n      swap1\n      0x0100\n      exp\n      swap1\n      div\n      0xffffffffffffffffffffffffffffffffffffffff\n      and\n      dup2\n      jump\t// out\n        /* \"contracts/NFTContract3/Market.sol\":15871:15903  MarketItem public allMarketItems */\n    tag_22:\n      0x00\n      dup1\n      0x00\n      add\n      sload\n      swap1\n      dup1\n      0x01\n      add\n      sload\n      swap1\n      dup1\n      0x02\n      add\n      0x00\n      swap1\n      sload\n      swap1\n      0x0100\n      exp\n      swap1\n      div\n      0xffffffffffffffffffffffffffffffffffffffff\n      and\n      swap1\n      dup1\n      0x03\n      add\n      0x00\n      swap1\n      sload\n      swap1\n      0x0100\n      exp\n      swap1\n      div\n      0xffffffffffffffffffffffffffffffffffffffff\n      and\n      swap1\n      dup1\n      0x04\n      add\n      sload\n      swap1\n      dup1\n      0x05\n      add\n      0x00\n      swap1\n      sload\n      swap1\n      0x0100\n      exp\n      swap1\n      div\n      0xff\n      and\n      swap1\n      pop\n      dup7\n      jump\t// out\n        /* \"contracts/NFTContract3/Market.sol\":16101:16164  mapping(address => mapping(uint256 => MarketItem)) public items */\n    tag_28:\n      mstore(0x20, 0x07)\n      dup2\n      0x00\n      mstore\n      mstore(0x20, keccak256(0x00, 0x40))\n      dup1\n      0x00\n      mstore\n      keccak256(0x00, 0x40)\n      0x00\n      swap2\n      pop\n      swap2\n      pop\n      pop\n      dup1\n      0x00\n      add\n      sload\n      swap1\n      dup1\n      0x01\n      add\n      sload\n      swap1\n      dup1\n      0x02\n      add\n      0x00\n      swap1\n      sload\n      swap1\n      0x0100\n      exp\n      swap1\n      div\n      0xffffffffffffffffffffffffffffffffffffffff\n      and\n      swap1\n      dup1\n      0x03\n      add\n      0x00\n      swap1\n      sload\n      swap1\n      0x0100\n      exp\n      swap1\n      div\n      0xffffffffffffffffffffffffffffffffffffffff\n      and\n      swap1\n      dup1\n      0x04\n      add\n      sload\n      swap1\n      dup1\n      0x05\n      add\n      0x00\n      swap1\n      sload\n      swap1\n      0x0100\n      exp\n      swap1\n      div\n      0xff\n      and\n      swap1\n      pop\n      dup7\n      jump\t// out\n        /* \"contracts/NFTContract3/Market.sol\":16259:16285  uint8 public bnbFeePercent */\n    tag_31:\n      0x0a\n      0x14\n      swap1\n      sload\n      swap1\n      0x0100\n      exp\n      swap1\n      div\n      0xff\n      and\n      dup2\n      jump\t// out\n        /* \"contracts/NFTContract3/Market.sol\":16291:16318  uint8 public antaFeePercent */\n    tag_35:\n      0x0a\n      0x15\n      swap1\n      sload\n      swap1\n      0x0100\n      exp\n      swap1\n      div\n      0xff\n      and\n      dup2\n      jump\t// out\n        /* \"contracts/NFTContract3/Market.sol\":16200:16223  IFactory public factory */\n    tag_38:\n      0x09\n      0x00\n      swap1\n      sload\n      swap1\n      0x0100\n      exp\n      swap1\n      div\n      0xffffffffffffffffffffffffffffffffffffffff\n      and\n      dup2\n      jump\t// out\n        /* \"contracts/NFTContract3/Market.sol\":16229:16252  IERC721 public mainNFTs */\n    tag_42:\n      0x0a\n      0x00\n      swap1\n      sload\n      swap1\n      0x0100\n      exp\n      swap1\n      div\n      0xffffffffffffffffffffffffffffffffffffffff\n      and\n      dup2\n      jump\t// out\n        /* \"contracts/NFTContract3/Market.sol\":15977:16024  mapping (uint256 => MarketItem) public allItems */\n    tag_48:\n      mstore(0x20, 0x06)\n      dup1\n      0x00\n      mstore\n      keccak256(0x00, 0x40)\n      0x00\n      swap2\n      pop\n      swap1\n      pop\n      dup1\n      0x00\n      add\n      sload\n      swap1\n      dup1\n      0x01\n      add\n      sload\n      swap1\n      dup1\n      0x02\n      add\n      0x00\n      swap1\n      sload\n      swap1\n      0x0100\n      exp\n      swap1\n      div\n      0xffffffffffffffffffffffffffffffffffffffff\n      and\n      swap1\n      dup1\n      0x03\n      add\n      0x00\n      swap1\n      sload\n      swap1\n      0x0100\n      exp\n      swap1\n      div\n      0xffffffffffffffffffffffffffffffffffffffff\n      and\n      swap1\n      dup1\n      0x04\n      add\n      sload\n      swap1\n      dup1\n      0x05\n      add\n      0x00\n      swap1\n      sload\n      swap1\n      0x0100\n      exp\n      swap1\n      div\n      0xff\n      and\n      swap1\n      pop\n      dup7\n      jump\t// out\n        /* \"#utility.yul\":7:156   */\n    tag_50:\n        /* \"#utility.yul\":43:50   */\n      0x00\n        /* \"#utility.yul\":83:149   */\n      0xffffffff00000000000000000000000000000000000000000000000000000000\n        /* \"#utility.yul\":76:81   */\n      dup3\n        /* \"#utility.yul\":72:150   */\n      and\n        /* \"#utility.yul\":61:150   */\n      swap1\n      pop\n        /* \"#utility.yul\":7:156   */\n      swap2\n      swap1\n      pop\n      jump\t// out\n        /* \"#utility.yul\":162:277   */\n    tag_51:\n        /* \"#utility.yul\":247:270   */\n      tag_83\n        /* \"#utility.yul\":264:269   */\n      dup2\n        /* \"#utility.yul\":247:270   */\n      tag_50\n      jump\t// in\n    tag_83:\n        /* \"#utility.yul\":242:245   */\n      dup3\n        /* \"#utility.yul\":235:271   */\n      mstore\n        /* \"#utility.yul\":162:277   */\n      pop\n      pop\n      jump\t// out\n        /* \"#utility.yul\":283:501   */\n    tag_16:\n        /* \"#utility.yul\":374:378   */\n      0x00\n        /* \"#utility.yul\":412:414   */\n      0x20\n        /* \"#utility.yul\":401:410   */\n      dup3\n        /* \"#utility.yul\":397:415   */\n      add\n        /* \"#utility.yul\":389:415   */\n      swap1\n      pop\n        /* \"#utility.yul\":425:494   */\n      tag_85\n        /* \"#utility.yul\":491:492   */\n      0x00\n        /* \"#utility.yul\":480:489   */\n      dup4\n        /* \"#utility.yul\":476:493   */\n      add\n        /* \"#utility.yul\":467:473   */\n      dup5\n        /* \"#utility.yul\":425:494   */\n      tag_51\n      jump\t// in\n    tag_85:\n        /* \"#utility.yul\":283:501   */\n      swap3\n      swap2\n      pop\n      pop\n      jump\t// out\n        /* \"#utility.yul\":507:633   */\n    tag_52:\n        /* \"#utility.yul\":544:551   */\n      0x00\n        /* \"#utility.yul\":584:626   */\n      0xffffffffffffffffffffffffffffffffffffffff\n        /* \"#utility.yul\":577:582   */\n      dup3\n        /* \"#utility.yul\":573:627   */\n      and\n        /* \"#utility.yul\":562:627   */\n      swap1\n      pop\n        /* \"#utility.yul\":507:633   */\n      swap2\n      swap1\n      pop\n      jump\t// out\n        /* \"#utility.yul\":639:699   */\n    tag_53:\n        /* \"#utility.yul\":667:670   */\n      0x00\n        /* \"#utility.yul\":688:693   */\n      dup2\n        /* \"#utility.yul\":681:693   */\n      swap1\n      pop\n        /* \"#utility.yul\":639:699   */\n      swap2\n      swap1\n      pop\n      jump\t// out\n        /* \"#utility.yul\":705:847   */\n    tag_54:\n        /* \"#utility.yul\":755:764   */\n      0x00\n        /* \"#utility.yul\":788:841   */\n      tag_89\n        /* \"#utility.yul\":806:840   */\n      tag_90\n        /* \"#utility.yul\":815:839   */\n      tag_91\n        /* \"#utility.yul\":833:838   */\n      dup5\n        /* \"#utility.yul\":815:839   */\n      tag_52\n      jump\t// in\n    tag_91:\n        /* \"#utility.yul\":806:840   */\n      tag_53\n      jump\t// in\n    tag_90:\n        /* \"#utility.yul\":788:841   */\n      tag_52\n      jump\t// in\n    tag_89:\n        /* \"#utility.yul\":775:841   */\n      swap1\n      pop\n        /* \"#utility.yul\":705:847   */\n      swap2\n      swap1\n      pop\n      jump\t// out\n        /* \"#utility.yul\":853:979   */\n    tag_55:\n        /* \"#utility.yul\":903:912   */\n      0x00\n        /* \"#utility.yul\":936:973   */\n      tag_93\n        /* \"#utility.yul\":967:972   */\n      dup3\n        /* \"#utility.yul\":936:973   */\n      tag_54\n      jump\t// in\n    tag_93:\n        /* \"#utility.yul\":923:973   */\n      swap1\n      pop\n        /* \"#utility.yul\":853:979   */\n      swap2\n      swap1\n      pop\n      jump\t// out\n        /* \"#utility.yul\":985:1125   */\n    tag_56:\n        /* \"#utility.yul\":1049:1058   */\n      0x00\n        /* \"#utility.yul\":1082:1119   */\n      tag_95\n        /* \"#utility.yul\":1113:1118   */\n      dup3\n        /* \"#utility.yul\":1082:1119   */\n      tag_55\n      jump\t// in\n    tag_95:\n        /* \"#utility.yul\":1069:1119   */\n      swap1\n      pop\n        /* \"#utility.yul\":985:1125   */\n      swap2\n      swap1\n      pop\n      jump\t// out\n        /* \"#utility.yul\":1131:1290   */\n    tag_57:\n        /* \"#utility.yul\":1232:1283   */\n      tag_97\n        /* \"#utility.yul\":1277:1282   */\n      dup2\n        /* \"#utility.yul\":1232:1283   */\n      tag_56\n      jump\t// in\n    tag_97:\n        /* \"#utility.yul\":1227:1230   */\n      dup3\n        /* \"#utility.yul\":1220:1284   */\n      mstore\n        /* \"#utility.yul\":1131:1290   */\n      pop\n      pop\n      jump\t// out\n        /* \"#utility.yul\":1296:1546   */\n    tag_20:\n        /* \"#utility.yul\":1403:1407   */\n      0x00\n        /* \"#utility.yul\":1441:1443   */\n      0x20\n        /* \"#utility.yul\":1430:1439   */\n      dup3\n        /* \"#utility.yul\":1426:1444   */\n      add\n        /* \"#utility.yul\":1418:1444   */\n      swap1\n      pop\n        /* \"#utility.yul\":1454:1539   */\n      tag_99\n        /* \"#utility.yul\":1536:1537   */\n      0x00\n        /* \"#utility.yul\":1525:1534   */\n      dup4\n        /* \"#utility.yul\":1521:1538   */\n      add\n        /* \"#utility.yul\":1512:1518   */\n      dup5\n        /* \"#utility.yul\":1454:1539   */\n      tag_57\n      jump\t// in\n    tag_99:\n        /* \"#utility.yul\":1296:1546   */\n      swap3\n      swap2\n      pop\n      pop\n      jump\t// out\n        /* \"#utility.yul\":1552:1629   */\n    tag_58:\n        /* \"#utility.yul\":1589:1596   */\n      0x00\n        /* \"#utility.yul\":1618:1623   */\n      dup2\n        /* \"#utility.yul\":1607:1623   */\n      swap1\n      pop\n        /* \"#utility.yul\":1552:1629   */\n      swap2\n      swap1\n      pop\n      jump\t// out\n        /* \"#utility.yul\":1635:1753   */\n    tag_59:\n        /* \"#utility.yul\":1722:1746   */\n      tag_102\n        /* \"#utility.yul\":1740:1745   */\n      dup2\n        /* \"#utility.yul\":1722:1746   */\n      tag_58\n      jump\t// in\n    tag_102:\n        /* \"#utility.yul\":1717:1720   */\n      dup3\n        /* \"#utility.yul\":1710:1747   */\n      mstore\n        /* \"#utility.yul\":1635:1753   */\n      pop\n      pop\n      jump\t// out\n        /* \"#utility.yul\":1759:1855   */\n    tag_60:\n        /* \"#utility.yul\":1796:1803   */\n      0x00\n        /* \"#utility.yul\":1825:1849   */\n      tag_104\n        /* \"#utility.yul\":1843:1848   */\n      dup3\n        /* \"#utility.yul\":1825:1849   */\n      tag_52\n      jump\t// in\n    tag_104:\n        /* \"#utility.yul\":1814:1849   */\n      swap1\n      pop\n        /* \"#utility.yul\":1759:1855   */\n      swap2\n      swap1\n      pop\n      jump\t// out\n        /* \"#utility.yul\":1861:1979   */\n    tag_61:\n        /* \"#utility.yul\":1948:1972   */\n      tag_106\n        /* \"#utility.yul\":1966:1971   */\n      dup2\n        /* \"#utility.yul\":1948:1972   */\n      tag_60\n      jump\t// in\n    tag_106:\n        /* \"#utility.yul\":1943:1946   */\n      dup3\n        /* \"#utility.yul\":1936:1973   */\n      mstore\n        /* \"#utility.yul\":1861:1979   */\n      pop\n      pop\n      jump\t// out\n        /* \"#utility.yul\":1985:2165   */\n    tag_62:\n        /* \"#utility.yul\":2033:2110   */\n      0x4e487b7100000000000000000000000000000000000000000000000000000000\n        /* \"#utility.yul\":2030:2031   */\n      0x00\n        /* \"#utility.yul\":2023:2111   */\n      mstore\n        /* \"#utility.yul\":2130:2134   */\n      0x21\n        /* \"#utility.yul\":2127:2128   */\n      0x04\n        /* \"#utility.yul\":2120:2135   */\n      mstore\n        /* \"#utility.yul\":2154:2158   */\n      0x24\n        /* \"#utility.yul\":2151:2152   */\n      0x00\n        /* \"#utility.yul\":2144:2159   */\n      revert\n        /* \"#utility.yul\":2171:2290   */\n    tag_63:\n        /* \"#utility.yul\":2258:2259   */\n      0x02\n        /* \"#utility.yul\":2251:2256   */\n      dup2\n        /* \"#utility.yul\":2248:2260   */\n      lt\n        /* \"#utility.yul\":2238:2284   */\n      tag_109\n      jumpi\n        /* \"#utility.yul\":2264:2282   */\n      tag_110\n      tag_62\n      jump\t// in\n    tag_110:\n        /* \"#utility.yul\":2238:2284   */\n    tag_109:\n        /* \"#utility.yul\":2171:2290   */\n      pop\n      jump\t// out\n        /* \"#utility.yul\":2296:2435   */\n    tag_64:\n        /* \"#utility.yul\":2347:2354   */\n      0x00\n        /* \"#utility.yul\":2376:2381   */\n      dup2\n        /* \"#utility.yul\":2365:2381   */\n      swap1\n      pop\n        /* \"#utility.yul\":2382:2429   */\n      tag_112\n        /* \"#utility.yul\":2423:2428   */\n      dup3\n        /* \"#utility.yul\":2382:2429   */\n      tag_63\n      jump\t// in\n    tag_112:\n        /* \"#utility.yul\":2296:2435   */\n      swap2\n      swap1\n      pop\n      jump\t// out\n        /* \"#utility.yul\":2441:2580   */\n    tag_65:\n        /* \"#utility.yul\":2503:2512   */\n      0x00\n        /* \"#utility.yul\":2536:2574   */\n      tag_114\n        /* \"#utility.yul\":2568:2573   */\n      dup3\n        /* \"#utility.yul\":2536:2574   */\n      tag_64\n      jump\t// in\n    tag_114:\n        /* \"#utility.yul\":2523:2574   */\n      swap1\n      pop\n        /* \"#utility.yul\":2441:2580   */\n      swap2\n      swap1\n      pop\n      jump\t// out\n        /* \"#utility.yul\":2586:2741   */\n    tag_66:\n        /* \"#utility.yul\":2685:2734   */\n      tag_116\n        /* \"#utility.yul\":2728:2733   */\n      dup2\n        /* \"#utility.yul\":2685:2734   */\n      tag_65\n      jump\t// in\n    tag_116:\n        /* \"#utility.yul\":2680:2683   */\n      dup3\n        /* \"#utility.yul\":2673:2735   */\n      mstore\n        /* \"#utility.yul\":2586:2741   */\n      pop\n      pop\n      jump\t// out\n        /* \"#utility.yul\":2747:3546   */\n    tag_24:\n        /* \"#utility.yul\":2992:2996   */\n      0x00\n        /* \"#utility.yul\":3030:3033   */\n      0xc0\n        /* \"#utility.yul\":3019:3028   */\n      dup3\n        /* \"#utility.yul\":3015:3034   */\n      add\n        /* \"#utility.yul\":3007:3034   */\n      swap1\n      pop\n        /* \"#utility.yul\":3044:3115   */\n      tag_118\n        /* \"#utility.yul\":3112:3113   */\n      0x00\n        /* \"#utility.yul\":3101:3110   */\n      dup4\n        /* \"#utility.yul\":3097:3114   */\n      add\n        /* \"#utility.yul\":3088:3094   */\n      dup10\n        /* \"#utility.yul\":3044:3115   */\n      tag_59\n      jump\t// in\n    tag_118:\n        /* \"#utility.yul\":3125:3197   */\n      tag_119\n        /* \"#utility.yul\":3193:3195   */\n      0x20\n        /* \"#utility.yul\":3182:3191   */\n      dup4\n        /* \"#utility.yul\":3178:3196   */\n      add\n        /* \"#utility.yul\":3169:3175   */\n      dup9\n        /* \"#utility.yul\":3125:3197   */\n      tag_59\n      jump\t// in\n    tag_119:\n        /* \"#utility.yul\":3207:3279   */\n      tag_120\n        /* \"#utility.yul\":3275:3277   */\n      0x40\n        /* \"#utility.yul\":3264:3273   */\n      dup4\n        /* \"#utility.yul\":3260:3278   */\n      add\n        /* \"#utility.yul\":3251:3257   */\n      dup8\n        /* \"#utility.yul\":3207:3279   */\n      tag_61\n      jump\t// in\n    tag_120:\n        /* \"#utility.yul\":3289:3361   */\n      tag_121\n        /* \"#utility.yul\":3357:3359   */\n      0x60\n        /* \"#utility.yul\":3346:3355   */\n      dup4\n        /* \"#utility.yul\":3342:3360   */\n      add\n        /* \"#utility.yul\":3333:3339   */\n      dup7\n        /* \"#utility.yul\":3289:3361   */\n      tag_61\n      jump\t// in\n    tag_121:\n        /* \"#utility.yul\":3371:3444   */\n      tag_122\n        /* \"#utility.yul\":3439:3442   */\n      0x80\n        /* \"#utility.yul\":3428:3437   */\n      dup4\n        /* \"#utility.yul\":3424:3443   */\n      add\n        /* \"#utility.yul\":3415:3421   */\n      dup6\n        /* \"#utility.yul\":3371:3444   */\n      tag_59\n      jump\t// in\n    tag_122:\n        /* \"#utility.yul\":3454:3539   */\n      tag_123\n        /* \"#utility.yul\":3534:3537   */\n      0xa0\n        /* \"#utility.yul\":3523:3532   */\n      dup4\n        /* \"#utility.yul\":3519:3538   */\n      add\n        /* \"#utility.yul\":3510:3516   */\n      dup5\n        /* \"#utility.yul\":3454:3539   */\n      tag_66\n      jump\t// in\n    tag_123:\n        /* \"#utility.yul\":2747:3546   */\n      swap8\n      swap7\n      pop\n      pop\n      pop\n      pop\n      pop\n      pop\n      pop\n      jump\t// out\n        /* \"#utility.yul\":3633:3750   */\n    tag_68:\n        /* \"#utility.yul\":3742:3743   */\n      0x00\n        /* \"#utility.yul\":3739:3740   */\n      dup1\n        /* \"#utility.yul\":3732:3744   */\n      revert\n        /* \"#utility.yul\":3879:4001   */\n    tag_70:\n        /* \"#utility.yul\":3952:3976   */\n      tag_128\n        /* \"#utility.yul\":3970:3975   */\n      dup2\n        /* \"#utility.yul\":3952:3976   */\n      tag_60\n      jump\t// in\n    tag_128:\n        /* \"#utility.yul\":3945:3950   */\n      dup2\n        /* \"#utility.yul\":3942:3977   */\n      eq\n        /* \"#utility.yul\":3932:3995   */\n      tag_129\n      jumpi\n        /* \"#utility.yul\":3991:3992   */\n      0x00\n        /* \"#utility.yul\":3988:3989   */\n      dup1\n        /* \"#utility.yul\":3981:3993   */\n      revert\n        /* \"#utility.yul\":3932:3995   */\n    tag_129:\n        /* \"#utility.yul\":3879:4001   */\n      pop\n      jump\t// out\n        /* \"#utility.yul\":4007:4146   */\n    tag_71:\n        /* \"#utility.yul\":4053:4058   */\n      0x00\n        /* \"#utility.yul\":4091:4097   */\n      dup2\n        /* \"#utility.yul\":4078:4098   */\n      calldataload\n        /* \"#utility.yul\":4069:4098   */\n      swap1\n      pop\n        /* \"#utility.yul\":4107:4140   */\n      tag_131\n        /* \"#utility.yul\":4134:4139   */\n      dup2\n        /* \"#utility.yul\":4107:4140   */\n      tag_70\n      jump\t// in\n    tag_131:\n        /* \"#utility.yul\":4007:4146   */\n      swap3\n      swap2\n      pop\n      pop\n      jump\t// out\n        /* \"#utility.yul\":4152:4274   */\n    tag_72:\n        /* \"#utility.yul\":4225:4249   */\n      tag_133\n        /* \"#utility.yul\":4243:4248   */\n      dup2\n        /* \"#utility.yul\":4225:4249   */\n      tag_58\n      jump\t// in\n    tag_133:\n        /* \"#utility.yul\":4218:4223   */\n      dup2\n        /* \"#utility.yul\":4215:4250   */\n      eq\n        /* \"#utility.yul\":4205:4268   */\n      tag_134\n      jumpi\n        /* \"#utility.yul\":4264:4265   */\n      0x00\n        /* \"#utility.yul\":4261:4262   */\n      dup1\n        /* \"#utility.yul\":4254:4266   */\n      revert\n        /* \"#utility.yul\":4205:4268   */\n    tag_134:\n        /* \"#utility.yul\":4152:4274   */\n      pop\n      jump\t// out\n        /* \"#utility.yul\":4280:4419   */\n    tag_73:\n        /* \"#utility.yul\":4326:4331   */\n      0x00\n        /* \"#utility.yul\":4364:4370   */\n      dup2\n        /* \"#utility.yul\":4351:4371   */\n      calldataload\n        /* \"#utility.yul\":4342:4371   */\n      swap1\n      pop\n        /* \"#utility.yul\":4380:4413   */\n      tag_136\n        /* \"#utility.yul\":4407:4412   */\n      dup2\n        /* \"#utility.yul\":4380:4413   */\n      tag_72\n      jump\t// in\n    tag_136:\n        /* \"#utility.yul\":4280:4419   */\n      swap3\n      swap2\n      pop\n      pop\n      jump\t// out\n        /* \"#utility.yul\":4425:4899   */\n    tag_27:\n        /* \"#utility.yul\":4493:4499   */\n      0x00\n        /* \"#utility.yul\":4501:4507   */\n      dup1\n        /* \"#utility.yul\":4550:4552   */\n      0x40\n        /* \"#utility.yul\":4538:4547   */\n      dup4\n        /* \"#utility.yul\":4529:4536   */\n      dup6\n        /* \"#utility.yul\":4525:4548   */\n      sub\n        /* \"#utility.yul\":4521:4553   */\n      slt\n        /* \"#utility.yul\":4518:4637   */\n      iszero\n      tag_138\n      jumpi\n        /* \"#utility.yul\":4556:4635   */\n      tag_139\n      tag_68\n      jump\t// in\n    tag_139:\n        /* \"#utility.yul\":4518:4637   */\n    tag_138:\n        /* \"#utility.yul\":4676:4677   */\n      0x00\n        /* \"#utility.yul\":4701:4754   */\n      tag_140\n        /* \"#utility.yul\":4746:4753   */\n      dup6\n        /* \"#utility.yul\":4737:4743   */\n      dup3\n        /* \"#utility.yul\":4726:4735   */\n      dup7\n        /* \"#utility.yul\":4722:4744   */\n      add\n        /* \"#utility.yul\":4701:4754   */\n      tag_71\n      jump\t// in\n    tag_140:\n        /* \"#utility.yul\":4691:4754   */\n      swap3\n      pop\n        /* \"#utility.yul\":4647:4764   */\n      pop\n        /* \"#utility.yul\":4803:4805   */\n      0x20\n        /* \"#utility.yul\":4829:4882   */\n      tag_141\n        /* \"#utility.yul\":4874:4881   */\n      dup6\n        /* \"#utility.yul\":4865:4871   */\n      dup3\n        /* \"#utility.yul\":4854:4863   */\n      dup7\n        /* \"#utility.yul\":4850:4872   */\n      add\n        /* \"#utility.yul\":4829:4882   */\n      tag_73\n      jump\t// in\n    tag_141:\n        /* \"#utility.yul\":4819:4882   */\n      swap2\n      pop\n        /* \"#utility.yul\":4774:4892   */\n      pop\n        /* \"#utility.yul\":4425:4899   */\n      swap3\n      pop\n      swap3\n      swap1\n      pop\n      jump\t// out\n        /* \"#utility.yul\":4905:4991   */\n    tag_74:\n        /* \"#utility.yul\":4940:4947   */\n      0x00\n        /* \"#utility.yul\":4980:4984   */\n      0xff\n        /* \"#utility.yul\":4973:4978   */\n      dup3\n        /* \"#utility.yul\":4969:4985   */\n      and\n        /* \"#utility.yul\":4958:4985   */\n      swap1\n      pop\n        /* \"#utility.yul\":4905:4991   */\n      swap2\n      swap1\n      pop\n      jump\t// out\n        /* \"#utility.yul\":4997:5109   */\n    tag_75:\n        /* \"#utility.yul\":5080:5102   */\n      tag_144\n        /* \"#utility.yul\":5096:5101   */\n      dup2\n        /* \"#utility.yul\":5080:5102   */\n      tag_74\n      jump\t// in\n    tag_144:\n        /* \"#utility.yul\":5075:5078   */\n      dup3\n        /* \"#utility.yul\":5068:5103   */\n      mstore\n        /* \"#utility.yul\":4997:5109   */\n      pop\n      pop\n      jump\t// out\n        /* \"#utility.yul\":5115:5329   */\n    tag_33:\n        /* \"#utility.yul\":5204:5208   */\n      0x00\n        /* \"#utility.yul\":5242:5244   */\n      0x20\n        /* \"#utility.yul\":5231:5240   */\n      dup3\n        /* \"#utility.yul\":5227:5245   */\n      add\n        /* \"#utility.yul\":5219:5245   */\n      swap1\n      pop\n        /* \"#utility.yul\":5255:5322   */\n      tag_146\n        /* \"#utility.yul\":5319:5320   */\n      0x00\n        /* \"#utility.yul\":5308:5317   */\n      dup4\n        /* \"#utility.yul\":5304:5321   */\n      add\n        /* \"#utility.yul\":5295:5301   */\n      dup5\n        /* \"#utility.yul\":5255:5322   */\n      tag_75\n      jump\t// in\n    tag_146:\n        /* \"#utility.yul\":5115:5329   */\n      swap3\n      swap2\n      pop\n      pop\n      jump\t// out\n        /* \"#utility.yul\":5335:5477   */\n    tag_76:\n        /* \"#utility.yul\":5401:5410   */\n      0x00\n        /* \"#utility.yul\":5434:5471   */\n      tag_148\n        /* \"#utility.yul\":5465:5470   */\n      dup3\n        /* \"#utility.yul\":5434:5471   */\n      tag_55\n      jump\t// in\n    tag_148:\n        /* \"#utility.yul\":5421:5471   */\n      swap1\n      pop\n        /* \"#utility.yul\":5335:5477   */\n      swap2\n      swap1\n      pop\n      jump\t// out\n        /* \"#utility.yul\":5483:5646   */\n    tag_77:\n        /* \"#utility.yul\":5586:5639   */\n      tag_150\n        /* \"#utility.yul\":5633:5638   */\n      dup2\n        /* \"#utility.yul\":5586:5639   */\n      tag_76\n      jump\t// in\n    tag_150:\n        /* \"#utility.yul\":5581:5584   */\n      dup3\n        /* \"#utility.yul\":5574:5640   */\n      mstore\n        /* \"#utility.yul\":5483:5646   */\n      pop\n      pop\n      jump\t// out\n        /* \"#utility.yul\":5652:5906   */\n    tag_40:\n        /* \"#utility.yul\":5761:5765   */\n      0x00\n        /* \"#utility.yul\":5799:5801   */\n      0x20\n        /* \"#utility.yul\":5788:5797   */\n      dup3\n        /* \"#utility.yul\":5784:5802   */\n      add\n        /* \"#utility.yul\":5776:5802   */\n      swap1\n      pop\n        /* \"#utility.yul\":5812:5899   */\n      tag_152\n        /* \"#utility.yul\":5896:5897   */\n      0x00\n        /* \"#utility.yul\":5885:5894   */\n      dup4\n        /* \"#utility.yul\":5881:5898   */\n      add\n        /* \"#utility.yul\":5872:5878   */\n      dup5\n        /* \"#utility.yul\":5812:5899   */\n      tag_77\n      jump\t// in\n    tag_152:\n        /* \"#utility.yul\":5652:5906   */\n      swap3\n      swap2\n      pop\n      pop\n      jump\t// out\n        /* \"#utility.yul\":5912:6053   */\n    tag_78:\n        /* \"#utility.yul\":5977:5986   */\n      0x00\n        /* \"#utility.yul\":6010:6047   */\n      tag_154\n        /* \"#utility.yul\":6041:6046   */\n      dup3\n        /* \"#utility.yul\":6010:6047   */\n      tag_55\n      jump\t// in\n    tag_154:\n        /* \"#utility.yul\":5997:6047   */\n      swap1\n      pop\n        /* \"#utility.yul\":5912:6053   */\n      swap2\n      swap1\n      pop\n      jump\t// out\n        /* \"#utility.yul\":6059:6220   */\n    tag_79:\n        /* \"#utility.yul\":6161:6213   */\n      tag_156\n        /* \"#utility.yul\":6207:6212   */\n      dup2\n        /* \"#utility.yul\":6161:6213   */\n      tag_78\n      jump\t// in\n    tag_156:\n        /* \"#utility.yul\":6156:6159   */\n      dup3\n        /* \"#utility.yul\":6149:6214   */\n      mstore\n        /* \"#utility.yul\":6059:6220   */\n      pop\n      pop\n      jump\t// out\n        /* \"#utility.yul\":6226:6478   */\n    tag_44:\n        /* \"#utility.yul\":6334:6338   */\n      0x00\n        /* \"#utility.yul\":6372:6374   */\n      0x20\n        /* \"#utility.yul\":6361:6370   */\n      dup3\n        /* \"#utility.yul\":6357:6375   */\n      add\n        /* \"#utility.yul\":6349:6375   */\n      swap1\n      pop\n        /* \"#utility.yul\":6385:6471   */\n      tag_158\n        /* \"#utility.yul\":6468:6469   */\n      0x00\n        /* \"#utility.yul\":6457:6466   */\n      dup4\n        /* \"#utility.yul\":6453:6470   */\n      add\n        /* \"#utility.yul\":6444:6450   */\n      dup5\n        /* \"#utility.yul\":6385:6471   */\n      tag_79\n      jump\t// in\n    tag_158:\n        /* \"#utility.yul\":6226:6478   */\n      swap3\n      swap2\n      pop\n      pop\n      jump\t// out\n        /* \"#utility.yul\":6484:6813   */\n    tag_47:\n        /* \"#utility.yul\":6543:6549   */\n      0x00\n        /* \"#utility.yul\":6592:6594   */\n      0x20\n        /* \"#utility.yul\":6580:6589   */\n      dup3\n        /* \"#utility.yul\":6571:6578   */\n      dup5\n        /* \"#utility.yul\":6567:6590   */\n      sub\n        /* \"#utility.yul\":6563:6595   */\n      slt\n        /* \"#utility.yul\":6560:6679   */\n      iszero\n      tag_160\n      jumpi\n        /* \"#utility.yul\":6598:6677   */\n      tag_161\n      tag_68\n      jump\t// in\n    tag_161:\n        /* \"#utility.yul\":6560:6679   */\n    tag_160:\n        /* \"#utility.yul\":6718:6719   */\n      0x00\n        /* \"#utility.yul\":6743:6796   */\n      tag_162\n        /* \"#utility.yul\":6788:6795   */\n      dup5\n        /* \"#utility.yul\":6779:6785   */\n      dup3\n        /* \"#utility.yul\":6768:6777   */\n      dup6\n        /* \"#utility.yul\":6764:6786   */\n      add\n        /* \"#utility.yul\":6743:6796   */\n      tag_73\n      jump\t// in\n    tag_162:\n        /* \"#utility.yul\":6733:6796   */\n      swap2\n      pop\n        /* \"#utility.yul\":6689:6806   */\n      pop\n        /* \"#utility.yul\":6484:6813   */\n      swap3\n      swap2\n      pop\n      pop\n      jump\t// out\n\n    auxdata: 0xa2646970667358221220c951296b26a6a4aaae75a4b3917f4a080c8de2ccf9ab7d5174261245031daba264736f6c634300080d0033\n}\n",
				"bytecode": {
					"linkReferences": {},
					"object": "608060405234801561001057600080fd5b506107c3806100206000396000f3fe608060405234801561001057600080fd5b50600436106100935760003560e01c806385a8b36c1161006657806385a8b36c1461012c578063b7a60c7e1461014a578063c45a015514610168578063f55de0c714610186578063ff68fa6e146101a457610093565b80632b4c32be146100985780633fc15f15146100b6578063517bd451146100d45780635c80a435146100f7575b600080fd5b6100a06101d9565b6040516100ad919061044d565b60405180910390f35b6100be6101e4565b6040516100cb91906104e7565b60405180910390f35b6100dc61020a565b6040516100ee969594939291906105b3565b60405180910390f35b610111600480360381019061010c9190610671565b610281565b604051610123969594939291906105b3565b60405180910390f35b610134610317565b60405161014191906106cd565b60405180910390f35b61015261032a565b60405161015f91906106cd565b60405180910390f35b61017061033d565b60405161017d9190610709565b60405180910390f35b61018e610363565b60405161019b9190610745565b60405180910390f35b6101be60048036038101906101b99190610760565b610389565b6040516101d0969594939291906105b3565b60405180910390f35b6380ac58cd60e01b81565b600860009054906101000a900473ffffffffffffffffffffffffffffffffffffffff1681565b60008060000154908060010154908060020160009054906101000a900473ffffffffffffffffffffffffffffffffffffffff16908060030160009054906101000a900473ffffffffffffffffffffffffffffffffffffffff16908060040154908060050160009054906101000a900460ff16905086565b6007602052816000526040600020602052806000526040600020600091509150508060000154908060010154908060020160009054906101000a900473ffffffffffffffffffffffffffffffffffffffff16908060030160009054906101000a900473ffffffffffffffffffffffffffffffffffffffff16908060040154908060050160009054906101000a900460ff16905086565b600a60149054906101000a900460ff1681565b600a60159054906101000a900460ff1681565b600960009054906101000a900473ffffffffffffffffffffffffffffffffffffffff1681565b600a60009054906101000a900473ffffffffffffffffffffffffffffffffffffffff1681565b60066020528060005260406000206000915090508060000154908060010154908060020160009054906101000a900473ffffffffffffffffffffffffffffffffffffffff16908060030160009054906101000a900473ffffffffffffffffffffffffffffffffffffffff16908060040154908060050160009054906101000a900460ff16905086565b60007fffffffff0000000000000000000000000000000000000000000000000000000082169050919050565b61044781610412565b82525050565b6000602082019050610462600083018461043e565b92915050565b600073ffffffffffffffffffffffffffffffffffffffff82169050919050565b6000819050919050565b60006104ad6104a86104a384610468565b610488565b610468565b9050919050565b60006104bf82610492565b9050919050565b60006104d1826104b4565b9050919050565b6104e1816104c6565b82525050565b60006020820190506104fc60008301846104d8565b92915050565b6000819050919050565b61051581610502565b82525050565b600061052682610468565b9050919050565b6105368161051b565b82525050565b7f4e487b7100000000000000000000000000000000000000000000000000000000600052602160045260246000fd5b6002811061057c5761057b61053c565b5b50565b600081905061058d8261056b565b919050565b600061059d8261057f565b9050919050565b6105ad81610592565b82525050565b600060c0820190506105c8600083018961050c565b6105d5602083018861050c565b6105e2604083018761052d565b6105ef606083018661052d565b6105fc608083018561050c565b61060960a08301846105a4565b979650505050505050565b600080fd5b6106228161051b565b811461062d57600080fd5b50565b60008135905061063f81610619565b92915050565b61064e81610502565b811461065957600080fd5b50565b60008135905061066b81610645565b92915050565b6000806040838503121561068857610687610614565b5b600061069685828601610630565b92505060206106a78582860161065c565b9150509250929050565b600060ff82169050919050565b6106c7816106b1565b82525050565b60006020820190506106e260008301846106be565b92915050565b60006106f3826104b4565b9050919050565b610703816106e8565b82525050565b600060208201905061071e60008301846106fa565b92915050565b600061072f826104b4565b9050919050565b61073f81610724565b82525050565b600060208201905061075a6000830184610736565b92915050565b60006020828403121561077657610775610614565b5b60006107848482850161065c565b9150509291505056fea2646970667358221220c951296b26a6a4aaae75a4b3917f4a080c8de2ccf9ab7d5174261245031daba264736f6c634300080d0033",
					"opcodes": "PUSH1 0x80 PUSH1 0x40 MSTORE CALLVALUE DUP1 ISZERO PUSH2 0x10 JUMPI PUSH1 0x0 DUP1 REVERT JUMPDEST POP PUSH2 0x7C3 DUP1 PUSH2 0x20 PUSH1 0x0 CODECOPY PUSH1 0x0 RETURN INVALID PUSH1 0x80 PUSH1 0x40 MSTORE CALLVALUE DUP1 ISZERO PUSH2 0x10 JUMPI PUSH1 0x0 DUP1 REVERT JUMPDEST POP PUSH1 0x4 CALLDATASIZE LT PUSH2 0x93 JUMPI PUSH1 0x0 CALLDATALOAD PUSH1 0xE0 SHR DUP1 PUSH4 0x85A8B36C GT PUSH2 0x66 JUMPI DUP1 PUSH4 0x85A8B36C EQ PUSH2 0x12C JUMPI DUP1 PUSH4 0xB7A60C7E EQ PUSH2 0x14A JUMPI DUP1 PUSH4 0xC45A0155 EQ PUSH2 0x168 JUMPI DUP1 PUSH4 0xF55DE0C7 EQ PUSH2 0x186 JUMPI DUP1 PUSH4 0xFF68FA6E EQ PUSH2 0x1A4 JUMPI PUSH2 0x93 JUMP JUMPDEST DUP1 PUSH4 0x2B4C32BE EQ PUSH2 0x98 JUMPI DUP1 PUSH4 0x3FC15F15 EQ PUSH2 0xB6 JUMPI DUP1 PUSH4 0x517BD451 EQ PUSH2 0xD4 JUMPI DUP1 PUSH4 0x5C80A435 EQ PUSH2 0xF7 JUMPI JUMPDEST PUSH1 0x0 DUP1 REVERT JUMPDEST PUSH2 0xA0 PUSH2 0x1D9 JUMP JUMPDEST PUSH1 0x40 MLOAD PUSH2 0xAD SWAP2 SWAP1 PUSH2 0x44D JUMP JUMPDEST PUSH1 0x40 MLOAD DUP1 SWAP2 SUB SWAP1 RETURN JUMPDEST PUSH2 0xBE PUSH2 0x1E4 JUMP JUMPDEST PUSH1 0x40 MLOAD PUSH2 0xCB SWAP2 SWAP1 PUSH2 0x4E7 JUMP JUMPDEST PUSH1 0x40 MLOAD DUP1 SWAP2 SUB SWAP1 RETURN JUMPDEST PUSH2 0xDC PUSH2 0x20A JUMP JUMPDEST PUSH1 0x40 MLOAD PUSH2 0xEE SWAP7 SWAP6 SWAP5 SWAP4 SWAP3 SWAP2 SWAP1 PUSH2 0x5B3 JUMP JUMPDEST PUSH1 0x40 MLOAD DUP1 SWAP2 SUB SWAP1 RETURN JUMPDEST PUSH2 0x111 PUSH1 0x4 DUP1 CALLDATASIZE SUB DUP2 ADD SWAP1 PUSH2 0x10C SWAP2 SWAP1 PUSH2 0x671 JUMP JUMPDEST PUSH2 0x281 JUMP JUMPDEST PUSH1 0x40 MLOAD PUSH2 0x123 SWAP7 SWAP6 SWAP5 SWAP4 SWAP3 SWAP2 SWAP1 PUSH2 0x5B3 JUMP JUMPDEST PUSH1 0x40 MLOAD DUP1 SWAP2 SUB SWAP1 RETURN JUMPDEST PUSH2 0x134 PUSH2 0x317 JUMP JUMPDEST PUSH1 0x40 MLOAD PUSH2 0x141 SWAP2 SWAP1 PUSH2 0x6CD JUMP JUMPDEST PUSH1 0x40 MLOAD DUP1 SWAP2 SUB SWAP1 RETURN JUMPDEST PUSH2 0x152 PUSH2 0x32A JUMP JUMPDEST PUSH1 0x40 MLOAD PUSH2 0x15F SWAP2 SWAP1 PUSH2 0x6CD JUMP JUMPDEST PUSH1 0x40 MLOAD DUP1 SWAP2 SUB SWAP1 RETURN JUMPDEST PUSH2 0x170 PUSH2 0x33D JUMP JUMPDEST PUSH1 0x40 MLOAD PUSH2 0x17D SWAP2 SWAP1 PUSH2 0x709 JUMP JUMPDEST PUSH1 0x40 MLOAD DUP1 SWAP2 SUB SWAP1 RETURN JUMPDEST PUSH2 0x18E PUSH2 0x363 JUMP JUMPDEST PUSH1 0x40 MLOAD PUSH2 0x19B SWAP2 SWAP1 PUSH2 0x745 JUMP JUMPDEST PUSH1 0x40 MLOAD DUP1 SWAP2 SUB SWAP1 RETURN JUMPDEST PUSH2 0x1BE PUSH1 0x4 DUP1 CALLDATASIZE SUB DUP2 ADD SWAP1 PUSH2 0x1B9 SWAP2 SWAP1 PUSH2 0x760 JUMP JUMPDEST PUSH2 0x389 JUMP JUMPDEST PUSH1 0x40 MLOAD PUSH2 0x1D0 SWAP7 SWAP6 SWAP5 SWAP4 SWAP3 SWAP2 SWAP1 PUSH2 0x5B3 JUMP JUMPDEST PUSH1 0x40 MLOAD DUP1 SWAP2 SUB SWAP1 RETURN JUMPDEST PUSH4 0x80AC58CD PUSH1 0xE0 SHL DUP2 JUMP JUMPDEST PUSH1 0x8 PUSH1 0x0 SWAP1 SLOAD SWAP1 PUSH2 0x100 EXP SWAP1 DIV PUSH20 0xFFFFFFFFFFFFFFFFFFFFFFFFFFFFFFFFFFFFFFFF AND DUP2 JUMP JUMPDEST PUSH1 0x0 DUP1 PUSH1 0x0 ADD SLOAD SWAP1 DUP1 PUSH1 0x1 ADD SLOAD SWAP1 DUP1 PUSH1 0x2 ADD PUSH1 0x0 SWAP1 SLOAD SWAP1 PUSH2 0x100 EXP SWAP1 DIV PUSH20 0xFFFFFFFFFFFFFFFFFFFFFFFFFFFFFFFFFFFFFFFF AND SWAP1 DUP1 PUSH1 0x3 ADD PUSH1 0x0 SWAP1 SLOAD SWAP1 PUSH2 0x100 EXP SWAP1 DIV PUSH20 0xFFFFFFFFFFFFFFFFFFFFFFFFFFFFFFFFFFFFFFFF AND SWAP1 DUP1 PUSH1 0x4 ADD SLOAD SWAP1 DUP1 PUSH1 0x5 ADD PUSH1 0x0 SWAP1 SLOAD SWAP1 PUSH2 0x100 EXP SWAP1 DIV PUSH1 0xFF AND SWAP1 POP DUP7 JUMP JUMPDEST PUSH1 0x7 PUSH1 0x20 MSTORE DUP2 PUSH1 0x0 MSTORE PUSH1 0x40 PUSH1 0x0 KECCAK256 PUSH1 0x20 MSTORE DUP1 PUSH1 0x0 MSTORE PUSH1 0x40 PUSH1 0x0 KECCAK256 PUSH1 0x0 SWAP2 POP SWAP2 POP POP DUP1 PUSH1 0x0 ADD SLOAD SWAP1 DUP1 PUSH1 0x1 ADD SLOAD SWAP1 DUP1 PUSH1 0x2 ADD PUSH1 0x0 SWAP1 SLOAD SWAP1 PUSH2 0x100 EXP SWAP1 DIV PUSH20 0xFFFFFFFFFFFFFFFFFFFFFFFFFFFFFFFFFFFFFFFF AND SWAP1 DUP1 PUSH1 0x3 ADD PUSH1 0x0 SWAP1 SLOAD SWAP1 PUSH2 0x100 EXP SWAP1 DIV PUSH20 0xFFFFFFFFFFFFFFFFFFFFFFFFFFFFFFFFFFFFFFFF AND SWAP1 DUP1 PUSH1 0x4 ADD SLOAD SWAP1 DUP1 PUSH1 0x5 ADD PUSH1 0x0 SWAP1 SLOAD SWAP1 PUSH2 0x100 EXP SWAP1 DIV PUSH1 0xFF AND SWAP1 POP DUP7 JUMP JUMPDEST PUSH1 0xA PUSH1 0x14 SWAP1 SLOAD SWAP1 PUSH2 0x100 EXP SWAP1 DIV PUSH1 0xFF AND DUP2 JUMP JUMPDEST PUSH1 0xA PUSH1 0x15 SWAP1 SLOAD SWAP1 PUSH2 0x100 EXP SWAP1 DIV PUSH1 0xFF AND DUP2 JUMP JUMPDEST PUSH1 0x9 PUSH1 0x0 SWAP1 SLOAD SWAP1 PUSH2 0x100 EXP SWAP1 DIV PUSH20 0xFFFFFFFFFFFFFFFFFFFFFFFFFFFFFFFFFFFFFFFF AND DUP2 JUMP JUMPDEST PUSH1 0xA PUSH1 0x0 SWAP1 SLOAD SWAP1 PUSH2 0x100 EXP SWAP1 DIV PUSH20 0xFFFFFFFFFFFFFFFFFFFFFFFFFFFFFFFFFFFFFFFF AND DUP2 JUMP JUMPDEST PUSH1 0x6 PUSH1 0x20 MSTORE DUP1 PUSH1 0x0 MSTORE PUSH1 0x40 PUSH1 0x0 KECCAK256 PUSH1 0x0 SWAP2 POP SWAP1 POP DUP1 PUSH1 0x0 ADD SLOAD SWAP1 DUP1 PUSH1 0x1 ADD SLOAD SWAP1 DUP1 PUSH1 0x2 ADD PUSH1 0x0 SWAP1 SLOAD SWAP1 PUSH2 0x100 EXP SWAP1 DIV PUSH20 0xFFFFFFFFFFFFFFFFFFFFFFFFFFFFFFFFFFFFFFFF AND SWAP1 DUP1 PUSH1 0x3 ADD PUSH1 0x0 SWAP1 SLOAD SWAP1 PUSH2 0x100 EXP SWAP1 DIV PUSH20 0xFFFFFFFFFFFFFFFFFFFFFFFFFFFFFFFFFFFFFFFF AND SWAP1 DUP1 PUSH1 0x4 ADD SLOAD SWAP1 DUP1 PUSH1 0x5 ADD PUSH1 0x0 SWAP1 SLOAD SWAP1 PUSH2 0x100 EXP SWAP1 DIV PUSH1 0xFF AND SWAP1 POP DUP7 JUMP JUMPDEST PUSH1 0x0 PUSH32 0xFFFFFFFF00000000000000000000000000000000000000000000000000000000 DUP3 AND SWAP1 POP SWAP2 SWAP1 POP JUMP JUMPDEST PUSH2 0x447 DUP2 PUSH2 0x412 JUMP JUMPDEST DUP3 MSTORE POP POP JUMP JUMPDEST PUSH1 0x0 PUSH1 0x20 DUP3 ADD SWAP1 POP PUSH2 0x462 PUSH1 0x0 DUP4 ADD DUP5 PUSH2 0x43E JUMP JUMPDEST SWAP3 SWAP2 POP POP JUMP JUMPDEST PUSH1 0x0 PUSH20 0xFFFFFFFFFFFFFFFFFFFFFFFFFFFFFFFFFFFFFFFF DUP3 AND SWAP1 POP SWAP2 SWAP1 POP JUMP JUMPDEST PUSH1 0x0 DUP2 SWAP1 POP SWAP2 SWAP1 POP JUMP JUMPDEST PUSH1 0x0 PUSH2 0x4AD PUSH2 0x4A8 PUSH2 0x4A3 DUP5 PUSH2 0x468 JUMP JUMPDEST PUSH2 0x488 JUMP JUMPDEST PUSH2 0x468 JUMP JUMPDEST SWAP1 POP SWAP2 SWAP1 POP JUMP JUMPDEST PUSH1 0x0 PUSH2 0x4BF DUP3 PUSH2 0x492 JUMP JUMPDEST SWAP1 POP SWAP2 SWAP1 POP JUMP JUMPDEST PUSH1 0x0 PUSH2 0x4D1 DUP3 PUSH2 0x4B4 JUMP JUMPDEST SWAP1 POP SWAP2 SWAP1 POP JUMP JUMPDEST PUSH2 0x4E1 DUP2 PUSH2 0x4C6 JUMP JUMPDEST DUP3 MSTORE POP POP JUMP JUMPDEST PUSH1 0x0 PUSH1 0x20 DUP3 ADD SWAP1 POP PUSH2 0x4FC PUSH1 0x0 DUP4 ADD DUP5 PUSH2 0x4D8 JUMP JUMPDEST SWAP3 SWAP2 POP POP JUMP JUMPDEST PUSH1 0x0 DUP2 SWAP1 POP SWAP2 SWAP1 POP JUMP JUMPDEST PUSH2 0x515 DUP2 PUSH2 0x502 JUMP JUMPDEST DUP3 MSTORE POP POP JUMP JUMPDEST PUSH1 0x0 PUSH2 0x526 DUP3 PUSH2 0x468 JUMP JUMPDEST SWAP1 POP SWAP2 SWAP1 POP JUMP JUMPDEST PUSH2 0x536 DUP2 PUSH2 0x51B JUMP JUMPDEST DUP3 MSTORE POP POP JUMP JUMPDEST PUSH32 0x4E487B7100000000000000000000000000000000000000000000000000000000 PUSH1 0x0 MSTORE PUSH1 0x21 PUSH1 0x4 MSTORE PUSH1 0x24 PUSH1 0x0 REVERT JUMPDEST PUSH1 0x2 DUP2 LT PUSH2 0x57C JUMPI PUSH2 0x57B PUSH2 0x53C JUMP JUMPDEST JUMPDEST POP JUMP JUMPDEST PUSH1 0x0 DUP2 SWAP1 POP PUSH2 0x58D DUP3 PUSH2 0x56B JUMP JUMPDEST SWAP2 SWAP1 POP JUMP JUMPDEST PUSH1 0x0 PUSH2 0x59D DUP3 PUSH2 0x57F JUMP JUMPDEST SWAP1 POP SWAP2 SWAP1 POP JUMP JUMPDEST PUSH2 0x5AD DUP2 PUSH2 0x592 JUMP JUMPDEST DUP3 MSTORE POP POP JUMP JUMPDEST PUSH1 0x0 PUSH1 0xC0 DUP3 ADD SWAP1 POP PUSH2 0x5C8 PUSH1 0x0 DUP4 ADD DUP10 PUSH2 0x50C JUMP JUMPDEST PUSH2 0x5D5 PUSH1 0x20 DUP4 ADD DUP9 PUSH2 0x50C JUMP JUMPDEST PUSH2 0x5E2 PUSH1 0x40 DUP4 ADD DUP8 PUSH2 0x52D JUMP JUMPDEST PUSH2 0x5EF PUSH1 0x60 DUP4 ADD DUP7 PUSH2 0x52D JUMP JUMPDEST PUSH2 0x5FC PUSH1 0x80 DUP4 ADD DUP6 PUSH2 0x50C JUMP JUMPDEST PUSH2 0x609 PUSH1 0xA0 DUP4 ADD DUP5 PUSH2 0x5A4 JUMP JUMPDEST SWAP8 SWAP7 POP POP POP POP POP POP POP JUMP JUMPDEST PUSH1 0x0 DUP1 REVERT JUMPDEST PUSH2 0x622 DUP2 PUSH2 0x51B JUMP JUMPDEST DUP2 EQ PUSH2 0x62D JUMPI PUSH1 0x0 DUP1 REVERT JUMPDEST POP JUMP JUMPDEST PUSH1 0x0 DUP2 CALLDATALOAD SWAP1 POP PUSH2 0x63F DUP2 PUSH2 0x619 JUMP JUMPDEST SWAP3 SWAP2 POP POP JUMP JUMPDEST PUSH2 0x64E DUP2 PUSH2 0x502 JUMP JUMPDEST DUP2 EQ PUSH2 0x659 JUMPI PUSH1 0x0 DUP1 REVERT JUMPDEST POP JUMP JUMPDEST PUSH1 0x0 DUP2 CALLDATALOAD SWAP1 POP PUSH2 0x66B DUP2 PUSH2 0x645 JUMP JUMPDEST SWAP3 SWAP2 POP POP JUMP JUMPDEST PUSH1 0x0 DUP1 PUSH1 0x40 DUP4 DUP6 SUB SLT ISZERO PUSH2 0x688 JUMPI PUSH2 0x687 PUSH2 0x614 JUMP JUMPDEST JUMPDEST PUSH1 0x0 PUSH2 0x696 DUP6 DUP3 DUP7 ADD PUSH2 0x630 JUMP JUMPDEST SWAP3 POP POP PUSH1 0x20 PUSH2 0x6A7 DUP6 DUP3 DUP7 ADD PUSH2 0x65C JUMP JUMPDEST SWAP2 POP POP SWAP3 POP SWAP3 SWAP1 POP JUMP JUMPDEST PUSH1 0x0 PUSH1 0xFF DUP3 AND SWAP1 POP SWAP2 SWAP1 POP JUMP JUMPDEST PUSH2 0x6C7 DUP2 PUSH2 0x6B1 JUMP JUMPDEST DUP3 MSTORE POP POP JUMP JUMPDEST PUSH1 0x0 PUSH1 0x20 DUP3 ADD SWAP1 POP PUSH2 0x6E2 PUSH1 0x0 DUP4 ADD DUP5 PUSH2 0x6BE JUMP JUMPDEST SWAP3 SWAP2 POP POP JUMP JUMPDEST PUSH1 0x0 PUSH2 0x6F3 DUP3 PUSH2 0x4B4 JUMP JUMPDEST SWAP1 POP SWAP2 SWAP1 POP JUMP JUMPDEST PUSH2 0x703 DUP2 PUSH2 0x6E8 JUMP JUMPDEST DUP3 MSTORE POP POP JUMP JUMPDEST PUSH1 0x0 PUSH1 0x20 DUP3 ADD SWAP1 POP PUSH2 0x71E PUSH1 0x0 DUP4 ADD DUP5 PUSH2 0x6FA JUMP JUMPDEST SWAP3 SWAP2 POP POP JUMP JUMPDEST PUSH1 0x0 PUSH2 0x72F DUP3 PUSH2 0x4B4 JUMP JUMPDEST SWAP1 POP SWAP2 SWAP1 POP JUMP JUMPDEST PUSH2 0x73F DUP2 PUSH2 0x724 JUMP JUMPDEST DUP3 MSTORE POP POP JUMP JUMPDEST PUSH1 0x0 PUSH1 0x20 DUP3 ADD SWAP1 POP PUSH2 0x75A PUSH1 0x0 DUP4 ADD DUP5 PUSH2 0x736 JUMP JUMPDEST SWAP3 SWAP2 POP POP JUMP JUMPDEST PUSH1 0x0 PUSH1 0x20 DUP3 DUP5 SUB SLT ISZERO PUSH2 0x776 JUMPI PUSH2 0x775 PUSH2 0x614 JUMP JUMPDEST JUMPDEST PUSH1 0x0 PUSH2 0x784 DUP5 DUP3 DUP6 ADD PUSH2 0x65C JUMP JUMPDEST SWAP2 POP POP SWAP3 SWAP2 POP POP JUMP INVALID LOG2 PUSH5 0x6970667358 0x22 SLT KECCAK256 0xC9 MLOAD 0x29 PUSH12 0x26A6A4AAAE75A4B3917F4A08 0xC DUP14 0xE2 0xCC 0xF9 0xAB PUSH30 0x5174261245031DABA264736F6C634300080D003300000000000000000000 "
				},
				"gasEstimates": {
					"creation": {
						"codeDepositCost": "397400",
						"executionCost": "436",
						"totalCost": "397836"
					},
					"external": {
						"ERC721_Interface()": "342",
						"allItems(uint256)": "infinite",
						"allMarketItems()": "infinite",
						"antaFeePercent()": "2543",
						"bnbFeePercent()": "2521",
						"factory()": "infinite",
						"items(address,uint256)": "infinite",
						"mainNFTs()": "infinite",
						"mainToken()": "infinite"
					}
				},
				"methodIdentifiers": {
					"ERC721_Interface()": "2b4c32be",
					"allItems(uint256)": "ff68fa6e",
					"allMarketItems()": "517bd451",
					"antaFeePercent()": "b7a60c7e",
					"bnbFeePercent()": "85a8b36c",
					"factory()": "c45a0155",
					"items(address,uint256)": "5c80a435",
					"mainNFTs()": "f55de0c7",
					"mainToken()": "3fc15f15"
				}
			},
			"storageLayout": {
				"storage": [
					{
						"astId": 498,
						"contract": "contracts/NFTContract3/Market.sol:MarketplaceStorage",
						"label": "allMarketItems",
						"offset": 0,
						"slot": "0",
						"type": "t_struct(MarketItem)495_storage"
					},
					{
						"astId": 509,
						"contract": "contracts/NFTContract3/Market.sol:MarketplaceStorage",
						"label": "allItems",
						"offset": 0,
						"slot": "6",
						"type": "t_mapping(t_uint256,t_struct(MarketItem)495_storage)"
					},
					{
						"astId": 516,
						"contract": "contracts/NFTContract3/Market.sol:MarketplaceStorage",
						"label": "items",
						"offset": 0,
						"slot": "7",
						"type": "t_mapping(t_address,t_mapping(t_uint256,t_struct(MarketItem)495_storage))"
					},
					{
						"astId": 519,
						"contract": "contracts/NFTContract3/Market.sol:MarketplaceStorage",
						"label": "mainToken",
						"offset": 0,
						"slot": "8",
						"type": "t_contract(IERC20)201"
					},
					{
						"astId": 522,
						"contract": "contracts/NFTContract3/Market.sol:MarketplaceStorage",
						"label": "factory",
						"offset": 0,
						"slot": "9",
						"type": "t_contract(IFactory)477"
					},
					{
						"astId": 525,
						"contract": "contracts/NFTContract3/Market.sol:MarketplaceStorage",
						"label": "mainNFTs",
						"offset": 0,
						"slot": "10",
						"type": "t_contract(IERC721)326"
					},
					{
						"astId": 527,
						"contract": "contracts/NFTContract3/Market.sol:MarketplaceStorage",
						"label": "bnbFeePercent",
						"offset": 20,
						"slot": "10",
						"type": "t_uint8"
					},
					{
						"astId": 529,
						"contract": "contracts/NFTContract3/Market.sol:MarketplaceStorage",
						"label": "antaFeePercent",
						"offset": 21,
						"slot": "10",
						"type": "t_uint8"
					}
				],
				"types": {
					"t_address": {
						"encoding": "inplace",
						"label": "address",
						"numberOfBytes": "20"
					},
					"t_contract(IERC20)201": {
						"encoding": "inplace",
						"label": "contract IERC20",
						"numberOfBytes": "20"
					},
					"t_contract(IERC721)326": {
						"encoding": "inplace",
						"label": "contract IERC721",
						"numberOfBytes": "20"
					},
					"t_contract(IFactory)477": {
						"encoding": "inplace",
						"label": "contract IFactory",
						"numberOfBytes": "20"
					},
					"t_enum(ItemStatus)481": {
						"encoding": "inplace",
						"label": "enum MarketplaceStorage.ItemStatus",
						"numberOfBytes": "1"
					},
					"t_mapping(t_address,t_mapping(t_uint256,t_struct(MarketItem)495_storage))": {
						"encoding": "mapping",
						"key": "t_address",
						"label": "mapping(address => mapping(uint256 => struct MarketplaceStorage.MarketItem))",
						"numberOfBytes": "32",
						"value": "t_mapping(t_uint256,t_struct(MarketItem)495_storage)"
					},
					"t_mapping(t_uint256,t_struct(MarketItem)495_storage)": {
						"encoding": "mapping",
						"key": "t_uint256",
						"label": "mapping(uint256 => struct MarketplaceStorage.MarketItem)",
						"numberOfBytes": "32",
						"value": "t_struct(MarketItem)495_storage"
					},
					"t_struct(MarketItem)495_storage": {
						"encoding": "inplace",
						"label": "struct MarketplaceStorage.MarketItem",
						"members": [
							{
								"astId": 483,
								"contract": "contracts/NFTContract3/Market.sol:MarketplaceStorage",
								"label": "itemId",
								"offset": 0,
								"slot": "0",
								"type": "t_uint256"
							},
							{
								"astId": 485,
								"contract": "contracts/NFTContract3/Market.sol:MarketplaceStorage",
								"label": "tokenId",
								"offset": 0,
								"slot": "1",
								"type": "t_uint256"
							},
							{
								"astId": 487,
								"contract": "contracts/NFTContract3/Market.sol:MarketplaceStorage",
								"label": "seller",
								"offset": 0,
								"slot": "2",
								"type": "t_address"
							},
							{
								"astId": 489,
								"contract": "contracts/NFTContract3/Market.sol:MarketplaceStorage",
								"label": "owner",
								"offset": 0,
								"slot": "3",
								"type": "t_address"
							},
							{
								"astId": 491,
								"contract": "contracts/NFTContract3/Market.sol:MarketplaceStorage",
								"label": "price",
								"offset": 0,
								"slot": "4",
								"type": "t_uint256"
							},
							{
								"astId": 494,
								"contract": "contracts/NFTContract3/Market.sol:MarketplaceStorage",
								"label": "status",
								"offset": 0,
								"slot": "5",
								"type": "t_enum(ItemStatus)481"
							}
						],
						"numberOfBytes": "192"
					},
					"t_uint256": {
						"encoding": "inplace",
						"label": "uint256",
						"numberOfBytes": "32"
					},
					"t_uint8": {
						"encoding": "inplace",
						"label": "uint8",
						"numberOfBytes": "1"
					}
				}
			},
			"userdoc": {
				"kind": "user",
				"methods": {},
				"version": 1
			}
		}
	}
}