{
	"contracts/NFTContract3/SQFIFactory.sol": {
		"SQFItemFactory": {
			"abi": [
				{
					"inputs": [
						{
							"internalType": "address",
							"name": "_nftContract",
							"type": "address"
						}
					],
					"stateMutability": "nonpayable",
					"type": "constructor"
				},
				{
					"anonymous": false,
					"inputs": [
						{
							"indexed": true,
							"internalType": "address",
							"name": "user",
							"type": "address"
						},
						{
							"indexed": false,
							"internalType": "string",
							"name": "status",
							"type": "string"
						}
					],
					"name": "AcctiveAccount",
					"type": "event"
				},
				{
					"anonymous": false,
					"inputs": [
						{
							"indexed": true,
							"internalType": "address",
							"name": "owner",
							"type": "address"
						},
						{
							"indexed": false,
							"internalType": "string",
							"name": "tokenId",
							"type": "string"
						}
					],
					"name": "Burn",
					"type": "event"
				},
				{
					"anonymous": false,
					"inputs": [
						{
							"indexed": true,
							"internalType": "address",
							"name": "receiver",
							"type": "address"
						},
						{
							"indexed": false,
							"internalType": "string",
							"name": "tokenId",
							"type": "string"
						}
					],
					"name": "Claim",
					"type": "event"
				},
				{
					"anonymous": false,
					"inputs": [
						{
							"indexed": true,
							"internalType": "address",
							"name": "to",
							"type": "address"
						},
						{
							"indexed": false,
							"internalType": "string",
							"name": "tokenId",
							"type": "string"
						}
					],
					"name": "Mint",
					"type": "event"
				},
				{
					"anonymous": false,
					"inputs": [
						{
							"indexed": true,
							"internalType": "address",
							"name": "previousMinter",
							"type": "address"
						},
						{
							"indexed": true,
							"internalType": "address",
							"name": "newMinter",
							"type": "address"
						}
					],
					"name": "MinterTransferred",
					"type": "event"
				},
				{
					"anonymous": false,
					"inputs": [
						{
							"indexed": false,
							"internalType": "uint256",
							"name": "tokenId",
							"type": "uint256"
						},
						{
							"indexed": true,
							"internalType": "address",
							"name": "to",
							"type": "address"
						},
						{
							"indexed": false,
							"internalType": "string",
							"name": "itemId",
							"type": "string"
						},
						{
							"indexed": false,
							"internalType": "string",
							"name": "externalId",
							"type": "string"
						}
					],
					"name": "NFTMinted",
					"type": "event"
				},
				{
					"anonymous": false,
					"inputs": [
						{
							"indexed": true,
							"internalType": "address",
							"name": "previousOwner",
							"type": "address"
						},
						{
							"indexed": true,
							"internalType": "address",
							"name": "newOwner",
							"type": "address"
						}
					],
					"name": "OwnershipTransferred",
					"type": "event"
				},
				{
					"anonymous": false,
					"inputs": [
						{
							"indexed": false,
							"internalType": "uint256",
							"name": "tokenId",
							"type": "uint256"
						},
						{
							"indexed": true,
							"internalType": "address",
							"name": "to",
							"type": "address"
						},
						{
							"indexed": false,
							"internalType": "string",
							"name": "typeActive",
							"type": "string"
						}
					],
					"name": "buyActive",
					"type": "event"
				},
				{
					"inputs": [],
					"name": "ERC721_Interface",
					"outputs": [
						{
							"internalType": "bytes4",
							"name": "",
							"type": "bytes4"
						}
					],
					"stateMutability": "view",
					"type": "function"
				},
				{
					"inputs": [
						{
							"internalType": "uint256",
							"name": "",
							"type": "uint256"
						}
					],
					"name": "activeItem",
					"outputs": [
						{
							"internalType": "uint256",
							"name": "id",
							"type": "uint256"
						},
						{
							"internalType": "address",
							"name": "owner",
							"type": "address"
						},
						{
							"internalType": "enum FactoryStorage.activeStatus",
							"name": "status",
							"type": "uint8"
						}
					],
					"stateMutability": "view",
					"type": "function"
				},
				{
					"inputs": [
						{
							"internalType": "address",
							"name": "account",
							"type": "address"
						}
					],
					"name": "addToMinters",
					"outputs": [],
					"stateMutability": "nonpayable",
					"type": "function"
				},
				{
					"inputs": [],
					"name": "bronzeActivePrice",
					"outputs": [
						{
							"internalType": "uint256",
							"name": "",
							"type": "uint256"
						}
					],
					"stateMutability": "view",
					"type": "function"
				},
				{
					"inputs": [],
					"name": "claimMinterAddmin",
					"outputs": [],
					"stateMutability": "nonpayable",
					"type": "function"
				},
				{
					"inputs": [],
					"name": "goldActivePrice",
					"outputs": [
						{
							"internalType": "uint256",
							"name": "",
							"type": "uint256"
						}
					],
					"stateMutability": "view",
					"type": "function"
				},
				{
					"inputs": [
						{
							"internalType": "uint256",
							"name": "",
							"type": "uint256"
						}
					],
					"name": "ingameItem",
					"outputs": [
						{
							"internalType": "bytes32",
							"name": "id",
							"type": "bytes32"
						},
						{
							"internalType": "string",
							"name": "itemId",
							"type": "string"
						},
						{
							"internalType": "bool",
							"name": "ingame",
							"type": "bool"
						}
					],
					"stateMutability": "view",
					"type": "function"
				},
				{
					"inputs": [
						{
							"internalType": "string",
							"name": "typeItem",
							"type": "string"
						}
					],
					"name": "mintActiveItem",
					"outputs": [],
					"stateMutability": "nonpayable",
					"type": "function"
				},
				{
					"inputs": [],
					"name": "minterAddmin",
					"outputs": [
						{
							"internalType": "address",
							"name": "",
							"type": "address"
						}
					],
					"stateMutability": "view",
					"type": "function"
				},
				{
					"inputs": [],
					"name": "nftContract",
					"outputs": [
						{
							"internalType": "address",
							"name": "",
							"type": "address"
						}
					],
					"stateMutability": "view",
					"type": "function"
				},
				{
					"inputs": [],
					"name": "owner",
					"outputs": [
						{
							"internalType": "address",
							"name": "",
							"type": "address"
						}
					],
					"stateMutability": "view",
					"type": "function"
				},
				{
					"inputs": [],
					"name": "pendingMinterAdmin",
					"outputs": [
						{
							"internalType": "address",
							"name": "",
							"type": "address"
						}
					],
					"stateMutability": "view",
					"type": "function"
				},
				{
					"inputs": [
						{
							"internalType": "address",
							"name": "account",
							"type": "address"
						}
					],
					"name": "removeFromMinters",
					"outputs": [],
					"stateMutability": "nonpayable",
					"type": "function"
				},
				{
					"inputs": [],
					"name": "renounceOwnership",
					"outputs": [],
					"stateMutability": "nonpayable",
					"type": "function"
				},
				{
					"inputs": [
						{
							"internalType": "address",
							"name": "_address",
							"type": "address"
						}
					],
					"name": "setSQFToken",
					"outputs": [],
					"stateMutability": "nonpayable",
					"type": "function"
				},
				{
					"inputs": [],
					"name": "silverActivePrice",
					"outputs": [
						{
							"internalType": "uint256",
							"name": "",
							"type": "uint256"
						}
					],
					"stateMutability": "view",
					"type": "function"
				},
				{
					"inputs": [],
					"name": "sqfToken",
					"outputs": [
						{
							"internalType": "contract IERC20",
							"name": "",
							"type": "address"
						}
					],
					"stateMutability": "view",
					"type": "function"
				},
				{
					"inputs": [
						{
							"internalType": "address",
							"name": "newMelter",
							"type": "address"
						}
					],
					"name": "transferMinterAddmin",
					"outputs": [],
					"stateMutability": "nonpayable",
					"type": "function"
				},
				{
					"inputs": [
						{
							"internalType": "address",
							"name": "newOwner",
							"type": "address"
						}
					],
					"name": "transferOwnership",
					"outputs": [],
					"stateMutability": "nonpayable",
					"type": "function"
				},
				{
					"inputs": [
						{
							"internalType": "uint256",
							"name": "",
							"type": "uint256"
						}
					],
					"name": "userStatus",
					"outputs": [
						{
							"internalType": "address",
							"name": "user",
							"type": "address"
						},
						{
							"internalType": "enum FactoryStorage.activeStatus",
							"name": "status",
							"type": "uint8"
						}
					],
					"stateMutability": "view",
					"type": "function"
				}
			],
			"devdoc": {
				"kind": "dev",
				"methods": {
					"owner()": {
						"details": "Returns the address of the current owner."
					},
					"renounceOwnership()": {
						"details": "Leaves the contract without owner. It will not be possible to call `onlyOwner` functions anymore. Can only be called by the current owner. NOTE: Renouncing ownership will leave the contract without an owner, thereby removing any functionality that is only available to the owner."
					},
					"transferOwnership(address)": {
						"details": "Transfers ownership of the contract to a new account (`newOwner`). Can only be called by the current owner."
					}
				},
				"version": 1
			},
			"evm": {
				"assembly": "    /* \"contracts/NFTContract3/SQFIFactory.sol\":1887:4368  contract SQFItemFactory is FactoryStorage, Ownable, Roleable... */\n  mstore(0x40, 0x80)\n    /* \"contracts/NFTContract3/SQFIFactory.sol\":2355:2662  constructor(address _nftContract) {... */\n  callvalue\n  dup1\n  iszero\n  tag_1\n  jumpi\n  0x00\n  dup1\n  revert\ntag_1:\n  pop\n  mload(0x40)\n  sub(codesize, bytecodeSize)\n  dup1\n  bytecodeSize\n  dup4\n  codecopy\n  dup2\n  dup2\n  add\n  0x40\n  mstore\n  dup2\n  add\n  swap1\n  tag_2\n  swap2\n  swap1\n  tag_3\n  jump\t// in\ntag_2:\n    /* \"contracts/NFTContract3/Ownable.sol\":914:946  _transferOwnership(_msgSender()) */\n  tag_8\n    /* \"contracts/NFTContract3/Ownable.sol\":933:945  _msgSender() */\n  tag_9\n    /* \"contracts/NFTContract3/Ownable.sol\":933:943  _msgSender */\n  shl(0x20, tag_10)\n    /* \"contracts/NFTContract3/Ownable.sol\":933:945  _msgSender() */\n  0x20\n  shr\n  jump\t// in\ntag_9:\n    /* \"contracts/NFTContract3/Ownable.sol\":914:932  _transferOwnership */\n  shl(0x20, tag_11)\n    /* \"contracts/NFTContract3/Ownable.sol\":914:946  _transferOwnership(_msgSender()) */\n  0x20\n  shr\n  jump\t// in\ntag_8:\n    /* \"contracts/NFTContract3/Roleable.sol\":718:728  msg.sender */\n  caller\n    /* \"contracts/NFTContract3/Roleable.sol\":703:715  _minteradmin */\n  0x06\n  0x00\n    /* \"contracts/NFTContract3/Roleable.sol\":703:728  _minteradmin = msg.sender */\n  0x0100\n  exp\n  dup2\n  sload\n  dup2\n  0xffffffffffffffffffffffffffffffffffffffff\n  mul\n  not\n  and\n  swap1\n  dup4\n  0xffffffffffffffffffffffffffffffffffffffff\n  and\n  mul\n  or\n  swap1\n  sstore\n  pop\n    /* \"contracts/NFTContract3/Roleable.sol\":761:765  true */\n  0x01\n    /* \"contracts/NFTContract3/Roleable.sol\":738:746  _minters */\n  0x05\n    /* \"contracts/NFTContract3/Roleable.sol\":738:758  _minters[msg.sender] */\n  0x00\n    /* \"contracts/NFTContract3/Roleable.sol\":747:757  msg.sender */\n  caller\n    /* \"contracts/NFTContract3/Roleable.sol\":738:758  _minters[msg.sender] */\n  0xffffffffffffffffffffffffffffffffffffffff\n  and\n  0xffffffffffffffffffffffffffffffffffffffff\n  and\n  dup2\n  mstore\n  0x20\n  add\n  swap1\n  dup2\n  mstore\n  0x20\n  add\n  0x00\n  keccak256\n  0x00\n    /* \"contracts/NFTContract3/Roleable.sol\":738:765  _minters[msg.sender] = true */\n  0x0100\n  exp\n  dup2\n  sload\n  dup2\n  0xff\n  mul\n  not\n  and\n  swap1\n  dup4\n  iszero\n  iszero\n  mul\n  or\n  swap1\n  sstore\n  pop\n    /* \"contracts/NFTContract3/SQFIFactory.sol\":2431:2432  0 */\n  0x00\n    /* \"contracts/NFTContract3/SQFIFactory.sol\":2407:2433  _nftContract != address(0) */\n  0xffffffffffffffffffffffffffffffffffffffff\n  and\n    /* \"contracts/NFTContract3/SQFIFactory.sol\":2407:2419  _nftContract */\n  dup2\n    /* \"contracts/NFTContract3/SQFIFactory.sol\":2407:2433  _nftContract != address(0) */\n  0xffffffffffffffffffffffffffffffffffffffff\n  and\n  sub\n    /* \"contracts/NFTContract3/SQFIFactory.sol\":2399:2462  require(_nftContract != address(0), \"Invalid contract address\") */\n  tag_14\n  jumpi\n  mload(0x40)\n  0x08c379a000000000000000000000000000000000000000000000000000000000\n  dup2\n  mstore\n  0x04\n  add\n  tag_15\n  swap1\n  tag_16\n  jump\t// in\ntag_15:\n  mload(0x40)\n  dup1\n  swap2\n  sub\n  swap1\n  revert\ntag_14:\n    /* \"contracts/NFTContract3/SQFIFactory.sol\":2485:2497  _nftContract */\n  dup1\n    /* \"contracts/NFTContract3/SQFIFactory.sol\":2472:2476  SQFI */\n  0x0c\n  0x00\n    /* \"contracts/NFTContract3/SQFIFactory.sol\":2472:2498  SQFI = ISQFI(_nftContract) */\n  0x0100\n  exp\n  dup2\n  sload\n  dup2\n  0xffffffffffffffffffffffffffffffffffffffff\n  mul\n  not\n  and\n  swap1\n  dup4\n  0xffffffffffffffffffffffffffffffffffffffff\n  and\n  mul\n  or\n  swap1\n  sstore\n  pop\n    /* \"contracts/NFTContract3/SQFIFactory.sol\":2522:2534  _nftContract */\n  dup1\n    /* \"contracts/NFTContract3/SQFIFactory.sol\":2508:2519  nftContract */\n  0x08\n  0x00\n    /* \"contracts/NFTContract3/SQFIFactory.sol\":2508:2534  nftContract = _nftContract */\n  0x0100\n  exp\n  dup2\n  sload\n  dup2\n  0xffffffffffffffffffffffffffffffffffffffff\n  mul\n  not\n  and\n  swap1\n  dup4\n  0xffffffffffffffffffffffffffffffffffffffff\n  and\n  mul\n  or\n  swap1\n  sstore\n  pop\n    /* \"contracts/NFTContract3/SQFIFactory.sol\":2564:2574  500*10**18 */\n  0x1b1ae4d6e2ef500000\n    /* \"contracts/NFTContract3/SQFIFactory.sol\":2544:2561  bronzeActivePrice */\n  0x09\n    /* \"contracts/NFTContract3/SQFIFactory.sol\":2544:2574  bronzeActivePrice = 500*10**18 */\n  dup2\n  swap1\n  sstore\n  pop\n    /* \"contracts/NFTContract3/SQFIFactory.sol\":2604:2615  1000*10**18 */\n  0x3635c9adc5dea00000\n    /* \"contracts/NFTContract3/SQFIFactory.sol\":2584:2601  silverActivePrice */\n  0x0a\n    /* \"contracts/NFTContract3/SQFIFactory.sol\":2584:2615  silverActivePrice = 1000*10**18 */\n  dup2\n  swap1\n  sstore\n  pop\n    /* \"contracts/NFTContract3/SQFIFactory.sol\":2643:2654  1500*10**18 */\n  0x5150ae84a8cdf00000\n    /* \"contracts/NFTContract3/SQFIFactory.sol\":2625:2640  goldActivePrice */\n  0x0b\n    /* \"contracts/NFTContract3/SQFIFactory.sol\":2625:2654  goldActivePrice = 1500*10**18 */\n  dup2\n  swap1\n  sstore\n  pop\n    /* \"contracts/NFTContract3/SQFIFactory.sol\":2355:2662  constructor(address _nftContract) {... */\n  pop\n    /* \"contracts/NFTContract3/SQFIFactory.sol\":1887:4368  contract SQFItemFactory is FactoryStorage, Ownable, Roleable... */\n  jump(tag_17)\n    /* \"contracts/NFTContract3/Context.sol\":640:736  function _msgSender() internal view virtual returns (address) {... */\ntag_10:\n    /* \"contracts/NFTContract3/Context.sol\":693:700  address */\n  0x00\n    /* \"contracts/NFTContract3/Context.sol\":719:729  msg.sender */\n  caller\n    /* \"contracts/NFTContract3/Context.sol\":712:729  return msg.sender */\n  swap1\n  pop\n    /* \"contracts/NFTContract3/Context.sol\":640:736  function _msgSender() internal view virtual returns (address) {... */\n  swap1\n  jump\t// out\n    /* \"contracts/NFTContract3/Ownable.sol\":2263:2450  function _transferOwnership(address newOwner) internal virtual {... */\ntag_11:\n    /* \"contracts/NFTContract3/Ownable.sol\":2336:2352  address oldOwner */\n  0x00\n    /* \"contracts/NFTContract3/Ownable.sol\":2355:2361  _owner */\n  0x04\n  0x00\n  swap1\n  sload\n  swap1\n  0x0100\n  exp\n  swap1\n  div\n  0xffffffffffffffffffffffffffffffffffffffff\n  and\n    /* \"contracts/NFTContract3/Ownable.sol\":2336:2361  address oldOwner = _owner */\n  swap1\n  pop\n    /* \"contracts/NFTContract3/Ownable.sol\":2380:2388  newOwner */\n  dup2\n    /* \"contracts/NFTContract3/Ownable.sol\":2371:2377  _owner */\n  0x04\n  0x00\n    /* \"contracts/NFTContract3/Ownable.sol\":2371:2388  _owner = newOwner */\n  0x0100\n  exp\n  dup2\n  sload\n  dup2\n  0xffffffffffffffffffffffffffffffffffffffff\n  mul\n  not\n  and\n  swap1\n  dup4\n  0xffffffffffffffffffffffffffffffffffffffff\n  and\n  mul\n  or\n  swap1\n  sstore\n  pop\n    /* \"contracts/NFTContract3/Ownable.sol\":2434:2442  newOwner */\n  dup2\n    /* \"contracts/NFTContract3/Ownable.sol\":2403:2443  OwnershipTransferred(oldOwner, newOwner) */\n  0xffffffffffffffffffffffffffffffffffffffff\n  and\n    /* \"contracts/NFTContract3/Ownable.sol\":2424:2432  oldOwner */\n  dup2\n    /* \"contracts/NFTContract3/Ownable.sol\":2403:2443  OwnershipTransferred(oldOwner, newOwner) */\n  0xffffffffffffffffffffffffffffffffffffffff\n  and\n  0x8be0079c531659141344cd1fd0a4f28419497f9722a3daafe3b4186f6b6457e0\n  mload(0x40)\n  mload(0x40)\n  dup1\n  swap2\n  sub\n  swap1\n  log3\n    /* \"contracts/NFTContract3/Ownable.sol\":2326:2450  {... */\n  pop\n    /* \"contracts/NFTContract3/Ownable.sol\":2263:2450  function _transferOwnership(address newOwner) internal virtual {... */\n  pop\n  jump\t// out\n    /* \"#utility.yul\":88:205   */\ntag_21:\n    /* \"#utility.yul\":197:198   */\n  0x00\n    /* \"#utility.yul\":194:195   */\n  dup1\n    /* \"#utility.yul\":187:199   */\n  revert\n    /* \"#utility.yul\":334:460   */\ntag_23:\n    /* \"#utility.yul\":371:378   */\n  0x00\n    /* \"#utility.yul\":411:453   */\n  0xffffffffffffffffffffffffffffffffffffffff\n    /* \"#utility.yul\":404:409   */\n  dup3\n    /* \"#utility.yul\":400:454   */\n  and\n    /* \"#utility.yul\":389:454   */\n  swap1\n  pop\n    /* \"#utility.yul\":334:460   */\n  swap2\n  swap1\n  pop\n  jump\t// out\n    /* \"#utility.yul\":466:562   */\ntag_24:\n    /* \"#utility.yul\":503:510   */\n  0x00\n    /* \"#utility.yul\":532:556   */\n  tag_36\n    /* \"#utility.yul\":550:555   */\n  dup3\n    /* \"#utility.yul\":532:556   */\n  tag_23\n  jump\t// in\ntag_36:\n    /* \"#utility.yul\":521:556   */\n  swap1\n  pop\n    /* \"#utility.yul\":466:562   */\n  swap2\n  swap1\n  pop\n  jump\t// out\n    /* \"#utility.yul\":568:690   */\ntag_25:\n    /* \"#utility.yul\":641:665   */\n  tag_38\n    /* \"#utility.yul\":659:664   */\n  dup2\n    /* \"#utility.yul\":641:665   */\n  tag_24\n  jump\t// in\ntag_38:\n    /* \"#utility.yul\":634:639   */\n  dup2\n    /* \"#utility.yul\":631:666   */\n  eq\n    /* \"#utility.yul\":621:684   */\n  tag_39\n  jumpi\n    /* \"#utility.yul\":680:681   */\n  0x00\n    /* \"#utility.yul\":677:678   */\n  dup1\n    /* \"#utility.yul\":670:682   */\n  revert\n    /* \"#utility.yul\":621:684   */\ntag_39:\n    /* \"#utility.yul\":568:690   */\n  pop\n  jump\t// out\n    /* \"#utility.yul\":696:839   */\ntag_26:\n    /* \"#utility.yul\":753:758   */\n  0x00\n    /* \"#utility.yul\":784:790   */\n  dup2\n    /* \"#utility.yul\":778:791   */\n  mload\n    /* \"#utility.yul\":769:791   */\n  swap1\n  pop\n    /* \"#utility.yul\":800:833   */\n  tag_41\n    /* \"#utility.yul\":827:832   */\n  dup2\n    /* \"#utility.yul\":800:833   */\n  tag_25\n  jump\t// in\ntag_41:\n    /* \"#utility.yul\":696:839   */\n  swap3\n  swap2\n  pop\n  pop\n  jump\t// out\n    /* \"#utility.yul\":845:1196   */\ntag_3:\n    /* \"#utility.yul\":915:921   */\n  0x00\n    /* \"#utility.yul\":964:966   */\n  0x20\n    /* \"#utility.yul\":952:961   */\n  dup3\n    /* \"#utility.yul\":943:950   */\n  dup5\n    /* \"#utility.yul\":939:962   */\n  sub\n    /* \"#utility.yul\":935:967   */\n  slt\n    /* \"#utility.yul\":932:1051   */\n  iszero\n  tag_43\n  jumpi\n    /* \"#utility.yul\":970:1049   */\n  tag_44\n  tag_21\n  jump\t// in\ntag_44:\n    /* \"#utility.yul\":932:1051   */\ntag_43:\n    /* \"#utility.yul\":1090:1091   */\n  0x00\n    /* \"#utility.yul\":1115:1179   */\n  tag_45\n    /* \"#utility.yul\":1171:1178   */\n  dup5\n    /* \"#utility.yul\":1162:1168   */\n  dup3\n    /* \"#utility.yul\":1151:1160   */\n  dup6\n    /* \"#utility.yul\":1147:1169   */\n  add\n    /* \"#utility.yul\":1115:1179   */\n  tag_26\n  jump\t// in\ntag_45:\n    /* \"#utility.yul\":1105:1179   */\n  swap2\n  pop\n    /* \"#utility.yul\":1061:1189   */\n  pop\n    /* \"#utility.yul\":845:1196   */\n  swap3\n  swap2\n  pop\n  pop\n  jump\t// out\n    /* \"#utility.yul\":1202:1371   */\ntag_27:\n    /* \"#utility.yul\":1286:1297   */\n  0x00\n    /* \"#utility.yul\":1320:1326   */\n  dup3\n    /* \"#utility.yul\":1315:1318   */\n  dup3\n    /* \"#utility.yul\":1308:1327   */\n  mstore\n    /* \"#utility.yul\":1360:1364   */\n  0x20\n    /* \"#utility.yul\":1355:1358   */\n  dup3\n    /* \"#utility.yul\":1351:1365   */\n  add\n    /* \"#utility.yul\":1336:1365   */\n  swap1\n  pop\n    /* \"#utility.yul\":1202:1371   */\n  swap3\n  swap2\n  pop\n  pop\n  jump\t// out\n    /* \"#utility.yul\":1377:1551   */\ntag_28:\n    /* \"#utility.yul\":1517:1543   */\n  0x496e76616c696420636f6e747261637420616464726573730000000000000000\n    /* \"#utility.yul\":1513:1514   */\n  0x00\n    /* \"#utility.yul\":1505:1511   */\n  dup3\n    /* \"#utility.yul\":1501:1515   */\n  add\n    /* \"#utility.yul\":1494:1544   */\n  mstore\n    /* \"#utility.yul\":1377:1551   */\n  pop\n  jump\t// out\n    /* \"#utility.yul\":1557:1923   */\ntag_29:\n    /* \"#utility.yul\":1699:1702   */\n  0x00\n    /* \"#utility.yul\":1720:1787   */\n  tag_49\n    /* \"#utility.yul\":1784:1786   */\n  0x18\n    /* \"#utility.yul\":1779:1782   */\n  dup4\n    /* \"#utility.yul\":1720:1787   */\n  tag_27\n  jump\t// in\ntag_49:\n    /* \"#utility.yul\":1713:1787   */\n  swap2\n  pop\n    /* \"#utility.yul\":1796:1889   */\n  tag_50\n    /* \"#utility.yul\":1885:1888   */\n  dup3\n    /* \"#utility.yul\":1796:1889   */\n  tag_28\n  jump\t// in\ntag_50:\n    /* \"#utility.yul\":1914:1916   */\n  0x20\n    /* \"#utility.yul\":1909:1912   */\n  dup3\n    /* \"#utility.yul\":1905:1917   */\n  add\n    /* \"#utility.yul\":1898:1917   */\n  swap1\n  pop\n    /* \"#utility.yul\":1557:1923   */\n  swap2\n  swap1\n  pop\n  jump\t// out\n    /* \"#utility.yul\":1929:2348   */\ntag_16:\n    /* \"#utility.yul\":2095:2099   */\n  0x00\n    /* \"#utility.yul\":2133:2135   */\n  0x20\n    /* \"#utility.yul\":2122:2131   */\n  dup3\n    /* \"#utility.yul\":2118:2136   */\n  add\n    /* \"#utility.yul\":2110:2136   */\n  swap1\n  pop\n    /* \"#utility.yul\":2182:2191   */\n  dup2\n    /* \"#utility.yul\":2176:2180   */\n  dup2\n    /* \"#utility.yul\":2172:2192   */\n  sub\n    /* \"#utility.yul\":2168:2169   */\n  0x00\n    /* \"#utility.yul\":2157:2166   */\n  dup4\n    /* \"#utility.yul\":2153:2170   */\n  add\n    /* \"#utility.yul\":2146:2193   */\n  mstore\n    /* \"#utility.yul\":2210:2341   */\n  tag_52\n    /* \"#utility.yul\":2336:2340   */\n  dup2\n    /* \"#utility.yul\":2210:2341   */\n  tag_29\n  jump\t// in\ntag_52:\n    /* \"#utility.yul\":2202:2341   */\n  swap1\n  pop\n    /* \"#utility.yul\":1929:2348   */\n  swap2\n  swap1\n  pop\n  jump\t// out\n    /* \"contracts/NFTContract3/SQFIFactory.sol\":1887:4368  contract SQFItemFactory is FactoryStorage, Ownable, Roleable... */\ntag_17:\n  dataSize(sub_0)\n  dup1\n  dataOffset(sub_0)\n  0x00\n  codecopy\n  0x00\n  return\nstop\n\nsub_0: assembly {\n        /* \"contracts/NFTContract3/SQFIFactory.sol\":1887:4368  contract SQFItemFactory is FactoryStorage, Ownable, Roleable... */\n      mstore(0x40, 0x80)\n      callvalue\n      dup1\n      iszero\n      tag_1\n      jumpi\n      0x00\n      dup1\n      revert\n    tag_1:\n      pop\n      jumpi(tag_2, lt(calldatasize, 0x04))\n      shr(0xe0, calldataload(0x00))\n      dup1\n      0xaa6a0dac\n      gt\n      tag_23\n      jumpi\n      dup1\n      0xce1d82f5\n      gt\n      tag_24\n      jumpi\n      dup1\n      0xce1d82f5\n      eq\n      tag_18\n      jumpi\n      dup1\n      0xd30bdac9\n      eq\n      tag_19\n      jumpi\n      dup1\n      0xd56d229d\n      eq\n      tag_20\n      jumpi\n      dup1\n      0xdb69a32d\n      eq\n      tag_21\n      jumpi\n      dup1\n      0xf2fde38b\n      eq\n      tag_22\n      jumpi\n      jump(tag_2)\n    tag_24:\n      dup1\n      0xaa6a0dac\n      eq\n      tag_13\n      jumpi\n      dup1\n      0xac4867f0\n      eq\n      tag_14\n      jumpi\n      dup1\n      0xaed59b8a\n      eq\n      tag_15\n      jumpi\n      dup1\n      0xaf1b3d5e\n      eq\n      tag_16\n      jumpi\n      dup1\n      0xc04772d5\n      eq\n      tag_17\n      jumpi\n      jump(tag_2)\n    tag_23:\n      dup1\n      0x6e722920\n      gt\n      tag_25\n      jumpi\n      dup1\n      0x6e722920\n      eq\n      tag_8\n      jumpi\n      dup1\n      0x715018a6\n      eq\n      tag_9\n      jumpi\n      dup1\n      0x8da5cb5b\n      eq\n      tag_10\n      jumpi\n      dup1\n      0x92bf77dd\n      eq\n      tag_11\n      jumpi\n      dup1\n      0xa15c15af\n      eq\n      tag_12\n      jumpi\n      jump(tag_2)\n    tag_25:\n      dup1\n      0x15b81dc3\n      eq\n      tag_3\n      jumpi\n      dup1\n      0x1f7775ad\n      eq\n      tag_4\n      jumpi\n      dup1\n      0x2b4c32be\n      eq\n      tag_5\n      jumpi\n      dup1\n      0x58dd8603\n      eq\n      tag_6\n      jumpi\n      dup1\n      0x6d4d0c57\n      eq\n      tag_7\n      jumpi\n    tag_2:\n      0x00\n      dup1\n      revert\n        /* \"contracts/NFTContract3/FactoryStorage.sol\":1314:1336  IERC20 public sqfToken */\n    tag_3:\n      tag_26\n      tag_27\n      jump\t// in\n    tag_26:\n      mload(0x40)\n      tag_28\n      swap2\n      swap1\n      tag_29\n      jump\t// in\n    tag_28:\n      mload(0x40)\n      dup1\n      swap2\n      sub\n      swap1\n      return\n        /* \"contracts/NFTContract3/FactoryStorage.sol\":1524:1573  mapping(uint256 => usersStatus) public userStatus */\n    tag_4:\n      tag_30\n      0x04\n      dup1\n      calldatasize\n      sub\n      dup2\n      add\n      swap1\n      tag_31\n      swap2\n      swap1\n      tag_32\n      jump\t// in\n    tag_31:\n      tag_33\n      jump\t// in\n    tag_30:\n      mload(0x40)\n      tag_34\n      swap3\n      swap2\n      swap1\n      tag_35\n      jump\t// in\n    tag_34:\n      mload(0x40)\n      dup1\n      swap2\n      sub\n      swap1\n      return\n        /* \"contracts/NFTContract3/FactoryStorage.sol\":1248:1308  bytes4 public constant ERC721_Interface = bytes4(0x80ac58cd) */\n    tag_5:\n      tag_36\n      tag_37\n      jump\t// in\n    tag_36:\n      mload(0x40)\n      tag_38\n      swap2\n      swap1\n      tag_39\n      jump\t// in\n    tag_38:\n      mload(0x40)\n      dup1\n      swap2\n      sub\n      swap1\n      return\n        /* \"contracts/NFTContract3/FactoryStorage.sol\":1414:1463  mapping(uint256 => activeItems) public activeItem */\n    tag_6:\n      tag_40\n      0x04\n      dup1\n      calldatasize\n      sub\n      dup2\n      add\n      swap1\n      tag_41\n      swap2\n      swap1\n      tag_32\n      jump\t// in\n    tag_41:\n      tag_42\n      jump\t// in\n    tag_40:\n      mload(0x40)\n      tag_43\n      swap4\n      swap3\n      swap2\n      swap1\n      tag_44\n      jump\t// in\n    tag_43:\n      mload(0x40)\n      dup1\n      swap2\n      sub\n      swap1\n      return\n        /* \"contracts/NFTContract3/Roleable.sol\":1098:1217  function transferMinterAddmin(address newMelter) public onlyMinterAdmin {... */\n    tag_7:\n      tag_45\n      0x04\n      dup1\n      calldatasize\n      sub\n      dup2\n      add\n      swap1\n      tag_46\n      swap2\n      swap1\n      tag_47\n      jump\t// in\n    tag_46:\n      tag_48\n      jump\t// in\n    tag_45:\n      stop\n        /* \"contracts/NFTContract3/Roleable.sol\":983:1092  function removeFromMinters(address account) public onlyMinterAdmin {... */\n    tag_8:\n      tag_49\n      0x04\n      dup1\n      calldatasize\n      sub\n      dup2\n      add\n      swap1\n      tag_50\n      swap2\n      swap1\n      tag_47\n      jump\t// in\n    tag_50:\n      tag_51\n      jump\t// in\n    tag_49:\n      stop\n        /* \"contracts/NFTContract3/Ownable.sol\":1661:1762  function renounceOwnership() public virtual onlyOwner {... */\n    tag_9:\n      tag_52\n      tag_53\n      jump\t// in\n    tag_52:\n      stop\n        /* \"contracts/NFTContract3/Ownable.sol\":1029:1114  function owner() public view virtual returns (address) {... */\n    tag_10:\n      tag_54\n      tag_55\n      jump\t// in\n    tag_54:\n      mload(0x40)\n      tag_56\n      swap2\n      swap1\n      tag_57\n      jump\t// in\n    tag_56:\n      mload(0x40)\n      dup1\n      swap2\n      sub\n      swap1\n      return\n        /* \"contracts/NFTContract3/SQFIFactory.sol\":2668:2770  function setSQFToken(address _address) external onlyOwner {... */\n    tag_11:\n      tag_58\n      0x04\n      dup1\n      calldatasize\n      sub\n      dup2\n      add\n      swap1\n      tag_59\n      swap2\n      swap1\n      tag_47\n      jump\t// in\n    tag_59:\n      tag_60\n      jump\t// in\n    tag_58:\n      stop\n        /* \"contracts/NFTContract3/Roleable.sol\":874:977  function addToMinters(address account) public onlyMinterAdmin {... */\n    tag_12:\n      tag_61\n      0x04\n      dup1\n      calldatasize\n      sub\n      dup2\n      add\n      swap1\n      tag_62\n      swap2\n      swap1\n      tag_47\n      jump\t// in\n    tag_62:\n      tag_63\n      jump\t// in\n    tag_61:\n      stop\n        /* \"contracts/NFTContract3/SQFIFactory.sol\":2063:2093  uint256 public goldActivePrice */\n    tag_13:\n      tag_64\n      tag_65\n      jump\t// in\n    tag_64:\n      mload(0x40)\n      tag_66\n      swap2\n      swap1\n      tag_67\n      jump\t// in\n    tag_66:\n      mload(0x40)\n      dup1\n      swap2\n      sub\n      swap1\n      return\n        /* \"contracts/NFTContract3/SQFIFactory.sol\":1987:2019  uint256 public bronzeActivePrice */\n    tag_14:\n      tag_68\n      tag_69\n      jump\t// in\n    tag_68:\n      mload(0x40)\n      tag_70\n      swap2\n      swap1\n      tag_67\n      jump\t// in\n    tag_70:\n      mload(0x40)\n      dup1\n      swap2\n      sub\n      swap1\n      return\n        /* \"contracts/NFTContract3/Roleable.sol\":1223:1439  function claimMinterAddmin() public onlyPendingMinterAdmin {... */\n    tag_15:\n      tag_71\n      tag_72\n      jump\t// in\n    tag_71:\n      stop\n        /* \"contracts/NFTContract3/SQFIFactory.sol\":2025:2057  uint256 public silverActivePrice */\n    tag_16:\n      tag_73\n      tag_74\n      jump\t// in\n    tag_73:\n      mload(0x40)\n      tag_75\n      swap2\n      swap1\n      tag_67\n      jump\t// in\n    tag_75:\n      mload(0x40)\n      dup1\n      swap2\n      sub\n      swap1\n      return\n        /* \"contracts/NFTContract3/SQFIFactory.sol\":2776:4365  function mintActiveItem(string memory typeItem) public { ... */\n    tag_17:\n      tag_76\n      0x04\n      dup1\n      calldatasize\n      sub\n      dup2\n      add\n      swap1\n      tag_77\n      swap2\n      swap1\n      tag_78\n      jump\t// in\n    tag_77:\n      tag_79\n      jump\t// in\n    tag_76:\n      stop\n        /* \"contracts/NFTContract3/Roleable.sol\":163:196  address public pendingMinterAdmin */\n    tag_18:\n      tag_80\n      tag_81\n      jump\t// in\n    tag_80:\n      mload(0x40)\n      tag_82\n      swap2\n      swap1\n      tag_57\n      jump\t// in\n    tag_82:\n      mload(0x40)\n      dup1\n      swap2\n      sub\n      swap1\n      return\n        /* \"contracts/NFTContract3/FactoryStorage.sol\":1469:1518  mapping(uint256 => ingameItems) public ingameItem */\n    tag_19:\n      tag_83\n      0x04\n      dup1\n      calldatasize\n      sub\n      dup2\n      add\n      swap1\n      tag_84\n      swap2\n      swap1\n      tag_32\n      jump\t// in\n    tag_84:\n      tag_85\n      jump\t// in\n    tag_83:\n      mload(0x40)\n      tag_86\n      swap4\n      swap3\n      swap2\n      swap1\n      tag_87\n      jump\t// in\n    tag_86:\n      mload(0x40)\n      dup1\n      swap2\n      sub\n      swap1\n      return\n        /* \"contracts/NFTContract3/SQFIFactory.sol\":1955:1981  address public nftContract */\n    tag_20:\n      tag_88\n      tag_89\n      jump\t// in\n    tag_88:\n      mload(0x40)\n      tag_90\n      swap2\n      swap1\n      tag_57\n      jump\t// in\n    tag_90:\n      mload(0x40)\n      dup1\n      swap2\n      sub\n      swap1\n      return\n        /* \"contracts/NFTContract3/Roleable.sol\":778:868  function minterAddmin() public view returns (address) {... */\n    tag_21:\n      tag_91\n      tag_92\n      jump\t// in\n    tag_91:\n      mload(0x40)\n      tag_93\n      swap2\n      swap1\n      tag_57\n      jump\t// in\n    tag_93:\n      mload(0x40)\n      dup1\n      swap2\n      sub\n      swap1\n      return\n        /* \"contracts/NFTContract3/Ownable.sol\":1911:2109  function transferOwnership(address newOwner) public virtual onlyOwner {... */\n    tag_22:\n      tag_94\n      0x04\n      dup1\n      calldatasize\n      sub\n      dup2\n      add\n      swap1\n      tag_95\n      swap2\n      swap1\n      tag_47\n      jump\t// in\n    tag_95:\n      tag_96\n      jump\t// in\n    tag_94:\n      stop\n        /* \"contracts/NFTContract3/FactoryStorage.sol\":1314:1336  IERC20 public sqfToken */\n    tag_27:\n      0x00\n      dup1\n      sload\n      swap1\n      0x0100\n      exp\n      swap1\n      div\n      0xffffffffffffffffffffffffffffffffffffffff\n      and\n      dup2\n      jump\t// out\n        /* \"contracts/NFTContract3/FactoryStorage.sol\":1524:1573  mapping(uint256 => usersStatus) public userStatus */\n    tag_33:\n      mstore(0x20, 0x03)\n      dup1\n      0x00\n      mstore\n      keccak256(0x00, 0x40)\n      0x00\n      swap2\n      pop\n      swap1\n      pop\n      dup1\n      0x00\n      add\n      0x00\n      swap1\n      sload\n      swap1\n      0x0100\n      exp\n      swap1\n      div\n      0xffffffffffffffffffffffffffffffffffffffff\n      and\n      swap1\n      dup1\n      0x00\n      add\n      0x14\n      swap1\n      sload\n      swap1\n      0x0100\n      exp\n      swap1\n      div\n      0xff\n      and\n      swap1\n      pop\n      dup3\n      jump\t// out\n        /* \"contracts/NFTContract3/FactoryStorage.sol\":1248:1308  bytes4 public constant ERC721_Interface = bytes4(0x80ac58cd) */\n    tag_37:\n        /* \"contracts/NFTContract3/FactoryStorage.sol\":1297:1307  0x80ac58cd */\n      0x80ac58cd\n        /* \"contracts/NFTContract3/FactoryStorage.sol\":1290:1308  bytes4(0x80ac58cd) */\n      0xe0\n      shl\n        /* \"contracts/NFTContract3/FactoryStorage.sol\":1248:1308  bytes4 public constant ERC721_Interface = bytes4(0x80ac58cd) */\n      dup2\n      jump\t// out\n        /* \"contracts/NFTContract3/FactoryStorage.sol\":1414:1463  mapping(uint256 => activeItems) public activeItem */\n    tag_42:\n      mstore(0x20, 0x01)\n      dup1\n      0x00\n      mstore\n      keccak256(0x00, 0x40)\n      0x00\n      swap2\n      pop\n      swap1\n      pop\n      dup1\n      0x00\n      add\n      sload\n      swap1\n      dup1\n      0x01\n      add\n      0x00\n      swap1\n      sload\n      swap1\n      0x0100\n      exp\n      swap1\n      div\n      0xffffffffffffffffffffffffffffffffffffffff\n      and\n      swap1\n      dup1\n      0x01\n      add\n      0x14\n      swap1\n      sload\n      swap1\n      0x0100\n      exp\n      swap1\n      div\n      0xff\n      and\n      swap1\n      pop\n      dup4\n      jump\t// out\n        /* \"contracts/NFTContract3/Roleable.sol\":1098:1217  function transferMinterAddmin(address newMelter) public onlyMinterAdmin {... */\n    tag_48:\n        /* \"contracts/NFTContract3/Roleable.sol\":263:275  _minteradmin */\n      0x06\n      0x00\n      swap1\n      sload\n      swap1\n      0x0100\n      exp\n      swap1\n      div\n      0xffffffffffffffffffffffffffffffffffffffff\n      and\n        /* \"contracts/NFTContract3/Roleable.sol\":249:275  msg.sender == _minteradmin */\n      0xffffffffffffffffffffffffffffffffffffffff\n      and\n        /* \"contracts/NFTContract3/Roleable.sol\":249:259  msg.sender */\n      caller\n        /* \"contracts/NFTContract3/Roleable.sol\":249:275  msg.sender == _minteradmin */\n      0xffffffffffffffffffffffffffffffffffffffff\n      and\n      eq\n        /* \"contracts/NFTContract3/Roleable.sol\":240:305  require (msg.sender == _minteradmin, \"caller not a minter admin\") */\n      tag_98\n      jumpi\n      mload(0x40)\n      0x08c379a000000000000000000000000000000000000000000000000000000000\n      dup2\n      mstore\n      0x04\n      add\n      tag_99\n      swap1\n      tag_100\n      jump\t// in\n    tag_99:\n      mload(0x40)\n      dup1\n      swap2\n      sub\n      swap1\n      revert\n    tag_98:\n        /* \"contracts/NFTContract3/Roleable.sol\":1201:1210  newMelter */\n      dup1\n        /* \"contracts/NFTContract3/Roleable.sol\":1180:1198  pendingMinterAdmin */\n      0x07\n      0x00\n        /* \"contracts/NFTContract3/Roleable.sol\":1180:1210  pendingMinterAdmin = newMelter */\n      0x0100\n      exp\n      dup2\n      sload\n      dup2\n      0xffffffffffffffffffffffffffffffffffffffff\n      mul\n      not\n      and\n      swap1\n      dup4\n      0xffffffffffffffffffffffffffffffffffffffff\n      and\n      mul\n      or\n      swap1\n      sstore\n      pop\n        /* \"contracts/NFTContract3/Roleable.sol\":1098:1217  function transferMinterAddmin(address newMelter) public onlyMinterAdmin {... */\n      pop\n      jump\t// out\n        /* \"contracts/NFTContract3/Roleable.sol\":983:1092  function removeFromMinters(address account) public onlyMinterAdmin {... */\n    tag_51:\n        /* \"contracts/NFTContract3/Roleable.sol\":263:275  _minteradmin */\n      0x06\n      0x00\n      swap1\n      sload\n      swap1\n      0x0100\n      exp\n      swap1\n      div\n      0xffffffffffffffffffffffffffffffffffffffff\n      and\n        /* \"contracts/NFTContract3/Roleable.sol\":249:275  msg.sender == _minteradmin */\n      0xffffffffffffffffffffffffffffffffffffffff\n      and\n        /* \"contracts/NFTContract3/Roleable.sol\":249:259  msg.sender */\n      caller\n        /* \"contracts/NFTContract3/Roleable.sol\":249:275  msg.sender == _minteradmin */\n      0xffffffffffffffffffffffffffffffffffffffff\n      and\n      eq\n        /* \"contracts/NFTContract3/Roleable.sol\":240:305  require (msg.sender == _minteradmin, \"caller not a minter admin\") */\n      tag_103\n      jumpi\n      mload(0x40)\n      0x08c379a000000000000000000000000000000000000000000000000000000000\n      dup2\n      mstore\n      0x04\n      add\n      tag_104\n      swap1\n      tag_100\n      jump\t// in\n    tag_104:\n      mload(0x40)\n      dup1\n      swap2\n      sub\n      swap1\n      revert\n    tag_103:\n        /* \"contracts/NFTContract3/Roleable.sol\":1080:1085  false */\n      0x00\n        /* \"contracts/NFTContract3/Roleable.sol\":1060:1068  _minters */\n      0x05\n        /* \"contracts/NFTContract3/Roleable.sol\":1060:1077  _minters[account] */\n      0x00\n        /* \"contracts/NFTContract3/Roleable.sol\":1069:1076  account */\n      dup4\n        /* \"contracts/NFTContract3/Roleable.sol\":1060:1077  _minters[account] */\n      0xffffffffffffffffffffffffffffffffffffffff\n      and\n      0xffffffffffffffffffffffffffffffffffffffff\n      and\n      dup2\n      mstore\n      0x20\n      add\n      swap1\n      dup2\n      mstore\n      0x20\n      add\n      0x00\n      keccak256\n      0x00\n        /* \"contracts/NFTContract3/Roleable.sol\":1060:1085  _minters[account] = false */\n      0x0100\n      exp\n      dup2\n      sload\n      dup2\n      0xff\n      mul\n      not\n      and\n      swap1\n      dup4\n      iszero\n      iszero\n      mul\n      or\n      swap1\n      sstore\n      pop\n        /* \"contracts/NFTContract3/Roleable.sol\":983:1092  function removeFromMinters(address account) public onlyMinterAdmin {... */\n      pop\n      jump\t// out\n        /* \"contracts/NFTContract3/Ownable.sol\":1661:1762  function renounceOwnership() public virtual onlyOwner {... */\n    tag_53:\n        /* \"contracts/NFTContract3/Ownable.sol\":1252:1264  _msgSender() */\n      tag_107\n        /* \"contracts/NFTContract3/Ownable.sol\":1252:1262  _msgSender */\n      tag_108\n        /* \"contracts/NFTContract3/Ownable.sol\":1252:1264  _msgSender() */\n      jump\t// in\n    tag_107:\n        /* \"contracts/NFTContract3/Ownable.sol\":1241:1264  owner() == _msgSender() */\n      0xffffffffffffffffffffffffffffffffffffffff\n      and\n        /* \"contracts/NFTContract3/Ownable.sol\":1241:1248  owner() */\n      tag_109\n        /* \"contracts/NFTContract3/Ownable.sol\":1241:1246  owner */\n      tag_55\n        /* \"contracts/NFTContract3/Ownable.sol\":1241:1248  owner() */\n      jump\t// in\n    tag_109:\n        /* \"contracts/NFTContract3/Ownable.sol\":1241:1264  owner() == _msgSender() */\n      0xffffffffffffffffffffffffffffffffffffffff\n      and\n      eq\n        /* \"contracts/NFTContract3/Ownable.sol\":1233:1301  require(owner() == _msgSender(), \"Ownable: caller is not the owner\") */\n      tag_110\n      jumpi\n      mload(0x40)\n      0x08c379a000000000000000000000000000000000000000000000000000000000\n      dup2\n      mstore\n      0x04\n      add\n      tag_111\n      swap1\n      tag_112\n      jump\t// in\n    tag_111:\n      mload(0x40)\n      dup1\n      swap2\n      sub\n      swap1\n      revert\n    tag_110:\n        /* \"contracts/NFTContract3/Ownable.sol\":1725:1755  _transferOwnership(address(0)) */\n      tag_114\n        /* \"contracts/NFTContract3/Ownable.sol\":1752:1753  0 */\n      0x00\n        /* \"contracts/NFTContract3/Ownable.sol\":1725:1743  _transferOwnership */\n      tag_115\n        /* \"contracts/NFTContract3/Ownable.sol\":1725:1755  _transferOwnership(address(0)) */\n      jump\t// in\n    tag_114:\n        /* \"contracts/NFTContract3/Ownable.sol\":1661:1762  function renounceOwnership() public virtual onlyOwner {... */\n      jump\t// out\n        /* \"contracts/NFTContract3/Ownable.sol\":1029:1114  function owner() public view virtual returns (address) {... */\n    tag_55:\n        /* \"contracts/NFTContract3/Ownable.sol\":1075:1082  address */\n      0x00\n        /* \"contracts/NFTContract3/Ownable.sol\":1101:1107  _owner */\n      0x04\n      0x00\n      swap1\n      sload\n      swap1\n      0x0100\n      exp\n      swap1\n      div\n      0xffffffffffffffffffffffffffffffffffffffff\n      and\n        /* \"contracts/NFTContract3/Ownable.sol\":1094:1107  return _owner */\n      swap1\n      pop\n        /* \"contracts/NFTContract3/Ownable.sol\":1029:1114  function owner() public view virtual returns (address) {... */\n      swap1\n      jump\t// out\n        /* \"contracts/NFTContract3/SQFIFactory.sol\":2668:2770  function setSQFToken(address _address) external onlyOwner {... */\n    tag_60:\n        /* \"contracts/NFTContract3/Ownable.sol\":1252:1264  _msgSender() */\n      tag_118\n        /* \"contracts/NFTContract3/Ownable.sol\":1252:1262  _msgSender */\n      tag_108\n        /* \"contracts/NFTContract3/Ownable.sol\":1252:1264  _msgSender() */\n      jump\t// in\n    tag_118:\n        /* \"contracts/NFTContract3/Ownable.sol\":1241:1264  owner() == _msgSender() */\n      0xffffffffffffffffffffffffffffffffffffffff\n      and\n        /* \"contracts/NFTContract3/Ownable.sol\":1241:1248  owner() */\n      tag_119\n        /* \"contracts/NFTContract3/Ownable.sol\":1241:1246  owner */\n      tag_55\n        /* \"contracts/NFTContract3/Ownable.sol\":1241:1248  owner() */\n      jump\t// in\n    tag_119:\n        /* \"contracts/NFTContract3/Ownable.sol\":1241:1264  owner() == _msgSender() */\n      0xffffffffffffffffffffffffffffffffffffffff\n      and\n      eq\n        /* \"contracts/NFTContract3/Ownable.sol\":1233:1301  require(owner() == _msgSender(), \"Ownable: caller is not the owner\") */\n      tag_120\n      jumpi\n      mload(0x40)\n      0x08c379a000000000000000000000000000000000000000000000000000000000\n      dup2\n      mstore\n      0x04\n      add\n      tag_121\n      swap1\n      tag_112\n      jump\t// in\n    tag_121:\n      mload(0x40)\n      dup1\n      swap2\n      sub\n      swap1\n      revert\n    tag_120:\n        /* \"contracts/NFTContract3/SQFIFactory.sol\":2754:2762  _address */\n      dup1\n        /* \"contracts/NFTContract3/SQFIFactory.sol\":2736:2744  sqfToken */\n      0x00\n      dup1\n        /* \"contracts/NFTContract3/SQFIFactory.sol\":2736:2763  sqfToken = IERC20(_address) */\n      0x0100\n      exp\n      dup2\n      sload\n      dup2\n      0xffffffffffffffffffffffffffffffffffffffff\n      mul\n      not\n      and\n      swap1\n      dup4\n      0xffffffffffffffffffffffffffffffffffffffff\n      and\n      mul\n      or\n      swap1\n      sstore\n      pop\n        /* \"contracts/NFTContract3/SQFIFactory.sol\":2668:2770  function setSQFToken(address _address) external onlyOwner {... */\n      pop\n      jump\t// out\n        /* \"contracts/NFTContract3/Roleable.sol\":874:977  function addToMinters(address account) public onlyMinterAdmin {... */\n    tag_63:\n        /* \"contracts/NFTContract3/Roleable.sol\":263:275  _minteradmin */\n      0x06\n      0x00\n      swap1\n      sload\n      swap1\n      0x0100\n      exp\n      swap1\n      div\n      0xffffffffffffffffffffffffffffffffffffffff\n      and\n        /* \"contracts/NFTContract3/Roleable.sol\":249:275  msg.sender == _minteradmin */\n      0xffffffffffffffffffffffffffffffffffffffff\n      and\n        /* \"contracts/NFTContract3/Roleable.sol\":249:259  msg.sender */\n      caller\n        /* \"contracts/NFTContract3/Roleable.sol\":249:275  msg.sender == _minteradmin */\n      0xffffffffffffffffffffffffffffffffffffffff\n      and\n      eq\n        /* \"contracts/NFTContract3/Roleable.sol\":240:305  require (msg.sender == _minteradmin, \"caller not a minter admin\") */\n      tag_124\n      jumpi\n      mload(0x40)\n      0x08c379a000000000000000000000000000000000000000000000000000000000\n      dup2\n      mstore\n      0x04\n      add\n      tag_125\n      swap1\n      tag_100\n      jump\t// in\n    tag_125:\n      mload(0x40)\n      dup1\n      swap2\n      sub\n      swap1\n      revert\n    tag_124:\n        /* \"contracts/NFTContract3/Roleable.sol\":966:970  true */\n      0x01\n        /* \"contracts/NFTContract3/Roleable.sol\":946:954  _minters */\n      0x05\n        /* \"contracts/NFTContract3/Roleable.sol\":946:963  _minters[account] */\n      0x00\n        /* \"contracts/NFTContract3/Roleable.sol\":955:962  account */\n      dup4\n        /* \"contracts/NFTContract3/Roleable.sol\":946:963  _minters[account] */\n      0xffffffffffffffffffffffffffffffffffffffff\n      and\n      0xffffffffffffffffffffffffffffffffffffffff\n      and\n      dup2\n      mstore\n      0x20\n      add\n      swap1\n      dup2\n      mstore\n      0x20\n      add\n      0x00\n      keccak256\n      0x00\n        /* \"contracts/NFTContract3/Roleable.sol\":946:970  _minters[account] = true */\n      0x0100\n      exp\n      dup2\n      sload\n      dup2\n      0xff\n      mul\n      not\n      and\n      swap1\n      dup4\n      iszero\n      iszero\n      mul\n      or\n      swap1\n      sstore\n      pop\n        /* \"contracts/NFTContract3/Roleable.sol\":874:977  function addToMinters(address account) public onlyMinterAdmin {... */\n      pop\n      jump\t// out\n        /* \"contracts/NFTContract3/SQFIFactory.sol\":2063:2093  uint256 public goldActivePrice */\n    tag_65:\n      sload(0x0b)\n      dup2\n      jump\t// out\n        /* \"contracts/NFTContract3/SQFIFactory.sol\":1987:2019  uint256 public bronzeActivePrice */\n    tag_69:\n      sload(0x09)\n      dup2\n      jump\t// out\n        /* \"contracts/NFTContract3/Roleable.sol\":1223:1439  function claimMinterAddmin() public onlyPendingMinterAdmin {... */\n    tag_72:\n        /* \"contracts/NFTContract3/Roleable.sol\":509:527  pendingMinterAdmin */\n      0x07\n      0x00\n      swap1\n      sload\n      swap1\n      0x0100\n      exp\n      swap1\n      div\n      0xffffffffffffffffffffffffffffffffffffffff\n      and\n        /* \"contracts/NFTContract3/Roleable.sol\":495:527  msg.sender == pendingMinterAdmin */\n      0xffffffffffffffffffffffffffffffffffffffff\n      and\n        /* \"contracts/NFTContract3/Roleable.sol\":495:505  msg.sender */\n      caller\n        /* \"contracts/NFTContract3/Roleable.sol\":495:527  msg.sender == pendingMinterAdmin */\n      0xffffffffffffffffffffffffffffffffffffffff\n      and\n      eq\n        /* \"contracts/NFTContract3/Roleable.sol\":487:565  require(msg.sender == pendingMinterAdmin, \"caller not a pending minter admin\") */\n      tag_128\n      jumpi\n      mload(0x40)\n      0x08c379a000000000000000000000000000000000000000000000000000000000\n      dup2\n      mstore\n      0x04\n      add\n      tag_129\n      swap1\n      tag_130\n      jump\t// in\n    tag_129:\n      mload(0x40)\n      dup1\n      swap2\n      sub\n      swap1\n      revert\n    tag_128:\n        /* \"contracts/NFTContract3/Roleable.sol\":1329:1347  pendingMinterAdmin */\n      0x07\n      0x00\n      swap1\n      sload\n      swap1\n      0x0100\n      exp\n      swap1\n      div\n      0xffffffffffffffffffffffffffffffffffffffff\n      and\n        /* \"contracts/NFTContract3/Roleable.sol\":1297:1348  MinterTransferred(_minteradmin, pendingMinterAdmin) */\n      0xffffffffffffffffffffffffffffffffffffffff\n      and\n        /* \"contracts/NFTContract3/Roleable.sol\":1315:1327  _minteradmin */\n      0x06\n      0x00\n      swap1\n      sload\n      swap1\n      0x0100\n      exp\n      swap1\n      div\n      0xffffffffffffffffffffffffffffffffffffffff\n      and\n        /* \"contracts/NFTContract3/Roleable.sol\":1297:1348  MinterTransferred(_minteradmin, pendingMinterAdmin) */\n      0xffffffffffffffffffffffffffffffffffffffff\n      and\n      0x02ad39e5173f89bdd5497202bd74024b5da045106c3163ddb078d2e89ff6d6de\n      mload(0x40)\n      mload(0x40)\n      dup1\n      swap2\n      sub\n      swap1\n      log3\n        /* \"contracts/NFTContract3/Roleable.sol\":1373:1391  pendingMinterAdmin */\n      0x07\n      0x00\n      swap1\n      sload\n      swap1\n      0x0100\n      exp\n      swap1\n      div\n      0xffffffffffffffffffffffffffffffffffffffff\n      and\n        /* \"contracts/NFTContract3/Roleable.sol\":1358:1370  _minteradmin */\n      0x06\n      0x00\n        /* \"contracts/NFTContract3/Roleable.sol\":1358:1391  _minteradmin = pendingMinterAdmin */\n      0x0100\n      exp\n      dup2\n      sload\n      dup2\n      0xffffffffffffffffffffffffffffffffffffffff\n      mul\n      not\n      and\n      swap1\n      dup4\n      0xffffffffffffffffffffffffffffffffffffffff\n      and\n      mul\n      or\n      swap1\n      sstore\n      pop\n        /* \"contracts/NFTContract3/Roleable.sol\":1430:1431  0 */\n      0x00\n        /* \"contracts/NFTContract3/Roleable.sol\":1401:1419  pendingMinterAdmin */\n      0x07\n      0x00\n        /* \"contracts/NFTContract3/Roleable.sol\":1401:1432  pendingMinterAdmin = address(0) */\n      0x0100\n      exp\n      dup2\n      sload\n      dup2\n      0xffffffffffffffffffffffffffffffffffffffff\n      mul\n      not\n      and\n      swap1\n      dup4\n      0xffffffffffffffffffffffffffffffffffffffff\n      and\n      mul\n      or\n      swap1\n      sstore\n      pop\n        /* \"contracts/NFTContract3/Roleable.sol\":1223:1439  function claimMinterAddmin() public onlyPendingMinterAdmin {... */\n      jump\t// out\n        /* \"contracts/NFTContract3/SQFIFactory.sol\":2025:2057  uint256 public silverActivePrice */\n    tag_74:\n      sload(0x0a)\n      dup2\n      jump\t// out\n        /* \"contracts/NFTContract3/SQFIFactory.sol\":2776:4365  function mintActiveItem(string memory typeItem) public { ... */\n    tag_79:\n        /* \"contracts/NFTContract3/SQFIFactory.sol\":2842:2856  uint256 itemId */\n      0x00\n        /* \"contracts/NFTContract3/SQFIFactory.sol\":2934:2960  abi.encodePacked(\"BRONZE\") */\n      add(0x20, mload(0x40))\n      tag_133\n      swap1\n      tag_134\n      jump\t// in\n    tag_133:\n      mload(0x40)\n      0x20\n      dup2\n      dup4\n      sub\n      sub\n      dup2\n      mstore\n      swap1\n      0x40\n      mstore\n        /* \"contracts/NFTContract3/SQFIFactory.sol\":2924:2961  keccak256(abi.encodePacked(\"BRONZE\")) */\n      dup1\n      mload\n      swap1\n      0x20\n      add\n      keccak256\n        /* \"contracts/NFTContract3/SQFIFactory.sol\":2910:2918  typeItem */\n      dup3\n        /* \"contracts/NFTContract3/SQFIFactory.sol\":2893:2919  abi.encodePacked(typeItem) */\n      add(0x20, mload(0x40))\n      tag_135\n      swap2\n      swap1\n      tag_136\n      jump\t// in\n    tag_135:\n      mload(0x40)\n      0x20\n      dup2\n      dup4\n      sub\n      sub\n      dup2\n      mstore\n      swap1\n      0x40\n      mstore\n        /* \"contracts/NFTContract3/SQFIFactory.sol\":2883:2920  keccak256(abi.encodePacked(typeItem)) */\n      dup1\n      mload\n      swap1\n      0x20\n      add\n      keccak256\n        /* \"contracts/NFTContract3/SQFIFactory.sol\":2883:2961  keccak256(abi.encodePacked(typeItem)) == keccak256(abi.encodePacked(\"BRONZE\")) */\n      eq\n        /* \"contracts/NFTContract3/SQFIFactory.sol\":2883:3051  keccak256(abi.encodePacked(typeItem)) == keccak256(abi.encodePacked(\"BRONZE\"))... */\n      dup1\n      tag_137\n      jumpi\n      pop\n        /* \"contracts/NFTContract3/SQFIFactory.sol\":3024:3050  abi.encodePacked(\"SILVER\") */\n      add(0x20, mload(0x40))\n      tag_138\n      swap1\n      tag_139\n      jump\t// in\n    tag_138:\n      mload(0x40)\n      0x20\n      dup2\n      dup4\n      sub\n      sub\n      dup2\n      mstore\n      swap1\n      0x40\n      mstore\n        /* \"contracts/NFTContract3/SQFIFactory.sol\":3014:3051  keccak256(abi.encodePacked(\"SILVER\")) */\n      dup1\n      mload\n      swap1\n      0x20\n      add\n      keccak256\n        /* \"contracts/NFTContract3/SQFIFactory.sol\":3000:3008  typeItem */\n      dup3\n        /* \"contracts/NFTContract3/SQFIFactory.sol\":2983:3009  abi.encodePacked(typeItem) */\n      add(0x20, mload(0x40))\n      tag_140\n      swap2\n      swap1\n      tag_136\n      jump\t// in\n    tag_140:\n      mload(0x40)\n      0x20\n      dup2\n      dup4\n      sub\n      sub\n      dup2\n      mstore\n      swap1\n      0x40\n      mstore\n        /* \"contracts/NFTContract3/SQFIFactory.sol\":2973:3010  keccak256(abi.encodePacked(typeItem)) */\n      dup1\n      mload\n      swap1\n      0x20\n      add\n      keccak256\n        /* \"contracts/NFTContract3/SQFIFactory.sol\":2973:3051  keccak256(abi.encodePacked(typeItem)) == keccak256(abi.encodePacked(\"SILVER\")) */\n      eq\n        /* \"contracts/NFTContract3/SQFIFactory.sol\":2883:3051  keccak256(abi.encodePacked(typeItem)) == keccak256(abi.encodePacked(\"BRONZE\"))... */\n    tag_137:\n        /* \"contracts/NFTContract3/SQFIFactory.sol\":2883:3139  keccak256(abi.encodePacked(typeItem)) == keccak256(abi.encodePacked(\"BRONZE\"))... */\n      dup1\n      tag_141\n      jumpi\n      pop\n        /* \"contracts/NFTContract3/SQFIFactory.sol\":3114:3138  abi.encodePacked(\"GOLD\") */\n      add(0x20, mload(0x40))\n      tag_142\n      swap1\n      tag_143\n      jump\t// in\n    tag_142:\n      mload(0x40)\n      0x20\n      dup2\n      dup4\n      sub\n      sub\n      dup2\n      mstore\n      swap1\n      0x40\n      mstore\n        /* \"contracts/NFTContract3/SQFIFactory.sol\":3104:3139  keccak256(abi.encodePacked(\"GOLD\")) */\n      dup1\n      mload\n      swap1\n      0x20\n      add\n      keccak256\n        /* \"contracts/NFTContract3/SQFIFactory.sol\":3090:3098  typeItem */\n      dup3\n        /* \"contracts/NFTContract3/SQFIFactory.sol\":3073:3099  abi.encodePacked(typeItem) */\n      add(0x20, mload(0x40))\n      tag_144\n      swap2\n      swap1\n      tag_136\n      jump\t// in\n    tag_144:\n      mload(0x40)\n      0x20\n      dup2\n      dup4\n      sub\n      sub\n      dup2\n      mstore\n      swap1\n      0x40\n      mstore\n        /* \"contracts/NFTContract3/SQFIFactory.sol\":3063:3100  keccak256(abi.encodePacked(typeItem)) */\n      dup1\n      mload\n      swap1\n      0x20\n      add\n      keccak256\n        /* \"contracts/NFTContract3/SQFIFactory.sol\":3063:3139  keccak256(abi.encodePacked(typeItem)) == keccak256(abi.encodePacked(\"GOLD\")) */\n      eq\n        /* \"contracts/NFTContract3/SQFIFactory.sol\":2883:3139  keccak256(abi.encodePacked(typeItem)) == keccak256(abi.encodePacked(\"BRONZE\"))... */\n    tag_141:\n        /* \"contracts/NFTContract3/SQFIFactory.sol\":2866:3185  require(... */\n      tag_145\n      jumpi\n      mload(0x40)\n      0x08c379a000000000000000000000000000000000000000000000000000000000\n      dup2\n      mstore\n      0x04\n      add\n      tag_146\n      swap1\n      tag_147\n      jump\t// in\n    tag_146:\n      mload(0x40)\n      dup1\n      swap2\n      sub\n      swap1\n      revert\n    tag_145:\n        /* \"contracts/NFTContract3/SQFIFactory.sol\":3250:3276  abi.encodePacked(\"BRONZE\") */\n      add(0x20, mload(0x40))\n      tag_148\n      swap1\n      tag_134\n      jump\t// in\n    tag_148:\n      mload(0x40)\n      0x20\n      dup2\n      dup4\n      sub\n      sub\n      dup2\n      mstore\n      swap1\n      0x40\n      mstore\n        /* \"contracts/NFTContract3/SQFIFactory.sol\":3240:3277  keccak256(abi.encodePacked(\"BRONZE\")) */\n      dup1\n      mload\n      swap1\n      0x20\n      add\n      keccak256\n        /* \"contracts/NFTContract3/SQFIFactory.sol\":3226:3234  typeItem */\n      dup3\n        /* \"contracts/NFTContract3/SQFIFactory.sol\":3209:3235  abi.encodePacked(typeItem) */\n      add(0x20, mload(0x40))\n      tag_149\n      swap2\n      swap1\n      tag_136\n      jump\t// in\n    tag_149:\n      mload(0x40)\n      0x20\n      dup2\n      dup4\n      sub\n      sub\n      dup2\n      mstore\n      swap1\n      0x40\n      mstore\n        /* \"contracts/NFTContract3/SQFIFactory.sol\":3199:3236  keccak256(abi.encodePacked(typeItem)) */\n      dup1\n      mload\n      swap1\n      0x20\n      add\n      keccak256\n        /* \"contracts/NFTContract3/SQFIFactory.sol\":3199:3277  keccak256(abi.encodePacked(typeItem)) == keccak256(abi.encodePacked(\"BRONZE\")) */\n      sub\n        /* \"contracts/NFTContract3/SQFIFactory.sol\":3195:4307  if (keccak256(abi.encodePacked(typeItem)) == keccak256(abi.encodePacked(\"BRONZE\"))) {... */\n      tag_150\n      jumpi\n        /* \"contracts/NFTContract3/SQFIFactory.sol\":3293:3301  sqfToken */\n      0x00\n      dup1\n      sload\n      swap1\n      0x0100\n      exp\n      swap1\n      div\n      0xffffffffffffffffffffffffffffffffffffffff\n      and\n        /* \"contracts/NFTContract3/SQFIFactory.sol\":3293:3314  sqfToken.transferFrom */\n      0xffffffffffffffffffffffffffffffffffffffff\n      and\n      0x23b872dd\n        /* \"contracts/NFTContract3/SQFIFactory.sol\":3315:3325  msg.sender */\n      caller\n        /* \"contracts/NFTContract3/SQFIFactory.sol\":3335:3342  owner() */\n      tag_151\n        /* \"contracts/NFTContract3/SQFIFactory.sol\":3335:3340  owner */\n      tag_55\n        /* \"contracts/NFTContract3/SQFIFactory.sol\":3335:3342  owner() */\n      jump\t// in\n    tag_151:\n        /* \"contracts/NFTContract3/SQFIFactory.sol\":3344:3361  bronzeActivePrice */\n      sload(0x09)\n        /* \"contracts/NFTContract3/SQFIFactory.sol\":3293:3362  sqfToken.transferFrom(msg.sender, address(owner()),bronzeActivePrice) */\n      mload(0x40)\n      dup5\n      0xffffffff\n      and\n      0xe0\n      shl\n      dup2\n      mstore\n      0x04\n      add\n      tag_152\n      swap4\n      swap3\n      swap2\n      swap1\n      tag_153\n      jump\t// in\n    tag_152:\n      0x20\n      mload(0x40)\n      dup1\n      dup4\n      sub\n      dup2\n      0x00\n      dup8\n      gas\n      call\n      iszero\n      dup1\n      iszero\n      tag_155\n      jumpi\n      returndatasize\n      0x00\n      dup1\n      returndatacopy\n      revert(0x00, returndatasize)\n    tag_155:\n      pop\n      pop\n      pop\n      pop\n      mload(0x40)\n      returndatasize\n      not(0x1f)\n      0x1f\n      dup3\n      add\n      and\n      dup3\n      add\n      dup1\n      0x40\n      mstore\n      pop\n      dup2\n      add\n      swap1\n      tag_156\n      swap2\n      swap1\n      tag_157\n      jump\t// in\n    tag_156:\n      pop\n        /* \"contracts/NFTContract3/SQFIFactory.sol\":3385:3389  SQFI */\n      0x0c\n      0x00\n      swap1\n      sload\n      swap1\n      0x0100\n      exp\n      swap1\n      div\n      0xffffffffffffffffffffffffffffffffffffffff\n      and\n        /* \"contracts/NFTContract3/SQFIFactory.sol\":3385:3403  SQFI.safeBuyActive */\n      0xffffffffffffffffffffffffffffffffffffffff\n      and\n      0x1f29e9fc\n        /* \"contracts/NFTContract3/SQFIFactory.sol\":3404:3412  typeItem */\n      dup4\n        /* \"contracts/NFTContract3/SQFIFactory.sol\":3385:3413  SQFI.safeBuyActive(typeItem) */\n      mload(0x40)\n      dup3\n      0xffffffff\n      and\n      0xe0\n      shl\n      dup2\n      mstore\n      0x04\n      add\n      tag_158\n      swap2\n      swap1\n      tag_159\n      jump\t// in\n    tag_158:\n      0x20\n      mload(0x40)\n      dup1\n      dup4\n      sub\n      dup2\n      0x00\n      dup8\n      gas\n      call\n      iszero\n      dup1\n      iszero\n      tag_161\n      jumpi\n      returndatasize\n      0x00\n      dup1\n      returndatacopy\n      revert(0x00, returndatasize)\n    tag_161:\n      pop\n      pop\n      pop\n      pop\n      mload(0x40)\n      returndatasize\n      not(0x1f)\n      0x1f\n      dup3\n      add\n      and\n      dup3\n      add\n      dup1\n      0x40\n      mstore\n      pop\n      dup2\n      add\n      swap1\n      tag_162\n      swap2\n      swap1\n      tag_163\n      jump\t// in\n    tag_162:\n        /* \"contracts/NFTContract3/SQFIFactory.sol\":3376:3413  itemId = SQFI.safeBuyActive(typeItem) */\n      swap1\n      pop\n        /* \"contracts/NFTContract3/SQFIFactory.sol\":3448:3550  activeItems(... */\n      mload(0x40)\n      dup1\n      0x60\n      add\n      0x40\n      mstore\n      dup1\n        /* \"contracts/NFTContract3/SQFIFactory.sol\":3473:3479  itemId */\n      dup3\n        /* \"contracts/NFTContract3/SQFIFactory.sol\":3448:3550  activeItems(... */\n      dup2\n      mstore\n      0x20\n      add\n        /* \"contracts/NFTContract3/SQFIFactory.sol\":3493:3503  msg.sender */\n      caller\n        /* \"contracts/NFTContract3/SQFIFactory.sol\":3448:3550  activeItems(... */\n      0xffffffffffffffffffffffffffffffffffffffff\n      and\n      dup2\n      mstore\n      0x20\n      add\n        /* \"contracts/NFTContract3/SQFIFactory.sol\":3517:3536  activeStatus.BRONZE */\n      0x01\n        /* \"contracts/NFTContract3/SQFIFactory.sol\":3448:3550  activeItems(... */\n      0x03\n      dup2\n      gt\n      iszero\n      tag_164\n      jumpi\n      tag_165\n      tag_166\n      jump\t// in\n    tag_165:\n    tag_164:\n      dup2\n      mstore\n      pop\n        /* \"contracts/NFTContract3/SQFIFactory.sol\":3427:3437  activeItem */\n      0x01\n        /* \"contracts/NFTContract3/SQFIFactory.sol\":3427:3445  activeItem[itemId] */\n      0x00\n        /* \"contracts/NFTContract3/SQFIFactory.sol\":3438:3444  itemId */\n      dup4\n        /* \"contracts/NFTContract3/SQFIFactory.sol\":3427:3445  activeItem[itemId] */\n      dup2\n      mstore\n      0x20\n      add\n      swap1\n      dup2\n      mstore\n      0x20\n      add\n      0x00\n      keccak256\n        /* \"contracts/NFTContract3/SQFIFactory.sol\":3427:3550  activeItem[itemId] = activeItems(... */\n      0x00\n      dup3\n      add\n      mload\n      dup2\n      0x00\n      add\n      sstore\n      0x20\n      dup3\n      add\n      mload\n      dup2\n      0x01\n      add\n      exp(0x0100, 0x00)\n      dup2\n      sload\n      dup2\n      0xffffffffffffffffffffffffffffffffffffffff\n      mul\n      not\n      and\n      swap1\n      dup4\n      0xffffffffffffffffffffffffffffffffffffffff\n      and\n      mul\n      or\n      swap1\n      sstore\n      pop\n      0x40\n      dup3\n      add\n      mload\n      dup2\n      0x01\n      add\n      exp(0x0100, 0x14)\n      dup2\n      sload\n      dup2\n      0xff\n      mul\n      not\n      and\n      swap1\n      dup4\n      0x03\n      dup2\n      gt\n      iszero\n      tag_167\n      jumpi\n      tag_168\n      tag_166\n      jump\t// in\n    tag_168:\n    tag_167:\n      mul\n      or\n      swap1\n      sstore\n      pop\n      swap1\n      pop\n      pop\n        /* \"contracts/NFTContract3/SQFIFactory.sol\":3195:4307  if (keccak256(abi.encodePacked(typeItem)) == keccak256(abi.encodePacked(\"BRONZE\"))) {... */\n      jump(tag_169)\n    tag_150:\n        /* \"contracts/NFTContract3/SQFIFactory.sol\":3629:3655  abi.encodePacked(\"SILVER\") */\n      add(0x20, mload(0x40))\n      tag_170\n      swap1\n      tag_139\n      jump\t// in\n    tag_170:\n      mload(0x40)\n      0x20\n      dup2\n      dup4\n      sub\n      sub\n      dup2\n      mstore\n      swap1\n      0x40\n      mstore\n        /* \"contracts/NFTContract3/SQFIFactory.sol\":3619:3656  keccak256(abi.encodePacked(\"SILVER\")) */\n      dup1\n      mload\n      swap1\n      0x20\n      add\n      keccak256\n        /* \"contracts/NFTContract3/SQFIFactory.sol\":3605:3613  typeItem */\n      dup3\n        /* \"contracts/NFTContract3/SQFIFactory.sol\":3588:3614  abi.encodePacked(typeItem) */\n      add(0x20, mload(0x40))\n      tag_171\n      swap2\n      swap1\n      tag_136\n      jump\t// in\n    tag_171:\n      mload(0x40)\n      0x20\n      dup2\n      dup4\n      sub\n      sub\n      dup2\n      mstore\n      swap1\n      0x40\n      mstore\n        /* \"contracts/NFTContract3/SQFIFactory.sol\":3578:3615  keccak256(abi.encodePacked(typeItem)) */\n      dup1\n      mload\n      swap1\n      0x20\n      add\n      keccak256\n        /* \"contracts/NFTContract3/SQFIFactory.sol\":3578:3656  keccak256(abi.encodePacked(typeItem)) == keccak256(abi.encodePacked(\"SILVER\")) */\n      sub\n        /* \"contracts/NFTContract3/SQFIFactory.sol\":3575:4307  if(keccak256(abi.encodePacked(typeItem)) == keccak256(abi.encodePacked(\"SILVER\"))) { ... */\n      tag_172\n      jumpi\n        /* \"contracts/NFTContract3/SQFIFactory.sol\":3673:3681  sqfToken */\n      0x00\n      dup1\n      sload\n      swap1\n      0x0100\n      exp\n      swap1\n      div\n      0xffffffffffffffffffffffffffffffffffffffff\n      and\n        /* \"contracts/NFTContract3/SQFIFactory.sol\":3673:3694  sqfToken.transferFrom */\n      0xffffffffffffffffffffffffffffffffffffffff\n      and\n      0x23b872dd\n        /* \"contracts/NFTContract3/SQFIFactory.sol\":3695:3705  msg.sender */\n      caller\n        /* \"contracts/NFTContract3/SQFIFactory.sol\":3715:3722  owner() */\n      tag_173\n        /* \"contracts/NFTContract3/SQFIFactory.sol\":3715:3720  owner */\n      tag_55\n        /* \"contracts/NFTContract3/SQFIFactory.sol\":3715:3722  owner() */\n      jump\t// in\n    tag_173:\n        /* \"contracts/NFTContract3/SQFIFactory.sol\":3724:3741  silverActivePrice */\n      sload(0x0a)\n        /* \"contracts/NFTContract3/SQFIFactory.sol\":3673:3742  sqfToken.transferFrom(msg.sender, address(owner()),silverActivePrice) */\n      mload(0x40)\n      dup5\n      0xffffffff\n      and\n      0xe0\n      shl\n      dup2\n      mstore\n      0x04\n      add\n      tag_174\n      swap4\n      swap3\n      swap2\n      swap1\n      tag_153\n      jump\t// in\n    tag_174:\n      0x20\n      mload(0x40)\n      dup1\n      dup4\n      sub\n      dup2\n      0x00\n      dup8\n      gas\n      call\n      iszero\n      dup1\n      iszero\n      tag_176\n      jumpi\n      returndatasize\n      0x00\n      dup1\n      returndatacopy\n      revert(0x00, returndatasize)\n    tag_176:\n      pop\n      pop\n      pop\n      pop\n      mload(0x40)\n      returndatasize\n      not(0x1f)\n      0x1f\n      dup3\n      add\n      and\n      dup3\n      add\n      dup1\n      0x40\n      mstore\n      pop\n      dup2\n      add\n      swap1\n      tag_177\n      swap2\n      swap1\n      tag_157\n      jump\t// in\n    tag_177:\n      pop\n        /* \"contracts/NFTContract3/SQFIFactory.sol\":3765:3769  SQFI */\n      0x0c\n      0x00\n      swap1\n      sload\n      swap1\n      0x0100\n      exp\n      swap1\n      div\n      0xffffffffffffffffffffffffffffffffffffffff\n      and\n        /* \"contracts/NFTContract3/SQFIFactory.sol\":3765:3783  SQFI.safeBuyActive */\n      0xffffffffffffffffffffffffffffffffffffffff\n      and\n      0x1f29e9fc\n        /* \"contracts/NFTContract3/SQFIFactory.sol\":3784:3792  typeItem */\n      dup4\n        /* \"contracts/NFTContract3/SQFIFactory.sol\":3765:3793  SQFI.safeBuyActive(typeItem) */\n      mload(0x40)\n      dup3\n      0xffffffff\n      and\n      0xe0\n      shl\n      dup2\n      mstore\n      0x04\n      add\n      tag_178\n      swap2\n      swap1\n      tag_159\n      jump\t// in\n    tag_178:\n      0x20\n      mload(0x40)\n      dup1\n      dup4\n      sub\n      dup2\n      0x00\n      dup8\n      gas\n      call\n      iszero\n      dup1\n      iszero\n      tag_180\n      jumpi\n      returndatasize\n      0x00\n      dup1\n      returndatacopy\n      revert(0x00, returndatasize)\n    tag_180:\n      pop\n      pop\n      pop\n      pop\n      mload(0x40)\n      returndatasize\n      not(0x1f)\n      0x1f\n      dup3\n      add\n      and\n      dup3\n      add\n      dup1\n      0x40\n      mstore\n      pop\n      dup2\n      add\n      swap1\n      tag_181\n      swap2\n      swap1\n      tag_163\n      jump\t// in\n    tag_181:\n        /* \"contracts/NFTContract3/SQFIFactory.sol\":3756:3793  itemId = SQFI.safeBuyActive(typeItem) */\n      swap1\n      pop\n        /* \"contracts/NFTContract3/SQFIFactory.sol\":3828:3926  activeItems(... */\n      mload(0x40)\n      dup1\n      0x60\n      add\n      0x40\n      mstore\n      dup1\n        /* \"contracts/NFTContract3/SQFIFactory.sol\":3853:3859  itemId */\n      dup3\n        /* \"contracts/NFTContract3/SQFIFactory.sol\":3828:3926  activeItems(... */\n      dup2\n      mstore\n      0x20\n      add\n        /* \"contracts/NFTContract3/SQFIFactory.sol\":3873:3883  msg.sender */\n      caller\n        /* \"contracts/NFTContract3/SQFIFactory.sol\":3828:3926  activeItems(... */\n      0xffffffffffffffffffffffffffffffffffffffff\n      and\n      dup2\n      mstore\n      0x20\n      add\n        /* \"contracts/NFTContract3/SQFIFactory.sol\":3897:3916  activeStatus.SILVER */\n      0x02\n        /* \"contracts/NFTContract3/SQFIFactory.sol\":3828:3926  activeItems(... */\n      0x03\n      dup2\n      gt\n      iszero\n      tag_182\n      jumpi\n      tag_183\n      tag_166\n      jump\t// in\n    tag_183:\n    tag_182:\n      dup2\n      mstore\n      pop\n        /* \"contracts/NFTContract3/SQFIFactory.sol\":3807:3817  activeItem */\n      0x01\n        /* \"contracts/NFTContract3/SQFIFactory.sol\":3807:3825  activeItem[itemId] */\n      0x00\n        /* \"contracts/NFTContract3/SQFIFactory.sol\":3818:3824  itemId */\n      dup4\n        /* \"contracts/NFTContract3/SQFIFactory.sol\":3807:3825  activeItem[itemId] */\n      dup2\n      mstore\n      0x20\n      add\n      swap1\n      dup2\n      mstore\n      0x20\n      add\n      0x00\n      keccak256\n        /* \"contracts/NFTContract3/SQFIFactory.sol\":3807:3926  activeItem[itemId] = activeItems(... */\n      0x00\n      dup3\n      add\n      mload\n      dup2\n      0x00\n      add\n      sstore\n      0x20\n      dup3\n      add\n      mload\n      dup2\n      0x01\n      add\n      exp(0x0100, 0x00)\n      dup2\n      sload\n      dup2\n      0xffffffffffffffffffffffffffffffffffffffff\n      mul\n      not\n      and\n      swap1\n      dup4\n      0xffffffffffffffffffffffffffffffffffffffff\n      and\n      mul\n      or\n      swap1\n      sstore\n      pop\n      0x40\n      dup3\n      add\n      mload\n      dup2\n      0x01\n      add\n      exp(0x0100, 0x14)\n      dup2\n      sload\n      dup2\n      0xff\n      mul\n      not\n      and\n      swap1\n      dup4\n      0x03\n      dup2\n      gt\n      iszero\n      tag_184\n      jumpi\n      tag_185\n      tag_166\n      jump\t// in\n    tag_185:\n    tag_184:\n      mul\n      or\n      swap1\n      sstore\n      pop\n      swap1\n      pop\n      pop\n        /* \"contracts/NFTContract3/SQFIFactory.sol\":3575:4307  if(keccak256(abi.encodePacked(typeItem)) == keccak256(abi.encodePacked(\"SILVER\"))) { ... */\n      jump(tag_186)\n    tag_172:\n        /* \"contracts/NFTContract3/SQFIFactory.sol\":4005:4029  abi.encodePacked(\"GOLD\") */\n      add(0x20, mload(0x40))\n      tag_187\n      swap1\n      tag_143\n      jump\t// in\n    tag_187:\n      mload(0x40)\n      0x20\n      dup2\n      dup4\n      sub\n      sub\n      dup2\n      mstore\n      swap1\n      0x40\n      mstore\n        /* \"contracts/NFTContract3/SQFIFactory.sol\":3995:4030  keccak256(abi.encodePacked(\"GOLD\")) */\n      dup1\n      mload\n      swap1\n      0x20\n      add\n      keccak256\n        /* \"contracts/NFTContract3/SQFIFactory.sol\":3981:3989  typeItem */\n      dup3\n        /* \"contracts/NFTContract3/SQFIFactory.sol\":3964:3990  abi.encodePacked(typeItem) */\n      add(0x20, mload(0x40))\n      tag_188\n      swap2\n      swap1\n      tag_136\n      jump\t// in\n    tag_188:\n      mload(0x40)\n      0x20\n      dup2\n      dup4\n      sub\n      sub\n      dup2\n      mstore\n      swap1\n      0x40\n      mstore\n        /* \"contracts/NFTContract3/SQFIFactory.sol\":3954:3991  keccak256(abi.encodePacked(typeItem)) */\n      dup1\n      mload\n      swap1\n      0x20\n      add\n      keccak256\n        /* \"contracts/NFTContract3/SQFIFactory.sol\":3954:4030  keccak256(abi.encodePacked(typeItem)) == keccak256(abi.encodePacked(\"GOLD\")) */\n      sub\n        /* \"contracts/NFTContract3/SQFIFactory.sol\":3951:4307  if(keccak256(abi.encodePacked(typeItem)) == keccak256(abi.encodePacked(\"GOLD\"))) { ... */\n      tag_189\n      jumpi\n        /* \"contracts/NFTContract3/SQFIFactory.sol\":4047:4055  sqfToken */\n      0x00\n      dup1\n      sload\n      swap1\n      0x0100\n      exp\n      swap1\n      div\n      0xffffffffffffffffffffffffffffffffffffffff\n      and\n        /* \"contracts/NFTContract3/SQFIFactory.sol\":4047:4068  sqfToken.transferFrom */\n      0xffffffffffffffffffffffffffffffffffffffff\n      and\n      0x23b872dd\n        /* \"contracts/NFTContract3/SQFIFactory.sol\":4069:4079  msg.sender */\n      caller\n        /* \"contracts/NFTContract3/SQFIFactory.sol\":4089:4096  owner() */\n      tag_190\n        /* \"contracts/NFTContract3/SQFIFactory.sol\":4089:4094  owner */\n      tag_55\n        /* \"contracts/NFTContract3/SQFIFactory.sol\":4089:4096  owner() */\n      jump\t// in\n    tag_190:\n        /* \"contracts/NFTContract3/SQFIFactory.sol\":4098:4113  goldActivePrice */\n      sload(0x0b)\n        /* \"contracts/NFTContract3/SQFIFactory.sol\":4047:4114  sqfToken.transferFrom(msg.sender, address(owner()),goldActivePrice) */\n      mload(0x40)\n      dup5\n      0xffffffff\n      and\n      0xe0\n      shl\n      dup2\n      mstore\n      0x04\n      add\n      tag_191\n      swap4\n      swap3\n      swap2\n      swap1\n      tag_153\n      jump\t// in\n    tag_191:\n      0x20\n      mload(0x40)\n      dup1\n      dup4\n      sub\n      dup2\n      0x00\n      dup8\n      gas\n      call\n      iszero\n      dup1\n      iszero\n      tag_193\n      jumpi\n      returndatasize\n      0x00\n      dup1\n      returndatacopy\n      revert(0x00, returndatasize)\n    tag_193:\n      pop\n      pop\n      pop\n      pop\n      mload(0x40)\n      returndatasize\n      not(0x1f)\n      0x1f\n      dup3\n      add\n      and\n      dup3\n      add\n      dup1\n      0x40\n      mstore\n      pop\n      dup2\n      add\n      swap1\n      tag_194\n      swap2\n      swap1\n      tag_157\n      jump\t// in\n    tag_194:\n      pop\n        /* \"contracts/NFTContract3/SQFIFactory.sol\":4137:4141  SQFI */\n      0x0c\n      0x00\n      swap1\n      sload\n      swap1\n      0x0100\n      exp\n      swap1\n      div\n      0xffffffffffffffffffffffffffffffffffffffff\n      and\n        /* \"contracts/NFTContract3/SQFIFactory.sol\":4137:4155  SQFI.safeBuyActive */\n      0xffffffffffffffffffffffffffffffffffffffff\n      and\n      0x1f29e9fc\n        /* \"contracts/NFTContract3/SQFIFactory.sol\":4156:4164  typeItem */\n      dup4\n        /* \"contracts/NFTContract3/SQFIFactory.sol\":4137:4165  SQFI.safeBuyActive(typeItem) */\n      mload(0x40)\n      dup3\n      0xffffffff\n      and\n      0xe0\n      shl\n      dup2\n      mstore\n      0x04\n      add\n      tag_195\n      swap2\n      swap1\n      tag_159\n      jump\t// in\n    tag_195:\n      0x20\n      mload(0x40)\n      dup1\n      dup4\n      sub\n      dup2\n      0x00\n      dup8\n      gas\n      call\n      iszero\n      dup1\n      iszero\n      tag_197\n      jumpi\n      returndatasize\n      0x00\n      dup1\n      returndatacopy\n      revert(0x00, returndatasize)\n    tag_197:\n      pop\n      pop\n      pop\n      pop\n      mload(0x40)\n      returndatasize\n      not(0x1f)\n      0x1f\n      dup3\n      add\n      and\n      dup3\n      add\n      dup1\n      0x40\n      mstore\n      pop\n      dup2\n      add\n      swap1\n      tag_198\n      swap2\n      swap1\n      tag_163\n      jump\t// in\n    tag_198:\n        /* \"contracts/NFTContract3/SQFIFactory.sol\":4128:4165  itemId = SQFI.safeBuyActive(typeItem) */\n      swap1\n      pop\n        /* \"contracts/NFTContract3/SQFIFactory.sol\":4200:4296  activeItems(... */\n      mload(0x40)\n      dup1\n      0x60\n      add\n      0x40\n      mstore\n      dup1\n        /* \"contracts/NFTContract3/SQFIFactory.sol\":4225:4231  itemId */\n      dup3\n        /* \"contracts/NFTContract3/SQFIFactory.sol\":4200:4296  activeItems(... */\n      dup2\n      mstore\n      0x20\n      add\n        /* \"contracts/NFTContract3/SQFIFactory.sol\":4245:4255  msg.sender */\n      caller\n        /* \"contracts/NFTContract3/SQFIFactory.sol\":4200:4296  activeItems(... */\n      0xffffffffffffffffffffffffffffffffffffffff\n      and\n      dup2\n      mstore\n      0x20\n      add\n        /* \"contracts/NFTContract3/SQFIFactory.sol\":4269:4286  activeStatus.GOLD */\n      0x03\n        /* \"contracts/NFTContract3/SQFIFactory.sol\":4200:4296  activeItems(... */\n      dup1\n      dup2\n      gt\n      iszero\n      tag_199\n      jumpi\n      tag_200\n      tag_166\n      jump\t// in\n    tag_200:\n    tag_199:\n      dup2\n      mstore\n      pop\n        /* \"contracts/NFTContract3/SQFIFactory.sol\":4179:4189  activeItem */\n      0x01\n        /* \"contracts/NFTContract3/SQFIFactory.sol\":4179:4197  activeItem[itemId] */\n      0x00\n        /* \"contracts/NFTContract3/SQFIFactory.sol\":4190:4196  itemId */\n      dup4\n        /* \"contracts/NFTContract3/SQFIFactory.sol\":4179:4197  activeItem[itemId] */\n      dup2\n      mstore\n      0x20\n      add\n      swap1\n      dup2\n      mstore\n      0x20\n      add\n      0x00\n      keccak256\n        /* \"contracts/NFTContract3/SQFIFactory.sol\":4179:4296  activeItem[itemId] = activeItems(... */\n      0x00\n      dup3\n      add\n      mload\n      dup2\n      0x00\n      add\n      sstore\n      0x20\n      dup3\n      add\n      mload\n      dup2\n      0x01\n      add\n      exp(0x0100, 0x00)\n      dup2\n      sload\n      dup2\n      0xffffffffffffffffffffffffffffffffffffffff\n      mul\n      not\n      and\n      swap1\n      dup4\n      0xffffffffffffffffffffffffffffffffffffffff\n      and\n      mul\n      or\n      swap1\n      sstore\n      pop\n      0x40\n      dup3\n      add\n      mload\n      dup2\n      0x01\n      add\n      exp(0x0100, 0x14)\n      dup2\n      sload\n      dup2\n      0xff\n      mul\n      not\n      and\n      swap1\n      dup4\n      0x03\n      dup2\n      gt\n      iszero\n      tag_201\n      jumpi\n      tag_202\n      tag_166\n      jump\t// in\n    tag_202:\n    tag_201:\n      mul\n      or\n      swap1\n      sstore\n      pop\n      swap1\n      pop\n      pop\n        /* \"contracts/NFTContract3/SQFIFactory.sol\":3951:4307  if(keccak256(abi.encodePacked(typeItem)) == keccak256(abi.encodePacked(\"GOLD\"))) { ... */\n    tag_189:\n        /* \"contracts/NFTContract3/SQFIFactory.sol\":3575:4307  if(keccak256(abi.encodePacked(typeItem)) == keccak256(abi.encodePacked(\"SILVER\"))) { ... */\n    tag_186:\n        /* \"contracts/NFTContract3/SQFIFactory.sol\":3195:4307  if (keccak256(abi.encodePacked(typeItem)) == keccak256(abi.encodePacked(\"BRONZE\"))) {... */\n    tag_169:\n        /* \"contracts/NFTContract3/SQFIFactory.sol\":4338:4348  msg.sender */\n      caller\n        /* \"contracts/NFTContract3/SQFIFactory.sol\":4321:4358  buyActive(itemId,msg.sender,typeItem) */\n      0xffffffffffffffffffffffffffffffffffffffff\n      and\n      0x1db2f8d3844c137e9a42d6083e0d6d79f46718a5b5f1df7504c174630c01bc10\n        /* \"contracts/NFTContract3/SQFIFactory.sol\":4331:4337  itemId */\n      dup3\n        /* \"contracts/NFTContract3/SQFIFactory.sol\":4349:4357  typeItem */\n      dup5\n        /* \"contracts/NFTContract3/SQFIFactory.sol\":4321:4358  buyActive(itemId,msg.sender,typeItem) */\n      mload(0x40)\n      tag_203\n      swap3\n      swap2\n      swap1\n      tag_204\n      jump\t// in\n    tag_203:\n      mload(0x40)\n      dup1\n      swap2\n      sub\n      swap1\n      log2\n        /* \"contracts/NFTContract3/SQFIFactory.sol\":2831:4365  { ... */\n      pop\n        /* \"contracts/NFTContract3/SQFIFactory.sol\":2776:4365  function mintActiveItem(string memory typeItem) public { ... */\n      pop\n      jump\t// out\n        /* \"contracts/NFTContract3/Roleable.sol\":163:196  address public pendingMinterAdmin */\n    tag_81:\n      0x07\n      0x00\n      swap1\n      sload\n      swap1\n      0x0100\n      exp\n      swap1\n      div\n      0xffffffffffffffffffffffffffffffffffffffff\n      and\n      dup2\n      jump\t// out\n        /* \"contracts/NFTContract3/FactoryStorage.sol\":1469:1518  mapping(uint256 => ingameItems) public ingameItem */\n    tag_85:\n      mstore(0x20, 0x02)\n      dup1\n      0x00\n      mstore\n      keccak256(0x00, 0x40)\n      0x00\n      swap2\n      pop\n      swap1\n      pop\n      dup1\n      0x00\n      add\n      sload\n      swap1\n      dup1\n      0x01\n      add\n      dup1\n      sload\n      tag_205\n      swap1\n      tag_206\n      jump\t// in\n    tag_205:\n      dup1\n      0x1f\n      add\n      0x20\n      dup1\n      swap2\n      div\n      mul\n      0x20\n      add\n      mload(0x40)\n      swap1\n      dup2\n      add\n      0x40\n      mstore\n      dup1\n      swap3\n      swap2\n      swap1\n      dup2\n      dup2\n      mstore\n      0x20\n      add\n      dup3\n      dup1\n      sload\n      tag_207\n      swap1\n      tag_206\n      jump\t// in\n    tag_207:\n      dup1\n      iszero\n      tag_208\n      jumpi\n      dup1\n      0x1f\n      lt\n      tag_209\n      jumpi\n      0x0100\n      dup1\n      dup4\n      sload\n      div\n      mul\n      dup4\n      mstore\n      swap2\n      0x20\n      add\n      swap2\n      jump(tag_208)\n    tag_209:\n      dup3\n      add\n      swap2\n      swap1\n      0x00\n      mstore\n      keccak256(0x00, 0x20)\n      swap1\n    tag_210:\n      dup2\n      sload\n      dup2\n      mstore\n      swap1\n      0x01\n      add\n      swap1\n      0x20\n      add\n      dup1\n      dup4\n      gt\n      tag_210\n      jumpi\n      dup3\n      swap1\n      sub\n      0x1f\n      and\n      dup3\n      add\n      swap2\n    tag_208:\n      pop\n      pop\n      pop\n      pop\n      pop\n      swap1\n      dup1\n      0x02\n      add\n      0x00\n      swap1\n      sload\n      swap1\n      0x0100\n      exp\n      swap1\n      div\n      0xff\n      and\n      swap1\n      pop\n      dup4\n      jump\t// out\n        /* \"contracts/NFTContract3/SQFIFactory.sol\":1955:1981  address public nftContract */\n    tag_89:\n      0x08\n      0x00\n      swap1\n      sload\n      swap1\n      0x0100\n      exp\n      swap1\n      div\n      0xffffffffffffffffffffffffffffffffffffffff\n      and\n      dup2\n      jump\t// out\n        /* \"contracts/NFTContract3/Roleable.sol\":778:868  function minterAddmin() public view returns (address) {... */\n    tag_92:\n        /* \"contracts/NFTContract3/Roleable.sol\":823:830  address */\n      0x00\n        /* \"contracts/NFTContract3/Roleable.sol\":849:861  _minteradmin */\n      0x06\n      0x00\n      swap1\n      sload\n      swap1\n      0x0100\n      exp\n      swap1\n      div\n      0xffffffffffffffffffffffffffffffffffffffff\n      and\n        /* \"contracts/NFTContract3/Roleable.sol\":842:861  return _minteradmin */\n      swap1\n      pop\n        /* \"contracts/NFTContract3/Roleable.sol\":778:868  function minterAddmin() public view returns (address) {... */\n      swap1\n      jump\t// out\n        /* \"contracts/NFTContract3/Ownable.sol\":1911:2109  function transferOwnership(address newOwner) public virtual onlyOwner {... */\n    tag_96:\n        /* \"contracts/NFTContract3/Ownable.sol\":1252:1264  _msgSender() */\n      tag_213\n        /* \"contracts/NFTContract3/Ownable.sol\":1252:1262  _msgSender */\n      tag_108\n        /* \"contracts/NFTContract3/Ownable.sol\":1252:1264  _msgSender() */\n      jump\t// in\n    tag_213:\n        /* \"contracts/NFTContract3/Ownable.sol\":1241:1264  owner() == _msgSender() */\n      0xffffffffffffffffffffffffffffffffffffffff\n      and\n        /* \"contracts/NFTContract3/Ownable.sol\":1241:1248  owner() */\n      tag_214\n        /* \"contracts/NFTContract3/Ownable.sol\":1241:1246  owner */\n      tag_55\n        /* \"contracts/NFTContract3/Ownable.sol\":1241:1248  owner() */\n      jump\t// in\n    tag_214:\n        /* \"contracts/NFTContract3/Ownable.sol\":1241:1264  owner() == _msgSender() */\n      0xffffffffffffffffffffffffffffffffffffffff\n      and\n      eq\n        /* \"contracts/NFTContract3/Ownable.sol\":1233:1301  require(owner() == _msgSender(), \"Ownable: caller is not the owner\") */\n      tag_215\n      jumpi\n      mload(0x40)\n      0x08c379a000000000000000000000000000000000000000000000000000000000\n      dup2\n      mstore\n      0x04\n      add\n      tag_216\n      swap1\n      tag_112\n      jump\t// in\n    tag_216:\n      mload(0x40)\n      dup1\n      swap2\n      sub\n      swap1\n      revert\n    tag_215:\n        /* \"contracts/NFTContract3/Ownable.sol\":2019:2020  0 */\n      0x00\n        /* \"contracts/NFTContract3/Ownable.sol\":1999:2021  newOwner != address(0) */\n      0xffffffffffffffffffffffffffffffffffffffff\n      and\n        /* \"contracts/NFTContract3/Ownable.sol\":1999:2007  newOwner */\n      dup2\n        /* \"contracts/NFTContract3/Ownable.sol\":1999:2021  newOwner != address(0) */\n      0xffffffffffffffffffffffffffffffffffffffff\n      and\n      sub\n        /* \"contracts/NFTContract3/Ownable.sol\":1991:2064  require(newOwner != address(0), \"Ownable: new owner is the zero address\") */\n      tag_218\n      jumpi\n      mload(0x40)\n      0x08c379a000000000000000000000000000000000000000000000000000000000\n      dup2\n      mstore\n      0x04\n      add\n      tag_219\n      swap1\n      tag_220\n      jump\t// in\n    tag_219:\n      mload(0x40)\n      dup1\n      swap2\n      sub\n      swap1\n      revert\n    tag_218:\n        /* \"contracts/NFTContract3/Ownable.sol\":2074:2102  _transferOwnership(newOwner) */\n      tag_221\n        /* \"contracts/NFTContract3/Ownable.sol\":2093:2101  newOwner */\n      dup2\n        /* \"contracts/NFTContract3/Ownable.sol\":2074:2092  _transferOwnership */\n      tag_115\n        /* \"contracts/NFTContract3/Ownable.sol\":2074:2102  _transferOwnership(newOwner) */\n      jump\t// in\n    tag_221:\n        /* \"contracts/NFTContract3/Ownable.sol\":1911:2109  function transferOwnership(address newOwner) public virtual onlyOwner {... */\n      pop\n      jump\t// out\n        /* \"contracts/NFTContract3/Context.sol\":640:736  function _msgSender() internal view virtual returns (address) {... */\n    tag_108:\n        /* \"contracts/NFTContract3/Context.sol\":693:700  address */\n      0x00\n        /* \"contracts/NFTContract3/Context.sol\":719:729  msg.sender */\n      caller\n        /* \"contracts/NFTContract3/Context.sol\":712:729  return msg.sender */\n      swap1\n      pop\n        /* \"contracts/NFTContract3/Context.sol\":640:736  function _msgSender() internal view virtual returns (address) {... */\n      swap1\n      jump\t// out\n        /* \"contracts/NFTContract3/Ownable.sol\":2263:2450  function _transferOwnership(address newOwner) internal virtual {... */\n    tag_115:\n        /* \"contracts/NFTContract3/Ownable.sol\":2336:2352  address oldOwner */\n      0x00\n        /* \"contracts/NFTContract3/Ownable.sol\":2355:2361  _owner */\n      0x04\n      0x00\n      swap1\n      sload\n      swap1\n      0x0100\n      exp\n      swap1\n      div\n      0xffffffffffffffffffffffffffffffffffffffff\n      and\n        /* \"contracts/NFTContract3/Ownable.sol\":2336:2361  address oldOwner = _owner */\n      swap1\n      pop\n        /* \"contracts/NFTContract3/Ownable.sol\":2380:2388  newOwner */\n      dup2\n        /* \"contracts/NFTContract3/Ownable.sol\":2371:2377  _owner */\n      0x04\n      0x00\n        /* \"contracts/NFTContract3/Ownable.sol\":2371:2388  _owner = newOwner */\n      0x0100\n      exp\n      dup2\n      sload\n      dup2\n      0xffffffffffffffffffffffffffffffffffffffff\n      mul\n      not\n      and\n      swap1\n      dup4\n      0xffffffffffffffffffffffffffffffffffffffff\n      and\n      mul\n      or\n      swap1\n      sstore\n      pop\n        /* \"contracts/NFTContract3/Ownable.sol\":2434:2442  newOwner */\n      dup2\n        /* \"contracts/NFTContract3/Ownable.sol\":2403:2443  OwnershipTransferred(oldOwner, newOwner) */\n      0xffffffffffffffffffffffffffffffffffffffff\n      and\n        /* \"contracts/NFTContract3/Ownable.sol\":2424:2432  oldOwner */\n      dup2\n        /* \"contracts/NFTContract3/Ownable.sol\":2403:2443  OwnershipTransferred(oldOwner, newOwner) */\n      0xffffffffffffffffffffffffffffffffffffffff\n      and\n      0x8be0079c531659141344cd1fd0a4f28419497f9722a3daafe3b4186f6b6457e0\n      mload(0x40)\n      mload(0x40)\n      dup1\n      swap2\n      sub\n      swap1\n      log3\n        /* \"contracts/NFTContract3/Ownable.sol\":2326:2450  {... */\n      pop\n        /* \"contracts/NFTContract3/Ownable.sol\":2263:2450  function _transferOwnership(address newOwner) internal virtual {... */\n      pop\n      jump\t// out\n        /* \"#utility.yul\":7:133   */\n    tag_224:\n        /* \"#utility.yul\":44:51   */\n      0x00\n        /* \"#utility.yul\":84:126   */\n      0xffffffffffffffffffffffffffffffffffffffff\n        /* \"#utility.yul\":77:82   */\n      dup3\n        /* \"#utility.yul\":73:127   */\n      and\n        /* \"#utility.yul\":62:127   */\n      swap1\n      pop\n        /* \"#utility.yul\":7:133   */\n      swap2\n      swap1\n      pop\n      jump\t// out\n        /* \"#utility.yul\":139:199   */\n    tag_225:\n        /* \"#utility.yul\":167:170   */\n      0x00\n        /* \"#utility.yul\":188:193   */\n      dup2\n        /* \"#utility.yul\":181:193   */\n      swap1\n      pop\n        /* \"#utility.yul\":139:199   */\n      swap2\n      swap1\n      pop\n      jump\t// out\n        /* \"#utility.yul\":205:347   */\n    tag_226:\n        /* \"#utility.yul\":255:264   */\n      0x00\n        /* \"#utility.yul\":288:341   */\n      tag_291\n        /* \"#utility.yul\":306:340   */\n      tag_292\n        /* \"#utility.yul\":315:339   */\n      tag_293\n        /* \"#utility.yul\":333:338   */\n      dup5\n        /* \"#utility.yul\":315:339   */\n      tag_224\n      jump\t// in\n    tag_293:\n        /* \"#utility.yul\":306:340   */\n      tag_225\n      jump\t// in\n    tag_292:\n        /* \"#utility.yul\":288:341   */\n      tag_224\n      jump\t// in\n    tag_291:\n        /* \"#utility.yul\":275:341   */\n      swap1\n      pop\n        /* \"#utility.yul\":205:347   */\n      swap2\n      swap1\n      pop\n      jump\t// out\n        /* \"#utility.yul\":353:479   */\n    tag_227:\n        /* \"#utility.yul\":403:412   */\n      0x00\n        /* \"#utility.yul\":436:473   */\n      tag_295\n        /* \"#utility.yul\":467:472   */\n      dup3\n        /* \"#utility.yul\":436:473   */\n      tag_226\n      jump\t// in\n    tag_295:\n        /* \"#utility.yul\":423:473   */\n      swap1\n      pop\n        /* \"#utility.yul\":353:479   */\n      swap2\n      swap1\n      pop\n      jump\t// out\n        /* \"#utility.yul\":485:624   */\n    tag_228:\n        /* \"#utility.yul\":548:557   */\n      0x00\n        /* \"#utility.yul\":581:618   */\n      tag_297\n        /* \"#utility.yul\":612:617   */\n      dup3\n        /* \"#utility.yul\":581:618   */\n      tag_227\n      jump\t// in\n    tag_297:\n        /* \"#utility.yul\":568:618   */\n      swap1\n      pop\n        /* \"#utility.yul\":485:624   */\n      swap2\n      swap1\n      pop\n      jump\t// out\n        /* \"#utility.yul\":630:787   */\n    tag_229:\n        /* \"#utility.yul\":730:780   */\n      tag_299\n        /* \"#utility.yul\":774:779   */\n      dup2\n        /* \"#utility.yul\":730:780   */\n      tag_228\n      jump\t// in\n    tag_299:\n        /* \"#utility.yul\":725:728   */\n      dup3\n        /* \"#utility.yul\":718:781   */\n      mstore\n        /* \"#utility.yul\":630:787   */\n      pop\n      pop\n      jump\t// out\n        /* \"#utility.yul\":793:1041   */\n    tag_29:\n        /* \"#utility.yul\":899:903   */\n      0x00\n        /* \"#utility.yul\":937:939   */\n      0x20\n        /* \"#utility.yul\":926:935   */\n      dup3\n        /* \"#utility.yul\":922:940   */\n      add\n        /* \"#utility.yul\":914:940   */\n      swap1\n      pop\n        /* \"#utility.yul\":950:1034   */\n      tag_301\n        /* \"#utility.yul\":1031:1032   */\n      0x00\n        /* \"#utility.yul\":1020:1029   */\n      dup4\n        /* \"#utility.yul\":1016:1033   */\n      add\n        /* \"#utility.yul\":1007:1013   */\n      dup5\n        /* \"#utility.yul\":950:1034   */\n      tag_229\n      jump\t// in\n    tag_301:\n        /* \"#utility.yul\":793:1041   */\n      swap3\n      swap2\n      pop\n      pop\n      jump\t// out\n        /* \"#utility.yul\":1047:1122   */\n    tag_230:\n        /* \"#utility.yul\":1080:1086   */\n      0x00\n        /* \"#utility.yul\":1113:1115   */\n      0x40\n        /* \"#utility.yul\":1107:1116   */\n      mload\n        /* \"#utility.yul\":1097:1116   */\n      swap1\n      pop\n        /* \"#utility.yul\":1047:1122   */\n      swap1\n      jump\t// out\n        /* \"#utility.yul\":1128:1245   */\n    tag_231:\n        /* \"#utility.yul\":1237:1238   */\n      0x00\n        /* \"#utility.yul\":1234:1235   */\n      dup1\n        /* \"#utility.yul\":1227:1239   */\n      revert\n        /* \"#utility.yul\":1251:1368   */\n    tag_232:\n        /* \"#utility.yul\":1360:1361   */\n      0x00\n        /* \"#utility.yul\":1357:1358   */\n      dup1\n        /* \"#utility.yul\":1350:1362   */\n      revert\n        /* \"#utility.yul\":1374:1451   */\n    tag_233:\n        /* \"#utility.yul\":1411:1418   */\n      0x00\n        /* \"#utility.yul\":1440:1445   */\n      dup2\n        /* \"#utility.yul\":1429:1445   */\n      swap1\n      pop\n        /* \"#utility.yul\":1374:1451   */\n      swap2\n      swap1\n      pop\n      jump\t// out\n        /* \"#utility.yul\":1457:1579   */\n    tag_234:\n        /* \"#utility.yul\":1530:1554   */\n      tag_307\n        /* \"#utility.yul\":1548:1553   */\n      dup2\n        /* \"#utility.yul\":1530:1554   */\n      tag_233\n      jump\t// in\n    tag_307:\n        /* \"#utility.yul\":1523:1528   */\n      dup2\n        /* \"#utility.yul\":1520:1555   */\n      eq\n        /* \"#utility.yul\":1510:1573   */\n      tag_308\n      jumpi\n        /* \"#utility.yul\":1569:1570   */\n      0x00\n        /* \"#utility.yul\":1566:1567   */\n      dup1\n        /* \"#utility.yul\":1559:1571   */\n      revert\n        /* \"#utility.yul\":1510:1573   */\n    tag_308:\n        /* \"#utility.yul\":1457:1579   */\n      pop\n      jump\t// out\n        /* \"#utility.yul\":1585:1724   */\n    tag_235:\n        /* \"#utility.yul\":1631:1636   */\n      0x00\n        /* \"#utility.yul\":1669:1675   */\n      dup2\n        /* \"#utility.yul\":1656:1676   */\n      calldataload\n        /* \"#utility.yul\":1647:1676   */\n      swap1\n      pop\n        /* \"#utility.yul\":1685:1718   */\n      tag_310\n        /* \"#utility.yul\":1712:1717   */\n      dup2\n        /* \"#utility.yul\":1685:1718   */\n      tag_234\n      jump\t// in\n    tag_310:\n        /* \"#utility.yul\":1585:1724   */\n      swap3\n      swap2\n      pop\n      pop\n      jump\t// out\n        /* \"#utility.yul\":1730:2059   */\n    tag_32:\n        /* \"#utility.yul\":1789:1795   */\n      0x00\n        /* \"#utility.yul\":1838:1840   */\n      0x20\n        /* \"#utility.yul\":1826:1835   */\n      dup3\n        /* \"#utility.yul\":1817:1824   */\n      dup5\n        /* \"#utility.yul\":1813:1836   */\n      sub\n        /* \"#utility.yul\":1809:1841   */\n      slt\n        /* \"#utility.yul\":1806:1925   */\n      iszero\n      tag_312\n      jumpi\n        /* \"#utility.yul\":1844:1923   */\n      tag_313\n      tag_231\n      jump\t// in\n    tag_313:\n        /* \"#utility.yul\":1806:1925   */\n    tag_312:\n        /* \"#utility.yul\":1964:1965   */\n      0x00\n        /* \"#utility.yul\":1989:2042   */\n      tag_314\n        /* \"#utility.yul\":2034:2041   */\n      dup5\n        /* \"#utility.yul\":2025:2031   */\n      dup3\n        /* \"#utility.yul\":2014:2023   */\n      dup6\n        /* \"#utility.yul\":2010:2032   */\n      add\n        /* \"#utility.yul\":1989:2042   */\n      tag_235\n      jump\t// in\n    tag_314:\n        /* \"#utility.yul\":1979:2042   */\n      swap2\n      pop\n        /* \"#utility.yul\":1935:2052   */\n      pop\n        /* \"#utility.yul\":1730:2059   */\n      swap3\n      swap2\n      pop\n      pop\n      jump\t// out\n        /* \"#utility.yul\":2065:2161   */\n    tag_236:\n        /* \"#utility.yul\":2102:2109   */\n      0x00\n        /* \"#utility.yul\":2131:2155   */\n      tag_316\n        /* \"#utility.yul\":2149:2154   */\n      dup3\n        /* \"#utility.yul\":2131:2155   */\n      tag_224\n      jump\t// in\n    tag_316:\n        /* \"#utility.yul\":2120:2155   */\n      swap1\n      pop\n        /* \"#utility.yul\":2065:2161   */\n      swap2\n      swap1\n      pop\n      jump\t// out\n        /* \"#utility.yul\":2167:2285   */\n    tag_237:\n        /* \"#utility.yul\":2254:2278   */\n      tag_318\n        /* \"#utility.yul\":2272:2277   */\n      dup2\n        /* \"#utility.yul\":2254:2278   */\n      tag_236\n      jump\t// in\n    tag_318:\n        /* \"#utility.yul\":2249:2252   */\n      dup3\n        /* \"#utility.yul\":2242:2279   */\n      mstore\n        /* \"#utility.yul\":2167:2285   */\n      pop\n      pop\n      jump\t// out\n        /* \"#utility.yul\":2291:2471   */\n    tag_166:\n        /* \"#utility.yul\":2339:2416   */\n      0x4e487b7100000000000000000000000000000000000000000000000000000000\n        /* \"#utility.yul\":2336:2337   */\n      0x00\n        /* \"#utility.yul\":2329:2417   */\n      mstore\n        /* \"#utility.yul\":2436:2440   */\n      0x21\n        /* \"#utility.yul\":2433:2434   */\n      0x04\n        /* \"#utility.yul\":2426:2441   */\n      mstore\n        /* \"#utility.yul\":2460:2464   */\n      0x24\n        /* \"#utility.yul\":2457:2458   */\n      0x00\n        /* \"#utility.yul\":2450:2465   */\n      revert\n        /* \"#utility.yul\":2477:2597   */\n    tag_238:\n        /* \"#utility.yul\":2565:2566   */\n      0x04\n        /* \"#utility.yul\":2558:2563   */\n      dup2\n        /* \"#utility.yul\":2555:2567   */\n      lt\n        /* \"#utility.yul\":2545:2591   */\n      tag_321\n      jumpi\n        /* \"#utility.yul\":2571:2589   */\n      tag_322\n      tag_166\n      jump\t// in\n    tag_322:\n        /* \"#utility.yul\":2545:2591   */\n    tag_321:\n        /* \"#utility.yul\":2477:2597   */\n      pop\n      jump\t// out\n        /* \"#utility.yul\":2603:2744   */\n    tag_239:\n        /* \"#utility.yul\":2655:2662   */\n      0x00\n        /* \"#utility.yul\":2684:2689   */\n      dup2\n        /* \"#utility.yul\":2673:2689   */\n      swap1\n      pop\n        /* \"#utility.yul\":2690:2738   */\n      tag_324\n        /* \"#utility.yul\":2732:2737   */\n      dup3\n        /* \"#utility.yul\":2690:2738   */\n      tag_238\n      jump\t// in\n    tag_324:\n        /* \"#utility.yul\":2603:2744   */\n      swap2\n      swap1\n      pop\n      jump\t// out\n        /* \"#utility.yul\":2750:2891   */\n    tag_240:\n        /* \"#utility.yul\":2813:2822   */\n      0x00\n        /* \"#utility.yul\":2846:2885   */\n      tag_326\n        /* \"#utility.yul\":2879:2884   */\n      dup3\n        /* \"#utility.yul\":2846:2885   */\n      tag_239\n      jump\t// in\n    tag_326:\n        /* \"#utility.yul\":2833:2885   */\n      swap1\n      pop\n        /* \"#utility.yul\":2750:2891   */\n      swap2\n      swap1\n      pop\n      jump\t// out\n        /* \"#utility.yul\":2897:3054   */\n    tag_241:\n        /* \"#utility.yul\":2997:3047   */\n      tag_328\n        /* \"#utility.yul\":3041:3046   */\n      dup2\n        /* \"#utility.yul\":2997:3047   */\n      tag_240\n      jump\t// in\n    tag_328:\n        /* \"#utility.yul\":2992:2995   */\n      dup3\n        /* \"#utility.yul\":2985:3048   */\n      mstore\n        /* \"#utility.yul\":2897:3054   */\n      pop\n      pop\n      jump\t// out\n        /* \"#utility.yul\":3060:3418   */\n    tag_35:\n        /* \"#utility.yul\":3194:3198   */\n      0x00\n        /* \"#utility.yul\":3232:3234   */\n      0x40\n        /* \"#utility.yul\":3221:3230   */\n      dup3\n        /* \"#utility.yul\":3217:3235   */\n      add\n        /* \"#utility.yul\":3209:3235   */\n      swap1\n      pop\n        /* \"#utility.yul\":3245:3316   */\n      tag_330\n        /* \"#utility.yul\":3313:3314   */\n      0x00\n        /* \"#utility.yul\":3302:3311   */\n      dup4\n        /* \"#utility.yul\":3298:3315   */\n      add\n        /* \"#utility.yul\":3289:3295   */\n      dup6\n        /* \"#utility.yul\":3245:3316   */\n      tag_237\n      jump\t// in\n    tag_330:\n        /* \"#utility.yul\":3326:3411   */\n      tag_331\n        /* \"#utility.yul\":3407:3409   */\n      0x20\n        /* \"#utility.yul\":3396:3405   */\n      dup4\n        /* \"#utility.yul\":3392:3410   */\n      add\n        /* \"#utility.yul\":3383:3389   */\n      dup5\n        /* \"#utility.yul\":3326:3411   */\n      tag_241\n      jump\t// in\n    tag_331:\n        /* \"#utility.yul\":3060:3418   */\n      swap4\n      swap3\n      pop\n      pop\n      pop\n      jump\t// out\n        /* \"#utility.yul\":3424:3573   */\n    tag_242:\n        /* \"#utility.yul\":3460:3467   */\n      0x00\n        /* \"#utility.yul\":3500:3566   */\n      0xffffffff00000000000000000000000000000000000000000000000000000000\n        /* \"#utility.yul\":3493:3498   */\n      dup3\n        /* \"#utility.yul\":3489:3567   */\n      and\n        /* \"#utility.yul\":3478:3567   */\n      swap1\n      pop\n        /* \"#utility.yul\":3424:3573   */\n      swap2\n      swap1\n      pop\n      jump\t// out\n        /* \"#utility.yul\":3579:3694   */\n    tag_243:\n        /* \"#utility.yul\":3664:3687   */\n      tag_334\n        /* \"#utility.yul\":3681:3686   */\n      dup2\n        /* \"#utility.yul\":3664:3687   */\n      tag_242\n      jump\t// in\n    tag_334:\n        /* \"#utility.yul\":3659:3662   */\n      dup3\n        /* \"#utility.yul\":3652:3688   */\n      mstore\n        /* \"#utility.yul\":3579:3694   */\n      pop\n      pop\n      jump\t// out\n        /* \"#utility.yul\":3700:3918   */\n    tag_39:\n        /* \"#utility.yul\":3791:3795   */\n      0x00\n        /* \"#utility.yul\":3829:3831   */\n      0x20\n        /* \"#utility.yul\":3818:3827   */\n      dup3\n        /* \"#utility.yul\":3814:3832   */\n      add\n        /* \"#utility.yul\":3806:3832   */\n      swap1\n      pop\n        /* \"#utility.yul\":3842:3911   */\n      tag_336\n        /* \"#utility.yul\":3908:3909   */\n      0x00\n        /* \"#utility.yul\":3897:3906   */\n      dup4\n        /* \"#utility.yul\":3893:3910   */\n      add\n        /* \"#utility.yul\":3884:3890   */\n      dup5\n        /* \"#utility.yul\":3842:3911   */\n      tag_243\n      jump\t// in\n    tag_336:\n        /* \"#utility.yul\":3700:3918   */\n      swap3\n      swap2\n      pop\n      pop\n      jump\t// out\n        /* \"#utility.yul\":3924:4042   */\n    tag_244:\n        /* \"#utility.yul\":4011:4035   */\n      tag_338\n        /* \"#utility.yul\":4029:4034   */\n      dup2\n        /* \"#utility.yul\":4011:4035   */\n      tag_233\n      jump\t// in\n    tag_338:\n        /* \"#utility.yul\":4006:4009   */\n      dup3\n        /* \"#utility.yul\":3999:4036   */\n      mstore\n        /* \"#utility.yul\":3924:4042   */\n      pop\n      pop\n      jump\t// out\n        /* \"#utility.yul\":4048:4516   */\n    tag_44:\n        /* \"#utility.yul\":4210:4214   */\n      0x00\n        /* \"#utility.yul\":4248:4250   */\n      0x60\n        /* \"#utility.yul\":4237:4246   */\n      dup3\n        /* \"#utility.yul\":4233:4251   */\n      add\n        /* \"#utility.yul\":4225:4251   */\n      swap1\n      pop\n        /* \"#utility.yul\":4261:4332   */\n      tag_340\n        /* \"#utility.yul\":4329:4330   */\n      0x00\n        /* \"#utility.yul\":4318:4327   */\n      dup4\n        /* \"#utility.yul\":4314:4331   */\n      add\n        /* \"#utility.yul\":4305:4311   */\n      dup7\n        /* \"#utility.yul\":4261:4332   */\n      tag_244\n      jump\t// in\n    tag_340:\n        /* \"#utility.yul\":4342:4414   */\n      tag_341\n        /* \"#utility.yul\":4410:4412   */\n      0x20\n        /* \"#utility.yul\":4399:4408   */\n      dup4\n        /* \"#utility.yul\":4395:4413   */\n      add\n        /* \"#utility.yul\":4386:4392   */\n      dup6\n        /* \"#utility.yul\":4342:4414   */\n      tag_237\n      jump\t// in\n    tag_341:\n        /* \"#utility.yul\":4424:4509   */\n      tag_342\n        /* \"#utility.yul\":4505:4507   */\n      0x40\n        /* \"#utility.yul\":4494:4503   */\n      dup4\n        /* \"#utility.yul\":4490:4508   */\n      add\n        /* \"#utility.yul\":4481:4487   */\n      dup5\n        /* \"#utility.yul\":4424:4509   */\n      tag_241\n      jump\t// in\n    tag_342:\n        /* \"#utility.yul\":4048:4516   */\n      swap5\n      swap4\n      pop\n      pop\n      pop\n      pop\n      jump\t// out\n        /* \"#utility.yul\":4522:4644   */\n    tag_245:\n        /* \"#utility.yul\":4595:4619   */\n      tag_344\n        /* \"#utility.yul\":4613:4618   */\n      dup2\n        /* \"#utility.yul\":4595:4619   */\n      tag_236\n      jump\t// in\n    tag_344:\n        /* \"#utility.yul\":4588:4593   */\n      dup2\n        /* \"#utility.yul\":4585:4620   */\n      eq\n        /* \"#utility.yul\":4575:4638   */\n      tag_345\n      jumpi\n        /* \"#utility.yul\":4634:4635   */\n      0x00\n        /* \"#utility.yul\":4631:4632   */\n      dup1\n        /* \"#utility.yul\":4624:4636   */\n      revert\n        /* \"#utility.yul\":4575:4638   */\n    tag_345:\n        /* \"#utility.yul\":4522:4644   */\n      pop\n      jump\t// out\n        /* \"#utility.yul\":4650:4789   */\n    tag_246:\n        /* \"#utility.yul\":4696:4701   */\n      0x00\n        /* \"#utility.yul\":4734:4740   */\n      dup2\n        /* \"#utility.yul\":4721:4741   */\n      calldataload\n        /* \"#utility.yul\":4712:4741   */\n      swap1\n      pop\n        /* \"#utility.yul\":4750:4783   */\n      tag_347\n        /* \"#utility.yul\":4777:4782   */\n      dup2\n        /* \"#utility.yul\":4750:4783   */\n      tag_245\n      jump\t// in\n    tag_347:\n        /* \"#utility.yul\":4650:4789   */\n      swap3\n      swap2\n      pop\n      pop\n      jump\t// out\n        /* \"#utility.yul\":4795:5124   */\n    tag_47:\n        /* \"#utility.yul\":4854:4860   */\n      0x00\n        /* \"#utility.yul\":4903:4905   */\n      0x20\n        /* \"#utility.yul\":4891:4900   */\n      dup3\n        /* \"#utility.yul\":4882:4889   */\n      dup5\n        /* \"#utility.yul\":4878:4901   */\n      sub\n        /* \"#utility.yul\":4874:4906   */\n      slt\n        /* \"#utility.yul\":4871:4990   */\n      iszero\n      tag_349\n      jumpi\n        /* \"#utility.yul\":4909:4988   */\n      tag_350\n      tag_231\n      jump\t// in\n    tag_350:\n        /* \"#utility.yul\":4871:4990   */\n    tag_349:\n        /* \"#utility.yul\":5029:5030   */\n      0x00\n        /* \"#utility.yul\":5054:5107   */\n      tag_351\n        /* \"#utility.yul\":5099:5106   */\n      dup5\n        /* \"#utility.yul\":5090:5096   */\n      dup3\n        /* \"#utility.yul\":5079:5088   */\n      dup6\n        /* \"#utility.yul\":5075:5097   */\n      add\n        /* \"#utility.yul\":5054:5107   */\n      tag_246\n      jump\t// in\n    tag_351:\n        /* \"#utility.yul\":5044:5107   */\n      swap2\n      pop\n        /* \"#utility.yul\":5000:5117   */\n      pop\n        /* \"#utility.yul\":4795:5124   */\n      swap3\n      swap2\n      pop\n      pop\n      jump\t// out\n        /* \"#utility.yul\":5130:5352   */\n    tag_57:\n        /* \"#utility.yul\":5223:5227   */\n      0x00\n        /* \"#utility.yul\":5261:5263   */\n      0x20\n        /* \"#utility.yul\":5250:5259   */\n      dup3\n        /* \"#utility.yul\":5246:5264   */\n      add\n        /* \"#utility.yul\":5238:5264   */\n      swap1\n      pop\n        /* \"#utility.yul\":5274:5345   */\n      tag_353\n        /* \"#utility.yul\":5342:5343   */\n      0x00\n        /* \"#utility.yul\":5331:5340   */\n      dup4\n        /* \"#utility.yul\":5327:5344   */\n      add\n        /* \"#utility.yul\":5318:5324   */\n      dup5\n        /* \"#utility.yul\":5274:5345   */\n      tag_237\n      jump\t// in\n    tag_353:\n        /* \"#utility.yul\":5130:5352   */\n      swap3\n      swap2\n      pop\n      pop\n      jump\t// out\n        /* \"#utility.yul\":5358:5580   */\n    tag_67:\n        /* \"#utility.yul\":5451:5455   */\n      0x00\n        /* \"#utility.yul\":5489:5491   */\n      0x20\n        /* \"#utility.yul\":5478:5487   */\n      dup3\n        /* \"#utility.yul\":5474:5492   */\n      add\n        /* \"#utility.yul\":5466:5492   */\n      swap1\n      pop\n        /* \"#utility.yul\":5502:5573   */\n      tag_355\n        /* \"#utility.yul\":5570:5571   */\n      0x00\n        /* \"#utility.yul\":5559:5568   */\n      dup4\n        /* \"#utility.yul\":5555:5572   */\n      add\n        /* \"#utility.yul\":5546:5552   */\n      dup5\n        /* \"#utility.yul\":5502:5573   */\n      tag_244\n      jump\t// in\n    tag_355:\n        /* \"#utility.yul\":5358:5580   */\n      swap3\n      swap2\n      pop\n      pop\n      jump\t// out\n        /* \"#utility.yul\":5586:5703   */\n    tag_247:\n        /* \"#utility.yul\":5695:5696   */\n      0x00\n        /* \"#utility.yul\":5692:5693   */\n      dup1\n        /* \"#utility.yul\":5685:5697   */\n      revert\n        /* \"#utility.yul\":5709:5826   */\n    tag_248:\n        /* \"#utility.yul\":5818:5819   */\n      0x00\n        /* \"#utility.yul\":5815:5816   */\n      dup1\n        /* \"#utility.yul\":5808:5820   */\n      revert\n        /* \"#utility.yul\":5832:5934   */\n    tag_249:\n        /* \"#utility.yul\":5873:5879   */\n      0x00\n        /* \"#utility.yul\":5924:5926   */\n      0x1f\n        /* \"#utility.yul\":5920:5927   */\n      not\n        /* \"#utility.yul\":5915:5917   */\n      0x1f\n        /* \"#utility.yul\":5908:5913   */\n      dup4\n        /* \"#utility.yul\":5904:5918   */\n      add\n        /* \"#utility.yul\":5900:5928   */\n      and\n        /* \"#utility.yul\":5890:5928   */\n      swap1\n      pop\n        /* \"#utility.yul\":5832:5934   */\n      swap2\n      swap1\n      pop\n      jump\t// out\n        /* \"#utility.yul\":5940:6120   */\n    tag_250:\n        /* \"#utility.yul\":5988:6065   */\n      0x4e487b7100000000000000000000000000000000000000000000000000000000\n        /* \"#utility.yul\":5985:5986   */\n      0x00\n        /* \"#utility.yul\":5978:6066   */\n      mstore\n        /* \"#utility.yul\":6085:6089   */\n      0x41\n        /* \"#utility.yul\":6082:6083   */\n      0x04\n        /* \"#utility.yul\":6075:6090   */\n      mstore\n        /* \"#utility.yul\":6109:6113   */\n      0x24\n        /* \"#utility.yul\":6106:6107   */\n      0x00\n        /* \"#utility.yul\":6099:6114   */\n      revert\n        /* \"#utility.yul\":6126:6407   */\n    tag_251:\n        /* \"#utility.yul\":6209:6236   */\n      tag_361\n        /* \"#utility.yul\":6231:6235   */\n      dup3\n        /* \"#utility.yul\":6209:6236   */\n      tag_249\n      jump\t// in\n    tag_361:\n        /* \"#utility.yul\":6201:6207   */\n      dup2\n        /* \"#utility.yul\":6197:6237   */\n      add\n        /* \"#utility.yul\":6339:6345   */\n      dup2\n        /* \"#utility.yul\":6327:6337   */\n      dup2\n        /* \"#utility.yul\":6324:6346   */\n      lt\n        /* \"#utility.yul\":6303:6321   */\n      0xffffffffffffffff\n        /* \"#utility.yul\":6291:6301   */\n      dup3\n        /* \"#utility.yul\":6288:6322   */\n      gt\n        /* \"#utility.yul\":6285:6347   */\n      or\n        /* \"#utility.yul\":6282:6370   */\n      iszero\n      tag_362\n      jumpi\n        /* \"#utility.yul\":6350:6368   */\n      tag_363\n      tag_250\n      jump\t// in\n    tag_363:\n        /* \"#utility.yul\":6282:6370   */\n    tag_362:\n        /* \"#utility.yul\":6390:6400   */\n      dup1\n        /* \"#utility.yul\":6386:6388   */\n      0x40\n        /* \"#utility.yul\":6379:6401   */\n      mstore\n        /* \"#utility.yul\":6169:6407   */\n      pop\n        /* \"#utility.yul\":6126:6407   */\n      pop\n      pop\n      jump\t// out\n        /* \"#utility.yul\":6413:6542   */\n    tag_252:\n        /* \"#utility.yul\":6447:6453   */\n      0x00\n        /* \"#utility.yul\":6474:6494   */\n      tag_365\n      tag_230\n      jump\t// in\n    tag_365:\n        /* \"#utility.yul\":6464:6494   */\n      swap1\n      pop\n        /* \"#utility.yul\":6503:6536   */\n      tag_366\n        /* \"#utility.yul\":6531:6535   */\n      dup3\n        /* \"#utility.yul\":6523:6529   */\n      dup3\n        /* \"#utility.yul\":6503:6536   */\n      tag_251\n      jump\t// in\n    tag_366:\n        /* \"#utility.yul\":6413:6542   */\n      swap2\n      swap1\n      pop\n      jump\t// out\n        /* \"#utility.yul\":6548:6856   */\n    tag_253:\n        /* \"#utility.yul\":6610:6614   */\n      0x00\n        /* \"#utility.yul\":6700:6718   */\n      0xffffffffffffffff\n        /* \"#utility.yul\":6692:6698   */\n      dup3\n        /* \"#utility.yul\":6689:6719   */\n      gt\n        /* \"#utility.yul\":6686:6742   */\n      iszero\n      tag_368\n      jumpi\n        /* \"#utility.yul\":6722:6740   */\n      tag_369\n      tag_250\n      jump\t// in\n    tag_369:\n        /* \"#utility.yul\":6686:6742   */\n    tag_368:\n        /* \"#utility.yul\":6760:6789   */\n      tag_370\n        /* \"#utility.yul\":6782:6788   */\n      dup3\n        /* \"#utility.yul\":6760:6789   */\n      tag_249\n      jump\t// in\n    tag_370:\n        /* \"#utility.yul\":6752:6789   */\n      swap1\n      pop\n        /* \"#utility.yul\":6844:6848   */\n      0x20\n        /* \"#utility.yul\":6838:6842   */\n      dup2\n        /* \"#utility.yul\":6834:6849   */\n      add\n        /* \"#utility.yul\":6826:6849   */\n      swap1\n      pop\n        /* \"#utility.yul\":6548:6856   */\n      swap2\n      swap1\n      pop\n      jump\t// out\n        /* \"#utility.yul\":6862:7016   */\n    tag_254:\n        /* \"#utility.yul\":6946:6952   */\n      dup3\n        /* \"#utility.yul\":6941:6944   */\n      dup2\n        /* \"#utility.yul\":6936:6939   */\n      dup4\n        /* \"#utility.yul\":6923:6953   */\n      calldatacopy\n        /* \"#utility.yul\":7008:7009   */\n      0x00\n        /* \"#utility.yul\":6999:7005   */\n      dup4\n        /* \"#utility.yul\":6994:6997   */\n      dup4\n        /* \"#utility.yul\":6990:7006   */\n      add\n        /* \"#utility.yul\":6983:7010   */\n      mstore\n        /* \"#utility.yul\":6862:7016   */\n      pop\n      pop\n      pop\n      jump\t// out\n        /* \"#utility.yul\":7022:7434   */\n    tag_255:\n        /* \"#utility.yul\":7100:7105   */\n      0x00\n        /* \"#utility.yul\":7125:7191   */\n      tag_373\n        /* \"#utility.yul\":7141:7190   */\n      tag_374\n        /* \"#utility.yul\":7183:7189   */\n      dup5\n        /* \"#utility.yul\":7141:7190   */\n      tag_253\n      jump\t// in\n    tag_374:\n        /* \"#utility.yul\":7125:7191   */\n      tag_252\n      jump\t// in\n    tag_373:\n        /* \"#utility.yul\":7116:7191   */\n      swap1\n      pop\n        /* \"#utility.yul\":7214:7220   */\n      dup3\n        /* \"#utility.yul\":7207:7212   */\n      dup2\n        /* \"#utility.yul\":7200:7221   */\n      mstore\n        /* \"#utility.yul\":7252:7256   */\n      0x20\n        /* \"#utility.yul\":7245:7250   */\n      dup2\n        /* \"#utility.yul\":7241:7257   */\n      add\n        /* \"#utility.yul\":7290:7293   */\n      dup5\n        /* \"#utility.yul\":7281:7287   */\n      dup5\n        /* \"#utility.yul\":7276:7279   */\n      dup5\n        /* \"#utility.yul\":7272:7288   */\n      add\n        /* \"#utility.yul\":7269:7294   */\n      gt\n        /* \"#utility.yul\":7266:7378   */\n      iszero\n      tag_375\n      jumpi\n        /* \"#utility.yul\":7297:7376   */\n      tag_376\n      tag_248\n      jump\t// in\n    tag_376:\n        /* \"#utility.yul\":7266:7378   */\n    tag_375:\n        /* \"#utility.yul\":7387:7428   */\n      tag_377\n        /* \"#utility.yul\":7421:7427   */\n      dup5\n        /* \"#utility.yul\":7416:7419   */\n      dup3\n        /* \"#utility.yul\":7411:7414   */\n      dup6\n        /* \"#utility.yul\":7387:7428   */\n      tag_254\n      jump\t// in\n    tag_377:\n        /* \"#utility.yul\":7106:7434   */\n      pop\n        /* \"#utility.yul\":7022:7434   */\n      swap4\n      swap3\n      pop\n      pop\n      pop\n      jump\t// out\n        /* \"#utility.yul\":7454:7794   */\n    tag_256:\n        /* \"#utility.yul\":7510:7515   */\n      0x00\n        /* \"#utility.yul\":7559:7562   */\n      dup3\n        /* \"#utility.yul\":7552:7556   */\n      0x1f\n        /* \"#utility.yul\":7544:7550   */\n      dup4\n        /* \"#utility.yul\":7540:7557   */\n      add\n        /* \"#utility.yul\":7536:7563   */\n      slt\n        /* \"#utility.yul\":7526:7648   */\n      tag_379\n      jumpi\n        /* \"#utility.yul\":7567:7646   */\n      tag_380\n      tag_247\n      jump\t// in\n    tag_380:\n        /* \"#utility.yul\":7526:7648   */\n    tag_379:\n        /* \"#utility.yul\":7684:7690   */\n      dup2\n        /* \"#utility.yul\":7671:7691   */\n      calldataload\n        /* \"#utility.yul\":7709:7788   */\n      tag_381\n        /* \"#utility.yul\":7784:7787   */\n      dup5\n        /* \"#utility.yul\":7776:7782   */\n      dup3\n        /* \"#utility.yul\":7769:7773   */\n      0x20\n        /* \"#utility.yul\":7761:7767   */\n      dup7\n        /* \"#utility.yul\":7757:7774   */\n      add\n        /* \"#utility.yul\":7709:7788   */\n      tag_255\n      jump\t// in\n    tag_381:\n        /* \"#utility.yul\":7700:7788   */\n      swap2\n      pop\n        /* \"#utility.yul\":7516:7794   */\n      pop\n        /* \"#utility.yul\":7454:7794   */\n      swap3\n      swap2\n      pop\n      pop\n      jump\t// out\n        /* \"#utility.yul\":7800:8309   */\n    tag_78:\n        /* \"#utility.yul\":7869:7875   */\n      0x00\n        /* \"#utility.yul\":7918:7920   */\n      0x20\n        /* \"#utility.yul\":7906:7915   */\n      dup3\n        /* \"#utility.yul\":7897:7904   */\n      dup5\n        /* \"#utility.yul\":7893:7916   */\n      sub\n        /* \"#utility.yul\":7889:7921   */\n      slt\n        /* \"#utility.yul\":7886:8005   */\n      iszero\n      tag_383\n      jumpi\n        /* \"#utility.yul\":7924:8003   */\n      tag_384\n      tag_231\n      jump\t// in\n    tag_384:\n        /* \"#utility.yul\":7886:8005   */\n    tag_383:\n        /* \"#utility.yul\":8072:8073   */\n      0x00\n        /* \"#utility.yul\":8061:8070   */\n      dup3\n        /* \"#utility.yul\":8057:8074   */\n      add\n        /* \"#utility.yul\":8044:8075   */\n      calldataload\n        /* \"#utility.yul\":8102:8120   */\n      0xffffffffffffffff\n        /* \"#utility.yul\":8094:8100   */\n      dup2\n        /* \"#utility.yul\":8091:8121   */\n      gt\n        /* \"#utility.yul\":8088:8205   */\n      iszero\n      tag_385\n      jumpi\n        /* \"#utility.yul\":8124:8203   */\n      tag_386\n      tag_232\n      jump\t// in\n    tag_386:\n        /* \"#utility.yul\":8088:8205   */\n    tag_385:\n        /* \"#utility.yul\":8229:8292   */\n      tag_387\n        /* \"#utility.yul\":8284:8291   */\n      dup5\n        /* \"#utility.yul\":8275:8281   */\n      dup3\n        /* \"#utility.yul\":8264:8273   */\n      dup6\n        /* \"#utility.yul\":8260:8282   */\n      add\n        /* \"#utility.yul\":8229:8292   */\n      tag_256\n      jump\t// in\n    tag_387:\n        /* \"#utility.yul\":8219:8292   */\n      swap2\n      pop\n        /* \"#utility.yul\":8015:8302   */\n      pop\n        /* \"#utility.yul\":7800:8309   */\n      swap3\n      swap2\n      pop\n      pop\n      jump\t// out\n        /* \"#utility.yul\":8315:8392   */\n    tag_257:\n        /* \"#utility.yul\":8352:8359   */\n      0x00\n        /* \"#utility.yul\":8381:8386   */\n      dup2\n        /* \"#utility.yul\":8370:8386   */\n      swap1\n      pop\n        /* \"#utility.yul\":8315:8392   */\n      swap2\n      swap1\n      pop\n      jump\t// out\n        /* \"#utility.yul\":8398:8516   */\n    tag_258:\n        /* \"#utility.yul\":8485:8509   */\n      tag_390\n        /* \"#utility.yul\":8503:8508   */\n      dup2\n        /* \"#utility.yul\":8485:8509   */\n      tag_257\n      jump\t// in\n    tag_390:\n        /* \"#utility.yul\":8480:8483   */\n      dup3\n        /* \"#utility.yul\":8473:8510   */\n      mstore\n        /* \"#utility.yul\":8398:8516   */\n      pop\n      pop\n      jump\t// out\n        /* \"#utility.yul\":8522:8621   */\n    tag_259:\n        /* \"#utility.yul\":8574:8580   */\n      0x00\n        /* \"#utility.yul\":8608:8613   */\n      dup2\n        /* \"#utility.yul\":8602:8614   */\n      mload\n        /* \"#utility.yul\":8592:8614   */\n      swap1\n      pop\n        /* \"#utility.yul\":8522:8621   */\n      swap2\n      swap1\n      pop\n      jump\t// out\n        /* \"#utility.yul\":8627:8796   */\n    tag_260:\n        /* \"#utility.yul\":8711:8722   */\n      0x00\n        /* \"#utility.yul\":8745:8751   */\n      dup3\n        /* \"#utility.yul\":8740:8743   */\n      dup3\n        /* \"#utility.yul\":8733:8752   */\n      mstore\n        /* \"#utility.yul\":8785:8789   */\n      0x20\n        /* \"#utility.yul\":8780:8783   */\n      dup3\n        /* \"#utility.yul\":8776:8790   */\n      add\n        /* \"#utility.yul\":8761:8790   */\n      swap1\n      pop\n        /* \"#utility.yul\":8627:8796   */\n      swap3\n      swap2\n      pop\n      pop\n      jump\t// out\n        /* \"#utility.yul\":8802:9109   */\n    tag_261:\n        /* \"#utility.yul\":8870:8871   */\n      0x00\n        /* \"#utility.yul\":8880:8993   */\n    tag_394:\n        /* \"#utility.yul\":8894:8900   */\n      dup4\n        /* \"#utility.yul\":8891:8892   */\n      dup2\n        /* \"#utility.yul\":8888:8901   */\n      lt\n        /* \"#utility.yul\":8880:8993   */\n      iszero\n      tag_396\n      jumpi\n        /* \"#utility.yul\":8979:8980   */\n      dup1\n        /* \"#utility.yul\":8974:8977   */\n      dup3\n        /* \"#utility.yul\":8970:8981   */\n      add\n        /* \"#utility.yul\":8964:8982   */\n      mload\n        /* \"#utility.yul\":8960:8961   */\n      dup2\n        /* \"#utility.yul\":8955:8958   */\n      dup5\n        /* \"#utility.yul\":8951:8962   */\n      add\n        /* \"#utility.yul\":8944:8983   */\n      mstore\n        /* \"#utility.yul\":8916:8918   */\n      0x20\n        /* \"#utility.yul\":8913:8914   */\n      dup2\n        /* \"#utility.yul\":8909:8919   */\n      add\n        /* \"#utility.yul\":8904:8919   */\n      swap1\n      pop\n        /* \"#utility.yul\":8880:8993   */\n      jump(tag_394)\n    tag_396:\n        /* \"#utility.yul\":9011:9017   */\n      dup4\n        /* \"#utility.yul\":9008:9009   */\n      dup2\n        /* \"#utility.yul\":9005:9018   */\n      gt\n        /* \"#utility.yul\":9002:9103   */\n      iszero\n      tag_397\n      jumpi\n        /* \"#utility.yul\":9091:9092   */\n      0x00\n        /* \"#utility.yul\":9082:9088   */\n      dup5\n        /* \"#utility.yul\":9077:9080   */\n      dup5\n        /* \"#utility.yul\":9073:9089   */\n      add\n        /* \"#utility.yul\":9066:9093   */\n      mstore\n        /* \"#utility.yul\":9002:9103   */\n    tag_397:\n        /* \"#utility.yul\":8851:9109   */\n      pop\n        /* \"#utility.yul\":8802:9109   */\n      pop\n      pop\n      pop\n      jump\t// out\n        /* \"#utility.yul\":9115:9479   */\n    tag_262:\n        /* \"#utility.yul\":9203:9206   */\n      0x00\n        /* \"#utility.yul\":9231:9270   */\n      tag_399\n        /* \"#utility.yul\":9264:9269   */\n      dup3\n        /* \"#utility.yul\":9231:9270   */\n      tag_259\n      jump\t// in\n    tag_399:\n        /* \"#utility.yul\":9286:9357   */\n      tag_400\n        /* \"#utility.yul\":9350:9356   */\n      dup2\n        /* \"#utility.yul\":9345:9348   */\n      dup6\n        /* \"#utility.yul\":9286:9357   */\n      tag_260\n      jump\t// in\n    tag_400:\n        /* \"#utility.yul\":9279:9357   */\n      swap4\n      pop\n        /* \"#utility.yul\":9366:9418   */\n      tag_401\n        /* \"#utility.yul\":9411:9417   */\n      dup2\n        /* \"#utility.yul\":9406:9409   */\n      dup6\n        /* \"#utility.yul\":9399:9403   */\n      0x20\n        /* \"#utility.yul\":9392:9397   */\n      dup7\n        /* \"#utility.yul\":9388:9404   */\n      add\n        /* \"#utility.yul\":9366:9418   */\n      tag_261\n      jump\t// in\n    tag_401:\n        /* \"#utility.yul\":9443:9472   */\n      tag_402\n        /* \"#utility.yul\":9465:9471   */\n      dup2\n        /* \"#utility.yul\":9443:9472   */\n      tag_249\n      jump\t// in\n    tag_402:\n        /* \"#utility.yul\":9438:9441   */\n      dup5\n        /* \"#utility.yul\":9434:9473   */\n      add\n        /* \"#utility.yul\":9427:9473   */\n      swap2\n      pop\n        /* \"#utility.yul\":9207:9479   */\n      pop\n        /* \"#utility.yul\":9115:9479   */\n      swap3\n      swap2\n      pop\n      pop\n      jump\t// out\n        /* \"#utility.yul\":9485:9575   */\n    tag_263:\n        /* \"#utility.yul\":9519:9526   */\n      0x00\n        /* \"#utility.yul\":9562:9567   */\n      dup2\n        /* \"#utility.yul\":9555:9568   */\n      iszero\n        /* \"#utility.yul\":9548:9569   */\n      iszero\n        /* \"#utility.yul\":9537:9569   */\n      swap1\n      pop\n        /* \"#utility.yul\":9485:9575   */\n      swap2\n      swap1\n      pop\n      jump\t// out\n        /* \"#utility.yul\":9581:9690   */\n    tag_264:\n        /* \"#utility.yul\":9662:9683   */\n      tag_405\n        /* \"#utility.yul\":9677:9682   */\n      dup2\n        /* \"#utility.yul\":9662:9683   */\n      tag_263\n      jump\t// in\n    tag_405:\n        /* \"#utility.yul\":9657:9660   */\n      dup3\n        /* \"#utility.yul\":9650:9684   */\n      mstore\n        /* \"#utility.yul\":9581:9690   */\n      pop\n      pop\n      jump\t// out\n        /* \"#utility.yul\":9696:10217   */\n    tag_87:\n        /* \"#utility.yul\":9859:9863   */\n      0x00\n        /* \"#utility.yul\":9897:9899   */\n      0x60\n        /* \"#utility.yul\":9886:9895   */\n      dup3\n        /* \"#utility.yul\":9882:9900   */\n      add\n        /* \"#utility.yul\":9874:9900   */\n      swap1\n      pop\n        /* \"#utility.yul\":9910:9981   */\n      tag_407\n        /* \"#utility.yul\":9978:9979   */\n      0x00\n        /* \"#utility.yul\":9967:9976   */\n      dup4\n        /* \"#utility.yul\":9963:9980   */\n      add\n        /* \"#utility.yul\":9954:9960   */\n      dup7\n        /* \"#utility.yul\":9910:9981   */\n      tag_258\n      jump\t// in\n    tag_407:\n        /* \"#utility.yul\":10028:10037   */\n      dup2\n        /* \"#utility.yul\":10022:10026   */\n      dup2\n        /* \"#utility.yul\":10018:10038   */\n      sub\n        /* \"#utility.yul\":10013:10015   */\n      0x20\n        /* \"#utility.yul\":10002:10011   */\n      dup4\n        /* \"#utility.yul\":9998:10016   */\n      add\n        /* \"#utility.yul\":9991:10039   */\n      mstore\n        /* \"#utility.yul\":10056:10134   */\n      tag_408\n        /* \"#utility.yul\":10129:10133   */\n      dup2\n        /* \"#utility.yul\":10120:10126   */\n      dup6\n        /* \"#utility.yul\":10056:10134   */\n      tag_262\n      jump\t// in\n    tag_408:\n        /* \"#utility.yul\":10048:10134   */\n      swap1\n      pop\n        /* \"#utility.yul\":10144:10210   */\n      tag_409\n        /* \"#utility.yul\":10206:10208   */\n      0x40\n        /* \"#utility.yul\":10195:10204   */\n      dup4\n        /* \"#utility.yul\":10191:10209   */\n      add\n        /* \"#utility.yul\":10182:10188   */\n      dup5\n        /* \"#utility.yul\":10144:10210   */\n      tag_264\n      jump\t// in\n    tag_409:\n        /* \"#utility.yul\":9696:10217   */\n      swap5\n      swap4\n      pop\n      pop\n      pop\n      pop\n      jump\t// out\n        /* \"#utility.yul\":10223:10398   */\n    tag_265:\n        /* \"#utility.yul\":10363:10390   */\n      0x63616c6c6572206e6f742061206d696e7465722061646d696e00000000000000\n        /* \"#utility.yul\":10359:10360   */\n      0x00\n        /* \"#utility.yul\":10351:10357   */\n      dup3\n        /* \"#utility.yul\":10347:10361   */\n      add\n        /* \"#utility.yul\":10340:10391   */\n      mstore\n        /* \"#utility.yul\":10223:10398   */\n      pop\n      jump\t// out\n        /* \"#utility.yul\":10404:10770   */\n    tag_266:\n        /* \"#utility.yul\":10546:10549   */\n      0x00\n        /* \"#utility.yul\":10567:10634   */\n      tag_412\n        /* \"#utility.yul\":10631:10633   */\n      0x19\n        /* \"#utility.yul\":10626:10629   */\n      dup4\n        /* \"#utility.yul\":10567:10634   */\n      tag_260\n      jump\t// in\n    tag_412:\n        /* \"#utility.yul\":10560:10634   */\n      swap2\n      pop\n        /* \"#utility.yul\":10643:10736   */\n      tag_413\n        /* \"#utility.yul\":10732:10735   */\n      dup3\n        /* \"#utility.yul\":10643:10736   */\n      tag_265\n      jump\t// in\n    tag_413:\n        /* \"#utility.yul\":10761:10763   */\n      0x20\n        /* \"#utility.yul\":10756:10759   */\n      dup3\n        /* \"#utility.yul\":10752:10764   */\n      add\n        /* \"#utility.yul\":10745:10764   */\n      swap1\n      pop\n        /* \"#utility.yul\":10404:10770   */\n      swap2\n      swap1\n      pop\n      jump\t// out\n        /* \"#utility.yul\":10776:11195   */\n    tag_100:\n        /* \"#utility.yul\":10942:10946   */\n      0x00\n        /* \"#utility.yul\":10980:10982   */\n      0x20\n        /* \"#utility.yul\":10969:10978   */\n      dup3\n        /* \"#utility.yul\":10965:10983   */\n      add\n        /* \"#utility.yul\":10957:10983   */\n      swap1\n      pop\n        /* \"#utility.yul\":11029:11038   */\n      dup2\n        /* \"#utility.yul\":11023:11027   */\n      dup2\n        /* \"#utility.yul\":11019:11039   */\n      sub\n        /* \"#utility.yul\":11015:11016   */\n      0x00\n        /* \"#utility.yul\":11004:11013   */\n      dup4\n        /* \"#utility.yul\":11000:11017   */\n      add\n        /* \"#utility.yul\":10993:11040   */\n      mstore\n        /* \"#utility.yul\":11057:11188   */\n      tag_415\n        /* \"#utility.yul\":11183:11187   */\n      dup2\n        /* \"#utility.yul\":11057:11188   */\n      tag_266\n      jump\t// in\n    tag_415:\n        /* \"#utility.yul\":11049:11188   */\n      swap1\n      pop\n        /* \"#utility.yul\":10776:11195   */\n      swap2\n      swap1\n      pop\n      jump\t// out\n        /* \"#utility.yul\":11201:11383   */\n    tag_267:\n        /* \"#utility.yul\":11341:11375   */\n      0x4f776e61626c653a2063616c6c6572206973206e6f7420746865206f776e6572\n        /* \"#utility.yul\":11337:11338   */\n      0x00\n        /* \"#utility.yul\":11329:11335   */\n      dup3\n        /* \"#utility.yul\":11325:11339   */\n      add\n        /* \"#utility.yul\":11318:11376   */\n      mstore\n        /* \"#utility.yul\":11201:11383   */\n      pop\n      jump\t// out\n        /* \"#utility.yul\":11389:11755   */\n    tag_268:\n        /* \"#utility.yul\":11531:11534   */\n      0x00\n        /* \"#utility.yul\":11552:11619   */\n      tag_418\n        /* \"#utility.yul\":11616:11618   */\n      0x20\n        /* \"#utility.yul\":11611:11614   */\n      dup4\n        /* \"#utility.yul\":11552:11619   */\n      tag_260\n      jump\t// in\n    tag_418:\n        /* \"#utility.yul\":11545:11619   */\n      swap2\n      pop\n        /* \"#utility.yul\":11628:11721   */\n      tag_419\n        /* \"#utility.yul\":11717:11720   */\n      dup3\n        /* \"#utility.yul\":11628:11721   */\n      tag_267\n      jump\t// in\n    tag_419:\n        /* \"#utility.yul\":11746:11748   */\n      0x20\n        /* \"#utility.yul\":11741:11744   */\n      dup3\n        /* \"#utility.yul\":11737:11749   */\n      add\n        /* \"#utility.yul\":11730:11749   */\n      swap1\n      pop\n        /* \"#utility.yul\":11389:11755   */\n      swap2\n      swap1\n      pop\n      jump\t// out\n        /* \"#utility.yul\":11761:12180   */\n    tag_112:\n        /* \"#utility.yul\":11927:11931   */\n      0x00\n        /* \"#utility.yul\":11965:11967   */\n      0x20\n        /* \"#utility.yul\":11954:11963   */\n      dup3\n        /* \"#utility.yul\":11950:11968   */\n      add\n        /* \"#utility.yul\":11942:11968   */\n      swap1\n      pop\n        /* \"#utility.yul\":12014:12023   */\n      dup2\n        /* \"#utility.yul\":12008:12012   */\n      dup2\n        /* \"#utility.yul\":12004:12024   */\n      sub\n        /* \"#utility.yul\":12000:12001   */\n      0x00\n        /* \"#utility.yul\":11989:11998   */\n      dup4\n        /* \"#utility.yul\":11985:12002   */\n      add\n        /* \"#utility.yul\":11978:12025   */\n      mstore\n        /* \"#utility.yul\":12042:12173   */\n      tag_421\n        /* \"#utility.yul\":12168:12172   */\n      dup2\n        /* \"#utility.yul\":12042:12173   */\n      tag_268\n      jump\t// in\n    tag_421:\n        /* \"#utility.yul\":12034:12173   */\n      swap1\n      pop\n        /* \"#utility.yul\":11761:12180   */\n      swap2\n      swap1\n      pop\n      jump\t// out\n        /* \"#utility.yul\":12186:12406   */\n    tag_269:\n        /* \"#utility.yul\":12326:12360   */\n      0x63616c6c6572206e6f7420612070656e64696e67206d696e7465722061646d69\n        /* \"#utility.yul\":12322:12323   */\n      0x00\n        /* \"#utility.yul\":12314:12320   */\n      dup3\n        /* \"#utility.yul\":12310:12324   */\n      add\n        /* \"#utility.yul\":12303:12361   */\n      mstore\n        /* \"#utility.yul\":12395:12398   */\n      0x6e00000000000000000000000000000000000000000000000000000000000000\n        /* \"#utility.yul\":12390:12392   */\n      0x20\n        /* \"#utility.yul\":12382:12388   */\n      dup3\n        /* \"#utility.yul\":12378:12393   */\n      add\n        /* \"#utility.yul\":12371:12399   */\n      mstore\n        /* \"#utility.yul\":12186:12406   */\n      pop\n      jump\t// out\n        /* \"#utility.yul\":12412:12778   */\n    tag_270:\n        /* \"#utility.yul\":12554:12557   */\n      0x00\n        /* \"#utility.yul\":12575:12642   */\n      tag_424\n        /* \"#utility.yul\":12639:12641   */\n      0x21\n        /* \"#utility.yul\":12634:12637   */\n      dup4\n        /* \"#utility.yul\":12575:12642   */\n      tag_260\n      jump\t// in\n    tag_424:\n        /* \"#utility.yul\":12568:12642   */\n      swap2\n      pop\n        /* \"#utility.yul\":12651:12744   */\n      tag_425\n        /* \"#utility.yul\":12740:12743   */\n      dup3\n        /* \"#utility.yul\":12651:12744   */\n      tag_269\n      jump\t// in\n    tag_425:\n        /* \"#utility.yul\":12769:12771   */\n      0x40\n        /* \"#utility.yul\":12764:12767   */\n      dup3\n        /* \"#utility.yul\":12760:12772   */\n      add\n        /* \"#utility.yul\":12753:12772   */\n      swap1\n      pop\n        /* \"#utility.yul\":12412:12778   */\n      swap2\n      swap1\n      pop\n      jump\t// out\n        /* \"#utility.yul\":12784:13203   */\n    tag_130:\n        /* \"#utility.yul\":12950:12954   */\n      0x00\n        /* \"#utility.yul\":12988:12990   */\n      0x20\n        /* \"#utility.yul\":12977:12986   */\n      dup3\n        /* \"#utility.yul\":12973:12991   */\n      add\n        /* \"#utility.yul\":12965:12991   */\n      swap1\n      pop\n        /* \"#utility.yul\":13037:13046   */\n      dup2\n        /* \"#utility.yul\":13031:13035   */\n      dup2\n        /* \"#utility.yul\":13027:13047   */\n      sub\n        /* \"#utility.yul\":13023:13024   */\n      0x00\n        /* \"#utility.yul\":13012:13021   */\n      dup4\n        /* \"#utility.yul\":13008:13025   */\n      add\n        /* \"#utility.yul\":13001:13048   */\n      mstore\n        /* \"#utility.yul\":13065:13196   */\n      tag_427\n        /* \"#utility.yul\":13191:13195   */\n      dup2\n        /* \"#utility.yul\":13065:13196   */\n      tag_270\n      jump\t// in\n    tag_427:\n        /* \"#utility.yul\":13057:13196   */\n      swap1\n      pop\n        /* \"#utility.yul\":12784:13203   */\n      swap2\n      swap1\n      pop\n      jump\t// out\n        /* \"#utility.yul\":13209:13357   */\n    tag_271:\n        /* \"#utility.yul\":13311:13322   */\n      0x00\n        /* \"#utility.yul\":13348:13351   */\n      dup2\n        /* \"#utility.yul\":13333:13351   */\n      swap1\n      pop\n        /* \"#utility.yul\":13209:13357   */\n      swap3\n      swap2\n      pop\n      pop\n      jump\t// out\n        /* \"#utility.yul\":13363:13519   */\n    tag_272:\n        /* \"#utility.yul\":13503:13511   */\n      0x42524f4e5a450000000000000000000000000000000000000000000000000000\n        /* \"#utility.yul\":13499:13500   */\n      0x00\n        /* \"#utility.yul\":13491:13497   */\n      dup3\n        /* \"#utility.yul\":13487:13501   */\n      add\n        /* \"#utility.yul\":13480:13512   */\n      mstore\n        /* \"#utility.yul\":13363:13519   */\n      pop\n      jump\t// out\n        /* \"#utility.yul\":13525:13925   */\n    tag_273:\n        /* \"#utility.yul\":13685:13688   */\n      0x00\n        /* \"#utility.yul\":13706:13790   */\n      tag_431\n        /* \"#utility.yul\":13788:13789   */\n      0x06\n        /* \"#utility.yul\":13783:13786   */\n      dup4\n        /* \"#utility.yul\":13706:13790   */\n      tag_271\n      jump\t// in\n    tag_431:\n        /* \"#utility.yul\":13699:13790   */\n      swap2\n      pop\n        /* \"#utility.yul\":13799:13892   */\n      tag_432\n        /* \"#utility.yul\":13888:13891   */\n      dup3\n        /* \"#utility.yul\":13799:13892   */\n      tag_272\n      jump\t// in\n    tag_432:\n        /* \"#utility.yul\":13917:13918   */\n      0x06\n        /* \"#utility.yul\":13912:13915   */\n      dup3\n        /* \"#utility.yul\":13908:13919   */\n      add\n        /* \"#utility.yul\":13901:13919   */\n      swap1\n      pop\n        /* \"#utility.yul\":13525:13925   */\n      swap2\n      swap1\n      pop\n      jump\t// out\n        /* \"#utility.yul\":13931:14312   */\n    tag_134:\n        /* \"#utility.yul\":14116:14119   */\n      0x00\n        /* \"#utility.yul\":14138:14286   */\n      tag_434\n        /* \"#utility.yul\":14282:14285   */\n      dup3\n        /* \"#utility.yul\":14138:14286   */\n      tag_273\n      jump\t// in\n    tag_434:\n        /* \"#utility.yul\":14131:14286   */\n      swap2\n      pop\n        /* \"#utility.yul\":14303:14306   */\n      dup2\n        /* \"#utility.yul\":14296:14306   */\n      swap1\n      pop\n        /* \"#utility.yul\":13931:14312   */\n      swap2\n      swap1\n      pop\n      jump\t// out\n        /* \"#utility.yul\":14318:14695   */\n    tag_274:\n        /* \"#utility.yul\":14424:14427   */\n      0x00\n        /* \"#utility.yul\":14452:14491   */\n      tag_436\n        /* \"#utility.yul\":14485:14490   */\n      dup3\n        /* \"#utility.yul\":14452:14491   */\n      tag_259\n      jump\t// in\n    tag_436:\n        /* \"#utility.yul\":14507:14596   */\n      tag_437\n        /* \"#utility.yul\":14589:14595   */\n      dup2\n        /* \"#utility.yul\":14584:14587   */\n      dup6\n        /* \"#utility.yul\":14507:14596   */\n      tag_271\n      jump\t// in\n    tag_437:\n        /* \"#utility.yul\":14500:14596   */\n      swap4\n      pop\n        /* \"#utility.yul\":14605:14657   */\n      tag_438\n        /* \"#utility.yul\":14650:14656   */\n      dup2\n        /* \"#utility.yul\":14645:14648   */\n      dup6\n        /* \"#utility.yul\":14638:14642   */\n      0x20\n        /* \"#utility.yul\":14631:14636   */\n      dup7\n        /* \"#utility.yul\":14627:14643   */\n      add\n        /* \"#utility.yul\":14605:14657   */\n      tag_261\n      jump\t// in\n    tag_438:\n        /* \"#utility.yul\":14682:14688   */\n      dup1\n        /* \"#utility.yul\":14677:14680   */\n      dup5\n        /* \"#utility.yul\":14673:14689   */\n      add\n        /* \"#utility.yul\":14666:14689   */\n      swap2\n      pop\n        /* \"#utility.yul\":14428:14695   */\n      pop\n        /* \"#utility.yul\":14318:14695   */\n      swap3\n      swap2\n      pop\n      pop\n      jump\t// out\n        /* \"#utility.yul\":14701:14976   */\n    tag_136:\n        /* \"#utility.yul\":14833:14836   */\n      0x00\n        /* \"#utility.yul\":14855:14950   */\n      tag_440\n        /* \"#utility.yul\":14946:14949   */\n      dup3\n        /* \"#utility.yul\":14937:14943   */\n      dup5\n        /* \"#utility.yul\":14855:14950   */\n      tag_274\n      jump\t// in\n    tag_440:\n        /* \"#utility.yul\":14848:14950   */\n      swap2\n      pop\n        /* \"#utility.yul\":14967:14970   */\n      dup2\n        /* \"#utility.yul\":14960:14970   */\n      swap1\n      pop\n        /* \"#utility.yul\":14701:14976   */\n      swap3\n      swap2\n      pop\n      pop\n      jump\t// out\n        /* \"#utility.yul\":14982:15138   */\n    tag_275:\n        /* \"#utility.yul\":15122:15130   */\n      0x53494c5645520000000000000000000000000000000000000000000000000000\n        /* \"#utility.yul\":15118:15119   */\n      0x00\n        /* \"#utility.yul\":15110:15116   */\n      dup3\n        /* \"#utility.yul\":15106:15120   */\n      add\n        /* \"#utility.yul\":15099:15131   */\n      mstore\n        /* \"#utility.yul\":14982:15138   */\n      pop\n      jump\t// out\n        /* \"#utility.yul\":15144:15544   */\n    tag_276:\n        /* \"#utility.yul\":15304:15307   */\n      0x00\n        /* \"#utility.yul\":15325:15409   */\n      tag_443\n        /* \"#utility.yul\":15407:15408   */\n      0x06\n        /* \"#utility.yul\":15402:15405   */\n      dup4\n        /* \"#utility.yul\":15325:15409   */\n      tag_271\n      jump\t// in\n    tag_443:\n        /* \"#utility.yul\":15318:15409   */\n      swap2\n      pop\n        /* \"#utility.yul\":15418:15511   */\n      tag_444\n        /* \"#utility.yul\":15507:15510   */\n      dup3\n        /* \"#utility.yul\":15418:15511   */\n      tag_275\n      jump\t// in\n    tag_444:\n        /* \"#utility.yul\":15536:15537   */\n      0x06\n        /* \"#utility.yul\":15531:15534   */\n      dup3\n        /* \"#utility.yul\":15527:15538   */\n      add\n        /* \"#utility.yul\":15520:15538   */\n      swap1\n      pop\n        /* \"#utility.yul\":15144:15544   */\n      swap2\n      swap1\n      pop\n      jump\t// out\n        /* \"#utility.yul\":15550:15931   */\n    tag_139:\n        /* \"#utility.yul\":15735:15738   */\n      0x00\n        /* \"#utility.yul\":15757:15905   */\n      tag_446\n        /* \"#utility.yul\":15901:15904   */\n      dup3\n        /* \"#utility.yul\":15757:15905   */\n      tag_276\n      jump\t// in\n    tag_446:\n        /* \"#utility.yul\":15750:15905   */\n      swap2\n      pop\n        /* \"#utility.yul\":15922:15925   */\n      dup2\n        /* \"#utility.yul\":15915:15925   */\n      swap1\n      pop\n        /* \"#utility.yul\":15550:15931   */\n      swap2\n      swap1\n      pop\n      jump\t// out\n        /* \"#utility.yul\":15937:16091   */\n    tag_277:\n        /* \"#utility.yul\":16077:16083   */\n      0x474f4c4400000000000000000000000000000000000000000000000000000000\n        /* \"#utility.yul\":16073:16074   */\n      0x00\n        /* \"#utility.yul\":16065:16071   */\n      dup3\n        /* \"#utility.yul\":16061:16075   */\n      add\n        /* \"#utility.yul\":16054:16084   */\n      mstore\n        /* \"#utility.yul\":15937:16091   */\n      pop\n      jump\t// out\n        /* \"#utility.yul\":16097:16497   */\n    tag_278:\n        /* \"#utility.yul\":16257:16260   */\n      0x00\n        /* \"#utility.yul\":16278:16362   */\n      tag_449\n        /* \"#utility.yul\":16360:16361   */\n      0x04\n        /* \"#utility.yul\":16355:16358   */\n      dup4\n        /* \"#utility.yul\":16278:16362   */\n      tag_271\n      jump\t// in\n    tag_449:\n        /* \"#utility.yul\":16271:16362   */\n      swap2\n      pop\n        /* \"#utility.yul\":16371:16464   */\n      tag_450\n        /* \"#utility.yul\":16460:16463   */\n      dup3\n        /* \"#utility.yul\":16371:16464   */\n      tag_277\n      jump\t// in\n    tag_450:\n        /* \"#utility.yul\":16489:16490   */\n      0x04\n        /* \"#utility.yul\":16484:16487   */\n      dup3\n        /* \"#utility.yul\":16480:16491   */\n      add\n        /* \"#utility.yul\":16473:16491   */\n      swap1\n      pop\n        /* \"#utility.yul\":16097:16497   */\n      swap2\n      swap1\n      pop\n      jump\t// out\n        /* \"#utility.yul\":16503:16884   */\n    tag_143:\n        /* \"#utility.yul\":16688:16691   */\n      0x00\n        /* \"#utility.yul\":16710:16858   */\n      tag_452\n        /* \"#utility.yul\":16854:16857   */\n      dup3\n        /* \"#utility.yul\":16710:16858   */\n      tag_278\n      jump\t// in\n    tag_452:\n        /* \"#utility.yul\":16703:16858   */\n      swap2\n      pop\n        /* \"#utility.yul\":16875:16878   */\n      dup2\n        /* \"#utility.yul\":16868:16878   */\n      swap1\n      pop\n        /* \"#utility.yul\":16503:16884   */\n      swap2\n      swap1\n      pop\n      jump\t// out\n        /* \"#utility.yul\":16890:17064   */\n    tag_279:\n        /* \"#utility.yul\":17030:17056   */\n      0x4974656d27732074797065206973206e6f742076616c69640000000000000000\n        /* \"#utility.yul\":17026:17027   */\n      0x00\n        /* \"#utility.yul\":17018:17024   */\n      dup3\n        /* \"#utility.yul\":17014:17028   */\n      add\n        /* \"#utility.yul\":17007:17057   */\n      mstore\n        /* \"#utility.yul\":16890:17064   */\n      pop\n      jump\t// out\n        /* \"#utility.yul\":17070:17436   */\n    tag_280:\n        /* \"#utility.yul\":17212:17215   */\n      0x00\n        /* \"#utility.yul\":17233:17300   */\n      tag_455\n        /* \"#utility.yul\":17297:17299   */\n      0x18\n        /* \"#utility.yul\":17292:17295   */\n      dup4\n        /* \"#utility.yul\":17233:17300   */\n      tag_260\n      jump\t// in\n    tag_455:\n        /* \"#utility.yul\":17226:17300   */\n      swap2\n      pop\n        /* \"#utility.yul\":17309:17402   */\n      tag_456\n        /* \"#utility.yul\":17398:17401   */\n      dup3\n        /* \"#utility.yul\":17309:17402   */\n      tag_279\n      jump\t// in\n    tag_456:\n        /* \"#utility.yul\":17427:17429   */\n      0x20\n        /* \"#utility.yul\":17422:17425   */\n      dup3\n        /* \"#utility.yul\":17418:17430   */\n      add\n        /* \"#utility.yul\":17411:17430   */\n      swap1\n      pop\n        /* \"#utility.yul\":17070:17436   */\n      swap2\n      swap1\n      pop\n      jump\t// out\n        /* \"#utility.yul\":17442:17861   */\n    tag_147:\n        /* \"#utility.yul\":17608:17612   */\n      0x00\n        /* \"#utility.yul\":17646:17648   */\n      0x20\n        /* \"#utility.yul\":17635:17644   */\n      dup3\n        /* \"#utility.yul\":17631:17649   */\n      add\n        /* \"#utility.yul\":17623:17649   */\n      swap1\n      pop\n        /* \"#utility.yul\":17695:17704   */\n      dup2\n        /* \"#utility.yul\":17689:17693   */\n      dup2\n        /* \"#utility.yul\":17685:17705   */\n      sub\n        /* \"#utility.yul\":17681:17682   */\n      0x00\n        /* \"#utility.yul\":17670:17679   */\n      dup4\n        /* \"#utility.yul\":17666:17683   */\n      add\n        /* \"#utility.yul\":17659:17706   */\n      mstore\n        /* \"#utility.yul\":17723:17854   */\n      tag_458\n        /* \"#utility.yul\":17849:17853   */\n      dup2\n        /* \"#utility.yul\":17723:17854   */\n      tag_280\n      jump\t// in\n    tag_458:\n        /* \"#utility.yul\":17715:17854   */\n      swap1\n      pop\n        /* \"#utility.yul\":17442:17861   */\n      swap2\n      swap1\n      pop\n      jump\t// out\n        /* \"#utility.yul\":17867:18309   */\n    tag_153:\n        /* \"#utility.yul\":18016:18020   */\n      0x00\n        /* \"#utility.yul\":18054:18056   */\n      0x60\n        /* \"#utility.yul\":18043:18052   */\n      dup3\n        /* \"#utility.yul\":18039:18057   */\n      add\n        /* \"#utility.yul\":18031:18057   */\n      swap1\n      pop\n        /* \"#utility.yul\":18067:18138   */\n      tag_460\n        /* \"#utility.yul\":18135:18136   */\n      0x00\n        /* \"#utility.yul\":18124:18133   */\n      dup4\n        /* \"#utility.yul\":18120:18137   */\n      add\n        /* \"#utility.yul\":18111:18117   */\n      dup7\n        /* \"#utility.yul\":18067:18138   */\n      tag_237\n      jump\t// in\n    tag_460:\n        /* \"#utility.yul\":18148:18220   */\n      tag_461\n        /* \"#utility.yul\":18216:18218   */\n      0x20\n        /* \"#utility.yul\":18205:18214   */\n      dup4\n        /* \"#utility.yul\":18201:18219   */\n      add\n        /* \"#utility.yul\":18192:18198   */\n      dup6\n        /* \"#utility.yul\":18148:18220   */\n      tag_237\n      jump\t// in\n    tag_461:\n        /* \"#utility.yul\":18230:18302   */\n      tag_462\n        /* \"#utility.yul\":18298:18300   */\n      0x40\n        /* \"#utility.yul\":18287:18296   */\n      dup4\n        /* \"#utility.yul\":18283:18301   */\n      add\n        /* \"#utility.yul\":18274:18280   */\n      dup5\n        /* \"#utility.yul\":18230:18302   */\n      tag_244\n      jump\t// in\n    tag_462:\n        /* \"#utility.yul\":17867:18309   */\n      swap5\n      swap4\n      pop\n      pop\n      pop\n      pop\n      jump\t// out\n        /* \"#utility.yul\":18315:18431   */\n    tag_281:\n        /* \"#utility.yul\":18385:18406   */\n      tag_464\n        /* \"#utility.yul\":18400:18405   */\n      dup2\n        /* \"#utility.yul\":18385:18406   */\n      tag_263\n      jump\t// in\n    tag_464:\n        /* \"#utility.yul\":18378:18383   */\n      dup2\n        /* \"#utility.yul\":18375:18407   */\n      eq\n        /* \"#utility.yul\":18365:18425   */\n      tag_465\n      jumpi\n        /* \"#utility.yul\":18421:18422   */\n      0x00\n        /* \"#utility.yul\":18418:18419   */\n      dup1\n        /* \"#utility.yul\":18411:18423   */\n      revert\n        /* \"#utility.yul\":18365:18425   */\n    tag_465:\n        /* \"#utility.yul\":18315:18431   */\n      pop\n      jump\t// out\n        /* \"#utility.yul\":18437:18574   */\n    tag_282:\n        /* \"#utility.yul\":18491:18496   */\n      0x00\n        /* \"#utility.yul\":18522:18528   */\n      dup2\n        /* \"#utility.yul\":18516:18529   */\n      mload\n        /* \"#utility.yul\":18507:18529   */\n      swap1\n      pop\n        /* \"#utility.yul\":18538:18568   */\n      tag_467\n        /* \"#utility.yul\":18562:18567   */\n      dup2\n        /* \"#utility.yul\":18538:18568   */\n      tag_281\n      jump\t// in\n    tag_467:\n        /* \"#utility.yul\":18437:18574   */\n      swap3\n      swap2\n      pop\n      pop\n      jump\t// out\n        /* \"#utility.yul\":18580:18925   */\n    tag_157:\n        /* \"#utility.yul\":18647:18653   */\n      0x00\n        /* \"#utility.yul\":18696:18698   */\n      0x20\n        /* \"#utility.yul\":18684:18693   */\n      dup3\n        /* \"#utility.yul\":18675:18682   */\n      dup5\n        /* \"#utility.yul\":18671:18694   */\n      sub\n        /* \"#utility.yul\":18667:18699   */\n      slt\n        /* \"#utility.yul\":18664:18783   */\n      iszero\n      tag_469\n      jumpi\n        /* \"#utility.yul\":18702:18781   */\n      tag_470\n      tag_231\n      jump\t// in\n    tag_470:\n        /* \"#utility.yul\":18664:18783   */\n    tag_469:\n        /* \"#utility.yul\":18822:18823   */\n      0x00\n        /* \"#utility.yul\":18847:18908   */\n      tag_471\n        /* \"#utility.yul\":18900:18907   */\n      dup5\n        /* \"#utility.yul\":18891:18897   */\n      dup3\n        /* \"#utility.yul\":18880:18889   */\n      dup6\n        /* \"#utility.yul\":18876:18898   */\n      add\n        /* \"#utility.yul\":18847:18908   */\n      tag_282\n      jump\t// in\n    tag_471:\n        /* \"#utility.yul\":18837:18908   */\n      swap2\n      pop\n        /* \"#utility.yul\":18793:18918   */\n      pop\n        /* \"#utility.yul\":18580:18925   */\n      swap3\n      swap2\n      pop\n      pop\n      jump\t// out\n        /* \"#utility.yul\":18931:19244   */\n    tag_159:\n        /* \"#utility.yul\":19044:19048   */\n      0x00\n        /* \"#utility.yul\":19082:19084   */\n      0x20\n        /* \"#utility.yul\":19071:19080   */\n      dup3\n        /* \"#utility.yul\":19067:19085   */\n      add\n        /* \"#utility.yul\":19059:19085   */\n      swap1\n      pop\n        /* \"#utility.yul\":19131:19140   */\n      dup2\n        /* \"#utility.yul\":19125:19129   */\n      dup2\n        /* \"#utility.yul\":19121:19141   */\n      sub\n        /* \"#utility.yul\":19117:19118   */\n      0x00\n        /* \"#utility.yul\":19106:19115   */\n      dup4\n        /* \"#utility.yul\":19102:19119   */\n      add\n        /* \"#utility.yul\":19095:19142   */\n      mstore\n        /* \"#utility.yul\":19159:19237   */\n      tag_473\n        /* \"#utility.yul\":19232:19236   */\n      dup2\n        /* \"#utility.yul\":19223:19229   */\n      dup5\n        /* \"#utility.yul\":19159:19237   */\n      tag_262\n      jump\t// in\n    tag_473:\n        /* \"#utility.yul\":19151:19237   */\n      swap1\n      pop\n        /* \"#utility.yul\":18931:19244   */\n      swap3\n      swap2\n      pop\n      pop\n      jump\t// out\n        /* \"#utility.yul\":19250:19393   */\n    tag_283:\n        /* \"#utility.yul\":19307:19312   */\n      0x00\n        /* \"#utility.yul\":19338:19344   */\n      dup2\n        /* \"#utility.yul\":19332:19345   */\n      mload\n        /* \"#utility.yul\":19323:19345   */\n      swap1\n      pop\n        /* \"#utility.yul\":19354:19387   */\n      tag_475\n        /* \"#utility.yul\":19381:19386   */\n      dup2\n        /* \"#utility.yul\":19354:19387   */\n      tag_234\n      jump\t// in\n    tag_475:\n        /* \"#utility.yul\":19250:19393   */\n      swap3\n      swap2\n      pop\n      pop\n      jump\t// out\n        /* \"#utility.yul\":19399:19750   */\n    tag_163:\n        /* \"#utility.yul\":19469:19475   */\n      0x00\n        /* \"#utility.yul\":19518:19520   */\n      0x20\n        /* \"#utility.yul\":19506:19515   */\n      dup3\n        /* \"#utility.yul\":19497:19504   */\n      dup5\n        /* \"#utility.yul\":19493:19516   */\n      sub\n        /* \"#utility.yul\":19489:19521   */\n      slt\n        /* \"#utility.yul\":19486:19605   */\n      iszero\n      tag_477\n      jumpi\n        /* \"#utility.yul\":19524:19603   */\n      tag_478\n      tag_231\n      jump\t// in\n    tag_478:\n        /* \"#utility.yul\":19486:19605   */\n    tag_477:\n        /* \"#utility.yul\":19644:19645   */\n      0x00\n        /* \"#utility.yul\":19669:19733   */\n      tag_479\n        /* \"#utility.yul\":19725:19732   */\n      dup5\n        /* \"#utility.yul\":19716:19722   */\n      dup3\n        /* \"#utility.yul\":19705:19714   */\n      dup6\n        /* \"#utility.yul\":19701:19723   */\n      add\n        /* \"#utility.yul\":19669:19733   */\n      tag_283\n      jump\t// in\n    tag_479:\n        /* \"#utility.yul\":19659:19733   */\n      swap2\n      pop\n        /* \"#utility.yul\":19615:19743   */\n      pop\n        /* \"#utility.yul\":19399:19750   */\n      swap3\n      swap2\n      pop\n      pop\n      jump\t// out\n        /* \"#utility.yul\":19756:20179   */\n    tag_204:\n        /* \"#utility.yul\":19897:19901   */\n      0x00\n        /* \"#utility.yul\":19935:19937   */\n      0x40\n        /* \"#utility.yul\":19924:19933   */\n      dup3\n        /* \"#utility.yul\":19920:19938   */\n      add\n        /* \"#utility.yul\":19912:19938   */\n      swap1\n      pop\n        /* \"#utility.yul\":19948:20019   */\n      tag_481\n        /* \"#utility.yul\":20016:20017   */\n      0x00\n        /* \"#utility.yul\":20005:20014   */\n      dup4\n        /* \"#utility.yul\":20001:20018   */\n      add\n        /* \"#utility.yul\":19992:19998   */\n      dup6\n        /* \"#utility.yul\":19948:20019   */\n      tag_244\n      jump\t// in\n    tag_481:\n        /* \"#utility.yul\":20066:20075   */\n      dup2\n        /* \"#utility.yul\":20060:20064   */\n      dup2\n        /* \"#utility.yul\":20056:20076   */\n      sub\n        /* \"#utility.yul\":20051:20053   */\n      0x20\n        /* \"#utility.yul\":20040:20049   */\n      dup4\n        /* \"#utility.yul\":20036:20054   */\n      add\n        /* \"#utility.yul\":20029:20077   */\n      mstore\n        /* \"#utility.yul\":20094:20172   */\n      tag_482\n        /* \"#utility.yul\":20167:20171   */\n      dup2\n        /* \"#utility.yul\":20158:20164   */\n      dup5\n        /* \"#utility.yul\":20094:20172   */\n      tag_262\n      jump\t// in\n    tag_482:\n        /* \"#utility.yul\":20086:20172   */\n      swap1\n      pop\n        /* \"#utility.yul\":19756:20179   */\n      swap4\n      swap3\n      pop\n      pop\n      pop\n      jump\t// out\n        /* \"#utility.yul\":20185:20365   */\n    tag_284:\n        /* \"#utility.yul\":20233:20310   */\n      0x4e487b7100000000000000000000000000000000000000000000000000000000\n        /* \"#utility.yul\":20230:20231   */\n      0x00\n        /* \"#utility.yul\":20223:20311   */\n      mstore\n        /* \"#utility.yul\":20330:20334   */\n      0x22\n        /* \"#utility.yul\":20327:20328   */\n      0x04\n        /* \"#utility.yul\":20320:20335   */\n      mstore\n        /* \"#utility.yul\":20354:20358   */\n      0x24\n        /* \"#utility.yul\":20351:20352   */\n      0x00\n        /* \"#utility.yul\":20344:20359   */\n      revert\n        /* \"#utility.yul\":20371:20691   */\n    tag_206:\n        /* \"#utility.yul\":20415:20421   */\n      0x00\n        /* \"#utility.yul\":20452:20453   */\n      0x02\n        /* \"#utility.yul\":20446:20450   */\n      dup3\n        /* \"#utility.yul\":20442:20454   */\n      div\n        /* \"#utility.yul\":20432:20454   */\n      swap1\n      pop\n        /* \"#utility.yul\":20499:20500   */\n      0x01\n        /* \"#utility.yul\":20493:20497   */\n      dup3\n        /* \"#utility.yul\":20489:20501   */\n      and\n        /* \"#utility.yul\":20520:20538   */\n      dup1\n        /* \"#utility.yul\":20510:20591   */\n      tag_485\n      jumpi\n        /* \"#utility.yul\":20576:20580   */\n      0x7f\n        /* \"#utility.yul\":20568:20574   */\n      dup3\n        /* \"#utility.yul\":20564:20581   */\n      and\n        /* \"#utility.yul\":20554:20581   */\n      swap2\n      pop\n        /* \"#utility.yul\":20510:20591   */\n    tag_485:\n        /* \"#utility.yul\":20638:20640   */\n      0x20\n        /* \"#utility.yul\":20630:20636   */\n      dup3\n        /* \"#utility.yul\":20627:20641   */\n      lt\n        /* \"#utility.yul\":20607:20625   */\n      dup2\n        /* \"#utility.yul\":20604:20642   */\n      sub\n        /* \"#utility.yul\":20601:20685   */\n      tag_486\n      jumpi\n        /* \"#utility.yul\":20657:20675   */\n      tag_487\n      tag_284\n      jump\t// in\n    tag_487:\n        /* \"#utility.yul\":20601:20685   */\n    tag_486:\n        /* \"#utility.yul\":20422:20691   */\n      pop\n        /* \"#utility.yul\":20371:20691   */\n      swap2\n      swap1\n      pop\n      jump\t// out\n        /* \"#utility.yul\":20697:20922   */\n    tag_285:\n        /* \"#utility.yul\":20837:20871   */\n      0x4f776e61626c653a206e6577206f776e657220697320746865207a65726f2061\n        /* \"#utility.yul\":20833:20834   */\n      0x00\n        /* \"#utility.yul\":20825:20831   */\n      dup3\n        /* \"#utility.yul\":20821:20835   */\n      add\n        /* \"#utility.yul\":20814:20872   */\n      mstore\n        /* \"#utility.yul\":20906:20914   */\n      0x6464726573730000000000000000000000000000000000000000000000000000\n        /* \"#utility.yul\":20901:20903   */\n      0x20\n        /* \"#utility.yul\":20893:20899   */\n      dup3\n        /* \"#utility.yul\":20889:20904   */\n      add\n        /* \"#utility.yul\":20882:20915   */\n      mstore\n        /* \"#utility.yul\":20697:20922   */\n      pop\n      jump\t// out\n        /* \"#utility.yul\":20928:21294   */\n    tag_286:\n        /* \"#utility.yul\":21070:21073   */\n      0x00\n        /* \"#utility.yul\":21091:21158   */\n      tag_490\n        /* \"#utility.yul\":21155:21157   */\n      0x26\n        /* \"#utility.yul\":21150:21153   */\n      dup4\n        /* \"#utility.yul\":21091:21158   */\n      tag_260\n      jump\t// in\n    tag_490:\n        /* \"#utility.yul\":21084:21158   */\n      swap2\n      pop\n        /* \"#utility.yul\":21167:21260   */\n      tag_491\n        /* \"#utility.yul\":21256:21259   */\n      dup3\n        /* \"#utility.yul\":21167:21260   */\n      tag_285\n      jump\t// in\n    tag_491:\n        /* \"#utility.yul\":21285:21287   */\n      0x40\n        /* \"#utility.yul\":21280:21283   */\n      dup3\n        /* \"#utility.yul\":21276:21288   */\n      add\n        /* \"#utility.yul\":21269:21288   */\n      swap1\n      pop\n        /* \"#utility.yul\":20928:21294   */\n      swap2\n      swap1\n      pop\n      jump\t// out\n        /* \"#utility.yul\":21300:21719   */\n    tag_220:\n        /* \"#utility.yul\":21466:21470   */\n      0x00\n        /* \"#utility.yul\":21504:21506   */\n      0x20\n        /* \"#utility.yul\":21493:21502   */\n      dup3\n        /* \"#utility.yul\":21489:21507   */\n      add\n        /* \"#utility.yul\":21481:21507   */\n      swap1\n      pop\n        /* \"#utility.yul\":21553:21562   */\n      dup2\n        /* \"#utility.yul\":21547:21551   */\n      dup2\n        /* \"#utility.yul\":21543:21563   */\n      sub\n        /* \"#utility.yul\":21539:21540   */\n      0x00\n        /* \"#utility.yul\":21528:21537   */\n      dup4\n        /* \"#utility.yul\":21524:21541   */\n      add\n        /* \"#utility.yul\":21517:21564   */\n      mstore\n        /* \"#utility.yul\":21581:21712   */\n      tag_493\n        /* \"#utility.yul\":21707:21711   */\n      dup2\n        /* \"#utility.yul\":21581:21712   */\n      tag_286\n      jump\t// in\n    tag_493:\n        /* \"#utility.yul\":21573:21712   */\n      swap1\n      pop\n        /* \"#utility.yul\":21300:21719   */\n      swap2\n      swap1\n      pop\n      jump\t// out\n\n    auxdata: 0xa2646970667358221220309ba38340a3b3b1e11e15d0ec1c2368f05da679192813305efc4cc27e2cb13864736f6c634300080d0033\n}\n",
				"bytecode": {
					"linkReferences": {},
					"object": "60806040523480156200001157600080fd5b506040516200259138038062002591833981810160405281019062000037919062000353565b620000576200004b6200021b60201b60201c565b6200022360201b60201c565b33600660006101000a81548173ffffffffffffffffffffffffffffffffffffffff021916908373ffffffffffffffffffffffffffffffffffffffff1602179055506001600560003373ffffffffffffffffffffffffffffffffffffffff1673ffffffffffffffffffffffffffffffffffffffff16815260200190815260200160002060006101000a81548160ff021916908315150217905550600073ffffffffffffffffffffffffffffffffffffffff168173ffffffffffffffffffffffffffffffffffffffff160362000162576040517f08c379a00000000000000000000000000000000000000000000000000000000081526004016200015990620003e6565b60405180910390fd5b80600c60006101000a81548173ffffffffffffffffffffffffffffffffffffffff021916908373ffffffffffffffffffffffffffffffffffffffff16021790555080600860006101000a81548173ffffffffffffffffffffffffffffffffffffffff021916908373ffffffffffffffffffffffffffffffffffffffff160217905550681b1ae4d6e2ef500000600981905550683635c9adc5dea00000600a81905550685150ae84a8cdf00000600b819055505062000408565b600033905090565b6000600460009054906101000a900473ffffffffffffffffffffffffffffffffffffffff16905081600460006101000a81548173ffffffffffffffffffffffffffffffffffffffff021916908373ffffffffffffffffffffffffffffffffffffffff1602179055508173ffffffffffffffffffffffffffffffffffffffff168173ffffffffffffffffffffffffffffffffffffffff167f8be0079c531659141344cd1fd0a4f28419497f9722a3daafe3b4186f6b6457e060405160405180910390a35050565b600080fd5b600073ffffffffffffffffffffffffffffffffffffffff82169050919050565b60006200031b82620002ee565b9050919050565b6200032d816200030e565b81146200033957600080fd5b50565b6000815190506200034d8162000322565b92915050565b6000602082840312156200036c576200036b620002e9565b5b60006200037c848285016200033c565b91505092915050565b600082825260208201905092915050565b7f496e76616c696420636f6e747261637420616464726573730000000000000000600082015250565b6000620003ce60188362000385565b9150620003db8262000396565b602082019050919050565b600060208201905081810360008301526200040181620003bf565b9050919050565b61217980620004186000396000f3fe608060405234801561001057600080fd5b506004361061012c5760003560e01c8063aa6a0dac116100ad578063ce1d82f511610071578063ce1d82f5146102e8578063d30bdac914610306578063d56d229d14610338578063db69a32d14610356578063f2fde38b146103745761012c565b8063aa6a0dac14610268578063ac4867f014610286578063aed59b8a146102a4578063af1b3d5e146102ae578063c04772d5146102cc5761012c565b80636e722920116100f45780636e722920146101ec578063715018a6146102085780638da5cb5b1461021257806392bf77dd14610230578063a15c15af1461024c5761012c565b806315b81dc3146101315780631f7775ad1461014f5780632b4c32be1461018057806358dd86031461019e5780636d4d0c57146101d0575b600080fd5b610139610390565b60405161014691906116da565b60405180910390f35b6101696004803603810190610164919061173f565b6103b4565b604051610177929190611804565b60405180910390f35b610188610405565b6040516101959190611868565b60405180910390f35b6101b860048036038101906101b3919061173f565b610410565b6040516101c793929190611892565b60405180910390f35b6101ea60048036038101906101e591906118f5565b610467565b005b610206600480360381019061020191906118f5565b61053b565b005b610210610626565b005b61021a6106ae565b6040516102279190611922565b60405180910390f35b61024a600480360381019061024591906118f5565b6106d8565b005b610266600480360381019061026191906118f5565b610797565b005b610270610882565b60405161027d919061193d565b60405180910390f35b61028e610888565b60405161029b919061193d565b60405180910390f35b6102ac61088e565b005b6102b6610a63565b6040516102c3919061193d565b60405180910390f35b6102e660048036038101906102e19190611a9e565b610a69565b005b6102f0611361565b6040516102fd9190611922565b60405180910390f35b610320600480360381019061031b919061173f565b611387565b60405161032f93929190611ba3565b60405180910390f35b610340611446565b60405161034d9190611922565b60405180910390f35b61035e61146c565b60405161036b9190611922565b60405180910390f35b61038e600480360381019061038991906118f5565b611496565b005b60008054906101000a900473ffffffffffffffffffffffffffffffffffffffff1681565b60036020528060005260406000206000915090508060000160009054906101000a900473ffffffffffffffffffffffffffffffffffffffff16908060000160149054906101000a900460ff16905082565b6380ac58cd60e01b81565b60016020528060005260406000206000915090508060000154908060010160009054906101000a900473ffffffffffffffffffffffffffffffffffffffff16908060010160149054906101000a900460ff16905083565b600660009054906101000a900473ffffffffffffffffffffffffffffffffffffffff1673ffffffffffffffffffffffffffffffffffffffff163373ffffffffffffffffffffffffffffffffffffffff16146104f7576040517f08c379a00000000000000000000000000000000000000000000000000000000081526004016104ee90611c2d565b60405180910390fd5b80600760006101000a81548173ffffffffffffffffffffffffffffffffffffffff021916908373ffffffffffffffffffffffffffffffffffffffff16021790555050565b600660009054906101000a900473ffffffffffffffffffffffffffffffffffffffff1673ffffffffffffffffffffffffffffffffffffffff163373ffffffffffffffffffffffffffffffffffffffff16146105cb576040517f08c379a00000000000000000000000000000000000000000000000000000000081526004016105c290611c2d565b60405180910390fd5b6000600560008373ffffffffffffffffffffffffffffffffffffffff1673ffffffffffffffffffffffffffffffffffffffff16815260200190815260200160002060006101000a81548160ff02191690831515021790555050565b61062e61158d565b73ffffffffffffffffffffffffffffffffffffffff1661064c6106ae565b73ffffffffffffffffffffffffffffffffffffffff16146106a2576040517f08c379a000000000000000000000000000000000000000000000000000000000815260040161069990611c99565b60405180910390fd5b6106ac6000611595565b565b6000600460009054906101000a900473ffffffffffffffffffffffffffffffffffffffff16905090565b6106e061158d565b73ffffffffffffffffffffffffffffffffffffffff166106fe6106ae565b73ffffffffffffffffffffffffffffffffffffffff1614610754576040517f08c379a000000000000000000000000000000000000000000000000000000000815260040161074b90611c99565b60405180910390fd5b806000806101000a81548173ffffffffffffffffffffffffffffffffffffffff021916908373ffffffffffffffffffffffffffffffffffffffff16021790555050565b600660009054906101000a900473ffffffffffffffffffffffffffffffffffffffff1673ffffffffffffffffffffffffffffffffffffffff163373ffffffffffffffffffffffffffffffffffffffff1614610827576040517f08c379a000000000000000000000000000000000000000000000000000000000815260040161081e90611c2d565b60405180910390fd5b6001600560008373ffffffffffffffffffffffffffffffffffffffff1673ffffffffffffffffffffffffffffffffffffffff16815260200190815260200160002060006101000a81548160ff02191690831515021790555050565b600b5481565b60095481565b600760009054906101000a900473ffffffffffffffffffffffffffffffffffffffff1673ffffffffffffffffffffffffffffffffffffffff163373ffffffffffffffffffffffffffffffffffffffff161461091e576040517f08c379a000000000000000000000000000000000000000000000000000000000815260040161091590611d2b565b60405180910390fd5b600760009054906101000a900473ffffffffffffffffffffffffffffffffffffffff1673ffffffffffffffffffffffffffffffffffffffff16600660009054906101000a900473ffffffffffffffffffffffffffffffffffffffff1673ffffffffffffffffffffffffffffffffffffffff167f02ad39e5173f89bdd5497202bd74024b5da045106c3163ddb078d2e89ff6d6de60405160405180910390a3600760009054906101000a900473ffffffffffffffffffffffffffffffffffffffff16600660006101000a81548173ffffffffffffffffffffffffffffffffffffffff021916908373ffffffffffffffffffffffffffffffffffffffff1602179055506000600760006101000a81548173ffffffffffffffffffffffffffffffffffffffff021916908373ffffffffffffffffffffffffffffffffffffffff160217905550565b600a5481565b6000604051602001610a7a90611da2565b6040516020818303038152906040528051906020012082604051602001610aa19190611de8565b604051602081830303815290604052805190602001201480610b0c5750604051602001610acd90611e4b565b6040516020818303038152906040528051906020012082604051602001610af49190611de8565b60405160208183030381529060405280519060200120145b80610b605750604051602001610b2190611eac565b6040516020818303038152906040528051906020012082604051602001610b489190611de8565b60405160208183030381529060405280519060200120145b610b9f576040517f08c379a0000000000000000000000000000000000000000000000000000000008152600401610b9690611f0d565b60405180910390fd5b604051602001610bae90611da2565b6040516020818303038152906040528051906020012082604051602001610bd59190611de8565b6040516020818303038152906040528051906020012003610e1a5760008054906101000a900473ffffffffffffffffffffffffffffffffffffffff1673ffffffffffffffffffffffffffffffffffffffff166323b872dd33610c356106ae565b6009546040518463ffffffff1660e01b8152600401610c5693929190611f2d565b6020604051808303816000875af1158015610c75573d6000803e3d6000fd5b505050506040513d601f19601f82011682018060405250810190610c999190611f90565b50600c60009054906101000a900473ffffffffffffffffffffffffffffffffffffffff1673ffffffffffffffffffffffffffffffffffffffff16631f29e9fc836040518263ffffffff1660e01b8152600401610cf59190611fbd565b6020604051808303816000875af1158015610d14573d6000803e3d6000fd5b505050506040513d601f19601f82011682018060405250810190610d389190611ff4565b905060405180606001604052808281526020013373ffffffffffffffffffffffffffffffffffffffff16815260200160016003811115610d7b57610d7a61178d565b5b815250600160008381526020019081526020016000206000820151816000015560208201518160010160006101000a81548173ffffffffffffffffffffffffffffffffffffffff021916908373ffffffffffffffffffffffffffffffffffffffff16021790555060408201518160010160146101000a81548160ff02191690836003811115610e0d57610e0c61178d565b5b021790555090505061130d565b604051602001610e2990611e4b565b6040516020818303038152906040528051906020012082604051602001610e509190611de8565b60405160208183030381529060405280519060200120036110955760008054906101000a900473ffffffffffffffffffffffffffffffffffffffff1673ffffffffffffffffffffffffffffffffffffffff166323b872dd33610eb06106ae565b600a546040518463ffffffff1660e01b8152600401610ed193929190611f2d565b6020604051808303816000875af1158015610ef0573d6000803e3d6000fd5b505050506040513d601f19601f82011682018060405250810190610f149190611f90565b50600c60009054906101000a900473ffffffffffffffffffffffffffffffffffffffff1673ffffffffffffffffffffffffffffffffffffffff16631f29e9fc836040518263ffffffff1660e01b8152600401610f709190611fbd565b6020604051808303816000875af1158015610f8f573d6000803e3d6000fd5b505050506040513d601f19601f82011682018060405250810190610fb39190611ff4565b905060405180606001604052808281526020013373ffffffffffffffffffffffffffffffffffffffff16815260200160026003811115610ff657610ff561178d565b5b815250600160008381526020019081526020016000206000820151816000015560208201518160010160006101000a81548173ffffffffffffffffffffffffffffffffffffffff021916908373ffffffffffffffffffffffffffffffffffffffff16021790555060408201518160010160146101000a81548160ff021916908360038111156110885761108761178d565b5b021790555090505061130c565b6040516020016110a490611eac565b60405160208183030381529060405280519060200120826040516020016110cb9190611de8565b604051602081830303815290604052805190602001200361130b5760008054906101000a900473ffffffffffffffffffffffffffffffffffffffff1673ffffffffffffffffffffffffffffffffffffffff166323b872dd3361112b6106ae565b600b546040518463ffffffff1660e01b815260040161114c93929190611f2d565b6020604051808303816000875af115801561116b573d6000803e3d6000fd5b505050506040513d601f19601f8201168201806040525081019061118f9190611f90565b50600c60009054906101000a900473ffffffffffffffffffffffffffffffffffffffff1673ffffffffffffffffffffffffffffffffffffffff16631f29e9fc836040518263ffffffff1660e01b81526004016111eb9190611fbd565b6020604051808303816000875af115801561120a573d6000803e3d6000fd5b505050506040513d601f19601f8201168201806040525081019061122e9190611ff4565b905060405180606001604052808281526020013373ffffffffffffffffffffffffffffffffffffffff1681526020016003808111156112705761126f61178d565b5b815250600160008381526020019081526020016000206000820151816000015560208201518160010160006101000a81548173ffffffffffffffffffffffffffffffffffffffff021916908373ffffffffffffffffffffffffffffffffffffffff16021790555060408201518160010160146101000a81548160ff021916908360038111156113025761130161178d565b5b02179055509050505b5b5b3373ffffffffffffffffffffffffffffffffffffffff167f1db2f8d3844c137e9a42d6083e0d6d79f46718a5b5f1df7504c174630c01bc108284604051611355929190612021565b60405180910390a25050565b600760009054906101000a900473ffffffffffffffffffffffffffffffffffffffff1681565b60026020528060005260406000206000915090508060000154908060010180546113b090612080565b80601f01602080910402602001604051908101604052809291908181526020018280546113dc90612080565b80156114295780601f106113fe57610100808354040283529160200191611429565b820191906000526020600020905b81548152906001019060200180831161140c57829003601f168201915b5050505050908060020160009054906101000a900460ff16905083565b600860009054906101000a900473ffffffffffffffffffffffffffffffffffffffff1681565b6000600660009054906101000a900473ffffffffffffffffffffffffffffffffffffffff16905090565b61149e61158d565b73ffffffffffffffffffffffffffffffffffffffff166114bc6106ae565b73ffffffffffffffffffffffffffffffffffffffff1614611512576040517f08c379a000000000000000000000000000000000000000000000000000000000815260040161150990611c99565b60405180910390fd5b600073ffffffffffffffffffffffffffffffffffffffff168173ffffffffffffffffffffffffffffffffffffffff1603611581576040517f08c379a000000000000000000000000000000000000000000000000000000000815260040161157890612123565b60405180910390fd5b61158a81611595565b50565b600033905090565b6000600460009054906101000a900473ffffffffffffffffffffffffffffffffffffffff16905081600460006101000a81548173ffffffffffffffffffffffffffffffffffffffff021916908373ffffffffffffffffffffffffffffffffffffffff1602179055508173ffffffffffffffffffffffffffffffffffffffff168173ffffffffffffffffffffffffffffffffffffffff167f8be0079c531659141344cd1fd0a4f28419497f9722a3daafe3b4186f6b6457e060405160405180910390a35050565b600073ffffffffffffffffffffffffffffffffffffffff82169050919050565b6000819050919050565b60006116a061169b6116968461165b565b61167b565b61165b565b9050919050565b60006116b282611685565b9050919050565b60006116c4826116a7565b9050919050565b6116d4816116b9565b82525050565b60006020820190506116ef60008301846116cb565b92915050565b6000604051905090565b600080fd5b600080fd5b6000819050919050565b61171c81611709565b811461172757600080fd5b50565b60008135905061173981611713565b92915050565b600060208284031215611755576117546116ff565b5b60006117638482850161172a565b91505092915050565b60006117778261165b565b9050919050565b6117878161176c565b82525050565b7f4e487b7100000000000000000000000000000000000000000000000000000000600052602160045260246000fd5b600481106117cd576117cc61178d565b5b50565b60008190506117de826117bc565b919050565b60006117ee826117d0565b9050919050565b6117fe816117e3565b82525050565b6000604082019050611819600083018561177e565b61182660208301846117f5565b9392505050565b60007fffffffff0000000000000000000000000000000000000000000000000000000082169050919050565b6118628161182d565b82525050565b600060208201905061187d6000830184611859565b92915050565b61188c81611709565b82525050565b60006060820190506118a76000830186611883565b6118b4602083018561177e565b6118c160408301846117f5565b949350505050565b6118d28161176c565b81146118dd57600080fd5b50565b6000813590506118ef816118c9565b92915050565b60006020828403121561190b5761190a6116ff565b5b6000611919848285016118e0565b91505092915050565b6000602082019050611937600083018461177e565b92915050565b60006020820190506119526000830184611883565b92915050565b600080fd5b600080fd5b6000601f19601f8301169050919050565b7f4e487b7100000000000000000000000000000000000000000000000000000000600052604160045260246000fd5b6119ab82611962565b810181811067ffffffffffffffff821117156119ca576119c9611973565b5b80604052505050565b60006119dd6116f5565b90506119e982826119a2565b919050565b600067ffffffffffffffff821115611a0957611a08611973565b5b611a1282611962565b9050602081019050919050565b82818337600083830152505050565b6000611a41611a3c846119ee565b6119d3565b905082815260208101848484011115611a5d57611a5c61195d565b5b611a68848285611a1f565b509392505050565b600082601f830112611a8557611a84611958565b5b8135611a95848260208601611a2e565b91505092915050565b600060208284031215611ab457611ab36116ff565b5b600082013567ffffffffffffffff811115611ad257611ad1611704565b5b611ade84828501611a70565b91505092915050565b6000819050919050565b611afa81611ae7565b82525050565b600081519050919050565b600082825260208201905092915050565b60005b83811015611b3a578082015181840152602081019050611b1f565b83811115611b49576000848401525b50505050565b6000611b5a82611b00565b611b648185611b0b565b9350611b74818560208601611b1c565b611b7d81611962565b840191505092915050565b60008115159050919050565b611b9d81611b88565b82525050565b6000606082019050611bb86000830186611af1565b8181036020830152611bca8185611b4f565b9050611bd96040830184611b94565b949350505050565b7f63616c6c6572206e6f742061206d696e7465722061646d696e00000000000000600082015250565b6000611c17601983611b0b565b9150611c2282611be1565b602082019050919050565b60006020820190508181036000830152611c4681611c0a565b9050919050565b7f4f776e61626c653a2063616c6c6572206973206e6f7420746865206f776e6572600082015250565b6000611c83602083611b0b565b9150611c8e82611c4d565b602082019050919050565b60006020820190508181036000830152611cb281611c76565b9050919050565b7f63616c6c6572206e6f7420612070656e64696e67206d696e7465722061646d6960008201527f6e00000000000000000000000000000000000000000000000000000000000000602082015250565b6000611d15602183611b0b565b9150611d2082611cb9565b604082019050919050565b60006020820190508181036000830152611d4481611d08565b9050919050565b600081905092915050565b7f42524f4e5a450000000000000000000000000000000000000000000000000000600082015250565b6000611d8c600683611d4b565b9150611d9782611d56565b600682019050919050565b6000611dad82611d7f565b9150819050919050565b6000611dc282611b00565b611dcc8185611d4b565b9350611ddc818560208601611b1c565b80840191505092915050565b6000611df48284611db7565b915081905092915050565b7f53494c5645520000000000000000000000000000000000000000000000000000600082015250565b6000611e35600683611d4b565b9150611e4082611dff565b600682019050919050565b6000611e5682611e28565b9150819050919050565b7f474f4c4400000000000000000000000000000000000000000000000000000000600082015250565b6000611e96600483611d4b565b9150611ea182611e60565b600482019050919050565b6000611eb782611e89565b9150819050919050565b7f4974656d27732074797065206973206e6f742076616c69640000000000000000600082015250565b6000611ef7601883611b0b565b9150611f0282611ec1565b602082019050919050565b60006020820190508181036000830152611f2681611eea565b9050919050565b6000606082019050611f42600083018661177e565b611f4f602083018561177e565b611f5c6040830184611883565b949350505050565b611f6d81611b88565b8114611f7857600080fd5b50565b600081519050611f8a81611f64565b92915050565b600060208284031215611fa657611fa56116ff565b5b6000611fb484828501611f7b565b91505092915050565b60006020820190508181036000830152611fd78184611b4f565b905092915050565b600081519050611fee81611713565b92915050565b60006020828403121561200a576120096116ff565b5b600061201884828501611fdf565b91505092915050565b60006040820190506120366000830185611883565b81810360208301526120488184611b4f565b90509392505050565b7f4e487b7100000000000000000000000000000000000000000000000000000000600052602260045260246000fd5b6000600282049050600182168061209857607f821691505b6020821081036120ab576120aa612051565b5b50919050565b7f4f776e61626c653a206e6577206f776e657220697320746865207a65726f206160008201527f6464726573730000000000000000000000000000000000000000000000000000602082015250565b600061210d602683611b0b565b9150612118826120b1565b604082019050919050565b6000602082019050818103600083015261213c81612100565b905091905056fea2646970667358221220309ba38340a3b3b1e11e15d0ec1c2368f05da679192813305efc4cc27e2cb13864736f6c634300080d0033",
					"opcodes": "PUSH1 0x80 PUSH1 0x40 MSTORE CALLVALUE DUP1 ISZERO PUSH3 0x11 JUMPI PUSH1 0x0 DUP1 REVERT JUMPDEST POP PUSH1 0x40 MLOAD PUSH3 0x2591 CODESIZE SUB DUP1 PUSH3 0x2591 DUP4 CODECOPY DUP2 DUP2 ADD PUSH1 0x40 MSTORE DUP2 ADD SWAP1 PUSH3 0x37 SWAP2 SWAP1 PUSH3 0x353 JUMP JUMPDEST PUSH3 0x57 PUSH3 0x4B PUSH3 0x21B PUSH1 0x20 SHL PUSH1 0x20 SHR JUMP JUMPDEST PUSH3 0x223 PUSH1 0x20 SHL PUSH1 0x20 SHR JUMP JUMPDEST CALLER PUSH1 0x6 PUSH1 0x0 PUSH2 0x100 EXP DUP2 SLOAD DUP2 PUSH20 0xFFFFFFFFFFFFFFFFFFFFFFFFFFFFFFFFFFFFFFFF MUL NOT AND SWAP1 DUP4 PUSH20 0xFFFFFFFFFFFFFFFFFFFFFFFFFFFFFFFFFFFFFFFF AND MUL OR SWAP1 SSTORE POP PUSH1 0x1 PUSH1 0x5 PUSH1 0x0 CALLER PUSH20 0xFFFFFFFFFFFFFFFFFFFFFFFFFFFFFFFFFFFFFFFF AND PUSH20 0xFFFFFFFFFFFFFFFFFFFFFFFFFFFFFFFFFFFFFFFF AND DUP2 MSTORE PUSH1 0x20 ADD SWAP1 DUP2 MSTORE PUSH1 0x20 ADD PUSH1 0x0 KECCAK256 PUSH1 0x0 PUSH2 0x100 EXP DUP2 SLOAD DUP2 PUSH1 0xFF MUL NOT AND SWAP1 DUP4 ISZERO ISZERO MUL OR SWAP1 SSTORE POP PUSH1 0x0 PUSH20 0xFFFFFFFFFFFFFFFFFFFFFFFFFFFFFFFFFFFFFFFF AND DUP2 PUSH20 0xFFFFFFFFFFFFFFFFFFFFFFFFFFFFFFFFFFFFFFFF AND SUB PUSH3 0x162 JUMPI PUSH1 0x40 MLOAD PUSH32 0x8C379A000000000000000000000000000000000000000000000000000000000 DUP2 MSTORE PUSH1 0x4 ADD PUSH3 0x159 SWAP1 PUSH3 0x3E6 JUMP JUMPDEST PUSH1 0x40 MLOAD DUP1 SWAP2 SUB SWAP1 REVERT JUMPDEST DUP1 PUSH1 0xC PUSH1 0x0 PUSH2 0x100 EXP DUP2 SLOAD DUP2 PUSH20 0xFFFFFFFFFFFFFFFFFFFFFFFFFFFFFFFFFFFFFFFF MUL NOT AND SWAP1 DUP4 PUSH20 0xFFFFFFFFFFFFFFFFFFFFFFFFFFFFFFFFFFFFFFFF AND MUL OR SWAP1 SSTORE POP DUP1 PUSH1 0x8 PUSH1 0x0 PUSH2 0x100 EXP DUP2 SLOAD DUP2 PUSH20 0xFFFFFFFFFFFFFFFFFFFFFFFFFFFFFFFFFFFFFFFF MUL NOT AND SWAP1 DUP4 PUSH20 0xFFFFFFFFFFFFFFFFFFFFFFFFFFFFFFFFFFFFFFFF AND MUL OR SWAP1 SSTORE POP PUSH9 0x1B1AE4D6E2EF500000 PUSH1 0x9 DUP2 SWAP1 SSTORE POP PUSH9 0x3635C9ADC5DEA00000 PUSH1 0xA DUP2 SWAP1 SSTORE POP PUSH9 0x5150AE84A8CDF00000 PUSH1 0xB DUP2 SWAP1 SSTORE POP POP PUSH3 0x408 JUMP JUMPDEST PUSH1 0x0 CALLER SWAP1 POP SWAP1 JUMP JUMPDEST PUSH1 0x0 PUSH1 0x4 PUSH1 0x0 SWAP1 SLOAD SWAP1 PUSH2 0x100 EXP SWAP1 DIV PUSH20 0xFFFFFFFFFFFFFFFFFFFFFFFFFFFFFFFFFFFFFFFF AND SWAP1 POP DUP2 PUSH1 0x4 PUSH1 0x0 PUSH2 0x100 EXP DUP2 SLOAD DUP2 PUSH20 0xFFFFFFFFFFFFFFFFFFFFFFFFFFFFFFFFFFFFFFFF MUL NOT AND SWAP1 DUP4 PUSH20 0xFFFFFFFFFFFFFFFFFFFFFFFFFFFFFFFFFFFFFFFF AND MUL OR SWAP1 SSTORE POP DUP2 PUSH20 0xFFFFFFFFFFFFFFFFFFFFFFFFFFFFFFFFFFFFFFFF AND DUP2 PUSH20 0xFFFFFFFFFFFFFFFFFFFFFFFFFFFFFFFFFFFFFFFF AND PUSH32 0x8BE0079C531659141344CD1FD0A4F28419497F9722A3DAAFE3B4186F6B6457E0 PUSH1 0x40 MLOAD PUSH1 0x40 MLOAD DUP1 SWAP2 SUB SWAP1 LOG3 POP POP JUMP JUMPDEST PUSH1 0x0 DUP1 REVERT JUMPDEST PUSH1 0x0 PUSH20 0xFFFFFFFFFFFFFFFFFFFFFFFFFFFFFFFFFFFFFFFF DUP3 AND SWAP1 POP SWAP2 SWAP1 POP JUMP JUMPDEST PUSH1 0x0 PUSH3 0x31B DUP3 PUSH3 0x2EE JUMP JUMPDEST SWAP1 POP SWAP2 SWAP1 POP JUMP JUMPDEST PUSH3 0x32D DUP2 PUSH3 0x30E JUMP JUMPDEST DUP2 EQ PUSH3 0x339 JUMPI PUSH1 0x0 DUP1 REVERT JUMPDEST POP JUMP JUMPDEST PUSH1 0x0 DUP2 MLOAD SWAP1 POP PUSH3 0x34D DUP2 PUSH3 0x322 JUMP JUMPDEST SWAP3 SWAP2 POP POP JUMP JUMPDEST PUSH1 0x0 PUSH1 0x20 DUP3 DUP5 SUB SLT ISZERO PUSH3 0x36C JUMPI PUSH3 0x36B PUSH3 0x2E9 JUMP JUMPDEST JUMPDEST PUSH1 0x0 PUSH3 0x37C DUP5 DUP3 DUP6 ADD PUSH3 0x33C JUMP JUMPDEST SWAP2 POP POP SWAP3 SWAP2 POP POP JUMP JUMPDEST PUSH1 0x0 DUP3 DUP3 MSTORE PUSH1 0x20 DUP3 ADD SWAP1 POP SWAP3 SWAP2 POP POP JUMP JUMPDEST PUSH32 0x496E76616C696420636F6E747261637420616464726573730000000000000000 PUSH1 0x0 DUP3 ADD MSTORE POP JUMP JUMPDEST PUSH1 0x0 PUSH3 0x3CE PUSH1 0x18 DUP4 PUSH3 0x385 JUMP JUMPDEST SWAP2 POP PUSH3 0x3DB DUP3 PUSH3 0x396 JUMP JUMPDEST PUSH1 0x20 DUP3 ADD SWAP1 POP SWAP2 SWAP1 POP JUMP JUMPDEST PUSH1 0x0 PUSH1 0x20 DUP3 ADD SWAP1 POP DUP2 DUP2 SUB PUSH1 0x0 DUP4 ADD MSTORE PUSH3 0x401 DUP2 PUSH3 0x3BF JUMP JUMPDEST SWAP1 POP SWAP2 SWAP1 POP JUMP JUMPDEST PUSH2 0x2179 DUP1 PUSH3 0x418 PUSH1 0x0 CODECOPY PUSH1 0x0 RETURN INVALID PUSH1 0x80 PUSH1 0x40 MSTORE CALLVALUE DUP1 ISZERO PUSH2 0x10 JUMPI PUSH1 0x0 DUP1 REVERT JUMPDEST POP PUSH1 0x4 CALLDATASIZE LT PUSH2 0x12C JUMPI PUSH1 0x0 CALLDATALOAD PUSH1 0xE0 SHR DUP1 PUSH4 0xAA6A0DAC GT PUSH2 0xAD JUMPI DUP1 PUSH4 0xCE1D82F5 GT PUSH2 0x71 JUMPI DUP1 PUSH4 0xCE1D82F5 EQ PUSH2 0x2E8 JUMPI DUP1 PUSH4 0xD30BDAC9 EQ PUSH2 0x306 JUMPI DUP1 PUSH4 0xD56D229D EQ PUSH2 0x338 JUMPI DUP1 PUSH4 0xDB69A32D EQ PUSH2 0x356 JUMPI DUP1 PUSH4 0xF2FDE38B EQ PUSH2 0x374 JUMPI PUSH2 0x12C JUMP JUMPDEST DUP1 PUSH4 0xAA6A0DAC EQ PUSH2 0x268 JUMPI DUP1 PUSH4 0xAC4867F0 EQ PUSH2 0x286 JUMPI DUP1 PUSH4 0xAED59B8A EQ PUSH2 0x2A4 JUMPI DUP1 PUSH4 0xAF1B3D5E EQ PUSH2 0x2AE JUMPI DUP1 PUSH4 0xC04772D5 EQ PUSH2 0x2CC JUMPI PUSH2 0x12C JUMP JUMPDEST DUP1 PUSH4 0x6E722920 GT PUSH2 0xF4 JUMPI DUP1 PUSH4 0x6E722920 EQ PUSH2 0x1EC JUMPI DUP1 PUSH4 0x715018A6 EQ PUSH2 0x208 JUMPI DUP1 PUSH4 0x8DA5CB5B EQ PUSH2 0x212 JUMPI DUP1 PUSH4 0x92BF77DD EQ PUSH2 0x230 JUMPI DUP1 PUSH4 0xA15C15AF EQ PUSH2 0x24C JUMPI PUSH2 0x12C JUMP JUMPDEST DUP1 PUSH4 0x15B81DC3 EQ PUSH2 0x131 JUMPI DUP1 PUSH4 0x1F7775AD EQ PUSH2 0x14F JUMPI DUP1 PUSH4 0x2B4C32BE EQ PUSH2 0x180 JUMPI DUP1 PUSH4 0x58DD8603 EQ PUSH2 0x19E JUMPI DUP1 PUSH4 0x6D4D0C57 EQ PUSH2 0x1D0 JUMPI JUMPDEST PUSH1 0x0 DUP1 REVERT JUMPDEST PUSH2 0x139 PUSH2 0x390 JUMP JUMPDEST PUSH1 0x40 MLOAD PUSH2 0x146 SWAP2 SWAP1 PUSH2 0x16DA JUMP JUMPDEST PUSH1 0x40 MLOAD DUP1 SWAP2 SUB SWAP1 RETURN JUMPDEST PUSH2 0x169 PUSH1 0x4 DUP1 CALLDATASIZE SUB DUP2 ADD SWAP1 PUSH2 0x164 SWAP2 SWAP1 PUSH2 0x173F JUMP JUMPDEST PUSH2 0x3B4 JUMP JUMPDEST PUSH1 0x40 MLOAD PUSH2 0x177 SWAP3 SWAP2 SWAP1 PUSH2 0x1804 JUMP JUMPDEST PUSH1 0x40 MLOAD DUP1 SWAP2 SUB SWAP1 RETURN JUMPDEST PUSH2 0x188 PUSH2 0x405 JUMP JUMPDEST PUSH1 0x40 MLOAD PUSH2 0x195 SWAP2 SWAP1 PUSH2 0x1868 JUMP JUMPDEST PUSH1 0x40 MLOAD DUP1 SWAP2 SUB SWAP1 RETURN JUMPDEST PUSH2 0x1B8 PUSH1 0x4 DUP1 CALLDATASIZE SUB DUP2 ADD SWAP1 PUSH2 0x1B3 SWAP2 SWAP1 PUSH2 0x173F JUMP JUMPDEST PUSH2 0x410 JUMP JUMPDEST PUSH1 0x40 MLOAD PUSH2 0x1C7 SWAP4 SWAP3 SWAP2 SWAP1 PUSH2 0x1892 JUMP JUMPDEST PUSH1 0x40 MLOAD DUP1 SWAP2 SUB SWAP1 RETURN JUMPDEST PUSH2 0x1EA PUSH1 0x4 DUP1 CALLDATASIZE SUB DUP2 ADD SWAP1 PUSH2 0x1E5 SWAP2 SWAP1 PUSH2 0x18F5 JUMP JUMPDEST PUSH2 0x467 JUMP JUMPDEST STOP JUMPDEST PUSH2 0x206 PUSH1 0x4 DUP1 CALLDATASIZE SUB DUP2 ADD SWAP1 PUSH2 0x201 SWAP2 SWAP1 PUSH2 0x18F5 JUMP JUMPDEST PUSH2 0x53B JUMP JUMPDEST STOP JUMPDEST PUSH2 0x210 PUSH2 0x626 JUMP JUMPDEST STOP JUMPDEST PUSH2 0x21A PUSH2 0x6AE JUMP JUMPDEST PUSH1 0x40 MLOAD PUSH2 0x227 SWAP2 SWAP1 PUSH2 0x1922 JUMP JUMPDEST PUSH1 0x40 MLOAD DUP1 SWAP2 SUB SWAP1 RETURN JUMPDEST PUSH2 0x24A PUSH1 0x4 DUP1 CALLDATASIZE SUB DUP2 ADD SWAP1 PUSH2 0x245 SWAP2 SWAP1 PUSH2 0x18F5 JUMP JUMPDEST PUSH2 0x6D8 JUMP JUMPDEST STOP JUMPDEST PUSH2 0x266 PUSH1 0x4 DUP1 CALLDATASIZE SUB DUP2 ADD SWAP1 PUSH2 0x261 SWAP2 SWAP1 PUSH2 0x18F5 JUMP JUMPDEST PUSH2 0x797 JUMP JUMPDEST STOP JUMPDEST PUSH2 0x270 PUSH2 0x882 JUMP JUMPDEST PUSH1 0x40 MLOAD PUSH2 0x27D SWAP2 SWAP1 PUSH2 0x193D JUMP JUMPDEST PUSH1 0x40 MLOAD DUP1 SWAP2 SUB SWAP1 RETURN JUMPDEST PUSH2 0x28E PUSH2 0x888 JUMP JUMPDEST PUSH1 0x40 MLOAD PUSH2 0x29B SWAP2 SWAP1 PUSH2 0x193D JUMP JUMPDEST PUSH1 0x40 MLOAD DUP1 SWAP2 SUB SWAP1 RETURN JUMPDEST PUSH2 0x2AC PUSH2 0x88E JUMP JUMPDEST STOP JUMPDEST PUSH2 0x2B6 PUSH2 0xA63 JUMP JUMPDEST PUSH1 0x40 MLOAD PUSH2 0x2C3 SWAP2 SWAP1 PUSH2 0x193D JUMP JUMPDEST PUSH1 0x40 MLOAD DUP1 SWAP2 SUB SWAP1 RETURN JUMPDEST PUSH2 0x2E6 PUSH1 0x4 DUP1 CALLDATASIZE SUB DUP2 ADD SWAP1 PUSH2 0x2E1 SWAP2 SWAP1 PUSH2 0x1A9E JUMP JUMPDEST PUSH2 0xA69 JUMP JUMPDEST STOP JUMPDEST PUSH2 0x2F0 PUSH2 0x1361 JUMP JUMPDEST PUSH1 0x40 MLOAD PUSH2 0x2FD SWAP2 SWAP1 PUSH2 0x1922 JUMP JUMPDEST PUSH1 0x40 MLOAD DUP1 SWAP2 SUB SWAP1 RETURN JUMPDEST PUSH2 0x320 PUSH1 0x4 DUP1 CALLDATASIZE SUB DUP2 ADD SWAP1 PUSH2 0x31B SWAP2 SWAP1 PUSH2 0x173F JUMP JUMPDEST PUSH2 0x1387 JUMP JUMPDEST PUSH1 0x40 MLOAD PUSH2 0x32F SWAP4 SWAP3 SWAP2 SWAP1 PUSH2 0x1BA3 JUMP JUMPDEST PUSH1 0x40 MLOAD DUP1 SWAP2 SUB SWAP1 RETURN JUMPDEST PUSH2 0x340 PUSH2 0x1446 JUMP JUMPDEST PUSH1 0x40 MLOAD PUSH2 0x34D SWAP2 SWAP1 PUSH2 0x1922 JUMP JUMPDEST PUSH1 0x40 MLOAD DUP1 SWAP2 SUB SWAP1 RETURN JUMPDEST PUSH2 0x35E PUSH2 0x146C JUMP JUMPDEST PUSH1 0x40 MLOAD PUSH2 0x36B SWAP2 SWAP1 PUSH2 0x1922 JUMP JUMPDEST PUSH1 0x40 MLOAD DUP1 SWAP2 SUB SWAP1 RETURN JUMPDEST PUSH2 0x38E PUSH1 0x4 DUP1 CALLDATASIZE SUB DUP2 ADD SWAP1 PUSH2 0x389 SWAP2 SWAP1 PUSH2 0x18F5 JUMP JUMPDEST PUSH2 0x1496 JUMP JUMPDEST STOP JUMPDEST PUSH1 0x0 DUP1 SLOAD SWAP1 PUSH2 0x100 EXP SWAP1 DIV PUSH20 0xFFFFFFFFFFFFFFFFFFFFFFFFFFFFFFFFFFFFFFFF AND DUP2 JUMP JUMPDEST PUSH1 0x3 PUSH1 0x20 MSTORE DUP1 PUSH1 0x0 MSTORE PUSH1 0x40 PUSH1 0x0 KECCAK256 PUSH1 0x0 SWAP2 POP SWAP1 POP DUP1 PUSH1 0x0 ADD PUSH1 0x0 SWAP1 SLOAD SWAP1 PUSH2 0x100 EXP SWAP1 DIV PUSH20 0xFFFFFFFFFFFFFFFFFFFFFFFFFFFFFFFFFFFFFFFF AND SWAP1 DUP1 PUSH1 0x0 ADD PUSH1 0x14 SWAP1 SLOAD SWAP1 PUSH2 0x100 EXP SWAP1 DIV PUSH1 0xFF AND SWAP1 POP DUP3 JUMP JUMPDEST PUSH4 0x80AC58CD PUSH1 0xE0 SHL DUP2 JUMP JUMPDEST PUSH1 0x1 PUSH1 0x20 MSTORE DUP1 PUSH1 0x0 MSTORE PUSH1 0x40 PUSH1 0x0 KECCAK256 PUSH1 0x0 SWAP2 POP SWAP1 POP DUP1 PUSH1 0x0 ADD SLOAD SWAP1 DUP1 PUSH1 0x1 ADD PUSH1 0x0 SWAP1 SLOAD SWAP1 PUSH2 0x100 EXP SWAP1 DIV PUSH20 0xFFFFFFFFFFFFFFFFFFFFFFFFFFFFFFFFFFFFFFFF AND SWAP1 DUP1 PUSH1 0x1 ADD PUSH1 0x14 SWAP1 SLOAD SWAP1 PUSH2 0x100 EXP SWAP1 DIV PUSH1 0xFF AND SWAP1 POP DUP4 JUMP JUMPDEST PUSH1 0x6 PUSH1 0x0 SWAP1 SLOAD SWAP1 PUSH2 0x100 EXP SWAP1 DIV PUSH20 0xFFFFFFFFFFFFFFFFFFFFFFFFFFFFFFFFFFFFFFFF AND PUSH20 0xFFFFFFFFFFFFFFFFFFFFFFFFFFFFFFFFFFFFFFFF AND CALLER PUSH20 0xFFFFFFFFFFFFFFFFFFFFFFFFFFFFFFFFFFFFFFFF AND EQ PUSH2 0x4F7 JUMPI PUSH1 0x40 MLOAD PUSH32 0x8C379A000000000000000000000000000000000000000000000000000000000 DUP2 MSTORE PUSH1 0x4 ADD PUSH2 0x4EE SWAP1 PUSH2 0x1C2D JUMP JUMPDEST PUSH1 0x40 MLOAD DUP1 SWAP2 SUB SWAP1 REVERT JUMPDEST DUP1 PUSH1 0x7 PUSH1 0x0 PUSH2 0x100 EXP DUP2 SLOAD DUP2 PUSH20 0xFFFFFFFFFFFFFFFFFFFFFFFFFFFFFFFFFFFFFFFF MUL NOT AND SWAP1 DUP4 PUSH20 0xFFFFFFFFFFFFFFFFFFFFFFFFFFFFFFFFFFFFFFFF AND MUL OR SWAP1 SSTORE POP POP JUMP JUMPDEST PUSH1 0x6 PUSH1 0x0 SWAP1 SLOAD SWAP1 PUSH2 0x100 EXP SWAP1 DIV PUSH20 0xFFFFFFFFFFFFFFFFFFFFFFFFFFFFFFFFFFFFFFFF AND PUSH20 0xFFFFFFFFFFFFFFFFFFFFFFFFFFFFFFFFFFFFFFFF AND CALLER PUSH20 0xFFFFFFFFFFFFFFFFFFFFFFFFFFFFFFFFFFFFFFFF AND EQ PUSH2 0x5CB JUMPI PUSH1 0x40 MLOAD PUSH32 0x8C379A000000000000000000000000000000000000000000000000000000000 DUP2 MSTORE PUSH1 0x4 ADD PUSH2 0x5C2 SWAP1 PUSH2 0x1C2D JUMP JUMPDEST PUSH1 0x40 MLOAD DUP1 SWAP2 SUB SWAP1 REVERT JUMPDEST PUSH1 0x0 PUSH1 0x5 PUSH1 0x0 DUP4 PUSH20 0xFFFFFFFFFFFFFFFFFFFFFFFFFFFFFFFFFFFFFFFF AND PUSH20 0xFFFFFFFFFFFFFFFFFFFFFFFFFFFFFFFFFFFFFFFF AND DUP2 MSTORE PUSH1 0x20 ADD SWAP1 DUP2 MSTORE PUSH1 0x20 ADD PUSH1 0x0 KECCAK256 PUSH1 0x0 PUSH2 0x100 EXP DUP2 SLOAD DUP2 PUSH1 0xFF MUL NOT AND SWAP1 DUP4 ISZERO ISZERO MUL OR SWAP1 SSTORE POP POP JUMP JUMPDEST PUSH2 0x62E PUSH2 0x158D JUMP JUMPDEST PUSH20 0xFFFFFFFFFFFFFFFFFFFFFFFFFFFFFFFFFFFFFFFF AND PUSH2 0x64C PUSH2 0x6AE JUMP JUMPDEST PUSH20 0xFFFFFFFFFFFFFFFFFFFFFFFFFFFFFFFFFFFFFFFF AND EQ PUSH2 0x6A2 JUMPI PUSH1 0x40 MLOAD PUSH32 0x8C379A000000000000000000000000000000000000000000000000000000000 DUP2 MSTORE PUSH1 0x4 ADD PUSH2 0x699 SWAP1 PUSH2 0x1C99 JUMP JUMPDEST PUSH1 0x40 MLOAD DUP1 SWAP2 SUB SWAP1 REVERT JUMPDEST PUSH2 0x6AC PUSH1 0x0 PUSH2 0x1595 JUMP JUMPDEST JUMP JUMPDEST PUSH1 0x0 PUSH1 0x4 PUSH1 0x0 SWAP1 SLOAD SWAP1 PUSH2 0x100 EXP SWAP1 DIV PUSH20 0xFFFFFFFFFFFFFFFFFFFFFFFFFFFFFFFFFFFFFFFF AND SWAP1 POP SWAP1 JUMP JUMPDEST PUSH2 0x6E0 PUSH2 0x158D JUMP JUMPDEST PUSH20 0xFFFFFFFFFFFFFFFFFFFFFFFFFFFFFFFFFFFFFFFF AND PUSH2 0x6FE PUSH2 0x6AE JUMP JUMPDEST PUSH20 0xFFFFFFFFFFFFFFFFFFFFFFFFFFFFFFFFFFFFFFFF AND EQ PUSH2 0x754 JUMPI PUSH1 0x40 MLOAD PUSH32 0x8C379A000000000000000000000000000000000000000000000000000000000 DUP2 MSTORE PUSH1 0x4 ADD PUSH2 0x74B SWAP1 PUSH2 0x1C99 JUMP JUMPDEST PUSH1 0x40 MLOAD DUP1 SWAP2 SUB SWAP1 REVERT JUMPDEST DUP1 PUSH1 0x0 DUP1 PUSH2 0x100 EXP DUP2 SLOAD DUP2 PUSH20 0xFFFFFFFFFFFFFFFFFFFFFFFFFFFFFFFFFFFFFFFF MUL NOT AND SWAP1 DUP4 PUSH20 0xFFFFFFFFFFFFFFFFFFFFFFFFFFFFFFFFFFFFFFFF AND MUL OR SWAP1 SSTORE POP POP JUMP JUMPDEST PUSH1 0x6 PUSH1 0x0 SWAP1 SLOAD SWAP1 PUSH2 0x100 EXP SWAP1 DIV PUSH20 0xFFFFFFFFFFFFFFFFFFFFFFFFFFFFFFFFFFFFFFFF AND PUSH20 0xFFFFFFFFFFFFFFFFFFFFFFFFFFFFFFFFFFFFFFFF AND CALLER PUSH20 0xFFFFFFFFFFFFFFFFFFFFFFFFFFFFFFFFFFFFFFFF AND EQ PUSH2 0x827 JUMPI PUSH1 0x40 MLOAD PUSH32 0x8C379A000000000000000000000000000000000000000000000000000000000 DUP2 MSTORE PUSH1 0x4 ADD PUSH2 0x81E SWAP1 PUSH2 0x1C2D JUMP JUMPDEST PUSH1 0x40 MLOAD DUP1 SWAP2 SUB SWAP1 REVERT JUMPDEST PUSH1 0x1 PUSH1 0x5 PUSH1 0x0 DUP4 PUSH20 0xFFFFFFFFFFFFFFFFFFFFFFFFFFFFFFFFFFFFFFFF AND PUSH20 0xFFFFFFFFFFFFFFFFFFFFFFFFFFFFFFFFFFFFFFFF AND DUP2 MSTORE PUSH1 0x20 ADD SWAP1 DUP2 MSTORE PUSH1 0x20 ADD PUSH1 0x0 KECCAK256 PUSH1 0x0 PUSH2 0x100 EXP DUP2 SLOAD DUP2 PUSH1 0xFF MUL NOT AND SWAP1 DUP4 ISZERO ISZERO MUL OR SWAP1 SSTORE POP POP JUMP JUMPDEST PUSH1 0xB SLOAD DUP2 JUMP JUMPDEST PUSH1 0x9 SLOAD DUP2 JUMP JUMPDEST PUSH1 0x7 PUSH1 0x0 SWAP1 SLOAD SWAP1 PUSH2 0x100 EXP SWAP1 DIV PUSH20 0xFFFFFFFFFFFFFFFFFFFFFFFFFFFFFFFFFFFFFFFF AND PUSH20 0xFFFFFFFFFFFFFFFFFFFFFFFFFFFFFFFFFFFFFFFF AND CALLER PUSH20 0xFFFFFFFFFFFFFFFFFFFFFFFFFFFFFFFFFFFFFFFF AND EQ PUSH2 0x91E JUMPI PUSH1 0x40 MLOAD PUSH32 0x8C379A000000000000000000000000000000000000000000000000000000000 DUP2 MSTORE PUSH1 0x4 ADD PUSH2 0x915 SWAP1 PUSH2 0x1D2B JUMP JUMPDEST PUSH1 0x40 MLOAD DUP1 SWAP2 SUB SWAP1 REVERT JUMPDEST PUSH1 0x7 PUSH1 0x0 SWAP1 SLOAD SWAP1 PUSH2 0x100 EXP SWAP1 DIV PUSH20 0xFFFFFFFFFFFFFFFFFFFFFFFFFFFFFFFFFFFFFFFF AND PUSH20 0xFFFFFFFFFFFFFFFFFFFFFFFFFFFFFFFFFFFFFFFF AND PUSH1 0x6 PUSH1 0x0 SWAP1 SLOAD SWAP1 PUSH2 0x100 EXP SWAP1 DIV PUSH20 0xFFFFFFFFFFFFFFFFFFFFFFFFFFFFFFFFFFFFFFFF AND PUSH20 0xFFFFFFFFFFFFFFFFFFFFFFFFFFFFFFFFFFFFFFFF AND PUSH32 0x2AD39E5173F89BDD5497202BD74024B5DA045106C3163DDB078D2E89FF6D6DE PUSH1 0x40 MLOAD PUSH1 0x40 MLOAD DUP1 SWAP2 SUB SWAP1 LOG3 PUSH1 0x7 PUSH1 0x0 SWAP1 SLOAD SWAP1 PUSH2 0x100 EXP SWAP1 DIV PUSH20 0xFFFFFFFFFFFFFFFFFFFFFFFFFFFFFFFFFFFFFFFF AND PUSH1 0x6 PUSH1 0x0 PUSH2 0x100 EXP DUP2 SLOAD DUP2 PUSH20 0xFFFFFFFFFFFFFFFFFFFFFFFFFFFFFFFFFFFFFFFF MUL NOT AND SWAP1 DUP4 PUSH20 0xFFFFFFFFFFFFFFFFFFFFFFFFFFFFFFFFFFFFFFFF AND MUL OR SWAP1 SSTORE POP PUSH1 0x0 PUSH1 0x7 PUSH1 0x0 PUSH2 0x100 EXP DUP2 SLOAD DUP2 PUSH20 0xFFFFFFFFFFFFFFFFFFFFFFFFFFFFFFFFFFFFFFFF MUL NOT AND SWAP1 DUP4 PUSH20 0xFFFFFFFFFFFFFFFFFFFFFFFFFFFFFFFFFFFFFFFF AND MUL OR SWAP1 SSTORE POP JUMP JUMPDEST PUSH1 0xA SLOAD DUP2 JUMP JUMPDEST PUSH1 0x0 PUSH1 0x40 MLOAD PUSH1 0x20 ADD PUSH2 0xA7A SWAP1 PUSH2 0x1DA2 JUMP JUMPDEST PUSH1 0x40 MLOAD PUSH1 0x20 DUP2 DUP4 SUB SUB DUP2 MSTORE SWAP1 PUSH1 0x40 MSTORE DUP1 MLOAD SWAP1 PUSH1 0x20 ADD KECCAK256 DUP3 PUSH1 0x40 MLOAD PUSH1 0x20 ADD PUSH2 0xAA1 SWAP2 SWAP1 PUSH2 0x1DE8 JUMP JUMPDEST PUSH1 0x40 MLOAD PUSH1 0x20 DUP2 DUP4 SUB SUB DUP2 MSTORE SWAP1 PUSH1 0x40 MSTORE DUP1 MLOAD SWAP1 PUSH1 0x20 ADD KECCAK256 EQ DUP1 PUSH2 0xB0C JUMPI POP PUSH1 0x40 MLOAD PUSH1 0x20 ADD PUSH2 0xACD SWAP1 PUSH2 0x1E4B JUMP JUMPDEST PUSH1 0x40 MLOAD PUSH1 0x20 DUP2 DUP4 SUB SUB DUP2 MSTORE SWAP1 PUSH1 0x40 MSTORE DUP1 MLOAD SWAP1 PUSH1 0x20 ADD KECCAK256 DUP3 PUSH1 0x40 MLOAD PUSH1 0x20 ADD PUSH2 0xAF4 SWAP2 SWAP1 PUSH2 0x1DE8 JUMP JUMPDEST PUSH1 0x40 MLOAD PUSH1 0x20 DUP2 DUP4 SUB SUB DUP2 MSTORE SWAP1 PUSH1 0x40 MSTORE DUP1 MLOAD SWAP1 PUSH1 0x20 ADD KECCAK256 EQ JUMPDEST DUP1 PUSH2 0xB60 JUMPI POP PUSH1 0x40 MLOAD PUSH1 0x20 ADD PUSH2 0xB21 SWAP1 PUSH2 0x1EAC JUMP JUMPDEST PUSH1 0x40 MLOAD PUSH1 0x20 DUP2 DUP4 SUB SUB DUP2 MSTORE SWAP1 PUSH1 0x40 MSTORE DUP1 MLOAD SWAP1 PUSH1 0x20 ADD KECCAK256 DUP3 PUSH1 0x40 MLOAD PUSH1 0x20 ADD PUSH2 0xB48 SWAP2 SWAP1 PUSH2 0x1DE8 JUMP JUMPDEST PUSH1 0x40 MLOAD PUSH1 0x20 DUP2 DUP4 SUB SUB DUP2 MSTORE SWAP1 PUSH1 0x40 MSTORE DUP1 MLOAD SWAP1 PUSH1 0x20 ADD KECCAK256 EQ JUMPDEST PUSH2 0xB9F JUMPI PUSH1 0x40 MLOAD PUSH32 0x8C379A000000000000000000000000000000000000000000000000000000000 DUP2 MSTORE PUSH1 0x4 ADD PUSH2 0xB96 SWAP1 PUSH2 0x1F0D JUMP JUMPDEST PUSH1 0x40 MLOAD DUP1 SWAP2 SUB SWAP1 REVERT JUMPDEST PUSH1 0x40 MLOAD PUSH1 0x20 ADD PUSH2 0xBAE SWAP1 PUSH2 0x1DA2 JUMP JUMPDEST PUSH1 0x40 MLOAD PUSH1 0x20 DUP2 DUP4 SUB SUB DUP2 MSTORE SWAP1 PUSH1 0x40 MSTORE DUP1 MLOAD SWAP1 PUSH1 0x20 ADD KECCAK256 DUP3 PUSH1 0x40 MLOAD PUSH1 0x20 ADD PUSH2 0xBD5 SWAP2 SWAP1 PUSH2 0x1DE8 JUMP JUMPDEST PUSH1 0x40 MLOAD PUSH1 0x20 DUP2 DUP4 SUB SUB DUP2 MSTORE SWAP1 PUSH1 0x40 MSTORE DUP1 MLOAD SWAP1 PUSH1 0x20 ADD KECCAK256 SUB PUSH2 0xE1A JUMPI PUSH1 0x0 DUP1 SLOAD SWAP1 PUSH2 0x100 EXP SWAP1 DIV PUSH20 0xFFFFFFFFFFFFFFFFFFFFFFFFFFFFFFFFFFFFFFFF AND PUSH20 0xFFFFFFFFFFFFFFFFFFFFFFFFFFFFFFFFFFFFFFFF AND PUSH4 0x23B872DD CALLER PUSH2 0xC35 PUSH2 0x6AE JUMP JUMPDEST PUSH1 0x9 SLOAD PUSH1 0x40 MLOAD DUP5 PUSH4 0xFFFFFFFF AND PUSH1 0xE0 SHL DUP2 MSTORE PUSH1 0x4 ADD PUSH2 0xC56 SWAP4 SWAP3 SWAP2 SWAP1 PUSH2 0x1F2D JUMP JUMPDEST PUSH1 0x20 PUSH1 0x40 MLOAD DUP1 DUP4 SUB DUP2 PUSH1 0x0 DUP8 GAS CALL ISZERO DUP1 ISZERO PUSH2 0xC75 JUMPI RETURNDATASIZE PUSH1 0x0 DUP1 RETURNDATACOPY RETURNDATASIZE PUSH1 0x0 REVERT JUMPDEST POP POP POP POP PUSH1 0x40 MLOAD RETURNDATASIZE PUSH1 0x1F NOT PUSH1 0x1F DUP3 ADD AND DUP3 ADD DUP1 PUSH1 0x40 MSTORE POP DUP2 ADD SWAP1 PUSH2 0xC99 SWAP2 SWAP1 PUSH2 0x1F90 JUMP JUMPDEST POP PUSH1 0xC PUSH1 0x0 SWAP1 SLOAD SWAP1 PUSH2 0x100 EXP SWAP1 DIV PUSH20 0xFFFFFFFFFFFFFFFFFFFFFFFFFFFFFFFFFFFFFFFF AND PUSH20 0xFFFFFFFFFFFFFFFFFFFFFFFFFFFFFFFFFFFFFFFF AND PUSH4 0x1F29E9FC DUP4 PUSH1 0x40 MLOAD DUP3 PUSH4 0xFFFFFFFF AND PUSH1 0xE0 SHL DUP2 MSTORE PUSH1 0x4 ADD PUSH2 0xCF5 SWAP2 SWAP1 PUSH2 0x1FBD JUMP JUMPDEST PUSH1 0x20 PUSH1 0x40 MLOAD DUP1 DUP4 SUB DUP2 PUSH1 0x0 DUP8 GAS CALL ISZERO DUP1 ISZERO PUSH2 0xD14 JUMPI RETURNDATASIZE PUSH1 0x0 DUP1 RETURNDATACOPY RETURNDATASIZE PUSH1 0x0 REVERT JUMPDEST POP POP POP POP PUSH1 0x40 MLOAD RETURNDATASIZE PUSH1 0x1F NOT PUSH1 0x1F DUP3 ADD AND DUP3 ADD DUP1 PUSH1 0x40 MSTORE POP DUP2 ADD SWAP1 PUSH2 0xD38 SWAP2 SWAP1 PUSH2 0x1FF4 JUMP JUMPDEST SWAP1 POP PUSH1 0x40 MLOAD DUP1 PUSH1 0x60 ADD PUSH1 0x40 MSTORE DUP1 DUP3 DUP2 MSTORE PUSH1 0x20 ADD CALLER PUSH20 0xFFFFFFFFFFFFFFFFFFFFFFFFFFFFFFFFFFFFFFFF AND DUP2 MSTORE PUSH1 0x20 ADD PUSH1 0x1 PUSH1 0x3 DUP2 GT ISZERO PUSH2 0xD7B JUMPI PUSH2 0xD7A PUSH2 0x178D JUMP JUMPDEST JUMPDEST DUP2 MSTORE POP PUSH1 0x1 PUSH1 0x0 DUP4 DUP2 MSTORE PUSH1 0x20 ADD SWAP1 DUP2 MSTORE PUSH1 0x20 ADD PUSH1 0x0 KECCAK256 PUSH1 0x0 DUP3 ADD MLOAD DUP2 PUSH1 0x0 ADD SSTORE PUSH1 0x20 DUP3 ADD MLOAD DUP2 PUSH1 0x1 ADD PUSH1 0x0 PUSH2 0x100 EXP DUP2 SLOAD DUP2 PUSH20 0xFFFFFFFFFFFFFFFFFFFFFFFFFFFFFFFFFFFFFFFF MUL NOT AND SWAP1 DUP4 PUSH20 0xFFFFFFFFFFFFFFFFFFFFFFFFFFFFFFFFFFFFFFFF AND MUL OR SWAP1 SSTORE POP PUSH1 0x40 DUP3 ADD MLOAD DUP2 PUSH1 0x1 ADD PUSH1 0x14 PUSH2 0x100 EXP DUP2 SLOAD DUP2 PUSH1 0xFF MUL NOT AND SWAP1 DUP4 PUSH1 0x3 DUP2 GT ISZERO PUSH2 0xE0D JUMPI PUSH2 0xE0C PUSH2 0x178D JUMP JUMPDEST JUMPDEST MUL OR SWAP1 SSTORE POP SWAP1 POP POP PUSH2 0x130D JUMP JUMPDEST PUSH1 0x40 MLOAD PUSH1 0x20 ADD PUSH2 0xE29 SWAP1 PUSH2 0x1E4B JUMP JUMPDEST PUSH1 0x40 MLOAD PUSH1 0x20 DUP2 DUP4 SUB SUB DUP2 MSTORE SWAP1 PUSH1 0x40 MSTORE DUP1 MLOAD SWAP1 PUSH1 0x20 ADD KECCAK256 DUP3 PUSH1 0x40 MLOAD PUSH1 0x20 ADD PUSH2 0xE50 SWAP2 SWAP1 PUSH2 0x1DE8 JUMP JUMPDEST PUSH1 0x40 MLOAD PUSH1 0x20 DUP2 DUP4 SUB SUB DUP2 MSTORE SWAP1 PUSH1 0x40 MSTORE DUP1 MLOAD SWAP1 PUSH1 0x20 ADD KECCAK256 SUB PUSH2 0x1095 JUMPI PUSH1 0x0 DUP1 SLOAD SWAP1 PUSH2 0x100 EXP SWAP1 DIV PUSH20 0xFFFFFFFFFFFFFFFFFFFFFFFFFFFFFFFFFFFFFFFF AND PUSH20 0xFFFFFFFFFFFFFFFFFFFFFFFFFFFFFFFFFFFFFFFF AND PUSH4 0x23B872DD CALLER PUSH2 0xEB0 PUSH2 0x6AE JUMP JUMPDEST PUSH1 0xA SLOAD PUSH1 0x40 MLOAD DUP5 PUSH4 0xFFFFFFFF AND PUSH1 0xE0 SHL DUP2 MSTORE PUSH1 0x4 ADD PUSH2 0xED1 SWAP4 SWAP3 SWAP2 SWAP1 PUSH2 0x1F2D JUMP JUMPDEST PUSH1 0x20 PUSH1 0x40 MLOAD DUP1 DUP4 SUB DUP2 PUSH1 0x0 DUP8 GAS CALL ISZERO DUP1 ISZERO PUSH2 0xEF0 JUMPI RETURNDATASIZE PUSH1 0x0 DUP1 RETURNDATACOPY RETURNDATASIZE PUSH1 0x0 REVERT JUMPDEST POP POP POP POP PUSH1 0x40 MLOAD RETURNDATASIZE PUSH1 0x1F NOT PUSH1 0x1F DUP3 ADD AND DUP3 ADD DUP1 PUSH1 0x40 MSTORE POP DUP2 ADD SWAP1 PUSH2 0xF14 SWAP2 SWAP1 PUSH2 0x1F90 JUMP JUMPDEST POP PUSH1 0xC PUSH1 0x0 SWAP1 SLOAD SWAP1 PUSH2 0x100 EXP SWAP1 DIV PUSH20 0xFFFFFFFFFFFFFFFFFFFFFFFFFFFFFFFFFFFFFFFF AND PUSH20 0xFFFFFFFFFFFFFFFFFFFFFFFFFFFFFFFFFFFFFFFF AND PUSH4 0x1F29E9FC DUP4 PUSH1 0x40 MLOAD DUP3 PUSH4 0xFFFFFFFF AND PUSH1 0xE0 SHL DUP2 MSTORE PUSH1 0x4 ADD PUSH2 0xF70 SWAP2 SWAP1 PUSH2 0x1FBD JUMP JUMPDEST PUSH1 0x20 PUSH1 0x40 MLOAD DUP1 DUP4 SUB DUP2 PUSH1 0x0 DUP8 GAS CALL ISZERO DUP1 ISZERO PUSH2 0xF8F JUMPI RETURNDATASIZE PUSH1 0x0 DUP1 RETURNDATACOPY RETURNDATASIZE PUSH1 0x0 REVERT JUMPDEST POP POP POP POP PUSH1 0x40 MLOAD RETURNDATASIZE PUSH1 0x1F NOT PUSH1 0x1F DUP3 ADD AND DUP3 ADD DUP1 PUSH1 0x40 MSTORE POP DUP2 ADD SWAP1 PUSH2 0xFB3 SWAP2 SWAP1 PUSH2 0x1FF4 JUMP JUMPDEST SWAP1 POP PUSH1 0x40 MLOAD DUP1 PUSH1 0x60 ADD PUSH1 0x40 MSTORE DUP1 DUP3 DUP2 MSTORE PUSH1 0x20 ADD CALLER PUSH20 0xFFFFFFFFFFFFFFFFFFFFFFFFFFFFFFFFFFFFFFFF AND DUP2 MSTORE PUSH1 0x20 ADD PUSH1 0x2 PUSH1 0x3 DUP2 GT ISZERO PUSH2 0xFF6 JUMPI PUSH2 0xFF5 PUSH2 0x178D JUMP JUMPDEST JUMPDEST DUP2 MSTORE POP PUSH1 0x1 PUSH1 0x0 DUP4 DUP2 MSTORE PUSH1 0x20 ADD SWAP1 DUP2 MSTORE PUSH1 0x20 ADD PUSH1 0x0 KECCAK256 PUSH1 0x0 DUP3 ADD MLOAD DUP2 PUSH1 0x0 ADD SSTORE PUSH1 0x20 DUP3 ADD MLOAD DUP2 PUSH1 0x1 ADD PUSH1 0x0 PUSH2 0x100 EXP DUP2 SLOAD DUP2 PUSH20 0xFFFFFFFFFFFFFFFFFFFFFFFFFFFFFFFFFFFFFFFF MUL NOT AND SWAP1 DUP4 PUSH20 0xFFFFFFFFFFFFFFFFFFFFFFFFFFFFFFFFFFFFFFFF AND MUL OR SWAP1 SSTORE POP PUSH1 0x40 DUP3 ADD MLOAD DUP2 PUSH1 0x1 ADD PUSH1 0x14 PUSH2 0x100 EXP DUP2 SLOAD DUP2 PUSH1 0xFF MUL NOT AND SWAP1 DUP4 PUSH1 0x3 DUP2 GT ISZERO PUSH2 0x1088 JUMPI PUSH2 0x1087 PUSH2 0x178D JUMP JUMPDEST JUMPDEST MUL OR SWAP1 SSTORE POP SWAP1 POP POP PUSH2 0x130C JUMP JUMPDEST PUSH1 0x40 MLOAD PUSH1 0x20 ADD PUSH2 0x10A4 SWAP1 PUSH2 0x1EAC JUMP JUMPDEST PUSH1 0x40 MLOAD PUSH1 0x20 DUP2 DUP4 SUB SUB DUP2 MSTORE SWAP1 PUSH1 0x40 MSTORE DUP1 MLOAD SWAP1 PUSH1 0x20 ADD KECCAK256 DUP3 PUSH1 0x40 MLOAD PUSH1 0x20 ADD PUSH2 0x10CB SWAP2 SWAP1 PUSH2 0x1DE8 JUMP JUMPDEST PUSH1 0x40 MLOAD PUSH1 0x20 DUP2 DUP4 SUB SUB DUP2 MSTORE SWAP1 PUSH1 0x40 MSTORE DUP1 MLOAD SWAP1 PUSH1 0x20 ADD KECCAK256 SUB PUSH2 0x130B JUMPI PUSH1 0x0 DUP1 SLOAD SWAP1 PUSH2 0x100 EXP SWAP1 DIV PUSH20 0xFFFFFFFFFFFFFFFFFFFFFFFFFFFFFFFFFFFFFFFF AND PUSH20 0xFFFFFFFFFFFFFFFFFFFFFFFFFFFFFFFFFFFFFFFF AND PUSH4 0x23B872DD CALLER PUSH2 0x112B PUSH2 0x6AE JUMP JUMPDEST PUSH1 0xB SLOAD PUSH1 0x40 MLOAD DUP5 PUSH4 0xFFFFFFFF AND PUSH1 0xE0 SHL DUP2 MSTORE PUSH1 0x4 ADD PUSH2 0x114C SWAP4 SWAP3 SWAP2 SWAP1 PUSH2 0x1F2D JUMP JUMPDEST PUSH1 0x20 PUSH1 0x40 MLOAD DUP1 DUP4 SUB DUP2 PUSH1 0x0 DUP8 GAS CALL ISZERO DUP1 ISZERO PUSH2 0x116B JUMPI RETURNDATASIZE PUSH1 0x0 DUP1 RETURNDATACOPY RETURNDATASIZE PUSH1 0x0 REVERT JUMPDEST POP POP POP POP PUSH1 0x40 MLOAD RETURNDATASIZE PUSH1 0x1F NOT PUSH1 0x1F DUP3 ADD AND DUP3 ADD DUP1 PUSH1 0x40 MSTORE POP DUP2 ADD SWAP1 PUSH2 0x118F SWAP2 SWAP1 PUSH2 0x1F90 JUMP JUMPDEST POP PUSH1 0xC PUSH1 0x0 SWAP1 SLOAD SWAP1 PUSH2 0x100 EXP SWAP1 DIV PUSH20 0xFFFFFFFFFFFFFFFFFFFFFFFFFFFFFFFFFFFFFFFF AND PUSH20 0xFFFFFFFFFFFFFFFFFFFFFFFFFFFFFFFFFFFFFFFF AND PUSH4 0x1F29E9FC DUP4 PUSH1 0x40 MLOAD DUP3 PUSH4 0xFFFFFFFF AND PUSH1 0xE0 SHL DUP2 MSTORE PUSH1 0x4 ADD PUSH2 0x11EB SWAP2 SWAP1 PUSH2 0x1FBD JUMP JUMPDEST PUSH1 0x20 PUSH1 0x40 MLOAD DUP1 DUP4 SUB DUP2 PUSH1 0x0 DUP8 GAS CALL ISZERO DUP1 ISZERO PUSH2 0x120A JUMPI RETURNDATASIZE PUSH1 0x0 DUP1 RETURNDATACOPY RETURNDATASIZE PUSH1 0x0 REVERT JUMPDEST POP POP POP POP PUSH1 0x40 MLOAD RETURNDATASIZE PUSH1 0x1F NOT PUSH1 0x1F DUP3 ADD AND DUP3 ADD DUP1 PUSH1 0x40 MSTORE POP DUP2 ADD SWAP1 PUSH2 0x122E SWAP2 SWAP1 PUSH2 0x1FF4 JUMP JUMPDEST SWAP1 POP PUSH1 0x40 MLOAD DUP1 PUSH1 0x60 ADD PUSH1 0x40 MSTORE DUP1 DUP3 DUP2 MSTORE PUSH1 0x20 ADD CALLER PUSH20 0xFFFFFFFFFFFFFFFFFFFFFFFFFFFFFFFFFFFFFFFF AND DUP2 MSTORE PUSH1 0x20 ADD PUSH1 0x3 DUP1 DUP2 GT ISZERO PUSH2 0x1270 JUMPI PUSH2 0x126F PUSH2 0x178D JUMP JUMPDEST JUMPDEST DUP2 MSTORE POP PUSH1 0x1 PUSH1 0x0 DUP4 DUP2 MSTORE PUSH1 0x20 ADD SWAP1 DUP2 MSTORE PUSH1 0x20 ADD PUSH1 0x0 KECCAK256 PUSH1 0x0 DUP3 ADD MLOAD DUP2 PUSH1 0x0 ADD SSTORE PUSH1 0x20 DUP3 ADD MLOAD DUP2 PUSH1 0x1 ADD PUSH1 0x0 PUSH2 0x100 EXP DUP2 SLOAD DUP2 PUSH20 0xFFFFFFFFFFFFFFFFFFFFFFFFFFFFFFFFFFFFFFFF MUL NOT AND SWAP1 DUP4 PUSH20 0xFFFFFFFFFFFFFFFFFFFFFFFFFFFFFFFFFFFFFFFF AND MUL OR SWAP1 SSTORE POP PUSH1 0x40 DUP3 ADD MLOAD DUP2 PUSH1 0x1 ADD PUSH1 0x14 PUSH2 0x100 EXP DUP2 SLOAD DUP2 PUSH1 0xFF MUL NOT AND SWAP1 DUP4 PUSH1 0x3 DUP2 GT ISZERO PUSH2 0x1302 JUMPI PUSH2 0x1301 PUSH2 0x178D JUMP JUMPDEST JUMPDEST MUL OR SWAP1 SSTORE POP SWAP1 POP POP JUMPDEST JUMPDEST JUMPDEST CALLER PUSH20 0xFFFFFFFFFFFFFFFFFFFFFFFFFFFFFFFFFFFFFFFF AND PUSH32 0x1DB2F8D3844C137E9A42D6083E0D6D79F46718A5B5F1DF7504C174630C01BC10 DUP3 DUP5 PUSH1 0x40 MLOAD PUSH2 0x1355 SWAP3 SWAP2 SWAP1 PUSH2 0x2021 JUMP JUMPDEST PUSH1 0x40 MLOAD DUP1 SWAP2 SUB SWAP1 LOG2 POP POP JUMP JUMPDEST PUSH1 0x7 PUSH1 0x0 SWAP1 SLOAD SWAP1 PUSH2 0x100 EXP SWAP1 DIV PUSH20 0xFFFFFFFFFFFFFFFFFFFFFFFFFFFFFFFFFFFFFFFF AND DUP2 JUMP JUMPDEST PUSH1 0x2 PUSH1 0x20 MSTORE DUP1 PUSH1 0x0 MSTORE PUSH1 0x40 PUSH1 0x0 KECCAK256 PUSH1 0x0 SWAP2 POP SWAP1 POP DUP1 PUSH1 0x0 ADD SLOAD SWAP1 DUP1 PUSH1 0x1 ADD DUP1 SLOAD PUSH2 0x13B0 SWAP1 PUSH2 0x2080 JUMP JUMPDEST DUP1 PUSH1 0x1F ADD PUSH1 0x20 DUP1 SWAP2 DIV MUL PUSH1 0x20 ADD PUSH1 0x40 MLOAD SWAP1 DUP2 ADD PUSH1 0x40 MSTORE DUP1 SWAP3 SWAP2 SWAP1 DUP2 DUP2 MSTORE PUSH1 0x20 ADD DUP3 DUP1 SLOAD PUSH2 0x13DC SWAP1 PUSH2 0x2080 JUMP JUMPDEST DUP1 ISZERO PUSH2 0x1429 JUMPI DUP1 PUSH1 0x1F LT PUSH2 0x13FE JUMPI PUSH2 0x100 DUP1 DUP4 SLOAD DIV MUL DUP4 MSTORE SWAP2 PUSH1 0x20 ADD SWAP2 PUSH2 0x1429 JUMP JUMPDEST DUP3 ADD SWAP2 SWAP1 PUSH1 0x0 MSTORE PUSH1 0x20 PUSH1 0x0 KECCAK256 SWAP1 JUMPDEST DUP2 SLOAD DUP2 MSTORE SWAP1 PUSH1 0x1 ADD SWAP1 PUSH1 0x20 ADD DUP1 DUP4 GT PUSH2 0x140C JUMPI DUP3 SWAP1 SUB PUSH1 0x1F AND DUP3 ADD SWAP2 JUMPDEST POP POP POP POP POP SWAP1 DUP1 PUSH1 0x2 ADD PUSH1 0x0 SWAP1 SLOAD SWAP1 PUSH2 0x100 EXP SWAP1 DIV PUSH1 0xFF AND SWAP1 POP DUP4 JUMP JUMPDEST PUSH1 0x8 PUSH1 0x0 SWAP1 SLOAD SWAP1 PUSH2 0x100 EXP SWAP1 DIV PUSH20 0xFFFFFFFFFFFFFFFFFFFFFFFFFFFFFFFFFFFFFFFF AND DUP2 JUMP JUMPDEST PUSH1 0x0 PUSH1 0x6 PUSH1 0x0 SWAP1 SLOAD SWAP1 PUSH2 0x100 EXP SWAP1 DIV PUSH20 0xFFFFFFFFFFFFFFFFFFFFFFFFFFFFFFFFFFFFFFFF AND SWAP1 POP SWAP1 JUMP JUMPDEST PUSH2 0x149E PUSH2 0x158D JUMP JUMPDEST PUSH20 0xFFFFFFFFFFFFFFFFFFFFFFFFFFFFFFFFFFFFFFFF AND PUSH2 0x14BC PUSH2 0x6AE JUMP JUMPDEST PUSH20 0xFFFFFFFFFFFFFFFFFFFFFFFFFFFFFFFFFFFFFFFF AND EQ PUSH2 0x1512 JUMPI PUSH1 0x40 MLOAD PUSH32 0x8C379A000000000000000000000000000000000000000000000000000000000 DUP2 MSTORE PUSH1 0x4 ADD PUSH2 0x1509 SWAP1 PUSH2 0x1C99 JUMP JUMPDEST PUSH1 0x40 MLOAD DUP1 SWAP2 SUB SWAP1 REVERT JUMPDEST PUSH1 0x0 PUSH20 0xFFFFFFFFFFFFFFFFFFFFFFFFFFFFFFFFFFFFFFFF AND DUP2 PUSH20 0xFFFFFFFFFFFFFFFFFFFFFFFFFFFFFFFFFFFFFFFF AND SUB PUSH2 0x1581 JUMPI PUSH1 0x40 MLOAD PUSH32 0x8C379A000000000000000000000000000000000000000000000000000000000 DUP2 MSTORE PUSH1 0x4 ADD PUSH2 0x1578 SWAP1 PUSH2 0x2123 JUMP JUMPDEST PUSH1 0x40 MLOAD DUP1 SWAP2 SUB SWAP1 REVERT JUMPDEST PUSH2 0x158A DUP2 PUSH2 0x1595 JUMP JUMPDEST POP JUMP JUMPDEST PUSH1 0x0 CALLER SWAP1 POP SWAP1 JUMP JUMPDEST PUSH1 0x0 PUSH1 0x4 PUSH1 0x0 SWAP1 SLOAD SWAP1 PUSH2 0x100 EXP SWAP1 DIV PUSH20 0xFFFFFFFFFFFFFFFFFFFFFFFFFFFFFFFFFFFFFFFF AND SWAP1 POP DUP2 PUSH1 0x4 PUSH1 0x0 PUSH2 0x100 EXP DUP2 SLOAD DUP2 PUSH20 0xFFFFFFFFFFFFFFFFFFFFFFFFFFFFFFFFFFFFFFFF MUL NOT AND SWAP1 DUP4 PUSH20 0xFFFFFFFFFFFFFFFFFFFFFFFFFFFFFFFFFFFFFFFF AND MUL OR SWAP1 SSTORE POP DUP2 PUSH20 0xFFFFFFFFFFFFFFFFFFFFFFFFFFFFFFFFFFFFFFFF AND DUP2 PUSH20 0xFFFFFFFFFFFFFFFFFFFFFFFFFFFFFFFFFFFFFFFF AND PUSH32 0x8BE0079C531659141344CD1FD0A4F28419497F9722A3DAAFE3B4186F6B6457E0 PUSH1 0x40 MLOAD PUSH1 0x40 MLOAD DUP1 SWAP2 SUB SWAP1 LOG3 POP POP JUMP JUMPDEST PUSH1 0x0 PUSH20 0xFFFFFFFFFFFFFFFFFFFFFFFFFFFFFFFFFFFFFFFF DUP3 AND SWAP1 POP SWAP2 SWAP1 POP JUMP JUMPDEST PUSH1 0x0 DUP2 SWAP1 POP SWAP2 SWAP1 POP JUMP JUMPDEST PUSH1 0x0 PUSH2 0x16A0 PUSH2 0x169B PUSH2 0x1696 DUP5 PUSH2 0x165B JUMP JUMPDEST PUSH2 0x167B JUMP JUMPDEST PUSH2 0x165B JUMP JUMPDEST SWAP1 POP SWAP2 SWAP1 POP JUMP JUMPDEST PUSH1 0x0 PUSH2 0x16B2 DUP3 PUSH2 0x1685 JUMP JUMPDEST SWAP1 POP SWAP2 SWAP1 POP JUMP JUMPDEST PUSH1 0x0 PUSH2 0x16C4 DUP3 PUSH2 0x16A7 JUMP JUMPDEST SWAP1 POP SWAP2 SWAP1 POP JUMP JUMPDEST PUSH2 0x16D4 DUP2 PUSH2 0x16B9 JUMP JUMPDEST DUP3 MSTORE POP POP JUMP JUMPDEST PUSH1 0x0 PUSH1 0x20 DUP3 ADD SWAP1 POP PUSH2 0x16EF PUSH1 0x0 DUP4 ADD DUP5 PUSH2 0x16CB JUMP JUMPDEST SWAP3 SWAP2 POP POP JUMP JUMPDEST PUSH1 0x0 PUSH1 0x40 MLOAD SWAP1 POP SWAP1 JUMP JUMPDEST PUSH1 0x0 DUP1 REVERT JUMPDEST PUSH1 0x0 DUP1 REVERT JUMPDEST PUSH1 0x0 DUP2 SWAP1 POP SWAP2 SWAP1 POP JUMP JUMPDEST PUSH2 0x171C DUP2 PUSH2 0x1709 JUMP JUMPDEST DUP2 EQ PUSH2 0x1727 JUMPI PUSH1 0x0 DUP1 REVERT JUMPDEST POP JUMP JUMPDEST PUSH1 0x0 DUP2 CALLDATALOAD SWAP1 POP PUSH2 0x1739 DUP2 PUSH2 0x1713 JUMP JUMPDEST SWAP3 SWAP2 POP POP JUMP JUMPDEST PUSH1 0x0 PUSH1 0x20 DUP3 DUP5 SUB SLT ISZERO PUSH2 0x1755 JUMPI PUSH2 0x1754 PUSH2 0x16FF JUMP JUMPDEST JUMPDEST PUSH1 0x0 PUSH2 0x1763 DUP5 DUP3 DUP6 ADD PUSH2 0x172A JUMP JUMPDEST SWAP2 POP POP SWAP3 SWAP2 POP POP JUMP JUMPDEST PUSH1 0x0 PUSH2 0x1777 DUP3 PUSH2 0x165B JUMP JUMPDEST SWAP1 POP SWAP2 SWAP1 POP JUMP JUMPDEST PUSH2 0x1787 DUP2 PUSH2 0x176C JUMP JUMPDEST DUP3 MSTORE POP POP JUMP JUMPDEST PUSH32 0x4E487B7100000000000000000000000000000000000000000000000000000000 PUSH1 0x0 MSTORE PUSH1 0x21 PUSH1 0x4 MSTORE PUSH1 0x24 PUSH1 0x0 REVERT JUMPDEST PUSH1 0x4 DUP2 LT PUSH2 0x17CD JUMPI PUSH2 0x17CC PUSH2 0x178D JUMP JUMPDEST JUMPDEST POP JUMP JUMPDEST PUSH1 0x0 DUP2 SWAP1 POP PUSH2 0x17DE DUP3 PUSH2 0x17BC JUMP JUMPDEST SWAP2 SWAP1 POP JUMP JUMPDEST PUSH1 0x0 PUSH2 0x17EE DUP3 PUSH2 0x17D0 JUMP JUMPDEST SWAP1 POP SWAP2 SWAP1 POP JUMP JUMPDEST PUSH2 0x17FE DUP2 PUSH2 0x17E3 JUMP JUMPDEST DUP3 MSTORE POP POP JUMP JUMPDEST PUSH1 0x0 PUSH1 0x40 DUP3 ADD SWAP1 POP PUSH2 0x1819 PUSH1 0x0 DUP4 ADD DUP6 PUSH2 0x177E JUMP JUMPDEST PUSH2 0x1826 PUSH1 0x20 DUP4 ADD DUP5 PUSH2 0x17F5 JUMP JUMPDEST SWAP4 SWAP3 POP POP POP JUMP JUMPDEST PUSH1 0x0 PUSH32 0xFFFFFFFF00000000000000000000000000000000000000000000000000000000 DUP3 AND SWAP1 POP SWAP2 SWAP1 POP JUMP JUMPDEST PUSH2 0x1862 DUP2 PUSH2 0x182D JUMP JUMPDEST DUP3 MSTORE POP POP JUMP JUMPDEST PUSH1 0x0 PUSH1 0x20 DUP3 ADD SWAP1 POP PUSH2 0x187D PUSH1 0x0 DUP4 ADD DUP5 PUSH2 0x1859 JUMP JUMPDEST SWAP3 SWAP2 POP POP JUMP JUMPDEST PUSH2 0x188C DUP2 PUSH2 0x1709 JUMP JUMPDEST DUP3 MSTORE POP POP JUMP JUMPDEST PUSH1 0x0 PUSH1 0x60 DUP3 ADD SWAP1 POP PUSH2 0x18A7 PUSH1 0x0 DUP4 ADD DUP7 PUSH2 0x1883 JUMP JUMPDEST PUSH2 0x18B4 PUSH1 0x20 DUP4 ADD DUP6 PUSH2 0x177E JUMP JUMPDEST PUSH2 0x18C1 PUSH1 0x40 DUP4 ADD DUP5 PUSH2 0x17F5 JUMP JUMPDEST SWAP5 SWAP4 POP POP POP POP JUMP JUMPDEST PUSH2 0x18D2 DUP2 PUSH2 0x176C JUMP JUMPDEST DUP2 EQ PUSH2 0x18DD JUMPI PUSH1 0x0 DUP1 REVERT JUMPDEST POP JUMP JUMPDEST PUSH1 0x0 DUP2 CALLDATALOAD SWAP1 POP PUSH2 0x18EF DUP2 PUSH2 0x18C9 JUMP JUMPDEST SWAP3 SWAP2 POP POP JUMP JUMPDEST PUSH1 0x0 PUSH1 0x20 DUP3 DUP5 SUB SLT ISZERO PUSH2 0x190B JUMPI PUSH2 0x190A PUSH2 0x16FF JUMP JUMPDEST JUMPDEST PUSH1 0x0 PUSH2 0x1919 DUP5 DUP3 DUP6 ADD PUSH2 0x18E0 JUMP JUMPDEST SWAP2 POP POP SWAP3 SWAP2 POP POP JUMP JUMPDEST PUSH1 0x0 PUSH1 0x20 DUP3 ADD SWAP1 POP PUSH2 0x1937 PUSH1 0x0 DUP4 ADD DUP5 PUSH2 0x177E JUMP JUMPDEST SWAP3 SWAP2 POP POP JUMP JUMPDEST PUSH1 0x0 PUSH1 0x20 DUP3 ADD SWAP1 POP PUSH2 0x1952 PUSH1 0x0 DUP4 ADD DUP5 PUSH2 0x1883 JUMP JUMPDEST SWAP3 SWAP2 POP POP JUMP JUMPDEST PUSH1 0x0 DUP1 REVERT JUMPDEST PUSH1 0x0 DUP1 REVERT JUMPDEST PUSH1 0x0 PUSH1 0x1F NOT PUSH1 0x1F DUP4 ADD AND SWAP1 POP SWAP2 SWAP1 POP JUMP JUMPDEST PUSH32 0x4E487B7100000000000000000000000000000000000000000000000000000000 PUSH1 0x0 MSTORE PUSH1 0x41 PUSH1 0x4 MSTORE PUSH1 0x24 PUSH1 0x0 REVERT JUMPDEST PUSH2 0x19AB DUP3 PUSH2 0x1962 JUMP JUMPDEST DUP2 ADD DUP2 DUP2 LT PUSH8 0xFFFFFFFFFFFFFFFF DUP3 GT OR ISZERO PUSH2 0x19CA JUMPI PUSH2 0x19C9 PUSH2 0x1973 JUMP JUMPDEST JUMPDEST DUP1 PUSH1 0x40 MSTORE POP POP POP JUMP JUMPDEST PUSH1 0x0 PUSH2 0x19DD PUSH2 0x16F5 JUMP JUMPDEST SWAP1 POP PUSH2 0x19E9 DUP3 DUP3 PUSH2 0x19A2 JUMP JUMPDEST SWAP2 SWAP1 POP JUMP JUMPDEST PUSH1 0x0 PUSH8 0xFFFFFFFFFFFFFFFF DUP3 GT ISZERO PUSH2 0x1A09 JUMPI PUSH2 0x1A08 PUSH2 0x1973 JUMP JUMPDEST JUMPDEST PUSH2 0x1A12 DUP3 PUSH2 0x1962 JUMP JUMPDEST SWAP1 POP PUSH1 0x20 DUP2 ADD SWAP1 POP SWAP2 SWAP1 POP JUMP JUMPDEST DUP3 DUP2 DUP4 CALLDATACOPY PUSH1 0x0 DUP4 DUP4 ADD MSTORE POP POP POP JUMP JUMPDEST PUSH1 0x0 PUSH2 0x1A41 PUSH2 0x1A3C DUP5 PUSH2 0x19EE JUMP JUMPDEST PUSH2 0x19D3 JUMP JUMPDEST SWAP1 POP DUP3 DUP2 MSTORE PUSH1 0x20 DUP2 ADD DUP5 DUP5 DUP5 ADD GT ISZERO PUSH2 0x1A5D JUMPI PUSH2 0x1A5C PUSH2 0x195D JUMP JUMPDEST JUMPDEST PUSH2 0x1A68 DUP5 DUP3 DUP6 PUSH2 0x1A1F JUMP JUMPDEST POP SWAP4 SWAP3 POP POP POP JUMP JUMPDEST PUSH1 0x0 DUP3 PUSH1 0x1F DUP4 ADD SLT PUSH2 0x1A85 JUMPI PUSH2 0x1A84 PUSH2 0x1958 JUMP JUMPDEST JUMPDEST DUP2 CALLDATALOAD PUSH2 0x1A95 DUP5 DUP3 PUSH1 0x20 DUP7 ADD PUSH2 0x1A2E JUMP JUMPDEST SWAP2 POP POP SWAP3 SWAP2 POP POP JUMP JUMPDEST PUSH1 0x0 PUSH1 0x20 DUP3 DUP5 SUB SLT ISZERO PUSH2 0x1AB4 JUMPI PUSH2 0x1AB3 PUSH2 0x16FF JUMP JUMPDEST JUMPDEST PUSH1 0x0 DUP3 ADD CALLDATALOAD PUSH8 0xFFFFFFFFFFFFFFFF DUP2 GT ISZERO PUSH2 0x1AD2 JUMPI PUSH2 0x1AD1 PUSH2 0x1704 JUMP JUMPDEST JUMPDEST PUSH2 0x1ADE DUP5 DUP3 DUP6 ADD PUSH2 0x1A70 JUMP JUMPDEST SWAP2 POP POP SWAP3 SWAP2 POP POP JUMP JUMPDEST PUSH1 0x0 DUP2 SWAP1 POP SWAP2 SWAP1 POP JUMP JUMPDEST PUSH2 0x1AFA DUP2 PUSH2 0x1AE7 JUMP JUMPDEST DUP3 MSTORE POP POP JUMP JUMPDEST PUSH1 0x0 DUP2 MLOAD SWAP1 POP SWAP2 SWAP1 POP JUMP JUMPDEST PUSH1 0x0 DUP3 DUP3 MSTORE PUSH1 0x20 DUP3 ADD SWAP1 POP SWAP3 SWAP2 POP POP JUMP JUMPDEST PUSH1 0x0 JUMPDEST DUP4 DUP2 LT ISZERO PUSH2 0x1B3A JUMPI DUP1 DUP3 ADD MLOAD DUP2 DUP5 ADD MSTORE PUSH1 0x20 DUP2 ADD SWAP1 POP PUSH2 0x1B1F JUMP JUMPDEST DUP4 DUP2 GT ISZERO PUSH2 0x1B49 JUMPI PUSH1 0x0 DUP5 DUP5 ADD MSTORE JUMPDEST POP POP POP POP JUMP JUMPDEST PUSH1 0x0 PUSH2 0x1B5A DUP3 PUSH2 0x1B00 JUMP JUMPDEST PUSH2 0x1B64 DUP2 DUP6 PUSH2 0x1B0B JUMP JUMPDEST SWAP4 POP PUSH2 0x1B74 DUP2 DUP6 PUSH1 0x20 DUP7 ADD PUSH2 0x1B1C JUMP JUMPDEST PUSH2 0x1B7D DUP2 PUSH2 0x1962 JUMP JUMPDEST DUP5 ADD SWAP2 POP POP SWAP3 SWAP2 POP POP JUMP JUMPDEST PUSH1 0x0 DUP2 ISZERO ISZERO SWAP1 POP SWAP2 SWAP1 POP JUMP JUMPDEST PUSH2 0x1B9D DUP2 PUSH2 0x1B88 JUMP JUMPDEST DUP3 MSTORE POP POP JUMP JUMPDEST PUSH1 0x0 PUSH1 0x60 DUP3 ADD SWAP1 POP PUSH2 0x1BB8 PUSH1 0x0 DUP4 ADD DUP7 PUSH2 0x1AF1 JUMP JUMPDEST DUP2 DUP2 SUB PUSH1 0x20 DUP4 ADD MSTORE PUSH2 0x1BCA DUP2 DUP6 PUSH2 0x1B4F JUMP JUMPDEST SWAP1 POP PUSH2 0x1BD9 PUSH1 0x40 DUP4 ADD DUP5 PUSH2 0x1B94 JUMP JUMPDEST SWAP5 SWAP4 POP POP POP POP JUMP JUMPDEST PUSH32 0x63616C6C6572206E6F742061206D696E7465722061646D696E00000000000000 PUSH1 0x0 DUP3 ADD MSTORE POP JUMP JUMPDEST PUSH1 0x0 PUSH2 0x1C17 PUSH1 0x19 DUP4 PUSH2 0x1B0B JUMP JUMPDEST SWAP2 POP PUSH2 0x1C22 DUP3 PUSH2 0x1BE1 JUMP JUMPDEST PUSH1 0x20 DUP3 ADD SWAP1 POP SWAP2 SWAP1 POP JUMP JUMPDEST PUSH1 0x0 PUSH1 0x20 DUP3 ADD SWAP1 POP DUP2 DUP2 SUB PUSH1 0x0 DUP4 ADD MSTORE PUSH2 0x1C46 DUP2 PUSH2 0x1C0A JUMP JUMPDEST SWAP1 POP SWAP2 SWAP1 POP JUMP JUMPDEST PUSH32 0x4F776E61626C653A2063616C6C6572206973206E6F7420746865206F776E6572 PUSH1 0x0 DUP3 ADD MSTORE POP JUMP JUMPDEST PUSH1 0x0 PUSH2 0x1C83 PUSH1 0x20 DUP4 PUSH2 0x1B0B JUMP JUMPDEST SWAP2 POP PUSH2 0x1C8E DUP3 PUSH2 0x1C4D JUMP JUMPDEST PUSH1 0x20 DUP3 ADD SWAP1 POP SWAP2 SWAP1 POP JUMP JUMPDEST PUSH1 0x0 PUSH1 0x20 DUP3 ADD SWAP1 POP DUP2 DUP2 SUB PUSH1 0x0 DUP4 ADD MSTORE PUSH2 0x1CB2 DUP2 PUSH2 0x1C76 JUMP JUMPDEST SWAP1 POP SWAP2 SWAP1 POP JUMP JUMPDEST PUSH32 0x63616C6C6572206E6F7420612070656E64696E67206D696E7465722061646D69 PUSH1 0x0 DUP3 ADD MSTORE PUSH32 0x6E00000000000000000000000000000000000000000000000000000000000000 PUSH1 0x20 DUP3 ADD MSTORE POP JUMP JUMPDEST PUSH1 0x0 PUSH2 0x1D15 PUSH1 0x21 DUP4 PUSH2 0x1B0B JUMP JUMPDEST SWAP2 POP PUSH2 0x1D20 DUP3 PUSH2 0x1CB9 JUMP JUMPDEST PUSH1 0x40 DUP3 ADD SWAP1 POP SWAP2 SWAP1 POP JUMP JUMPDEST PUSH1 0x0 PUSH1 0x20 DUP3 ADD SWAP1 POP DUP2 DUP2 SUB PUSH1 0x0 DUP4 ADD MSTORE PUSH2 0x1D44 DUP2 PUSH2 0x1D08 JUMP JUMPDEST SWAP1 POP SWAP2 SWAP1 POP JUMP JUMPDEST PUSH1 0x0 DUP2 SWAP1 POP SWAP3 SWAP2 POP POP JUMP JUMPDEST PUSH32 0x42524F4E5A450000000000000000000000000000000000000000000000000000 PUSH1 0x0 DUP3 ADD MSTORE POP JUMP JUMPDEST PUSH1 0x0 PUSH2 0x1D8C PUSH1 0x6 DUP4 PUSH2 0x1D4B JUMP JUMPDEST SWAP2 POP PUSH2 0x1D97 DUP3 PUSH2 0x1D56 JUMP JUMPDEST PUSH1 0x6 DUP3 ADD SWAP1 POP SWAP2 SWAP1 POP JUMP JUMPDEST PUSH1 0x0 PUSH2 0x1DAD DUP3 PUSH2 0x1D7F JUMP JUMPDEST SWAP2 POP DUP2 SWAP1 POP SWAP2 SWAP1 POP JUMP JUMPDEST PUSH1 0x0 PUSH2 0x1DC2 DUP3 PUSH2 0x1B00 JUMP JUMPDEST PUSH2 0x1DCC DUP2 DUP6 PUSH2 0x1D4B JUMP JUMPDEST SWAP4 POP PUSH2 0x1DDC DUP2 DUP6 PUSH1 0x20 DUP7 ADD PUSH2 0x1B1C JUMP JUMPDEST DUP1 DUP5 ADD SWAP2 POP POP SWAP3 SWAP2 POP POP JUMP JUMPDEST PUSH1 0x0 PUSH2 0x1DF4 DUP3 DUP5 PUSH2 0x1DB7 JUMP JUMPDEST SWAP2 POP DUP2 SWAP1 POP SWAP3 SWAP2 POP POP JUMP JUMPDEST PUSH32 0x53494C5645520000000000000000000000000000000000000000000000000000 PUSH1 0x0 DUP3 ADD MSTORE POP JUMP JUMPDEST PUSH1 0x0 PUSH2 0x1E35 PUSH1 0x6 DUP4 PUSH2 0x1D4B JUMP JUMPDEST SWAP2 POP PUSH2 0x1E40 DUP3 PUSH2 0x1DFF JUMP JUMPDEST PUSH1 0x6 DUP3 ADD SWAP1 POP SWAP2 SWAP1 POP JUMP JUMPDEST PUSH1 0x0 PUSH2 0x1E56 DUP3 PUSH2 0x1E28 JUMP JUMPDEST SWAP2 POP DUP2 SWAP1 POP SWAP2 SWAP1 POP JUMP JUMPDEST PUSH32 0x474F4C4400000000000000000000000000000000000000000000000000000000 PUSH1 0x0 DUP3 ADD MSTORE POP JUMP JUMPDEST PUSH1 0x0 PUSH2 0x1E96 PUSH1 0x4 DUP4 PUSH2 0x1D4B JUMP JUMPDEST SWAP2 POP PUSH2 0x1EA1 DUP3 PUSH2 0x1E60 JUMP JUMPDEST PUSH1 0x4 DUP3 ADD SWAP1 POP SWAP2 SWAP1 POP JUMP JUMPDEST PUSH1 0x0 PUSH2 0x1EB7 DUP3 PUSH2 0x1E89 JUMP JUMPDEST SWAP2 POP DUP2 SWAP1 POP SWAP2 SWAP1 POP JUMP JUMPDEST PUSH32 0x4974656D27732074797065206973206E6F742076616C69640000000000000000 PUSH1 0x0 DUP3 ADD MSTORE POP JUMP JUMPDEST PUSH1 0x0 PUSH2 0x1EF7 PUSH1 0x18 DUP4 PUSH2 0x1B0B JUMP JUMPDEST SWAP2 POP PUSH2 0x1F02 DUP3 PUSH2 0x1EC1 JUMP JUMPDEST PUSH1 0x20 DUP3 ADD SWAP1 POP SWAP2 SWAP1 POP JUMP JUMPDEST PUSH1 0x0 PUSH1 0x20 DUP3 ADD SWAP1 POP DUP2 DUP2 SUB PUSH1 0x0 DUP4 ADD MSTORE PUSH2 0x1F26 DUP2 PUSH2 0x1EEA JUMP JUMPDEST SWAP1 POP SWAP2 SWAP1 POP JUMP JUMPDEST PUSH1 0x0 PUSH1 0x60 DUP3 ADD SWAP1 POP PUSH2 0x1F42 PUSH1 0x0 DUP4 ADD DUP7 PUSH2 0x177E JUMP JUMPDEST PUSH2 0x1F4F PUSH1 0x20 DUP4 ADD DUP6 PUSH2 0x177E JUMP JUMPDEST PUSH2 0x1F5C PUSH1 0x40 DUP4 ADD DUP5 PUSH2 0x1883 JUMP JUMPDEST SWAP5 SWAP4 POP POP POP POP JUMP JUMPDEST PUSH2 0x1F6D DUP2 PUSH2 0x1B88 JUMP JUMPDEST DUP2 EQ PUSH2 0x1F78 JUMPI PUSH1 0x0 DUP1 REVERT JUMPDEST POP JUMP JUMPDEST PUSH1 0x0 DUP2 MLOAD SWAP1 POP PUSH2 0x1F8A DUP2 PUSH2 0x1F64 JUMP JUMPDEST SWAP3 SWAP2 POP POP JUMP JUMPDEST PUSH1 0x0 PUSH1 0x20 DUP3 DUP5 SUB SLT ISZERO PUSH2 0x1FA6 JUMPI PUSH2 0x1FA5 PUSH2 0x16FF JUMP JUMPDEST JUMPDEST PUSH1 0x0 PUSH2 0x1FB4 DUP5 DUP3 DUP6 ADD PUSH2 0x1F7B JUMP JUMPDEST SWAP2 POP POP SWAP3 SWAP2 POP POP JUMP JUMPDEST PUSH1 0x0 PUSH1 0x20 DUP3 ADD SWAP1 POP DUP2 DUP2 SUB PUSH1 0x0 DUP4 ADD MSTORE PUSH2 0x1FD7 DUP2 DUP5 PUSH2 0x1B4F JUMP JUMPDEST SWAP1 POP SWAP3 SWAP2 POP POP JUMP JUMPDEST PUSH1 0x0 DUP2 MLOAD SWAP1 POP PUSH2 0x1FEE DUP2 PUSH2 0x1713 JUMP JUMPDEST SWAP3 SWAP2 POP POP JUMP JUMPDEST PUSH1 0x0 PUSH1 0x20 DUP3 DUP5 SUB SLT ISZERO PUSH2 0x200A JUMPI PUSH2 0x2009 PUSH2 0x16FF JUMP JUMPDEST JUMPDEST PUSH1 0x0 PUSH2 0x2018 DUP5 DUP3 DUP6 ADD PUSH2 0x1FDF JUMP JUMPDEST SWAP2 POP POP SWAP3 SWAP2 POP POP JUMP JUMPDEST PUSH1 0x0 PUSH1 0x40 DUP3 ADD SWAP1 POP PUSH2 0x2036 PUSH1 0x0 DUP4 ADD DUP6 PUSH2 0x1883 JUMP JUMPDEST DUP2 DUP2 SUB PUSH1 0x20 DUP4 ADD MSTORE PUSH2 0x2048 DUP2 DUP5 PUSH2 0x1B4F JUMP JUMPDEST SWAP1 POP SWAP4 SWAP3 POP POP POP JUMP JUMPDEST PUSH32 0x4E487B7100000000000000000000000000000000000000000000000000000000 PUSH1 0x0 MSTORE PUSH1 0x22 PUSH1 0x4 MSTORE PUSH1 0x24 PUSH1 0x0 REVERT JUMPDEST PUSH1 0x0 PUSH1 0x2 DUP3 DIV SWAP1 POP PUSH1 0x1 DUP3 AND DUP1 PUSH2 0x2098 JUMPI PUSH1 0x7F DUP3 AND SWAP2 POP JUMPDEST PUSH1 0x20 DUP3 LT DUP2 SUB PUSH2 0x20AB JUMPI PUSH2 0x20AA PUSH2 0x2051 JUMP JUMPDEST JUMPDEST POP SWAP2 SWAP1 POP JUMP JUMPDEST PUSH32 0x4F776E61626C653A206E6577206F776E657220697320746865207A65726F2061 PUSH1 0x0 DUP3 ADD MSTORE PUSH32 0x6464726573730000000000000000000000000000000000000000000000000000 PUSH1 0x20 DUP3 ADD MSTORE POP JUMP JUMPDEST PUSH1 0x0 PUSH2 0x210D PUSH1 0x26 DUP4 PUSH2 0x1B0B JUMP JUMPDEST SWAP2 POP PUSH2 0x2118 DUP3 PUSH2 0x20B1 JUMP JUMPDEST PUSH1 0x40 DUP3 ADD SWAP1 POP SWAP2 SWAP1 POP JUMP JUMPDEST PUSH1 0x0 PUSH1 0x20 DUP3 ADD SWAP1 POP DUP2 DUP2 SUB PUSH1 0x0 DUP4 ADD MSTORE PUSH2 0x213C DUP2 PUSH2 0x2100 JUMP JUMPDEST SWAP1 POP SWAP2 SWAP1 POP JUMP INVALID LOG2 PUSH5 0x6970667358 0x22 SLT KECCAK256 ADDRESS SWAP12 LOG3 DUP4 BLOCKHASH LOG3 0xB3 0xB1 0xE1 0x1E ISZERO 0xD0 0xEC SHR 0x23 PUSH9 0xF05DA679192813305E 0xFC 0x4C 0xC2 PUSH31 0x2CB13864736F6C634300080D00330000000000000000000000000000000000 "
				},
				"gasEstimates": {
					"creation": {
						"codeDepositCost": "1713800",
						"executionCost": "infinite",
						"totalCost": "infinite"
					},
					"external": {
						"ERC721_Interface()": "409",
						"activeItem(uint256)": "infinite",
						"addToMinters(address)": "27093",
						"bronzeActivePrice()": "2474",
						"claimMinterAddmin()": "58868",
						"goldActivePrice()": "2452",
						"ingameItem(uint256)": "infinite",
						"mintActiveItem(string)": "infinite",
						"minterAddmin()": "2610",
						"nftContract()": "2580",
						"owner()": "2589",
						"pendingMinterAdmin()": "2536",
						"removeFromMinters(address)": "27005",
						"renounceOwnership()": "30419",
						"setSQFToken(address)": "27051",
						"silverActivePrice()": "2518",
						"sqfToken()": "infinite",
						"transferMinterAddmin(address)": "27004",
						"transferOwnership(address)": "30830",
						"userStatus(uint256)": "5303"
					}
				},
				"methodIdentifiers": {
					"ERC721_Interface()": "2b4c32be",
					"activeItem(uint256)": "58dd8603",
					"addToMinters(address)": "a15c15af",
					"bronzeActivePrice()": "ac4867f0",
					"claimMinterAddmin()": "aed59b8a",
					"goldActivePrice()": "aa6a0dac",
					"ingameItem(uint256)": "d30bdac9",
					"mintActiveItem(string)": "c04772d5",
					"minterAddmin()": "db69a32d",
					"nftContract()": "d56d229d",
					"owner()": "8da5cb5b",
					"pendingMinterAdmin()": "ce1d82f5",
					"removeFromMinters(address)": "6e722920",
					"renounceOwnership()": "715018a6",
					"setSQFToken(address)": "92bf77dd",
					"silverActivePrice()": "af1b3d5e",
					"sqfToken()": "15b81dc3",
					"transferMinterAddmin(address)": "6d4d0c57",
					"transferOwnership(address)": "f2fde38b",
					"userStatus(uint256)": "1f7775ad"
				}
			},
			"storageLayout": {
				"storage": [
					{
						"astId": 126,
						"contract": "contracts/NFTContract3/SQFIFactory.sol:SQFItemFactory",
						"label": "sqfToken",
						"offset": 0,
						"slot": "0",
						"type": "t_contract(IERC20)90"
					},
					{
						"astId": 131,
						"contract": "contracts/NFTContract3/SQFIFactory.sol:SQFItemFactory",
						"label": "activeItem",
						"offset": 0,
						"slot": "1",
						"type": "t_mapping(t_uint256,t_struct(activeItems)104_storage)"
					},
					{
						"astId": 136,
						"contract": "contracts/NFTContract3/SQFIFactory.sol:SQFItemFactory",
						"label": "ingameItem",
						"offset": 0,
						"slot": "2",
						"type": "t_mapping(t_uint256,t_struct(ingameItems)111_storage)"
					},
					{
						"astId": 141,
						"contract": "contracts/NFTContract3/SQFIFactory.sol:SQFItemFactory",
						"label": "userStatus",
						"offset": 0,
						"slot": "3",
						"type": "t_mapping(t_uint256,t_struct(usersStatus)117_storage)"
					},
					{
						"astId": 186,
						"contract": "contracts/NFTContract3/SQFIFactory.sol:SQFItemFactory",
						"label": "_owner",
						"offset": 0,
						"slot": "4",
						"type": "t_address"
					},
					{
						"astId": 289,
						"contract": "contracts/NFTContract3/SQFIFactory.sol:SQFItemFactory",
						"label": "_minters",
						"offset": 0,
						"slot": "5",
						"type": "t_mapping(t_address,t_bool)"
					},
					{
						"astId": 291,
						"contract": "contracts/NFTContract3/SQFIFactory.sol:SQFItemFactory",
						"label": "_minteradmin",
						"offset": 0,
						"slot": "6",
						"type": "t_address"
					},
					{
						"astId": 293,
						"contract": "contracts/NFTContract3/SQFIFactory.sol:SQFItemFactory",
						"label": "pendingMinterAdmin",
						"offset": 0,
						"slot": "7",
						"type": "t_address"
					},
					{
						"astId": 574,
						"contract": "contracts/NFTContract3/SQFIFactory.sol:SQFItemFactory",
						"label": "nftContract",
						"offset": 0,
						"slot": "8",
						"type": "t_address"
					},
					{
						"astId": 576,
						"contract": "contracts/NFTContract3/SQFIFactory.sol:SQFItemFactory",
						"label": "bronzeActivePrice",
						"offset": 0,
						"slot": "9",
						"type": "t_uint256"
					},
					{
						"astId": 578,
						"contract": "contracts/NFTContract3/SQFIFactory.sol:SQFItemFactory",
						"label": "silverActivePrice",
						"offset": 0,
						"slot": "10",
						"type": "t_uint256"
					},
					{
						"astId": 580,
						"contract": "contracts/NFTContract3/SQFIFactory.sol:SQFItemFactory",
						"label": "goldActivePrice",
						"offset": 0,
						"slot": "11",
						"type": "t_uint256"
					},
					{
						"astId": 583,
						"contract": "contracts/NFTContract3/SQFIFactory.sol:SQFItemFactory",
						"label": "SQFI",
						"offset": 0,
						"slot": "12",
						"type": "t_contract(ISQFI)565"
					}
				],
				"types": {
					"t_address": {
						"encoding": "inplace",
						"label": "address",
						"numberOfBytes": "20"
					},
					"t_bool": {
						"encoding": "inplace",
						"label": "bool",
						"numberOfBytes": "1"
					},
					"t_bytes32": {
						"encoding": "inplace",
						"label": "bytes32",
						"numberOfBytes": "32"
					},
					"t_contract(IERC20)90": {
						"encoding": "inplace",
						"label": "contract IERC20",
						"numberOfBytes": "20"
					},
					"t_contract(ISQFI)565": {
						"encoding": "inplace",
						"label": "contract ISQFI",
						"numberOfBytes": "20"
					},
					"t_enum(activeStatus)96": {
						"encoding": "inplace",
						"label": "enum FactoryStorage.activeStatus",
						"numberOfBytes": "1"
					},
					"t_mapping(t_address,t_bool)": {
						"encoding": "mapping",
						"key": "t_address",
						"label": "mapping(address => bool)",
						"numberOfBytes": "32",
						"value": "t_bool"
					},
					"t_mapping(t_uint256,t_struct(activeItems)104_storage)": {
						"encoding": "mapping",
						"key": "t_uint256",
						"label": "mapping(uint256 => struct FactoryStorage.activeItems)",
						"numberOfBytes": "32",
						"value": "t_struct(activeItems)104_storage"
					},
					"t_mapping(t_uint256,t_struct(ingameItems)111_storage)": {
						"encoding": "mapping",
						"key": "t_uint256",
						"label": "mapping(uint256 => struct FactoryStorage.ingameItems)",
						"numberOfBytes": "32",
						"value": "t_struct(ingameItems)111_storage"
					},
					"t_mapping(t_uint256,t_struct(usersStatus)117_storage)": {
						"encoding": "mapping",
						"key": "t_uint256",
						"label": "mapping(uint256 => struct FactoryStorage.usersStatus)",
						"numberOfBytes": "32",
						"value": "t_struct(usersStatus)117_storage"
					},
					"t_string_storage": {
						"encoding": "bytes",
						"label": "string",
						"numberOfBytes": "32"
					},
					"t_struct(activeItems)104_storage": {
						"encoding": "inplace",
						"label": "struct FactoryStorage.activeItems",
						"members": [
							{
								"astId": 98,
								"contract": "contracts/NFTContract3/SQFIFactory.sol:SQFItemFactory",
								"label": "id",
								"offset": 0,
								"slot": "0",
								"type": "t_uint256"
							},
							{
								"astId": 100,
								"contract": "contracts/NFTContract3/SQFIFactory.sol:SQFItemFactory",
								"label": "owner",
								"offset": 0,
								"slot": "1",
								"type": "t_address"
							},
							{
								"astId": 103,
								"contract": "contracts/NFTContract3/SQFIFactory.sol:SQFItemFactory",
								"label": "status",
								"offset": 20,
								"slot": "1",
								"type": "t_enum(activeStatus)96"
							}
						],
						"numberOfBytes": "64"
					},
					"t_struct(ingameItems)111_storage": {
						"encoding": "inplace",
						"label": "struct FactoryStorage.ingameItems",
						"members": [
							{
								"astId": 106,
								"contract": "contracts/NFTContract3/SQFIFactory.sol:SQFItemFactory",
								"label": "id",
								"offset": 0,
								"slot": "0",
								"type": "t_bytes32"
							},
							{
								"astId": 108,
								"contract": "contracts/NFTContract3/SQFIFactory.sol:SQFItemFactory",
								"label": "itemId",
								"offset": 0,
								"slot": "1",
								"type": "t_string_storage"
							},
							{
								"astId": 110,
								"contract": "contracts/NFTContract3/SQFIFactory.sol:SQFItemFactory",
								"label": "ingame",
								"offset": 0,
								"slot": "2",
								"type": "t_bool"
							}
						],
						"numberOfBytes": "96"
					},
					"t_struct(usersStatus)117_storage": {
						"encoding": "inplace",
						"label": "struct FactoryStorage.usersStatus",
						"members": [
							{
								"astId": 113,
								"contract": "contracts/NFTContract3/SQFIFactory.sol:SQFItemFactory",
								"label": "user",
								"offset": 0,
								"slot": "0",
								"type": "t_address"
							},
							{
								"astId": 116,
								"contract": "contracts/NFTContract3/SQFIFactory.sol:SQFItemFactory",
								"label": "status",
								"offset": 20,
								"slot": "0",
								"type": "t_enum(activeStatus)96"
							}
						],
						"numberOfBytes": "32"
					},
					"t_uint256": {
						"encoding": "inplace",
						"label": "uint256",
						"numberOfBytes": "32"
					}
				}
			},
			"userdoc": {
				"kind": "user",
				"methods": {},
				"version": 1
			}
		}
	}
}