{
	"contracts/NFTContract3/ItemStorage.sol": {
		"ItemStorage": {
			"abi": [
				{
					"anonymous": false,
					"inputs": [
						{
							"indexed": true,
							"internalType": "address",
							"name": "user",
							"type": "address"
						},
						{
							"indexed": false,
							"internalType": "string",
							"name": "status",
							"type": "string"
						}
					],
					"name": "AcctiveAccount",
					"type": "event"
				},
				{
					"anonymous": false,
					"inputs": [
						{
							"indexed": true,
							"internalType": "address",
							"name": "owner",
							"type": "address"
						},
						{
							"indexed": false,
							"internalType": "string",
							"name": "tokenId",
							"type": "string"
						}
					],
					"name": "Burn",
					"type": "event"
				},
				{
					"anonymous": false,
					"inputs": [
						{
							"indexed": true,
							"internalType": "address",
							"name": "receiver",
							"type": "address"
						},
						{
							"indexed": false,
							"internalType": "string",
							"name": "tokenId",
							"type": "string"
						}
					],
					"name": "Claim",
					"type": "event"
				},
				{
					"anonymous": false,
					"inputs": [
						{
							"indexed": true,
							"internalType": "address",
							"name": "to",
							"type": "address"
						},
						{
							"indexed": false,
							"internalType": "string",
							"name": "tokenId",
							"type": "string"
						}
					],
					"name": "Mint",
					"type": "event"
				},
				{
					"inputs": [],
					"name": "ERC721_Interface",
					"outputs": [
						{
							"internalType": "bytes4",
							"name": "",
							"type": "bytes4"
						}
					],
					"stateMutability": "view",
					"type": "function"
				},
				{
					"inputs": [
						{
							"internalType": "address",
							"name": "",
							"type": "address"
						},
						{
							"internalType": "uint256",
							"name": "",
							"type": "uint256"
						}
					],
					"name": "activeI",
					"outputs": [
						{
							"internalType": "uint256",
							"name": "id",
							"type": "uint256"
						},
						{
							"internalType": "address",
							"name": "owner",
							"type": "address"
						},
						{
							"internalType": "enum ItemStorage.activeStatus",
							"name": "status",
							"type": "uint8"
						}
					],
					"stateMutability": "view",
					"type": "function"
				},
				{
					"inputs": [
						{
							"internalType": "address",
							"name": "",
							"type": "address"
						},
						{
							"internalType": "uint256",
							"name": "",
							"type": "uint256"
						}
					],
					"name": "ingameItem",
					"outputs": [
						{
							"internalType": "bytes32",
							"name": "id",
							"type": "bytes32"
						},
						{
							"internalType": "string",
							"name": "itemId",
							"type": "string"
						},
						{
							"internalType": "bool",
							"name": "ingame",
							"type": "bool"
						}
					],
					"stateMutability": "view",
					"type": "function"
				},
				{
					"inputs": [],
					"name": "sqfToken",
					"outputs": [
						{
							"internalType": "contract IERC20",
							"name": "",
							"type": "address"
						}
					],
					"stateMutability": "view",
					"type": "function"
				}
			],
			"devdoc": {
				"kind": "dev",
				"methods": {},
				"version": 1
			},
			"evm": {
				"assembly": "    /* \"contracts/NFTContract3/ItemStorage.sol\":837:1845  contract ItemStorage {... */\n  mstore(0x40, 0x80)\n  callvalue\n  dup1\n  iszero\n  tag_1\n  jumpi\n  0x00\n  dup1\n  revert\ntag_1:\n  pop\n  dataSize(sub_0)\n  dup1\n  dataOffset(sub_0)\n  0x00\n  codecopy\n  0x00\n  return\nstop\n\nsub_0: assembly {\n        /* \"contracts/NFTContract3/ItemStorage.sol\":837:1845  contract ItemStorage {... */\n      mstore(0x40, 0x80)\n      callvalue\n      dup1\n      iszero\n      tag_1\n      jumpi\n      0x00\n      dup1\n      revert\n    tag_1:\n      pop\n      jumpi(tag_2, lt(calldatasize, 0x04))\n      shr(0xe0, calldataload(0x00))\n      dup1\n      0x15b81dc3\n      eq\n      tag_3\n      jumpi\n      dup1\n      0x1e537c1a\n      eq\n      tag_4\n      jumpi\n      dup1\n      0x2b4c32be\n      eq\n      tag_5\n      jumpi\n      dup1\n      0xb8b713ca\n      eq\n      tag_6\n      jumpi\n    tag_2:\n      0x00\n      dup1\n      revert\n        /* \"contracts/NFTContract3/ItemStorage.sol\":1311:1333  IERC20 public sqfToken */\n    tag_3:\n      tag_7\n      tag_8\n      jump\t// in\n    tag_7:\n      mload(0x40)\n      tag_9\n      swap2\n      swap1\n      tag_10\n      jump\t// in\n    tag_9:\n      mload(0x40)\n      dup1\n      swap2\n      sub\n      swap1\n      return\n        /* \"contracts/NFTContract3/ItemStorage.sol\":1467:1533  mapping(address => mapping(uint256 => activeItems)) public activeI */\n    tag_4:\n      tag_11\n      0x04\n      dup1\n      calldatasize\n      sub\n      dup2\n      add\n      swap1\n      tag_12\n      swap2\n      swap1\n      tag_13\n      jump\t// in\n    tag_12:\n      tag_14\n      jump\t// in\n    tag_11:\n      mload(0x40)\n      tag_15\n      swap4\n      swap3\n      swap2\n      swap1\n      tag_16\n      jump\t// in\n    tag_15:\n      mload(0x40)\n      dup1\n      swap2\n      sub\n      swap1\n      return\n        /* \"contracts/NFTContract3/ItemStorage.sol\":1245:1305  bytes4 public constant ERC721_Interface = bytes4(0x80ac58cd) */\n    tag_5:\n      tag_17\n      tag_18\n      jump\t// in\n    tag_17:\n      mload(0x40)\n      tag_19\n      swap2\n      swap1\n      tag_20\n      jump\t// in\n    tag_19:\n      mload(0x40)\n      dup1\n      swap2\n      sub\n      swap1\n      return\n        /* \"contracts/NFTContract3/ItemStorage.sol\":1539:1608  mapping(address => mapping(uint256 => ingameItems)) public ingameItem */\n    tag_6:\n      tag_21\n      0x04\n      dup1\n      calldatasize\n      sub\n      dup2\n      add\n      swap1\n      tag_22\n      swap2\n      swap1\n      tag_13\n      jump\t// in\n    tag_22:\n      tag_23\n      jump\t// in\n    tag_21:\n      mload(0x40)\n      tag_24\n      swap4\n      swap3\n      swap2\n      swap1\n      tag_25\n      jump\t// in\n    tag_24:\n      mload(0x40)\n      dup1\n      swap2\n      sub\n      swap1\n      return\n        /* \"contracts/NFTContract3/ItemStorage.sol\":1311:1333  IERC20 public sqfToken */\n    tag_8:\n      0x00\n      dup1\n      sload\n      swap1\n      0x0100\n      exp\n      swap1\n      div\n      0xffffffffffffffffffffffffffffffffffffffff\n      and\n      dup2\n      jump\t// out\n        /* \"contracts/NFTContract3/ItemStorage.sol\":1467:1533  mapping(address => mapping(uint256 => activeItems)) public activeI */\n    tag_14:\n      mstore(0x20, 0x02)\n      dup2\n      0x00\n      mstore\n      mstore(0x20, keccak256(0x00, 0x40))\n      dup1\n      0x00\n      mstore\n      keccak256(0x00, 0x40)\n      0x00\n      swap2\n      pop\n      swap2\n      pop\n      pop\n      dup1\n      0x00\n      add\n      sload\n      swap1\n      dup1\n      0x01\n      add\n      0x00\n      swap1\n      sload\n      swap1\n      0x0100\n      exp\n      swap1\n      div\n      0xffffffffffffffffffffffffffffffffffffffff\n      and\n      swap1\n      dup1\n      0x01\n      add\n      0x14\n      swap1\n      sload\n      swap1\n      0x0100\n      exp\n      swap1\n      div\n      0xff\n      and\n      swap1\n      pop\n      dup4\n      jump\t// out\n        /* \"contracts/NFTContract3/ItemStorage.sol\":1245:1305  bytes4 public constant ERC721_Interface = bytes4(0x80ac58cd) */\n    tag_18:\n        /* \"contracts/NFTContract3/ItemStorage.sol\":1294:1304  0x80ac58cd */\n      0x80ac58cd\n        /* \"contracts/NFTContract3/ItemStorage.sol\":1287:1305  bytes4(0x80ac58cd) */\n      0xe0\n      shl\n        /* \"contracts/NFTContract3/ItemStorage.sol\":1245:1305  bytes4 public constant ERC721_Interface = bytes4(0x80ac58cd) */\n      dup2\n      jump\t// out\n        /* \"contracts/NFTContract3/ItemStorage.sol\":1539:1608  mapping(address => mapping(uint256 => ingameItems)) public ingameItem */\n    tag_23:\n      mstore(0x20, 0x03)\n      dup2\n      0x00\n      mstore\n      mstore(0x20, keccak256(0x00, 0x40))\n      dup1\n      0x00\n      mstore\n      keccak256(0x00, 0x40)\n      0x00\n      swap2\n      pop\n      swap2\n      pop\n      pop\n      dup1\n      0x00\n      add\n      sload\n      swap1\n      dup1\n      0x01\n      add\n      dup1\n      sload\n      tag_26\n      swap1\n      tag_27\n      jump\t// in\n    tag_26:\n      dup1\n      0x1f\n      add\n      0x20\n      dup1\n      swap2\n      div\n      mul\n      0x20\n      add\n      mload(0x40)\n      swap1\n      dup2\n      add\n      0x40\n      mstore\n      dup1\n      swap3\n      swap2\n      swap1\n      dup2\n      dup2\n      mstore\n      0x20\n      add\n      dup3\n      dup1\n      sload\n      tag_28\n      swap1\n      tag_27\n      jump\t// in\n    tag_28:\n      dup1\n      iszero\n      tag_29\n      jumpi\n      dup1\n      0x1f\n      lt\n      tag_30\n      jumpi\n      0x0100\n      dup1\n      dup4\n      sload\n      div\n      mul\n      dup4\n      mstore\n      swap2\n      0x20\n      add\n      swap2\n      jump(tag_29)\n    tag_30:\n      dup3\n      add\n      swap2\n      swap1\n      0x00\n      mstore\n      keccak256(0x00, 0x20)\n      swap1\n    tag_31:\n      dup2\n      sload\n      dup2\n      mstore\n      swap1\n      0x01\n      add\n      swap1\n      0x20\n      add\n      dup1\n      dup4\n      gt\n      tag_31\n      jumpi\n      dup3\n      swap1\n      sub\n      0x1f\n      and\n      dup3\n      add\n      swap2\n    tag_29:\n      pop\n      pop\n      pop\n      pop\n      pop\n      swap1\n      dup1\n      0x02\n      add\n      0x00\n      swap1\n      sload\n      swap1\n      0x0100\n      exp\n      swap1\n      div\n      0xff\n      and\n      swap1\n      pop\n      dup4\n      jump\t// out\n        /* \"#utility.yul\":7:133   */\n    tag_32:\n        /* \"#utility.yul\":44:51   */\n      0x00\n        /* \"#utility.yul\":84:126   */\n      0xffffffffffffffffffffffffffffffffffffffff\n        /* \"#utility.yul\":77:82   */\n      dup3\n        /* \"#utility.yul\":73:127   */\n      and\n        /* \"#utility.yul\":62:127   */\n      swap1\n      pop\n        /* \"#utility.yul\":7:133   */\n      swap2\n      swap1\n      pop\n      jump\t// out\n        /* \"#utility.yul\":139:199   */\n    tag_33:\n        /* \"#utility.yul\":167:170   */\n      0x00\n        /* \"#utility.yul\":188:193   */\n      dup2\n        /* \"#utility.yul\":181:193   */\n      swap1\n      pop\n        /* \"#utility.yul\":139:199   */\n      swap2\n      swap1\n      pop\n      jump\t// out\n        /* \"#utility.yul\":205:347   */\n    tag_34:\n        /* \"#utility.yul\":255:264   */\n      0x00\n        /* \"#utility.yul\":288:341   */\n      tag_70\n        /* \"#utility.yul\":306:340   */\n      tag_71\n        /* \"#utility.yul\":315:339   */\n      tag_72\n        /* \"#utility.yul\":333:338   */\n      dup5\n        /* \"#utility.yul\":315:339   */\n      tag_32\n      jump\t// in\n    tag_72:\n        /* \"#utility.yul\":306:340   */\n      tag_33\n      jump\t// in\n    tag_71:\n        /* \"#utility.yul\":288:341   */\n      tag_32\n      jump\t// in\n    tag_70:\n        /* \"#utility.yul\":275:341   */\n      swap1\n      pop\n        /* \"#utility.yul\":205:347   */\n      swap2\n      swap1\n      pop\n      jump\t// out\n        /* \"#utility.yul\":353:479   */\n    tag_35:\n        /* \"#utility.yul\":403:412   */\n      0x00\n        /* \"#utility.yul\":436:473   */\n      tag_74\n        /* \"#utility.yul\":467:472   */\n      dup3\n        /* \"#utility.yul\":436:473   */\n      tag_34\n      jump\t// in\n    tag_74:\n        /* \"#utility.yul\":423:473   */\n      swap1\n      pop\n        /* \"#utility.yul\":353:479   */\n      swap2\n      swap1\n      pop\n      jump\t// out\n        /* \"#utility.yul\":485:624   */\n    tag_36:\n        /* \"#utility.yul\":548:557   */\n      0x00\n        /* \"#utility.yul\":581:618   */\n      tag_76\n        /* \"#utility.yul\":612:617   */\n      dup3\n        /* \"#utility.yul\":581:618   */\n      tag_35\n      jump\t// in\n    tag_76:\n        /* \"#utility.yul\":568:618   */\n      swap1\n      pop\n        /* \"#utility.yul\":485:624   */\n      swap2\n      swap1\n      pop\n      jump\t// out\n        /* \"#utility.yul\":630:787   */\n    tag_37:\n        /* \"#utility.yul\":730:780   */\n      tag_78\n        /* \"#utility.yul\":774:779   */\n      dup2\n        /* \"#utility.yul\":730:780   */\n      tag_36\n      jump\t// in\n    tag_78:\n        /* \"#utility.yul\":725:728   */\n      dup3\n        /* \"#utility.yul\":718:781   */\n      mstore\n        /* \"#utility.yul\":630:787   */\n      pop\n      pop\n      jump\t// out\n        /* \"#utility.yul\":793:1041   */\n    tag_10:\n        /* \"#utility.yul\":899:903   */\n      0x00\n        /* \"#utility.yul\":937:939   */\n      0x20\n        /* \"#utility.yul\":926:935   */\n      dup3\n        /* \"#utility.yul\":922:940   */\n      add\n        /* \"#utility.yul\":914:940   */\n      swap1\n      pop\n        /* \"#utility.yul\":950:1034   */\n      tag_80\n        /* \"#utility.yul\":1031:1032   */\n      0x00\n        /* \"#utility.yul\":1020:1029   */\n      dup4\n        /* \"#utility.yul\":1016:1033   */\n      add\n        /* \"#utility.yul\":1007:1013   */\n      dup5\n        /* \"#utility.yul\":950:1034   */\n      tag_37\n      jump\t// in\n    tag_80:\n        /* \"#utility.yul\":793:1041   */\n      swap3\n      swap2\n      pop\n      pop\n      jump\t// out\n        /* \"#utility.yul\":1128:1245   */\n    tag_39:\n        /* \"#utility.yul\":1237:1238   */\n      0x00\n        /* \"#utility.yul\":1234:1235   */\n      dup1\n        /* \"#utility.yul\":1227:1239   */\n      revert\n        /* \"#utility.yul\":1374:1470   */\n    tag_41:\n        /* \"#utility.yul\":1411:1418   */\n      0x00\n        /* \"#utility.yul\":1440:1464   */\n      tag_85\n        /* \"#utility.yul\":1458:1463   */\n      dup3\n        /* \"#utility.yul\":1440:1464   */\n      tag_32\n      jump\t// in\n    tag_85:\n        /* \"#utility.yul\":1429:1464   */\n      swap1\n      pop\n        /* \"#utility.yul\":1374:1470   */\n      swap2\n      swap1\n      pop\n      jump\t// out\n        /* \"#utility.yul\":1476:1598   */\n    tag_42:\n        /* \"#utility.yul\":1549:1573   */\n      tag_87\n        /* \"#utility.yul\":1567:1572   */\n      dup2\n        /* \"#utility.yul\":1549:1573   */\n      tag_41\n      jump\t// in\n    tag_87:\n        /* \"#utility.yul\":1542:1547   */\n      dup2\n        /* \"#utility.yul\":1539:1574   */\n      eq\n        /* \"#utility.yul\":1529:1592   */\n      tag_88\n      jumpi\n        /* \"#utility.yul\":1588:1589   */\n      0x00\n        /* \"#utility.yul\":1585:1586   */\n      dup1\n        /* \"#utility.yul\":1578:1590   */\n      revert\n        /* \"#utility.yul\":1529:1592   */\n    tag_88:\n        /* \"#utility.yul\":1476:1598   */\n      pop\n      jump\t// out\n        /* \"#utility.yul\":1604:1743   */\n    tag_43:\n        /* \"#utility.yul\":1650:1655   */\n      0x00\n        /* \"#utility.yul\":1688:1694   */\n      dup2\n        /* \"#utility.yul\":1675:1695   */\n      calldataload\n        /* \"#utility.yul\":1666:1695   */\n      swap1\n      pop\n        /* \"#utility.yul\":1704:1737   */\n      tag_90\n        /* \"#utility.yul\":1731:1736   */\n      dup2\n        /* \"#utility.yul\":1704:1737   */\n      tag_42\n      jump\t// in\n    tag_90:\n        /* \"#utility.yul\":1604:1743   */\n      swap3\n      swap2\n      pop\n      pop\n      jump\t// out\n        /* \"#utility.yul\":1749:1826   */\n    tag_44:\n        /* \"#utility.yul\":1786:1793   */\n      0x00\n        /* \"#utility.yul\":1815:1820   */\n      dup2\n        /* \"#utility.yul\":1804:1820   */\n      swap1\n      pop\n        /* \"#utility.yul\":1749:1826   */\n      swap2\n      swap1\n      pop\n      jump\t// out\n        /* \"#utility.yul\":1832:1954   */\n    tag_45:\n        /* \"#utility.yul\":1905:1929   */\n      tag_93\n        /* \"#utility.yul\":1923:1928   */\n      dup2\n        /* \"#utility.yul\":1905:1929   */\n      tag_44\n      jump\t// in\n    tag_93:\n        /* \"#utility.yul\":1898:1903   */\n      dup2\n        /* \"#utility.yul\":1895:1930   */\n      eq\n        /* \"#utility.yul\":1885:1948   */\n      tag_94\n      jumpi\n        /* \"#utility.yul\":1944:1945   */\n      0x00\n        /* \"#utility.yul\":1941:1942   */\n      dup1\n        /* \"#utility.yul\":1934:1946   */\n      revert\n        /* \"#utility.yul\":1885:1948   */\n    tag_94:\n        /* \"#utility.yul\":1832:1954   */\n      pop\n      jump\t// out\n        /* \"#utility.yul\":1960:2099   */\n    tag_46:\n        /* \"#utility.yul\":2006:2011   */\n      0x00\n        /* \"#utility.yul\":2044:2050   */\n      dup2\n        /* \"#utility.yul\":2031:2051   */\n      calldataload\n        /* \"#utility.yul\":2022:2051   */\n      swap1\n      pop\n        /* \"#utility.yul\":2060:2093   */\n      tag_96\n        /* \"#utility.yul\":2087:2092   */\n      dup2\n        /* \"#utility.yul\":2060:2093   */\n      tag_45\n      jump\t// in\n    tag_96:\n        /* \"#utility.yul\":1960:2099   */\n      swap3\n      swap2\n      pop\n      pop\n      jump\t// out\n        /* \"#utility.yul\":2105:2579   */\n    tag_13:\n        /* \"#utility.yul\":2173:2179   */\n      0x00\n        /* \"#utility.yul\":2181:2187   */\n      dup1\n        /* \"#utility.yul\":2230:2232   */\n      0x40\n        /* \"#utility.yul\":2218:2227   */\n      dup4\n        /* \"#utility.yul\":2209:2216   */\n      dup6\n        /* \"#utility.yul\":2205:2228   */\n      sub\n        /* \"#utility.yul\":2201:2233   */\n      slt\n        /* \"#utility.yul\":2198:2317   */\n      iszero\n      tag_98\n      jumpi\n        /* \"#utility.yul\":2236:2315   */\n      tag_99\n      tag_39\n      jump\t// in\n    tag_99:\n        /* \"#utility.yul\":2198:2317   */\n    tag_98:\n        /* \"#utility.yul\":2356:2357   */\n      0x00\n        /* \"#utility.yul\":2381:2434   */\n      tag_100\n        /* \"#utility.yul\":2426:2433   */\n      dup6\n        /* \"#utility.yul\":2417:2423   */\n      dup3\n        /* \"#utility.yul\":2406:2415   */\n      dup7\n        /* \"#utility.yul\":2402:2424   */\n      add\n        /* \"#utility.yul\":2381:2434   */\n      tag_43\n      jump\t// in\n    tag_100:\n        /* \"#utility.yul\":2371:2434   */\n      swap3\n      pop\n        /* \"#utility.yul\":2327:2444   */\n      pop\n        /* \"#utility.yul\":2483:2485   */\n      0x20\n        /* \"#utility.yul\":2509:2562   */\n      tag_101\n        /* \"#utility.yul\":2554:2561   */\n      dup6\n        /* \"#utility.yul\":2545:2551   */\n      dup3\n        /* \"#utility.yul\":2534:2543   */\n      dup7\n        /* \"#utility.yul\":2530:2552   */\n      add\n        /* \"#utility.yul\":2509:2562   */\n      tag_46\n      jump\t// in\n    tag_101:\n        /* \"#utility.yul\":2499:2562   */\n      swap2\n      pop\n        /* \"#utility.yul\":2454:2572   */\n      pop\n        /* \"#utility.yul\":2105:2579   */\n      swap3\n      pop\n      swap3\n      swap1\n      pop\n      jump\t// out\n        /* \"#utility.yul\":2585:2703   */\n    tag_47:\n        /* \"#utility.yul\":2672:2696   */\n      tag_103\n        /* \"#utility.yul\":2690:2695   */\n      dup2\n        /* \"#utility.yul\":2672:2696   */\n      tag_44\n      jump\t// in\n    tag_103:\n        /* \"#utility.yul\":2667:2670   */\n      dup3\n        /* \"#utility.yul\":2660:2697   */\n      mstore\n        /* \"#utility.yul\":2585:2703   */\n      pop\n      pop\n      jump\t// out\n        /* \"#utility.yul\":2709:2827   */\n    tag_48:\n        /* \"#utility.yul\":2796:2820   */\n      tag_105\n        /* \"#utility.yul\":2814:2819   */\n      dup2\n        /* \"#utility.yul\":2796:2820   */\n      tag_41\n      jump\t// in\n    tag_105:\n        /* \"#utility.yul\":2791:2794   */\n      dup3\n        /* \"#utility.yul\":2784:2821   */\n      mstore\n        /* \"#utility.yul\":2709:2827   */\n      pop\n      pop\n      jump\t// out\n        /* \"#utility.yul\":2833:3013   */\n    tag_49:\n        /* \"#utility.yul\":2881:2958   */\n      0x4e487b7100000000000000000000000000000000000000000000000000000000\n        /* \"#utility.yul\":2878:2879   */\n      0x00\n        /* \"#utility.yul\":2871:2959   */\n      mstore\n        /* \"#utility.yul\":2978:2982   */\n      0x21\n        /* \"#utility.yul\":2975:2976   */\n      0x04\n        /* \"#utility.yul\":2968:2983   */\n      mstore\n        /* \"#utility.yul\":3002:3006   */\n      0x24\n        /* \"#utility.yul\":2999:3000   */\n      0x00\n        /* \"#utility.yul\":2992:3007   */\n      revert\n        /* \"#utility.yul\":3019:3139   */\n    tag_50:\n        /* \"#utility.yul\":3107:3108   */\n      0x04\n        /* \"#utility.yul\":3100:3105   */\n      dup2\n        /* \"#utility.yul\":3097:3109   */\n      lt\n        /* \"#utility.yul\":3087:3133   */\n      tag_108\n      jumpi\n        /* \"#utility.yul\":3113:3131   */\n      tag_109\n      tag_49\n      jump\t// in\n    tag_109:\n        /* \"#utility.yul\":3087:3133   */\n    tag_108:\n        /* \"#utility.yul\":3019:3139   */\n      pop\n      jump\t// out\n        /* \"#utility.yul\":3145:3286   */\n    tag_51:\n        /* \"#utility.yul\":3197:3204   */\n      0x00\n        /* \"#utility.yul\":3226:3231   */\n      dup2\n        /* \"#utility.yul\":3215:3231   */\n      swap1\n      pop\n        /* \"#utility.yul\":3232:3280   */\n      tag_111\n        /* \"#utility.yul\":3274:3279   */\n      dup3\n        /* \"#utility.yul\":3232:3280   */\n      tag_50\n      jump\t// in\n    tag_111:\n        /* \"#utility.yul\":3145:3286   */\n      swap2\n      swap1\n      pop\n      jump\t// out\n        /* \"#utility.yul\":3292:3433   */\n    tag_52:\n        /* \"#utility.yul\":3355:3364   */\n      0x00\n        /* \"#utility.yul\":3388:3427   */\n      tag_113\n        /* \"#utility.yul\":3421:3426   */\n      dup3\n        /* \"#utility.yul\":3388:3427   */\n      tag_51\n      jump\t// in\n    tag_113:\n        /* \"#utility.yul\":3375:3427   */\n      swap1\n      pop\n        /* \"#utility.yul\":3292:3433   */\n      swap2\n      swap1\n      pop\n      jump\t// out\n        /* \"#utility.yul\":3439:3596   */\n    tag_53:\n        /* \"#utility.yul\":3539:3589   */\n      tag_115\n        /* \"#utility.yul\":3583:3588   */\n      dup2\n        /* \"#utility.yul\":3539:3589   */\n      tag_52\n      jump\t// in\n    tag_115:\n        /* \"#utility.yul\":3534:3537   */\n      dup3\n        /* \"#utility.yul\":3527:3590   */\n      mstore\n        /* \"#utility.yul\":3439:3596   */\n      pop\n      pop\n      jump\t// out\n        /* \"#utility.yul\":3602:4070   */\n    tag_16:\n        /* \"#utility.yul\":3764:3768   */\n      0x00\n        /* \"#utility.yul\":3802:3804   */\n      0x60\n        /* \"#utility.yul\":3791:3800   */\n      dup3\n        /* \"#utility.yul\":3787:3805   */\n      add\n        /* \"#utility.yul\":3779:3805   */\n      swap1\n      pop\n        /* \"#utility.yul\":3815:3886   */\n      tag_117\n        /* \"#utility.yul\":3883:3884   */\n      0x00\n        /* \"#utility.yul\":3872:3881   */\n      dup4\n        /* \"#utility.yul\":3868:3885   */\n      add\n        /* \"#utility.yul\":3859:3865   */\n      dup7\n        /* \"#utility.yul\":3815:3886   */\n      tag_47\n      jump\t// in\n    tag_117:\n        /* \"#utility.yul\":3896:3968   */\n      tag_118\n        /* \"#utility.yul\":3964:3966   */\n      0x20\n        /* \"#utility.yul\":3953:3962   */\n      dup4\n        /* \"#utility.yul\":3949:3967   */\n      add\n        /* \"#utility.yul\":3940:3946   */\n      dup6\n        /* \"#utility.yul\":3896:3968   */\n      tag_48\n      jump\t// in\n    tag_118:\n        /* \"#utility.yul\":3978:4063   */\n      tag_119\n        /* \"#utility.yul\":4059:4061   */\n      0x40\n        /* \"#utility.yul\":4048:4057   */\n      dup4\n        /* \"#utility.yul\":4044:4062   */\n      add\n        /* \"#utility.yul\":4035:4041   */\n      dup5\n        /* \"#utility.yul\":3978:4063   */\n      tag_53\n      jump\t// in\n    tag_119:\n        /* \"#utility.yul\":3602:4070   */\n      swap5\n      swap4\n      pop\n      pop\n      pop\n      pop\n      jump\t// out\n        /* \"#utility.yul\":4076:4225   */\n    tag_54:\n        /* \"#utility.yul\":4112:4119   */\n      0x00\n        /* \"#utility.yul\":4152:4218   */\n      0xffffffff00000000000000000000000000000000000000000000000000000000\n        /* \"#utility.yul\":4145:4150   */\n      dup3\n        /* \"#utility.yul\":4141:4219   */\n      and\n        /* \"#utility.yul\":4130:4219   */\n      swap1\n      pop\n        /* \"#utility.yul\":4076:4225   */\n      swap2\n      swap1\n      pop\n      jump\t// out\n        /* \"#utility.yul\":4231:4346   */\n    tag_55:\n        /* \"#utility.yul\":4316:4339   */\n      tag_122\n        /* \"#utility.yul\":4333:4338   */\n      dup2\n        /* \"#utility.yul\":4316:4339   */\n      tag_54\n      jump\t// in\n    tag_122:\n        /* \"#utility.yul\":4311:4314   */\n      dup3\n        /* \"#utility.yul\":4304:4340   */\n      mstore\n        /* \"#utility.yul\":4231:4346   */\n      pop\n      pop\n      jump\t// out\n        /* \"#utility.yul\":4352:4570   */\n    tag_20:\n        /* \"#utility.yul\":4443:4447   */\n      0x00\n        /* \"#utility.yul\":4481:4483   */\n      0x20\n        /* \"#utility.yul\":4470:4479   */\n      dup3\n        /* \"#utility.yul\":4466:4484   */\n      add\n        /* \"#utility.yul\":4458:4484   */\n      swap1\n      pop\n        /* \"#utility.yul\":4494:4563   */\n      tag_124\n        /* \"#utility.yul\":4560:4561   */\n      0x00\n        /* \"#utility.yul\":4549:4558   */\n      dup4\n        /* \"#utility.yul\":4545:4562   */\n      add\n        /* \"#utility.yul\":4536:4542   */\n      dup5\n        /* \"#utility.yul\":4494:4563   */\n      tag_55\n      jump\t// in\n    tag_124:\n        /* \"#utility.yul\":4352:4570   */\n      swap3\n      swap2\n      pop\n      pop\n      jump\t// out\n        /* \"#utility.yul\":4576:4653   */\n    tag_56:\n        /* \"#utility.yul\":4613:4620   */\n      0x00\n        /* \"#utility.yul\":4642:4647   */\n      dup2\n        /* \"#utility.yul\":4631:4647   */\n      swap1\n      pop\n        /* \"#utility.yul\":4576:4653   */\n      swap2\n      swap1\n      pop\n      jump\t// out\n        /* \"#utility.yul\":4659:4777   */\n    tag_57:\n        /* \"#utility.yul\":4746:4770   */\n      tag_127\n        /* \"#utility.yul\":4764:4769   */\n      dup2\n        /* \"#utility.yul\":4746:4770   */\n      tag_56\n      jump\t// in\n    tag_127:\n        /* \"#utility.yul\":4741:4744   */\n      dup3\n        /* \"#utility.yul\":4734:4771   */\n      mstore\n        /* \"#utility.yul\":4659:4777   */\n      pop\n      pop\n      jump\t// out\n        /* \"#utility.yul\":4783:4882   */\n    tag_58:\n        /* \"#utility.yul\":4835:4841   */\n      0x00\n        /* \"#utility.yul\":4869:4874   */\n      dup2\n        /* \"#utility.yul\":4863:4875   */\n      mload\n        /* \"#utility.yul\":4853:4875   */\n      swap1\n      pop\n        /* \"#utility.yul\":4783:4882   */\n      swap2\n      swap1\n      pop\n      jump\t// out\n        /* \"#utility.yul\":4888:5057   */\n    tag_59:\n        /* \"#utility.yul\":4972:4983   */\n      0x00\n        /* \"#utility.yul\":5006:5012   */\n      dup3\n        /* \"#utility.yul\":5001:5004   */\n      dup3\n        /* \"#utility.yul\":4994:5013   */\n      mstore\n        /* \"#utility.yul\":5046:5050   */\n      0x20\n        /* \"#utility.yul\":5041:5044   */\n      dup3\n        /* \"#utility.yul\":5037:5051   */\n      add\n        /* \"#utility.yul\":5022:5051   */\n      swap1\n      pop\n        /* \"#utility.yul\":4888:5057   */\n      swap3\n      swap2\n      pop\n      pop\n      jump\t// out\n        /* \"#utility.yul\":5063:5370   */\n    tag_60:\n        /* \"#utility.yul\":5131:5132   */\n      0x00\n        /* \"#utility.yul\":5141:5254   */\n    tag_131:\n        /* \"#utility.yul\":5155:5161   */\n      dup4\n        /* \"#utility.yul\":5152:5153   */\n      dup2\n        /* \"#utility.yul\":5149:5162   */\n      lt\n        /* \"#utility.yul\":5141:5254   */\n      iszero\n      tag_133\n      jumpi\n        /* \"#utility.yul\":5240:5241   */\n      dup1\n        /* \"#utility.yul\":5235:5238   */\n      dup3\n        /* \"#utility.yul\":5231:5242   */\n      add\n        /* \"#utility.yul\":5225:5243   */\n      mload\n        /* \"#utility.yul\":5221:5222   */\n      dup2\n        /* \"#utility.yul\":5216:5219   */\n      dup5\n        /* \"#utility.yul\":5212:5223   */\n      add\n        /* \"#utility.yul\":5205:5244   */\n      mstore\n        /* \"#utility.yul\":5177:5179   */\n      0x20\n        /* \"#utility.yul\":5174:5175   */\n      dup2\n        /* \"#utility.yul\":5170:5180   */\n      add\n        /* \"#utility.yul\":5165:5180   */\n      swap1\n      pop\n        /* \"#utility.yul\":5141:5254   */\n      jump(tag_131)\n    tag_133:\n        /* \"#utility.yul\":5272:5278   */\n      dup4\n        /* \"#utility.yul\":5269:5270   */\n      dup2\n        /* \"#utility.yul\":5266:5279   */\n      gt\n        /* \"#utility.yul\":5263:5364   */\n      iszero\n      tag_134\n      jumpi\n        /* \"#utility.yul\":5352:5353   */\n      0x00\n        /* \"#utility.yul\":5343:5349   */\n      dup5\n        /* \"#utility.yul\":5338:5341   */\n      dup5\n        /* \"#utility.yul\":5334:5350   */\n      add\n        /* \"#utility.yul\":5327:5354   */\n      mstore\n        /* \"#utility.yul\":5263:5364   */\n    tag_134:\n        /* \"#utility.yul\":5112:5370   */\n      pop\n        /* \"#utility.yul\":5063:5370   */\n      pop\n      pop\n      pop\n      jump\t// out\n        /* \"#utility.yul\":5376:5478   */\n    tag_61:\n        /* \"#utility.yul\":5417:5423   */\n      0x00\n        /* \"#utility.yul\":5468:5470   */\n      0x1f\n        /* \"#utility.yul\":5464:5471   */\n      not\n        /* \"#utility.yul\":5459:5461   */\n      0x1f\n        /* \"#utility.yul\":5452:5457   */\n      dup4\n        /* \"#utility.yul\":5448:5462   */\n      add\n        /* \"#utility.yul\":5444:5472   */\n      and\n        /* \"#utility.yul\":5434:5472   */\n      swap1\n      pop\n        /* \"#utility.yul\":5376:5478   */\n      swap2\n      swap1\n      pop\n      jump\t// out\n        /* \"#utility.yul\":5484:5848   */\n    tag_62:\n        /* \"#utility.yul\":5572:5575   */\n      0x00\n        /* \"#utility.yul\":5600:5639   */\n      tag_137\n        /* \"#utility.yul\":5633:5638   */\n      dup3\n        /* \"#utility.yul\":5600:5639   */\n      tag_58\n      jump\t// in\n    tag_137:\n        /* \"#utility.yul\":5655:5726   */\n      tag_138\n        /* \"#utility.yul\":5719:5725   */\n      dup2\n        /* \"#utility.yul\":5714:5717   */\n      dup6\n        /* \"#utility.yul\":5655:5726   */\n      tag_59\n      jump\t// in\n    tag_138:\n        /* \"#utility.yul\":5648:5726   */\n      swap4\n      pop\n        /* \"#utility.yul\":5735:5787   */\n      tag_139\n        /* \"#utility.yul\":5780:5786   */\n      dup2\n        /* \"#utility.yul\":5775:5778   */\n      dup6\n        /* \"#utility.yul\":5768:5772   */\n      0x20\n        /* \"#utility.yul\":5761:5766   */\n      dup7\n        /* \"#utility.yul\":5757:5773   */\n      add\n        /* \"#utility.yul\":5735:5787   */\n      tag_60\n      jump\t// in\n    tag_139:\n        /* \"#utility.yul\":5812:5841   */\n      tag_140\n        /* \"#utility.yul\":5834:5840   */\n      dup2\n        /* \"#utility.yul\":5812:5841   */\n      tag_61\n      jump\t// in\n    tag_140:\n        /* \"#utility.yul\":5807:5810   */\n      dup5\n        /* \"#utility.yul\":5803:5842   */\n      add\n        /* \"#utility.yul\":5796:5842   */\n      swap2\n      pop\n        /* \"#utility.yul\":5576:5848   */\n      pop\n        /* \"#utility.yul\":5484:5848   */\n      swap3\n      swap2\n      pop\n      pop\n      jump\t// out\n        /* \"#utility.yul\":5854:5944   */\n    tag_63:\n        /* \"#utility.yul\":5888:5895   */\n      0x00\n        /* \"#utility.yul\":5931:5936   */\n      dup2\n        /* \"#utility.yul\":5924:5937   */\n      iszero\n        /* \"#utility.yul\":5917:5938   */\n      iszero\n        /* \"#utility.yul\":5906:5938   */\n      swap1\n      pop\n        /* \"#utility.yul\":5854:5944   */\n      swap2\n      swap1\n      pop\n      jump\t// out\n        /* \"#utility.yul\":5950:6059   */\n    tag_64:\n        /* \"#utility.yul\":6031:6052   */\n      tag_143\n        /* \"#utility.yul\":6046:6051   */\n      dup2\n        /* \"#utility.yul\":6031:6052   */\n      tag_63\n      jump\t// in\n    tag_143:\n        /* \"#utility.yul\":6026:6029   */\n      dup3\n        /* \"#utility.yul\":6019:6053   */\n      mstore\n        /* \"#utility.yul\":5950:6059   */\n      pop\n      pop\n      jump\t// out\n        /* \"#utility.yul\":6065:6586   */\n    tag_25:\n        /* \"#utility.yul\":6228:6232   */\n      0x00\n        /* \"#utility.yul\":6266:6268   */\n      0x60\n        /* \"#utility.yul\":6255:6264   */\n      dup3\n        /* \"#utility.yul\":6251:6269   */\n      add\n        /* \"#utility.yul\":6243:6269   */\n      swap1\n      pop\n        /* \"#utility.yul\":6279:6350   */\n      tag_145\n        /* \"#utility.yul\":6347:6348   */\n      0x00\n        /* \"#utility.yul\":6336:6345   */\n      dup4\n        /* \"#utility.yul\":6332:6349   */\n      add\n        /* \"#utility.yul\":6323:6329   */\n      dup7\n        /* \"#utility.yul\":6279:6350   */\n      tag_57\n      jump\t// in\n    tag_145:\n        /* \"#utility.yul\":6397:6406   */\n      dup2\n        /* \"#utility.yul\":6391:6395   */\n      dup2\n        /* \"#utility.yul\":6387:6407   */\n      sub\n        /* \"#utility.yul\":6382:6384   */\n      0x20\n        /* \"#utility.yul\":6371:6380   */\n      dup4\n        /* \"#utility.yul\":6367:6385   */\n      add\n        /* \"#utility.yul\":6360:6408   */\n      mstore\n        /* \"#utility.yul\":6425:6503   */\n      tag_146\n        /* \"#utility.yul\":6498:6502   */\n      dup2\n        /* \"#utility.yul\":6489:6495   */\n      dup6\n        /* \"#utility.yul\":6425:6503   */\n      tag_62\n      jump\t// in\n    tag_146:\n        /* \"#utility.yul\":6417:6503   */\n      swap1\n      pop\n        /* \"#utility.yul\":6513:6579   */\n      tag_147\n        /* \"#utility.yul\":6575:6577   */\n      0x40\n        /* \"#utility.yul\":6564:6573   */\n      dup4\n        /* \"#utility.yul\":6560:6578   */\n      add\n        /* \"#utility.yul\":6551:6557   */\n      dup5\n        /* \"#utility.yul\":6513:6579   */\n      tag_64\n      jump\t// in\n    tag_147:\n        /* \"#utility.yul\":6065:6586   */\n      swap5\n      swap4\n      pop\n      pop\n      pop\n      pop\n      jump\t// out\n        /* \"#utility.yul\":6592:6772   */\n    tag_65:\n        /* \"#utility.yul\":6640:6717   */\n      0x4e487b7100000000000000000000000000000000000000000000000000000000\n        /* \"#utility.yul\":6637:6638   */\n      0x00\n        /* \"#utility.yul\":6630:6718   */\n      mstore\n        /* \"#utility.yul\":6737:6741   */\n      0x22\n        /* \"#utility.yul\":6734:6735   */\n      0x04\n        /* \"#utility.yul\":6727:6742   */\n      mstore\n        /* \"#utility.yul\":6761:6765   */\n      0x24\n        /* \"#utility.yul\":6758:6759   */\n      0x00\n        /* \"#utility.yul\":6751:6766   */\n      revert\n        /* \"#utility.yul\":6778:7098   */\n    tag_27:\n        /* \"#utility.yul\":6822:6828   */\n      0x00\n        /* \"#utility.yul\":6859:6860   */\n      0x02\n        /* \"#utility.yul\":6853:6857   */\n      dup3\n        /* \"#utility.yul\":6849:6861   */\n      div\n        /* \"#utility.yul\":6839:6861   */\n      swap1\n      pop\n        /* \"#utility.yul\":6906:6907   */\n      0x01\n        /* \"#utility.yul\":6900:6904   */\n      dup3\n        /* \"#utility.yul\":6896:6908   */\n      and\n        /* \"#utility.yul\":6927:6945   */\n      dup1\n        /* \"#utility.yul\":6917:6998   */\n      tag_150\n      jumpi\n        /* \"#utility.yul\":6983:6987   */\n      0x7f\n        /* \"#utility.yul\":6975:6981   */\n      dup3\n        /* \"#utility.yul\":6971:6988   */\n      and\n        /* \"#utility.yul\":6961:6988   */\n      swap2\n      pop\n        /* \"#utility.yul\":6917:6998   */\n    tag_150:\n        /* \"#utility.yul\":7045:7047   */\n      0x20\n        /* \"#utility.yul\":7037:7043   */\n      dup3\n        /* \"#utility.yul\":7034:7048   */\n      lt\n        /* \"#utility.yul\":7014:7032   */\n      dup2\n        /* \"#utility.yul\":7011:7049   */\n      sub\n        /* \"#utility.yul\":7008:7092   */\n      tag_151\n      jumpi\n        /* \"#utility.yul\":7064:7082   */\n      tag_152\n      tag_65\n      jump\t// in\n    tag_152:\n        /* \"#utility.yul\":7008:7092   */\n    tag_151:\n        /* \"#utility.yul\":6829:7098   */\n      pop\n        /* \"#utility.yul\":6778:7098   */\n      swap2\n      swap1\n      pop\n      jump\t// out\n\n    auxdata: 0xa2646970667358221220a6bbebdffceb939d345ac3a4c6b883fdab2c5faa4b231c0bd2dde79dcf3c3f2f64736f6c634300080d0033\n}\n",
				"bytecode": {
					"linkReferences": {},
					"object": "608060405234801561001057600080fd5b50610666806100206000396000f3fe608060405234801561001057600080fd5b506004361061004c5760003560e01c806315b81dc3146100515780631e537c1a1461006f5780632b4c32be146100a1578063b8b713ca146100bf575b600080fd5b6100596100f1565b60405161006691906102cf565b60405180910390f35b61008960048036038101906100849190610363565b610115565b60405161009893929190610438565b60405180910390f35b6100a9610179565b6040516100b691906104aa565b60405180910390f35b6100d960048036038101906100d49190610363565b610184565b6040516100e893929190610592565b60405180910390f35b60008054906101000a900473ffffffffffffffffffffffffffffffffffffffff1681565b6002602052816000526040600020602052806000526040600020600091509150508060000154908060010160009054906101000a900473ffffffffffffffffffffffffffffffffffffffff16908060010160149054906101000a900460ff16905083565b6380ac58cd60e01b81565b6003602052816000526040600020602052806000526040600020600091509150508060000154908060010180546101ba906105ff565b80601f01602080910402602001604051908101604052809291908181526020018280546101e6906105ff565b80156102335780601f1061020857610100808354040283529160200191610233565b820191906000526020600020905b81548152906001019060200180831161021657829003601f168201915b5050505050908060020160009054906101000a900460ff16905083565b600073ffffffffffffffffffffffffffffffffffffffff82169050919050565b6000819050919050565b600061029561029061028b84610250565b610270565b610250565b9050919050565b60006102a78261027a565b9050919050565b60006102b98261029c565b9050919050565b6102c9816102ae565b82525050565b60006020820190506102e460008301846102c0565b92915050565b600080fd5b60006102fa82610250565b9050919050565b61030a816102ef565b811461031557600080fd5b50565b60008135905061032781610301565b92915050565b6000819050919050565b6103408161032d565b811461034b57600080fd5b50565b60008135905061035d81610337565b92915050565b6000806040838503121561037a576103796102ea565b5b600061038885828601610318565b92505060206103998582860161034e565b9150509250929050565b6103ac8161032d565b82525050565b6103bb816102ef565b82525050565b7f4e487b7100000000000000000000000000000000000000000000000000000000600052602160045260246000fd5b60048110610401576104006103c1565b5b50565b6000819050610412826103f0565b919050565b600061042282610404565b9050919050565b61043281610417565b82525050565b600060608201905061044d60008301866103a3565b61045a60208301856103b2565b6104676040830184610429565b949350505050565b60007fffffffff0000000000000000000000000000000000000000000000000000000082169050919050565b6104a48161046f565b82525050565b60006020820190506104bf600083018461049b565b92915050565b6000819050919050565b6104d8816104c5565b82525050565b600081519050919050565b600082825260208201905092915050565b60005b838110156105185780820151818401526020810190506104fd565b83811115610527576000848401525b50505050565b6000601f19601f8301169050919050565b6000610549826104de565b61055381856104e9565b93506105638185602086016104fa565b61056c8161052d565b840191505092915050565b60008115159050919050565b61058c81610577565b82525050565b60006060820190506105a760008301866104cf565b81810360208301526105b9818561053e565b90506105c86040830184610583565b949350505050565b7f4e487b7100000000000000000000000000000000000000000000000000000000600052602260045260246000fd5b6000600282049050600182168061061757607f821691505b60208210810361062a576106296105d0565b5b5091905056fea2646970667358221220a6bbebdffceb939d345ac3a4c6b883fdab2c5faa4b231c0bd2dde79dcf3c3f2f64736f6c634300080d0033",
					"opcodes": "PUSH1 0x80 PUSH1 0x40 MSTORE CALLVALUE DUP1 ISZERO PUSH2 0x10 JUMPI PUSH1 0x0 DUP1 REVERT JUMPDEST POP PUSH2 0x666 DUP1 PUSH2 0x20 PUSH1 0x0 CODECOPY PUSH1 0x0 RETURN INVALID PUSH1 0x80 PUSH1 0x40 MSTORE CALLVALUE DUP1 ISZERO PUSH2 0x10 JUMPI PUSH1 0x0 DUP1 REVERT JUMPDEST POP PUSH1 0x4 CALLDATASIZE LT PUSH2 0x4C JUMPI PUSH1 0x0 CALLDATALOAD PUSH1 0xE0 SHR DUP1 PUSH4 0x15B81DC3 EQ PUSH2 0x51 JUMPI DUP1 PUSH4 0x1E537C1A EQ PUSH2 0x6F JUMPI DUP1 PUSH4 0x2B4C32BE EQ PUSH2 0xA1 JUMPI DUP1 PUSH4 0xB8B713CA EQ PUSH2 0xBF JUMPI JUMPDEST PUSH1 0x0 DUP1 REVERT JUMPDEST PUSH2 0x59 PUSH2 0xF1 JUMP JUMPDEST PUSH1 0x40 MLOAD PUSH2 0x66 SWAP2 SWAP1 PUSH2 0x2CF JUMP JUMPDEST PUSH1 0x40 MLOAD DUP1 SWAP2 SUB SWAP1 RETURN JUMPDEST PUSH2 0x89 PUSH1 0x4 DUP1 CALLDATASIZE SUB DUP2 ADD SWAP1 PUSH2 0x84 SWAP2 SWAP1 PUSH2 0x363 JUMP JUMPDEST PUSH2 0x115 JUMP JUMPDEST PUSH1 0x40 MLOAD PUSH2 0x98 SWAP4 SWAP3 SWAP2 SWAP1 PUSH2 0x438 JUMP JUMPDEST PUSH1 0x40 MLOAD DUP1 SWAP2 SUB SWAP1 RETURN JUMPDEST PUSH2 0xA9 PUSH2 0x179 JUMP JUMPDEST PUSH1 0x40 MLOAD PUSH2 0xB6 SWAP2 SWAP1 PUSH2 0x4AA JUMP JUMPDEST PUSH1 0x40 MLOAD DUP1 SWAP2 SUB SWAP1 RETURN JUMPDEST PUSH2 0xD9 PUSH1 0x4 DUP1 CALLDATASIZE SUB DUP2 ADD SWAP1 PUSH2 0xD4 SWAP2 SWAP1 PUSH2 0x363 JUMP JUMPDEST PUSH2 0x184 JUMP JUMPDEST PUSH1 0x40 MLOAD PUSH2 0xE8 SWAP4 SWAP3 SWAP2 SWAP1 PUSH2 0x592 JUMP JUMPDEST PUSH1 0x40 MLOAD DUP1 SWAP2 SUB SWAP1 RETURN JUMPDEST PUSH1 0x0 DUP1 SLOAD SWAP1 PUSH2 0x100 EXP SWAP1 DIV PUSH20 0xFFFFFFFFFFFFFFFFFFFFFFFFFFFFFFFFFFFFFFFF AND DUP2 JUMP JUMPDEST PUSH1 0x2 PUSH1 0x20 MSTORE DUP2 PUSH1 0x0 MSTORE PUSH1 0x40 PUSH1 0x0 KECCAK256 PUSH1 0x20 MSTORE DUP1 PUSH1 0x0 MSTORE PUSH1 0x40 PUSH1 0x0 KECCAK256 PUSH1 0x0 SWAP2 POP SWAP2 POP POP DUP1 PUSH1 0x0 ADD SLOAD SWAP1 DUP1 PUSH1 0x1 ADD PUSH1 0x0 SWAP1 SLOAD SWAP1 PUSH2 0x100 EXP SWAP1 DIV PUSH20 0xFFFFFFFFFFFFFFFFFFFFFFFFFFFFFFFFFFFFFFFF AND SWAP1 DUP1 PUSH1 0x1 ADD PUSH1 0x14 SWAP1 SLOAD SWAP1 PUSH2 0x100 EXP SWAP1 DIV PUSH1 0xFF AND SWAP1 POP DUP4 JUMP JUMPDEST PUSH4 0x80AC58CD PUSH1 0xE0 SHL DUP2 JUMP JUMPDEST PUSH1 0x3 PUSH1 0x20 MSTORE DUP2 PUSH1 0x0 MSTORE PUSH1 0x40 PUSH1 0x0 KECCAK256 PUSH1 0x20 MSTORE DUP1 PUSH1 0x0 MSTORE PUSH1 0x40 PUSH1 0x0 KECCAK256 PUSH1 0x0 SWAP2 POP SWAP2 POP POP DUP1 PUSH1 0x0 ADD SLOAD SWAP1 DUP1 PUSH1 0x1 ADD DUP1 SLOAD PUSH2 0x1BA SWAP1 PUSH2 0x5FF JUMP JUMPDEST DUP1 PUSH1 0x1F ADD PUSH1 0x20 DUP1 SWAP2 DIV MUL PUSH1 0x20 ADD PUSH1 0x40 MLOAD SWAP1 DUP2 ADD PUSH1 0x40 MSTORE DUP1 SWAP3 SWAP2 SWAP1 DUP2 DUP2 MSTORE PUSH1 0x20 ADD DUP3 DUP1 SLOAD PUSH2 0x1E6 SWAP1 PUSH2 0x5FF JUMP JUMPDEST DUP1 ISZERO PUSH2 0x233 JUMPI DUP1 PUSH1 0x1F LT PUSH2 0x208 JUMPI PUSH2 0x100 DUP1 DUP4 SLOAD DIV MUL DUP4 MSTORE SWAP2 PUSH1 0x20 ADD SWAP2 PUSH2 0x233 JUMP JUMPDEST DUP3 ADD SWAP2 SWAP1 PUSH1 0x0 MSTORE PUSH1 0x20 PUSH1 0x0 KECCAK256 SWAP1 JUMPDEST DUP2 SLOAD DUP2 MSTORE SWAP1 PUSH1 0x1 ADD SWAP1 PUSH1 0x20 ADD DUP1 DUP4 GT PUSH2 0x216 JUMPI DUP3 SWAP1 SUB PUSH1 0x1F AND DUP3 ADD SWAP2 JUMPDEST POP POP POP POP POP SWAP1 DUP1 PUSH1 0x2 ADD PUSH1 0x0 SWAP1 SLOAD SWAP1 PUSH2 0x100 EXP SWAP1 DIV PUSH1 0xFF AND SWAP1 POP DUP4 JUMP JUMPDEST PUSH1 0x0 PUSH20 0xFFFFFFFFFFFFFFFFFFFFFFFFFFFFFFFFFFFFFFFF DUP3 AND SWAP1 POP SWAP2 SWAP1 POP JUMP JUMPDEST PUSH1 0x0 DUP2 SWAP1 POP SWAP2 SWAP1 POP JUMP JUMPDEST PUSH1 0x0 PUSH2 0x295 PUSH2 0x290 PUSH2 0x28B DUP5 PUSH2 0x250 JUMP JUMPDEST PUSH2 0x270 JUMP JUMPDEST PUSH2 0x250 JUMP JUMPDEST SWAP1 POP SWAP2 SWAP1 POP JUMP JUMPDEST PUSH1 0x0 PUSH2 0x2A7 DUP3 PUSH2 0x27A JUMP JUMPDEST SWAP1 POP SWAP2 SWAP1 POP JUMP JUMPDEST PUSH1 0x0 PUSH2 0x2B9 DUP3 PUSH2 0x29C JUMP JUMPDEST SWAP1 POP SWAP2 SWAP1 POP JUMP JUMPDEST PUSH2 0x2C9 DUP2 PUSH2 0x2AE JUMP JUMPDEST DUP3 MSTORE POP POP JUMP JUMPDEST PUSH1 0x0 PUSH1 0x20 DUP3 ADD SWAP1 POP PUSH2 0x2E4 PUSH1 0x0 DUP4 ADD DUP5 PUSH2 0x2C0 JUMP JUMPDEST SWAP3 SWAP2 POP POP JUMP JUMPDEST PUSH1 0x0 DUP1 REVERT JUMPDEST PUSH1 0x0 PUSH2 0x2FA DUP3 PUSH2 0x250 JUMP JUMPDEST SWAP1 POP SWAP2 SWAP1 POP JUMP JUMPDEST PUSH2 0x30A DUP2 PUSH2 0x2EF JUMP JUMPDEST DUP2 EQ PUSH2 0x315 JUMPI PUSH1 0x0 DUP1 REVERT JUMPDEST POP JUMP JUMPDEST PUSH1 0x0 DUP2 CALLDATALOAD SWAP1 POP PUSH2 0x327 DUP2 PUSH2 0x301 JUMP JUMPDEST SWAP3 SWAP2 POP POP JUMP JUMPDEST PUSH1 0x0 DUP2 SWAP1 POP SWAP2 SWAP1 POP JUMP JUMPDEST PUSH2 0x340 DUP2 PUSH2 0x32D JUMP JUMPDEST DUP2 EQ PUSH2 0x34B JUMPI PUSH1 0x0 DUP1 REVERT JUMPDEST POP JUMP JUMPDEST PUSH1 0x0 DUP2 CALLDATALOAD SWAP1 POP PUSH2 0x35D DUP2 PUSH2 0x337 JUMP JUMPDEST SWAP3 SWAP2 POP POP JUMP JUMPDEST PUSH1 0x0 DUP1 PUSH1 0x40 DUP4 DUP6 SUB SLT ISZERO PUSH2 0x37A JUMPI PUSH2 0x379 PUSH2 0x2EA JUMP JUMPDEST JUMPDEST PUSH1 0x0 PUSH2 0x388 DUP6 DUP3 DUP7 ADD PUSH2 0x318 JUMP JUMPDEST SWAP3 POP POP PUSH1 0x20 PUSH2 0x399 DUP6 DUP3 DUP7 ADD PUSH2 0x34E JUMP JUMPDEST SWAP2 POP POP SWAP3 POP SWAP3 SWAP1 POP JUMP JUMPDEST PUSH2 0x3AC DUP2 PUSH2 0x32D JUMP JUMPDEST DUP3 MSTORE POP POP JUMP JUMPDEST PUSH2 0x3BB DUP2 PUSH2 0x2EF JUMP JUMPDEST DUP3 MSTORE POP POP JUMP JUMPDEST PUSH32 0x4E487B7100000000000000000000000000000000000000000000000000000000 PUSH1 0x0 MSTORE PUSH1 0x21 PUSH1 0x4 MSTORE PUSH1 0x24 PUSH1 0x0 REVERT JUMPDEST PUSH1 0x4 DUP2 LT PUSH2 0x401 JUMPI PUSH2 0x400 PUSH2 0x3C1 JUMP JUMPDEST JUMPDEST POP JUMP JUMPDEST PUSH1 0x0 DUP2 SWAP1 POP PUSH2 0x412 DUP3 PUSH2 0x3F0 JUMP JUMPDEST SWAP2 SWAP1 POP JUMP JUMPDEST PUSH1 0x0 PUSH2 0x422 DUP3 PUSH2 0x404 JUMP JUMPDEST SWAP1 POP SWAP2 SWAP1 POP JUMP JUMPDEST PUSH2 0x432 DUP2 PUSH2 0x417 JUMP JUMPDEST DUP3 MSTORE POP POP JUMP JUMPDEST PUSH1 0x0 PUSH1 0x60 DUP3 ADD SWAP1 POP PUSH2 0x44D PUSH1 0x0 DUP4 ADD DUP7 PUSH2 0x3A3 JUMP JUMPDEST PUSH2 0x45A PUSH1 0x20 DUP4 ADD DUP6 PUSH2 0x3B2 JUMP JUMPDEST PUSH2 0x467 PUSH1 0x40 DUP4 ADD DUP5 PUSH2 0x429 JUMP JUMPDEST SWAP5 SWAP4 POP POP POP POP JUMP JUMPDEST PUSH1 0x0 PUSH32 0xFFFFFFFF00000000000000000000000000000000000000000000000000000000 DUP3 AND SWAP1 POP SWAP2 SWAP1 POP JUMP JUMPDEST PUSH2 0x4A4 DUP2 PUSH2 0x46F JUMP JUMPDEST DUP3 MSTORE POP POP JUMP JUMPDEST PUSH1 0x0 PUSH1 0x20 DUP3 ADD SWAP1 POP PUSH2 0x4BF PUSH1 0x0 DUP4 ADD DUP5 PUSH2 0x49B JUMP JUMPDEST SWAP3 SWAP2 POP POP JUMP JUMPDEST PUSH1 0x0 DUP2 SWAP1 POP SWAP2 SWAP1 POP JUMP JUMPDEST PUSH2 0x4D8 DUP2 PUSH2 0x4C5 JUMP JUMPDEST DUP3 MSTORE POP POP JUMP JUMPDEST PUSH1 0x0 DUP2 MLOAD SWAP1 POP SWAP2 SWAP1 POP JUMP JUMPDEST PUSH1 0x0 DUP3 DUP3 MSTORE PUSH1 0x20 DUP3 ADD SWAP1 POP SWAP3 SWAP2 POP POP JUMP JUMPDEST PUSH1 0x0 JUMPDEST DUP4 DUP2 LT ISZERO PUSH2 0x518 JUMPI DUP1 DUP3 ADD MLOAD DUP2 DUP5 ADD MSTORE PUSH1 0x20 DUP2 ADD SWAP1 POP PUSH2 0x4FD JUMP JUMPDEST DUP4 DUP2 GT ISZERO PUSH2 0x527 JUMPI PUSH1 0x0 DUP5 DUP5 ADD MSTORE JUMPDEST POP POP POP POP JUMP JUMPDEST PUSH1 0x0 PUSH1 0x1F NOT PUSH1 0x1F DUP4 ADD AND SWAP1 POP SWAP2 SWAP1 POP JUMP JUMPDEST PUSH1 0x0 PUSH2 0x549 DUP3 PUSH2 0x4DE JUMP JUMPDEST PUSH2 0x553 DUP2 DUP6 PUSH2 0x4E9 JUMP JUMPDEST SWAP4 POP PUSH2 0x563 DUP2 DUP6 PUSH1 0x20 DUP7 ADD PUSH2 0x4FA JUMP JUMPDEST PUSH2 0x56C DUP2 PUSH2 0x52D JUMP JUMPDEST DUP5 ADD SWAP2 POP POP SWAP3 SWAP2 POP POP JUMP JUMPDEST PUSH1 0x0 DUP2 ISZERO ISZERO SWAP1 POP SWAP2 SWAP1 POP JUMP JUMPDEST PUSH2 0x58C DUP2 PUSH2 0x577 JUMP JUMPDEST DUP3 MSTORE POP POP JUMP JUMPDEST PUSH1 0x0 PUSH1 0x60 DUP3 ADD SWAP1 POP PUSH2 0x5A7 PUSH1 0x0 DUP4 ADD DUP7 PUSH2 0x4CF JUMP JUMPDEST DUP2 DUP2 SUB PUSH1 0x20 DUP4 ADD MSTORE PUSH2 0x5B9 DUP2 DUP6 PUSH2 0x53E JUMP JUMPDEST SWAP1 POP PUSH2 0x5C8 PUSH1 0x40 DUP4 ADD DUP5 PUSH2 0x583 JUMP JUMPDEST SWAP5 SWAP4 POP POP POP POP JUMP JUMPDEST PUSH32 0x4E487B7100000000000000000000000000000000000000000000000000000000 PUSH1 0x0 MSTORE PUSH1 0x22 PUSH1 0x4 MSTORE PUSH1 0x24 PUSH1 0x0 REVERT JUMPDEST PUSH1 0x0 PUSH1 0x2 DUP3 DIV SWAP1 POP PUSH1 0x1 DUP3 AND DUP1 PUSH2 0x617 JUMPI PUSH1 0x7F DUP3 AND SWAP2 POP JUMPDEST PUSH1 0x20 DUP3 LT DUP2 SUB PUSH2 0x62A JUMPI PUSH2 0x629 PUSH2 0x5D0 JUMP JUMPDEST JUMPDEST POP SWAP2 SWAP1 POP JUMP INVALID LOG2 PUSH5 0x6970667358 0x22 SLT KECCAK256 0xA6 0xBB 0xEB 0xDF 0xFC 0xEB SWAP4 SWAP14 CALLVALUE GAS 0xC3 LOG4 0xC6 0xB8 DUP4 REVERT 0xAB 0x2C 0x5F 0xAA 0x4B 0x23 SHR SIGNEXTEND 0xD2 0xDD 0xE7 SWAP14 0xCF EXTCODECOPY EXTCODEHASH 0x2F PUSH5 0x736F6C6343 STOP ADDMOD 0xD STOP CALLER "
				},
				"gasEstimates": {
					"creation": {
						"codeDepositCost": "327600",
						"executionCost": "368",
						"totalCost": "327968"
					},
					"external": {
						"ERC721_Interface()": "363",
						"activeI(address,uint256)": "infinite",
						"ingameItem(address,uint256)": "infinite",
						"sqfToken()": "infinite"
					}
				},
				"methodIdentifiers": {
					"ERC721_Interface()": "2b4c32be",
					"activeI(address,uint256)": "1e537c1a",
					"ingameItem(address,uint256)": "b8b713ca",
					"sqfToken()": "15b81dc3"
				}
			},
			"storageLayout": {
				"storage": [
					{
						"astId": 104,
						"contract": "contracts/NFTContract3/ItemStorage.sol:ItemStorage",
						"label": "sqfToken",
						"offset": 0,
						"slot": "0",
						"type": "t_contract(IERC20)68"
					},
					{
						"astId": 109,
						"contract": "contracts/NFTContract3/ItemStorage.sol:ItemStorage",
						"label": "activeItem",
						"offset": 0,
						"slot": "1",
						"type": "t_mapping(t_uint256,t_struct(activeItems)82_storage)"
					},
					{
						"astId": 116,
						"contract": "contracts/NFTContract3/ItemStorage.sol:ItemStorage",
						"label": "activeI",
						"offset": 0,
						"slot": "2",
						"type": "t_mapping(t_address,t_mapping(t_uint256,t_struct(activeItems)82_storage))"
					},
					{
						"astId": 123,
						"contract": "contracts/NFTContract3/ItemStorage.sol:ItemStorage",
						"label": "ingameItem",
						"offset": 0,
						"slot": "3",
						"type": "t_mapping(t_address,t_mapping(t_uint256,t_struct(ingameItems)89_storage))"
					}
				],
				"types": {
					"t_address": {
						"encoding": "inplace",
						"label": "address",
						"numberOfBytes": "20"
					},
					"t_bool": {
						"encoding": "inplace",
						"label": "bool",
						"numberOfBytes": "1"
					},
					"t_bytes32": {
						"encoding": "inplace",
						"label": "bytes32",
						"numberOfBytes": "32"
					},
					"t_contract(IERC20)68": {
						"encoding": "inplace",
						"label": "contract IERC20",
						"numberOfBytes": "20"
					},
					"t_enum(activeStatus)74": {
						"encoding": "inplace",
						"label": "enum ItemStorage.activeStatus",
						"numberOfBytes": "1"
					},
					"t_mapping(t_address,t_mapping(t_uint256,t_struct(activeItems)82_storage))": {
						"encoding": "mapping",
						"key": "t_address",
						"label": "mapping(address => mapping(uint256 => struct ItemStorage.activeItems))",
						"numberOfBytes": "32",
						"value": "t_mapping(t_uint256,t_struct(activeItems)82_storage)"
					},
					"t_mapping(t_address,t_mapping(t_uint256,t_struct(ingameItems)89_storage))": {
						"encoding": "mapping",
						"key": "t_address",
						"label": "mapping(address => mapping(uint256 => struct ItemStorage.ingameItems))",
						"numberOfBytes": "32",
						"value": "t_mapping(t_uint256,t_struct(ingameItems)89_storage)"
					},
					"t_mapping(t_uint256,t_struct(activeItems)82_storage)": {
						"encoding": "mapping",
						"key": "t_uint256",
						"label": "mapping(uint256 => struct ItemStorage.activeItems)",
						"numberOfBytes": "32",
						"value": "t_struct(activeItems)82_storage"
					},
					"t_mapping(t_uint256,t_struct(ingameItems)89_storage)": {
						"encoding": "mapping",
						"key": "t_uint256",
						"label": "mapping(uint256 => struct ItemStorage.ingameItems)",
						"numberOfBytes": "32",
						"value": "t_struct(ingameItems)89_storage"
					},
					"t_string_storage": {
						"encoding": "bytes",
						"label": "string",
						"numberOfBytes": "32"
					},
					"t_struct(activeItems)82_storage": {
						"encoding": "inplace",
						"label": "struct ItemStorage.activeItems",
						"members": [
							{
								"astId": 76,
								"contract": "contracts/NFTContract3/ItemStorage.sol:ItemStorage",
								"label": "id",
								"offset": 0,
								"slot": "0",
								"type": "t_uint256"
							},
							{
								"astId": 78,
								"contract": "contracts/NFTContract3/ItemStorage.sol:ItemStorage",
								"label": "owner",
								"offset": 0,
								"slot": "1",
								"type": "t_address"
							},
							{
								"astId": 81,
								"contract": "contracts/NFTContract3/ItemStorage.sol:ItemStorage",
								"label": "status",
								"offset": 20,
								"slot": "1",
								"type": "t_enum(activeStatus)74"
							}
						],
						"numberOfBytes": "64"
					},
					"t_struct(ingameItems)89_storage": {
						"encoding": "inplace",
						"label": "struct ItemStorage.ingameItems",
						"members": [
							{
								"astId": 84,
								"contract": "contracts/NFTContract3/ItemStorage.sol:ItemStorage",
								"label": "id",
								"offset": 0,
								"slot": "0",
								"type": "t_bytes32"
							},
							{
								"astId": 86,
								"contract": "contracts/NFTContract3/ItemStorage.sol:ItemStorage",
								"label": "itemId",
								"offset": 0,
								"slot": "1",
								"type": "t_string_storage"
							},
							{
								"astId": 88,
								"contract": "contracts/NFTContract3/ItemStorage.sol:ItemStorage",
								"label": "ingame",
								"offset": 0,
								"slot": "2",
								"type": "t_bool"
							}
						],
						"numberOfBytes": "96"
					},
					"t_uint256": {
						"encoding": "inplace",
						"label": "uint256",
						"numberOfBytes": "32"
					}
				}
			},
			"userdoc": {
				"kind": "user",
				"methods": {},
				"version": 1
			}
		}
	}
}