{
	"contracts/NFTContract3/FactoryStorage.sol": {
		"FactoryStorage": {
			"abi": [
				{
					"anonymous": false,
					"inputs": [
						{
							"indexed": true,
							"internalType": "address",
							"name": "user",
							"type": "address"
						},
						{
							"indexed": false,
							"internalType": "string",
							"name": "status",
							"type": "string"
						}
					],
					"name": "AcctiveAccount",
					"type": "event"
				},
				{
					"anonymous": false,
					"inputs": [
						{
							"indexed": true,
							"internalType": "address",
							"name": "owner",
							"type": "address"
						},
						{
							"indexed": false,
							"internalType": "string",
							"name": "tokenId",
							"type": "string"
						}
					],
					"name": "Burn",
					"type": "event"
				},
				{
					"anonymous": false,
					"inputs": [
						{
							"indexed": true,
							"internalType": "address",
							"name": "receiver",
							"type": "address"
						},
						{
							"indexed": false,
							"internalType": "string",
							"name": "tokenId",
							"type": "string"
						}
					],
					"name": "Claim",
					"type": "event"
				},
				{
					"anonymous": false,
					"inputs": [
						{
							"indexed": true,
							"internalType": "address",
							"name": "to",
							"type": "address"
						},
						{
							"indexed": false,
							"internalType": "string",
							"name": "tokenId",
							"type": "string"
						}
					],
					"name": "Mint",
					"type": "event"
				},
				{
					"inputs": [],
					"name": "ERC721_Interface",
					"outputs": [
						{
							"internalType": "bytes4",
							"name": "",
							"type": "bytes4"
						}
					],
					"stateMutability": "view",
					"type": "function"
				},
				{
					"inputs": [
						{
							"internalType": "uint256",
							"name": "",
							"type": "uint256"
						}
					],
					"name": "activeItem",
					"outputs": [
						{
							"internalType": "uint256",
							"name": "id",
							"type": "uint256"
						},
						{
							"internalType": "address",
							"name": "owner",
							"type": "address"
						},
						{
							"internalType": "enum FactoryStorage.activeStatus",
							"name": "status",
							"type": "uint8"
						}
					],
					"stateMutability": "view",
					"type": "function"
				},
				{
					"inputs": [],
					"name": "sqfToken",
					"outputs": [
						{
							"internalType": "contract IERC20",
							"name": "",
							"type": "address"
						}
					],
					"stateMutability": "view",
					"type": "function"
				}
			],
			"devdoc": {
				"kind": "dev",
				"methods": {},
				"version": 1
			},
			"evm": {
				"assembly": "    /* \"contracts/NFTContract3/FactoryStorage.sol\":837:1810  contract FactoryStorage {... */\n  mstore(0x40, 0x80)\n  callvalue\n  dup1\n  iszero\n  tag_1\n  jumpi\n  0x00\n  dup1\n  revert\ntag_1:\n  pop\n  dataSize(sub_0)\n  dup1\n  dataOffset(sub_0)\n  0x00\n  codecopy\n  0x00\n  return\nstop\n\nsub_0: assembly {\n        /* \"contracts/NFTContract3/FactoryStorage.sol\":837:1810  contract FactoryStorage {... */\n      mstore(0x40, 0x80)\n      callvalue\n      dup1\n      iszero\n      tag_1\n      jumpi\n      0x00\n      dup1\n      revert\n    tag_1:\n      pop\n      jumpi(tag_2, lt(calldatasize, 0x04))\n      shr(0xe0, calldataload(0x00))\n      dup1\n      0x15b81dc3\n      eq\n      tag_3\n      jumpi\n      dup1\n      0x2b4c32be\n      eq\n      tag_4\n      jumpi\n      dup1\n      0x58dd8603\n      eq\n      tag_5\n      jumpi\n    tag_2:\n      0x00\n      dup1\n      revert\n        /* \"contracts/NFTContract3/FactoryStorage.sol\":1314:1336  IERC20 public sqfToken */\n    tag_3:\n      tag_6\n      tag_7\n      jump\t// in\n    tag_6:\n      mload(0x40)\n      tag_8\n      swap2\n      swap1\n      tag_9\n      jump\t// in\n    tag_8:\n      mload(0x40)\n      dup1\n      swap2\n      sub\n      swap1\n      return\n        /* \"contracts/NFTContract3/FactoryStorage.sol\":1248:1308  bytes4 public constant ERC721_Interface = bytes4(0x80ac58cd) */\n    tag_4:\n      tag_10\n      tag_11\n      jump\t// in\n    tag_10:\n      mload(0x40)\n      tag_12\n      swap2\n      swap1\n      tag_13\n      jump\t// in\n    tag_12:\n      mload(0x40)\n      dup1\n      swap2\n      sub\n      swap1\n      return\n        /* \"contracts/NFTContract3/FactoryStorage.sol\":1414:1463  mapping(uint256 => activeItems) public activeItem */\n    tag_5:\n      tag_14\n      0x04\n      dup1\n      calldatasize\n      sub\n      dup2\n      add\n      swap1\n      tag_15\n      swap2\n      swap1\n      tag_16\n      jump\t// in\n    tag_15:\n      tag_17\n      jump\t// in\n    tag_14:\n      mload(0x40)\n      tag_18\n      swap4\n      swap3\n      swap2\n      swap1\n      tag_19\n      jump\t// in\n    tag_18:\n      mload(0x40)\n      dup1\n      swap2\n      sub\n      swap1\n      return\n        /* \"contracts/NFTContract3/FactoryStorage.sol\":1314:1336  IERC20 public sqfToken */\n    tag_7:\n      0x00\n      dup1\n      sload\n      swap1\n      0x0100\n      exp\n      swap1\n      div\n      0xffffffffffffffffffffffffffffffffffffffff\n      and\n      dup2\n      jump\t// out\n        /* \"contracts/NFTContract3/FactoryStorage.sol\":1248:1308  bytes4 public constant ERC721_Interface = bytes4(0x80ac58cd) */\n    tag_11:\n        /* \"contracts/NFTContract3/FactoryStorage.sol\":1297:1307  0x80ac58cd */\n      0x80ac58cd\n        /* \"contracts/NFTContract3/FactoryStorage.sol\":1290:1308  bytes4(0x80ac58cd) */\n      0xe0\n      shl\n        /* \"contracts/NFTContract3/FactoryStorage.sol\":1248:1308  bytes4 public constant ERC721_Interface = bytes4(0x80ac58cd) */\n      dup2\n      jump\t// out\n        /* \"contracts/NFTContract3/FactoryStorage.sol\":1414:1463  mapping(uint256 => activeItems) public activeItem */\n    tag_17:\n      mstore(0x20, 0x01)\n      dup1\n      0x00\n      mstore\n      keccak256(0x00, 0x40)\n      0x00\n      swap2\n      pop\n      swap1\n      pop\n      dup1\n      0x00\n      add\n      sload\n      swap1\n      dup1\n      0x01\n      add\n      0x00\n      swap1\n      sload\n      swap1\n      0x0100\n      exp\n      swap1\n      div\n      0xffffffffffffffffffffffffffffffffffffffff\n      and\n      swap1\n      dup1\n      0x01\n      add\n      0x14\n      swap1\n      sload\n      swap1\n      0x0100\n      exp\n      swap1\n      div\n      0xff\n      and\n      swap1\n      pop\n      dup4\n      jump\t// out\n        /* \"#utility.yul\":7:133   */\n    tag_20:\n        /* \"#utility.yul\":44:51   */\n      0x00\n        /* \"#utility.yul\":84:126   */\n      0xffffffffffffffffffffffffffffffffffffffff\n        /* \"#utility.yul\":77:82   */\n      dup3\n        /* \"#utility.yul\":73:127   */\n      and\n        /* \"#utility.yul\":62:127   */\n      swap1\n      pop\n        /* \"#utility.yul\":7:133   */\n      swap2\n      swap1\n      pop\n      jump\t// out\n        /* \"#utility.yul\":139:199   */\n    tag_21:\n        /* \"#utility.yul\":167:170   */\n      0x00\n        /* \"#utility.yul\":188:193   */\n      dup2\n        /* \"#utility.yul\":181:193   */\n      swap1\n      pop\n        /* \"#utility.yul\":139:199   */\n      swap2\n      swap1\n      pop\n      jump\t// out\n        /* \"#utility.yul\":205:347   */\n    tag_22:\n        /* \"#utility.yul\":255:264   */\n      0x00\n        /* \"#utility.yul\":288:341   */\n      tag_46\n        /* \"#utility.yul\":306:340   */\n      tag_47\n        /* \"#utility.yul\":315:339   */\n      tag_48\n        /* \"#utility.yul\":333:338   */\n      dup5\n        /* \"#utility.yul\":315:339   */\n      tag_20\n      jump\t// in\n    tag_48:\n        /* \"#utility.yul\":306:340   */\n      tag_21\n      jump\t// in\n    tag_47:\n        /* \"#utility.yul\":288:341   */\n      tag_20\n      jump\t// in\n    tag_46:\n        /* \"#utility.yul\":275:341   */\n      swap1\n      pop\n        /* \"#utility.yul\":205:347   */\n      swap2\n      swap1\n      pop\n      jump\t// out\n        /* \"#utility.yul\":353:479   */\n    tag_23:\n        /* \"#utility.yul\":403:412   */\n      0x00\n        /* \"#utility.yul\":436:473   */\n      tag_50\n        /* \"#utility.yul\":467:472   */\n      dup3\n        /* \"#utility.yul\":436:473   */\n      tag_22\n      jump\t// in\n    tag_50:\n        /* \"#utility.yul\":423:473   */\n      swap1\n      pop\n        /* \"#utility.yul\":353:479   */\n      swap2\n      swap1\n      pop\n      jump\t// out\n        /* \"#utility.yul\":485:624   */\n    tag_24:\n        /* \"#utility.yul\":548:557   */\n      0x00\n        /* \"#utility.yul\":581:618   */\n      tag_52\n        /* \"#utility.yul\":612:617   */\n      dup3\n        /* \"#utility.yul\":581:618   */\n      tag_23\n      jump\t// in\n    tag_52:\n        /* \"#utility.yul\":568:618   */\n      swap1\n      pop\n        /* \"#utility.yul\":485:624   */\n      swap2\n      swap1\n      pop\n      jump\t// out\n        /* \"#utility.yul\":630:787   */\n    tag_25:\n        /* \"#utility.yul\":730:780   */\n      tag_54\n        /* \"#utility.yul\":774:779   */\n      dup2\n        /* \"#utility.yul\":730:780   */\n      tag_24\n      jump\t// in\n    tag_54:\n        /* \"#utility.yul\":725:728   */\n      dup3\n        /* \"#utility.yul\":718:781   */\n      mstore\n        /* \"#utility.yul\":630:787   */\n      pop\n      pop\n      jump\t// out\n        /* \"#utility.yul\":793:1041   */\n    tag_9:\n        /* \"#utility.yul\":899:903   */\n      0x00\n        /* \"#utility.yul\":937:939   */\n      0x20\n        /* \"#utility.yul\":926:935   */\n      dup3\n        /* \"#utility.yul\":922:940   */\n      add\n        /* \"#utility.yul\":914:940   */\n      swap1\n      pop\n        /* \"#utility.yul\":950:1034   */\n      tag_56\n        /* \"#utility.yul\":1031:1032   */\n      0x00\n        /* \"#utility.yul\":1020:1029   */\n      dup4\n        /* \"#utility.yul\":1016:1033   */\n      add\n        /* \"#utility.yul\":1007:1013   */\n      dup5\n        /* \"#utility.yul\":950:1034   */\n      tag_25\n      jump\t// in\n    tag_56:\n        /* \"#utility.yul\":793:1041   */\n      swap3\n      swap2\n      pop\n      pop\n      jump\t// out\n        /* \"#utility.yul\":1047:1196   */\n    tag_26:\n        /* \"#utility.yul\":1083:1090   */\n      0x00\n        /* \"#utility.yul\":1123:1189   */\n      0xffffffff00000000000000000000000000000000000000000000000000000000\n        /* \"#utility.yul\":1116:1121   */\n      dup3\n        /* \"#utility.yul\":1112:1190   */\n      and\n        /* \"#utility.yul\":1101:1190   */\n      swap1\n      pop\n        /* \"#utility.yul\":1047:1196   */\n      swap2\n      swap1\n      pop\n      jump\t// out\n        /* \"#utility.yul\":1202:1317   */\n    tag_27:\n        /* \"#utility.yul\":1287:1310   */\n      tag_59\n        /* \"#utility.yul\":1304:1309   */\n      dup2\n        /* \"#utility.yul\":1287:1310   */\n      tag_26\n      jump\t// in\n    tag_59:\n        /* \"#utility.yul\":1282:1285   */\n      dup3\n        /* \"#utility.yul\":1275:1311   */\n      mstore\n        /* \"#utility.yul\":1202:1317   */\n      pop\n      pop\n      jump\t// out\n        /* \"#utility.yul\":1323:1541   */\n    tag_13:\n        /* \"#utility.yul\":1414:1418   */\n      0x00\n        /* \"#utility.yul\":1452:1454   */\n      0x20\n        /* \"#utility.yul\":1441:1450   */\n      dup3\n        /* \"#utility.yul\":1437:1455   */\n      add\n        /* \"#utility.yul\":1429:1455   */\n      swap1\n      pop\n        /* \"#utility.yul\":1465:1534   */\n      tag_61\n        /* \"#utility.yul\":1531:1532   */\n      0x00\n        /* \"#utility.yul\":1520:1529   */\n      dup4\n        /* \"#utility.yul\":1516:1533   */\n      add\n        /* \"#utility.yul\":1507:1513   */\n      dup5\n        /* \"#utility.yul\":1465:1534   */\n      tag_27\n      jump\t// in\n    tag_61:\n        /* \"#utility.yul\":1323:1541   */\n      swap3\n      swap2\n      pop\n      pop\n      jump\t// out\n        /* \"#utility.yul\":1628:1745   */\n    tag_29:\n        /* \"#utility.yul\":1737:1738   */\n      0x00\n        /* \"#utility.yul\":1734:1735   */\n      dup1\n        /* \"#utility.yul\":1727:1739   */\n      revert\n        /* \"#utility.yul\":1874:1951   */\n    tag_31:\n        /* \"#utility.yul\":1911:1918   */\n      0x00\n        /* \"#utility.yul\":1940:1945   */\n      dup2\n        /* \"#utility.yul\":1929:1945   */\n      swap1\n      pop\n        /* \"#utility.yul\":1874:1951   */\n      swap2\n      swap1\n      pop\n      jump\t// out\n        /* \"#utility.yul\":1957:2079   */\n    tag_32:\n        /* \"#utility.yul\":2030:2054   */\n      tag_67\n        /* \"#utility.yul\":2048:2053   */\n      dup2\n        /* \"#utility.yul\":2030:2054   */\n      tag_31\n      jump\t// in\n    tag_67:\n        /* \"#utility.yul\":2023:2028   */\n      dup2\n        /* \"#utility.yul\":2020:2055   */\n      eq\n        /* \"#utility.yul\":2010:2073   */\n      tag_68\n      jumpi\n        /* \"#utility.yul\":2069:2070   */\n      0x00\n        /* \"#utility.yul\":2066:2067   */\n      dup1\n        /* \"#utility.yul\":2059:2071   */\n      revert\n        /* \"#utility.yul\":2010:2073   */\n    tag_68:\n        /* \"#utility.yul\":1957:2079   */\n      pop\n      jump\t// out\n        /* \"#utility.yul\":2085:2224   */\n    tag_33:\n        /* \"#utility.yul\":2131:2136   */\n      0x00\n        /* \"#utility.yul\":2169:2175   */\n      dup2\n        /* \"#utility.yul\":2156:2176   */\n      calldataload\n        /* \"#utility.yul\":2147:2176   */\n      swap1\n      pop\n        /* \"#utility.yul\":2185:2218   */\n      tag_70\n        /* \"#utility.yul\":2212:2217   */\n      dup2\n        /* \"#utility.yul\":2185:2218   */\n      tag_32\n      jump\t// in\n    tag_70:\n        /* \"#utility.yul\":2085:2224   */\n      swap3\n      swap2\n      pop\n      pop\n      jump\t// out\n        /* \"#utility.yul\":2230:2559   */\n    tag_16:\n        /* \"#utility.yul\":2289:2295   */\n      0x00\n        /* \"#utility.yul\":2338:2340   */\n      0x20\n        /* \"#utility.yul\":2326:2335   */\n      dup3\n        /* \"#utility.yul\":2317:2324   */\n      dup5\n        /* \"#utility.yul\":2313:2336   */\n      sub\n        /* \"#utility.yul\":2309:2341   */\n      slt\n        /* \"#utility.yul\":2306:2425   */\n      iszero\n      tag_72\n      jumpi\n        /* \"#utility.yul\":2344:2423   */\n      tag_73\n      tag_29\n      jump\t// in\n    tag_73:\n        /* \"#utility.yul\":2306:2425   */\n    tag_72:\n        /* \"#utility.yul\":2464:2465   */\n      0x00\n        /* \"#utility.yul\":2489:2542   */\n      tag_74\n        /* \"#utility.yul\":2534:2541   */\n      dup5\n        /* \"#utility.yul\":2525:2531   */\n      dup3\n        /* \"#utility.yul\":2514:2523   */\n      dup6\n        /* \"#utility.yul\":2510:2532   */\n      add\n        /* \"#utility.yul\":2489:2542   */\n      tag_33\n      jump\t// in\n    tag_74:\n        /* \"#utility.yul\":2479:2542   */\n      swap2\n      pop\n        /* \"#utility.yul\":2435:2552   */\n      pop\n        /* \"#utility.yul\":2230:2559   */\n      swap3\n      swap2\n      pop\n      pop\n      jump\t// out\n        /* \"#utility.yul\":2565:2683   */\n    tag_34:\n        /* \"#utility.yul\":2652:2676   */\n      tag_76\n        /* \"#utility.yul\":2670:2675   */\n      dup2\n        /* \"#utility.yul\":2652:2676   */\n      tag_31\n      jump\t// in\n    tag_76:\n        /* \"#utility.yul\":2647:2650   */\n      dup3\n        /* \"#utility.yul\":2640:2677   */\n      mstore\n        /* \"#utility.yul\":2565:2683   */\n      pop\n      pop\n      jump\t// out\n        /* \"#utility.yul\":2689:2785   */\n    tag_35:\n        /* \"#utility.yul\":2726:2733   */\n      0x00\n        /* \"#utility.yul\":2755:2779   */\n      tag_78\n        /* \"#utility.yul\":2773:2778   */\n      dup3\n        /* \"#utility.yul\":2755:2779   */\n      tag_20\n      jump\t// in\n    tag_78:\n        /* \"#utility.yul\":2744:2779   */\n      swap1\n      pop\n        /* \"#utility.yul\":2689:2785   */\n      swap2\n      swap1\n      pop\n      jump\t// out\n        /* \"#utility.yul\":2791:2909   */\n    tag_36:\n        /* \"#utility.yul\":2878:2902   */\n      tag_80\n        /* \"#utility.yul\":2896:2901   */\n      dup2\n        /* \"#utility.yul\":2878:2902   */\n      tag_35\n      jump\t// in\n    tag_80:\n        /* \"#utility.yul\":2873:2876   */\n      dup3\n        /* \"#utility.yul\":2866:2903   */\n      mstore\n        /* \"#utility.yul\":2791:2909   */\n      pop\n      pop\n      jump\t// out\n        /* \"#utility.yul\":2915:3095   */\n    tag_37:\n        /* \"#utility.yul\":2963:3040   */\n      0x4e487b7100000000000000000000000000000000000000000000000000000000\n        /* \"#utility.yul\":2960:2961   */\n      0x00\n        /* \"#utility.yul\":2953:3041   */\n      mstore\n        /* \"#utility.yul\":3060:3064   */\n      0x21\n        /* \"#utility.yul\":3057:3058   */\n      0x04\n        /* \"#utility.yul\":3050:3065   */\n      mstore\n        /* \"#utility.yul\":3084:3088   */\n      0x24\n        /* \"#utility.yul\":3081:3082   */\n      0x00\n        /* \"#utility.yul\":3074:3089   */\n      revert\n        /* \"#utility.yul\":3101:3221   */\n    tag_38:\n        /* \"#utility.yul\":3189:3190   */\n      0x04\n        /* \"#utility.yul\":3182:3187   */\n      dup2\n        /* \"#utility.yul\":3179:3191   */\n      lt\n        /* \"#utility.yul\":3169:3215   */\n      tag_83\n      jumpi\n        /* \"#utility.yul\":3195:3213   */\n      tag_84\n      tag_37\n      jump\t// in\n    tag_84:\n        /* \"#utility.yul\":3169:3215   */\n    tag_83:\n        /* \"#utility.yul\":3101:3221   */\n      pop\n      jump\t// out\n        /* \"#utility.yul\":3227:3368   */\n    tag_39:\n        /* \"#utility.yul\":3279:3286   */\n      0x00\n        /* \"#utility.yul\":3308:3313   */\n      dup2\n        /* \"#utility.yul\":3297:3313   */\n      swap1\n      pop\n        /* \"#utility.yul\":3314:3362   */\n      tag_86\n        /* \"#utility.yul\":3356:3361   */\n      dup3\n        /* \"#utility.yul\":3314:3362   */\n      tag_38\n      jump\t// in\n    tag_86:\n        /* \"#utility.yul\":3227:3368   */\n      swap2\n      swap1\n      pop\n      jump\t// out\n        /* \"#utility.yul\":3374:3515   */\n    tag_40:\n        /* \"#utility.yul\":3437:3446   */\n      0x00\n        /* \"#utility.yul\":3470:3509   */\n      tag_88\n        /* \"#utility.yul\":3503:3508   */\n      dup3\n        /* \"#utility.yul\":3470:3509   */\n      tag_39\n      jump\t// in\n    tag_88:\n        /* \"#utility.yul\":3457:3509   */\n      swap1\n      pop\n        /* \"#utility.yul\":3374:3515   */\n      swap2\n      swap1\n      pop\n      jump\t// out\n        /* \"#utility.yul\":3521:3678   */\n    tag_41:\n        /* \"#utility.yul\":3621:3671   */\n      tag_90\n        /* \"#utility.yul\":3665:3670   */\n      dup2\n        /* \"#utility.yul\":3621:3671   */\n      tag_40\n      jump\t// in\n    tag_90:\n        /* \"#utility.yul\":3616:3619   */\n      dup3\n        /* \"#utility.yul\":3609:3672   */\n      mstore\n        /* \"#utility.yul\":3521:3678   */\n      pop\n      pop\n      jump\t// out\n        /* \"#utility.yul\":3684:4152   */\n    tag_19:\n        /* \"#utility.yul\":3846:3850   */\n      0x00\n        /* \"#utility.yul\":3884:3886   */\n      0x60\n        /* \"#utility.yul\":3873:3882   */\n      dup3\n        /* \"#utility.yul\":3869:3887   */\n      add\n        /* \"#utility.yul\":3861:3887   */\n      swap1\n      pop\n        /* \"#utility.yul\":3897:3968   */\n      tag_92\n        /* \"#utility.yul\":3965:3966   */\n      0x00\n        /* \"#utility.yul\":3954:3963   */\n      dup4\n        /* \"#utility.yul\":3950:3967   */\n      add\n        /* \"#utility.yul\":3941:3947   */\n      dup7\n        /* \"#utility.yul\":3897:3968   */\n      tag_34\n      jump\t// in\n    tag_92:\n        /* \"#utility.yul\":3978:4050   */\n      tag_93\n        /* \"#utility.yul\":4046:4048   */\n      0x20\n        /* \"#utility.yul\":4035:4044   */\n      dup4\n        /* \"#utility.yul\":4031:4049   */\n      add\n        /* \"#utility.yul\":4022:4028   */\n      dup6\n        /* \"#utility.yul\":3978:4050   */\n      tag_36\n      jump\t// in\n    tag_93:\n        /* \"#utility.yul\":4060:4145   */\n      tag_94\n        /* \"#utility.yul\":4141:4143   */\n      0x40\n        /* \"#utility.yul\":4130:4139   */\n      dup4\n        /* \"#utility.yul\":4126:4144   */\n      add\n        /* \"#utility.yul\":4117:4123   */\n      dup5\n        /* \"#utility.yul\":4060:4145   */\n      tag_41\n      jump\t// in\n    tag_94:\n        /* \"#utility.yul\":3684:4152   */\n      swap5\n      swap4\n      pop\n      pop\n      pop\n      pop\n      jump\t// out\n\n    auxdata: 0xa2646970667358221220129d3f3397d214953cc651b25d85d1bd5bf56cc4d3633cbcccf882d58078828464736f6c634300080d0033\n}\n",
				"bytecode": {
					"linkReferences": {},
					"object": "608060405234801561001057600080fd5b506103a6806100206000396000f3fe608060405234801561001057600080fd5b50600436106100415760003560e01c806315b81dc3146100465780632b4c32be1461006457806358dd860314610082575b600080fd5b61004e6100b4565b60405161005b91906101b9565b60405180910390f35b61006c6100d8565b604051610079919061020f565b60405180910390f35b61009c60048036038101906100979190610265565b6100e3565b6040516100ab93929190610339565b60405180910390f35b60008054906101000a900473ffffffffffffffffffffffffffffffffffffffff1681565b6380ac58cd60e01b81565b60016020528060005260406000206000915090508060000154908060010160009054906101000a900473ffffffffffffffffffffffffffffffffffffffff16908060010160149054906101000a900460ff16905083565b600073ffffffffffffffffffffffffffffffffffffffff82169050919050565b6000819050919050565b600061017f61017a6101758461013a565b61015a565b61013a565b9050919050565b600061019182610164565b9050919050565b60006101a382610186565b9050919050565b6101b381610198565b82525050565b60006020820190506101ce60008301846101aa565b92915050565b60007fffffffff0000000000000000000000000000000000000000000000000000000082169050919050565b610209816101d4565b82525050565b60006020820190506102246000830184610200565b92915050565b600080fd5b6000819050919050565b6102428161022f565b811461024d57600080fd5b50565b60008135905061025f81610239565b92915050565b60006020828403121561027b5761027a61022a565b5b600061028984828501610250565b91505092915050565b61029b8161022f565b82525050565b60006102ac8261013a565b9050919050565b6102bc816102a1565b82525050565b7f4e487b7100000000000000000000000000000000000000000000000000000000600052602160045260246000fd5b60048110610302576103016102c2565b5b50565b6000819050610313826102f1565b919050565b600061032382610305565b9050919050565b61033381610318565b82525050565b600060608201905061034e6000830186610292565b61035b60208301856102b3565b610368604083018461032a565b94935050505056fea2646970667358221220129d3f3397d214953cc651b25d85d1bd5bf56cc4d3633cbcccf882d58078828464736f6c634300080d0033",
					"opcodes": "PUSH1 0x80 PUSH1 0x40 MSTORE CALLVALUE DUP1 ISZERO PUSH2 0x10 JUMPI PUSH1 0x0 DUP1 REVERT JUMPDEST POP PUSH2 0x3A6 DUP1 PUSH2 0x20 PUSH1 0x0 CODECOPY PUSH1 0x0 RETURN INVALID PUSH1 0x80 PUSH1 0x40 MSTORE CALLVALUE DUP1 ISZERO PUSH2 0x10 JUMPI PUSH1 0x0 DUP1 REVERT JUMPDEST POP PUSH1 0x4 CALLDATASIZE LT PUSH2 0x41 JUMPI PUSH1 0x0 CALLDATALOAD PUSH1 0xE0 SHR DUP1 PUSH4 0x15B81DC3 EQ PUSH2 0x46 JUMPI DUP1 PUSH4 0x2B4C32BE EQ PUSH2 0x64 JUMPI DUP1 PUSH4 0x58DD8603 EQ PUSH2 0x82 JUMPI JUMPDEST PUSH1 0x0 DUP1 REVERT JUMPDEST PUSH2 0x4E PUSH2 0xB4 JUMP JUMPDEST PUSH1 0x40 MLOAD PUSH2 0x5B SWAP2 SWAP1 PUSH2 0x1B9 JUMP JUMPDEST PUSH1 0x40 MLOAD DUP1 SWAP2 SUB SWAP1 RETURN JUMPDEST PUSH2 0x6C PUSH2 0xD8 JUMP JUMPDEST PUSH1 0x40 MLOAD PUSH2 0x79 SWAP2 SWAP1 PUSH2 0x20F JUMP JUMPDEST PUSH1 0x40 MLOAD DUP1 SWAP2 SUB SWAP1 RETURN JUMPDEST PUSH2 0x9C PUSH1 0x4 DUP1 CALLDATASIZE SUB DUP2 ADD SWAP1 PUSH2 0x97 SWAP2 SWAP1 PUSH2 0x265 JUMP JUMPDEST PUSH2 0xE3 JUMP JUMPDEST PUSH1 0x40 MLOAD PUSH2 0xAB SWAP4 SWAP3 SWAP2 SWAP1 PUSH2 0x339 JUMP JUMPDEST PUSH1 0x40 MLOAD DUP1 SWAP2 SUB SWAP1 RETURN JUMPDEST PUSH1 0x0 DUP1 SLOAD SWAP1 PUSH2 0x100 EXP SWAP1 DIV PUSH20 0xFFFFFFFFFFFFFFFFFFFFFFFFFFFFFFFFFFFFFFFF AND DUP2 JUMP JUMPDEST PUSH4 0x80AC58CD PUSH1 0xE0 SHL DUP2 JUMP JUMPDEST PUSH1 0x1 PUSH1 0x20 MSTORE DUP1 PUSH1 0x0 MSTORE PUSH1 0x40 PUSH1 0x0 KECCAK256 PUSH1 0x0 SWAP2 POP SWAP1 POP DUP1 PUSH1 0x0 ADD SLOAD SWAP1 DUP1 PUSH1 0x1 ADD PUSH1 0x0 SWAP1 SLOAD SWAP1 PUSH2 0x100 EXP SWAP1 DIV PUSH20 0xFFFFFFFFFFFFFFFFFFFFFFFFFFFFFFFFFFFFFFFF AND SWAP1 DUP1 PUSH1 0x1 ADD PUSH1 0x14 SWAP1 SLOAD SWAP1 PUSH2 0x100 EXP SWAP1 DIV PUSH1 0xFF AND SWAP1 POP DUP4 JUMP JUMPDEST PUSH1 0x0 PUSH20 0xFFFFFFFFFFFFFFFFFFFFFFFFFFFFFFFFFFFFFFFF DUP3 AND SWAP1 POP SWAP2 SWAP1 POP JUMP JUMPDEST PUSH1 0x0 DUP2 SWAP1 POP SWAP2 SWAP1 POP JUMP JUMPDEST PUSH1 0x0 PUSH2 0x17F PUSH2 0x17A PUSH2 0x175 DUP5 PUSH2 0x13A JUMP JUMPDEST PUSH2 0x15A JUMP JUMPDEST PUSH2 0x13A JUMP JUMPDEST SWAP1 POP SWAP2 SWAP1 POP JUMP JUMPDEST PUSH1 0x0 PUSH2 0x191 DUP3 PUSH2 0x164 JUMP JUMPDEST SWAP1 POP SWAP2 SWAP1 POP JUMP JUMPDEST PUSH1 0x0 PUSH2 0x1A3 DUP3 PUSH2 0x186 JUMP JUMPDEST SWAP1 POP SWAP2 SWAP1 POP JUMP JUMPDEST PUSH2 0x1B3 DUP2 PUSH2 0x198 JUMP JUMPDEST DUP3 MSTORE POP POP JUMP JUMPDEST PUSH1 0x0 PUSH1 0x20 DUP3 ADD SWAP1 POP PUSH2 0x1CE PUSH1 0x0 DUP4 ADD DUP5 PUSH2 0x1AA JUMP JUMPDEST SWAP3 SWAP2 POP POP JUMP JUMPDEST PUSH1 0x0 PUSH32 0xFFFFFFFF00000000000000000000000000000000000000000000000000000000 DUP3 AND SWAP1 POP SWAP2 SWAP1 POP JUMP JUMPDEST PUSH2 0x209 DUP2 PUSH2 0x1D4 JUMP JUMPDEST DUP3 MSTORE POP POP JUMP JUMPDEST PUSH1 0x0 PUSH1 0x20 DUP3 ADD SWAP1 POP PUSH2 0x224 PUSH1 0x0 DUP4 ADD DUP5 PUSH2 0x200 JUMP JUMPDEST SWAP3 SWAP2 POP POP JUMP JUMPDEST PUSH1 0x0 DUP1 REVERT JUMPDEST PUSH1 0x0 DUP2 SWAP1 POP SWAP2 SWAP1 POP JUMP JUMPDEST PUSH2 0x242 DUP2 PUSH2 0x22F JUMP JUMPDEST DUP2 EQ PUSH2 0x24D JUMPI PUSH1 0x0 DUP1 REVERT JUMPDEST POP JUMP JUMPDEST PUSH1 0x0 DUP2 CALLDATALOAD SWAP1 POP PUSH2 0x25F DUP2 PUSH2 0x239 JUMP JUMPDEST SWAP3 SWAP2 POP POP JUMP JUMPDEST PUSH1 0x0 PUSH1 0x20 DUP3 DUP5 SUB SLT ISZERO PUSH2 0x27B JUMPI PUSH2 0x27A PUSH2 0x22A JUMP JUMPDEST JUMPDEST PUSH1 0x0 PUSH2 0x289 DUP5 DUP3 DUP6 ADD PUSH2 0x250 JUMP JUMPDEST SWAP2 POP POP SWAP3 SWAP2 POP POP JUMP JUMPDEST PUSH2 0x29B DUP2 PUSH2 0x22F JUMP JUMPDEST DUP3 MSTORE POP POP JUMP JUMPDEST PUSH1 0x0 PUSH2 0x2AC DUP3 PUSH2 0x13A JUMP JUMPDEST SWAP1 POP SWAP2 SWAP1 POP JUMP JUMPDEST PUSH2 0x2BC DUP2 PUSH2 0x2A1 JUMP JUMPDEST DUP3 MSTORE POP POP JUMP JUMPDEST PUSH32 0x4E487B7100000000000000000000000000000000000000000000000000000000 PUSH1 0x0 MSTORE PUSH1 0x21 PUSH1 0x4 MSTORE PUSH1 0x24 PUSH1 0x0 REVERT JUMPDEST PUSH1 0x4 DUP2 LT PUSH2 0x302 JUMPI PUSH2 0x301 PUSH2 0x2C2 JUMP JUMPDEST JUMPDEST POP JUMP JUMPDEST PUSH1 0x0 DUP2 SWAP1 POP PUSH2 0x313 DUP3 PUSH2 0x2F1 JUMP JUMPDEST SWAP2 SWAP1 POP JUMP JUMPDEST PUSH1 0x0 PUSH2 0x323 DUP3 PUSH2 0x305 JUMP JUMPDEST SWAP1 POP SWAP2 SWAP1 POP JUMP JUMPDEST PUSH2 0x333 DUP2 PUSH2 0x318 JUMP JUMPDEST DUP3 MSTORE POP POP JUMP JUMPDEST PUSH1 0x0 PUSH1 0x60 DUP3 ADD SWAP1 POP PUSH2 0x34E PUSH1 0x0 DUP4 ADD DUP7 PUSH2 0x292 JUMP JUMPDEST PUSH2 0x35B PUSH1 0x20 DUP4 ADD DUP6 PUSH2 0x2B3 JUMP JUMPDEST PUSH2 0x368 PUSH1 0x40 DUP4 ADD DUP5 PUSH2 0x32A JUMP JUMPDEST SWAP5 SWAP4 POP POP POP POP JUMP INVALID LOG2 PUSH5 0x6970667358 0x22 SLT KECCAK256 SLT SWAP14 EXTCODEHASH CALLER SWAP8 0xD2 EQ SWAP6 EXTCODECOPY 0xC6 MLOAD 0xB2 0x5D DUP6 0xD1 0xBD JUMPDEST CREATE2 PUSH13 0xC4D3633CBCCCF882D580788284 PUSH5 0x736F6C6343 STOP ADDMOD 0xD STOP CALLER "
				},
				"gasEstimates": {
					"creation": {
						"codeDepositCost": "186800",
						"executionCost": "232",
						"totalCost": "187032"
					},
					"external": {
						"ERC721_Interface()": "341",
						"activeItem(uint256)": "infinite",
						"sqfToken()": "infinite"
					}
				},
				"methodIdentifiers": {
					"ERC721_Interface()": "2b4c32be",
					"activeItem(uint256)": "58dd8603",
					"sqfToken()": "15b81dc3"
				}
			},
			"storageLayout": {
				"storage": [
					{
						"astId": 104,
						"contract": "contracts/NFTContract3/FactoryStorage.sol:FactoryStorage",
						"label": "sqfToken",
						"offset": 0,
						"slot": "0",
						"type": "t_contract(IERC20)68"
					},
					{
						"astId": 109,
						"contract": "contracts/NFTContract3/FactoryStorage.sol:FactoryStorage",
						"label": "activeItem",
						"offset": 0,
						"slot": "1",
						"type": "t_mapping(t_uint256,t_struct(activeItems)82_storage)"
					},
					{
						"astId": 114,
						"contract": "contracts/NFTContract3/FactoryStorage.sol:FactoryStorage",
						"label": "ingameItem",
						"offset": 0,
						"slot": "2",
						"type": "t_mapping(t_uint256,t_struct(ingameItems)89_storage)"
					},
					{
						"astId": 119,
						"contract": "contracts/NFTContract3/FactoryStorage.sol:FactoryStorage",
						"label": "userStatus",
						"offset": 0,
						"slot": "3",
						"type": "t_mapping(t_uint256,t_struct(usersStatus)95_storage)"
					}
				],
				"types": {
					"t_address": {
						"encoding": "inplace",
						"label": "address",
						"numberOfBytes": "20"
					},
					"t_bool": {
						"encoding": "inplace",
						"label": "bool",
						"numberOfBytes": "1"
					},
					"t_bytes32": {
						"encoding": "inplace",
						"label": "bytes32",
						"numberOfBytes": "32"
					},
					"t_contract(IERC20)68": {
						"encoding": "inplace",
						"label": "contract IERC20",
						"numberOfBytes": "20"
					},
					"t_enum(activeStatus)74": {
						"encoding": "inplace",
						"label": "enum FactoryStorage.activeStatus",
						"numberOfBytes": "1"
					},
					"t_mapping(t_uint256,t_struct(activeItems)82_storage)": {
						"encoding": "mapping",
						"key": "t_uint256",
						"label": "mapping(uint256 => struct FactoryStorage.activeItems)",
						"numberOfBytes": "32",
						"value": "t_struct(activeItems)82_storage"
					},
					"t_mapping(t_uint256,t_struct(ingameItems)89_storage)": {
						"encoding": "mapping",
						"key": "t_uint256",
						"label": "mapping(uint256 => struct FactoryStorage.ingameItems)",
						"numberOfBytes": "32",
						"value": "t_struct(ingameItems)89_storage"
					},
					"t_mapping(t_uint256,t_struct(usersStatus)95_storage)": {
						"encoding": "mapping",
						"key": "t_uint256",
						"label": "mapping(uint256 => struct FactoryStorage.usersStatus)",
						"numberOfBytes": "32",
						"value": "t_struct(usersStatus)95_storage"
					},
					"t_string_storage": {
						"encoding": "bytes",
						"label": "string",
						"numberOfBytes": "32"
					},
					"t_struct(activeItems)82_storage": {
						"encoding": "inplace",
						"label": "struct FactoryStorage.activeItems",
						"members": [
							{
								"astId": 76,
								"contract": "contracts/NFTContract3/FactoryStorage.sol:FactoryStorage",
								"label": "id",
								"offset": 0,
								"slot": "0",
								"type": "t_uint256"
							},
							{
								"astId": 78,
								"contract": "contracts/NFTContract3/FactoryStorage.sol:FactoryStorage",
								"label": "owner",
								"offset": 0,
								"slot": "1",
								"type": "t_address"
							},
							{
								"astId": 81,
								"contract": "contracts/NFTContract3/FactoryStorage.sol:FactoryStorage",
								"label": "status",
								"offset": 20,
								"slot": "1",
								"type": "t_enum(activeStatus)74"
							}
						],
						"numberOfBytes": "64"
					},
					"t_struct(ingameItems)89_storage": {
						"encoding": "inplace",
						"label": "struct FactoryStorage.ingameItems",
						"members": [
							{
								"astId": 84,
								"contract": "contracts/NFTContract3/FactoryStorage.sol:FactoryStorage",
								"label": "id",
								"offset": 0,
								"slot": "0",
								"type": "t_bytes32"
							},
							{
								"astId": 86,
								"contract": "contracts/NFTContract3/FactoryStorage.sol:FactoryStorage",
								"label": "itemId",
								"offset": 0,
								"slot": "1",
								"type": "t_string_storage"
							},
							{
								"astId": 88,
								"contract": "contracts/NFTContract3/FactoryStorage.sol:FactoryStorage",
								"label": "ingame",
								"offset": 0,
								"slot": "2",
								"type": "t_bool"
							}
						],
						"numberOfBytes": "96"
					},
					"t_struct(usersStatus)95_storage": {
						"encoding": "inplace",
						"label": "struct FactoryStorage.usersStatus",
						"members": [
							{
								"astId": 91,
								"contract": "contracts/NFTContract3/FactoryStorage.sol:FactoryStorage",
								"label": "user",
								"offset": 0,
								"slot": "0",
								"type": "t_address"
							},
							{
								"astId": 94,
								"contract": "contracts/NFTContract3/FactoryStorage.sol:FactoryStorage",
								"label": "status",
								"offset": 20,
								"slot": "0",
								"type": "t_enum(activeStatus)74"
							}
						],
						"numberOfBytes": "32"
					},
					"t_uint256": {
						"encoding": "inplace",
						"label": "uint256",
						"numberOfBytes": "32"
					}
				}
			},
			"userdoc": {
				"kind": "user",
				"methods": {},
				"version": 1
			}
		}
	}
}