{
	"contracts/NFTContract3/FactoryStorage.sol": {
		"FactoryStorage": {
			"abi": [
				{
					"anonymous": false,
					"inputs": [
						{
							"indexed": true,
							"internalType": "address",
							"name": "user",
							"type": "address"
						},
						{
							"indexed": false,
							"internalType": "string",
							"name": "status",
							"type": "string"
						}
					],
					"name": "ActiveAccount",
					"type": "event"
				},
				{
					"anonymous": false,
					"inputs": [
						{
							"indexed": true,
							"internalType": "address",
							"name": "owner",
							"type": "address"
						},
						{
							"indexed": false,
							"internalType": "string",
							"name": "tokenId",
							"type": "string"
						}
					],
					"name": "Burn",
					"type": "event"
				},
				{
					"anonymous": false,
					"inputs": [
						{
							"indexed": true,
							"internalType": "address",
							"name": "receiver",
							"type": "address"
						},
						{
							"indexed": false,
							"internalType": "string",
							"name": "tokenId",
							"type": "string"
						}
					],
					"name": "Claim",
					"type": "event"
				},
				{
					"anonymous": false,
					"inputs": [
						{
							"indexed": true,
							"internalType": "address",
							"name": "to",
							"type": "address"
						},
						{
							"indexed": false,
							"internalType": "string",
							"name": "tokenId",
							"type": "string"
						}
					],
					"name": "Mint",
					"type": "event"
				},
				{
					"anonymous": false,
					"inputs": [
						{
							"indexed": true,
							"internalType": "address",
							"name": "owner",
							"type": "address"
						},
						{
							"indexed": false,
							"internalType": "string",
							"name": "tokenId",
							"type": "string"
						}
					],
					"name": "TransferToGame",
					"type": "event"
				},
				{
					"anonymous": false,
					"inputs": [
						{
							"indexed": true,
							"internalType": "address",
							"name": "owner",
							"type": "address"
						},
						{
							"indexed": false,
							"internalType": "string",
							"name": "tokenId",
							"type": "string"
						}
					],
					"name": "UnlockToken",
					"type": "event"
				},
				{
					"inputs": [],
					"name": "ERC721_Interface",
					"outputs": [
						{
							"internalType": "bytes4",
							"name": "",
							"type": "bytes4"
						}
					],
					"stateMutability": "view",
					"type": "function"
				},
				{
					"inputs": [
						{
							"internalType": "uint256",
							"name": "",
							"type": "uint256"
						}
					],
					"name": "activeItem",
					"outputs": [
						{
							"internalType": "uint256",
							"name": "id",
							"type": "uint256"
						},
						{
							"internalType": "address",
							"name": "owner",
							"type": "address"
						},
						{
							"internalType": "enum FactoryStorage.activeStatus",
							"name": "status",
							"type": "uint8"
						}
					],
					"stateMutability": "view",
					"type": "function"
				},
				{
					"inputs": [
						{
							"internalType": "uint256",
							"name": "",
							"type": "uint256"
						}
					],
					"name": "ingameItem",
					"outputs": [
						{
							"internalType": "uint256",
							"name": "id",
							"type": "uint256"
						},
						{
							"internalType": "string",
							"name": "itemId",
							"type": "string"
						},
						{
							"internalType": "string",
							"name": "externalId",
							"type": "string"
						},
						{
							"internalType": "bool",
							"name": "ingame",
							"type": "bool"
						}
					],
					"stateMutability": "view",
					"type": "function"
				},
				{
					"inputs": [],
					"name": "sqfToken",
					"outputs": [
						{
							"internalType": "contract IERC20",
							"name": "",
							"type": "address"
						}
					],
					"stateMutability": "view",
					"type": "function"
				},
				{
					"inputs": [
						{
							"internalType": "address",
							"name": "",
							"type": "address"
						}
					],
					"name": "userStatus",
					"outputs": [
						{
							"internalType": "enum FactoryStorage.activeStatus",
							"name": "status",
							"type": "uint8"
						}
					],
					"stateMutability": "view",
					"type": "function"
				}
			],
			"devdoc": {
				"kind": "dev",
				"methods": {},
				"version": 1
			},
			"evm": {
				"assembly": "    /* \"contracts/NFTContract3/FactoryStorage.sol\":837:1940  contract FactoryStorage {... */\n  mstore(0x40, 0x80)\n  callvalue\n  dup1\n  iszero\n  tag_1\n  jumpi\n  0x00\n  dup1\n  revert\ntag_1:\n  pop\n  dataSize(sub_0)\n  dup1\n  dataOffset(sub_0)\n  0x00\n  codecopy\n  0x00\n  return\nstop\n\nsub_0: assembly {\n        /* \"contracts/NFTContract3/FactoryStorage.sol\":837:1940  contract FactoryStorage {... */\n      mstore(0x40, 0x80)\n      callvalue\n      dup1\n      iszero\n      tag_1\n      jumpi\n      0x00\n      dup1\n      revert\n    tag_1:\n      pop\n      jumpi(tag_2, lt(calldatasize, 0x04))\n      shr(0xe0, calldataload(0x00))\n      dup1\n      0x15b81dc3\n      eq\n      tag_3\n      jumpi\n      dup1\n      0x225d29a1\n      eq\n      tag_4\n      jumpi\n      dup1\n      0x2b4c32be\n      eq\n      tag_5\n      jumpi\n      dup1\n      0x58dd8603\n      eq\n      tag_6\n      jumpi\n      dup1\n      0xd30bdac9\n      eq\n      tag_7\n      jumpi\n    tag_2:\n      0x00\n      dup1\n      revert\n        /* \"contracts/NFTContract3/FactoryStorage.sol\":1320:1342  IERC20 public sqfToken */\n    tag_3:\n      tag_8\n      tag_9\n      jump\t// in\n    tag_8:\n      mload(0x40)\n      tag_10\n      swap2\n      swap1\n      tag_11\n      jump\t// in\n    tag_10:\n      mload(0x40)\n      dup1\n      swap2\n      sub\n      swap1\n      return\n        /* \"contracts/NFTContract3/FactoryStorage.sol\":1530:1579  mapping(address => usersStatus) public userStatus */\n    tag_4:\n      tag_12\n      0x04\n      dup1\n      calldatasize\n      sub\n      dup2\n      add\n      swap1\n      tag_13\n      swap2\n      swap1\n      tag_14\n      jump\t// in\n    tag_13:\n      tag_15\n      jump\t// in\n    tag_12:\n      mload(0x40)\n      tag_16\n      swap2\n      swap1\n      tag_17\n      jump\t// in\n    tag_16:\n      mload(0x40)\n      dup1\n      swap2\n      sub\n      swap1\n      return\n        /* \"contracts/NFTContract3/FactoryStorage.sol\":1254:1314  bytes4 public constant ERC721_Interface = bytes4(0x80ac58cd) */\n    tag_5:\n      tag_18\n      tag_19\n      jump\t// in\n    tag_18:\n      mload(0x40)\n      tag_20\n      swap2\n      swap1\n      tag_21\n      jump\t// in\n    tag_20:\n      mload(0x40)\n      dup1\n      swap2\n      sub\n      swap1\n      return\n        /* \"contracts/NFTContract3/FactoryStorage.sol\":1420:1469  mapping(uint256 => activeItems) public activeItem */\n    tag_6:\n      tag_22\n      0x04\n      dup1\n      calldatasize\n      sub\n      dup2\n      add\n      swap1\n      tag_23\n      swap2\n      swap1\n      tag_24\n      jump\t// in\n    tag_23:\n      tag_25\n      jump\t// in\n    tag_22:\n      mload(0x40)\n      tag_26\n      swap4\n      swap3\n      swap2\n      swap1\n      tag_27\n      jump\t// in\n    tag_26:\n      mload(0x40)\n      dup1\n      swap2\n      sub\n      swap1\n      return\n        /* \"contracts/NFTContract3/FactoryStorage.sol\":1475:1524  mapping(uint256 => ingameItems) public ingameItem */\n    tag_7:\n      tag_28\n      0x04\n      dup1\n      calldatasize\n      sub\n      dup2\n      add\n      swap1\n      tag_29\n      swap2\n      swap1\n      tag_24\n      jump\t// in\n    tag_29:\n      tag_30\n      jump\t// in\n    tag_28:\n      mload(0x40)\n      tag_31\n      swap5\n      swap4\n      swap3\n      swap2\n      swap1\n      tag_32\n      jump\t// in\n    tag_31:\n      mload(0x40)\n      dup1\n      swap2\n      sub\n      swap1\n      return\n        /* \"contracts/NFTContract3/FactoryStorage.sol\":1320:1342  IERC20 public sqfToken */\n    tag_9:\n      0x00\n      dup1\n      sload\n      swap1\n      0x0100\n      exp\n      swap1\n      div\n      0xffffffffffffffffffffffffffffffffffffffff\n      and\n      dup2\n      jump\t// out\n        /* \"contracts/NFTContract3/FactoryStorage.sol\":1530:1579  mapping(address => usersStatus) public userStatus */\n    tag_15:\n      mstore(0x20, 0x03)\n      dup1\n      0x00\n      mstore\n      keccak256(0x00, 0x40)\n      0x00\n      swap2\n      pop\n      swap1\n      pop\n      dup1\n      0x00\n      add\n      0x00\n      swap1\n      sload\n      swap1\n      0x0100\n      exp\n      swap1\n      div\n      0xff\n      and\n      swap1\n      pop\n      dup2\n      jump\t// out\n        /* \"contracts/NFTContract3/FactoryStorage.sol\":1254:1314  bytes4 public constant ERC721_Interface = bytes4(0x80ac58cd) */\n    tag_19:\n        /* \"contracts/NFTContract3/FactoryStorage.sol\":1303:1313  0x80ac58cd */\n      0x80ac58cd\n        /* \"contracts/NFTContract3/FactoryStorage.sol\":1296:1314  bytes4(0x80ac58cd) */\n      0xe0\n      shl\n        /* \"contracts/NFTContract3/FactoryStorage.sol\":1254:1314  bytes4 public constant ERC721_Interface = bytes4(0x80ac58cd) */\n      dup2\n      jump\t// out\n        /* \"contracts/NFTContract3/FactoryStorage.sol\":1420:1469  mapping(uint256 => activeItems) public activeItem */\n    tag_25:\n      mstore(0x20, 0x01)\n      dup1\n      0x00\n      mstore\n      keccak256(0x00, 0x40)\n      0x00\n      swap2\n      pop\n      swap1\n      pop\n      dup1\n      0x00\n      add\n      sload\n      swap1\n      dup1\n      0x01\n      add\n      0x00\n      swap1\n      sload\n      swap1\n      0x0100\n      exp\n      swap1\n      div\n      0xffffffffffffffffffffffffffffffffffffffff\n      and\n      swap1\n      dup1\n      0x01\n      add\n      0x14\n      swap1\n      sload\n      swap1\n      0x0100\n      exp\n      swap1\n      div\n      0xff\n      and\n      swap1\n      pop\n      dup4\n      jump\t// out\n        /* \"contracts/NFTContract3/FactoryStorage.sol\":1475:1524  mapping(uint256 => ingameItems) public ingameItem */\n    tag_30:\n      mstore(0x20, 0x02)\n      dup1\n      0x00\n      mstore\n      keccak256(0x00, 0x40)\n      0x00\n      swap2\n      pop\n      swap1\n      pop\n      dup1\n      0x00\n      add\n      sload\n      swap1\n      dup1\n      0x01\n      add\n      dup1\n      sload\n      tag_33\n      swap1\n      tag_34\n      jump\t// in\n    tag_33:\n      dup1\n      0x1f\n      add\n      0x20\n      dup1\n      swap2\n      div\n      mul\n      0x20\n      add\n      mload(0x40)\n      swap1\n      dup2\n      add\n      0x40\n      mstore\n      dup1\n      swap3\n      swap2\n      swap1\n      dup2\n      dup2\n      mstore\n      0x20\n      add\n      dup3\n      dup1\n      sload\n      tag_35\n      swap1\n      tag_34\n      jump\t// in\n    tag_35:\n      dup1\n      iszero\n      tag_36\n      jumpi\n      dup1\n      0x1f\n      lt\n      tag_37\n      jumpi\n      0x0100\n      dup1\n      dup4\n      sload\n      div\n      mul\n      dup4\n      mstore\n      swap2\n      0x20\n      add\n      swap2\n      jump(tag_36)\n    tag_37:\n      dup3\n      add\n      swap2\n      swap1\n      0x00\n      mstore\n      keccak256(0x00, 0x20)\n      swap1\n    tag_38:\n      dup2\n      sload\n      dup2\n      mstore\n      swap1\n      0x01\n      add\n      swap1\n      0x20\n      add\n      dup1\n      dup4\n      gt\n      tag_38\n      jumpi\n      dup3\n      swap1\n      sub\n      0x1f\n      and\n      dup3\n      add\n      swap2\n    tag_36:\n      pop\n      pop\n      pop\n      pop\n      pop\n      swap1\n      dup1\n      0x02\n      add\n      dup1\n      sload\n      tag_39\n      swap1\n      tag_34\n      jump\t// in\n    tag_39:\n      dup1\n      0x1f\n      add\n      0x20\n      dup1\n      swap2\n      div\n      mul\n      0x20\n      add\n      mload(0x40)\n      swap1\n      dup2\n      add\n      0x40\n      mstore\n      dup1\n      swap3\n      swap2\n      swap1\n      dup2\n      dup2\n      mstore\n      0x20\n      add\n      dup3\n      dup1\n      sload\n      tag_40\n      swap1\n      tag_34\n      jump\t// in\n    tag_40:\n      dup1\n      iszero\n      tag_41\n      jumpi\n      dup1\n      0x1f\n      lt\n      tag_42\n      jumpi\n      0x0100\n      dup1\n      dup4\n      sload\n      div\n      mul\n      dup4\n      mstore\n      swap2\n      0x20\n      add\n      swap2\n      jump(tag_41)\n    tag_42:\n      dup3\n      add\n      swap2\n      swap1\n      0x00\n      mstore\n      keccak256(0x00, 0x20)\n      swap1\n    tag_43:\n      dup2\n      sload\n      dup2\n      mstore\n      swap1\n      0x01\n      add\n      swap1\n      0x20\n      add\n      dup1\n      dup4\n      gt\n      tag_43\n      jumpi\n      dup3\n      swap1\n      sub\n      0x1f\n      and\n      dup3\n      add\n      swap2\n    tag_41:\n      pop\n      pop\n      pop\n      pop\n      pop\n      swap1\n      dup1\n      0x03\n      add\n      0x00\n      swap1\n      sload\n      swap1\n      0x0100\n      exp\n      swap1\n      div\n      0xff\n      and\n      swap1\n      pop\n      dup5\n      jump\t// out\n        /* \"#utility.yul\":7:133   */\n    tag_44:\n        /* \"#utility.yul\":44:51   */\n      0x00\n        /* \"#utility.yul\":84:126   */\n      0xffffffffffffffffffffffffffffffffffffffff\n        /* \"#utility.yul\":77:82   */\n      dup3\n        /* \"#utility.yul\":73:127   */\n      and\n        /* \"#utility.yul\":62:127   */\n      swap1\n      pop\n        /* \"#utility.yul\":7:133   */\n      swap2\n      swap1\n      pop\n      jump\t// out\n        /* \"#utility.yul\":139:199   */\n    tag_45:\n        /* \"#utility.yul\":167:170   */\n      0x00\n        /* \"#utility.yul\":188:193   */\n      dup2\n        /* \"#utility.yul\":181:193   */\n      swap1\n      pop\n        /* \"#utility.yul\":139:199   */\n      swap2\n      swap1\n      pop\n      jump\t// out\n        /* \"#utility.yul\":205:347   */\n    tag_46:\n        /* \"#utility.yul\":255:264   */\n      0x00\n        /* \"#utility.yul\":288:341   */\n      tag_80\n        /* \"#utility.yul\":306:340   */\n      tag_81\n        /* \"#utility.yul\":315:339   */\n      tag_82\n        /* \"#utility.yul\":333:338   */\n      dup5\n        /* \"#utility.yul\":315:339   */\n      tag_44\n      jump\t// in\n    tag_82:\n        /* \"#utility.yul\":306:340   */\n      tag_45\n      jump\t// in\n    tag_81:\n        /* \"#utility.yul\":288:341   */\n      tag_44\n      jump\t// in\n    tag_80:\n        /* \"#utility.yul\":275:341   */\n      swap1\n      pop\n        /* \"#utility.yul\":205:347   */\n      swap2\n      swap1\n      pop\n      jump\t// out\n        /* \"#utility.yul\":353:479   */\n    tag_47:\n        /* \"#utility.yul\":403:412   */\n      0x00\n        /* \"#utility.yul\":436:473   */\n      tag_84\n        /* \"#utility.yul\":467:472   */\n      dup3\n        /* \"#utility.yul\":436:473   */\n      tag_46\n      jump\t// in\n    tag_84:\n        /* \"#utility.yul\":423:473   */\n      swap1\n      pop\n        /* \"#utility.yul\":353:479   */\n      swap2\n      swap1\n      pop\n      jump\t// out\n        /* \"#utility.yul\":485:624   */\n    tag_48:\n        /* \"#utility.yul\":548:557   */\n      0x00\n        /* \"#utility.yul\":581:618   */\n      tag_86\n        /* \"#utility.yul\":612:617   */\n      dup3\n        /* \"#utility.yul\":581:618   */\n      tag_47\n      jump\t// in\n    tag_86:\n        /* \"#utility.yul\":568:618   */\n      swap1\n      pop\n        /* \"#utility.yul\":485:624   */\n      swap2\n      swap1\n      pop\n      jump\t// out\n        /* \"#utility.yul\":630:787   */\n    tag_49:\n        /* \"#utility.yul\":730:780   */\n      tag_88\n        /* \"#utility.yul\":774:779   */\n      dup2\n        /* \"#utility.yul\":730:780   */\n      tag_48\n      jump\t// in\n    tag_88:\n        /* \"#utility.yul\":725:728   */\n      dup3\n        /* \"#utility.yul\":718:781   */\n      mstore\n        /* \"#utility.yul\":630:787   */\n      pop\n      pop\n      jump\t// out\n        /* \"#utility.yul\":793:1041   */\n    tag_11:\n        /* \"#utility.yul\":899:903   */\n      0x00\n        /* \"#utility.yul\":937:939   */\n      0x20\n        /* \"#utility.yul\":926:935   */\n      dup3\n        /* \"#utility.yul\":922:940   */\n      add\n        /* \"#utility.yul\":914:940   */\n      swap1\n      pop\n        /* \"#utility.yul\":950:1034   */\n      tag_90\n        /* \"#utility.yul\":1031:1032   */\n      0x00\n        /* \"#utility.yul\":1020:1029   */\n      dup4\n        /* \"#utility.yul\":1016:1033   */\n      add\n        /* \"#utility.yul\":1007:1013   */\n      dup5\n        /* \"#utility.yul\":950:1034   */\n      tag_49\n      jump\t// in\n    tag_90:\n        /* \"#utility.yul\":793:1041   */\n      swap3\n      swap2\n      pop\n      pop\n      jump\t// out\n        /* \"#utility.yul\":1128:1245   */\n    tag_51:\n        /* \"#utility.yul\":1237:1238   */\n      0x00\n        /* \"#utility.yul\":1234:1235   */\n      dup1\n        /* \"#utility.yul\":1227:1239   */\n      revert\n        /* \"#utility.yul\":1374:1470   */\n    tag_53:\n        /* \"#utility.yul\":1411:1418   */\n      0x00\n        /* \"#utility.yul\":1440:1464   */\n      tag_95\n        /* \"#utility.yul\":1458:1463   */\n      dup3\n        /* \"#utility.yul\":1440:1464   */\n      tag_44\n      jump\t// in\n    tag_95:\n        /* \"#utility.yul\":1429:1464   */\n      swap1\n      pop\n        /* \"#utility.yul\":1374:1470   */\n      swap2\n      swap1\n      pop\n      jump\t// out\n        /* \"#utility.yul\":1476:1598   */\n    tag_54:\n        /* \"#utility.yul\":1549:1573   */\n      tag_97\n        /* \"#utility.yul\":1567:1572   */\n      dup2\n        /* \"#utility.yul\":1549:1573   */\n      tag_53\n      jump\t// in\n    tag_97:\n        /* \"#utility.yul\":1542:1547   */\n      dup2\n        /* \"#utility.yul\":1539:1574   */\n      eq\n        /* \"#utility.yul\":1529:1592   */\n      tag_98\n      jumpi\n        /* \"#utility.yul\":1588:1589   */\n      0x00\n        /* \"#utility.yul\":1585:1586   */\n      dup1\n        /* \"#utility.yul\":1578:1590   */\n      revert\n        /* \"#utility.yul\":1529:1592   */\n    tag_98:\n        /* \"#utility.yul\":1476:1598   */\n      pop\n      jump\t// out\n        /* \"#utility.yul\":1604:1743   */\n    tag_55:\n        /* \"#utility.yul\":1650:1655   */\n      0x00\n        /* \"#utility.yul\":1688:1694   */\n      dup2\n        /* \"#utility.yul\":1675:1695   */\n      calldataload\n        /* \"#utility.yul\":1666:1695   */\n      swap1\n      pop\n        /* \"#utility.yul\":1704:1737   */\n      tag_100\n        /* \"#utility.yul\":1731:1736   */\n      dup2\n        /* \"#utility.yul\":1704:1737   */\n      tag_54\n      jump\t// in\n    tag_100:\n        /* \"#utility.yul\":1604:1743   */\n      swap3\n      swap2\n      pop\n      pop\n      jump\t// out\n        /* \"#utility.yul\":1749:2078   */\n    tag_14:\n        /* \"#utility.yul\":1808:1814   */\n      0x00\n        /* \"#utility.yul\":1857:1859   */\n      0x20\n        /* \"#utility.yul\":1845:1854   */\n      dup3\n        /* \"#utility.yul\":1836:1843   */\n      dup5\n        /* \"#utility.yul\":1832:1855   */\n      sub\n        /* \"#utility.yul\":1828:1860   */\n      slt\n        /* \"#utility.yul\":1825:1944   */\n      iszero\n      tag_102\n      jumpi\n        /* \"#utility.yul\":1863:1942   */\n      tag_103\n      tag_51\n      jump\t// in\n    tag_103:\n        /* \"#utility.yul\":1825:1944   */\n    tag_102:\n        /* \"#utility.yul\":1983:1984   */\n      0x00\n        /* \"#utility.yul\":2008:2061   */\n      tag_104\n        /* \"#utility.yul\":2053:2060   */\n      dup5\n        /* \"#utility.yul\":2044:2050   */\n      dup3\n        /* \"#utility.yul\":2033:2042   */\n      dup6\n        /* \"#utility.yul\":2029:2051   */\n      add\n        /* \"#utility.yul\":2008:2061   */\n      tag_55\n      jump\t// in\n    tag_104:\n        /* \"#utility.yul\":1998:2061   */\n      swap2\n      pop\n        /* \"#utility.yul\":1954:2071   */\n      pop\n        /* \"#utility.yul\":1749:2078   */\n      swap3\n      swap2\n      pop\n      pop\n      jump\t// out\n        /* \"#utility.yul\":2084:2264   */\n    tag_56:\n        /* \"#utility.yul\":2132:2209   */\n      0x4e487b7100000000000000000000000000000000000000000000000000000000\n        /* \"#utility.yul\":2129:2130   */\n      0x00\n        /* \"#utility.yul\":2122:2210   */\n      mstore\n        /* \"#utility.yul\":2229:2233   */\n      0x21\n        /* \"#utility.yul\":2226:2227   */\n      0x04\n        /* \"#utility.yul\":2219:2234   */\n      mstore\n        /* \"#utility.yul\":2253:2257   */\n      0x24\n        /* \"#utility.yul\":2250:2251   */\n      0x00\n        /* \"#utility.yul\":2243:2258   */\n      revert\n        /* \"#utility.yul\":2270:2390   */\n    tag_57:\n        /* \"#utility.yul\":2358:2359   */\n      0x04\n        /* \"#utility.yul\":2351:2356   */\n      dup2\n        /* \"#utility.yul\":2348:2360   */\n      lt\n        /* \"#utility.yul\":2338:2384   */\n      tag_107\n      jumpi\n        /* \"#utility.yul\":2364:2382   */\n      tag_108\n      tag_56\n      jump\t// in\n    tag_108:\n        /* \"#utility.yul\":2338:2384   */\n    tag_107:\n        /* \"#utility.yul\":2270:2390   */\n      pop\n      jump\t// out\n        /* \"#utility.yul\":2396:2537   */\n    tag_58:\n        /* \"#utility.yul\":2448:2455   */\n      0x00\n        /* \"#utility.yul\":2477:2482   */\n      dup2\n        /* \"#utility.yul\":2466:2482   */\n      swap1\n      pop\n        /* \"#utility.yul\":2483:2531   */\n      tag_110\n        /* \"#utility.yul\":2525:2530   */\n      dup3\n        /* \"#utility.yul\":2483:2531   */\n      tag_57\n      jump\t// in\n    tag_110:\n        /* \"#utility.yul\":2396:2537   */\n      swap2\n      swap1\n      pop\n      jump\t// out\n        /* \"#utility.yul\":2543:2684   */\n    tag_59:\n        /* \"#utility.yul\":2606:2615   */\n      0x00\n        /* \"#utility.yul\":2639:2678   */\n      tag_112\n        /* \"#utility.yul\":2672:2677   */\n      dup3\n        /* \"#utility.yul\":2639:2678   */\n      tag_58\n      jump\t// in\n    tag_112:\n        /* \"#utility.yul\":2626:2678   */\n      swap1\n      pop\n        /* \"#utility.yul\":2543:2684   */\n      swap2\n      swap1\n      pop\n      jump\t// out\n        /* \"#utility.yul\":2690:2847   */\n    tag_60:\n        /* \"#utility.yul\":2790:2840   */\n      tag_114\n        /* \"#utility.yul\":2834:2839   */\n      dup2\n        /* \"#utility.yul\":2790:2840   */\n      tag_59\n      jump\t// in\n    tag_114:\n        /* \"#utility.yul\":2785:2788   */\n      dup3\n        /* \"#utility.yul\":2778:2841   */\n      mstore\n        /* \"#utility.yul\":2690:2847   */\n      pop\n      pop\n      jump\t// out\n        /* \"#utility.yul\":2853:3101   */\n    tag_17:\n        /* \"#utility.yul\":2959:2963   */\n      0x00\n        /* \"#utility.yul\":2997:2999   */\n      0x20\n        /* \"#utility.yul\":2986:2995   */\n      dup3\n        /* \"#utility.yul\":2982:3000   */\n      add\n        /* \"#utility.yul\":2974:3000   */\n      swap1\n      pop\n        /* \"#utility.yul\":3010:3094   */\n      tag_116\n        /* \"#utility.yul\":3091:3092   */\n      0x00\n        /* \"#utility.yul\":3080:3089   */\n      dup4\n        /* \"#utility.yul\":3076:3093   */\n      add\n        /* \"#utility.yul\":3067:3073   */\n      dup5\n        /* \"#utility.yul\":3010:3094   */\n      tag_60\n      jump\t// in\n    tag_116:\n        /* \"#utility.yul\":2853:3101   */\n      swap3\n      swap2\n      pop\n      pop\n      jump\t// out\n        /* \"#utility.yul\":3107:3256   */\n    tag_61:\n        /* \"#utility.yul\":3143:3150   */\n      0x00\n        /* \"#utility.yul\":3183:3249   */\n      0xffffffff00000000000000000000000000000000000000000000000000000000\n        /* \"#utility.yul\":3176:3181   */\n      dup3\n        /* \"#utility.yul\":3172:3250   */\n      and\n        /* \"#utility.yul\":3161:3250   */\n      swap1\n      pop\n        /* \"#utility.yul\":3107:3256   */\n      swap2\n      swap1\n      pop\n      jump\t// out\n        /* \"#utility.yul\":3262:3377   */\n    tag_62:\n        /* \"#utility.yul\":3347:3370   */\n      tag_119\n        /* \"#utility.yul\":3364:3369   */\n      dup2\n        /* \"#utility.yul\":3347:3370   */\n      tag_61\n      jump\t// in\n    tag_119:\n        /* \"#utility.yul\":3342:3345   */\n      dup3\n        /* \"#utility.yul\":3335:3371   */\n      mstore\n        /* \"#utility.yul\":3262:3377   */\n      pop\n      pop\n      jump\t// out\n        /* \"#utility.yul\":3383:3601   */\n    tag_21:\n        /* \"#utility.yul\":3474:3478   */\n      0x00\n        /* \"#utility.yul\":3512:3514   */\n      0x20\n        /* \"#utility.yul\":3501:3510   */\n      dup3\n        /* \"#utility.yul\":3497:3515   */\n      add\n        /* \"#utility.yul\":3489:3515   */\n      swap1\n      pop\n        /* \"#utility.yul\":3525:3594   */\n      tag_121\n        /* \"#utility.yul\":3591:3592   */\n      0x00\n        /* \"#utility.yul\":3580:3589   */\n      dup4\n        /* \"#utility.yul\":3576:3593   */\n      add\n        /* \"#utility.yul\":3567:3573   */\n      dup5\n        /* \"#utility.yul\":3525:3594   */\n      tag_62\n      jump\t// in\n    tag_121:\n        /* \"#utility.yul\":3383:3601   */\n      swap3\n      swap2\n      pop\n      pop\n      jump\t// out\n        /* \"#utility.yul\":3607:3684   */\n    tag_63:\n        /* \"#utility.yul\":3644:3651   */\n      0x00\n        /* \"#utility.yul\":3673:3678   */\n      dup2\n        /* \"#utility.yul\":3662:3678   */\n      swap1\n      pop\n        /* \"#utility.yul\":3607:3684   */\n      swap2\n      swap1\n      pop\n      jump\t// out\n        /* \"#utility.yul\":3690:3812   */\n    tag_64:\n        /* \"#utility.yul\":3763:3787   */\n      tag_124\n        /* \"#utility.yul\":3781:3786   */\n      dup2\n        /* \"#utility.yul\":3763:3787   */\n      tag_63\n      jump\t// in\n    tag_124:\n        /* \"#utility.yul\":3756:3761   */\n      dup2\n        /* \"#utility.yul\":3753:3788   */\n      eq\n        /* \"#utility.yul\":3743:3806   */\n      tag_125\n      jumpi\n        /* \"#utility.yul\":3802:3803   */\n      0x00\n        /* \"#utility.yul\":3799:3800   */\n      dup1\n        /* \"#utility.yul\":3792:3804   */\n      revert\n        /* \"#utility.yul\":3743:3806   */\n    tag_125:\n        /* \"#utility.yul\":3690:3812   */\n      pop\n      jump\t// out\n        /* \"#utility.yul\":3818:3957   */\n    tag_65:\n        /* \"#utility.yul\":3864:3869   */\n      0x00\n        /* \"#utility.yul\":3902:3908   */\n      dup2\n        /* \"#utility.yul\":3889:3909   */\n      calldataload\n        /* \"#utility.yul\":3880:3909   */\n      swap1\n      pop\n        /* \"#utility.yul\":3918:3951   */\n      tag_127\n        /* \"#utility.yul\":3945:3950   */\n      dup2\n        /* \"#utility.yul\":3918:3951   */\n      tag_64\n      jump\t// in\n    tag_127:\n        /* \"#utility.yul\":3818:3957   */\n      swap3\n      swap2\n      pop\n      pop\n      jump\t// out\n        /* \"#utility.yul\":3963:4292   */\n    tag_24:\n        /* \"#utility.yul\":4022:4028   */\n      0x00\n        /* \"#utility.yul\":4071:4073   */\n      0x20\n        /* \"#utility.yul\":4059:4068   */\n      dup3\n        /* \"#utility.yul\":4050:4057   */\n      dup5\n        /* \"#utility.yul\":4046:4069   */\n      sub\n        /* \"#utility.yul\":4042:4074   */\n      slt\n        /* \"#utility.yul\":4039:4158   */\n      iszero\n      tag_129\n      jumpi\n        /* \"#utility.yul\":4077:4156   */\n      tag_130\n      tag_51\n      jump\t// in\n    tag_130:\n        /* \"#utility.yul\":4039:4158   */\n    tag_129:\n        /* \"#utility.yul\":4197:4198   */\n      0x00\n        /* \"#utility.yul\":4222:4275   */\n      tag_131\n        /* \"#utility.yul\":4267:4274   */\n      dup5\n        /* \"#utility.yul\":4258:4264   */\n      dup3\n        /* \"#utility.yul\":4247:4256   */\n      dup6\n        /* \"#utility.yul\":4243:4265   */\n      add\n        /* \"#utility.yul\":4222:4275   */\n      tag_65\n      jump\t// in\n    tag_131:\n        /* \"#utility.yul\":4212:4275   */\n      swap2\n      pop\n        /* \"#utility.yul\":4168:4285   */\n      pop\n        /* \"#utility.yul\":3963:4292   */\n      swap3\n      swap2\n      pop\n      pop\n      jump\t// out\n        /* \"#utility.yul\":4298:4416   */\n    tag_66:\n        /* \"#utility.yul\":4385:4409   */\n      tag_133\n        /* \"#utility.yul\":4403:4408   */\n      dup2\n        /* \"#utility.yul\":4385:4409   */\n      tag_63\n      jump\t// in\n    tag_133:\n        /* \"#utility.yul\":4380:4383   */\n      dup3\n        /* \"#utility.yul\":4373:4410   */\n      mstore\n        /* \"#utility.yul\":4298:4416   */\n      pop\n      pop\n      jump\t// out\n        /* \"#utility.yul\":4422:4540   */\n    tag_67:\n        /* \"#utility.yul\":4509:4533   */\n      tag_135\n        /* \"#utility.yul\":4527:4532   */\n      dup2\n        /* \"#utility.yul\":4509:4533   */\n      tag_53\n      jump\t// in\n    tag_135:\n        /* \"#utility.yul\":4504:4507   */\n      dup3\n        /* \"#utility.yul\":4497:4534   */\n      mstore\n        /* \"#utility.yul\":4422:4540   */\n      pop\n      pop\n      jump\t// out\n        /* \"#utility.yul\":4546:5014   */\n    tag_27:\n        /* \"#utility.yul\":4708:4712   */\n      0x00\n        /* \"#utility.yul\":4746:4748   */\n      0x60\n        /* \"#utility.yul\":4735:4744   */\n      dup3\n        /* \"#utility.yul\":4731:4749   */\n      add\n        /* \"#utility.yul\":4723:4749   */\n      swap1\n      pop\n        /* \"#utility.yul\":4759:4830   */\n      tag_137\n        /* \"#utility.yul\":4827:4828   */\n      0x00\n        /* \"#utility.yul\":4816:4825   */\n      dup4\n        /* \"#utility.yul\":4812:4829   */\n      add\n        /* \"#utility.yul\":4803:4809   */\n      dup7\n        /* \"#utility.yul\":4759:4830   */\n      tag_66\n      jump\t// in\n    tag_137:\n        /* \"#utility.yul\":4840:4912   */\n      tag_138\n        /* \"#utility.yul\":4908:4910   */\n      0x20\n        /* \"#utility.yul\":4897:4906   */\n      dup4\n        /* \"#utility.yul\":4893:4911   */\n      add\n        /* \"#utility.yul\":4884:4890   */\n      dup6\n        /* \"#utility.yul\":4840:4912   */\n      tag_67\n      jump\t// in\n    tag_138:\n        /* \"#utility.yul\":4922:5007   */\n      tag_139\n        /* \"#utility.yul\":5003:5005   */\n      0x40\n        /* \"#utility.yul\":4992:5001   */\n      dup4\n        /* \"#utility.yul\":4988:5006   */\n      add\n        /* \"#utility.yul\":4979:4985   */\n      dup5\n        /* \"#utility.yul\":4922:5007   */\n      tag_60\n      jump\t// in\n    tag_139:\n        /* \"#utility.yul\":4546:5014   */\n      swap5\n      swap4\n      pop\n      pop\n      pop\n      pop\n      jump\t// out\n        /* \"#utility.yul\":5020:5119   */\n    tag_68:\n        /* \"#utility.yul\":5072:5078   */\n      0x00\n        /* \"#utility.yul\":5106:5111   */\n      dup2\n        /* \"#utility.yul\":5100:5112   */\n      mload\n        /* \"#utility.yul\":5090:5112   */\n      swap1\n      pop\n        /* \"#utility.yul\":5020:5119   */\n      swap2\n      swap1\n      pop\n      jump\t// out\n        /* \"#utility.yul\":5125:5294   */\n    tag_69:\n        /* \"#utility.yul\":5209:5220   */\n      0x00\n        /* \"#utility.yul\":5243:5249   */\n      dup3\n        /* \"#utility.yul\":5238:5241   */\n      dup3\n        /* \"#utility.yul\":5231:5250   */\n      mstore\n        /* \"#utility.yul\":5283:5287   */\n      0x20\n        /* \"#utility.yul\":5278:5281   */\n      dup3\n        /* \"#utility.yul\":5274:5288   */\n      add\n        /* \"#utility.yul\":5259:5288   */\n      swap1\n      pop\n        /* \"#utility.yul\":5125:5294   */\n      swap3\n      swap2\n      pop\n      pop\n      jump\t// out\n        /* \"#utility.yul\":5300:5607   */\n    tag_70:\n        /* \"#utility.yul\":5368:5369   */\n      0x00\n        /* \"#utility.yul\":5378:5491   */\n    tag_143:\n        /* \"#utility.yul\":5392:5398   */\n      dup4\n        /* \"#utility.yul\":5389:5390   */\n      dup2\n        /* \"#utility.yul\":5386:5399   */\n      lt\n        /* \"#utility.yul\":5378:5491   */\n      iszero\n      tag_145\n      jumpi\n        /* \"#utility.yul\":5477:5478   */\n      dup1\n        /* \"#utility.yul\":5472:5475   */\n      dup3\n        /* \"#utility.yul\":5468:5479   */\n      add\n        /* \"#utility.yul\":5462:5480   */\n      mload\n        /* \"#utility.yul\":5458:5459   */\n      dup2\n        /* \"#utility.yul\":5453:5456   */\n      dup5\n        /* \"#utility.yul\":5449:5460   */\n      add\n        /* \"#utility.yul\":5442:5481   */\n      mstore\n        /* \"#utility.yul\":5414:5416   */\n      0x20\n        /* \"#utility.yul\":5411:5412   */\n      dup2\n        /* \"#utility.yul\":5407:5417   */\n      add\n        /* \"#utility.yul\":5402:5417   */\n      swap1\n      pop\n        /* \"#utility.yul\":5378:5491   */\n      jump(tag_143)\n    tag_145:\n        /* \"#utility.yul\":5509:5515   */\n      dup4\n        /* \"#utility.yul\":5506:5507   */\n      dup2\n        /* \"#utility.yul\":5503:5516   */\n      gt\n        /* \"#utility.yul\":5500:5601   */\n      iszero\n      tag_146\n      jumpi\n        /* \"#utility.yul\":5589:5590   */\n      0x00\n        /* \"#utility.yul\":5580:5586   */\n      dup5\n        /* \"#utility.yul\":5575:5578   */\n      dup5\n        /* \"#utility.yul\":5571:5587   */\n      add\n        /* \"#utility.yul\":5564:5591   */\n      mstore\n        /* \"#utility.yul\":5500:5601   */\n    tag_146:\n        /* \"#utility.yul\":5349:5607   */\n      pop\n        /* \"#utility.yul\":5300:5607   */\n      pop\n      pop\n      pop\n      jump\t// out\n        /* \"#utility.yul\":5613:5715   */\n    tag_71:\n        /* \"#utility.yul\":5654:5660   */\n      0x00\n        /* \"#utility.yul\":5705:5707   */\n      0x1f\n        /* \"#utility.yul\":5701:5708   */\n      not\n        /* \"#utility.yul\":5696:5698   */\n      0x1f\n        /* \"#utility.yul\":5689:5694   */\n      dup4\n        /* \"#utility.yul\":5685:5699   */\n      add\n        /* \"#utility.yul\":5681:5709   */\n      and\n        /* \"#utility.yul\":5671:5709   */\n      swap1\n      pop\n        /* \"#utility.yul\":5613:5715   */\n      swap2\n      swap1\n      pop\n      jump\t// out\n        /* \"#utility.yul\":5721:6085   */\n    tag_72:\n        /* \"#utility.yul\":5809:5812   */\n      0x00\n        /* \"#utility.yul\":5837:5876   */\n      tag_149\n        /* \"#utility.yul\":5870:5875   */\n      dup3\n        /* \"#utility.yul\":5837:5876   */\n      tag_68\n      jump\t// in\n    tag_149:\n        /* \"#utility.yul\":5892:5963   */\n      tag_150\n        /* \"#utility.yul\":5956:5962   */\n      dup2\n        /* \"#utility.yul\":5951:5954   */\n      dup6\n        /* \"#utility.yul\":5892:5963   */\n      tag_69\n      jump\t// in\n    tag_150:\n        /* \"#utility.yul\":5885:5963   */\n      swap4\n      pop\n        /* \"#utility.yul\":5972:6024   */\n      tag_151\n        /* \"#utility.yul\":6017:6023   */\n      dup2\n        /* \"#utility.yul\":6012:6015   */\n      dup6\n        /* \"#utility.yul\":6005:6009   */\n      0x20\n        /* \"#utility.yul\":5998:6003   */\n      dup7\n        /* \"#utility.yul\":5994:6010   */\n      add\n        /* \"#utility.yul\":5972:6024   */\n      tag_70\n      jump\t// in\n    tag_151:\n        /* \"#utility.yul\":6049:6078   */\n      tag_152\n        /* \"#utility.yul\":6071:6077   */\n      dup2\n        /* \"#utility.yul\":6049:6078   */\n      tag_71\n      jump\t// in\n    tag_152:\n        /* \"#utility.yul\":6044:6047   */\n      dup5\n        /* \"#utility.yul\":6040:6079   */\n      add\n        /* \"#utility.yul\":6033:6079   */\n      swap2\n      pop\n        /* \"#utility.yul\":5813:6085   */\n      pop\n        /* \"#utility.yul\":5721:6085   */\n      swap3\n      swap2\n      pop\n      pop\n      jump\t// out\n        /* \"#utility.yul\":6091:6181   */\n    tag_73:\n        /* \"#utility.yul\":6125:6132   */\n      0x00\n        /* \"#utility.yul\":6168:6173   */\n      dup2\n        /* \"#utility.yul\":6161:6174   */\n      iszero\n        /* \"#utility.yul\":6154:6175   */\n      iszero\n        /* \"#utility.yul\":6143:6175   */\n      swap1\n      pop\n        /* \"#utility.yul\":6091:6181   */\n      swap2\n      swap1\n      pop\n      jump\t// out\n        /* \"#utility.yul\":6187:6296   */\n    tag_74:\n        /* \"#utility.yul\":6268:6289   */\n      tag_155\n        /* \"#utility.yul\":6283:6288   */\n      dup2\n        /* \"#utility.yul\":6268:6289   */\n      tag_73\n      jump\t// in\n    tag_155:\n        /* \"#utility.yul\":6263:6266   */\n      dup3\n        /* \"#utility.yul\":6256:6290   */\n      mstore\n        /* \"#utility.yul\":6187:6296   */\n      pop\n      pop\n      jump\t// out\n        /* \"#utility.yul\":6302:7025   */\n    tag_32:\n        /* \"#utility.yul\":6513:6517   */\n      0x00\n        /* \"#utility.yul\":6551:6554   */\n      0x80\n        /* \"#utility.yul\":6540:6549   */\n      dup3\n        /* \"#utility.yul\":6536:6555   */\n      add\n        /* \"#utility.yul\":6528:6555   */\n      swap1\n      pop\n        /* \"#utility.yul\":6565:6636   */\n      tag_157\n        /* \"#utility.yul\":6633:6634   */\n      0x00\n        /* \"#utility.yul\":6622:6631   */\n      dup4\n        /* \"#utility.yul\":6618:6635   */\n      add\n        /* \"#utility.yul\":6609:6615   */\n      dup8\n        /* \"#utility.yul\":6565:6636   */\n      tag_66\n      jump\t// in\n    tag_157:\n        /* \"#utility.yul\":6683:6692   */\n      dup2\n        /* \"#utility.yul\":6677:6681   */\n      dup2\n        /* \"#utility.yul\":6673:6693   */\n      sub\n        /* \"#utility.yul\":6668:6670   */\n      0x20\n        /* \"#utility.yul\":6657:6666   */\n      dup4\n        /* \"#utility.yul\":6653:6671   */\n      add\n        /* \"#utility.yul\":6646:6694   */\n      mstore\n        /* \"#utility.yul\":6711:6789   */\n      tag_158\n        /* \"#utility.yul\":6784:6788   */\n      dup2\n        /* \"#utility.yul\":6775:6781   */\n      dup7\n        /* \"#utility.yul\":6711:6789   */\n      tag_72\n      jump\t// in\n    tag_158:\n        /* \"#utility.yul\":6703:6789   */\n      swap1\n      pop\n        /* \"#utility.yul\":6836:6845   */\n      dup2\n        /* \"#utility.yul\":6830:6834   */\n      dup2\n        /* \"#utility.yul\":6826:6846   */\n      sub\n        /* \"#utility.yul\":6821:6823   */\n      0x40\n        /* \"#utility.yul\":6810:6819   */\n      dup4\n        /* \"#utility.yul\":6806:6824   */\n      add\n        /* \"#utility.yul\":6799:6847   */\n      mstore\n        /* \"#utility.yul\":6864:6942   */\n      tag_159\n        /* \"#utility.yul\":6937:6941   */\n      dup2\n        /* \"#utility.yul\":6928:6934   */\n      dup6\n        /* \"#utility.yul\":6864:6942   */\n      tag_72\n      jump\t// in\n    tag_159:\n        /* \"#utility.yul\":6856:6942   */\n      swap1\n      pop\n        /* \"#utility.yul\":6952:7018   */\n      tag_160\n        /* \"#utility.yul\":7014:7016   */\n      0x60\n        /* \"#utility.yul\":7003:7012   */\n      dup4\n        /* \"#utility.yul\":6999:7017   */\n      add\n        /* \"#utility.yul\":6990:6996   */\n      dup5\n        /* \"#utility.yul\":6952:7018   */\n      tag_74\n      jump\t// in\n    tag_160:\n        /* \"#utility.yul\":6302:7025   */\n      swap6\n      swap5\n      pop\n      pop\n      pop\n      pop\n      pop\n      jump\t// out\n        /* \"#utility.yul\":7031:7211   */\n    tag_75:\n        /* \"#utility.yul\":7079:7156   */\n      0x4e487b7100000000000000000000000000000000000000000000000000000000\n        /* \"#utility.yul\":7076:7077   */\n      0x00\n        /* \"#utility.yul\":7069:7157   */\n      mstore\n        /* \"#utility.yul\":7176:7180   */\n      0x22\n        /* \"#utility.yul\":7173:7174   */\n      0x04\n        /* \"#utility.yul\":7166:7181   */\n      mstore\n        /* \"#utility.yul\":7200:7204   */\n      0x24\n        /* \"#utility.yul\":7197:7198   */\n      0x00\n        /* \"#utility.yul\":7190:7205   */\n      revert\n        /* \"#utility.yul\":7217:7537   */\n    tag_34:\n        /* \"#utility.yul\":7261:7267   */\n      0x00\n        /* \"#utility.yul\":7298:7299   */\n      0x02\n        /* \"#utility.yul\":7292:7296   */\n      dup3\n        /* \"#utility.yul\":7288:7300   */\n      div\n        /* \"#utility.yul\":7278:7300   */\n      swap1\n      pop\n        /* \"#utility.yul\":7345:7346   */\n      0x01\n        /* \"#utility.yul\":7339:7343   */\n      dup3\n        /* \"#utility.yul\":7335:7347   */\n      and\n        /* \"#utility.yul\":7366:7384   */\n      dup1\n        /* \"#utility.yul\":7356:7437   */\n      tag_163\n      jumpi\n        /* \"#utility.yul\":7422:7426   */\n      0x7f\n        /* \"#utility.yul\":7414:7420   */\n      dup3\n        /* \"#utility.yul\":7410:7427   */\n      and\n        /* \"#utility.yul\":7400:7427   */\n      swap2\n      pop\n        /* \"#utility.yul\":7356:7437   */\n    tag_163:\n        /* \"#utility.yul\":7484:7486   */\n      0x20\n        /* \"#utility.yul\":7476:7482   */\n      dup3\n        /* \"#utility.yul\":7473:7487   */\n      lt\n        /* \"#utility.yul\":7453:7471   */\n      dup2\n        /* \"#utility.yul\":7450:7488   */\n      sub\n        /* \"#utility.yul\":7447:7531   */\n      tag_164\n      jumpi\n        /* \"#utility.yul\":7503:7521   */\n      tag_165\n      tag_75\n      jump\t// in\n    tag_165:\n        /* \"#utility.yul\":7447:7531   */\n    tag_164:\n        /* \"#utility.yul\":7268:7537   */\n      pop\n        /* \"#utility.yul\":7217:7537   */\n      swap2\n      swap1\n      pop\n      jump\t// out\n\n    auxdata: 0xa26469706673582212202542e3a39453199ff82bffbb5e31862bfe3388d215092f320e4cb81bd02514f964736f6c634300080d0033\n}\n",
				"bytecode": {
					"linkReferences": {},
					"object": "608060405234801561001057600080fd5b50610772806100206000396000f3fe608060405234801561001057600080fd5b50600436106100575760003560e01c806315b81dc31461005c578063225d29a11461007a5780632b4c32be146100aa57806358dd8603146100c8578063d30bdac9146100fa575b600080fd5b61006461012d565b60405161007191906103aa565b60405180910390f35b610094600480360381019061008f9190610408565b610151565b6040516100a191906104ac565b60405180910390f35b6100b261017c565b6040516100bf9190610502565b60405180910390f35b6100e260048036038101906100dd9190610553565b610187565b6040516100f19392919061059e565b60405180910390f35b610114600480360381019061010f9190610553565b6101de565b6040516101249493929190610689565b60405180910390f35b60008054906101000a900473ffffffffffffffffffffffffffffffffffffffff1681565b60036020528060005260406000206000915090508060000160009054906101000a900460ff16905081565b6380ac58cd60e01b81565b60016020528060005260406000206000915090508060000154908060010160009054906101000a900473ffffffffffffffffffffffffffffffffffffffff16908060010160149054906101000a900460ff16905083565b60026020528060005260406000206000915090508060000154908060010180546102079061070b565b80601f01602080910402602001604051908101604052809291908181526020018280546102339061070b565b80156102805780601f1061025557610100808354040283529160200191610280565b820191906000526020600020905b81548152906001019060200180831161026357829003601f168201915b5050505050908060020180546102959061070b565b80601f01602080910402602001604051908101604052809291908181526020018280546102c19061070b565b801561030e5780601f106102e35761010080835404028352916020019161030e565b820191906000526020600020905b8154815290600101906020018083116102f157829003601f168201915b5050505050908060030160009054906101000a900460ff16905084565b600073ffffffffffffffffffffffffffffffffffffffff82169050919050565b6000819050919050565b600061037061036b6103668461032b565b61034b565b61032b565b9050919050565b600061038282610355565b9050919050565b600061039482610377565b9050919050565b6103a481610389565b82525050565b60006020820190506103bf600083018461039b565b92915050565b600080fd5b60006103d58261032b565b9050919050565b6103e5816103ca565b81146103f057600080fd5b50565b600081359050610402816103dc565b92915050565b60006020828403121561041e5761041d6103c5565b5b600061042c848285016103f3565b91505092915050565b7f4e487b7100000000000000000000000000000000000000000000000000000000600052602160045260246000fd5b6004811061047557610474610435565b5b50565b600081905061048682610464565b919050565b600061049682610478565b9050919050565b6104a68161048b565b82525050565b60006020820190506104c1600083018461049d565b92915050565b60007fffffffff0000000000000000000000000000000000000000000000000000000082169050919050565b6104fc816104c7565b82525050565b600060208201905061051760008301846104f3565b92915050565b6000819050919050565b6105308161051d565b811461053b57600080fd5b50565b60008135905061054d81610527565b92915050565b600060208284031215610569576105686103c5565b5b60006105778482850161053e565b91505092915050565b6105898161051d565b82525050565b610598816103ca565b82525050565b60006060820190506105b36000830186610580565b6105c0602083018561058f565b6105cd604083018461049d565b949350505050565b600081519050919050565b600082825260208201905092915050565b60005b8381101561060f5780820151818401526020810190506105f4565b8381111561061e576000848401525b50505050565b6000601f19601f8301169050919050565b6000610640826105d5565b61064a81856105e0565b935061065a8185602086016105f1565b61066381610624565b840191505092915050565b60008115159050919050565b6106838161066e565b82525050565b600060808201905061069e6000830187610580565b81810360208301526106b08186610635565b905081810360408301526106c48185610635565b90506106d3606083018461067a565b95945050505050565b7f4e487b7100000000000000000000000000000000000000000000000000000000600052602260045260246000fd5b6000600282049050600182168061072357607f821691505b602082108103610736576107356106dc565b5b5091905056fea26469706673582212202542e3a39453199ff82bffbb5e31862bfe3388d215092f320e4cb81bd02514f964736f6c634300080d0033",
					"opcodes": "PUSH1 0x80 PUSH1 0x40 MSTORE CALLVALUE DUP1 ISZERO PUSH2 0x10 JUMPI PUSH1 0x0 DUP1 REVERT JUMPDEST POP PUSH2 0x772 DUP1 PUSH2 0x20 PUSH1 0x0 CODECOPY PUSH1 0x0 RETURN INVALID PUSH1 0x80 PUSH1 0x40 MSTORE CALLVALUE DUP1 ISZERO PUSH2 0x10 JUMPI PUSH1 0x0 DUP1 REVERT JUMPDEST POP PUSH1 0x4 CALLDATASIZE LT PUSH2 0x57 JUMPI PUSH1 0x0 CALLDATALOAD PUSH1 0xE0 SHR DUP1 PUSH4 0x15B81DC3 EQ PUSH2 0x5C JUMPI DUP1 PUSH4 0x225D29A1 EQ PUSH2 0x7A JUMPI DUP1 PUSH4 0x2B4C32BE EQ PUSH2 0xAA JUMPI DUP1 PUSH4 0x58DD8603 EQ PUSH2 0xC8 JUMPI DUP1 PUSH4 0xD30BDAC9 EQ PUSH2 0xFA JUMPI JUMPDEST PUSH1 0x0 DUP1 REVERT JUMPDEST PUSH2 0x64 PUSH2 0x12D JUMP JUMPDEST PUSH1 0x40 MLOAD PUSH2 0x71 SWAP2 SWAP1 PUSH2 0x3AA JUMP JUMPDEST PUSH1 0x40 MLOAD DUP1 SWAP2 SUB SWAP1 RETURN JUMPDEST PUSH2 0x94 PUSH1 0x4 DUP1 CALLDATASIZE SUB DUP2 ADD SWAP1 PUSH2 0x8F SWAP2 SWAP1 PUSH2 0x408 JUMP JUMPDEST PUSH2 0x151 JUMP JUMPDEST PUSH1 0x40 MLOAD PUSH2 0xA1 SWAP2 SWAP1 PUSH2 0x4AC JUMP JUMPDEST PUSH1 0x40 MLOAD DUP1 SWAP2 SUB SWAP1 RETURN JUMPDEST PUSH2 0xB2 PUSH2 0x17C JUMP JUMPDEST PUSH1 0x40 MLOAD PUSH2 0xBF SWAP2 SWAP1 PUSH2 0x502 JUMP JUMPDEST PUSH1 0x40 MLOAD DUP1 SWAP2 SUB SWAP1 RETURN JUMPDEST PUSH2 0xE2 PUSH1 0x4 DUP1 CALLDATASIZE SUB DUP2 ADD SWAP1 PUSH2 0xDD SWAP2 SWAP1 PUSH2 0x553 JUMP JUMPDEST PUSH2 0x187 JUMP JUMPDEST PUSH1 0x40 MLOAD PUSH2 0xF1 SWAP4 SWAP3 SWAP2 SWAP1 PUSH2 0x59E JUMP JUMPDEST PUSH1 0x40 MLOAD DUP1 SWAP2 SUB SWAP1 RETURN JUMPDEST PUSH2 0x114 PUSH1 0x4 DUP1 CALLDATASIZE SUB DUP2 ADD SWAP1 PUSH2 0x10F SWAP2 SWAP1 PUSH2 0x553 JUMP JUMPDEST PUSH2 0x1DE JUMP JUMPDEST PUSH1 0x40 MLOAD PUSH2 0x124 SWAP5 SWAP4 SWAP3 SWAP2 SWAP1 PUSH2 0x689 JUMP JUMPDEST PUSH1 0x40 MLOAD DUP1 SWAP2 SUB SWAP1 RETURN JUMPDEST PUSH1 0x0 DUP1 SLOAD SWAP1 PUSH2 0x100 EXP SWAP1 DIV PUSH20 0xFFFFFFFFFFFFFFFFFFFFFFFFFFFFFFFFFFFFFFFF AND DUP2 JUMP JUMPDEST PUSH1 0x3 PUSH1 0x20 MSTORE DUP1 PUSH1 0x0 MSTORE PUSH1 0x40 PUSH1 0x0 KECCAK256 PUSH1 0x0 SWAP2 POP SWAP1 POP DUP1 PUSH1 0x0 ADD PUSH1 0x0 SWAP1 SLOAD SWAP1 PUSH2 0x100 EXP SWAP1 DIV PUSH1 0xFF AND SWAP1 POP DUP2 JUMP JUMPDEST PUSH4 0x80AC58CD PUSH1 0xE0 SHL DUP2 JUMP JUMPDEST PUSH1 0x1 PUSH1 0x20 MSTORE DUP1 PUSH1 0x0 MSTORE PUSH1 0x40 PUSH1 0x0 KECCAK256 PUSH1 0x0 SWAP2 POP SWAP1 POP DUP1 PUSH1 0x0 ADD SLOAD SWAP1 DUP1 PUSH1 0x1 ADD PUSH1 0x0 SWAP1 SLOAD SWAP1 PUSH2 0x100 EXP SWAP1 DIV PUSH20 0xFFFFFFFFFFFFFFFFFFFFFFFFFFFFFFFFFFFFFFFF AND SWAP1 DUP1 PUSH1 0x1 ADD PUSH1 0x14 SWAP1 SLOAD SWAP1 PUSH2 0x100 EXP SWAP1 DIV PUSH1 0xFF AND SWAP1 POP DUP4 JUMP JUMPDEST PUSH1 0x2 PUSH1 0x20 MSTORE DUP1 PUSH1 0x0 MSTORE PUSH1 0x40 PUSH1 0x0 KECCAK256 PUSH1 0x0 SWAP2 POP SWAP1 POP DUP1 PUSH1 0x0 ADD SLOAD SWAP1 DUP1 PUSH1 0x1 ADD DUP1 SLOAD PUSH2 0x207 SWAP1 PUSH2 0x70B JUMP JUMPDEST DUP1 PUSH1 0x1F ADD PUSH1 0x20 DUP1 SWAP2 DIV MUL PUSH1 0x20 ADD PUSH1 0x40 MLOAD SWAP1 DUP2 ADD PUSH1 0x40 MSTORE DUP1 SWAP3 SWAP2 SWAP1 DUP2 DUP2 MSTORE PUSH1 0x20 ADD DUP3 DUP1 SLOAD PUSH2 0x233 SWAP1 PUSH2 0x70B JUMP JUMPDEST DUP1 ISZERO PUSH2 0x280 JUMPI DUP1 PUSH1 0x1F LT PUSH2 0x255 JUMPI PUSH2 0x100 DUP1 DUP4 SLOAD DIV MUL DUP4 MSTORE SWAP2 PUSH1 0x20 ADD SWAP2 PUSH2 0x280 JUMP JUMPDEST DUP3 ADD SWAP2 SWAP1 PUSH1 0x0 MSTORE PUSH1 0x20 PUSH1 0x0 KECCAK256 SWAP1 JUMPDEST DUP2 SLOAD DUP2 MSTORE SWAP1 PUSH1 0x1 ADD SWAP1 PUSH1 0x20 ADD DUP1 DUP4 GT PUSH2 0x263 JUMPI DUP3 SWAP1 SUB PUSH1 0x1F AND DUP3 ADD SWAP2 JUMPDEST POP POP POP POP POP SWAP1 DUP1 PUSH1 0x2 ADD DUP1 SLOAD PUSH2 0x295 SWAP1 PUSH2 0x70B JUMP JUMPDEST DUP1 PUSH1 0x1F ADD PUSH1 0x20 DUP1 SWAP2 DIV MUL PUSH1 0x20 ADD PUSH1 0x40 MLOAD SWAP1 DUP2 ADD PUSH1 0x40 MSTORE DUP1 SWAP3 SWAP2 SWAP1 DUP2 DUP2 MSTORE PUSH1 0x20 ADD DUP3 DUP1 SLOAD PUSH2 0x2C1 SWAP1 PUSH2 0x70B JUMP JUMPDEST DUP1 ISZERO PUSH2 0x30E JUMPI DUP1 PUSH1 0x1F LT PUSH2 0x2E3 JUMPI PUSH2 0x100 DUP1 DUP4 SLOAD DIV MUL DUP4 MSTORE SWAP2 PUSH1 0x20 ADD SWAP2 PUSH2 0x30E JUMP JUMPDEST DUP3 ADD SWAP2 SWAP1 PUSH1 0x0 MSTORE PUSH1 0x20 PUSH1 0x0 KECCAK256 SWAP1 JUMPDEST DUP2 SLOAD DUP2 MSTORE SWAP1 PUSH1 0x1 ADD SWAP1 PUSH1 0x20 ADD DUP1 DUP4 GT PUSH2 0x2F1 JUMPI DUP3 SWAP1 SUB PUSH1 0x1F AND DUP3 ADD SWAP2 JUMPDEST POP POP POP POP POP SWAP1 DUP1 PUSH1 0x3 ADD PUSH1 0x0 SWAP1 SLOAD SWAP1 PUSH2 0x100 EXP SWAP1 DIV PUSH1 0xFF AND SWAP1 POP DUP5 JUMP JUMPDEST PUSH1 0x0 PUSH20 0xFFFFFFFFFFFFFFFFFFFFFFFFFFFFFFFFFFFFFFFF DUP3 AND SWAP1 POP SWAP2 SWAP1 POP JUMP JUMPDEST PUSH1 0x0 DUP2 SWAP1 POP SWAP2 SWAP1 POP JUMP JUMPDEST PUSH1 0x0 PUSH2 0x370 PUSH2 0x36B PUSH2 0x366 DUP5 PUSH2 0x32B JUMP JUMPDEST PUSH2 0x34B JUMP JUMPDEST PUSH2 0x32B JUMP JUMPDEST SWAP1 POP SWAP2 SWAP1 POP JUMP JUMPDEST PUSH1 0x0 PUSH2 0x382 DUP3 PUSH2 0x355 JUMP JUMPDEST SWAP1 POP SWAP2 SWAP1 POP JUMP JUMPDEST PUSH1 0x0 PUSH2 0x394 DUP3 PUSH2 0x377 JUMP JUMPDEST SWAP1 POP SWAP2 SWAP1 POP JUMP JUMPDEST PUSH2 0x3A4 DUP2 PUSH2 0x389 JUMP JUMPDEST DUP3 MSTORE POP POP JUMP JUMPDEST PUSH1 0x0 PUSH1 0x20 DUP3 ADD SWAP1 POP PUSH2 0x3BF PUSH1 0x0 DUP4 ADD DUP5 PUSH2 0x39B JUMP JUMPDEST SWAP3 SWAP2 POP POP JUMP JUMPDEST PUSH1 0x0 DUP1 REVERT JUMPDEST PUSH1 0x0 PUSH2 0x3D5 DUP3 PUSH2 0x32B JUMP JUMPDEST SWAP1 POP SWAP2 SWAP1 POP JUMP JUMPDEST PUSH2 0x3E5 DUP2 PUSH2 0x3CA JUMP JUMPDEST DUP2 EQ PUSH2 0x3F0 JUMPI PUSH1 0x0 DUP1 REVERT JUMPDEST POP JUMP JUMPDEST PUSH1 0x0 DUP2 CALLDATALOAD SWAP1 POP PUSH2 0x402 DUP2 PUSH2 0x3DC JUMP JUMPDEST SWAP3 SWAP2 POP POP JUMP JUMPDEST PUSH1 0x0 PUSH1 0x20 DUP3 DUP5 SUB SLT ISZERO PUSH2 0x41E JUMPI PUSH2 0x41D PUSH2 0x3C5 JUMP JUMPDEST JUMPDEST PUSH1 0x0 PUSH2 0x42C DUP5 DUP3 DUP6 ADD PUSH2 0x3F3 JUMP JUMPDEST SWAP2 POP POP SWAP3 SWAP2 POP POP JUMP JUMPDEST PUSH32 0x4E487B7100000000000000000000000000000000000000000000000000000000 PUSH1 0x0 MSTORE PUSH1 0x21 PUSH1 0x4 MSTORE PUSH1 0x24 PUSH1 0x0 REVERT JUMPDEST PUSH1 0x4 DUP2 LT PUSH2 0x475 JUMPI PUSH2 0x474 PUSH2 0x435 JUMP JUMPDEST JUMPDEST POP JUMP JUMPDEST PUSH1 0x0 DUP2 SWAP1 POP PUSH2 0x486 DUP3 PUSH2 0x464 JUMP JUMPDEST SWAP2 SWAP1 POP JUMP JUMPDEST PUSH1 0x0 PUSH2 0x496 DUP3 PUSH2 0x478 JUMP JUMPDEST SWAP1 POP SWAP2 SWAP1 POP JUMP JUMPDEST PUSH2 0x4A6 DUP2 PUSH2 0x48B JUMP JUMPDEST DUP3 MSTORE POP POP JUMP JUMPDEST PUSH1 0x0 PUSH1 0x20 DUP3 ADD SWAP1 POP PUSH2 0x4C1 PUSH1 0x0 DUP4 ADD DUP5 PUSH2 0x49D JUMP JUMPDEST SWAP3 SWAP2 POP POP JUMP JUMPDEST PUSH1 0x0 PUSH32 0xFFFFFFFF00000000000000000000000000000000000000000000000000000000 DUP3 AND SWAP1 POP SWAP2 SWAP1 POP JUMP JUMPDEST PUSH2 0x4FC DUP2 PUSH2 0x4C7 JUMP JUMPDEST DUP3 MSTORE POP POP JUMP JUMPDEST PUSH1 0x0 PUSH1 0x20 DUP3 ADD SWAP1 POP PUSH2 0x517 PUSH1 0x0 DUP4 ADD DUP5 PUSH2 0x4F3 JUMP JUMPDEST SWAP3 SWAP2 POP POP JUMP JUMPDEST PUSH1 0x0 DUP2 SWAP1 POP SWAP2 SWAP1 POP JUMP JUMPDEST PUSH2 0x530 DUP2 PUSH2 0x51D JUMP JUMPDEST DUP2 EQ PUSH2 0x53B JUMPI PUSH1 0x0 DUP1 REVERT JUMPDEST POP JUMP JUMPDEST PUSH1 0x0 DUP2 CALLDATALOAD SWAP1 POP PUSH2 0x54D DUP2 PUSH2 0x527 JUMP JUMPDEST SWAP3 SWAP2 POP POP JUMP JUMPDEST PUSH1 0x0 PUSH1 0x20 DUP3 DUP5 SUB SLT ISZERO PUSH2 0x569 JUMPI PUSH2 0x568 PUSH2 0x3C5 JUMP JUMPDEST JUMPDEST PUSH1 0x0 PUSH2 0x577 DUP5 DUP3 DUP6 ADD PUSH2 0x53E JUMP JUMPDEST SWAP2 POP POP SWAP3 SWAP2 POP POP JUMP JUMPDEST PUSH2 0x589 DUP2 PUSH2 0x51D JUMP JUMPDEST DUP3 MSTORE POP POP JUMP JUMPDEST PUSH2 0x598 DUP2 PUSH2 0x3CA JUMP JUMPDEST DUP3 MSTORE POP POP JUMP JUMPDEST PUSH1 0x0 PUSH1 0x60 DUP3 ADD SWAP1 POP PUSH2 0x5B3 PUSH1 0x0 DUP4 ADD DUP7 PUSH2 0x580 JUMP JUMPDEST PUSH2 0x5C0 PUSH1 0x20 DUP4 ADD DUP6 PUSH2 0x58F JUMP JUMPDEST PUSH2 0x5CD PUSH1 0x40 DUP4 ADD DUP5 PUSH2 0x49D JUMP JUMPDEST SWAP5 SWAP4 POP POP POP POP JUMP JUMPDEST PUSH1 0x0 DUP2 MLOAD SWAP1 POP SWAP2 SWAP1 POP JUMP JUMPDEST PUSH1 0x0 DUP3 DUP3 MSTORE PUSH1 0x20 DUP3 ADD SWAP1 POP SWAP3 SWAP2 POP POP JUMP JUMPDEST PUSH1 0x0 JUMPDEST DUP4 DUP2 LT ISZERO PUSH2 0x60F JUMPI DUP1 DUP3 ADD MLOAD DUP2 DUP5 ADD MSTORE PUSH1 0x20 DUP2 ADD SWAP1 POP PUSH2 0x5F4 JUMP JUMPDEST DUP4 DUP2 GT ISZERO PUSH2 0x61E JUMPI PUSH1 0x0 DUP5 DUP5 ADD MSTORE JUMPDEST POP POP POP POP JUMP JUMPDEST PUSH1 0x0 PUSH1 0x1F NOT PUSH1 0x1F DUP4 ADD AND SWAP1 POP SWAP2 SWAP1 POP JUMP JUMPDEST PUSH1 0x0 PUSH2 0x640 DUP3 PUSH2 0x5D5 JUMP JUMPDEST PUSH2 0x64A DUP2 DUP6 PUSH2 0x5E0 JUMP JUMPDEST SWAP4 POP PUSH2 0x65A DUP2 DUP6 PUSH1 0x20 DUP7 ADD PUSH2 0x5F1 JUMP JUMPDEST PUSH2 0x663 DUP2 PUSH2 0x624 JUMP JUMPDEST DUP5 ADD SWAP2 POP POP SWAP3 SWAP2 POP POP JUMP JUMPDEST PUSH1 0x0 DUP2 ISZERO ISZERO SWAP1 POP SWAP2 SWAP1 POP JUMP JUMPDEST PUSH2 0x683 DUP2 PUSH2 0x66E JUMP JUMPDEST DUP3 MSTORE POP POP JUMP JUMPDEST PUSH1 0x0 PUSH1 0x80 DUP3 ADD SWAP1 POP PUSH2 0x69E PUSH1 0x0 DUP4 ADD DUP8 PUSH2 0x580 JUMP JUMPDEST DUP2 DUP2 SUB PUSH1 0x20 DUP4 ADD MSTORE PUSH2 0x6B0 DUP2 DUP7 PUSH2 0x635 JUMP JUMPDEST SWAP1 POP DUP2 DUP2 SUB PUSH1 0x40 DUP4 ADD MSTORE PUSH2 0x6C4 DUP2 DUP6 PUSH2 0x635 JUMP JUMPDEST SWAP1 POP PUSH2 0x6D3 PUSH1 0x60 DUP4 ADD DUP5 PUSH2 0x67A JUMP JUMPDEST SWAP6 SWAP5 POP POP POP POP POP JUMP JUMPDEST PUSH32 0x4E487B7100000000000000000000000000000000000000000000000000000000 PUSH1 0x0 MSTORE PUSH1 0x22 PUSH1 0x4 MSTORE PUSH1 0x24 PUSH1 0x0 REVERT JUMPDEST PUSH1 0x0 PUSH1 0x2 DUP3 DIV SWAP1 POP PUSH1 0x1 DUP3 AND DUP1 PUSH2 0x723 JUMPI PUSH1 0x7F DUP3 AND SWAP2 POP JUMPDEST PUSH1 0x20 DUP3 LT DUP2 SUB PUSH2 0x736 JUMPI PUSH2 0x735 PUSH2 0x6DC JUMP JUMPDEST JUMPDEST POP SWAP2 SWAP1 POP JUMP INVALID LOG2 PUSH5 0x6970667358 0x22 SLT KECCAK256 0x25 TIMESTAMP 0xE3 LOG3 SWAP5 MSTORE8 NOT SWAP16 0xF8 0x2B SELFDESTRUCT 0xBB 0x5E BALANCE DUP7 0x2B INVALID CALLER DUP9 0xD2 ISZERO MULMOD 0x2F ORIGIN 0xE 0x4C 0xB8 SHL 0xD0 0x25 EQ 0xF9 PUSH5 0x736F6C6343 STOP ADDMOD 0xD STOP CALLER "
				},
				"gasEstimates": {
					"creation": {
						"codeDepositCost": "381200",
						"executionCost": "418",
						"totalCost": "381618"
					},
					"external": {
						"ERC721_Interface()": "363",
						"activeItem(uint256)": "infinite",
						"ingameItem(uint256)": "infinite",
						"sqfToken()": "infinite",
						"userStatus(address)": "2959"
					}
				},
				"methodIdentifiers": {
					"ERC721_Interface()": "2b4c32be",
					"activeItem(uint256)": "58dd8603",
					"ingameItem(uint256)": "d30bdac9",
					"sqfToken()": "15b81dc3",
					"userStatus(address)": "225d29a1"
				}
			},
			"storageLayout": {
				"storage": [
					{
						"astId": 104,
						"contract": "contracts/NFTContract3/FactoryStorage.sol:FactoryStorage",
						"label": "sqfToken",
						"offset": 0,
						"slot": "0",
						"type": "t_contract(IERC20)68"
					},
					{
						"astId": 109,
						"contract": "contracts/NFTContract3/FactoryStorage.sol:FactoryStorage",
						"label": "activeItem",
						"offset": 0,
						"slot": "1",
						"type": "t_mapping(t_uint256,t_struct(activeItems)82_storage)"
					},
					{
						"astId": 114,
						"contract": "contracts/NFTContract3/FactoryStorage.sol:FactoryStorage",
						"label": "ingameItem",
						"offset": 0,
						"slot": "2",
						"type": "t_mapping(t_uint256,t_struct(ingameItems)91_storage)"
					},
					{
						"astId": 119,
						"contract": "contracts/NFTContract3/FactoryStorage.sol:FactoryStorage",
						"label": "userStatus",
						"offset": 0,
						"slot": "3",
						"type": "t_mapping(t_address,t_struct(usersStatus)95_storage)"
					}
				],
				"types": {
					"t_address": {
						"encoding": "inplace",
						"label": "address",
						"numberOfBytes": "20"
					},
					"t_bool": {
						"encoding": "inplace",
						"label": "bool",
						"numberOfBytes": "1"
					},
					"t_contract(IERC20)68": {
						"encoding": "inplace",
						"label": "contract IERC20",
						"numberOfBytes": "20"
					},
					"t_enum(activeStatus)74": {
						"encoding": "inplace",
						"label": "enum FactoryStorage.activeStatus",
						"numberOfBytes": "1"
					},
					"t_mapping(t_address,t_struct(usersStatus)95_storage)": {
						"encoding": "mapping",
						"key": "t_address",
						"label": "mapping(address => struct FactoryStorage.usersStatus)",
						"numberOfBytes": "32",
						"value": "t_struct(usersStatus)95_storage"
					},
					"t_mapping(t_uint256,t_struct(activeItems)82_storage)": {
						"encoding": "mapping",
						"key": "t_uint256",
						"label": "mapping(uint256 => struct FactoryStorage.activeItems)",
						"numberOfBytes": "32",
						"value": "t_struct(activeItems)82_storage"
					},
					"t_mapping(t_uint256,t_struct(ingameItems)91_storage)": {
						"encoding": "mapping",
						"key": "t_uint256",
						"label": "mapping(uint256 => struct FactoryStorage.ingameItems)",
						"numberOfBytes": "32",
						"value": "t_struct(ingameItems)91_storage"
					},
					"t_string_storage": {
						"encoding": "bytes",
						"label": "string",
						"numberOfBytes": "32"
					},
					"t_struct(activeItems)82_storage": {
						"encoding": "inplace",
						"label": "struct FactoryStorage.activeItems",
						"members": [
							{
								"astId": 76,
								"contract": "contracts/NFTContract3/FactoryStorage.sol:FactoryStorage",
								"label": "id",
								"offset": 0,
								"slot": "0",
								"type": "t_uint256"
							},
							{
								"astId": 78,
								"contract": "contracts/NFTContract3/FactoryStorage.sol:FactoryStorage",
								"label": "owner",
								"offset": 0,
								"slot": "1",
								"type": "t_address"
							},
							{
								"astId": 81,
								"contract": "contracts/NFTContract3/FactoryStorage.sol:FactoryStorage",
								"label": "status",
								"offset": 20,
								"slot": "1",
								"type": "t_enum(activeStatus)74"
							}
						],
						"numberOfBytes": "64"
					},
					"t_struct(ingameItems)91_storage": {
						"encoding": "inplace",
						"label": "struct FactoryStorage.ingameItems",
						"members": [
							{
								"astId": 84,
								"contract": "contracts/NFTContract3/FactoryStorage.sol:FactoryStorage",
								"label": "id",
								"offset": 0,
								"slot": "0",
								"type": "t_uint256"
							},
							{
								"astId": 86,
								"contract": "contracts/NFTContract3/FactoryStorage.sol:FactoryStorage",
								"label": "itemId",
								"offset": 0,
								"slot": "1",
								"type": "t_string_storage"
							},
							{
								"astId": 88,
								"contract": "contracts/NFTContract3/FactoryStorage.sol:FactoryStorage",
								"label": "externalId",
								"offset": 0,
								"slot": "2",
								"type": "t_string_storage"
							},
							{
								"astId": 90,
								"contract": "contracts/NFTContract3/FactoryStorage.sol:FactoryStorage",
								"label": "ingame",
								"offset": 0,
								"slot": "3",
								"type": "t_bool"
							}
						],
						"numberOfBytes": "128"
					},
					"t_struct(usersStatus)95_storage": {
						"encoding": "inplace",
						"label": "struct FactoryStorage.usersStatus",
						"members": [
							{
								"astId": 94,
								"contract": "contracts/NFTContract3/FactoryStorage.sol:FactoryStorage",
								"label": "status",
								"offset": 0,
								"slot": "0",
								"type": "t_enum(activeStatus)74"
							}
						],
						"numberOfBytes": "32"
					},
					"t_uint256": {
						"encoding": "inplace",
						"label": "uint256",
						"numberOfBytes": "32"
					}
				}
			},
			"userdoc": {
				"kind": "user",
				"methods": {},
				"version": 1
			}
		}
	}
}