{
	"contracts/NFTContract/SQFItem.sol": {
		"SQFItem": {
			"abi": [
				{
					"inputs": [
						{
							"internalType": "string",
							"name": "_name",
							"type": "string"
						},
						{
							"internalType": "string",
							"name": "_symbol",
							"type": "string"
						}
					],
					"stateMutability": "nonpayable",
					"type": "constructor"
				},
				{
					"anonymous": false,
					"inputs": [
						{
							"indexed": true,
							"internalType": "address",
							"name": "owner",
							"type": "address"
						},
						{
							"indexed": true,
							"internalType": "address",
							"name": "approved",
							"type": "address"
						},
						{
							"indexed": true,
							"internalType": "uint256",
							"name": "tokenId",
							"type": "uint256"
						}
					],
					"name": "Approval",
					"type": "event"
				},
				{
					"anonymous": false,
					"inputs": [
						{
							"indexed": true,
							"internalType": "address",
							"name": "owner",
							"type": "address"
						},
						{
							"indexed": true,
							"internalType": "address",
							"name": "operator",
							"type": "address"
						},
						{
							"indexed": false,
							"internalType": "bool",
							"name": "approved",
							"type": "bool"
						}
					],
					"name": "ApprovalForAll",
					"type": "event"
				},
				{
					"anonymous": false,
					"inputs": [
						{
							"indexed": true,
							"internalType": "uint256",
							"name": "_tokenId",
							"type": "uint256"
						}
					],
					"name": "NewItem",
					"type": "event"
				},
				{
					"anonymous": false,
					"inputs": [
						{
							"indexed": true,
							"internalType": "address",
							"name": "previousOwner",
							"type": "address"
						},
						{
							"indexed": true,
							"internalType": "address",
							"name": "newOwner",
							"type": "address"
						}
					],
					"name": "OwnershipTransferred",
					"type": "event"
				},
				{
					"anonymous": false,
					"inputs": [
						{
							"indexed": true,
							"internalType": "address",
							"name": "from",
							"type": "address"
						},
						{
							"indexed": true,
							"internalType": "address",
							"name": "to",
							"type": "address"
						},
						{
							"indexed": true,
							"internalType": "uint256",
							"name": "tokenId",
							"type": "uint256"
						}
					],
					"name": "Transfer",
					"type": "event"
				},
				{
					"inputs": [
						{
							"internalType": "address",
							"name": "to",
							"type": "address"
						},
						{
							"internalType": "uint256",
							"name": "tokenId",
							"type": "uint256"
						}
					],
					"name": "approve",
					"outputs": [],
					"stateMutability": "nonpayable",
					"type": "function"
				},
				{
					"inputs": [
						{
							"internalType": "address",
							"name": "owner",
							"type": "address"
						}
					],
					"name": "balanceOf",
					"outputs": [
						{
							"internalType": "uint256",
							"name": "",
							"type": "uint256"
						}
					],
					"stateMutability": "view",
					"type": "function"
				},
				{
					"inputs": [
						{
							"internalType": "uint256",
							"name": "tokenId",
							"type": "uint256"
						}
					],
					"name": "getApproved",
					"outputs": [
						{
							"internalType": "address",
							"name": "",
							"type": "address"
						}
					],
					"stateMutability": "view",
					"type": "function"
				},
				{
					"inputs": [
						{
							"internalType": "address",
							"name": "_to",
							"type": "address"
						},
						{
							"internalType": "string",
							"name": "tokenURI_",
							"type": "string"
						}
					],
					"name": "mint",
					"outputs": [],
					"stateMutability": "nonpayable",
					"type": "function"
				},
				{
					"inputs": [],
					"name": "name",
					"outputs": [
						{
							"internalType": "string",
							"name": "",
							"type": "string"
						}
					],
					"stateMutability": "view",
					"type": "function"
				},
				{
					"inputs": [],
					"name": "nextId",
					"outputs": [
						{
							"internalType": "uint256",
							"name": "",
							"type": "uint256"
						}
					],
					"stateMutability": "view",
					"type": "function"
				},
				{
					"inputs": [],
					"name": "owner",
					"outputs": [
						{
							"internalType": "address",
							"name": "",
							"type": "address"
						}
					],
					"stateMutability": "view",
					"type": "function"
				},
				{
					"inputs": [
						{
							"internalType": "uint256",
							"name": "tokenId",
							"type": "uint256"
						}
					],
					"name": "ownerOf",
					"outputs": [
						{
							"internalType": "address",
							"name": "",
							"type": "address"
						}
					],
					"stateMutability": "view",
					"type": "function"
				},
				{
					"inputs": [],
					"name": "renounceOwnership",
					"outputs": [],
					"stateMutability": "nonpayable",
					"type": "function"
				},
				{
					"inputs": [
						{
							"internalType": "address",
							"name": "from",
							"type": "address"
						},
						{
							"internalType": "address",
							"name": "to",
							"type": "address"
						},
						{
							"internalType": "uint256",
							"name": "tokenId",
							"type": "uint256"
						}
					],
					"name": "safeTransferFrom",
					"outputs": [],
					"stateMutability": "nonpayable",
					"type": "function"
				},
				{
					"inputs": [
						{
							"internalType": "address",
							"name": "from",
							"type": "address"
						},
						{
							"internalType": "address",
							"name": "to",
							"type": "address"
						},
						{
							"internalType": "uint256",
							"name": "tokenId",
							"type": "uint256"
						},
						{
							"internalType": "bytes",
							"name": "_data",
							"type": "bytes"
						}
					],
					"name": "safeTransferFrom",
					"outputs": [],
					"stateMutability": "nonpayable",
					"type": "function"
				},
				{
					"inputs": [
						{
							"internalType": "string",
							"name": "baseURI_",
							"type": "string"
						}
					],
					"name": "setBaseURI",
					"outputs": [],
					"stateMutability": "nonpayable",
					"type": "function"
				},
				{
					"inputs": [],
					"name": "symbol",
					"outputs": [
						{
							"internalType": "string",
							"name": "",
							"type": "string"
						}
					],
					"stateMutability": "view",
					"type": "function"
				},
				{
					"inputs": [
						{
							"internalType": "uint256",
							"name": "tokenId",
							"type": "uint256"
						}
					],
					"name": "tokenURI",
					"outputs": [
						{
							"internalType": "string",
							"name": "",
							"type": "string"
						}
					],
					"stateMutability": "view",
					"type": "function"
				},
				{
					"inputs": [
						{
							"internalType": "address",
							"name": "from",
							"type": "address"
						},
						{
							"internalType": "address",
							"name": "to",
							"type": "address"
						},
						{
							"internalType": "uint256",
							"name": "tokenId",
							"type": "uint256"
						}
					],
					"name": "transferFrom",
					"outputs": [],
					"stateMutability": "nonpayable",
					"type": "function"
				},
				{
					"inputs": [
						{
							"internalType": "address",
							"name": "newOwner",
							"type": "address"
						}
					],
					"name": "transferOwnership",
					"outputs": [],
					"stateMutability": "nonpayable",
					"type": "function"
				}
			],
			"devdoc": {
				"kind": "dev",
				"methods": {},
				"version": 1
			},
			"evm": {
				"assembly": "    /* \"contracts/NFTContract/SQFItem.sol\":17865:19825  contract SQFItem is ERC721 {... */\n  mstore(0x40, 0x80)\n    /* \"contracts/NFTContract/SQFItem.sol\":18043:18044  1 */\n  0x01\n    /* \"contracts/NFTContract/SQFItem.sol\":18019:18044  uint256 public nextId = 1 */\n  0x0b\n  sstore\n    /* \"contracts/NFTContract/SQFItem.sol\":18151:18251  constructor(... */\n  callvalue\n  dup1\n  iszero\n  tag_1\n  jumpi\n  0x00\n  dup1\n  revert\ntag_1:\n  pop\n  mload(0x40)\n  sub(codesize, bytecodeSize)\n  dup1\n  bytecodeSize\n  dup4\n  codecopy\n  dup2\n  dup2\n  add\n  0x40\n  mstore\n  dup2\n  add\n  swap1\n  tag_2\n  swap2\n  swap1\n  tag_3\n  jump\t// in\ntag_2:\n    /* \"contracts/NFTContract/SQFItem.sol\":18228:18233  _name */\n  dup2\n    /* \"contracts/NFTContract/SQFItem.sol\":18235:18242  _symbol */\n  dup2\n    /* \"contracts/NFTContract/SQFItem.sol\":6347:6379  _transferOwnership(_msgSender()) */\n  tag_8\n    /* \"contracts/NFTContract/SQFItem.sol\":6366:6378  _msgSender() */\n  tag_9\n    /* \"contracts/NFTContract/SQFItem.sol\":6366:6376  _msgSender */\n  shl(0x20, tag_10)\n    /* \"contracts/NFTContract/SQFItem.sol\":6366:6378  _msgSender() */\n  0x20\n  shr\n  jump\t// in\ntag_9:\n    /* \"contracts/NFTContract/SQFItem.sol\":6347:6365  _transferOwnership */\n  shl(0x20, tag_11)\n    /* \"contracts/NFTContract/SQFItem.sol\":6347:6379  _transferOwnership(_msgSender()) */\n  0x20\n  shr\n  jump\t// in\ntag_8:\n    /* \"contracts/NFTContract/SQFItem.sol\":9237:9242  name_ */\n  dup2\n    /* \"contracts/NFTContract/SQFItem.sol\":9229:9234  _name */\n  0x07\n    /* \"contracts/NFTContract/SQFItem.sol\":9229:9242  _name = name_ */\n  swap1\n  dup1\n  mload\n  swap1\n  0x20\n  add\n  swap1\n  tag_13\n  swap3\n  swap2\n  swap1\n  tag_14\n  jump\t// in\ntag_13:\n  pop\n    /* \"contracts/NFTContract/SQFItem.sol\":9262:9269  symbol_ */\n  dup1\n    /* \"contracts/NFTContract/SQFItem.sol\":9252:9259  _symbol */\n  0x08\n    /* \"contracts/NFTContract/SQFItem.sol\":9252:9269  _symbol = symbol_ */\n  swap1\n  dup1\n  mload\n  swap1\n  0x20\n  add\n  swap1\n  tag_15\n  swap3\n  swap2\n  swap1\n  tag_14\n  jump\t// in\ntag_15:\n  pop\n    /* \"contracts/NFTContract/SQFItem.sol\":9163:9276  constructor(string memory name_, string memory symbol_) {... */\n  pop\n  pop\n    /* \"contracts/NFTContract/SQFItem.sol\":18151:18251  constructor(... */\n  pop\n  pop\n    /* \"contracts/NFTContract/SQFItem.sol\":17865:19825  contract SQFItem is ERC721 {... */\n  jump(tag_17)\n    /* \"contracts/NFTContract/SQFItem.sol\":165:261  function _msgSender() internal view virtual returns (address) {... */\ntag_10:\n    /* \"contracts/NFTContract/SQFItem.sol\":218:225  address */\n  0x00\n    /* \"contracts/NFTContract/SQFItem.sol\":244:254  msg.sender */\n  caller\n    /* \"contracts/NFTContract/SQFItem.sol\":237:254  return msg.sender */\n  swap1\n  pop\n    /* \"contracts/NFTContract/SQFItem.sol\":165:261  function _msgSender() internal view virtual returns (address) {... */\n  swap1\n  jump\t// out\n    /* \"contracts/NFTContract/SQFItem.sol\":6951:7138  function _transferOwnership(address newOwner) internal virtual {... */\ntag_11:\n    /* \"contracts/NFTContract/SQFItem.sol\":7024:7040  address oldOwner */\n  0x00\n    /* \"contracts/NFTContract/SQFItem.sol\":7043:7049  _owner */\n  dup1\n  0x00\n  swap1\n  sload\n  swap1\n  0x0100\n  exp\n  swap1\n  div\n  0xffffffffffffffffffffffffffffffffffffffff\n  and\n    /* \"contracts/NFTContract/SQFItem.sol\":7024:7049  address oldOwner = _owner */\n  swap1\n  pop\n    /* \"contracts/NFTContract/SQFItem.sol\":7068:7076  newOwner */\n  dup2\n    /* \"contracts/NFTContract/SQFItem.sol\":7059:7065  _owner */\n  0x00\n  dup1\n    /* \"contracts/NFTContract/SQFItem.sol\":7059:7076  _owner = newOwner */\n  0x0100\n  exp\n  dup2\n  sload\n  dup2\n  0xffffffffffffffffffffffffffffffffffffffff\n  mul\n  not\n  and\n  swap1\n  dup4\n  0xffffffffffffffffffffffffffffffffffffffff\n  and\n  mul\n  or\n  swap1\n  sstore\n  pop\n    /* \"contracts/NFTContract/SQFItem.sol\":7122:7130  newOwner */\n  dup2\n    /* \"contracts/NFTContract/SQFItem.sol\":7091:7131  OwnershipTransferred(oldOwner, newOwner) */\n  0xffffffffffffffffffffffffffffffffffffffff\n  and\n    /* \"contracts/NFTContract/SQFItem.sol\":7112:7120  oldOwner */\n  dup2\n    /* \"contracts/NFTContract/SQFItem.sol\":7091:7131  OwnershipTransferred(oldOwner, newOwner) */\n  0xffffffffffffffffffffffffffffffffffffffff\n  and\n  0x8be0079c531659141344cd1fd0a4f28419497f9722a3daafe3b4186f6b6457e0\n  mload(0x40)\n  mload(0x40)\n  dup1\n  swap2\n  sub\n  swap1\n  log3\n    /* \"contracts/NFTContract/SQFItem.sol\":6951:7138  function _transferOwnership(address newOwner) internal virtual {... */\n  pop\n  pop\n  jump\t// out\n    /* \"contracts/NFTContract/SQFItem.sol\":17865:19825  contract SQFItem is ERC721 {... */\ntag_14:\n  dup3\n  dup1\n  sload\n  tag_20\n  swap1\n  tag_21\n  jump\t// in\ntag_20:\n  swap1\n  0x00\n  mstore\n  keccak256(0x00, 0x20)\n  swap1\n  0x1f\n  add\n  0x20\n  swap1\n  div\n  dup2\n  add\n  swap3\n  dup3\n  tag_23\n  jumpi\n  0x00\n  dup6\n  sstore\n  jump(tag_22)\ntag_23:\n  dup3\n  0x1f\n  lt\n  tag_24\n  jumpi\n  dup1\n  mload\n  not(0xff)\n  and\n  dup4\n  dup1\n  add\n  or\n  dup6\n  sstore\n  jump(tag_22)\ntag_24:\n  dup3\n  dup1\n  add\n  0x01\n  add\n  dup6\n  sstore\n  dup3\n  iszero\n  tag_22\n  jumpi\n  swap2\n  dup3\n  add\ntag_25:\n  dup3\n  dup2\n  gt\n  iszero\n  tag_26\n  jumpi\n  dup3\n  mload\n  dup3\n  sstore\n  swap2\n  0x20\n  add\n  swap2\n  swap1\n  0x01\n  add\n  swap1\n  jump(tag_25)\ntag_26:\ntag_22:\n  pop\n  swap1\n  pop\n  tag_27\n  swap2\n  swap1\n  tag_28\n  jump\t// in\ntag_27:\n  pop\n  swap1\n  jump\t// out\ntag_28:\ntag_29:\n  dup1\n  dup3\n  gt\n  iszero\n  tag_30\n  jumpi\n  0x00\n  dup2\n  0x00\n  swap1\n  sstore\n  pop\n  0x01\n  add\n  jump(tag_29)\ntag_30:\n  pop\n  swap1\n  jump\t// out\n    /* \"#utility.yul\":7:360   */\ntag_32:\n  0x00\n    /* \"#utility.yul\":121:186   */\n  tag_34\n    /* \"#utility.yul\":136:185   */\n  tag_35\n    /* \"#utility.yul\":178:184   */\n  dup5\n    /* \"#utility.yul\":136:185   */\n  tag_36\n  jump\t// in\ntag_35:\n    /* \"#utility.yul\":121:186   */\n  tag_37\n  jump\t// in\ntag_34:\n    /* \"#utility.yul\":112:186   */\n  swap1\n  pop\n    /* \"#utility.yul\":209:215   */\n  dup3\n    /* \"#utility.yul\":202:207   */\n  dup2\n    /* \"#utility.yul\":195:216   */\n  mstore\n    /* \"#utility.yul\":247:251   */\n  0x20\n    /* \"#utility.yul\":240:245   */\n  dup2\n    /* \"#utility.yul\":236:252   */\n  add\n    /* \"#utility.yul\":285:288   */\n  dup5\n    /* \"#utility.yul\":276:282   */\n  dup5\n    /* \"#utility.yul\":271:274   */\n  dup5\n    /* \"#utility.yul\":267:283   */\n  add\n    /* \"#utility.yul\":264:289   */\n  gt\n    /* \"#utility.yul\":261:263   */\n  iszero\n  tag_38\n  jumpi\n    /* \"#utility.yul\":302:303   */\n  0x00\n    /* \"#utility.yul\":299:300   */\n  dup1\n    /* \"#utility.yul\":292:304   */\n  revert\n    /* \"#utility.yul\":261:263   */\ntag_38:\n    /* \"#utility.yul\":315:354   */\n  tag_39\n    /* \"#utility.yul\":347:353   */\n  dup5\n    /* \"#utility.yul\":342:345   */\n  dup3\n    /* \"#utility.yul\":337:340   */\n  dup6\n    /* \"#utility.yul\":315:354   */\n  tag_40\n  jump\t// in\ntag_39:\n    /* \"#utility.yul\":102:360   */\n  pop\n  swap4\n  swap3\n  pop\n  pop\n  pop\n  jump\t// out\n    /* \"#utility.yul\":380:668   */\ntag_41:\n  0x00\n    /* \"#utility.yul\":496:499   */\n  dup3\n    /* \"#utility.yul\":489:493   */\n  0x1f\n    /* \"#utility.yul\":481:487   */\n  dup4\n    /* \"#utility.yul\":477:494   */\n  add\n    /* \"#utility.yul\":473:500   */\n  slt\n    /* \"#utility.yul\":463:465   */\n  tag_43\n  jumpi\n    /* \"#utility.yul\":514:515   */\n  0x00\n    /* \"#utility.yul\":511:512   */\n  dup1\n    /* \"#utility.yul\":504:516   */\n  revert\n    /* \"#utility.yul\":463:465   */\ntag_43:\n    /* \"#utility.yul\":547:553   */\n  dup2\n    /* \"#utility.yul\":541:554   */\n  mload\n    /* \"#utility.yul\":572:662   */\n  tag_44\n    /* \"#utility.yul\":658:661   */\n  dup5\n    /* \"#utility.yul\":650:656   */\n  dup3\n    /* \"#utility.yul\":643:647   */\n  0x20\n    /* \"#utility.yul\":635:641   */\n  dup7\n    /* \"#utility.yul\":631:648   */\n  add\n    /* \"#utility.yul\":572:662   */\n  tag_32\n  jump\t// in\ntag_44:\n    /* \"#utility.yul\":563:662   */\n  swap2\n  pop\n    /* \"#utility.yul\":453:668   */\n  pop\n  swap3\n  swap2\n  pop\n  pop\n  jump\t// out\n    /* \"#utility.yul\":674:1326   */\ntag_3:\n  0x00\n  dup1\n    /* \"#utility.yul\":830:832   */\n  0x40\n    /* \"#utility.yul\":818:827   */\n  dup4\n    /* \"#utility.yul\":809:816   */\n  dup6\n    /* \"#utility.yul\":805:828   */\n  sub\n    /* \"#utility.yul\":801:833   */\n  slt\n    /* \"#utility.yul\":798:800   */\n  iszero\n  tag_46\n  jumpi\n    /* \"#utility.yul\":846:847   */\n  0x00\n    /* \"#utility.yul\":843:844   */\n  dup1\n    /* \"#utility.yul\":836:848   */\n  revert\n    /* \"#utility.yul\":798:800   */\ntag_46:\n    /* \"#utility.yul\":910:911   */\n  0x00\n    /* \"#utility.yul\":899:908   */\n  dup4\n    /* \"#utility.yul\":895:912   */\n  add\n    /* \"#utility.yul\":889:913   */\n  mload\n    /* \"#utility.yul\":940:958   */\n  0xffffffffffffffff\n    /* \"#utility.yul\":932:938   */\n  dup2\n    /* \"#utility.yul\":929:959   */\n  gt\n    /* \"#utility.yul\":926:928   */\n  iszero\n  tag_47\n  jumpi\n    /* \"#utility.yul\":972:973   */\n  0x00\n    /* \"#utility.yul\":969:970   */\n  dup1\n    /* \"#utility.yul\":962:974   */\n  revert\n    /* \"#utility.yul\":926:928   */\ntag_47:\n    /* \"#utility.yul\":1000:1074   */\n  tag_48\n    /* \"#utility.yul\":1066:1073   */\n  dup6\n    /* \"#utility.yul\":1057:1063   */\n  dup3\n    /* \"#utility.yul\":1046:1055   */\n  dup7\n    /* \"#utility.yul\":1042:1064   */\n  add\n    /* \"#utility.yul\":1000:1074   */\n  tag_41\n  jump\t// in\ntag_48:\n    /* \"#utility.yul\":990:1074   */\n  swap3\n  pop\n    /* \"#utility.yul\":860:1084   */\n  pop\n    /* \"#utility.yul\":1144:1146   */\n  0x20\n    /* \"#utility.yul\":1133:1142   */\n  dup4\n    /* \"#utility.yul\":1129:1147   */\n  add\n    /* \"#utility.yul\":1123:1148   */\n  mload\n    /* \"#utility.yul\":1175:1193   */\n  0xffffffffffffffff\n    /* \"#utility.yul\":1167:1173   */\n  dup2\n    /* \"#utility.yul\":1164:1194   */\n  gt\n    /* \"#utility.yul\":1161:1163   */\n  iszero\n  tag_49\n  jumpi\n    /* \"#utility.yul\":1207:1208   */\n  0x00\n    /* \"#utility.yul\":1204:1205   */\n  dup1\n    /* \"#utility.yul\":1197:1209   */\n  revert\n    /* \"#utility.yul\":1161:1163   */\ntag_49:\n    /* \"#utility.yul\":1235:1309   */\n  tag_50\n    /* \"#utility.yul\":1301:1308   */\n  dup6\n    /* \"#utility.yul\":1292:1298   */\n  dup3\n    /* \"#utility.yul\":1281:1290   */\n  dup7\n    /* \"#utility.yul\":1277:1299   */\n  add\n    /* \"#utility.yul\":1235:1309   */\n  tag_41\n  jump\t// in\ntag_50:\n    /* \"#utility.yul\":1225:1309   */\n  swap2\n  pop\n    /* \"#utility.yul\":1094:1319   */\n  pop\n    /* \"#utility.yul\":788:1326   */\n  swap3\n  pop\n  swap3\n  swap1\n  pop\n  jump\t// out\n    /* \"#utility.yul\":1332:1615   */\ntag_37:\n  0x00\n    /* \"#utility.yul\":1398:1400   */\n  0x40\n    /* \"#utility.yul\":1392:1401   */\n  mload\n    /* \"#utility.yul\":1382:1401   */\n  swap1\n  pop\n    /* \"#utility.yul\":1440:1444   */\n  dup2\n    /* \"#utility.yul\":1432:1438   */\n  dup2\n    /* \"#utility.yul\":1428:1445   */\n  add\n    /* \"#utility.yul\":1547:1553   */\n  dup2\n    /* \"#utility.yul\":1535:1545   */\n  dup2\n    /* \"#utility.yul\":1532:1554   */\n  lt\n    /* \"#utility.yul\":1511:1529   */\n  0xffffffffffffffff\n    /* \"#utility.yul\":1499:1509   */\n  dup3\n    /* \"#utility.yul\":1496:1530   */\n  gt\n    /* \"#utility.yul\":1493:1555   */\n  or\n    /* \"#utility.yul\":1490:1492   */\n  iszero\n  tag_52\n  jumpi\n    /* \"#utility.yul\":1558:1576   */\n  tag_53\n  tag_54\n  jump\t// in\ntag_53:\n    /* \"#utility.yul\":1490:1492   */\ntag_52:\n    /* \"#utility.yul\":1598:1608   */\n  dup1\n    /* \"#utility.yul\":1594:1596   */\n  0x40\n    /* \"#utility.yul\":1587:1609   */\n  mstore\n    /* \"#utility.yul\":1372:1615   */\n  pop\n  swap2\n  swap1\n  pop\n  jump\t// out\n    /* \"#utility.yul\":1621:1953   */\ntag_36:\n  0x00\n    /* \"#utility.yul\":1773:1791   */\n  0xffffffffffffffff\n    /* \"#utility.yul\":1765:1771   */\n  dup3\n    /* \"#utility.yul\":1762:1792   */\n  gt\n    /* \"#utility.yul\":1759:1761   */\n  iszero\n  tag_56\n  jumpi\n    /* \"#utility.yul\":1795:1813   */\n  tag_57\n  tag_54\n  jump\t// in\ntag_57:\n    /* \"#utility.yul\":1759:1761   */\ntag_56:\n    /* \"#utility.yul\":1880:1884   */\n  0x1f\n    /* \"#utility.yul\":1876:1885   */\n  not\n    /* \"#utility.yul\":1869:1873   */\n  0x1f\n    /* \"#utility.yul\":1861:1867   */\n  dup4\n    /* \"#utility.yul\":1857:1874   */\n  add\n    /* \"#utility.yul\":1853:1886   */\n  and\n    /* \"#utility.yul\":1845:1886   */\n  swap1\n  pop\n    /* \"#utility.yul\":1941:1945   */\n  0x20\n    /* \"#utility.yul\":1935:1939   */\n  dup2\n    /* \"#utility.yul\":1931:1946   */\n  add\n    /* \"#utility.yul\":1923:1946   */\n  swap1\n  pop\n    /* \"#utility.yul\":1688:1953   */\n  swap2\n  swap1\n  pop\n  jump\t// out\n    /* \"#utility.yul\":1959:2266   */\ntag_40:\n    /* \"#utility.yul\":2027:2028   */\n  0x00\n    /* \"#utility.yul\":2037:2150   */\ntag_59:\n    /* \"#utility.yul\":2051:2057   */\n  dup4\n    /* \"#utility.yul\":2048:2049   */\n  dup2\n    /* \"#utility.yul\":2045:2058   */\n  lt\n    /* \"#utility.yul\":2037:2150   */\n  iszero\n  tag_61\n  jumpi\n    /* \"#utility.yul\":2136:2137   */\n  dup1\n    /* \"#utility.yul\":2131:2134   */\n  dup3\n    /* \"#utility.yul\":2127:2138   */\n  add\n    /* \"#utility.yul\":2121:2139   */\n  mload\n    /* \"#utility.yul\":2117:2118   */\n  dup2\n    /* \"#utility.yul\":2112:2115   */\n  dup5\n    /* \"#utility.yul\":2108:2119   */\n  add\n    /* \"#utility.yul\":2101:2140   */\n  mstore\n    /* \"#utility.yul\":2073:2075   */\n  0x20\n    /* \"#utility.yul\":2070:2071   */\n  dup2\n    /* \"#utility.yul\":2066:2076   */\n  add\n    /* \"#utility.yul\":2061:2076   */\n  swap1\n  pop\n    /* \"#utility.yul\":2037:2150   */\n  jump(tag_59)\ntag_61:\n    /* \"#utility.yul\":2168:2174   */\n  dup4\n    /* \"#utility.yul\":2165:2166   */\n  dup2\n    /* \"#utility.yul\":2162:2175   */\n  gt\n    /* \"#utility.yul\":2159:2161   */\n  iszero\n  tag_62\n  jumpi\n    /* \"#utility.yul\":2248:2249   */\n  0x00\n    /* \"#utility.yul\":2239:2245   */\n  dup5\n    /* \"#utility.yul\":2234:2237   */\n  dup5\n    /* \"#utility.yul\":2230:2246   */\n  add\n    /* \"#utility.yul\":2223:2250   */\n  mstore\n    /* \"#utility.yul\":2159:2161   */\ntag_62:\n    /* \"#utility.yul\":2008:2266   */\n  pop\n  pop\n  pop\n  pop\n  jump\t// out\n    /* \"#utility.yul\":2272:2592   */\ntag_21:\n  0x00\n    /* \"#utility.yul\":2353:2354   */\n  0x02\n    /* \"#utility.yul\":2347:2351   */\n  dup3\n    /* \"#utility.yul\":2343:2355   */\n  div\n    /* \"#utility.yul\":2333:2355   */\n  swap1\n  pop\n    /* \"#utility.yul\":2400:2401   */\n  0x01\n    /* \"#utility.yul\":2394:2398   */\n  dup3\n    /* \"#utility.yul\":2390:2402   */\n  and\n    /* \"#utility.yul\":2421:2439   */\n  dup1\n    /* \"#utility.yul\":2411:2413   */\n  tag_64\n  jumpi\n    /* \"#utility.yul\":2477:2481   */\n  0x7f\n    /* \"#utility.yul\":2469:2475   */\n  dup3\n    /* \"#utility.yul\":2465:2482   */\n  and\n    /* \"#utility.yul\":2455:2482   */\n  swap2\n  pop\n    /* \"#utility.yul\":2411:2413   */\ntag_64:\n    /* \"#utility.yul\":2539:2541   */\n  0x20\n    /* \"#utility.yul\":2531:2537   */\n  dup3\n    /* \"#utility.yul\":2528:2542   */\n  lt\n    /* \"#utility.yul\":2508:2526   */\n  dup2\n    /* \"#utility.yul\":2505:2543   */\n  eq\n    /* \"#utility.yul\":2502:2504   */\n  iszero\n  tag_65\n  jumpi\n    /* \"#utility.yul\":2558:2576   */\n  tag_66\n  tag_67\n  jump\t// in\ntag_66:\n    /* \"#utility.yul\":2502:2504   */\ntag_65:\n    /* \"#utility.yul\":2323:2592   */\n  pop\n  swap2\n  swap1\n  pop\n  jump\t// out\n    /* \"#utility.yul\":2598:2778   */\ntag_67:\n    /* \"#utility.yul\":2646:2723   */\n  0x4e487b7100000000000000000000000000000000000000000000000000000000\n    /* \"#utility.yul\":2643:2644   */\n  0x00\n    /* \"#utility.yul\":2636:2724   */\n  mstore\n    /* \"#utility.yul\":2743:2747   */\n  0x22\n    /* \"#utility.yul\":2740:2741   */\n  0x04\n    /* \"#utility.yul\":2733:2748   */\n  mstore\n    /* \"#utility.yul\":2767:2771   */\n  0x24\n    /* \"#utility.yul\":2764:2765   */\n  0x00\n    /* \"#utility.yul\":2757:2772   */\n  revert\n    /* \"#utility.yul\":2784:2964   */\ntag_54:\n    /* \"#utility.yul\":2832:2909   */\n  0x4e487b7100000000000000000000000000000000000000000000000000000000\n    /* \"#utility.yul\":2829:2830   */\n  0x00\n    /* \"#utility.yul\":2822:2910   */\n  mstore\n    /* \"#utility.yul\":2929:2933   */\n  0x41\n    /* \"#utility.yul\":2926:2927   */\n  0x04\n    /* \"#utility.yul\":2919:2934   */\n  mstore\n    /* \"#utility.yul\":2953:2957   */\n  0x24\n    /* \"#utility.yul\":2950:2951   */\n  0x00\n    /* \"#utility.yul\":2943:2958   */\n  revert\n    /* \"contracts/NFTContract/SQFItem.sol\":17865:19825  contract SQFItem is ERC721 {... */\ntag_17:\n  dataSize(sub_0)\n  dup1\n  dataOffset(sub_0)\n  0x00\n  codecopy\n  0x00\n  return\nstop\n\nsub_0: assembly {\n        /* \"contracts/NFTContract/SQFItem.sol\":17865:19825  contract SQFItem is ERC721 {... */\n      mstore(0x40, 0x80)\n      callvalue\n      dup1\n      iszero\n      tag_1\n      jumpi\n      0x00\n      dup1\n      revert\n    tag_1:\n      pop\n      jumpi(tag_2, lt(calldatasize, 0x04))\n      shr(0xe0, calldataload(0x00))\n      dup1\n      0x70a08231\n      gt\n      tag_19\n      jumpi\n      dup1\n      0xb88d4fde\n      gt\n      tag_20\n      jumpi\n      dup1\n      0xb88d4fde\n      eq\n      tag_15\n      jumpi\n      dup1\n      0xc87b56dd\n      eq\n      tag_16\n      jumpi\n      dup1\n      0xd0def521\n      eq\n      tag_17\n      jumpi\n      dup1\n      0xf2fde38b\n      eq\n      tag_18\n      jumpi\n      jump(tag_2)\n    tag_20:\n      dup1\n      0x70a08231\n      eq\n      tag_11\n      jumpi\n      dup1\n      0x715018a6\n      eq\n      tag_12\n      jumpi\n      dup1\n      0x8da5cb5b\n      eq\n      tag_13\n      jumpi\n      dup1\n      0x95d89b41\n      eq\n      tag_14\n      jumpi\n      jump(tag_2)\n    tag_19:\n      dup1\n      0x42842e0e\n      gt\n      tag_21\n      jumpi\n      dup1\n      0x42842e0e\n      eq\n      tag_7\n      jumpi\n      dup1\n      0x55f804b3\n      eq\n      tag_8\n      jumpi\n      dup1\n      0x61b8ce8c\n      eq\n      tag_9\n      jumpi\n      dup1\n      0x6352211e\n      eq\n      tag_10\n      jumpi\n      jump(tag_2)\n    tag_21:\n      dup1\n      0x06fdde03\n      eq\n      tag_3\n      jumpi\n      dup1\n      0x081812fc\n      eq\n      tag_4\n      jumpi\n      dup1\n      0x095ea7b3\n      eq\n      tag_5\n      jumpi\n      dup1\n      0x23b872dd\n      eq\n      tag_6\n      jumpi\n    tag_2:\n      0x00\n      dup1\n      revert\n        /* \"contracts/NFTContract/SQFItem.sol\":10347:10445  function name() public view virtual override returns (string memory) {... */\n    tag_3:\n      tag_22\n      tag_23\n      jump\t// in\n    tag_22:\n      mload(0x40)\n      tag_24\n      swap2\n      swap1\n      tag_25\n      jump\t// in\n    tag_24:\n      mload(0x40)\n      dup1\n      swap2\n      sub\n      swap1\n      return\n        /* \"contracts/NFTContract/SQFItem.sol\":11023:11318  function getApproved(uint256 tokenId)... */\n    tag_4:\n      tag_26\n      0x04\n      dup1\n      calldatasize\n      sub\n      dup2\n      add\n      swap1\n      tag_27\n      swap2\n      swap1\n      tag_28\n      jump\t// in\n    tag_27:\n      tag_29\n      jump\t// in\n    tag_26:\n      mload(0x40)\n      tag_30\n      swap2\n      swap1\n      tag_31\n      jump\t// in\n    tag_30:\n      mload(0x40)\n      dup1\n      swap2\n      sub\n      swap1\n      return\n        /* \"contracts/NFTContract/SQFItem.sol\":10657:11017  function approve(address to, uint256 tokenId) public virtual override {... */\n    tag_5:\n      tag_32\n      0x04\n      dup1\n      calldatasize\n      sub\n      dup2\n      add\n      swap1\n      tag_33\n      swap2\n      swap1\n      tag_34\n      jump\t// in\n    tag_33:\n      tag_35\n      jump\t// in\n    tag_32:\n      stop\n        /* \"contracts/NFTContract/SQFItem.sol\":11324:11636  function transferFrom(... */\n    tag_6:\n      tag_36\n      0x04\n      dup1\n      calldatasize\n      sub\n      dup2\n      add\n      swap1\n      tag_37\n      swap2\n      swap1\n      tag_38\n      jump\t// in\n    tag_37:\n      tag_39\n      jump\t// in\n    tag_36:\n      stop\n        /* \"contracts/NFTContract/SQFItem.sol\":11642:11821  function safeTransferFrom(... */\n    tag_7:\n      tag_40\n      0x04\n      dup1\n      calldatasize\n      sub\n      dup2\n      add\n      swap1\n      tag_41\n      swap2\n      swap1\n      tag_38\n      jump\t// in\n    tag_41:\n      tag_42\n      jump\t// in\n    tag_40:\n      stop\n        /* \"contracts/NFTContract/SQFItem.sol\":18257:18364  function setBaseURI(string memory baseURI_) external onlyOwner {... */\n    tag_8:\n      tag_43\n      0x04\n      dup1\n      calldatasize\n      sub\n      dup2\n      add\n      swap1\n      tag_44\n      swap2\n      swap1\n      tag_45\n      jump\t// in\n    tag_44:\n      tag_46\n      jump\t// in\n    tag_43:\n      stop\n        /* \"contracts/NFTContract/SQFItem.sol\":18019:18044  uint256 public nextId = 1 */\n    tag_9:\n      tag_47\n      tag_48\n      jump\t// in\n    tag_47:\n      mload(0x40)\n      tag_49\n      swap2\n      swap1\n      tag_50\n      jump\t// in\n    tag_49:\n      mload(0x40)\n      dup1\n      swap2\n      sub\n      swap1\n      return\n        /* \"contracts/NFTContract/SQFItem.sol\":10028:10341  function ownerOf(uint256 tokenId)... */\n    tag_10:\n      tag_51\n      0x04\n      dup1\n      calldatasize\n      sub\n      dup2\n      add\n      swap1\n      tag_52\n      swap2\n      swap1\n      tag_28\n      jump\t// in\n    tag_52:\n      tag_53\n      jump\t// in\n    tag_51:\n      mload(0x40)\n      tag_54\n      swap2\n      swap1\n      tag_31\n      jump\t// in\n    tag_54:\n      mload(0x40)\n      dup1\n      swap2\n      sub\n      swap1\n      return\n        /* \"contracts/NFTContract/SQFItem.sol\":9739:10022  function balanceOf(address owner)... */\n    tag_11:\n      tag_55\n      0x04\n      dup1\n      calldatasize\n      sub\n      dup2\n      add\n      swap1\n      tag_56\n      swap2\n      swap1\n      tag_57\n      jump\t// in\n    tag_56:\n      tag_58\n      jump\t// in\n    tag_55:\n      mload(0x40)\n      tag_59\n      swap2\n      swap1\n      tag_50\n      jump\t// in\n    tag_59:\n      mload(0x40)\n      dup1\n      swap2\n      sub\n      swap1\n      return\n        /* \"contracts/NFTContract/SQFItem.sol\":6606:6707  function renounceOwnership() public virtual onlyOwner {... */\n    tag_12:\n      tag_60\n      tag_61\n      jump\t// in\n    tag_60:\n      stop\n        /* \"contracts/NFTContract/SQFItem.sol\":6392:6477  function owner() public view virtual returns (address) {... */\n    tag_13:\n      tag_62\n      tag_63\n      jump\t// in\n    tag_62:\n      mload(0x40)\n      tag_64\n      swap2\n      swap1\n      tag_31\n      jump\t// in\n    tag_64:\n      mload(0x40)\n      dup1\n      swap2\n      sub\n      swap1\n      return\n        /* \"contracts/NFTContract/SQFItem.sol\":10451:10553  function symbol() public view virtual override returns (string memory) {... */\n    tag_14:\n      tag_65\n      tag_66\n      jump\t// in\n    tag_65:\n      mload(0x40)\n      tag_67\n      swap2\n      swap1\n      tag_25\n      jump\t// in\n    tag_67:\n      mload(0x40)\n      dup1\n      swap2\n      sub\n      swap1\n      return\n        /* \"contracts/NFTContract/SQFItem.sol\":11827:12181  function safeTransferFrom(... */\n    tag_15:\n      tag_68\n      0x04\n      dup1\n      calldatasize\n      sub\n      dup2\n      add\n      swap1\n      tag_69\n      swap2\n      swap1\n      tag_70\n      jump\t// in\n    tag_69:\n      tag_71\n      jump\t// in\n    tag_68:\n      stop\n        /* \"contracts/NFTContract/SQFItem.sol\":18763:19618  function tokenURI(uint256 tokenId)... */\n    tag_16:\n      tag_72\n      0x04\n      dup1\n      calldatasize\n      sub\n      dup2\n      add\n      swap1\n      tag_73\n      swap2\n      swap1\n      tag_28\n      jump\t// in\n    tag_73:\n      tag_74\n      jump\t// in\n    tag_72:\n      mload(0x40)\n      tag_75\n      swap2\n      swap1\n      tag_25\n      jump\t// in\n    tag_75:\n      mload(0x40)\n      dup1\n      swap2\n      sub\n      swap1\n      return\n        /* \"contracts/NFTContract/SQFItem.sol\":19624:19823  function mint(address _to, string memory tokenURI_) public onlyOwner {... */\n    tag_17:\n      tag_76\n      0x04\n      dup1\n      calldatasize\n      sub\n      dup2\n      add\n      swap1\n      tag_77\n      swap2\n      swap1\n      tag_78\n      jump\t// in\n    tag_77:\n      tag_79\n      jump\t// in\n    tag_76:\n      stop\n        /* \"contracts/NFTContract/SQFItem.sol\":6713:6945  function transferOwnership(address newOwner) public virtual onlyOwner {... */\n    tag_18:\n      tag_80\n      0x04\n      dup1\n      calldatasize\n      sub\n      dup2\n      add\n      swap1\n      tag_81\n      swap2\n      swap1\n      tag_57\n      jump\t// in\n    tag_81:\n      tag_82\n      jump\t// in\n    tag_80:\n      stop\n        /* \"contracts/NFTContract/SQFItem.sol\":10347:10445  function name() public view virtual override returns (string memory) {... */\n    tag_23:\n        /* \"contracts/NFTContract/SQFItem.sol\":10401:10414  string memory */\n      0x60\n        /* \"contracts/NFTContract/SQFItem.sol\":10433:10438  _name */\n      0x07\n        /* \"contracts/NFTContract/SQFItem.sol\":10426:10438  return _name */\n      dup1\n      sload\n      tag_84\n      swap1\n      tag_85\n      jump\t// in\n    tag_84:\n      dup1\n      0x1f\n      add\n      0x20\n      dup1\n      swap2\n      div\n      mul\n      0x20\n      add\n      mload(0x40)\n      swap1\n      dup2\n      add\n      0x40\n      mstore\n      dup1\n      swap3\n      swap2\n      swap1\n      dup2\n      dup2\n      mstore\n      0x20\n      add\n      dup3\n      dup1\n      sload\n      tag_86\n      swap1\n      tag_85\n      jump\t// in\n    tag_86:\n      dup1\n      iszero\n      tag_87\n      jumpi\n      dup1\n      0x1f\n      lt\n      tag_88\n      jumpi\n      0x0100\n      dup1\n      dup4\n      sload\n      div\n      mul\n      dup4\n      mstore\n      swap2\n      0x20\n      add\n      swap2\n      jump(tag_87)\n    tag_88:\n      dup3\n      add\n      swap2\n      swap1\n      0x00\n      mstore\n      keccak256(0x00, 0x20)\n      swap1\n    tag_89:\n      dup2\n      sload\n      dup2\n      mstore\n      swap1\n      0x01\n      add\n      swap1\n      0x20\n      add\n      dup1\n      dup4\n      gt\n      tag_89\n      jumpi\n      dup3\n      swap1\n      sub\n      0x1f\n      and\n      dup3\n      add\n      swap2\n    tag_87:\n      pop\n      pop\n      pop\n      pop\n      pop\n      swap1\n      pop\n        /* \"contracts/NFTContract/SQFItem.sol\":10347:10445  function name() public view virtual override returns (string memory) {... */\n      swap1\n      jump\t// out\n        /* \"contracts/NFTContract/SQFItem.sol\":11023:11318  function getApproved(uint256 tokenId)... */\n    tag_29:\n        /* \"contracts/NFTContract/SQFItem.sol\":11139:11146  address */\n      0x00\n        /* \"contracts/NFTContract/SQFItem.sol\":11183:11199  _exists(tokenId) */\n      tag_91\n        /* \"contracts/NFTContract/SQFItem.sol\":11191:11198  tokenId */\n      dup3\n        /* \"contracts/NFTContract/SQFItem.sol\":11183:11190  _exists */\n      tag_92\n        /* \"contracts/NFTContract/SQFItem.sol\":11183:11199  _exists(tokenId) */\n      jump\t// in\n    tag_91:\n        /* \"contracts/NFTContract/SQFItem.sol\":11162:11269  require(... */\n      tag_93\n      jumpi\n      mload(0x40)\n      0x08c379a000000000000000000000000000000000000000000000000000000000\n      dup2\n      mstore\n      0x04\n      add\n      tag_94\n      swap1\n      tag_95\n      jump\t// in\n    tag_94:\n      mload(0x40)\n      dup1\n      swap2\n      sub\n      swap1\n      revert\n    tag_93:\n        /* \"contracts/NFTContract/SQFItem.sol\":11287:11302  _tokenApprovals */\n      0x04\n        /* \"contracts/NFTContract/SQFItem.sol\":11287:11311  _tokenApprovals[tokenId] */\n      0x00\n        /* \"contracts/NFTContract/SQFItem.sol\":11303:11310  tokenId */\n      dup4\n        /* \"contracts/NFTContract/SQFItem.sol\":11287:11311  _tokenApprovals[tokenId] */\n      dup2\n      mstore\n      0x20\n      add\n      swap1\n      dup2\n      mstore\n      0x20\n      add\n      0x00\n      keccak256\n      0x00\n      swap1\n      sload\n      swap1\n      0x0100\n      exp\n      swap1\n      div\n      0xffffffffffffffffffffffffffffffffffffffff\n      and\n        /* \"contracts/NFTContract/SQFItem.sol\":11280:11311  return _tokenApprovals[tokenId] */\n      swap1\n      pop\n        /* \"contracts/NFTContract/SQFItem.sol\":11023:11318  function getApproved(uint256 tokenId)... */\n      swap2\n      swap1\n      pop\n      jump\t// out\n        /* \"contracts/NFTContract/SQFItem.sol\":10657:11017  function approve(address to, uint256 tokenId) public virtual override {... */\n    tag_35:\n        /* \"contracts/NFTContract/SQFItem.sol\":10737:10750  address owner */\n      0x00\n        /* \"contracts/NFTContract/SQFItem.sol\":10753:10776  ERC721.ownerOf(tokenId) */\n      tag_97\n        /* \"contracts/NFTContract/SQFItem.sol\":10768:10775  tokenId */\n      dup3\n        /* \"contracts/NFTContract/SQFItem.sol\":10753:10767  ERC721.ownerOf */\n      tag_53\n        /* \"contracts/NFTContract/SQFItem.sol\":10753:10776  ERC721.ownerOf(tokenId) */\n      jump\t// in\n    tag_97:\n        /* \"contracts/NFTContract/SQFItem.sol\":10737:10776  address owner = ERC721.ownerOf(tokenId) */\n      swap1\n      pop\n        /* \"contracts/NFTContract/SQFItem.sol\":10800:10805  owner */\n      dup1\n        /* \"contracts/NFTContract/SQFItem.sol\":10794:10805  to != owner */\n      0xffffffffffffffffffffffffffffffffffffffff\n      and\n        /* \"contracts/NFTContract/SQFItem.sol\":10794:10796  to */\n      dup4\n        /* \"contracts/NFTContract/SQFItem.sol\":10794:10805  to != owner */\n      0xffffffffffffffffffffffffffffffffffffffff\n      and\n      eq\n      iszero\n        /* \"contracts/NFTContract/SQFItem.sol\":10786:10843  require(to != owner, \"ERC721: approval to current owner\") */\n      tag_98\n      jumpi\n      mload(0x40)\n      0x08c379a000000000000000000000000000000000000000000000000000000000\n      dup2\n      mstore\n      0x04\n      add\n      tag_99\n      swap1\n      tag_100\n      jump\t// in\n    tag_99:\n      mload(0x40)\n      dup1\n      swap2\n      sub\n      swap1\n      revert\n    tag_98:\n        /* \"contracts/NFTContract/SQFItem.sol\":10891:10896  owner */\n      dup1\n        /* \"contracts/NFTContract/SQFItem.sol\":10875:10896  _msgSender() == owner */\n      0xffffffffffffffffffffffffffffffffffffffff\n      and\n        /* \"contracts/NFTContract/SQFItem.sol\":10875:10887  _msgSender() */\n      tag_101\n        /* \"contracts/NFTContract/SQFItem.sol\":10875:10885  _msgSender */\n      tag_102\n        /* \"contracts/NFTContract/SQFItem.sol\":10875:10887  _msgSender() */\n      jump\t// in\n    tag_101:\n        /* \"contracts/NFTContract/SQFItem.sol\":10875:10896  _msgSender() == owner */\n      0xffffffffffffffffffffffffffffffffffffffff\n      and\n      eq\n        /* \"contracts/NFTContract/SQFItem.sol\":10854:10978  require(... */\n      tag_103\n      jumpi\n      mload(0x40)\n      0x08c379a000000000000000000000000000000000000000000000000000000000\n      dup2\n      mstore\n      0x04\n      add\n      tag_104\n      swap1\n      tag_105\n      jump\t// in\n    tag_104:\n      mload(0x40)\n      dup1\n      swap2\n      sub\n      swap1\n      revert\n    tag_103:\n        /* \"contracts/NFTContract/SQFItem.sol\":10989:11010  _approve(to, tokenId) */\n      tag_106\n        /* \"contracts/NFTContract/SQFItem.sol\":10998:11000  to */\n      dup4\n        /* \"contracts/NFTContract/SQFItem.sol\":11002:11009  tokenId */\n      dup4\n        /* \"contracts/NFTContract/SQFItem.sol\":10989:10997  _approve */\n      tag_107\n        /* \"contracts/NFTContract/SQFItem.sol\":10989:11010  _approve(to, tokenId) */\n      jump\t// in\n    tag_106:\n        /* \"contracts/NFTContract/SQFItem.sol\":10657:11017  function approve(address to, uint256 tokenId) public virtual override {... */\n      pop\n      pop\n      pop\n      jump\t// out\n        /* \"contracts/NFTContract/SQFItem.sol\":11324:11636  function transferFrom(... */\n    tag_39:\n        /* \"contracts/NFTContract/SQFItem.sol\":11474:11515  _isApprovedOrOwner(_msgSender(), tokenId) */\n      tag_109\n        /* \"contracts/NFTContract/SQFItem.sol\":11493:11505  _msgSender() */\n      tag_110\n        /* \"contracts/NFTContract/SQFItem.sol\":11493:11503  _msgSender */\n      tag_102\n        /* \"contracts/NFTContract/SQFItem.sol\":11493:11505  _msgSender() */\n      jump\t// in\n    tag_110:\n        /* \"contracts/NFTContract/SQFItem.sol\":11507:11514  tokenId */\n      dup3\n        /* \"contracts/NFTContract/SQFItem.sol\":11474:11492  _isApprovedOrOwner */\n      tag_111\n        /* \"contracts/NFTContract/SQFItem.sol\":11474:11515  _isApprovedOrOwner(_msgSender(), tokenId) */\n      jump\t// in\n    tag_109:\n        /* \"contracts/NFTContract/SQFItem.sol\":11453:11590  require(... */\n      tag_112\n      jumpi\n      mload(0x40)\n      0x08c379a000000000000000000000000000000000000000000000000000000000\n      dup2\n      mstore\n      0x04\n      add\n      tag_113\n      swap1\n      tag_114\n      jump\t// in\n    tag_113:\n      mload(0x40)\n      dup1\n      swap2\n      sub\n      swap1\n      revert\n    tag_112:\n        /* \"contracts/NFTContract/SQFItem.sol\":11601:11629  _transfer(from, to, tokenId) */\n      tag_115\n        /* \"contracts/NFTContract/SQFItem.sol\":11611:11615  from */\n      dup4\n        /* \"contracts/NFTContract/SQFItem.sol\":11617:11619  to */\n      dup4\n        /* \"contracts/NFTContract/SQFItem.sol\":11621:11628  tokenId */\n      dup4\n        /* \"contracts/NFTContract/SQFItem.sol\":11601:11610  _transfer */\n      tag_116\n        /* \"contracts/NFTContract/SQFItem.sol\":11601:11629  _transfer(from, to, tokenId) */\n      jump\t// in\n    tag_115:\n        /* \"contracts/NFTContract/SQFItem.sol\":11324:11636  function transferFrom(... */\n      pop\n      pop\n      pop\n      jump\t// out\n        /* \"contracts/NFTContract/SQFItem.sol\":11642:11821  function safeTransferFrom(... */\n    tag_42:\n        /* \"contracts/NFTContract/SQFItem.sol\":11775:11814  safeTransferFrom(from, to, tokenId, \"\") */\n      tag_118\n        /* \"contracts/NFTContract/SQFItem.sol\":11792:11796  from */\n      dup4\n        /* \"contracts/NFTContract/SQFItem.sol\":11798:11800  to */\n      dup4\n        /* \"contracts/NFTContract/SQFItem.sol\":11802:11809  tokenId */\n      dup4\n        /* \"contracts/NFTContract/SQFItem.sol\":11775:11814  safeTransferFrom(from, to, tokenId, \"\") */\n      mload(0x40)\n      dup1\n      0x20\n      add\n      0x40\n      mstore\n      dup1\n      0x00\n      dup2\n      mstore\n      pop\n        /* \"contracts/NFTContract/SQFItem.sol\":11775:11791  safeTransferFrom */\n      tag_71\n        /* \"contracts/NFTContract/SQFItem.sol\":11775:11814  safeTransferFrom(from, to, tokenId, \"\") */\n      jump\t// in\n    tag_118:\n        /* \"contracts/NFTContract/SQFItem.sol\":11642:11821  function safeTransferFrom(... */\n      pop\n      pop\n      pop\n      jump\t// out\n        /* \"contracts/NFTContract/SQFItem.sol\":18257:18364  function setBaseURI(string memory baseURI_) external onlyOwner {... */\n    tag_46:\n        /* \"contracts/NFTContract/SQFItem.sol\":6533:6545  _msgSender() */\n      tag_120\n        /* \"contracts/NFTContract/SQFItem.sol\":6533:6543  _msgSender */\n      tag_102\n        /* \"contracts/NFTContract/SQFItem.sol\":6533:6545  _msgSender() */\n      jump\t// in\n    tag_120:\n        /* \"contracts/NFTContract/SQFItem.sol\":6522:6545  owner() == _msgSender() */\n      0xffffffffffffffffffffffffffffffffffffffff\n      and\n        /* \"contracts/NFTContract/SQFItem.sol\":6522:6529  owner() */\n      tag_121\n        /* \"contracts/NFTContract/SQFItem.sol\":6522:6527  owner */\n      tag_63\n        /* \"contracts/NFTContract/SQFItem.sol\":6522:6529  owner() */\n      jump\t// in\n    tag_121:\n        /* \"contracts/NFTContract/SQFItem.sol\":6522:6545  owner() == _msgSender() */\n      0xffffffffffffffffffffffffffffffffffffffff\n      and\n      eq\n        /* \"contracts/NFTContract/SQFItem.sol\":6514:6582  require(owner() == _msgSender(), \"Ownable: caller is not the owner\") */\n      tag_122\n      jumpi\n      mload(0x40)\n      0x08c379a000000000000000000000000000000000000000000000000000000000\n      dup2\n      mstore\n      0x04\n      add\n      tag_123\n      swap1\n      tag_124\n      jump\t// in\n    tag_123:\n      mload(0x40)\n      dup1\n      swap2\n      sub\n      swap1\n      revert\n    tag_122:\n        /* \"contracts/NFTContract/SQFItem.sol\":18349:18357  baseURI_ */\n      dup1\n        /* \"contracts/NFTContract/SQFItem.sol\":18330:18346  _baseURIextended */\n      0x0a\n        /* \"contracts/NFTContract/SQFItem.sol\":18330:18357  _baseURIextended = baseURI_ */\n      swap1\n      dup1\n      mload\n      swap1\n      0x20\n      add\n      swap1\n      tag_126\n      swap3\n      swap2\n      swap1\n      tag_127\n      jump\t// in\n    tag_126:\n      pop\n        /* \"contracts/NFTContract/SQFItem.sol\":18257:18364  function setBaseURI(string memory baseURI_) external onlyOwner {... */\n      pop\n      jump\t// out\n        /* \"contracts/NFTContract/SQFItem.sol\":18019:18044  uint256 public nextId = 1 */\n    tag_48:\n      sload(0x0b)\n      dup2\n      jump\t// out\n        /* \"contracts/NFTContract/SQFItem.sol\":10028:10341  function ownerOf(uint256 tokenId)... */\n    tag_53:\n        /* \"contracts/NFTContract/SQFItem.sol\":10140:10147  address */\n      0x00\n        /* \"contracts/NFTContract/SQFItem.sol\":10163:10176  address owner */\n      dup1\n        /* \"contracts/NFTContract/SQFItem.sol\":10179:10186  _owners */\n      0x02\n        /* \"contracts/NFTContract/SQFItem.sol\":10179:10195  _owners[tokenId] */\n      0x00\n        /* \"contracts/NFTContract/SQFItem.sol\":10187:10194  tokenId */\n      dup5\n        /* \"contracts/NFTContract/SQFItem.sol\":10179:10195  _owners[tokenId] */\n      dup2\n      mstore\n      0x20\n      add\n      swap1\n      dup2\n      mstore\n      0x20\n      add\n      0x00\n      keccak256\n      0x00\n      swap1\n      sload\n      swap1\n      0x0100\n      exp\n      swap1\n      div\n      0xffffffffffffffffffffffffffffffffffffffff\n      and\n        /* \"contracts/NFTContract/SQFItem.sol\":10163:10195  address owner = _owners[tokenId] */\n      swap1\n      pop\n        /* \"contracts/NFTContract/SQFItem.sol\":10243:10244  0 */\n      0x00\n        /* \"contracts/NFTContract/SQFItem.sol\":10226:10245  owner != address(0) */\n      0xffffffffffffffffffffffffffffffffffffffff\n      and\n        /* \"contracts/NFTContract/SQFItem.sol\":10226:10231  owner */\n      dup2\n        /* \"contracts/NFTContract/SQFItem.sol\":10226:10245  owner != address(0) */\n      0xffffffffffffffffffffffffffffffffffffffff\n      and\n      eq\n      iszero\n        /* \"contracts/NFTContract/SQFItem.sol\":10205:10312  require(... */\n      tag_129\n      jumpi\n      mload(0x40)\n      0x08c379a000000000000000000000000000000000000000000000000000000000\n      dup2\n      mstore\n      0x04\n      add\n      tag_130\n      swap1\n      tag_131\n      jump\t// in\n    tag_130:\n      mload(0x40)\n      dup1\n      swap2\n      sub\n      swap1\n      revert\n    tag_129:\n        /* \"contracts/NFTContract/SQFItem.sol\":10329:10334  owner */\n      dup1\n        /* \"contracts/NFTContract/SQFItem.sol\":10322:10334  return owner */\n      swap2\n      pop\n      pop\n        /* \"contracts/NFTContract/SQFItem.sol\":10028:10341  function ownerOf(uint256 tokenId)... */\n      swap2\n      swap1\n      pop\n      jump\t// out\n        /* \"contracts/NFTContract/SQFItem.sol\":9739:10022  function balanceOf(address owner)... */\n    tag_58:\n        /* \"contracts/NFTContract/SQFItem.sol\":9851:9858  uint256 */\n      0x00\n        /* \"contracts/NFTContract/SQFItem.sol\":9912:9913  0 */\n      dup1\n        /* \"contracts/NFTContract/SQFItem.sol\":9895:9914  owner != address(0) */\n      0xffffffffffffffffffffffffffffffffffffffff\n      and\n        /* \"contracts/NFTContract/SQFItem.sol\":9895:9900  owner */\n      dup3\n        /* \"contracts/NFTContract/SQFItem.sol\":9895:9914  owner != address(0) */\n      0xffffffffffffffffffffffffffffffffffffffff\n      and\n      eq\n      iszero\n        /* \"contracts/NFTContract/SQFItem.sol\":9874:9982  require(... */\n      tag_133\n      jumpi\n      mload(0x40)\n      0x08c379a000000000000000000000000000000000000000000000000000000000\n      dup2\n      mstore\n      0x04\n      add\n      tag_134\n      swap1\n      tag_135\n      jump\t// in\n    tag_134:\n      mload(0x40)\n      dup1\n      swap2\n      sub\n      swap1\n      revert\n    tag_133:\n        /* \"contracts/NFTContract/SQFItem.sol\":9999:10008  _balances */\n      0x01\n        /* \"contracts/NFTContract/SQFItem.sol\":9999:10015  _balances[owner] */\n      0x00\n        /* \"contracts/NFTContract/SQFItem.sol\":10009:10014  owner */\n      dup4\n        /* \"contracts/NFTContract/SQFItem.sol\":9999:10015  _balances[owner] */\n      0xffffffffffffffffffffffffffffffffffffffff\n      and\n      0xffffffffffffffffffffffffffffffffffffffff\n      and\n      dup2\n      mstore\n      0x20\n      add\n      swap1\n      dup2\n      mstore\n      0x20\n      add\n      0x00\n      keccak256\n      sload\n        /* \"contracts/NFTContract/SQFItem.sol\":9992:10015  return _balances[owner] */\n      swap1\n      pop\n        /* \"contracts/NFTContract/SQFItem.sol\":9739:10022  function balanceOf(address owner)... */\n      swap2\n      swap1\n      pop\n      jump\t// out\n        /* \"contracts/NFTContract/SQFItem.sol\":6606:6707  function renounceOwnership() public virtual onlyOwner {... */\n    tag_61:\n        /* \"contracts/NFTContract/SQFItem.sol\":6533:6545  _msgSender() */\n      tag_137\n        /* \"contracts/NFTContract/SQFItem.sol\":6533:6543  _msgSender */\n      tag_102\n        /* \"contracts/NFTContract/SQFItem.sol\":6533:6545  _msgSender() */\n      jump\t// in\n    tag_137:\n        /* \"contracts/NFTContract/SQFItem.sol\":6522:6545  owner() == _msgSender() */\n      0xffffffffffffffffffffffffffffffffffffffff\n      and\n        /* \"contracts/NFTContract/SQFItem.sol\":6522:6529  owner() */\n      tag_138\n        /* \"contracts/NFTContract/SQFItem.sol\":6522:6527  owner */\n      tag_63\n        /* \"contracts/NFTContract/SQFItem.sol\":6522:6529  owner() */\n      jump\t// in\n    tag_138:\n        /* \"contracts/NFTContract/SQFItem.sol\":6522:6545  owner() == _msgSender() */\n      0xffffffffffffffffffffffffffffffffffffffff\n      and\n      eq\n        /* \"contracts/NFTContract/SQFItem.sol\":6514:6582  require(owner() == _msgSender(), \"Ownable: caller is not the owner\") */\n      tag_139\n      jumpi\n      mload(0x40)\n      0x08c379a000000000000000000000000000000000000000000000000000000000\n      dup2\n      mstore\n      0x04\n      add\n      tag_140\n      swap1\n      tag_124\n      jump\t// in\n    tag_140:\n      mload(0x40)\n      dup1\n      swap2\n      sub\n      swap1\n      revert\n    tag_139:\n        /* \"contracts/NFTContract/SQFItem.sol\":6670:6700  _transferOwnership(address(0)) */\n      tag_142\n        /* \"contracts/NFTContract/SQFItem.sol\":6697:6698  0 */\n      0x00\n        /* \"contracts/NFTContract/SQFItem.sol\":6670:6688  _transferOwnership */\n      tag_143\n        /* \"contracts/NFTContract/SQFItem.sol\":6670:6700  _transferOwnership(address(0)) */\n      jump\t// in\n    tag_142:\n        /* \"contracts/NFTContract/SQFItem.sol\":6606:6707  function renounceOwnership() public virtual onlyOwner {... */\n      jump\t// out\n        /* \"contracts/NFTContract/SQFItem.sol\":6392:6477  function owner() public view virtual returns (address) {... */\n    tag_63:\n        /* \"contracts/NFTContract/SQFItem.sol\":6438:6445  address */\n      0x00\n        /* \"contracts/NFTContract/SQFItem.sol\":6464:6470  _owner */\n      dup1\n      0x00\n      swap1\n      sload\n      swap1\n      0x0100\n      exp\n      swap1\n      div\n      0xffffffffffffffffffffffffffffffffffffffff\n      and\n        /* \"contracts/NFTContract/SQFItem.sol\":6457:6470  return _owner */\n      swap1\n      pop\n        /* \"contracts/NFTContract/SQFItem.sol\":6392:6477  function owner() public view virtual returns (address) {... */\n      swap1\n      jump\t// out\n        /* \"contracts/NFTContract/SQFItem.sol\":10451:10553  function symbol() public view virtual override returns (string memory) {... */\n    tag_66:\n        /* \"contracts/NFTContract/SQFItem.sol\":10507:10520  string memory */\n      0x60\n        /* \"contracts/NFTContract/SQFItem.sol\":10539:10546  _symbol */\n      0x08\n        /* \"contracts/NFTContract/SQFItem.sol\":10532:10546  return _symbol */\n      dup1\n      sload\n      tag_146\n      swap1\n      tag_85\n      jump\t// in\n    tag_146:\n      dup1\n      0x1f\n      add\n      0x20\n      dup1\n      swap2\n      div\n      mul\n      0x20\n      add\n      mload(0x40)\n      swap1\n      dup2\n      add\n      0x40\n      mstore\n      dup1\n      swap3\n      swap2\n      swap1\n      dup2\n      dup2\n      mstore\n      0x20\n      add\n      dup3\n      dup1\n      sload\n      tag_147\n      swap1\n      tag_85\n      jump\t// in\n    tag_147:\n      dup1\n      iszero\n      tag_148\n      jumpi\n      dup1\n      0x1f\n      lt\n      tag_149\n      jumpi\n      0x0100\n      dup1\n      dup4\n      sload\n      div\n      mul\n      dup4\n      mstore\n      swap2\n      0x20\n      add\n      swap2\n      jump(tag_148)\n    tag_149:\n      dup3\n      add\n      swap2\n      swap1\n      0x00\n      mstore\n      keccak256(0x00, 0x20)\n      swap1\n    tag_150:\n      dup2\n      sload\n      dup2\n      mstore\n      swap1\n      0x01\n      add\n      swap1\n      0x20\n      add\n      dup1\n      dup4\n      gt\n      tag_150\n      jumpi\n      dup3\n      swap1\n      sub\n      0x1f\n      and\n      dup3\n      add\n      swap2\n    tag_148:\n      pop\n      pop\n      pop\n      pop\n      pop\n      swap1\n      pop\n        /* \"contracts/NFTContract/SQFItem.sol\":10451:10553  function symbol() public view virtual override returns (string memory) {... */\n      swap1\n      jump\t// out\n        /* \"contracts/NFTContract/SQFItem.sol\":11827:12181  function safeTransferFrom(... */\n    tag_71:\n        /* \"contracts/NFTContract/SQFItem.sol\":12009:12050  _isApprovedOrOwner(_msgSender(), tokenId) */\n      tag_152\n        /* \"contracts/NFTContract/SQFItem.sol\":12028:12040  _msgSender() */\n      tag_153\n        /* \"contracts/NFTContract/SQFItem.sol\":12028:12038  _msgSender */\n      tag_102\n        /* \"contracts/NFTContract/SQFItem.sol\":12028:12040  _msgSender() */\n      jump\t// in\n    tag_153:\n        /* \"contracts/NFTContract/SQFItem.sol\":12042:12049  tokenId */\n      dup4\n        /* \"contracts/NFTContract/SQFItem.sol\":12009:12027  _isApprovedOrOwner */\n      tag_111\n        /* \"contracts/NFTContract/SQFItem.sol\":12009:12050  _isApprovedOrOwner(_msgSender(), tokenId) */\n      jump\t// in\n    tag_152:\n        /* \"contracts/NFTContract/SQFItem.sol\":11988:12125  require(... */\n      tag_154\n      jumpi\n      mload(0x40)\n      0x08c379a000000000000000000000000000000000000000000000000000000000\n      dup2\n      mstore\n      0x04\n      add\n      tag_155\n      swap1\n      tag_114\n      jump\t// in\n    tag_155:\n      mload(0x40)\n      dup1\n      swap2\n      sub\n      swap1\n      revert\n    tag_154:\n        /* \"contracts/NFTContract/SQFItem.sol\":12135:12174  _safeTransfer(from, to, tokenId, _data) */\n      tag_156\n        /* \"contracts/NFTContract/SQFItem.sol\":12149:12153  from */\n      dup5\n        /* \"contracts/NFTContract/SQFItem.sol\":12155:12157  to */\n      dup5\n        /* \"contracts/NFTContract/SQFItem.sol\":12159:12166  tokenId */\n      dup5\n        /* \"contracts/NFTContract/SQFItem.sol\":12168:12173  _data */\n      dup5\n        /* \"contracts/NFTContract/SQFItem.sol\":12135:12148  _safeTransfer */\n      tag_157\n        /* \"contracts/NFTContract/SQFItem.sol\":12135:12174  _safeTransfer(from, to, tokenId, _data) */\n      jump\t// in\n    tag_156:\n        /* \"contracts/NFTContract/SQFItem.sol\":11827:12181  function safeTransferFrom(... */\n      pop\n      pop\n      pop\n      pop\n      jump\t// out\n        /* \"contracts/NFTContract/SQFItem.sol\":18763:19618  function tokenURI(uint256 tokenId)... */\n    tag_74:\n        /* \"contracts/NFTContract/SQFItem.sol\":18876:18889  string memory */\n      0x60\n        /* \"contracts/NFTContract/SQFItem.sol\":18926:18942  _exists(tokenId) */\n      tag_159\n        /* \"contracts/NFTContract/SQFItem.sol\":18934:18941  tokenId */\n      dup3\n        /* \"contracts/NFTContract/SQFItem.sol\":18926:18933  _exists */\n      tag_92\n        /* \"contracts/NFTContract/SQFItem.sol\":18926:18942  _exists(tokenId) */\n      jump\t// in\n    tag_159:\n        /* \"contracts/NFTContract/SQFItem.sol\":18905:19015  require(... */\n      tag_160\n      jumpi\n      mload(0x40)\n      0x08c379a000000000000000000000000000000000000000000000000000000000\n      dup2\n      mstore\n      0x04\n      add\n      tag_161\n      swap1\n      tag_162\n      jump\t// in\n    tag_161:\n      mload(0x40)\n      dup1\n      swap2\n      sub\n      swap1\n      revert\n    tag_160:\n        /* \"contracts/NFTContract/SQFItem.sol\":19026:19049  string memory _tokenURI */\n      0x00\n        /* \"contracts/NFTContract/SQFItem.sol\":19052:19062  _tokenURIs */\n      0x0d\n        /* \"contracts/NFTContract/SQFItem.sol\":19052:19071  _tokenURIs[tokenId] */\n      0x00\n        /* \"contracts/NFTContract/SQFItem.sol\":19063:19070  tokenId */\n      dup5\n        /* \"contracts/NFTContract/SQFItem.sol\":19052:19071  _tokenURIs[tokenId] */\n      dup2\n      mstore\n      0x20\n      add\n      swap1\n      dup2\n      mstore\n      0x20\n      add\n      0x00\n      keccak256\n        /* \"contracts/NFTContract/SQFItem.sol\":19026:19071  string memory _tokenURI = _tokenURIs[tokenId] */\n      dup1\n      sload\n      tag_163\n      swap1\n      tag_85\n      jump\t// in\n    tag_163:\n      dup1\n      0x1f\n      add\n      0x20\n      dup1\n      swap2\n      div\n      mul\n      0x20\n      add\n      mload(0x40)\n      swap1\n      dup2\n      add\n      0x40\n      mstore\n      dup1\n      swap3\n      swap2\n      swap1\n      dup2\n      dup2\n      mstore\n      0x20\n      add\n      dup3\n      dup1\n      sload\n      tag_164\n      swap1\n      tag_85\n      jump\t// in\n    tag_164:\n      dup1\n      iszero\n      tag_165\n      jumpi\n      dup1\n      0x1f\n      lt\n      tag_166\n      jumpi\n      0x0100\n      dup1\n      dup4\n      sload\n      div\n      mul\n      dup4\n      mstore\n      swap2\n      0x20\n      add\n      swap2\n      jump(tag_165)\n    tag_166:\n      dup3\n      add\n      swap2\n      swap1\n      0x00\n      mstore\n      keccak256(0x00, 0x20)\n      swap1\n    tag_167:\n      dup2\n      sload\n      dup2\n      mstore\n      swap1\n      0x01\n      add\n      swap1\n      0x20\n      add\n      dup1\n      dup4\n      gt\n      tag_167\n      jumpi\n      dup3\n      swap1\n      sub\n      0x1f\n      and\n      dup3\n      add\n      swap2\n    tag_165:\n      pop\n      pop\n      pop\n      pop\n      pop\n      swap1\n      pop\n        /* \"contracts/NFTContract/SQFItem.sol\":19081:19099  string memory base */\n      0x00\n        /* \"contracts/NFTContract/SQFItem.sol\":19102:19112  _baseURI() */\n      tag_168\n        /* \"contracts/NFTContract/SQFItem.sol\":19102:19110  _baseURI */\n      tag_169\n        /* \"contracts/NFTContract/SQFItem.sol\":19102:19112  _baseURI() */\n      jump\t// in\n    tag_168:\n        /* \"contracts/NFTContract/SQFItem.sol\":19081:19112  string memory base = _baseURI() */\n      swap1\n      pop\n        /* \"contracts/NFTContract/SQFItem.sol\":19207:19208  0 */\n      0x00\n        /* \"contracts/NFTContract/SQFItem.sol\":19191:19195  base */\n      dup2\n        /* \"contracts/NFTContract/SQFItem.sol\":19185:19203  bytes(base).length */\n      mload\n        /* \"contracts/NFTContract/SQFItem.sol\":19185:19208  bytes(base).length == 0 */\n      eq\n        /* \"contracts/NFTContract/SQFItem.sol\":19181:19251  if (bytes(base).length == 0) {... */\n      iszero\n      tag_170\n      jumpi\n        /* \"contracts/NFTContract/SQFItem.sol\":19231:19240  _tokenURI */\n      dup2\n        /* \"contracts/NFTContract/SQFItem.sol\":19224:19240  return _tokenURI */\n      swap3\n      pop\n      pop\n      pop\n      jump(tag_158)\n        /* \"contracts/NFTContract/SQFItem.sol\":19181:19251  if (bytes(base).length == 0) {... */\n    tag_170:\n        /* \"contracts/NFTContract/SQFItem.sol\":19379:19380  0 */\n      0x00\n        /* \"contracts/NFTContract/SQFItem.sol\":19359:19368  _tokenURI */\n      dup3\n        /* \"contracts/NFTContract/SQFItem.sol\":19353:19376  bytes(_tokenURI).length */\n      mload\n        /* \"contracts/NFTContract/SQFItem.sol\":19353:19380  bytes(_tokenURI).length > 0 */\n      gt\n        /* \"contracts/NFTContract/SQFItem.sol\":19349:19455  if (bytes(_tokenURI).length > 0) {... */\n      iszero\n      tag_171\n      jumpi\n        /* \"contracts/NFTContract/SQFItem.sol\":19427:19431  base */\n      dup1\n        /* \"contracts/NFTContract/SQFItem.sol\":19433:19442  _tokenURI */\n      dup3\n        /* \"contracts/NFTContract/SQFItem.sol\":19410:19443  abi.encodePacked(base, _tokenURI) */\n      add(0x20, mload(0x40))\n      tag_172\n      swap3\n      swap2\n      swap1\n      tag_173\n      jump\t// in\n    tag_172:\n      mload(0x40)\n      0x20\n      dup2\n      dup4\n      sub\n      sub\n      dup2\n      mstore\n      swap1\n      0x40\n      mstore\n        /* \"contracts/NFTContract/SQFItem.sol\":19396:19444  return string(abi.encodePacked(base, _tokenURI)) */\n      swap3\n      pop\n      pop\n      pop\n      jump(tag_158)\n        /* \"contracts/NFTContract/SQFItem.sol\":19349:19455  if (bytes(_tokenURI).length > 0) {... */\n    tag_171:\n        /* \"contracts/NFTContract/SQFItem.sol\":19585:19589  base */\n      dup1\n        /* \"contracts/NFTContract/SQFItem.sol\":19591:19609  tokenId.toString() */\n      tag_174\n        /* \"contracts/NFTContract/SQFItem.sol\":19591:19598  tokenId */\n      dup6\n        /* \"contracts/NFTContract/SQFItem.sol\":19591:19607  tokenId.toString */\n      tag_175\n        /* \"contracts/NFTContract/SQFItem.sol\":19591:19609  tokenId.toString() */\n      jump\t// in\n    tag_174:\n        /* \"contracts/NFTContract/SQFItem.sol\":19568:19610  abi.encodePacked(base, tokenId.toString()) */\n      add(0x20, mload(0x40))\n      tag_176\n      swap3\n      swap2\n      swap1\n      tag_173\n      jump\t// in\n    tag_176:\n      mload(0x40)\n      0x20\n      dup2\n      dup4\n      sub\n      sub\n      dup2\n      mstore\n      swap1\n      0x40\n      mstore\n        /* \"contracts/NFTContract/SQFItem.sol\":19554:19611  return string(abi.encodePacked(base, tokenId.toString())) */\n      swap3\n      pop\n      pop\n      pop\n        /* \"contracts/NFTContract/SQFItem.sol\":18763:19618  function tokenURI(uint256 tokenId)... */\n    tag_158:\n      swap2\n      swap1\n      pop\n      jump\t// out\n        /* \"contracts/NFTContract/SQFItem.sol\":19624:19823  function mint(address _to, string memory tokenURI_) public onlyOwner {... */\n    tag_79:\n        /* \"contracts/NFTContract/SQFItem.sol\":6533:6545  _msgSender() */\n      tag_178\n        /* \"contracts/NFTContract/SQFItem.sol\":6533:6543  _msgSender */\n      tag_102\n        /* \"contracts/NFTContract/SQFItem.sol\":6533:6545  _msgSender() */\n      jump\t// in\n    tag_178:\n        /* \"contracts/NFTContract/SQFItem.sol\":6522:6545  owner() == _msgSender() */\n      0xffffffffffffffffffffffffffffffffffffffff\n      and\n        /* \"contracts/NFTContract/SQFItem.sol\":6522:6529  owner() */\n      tag_179\n        /* \"contracts/NFTContract/SQFItem.sol\":6522:6527  owner */\n      tag_63\n        /* \"contracts/NFTContract/SQFItem.sol\":6522:6529  owner() */\n      jump\t// in\n    tag_179:\n        /* \"contracts/NFTContract/SQFItem.sol\":6522:6545  owner() == _msgSender() */\n      0xffffffffffffffffffffffffffffffffffffffff\n      and\n      eq\n        /* \"contracts/NFTContract/SQFItem.sol\":6514:6582  require(owner() == _msgSender(), \"Ownable: caller is not the owner\") */\n      tag_180\n      jumpi\n      mload(0x40)\n      0x08c379a000000000000000000000000000000000000000000000000000000000\n      dup2\n      mstore\n      0x04\n      add\n      tag_181\n      swap1\n      tag_124\n      jump\t// in\n    tag_181:\n      mload(0x40)\n      dup1\n      swap2\n      sub\n      swap1\n      revert\n    tag_180:\n        /* \"contracts/NFTContract/SQFItem.sol\":19703:19724  _safeMint(_to,nextId) */\n      tag_183\n        /* \"contracts/NFTContract/SQFItem.sol\":19713:19716  _to */\n      dup3\n        /* \"contracts/NFTContract/SQFItem.sol\":19717:19723  nextId */\n      sload(0x0b)\n        /* \"contracts/NFTContract/SQFItem.sol\":19703:19712  _safeMint */\n      tag_184\n        /* \"contracts/NFTContract/SQFItem.sol\":19703:19724  _safeMint(_to,nextId) */\n      jump\t// in\n    tag_183:\n        /* \"contracts/NFTContract/SQFItem.sol\":19734:19765  _setTokenURI(nextId, tokenURI_) */\n      tag_185\n        /* \"contracts/NFTContract/SQFItem.sol\":19747:19753  nextId */\n      sload(0x0b)\n        /* \"contracts/NFTContract/SQFItem.sol\":19755:19764  tokenURI_ */\n      dup3\n        /* \"contracts/NFTContract/SQFItem.sol\":19734:19746  _setTokenURI */\n      tag_186\n        /* \"contracts/NFTContract/SQFItem.sol\":19734:19765  _setTokenURI(nextId, tokenURI_) */\n      jump\t// in\n    tag_185:\n        /* \"contracts/NFTContract/SQFItem.sol\":19808:19814  nextId */\n      0x0b\n      0x00\n        /* \"contracts/NFTContract/SQFItem.sol\":19808:19816  nextId++ */\n      dup2\n      sload\n      dup1\n      swap3\n      swap2\n      swap1\n      tag_187\n      swap1\n      tag_188\n      jump\t// in\n    tag_187:\n      swap2\n      swap1\n      pop\n      sstore\n      pop\n        /* \"contracts/NFTContract/SQFItem.sol\":19624:19823  function mint(address _to, string memory tokenURI_) public onlyOwner {... */\n      pop\n      pop\n      jump\t// out\n        /* \"contracts/NFTContract/SQFItem.sol\":6713:6945  function transferOwnership(address newOwner) public virtual onlyOwner {... */\n    tag_82:\n        /* \"contracts/NFTContract/SQFItem.sol\":6533:6545  _msgSender() */\n      tag_190\n        /* \"contracts/NFTContract/SQFItem.sol\":6533:6543  _msgSender */\n      tag_102\n        /* \"contracts/NFTContract/SQFItem.sol\":6533:6545  _msgSender() */\n      jump\t// in\n    tag_190:\n        /* \"contracts/NFTContract/SQFItem.sol\":6522:6545  owner() == _msgSender() */\n      0xffffffffffffffffffffffffffffffffffffffff\n      and\n        /* \"contracts/NFTContract/SQFItem.sol\":6522:6529  owner() */\n      tag_191\n        /* \"contracts/NFTContract/SQFItem.sol\":6522:6527  owner */\n      tag_63\n        /* \"contracts/NFTContract/SQFItem.sol\":6522:6529  owner() */\n      jump\t// in\n    tag_191:\n        /* \"contracts/NFTContract/SQFItem.sol\":6522:6545  owner() == _msgSender() */\n      0xffffffffffffffffffffffffffffffffffffffff\n      and\n      eq\n        /* \"contracts/NFTContract/SQFItem.sol\":6514:6582  require(owner() == _msgSender(), \"Ownable: caller is not the owner\") */\n      tag_192\n      jumpi\n      mload(0x40)\n      0x08c379a000000000000000000000000000000000000000000000000000000000\n      dup2\n      mstore\n      0x04\n      add\n      tag_193\n      swap1\n      tag_124\n      jump\t// in\n    tag_193:\n      mload(0x40)\n      dup1\n      swap2\n      sub\n      swap1\n      revert\n    tag_192:\n        /* \"contracts/NFTContract/SQFItem.sol\":6834:6835  0 */\n      0x00\n        /* \"contracts/NFTContract/SQFItem.sol\":6814:6836  newOwner != address(0) */\n      0xffffffffffffffffffffffffffffffffffffffff\n      and\n        /* \"contracts/NFTContract/SQFItem.sol\":6814:6822  newOwner */\n      dup2\n        /* \"contracts/NFTContract/SQFItem.sol\":6814:6836  newOwner != address(0) */\n      0xffffffffffffffffffffffffffffffffffffffff\n      and\n      eq\n      iszero\n        /* \"contracts/NFTContract/SQFItem.sol\":6793:6900  require(... */\n      tag_195\n      jumpi\n      mload(0x40)\n      0x08c379a000000000000000000000000000000000000000000000000000000000\n      dup2\n      mstore\n      0x04\n      add\n      tag_196\n      swap1\n      tag_197\n      jump\t// in\n    tag_196:\n      mload(0x40)\n      dup1\n      swap2\n      sub\n      swap1\n      revert\n    tag_195:\n        /* \"contracts/NFTContract/SQFItem.sol\":6910:6938  _transferOwnership(newOwner) */\n      tag_198\n        /* \"contracts/NFTContract/SQFItem.sol\":6929:6937  newOwner */\n      dup2\n        /* \"contracts/NFTContract/SQFItem.sol\":6910:6928  _transferOwnership */\n      tag_143\n        /* \"contracts/NFTContract/SQFItem.sol\":6910:6938  _transferOwnership(newOwner) */\n      jump\t// in\n    tag_198:\n        /* \"contracts/NFTContract/SQFItem.sol\":6713:6945  function transferOwnership(address newOwner) public virtual onlyOwner {... */\n      pop\n      jump\t// out\n        /* \"contracts/NFTContract/SQFItem.sol\":12534:12659  function _exists(uint256 tokenId) internal view virtual returns (bool) {... */\n    tag_92:\n        /* \"contracts/NFTContract/SQFItem.sol\":12599:12603  bool */\n      0x00\n        /* \"contracts/NFTContract/SQFItem.sol\":12650:12651  0 */\n      dup1\n        /* \"contracts/NFTContract/SQFItem.sol\":12622:12652  _owners[tokenId] != address(0) */\n      0xffffffffffffffffffffffffffffffffffffffff\n      and\n        /* \"contracts/NFTContract/SQFItem.sol\":12622:12629  _owners */\n      0x02\n        /* \"contracts/NFTContract/SQFItem.sol\":12622:12638  _owners[tokenId] */\n      0x00\n        /* \"contracts/NFTContract/SQFItem.sol\":12630:12637  tokenId */\n      dup5\n        /* \"contracts/NFTContract/SQFItem.sol\":12622:12638  _owners[tokenId] */\n      dup2\n      mstore\n      0x20\n      add\n      swap1\n      dup2\n      mstore\n      0x20\n      add\n      0x00\n      keccak256\n      0x00\n      swap1\n      sload\n      swap1\n      0x0100\n      exp\n      swap1\n      div\n      0xffffffffffffffffffffffffffffffffffffffff\n      and\n        /* \"contracts/NFTContract/SQFItem.sol\":12622:12652  _owners[tokenId] != address(0) */\n      0xffffffffffffffffffffffffffffffffffffffff\n      and\n      eq\n      iszero\n        /* \"contracts/NFTContract/SQFItem.sol\":12615:12652  return _owners[tokenId] != address(0) */\n      swap1\n      pop\n        /* \"contracts/NFTContract/SQFItem.sol\":12534:12659  function _exists(uint256 tokenId) internal view virtual returns (bool) {... */\n      swap2\n      swap1\n      pop\n      jump\t// out\n        /* \"contracts/NFTContract/SQFItem.sol\":165:261  function _msgSender() internal view virtual returns (address) {... */\n    tag_102:\n        /* \"contracts/NFTContract/SQFItem.sol\":218:225  address */\n      0x00\n        /* \"contracts/NFTContract/SQFItem.sol\":244:254  msg.sender */\n      caller\n        /* \"contracts/NFTContract/SQFItem.sol\":237:254  return msg.sender */\n      swap1\n      pop\n        /* \"contracts/NFTContract/SQFItem.sol\":165:261  function _msgSender() internal view virtual returns (address) {... */\n      swap1\n      jump\t// out\n        /* \"contracts/NFTContract/SQFItem.sol\":14971:15142  function _approve(address to, uint256 tokenId) internal virtual {... */\n    tag_107:\n        /* \"contracts/NFTContract/SQFItem.sol\":15072:15074  to */\n      dup2\n        /* \"contracts/NFTContract/SQFItem.sol\":15045:15060  _tokenApprovals */\n      0x04\n        /* \"contracts/NFTContract/SQFItem.sol\":15045:15069  _tokenApprovals[tokenId] */\n      0x00\n        /* \"contracts/NFTContract/SQFItem.sol\":15061:15068  tokenId */\n      dup4\n        /* \"contracts/NFTContract/SQFItem.sol\":15045:15069  _tokenApprovals[tokenId] */\n      dup2\n      mstore\n      0x20\n      add\n      swap1\n      dup2\n      mstore\n      0x20\n      add\n      0x00\n      keccak256\n      0x00\n        /* \"contracts/NFTContract/SQFItem.sol\":15045:15074  _tokenApprovals[tokenId] = to */\n      0x0100\n      exp\n      dup2\n      sload\n      dup2\n      0xffffffffffffffffffffffffffffffffffffffff\n      mul\n      not\n      and\n      swap1\n      dup4\n      0xffffffffffffffffffffffffffffffffffffffff\n      and\n      mul\n      or\n      swap1\n      sstore\n      pop\n        /* \"contracts/NFTContract/SQFItem.sol\":15127:15134  tokenId */\n      dup1\n        /* \"contracts/NFTContract/SQFItem.sol\":15123:15125  to */\n      dup3\n        /* \"contracts/NFTContract/SQFItem.sol\":15089:15135  Approval(ERC721.ownerOf(tokenId), to, tokenId) */\n      0xffffffffffffffffffffffffffffffffffffffff\n      and\n        /* \"contracts/NFTContract/SQFItem.sol\":15098:15121  ERC721.ownerOf(tokenId) */\n      tag_202\n        /* \"contracts/NFTContract/SQFItem.sol\":15113:15120  tokenId */\n      dup4\n        /* \"contracts/NFTContract/SQFItem.sol\":15098:15112  ERC721.ownerOf */\n      tag_53\n        /* \"contracts/NFTContract/SQFItem.sol\":15098:15121  ERC721.ownerOf(tokenId) */\n      jump\t// in\n    tag_202:\n        /* \"contracts/NFTContract/SQFItem.sol\":15089:15135  Approval(ERC721.ownerOf(tokenId), to, tokenId) */\n      0xffffffffffffffffffffffffffffffffffffffff\n      and\n      0x8c5be1e5ebec7d5bd14f71427d1e84f3dd0314c0f7b2291e5b200ac8c7c3b925\n      mload(0x40)\n      mload(0x40)\n      dup1\n      swap2\n      sub\n      swap1\n      log4\n        /* \"contracts/NFTContract/SQFItem.sol\":14971:15142  function _approve(address to, uint256 tokenId) internal virtual {... */\n      pop\n      pop\n      jump\t// out\n        /* \"contracts/NFTContract/SQFItem.sol\":12665:13043  function _isApprovedOrOwner(address spender, uint256 tokenId)... */\n    tag_111:\n        /* \"contracts/NFTContract/SQFItem.sol\":12790:12794  bool */\n      0x00\n        /* \"contracts/NFTContract/SQFItem.sol\":12831:12847  _exists(tokenId) */\n      tag_204\n        /* \"contracts/NFTContract/SQFItem.sol\":12839:12846  tokenId */\n      dup3\n        /* \"contracts/NFTContract/SQFItem.sol\":12831:12838  _exists */\n      tag_92\n        /* \"contracts/NFTContract/SQFItem.sol\":12831:12847  _exists(tokenId) */\n      jump\t// in\n    tag_204:\n        /* \"contracts/NFTContract/SQFItem.sol\":12810:12917  require(... */\n      tag_205\n      jumpi\n      mload(0x40)\n      0x08c379a000000000000000000000000000000000000000000000000000000000\n      dup2\n      mstore\n      0x04\n      add\n      tag_206\n      swap1\n      tag_207\n      jump\t// in\n    tag_206:\n      mload(0x40)\n      dup1\n      swap2\n      sub\n      swap1\n      revert\n    tag_205:\n        /* \"contracts/NFTContract/SQFItem.sol\":12927:12940  address owner */\n      0x00\n        /* \"contracts/NFTContract/SQFItem.sol\":12943:12966  ERC721.ownerOf(tokenId) */\n      tag_208\n        /* \"contracts/NFTContract/SQFItem.sol\":12958:12965  tokenId */\n      dup4\n        /* \"contracts/NFTContract/SQFItem.sol\":12943:12957  ERC721.ownerOf */\n      tag_53\n        /* \"contracts/NFTContract/SQFItem.sol\":12943:12966  ERC721.ownerOf(tokenId) */\n      jump\t// in\n    tag_208:\n        /* \"contracts/NFTContract/SQFItem.sol\":12927:12966  address owner = ERC721.ownerOf(tokenId) */\n      swap1\n      pop\n        /* \"contracts/NFTContract/SQFItem.sol\":12995:13000  owner */\n      dup1\n        /* \"contracts/NFTContract/SQFItem.sol\":12984:13000  spender == owner */\n      0xffffffffffffffffffffffffffffffffffffffff\n      and\n        /* \"contracts/NFTContract/SQFItem.sol\":12984:12991  spender */\n      dup5\n        /* \"contracts/NFTContract/SQFItem.sol\":12984:13000  spender == owner */\n      0xffffffffffffffffffffffffffffffffffffffff\n      and\n      eq\n        /* \"contracts/NFTContract/SQFItem.sol\":12984:13035  spender == owner || getApproved(tokenId) == spender */\n      dup1\n      tag_209\n      jumpi\n      pop\n        /* \"contracts/NFTContract/SQFItem.sol\":13028:13035  spender */\n      dup4\n        /* \"contracts/NFTContract/SQFItem.sol\":13004:13035  getApproved(tokenId) == spender */\n      0xffffffffffffffffffffffffffffffffffffffff\n      and\n        /* \"contracts/NFTContract/SQFItem.sol\":13004:13024  getApproved(tokenId) */\n      tag_210\n        /* \"contracts/NFTContract/SQFItem.sol\":13016:13023  tokenId */\n      dup5\n        /* \"contracts/NFTContract/SQFItem.sol\":13004:13015  getApproved */\n      tag_29\n        /* \"contracts/NFTContract/SQFItem.sol\":13004:13024  getApproved(tokenId) */\n      jump\t// in\n    tag_210:\n        /* \"contracts/NFTContract/SQFItem.sol\":13004:13035  getApproved(tokenId) == spender */\n      0xffffffffffffffffffffffffffffffffffffffff\n      and\n      eq\n        /* \"contracts/NFTContract/SQFItem.sol\":12984:13035  spender == owner || getApproved(tokenId) == spender */\n    tag_209:\n        /* \"contracts/NFTContract/SQFItem.sol\":12976:13036  return (spender == owner || getApproved(tokenId) == spender) */\n      swap2\n      pop\n      pop\n        /* \"contracts/NFTContract/SQFItem.sol\":12665:13043  function _isApprovedOrOwner(address spender, uint256 tokenId)... */\n      swap3\n      swap2\n      pop\n      pop\n      jump\t// out\n        /* \"contracts/NFTContract/SQFItem.sol\":14326:14965  function _transfer(... */\n    tag_116:\n        /* \"contracts/NFTContract/SQFItem.sol\":14493:14497  from */\n      dup3\n        /* \"contracts/NFTContract/SQFItem.sol\":14466:14497  ERC721.ownerOf(tokenId) == from */\n      0xffffffffffffffffffffffffffffffffffffffff\n      and\n        /* \"contracts/NFTContract/SQFItem.sol\":14466:14489  ERC721.ownerOf(tokenId) */\n      tag_212\n        /* \"contracts/NFTContract/SQFItem.sol\":14481:14488  tokenId */\n      dup3\n        /* \"contracts/NFTContract/SQFItem.sol\":14466:14480  ERC721.ownerOf */\n      tag_53\n        /* \"contracts/NFTContract/SQFItem.sol\":14466:14489  ERC721.ownerOf(tokenId) */\n      jump\t// in\n    tag_212:\n        /* \"contracts/NFTContract/SQFItem.sol\":14466:14497  ERC721.ownerOf(tokenId) == from */\n      0xffffffffffffffffffffffffffffffffffffffff\n      and\n      eq\n        /* \"contracts/NFTContract/SQFItem.sol\":14445:14560  require(... */\n      tag_213\n      jumpi\n      mload(0x40)\n      0x08c379a000000000000000000000000000000000000000000000000000000000\n      dup2\n      mstore\n      0x04\n      add\n      tag_214\n      swap1\n      tag_215\n      jump\t// in\n    tag_214:\n      mload(0x40)\n      dup1\n      swap2\n      sub\n      swap1\n      revert\n    tag_213:\n        /* \"contracts/NFTContract/SQFItem.sol\":14592:14593  0 */\n      0x00\n        /* \"contracts/NFTContract/SQFItem.sol\":14578:14594  to != address(0) */\n      0xffffffffffffffffffffffffffffffffffffffff\n      and\n        /* \"contracts/NFTContract/SQFItem.sol\":14578:14580  to */\n      dup3\n        /* \"contracts/NFTContract/SQFItem.sol\":14578:14594  to != address(0) */\n      0xffffffffffffffffffffffffffffffffffffffff\n      and\n      eq\n      iszero\n        /* \"contracts/NFTContract/SQFItem.sol\":14570:14635  require(to != address(0), \"ERC721: transfer to the zero address\") */\n      tag_216\n      jumpi\n      mload(0x40)\n      0x08c379a000000000000000000000000000000000000000000000000000000000\n      dup2\n      mstore\n      0x04\n      add\n      tag_217\n      swap1\n      tag_218\n      jump\t// in\n    tag_217:\n      mload(0x40)\n      dup1\n      swap2\n      sub\n      swap1\n      revert\n    tag_216:\n        /* \"contracts/NFTContract/SQFItem.sol\":14646:14685  _beforeTokenTransfer(from, to, tokenId) */\n      tag_219\n        /* \"contracts/NFTContract/SQFItem.sol\":14667:14671  from */\n      dup4\n        /* \"contracts/NFTContract/SQFItem.sol\":14673:14675  to */\n      dup4\n        /* \"contracts/NFTContract/SQFItem.sol\":14677:14684  tokenId */\n      dup4\n        /* \"contracts/NFTContract/SQFItem.sol\":14646:14666  _beforeTokenTransfer */\n      tag_220\n        /* \"contracts/NFTContract/SQFItem.sol\":14646:14685  _beforeTokenTransfer(from, to, tokenId) */\n      jump\t// in\n    tag_219:\n        /* \"contracts/NFTContract/SQFItem.sol\":14747:14776  _approve(address(0), tokenId) */\n      tag_221\n        /* \"contracts/NFTContract/SQFItem.sol\":14764:14765  0 */\n      0x00\n        /* \"contracts/NFTContract/SQFItem.sol\":14768:14775  tokenId */\n      dup3\n        /* \"contracts/NFTContract/SQFItem.sol\":14747:14755  _approve */\n      tag_107\n        /* \"contracts/NFTContract/SQFItem.sol\":14747:14776  _approve(address(0), tokenId) */\n      jump\t// in\n    tag_221:\n        /* \"contracts/NFTContract/SQFItem.sol\":14806:14807  1 */\n      0x01\n        /* \"contracts/NFTContract/SQFItem.sol\":14787:14796  _balances */\n      dup1\n        /* \"contracts/NFTContract/SQFItem.sol\":14787:14802  _balances[from] */\n      0x00\n        /* \"contracts/NFTContract/SQFItem.sol\":14797:14801  from */\n      dup6\n        /* \"contracts/NFTContract/SQFItem.sol\":14787:14802  _balances[from] */\n      0xffffffffffffffffffffffffffffffffffffffff\n      and\n      0xffffffffffffffffffffffffffffffffffffffff\n      and\n      dup2\n      mstore\n      0x20\n      add\n      swap1\n      dup2\n      mstore\n      0x20\n      add\n      0x00\n      keccak256\n      0x00\n        /* \"contracts/NFTContract/SQFItem.sol\":14787:14807  _balances[from] -= 1 */\n      dup3\n      dup3\n      sload\n      tag_222\n      swap2\n      swap1\n      tag_223\n      jump\t// in\n    tag_222:\n      swap3\n      pop\n      pop\n      dup2\n      swap1\n      sstore\n      pop\n        /* \"contracts/NFTContract/SQFItem.sol\":14834:14835  1 */\n      0x01\n        /* \"contracts/NFTContract/SQFItem.sol\":14817:14826  _balances */\n      dup1\n        /* \"contracts/NFTContract/SQFItem.sol\":14817:14830  _balances[to] */\n      0x00\n        /* \"contracts/NFTContract/SQFItem.sol\":14827:14829  to */\n      dup5\n        /* \"contracts/NFTContract/SQFItem.sol\":14817:14830  _balances[to] */\n      0xffffffffffffffffffffffffffffffffffffffff\n      and\n      0xffffffffffffffffffffffffffffffffffffffff\n      and\n      dup2\n      mstore\n      0x20\n      add\n      swap1\n      dup2\n      mstore\n      0x20\n      add\n      0x00\n      keccak256\n      0x00\n        /* \"contracts/NFTContract/SQFItem.sol\":14817:14835  _balances[to] += 1 */\n      dup3\n      dup3\n      sload\n      tag_224\n      swap2\n      swap1\n      tag_225\n      jump\t// in\n    tag_224:\n      swap3\n      pop\n      pop\n      dup2\n      swap1\n      sstore\n      pop\n        /* \"contracts/NFTContract/SQFItem.sol\":14864:14866  to */\n      dup2\n        /* \"contracts/NFTContract/SQFItem.sol\":14845:14852  _owners */\n      0x02\n        /* \"contracts/NFTContract/SQFItem.sol\":14845:14861  _owners[tokenId] */\n      0x00\n        /* \"contracts/NFTContract/SQFItem.sol\":14853:14860  tokenId */\n      dup4\n        /* \"contracts/NFTContract/SQFItem.sol\":14845:14861  _owners[tokenId] */\n      dup2\n      mstore\n      0x20\n      add\n      swap1\n      dup2\n      mstore\n      0x20\n      add\n      0x00\n      keccak256\n      0x00\n        /* \"contracts/NFTContract/SQFItem.sol\":14845:14866  _owners[tokenId] = to */\n      0x0100\n      exp\n      dup2\n      sload\n      dup2\n      0xffffffffffffffffffffffffffffffffffffffff\n      mul\n      not\n      and\n      swap1\n      dup4\n      0xffffffffffffffffffffffffffffffffffffffff\n      and\n      mul\n      or\n      swap1\n      sstore\n      pop\n        /* \"contracts/NFTContract/SQFItem.sol\":14901:14908  tokenId */\n      dup1\n        /* \"contracts/NFTContract/SQFItem.sol\":14897:14899  to */\n      dup3\n        /* \"contracts/NFTContract/SQFItem.sol\":14882:14909  Transfer(from, to, tokenId) */\n      0xffffffffffffffffffffffffffffffffffffffff\n      and\n        /* \"contracts/NFTContract/SQFItem.sol\":14891:14895  from */\n      dup5\n        /* \"contracts/NFTContract/SQFItem.sol\":14882:14909  Transfer(from, to, tokenId) */\n      0xffffffffffffffffffffffffffffffffffffffff\n      and\n      0xddf252ad1be2c89b69c2b068fc378daa952ba7f163c4a11628f55a4df523b3ef\n      mload(0x40)\n      mload(0x40)\n      dup1\n      swap2\n      sub\n      swap1\n      log4\n        /* \"contracts/NFTContract/SQFItem.sol\":14920:14958  _afterTokenTransfer(from, to, tokenId) */\n      tag_226\n        /* \"contracts/NFTContract/SQFItem.sol\":14940:14944  from */\n      dup4\n        /* \"contracts/NFTContract/SQFItem.sol\":14946:14948  to */\n      dup4\n        /* \"contracts/NFTContract/SQFItem.sol\":14950:14957  tokenId */\n      dup4\n        /* \"contracts/NFTContract/SQFItem.sol\":14920:14939  _afterTokenTransfer */\n      tag_227\n        /* \"contracts/NFTContract/SQFItem.sol\":14920:14958  _afterTokenTransfer(from, to, tokenId) */\n      jump\t// in\n    tag_226:\n        /* \"contracts/NFTContract/SQFItem.sol\":14326:14965  function _transfer(... */\n      pop\n      pop\n      pop\n      jump\t// out\n        /* \"contracts/NFTContract/SQFItem.sol\":6951:7138  function _transferOwnership(address newOwner) internal virtual {... */\n    tag_143:\n        /* \"contracts/NFTContract/SQFItem.sol\":7024:7040  address oldOwner */\n      0x00\n        /* \"contracts/NFTContract/SQFItem.sol\":7043:7049  _owner */\n      dup1\n      0x00\n      swap1\n      sload\n      swap1\n      0x0100\n      exp\n      swap1\n      div\n      0xffffffffffffffffffffffffffffffffffffffff\n      and\n        /* \"contracts/NFTContract/SQFItem.sol\":7024:7049  address oldOwner = _owner */\n      swap1\n      pop\n        /* \"contracts/NFTContract/SQFItem.sol\":7068:7076  newOwner */\n      dup2\n        /* \"contracts/NFTContract/SQFItem.sol\":7059:7065  _owner */\n      0x00\n      dup1\n        /* \"contracts/NFTContract/SQFItem.sol\":7059:7076  _owner = newOwner */\n      0x0100\n      exp\n      dup2\n      sload\n      dup2\n      0xffffffffffffffffffffffffffffffffffffffff\n      mul\n      not\n      and\n      swap1\n      dup4\n      0xffffffffffffffffffffffffffffffffffffffff\n      and\n      mul\n      or\n      swap1\n      sstore\n      pop\n        /* \"contracts/NFTContract/SQFItem.sol\":7122:7130  newOwner */\n      dup2\n        /* \"contracts/NFTContract/SQFItem.sol\":7091:7131  OwnershipTransferred(oldOwner, newOwner) */\n      0xffffffffffffffffffffffffffffffffffffffff\n      and\n        /* \"contracts/NFTContract/SQFItem.sol\":7112:7120  oldOwner */\n      dup2\n        /* \"contracts/NFTContract/SQFItem.sol\":7091:7131  OwnershipTransferred(oldOwner, newOwner) */\n      0xffffffffffffffffffffffffffffffffffffffff\n      and\n      0x8be0079c531659141344cd1fd0a4f28419497f9722a3daafe3b4186f6b6457e0\n      mload(0x40)\n      mload(0x40)\n      dup1\n      swap2\n      sub\n      swap1\n      log3\n        /* \"contracts/NFTContract/SQFItem.sol\":6951:7138  function _transferOwnership(address newOwner) internal virtual {... */\n      pop\n      pop\n      jump\t// out\n        /* \"contracts/NFTContract/SQFItem.sol\":12187:12528  function _safeTransfer(... */\n    tag_157:\n        /* \"contracts/NFTContract/SQFItem.sol\":12338:12366  _transfer(from, to, tokenId) */\n      tag_230\n        /* \"contracts/NFTContract/SQFItem.sol\":12348:12352  from */\n      dup5\n        /* \"contracts/NFTContract/SQFItem.sol\":12354:12356  to */\n      dup5\n        /* \"contracts/NFTContract/SQFItem.sol\":12358:12365  tokenId */\n      dup5\n        /* \"contracts/NFTContract/SQFItem.sol\":12338:12347  _transfer */\n      tag_116\n        /* \"contracts/NFTContract/SQFItem.sol\":12338:12366  _transfer(from, to, tokenId) */\n      jump\t// in\n    tag_230:\n        /* \"contracts/NFTContract/SQFItem.sol\":12397:12445  _checkOnERC721Received(from, to, tokenId, _data) */\n      tag_231\n        /* \"contracts/NFTContract/SQFItem.sol\":12420:12424  from */\n      dup5\n        /* \"contracts/NFTContract/SQFItem.sol\":12426:12428  to */\n      dup5\n        /* \"contracts/NFTContract/SQFItem.sol\":12430:12437  tokenId */\n      dup5\n        /* \"contracts/NFTContract/SQFItem.sol\":12439:12444  _data */\n      dup5\n        /* \"contracts/NFTContract/SQFItem.sol\":12397:12419  _checkOnERC721Received */\n      tag_232\n        /* \"contracts/NFTContract/SQFItem.sol\":12397:12445  _checkOnERC721Received(from, to, tokenId, _data) */\n      jump\t// in\n    tag_231:\n        /* \"contracts/NFTContract/SQFItem.sol\":12376:12521  require(... */\n      tag_233\n      jumpi\n      mload(0x40)\n      0x08c379a000000000000000000000000000000000000000000000000000000000\n      dup2\n      mstore\n      0x04\n      add\n      tag_234\n      swap1\n      tag_235\n      jump\t// in\n    tag_234:\n      mload(0x40)\n      dup1\n      swap2\n      sub\n      swap1\n      revert\n    tag_233:\n        /* \"contracts/NFTContract/SQFItem.sol\":12187:12528  function _safeTransfer(... */\n      pop\n      pop\n      pop\n      pop\n      jump\t// out\n        /* \"contracts/NFTContract/SQFItem.sol\":18642:18757  function _baseURI() internal view virtual override returns (string memory) {... */\n    tag_169:\n        /* \"contracts/NFTContract/SQFItem.sol\":18702:18715  string memory */\n      0x60\n        /* \"contracts/NFTContract/SQFItem.sol\":18734:18750  _baseURIextended */\n      0x0a\n        /* \"contracts/NFTContract/SQFItem.sol\":18727:18750  return _baseURIextended */\n      dup1\n      sload\n      tag_237\n      swap1\n      tag_85\n      jump\t// in\n    tag_237:\n      dup1\n      0x1f\n      add\n      0x20\n      dup1\n      swap2\n      div\n      mul\n      0x20\n      add\n      mload(0x40)\n      swap1\n      dup2\n      add\n      0x40\n      mstore\n      dup1\n      swap3\n      swap2\n      swap1\n      dup2\n      dup2\n      mstore\n      0x20\n      add\n      dup3\n      dup1\n      sload\n      tag_238\n      swap1\n      tag_85\n      jump\t// in\n    tag_238:\n      dup1\n      iszero\n      tag_239\n      jumpi\n      dup1\n      0x1f\n      lt\n      tag_240\n      jumpi\n      0x0100\n      dup1\n      dup4\n      sload\n      div\n      mul\n      dup4\n      mstore\n      swap2\n      0x20\n      add\n      swap2\n      jump(tag_239)\n    tag_240:\n      dup3\n      add\n      swap2\n      swap1\n      0x00\n      mstore\n      keccak256(0x00, 0x20)\n      swap1\n    tag_241:\n      dup2\n      sload\n      dup2\n      mstore\n      swap1\n      0x01\n      add\n      swap1\n      0x20\n      add\n      dup1\n      dup4\n      gt\n      tag_241\n      jumpi\n      dup3\n      swap1\n      sub\n      0x1f\n      and\n      dup3\n      add\n      swap2\n    tag_239:\n      pop\n      pop\n      pop\n      pop\n      pop\n      swap1\n      pop\n        /* \"contracts/NFTContract/SQFItem.sol\":18642:18757  function _baseURI() internal view virtual override returns (string memory) {... */\n      swap1\n      jump\t// out\n        /* \"contracts/NFTContract/SQFItem.sol\":4810:5325  function toString(uint256 value) internal pure returns (string memory) {... */\n    tag_175:\n        /* \"contracts/NFTContract/SQFItem.sol\":4866:4879  string memory */\n      0x60\n        /* \"contracts/NFTContract/SQFItem.sol\":4904:4905  0 */\n      0x00\n        /* \"contracts/NFTContract/SQFItem.sol\":4895:4900  value */\n      dup3\n        /* \"contracts/NFTContract/SQFItem.sol\":4895:4905  value == 0 */\n      eq\n        /* \"contracts/NFTContract/SQFItem.sol\":4891:4942  if (value == 0) {... */\n      iszero\n      tag_243\n      jumpi\n        /* \"contracts/NFTContract/SQFItem.sol\":4921:4931  return \"0\" */\n      mload(0x40)\n      dup1\n      0x40\n      add\n      0x40\n      mstore\n      dup1\n      0x01\n      dup2\n      mstore\n      0x20\n      add\n      0x3000000000000000000000000000000000000000000000000000000000000000\n      dup2\n      mstore\n      pop\n      swap1\n      pop\n      jump(tag_242)\n        /* \"contracts/NFTContract/SQFItem.sol\":4891:4942  if (value == 0) {... */\n    tag_243:\n        /* \"contracts/NFTContract/SQFItem.sol\":4951:4963  uint256 temp */\n      0x00\n        /* \"contracts/NFTContract/SQFItem.sol\":4966:4971  value */\n      dup3\n        /* \"contracts/NFTContract/SQFItem.sol\":4951:4971  uint256 temp = value */\n      swap1\n      pop\n        /* \"contracts/NFTContract/SQFItem.sol\":4981:4995  uint256 digits */\n      0x00\n        /* \"contracts/NFTContract/SQFItem.sol\":5005:5080  while (temp != 0) {... */\n    tag_244:\n        /* \"contracts/NFTContract/SQFItem.sol\":5020:5021  0 */\n      0x00\n        /* \"contracts/NFTContract/SQFItem.sol\":5012:5016  temp */\n      dup3\n        /* \"contracts/NFTContract/SQFItem.sol\":5012:5021  temp != 0 */\n      eq\n        /* \"contracts/NFTContract/SQFItem.sol\":5005:5080  while (temp != 0) {... */\n      tag_245\n      jumpi\n        /* \"contracts/NFTContract/SQFItem.sol\":5037:5045  digits++ */\n      dup1\n      dup1\n      tag_246\n      swap1\n      tag_188\n      jump\t// in\n    tag_246:\n      swap2\n      pop\n      pop\n        /* \"contracts/NFTContract/SQFItem.sol\":5067:5069  10 */\n      0x0a\n        /* \"contracts/NFTContract/SQFItem.sol\":5059:5069  temp /= 10 */\n      dup3\n      tag_247\n      swap2\n      swap1\n      tag_248\n      jump\t// in\n    tag_247:\n      swap2\n      pop\n        /* \"contracts/NFTContract/SQFItem.sol\":5005:5080  while (temp != 0) {... */\n      jump(tag_244)\n    tag_245:\n        /* \"contracts/NFTContract/SQFItem.sol\":5089:5108  bytes memory buffer */\n      0x00\n        /* \"contracts/NFTContract/SQFItem.sol\":5121:5127  digits */\n      dup2\n        /* \"contracts/NFTContract/SQFItem.sol\":5111:5128  new bytes(digits) */\n      0xffffffffffffffff\n      dup2\n      gt\n      iszero\n      tag_249\n      jumpi\n      mstore(0x00, 0x4e487b7100000000000000000000000000000000000000000000000000000000)\n      mstore(0x04, 0x41)\n      revert(0x00, 0x24)\n    tag_249:\n      mload(0x40)\n      swap1\n      dup1\n      dup3\n      mstore\n      dup1\n      0x1f\n      add\n      not(0x1f)\n      and\n      0x20\n      add\n      dup3\n      add\n      0x40\n      mstore\n      dup1\n      iszero\n      tag_250\n      jumpi\n      dup2\n      0x20\n      add\n      0x01\n      dup3\n      mul\n      dup1\n      calldatasize\n      dup4\n      calldatacopy\n      dup1\n      dup3\n      add\n      swap2\n      pop\n      pop\n      swap1\n      pop\n    tag_250:\n      pop\n        /* \"contracts/NFTContract/SQFItem.sol\":5089:5128  bytes memory buffer = new bytes(digits) */\n      swap1\n      pop\n        /* \"contracts/NFTContract/SQFItem.sol\":5138:5288  while (value != 0) {... */\n    tag_251:\n        /* \"contracts/NFTContract/SQFItem.sol\":5154:5155  0 */\n      0x00\n        /* \"contracts/NFTContract/SQFItem.sol\":5145:5150  value */\n      dup6\n        /* \"contracts/NFTContract/SQFItem.sol\":5145:5155  value != 0 */\n      eq\n        /* \"contracts/NFTContract/SQFItem.sol\":5138:5288  while (value != 0) {... */\n      tag_252\n      jumpi\n        /* \"contracts/NFTContract/SQFItem.sol\":5181:5182  1 */\n      0x01\n        /* \"contracts/NFTContract/SQFItem.sol\":5171:5182  digits -= 1 */\n      dup3\n      tag_253\n      swap2\n      swap1\n      tag_223\n      jump\t// in\n    tag_253:\n      swap2\n      pop\n        /* \"contracts/NFTContract/SQFItem.sol\":5247:5249  10 */\n      0x0a\n        /* \"contracts/NFTContract/SQFItem.sol\":5239:5244  value */\n      dup6\n        /* \"contracts/NFTContract/SQFItem.sol\":5239:5249  value % 10 */\n      tag_254\n      swap2\n      swap1\n      tag_255\n      jump\t// in\n    tag_254:\n        /* \"contracts/NFTContract/SQFItem.sol\":5226:5228  48 */\n      0x30\n        /* \"contracts/NFTContract/SQFItem.sol\":5226:5250  48 + uint256(value % 10) */\n      tag_256\n      swap2\n      swap1\n      tag_225\n      jump\t// in\n    tag_256:\n        /* \"contracts/NFTContract/SQFItem.sol\":5213:5252  bytes1(uint8(48 + uint256(value % 10))) */\n      0xf8\n      shl\n        /* \"contracts/NFTContract/SQFItem.sol\":5196:5202  buffer */\n      dup2\n        /* \"contracts/NFTContract/SQFItem.sol\":5203:5209  digits */\n      dup4\n        /* \"contracts/NFTContract/SQFItem.sol\":5196:5210  buffer[digits] */\n      dup2\n      mload\n      dup2\n      lt\n      tag_257\n      jumpi\n      mstore(0x00, 0x4e487b7100000000000000000000000000000000000000000000000000000000)\n      mstore(0x04, 0x32)\n      revert(0x00, 0x24)\n    tag_257:\n      0x20\n      add\n      add\n        /* \"contracts/NFTContract/SQFItem.sol\":5196:5252  buffer[digits] = bytes1(uint8(48 + uint256(value % 10))) */\n      swap1\n      not(0xffffffffffffffffffffffffffffffffffffffffffffffffffffffffffffff)\n      and\n      swap1\n      dup2\n      0x00\n      byte\n      swap1\n      mstore8\n      pop\n        /* \"contracts/NFTContract/SQFItem.sol\":5275:5277  10 */\n      0x0a\n        /* \"contracts/NFTContract/SQFItem.sol\":5266:5277  value /= 10 */\n      dup6\n      tag_258\n      swap2\n      swap1\n      tag_248\n      jump\t// in\n    tag_258:\n      swap5\n      pop\n        /* \"contracts/NFTContract/SQFItem.sol\":5138:5288  while (value != 0) {... */\n      jump(tag_251)\n    tag_252:\n        /* \"contracts/NFTContract/SQFItem.sol\":5311:5317  buffer */\n      dup1\n        /* \"contracts/NFTContract/SQFItem.sol\":5297:5318  return string(buffer) */\n      swap4\n      pop\n      pop\n      pop\n      pop\n        /* \"contracts/NFTContract/SQFItem.sol\":4810:5325  function toString(uint256 value) internal pure returns (string memory) {... */\n    tag_242:\n      swap2\n      swap1\n      pop\n      jump\t// out\n        /* \"contracts/NFTContract/SQFItem.sol\":13049:13157  function _safeMint(address to, uint256 tokenId) internal virtual {... */\n    tag_184:\n        /* \"contracts/NFTContract/SQFItem.sol\":13124:13150  _safeMint(to, tokenId, \"\") */\n      tag_260\n        /* \"contracts/NFTContract/SQFItem.sol\":13134:13136  to */\n      dup3\n        /* \"contracts/NFTContract/SQFItem.sol\":13138:13145  tokenId */\n      dup3\n        /* \"contracts/NFTContract/SQFItem.sol\":13124:13150  _safeMint(to, tokenId, \"\") */\n      mload(0x40)\n      dup1\n      0x20\n      add\n      0x40\n      mstore\n      dup1\n      0x00\n      dup2\n      mstore\n      pop\n        /* \"contracts/NFTContract/SQFItem.sol\":13124:13133  _safeMint */\n      tag_261\n        /* \"contracts/NFTContract/SQFItem.sol\":13124:13150  _safeMint(to, tokenId, \"\") */\n      jump\t// in\n    tag_260:\n        /* \"contracts/NFTContract/SQFItem.sol\":13049:13157  function _safeMint(address to, uint256 tokenId) internal virtual {... */\n      pop\n      pop\n      jump\t// out\n        /* \"contracts/NFTContract/SQFItem.sol\":18370:18636  function _setTokenURI(uint256 tokenId, string memory _tokenURI)... */\n    tag_186:\n        /* \"contracts/NFTContract/SQFItem.sol\":18502:18518  _exists(tokenId) */\n      tag_263\n        /* \"contracts/NFTContract/SQFItem.sol\":18510:18517  tokenId */\n      dup3\n        /* \"contracts/NFTContract/SQFItem.sol\":18502:18509  _exists */\n      tag_92\n        /* \"contracts/NFTContract/SQFItem.sol\":18502:18518  _exists(tokenId) */\n      jump\t// in\n    tag_263:\n        /* \"contracts/NFTContract/SQFItem.sol\":18481:18588  require(... */\n      tag_264\n      jumpi\n      mload(0x40)\n      0x08c379a000000000000000000000000000000000000000000000000000000000\n      dup2\n      mstore\n      0x04\n      add\n      tag_265\n      swap1\n      tag_266\n      jump\t// in\n    tag_265:\n      mload(0x40)\n      dup1\n      swap2\n      sub\n      swap1\n      revert\n    tag_264:\n        /* \"contracts/NFTContract/SQFItem.sol\":18620:18629  _tokenURI */\n      dup1\n        /* \"contracts/NFTContract/SQFItem.sol\":18598:18608  _tokenURIs */\n      0x0d\n        /* \"contracts/NFTContract/SQFItem.sol\":18598:18617  _tokenURIs[tokenId] */\n      0x00\n        /* \"contracts/NFTContract/SQFItem.sol\":18609:18616  tokenId */\n      dup5\n        /* \"contracts/NFTContract/SQFItem.sol\":18598:18617  _tokenURIs[tokenId] */\n      dup2\n      mstore\n      0x20\n      add\n      swap1\n      dup2\n      mstore\n      0x20\n      add\n      0x00\n      keccak256\n        /* \"contracts/NFTContract/SQFItem.sol\":18598:18629  _tokenURIs[tokenId] = _tokenURI */\n      swap1\n      dup1\n      mload\n      swap1\n      0x20\n      add\n      swap1\n      tag_267\n      swap3\n      swap2\n      swap1\n      tag_127\n      jump\t// in\n    tag_267:\n      pop\n        /* \"contracts/NFTContract/SQFItem.sol\":18370:18636  function _setTokenURI(uint256 tokenId, string memory _tokenURI)... */\n      pop\n      pop\n      jump\t// out\n        /* \"contracts/NFTContract/SQFItem.sol\":16417:16669  function _beforeTokenTransfer(... */\n    tag_220:\n      pop\n      pop\n      pop\n      jump\t// out\n        /* \"contracts/NFTContract/SQFItem.sol\":16675:16796  function _afterTokenTransfer(... */\n    tag_227:\n      pop\n      pop\n      pop\n      jump\t// out\n        /* \"contracts/NFTContract/SQFItem.sol\":15461:16411  function _checkOnERC721Received(... */\n    tag_232:\n        /* \"contracts/NFTContract/SQFItem.sol\":15611:15615  bool */\n      0x00\n        /* \"contracts/NFTContract/SQFItem.sol\":15631:15646  to.isContract() */\n      tag_271\n        /* \"contracts/NFTContract/SQFItem.sol\":15631:15633  to */\n      dup5\n        /* \"contracts/NFTContract/SQFItem.sol\":15631:15644  to.isContract */\n      0xffffffffffffffffffffffffffffffffffffffff\n      and\n      tag_272\n        /* \"contracts/NFTContract/SQFItem.sol\":15631:15646  to.isContract() */\n      jump\t// in\n    tag_271:\n        /* \"contracts/NFTContract/SQFItem.sol\":15627:16405  if (to.isContract()) {... */\n      iszero\n      tag_273\n      jumpi\n        /* \"contracts/NFTContract/SQFItem.sol\":15698:15700  to */\n      dup4\n        /* \"contracts/NFTContract/SQFItem.sol\":15682:15718  IERC721Receiver(to).onERC721Received */\n      0xffffffffffffffffffffffffffffffffffffffff\n      and\n      0x150b7a02\n        /* \"contracts/NFTContract/SQFItem.sol\":15740:15752  _msgSender() */\n      tag_274\n        /* \"contracts/NFTContract/SQFItem.sol\":15740:15750  _msgSender */\n      tag_102\n        /* \"contracts/NFTContract/SQFItem.sol\":15740:15752  _msgSender() */\n      jump\t// in\n    tag_274:\n        /* \"contracts/NFTContract/SQFItem.sol\":15774:15778  from */\n      dup8\n        /* \"contracts/NFTContract/SQFItem.sol\":15800:15807  tokenId */\n      dup7\n        /* \"contracts/NFTContract/SQFItem.sol\":15829:15834  _data */\n      dup7\n        /* \"contracts/NFTContract/SQFItem.sol\":15682:15852  IERC721Receiver(to).onERC721Received(... */\n      mload(0x40)\n      dup6\n      0xffffffff\n      and\n      0xe0\n      shl\n      dup2\n      mstore\n      0x04\n      add\n      tag_275\n      swap5\n      swap4\n      swap3\n      swap2\n      swap1\n      tag_276\n      jump\t// in\n    tag_275:\n      0x20\n      mload(0x40)\n      dup1\n      dup4\n      sub\n      dup2\n      0x00\n      dup8\n      dup1\n      extcodesize\n      iszero\n      dup1\n      iszero\n      tag_277\n      jumpi\n      0x00\n      dup1\n      revert\n    tag_277:\n      pop\n      gas\n      call\n      swap3\n      pop\n      pop\n      pop\n      dup1\n      iszero\n      tag_278\n      jumpi\n      pop\n      mload(0x40)\n      returndatasize\n      not(0x1f)\n      0x1f\n      dup3\n      add\n      and\n      dup3\n      add\n      dup1\n      0x40\n      mstore\n      pop\n      dup2\n      add\n      swap1\n      tag_279\n      swap2\n      swap1\n      tag_280\n      jump\t// in\n    tag_279:\n      0x01\n    tag_278:\n        /* \"contracts/NFTContract/SQFItem.sol\":15662:16353  try... */\n      tag_281\n      jumpi\n      returndatasize\n      dup1\n      0x00\n      dup2\n      eq\n      tag_285\n      jumpi\n      mload(0x40)\n      swap2\n      pop\n      and(add(returndatasize, 0x3f), not(0x1f))\n      dup3\n      add\n      0x40\n      mstore\n      returndatasize\n      dup3\n      mstore\n      returndatasize\n      0x00\n      0x20\n      dup5\n      add\n      returndatacopy\n      jump(tag_284)\n    tag_285:\n      0x60\n      swap2\n      pop\n    tag_284:\n      pop\n        /* \"contracts/NFTContract/SQFItem.sol\":16048:16049  0 */\n      0x00\n        /* \"contracts/NFTContract/SQFItem.sol\":16031:16037  reason */\n      dup2\n        /* \"contracts/NFTContract/SQFItem.sol\":16031:16044  reason.length */\n      mload\n        /* \"contracts/NFTContract/SQFItem.sol\":16031:16049  reason.length == 0 */\n      eq\n        /* \"contracts/NFTContract/SQFItem.sol\":16027:16339  if (reason.length == 0) {... */\n      iszero\n      tag_286\n      jumpi\n        /* \"contracts/NFTContract/SQFItem.sol\":16073:16179  revert(... */\n      mload(0x40)\n      0x08c379a000000000000000000000000000000000000000000000000000000000\n      dup2\n      mstore\n      0x04\n      add\n      tag_287\n      swap1\n      tag_235\n      jump\t// in\n    tag_287:\n      mload(0x40)\n      dup1\n      swap2\n      sub\n      swap1\n      revert\n        /* \"contracts/NFTContract/SQFItem.sol\":16027:16339  if (reason.length == 0) {... */\n    tag_286:\n        /* \"contracts/NFTContract/SQFItem.sol\":16291:16297  reason */\n      dup1\n        /* \"contracts/NFTContract/SQFItem.sol\":16285:16298  mload(reason) */\n      mload\n        /* \"contracts/NFTContract/SQFItem.sol\":16276:16282  reason */\n      dup2\n        /* \"contracts/NFTContract/SQFItem.sol\":16272:16274  32 */\n      0x20\n        /* \"contracts/NFTContract/SQFItem.sol\":16268:16283  add(32, reason) */\n      add\n        /* \"contracts/NFTContract/SQFItem.sol\":16261:16299  revert(add(32, reason), mload(reason)) */\n      revert\n        /* \"contracts/NFTContract/SQFItem.sol\":15662:16353  try... */\n    tag_281:\n        /* \"contracts/NFTContract/SQFItem.sol\":15924:15965  IERC721Receiver.onERC721Received.selector */\n      shl(0xe0, 0x150b7a02)\n        /* \"contracts/NFTContract/SQFItem.sol\":15914:15965  retval == IERC721Receiver.onERC721Received.selector */\n      not(0xffffffffffffffffffffffffffffffffffffffffffffffffffffffff)\n      and\n        /* \"contracts/NFTContract/SQFItem.sol\":15914:15920  retval */\n      dup2\n        /* \"contracts/NFTContract/SQFItem.sol\":15914:15965  retval == IERC721Receiver.onERC721Received.selector */\n      not(0xffffffffffffffffffffffffffffffffffffffffffffffffffffffff)\n      and\n      eq\n        /* \"contracts/NFTContract/SQFItem.sol\":15907:15965  return retval == IERC721Receiver.onERC721Received.selector */\n      swap2\n      pop\n      pop\n      jump(tag_270)\n        /* \"contracts/NFTContract/SQFItem.sol\":15627:16405  if (to.isContract()) {... */\n    tag_273:\n        /* \"contracts/NFTContract/SQFItem.sol\":16390:16394  true */\n      0x01\n        /* \"contracts/NFTContract/SQFItem.sol\":16383:16394  return true */\n      swap1\n      pop\n        /* \"contracts/NFTContract/SQFItem.sol\":15461:16411  function _checkOnERC721Received(... */\n    tag_270:\n      swap5\n      swap4\n      pop\n      pop\n      pop\n      pop\n      jump\t// out\n        /* \"contracts/NFTContract/SQFItem.sol\":13163:13474  function _safeMint(... */\n    tag_261:\n        /* \"contracts/NFTContract/SQFItem.sol\":13288:13306  _mint(to, tokenId) */\n      tag_292\n        /* \"contracts/NFTContract/SQFItem.sol\":13294:13296  to */\n      dup4\n        /* \"contracts/NFTContract/SQFItem.sol\":13298:13305  tokenId */\n      dup4\n        /* \"contracts/NFTContract/SQFItem.sol\":13288:13293  _mint */\n      tag_293\n        /* \"contracts/NFTContract/SQFItem.sol\":13288:13306  _mint(to, tokenId) */\n      jump\t// in\n    tag_292:\n        /* \"contracts/NFTContract/SQFItem.sol\":13337:13391  _checkOnERC721Received(address(0), to, tokenId, _data) */\n      tag_294\n        /* \"contracts/NFTContract/SQFItem.sol\":13368:13369  0 */\n      0x00\n        /* \"contracts/NFTContract/SQFItem.sol\":13372:13374  to */\n      dup5\n        /* \"contracts/NFTContract/SQFItem.sol\":13376:13383  tokenId */\n      dup5\n        /* \"contracts/NFTContract/SQFItem.sol\":13385:13390  _data */\n      dup5\n        /* \"contracts/NFTContract/SQFItem.sol\":13337:13359  _checkOnERC721Received */\n      tag_232\n        /* \"contracts/NFTContract/SQFItem.sol\":13337:13391  _checkOnERC721Received(address(0), to, tokenId, _data) */\n      jump\t// in\n    tag_294:\n        /* \"contracts/NFTContract/SQFItem.sol\":13316:13467  require(... */\n      tag_295\n      jumpi\n      mload(0x40)\n      0x08c379a000000000000000000000000000000000000000000000000000000000\n      dup2\n      mstore\n      0x04\n      add\n      tag_296\n      swap1\n      tag_235\n      jump\t// in\n    tag_296:\n      mload(0x40)\n      dup1\n      swap2\n      sub\n      swap1\n      revert\n    tag_295:\n        /* \"contracts/NFTContract/SQFItem.sol\":13163:13474  function _safeMint(... */\n      pop\n      pop\n      pop\n      jump\t// out\n        /* \"contracts/NFTContract/SQFItem.sol\":588:908  function isContract(address account) internal view returns (bool) {... */\n    tag_272:\n        /* \"contracts/NFTContract/SQFItem.sol\":648:652  bool */\n      0x00\n        /* \"contracts/NFTContract/SQFItem.sol\":900:901  0 */\n      dup1\n        /* \"contracts/NFTContract/SQFItem.sol\":878:885  account */\n      dup3\n        /* \"contracts/NFTContract/SQFItem.sol\":878:890  account.code */\n      0xffffffffffffffffffffffffffffffffffffffff\n      and\n      dup1\n      extcodesize\n      dup1\n      0x20\n      add\n      mload(0x40)\n      swap1\n      dup2\n      add\n      0x40\n      mstore\n      dup2\n      dup2\n      mstore\n      0x00\n      swap1\n      dup1\n      0x20\n      add\n      swap1\n      swap4\n      extcodecopy\n        /* \"contracts/NFTContract/SQFItem.sol\":878:897  account.code.length */\n      mload\n        /* \"contracts/NFTContract/SQFItem.sol\":878:901  account.code.length > 0 */\n      gt\n        /* \"contracts/NFTContract/SQFItem.sol\":871:901  return account.code.length > 0 */\n      swap1\n      pop\n        /* \"contracts/NFTContract/SQFItem.sol\":588:908  function isContract(address account) internal view returns (bool) {... */\n      swap2\n      swap1\n      pop\n      jump\t// out\n        /* \"contracts/NFTContract/SQFItem.sol\":13481:13908  function _mint(address to, uint256 tokenId) internal virtual {... */\n    tag_293:\n        /* \"contracts/NFTContract/SQFItem.sol\":13574:13575  0 */\n      0x00\n        /* \"contracts/NFTContract/SQFItem.sol\":13560:13576  to != address(0) */\n      0xffffffffffffffffffffffffffffffffffffffff\n      and\n        /* \"contracts/NFTContract/SQFItem.sol\":13560:13562  to */\n      dup3\n        /* \"contracts/NFTContract/SQFItem.sol\":13560:13576  to != address(0) */\n      0xffffffffffffffffffffffffffffffffffffffff\n      and\n      eq\n      iszero\n        /* \"contracts/NFTContract/SQFItem.sol\":13552:13613  require(to != address(0), \"ERC721: mint to the zero address\") */\n      tag_299\n      jumpi\n      mload(0x40)\n      0x08c379a000000000000000000000000000000000000000000000000000000000\n      dup2\n      mstore\n      0x04\n      add\n      tag_300\n      swap1\n      tag_301\n      jump\t// in\n    tag_300:\n      mload(0x40)\n      dup1\n      swap2\n      sub\n      swap1\n      revert\n    tag_299:\n        /* \"contracts/NFTContract/SQFItem.sol\":13632:13648  _exists(tokenId) */\n      tag_302\n        /* \"contracts/NFTContract/SQFItem.sol\":13640:13647  tokenId */\n      dup2\n        /* \"contracts/NFTContract/SQFItem.sol\":13632:13639  _exists */\n      tag_92\n        /* \"contracts/NFTContract/SQFItem.sol\":13632:13648  _exists(tokenId) */\n      jump\t// in\n    tag_302:\n        /* \"contracts/NFTContract/SQFItem.sol\":13631:13648  !_exists(tokenId) */\n      iszero\n        /* \"contracts/NFTContract/SQFItem.sol\":13623:13681  require(!_exists(tokenId), \"ERC721: token already minted\") */\n      tag_303\n      jumpi\n      mload(0x40)\n      0x08c379a000000000000000000000000000000000000000000000000000000000\n      dup2\n      mstore\n      0x04\n      add\n      tag_304\n      swap1\n      tag_305\n      jump\t// in\n    tag_304:\n      mload(0x40)\n      dup1\n      swap2\n      sub\n      swap1\n      revert\n    tag_303:\n        /* \"contracts/NFTContract/SQFItem.sol\":13692:13737  _beforeTokenTransfer(address(0), to, tokenId) */\n      tag_306\n        /* \"contracts/NFTContract/SQFItem.sol\":13721:13722  0 */\n      0x00\n        /* \"contracts/NFTContract/SQFItem.sol\":13725:13727  to */\n      dup4\n        /* \"contracts/NFTContract/SQFItem.sol\":13729:13736  tokenId */\n      dup4\n        /* \"contracts/NFTContract/SQFItem.sol\":13692:13712  _beforeTokenTransfer */\n      tag_220\n        /* \"contracts/NFTContract/SQFItem.sol\":13692:13737  _beforeTokenTransfer(address(0), to, tokenId) */\n      jump\t// in\n    tag_306:\n        /* \"contracts/NFTContract/SQFItem.sol\":13765:13766  1 */\n      0x01\n        /* \"contracts/NFTContract/SQFItem.sol\":13748:13757  _balances */\n      dup1\n        /* \"contracts/NFTContract/SQFItem.sol\":13748:13761  _balances[to] */\n      0x00\n        /* \"contracts/NFTContract/SQFItem.sol\":13758:13760  to */\n      dup5\n        /* \"contracts/NFTContract/SQFItem.sol\":13748:13761  _balances[to] */\n      0xffffffffffffffffffffffffffffffffffffffff\n      and\n      0xffffffffffffffffffffffffffffffffffffffff\n      and\n      dup2\n      mstore\n      0x20\n      add\n      swap1\n      dup2\n      mstore\n      0x20\n      add\n      0x00\n      keccak256\n      0x00\n        /* \"contracts/NFTContract/SQFItem.sol\":13748:13766  _balances[to] += 1 */\n      dup3\n      dup3\n      sload\n      tag_307\n      swap2\n      swap1\n      tag_225\n      jump\t// in\n    tag_307:\n      swap3\n      pop\n      pop\n      dup2\n      swap1\n      sstore\n      pop\n        /* \"contracts/NFTContract/SQFItem.sol\":13795:13797  to */\n      dup2\n        /* \"contracts/NFTContract/SQFItem.sol\":13776:13783  _owners */\n      0x02\n        /* \"contracts/NFTContract/SQFItem.sol\":13776:13792  _owners[tokenId] */\n      0x00\n        /* \"contracts/NFTContract/SQFItem.sol\":13784:13791  tokenId */\n      dup4\n        /* \"contracts/NFTContract/SQFItem.sol\":13776:13792  _owners[tokenId] */\n      dup2\n      mstore\n      0x20\n      add\n      swap1\n      dup2\n      mstore\n      0x20\n      add\n      0x00\n      keccak256\n      0x00\n        /* \"contracts/NFTContract/SQFItem.sol\":13776:13797  _owners[tokenId] = to */\n      0x0100\n      exp\n      dup2\n      sload\n      dup2\n      0xffffffffffffffffffffffffffffffffffffffff\n      mul\n      not\n      and\n      swap1\n      dup4\n      0xffffffffffffffffffffffffffffffffffffffff\n      and\n      mul\n      or\n      swap1\n      sstore\n      pop\n        /* \"contracts/NFTContract/SQFItem.sol\":13838:13845  tokenId */\n      dup1\n        /* \"contracts/NFTContract/SQFItem.sol\":13834:13836  to */\n      dup3\n        /* \"contracts/NFTContract/SQFItem.sol\":13813:13846  Transfer(address(0), to, tokenId) */\n      0xffffffffffffffffffffffffffffffffffffffff\n      and\n        /* \"contracts/NFTContract/SQFItem.sol\":13830:13831  0 */\n      0x00\n        /* \"contracts/NFTContract/SQFItem.sol\":13813:13846  Transfer(address(0), to, tokenId) */\n      0xffffffffffffffffffffffffffffffffffffffff\n      and\n      0xddf252ad1be2c89b69c2b068fc378daa952ba7f163c4a11628f55a4df523b3ef\n      mload(0x40)\n      mload(0x40)\n      dup1\n      swap2\n      sub\n      swap1\n      log4\n        /* \"contracts/NFTContract/SQFItem.sol\":13857:13901  _afterTokenTransfer(address(0), to, tokenId) */\n      tag_308\n        /* \"contracts/NFTContract/SQFItem.sol\":13885:13886  0 */\n      0x00\n        /* \"contracts/NFTContract/SQFItem.sol\":13889:13891  to */\n      dup4\n        /* \"contracts/NFTContract/SQFItem.sol\":13893:13900  tokenId */\n      dup4\n        /* \"contracts/NFTContract/SQFItem.sol\":13857:13876  _afterTokenTransfer */\n      tag_227\n        /* \"contracts/NFTContract/SQFItem.sol\":13857:13901  _afterTokenTransfer(address(0), to, tokenId) */\n      jump\t// in\n    tag_308:\n        /* \"contracts/NFTContract/SQFItem.sol\":13481:13908  function _mint(address to, uint256 tokenId) internal virtual {... */\n      pop\n      pop\n      jump\t// out\n    tag_127:\n      dup3\n      dup1\n      sload\n      tag_309\n      swap1\n      tag_85\n      jump\t// in\n    tag_309:\n      swap1\n      0x00\n      mstore\n      keccak256(0x00, 0x20)\n      swap1\n      0x1f\n      add\n      0x20\n      swap1\n      div\n      dup2\n      add\n      swap3\n      dup3\n      tag_311\n      jumpi\n      0x00\n      dup6\n      sstore\n      jump(tag_310)\n    tag_311:\n      dup3\n      0x1f\n      lt\n      tag_312\n      jumpi\n      dup1\n      mload\n      not(0xff)\n      and\n      dup4\n      dup1\n      add\n      or\n      dup6\n      sstore\n      jump(tag_310)\n    tag_312:\n      dup3\n      dup1\n      add\n      0x01\n      add\n      dup6\n      sstore\n      dup3\n      iszero\n      tag_310\n      jumpi\n      swap2\n      dup3\n      add\n    tag_313:\n      dup3\n      dup2\n      gt\n      iszero\n      tag_314\n      jumpi\n      dup3\n      mload\n      dup3\n      sstore\n      swap2\n      0x20\n      add\n      swap2\n      swap1\n      0x01\n      add\n      swap1\n      jump(tag_313)\n    tag_314:\n    tag_310:\n      pop\n      swap1\n      pop\n      tag_315\n      swap2\n      swap1\n      tag_316\n      jump\t// in\n    tag_315:\n      pop\n      swap1\n      jump\t// out\n    tag_316:\n    tag_317:\n      dup1\n      dup3\n      gt\n      iszero\n      tag_318\n      jumpi\n      0x00\n      dup2\n      0x00\n      swap1\n      sstore\n      pop\n      0x01\n      add\n      jump(tag_317)\n    tag_318:\n      pop\n      swap1\n      jump\t// out\n        /* \"#utility.yul\":7:349   */\n    tag_320:\n      0x00\n        /* \"#utility.yul\":109:173   */\n      tag_322\n        /* \"#utility.yul\":124:172   */\n      tag_323\n        /* \"#utility.yul\":165:171   */\n      dup5\n        /* \"#utility.yul\":124:172   */\n      tag_324\n      jump\t// in\n    tag_323:\n        /* \"#utility.yul\":109:173   */\n      tag_325\n      jump\t// in\n    tag_322:\n        /* \"#utility.yul\":100:173   */\n      swap1\n      pop\n        /* \"#utility.yul\":196:202   */\n      dup3\n        /* \"#utility.yul\":189:194   */\n      dup2\n        /* \"#utility.yul\":182:203   */\n      mstore\n        /* \"#utility.yul\":234:238   */\n      0x20\n        /* \"#utility.yul\":227:232   */\n      dup2\n        /* \"#utility.yul\":223:239   */\n      add\n        /* \"#utility.yul\":272:275   */\n      dup5\n        /* \"#utility.yul\":263:269   */\n      dup5\n        /* \"#utility.yul\":258:261   */\n      dup5\n        /* \"#utility.yul\":254:270   */\n      add\n        /* \"#utility.yul\":251:276   */\n      gt\n        /* \"#utility.yul\":248:250   */\n      iszero\n      tag_326\n      jumpi\n        /* \"#utility.yul\":289:290   */\n      0x00\n        /* \"#utility.yul\":286:287   */\n      dup1\n        /* \"#utility.yul\":279:291   */\n      revert\n        /* \"#utility.yul\":248:250   */\n    tag_326:\n        /* \"#utility.yul\":302:343   */\n      tag_327\n        /* \"#utility.yul\":336:342   */\n      dup5\n        /* \"#utility.yul\":331:334   */\n      dup3\n        /* \"#utility.yul\":326:329   */\n      dup6\n        /* \"#utility.yul\":302:343   */\n      tag_328\n      jump\t// in\n    tag_327:\n        /* \"#utility.yul\":90:349   */\n      pop\n      swap4\n      swap3\n      pop\n      pop\n      pop\n      jump\t// out\n        /* \"#utility.yul\":355:699   */\n    tag_329:\n      0x00\n        /* \"#utility.yul\":458:523   */\n      tag_331\n        /* \"#utility.yul\":473:522   */\n      tag_332\n        /* \"#utility.yul\":515:521   */\n      dup5\n        /* \"#utility.yul\":473:522   */\n      tag_333\n      jump\t// in\n    tag_332:\n        /* \"#utility.yul\":458:523   */\n      tag_325\n      jump\t// in\n    tag_331:\n        /* \"#utility.yul\":449:523   */\n      swap1\n      pop\n        /* \"#utility.yul\":546:552   */\n      dup3\n        /* \"#utility.yul\":539:544   */\n      dup2\n        /* \"#utility.yul\":532:553   */\n      mstore\n        /* \"#utility.yul\":584:588   */\n      0x20\n        /* \"#utility.yul\":577:582   */\n      dup2\n        /* \"#utility.yul\":573:589   */\n      add\n        /* \"#utility.yul\":622:625   */\n      dup5\n        /* \"#utility.yul\":613:619   */\n      dup5\n        /* \"#utility.yul\":608:611   */\n      dup5\n        /* \"#utility.yul\":604:620   */\n      add\n        /* \"#utility.yul\":601:626   */\n      gt\n        /* \"#utility.yul\":598:600   */\n      iszero\n      tag_334\n      jumpi\n        /* \"#utility.yul\":639:640   */\n      0x00\n        /* \"#utility.yul\":636:637   */\n      dup1\n        /* \"#utility.yul\":629:641   */\n      revert\n        /* \"#utility.yul\":598:600   */\n    tag_334:\n        /* \"#utility.yul\":652:693   */\n      tag_335\n        /* \"#utility.yul\":686:692   */\n      dup5\n        /* \"#utility.yul\":681:684   */\n      dup3\n        /* \"#utility.yul\":676:679   */\n      dup6\n        /* \"#utility.yul\":652:693   */\n      tag_328\n      jump\t// in\n    tag_335:\n        /* \"#utility.yul\":439:699   */\n      pop\n      swap4\n      swap3\n      pop\n      pop\n      pop\n      jump\t// out\n        /* \"#utility.yul\":705:844   */\n    tag_336:\n      0x00\n        /* \"#utility.yul\":789:795   */\n      dup2\n        /* \"#utility.yul\":776:796   */\n      calldataload\n        /* \"#utility.yul\":767:796   */\n      swap1\n      pop\n        /* \"#utility.yul\":805:838   */\n      tag_338\n        /* \"#utility.yul\":832:837   */\n      dup2\n        /* \"#utility.yul\":805:838   */\n      tag_339\n      jump\t// in\n    tag_338:\n        /* \"#utility.yul\":757:844   */\n      swap3\n      swap2\n      pop\n      pop\n      jump\t// out\n        /* \"#utility.yul\":850:991   */\n    tag_340:\n      0x00\n        /* \"#utility.yul\":937:943   */\n      dup2\n        /* \"#utility.yul\":931:944   */\n      mload\n        /* \"#utility.yul\":922:944   */\n      swap1\n      pop\n        /* \"#utility.yul\":953:985   */\n      tag_342\n        /* \"#utility.yul\":979:984   */\n      dup2\n        /* \"#utility.yul\":953:985   */\n      tag_343\n      jump\t// in\n    tag_342:\n        /* \"#utility.yul\":912:991   */\n      swap3\n      swap2\n      pop\n      pop\n      jump\t// out\n        /* \"#utility.yul\":1010:1281   */\n    tag_344:\n      0x00\n        /* \"#utility.yul\":1114:1117   */\n      dup3\n        /* \"#utility.yul\":1107:1111   */\n      0x1f\n        /* \"#utility.yul\":1099:1105   */\n      dup4\n        /* \"#utility.yul\":1095:1112   */\n      add\n        /* \"#utility.yul\":1091:1118   */\n      slt\n        /* \"#utility.yul\":1081:1083   */\n      tag_346\n      jumpi\n        /* \"#utility.yul\":1132:1133   */\n      0x00\n        /* \"#utility.yul\":1129:1130   */\n      dup1\n        /* \"#utility.yul\":1122:1134   */\n      revert\n        /* \"#utility.yul\":1081:1083   */\n    tag_346:\n        /* \"#utility.yul\":1172:1178   */\n      dup2\n        /* \"#utility.yul\":1159:1179   */\n      calldataload\n        /* \"#utility.yul\":1197:1275   */\n      tag_347\n        /* \"#utility.yul\":1271:1274   */\n      dup5\n        /* \"#utility.yul\":1263:1269   */\n      dup3\n        /* \"#utility.yul\":1256:1260   */\n      0x20\n        /* \"#utility.yul\":1248:1254   */\n      dup7\n        /* \"#utility.yul\":1244:1261   */\n      add\n        /* \"#utility.yul\":1197:1275   */\n      tag_320\n      jump\t// in\n    tag_347:\n        /* \"#utility.yul\":1188:1275   */\n      swap2\n      pop\n        /* \"#utility.yul\":1071:1281   */\n      pop\n      swap3\n      swap2\n      pop\n      pop\n      jump\t// out\n        /* \"#utility.yul\":1301:1574   */\n    tag_348:\n      0x00\n        /* \"#utility.yul\":1406:1409   */\n      dup3\n        /* \"#utility.yul\":1399:1403   */\n      0x1f\n        /* \"#utility.yul\":1391:1397   */\n      dup4\n        /* \"#utility.yul\":1387:1404   */\n      add\n        /* \"#utility.yul\":1383:1410   */\n      slt\n        /* \"#utility.yul\":1373:1375   */\n      tag_350\n      jumpi\n        /* \"#utility.yul\":1424:1425   */\n      0x00\n        /* \"#utility.yul\":1421:1422   */\n      dup1\n        /* \"#utility.yul\":1414:1426   */\n      revert\n        /* \"#utility.yul\":1373:1375   */\n    tag_350:\n        /* \"#utility.yul\":1464:1470   */\n      dup2\n        /* \"#utility.yul\":1451:1471   */\n      calldataload\n        /* \"#utility.yul\":1489:1568   */\n      tag_351\n        /* \"#utility.yul\":1564:1567   */\n      dup5\n        /* \"#utility.yul\":1556:1562   */\n      dup3\n        /* \"#utility.yul\":1549:1553   */\n      0x20\n        /* \"#utility.yul\":1541:1547   */\n      dup7\n        /* \"#utility.yul\":1537:1554   */\n      add\n        /* \"#utility.yul\":1489:1568   */\n      tag_329\n      jump\t// in\n    tag_351:\n        /* \"#utility.yul\":1480:1568   */\n      swap2\n      pop\n        /* \"#utility.yul\":1363:1574   */\n      pop\n      swap3\n      swap2\n      pop\n      pop\n      jump\t// out\n        /* \"#utility.yul\":1580:1719   */\n    tag_352:\n      0x00\n        /* \"#utility.yul\":1664:1670   */\n      dup2\n        /* \"#utility.yul\":1651:1671   */\n      calldataload\n        /* \"#utility.yul\":1642:1671   */\n      swap1\n      pop\n        /* \"#utility.yul\":1680:1713   */\n      tag_354\n        /* \"#utility.yul\":1707:1712   */\n      dup2\n        /* \"#utility.yul\":1680:1713   */\n      tag_355\n      jump\t// in\n    tag_354:\n        /* \"#utility.yul\":1632:1719   */\n      swap3\n      swap2\n      pop\n      pop\n      jump\t// out\n        /* \"#utility.yul\":1725:1987   */\n    tag_57:\n      0x00\n        /* \"#utility.yul\":1833:1835   */\n      0x20\n        /* \"#utility.yul\":1821:1830   */\n      dup3\n        /* \"#utility.yul\":1812:1819   */\n      dup5\n        /* \"#utility.yul\":1808:1831   */\n      sub\n        /* \"#utility.yul\":1804:1836   */\n      slt\n        /* \"#utility.yul\":1801:1803   */\n      iszero\n      tag_357\n      jumpi\n        /* \"#utility.yul\":1849:1850   */\n      0x00\n        /* \"#utility.yul\":1846:1847   */\n      dup1\n        /* \"#utility.yul\":1839:1851   */\n      revert\n        /* \"#utility.yul\":1801:1803   */\n    tag_357:\n        /* \"#utility.yul\":1892:1893   */\n      0x00\n        /* \"#utility.yul\":1917:1970   */\n      tag_358\n        /* \"#utility.yul\":1962:1969   */\n      dup5\n        /* \"#utility.yul\":1953:1959   */\n      dup3\n        /* \"#utility.yul\":1942:1951   */\n      dup6\n        /* \"#utility.yul\":1938:1960   */\n      add\n        /* \"#utility.yul\":1917:1970   */\n      tag_336\n      jump\t// in\n    tag_358:\n        /* \"#utility.yul\":1907:1970   */\n      swap2\n      pop\n        /* \"#utility.yul\":1863:1980   */\n      pop\n        /* \"#utility.yul\":1791:1987   */\n      swap3\n      swap2\n      pop\n      pop\n      jump\t// out\n        /* \"#utility.yul\":1993:2545   */\n    tag_38:\n      0x00\n      dup1\n      0x00\n        /* \"#utility.yul\":2135:2137   */\n      0x60\n        /* \"#utility.yul\":2123:2132   */\n      dup5\n        /* \"#utility.yul\":2114:2121   */\n      dup7\n        /* \"#utility.yul\":2110:2133   */\n      sub\n        /* \"#utility.yul\":2106:2138   */\n      slt\n        /* \"#utility.yul\":2103:2105   */\n      iszero\n      tag_360\n      jumpi\n        /* \"#utility.yul\":2151:2152   */\n      0x00\n        /* \"#utility.yul\":2148:2149   */\n      dup1\n        /* \"#utility.yul\":2141:2153   */\n      revert\n        /* \"#utility.yul\":2103:2105   */\n    tag_360:\n        /* \"#utility.yul\":2194:2195   */\n      0x00\n        /* \"#utility.yul\":2219:2272   */\n      tag_361\n        /* \"#utility.yul\":2264:2271   */\n      dup7\n        /* \"#utility.yul\":2255:2261   */\n      dup3\n        /* \"#utility.yul\":2244:2253   */\n      dup8\n        /* \"#utility.yul\":2240:2262   */\n      add\n        /* \"#utility.yul\":2219:2272   */\n      tag_336\n      jump\t// in\n    tag_361:\n        /* \"#utility.yul\":2209:2272   */\n      swap4\n      pop\n        /* \"#utility.yul\":2165:2282   */\n      pop\n        /* \"#utility.yul\":2321:2323   */\n      0x20\n        /* \"#utility.yul\":2347:2400   */\n      tag_362\n        /* \"#utility.yul\":2392:2399   */\n      dup7\n        /* \"#utility.yul\":2383:2389   */\n      dup3\n        /* \"#utility.yul\":2372:2381   */\n      dup8\n        /* \"#utility.yul\":2368:2390   */\n      add\n        /* \"#utility.yul\":2347:2400   */\n      tag_336\n      jump\t// in\n    tag_362:\n        /* \"#utility.yul\":2337:2400   */\n      swap3\n      pop\n        /* \"#utility.yul\":2292:2410   */\n      pop\n        /* \"#utility.yul\":2449:2451   */\n      0x40\n        /* \"#utility.yul\":2475:2528   */\n      tag_363\n        /* \"#utility.yul\":2520:2527   */\n      dup7\n        /* \"#utility.yul\":2511:2517   */\n      dup3\n        /* \"#utility.yul\":2500:2509   */\n      dup8\n        /* \"#utility.yul\":2496:2518   */\n      add\n        /* \"#utility.yul\":2475:2528   */\n      tag_352\n      jump\t// in\n    tag_363:\n        /* \"#utility.yul\":2465:2528   */\n      swap2\n      pop\n        /* \"#utility.yul\":2420:2538   */\n      pop\n        /* \"#utility.yul\":2093:2545   */\n      swap3\n      pop\n      swap3\n      pop\n      swap3\n      jump\t// out\n        /* \"#utility.yul\":2551:3360   */\n    tag_70:\n      0x00\n      dup1\n      0x00\n      dup1\n        /* \"#utility.yul\":2719:2722   */\n      0x80\n        /* \"#utility.yul\":2707:2716   */\n      dup6\n        /* \"#utility.yul\":2698:2705   */\n      dup8\n        /* \"#utility.yul\":2694:2717   */\n      sub\n        /* \"#utility.yul\":2690:2723   */\n      slt\n        /* \"#utility.yul\":2687:2689   */\n      iszero\n      tag_365\n      jumpi\n        /* \"#utility.yul\":2736:2737   */\n      0x00\n        /* \"#utility.yul\":2733:2734   */\n      dup1\n        /* \"#utility.yul\":2726:2738   */\n      revert\n        /* \"#utility.yul\":2687:2689   */\n    tag_365:\n        /* \"#utility.yul\":2779:2780   */\n      0x00\n        /* \"#utility.yul\":2804:2857   */\n      tag_366\n        /* \"#utility.yul\":2849:2856   */\n      dup8\n        /* \"#utility.yul\":2840:2846   */\n      dup3\n        /* \"#utility.yul\":2829:2838   */\n      dup9\n        /* \"#utility.yul\":2825:2847   */\n      add\n        /* \"#utility.yul\":2804:2857   */\n      tag_336\n      jump\t// in\n    tag_366:\n        /* \"#utility.yul\":2794:2857   */\n      swap5\n      pop\n        /* \"#utility.yul\":2750:2867   */\n      pop\n        /* \"#utility.yul\":2906:2908   */\n      0x20\n        /* \"#utility.yul\":2932:2985   */\n      tag_367\n        /* \"#utility.yul\":2977:2984   */\n      dup8\n        /* \"#utility.yul\":2968:2974   */\n      dup3\n        /* \"#utility.yul\":2957:2966   */\n      dup9\n        /* \"#utility.yul\":2953:2975   */\n      add\n        /* \"#utility.yul\":2932:2985   */\n      tag_336\n      jump\t// in\n    tag_367:\n        /* \"#utility.yul\":2922:2985   */\n      swap4\n      pop\n        /* \"#utility.yul\":2877:2995   */\n      pop\n        /* \"#utility.yul\":3034:3036   */\n      0x40\n        /* \"#utility.yul\":3060:3113   */\n      tag_368\n        /* \"#utility.yul\":3105:3112   */\n      dup8\n        /* \"#utility.yul\":3096:3102   */\n      dup3\n        /* \"#utility.yul\":3085:3094   */\n      dup9\n        /* \"#utility.yul\":3081:3103   */\n      add\n        /* \"#utility.yul\":3060:3113   */\n      tag_352\n      jump\t// in\n    tag_368:\n        /* \"#utility.yul\":3050:3113   */\n      swap3\n      pop\n        /* \"#utility.yul\":3005:3123   */\n      pop\n        /* \"#utility.yul\":3190:3192   */\n      0x60\n        /* \"#utility.yul\":3179:3188   */\n      dup6\n        /* \"#utility.yul\":3175:3193   */\n      add\n        /* \"#utility.yul\":3162:3194   */\n      calldataload\n        /* \"#utility.yul\":3221:3239   */\n      0xffffffffffffffff\n        /* \"#utility.yul\":3213:3219   */\n      dup2\n        /* \"#utility.yul\":3210:3240   */\n      gt\n        /* \"#utility.yul\":3207:3209   */\n      iszero\n      tag_369\n      jumpi\n        /* \"#utility.yul\":3253:3254   */\n      0x00\n        /* \"#utility.yul\":3250:3251   */\n      dup1\n        /* \"#utility.yul\":3243:3255   */\n      revert\n        /* \"#utility.yul\":3207:3209   */\n    tag_369:\n        /* \"#utility.yul\":3281:3343   */\n      tag_370\n        /* \"#utility.yul\":3335:3342   */\n      dup8\n        /* \"#utility.yul\":3326:3332   */\n      dup3\n        /* \"#utility.yul\":3315:3324   */\n      dup9\n        /* \"#utility.yul\":3311:3333   */\n      add\n        /* \"#utility.yul\":3281:3343   */\n      tag_344\n      jump\t// in\n    tag_370:\n        /* \"#utility.yul\":3271:3343   */\n      swap2\n      pop\n        /* \"#utility.yul\":3133:3353   */\n      pop\n        /* \"#utility.yul\":2677:3360   */\n      swap3\n      swap6\n      swap2\n      swap5\n      pop\n      swap3\n      pop\n      jump\t// out\n        /* \"#utility.yul\":3366:3886   */\n    tag_78:\n      0x00\n      dup1\n        /* \"#utility.yul\":3501:3503   */\n      0x40\n        /* \"#utility.yul\":3489:3498   */\n      dup4\n        /* \"#utility.yul\":3480:3487   */\n      dup6\n        /* \"#utility.yul\":3476:3499   */\n      sub\n        /* \"#utility.yul\":3472:3504   */\n      slt\n        /* \"#utility.yul\":3469:3471   */\n      iszero\n      tag_372\n      jumpi\n        /* \"#utility.yul\":3517:3518   */\n      0x00\n        /* \"#utility.yul\":3514:3515   */\n      dup1\n        /* \"#utility.yul\":3507:3519   */\n      revert\n        /* \"#utility.yul\":3469:3471   */\n    tag_372:\n        /* \"#utility.yul\":3560:3561   */\n      0x00\n        /* \"#utility.yul\":3585:3638   */\n      tag_373\n        /* \"#utility.yul\":3630:3637   */\n      dup6\n        /* \"#utility.yul\":3621:3627   */\n      dup3\n        /* \"#utility.yul\":3610:3619   */\n      dup7\n        /* \"#utility.yul\":3606:3628   */\n      add\n        /* \"#utility.yul\":3585:3638   */\n      tag_336\n      jump\t// in\n    tag_373:\n        /* \"#utility.yul\":3575:3638   */\n      swap3\n      pop\n        /* \"#utility.yul\":3531:3648   */\n      pop\n        /* \"#utility.yul\":3715:3717   */\n      0x20\n        /* \"#utility.yul\":3704:3713   */\n      dup4\n        /* \"#utility.yul\":3700:3718   */\n      add\n        /* \"#utility.yul\":3687:3719   */\n      calldataload\n        /* \"#utility.yul\":3746:3764   */\n      0xffffffffffffffff\n        /* \"#utility.yul\":3738:3744   */\n      dup2\n        /* \"#utility.yul\":3735:3765   */\n      gt\n        /* \"#utility.yul\":3732:3734   */\n      iszero\n      tag_374\n      jumpi\n        /* \"#utility.yul\":3778:3779   */\n      0x00\n        /* \"#utility.yul\":3775:3776   */\n      dup1\n        /* \"#utility.yul\":3768:3780   */\n      revert\n        /* \"#utility.yul\":3732:3734   */\n    tag_374:\n        /* \"#utility.yul\":3806:3869   */\n      tag_375\n        /* \"#utility.yul\":3861:3868   */\n      dup6\n        /* \"#utility.yul\":3852:3858   */\n      dup3\n        /* \"#utility.yul\":3841:3850   */\n      dup7\n        /* \"#utility.yul\":3837:3859   */\n      add\n        /* \"#utility.yul\":3806:3869   */\n      tag_348\n      jump\t// in\n    tag_375:\n        /* \"#utility.yul\":3796:3869   */\n      swap2\n      pop\n        /* \"#utility.yul\":3658:3879   */\n      pop\n        /* \"#utility.yul\":3459:3886   */\n      swap3\n      pop\n      swap3\n      swap1\n      pop\n      jump\t// out\n        /* \"#utility.yul\":3892:4299   */\n    tag_34:\n      0x00\n      dup1\n        /* \"#utility.yul\":4017:4019   */\n      0x40\n        /* \"#utility.yul\":4005:4014   */\n      dup4\n        /* \"#utility.yul\":3996:4003   */\n      dup6\n        /* \"#utility.yul\":3992:4015   */\n      sub\n        /* \"#utility.yul\":3988:4020   */\n      slt\n        /* \"#utility.yul\":3985:3987   */\n      iszero\n      tag_377\n      jumpi\n        /* \"#utility.yul\":4033:4034   */\n      0x00\n        /* \"#utility.yul\":4030:4031   */\n      dup1\n        /* \"#utility.yul\":4023:4035   */\n      revert\n        /* \"#utility.yul\":3985:3987   */\n    tag_377:\n        /* \"#utility.yul\":4076:4077   */\n      0x00\n        /* \"#utility.yul\":4101:4154   */\n      tag_378\n        /* \"#utility.yul\":4146:4153   */\n      dup6\n        /* \"#utility.yul\":4137:4143   */\n      dup3\n        /* \"#utility.yul\":4126:4135   */\n      dup7\n        /* \"#utility.yul\":4122:4144   */\n      add\n        /* \"#utility.yul\":4101:4154   */\n      tag_336\n      jump\t// in\n    tag_378:\n        /* \"#utility.yul\":4091:4154   */\n      swap3\n      pop\n        /* \"#utility.yul\":4047:4164   */\n      pop\n        /* \"#utility.yul\":4203:4205   */\n      0x20\n        /* \"#utility.yul\":4229:4282   */\n      tag_379\n        /* \"#utility.yul\":4274:4281   */\n      dup6\n        /* \"#utility.yul\":4265:4271   */\n      dup3\n        /* \"#utility.yul\":4254:4263   */\n      dup7\n        /* \"#utility.yul\":4250:4272   */\n      add\n        /* \"#utility.yul\":4229:4282   */\n      tag_352\n      jump\t// in\n    tag_379:\n        /* \"#utility.yul\":4219:4282   */\n      swap2\n      pop\n        /* \"#utility.yul\":4174:4292   */\n      pop\n        /* \"#utility.yul\":3975:4299   */\n      swap3\n      pop\n      swap3\n      swap1\n      pop\n      jump\t// out\n        /* \"#utility.yul\":4305:4587   */\n    tag_280:\n      0x00\n        /* \"#utility.yul\":4423:4425   */\n      0x20\n        /* \"#utility.yul\":4411:4420   */\n      dup3\n        /* \"#utility.yul\":4402:4409   */\n      dup5\n        /* \"#utility.yul\":4398:4421   */\n      sub\n        /* \"#utility.yul\":4394:4426   */\n      slt\n        /* \"#utility.yul\":4391:4393   */\n      iszero\n      tag_381\n      jumpi\n        /* \"#utility.yul\":4439:4440   */\n      0x00\n        /* \"#utility.yul\":4436:4437   */\n      dup1\n        /* \"#utility.yul\":4429:4441   */\n      revert\n        /* \"#utility.yul\":4391:4393   */\n    tag_381:\n        /* \"#utility.yul\":4482:4483   */\n      0x00\n        /* \"#utility.yul\":4507:4570   */\n      tag_382\n        /* \"#utility.yul\":4562:4569   */\n      dup5\n        /* \"#utility.yul\":4553:4559   */\n      dup3\n        /* \"#utility.yul\":4542:4551   */\n      dup6\n        /* \"#utility.yul\":4538:4560   */\n      add\n        /* \"#utility.yul\":4507:4570   */\n      tag_340\n      jump\t// in\n    tag_382:\n        /* \"#utility.yul\":4497:4570   */\n      swap2\n      pop\n        /* \"#utility.yul\":4453:4580   */\n      pop\n        /* \"#utility.yul\":4381:4587   */\n      swap3\n      swap2\n      pop\n      pop\n      jump\t// out\n        /* \"#utility.yul\":4593:4968   */\n    tag_45:\n      0x00\n        /* \"#utility.yul\":4711:4713   */\n      0x20\n        /* \"#utility.yul\":4699:4708   */\n      dup3\n        /* \"#utility.yul\":4690:4697   */\n      dup5\n        /* \"#utility.yul\":4686:4709   */\n      sub\n        /* \"#utility.yul\":4682:4714   */\n      slt\n        /* \"#utility.yul\":4679:4681   */\n      iszero\n      tag_384\n      jumpi\n        /* \"#utility.yul\":4727:4728   */\n      0x00\n        /* \"#utility.yul\":4724:4725   */\n      dup1\n        /* \"#utility.yul\":4717:4729   */\n      revert\n        /* \"#utility.yul\":4679:4681   */\n    tag_384:\n        /* \"#utility.yul\":4798:4799   */\n      0x00\n        /* \"#utility.yul\":4787:4796   */\n      dup3\n        /* \"#utility.yul\":4783:4800   */\n      add\n        /* \"#utility.yul\":4770:4801   */\n      calldataload\n        /* \"#utility.yul\":4828:4846   */\n      0xffffffffffffffff\n        /* \"#utility.yul\":4820:4826   */\n      dup2\n        /* \"#utility.yul\":4817:4847   */\n      gt\n        /* \"#utility.yul\":4814:4816   */\n      iszero\n      tag_385\n      jumpi\n        /* \"#utility.yul\":4860:4861   */\n      0x00\n        /* \"#utility.yul\":4857:4858   */\n      dup1\n        /* \"#utility.yul\":4850:4862   */\n      revert\n        /* \"#utility.yul\":4814:4816   */\n    tag_385:\n        /* \"#utility.yul\":4888:4951   */\n      tag_386\n        /* \"#utility.yul\":4943:4950   */\n      dup5\n        /* \"#utility.yul\":4934:4940   */\n      dup3\n        /* \"#utility.yul\":4923:4932   */\n      dup6\n        /* \"#utility.yul\":4919:4941   */\n      add\n        /* \"#utility.yul\":4888:4951   */\n      tag_348\n      jump\t// in\n    tag_386:\n        /* \"#utility.yul\":4878:4951   */\n      swap2\n      pop\n        /* \"#utility.yul\":4741:4961   */\n      pop\n        /* \"#utility.yul\":4669:4968   */\n      swap3\n      swap2\n      pop\n      pop\n      jump\t// out\n        /* \"#utility.yul\":4974:5236   */\n    tag_28:\n      0x00\n        /* \"#utility.yul\":5082:5084   */\n      0x20\n        /* \"#utility.yul\":5070:5079   */\n      dup3\n        /* \"#utility.yul\":5061:5068   */\n      dup5\n        /* \"#utility.yul\":5057:5080   */\n      sub\n        /* \"#utility.yul\":5053:5085   */\n      slt\n        /* \"#utility.yul\":5050:5052   */\n      iszero\n      tag_388\n      jumpi\n        /* \"#utility.yul\":5098:5099   */\n      0x00\n        /* \"#utility.yul\":5095:5096   */\n      dup1\n        /* \"#utility.yul\":5088:5100   */\n      revert\n        /* \"#utility.yul\":5050:5052   */\n    tag_388:\n        /* \"#utility.yul\":5141:5142   */\n      0x00\n        /* \"#utility.yul\":5166:5219   */\n      tag_389\n        /* \"#utility.yul\":5211:5218   */\n      dup5\n        /* \"#utility.yul\":5202:5208   */\n      dup3\n        /* \"#utility.yul\":5191:5200   */\n      dup6\n        /* \"#utility.yul\":5187:5209   */\n      add\n        /* \"#utility.yul\":5166:5219   */\n      tag_352\n      jump\t// in\n    tag_389:\n        /* \"#utility.yul\":5156:5219   */\n      swap2\n      pop\n        /* \"#utility.yul\":5112:5229   */\n      pop\n        /* \"#utility.yul\":5040:5236   */\n      swap3\n      swap2\n      pop\n      pop\n      jump\t// out\n        /* \"#utility.yul\":5242:5360   */\n    tag_390:\n        /* \"#utility.yul\":5329:5353   */\n      tag_392\n        /* \"#utility.yul\":5347:5352   */\n      dup2\n        /* \"#utility.yul\":5329:5353   */\n      tag_393\n      jump\t// in\n    tag_392:\n        /* \"#utility.yul\":5324:5327   */\n      dup3\n        /* \"#utility.yul\":5317:5354   */\n      mstore\n        /* \"#utility.yul\":5307:5360   */\n      pop\n      pop\n      jump\t// out\n        /* \"#utility.yul\":5366:5726   */\n    tag_394:\n      0x00\n        /* \"#utility.yul\":5480:5518   */\n      tag_396\n        /* \"#utility.yul\":5512:5517   */\n      dup3\n        /* \"#utility.yul\":5480:5518   */\n      tag_397\n      jump\t// in\n    tag_396:\n        /* \"#utility.yul\":5534:5604   */\n      tag_398\n        /* \"#utility.yul\":5597:5603   */\n      dup2\n        /* \"#utility.yul\":5592:5595   */\n      dup6\n        /* \"#utility.yul\":5534:5604   */\n      tag_399\n      jump\t// in\n    tag_398:\n        /* \"#utility.yul\":5527:5604   */\n      swap4\n      pop\n        /* \"#utility.yul\":5613:5665   */\n      tag_400\n        /* \"#utility.yul\":5658:5664   */\n      dup2\n        /* \"#utility.yul\":5653:5656   */\n      dup6\n        /* \"#utility.yul\":5646:5650   */\n      0x20\n        /* \"#utility.yul\":5639:5644   */\n      dup7\n        /* \"#utility.yul\":5635:5651   */\n      add\n        /* \"#utility.yul\":5613:5665   */\n      tag_401\n      jump\t// in\n    tag_400:\n        /* \"#utility.yul\":5690:5719   */\n      tag_402\n        /* \"#utility.yul\":5712:5718   */\n      dup2\n        /* \"#utility.yul\":5690:5719   */\n      tag_403\n      jump\t// in\n    tag_402:\n        /* \"#utility.yul\":5685:5688   */\n      dup5\n        /* \"#utility.yul\":5681:5720   */\n      add\n        /* \"#utility.yul\":5674:5720   */\n      swap2\n      pop\n        /* \"#utility.yul\":5456:5726   */\n      pop\n      swap3\n      swap2\n      pop\n      pop\n      jump\t// out\n        /* \"#utility.yul\":5732:6096   */\n    tag_404:\n      0x00\n        /* \"#utility.yul\":5848:5887   */\n      tag_406\n        /* \"#utility.yul\":5881:5886   */\n      dup3\n        /* \"#utility.yul\":5848:5887   */\n      tag_407\n      jump\t// in\n    tag_406:\n        /* \"#utility.yul\":5903:5974   */\n      tag_408\n        /* \"#utility.yul\":5967:5973   */\n      dup2\n        /* \"#utility.yul\":5962:5965   */\n      dup6\n        /* \"#utility.yul\":5903:5974   */\n      tag_409\n      jump\t// in\n    tag_408:\n        /* \"#utility.yul\":5896:5974   */\n      swap4\n      pop\n        /* \"#utility.yul\":5983:6035   */\n      tag_410\n        /* \"#utility.yul\":6028:6034   */\n      dup2\n        /* \"#utility.yul\":6023:6026   */\n      dup6\n        /* \"#utility.yul\":6016:6020   */\n      0x20\n        /* \"#utility.yul\":6009:6014   */\n      dup7\n        /* \"#utility.yul\":6005:6021   */\n      add\n        /* \"#utility.yul\":5983:6035   */\n      tag_401\n      jump\t// in\n    tag_410:\n        /* \"#utility.yul\":6060:6089   */\n      tag_411\n        /* \"#utility.yul\":6082:6088   */\n      dup2\n        /* \"#utility.yul\":6060:6089   */\n      tag_403\n      jump\t// in\n    tag_411:\n        /* \"#utility.yul\":6055:6058   */\n      dup5\n        /* \"#utility.yul\":6051:6090   */\n      add\n        /* \"#utility.yul\":6044:6090   */\n      swap2\n      pop\n        /* \"#utility.yul\":5824:6096   */\n      pop\n      swap3\n      swap2\n      pop\n      pop\n      jump\t// out\n        /* \"#utility.yul\":6102:6479   */\n    tag_412:\n      0x00\n        /* \"#utility.yul\":6236:6275   */\n      tag_414\n        /* \"#utility.yul\":6269:6274   */\n      dup3\n        /* \"#utility.yul\":6236:6275   */\n      tag_407\n      jump\t// in\n    tag_414:\n        /* \"#utility.yul\":6291:6380   */\n      tag_415\n        /* \"#utility.yul\":6373:6379   */\n      dup2\n        /* \"#utility.yul\":6368:6371   */\n      dup6\n        /* \"#utility.yul\":6291:6380   */\n      tag_416\n      jump\t// in\n    tag_415:\n        /* \"#utility.yul\":6284:6380   */\n      swap4\n      pop\n        /* \"#utility.yul\":6389:6441   */\n      tag_417\n        /* \"#utility.yul\":6434:6440   */\n      dup2\n        /* \"#utility.yul\":6429:6432   */\n      dup6\n        /* \"#utility.yul\":6422:6426   */\n      0x20\n        /* \"#utility.yul\":6415:6420   */\n      dup7\n        /* \"#utility.yul\":6411:6427   */\n      add\n        /* \"#utility.yul\":6389:6441   */\n      tag_401\n      jump\t// in\n    tag_417:\n        /* \"#utility.yul\":6466:6472   */\n      dup1\n        /* \"#utility.yul\":6461:6464   */\n      dup5\n        /* \"#utility.yul\":6457:6473   */\n      add\n        /* \"#utility.yul\":6450:6473   */\n      swap2\n      pop\n        /* \"#utility.yul\":6212:6479   */\n      pop\n      swap3\n      swap2\n      pop\n      pop\n      jump\t// out\n        /* \"#utility.yul\":6485:6867   */\n    tag_418:\n      0x00\n        /* \"#utility.yul\":6648:6715   */\n      tag_420\n        /* \"#utility.yul\":6712:6714   */\n      0x32\n        /* \"#utility.yul\":6707:6710   */\n      dup4\n        /* \"#utility.yul\":6648:6715   */\n      tag_409\n      jump\t// in\n    tag_420:\n        /* \"#utility.yul\":6641:6715   */\n      swap2\n      pop\n        /* \"#utility.yul\":6745:6779   */\n      0x4552433732313a207472616e7366657220746f206e6f6e204552433732315265\n        /* \"#utility.yul\":6741:6742   */\n      0x00\n        /* \"#utility.yul\":6736:6739   */\n      dup4\n        /* \"#utility.yul\":6732:6743   */\n      add\n        /* \"#utility.yul\":6725:6780   */\n      mstore\n        /* \"#utility.yul\":6811:6831   */\n      0x63656976657220696d706c656d656e7465720000000000000000000000000000\n        /* \"#utility.yul\":6806:6808   */\n      0x20\n        /* \"#utility.yul\":6801:6804   */\n      dup4\n        /* \"#utility.yul\":6797:6809   */\n      add\n        /* \"#utility.yul\":6790:6832   */\n      mstore\n        /* \"#utility.yul\":6858:6860   */\n      0x40\n        /* \"#utility.yul\":6853:6856   */\n      dup3\n        /* \"#utility.yul\":6849:6861   */\n      add\n        /* \"#utility.yul\":6842:6861   */\n      swap1\n      pop\n        /* \"#utility.yul\":6631:6867   */\n      swap2\n      swap1\n      pop\n      jump\t// out\n        /* \"#utility.yul\":6873:7243   */\n    tag_421:\n      0x00\n        /* \"#utility.yul\":7036:7103   */\n      tag_423\n        /* \"#utility.yul\":7100:7102   */\n      0x26\n        /* \"#utility.yul\":7095:7098   */\n      dup4\n        /* \"#utility.yul\":7036:7103   */\n      tag_409\n      jump\t// in\n    tag_423:\n        /* \"#utility.yul\":7029:7103   */\n      swap2\n      pop\n        /* \"#utility.yul\":7133:7167   */\n      0x4f776e61626c653a206e6577206f776e657220697320746865207a65726f2061\n        /* \"#utility.yul\":7129:7130   */\n      0x00\n        /* \"#utility.yul\":7124:7127   */\n      dup4\n        /* \"#utility.yul\":7120:7131   */\n      add\n        /* \"#utility.yul\":7113:7168   */\n      mstore\n        /* \"#utility.yul\":7199:7207   */\n      0x6464726573730000000000000000000000000000000000000000000000000000\n        /* \"#utility.yul\":7194:7196   */\n      0x20\n        /* \"#utility.yul\":7189:7192   */\n      dup4\n        /* \"#utility.yul\":7185:7197   */\n      add\n        /* \"#utility.yul\":7178:7208   */\n      mstore\n        /* \"#utility.yul\":7234:7236   */\n      0x40\n        /* \"#utility.yul\":7229:7232   */\n      dup3\n        /* \"#utility.yul\":7225:7237   */\n      add\n        /* \"#utility.yul\":7218:7237   */\n      swap1\n      pop\n        /* \"#utility.yul\":7019:7243   */\n      swap2\n      swap1\n      pop\n      jump\t// out\n        /* \"#utility.yul\":7249:7618   */\n    tag_424:\n      0x00\n        /* \"#utility.yul\":7412:7479   */\n      tag_426\n        /* \"#utility.yul\":7476:7478   */\n      0x25\n        /* \"#utility.yul\":7471:7474   */\n      dup4\n        /* \"#utility.yul\":7412:7479   */\n      tag_409\n      jump\t// in\n    tag_426:\n        /* \"#utility.yul\":7405:7479   */\n      swap2\n      pop\n        /* \"#utility.yul\":7509:7543   */\n      0x4552433732313a207472616e736665722066726f6d20696e636f727265637420\n        /* \"#utility.yul\":7505:7506   */\n      0x00\n        /* \"#utility.yul\":7500:7503   */\n      dup4\n        /* \"#utility.yul\":7496:7507   */\n      add\n        /* \"#utility.yul\":7489:7544   */\n      mstore\n        /* \"#utility.yul\":7575:7582   */\n      0x6f776e6572000000000000000000000000000000000000000000000000000000\n        /* \"#utility.yul\":7570:7572   */\n      0x20\n        /* \"#utility.yul\":7565:7568   */\n      dup4\n        /* \"#utility.yul\":7561:7573   */\n      add\n        /* \"#utility.yul\":7554:7583   */\n      mstore\n        /* \"#utility.yul\":7609:7611   */\n      0x40\n        /* \"#utility.yul\":7604:7607   */\n      dup3\n        /* \"#utility.yul\":7600:7612   */\n      add\n        /* \"#utility.yul\":7593:7612   */\n      swap1\n      pop\n        /* \"#utility.yul\":7395:7618   */\n      swap2\n      swap1\n      pop\n      jump\t// out\n        /* \"#utility.yul\":7624:7950   */\n    tag_427:\n      0x00\n        /* \"#utility.yul\":7787:7854   */\n      tag_429\n        /* \"#utility.yul\":7851:7853   */\n      0x1c\n        /* \"#utility.yul\":7846:7849   */\n      dup4\n        /* \"#utility.yul\":7787:7854   */\n      tag_409\n      jump\t// in\n    tag_429:\n        /* \"#utility.yul\":7780:7854   */\n      swap2\n      pop\n        /* \"#utility.yul\":7884:7914   */\n      0x4552433732313a20746f6b656e20616c7265616479206d696e74656400000000\n        /* \"#utility.yul\":7880:7881   */\n      0x00\n        /* \"#utility.yul\":7875:7878   */\n      dup4\n        /* \"#utility.yul\":7871:7882   */\n      add\n        /* \"#utility.yul\":7864:7915   */\n      mstore\n        /* \"#utility.yul\":7941:7943   */\n      0x20\n        /* \"#utility.yul\":7936:7939   */\n      dup3\n        /* \"#utility.yul\":7932:7944   */\n      add\n        /* \"#utility.yul\":7925:7944   */\n      swap1\n      pop\n        /* \"#utility.yul\":7770:7950   */\n      swap2\n      swap1\n      pop\n      jump\t// out\n        /* \"#utility.yul\":7956:8324   */\n    tag_430:\n      0x00\n        /* \"#utility.yul\":8119:8186   */\n      tag_432\n        /* \"#utility.yul\":8183:8185   */\n      0x24\n        /* \"#utility.yul\":8178:8181   */\n      dup4\n        /* \"#utility.yul\":8119:8186   */\n      tag_409\n      jump\t// in\n    tag_432:\n        /* \"#utility.yul\":8112:8186   */\n      swap2\n      pop\n        /* \"#utility.yul\":8216:8250   */\n      0x4552433732313a207472616e7366657220746f20746865207a65726f20616464\n        /* \"#utility.yul\":8212:8213   */\n      0x00\n        /* \"#utility.yul\":8207:8210   */\n      dup4\n        /* \"#utility.yul\":8203:8214   */\n      add\n        /* \"#utility.yul\":8196:8251   */\n      mstore\n        /* \"#utility.yul\":8282:8288   */\n      0x7265737300000000000000000000000000000000000000000000000000000000\n        /* \"#utility.yul\":8277:8279   */\n      0x20\n        /* \"#utility.yul\":8272:8275   */\n      dup4\n        /* \"#utility.yul\":8268:8280   */\n      add\n        /* \"#utility.yul\":8261:8289   */\n      mstore\n        /* \"#utility.yul\":8315:8317   */\n      0x40\n        /* \"#utility.yul\":8310:8313   */\n      dup3\n        /* \"#utility.yul\":8306:8318   */\n      add\n        /* \"#utility.yul\":8299:8318   */\n      swap1\n      pop\n        /* \"#utility.yul\":8102:8324   */\n      swap2\n      swap1\n      pop\n      jump\t// out\n        /* \"#utility.yul\":8330:8706   */\n    tag_433:\n      0x00\n        /* \"#utility.yul\":8493:8560   */\n      tag_435\n        /* \"#utility.yul\":8557:8559   */\n      0x2c\n        /* \"#utility.yul\":8552:8555   */\n      dup4\n        /* \"#utility.yul\":8493:8560   */\n      tag_409\n      jump\t// in\n    tag_435:\n        /* \"#utility.yul\":8486:8560   */\n      swap2\n      pop\n        /* \"#utility.yul\":8590:8624   */\n      0x4552433732313a206f70657261746f7220717565727920666f72206e6f6e6578\n        /* \"#utility.yul\":8586:8587   */\n      0x00\n        /* \"#utility.yul\":8581:8584   */\n      dup4\n        /* \"#utility.yul\":8577:8588   */\n      add\n        /* \"#utility.yul\":8570:8625   */\n      mstore\n        /* \"#utility.yul\":8656:8670   */\n      0x697374656e7420746f6b656e0000000000000000000000000000000000000000\n        /* \"#utility.yul\":8651:8653   */\n      0x20\n        /* \"#utility.yul\":8646:8649   */\n      dup4\n        /* \"#utility.yul\":8642:8654   */\n      add\n        /* \"#utility.yul\":8635:8671   */\n      mstore\n        /* \"#utility.yul\":8697:8699   */\n      0x40\n        /* \"#utility.yul\":8692:8695   */\n      dup3\n        /* \"#utility.yul\":8688:8700   */\n      add\n        /* \"#utility.yul\":8681:8700   */\n      swap1\n      pop\n        /* \"#utility.yul\":8476:8706   */\n      swap2\n      swap1\n      pop\n      jump\t// out\n        /* \"#utility.yul\":8712:9100   */\n    tag_436:\n      0x00\n        /* \"#utility.yul\":8875:8942   */\n      tag_438\n        /* \"#utility.yul\":8939:8941   */\n      0x38\n        /* \"#utility.yul\":8934:8937   */\n      dup4\n        /* \"#utility.yul\":8875:8942   */\n      tag_409\n      jump\t// in\n    tag_438:\n        /* \"#utility.yul\":8868:8942   */\n      swap2\n      pop\n        /* \"#utility.yul\":8972:9006   */\n      0x4552433732313a20617070726f76652063616c6c6572206973206e6f74206f77\n        /* \"#utility.yul\":8968:8969   */\n      0x00\n        /* \"#utility.yul\":8963:8966   */\n      dup4\n        /* \"#utility.yul\":8959:8970   */\n      add\n        /* \"#utility.yul\":8952:9007   */\n      mstore\n        /* \"#utility.yul\":9038:9064   */\n      0x6e6572206e6f7220617070726f76656420666f7220616c6c0000000000000000\n        /* \"#utility.yul\":9033:9035   */\n      0x20\n        /* \"#utility.yul\":9028:9031   */\n      dup4\n        /* \"#utility.yul\":9024:9036   */\n      add\n        /* \"#utility.yul\":9017:9065   */\n      mstore\n        /* \"#utility.yul\":9091:9093   */\n      0x40\n        /* \"#utility.yul\":9086:9089   */\n      dup3\n        /* \"#utility.yul\":9082:9094   */\n      add\n        /* \"#utility.yul\":9075:9094   */\n      swap1\n      pop\n        /* \"#utility.yul\":8858:9100   */\n      swap2\n      swap1\n      pop\n      jump\t// out\n        /* \"#utility.yul\":9106:9480   */\n    tag_439:\n      0x00\n        /* \"#utility.yul\":9269:9336   */\n      tag_441\n        /* \"#utility.yul\":9333:9335   */\n      0x2a\n        /* \"#utility.yul\":9328:9331   */\n      dup4\n        /* \"#utility.yul\":9269:9336   */\n      tag_409\n      jump\t// in\n    tag_441:\n        /* \"#utility.yul\":9262:9336   */\n      swap2\n      pop\n        /* \"#utility.yul\":9366:9400   */\n      0x4552433732313a2062616c616e636520717565727920666f7220746865207a65\n        /* \"#utility.yul\":9362:9363   */\n      0x00\n        /* \"#utility.yul\":9357:9360   */\n      dup4\n        /* \"#utility.yul\":9353:9364   */\n      add\n        /* \"#utility.yul\":9346:9401   */\n      mstore\n        /* \"#utility.yul\":9432:9444   */\n      0x726f206164647265737300000000000000000000000000000000000000000000\n        /* \"#utility.yul\":9427:9429   */\n      0x20\n        /* \"#utility.yul\":9422:9425   */\n      dup4\n        /* \"#utility.yul\":9418:9430   */\n      add\n        /* \"#utility.yul\":9411:9445   */\n      mstore\n        /* \"#utility.yul\":9471:9473   */\n      0x40\n        /* \"#utility.yul\":9466:9469   */\n      dup3\n        /* \"#utility.yul\":9462:9474   */\n      add\n        /* \"#utility.yul\":9455:9474   */\n      swap1\n      pop\n        /* \"#utility.yul\":9252:9480   */\n      swap2\n      swap1\n      pop\n      jump\t// out\n        /* \"#utility.yul\":9486:9859   */\n    tag_442:\n      0x00\n        /* \"#utility.yul\":9649:9716   */\n      tag_444\n        /* \"#utility.yul\":9713:9715   */\n      0x29\n        /* \"#utility.yul\":9708:9711   */\n      dup4\n        /* \"#utility.yul\":9649:9716   */\n      tag_409\n      jump\t// in\n    tag_444:\n        /* \"#utility.yul\":9642:9716   */\n      swap2\n      pop\n        /* \"#utility.yul\":9746:9780   */\n      0x4552433732313a206f776e657220717565727920666f72206e6f6e6578697374\n        /* \"#utility.yul\":9742:9743   */\n      0x00\n        /* \"#utility.yul\":9737:9740   */\n      dup4\n        /* \"#utility.yul\":9733:9744   */\n      add\n        /* \"#utility.yul\":9726:9781   */\n      mstore\n        /* \"#utility.yul\":9812:9823   */\n      0x656e7420746f6b656e0000000000000000000000000000000000000000000000\n        /* \"#utility.yul\":9807:9809   */\n      0x20\n        /* \"#utility.yul\":9802:9805   */\n      dup4\n        /* \"#utility.yul\":9798:9810   */\n      add\n        /* \"#utility.yul\":9791:9824   */\n      mstore\n        /* \"#utility.yul\":9850:9852   */\n      0x40\n        /* \"#utility.yul\":9845:9848   */\n      dup3\n        /* \"#utility.yul\":9841:9853   */\n      add\n        /* \"#utility.yul\":9834:9853   */\n      swap1\n      pop\n        /* \"#utility.yul\":9632:9859   */\n      swap2\n      swap1\n      pop\n      jump\t// out\n        /* \"#utility.yul\":9865:10195   */\n    tag_445:\n      0x00\n        /* \"#utility.yul\":10028:10095   */\n      tag_447\n        /* \"#utility.yul\":10092:10094   */\n      0x20\n        /* \"#utility.yul\":10087:10090   */\n      dup4\n        /* \"#utility.yul\":10028:10095   */\n      tag_409\n      jump\t// in\n    tag_447:\n        /* \"#utility.yul\":10021:10095   */\n      swap2\n      pop\n        /* \"#utility.yul\":10125:10159   */\n      0x4552433732313a206d696e7420746f20746865207a65726f2061646472657373\n        /* \"#utility.yul\":10121:10122   */\n      0x00\n        /* \"#utility.yul\":10116:10119   */\n      dup4\n        /* \"#utility.yul\":10112:10123   */\n      add\n        /* \"#utility.yul\":10105:10160   */\n      mstore\n        /* \"#utility.yul\":10186:10188   */\n      0x20\n        /* \"#utility.yul\":10181:10184   */\n      dup3\n        /* \"#utility.yul\":10177:10189   */\n      add\n        /* \"#utility.yul\":10170:10189   */\n      swap1\n      pop\n        /* \"#utility.yul\":10011:10195   */\n      swap2\n      swap1\n      pop\n      jump\t// out\n        /* \"#utility.yul\":10201:10577   */\n    tag_448:\n      0x00\n        /* \"#utility.yul\":10364:10431   */\n      tag_450\n        /* \"#utility.yul\":10428:10430   */\n      0x2c\n        /* \"#utility.yul\":10423:10426   */\n      dup4\n        /* \"#utility.yul\":10364:10431   */\n      tag_409\n      jump\t// in\n    tag_450:\n        /* \"#utility.yul\":10357:10431   */\n      swap2\n      pop\n        /* \"#utility.yul\":10461:10495   */\n      0x4552433732313a20617070726f76656420717565727920666f72206e6f6e6578\n        /* \"#utility.yul\":10457:10458   */\n      0x00\n        /* \"#utility.yul\":10452:10455   */\n      dup4\n        /* \"#utility.yul\":10448:10459   */\n      add\n        /* \"#utility.yul\":10441:10496   */\n      mstore\n        /* \"#utility.yul\":10527:10541   */\n      0x697374656e7420746f6b656e0000000000000000000000000000000000000000\n        /* \"#utility.yul\":10522:10524   */\n      0x20\n        /* \"#utility.yul\":10517:10520   */\n      dup4\n        /* \"#utility.yul\":10513:10525   */\n      add\n        /* \"#utility.yul\":10506:10542   */\n      mstore\n        /* \"#utility.yul\":10568:10570   */\n      0x40\n        /* \"#utility.yul\":10563:10566   */\n      dup3\n        /* \"#utility.yul\":10559:10571   */\n      add\n        /* \"#utility.yul\":10552:10571   */\n      swap1\n      pop\n        /* \"#utility.yul\":10347:10577   */\n      swap2\n      swap1\n      pop\n      jump\t// out\n        /* \"#utility.yul\":10583:10959   */\n    tag_451:\n      0x00\n        /* \"#utility.yul\":10746:10813   */\n      tag_453\n        /* \"#utility.yul\":10810:10812   */\n      0x2c\n        /* \"#utility.yul\":10805:10808   */\n      dup4\n        /* \"#utility.yul\":10746:10813   */\n      tag_409\n      jump\t// in\n    tag_453:\n        /* \"#utility.yul\":10739:10813   */\n      swap2\n      pop\n        /* \"#utility.yul\":10843:10877   */\n      0x4552433732314d657461646174613a2055524920736574206f66206e6f6e6578\n        /* \"#utility.yul\":10839:10840   */\n      0x00\n        /* \"#utility.yul\":10834:10837   */\n      dup4\n        /* \"#utility.yul\":10830:10841   */\n      add\n        /* \"#utility.yul\":10823:10878   */\n      mstore\n        /* \"#utility.yul\":10909:10923   */\n      0x697374656e7420746f6b656e0000000000000000000000000000000000000000\n        /* \"#utility.yul\":10904:10906   */\n      0x20\n        /* \"#utility.yul\":10899:10902   */\n      dup4\n        /* \"#utility.yul\":10895:10907   */\n      add\n        /* \"#utility.yul\":10888:10924   */\n      mstore\n        /* \"#utility.yul\":10950:10952   */\n      0x40\n        /* \"#utility.yul\":10945:10948   */\n      dup3\n        /* \"#utility.yul\":10941:10953   */\n      add\n        /* \"#utility.yul\":10934:10953   */\n      swap1\n      pop\n        /* \"#utility.yul\":10729:10959   */\n      swap2\n      swap1\n      pop\n      jump\t// out\n        /* \"#utility.yul\":10965:11295   */\n    tag_454:\n      0x00\n        /* \"#utility.yul\":11128:11195   */\n      tag_456\n        /* \"#utility.yul\":11192:11194   */\n      0x20\n        /* \"#utility.yul\":11187:11190   */\n      dup4\n        /* \"#utility.yul\":11128:11195   */\n      tag_409\n      jump\t// in\n    tag_456:\n        /* \"#utility.yul\":11121:11195   */\n      swap2\n      pop\n        /* \"#utility.yul\":11225:11259   */\n      0x4f776e61626c653a2063616c6c6572206973206e6f7420746865206f776e6572\n        /* \"#utility.yul\":11221:11222   */\n      0x00\n        /* \"#utility.yul\":11216:11219   */\n      dup4\n        /* \"#utility.yul\":11212:11223   */\n      add\n        /* \"#utility.yul\":11205:11260   */\n      mstore\n        /* \"#utility.yul\":11286:11288   */\n      0x20\n        /* \"#utility.yul\":11281:11284   */\n      dup3\n        /* \"#utility.yul\":11277:11289   */\n      add\n        /* \"#utility.yul\":11270:11289   */\n      swap1\n      pop\n        /* \"#utility.yul\":11111:11295   */\n      swap2\n      swap1\n      pop\n      jump\t// out\n        /* \"#utility.yul\":11301:11680   */\n    tag_457:\n      0x00\n        /* \"#utility.yul\":11464:11531   */\n      tag_459\n        /* \"#utility.yul\":11528:11530   */\n      0x2f\n        /* \"#utility.yul\":11523:11526   */\n      dup4\n        /* \"#utility.yul\":11464:11531   */\n      tag_409\n      jump\t// in\n    tag_459:\n        /* \"#utility.yul\":11457:11531   */\n      swap2\n      pop\n        /* \"#utility.yul\":11561:11595   */\n      0x4552433732314d657461646174613a2055524920717565727920666f72206e6f\n        /* \"#utility.yul\":11557:11558   */\n      0x00\n        /* \"#utility.yul\":11552:11555   */\n      dup4\n        /* \"#utility.yul\":11548:11559   */\n      add\n        /* \"#utility.yul\":11541:11596   */\n      mstore\n        /* \"#utility.yul\":11627:11644   */\n      0x6e6578697374656e7420746f6b656e0000000000000000000000000000000000\n        /* \"#utility.yul\":11622:11624   */\n      0x20\n        /* \"#utility.yul\":11617:11620   */\n      dup4\n        /* \"#utility.yul\":11613:11625   */\n      add\n        /* \"#utility.yul\":11606:11645   */\n      mstore\n        /* \"#utility.yul\":11671:11673   */\n      0x40\n        /* \"#utility.yul\":11666:11669   */\n      dup3\n        /* \"#utility.yul\":11662:11674   */\n      add\n        /* \"#utility.yul\":11655:11674   */\n      swap1\n      pop\n        /* \"#utility.yul\":11447:11680   */\n      swap2\n      swap1\n      pop\n      jump\t// out\n        /* \"#utility.yul\":11686:12051   */\n    tag_460:\n      0x00\n        /* \"#utility.yul\":11849:11916   */\n      tag_462\n        /* \"#utility.yul\":11913:11915   */\n      0x21\n        /* \"#utility.yul\":11908:11911   */\n      dup4\n        /* \"#utility.yul\":11849:11916   */\n      tag_409\n      jump\t// in\n    tag_462:\n        /* \"#utility.yul\":11842:11916   */\n      swap2\n      pop\n        /* \"#utility.yul\":11946:11980   */\n      0x4552433732313a20617070726f76616c20746f2063757272656e74206f776e65\n        /* \"#utility.yul\":11942:11943   */\n      0x00\n        /* \"#utility.yul\":11937:11940   */\n      dup4\n        /* \"#utility.yul\":11933:11944   */\n      add\n        /* \"#utility.yul\":11926:11981   */\n      mstore\n        /* \"#utility.yul\":12012:12015   */\n      0x7200000000000000000000000000000000000000000000000000000000000000\n        /* \"#utility.yul\":12007:12009   */\n      0x20\n        /* \"#utility.yul\":12002:12005   */\n      dup4\n        /* \"#utility.yul\":11998:12010   */\n      add\n        /* \"#utility.yul\":11991:12016   */\n      mstore\n        /* \"#utility.yul\":12042:12044   */\n      0x40\n        /* \"#utility.yul\":12037:12040   */\n      dup3\n        /* \"#utility.yul\":12033:12045   */\n      add\n        /* \"#utility.yul\":12026:12045   */\n      swap1\n      pop\n        /* \"#utility.yul\":11832:12051   */\n      swap2\n      swap1\n      pop\n      jump\t// out\n        /* \"#utility.yul\":12057:12438   */\n    tag_463:\n      0x00\n        /* \"#utility.yul\":12220:12287   */\n      tag_465\n        /* \"#utility.yul\":12284:12286   */\n      0x31\n        /* \"#utility.yul\":12279:12282   */\n      dup4\n        /* \"#utility.yul\":12220:12287   */\n      tag_409\n      jump\t// in\n    tag_465:\n        /* \"#utility.yul\":12213:12287   */\n      swap2\n      pop\n        /* \"#utility.yul\":12317:12351   */\n      0x4552433732313a207472616e736665722063616c6c6572206973206e6f74206f\n        /* \"#utility.yul\":12313:12314   */\n      0x00\n        /* \"#utility.yul\":12308:12311   */\n      dup4\n        /* \"#utility.yul\":12304:12315   */\n      add\n        /* \"#utility.yul\":12297:12352   */\n      mstore\n        /* \"#utility.yul\":12383:12402   */\n      0x776e6572206e6f7220617070726f766564000000000000000000000000000000\n        /* \"#utility.yul\":12378:12380   */\n      0x20\n        /* \"#utility.yul\":12373:12376   */\n      dup4\n        /* \"#utility.yul\":12369:12381   */\n      add\n        /* \"#utility.yul\":12362:12403   */\n      mstore\n        /* \"#utility.yul\":12429:12431   */\n      0x40\n        /* \"#utility.yul\":12424:12427   */\n      dup3\n        /* \"#utility.yul\":12420:12432   */\n      add\n        /* \"#utility.yul\":12413:12432   */\n      swap1\n      pop\n        /* \"#utility.yul\":12203:12438   */\n      swap2\n      swap1\n      pop\n      jump\t// out\n        /* \"#utility.yul\":12444:12562   */\n    tag_466:\n        /* \"#utility.yul\":12531:12555   */\n      tag_468\n        /* \"#utility.yul\":12549:12554   */\n      dup2\n        /* \"#utility.yul\":12531:12555   */\n      tag_469\n      jump\t// in\n    tag_468:\n        /* \"#utility.yul\":12526:12529   */\n      dup3\n        /* \"#utility.yul\":12519:12556   */\n      mstore\n        /* \"#utility.yul\":12509:12562   */\n      pop\n      pop\n      jump\t// out\n        /* \"#utility.yul\":12568:13003   */\n    tag_173:\n      0x00\n        /* \"#utility.yul\":12770:12865   */\n      tag_471\n        /* \"#utility.yul\":12861:12864   */\n      dup3\n        /* \"#utility.yul\":12852:12858   */\n      dup6\n        /* \"#utility.yul\":12770:12865   */\n      tag_412\n      jump\t// in\n    tag_471:\n        /* \"#utility.yul\":12763:12865   */\n      swap2\n      pop\n        /* \"#utility.yul\":12882:12977   */\n      tag_472\n        /* \"#utility.yul\":12973:12976   */\n      dup3\n        /* \"#utility.yul\":12964:12970   */\n      dup5\n        /* \"#utility.yul\":12882:12977   */\n      tag_412\n      jump\t// in\n    tag_472:\n        /* \"#utility.yul\":12875:12977   */\n      swap2\n      pop\n        /* \"#utility.yul\":12994:12997   */\n      dup2\n        /* \"#utility.yul\":12987:12997   */\n      swap1\n      pop\n        /* \"#utility.yul\":12752:13003   */\n      swap4\n      swap3\n      pop\n      pop\n      pop\n      jump\t// out\n        /* \"#utility.yul\":13009:13231   */\n    tag_31:\n      0x00\n        /* \"#utility.yul\":13140:13142   */\n      0x20\n        /* \"#utility.yul\":13129:13138   */\n      dup3\n        /* \"#utility.yul\":13125:13143   */\n      add\n        /* \"#utility.yul\":13117:13143   */\n      swap1\n      pop\n        /* \"#utility.yul\":13153:13224   */\n      tag_474\n        /* \"#utility.yul\":13221:13222   */\n      0x00\n        /* \"#utility.yul\":13210:13219   */\n      dup4\n        /* \"#utility.yul\":13206:13223   */\n      add\n        /* \"#utility.yul\":13197:13203   */\n      dup5\n        /* \"#utility.yul\":13153:13224   */\n      tag_390\n      jump\t// in\n    tag_474:\n        /* \"#utility.yul\":13107:13231   */\n      swap3\n      swap2\n      pop\n      pop\n      jump\t// out\n        /* \"#utility.yul\":13237:13877   */\n    tag_276:\n      0x00\n        /* \"#utility.yul\":13470:13473   */\n      0x80\n        /* \"#utility.yul\":13459:13468   */\n      dup3\n        /* \"#utility.yul\":13455:13474   */\n      add\n        /* \"#utility.yul\":13447:13474   */\n      swap1\n      pop\n        /* \"#utility.yul\":13484:13555   */\n      tag_476\n        /* \"#utility.yul\":13552:13553   */\n      0x00\n        /* \"#utility.yul\":13541:13550   */\n      dup4\n        /* \"#utility.yul\":13537:13554   */\n      add\n        /* \"#utility.yul\":13528:13534   */\n      dup8\n        /* \"#utility.yul\":13484:13555   */\n      tag_390\n      jump\t// in\n    tag_476:\n        /* \"#utility.yul\":13565:13637   */\n      tag_477\n        /* \"#utility.yul\":13633:13635   */\n      0x20\n        /* \"#utility.yul\":13622:13631   */\n      dup4\n        /* \"#utility.yul\":13618:13636   */\n      add\n        /* \"#utility.yul\":13609:13615   */\n      dup7\n        /* \"#utility.yul\":13565:13637   */\n      tag_390\n      jump\t// in\n    tag_477:\n        /* \"#utility.yul\":13647:13719   */\n      tag_478\n        /* \"#utility.yul\":13715:13717   */\n      0x40\n        /* \"#utility.yul\":13704:13713   */\n      dup4\n        /* \"#utility.yul\":13700:13718   */\n      add\n        /* \"#utility.yul\":13691:13697   */\n      dup6\n        /* \"#utility.yul\":13647:13719   */\n      tag_466\n      jump\t// in\n    tag_478:\n        /* \"#utility.yul\":13766:13775   */\n      dup2\n        /* \"#utility.yul\":13760:13764   */\n      dup2\n        /* \"#utility.yul\":13756:13776   */\n      sub\n        /* \"#utility.yul\":13751:13753   */\n      0x60\n        /* \"#utility.yul\":13740:13749   */\n      dup4\n        /* \"#utility.yul\":13736:13754   */\n      add\n        /* \"#utility.yul\":13729:13777   */\n      mstore\n        /* \"#utility.yul\":13794:13870   */\n      tag_479\n        /* \"#utility.yul\":13865:13869   */\n      dup2\n        /* \"#utility.yul\":13856:13862   */\n      dup5\n        /* \"#utility.yul\":13794:13870   */\n      tag_394\n      jump\t// in\n    tag_479:\n        /* \"#utility.yul\":13786:13870   */\n      swap1\n      pop\n        /* \"#utility.yul\":13437:13877   */\n      swap6\n      swap5\n      pop\n      pop\n      pop\n      pop\n      pop\n      jump\t// out\n        /* \"#utility.yul\":13883:14196   */\n    tag_25:\n      0x00\n        /* \"#utility.yul\":14034:14036   */\n      0x20\n        /* \"#utility.yul\":14023:14032   */\n      dup3\n        /* \"#utility.yul\":14019:14037   */\n      add\n        /* \"#utility.yul\":14011:14037   */\n      swap1\n      pop\n        /* \"#utility.yul\":14083:14092   */\n      dup2\n        /* \"#utility.yul\":14077:14081   */\n      dup2\n        /* \"#utility.yul\":14073:14093   */\n      sub\n        /* \"#utility.yul\":14069:14070   */\n      0x00\n        /* \"#utility.yul\":14058:14067   */\n      dup4\n        /* \"#utility.yul\":14054:14071   */\n      add\n        /* \"#utility.yul\":14047:14094   */\n      mstore\n        /* \"#utility.yul\":14111:14189   */\n      tag_481\n        /* \"#utility.yul\":14184:14188   */\n      dup2\n        /* \"#utility.yul\":14175:14181   */\n      dup5\n        /* \"#utility.yul\":14111:14189   */\n      tag_404\n      jump\t// in\n    tag_481:\n        /* \"#utility.yul\":14103:14189   */\n      swap1\n      pop\n        /* \"#utility.yul\":14001:14196   */\n      swap3\n      swap2\n      pop\n      pop\n      jump\t// out\n        /* \"#utility.yul\":14202:14621   */\n    tag_235:\n      0x00\n        /* \"#utility.yul\":14406:14408   */\n      0x20\n        /* \"#utility.yul\":14395:14404   */\n      dup3\n        /* \"#utility.yul\":14391:14409   */\n      add\n        /* \"#utility.yul\":14383:14409   */\n      swap1\n      pop\n        /* \"#utility.yul\":14455:14464   */\n      dup2\n        /* \"#utility.yul\":14449:14453   */\n      dup2\n        /* \"#utility.yul\":14445:14465   */\n      sub\n        /* \"#utility.yul\":14441:14442   */\n      0x00\n        /* \"#utility.yul\":14430:14439   */\n      dup4\n        /* \"#utility.yul\":14426:14443   */\n      add\n        /* \"#utility.yul\":14419:14466   */\n      mstore\n        /* \"#utility.yul\":14483:14614   */\n      tag_483\n        /* \"#utility.yul\":14609:14613   */\n      dup2\n        /* \"#utility.yul\":14483:14614   */\n      tag_418\n      jump\t// in\n    tag_483:\n        /* \"#utility.yul\":14475:14614   */\n      swap1\n      pop\n        /* \"#utility.yul\":14373:14621   */\n      swap2\n      swap1\n      pop\n      jump\t// out\n        /* \"#utility.yul\":14627:15046   */\n    tag_197:\n      0x00\n        /* \"#utility.yul\":14831:14833   */\n      0x20\n        /* \"#utility.yul\":14820:14829   */\n      dup3\n        /* \"#utility.yul\":14816:14834   */\n      add\n        /* \"#utility.yul\":14808:14834   */\n      swap1\n      pop\n        /* \"#utility.yul\":14880:14889   */\n      dup2\n        /* \"#utility.yul\":14874:14878   */\n      dup2\n        /* \"#utility.yul\":14870:14890   */\n      sub\n        /* \"#utility.yul\":14866:14867   */\n      0x00\n        /* \"#utility.yul\":14855:14864   */\n      dup4\n        /* \"#utility.yul\":14851:14868   */\n      add\n        /* \"#utility.yul\":14844:14891   */\n      mstore\n        /* \"#utility.yul\":14908:15039   */\n      tag_485\n        /* \"#utility.yul\":15034:15038   */\n      dup2\n        /* \"#utility.yul\":14908:15039   */\n      tag_421\n      jump\t// in\n    tag_485:\n        /* \"#utility.yul\":14900:15039   */\n      swap1\n      pop\n        /* \"#utility.yul\":14798:15046   */\n      swap2\n      swap1\n      pop\n      jump\t// out\n        /* \"#utility.yul\":15052:15471   */\n    tag_215:\n      0x00\n        /* \"#utility.yul\":15256:15258   */\n      0x20\n        /* \"#utility.yul\":15245:15254   */\n      dup3\n        /* \"#utility.yul\":15241:15259   */\n      add\n        /* \"#utility.yul\":15233:15259   */\n      swap1\n      pop\n        /* \"#utility.yul\":15305:15314   */\n      dup2\n        /* \"#utility.yul\":15299:15303   */\n      dup2\n        /* \"#utility.yul\":15295:15315   */\n      sub\n        /* \"#utility.yul\":15291:15292   */\n      0x00\n        /* \"#utility.yul\":15280:15289   */\n      dup4\n        /* \"#utility.yul\":15276:15293   */\n      add\n        /* \"#utility.yul\":15269:15316   */\n      mstore\n        /* \"#utility.yul\":15333:15464   */\n      tag_487\n        /* \"#utility.yul\":15459:15463   */\n      dup2\n        /* \"#utility.yul\":15333:15464   */\n      tag_424\n      jump\t// in\n    tag_487:\n        /* \"#utility.yul\":15325:15464   */\n      swap1\n      pop\n        /* \"#utility.yul\":15223:15471   */\n      swap2\n      swap1\n      pop\n      jump\t// out\n        /* \"#utility.yul\":15477:15896   */\n    tag_305:\n      0x00\n        /* \"#utility.yul\":15681:15683   */\n      0x20\n        /* \"#utility.yul\":15670:15679   */\n      dup3\n        /* \"#utility.yul\":15666:15684   */\n      add\n        /* \"#utility.yul\":15658:15684   */\n      swap1\n      pop\n        /* \"#utility.yul\":15730:15739   */\n      dup2\n        /* \"#utility.yul\":15724:15728   */\n      dup2\n        /* \"#utility.yul\":15720:15740   */\n      sub\n        /* \"#utility.yul\":15716:15717   */\n      0x00\n        /* \"#utility.yul\":15705:15714   */\n      dup4\n        /* \"#utility.yul\":15701:15718   */\n      add\n        /* \"#utility.yul\":15694:15741   */\n      mstore\n        /* \"#utility.yul\":15758:15889   */\n      tag_489\n        /* \"#utility.yul\":15884:15888   */\n      dup2\n        /* \"#utility.yul\":15758:15889   */\n      tag_427\n      jump\t// in\n    tag_489:\n        /* \"#utility.yul\":15750:15889   */\n      swap1\n      pop\n        /* \"#utility.yul\":15648:15896   */\n      swap2\n      swap1\n      pop\n      jump\t// out\n        /* \"#utility.yul\":15902:16321   */\n    tag_218:\n      0x00\n        /* \"#utility.yul\":16106:16108   */\n      0x20\n        /* \"#utility.yul\":16095:16104   */\n      dup3\n        /* \"#utility.yul\":16091:16109   */\n      add\n        /* \"#utility.yul\":16083:16109   */\n      swap1\n      pop\n        /* \"#utility.yul\":16155:16164   */\n      dup2\n        /* \"#utility.yul\":16149:16153   */\n      dup2\n        /* \"#utility.yul\":16145:16165   */\n      sub\n        /* \"#utility.yul\":16141:16142   */\n      0x00\n        /* \"#utility.yul\":16130:16139   */\n      dup4\n        /* \"#utility.yul\":16126:16143   */\n      add\n        /* \"#utility.yul\":16119:16166   */\n      mstore\n        /* \"#utility.yul\":16183:16314   */\n      tag_491\n        /* \"#utility.yul\":16309:16313   */\n      dup2\n        /* \"#utility.yul\":16183:16314   */\n      tag_430\n      jump\t// in\n    tag_491:\n        /* \"#utility.yul\":16175:16314   */\n      swap1\n      pop\n        /* \"#utility.yul\":16073:16321   */\n      swap2\n      swap1\n      pop\n      jump\t// out\n        /* \"#utility.yul\":16327:16746   */\n    tag_207:\n      0x00\n        /* \"#utility.yul\":16531:16533   */\n      0x20\n        /* \"#utility.yul\":16520:16529   */\n      dup3\n        /* \"#utility.yul\":16516:16534   */\n      add\n        /* \"#utility.yul\":16508:16534   */\n      swap1\n      pop\n        /* \"#utility.yul\":16580:16589   */\n      dup2\n        /* \"#utility.yul\":16574:16578   */\n      dup2\n        /* \"#utility.yul\":16570:16590   */\n      sub\n        /* \"#utility.yul\":16566:16567   */\n      0x00\n        /* \"#utility.yul\":16555:16564   */\n      dup4\n        /* \"#utility.yul\":16551:16568   */\n      add\n        /* \"#utility.yul\":16544:16591   */\n      mstore\n        /* \"#utility.yul\":16608:16739   */\n      tag_493\n        /* \"#utility.yul\":16734:16738   */\n      dup2\n        /* \"#utility.yul\":16608:16739   */\n      tag_433\n      jump\t// in\n    tag_493:\n        /* \"#utility.yul\":16600:16739   */\n      swap1\n      pop\n        /* \"#utility.yul\":16498:16746   */\n      swap2\n      swap1\n      pop\n      jump\t// out\n        /* \"#utility.yul\":16752:17171   */\n    tag_105:\n      0x00\n        /* \"#utility.yul\":16956:16958   */\n      0x20\n        /* \"#utility.yul\":16945:16954   */\n      dup3\n        /* \"#utility.yul\":16941:16959   */\n      add\n        /* \"#utility.yul\":16933:16959   */\n      swap1\n      pop\n        /* \"#utility.yul\":17005:17014   */\n      dup2\n        /* \"#utility.yul\":16999:17003   */\n      dup2\n        /* \"#utility.yul\":16995:17015   */\n      sub\n        /* \"#utility.yul\":16991:16992   */\n      0x00\n        /* \"#utility.yul\":16980:16989   */\n      dup4\n        /* \"#utility.yul\":16976:16993   */\n      add\n        /* \"#utility.yul\":16969:17016   */\n      mstore\n        /* \"#utility.yul\":17033:17164   */\n      tag_495\n        /* \"#utility.yul\":17159:17163   */\n      dup2\n        /* \"#utility.yul\":17033:17164   */\n      tag_436\n      jump\t// in\n    tag_495:\n        /* \"#utility.yul\":17025:17164   */\n      swap1\n      pop\n        /* \"#utility.yul\":16923:17171   */\n      swap2\n      swap1\n      pop\n      jump\t// out\n        /* \"#utility.yul\":17177:17596   */\n    tag_135:\n      0x00\n        /* \"#utility.yul\":17381:17383   */\n      0x20\n        /* \"#utility.yul\":17370:17379   */\n      dup3\n        /* \"#utility.yul\":17366:17384   */\n      add\n        /* \"#utility.yul\":17358:17384   */\n      swap1\n      pop\n        /* \"#utility.yul\":17430:17439   */\n      dup2\n        /* \"#utility.yul\":17424:17428   */\n      dup2\n        /* \"#utility.yul\":17420:17440   */\n      sub\n        /* \"#utility.yul\":17416:17417   */\n      0x00\n        /* \"#utility.yul\":17405:17414   */\n      dup4\n        /* \"#utility.yul\":17401:17418   */\n      add\n        /* \"#utility.yul\":17394:17441   */\n      mstore\n        /* \"#utility.yul\":17458:17589   */\n      tag_497\n        /* \"#utility.yul\":17584:17588   */\n      dup2\n        /* \"#utility.yul\":17458:17589   */\n      tag_439\n      jump\t// in\n    tag_497:\n        /* \"#utility.yul\":17450:17589   */\n      swap1\n      pop\n        /* \"#utility.yul\":17348:17596   */\n      swap2\n      swap1\n      pop\n      jump\t// out\n        /* \"#utility.yul\":17602:18021   */\n    tag_131:\n      0x00\n        /* \"#utility.yul\":17806:17808   */\n      0x20\n        /* \"#utility.yul\":17795:17804   */\n      dup3\n        /* \"#utility.yul\":17791:17809   */\n      add\n        /* \"#utility.yul\":17783:17809   */\n      swap1\n      pop\n        /* \"#utility.yul\":17855:17864   */\n      dup2\n        /* \"#utility.yul\":17849:17853   */\n      dup2\n        /* \"#utility.yul\":17845:17865   */\n      sub\n        /* \"#utility.yul\":17841:17842   */\n      0x00\n        /* \"#utility.yul\":17830:17839   */\n      dup4\n        /* \"#utility.yul\":17826:17843   */\n      add\n        /* \"#utility.yul\":17819:17866   */\n      mstore\n        /* \"#utility.yul\":17883:18014   */\n      tag_499\n        /* \"#utility.yul\":18009:18013   */\n      dup2\n        /* \"#utility.yul\":17883:18014   */\n      tag_442\n      jump\t// in\n    tag_499:\n        /* \"#utility.yul\":17875:18014   */\n      swap1\n      pop\n        /* \"#utility.yul\":17773:18021   */\n      swap2\n      swap1\n      pop\n      jump\t// out\n        /* \"#utility.yul\":18027:18446   */\n    tag_301:\n      0x00\n        /* \"#utility.yul\":18231:18233   */\n      0x20\n        /* \"#utility.yul\":18220:18229   */\n      dup3\n        /* \"#utility.yul\":18216:18234   */\n      add\n        /* \"#utility.yul\":18208:18234   */\n      swap1\n      pop\n        /* \"#utility.yul\":18280:18289   */\n      dup2\n        /* \"#utility.yul\":18274:18278   */\n      dup2\n        /* \"#utility.yul\":18270:18290   */\n      sub\n        /* \"#utility.yul\":18266:18267   */\n      0x00\n        /* \"#utility.yul\":18255:18264   */\n      dup4\n        /* \"#utility.yul\":18251:18268   */\n      add\n        /* \"#utility.yul\":18244:18291   */\n      mstore\n        /* \"#utility.yul\":18308:18439   */\n      tag_501\n        /* \"#utility.yul\":18434:18438   */\n      dup2\n        /* \"#utility.yul\":18308:18439   */\n      tag_445\n      jump\t// in\n    tag_501:\n        /* \"#utility.yul\":18300:18439   */\n      swap1\n      pop\n        /* \"#utility.yul\":18198:18446   */\n      swap2\n      swap1\n      pop\n      jump\t// out\n        /* \"#utility.yul\":18452:18871   */\n    tag_95:\n      0x00\n        /* \"#utility.yul\":18656:18658   */\n      0x20\n        /* \"#utility.yul\":18645:18654   */\n      dup3\n        /* \"#utility.yul\":18641:18659   */\n      add\n        /* \"#utility.yul\":18633:18659   */\n      swap1\n      pop\n        /* \"#utility.yul\":18705:18714   */\n      dup2\n        /* \"#utility.yul\":18699:18703   */\n      dup2\n        /* \"#utility.yul\":18695:18715   */\n      sub\n        /* \"#utility.yul\":18691:18692   */\n      0x00\n        /* \"#utility.yul\":18680:18689   */\n      dup4\n        /* \"#utility.yul\":18676:18693   */\n      add\n        /* \"#utility.yul\":18669:18716   */\n      mstore\n        /* \"#utility.yul\":18733:18864   */\n      tag_503\n        /* \"#utility.yul\":18859:18863   */\n      dup2\n        /* \"#utility.yul\":18733:18864   */\n      tag_448\n      jump\t// in\n    tag_503:\n        /* \"#utility.yul\":18725:18864   */\n      swap1\n      pop\n        /* \"#utility.yul\":18623:18871   */\n      swap2\n      swap1\n      pop\n      jump\t// out\n        /* \"#utility.yul\":18877:19296   */\n    tag_266:\n      0x00\n        /* \"#utility.yul\":19081:19083   */\n      0x20\n        /* \"#utility.yul\":19070:19079   */\n      dup3\n        /* \"#utility.yul\":19066:19084   */\n      add\n        /* \"#utility.yul\":19058:19084   */\n      swap1\n      pop\n        /* \"#utility.yul\":19130:19139   */\n      dup2\n        /* \"#utility.yul\":19124:19128   */\n      dup2\n        /* \"#utility.yul\":19120:19140   */\n      sub\n        /* \"#utility.yul\":19116:19117   */\n      0x00\n        /* \"#utility.yul\":19105:19114   */\n      dup4\n        /* \"#utility.yul\":19101:19118   */\n      add\n        /* \"#utility.yul\":19094:19141   */\n      mstore\n        /* \"#utility.yul\":19158:19289   */\n      tag_505\n        /* \"#utility.yul\":19284:19288   */\n      dup2\n        /* \"#utility.yul\":19158:19289   */\n      tag_451\n      jump\t// in\n    tag_505:\n        /* \"#utility.yul\":19150:19289   */\n      swap1\n      pop\n        /* \"#utility.yul\":19048:19296   */\n      swap2\n      swap1\n      pop\n      jump\t// out\n        /* \"#utility.yul\":19302:19721   */\n    tag_124:\n      0x00\n        /* \"#utility.yul\":19506:19508   */\n      0x20\n        /* \"#utility.yul\":19495:19504   */\n      dup3\n        /* \"#utility.yul\":19491:19509   */\n      add\n        /* \"#utility.yul\":19483:19509   */\n      swap1\n      pop\n        /* \"#utility.yul\":19555:19564   */\n      dup2\n        /* \"#utility.yul\":19549:19553   */\n      dup2\n        /* \"#utility.yul\":19545:19565   */\n      sub\n        /* \"#utility.yul\":19541:19542   */\n      0x00\n        /* \"#utility.yul\":19530:19539   */\n      dup4\n        /* \"#utility.yul\":19526:19543   */\n      add\n        /* \"#utility.yul\":19519:19566   */\n      mstore\n        /* \"#utility.yul\":19583:19714   */\n      tag_507\n        /* \"#utility.yul\":19709:19713   */\n      dup2\n        /* \"#utility.yul\":19583:19714   */\n      tag_454\n      jump\t// in\n    tag_507:\n        /* \"#utility.yul\":19575:19714   */\n      swap1\n      pop\n        /* \"#utility.yul\":19473:19721   */\n      swap2\n      swap1\n      pop\n      jump\t// out\n        /* \"#utility.yul\":19727:20146   */\n    tag_162:\n      0x00\n        /* \"#utility.yul\":19931:19933   */\n      0x20\n        /* \"#utility.yul\":19920:19929   */\n      dup3\n        /* \"#utility.yul\":19916:19934   */\n      add\n        /* \"#utility.yul\":19908:19934   */\n      swap1\n      pop\n        /* \"#utility.yul\":19980:19989   */\n      dup2\n        /* \"#utility.yul\":19974:19978   */\n      dup2\n        /* \"#utility.yul\":19970:19990   */\n      sub\n        /* \"#utility.yul\":19966:19967   */\n      0x00\n        /* \"#utility.yul\":19955:19964   */\n      dup4\n        /* \"#utility.yul\":19951:19968   */\n      add\n        /* \"#utility.yul\":19944:19991   */\n      mstore\n        /* \"#utility.yul\":20008:20139   */\n      tag_509\n        /* \"#utility.yul\":20134:20138   */\n      dup2\n        /* \"#utility.yul\":20008:20139   */\n      tag_457\n      jump\t// in\n    tag_509:\n        /* \"#utility.yul\":20000:20139   */\n      swap1\n      pop\n        /* \"#utility.yul\":19898:20146   */\n      swap2\n      swap1\n      pop\n      jump\t// out\n        /* \"#utility.yul\":20152:20571   */\n    tag_100:\n      0x00\n        /* \"#utility.yul\":20356:20358   */\n      0x20\n        /* \"#utility.yul\":20345:20354   */\n      dup3\n        /* \"#utility.yul\":20341:20359   */\n      add\n        /* \"#utility.yul\":20333:20359   */\n      swap1\n      pop\n        /* \"#utility.yul\":20405:20414   */\n      dup2\n        /* \"#utility.yul\":20399:20403   */\n      dup2\n        /* \"#utility.yul\":20395:20415   */\n      sub\n        /* \"#utility.yul\":20391:20392   */\n      0x00\n        /* \"#utility.yul\":20380:20389   */\n      dup4\n        /* \"#utility.yul\":20376:20393   */\n      add\n        /* \"#utility.yul\":20369:20416   */\n      mstore\n        /* \"#utility.yul\":20433:20564   */\n      tag_511\n        /* \"#utility.yul\":20559:20563   */\n      dup2\n        /* \"#utility.yul\":20433:20564   */\n      tag_460\n      jump\t// in\n    tag_511:\n        /* \"#utility.yul\":20425:20564   */\n      swap1\n      pop\n        /* \"#utility.yul\":20323:20571   */\n      swap2\n      swap1\n      pop\n      jump\t// out\n        /* \"#utility.yul\":20577:20996   */\n    tag_114:\n      0x00\n        /* \"#utility.yul\":20781:20783   */\n      0x20\n        /* \"#utility.yul\":20770:20779   */\n      dup3\n        /* \"#utility.yul\":20766:20784   */\n      add\n        /* \"#utility.yul\":20758:20784   */\n      swap1\n      pop\n        /* \"#utility.yul\":20830:20839   */\n      dup2\n        /* \"#utility.yul\":20824:20828   */\n      dup2\n        /* \"#utility.yul\":20820:20840   */\n      sub\n        /* \"#utility.yul\":20816:20817   */\n      0x00\n        /* \"#utility.yul\":20805:20814   */\n      dup4\n        /* \"#utility.yul\":20801:20818   */\n      add\n        /* \"#utility.yul\":20794:20841   */\n      mstore\n        /* \"#utility.yul\":20858:20989   */\n      tag_513\n        /* \"#utility.yul\":20984:20988   */\n      dup2\n        /* \"#utility.yul\":20858:20989   */\n      tag_463\n      jump\t// in\n    tag_513:\n        /* \"#utility.yul\":20850:20989   */\n      swap1\n      pop\n        /* \"#utility.yul\":20748:20996   */\n      swap2\n      swap1\n      pop\n      jump\t// out\n        /* \"#utility.yul\":21002:21224   */\n    tag_50:\n      0x00\n        /* \"#utility.yul\":21133:21135   */\n      0x20\n        /* \"#utility.yul\":21122:21131   */\n      dup3\n        /* \"#utility.yul\":21118:21136   */\n      add\n        /* \"#utility.yul\":21110:21136   */\n      swap1\n      pop\n        /* \"#utility.yul\":21146:21217   */\n      tag_515\n        /* \"#utility.yul\":21214:21215   */\n      0x00\n        /* \"#utility.yul\":21203:21212   */\n      dup4\n        /* \"#utility.yul\":21199:21216   */\n      add\n        /* \"#utility.yul\":21190:21196   */\n      dup5\n        /* \"#utility.yul\":21146:21217   */\n      tag_466\n      jump\t// in\n    tag_515:\n        /* \"#utility.yul\":21100:21224   */\n      swap3\n      swap2\n      pop\n      pop\n      jump\t// out\n        /* \"#utility.yul\":21230:21513   */\n    tag_325:\n      0x00\n        /* \"#utility.yul\":21296:21298   */\n      0x40\n        /* \"#utility.yul\":21290:21299   */\n      mload\n        /* \"#utility.yul\":21280:21299   */\n      swap1\n      pop\n        /* \"#utility.yul\":21338:21342   */\n      dup2\n        /* \"#utility.yul\":21330:21336   */\n      dup2\n        /* \"#utility.yul\":21326:21343   */\n      add\n        /* \"#utility.yul\":21445:21451   */\n      dup2\n        /* \"#utility.yul\":21433:21443   */\n      dup2\n        /* \"#utility.yul\":21430:21452   */\n      lt\n        /* \"#utility.yul\":21409:21427   */\n      0xffffffffffffffff\n        /* \"#utility.yul\":21397:21407   */\n      dup3\n        /* \"#utility.yul\":21394:21428   */\n      gt\n        /* \"#utility.yul\":21391:21453   */\n      or\n        /* \"#utility.yul\":21388:21390   */\n      iszero\n      tag_517\n      jumpi\n        /* \"#utility.yul\":21456:21474   */\n      tag_518\n      tag_519\n      jump\t// in\n    tag_518:\n        /* \"#utility.yul\":21388:21390   */\n    tag_517:\n        /* \"#utility.yul\":21496:21506   */\n      dup1\n        /* \"#utility.yul\":21492:21494   */\n      0x40\n        /* \"#utility.yul\":21485:21507   */\n      mstore\n        /* \"#utility.yul\":21270:21513   */\n      pop\n      swap2\n      swap1\n      pop\n      jump\t// out\n        /* \"#utility.yul\":21519:21850   */\n    tag_324:\n      0x00\n        /* \"#utility.yul\":21670:21688   */\n      0xffffffffffffffff\n        /* \"#utility.yul\":21662:21668   */\n      dup3\n        /* \"#utility.yul\":21659:21689   */\n      gt\n        /* \"#utility.yul\":21656:21658   */\n      iszero\n      tag_521\n      jumpi\n        /* \"#utility.yul\":21692:21710   */\n      tag_522\n      tag_519\n      jump\t// in\n    tag_522:\n        /* \"#utility.yul\":21656:21658   */\n    tag_521:\n        /* \"#utility.yul\":21777:21781   */\n      0x1f\n        /* \"#utility.yul\":21773:21782   */\n      not\n        /* \"#utility.yul\":21766:21770   */\n      0x1f\n        /* \"#utility.yul\":21758:21764   */\n      dup4\n        /* \"#utility.yul\":21754:21771   */\n      add\n        /* \"#utility.yul\":21750:21783   */\n      and\n        /* \"#utility.yul\":21742:21783   */\n      swap1\n      pop\n        /* \"#utility.yul\":21838:21842   */\n      0x20\n        /* \"#utility.yul\":21832:21836   */\n      dup2\n        /* \"#utility.yul\":21828:21843   */\n      add\n        /* \"#utility.yul\":21820:21843   */\n      swap1\n      pop\n        /* \"#utility.yul\":21585:21850   */\n      swap2\n      swap1\n      pop\n      jump\t// out\n        /* \"#utility.yul\":21856:22188   */\n    tag_333:\n      0x00\n        /* \"#utility.yul\":22008:22026   */\n      0xffffffffffffffff\n        /* \"#utility.yul\":22000:22006   */\n      dup3\n        /* \"#utility.yul\":21997:22027   */\n      gt\n        /* \"#utility.yul\":21994:21996   */\n      iszero\n      tag_524\n      jumpi\n        /* \"#utility.yul\":22030:22048   */\n      tag_525\n      tag_519\n      jump\t// in\n    tag_525:\n        /* \"#utility.yul\":21994:21996   */\n    tag_524:\n        /* \"#utility.yul\":22115:22119   */\n      0x1f\n        /* \"#utility.yul\":22111:22120   */\n      not\n        /* \"#utility.yul\":22104:22108   */\n      0x1f\n        /* \"#utility.yul\":22096:22102   */\n      dup4\n        /* \"#utility.yul\":22092:22109   */\n      add\n        /* \"#utility.yul\":22088:22121   */\n      and\n        /* \"#utility.yul\":22080:22121   */\n      swap1\n      pop\n        /* \"#utility.yul\":22176:22180   */\n      0x20\n        /* \"#utility.yul\":22170:22174   */\n      dup2\n        /* \"#utility.yul\":22166:22181   */\n      add\n        /* \"#utility.yul\":22158:22181   */\n      swap1\n      pop\n        /* \"#utility.yul\":21923:22188   */\n      swap2\n      swap1\n      pop\n      jump\t// out\n        /* \"#utility.yul\":22194:22292   */\n    tag_397:\n      0x00\n        /* \"#utility.yul\":22279:22284   */\n      dup2\n        /* \"#utility.yul\":22273:22285   */\n      mload\n        /* \"#utility.yul\":22263:22285   */\n      swap1\n      pop\n        /* \"#utility.yul\":22252:22292   */\n      swap2\n      swap1\n      pop\n      jump\t// out\n        /* \"#utility.yul\":22298:22397   */\n    tag_407:\n      0x00\n        /* \"#utility.yul\":22384:22389   */\n      dup2\n        /* \"#utility.yul\":22378:22390   */\n      mload\n        /* \"#utility.yul\":22368:22390   */\n      swap1\n      pop\n        /* \"#utility.yul\":22357:22397   */\n      swap2\n      swap1\n      pop\n      jump\t// out\n        /* \"#utility.yul\":22403:22571   */\n    tag_399:\n      0x00\n        /* \"#utility.yul\":22520:22526   */\n      dup3\n        /* \"#utility.yul\":22515:22518   */\n      dup3\n        /* \"#utility.yul\":22508:22527   */\n      mstore\n        /* \"#utility.yul\":22560:22564   */\n      0x20\n        /* \"#utility.yul\":22555:22558   */\n      dup3\n        /* \"#utility.yul\":22551:22565   */\n      add\n        /* \"#utility.yul\":22536:22565   */\n      swap1\n      pop\n        /* \"#utility.yul\":22498:22571   */\n      swap3\n      swap2\n      pop\n      pop\n      jump\t// out\n        /* \"#utility.yul\":22577:22746   */\n    tag_409:\n      0x00\n        /* \"#utility.yul\":22695:22701   */\n      dup3\n        /* \"#utility.yul\":22690:22693   */\n      dup3\n        /* \"#utility.yul\":22683:22702   */\n      mstore\n        /* \"#utility.yul\":22735:22739   */\n      0x20\n        /* \"#utility.yul\":22730:22733   */\n      dup3\n        /* \"#utility.yul\":22726:22740   */\n      add\n        /* \"#utility.yul\":22711:22740   */\n      swap1\n      pop\n        /* \"#utility.yul\":22673:22746   */\n      swap3\n      swap2\n      pop\n      pop\n      jump\t// out\n        /* \"#utility.yul\":22752:22900   */\n    tag_416:\n      0x00\n        /* \"#utility.yul\":22891:22894   */\n      dup2\n        /* \"#utility.yul\":22876:22894   */\n      swap1\n      pop\n        /* \"#utility.yul\":22866:22900   */\n      swap3\n      swap2\n      pop\n      pop\n      jump\t// out\n        /* \"#utility.yul\":22906:23211   */\n    tag_225:\n      0x00\n        /* \"#utility.yul\":22965:22985   */\n      tag_532\n        /* \"#utility.yul\":22983:22984   */\n      dup3\n        /* \"#utility.yul\":22965:22985   */\n      tag_469\n      jump\t// in\n    tag_532:\n        /* \"#utility.yul\":22960:22985   */\n      swap2\n      pop\n        /* \"#utility.yul\":22999:23019   */\n      tag_533\n        /* \"#utility.yul\":23017:23018   */\n      dup4\n        /* \"#utility.yul\":22999:23019   */\n      tag_469\n      jump\t// in\n    tag_533:\n        /* \"#utility.yul\":22994:23019   */\n      swap3\n      pop\n        /* \"#utility.yul\":23153:23154   */\n      dup3\n        /* \"#utility.yul\":23085:23151   */\n      0xffffffffffffffffffffffffffffffffffffffffffffffffffffffffffffffff\n        /* \"#utility.yul\":23081:23155   */\n      sub\n        /* \"#utility.yul\":23078:23079   */\n      dup3\n        /* \"#utility.yul\":23075:23156   */\n      gt\n        /* \"#utility.yul\":23072:23074   */\n      iszero\n      tag_534\n      jumpi\n        /* \"#utility.yul\":23159:23177   */\n      tag_535\n      tag_536\n      jump\t// in\n    tag_535:\n        /* \"#utility.yul\":23072:23074   */\n    tag_534:\n        /* \"#utility.yul\":23203:23204   */\n      dup3\n        /* \"#utility.yul\":23200:23201   */\n      dup3\n        /* \"#utility.yul\":23196:23205   */\n      add\n        /* \"#utility.yul\":23189:23205   */\n      swap1\n      pop\n        /* \"#utility.yul\":22950:23211   */\n      swap3\n      swap2\n      pop\n      pop\n      jump\t// out\n        /* \"#utility.yul\":23217:23402   */\n    tag_248:\n      0x00\n        /* \"#utility.yul\":23274:23294   */\n      tag_538\n        /* \"#utility.yul\":23292:23293   */\n      dup3\n        /* \"#utility.yul\":23274:23294   */\n      tag_469\n      jump\t// in\n    tag_538:\n        /* \"#utility.yul\":23269:23294   */\n      swap2\n      pop\n        /* \"#utility.yul\":23308:23328   */\n      tag_539\n        /* \"#utility.yul\":23326:23327   */\n      dup4\n        /* \"#utility.yul\":23308:23328   */\n      tag_469\n      jump\t// in\n    tag_539:\n        /* \"#utility.yul\":23303:23328   */\n      swap3\n      pop\n        /* \"#utility.yul\":23347:23348   */\n      dup3\n        /* \"#utility.yul\":23337:23339   */\n      tag_540\n      jumpi\n        /* \"#utility.yul\":23352:23370   */\n      tag_541\n      tag_542\n      jump\t// in\n    tag_541:\n        /* \"#utility.yul\":23337:23339   */\n    tag_540:\n        /* \"#utility.yul\":23394:23395   */\n      dup3\n        /* \"#utility.yul\":23391:23392   */\n      dup3\n        /* \"#utility.yul\":23387:23396   */\n      div\n        /* \"#utility.yul\":23382:23396   */\n      swap1\n      pop\n        /* \"#utility.yul\":23259:23402   */\n      swap3\n      swap2\n      pop\n      pop\n      jump\t// out\n        /* \"#utility.yul\":23408:23599   */\n    tag_223:\n      0x00\n        /* \"#utility.yul\":23468:23488   */\n      tag_544\n        /* \"#utility.yul\":23486:23487   */\n      dup3\n        /* \"#utility.yul\":23468:23488   */\n      tag_469\n      jump\t// in\n    tag_544:\n        /* \"#utility.yul\":23463:23488   */\n      swap2\n      pop\n        /* \"#utility.yul\":23502:23522   */\n      tag_545\n        /* \"#utility.yul\":23520:23521   */\n      dup4\n        /* \"#utility.yul\":23502:23522   */\n      tag_469\n      jump\t// in\n    tag_545:\n        /* \"#utility.yul\":23497:23522   */\n      swap3\n      pop\n        /* \"#utility.yul\":23541:23542   */\n      dup3\n        /* \"#utility.yul\":23538:23539   */\n      dup3\n        /* \"#utility.yul\":23535:23543   */\n      lt\n        /* \"#utility.yul\":23532:23534   */\n      iszero\n      tag_546\n      jumpi\n        /* \"#utility.yul\":23546:23564   */\n      tag_547\n      tag_536\n      jump\t// in\n    tag_547:\n        /* \"#utility.yul\":23532:23534   */\n    tag_546:\n        /* \"#utility.yul\":23591:23592   */\n      dup3\n        /* \"#utility.yul\":23588:23589   */\n      dup3\n        /* \"#utility.yul\":23584:23593   */\n      sub\n        /* \"#utility.yul\":23576:23593   */\n      swap1\n      pop\n        /* \"#utility.yul\":23453:23599   */\n      swap3\n      swap2\n      pop\n      pop\n      jump\t// out\n        /* \"#utility.yul\":23605:23701   */\n    tag_393:\n      0x00\n        /* \"#utility.yul\":23671:23695   */\n      tag_549\n        /* \"#utility.yul\":23689:23694   */\n      dup3\n        /* \"#utility.yul\":23671:23695   */\n      tag_550\n      jump\t// in\n    tag_549:\n        /* \"#utility.yul\":23660:23695   */\n      swap1\n      pop\n        /* \"#utility.yul\":23650:23701   */\n      swap2\n      swap1\n      pop\n      jump\t// out\n        /* \"#utility.yul\":23707:23856   */\n    tag_551:\n      0x00\n        /* \"#utility.yul\":23783:23849   */\n      0xffffffff00000000000000000000000000000000000000000000000000000000\n        /* \"#utility.yul\":23776:23781   */\n      dup3\n        /* \"#utility.yul\":23772:23850   */\n      and\n        /* \"#utility.yul\":23761:23850   */\n      swap1\n      pop\n        /* \"#utility.yul\":23751:23856   */\n      swap2\n      swap1\n      pop\n      jump\t// out\n        /* \"#utility.yul\":23862:23988   */\n    tag_550:\n      0x00\n        /* \"#utility.yul\":23939:23981   */\n      0xffffffffffffffffffffffffffffffffffffffff\n        /* \"#utility.yul\":23932:23937   */\n      dup3\n        /* \"#utility.yul\":23928:23982   */\n      and\n        /* \"#utility.yul\":23917:23982   */\n      swap1\n      pop\n        /* \"#utility.yul\":23907:23988   */\n      swap2\n      swap1\n      pop\n      jump\t// out\n        /* \"#utility.yul\":23994:24071   */\n    tag_469:\n      0x00\n        /* \"#utility.yul\":24060:24065   */\n      dup2\n        /* \"#utility.yul\":24049:24065   */\n      swap1\n      pop\n        /* \"#utility.yul\":24039:24071   */\n      swap2\n      swap1\n      pop\n      jump\t// out\n        /* \"#utility.yul\":24077:24231   */\n    tag_328:\n        /* \"#utility.yul\":24161:24167   */\n      dup3\n        /* \"#utility.yul\":24156:24159   */\n      dup2\n        /* \"#utility.yul\":24151:24154   */\n      dup4\n        /* \"#utility.yul\":24138:24168   */\n      calldatacopy\n        /* \"#utility.yul\":24223:24224   */\n      0x00\n        /* \"#utility.yul\":24214:24220   */\n      dup4\n        /* \"#utility.yul\":24209:24212   */\n      dup4\n        /* \"#utility.yul\":24205:24221   */\n      add\n        /* \"#utility.yul\":24198:24225   */\n      mstore\n        /* \"#utility.yul\":24128:24231   */\n      pop\n      pop\n      pop\n      jump\t// out\n        /* \"#utility.yul\":24237:24544   */\n    tag_401:\n        /* \"#utility.yul\":24305:24306   */\n      0x00\n        /* \"#utility.yul\":24315:24428   */\n    tag_557:\n        /* \"#utility.yul\":24329:24335   */\n      dup4\n        /* \"#utility.yul\":24326:24327   */\n      dup2\n        /* \"#utility.yul\":24323:24336   */\n      lt\n        /* \"#utility.yul\":24315:24428   */\n      iszero\n      tag_559\n      jumpi\n        /* \"#utility.yul\":24414:24415   */\n      dup1\n        /* \"#utility.yul\":24409:24412   */\n      dup3\n        /* \"#utility.yul\":24405:24416   */\n      add\n        /* \"#utility.yul\":24399:24417   */\n      mload\n        /* \"#utility.yul\":24395:24396   */\n      dup2\n        /* \"#utility.yul\":24390:24393   */\n      dup5\n        /* \"#utility.yul\":24386:24397   */\n      add\n        /* \"#utility.yul\":24379:24418   */\n      mstore\n        /* \"#utility.yul\":24351:24353   */\n      0x20\n        /* \"#utility.yul\":24348:24349   */\n      dup2\n        /* \"#utility.yul\":24344:24354   */\n      add\n        /* \"#utility.yul\":24339:24354   */\n      swap1\n      pop\n        /* \"#utility.yul\":24315:24428   */\n      jump(tag_557)\n    tag_559:\n        /* \"#utility.yul\":24446:24452   */\n      dup4\n        /* \"#utility.yul\":24443:24444   */\n      dup2\n        /* \"#utility.yul\":24440:24453   */\n      gt\n        /* \"#utility.yul\":24437:24439   */\n      iszero\n      tag_560\n      jumpi\n        /* \"#utility.yul\":24526:24527   */\n      0x00\n        /* \"#utility.yul\":24517:24523   */\n      dup5\n        /* \"#utility.yul\":24512:24515   */\n      dup5\n        /* \"#utility.yul\":24508:24524   */\n      add\n        /* \"#utility.yul\":24501:24528   */\n      mstore\n        /* \"#utility.yul\":24437:24439   */\n    tag_560:\n        /* \"#utility.yul\":24286:24544   */\n      pop\n      pop\n      pop\n      pop\n      jump\t// out\n        /* \"#utility.yul\":24550:24870   */\n    tag_85:\n      0x00\n        /* \"#utility.yul\":24631:24632   */\n      0x02\n        /* \"#utility.yul\":24625:24629   */\n      dup3\n        /* \"#utility.yul\":24621:24633   */\n      div\n        /* \"#utility.yul\":24611:24633   */\n      swap1\n      pop\n        /* \"#utility.yul\":24678:24679   */\n      0x01\n        /* \"#utility.yul\":24672:24676   */\n      dup3\n        /* \"#utility.yul\":24668:24680   */\n      and\n        /* \"#utility.yul\":24699:24717   */\n      dup1\n        /* \"#utility.yul\":24689:24691   */\n      tag_562\n      jumpi\n        /* \"#utility.yul\":24755:24759   */\n      0x7f\n        /* \"#utility.yul\":24747:24753   */\n      dup3\n        /* \"#utility.yul\":24743:24760   */\n      and\n        /* \"#utility.yul\":24733:24760   */\n      swap2\n      pop\n        /* \"#utility.yul\":24689:24691   */\n    tag_562:\n        /* \"#utility.yul\":24817:24819   */\n      0x20\n        /* \"#utility.yul\":24809:24815   */\n      dup3\n        /* \"#utility.yul\":24806:24820   */\n      lt\n        /* \"#utility.yul\":24786:24804   */\n      dup2\n        /* \"#utility.yul\":24783:24821   */\n      eq\n        /* \"#utility.yul\":24780:24782   */\n      iszero\n      tag_563\n      jumpi\n        /* \"#utility.yul\":24836:24854   */\n      tag_564\n      tag_565\n      jump\t// in\n    tag_564:\n        /* \"#utility.yul\":24780:24782   */\n    tag_563:\n        /* \"#utility.yul\":24601:24870   */\n      pop\n      swap2\n      swap1\n      pop\n      jump\t// out\n        /* \"#utility.yul\":24876:25109   */\n    tag_188:\n      0x00\n        /* \"#utility.yul\":24938:24962   */\n      tag_567\n        /* \"#utility.yul\":24956:24961   */\n      dup3\n        /* \"#utility.yul\":24938:24962   */\n      tag_469\n      jump\t// in\n    tag_567:\n        /* \"#utility.yul\":24929:24962   */\n      swap2\n      pop\n        /* \"#utility.yul\":24984:25050   */\n      0xffffffffffffffffffffffffffffffffffffffffffffffffffffffffffffffff\n        /* \"#utility.yul\":24977:24982   */\n      dup3\n        /* \"#utility.yul\":24974:25051   */\n      eq\n        /* \"#utility.yul\":24971:24973   */\n      iszero\n      tag_568\n      jumpi\n        /* \"#utility.yul\":25054:25072   */\n      tag_569\n      tag_536\n      jump\t// in\n    tag_569:\n        /* \"#utility.yul\":24971:24973   */\n    tag_568:\n        /* \"#utility.yul\":25101:25102   */\n      0x01\n        /* \"#utility.yul\":25094:25099   */\n      dup3\n        /* \"#utility.yul\":25090:25103   */\n      add\n        /* \"#utility.yul\":25083:25103   */\n      swap1\n      pop\n        /* \"#utility.yul\":24919:25109   */\n      swap2\n      swap1\n      pop\n      jump\t// out\n        /* \"#utility.yul\":25115:25291   */\n    tag_255:\n      0x00\n        /* \"#utility.yul\":25164:25184   */\n      tag_571\n        /* \"#utility.yul\":25182:25183   */\n      dup3\n        /* \"#utility.yul\":25164:25184   */\n      tag_469\n      jump\t// in\n    tag_571:\n        /* \"#utility.yul\":25159:25184   */\n      swap2\n      pop\n        /* \"#utility.yul\":25198:25218   */\n      tag_572\n        /* \"#utility.yul\":25216:25217   */\n      dup4\n        /* \"#utility.yul\":25198:25218   */\n      tag_469\n      jump\t// in\n    tag_572:\n        /* \"#utility.yul\":25193:25218   */\n      swap3\n      pop\n        /* \"#utility.yul\":25237:25238   */\n      dup3\n        /* \"#utility.yul\":25227:25229   */\n      tag_573\n      jumpi\n        /* \"#utility.yul\":25242:25260   */\n      tag_574\n      tag_542\n      jump\t// in\n    tag_574:\n        /* \"#utility.yul\":25227:25229   */\n    tag_573:\n        /* \"#utility.yul\":25283:25284   */\n      dup3\n        /* \"#utility.yul\":25280:25281   */\n      dup3\n        /* \"#utility.yul\":25276:25285   */\n      mod\n        /* \"#utility.yul\":25271:25285   */\n      swap1\n      pop\n        /* \"#utility.yul\":25149:25291   */\n      swap3\n      swap2\n      pop\n      pop\n      jump\t// out\n        /* \"#utility.yul\":25297:25477   */\n    tag_536:\n        /* \"#utility.yul\":25345:25422   */\n      0x4e487b7100000000000000000000000000000000000000000000000000000000\n        /* \"#utility.yul\":25342:25343   */\n      0x00\n        /* \"#utility.yul\":25335:25423   */\n      mstore\n        /* \"#utility.yul\":25442:25446   */\n      0x11\n        /* \"#utility.yul\":25439:25440   */\n      0x04\n        /* \"#utility.yul\":25432:25447   */\n      mstore\n        /* \"#utility.yul\":25466:25470   */\n      0x24\n        /* \"#utility.yul\":25463:25464   */\n      0x00\n        /* \"#utility.yul\":25456:25471   */\n      revert\n        /* \"#utility.yul\":25483:25663   */\n    tag_542:\n        /* \"#utility.yul\":25531:25608   */\n      0x4e487b7100000000000000000000000000000000000000000000000000000000\n        /* \"#utility.yul\":25528:25529   */\n      0x00\n        /* \"#utility.yul\":25521:25609   */\n      mstore\n        /* \"#utility.yul\":25628:25632   */\n      0x12\n        /* \"#utility.yul\":25625:25626   */\n      0x04\n        /* \"#utility.yul\":25618:25633   */\n      mstore\n        /* \"#utility.yul\":25652:25656   */\n      0x24\n        /* \"#utility.yul\":25649:25650   */\n      0x00\n        /* \"#utility.yul\":25642:25657   */\n      revert\n        /* \"#utility.yul\":25669:25849   */\n    tag_565:\n        /* \"#utility.yul\":25717:25794   */\n      0x4e487b7100000000000000000000000000000000000000000000000000000000\n        /* \"#utility.yul\":25714:25715   */\n      0x00\n        /* \"#utility.yul\":25707:25795   */\n      mstore\n        /* \"#utility.yul\":25814:25818   */\n      0x22\n        /* \"#utility.yul\":25811:25812   */\n      0x04\n        /* \"#utility.yul\":25804:25819   */\n      mstore\n        /* \"#utility.yul\":25838:25842   */\n      0x24\n        /* \"#utility.yul\":25835:25836   */\n      0x00\n        /* \"#utility.yul\":25828:25843   */\n      revert\n        /* \"#utility.yul\":25855:26035   */\n    tag_519:\n        /* \"#utility.yul\":25903:25980   */\n      0x4e487b7100000000000000000000000000000000000000000000000000000000\n        /* \"#utility.yul\":25900:25901   */\n      0x00\n        /* \"#utility.yul\":25893:25981   */\n      mstore\n        /* \"#utility.yul\":26000:26004   */\n      0x41\n        /* \"#utility.yul\":25997:25998   */\n      0x04\n        /* \"#utility.yul\":25990:26005   */\n      mstore\n        /* \"#utility.yul\":26024:26028   */\n      0x24\n        /* \"#utility.yul\":26021:26022   */\n      0x00\n        /* \"#utility.yul\":26014:26029   */\n      revert\n        /* \"#utility.yul\":26041:26143   */\n    tag_403:\n      0x00\n        /* \"#utility.yul\":26133:26135   */\n      0x1f\n        /* \"#utility.yul\":26129:26136   */\n      not\n        /* \"#utility.yul\":26124:26126   */\n      0x1f\n        /* \"#utility.yul\":26117:26122   */\n      dup4\n        /* \"#utility.yul\":26113:26127   */\n      add\n        /* \"#utility.yul\":26109:26137   */\n      and\n        /* \"#utility.yul\":26099:26137   */\n      swap1\n      pop\n        /* \"#utility.yul\":26089:26143   */\n      swap2\n      swap1\n      pop\n      jump\t// out\n        /* \"#utility.yul\":26149:26271   */\n    tag_339:\n        /* \"#utility.yul\":26222:26246   */\n      tag_581\n        /* \"#utility.yul\":26240:26245   */\n      dup2\n        /* \"#utility.yul\":26222:26246   */\n      tag_393\n      jump\t// in\n    tag_581:\n        /* \"#utility.yul\":26215:26220   */\n      dup2\n        /* \"#utility.yul\":26212:26247   */\n      eq\n        /* \"#utility.yul\":26202:26204   */\n      tag_582\n      jumpi\n        /* \"#utility.yul\":26261:26262   */\n      0x00\n        /* \"#utility.yul\":26258:26259   */\n      dup1\n        /* \"#utility.yul\":26251:26263   */\n      revert\n        /* \"#utility.yul\":26202:26204   */\n    tag_582:\n        /* \"#utility.yul\":26192:26271   */\n      pop\n      jump\t// out\n        /* \"#utility.yul\":26277:26397   */\n    tag_343:\n        /* \"#utility.yul\":26349:26372   */\n      tag_584\n        /* \"#utility.yul\":26366:26371   */\n      dup2\n        /* \"#utility.yul\":26349:26372   */\n      tag_551\n      jump\t// in\n    tag_584:\n        /* \"#utility.yul\":26342:26347   */\n      dup2\n        /* \"#utility.yul\":26339:26373   */\n      eq\n        /* \"#utility.yul\":26329:26331   */\n      tag_585\n      jumpi\n        /* \"#utility.yul\":26387:26388   */\n      0x00\n        /* \"#utility.yul\":26384:26385   */\n      dup1\n        /* \"#utility.yul\":26377:26389   */\n      revert\n        /* \"#utility.yul\":26329:26331   */\n    tag_585:\n        /* \"#utility.yul\":26319:26397   */\n      pop\n      jump\t// out\n        /* \"#utility.yul\":26403:26525   */\n    tag_355:\n        /* \"#utility.yul\":26476:26500   */\n      tag_587\n        /* \"#utility.yul\":26494:26499   */\n      dup2\n        /* \"#utility.yul\":26476:26500   */\n      tag_469\n      jump\t// in\n    tag_587:\n        /* \"#utility.yul\":26469:26474   */\n      dup2\n        /* \"#utility.yul\":26466:26501   */\n      eq\n        /* \"#utility.yul\":26456:26458   */\n      tag_588\n      jumpi\n        /* \"#utility.yul\":26515:26516   */\n      0x00\n        /* \"#utility.yul\":26512:26513   */\n      dup1\n        /* \"#utility.yul\":26505:26517   */\n      revert\n        /* \"#utility.yul\":26456:26458   */\n    tag_588:\n        /* \"#utility.yul\":26446:26525   */\n      pop\n      jump\t// out\n\n    auxdata: 0xa2646970667358221220b004670968c052160cef99c0710cf029f25324b3466d8b6e1a437cdccd8b1b8c64736f6c63430008000033\n}\n",
				"bytecode": {
					"linkReferences": {},
					"object": "60806040526001600b553480156200001657600080fd5b5060405162002e7438038062002e7483398181016040528101906200003c919062000288565b81816200005e620000526200009a60201b60201c565b620000a260201b60201c565b81600790805190602001906200007692919062000166565b5080600890805190602001906200008f92919062000166565b50505050506200042c565b600033905090565b60008060009054906101000a900473ffffffffffffffffffffffffffffffffffffffff169050816000806101000a81548173ffffffffffffffffffffffffffffffffffffffff021916908373ffffffffffffffffffffffffffffffffffffffff1602179055508173ffffffffffffffffffffffffffffffffffffffff168173ffffffffffffffffffffffffffffffffffffffff167f8be0079c531659141344cd1fd0a4f28419497f9722a3daafe3b4186f6b6457e060405160405180910390a35050565b828054620001749062000398565b90600052602060002090601f016020900481019282620001985760008555620001e4565b82601f10620001b357805160ff1916838001178555620001e4565b82800160010185558215620001e4579182015b82811115620001e3578251825591602001919060010190620001c6565b5b509050620001f39190620001f7565b5090565b5b8082111562000212576000816000905550600101620001f8565b5090565b60006200022d62000227846200032f565b620002fb565b9050828152602081018484840111156200024657600080fd5b6200025384828562000362565b509392505050565b600082601f8301126200026d57600080fd5b81516200027f84826020860162000216565b91505092915050565b600080604083850312156200029c57600080fd5b600083015167ffffffffffffffff811115620002b757600080fd5b620002c5858286016200025b565b925050602083015167ffffffffffffffff811115620002e357600080fd5b620002f1858286016200025b565b9150509250929050565b6000604051905081810181811067ffffffffffffffff82111715620003255762000324620003fd565b5b8060405250919050565b600067ffffffffffffffff8211156200034d576200034c620003fd565b5b601f19601f8301169050602081019050919050565b60005b838110156200038257808201518184015260208101905062000365565b8381111562000392576000848401525b50505050565b60006002820490506001821680620003b157607f821691505b60208210811415620003c857620003c7620003ce565b5b50919050565b7f4e487b7100000000000000000000000000000000000000000000000000000000600052602260045260246000fd5b7f4e487b7100000000000000000000000000000000000000000000000000000000600052604160045260246000fd5b612a38806200043c6000396000f3fe608060405234801561001057600080fd5b50600436106101005760003560e01c806370a0823111610097578063b88d4fde11610066578063b88d4fde14610287578063c87b56dd146102a3578063d0def521146102d3578063f2fde38b146102ef57610100565b806370a0823114610211578063715018a6146102415780638da5cb5b1461024b57806395d89b411461026957610100565b806342842e0e116100d357806342842e0e1461018b57806355f804b3146101a757806361b8ce8c146101c35780636352211e146101e157610100565b806306fdde0314610105578063081812fc14610123578063095ea7b31461015357806323b872dd1461016f575b600080fd5b61010d61030b565b60405161011a91906123ce565b60405180910390f35b61013d60048036038101906101389190611c6b565b61039d565b60405161014a9190612367565b60405180910390f35b61016d60048036038101906101689190611bc5565b610422565b005b61018960048036038101906101849190611aa7565b610522565b005b6101a560048036038101906101a09190611aa7565b610582565b005b6101c160048036038101906101bc9190611c2a565b6105a2565b005b6101cb610638565b6040516101d891906125f0565b60405180910390f35b6101fb60048036038101906101f69190611c6b565b61063e565b6040516102089190612367565b60405180910390f35b61022b60048036038101906102269190611a7e565b6106f0565b60405161023891906125f0565b60405180910390f35b6102496107a8565b005b610253610830565b6040516102609190612367565b60405180910390f35b610271610859565b60405161027e91906123ce565b60405180910390f35b6102a1600480360381019061029c9190611af6565b6108eb565b005b6102bd60048036038101906102b89190611c6b565b61094d565b6040516102ca91906123ce565b60405180910390f35b6102ed60048036038101906102e89190611b71565b610ac0565b005b61030960048036038101906103049190611a7e565b610b70565b005b60606007805461031a90612844565b80601f016020809104026020016040519081016040528092919081815260200182805461034690612844565b80156103935780601f1061036857610100808354040283529160200191610393565b820191906000526020600020905b81548152906001019060200180831161037657829003601f168201915b5050505050905090565b60006103a882610c68565b6103e7576040517f08c379a00000000000000000000000000000000000000000000000000000000081526004016103de90612530565b60405180910390fd5b6004600083815260200190815260200160002060009054906101000a900473ffffffffffffffffffffffffffffffffffffffff169050919050565b600061042d8261063e565b90508073ffffffffffffffffffffffffffffffffffffffff168373ffffffffffffffffffffffffffffffffffffffff16141561049e576040517f08c379a0000000000000000000000000000000000000000000000000000000008152600401610495906125b0565b60405180910390fd5b8073ffffffffffffffffffffffffffffffffffffffff166104bd610cd4565b73ffffffffffffffffffffffffffffffffffffffff1614610513576040517f08c379a000000000000000000000000000000000000000000000000000000000815260040161050a906124b0565b60405180910390fd5b61051d8383610cdc565b505050565b61053361052d610cd4565b82610d95565b610572576040517f08c379a0000000000000000000000000000000000000000000000000000000008152600401610569906125d0565b60405180910390fd5b61057d838383610e62565b505050565b61059d838383604051806020016040528060008152506108eb565b505050565b6105aa610cd4565b73ffffffffffffffffffffffffffffffffffffffff166105c8610830565b73ffffffffffffffffffffffffffffffffffffffff161461061e576040517f08c379a000000000000000000000000000000000000000000000000000000000815260040161061590612570565b60405180910390fd5b80600a90805190602001906106349291906118cc565b5050565b600b5481565b6000806002600084815260200190815260200160002060009054906101000a900473ffffffffffffffffffffffffffffffffffffffff169050600073ffffffffffffffffffffffffffffffffffffffff168173ffffffffffffffffffffffffffffffffffffffff1614156106e7576040517f08c379a00000000000000000000000000000000000000000000000000000000081526004016106de906124f0565b60405180910390fd5b80915050919050565b60008073ffffffffffffffffffffffffffffffffffffffff168273ffffffffffffffffffffffffffffffffffffffff161415610761576040517f08c379a0000000000000000000000000000000000000000000000000000000008152600401610758906124d0565b60405180910390fd5b600160008373ffffffffffffffffffffffffffffffffffffffff1673ffffffffffffffffffffffffffffffffffffffff168152602001908152602001600020549050919050565b6107b0610cd4565b73ffffffffffffffffffffffffffffffffffffffff166107ce610830565b73ffffffffffffffffffffffffffffffffffffffff1614610824576040517f08c379a000000000000000000000000000000000000000000000000000000000815260040161081b90612570565b60405180910390fd5b61082e60006110c7565b565b60008060009054906101000a900473ffffffffffffffffffffffffffffffffffffffff16905090565b60606008805461086890612844565b80601f016020809104026020016040519081016040528092919081815260200182805461089490612844565b80156108e15780601f106108b6576101008083540402835291602001916108e1565b820191906000526020600020905b8154815290600101906020018083116108c457829003601f168201915b5050505050905090565b6108fc6108f6610cd4565b83610d95565b61093b576040517f08c379a0000000000000000000000000000000000000000000000000000000008152600401610932906125d0565b60405180910390fd5b6109478484848461118b565b50505050565b606061095882610c68565b610997576040517f08c379a000000000000000000000000000000000000000000000000000000000815260040161098e90612590565b60405180910390fd5b6000600d600084815260200190815260200160002080546109b790612844565b80601f01602080910402602001604051908101604052809291908181526020018280546109e390612844565b8015610a305780601f10610a0557610100808354040283529160200191610a30565b820191906000526020600020905b815481529060010190602001808311610a1357829003601f168201915b505050505090506000610a416111e7565b9050600081511415610a57578192505050610abb565b600082511115610a8c578082604051602001610a74929190612343565b60405160208183030381529060405292505050610abb565b80610a9685611279565b604051602001610aa7929190612343565b604051602081830303815290604052925050505b919050565b610ac8610cd4565b73ffffffffffffffffffffffffffffffffffffffff16610ae6610830565b73ffffffffffffffffffffffffffffffffffffffff1614610b3c576040517f08c379a0000000000000000000000000000000000000000000000000000000008152600401610b3390612570565b60405180910390fd5b610b4882600b54611426565b610b54600b5482611444565b600b6000815480929190610b6790612876565b91905055505050565b610b78610cd4565b73ffffffffffffffffffffffffffffffffffffffff16610b96610830565b73ffffffffffffffffffffffffffffffffffffffff1614610bec576040517f08c379a0000000000000000000000000000000000000000000000000000000008152600401610be390612570565b60405180910390fd5b600073ffffffffffffffffffffffffffffffffffffffff168173ffffffffffffffffffffffffffffffffffffffff161415610c5c576040517f08c379a0000000000000000000000000000000000000000000000000000000008152600401610c5390612410565b60405180910390fd5b610c65816110c7565b50565b60008073ffffffffffffffffffffffffffffffffffffffff166002600084815260200190815260200160002060009054906101000a900473ffffffffffffffffffffffffffffffffffffffff1673ffffffffffffffffffffffffffffffffffffffff1614159050919050565b600033905090565b816004600083815260200190815260200160002060006101000a81548173ffffffffffffffffffffffffffffffffffffffff021916908373ffffffffffffffffffffffffffffffffffffffff160217905550808273ffffffffffffffffffffffffffffffffffffffff16610d4f8361063e565b73ffffffffffffffffffffffffffffffffffffffff167f8c5be1e5ebec7d5bd14f71427d1e84f3dd0314c0f7b2291e5b200ac8c7c3b92560405160405180910390a45050565b6000610da082610c68565b610ddf576040517f08c379a0000000000000000000000000000000000000000000000000000000008152600401610dd690612490565b60405180910390fd5b6000610dea8361063e565b90508073ffffffffffffffffffffffffffffffffffffffff168473ffffffffffffffffffffffffffffffffffffffff161480610e5957508373ffffffffffffffffffffffffffffffffffffffff16610e418461039d565b73ffffffffffffffffffffffffffffffffffffffff16145b91505092915050565b8273ffffffffffffffffffffffffffffffffffffffff16610e828261063e565b73ffffffffffffffffffffffffffffffffffffffff1614610ed8576040517f08c379a0000000000000000000000000000000000000000000000000000000008152600401610ecf90612430565b60405180910390fd5b600073ffffffffffffffffffffffffffffffffffffffff168273ffffffffffffffffffffffffffffffffffffffff161415610f48576040517f08c379a0000000000000000000000000000000000000000000000000000000008152600401610f3f90612470565b60405180910390fd5b610f538383836114b8565b610f5e600082610cdc565b60018060008573ffffffffffffffffffffffffffffffffffffffff1673ffffffffffffffffffffffffffffffffffffffff1681526020019081526020016000206000828254610fad9190612766565b9250508190555060018060008473ffffffffffffffffffffffffffffffffffffffff1673ffffffffffffffffffffffffffffffffffffffff168152602001908152602001600020600082825461100391906126df565b92505081905550816002600083815260200190815260200160002060006101000a81548173ffffffffffffffffffffffffffffffffffffffff021916908373ffffffffffffffffffffffffffffffffffffffff160217905550808273ffffffffffffffffffffffffffffffffffffffff168473ffffffffffffffffffffffffffffffffffffffff167fddf252ad1be2c89b69c2b068fc378daa952ba7f163c4a11628f55a4df523b3ef60405160405180910390a46110c28383836114bd565b505050565b60008060009054906101000a900473ffffffffffffffffffffffffffffffffffffffff169050816000806101000a81548173ffffffffffffffffffffffffffffffffffffffff021916908373ffffffffffffffffffffffffffffffffffffffff1602179055508173ffffffffffffffffffffffffffffffffffffffff168173ffffffffffffffffffffffffffffffffffffffff167f8be0079c531659141344cd1fd0a4f28419497f9722a3daafe3b4186f6b6457e060405160405180910390a35050565b611196848484610e62565b6111a2848484846114c2565b6111e1576040517f08c379a00000000000000000000000000000000000000000000000000000000081526004016111d8906123f0565b60405180910390fd5b50505050565b6060600a80546111f690612844565b80601f016020809104026020016040519081016040528092919081815260200182805461122290612844565b801561126f5780601f106112445761010080835404028352916020019161126f565b820191906000526020600020905b81548152906001019060200180831161125257829003601f168201915b5050505050905090565b606060008214156112c1576040518060400160405280600181526020017f30000000000000000000000000000000000000000000000000000000000000008152509050611421565b600082905060005b600082146112f35780806112dc90612876565b915050600a826112ec9190612735565b91506112c9565b60008167ffffffffffffffff811115611335577f4e487b7100000000000000000000000000000000000000000000000000000000600052604160045260246000fd5b6040519080825280601f01601f1916602001820160405280156113675781602001600182028036833780820191505090505b5090505b6000851461141a576001826113809190612766565b9150600a8561138f91906128bf565b603061139b91906126df565b60f81b8183815181106113d7577f4e487b7100000000000000000000000000000000000000000000000000000000600052603260045260246000fd5b60200101907effffffffffffffffffffffffffffffffffffffffffffffffffffffffffffff1916908160001a905350600a856114139190612735565b945061136b565b8093505050505b919050565b611440828260405180602001604052806000815250611659565b5050565b61144d82610c68565b61148c576040517f08c379a000000000000000000000000000000000000000000000000000000000815260040161148390612550565b60405180910390fd5b80600d600084815260200190815260200160002090805190602001906114b39291906118cc565b505050565b505050565b505050565b60006114e38473ffffffffffffffffffffffffffffffffffffffff166116b4565b1561164c578373ffffffffffffffffffffffffffffffffffffffff1663150b7a0261150c610cd4565b8786866040518563ffffffff1660e01b815260040161152e9493929190612382565b602060405180830381600087803b15801561154857600080fd5b505af192505050801561157957506040513d601f19601f820116820180604052508101906115769190611c01565b60015b6115fc573d80600081146115a9576040519150601f19603f3d011682016040523d82523d6000602084013e6115ae565b606091505b506000815114156115f4576040517f08c379a00000000000000000000000000000000000000000000000000000000081526004016115eb906123f0565b60405180910390fd5b805181602001fd5b63150b7a0260e01b7bffffffffffffffffffffffffffffffffffffffffffffffffffffffff1916817bffffffffffffffffffffffffffffffffffffffffffffffffffffffff191614915050611651565b600190505b949350505050565b61166383836116f3565b61167060008484846114c2565b6116af576040517f08c379a00000000000000000000000000000000000000000000000000000000081526004016116a6906123f0565b60405180910390fd5b505050565b6000808273ffffffffffffffffffffffffffffffffffffffff16803b806020016040519081016040528181526000908060200190933c51119050919050565b600073ffffffffffffffffffffffffffffffffffffffff168273ffffffffffffffffffffffffffffffffffffffff161415611763576040517f08c379a000000000000000000000000000000000000000000000000000000000815260040161175a90612510565b60405180910390fd5b61176c81610c68565b156117ac576040517f08c379a00000000000000000000000000000000000000000000000000000000081526004016117a390612450565b60405180910390fd5b6117b8600083836114b8565b60018060008473ffffffffffffffffffffffffffffffffffffffff1673ffffffffffffffffffffffffffffffffffffffff168152602001908152602001600020600082825461180791906126df565b92505081905550816002600083815260200190815260200160002060006101000a81548173ffffffffffffffffffffffffffffffffffffffff021916908373ffffffffffffffffffffffffffffffffffffffff160217905550808273ffffffffffffffffffffffffffffffffffffffff16600073ffffffffffffffffffffffffffffffffffffffff167fddf252ad1be2c89b69c2b068fc378daa952ba7f163c4a11628f55a4df523b3ef60405160405180910390a46118c8600083836114bd565b5050565b8280546118d890612844565b90600052602060002090601f0160209004810192826118fa5760008555611941565b82601f1061191357805160ff1916838001178555611941565b82800160010185558215611941579182015b82811115611940578251825591602001919060010190611925565b5b50905061194e9190611952565b5090565b5b8082111561196b576000816000905550600101611953565b5090565b600061198261197d8461263c565b61260b565b90508281526020810184848401111561199a57600080fd5b6119a5848285612802565b509392505050565b60006119c06119bb8461266c565b61260b565b9050828152602081018484840111156119d857600080fd5b6119e3848285612802565b509392505050565b6000813590506119fa816129bd565b92915050565b600081519050611a0f816129d4565b92915050565b600082601f830112611a2657600080fd5b8135611a3684826020860161196f565b91505092915050565b600082601f830112611a5057600080fd5b8135611a608482602086016119ad565b91505092915050565b600081359050611a78816129eb565b92915050565b600060208284031215611a9057600080fd5b6000611a9e848285016119eb565b91505092915050565b600080600060608486031215611abc57600080fd5b6000611aca868287016119eb565b9350506020611adb868287016119eb565b9250506040611aec86828701611a69565b9150509250925092565b60008060008060808587031215611b0c57600080fd5b6000611b1a878288016119eb565b9450506020611b2b878288016119eb565b9350506040611b3c87828801611a69565b925050606085013567ffffffffffffffff811115611b5957600080fd5b611b6587828801611a15565b91505092959194509250565b60008060408385031215611b8457600080fd5b6000611b92858286016119eb565b925050602083013567ffffffffffffffff811115611baf57600080fd5b611bbb85828601611a3f565b9150509250929050565b60008060408385031215611bd857600080fd5b6000611be6858286016119eb565b9250506020611bf785828601611a69565b9150509250929050565b600060208284031215611c1357600080fd5b6000611c2184828501611a00565b91505092915050565b600060208284031215611c3c57600080fd5b600082013567ffffffffffffffff811115611c5657600080fd5b611c6284828501611a3f565b91505092915050565b600060208284031215611c7d57600080fd5b6000611c8b84828501611a69565b91505092915050565b611c9d8161279a565b82525050565b6000611cae8261269c565b611cb881856126b2565b9350611cc8818560208601612811565b611cd1816129ac565b840191505092915050565b6000611ce7826126a7565b611cf181856126c3565b9350611d01818560208601612811565b611d0a816129ac565b840191505092915050565b6000611d20826126a7565b611d2a81856126d4565b9350611d3a818560208601612811565b80840191505092915050565b6000611d536032836126c3565b91507f4552433732313a207472616e7366657220746f206e6f6e20455243373231526560008301527f63656976657220696d706c656d656e74657200000000000000000000000000006020830152604082019050919050565b6000611db96026836126c3565b91507f4f776e61626c653a206e6577206f776e657220697320746865207a65726f206160008301527f64647265737300000000000000000000000000000000000000000000000000006020830152604082019050919050565b6000611e1f6025836126c3565b91507f4552433732313a207472616e736665722066726f6d20696e636f72726563742060008301527f6f776e65720000000000000000000000000000000000000000000000000000006020830152604082019050919050565b6000611e85601c836126c3565b91507f4552433732313a20746f6b656e20616c7265616479206d696e746564000000006000830152602082019050919050565b6000611ec56024836126c3565b91507f4552433732313a207472616e7366657220746f20746865207a65726f2061646460008301527f72657373000000000000000000000000000000000000000000000000000000006020830152604082019050919050565b6000611f2b602c836126c3565b91507f4552433732313a206f70657261746f7220717565727920666f72206e6f6e657860008301527f697374656e7420746f6b656e00000000000000000000000000000000000000006020830152604082019050919050565b6000611f916038836126c3565b91507f4552433732313a20617070726f76652063616c6c6572206973206e6f74206f7760008301527f6e6572206e6f7220617070726f76656420666f7220616c6c00000000000000006020830152604082019050919050565b6000611ff7602a836126c3565b91507f4552433732313a2062616c616e636520717565727920666f7220746865207a6560008301527f726f2061646472657373000000000000000000000000000000000000000000006020830152604082019050919050565b600061205d6029836126c3565b91507f4552433732313a206f776e657220717565727920666f72206e6f6e657869737460008301527f656e7420746f6b656e00000000000000000000000000000000000000000000006020830152604082019050919050565b60006120c36020836126c3565b91507f4552433732313a206d696e7420746f20746865207a65726f20616464726573736000830152602082019050919050565b6000612103602c836126c3565b91507f4552433732313a20617070726f76656420717565727920666f72206e6f6e657860008301527f697374656e7420746f6b656e00000000000000000000000000000000000000006020830152604082019050919050565b6000612169602c836126c3565b91507f4552433732314d657461646174613a2055524920736574206f66206e6f6e657860008301527f697374656e7420746f6b656e00000000000000000000000000000000000000006020830152604082019050919050565b60006121cf6020836126c3565b91507f4f776e61626c653a2063616c6c6572206973206e6f7420746865206f776e65726000830152602082019050919050565b600061220f602f836126c3565b91507f4552433732314d657461646174613a2055524920717565727920666f72206e6f60008301527f6e6578697374656e7420746f6b656e00000000000000000000000000000000006020830152604082019050919050565b60006122756021836126c3565b91507f4552433732313a20617070726f76616c20746f2063757272656e74206f776e6560008301527f72000000000000000000000000000000000000000000000000000000000000006020830152604082019050919050565b60006122db6031836126c3565b91507f4552433732313a207472616e736665722063616c6c6572206973206e6f74206f60008301527f776e6572206e6f7220617070726f7665640000000000000000000000000000006020830152604082019050919050565b61233d816127f8565b82525050565b600061234f8285611d15565b915061235b8284611d15565b91508190509392505050565b600060208201905061237c6000830184611c94565b92915050565b60006080820190506123976000830187611c94565b6123a46020830186611c94565b6123b16040830185612334565b81810360608301526123c38184611ca3565b905095945050505050565b600060208201905081810360008301526123e88184611cdc565b905092915050565b6000602082019050818103600083015261240981611d46565b9050919050565b6000602082019050818103600083015261242981611dac565b9050919050565b6000602082019050818103600083015261244981611e12565b9050919050565b6000602082019050818103600083015261246981611e78565b9050919050565b6000602082019050818103600083015261248981611eb8565b9050919050565b600060208201905081810360008301526124a981611f1e565b9050919050565b600060208201905081810360008301526124c981611f84565b9050919050565b600060208201905081810360008301526124e981611fea565b9050919050565b6000602082019050818103600083015261250981612050565b9050919050565b60006020820190508181036000830152612529816120b6565b9050919050565b60006020820190508181036000830152612549816120f6565b9050919050565b600060208201905081810360008301526125698161215c565b9050919050565b60006020820190508181036000830152612589816121c2565b9050919050565b600060208201905081810360008301526125a981612202565b9050919050565b600060208201905081810360008301526125c981612268565b9050919050565b600060208201905081810360008301526125e9816122ce565b9050919050565b60006020820190506126056000830184612334565b92915050565b6000604051905081810181811067ffffffffffffffff821117156126325761263161297d565b5b8060405250919050565b600067ffffffffffffffff8211156126575761265661297d565b5b601f19601f8301169050602081019050919050565b600067ffffffffffffffff8211156126875761268661297d565b5b601f19601f8301169050602081019050919050565b600081519050919050565b600081519050919050565b600082825260208201905092915050565b600082825260208201905092915050565b600081905092915050565b60006126ea826127f8565b91506126f5836127f8565b9250827fffffffffffffffffffffffffffffffffffffffffffffffffffffffffffffffff0382111561272a576127296128f0565b5b828201905092915050565b6000612740826127f8565b915061274b836127f8565b92508261275b5761275a61291f565b5b828204905092915050565b6000612771826127f8565b915061277c836127f8565b92508282101561278f5761278e6128f0565b5b828203905092915050565b60006127a5826127d8565b9050919050565b60007fffffffff0000000000000000000000000000000000000000000000000000000082169050919050565b600073ffffffffffffffffffffffffffffffffffffffff82169050919050565b6000819050919050565b82818337600083830152505050565b60005b8381101561282f578082015181840152602081019050612814565b8381111561283e576000848401525b50505050565b6000600282049050600182168061285c57607f821691505b602082108114156128705761286f61294e565b5b50919050565b6000612881826127f8565b91507fffffffffffffffffffffffffffffffffffffffffffffffffffffffffffffffff8214156128b4576128b36128f0565b5b600182019050919050565b60006128ca826127f8565b91506128d5836127f8565b9250826128e5576128e461291f565b5b828206905092915050565b7f4e487b7100000000000000000000000000000000000000000000000000000000600052601160045260246000fd5b7f4e487b7100000000000000000000000000000000000000000000000000000000600052601260045260246000fd5b7f4e487b7100000000000000000000000000000000000000000000000000000000600052602260045260246000fd5b7f4e487b7100000000000000000000000000000000000000000000000000000000600052604160045260246000fd5b6000601f19601f8301169050919050565b6129c68161279a565b81146129d157600080fd5b50565b6129dd816127ac565b81146129e857600080fd5b50565b6129f4816127f8565b81146129ff57600080fd5b5056fea2646970667358221220b004670968c052160cef99c0710cf029f25324b3466d8b6e1a437cdccd8b1b8c64736f6c63430008000033",
					"opcodes": "PUSH1 0x80 PUSH1 0x40 MSTORE PUSH1 0x1 PUSH1 0xB SSTORE CALLVALUE DUP1 ISZERO PUSH3 0x16 JUMPI PUSH1 0x0 DUP1 REVERT JUMPDEST POP PUSH1 0x40 MLOAD PUSH3 0x2E74 CODESIZE SUB DUP1 PUSH3 0x2E74 DUP4 CODECOPY DUP2 DUP2 ADD PUSH1 0x40 MSTORE DUP2 ADD SWAP1 PUSH3 0x3C SWAP2 SWAP1 PUSH3 0x288 JUMP JUMPDEST DUP2 DUP2 PUSH3 0x5E PUSH3 0x52 PUSH3 0x9A PUSH1 0x20 SHL PUSH1 0x20 SHR JUMP JUMPDEST PUSH3 0xA2 PUSH1 0x20 SHL PUSH1 0x20 SHR JUMP JUMPDEST DUP2 PUSH1 0x7 SWAP1 DUP1 MLOAD SWAP1 PUSH1 0x20 ADD SWAP1 PUSH3 0x76 SWAP3 SWAP2 SWAP1 PUSH3 0x166 JUMP JUMPDEST POP DUP1 PUSH1 0x8 SWAP1 DUP1 MLOAD SWAP1 PUSH1 0x20 ADD SWAP1 PUSH3 0x8F SWAP3 SWAP2 SWAP1 PUSH3 0x166 JUMP JUMPDEST POP POP POP POP POP PUSH3 0x42C JUMP JUMPDEST PUSH1 0x0 CALLER SWAP1 POP SWAP1 JUMP JUMPDEST PUSH1 0x0 DUP1 PUSH1 0x0 SWAP1 SLOAD SWAP1 PUSH2 0x100 EXP SWAP1 DIV PUSH20 0xFFFFFFFFFFFFFFFFFFFFFFFFFFFFFFFFFFFFFFFF AND SWAP1 POP DUP2 PUSH1 0x0 DUP1 PUSH2 0x100 EXP DUP2 SLOAD DUP2 PUSH20 0xFFFFFFFFFFFFFFFFFFFFFFFFFFFFFFFFFFFFFFFF MUL NOT AND SWAP1 DUP4 PUSH20 0xFFFFFFFFFFFFFFFFFFFFFFFFFFFFFFFFFFFFFFFF AND MUL OR SWAP1 SSTORE POP DUP2 PUSH20 0xFFFFFFFFFFFFFFFFFFFFFFFFFFFFFFFFFFFFFFFF AND DUP2 PUSH20 0xFFFFFFFFFFFFFFFFFFFFFFFFFFFFFFFFFFFFFFFF AND PUSH32 0x8BE0079C531659141344CD1FD0A4F28419497F9722A3DAAFE3B4186F6B6457E0 PUSH1 0x40 MLOAD PUSH1 0x40 MLOAD DUP1 SWAP2 SUB SWAP1 LOG3 POP POP JUMP JUMPDEST DUP3 DUP1 SLOAD PUSH3 0x174 SWAP1 PUSH3 0x398 JUMP JUMPDEST SWAP1 PUSH1 0x0 MSTORE PUSH1 0x20 PUSH1 0x0 KECCAK256 SWAP1 PUSH1 0x1F ADD PUSH1 0x20 SWAP1 DIV DUP2 ADD SWAP3 DUP3 PUSH3 0x198 JUMPI PUSH1 0x0 DUP6 SSTORE PUSH3 0x1E4 JUMP JUMPDEST DUP3 PUSH1 0x1F LT PUSH3 0x1B3 JUMPI DUP1 MLOAD PUSH1 0xFF NOT AND DUP4 DUP1 ADD OR DUP6 SSTORE PUSH3 0x1E4 JUMP JUMPDEST DUP3 DUP1 ADD PUSH1 0x1 ADD DUP6 SSTORE DUP3 ISZERO PUSH3 0x1E4 JUMPI SWAP2 DUP3 ADD JUMPDEST DUP3 DUP2 GT ISZERO PUSH3 0x1E3 JUMPI DUP3 MLOAD DUP3 SSTORE SWAP2 PUSH1 0x20 ADD SWAP2 SWAP1 PUSH1 0x1 ADD SWAP1 PUSH3 0x1C6 JUMP JUMPDEST JUMPDEST POP SWAP1 POP PUSH3 0x1F3 SWAP2 SWAP1 PUSH3 0x1F7 JUMP JUMPDEST POP SWAP1 JUMP JUMPDEST JUMPDEST DUP1 DUP3 GT ISZERO PUSH3 0x212 JUMPI PUSH1 0x0 DUP2 PUSH1 0x0 SWAP1 SSTORE POP PUSH1 0x1 ADD PUSH3 0x1F8 JUMP JUMPDEST POP SWAP1 JUMP JUMPDEST PUSH1 0x0 PUSH3 0x22D PUSH3 0x227 DUP5 PUSH3 0x32F JUMP JUMPDEST PUSH3 0x2FB JUMP JUMPDEST SWAP1 POP DUP3 DUP2 MSTORE PUSH1 0x20 DUP2 ADD DUP5 DUP5 DUP5 ADD GT ISZERO PUSH3 0x246 JUMPI PUSH1 0x0 DUP1 REVERT JUMPDEST PUSH3 0x253 DUP5 DUP3 DUP6 PUSH3 0x362 JUMP JUMPDEST POP SWAP4 SWAP3 POP POP POP JUMP JUMPDEST PUSH1 0x0 DUP3 PUSH1 0x1F DUP4 ADD SLT PUSH3 0x26D JUMPI PUSH1 0x0 DUP1 REVERT JUMPDEST DUP2 MLOAD PUSH3 0x27F DUP5 DUP3 PUSH1 0x20 DUP7 ADD PUSH3 0x216 JUMP JUMPDEST SWAP2 POP POP SWAP3 SWAP2 POP POP JUMP JUMPDEST PUSH1 0x0 DUP1 PUSH1 0x40 DUP4 DUP6 SUB SLT ISZERO PUSH3 0x29C JUMPI PUSH1 0x0 DUP1 REVERT JUMPDEST PUSH1 0x0 DUP4 ADD MLOAD PUSH8 0xFFFFFFFFFFFFFFFF DUP2 GT ISZERO PUSH3 0x2B7 JUMPI PUSH1 0x0 DUP1 REVERT JUMPDEST PUSH3 0x2C5 DUP6 DUP3 DUP7 ADD PUSH3 0x25B JUMP JUMPDEST SWAP3 POP POP PUSH1 0x20 DUP4 ADD MLOAD PUSH8 0xFFFFFFFFFFFFFFFF DUP2 GT ISZERO PUSH3 0x2E3 JUMPI PUSH1 0x0 DUP1 REVERT JUMPDEST PUSH3 0x2F1 DUP6 DUP3 DUP7 ADD PUSH3 0x25B JUMP JUMPDEST SWAP2 POP POP SWAP3 POP SWAP3 SWAP1 POP JUMP JUMPDEST PUSH1 0x0 PUSH1 0x40 MLOAD SWAP1 POP DUP2 DUP2 ADD DUP2 DUP2 LT PUSH8 0xFFFFFFFFFFFFFFFF DUP3 GT OR ISZERO PUSH3 0x325 JUMPI PUSH3 0x324 PUSH3 0x3FD JUMP JUMPDEST JUMPDEST DUP1 PUSH1 0x40 MSTORE POP SWAP2 SWAP1 POP JUMP JUMPDEST PUSH1 0x0 PUSH8 0xFFFFFFFFFFFFFFFF DUP3 GT ISZERO PUSH3 0x34D JUMPI PUSH3 0x34C PUSH3 0x3FD JUMP JUMPDEST JUMPDEST PUSH1 0x1F NOT PUSH1 0x1F DUP4 ADD AND SWAP1 POP PUSH1 0x20 DUP2 ADD SWAP1 POP SWAP2 SWAP1 POP JUMP JUMPDEST PUSH1 0x0 JUMPDEST DUP4 DUP2 LT ISZERO PUSH3 0x382 JUMPI DUP1 DUP3 ADD MLOAD DUP2 DUP5 ADD MSTORE PUSH1 0x20 DUP2 ADD SWAP1 POP PUSH3 0x365 JUMP JUMPDEST DUP4 DUP2 GT ISZERO PUSH3 0x392 JUMPI PUSH1 0x0 DUP5 DUP5 ADD MSTORE JUMPDEST POP POP POP POP JUMP JUMPDEST PUSH1 0x0 PUSH1 0x2 DUP3 DIV SWAP1 POP PUSH1 0x1 DUP3 AND DUP1 PUSH3 0x3B1 JUMPI PUSH1 0x7F DUP3 AND SWAP2 POP JUMPDEST PUSH1 0x20 DUP3 LT DUP2 EQ ISZERO PUSH3 0x3C8 JUMPI PUSH3 0x3C7 PUSH3 0x3CE JUMP JUMPDEST JUMPDEST POP SWAP2 SWAP1 POP JUMP JUMPDEST PUSH32 0x4E487B7100000000000000000000000000000000000000000000000000000000 PUSH1 0x0 MSTORE PUSH1 0x22 PUSH1 0x4 MSTORE PUSH1 0x24 PUSH1 0x0 REVERT JUMPDEST PUSH32 0x4E487B7100000000000000000000000000000000000000000000000000000000 PUSH1 0x0 MSTORE PUSH1 0x41 PUSH1 0x4 MSTORE PUSH1 0x24 PUSH1 0x0 REVERT JUMPDEST PUSH2 0x2A38 DUP1 PUSH3 0x43C PUSH1 0x0 CODECOPY PUSH1 0x0 RETURN INVALID PUSH1 0x80 PUSH1 0x40 MSTORE CALLVALUE DUP1 ISZERO PUSH2 0x10 JUMPI PUSH1 0x0 DUP1 REVERT JUMPDEST POP PUSH1 0x4 CALLDATASIZE LT PUSH2 0x100 JUMPI PUSH1 0x0 CALLDATALOAD PUSH1 0xE0 SHR DUP1 PUSH4 0x70A08231 GT PUSH2 0x97 JUMPI DUP1 PUSH4 0xB88D4FDE GT PUSH2 0x66 JUMPI DUP1 PUSH4 0xB88D4FDE EQ PUSH2 0x287 JUMPI DUP1 PUSH4 0xC87B56DD EQ PUSH2 0x2A3 JUMPI DUP1 PUSH4 0xD0DEF521 EQ PUSH2 0x2D3 JUMPI DUP1 PUSH4 0xF2FDE38B EQ PUSH2 0x2EF JUMPI PUSH2 0x100 JUMP JUMPDEST DUP1 PUSH4 0x70A08231 EQ PUSH2 0x211 JUMPI DUP1 PUSH4 0x715018A6 EQ PUSH2 0x241 JUMPI DUP1 PUSH4 0x8DA5CB5B EQ PUSH2 0x24B JUMPI DUP1 PUSH4 0x95D89B41 EQ PUSH2 0x269 JUMPI PUSH2 0x100 JUMP JUMPDEST DUP1 PUSH4 0x42842E0E GT PUSH2 0xD3 JUMPI DUP1 PUSH4 0x42842E0E EQ PUSH2 0x18B JUMPI DUP1 PUSH4 0x55F804B3 EQ PUSH2 0x1A7 JUMPI DUP1 PUSH4 0x61B8CE8C EQ PUSH2 0x1C3 JUMPI DUP1 PUSH4 0x6352211E EQ PUSH2 0x1E1 JUMPI PUSH2 0x100 JUMP JUMPDEST DUP1 PUSH4 0x6FDDE03 EQ PUSH2 0x105 JUMPI DUP1 PUSH4 0x81812FC EQ PUSH2 0x123 JUMPI DUP1 PUSH4 0x95EA7B3 EQ PUSH2 0x153 JUMPI DUP1 PUSH4 0x23B872DD EQ PUSH2 0x16F JUMPI JUMPDEST PUSH1 0x0 DUP1 REVERT JUMPDEST PUSH2 0x10D PUSH2 0x30B JUMP JUMPDEST PUSH1 0x40 MLOAD PUSH2 0x11A SWAP2 SWAP1 PUSH2 0x23CE JUMP JUMPDEST PUSH1 0x40 MLOAD DUP1 SWAP2 SUB SWAP1 RETURN JUMPDEST PUSH2 0x13D PUSH1 0x4 DUP1 CALLDATASIZE SUB DUP2 ADD SWAP1 PUSH2 0x138 SWAP2 SWAP1 PUSH2 0x1C6B JUMP JUMPDEST PUSH2 0x39D JUMP JUMPDEST PUSH1 0x40 MLOAD PUSH2 0x14A SWAP2 SWAP1 PUSH2 0x2367 JUMP JUMPDEST PUSH1 0x40 MLOAD DUP1 SWAP2 SUB SWAP1 RETURN JUMPDEST PUSH2 0x16D PUSH1 0x4 DUP1 CALLDATASIZE SUB DUP2 ADD SWAP1 PUSH2 0x168 SWAP2 SWAP1 PUSH2 0x1BC5 JUMP JUMPDEST PUSH2 0x422 JUMP JUMPDEST STOP JUMPDEST PUSH2 0x189 PUSH1 0x4 DUP1 CALLDATASIZE SUB DUP2 ADD SWAP1 PUSH2 0x184 SWAP2 SWAP1 PUSH2 0x1AA7 JUMP JUMPDEST PUSH2 0x522 JUMP JUMPDEST STOP JUMPDEST PUSH2 0x1A5 PUSH1 0x4 DUP1 CALLDATASIZE SUB DUP2 ADD SWAP1 PUSH2 0x1A0 SWAP2 SWAP1 PUSH2 0x1AA7 JUMP JUMPDEST PUSH2 0x582 JUMP JUMPDEST STOP JUMPDEST PUSH2 0x1C1 PUSH1 0x4 DUP1 CALLDATASIZE SUB DUP2 ADD SWAP1 PUSH2 0x1BC SWAP2 SWAP1 PUSH2 0x1C2A JUMP JUMPDEST PUSH2 0x5A2 JUMP JUMPDEST STOP JUMPDEST PUSH2 0x1CB PUSH2 0x638 JUMP JUMPDEST PUSH1 0x40 MLOAD PUSH2 0x1D8 SWAP2 SWAP1 PUSH2 0x25F0 JUMP JUMPDEST PUSH1 0x40 MLOAD DUP1 SWAP2 SUB SWAP1 RETURN JUMPDEST PUSH2 0x1FB PUSH1 0x4 DUP1 CALLDATASIZE SUB DUP2 ADD SWAP1 PUSH2 0x1F6 SWAP2 SWAP1 PUSH2 0x1C6B JUMP JUMPDEST PUSH2 0x63E JUMP JUMPDEST PUSH1 0x40 MLOAD PUSH2 0x208 SWAP2 SWAP1 PUSH2 0x2367 JUMP JUMPDEST PUSH1 0x40 MLOAD DUP1 SWAP2 SUB SWAP1 RETURN JUMPDEST PUSH2 0x22B PUSH1 0x4 DUP1 CALLDATASIZE SUB DUP2 ADD SWAP1 PUSH2 0x226 SWAP2 SWAP1 PUSH2 0x1A7E JUMP JUMPDEST PUSH2 0x6F0 JUMP JUMPDEST PUSH1 0x40 MLOAD PUSH2 0x238 SWAP2 SWAP1 PUSH2 0x25F0 JUMP JUMPDEST PUSH1 0x40 MLOAD DUP1 SWAP2 SUB SWAP1 RETURN JUMPDEST PUSH2 0x249 PUSH2 0x7A8 JUMP JUMPDEST STOP JUMPDEST PUSH2 0x253 PUSH2 0x830 JUMP JUMPDEST PUSH1 0x40 MLOAD PUSH2 0x260 SWAP2 SWAP1 PUSH2 0x2367 JUMP JUMPDEST PUSH1 0x40 MLOAD DUP1 SWAP2 SUB SWAP1 RETURN JUMPDEST PUSH2 0x271 PUSH2 0x859 JUMP JUMPDEST PUSH1 0x40 MLOAD PUSH2 0x27E SWAP2 SWAP1 PUSH2 0x23CE JUMP JUMPDEST PUSH1 0x40 MLOAD DUP1 SWAP2 SUB SWAP1 RETURN JUMPDEST PUSH2 0x2A1 PUSH1 0x4 DUP1 CALLDATASIZE SUB DUP2 ADD SWAP1 PUSH2 0x29C SWAP2 SWAP1 PUSH2 0x1AF6 JUMP JUMPDEST PUSH2 0x8EB JUMP JUMPDEST STOP JUMPDEST PUSH2 0x2BD PUSH1 0x4 DUP1 CALLDATASIZE SUB DUP2 ADD SWAP1 PUSH2 0x2B8 SWAP2 SWAP1 PUSH2 0x1C6B JUMP JUMPDEST PUSH2 0x94D JUMP JUMPDEST PUSH1 0x40 MLOAD PUSH2 0x2CA SWAP2 SWAP1 PUSH2 0x23CE JUMP JUMPDEST PUSH1 0x40 MLOAD DUP1 SWAP2 SUB SWAP1 RETURN JUMPDEST PUSH2 0x2ED PUSH1 0x4 DUP1 CALLDATASIZE SUB DUP2 ADD SWAP1 PUSH2 0x2E8 SWAP2 SWAP1 PUSH2 0x1B71 JUMP JUMPDEST PUSH2 0xAC0 JUMP JUMPDEST STOP JUMPDEST PUSH2 0x309 PUSH1 0x4 DUP1 CALLDATASIZE SUB DUP2 ADD SWAP1 PUSH2 0x304 SWAP2 SWAP1 PUSH2 0x1A7E JUMP JUMPDEST PUSH2 0xB70 JUMP JUMPDEST STOP JUMPDEST PUSH1 0x60 PUSH1 0x7 DUP1 SLOAD PUSH2 0x31A SWAP1 PUSH2 0x2844 JUMP JUMPDEST DUP1 PUSH1 0x1F ADD PUSH1 0x20 DUP1 SWAP2 DIV MUL PUSH1 0x20 ADD PUSH1 0x40 MLOAD SWAP1 DUP2 ADD PUSH1 0x40 MSTORE DUP1 SWAP3 SWAP2 SWAP1 DUP2 DUP2 MSTORE PUSH1 0x20 ADD DUP3 DUP1 SLOAD PUSH2 0x346 SWAP1 PUSH2 0x2844 JUMP JUMPDEST DUP1 ISZERO PUSH2 0x393 JUMPI DUP1 PUSH1 0x1F LT PUSH2 0x368 JUMPI PUSH2 0x100 DUP1 DUP4 SLOAD DIV MUL DUP4 MSTORE SWAP2 PUSH1 0x20 ADD SWAP2 PUSH2 0x393 JUMP JUMPDEST DUP3 ADD SWAP2 SWAP1 PUSH1 0x0 MSTORE PUSH1 0x20 PUSH1 0x0 KECCAK256 SWAP1 JUMPDEST DUP2 SLOAD DUP2 MSTORE SWAP1 PUSH1 0x1 ADD SWAP1 PUSH1 0x20 ADD DUP1 DUP4 GT PUSH2 0x376 JUMPI DUP3 SWAP1 SUB PUSH1 0x1F AND DUP3 ADD SWAP2 JUMPDEST POP POP POP POP POP SWAP1 POP SWAP1 JUMP JUMPDEST PUSH1 0x0 PUSH2 0x3A8 DUP3 PUSH2 0xC68 JUMP JUMPDEST PUSH2 0x3E7 JUMPI PUSH1 0x40 MLOAD PUSH32 0x8C379A000000000000000000000000000000000000000000000000000000000 DUP2 MSTORE PUSH1 0x4 ADD PUSH2 0x3DE SWAP1 PUSH2 0x2530 JUMP JUMPDEST PUSH1 0x40 MLOAD DUP1 SWAP2 SUB SWAP1 REVERT JUMPDEST PUSH1 0x4 PUSH1 0x0 DUP4 DUP2 MSTORE PUSH1 0x20 ADD SWAP1 DUP2 MSTORE PUSH1 0x20 ADD PUSH1 0x0 KECCAK256 PUSH1 0x0 SWAP1 SLOAD SWAP1 PUSH2 0x100 EXP SWAP1 DIV PUSH20 0xFFFFFFFFFFFFFFFFFFFFFFFFFFFFFFFFFFFFFFFF AND SWAP1 POP SWAP2 SWAP1 POP JUMP JUMPDEST PUSH1 0x0 PUSH2 0x42D DUP3 PUSH2 0x63E JUMP JUMPDEST SWAP1 POP DUP1 PUSH20 0xFFFFFFFFFFFFFFFFFFFFFFFFFFFFFFFFFFFFFFFF AND DUP4 PUSH20 0xFFFFFFFFFFFFFFFFFFFFFFFFFFFFFFFFFFFFFFFF AND EQ ISZERO PUSH2 0x49E JUMPI PUSH1 0x40 MLOAD PUSH32 0x8C379A000000000000000000000000000000000000000000000000000000000 DUP2 MSTORE PUSH1 0x4 ADD PUSH2 0x495 SWAP1 PUSH2 0x25B0 JUMP JUMPDEST PUSH1 0x40 MLOAD DUP1 SWAP2 SUB SWAP1 REVERT JUMPDEST DUP1 PUSH20 0xFFFFFFFFFFFFFFFFFFFFFFFFFFFFFFFFFFFFFFFF AND PUSH2 0x4BD PUSH2 0xCD4 JUMP JUMPDEST PUSH20 0xFFFFFFFFFFFFFFFFFFFFFFFFFFFFFFFFFFFFFFFF AND EQ PUSH2 0x513 JUMPI PUSH1 0x40 MLOAD PUSH32 0x8C379A000000000000000000000000000000000000000000000000000000000 DUP2 MSTORE PUSH1 0x4 ADD PUSH2 0x50A SWAP1 PUSH2 0x24B0 JUMP JUMPDEST PUSH1 0x40 MLOAD DUP1 SWAP2 SUB SWAP1 REVERT JUMPDEST PUSH2 0x51D DUP4 DUP4 PUSH2 0xCDC JUMP JUMPDEST POP POP POP JUMP JUMPDEST PUSH2 0x533 PUSH2 0x52D PUSH2 0xCD4 JUMP JUMPDEST DUP3 PUSH2 0xD95 JUMP JUMPDEST PUSH2 0x572 JUMPI PUSH1 0x40 MLOAD PUSH32 0x8C379A000000000000000000000000000000000000000000000000000000000 DUP2 MSTORE PUSH1 0x4 ADD PUSH2 0x569 SWAP1 PUSH2 0x25D0 JUMP JUMPDEST PUSH1 0x40 MLOAD DUP1 SWAP2 SUB SWAP1 REVERT JUMPDEST PUSH2 0x57D DUP4 DUP4 DUP4 PUSH2 0xE62 JUMP JUMPDEST POP POP POP JUMP JUMPDEST PUSH2 0x59D DUP4 DUP4 DUP4 PUSH1 0x40 MLOAD DUP1 PUSH1 0x20 ADD PUSH1 0x40 MSTORE DUP1 PUSH1 0x0 DUP2 MSTORE POP PUSH2 0x8EB JUMP JUMPDEST POP POP POP JUMP JUMPDEST PUSH2 0x5AA PUSH2 0xCD4 JUMP JUMPDEST PUSH20 0xFFFFFFFFFFFFFFFFFFFFFFFFFFFFFFFFFFFFFFFF AND PUSH2 0x5C8 PUSH2 0x830 JUMP JUMPDEST PUSH20 0xFFFFFFFFFFFFFFFFFFFFFFFFFFFFFFFFFFFFFFFF AND EQ PUSH2 0x61E JUMPI PUSH1 0x40 MLOAD PUSH32 0x8C379A000000000000000000000000000000000000000000000000000000000 DUP2 MSTORE PUSH1 0x4 ADD PUSH2 0x615 SWAP1 PUSH2 0x2570 JUMP JUMPDEST PUSH1 0x40 MLOAD DUP1 SWAP2 SUB SWAP1 REVERT JUMPDEST DUP1 PUSH1 0xA SWAP1 DUP1 MLOAD SWAP1 PUSH1 0x20 ADD SWAP1 PUSH2 0x634 SWAP3 SWAP2 SWAP1 PUSH2 0x18CC JUMP JUMPDEST POP POP JUMP JUMPDEST PUSH1 0xB SLOAD DUP2 JUMP JUMPDEST PUSH1 0x0 DUP1 PUSH1 0x2 PUSH1 0x0 DUP5 DUP2 MSTORE PUSH1 0x20 ADD SWAP1 DUP2 MSTORE PUSH1 0x20 ADD PUSH1 0x0 KECCAK256 PUSH1 0x0 SWAP1 SLOAD SWAP1 PUSH2 0x100 EXP SWAP1 DIV PUSH20 0xFFFFFFFFFFFFFFFFFFFFFFFFFFFFFFFFFFFFFFFF AND SWAP1 POP PUSH1 0x0 PUSH20 0xFFFFFFFFFFFFFFFFFFFFFFFFFFFFFFFFFFFFFFFF AND DUP2 PUSH20 0xFFFFFFFFFFFFFFFFFFFFFFFFFFFFFFFFFFFFFFFF AND EQ ISZERO PUSH2 0x6E7 JUMPI PUSH1 0x40 MLOAD PUSH32 0x8C379A000000000000000000000000000000000000000000000000000000000 DUP2 MSTORE PUSH1 0x4 ADD PUSH2 0x6DE SWAP1 PUSH2 0x24F0 JUMP JUMPDEST PUSH1 0x40 MLOAD DUP1 SWAP2 SUB SWAP1 REVERT JUMPDEST DUP1 SWAP2 POP POP SWAP2 SWAP1 POP JUMP JUMPDEST PUSH1 0x0 DUP1 PUSH20 0xFFFFFFFFFFFFFFFFFFFFFFFFFFFFFFFFFFFFFFFF AND DUP3 PUSH20 0xFFFFFFFFFFFFFFFFFFFFFFFFFFFFFFFFFFFFFFFF AND EQ ISZERO PUSH2 0x761 JUMPI PUSH1 0x40 MLOAD PUSH32 0x8C379A000000000000000000000000000000000000000000000000000000000 DUP2 MSTORE PUSH1 0x4 ADD PUSH2 0x758 SWAP1 PUSH2 0x24D0 JUMP JUMPDEST PUSH1 0x40 MLOAD DUP1 SWAP2 SUB SWAP1 REVERT JUMPDEST PUSH1 0x1 PUSH1 0x0 DUP4 PUSH20 0xFFFFFFFFFFFFFFFFFFFFFFFFFFFFFFFFFFFFFFFF AND PUSH20 0xFFFFFFFFFFFFFFFFFFFFFFFFFFFFFFFFFFFFFFFF AND DUP2 MSTORE PUSH1 0x20 ADD SWAP1 DUP2 MSTORE PUSH1 0x20 ADD PUSH1 0x0 KECCAK256 SLOAD SWAP1 POP SWAP2 SWAP1 POP JUMP JUMPDEST PUSH2 0x7B0 PUSH2 0xCD4 JUMP JUMPDEST PUSH20 0xFFFFFFFFFFFFFFFFFFFFFFFFFFFFFFFFFFFFFFFF AND PUSH2 0x7CE PUSH2 0x830 JUMP JUMPDEST PUSH20 0xFFFFFFFFFFFFFFFFFFFFFFFFFFFFFFFFFFFFFFFF AND EQ PUSH2 0x824 JUMPI PUSH1 0x40 MLOAD PUSH32 0x8C379A000000000000000000000000000000000000000000000000000000000 DUP2 MSTORE PUSH1 0x4 ADD PUSH2 0x81B SWAP1 PUSH2 0x2570 JUMP JUMPDEST PUSH1 0x40 MLOAD DUP1 SWAP2 SUB SWAP1 REVERT JUMPDEST PUSH2 0x82E PUSH1 0x0 PUSH2 0x10C7 JUMP JUMPDEST JUMP JUMPDEST PUSH1 0x0 DUP1 PUSH1 0x0 SWAP1 SLOAD SWAP1 PUSH2 0x100 EXP SWAP1 DIV PUSH20 0xFFFFFFFFFFFFFFFFFFFFFFFFFFFFFFFFFFFFFFFF AND SWAP1 POP SWAP1 JUMP JUMPDEST PUSH1 0x60 PUSH1 0x8 DUP1 SLOAD PUSH2 0x868 SWAP1 PUSH2 0x2844 JUMP JUMPDEST DUP1 PUSH1 0x1F ADD PUSH1 0x20 DUP1 SWAP2 DIV MUL PUSH1 0x20 ADD PUSH1 0x40 MLOAD SWAP1 DUP2 ADD PUSH1 0x40 MSTORE DUP1 SWAP3 SWAP2 SWAP1 DUP2 DUP2 MSTORE PUSH1 0x20 ADD DUP3 DUP1 SLOAD PUSH2 0x894 SWAP1 PUSH2 0x2844 JUMP JUMPDEST DUP1 ISZERO PUSH2 0x8E1 JUMPI DUP1 PUSH1 0x1F LT PUSH2 0x8B6 JUMPI PUSH2 0x100 DUP1 DUP4 SLOAD DIV MUL DUP4 MSTORE SWAP2 PUSH1 0x20 ADD SWAP2 PUSH2 0x8E1 JUMP JUMPDEST DUP3 ADD SWAP2 SWAP1 PUSH1 0x0 MSTORE PUSH1 0x20 PUSH1 0x0 KECCAK256 SWAP1 JUMPDEST DUP2 SLOAD DUP2 MSTORE SWAP1 PUSH1 0x1 ADD SWAP1 PUSH1 0x20 ADD DUP1 DUP4 GT PUSH2 0x8C4 JUMPI DUP3 SWAP1 SUB PUSH1 0x1F AND DUP3 ADD SWAP2 JUMPDEST POP POP POP POP POP SWAP1 POP SWAP1 JUMP JUMPDEST PUSH2 0x8FC PUSH2 0x8F6 PUSH2 0xCD4 JUMP JUMPDEST DUP4 PUSH2 0xD95 JUMP JUMPDEST PUSH2 0x93B JUMPI PUSH1 0x40 MLOAD PUSH32 0x8C379A000000000000000000000000000000000000000000000000000000000 DUP2 MSTORE PUSH1 0x4 ADD PUSH2 0x932 SWAP1 PUSH2 0x25D0 JUMP JUMPDEST PUSH1 0x40 MLOAD DUP1 SWAP2 SUB SWAP1 REVERT JUMPDEST PUSH2 0x947 DUP5 DUP5 DUP5 DUP5 PUSH2 0x118B JUMP JUMPDEST POP POP POP POP JUMP JUMPDEST PUSH1 0x60 PUSH2 0x958 DUP3 PUSH2 0xC68 JUMP JUMPDEST PUSH2 0x997 JUMPI PUSH1 0x40 MLOAD PUSH32 0x8C379A000000000000000000000000000000000000000000000000000000000 DUP2 MSTORE PUSH1 0x4 ADD PUSH2 0x98E SWAP1 PUSH2 0x2590 JUMP JUMPDEST PUSH1 0x40 MLOAD DUP1 SWAP2 SUB SWAP1 REVERT JUMPDEST PUSH1 0x0 PUSH1 0xD PUSH1 0x0 DUP5 DUP2 MSTORE PUSH1 0x20 ADD SWAP1 DUP2 MSTORE PUSH1 0x20 ADD PUSH1 0x0 KECCAK256 DUP1 SLOAD PUSH2 0x9B7 SWAP1 PUSH2 0x2844 JUMP JUMPDEST DUP1 PUSH1 0x1F ADD PUSH1 0x20 DUP1 SWAP2 DIV MUL PUSH1 0x20 ADD PUSH1 0x40 MLOAD SWAP1 DUP2 ADD PUSH1 0x40 MSTORE DUP1 SWAP3 SWAP2 SWAP1 DUP2 DUP2 MSTORE PUSH1 0x20 ADD DUP3 DUP1 SLOAD PUSH2 0x9E3 SWAP1 PUSH2 0x2844 JUMP JUMPDEST DUP1 ISZERO PUSH2 0xA30 JUMPI DUP1 PUSH1 0x1F LT PUSH2 0xA05 JUMPI PUSH2 0x100 DUP1 DUP4 SLOAD DIV MUL DUP4 MSTORE SWAP2 PUSH1 0x20 ADD SWAP2 PUSH2 0xA30 JUMP JUMPDEST DUP3 ADD SWAP2 SWAP1 PUSH1 0x0 MSTORE PUSH1 0x20 PUSH1 0x0 KECCAK256 SWAP1 JUMPDEST DUP2 SLOAD DUP2 MSTORE SWAP1 PUSH1 0x1 ADD SWAP1 PUSH1 0x20 ADD DUP1 DUP4 GT PUSH2 0xA13 JUMPI DUP3 SWAP1 SUB PUSH1 0x1F AND DUP3 ADD SWAP2 JUMPDEST POP POP POP POP POP SWAP1 POP PUSH1 0x0 PUSH2 0xA41 PUSH2 0x11E7 JUMP JUMPDEST SWAP1 POP PUSH1 0x0 DUP2 MLOAD EQ ISZERO PUSH2 0xA57 JUMPI DUP2 SWAP3 POP POP POP PUSH2 0xABB JUMP JUMPDEST PUSH1 0x0 DUP3 MLOAD GT ISZERO PUSH2 0xA8C JUMPI DUP1 DUP3 PUSH1 0x40 MLOAD PUSH1 0x20 ADD PUSH2 0xA74 SWAP3 SWAP2 SWAP1 PUSH2 0x2343 JUMP JUMPDEST PUSH1 0x40 MLOAD PUSH1 0x20 DUP2 DUP4 SUB SUB DUP2 MSTORE SWAP1 PUSH1 0x40 MSTORE SWAP3 POP POP POP PUSH2 0xABB JUMP JUMPDEST DUP1 PUSH2 0xA96 DUP6 PUSH2 0x1279 JUMP JUMPDEST PUSH1 0x40 MLOAD PUSH1 0x20 ADD PUSH2 0xAA7 SWAP3 SWAP2 SWAP1 PUSH2 0x2343 JUMP JUMPDEST PUSH1 0x40 MLOAD PUSH1 0x20 DUP2 DUP4 SUB SUB DUP2 MSTORE SWAP1 PUSH1 0x40 MSTORE SWAP3 POP POP POP JUMPDEST SWAP2 SWAP1 POP JUMP JUMPDEST PUSH2 0xAC8 PUSH2 0xCD4 JUMP JUMPDEST PUSH20 0xFFFFFFFFFFFFFFFFFFFFFFFFFFFFFFFFFFFFFFFF AND PUSH2 0xAE6 PUSH2 0x830 JUMP JUMPDEST PUSH20 0xFFFFFFFFFFFFFFFFFFFFFFFFFFFFFFFFFFFFFFFF AND EQ PUSH2 0xB3C JUMPI PUSH1 0x40 MLOAD PUSH32 0x8C379A000000000000000000000000000000000000000000000000000000000 DUP2 MSTORE PUSH1 0x4 ADD PUSH2 0xB33 SWAP1 PUSH2 0x2570 JUMP JUMPDEST PUSH1 0x40 MLOAD DUP1 SWAP2 SUB SWAP1 REVERT JUMPDEST PUSH2 0xB48 DUP3 PUSH1 0xB SLOAD PUSH2 0x1426 JUMP JUMPDEST PUSH2 0xB54 PUSH1 0xB SLOAD DUP3 PUSH2 0x1444 JUMP JUMPDEST PUSH1 0xB PUSH1 0x0 DUP2 SLOAD DUP1 SWAP3 SWAP2 SWAP1 PUSH2 0xB67 SWAP1 PUSH2 0x2876 JUMP JUMPDEST SWAP2 SWAP1 POP SSTORE POP POP POP JUMP JUMPDEST PUSH2 0xB78 PUSH2 0xCD4 JUMP JUMPDEST PUSH20 0xFFFFFFFFFFFFFFFFFFFFFFFFFFFFFFFFFFFFFFFF AND PUSH2 0xB96 PUSH2 0x830 JUMP JUMPDEST PUSH20 0xFFFFFFFFFFFFFFFFFFFFFFFFFFFFFFFFFFFFFFFF AND EQ PUSH2 0xBEC JUMPI PUSH1 0x40 MLOAD PUSH32 0x8C379A000000000000000000000000000000000000000000000000000000000 DUP2 MSTORE PUSH1 0x4 ADD PUSH2 0xBE3 SWAP1 PUSH2 0x2570 JUMP JUMPDEST PUSH1 0x40 MLOAD DUP1 SWAP2 SUB SWAP1 REVERT JUMPDEST PUSH1 0x0 PUSH20 0xFFFFFFFFFFFFFFFFFFFFFFFFFFFFFFFFFFFFFFFF AND DUP2 PUSH20 0xFFFFFFFFFFFFFFFFFFFFFFFFFFFFFFFFFFFFFFFF AND EQ ISZERO PUSH2 0xC5C JUMPI PUSH1 0x40 MLOAD PUSH32 0x8C379A000000000000000000000000000000000000000000000000000000000 DUP2 MSTORE PUSH1 0x4 ADD PUSH2 0xC53 SWAP1 PUSH2 0x2410 JUMP JUMPDEST PUSH1 0x40 MLOAD DUP1 SWAP2 SUB SWAP1 REVERT JUMPDEST PUSH2 0xC65 DUP2 PUSH2 0x10C7 JUMP JUMPDEST POP JUMP JUMPDEST PUSH1 0x0 DUP1 PUSH20 0xFFFFFFFFFFFFFFFFFFFFFFFFFFFFFFFFFFFFFFFF AND PUSH1 0x2 PUSH1 0x0 DUP5 DUP2 MSTORE PUSH1 0x20 ADD SWAP1 DUP2 MSTORE PUSH1 0x20 ADD PUSH1 0x0 KECCAK256 PUSH1 0x0 SWAP1 SLOAD SWAP1 PUSH2 0x100 EXP SWAP1 DIV PUSH20 0xFFFFFFFFFFFFFFFFFFFFFFFFFFFFFFFFFFFFFFFF AND PUSH20 0xFFFFFFFFFFFFFFFFFFFFFFFFFFFFFFFFFFFFFFFF AND EQ ISZERO SWAP1 POP SWAP2 SWAP1 POP JUMP JUMPDEST PUSH1 0x0 CALLER SWAP1 POP SWAP1 JUMP JUMPDEST DUP2 PUSH1 0x4 PUSH1 0x0 DUP4 DUP2 MSTORE PUSH1 0x20 ADD SWAP1 DUP2 MSTORE PUSH1 0x20 ADD PUSH1 0x0 KECCAK256 PUSH1 0x0 PUSH2 0x100 EXP DUP2 SLOAD DUP2 PUSH20 0xFFFFFFFFFFFFFFFFFFFFFFFFFFFFFFFFFFFFFFFF MUL NOT AND SWAP1 DUP4 PUSH20 0xFFFFFFFFFFFFFFFFFFFFFFFFFFFFFFFFFFFFFFFF AND MUL OR SWAP1 SSTORE POP DUP1 DUP3 PUSH20 0xFFFFFFFFFFFFFFFFFFFFFFFFFFFFFFFFFFFFFFFF AND PUSH2 0xD4F DUP4 PUSH2 0x63E JUMP JUMPDEST PUSH20 0xFFFFFFFFFFFFFFFFFFFFFFFFFFFFFFFFFFFFFFFF AND PUSH32 0x8C5BE1E5EBEC7D5BD14F71427D1E84F3DD0314C0F7B2291E5B200AC8C7C3B925 PUSH1 0x40 MLOAD PUSH1 0x40 MLOAD DUP1 SWAP2 SUB SWAP1 LOG4 POP POP JUMP JUMPDEST PUSH1 0x0 PUSH2 0xDA0 DUP3 PUSH2 0xC68 JUMP JUMPDEST PUSH2 0xDDF JUMPI PUSH1 0x40 MLOAD PUSH32 0x8C379A000000000000000000000000000000000000000000000000000000000 DUP2 MSTORE PUSH1 0x4 ADD PUSH2 0xDD6 SWAP1 PUSH2 0x2490 JUMP JUMPDEST PUSH1 0x40 MLOAD DUP1 SWAP2 SUB SWAP1 REVERT JUMPDEST PUSH1 0x0 PUSH2 0xDEA DUP4 PUSH2 0x63E JUMP JUMPDEST SWAP1 POP DUP1 PUSH20 0xFFFFFFFFFFFFFFFFFFFFFFFFFFFFFFFFFFFFFFFF AND DUP5 PUSH20 0xFFFFFFFFFFFFFFFFFFFFFFFFFFFFFFFFFFFFFFFF AND EQ DUP1 PUSH2 0xE59 JUMPI POP DUP4 PUSH20 0xFFFFFFFFFFFFFFFFFFFFFFFFFFFFFFFFFFFFFFFF AND PUSH2 0xE41 DUP5 PUSH2 0x39D JUMP JUMPDEST PUSH20 0xFFFFFFFFFFFFFFFFFFFFFFFFFFFFFFFFFFFFFFFF AND EQ JUMPDEST SWAP2 POP POP SWAP3 SWAP2 POP POP JUMP JUMPDEST DUP3 PUSH20 0xFFFFFFFFFFFFFFFFFFFFFFFFFFFFFFFFFFFFFFFF AND PUSH2 0xE82 DUP3 PUSH2 0x63E JUMP JUMPDEST PUSH20 0xFFFFFFFFFFFFFFFFFFFFFFFFFFFFFFFFFFFFFFFF AND EQ PUSH2 0xED8 JUMPI PUSH1 0x40 MLOAD PUSH32 0x8C379A000000000000000000000000000000000000000000000000000000000 DUP2 MSTORE PUSH1 0x4 ADD PUSH2 0xECF SWAP1 PUSH2 0x2430 JUMP JUMPDEST PUSH1 0x40 MLOAD DUP1 SWAP2 SUB SWAP1 REVERT JUMPDEST PUSH1 0x0 PUSH20 0xFFFFFFFFFFFFFFFFFFFFFFFFFFFFFFFFFFFFFFFF AND DUP3 PUSH20 0xFFFFFFFFFFFFFFFFFFFFFFFFFFFFFFFFFFFFFFFF AND EQ ISZERO PUSH2 0xF48 JUMPI PUSH1 0x40 MLOAD PUSH32 0x8C379A000000000000000000000000000000000000000000000000000000000 DUP2 MSTORE PUSH1 0x4 ADD PUSH2 0xF3F SWAP1 PUSH2 0x2470 JUMP JUMPDEST PUSH1 0x40 MLOAD DUP1 SWAP2 SUB SWAP1 REVERT JUMPDEST PUSH2 0xF53 DUP4 DUP4 DUP4 PUSH2 0x14B8 JUMP JUMPDEST PUSH2 0xF5E PUSH1 0x0 DUP3 PUSH2 0xCDC JUMP JUMPDEST PUSH1 0x1 DUP1 PUSH1 0x0 DUP6 PUSH20 0xFFFFFFFFFFFFFFFFFFFFFFFFFFFFFFFFFFFFFFFF AND PUSH20 0xFFFFFFFFFFFFFFFFFFFFFFFFFFFFFFFFFFFFFFFF AND DUP2 MSTORE PUSH1 0x20 ADD SWAP1 DUP2 MSTORE PUSH1 0x20 ADD PUSH1 0x0 KECCAK256 PUSH1 0x0 DUP3 DUP3 SLOAD PUSH2 0xFAD SWAP2 SWAP1 PUSH2 0x2766 JUMP JUMPDEST SWAP3 POP POP DUP2 SWAP1 SSTORE POP PUSH1 0x1 DUP1 PUSH1 0x0 DUP5 PUSH20 0xFFFFFFFFFFFFFFFFFFFFFFFFFFFFFFFFFFFFFFFF AND PUSH20 0xFFFFFFFFFFFFFFFFFFFFFFFFFFFFFFFFFFFFFFFF AND DUP2 MSTORE PUSH1 0x20 ADD SWAP1 DUP2 MSTORE PUSH1 0x20 ADD PUSH1 0x0 KECCAK256 PUSH1 0x0 DUP3 DUP3 SLOAD PUSH2 0x1003 SWAP2 SWAP1 PUSH2 0x26DF JUMP JUMPDEST SWAP3 POP POP DUP2 SWAP1 SSTORE POP DUP2 PUSH1 0x2 PUSH1 0x0 DUP4 DUP2 MSTORE PUSH1 0x20 ADD SWAP1 DUP2 MSTORE PUSH1 0x20 ADD PUSH1 0x0 KECCAK256 PUSH1 0x0 PUSH2 0x100 EXP DUP2 SLOAD DUP2 PUSH20 0xFFFFFFFFFFFFFFFFFFFFFFFFFFFFFFFFFFFFFFFF MUL NOT AND SWAP1 DUP4 PUSH20 0xFFFFFFFFFFFFFFFFFFFFFFFFFFFFFFFFFFFFFFFF AND MUL OR SWAP1 SSTORE POP DUP1 DUP3 PUSH20 0xFFFFFFFFFFFFFFFFFFFFFFFFFFFFFFFFFFFFFFFF AND DUP5 PUSH20 0xFFFFFFFFFFFFFFFFFFFFFFFFFFFFFFFFFFFFFFFF AND PUSH32 0xDDF252AD1BE2C89B69C2B068FC378DAA952BA7F163C4A11628F55A4DF523B3EF PUSH1 0x40 MLOAD PUSH1 0x40 MLOAD DUP1 SWAP2 SUB SWAP1 LOG4 PUSH2 0x10C2 DUP4 DUP4 DUP4 PUSH2 0x14BD JUMP JUMPDEST POP POP POP JUMP JUMPDEST PUSH1 0x0 DUP1 PUSH1 0x0 SWAP1 SLOAD SWAP1 PUSH2 0x100 EXP SWAP1 DIV PUSH20 0xFFFFFFFFFFFFFFFFFFFFFFFFFFFFFFFFFFFFFFFF AND SWAP1 POP DUP2 PUSH1 0x0 DUP1 PUSH2 0x100 EXP DUP2 SLOAD DUP2 PUSH20 0xFFFFFFFFFFFFFFFFFFFFFFFFFFFFFFFFFFFFFFFF MUL NOT AND SWAP1 DUP4 PUSH20 0xFFFFFFFFFFFFFFFFFFFFFFFFFFFFFFFFFFFFFFFF AND MUL OR SWAP1 SSTORE POP DUP2 PUSH20 0xFFFFFFFFFFFFFFFFFFFFFFFFFFFFFFFFFFFFFFFF AND DUP2 PUSH20 0xFFFFFFFFFFFFFFFFFFFFFFFFFFFFFFFFFFFFFFFF AND PUSH32 0x8BE0079C531659141344CD1FD0A4F28419497F9722A3DAAFE3B4186F6B6457E0 PUSH1 0x40 MLOAD PUSH1 0x40 MLOAD DUP1 SWAP2 SUB SWAP1 LOG3 POP POP JUMP JUMPDEST PUSH2 0x1196 DUP5 DUP5 DUP5 PUSH2 0xE62 JUMP JUMPDEST PUSH2 0x11A2 DUP5 DUP5 DUP5 DUP5 PUSH2 0x14C2 JUMP JUMPDEST PUSH2 0x11E1 JUMPI PUSH1 0x40 MLOAD PUSH32 0x8C379A000000000000000000000000000000000000000000000000000000000 DUP2 MSTORE PUSH1 0x4 ADD PUSH2 0x11D8 SWAP1 PUSH2 0x23F0 JUMP JUMPDEST PUSH1 0x40 MLOAD DUP1 SWAP2 SUB SWAP1 REVERT JUMPDEST POP POP POP POP JUMP JUMPDEST PUSH1 0x60 PUSH1 0xA DUP1 SLOAD PUSH2 0x11F6 SWAP1 PUSH2 0x2844 JUMP JUMPDEST DUP1 PUSH1 0x1F ADD PUSH1 0x20 DUP1 SWAP2 DIV MUL PUSH1 0x20 ADD PUSH1 0x40 MLOAD SWAP1 DUP2 ADD PUSH1 0x40 MSTORE DUP1 SWAP3 SWAP2 SWAP1 DUP2 DUP2 MSTORE PUSH1 0x20 ADD DUP3 DUP1 SLOAD PUSH2 0x1222 SWAP1 PUSH2 0x2844 JUMP JUMPDEST DUP1 ISZERO PUSH2 0x126F JUMPI DUP1 PUSH1 0x1F LT PUSH2 0x1244 JUMPI PUSH2 0x100 DUP1 DUP4 SLOAD DIV MUL DUP4 MSTORE SWAP2 PUSH1 0x20 ADD SWAP2 PUSH2 0x126F JUMP JUMPDEST DUP3 ADD SWAP2 SWAP1 PUSH1 0x0 MSTORE PUSH1 0x20 PUSH1 0x0 KECCAK256 SWAP1 JUMPDEST DUP2 SLOAD DUP2 MSTORE SWAP1 PUSH1 0x1 ADD SWAP1 PUSH1 0x20 ADD DUP1 DUP4 GT PUSH2 0x1252 JUMPI DUP3 SWAP1 SUB PUSH1 0x1F AND DUP3 ADD SWAP2 JUMPDEST POP POP POP POP POP SWAP1 POP SWAP1 JUMP JUMPDEST PUSH1 0x60 PUSH1 0x0 DUP3 EQ ISZERO PUSH2 0x12C1 JUMPI PUSH1 0x40 MLOAD DUP1 PUSH1 0x40 ADD PUSH1 0x40 MSTORE DUP1 PUSH1 0x1 DUP2 MSTORE PUSH1 0x20 ADD PUSH32 0x3000000000000000000000000000000000000000000000000000000000000000 DUP2 MSTORE POP SWAP1 POP PUSH2 0x1421 JUMP JUMPDEST PUSH1 0x0 DUP3 SWAP1 POP PUSH1 0x0 JUMPDEST PUSH1 0x0 DUP3 EQ PUSH2 0x12F3 JUMPI DUP1 DUP1 PUSH2 0x12DC SWAP1 PUSH2 0x2876 JUMP JUMPDEST SWAP2 POP POP PUSH1 0xA DUP3 PUSH2 0x12EC SWAP2 SWAP1 PUSH2 0x2735 JUMP JUMPDEST SWAP2 POP PUSH2 0x12C9 JUMP JUMPDEST PUSH1 0x0 DUP2 PUSH8 0xFFFFFFFFFFFFFFFF DUP2 GT ISZERO PUSH2 0x1335 JUMPI PUSH32 0x4E487B7100000000000000000000000000000000000000000000000000000000 PUSH1 0x0 MSTORE PUSH1 0x41 PUSH1 0x4 MSTORE PUSH1 0x24 PUSH1 0x0 REVERT JUMPDEST PUSH1 0x40 MLOAD SWAP1 DUP1 DUP3 MSTORE DUP1 PUSH1 0x1F ADD PUSH1 0x1F NOT AND PUSH1 0x20 ADD DUP3 ADD PUSH1 0x40 MSTORE DUP1 ISZERO PUSH2 0x1367 JUMPI DUP2 PUSH1 0x20 ADD PUSH1 0x1 DUP3 MUL DUP1 CALLDATASIZE DUP4 CALLDATACOPY DUP1 DUP3 ADD SWAP2 POP POP SWAP1 POP JUMPDEST POP SWAP1 POP JUMPDEST PUSH1 0x0 DUP6 EQ PUSH2 0x141A JUMPI PUSH1 0x1 DUP3 PUSH2 0x1380 SWAP2 SWAP1 PUSH2 0x2766 JUMP JUMPDEST SWAP2 POP PUSH1 0xA DUP6 PUSH2 0x138F SWAP2 SWAP1 PUSH2 0x28BF JUMP JUMPDEST PUSH1 0x30 PUSH2 0x139B SWAP2 SWAP1 PUSH2 0x26DF JUMP JUMPDEST PUSH1 0xF8 SHL DUP2 DUP4 DUP2 MLOAD DUP2 LT PUSH2 0x13D7 JUMPI PUSH32 0x4E487B7100000000000000000000000000000000000000000000000000000000 PUSH1 0x0 MSTORE PUSH1 0x32 PUSH1 0x4 MSTORE PUSH1 0x24 PUSH1 0x0 REVERT JUMPDEST PUSH1 0x20 ADD ADD SWAP1 PUSH31 0xFFFFFFFFFFFFFFFFFFFFFFFFFFFFFFFFFFFFFFFFFFFFFFFFFFFFFFFFFFFFFF NOT AND SWAP1 DUP2 PUSH1 0x0 BYTE SWAP1 MSTORE8 POP PUSH1 0xA DUP6 PUSH2 0x1413 SWAP2 SWAP1 PUSH2 0x2735 JUMP JUMPDEST SWAP5 POP PUSH2 0x136B JUMP JUMPDEST DUP1 SWAP4 POP POP POP POP JUMPDEST SWAP2 SWAP1 POP JUMP JUMPDEST PUSH2 0x1440 DUP3 DUP3 PUSH1 0x40 MLOAD DUP1 PUSH1 0x20 ADD PUSH1 0x40 MSTORE DUP1 PUSH1 0x0 DUP2 MSTORE POP PUSH2 0x1659 JUMP JUMPDEST POP POP JUMP JUMPDEST PUSH2 0x144D DUP3 PUSH2 0xC68 JUMP JUMPDEST PUSH2 0x148C JUMPI PUSH1 0x40 MLOAD PUSH32 0x8C379A000000000000000000000000000000000000000000000000000000000 DUP2 MSTORE PUSH1 0x4 ADD PUSH2 0x1483 SWAP1 PUSH2 0x2550 JUMP JUMPDEST PUSH1 0x40 MLOAD DUP1 SWAP2 SUB SWAP1 REVERT JUMPDEST DUP1 PUSH1 0xD PUSH1 0x0 DUP5 DUP2 MSTORE PUSH1 0x20 ADD SWAP1 DUP2 MSTORE PUSH1 0x20 ADD PUSH1 0x0 KECCAK256 SWAP1 DUP1 MLOAD SWAP1 PUSH1 0x20 ADD SWAP1 PUSH2 0x14B3 SWAP3 SWAP2 SWAP1 PUSH2 0x18CC JUMP JUMPDEST POP POP POP JUMP JUMPDEST POP POP POP JUMP JUMPDEST POP POP POP JUMP JUMPDEST PUSH1 0x0 PUSH2 0x14E3 DUP5 PUSH20 0xFFFFFFFFFFFFFFFFFFFFFFFFFFFFFFFFFFFFFFFF AND PUSH2 0x16B4 JUMP JUMPDEST ISZERO PUSH2 0x164C JUMPI DUP4 PUSH20 0xFFFFFFFFFFFFFFFFFFFFFFFFFFFFFFFFFFFFFFFF AND PUSH4 0x150B7A02 PUSH2 0x150C PUSH2 0xCD4 JUMP JUMPDEST DUP8 DUP7 DUP7 PUSH1 0x40 MLOAD DUP6 PUSH4 0xFFFFFFFF AND PUSH1 0xE0 SHL DUP2 MSTORE PUSH1 0x4 ADD PUSH2 0x152E SWAP5 SWAP4 SWAP3 SWAP2 SWAP1 PUSH2 0x2382 JUMP JUMPDEST PUSH1 0x20 PUSH1 0x40 MLOAD DUP1 DUP4 SUB DUP2 PUSH1 0x0 DUP8 DUP1 EXTCODESIZE ISZERO DUP1 ISZERO PUSH2 0x1548 JUMPI PUSH1 0x0 DUP1 REVERT JUMPDEST POP GAS CALL SWAP3 POP POP POP DUP1 ISZERO PUSH2 0x1579 JUMPI POP PUSH1 0x40 MLOAD RETURNDATASIZE PUSH1 0x1F NOT PUSH1 0x1F DUP3 ADD AND DUP3 ADD DUP1 PUSH1 0x40 MSTORE POP DUP2 ADD SWAP1 PUSH2 0x1576 SWAP2 SWAP1 PUSH2 0x1C01 JUMP JUMPDEST PUSH1 0x1 JUMPDEST PUSH2 0x15FC JUMPI RETURNDATASIZE DUP1 PUSH1 0x0 DUP2 EQ PUSH2 0x15A9 JUMPI PUSH1 0x40 MLOAD SWAP2 POP PUSH1 0x1F NOT PUSH1 0x3F RETURNDATASIZE ADD AND DUP3 ADD PUSH1 0x40 MSTORE RETURNDATASIZE DUP3 MSTORE RETURNDATASIZE PUSH1 0x0 PUSH1 0x20 DUP5 ADD RETURNDATACOPY PUSH2 0x15AE JUMP JUMPDEST PUSH1 0x60 SWAP2 POP JUMPDEST POP PUSH1 0x0 DUP2 MLOAD EQ ISZERO PUSH2 0x15F4 JUMPI PUSH1 0x40 MLOAD PUSH32 0x8C379A000000000000000000000000000000000000000000000000000000000 DUP2 MSTORE PUSH1 0x4 ADD PUSH2 0x15EB SWAP1 PUSH2 0x23F0 JUMP JUMPDEST PUSH1 0x40 MLOAD DUP1 SWAP2 SUB SWAP1 REVERT JUMPDEST DUP1 MLOAD DUP2 PUSH1 0x20 ADD REVERT JUMPDEST PUSH4 0x150B7A02 PUSH1 0xE0 SHL PUSH28 0xFFFFFFFFFFFFFFFFFFFFFFFFFFFFFFFFFFFFFFFFFFFFFFFFFFFFFFFF NOT AND DUP2 PUSH28 0xFFFFFFFFFFFFFFFFFFFFFFFFFFFFFFFFFFFFFFFFFFFFFFFFFFFFFFFF NOT AND EQ SWAP2 POP POP PUSH2 0x1651 JUMP JUMPDEST PUSH1 0x1 SWAP1 POP JUMPDEST SWAP5 SWAP4 POP POP POP POP JUMP JUMPDEST PUSH2 0x1663 DUP4 DUP4 PUSH2 0x16F3 JUMP JUMPDEST PUSH2 0x1670 PUSH1 0x0 DUP5 DUP5 DUP5 PUSH2 0x14C2 JUMP JUMPDEST PUSH2 0x16AF JUMPI PUSH1 0x40 MLOAD PUSH32 0x8C379A000000000000000000000000000000000000000000000000000000000 DUP2 MSTORE PUSH1 0x4 ADD PUSH2 0x16A6 SWAP1 PUSH2 0x23F0 JUMP JUMPDEST PUSH1 0x40 MLOAD DUP1 SWAP2 SUB SWAP1 REVERT JUMPDEST POP POP POP JUMP JUMPDEST PUSH1 0x0 DUP1 DUP3 PUSH20 0xFFFFFFFFFFFFFFFFFFFFFFFFFFFFFFFFFFFFFFFF AND DUP1 EXTCODESIZE DUP1 PUSH1 0x20 ADD PUSH1 0x40 MLOAD SWAP1 DUP2 ADD PUSH1 0x40 MSTORE DUP2 DUP2 MSTORE PUSH1 0x0 SWAP1 DUP1 PUSH1 0x20 ADD SWAP1 SWAP4 EXTCODECOPY MLOAD GT SWAP1 POP SWAP2 SWAP1 POP JUMP JUMPDEST PUSH1 0x0 PUSH20 0xFFFFFFFFFFFFFFFFFFFFFFFFFFFFFFFFFFFFFFFF AND DUP3 PUSH20 0xFFFFFFFFFFFFFFFFFFFFFFFFFFFFFFFFFFFFFFFF AND EQ ISZERO PUSH2 0x1763 JUMPI PUSH1 0x40 MLOAD PUSH32 0x8C379A000000000000000000000000000000000000000000000000000000000 DUP2 MSTORE PUSH1 0x4 ADD PUSH2 0x175A SWAP1 PUSH2 0x2510 JUMP JUMPDEST PUSH1 0x40 MLOAD DUP1 SWAP2 SUB SWAP1 REVERT JUMPDEST PUSH2 0x176C DUP2 PUSH2 0xC68 JUMP JUMPDEST ISZERO PUSH2 0x17AC JUMPI PUSH1 0x40 MLOAD PUSH32 0x8C379A000000000000000000000000000000000000000000000000000000000 DUP2 MSTORE PUSH1 0x4 ADD PUSH2 0x17A3 SWAP1 PUSH2 0x2450 JUMP JUMPDEST PUSH1 0x40 MLOAD DUP1 SWAP2 SUB SWAP1 REVERT JUMPDEST PUSH2 0x17B8 PUSH1 0x0 DUP4 DUP4 PUSH2 0x14B8 JUMP JUMPDEST PUSH1 0x1 DUP1 PUSH1 0x0 DUP5 PUSH20 0xFFFFFFFFFFFFFFFFFFFFFFFFFFFFFFFFFFFFFFFF AND PUSH20 0xFFFFFFFFFFFFFFFFFFFFFFFFFFFFFFFFFFFFFFFF AND DUP2 MSTORE PUSH1 0x20 ADD SWAP1 DUP2 MSTORE PUSH1 0x20 ADD PUSH1 0x0 KECCAK256 PUSH1 0x0 DUP3 DUP3 SLOAD PUSH2 0x1807 SWAP2 SWAP1 PUSH2 0x26DF JUMP JUMPDEST SWAP3 POP POP DUP2 SWAP1 SSTORE POP DUP2 PUSH1 0x2 PUSH1 0x0 DUP4 DUP2 MSTORE PUSH1 0x20 ADD SWAP1 DUP2 MSTORE PUSH1 0x20 ADD PUSH1 0x0 KECCAK256 PUSH1 0x0 PUSH2 0x100 EXP DUP2 SLOAD DUP2 PUSH20 0xFFFFFFFFFFFFFFFFFFFFFFFFFFFFFFFFFFFFFFFF MUL NOT AND SWAP1 DUP4 PUSH20 0xFFFFFFFFFFFFFFFFFFFFFFFFFFFFFFFFFFFFFFFF AND MUL OR SWAP1 SSTORE POP DUP1 DUP3 PUSH20 0xFFFFFFFFFFFFFFFFFFFFFFFFFFFFFFFFFFFFFFFF AND PUSH1 0x0 PUSH20 0xFFFFFFFFFFFFFFFFFFFFFFFFFFFFFFFFFFFFFFFF AND PUSH32 0xDDF252AD1BE2C89B69C2B068FC378DAA952BA7F163C4A11628F55A4DF523B3EF PUSH1 0x40 MLOAD PUSH1 0x40 MLOAD DUP1 SWAP2 SUB SWAP1 LOG4 PUSH2 0x18C8 PUSH1 0x0 DUP4 DUP4 PUSH2 0x14BD JUMP JUMPDEST POP POP JUMP JUMPDEST DUP3 DUP1 SLOAD PUSH2 0x18D8 SWAP1 PUSH2 0x2844 JUMP JUMPDEST SWAP1 PUSH1 0x0 MSTORE PUSH1 0x20 PUSH1 0x0 KECCAK256 SWAP1 PUSH1 0x1F ADD PUSH1 0x20 SWAP1 DIV DUP2 ADD SWAP3 DUP3 PUSH2 0x18FA JUMPI PUSH1 0x0 DUP6 SSTORE PUSH2 0x1941 JUMP JUMPDEST DUP3 PUSH1 0x1F LT PUSH2 0x1913 JUMPI DUP1 MLOAD PUSH1 0xFF NOT AND DUP4 DUP1 ADD OR DUP6 SSTORE PUSH2 0x1941 JUMP JUMPDEST DUP3 DUP1 ADD PUSH1 0x1 ADD DUP6 SSTORE DUP3 ISZERO PUSH2 0x1941 JUMPI SWAP2 DUP3 ADD JUMPDEST DUP3 DUP2 GT ISZERO PUSH2 0x1940 JUMPI DUP3 MLOAD DUP3 SSTORE SWAP2 PUSH1 0x20 ADD SWAP2 SWAP1 PUSH1 0x1 ADD SWAP1 PUSH2 0x1925 JUMP JUMPDEST JUMPDEST POP SWAP1 POP PUSH2 0x194E SWAP2 SWAP1 PUSH2 0x1952 JUMP JUMPDEST POP SWAP1 JUMP JUMPDEST JUMPDEST DUP1 DUP3 GT ISZERO PUSH2 0x196B JUMPI PUSH1 0x0 DUP2 PUSH1 0x0 SWAP1 SSTORE POP PUSH1 0x1 ADD PUSH2 0x1953 JUMP JUMPDEST POP SWAP1 JUMP JUMPDEST PUSH1 0x0 PUSH2 0x1982 PUSH2 0x197D DUP5 PUSH2 0x263C JUMP JUMPDEST PUSH2 0x260B JUMP JUMPDEST SWAP1 POP DUP3 DUP2 MSTORE PUSH1 0x20 DUP2 ADD DUP5 DUP5 DUP5 ADD GT ISZERO PUSH2 0x199A JUMPI PUSH1 0x0 DUP1 REVERT JUMPDEST PUSH2 0x19A5 DUP5 DUP3 DUP6 PUSH2 0x2802 JUMP JUMPDEST POP SWAP4 SWAP3 POP POP POP JUMP JUMPDEST PUSH1 0x0 PUSH2 0x19C0 PUSH2 0x19BB DUP5 PUSH2 0x266C JUMP JUMPDEST PUSH2 0x260B JUMP JUMPDEST SWAP1 POP DUP3 DUP2 MSTORE PUSH1 0x20 DUP2 ADD DUP5 DUP5 DUP5 ADD GT ISZERO PUSH2 0x19D8 JUMPI PUSH1 0x0 DUP1 REVERT JUMPDEST PUSH2 0x19E3 DUP5 DUP3 DUP6 PUSH2 0x2802 JUMP JUMPDEST POP SWAP4 SWAP3 POP POP POP JUMP JUMPDEST PUSH1 0x0 DUP2 CALLDATALOAD SWAP1 POP PUSH2 0x19FA DUP2 PUSH2 0x29BD JUMP JUMPDEST SWAP3 SWAP2 POP POP JUMP JUMPDEST PUSH1 0x0 DUP2 MLOAD SWAP1 POP PUSH2 0x1A0F DUP2 PUSH2 0x29D4 JUMP JUMPDEST SWAP3 SWAP2 POP POP JUMP JUMPDEST PUSH1 0x0 DUP3 PUSH1 0x1F DUP4 ADD SLT PUSH2 0x1A26 JUMPI PUSH1 0x0 DUP1 REVERT JUMPDEST DUP2 CALLDATALOAD PUSH2 0x1A36 DUP5 DUP3 PUSH1 0x20 DUP7 ADD PUSH2 0x196F JUMP JUMPDEST SWAP2 POP POP SWAP3 SWAP2 POP POP JUMP JUMPDEST PUSH1 0x0 DUP3 PUSH1 0x1F DUP4 ADD SLT PUSH2 0x1A50 JUMPI PUSH1 0x0 DUP1 REVERT JUMPDEST DUP2 CALLDATALOAD PUSH2 0x1A60 DUP5 DUP3 PUSH1 0x20 DUP7 ADD PUSH2 0x19AD JUMP JUMPDEST SWAP2 POP POP SWAP3 SWAP2 POP POP JUMP JUMPDEST PUSH1 0x0 DUP2 CALLDATALOAD SWAP1 POP PUSH2 0x1A78 DUP2 PUSH2 0x29EB JUMP JUMPDEST SWAP3 SWAP2 POP POP JUMP JUMPDEST PUSH1 0x0 PUSH1 0x20 DUP3 DUP5 SUB SLT ISZERO PUSH2 0x1A90 JUMPI PUSH1 0x0 DUP1 REVERT JUMPDEST PUSH1 0x0 PUSH2 0x1A9E DUP5 DUP3 DUP6 ADD PUSH2 0x19EB JUMP JUMPDEST SWAP2 POP POP SWAP3 SWAP2 POP POP JUMP JUMPDEST PUSH1 0x0 DUP1 PUSH1 0x0 PUSH1 0x60 DUP5 DUP7 SUB SLT ISZERO PUSH2 0x1ABC JUMPI PUSH1 0x0 DUP1 REVERT JUMPDEST PUSH1 0x0 PUSH2 0x1ACA DUP7 DUP3 DUP8 ADD PUSH2 0x19EB JUMP JUMPDEST SWAP4 POP POP PUSH1 0x20 PUSH2 0x1ADB DUP7 DUP3 DUP8 ADD PUSH2 0x19EB JUMP JUMPDEST SWAP3 POP POP PUSH1 0x40 PUSH2 0x1AEC DUP7 DUP3 DUP8 ADD PUSH2 0x1A69 JUMP JUMPDEST SWAP2 POP POP SWAP3 POP SWAP3 POP SWAP3 JUMP JUMPDEST PUSH1 0x0 DUP1 PUSH1 0x0 DUP1 PUSH1 0x80 DUP6 DUP8 SUB SLT ISZERO PUSH2 0x1B0C JUMPI PUSH1 0x0 DUP1 REVERT JUMPDEST PUSH1 0x0 PUSH2 0x1B1A DUP8 DUP3 DUP9 ADD PUSH2 0x19EB JUMP JUMPDEST SWAP5 POP POP PUSH1 0x20 PUSH2 0x1B2B DUP8 DUP3 DUP9 ADD PUSH2 0x19EB JUMP JUMPDEST SWAP4 POP POP PUSH1 0x40 PUSH2 0x1B3C DUP8 DUP3 DUP9 ADD PUSH2 0x1A69 JUMP JUMPDEST SWAP3 POP POP PUSH1 0x60 DUP6 ADD CALLDATALOAD PUSH8 0xFFFFFFFFFFFFFFFF DUP2 GT ISZERO PUSH2 0x1B59 JUMPI PUSH1 0x0 DUP1 REVERT JUMPDEST PUSH2 0x1B65 DUP8 DUP3 DUP9 ADD PUSH2 0x1A15 JUMP JUMPDEST SWAP2 POP POP SWAP3 SWAP6 SWAP2 SWAP5 POP SWAP3 POP JUMP JUMPDEST PUSH1 0x0 DUP1 PUSH1 0x40 DUP4 DUP6 SUB SLT ISZERO PUSH2 0x1B84 JUMPI PUSH1 0x0 DUP1 REVERT JUMPDEST PUSH1 0x0 PUSH2 0x1B92 DUP6 DUP3 DUP7 ADD PUSH2 0x19EB JUMP JUMPDEST SWAP3 POP POP PUSH1 0x20 DUP4 ADD CALLDATALOAD PUSH8 0xFFFFFFFFFFFFFFFF DUP2 GT ISZERO PUSH2 0x1BAF JUMPI PUSH1 0x0 DUP1 REVERT JUMPDEST PUSH2 0x1BBB DUP6 DUP3 DUP7 ADD PUSH2 0x1A3F JUMP JUMPDEST SWAP2 POP POP SWAP3 POP SWAP3 SWAP1 POP JUMP JUMPDEST PUSH1 0x0 DUP1 PUSH1 0x40 DUP4 DUP6 SUB SLT ISZERO PUSH2 0x1BD8 JUMPI PUSH1 0x0 DUP1 REVERT JUMPDEST PUSH1 0x0 PUSH2 0x1BE6 DUP6 DUP3 DUP7 ADD PUSH2 0x19EB JUMP JUMPDEST SWAP3 POP POP PUSH1 0x20 PUSH2 0x1BF7 DUP6 DUP3 DUP7 ADD PUSH2 0x1A69 JUMP JUMPDEST SWAP2 POP POP SWAP3 POP SWAP3 SWAP1 POP JUMP JUMPDEST PUSH1 0x0 PUSH1 0x20 DUP3 DUP5 SUB SLT ISZERO PUSH2 0x1C13 JUMPI PUSH1 0x0 DUP1 REVERT JUMPDEST PUSH1 0x0 PUSH2 0x1C21 DUP5 DUP3 DUP6 ADD PUSH2 0x1A00 JUMP JUMPDEST SWAP2 POP POP SWAP3 SWAP2 POP POP JUMP JUMPDEST PUSH1 0x0 PUSH1 0x20 DUP3 DUP5 SUB SLT ISZERO PUSH2 0x1C3C JUMPI PUSH1 0x0 DUP1 REVERT JUMPDEST PUSH1 0x0 DUP3 ADD CALLDATALOAD PUSH8 0xFFFFFFFFFFFFFFFF DUP2 GT ISZERO PUSH2 0x1C56 JUMPI PUSH1 0x0 DUP1 REVERT JUMPDEST PUSH2 0x1C62 DUP5 DUP3 DUP6 ADD PUSH2 0x1A3F JUMP JUMPDEST SWAP2 POP POP SWAP3 SWAP2 POP POP JUMP JUMPDEST PUSH1 0x0 PUSH1 0x20 DUP3 DUP5 SUB SLT ISZERO PUSH2 0x1C7D JUMPI PUSH1 0x0 DUP1 REVERT JUMPDEST PUSH1 0x0 PUSH2 0x1C8B DUP5 DUP3 DUP6 ADD PUSH2 0x1A69 JUMP JUMPDEST SWAP2 POP POP SWAP3 SWAP2 POP POP JUMP JUMPDEST PUSH2 0x1C9D DUP2 PUSH2 0x279A JUMP JUMPDEST DUP3 MSTORE POP POP JUMP JUMPDEST PUSH1 0x0 PUSH2 0x1CAE DUP3 PUSH2 0x269C JUMP JUMPDEST PUSH2 0x1CB8 DUP2 DUP6 PUSH2 0x26B2 JUMP JUMPDEST SWAP4 POP PUSH2 0x1CC8 DUP2 DUP6 PUSH1 0x20 DUP7 ADD PUSH2 0x2811 JUMP JUMPDEST PUSH2 0x1CD1 DUP2 PUSH2 0x29AC JUMP JUMPDEST DUP5 ADD SWAP2 POP POP SWAP3 SWAP2 POP POP JUMP JUMPDEST PUSH1 0x0 PUSH2 0x1CE7 DUP3 PUSH2 0x26A7 JUMP JUMPDEST PUSH2 0x1CF1 DUP2 DUP6 PUSH2 0x26C3 JUMP JUMPDEST SWAP4 POP PUSH2 0x1D01 DUP2 DUP6 PUSH1 0x20 DUP7 ADD PUSH2 0x2811 JUMP JUMPDEST PUSH2 0x1D0A DUP2 PUSH2 0x29AC JUMP JUMPDEST DUP5 ADD SWAP2 POP POP SWAP3 SWAP2 POP POP JUMP JUMPDEST PUSH1 0x0 PUSH2 0x1D20 DUP3 PUSH2 0x26A7 JUMP JUMPDEST PUSH2 0x1D2A DUP2 DUP6 PUSH2 0x26D4 JUMP JUMPDEST SWAP4 POP PUSH2 0x1D3A DUP2 DUP6 PUSH1 0x20 DUP7 ADD PUSH2 0x2811 JUMP JUMPDEST DUP1 DUP5 ADD SWAP2 POP POP SWAP3 SWAP2 POP POP JUMP JUMPDEST PUSH1 0x0 PUSH2 0x1D53 PUSH1 0x32 DUP4 PUSH2 0x26C3 JUMP JUMPDEST SWAP2 POP PUSH32 0x4552433732313A207472616E7366657220746F206E6F6E204552433732315265 PUSH1 0x0 DUP4 ADD MSTORE PUSH32 0x63656976657220696D706C656D656E7465720000000000000000000000000000 PUSH1 0x20 DUP4 ADD MSTORE PUSH1 0x40 DUP3 ADD SWAP1 POP SWAP2 SWAP1 POP JUMP JUMPDEST PUSH1 0x0 PUSH2 0x1DB9 PUSH1 0x26 DUP4 PUSH2 0x26C3 JUMP JUMPDEST SWAP2 POP PUSH32 0x4F776E61626C653A206E6577206F776E657220697320746865207A65726F2061 PUSH1 0x0 DUP4 ADD MSTORE PUSH32 0x6464726573730000000000000000000000000000000000000000000000000000 PUSH1 0x20 DUP4 ADD MSTORE PUSH1 0x40 DUP3 ADD SWAP1 POP SWAP2 SWAP1 POP JUMP JUMPDEST PUSH1 0x0 PUSH2 0x1E1F PUSH1 0x25 DUP4 PUSH2 0x26C3 JUMP JUMPDEST SWAP2 POP PUSH32 0x4552433732313A207472616E736665722066726F6D20696E636F727265637420 PUSH1 0x0 DUP4 ADD MSTORE PUSH32 0x6F776E6572000000000000000000000000000000000000000000000000000000 PUSH1 0x20 DUP4 ADD MSTORE PUSH1 0x40 DUP3 ADD SWAP1 POP SWAP2 SWAP1 POP JUMP JUMPDEST PUSH1 0x0 PUSH2 0x1E85 PUSH1 0x1C DUP4 PUSH2 0x26C3 JUMP JUMPDEST SWAP2 POP PUSH32 0x4552433732313A20746F6B656E20616C7265616479206D696E74656400000000 PUSH1 0x0 DUP4 ADD MSTORE PUSH1 0x20 DUP3 ADD SWAP1 POP SWAP2 SWAP1 POP JUMP JUMPDEST PUSH1 0x0 PUSH2 0x1EC5 PUSH1 0x24 DUP4 PUSH2 0x26C3 JUMP JUMPDEST SWAP2 POP PUSH32 0x4552433732313A207472616E7366657220746F20746865207A65726F20616464 PUSH1 0x0 DUP4 ADD MSTORE PUSH32 0x7265737300000000000000000000000000000000000000000000000000000000 PUSH1 0x20 DUP4 ADD MSTORE PUSH1 0x40 DUP3 ADD SWAP1 POP SWAP2 SWAP1 POP JUMP JUMPDEST PUSH1 0x0 PUSH2 0x1F2B PUSH1 0x2C DUP4 PUSH2 0x26C3 JUMP JUMPDEST SWAP2 POP PUSH32 0x4552433732313A206F70657261746F7220717565727920666F72206E6F6E6578 PUSH1 0x0 DUP4 ADD MSTORE PUSH32 0x697374656E7420746F6B656E0000000000000000000000000000000000000000 PUSH1 0x20 DUP4 ADD MSTORE PUSH1 0x40 DUP3 ADD SWAP1 POP SWAP2 SWAP1 POP JUMP JUMPDEST PUSH1 0x0 PUSH2 0x1F91 PUSH1 0x38 DUP4 PUSH2 0x26C3 JUMP JUMPDEST SWAP2 POP PUSH32 0x4552433732313A20617070726F76652063616C6C6572206973206E6F74206F77 PUSH1 0x0 DUP4 ADD MSTORE PUSH32 0x6E6572206E6F7220617070726F76656420666F7220616C6C0000000000000000 PUSH1 0x20 DUP4 ADD MSTORE PUSH1 0x40 DUP3 ADD SWAP1 POP SWAP2 SWAP1 POP JUMP JUMPDEST PUSH1 0x0 PUSH2 0x1FF7 PUSH1 0x2A DUP4 PUSH2 0x26C3 JUMP JUMPDEST SWAP2 POP PUSH32 0x4552433732313A2062616C616E636520717565727920666F7220746865207A65 PUSH1 0x0 DUP4 ADD MSTORE PUSH32 0x726F206164647265737300000000000000000000000000000000000000000000 PUSH1 0x20 DUP4 ADD MSTORE PUSH1 0x40 DUP3 ADD SWAP1 POP SWAP2 SWAP1 POP JUMP JUMPDEST PUSH1 0x0 PUSH2 0x205D PUSH1 0x29 DUP4 PUSH2 0x26C3 JUMP JUMPDEST SWAP2 POP PUSH32 0x4552433732313A206F776E657220717565727920666F72206E6F6E6578697374 PUSH1 0x0 DUP4 ADD MSTORE PUSH32 0x656E7420746F6B656E0000000000000000000000000000000000000000000000 PUSH1 0x20 DUP4 ADD MSTORE PUSH1 0x40 DUP3 ADD SWAP1 POP SWAP2 SWAP1 POP JUMP JUMPDEST PUSH1 0x0 PUSH2 0x20C3 PUSH1 0x20 DUP4 PUSH2 0x26C3 JUMP JUMPDEST SWAP2 POP PUSH32 0x4552433732313A206D696E7420746F20746865207A65726F2061646472657373 PUSH1 0x0 DUP4 ADD MSTORE PUSH1 0x20 DUP3 ADD SWAP1 POP SWAP2 SWAP1 POP JUMP JUMPDEST PUSH1 0x0 PUSH2 0x2103 PUSH1 0x2C DUP4 PUSH2 0x26C3 JUMP JUMPDEST SWAP2 POP PUSH32 0x4552433732313A20617070726F76656420717565727920666F72206E6F6E6578 PUSH1 0x0 DUP4 ADD MSTORE PUSH32 0x697374656E7420746F6B656E0000000000000000000000000000000000000000 PUSH1 0x20 DUP4 ADD MSTORE PUSH1 0x40 DUP3 ADD SWAP1 POP SWAP2 SWAP1 POP JUMP JUMPDEST PUSH1 0x0 PUSH2 0x2169 PUSH1 0x2C DUP4 PUSH2 0x26C3 JUMP JUMPDEST SWAP2 POP PUSH32 0x4552433732314D657461646174613A2055524920736574206F66206E6F6E6578 PUSH1 0x0 DUP4 ADD MSTORE PUSH32 0x697374656E7420746F6B656E0000000000000000000000000000000000000000 PUSH1 0x20 DUP4 ADD MSTORE PUSH1 0x40 DUP3 ADD SWAP1 POP SWAP2 SWAP1 POP JUMP JUMPDEST PUSH1 0x0 PUSH2 0x21CF PUSH1 0x20 DUP4 PUSH2 0x26C3 JUMP JUMPDEST SWAP2 POP PUSH32 0x4F776E61626C653A2063616C6C6572206973206E6F7420746865206F776E6572 PUSH1 0x0 DUP4 ADD MSTORE PUSH1 0x20 DUP3 ADD SWAP1 POP SWAP2 SWAP1 POP JUMP JUMPDEST PUSH1 0x0 PUSH2 0x220F PUSH1 0x2F DUP4 PUSH2 0x26C3 JUMP JUMPDEST SWAP2 POP PUSH32 0x4552433732314D657461646174613A2055524920717565727920666F72206E6F PUSH1 0x0 DUP4 ADD MSTORE PUSH32 0x6E6578697374656E7420746F6B656E0000000000000000000000000000000000 PUSH1 0x20 DUP4 ADD MSTORE PUSH1 0x40 DUP3 ADD SWAP1 POP SWAP2 SWAP1 POP JUMP JUMPDEST PUSH1 0x0 PUSH2 0x2275 PUSH1 0x21 DUP4 PUSH2 0x26C3 JUMP JUMPDEST SWAP2 POP PUSH32 0x4552433732313A20617070726F76616C20746F2063757272656E74206F776E65 PUSH1 0x0 DUP4 ADD MSTORE PUSH32 0x7200000000000000000000000000000000000000000000000000000000000000 PUSH1 0x20 DUP4 ADD MSTORE PUSH1 0x40 DUP3 ADD SWAP1 POP SWAP2 SWAP1 POP JUMP JUMPDEST PUSH1 0x0 PUSH2 0x22DB PUSH1 0x31 DUP4 PUSH2 0x26C3 JUMP JUMPDEST SWAP2 POP PUSH32 0x4552433732313A207472616E736665722063616C6C6572206973206E6F74206F PUSH1 0x0 DUP4 ADD MSTORE PUSH32 0x776E6572206E6F7220617070726F766564000000000000000000000000000000 PUSH1 0x20 DUP4 ADD MSTORE PUSH1 0x40 DUP3 ADD SWAP1 POP SWAP2 SWAP1 POP JUMP JUMPDEST PUSH2 0x233D DUP2 PUSH2 0x27F8 JUMP JUMPDEST DUP3 MSTORE POP POP JUMP JUMPDEST PUSH1 0x0 PUSH2 0x234F DUP3 DUP6 PUSH2 0x1D15 JUMP JUMPDEST SWAP2 POP PUSH2 0x235B DUP3 DUP5 PUSH2 0x1D15 JUMP JUMPDEST SWAP2 POP DUP2 SWAP1 POP SWAP4 SWAP3 POP POP POP JUMP JUMPDEST PUSH1 0x0 PUSH1 0x20 DUP3 ADD SWAP1 POP PUSH2 0x237C PUSH1 0x0 DUP4 ADD DUP5 PUSH2 0x1C94 JUMP JUMPDEST SWAP3 SWAP2 POP POP JUMP JUMPDEST PUSH1 0x0 PUSH1 0x80 DUP3 ADD SWAP1 POP PUSH2 0x2397 PUSH1 0x0 DUP4 ADD DUP8 PUSH2 0x1C94 JUMP JUMPDEST PUSH2 0x23A4 PUSH1 0x20 DUP4 ADD DUP7 PUSH2 0x1C94 JUMP JUMPDEST PUSH2 0x23B1 PUSH1 0x40 DUP4 ADD DUP6 PUSH2 0x2334 JUMP JUMPDEST DUP2 DUP2 SUB PUSH1 0x60 DUP4 ADD MSTORE PUSH2 0x23C3 DUP2 DUP5 PUSH2 0x1CA3 JUMP JUMPDEST SWAP1 POP SWAP6 SWAP5 POP POP POP POP POP JUMP JUMPDEST PUSH1 0x0 PUSH1 0x20 DUP3 ADD SWAP1 POP DUP2 DUP2 SUB PUSH1 0x0 DUP4 ADD MSTORE PUSH2 0x23E8 DUP2 DUP5 PUSH2 0x1CDC JUMP JUMPDEST SWAP1 POP SWAP3 SWAP2 POP POP JUMP JUMPDEST PUSH1 0x0 PUSH1 0x20 DUP3 ADD SWAP1 POP DUP2 DUP2 SUB PUSH1 0x0 DUP4 ADD MSTORE PUSH2 0x2409 DUP2 PUSH2 0x1D46 JUMP JUMPDEST SWAP1 POP SWAP2 SWAP1 POP JUMP JUMPDEST PUSH1 0x0 PUSH1 0x20 DUP3 ADD SWAP1 POP DUP2 DUP2 SUB PUSH1 0x0 DUP4 ADD MSTORE PUSH2 0x2429 DUP2 PUSH2 0x1DAC JUMP JUMPDEST SWAP1 POP SWAP2 SWAP1 POP JUMP JUMPDEST PUSH1 0x0 PUSH1 0x20 DUP3 ADD SWAP1 POP DUP2 DUP2 SUB PUSH1 0x0 DUP4 ADD MSTORE PUSH2 0x2449 DUP2 PUSH2 0x1E12 JUMP JUMPDEST SWAP1 POP SWAP2 SWAP1 POP JUMP JUMPDEST PUSH1 0x0 PUSH1 0x20 DUP3 ADD SWAP1 POP DUP2 DUP2 SUB PUSH1 0x0 DUP4 ADD MSTORE PUSH2 0x2469 DUP2 PUSH2 0x1E78 JUMP JUMPDEST SWAP1 POP SWAP2 SWAP1 POP JUMP JUMPDEST PUSH1 0x0 PUSH1 0x20 DUP3 ADD SWAP1 POP DUP2 DUP2 SUB PUSH1 0x0 DUP4 ADD MSTORE PUSH2 0x2489 DUP2 PUSH2 0x1EB8 JUMP JUMPDEST SWAP1 POP SWAP2 SWAP1 POP JUMP JUMPDEST PUSH1 0x0 PUSH1 0x20 DUP3 ADD SWAP1 POP DUP2 DUP2 SUB PUSH1 0x0 DUP4 ADD MSTORE PUSH2 0x24A9 DUP2 PUSH2 0x1F1E JUMP JUMPDEST SWAP1 POP SWAP2 SWAP1 POP JUMP JUMPDEST PUSH1 0x0 PUSH1 0x20 DUP3 ADD SWAP1 POP DUP2 DUP2 SUB PUSH1 0x0 DUP4 ADD MSTORE PUSH2 0x24C9 DUP2 PUSH2 0x1F84 JUMP JUMPDEST SWAP1 POP SWAP2 SWAP1 POP JUMP JUMPDEST PUSH1 0x0 PUSH1 0x20 DUP3 ADD SWAP1 POP DUP2 DUP2 SUB PUSH1 0x0 DUP4 ADD MSTORE PUSH2 0x24E9 DUP2 PUSH2 0x1FEA JUMP JUMPDEST SWAP1 POP SWAP2 SWAP1 POP JUMP JUMPDEST PUSH1 0x0 PUSH1 0x20 DUP3 ADD SWAP1 POP DUP2 DUP2 SUB PUSH1 0x0 DUP4 ADD MSTORE PUSH2 0x2509 DUP2 PUSH2 0x2050 JUMP JUMPDEST SWAP1 POP SWAP2 SWAP1 POP JUMP JUMPDEST PUSH1 0x0 PUSH1 0x20 DUP3 ADD SWAP1 POP DUP2 DUP2 SUB PUSH1 0x0 DUP4 ADD MSTORE PUSH2 0x2529 DUP2 PUSH2 0x20B6 JUMP JUMPDEST SWAP1 POP SWAP2 SWAP1 POP JUMP JUMPDEST PUSH1 0x0 PUSH1 0x20 DUP3 ADD SWAP1 POP DUP2 DUP2 SUB PUSH1 0x0 DUP4 ADD MSTORE PUSH2 0x2549 DUP2 PUSH2 0x20F6 JUMP JUMPDEST SWAP1 POP SWAP2 SWAP1 POP JUMP JUMPDEST PUSH1 0x0 PUSH1 0x20 DUP3 ADD SWAP1 POP DUP2 DUP2 SUB PUSH1 0x0 DUP4 ADD MSTORE PUSH2 0x2569 DUP2 PUSH2 0x215C JUMP JUMPDEST SWAP1 POP SWAP2 SWAP1 POP JUMP JUMPDEST PUSH1 0x0 PUSH1 0x20 DUP3 ADD SWAP1 POP DUP2 DUP2 SUB PUSH1 0x0 DUP4 ADD MSTORE PUSH2 0x2589 DUP2 PUSH2 0x21C2 JUMP JUMPDEST SWAP1 POP SWAP2 SWAP1 POP JUMP JUMPDEST PUSH1 0x0 PUSH1 0x20 DUP3 ADD SWAP1 POP DUP2 DUP2 SUB PUSH1 0x0 DUP4 ADD MSTORE PUSH2 0x25A9 DUP2 PUSH2 0x2202 JUMP JUMPDEST SWAP1 POP SWAP2 SWAP1 POP JUMP JUMPDEST PUSH1 0x0 PUSH1 0x20 DUP3 ADD SWAP1 POP DUP2 DUP2 SUB PUSH1 0x0 DUP4 ADD MSTORE PUSH2 0x25C9 DUP2 PUSH2 0x2268 JUMP JUMPDEST SWAP1 POP SWAP2 SWAP1 POP JUMP JUMPDEST PUSH1 0x0 PUSH1 0x20 DUP3 ADD SWAP1 POP DUP2 DUP2 SUB PUSH1 0x0 DUP4 ADD MSTORE PUSH2 0x25E9 DUP2 PUSH2 0x22CE JUMP JUMPDEST SWAP1 POP SWAP2 SWAP1 POP JUMP JUMPDEST PUSH1 0x0 PUSH1 0x20 DUP3 ADD SWAP1 POP PUSH2 0x2605 PUSH1 0x0 DUP4 ADD DUP5 PUSH2 0x2334 JUMP JUMPDEST SWAP3 SWAP2 POP POP JUMP JUMPDEST PUSH1 0x0 PUSH1 0x40 MLOAD SWAP1 POP DUP2 DUP2 ADD DUP2 DUP2 LT PUSH8 0xFFFFFFFFFFFFFFFF DUP3 GT OR ISZERO PUSH2 0x2632 JUMPI PUSH2 0x2631 PUSH2 0x297D JUMP JUMPDEST JUMPDEST DUP1 PUSH1 0x40 MSTORE POP SWAP2 SWAP1 POP JUMP JUMPDEST PUSH1 0x0 PUSH8 0xFFFFFFFFFFFFFFFF DUP3 GT ISZERO PUSH2 0x2657 JUMPI PUSH2 0x2656 PUSH2 0x297D JUMP JUMPDEST JUMPDEST PUSH1 0x1F NOT PUSH1 0x1F DUP4 ADD AND SWAP1 POP PUSH1 0x20 DUP2 ADD SWAP1 POP SWAP2 SWAP1 POP JUMP JUMPDEST PUSH1 0x0 PUSH8 0xFFFFFFFFFFFFFFFF DUP3 GT ISZERO PUSH2 0x2687 JUMPI PUSH2 0x2686 PUSH2 0x297D JUMP JUMPDEST JUMPDEST PUSH1 0x1F NOT PUSH1 0x1F DUP4 ADD AND SWAP1 POP PUSH1 0x20 DUP2 ADD SWAP1 POP SWAP2 SWAP1 POP JUMP JUMPDEST PUSH1 0x0 DUP2 MLOAD SWAP1 POP SWAP2 SWAP1 POP JUMP JUMPDEST PUSH1 0x0 DUP2 MLOAD SWAP1 POP SWAP2 SWAP1 POP JUMP JUMPDEST PUSH1 0x0 DUP3 DUP3 MSTORE PUSH1 0x20 DUP3 ADD SWAP1 POP SWAP3 SWAP2 POP POP JUMP JUMPDEST PUSH1 0x0 DUP3 DUP3 MSTORE PUSH1 0x20 DUP3 ADD SWAP1 POP SWAP3 SWAP2 POP POP JUMP JUMPDEST PUSH1 0x0 DUP2 SWAP1 POP SWAP3 SWAP2 POP POP JUMP JUMPDEST PUSH1 0x0 PUSH2 0x26EA DUP3 PUSH2 0x27F8 JUMP JUMPDEST SWAP2 POP PUSH2 0x26F5 DUP4 PUSH2 0x27F8 JUMP JUMPDEST SWAP3 POP DUP3 PUSH32 0xFFFFFFFFFFFFFFFFFFFFFFFFFFFFFFFFFFFFFFFFFFFFFFFFFFFFFFFFFFFFFFFF SUB DUP3 GT ISZERO PUSH2 0x272A JUMPI PUSH2 0x2729 PUSH2 0x28F0 JUMP JUMPDEST JUMPDEST DUP3 DUP3 ADD SWAP1 POP SWAP3 SWAP2 POP POP JUMP JUMPDEST PUSH1 0x0 PUSH2 0x2740 DUP3 PUSH2 0x27F8 JUMP JUMPDEST SWAP2 POP PUSH2 0x274B DUP4 PUSH2 0x27F8 JUMP JUMPDEST SWAP3 POP DUP3 PUSH2 0x275B JUMPI PUSH2 0x275A PUSH2 0x291F JUMP JUMPDEST JUMPDEST DUP3 DUP3 DIV SWAP1 POP SWAP3 SWAP2 POP POP JUMP JUMPDEST PUSH1 0x0 PUSH2 0x2771 DUP3 PUSH2 0x27F8 JUMP JUMPDEST SWAP2 POP PUSH2 0x277C DUP4 PUSH2 0x27F8 JUMP JUMPDEST SWAP3 POP DUP3 DUP3 LT ISZERO PUSH2 0x278F JUMPI PUSH2 0x278E PUSH2 0x28F0 JUMP JUMPDEST JUMPDEST DUP3 DUP3 SUB SWAP1 POP SWAP3 SWAP2 POP POP JUMP JUMPDEST PUSH1 0x0 PUSH2 0x27A5 DUP3 PUSH2 0x27D8 JUMP JUMPDEST SWAP1 POP SWAP2 SWAP1 POP JUMP JUMPDEST PUSH1 0x0 PUSH32 0xFFFFFFFF00000000000000000000000000000000000000000000000000000000 DUP3 AND SWAP1 POP SWAP2 SWAP1 POP JUMP JUMPDEST PUSH1 0x0 PUSH20 0xFFFFFFFFFFFFFFFFFFFFFFFFFFFFFFFFFFFFFFFF DUP3 AND SWAP1 POP SWAP2 SWAP1 POP JUMP JUMPDEST PUSH1 0x0 DUP2 SWAP1 POP SWAP2 SWAP1 POP JUMP JUMPDEST DUP3 DUP2 DUP4 CALLDATACOPY PUSH1 0x0 DUP4 DUP4 ADD MSTORE POP POP POP JUMP JUMPDEST PUSH1 0x0 JUMPDEST DUP4 DUP2 LT ISZERO PUSH2 0x282F JUMPI DUP1 DUP3 ADD MLOAD DUP2 DUP5 ADD MSTORE PUSH1 0x20 DUP2 ADD SWAP1 POP PUSH2 0x2814 JUMP JUMPDEST DUP4 DUP2 GT ISZERO PUSH2 0x283E JUMPI PUSH1 0x0 DUP5 DUP5 ADD MSTORE JUMPDEST POP POP POP POP JUMP JUMPDEST PUSH1 0x0 PUSH1 0x2 DUP3 DIV SWAP1 POP PUSH1 0x1 DUP3 AND DUP1 PUSH2 0x285C JUMPI PUSH1 0x7F DUP3 AND SWAP2 POP JUMPDEST PUSH1 0x20 DUP3 LT DUP2 EQ ISZERO PUSH2 0x2870 JUMPI PUSH2 0x286F PUSH2 0x294E JUMP JUMPDEST JUMPDEST POP SWAP2 SWAP1 POP JUMP JUMPDEST PUSH1 0x0 PUSH2 0x2881 DUP3 PUSH2 0x27F8 JUMP JUMPDEST SWAP2 POP PUSH32 0xFFFFFFFFFFFFFFFFFFFFFFFFFFFFFFFFFFFFFFFFFFFFFFFFFFFFFFFFFFFFFFFF DUP3 EQ ISZERO PUSH2 0x28B4 JUMPI PUSH2 0x28B3 PUSH2 0x28F0 JUMP JUMPDEST JUMPDEST PUSH1 0x1 DUP3 ADD SWAP1 POP SWAP2 SWAP1 POP JUMP JUMPDEST PUSH1 0x0 PUSH2 0x28CA DUP3 PUSH2 0x27F8 JUMP JUMPDEST SWAP2 POP PUSH2 0x28D5 DUP4 PUSH2 0x27F8 JUMP JUMPDEST SWAP3 POP DUP3 PUSH2 0x28E5 JUMPI PUSH2 0x28E4 PUSH2 0x291F JUMP JUMPDEST JUMPDEST DUP3 DUP3 MOD SWAP1 POP SWAP3 SWAP2 POP POP JUMP JUMPDEST PUSH32 0x4E487B7100000000000000000000000000000000000000000000000000000000 PUSH1 0x0 MSTORE PUSH1 0x11 PUSH1 0x4 MSTORE PUSH1 0x24 PUSH1 0x0 REVERT JUMPDEST PUSH32 0x4E487B7100000000000000000000000000000000000000000000000000000000 PUSH1 0x0 MSTORE PUSH1 0x12 PUSH1 0x4 MSTORE PUSH1 0x24 PUSH1 0x0 REVERT JUMPDEST PUSH32 0x4E487B7100000000000000000000000000000000000000000000000000000000 PUSH1 0x0 MSTORE PUSH1 0x22 PUSH1 0x4 MSTORE PUSH1 0x24 PUSH1 0x0 REVERT JUMPDEST PUSH32 0x4E487B7100000000000000000000000000000000000000000000000000000000 PUSH1 0x0 MSTORE PUSH1 0x41 PUSH1 0x4 MSTORE PUSH1 0x24 PUSH1 0x0 REVERT JUMPDEST PUSH1 0x0 PUSH1 0x1F NOT PUSH1 0x1F DUP4 ADD AND SWAP1 POP SWAP2 SWAP1 POP JUMP JUMPDEST PUSH2 0x29C6 DUP2 PUSH2 0x279A JUMP JUMPDEST DUP2 EQ PUSH2 0x29D1 JUMPI PUSH1 0x0 DUP1 REVERT JUMPDEST POP JUMP JUMPDEST PUSH2 0x29DD DUP2 PUSH2 0x27AC JUMP JUMPDEST DUP2 EQ PUSH2 0x29E8 JUMPI PUSH1 0x0 DUP1 REVERT JUMPDEST POP JUMP JUMPDEST PUSH2 0x29F4 DUP2 PUSH2 0x27F8 JUMP JUMPDEST DUP2 EQ PUSH2 0x29FF JUMPI PUSH1 0x0 DUP1 REVERT JUMPDEST POP JUMP INVALID LOG2 PUSH5 0x6970667358 0x22 SLT KECCAK256 0xB0 DIV PUSH8 0x968C052160CEF99 0xC0 PUSH18 0xCF029F25324B3466D8B6E1A437CDCCD8B1B DUP13 PUSH5 0x736F6C6343 STOP ADDMOD STOP STOP CALLER "
				},
				"gasEstimates": {
					"creation": {
						"codeDepositCost": "2161600",
						"executionCost": "infinite",
						"totalCost": "infinite"
					},
					"external": {
						"approve(address,uint256)": "infinite",
						"balanceOf(address)": "1602",
						"getApproved(uint256)": "2606",
						"mint(address,string)": "infinite",
						"name()": "infinite",
						"nextId()": "1196",
						"owner()": "1289",
						"ownerOf(uint256)": "1737",
						"renounceOwnership()": "24419",
						"safeTransferFrom(address,address,uint256)": "infinite",
						"safeTransferFrom(address,address,uint256,bytes)": "infinite",
						"setBaseURI(string)": "infinite",
						"symbol()": "infinite",
						"tokenURI(uint256)": "infinite",
						"transferFrom(address,address,uint256)": "infinite",
						"transferOwnership(address)": "24811"
					},
					"internal": {
						"_baseURI()": "infinite",
						"_setTokenURI(uint256,string memory)": "infinite"
					}
				},
				"methodIdentifiers": {
					"approve(address,uint256)": "095ea7b3",
					"balanceOf(address)": "70a08231",
					"getApproved(uint256)": "081812fc",
					"mint(address,string)": "d0def521",
					"name()": "06fdde03",
					"nextId()": "61b8ce8c",
					"owner()": "8da5cb5b",
					"ownerOf(uint256)": "6352211e",
					"renounceOwnership()": "715018a6",
					"safeTransferFrom(address,address,uint256)": "42842e0e",
					"safeTransferFrom(address,address,uint256,bytes)": "b88d4fde",
					"setBaseURI(string)": "55f804b3",
					"symbol()": "95d89b41",
					"tokenURI(uint256)": "c87b56dd",
					"transferFrom(address,address,uint256)": "23b872dd",
					"transferOwnership(address)": "f2fde38b"
				}
			},
			"storageLayout": {
				"storage": [
					{
						"astId": 516,
						"contract": "contracts/NFTContract/SQFItem.sol:SQFItem",
						"label": "_owner",
						"offset": 0,
						"slot": "0",
						"type": "t_address"
					},
					{
						"astId": 731,
						"contract": "contracts/NFTContract/SQFItem.sol:SQFItem",
						"label": "_balances",
						"offset": 0,
						"slot": "1",
						"type": "t_mapping(t_address,t_uint256)"
					},
					{
						"astId": 735,
						"contract": "contracts/NFTContract/SQFItem.sol:SQFItem",
						"label": "_owners",
						"offset": 0,
						"slot": "2",
						"type": "t_mapping(t_uint256,t_address)"
					},
					{
						"astId": 739,
						"contract": "contracts/NFTContract/SQFItem.sol:SQFItem",
						"label": "_tokenURIs",
						"offset": 0,
						"slot": "3",
						"type": "t_mapping(t_uint256,t_address)"
					},
					{
						"astId": 743,
						"contract": "contracts/NFTContract/SQFItem.sol:SQFItem",
						"label": "_tokenApprovals",
						"offset": 0,
						"slot": "4",
						"type": "t_mapping(t_uint256,t_address)"
					},
					{
						"astId": 749,
						"contract": "contracts/NFTContract/SQFItem.sol:SQFItem",
						"label": "_operatorApprovals",
						"offset": 0,
						"slot": "5",
						"type": "t_mapping(t_address,t_mapping(t_address,t_bool))"
					},
					{
						"astId": 751,
						"contract": "contracts/NFTContract/SQFItem.sol:SQFItem",
						"label": "_totalSupply",
						"offset": 0,
						"slot": "6",
						"type": "t_uint256"
					},
					{
						"astId": 753,
						"contract": "contracts/NFTContract/SQFItem.sol:SQFItem",
						"label": "_name",
						"offset": 0,
						"slot": "7",
						"type": "t_string_storage"
					},
					{
						"astId": 755,
						"contract": "contracts/NFTContract/SQFItem.sol:SQFItem",
						"label": "_symbol",
						"offset": 0,
						"slot": "8",
						"type": "t_string_storage"
					},
					{
						"astId": 757,
						"contract": "contracts/NFTContract/SQFItem.sol:SQFItem",
						"label": "_tokenURIBase",
						"offset": 0,
						"slot": "9",
						"type": "t_string_storage"
					},
					{
						"astId": 1485,
						"contract": "contracts/NFTContract/SQFItem.sol:SQFItem",
						"label": "_baseURIextended",
						"offset": 0,
						"slot": "10",
						"type": "t_string_storage"
					},
					{
						"astId": 1488,
						"contract": "contracts/NFTContract/SQFItem.sol:SQFItem",
						"label": "nextId",
						"offset": 0,
						"slot": "11",
						"type": "t_uint256"
					},
					{
						"astId": 1492,
						"contract": "contracts/NFTContract/SQFItem.sol:SQFItem",
						"label": "weapons",
						"offset": 0,
						"slot": "12",
						"type": "t_mapping(t_uint256,t_address)"
					},
					{
						"astId": 1496,
						"contract": "contracts/NFTContract/SQFItem.sol:SQFItem",
						"label": "_tokenURIs",
						"offset": 0,
						"slot": "13",
						"type": "t_mapping(t_uint256,t_string_storage)"
					}
				],
				"types": {
					"t_address": {
						"encoding": "inplace",
						"label": "address",
						"numberOfBytes": "20"
					},
					"t_bool": {
						"encoding": "inplace",
						"label": "bool",
						"numberOfBytes": "1"
					},
					"t_mapping(t_address,t_bool)": {
						"encoding": "mapping",
						"key": "t_address",
						"label": "mapping(address => bool)",
						"numberOfBytes": "32",
						"value": "t_bool"
					},
					"t_mapping(t_address,t_mapping(t_address,t_bool))": {
						"encoding": "mapping",
						"key": "t_address",
						"label": "mapping(address => mapping(address => bool))",
						"numberOfBytes": "32",
						"value": "t_mapping(t_address,t_bool)"
					},
					"t_mapping(t_address,t_uint256)": {
						"encoding": "mapping",
						"key": "t_address",
						"label": "mapping(address => uint256)",
						"numberOfBytes": "32",
						"value": "t_uint256"
					},
					"t_mapping(t_uint256,t_address)": {
						"encoding": "mapping",
						"key": "t_uint256",
						"label": "mapping(uint256 => address)",
						"numberOfBytes": "32",
						"value": "t_address"
					},
					"t_mapping(t_uint256,t_string_storage)": {
						"encoding": "mapping",
						"key": "t_uint256",
						"label": "mapping(uint256 => string)",
						"numberOfBytes": "32",
						"value": "t_string_storage"
					},
					"t_string_storage": {
						"encoding": "bytes",
						"label": "string",
						"numberOfBytes": "32"
					},
					"t_uint256": {
						"encoding": "inplace",
						"label": "uint256",
						"numberOfBytes": "32"
					}
				}
			},
			"userdoc": {
				"kind": "user",
				"methods": {},
				"version": 1
			}
		}
	}
}