{
	"contracts/NFTContract/SQFItem.sol": {
		"ERC721": {
			"abi": [
				{
					"inputs": [
						{
							"internalType": "string",
							"name": "name_",
							"type": "string"
						},
						{
							"internalType": "string",
							"name": "symbol_",
							"type": "string"
						}
					],
					"stateMutability": "nonpayable",
					"type": "constructor"
				},
				{
					"anonymous": false,
					"inputs": [
						{
							"indexed": true,
							"internalType": "address",
							"name": "owner",
							"type": "address"
						},
						{
							"indexed": true,
							"internalType": "address",
							"name": "approved",
							"type": "address"
						},
						{
							"indexed": true,
							"internalType": "uint256",
							"name": "tokenId",
							"type": "uint256"
						}
					],
					"name": "Approval",
					"type": "event"
				},
				{
					"anonymous": false,
					"inputs": [
						{
							"indexed": true,
							"internalType": "address",
							"name": "owner",
							"type": "address"
						},
						{
							"indexed": true,
							"internalType": "address",
							"name": "operator",
							"type": "address"
						},
						{
							"indexed": false,
							"internalType": "bool",
							"name": "approved",
							"type": "bool"
						}
					],
					"name": "ApprovalForAll",
					"type": "event"
				},
				{
					"anonymous": false,
					"inputs": [
						{
							"indexed": true,
							"internalType": "uint256",
							"name": "_tokenId",
							"type": "uint256"
						}
					],
					"name": "NewItem",
					"type": "event"
				},
				{
					"anonymous": false,
					"inputs": [
						{
							"indexed": true,
							"internalType": "address",
							"name": "previousOwner",
							"type": "address"
						},
						{
							"indexed": true,
							"internalType": "address",
							"name": "newOwner",
							"type": "address"
						}
					],
					"name": "OwnershipTransferred",
					"type": "event"
				},
				{
					"anonymous": false,
					"inputs": [
						{
							"indexed": true,
							"internalType": "address",
							"name": "from",
							"type": "address"
						},
						{
							"indexed": true,
							"internalType": "address",
							"name": "to",
							"type": "address"
						},
						{
							"indexed": true,
							"internalType": "uint256",
							"name": "tokenId",
							"type": "uint256"
						}
					],
					"name": "Transfer",
					"type": "event"
				},
				{
					"inputs": [
						{
							"internalType": "address",
							"name": "to",
							"type": "address"
						},
						{
							"internalType": "uint256",
							"name": "tokenId",
							"type": "uint256"
						}
					],
					"name": "approve",
					"outputs": [],
					"stateMutability": "nonpayable",
					"type": "function"
				},
				{
					"inputs": [
						{
							"internalType": "address",
							"name": "owner",
							"type": "address"
						}
					],
					"name": "balanceOf",
					"outputs": [
						{
							"internalType": "uint256",
							"name": "",
							"type": "uint256"
						}
					],
					"stateMutability": "view",
					"type": "function"
				},
				{
					"inputs": [
						{
							"internalType": "uint256",
							"name": "tokenId",
							"type": "uint256"
						}
					],
					"name": "getApproved",
					"outputs": [
						{
							"internalType": "address",
							"name": "",
							"type": "address"
						}
					],
					"stateMutability": "view",
					"type": "function"
				},
				{
					"inputs": [],
					"name": "name",
					"outputs": [
						{
							"internalType": "string",
							"name": "",
							"type": "string"
						}
					],
					"stateMutability": "view",
					"type": "function"
				},
				{
					"inputs": [],
					"name": "owner",
					"outputs": [
						{
							"internalType": "address",
							"name": "",
							"type": "address"
						}
					],
					"stateMutability": "view",
					"type": "function"
				},
				{
					"inputs": [
						{
							"internalType": "uint256",
							"name": "tokenId",
							"type": "uint256"
						}
					],
					"name": "ownerOf",
					"outputs": [
						{
							"internalType": "address",
							"name": "",
							"type": "address"
						}
					],
					"stateMutability": "view",
					"type": "function"
				},
				{
					"inputs": [],
					"name": "renounceOwnership",
					"outputs": [],
					"stateMutability": "nonpayable",
					"type": "function"
				},
				{
					"inputs": [
						{
							"internalType": "address",
							"name": "from",
							"type": "address"
						},
						{
							"internalType": "address",
							"name": "to",
							"type": "address"
						},
						{
							"internalType": "uint256",
							"name": "tokenId",
							"type": "uint256"
						}
					],
					"name": "safeTransferFrom",
					"outputs": [],
					"stateMutability": "nonpayable",
					"type": "function"
				},
				{
					"inputs": [
						{
							"internalType": "address",
							"name": "from",
							"type": "address"
						},
						{
							"internalType": "address",
							"name": "to",
							"type": "address"
						},
						{
							"internalType": "uint256",
							"name": "tokenId",
							"type": "uint256"
						},
						{
							"internalType": "bytes",
							"name": "_data",
							"type": "bytes"
						}
					],
					"name": "safeTransferFrom",
					"outputs": [],
					"stateMutability": "nonpayable",
					"type": "function"
				},
				{
					"inputs": [],
					"name": "symbol",
					"outputs": [
						{
							"internalType": "string",
							"name": "",
							"type": "string"
						}
					],
					"stateMutability": "view",
					"type": "function"
				},
				{
					"inputs": [
						{
							"internalType": "uint256",
							"name": "tokenId",
							"type": "uint256"
						}
					],
					"name": "tokenURI",
					"outputs": [
						{
							"internalType": "string",
							"name": "",
							"type": "string"
						}
					],
					"stateMutability": "view",
					"type": "function"
				},
				{
					"inputs": [
						{
							"internalType": "address",
							"name": "from",
							"type": "address"
						},
						{
							"internalType": "address",
							"name": "to",
							"type": "address"
						},
						{
							"internalType": "uint256",
							"name": "tokenId",
							"type": "uint256"
						}
					],
					"name": "transferFrom",
					"outputs": [],
					"stateMutability": "nonpayable",
					"type": "function"
				},
				{
					"inputs": [
						{
							"internalType": "address",
							"name": "newOwner",
							"type": "address"
						}
					],
					"name": "transferOwnership",
					"outputs": [],
					"stateMutability": "nonpayable",
					"type": "function"
				}
			],
			"devdoc": {
				"kind": "dev",
				"methods": {},
				"version": 1
			},
			"evm": {
				"assembly": "    /* \"contracts/NFTContract/SQFItem.sol\":8522:17863  contract ERC721 is IERC721, Context, Ownable, IERC721Metadata {... */\n  mstore(0x40, 0x80)\n    /* \"contracts/NFTContract/SQFItem.sol\":9163:9276  constructor(string memory name_, string memory symbol_) {... */\n  callvalue\n  dup1\n  iszero\n  tag_1\n  jumpi\n  0x00\n  dup1\n  revert\ntag_1:\n  pop\n  mload(0x40)\n  sub(codesize, bytecodeSize)\n  dup1\n  bytecodeSize\n  dup4\n  codecopy\n  dup2\n  dup2\n  add\n  0x40\n  mstore\n  dup2\n  add\n  swap1\n  tag_2\n  swap2\n  swap1\n  tag_3\n  jump\t// in\ntag_2:\n    /* \"contracts/NFTContract/SQFItem.sol\":6347:6379  _transferOwnership(_msgSender()) */\n  tag_7\n    /* \"contracts/NFTContract/SQFItem.sol\":6366:6378  _msgSender() */\n  tag_8\n    /* \"contracts/NFTContract/SQFItem.sol\":6366:6376  _msgSender */\n  shl(0x20, tag_9)\n    /* \"contracts/NFTContract/SQFItem.sol\":6366:6378  _msgSender() */\n  0x20\n  shr\n  jump\t// in\ntag_8:\n    /* \"contracts/NFTContract/SQFItem.sol\":6347:6365  _transferOwnership */\n  shl(0x20, tag_10)\n    /* \"contracts/NFTContract/SQFItem.sol\":6347:6379  _transferOwnership(_msgSender()) */\n  0x20\n  shr\n  jump\t// in\ntag_7:\n    /* \"contracts/NFTContract/SQFItem.sol\":9237:9242  name_ */\n  dup2\n    /* \"contracts/NFTContract/SQFItem.sol\":9229:9234  _name */\n  0x07\n    /* \"contracts/NFTContract/SQFItem.sol\":9229:9242  _name = name_ */\n  swap1\n  dup1\n  mload\n  swap1\n  0x20\n  add\n  swap1\n  tag_12\n  swap3\n  swap2\n  swap1\n  tag_13\n  jump\t// in\ntag_12:\n  pop\n    /* \"contracts/NFTContract/SQFItem.sol\":9262:9269  symbol_ */\n  dup1\n    /* \"contracts/NFTContract/SQFItem.sol\":9252:9259  _symbol */\n  0x08\n    /* \"contracts/NFTContract/SQFItem.sol\":9252:9269  _symbol = symbol_ */\n  swap1\n  dup1\n  mload\n  swap1\n  0x20\n  add\n  swap1\n  tag_14\n  swap3\n  swap2\n  swap1\n  tag_13\n  jump\t// in\ntag_14:\n  pop\n    /* \"contracts/NFTContract/SQFItem.sol\":9163:9276  constructor(string memory name_, string memory symbol_) {... */\n  pop\n  pop\n    /* \"contracts/NFTContract/SQFItem.sol\":8522:17863  contract ERC721 is IERC721, Context, Ownable, IERC721Metadata {... */\n  jump(tag_15)\n    /* \"contracts/NFTContract/SQFItem.sol\":165:261  function _msgSender() internal view virtual returns (address) {... */\ntag_9:\n    /* \"contracts/NFTContract/SQFItem.sol\":218:225  address */\n  0x00\n    /* \"contracts/NFTContract/SQFItem.sol\":244:254  msg.sender */\n  caller\n    /* \"contracts/NFTContract/SQFItem.sol\":237:254  return msg.sender */\n  swap1\n  pop\n    /* \"contracts/NFTContract/SQFItem.sol\":165:261  function _msgSender() internal view virtual returns (address) {... */\n  swap1\n  jump\t// out\n    /* \"contracts/NFTContract/SQFItem.sol\":6951:7138  function _transferOwnership(address newOwner) internal virtual {... */\ntag_10:\n    /* \"contracts/NFTContract/SQFItem.sol\":7024:7040  address oldOwner */\n  0x00\n    /* \"contracts/NFTContract/SQFItem.sol\":7043:7049  _owner */\n  dup1\n  0x00\n  swap1\n  sload\n  swap1\n  0x0100\n  exp\n  swap1\n  div\n  0xffffffffffffffffffffffffffffffffffffffff\n  and\n    /* \"contracts/NFTContract/SQFItem.sol\":7024:7049  address oldOwner = _owner */\n  swap1\n  pop\n    /* \"contracts/NFTContract/SQFItem.sol\":7068:7076  newOwner */\n  dup2\n    /* \"contracts/NFTContract/SQFItem.sol\":7059:7065  _owner */\n  0x00\n  dup1\n    /* \"contracts/NFTContract/SQFItem.sol\":7059:7076  _owner = newOwner */\n  0x0100\n  exp\n  dup2\n  sload\n  dup2\n  0xffffffffffffffffffffffffffffffffffffffff\n  mul\n  not\n  and\n  swap1\n  dup4\n  0xffffffffffffffffffffffffffffffffffffffff\n  and\n  mul\n  or\n  swap1\n  sstore\n  pop\n    /* \"contracts/NFTContract/SQFItem.sol\":7122:7130  newOwner */\n  dup2\n    /* \"contracts/NFTContract/SQFItem.sol\":7091:7131  OwnershipTransferred(oldOwner, newOwner) */\n  0xffffffffffffffffffffffffffffffffffffffff\n  and\n    /* \"contracts/NFTContract/SQFItem.sol\":7112:7120  oldOwner */\n  dup2\n    /* \"contracts/NFTContract/SQFItem.sol\":7091:7131  OwnershipTransferred(oldOwner, newOwner) */\n  0xffffffffffffffffffffffffffffffffffffffff\n  and\n  0x8be0079c531659141344cd1fd0a4f28419497f9722a3daafe3b4186f6b6457e0\n  mload(0x40)\n  mload(0x40)\n  dup1\n  swap2\n  sub\n  swap1\n  log3\n    /* \"contracts/NFTContract/SQFItem.sol\":6951:7138  function _transferOwnership(address newOwner) internal virtual {... */\n  pop\n  pop\n  jump\t// out\n    /* \"contracts/NFTContract/SQFItem.sol\":8522:17863  contract ERC721 is IERC721, Context, Ownable, IERC721Metadata {... */\ntag_13:\n  dup3\n  dup1\n  sload\n  tag_18\n  swap1\n  tag_19\n  jump\t// in\ntag_18:\n  swap1\n  0x00\n  mstore\n  keccak256(0x00, 0x20)\n  swap1\n  0x1f\n  add\n  0x20\n  swap1\n  div\n  dup2\n  add\n  swap3\n  dup3\n  tag_21\n  jumpi\n  0x00\n  dup6\n  sstore\n  jump(tag_20)\ntag_21:\n  dup3\n  0x1f\n  lt\n  tag_22\n  jumpi\n  dup1\n  mload\n  not(0xff)\n  and\n  dup4\n  dup1\n  add\n  or\n  dup6\n  sstore\n  jump(tag_20)\ntag_22:\n  dup3\n  dup1\n  add\n  0x01\n  add\n  dup6\n  sstore\n  dup3\n  iszero\n  tag_20\n  jumpi\n  swap2\n  dup3\n  add\ntag_23:\n  dup3\n  dup2\n  gt\n  iszero\n  tag_24\n  jumpi\n  dup3\n  mload\n  dup3\n  sstore\n  swap2\n  0x20\n  add\n  swap2\n  swap1\n  0x01\n  add\n  swap1\n  jump(tag_23)\ntag_24:\ntag_20:\n  pop\n  swap1\n  pop\n  tag_25\n  swap2\n  swap1\n  tag_26\n  jump\t// in\ntag_25:\n  pop\n  swap1\n  jump\t// out\ntag_26:\ntag_27:\n  dup1\n  dup3\n  gt\n  iszero\n  tag_28\n  jumpi\n  0x00\n  dup2\n  0x00\n  swap1\n  sstore\n  pop\n  0x01\n  add\n  jump(tag_27)\ntag_28:\n  pop\n  swap1\n  jump\t// out\n    /* \"#utility.yul\":7:360   */\ntag_30:\n  0x00\n    /* \"#utility.yul\":121:186   */\n  tag_32\n    /* \"#utility.yul\":136:185   */\n  tag_33\n    /* \"#utility.yul\":178:184   */\n  dup5\n    /* \"#utility.yul\":136:185   */\n  tag_34\n  jump\t// in\ntag_33:\n    /* \"#utility.yul\":121:186   */\n  tag_35\n  jump\t// in\ntag_32:\n    /* \"#utility.yul\":112:186   */\n  swap1\n  pop\n    /* \"#utility.yul\":209:215   */\n  dup3\n    /* \"#utility.yul\":202:207   */\n  dup2\n    /* \"#utility.yul\":195:216   */\n  mstore\n    /* \"#utility.yul\":247:251   */\n  0x20\n    /* \"#utility.yul\":240:245   */\n  dup2\n    /* \"#utility.yul\":236:252   */\n  add\n    /* \"#utility.yul\":285:288   */\n  dup5\n    /* \"#utility.yul\":276:282   */\n  dup5\n    /* \"#utility.yul\":271:274   */\n  dup5\n    /* \"#utility.yul\":267:283   */\n  add\n    /* \"#utility.yul\":264:289   */\n  gt\n    /* \"#utility.yul\":261:263   */\n  iszero\n  tag_36\n  jumpi\n    /* \"#utility.yul\":302:303   */\n  0x00\n    /* \"#utility.yul\":299:300   */\n  dup1\n    /* \"#utility.yul\":292:304   */\n  revert\n    /* \"#utility.yul\":261:263   */\ntag_36:\n    /* \"#utility.yul\":315:354   */\n  tag_37\n    /* \"#utility.yul\":347:353   */\n  dup5\n    /* \"#utility.yul\":342:345   */\n  dup3\n    /* \"#utility.yul\":337:340   */\n  dup6\n    /* \"#utility.yul\":315:354   */\n  tag_38\n  jump\t// in\ntag_37:\n    /* \"#utility.yul\":102:360   */\n  pop\n  swap4\n  swap3\n  pop\n  pop\n  pop\n  jump\t// out\n    /* \"#utility.yul\":380:668   */\ntag_39:\n  0x00\n    /* \"#utility.yul\":496:499   */\n  dup3\n    /* \"#utility.yul\":489:493   */\n  0x1f\n    /* \"#utility.yul\":481:487   */\n  dup4\n    /* \"#utility.yul\":477:494   */\n  add\n    /* \"#utility.yul\":473:500   */\n  slt\n    /* \"#utility.yul\":463:465   */\n  tag_41\n  jumpi\n    /* \"#utility.yul\":514:515   */\n  0x00\n    /* \"#utility.yul\":511:512   */\n  dup1\n    /* \"#utility.yul\":504:516   */\n  revert\n    /* \"#utility.yul\":463:465   */\ntag_41:\n    /* \"#utility.yul\":547:553   */\n  dup2\n    /* \"#utility.yul\":541:554   */\n  mload\n    /* \"#utility.yul\":572:662   */\n  tag_42\n    /* \"#utility.yul\":658:661   */\n  dup5\n    /* \"#utility.yul\":650:656   */\n  dup3\n    /* \"#utility.yul\":643:647   */\n  0x20\n    /* \"#utility.yul\":635:641   */\n  dup7\n    /* \"#utility.yul\":631:648   */\n  add\n    /* \"#utility.yul\":572:662   */\n  tag_30\n  jump\t// in\ntag_42:\n    /* \"#utility.yul\":563:662   */\n  swap2\n  pop\n    /* \"#utility.yul\":453:668   */\n  pop\n  swap3\n  swap2\n  pop\n  pop\n  jump\t// out\n    /* \"#utility.yul\":674:1326   */\ntag_3:\n  0x00\n  dup1\n    /* \"#utility.yul\":830:832   */\n  0x40\n    /* \"#utility.yul\":818:827   */\n  dup4\n    /* \"#utility.yul\":809:816   */\n  dup6\n    /* \"#utility.yul\":805:828   */\n  sub\n    /* \"#utility.yul\":801:833   */\n  slt\n    /* \"#utility.yul\":798:800   */\n  iszero\n  tag_44\n  jumpi\n    /* \"#utility.yul\":846:847   */\n  0x00\n    /* \"#utility.yul\":843:844   */\n  dup1\n    /* \"#utility.yul\":836:848   */\n  revert\n    /* \"#utility.yul\":798:800   */\ntag_44:\n    /* \"#utility.yul\":910:911   */\n  0x00\n    /* \"#utility.yul\":899:908   */\n  dup4\n    /* \"#utility.yul\":895:912   */\n  add\n    /* \"#utility.yul\":889:913   */\n  mload\n    /* \"#utility.yul\":940:958   */\n  0xffffffffffffffff\n    /* \"#utility.yul\":932:938   */\n  dup2\n    /* \"#utility.yul\":929:959   */\n  gt\n    /* \"#utility.yul\":926:928   */\n  iszero\n  tag_45\n  jumpi\n    /* \"#utility.yul\":972:973   */\n  0x00\n    /* \"#utility.yul\":969:970   */\n  dup1\n    /* \"#utility.yul\":962:974   */\n  revert\n    /* \"#utility.yul\":926:928   */\ntag_45:\n    /* \"#utility.yul\":1000:1074   */\n  tag_46\n    /* \"#utility.yul\":1066:1073   */\n  dup6\n    /* \"#utility.yul\":1057:1063   */\n  dup3\n    /* \"#utility.yul\":1046:1055   */\n  dup7\n    /* \"#utility.yul\":1042:1064   */\n  add\n    /* \"#utility.yul\":1000:1074   */\n  tag_39\n  jump\t// in\ntag_46:\n    /* \"#utility.yul\":990:1074   */\n  swap3\n  pop\n    /* \"#utility.yul\":860:1084   */\n  pop\n    /* \"#utility.yul\":1144:1146   */\n  0x20\n    /* \"#utility.yul\":1133:1142   */\n  dup4\n    /* \"#utility.yul\":1129:1147   */\n  add\n    /* \"#utility.yul\":1123:1148   */\n  mload\n    /* \"#utility.yul\":1175:1193   */\n  0xffffffffffffffff\n    /* \"#utility.yul\":1167:1173   */\n  dup2\n    /* \"#utility.yul\":1164:1194   */\n  gt\n    /* \"#utility.yul\":1161:1163   */\n  iszero\n  tag_47\n  jumpi\n    /* \"#utility.yul\":1207:1208   */\n  0x00\n    /* \"#utility.yul\":1204:1205   */\n  dup1\n    /* \"#utility.yul\":1197:1209   */\n  revert\n    /* \"#utility.yul\":1161:1163   */\ntag_47:\n    /* \"#utility.yul\":1235:1309   */\n  tag_48\n    /* \"#utility.yul\":1301:1308   */\n  dup6\n    /* \"#utility.yul\":1292:1298   */\n  dup3\n    /* \"#utility.yul\":1281:1290   */\n  dup7\n    /* \"#utility.yul\":1277:1299   */\n  add\n    /* \"#utility.yul\":1235:1309   */\n  tag_39\n  jump\t// in\ntag_48:\n    /* \"#utility.yul\":1225:1309   */\n  swap2\n  pop\n    /* \"#utility.yul\":1094:1319   */\n  pop\n    /* \"#utility.yul\":788:1326   */\n  swap3\n  pop\n  swap3\n  swap1\n  pop\n  jump\t// out\n    /* \"#utility.yul\":1332:1615   */\ntag_35:\n  0x00\n    /* \"#utility.yul\":1398:1400   */\n  0x40\n    /* \"#utility.yul\":1392:1401   */\n  mload\n    /* \"#utility.yul\":1382:1401   */\n  swap1\n  pop\n    /* \"#utility.yul\":1440:1444   */\n  dup2\n    /* \"#utility.yul\":1432:1438   */\n  dup2\n    /* \"#utility.yul\":1428:1445   */\n  add\n    /* \"#utility.yul\":1547:1553   */\n  dup2\n    /* \"#utility.yul\":1535:1545   */\n  dup2\n    /* \"#utility.yul\":1532:1554   */\n  lt\n    /* \"#utility.yul\":1511:1529   */\n  0xffffffffffffffff\n    /* \"#utility.yul\":1499:1509   */\n  dup3\n    /* \"#utility.yul\":1496:1530   */\n  gt\n    /* \"#utility.yul\":1493:1555   */\n  or\n    /* \"#utility.yul\":1490:1492   */\n  iszero\n  tag_50\n  jumpi\n    /* \"#utility.yul\":1558:1576   */\n  tag_51\n  tag_52\n  jump\t// in\ntag_51:\n    /* \"#utility.yul\":1490:1492   */\ntag_50:\n    /* \"#utility.yul\":1598:1608   */\n  dup1\n    /* \"#utility.yul\":1594:1596   */\n  0x40\n    /* \"#utility.yul\":1587:1609   */\n  mstore\n    /* \"#utility.yul\":1372:1615   */\n  pop\n  swap2\n  swap1\n  pop\n  jump\t// out\n    /* \"#utility.yul\":1621:1953   */\ntag_34:\n  0x00\n    /* \"#utility.yul\":1773:1791   */\n  0xffffffffffffffff\n    /* \"#utility.yul\":1765:1771   */\n  dup3\n    /* \"#utility.yul\":1762:1792   */\n  gt\n    /* \"#utility.yul\":1759:1761   */\n  iszero\n  tag_54\n  jumpi\n    /* \"#utility.yul\":1795:1813   */\n  tag_55\n  tag_52\n  jump\t// in\ntag_55:\n    /* \"#utility.yul\":1759:1761   */\ntag_54:\n    /* \"#utility.yul\":1880:1884   */\n  0x1f\n    /* \"#utility.yul\":1876:1885   */\n  not\n    /* \"#utility.yul\":1869:1873   */\n  0x1f\n    /* \"#utility.yul\":1861:1867   */\n  dup4\n    /* \"#utility.yul\":1857:1874   */\n  add\n    /* \"#utility.yul\":1853:1886   */\n  and\n    /* \"#utility.yul\":1845:1886   */\n  swap1\n  pop\n    /* \"#utility.yul\":1941:1945   */\n  0x20\n    /* \"#utility.yul\":1935:1939   */\n  dup2\n    /* \"#utility.yul\":1931:1946   */\n  add\n    /* \"#utility.yul\":1923:1946   */\n  swap1\n  pop\n    /* \"#utility.yul\":1688:1953   */\n  swap2\n  swap1\n  pop\n  jump\t// out\n    /* \"#utility.yul\":1959:2266   */\ntag_38:\n    /* \"#utility.yul\":2027:2028   */\n  0x00\n    /* \"#utility.yul\":2037:2150   */\ntag_57:\n    /* \"#utility.yul\":2051:2057   */\n  dup4\n    /* \"#utility.yul\":2048:2049   */\n  dup2\n    /* \"#utility.yul\":2045:2058   */\n  lt\n    /* \"#utility.yul\":2037:2150   */\n  iszero\n  tag_59\n  jumpi\n    /* \"#utility.yul\":2136:2137   */\n  dup1\n    /* \"#utility.yul\":2131:2134   */\n  dup3\n    /* \"#utility.yul\":2127:2138   */\n  add\n    /* \"#utility.yul\":2121:2139   */\n  mload\n    /* \"#utility.yul\":2117:2118   */\n  dup2\n    /* \"#utility.yul\":2112:2115   */\n  dup5\n    /* \"#utility.yul\":2108:2119   */\n  add\n    /* \"#utility.yul\":2101:2140   */\n  mstore\n    /* \"#utility.yul\":2073:2075   */\n  0x20\n    /* \"#utility.yul\":2070:2071   */\n  dup2\n    /* \"#utility.yul\":2066:2076   */\n  add\n    /* \"#utility.yul\":2061:2076   */\n  swap1\n  pop\n    /* \"#utility.yul\":2037:2150   */\n  jump(tag_57)\ntag_59:\n    /* \"#utility.yul\":2168:2174   */\n  dup4\n    /* \"#utility.yul\":2165:2166   */\n  dup2\n    /* \"#utility.yul\":2162:2175   */\n  gt\n    /* \"#utility.yul\":2159:2161   */\n  iszero\n  tag_60\n  jumpi\n    /* \"#utility.yul\":2248:2249   */\n  0x00\n    /* \"#utility.yul\":2239:2245   */\n  dup5\n    /* \"#utility.yul\":2234:2237   */\n  dup5\n    /* \"#utility.yul\":2230:2246   */\n  add\n    /* \"#utility.yul\":2223:2250   */\n  mstore\n    /* \"#utility.yul\":2159:2161   */\ntag_60:\n    /* \"#utility.yul\":2008:2266   */\n  pop\n  pop\n  pop\n  pop\n  jump\t// out\n    /* \"#utility.yul\":2272:2592   */\ntag_19:\n  0x00\n    /* \"#utility.yul\":2353:2354   */\n  0x02\n    /* \"#utility.yul\":2347:2351   */\n  dup3\n    /* \"#utility.yul\":2343:2355   */\n  div\n    /* \"#utility.yul\":2333:2355   */\n  swap1\n  pop\n    /* \"#utility.yul\":2400:2401   */\n  0x01\n    /* \"#utility.yul\":2394:2398   */\n  dup3\n    /* \"#utility.yul\":2390:2402   */\n  and\n    /* \"#utility.yul\":2421:2439   */\n  dup1\n    /* \"#utility.yul\":2411:2413   */\n  tag_62\n  jumpi\n    /* \"#utility.yul\":2477:2481   */\n  0x7f\n    /* \"#utility.yul\":2469:2475   */\n  dup3\n    /* \"#utility.yul\":2465:2482   */\n  and\n    /* \"#utility.yul\":2455:2482   */\n  swap2\n  pop\n    /* \"#utility.yul\":2411:2413   */\ntag_62:\n    /* \"#utility.yul\":2539:2541   */\n  0x20\n    /* \"#utility.yul\":2531:2537   */\n  dup3\n    /* \"#utility.yul\":2528:2542   */\n  lt\n    /* \"#utility.yul\":2508:2526   */\n  dup2\n    /* \"#utility.yul\":2505:2543   */\n  eq\n    /* \"#utility.yul\":2502:2504   */\n  iszero\n  tag_63\n  jumpi\n    /* \"#utility.yul\":2558:2576   */\n  tag_64\n  tag_65\n  jump\t// in\ntag_64:\n    /* \"#utility.yul\":2502:2504   */\ntag_63:\n    /* \"#utility.yul\":2323:2592   */\n  pop\n  swap2\n  swap1\n  pop\n  jump\t// out\n    /* \"#utility.yul\":2598:2778   */\ntag_65:\n    /* \"#utility.yul\":2646:2723   */\n  0x4e487b7100000000000000000000000000000000000000000000000000000000\n    /* \"#utility.yul\":2643:2644   */\n  0x00\n    /* \"#utility.yul\":2636:2724   */\n  mstore\n    /* \"#utility.yul\":2743:2747   */\n  0x22\n    /* \"#utility.yul\":2740:2741   */\n  0x04\n    /* \"#utility.yul\":2733:2748   */\n  mstore\n    /* \"#utility.yul\":2767:2771   */\n  0x24\n    /* \"#utility.yul\":2764:2765   */\n  0x00\n    /* \"#utility.yul\":2757:2772   */\n  revert\n    /* \"#utility.yul\":2784:2964   */\ntag_52:\n    /* \"#utility.yul\":2832:2909   */\n  0x4e487b7100000000000000000000000000000000000000000000000000000000\n    /* \"#utility.yul\":2829:2830   */\n  0x00\n    /* \"#utility.yul\":2822:2910   */\n  mstore\n    /* \"#utility.yul\":2929:2933   */\n  0x41\n    /* \"#utility.yul\":2926:2927   */\n  0x04\n    /* \"#utility.yul\":2919:2934   */\n  mstore\n    /* \"#utility.yul\":2953:2957   */\n  0x24\n    /* \"#utility.yul\":2950:2951   */\n  0x00\n    /* \"#utility.yul\":2943:2958   */\n  revert\n    /* \"contracts/NFTContract/SQFItem.sol\":8522:17863  contract ERC721 is IERC721, Context, Ownable, IERC721Metadata {... */\ntag_15:\n  dataSize(sub_0)\n  dup1\n  dataOffset(sub_0)\n  0x00\n  codecopy\n  0x00\n  return\nstop\n\nsub_0: assembly {\n        /* \"contracts/NFTContract/SQFItem.sol\":8522:17863  contract ERC721 is IERC721, Context, Ownable, IERC721Metadata {... */\n      mstore(0x40, 0x80)\n      callvalue\n      dup1\n      iszero\n      tag_1\n      jumpi\n      0x00\n      dup1\n      revert\n    tag_1:\n      pop\n      jumpi(tag_2, lt(calldatasize, 0x04))\n      shr(0xe0, calldataload(0x00))\n      dup1\n      0x70a08231\n      gt\n      tag_16\n      jumpi\n      dup1\n      0x95d89b41\n      gt\n      tag_17\n      jumpi\n      dup1\n      0x95d89b41\n      eq\n      tag_12\n      jumpi\n      dup1\n      0xb88d4fde\n      eq\n      tag_13\n      jumpi\n      dup1\n      0xc87b56dd\n      eq\n      tag_14\n      jumpi\n      dup1\n      0xf2fde38b\n      eq\n      tag_15\n      jumpi\n      jump(tag_2)\n    tag_17:\n      dup1\n      0x70a08231\n      eq\n      tag_9\n      jumpi\n      dup1\n      0x715018a6\n      eq\n      tag_10\n      jumpi\n      dup1\n      0x8da5cb5b\n      eq\n      tag_11\n      jumpi\n      jump(tag_2)\n    tag_16:\n      dup1\n      0x06fdde03\n      eq\n      tag_3\n      jumpi\n      dup1\n      0x081812fc\n      eq\n      tag_4\n      jumpi\n      dup1\n      0x095ea7b3\n      eq\n      tag_5\n      jumpi\n      dup1\n      0x23b872dd\n      eq\n      tag_6\n      jumpi\n      dup1\n      0x42842e0e\n      eq\n      tag_7\n      jumpi\n      dup1\n      0x6352211e\n      eq\n      tag_8\n      jumpi\n    tag_2:\n      0x00\n      dup1\n      revert\n        /* \"contracts/NFTContract/SQFItem.sol\":10347:10445  function name() public view virtual override returns (string memory) {... */\n    tag_3:\n      tag_18\n      tag_19\n      jump\t// in\n    tag_18:\n      mload(0x40)\n      tag_20\n      swap2\n      swap1\n      tag_21\n      jump\t// in\n    tag_20:\n      mload(0x40)\n      dup1\n      swap2\n      sub\n      swap1\n      return\n        /* \"contracts/NFTContract/SQFItem.sol\":11023:11318  function getApproved(uint256 tokenId)... */\n    tag_4:\n      tag_22\n      0x04\n      dup1\n      calldatasize\n      sub\n      dup2\n      add\n      swap1\n      tag_23\n      swap2\n      swap1\n      tag_24\n      jump\t// in\n    tag_23:\n      tag_25\n      jump\t// in\n    tag_22:\n      mload(0x40)\n      tag_26\n      swap2\n      swap1\n      tag_27\n      jump\t// in\n    tag_26:\n      mload(0x40)\n      dup1\n      swap2\n      sub\n      swap1\n      return\n        /* \"contracts/NFTContract/SQFItem.sol\":10657:11017  function approve(address to, uint256 tokenId) public virtual override {... */\n    tag_5:\n      tag_28\n      0x04\n      dup1\n      calldatasize\n      sub\n      dup2\n      add\n      swap1\n      tag_29\n      swap2\n      swap1\n      tag_30\n      jump\t// in\n    tag_29:\n      tag_31\n      jump\t// in\n    tag_28:\n      stop\n        /* \"contracts/NFTContract/SQFItem.sol\":11324:11636  function transferFrom(... */\n    tag_6:\n      tag_32\n      0x04\n      dup1\n      calldatasize\n      sub\n      dup2\n      add\n      swap1\n      tag_33\n      swap2\n      swap1\n      tag_34\n      jump\t// in\n    tag_33:\n      tag_35\n      jump\t// in\n    tag_32:\n      stop\n        /* \"contracts/NFTContract/SQFItem.sol\":11642:11821  function safeTransferFrom(... */\n    tag_7:\n      tag_36\n      0x04\n      dup1\n      calldatasize\n      sub\n      dup2\n      add\n      swap1\n      tag_37\n      swap2\n      swap1\n      tag_34\n      jump\t// in\n    tag_37:\n      tag_38\n      jump\t// in\n    tag_36:\n      stop\n        /* \"contracts/NFTContract/SQFItem.sol\":10028:10341  function ownerOf(uint256 tokenId)... */\n    tag_8:\n      tag_39\n      0x04\n      dup1\n      calldatasize\n      sub\n      dup2\n      add\n      swap1\n      tag_40\n      swap2\n      swap1\n      tag_24\n      jump\t// in\n    tag_40:\n      tag_41\n      jump\t// in\n    tag_39:\n      mload(0x40)\n      tag_42\n      swap2\n      swap1\n      tag_27\n      jump\t// in\n    tag_42:\n      mload(0x40)\n      dup1\n      swap2\n      sub\n      swap1\n      return\n        /* \"contracts/NFTContract/SQFItem.sol\":9739:10022  function balanceOf(address owner)... */\n    tag_9:\n      tag_43\n      0x04\n      dup1\n      calldatasize\n      sub\n      dup2\n      add\n      swap1\n      tag_44\n      swap2\n      swap1\n      tag_45\n      jump\t// in\n    tag_44:\n      tag_46\n      jump\t// in\n    tag_43:\n      mload(0x40)\n      tag_47\n      swap2\n      swap1\n      tag_48\n      jump\t// in\n    tag_47:\n      mload(0x40)\n      dup1\n      swap2\n      sub\n      swap1\n      return\n        /* \"contracts/NFTContract/SQFItem.sol\":6606:6707  function renounceOwnership() public virtual onlyOwner {... */\n    tag_10:\n      tag_49\n      tag_50\n      jump\t// in\n    tag_49:\n      stop\n        /* \"contracts/NFTContract/SQFItem.sol\":6392:6477  function owner() public view virtual returns (address) {... */\n    tag_11:\n      tag_51\n      tag_52\n      jump\t// in\n    tag_51:\n      mload(0x40)\n      tag_53\n      swap2\n      swap1\n      tag_27\n      jump\t// in\n    tag_53:\n      mload(0x40)\n      dup1\n      swap2\n      sub\n      swap1\n      return\n        /* \"contracts/NFTContract/SQFItem.sol\":10451:10553  function symbol() public view virtual override returns (string memory) {... */\n    tag_12:\n      tag_54\n      tag_55\n      jump\t// in\n    tag_54:\n      mload(0x40)\n      tag_56\n      swap2\n      swap1\n      tag_21\n      jump\t// in\n    tag_56:\n      mload(0x40)\n      dup1\n      swap2\n      sub\n      swap1\n      return\n        /* \"contracts/NFTContract/SQFItem.sol\":11827:12181  function safeTransferFrom(... */\n    tag_13:\n      tag_57\n      0x04\n      dup1\n      calldatasize\n      sub\n      dup2\n      add\n      swap1\n      tag_58\n      swap2\n      swap1\n      tag_59\n      jump\t// in\n    tag_58:\n      tag_60\n      jump\t// in\n    tag_57:\n      stop\n        /* \"contracts/NFTContract/SQFItem.sol\":9282:9733  function tokenURI(uint256 tokenId)... */\n    tag_14:\n      tag_61\n      0x04\n      dup1\n      calldatasize\n      sub\n      dup2\n      add\n      swap1\n      tag_62\n      swap2\n      swap1\n      tag_24\n      jump\t// in\n    tag_62:\n      tag_63\n      jump\t// in\n    tag_61:\n      mload(0x40)\n      tag_64\n      swap2\n      swap1\n      tag_21\n      jump\t// in\n    tag_64:\n      mload(0x40)\n      dup1\n      swap2\n      sub\n      swap1\n      return\n        /* \"contracts/NFTContract/SQFItem.sol\":6713:6945  function transferOwnership(address newOwner) public virtual onlyOwner {... */\n    tag_15:\n      tag_65\n      0x04\n      dup1\n      calldatasize\n      sub\n      dup2\n      add\n      swap1\n      tag_66\n      swap2\n      swap1\n      tag_45\n      jump\t// in\n    tag_66:\n      tag_67\n      jump\t// in\n    tag_65:\n      stop\n        /* \"contracts/NFTContract/SQFItem.sol\":10347:10445  function name() public view virtual override returns (string memory) {... */\n    tag_19:\n        /* \"contracts/NFTContract/SQFItem.sol\":10401:10414  string memory */\n      0x60\n        /* \"contracts/NFTContract/SQFItem.sol\":10433:10438  _name */\n      0x07\n        /* \"contracts/NFTContract/SQFItem.sol\":10426:10438  return _name */\n      dup1\n      sload\n      tag_69\n      swap1\n      tag_70\n      jump\t// in\n    tag_69:\n      dup1\n      0x1f\n      add\n      0x20\n      dup1\n      swap2\n      div\n      mul\n      0x20\n      add\n      mload(0x40)\n      swap1\n      dup2\n      add\n      0x40\n      mstore\n      dup1\n      swap3\n      swap2\n      swap1\n      dup2\n      dup2\n      mstore\n      0x20\n      add\n      dup3\n      dup1\n      sload\n      tag_71\n      swap1\n      tag_70\n      jump\t// in\n    tag_71:\n      dup1\n      iszero\n      tag_72\n      jumpi\n      dup1\n      0x1f\n      lt\n      tag_73\n      jumpi\n      0x0100\n      dup1\n      dup4\n      sload\n      div\n      mul\n      dup4\n      mstore\n      swap2\n      0x20\n      add\n      swap2\n      jump(tag_72)\n    tag_73:\n      dup3\n      add\n      swap2\n      swap1\n      0x00\n      mstore\n      keccak256(0x00, 0x20)\n      swap1\n    tag_74:\n      dup2\n      sload\n      dup2\n      mstore\n      swap1\n      0x01\n      add\n      swap1\n      0x20\n      add\n      dup1\n      dup4\n      gt\n      tag_74\n      jumpi\n      dup3\n      swap1\n      sub\n      0x1f\n      and\n      dup3\n      add\n      swap2\n    tag_72:\n      pop\n      pop\n      pop\n      pop\n      pop\n      swap1\n      pop\n        /* \"contracts/NFTContract/SQFItem.sol\":10347:10445  function name() public view virtual override returns (string memory) {... */\n      swap1\n      jump\t// out\n        /* \"contracts/NFTContract/SQFItem.sol\":11023:11318  function getApproved(uint256 tokenId)... */\n    tag_25:\n        /* \"contracts/NFTContract/SQFItem.sol\":11139:11146  address */\n      0x00\n        /* \"contracts/NFTContract/SQFItem.sol\":11183:11199  _exists(tokenId) */\n      tag_76\n        /* \"contracts/NFTContract/SQFItem.sol\":11191:11198  tokenId */\n      dup3\n        /* \"contracts/NFTContract/SQFItem.sol\":11183:11190  _exists */\n      tag_77\n        /* \"contracts/NFTContract/SQFItem.sol\":11183:11199  _exists(tokenId) */\n      jump\t// in\n    tag_76:\n        /* \"contracts/NFTContract/SQFItem.sol\":11162:11269  require(... */\n      tag_78\n      jumpi\n      mload(0x40)\n      0x08c379a000000000000000000000000000000000000000000000000000000000\n      dup2\n      mstore\n      0x04\n      add\n      tag_79\n      swap1\n      tag_80\n      jump\t// in\n    tag_79:\n      mload(0x40)\n      dup1\n      swap2\n      sub\n      swap1\n      revert\n    tag_78:\n        /* \"contracts/NFTContract/SQFItem.sol\":11287:11302  _tokenApprovals */\n      0x04\n        /* \"contracts/NFTContract/SQFItem.sol\":11287:11311  _tokenApprovals[tokenId] */\n      0x00\n        /* \"contracts/NFTContract/SQFItem.sol\":11303:11310  tokenId */\n      dup4\n        /* \"contracts/NFTContract/SQFItem.sol\":11287:11311  _tokenApprovals[tokenId] */\n      dup2\n      mstore\n      0x20\n      add\n      swap1\n      dup2\n      mstore\n      0x20\n      add\n      0x00\n      keccak256\n      0x00\n      swap1\n      sload\n      swap1\n      0x0100\n      exp\n      swap1\n      div\n      0xffffffffffffffffffffffffffffffffffffffff\n      and\n        /* \"contracts/NFTContract/SQFItem.sol\":11280:11311  return _tokenApprovals[tokenId] */\n      swap1\n      pop\n        /* \"contracts/NFTContract/SQFItem.sol\":11023:11318  function getApproved(uint256 tokenId)... */\n      swap2\n      swap1\n      pop\n      jump\t// out\n        /* \"contracts/NFTContract/SQFItem.sol\":10657:11017  function approve(address to, uint256 tokenId) public virtual override {... */\n    tag_31:\n        /* \"contracts/NFTContract/SQFItem.sol\":10737:10750  address owner */\n      0x00\n        /* \"contracts/NFTContract/SQFItem.sol\":10753:10776  ERC721.ownerOf(tokenId) */\n      tag_82\n        /* \"contracts/NFTContract/SQFItem.sol\":10768:10775  tokenId */\n      dup3\n        /* \"contracts/NFTContract/SQFItem.sol\":10753:10767  ERC721.ownerOf */\n      tag_41\n        /* \"contracts/NFTContract/SQFItem.sol\":10753:10776  ERC721.ownerOf(tokenId) */\n      jump\t// in\n    tag_82:\n        /* \"contracts/NFTContract/SQFItem.sol\":10737:10776  address owner = ERC721.ownerOf(tokenId) */\n      swap1\n      pop\n        /* \"contracts/NFTContract/SQFItem.sol\":10800:10805  owner */\n      dup1\n        /* \"contracts/NFTContract/SQFItem.sol\":10794:10805  to != owner */\n      0xffffffffffffffffffffffffffffffffffffffff\n      and\n        /* \"contracts/NFTContract/SQFItem.sol\":10794:10796  to */\n      dup4\n        /* \"contracts/NFTContract/SQFItem.sol\":10794:10805  to != owner */\n      0xffffffffffffffffffffffffffffffffffffffff\n      and\n      eq\n      iszero\n        /* \"contracts/NFTContract/SQFItem.sol\":10786:10843  require(to != owner, \"ERC721: approval to current owner\") */\n      tag_83\n      jumpi\n      mload(0x40)\n      0x08c379a000000000000000000000000000000000000000000000000000000000\n      dup2\n      mstore\n      0x04\n      add\n      tag_84\n      swap1\n      tag_85\n      jump\t// in\n    tag_84:\n      mload(0x40)\n      dup1\n      swap2\n      sub\n      swap1\n      revert\n    tag_83:\n        /* \"contracts/NFTContract/SQFItem.sol\":10891:10896  owner */\n      dup1\n        /* \"contracts/NFTContract/SQFItem.sol\":10875:10896  _msgSender() == owner */\n      0xffffffffffffffffffffffffffffffffffffffff\n      and\n        /* \"contracts/NFTContract/SQFItem.sol\":10875:10887  _msgSender() */\n      tag_86\n        /* \"contracts/NFTContract/SQFItem.sol\":10875:10885  _msgSender */\n      tag_87\n        /* \"contracts/NFTContract/SQFItem.sol\":10875:10887  _msgSender() */\n      jump\t// in\n    tag_86:\n        /* \"contracts/NFTContract/SQFItem.sol\":10875:10896  _msgSender() == owner */\n      0xffffffffffffffffffffffffffffffffffffffff\n      and\n      eq\n        /* \"contracts/NFTContract/SQFItem.sol\":10854:10978  require(... */\n      tag_88\n      jumpi\n      mload(0x40)\n      0x08c379a000000000000000000000000000000000000000000000000000000000\n      dup2\n      mstore\n      0x04\n      add\n      tag_89\n      swap1\n      tag_90\n      jump\t// in\n    tag_89:\n      mload(0x40)\n      dup1\n      swap2\n      sub\n      swap1\n      revert\n    tag_88:\n        /* \"contracts/NFTContract/SQFItem.sol\":10989:11010  _approve(to, tokenId) */\n      tag_91\n        /* \"contracts/NFTContract/SQFItem.sol\":10998:11000  to */\n      dup4\n        /* \"contracts/NFTContract/SQFItem.sol\":11002:11009  tokenId */\n      dup4\n        /* \"contracts/NFTContract/SQFItem.sol\":10989:10997  _approve */\n      tag_92\n        /* \"contracts/NFTContract/SQFItem.sol\":10989:11010  _approve(to, tokenId) */\n      jump\t// in\n    tag_91:\n        /* \"contracts/NFTContract/SQFItem.sol\":10657:11017  function approve(address to, uint256 tokenId) public virtual override {... */\n      pop\n      pop\n      pop\n      jump\t// out\n        /* \"contracts/NFTContract/SQFItem.sol\":11324:11636  function transferFrom(... */\n    tag_35:\n        /* \"contracts/NFTContract/SQFItem.sol\":11474:11515  _isApprovedOrOwner(_msgSender(), tokenId) */\n      tag_94\n        /* \"contracts/NFTContract/SQFItem.sol\":11493:11505  _msgSender() */\n      tag_95\n        /* \"contracts/NFTContract/SQFItem.sol\":11493:11503  _msgSender */\n      tag_87\n        /* \"contracts/NFTContract/SQFItem.sol\":11493:11505  _msgSender() */\n      jump\t// in\n    tag_95:\n        /* \"contracts/NFTContract/SQFItem.sol\":11507:11514  tokenId */\n      dup3\n        /* \"contracts/NFTContract/SQFItem.sol\":11474:11492  _isApprovedOrOwner */\n      tag_96\n        /* \"contracts/NFTContract/SQFItem.sol\":11474:11515  _isApprovedOrOwner(_msgSender(), tokenId) */\n      jump\t// in\n    tag_94:\n        /* \"contracts/NFTContract/SQFItem.sol\":11453:11590  require(... */\n      tag_97\n      jumpi\n      mload(0x40)\n      0x08c379a000000000000000000000000000000000000000000000000000000000\n      dup2\n      mstore\n      0x04\n      add\n      tag_98\n      swap1\n      tag_99\n      jump\t// in\n    tag_98:\n      mload(0x40)\n      dup1\n      swap2\n      sub\n      swap1\n      revert\n    tag_97:\n        /* \"contracts/NFTContract/SQFItem.sol\":11601:11629  _transfer(from, to, tokenId) */\n      tag_100\n        /* \"contracts/NFTContract/SQFItem.sol\":11611:11615  from */\n      dup4\n        /* \"contracts/NFTContract/SQFItem.sol\":11617:11619  to */\n      dup4\n        /* \"contracts/NFTContract/SQFItem.sol\":11621:11628  tokenId */\n      dup4\n        /* \"contracts/NFTContract/SQFItem.sol\":11601:11610  _transfer */\n      tag_101\n        /* \"contracts/NFTContract/SQFItem.sol\":11601:11629  _transfer(from, to, tokenId) */\n      jump\t// in\n    tag_100:\n        /* \"contracts/NFTContract/SQFItem.sol\":11324:11636  function transferFrom(... */\n      pop\n      pop\n      pop\n      jump\t// out\n        /* \"contracts/NFTContract/SQFItem.sol\":11642:11821  function safeTransferFrom(... */\n    tag_38:\n        /* \"contracts/NFTContract/SQFItem.sol\":11775:11814  safeTransferFrom(from, to, tokenId, \"\") */\n      tag_103\n        /* \"contracts/NFTContract/SQFItem.sol\":11792:11796  from */\n      dup4\n        /* \"contracts/NFTContract/SQFItem.sol\":11798:11800  to */\n      dup4\n        /* \"contracts/NFTContract/SQFItem.sol\":11802:11809  tokenId */\n      dup4\n        /* \"contracts/NFTContract/SQFItem.sol\":11775:11814  safeTransferFrom(from, to, tokenId, \"\") */\n      mload(0x40)\n      dup1\n      0x20\n      add\n      0x40\n      mstore\n      dup1\n      0x00\n      dup2\n      mstore\n      pop\n        /* \"contracts/NFTContract/SQFItem.sol\":11775:11791  safeTransferFrom */\n      tag_60\n        /* \"contracts/NFTContract/SQFItem.sol\":11775:11814  safeTransferFrom(from, to, tokenId, \"\") */\n      jump\t// in\n    tag_103:\n        /* \"contracts/NFTContract/SQFItem.sol\":11642:11821  function safeTransferFrom(... */\n      pop\n      pop\n      pop\n      jump\t// out\n        /* \"contracts/NFTContract/SQFItem.sol\":10028:10341  function ownerOf(uint256 tokenId)... */\n    tag_41:\n        /* \"contracts/NFTContract/SQFItem.sol\":10140:10147  address */\n      0x00\n        /* \"contracts/NFTContract/SQFItem.sol\":10163:10176  address owner */\n      dup1\n        /* \"contracts/NFTContract/SQFItem.sol\":10179:10186  _owners */\n      0x02\n        /* \"contracts/NFTContract/SQFItem.sol\":10179:10195  _owners[tokenId] */\n      0x00\n        /* \"contracts/NFTContract/SQFItem.sol\":10187:10194  tokenId */\n      dup5\n        /* \"contracts/NFTContract/SQFItem.sol\":10179:10195  _owners[tokenId] */\n      dup2\n      mstore\n      0x20\n      add\n      swap1\n      dup2\n      mstore\n      0x20\n      add\n      0x00\n      keccak256\n      0x00\n      swap1\n      sload\n      swap1\n      0x0100\n      exp\n      swap1\n      div\n      0xffffffffffffffffffffffffffffffffffffffff\n      and\n        /* \"contracts/NFTContract/SQFItem.sol\":10163:10195  address owner = _owners[tokenId] */\n      swap1\n      pop\n        /* \"contracts/NFTContract/SQFItem.sol\":10243:10244  0 */\n      0x00\n        /* \"contracts/NFTContract/SQFItem.sol\":10226:10245  owner != address(0) */\n      0xffffffffffffffffffffffffffffffffffffffff\n      and\n        /* \"contracts/NFTContract/SQFItem.sol\":10226:10231  owner */\n      dup2\n        /* \"contracts/NFTContract/SQFItem.sol\":10226:10245  owner != address(0) */\n      0xffffffffffffffffffffffffffffffffffffffff\n      and\n      eq\n      iszero\n        /* \"contracts/NFTContract/SQFItem.sol\":10205:10312  require(... */\n      tag_105\n      jumpi\n      mload(0x40)\n      0x08c379a000000000000000000000000000000000000000000000000000000000\n      dup2\n      mstore\n      0x04\n      add\n      tag_106\n      swap1\n      tag_107\n      jump\t// in\n    tag_106:\n      mload(0x40)\n      dup1\n      swap2\n      sub\n      swap1\n      revert\n    tag_105:\n        /* \"contracts/NFTContract/SQFItem.sol\":10329:10334  owner */\n      dup1\n        /* \"contracts/NFTContract/SQFItem.sol\":10322:10334  return owner */\n      swap2\n      pop\n      pop\n        /* \"contracts/NFTContract/SQFItem.sol\":10028:10341  function ownerOf(uint256 tokenId)... */\n      swap2\n      swap1\n      pop\n      jump\t// out\n        /* \"contracts/NFTContract/SQFItem.sol\":9739:10022  function balanceOf(address owner)... */\n    tag_46:\n        /* \"contracts/NFTContract/SQFItem.sol\":9851:9858  uint256 */\n      0x00\n        /* \"contracts/NFTContract/SQFItem.sol\":9912:9913  0 */\n      dup1\n        /* \"contracts/NFTContract/SQFItem.sol\":9895:9914  owner != address(0) */\n      0xffffffffffffffffffffffffffffffffffffffff\n      and\n        /* \"contracts/NFTContract/SQFItem.sol\":9895:9900  owner */\n      dup3\n        /* \"contracts/NFTContract/SQFItem.sol\":9895:9914  owner != address(0) */\n      0xffffffffffffffffffffffffffffffffffffffff\n      and\n      eq\n      iszero\n        /* \"contracts/NFTContract/SQFItem.sol\":9874:9982  require(... */\n      tag_109\n      jumpi\n      mload(0x40)\n      0x08c379a000000000000000000000000000000000000000000000000000000000\n      dup2\n      mstore\n      0x04\n      add\n      tag_110\n      swap1\n      tag_111\n      jump\t// in\n    tag_110:\n      mload(0x40)\n      dup1\n      swap2\n      sub\n      swap1\n      revert\n    tag_109:\n        /* \"contracts/NFTContract/SQFItem.sol\":9999:10008  _balances */\n      0x01\n        /* \"contracts/NFTContract/SQFItem.sol\":9999:10015  _balances[owner] */\n      0x00\n        /* \"contracts/NFTContract/SQFItem.sol\":10009:10014  owner */\n      dup4\n        /* \"contracts/NFTContract/SQFItem.sol\":9999:10015  _balances[owner] */\n      0xffffffffffffffffffffffffffffffffffffffff\n      and\n      0xffffffffffffffffffffffffffffffffffffffff\n      and\n      dup2\n      mstore\n      0x20\n      add\n      swap1\n      dup2\n      mstore\n      0x20\n      add\n      0x00\n      keccak256\n      sload\n        /* \"contracts/NFTContract/SQFItem.sol\":9992:10015  return _balances[owner] */\n      swap1\n      pop\n        /* \"contracts/NFTContract/SQFItem.sol\":9739:10022  function balanceOf(address owner)... */\n      swap2\n      swap1\n      pop\n      jump\t// out\n        /* \"contracts/NFTContract/SQFItem.sol\":6606:6707  function renounceOwnership() public virtual onlyOwner {... */\n    tag_50:\n        /* \"contracts/NFTContract/SQFItem.sol\":6533:6545  _msgSender() */\n      tag_113\n        /* \"contracts/NFTContract/SQFItem.sol\":6533:6543  _msgSender */\n      tag_87\n        /* \"contracts/NFTContract/SQFItem.sol\":6533:6545  _msgSender() */\n      jump\t// in\n    tag_113:\n        /* \"contracts/NFTContract/SQFItem.sol\":6522:6545  owner() == _msgSender() */\n      0xffffffffffffffffffffffffffffffffffffffff\n      and\n        /* \"contracts/NFTContract/SQFItem.sol\":6522:6529  owner() */\n      tag_114\n        /* \"contracts/NFTContract/SQFItem.sol\":6522:6527  owner */\n      tag_52\n        /* \"contracts/NFTContract/SQFItem.sol\":6522:6529  owner() */\n      jump\t// in\n    tag_114:\n        /* \"contracts/NFTContract/SQFItem.sol\":6522:6545  owner() == _msgSender() */\n      0xffffffffffffffffffffffffffffffffffffffff\n      and\n      eq\n        /* \"contracts/NFTContract/SQFItem.sol\":6514:6582  require(owner() == _msgSender(), \"Ownable: caller is not the owner\") */\n      tag_115\n      jumpi\n      mload(0x40)\n      0x08c379a000000000000000000000000000000000000000000000000000000000\n      dup2\n      mstore\n      0x04\n      add\n      tag_116\n      swap1\n      tag_117\n      jump\t// in\n    tag_116:\n      mload(0x40)\n      dup1\n      swap2\n      sub\n      swap1\n      revert\n    tag_115:\n        /* \"contracts/NFTContract/SQFItem.sol\":6670:6700  _transferOwnership(address(0)) */\n      tag_119\n        /* \"contracts/NFTContract/SQFItem.sol\":6697:6698  0 */\n      0x00\n        /* \"contracts/NFTContract/SQFItem.sol\":6670:6688  _transferOwnership */\n      tag_120\n        /* \"contracts/NFTContract/SQFItem.sol\":6670:6700  _transferOwnership(address(0)) */\n      jump\t// in\n    tag_119:\n        /* \"contracts/NFTContract/SQFItem.sol\":6606:6707  function renounceOwnership() public virtual onlyOwner {... */\n      jump\t// out\n        /* \"contracts/NFTContract/SQFItem.sol\":6392:6477  function owner() public view virtual returns (address) {... */\n    tag_52:\n        /* \"contracts/NFTContract/SQFItem.sol\":6438:6445  address */\n      0x00\n        /* \"contracts/NFTContract/SQFItem.sol\":6464:6470  _owner */\n      dup1\n      0x00\n      swap1\n      sload\n      swap1\n      0x0100\n      exp\n      swap1\n      div\n      0xffffffffffffffffffffffffffffffffffffffff\n      and\n        /* \"contracts/NFTContract/SQFItem.sol\":6457:6470  return _owner */\n      swap1\n      pop\n        /* \"contracts/NFTContract/SQFItem.sol\":6392:6477  function owner() public view virtual returns (address) {... */\n      swap1\n      jump\t// out\n        /* \"contracts/NFTContract/SQFItem.sol\":10451:10553  function symbol() public view virtual override returns (string memory) {... */\n    tag_55:\n        /* \"contracts/NFTContract/SQFItem.sol\":10507:10520  string memory */\n      0x60\n        /* \"contracts/NFTContract/SQFItem.sol\":10539:10546  _symbol */\n      0x08\n        /* \"contracts/NFTContract/SQFItem.sol\":10532:10546  return _symbol */\n      dup1\n      sload\n      tag_123\n      swap1\n      tag_70\n      jump\t// in\n    tag_123:\n      dup1\n      0x1f\n      add\n      0x20\n      dup1\n      swap2\n      div\n      mul\n      0x20\n      add\n      mload(0x40)\n      swap1\n      dup2\n      add\n      0x40\n      mstore\n      dup1\n      swap3\n      swap2\n      swap1\n      dup2\n      dup2\n      mstore\n      0x20\n      add\n      dup3\n      dup1\n      sload\n      tag_124\n      swap1\n      tag_70\n      jump\t// in\n    tag_124:\n      dup1\n      iszero\n      tag_125\n      jumpi\n      dup1\n      0x1f\n      lt\n      tag_126\n      jumpi\n      0x0100\n      dup1\n      dup4\n      sload\n      div\n      mul\n      dup4\n      mstore\n      swap2\n      0x20\n      add\n      swap2\n      jump(tag_125)\n    tag_126:\n      dup3\n      add\n      swap2\n      swap1\n      0x00\n      mstore\n      keccak256(0x00, 0x20)\n      swap1\n    tag_127:\n      dup2\n      sload\n      dup2\n      mstore\n      swap1\n      0x01\n      add\n      swap1\n      0x20\n      add\n      dup1\n      dup4\n      gt\n      tag_127\n      jumpi\n      dup3\n      swap1\n      sub\n      0x1f\n      and\n      dup3\n      add\n      swap2\n    tag_125:\n      pop\n      pop\n      pop\n      pop\n      pop\n      swap1\n      pop\n        /* \"contracts/NFTContract/SQFItem.sol\":10451:10553  function symbol() public view virtual override returns (string memory) {... */\n      swap1\n      jump\t// out\n        /* \"contracts/NFTContract/SQFItem.sol\":11827:12181  function safeTransferFrom(... */\n    tag_60:\n        /* \"contracts/NFTContract/SQFItem.sol\":12009:12050  _isApprovedOrOwner(_msgSender(), tokenId) */\n      tag_129\n        /* \"contracts/NFTContract/SQFItem.sol\":12028:12040  _msgSender() */\n      tag_130\n        /* \"contracts/NFTContract/SQFItem.sol\":12028:12038  _msgSender */\n      tag_87\n        /* \"contracts/NFTContract/SQFItem.sol\":12028:12040  _msgSender() */\n      jump\t// in\n    tag_130:\n        /* \"contracts/NFTContract/SQFItem.sol\":12042:12049  tokenId */\n      dup4\n        /* \"contracts/NFTContract/SQFItem.sol\":12009:12027  _isApprovedOrOwner */\n      tag_96\n        /* \"contracts/NFTContract/SQFItem.sol\":12009:12050  _isApprovedOrOwner(_msgSender(), tokenId) */\n      jump\t// in\n    tag_129:\n        /* \"contracts/NFTContract/SQFItem.sol\":11988:12125  require(... */\n      tag_131\n      jumpi\n      mload(0x40)\n      0x08c379a000000000000000000000000000000000000000000000000000000000\n      dup2\n      mstore\n      0x04\n      add\n      tag_132\n      swap1\n      tag_99\n      jump\t// in\n    tag_132:\n      mload(0x40)\n      dup1\n      swap2\n      sub\n      swap1\n      revert\n    tag_131:\n        /* \"contracts/NFTContract/SQFItem.sol\":12135:12174  _safeTransfer(from, to, tokenId, _data) */\n      tag_133\n        /* \"contracts/NFTContract/SQFItem.sol\":12149:12153  from */\n      dup5\n        /* \"contracts/NFTContract/SQFItem.sol\":12155:12157  to */\n      dup5\n        /* \"contracts/NFTContract/SQFItem.sol\":12159:12166  tokenId */\n      dup5\n        /* \"contracts/NFTContract/SQFItem.sol\":12168:12173  _data */\n      dup5\n        /* \"contracts/NFTContract/SQFItem.sol\":12135:12148  _safeTransfer */\n      tag_134\n        /* \"contracts/NFTContract/SQFItem.sol\":12135:12174  _safeTransfer(from, to, tokenId, _data) */\n      jump\t// in\n    tag_133:\n        /* \"contracts/NFTContract/SQFItem.sol\":11827:12181  function safeTransferFrom(... */\n      pop\n      pop\n      pop\n      pop\n      jump\t// out\n        /* \"contracts/NFTContract/SQFItem.sol\":9282:9733  function tokenURI(uint256 tokenId)... */\n    tag_63:\n        /* \"contracts/NFTContract/SQFItem.sol\":9395:9408  string memory */\n      0x60\n        /* \"contracts/NFTContract/SQFItem.sol\":9445:9461  _exists(tokenId) */\n      tag_136\n        /* \"contracts/NFTContract/SQFItem.sol\":9453:9460  tokenId */\n      dup3\n        /* \"contracts/NFTContract/SQFItem.sol\":9445:9452  _exists */\n      tag_77\n        /* \"contracts/NFTContract/SQFItem.sol\":9445:9461  _exists(tokenId) */\n      jump\t// in\n    tag_136:\n        /* \"contracts/NFTContract/SQFItem.sol\":9424:9534  require(... */\n      tag_137\n      jumpi\n      mload(0x40)\n      0x08c379a000000000000000000000000000000000000000000000000000000000\n      dup2\n      mstore\n      0x04\n      add\n      tag_138\n      swap1\n      tag_139\n      jump\t// in\n    tag_138:\n      mload(0x40)\n      dup1\n      swap2\n      sub\n      swap1\n      revert\n    tag_137:\n        /* \"contracts/NFTContract/SQFItem.sol\":9545:9566  string memory baseURI */\n      0x00\n        /* \"contracts/NFTContract/SQFItem.sol\":9569:9579  _baseURI() */\n      tag_140\n        /* \"contracts/NFTContract/SQFItem.sol\":9569:9577  _baseURI */\n      tag_141\n        /* \"contracts/NFTContract/SQFItem.sol\":9569:9579  _baseURI() */\n      jump\t// in\n    tag_140:\n        /* \"contracts/NFTContract/SQFItem.sol\":9545:9579  string memory baseURI = _baseURI() */\n      swap1\n      pop\n        /* \"contracts/NFTContract/SQFItem.sol\":9632:9633  0 */\n      0x00\n        /* \"contracts/NFTContract/SQFItem.sol\":9614:9621  baseURI */\n      dup2\n        /* \"contracts/NFTContract/SQFItem.sol\":9608:9629  bytes(baseURI).length */\n      mload\n        /* \"contracts/NFTContract/SQFItem.sol\":9608:9633  bytes(baseURI).length > 0 */\n      gt\n        /* \"contracts/NFTContract/SQFItem.sol\":9608:9726  bytes(baseURI).length > 0... */\n      tag_142\n      jumpi\n      mload(0x40)\n      dup1\n      0x20\n      add\n      0x40\n      mstore\n      dup1\n      0x00\n      dup2\n      mstore\n      pop\n      jump(tag_143)\n    tag_142:\n        /* \"contracts/NFTContract/SQFItem.sol\":9676:9683  baseURI */\n      dup1\n        /* \"contracts/NFTContract/SQFItem.sol\":9685:9703  tokenId.toString() */\n      tag_144\n        /* \"contracts/NFTContract/SQFItem.sol\":9685:9692  tokenId */\n      dup5\n        /* \"contracts/NFTContract/SQFItem.sol\":9685:9701  tokenId.toString */\n      tag_145\n        /* \"contracts/NFTContract/SQFItem.sol\":9685:9703  tokenId.toString() */\n      jump\t// in\n    tag_144:\n        /* \"contracts/NFTContract/SQFItem.sol\":9659:9704  abi.encodePacked(baseURI, tokenId.toString()) */\n      add(0x20, mload(0x40))\n      tag_146\n      swap3\n      swap2\n      swap1\n      tag_147\n      jump\t// in\n    tag_146:\n      mload(0x40)\n      0x20\n      dup2\n      dup4\n      sub\n      sub\n      dup2\n      mstore\n      swap1\n      0x40\n      mstore\n        /* \"contracts/NFTContract/SQFItem.sol\":9608:9726  bytes(baseURI).length > 0... */\n    tag_143:\n        /* \"contracts/NFTContract/SQFItem.sol\":9589:9726  return... */\n      swap2\n      pop\n      pop\n        /* \"contracts/NFTContract/SQFItem.sol\":9282:9733  function tokenURI(uint256 tokenId)... */\n      swap2\n      swap1\n      pop\n      jump\t// out\n        /* \"contracts/NFTContract/SQFItem.sol\":6713:6945  function transferOwnership(address newOwner) public virtual onlyOwner {... */\n    tag_67:\n        /* \"contracts/NFTContract/SQFItem.sol\":6533:6545  _msgSender() */\n      tag_149\n        /* \"contracts/NFTContract/SQFItem.sol\":6533:6543  _msgSender */\n      tag_87\n        /* \"contracts/NFTContract/SQFItem.sol\":6533:6545  _msgSender() */\n      jump\t// in\n    tag_149:\n        /* \"contracts/NFTContract/SQFItem.sol\":6522:6545  owner() == _msgSender() */\n      0xffffffffffffffffffffffffffffffffffffffff\n      and\n        /* \"contracts/NFTContract/SQFItem.sol\":6522:6529  owner() */\n      tag_150\n        /* \"contracts/NFTContract/SQFItem.sol\":6522:6527  owner */\n      tag_52\n        /* \"contracts/NFTContract/SQFItem.sol\":6522:6529  owner() */\n      jump\t// in\n    tag_150:\n        /* \"contracts/NFTContract/SQFItem.sol\":6522:6545  owner() == _msgSender() */\n      0xffffffffffffffffffffffffffffffffffffffff\n      and\n      eq\n        /* \"contracts/NFTContract/SQFItem.sol\":6514:6582  require(owner() == _msgSender(), \"Ownable: caller is not the owner\") */\n      tag_151\n      jumpi\n      mload(0x40)\n      0x08c379a000000000000000000000000000000000000000000000000000000000\n      dup2\n      mstore\n      0x04\n      add\n      tag_152\n      swap1\n      tag_117\n      jump\t// in\n    tag_152:\n      mload(0x40)\n      dup1\n      swap2\n      sub\n      swap1\n      revert\n    tag_151:\n        /* \"contracts/NFTContract/SQFItem.sol\":6834:6835  0 */\n      0x00\n        /* \"contracts/NFTContract/SQFItem.sol\":6814:6836  newOwner != address(0) */\n      0xffffffffffffffffffffffffffffffffffffffff\n      and\n        /* \"contracts/NFTContract/SQFItem.sol\":6814:6822  newOwner */\n      dup2\n        /* \"contracts/NFTContract/SQFItem.sol\":6814:6836  newOwner != address(0) */\n      0xffffffffffffffffffffffffffffffffffffffff\n      and\n      eq\n      iszero\n        /* \"contracts/NFTContract/SQFItem.sol\":6793:6900  require(... */\n      tag_154\n      jumpi\n      mload(0x40)\n      0x08c379a000000000000000000000000000000000000000000000000000000000\n      dup2\n      mstore\n      0x04\n      add\n      tag_155\n      swap1\n      tag_156\n      jump\t// in\n    tag_155:\n      mload(0x40)\n      dup1\n      swap2\n      sub\n      swap1\n      revert\n    tag_154:\n        /* \"contracts/NFTContract/SQFItem.sol\":6910:6938  _transferOwnership(newOwner) */\n      tag_157\n        /* \"contracts/NFTContract/SQFItem.sol\":6929:6937  newOwner */\n      dup2\n        /* \"contracts/NFTContract/SQFItem.sol\":6910:6928  _transferOwnership */\n      tag_120\n        /* \"contracts/NFTContract/SQFItem.sol\":6910:6938  _transferOwnership(newOwner) */\n      jump\t// in\n    tag_157:\n        /* \"contracts/NFTContract/SQFItem.sol\":6713:6945  function transferOwnership(address newOwner) public virtual onlyOwner {... */\n      pop\n      jump\t// out\n        /* \"contracts/NFTContract/SQFItem.sol\":12534:12659  function _exists(uint256 tokenId) internal view virtual returns (bool) {... */\n    tag_77:\n        /* \"contracts/NFTContract/SQFItem.sol\":12599:12603  bool */\n      0x00\n        /* \"contracts/NFTContract/SQFItem.sol\":12650:12651  0 */\n      dup1\n        /* \"contracts/NFTContract/SQFItem.sol\":12622:12652  _owners[tokenId] != address(0) */\n      0xffffffffffffffffffffffffffffffffffffffff\n      and\n        /* \"contracts/NFTContract/SQFItem.sol\":12622:12629  _owners */\n      0x02\n        /* \"contracts/NFTContract/SQFItem.sol\":12622:12638  _owners[tokenId] */\n      0x00\n        /* \"contracts/NFTContract/SQFItem.sol\":12630:12637  tokenId */\n      dup5\n        /* \"contracts/NFTContract/SQFItem.sol\":12622:12638  _owners[tokenId] */\n      dup2\n      mstore\n      0x20\n      add\n      swap1\n      dup2\n      mstore\n      0x20\n      add\n      0x00\n      keccak256\n      0x00\n      swap1\n      sload\n      swap1\n      0x0100\n      exp\n      swap1\n      div\n      0xffffffffffffffffffffffffffffffffffffffff\n      and\n        /* \"contracts/NFTContract/SQFItem.sol\":12622:12652  _owners[tokenId] != address(0) */\n      0xffffffffffffffffffffffffffffffffffffffff\n      and\n      eq\n      iszero\n        /* \"contracts/NFTContract/SQFItem.sol\":12615:12652  return _owners[tokenId] != address(0) */\n      swap1\n      pop\n        /* \"contracts/NFTContract/SQFItem.sol\":12534:12659  function _exists(uint256 tokenId) internal view virtual returns (bool) {... */\n      swap2\n      swap1\n      pop\n      jump\t// out\n        /* \"contracts/NFTContract/SQFItem.sol\":165:261  function _msgSender() internal view virtual returns (address) {... */\n    tag_87:\n        /* \"contracts/NFTContract/SQFItem.sol\":218:225  address */\n      0x00\n        /* \"contracts/NFTContract/SQFItem.sol\":244:254  msg.sender */\n      caller\n        /* \"contracts/NFTContract/SQFItem.sol\":237:254  return msg.sender */\n      swap1\n      pop\n        /* \"contracts/NFTContract/SQFItem.sol\":165:261  function _msgSender() internal view virtual returns (address) {... */\n      swap1\n      jump\t// out\n        /* \"contracts/NFTContract/SQFItem.sol\":14971:15142  function _approve(address to, uint256 tokenId) internal virtual {... */\n    tag_92:\n        /* \"contracts/NFTContract/SQFItem.sol\":15072:15074  to */\n      dup2\n        /* \"contracts/NFTContract/SQFItem.sol\":15045:15060  _tokenApprovals */\n      0x04\n        /* \"contracts/NFTContract/SQFItem.sol\":15045:15069  _tokenApprovals[tokenId] */\n      0x00\n        /* \"contracts/NFTContract/SQFItem.sol\":15061:15068  tokenId */\n      dup4\n        /* \"contracts/NFTContract/SQFItem.sol\":15045:15069  _tokenApprovals[tokenId] */\n      dup2\n      mstore\n      0x20\n      add\n      swap1\n      dup2\n      mstore\n      0x20\n      add\n      0x00\n      keccak256\n      0x00\n        /* \"contracts/NFTContract/SQFItem.sol\":15045:15074  _tokenApprovals[tokenId] = to */\n      0x0100\n      exp\n      dup2\n      sload\n      dup2\n      0xffffffffffffffffffffffffffffffffffffffff\n      mul\n      not\n      and\n      swap1\n      dup4\n      0xffffffffffffffffffffffffffffffffffffffff\n      and\n      mul\n      or\n      swap1\n      sstore\n      pop\n        /* \"contracts/NFTContract/SQFItem.sol\":15127:15134  tokenId */\n      dup1\n        /* \"contracts/NFTContract/SQFItem.sol\":15123:15125  to */\n      dup3\n        /* \"contracts/NFTContract/SQFItem.sol\":15089:15135  Approval(ERC721.ownerOf(tokenId), to, tokenId) */\n      0xffffffffffffffffffffffffffffffffffffffff\n      and\n        /* \"contracts/NFTContract/SQFItem.sol\":15098:15121  ERC721.ownerOf(tokenId) */\n      tag_161\n        /* \"contracts/NFTContract/SQFItem.sol\":15113:15120  tokenId */\n      dup4\n        /* \"contracts/NFTContract/SQFItem.sol\":15098:15112  ERC721.ownerOf */\n      tag_41\n        /* \"contracts/NFTContract/SQFItem.sol\":15098:15121  ERC721.ownerOf(tokenId) */\n      jump\t// in\n    tag_161:\n        /* \"contracts/NFTContract/SQFItem.sol\":15089:15135  Approval(ERC721.ownerOf(tokenId), to, tokenId) */\n      0xffffffffffffffffffffffffffffffffffffffff\n      and\n      0x8c5be1e5ebec7d5bd14f71427d1e84f3dd0314c0f7b2291e5b200ac8c7c3b925\n      mload(0x40)\n      mload(0x40)\n      dup1\n      swap2\n      sub\n      swap1\n      log4\n        /* \"contracts/NFTContract/SQFItem.sol\":14971:15142  function _approve(address to, uint256 tokenId) internal virtual {... */\n      pop\n      pop\n      jump\t// out\n        /* \"contracts/NFTContract/SQFItem.sol\":12665:13043  function _isApprovedOrOwner(address spender, uint256 tokenId)... */\n    tag_96:\n        /* \"contracts/NFTContract/SQFItem.sol\":12790:12794  bool */\n      0x00\n        /* \"contracts/NFTContract/SQFItem.sol\":12831:12847  _exists(tokenId) */\n      tag_163\n        /* \"contracts/NFTContract/SQFItem.sol\":12839:12846  tokenId */\n      dup3\n        /* \"contracts/NFTContract/SQFItem.sol\":12831:12838  _exists */\n      tag_77\n        /* \"contracts/NFTContract/SQFItem.sol\":12831:12847  _exists(tokenId) */\n      jump\t// in\n    tag_163:\n        /* \"contracts/NFTContract/SQFItem.sol\":12810:12917  require(... */\n      tag_164\n      jumpi\n      mload(0x40)\n      0x08c379a000000000000000000000000000000000000000000000000000000000\n      dup2\n      mstore\n      0x04\n      add\n      tag_165\n      swap1\n      tag_166\n      jump\t// in\n    tag_165:\n      mload(0x40)\n      dup1\n      swap2\n      sub\n      swap1\n      revert\n    tag_164:\n        /* \"contracts/NFTContract/SQFItem.sol\":12927:12940  address owner */\n      0x00\n        /* \"contracts/NFTContract/SQFItem.sol\":12943:12966  ERC721.ownerOf(tokenId) */\n      tag_167\n        /* \"contracts/NFTContract/SQFItem.sol\":12958:12965  tokenId */\n      dup4\n        /* \"contracts/NFTContract/SQFItem.sol\":12943:12957  ERC721.ownerOf */\n      tag_41\n        /* \"contracts/NFTContract/SQFItem.sol\":12943:12966  ERC721.ownerOf(tokenId) */\n      jump\t// in\n    tag_167:\n        /* \"contracts/NFTContract/SQFItem.sol\":12927:12966  address owner = ERC721.ownerOf(tokenId) */\n      swap1\n      pop\n        /* \"contracts/NFTContract/SQFItem.sol\":12995:13000  owner */\n      dup1\n        /* \"contracts/NFTContract/SQFItem.sol\":12984:13000  spender == owner */\n      0xffffffffffffffffffffffffffffffffffffffff\n      and\n        /* \"contracts/NFTContract/SQFItem.sol\":12984:12991  spender */\n      dup5\n        /* \"contracts/NFTContract/SQFItem.sol\":12984:13000  spender == owner */\n      0xffffffffffffffffffffffffffffffffffffffff\n      and\n      eq\n        /* \"contracts/NFTContract/SQFItem.sol\":12984:13035  spender == owner || getApproved(tokenId) == spender */\n      dup1\n      tag_168\n      jumpi\n      pop\n        /* \"contracts/NFTContract/SQFItem.sol\":13028:13035  spender */\n      dup4\n        /* \"contracts/NFTContract/SQFItem.sol\":13004:13035  getApproved(tokenId) == spender */\n      0xffffffffffffffffffffffffffffffffffffffff\n      and\n        /* \"contracts/NFTContract/SQFItem.sol\":13004:13024  getApproved(tokenId) */\n      tag_169\n        /* \"contracts/NFTContract/SQFItem.sol\":13016:13023  tokenId */\n      dup5\n        /* \"contracts/NFTContract/SQFItem.sol\":13004:13015  getApproved */\n      tag_25\n        /* \"contracts/NFTContract/SQFItem.sol\":13004:13024  getApproved(tokenId) */\n      jump\t// in\n    tag_169:\n        /* \"contracts/NFTContract/SQFItem.sol\":13004:13035  getApproved(tokenId) == spender */\n      0xffffffffffffffffffffffffffffffffffffffff\n      and\n      eq\n        /* \"contracts/NFTContract/SQFItem.sol\":12984:13035  spender == owner || getApproved(tokenId) == spender */\n    tag_168:\n        /* \"contracts/NFTContract/SQFItem.sol\":12976:13036  return (spender == owner || getApproved(tokenId) == spender) */\n      swap2\n      pop\n      pop\n        /* \"contracts/NFTContract/SQFItem.sol\":12665:13043  function _isApprovedOrOwner(address spender, uint256 tokenId)... */\n      swap3\n      swap2\n      pop\n      pop\n      jump\t// out\n        /* \"contracts/NFTContract/SQFItem.sol\":14326:14965  function _transfer(... */\n    tag_101:\n        /* \"contracts/NFTContract/SQFItem.sol\":14493:14497  from */\n      dup3\n        /* \"contracts/NFTContract/SQFItem.sol\":14466:14497  ERC721.ownerOf(tokenId) == from */\n      0xffffffffffffffffffffffffffffffffffffffff\n      and\n        /* \"contracts/NFTContract/SQFItem.sol\":14466:14489  ERC721.ownerOf(tokenId) */\n      tag_171\n        /* \"contracts/NFTContract/SQFItem.sol\":14481:14488  tokenId */\n      dup3\n        /* \"contracts/NFTContract/SQFItem.sol\":14466:14480  ERC721.ownerOf */\n      tag_41\n        /* \"contracts/NFTContract/SQFItem.sol\":14466:14489  ERC721.ownerOf(tokenId) */\n      jump\t// in\n    tag_171:\n        /* \"contracts/NFTContract/SQFItem.sol\":14466:14497  ERC721.ownerOf(tokenId) == from */\n      0xffffffffffffffffffffffffffffffffffffffff\n      and\n      eq\n        /* \"contracts/NFTContract/SQFItem.sol\":14445:14560  require(... */\n      tag_172\n      jumpi\n      mload(0x40)\n      0x08c379a000000000000000000000000000000000000000000000000000000000\n      dup2\n      mstore\n      0x04\n      add\n      tag_173\n      swap1\n      tag_174\n      jump\t// in\n    tag_173:\n      mload(0x40)\n      dup1\n      swap2\n      sub\n      swap1\n      revert\n    tag_172:\n        /* \"contracts/NFTContract/SQFItem.sol\":14592:14593  0 */\n      0x00\n        /* \"contracts/NFTContract/SQFItem.sol\":14578:14594  to != address(0) */\n      0xffffffffffffffffffffffffffffffffffffffff\n      and\n        /* \"contracts/NFTContract/SQFItem.sol\":14578:14580  to */\n      dup3\n        /* \"contracts/NFTContract/SQFItem.sol\":14578:14594  to != address(0) */\n      0xffffffffffffffffffffffffffffffffffffffff\n      and\n      eq\n      iszero\n        /* \"contracts/NFTContract/SQFItem.sol\":14570:14635  require(to != address(0), \"ERC721: transfer to the zero address\") */\n      tag_175\n      jumpi\n      mload(0x40)\n      0x08c379a000000000000000000000000000000000000000000000000000000000\n      dup2\n      mstore\n      0x04\n      add\n      tag_176\n      swap1\n      tag_177\n      jump\t// in\n    tag_176:\n      mload(0x40)\n      dup1\n      swap2\n      sub\n      swap1\n      revert\n    tag_175:\n        /* \"contracts/NFTContract/SQFItem.sol\":14646:14685  _beforeTokenTransfer(from, to, tokenId) */\n      tag_178\n        /* \"contracts/NFTContract/SQFItem.sol\":14667:14671  from */\n      dup4\n        /* \"contracts/NFTContract/SQFItem.sol\":14673:14675  to */\n      dup4\n        /* \"contracts/NFTContract/SQFItem.sol\":14677:14684  tokenId */\n      dup4\n        /* \"contracts/NFTContract/SQFItem.sol\":14646:14666  _beforeTokenTransfer */\n      tag_179\n        /* \"contracts/NFTContract/SQFItem.sol\":14646:14685  _beforeTokenTransfer(from, to, tokenId) */\n      jump\t// in\n    tag_178:\n        /* \"contracts/NFTContract/SQFItem.sol\":14747:14776  _approve(address(0), tokenId) */\n      tag_180\n        /* \"contracts/NFTContract/SQFItem.sol\":14764:14765  0 */\n      0x00\n        /* \"contracts/NFTContract/SQFItem.sol\":14768:14775  tokenId */\n      dup3\n        /* \"contracts/NFTContract/SQFItem.sol\":14747:14755  _approve */\n      tag_92\n        /* \"contracts/NFTContract/SQFItem.sol\":14747:14776  _approve(address(0), tokenId) */\n      jump\t// in\n    tag_180:\n        /* \"contracts/NFTContract/SQFItem.sol\":14806:14807  1 */\n      0x01\n        /* \"contracts/NFTContract/SQFItem.sol\":14787:14796  _balances */\n      dup1\n        /* \"contracts/NFTContract/SQFItem.sol\":14787:14802  _balances[from] */\n      0x00\n        /* \"contracts/NFTContract/SQFItem.sol\":14797:14801  from */\n      dup6\n        /* \"contracts/NFTContract/SQFItem.sol\":14787:14802  _balances[from] */\n      0xffffffffffffffffffffffffffffffffffffffff\n      and\n      0xffffffffffffffffffffffffffffffffffffffff\n      and\n      dup2\n      mstore\n      0x20\n      add\n      swap1\n      dup2\n      mstore\n      0x20\n      add\n      0x00\n      keccak256\n      0x00\n        /* \"contracts/NFTContract/SQFItem.sol\":14787:14807  _balances[from] -= 1 */\n      dup3\n      dup3\n      sload\n      tag_181\n      swap2\n      swap1\n      tag_182\n      jump\t// in\n    tag_181:\n      swap3\n      pop\n      pop\n      dup2\n      swap1\n      sstore\n      pop\n        /* \"contracts/NFTContract/SQFItem.sol\":14834:14835  1 */\n      0x01\n        /* \"contracts/NFTContract/SQFItem.sol\":14817:14826  _balances */\n      dup1\n        /* \"contracts/NFTContract/SQFItem.sol\":14817:14830  _balances[to] */\n      0x00\n        /* \"contracts/NFTContract/SQFItem.sol\":14827:14829  to */\n      dup5\n        /* \"contracts/NFTContract/SQFItem.sol\":14817:14830  _balances[to] */\n      0xffffffffffffffffffffffffffffffffffffffff\n      and\n      0xffffffffffffffffffffffffffffffffffffffff\n      and\n      dup2\n      mstore\n      0x20\n      add\n      swap1\n      dup2\n      mstore\n      0x20\n      add\n      0x00\n      keccak256\n      0x00\n        /* \"contracts/NFTContract/SQFItem.sol\":14817:14835  _balances[to] += 1 */\n      dup3\n      dup3\n      sload\n      tag_183\n      swap2\n      swap1\n      tag_184\n      jump\t// in\n    tag_183:\n      swap3\n      pop\n      pop\n      dup2\n      swap1\n      sstore\n      pop\n        /* \"contracts/NFTContract/SQFItem.sol\":14864:14866  to */\n      dup2\n        /* \"contracts/NFTContract/SQFItem.sol\":14845:14852  _owners */\n      0x02\n        /* \"contracts/NFTContract/SQFItem.sol\":14845:14861  _owners[tokenId] */\n      0x00\n        /* \"contracts/NFTContract/SQFItem.sol\":14853:14860  tokenId */\n      dup4\n        /* \"contracts/NFTContract/SQFItem.sol\":14845:14861  _owners[tokenId] */\n      dup2\n      mstore\n      0x20\n      add\n      swap1\n      dup2\n      mstore\n      0x20\n      add\n      0x00\n      keccak256\n      0x00\n        /* \"contracts/NFTContract/SQFItem.sol\":14845:14866  _owners[tokenId] = to */\n      0x0100\n      exp\n      dup2\n      sload\n      dup2\n      0xffffffffffffffffffffffffffffffffffffffff\n      mul\n      not\n      and\n      swap1\n      dup4\n      0xffffffffffffffffffffffffffffffffffffffff\n      and\n      mul\n      or\n      swap1\n      sstore\n      pop\n        /* \"contracts/NFTContract/SQFItem.sol\":14901:14908  tokenId */\n      dup1\n        /* \"contracts/NFTContract/SQFItem.sol\":14897:14899  to */\n      dup3\n        /* \"contracts/NFTContract/SQFItem.sol\":14882:14909  Transfer(from, to, tokenId) */\n      0xffffffffffffffffffffffffffffffffffffffff\n      and\n        /* \"contracts/NFTContract/SQFItem.sol\":14891:14895  from */\n      dup5\n        /* \"contracts/NFTContract/SQFItem.sol\":14882:14909  Transfer(from, to, tokenId) */\n      0xffffffffffffffffffffffffffffffffffffffff\n      and\n      0xddf252ad1be2c89b69c2b068fc378daa952ba7f163c4a11628f55a4df523b3ef\n      mload(0x40)\n      mload(0x40)\n      dup1\n      swap2\n      sub\n      swap1\n      log4\n        /* \"contracts/NFTContract/SQFItem.sol\":14920:14958  _afterTokenTransfer(from, to, tokenId) */\n      tag_185\n        /* \"contracts/NFTContract/SQFItem.sol\":14940:14944  from */\n      dup4\n        /* \"contracts/NFTContract/SQFItem.sol\":14946:14948  to */\n      dup4\n        /* \"contracts/NFTContract/SQFItem.sol\":14950:14957  tokenId */\n      dup4\n        /* \"contracts/NFTContract/SQFItem.sol\":14920:14939  _afterTokenTransfer */\n      tag_186\n        /* \"contracts/NFTContract/SQFItem.sol\":14920:14958  _afterTokenTransfer(from, to, tokenId) */\n      jump\t// in\n    tag_185:\n        /* \"contracts/NFTContract/SQFItem.sol\":14326:14965  function _transfer(... */\n      pop\n      pop\n      pop\n      jump\t// out\n        /* \"contracts/NFTContract/SQFItem.sol\":6951:7138  function _transferOwnership(address newOwner) internal virtual {... */\n    tag_120:\n        /* \"contracts/NFTContract/SQFItem.sol\":7024:7040  address oldOwner */\n      0x00\n        /* \"contracts/NFTContract/SQFItem.sol\":7043:7049  _owner */\n      dup1\n      0x00\n      swap1\n      sload\n      swap1\n      0x0100\n      exp\n      swap1\n      div\n      0xffffffffffffffffffffffffffffffffffffffff\n      and\n        /* \"contracts/NFTContract/SQFItem.sol\":7024:7049  address oldOwner = _owner */\n      swap1\n      pop\n        /* \"contracts/NFTContract/SQFItem.sol\":7068:7076  newOwner */\n      dup2\n        /* \"contracts/NFTContract/SQFItem.sol\":7059:7065  _owner */\n      0x00\n      dup1\n        /* \"contracts/NFTContract/SQFItem.sol\":7059:7076  _owner = newOwner */\n      0x0100\n      exp\n      dup2\n      sload\n      dup2\n      0xffffffffffffffffffffffffffffffffffffffff\n      mul\n      not\n      and\n      swap1\n      dup4\n      0xffffffffffffffffffffffffffffffffffffffff\n      and\n      mul\n      or\n      swap1\n      sstore\n      pop\n        /* \"contracts/NFTContract/SQFItem.sol\":7122:7130  newOwner */\n      dup2\n        /* \"contracts/NFTContract/SQFItem.sol\":7091:7131  OwnershipTransferred(oldOwner, newOwner) */\n      0xffffffffffffffffffffffffffffffffffffffff\n      and\n        /* \"contracts/NFTContract/SQFItem.sol\":7112:7120  oldOwner */\n      dup2\n        /* \"contracts/NFTContract/SQFItem.sol\":7091:7131  OwnershipTransferred(oldOwner, newOwner) */\n      0xffffffffffffffffffffffffffffffffffffffff\n      and\n      0x8be0079c531659141344cd1fd0a4f28419497f9722a3daafe3b4186f6b6457e0\n      mload(0x40)\n      mload(0x40)\n      dup1\n      swap2\n      sub\n      swap1\n      log3\n        /* \"contracts/NFTContract/SQFItem.sol\":6951:7138  function _transferOwnership(address newOwner) internal virtual {... */\n      pop\n      pop\n      jump\t// out\n        /* \"contracts/NFTContract/SQFItem.sol\":12187:12528  function _safeTransfer(... */\n    tag_134:\n        /* \"contracts/NFTContract/SQFItem.sol\":12338:12366  _transfer(from, to, tokenId) */\n      tag_189\n        /* \"contracts/NFTContract/SQFItem.sol\":12348:12352  from */\n      dup5\n        /* \"contracts/NFTContract/SQFItem.sol\":12354:12356  to */\n      dup5\n        /* \"contracts/NFTContract/SQFItem.sol\":12358:12365  tokenId */\n      dup5\n        /* \"contracts/NFTContract/SQFItem.sol\":12338:12347  _transfer */\n      tag_101\n        /* \"contracts/NFTContract/SQFItem.sol\":12338:12366  _transfer(from, to, tokenId) */\n      jump\t// in\n    tag_189:\n        /* \"contracts/NFTContract/SQFItem.sol\":12397:12445  _checkOnERC721Received(from, to, tokenId, _data) */\n      tag_190\n        /* \"contracts/NFTContract/SQFItem.sol\":12420:12424  from */\n      dup5\n        /* \"contracts/NFTContract/SQFItem.sol\":12426:12428  to */\n      dup5\n        /* \"contracts/NFTContract/SQFItem.sol\":12430:12437  tokenId */\n      dup5\n        /* \"contracts/NFTContract/SQFItem.sol\":12439:12444  _data */\n      dup5\n        /* \"contracts/NFTContract/SQFItem.sol\":12397:12419  _checkOnERC721Received */\n      tag_191\n        /* \"contracts/NFTContract/SQFItem.sol\":12397:12445  _checkOnERC721Received(from, to, tokenId, _data) */\n      jump\t// in\n    tag_190:\n        /* \"contracts/NFTContract/SQFItem.sol\":12376:12521  require(... */\n      tag_192\n      jumpi\n      mload(0x40)\n      0x08c379a000000000000000000000000000000000000000000000000000000000\n      dup2\n      mstore\n      0x04\n      add\n      tag_193\n      swap1\n      tag_194\n      jump\t// in\n    tag_193:\n      mload(0x40)\n      dup1\n      swap2\n      sub\n      swap1\n      revert\n    tag_192:\n        /* \"contracts/NFTContract/SQFItem.sol\":12187:12528  function _safeTransfer(... */\n      pop\n      pop\n      pop\n      pop\n      jump\t// out\n        /* \"contracts/NFTContract/SQFItem.sol\":10559:10651  function _baseURI() internal view virtual returns (string memory) {... */\n    tag_141:\n        /* \"contracts/NFTContract/SQFItem.sol\":10610:10623  string memory */\n      0x60\n        /* \"contracts/NFTContract/SQFItem.sol\":10635:10644  return \"\" */\n      mload(0x40)\n      dup1\n      0x20\n      add\n      0x40\n      mstore\n      dup1\n      0x00\n      dup2\n      mstore\n      pop\n      swap1\n      pop\n        /* \"contracts/NFTContract/SQFItem.sol\":10559:10651  function _baseURI() internal view virtual returns (string memory) {... */\n      swap1\n      jump\t// out\n        /* \"contracts/NFTContract/SQFItem.sol\":4810:5325  function toString(uint256 value) internal pure returns (string memory) {... */\n    tag_145:\n        /* \"contracts/NFTContract/SQFItem.sol\":4866:4879  string memory */\n      0x60\n        /* \"contracts/NFTContract/SQFItem.sol\":4904:4905  0 */\n      0x00\n        /* \"contracts/NFTContract/SQFItem.sol\":4895:4900  value */\n      dup3\n        /* \"contracts/NFTContract/SQFItem.sol\":4895:4905  value == 0 */\n      eq\n        /* \"contracts/NFTContract/SQFItem.sol\":4891:4942  if (value == 0) {... */\n      iszero\n      tag_197\n      jumpi\n        /* \"contracts/NFTContract/SQFItem.sol\":4921:4931  return \"0\" */\n      mload(0x40)\n      dup1\n      0x40\n      add\n      0x40\n      mstore\n      dup1\n      0x01\n      dup2\n      mstore\n      0x20\n      add\n      0x3000000000000000000000000000000000000000000000000000000000000000\n      dup2\n      mstore\n      pop\n      swap1\n      pop\n      jump(tag_196)\n        /* \"contracts/NFTContract/SQFItem.sol\":4891:4942  if (value == 0) {... */\n    tag_197:\n        /* \"contracts/NFTContract/SQFItem.sol\":4951:4963  uint256 temp */\n      0x00\n        /* \"contracts/NFTContract/SQFItem.sol\":4966:4971  value */\n      dup3\n        /* \"contracts/NFTContract/SQFItem.sol\":4951:4971  uint256 temp = value */\n      swap1\n      pop\n        /* \"contracts/NFTContract/SQFItem.sol\":4981:4995  uint256 digits */\n      0x00\n        /* \"contracts/NFTContract/SQFItem.sol\":5005:5080  while (temp != 0) {... */\n    tag_198:\n        /* \"contracts/NFTContract/SQFItem.sol\":5020:5021  0 */\n      0x00\n        /* \"contracts/NFTContract/SQFItem.sol\":5012:5016  temp */\n      dup3\n        /* \"contracts/NFTContract/SQFItem.sol\":5012:5021  temp != 0 */\n      eq\n        /* \"contracts/NFTContract/SQFItem.sol\":5005:5080  while (temp != 0) {... */\n      tag_199\n      jumpi\n        /* \"contracts/NFTContract/SQFItem.sol\":5037:5045  digits++ */\n      dup1\n      dup1\n      tag_200\n      swap1\n      tag_201\n      jump\t// in\n    tag_200:\n      swap2\n      pop\n      pop\n        /* \"contracts/NFTContract/SQFItem.sol\":5067:5069  10 */\n      0x0a\n        /* \"contracts/NFTContract/SQFItem.sol\":5059:5069  temp /= 10 */\n      dup3\n      tag_202\n      swap2\n      swap1\n      tag_203\n      jump\t// in\n    tag_202:\n      swap2\n      pop\n        /* \"contracts/NFTContract/SQFItem.sol\":5005:5080  while (temp != 0) {... */\n      jump(tag_198)\n    tag_199:\n        /* \"contracts/NFTContract/SQFItem.sol\":5089:5108  bytes memory buffer */\n      0x00\n        /* \"contracts/NFTContract/SQFItem.sol\":5121:5127  digits */\n      dup2\n        /* \"contracts/NFTContract/SQFItem.sol\":5111:5128  new bytes(digits) */\n      0xffffffffffffffff\n      dup2\n      gt\n      iszero\n      tag_204\n      jumpi\n      mstore(0x00, 0x4e487b7100000000000000000000000000000000000000000000000000000000)\n      mstore(0x04, 0x41)\n      revert(0x00, 0x24)\n    tag_204:\n      mload(0x40)\n      swap1\n      dup1\n      dup3\n      mstore\n      dup1\n      0x1f\n      add\n      not(0x1f)\n      and\n      0x20\n      add\n      dup3\n      add\n      0x40\n      mstore\n      dup1\n      iszero\n      tag_205\n      jumpi\n      dup2\n      0x20\n      add\n      0x01\n      dup3\n      mul\n      dup1\n      calldatasize\n      dup4\n      calldatacopy\n      dup1\n      dup3\n      add\n      swap2\n      pop\n      pop\n      swap1\n      pop\n    tag_205:\n      pop\n        /* \"contracts/NFTContract/SQFItem.sol\":5089:5128  bytes memory buffer = new bytes(digits) */\n      swap1\n      pop\n        /* \"contracts/NFTContract/SQFItem.sol\":5138:5288  while (value != 0) {... */\n    tag_206:\n        /* \"contracts/NFTContract/SQFItem.sol\":5154:5155  0 */\n      0x00\n        /* \"contracts/NFTContract/SQFItem.sol\":5145:5150  value */\n      dup6\n        /* \"contracts/NFTContract/SQFItem.sol\":5145:5155  value != 0 */\n      eq\n        /* \"contracts/NFTContract/SQFItem.sol\":5138:5288  while (value != 0) {... */\n      tag_207\n      jumpi\n        /* \"contracts/NFTContract/SQFItem.sol\":5181:5182  1 */\n      0x01\n        /* \"contracts/NFTContract/SQFItem.sol\":5171:5182  digits -= 1 */\n      dup3\n      tag_208\n      swap2\n      swap1\n      tag_182\n      jump\t// in\n    tag_208:\n      swap2\n      pop\n        /* \"contracts/NFTContract/SQFItem.sol\":5247:5249  10 */\n      0x0a\n        /* \"contracts/NFTContract/SQFItem.sol\":5239:5244  value */\n      dup6\n        /* \"contracts/NFTContract/SQFItem.sol\":5239:5249  value % 10 */\n      tag_209\n      swap2\n      swap1\n      tag_210\n      jump\t// in\n    tag_209:\n        /* \"contracts/NFTContract/SQFItem.sol\":5226:5228  48 */\n      0x30\n        /* \"contracts/NFTContract/SQFItem.sol\":5226:5250  48 + uint256(value % 10) */\n      tag_211\n      swap2\n      swap1\n      tag_184\n      jump\t// in\n    tag_211:\n        /* \"contracts/NFTContract/SQFItem.sol\":5213:5252  bytes1(uint8(48 + uint256(value % 10))) */\n      0xf8\n      shl\n        /* \"contracts/NFTContract/SQFItem.sol\":5196:5202  buffer */\n      dup2\n        /* \"contracts/NFTContract/SQFItem.sol\":5203:5209  digits */\n      dup4\n        /* \"contracts/NFTContract/SQFItem.sol\":5196:5210  buffer[digits] */\n      dup2\n      mload\n      dup2\n      lt\n      tag_212\n      jumpi\n      mstore(0x00, 0x4e487b7100000000000000000000000000000000000000000000000000000000)\n      mstore(0x04, 0x32)\n      revert(0x00, 0x24)\n    tag_212:\n      0x20\n      add\n      add\n        /* \"contracts/NFTContract/SQFItem.sol\":5196:5252  buffer[digits] = bytes1(uint8(48 + uint256(value % 10))) */\n      swap1\n      not(0xffffffffffffffffffffffffffffffffffffffffffffffffffffffffffffff)\n      and\n      swap1\n      dup2\n      0x00\n      byte\n      swap1\n      mstore8\n      pop\n        /* \"contracts/NFTContract/SQFItem.sol\":5275:5277  10 */\n      0x0a\n        /* \"contracts/NFTContract/SQFItem.sol\":5266:5277  value /= 10 */\n      dup6\n      tag_213\n      swap2\n      swap1\n      tag_203\n      jump\t// in\n    tag_213:\n      swap5\n      pop\n        /* \"contracts/NFTContract/SQFItem.sol\":5138:5288  while (value != 0) {... */\n      jump(tag_206)\n    tag_207:\n        /* \"contracts/NFTContract/SQFItem.sol\":5311:5317  buffer */\n      dup1\n        /* \"contracts/NFTContract/SQFItem.sol\":5297:5318  return string(buffer) */\n      swap4\n      pop\n      pop\n      pop\n      pop\n        /* \"contracts/NFTContract/SQFItem.sol\":4810:5325  function toString(uint256 value) internal pure returns (string memory) {... */\n    tag_196:\n      swap2\n      swap1\n      pop\n      jump\t// out\n        /* \"contracts/NFTContract/SQFItem.sol\":16417:16669  function _beforeTokenTransfer(... */\n    tag_179:\n      pop\n      pop\n      pop\n      jump\t// out\n        /* \"contracts/NFTContract/SQFItem.sol\":16675:16796  function _afterTokenTransfer(... */\n    tag_186:\n      pop\n      pop\n      pop\n      jump\t// out\n        /* \"contracts/NFTContract/SQFItem.sol\":15461:16411  function _checkOnERC721Received(... */\n    tag_191:\n        /* \"contracts/NFTContract/SQFItem.sol\":15611:15615  bool */\n      0x00\n        /* \"contracts/NFTContract/SQFItem.sol\":15631:15646  to.isContract() */\n      tag_217\n        /* \"contracts/NFTContract/SQFItem.sol\":15631:15633  to */\n      dup5\n        /* \"contracts/NFTContract/SQFItem.sol\":15631:15644  to.isContract */\n      0xffffffffffffffffffffffffffffffffffffffff\n      and\n      tag_218\n        /* \"contracts/NFTContract/SQFItem.sol\":15631:15646  to.isContract() */\n      jump\t// in\n    tag_217:\n        /* \"contracts/NFTContract/SQFItem.sol\":15627:16405  if (to.isContract()) {... */\n      iszero\n      tag_219\n      jumpi\n        /* \"contracts/NFTContract/SQFItem.sol\":15698:15700  to */\n      dup4\n        /* \"contracts/NFTContract/SQFItem.sol\":15682:15718  IERC721Receiver(to).onERC721Received */\n      0xffffffffffffffffffffffffffffffffffffffff\n      and\n      0x150b7a02\n        /* \"contracts/NFTContract/SQFItem.sol\":15740:15752  _msgSender() */\n      tag_220\n        /* \"contracts/NFTContract/SQFItem.sol\":15740:15750  _msgSender */\n      tag_87\n        /* \"contracts/NFTContract/SQFItem.sol\":15740:15752  _msgSender() */\n      jump\t// in\n    tag_220:\n        /* \"contracts/NFTContract/SQFItem.sol\":15774:15778  from */\n      dup8\n        /* \"contracts/NFTContract/SQFItem.sol\":15800:15807  tokenId */\n      dup7\n        /* \"contracts/NFTContract/SQFItem.sol\":15829:15834  _data */\n      dup7\n        /* \"contracts/NFTContract/SQFItem.sol\":15682:15852  IERC721Receiver(to).onERC721Received(... */\n      mload(0x40)\n      dup6\n      0xffffffff\n      and\n      0xe0\n      shl\n      dup2\n      mstore\n      0x04\n      add\n      tag_221\n      swap5\n      swap4\n      swap3\n      swap2\n      swap1\n      tag_222\n      jump\t// in\n    tag_221:\n      0x20\n      mload(0x40)\n      dup1\n      dup4\n      sub\n      dup2\n      0x00\n      dup8\n      dup1\n      extcodesize\n      iszero\n      dup1\n      iszero\n      tag_223\n      jumpi\n      0x00\n      dup1\n      revert\n    tag_223:\n      pop\n      gas\n      call\n      swap3\n      pop\n      pop\n      pop\n      dup1\n      iszero\n      tag_224\n      jumpi\n      pop\n      mload(0x40)\n      returndatasize\n      not(0x1f)\n      0x1f\n      dup3\n      add\n      and\n      dup3\n      add\n      dup1\n      0x40\n      mstore\n      pop\n      dup2\n      add\n      swap1\n      tag_225\n      swap2\n      swap1\n      tag_226\n      jump\t// in\n    tag_225:\n      0x01\n    tag_224:\n        /* \"contracts/NFTContract/SQFItem.sol\":15662:16353  try... */\n      tag_227\n      jumpi\n      returndatasize\n      dup1\n      0x00\n      dup2\n      eq\n      tag_231\n      jumpi\n      mload(0x40)\n      swap2\n      pop\n      and(add(returndatasize, 0x3f), not(0x1f))\n      dup3\n      add\n      0x40\n      mstore\n      returndatasize\n      dup3\n      mstore\n      returndatasize\n      0x00\n      0x20\n      dup5\n      add\n      returndatacopy\n      jump(tag_230)\n    tag_231:\n      0x60\n      swap2\n      pop\n    tag_230:\n      pop\n        /* \"contracts/NFTContract/SQFItem.sol\":16048:16049  0 */\n      0x00\n        /* \"contracts/NFTContract/SQFItem.sol\":16031:16037  reason */\n      dup2\n        /* \"contracts/NFTContract/SQFItem.sol\":16031:16044  reason.length */\n      mload\n        /* \"contracts/NFTContract/SQFItem.sol\":16031:16049  reason.length == 0 */\n      eq\n        /* \"contracts/NFTContract/SQFItem.sol\":16027:16339  if (reason.length == 0) {... */\n      iszero\n      tag_232\n      jumpi\n        /* \"contracts/NFTContract/SQFItem.sol\":16073:16179  revert(... */\n      mload(0x40)\n      0x08c379a000000000000000000000000000000000000000000000000000000000\n      dup2\n      mstore\n      0x04\n      add\n      tag_233\n      swap1\n      tag_194\n      jump\t// in\n    tag_233:\n      mload(0x40)\n      dup1\n      swap2\n      sub\n      swap1\n      revert\n        /* \"contracts/NFTContract/SQFItem.sol\":16027:16339  if (reason.length == 0) {... */\n    tag_232:\n        /* \"contracts/NFTContract/SQFItem.sol\":16291:16297  reason */\n      dup1\n        /* \"contracts/NFTContract/SQFItem.sol\":16285:16298  mload(reason) */\n      mload\n        /* \"contracts/NFTContract/SQFItem.sol\":16276:16282  reason */\n      dup2\n        /* \"contracts/NFTContract/SQFItem.sol\":16272:16274  32 */\n      0x20\n        /* \"contracts/NFTContract/SQFItem.sol\":16268:16283  add(32, reason) */\n      add\n        /* \"contracts/NFTContract/SQFItem.sol\":16261:16299  revert(add(32, reason), mload(reason)) */\n      revert\n        /* \"contracts/NFTContract/SQFItem.sol\":15662:16353  try... */\n    tag_227:\n        /* \"contracts/NFTContract/SQFItem.sol\":15924:15965  IERC721Receiver.onERC721Received.selector */\n      shl(0xe0, 0x150b7a02)\n        /* \"contracts/NFTContract/SQFItem.sol\":15914:15965  retval == IERC721Receiver.onERC721Received.selector */\n      not(0xffffffffffffffffffffffffffffffffffffffffffffffffffffffff)\n      and\n        /* \"contracts/NFTContract/SQFItem.sol\":15914:15920  retval */\n      dup2\n        /* \"contracts/NFTContract/SQFItem.sol\":15914:15965  retval == IERC721Receiver.onERC721Received.selector */\n      not(0xffffffffffffffffffffffffffffffffffffffffffffffffffffffff)\n      and\n      eq\n        /* \"contracts/NFTContract/SQFItem.sol\":15907:15965  return retval == IERC721Receiver.onERC721Received.selector */\n      swap2\n      pop\n      pop\n      jump(tag_216)\n        /* \"contracts/NFTContract/SQFItem.sol\":15627:16405  if (to.isContract()) {... */\n    tag_219:\n        /* \"contracts/NFTContract/SQFItem.sol\":16390:16394  true */\n      0x01\n        /* \"contracts/NFTContract/SQFItem.sol\":16383:16394  return true */\n      swap1\n      pop\n        /* \"contracts/NFTContract/SQFItem.sol\":15461:16411  function _checkOnERC721Received(... */\n    tag_216:\n      swap5\n      swap4\n      pop\n      pop\n      pop\n      pop\n      jump\t// out\n        /* \"contracts/NFTContract/SQFItem.sol\":588:908  function isContract(address account) internal view returns (bool) {... */\n    tag_218:\n        /* \"contracts/NFTContract/SQFItem.sol\":648:652  bool */\n      0x00\n        /* \"contracts/NFTContract/SQFItem.sol\":900:901  0 */\n      dup1\n        /* \"contracts/NFTContract/SQFItem.sol\":878:885  account */\n      dup3\n        /* \"contracts/NFTContract/SQFItem.sol\":878:890  account.code */\n      0xffffffffffffffffffffffffffffffffffffffff\n      and\n      dup1\n      extcodesize\n      dup1\n      0x20\n      add\n      mload(0x40)\n      swap1\n      dup2\n      add\n      0x40\n      mstore\n      dup2\n      dup2\n      mstore\n      0x00\n      swap1\n      dup1\n      0x20\n      add\n      swap1\n      swap4\n      extcodecopy\n        /* \"contracts/NFTContract/SQFItem.sol\":878:897  account.code.length */\n      mload\n        /* \"contracts/NFTContract/SQFItem.sol\":878:901  account.code.length > 0 */\n      gt\n        /* \"contracts/NFTContract/SQFItem.sol\":871:901  return account.code.length > 0 */\n      swap1\n      pop\n        /* \"contracts/NFTContract/SQFItem.sol\":588:908  function isContract(address account) internal view returns (bool) {... */\n      swap2\n      swap1\n      pop\n      jump\t// out\n        /* \"#utility.yul\":7:349   */\n    tag_239:\n      0x00\n        /* \"#utility.yul\":109:173   */\n      tag_241\n        /* \"#utility.yul\":124:172   */\n      tag_242\n        /* \"#utility.yul\":165:171   */\n      dup5\n        /* \"#utility.yul\":124:172   */\n      tag_243\n      jump\t// in\n    tag_242:\n        /* \"#utility.yul\":109:173   */\n      tag_244\n      jump\t// in\n    tag_241:\n        /* \"#utility.yul\":100:173   */\n      swap1\n      pop\n        /* \"#utility.yul\":196:202   */\n      dup3\n        /* \"#utility.yul\":189:194   */\n      dup2\n        /* \"#utility.yul\":182:203   */\n      mstore\n        /* \"#utility.yul\":234:238   */\n      0x20\n        /* \"#utility.yul\":227:232   */\n      dup2\n        /* \"#utility.yul\":223:239   */\n      add\n        /* \"#utility.yul\":272:275   */\n      dup5\n        /* \"#utility.yul\":263:269   */\n      dup5\n        /* \"#utility.yul\":258:261   */\n      dup5\n        /* \"#utility.yul\":254:270   */\n      add\n        /* \"#utility.yul\":251:276   */\n      gt\n        /* \"#utility.yul\":248:250   */\n      iszero\n      tag_245\n      jumpi\n        /* \"#utility.yul\":289:290   */\n      0x00\n        /* \"#utility.yul\":286:287   */\n      dup1\n        /* \"#utility.yul\":279:291   */\n      revert\n        /* \"#utility.yul\":248:250   */\n    tag_245:\n        /* \"#utility.yul\":302:343   */\n      tag_246\n        /* \"#utility.yul\":336:342   */\n      dup5\n        /* \"#utility.yul\":331:334   */\n      dup3\n        /* \"#utility.yul\":326:329   */\n      dup6\n        /* \"#utility.yul\":302:343   */\n      tag_247\n      jump\t// in\n    tag_246:\n        /* \"#utility.yul\":90:349   */\n      pop\n      swap4\n      swap3\n      pop\n      pop\n      pop\n      jump\t// out\n        /* \"#utility.yul\":355:494   */\n    tag_248:\n      0x00\n        /* \"#utility.yul\":439:445   */\n      dup2\n        /* \"#utility.yul\":426:446   */\n      calldataload\n        /* \"#utility.yul\":417:446   */\n      swap1\n      pop\n        /* \"#utility.yul\":455:488   */\n      tag_250\n        /* \"#utility.yul\":482:487   */\n      dup2\n        /* \"#utility.yul\":455:488   */\n      tag_251\n      jump\t// in\n    tag_250:\n        /* \"#utility.yul\":407:494   */\n      swap3\n      swap2\n      pop\n      pop\n      jump\t// out\n        /* \"#utility.yul\":500:641   */\n    tag_252:\n      0x00\n        /* \"#utility.yul\":587:593   */\n      dup2\n        /* \"#utility.yul\":581:594   */\n      mload\n        /* \"#utility.yul\":572:594   */\n      swap1\n      pop\n        /* \"#utility.yul\":603:635   */\n      tag_254\n        /* \"#utility.yul\":629:634   */\n      dup2\n        /* \"#utility.yul\":603:635   */\n      tag_255\n      jump\t// in\n    tag_254:\n        /* \"#utility.yul\":562:641   */\n      swap3\n      swap2\n      pop\n      pop\n      jump\t// out\n        /* \"#utility.yul\":660:931   */\n    tag_256:\n      0x00\n        /* \"#utility.yul\":764:767   */\n      dup3\n        /* \"#utility.yul\":757:761   */\n      0x1f\n        /* \"#utility.yul\":749:755   */\n      dup4\n        /* \"#utility.yul\":745:762   */\n      add\n        /* \"#utility.yul\":741:768   */\n      slt\n        /* \"#utility.yul\":731:733   */\n      tag_258\n      jumpi\n        /* \"#utility.yul\":782:783   */\n      0x00\n        /* \"#utility.yul\":779:780   */\n      dup1\n        /* \"#utility.yul\":772:784   */\n      revert\n        /* \"#utility.yul\":731:733   */\n    tag_258:\n        /* \"#utility.yul\":822:828   */\n      dup2\n        /* \"#utility.yul\":809:829   */\n      calldataload\n        /* \"#utility.yul\":847:925   */\n      tag_259\n        /* \"#utility.yul\":921:924   */\n      dup5\n        /* \"#utility.yul\":913:919   */\n      dup3\n        /* \"#utility.yul\":906:910   */\n      0x20\n        /* \"#utility.yul\":898:904   */\n      dup7\n        /* \"#utility.yul\":894:911   */\n      add\n        /* \"#utility.yul\":847:925   */\n      tag_239\n      jump\t// in\n    tag_259:\n        /* \"#utility.yul\":838:925   */\n      swap2\n      pop\n        /* \"#utility.yul\":721:931   */\n      pop\n      swap3\n      swap2\n      pop\n      pop\n      jump\t// out\n        /* \"#utility.yul\":937:1076   */\n    tag_260:\n      0x00\n        /* \"#utility.yul\":1021:1027   */\n      dup2\n        /* \"#utility.yul\":1008:1028   */\n      calldataload\n        /* \"#utility.yul\":999:1028   */\n      swap1\n      pop\n        /* \"#utility.yul\":1037:1070   */\n      tag_262\n        /* \"#utility.yul\":1064:1069   */\n      dup2\n        /* \"#utility.yul\":1037:1070   */\n      tag_263\n      jump\t// in\n    tag_262:\n        /* \"#utility.yul\":989:1076   */\n      swap3\n      swap2\n      pop\n      pop\n      jump\t// out\n        /* \"#utility.yul\":1082:1344   */\n    tag_45:\n      0x00\n        /* \"#utility.yul\":1190:1192   */\n      0x20\n        /* \"#utility.yul\":1178:1187   */\n      dup3\n        /* \"#utility.yul\":1169:1176   */\n      dup5\n        /* \"#utility.yul\":1165:1188   */\n      sub\n        /* \"#utility.yul\":1161:1193   */\n      slt\n        /* \"#utility.yul\":1158:1160   */\n      iszero\n      tag_265\n      jumpi\n        /* \"#utility.yul\":1206:1207   */\n      0x00\n        /* \"#utility.yul\":1203:1204   */\n      dup1\n        /* \"#utility.yul\":1196:1208   */\n      revert\n        /* \"#utility.yul\":1158:1160   */\n    tag_265:\n        /* \"#utility.yul\":1249:1250   */\n      0x00\n        /* \"#utility.yul\":1274:1327   */\n      tag_266\n        /* \"#utility.yul\":1319:1326   */\n      dup5\n        /* \"#utility.yul\":1310:1316   */\n      dup3\n        /* \"#utility.yul\":1299:1308   */\n      dup6\n        /* \"#utility.yul\":1295:1317   */\n      add\n        /* \"#utility.yul\":1274:1327   */\n      tag_248\n      jump\t// in\n    tag_266:\n        /* \"#utility.yul\":1264:1327   */\n      swap2\n      pop\n        /* \"#utility.yul\":1220:1337   */\n      pop\n        /* \"#utility.yul\":1148:1344   */\n      swap3\n      swap2\n      pop\n      pop\n      jump\t// out\n        /* \"#utility.yul\":1350:1902   */\n    tag_34:\n      0x00\n      dup1\n      0x00\n        /* \"#utility.yul\":1492:1494   */\n      0x60\n        /* \"#utility.yul\":1480:1489   */\n      dup5\n        /* \"#utility.yul\":1471:1478   */\n      dup7\n        /* \"#utility.yul\":1467:1490   */\n      sub\n        /* \"#utility.yul\":1463:1495   */\n      slt\n        /* \"#utility.yul\":1460:1462   */\n      iszero\n      tag_268\n      jumpi\n        /* \"#utility.yul\":1508:1509   */\n      0x00\n        /* \"#utility.yul\":1505:1506   */\n      dup1\n        /* \"#utility.yul\":1498:1510   */\n      revert\n        /* \"#utility.yul\":1460:1462   */\n    tag_268:\n        /* \"#utility.yul\":1551:1552   */\n      0x00\n        /* \"#utility.yul\":1576:1629   */\n      tag_269\n        /* \"#utility.yul\":1621:1628   */\n      dup7\n        /* \"#utility.yul\":1612:1618   */\n      dup3\n        /* \"#utility.yul\":1601:1610   */\n      dup8\n        /* \"#utility.yul\":1597:1619   */\n      add\n        /* \"#utility.yul\":1576:1629   */\n      tag_248\n      jump\t// in\n    tag_269:\n        /* \"#utility.yul\":1566:1629   */\n      swap4\n      pop\n        /* \"#utility.yul\":1522:1639   */\n      pop\n        /* \"#utility.yul\":1678:1680   */\n      0x20\n        /* \"#utility.yul\":1704:1757   */\n      tag_270\n        /* \"#utility.yul\":1749:1756   */\n      dup7\n        /* \"#utility.yul\":1740:1746   */\n      dup3\n        /* \"#utility.yul\":1729:1738   */\n      dup8\n        /* \"#utility.yul\":1725:1747   */\n      add\n        /* \"#utility.yul\":1704:1757   */\n      tag_248\n      jump\t// in\n    tag_270:\n        /* \"#utility.yul\":1694:1757   */\n      swap3\n      pop\n        /* \"#utility.yul\":1649:1767   */\n      pop\n        /* \"#utility.yul\":1806:1808   */\n      0x40\n        /* \"#utility.yul\":1832:1885   */\n      tag_271\n        /* \"#utility.yul\":1877:1884   */\n      dup7\n        /* \"#utility.yul\":1868:1874   */\n      dup3\n        /* \"#utility.yul\":1857:1866   */\n      dup8\n        /* \"#utility.yul\":1853:1875   */\n      add\n        /* \"#utility.yul\":1832:1885   */\n      tag_260\n      jump\t// in\n    tag_271:\n        /* \"#utility.yul\":1822:1885   */\n      swap2\n      pop\n        /* \"#utility.yul\":1777:1895   */\n      pop\n        /* \"#utility.yul\":1450:1902   */\n      swap3\n      pop\n      swap3\n      pop\n      swap3\n      jump\t// out\n        /* \"#utility.yul\":1908:2717   */\n    tag_59:\n      0x00\n      dup1\n      0x00\n      dup1\n        /* \"#utility.yul\":2076:2079   */\n      0x80\n        /* \"#utility.yul\":2064:2073   */\n      dup6\n        /* \"#utility.yul\":2055:2062   */\n      dup8\n        /* \"#utility.yul\":2051:2074   */\n      sub\n        /* \"#utility.yul\":2047:2080   */\n      slt\n        /* \"#utility.yul\":2044:2046   */\n      iszero\n      tag_273\n      jumpi\n        /* \"#utility.yul\":2093:2094   */\n      0x00\n        /* \"#utility.yul\":2090:2091   */\n      dup1\n        /* \"#utility.yul\":2083:2095   */\n      revert\n        /* \"#utility.yul\":2044:2046   */\n    tag_273:\n        /* \"#utility.yul\":2136:2137   */\n      0x00\n        /* \"#utility.yul\":2161:2214   */\n      tag_274\n        /* \"#utility.yul\":2206:2213   */\n      dup8\n        /* \"#utility.yul\":2197:2203   */\n      dup3\n        /* \"#utility.yul\":2186:2195   */\n      dup9\n        /* \"#utility.yul\":2182:2204   */\n      add\n        /* \"#utility.yul\":2161:2214   */\n      tag_248\n      jump\t// in\n    tag_274:\n        /* \"#utility.yul\":2151:2214   */\n      swap5\n      pop\n        /* \"#utility.yul\":2107:2224   */\n      pop\n        /* \"#utility.yul\":2263:2265   */\n      0x20\n        /* \"#utility.yul\":2289:2342   */\n      tag_275\n        /* \"#utility.yul\":2334:2341   */\n      dup8\n        /* \"#utility.yul\":2325:2331   */\n      dup3\n        /* \"#utility.yul\":2314:2323   */\n      dup9\n        /* \"#utility.yul\":2310:2332   */\n      add\n        /* \"#utility.yul\":2289:2342   */\n      tag_248\n      jump\t// in\n    tag_275:\n        /* \"#utility.yul\":2279:2342   */\n      swap4\n      pop\n        /* \"#utility.yul\":2234:2352   */\n      pop\n        /* \"#utility.yul\":2391:2393   */\n      0x40\n        /* \"#utility.yul\":2417:2470   */\n      tag_276\n        /* \"#utility.yul\":2462:2469   */\n      dup8\n        /* \"#utility.yul\":2453:2459   */\n      dup3\n        /* \"#utility.yul\":2442:2451   */\n      dup9\n        /* \"#utility.yul\":2438:2460   */\n      add\n        /* \"#utility.yul\":2417:2470   */\n      tag_260\n      jump\t// in\n    tag_276:\n        /* \"#utility.yul\":2407:2470   */\n      swap3\n      pop\n        /* \"#utility.yul\":2362:2480   */\n      pop\n        /* \"#utility.yul\":2547:2549   */\n      0x60\n        /* \"#utility.yul\":2536:2545   */\n      dup6\n        /* \"#utility.yul\":2532:2550   */\n      add\n        /* \"#utility.yul\":2519:2551   */\n      calldataload\n        /* \"#utility.yul\":2578:2596   */\n      0xffffffffffffffff\n        /* \"#utility.yul\":2570:2576   */\n      dup2\n        /* \"#utility.yul\":2567:2597   */\n      gt\n        /* \"#utility.yul\":2564:2566   */\n      iszero\n      tag_277\n      jumpi\n        /* \"#utility.yul\":2610:2611   */\n      0x00\n        /* \"#utility.yul\":2607:2608   */\n      dup1\n        /* \"#utility.yul\":2600:2612   */\n      revert\n        /* \"#utility.yul\":2564:2566   */\n    tag_277:\n        /* \"#utility.yul\":2638:2700   */\n      tag_278\n        /* \"#utility.yul\":2692:2699   */\n      dup8\n        /* \"#utility.yul\":2683:2689   */\n      dup3\n        /* \"#utility.yul\":2672:2681   */\n      dup9\n        /* \"#utility.yul\":2668:2690   */\n      add\n        /* \"#utility.yul\":2638:2700   */\n      tag_256\n      jump\t// in\n    tag_278:\n        /* \"#utility.yul\":2628:2700   */\n      swap2\n      pop\n        /* \"#utility.yul\":2490:2710   */\n      pop\n        /* \"#utility.yul\":2034:2717   */\n      swap3\n      swap6\n      swap2\n      swap5\n      pop\n      swap3\n      pop\n      jump\t// out\n        /* \"#utility.yul\":2723:3130   */\n    tag_30:\n      0x00\n      dup1\n        /* \"#utility.yul\":2848:2850   */\n      0x40\n        /* \"#utility.yul\":2836:2845   */\n      dup4\n        /* \"#utility.yul\":2827:2834   */\n      dup6\n        /* \"#utility.yul\":2823:2846   */\n      sub\n        /* \"#utility.yul\":2819:2851   */\n      slt\n        /* \"#utility.yul\":2816:2818   */\n      iszero\n      tag_280\n      jumpi\n        /* \"#utility.yul\":2864:2865   */\n      0x00\n        /* \"#utility.yul\":2861:2862   */\n      dup1\n        /* \"#utility.yul\":2854:2866   */\n      revert\n        /* \"#utility.yul\":2816:2818   */\n    tag_280:\n        /* \"#utility.yul\":2907:2908   */\n      0x00\n        /* \"#utility.yul\":2932:2985   */\n      tag_281\n        /* \"#utility.yul\":2977:2984   */\n      dup6\n        /* \"#utility.yul\":2968:2974   */\n      dup3\n        /* \"#utility.yul\":2957:2966   */\n      dup7\n        /* \"#utility.yul\":2953:2975   */\n      add\n        /* \"#utility.yul\":2932:2985   */\n      tag_248\n      jump\t// in\n    tag_281:\n        /* \"#utility.yul\":2922:2985   */\n      swap3\n      pop\n        /* \"#utility.yul\":2878:2995   */\n      pop\n        /* \"#utility.yul\":3034:3036   */\n      0x20\n        /* \"#utility.yul\":3060:3113   */\n      tag_282\n        /* \"#utility.yul\":3105:3112   */\n      dup6\n        /* \"#utility.yul\":3096:3102   */\n      dup3\n        /* \"#utility.yul\":3085:3094   */\n      dup7\n        /* \"#utility.yul\":3081:3103   */\n      add\n        /* \"#utility.yul\":3060:3113   */\n      tag_260\n      jump\t// in\n    tag_282:\n        /* \"#utility.yul\":3050:3113   */\n      swap2\n      pop\n        /* \"#utility.yul\":3005:3123   */\n      pop\n        /* \"#utility.yul\":2806:3130   */\n      swap3\n      pop\n      swap3\n      swap1\n      pop\n      jump\t// out\n        /* \"#utility.yul\":3136:3418   */\n    tag_226:\n      0x00\n        /* \"#utility.yul\":3254:3256   */\n      0x20\n        /* \"#utility.yul\":3242:3251   */\n      dup3\n        /* \"#utility.yul\":3233:3240   */\n      dup5\n        /* \"#utility.yul\":3229:3252   */\n      sub\n        /* \"#utility.yul\":3225:3257   */\n      slt\n        /* \"#utility.yul\":3222:3224   */\n      iszero\n      tag_284\n      jumpi\n        /* \"#utility.yul\":3270:3271   */\n      0x00\n        /* \"#utility.yul\":3267:3268   */\n      dup1\n        /* \"#utility.yul\":3260:3272   */\n      revert\n        /* \"#utility.yul\":3222:3224   */\n    tag_284:\n        /* \"#utility.yul\":3313:3314   */\n      0x00\n        /* \"#utility.yul\":3338:3401   */\n      tag_285\n        /* \"#utility.yul\":3393:3400   */\n      dup5\n        /* \"#utility.yul\":3384:3390   */\n      dup3\n        /* \"#utility.yul\":3373:3382   */\n      dup6\n        /* \"#utility.yul\":3369:3391   */\n      add\n        /* \"#utility.yul\":3338:3401   */\n      tag_252\n      jump\t// in\n    tag_285:\n        /* \"#utility.yul\":3328:3401   */\n      swap2\n      pop\n        /* \"#utility.yul\":3284:3411   */\n      pop\n        /* \"#utility.yul\":3212:3418   */\n      swap3\n      swap2\n      pop\n      pop\n      jump\t// out\n        /* \"#utility.yul\":3424:3686   */\n    tag_24:\n      0x00\n        /* \"#utility.yul\":3532:3534   */\n      0x20\n        /* \"#utility.yul\":3520:3529   */\n      dup3\n        /* \"#utility.yul\":3511:3518   */\n      dup5\n        /* \"#utility.yul\":3507:3530   */\n      sub\n        /* \"#utility.yul\":3503:3535   */\n      slt\n        /* \"#utility.yul\":3500:3502   */\n      iszero\n      tag_287\n      jumpi\n        /* \"#utility.yul\":3548:3549   */\n      0x00\n        /* \"#utility.yul\":3545:3546   */\n      dup1\n        /* \"#utility.yul\":3538:3550   */\n      revert\n        /* \"#utility.yul\":3500:3502   */\n    tag_287:\n        /* \"#utility.yul\":3591:3592   */\n      0x00\n        /* \"#utility.yul\":3616:3669   */\n      tag_288\n        /* \"#utility.yul\":3661:3668   */\n      dup5\n        /* \"#utility.yul\":3652:3658   */\n      dup3\n        /* \"#utility.yul\":3641:3650   */\n      dup6\n        /* \"#utility.yul\":3637:3659   */\n      add\n        /* \"#utility.yul\":3616:3669   */\n      tag_260\n      jump\t// in\n    tag_288:\n        /* \"#utility.yul\":3606:3669   */\n      swap2\n      pop\n        /* \"#utility.yul\":3562:3679   */\n      pop\n        /* \"#utility.yul\":3490:3686   */\n      swap3\n      swap2\n      pop\n      pop\n      jump\t// out\n        /* \"#utility.yul\":3692:3810   */\n    tag_289:\n        /* \"#utility.yul\":3779:3803   */\n      tag_291\n        /* \"#utility.yul\":3797:3802   */\n      dup2\n        /* \"#utility.yul\":3779:3803   */\n      tag_292\n      jump\t// in\n    tag_291:\n        /* \"#utility.yul\":3774:3777   */\n      dup3\n        /* \"#utility.yul\":3767:3804   */\n      mstore\n        /* \"#utility.yul\":3757:3810   */\n      pop\n      pop\n      jump\t// out\n        /* \"#utility.yul\":3816:4176   */\n    tag_293:\n      0x00\n        /* \"#utility.yul\":3930:3968   */\n      tag_295\n        /* \"#utility.yul\":3962:3967   */\n      dup3\n        /* \"#utility.yul\":3930:3968   */\n      tag_296\n      jump\t// in\n    tag_295:\n        /* \"#utility.yul\":3984:4054   */\n      tag_297\n        /* \"#utility.yul\":4047:4053   */\n      dup2\n        /* \"#utility.yul\":4042:4045   */\n      dup6\n        /* \"#utility.yul\":3984:4054   */\n      tag_298\n      jump\t// in\n    tag_297:\n        /* \"#utility.yul\":3977:4054   */\n      swap4\n      pop\n        /* \"#utility.yul\":4063:4115   */\n      tag_299\n        /* \"#utility.yul\":4108:4114   */\n      dup2\n        /* \"#utility.yul\":4103:4106   */\n      dup6\n        /* \"#utility.yul\":4096:4100   */\n      0x20\n        /* \"#utility.yul\":4089:4094   */\n      dup7\n        /* \"#utility.yul\":4085:4101   */\n      add\n        /* \"#utility.yul\":4063:4115   */\n      tag_300\n      jump\t// in\n    tag_299:\n        /* \"#utility.yul\":4140:4169   */\n      tag_301\n        /* \"#utility.yul\":4162:4168   */\n      dup2\n        /* \"#utility.yul\":4140:4169   */\n      tag_302\n      jump\t// in\n    tag_301:\n        /* \"#utility.yul\":4135:4138   */\n      dup5\n        /* \"#utility.yul\":4131:4170   */\n      add\n        /* \"#utility.yul\":4124:4170   */\n      swap2\n      pop\n        /* \"#utility.yul\":3906:4176   */\n      pop\n      swap3\n      swap2\n      pop\n      pop\n      jump\t// out\n        /* \"#utility.yul\":4182:4546   */\n    tag_303:\n      0x00\n        /* \"#utility.yul\":4298:4337   */\n      tag_305\n        /* \"#utility.yul\":4331:4336   */\n      dup3\n        /* \"#utility.yul\":4298:4337   */\n      tag_306\n      jump\t// in\n    tag_305:\n        /* \"#utility.yul\":4353:4424   */\n      tag_307\n        /* \"#utility.yul\":4417:4423   */\n      dup2\n        /* \"#utility.yul\":4412:4415   */\n      dup6\n        /* \"#utility.yul\":4353:4424   */\n      tag_308\n      jump\t// in\n    tag_307:\n        /* \"#utility.yul\":4346:4424   */\n      swap4\n      pop\n        /* \"#utility.yul\":4433:4485   */\n      tag_309\n        /* \"#utility.yul\":4478:4484   */\n      dup2\n        /* \"#utility.yul\":4473:4476   */\n      dup6\n        /* \"#utility.yul\":4466:4470   */\n      0x20\n        /* \"#utility.yul\":4459:4464   */\n      dup7\n        /* \"#utility.yul\":4455:4471   */\n      add\n        /* \"#utility.yul\":4433:4485   */\n      tag_300\n      jump\t// in\n    tag_309:\n        /* \"#utility.yul\":4510:4539   */\n      tag_310\n        /* \"#utility.yul\":4532:4538   */\n      dup2\n        /* \"#utility.yul\":4510:4539   */\n      tag_302\n      jump\t// in\n    tag_310:\n        /* \"#utility.yul\":4505:4508   */\n      dup5\n        /* \"#utility.yul\":4501:4540   */\n      add\n        /* \"#utility.yul\":4494:4540   */\n      swap2\n      pop\n        /* \"#utility.yul\":4274:4546   */\n      pop\n      swap3\n      swap2\n      pop\n      pop\n      jump\t// out\n        /* \"#utility.yul\":4552:4929   */\n    tag_311:\n      0x00\n        /* \"#utility.yul\":4686:4725   */\n      tag_313\n        /* \"#utility.yul\":4719:4724   */\n      dup3\n        /* \"#utility.yul\":4686:4725   */\n      tag_306\n      jump\t// in\n    tag_313:\n        /* \"#utility.yul\":4741:4830   */\n      tag_314\n        /* \"#utility.yul\":4823:4829   */\n      dup2\n        /* \"#utility.yul\":4818:4821   */\n      dup6\n        /* \"#utility.yul\":4741:4830   */\n      tag_315\n      jump\t// in\n    tag_314:\n        /* \"#utility.yul\":4734:4830   */\n      swap4\n      pop\n        /* \"#utility.yul\":4839:4891   */\n      tag_316\n        /* \"#utility.yul\":4884:4890   */\n      dup2\n        /* \"#utility.yul\":4879:4882   */\n      dup6\n        /* \"#utility.yul\":4872:4876   */\n      0x20\n        /* \"#utility.yul\":4865:4870   */\n      dup7\n        /* \"#utility.yul\":4861:4877   */\n      add\n        /* \"#utility.yul\":4839:4891   */\n      tag_300\n      jump\t// in\n    tag_316:\n        /* \"#utility.yul\":4916:4922   */\n      dup1\n        /* \"#utility.yul\":4911:4914   */\n      dup5\n        /* \"#utility.yul\":4907:4923   */\n      add\n        /* \"#utility.yul\":4900:4923   */\n      swap2\n      pop\n        /* \"#utility.yul\":4662:4929   */\n      pop\n      swap3\n      swap2\n      pop\n      pop\n      jump\t// out\n        /* \"#utility.yul\":4935:5317   */\n    tag_317:\n      0x00\n        /* \"#utility.yul\":5098:5165   */\n      tag_319\n        /* \"#utility.yul\":5162:5164   */\n      0x32\n        /* \"#utility.yul\":5157:5160   */\n      dup4\n        /* \"#utility.yul\":5098:5165   */\n      tag_308\n      jump\t// in\n    tag_319:\n        /* \"#utility.yul\":5091:5165   */\n      swap2\n      pop\n        /* \"#utility.yul\":5195:5229   */\n      0x4552433732313a207472616e7366657220746f206e6f6e204552433732315265\n        /* \"#utility.yul\":5191:5192   */\n      0x00\n        /* \"#utility.yul\":5186:5189   */\n      dup4\n        /* \"#utility.yul\":5182:5193   */\n      add\n        /* \"#utility.yul\":5175:5230   */\n      mstore\n        /* \"#utility.yul\":5261:5281   */\n      0x63656976657220696d706c656d656e7465720000000000000000000000000000\n        /* \"#utility.yul\":5256:5258   */\n      0x20\n        /* \"#utility.yul\":5251:5254   */\n      dup4\n        /* \"#utility.yul\":5247:5259   */\n      add\n        /* \"#utility.yul\":5240:5282   */\n      mstore\n        /* \"#utility.yul\":5308:5310   */\n      0x40\n        /* \"#utility.yul\":5303:5306   */\n      dup3\n        /* \"#utility.yul\":5299:5311   */\n      add\n        /* \"#utility.yul\":5292:5311   */\n      swap1\n      pop\n        /* \"#utility.yul\":5081:5317   */\n      swap2\n      swap1\n      pop\n      jump\t// out\n        /* \"#utility.yul\":5323:5693   */\n    tag_320:\n      0x00\n        /* \"#utility.yul\":5486:5553   */\n      tag_322\n        /* \"#utility.yul\":5550:5552   */\n      0x26\n        /* \"#utility.yul\":5545:5548   */\n      dup4\n        /* \"#utility.yul\":5486:5553   */\n      tag_308\n      jump\t// in\n    tag_322:\n        /* \"#utility.yul\":5479:5553   */\n      swap2\n      pop\n        /* \"#utility.yul\":5583:5617   */\n      0x4f776e61626c653a206e6577206f776e657220697320746865207a65726f2061\n        /* \"#utility.yul\":5579:5580   */\n      0x00\n        /* \"#utility.yul\":5574:5577   */\n      dup4\n        /* \"#utility.yul\":5570:5581   */\n      add\n        /* \"#utility.yul\":5563:5618   */\n      mstore\n        /* \"#utility.yul\":5649:5657   */\n      0x6464726573730000000000000000000000000000000000000000000000000000\n        /* \"#utility.yul\":5644:5646   */\n      0x20\n        /* \"#utility.yul\":5639:5642   */\n      dup4\n        /* \"#utility.yul\":5635:5647   */\n      add\n        /* \"#utility.yul\":5628:5658   */\n      mstore\n        /* \"#utility.yul\":5684:5686   */\n      0x40\n        /* \"#utility.yul\":5679:5682   */\n      dup3\n        /* \"#utility.yul\":5675:5687   */\n      add\n        /* \"#utility.yul\":5668:5687   */\n      swap1\n      pop\n        /* \"#utility.yul\":5469:5693   */\n      swap2\n      swap1\n      pop\n      jump\t// out\n        /* \"#utility.yul\":5699:6068   */\n    tag_323:\n      0x00\n        /* \"#utility.yul\":5862:5929   */\n      tag_325\n        /* \"#utility.yul\":5926:5928   */\n      0x25\n        /* \"#utility.yul\":5921:5924   */\n      dup4\n        /* \"#utility.yul\":5862:5929   */\n      tag_308\n      jump\t// in\n    tag_325:\n        /* \"#utility.yul\":5855:5929   */\n      swap2\n      pop\n        /* \"#utility.yul\":5959:5993   */\n      0x4552433732313a207472616e736665722066726f6d20696e636f727265637420\n        /* \"#utility.yul\":5955:5956   */\n      0x00\n        /* \"#utility.yul\":5950:5953   */\n      dup4\n        /* \"#utility.yul\":5946:5957   */\n      add\n        /* \"#utility.yul\":5939:5994   */\n      mstore\n        /* \"#utility.yul\":6025:6032   */\n      0x6f776e6572000000000000000000000000000000000000000000000000000000\n        /* \"#utility.yul\":6020:6022   */\n      0x20\n        /* \"#utility.yul\":6015:6018   */\n      dup4\n        /* \"#utility.yul\":6011:6023   */\n      add\n        /* \"#utility.yul\":6004:6033   */\n      mstore\n        /* \"#utility.yul\":6059:6061   */\n      0x40\n        /* \"#utility.yul\":6054:6057   */\n      dup3\n        /* \"#utility.yul\":6050:6062   */\n      add\n        /* \"#utility.yul\":6043:6062   */\n      swap1\n      pop\n        /* \"#utility.yul\":5845:6068   */\n      swap2\n      swap1\n      pop\n      jump\t// out\n        /* \"#utility.yul\":6074:6442   */\n    tag_326:\n      0x00\n        /* \"#utility.yul\":6237:6304   */\n      tag_328\n        /* \"#utility.yul\":6301:6303   */\n      0x24\n        /* \"#utility.yul\":6296:6299   */\n      dup4\n        /* \"#utility.yul\":6237:6304   */\n      tag_308\n      jump\t// in\n    tag_328:\n        /* \"#utility.yul\":6230:6304   */\n      swap2\n      pop\n        /* \"#utility.yul\":6334:6368   */\n      0x4552433732313a207472616e7366657220746f20746865207a65726f20616464\n        /* \"#utility.yul\":6330:6331   */\n      0x00\n        /* \"#utility.yul\":6325:6328   */\n      dup4\n        /* \"#utility.yul\":6321:6332   */\n      add\n        /* \"#utility.yul\":6314:6369   */\n      mstore\n        /* \"#utility.yul\":6400:6406   */\n      0x7265737300000000000000000000000000000000000000000000000000000000\n        /* \"#utility.yul\":6395:6397   */\n      0x20\n        /* \"#utility.yul\":6390:6393   */\n      dup4\n        /* \"#utility.yul\":6386:6398   */\n      add\n        /* \"#utility.yul\":6379:6407   */\n      mstore\n        /* \"#utility.yul\":6433:6435   */\n      0x40\n        /* \"#utility.yul\":6428:6431   */\n      dup3\n        /* \"#utility.yul\":6424:6436   */\n      add\n        /* \"#utility.yul\":6417:6436   */\n      swap1\n      pop\n        /* \"#utility.yul\":6220:6442   */\n      swap2\n      swap1\n      pop\n      jump\t// out\n        /* \"#utility.yul\":6448:6824   */\n    tag_329:\n      0x00\n        /* \"#utility.yul\":6611:6678   */\n      tag_331\n        /* \"#utility.yul\":6675:6677   */\n      0x2c\n        /* \"#utility.yul\":6670:6673   */\n      dup4\n        /* \"#utility.yul\":6611:6678   */\n      tag_308\n      jump\t// in\n    tag_331:\n        /* \"#utility.yul\":6604:6678   */\n      swap2\n      pop\n        /* \"#utility.yul\":6708:6742   */\n      0x4552433732313a206f70657261746f7220717565727920666f72206e6f6e6578\n        /* \"#utility.yul\":6704:6705   */\n      0x00\n        /* \"#utility.yul\":6699:6702   */\n      dup4\n        /* \"#utility.yul\":6695:6706   */\n      add\n        /* \"#utility.yul\":6688:6743   */\n      mstore\n        /* \"#utility.yul\":6774:6788   */\n      0x697374656e7420746f6b656e0000000000000000000000000000000000000000\n        /* \"#utility.yul\":6769:6771   */\n      0x20\n        /* \"#utility.yul\":6764:6767   */\n      dup4\n        /* \"#utility.yul\":6760:6772   */\n      add\n        /* \"#utility.yul\":6753:6789   */\n      mstore\n        /* \"#utility.yul\":6815:6817   */\n      0x40\n        /* \"#utility.yul\":6810:6813   */\n      dup3\n        /* \"#utility.yul\":6806:6818   */\n      add\n        /* \"#utility.yul\":6799:6818   */\n      swap1\n      pop\n        /* \"#utility.yul\":6594:6824   */\n      swap2\n      swap1\n      pop\n      jump\t// out\n        /* \"#utility.yul\":6830:7218   */\n    tag_332:\n      0x00\n        /* \"#utility.yul\":6993:7060   */\n      tag_334\n        /* \"#utility.yul\":7057:7059   */\n      0x38\n        /* \"#utility.yul\":7052:7055   */\n      dup4\n        /* \"#utility.yul\":6993:7060   */\n      tag_308\n      jump\t// in\n    tag_334:\n        /* \"#utility.yul\":6986:7060   */\n      swap2\n      pop\n        /* \"#utility.yul\":7090:7124   */\n      0x4552433732313a20617070726f76652063616c6c6572206973206e6f74206f77\n        /* \"#utility.yul\":7086:7087   */\n      0x00\n        /* \"#utility.yul\":7081:7084   */\n      dup4\n        /* \"#utility.yul\":7077:7088   */\n      add\n        /* \"#utility.yul\":7070:7125   */\n      mstore\n        /* \"#utility.yul\":7156:7182   */\n      0x6e6572206e6f7220617070726f76656420666f7220616c6c0000000000000000\n        /* \"#utility.yul\":7151:7153   */\n      0x20\n        /* \"#utility.yul\":7146:7149   */\n      dup4\n        /* \"#utility.yul\":7142:7154   */\n      add\n        /* \"#utility.yul\":7135:7183   */\n      mstore\n        /* \"#utility.yul\":7209:7211   */\n      0x40\n        /* \"#utility.yul\":7204:7207   */\n      dup3\n        /* \"#utility.yul\":7200:7212   */\n      add\n        /* \"#utility.yul\":7193:7212   */\n      swap1\n      pop\n        /* \"#utility.yul\":6976:7218   */\n      swap2\n      swap1\n      pop\n      jump\t// out\n        /* \"#utility.yul\":7224:7598   */\n    tag_335:\n      0x00\n        /* \"#utility.yul\":7387:7454   */\n      tag_337\n        /* \"#utility.yul\":7451:7453   */\n      0x2a\n        /* \"#utility.yul\":7446:7449   */\n      dup4\n        /* \"#utility.yul\":7387:7454   */\n      tag_308\n      jump\t// in\n    tag_337:\n        /* \"#utility.yul\":7380:7454   */\n      swap2\n      pop\n        /* \"#utility.yul\":7484:7518   */\n      0x4552433732313a2062616c616e636520717565727920666f7220746865207a65\n        /* \"#utility.yul\":7480:7481   */\n      0x00\n        /* \"#utility.yul\":7475:7478   */\n      dup4\n        /* \"#utility.yul\":7471:7482   */\n      add\n        /* \"#utility.yul\":7464:7519   */\n      mstore\n        /* \"#utility.yul\":7550:7562   */\n      0x726f206164647265737300000000000000000000000000000000000000000000\n        /* \"#utility.yul\":7545:7547   */\n      0x20\n        /* \"#utility.yul\":7540:7543   */\n      dup4\n        /* \"#utility.yul\":7536:7548   */\n      add\n        /* \"#utility.yul\":7529:7563   */\n      mstore\n        /* \"#utility.yul\":7589:7591   */\n      0x40\n        /* \"#utility.yul\":7584:7587   */\n      dup3\n        /* \"#utility.yul\":7580:7592   */\n      add\n        /* \"#utility.yul\":7573:7592   */\n      swap1\n      pop\n        /* \"#utility.yul\":7370:7598   */\n      swap2\n      swap1\n      pop\n      jump\t// out\n        /* \"#utility.yul\":7604:7977   */\n    tag_338:\n      0x00\n        /* \"#utility.yul\":7767:7834   */\n      tag_340\n        /* \"#utility.yul\":7831:7833   */\n      0x29\n        /* \"#utility.yul\":7826:7829   */\n      dup4\n        /* \"#utility.yul\":7767:7834   */\n      tag_308\n      jump\t// in\n    tag_340:\n        /* \"#utility.yul\":7760:7834   */\n      swap2\n      pop\n        /* \"#utility.yul\":7864:7898   */\n      0x4552433732313a206f776e657220717565727920666f72206e6f6e6578697374\n        /* \"#utility.yul\":7860:7861   */\n      0x00\n        /* \"#utility.yul\":7855:7858   */\n      dup4\n        /* \"#utility.yul\":7851:7862   */\n      add\n        /* \"#utility.yul\":7844:7899   */\n      mstore\n        /* \"#utility.yul\":7930:7941   */\n      0x656e7420746f6b656e0000000000000000000000000000000000000000000000\n        /* \"#utility.yul\":7925:7927   */\n      0x20\n        /* \"#utility.yul\":7920:7923   */\n      dup4\n        /* \"#utility.yul\":7916:7928   */\n      add\n        /* \"#utility.yul\":7909:7942   */\n      mstore\n        /* \"#utility.yul\":7968:7970   */\n      0x40\n        /* \"#utility.yul\":7963:7966   */\n      dup3\n        /* \"#utility.yul\":7959:7971   */\n      add\n        /* \"#utility.yul\":7952:7971   */\n      swap1\n      pop\n        /* \"#utility.yul\":7750:7977   */\n      swap2\n      swap1\n      pop\n      jump\t// out\n        /* \"#utility.yul\":7983:8359   */\n    tag_341:\n      0x00\n        /* \"#utility.yul\":8146:8213   */\n      tag_343\n        /* \"#utility.yul\":8210:8212   */\n      0x2c\n        /* \"#utility.yul\":8205:8208   */\n      dup4\n        /* \"#utility.yul\":8146:8213   */\n      tag_308\n      jump\t// in\n    tag_343:\n        /* \"#utility.yul\":8139:8213   */\n      swap2\n      pop\n        /* \"#utility.yul\":8243:8277   */\n      0x4552433732313a20617070726f76656420717565727920666f72206e6f6e6578\n        /* \"#utility.yul\":8239:8240   */\n      0x00\n        /* \"#utility.yul\":8234:8237   */\n      dup4\n        /* \"#utility.yul\":8230:8241   */\n      add\n        /* \"#utility.yul\":8223:8278   */\n      mstore\n        /* \"#utility.yul\":8309:8323   */\n      0x697374656e7420746f6b656e0000000000000000000000000000000000000000\n        /* \"#utility.yul\":8304:8306   */\n      0x20\n        /* \"#utility.yul\":8299:8302   */\n      dup4\n        /* \"#utility.yul\":8295:8307   */\n      add\n        /* \"#utility.yul\":8288:8324   */\n      mstore\n        /* \"#utility.yul\":8350:8352   */\n      0x40\n        /* \"#utility.yul\":8345:8348   */\n      dup3\n        /* \"#utility.yul\":8341:8353   */\n      add\n        /* \"#utility.yul\":8334:8353   */\n      swap1\n      pop\n        /* \"#utility.yul\":8129:8359   */\n      swap2\n      swap1\n      pop\n      jump\t// out\n        /* \"#utility.yul\":8365:8695   */\n    tag_344:\n      0x00\n        /* \"#utility.yul\":8528:8595   */\n      tag_346\n        /* \"#utility.yul\":8592:8594   */\n      0x20\n        /* \"#utility.yul\":8587:8590   */\n      dup4\n        /* \"#utility.yul\":8528:8595   */\n      tag_308\n      jump\t// in\n    tag_346:\n        /* \"#utility.yul\":8521:8595   */\n      swap2\n      pop\n        /* \"#utility.yul\":8625:8659   */\n      0x4f776e61626c653a2063616c6c6572206973206e6f7420746865206f776e6572\n        /* \"#utility.yul\":8621:8622   */\n      0x00\n        /* \"#utility.yul\":8616:8619   */\n      dup4\n        /* \"#utility.yul\":8612:8623   */\n      add\n        /* \"#utility.yul\":8605:8660   */\n      mstore\n        /* \"#utility.yul\":8686:8688   */\n      0x20\n        /* \"#utility.yul\":8681:8684   */\n      dup3\n        /* \"#utility.yul\":8677:8689   */\n      add\n        /* \"#utility.yul\":8670:8689   */\n      swap1\n      pop\n        /* \"#utility.yul\":8511:8695   */\n      swap2\n      swap1\n      pop\n      jump\t// out\n        /* \"#utility.yul\":8701:9080   */\n    tag_347:\n      0x00\n        /* \"#utility.yul\":8864:8931   */\n      tag_349\n        /* \"#utility.yul\":8928:8930   */\n      0x2f\n        /* \"#utility.yul\":8923:8926   */\n      dup4\n        /* \"#utility.yul\":8864:8931   */\n      tag_308\n      jump\t// in\n    tag_349:\n        /* \"#utility.yul\":8857:8931   */\n      swap2\n      pop\n        /* \"#utility.yul\":8961:8995   */\n      0x4552433732314d657461646174613a2055524920717565727920666f72206e6f\n        /* \"#utility.yul\":8957:8958   */\n      0x00\n        /* \"#utility.yul\":8952:8955   */\n      dup4\n        /* \"#utility.yul\":8948:8959   */\n      add\n        /* \"#utility.yul\":8941:8996   */\n      mstore\n        /* \"#utility.yul\":9027:9044   */\n      0x6e6578697374656e7420746f6b656e0000000000000000000000000000000000\n        /* \"#utility.yul\":9022:9024   */\n      0x20\n        /* \"#utility.yul\":9017:9020   */\n      dup4\n        /* \"#utility.yul\":9013:9025   */\n      add\n        /* \"#utility.yul\":9006:9045   */\n      mstore\n        /* \"#utility.yul\":9071:9073   */\n      0x40\n        /* \"#utility.yul\":9066:9069   */\n      dup3\n        /* \"#utility.yul\":9062:9074   */\n      add\n        /* \"#utility.yul\":9055:9074   */\n      swap1\n      pop\n        /* \"#utility.yul\":8847:9080   */\n      swap2\n      swap1\n      pop\n      jump\t// out\n        /* \"#utility.yul\":9086:9451   */\n    tag_350:\n      0x00\n        /* \"#utility.yul\":9249:9316   */\n      tag_352\n        /* \"#utility.yul\":9313:9315   */\n      0x21\n        /* \"#utility.yul\":9308:9311   */\n      dup4\n        /* \"#utility.yul\":9249:9316   */\n      tag_308\n      jump\t// in\n    tag_352:\n        /* \"#utility.yul\":9242:9316   */\n      swap2\n      pop\n        /* \"#utility.yul\":9346:9380   */\n      0x4552433732313a20617070726f76616c20746f2063757272656e74206f776e65\n        /* \"#utility.yul\":9342:9343   */\n      0x00\n        /* \"#utility.yul\":9337:9340   */\n      dup4\n        /* \"#utility.yul\":9333:9344   */\n      add\n        /* \"#utility.yul\":9326:9381   */\n      mstore\n        /* \"#utility.yul\":9412:9415   */\n      0x7200000000000000000000000000000000000000000000000000000000000000\n        /* \"#utility.yul\":9407:9409   */\n      0x20\n        /* \"#utility.yul\":9402:9405   */\n      dup4\n        /* \"#utility.yul\":9398:9410   */\n      add\n        /* \"#utility.yul\":9391:9416   */\n      mstore\n        /* \"#utility.yul\":9442:9444   */\n      0x40\n        /* \"#utility.yul\":9437:9440   */\n      dup3\n        /* \"#utility.yul\":9433:9445   */\n      add\n        /* \"#utility.yul\":9426:9445   */\n      swap1\n      pop\n        /* \"#utility.yul\":9232:9451   */\n      swap2\n      swap1\n      pop\n      jump\t// out\n        /* \"#utility.yul\":9457:9838   */\n    tag_353:\n      0x00\n        /* \"#utility.yul\":9620:9687   */\n      tag_355\n        /* \"#utility.yul\":9684:9686   */\n      0x31\n        /* \"#utility.yul\":9679:9682   */\n      dup4\n        /* \"#utility.yul\":9620:9687   */\n      tag_308\n      jump\t// in\n    tag_355:\n        /* \"#utility.yul\":9613:9687   */\n      swap2\n      pop\n        /* \"#utility.yul\":9717:9751   */\n      0x4552433732313a207472616e736665722063616c6c6572206973206e6f74206f\n        /* \"#utility.yul\":9713:9714   */\n      0x00\n        /* \"#utility.yul\":9708:9711   */\n      dup4\n        /* \"#utility.yul\":9704:9715   */\n      add\n        /* \"#utility.yul\":9697:9752   */\n      mstore\n        /* \"#utility.yul\":9783:9802   */\n      0x776e6572206e6f7220617070726f766564000000000000000000000000000000\n        /* \"#utility.yul\":9778:9780   */\n      0x20\n        /* \"#utility.yul\":9773:9776   */\n      dup4\n        /* \"#utility.yul\":9769:9781   */\n      add\n        /* \"#utility.yul\":9762:9803   */\n      mstore\n        /* \"#utility.yul\":9829:9831   */\n      0x40\n        /* \"#utility.yul\":9824:9827   */\n      dup3\n        /* \"#utility.yul\":9820:9832   */\n      add\n        /* \"#utility.yul\":9813:9832   */\n      swap1\n      pop\n        /* \"#utility.yul\":9603:9838   */\n      swap2\n      swap1\n      pop\n      jump\t// out\n        /* \"#utility.yul\":9844:9962   */\n    tag_356:\n        /* \"#utility.yul\":9931:9955   */\n      tag_358\n        /* \"#utility.yul\":9949:9954   */\n      dup2\n        /* \"#utility.yul\":9931:9955   */\n      tag_359\n      jump\t// in\n    tag_358:\n        /* \"#utility.yul\":9926:9929   */\n      dup3\n        /* \"#utility.yul\":9919:9956   */\n      mstore\n        /* \"#utility.yul\":9909:9962   */\n      pop\n      pop\n      jump\t// out\n        /* \"#utility.yul\":9968:10403   */\n    tag_147:\n      0x00\n        /* \"#utility.yul\":10170:10265   */\n      tag_361\n        /* \"#utility.yul\":10261:10264   */\n      dup3\n        /* \"#utility.yul\":10252:10258   */\n      dup6\n        /* \"#utility.yul\":10170:10265   */\n      tag_311\n      jump\t// in\n    tag_361:\n        /* \"#utility.yul\":10163:10265   */\n      swap2\n      pop\n        /* \"#utility.yul\":10282:10377   */\n      tag_362\n        /* \"#utility.yul\":10373:10376   */\n      dup3\n        /* \"#utility.yul\":10364:10370   */\n      dup5\n        /* \"#utility.yul\":10282:10377   */\n      tag_311\n      jump\t// in\n    tag_362:\n        /* \"#utility.yul\":10275:10377   */\n      swap2\n      pop\n        /* \"#utility.yul\":10394:10397   */\n      dup2\n        /* \"#utility.yul\":10387:10397   */\n      swap1\n      pop\n        /* \"#utility.yul\":10152:10403   */\n      swap4\n      swap3\n      pop\n      pop\n      pop\n      jump\t// out\n        /* \"#utility.yul\":10409:10631   */\n    tag_27:\n      0x00\n        /* \"#utility.yul\":10540:10542   */\n      0x20\n        /* \"#utility.yul\":10529:10538   */\n      dup3\n        /* \"#utility.yul\":10525:10543   */\n      add\n        /* \"#utility.yul\":10517:10543   */\n      swap1\n      pop\n        /* \"#utility.yul\":10553:10624   */\n      tag_364\n        /* \"#utility.yul\":10621:10622   */\n      0x00\n        /* \"#utility.yul\":10610:10619   */\n      dup4\n        /* \"#utility.yul\":10606:10623   */\n      add\n        /* \"#utility.yul\":10597:10603   */\n      dup5\n        /* \"#utility.yul\":10553:10624   */\n      tag_289\n      jump\t// in\n    tag_364:\n        /* \"#utility.yul\":10507:10631   */\n      swap3\n      swap2\n      pop\n      pop\n      jump\t// out\n        /* \"#utility.yul\":10637:11277   */\n    tag_222:\n      0x00\n        /* \"#utility.yul\":10870:10873   */\n      0x80\n        /* \"#utility.yul\":10859:10868   */\n      dup3\n        /* \"#utility.yul\":10855:10874   */\n      add\n        /* \"#utility.yul\":10847:10874   */\n      swap1\n      pop\n        /* \"#utility.yul\":10884:10955   */\n      tag_366\n        /* \"#utility.yul\":10952:10953   */\n      0x00\n        /* \"#utility.yul\":10941:10950   */\n      dup4\n        /* \"#utility.yul\":10937:10954   */\n      add\n        /* \"#utility.yul\":10928:10934   */\n      dup8\n        /* \"#utility.yul\":10884:10955   */\n      tag_289\n      jump\t// in\n    tag_366:\n        /* \"#utility.yul\":10965:11037   */\n      tag_367\n        /* \"#utility.yul\":11033:11035   */\n      0x20\n        /* \"#utility.yul\":11022:11031   */\n      dup4\n        /* \"#utility.yul\":11018:11036   */\n      add\n        /* \"#utility.yul\":11009:11015   */\n      dup7\n        /* \"#utility.yul\":10965:11037   */\n      tag_289\n      jump\t// in\n    tag_367:\n        /* \"#utility.yul\":11047:11119   */\n      tag_368\n        /* \"#utility.yul\":11115:11117   */\n      0x40\n        /* \"#utility.yul\":11104:11113   */\n      dup4\n        /* \"#utility.yul\":11100:11118   */\n      add\n        /* \"#utility.yul\":11091:11097   */\n      dup6\n        /* \"#utility.yul\":11047:11119   */\n      tag_356\n      jump\t// in\n    tag_368:\n        /* \"#utility.yul\":11166:11175   */\n      dup2\n        /* \"#utility.yul\":11160:11164   */\n      dup2\n        /* \"#utility.yul\":11156:11176   */\n      sub\n        /* \"#utility.yul\":11151:11153   */\n      0x60\n        /* \"#utility.yul\":11140:11149   */\n      dup4\n        /* \"#utility.yul\":11136:11154   */\n      add\n        /* \"#utility.yul\":11129:11177   */\n      mstore\n        /* \"#utility.yul\":11194:11270   */\n      tag_369\n        /* \"#utility.yul\":11265:11269   */\n      dup2\n        /* \"#utility.yul\":11256:11262   */\n      dup5\n        /* \"#utility.yul\":11194:11270   */\n      tag_293\n      jump\t// in\n    tag_369:\n        /* \"#utility.yul\":11186:11270   */\n      swap1\n      pop\n        /* \"#utility.yul\":10837:11277   */\n      swap6\n      swap5\n      pop\n      pop\n      pop\n      pop\n      pop\n      jump\t// out\n        /* \"#utility.yul\":11283:11596   */\n    tag_21:\n      0x00\n        /* \"#utility.yul\":11434:11436   */\n      0x20\n        /* \"#utility.yul\":11423:11432   */\n      dup3\n        /* \"#utility.yul\":11419:11437   */\n      add\n        /* \"#utility.yul\":11411:11437   */\n      swap1\n      pop\n        /* \"#utility.yul\":11483:11492   */\n      dup2\n        /* \"#utility.yul\":11477:11481   */\n      dup2\n        /* \"#utility.yul\":11473:11493   */\n      sub\n        /* \"#utility.yul\":11469:11470   */\n      0x00\n        /* \"#utility.yul\":11458:11467   */\n      dup4\n        /* \"#utility.yul\":11454:11471   */\n      add\n        /* \"#utility.yul\":11447:11494   */\n      mstore\n        /* \"#utility.yul\":11511:11589   */\n      tag_371\n        /* \"#utility.yul\":11584:11588   */\n      dup2\n        /* \"#utility.yul\":11575:11581   */\n      dup5\n        /* \"#utility.yul\":11511:11589   */\n      tag_303\n      jump\t// in\n    tag_371:\n        /* \"#utility.yul\":11503:11589   */\n      swap1\n      pop\n        /* \"#utility.yul\":11401:11596   */\n      swap3\n      swap2\n      pop\n      pop\n      jump\t// out\n        /* \"#utility.yul\":11602:12021   */\n    tag_194:\n      0x00\n        /* \"#utility.yul\":11806:11808   */\n      0x20\n        /* \"#utility.yul\":11795:11804   */\n      dup3\n        /* \"#utility.yul\":11791:11809   */\n      add\n        /* \"#utility.yul\":11783:11809   */\n      swap1\n      pop\n        /* \"#utility.yul\":11855:11864   */\n      dup2\n        /* \"#utility.yul\":11849:11853   */\n      dup2\n        /* \"#utility.yul\":11845:11865   */\n      sub\n        /* \"#utility.yul\":11841:11842   */\n      0x00\n        /* \"#utility.yul\":11830:11839   */\n      dup4\n        /* \"#utility.yul\":11826:11843   */\n      add\n        /* \"#utility.yul\":11819:11866   */\n      mstore\n        /* \"#utility.yul\":11883:12014   */\n      tag_373\n        /* \"#utility.yul\":12009:12013   */\n      dup2\n        /* \"#utility.yul\":11883:12014   */\n      tag_317\n      jump\t// in\n    tag_373:\n        /* \"#utility.yul\":11875:12014   */\n      swap1\n      pop\n        /* \"#utility.yul\":11773:12021   */\n      swap2\n      swap1\n      pop\n      jump\t// out\n        /* \"#utility.yul\":12027:12446   */\n    tag_156:\n      0x00\n        /* \"#utility.yul\":12231:12233   */\n      0x20\n        /* \"#utility.yul\":12220:12229   */\n      dup3\n        /* \"#utility.yul\":12216:12234   */\n      add\n        /* \"#utility.yul\":12208:12234   */\n      swap1\n      pop\n        /* \"#utility.yul\":12280:12289   */\n      dup2\n        /* \"#utility.yul\":12274:12278   */\n      dup2\n        /* \"#utility.yul\":12270:12290   */\n      sub\n        /* \"#utility.yul\":12266:12267   */\n      0x00\n        /* \"#utility.yul\":12255:12264   */\n      dup4\n        /* \"#utility.yul\":12251:12268   */\n      add\n        /* \"#utility.yul\":12244:12291   */\n      mstore\n        /* \"#utility.yul\":12308:12439   */\n      tag_375\n        /* \"#utility.yul\":12434:12438   */\n      dup2\n        /* \"#utility.yul\":12308:12439   */\n      tag_320\n      jump\t// in\n    tag_375:\n        /* \"#utility.yul\":12300:12439   */\n      swap1\n      pop\n        /* \"#utility.yul\":12198:12446   */\n      swap2\n      swap1\n      pop\n      jump\t// out\n        /* \"#utility.yul\":12452:12871   */\n    tag_174:\n      0x00\n        /* \"#utility.yul\":12656:12658   */\n      0x20\n        /* \"#utility.yul\":12645:12654   */\n      dup3\n        /* \"#utility.yul\":12641:12659   */\n      add\n        /* \"#utility.yul\":12633:12659   */\n      swap1\n      pop\n        /* \"#utility.yul\":12705:12714   */\n      dup2\n        /* \"#utility.yul\":12699:12703   */\n      dup2\n        /* \"#utility.yul\":12695:12715   */\n      sub\n        /* \"#utility.yul\":12691:12692   */\n      0x00\n        /* \"#utility.yul\":12680:12689   */\n      dup4\n        /* \"#utility.yul\":12676:12693   */\n      add\n        /* \"#utility.yul\":12669:12716   */\n      mstore\n        /* \"#utility.yul\":12733:12864   */\n      tag_377\n        /* \"#utility.yul\":12859:12863   */\n      dup2\n        /* \"#utility.yul\":12733:12864   */\n      tag_323\n      jump\t// in\n    tag_377:\n        /* \"#utility.yul\":12725:12864   */\n      swap1\n      pop\n        /* \"#utility.yul\":12623:12871   */\n      swap2\n      swap1\n      pop\n      jump\t// out\n        /* \"#utility.yul\":12877:13296   */\n    tag_177:\n      0x00\n        /* \"#utility.yul\":13081:13083   */\n      0x20\n        /* \"#utility.yul\":13070:13079   */\n      dup3\n        /* \"#utility.yul\":13066:13084   */\n      add\n        /* \"#utility.yul\":13058:13084   */\n      swap1\n      pop\n        /* \"#utility.yul\":13130:13139   */\n      dup2\n        /* \"#utility.yul\":13124:13128   */\n      dup2\n        /* \"#utility.yul\":13120:13140   */\n      sub\n        /* \"#utility.yul\":13116:13117   */\n      0x00\n        /* \"#utility.yul\":13105:13114   */\n      dup4\n        /* \"#utility.yul\":13101:13118   */\n      add\n        /* \"#utility.yul\":13094:13141   */\n      mstore\n        /* \"#utility.yul\":13158:13289   */\n      tag_379\n        /* \"#utility.yul\":13284:13288   */\n      dup2\n        /* \"#utility.yul\":13158:13289   */\n      tag_326\n      jump\t// in\n    tag_379:\n        /* \"#utility.yul\":13150:13289   */\n      swap1\n      pop\n        /* \"#utility.yul\":13048:13296   */\n      swap2\n      swap1\n      pop\n      jump\t// out\n        /* \"#utility.yul\":13302:13721   */\n    tag_166:\n      0x00\n        /* \"#utility.yul\":13506:13508   */\n      0x20\n        /* \"#utility.yul\":13495:13504   */\n      dup3\n        /* \"#utility.yul\":13491:13509   */\n      add\n        /* \"#utility.yul\":13483:13509   */\n      swap1\n      pop\n        /* \"#utility.yul\":13555:13564   */\n      dup2\n        /* \"#utility.yul\":13549:13553   */\n      dup2\n        /* \"#utility.yul\":13545:13565   */\n      sub\n        /* \"#utility.yul\":13541:13542   */\n      0x00\n        /* \"#utility.yul\":13530:13539   */\n      dup4\n        /* \"#utility.yul\":13526:13543   */\n      add\n        /* \"#utility.yul\":13519:13566   */\n      mstore\n        /* \"#utility.yul\":13583:13714   */\n      tag_381\n        /* \"#utility.yul\":13709:13713   */\n      dup2\n        /* \"#utility.yul\":13583:13714   */\n      tag_329\n      jump\t// in\n    tag_381:\n        /* \"#utility.yul\":13575:13714   */\n      swap1\n      pop\n        /* \"#utility.yul\":13473:13721   */\n      swap2\n      swap1\n      pop\n      jump\t// out\n        /* \"#utility.yul\":13727:14146   */\n    tag_90:\n      0x00\n        /* \"#utility.yul\":13931:13933   */\n      0x20\n        /* \"#utility.yul\":13920:13929   */\n      dup3\n        /* \"#utility.yul\":13916:13934   */\n      add\n        /* \"#utility.yul\":13908:13934   */\n      swap1\n      pop\n        /* \"#utility.yul\":13980:13989   */\n      dup2\n        /* \"#utility.yul\":13974:13978   */\n      dup2\n        /* \"#utility.yul\":13970:13990   */\n      sub\n        /* \"#utility.yul\":13966:13967   */\n      0x00\n        /* \"#utility.yul\":13955:13964   */\n      dup4\n        /* \"#utility.yul\":13951:13968   */\n      add\n        /* \"#utility.yul\":13944:13991   */\n      mstore\n        /* \"#utility.yul\":14008:14139   */\n      tag_383\n        /* \"#utility.yul\":14134:14138   */\n      dup2\n        /* \"#utility.yul\":14008:14139   */\n      tag_332\n      jump\t// in\n    tag_383:\n        /* \"#utility.yul\":14000:14139   */\n      swap1\n      pop\n        /* \"#utility.yul\":13898:14146   */\n      swap2\n      swap1\n      pop\n      jump\t// out\n        /* \"#utility.yul\":14152:14571   */\n    tag_111:\n      0x00\n        /* \"#utility.yul\":14356:14358   */\n      0x20\n        /* \"#utility.yul\":14345:14354   */\n      dup3\n        /* \"#utility.yul\":14341:14359   */\n      add\n        /* \"#utility.yul\":14333:14359   */\n      swap1\n      pop\n        /* \"#utility.yul\":14405:14414   */\n      dup2\n        /* \"#utility.yul\":14399:14403   */\n      dup2\n        /* \"#utility.yul\":14395:14415   */\n      sub\n        /* \"#utility.yul\":14391:14392   */\n      0x00\n        /* \"#utility.yul\":14380:14389   */\n      dup4\n        /* \"#utility.yul\":14376:14393   */\n      add\n        /* \"#utility.yul\":14369:14416   */\n      mstore\n        /* \"#utility.yul\":14433:14564   */\n      tag_385\n        /* \"#utility.yul\":14559:14563   */\n      dup2\n        /* \"#utility.yul\":14433:14564   */\n      tag_335\n      jump\t// in\n    tag_385:\n        /* \"#utility.yul\":14425:14564   */\n      swap1\n      pop\n        /* \"#utility.yul\":14323:14571   */\n      swap2\n      swap1\n      pop\n      jump\t// out\n        /* \"#utility.yul\":14577:14996   */\n    tag_107:\n      0x00\n        /* \"#utility.yul\":14781:14783   */\n      0x20\n        /* \"#utility.yul\":14770:14779   */\n      dup3\n        /* \"#utility.yul\":14766:14784   */\n      add\n        /* \"#utility.yul\":14758:14784   */\n      swap1\n      pop\n        /* \"#utility.yul\":14830:14839   */\n      dup2\n        /* \"#utility.yul\":14824:14828   */\n      dup2\n        /* \"#utility.yul\":14820:14840   */\n      sub\n        /* \"#utility.yul\":14816:14817   */\n      0x00\n        /* \"#utility.yul\":14805:14814   */\n      dup4\n        /* \"#utility.yul\":14801:14818   */\n      add\n        /* \"#utility.yul\":14794:14841   */\n      mstore\n        /* \"#utility.yul\":14858:14989   */\n      tag_387\n        /* \"#utility.yul\":14984:14988   */\n      dup2\n        /* \"#utility.yul\":14858:14989   */\n      tag_338\n      jump\t// in\n    tag_387:\n        /* \"#utility.yul\":14850:14989   */\n      swap1\n      pop\n        /* \"#utility.yul\":14748:14996   */\n      swap2\n      swap1\n      pop\n      jump\t// out\n        /* \"#utility.yul\":15002:15421   */\n    tag_80:\n      0x00\n        /* \"#utility.yul\":15206:15208   */\n      0x20\n        /* \"#utility.yul\":15195:15204   */\n      dup3\n        /* \"#utility.yul\":15191:15209   */\n      add\n        /* \"#utility.yul\":15183:15209   */\n      swap1\n      pop\n        /* \"#utility.yul\":15255:15264   */\n      dup2\n        /* \"#utility.yul\":15249:15253   */\n      dup2\n        /* \"#utility.yul\":15245:15265   */\n      sub\n        /* \"#utility.yul\":15241:15242   */\n      0x00\n        /* \"#utility.yul\":15230:15239   */\n      dup4\n        /* \"#utility.yul\":15226:15243   */\n      add\n        /* \"#utility.yul\":15219:15266   */\n      mstore\n        /* \"#utility.yul\":15283:15414   */\n      tag_389\n        /* \"#utility.yul\":15409:15413   */\n      dup2\n        /* \"#utility.yul\":15283:15414   */\n      tag_341\n      jump\t// in\n    tag_389:\n        /* \"#utility.yul\":15275:15414   */\n      swap1\n      pop\n        /* \"#utility.yul\":15173:15421   */\n      swap2\n      swap1\n      pop\n      jump\t// out\n        /* \"#utility.yul\":15427:15846   */\n    tag_117:\n      0x00\n        /* \"#utility.yul\":15631:15633   */\n      0x20\n        /* \"#utility.yul\":15620:15629   */\n      dup3\n        /* \"#utility.yul\":15616:15634   */\n      add\n        /* \"#utility.yul\":15608:15634   */\n      swap1\n      pop\n        /* \"#utility.yul\":15680:15689   */\n      dup2\n        /* \"#utility.yul\":15674:15678   */\n      dup2\n        /* \"#utility.yul\":15670:15690   */\n      sub\n        /* \"#utility.yul\":15666:15667   */\n      0x00\n        /* \"#utility.yul\":15655:15664   */\n      dup4\n        /* \"#utility.yul\":15651:15668   */\n      add\n        /* \"#utility.yul\":15644:15691   */\n      mstore\n        /* \"#utility.yul\":15708:15839   */\n      tag_391\n        /* \"#utility.yul\":15834:15838   */\n      dup2\n        /* \"#utility.yul\":15708:15839   */\n      tag_344\n      jump\t// in\n    tag_391:\n        /* \"#utility.yul\":15700:15839   */\n      swap1\n      pop\n        /* \"#utility.yul\":15598:15846   */\n      swap2\n      swap1\n      pop\n      jump\t// out\n        /* \"#utility.yul\":15852:16271   */\n    tag_139:\n      0x00\n        /* \"#utility.yul\":16056:16058   */\n      0x20\n        /* \"#utility.yul\":16045:16054   */\n      dup3\n        /* \"#utility.yul\":16041:16059   */\n      add\n        /* \"#utility.yul\":16033:16059   */\n      swap1\n      pop\n        /* \"#utility.yul\":16105:16114   */\n      dup2\n        /* \"#utility.yul\":16099:16103   */\n      dup2\n        /* \"#utility.yul\":16095:16115   */\n      sub\n        /* \"#utility.yul\":16091:16092   */\n      0x00\n        /* \"#utility.yul\":16080:16089   */\n      dup4\n        /* \"#utility.yul\":16076:16093   */\n      add\n        /* \"#utility.yul\":16069:16116   */\n      mstore\n        /* \"#utility.yul\":16133:16264   */\n      tag_393\n        /* \"#utility.yul\":16259:16263   */\n      dup2\n        /* \"#utility.yul\":16133:16264   */\n      tag_347\n      jump\t// in\n    tag_393:\n        /* \"#utility.yul\":16125:16264   */\n      swap1\n      pop\n        /* \"#utility.yul\":16023:16271   */\n      swap2\n      swap1\n      pop\n      jump\t// out\n        /* \"#utility.yul\":16277:16696   */\n    tag_85:\n      0x00\n        /* \"#utility.yul\":16481:16483   */\n      0x20\n        /* \"#utility.yul\":16470:16479   */\n      dup3\n        /* \"#utility.yul\":16466:16484   */\n      add\n        /* \"#utility.yul\":16458:16484   */\n      swap1\n      pop\n        /* \"#utility.yul\":16530:16539   */\n      dup2\n        /* \"#utility.yul\":16524:16528   */\n      dup2\n        /* \"#utility.yul\":16520:16540   */\n      sub\n        /* \"#utility.yul\":16516:16517   */\n      0x00\n        /* \"#utility.yul\":16505:16514   */\n      dup4\n        /* \"#utility.yul\":16501:16518   */\n      add\n        /* \"#utility.yul\":16494:16541   */\n      mstore\n        /* \"#utility.yul\":16558:16689   */\n      tag_395\n        /* \"#utility.yul\":16684:16688   */\n      dup2\n        /* \"#utility.yul\":16558:16689   */\n      tag_350\n      jump\t// in\n    tag_395:\n        /* \"#utility.yul\":16550:16689   */\n      swap1\n      pop\n        /* \"#utility.yul\":16448:16696   */\n      swap2\n      swap1\n      pop\n      jump\t// out\n        /* \"#utility.yul\":16702:17121   */\n    tag_99:\n      0x00\n        /* \"#utility.yul\":16906:16908   */\n      0x20\n        /* \"#utility.yul\":16895:16904   */\n      dup3\n        /* \"#utility.yul\":16891:16909   */\n      add\n        /* \"#utility.yul\":16883:16909   */\n      swap1\n      pop\n        /* \"#utility.yul\":16955:16964   */\n      dup2\n        /* \"#utility.yul\":16949:16953   */\n      dup2\n        /* \"#utility.yul\":16945:16965   */\n      sub\n        /* \"#utility.yul\":16941:16942   */\n      0x00\n        /* \"#utility.yul\":16930:16939   */\n      dup4\n        /* \"#utility.yul\":16926:16943   */\n      add\n        /* \"#utility.yul\":16919:16966   */\n      mstore\n        /* \"#utility.yul\":16983:17114   */\n      tag_397\n        /* \"#utility.yul\":17109:17113   */\n      dup2\n        /* \"#utility.yul\":16983:17114   */\n      tag_353\n      jump\t// in\n    tag_397:\n        /* \"#utility.yul\":16975:17114   */\n      swap1\n      pop\n        /* \"#utility.yul\":16873:17121   */\n      swap2\n      swap1\n      pop\n      jump\t// out\n        /* \"#utility.yul\":17127:17349   */\n    tag_48:\n      0x00\n        /* \"#utility.yul\":17258:17260   */\n      0x20\n        /* \"#utility.yul\":17247:17256   */\n      dup3\n        /* \"#utility.yul\":17243:17261   */\n      add\n        /* \"#utility.yul\":17235:17261   */\n      swap1\n      pop\n        /* \"#utility.yul\":17271:17342   */\n      tag_399\n        /* \"#utility.yul\":17339:17340   */\n      0x00\n        /* \"#utility.yul\":17328:17337   */\n      dup4\n        /* \"#utility.yul\":17324:17341   */\n      add\n        /* \"#utility.yul\":17315:17321   */\n      dup5\n        /* \"#utility.yul\":17271:17342   */\n      tag_356\n      jump\t// in\n    tag_399:\n        /* \"#utility.yul\":17225:17349   */\n      swap3\n      swap2\n      pop\n      pop\n      jump\t// out\n        /* \"#utility.yul\":17355:17638   */\n    tag_244:\n      0x00\n        /* \"#utility.yul\":17421:17423   */\n      0x40\n        /* \"#utility.yul\":17415:17424   */\n      mload\n        /* \"#utility.yul\":17405:17424   */\n      swap1\n      pop\n        /* \"#utility.yul\":17463:17467   */\n      dup2\n        /* \"#utility.yul\":17455:17461   */\n      dup2\n        /* \"#utility.yul\":17451:17468   */\n      add\n        /* \"#utility.yul\":17570:17576   */\n      dup2\n        /* \"#utility.yul\":17558:17568   */\n      dup2\n        /* \"#utility.yul\":17555:17577   */\n      lt\n        /* \"#utility.yul\":17534:17552   */\n      0xffffffffffffffff\n        /* \"#utility.yul\":17522:17532   */\n      dup3\n        /* \"#utility.yul\":17519:17553   */\n      gt\n        /* \"#utility.yul\":17516:17578   */\n      or\n        /* \"#utility.yul\":17513:17515   */\n      iszero\n      tag_401\n      jumpi\n        /* \"#utility.yul\":17581:17599   */\n      tag_402\n      tag_403\n      jump\t// in\n    tag_402:\n        /* \"#utility.yul\":17513:17515   */\n    tag_401:\n        /* \"#utility.yul\":17621:17631   */\n      dup1\n        /* \"#utility.yul\":17617:17619   */\n      0x40\n        /* \"#utility.yul\":17610:17632   */\n      mstore\n        /* \"#utility.yul\":17395:17638   */\n      pop\n      swap2\n      swap1\n      pop\n      jump\t// out\n        /* \"#utility.yul\":17644:17975   */\n    tag_243:\n      0x00\n        /* \"#utility.yul\":17795:17813   */\n      0xffffffffffffffff\n        /* \"#utility.yul\":17787:17793   */\n      dup3\n        /* \"#utility.yul\":17784:17814   */\n      gt\n        /* \"#utility.yul\":17781:17783   */\n      iszero\n      tag_405\n      jumpi\n        /* \"#utility.yul\":17817:17835   */\n      tag_406\n      tag_403\n      jump\t// in\n    tag_406:\n        /* \"#utility.yul\":17781:17783   */\n    tag_405:\n        /* \"#utility.yul\":17902:17906   */\n      0x1f\n        /* \"#utility.yul\":17898:17907   */\n      not\n        /* \"#utility.yul\":17891:17895   */\n      0x1f\n        /* \"#utility.yul\":17883:17889   */\n      dup4\n        /* \"#utility.yul\":17879:17896   */\n      add\n        /* \"#utility.yul\":17875:17908   */\n      and\n        /* \"#utility.yul\":17867:17908   */\n      swap1\n      pop\n        /* \"#utility.yul\":17963:17967   */\n      0x20\n        /* \"#utility.yul\":17957:17961   */\n      dup2\n        /* \"#utility.yul\":17953:17968   */\n      add\n        /* \"#utility.yul\":17945:17968   */\n      swap1\n      pop\n        /* \"#utility.yul\":17710:17975   */\n      swap2\n      swap1\n      pop\n      jump\t// out\n        /* \"#utility.yul\":17981:18079   */\n    tag_296:\n      0x00\n        /* \"#utility.yul\":18066:18071   */\n      dup2\n        /* \"#utility.yul\":18060:18072   */\n      mload\n        /* \"#utility.yul\":18050:18072   */\n      swap1\n      pop\n        /* \"#utility.yul\":18039:18079   */\n      swap2\n      swap1\n      pop\n      jump\t// out\n        /* \"#utility.yul\":18085:18184   */\n    tag_306:\n      0x00\n        /* \"#utility.yul\":18171:18176   */\n      dup2\n        /* \"#utility.yul\":18165:18177   */\n      mload\n        /* \"#utility.yul\":18155:18177   */\n      swap1\n      pop\n        /* \"#utility.yul\":18144:18184   */\n      swap2\n      swap1\n      pop\n      jump\t// out\n        /* \"#utility.yul\":18190:18358   */\n    tag_298:\n      0x00\n        /* \"#utility.yul\":18307:18313   */\n      dup3\n        /* \"#utility.yul\":18302:18305   */\n      dup3\n        /* \"#utility.yul\":18295:18314   */\n      mstore\n        /* \"#utility.yul\":18347:18351   */\n      0x20\n        /* \"#utility.yul\":18342:18345   */\n      dup3\n        /* \"#utility.yul\":18338:18352   */\n      add\n        /* \"#utility.yul\":18323:18352   */\n      swap1\n      pop\n        /* \"#utility.yul\":18285:18358   */\n      swap3\n      swap2\n      pop\n      pop\n      jump\t// out\n        /* \"#utility.yul\":18364:18533   */\n    tag_308:\n      0x00\n        /* \"#utility.yul\":18482:18488   */\n      dup3\n        /* \"#utility.yul\":18477:18480   */\n      dup3\n        /* \"#utility.yul\":18470:18489   */\n      mstore\n        /* \"#utility.yul\":18522:18526   */\n      0x20\n        /* \"#utility.yul\":18517:18520   */\n      dup3\n        /* \"#utility.yul\":18513:18527   */\n      add\n        /* \"#utility.yul\":18498:18527   */\n      swap1\n      pop\n        /* \"#utility.yul\":18460:18533   */\n      swap3\n      swap2\n      pop\n      pop\n      jump\t// out\n        /* \"#utility.yul\":18539:18687   */\n    tag_315:\n      0x00\n        /* \"#utility.yul\":18678:18681   */\n      dup2\n        /* \"#utility.yul\":18663:18681   */\n      swap1\n      pop\n        /* \"#utility.yul\":18653:18687   */\n      swap3\n      swap2\n      pop\n      pop\n      jump\t// out\n        /* \"#utility.yul\":18693:18998   */\n    tag_184:\n      0x00\n        /* \"#utility.yul\":18752:18772   */\n      tag_413\n        /* \"#utility.yul\":18770:18771   */\n      dup3\n        /* \"#utility.yul\":18752:18772   */\n      tag_359\n      jump\t// in\n    tag_413:\n        /* \"#utility.yul\":18747:18772   */\n      swap2\n      pop\n        /* \"#utility.yul\":18786:18806   */\n      tag_414\n        /* \"#utility.yul\":18804:18805   */\n      dup4\n        /* \"#utility.yul\":18786:18806   */\n      tag_359\n      jump\t// in\n    tag_414:\n        /* \"#utility.yul\":18781:18806   */\n      swap3\n      pop\n        /* \"#utility.yul\":18940:18941   */\n      dup3\n        /* \"#utility.yul\":18872:18938   */\n      0xffffffffffffffffffffffffffffffffffffffffffffffffffffffffffffffff\n        /* \"#utility.yul\":18868:18942   */\n      sub\n        /* \"#utility.yul\":18865:18866   */\n      dup3\n        /* \"#utility.yul\":18862:18943   */\n      gt\n        /* \"#utility.yul\":18859:18861   */\n      iszero\n      tag_415\n      jumpi\n        /* \"#utility.yul\":18946:18964   */\n      tag_416\n      tag_417\n      jump\t// in\n    tag_416:\n        /* \"#utility.yul\":18859:18861   */\n    tag_415:\n        /* \"#utility.yul\":18990:18991   */\n      dup3\n        /* \"#utility.yul\":18987:18988   */\n      dup3\n        /* \"#utility.yul\":18983:18992   */\n      add\n        /* \"#utility.yul\":18976:18992   */\n      swap1\n      pop\n        /* \"#utility.yul\":18737:18998   */\n      swap3\n      swap2\n      pop\n      pop\n      jump\t// out\n        /* \"#utility.yul\":19004:19189   */\n    tag_203:\n      0x00\n        /* \"#utility.yul\":19061:19081   */\n      tag_419\n        /* \"#utility.yul\":19079:19080   */\n      dup3\n        /* \"#utility.yul\":19061:19081   */\n      tag_359\n      jump\t// in\n    tag_419:\n        /* \"#utility.yul\":19056:19081   */\n      swap2\n      pop\n        /* \"#utility.yul\":19095:19115   */\n      tag_420\n        /* \"#utility.yul\":19113:19114   */\n      dup4\n        /* \"#utility.yul\":19095:19115   */\n      tag_359\n      jump\t// in\n    tag_420:\n        /* \"#utility.yul\":19090:19115   */\n      swap3\n      pop\n        /* \"#utility.yul\":19134:19135   */\n      dup3\n        /* \"#utility.yul\":19124:19126   */\n      tag_421\n      jumpi\n        /* \"#utility.yul\":19139:19157   */\n      tag_422\n      tag_423\n      jump\t// in\n    tag_422:\n        /* \"#utility.yul\":19124:19126   */\n    tag_421:\n        /* \"#utility.yul\":19181:19182   */\n      dup3\n        /* \"#utility.yul\":19178:19179   */\n      dup3\n        /* \"#utility.yul\":19174:19183   */\n      div\n        /* \"#utility.yul\":19169:19183   */\n      swap1\n      pop\n        /* \"#utility.yul\":19046:19189   */\n      swap3\n      swap2\n      pop\n      pop\n      jump\t// out\n        /* \"#utility.yul\":19195:19386   */\n    tag_182:\n      0x00\n        /* \"#utility.yul\":19255:19275   */\n      tag_425\n        /* \"#utility.yul\":19273:19274   */\n      dup3\n        /* \"#utility.yul\":19255:19275   */\n      tag_359\n      jump\t// in\n    tag_425:\n        /* \"#utility.yul\":19250:19275   */\n      swap2\n      pop\n        /* \"#utility.yul\":19289:19309   */\n      tag_426\n        /* \"#utility.yul\":19307:19308   */\n      dup4\n        /* \"#utility.yul\":19289:19309   */\n      tag_359\n      jump\t// in\n    tag_426:\n        /* \"#utility.yul\":19284:19309   */\n      swap3\n      pop\n        /* \"#utility.yul\":19328:19329   */\n      dup3\n        /* \"#utility.yul\":19325:19326   */\n      dup3\n        /* \"#utility.yul\":19322:19330   */\n      lt\n        /* \"#utility.yul\":19319:19321   */\n      iszero\n      tag_427\n      jumpi\n        /* \"#utility.yul\":19333:19351   */\n      tag_428\n      tag_417\n      jump\t// in\n    tag_428:\n        /* \"#utility.yul\":19319:19321   */\n    tag_427:\n        /* \"#utility.yul\":19378:19379   */\n      dup3\n        /* \"#utility.yul\":19375:19376   */\n      dup3\n        /* \"#utility.yul\":19371:19380   */\n      sub\n        /* \"#utility.yul\":19363:19380   */\n      swap1\n      pop\n        /* \"#utility.yul\":19240:19386   */\n      swap3\n      swap2\n      pop\n      pop\n      jump\t// out\n        /* \"#utility.yul\":19392:19488   */\n    tag_292:\n      0x00\n        /* \"#utility.yul\":19458:19482   */\n      tag_430\n        /* \"#utility.yul\":19476:19481   */\n      dup3\n        /* \"#utility.yul\":19458:19482   */\n      tag_431\n      jump\t// in\n    tag_430:\n        /* \"#utility.yul\":19447:19482   */\n      swap1\n      pop\n        /* \"#utility.yul\":19437:19488   */\n      swap2\n      swap1\n      pop\n      jump\t// out\n        /* \"#utility.yul\":19494:19643   */\n    tag_432:\n      0x00\n        /* \"#utility.yul\":19570:19636   */\n      0xffffffff00000000000000000000000000000000000000000000000000000000\n        /* \"#utility.yul\":19563:19568   */\n      dup3\n        /* \"#utility.yul\":19559:19637   */\n      and\n        /* \"#utility.yul\":19548:19637   */\n      swap1\n      pop\n        /* \"#utility.yul\":19538:19643   */\n      swap2\n      swap1\n      pop\n      jump\t// out\n        /* \"#utility.yul\":19649:19775   */\n    tag_431:\n      0x00\n        /* \"#utility.yul\":19726:19768   */\n      0xffffffffffffffffffffffffffffffffffffffff\n        /* \"#utility.yul\":19719:19724   */\n      dup3\n        /* \"#utility.yul\":19715:19769   */\n      and\n        /* \"#utility.yul\":19704:19769   */\n      swap1\n      pop\n        /* \"#utility.yul\":19694:19775   */\n      swap2\n      swap1\n      pop\n      jump\t// out\n        /* \"#utility.yul\":19781:19858   */\n    tag_359:\n      0x00\n        /* \"#utility.yul\":19847:19852   */\n      dup2\n        /* \"#utility.yul\":19836:19852   */\n      swap1\n      pop\n        /* \"#utility.yul\":19826:19858   */\n      swap2\n      swap1\n      pop\n      jump\t// out\n        /* \"#utility.yul\":19864:20018   */\n    tag_247:\n        /* \"#utility.yul\":19948:19954   */\n      dup3\n        /* \"#utility.yul\":19943:19946   */\n      dup2\n        /* \"#utility.yul\":19938:19941   */\n      dup4\n        /* \"#utility.yul\":19925:19955   */\n      calldatacopy\n        /* \"#utility.yul\":20010:20011   */\n      0x00\n        /* \"#utility.yul\":20001:20007   */\n      dup4\n        /* \"#utility.yul\":19996:19999   */\n      dup4\n        /* \"#utility.yul\":19992:20008   */\n      add\n        /* \"#utility.yul\":19985:20012   */\n      mstore\n        /* \"#utility.yul\":19915:20018   */\n      pop\n      pop\n      pop\n      jump\t// out\n        /* \"#utility.yul\":20024:20331   */\n    tag_300:\n        /* \"#utility.yul\":20092:20093   */\n      0x00\n        /* \"#utility.yul\":20102:20215   */\n    tag_438:\n        /* \"#utility.yul\":20116:20122   */\n      dup4\n        /* \"#utility.yul\":20113:20114   */\n      dup2\n        /* \"#utility.yul\":20110:20123   */\n      lt\n        /* \"#utility.yul\":20102:20215   */\n      iszero\n      tag_440\n      jumpi\n        /* \"#utility.yul\":20201:20202   */\n      dup1\n        /* \"#utility.yul\":20196:20199   */\n      dup3\n        /* \"#utility.yul\":20192:20203   */\n      add\n        /* \"#utility.yul\":20186:20204   */\n      mload\n        /* \"#utility.yul\":20182:20183   */\n      dup2\n        /* \"#utility.yul\":20177:20180   */\n      dup5\n        /* \"#utility.yul\":20173:20184   */\n      add\n        /* \"#utility.yul\":20166:20205   */\n      mstore\n        /* \"#utility.yul\":20138:20140   */\n      0x20\n        /* \"#utility.yul\":20135:20136   */\n      dup2\n        /* \"#utility.yul\":20131:20141   */\n      add\n        /* \"#utility.yul\":20126:20141   */\n      swap1\n      pop\n        /* \"#utility.yul\":20102:20215   */\n      jump(tag_438)\n    tag_440:\n        /* \"#utility.yul\":20233:20239   */\n      dup4\n        /* \"#utility.yul\":20230:20231   */\n      dup2\n        /* \"#utility.yul\":20227:20240   */\n      gt\n        /* \"#utility.yul\":20224:20226   */\n      iszero\n      tag_441\n      jumpi\n        /* \"#utility.yul\":20313:20314   */\n      0x00\n        /* \"#utility.yul\":20304:20310   */\n      dup5\n        /* \"#utility.yul\":20299:20302   */\n      dup5\n        /* \"#utility.yul\":20295:20311   */\n      add\n        /* \"#utility.yul\":20288:20315   */\n      mstore\n        /* \"#utility.yul\":20224:20226   */\n    tag_441:\n        /* \"#utility.yul\":20073:20331   */\n      pop\n      pop\n      pop\n      pop\n      jump\t// out\n        /* \"#utility.yul\":20337:20657   */\n    tag_70:\n      0x00\n        /* \"#utility.yul\":20418:20419   */\n      0x02\n        /* \"#utility.yul\":20412:20416   */\n      dup3\n        /* \"#utility.yul\":20408:20420   */\n      div\n        /* \"#utility.yul\":20398:20420   */\n      swap1\n      pop\n        /* \"#utility.yul\":20465:20466   */\n      0x01\n        /* \"#utility.yul\":20459:20463   */\n      dup3\n        /* \"#utility.yul\":20455:20467   */\n      and\n        /* \"#utility.yul\":20486:20504   */\n      dup1\n        /* \"#utility.yul\":20476:20478   */\n      tag_443\n      jumpi\n        /* \"#utility.yul\":20542:20546   */\n      0x7f\n        /* \"#utility.yul\":20534:20540   */\n      dup3\n        /* \"#utility.yul\":20530:20547   */\n      and\n        /* \"#utility.yul\":20520:20547   */\n      swap2\n      pop\n        /* \"#utility.yul\":20476:20478   */\n    tag_443:\n        /* \"#utility.yul\":20604:20606   */\n      0x20\n        /* \"#utility.yul\":20596:20602   */\n      dup3\n        /* \"#utility.yul\":20593:20607   */\n      lt\n        /* \"#utility.yul\":20573:20591   */\n      dup2\n        /* \"#utility.yul\":20570:20608   */\n      eq\n        /* \"#utility.yul\":20567:20569   */\n      iszero\n      tag_444\n      jumpi\n        /* \"#utility.yul\":20623:20641   */\n      tag_445\n      tag_446\n      jump\t// in\n    tag_445:\n        /* \"#utility.yul\":20567:20569   */\n    tag_444:\n        /* \"#utility.yul\":20388:20657   */\n      pop\n      swap2\n      swap1\n      pop\n      jump\t// out\n        /* \"#utility.yul\":20663:20896   */\n    tag_201:\n      0x00\n        /* \"#utility.yul\":20725:20749   */\n      tag_448\n        /* \"#utility.yul\":20743:20748   */\n      dup3\n        /* \"#utility.yul\":20725:20749   */\n      tag_359\n      jump\t// in\n    tag_448:\n        /* \"#utility.yul\":20716:20749   */\n      swap2\n      pop\n        /* \"#utility.yul\":20771:20837   */\n      0xffffffffffffffffffffffffffffffffffffffffffffffffffffffffffffffff\n        /* \"#utility.yul\":20764:20769   */\n      dup3\n        /* \"#utility.yul\":20761:20838   */\n      eq\n        /* \"#utility.yul\":20758:20760   */\n      iszero\n      tag_449\n      jumpi\n        /* \"#utility.yul\":20841:20859   */\n      tag_450\n      tag_417\n      jump\t// in\n    tag_450:\n        /* \"#utility.yul\":20758:20760   */\n    tag_449:\n        /* \"#utility.yul\":20888:20889   */\n      0x01\n        /* \"#utility.yul\":20881:20886   */\n      dup3\n        /* \"#utility.yul\":20877:20890   */\n      add\n        /* \"#utility.yul\":20870:20890   */\n      swap1\n      pop\n        /* \"#utility.yul\":20706:20896   */\n      swap2\n      swap1\n      pop\n      jump\t// out\n        /* \"#utility.yul\":20902:21078   */\n    tag_210:\n      0x00\n        /* \"#utility.yul\":20951:20971   */\n      tag_452\n        /* \"#utility.yul\":20969:20970   */\n      dup3\n        /* \"#utility.yul\":20951:20971   */\n      tag_359\n      jump\t// in\n    tag_452:\n        /* \"#utility.yul\":20946:20971   */\n      swap2\n      pop\n        /* \"#utility.yul\":20985:21005   */\n      tag_453\n        /* \"#utility.yul\":21003:21004   */\n      dup4\n        /* \"#utility.yul\":20985:21005   */\n      tag_359\n      jump\t// in\n    tag_453:\n        /* \"#utility.yul\":20980:21005   */\n      swap3\n      pop\n        /* \"#utility.yul\":21024:21025   */\n      dup3\n        /* \"#utility.yul\":21014:21016   */\n      tag_454\n      jumpi\n        /* \"#utility.yul\":21029:21047   */\n      tag_455\n      tag_423\n      jump\t// in\n    tag_455:\n        /* \"#utility.yul\":21014:21016   */\n    tag_454:\n        /* \"#utility.yul\":21070:21071   */\n      dup3\n        /* \"#utility.yul\":21067:21068   */\n      dup3\n        /* \"#utility.yul\":21063:21072   */\n      mod\n        /* \"#utility.yul\":21058:21072   */\n      swap1\n      pop\n        /* \"#utility.yul\":20936:21078   */\n      swap3\n      swap2\n      pop\n      pop\n      jump\t// out\n        /* \"#utility.yul\":21084:21264   */\n    tag_417:\n        /* \"#utility.yul\":21132:21209   */\n      0x4e487b7100000000000000000000000000000000000000000000000000000000\n        /* \"#utility.yul\":21129:21130   */\n      0x00\n        /* \"#utility.yul\":21122:21210   */\n      mstore\n        /* \"#utility.yul\":21229:21233   */\n      0x11\n        /* \"#utility.yul\":21226:21227   */\n      0x04\n        /* \"#utility.yul\":21219:21234   */\n      mstore\n        /* \"#utility.yul\":21253:21257   */\n      0x24\n        /* \"#utility.yul\":21250:21251   */\n      0x00\n        /* \"#utility.yul\":21243:21258   */\n      revert\n        /* \"#utility.yul\":21270:21450   */\n    tag_423:\n        /* \"#utility.yul\":21318:21395   */\n      0x4e487b7100000000000000000000000000000000000000000000000000000000\n        /* \"#utility.yul\":21315:21316   */\n      0x00\n        /* \"#utility.yul\":21308:21396   */\n      mstore\n        /* \"#utility.yul\":21415:21419   */\n      0x12\n        /* \"#utility.yul\":21412:21413   */\n      0x04\n        /* \"#utility.yul\":21405:21420   */\n      mstore\n        /* \"#utility.yul\":21439:21443   */\n      0x24\n        /* \"#utility.yul\":21436:21437   */\n      0x00\n        /* \"#utility.yul\":21429:21444   */\n      revert\n        /* \"#utility.yul\":21456:21636   */\n    tag_446:\n        /* \"#utility.yul\":21504:21581   */\n      0x4e487b7100000000000000000000000000000000000000000000000000000000\n        /* \"#utility.yul\":21501:21502   */\n      0x00\n        /* \"#utility.yul\":21494:21582   */\n      mstore\n        /* \"#utility.yul\":21601:21605   */\n      0x22\n        /* \"#utility.yul\":21598:21599   */\n      0x04\n        /* \"#utility.yul\":21591:21606   */\n      mstore\n        /* \"#utility.yul\":21625:21629   */\n      0x24\n        /* \"#utility.yul\":21622:21623   */\n      0x00\n        /* \"#utility.yul\":21615:21630   */\n      revert\n        /* \"#utility.yul\":21642:21822   */\n    tag_403:\n        /* \"#utility.yul\":21690:21767   */\n      0x4e487b7100000000000000000000000000000000000000000000000000000000\n        /* \"#utility.yul\":21687:21688   */\n      0x00\n        /* \"#utility.yul\":21680:21768   */\n      mstore\n        /* \"#utility.yul\":21787:21791   */\n      0x41\n        /* \"#utility.yul\":21784:21785   */\n      0x04\n        /* \"#utility.yul\":21777:21792   */\n      mstore\n        /* \"#utility.yul\":21811:21815   */\n      0x24\n        /* \"#utility.yul\":21808:21809   */\n      0x00\n        /* \"#utility.yul\":21801:21816   */\n      revert\n        /* \"#utility.yul\":21828:21930   */\n    tag_302:\n      0x00\n        /* \"#utility.yul\":21920:21922   */\n      0x1f\n        /* \"#utility.yul\":21916:21923   */\n      not\n        /* \"#utility.yul\":21911:21913   */\n      0x1f\n        /* \"#utility.yul\":21904:21909   */\n      dup4\n        /* \"#utility.yul\":21900:21914   */\n      add\n        /* \"#utility.yul\":21896:21924   */\n      and\n        /* \"#utility.yul\":21886:21924   */\n      swap1\n      pop\n        /* \"#utility.yul\":21876:21930   */\n      swap2\n      swap1\n      pop\n      jump\t// out\n        /* \"#utility.yul\":21936:22058   */\n    tag_251:\n        /* \"#utility.yul\":22009:22033   */\n      tag_462\n        /* \"#utility.yul\":22027:22032   */\n      dup2\n        /* \"#utility.yul\":22009:22033   */\n      tag_292\n      jump\t// in\n    tag_462:\n        /* \"#utility.yul\":22002:22007   */\n      dup2\n        /* \"#utility.yul\":21999:22034   */\n      eq\n        /* \"#utility.yul\":21989:21991   */\n      tag_463\n      jumpi\n        /* \"#utility.yul\":22048:22049   */\n      0x00\n        /* \"#utility.yul\":22045:22046   */\n      dup1\n        /* \"#utility.yul\":22038:22050   */\n      revert\n        /* \"#utility.yul\":21989:21991   */\n    tag_463:\n        /* \"#utility.yul\":21979:22058   */\n      pop\n      jump\t// out\n        /* \"#utility.yul\":22064:22184   */\n    tag_255:\n        /* \"#utility.yul\":22136:22159   */\n      tag_465\n        /* \"#utility.yul\":22153:22158   */\n      dup2\n        /* \"#utility.yul\":22136:22159   */\n      tag_432\n      jump\t// in\n    tag_465:\n        /* \"#utility.yul\":22129:22134   */\n      dup2\n        /* \"#utility.yul\":22126:22160   */\n      eq\n        /* \"#utility.yul\":22116:22118   */\n      tag_466\n      jumpi\n        /* \"#utility.yul\":22174:22175   */\n      0x00\n        /* \"#utility.yul\":22171:22172   */\n      dup1\n        /* \"#utility.yul\":22164:22176   */\n      revert\n        /* \"#utility.yul\":22116:22118   */\n    tag_466:\n        /* \"#utility.yul\":22106:22184   */\n      pop\n      jump\t// out\n        /* \"#utility.yul\":22190:22312   */\n    tag_263:\n        /* \"#utility.yul\":22263:22287   */\n      tag_468\n        /* \"#utility.yul\":22281:22286   */\n      dup2\n        /* \"#utility.yul\":22263:22287   */\n      tag_359\n      jump\t// in\n    tag_468:\n        /* \"#utility.yul\":22256:22261   */\n      dup2\n        /* \"#utility.yul\":22253:22288   */\n      eq\n        /* \"#utility.yul\":22243:22245   */\n      tag_469\n      jumpi\n        /* \"#utility.yul\":22302:22303   */\n      0x00\n        /* \"#utility.yul\":22299:22300   */\n      dup1\n        /* \"#utility.yul\":22292:22304   */\n      revert\n        /* \"#utility.yul\":22243:22245   */\n    tag_469:\n        /* \"#utility.yul\":22233:22312   */\n      pop\n      jump\t// out\n\n    auxdata: 0xa2646970667358221220c923aa4964731f39ddd60f6dbdd98bbeb0b35c4ca4505e5da9a6fd47f101708a64736f6c63430008000033\n}\n",
				"bytecode": {
					"linkReferences": {},
					"object": "60806040523480156200001157600080fd5b50604051620025753803806200257583398181016040528101906200003791906200027f565b620000576200004b6200009160201b60201c565b6200009960201b60201c565b81600790805190602001906200006f9291906200015d565b508060089080519060200190620000889291906200015d565b50505062000423565b600033905090565b60008060009054906101000a900473ffffffffffffffffffffffffffffffffffffffff169050816000806101000a81548173ffffffffffffffffffffffffffffffffffffffff021916908373ffffffffffffffffffffffffffffffffffffffff1602179055508173ffffffffffffffffffffffffffffffffffffffff168173ffffffffffffffffffffffffffffffffffffffff167f8be0079c531659141344cd1fd0a4f28419497f9722a3daafe3b4186f6b6457e060405160405180910390a35050565b8280546200016b906200038f565b90600052602060002090601f0160209004810192826200018f5760008555620001db565b82601f10620001aa57805160ff1916838001178555620001db565b82800160010185558215620001db579182015b82811115620001da578251825591602001919060010190620001bd565b5b509050620001ea9190620001ee565b5090565b5b8082111562000209576000816000905550600101620001ef565b5090565b6000620002246200021e8462000326565b620002f2565b9050828152602081018484840111156200023d57600080fd5b6200024a84828562000359565b509392505050565b600082601f8301126200026457600080fd5b8151620002768482602086016200020d565b91505092915050565b600080604083850312156200029357600080fd5b600083015167ffffffffffffffff811115620002ae57600080fd5b620002bc8582860162000252565b925050602083015167ffffffffffffffff811115620002da57600080fd5b620002e88582860162000252565b9150509250929050565b6000604051905081810181811067ffffffffffffffff821117156200031c576200031b620003f4565b5b8060405250919050565b600067ffffffffffffffff821115620003445762000343620003f4565b5b601f19601f8301169050602081019050919050565b60005b83811015620003795780820151818401526020810190506200035c565b8381111562000389576000848401525b50505050565b60006002820490506001821680620003a857607f821691505b60208210811415620003bf57620003be620003c5565b5b50919050565b7f4e487b7100000000000000000000000000000000000000000000000000000000600052602260045260246000fd5b7f4e487b7100000000000000000000000000000000000000000000000000000000600052604160045260246000fd5b61214280620004336000396000f3fe608060405234801561001057600080fd5b50600436106100cf5760003560e01c806370a082311161008c57806395d89b411161006657806395d89b41146101fe578063b88d4fde1461021c578063c87b56dd14610238578063f2fde38b14610268576100cf565b806370a08231146101a6578063715018a6146101d65780638da5cb5b146101e0576100cf565b806306fdde03146100d4578063081812fc146100f2578063095ea7b31461012257806323b872dd1461013e57806342842e0e1461015a5780636352211e14610176575b600080fd5b6100dc610284565b6040516100e99190611b68565b60405180910390f35b61010c600480360381019061010791906114eb565b610316565b6040516101199190611b01565b60405180910390f35b61013c60048036038101906101379190611486565b61039b565b005b610158600480360381019061015391906113bc565b61049b565b005b610174600480360381019061016f91906113bc565b6104fb565b005b610190600480360381019061018b91906114eb565b61051b565b60405161019d9190611b01565b60405180910390f35b6101c060048036038101906101bb9190611393565b6105cd565b6040516101cd9190611d2a565b60405180910390f35b6101de610685565b005b6101e861070d565b6040516101f59190611b01565b60405180910390f35b610206610736565b6040516102139190611b68565b60405180910390f35b6102366004803603810190610231919061140b565b6107c8565b005b610252600480360381019061024d91906114eb565b61082a565b60405161025f9190611b68565b60405180910390f35b610282600480360381019061027d9190611393565b6108d1565b005b60606007805461029390611f4e565b80601f01602080910402602001604051908101604052809291908181526020018280546102bf90611f4e565b801561030c5780601f106102e15761010080835404028352916020019161030c565b820191906000526020600020905b8154815290600101906020018083116102ef57829003601f168201915b5050505050905090565b6000610321826109c9565b610360576040517f08c379a000000000000000000000000000000000000000000000000000000000815260040161035790611c8a565b60405180910390fd5b6004600083815260200190815260200160002060009054906101000a900473ffffffffffffffffffffffffffffffffffffffff169050919050565b60006103a68261051b565b90508073ffffffffffffffffffffffffffffffffffffffff168373ffffffffffffffffffffffffffffffffffffffff161415610417576040517f08c379a000000000000000000000000000000000000000000000000000000000815260040161040e90611cea565b60405180910390fd5b8073ffffffffffffffffffffffffffffffffffffffff16610436610a35565b73ffffffffffffffffffffffffffffffffffffffff161461048c576040517f08c379a000000000000000000000000000000000000000000000000000000000815260040161048390611c2a565b60405180910390fd5b6104968383610a3d565b505050565b6104ac6104a6610a35565b82610af6565b6104eb576040517f08c379a00000000000000000000000000000000000000000000000000000000081526004016104e290611d0a565b60405180910390fd5b6104f6838383610bc3565b505050565b610516838383604051806020016040528060008152506107c8565b505050565b6000806002600084815260200190815260200160002060009054906101000a900473ffffffffffffffffffffffffffffffffffffffff169050600073ffffffffffffffffffffffffffffffffffffffff168173ffffffffffffffffffffffffffffffffffffffff1614156105c4576040517f08c379a00000000000000000000000000000000000000000000000000000000081526004016105bb90611c6a565b60405180910390fd5b80915050919050565b60008073ffffffffffffffffffffffffffffffffffffffff168273ffffffffffffffffffffffffffffffffffffffff16141561063e576040517f08c379a000000000000000000000000000000000000000000000000000000000815260040161063590611c4a565b60405180910390fd5b600160008373ffffffffffffffffffffffffffffffffffffffff1673ffffffffffffffffffffffffffffffffffffffff168152602001908152602001600020549050919050565b61068d610a35565b73ffffffffffffffffffffffffffffffffffffffff166106ab61070d565b73ffffffffffffffffffffffffffffffffffffffff1614610701576040517f08c379a00000000000000000000000000000000000000000000000000000000081526004016106f890611caa565b60405180910390fd5b61070b6000610e28565b565b60008060009054906101000a900473ffffffffffffffffffffffffffffffffffffffff16905090565b60606008805461074590611f4e565b80601f016020809104026020016040519081016040528092919081815260200182805461077190611f4e565b80156107be5780601f10610793576101008083540402835291602001916107be565b820191906000526020600020905b8154815290600101906020018083116107a157829003601f168201915b5050505050905090565b6107d96107d3610a35565b83610af6565b610818576040517f08c379a000000000000000000000000000000000000000000000000000000000815260040161080f90611d0a565b60405180910390fd5b61082484848484610eec565b50505050565b6060610835826109c9565b610874576040517f08c379a000000000000000000000000000000000000000000000000000000000815260040161086b90611cca565b60405180910390fd5b600061087e610f48565b9050600081511161089e57604051806020016040528060008152506108c9565b806108a884610f5f565b6040516020016108b9929190611add565b6040516020818303038152906040525b915050919050565b6108d9610a35565b73ffffffffffffffffffffffffffffffffffffffff166108f761070d565b73ffffffffffffffffffffffffffffffffffffffff161461094d576040517f08c379a000000000000000000000000000000000000000000000000000000000815260040161094490611caa565b60405180910390fd5b600073ffffffffffffffffffffffffffffffffffffffff168173ffffffffffffffffffffffffffffffffffffffff1614156109bd576040517f08c379a00000000000000000000000000000000000000000000000000000000081526004016109b490611baa565b60405180910390fd5b6109c681610e28565b50565b60008073ffffffffffffffffffffffffffffffffffffffff166002600084815260200190815260200160002060009054906101000a900473ffffffffffffffffffffffffffffffffffffffff1673ffffffffffffffffffffffffffffffffffffffff1614159050919050565b600033905090565b816004600083815260200190815260200160002060006101000a81548173ffffffffffffffffffffffffffffffffffffffff021916908373ffffffffffffffffffffffffffffffffffffffff160217905550808273ffffffffffffffffffffffffffffffffffffffff16610ab08361051b565b73ffffffffffffffffffffffffffffffffffffffff167f8c5be1e5ebec7d5bd14f71427d1e84f3dd0314c0f7b2291e5b200ac8c7c3b92560405160405180910390a45050565b6000610b01826109c9565b610b40576040517f08c379a0000000000000000000000000000000000000000000000000000000008152600401610b3790611c0a565b60405180910390fd5b6000610b4b8361051b565b90508073ffffffffffffffffffffffffffffffffffffffff168473ffffffffffffffffffffffffffffffffffffffff161480610bba57508373ffffffffffffffffffffffffffffffffffffffff16610ba284610316565b73ffffffffffffffffffffffffffffffffffffffff16145b91505092915050565b8273ffffffffffffffffffffffffffffffffffffffff16610be38261051b565b73ffffffffffffffffffffffffffffffffffffffff1614610c39576040517f08c379a0000000000000000000000000000000000000000000000000000000008152600401610c3090611bca565b60405180910390fd5b600073ffffffffffffffffffffffffffffffffffffffff168273ffffffffffffffffffffffffffffffffffffffff161415610ca9576040517f08c379a0000000000000000000000000000000000000000000000000000000008152600401610ca090611bea565b60405180910390fd5b610cb483838361110c565b610cbf600082610a3d565b60018060008573ffffffffffffffffffffffffffffffffffffffff1673ffffffffffffffffffffffffffffffffffffffff1681526020019081526020016000206000828254610d0e9190611e70565b9250508190555060018060008473ffffffffffffffffffffffffffffffffffffffff1673ffffffffffffffffffffffffffffffffffffffff1681526020019081526020016000206000828254610d649190611de9565b92505081905550816002600083815260200190815260200160002060006101000a81548173ffffffffffffffffffffffffffffffffffffffff021916908373ffffffffffffffffffffffffffffffffffffffff160217905550808273ffffffffffffffffffffffffffffffffffffffff168473ffffffffffffffffffffffffffffffffffffffff167fddf252ad1be2c89b69c2b068fc378daa952ba7f163c4a11628f55a4df523b3ef60405160405180910390a4610e23838383611111565b505050565b60008060009054906101000a900473ffffffffffffffffffffffffffffffffffffffff169050816000806101000a81548173ffffffffffffffffffffffffffffffffffffffff021916908373ffffffffffffffffffffffffffffffffffffffff1602179055508173ffffffffffffffffffffffffffffffffffffffff168173ffffffffffffffffffffffffffffffffffffffff167f8be0079c531659141344cd1fd0a4f28419497f9722a3daafe3b4186f6b6457e060405160405180910390a35050565b610ef7848484610bc3565b610f0384848484611116565b610f42576040517f08c379a0000000000000000000000000000000000000000000000000000000008152600401610f3990611b8a565b60405180910390fd5b50505050565b606060405180602001604052806000815250905090565b60606000821415610fa7576040518060400160405280600181526020017f30000000000000000000000000000000000000000000000000000000000000008152509050611107565b600082905060005b60008214610fd9578080610fc290611f80565b915050600a82610fd29190611e3f565b9150610faf565b60008167ffffffffffffffff81111561101b577f4e487b7100000000000000000000000000000000000000000000000000000000600052604160045260246000fd5b6040519080825280601f01601f19166020018201604052801561104d5781602001600182028036833780820191505090505b5090505b60008514611100576001826110669190611e70565b9150600a856110759190611fc9565b60306110819190611de9565b60f81b8183815181106110bd577f4e487b7100000000000000000000000000000000000000000000000000000000600052603260045260246000fd5b60200101907effffffffffffffffffffffffffffffffffffffffffffffffffffffffffffff1916908160001a905350600a856110f99190611e3f565b9450611051565b8093505050505b919050565b505050565b505050565b60006111378473ffffffffffffffffffffffffffffffffffffffff166112ad565b156112a0578373ffffffffffffffffffffffffffffffffffffffff1663150b7a02611160610a35565b8786866040518563ffffffff1660e01b81526004016111829493929190611b1c565b602060405180830381600087803b15801561119c57600080fd5b505af19250505080156111cd57506040513d601f19601f820116820180604052508101906111ca91906114c2565b60015b611250573d80600081146111fd576040519150601f19603f3d011682016040523d82523d6000602084013e611202565b606091505b50600081511415611248576040517f08c379a000000000000000000000000000000000000000000000000000000000815260040161123f90611b8a565b60405180910390fd5b805181602001fd5b63150b7a0260e01b7bffffffffffffffffffffffffffffffffffffffffffffffffffffffff1916817bffffffffffffffffffffffffffffffffffffffffffffffffffffffff1916149150506112a5565b600190505b949350505050565b6000808273ffffffffffffffffffffffffffffffffffffffff16803b806020016040519081016040528181526000908060200190933c51119050919050565b60006112ff6112fa84611d76565b611d45565b90508281526020810184848401111561131757600080fd5b611322848285611f0c565b509392505050565b600081359050611339816120c7565b92915050565b60008151905061134e816120de565b92915050565b600082601f83011261136557600080fd5b81356113758482602086016112ec565b91505092915050565b60008135905061138d816120f5565b92915050565b6000602082840312156113a557600080fd5b60006113b38482850161132a565b91505092915050565b6000806000606084860312156113d157600080fd5b60006113df8682870161132a565b93505060206113f08682870161132a565b92505060406114018682870161137e565b9150509250925092565b6000806000806080858703121561142157600080fd5b600061142f8782880161132a565b94505060206114408782880161132a565b93505060406114518782880161137e565b925050606085013567ffffffffffffffff81111561146e57600080fd5b61147a87828801611354565b91505092959194509250565b6000806040838503121561149957600080fd5b60006114a78582860161132a565b92505060206114b88582860161137e565b9150509250929050565b6000602082840312156114d457600080fd5b60006114e28482850161133f565b91505092915050565b6000602082840312156114fd57600080fd5b600061150b8482850161137e565b91505092915050565b61151d81611ea4565b82525050565b600061152e82611da6565b6115388185611dbc565b9350611548818560208601611f1b565b611551816120b6565b840191505092915050565b600061156782611db1565b6115718185611dcd565b9350611581818560208601611f1b565b61158a816120b6565b840191505092915050565b60006115a082611db1565b6115aa8185611dde565b93506115ba818560208601611f1b565b80840191505092915050565b60006115d3603283611dcd565b91507f4552433732313a207472616e7366657220746f206e6f6e20455243373231526560008301527f63656976657220696d706c656d656e74657200000000000000000000000000006020830152604082019050919050565b6000611639602683611dcd565b91507f4f776e61626c653a206e6577206f776e657220697320746865207a65726f206160008301527f64647265737300000000000000000000000000000000000000000000000000006020830152604082019050919050565b600061169f602583611dcd565b91507f4552433732313a207472616e736665722066726f6d20696e636f72726563742060008301527f6f776e65720000000000000000000000000000000000000000000000000000006020830152604082019050919050565b6000611705602483611dcd565b91507f4552433732313a207472616e7366657220746f20746865207a65726f2061646460008301527f72657373000000000000000000000000000000000000000000000000000000006020830152604082019050919050565b600061176b602c83611dcd565b91507f4552433732313a206f70657261746f7220717565727920666f72206e6f6e657860008301527f697374656e7420746f6b656e00000000000000000000000000000000000000006020830152604082019050919050565b60006117d1603883611dcd565b91507f4552433732313a20617070726f76652063616c6c6572206973206e6f74206f7760008301527f6e6572206e6f7220617070726f76656420666f7220616c6c00000000000000006020830152604082019050919050565b6000611837602a83611dcd565b91507f4552433732313a2062616c616e636520717565727920666f7220746865207a6560008301527f726f2061646472657373000000000000000000000000000000000000000000006020830152604082019050919050565b600061189d602983611dcd565b91507f4552433732313a206f776e657220717565727920666f72206e6f6e657869737460008301527f656e7420746f6b656e00000000000000000000000000000000000000000000006020830152604082019050919050565b6000611903602c83611dcd565b91507f4552433732313a20617070726f76656420717565727920666f72206e6f6e657860008301527f697374656e7420746f6b656e00000000000000000000000000000000000000006020830152604082019050919050565b6000611969602083611dcd565b91507f4f776e61626c653a2063616c6c6572206973206e6f7420746865206f776e65726000830152602082019050919050565b60006119a9602f83611dcd565b91507f4552433732314d657461646174613a2055524920717565727920666f72206e6f60008301527f6e6578697374656e7420746f6b656e00000000000000000000000000000000006020830152604082019050919050565b6000611a0f602183611dcd565b91507f4552433732313a20617070726f76616c20746f2063757272656e74206f776e6560008301527f72000000000000000000000000000000000000000000000000000000000000006020830152604082019050919050565b6000611a75603183611dcd565b91507f4552433732313a207472616e736665722063616c6c6572206973206e6f74206f60008301527f776e6572206e6f7220617070726f7665640000000000000000000000000000006020830152604082019050919050565b611ad781611f02565b82525050565b6000611ae98285611595565b9150611af58284611595565b91508190509392505050565b6000602082019050611b166000830184611514565b92915050565b6000608082019050611b316000830187611514565b611b3e6020830186611514565b611b4b6040830185611ace565b8181036060830152611b5d8184611523565b905095945050505050565b60006020820190508181036000830152611b82818461155c565b905092915050565b60006020820190508181036000830152611ba3816115c6565b9050919050565b60006020820190508181036000830152611bc38161162c565b9050919050565b60006020820190508181036000830152611be381611692565b9050919050565b60006020820190508181036000830152611c03816116f8565b9050919050565b60006020820190508181036000830152611c238161175e565b9050919050565b60006020820190508181036000830152611c43816117c4565b9050919050565b60006020820190508181036000830152611c638161182a565b9050919050565b60006020820190508181036000830152611c8381611890565b9050919050565b60006020820190508181036000830152611ca3816118f6565b9050919050565b60006020820190508181036000830152611cc38161195c565b9050919050565b60006020820190508181036000830152611ce38161199c565b9050919050565b60006020820190508181036000830152611d0381611a02565b9050919050565b60006020820190508181036000830152611d2381611a68565b9050919050565b6000602082019050611d3f6000830184611ace565b92915050565b6000604051905081810181811067ffffffffffffffff82111715611d6c57611d6b612087565b5b8060405250919050565b600067ffffffffffffffff821115611d9157611d90612087565b5b601f19601f8301169050602081019050919050565b600081519050919050565b600081519050919050565b600082825260208201905092915050565b600082825260208201905092915050565b600081905092915050565b6000611df482611f02565b9150611dff83611f02565b9250827fffffffffffffffffffffffffffffffffffffffffffffffffffffffffffffffff03821115611e3457611e33611ffa565b5b828201905092915050565b6000611e4a82611f02565b9150611e5583611f02565b925082611e6557611e64612029565b5b828204905092915050565b6000611e7b82611f02565b9150611e8683611f02565b925082821015611e9957611e98611ffa565b5b828203905092915050565b6000611eaf82611ee2565b9050919050565b60007fffffffff0000000000000000000000000000000000000000000000000000000082169050919050565b600073ffffffffffffffffffffffffffffffffffffffff82169050919050565b6000819050919050565b82818337600083830152505050565b60005b83811015611f39578082015181840152602081019050611f1e565b83811115611f48576000848401525b50505050565b60006002820490506001821680611f6657607f821691505b60208210811415611f7a57611f79612058565b5b50919050565b6000611f8b82611f02565b91507fffffffffffffffffffffffffffffffffffffffffffffffffffffffffffffffff821415611fbe57611fbd611ffa565b5b600182019050919050565b6000611fd482611f02565b9150611fdf83611f02565b925082611fef57611fee612029565b5b828206905092915050565b7f4e487b7100000000000000000000000000000000000000000000000000000000600052601160045260246000fd5b7f4e487b7100000000000000000000000000000000000000000000000000000000600052601260045260246000fd5b7f4e487b7100000000000000000000000000000000000000000000000000000000600052602260045260246000fd5b7f4e487b7100000000000000000000000000000000000000000000000000000000600052604160045260246000fd5b6000601f19601f8301169050919050565b6120d081611ea4565b81146120db57600080fd5b50565b6120e781611eb6565b81146120f257600080fd5b50565b6120fe81611f02565b811461210957600080fd5b5056fea2646970667358221220c923aa4964731f39ddd60f6dbdd98bbeb0b35c4ca4505e5da9a6fd47f101708a64736f6c63430008000033",
					"opcodes": "PUSH1 0x80 PUSH1 0x40 MSTORE CALLVALUE DUP1 ISZERO PUSH3 0x11 JUMPI PUSH1 0x0 DUP1 REVERT JUMPDEST POP PUSH1 0x40 MLOAD PUSH3 0x2575 CODESIZE SUB DUP1 PUSH3 0x2575 DUP4 CODECOPY DUP2 DUP2 ADD PUSH1 0x40 MSTORE DUP2 ADD SWAP1 PUSH3 0x37 SWAP2 SWAP1 PUSH3 0x27F JUMP JUMPDEST PUSH3 0x57 PUSH3 0x4B PUSH3 0x91 PUSH1 0x20 SHL PUSH1 0x20 SHR JUMP JUMPDEST PUSH3 0x99 PUSH1 0x20 SHL PUSH1 0x20 SHR JUMP JUMPDEST DUP2 PUSH1 0x7 SWAP1 DUP1 MLOAD SWAP1 PUSH1 0x20 ADD SWAP1 PUSH3 0x6F SWAP3 SWAP2 SWAP1 PUSH3 0x15D JUMP JUMPDEST POP DUP1 PUSH1 0x8 SWAP1 DUP1 MLOAD SWAP1 PUSH1 0x20 ADD SWAP1 PUSH3 0x88 SWAP3 SWAP2 SWAP1 PUSH3 0x15D JUMP JUMPDEST POP POP POP PUSH3 0x423 JUMP JUMPDEST PUSH1 0x0 CALLER SWAP1 POP SWAP1 JUMP JUMPDEST PUSH1 0x0 DUP1 PUSH1 0x0 SWAP1 SLOAD SWAP1 PUSH2 0x100 EXP SWAP1 DIV PUSH20 0xFFFFFFFFFFFFFFFFFFFFFFFFFFFFFFFFFFFFFFFF AND SWAP1 POP DUP2 PUSH1 0x0 DUP1 PUSH2 0x100 EXP DUP2 SLOAD DUP2 PUSH20 0xFFFFFFFFFFFFFFFFFFFFFFFFFFFFFFFFFFFFFFFF MUL NOT AND SWAP1 DUP4 PUSH20 0xFFFFFFFFFFFFFFFFFFFFFFFFFFFFFFFFFFFFFFFF AND MUL OR SWAP1 SSTORE POP DUP2 PUSH20 0xFFFFFFFFFFFFFFFFFFFFFFFFFFFFFFFFFFFFFFFF AND DUP2 PUSH20 0xFFFFFFFFFFFFFFFFFFFFFFFFFFFFFFFFFFFFFFFF AND PUSH32 0x8BE0079C531659141344CD1FD0A4F28419497F9722A3DAAFE3B4186F6B6457E0 PUSH1 0x40 MLOAD PUSH1 0x40 MLOAD DUP1 SWAP2 SUB SWAP1 LOG3 POP POP JUMP JUMPDEST DUP3 DUP1 SLOAD PUSH3 0x16B SWAP1 PUSH3 0x38F JUMP JUMPDEST SWAP1 PUSH1 0x0 MSTORE PUSH1 0x20 PUSH1 0x0 KECCAK256 SWAP1 PUSH1 0x1F ADD PUSH1 0x20 SWAP1 DIV DUP2 ADD SWAP3 DUP3 PUSH3 0x18F JUMPI PUSH1 0x0 DUP6 SSTORE PUSH3 0x1DB JUMP JUMPDEST DUP3 PUSH1 0x1F LT PUSH3 0x1AA JUMPI DUP1 MLOAD PUSH1 0xFF NOT AND DUP4 DUP1 ADD OR DUP6 SSTORE PUSH3 0x1DB JUMP JUMPDEST DUP3 DUP1 ADD PUSH1 0x1 ADD DUP6 SSTORE DUP3 ISZERO PUSH3 0x1DB JUMPI SWAP2 DUP3 ADD JUMPDEST DUP3 DUP2 GT ISZERO PUSH3 0x1DA JUMPI DUP3 MLOAD DUP3 SSTORE SWAP2 PUSH1 0x20 ADD SWAP2 SWAP1 PUSH1 0x1 ADD SWAP1 PUSH3 0x1BD JUMP JUMPDEST JUMPDEST POP SWAP1 POP PUSH3 0x1EA SWAP2 SWAP1 PUSH3 0x1EE JUMP JUMPDEST POP SWAP1 JUMP JUMPDEST JUMPDEST DUP1 DUP3 GT ISZERO PUSH3 0x209 JUMPI PUSH1 0x0 DUP2 PUSH1 0x0 SWAP1 SSTORE POP PUSH1 0x1 ADD PUSH3 0x1EF JUMP JUMPDEST POP SWAP1 JUMP JUMPDEST PUSH1 0x0 PUSH3 0x224 PUSH3 0x21E DUP5 PUSH3 0x326 JUMP JUMPDEST PUSH3 0x2F2 JUMP JUMPDEST SWAP1 POP DUP3 DUP2 MSTORE PUSH1 0x20 DUP2 ADD DUP5 DUP5 DUP5 ADD GT ISZERO PUSH3 0x23D JUMPI PUSH1 0x0 DUP1 REVERT JUMPDEST PUSH3 0x24A DUP5 DUP3 DUP6 PUSH3 0x359 JUMP JUMPDEST POP SWAP4 SWAP3 POP POP POP JUMP JUMPDEST PUSH1 0x0 DUP3 PUSH1 0x1F DUP4 ADD SLT PUSH3 0x264 JUMPI PUSH1 0x0 DUP1 REVERT JUMPDEST DUP2 MLOAD PUSH3 0x276 DUP5 DUP3 PUSH1 0x20 DUP7 ADD PUSH3 0x20D JUMP JUMPDEST SWAP2 POP POP SWAP3 SWAP2 POP POP JUMP JUMPDEST PUSH1 0x0 DUP1 PUSH1 0x40 DUP4 DUP6 SUB SLT ISZERO PUSH3 0x293 JUMPI PUSH1 0x0 DUP1 REVERT JUMPDEST PUSH1 0x0 DUP4 ADD MLOAD PUSH8 0xFFFFFFFFFFFFFFFF DUP2 GT ISZERO PUSH3 0x2AE JUMPI PUSH1 0x0 DUP1 REVERT JUMPDEST PUSH3 0x2BC DUP6 DUP3 DUP7 ADD PUSH3 0x252 JUMP JUMPDEST SWAP3 POP POP PUSH1 0x20 DUP4 ADD MLOAD PUSH8 0xFFFFFFFFFFFFFFFF DUP2 GT ISZERO PUSH3 0x2DA JUMPI PUSH1 0x0 DUP1 REVERT JUMPDEST PUSH3 0x2E8 DUP6 DUP3 DUP7 ADD PUSH3 0x252 JUMP JUMPDEST SWAP2 POP POP SWAP3 POP SWAP3 SWAP1 POP JUMP JUMPDEST PUSH1 0x0 PUSH1 0x40 MLOAD SWAP1 POP DUP2 DUP2 ADD DUP2 DUP2 LT PUSH8 0xFFFFFFFFFFFFFFFF DUP3 GT OR ISZERO PUSH3 0x31C JUMPI PUSH3 0x31B PUSH3 0x3F4 JUMP JUMPDEST JUMPDEST DUP1 PUSH1 0x40 MSTORE POP SWAP2 SWAP1 POP JUMP JUMPDEST PUSH1 0x0 PUSH8 0xFFFFFFFFFFFFFFFF DUP3 GT ISZERO PUSH3 0x344 JUMPI PUSH3 0x343 PUSH3 0x3F4 JUMP JUMPDEST JUMPDEST PUSH1 0x1F NOT PUSH1 0x1F DUP4 ADD AND SWAP1 POP PUSH1 0x20 DUP2 ADD SWAP1 POP SWAP2 SWAP1 POP JUMP JUMPDEST PUSH1 0x0 JUMPDEST DUP4 DUP2 LT ISZERO PUSH3 0x379 JUMPI DUP1 DUP3 ADD MLOAD DUP2 DUP5 ADD MSTORE PUSH1 0x20 DUP2 ADD SWAP1 POP PUSH3 0x35C JUMP JUMPDEST DUP4 DUP2 GT ISZERO PUSH3 0x389 JUMPI PUSH1 0x0 DUP5 DUP5 ADD MSTORE JUMPDEST POP POP POP POP JUMP JUMPDEST PUSH1 0x0 PUSH1 0x2 DUP3 DIV SWAP1 POP PUSH1 0x1 DUP3 AND DUP1 PUSH3 0x3A8 JUMPI PUSH1 0x7F DUP3 AND SWAP2 POP JUMPDEST PUSH1 0x20 DUP3 LT DUP2 EQ ISZERO PUSH3 0x3BF JUMPI PUSH3 0x3BE PUSH3 0x3C5 JUMP JUMPDEST JUMPDEST POP SWAP2 SWAP1 POP JUMP JUMPDEST PUSH32 0x4E487B7100000000000000000000000000000000000000000000000000000000 PUSH1 0x0 MSTORE PUSH1 0x22 PUSH1 0x4 MSTORE PUSH1 0x24 PUSH1 0x0 REVERT JUMPDEST PUSH32 0x4E487B7100000000000000000000000000000000000000000000000000000000 PUSH1 0x0 MSTORE PUSH1 0x41 PUSH1 0x4 MSTORE PUSH1 0x24 PUSH1 0x0 REVERT JUMPDEST PUSH2 0x2142 DUP1 PUSH3 0x433 PUSH1 0x0 CODECOPY PUSH1 0x0 RETURN INVALID PUSH1 0x80 PUSH1 0x40 MSTORE CALLVALUE DUP1 ISZERO PUSH2 0x10 JUMPI PUSH1 0x0 DUP1 REVERT JUMPDEST POP PUSH1 0x4 CALLDATASIZE LT PUSH2 0xCF JUMPI PUSH1 0x0 CALLDATALOAD PUSH1 0xE0 SHR DUP1 PUSH4 0x70A08231 GT PUSH2 0x8C JUMPI DUP1 PUSH4 0x95D89B41 GT PUSH2 0x66 JUMPI DUP1 PUSH4 0x95D89B41 EQ PUSH2 0x1FE JUMPI DUP1 PUSH4 0xB88D4FDE EQ PUSH2 0x21C JUMPI DUP1 PUSH4 0xC87B56DD EQ PUSH2 0x238 JUMPI DUP1 PUSH4 0xF2FDE38B EQ PUSH2 0x268 JUMPI PUSH2 0xCF JUMP JUMPDEST DUP1 PUSH4 0x70A08231 EQ PUSH2 0x1A6 JUMPI DUP1 PUSH4 0x715018A6 EQ PUSH2 0x1D6 JUMPI DUP1 PUSH4 0x8DA5CB5B EQ PUSH2 0x1E0 JUMPI PUSH2 0xCF JUMP JUMPDEST DUP1 PUSH4 0x6FDDE03 EQ PUSH2 0xD4 JUMPI DUP1 PUSH4 0x81812FC EQ PUSH2 0xF2 JUMPI DUP1 PUSH4 0x95EA7B3 EQ PUSH2 0x122 JUMPI DUP1 PUSH4 0x23B872DD EQ PUSH2 0x13E JUMPI DUP1 PUSH4 0x42842E0E EQ PUSH2 0x15A JUMPI DUP1 PUSH4 0x6352211E EQ PUSH2 0x176 JUMPI JUMPDEST PUSH1 0x0 DUP1 REVERT JUMPDEST PUSH2 0xDC PUSH2 0x284 JUMP JUMPDEST PUSH1 0x40 MLOAD PUSH2 0xE9 SWAP2 SWAP1 PUSH2 0x1B68 JUMP JUMPDEST PUSH1 0x40 MLOAD DUP1 SWAP2 SUB SWAP1 RETURN JUMPDEST PUSH2 0x10C PUSH1 0x4 DUP1 CALLDATASIZE SUB DUP2 ADD SWAP1 PUSH2 0x107 SWAP2 SWAP1 PUSH2 0x14EB JUMP JUMPDEST PUSH2 0x316 JUMP JUMPDEST PUSH1 0x40 MLOAD PUSH2 0x119 SWAP2 SWAP1 PUSH2 0x1B01 JUMP JUMPDEST PUSH1 0x40 MLOAD DUP1 SWAP2 SUB SWAP1 RETURN JUMPDEST PUSH2 0x13C PUSH1 0x4 DUP1 CALLDATASIZE SUB DUP2 ADD SWAP1 PUSH2 0x137 SWAP2 SWAP1 PUSH2 0x1486 JUMP JUMPDEST PUSH2 0x39B JUMP JUMPDEST STOP JUMPDEST PUSH2 0x158 PUSH1 0x4 DUP1 CALLDATASIZE SUB DUP2 ADD SWAP1 PUSH2 0x153 SWAP2 SWAP1 PUSH2 0x13BC JUMP JUMPDEST PUSH2 0x49B JUMP JUMPDEST STOP JUMPDEST PUSH2 0x174 PUSH1 0x4 DUP1 CALLDATASIZE SUB DUP2 ADD SWAP1 PUSH2 0x16F SWAP2 SWAP1 PUSH2 0x13BC JUMP JUMPDEST PUSH2 0x4FB JUMP JUMPDEST STOP JUMPDEST PUSH2 0x190 PUSH1 0x4 DUP1 CALLDATASIZE SUB DUP2 ADD SWAP1 PUSH2 0x18B SWAP2 SWAP1 PUSH2 0x14EB JUMP JUMPDEST PUSH2 0x51B JUMP JUMPDEST PUSH1 0x40 MLOAD PUSH2 0x19D SWAP2 SWAP1 PUSH2 0x1B01 JUMP JUMPDEST PUSH1 0x40 MLOAD DUP1 SWAP2 SUB SWAP1 RETURN JUMPDEST PUSH2 0x1C0 PUSH1 0x4 DUP1 CALLDATASIZE SUB DUP2 ADD SWAP1 PUSH2 0x1BB SWAP2 SWAP1 PUSH2 0x1393 JUMP JUMPDEST PUSH2 0x5CD JUMP JUMPDEST PUSH1 0x40 MLOAD PUSH2 0x1CD SWAP2 SWAP1 PUSH2 0x1D2A JUMP JUMPDEST PUSH1 0x40 MLOAD DUP1 SWAP2 SUB SWAP1 RETURN JUMPDEST PUSH2 0x1DE PUSH2 0x685 JUMP JUMPDEST STOP JUMPDEST PUSH2 0x1E8 PUSH2 0x70D JUMP JUMPDEST PUSH1 0x40 MLOAD PUSH2 0x1F5 SWAP2 SWAP1 PUSH2 0x1B01 JUMP JUMPDEST PUSH1 0x40 MLOAD DUP1 SWAP2 SUB SWAP1 RETURN JUMPDEST PUSH2 0x206 PUSH2 0x736 JUMP JUMPDEST PUSH1 0x40 MLOAD PUSH2 0x213 SWAP2 SWAP1 PUSH2 0x1B68 JUMP JUMPDEST PUSH1 0x40 MLOAD DUP1 SWAP2 SUB SWAP1 RETURN JUMPDEST PUSH2 0x236 PUSH1 0x4 DUP1 CALLDATASIZE SUB DUP2 ADD SWAP1 PUSH2 0x231 SWAP2 SWAP1 PUSH2 0x140B JUMP JUMPDEST PUSH2 0x7C8 JUMP JUMPDEST STOP JUMPDEST PUSH2 0x252 PUSH1 0x4 DUP1 CALLDATASIZE SUB DUP2 ADD SWAP1 PUSH2 0x24D SWAP2 SWAP1 PUSH2 0x14EB JUMP JUMPDEST PUSH2 0x82A JUMP JUMPDEST PUSH1 0x40 MLOAD PUSH2 0x25F SWAP2 SWAP1 PUSH2 0x1B68 JUMP JUMPDEST PUSH1 0x40 MLOAD DUP1 SWAP2 SUB SWAP1 RETURN JUMPDEST PUSH2 0x282 PUSH1 0x4 DUP1 CALLDATASIZE SUB DUP2 ADD SWAP1 PUSH2 0x27D SWAP2 SWAP1 PUSH2 0x1393 JUMP JUMPDEST PUSH2 0x8D1 JUMP JUMPDEST STOP JUMPDEST PUSH1 0x60 PUSH1 0x7 DUP1 SLOAD PUSH2 0x293 SWAP1 PUSH2 0x1F4E JUMP JUMPDEST DUP1 PUSH1 0x1F ADD PUSH1 0x20 DUP1 SWAP2 DIV MUL PUSH1 0x20 ADD PUSH1 0x40 MLOAD SWAP1 DUP2 ADD PUSH1 0x40 MSTORE DUP1 SWAP3 SWAP2 SWAP1 DUP2 DUP2 MSTORE PUSH1 0x20 ADD DUP3 DUP1 SLOAD PUSH2 0x2BF SWAP1 PUSH2 0x1F4E JUMP JUMPDEST DUP1 ISZERO PUSH2 0x30C JUMPI DUP1 PUSH1 0x1F LT PUSH2 0x2E1 JUMPI PUSH2 0x100 DUP1 DUP4 SLOAD DIV MUL DUP4 MSTORE SWAP2 PUSH1 0x20 ADD SWAP2 PUSH2 0x30C JUMP JUMPDEST DUP3 ADD SWAP2 SWAP1 PUSH1 0x0 MSTORE PUSH1 0x20 PUSH1 0x0 KECCAK256 SWAP1 JUMPDEST DUP2 SLOAD DUP2 MSTORE SWAP1 PUSH1 0x1 ADD SWAP1 PUSH1 0x20 ADD DUP1 DUP4 GT PUSH2 0x2EF JUMPI DUP3 SWAP1 SUB PUSH1 0x1F AND DUP3 ADD SWAP2 JUMPDEST POP POP POP POP POP SWAP1 POP SWAP1 JUMP JUMPDEST PUSH1 0x0 PUSH2 0x321 DUP3 PUSH2 0x9C9 JUMP JUMPDEST PUSH2 0x360 JUMPI PUSH1 0x40 MLOAD PUSH32 0x8C379A000000000000000000000000000000000000000000000000000000000 DUP2 MSTORE PUSH1 0x4 ADD PUSH2 0x357 SWAP1 PUSH2 0x1C8A JUMP JUMPDEST PUSH1 0x40 MLOAD DUP1 SWAP2 SUB SWAP1 REVERT JUMPDEST PUSH1 0x4 PUSH1 0x0 DUP4 DUP2 MSTORE PUSH1 0x20 ADD SWAP1 DUP2 MSTORE PUSH1 0x20 ADD PUSH1 0x0 KECCAK256 PUSH1 0x0 SWAP1 SLOAD SWAP1 PUSH2 0x100 EXP SWAP1 DIV PUSH20 0xFFFFFFFFFFFFFFFFFFFFFFFFFFFFFFFFFFFFFFFF AND SWAP1 POP SWAP2 SWAP1 POP JUMP JUMPDEST PUSH1 0x0 PUSH2 0x3A6 DUP3 PUSH2 0x51B JUMP JUMPDEST SWAP1 POP DUP1 PUSH20 0xFFFFFFFFFFFFFFFFFFFFFFFFFFFFFFFFFFFFFFFF AND DUP4 PUSH20 0xFFFFFFFFFFFFFFFFFFFFFFFFFFFFFFFFFFFFFFFF AND EQ ISZERO PUSH2 0x417 JUMPI PUSH1 0x40 MLOAD PUSH32 0x8C379A000000000000000000000000000000000000000000000000000000000 DUP2 MSTORE PUSH1 0x4 ADD PUSH2 0x40E SWAP1 PUSH2 0x1CEA JUMP JUMPDEST PUSH1 0x40 MLOAD DUP1 SWAP2 SUB SWAP1 REVERT JUMPDEST DUP1 PUSH20 0xFFFFFFFFFFFFFFFFFFFFFFFFFFFFFFFFFFFFFFFF AND PUSH2 0x436 PUSH2 0xA35 JUMP JUMPDEST PUSH20 0xFFFFFFFFFFFFFFFFFFFFFFFFFFFFFFFFFFFFFFFF AND EQ PUSH2 0x48C JUMPI PUSH1 0x40 MLOAD PUSH32 0x8C379A000000000000000000000000000000000000000000000000000000000 DUP2 MSTORE PUSH1 0x4 ADD PUSH2 0x483 SWAP1 PUSH2 0x1C2A JUMP JUMPDEST PUSH1 0x40 MLOAD DUP1 SWAP2 SUB SWAP1 REVERT JUMPDEST PUSH2 0x496 DUP4 DUP4 PUSH2 0xA3D JUMP JUMPDEST POP POP POP JUMP JUMPDEST PUSH2 0x4AC PUSH2 0x4A6 PUSH2 0xA35 JUMP JUMPDEST DUP3 PUSH2 0xAF6 JUMP JUMPDEST PUSH2 0x4EB JUMPI PUSH1 0x40 MLOAD PUSH32 0x8C379A000000000000000000000000000000000000000000000000000000000 DUP2 MSTORE PUSH1 0x4 ADD PUSH2 0x4E2 SWAP1 PUSH2 0x1D0A JUMP JUMPDEST PUSH1 0x40 MLOAD DUP1 SWAP2 SUB SWAP1 REVERT JUMPDEST PUSH2 0x4F6 DUP4 DUP4 DUP4 PUSH2 0xBC3 JUMP JUMPDEST POP POP POP JUMP JUMPDEST PUSH2 0x516 DUP4 DUP4 DUP4 PUSH1 0x40 MLOAD DUP1 PUSH1 0x20 ADD PUSH1 0x40 MSTORE DUP1 PUSH1 0x0 DUP2 MSTORE POP PUSH2 0x7C8 JUMP JUMPDEST POP POP POP JUMP JUMPDEST PUSH1 0x0 DUP1 PUSH1 0x2 PUSH1 0x0 DUP5 DUP2 MSTORE PUSH1 0x20 ADD SWAP1 DUP2 MSTORE PUSH1 0x20 ADD PUSH1 0x0 KECCAK256 PUSH1 0x0 SWAP1 SLOAD SWAP1 PUSH2 0x100 EXP SWAP1 DIV PUSH20 0xFFFFFFFFFFFFFFFFFFFFFFFFFFFFFFFFFFFFFFFF AND SWAP1 POP PUSH1 0x0 PUSH20 0xFFFFFFFFFFFFFFFFFFFFFFFFFFFFFFFFFFFFFFFF AND DUP2 PUSH20 0xFFFFFFFFFFFFFFFFFFFFFFFFFFFFFFFFFFFFFFFF AND EQ ISZERO PUSH2 0x5C4 JUMPI PUSH1 0x40 MLOAD PUSH32 0x8C379A000000000000000000000000000000000000000000000000000000000 DUP2 MSTORE PUSH1 0x4 ADD PUSH2 0x5BB SWAP1 PUSH2 0x1C6A JUMP JUMPDEST PUSH1 0x40 MLOAD DUP1 SWAP2 SUB SWAP1 REVERT JUMPDEST DUP1 SWAP2 POP POP SWAP2 SWAP1 POP JUMP JUMPDEST PUSH1 0x0 DUP1 PUSH20 0xFFFFFFFFFFFFFFFFFFFFFFFFFFFFFFFFFFFFFFFF AND DUP3 PUSH20 0xFFFFFFFFFFFFFFFFFFFFFFFFFFFFFFFFFFFFFFFF AND EQ ISZERO PUSH2 0x63E JUMPI PUSH1 0x40 MLOAD PUSH32 0x8C379A000000000000000000000000000000000000000000000000000000000 DUP2 MSTORE PUSH1 0x4 ADD PUSH2 0x635 SWAP1 PUSH2 0x1C4A JUMP JUMPDEST PUSH1 0x40 MLOAD DUP1 SWAP2 SUB SWAP1 REVERT JUMPDEST PUSH1 0x1 PUSH1 0x0 DUP4 PUSH20 0xFFFFFFFFFFFFFFFFFFFFFFFFFFFFFFFFFFFFFFFF AND PUSH20 0xFFFFFFFFFFFFFFFFFFFFFFFFFFFFFFFFFFFFFFFF AND DUP2 MSTORE PUSH1 0x20 ADD SWAP1 DUP2 MSTORE PUSH1 0x20 ADD PUSH1 0x0 KECCAK256 SLOAD SWAP1 POP SWAP2 SWAP1 POP JUMP JUMPDEST PUSH2 0x68D PUSH2 0xA35 JUMP JUMPDEST PUSH20 0xFFFFFFFFFFFFFFFFFFFFFFFFFFFFFFFFFFFFFFFF AND PUSH2 0x6AB PUSH2 0x70D JUMP JUMPDEST PUSH20 0xFFFFFFFFFFFFFFFFFFFFFFFFFFFFFFFFFFFFFFFF AND EQ PUSH2 0x701 JUMPI PUSH1 0x40 MLOAD PUSH32 0x8C379A000000000000000000000000000000000000000000000000000000000 DUP2 MSTORE PUSH1 0x4 ADD PUSH2 0x6F8 SWAP1 PUSH2 0x1CAA JUMP JUMPDEST PUSH1 0x40 MLOAD DUP1 SWAP2 SUB SWAP1 REVERT JUMPDEST PUSH2 0x70B PUSH1 0x0 PUSH2 0xE28 JUMP JUMPDEST JUMP JUMPDEST PUSH1 0x0 DUP1 PUSH1 0x0 SWAP1 SLOAD SWAP1 PUSH2 0x100 EXP SWAP1 DIV PUSH20 0xFFFFFFFFFFFFFFFFFFFFFFFFFFFFFFFFFFFFFFFF AND SWAP1 POP SWAP1 JUMP JUMPDEST PUSH1 0x60 PUSH1 0x8 DUP1 SLOAD PUSH2 0x745 SWAP1 PUSH2 0x1F4E JUMP JUMPDEST DUP1 PUSH1 0x1F ADD PUSH1 0x20 DUP1 SWAP2 DIV MUL PUSH1 0x20 ADD PUSH1 0x40 MLOAD SWAP1 DUP2 ADD PUSH1 0x40 MSTORE DUP1 SWAP3 SWAP2 SWAP1 DUP2 DUP2 MSTORE PUSH1 0x20 ADD DUP3 DUP1 SLOAD PUSH2 0x771 SWAP1 PUSH2 0x1F4E JUMP JUMPDEST DUP1 ISZERO PUSH2 0x7BE JUMPI DUP1 PUSH1 0x1F LT PUSH2 0x793 JUMPI PUSH2 0x100 DUP1 DUP4 SLOAD DIV MUL DUP4 MSTORE SWAP2 PUSH1 0x20 ADD SWAP2 PUSH2 0x7BE JUMP JUMPDEST DUP3 ADD SWAP2 SWAP1 PUSH1 0x0 MSTORE PUSH1 0x20 PUSH1 0x0 KECCAK256 SWAP1 JUMPDEST DUP2 SLOAD DUP2 MSTORE SWAP1 PUSH1 0x1 ADD SWAP1 PUSH1 0x20 ADD DUP1 DUP4 GT PUSH2 0x7A1 JUMPI DUP3 SWAP1 SUB PUSH1 0x1F AND DUP3 ADD SWAP2 JUMPDEST POP POP POP POP POP SWAP1 POP SWAP1 JUMP JUMPDEST PUSH2 0x7D9 PUSH2 0x7D3 PUSH2 0xA35 JUMP JUMPDEST DUP4 PUSH2 0xAF6 JUMP JUMPDEST PUSH2 0x818 JUMPI PUSH1 0x40 MLOAD PUSH32 0x8C379A000000000000000000000000000000000000000000000000000000000 DUP2 MSTORE PUSH1 0x4 ADD PUSH2 0x80F SWAP1 PUSH2 0x1D0A JUMP JUMPDEST PUSH1 0x40 MLOAD DUP1 SWAP2 SUB SWAP1 REVERT JUMPDEST PUSH2 0x824 DUP5 DUP5 DUP5 DUP5 PUSH2 0xEEC JUMP JUMPDEST POP POP POP POP JUMP JUMPDEST PUSH1 0x60 PUSH2 0x835 DUP3 PUSH2 0x9C9 JUMP JUMPDEST PUSH2 0x874 JUMPI PUSH1 0x40 MLOAD PUSH32 0x8C379A000000000000000000000000000000000000000000000000000000000 DUP2 MSTORE PUSH1 0x4 ADD PUSH2 0x86B SWAP1 PUSH2 0x1CCA JUMP JUMPDEST PUSH1 0x40 MLOAD DUP1 SWAP2 SUB SWAP1 REVERT JUMPDEST PUSH1 0x0 PUSH2 0x87E PUSH2 0xF48 JUMP JUMPDEST SWAP1 POP PUSH1 0x0 DUP2 MLOAD GT PUSH2 0x89E JUMPI PUSH1 0x40 MLOAD DUP1 PUSH1 0x20 ADD PUSH1 0x40 MSTORE DUP1 PUSH1 0x0 DUP2 MSTORE POP PUSH2 0x8C9 JUMP JUMPDEST DUP1 PUSH2 0x8A8 DUP5 PUSH2 0xF5F JUMP JUMPDEST PUSH1 0x40 MLOAD PUSH1 0x20 ADD PUSH2 0x8B9 SWAP3 SWAP2 SWAP1 PUSH2 0x1ADD JUMP JUMPDEST PUSH1 0x40 MLOAD PUSH1 0x20 DUP2 DUP4 SUB SUB DUP2 MSTORE SWAP1 PUSH1 0x40 MSTORE JUMPDEST SWAP2 POP POP SWAP2 SWAP1 POP JUMP JUMPDEST PUSH2 0x8D9 PUSH2 0xA35 JUMP JUMPDEST PUSH20 0xFFFFFFFFFFFFFFFFFFFFFFFFFFFFFFFFFFFFFFFF AND PUSH2 0x8F7 PUSH2 0x70D JUMP JUMPDEST PUSH20 0xFFFFFFFFFFFFFFFFFFFFFFFFFFFFFFFFFFFFFFFF AND EQ PUSH2 0x94D JUMPI PUSH1 0x40 MLOAD PUSH32 0x8C379A000000000000000000000000000000000000000000000000000000000 DUP2 MSTORE PUSH1 0x4 ADD PUSH2 0x944 SWAP1 PUSH2 0x1CAA JUMP JUMPDEST PUSH1 0x40 MLOAD DUP1 SWAP2 SUB SWAP1 REVERT JUMPDEST PUSH1 0x0 PUSH20 0xFFFFFFFFFFFFFFFFFFFFFFFFFFFFFFFFFFFFFFFF AND DUP2 PUSH20 0xFFFFFFFFFFFFFFFFFFFFFFFFFFFFFFFFFFFFFFFF AND EQ ISZERO PUSH2 0x9BD JUMPI PUSH1 0x40 MLOAD PUSH32 0x8C379A000000000000000000000000000000000000000000000000000000000 DUP2 MSTORE PUSH1 0x4 ADD PUSH2 0x9B4 SWAP1 PUSH2 0x1BAA JUMP JUMPDEST PUSH1 0x40 MLOAD DUP1 SWAP2 SUB SWAP1 REVERT JUMPDEST PUSH2 0x9C6 DUP2 PUSH2 0xE28 JUMP JUMPDEST POP JUMP JUMPDEST PUSH1 0x0 DUP1 PUSH20 0xFFFFFFFFFFFFFFFFFFFFFFFFFFFFFFFFFFFFFFFF AND PUSH1 0x2 PUSH1 0x0 DUP5 DUP2 MSTORE PUSH1 0x20 ADD SWAP1 DUP2 MSTORE PUSH1 0x20 ADD PUSH1 0x0 KECCAK256 PUSH1 0x0 SWAP1 SLOAD SWAP1 PUSH2 0x100 EXP SWAP1 DIV PUSH20 0xFFFFFFFFFFFFFFFFFFFFFFFFFFFFFFFFFFFFFFFF AND PUSH20 0xFFFFFFFFFFFFFFFFFFFFFFFFFFFFFFFFFFFFFFFF AND EQ ISZERO SWAP1 POP SWAP2 SWAP1 POP JUMP JUMPDEST PUSH1 0x0 CALLER SWAP1 POP SWAP1 JUMP JUMPDEST DUP2 PUSH1 0x4 PUSH1 0x0 DUP4 DUP2 MSTORE PUSH1 0x20 ADD SWAP1 DUP2 MSTORE PUSH1 0x20 ADD PUSH1 0x0 KECCAK256 PUSH1 0x0 PUSH2 0x100 EXP DUP2 SLOAD DUP2 PUSH20 0xFFFFFFFFFFFFFFFFFFFFFFFFFFFFFFFFFFFFFFFF MUL NOT AND SWAP1 DUP4 PUSH20 0xFFFFFFFFFFFFFFFFFFFFFFFFFFFFFFFFFFFFFFFF AND MUL OR SWAP1 SSTORE POP DUP1 DUP3 PUSH20 0xFFFFFFFFFFFFFFFFFFFFFFFFFFFFFFFFFFFFFFFF AND PUSH2 0xAB0 DUP4 PUSH2 0x51B JUMP JUMPDEST PUSH20 0xFFFFFFFFFFFFFFFFFFFFFFFFFFFFFFFFFFFFFFFF AND PUSH32 0x8C5BE1E5EBEC7D5BD14F71427D1E84F3DD0314C0F7B2291E5B200AC8C7C3B925 PUSH1 0x40 MLOAD PUSH1 0x40 MLOAD DUP1 SWAP2 SUB SWAP1 LOG4 POP POP JUMP JUMPDEST PUSH1 0x0 PUSH2 0xB01 DUP3 PUSH2 0x9C9 JUMP JUMPDEST PUSH2 0xB40 JUMPI PUSH1 0x40 MLOAD PUSH32 0x8C379A000000000000000000000000000000000000000000000000000000000 DUP2 MSTORE PUSH1 0x4 ADD PUSH2 0xB37 SWAP1 PUSH2 0x1C0A JUMP JUMPDEST PUSH1 0x40 MLOAD DUP1 SWAP2 SUB SWAP1 REVERT JUMPDEST PUSH1 0x0 PUSH2 0xB4B DUP4 PUSH2 0x51B JUMP JUMPDEST SWAP1 POP DUP1 PUSH20 0xFFFFFFFFFFFFFFFFFFFFFFFFFFFFFFFFFFFFFFFF AND DUP5 PUSH20 0xFFFFFFFFFFFFFFFFFFFFFFFFFFFFFFFFFFFFFFFF AND EQ DUP1 PUSH2 0xBBA JUMPI POP DUP4 PUSH20 0xFFFFFFFFFFFFFFFFFFFFFFFFFFFFFFFFFFFFFFFF AND PUSH2 0xBA2 DUP5 PUSH2 0x316 JUMP JUMPDEST PUSH20 0xFFFFFFFFFFFFFFFFFFFFFFFFFFFFFFFFFFFFFFFF AND EQ JUMPDEST SWAP2 POP POP SWAP3 SWAP2 POP POP JUMP JUMPDEST DUP3 PUSH20 0xFFFFFFFFFFFFFFFFFFFFFFFFFFFFFFFFFFFFFFFF AND PUSH2 0xBE3 DUP3 PUSH2 0x51B JUMP JUMPDEST PUSH20 0xFFFFFFFFFFFFFFFFFFFFFFFFFFFFFFFFFFFFFFFF AND EQ PUSH2 0xC39 JUMPI PUSH1 0x40 MLOAD PUSH32 0x8C379A000000000000000000000000000000000000000000000000000000000 DUP2 MSTORE PUSH1 0x4 ADD PUSH2 0xC30 SWAP1 PUSH2 0x1BCA JUMP JUMPDEST PUSH1 0x40 MLOAD DUP1 SWAP2 SUB SWAP1 REVERT JUMPDEST PUSH1 0x0 PUSH20 0xFFFFFFFFFFFFFFFFFFFFFFFFFFFFFFFFFFFFFFFF AND DUP3 PUSH20 0xFFFFFFFFFFFFFFFFFFFFFFFFFFFFFFFFFFFFFFFF AND EQ ISZERO PUSH2 0xCA9 JUMPI PUSH1 0x40 MLOAD PUSH32 0x8C379A000000000000000000000000000000000000000000000000000000000 DUP2 MSTORE PUSH1 0x4 ADD PUSH2 0xCA0 SWAP1 PUSH2 0x1BEA JUMP JUMPDEST PUSH1 0x40 MLOAD DUP1 SWAP2 SUB SWAP1 REVERT JUMPDEST PUSH2 0xCB4 DUP4 DUP4 DUP4 PUSH2 0x110C JUMP JUMPDEST PUSH2 0xCBF PUSH1 0x0 DUP3 PUSH2 0xA3D JUMP JUMPDEST PUSH1 0x1 DUP1 PUSH1 0x0 DUP6 PUSH20 0xFFFFFFFFFFFFFFFFFFFFFFFFFFFFFFFFFFFFFFFF AND PUSH20 0xFFFFFFFFFFFFFFFFFFFFFFFFFFFFFFFFFFFFFFFF AND DUP2 MSTORE PUSH1 0x20 ADD SWAP1 DUP2 MSTORE PUSH1 0x20 ADD PUSH1 0x0 KECCAK256 PUSH1 0x0 DUP3 DUP3 SLOAD PUSH2 0xD0E SWAP2 SWAP1 PUSH2 0x1E70 JUMP JUMPDEST SWAP3 POP POP DUP2 SWAP1 SSTORE POP PUSH1 0x1 DUP1 PUSH1 0x0 DUP5 PUSH20 0xFFFFFFFFFFFFFFFFFFFFFFFFFFFFFFFFFFFFFFFF AND PUSH20 0xFFFFFFFFFFFFFFFFFFFFFFFFFFFFFFFFFFFFFFFF AND DUP2 MSTORE PUSH1 0x20 ADD SWAP1 DUP2 MSTORE PUSH1 0x20 ADD PUSH1 0x0 KECCAK256 PUSH1 0x0 DUP3 DUP3 SLOAD PUSH2 0xD64 SWAP2 SWAP1 PUSH2 0x1DE9 JUMP JUMPDEST SWAP3 POP POP DUP2 SWAP1 SSTORE POP DUP2 PUSH1 0x2 PUSH1 0x0 DUP4 DUP2 MSTORE PUSH1 0x20 ADD SWAP1 DUP2 MSTORE PUSH1 0x20 ADD PUSH1 0x0 KECCAK256 PUSH1 0x0 PUSH2 0x100 EXP DUP2 SLOAD DUP2 PUSH20 0xFFFFFFFFFFFFFFFFFFFFFFFFFFFFFFFFFFFFFFFF MUL NOT AND SWAP1 DUP4 PUSH20 0xFFFFFFFFFFFFFFFFFFFFFFFFFFFFFFFFFFFFFFFF AND MUL OR SWAP1 SSTORE POP DUP1 DUP3 PUSH20 0xFFFFFFFFFFFFFFFFFFFFFFFFFFFFFFFFFFFFFFFF AND DUP5 PUSH20 0xFFFFFFFFFFFFFFFFFFFFFFFFFFFFFFFFFFFFFFFF AND PUSH32 0xDDF252AD1BE2C89B69C2B068FC378DAA952BA7F163C4A11628F55A4DF523B3EF PUSH1 0x40 MLOAD PUSH1 0x40 MLOAD DUP1 SWAP2 SUB SWAP1 LOG4 PUSH2 0xE23 DUP4 DUP4 DUP4 PUSH2 0x1111 JUMP JUMPDEST POP POP POP JUMP JUMPDEST PUSH1 0x0 DUP1 PUSH1 0x0 SWAP1 SLOAD SWAP1 PUSH2 0x100 EXP SWAP1 DIV PUSH20 0xFFFFFFFFFFFFFFFFFFFFFFFFFFFFFFFFFFFFFFFF AND SWAP1 POP DUP2 PUSH1 0x0 DUP1 PUSH2 0x100 EXP DUP2 SLOAD DUP2 PUSH20 0xFFFFFFFFFFFFFFFFFFFFFFFFFFFFFFFFFFFFFFFF MUL NOT AND SWAP1 DUP4 PUSH20 0xFFFFFFFFFFFFFFFFFFFFFFFFFFFFFFFFFFFFFFFF AND MUL OR SWAP1 SSTORE POP DUP2 PUSH20 0xFFFFFFFFFFFFFFFFFFFFFFFFFFFFFFFFFFFFFFFF AND DUP2 PUSH20 0xFFFFFFFFFFFFFFFFFFFFFFFFFFFFFFFFFFFFFFFF AND PUSH32 0x8BE0079C531659141344CD1FD0A4F28419497F9722A3DAAFE3B4186F6B6457E0 PUSH1 0x40 MLOAD PUSH1 0x40 MLOAD DUP1 SWAP2 SUB SWAP1 LOG3 POP POP JUMP JUMPDEST PUSH2 0xEF7 DUP5 DUP5 DUP5 PUSH2 0xBC3 JUMP JUMPDEST PUSH2 0xF03 DUP5 DUP5 DUP5 DUP5 PUSH2 0x1116 JUMP JUMPDEST PUSH2 0xF42 JUMPI PUSH1 0x40 MLOAD PUSH32 0x8C379A000000000000000000000000000000000000000000000000000000000 DUP2 MSTORE PUSH1 0x4 ADD PUSH2 0xF39 SWAP1 PUSH2 0x1B8A JUMP JUMPDEST PUSH1 0x40 MLOAD DUP1 SWAP2 SUB SWAP1 REVERT JUMPDEST POP POP POP POP JUMP JUMPDEST PUSH1 0x60 PUSH1 0x40 MLOAD DUP1 PUSH1 0x20 ADD PUSH1 0x40 MSTORE DUP1 PUSH1 0x0 DUP2 MSTORE POP SWAP1 POP SWAP1 JUMP JUMPDEST PUSH1 0x60 PUSH1 0x0 DUP3 EQ ISZERO PUSH2 0xFA7 JUMPI PUSH1 0x40 MLOAD DUP1 PUSH1 0x40 ADD PUSH1 0x40 MSTORE DUP1 PUSH1 0x1 DUP2 MSTORE PUSH1 0x20 ADD PUSH32 0x3000000000000000000000000000000000000000000000000000000000000000 DUP2 MSTORE POP SWAP1 POP PUSH2 0x1107 JUMP JUMPDEST PUSH1 0x0 DUP3 SWAP1 POP PUSH1 0x0 JUMPDEST PUSH1 0x0 DUP3 EQ PUSH2 0xFD9 JUMPI DUP1 DUP1 PUSH2 0xFC2 SWAP1 PUSH2 0x1F80 JUMP JUMPDEST SWAP2 POP POP PUSH1 0xA DUP3 PUSH2 0xFD2 SWAP2 SWAP1 PUSH2 0x1E3F JUMP JUMPDEST SWAP2 POP PUSH2 0xFAF JUMP JUMPDEST PUSH1 0x0 DUP2 PUSH8 0xFFFFFFFFFFFFFFFF DUP2 GT ISZERO PUSH2 0x101B JUMPI PUSH32 0x4E487B7100000000000000000000000000000000000000000000000000000000 PUSH1 0x0 MSTORE PUSH1 0x41 PUSH1 0x4 MSTORE PUSH1 0x24 PUSH1 0x0 REVERT JUMPDEST PUSH1 0x40 MLOAD SWAP1 DUP1 DUP3 MSTORE DUP1 PUSH1 0x1F ADD PUSH1 0x1F NOT AND PUSH1 0x20 ADD DUP3 ADD PUSH1 0x40 MSTORE DUP1 ISZERO PUSH2 0x104D JUMPI DUP2 PUSH1 0x20 ADD PUSH1 0x1 DUP3 MUL DUP1 CALLDATASIZE DUP4 CALLDATACOPY DUP1 DUP3 ADD SWAP2 POP POP SWAP1 POP JUMPDEST POP SWAP1 POP JUMPDEST PUSH1 0x0 DUP6 EQ PUSH2 0x1100 JUMPI PUSH1 0x1 DUP3 PUSH2 0x1066 SWAP2 SWAP1 PUSH2 0x1E70 JUMP JUMPDEST SWAP2 POP PUSH1 0xA DUP6 PUSH2 0x1075 SWAP2 SWAP1 PUSH2 0x1FC9 JUMP JUMPDEST PUSH1 0x30 PUSH2 0x1081 SWAP2 SWAP1 PUSH2 0x1DE9 JUMP JUMPDEST PUSH1 0xF8 SHL DUP2 DUP4 DUP2 MLOAD DUP2 LT PUSH2 0x10BD JUMPI PUSH32 0x4E487B7100000000000000000000000000000000000000000000000000000000 PUSH1 0x0 MSTORE PUSH1 0x32 PUSH1 0x4 MSTORE PUSH1 0x24 PUSH1 0x0 REVERT JUMPDEST PUSH1 0x20 ADD ADD SWAP1 PUSH31 0xFFFFFFFFFFFFFFFFFFFFFFFFFFFFFFFFFFFFFFFFFFFFFFFFFFFFFFFFFFFFFF NOT AND SWAP1 DUP2 PUSH1 0x0 BYTE SWAP1 MSTORE8 POP PUSH1 0xA DUP6 PUSH2 0x10F9 SWAP2 SWAP1 PUSH2 0x1E3F JUMP JUMPDEST SWAP5 POP PUSH2 0x1051 JUMP JUMPDEST DUP1 SWAP4 POP POP POP POP JUMPDEST SWAP2 SWAP1 POP JUMP JUMPDEST POP POP POP JUMP JUMPDEST POP POP POP JUMP JUMPDEST PUSH1 0x0 PUSH2 0x1137 DUP5 PUSH20 0xFFFFFFFFFFFFFFFFFFFFFFFFFFFFFFFFFFFFFFFF AND PUSH2 0x12AD JUMP JUMPDEST ISZERO PUSH2 0x12A0 JUMPI DUP4 PUSH20 0xFFFFFFFFFFFFFFFFFFFFFFFFFFFFFFFFFFFFFFFF AND PUSH4 0x150B7A02 PUSH2 0x1160 PUSH2 0xA35 JUMP JUMPDEST DUP8 DUP7 DUP7 PUSH1 0x40 MLOAD DUP6 PUSH4 0xFFFFFFFF AND PUSH1 0xE0 SHL DUP2 MSTORE PUSH1 0x4 ADD PUSH2 0x1182 SWAP5 SWAP4 SWAP3 SWAP2 SWAP1 PUSH2 0x1B1C JUMP JUMPDEST PUSH1 0x20 PUSH1 0x40 MLOAD DUP1 DUP4 SUB DUP2 PUSH1 0x0 DUP8 DUP1 EXTCODESIZE ISZERO DUP1 ISZERO PUSH2 0x119C JUMPI PUSH1 0x0 DUP1 REVERT JUMPDEST POP GAS CALL SWAP3 POP POP POP DUP1 ISZERO PUSH2 0x11CD JUMPI POP PUSH1 0x40 MLOAD RETURNDATASIZE PUSH1 0x1F NOT PUSH1 0x1F DUP3 ADD AND DUP3 ADD DUP1 PUSH1 0x40 MSTORE POP DUP2 ADD SWAP1 PUSH2 0x11CA SWAP2 SWAP1 PUSH2 0x14C2 JUMP JUMPDEST PUSH1 0x1 JUMPDEST PUSH2 0x1250 JUMPI RETURNDATASIZE DUP1 PUSH1 0x0 DUP2 EQ PUSH2 0x11FD JUMPI PUSH1 0x40 MLOAD SWAP2 POP PUSH1 0x1F NOT PUSH1 0x3F RETURNDATASIZE ADD AND DUP3 ADD PUSH1 0x40 MSTORE RETURNDATASIZE DUP3 MSTORE RETURNDATASIZE PUSH1 0x0 PUSH1 0x20 DUP5 ADD RETURNDATACOPY PUSH2 0x1202 JUMP JUMPDEST PUSH1 0x60 SWAP2 POP JUMPDEST POP PUSH1 0x0 DUP2 MLOAD EQ ISZERO PUSH2 0x1248 JUMPI PUSH1 0x40 MLOAD PUSH32 0x8C379A000000000000000000000000000000000000000000000000000000000 DUP2 MSTORE PUSH1 0x4 ADD PUSH2 0x123F SWAP1 PUSH2 0x1B8A JUMP JUMPDEST PUSH1 0x40 MLOAD DUP1 SWAP2 SUB SWAP1 REVERT JUMPDEST DUP1 MLOAD DUP2 PUSH1 0x20 ADD REVERT JUMPDEST PUSH4 0x150B7A02 PUSH1 0xE0 SHL PUSH28 0xFFFFFFFFFFFFFFFFFFFFFFFFFFFFFFFFFFFFFFFFFFFFFFFFFFFFFFFF NOT AND DUP2 PUSH28 0xFFFFFFFFFFFFFFFFFFFFFFFFFFFFFFFFFFFFFFFFFFFFFFFFFFFFFFFF NOT AND EQ SWAP2 POP POP PUSH2 0x12A5 JUMP JUMPDEST PUSH1 0x1 SWAP1 POP JUMPDEST SWAP5 SWAP4 POP POP POP POP JUMP JUMPDEST PUSH1 0x0 DUP1 DUP3 PUSH20 0xFFFFFFFFFFFFFFFFFFFFFFFFFFFFFFFFFFFFFFFF AND DUP1 EXTCODESIZE DUP1 PUSH1 0x20 ADD PUSH1 0x40 MLOAD SWAP1 DUP2 ADD PUSH1 0x40 MSTORE DUP2 DUP2 MSTORE PUSH1 0x0 SWAP1 DUP1 PUSH1 0x20 ADD SWAP1 SWAP4 EXTCODECOPY MLOAD GT SWAP1 POP SWAP2 SWAP1 POP JUMP JUMPDEST PUSH1 0x0 PUSH2 0x12FF PUSH2 0x12FA DUP5 PUSH2 0x1D76 JUMP JUMPDEST PUSH2 0x1D45 JUMP JUMPDEST SWAP1 POP DUP3 DUP2 MSTORE PUSH1 0x20 DUP2 ADD DUP5 DUP5 DUP5 ADD GT ISZERO PUSH2 0x1317 JUMPI PUSH1 0x0 DUP1 REVERT JUMPDEST PUSH2 0x1322 DUP5 DUP3 DUP6 PUSH2 0x1F0C JUMP JUMPDEST POP SWAP4 SWAP3 POP POP POP JUMP JUMPDEST PUSH1 0x0 DUP2 CALLDATALOAD SWAP1 POP PUSH2 0x1339 DUP2 PUSH2 0x20C7 JUMP JUMPDEST SWAP3 SWAP2 POP POP JUMP JUMPDEST PUSH1 0x0 DUP2 MLOAD SWAP1 POP PUSH2 0x134E DUP2 PUSH2 0x20DE JUMP JUMPDEST SWAP3 SWAP2 POP POP JUMP JUMPDEST PUSH1 0x0 DUP3 PUSH1 0x1F DUP4 ADD SLT PUSH2 0x1365 JUMPI PUSH1 0x0 DUP1 REVERT JUMPDEST DUP2 CALLDATALOAD PUSH2 0x1375 DUP5 DUP3 PUSH1 0x20 DUP7 ADD PUSH2 0x12EC JUMP JUMPDEST SWAP2 POP POP SWAP3 SWAP2 POP POP JUMP JUMPDEST PUSH1 0x0 DUP2 CALLDATALOAD SWAP1 POP PUSH2 0x138D DUP2 PUSH2 0x20F5 JUMP JUMPDEST SWAP3 SWAP2 POP POP JUMP JUMPDEST PUSH1 0x0 PUSH1 0x20 DUP3 DUP5 SUB SLT ISZERO PUSH2 0x13A5 JUMPI PUSH1 0x0 DUP1 REVERT JUMPDEST PUSH1 0x0 PUSH2 0x13B3 DUP5 DUP3 DUP6 ADD PUSH2 0x132A JUMP JUMPDEST SWAP2 POP POP SWAP3 SWAP2 POP POP JUMP JUMPDEST PUSH1 0x0 DUP1 PUSH1 0x0 PUSH1 0x60 DUP5 DUP7 SUB SLT ISZERO PUSH2 0x13D1 JUMPI PUSH1 0x0 DUP1 REVERT JUMPDEST PUSH1 0x0 PUSH2 0x13DF DUP7 DUP3 DUP8 ADD PUSH2 0x132A JUMP JUMPDEST SWAP4 POP POP PUSH1 0x20 PUSH2 0x13F0 DUP7 DUP3 DUP8 ADD PUSH2 0x132A JUMP JUMPDEST SWAP3 POP POP PUSH1 0x40 PUSH2 0x1401 DUP7 DUP3 DUP8 ADD PUSH2 0x137E JUMP JUMPDEST SWAP2 POP POP SWAP3 POP SWAP3 POP SWAP3 JUMP JUMPDEST PUSH1 0x0 DUP1 PUSH1 0x0 DUP1 PUSH1 0x80 DUP6 DUP8 SUB SLT ISZERO PUSH2 0x1421 JUMPI PUSH1 0x0 DUP1 REVERT JUMPDEST PUSH1 0x0 PUSH2 0x142F DUP8 DUP3 DUP9 ADD PUSH2 0x132A JUMP JUMPDEST SWAP5 POP POP PUSH1 0x20 PUSH2 0x1440 DUP8 DUP3 DUP9 ADD PUSH2 0x132A JUMP JUMPDEST SWAP4 POP POP PUSH1 0x40 PUSH2 0x1451 DUP8 DUP3 DUP9 ADD PUSH2 0x137E JUMP JUMPDEST SWAP3 POP POP PUSH1 0x60 DUP6 ADD CALLDATALOAD PUSH8 0xFFFFFFFFFFFFFFFF DUP2 GT ISZERO PUSH2 0x146E JUMPI PUSH1 0x0 DUP1 REVERT JUMPDEST PUSH2 0x147A DUP8 DUP3 DUP9 ADD PUSH2 0x1354 JUMP JUMPDEST SWAP2 POP POP SWAP3 SWAP6 SWAP2 SWAP5 POP SWAP3 POP JUMP JUMPDEST PUSH1 0x0 DUP1 PUSH1 0x40 DUP4 DUP6 SUB SLT ISZERO PUSH2 0x1499 JUMPI PUSH1 0x0 DUP1 REVERT JUMPDEST PUSH1 0x0 PUSH2 0x14A7 DUP6 DUP3 DUP7 ADD PUSH2 0x132A JUMP JUMPDEST SWAP3 POP POP PUSH1 0x20 PUSH2 0x14B8 DUP6 DUP3 DUP7 ADD PUSH2 0x137E JUMP JUMPDEST SWAP2 POP POP SWAP3 POP SWAP3 SWAP1 POP JUMP JUMPDEST PUSH1 0x0 PUSH1 0x20 DUP3 DUP5 SUB SLT ISZERO PUSH2 0x14D4 JUMPI PUSH1 0x0 DUP1 REVERT JUMPDEST PUSH1 0x0 PUSH2 0x14E2 DUP5 DUP3 DUP6 ADD PUSH2 0x133F JUMP JUMPDEST SWAP2 POP POP SWAP3 SWAP2 POP POP JUMP JUMPDEST PUSH1 0x0 PUSH1 0x20 DUP3 DUP5 SUB SLT ISZERO PUSH2 0x14FD JUMPI PUSH1 0x0 DUP1 REVERT JUMPDEST PUSH1 0x0 PUSH2 0x150B DUP5 DUP3 DUP6 ADD PUSH2 0x137E JUMP JUMPDEST SWAP2 POP POP SWAP3 SWAP2 POP POP JUMP JUMPDEST PUSH2 0x151D DUP2 PUSH2 0x1EA4 JUMP JUMPDEST DUP3 MSTORE POP POP JUMP JUMPDEST PUSH1 0x0 PUSH2 0x152E DUP3 PUSH2 0x1DA6 JUMP JUMPDEST PUSH2 0x1538 DUP2 DUP6 PUSH2 0x1DBC JUMP JUMPDEST SWAP4 POP PUSH2 0x1548 DUP2 DUP6 PUSH1 0x20 DUP7 ADD PUSH2 0x1F1B JUMP JUMPDEST PUSH2 0x1551 DUP2 PUSH2 0x20B6 JUMP JUMPDEST DUP5 ADD SWAP2 POP POP SWAP3 SWAP2 POP POP JUMP JUMPDEST PUSH1 0x0 PUSH2 0x1567 DUP3 PUSH2 0x1DB1 JUMP JUMPDEST PUSH2 0x1571 DUP2 DUP6 PUSH2 0x1DCD JUMP JUMPDEST SWAP4 POP PUSH2 0x1581 DUP2 DUP6 PUSH1 0x20 DUP7 ADD PUSH2 0x1F1B JUMP JUMPDEST PUSH2 0x158A DUP2 PUSH2 0x20B6 JUMP JUMPDEST DUP5 ADD SWAP2 POP POP SWAP3 SWAP2 POP POP JUMP JUMPDEST PUSH1 0x0 PUSH2 0x15A0 DUP3 PUSH2 0x1DB1 JUMP JUMPDEST PUSH2 0x15AA DUP2 DUP6 PUSH2 0x1DDE JUMP JUMPDEST SWAP4 POP PUSH2 0x15BA DUP2 DUP6 PUSH1 0x20 DUP7 ADD PUSH2 0x1F1B JUMP JUMPDEST DUP1 DUP5 ADD SWAP2 POP POP SWAP3 SWAP2 POP POP JUMP JUMPDEST PUSH1 0x0 PUSH2 0x15D3 PUSH1 0x32 DUP4 PUSH2 0x1DCD JUMP JUMPDEST SWAP2 POP PUSH32 0x4552433732313A207472616E7366657220746F206E6F6E204552433732315265 PUSH1 0x0 DUP4 ADD MSTORE PUSH32 0x63656976657220696D706C656D656E7465720000000000000000000000000000 PUSH1 0x20 DUP4 ADD MSTORE PUSH1 0x40 DUP3 ADD SWAP1 POP SWAP2 SWAP1 POP JUMP JUMPDEST PUSH1 0x0 PUSH2 0x1639 PUSH1 0x26 DUP4 PUSH2 0x1DCD JUMP JUMPDEST SWAP2 POP PUSH32 0x4F776E61626C653A206E6577206F776E657220697320746865207A65726F2061 PUSH1 0x0 DUP4 ADD MSTORE PUSH32 0x6464726573730000000000000000000000000000000000000000000000000000 PUSH1 0x20 DUP4 ADD MSTORE PUSH1 0x40 DUP3 ADD SWAP1 POP SWAP2 SWAP1 POP JUMP JUMPDEST PUSH1 0x0 PUSH2 0x169F PUSH1 0x25 DUP4 PUSH2 0x1DCD JUMP JUMPDEST SWAP2 POP PUSH32 0x4552433732313A207472616E736665722066726F6D20696E636F727265637420 PUSH1 0x0 DUP4 ADD MSTORE PUSH32 0x6F776E6572000000000000000000000000000000000000000000000000000000 PUSH1 0x20 DUP4 ADD MSTORE PUSH1 0x40 DUP3 ADD SWAP1 POP SWAP2 SWAP1 POP JUMP JUMPDEST PUSH1 0x0 PUSH2 0x1705 PUSH1 0x24 DUP4 PUSH2 0x1DCD JUMP JUMPDEST SWAP2 POP PUSH32 0x4552433732313A207472616E7366657220746F20746865207A65726F20616464 PUSH1 0x0 DUP4 ADD MSTORE PUSH32 0x7265737300000000000000000000000000000000000000000000000000000000 PUSH1 0x20 DUP4 ADD MSTORE PUSH1 0x40 DUP3 ADD SWAP1 POP SWAP2 SWAP1 POP JUMP JUMPDEST PUSH1 0x0 PUSH2 0x176B PUSH1 0x2C DUP4 PUSH2 0x1DCD JUMP JUMPDEST SWAP2 POP PUSH32 0x4552433732313A206F70657261746F7220717565727920666F72206E6F6E6578 PUSH1 0x0 DUP4 ADD MSTORE PUSH32 0x697374656E7420746F6B656E0000000000000000000000000000000000000000 PUSH1 0x20 DUP4 ADD MSTORE PUSH1 0x40 DUP3 ADD SWAP1 POP SWAP2 SWAP1 POP JUMP JUMPDEST PUSH1 0x0 PUSH2 0x17D1 PUSH1 0x38 DUP4 PUSH2 0x1DCD JUMP JUMPDEST SWAP2 POP PUSH32 0x4552433732313A20617070726F76652063616C6C6572206973206E6F74206F77 PUSH1 0x0 DUP4 ADD MSTORE PUSH32 0x6E6572206E6F7220617070726F76656420666F7220616C6C0000000000000000 PUSH1 0x20 DUP4 ADD MSTORE PUSH1 0x40 DUP3 ADD SWAP1 POP SWAP2 SWAP1 POP JUMP JUMPDEST PUSH1 0x0 PUSH2 0x1837 PUSH1 0x2A DUP4 PUSH2 0x1DCD JUMP JUMPDEST SWAP2 POP PUSH32 0x4552433732313A2062616C616E636520717565727920666F7220746865207A65 PUSH1 0x0 DUP4 ADD MSTORE PUSH32 0x726F206164647265737300000000000000000000000000000000000000000000 PUSH1 0x20 DUP4 ADD MSTORE PUSH1 0x40 DUP3 ADD SWAP1 POP SWAP2 SWAP1 POP JUMP JUMPDEST PUSH1 0x0 PUSH2 0x189D PUSH1 0x29 DUP4 PUSH2 0x1DCD JUMP JUMPDEST SWAP2 POP PUSH32 0x4552433732313A206F776E657220717565727920666F72206E6F6E6578697374 PUSH1 0x0 DUP4 ADD MSTORE PUSH32 0x656E7420746F6B656E0000000000000000000000000000000000000000000000 PUSH1 0x20 DUP4 ADD MSTORE PUSH1 0x40 DUP3 ADD SWAP1 POP SWAP2 SWAP1 POP JUMP JUMPDEST PUSH1 0x0 PUSH2 0x1903 PUSH1 0x2C DUP4 PUSH2 0x1DCD JUMP JUMPDEST SWAP2 POP PUSH32 0x4552433732313A20617070726F76656420717565727920666F72206E6F6E6578 PUSH1 0x0 DUP4 ADD MSTORE PUSH32 0x697374656E7420746F6B656E0000000000000000000000000000000000000000 PUSH1 0x20 DUP4 ADD MSTORE PUSH1 0x40 DUP3 ADD SWAP1 POP SWAP2 SWAP1 POP JUMP JUMPDEST PUSH1 0x0 PUSH2 0x1969 PUSH1 0x20 DUP4 PUSH2 0x1DCD JUMP JUMPDEST SWAP2 POP PUSH32 0x4F776E61626C653A2063616C6C6572206973206E6F7420746865206F776E6572 PUSH1 0x0 DUP4 ADD MSTORE PUSH1 0x20 DUP3 ADD SWAP1 POP SWAP2 SWAP1 POP JUMP JUMPDEST PUSH1 0x0 PUSH2 0x19A9 PUSH1 0x2F DUP4 PUSH2 0x1DCD JUMP JUMPDEST SWAP2 POP PUSH32 0x4552433732314D657461646174613A2055524920717565727920666F72206E6F PUSH1 0x0 DUP4 ADD MSTORE PUSH32 0x6E6578697374656E7420746F6B656E0000000000000000000000000000000000 PUSH1 0x20 DUP4 ADD MSTORE PUSH1 0x40 DUP3 ADD SWAP1 POP SWAP2 SWAP1 POP JUMP JUMPDEST PUSH1 0x0 PUSH2 0x1A0F PUSH1 0x21 DUP4 PUSH2 0x1DCD JUMP JUMPDEST SWAP2 POP PUSH32 0x4552433732313A20617070726F76616C20746F2063757272656E74206F776E65 PUSH1 0x0 DUP4 ADD MSTORE PUSH32 0x7200000000000000000000000000000000000000000000000000000000000000 PUSH1 0x20 DUP4 ADD MSTORE PUSH1 0x40 DUP3 ADD SWAP1 POP SWAP2 SWAP1 POP JUMP JUMPDEST PUSH1 0x0 PUSH2 0x1A75 PUSH1 0x31 DUP4 PUSH2 0x1DCD JUMP JUMPDEST SWAP2 POP PUSH32 0x4552433732313A207472616E736665722063616C6C6572206973206E6F74206F PUSH1 0x0 DUP4 ADD MSTORE PUSH32 0x776E6572206E6F7220617070726F766564000000000000000000000000000000 PUSH1 0x20 DUP4 ADD MSTORE PUSH1 0x40 DUP3 ADD SWAP1 POP SWAP2 SWAP1 POP JUMP JUMPDEST PUSH2 0x1AD7 DUP2 PUSH2 0x1F02 JUMP JUMPDEST DUP3 MSTORE POP POP JUMP JUMPDEST PUSH1 0x0 PUSH2 0x1AE9 DUP3 DUP6 PUSH2 0x1595 JUMP JUMPDEST SWAP2 POP PUSH2 0x1AF5 DUP3 DUP5 PUSH2 0x1595 JUMP JUMPDEST SWAP2 POP DUP2 SWAP1 POP SWAP4 SWAP3 POP POP POP JUMP JUMPDEST PUSH1 0x0 PUSH1 0x20 DUP3 ADD SWAP1 POP PUSH2 0x1B16 PUSH1 0x0 DUP4 ADD DUP5 PUSH2 0x1514 JUMP JUMPDEST SWAP3 SWAP2 POP POP JUMP JUMPDEST PUSH1 0x0 PUSH1 0x80 DUP3 ADD SWAP1 POP PUSH2 0x1B31 PUSH1 0x0 DUP4 ADD DUP8 PUSH2 0x1514 JUMP JUMPDEST PUSH2 0x1B3E PUSH1 0x20 DUP4 ADD DUP7 PUSH2 0x1514 JUMP JUMPDEST PUSH2 0x1B4B PUSH1 0x40 DUP4 ADD DUP6 PUSH2 0x1ACE JUMP JUMPDEST DUP2 DUP2 SUB PUSH1 0x60 DUP4 ADD MSTORE PUSH2 0x1B5D DUP2 DUP5 PUSH2 0x1523 JUMP JUMPDEST SWAP1 POP SWAP6 SWAP5 POP POP POP POP POP JUMP JUMPDEST PUSH1 0x0 PUSH1 0x20 DUP3 ADD SWAP1 POP DUP2 DUP2 SUB PUSH1 0x0 DUP4 ADD MSTORE PUSH2 0x1B82 DUP2 DUP5 PUSH2 0x155C JUMP JUMPDEST SWAP1 POP SWAP3 SWAP2 POP POP JUMP JUMPDEST PUSH1 0x0 PUSH1 0x20 DUP3 ADD SWAP1 POP DUP2 DUP2 SUB PUSH1 0x0 DUP4 ADD MSTORE PUSH2 0x1BA3 DUP2 PUSH2 0x15C6 JUMP JUMPDEST SWAP1 POP SWAP2 SWAP1 POP JUMP JUMPDEST PUSH1 0x0 PUSH1 0x20 DUP3 ADD SWAP1 POP DUP2 DUP2 SUB PUSH1 0x0 DUP4 ADD MSTORE PUSH2 0x1BC3 DUP2 PUSH2 0x162C JUMP JUMPDEST SWAP1 POP SWAP2 SWAP1 POP JUMP JUMPDEST PUSH1 0x0 PUSH1 0x20 DUP3 ADD SWAP1 POP DUP2 DUP2 SUB PUSH1 0x0 DUP4 ADD MSTORE PUSH2 0x1BE3 DUP2 PUSH2 0x1692 JUMP JUMPDEST SWAP1 POP SWAP2 SWAP1 POP JUMP JUMPDEST PUSH1 0x0 PUSH1 0x20 DUP3 ADD SWAP1 POP DUP2 DUP2 SUB PUSH1 0x0 DUP4 ADD MSTORE PUSH2 0x1C03 DUP2 PUSH2 0x16F8 JUMP JUMPDEST SWAP1 POP SWAP2 SWAP1 POP JUMP JUMPDEST PUSH1 0x0 PUSH1 0x20 DUP3 ADD SWAP1 POP DUP2 DUP2 SUB PUSH1 0x0 DUP4 ADD MSTORE PUSH2 0x1C23 DUP2 PUSH2 0x175E JUMP JUMPDEST SWAP1 POP SWAP2 SWAP1 POP JUMP JUMPDEST PUSH1 0x0 PUSH1 0x20 DUP3 ADD SWAP1 POP DUP2 DUP2 SUB PUSH1 0x0 DUP4 ADD MSTORE PUSH2 0x1C43 DUP2 PUSH2 0x17C4 JUMP JUMPDEST SWAP1 POP SWAP2 SWAP1 POP JUMP JUMPDEST PUSH1 0x0 PUSH1 0x20 DUP3 ADD SWAP1 POP DUP2 DUP2 SUB PUSH1 0x0 DUP4 ADD MSTORE PUSH2 0x1C63 DUP2 PUSH2 0x182A JUMP JUMPDEST SWAP1 POP SWAP2 SWAP1 POP JUMP JUMPDEST PUSH1 0x0 PUSH1 0x20 DUP3 ADD SWAP1 POP DUP2 DUP2 SUB PUSH1 0x0 DUP4 ADD MSTORE PUSH2 0x1C83 DUP2 PUSH2 0x1890 JUMP JUMPDEST SWAP1 POP SWAP2 SWAP1 POP JUMP JUMPDEST PUSH1 0x0 PUSH1 0x20 DUP3 ADD SWAP1 POP DUP2 DUP2 SUB PUSH1 0x0 DUP4 ADD MSTORE PUSH2 0x1CA3 DUP2 PUSH2 0x18F6 JUMP JUMPDEST SWAP1 POP SWAP2 SWAP1 POP JUMP JUMPDEST PUSH1 0x0 PUSH1 0x20 DUP3 ADD SWAP1 POP DUP2 DUP2 SUB PUSH1 0x0 DUP4 ADD MSTORE PUSH2 0x1CC3 DUP2 PUSH2 0x195C JUMP JUMPDEST SWAP1 POP SWAP2 SWAP1 POP JUMP JUMPDEST PUSH1 0x0 PUSH1 0x20 DUP3 ADD SWAP1 POP DUP2 DUP2 SUB PUSH1 0x0 DUP4 ADD MSTORE PUSH2 0x1CE3 DUP2 PUSH2 0x199C JUMP JUMPDEST SWAP1 POP SWAP2 SWAP1 POP JUMP JUMPDEST PUSH1 0x0 PUSH1 0x20 DUP3 ADD SWAP1 POP DUP2 DUP2 SUB PUSH1 0x0 DUP4 ADD MSTORE PUSH2 0x1D03 DUP2 PUSH2 0x1A02 JUMP JUMPDEST SWAP1 POP SWAP2 SWAP1 POP JUMP JUMPDEST PUSH1 0x0 PUSH1 0x20 DUP3 ADD SWAP1 POP DUP2 DUP2 SUB PUSH1 0x0 DUP4 ADD MSTORE PUSH2 0x1D23 DUP2 PUSH2 0x1A68 JUMP JUMPDEST SWAP1 POP SWAP2 SWAP1 POP JUMP JUMPDEST PUSH1 0x0 PUSH1 0x20 DUP3 ADD SWAP1 POP PUSH2 0x1D3F PUSH1 0x0 DUP4 ADD DUP5 PUSH2 0x1ACE JUMP JUMPDEST SWAP3 SWAP2 POP POP JUMP JUMPDEST PUSH1 0x0 PUSH1 0x40 MLOAD SWAP1 POP DUP2 DUP2 ADD DUP2 DUP2 LT PUSH8 0xFFFFFFFFFFFFFFFF DUP3 GT OR ISZERO PUSH2 0x1D6C JUMPI PUSH2 0x1D6B PUSH2 0x2087 JUMP JUMPDEST JUMPDEST DUP1 PUSH1 0x40 MSTORE POP SWAP2 SWAP1 POP JUMP JUMPDEST PUSH1 0x0 PUSH8 0xFFFFFFFFFFFFFFFF DUP3 GT ISZERO PUSH2 0x1D91 JUMPI PUSH2 0x1D90 PUSH2 0x2087 JUMP JUMPDEST JUMPDEST PUSH1 0x1F NOT PUSH1 0x1F DUP4 ADD AND SWAP1 POP PUSH1 0x20 DUP2 ADD SWAP1 POP SWAP2 SWAP1 POP JUMP JUMPDEST PUSH1 0x0 DUP2 MLOAD SWAP1 POP SWAP2 SWAP1 POP JUMP JUMPDEST PUSH1 0x0 DUP2 MLOAD SWAP1 POP SWAP2 SWAP1 POP JUMP JUMPDEST PUSH1 0x0 DUP3 DUP3 MSTORE PUSH1 0x20 DUP3 ADD SWAP1 POP SWAP3 SWAP2 POP POP JUMP JUMPDEST PUSH1 0x0 DUP3 DUP3 MSTORE PUSH1 0x20 DUP3 ADD SWAP1 POP SWAP3 SWAP2 POP POP JUMP JUMPDEST PUSH1 0x0 DUP2 SWAP1 POP SWAP3 SWAP2 POP POP JUMP JUMPDEST PUSH1 0x0 PUSH2 0x1DF4 DUP3 PUSH2 0x1F02 JUMP JUMPDEST SWAP2 POP PUSH2 0x1DFF DUP4 PUSH2 0x1F02 JUMP JUMPDEST SWAP3 POP DUP3 PUSH32 0xFFFFFFFFFFFFFFFFFFFFFFFFFFFFFFFFFFFFFFFFFFFFFFFFFFFFFFFFFFFFFFFF SUB DUP3 GT ISZERO PUSH2 0x1E34 JUMPI PUSH2 0x1E33 PUSH2 0x1FFA JUMP JUMPDEST JUMPDEST DUP3 DUP3 ADD SWAP1 POP SWAP3 SWAP2 POP POP JUMP JUMPDEST PUSH1 0x0 PUSH2 0x1E4A DUP3 PUSH2 0x1F02 JUMP JUMPDEST SWAP2 POP PUSH2 0x1E55 DUP4 PUSH2 0x1F02 JUMP JUMPDEST SWAP3 POP DUP3 PUSH2 0x1E65 JUMPI PUSH2 0x1E64 PUSH2 0x2029 JUMP JUMPDEST JUMPDEST DUP3 DUP3 DIV SWAP1 POP SWAP3 SWAP2 POP POP JUMP JUMPDEST PUSH1 0x0 PUSH2 0x1E7B DUP3 PUSH2 0x1F02 JUMP JUMPDEST SWAP2 POP PUSH2 0x1E86 DUP4 PUSH2 0x1F02 JUMP JUMPDEST SWAP3 POP DUP3 DUP3 LT ISZERO PUSH2 0x1E99 JUMPI PUSH2 0x1E98 PUSH2 0x1FFA JUMP JUMPDEST JUMPDEST DUP3 DUP3 SUB SWAP1 POP SWAP3 SWAP2 POP POP JUMP JUMPDEST PUSH1 0x0 PUSH2 0x1EAF DUP3 PUSH2 0x1EE2 JUMP JUMPDEST SWAP1 POP SWAP2 SWAP1 POP JUMP JUMPDEST PUSH1 0x0 PUSH32 0xFFFFFFFF00000000000000000000000000000000000000000000000000000000 DUP3 AND SWAP1 POP SWAP2 SWAP1 POP JUMP JUMPDEST PUSH1 0x0 PUSH20 0xFFFFFFFFFFFFFFFFFFFFFFFFFFFFFFFFFFFFFFFF DUP3 AND SWAP1 POP SWAP2 SWAP1 POP JUMP JUMPDEST PUSH1 0x0 DUP2 SWAP1 POP SWAP2 SWAP1 POP JUMP JUMPDEST DUP3 DUP2 DUP4 CALLDATACOPY PUSH1 0x0 DUP4 DUP4 ADD MSTORE POP POP POP JUMP JUMPDEST PUSH1 0x0 JUMPDEST DUP4 DUP2 LT ISZERO PUSH2 0x1F39 JUMPI DUP1 DUP3 ADD MLOAD DUP2 DUP5 ADD MSTORE PUSH1 0x20 DUP2 ADD SWAP1 POP PUSH2 0x1F1E JUMP JUMPDEST DUP4 DUP2 GT ISZERO PUSH2 0x1F48 JUMPI PUSH1 0x0 DUP5 DUP5 ADD MSTORE JUMPDEST POP POP POP POP JUMP JUMPDEST PUSH1 0x0 PUSH1 0x2 DUP3 DIV SWAP1 POP PUSH1 0x1 DUP3 AND DUP1 PUSH2 0x1F66 JUMPI PUSH1 0x7F DUP3 AND SWAP2 POP JUMPDEST PUSH1 0x20 DUP3 LT DUP2 EQ ISZERO PUSH2 0x1F7A JUMPI PUSH2 0x1F79 PUSH2 0x2058 JUMP JUMPDEST JUMPDEST POP SWAP2 SWAP1 POP JUMP JUMPDEST PUSH1 0x0 PUSH2 0x1F8B DUP3 PUSH2 0x1F02 JUMP JUMPDEST SWAP2 POP PUSH32 0xFFFFFFFFFFFFFFFFFFFFFFFFFFFFFFFFFFFFFFFFFFFFFFFFFFFFFFFFFFFFFFFF DUP3 EQ ISZERO PUSH2 0x1FBE JUMPI PUSH2 0x1FBD PUSH2 0x1FFA JUMP JUMPDEST JUMPDEST PUSH1 0x1 DUP3 ADD SWAP1 POP SWAP2 SWAP1 POP JUMP JUMPDEST PUSH1 0x0 PUSH2 0x1FD4 DUP3 PUSH2 0x1F02 JUMP JUMPDEST SWAP2 POP PUSH2 0x1FDF DUP4 PUSH2 0x1F02 JUMP JUMPDEST SWAP3 POP DUP3 PUSH2 0x1FEF JUMPI PUSH2 0x1FEE PUSH2 0x2029 JUMP JUMPDEST JUMPDEST DUP3 DUP3 MOD SWAP1 POP SWAP3 SWAP2 POP POP JUMP JUMPDEST PUSH32 0x4E487B7100000000000000000000000000000000000000000000000000000000 PUSH1 0x0 MSTORE PUSH1 0x11 PUSH1 0x4 MSTORE PUSH1 0x24 PUSH1 0x0 REVERT JUMPDEST PUSH32 0x4E487B7100000000000000000000000000000000000000000000000000000000 PUSH1 0x0 MSTORE PUSH1 0x12 PUSH1 0x4 MSTORE PUSH1 0x24 PUSH1 0x0 REVERT JUMPDEST PUSH32 0x4E487B7100000000000000000000000000000000000000000000000000000000 PUSH1 0x0 MSTORE PUSH1 0x22 PUSH1 0x4 MSTORE PUSH1 0x24 PUSH1 0x0 REVERT JUMPDEST PUSH32 0x4E487B7100000000000000000000000000000000000000000000000000000000 PUSH1 0x0 MSTORE PUSH1 0x41 PUSH1 0x4 MSTORE PUSH1 0x24 PUSH1 0x0 REVERT JUMPDEST PUSH1 0x0 PUSH1 0x1F NOT PUSH1 0x1F DUP4 ADD AND SWAP1 POP SWAP2 SWAP1 POP JUMP JUMPDEST PUSH2 0x20D0 DUP2 PUSH2 0x1EA4 JUMP JUMPDEST DUP2 EQ PUSH2 0x20DB JUMPI PUSH1 0x0 DUP1 REVERT JUMPDEST POP JUMP JUMPDEST PUSH2 0x20E7 DUP2 PUSH2 0x1EB6 JUMP JUMPDEST DUP2 EQ PUSH2 0x20F2 JUMPI PUSH1 0x0 DUP1 REVERT JUMPDEST POP JUMP JUMPDEST PUSH2 0x20FE DUP2 PUSH2 0x1F02 JUMP JUMPDEST DUP2 EQ PUSH2 0x2109 JUMPI PUSH1 0x0 DUP1 REVERT JUMPDEST POP JUMP INVALID LOG2 PUSH5 0x6970667358 0x22 SLT KECCAK256 0xC9 0x23 0xAA 0x49 PUSH5 0x731F39DDD6 0xF PUSH14 0xBDD98BBEB0B35C4CA4505E5DA9A6 REVERT SELFBALANCE CALL ADD PUSH17 0x8A64736F6C634300080000330000000000 "
				},
				"gasEstimates": {
					"creation": {
						"codeDepositCost": "1702800",
						"executionCost": "infinite",
						"totalCost": "infinite"
					},
					"external": {
						"approve(address,uint256)": "infinite",
						"balanceOf(address)": "1602",
						"getApproved(uint256)": "2583",
						"name()": "infinite",
						"owner()": "1289",
						"ownerOf(uint256)": "1759",
						"renounceOwnership()": "24419",
						"safeTransferFrom(address,address,uint256)": "infinite",
						"safeTransferFrom(address,address,uint256,bytes)": "infinite",
						"symbol()": "infinite",
						"tokenURI(uint256)": "2095",
						"transferFrom(address,address,uint256)": "infinite",
						"transferOwnership(address)": "24811"
					},
					"internal": {
						"_afterTokenTransfer(address,address,uint256)": "15",
						"_approve(address,uint256)": "infinite",
						"_baseURI()": "infinite",
						"_beforeTokenTransfer(address,address,uint256)": "15",
						"_burn(uint256)": "infinite",
						"_checkOnERC721Received(address,address,uint256,bytes memory)": "infinite",
						"_exists(uint256)": "969",
						"_isApprovedOrOwner(address,uint256)": "infinite",
						"_mint(address,uint256)": "infinite",
						"_safeMint(address,uint256)": "infinite",
						"_safeMint(address,uint256,bytes memory)": "infinite",
						"_safeTransfer(address,address,uint256,bytes memory)": "infinite",
						"_setApprovalForAll(address,address,bool)": "infinite",
						"_transfer(address,address,uint256)": "infinite"
					}
				},
				"methodIdentifiers": {
					"approve(address,uint256)": "095ea7b3",
					"balanceOf(address)": "70a08231",
					"getApproved(uint256)": "081812fc",
					"name()": "06fdde03",
					"owner()": "8da5cb5b",
					"ownerOf(uint256)": "6352211e",
					"renounceOwnership()": "715018a6",
					"safeTransferFrom(address,address,uint256)": "42842e0e",
					"safeTransferFrom(address,address,uint256,bytes)": "b88d4fde",
					"symbol()": "95d89b41",
					"tokenURI(uint256)": "c87b56dd",
					"transferFrom(address,address,uint256)": "23b872dd",
					"transferOwnership(address)": "f2fde38b"
				}
			},
			"storageLayout": {
				"storage": [
					{
						"astId": 516,
						"contract": "contracts/NFTContract/SQFItem.sol:ERC721",
						"label": "_owner",
						"offset": 0,
						"slot": "0",
						"type": "t_address"
					},
					{
						"astId": 731,
						"contract": "contracts/NFTContract/SQFItem.sol:ERC721",
						"label": "_balances",
						"offset": 0,
						"slot": "1",
						"type": "t_mapping(t_address,t_uint256)"
					},
					{
						"astId": 735,
						"contract": "contracts/NFTContract/SQFItem.sol:ERC721",
						"label": "_owners",
						"offset": 0,
						"slot": "2",
						"type": "t_mapping(t_uint256,t_address)"
					},
					{
						"astId": 739,
						"contract": "contracts/NFTContract/SQFItem.sol:ERC721",
						"label": "_tokenURIs",
						"offset": 0,
						"slot": "3",
						"type": "t_mapping(t_uint256,t_address)"
					},
					{
						"astId": 743,
						"contract": "contracts/NFTContract/SQFItem.sol:ERC721",
						"label": "_tokenApprovals",
						"offset": 0,
						"slot": "4",
						"type": "t_mapping(t_uint256,t_address)"
					},
					{
						"astId": 749,
						"contract": "contracts/NFTContract/SQFItem.sol:ERC721",
						"label": "_operatorApprovals",
						"offset": 0,
						"slot": "5",
						"type": "t_mapping(t_address,t_mapping(t_address,t_bool))"
					},
					{
						"astId": 751,
						"contract": "contracts/NFTContract/SQFItem.sol:ERC721",
						"label": "_totalSupply",
						"offset": 0,
						"slot": "6",
						"type": "t_uint256"
					},
					{
						"astId": 753,
						"contract": "contracts/NFTContract/SQFItem.sol:ERC721",
						"label": "_name",
						"offset": 0,
						"slot": "7",
						"type": "t_string_storage"
					},
					{
						"astId": 755,
						"contract": "contracts/NFTContract/SQFItem.sol:ERC721",
						"label": "_symbol",
						"offset": 0,
						"slot": "8",
						"type": "t_string_storage"
					},
					{
						"astId": 757,
						"contract": "contracts/NFTContract/SQFItem.sol:ERC721",
						"label": "_tokenURIBase",
						"offset": 0,
						"slot": "9",
						"type": "t_string_storage"
					}
				],
				"types": {
					"t_address": {
						"encoding": "inplace",
						"label": "address",
						"numberOfBytes": "20"
					},
					"t_bool": {
						"encoding": "inplace",
						"label": "bool",
						"numberOfBytes": "1"
					},
					"t_mapping(t_address,t_bool)": {
						"encoding": "mapping",
						"key": "t_address",
						"label": "mapping(address => bool)",
						"numberOfBytes": "32",
						"value": "t_bool"
					},
					"t_mapping(t_address,t_mapping(t_address,t_bool))": {
						"encoding": "mapping",
						"key": "t_address",
						"label": "mapping(address => mapping(address => bool))",
						"numberOfBytes": "32",
						"value": "t_mapping(t_address,t_bool)"
					},
					"t_mapping(t_address,t_uint256)": {
						"encoding": "mapping",
						"key": "t_address",
						"label": "mapping(address => uint256)",
						"numberOfBytes": "32",
						"value": "t_uint256"
					},
					"t_mapping(t_uint256,t_address)": {
						"encoding": "mapping",
						"key": "t_uint256",
						"label": "mapping(uint256 => address)",
						"numberOfBytes": "32",
						"value": "t_address"
					},
					"t_string_storage": {
						"encoding": "bytes",
						"label": "string",
						"numberOfBytes": "32"
					},
					"t_uint256": {
						"encoding": "inplace",
						"label": "uint256",
						"numberOfBytes": "32"
					}
				}
			},
			"userdoc": {
				"kind": "user",
				"methods": {},
				"version": 1
			}
		}
	}
}