{
	"contracts/NFTContract2/Proxiable.sol": {
		"ChildOfProxiable": {
			"abi": [
				{
					"anonymous": false,
					"inputs": [
						{
							"indexed": false,
							"internalType": "address",
							"name": "previousAdmin",
							"type": "address"
						},
						{
							"indexed": false,
							"internalType": "address",
							"name": "newAdmin",
							"type": "address"
						}
					],
					"name": "AdminChanged",
					"type": "event"
				},
				{
					"anonymous": false,
					"inputs": [
						{
							"indexed": true,
							"internalType": "address",
							"name": "beacon",
							"type": "address"
						}
					],
					"name": "BeaconUpgraded",
					"type": "event"
				},
				{
					"anonymous": false,
					"inputs": [
						{
							"indexed": true,
							"internalType": "address",
							"name": "implementation",
							"type": "address"
						}
					],
					"name": "Upgraded",
					"type": "event"
				},
				{
					"inputs": [
						{
							"internalType": "address",
							"name": "newImplementation",
							"type": "address"
						}
					],
					"name": "upgradeTo",
					"outputs": [],
					"stateMutability": "nonpayable",
					"type": "function"
				},
				{
					"inputs": [
						{
							"internalType": "address",
							"name": "newImplementation",
							"type": "address"
						},
						{
							"internalType": "bytes",
							"name": "data",
							"type": "bytes"
						}
					],
					"name": "upgradeToAndCall",
					"outputs": [],
					"stateMutability": "payable",
					"type": "function"
				}
			],
			"devdoc": {
				"kind": "dev",
				"methods": {},
				"version": 1
			},
			"evm": {
				"assembly": "    /* \"contracts/NFTContract2/Proxiable.sol\":343:469  contract ChildOfProxiable is Proxiable {... */\n  mstore(0x40, 0x80)\n  callvalue\n  dup1\n  iszero\n  tag_1\n  jumpi\n  0x00\n  dup1\n  revert\ntag_1:\n  pop\n  dataSize(sub_0)\n  dup1\n  dataOffset(sub_0)\n  0x00\n  codecopy\n  0x00\n  return\nstop\n\nsub_0: assembly {\n        /* \"contracts/NFTContract2/Proxiable.sol\":343:469  contract ChildOfProxiable is Proxiable {... */\n      mstore(0x40, 0x80)\n      jumpi(tag_1, lt(calldatasize, 0x04))\n      shr(0xe0, calldataload(0x00))\n      dup1\n      0x3659cfe6\n      eq\n      tag_2\n      jumpi\n      dup1\n      0x4f1ef286\n      eq\n      tag_3\n      jumpi\n    tag_1:\n      0x00\n      dup1\n      revert\n        /* \"contracts/NFTContract2/UUPSUpgradeable.sol\":574:760  function upgradeTo(address newImplementation) external virtual {... */\n    tag_2:\n      callvalue\n      dup1\n      iszero\n      tag_4\n      jumpi\n      0x00\n      dup1\n      revert\n    tag_4:\n      pop\n      tag_5\n      0x04\n      dup1\n      calldatasize\n      sub\n      dup2\n      add\n      swap1\n      tag_6\n      swap2\n      swap1\n      tag_7\n      jump\t// in\n    tag_6:\n      tag_8\n      jump\t// in\n    tag_5:\n      stop\n        /* \"contracts/NFTContract2/UUPSUpgradeable.sol\":766:980  function upgradeToAndCall(address newImplementation, bytes memory data) external payable virtual {... */\n    tag_3:\n      tag_9\n      0x04\n      dup1\n      calldatasize\n      sub\n      dup2\n      add\n      swap1\n      tag_10\n      swap2\n      swap1\n      tag_11\n      jump\t// in\n    tag_10:\n      tag_12\n      jump\t// in\n    tag_9:\n      stop\n        /* \"contracts/NFTContract2/UUPSUpgradeable.sol\":574:760  function upgradeTo(address newImplementation) external virtual {... */\n    tag_8:\n        /* \"contracts/NFTContract2/UUPSUpgradeable.sol\":647:683  _authorizeUpgrade(newImplementation) */\n      tag_14\n        /* \"contracts/NFTContract2/UUPSUpgradeable.sol\":665:682  newImplementation */\n      dup2\n        /* \"contracts/NFTContract2/UUPSUpgradeable.sol\":647:664  _authorizeUpgrade */\n      tag_15\n        /* \"contracts/NFTContract2/UUPSUpgradeable.sol\":647:683  _authorizeUpgrade(newImplementation) */\n      jump\t// in\n    tag_14:\n        /* \"contracts/NFTContract2/UUPSUpgradeable.sol\":693:753  _upgradeToAndCallSecure(newImplementation, bytes(\"\"), false) */\n      tag_16\n        /* \"contracts/NFTContract2/UUPSUpgradeable.sol\":717:734  newImplementation */\n      dup2\n        /* \"contracts/NFTContract2/UUPSUpgradeable.sol\":736:745  bytes(\"\") */\n      mload(0x40)\n      dup1\n      0x20\n      add\n      0x40\n      mstore\n      dup1\n      0x00\n      dup2\n      mstore\n      pop\n        /* \"contracts/NFTContract2/UUPSUpgradeable.sol\":747:752  false */\n      0x00\n        /* \"contracts/NFTContract2/UUPSUpgradeable.sol\":693:716  _upgradeToAndCallSecure */\n      tag_17\n        /* \"contracts/NFTContract2/UUPSUpgradeable.sol\":693:753  _upgradeToAndCallSecure(newImplementation, bytes(\"\"), false) */\n      jump\t// in\n    tag_16:\n        /* \"contracts/NFTContract2/UUPSUpgradeable.sol\":574:760  function upgradeTo(address newImplementation) external virtual {... */\n      pop\n      jump\t// out\n        /* \"contracts/NFTContract2/UUPSUpgradeable.sol\":766:980  function upgradeToAndCall(address newImplementation, bytes memory data) external payable virtual {... */\n    tag_12:\n        /* \"contracts/NFTContract2/UUPSUpgradeable.sol\":873:909  _authorizeUpgrade(newImplementation) */\n      tag_19\n        /* \"contracts/NFTContract2/UUPSUpgradeable.sol\":891:908  newImplementation */\n      dup3\n        /* \"contracts/NFTContract2/UUPSUpgradeable.sol\":873:890  _authorizeUpgrade */\n      tag_15\n        /* \"contracts/NFTContract2/UUPSUpgradeable.sol\":873:909  _authorizeUpgrade(newImplementation) */\n      jump\t// in\n    tag_19:\n        /* \"contracts/NFTContract2/UUPSUpgradeable.sol\":919:973  _upgradeToAndCallSecure(newImplementation, data, true) */\n      tag_20\n        /* \"contracts/NFTContract2/UUPSUpgradeable.sol\":943:960  newImplementation */\n      dup3\n        /* \"contracts/NFTContract2/UUPSUpgradeable.sol\":962:966  data */\n      dup3\n        /* \"contracts/NFTContract2/UUPSUpgradeable.sol\":968:972  true */\n      0x01\n        /* \"contracts/NFTContract2/UUPSUpgradeable.sol\":919:942  _upgradeToAndCallSecure */\n      tag_17\n        /* \"contracts/NFTContract2/UUPSUpgradeable.sol\":919:973  _upgradeToAndCallSecure(newImplementation, data, true) */\n      jump\t// in\n    tag_20:\n        /* \"contracts/NFTContract2/UUPSUpgradeable.sol\":766:980  function upgradeToAndCall(address newImplementation, bytes memory data) external payable virtual {... */\n      pop\n      pop\n      jump\t// out\n        /* \"contracts/NFTContract2/Proxiable.sol\":143:265  function _authorizeUpgrade(address newImplementation) internal override {... */\n    tag_15:\n        /* \"contracts/NFTContract2/Proxiable.sol\":225:258  _beforeUpgrade(newImplementation) */\n      tag_22\n        /* \"contracts/NFTContract2/Proxiable.sol\":240:257  newImplementation */\n      dup2\n        /* \"contracts/NFTContract2/Proxiable.sol\":225:239  _beforeUpgrade */\n      tag_23\n        /* \"contracts/NFTContract2/Proxiable.sol\":225:258  _beforeUpgrade(newImplementation) */\n      jump\t// in\n    tag_22:\n        /* \"contracts/NFTContract2/Proxiable.sol\":143:265  function _authorizeUpgrade(address newImplementation) internal override {... */\n      pop\n      jump\t// out\n        /* \"contracts/NFTContract2/ERC1967Upgrade.sol\":2513:3827  function _upgradeToAndCallSecure(address newImplementation, bytes memory data, bool forceCall) internal {... */\n    tag_17:\n        /* \"contracts/NFTContract2/ERC1967Upgrade.sol\":2627:2652  address oldImplementation */\n      0x00\n        /* \"contracts/NFTContract2/ERC1967Upgrade.sol\":2655:2675  _getImplementation() */\n      tag_25\n        /* \"contracts/NFTContract2/ERC1967Upgrade.sol\":2655:2673  _getImplementation */\n      tag_26\n        /* \"contracts/NFTContract2/ERC1967Upgrade.sol\":2655:2675  _getImplementation() */\n      jump\t// in\n    tag_25:\n        /* \"contracts/NFTContract2/ERC1967Upgrade.sol\":2627:2675  address oldImplementation = _getImplementation() */\n      swap1\n      pop\n        /* \"contracts/NFTContract2/ERC1967Upgrade.sol\":2728:2765  _setImplementation(newImplementation) */\n      tag_27\n        /* \"contracts/NFTContract2/ERC1967Upgrade.sol\":2747:2764  newImplementation */\n      dup5\n        /* \"contracts/NFTContract2/ERC1967Upgrade.sol\":2728:2746  _setImplementation */\n      tag_28\n        /* \"contracts/NFTContract2/ERC1967Upgrade.sol\":2728:2765  _setImplementation(newImplementation) */\n      jump\t// in\n    tag_27:\n        /* \"contracts/NFTContract2/ERC1967Upgrade.sol\":2793:2794  0 */\n      0x00\n        /* \"contracts/NFTContract2/ERC1967Upgrade.sol\":2779:2783  data */\n      dup4\n        /* \"contracts/NFTContract2/ERC1967Upgrade.sol\":2779:2790  data.length */\n      mload\n        /* \"contracts/NFTContract2/ERC1967Upgrade.sol\":2779:2794  data.length > 0 */\n      gt\n        /* \"contracts/NFTContract2/ERC1967Upgrade.sol\":2779:2807  data.length > 0 || forceCall */\n      dup1\n      tag_29\n      jumpi\n      pop\n        /* \"contracts/NFTContract2/ERC1967Upgrade.sol\":2798:2807  forceCall */\n      dup2\n        /* \"contracts/NFTContract2/ERC1967Upgrade.sol\":2779:2807  data.length > 0 || forceCall */\n    tag_29:\n        /* \"contracts/NFTContract2/ERC1967Upgrade.sol\":2775:2887  if (data.length > 0 || forceCall) {... */\n      iszero\n      tag_30\n      jumpi\n        /* \"contracts/NFTContract2/ERC1967Upgrade.sol\":2823:2876  Address.functionDelegateCall(newImplementation, data) */\n      tag_31\n        /* \"contracts/NFTContract2/ERC1967Upgrade.sol\":2852:2869  newImplementation */\n      dup5\n        /* \"contracts/NFTContract2/ERC1967Upgrade.sol\":2871:2875  data */\n      dup5\n        /* \"contracts/NFTContract2/ERC1967Upgrade.sol\":2823:2851  Address.functionDelegateCall */\n      tag_32\n        /* \"contracts/NFTContract2/ERC1967Upgrade.sol\":2823:2876  Address.functionDelegateCall(newImplementation, data) */\n      jump\t// in\n    tag_31:\n      pop\n        /* \"contracts/NFTContract2/ERC1967Upgrade.sol\":2775:2887  if (data.length > 0 || forceCall) {... */\n    tag_30:\n        /* \"contracts/NFTContract2/ERC1967Upgrade.sol\":2957:3004  StorageSlot.BooleanSlot storage rollbackTesting */\n      0x00\n        /* \"contracts/NFTContract2/ERC1967Upgrade.sol\":3007:3049  StorageSlot.getBooleanSlot(_ROLLBACK_SLOT) */\n      tag_33\n        /* \"contracts/NFTContract2/ERC1967Upgrade.sol\":532:598  0x4910fdfa16fed3260ed0e7147f7cc6da11a60208b5b9406d12a635614ffd9143 */\n      0x4910fdfa16fed3260ed0e7147f7cc6da11a60208b5b9406d12a635614ffd9143\n        /* \"contracts/NFTContract2/ERC1967Upgrade.sol\":3034:3048  _ROLLBACK_SLOT */\n      0x00\n      shl\n        /* \"contracts/NFTContract2/ERC1967Upgrade.sol\":3007:3033  StorageSlot.getBooleanSlot */\n      tag_34\n        /* \"contracts/NFTContract2/ERC1967Upgrade.sol\":3007:3049  StorageSlot.getBooleanSlot(_ROLLBACK_SLOT) */\n      jump\t// in\n    tag_33:\n        /* \"contracts/NFTContract2/ERC1967Upgrade.sol\":2957:3049  StorageSlot.BooleanSlot storage rollbackTesting = StorageSlot.getBooleanSlot(_ROLLBACK_SLOT) */\n      swap1\n      pop\n        /* \"contracts/NFTContract2/ERC1967Upgrade.sol\":3064:3079  rollbackTesting */\n      dup1\n        /* \"contracts/NFTContract2/ERC1967Upgrade.sol\":3064:3085  rollbackTesting.value */\n      0x00\n      add\n      0x00\n      swap1\n      sload\n      swap1\n      0x0100\n      exp\n      swap1\n      div\n      0xff\n      and\n        /* \"contracts/NFTContract2/ERC1967Upgrade.sol\":3059:3821  if (!rollbackTesting.value) {... */\n      tag_35\n      jumpi\n        /* \"contracts/NFTContract2/ERC1967Upgrade.sol\":3201:3205  true */\n      0x01\n        /* \"contracts/NFTContract2/ERC1967Upgrade.sol\":3177:3192  rollbackTesting */\n      dup2\n        /* \"contracts/NFTContract2/ERC1967Upgrade.sol\":3177:3198  rollbackTesting.value */\n      0x00\n      add\n      0x00\n        /* \"contracts/NFTContract2/ERC1967Upgrade.sol\":3177:3205  rollbackTesting.value = true */\n      0x0100\n      exp\n      dup2\n      sload\n      dup2\n      0xff\n      mul\n      not\n      and\n      swap1\n      dup4\n      iszero\n      iszero\n      mul\n      or\n      swap1\n      sstore\n      pop\n        /* \"contracts/NFTContract2/ERC1967Upgrade.sol\":3219:3436  Address.functionDelegateCall(... */\n      tag_36\n        /* \"contracts/NFTContract2/ERC1967Upgrade.sol\":3265:3282  newImplementation */\n      dup6\n        /* \"contracts/NFTContract2/ERC1967Upgrade.sol\":3387:3404  oldImplementation */\n      dup4\n        /* \"contracts/NFTContract2/ERC1967Upgrade.sol\":3300:3422  abi.encodeWithSignature(... */\n      add(0x24, mload(0x40))\n      tag_37\n      swap2\n      swap1\n      tag_38\n      jump\t// in\n    tag_37:\n      mload(0x40)\n      0x20\n      dup2\n      dup4\n      sub\n      sub\n      dup2\n      mstore\n      swap1\n      0x40\n      mstore\n      and(not(0xffffffffffffffffffffffffffffffffffffffffffffffffffffffff), 0x3659cfe600000000000000000000000000000000000000000000000000000000)\n      0x20\n      dup3\n      add\n      dup1\n      mload\n      0xffffffffffffffffffffffffffffffffffffffffffffffffffffffff\n      dup4\n      dup2\n      dup4\n      and\n      or\n      dup4\n      mstore\n      pop\n      pop\n      pop\n      pop\n        /* \"contracts/NFTContract2/ERC1967Upgrade.sol\":3219:3247  Address.functionDelegateCall */\n      tag_32\n        /* \"contracts/NFTContract2/ERC1967Upgrade.sol\":3219:3436  Address.functionDelegateCall(... */\n      jump\t// in\n    tag_36:\n      pop\n        /* \"contracts/NFTContract2/ERC1967Upgrade.sol\":3474:3479  false */\n      0x00\n        /* \"contracts/NFTContract2/ERC1967Upgrade.sol\":3450:3465  rollbackTesting */\n      dup2\n        /* \"contracts/NFTContract2/ERC1967Upgrade.sol\":3450:3471  rollbackTesting.value */\n      0x00\n      add\n      0x00\n        /* \"contracts/NFTContract2/ERC1967Upgrade.sol\":3450:3479  rollbackTesting.value = false */\n      0x0100\n      exp\n      dup2\n      sload\n      dup2\n      0xff\n      mul\n      not\n      and\n      swap1\n      dup4\n      iszero\n      iszero\n      mul\n      or\n      swap1\n      sstore\n      pop\n        /* \"contracts/NFTContract2/ERC1967Upgrade.sol\":3566:3586  _getImplementation() */\n      tag_39\n        /* \"contracts/NFTContract2/ERC1967Upgrade.sol\":3566:3584  _getImplementation */\n      tag_26\n        /* \"contracts/NFTContract2/ERC1967Upgrade.sol\":3566:3586  _getImplementation() */\n      jump\t// in\n    tag_39:\n        /* \"contracts/NFTContract2/ERC1967Upgrade.sol\":3545:3586  oldImplementation == _getImplementation() */\n      0xffffffffffffffffffffffffffffffffffffffff\n      and\n        /* \"contracts/NFTContract2/ERC1967Upgrade.sol\":3545:3562  oldImplementation */\n      dup3\n        /* \"contracts/NFTContract2/ERC1967Upgrade.sol\":3545:3586  oldImplementation == _getImplementation() */\n      0xffffffffffffffffffffffffffffffffffffffff\n      and\n      eq\n        /* \"contracts/NFTContract2/ERC1967Upgrade.sol\":3537:3638  require(oldImplementation == _getImplementation(), \"ERC1967Upgrade: upgrade breaks further upgrades\") */\n      tag_40\n      jumpi\n      mload(0x40)\n      0x08c379a000000000000000000000000000000000000000000000000000000000\n      dup2\n      mstore\n      0x04\n      add\n      tag_41\n      swap1\n      tag_42\n      jump\t// in\n    tag_41:\n      mload(0x40)\n      dup1\n      swap2\n      sub\n      swap1\n      revert\n    tag_40:\n        /* \"contracts/NFTContract2/ERC1967Upgrade.sol\":3727:3764  _setImplementation(newImplementation) */\n      tag_43\n        /* \"contracts/NFTContract2/ERC1967Upgrade.sol\":3746:3763  newImplementation */\n      dup6\n        /* \"contracts/NFTContract2/ERC1967Upgrade.sol\":3727:3745  _setImplementation */\n      tag_28\n        /* \"contracts/NFTContract2/ERC1967Upgrade.sol\":3727:3764  _setImplementation(newImplementation) */\n      jump\t// in\n    tag_43:\n        /* \"contracts/NFTContract2/ERC1967Upgrade.sol\":3792:3809  newImplementation */\n      dup5\n        /* \"contracts/NFTContract2/ERC1967Upgrade.sol\":3783:3810  Upgraded(newImplementation) */\n      0xffffffffffffffffffffffffffffffffffffffff\n      and\n      0xbc7cd75a20ee27fd9adebab32041f755214dbc6bffa90cc0225b39da2e5c2d3b\n      mload(0x40)\n      mload(0x40)\n      dup1\n      swap2\n      sub\n      swap1\n      log2\n        /* \"contracts/NFTContract2/ERC1967Upgrade.sol\":3059:3821  if (!rollbackTesting.value) {... */\n    tag_35:\n        /* \"contracts/NFTContract2/ERC1967Upgrade.sol\":2513:3827  function _upgradeToAndCallSecure(address newImplementation, bytes memory data, bool forceCall) internal {... */\n      pop\n      pop\n      pop\n      pop\n      pop\n      jump\t// out\n        /* \"contracts/NFTContract2/Proxiable.sol\":388:467  function _beforeUpgrade(address newImplementation) internal virtual override {} */\n    tag_23:\n      pop\n      jump\t// out\n        /* \"contracts/NFTContract2/ERC1967Upgrade.sol\":1144:1284  function _getImplementation() internal view returns (address) {... */\n    tag_26:\n        /* \"contracts/NFTContract2/ERC1967Upgrade.sol\":1197:1204  address */\n      0x00\n        /* \"contracts/NFTContract2/ERC1967Upgrade.sol\":1223:1271  StorageSlot.getAddressSlot(_IMPLEMENTATION_SLOT) */\n      tag_46\n        /* \"contracts/NFTContract2/ERC1967Upgrade.sol\":873:939  0x360894a13ba1a3210667c828492db98dca3e2076cc3735a920a3ca505d382bbc */\n      0x360894a13ba1a3210667c828492db98dca3e2076cc3735a920a3ca505d382bbc\n        /* \"contracts/NFTContract2/ERC1967Upgrade.sol\":1250:1270  _IMPLEMENTATION_SLOT */\n      0x00\n      shl\n        /* \"contracts/NFTContract2/ERC1967Upgrade.sol\":1223:1249  StorageSlot.getAddressSlot */\n      tag_47\n        /* \"contracts/NFTContract2/ERC1967Upgrade.sol\":1223:1271  StorageSlot.getAddressSlot(_IMPLEMENTATION_SLOT) */\n      jump\t// in\n    tag_46:\n        /* \"contracts/NFTContract2/ERC1967Upgrade.sol\":1223:1277  StorageSlot.getAddressSlot(_IMPLEMENTATION_SLOT).value */\n      0x00\n      add\n      0x00\n      swap1\n      sload\n      swap1\n      0x0100\n      exp\n      swap1\n      div\n      0xffffffffffffffffffffffffffffffffffffffff\n      and\n        /* \"contracts/NFTContract2/ERC1967Upgrade.sol\":1216:1277  return StorageSlot.getAddressSlot(_IMPLEMENTATION_SLOT).value */\n      swap1\n      pop\n        /* \"contracts/NFTContract2/ERC1967Upgrade.sol\":1144:1284  function _getImplementation() internal view returns (address) {... */\n      swap1\n      jump\t// out\n        /* \"contracts/NFTContract2/ERC1967Upgrade.sol\":1375:1634  function _setImplementation(address newImplementation) private {... */\n    tag_28:\n        /* \"contracts/NFTContract2/ERC1967Upgrade.sol\":1456:1493  Address.isContract(newImplementation) */\n      tag_49\n        /* \"contracts/NFTContract2/ERC1967Upgrade.sol\":1475:1492  newImplementation */\n      dup2\n        /* \"contracts/NFTContract2/ERC1967Upgrade.sol\":1456:1474  Address.isContract */\n      tag_50\n        /* \"contracts/NFTContract2/ERC1967Upgrade.sol\":1456:1493  Address.isContract(newImplementation) */\n      jump\t// in\n    tag_49:\n        /* \"contracts/NFTContract2/ERC1967Upgrade.sol\":1448:1543  require(Address.isContract(newImplementation), \"ERC1967: new implementation is not a contract\") */\n      tag_51\n      jumpi\n      mload(0x40)\n      0x08c379a000000000000000000000000000000000000000000000000000000000\n      dup2\n      mstore\n      0x04\n      add\n      tag_52\n      swap1\n      tag_53\n      jump\t// in\n    tag_52:\n      mload(0x40)\n      dup1\n      swap2\n      sub\n      swap1\n      revert\n    tag_51:\n        /* \"contracts/NFTContract2/ERC1967Upgrade.sol\":1610:1627  newImplementation */\n      dup1\n        /* \"contracts/NFTContract2/ERC1967Upgrade.sol\":1553:1601  StorageSlot.getAddressSlot(_IMPLEMENTATION_SLOT) */\n      tag_54\n        /* \"contracts/NFTContract2/ERC1967Upgrade.sol\":873:939  0x360894a13ba1a3210667c828492db98dca3e2076cc3735a920a3ca505d382bbc */\n      0x360894a13ba1a3210667c828492db98dca3e2076cc3735a920a3ca505d382bbc\n        /* \"contracts/NFTContract2/ERC1967Upgrade.sol\":1580:1600  _IMPLEMENTATION_SLOT */\n      0x00\n      shl\n        /* \"contracts/NFTContract2/ERC1967Upgrade.sol\":1553:1579  StorageSlot.getAddressSlot */\n      tag_47\n        /* \"contracts/NFTContract2/ERC1967Upgrade.sol\":1553:1601  StorageSlot.getAddressSlot(_IMPLEMENTATION_SLOT) */\n      jump\t// in\n    tag_54:\n        /* \"contracts/NFTContract2/ERC1967Upgrade.sol\":1553:1607  StorageSlot.getAddressSlot(_IMPLEMENTATION_SLOT).value */\n      0x00\n      add\n      0x00\n        /* \"contracts/NFTContract2/ERC1967Upgrade.sol\":1553:1627  StorageSlot.getAddressSlot(_IMPLEMENTATION_SLOT).value = newImplementation */\n      0x0100\n      exp\n      dup2\n      sload\n      dup2\n      0xffffffffffffffffffffffffffffffffffffffff\n      mul\n      not\n      and\n      swap1\n      dup4\n      0xffffffffffffffffffffffffffffffffffffffff\n      and\n      mul\n      or\n      swap1\n      sstore\n      pop\n        /* \"contracts/NFTContract2/ERC1967Upgrade.sol\":1375:1634  function _setImplementation(address newImplementation) private {... */\n      pop\n      jump\t// out\n        /* \"contracts/NFTContract2/Address.sol\":6276:6474  function functionDelegateCall(address target, bytes memory data) internal returns (bytes memory) {... */\n    tag_32:\n        /* \"contracts/NFTContract2/Address.sol\":6359:6371  bytes memory */\n      0x60\n        /* \"contracts/NFTContract2/Address.sol\":6390:6467  functionDelegateCall(target, data, \"Address: low-level delegate call failed\") */\n      tag_56\n        /* \"contracts/NFTContract2/Address.sol\":6411:6417  target */\n      dup4\n        /* \"contracts/NFTContract2/Address.sol\":6419:6423  data */\n      dup4\n        /* \"contracts/NFTContract2/Address.sol\":6390:6467  functionDelegateCall(target, data, \"Address: low-level delegate call failed\") */\n      mload(0x40)\n      dup1\n      0x60\n      add\n      0x40\n      mstore\n      dup1\n      0x27\n      dup2\n      mstore\n      0x20\n      add\n      data_9fdcd12e4b726339b32a442b0a448365d5d85c96b2d2cff917b4f66c63110398\n      0x27\n      swap2\n      codecopy\n        /* \"contracts/NFTContract2/Address.sol\":6390:6410  functionDelegateCall */\n      tag_57\n        /* \"contracts/NFTContract2/Address.sol\":6390:6467  functionDelegateCall(target, data, \"Address: low-level delegate call failed\") */\n      jump\t// in\n    tag_56:\n        /* \"contracts/NFTContract2/Address.sol\":6383:6467  return functionDelegateCall(target, data, \"Address: low-level delegate call failed\") */\n      swap1\n      pop\n        /* \"contracts/NFTContract2/Address.sol\":6276:6474  function functionDelegateCall(address target, bytes memory data) internal returns (bytes memory) {... */\n      swap3\n      swap2\n      pop\n      pop\n      jump\t// out\n        /* \"contracts/NFTContract2/StorageSlot.sol\":1787:1934  function getBooleanSlot(bytes32 slot) internal pure returns (BooleanSlot storage r) {... */\n    tag_34:\n        /* \"contracts/NFTContract2/StorageSlot.sol\":1848:1869  BooleanSlot storage r */\n      0x00\n        /* \"contracts/NFTContract2/StorageSlot.sol\":1914:1918  slot */\n      dup2\n        /* \"contracts/NFTContract2/StorageSlot.sol\":1904:1918  r.slot := slot */\n      swap1\n      pop\n        /* \"contracts/NFTContract2/StorageSlot.sol\":1890:1928  {... */\n      swap2\n      swap1\n      pop\n      jump\t// out\n        /* \"contracts/NFTContract2/StorageSlot.sol\":1542:1689  function getAddressSlot(bytes32 slot) internal pure returns (AddressSlot storage r) {... */\n    tag_47:\n        /* \"contracts/NFTContract2/StorageSlot.sol\":1603:1624  AddressSlot storage r */\n      0x00\n        /* \"contracts/NFTContract2/StorageSlot.sol\":1669:1673  slot */\n      dup2\n        /* \"contracts/NFTContract2/StorageSlot.sol\":1659:1673  r.slot := slot */\n      swap1\n      pop\n        /* \"contracts/NFTContract2/StorageSlot.sol\":1645:1683  {... */\n      swap2\n      swap1\n      pop\n      jump\t// out\n        /* \"contracts/NFTContract2/Address.sol\":718:1131  function isContract(address account) internal view returns (bool) {... */\n    tag_50:\n        /* \"contracts/NFTContract2/Address.sol\":778:782  bool */\n      0x00\n        /* \"contracts/NFTContract2/Address.sol\":981:993  uint256 size */\n      dup1\n        /* \"contracts/NFTContract2/Address.sol\":1090:1097  account */\n      dup3\n        /* \"contracts/NFTContract2/Address.sol\":1078:1098  extcodesize(account) */\n      extcodesize\n        /* \"contracts/NFTContract2/Address.sol\":1070:1098  size := extcodesize(account) */\n      swap1\n      pop\n        /* \"contracts/NFTContract2/Address.sol\":1123:1124  0 */\n      0x00\n        /* \"contracts/NFTContract2/Address.sol\":1116:1120  size */\n      dup2\n        /* \"contracts/NFTContract2/Address.sol\":1116:1124  size > 0 */\n      gt\n        /* \"contracts/NFTContract2/Address.sol\":1109:1124  return size > 0 */\n      swap2\n      pop\n      pop\n        /* \"contracts/NFTContract2/Address.sol\":718:1131  function isContract(address account) internal view returns (bool) {... */\n      swap2\n      swap1\n      pop\n      jump\t// out\n        /* \"contracts/NFTContract2/Address.sol\":6660:7077  function functionDelegateCall(address target, bytes memory data, string memory errorMessage) internal returns (bytes memory) {... */\n    tag_57:\n        /* \"contracts/NFTContract2/Address.sol\":6771:6783  bytes memory */\n      0x60\n        /* \"contracts/NFTContract2/Address.sol\":6803:6821  isContract(target) */\n      tag_62\n        /* \"contracts/NFTContract2/Address.sol\":6814:6820  target */\n      dup5\n        /* \"contracts/NFTContract2/Address.sol\":6803:6813  isContract */\n      tag_50\n        /* \"contracts/NFTContract2/Address.sol\":6803:6821  isContract(target) */\n      jump\t// in\n    tag_62:\n        /* \"contracts/NFTContract2/Address.sol\":6795:6864  require(isContract(target), \"Address: delegate call to non-contract\") */\n      tag_63\n      jumpi\n      mload(0x40)\n      0x08c379a000000000000000000000000000000000000000000000000000000000\n      dup2\n      mstore\n      0x04\n      add\n      tag_64\n      swap1\n      tag_65\n      jump\t// in\n    tag_64:\n      mload(0x40)\n      dup1\n      swap2\n      sub\n      swap1\n      revert\n    tag_63:\n        /* \"contracts/NFTContract2/Address.sol\":6935:6947  bool success */\n      0x00\n        /* \"contracts/NFTContract2/Address.sol\":6949:6972  bytes memory returndata */\n      dup1\n        /* \"contracts/NFTContract2/Address.sol\":6976:6982  target */\n      dup6\n        /* \"contracts/NFTContract2/Address.sol\":6976:6995  target.delegatecall */\n      0xffffffffffffffffffffffffffffffffffffffff\n      and\n        /* \"contracts/NFTContract2/Address.sol\":6996:7000  data */\n      dup6\n        /* \"contracts/NFTContract2/Address.sol\":6976:7001  target.delegatecall(data) */\n      mload(0x40)\n      tag_66\n      swap2\n      swap1\n      tag_67\n      jump\t// in\n    tag_66:\n      0x00\n      mload(0x40)\n      dup1\n      dup4\n      sub\n      dup2\n      dup6\n      gas\n      delegatecall\n      swap2\n      pop\n      pop\n      returndatasize\n      dup1\n      0x00\n      dup2\n      eq\n      tag_70\n      jumpi\n      mload(0x40)\n      swap2\n      pop\n      and(add(returndatasize, 0x3f), not(0x1f))\n      dup3\n      add\n      0x40\n      mstore\n      returndatasize\n      dup3\n      mstore\n      returndatasize\n      0x00\n      0x20\n      dup5\n      add\n      returndatacopy\n      jump(tag_69)\n    tag_70:\n      0x60\n      swap2\n      pop\n    tag_69:\n      pop\n        /* \"contracts/NFTContract2/Address.sol\":6934:7001  (bool success, bytes memory returndata) = target.delegatecall(data) */\n      swap2\n      pop\n      swap2\n      pop\n        /* \"contracts/NFTContract2/Address.sol\":7018:7070  _verifyCallResult(success, returndata, errorMessage) */\n      tag_71\n        /* \"contracts/NFTContract2/Address.sol\":7036:7043  success */\n      dup3\n        /* \"contracts/NFTContract2/Address.sol\":7045:7055  returndata */\n      dup3\n        /* \"contracts/NFTContract2/Address.sol\":7057:7069  errorMessage */\n      dup7\n        /* \"contracts/NFTContract2/Address.sol\":7018:7035  _verifyCallResult */\n      tag_72\n        /* \"contracts/NFTContract2/Address.sol\":7018:7070  _verifyCallResult(success, returndata, errorMessage) */\n      jump\t// in\n    tag_71:\n        /* \"contracts/NFTContract2/Address.sol\":7011:7070  return _verifyCallResult(success, returndata, errorMessage) */\n      swap3\n      pop\n      pop\n      pop\n        /* \"contracts/NFTContract2/Address.sol\":6660:7077  function functionDelegateCall(address target, bytes memory data, string memory errorMessage) internal returns (bytes memory) {... */\n      swap4\n      swap3\n      pop\n      pop\n      pop\n      jump\t// out\n        /* \"contracts/NFTContract2/Address.sol\":7083:7808  function _verifyCallResult(bool success, bytes memory returndata, string memory errorMessage) private pure returns(bytes memory) {... */\n    tag_72:\n        /* \"contracts/NFTContract2/Address.sol\":7198:7210  bytes memory */\n      0x60\n        /* \"contracts/NFTContract2/Address.sol\":7226:7233  success */\n      dup4\n        /* \"contracts/NFTContract2/Address.sol\":7222:7802  if (success) {... */\n      iszero\n      tag_74\n      jumpi\n        /* \"contracts/NFTContract2/Address.sol\":7256:7266  returndata */\n      dup3\n        /* \"contracts/NFTContract2/Address.sol\":7249:7266  return returndata */\n      swap1\n      pop\n      jump(tag_73)\n        /* \"contracts/NFTContract2/Address.sol\":7222:7802  if (success) {... */\n    tag_74:\n        /* \"contracts/NFTContract2/Address.sol\":7387:7388  0 */\n      0x00\n        /* \"contracts/NFTContract2/Address.sol\":7367:7377  returndata */\n      dup4\n        /* \"contracts/NFTContract2/Address.sol\":7367:7384  returndata.length */\n      mload\n        /* \"contracts/NFTContract2/Address.sol\":7367:7388  returndata.length > 0 */\n      gt\n        /* \"contracts/NFTContract2/Address.sol\":7363:7792  if (returndata.length > 0) {... */\n      iszero\n      tag_76\n      jumpi\n        /* \"contracts/NFTContract2/Address.sol\":7625:7635  returndata */\n      dup3\n        /* \"contracts/NFTContract2/Address.sol\":7619:7636  mload(returndata) */\n      mload\n        /* \"contracts/NFTContract2/Address.sol\":7685:7700  returndata_size */\n      dup1\n        /* \"contracts/NFTContract2/Address.sol\":7672:7682  returndata */\n      dup5\n        /* \"contracts/NFTContract2/Address.sol\":7668:7670  32 */\n      0x20\n        /* \"contracts/NFTContract2/Address.sol\":7664:7683  add(32, returndata) */\n      add\n        /* \"contracts/NFTContract2/Address.sol\":7657:7701  revert(add(32, returndata), returndata_size) */\n      revert\n        /* \"contracts/NFTContract2/Address.sol\":7574:7719  {... */\n    tag_76:\n        /* \"contracts/NFTContract2/Address.sol\":7764:7776  errorMessage */\n      dup2\n        /* \"contracts/NFTContract2/Address.sol\":7757:7777  revert(errorMessage) */\n      mload(0x40)\n      0x08c379a000000000000000000000000000000000000000000000000000000000\n      dup2\n      mstore\n      0x04\n      add\n      tag_78\n      swap2\n      swap1\n      tag_79\n      jump\t// in\n    tag_78:\n      mload(0x40)\n      dup1\n      swap2\n      sub\n      swap1\n      revert\n        /* \"contracts/NFTContract2/Address.sol\":7083:7808  function _verifyCallResult(bool success, bytes memory returndata, string memory errorMessage) private pure returns(bytes memory) {... */\n    tag_73:\n      swap4\n      swap3\n      pop\n      pop\n      pop\n      jump\t// out\n        /* \"#utility.yul\":7:350   */\n    tag_81:\n      0x00\n        /* \"#utility.yul\":109:174   */\n      tag_83\n        /* \"#utility.yul\":125:173   */\n      tag_84\n        /* \"#utility.yul\":166:172   */\n      dup5\n        /* \"#utility.yul\":125:173   */\n      tag_85\n      jump\t// in\n    tag_84:\n        /* \"#utility.yul\":109:174   */\n      tag_86\n      jump\t// in\n    tag_83:\n        /* \"#utility.yul\":100:174   */\n      swap1\n      pop\n        /* \"#utility.yul\":197:203   */\n      dup3\n        /* \"#utility.yul\":190:195   */\n      dup2\n        /* \"#utility.yul\":183:204   */\n      mstore\n        /* \"#utility.yul\":235:239   */\n      0x20\n        /* \"#utility.yul\":228:233   */\n      dup2\n        /* \"#utility.yul\":224:240   */\n      add\n        /* \"#utility.yul\":273:276   */\n      dup5\n        /* \"#utility.yul\":264:270   */\n      dup5\n        /* \"#utility.yul\":259:262   */\n      dup5\n        /* \"#utility.yul\":255:271   */\n      add\n        /* \"#utility.yul\":252:277   */\n      gt\n        /* \"#utility.yul\":249:251   */\n      iszero\n      tag_87\n      jumpi\n        /* \"#utility.yul\":290:291   */\n      0x00\n        /* \"#utility.yul\":287:288   */\n      dup1\n        /* \"#utility.yul\":280:292   */\n      revert\n        /* \"#utility.yul\":249:251   */\n    tag_87:\n        /* \"#utility.yul\":303:344   */\n      tag_88\n        /* \"#utility.yul\":337:343   */\n      dup5\n        /* \"#utility.yul\":332:335   */\n      dup3\n        /* \"#utility.yul\":327:330   */\n      dup6\n        /* \"#utility.yul\":303:344   */\n      tag_89\n      jump\t// in\n    tag_88:\n        /* \"#utility.yul\":90:350   */\n      pop\n      swap4\n      swap3\n      pop\n      pop\n      pop\n      jump\t// out\n        /* \"#utility.yul\":356:495   */\n    tag_90:\n      0x00\n        /* \"#utility.yul\":440:446   */\n      dup2\n        /* \"#utility.yul\":427:447   */\n      calldataload\n        /* \"#utility.yul\":418:447   */\n      swap1\n      pop\n        /* \"#utility.yul\":456:489   */\n      tag_92\n        /* \"#utility.yul\":483:488   */\n      dup2\n        /* \"#utility.yul\":456:489   */\n      tag_93\n      jump\t// in\n    tag_92:\n        /* \"#utility.yul\":408:495   */\n      swap3\n      swap2\n      pop\n      pop\n      jump\t// out\n        /* \"#utility.yul\":514:785   */\n    tag_94:\n      0x00\n        /* \"#utility.yul\":618:621   */\n      dup3\n        /* \"#utility.yul\":611:615   */\n      0x1f\n        /* \"#utility.yul\":603:609   */\n      dup4\n        /* \"#utility.yul\":599:616   */\n      add\n        /* \"#utility.yul\":595:622   */\n      slt\n        /* \"#utility.yul\":585:587   */\n      tag_96\n      jumpi\n        /* \"#utility.yul\":636:637   */\n      0x00\n        /* \"#utility.yul\":633:634   */\n      dup1\n        /* \"#utility.yul\":626:638   */\n      revert\n        /* \"#utility.yul\":585:587   */\n    tag_96:\n        /* \"#utility.yul\":676:682   */\n      dup2\n        /* \"#utility.yul\":663:683   */\n      calldataload\n        /* \"#utility.yul\":701:779   */\n      tag_97\n        /* \"#utility.yul\":775:778   */\n      dup5\n        /* \"#utility.yul\":767:773   */\n      dup3\n        /* \"#utility.yul\":760:764   */\n      0x20\n        /* \"#utility.yul\":752:758   */\n      dup7\n        /* \"#utility.yul\":748:765   */\n      add\n        /* \"#utility.yul\":701:779   */\n      tag_81\n      jump\t// in\n    tag_97:\n        /* \"#utility.yul\":692:779   */\n      swap2\n      pop\n        /* \"#utility.yul\":575:785   */\n      pop\n      swap3\n      swap2\n      pop\n      pop\n      jump\t// out\n        /* \"#utility.yul\":791:1053   */\n    tag_7:\n      0x00\n        /* \"#utility.yul\":899:901   */\n      0x20\n        /* \"#utility.yul\":887:896   */\n      dup3\n        /* \"#utility.yul\":878:885   */\n      dup5\n        /* \"#utility.yul\":874:897   */\n      sub\n        /* \"#utility.yul\":870:902   */\n      slt\n        /* \"#utility.yul\":867:869   */\n      iszero\n      tag_99\n      jumpi\n        /* \"#utility.yul\":915:916   */\n      0x00\n        /* \"#utility.yul\":912:913   */\n      dup1\n        /* \"#utility.yul\":905:917   */\n      revert\n        /* \"#utility.yul\":867:869   */\n    tag_99:\n        /* \"#utility.yul\":958:959   */\n      0x00\n        /* \"#utility.yul\":983:1036   */\n      tag_100\n        /* \"#utility.yul\":1028:1035   */\n      dup5\n        /* \"#utility.yul\":1019:1025   */\n      dup3\n        /* \"#utility.yul\":1008:1017   */\n      dup6\n        /* \"#utility.yul\":1004:1026   */\n      add\n        /* \"#utility.yul\":983:1036   */\n      tag_90\n      jump\t// in\n    tag_100:\n        /* \"#utility.yul\":973:1036   */\n      swap2\n      pop\n        /* \"#utility.yul\":929:1046   */\n      pop\n        /* \"#utility.yul\":857:1053   */\n      swap3\n      swap2\n      pop\n      pop\n      jump\t// out\n        /* \"#utility.yul\":1059:1577   */\n    tag_11:\n      0x00\n      dup1\n        /* \"#utility.yul\":1193:1195   */\n      0x40\n        /* \"#utility.yul\":1181:1190   */\n      dup4\n        /* \"#utility.yul\":1172:1179   */\n      dup6\n        /* \"#utility.yul\":1168:1191   */\n      sub\n        /* \"#utility.yul\":1164:1196   */\n      slt\n        /* \"#utility.yul\":1161:1163   */\n      iszero\n      tag_102\n      jumpi\n        /* \"#utility.yul\":1209:1210   */\n      0x00\n        /* \"#utility.yul\":1206:1207   */\n      dup1\n        /* \"#utility.yul\":1199:1211   */\n      revert\n        /* \"#utility.yul\":1161:1163   */\n    tag_102:\n        /* \"#utility.yul\":1252:1253   */\n      0x00\n        /* \"#utility.yul\":1277:1330   */\n      tag_103\n        /* \"#utility.yul\":1322:1329   */\n      dup6\n        /* \"#utility.yul\":1313:1319   */\n      dup3\n        /* \"#utility.yul\":1302:1311   */\n      dup7\n        /* \"#utility.yul\":1298:1320   */\n      add\n        /* \"#utility.yul\":1277:1330   */\n      tag_90\n      jump\t// in\n    tag_103:\n        /* \"#utility.yul\":1267:1330   */\n      swap3\n      pop\n        /* \"#utility.yul\":1223:1340   */\n      pop\n        /* \"#utility.yul\":1407:1409   */\n      0x20\n        /* \"#utility.yul\":1396:1405   */\n      dup4\n        /* \"#utility.yul\":1392:1410   */\n      add\n        /* \"#utility.yul\":1379:1411   */\n      calldataload\n        /* \"#utility.yul\":1438:1456   */\n      0xffffffffffffffff\n        /* \"#utility.yul\":1430:1436   */\n      dup2\n        /* \"#utility.yul\":1427:1457   */\n      gt\n        /* \"#utility.yul\":1424:1426   */\n      iszero\n      tag_104\n      jumpi\n        /* \"#utility.yul\":1470:1471   */\n      0x00\n        /* \"#utility.yul\":1467:1468   */\n      dup1\n        /* \"#utility.yul\":1460:1472   */\n      revert\n        /* \"#utility.yul\":1424:1426   */\n    tag_104:\n        /* \"#utility.yul\":1498:1560   */\n      tag_105\n        /* \"#utility.yul\":1552:1559   */\n      dup6\n        /* \"#utility.yul\":1543:1549   */\n      dup3\n        /* \"#utility.yul\":1532:1541   */\n      dup7\n        /* \"#utility.yul\":1528:1550   */\n      add\n        /* \"#utility.yul\":1498:1560   */\n      tag_94\n      jump\t// in\n    tag_105:\n        /* \"#utility.yul\":1488:1560   */\n      swap2\n      pop\n        /* \"#utility.yul\":1350:1570   */\n      pop\n        /* \"#utility.yul\":1151:1577   */\n      swap3\n      pop\n      swap3\n      swap1\n      pop\n      jump\t// out\n        /* \"#utility.yul\":1583:1701   */\n    tag_106:\n        /* \"#utility.yul\":1670:1694   */\n      tag_108\n        /* \"#utility.yul\":1688:1693   */\n      dup2\n        /* \"#utility.yul\":1670:1694   */\n      tag_109\n      jump\t// in\n    tag_108:\n        /* \"#utility.yul\":1665:1668   */\n      dup3\n        /* \"#utility.yul\":1658:1695   */\n      mstore\n        /* \"#utility.yul\":1648:1701   */\n      pop\n      pop\n      jump\t// out\n        /* \"#utility.yul\":1707:2080   */\n    tag_110:\n      0x00\n        /* \"#utility.yul\":1839:1877   */\n      tag_112\n        /* \"#utility.yul\":1871:1876   */\n      dup3\n        /* \"#utility.yul\":1839:1877   */\n      tag_113\n      jump\t// in\n    tag_112:\n        /* \"#utility.yul\":1893:1981   */\n      tag_114\n        /* \"#utility.yul\":1974:1980   */\n      dup2\n        /* \"#utility.yul\":1969:1972   */\n      dup6\n        /* \"#utility.yul\":1893:1981   */\n      tag_115\n      jump\t// in\n    tag_114:\n        /* \"#utility.yul\":1886:1981   */\n      swap4\n      pop\n        /* \"#utility.yul\":1990:2042   */\n      tag_116\n        /* \"#utility.yul\":2035:2041   */\n      dup2\n        /* \"#utility.yul\":2030:2033   */\n      dup6\n        /* \"#utility.yul\":2023:2027   */\n      0x20\n        /* \"#utility.yul\":2016:2021   */\n      dup7\n        /* \"#utility.yul\":2012:2028   */\n      add\n        /* \"#utility.yul\":1990:2042   */\n      tag_117\n      jump\t// in\n    tag_116:\n        /* \"#utility.yul\":2067:2073   */\n      dup1\n        /* \"#utility.yul\":2062:2065   */\n      dup5\n        /* \"#utility.yul\":2058:2074   */\n      add\n        /* \"#utility.yul\":2051:2074   */\n      swap2\n      pop\n        /* \"#utility.yul\":1815:2080   */\n      pop\n      swap3\n      swap2\n      pop\n      pop\n      jump\t// out\n        /* \"#utility.yul\":2086:2450   */\n    tag_118:\n      0x00\n        /* \"#utility.yul\":2202:2241   */\n      tag_120\n        /* \"#utility.yul\":2235:2240   */\n      dup3\n        /* \"#utility.yul\":2202:2241   */\n      tag_121\n      jump\t// in\n    tag_120:\n        /* \"#utility.yul\":2257:2328   */\n      tag_122\n        /* \"#utility.yul\":2321:2327   */\n      dup2\n        /* \"#utility.yul\":2316:2319   */\n      dup6\n        /* \"#utility.yul\":2257:2328   */\n      tag_123\n      jump\t// in\n    tag_122:\n        /* \"#utility.yul\":2250:2328   */\n      swap4\n      pop\n        /* \"#utility.yul\":2337:2389   */\n      tag_124\n        /* \"#utility.yul\":2382:2388   */\n      dup2\n        /* \"#utility.yul\":2377:2380   */\n      dup6\n        /* \"#utility.yul\":2370:2374   */\n      0x20\n        /* \"#utility.yul\":2363:2368   */\n      dup7\n        /* \"#utility.yul\":2359:2375   */\n      add\n        /* \"#utility.yul\":2337:2389   */\n      tag_117\n      jump\t// in\n    tag_124:\n        /* \"#utility.yul\":2414:2443   */\n      tag_125\n        /* \"#utility.yul\":2436:2442   */\n      dup2\n        /* \"#utility.yul\":2414:2443   */\n      tag_126\n      jump\t// in\n    tag_125:\n        /* \"#utility.yul\":2409:2412   */\n      dup5\n        /* \"#utility.yul\":2405:2444   */\n      add\n        /* \"#utility.yul\":2398:2444   */\n      swap2\n      pop\n        /* \"#utility.yul\":2178:2450   */\n      pop\n      swap3\n      swap2\n      pop\n      pop\n      jump\t// out\n        /* \"#utility.yul\":2456:2822   */\n    tag_127:\n      0x00\n        /* \"#utility.yul\":2619:2686   */\n      tag_129\n        /* \"#utility.yul\":2683:2685   */\n      0x2f\n        /* \"#utility.yul\":2678:2681   */\n      dup4\n        /* \"#utility.yul\":2619:2686   */\n      tag_123\n      jump\t// in\n    tag_129:\n        /* \"#utility.yul\":2612:2686   */\n      swap2\n      pop\n        /* \"#utility.yul\":2695:2788   */\n      tag_130\n        /* \"#utility.yul\":2784:2787   */\n      dup3\n        /* \"#utility.yul\":2695:2788   */\n      tag_131\n      jump\t// in\n    tag_130:\n        /* \"#utility.yul\":2813:2815   */\n      0x40\n        /* \"#utility.yul\":2808:2811   */\n      dup3\n        /* \"#utility.yul\":2804:2816   */\n      add\n        /* \"#utility.yul\":2797:2816   */\n      swap1\n      pop\n        /* \"#utility.yul\":2602:2822   */\n      swap2\n      swap1\n      pop\n      jump\t// out\n        /* \"#utility.yul\":2828:3194   */\n    tag_132:\n      0x00\n        /* \"#utility.yul\":2991:3058   */\n      tag_134\n        /* \"#utility.yul\":3055:3057   */\n      0x2d\n        /* \"#utility.yul\":3050:3053   */\n      dup4\n        /* \"#utility.yul\":2991:3058   */\n      tag_123\n      jump\t// in\n    tag_134:\n        /* \"#utility.yul\":2984:3058   */\n      swap2\n      pop\n        /* \"#utility.yul\":3067:3160   */\n      tag_135\n        /* \"#utility.yul\":3156:3159   */\n      dup3\n        /* \"#utility.yul\":3067:3160   */\n      tag_136\n      jump\t// in\n    tag_135:\n        /* \"#utility.yul\":3185:3187   */\n      0x40\n        /* \"#utility.yul\":3180:3183   */\n      dup3\n        /* \"#utility.yul\":3176:3188   */\n      add\n        /* \"#utility.yul\":3169:3188   */\n      swap1\n      pop\n        /* \"#utility.yul\":2974:3194   */\n      swap2\n      swap1\n      pop\n      jump\t// out\n        /* \"#utility.yul\":3200:3566   */\n    tag_137:\n      0x00\n        /* \"#utility.yul\":3363:3430   */\n      tag_139\n        /* \"#utility.yul\":3427:3429   */\n      0x26\n        /* \"#utility.yul\":3422:3425   */\n      dup4\n        /* \"#utility.yul\":3363:3430   */\n      tag_123\n      jump\t// in\n    tag_139:\n        /* \"#utility.yul\":3356:3430   */\n      swap2\n      pop\n        /* \"#utility.yul\":3439:3532   */\n      tag_140\n        /* \"#utility.yul\":3528:3531   */\n      dup3\n        /* \"#utility.yul\":3439:3532   */\n      tag_141\n      jump\t// in\n    tag_140:\n        /* \"#utility.yul\":3557:3559   */\n      0x40\n        /* \"#utility.yul\":3552:3555   */\n      dup3\n        /* \"#utility.yul\":3548:3560   */\n      add\n        /* \"#utility.yul\":3541:3560   */\n      swap1\n      pop\n        /* \"#utility.yul\":3346:3566   */\n      swap2\n      swap1\n      pop\n      jump\t// out\n        /* \"#utility.yul\":3572:3843   */\n    tag_67:\n      0x00\n        /* \"#utility.yul\":3724:3817   */\n      tag_143\n        /* \"#utility.yul\":3813:3816   */\n      dup3\n        /* \"#utility.yul\":3804:3810   */\n      dup5\n        /* \"#utility.yul\":3724:3817   */\n      tag_110\n      jump\t// in\n    tag_143:\n        /* \"#utility.yul\":3717:3817   */\n      swap2\n      pop\n        /* \"#utility.yul\":3834:3837   */\n      dup2\n        /* \"#utility.yul\":3827:3837   */\n      swap1\n      pop\n        /* \"#utility.yul\":3706:3843   */\n      swap3\n      swap2\n      pop\n      pop\n      jump\t// out\n        /* \"#utility.yul\":3849:4071   */\n    tag_38:\n      0x00\n        /* \"#utility.yul\":3980:3982   */\n      0x20\n        /* \"#utility.yul\":3969:3978   */\n      dup3\n        /* \"#utility.yul\":3965:3983   */\n      add\n        /* \"#utility.yul\":3957:3983   */\n      swap1\n      pop\n        /* \"#utility.yul\":3993:4064   */\n      tag_145\n        /* \"#utility.yul\":4061:4062   */\n      0x00\n        /* \"#utility.yul\":4050:4059   */\n      dup4\n        /* \"#utility.yul\":4046:4063   */\n      add\n        /* \"#utility.yul\":4037:4043   */\n      dup5\n        /* \"#utility.yul\":3993:4064   */\n      tag_106\n      jump\t// in\n    tag_145:\n        /* \"#utility.yul\":3947:4071   */\n      swap3\n      swap2\n      pop\n      pop\n      jump\t// out\n        /* \"#utility.yul\":4077:4390   */\n    tag_79:\n      0x00\n        /* \"#utility.yul\":4228:4230   */\n      0x20\n        /* \"#utility.yul\":4217:4226   */\n      dup3\n        /* \"#utility.yul\":4213:4231   */\n      add\n        /* \"#utility.yul\":4205:4231   */\n      swap1\n      pop\n        /* \"#utility.yul\":4277:4286   */\n      dup2\n        /* \"#utility.yul\":4271:4275   */\n      dup2\n        /* \"#utility.yul\":4267:4287   */\n      sub\n        /* \"#utility.yul\":4263:4264   */\n      0x00\n        /* \"#utility.yul\":4252:4261   */\n      dup4\n        /* \"#utility.yul\":4248:4265   */\n      add\n        /* \"#utility.yul\":4241:4288   */\n      mstore\n        /* \"#utility.yul\":4305:4383   */\n      tag_147\n        /* \"#utility.yul\":4378:4382   */\n      dup2\n        /* \"#utility.yul\":4369:4375   */\n      dup5\n        /* \"#utility.yul\":4305:4383   */\n      tag_118\n      jump\t// in\n    tag_147:\n        /* \"#utility.yul\":4297:4383   */\n      swap1\n      pop\n        /* \"#utility.yul\":4195:4390   */\n      swap3\n      swap2\n      pop\n      pop\n      jump\t// out\n        /* \"#utility.yul\":4396:4815   */\n    tag_42:\n      0x00\n        /* \"#utility.yul\":4600:4602   */\n      0x20\n        /* \"#utility.yul\":4589:4598   */\n      dup3\n        /* \"#utility.yul\":4585:4603   */\n      add\n        /* \"#utility.yul\":4577:4603   */\n      swap1\n      pop\n        /* \"#utility.yul\":4649:4658   */\n      dup2\n        /* \"#utility.yul\":4643:4647   */\n      dup2\n        /* \"#utility.yul\":4639:4659   */\n      sub\n        /* \"#utility.yul\":4635:4636   */\n      0x00\n        /* \"#utility.yul\":4624:4633   */\n      dup4\n        /* \"#utility.yul\":4620:4637   */\n      add\n        /* \"#utility.yul\":4613:4660   */\n      mstore\n        /* \"#utility.yul\":4677:4808   */\n      tag_149\n        /* \"#utility.yul\":4803:4807   */\n      dup2\n        /* \"#utility.yul\":4677:4808   */\n      tag_127\n      jump\t// in\n    tag_149:\n        /* \"#utility.yul\":4669:4808   */\n      swap1\n      pop\n        /* \"#utility.yul\":4567:4815   */\n      swap2\n      swap1\n      pop\n      jump\t// out\n        /* \"#utility.yul\":4821:5240   */\n    tag_53:\n      0x00\n        /* \"#utility.yul\":5025:5027   */\n      0x20\n        /* \"#utility.yul\":5014:5023   */\n      dup3\n        /* \"#utility.yul\":5010:5028   */\n      add\n        /* \"#utility.yul\":5002:5028   */\n      swap1\n      pop\n        /* \"#utility.yul\":5074:5083   */\n      dup2\n        /* \"#utility.yul\":5068:5072   */\n      dup2\n        /* \"#utility.yul\":5064:5084   */\n      sub\n        /* \"#utility.yul\":5060:5061   */\n      0x00\n        /* \"#utility.yul\":5049:5058   */\n      dup4\n        /* \"#utility.yul\":5045:5062   */\n      add\n        /* \"#utility.yul\":5038:5085   */\n      mstore\n        /* \"#utility.yul\":5102:5233   */\n      tag_151\n        /* \"#utility.yul\":5228:5232   */\n      dup2\n        /* \"#utility.yul\":5102:5233   */\n      tag_132\n      jump\t// in\n    tag_151:\n        /* \"#utility.yul\":5094:5233   */\n      swap1\n      pop\n        /* \"#utility.yul\":4992:5240   */\n      swap2\n      swap1\n      pop\n      jump\t// out\n        /* \"#utility.yul\":5246:5665   */\n    tag_65:\n      0x00\n        /* \"#utility.yul\":5450:5452   */\n      0x20\n        /* \"#utility.yul\":5439:5448   */\n      dup3\n        /* \"#utility.yul\":5435:5453   */\n      add\n        /* \"#utility.yul\":5427:5453   */\n      swap1\n      pop\n        /* \"#utility.yul\":5499:5508   */\n      dup2\n        /* \"#utility.yul\":5493:5497   */\n      dup2\n        /* \"#utility.yul\":5489:5509   */\n      sub\n        /* \"#utility.yul\":5485:5486   */\n      0x00\n        /* \"#utility.yul\":5474:5483   */\n      dup4\n        /* \"#utility.yul\":5470:5487   */\n      add\n        /* \"#utility.yul\":5463:5510   */\n      mstore\n        /* \"#utility.yul\":5527:5658   */\n      tag_153\n        /* \"#utility.yul\":5653:5657   */\n      dup2\n        /* \"#utility.yul\":5527:5658   */\n      tag_137\n      jump\t// in\n    tag_153:\n        /* \"#utility.yul\":5519:5658   */\n      swap1\n      pop\n        /* \"#utility.yul\":5417:5665   */\n      swap2\n      swap1\n      pop\n      jump\t// out\n        /* \"#utility.yul\":5671:5800   */\n    tag_86:\n      0x00\n        /* \"#utility.yul\":5732:5752   */\n      tag_155\n      tag_156\n      jump\t// in\n    tag_155:\n        /* \"#utility.yul\":5722:5752   */\n      swap1\n      pop\n        /* \"#utility.yul\":5761:5794   */\n      tag_157\n        /* \"#utility.yul\":5789:5793   */\n      dup3\n        /* \"#utility.yul\":5781:5787   */\n      dup3\n        /* \"#utility.yul\":5761:5794   */\n      tag_158\n      jump\t// in\n    tag_157:\n        /* \"#utility.yul\":5712:5800   */\n      swap2\n      swap1\n      pop\n      jump\t// out\n        /* \"#utility.yul\":5806:5881   */\n    tag_156:\n      0x00\n        /* \"#utility.yul\":5872:5874   */\n      0x40\n        /* \"#utility.yul\":5866:5875   */\n      mload\n        /* \"#utility.yul\":5856:5875   */\n      swap1\n      pop\n        /* \"#utility.yul\":5846:5881   */\n      swap1\n      jump\t// out\n        /* \"#utility.yul\":5887:6194   */\n    tag_85:\n      0x00\n        /* \"#utility.yul\":6038:6056   */\n      0xffffffffffffffff\n        /* \"#utility.yul\":6030:6036   */\n      dup3\n        /* \"#utility.yul\":6027:6057   */\n      gt\n        /* \"#utility.yul\":6024:6026   */\n      iszero\n      tag_161\n      jumpi\n        /* \"#utility.yul\":6060:6078   */\n      tag_162\n      tag_163\n      jump\t// in\n    tag_162:\n        /* \"#utility.yul\":6024:6026   */\n    tag_161:\n        /* \"#utility.yul\":6098:6127   */\n      tag_164\n        /* \"#utility.yul\":6120:6126   */\n      dup3\n        /* \"#utility.yul\":6098:6127   */\n      tag_126\n      jump\t// in\n    tag_164:\n        /* \"#utility.yul\":6090:6127   */\n      swap1\n      pop\n        /* \"#utility.yul\":6182:6186   */\n      0x20\n        /* \"#utility.yul\":6176:6180   */\n      dup2\n        /* \"#utility.yul\":6172:6187   */\n      add\n        /* \"#utility.yul\":6164:6187   */\n      swap1\n      pop\n        /* \"#utility.yul\":5953:6194   */\n      swap2\n      swap1\n      pop\n      jump\t// out\n        /* \"#utility.yul\":6200:6298   */\n    tag_113:\n      0x00\n        /* \"#utility.yul\":6285:6290   */\n      dup2\n        /* \"#utility.yul\":6279:6291   */\n      mload\n        /* \"#utility.yul\":6269:6291   */\n      swap1\n      pop\n        /* \"#utility.yul\":6258:6298   */\n      swap2\n      swap1\n      pop\n      jump\t// out\n        /* \"#utility.yul\":6304:6403   */\n    tag_121:\n      0x00\n        /* \"#utility.yul\":6390:6395   */\n      dup2\n        /* \"#utility.yul\":6384:6396   */\n      mload\n        /* \"#utility.yul\":6374:6396   */\n      swap1\n      pop\n        /* \"#utility.yul\":6363:6403   */\n      swap2\n      swap1\n      pop\n      jump\t// out\n        /* \"#utility.yul\":6409:6556   */\n    tag_115:\n      0x00\n        /* \"#utility.yul\":6547:6550   */\n      dup2\n        /* \"#utility.yul\":6532:6550   */\n      swap1\n      pop\n        /* \"#utility.yul\":6522:6556   */\n      swap3\n      swap2\n      pop\n      pop\n      jump\t// out\n        /* \"#utility.yul\":6562:6731   */\n    tag_123:\n      0x00\n        /* \"#utility.yul\":6680:6686   */\n      dup3\n        /* \"#utility.yul\":6675:6678   */\n      dup3\n        /* \"#utility.yul\":6668:6687   */\n      mstore\n        /* \"#utility.yul\":6720:6724   */\n      0x20\n        /* \"#utility.yul\":6715:6718   */\n      dup3\n        /* \"#utility.yul\":6711:6725   */\n      add\n        /* \"#utility.yul\":6696:6725   */\n      swap1\n      pop\n        /* \"#utility.yul\":6658:6731   */\n      swap3\n      swap2\n      pop\n      pop\n      jump\t// out\n        /* \"#utility.yul\":6737:6833   */\n    tag_109:\n      0x00\n        /* \"#utility.yul\":6803:6827   */\n      tag_170\n        /* \"#utility.yul\":6821:6826   */\n      dup3\n        /* \"#utility.yul\":6803:6827   */\n      tag_171\n      jump\t// in\n    tag_170:\n        /* \"#utility.yul\":6792:6827   */\n      swap1\n      pop\n        /* \"#utility.yul\":6782:6833   */\n      swap2\n      swap1\n      pop\n      jump\t// out\n        /* \"#utility.yul\":6839:6965   */\n    tag_171:\n      0x00\n        /* \"#utility.yul\":6916:6958   */\n      0xffffffffffffffffffffffffffffffffffffffff\n        /* \"#utility.yul\":6909:6914   */\n      dup3\n        /* \"#utility.yul\":6905:6959   */\n      and\n        /* \"#utility.yul\":6894:6959   */\n      swap1\n      pop\n        /* \"#utility.yul\":6884:6965   */\n      swap2\n      swap1\n      pop\n      jump\t// out\n        /* \"#utility.yul\":6971:7125   */\n    tag_89:\n        /* \"#utility.yul\":7055:7061   */\n      dup3\n        /* \"#utility.yul\":7050:7053   */\n      dup2\n        /* \"#utility.yul\":7045:7048   */\n      dup4\n        /* \"#utility.yul\":7032:7062   */\n      calldatacopy\n        /* \"#utility.yul\":7117:7118   */\n      0x00\n        /* \"#utility.yul\":7108:7114   */\n      dup4\n        /* \"#utility.yul\":7103:7106   */\n      dup4\n        /* \"#utility.yul\":7099:7115   */\n      add\n        /* \"#utility.yul\":7092:7119   */\n      mstore\n        /* \"#utility.yul\":7022:7125   */\n      pop\n      pop\n      pop\n      jump\t// out\n        /* \"#utility.yul\":7131:7438   */\n    tag_117:\n        /* \"#utility.yul\":7199:7200   */\n      0x00\n        /* \"#utility.yul\":7209:7322   */\n    tag_175:\n        /* \"#utility.yul\":7223:7229   */\n      dup4\n        /* \"#utility.yul\":7220:7221   */\n      dup2\n        /* \"#utility.yul\":7217:7230   */\n      lt\n        /* \"#utility.yul\":7209:7322   */\n      iszero\n      tag_177\n      jumpi\n        /* \"#utility.yul\":7308:7309   */\n      dup1\n        /* \"#utility.yul\":7303:7306   */\n      dup3\n        /* \"#utility.yul\":7299:7310   */\n      add\n        /* \"#utility.yul\":7293:7311   */\n      mload\n        /* \"#utility.yul\":7289:7290   */\n      dup2\n        /* \"#utility.yul\":7284:7287   */\n      dup5\n        /* \"#utility.yul\":7280:7291   */\n      add\n        /* \"#utility.yul\":7273:7312   */\n      mstore\n        /* \"#utility.yul\":7245:7247   */\n      0x20\n        /* \"#utility.yul\":7242:7243   */\n      dup2\n        /* \"#utility.yul\":7238:7248   */\n      add\n        /* \"#utility.yul\":7233:7248   */\n      swap1\n      pop\n        /* \"#utility.yul\":7209:7322   */\n      jump(tag_175)\n    tag_177:\n        /* \"#utility.yul\":7340:7346   */\n      dup4\n        /* \"#utility.yul\":7337:7338   */\n      dup2\n        /* \"#utility.yul\":7334:7347   */\n      gt\n        /* \"#utility.yul\":7331:7333   */\n      iszero\n      tag_178\n      jumpi\n        /* \"#utility.yul\":7420:7421   */\n      0x00\n        /* \"#utility.yul\":7411:7417   */\n      dup5\n        /* \"#utility.yul\":7406:7409   */\n      dup5\n        /* \"#utility.yul\":7402:7418   */\n      add\n        /* \"#utility.yul\":7395:7422   */\n      mstore\n        /* \"#utility.yul\":7331:7333   */\n    tag_178:\n        /* \"#utility.yul\":7180:7438   */\n      pop\n      pop\n      pop\n      pop\n      jump\t// out\n        /* \"#utility.yul\":7444:7725   */\n    tag_158:\n        /* \"#utility.yul\":7527:7554   */\n      tag_180\n        /* \"#utility.yul\":7549:7553   */\n      dup3\n        /* \"#utility.yul\":7527:7554   */\n      tag_126\n      jump\t// in\n    tag_180:\n        /* \"#utility.yul\":7519:7525   */\n      dup2\n        /* \"#utility.yul\":7515:7555   */\n      add\n        /* \"#utility.yul\":7657:7663   */\n      dup2\n        /* \"#utility.yul\":7645:7655   */\n      dup2\n        /* \"#utility.yul\":7642:7664   */\n      lt\n        /* \"#utility.yul\":7621:7639   */\n      0xffffffffffffffff\n        /* \"#utility.yul\":7609:7619   */\n      dup3\n        /* \"#utility.yul\":7606:7640   */\n      gt\n        /* \"#utility.yul\":7603:7665   */\n      or\n        /* \"#utility.yul\":7600:7602   */\n      iszero\n      tag_181\n      jumpi\n        /* \"#utility.yul\":7668:7686   */\n      tag_182\n      tag_163\n      jump\t// in\n    tag_182:\n        /* \"#utility.yul\":7600:7602   */\n    tag_181:\n        /* \"#utility.yul\":7708:7718   */\n      dup1\n        /* \"#utility.yul\":7704:7706   */\n      0x40\n        /* \"#utility.yul\":7697:7719   */\n      mstore\n        /* \"#utility.yul\":7487:7725   */\n      pop\n      pop\n      pop\n      jump\t// out\n        /* \"#utility.yul\":7731:7911   */\n    tag_163:\n        /* \"#utility.yul\":7779:7856   */\n      0x4e487b7100000000000000000000000000000000000000000000000000000000\n        /* \"#utility.yul\":7776:7777   */\n      0x00\n        /* \"#utility.yul\":7769:7857   */\n      mstore\n        /* \"#utility.yul\":7876:7880   */\n      0x41\n        /* \"#utility.yul\":7873:7874   */\n      0x04\n        /* \"#utility.yul\":7866:7881   */\n      mstore\n        /* \"#utility.yul\":7900:7904   */\n      0x24\n        /* \"#utility.yul\":7897:7898   */\n      0x00\n        /* \"#utility.yul\":7890:7905   */\n      revert\n        /* \"#utility.yul\":7917:8019   */\n    tag_126:\n      0x00\n        /* \"#utility.yul\":8009:8011   */\n      0x1f\n        /* \"#utility.yul\":8005:8012   */\n      not\n        /* \"#utility.yul\":8000:8002   */\n      0x1f\n        /* \"#utility.yul\":7993:7998   */\n      dup4\n        /* \"#utility.yul\":7989:8003   */\n      add\n        /* \"#utility.yul\":7985:8013   */\n      and\n        /* \"#utility.yul\":7975:8013   */\n      swap1\n      pop\n        /* \"#utility.yul\":7965:8019   */\n      swap2\n      swap1\n      pop\n      jump\t// out\n        /* \"#utility.yul\":8025:8259   */\n    tag_131:\n        /* \"#utility.yul\":8165:8199   */\n      0x45524331393637557067726164653a207570677261646520627265616b732066\n        /* \"#utility.yul\":8161:8162   */\n      0x00\n        /* \"#utility.yul\":8153:8159   */\n      dup3\n        /* \"#utility.yul\":8149:8163   */\n      add\n        /* \"#utility.yul\":8142:8200   */\n      mstore\n        /* \"#utility.yul\":8234:8251   */\n      0x7572746865722075706772616465730000000000000000000000000000000000\n        /* \"#utility.yul\":8229:8231   */\n      0x20\n        /* \"#utility.yul\":8221:8227   */\n      dup3\n        /* \"#utility.yul\":8217:8232   */\n      add\n        /* \"#utility.yul\":8210:8252   */\n      mstore\n        /* \"#utility.yul\":8131:8259   */\n      pop\n      jump\t// out\n        /* \"#utility.yul\":8265:8497   */\n    tag_136:\n        /* \"#utility.yul\":8405:8439   */\n      0x455243313936373a206e657720696d706c656d656e746174696f6e206973206e\n        /* \"#utility.yul\":8401:8402   */\n      0x00\n        /* \"#utility.yul\":8393:8399   */\n      dup3\n        /* \"#utility.yul\":8389:8403   */\n      add\n        /* \"#utility.yul\":8382:8440   */\n      mstore\n        /* \"#utility.yul\":8474:8489   */\n      0x6f74206120636f6e747261637400000000000000000000000000000000000000\n        /* \"#utility.yul\":8469:8471   */\n      0x20\n        /* \"#utility.yul\":8461:8467   */\n      dup3\n        /* \"#utility.yul\":8457:8472   */\n      add\n        /* \"#utility.yul\":8450:8490   */\n      mstore\n        /* \"#utility.yul\":8371:8497   */\n      pop\n      jump\t// out\n        /* \"#utility.yul\":8503:8728   */\n    tag_141:\n        /* \"#utility.yul\":8643:8677   */\n      0x416464726573733a2064656c65676174652063616c6c20746f206e6f6e2d636f\n        /* \"#utility.yul\":8639:8640   */\n      0x00\n        /* \"#utility.yul\":8631:8637   */\n      dup3\n        /* \"#utility.yul\":8627:8641   */\n      add\n        /* \"#utility.yul\":8620:8678   */\n      mstore\n        /* \"#utility.yul\":8712:8720   */\n      0x6e74726163740000000000000000000000000000000000000000000000000000\n        /* \"#utility.yul\":8707:8709   */\n      0x20\n        /* \"#utility.yul\":8699:8705   */\n      dup3\n        /* \"#utility.yul\":8695:8710   */\n      add\n        /* \"#utility.yul\":8688:8721   */\n      mstore\n        /* \"#utility.yul\":8609:8728   */\n      pop\n      jump\t// out\n        /* \"#utility.yul\":8734:8856   */\n    tag_93:\n        /* \"#utility.yul\":8807:8831   */\n      tag_189\n        /* \"#utility.yul\":8825:8830   */\n      dup2\n        /* \"#utility.yul\":8807:8831   */\n      tag_109\n      jump\t// in\n    tag_189:\n        /* \"#utility.yul\":8800:8805   */\n      dup2\n        /* \"#utility.yul\":8797:8832   */\n      eq\n        /* \"#utility.yul\":8787:8789   */\n      tag_190\n      jumpi\n        /* \"#utility.yul\":8846:8847   */\n      0x00\n        /* \"#utility.yul\":8843:8844   */\n      dup1\n        /* \"#utility.yul\":8836:8848   */\n      revert\n        /* \"#utility.yul\":8787:8789   */\n    tag_190:\n        /* \"#utility.yul\":8777:8856   */\n      pop\n      jump\t// out\n    stop\n    data_9fdcd12e4b726339b32a442b0a448365d5d85c96b2d2cff917b4f66c63110398 416464726573733a206c6f772d6c6576656c2064656c65676174652063616c6c206661696c6564\n\n    auxdata: 0xa264697066735822122019728132291df2c614bd41ce8ecf8c8e1397545154be29b146e9296d725d2b0064736f6c63430008020033\n}\n",
				"bytecode": {
					"linkReferences": {},
					"object": "608060405234801561001057600080fd5b50610acc806100206000396000f3fe6080604052600436106100295760003560e01c80633659cfe61461002e5780634f1ef28614610057575b600080fd5b34801561003a57600080fd5b50610055600480360381019061005091906105eb565b610073565b005b610071600480360381019061006c9190610614565b61009a565b005b61007c816100b3565b610097816040518060200160405280600081525060006100bf565b50565b6100a3826100b3565b6100af828260016100bf565b5050565b6100bc816102d3565b50565b60006100c96102d6565b90506100d48461032d565b6000835111806100e15750815b156100f2576100f084846103e6565b505b60006101207f4910fdfa16fed3260ed0e7147f7cc6da11a60208b5b9406d12a635614ffd914360001b610413565b90508060000160009054906101000a900460ff166102cc5760018160000160006101000a81548160ff0219169083151502179055506101ec858360405160240161016a9190610761565b6040516020818303038152906040527f3659cfe6000000000000000000000000000000000000000000000000000000007bffffffffffffffffffffffffffffffffffffffffffffffffffffffff19166020820180517bffffffffffffffffffffffffffffffffffffffffffffffffffffffff83818316178352505050506103e6565b5060008160000160006101000a81548160ff0219169083151502179055506102126102d6565b73ffffffffffffffffffffffffffffffffffffffff168273ffffffffffffffffffffffffffffffffffffffff161461027f576040517f08c379a00000000000000000000000000000000000000000000000000000000081526004016102769061079e565b60405180910390fd5b6102888561032d565b8473ffffffffffffffffffffffffffffffffffffffff167fbc7cd75a20ee27fd9adebab32041f755214dbc6bffa90cc0225b39da2e5c2d3b60405160405180910390a25b5050505050565b50565b60006103047f360894a13ba1a3210667c828492db98dca3e2076cc3735a920a3ca505d382bbc60001b61041d565b60000160009054906101000a900473ffffffffffffffffffffffffffffffffffffffff16905090565b61033681610427565b610375576040517f08c379a000000000000000000000000000000000000000000000000000000000815260040161036c906107be565b60405180910390fd5b806103a27f360894a13ba1a3210667c828492db98dca3e2076cc3735a920a3ca505d382bbc60001b61041d565b60000160006101000a81548173ffffffffffffffffffffffffffffffffffffffff021916908373ffffffffffffffffffffffffffffffffffffffff16021790555050565b606061040b8383604051806060016040528060278152602001610a706027913961043a565b905092915050565b6000819050919050565b6000819050919050565b600080823b905060008111915050919050565b606061044584610427565b610484576040517f08c379a000000000000000000000000000000000000000000000000000000000815260040161047b906107de565b60405180910390fd5b6000808573ffffffffffffffffffffffffffffffffffffffff16856040516104ac919061074a565b600060405180830381855af49150503d80600081146104e7576040519150601f19603f3d011682016040523d82523d6000602084013e6104ec565b606091505b50915091506104fc828286610507565b925050509392505050565b6060831561051757829050610567565b60008351111561052a5782518084602001fd5b816040517f08c379a000000000000000000000000000000000000000000000000000000000815260040161055e919061077c565b60405180910390fd5b9392505050565b600061058161057c84610823565b6107fe565b90508281526020810184848401111561059957600080fd5b6105a48482856108b8565b509392505050565b6000813590506105bb81610a58565b92915050565b600082601f8301126105d257600080fd5b81356105e284826020860161056e565b91505092915050565b6000602082840312156105fd57600080fd5b600061060b848285016105ac565b91505092915050565b6000806040838503121561062757600080fd5b6000610635858286016105ac565b925050602083013567ffffffffffffffff81111561065257600080fd5b61065e858286016105c1565b9150509250929050565b61067181610886565b82525050565b600061068282610854565b61068c818561086a565b935061069c8185602086016108c7565b80840191505092915050565b60006106b38261085f565b6106bd8185610875565b93506106cd8185602086016108c7565b6106d68161095a565b840191505092915050565b60006106ee602f83610875565b91506106f98261096b565b604082019050919050565b6000610711602d83610875565b915061071c826109ba565b604082019050919050565b6000610734602683610875565b915061073f82610a09565b604082019050919050565b60006107568284610677565b915081905092915050565b60006020820190506107766000830184610668565b92915050565b6000602082019050818103600083015261079681846106a8565b905092915050565b600060208201905081810360008301526107b7816106e1565b9050919050565b600060208201905081810360008301526107d781610704565b9050919050565b600060208201905081810360008301526107f781610727565b9050919050565b6000610808610819565b905061081482826108fa565b919050565b6000604051905090565b600067ffffffffffffffff82111561083e5761083d61092b565b5b6108478261095a565b9050602081019050919050565b600081519050919050565b600081519050919050565b600081905092915050565b600082825260208201905092915050565b600061089182610898565b9050919050565b600073ffffffffffffffffffffffffffffffffffffffff82169050919050565b82818337600083830152505050565b60005b838110156108e55780820151818401526020810190506108ca565b838111156108f4576000848401525b50505050565b6109038261095a565b810181811067ffffffffffffffff821117156109225761092161092b565b5b80604052505050565b7f4e487b7100000000000000000000000000000000000000000000000000000000600052604160045260246000fd5b6000601f19601f8301169050919050565b7f45524331393637557067726164653a207570677261646520627265616b73206660008201527f7572746865722075706772616465730000000000000000000000000000000000602082015250565b7f455243313936373a206e657720696d706c656d656e746174696f6e206973206e60008201527f6f74206120636f6e747261637400000000000000000000000000000000000000602082015250565b7f416464726573733a2064656c65676174652063616c6c20746f206e6f6e2d636f60008201527f6e74726163740000000000000000000000000000000000000000000000000000602082015250565b610a6181610886565b8114610a6c57600080fd5b5056fe416464726573733a206c6f772d6c6576656c2064656c65676174652063616c6c206661696c6564a264697066735822122019728132291df2c614bd41ce8ecf8c8e1397545154be29b146e9296d725d2b0064736f6c63430008020033",
					"opcodes": "PUSH1 0x80 PUSH1 0x40 MSTORE CALLVALUE DUP1 ISZERO PUSH2 0x10 JUMPI PUSH1 0x0 DUP1 REVERT JUMPDEST POP PUSH2 0xACC DUP1 PUSH2 0x20 PUSH1 0x0 CODECOPY PUSH1 0x0 RETURN INVALID PUSH1 0x80 PUSH1 0x40 MSTORE PUSH1 0x4 CALLDATASIZE LT PUSH2 0x29 JUMPI PUSH1 0x0 CALLDATALOAD PUSH1 0xE0 SHR DUP1 PUSH4 0x3659CFE6 EQ PUSH2 0x2E JUMPI DUP1 PUSH4 0x4F1EF286 EQ PUSH2 0x57 JUMPI JUMPDEST PUSH1 0x0 DUP1 REVERT JUMPDEST CALLVALUE DUP1 ISZERO PUSH2 0x3A JUMPI PUSH1 0x0 DUP1 REVERT JUMPDEST POP PUSH2 0x55 PUSH1 0x4 DUP1 CALLDATASIZE SUB DUP2 ADD SWAP1 PUSH2 0x50 SWAP2 SWAP1 PUSH2 0x5EB JUMP JUMPDEST PUSH2 0x73 JUMP JUMPDEST STOP JUMPDEST PUSH2 0x71 PUSH1 0x4 DUP1 CALLDATASIZE SUB DUP2 ADD SWAP1 PUSH2 0x6C SWAP2 SWAP1 PUSH2 0x614 JUMP JUMPDEST PUSH2 0x9A JUMP JUMPDEST STOP JUMPDEST PUSH2 0x7C DUP2 PUSH2 0xB3 JUMP JUMPDEST PUSH2 0x97 DUP2 PUSH1 0x40 MLOAD DUP1 PUSH1 0x20 ADD PUSH1 0x40 MSTORE DUP1 PUSH1 0x0 DUP2 MSTORE POP PUSH1 0x0 PUSH2 0xBF JUMP JUMPDEST POP JUMP JUMPDEST PUSH2 0xA3 DUP3 PUSH2 0xB3 JUMP JUMPDEST PUSH2 0xAF DUP3 DUP3 PUSH1 0x1 PUSH2 0xBF JUMP JUMPDEST POP POP JUMP JUMPDEST PUSH2 0xBC DUP2 PUSH2 0x2D3 JUMP JUMPDEST POP JUMP JUMPDEST PUSH1 0x0 PUSH2 0xC9 PUSH2 0x2D6 JUMP JUMPDEST SWAP1 POP PUSH2 0xD4 DUP5 PUSH2 0x32D JUMP JUMPDEST PUSH1 0x0 DUP4 MLOAD GT DUP1 PUSH2 0xE1 JUMPI POP DUP2 JUMPDEST ISZERO PUSH2 0xF2 JUMPI PUSH2 0xF0 DUP5 DUP5 PUSH2 0x3E6 JUMP JUMPDEST POP JUMPDEST PUSH1 0x0 PUSH2 0x120 PUSH32 0x4910FDFA16FED3260ED0E7147F7CC6DA11A60208B5B9406D12A635614FFD9143 PUSH1 0x0 SHL PUSH2 0x413 JUMP JUMPDEST SWAP1 POP DUP1 PUSH1 0x0 ADD PUSH1 0x0 SWAP1 SLOAD SWAP1 PUSH2 0x100 EXP SWAP1 DIV PUSH1 0xFF AND PUSH2 0x2CC JUMPI PUSH1 0x1 DUP2 PUSH1 0x0 ADD PUSH1 0x0 PUSH2 0x100 EXP DUP2 SLOAD DUP2 PUSH1 0xFF MUL NOT AND SWAP1 DUP4 ISZERO ISZERO MUL OR SWAP1 SSTORE POP PUSH2 0x1EC DUP6 DUP4 PUSH1 0x40 MLOAD PUSH1 0x24 ADD PUSH2 0x16A SWAP2 SWAP1 PUSH2 0x761 JUMP JUMPDEST PUSH1 0x40 MLOAD PUSH1 0x20 DUP2 DUP4 SUB SUB DUP2 MSTORE SWAP1 PUSH1 0x40 MSTORE PUSH32 0x3659CFE600000000000000000000000000000000000000000000000000000000 PUSH28 0xFFFFFFFFFFFFFFFFFFFFFFFFFFFFFFFFFFFFFFFFFFFFFFFFFFFFFFFF NOT AND PUSH1 0x20 DUP3 ADD DUP1 MLOAD PUSH28 0xFFFFFFFFFFFFFFFFFFFFFFFFFFFFFFFFFFFFFFFFFFFFFFFFFFFFFFFF DUP4 DUP2 DUP4 AND OR DUP4 MSTORE POP POP POP POP PUSH2 0x3E6 JUMP JUMPDEST POP PUSH1 0x0 DUP2 PUSH1 0x0 ADD PUSH1 0x0 PUSH2 0x100 EXP DUP2 SLOAD DUP2 PUSH1 0xFF MUL NOT AND SWAP1 DUP4 ISZERO ISZERO MUL OR SWAP1 SSTORE POP PUSH2 0x212 PUSH2 0x2D6 JUMP JUMPDEST PUSH20 0xFFFFFFFFFFFFFFFFFFFFFFFFFFFFFFFFFFFFFFFF AND DUP3 PUSH20 0xFFFFFFFFFFFFFFFFFFFFFFFFFFFFFFFFFFFFFFFF AND EQ PUSH2 0x27F JUMPI PUSH1 0x40 MLOAD PUSH32 0x8C379A000000000000000000000000000000000000000000000000000000000 DUP2 MSTORE PUSH1 0x4 ADD PUSH2 0x276 SWAP1 PUSH2 0x79E JUMP JUMPDEST PUSH1 0x40 MLOAD DUP1 SWAP2 SUB SWAP1 REVERT JUMPDEST PUSH2 0x288 DUP6 PUSH2 0x32D JUMP JUMPDEST DUP5 PUSH20 0xFFFFFFFFFFFFFFFFFFFFFFFFFFFFFFFFFFFFFFFF AND PUSH32 0xBC7CD75A20EE27FD9ADEBAB32041F755214DBC6BFFA90CC0225B39DA2E5C2D3B PUSH1 0x40 MLOAD PUSH1 0x40 MLOAD DUP1 SWAP2 SUB SWAP1 LOG2 JUMPDEST POP POP POP POP POP JUMP JUMPDEST POP JUMP JUMPDEST PUSH1 0x0 PUSH2 0x304 PUSH32 0x360894A13BA1A3210667C828492DB98DCA3E2076CC3735A920A3CA505D382BBC PUSH1 0x0 SHL PUSH2 0x41D JUMP JUMPDEST PUSH1 0x0 ADD PUSH1 0x0 SWAP1 SLOAD SWAP1 PUSH2 0x100 EXP SWAP1 DIV PUSH20 0xFFFFFFFFFFFFFFFFFFFFFFFFFFFFFFFFFFFFFFFF AND SWAP1 POP SWAP1 JUMP JUMPDEST PUSH2 0x336 DUP2 PUSH2 0x427 JUMP JUMPDEST PUSH2 0x375 JUMPI PUSH1 0x40 MLOAD PUSH32 0x8C379A000000000000000000000000000000000000000000000000000000000 DUP2 MSTORE PUSH1 0x4 ADD PUSH2 0x36C SWAP1 PUSH2 0x7BE JUMP JUMPDEST PUSH1 0x40 MLOAD DUP1 SWAP2 SUB SWAP1 REVERT JUMPDEST DUP1 PUSH2 0x3A2 PUSH32 0x360894A13BA1A3210667C828492DB98DCA3E2076CC3735A920A3CA505D382BBC PUSH1 0x0 SHL PUSH2 0x41D JUMP JUMPDEST PUSH1 0x0 ADD PUSH1 0x0 PUSH2 0x100 EXP DUP2 SLOAD DUP2 PUSH20 0xFFFFFFFFFFFFFFFFFFFFFFFFFFFFFFFFFFFFFFFF MUL NOT AND SWAP1 DUP4 PUSH20 0xFFFFFFFFFFFFFFFFFFFFFFFFFFFFFFFFFFFFFFFF AND MUL OR SWAP1 SSTORE POP POP JUMP JUMPDEST PUSH1 0x60 PUSH2 0x40B DUP4 DUP4 PUSH1 0x40 MLOAD DUP1 PUSH1 0x60 ADD PUSH1 0x40 MSTORE DUP1 PUSH1 0x27 DUP2 MSTORE PUSH1 0x20 ADD PUSH2 0xA70 PUSH1 0x27 SWAP2 CODECOPY PUSH2 0x43A JUMP JUMPDEST SWAP1 POP SWAP3 SWAP2 POP POP JUMP JUMPDEST PUSH1 0x0 DUP2 SWAP1 POP SWAP2 SWAP1 POP JUMP JUMPDEST PUSH1 0x0 DUP2 SWAP1 POP SWAP2 SWAP1 POP JUMP JUMPDEST PUSH1 0x0 DUP1 DUP3 EXTCODESIZE SWAP1 POP PUSH1 0x0 DUP2 GT SWAP2 POP POP SWAP2 SWAP1 POP JUMP JUMPDEST PUSH1 0x60 PUSH2 0x445 DUP5 PUSH2 0x427 JUMP JUMPDEST PUSH2 0x484 JUMPI PUSH1 0x40 MLOAD PUSH32 0x8C379A000000000000000000000000000000000000000000000000000000000 DUP2 MSTORE PUSH1 0x4 ADD PUSH2 0x47B SWAP1 PUSH2 0x7DE JUMP JUMPDEST PUSH1 0x40 MLOAD DUP1 SWAP2 SUB SWAP1 REVERT JUMPDEST PUSH1 0x0 DUP1 DUP6 PUSH20 0xFFFFFFFFFFFFFFFFFFFFFFFFFFFFFFFFFFFFFFFF AND DUP6 PUSH1 0x40 MLOAD PUSH2 0x4AC SWAP2 SWAP1 PUSH2 0x74A JUMP JUMPDEST PUSH1 0x0 PUSH1 0x40 MLOAD DUP1 DUP4 SUB DUP2 DUP6 GAS DELEGATECALL SWAP2 POP POP RETURNDATASIZE DUP1 PUSH1 0x0 DUP2 EQ PUSH2 0x4E7 JUMPI PUSH1 0x40 MLOAD SWAP2 POP PUSH1 0x1F NOT PUSH1 0x3F RETURNDATASIZE ADD AND DUP3 ADD PUSH1 0x40 MSTORE RETURNDATASIZE DUP3 MSTORE RETURNDATASIZE PUSH1 0x0 PUSH1 0x20 DUP5 ADD RETURNDATACOPY PUSH2 0x4EC JUMP JUMPDEST PUSH1 0x60 SWAP2 POP JUMPDEST POP SWAP2 POP SWAP2 POP PUSH2 0x4FC DUP3 DUP3 DUP7 PUSH2 0x507 JUMP JUMPDEST SWAP3 POP POP POP SWAP4 SWAP3 POP POP POP JUMP JUMPDEST PUSH1 0x60 DUP4 ISZERO PUSH2 0x517 JUMPI DUP3 SWAP1 POP PUSH2 0x567 JUMP JUMPDEST PUSH1 0x0 DUP4 MLOAD GT ISZERO PUSH2 0x52A JUMPI DUP3 MLOAD DUP1 DUP5 PUSH1 0x20 ADD REVERT JUMPDEST DUP2 PUSH1 0x40 MLOAD PUSH32 0x8C379A000000000000000000000000000000000000000000000000000000000 DUP2 MSTORE PUSH1 0x4 ADD PUSH2 0x55E SWAP2 SWAP1 PUSH2 0x77C JUMP JUMPDEST PUSH1 0x40 MLOAD DUP1 SWAP2 SUB SWAP1 REVERT JUMPDEST SWAP4 SWAP3 POP POP POP JUMP JUMPDEST PUSH1 0x0 PUSH2 0x581 PUSH2 0x57C DUP5 PUSH2 0x823 JUMP JUMPDEST PUSH2 0x7FE JUMP JUMPDEST SWAP1 POP DUP3 DUP2 MSTORE PUSH1 0x20 DUP2 ADD DUP5 DUP5 DUP5 ADD GT ISZERO PUSH2 0x599 JUMPI PUSH1 0x0 DUP1 REVERT JUMPDEST PUSH2 0x5A4 DUP5 DUP3 DUP6 PUSH2 0x8B8 JUMP JUMPDEST POP SWAP4 SWAP3 POP POP POP JUMP JUMPDEST PUSH1 0x0 DUP2 CALLDATALOAD SWAP1 POP PUSH2 0x5BB DUP2 PUSH2 0xA58 JUMP JUMPDEST SWAP3 SWAP2 POP POP JUMP JUMPDEST PUSH1 0x0 DUP3 PUSH1 0x1F DUP4 ADD SLT PUSH2 0x5D2 JUMPI PUSH1 0x0 DUP1 REVERT JUMPDEST DUP2 CALLDATALOAD PUSH2 0x5E2 DUP5 DUP3 PUSH1 0x20 DUP7 ADD PUSH2 0x56E JUMP JUMPDEST SWAP2 POP POP SWAP3 SWAP2 POP POP JUMP JUMPDEST PUSH1 0x0 PUSH1 0x20 DUP3 DUP5 SUB SLT ISZERO PUSH2 0x5FD JUMPI PUSH1 0x0 DUP1 REVERT JUMPDEST PUSH1 0x0 PUSH2 0x60B DUP5 DUP3 DUP6 ADD PUSH2 0x5AC JUMP JUMPDEST SWAP2 POP POP SWAP3 SWAP2 POP POP JUMP JUMPDEST PUSH1 0x0 DUP1 PUSH1 0x40 DUP4 DUP6 SUB SLT ISZERO PUSH2 0x627 JUMPI PUSH1 0x0 DUP1 REVERT JUMPDEST PUSH1 0x0 PUSH2 0x635 DUP6 DUP3 DUP7 ADD PUSH2 0x5AC JUMP JUMPDEST SWAP3 POP POP PUSH1 0x20 DUP4 ADD CALLDATALOAD PUSH8 0xFFFFFFFFFFFFFFFF DUP2 GT ISZERO PUSH2 0x652 JUMPI PUSH1 0x0 DUP1 REVERT JUMPDEST PUSH2 0x65E DUP6 DUP3 DUP7 ADD PUSH2 0x5C1 JUMP JUMPDEST SWAP2 POP POP SWAP3 POP SWAP3 SWAP1 POP JUMP JUMPDEST PUSH2 0x671 DUP2 PUSH2 0x886 JUMP JUMPDEST DUP3 MSTORE POP POP JUMP JUMPDEST PUSH1 0x0 PUSH2 0x682 DUP3 PUSH2 0x854 JUMP JUMPDEST PUSH2 0x68C DUP2 DUP6 PUSH2 0x86A JUMP JUMPDEST SWAP4 POP PUSH2 0x69C DUP2 DUP6 PUSH1 0x20 DUP7 ADD PUSH2 0x8C7 JUMP JUMPDEST DUP1 DUP5 ADD SWAP2 POP POP SWAP3 SWAP2 POP POP JUMP JUMPDEST PUSH1 0x0 PUSH2 0x6B3 DUP3 PUSH2 0x85F JUMP JUMPDEST PUSH2 0x6BD DUP2 DUP6 PUSH2 0x875 JUMP JUMPDEST SWAP4 POP PUSH2 0x6CD DUP2 DUP6 PUSH1 0x20 DUP7 ADD PUSH2 0x8C7 JUMP JUMPDEST PUSH2 0x6D6 DUP2 PUSH2 0x95A JUMP JUMPDEST DUP5 ADD SWAP2 POP POP SWAP3 SWAP2 POP POP JUMP JUMPDEST PUSH1 0x0 PUSH2 0x6EE PUSH1 0x2F DUP4 PUSH2 0x875 JUMP JUMPDEST SWAP2 POP PUSH2 0x6F9 DUP3 PUSH2 0x96B JUMP JUMPDEST PUSH1 0x40 DUP3 ADD SWAP1 POP SWAP2 SWAP1 POP JUMP JUMPDEST PUSH1 0x0 PUSH2 0x711 PUSH1 0x2D DUP4 PUSH2 0x875 JUMP JUMPDEST SWAP2 POP PUSH2 0x71C DUP3 PUSH2 0x9BA JUMP JUMPDEST PUSH1 0x40 DUP3 ADD SWAP1 POP SWAP2 SWAP1 POP JUMP JUMPDEST PUSH1 0x0 PUSH2 0x734 PUSH1 0x26 DUP4 PUSH2 0x875 JUMP JUMPDEST SWAP2 POP PUSH2 0x73F DUP3 PUSH2 0xA09 JUMP JUMPDEST PUSH1 0x40 DUP3 ADD SWAP1 POP SWAP2 SWAP1 POP JUMP JUMPDEST PUSH1 0x0 PUSH2 0x756 DUP3 DUP5 PUSH2 0x677 JUMP JUMPDEST SWAP2 POP DUP2 SWAP1 POP SWAP3 SWAP2 POP POP JUMP JUMPDEST PUSH1 0x0 PUSH1 0x20 DUP3 ADD SWAP1 POP PUSH2 0x776 PUSH1 0x0 DUP4 ADD DUP5 PUSH2 0x668 JUMP JUMPDEST SWAP3 SWAP2 POP POP JUMP JUMPDEST PUSH1 0x0 PUSH1 0x20 DUP3 ADD SWAP1 POP DUP2 DUP2 SUB PUSH1 0x0 DUP4 ADD MSTORE PUSH2 0x796 DUP2 DUP5 PUSH2 0x6A8 JUMP JUMPDEST SWAP1 POP SWAP3 SWAP2 POP POP JUMP JUMPDEST PUSH1 0x0 PUSH1 0x20 DUP3 ADD SWAP1 POP DUP2 DUP2 SUB PUSH1 0x0 DUP4 ADD MSTORE PUSH2 0x7B7 DUP2 PUSH2 0x6E1 JUMP JUMPDEST SWAP1 POP SWAP2 SWAP1 POP JUMP JUMPDEST PUSH1 0x0 PUSH1 0x20 DUP3 ADD SWAP1 POP DUP2 DUP2 SUB PUSH1 0x0 DUP4 ADD MSTORE PUSH2 0x7D7 DUP2 PUSH2 0x704 JUMP JUMPDEST SWAP1 POP SWAP2 SWAP1 POP JUMP JUMPDEST PUSH1 0x0 PUSH1 0x20 DUP3 ADD SWAP1 POP DUP2 DUP2 SUB PUSH1 0x0 DUP4 ADD MSTORE PUSH2 0x7F7 DUP2 PUSH2 0x727 JUMP JUMPDEST SWAP1 POP SWAP2 SWAP1 POP JUMP JUMPDEST PUSH1 0x0 PUSH2 0x808 PUSH2 0x819 JUMP JUMPDEST SWAP1 POP PUSH2 0x814 DUP3 DUP3 PUSH2 0x8FA JUMP JUMPDEST SWAP2 SWAP1 POP JUMP JUMPDEST PUSH1 0x0 PUSH1 0x40 MLOAD SWAP1 POP SWAP1 JUMP JUMPDEST PUSH1 0x0 PUSH8 0xFFFFFFFFFFFFFFFF DUP3 GT ISZERO PUSH2 0x83E JUMPI PUSH2 0x83D PUSH2 0x92B JUMP JUMPDEST JUMPDEST PUSH2 0x847 DUP3 PUSH2 0x95A JUMP JUMPDEST SWAP1 POP PUSH1 0x20 DUP2 ADD SWAP1 POP SWAP2 SWAP1 POP JUMP JUMPDEST PUSH1 0x0 DUP2 MLOAD SWAP1 POP SWAP2 SWAP1 POP JUMP JUMPDEST PUSH1 0x0 DUP2 MLOAD SWAP1 POP SWAP2 SWAP1 POP JUMP JUMPDEST PUSH1 0x0 DUP2 SWAP1 POP SWAP3 SWAP2 POP POP JUMP JUMPDEST PUSH1 0x0 DUP3 DUP3 MSTORE PUSH1 0x20 DUP3 ADD SWAP1 POP SWAP3 SWAP2 POP POP JUMP JUMPDEST PUSH1 0x0 PUSH2 0x891 DUP3 PUSH2 0x898 JUMP JUMPDEST SWAP1 POP SWAP2 SWAP1 POP JUMP JUMPDEST PUSH1 0x0 PUSH20 0xFFFFFFFFFFFFFFFFFFFFFFFFFFFFFFFFFFFFFFFF DUP3 AND SWAP1 POP SWAP2 SWAP1 POP JUMP JUMPDEST DUP3 DUP2 DUP4 CALLDATACOPY PUSH1 0x0 DUP4 DUP4 ADD MSTORE POP POP POP JUMP JUMPDEST PUSH1 0x0 JUMPDEST DUP4 DUP2 LT ISZERO PUSH2 0x8E5 JUMPI DUP1 DUP3 ADD MLOAD DUP2 DUP5 ADD MSTORE PUSH1 0x20 DUP2 ADD SWAP1 POP PUSH2 0x8CA JUMP JUMPDEST DUP4 DUP2 GT ISZERO PUSH2 0x8F4 JUMPI PUSH1 0x0 DUP5 DUP5 ADD MSTORE JUMPDEST POP POP POP POP JUMP JUMPDEST PUSH2 0x903 DUP3 PUSH2 0x95A JUMP JUMPDEST DUP2 ADD DUP2 DUP2 LT PUSH8 0xFFFFFFFFFFFFFFFF DUP3 GT OR ISZERO PUSH2 0x922 JUMPI PUSH2 0x921 PUSH2 0x92B JUMP JUMPDEST JUMPDEST DUP1 PUSH1 0x40 MSTORE POP POP POP JUMP JUMPDEST PUSH32 0x4E487B7100000000000000000000000000000000000000000000000000000000 PUSH1 0x0 MSTORE PUSH1 0x41 PUSH1 0x4 MSTORE PUSH1 0x24 PUSH1 0x0 REVERT JUMPDEST PUSH1 0x0 PUSH1 0x1F NOT PUSH1 0x1F DUP4 ADD AND SWAP1 POP SWAP2 SWAP1 POP JUMP JUMPDEST PUSH32 0x45524331393637557067726164653A207570677261646520627265616B732066 PUSH1 0x0 DUP3 ADD MSTORE PUSH32 0x7572746865722075706772616465730000000000000000000000000000000000 PUSH1 0x20 DUP3 ADD MSTORE POP JUMP JUMPDEST PUSH32 0x455243313936373A206E657720696D706C656D656E746174696F6E206973206E PUSH1 0x0 DUP3 ADD MSTORE PUSH32 0x6F74206120636F6E747261637400000000000000000000000000000000000000 PUSH1 0x20 DUP3 ADD MSTORE POP JUMP JUMPDEST PUSH32 0x416464726573733A2064656C65676174652063616C6C20746F206E6F6E2D636F PUSH1 0x0 DUP3 ADD MSTORE PUSH32 0x6E74726163740000000000000000000000000000000000000000000000000000 PUSH1 0x20 DUP3 ADD MSTORE POP JUMP JUMPDEST PUSH2 0xA61 DUP2 PUSH2 0x886 JUMP JUMPDEST DUP2 EQ PUSH2 0xA6C JUMPI PUSH1 0x0 DUP1 REVERT JUMPDEST POP JUMP INVALID COINBASE PUSH5 0x6472657373 GASPRICE KECCAK256 PUSH13 0x6F772D6C6576656C2064656C65 PUSH8 0x6174652063616C6C KECCAK256 PUSH7 0x61696C6564A264 PUSH10 0x70667358221220197281 ORIGIN 0x29 SAR CALLCODE 0xC6 EQ 0xBD COINBASE 0xCE DUP15 0xCF DUP13 DUP15 SGT SWAP8 SLOAD MLOAD SLOAD 0xBE 0x29 0xB1 CHAINID 0xE9 0x29 PUSH14 0x725D2B0064736F6C634300080200 CALLER "
				},
				"gasEstimates": {
					"creation": {
						"codeDepositCost": "552800",
						"executionCost": "587",
						"totalCost": "553387"
					},
					"external": {
						"upgradeTo(address)": "infinite",
						"upgradeToAndCall(address,bytes)": "infinite"
					},
					"internal": {
						"_beforeUpgrade(address)": "11"
					}
				},
				"methodIdentifiers": {
					"upgradeTo(address)": "3659cfe6",
					"upgradeToAndCall(address,bytes)": "4f1ef286"
				}
			},
			"storageLayout": {
				"storage": [],
				"types": null
			},
			"userdoc": {
				"kind": "user",
				"methods": {},
				"version": 1
			}
		}
	}
}